{"hash": "000668fcdaa6c71e3bc1cc91e56e1f2591603d1ece64c440794e028bd3b0422f", "blockhash": "00000000000000000004ffacab907a6b429b9a5745fa0b75af4234bf69dd7176", "vout": [{"scriptPubKey": {"reqSigs": 1, "hex": "a9143aac1286a807d82730af6720b995c8cc4642088787", "addresses": ["373FFU5E4nUn8zBt84eg6nKFesrJc1gWZj"], "asm": "OP_HASH160 3aac1286a807d82730af6720b995c8cc46420887 OP_EQUAL", "type": "scripthash"}, "value": 0.13536877, "n": 0}, {"scriptPubKey": {"reqSigs": 1, "hex": "76a914784733567567a30ef1cb679204feedb73ace497c88ac", "addresses": ["1BxyP7wsVAZV9FHtaF7YntYer9XVYqxjgz"], "asm": "OP_DUP OP_HASH160 784733567567a30ef1cb679204feedb73ace497c OP_EQUALVERIFY OP_CHECKSIG", "type": "pubkeyhash"}, "value": 0.11717291, "n": 1}], "hex": "0100000002a79307fee9270b601d571b1fff19dc25de92ba0e4ce82cd05d4e20a3590321e200000000fdfe00004830450221008c41f25ac29359c8c8b8fa6895bc871c2a589089918254a02213238b84f26dea02202bc79bd01e19bff337f6703caf02ab353a8d1a35eae0eecc258f52da3da0c8d401483045022100cc0be029295bfc8013e20648953d085f1dedf9321f4ac62f01d530c972ae9bf00220399d398fef87cc3e405768d918e9a5046b5054eec952862c7e76998c1da41741014c695221027a280c0f7ec96cda0c82d2d9b424cd05ed322b907ab74db3cb7c8a9d535f60b921030a66a8003b877b23dd0f313d62c1da7f7e923b7fdbd5552072d12580950ad0c42103a3ac0e5ea6e05334dbd7b8f27c5e0d94d1a0d56e22548c399cae2e244349028f53aeffffffff54d635f994a8d1402b5464b03b75ef812254334b7f1f4de234863480c627c4fc00000000fc0047304402200de032f8c61b2a35d2a37705434fff765557c58221cea1dc7edfc71d97a438d202207f301d8cfc09b261cf7f69126a2dc317178d37c2d1ce39fece6e7bc554703faa0147304402200fc64ec6234a9b1c8bf0abbc9b0d6f0801a765671f2db52b2b06c87067af8fdf02201aba41d39b68e393082e10f22be6cb606b2a607c5088cd53c7d33931d347f470014c6952210262c67e504befc929010b34a68967cef121cfaa6c0e95f57bb774f555a8cae1dc21027f4f1a61db247f9a5d15db95121dfe15c8b31b0467a4a7252f73e527b24564002103068990458fa6fb0dd05d7b653f6ce4dffed1d3135e94f18a4b012923cc762f3353aeffffffff026d8ece000000000017a9143aac1286a807d82730af6720b995c8cc4642088787abcab200000000001976a914784733567567a30ef1cb679204feedb73ace497c88ac00000000", "vin": [{"sequence": 4294967295, "scriptSig": {"hex": "004830450221008c41f25ac29359c8c8b8fa6895bc871c2a589089918254a02213238b84f26dea02202bc79bd01e19bff337f6703caf02ab353a8d1a35eae0eecc258f52da3da0c8d401483045022100cc0be029295bfc8013e20648953d085f1dedf9321f4ac62f01d530c972ae9bf00220399d398fef87cc3e405768d918e9a5046b5054eec952862c7e76998c1da41741014c695221027a280c0f7ec96cda0c82d2d9b424cd05ed322b907ab74db3cb7c8a9d535f60b921030a66a8003b877b23dd0f313d62c1da7f7e923b7fdbd5552072d12580950ad0c42103a3ac0e5ea6e05334dbd7b8f27c5e0d94d1a0d56e22548c399cae2e244349028f53ae", "asm": "0 30450221008c41f25ac29359c8c8b8fa6895bc871c2a589089918254a02213238b84f26dea02202bc79bd01e19bff337f6703caf02ab353a8d1a35eae0eecc258f52da3da0c8d4[ALL] 3045022100cc0be029295bfc8013e20648953d085f1dedf9321f4ac62f01d530c972ae9bf00220399d398fef87cc3e405768d918e9a5046b5054eec952862c7e76998c1da41741[ALL] 5221027a280c0f7ec96cda0c82d2d9b424cd05ed322b907ab74db3cb7c8a9d535f60b921030a66a8003b877b23dd0f313d62c1da7f7e923b7fdbd5552072d12580950ad0c42103a3ac0e5ea6e05334dbd7b8f27c5e0d94d1a0d56e22548c399cae2e244349028f53ae"}, "vout": 0, "txid": "e2210359a3204e5dd02ce84c0eba92de25dc19ff1f1b571d600b27e9fe0793a7"}, {"sequence": 4294967295, "scriptSig": {"hex": "0047304402200de032f8c61b2a35d2a37705434fff765557c58221cea1dc7edfc71d97a438d202207f301d8cfc09b261cf7f69126a2dc317178d37c2d1ce39fece6e7bc554703faa0147304402200fc64ec6234a9b1c8bf0abbc9b0d6f0801a765671f2db52b2b06c87067af8fdf02201aba41d39b68e393082e10f22be6cb606b2a607c5088cd53c7d33931d347f470014c6952210262c67e504befc929010b34a68967cef121cfaa6c0e95f57bb774f555a8cae1dc21027f4f1a61db247f9a5d15db95121dfe15c8b31b0467a4a7252f73e527b24564002103068990458fa6fb0dd05d7b653f6ce4dffed1d3135e94f18a4b012923cc762f3353ae", "asm": "0 304402200de032f8c61b2a35d2a37705434fff765557c58221cea1dc7edfc71d97a438d202207f301d8cfc09b261cf7f69126a2dc317178d37c2d1ce39fece6e7bc554703faa[ALL] 304402200fc64ec6234a9b1c8bf0abbc9b0d6f0801a765671f2db52b2b06c87067af8fdf02201aba41d39b68e393082e10f22be6cb606b2a607c5088cd53c7d33931d347f470[ALL] 52210262c67e504befc929010b34a68967cef121cfaa6c0e95f57bb774f555a8cae1dc21027f4f1a61db247f9a5d15db95121dfe15c8b31b0467a4a7252f73e527b24564002103068990458fa6fb0dd05d7b653f6ce4dffed1d3135e94f18a4b012923cc762f3353ae"}, "vout": 0, "txid": "fcc427c680348634e24d1f7f4b33542281ef753bb064542b40d1a894f935d654"}], "txid": "000668fcdaa6c71e3bc1cc91e56e1f2591603d1ece64c440794e028bd3b0422f", "blocktime": 1537875543, "version": 1, "confirmations": 11464, "time": 1537875543, "locktime": 0, "vsize": 666, "size": 666}