{"hash": "000e8668cc163cc30c9780c3d933825dbc582aa494b93066337e45d77186243a", "blockhash": "000000000000000000022b45ed06c6f4ccd3cf7fb5ba4856ebd2e58215665228", "vout": [{"scriptPubKey": {"reqSigs": 1, "hex": "76a914975a3fb980f7ff3768918e5304eac41f37c98be988ac", "addresses": ["1EoH9a9pEfiNksY5Dr2ZVGLB3kGkhFYP9M"], "asm": "OP_DUP OP_HASH160 975a3fb980f7ff3768918e5304eac41f37c98be9 OP_EQUALVERIFY OP_CHECKSIG", "type": "pubkeyhash"}, "value": 3.16755194, "n": 0}, {"scriptPubKey": {"reqSigs": 1, "hex": "76a9147da726064b808af6b1508522b1b93c9e0481d45e88ac", "addresses": ["1CTPhfRhgQHxMc9dUv4WehiTHqLn2wbz6A"], "asm": "OP_DUP OP_HASH160 7da726064b808af6b1508522b1b93c9e0481d45e OP_EQUALVERIFY OP_CHECKSIG", "type": "pubkeyhash"}, "value": 3.83244233, "n": 1}], "hex": "010000000185f00e7bfb24a8a12001ed60397c919f2c6802f0e032e906ec75e1ac3406a8bc010000006a473044022020c0c0456cb34dcb3facc125014cc44bdb50c50d750a69423d37d948e92235eb022057e18f83b1a514e6b713e99b618d94521309b655cc64e04d51c6119c563cb8cc012103707117babad161286da2b3085d7cf17214ddd257a810d08c7d208e5d901d8d7affffffff02fa4ce112000000001976a914975a3fb980f7ff3768918e5304eac41f37c98be988acc9d7d716000000001976a9147da726064b808af6b1508522b1b93c9e0481d45e88ac00000000", "vin": [{"sequence": 4294967295, "scriptSig": {"hex": "473044022020c0c0456cb34dcb3facc125014cc44bdb50c50d750a69423d37d948e92235eb022057e18f83b1a514e6b713e99b618d94521309b655cc64e04d51c6119c563cb8cc012103707117babad161286da2b3085d7cf17214ddd257a810d08c7d208e5d901d8d7a", "asm": "3044022020c0c0456cb34dcb3facc125014cc44bdb50c50d750a69423d37d948e92235eb022057e18f83b1a514e6b713e99b618d94521309b655cc64e04d51c6119c563cb8cc[ALL] 03707117babad161286da2b3085d7cf17214ddd257a810d08c7d208e5d901d8d7a"}, "vout": 1, "txid": "bca80634ace175ec06e932e0f002682c9f917c3960ed0120a1a824fb7b0ef085"}], "txid": "000e8668cc163cc30c9780c3d933825dbc582aa494b93066337e45d77186243a", "blocktime": 1537869901, "version": 1, "confirmations": 11524, "time": 1537869901, "locktime": 0, "vsize": 225, "size": 225}