{"hash": "0013b2deac29103d23f6fcc230e79b9c10a5da1b95696cf56956c57f636209c5", "blockhash": "00000000000000000004ffacab907a6b429b9a5745fa0b75af4234bf69dd7176", "vout": [{"scriptPubKey": {"reqSigs": 1, "hex": "a91488d03cefc55f489637e2149d5eb319bfb087c06687", "addresses": ["3EARHGKSTR1iJBfJ9hKRRgjMnDz78DBrbm"], "asm": "OP_HASH160 88d03cefc55f489637e2149d5eb319bfb087c066 OP_EQUAL", "type": "scripthash"}, "value": 0.341, "n": 0}, {"scriptPubKey": {"reqSigs": 1, "hex": "a9143b855b57da7fd92ab7061de77e644fbe2341f69d87", "addresses": ["377jYexgCQFzKaH4U6m1rtTboTKXHGuUQE"], "asm": "OP_HASH160 3b855b57da7fd92ab7061de77e644fbe2341f69d OP_EQUAL", "type": "scripthash"}, "value": 0.226, "n": 1}, {"scriptPubKey": {"reqSigs": 1, "hex": "76a9145e992aadbe3c04bccb225b95e2ce4274f98e9f5488ac", "addresses": ["19dC1F2iw98sn9sEQxXoFZveTQ8epgrNa1"], "asm": "OP_DUP OP_HASH160 5e992aadbe3c04bccb225b95e2ce4274f98e9f54 OP_EQUALVERIFY OP_CHECKSIG", "type": "pubkeyhash"}, "value": 0.674, "n": 2}, {"scriptPubKey": {"reqSigs": 1, "hex": "76a91496bcc2d7bf5e10856bc09ab74956e593baf6936588ac", "addresses": ["1Ek2V8JypLT3DHL2WDbpNNDN7SPxgY75qk"], "asm": "OP_DUP OP_HASH160 96bcc2d7bf5e10856bc09ab74956e593baf69365 OP_EQUALVERIFY OP_CHECKSIG", "type": "pubkeyhash"}, "value": 0.199, "n": 3}, {"scriptPubKey": {"reqSigs": 1, "hex": "a91422f8d6cf7414053ec74e1b62a8d072c87bd328d887", "addresses": ["34svzi8bcsp8RPhrHgyzZ4ezQFdexxgAfk"], "asm": "OP_HASH160 22f8d6cf7414053ec74e1b62a8d072c87bd328d8 OP_EQUAL", "type": "scripthash"}, "value": 19.6313257, "n": 4}], "hex": "010000000c94eb6a15e474486684380785586a0eb55c602e2de0368955682f451688bd1c0747000000fdfd0000483045022100837aaa02893e3bbf223a96a6e551797f1b0f6cddc581a2fe9833ff6cf1c58e2902207cbf811d6a775955d089a493ce62c11bd6f084f85ffc11b3c54be662e33b67f101473044022028b38f36fd89f8a7b910d165b4008eed2f02126aacea5c46e31a4437dfa902290220093c80313f74505bf158633e60ad81f73fa4a753e0e430d5ed07711665d66a02014c69522102a63a6c3a7ce96c8cde5f5db55dbd466660445deaed0f54906f0d7009ecdf11d1210222591617766ece1f997517fcdc68ca50ea074a60bb3a970cbc11970c8c125df72102c832a73d9446da2765c490f839d8315da49660195a784f575d014a213128f1dc53aeffffffff94eb6a15e474486684380785586a0eb55c602e2de0368955682f451688bd1c075b000000fdfd000047304402203dd7140f7c76c6e3bc10fc8445c50b6f8bee3ee0bc337dfdd1d518f85d81f34a022047f9492710d9949d6eb32ee1cb4168d18739267cc8ae4782f8268a390a045aa701483045022100e0583368c0c4311ed3271334147575adc828cc6cb6e6220f4741b387755a1e2102201976a8eae9683190e90bf9adce52454ca234a9e70a138b9a9cf59a9069ccea41014c69522102aa4fcfdac1d85c19edc21ea97a314ac272f11080f7d855b00ca297915c0bbc4321021cfb4c0a0867bcc512fafe0d298b49fb534aa0bc2fb1cf06b3a5f5ad15a0053321024d45f9cb42db6c5af5a46ed0549054348faee8b7a1416cd06a72afc683c3fa1653aeffffffff94eb6a15e474486684380785586a0eb55c602e2de0368955682f451688bd1c0704000000fdfd0000483045022100b96d6cc03b7d56cfca8d3d8f1a9566c6409ee449187981bf048b12f614728b1d02205edd32715537ef3998b99528526bcc43513369278f9bb68ba715b1dbbdbcb56801473044022005a40833e7ec2396a339d9579206d7fa07e927e730c01212ab92633b83fb7b93022048f876fbb2695aaba92c757bc498fa144ff1467e83422b317dd62c6490f2d91b014c69522103701386fe3029ddab2713b2a4bb9459fbf7eea1a1b0b16068ec85f1b5e8c492832103a4e46e2da46024bf82c984c7522674253b8cc2a6e230ecd22907b31befde15ec2103606ac2a103cdd69f57e7c4189bae6da44bda8f65e2bb986b2d491d787cd0d6a453aeffffffff94eb6a15e474486684380785586a0eb55c602e2de0368955682f451688bd1c0761000000fc00473044022005e41f216dbdf6bd82fe9824e3e2f21630fad230c407e6aaf5f29e730430f8d0022016f0828e153f1a959a75490bb35aa904d0c55905db43e71841d6e56bf49f8c8801473044022074f33691775758dfb954dc9da887787d64c2a867fb11a36e6e96852042375643022004738c2c50840662bbfdddab22640e2874c6daf9dad2a2c7f03a923954d46e68014c69522102672c0166f10be29d81863adb8047c2b8d2524a88be733aba1e258d1be442a13021038d850e57744a877e72c1291894f8a019b21c907aa70b612c3fb085da82619a632102064388a99ec25e1d9b11d5f2f8dfb29bc0ec24697a380b63af35e381fe7ce47e53aeffffffff94eb6a15e474486684380785586a0eb55c602e2de0368955682f451688bd1c0711000000fdfd0000483045022100cacab0c5c482a54c6ee9c45f86d103c074504ed0188f86efe3f769e3a0d7757a02200a53e6c13b0ca3ada5bd6261c8a8bc2fb14f56b8541745c5a76019ebd9d653d3014730440220491025eead2e333b5e80b02b1cd18bde738917485380c59112eacea34a4a65bb02207278da556b538902015316df5eced2a2b2426ab5a01bc1b601997c29d6b499e8014c69522103ef766bec8a3f5399a389ff5e253162f51037f1b7de3e6606a1fe3b33bc7213b421037671e838565b71f07f5cb7b210e9cffacdf1664cd7073f111fb4a2b2e9ac609721038bbd036ea4141d3669c4e68d0b1f0d9607a5b4ec5985c474e2fc9d3e4fce025553aeffffffff94eb6a15e474486684380785586a0eb55c602e2de0368955682f451688bd1c0745000000fdfe0000483045022100db183a796041c425cf1156567f3caae54002815d412053db8c41f7db95a14b820220256eb529c53fe89b418a997418fc93c1b70dd933f0e128f3bf85d2b3d6eb29a201483045022100fc0b5c2f599c0a2fe132b3056bfe8204b1bc2aeea2f5da1fb530242795114a0002207f1a9d6b2f310e1758a842ed471951b0432b9c5e8de04b066dc951cda73414ab014c69522103b5ba6c747d85593061a8cff5cad0e377323021900edb51add17d3410b3f1020a2102a66a5bb5befe0de71dc18c14467fe933a277898fd54ae7f9695715cd85dfbb802103ca2e65720d68fbe8e7e8de077628701d8cd613c4b6d7a9304f26e2a25c73acc653aeffffffff94eb6a15e474486684380785586a0eb55c602e2de0368955682f451688bd1c0723000000fdfd000047304402207b156e48bc06de42094a3e9639e635876e938352305cc413b817b0d4775a0bc602202c2aa8f213f81ead2ef21e61c52e2eeda6071cda2eb2c48a2ec845596200ddec014830450221008d9e0838675b0b43bb4e68a2b00da48a3e3ebca951dd58a4ed3620f859588c4602206a20296a34055c3dcff20de2232220ff341d9b55ca6c600a95d53df25892222e014c6952210310a16b9570b926e5c9449aed631baafee94274a623e7ad16d1aec8dd68becebb210268d61f13f5d74402291f1290824b723f12e2e2fa9f3aac400fdf89d7f3d65e6321028932deba9a97015ff3acf200c835e324258a344259d400de28dcff1e815ee56953aeffffffff94eb6a15e474486684380785586a0eb55c602e2de0368955682f451688bd1c072e000000fdfe0000483045022100e43efa08febdeea9e24219e6fa8852cfd445bde9654044d7c35d4b274652a06802201227b214635e5911bca5c81de2ab47c18efb91ce2a7136d939aff81069d54fc501483045022100b2d87ae79d162144dc22ab574ce82155a369fb74362f6423c4402617482819c8022004fdb2239cfe8638efd90e5e9d682483431e266f35102d00be2ac7c800befa03014c69522103a364b7c0f22e34f04ecd2b2821303646260b48aa584bc0296ee3dad816fb29b92103e72bdf56981900be7e12a38b4ed86d35df499fbc8a29d5883fea18a3c345876e21020b1506383d1533fa19e4a81c7514a7a8c38796cc90f4288996bdbda51f28749f53aeffffffff1d22786eee210759cabb4827f3ce35449ac651323ede5941a9c788b49b8dfad819000000fc00483045022100f5ead0e70dd151f2c75c08d6a688d27c64375a866ec52efb4312baaa936f0c43022004810f227030909c22706db81a6b9cc8b5e3a5929eb36c0c7fd302da8a2aa10701463043021f72887f4bdcfdaebe0c1dc2fc57c760fac8d675f8dc1c37066b015607acbe6002204cc63284005773ed41a0736116434f1fc5ae0c00849eaa2bb2f3b4b2565c6c9c014c695221036d9ea626157bcddbeaed56822c86b5b5a0c90159a3bb75f67a9e490400309e7d21026cbe3f407f903772decd1a9e0470ca74dd5212d790fae91d1727b64649d9d13e2102fa84baf3b7fc34254993c08195dbe7e200083ae160d6b3728a98893259f985f453aeffffffff1d22786eee210759cabb4827f3ce35449ac651323ede5941a9c788b49b8dfad80c000000fdfd000047304402207c3b9672bf31cefeb7ebba81882d69a9edf99bdc8cf9a68fa0010f4510dce14302205f5cb33fc6e35a18c4e39a4c1c4b7bbde6bebdea95915d1516d73769be0e777701483045022100c2e881290b64b702d4b3b989d2399ebe1ff0ff06b2a330272925124c6d4bb0d402207dda4c850115e314c566acff41cd93668bc25f5898f2f59122738fbefa5f4ce1014c695221027e8a3d7708ede9caa73eb40c5846b97bdfed6f073261ca2ad1831b793e5cc4382103c4091906245effa573947fd3bcffbfd9dcdc3898434fe42f618ca3a725f2a0e2210250f5ba787f7bbb3226c315420fe65e7ff590f668450abdf65bf28af07bac372253aeffffffffdc32628b199574cde571da11daa5062beeb02f374bf38c99f9709d4ec05c71d100000000fdfd0000483045022100aad8c45a0b2c62c087b12b640239391c5eb2a109c889954c1350153b4e334a9f02206f1efe6c6fc0c1958a53e20c03e846e05d0e2552437f019291aee56f1c6153bf0147304402204f8024bbb01037e1c21280365cfef5fc221a761cbada43e0d05492a662ba3bed02203b0a2ce00818e4589959c579bd54eeb86d3edd1cc84397092a8804470d6cbd78014c69522102f52ced1e93be7fb565c8920a7edddac686f972461422c021d6802d72eabdf8a521027be1a10fc460555a4eecb7451cdde89ef671cbf861a1ae43021a8b7680e491ea21038ed955de6e5d3fcf4dbdef81c6f8f03224123d4649df53d3d3bf34bcfdd5a50953aeffffffff2c0bdb2452367158ea93961772f01d5c4ce0af1a63d272f840f2b1b543ca2ab100000000fdfd000047304402200924340ea00830b51f04ee96efc9f6161466dba3c3c3bff87c9d13a8c1ea5abe022001d9f11a11da2785a1c2570a9e62c0eff814516d2f1eb54a9acfda61894e0ffc014830450221009b8e9f2ce4ab35e2fd871a1ee3e94686de19d79cb315d9222c2452c18313563b0220281e97a2d2907844991a9c51cc99d62e2a9220caa4c2bc1d25246e4b9274e6d6014c6952210246ccf4de0c54cc7f3354cdd993c2c50cf965fd82238b89659fbd73a1b4bf05a121024fc59f72272a897fe43803374969f396058152fe4765a8d15216f94624257b1b21022593bc69ecbf3bbcc3c58082267cb49dadaf4ca8dbf1b2297338a9d628c4297653aeffffffff05205308020000000017a91488d03cefc55f489637e2149d5eb319bfb087c0668740d958010000000017a9143b855b57da7fd92ab7061de77e644fbe2341f69d8740710404000000001976a9145e992aadbe3c04bccb225b95e2ce4274f98e9f5488ac60a62f01000000001976a91496bcc2d7bf5e10856bc09ab74956e593baf6936588ac9a0603750000000017a91422f8d6cf7414053ec74e1b62a8d072c87bd328d88700000000", "vin": [{"sequence": 4294967295, "scriptSig": {"hex": "00483045022100837aaa02893e3bbf223a96a6e551797f1b0f6cddc581a2fe9833ff6cf1c58e2902207cbf811d6a775955d089a493ce62c11bd6f084f85ffc11b3c54be662e33b67f101473044022028b38f36fd89f8a7b910d165b4008eed2f02126aacea5c46e31a4437dfa902290220093c80313f74505bf158633e60ad81f73fa4a753e0e430d5ed07711665d66a02014c69522102a63a6c3a7ce96c8cde5f5db55dbd466660445deaed0f54906f0d7009ecdf11d1210222591617766ece1f997517fcdc68ca50ea074a60bb3a970cbc11970c8c125df72102c832a73d9446da2765c490f839d8315da49660195a784f575d014a213128f1dc53ae", "asm": "0 3045022100837aaa02893e3bbf223a96a6e551797f1b0f6cddc581a2fe9833ff6cf1c58e2902207cbf811d6a775955d089a493ce62c11bd6f084f85ffc11b3c54be662e33b67f1[ALL] 3044022028b38f36fd89f8a7b910d165b4008eed2f02126aacea5c46e31a4437dfa902290220093c80313f74505bf158633e60ad81f73fa4a753e0e430d5ed07711665d66a02[ALL] 522102a63a6c3a7ce96c8cde5f5db55dbd466660445deaed0f54906f0d7009ecdf11d1210222591617766ece1f997517fcdc68ca50ea074a60bb3a970cbc11970c8c125df72102c832a73d9446da2765c490f839d8315da49660195a784f575d014a213128f1dc53ae"}, "vout": 71, "txid": "071cbd8816452f68558936e02d2e605cb50e6a5885073884664874e4156aeb94"}, {"sequence": 4294967295, "scriptSig": {"hex": "0047304402203dd7140f7c76c6e3bc10fc8445c50b6f8bee3ee0bc337dfdd1d518f85d81f34a022047f9492710d9949d6eb32ee1cb4168d18739267cc8ae4782f8268a390a045aa701483045022100e0583368c0c4311ed3271334147575adc828cc6cb6e6220f4741b387755a1e2102201976a8eae9683190e90bf9adce52454ca234a9e70a138b9a9cf59a9069ccea41014c69522102aa4fcfdac1d85c19edc21ea97a314ac272f11080f7d855b00ca297915c0bbc4321021cfb4c0a0867bcc512fafe0d298b49fb534aa0bc2fb1cf06b3a5f5ad15a0053321024d45f9cb42db6c5af5a46ed0549054348faee8b7a1416cd06a72afc683c3fa1653ae", "asm": "0 304402203dd7140f7c76c6e3bc10fc8445c50b6f8bee3ee0bc337dfdd1d518f85d81f34a022047f9492710d9949d6eb32ee1cb4168d18739267cc8ae4782f8268a390a045aa7[ALL] 3045022100e0583368c0c4311ed3271334147575adc828cc6cb6e6220f4741b387755a1e2102201976a8eae9683190e90bf9adce52454ca234a9e70a138b9a9cf59a9069ccea41[ALL] 522102aa4fcfdac1d85c19edc21ea97a314ac272f11080f7d855b00ca297915c0bbc4321021cfb4c0a0867bcc512fafe0d298b49fb534aa0bc2fb1cf06b3a5f5ad15a0053321024d45f9cb42db6c5af5a46ed0549054348faee8b7a1416cd06a72afc683c3fa1653ae"}, "vout": 91, "txid": "071cbd8816452f68558936e02d2e605cb50e6a5885073884664874e4156aeb94"}, {"sequence": 4294967295, "scriptSig": {"hex": "00483045022100b96d6cc03b7d56cfca8d3d8f1a9566c6409ee449187981bf048b12f614728b1d02205edd32715537ef3998b99528526bcc43513369278f9bb68ba715b1dbbdbcb56801473044022005a40833e7ec2396a339d9579206d7fa07e927e730c01212ab92633b83fb7b93022048f876fbb2695aaba92c757bc498fa144ff1467e83422b317dd62c6490f2d91b014c69522103701386fe3029ddab2713b2a4bb9459fbf7eea1a1b0b16068ec85f1b5e8c492832103a4e46e2da46024bf82c984c7522674253b8cc2a6e230ecd22907b31befde15ec2103606ac2a103cdd69f57e7c4189bae6da44bda8f65e2bb986b2d491d787cd0d6a453ae", "asm": "0 3045022100b96d6cc03b7d56cfca8d3d8f1a9566c6409ee449187981bf048b12f614728b1d02205edd32715537ef3998b99528526bcc43513369278f9bb68ba715b1dbbdbcb568[ALL] 3044022005a40833e7ec2396a339d9579206d7fa07e927e730c01212ab92633b83fb7b93022048f876fbb2695aaba92c757bc498fa144ff1467e83422b317dd62c6490f2d91b[ALL] 522103701386fe3029ddab2713b2a4bb9459fbf7eea1a1b0b16068ec85f1b5e8c492832103a4e46e2da46024bf82c984c7522674253b8cc2a6e230ecd22907b31befde15ec2103606ac2a103cdd69f57e7c4189bae6da44bda8f65e2bb986b2d491d787cd0d6a453ae"}, "vout": 4, "txid": "071cbd8816452f68558936e02d2e605cb50e6a5885073884664874e4156aeb94"}, {"sequence": 4294967295, "scriptSig": {"hex": "00473044022005e41f216dbdf6bd82fe9824e3e2f21630fad230c407e6aaf5f29e730430f8d0022016f0828e153f1a959a75490bb35aa904d0c55905db43e71841d6e56bf49f8c8801473044022074f33691775758dfb954dc9da887787d64c2a867fb11a36e6e96852042375643022004738c2c50840662bbfdddab22640e2874c6daf9dad2a2c7f03a923954d46e68014c69522102672c0166f10be29d81863adb8047c2b8d2524a88be733aba1e258d1be442a13021038d850e57744a877e72c1291894f8a019b21c907aa70b612c3fb085da82619a632102064388a99ec25e1d9b11d5f2f8dfb29bc0ec24697a380b63af35e381fe7ce47e53ae", "asm": "0 3044022005e41f216dbdf6bd82fe9824e3e2f21630fad230c407e6aaf5f29e730430f8d0022016f0828e153f1a959a75490bb35aa904d0c55905db43e71841d6e56bf49f8c88[ALL] 3044022074f33691775758dfb954dc9da887787d64c2a867fb11a36e6e96852042375643022004738c2c50840662bbfdddab22640e2874c6daf9dad2a2c7f03a923954d46e68[ALL] 522102672c0166f10be29d81863adb8047c2b8d2524a88be733aba1e258d1be442a13021038d850e57744a877e72c1291894f8a019b21c907aa70b612c3fb085da82619a632102064388a99ec25e1d9b11d5f2f8dfb29bc0ec24697a380b63af35e381fe7ce47e53ae"}, "vout": 97, "txid": "071cbd8816452f68558936e02d2e605cb50e6a5885073884664874e4156aeb94"}, {"sequence": 4294967295, "scriptSig": {"hex": "00483045022100cacab0c5c482a54c6ee9c45f86d103c074504ed0188f86efe3f769e3a0d7757a02200a53e6c13b0ca3ada5bd6261c8a8bc2fb14f56b8541745c5a76019ebd9d653d3014730440220491025eead2e333b5e80b02b1cd18bde738917485380c59112eacea34a4a65bb02207278da556b538902015316df5eced2a2b2426ab5a01bc1b601997c29d6b499e8014c69522103ef766bec8a3f5399a389ff5e253162f51037f1b7de3e6606a1fe3b33bc7213b421037671e838565b71f07f5cb7b210e9cffacdf1664cd7073f111fb4a2b2e9ac609721038bbd036ea4141d3669c4e68d0b1f0d9607a5b4ec5985c474e2fc9d3e4fce025553ae", "asm": "0 3045022100cacab0c5c482a54c6ee9c45f86d103c074504ed0188f86efe3f769e3a0d7757a02200a53e6c13b0ca3ada5bd6261c8a8bc2fb14f56b8541745c5a76019ebd9d653d3[ALL] 30440220491025eead2e333b5e80b02b1cd18bde738917485380c59112eacea34a4a65bb02207278da556b538902015316df5eced2a2b2426ab5a01bc1b601997c29d6b499e8[ALL] 522103ef766bec8a3f5399a389ff5e253162f51037f1b7de3e6606a1fe3b33bc7213b421037671e838565b71f07f5cb7b210e9cffacdf1664cd7073f111fb4a2b2e9ac609721038bbd036ea4141d3669c4e68d0b1f0d9607a5b4ec5985c474e2fc9d3e4fce025553ae"}, "vout": 17, "txid": "071cbd8816452f68558936e02d2e605cb50e6a5885073884664874e4156aeb94"}, {"sequence": 4294967295, "scriptSig": {"hex": "00483045022100db183a796041c425cf1156567f3caae54002815d412053db8c41f7db95a14b820220256eb529c53fe89b418a997418fc93c1b70dd933f0e128f3bf85d2b3d6eb29a201483045022100fc0b5c2f599c0a2fe132b3056bfe8204b1bc2aeea2f5da1fb530242795114a0002207f1a9d6b2f310e1758a842ed471951b0432b9c5e8de04b066dc951cda73414ab014c69522103b5ba6c747d85593061a8cff5cad0e377323021900edb51add17d3410b3f1020a2102a66a5bb5befe0de71dc18c14467fe933a277898fd54ae7f9695715cd85dfbb802103ca2e65720d68fbe8e7e8de077628701d8cd613c4b6d7a9304f26e2a25c73acc653ae", "asm": "0 3045022100db183a796041c425cf1156567f3caae54002815d412053db8c41f7db95a14b820220256eb529c53fe89b418a997418fc93c1b70dd933f0e128f3bf85d2b3d6eb29a2[ALL] 3045022100fc0b5c2f599c0a2fe132b3056bfe8204b1bc2aeea2f5da1fb530242795114a0002207f1a9d6b2f310e1758a842ed471951b0432b9c5e8de04b066dc951cda73414ab[ALL] 522103b5ba6c747d85593061a8cff5cad0e377323021900edb51add17d3410b3f1020a2102a66a5bb5befe0de71dc18c14467fe933a277898fd54ae7f9695715cd85dfbb802103ca2e65720d68fbe8e7e8de077628701d8cd613c4b6d7a9304f26e2a25c73acc653ae"}, "vout": 69, "txid": "071cbd8816452f68558936e02d2e605cb50e6a5885073884664874e4156aeb94"}, {"sequence": 4294967295, "scriptSig": {"hex": "0047304402207b156e48bc06de42094a3e9639e635876e938352305cc413b817b0d4775a0bc602202c2aa8f213f81ead2ef21e61c52e2eeda6071cda2eb2c48a2ec845596200ddec014830450221008d9e0838675b0b43bb4e68a2b00da48a3e3ebca951dd58a4ed3620f859588c4602206a20296a34055c3dcff20de2232220ff341d9b55ca6c600a95d53df25892222e014c6952210310a16b9570b926e5c9449aed631baafee94274a623e7ad16d1aec8dd68becebb210268d61f13f5d74402291f1290824b723f12e2e2fa9f3aac400fdf89d7f3d65e6321028932deba9a97015ff3acf200c835e324258a344259d400de28dcff1e815ee56953ae", "asm": "0 304402207b156e48bc06de42094a3e9639e635876e938352305cc413b817b0d4775a0bc602202c2aa8f213f81ead2ef21e61c52e2eeda6071cda2eb2c48a2ec845596200ddec[ALL] 30450221008d9e0838675b0b43bb4e68a2b00da48a3e3ebca951dd58a4ed3620f859588c4602206a20296a34055c3dcff20de2232220ff341d9b55ca6c600a95d53df25892222e[ALL] 52210310a16b9570b926e5c9449aed631baafee94274a623e7ad16d1aec8dd68becebb210268d61f13f5d74402291f1290824b723f12e2e2fa9f3aac400fdf89d7f3d65e6321028932deba9a97015ff3acf200c835e324258a344259d400de28dcff1e815ee56953ae"}, "vout": 35, "txid": "071cbd8816452f68558936e02d2e605cb50e6a5885073884664874e4156aeb94"}, {"sequence": 4294967295, "scriptSig": {"hex": "00483045022100e43efa08febdeea9e24219e6fa8852cfd445bde9654044d7c35d4b274652a06802201227b214635e5911bca5c81de2ab47c18efb91ce2a7136d939aff81069d54fc501483045022100b2d87ae79d162144dc22ab574ce82155a369fb74362f6423c4402617482819c8022004fdb2239cfe8638efd90e5e9d682483431e266f35102d00be2ac7c800befa03014c69522103a364b7c0f22e34f04ecd2b2821303646260b48aa584bc0296ee3dad816fb29b92103e72bdf56981900be7e12a38b4ed86d35df499fbc8a29d5883fea18a3c345876e21020b1506383d1533fa19e4a81c7514a7a8c38796cc90f4288996bdbda51f28749f53ae", "asm": "0 3045022100e43efa08febdeea9e24219e6fa8852cfd445bde9654044d7c35d4b274652a06802201227b214635e5911bca5c81de2ab47c18efb91ce2a7136d939aff81069d54fc5[ALL] 3045022100b2d87ae79d162144dc22ab574ce82155a369fb74362f6423c4402617482819c8022004fdb2239cfe8638efd90e5e9d682483431e266f35102d00be2ac7c800befa03[ALL] 522103a364b7c0f22e34f04ecd2b2821303646260b48aa584bc0296ee3dad816fb29b92103e72bdf56981900be7e12a38b4ed86d35df499fbc8a29d5883fea18a3c345876e21020b1506383d1533fa19e4a81c7514a7a8c38796cc90f4288996bdbda51f28749f53ae"}, "vout": 46, "txid": "071cbd8816452f68558936e02d2e605cb50e6a5885073884664874e4156aeb94"}, {"sequence": 4294967295, "scriptSig": {"hex": "00483045022100f5ead0e70dd151f2c75c08d6a688d27c64375a866ec52efb4312baaa936f0c43022004810f227030909c22706db81a6b9cc8b5e3a5929eb36c0c7fd302da8a2aa10701463043021f72887f4bdcfdaebe0c1dc2fc57c760fac8d675f8dc1c37066b015607acbe6002204cc63284005773ed41a0736116434f1fc5ae0c00849eaa2bb2f3b4b2565c6c9c014c695221036d9ea626157bcddbeaed56822c86b5b5a0c90159a3bb75f67a9e490400309e7d21026cbe3f407f903772decd1a9e0470ca74dd5212d790fae91d1727b64649d9d13e2102fa84baf3b7fc34254993c08195dbe7e200083ae160d6b3728a98893259f985f453ae", "asm": "0 3045022100f5ead0e70dd151f2c75c08d6a688d27c64375a866ec52efb4312baaa936f0c43022004810f227030909c22706db81a6b9cc8b5e3a5929eb36c0c7fd302da8a2aa107[ALL] 3043021f72887f4bdcfdaebe0c1dc2fc57c760fac8d675f8dc1c37066b015607acbe6002204cc63284005773ed41a0736116434f1fc5ae0c00849eaa2bb2f3b4b2565c6c9c[ALL] 5221036d9ea626157bcddbeaed56822c86b5b5a0c90159a3bb75f67a9e490400309e7d21026cbe3f407f903772decd1a9e0470ca74dd5212d790fae91d1727b64649d9d13e2102fa84baf3b7fc34254993c08195dbe7e200083ae160d6b3728a98893259f985f453ae"}, "vout": 25, "txid": "d8fa8d9bb488c7a94159de3e3251c69a4435cef32748bbca590721ee6e78221d"}, {"sequence": 4294967295, "scriptSig": {"hex": "0047304402207c3b9672bf31cefeb7ebba81882d69a9edf99bdc8cf9a68fa0010f4510dce14302205f5cb33fc6e35a18c4e39a4c1c4b7bbde6bebdea95915d1516d73769be0e777701483045022100c2e881290b64b702d4b3b989d2399ebe1ff0ff06b2a330272925124c6d4bb0d402207dda4c850115e314c566acff41cd93668bc25f5898f2f59122738fbefa5f4ce1014c695221027e8a3d7708ede9caa73eb40c5846b97bdfed6f073261ca2ad1831b793e5cc4382103c4091906245effa573947fd3bcffbfd9dcdc3898434fe42f618ca3a725f2a0e2210250f5ba787f7bbb3226c315420fe65e7ff590f668450abdf65bf28af07bac372253ae", "asm": "0 304402207c3b9672bf31cefeb7ebba81882d69a9edf99bdc8cf9a68fa0010f4510dce14302205f5cb33fc6e35a18c4e39a4c1c4b7bbde6bebdea95915d1516d73769be0e7777[ALL] 3045022100c2e881290b64b702d4b3b989d2399ebe1ff0ff06b2a330272925124c6d4bb0d402207dda4c850115e314c566acff41cd93668bc25f5898f2f59122738fbefa5f4ce1[ALL] 5221027e8a3d7708ede9caa73eb40c5846b97bdfed6f073261ca2ad1831b793e5cc4382103c4091906245effa573947fd3bcffbfd9dcdc3898434fe42f618ca3a725f2a0e2210250f5ba787f7bbb3226c315420fe65e7ff590f668450abdf65bf28af07bac372253ae"}, "vout": 12, "txid": "d8fa8d9bb488c7a94159de3e3251c69a4435cef32748bbca590721ee6e78221d"}, {"sequence": 4294967295, "scriptSig": {"hex": "00483045022100aad8c45a0b2c62c087b12b640239391c5eb2a109c889954c1350153b4e334a9f02206f1efe6c6fc0c1958a53e20c03e846e05d0e2552437f019291aee56f1c6153bf0147304402204f8024bbb01037e1c21280365cfef5fc221a761cbada43e0d05492a662ba3bed02203b0a2ce00818e4589959c579bd54eeb86d3edd1cc84397092a8804470d6cbd78014c69522102f52ced1e93be7fb565c8920a7edddac686f972461422c021d6802d72eabdf8a521027be1a10fc460555a4eecb7451cdde89ef671cbf861a1ae43021a8b7680e491ea21038ed955de6e5d3fcf4dbdef81c6f8f03224123d4649df53d3d3bf34bcfdd5a50953ae", "asm": "0 3045022100aad8c45a0b2c62c087b12b640239391c5eb2a109c889954c1350153b4e334a9f02206f1efe6c6fc0c1958a53e20c03e846e05d0e2552437f019291aee56f1c6153bf[ALL] 304402204f8024bbb01037e1c21280365cfef5fc221a761cbada43e0d05492a662ba3bed02203b0a2ce00818e4589959c579bd54eeb86d3edd1cc84397092a8804470d6cbd78[ALL] 522102f52ced1e93be7fb565c8920a7edddac686f972461422c021d6802d72eabdf8a521027be1a10fc460555a4eecb7451cdde89ef671cbf861a1ae43021a8b7680e491ea21038ed955de6e5d3fcf4dbdef81c6f8f03224123d4649df53d3d3bf34bcfdd5a50953ae"}, "vout": 0, "txid": "d1715cc04e9d70f9998cf34b372fb0ee2b06a5da11da71e5cd7495198b6232dc"}, {"sequence": 4294967295, "scriptSig": {"hex": "0047304402200924340ea00830b51f04ee96efc9f6161466dba3c3c3bff87c9d13a8c1ea5abe022001d9f11a11da2785a1c2570a9e62c0eff814516d2f1eb54a9acfda61894e0ffc014830450221009b8e9f2ce4ab35e2fd871a1ee3e94686de19d79cb315d9222c2452c18313563b0220281e97a2d2907844991a9c51cc99d62e2a9220caa4c2bc1d25246e4b9274e6d6014c6952210246ccf4de0c54cc7f3354cdd993c2c50cf965fd82238b89659fbd73a1b4bf05a121024fc59f72272a897fe43803374969f396058152fe4765a8d15216f94624257b1b21022593bc69ecbf3bbcc3c58082267cb49dadaf4ca8dbf1b2297338a9d628c4297653ae", "asm": "0 304402200924340ea00830b51f04ee96efc9f6161466dba3c3c3bff87c9d13a8c1ea5abe022001d9f11a11da2785a1c2570a9e62c0eff814516d2f1eb54a9acfda61894e0ffc[ALL] 30450221009b8e9f2ce4ab35e2fd871a1ee3e94686de19d79cb315d9222c2452c18313563b0220281e97a2d2907844991a9c51cc99d62e2a9220caa4c2bc1d25246e4b9274e6d6[ALL] 52210246ccf4de0c54cc7f3354cdd993c2c50cf965fd82238b89659fbd73a1b4bf05a121024fc59f72272a897fe43803374969f396058152fe4765a8d15216f94624257b1b21022593bc69ecbf3bbcc3c58082267cb49dadaf4ca8dbf1b2297338a9d628c4297653ae"}, "vout": 0, "txid": "b12aca43b5b1f240f872d2631aafe04c5c1df072179693ea5871365224db0b2c"}], "txid": "0013b2deac29103d23f6fcc230e79b9c10a5da1b95696cf56956c57f636209c5", "blocktime": 1537875543, "version": 1, "confirmations": 11464, "time": 1537875543, "locktime": 0, "vsize": 3722, "size": 3722}