{"hash": "001ae05586283804d58aa9e5ccfb55c5cb5621a156497eea0a38bd07afc53e1b", "blockhash": "00000000000000000004ffacab907a6b429b9a5745fa0b75af4234bf69dd7176", "vout": [{"scriptPubKey": {"reqSigs": 1, "hex": "76a914670f1648e02c4c968f34487303d3a022c3254ed488ac", "addresses": ["1APvg2TUA28Y3V1KGbG456oWPDEuvcemku"], "asm": "OP_DUP OP_HASH160 670f1648e02c4c968f34487303d3a022c3254ed4 OP_EQUALVERIFY OP_CHECKSIG", "type": "pubkeyhash"}, "value": 0.00139965, "n": 0}, {"scriptPubKey": {"reqSigs": 1, "hex": "76a9144c57a95f6044f138bbfb15a1ab7062944eea3e5888ac", "addresses": ["17xfNR3vpwDCTSvPsKT14xCc5BmKrytSUK"], "asm": "OP_DUP OP_HASH160 4c57a95f6044f138bbfb15a1ab7062944eea3e58 OP_EQUALVERIFY OP_CHECKSIG", "type": "pubkeyhash"}, "value": 0.00316246, "n": 1}], "hex": "01000000014709736503c6d4bd10a4b084ca419e8906d98ff63092acf6ef4cb9f7a14b9c9c010000006a4730440220231b8a9d0c0f46f109b80ff3505fe56c2251822fcffc3e853dd4ce4fce27a9f4022062f769bd463e70fd9588beaabc554fda470d7a9d2dce8a273c41972daba6a4fb012103c6e084f4a52b6a0d0a84841024683efb657c19d355ee03ae1c3e32d6914e5d6effffffff02bd220200000000001976a914670f1648e02c4c968f34487303d3a022c3254ed488ac56d30400000000001976a9144c57a95f6044f138bbfb15a1ab7062944eea3e5888ac00000000", "vin": [{"sequence": 4294967295, "scriptSig": {"hex": "4730440220231b8a9d0c0f46f109b80ff3505fe56c2251822fcffc3e853dd4ce4fce27a9f4022062f769bd463e70fd9588beaabc554fda470d7a9d2dce8a273c41972daba6a4fb012103c6e084f4a52b6a0d0a84841024683efb657c19d355ee03ae1c3e32d6914e5d6e", "asm": "30440220231b8a9d0c0f46f109b80ff3505fe56c2251822fcffc3e853dd4ce4fce27a9f4022062f769bd463e70fd9588beaabc554fda470d7a9d2dce8a273c41972daba6a4fb[ALL] 03c6e084f4a52b6a0d0a84841024683efb657c19d355ee03ae1c3e32d6914e5d6e"}, "vout": 1, "txid": "9c9c4ba1f7b94ceff6ac9230f68fd906899e41ca84b0a410bdd4c60365730947"}], "txid": "001ae05586283804d58aa9e5ccfb55c5cb5621a156497eea0a38bd07afc53e1b", "blocktime": 1537875543, "version": 1, "confirmations": 11464, "time": 1537875543, "locktime": 0, "vsize": 225, "size": 225}