{"hash": "4d787257af55cabcb5580064c3d0fc8f0e1d4aecec4abc80073cc3931db69558", "blockhash": "00000000000000000018f53835495a110e01622372bf6ae95dc86f2b0ab887b0", "vout": [{"scriptPubKey": {"reqSigs": 1, "hex": "a914ae1e592773688ff8b171ca0c3d92d7aae82117f787", "addresses": ["3HZfrZDHxV9xLpXqf5Uw2NktbewcKxW4j8"], "asm": "OP_HASH160 ae1e592773688ff8b171ca0c3d92d7aae82117f7 OP_EQUAL", "type": "scripthash"}, "value": 0.0323048, "n": 0}, {"scriptPubKey": {"reqSigs": 1, "hex": "a9143271b3957d1c0c4c7fed6a64d5527561a82b3a9e87", "addresses": ["36HjvFgdcPyT4pDzDdJY3bNrhoQe1kiMw4"], "asm": "OP_HASH160 3271b3957d1c0c4c7fed6a64d5527561a82b3a9e OP_EQUAL", "type": "scripthash"}, "value": 0.005914, "n": 1}], "hex": "01000000000101c8ec454fe6a7f6a445f491ae7bd0b47c649bfcfc31aa389ff00ce0b044053e460100000023220020be9b9ef03cf69832b8a267ec2655021f48186f7c777e067b586748bdb86fc742ffffffff02104b31000000000017a914ae1e592773688ff8b171ca0c3d92d7aae82117f787280609000000000017a9143271b3957d1c0c4c7fed6a64d5527561a82b3a9e870400483045022100a073947c9d7e23582608de32483fc6186eaccebd93b0306c37a2afa50556ec4002205a75da9d03b4c95ab7e6fbfdf13f73148d0ce80d6dd2f859961faa3068183dc401483045022100933ec6cb2759b5bed18acc03f598bb70d145cfd95032f4ec1ca011913cc0d3480220392cdf689a8c06aea40eaeeed1befe8194cd19dfd1f96a76fa451ec1d944e174016952210234511808fb3d5528b3a4c05362b405fa9c651ab7649972beef98d69e6589be512102830d7e53879924cd77d1d0b09a1d746195d80a78d20aff43c29fb0e82c7142762102969fe3c2693c898e0335ddcf5d6dc1e0e96c65b7c526166378a9a1d90bd8f68953ae0f490800", "vin": [{"txinwitness": ["", "3045022100a073947c9d7e23582608de32483fc6186eaccebd93b0306c37a2afa50556ec4002205a75da9d03b4c95ab7e6fbfdf13f73148d0ce80d6dd2f859961faa3068183dc401", "3045022100933ec6cb2759b5bed18acc03f598bb70d145cfd95032f4ec1ca011913cc0d3480220392cdf689a8c06aea40eaeeed1befe8194cd19dfd1f96a76fa451ec1d944e17401", "52210234511808fb3d5528b3a4c05362b405fa9c651ab7649972beef98d69e6589be512102830d7e53879924cd77d1d0b09a1d746195d80a78d20aff43c29fb0e82c7142762102969fe3c2693c898e0335ddcf5d6dc1e0e96c65b7c526166378a9a1d90bd8f68953ae"], "sequence": 4294967295, "scriptSig": {"hex": "220020be9b9ef03cf69832b8a267ec2655021f48186f7c777e067b586748bdb86fc742", "asm": "0020be9b9ef03cf69832b8a267ec2655021f48186f7c777e067b586748bdb86fc742"}, "vout": 1, "txid": "463e0544b0e00cf09f38aa31fcfc9b647cb4d07bae91f445a4f6a7e64f45ecc8"}], "txid": "001ac618b87465ace0ea1fbba30f110a7e6d7e9ce358ed4a59ec6cfbe7f87f39", "blocktime": 1537870928, "version": 1, "confirmations": 11512, "time": 1537870928, "locktime": 542991, "vsize": 214, "size": 406}