{"hash": "002721233b114db0e8f7543ac437f85fb80f895a20cd36f51f6fbb344d81c14a", "blockhash": "0000000000000000000e13cef7c366c0283d82e591d1acd082e914b08063cdf1", "vout": [{"scriptPubKey": {"reqSigs": 1, "hex": "76a91457c8adf60901da5ca1d7785cd348b8e3dc3d6faa88ac", "addresses": ["191AC9aFS4K2MBSKazPe2JyH8xwvrHvamq"], "asm": "OP_DUP OP_HASH160 57c8adf60901da5ca1d7785cd348b8e3dc3d6faa OP_EQUALVERIFY OP_CHECKSIG", "type": "pubkeyhash"}, "value": 0.00142794, "n": 0}, {"scriptPubKey": {"reqSigs": 1, "hex": "76a9145b3d1466fb5f56663e7d3119a296fc7922bc7d8a88ac", "addresses": ["19KRfMCbFadQ9tsvhDXUmsMN1XhoKQvTig"], "asm": "OP_DUP OP_HASH160 5b3d1466fb5f56663e7d3119a296fc7922bc7d8a OP_EQUALVERIFY OP_CHECKSIG", "type": "pubkeyhash"}, "value": 0.00143542, "n": 1}, {"scriptPubKey": {"reqSigs": 1, "hex": "76a914316ede9c4f917b603da4272131803e58bbe9845388ac", "addresses": ["15WNvketzktaYwjzkBqLbpcRgPwwnh1wTi"], "asm": "OP_DUP OP_HASH160 316ede9c4f917b603da4272131803e58bbe98453 OP_EQUALVERIFY OP_CHECKSIG", "type": "pubkeyhash"}, "value": 0.00144879, "n": 2}, {"scriptPubKey": {"reqSigs": 1, "hex": "76a914aa1f681e1a6b06b8298ee7da6eb9da1dfb39208188ac", "addresses": ["1GWXVngThxdJXxGVEB25HQQLAtg9zihdgr"], "asm": "OP_DUP OP_HASH160 aa1f681e1a6b06b8298ee7da6eb9da1dfb392081 OP_EQUALVERIFY OP_CHECKSIG", "type": "pubkeyhash"}, "value": 0.00143915, "n": 3}, {"scriptPubKey": {"reqSigs": 1, "hex": "76a914dc9b3f450d622a39dff95a0fe4a1596d7f01ae7d88ac", "addresses": ["1M7TdxtYeWJjSkTqj8gN8Q3Qt5vngX1hWj"], "asm": "OP_DUP OP_HASH160 dc9b3f450d622a39dff95a0fe4a1596d7f01ae7d OP_EQUALVERIFY OP_CHECKSIG", "type": "pubkeyhash"}, "value": 0.00143274, "n": 4}, {"scriptPubKey": {"reqSigs": 1, "hex": "a914798249ee11ffa863e64c81e3a545b2b7c6c5e84e87", "addresses": ["3CmVmNwBTC7oLkbrBKvEzGPy2w9GrNgXRR"], "asm": "OP_HASH160 798249ee11ffa863e64c81e3a545b2b7c6c5e84e OP_EQUAL", "type": "scripthash"}, "value": 0.00142915, "n": 5}, {"scriptPubKey": {"reqSigs": 1, "hex": "76a9142583604095695af21e818ae0eb79d02c28a810a888ac", "addresses": ["14RMPG9koWnH5hP1VjbQ3FNrT81u6QLwPR"], "asm": "OP_DUP OP_HASH160 2583604095695af21e818ae0eb79d02c28a810a8 OP_EQUALVERIFY OP_CHECKSIG", "type": "pubkeyhash"}, "value": 0.00142701, "n": 6}, {"scriptPubKey": {"reqSigs": 1, "hex": "76a9144e3b31deac4f093545345203bd45ea95259b86e488ac", "addresses": ["188ectcUog12XUuz8ygQvwEX5QLh7SyyXw"], "asm": "OP_DUP OP_HASH160 4e3b31deac4f093545345203bd45ea95259b86e4 OP_EQUALVERIFY OP_CHECKSIG", "type": "pubkeyhash"}, "value": 0.0014399, "n": 7}, {"scriptPubKey": {"reqSigs": 1, "hex": "a91406c5cac313db817d30db8e07880b6696bd19c25987", "addresses": ["32JpvXVYmmZaW9aDVHuCiKgLkhYD8BdR2J"], "asm": "OP_HASH160 06c5cac313db817d30db8e07880b6696bd19c259 OP_EQUAL", "type": "scripthash"}, "value": 0.00144875, "n": 8}, {"scriptPubKey": {"reqSigs": 1, "hex": "a914610e64bd6e8258878b9b80666713caa4009f3a6387", "addresses": ["3AYCiEJxkqBB6jqY745QdJFm5uueQQTUVM"], "asm": "OP_HASH160 610e64bd6e8258878b9b80666713caa4009f3a63 OP_EQUAL", "type": "scripthash"}, "value": 0.00144037, "n": 9}, {"scriptPubKey": {"reqSigs": 1, "hex": "76a914af8e40cee28ee015234fe5921ac73c4f6bbc86b488ac", "addresses": ["1H1FfVbEfyEoLqSLuK7YTCPi3kni7qDjV3"], "asm": "OP_DUP OP_HASH160 af8e40cee28ee015234fe5921ac73c4f6bbc86b4 OP_EQUALVERIFY OP_CHECKSIG", "type": "pubkeyhash"}, "value": 0.00143812, "n": 10}, {"scriptPubKey": {"reqSigs": 1, "hex": "76a914d9d863a3f8b6db11a244102d18db0dad0ae1646488ac", "addresses": ["1LrrrcbxcB3AnByZf9d4ZXgcWinyrLF8uD"], "asm": "OP_DUP OP_HASH160 d9d863a3f8b6db11a244102d18db0dad0ae16464 OP_EQUALVERIFY OP_CHECKSIG", "type": "pubkeyhash"}, "value": 0.00142804, "n": 11}, {"scriptPubKey": {"reqSigs": 1, "hex": "76a914890be901d7207f2b7434ce3aa4fd3d67dd67499a88ac", "addresses": ["1DVdqpGGMKxkZHssNtqaWcoEpdZCYQ8dAf"], "asm": "OP_DUP OP_HASH160 890be901d7207f2b7434ce3aa4fd3d67dd67499a OP_EQUALVERIFY OP_CHECKSIG", "type": "pubkeyhash"}, "value": 0.0014298, "n": 12}, {"scriptPubKey": {"reqSigs": 1, "hex": "76a9149e7f6d3f5d0786f3694f82b23455dd952a18c47d88ac", "addresses": ["1FT4R5LuD77oUPHeSeV35mHzdSJEFWzrJG"], "asm": "OP_DUP OP_HASH160 9e7f6d3f5d0786f3694f82b23455dd952a18c47d OP_EQUALVERIFY OP_CHECKSIG", "type": "pubkeyhash"}, "value": 0.00144046, "n": 13}, {"scriptPubKey": {"reqSigs": 1, "hex": "76a914e5e33fa996e6ac3c228196a0d77e67e0654dd96488ac", "addresses": ["1MxXySmqmdGfixDV9XSqNfiqqrVzXfPwmx"], "asm": "OP_DUP OP_HASH160 e5e33fa996e6ac3c228196a0d77e67e0654dd964 OP_EQUALVERIFY OP_CHECKSIG", "type": "pubkeyhash"}, "value": 0.0014303, "n": 14}, {"scriptPubKey": {"reqSigs": 1, "hex": "a914b2a467152326b6b2614e45bca0b6fc2415b7a3f287", "addresses": ["3Hyb9b1BiDNe3r8CCbcnZDWVWECRT4isL8"], "asm": "OP_HASH160 b2a467152326b6b2614e45bca0b6fc2415b7a3f2 OP_EQUAL", "type": "scripthash"}, "value": 0.00143529, "n": 15}, {"scriptPubKey": {"reqSigs": 1, "hex": "76a914aced24bebe38f600244eecba95c071471a5a0d0f88ac", "addresses": ["1GmMK1xeKiVRh2STQ8CGVdfiG5t17Mfr2L"], "asm": "OP_DUP OP_HASH160 aced24bebe38f600244eecba95c071471a5a0d0f OP_EQUALVERIFY OP_CHECKSIG", "type": "pubkeyhash"}, "value": 0.0014425, "n": 16}, {"scriptPubKey": {"reqSigs": 1, "hex": "76a9148239a0d27484cfd15ef99b6c296815761bbd632288ac", "addresses": ["1CsZt1wjiTbxUonNeTphxbes9acusDeBZv"], "asm": "OP_DUP OP_HASH160 8239a0d27484cfd15ef99b6c296815761bbd6322 OP_EQUALVERIFY OP_CHECKSIG", "type": "pubkeyhash"}, "value": 0.00143092, "n": 17}, {"scriptPubKey": {"reqSigs": 1, "hex": "76a914c5f230085af18c646c0dfe5f82e9e667f99bb50088ac", "addresses": ["1K3eFHMW6PgETtP6iXGCg1y44tXYk8LaV2"], "asm": "OP_DUP OP_HASH160 c5f230085af18c646c0dfe5f82e9e667f99bb500 OP_EQUALVERIFY OP_CHECKSIG", "type": "pubkeyhash"}, "value": 0.00144814, "n": 18}, {"scriptPubKey": {"reqSigs": 1, "hex": "a914a305bba412c3b11fa1b886faa295a75c5daf959e87", "addresses": ["3GYzw9RSGLdSvmZa9o8GF7pLSdCigtQ14M"], "asm": "OP_HASH160 a305bba412c3b11fa1b886faa295a75c5daf959e OP_EQUAL", "type": "scripthash"}, "value": 0.00143683, "n": 19}, {"scriptPubKey": {"reqSigs": 1, "hex": "76a9149621cf6aad1c6e8f17aa4b954289f81f689b003088ac", "addresses": ["1Egprx6b2MiKdk754nSRBh8PRD36uYzHTN"], "asm": "OP_DUP OP_HASH160 9621cf6aad1c6e8f17aa4b954289f81f689b0030 OP_EQUALVERIFY OP_CHECKSIG", "type": "pubkeyhash"}, "value": 0.00143993, "n": 20}, {"scriptPubKey": {"reqSigs": 1, "hex": "76a9143bad973ddc82e0810fbfdb6d4547df295a35666488ac", "addresses": ["16SYpcoqbM6tY39Rg4BbAroDUqD4BxTDXC"], "asm": "OP_DUP OP_HASH160 3bad973ddc82e0810fbfdb6d4547df295a356664 OP_EQUALVERIFY OP_CHECKSIG", "type": "pubkeyhash"}, "value": 0.00143433, "n": 21}, {"scriptPubKey": {"reqSigs": 1, "hex": "76a91452df1ac7ed7e94a856d8daacf0c1305f6df7cfbb88ac", "addresses": ["18ZBgK17MBoq8cBW2rE8XCFcqwo4fL4mJq"], "asm": "OP_DUP OP_HASH160 52df1ac7ed7e94a856d8daacf0c1305f6df7cfbb OP_EQUALVERIFY OP_CHECKSIG", "type": "pubkeyhash"}, "value": 0.0014284, "n": 22}, {"scriptPubKey": {"reqSigs": 1, "hex": "a91496b8b948a6dddefa4696d79ccfea9cb4a647605987", "addresses": ["3FRxa9gZLXrKdBYAXZbBuhPhxEB78ZGp3g"], "asm": "OP_HASH160 96b8b948a6dddefa4696d79ccfea9cb4a6476059 OP_EQUAL", "type": "scripthash"}, "value": 0.00144467, "n": 23}, {"scriptPubKey": {"reqSigs": 1, "hex": "a9142cfe299c382483ae76a7ed32e987d43fcb44487d87", "addresses": ["35nv8WNLwZ1YpsuoZJxKJtKFxaMGnRdghv"], "asm": "OP_HASH160 2cfe299c382483ae76a7ed32e987d43fcb44487d OP_EQUAL", "type": "scripthash"}, "value": 0.00143041, "n": 24}, {"scriptPubKey": {"reqSigs": 1, "hex": "a9142039c82a0ccc04b4514a6b0361f73af499b681c787", "addresses": ["34dQmSPWK8NYVnrPEHfsPrvFeKissLwAeD"], "asm": "OP_HASH160 2039c82a0ccc04b4514a6b0361f73af499b681c7 OP_EQUAL", "type": "scripthash"}, "value": 0.00142774, "n": 25}, {"scriptPubKey": {"reqSigs": 1, "hex": "a9148cc8c50f3f1ca179e182d97aedc4e6921947642287", "addresses": ["3EXR38N3m2kKwqTYYf699YTgtf8aLSzVNQ"], "asm": "OP_HASH160 8cc8c50f3f1ca179e182d97aedc4e69219476422 OP_EQUAL", "type": "scripthash"}, "value": 0.00143437, "n": 26}, {"scriptPubKey": {"reqSigs": 1, "hex": "a9145dfc82435158367a35c6806b02b6922c56799b7b87", "addresses": ["3AFyG1Ha2dF85AcXtEoyw9iS35McQrsjCx"], "asm": "OP_HASH160 5dfc82435158367a35c6806b02b6922c56799b7b OP_EQUAL", "type": "scripthash"}, "value": 0.00143804, "n": 27}, {"scriptPubKey": {"reqSigs": 1, "hex": "76a914f770f8643c9a28eff251a43115a08de541d0f79088ac", "addresses": ["1PZMEhJ7Bn7hhRn4r9hKmKp6a6kBn7tZkL"], "asm": "OP_DUP OP_HASH160 f770f8643c9a28eff251a43115a08de541d0f790 OP_EQUALVERIFY OP_CHECKSIG", "type": "pubkeyhash"}, "value": 0.00144698, "n": 28}, {"scriptPubKey": {"reqSigs": 1, "hex": "76a9147889b51c9796905f40e6f36431d296853f2d059188ac", "addresses": ["1BzM46vv7t579t3BqBSFqipQxp3vV9mPCZ"], "asm": "OP_DUP OP_HASH160 7889b51c9796905f40e6f36431d296853f2d0591 OP_EQUALVERIFY OP_CHECKSIG", "type": "pubkeyhash"}, "value": 0.00144435, "n": 29}, {"scriptPubKey": {"reqSigs": 1, "hex": "a914710ad3ad9bc62c96709cf8fdf286af3c57c1a2a887", "addresses": ["3BzjFV4J3EPe1912XEvVRga4vgxzri83Qw"], "asm": "OP_HASH160 710ad3ad9bc62c96709cf8fdf286af3c57c1a2a8 OP_EQUAL", "type": "scripthash"}, "value": 0.00144584, "n": 30}, {"scriptPubKey": {"reqSigs": 1, "hex": "76a9146d0cdc82a77533ed846fda95357eeb59349d5dec88ac", "addresses": ["1Awc4XvG8mZKpztCQAkYu1qoP5NmwPg7Gi"], "asm": "OP_DUP OP_HASH160 6d0cdc82a77533ed846fda95357eeb59349d5dec OP_EQUALVERIFY OP_CHECKSIG", "type": "pubkeyhash"}, "value": 0.00143158, "n": 31}, {"scriptPubKey": {"reqSigs": 1, "hex": "76a914e2bd5d3892282af5ca201a0a0a6ce5c6f6ea38a788ac", "addresses": ["1MftZc6Y2K9F23CtLKN1KfLSrzwcjJPqUg"], "asm": "OP_DUP OP_HASH160 e2bd5d3892282af5ca201a0a0a6ce5c6f6ea38a7 OP_EQUALVERIFY OP_CHECKSIG", "type": "pubkeyhash"}, "value": 0.00143237, "n": 32}, {"scriptPubKey": {"reqSigs": 1, "hex": "76a9145f7a6590c16780d7b39b0d426d5b3635baefd95488ac", "addresses": ["19hqpVut3e9nDJNhVNUCmnjqoidm15Q2jw"], "asm": "OP_DUP OP_HASH160 5f7a6590c16780d7b39b0d426d5b3635baefd954 OP_EQUALVERIFY OP_CHECKSIG", "type": "pubkeyhash"}, "value": 0.00143222, "n": 33}, {"scriptPubKey": {"reqSigs": 1, "hex": "76a914701946f28416ee01f05804b972990e40ca4ae02e88ac", "addresses": ["1BDixmjofmaUY3KyK6Dsb8YM8B9zs1zpAv"], "asm": "OP_DUP OP_HASH160 701946f28416ee01f05804b972990e40ca4ae02e OP_EQUALVERIFY OP_CHECKSIG", "type": "pubkeyhash"}, "value": 0.00145022, "n": 34}, {"scriptPubKey": {"reqSigs": 1, "hex": "a914429887a94381b5235a8fc4da6dd429082dc5dcfd87", "addresses": ["37m9FAnxSVTLhuCdva8YjJRBAjhMcEuame"], "asm": "OP_HASH160 429887a94381b5235a8fc4da6dd429082dc5dcfd OP_EQUAL", "type": "scripthash"}, "value": 0.00143713, "n": 35}, {"scriptPubKey": {"reqSigs": 1, "hex": "a914638e8dd7b48d8d5c7b71cc9bfbd85848d498bfff87", "addresses": ["3AmRbNA42KoodeRQX1wQWmRbTze85kw3zG"], "asm": "OP_HASH160 638e8dd7b48d8d5c7b71cc9bfbd85848d498bfff OP_EQUAL", "type": "scripthash"}, "value": 0.00143643, "n": 36}, {"scriptPubKey": {"reqSigs": 1, "hex": "76a914d1b0915e269ea75b914496da1888e1252451f36288ac", "addresses": ["1L7jkEzvSrvXNfQ5AV7Q8syYUoKCJsaZxU"], "asm": "OP_DUP OP_HASH160 d1b0915e269ea75b914496da1888e1252451f362 OP_EQUALVERIFY OP_CHECKSIG", "type": "pubkeyhash"}, "value": 0.00144506, "n": 37}, {"scriptPubKey": {"reqSigs": 1, "hex": "76a914500cd061dbe7aa258a8183df48fafcd2ce88a65e88ac", "addresses": ["18JGQgLmb9eWSzoF7aV63DKWNEiUo7aEXQ"], "asm": "OP_DUP OP_HASH160 500cd061dbe7aa258a8183df48fafcd2ce88a65e OP_EQUALVERIFY OP_CHECKSIG", "type": "pubkeyhash"}, "value": 0.00144041, "n": 38}, {"scriptPubKey": {"reqSigs": 1, "hex": "76a91472a70cc1c830b380852a4aca1c34a0bca26c72ae88ac", "addresses": ["1BTE9hHC4K6S2umRoNCu5twXnDYAvbRxPm"], "asm": "OP_DUP OP_HASH160 72a70cc1c830b380852a4aca1c34a0bca26c72ae OP_EQUALVERIFY OP_CHECKSIG", "type": "pubkeyhash"}, "value": 0.00144771, "n": 39}, {"scriptPubKey": {"reqSigs": 1, "hex": "76a914ab18164d6fd956514a607f95cb80dc63a5bdd01588ac", "addresses": ["1GbfQQWgqbNo9PiYsL8mqSEhYZ7TjyEHkR"], "asm": "OP_DUP OP_HASH160 ab18164d6fd956514a607f95cb80dc63a5bdd015 OP_EQUALVERIFY OP_CHECKSIG", "type": "pubkeyhash"}, "value": 0.00143845, "n": 40}, {"scriptPubKey": {"reqSigs": 1, "hex": "76a91419e404a87f63d93f243331c7e38a85596a150ed788ac", "addresses": ["13Mu3n7RAscRHXGY4nkoWs8wiuGFYWPcEK"], "asm": "OP_DUP OP_HASH160 19e404a87f63d93f243331c7e38a85596a150ed7 OP_EQUALVERIFY OP_CHECKSIG", "type": "pubkeyhash"}, "value": 0.00143523, "n": 41}, {"scriptPubKey": {"reqSigs": 1, "hex": "a914b89a09817517a965180e058c9a5378821545dcf187", "addresses": ["3JX6nXajccJRQJrDETciKZ7qijLj4LX94N"], "asm": "OP_HASH160 b89a09817517a965180e058c9a5378821545dcf1 OP_EQUAL", "type": "scripthash"}, "value": 0.00143117, "n": 42}, {"scriptPubKey": {"reqSigs": 1, "hex": "a91499a63da0e7f5366eab8ca4d175af84bbe39343d787", "addresses": ["3FhSTW7FVjwSYtEn5cwVTKrbCnaAKTnyBC"], "asm": "OP_HASH160 99a63da0e7f5366eab8ca4d175af84bbe39343d7 OP_EQUAL", "type": "scripthash"}, "value": 0.00143314, "n": 43}, {"scriptPubKey": {"reqSigs": 1, "hex": "76a914a465fd20e09c3a34999228ade67f4d87edebf33388ac", "addresses": ["1FzFzmNerwv7nrGxaXYbyHZcLEd3zaYYJA"], "asm": "OP_DUP OP_HASH160 a465fd20e09c3a34999228ade67f4d87edebf333 OP_EQUALVERIFY OP_CHECKSIG", "type": "pubkeyhash"}, "value": 0.00143554, "n": 44}, {"scriptPubKey": {"reqSigs": 1, "hex": "76a9146a61b34efdc8c35f142a9b609cb53d70b9290a3288ac", "addresses": ["1AhVfgMTiGvjCb55irJJEEkxdvRpNnD7iV"], "asm": "OP_DUP OP_HASH160 6a61b34efdc8c35f142a9b609cb53d70b9290a32 OP_EQUALVERIFY OP_CHECKSIG", "type": "pubkeyhash"}, "value": 0.00142793, "n": 45}, {"scriptPubKey": {"reqSigs": 1, "hex": "76a91417ecbd64069cb8f534fccdc659a5d4e41517da0188ac", "addresses": ["13BW9PB3a5R2Wb7vPabM22MsqgjRim1yY5"], "asm": "OP_DUP OP_HASH160 17ecbd64069cb8f534fccdc659a5d4e41517da01 OP_EQUALVERIFY OP_CHECKSIG", "type": "pubkeyhash"}, "value": 0.00144152, "n": 46}, {"scriptPubKey": {"reqSigs": 1, "hex": "76a914bc0868bb53ace03a3d6943d1dbfb436c2896526188ac", "addresses": ["1J9E7Lg7Nt4eF2K9XuGEssTYdjQhuhw5Mn"], "asm": "OP_DUP OP_HASH160 bc0868bb53ace03a3d6943d1dbfb436c28965261 OP_EQUALVERIFY OP_CHECKSIG", "type": "pubkeyhash"}, "value": 0.00143633, "n": 47}, {"scriptPubKey": {"reqSigs": 1, "hex": "76a914df64a4ce688a17e4352b45f65b8fc12da1107b6788ac", "addresses": ["1MNCFdZ6m425uSsGj66nQrsCXmnZ8QW5FD"], "asm": "OP_DUP OP_HASH160 df64a4ce688a17e4352b45f65b8fc12da1107b67 OP_EQUALVERIFY OP_CHECKSIG", "type": "pubkeyhash"}, "value": 0.00143828, "n": 48}, {"scriptPubKey": {"reqSigs": 1, "hex": "76a914c8b1e0fb83034faf811b460b29d47ae4b22e215088ac", "addresses": ["1KJBEc4DSgiXUYLmh7ocRJLhfJfjiFGkaG"], "asm": "OP_DUP OP_HASH160 c8b1e0fb83034faf811b460b29d47ae4b22e2150 OP_EQUALVERIFY OP_CHECKSIG", "type": "pubkeyhash"}, "value": 0.00144435, "n": 49}, {"scriptPubKey": {"reqSigs": 1, "hex": "a914c708b569fab9856deb491c5b0cc49be6b8e82fc787", "addresses": ["3KqQpofy7FSW6akDpUy1naDg9Lu9yUpfnt"], "asm": "OP_HASH160 c708b569fab9856deb491c5b0cc49be6b8e82fc7 OP_EQUAL", "type": "scripthash"}, "value": 0.00144951, "n": 50}, {"scriptPubKey": {"reqSigs": 1, "hex": "a9143bb583252c4fad2a991635652bb2e141c9dcd2c987", "addresses": ["378jEZEEgQ4AD6gsnvLqqSEH2bVnzu7X8p"], "asm": "OP_HASH160 3bb583252c4fad2a991635652bb2e141c9dcd2c9 OP_EQUAL", "type": "scripthash"}, "value": 0.00144396, "n": 51}, {"scriptPubKey": {"reqSigs": 1, "hex": "76a914cf07d0811fda5398fb9bb47f08aba8cc0ba8876e88ac", "addresses": ["1KsgEfjWuAShoe4mbEDHQQRWLiaSTxSyXd"], "asm": "OP_DUP OP_HASH160 cf07d0811fda5398fb9bb47f08aba8cc0ba8876e OP_EQUALVERIFY OP_CHECKSIG", "type": "pubkeyhash"}, "value": 0.00143788, "n": 52}, {"scriptPubKey": {"reqSigs": 1, "hex": "76a914462a029691ab800d8d52a4cd3dc99c407aad213a88ac", "addresses": ["17PzdLpdQGFm3nrgCvifnf4ragWQZVeyhb"], "asm": "OP_DUP OP_HASH160 462a029691ab800d8d52a4cd3dc99c407aad213a OP_EQUALVERIFY OP_CHECKSIG", "type": "pubkeyhash"}, "value": 0.00143347, "n": 53}, {"scriptPubKey": {"reqSigs": 1, "hex": "a91411b42e965b487861e802da1c73bfed32cee1df3387", "addresses": ["33JdG4vVKWNzQ4f3pYAnhTa5mcFekKqoUk"], "asm": "OP_HASH160 11b42e965b487861e802da1c73bfed32cee1df33 OP_EQUAL", "type": "scripthash"}, "value": 0.00144555, "n": 54}, {"scriptPubKey": {"reqSigs": 1, "hex": "76a9142481e986607497f08e76ea9eb3eb3b956f328c2388ac", "addresses": ["14L2xN8NPn1ovCAPfWNrnbjzHbryRW4piP"], "asm": "OP_DUP OP_HASH160 2481e986607497f08e76ea9eb3eb3b956f328c23 OP_EQUALVERIFY OP_CHECKSIG", "type": "pubkeyhash"}, "value": 0.00143584, "n": 55}, {"scriptPubKey": {"reqSigs": 1, "hex": "76a9149c6acf7134bfc0e17fc26cd2d598dca7509cf4e688ac", "addresses": ["1FG4NEjUBohwoPi2nPS4w6J7ABEUVC8WkD"], "asm": "OP_DUP OP_HASH160 9c6acf7134bfc0e17fc26cd2d598dca7509cf4e6 OP_EQUALVERIFY OP_CHECKSIG", "type": "pubkeyhash"}, "value": 0.00144162, "n": 56}, {"scriptPubKey": {"reqSigs": 1, "hex": "76a91494bb1cbaf6ecb4dbf7ef0fd852b7286430ca892188ac", "addresses": ["1EZRABETB4koh9whStEBG7zWTBmd63sgU3"], "asm": "OP_DUP OP_HASH160 94bb1cbaf6ecb4dbf7ef0fd852b7286430ca8921 OP_EQUALVERIFY OP_CHECKSIG", "type": "pubkeyhash"}, "value": 0.00144154, "n": 57}, {"scriptPubKey": {"reqSigs": 1, "hex": "a9149b3002530baa503e4653c86645745f8db860a41c87", "addresses": ["3FqaB1M9BeF2a63mNAz3RC4MaDthxZZV3M"], "asm": "OP_HASH160 9b3002530baa503e4653c86645745f8db860a41c OP_EQUAL", "type": "scripthash"}, "value": 0.0014303, "n": 58}, {"scriptPubKey": {"reqSigs": 1, "hex": "76a914998589e7298974b0e8cd4d3c4ceaa191c992836488ac", "addresses": ["1EzkMnGRPEUebom1SPR3YBem49VaSuvC98"], "asm": "OP_DUP OP_HASH160 998589e7298974b0e8cd4d3c4ceaa191c9928364 OP_EQUALVERIFY OP_CHECKSIG", "type": "pubkeyhash"}, "value": 0.00142909, "n": 59}, {"scriptPubKey": {"reqSigs": 1, "hex": "76a9143bb84c13cb4b59e75cf42019325af01d1e155a5288ac", "addresses": ["16SmeWboUSLprCz9uhRQ8QDxGaMeg7vUXH"], "asm": "OP_DUP OP_HASH160 3bb84c13cb4b59e75cf42019325af01d1e155a52 OP_EQUALVERIFY OP_CHECKSIG", "type": "pubkeyhash"}, "value": 0.00144354, "n": 60}, {"scriptPubKey": {"reqSigs": 1, "hex": "a914793c87ced6b6032f4b153bfda4d37faa9feedb5887", "addresses": ["3Ck4CVGD5gvnsDTZao8QSp11hzHpTWEUJ2"], "asm": "OP_HASH160 793c87ced6b6032f4b153bfda4d37faa9feedb58 OP_EQUAL", "type": "scripthash"}, "value": 0.00143476, "n": 61}, {"scriptPubKey": {"reqSigs": 1, "hex": "76a9144cf81b5ff6d058b6e8d17875fd527e9085f2a8cb88ac", "addresses": ["181yaMMtKYJKoEsLSQQrRHHLQCgmSJ9791"], "asm": "OP_DUP OP_HASH160 4cf81b5ff6d058b6e8d17875fd527e9085f2a8cb OP_EQUALVERIFY OP_CHECKSIG", "type": "pubkeyhash"}, "value": 0.00143304, "n": 62}, {"scriptPubKey": {"reqSigs": 1, "hex": "76a914256fd0405b40aff25caf6d4917d03e5f4d50547c88ac", "addresses": ["14Qwx31aLSPuG5v72CEjB8hrXDQJefZTL1"], "asm": "OP_DUP OP_HASH160 256fd0405b40aff25caf6d4917d03e5f4d50547c OP_EQUALVERIFY OP_CHECKSIG", "type": "pubkeyhash"}, "value": 0.00143227, "n": 63}, {"scriptPubKey": {"reqSigs": 1, "hex": "a9146f217c945e354e10c5124467a39a04de8d0614be87", "addresses": ["3Bpd3Xf8NnsRUE7nFd8t5M83Sm2qjmousD"], "asm": "OP_HASH160 6f217c945e354e10c5124467a39a04de8d0614be OP_EQUAL", "type": "scripthash"}, "value": 0.00143754, "n": 64}, {"scriptPubKey": {"reqSigs": 1, "hex": "a914fc05f606f1bad26f82b037bb19c15e4b2f0a3dc487", "addresses": ["3QfbM4ksAGWRWshLTk26koWGsQAKQ7nYcs"], "asm": "OP_HASH160 fc05f606f1bad26f82b037bb19c15e4b2f0a3dc4 OP_EQUAL", "type": "scripthash"}, "value": 0.00143269, "n": 65}, {"scriptPubKey": {"reqSigs": 1, "hex": "76a914e0bc646703bb20fca26c3560baf4bcef8281e8e288ac", "addresses": ["1MVJ3gyuoN1RecfK7uuu8CoqfT1Wg8uBJa"], "asm": "OP_DUP OP_HASH160 e0bc646703bb20fca26c3560baf4bcef8281e8e2 OP_EQUALVERIFY OP_CHECKSIG", "type": "pubkeyhash"}, "value": 0.00144726, "n": 66}, {"scriptPubKey": {"reqSigs": 1, "hex": "76a91442d6ef14e98b736c8dac4107fafd9557fc74215088ac", "addresses": ["176R5XntAtups5KJpJjpV411qQ4eChjQf5"], "asm": "OP_DUP OP_HASH160 42d6ef14e98b736c8dac4107fafd9557fc742150 OP_EQUALVERIFY OP_CHECKSIG", "type": "pubkeyhash"}, "value": 0.00144515, "n": 67}, {"scriptPubKey": {"reqSigs": 1, "hex": "76a914769113982b88e75a9ef0b33df00b5df4b1b00c5e88ac", "addresses": ["1BovXjPFUYG4yKtAPK8TSxcS6du6HwCue4"], "asm": "OP_DUP OP_HASH160 769113982b88e75a9ef0b33df00b5df4b1b00c5e OP_EQUALVERIFY OP_CHECKSIG", "type": "pubkeyhash"}, "value": 0.00143986, "n": 68}, {"scriptPubKey": {"reqSigs": 1, "hex": "76a914029b76bc36d8b3156086ca000dc94bf1320c5d8288ac", "addresses": ["1EnbCWnHipvKm4LrnRMnrokv3RQ1WyKz6"], "asm": "OP_DUP OP_HASH160 029b76bc36d8b3156086ca000dc94bf1320c5d82 OP_EQUALVERIFY OP_CHECKSIG", "type": "pubkeyhash"}, "value": 0.00142816, "n": 69}, {"scriptPubKey": {"reqSigs": 1, "hex": "76a9142549a2162451c988c00b524c2af8e332b1f6fb7d88ac", "addresses": ["14QADDginNQ8jRAiAbd48qx6aS9VrJYVup"], "asm": "OP_DUP OP_HASH160 2549a2162451c988c00b524c2af8e332b1f6fb7d OP_EQUALVERIFY OP_CHECKSIG", "type": "pubkeyhash"}, "value": 0.00144682, "n": 70}, {"scriptPubKey": {"reqSigs": 1, "hex": "76a914a691041e0dcc12348e26d3a09eb9c5290ba0f28388ac", "addresses": ["1GBitjoZf9daiJZtbdMVCBMoa571SFryMh"], "asm": "OP_DUP OP_HASH160 a691041e0dcc12348e26d3a09eb9c5290ba0f283 OP_EQUALVERIFY OP_CHECKSIG", "type": "pubkeyhash"}, "value": 0.00142901, "n": 71}, {"scriptPubKey": {"reqSigs": 1, "hex": "76a914526c198b0ea708db433453d582bd86c8ff6e794388ac", "addresses": ["18WoudnxaeTURuaa4ogcwDLDtyTT7GuWi2"], "asm": "OP_DUP OP_HASH160 526c198b0ea708db433453d582bd86c8ff6e7943 OP_EQUALVERIFY OP_CHECKSIG", "type": "pubkeyhash"}, "value": 0.00144266, "n": 72}, {"scriptPubKey": {"reqSigs": 1, "hex": "76a9144ced87758b6d3393a8defc2b08ed03af18b4aa8488ac", "addresses": ["181kuPnjaKqzBGUNWedzjEkJA54qk992J1"], "asm": "OP_DUP OP_HASH160 4ced87758b6d3393a8defc2b08ed03af18b4aa84 OP_EQUALVERIFY OP_CHECKSIG", "type": "pubkeyhash"}, "value": 0.0014276, "n": 73}, {"scriptPubKey": {"reqSigs": 1, "hex": "a9140de3175cf0e476f71d5544dcb4ade139364a959387", "addresses": ["32xSkcdGBQemSnFCm8LMCaWGb35ku6ZZM5"], "asm": "OP_HASH160 0de3175cf0e476f71d5544dcb4ade139364a9593 OP_EQUAL", "type": "scripthash"}, "value": 0.00143558, "n": 74}, {"scriptPubKey": {"reqSigs": 1, "hex": "76a914b887de753b6d2f72663d4eefb777b178f83da2c888ac", "addresses": ["1Hpi6e3q8p3hAixR6ZwQyNQCEUKXpmtBsL"], "asm": "OP_DUP OP_HASH160 b887de753b6d2f72663d4eefb777b178f83da2c8 OP_EQUALVERIFY OP_CHECKSIG", "type": "pubkeyhash"}, "value": 0.00143174, "n": 75}, {"scriptPubKey": {"reqSigs": 1, "hex": "76a9147f3b30387471923ddbf0bf051630d7d2a6c91f2d88ac", "addresses": ["1CbjiqqCBcY7Fpi5f4JA7tpKEETcL8xqeX"], "asm": "OP_DUP OP_HASH160 7f3b30387471923ddbf0bf051630d7d2a6c91f2d OP_EQUALVERIFY OP_CHECKSIG", "type": "pubkeyhash"}, "value": 0.00142919, "n": 76}, {"scriptPubKey": {"reqSigs": 1, "hex": "76a914d567a071f5bc87c17d8ed7e811a281a1cdbb313c88ac", "addresses": ["1LTP4yNZ27e9Cxk8qSweJ9NmZrNhf3LP8z"], "asm": "OP_DUP OP_HASH160 d567a071f5bc87c17d8ed7e811a281a1cdbb313c OP_EQUALVERIFY OP_CHECKSIG", "type": "pubkeyhash"}, "value": 0.00144108, "n": 77}, {"scriptPubKey": {"reqSigs": 1, "hex": "76a91430113b1dd201f5d0d48600ff26eebfe7d838527b88ac", "addresses": ["15PA5S94uUiY1fPW556GDXgoDNQciEt1Xd"], "asm": "OP_DUP OP_HASH160 30113b1dd201f5d0d48600ff26eebfe7d838527b OP_EQUALVERIFY OP_CHECKSIG", "type": "pubkeyhash"}, "value": 0.00143353, "n": 78}, {"scriptPubKey": {"reqSigs": 1, "hex": "76a9141d8669fdbe0b326a01d3715cf084445d421298d588ac", "addresses": ["13h7cpBYZL6WpRPZjqKF6Pb4kwG4FAt9Fv"], "asm": "OP_DUP OP_HASH160 1d8669fdbe0b326a01d3715cf084445d421298d5 OP_EQUALVERIFY OP_CHECKSIG", "type": "pubkeyhash"}, "value": 0.00143027, "n": 79}, {"scriptPubKey": {"reqSigs": 1, "hex": "76a9147dc4a1f09cd6ad1064eb119fce2c692f09f25b1288ac", "addresses": ["1CU12FVPMJLpUEzmMHYj9q4ZFeESxMKm75"], "asm": "OP_DUP OP_HASH160 7dc4a1f09cd6ad1064eb119fce2c692f09f25b12 OP_EQUALVERIFY OP_CHECKSIG", "type": "pubkeyhash"}, "value": 0.00143505, "n": 80}, {"scriptPubKey": {"reqSigs": 1, "hex": "76a9141660a3a15b4feb49e924f089225818ae2ed9269288ac", "addresses": ["133Kdq3JTW4txkuFneFQ9d7iAXrfyJ1tx3"], "asm": "OP_DUP OP_HASH160 1660a3a15b4feb49e924f089225818ae2ed92692 OP_EQUALVERIFY OP_CHECKSIG", "type": "pubkeyhash"}, "value": 286.07141323, "n": 81}, {"scriptPubKey": {"reqSigs": 1, "hex": "a91461b71ea420d8ccb13f5a56669e750f1660d66a3d87", "addresses": ["3AbgqXj31bHYK5bAWJZhFBMZjP8uKxLPKe"], "asm": "OP_HASH160 61b71ea420d8ccb13f5a56669e750f1660d66a3d OP_EQUAL", "type": "scripthash"}, "value": 0.00143805, "n": 82}, {"scriptPubKey": {"reqSigs": 1, "hex": "76a91406794b419608ecea83f247702c0826495e8ccd5088ac", "addresses": ["1bEMocka1kHZ1RLB4DZVHAo4FtWssWvyh"], "asm": "OP_DUP OP_HASH160 06794b419608ecea83f247702c0826495e8ccd50 OP_EQUALVERIFY OP_CHECKSIG", "type": "pubkeyhash"}, "value": 0.00145147, "n": 83}, {"scriptPubKey": {"reqSigs": 1, "hex": "76a914f47b5f049e6444c0d88601996a2d83884cf0226888ac", "addresses": ["1PHhfnZ3xPA7nwTTXyBJS6zN4eJ3Ycuobc"], "asm": "OP_DUP OP_HASH160 f47b5f049e6444c0d88601996a2d83884cf02268 OP_EQUALVERIFY OP_CHECKSIG", "type": "pubkeyhash"}, "value": 0.00144452, "n": 84}, {"scriptPubKey": {"reqSigs": 1, "hex": "76a91423928fa5d77f95980bf01ba54b5a0d209969c61588ac", "addresses": ["14F6DxemwHbsjwk3kd4Gh3B1MYmCukHMVS"], "asm": "OP_DUP OP_HASH160 23928fa5d77f95980bf01ba54b5a0d209969c615 OP_EQUALVERIFY OP_CHECKSIG", "type": "pubkeyhash"}, "value": 0.00143617, "n": 85}, {"scriptPubKey": {"reqSigs": 1, "hex": "76a914ac635c97befb5ff03a05acc7f166ef7e7be20e5988ac", "addresses": ["1GiWFmSDYe7XPhHf936p6LPGLbVZtw4AvW"], "asm": "OP_DUP OP_HASH160 ac635c97befb5ff03a05acc7f166ef7e7be20e59 OP_EQUALVERIFY OP_CHECKSIG", "type": "pubkeyhash"}, "value": 0.00143767, "n": 86}, {"scriptPubKey": {"reqSigs": 1, "hex": "76a91479631afa74d4bb7b145cf626530eddea91eddc9e88ac", "addresses": ["1C4qVB7KKy9j9WQpwAVkPinqQqecDUhkqB"], "asm": "OP_DUP OP_HASH160 79631afa74d4bb7b145cf626530eddea91eddc9e OP_EQUALVERIFY OP_CHECKSIG", "type": "pubkeyhash"}, "value": 0.00144289, "n": 87}, {"scriptPubKey": {"reqSigs": 1, "hex": "76a9144a59356387430c37a217609fb7188bd637cfc2bf88ac", "addresses": ["17n7sWpebt4dtgCzkhRGR8a5g9h8KmsPUm"], "asm": "OP_DUP OP_HASH160 4a59356387430c37a217609fb7188bd637cfc2bf OP_EQUALVERIFY OP_CHECKSIG", "type": "pubkeyhash"}, "value": 0.00144377, "n": 88}, {"scriptPubKey": {"reqSigs": 1, "hex": "76a9144b92381244a3d7d7650e62a6166938d747a48dff88ac", "addresses": ["17taqs5qVd8hRoh67mzdwUE4HNUV8DhHb6"], "asm": "OP_DUP OP_HASH160 4b92381244a3d7d7650e62a6166938d747a48dff OP_EQUALVERIFY OP_CHECKSIG", "type": "pubkeyhash"}, "value": 0.00142986, "n": 89}, {"scriptPubKey": {"reqSigs": 1, "hex": "76a9147768724e07d6437645ab92b5476bffe4973db9ab88ac", "addresses": ["1BtNXu69xg9ev4S33boXyx4rFSVSZN5pSm"], "asm": "OP_DUP OP_HASH160 7768724e07d6437645ab92b5476bffe4973db9ab OP_EQUALVERIFY OP_CHECKSIG", "type": "pubkeyhash"}, "value": 0.00143097, "n": 90}, {"scriptPubKey": {"reqSigs": 1, "hex": "76a9140a5952ae014307ad1aca8c8a0343373e23b3500488ac", "addresses": ["1wimBqim7cpG5xWhpB9cR5FYKBZX6ib3S"], "asm": "OP_DUP OP_HASH160 0a5952ae014307ad1aca8c8a0343373e23b35004 OP_EQUALVERIFY OP_CHECKSIG", "type": "pubkeyhash"}, "value": 0.00144103, "n": 91}, {"scriptPubKey": {"reqSigs": 1, "hex": "76a914024d8c938675303a95a8069f7722d8a9356bc61c88ac", "addresses": ["1DBFbJUQSkbL4Jprh2kEPYFqXWPTCCJj2"], "asm": "OP_DUP OP_HASH160 024d8c938675303a95a8069f7722d8a9356bc61c OP_EQUALVERIFY OP_CHECKSIG", "type": "pubkeyhash"}, "value": 0.00143243, "n": 92}, {"scriptPubKey": {"reqSigs": 1, "hex": "76a91434f79b61eba287f3bd5bed9464cebf18a9fa027388ac", "addresses": ["15q4m1VqHb7UbHCpnwz8cZnHZ2SkEWdvVQ"], "asm": "OP_DUP OP_HASH160 34f79b61eba287f3bd5bed9464cebf18a9fa0273 OP_EQUALVERIFY OP_CHECKSIG", "type": "pubkeyhash"}, "value": 0.00143533, "n": 93}, {"scriptPubKey": {"reqSigs": 1, "hex": "a914d092d203c6d440d40be81cadbae1cd371cfa413587", "addresses": ["3LhrMhhvgvnE5LJN3htffUcP2zMKvSKxiF"], "asm": "OP_HASH160 d092d203c6d440d40be81cadbae1cd371cfa4135 OP_EQUAL", "type": "scripthash"}, "value": 0.00144357, "n": 94}, {"scriptPubKey": {"reqSigs": 1, "hex": "76a914b4f49ce0fe5533c7994d59a4f26920da77f206bf88ac", "addresses": ["1HVofXUFwS12MxVvcq87qwptP2ETnAGbmt"], "asm": "OP_DUP OP_HASH160 b4f49ce0fe5533c7994d59a4f26920da77f206bf OP_EQUALVERIFY OP_CHECKSIG", "type": "pubkeyhash"}, "value": 0.00143861, "n": 95}, {"scriptPubKey": {"reqSigs": 1, "hex": "a914184c5cfc4418e0b09066331f671fb70f3961666a87", "addresses": ["33uVcxVMz8UB1s3VaUpFfwdoQNDVpodUQ3"], "asm": "OP_HASH160 184c5cfc4418e0b09066331f671fb70f3961666a OP_EQUAL", "type": "scripthash"}, "value": 0.00143588, "n": 96}, {"scriptPubKey": {"reqSigs": 1, "hex": "76a9146af1848f4aa43129b5c8d41828cac0b2c0fc60c188ac", "addresses": ["1AkTxHaH68U4mRdL4TNmnoWVqJajsc4u1E"], "asm": "OP_DUP OP_HASH160 6af1848f4aa43129b5c8d41828cac0b2c0fc60c1 OP_EQUALVERIFY OP_CHECKSIG", "type": "pubkeyhash"}, "value": 0.00143179, "n": 97}, {"scriptPubKey": {"reqSigs": 1, "hex": "a914cc6c2881ff77443d0ba7d544555494f3e532df4587", "addresses": ["3LKuLeFEAVud92Cm3R2whuXaMmtZmoy9E7"], "asm": "OP_HASH160 cc6c2881ff77443d0ba7d544555494f3e532df45 OP_EQUAL", "type": "scripthash"}, "value": 0.00142934, "n": 98}, {"scriptPubKey": {"reqSigs": 1, "hex": "76a914267a10c03c4d138fae2d7c7f1323e9207873c14488ac", "addresses": ["14WSuYarc6fvj8RDdAqB2AqC3wqx6YTjEQ"], "asm": "OP_DUP OP_HASH160 267a10c03c4d138fae2d7c7f1323e9207873c144 OP_EQUALVERIFY OP_CHECKSIG", "type": "pubkeyhash"}, "value": 0.00144123, "n": 99}, {"scriptPubKey": {"reqSigs": 1, "hex": "76a9141ab66aa7575c4b1188cdad4e37afd6b9c6fb538c88ac", "addresses": ["13SF6WwiTMygRfk8DtftVNuSMgmh4vkSXH"], "asm": "OP_DUP OP_HASH160 1ab66aa7575c4b1188cdad4e37afd6b9c6fb538c OP_EQUALVERIFY OP_CHECKSIG", "type": "pubkeyhash"}, "value": 0.00143084, "n": 100}], "hex": "020000000160d16859fae80b64735bdf325e59f9bb7f4591cae8c99eb6532275973abf662f4d0000006a47304402203ce2a315a3a28a0ca5b2b641567eb542ca2a6c6d33aeb2db0ac89616c73de84e02202b3b5ce3cc8da4458192179d62cd61445b2be8303fc7c76cad9762446db919f9012102c840b0e730460d957339da5901a0c034a4e3fd5e56e6d7da49f5af2176bd9bebfeffffff65ca2d0200000000001976a91457c8adf60901da5ca1d7785cd348b8e3dc3d6faa88acb6300200000000001976a9145b3d1466fb5f56663e7d3119a296fc7922bc7d8a88acef350200000000001976a914316ede9c4f917b603da4272131803e58bbe9845388ac2b320200000000001976a914aa1f681e1a6b06b8298ee7da6eb9da1dfb39208188acaa2f0200000000001976a914dc9b3f450d622a39dff95a0fe4a1596d7f01ae7d88ac432e02000000000017a914798249ee11ffa863e64c81e3a545b2b7c6c5e84e876d2d0200000000001976a9142583604095695af21e818ae0eb79d02c28a810a888ac76320200000000001976a9144e3b31deac4f093545345203bd45ea95259b86e488aceb3502000000000017a91406c5cac313db817d30db8e07880b6696bd19c25987a53202000000000017a914610e64bd6e8258878b9b80666713caa4009f3a6387c4310200000000001976a914af8e40cee28ee015234fe5921ac73c4f6bbc86b488acd42d0200000000001976a914d9d863a3f8b6db11a244102d18db0dad0ae1646488ac842e0200000000001976a914890be901d7207f2b7434ce3aa4fd3d67dd67499a88acae320200000000001976a9149e7f6d3f5d0786f3694f82b23455dd952a18c47d88acb62e0200000000001976a914e5e33fa996e6ac3c228196a0d77e67e0654dd96488aca93002000000000017a914b2a467152326b6b2614e45bca0b6fc2415b7a3f2877a330200000000001976a914aced24bebe38f600244eecba95c071471a5a0d0f88acf42e0200000000001976a9148239a0d27484cfd15ef99b6c296815761bbd632288acae350200000000001976a914c5f230085af18c646c0dfe5f82e9e667f99bb50088ac433102000000000017a914a305bba412c3b11fa1b886faa295a75c5daf959e8779320200000000001976a9149621cf6aad1c6e8f17aa4b954289f81f689b003088ac49300200000000001976a9143bad973ddc82e0810fbfdb6d4547df295a35666488acf82d0200000000001976a91452df1ac7ed7e94a856d8daacf0c1305f6df7cfbb88ac533402000000000017a91496b8b948a6dddefa4696d79ccfea9cb4a647605987c12e02000000000017a9142cfe299c382483ae76a7ed32e987d43fcb44487d87b62d02000000000017a9142039c82a0ccc04b4514a6b0361f73af499b681c7874d3002000000000017a9148cc8c50f3f1ca179e182d97aedc4e6921947642287bc3102000000000017a9145dfc82435158367a35c6806b02b6922c56799b7b873a350200000000001976a914f770f8643c9a28eff251a43115a08de541d0f79088ac33340200000000001976a9147889b51c9796905f40e6f36431d296853f2d059188acc83402000000000017a914710ad3ad9bc62c96709cf8fdf286af3c57c1a2a887362f0200000000001976a9146d0cdc82a77533ed846fda95357eeb59349d5dec88ac852f0200000000001976a914e2bd5d3892282af5ca201a0a0a6ce5c6f6ea38a788ac762f0200000000001976a9145f7a6590c16780d7b39b0d426d5b3635baefd95488ac7e360200000000001976a914701946f28416ee01f05804b972990e40ca4ae02e88ac613102000000000017a914429887a94381b5235a8fc4da6dd429082dc5dcfd871b3102000000000017a914638e8dd7b48d8d5c7b71cc9bfbd85848d498bfff877a340200000000001976a914d1b0915e269ea75b914496da1888e1252451f36288aca9320200000000001976a914500cd061dbe7aa258a8183df48fafcd2ce88a65e88ac83350200000000001976a91472a70cc1c830b380852a4aca1c34a0bca26c72ae88ace5310200000000001976a914ab18164d6fd956514a607f95cb80dc63a5bdd01588aca3300200000000001976a91419e404a87f63d93f243331c7e38a85596a150ed788ac0d2f02000000000017a914b89a09817517a965180e058c9a5378821545dcf187d22f02000000000017a91499a63da0e7f5366eab8ca4d175af84bbe39343d787c2300200000000001976a914a465fd20e09c3a34999228ade67f4d87edebf33388acc92d0200000000001976a9146a61b34efdc8c35f142a9b609cb53d70b9290a3288ac18330200000000001976a91417ecbd64069cb8f534fccdc659a5d4e41517da0188ac11310200000000001976a914bc0868bb53ace03a3d6943d1dbfb436c2896526188acd4310200000000001976a914df64a4ce688a17e4352b45f65b8fc12da1107b6788ac33340200000000001976a914c8b1e0fb83034faf811b460b29d47ae4b22e215088ac373602000000000017a914c708b569fab9856deb491c5b0cc49be6b8e82fc7870c3402000000000017a9143bb583252c4fad2a991635652bb2e141c9dcd2c987ac310200000000001976a914cf07d0811fda5398fb9bb47f08aba8cc0ba8876e88acf32f0200000000001976a914462a029691ab800d8d52a4cd3dc99c407aad213a88acab3402000000000017a91411b42e965b487861e802da1c73bfed32cee1df3387e0300200000000001976a9142481e986607497f08e76ea9eb3eb3b956f328c2388ac22330200000000001976a9149c6acf7134bfc0e17fc26cd2d598dca7509cf4e688ac1a330200000000001976a91494bb1cbaf6ecb4dbf7ef0fd852b7286430ca892188acb62e02000000000017a9149b3002530baa503e4653c86645745f8db860a41c873d2e0200000000001976a914998589e7298974b0e8cd4d3c4ceaa191c992836488ace2330200000000001976a9143bb84c13cb4b59e75cf42019325af01d1e155a5288ac743002000000000017a914793c87ced6b6032f4b153bfda4d37faa9feedb5887c82f0200000000001976a9144cf81b5ff6d058b6e8d17875fd527e9085f2a8cb88ac7b2f0200000000001976a914256fd0405b40aff25caf6d4917d03e5f4d50547c88ac8a3102000000000017a9146f217c945e354e10c5124467a39a04de8d0614be87a52f02000000000017a914fc05f606f1bad26f82b037bb19c15e4b2f0a3dc48756350200000000001976a914e0bc646703bb20fca26c3560baf4bcef8281e8e288ac83340200000000001976a91442d6ef14e98b736c8dac4107fafd9557fc74215088ac72320200000000001976a914769113982b88e75a9ef0b33df00b5df4b1b00c5e88ace02d0200000000001976a914029b76bc36d8b3156086ca000dc94bf1320c5d8288ac2a350200000000001976a9142549a2162451c988c00b524c2af8e332b1f6fb7d88ac352e0200000000001976a914a691041e0dcc12348e26d3a09eb9c5290ba0f28388ac8a330200000000001976a914526c198b0ea708db433453d582bd86c8ff6e794388aca82d0200000000001976a9144ced87758b6d3393a8defc2b08ed03af18b4aa8488acc63002000000000017a9140de3175cf0e476f71d5544dcb4ade139364a959387462f0200000000001976a914b887de753b6d2f72663d4eefb777b178f83da2c888ac472e0200000000001976a9147f3b30387471923ddbf0bf051630d7d2a6c91f2d88acec320200000000001976a914d567a071f5bc87c17d8ed7e811a281a1cdbb313c88acf92f0200000000001976a91430113b1dd201f5d0d48600ff26eebfe7d838527b88acb32e0200000000001976a9141d8669fdbe0b326a01d3715cf084445d421298d588ac91300200000000001976a9147dc4a1f09cd6ad1064eb119fce2c692f09f25b1288accb551ea9060000001976a9141660a3a15b4feb49e924f089225818ae2ed9269288acbd3102000000000017a91461b71ea420d8ccb13f5a56669e750f1660d66a3d87fb360200000000001976a91406794b419608ecea83f247702c0826495e8ccd5088ac44340200000000001976a914f47b5f049e6444c0d88601996a2d83884cf0226888ac01310200000000001976a91423928fa5d77f95980bf01ba54b5a0d209969c61588ac97310200000000001976a914ac635c97befb5ff03a05acc7f166ef7e7be20e5988aca1330200000000001976a91479631afa74d4bb7b145cf626530eddea91eddc9e88acf9330200000000001976a9144a59356387430c37a217609fb7188bd637cfc2bf88ac8a2e0200000000001976a9144b92381244a3d7d7650e62a6166938d747a48dff88acf92e0200000000001976a9147768724e07d6437645ab92b5476bffe4973db9ab88ace7320200000000001976a9140a5952ae014307ad1aca8c8a0343373e23b3500488ac8b2f0200000000001976a914024d8c938675303a95a8069f7722d8a9356bc61c88acad300200000000001976a91434f79b61eba287f3bd5bed9464cebf18a9fa027388ace53302000000000017a914d092d203c6d440d40be81cadbae1cd371cfa413587f5310200000000001976a914b4f49ce0fe5533c7994d59a4f26920da77f206bf88ace43002000000000017a914184c5cfc4418e0b09066331f671fb70f3961666a874b2f0200000000001976a9146af1848f4aa43129b5c8d41828cac0b2c0fc60c188ac562e02000000000017a914cc6c2881ff77443d0ba7d544555494f3e532df4587fb320200000000001976a914267a10c03c4d138fae2d7c7f1323e9207873c14488acec2e0200000000001976a9141ab66aa7575c4b1188cdad4e37afd6b9c6fb538c88ac10490800", "vin": [{"sequence": 4294967294, "scriptSig": {"hex": "47304402203ce2a315a3a28a0ca5b2b641567eb542ca2a6c6d33aeb2db0ac89616c73de84e02202b3b5ce3cc8da4458192179d62cd61445b2be8303fc7c76cad9762446db919f9012102c840b0e730460d957339da5901a0c034a4e3fd5e56e6d7da49f5af2176bd9beb", "asm": "304402203ce2a315a3a28a0ca5b2b641567eb542ca2a6c6d33aeb2db0ac89616c73de84e02202b3b5ce3cc8da4458192179d62cd61445b2be8303fc7c76cad9762446db919f9[ALL] 02c840b0e730460d957339da5901a0c034a4e3fd5e56e6d7da49f5af2176bd9beb"}, "vout": 77, "txid": "2f66bf3a97752253b69ec9e8ca91457fbbf9595e32df5b73640be8fa5968d160"}], "txid": "002721233b114db0e8f7543ac437f85fb80f895a20cd36f51f6fbb344d81c14a", "blocktime": 1537871767, "version": 2, "confirmations": 11495, "time": 1537871767, "locktime": 542992, "vsize": 3537, "size": 3537}