{"hash": "002830c816cfcc62dcf468dcd617a69db4fef7054a13d0d5ea7c3abd989aa87b", "blockhash": "000000000000000000022b45ed06c6f4ccd3cf7fb5ba4856ebd2e58215665228", "vout": [{"scriptPubKey": {"reqSigs": 1, "hex": "76a9145bb30ed7230b1bf4ef7a8f101cd150476bad4e0988ac", "addresses": ["19Mrzd6v4gQGAKN6zGQ5gbwquxrog9VfJd"], "asm": "OP_DUP OP_HASH160 5bb30ed7230b1bf4ef7a8f101cd150476bad4e09 OP_EQUALVERIFY OP_CHECKSIG", "type": "pubkeyhash"}, "value": 7.505e-05, "n": 0}, {"scriptPubKey": {"reqSigs": 1, "hex": "76a914523b544b47648eb63381661dbe809fdc3e37952c88ac", "addresses": ["18VoV11zvZAJBbC7pehtYNfNGWLUviyAfB"], "asm": "OP_DUP OP_HASH160 523b544b47648eb63381661dbe809fdc3e37952c OP_EQUALVERIFY OP_CHECKSIG", "type": "pubkeyhash"}, "value": 0.00156, "n": 1}], "hex": "010000000458f0e48b9e652bb4cedd99dd35235aff161b90b3109ff3636bf5976bcd5d5dad000000006b483045022100a46b517ed26ee5290446e124e4ff0b3b767db7851d411f1e823864bb79ce908e0220318707967532e8e649936a07c01f6d06893ff9793bce306a489ccac4043c3f79012102f8452f7945c1e83f9087f630b091e6f03bd722f8a46b1682cf850f13d18b5dbfffffffff47b4865144ab07a137d32b20bb0e8b8ee518a779d55aca5694a89b79274ab8ca010000006b483045022100a3bdc6f5a475cf3ddbb3bc918657ba7c339c09fa6f7a531ef305ce3ad449c53d02200cd5b533e72e7d32b22b81769dd6cce84aa574cf74906a8d416fd9e52ab4dcbf0121031e1ef01a1fe1afd9aca9e5446575a4975c29566fe6ce6809bab8399eb2f9008dffffffff3cd1946372f01d15fe30054cdce830e18e4a657c1b2bb55990935212fa5a460c000000006b483045022100fe821f2d7d2bb660b111a7014b5b26165dbc464d7648b5c985da303f5799834f022025058a947d963ee2e25467b8d6d7d2794ac6a7995ed6165b4be5748b798b7b660121032d3a69665b842e975b93e242e7a4bf546bcf503fd3f221541c7ac6c6aa04225effffffff03c23ace755baeffdbd2735b9fc06e01fde9db307a45ecbd25f325f73adddd71010000006b483045022100becb10b08ac754c9ad626d279f1f34dc8e8accc45bec36ff0d4cb1faedd443c102202181f29c9162cfcba6fed61e44e67c1dfb6398824d424f666f4f7dbd1718830501210395530e3eee7fda25724b480c35afbc98f51d8c936d4f8b8b570ec3f95a72826effffffff02511d0000000000001976a9145bb30ed7230b1bf4ef7a8f101cd150476bad4e0988ac60610200000000001976a914523b544b47648eb63381661dbe809fdc3e37952c88ac00000000", "vin": [{"sequence": 4294967295, "scriptSig": {"hex": "483045022100a46b517ed26ee5290446e124e4ff0b3b767db7851d411f1e823864bb79ce908e0220318707967532e8e649936a07c01f6d06893ff9793bce306a489ccac4043c3f79012102f8452f7945c1e83f9087f630b091e6f03bd722f8a46b1682cf850f13d18b5dbf", "asm": "3045022100a46b517ed26ee5290446e124e4ff0b3b767db7851d411f1e823864bb79ce908e0220318707967532e8e649936a07c01f6d06893ff9793bce306a489ccac4043c3f79[ALL] 02f8452f7945c1e83f9087f630b091e6f03bd722f8a46b1682cf850f13d18b5dbf"}, "vout": 0, "txid": "ad5d5dcd6b97f56b63f39f10b3901b16ff5a2335dd99ddceb42b659e8be4f058"}, {"sequence": 4294967295, "scriptSig": {"hex": "483045022100a3bdc6f5a475cf3ddbb3bc918657ba7c339c09fa6f7a531ef305ce3ad449c53d02200cd5b533e72e7d32b22b81769dd6cce84aa574cf74906a8d416fd9e52ab4dcbf0121031e1ef01a1fe1afd9aca9e5446575a4975c29566fe6ce6809bab8399eb2f9008d", "asm": "3045022100a3bdc6f5a475cf3ddbb3bc918657ba7c339c09fa6f7a531ef305ce3ad449c53d02200cd5b533e72e7d32b22b81769dd6cce84aa574cf74906a8d416fd9e52ab4dcbf[ALL] 031e1ef01a1fe1afd9aca9e5446575a4975c29566fe6ce6809bab8399eb2f9008d"}, "vout": 1, "txid": "cab84a27799ba89456ca5ad579a718e58e8b0ebb202bd337a107ab445186b447"}, {"sequence": 4294967295, "scriptSig": {"hex": "483045022100fe821f2d7d2bb660b111a7014b5b26165dbc464d7648b5c985da303f5799834f022025058a947d963ee2e25467b8d6d7d2794ac6a7995ed6165b4be5748b798b7b660121032d3a69665b842e975b93e242e7a4bf546bcf503fd3f221541c7ac6c6aa04225e", "asm": "3045022100fe821f2d7d2bb660b111a7014b5b26165dbc464d7648b5c985da303f5799834f022025058a947d963ee2e25467b8d6d7d2794ac6a7995ed6165b4be5748b798b7b66[ALL] 032d3a69665b842e975b93e242e7a4bf546bcf503fd3f221541c7ac6c6aa04225e"}, "vout": 0, "txid": "0c465afa1252939059b52b1b7c654a8ee130e8dc4c0530fe151df0726394d13c"}, {"sequence": 4294967295, "scriptSig": {"hex": "483045022100becb10b08ac754c9ad626d279f1f34dc8e8accc45bec36ff0d4cb1faedd443c102202181f29c9162cfcba6fed61e44e67c1dfb6398824d424f666f4f7dbd1718830501210395530e3eee7fda25724b480c35afbc98f51d8c936d4f8b8b570ec3f95a72826e", "asm": "3045022100becb10b08ac754c9ad626d279f1f34dc8e8accc45bec36ff0d4cb1faedd443c102202181f29c9162cfcba6fed61e44e67c1dfb6398824d424f666f4f7dbd17188305[ALL] 0395530e3eee7fda25724b480c35afbc98f51d8c936d4f8b8b570ec3f95a72826e"}, "vout": 1, "txid": "71dddd3af725f325bdec457a30dbe9fd016ec09f5b73d2dbffae5b75ce3ac203"}], "txid": "002830c816cfcc62dcf468dcd617a69db4fef7054a13d0d5ea7c3abd989aa87b", "blocktime": 1537869901, "version": 1, "confirmations": 11524, "time": 1537869901, "locktime": 0, "vsize": 670, "size": 670}