{"hash": "9eb53975c31972b335b59cdc08c5b336ae11f10443edc6d30416c0b7611dcefb", "blockhash": "0000000000000000001f76057863aec43deb6fa401d9628bb513d65a8098bfab", "vout": [{"scriptPubKey": {"reqSigs": 1, "hex": "76a914af1e2adc65e4b3008ebec4ce64d7aea71fd93b0388ac", "addresses": ["1GxwPe7GXmAyEZpApfomZge2i5ejGHYX82"], "asm": "OP_DUP OP_HASH160 af1e2adc65e4b3008ebec4ce64d7aea71fd93b03 OP_EQUALVERIFY OP_CHECKSIG", "type": "pubkeyhash"}, "value": 0.0039, "n": 0}, {"scriptPubKey": {"reqSigs": 1, "hex": "0014c21d0a97fc09b765f2f3c246aa32f07788e9e47b", "addresses": ["bc1qcgws49lupxmktuhncfr25vhsw7ywnermu3rvx0"], "asm": "0 c21d0a97fc09b765f2f3c246aa32f07788e9e47b", "type": "witness_v0_keyhash"}, "value": 0.00010091, "n": 1}], "hex": "01000000000101186856353d33ad8fa9793f2bb92bc565b2d08c8d31aec5f771bfd935ac5b5f581700000017160014bdf34d1dbe945d8da317c085c4b3f6ea215d512cffffffff0270f30500000000001976a914af1e2adc65e4b3008ebec4ce64d7aea71fd93b0388ac6b27000000000000160014c21d0a97fc09b765f2f3c246aa32f07788e9e47b02483045022100fa00597aa36e102398610f40de8edb9c1bd087827d48e6d4438c19d9a918619d02202e82add1924669219011dc7dc118e991f64c1a5af81d4d844ce5b1aaf45ebe980121037663b7d316b2812bec269d09b975c37328b1e97cd8e1f6d801efbf6979dcc46400000000", "vin": [{"txinwitness": ["3045022100fa00597aa36e102398610f40de8edb9c1bd087827d48e6d4438c19d9a918619d02202e82add1924669219011dc7dc118e991f64c1a5af81d4d844ce5b1aaf45ebe9801", "037663b7d316b2812bec269d09b975c37328b1e97cd8e1f6d801efbf6979dcc464"], "sequence": 4294967295, "scriptSig": {"hex": "160014bdf34d1dbe945d8da317c085c4b3f6ea215d512c", "asm": "0014bdf34d1dbe945d8da317c085c4b3f6ea215d512c"}, "vout": 23, "txid": "585f5bac35d9bf71f7c5ae318d8cd0b265c52bb92b3f79a98fad333d35566818"}], "txid": "00285f6791d44e3ba99b41d9918df0f37eba5d1c872670846aa56ebffc963ebe", "blocktime": 1537873891, "version": 1, "confirmations": 11478, "time": 1537873891, "locktime": 0, "vsize": 167, "size": 249}