{"hash": "73fdba83143aa65aed77859a3e0b846ec2e13c4a4d7f177cda3c39576ba674cf", "blockhash": "000000000000000000022b45ed06c6f4ccd3cf7fb5ba4856ebd2e58215665228", "vout": [{"scriptPubKey": {"reqSigs": 1, "hex": "a91456449c04c5fe50f6e3079c2266a8f4bfa017592887", "addresses": ["39ZAE7HXaHPwRV6qDZpnRinvpqD7iTzcxt"], "asm": "OP_HASH160 56449c04c5fe50f6e3079c2266a8f4bfa0175928 OP_EQUAL", "type": "scripthash"}, "value": 0.09033582, "n": 0}, {"scriptPubKey": {"reqSigs": 1, "hex": "0014febf171f5098e1899ecb8bd60ed0e794528a88a4", "addresses": ["bc1ql6l3w86snrscn8kt30tqa588j3fg4z9ycf5304"], "asm": "0 febf171f5098e1899ecb8bd60ed0e794528a88a4", "type": "witness_v0_keyhash"}, "value": 0.01740878, "n": 1}], "hex": "0100000000010104fc0ab4f82740880146128b4264e8583527766e09732ec06fd05d13db98fd4b0100000017160014f11fffa9c7148b3beb10127fa194b8dc10f75654ffffffff026ed789000000000017a91456449c04c5fe50f6e3079c2266a8f4bfa0175928874e901a0000000000160014febf171f5098e1899ecb8bd60ed0e794528a88a402483045022100ec349eaf1b82dbde7a6a776c91e1619d866f3f7697c1634a0cb4e7c5df6eeb61022044136157f2ab8155149b0899e2a0454585215fe9285ee0b00c12e230e0f1d869012102ce770c9ab9fb2e657a1f7ef31c960e7e31bc062ce39e13b480d4908dbd3a6ef600000000", "vin": [{"txinwitness": ["3045022100ec349eaf1b82dbde7a6a776c91e1619d866f3f7697c1634a0cb4e7c5df6eeb61022044136157f2ab8155149b0899e2a0454585215fe9285ee0b00c12e230e0f1d86901", "02ce770c9ab9fb2e657a1f7ef31c960e7e31bc062ce39e13b480d4908dbd3a6ef6"], "sequence": 4294967295, "scriptSig": {"hex": "160014f11fffa9c7148b3beb10127fa194b8dc10f75654", "asm": "0014f11fffa9c7148b3beb10127fa194b8dc10f75654"}, "vout": 1, "txid": "4bfd98db135dd06fc02e73096e76273558e864428b124601884027f8b40afc04"}], "txid": "002ccd2d6191d11e2452716ded2b1a907a002a2e4473fc9d70cc740b6db073ea", "blocktime": 1537869901, "version": 1, "confirmations": 11523, "time": 1537869901, "locktime": 0, "vsize": 165, "size": 247}