{"hash": "002ebe860376de160a9608efc5456891a7d262902479b5c095045b4222730676", "blockhash": "0000000000000000000e13cef7c366c0283d82e591d1acd082e914b08063cdf1", "vout": [{"scriptPubKey": {"reqSigs": 1, "hex": "76a914a94f5f9dc12888f17418d316218a7ba4fb579b3c88ac", "addresses": ["1GSEHPSRN49vGNDZs8wjbvHc2CmGNmj6Tw"], "asm": "OP_DUP OP_HASH160 a94f5f9dc12888f17418d316218a7ba4fb579b3c OP_EQUALVERIFY OP_CHECKSIG", "type": "pubkeyhash"}, "value": 0.0148176, "n": 0}, {"scriptPubKey": {"type": "nulldata", "hex": "6a4c500000778d0001215d7394c3445270de839f71e3ef3236678a625097bcbefa6b8351586b4e288ae09584fcdf2aaa2957d9a724d12c5baa0c670613b6d84d235435bc9a9526289ac0f6612cd74e33776ee4", "asm": "OP_RETURN 0000778d0001215d7394c3445270de839f71e3ef3236678a625097bcbefa6b8351586b4e288ae09584fcdf2aaa2957d9a724d12c5baa0c670613b6d84d235435bc9a9526289ac0f6612cd74e33776ee4"}, "value": 0.0, "n": 1}], "hex": "0100000001d55eb8cb94a912c07eca1d4467c628f0ab0aae4867ba393dec24b9e5c63f6806010000006a473044022005c348d754e13ebd38c492be744209ae20308290c0bf8b01009f908a6fdd369e02204a175cbd49d12374549fef539852ff1852539f05a3f6ad929d0ace379087702d012103ebf75a715c103c062cde6ef25c8d43bb90ec82c276020447e99b6dc8e431efecffffffff02209c1600000000001976a914a94f5f9dc12888f17418d316218a7ba4fb579b3c88ac0000000000000000536a4c500000778d0001215d7394c3445270de839f71e3ef3236678a625097bcbefa6b8351586b4e288ae09584fcdf2aaa2957d9a724d12c5baa0c670613b6d84d235435bc9a9526289ac0f6612cd74e33776ee400000000", "vin": [{"sequence": 4294967295, "scriptSig": {"hex": "473044022005c348d754e13ebd38c492be744209ae20308290c0bf8b01009f908a6fdd369e02204a175cbd49d12374549fef539852ff1852539f05a3f6ad929d0ace379087702d012103ebf75a715c103c062cde6ef25c8d43bb90ec82c276020447e99b6dc8e431efec", "asm": "3044022005c348d754e13ebd38c492be744209ae20308290c0bf8b01009f908a6fdd369e02204a175cbd49d12374549fef539852ff1852539f05a3f6ad929d0ace379087702d[ALL] 03ebf75a715c103c062cde6ef25c8d43bb90ec82c276020447e99b6dc8e431efec"}, "vout": 1, "txid": "06683fc6e5b924ec3d39ba6748ae0aabf028c667441dca7ec012a994cbb85ed5"}], "txid": "002ebe860376de160a9608efc5456891a7d262902479b5c095045b4222730676", "blocktime": 1537871767, "version": 1, "confirmations": 11493, "time": 1537871767, "locktime": 0, "vsize": 283, "size": 283}