{"hash": "003138ddddfb6d21273fdd8a2af01230d847e8866d40b1f05d8952ab0685650f", "blockhash": "0000000000000000000baef3f32e3676a92c3b2e5da21b426e4f302fc371ce76", "vout": [{"scriptPubKey": {"reqSigs": 1, "hex": "76a9143d5d896021734204e05378a29c393251fca8fdd788ac", "addresses": ["16bUGjvunVp7LqygLHrTvHyvbvfeuRCWAh"], "asm": "OP_DUP OP_HASH160 3d5d896021734204e05378a29c393251fca8fdd7 OP_EQUALVERIFY OP_CHECKSIG", "type": "pubkeyhash"}, "value": 0.00542676, "n": 0}, {"scriptPubKey": {"reqSigs": 1, "hex": "76a91422b8b0b835429b5f1c5cea79afcefff45c6d6ecc88ac", "addresses": ["14AbE2junWQkveNHGU1gJHLdcVdDFR8jH1"], "asm": "OP_DUP OP_HASH160 22b8b0b835429b5f1c5cea79afcefff45c6d6ecc OP_EQUALVERIFY OP_CHECKSIG", "type": "pubkeyhash"}, "value": 5.46e-06, "n": 1}, {"scriptPubKey": {"type": "nulldata", "hex": "6a146f6d6e69000000000000001f00000000a3e9ab80", "asm": "OP_RETURN 6f6d6e69000000000000001f00000000a3e9ab80"}, "value": 0.0, "n": 2}], "hex": "01000000011a85d61a6ebf65b4eaecc9564e34c217b681bcc7ccc5970cc8f3e97c9fdfb26f000000006a47304402206240bedb492d9035e8d3a76fd66aae3e5d764e15add7c0d2e2d26bdfed611c1502203ff10cb1ff7e646987815a0f377b1d36d70a4f362b7904ea9dbaa7c47219cca2012103486fea7a6ac64066aad0880cdef75a12efb8ef02a17201aa5e09388afaa6c3bbffffffff03d4470800000000001976a9143d5d896021734204e05378a29c393251fca8fdd788ac22020000000000001976a91422b8b0b835429b5f1c5cea79afcefff45c6d6ecc88ac0000000000000000166a146f6d6e69000000000000001f00000000a3e9ab8000000000", "vin": [{"sequence": 4294967295, "scriptSig": {"hex": "47304402206240bedb492d9035e8d3a76fd66aae3e5d764e15add7c0d2e2d26bdfed611c1502203ff10cb1ff7e646987815a0f377b1d36d70a4f362b7904ea9dbaa7c47219cca2012103486fea7a6ac64066aad0880cdef75a12efb8ef02a17201aa5e09388afaa6c3bb", "asm": "304402206240bedb492d9035e8d3a76fd66aae3e5d764e15add7c0d2e2d26bdfed611c1502203ff10cb1ff7e646987815a0f377b1d36d70a4f362b7904ea9dbaa7c47219cca2[ALL] 03486fea7a6ac64066aad0880cdef75a12efb8ef02a17201aa5e09388afaa6c3bb"}, "vout": 0, "txid": "6fb2df9f7ce9f3c80c97c5ccc7bc81b617c2344e56c9eceab465bf6e1ad6851a"}], "txid": "003138ddddfb6d21273fdd8a2af01230d847e8866d40b1f05d8952ab0685650f", "blocktime": 1537876114, "version": 1, "confirmations": 11459, "time": 1537876114, "locktime": 0, "vsize": 256, "size": 256}