{"hash": "003669301b719f5a507ddffcbb325f21ebae4242f2861b2fa54616279ecb8afb", "blockhash": "0000000000000000001cda96e906b7601b7a6fb1a3b62bca570a9e5d8f4b3de1", "vout": [{"scriptPubKey": {"reqSigs": 1, "hex": "a9143d61f082945353598b00074a4ebb96c01c8d149887", "addresses": ["37HaUCbE7B4i4B9Xf1rE9UmGy9cg9ZDa58"], "asm": "OP_HASH160 3d61f082945353598b00074a4ebb96c01c8d1498 OP_EQUAL", "type": "scripthash"}, "value": 0.005118, "n": 0}, {"scriptPubKey": {"reqSigs": 1, "hex": "76a9149d616a8472d1d51b39e0a504978811720957e3c588ac", "addresses": ["1FM9nhvNEbVbBFREAnUvZwHSfETEnt1w3i"], "asm": "OP_DUP OP_HASH160 9d616a8472d1d51b39e0a504978811720957e3c5 OP_EQUALVERIFY OP_CHECKSIG", "type": "pubkeyhash"}, "value": 0.12845205, "n": 1}], "hex": "0100000001e173793403a739d8189a44add7740f3cc3d952f0275d3dd8fc1f0d5fbb3ffee7010000006a473044022011a2443a922b0fd42a298212785876fcecd88cfb4b95c9e737ec882330d7d8c802203b0a9761f95de57ffa41b60b84832fa1bea881e8057d0a52221581f8ec25afec012103b21717bf537a450ee4cbea62a451e91e035873e6ba09cdc7f45820976a2bbb45ffffffff0238cf07000000000017a9143d61f082945353598b00074a4ebb96c01c8d1498879500c400000000001976a9149d616a8472d1d51b39e0a504978811720957e3c588ac00000000", "vin": [{"sequence": 4294967295, "scriptSig": {"hex": "473044022011a2443a922b0fd42a298212785876fcecd88cfb4b95c9e737ec882330d7d8c802203b0a9761f95de57ffa41b60b84832fa1bea881e8057d0a52221581f8ec25afec012103b21717bf537a450ee4cbea62a451e91e035873e6ba09cdc7f45820976a2bbb45", "asm": "3044022011a2443a922b0fd42a298212785876fcecd88cfb4b95c9e737ec882330d7d8c802203b0a9761f95de57ffa41b60b84832fa1bea881e8057d0a52221581f8ec25afec[ALL] 03b21717bf537a450ee4cbea62a451e91e035873e6ba09cdc7f45820976a2bbb45"}, "vout": 1, "txid": "e7fe3fbb5f0d1ffcd83d5d27f052d9c33c0f74d7ad449a18d839a703347973e1"}], "txid": "003669301b719f5a507ddffcbb325f21ebae4242f2861b2fa54616279ecb8afb", "blocktime": 1537873282, "version": 1, "confirmations": 11481, "time": 1537873282, "locktime": 0, "vsize": 223, "size": 223}