{"hash": "0037d929f9a303f1d7387ea7d68361aa8d69205ff74f32d0689e7aef6a73ad02", "blockhash": "0000000000000000001cda96e906b7601b7a6fb1a3b62bca570a9e5d8f4b3de1", "vout": [{"scriptPubKey": {"reqSigs": 1, "hex": "76a914a6570f223413341e04b47e25d37c6551dbd2115788ac", "addresses": ["1GAXTpQESrSzrhQ9TAYPhzLn4qS6y3yQxD"], "asm": "OP_DUP OP_HASH160 a6570f223413341e04b47e25d37c6551dbd21157 OP_EQUALVERIFY OP_CHECKSIG", "type": "pubkeyhash"}, "value": 0.01249414, "n": 0}, {"scriptPubKey": {"reqSigs": 1, "hex": "76a91449f7d855bdc74877ca0aa16b6efeeeaa2572673e88ac", "addresses": ["17k7EaegvAk8wR8Ss9t5Q45XxyTRcWBFCs"], "asm": "OP_DUP OP_HASH160 49f7d855bdc74877ca0aa16b6efeeeaa2572673e OP_EQUALVERIFY OP_CHECKSIG", "type": "pubkeyhash"}, "value": 0.3772769, "n": 1}], "hex": "0200000001513f85c3b8247265e6c4b8a5574e9d6ed9429a45805373efefeed1f4bf882715000000006a47304402207554376e4f132c24de418400003cac8cc60d6a3be6c2e26ac9d5f61c54771218022011495202ea5baaed260311d8512cad5925203f219aa870ebeb7537c4f8f544220121033b66868133490e8f1884d7d901bd1716f38e2dcfe973fa1e594f66847e7735b8feffffff0286101300000000001976a914a6570f223413341e04b47e25d37c6551dbd2115788accaad3f02000000001976a91449f7d855bdc74877ca0aa16b6efeeeaa2572673e88ac13490800", "vin": [{"sequence": 4294967294, "scriptSig": {"hex": "47304402207554376e4f132c24de418400003cac8cc60d6a3be6c2e26ac9d5f61c54771218022011495202ea5baaed260311d8512cad5925203f219aa870ebeb7537c4f8f544220121033b66868133490e8f1884d7d901bd1716f38e2dcfe973fa1e594f66847e7735b8", "asm": "304402207554376e4f132c24de418400003cac8cc60d6a3be6c2e26ac9d5f61c54771218022011495202ea5baaed260311d8512cad5925203f219aa870ebeb7537c4f8f54422[ALL] 033b66868133490e8f1884d7d901bd1716f38e2dcfe973fa1e594f66847e7735b8"}, "vout": 0, "txid": "152788bff4d1eeefef735380459a42d96e9d4e57a5b8c4e6657224b8c3853f51"}], "txid": "0037d929f9a303f1d7387ea7d68361aa8d69205ff74f32d0689e7aef6a73ad02", "blocktime": 1537873282, "version": 2, "confirmations": 11480, "time": 1537873282, "locktime": 542995, "vsize": 225, "size": 225}