{"hash": "8160b92efc3d368dbdd93a38d009a38e6b8da4b05d873aeb7cc2642507d6a358", "blockhash": "0000000000000000000e13cef7c366c0283d82e591d1acd082e914b08063cdf1", "vout": [{"scriptPubKey": {"reqSigs": 1, "hex": "00149a5baeb33f12e6321376bb449666d7d1c44bc609", "addresses": ["bc1qnfd6avelztnryymkhdzfvekh68zyh3sfhjae98"], "asm": "0 9a5baeb33f12e6321376bb449666d7d1c44bc609", "type": "witness_v0_keyhash"}, "value": 1.586e-05, "n": 0}, {"scriptPubKey": {"reqSigs": 1, "hex": "a91490ea814adf830d4e8669f55fe12693932ee59de787", "addresses": ["3EuG9s3xzvZhTtuHc2vSXzRz7hQXKiUWa8"], "asm": "OP_HASH160 90ea814adf830d4e8669f55fe12693932ee59de7 OP_EQUAL", "type": "scripthash"}, "value": 0.00183523, "n": 1}], "hex": "01000000000101264bdb2036b2c00090e2339954c50f5b1b5e93809ed3de0770ff2ba4f53c681f0000000017160014814aad97428135a84f59983f085083da9d047867ffffffff0232060000000000001600149a5baeb33f12e6321376bb449666d7d1c44bc609e3cc02000000000017a91490ea814adf830d4e8669f55fe12693932ee59de78702473044022049356165a0e688b561a93895ff4940a3b7bf527e8f2dfd83984a725044438c5302206f57dd2a0257588d30cc4ecd156651ad1a75024003d503bd3645428d581e7c070121027ec41d087b653d48420c3596b0872ddac58e9d66e227575659354b4be64fd36c00000000", "vin": [{"txinwitness": ["3044022049356165a0e688b561a93895ff4940a3b7bf527e8f2dfd83984a725044438c5302206f57dd2a0257588d30cc4ecd156651ad1a75024003d503bd3645428d581e7c0701", "027ec41d087b653d48420c3596b0872ddac58e9d66e227575659354b4be64fd36c"], "sequence": 4294967295, "scriptSig": {"hex": "160014814aad97428135a84f59983f085083da9d047867", "asm": "0014814aad97428135a84f59983f085083da9d047867"}, "vout": 0, "txid": "1f683cf5a42bff7007ded39e80935e1b5b0fc5549933e29000c0b23620db4b26"}], "txid": "003c0e0ad7839959c2efd8326eef9e68046fa2a64b18268f3b4c7ec1684bcade", "blocktime": 1537871767, "version": 1, "confirmations": 11495, "time": 1537871767, "locktime": 0, "vsize": 165, "size": 246}