{"hash": "003e17421cf75fd6717db7655546d336ef7397233fc0d1f9170bd30a35c11069", "blockhash": "0000000000000000000e13cef7c366c0283d82e591d1acd082e914b08063cdf1", "vout": [{"scriptPubKey": {"type": "nulldata", "hex": "6a146f6d6e69000000000000001f000000245459e480", "asm": "OP_RETURN 6f6d6e69000000000000001f000000245459e480"}, "value": 0.0, "n": 0}, {"scriptPubKey": {"reqSigs": 1, "hex": "76a914a25dec4d0011064ef106a983c39c7a540699f22088ac", "addresses": ["1FoWyxwPXuj4C6abqwhjDWdz6D4PZgYRjA"], "asm": "OP_DUP OP_HASH160 a25dec4d0011064ef106a983c39c7a540699f220 OP_EQUALVERIFY OP_CHECKSIG", "type": "pubkeyhash"}, "value": 5.46e-06, "n": 1}, {"scriptPubKey": {"reqSigs": 1, "hex": "76a914c45a0e7124331d1350a074a8b9e63c39226bd6d088ac", "addresses": ["1JuDKq2ibjmEaVnyxuK2rFAjp2wNzWjmXT"], "asm": "OP_DUP OP_HASH160 c45a0e7124331d1350a074a8b9e63c39226bd6d0 OP_EQUALVERIFY OP_CHECKSIG", "type": "pubkeyhash"}, "value": 0.00462987, "n": 2}], "hex": "0100000002ae4dffffc8d9c8484870f9cc3e4e3b72d058b3408321184ab0ba1a8d23f7fbaf000000006a47304402206c18a310accb62df9b53b320e5c19bd80c9af197df9837b1c5e05df5dfda830c022024e8952061aff3d5af7e1c28b1b18c127da1e80549a7add4ef48224eacc8083c012102b6de80d111056ace6b965fe04d5146162c6bb3eb0f5b43aeff919f1ef80315d9feffffff1ba77eb00b3eff7e73884170d2b0de930929a58df765015154c6dba4c3a4685a020000006b483045022100a1577b48909a03edda8bea563da1242772a868e420cf2392701bc0474fa6807502204918478bf0a5020d0f45f2b7c3aab3ca82e7c46f25df828014d8f689d5776122012102b6de80d111056ace6b965fe04d5146162c6bb3eb0f5b43aeff919f1ef80315d9feffffff030000000000000000166a146f6d6e69000000000000001f000000245459e48022020000000000001976a914a25dec4d0011064ef106a983c39c7a540699f22088ac8b100700000000001976a914c45a0e7124331d1350a074a8b9e63c39226bd6d088acdc480800", "vin": [{"sequence": 4294967294, "scriptSig": {"hex": "47304402206c18a310accb62df9b53b320e5c19bd80c9af197df9837b1c5e05df5dfda830c022024e8952061aff3d5af7e1c28b1b18c127da1e80549a7add4ef48224eacc8083c012102b6de80d111056ace6b965fe04d5146162c6bb3eb0f5b43aeff919f1ef80315d9", "asm": "304402206c18a310accb62df9b53b320e5c19bd80c9af197df9837b1c5e05df5dfda830c022024e8952061aff3d5af7e1c28b1b18c127da1e80549a7add4ef48224eacc8083c[ALL] 02b6de80d111056ace6b965fe04d5146162c6bb3eb0f5b43aeff919f1ef80315d9"}, "vout": 0, "txid": "affbf7238d1abab04a18218340b358d0723b4e3eccf9704848c8d9c8ffff4dae"}, {"sequence": 4294967294, "scriptSig": {"hex": "483045022100a1577b48909a03edda8bea563da1242772a868e420cf2392701bc0474fa6807502204918478bf0a5020d0f45f2b7c3aab3ca82e7c46f25df828014d8f689d5776122012102b6de80d111056ace6b965fe04d5146162c6bb3eb0f5b43aeff919f1ef80315d9", "asm": "3045022100a1577b48909a03edda8bea563da1242772a868e420cf2392701bc0474fa6807502204918478bf0a5020d0f45f2b7c3aab3ca82e7c46f25df828014d8f689d5776122[ALL] 02b6de80d111056ace6b965fe04d5146162c6bb3eb0f5b43aeff919f1ef80315d9"}, "vout": 2, "txid": "5a68a4c3a4dbc654510165f78da5290993deb0d2704188737eff3e0bb07ea71b"}], "txid": "003e17421cf75fd6717db7655546d336ef7397233fc0d1f9170bd30a35c11069", "blocktime": 1537871767, "version": 1, "confirmations": 11495, "time": 1537871767, "locktime": 542940, "vsize": 404, "size": 404}