{"hash": "cdec4524f3d8652d2fa3dfe5e3e75ba02bfb9e476907b6cc5ab48c33f551bc35", "blockhash": "00000000000000000017f5eb5941039fbcee6240d03bc1f2f8e35350df66a1d8", "vout": [{"scriptPubKey": {"reqSigs": 1, "hex": "0014a494f603f6693f6e5f6fe815a901e536fe080823", "addresses": ["bc1q5j20vqlkdylkuhm0aq26jq09xmlqszpr6m66ft"], "asm": "0 a494f603f6693f6e5f6fe815a901e536fe080823", "type": "witness_v0_keyhash"}, "value": 0.02211248, "n": 0}, {"scriptPubKey": {"reqSigs": 1, "hex": "76a91416599a240a0350247282e17cf9cf08b74aec4f7488ac", "addresses": ["133BCtHPhWWeeKJ5WXvfDk1PChhbcc7KmG"], "asm": "OP_DUP OP_HASH160 16599a240a0350247282e17cf9cf08b74aec4f74 OP_EQUALVERIFY OP_CHECKSIG", "type": "pubkeyhash"}, "value": 0.0182, "n": 1}], "hex": "01000000000101c820ee8a3fce28646e8019487b0e3a9e94d616fae77f535182318a81bb1d265c0000000000ffffffff02b0bd210000000000160014a494f603f6693f6e5f6fe815a901e536fe08082360c51b00000000001976a91416599a240a0350247282e17cf9cf08b74aec4f7488ac02483045022100983fcebac3b35d07ffc67d3bb42df9399e6b48ca312e2616ccee3f363682401102202c1caa74f2db5d17d67e6f22303297fc8cb246bd87844d87044fa4fa5677bac0012103908a5936410f452a29150c5fd09c9b3b6a0bd12eb39a3b84ba33deb0c489d91700000000", "vin": [{"txinwitness": ["3045022100983fcebac3b35d07ffc67d3bb42df9399e6b48ca312e2616ccee3f363682401102202c1caa74f2db5d17d67e6f22303297fc8cb246bd87844d87044fa4fa5677bac001", "03908a5936410f452a29150c5fd09c9b3b6a0bd12eb39a3b84ba33deb0c489d917"], "sequence": 4294967295, "scriptSig": {"hex": "", "asm": ""}, "vout": 0, "txid": "5c261dbb818a318251537fe7fa16d6949e3a0e7b4819806e6428ce3f8aee20c8"}], "txid": "0040a1dce10d8f8718f07b75c1b67965f2a9148bed1bfb54e745a4e9314d28d7", "blocktime": 1537874412, "version": 1, "confirmations": 11467, "time": 1537874412, "locktime": 0, "vsize": 144, "size": 226}