{"hash": "00438358ca44bddadd8d74c84e51d5cd00e9d1ef331c299ef42e49cb4f5f6e39", "blockhash": "000000000000000000022b45ed06c6f4ccd3cf7fb5ba4856ebd2e58215665228", "vout": [{"scriptPubKey": {"type": "nulldata", "hex": "6a146f6d6e69000000000000001f0000000fea374480", "asm": "OP_RETURN 6f6d6e69000000000000001f0000000fea374480"}, "value": 0.0, "n": 0}, {"scriptPubKey": {"reqSigs": 1, "hex": "76a914a25dec4d0011064ef106a983c39c7a540699f22088ac", "addresses": ["1FoWyxwPXuj4C6abqwhjDWdz6D4PZgYRjA"], "asm": "OP_DUP OP_HASH160 a25dec4d0011064ef106a983c39c7a540699f220 OP_EQUALVERIFY OP_CHECKSIG", "type": "pubkeyhash"}, "value": 5.46e-06, "n": 1}, {"scriptPubKey": {"reqSigs": 1, "hex": "76a914569c9f697d938e12160dc8b24f7da118a5cb25a488ac", "addresses": ["18txjqML2bVkbvv167aFuvr4ipQ4zWM4zD"], "asm": "OP_DUP OP_HASH160 569c9f697d938e12160dc8b24f7da118a5cb25a4 OP_EQUALVERIFY OP_CHECKSIG", "type": "pubkeyhash"}, "value": 0.00499387, "n": 2}], "hex": "0100000002912557e17582ceb1e81d6f8ffb4f018df417ac78d3254cd8c0dfa44a279b8e73010000006b483045022100807063cc2965b0447e1f709ad890fc9f2e705d116a52de2732d45c3a461c80c002203bb50b819c909489bf45a20b3eb1f1339d3fbc508bc46c0f8a00257a8eb3960001210211f2413a909f13087c35c2da40911d0f3dcc1ccf960378d8ea4d2be4e8798ac5feffffff2524a8a2464977c455c3447353e98f955385a1981d69f1ea79c7df9fc406b033020000006a47304402205d405bc6bb101004e24c241ab9a1cac7d4f8a1e1e1a700c5f91c374f70611a4a02205fbc12e03f5aee118f86af72e4e2ed070a847594f722371a8c1aeb2bc0339ff001210211f2413a909f13087c35c2da40911d0f3dcc1ccf960378d8ea4d2be4e8798ac5feffffff030000000000000000166a146f6d6e69000000000000001f0000000fea37448022020000000000001976a914a25dec4d0011064ef106a983c39c7a540699f22088acbb9e0700000000001976a914569c9f697d938e12160dc8b24f7da118a5cb25a488ac0b490800", "vin": [{"sequence": 4294967294, "scriptSig": {"hex": "483045022100807063cc2965b0447e1f709ad890fc9f2e705d116a52de2732d45c3a461c80c002203bb50b819c909489bf45a20b3eb1f1339d3fbc508bc46c0f8a00257a8eb3960001210211f2413a909f13087c35c2da40911d0f3dcc1ccf960378d8ea4d2be4e8798ac5", "asm": "3045022100807063cc2965b0447e1f709ad890fc9f2e705d116a52de2732d45c3a461c80c002203bb50b819c909489bf45a20b3eb1f1339d3fbc508bc46c0f8a00257a8eb39600[ALL] 0211f2413a909f13087c35c2da40911d0f3dcc1ccf960378d8ea4d2be4e8798ac5"}, "vout": 1, "txid": "738e9b274aa4dfc0d84c25d378ac17f48d014ffb8f6f1de8b1ce8275e1572591"}, {"sequence": 4294967294, "scriptSig": {"hex": "47304402205d405bc6bb101004e24c241ab9a1cac7d4f8a1e1e1a700c5f91c374f70611a4a02205fbc12e03f5aee118f86af72e4e2ed070a847594f722371a8c1aeb2bc0339ff001210211f2413a909f13087c35c2da40911d0f3dcc1ccf960378d8ea4d2be4e8798ac5", "asm": "304402205d405bc6bb101004e24c241ab9a1cac7d4f8a1e1e1a700c5f91c374f70611a4a02205fbc12e03f5aee118f86af72e4e2ed070a847594f722371a8c1aeb2bc0339ff0[ALL] 0211f2413a909f13087c35c2da40911d0f3dcc1ccf960378d8ea4d2be4e8798ac5"}, "vout": 2, "txid": "33b006c49fdfc779eaf1691d98a18553958fe9537344c355c4774946a2a82425"}], "txid": "00438358ca44bddadd8d74c84e51d5cd00e9d1ef331c299ef42e49cb4f5f6e39", "blocktime": 1537869901, "version": 1, "confirmations": 11524, "time": 1537869901, "locktime": 542987, "vsize": 404, "size": 404}