{"hash": "0043146567218a6858042bd1bd51965fe5eaddd30662cbd474cc491ed6d4039c", "blockhash": "0000000000000000000dcc0f55137456b1a82d3642486a52398922ac4d620174", "vout": [{"scriptPubKey": {"reqSigs": 1, "hex": "76a914b15bd5586409a012e10527d674fde5c00690f90388ac", "addresses": ["1HAnceeXdK6Uqxuvc8W2edVo32ixTjrZaq"], "asm": "OP_DUP OP_HASH160 b15bd5586409a012e10527d674fde5c00690f903 OP_EQUALVERIFY OP_CHECKSIG", "type": "pubkeyhash"}, "value": 0.0393116, "n": 0}, {"scriptPubKey": {"reqSigs": 1, "hex": "a91473d1e8ec44ad82be254edf3128cc3906a557ce1487", "addresses": ["3CFR6PxgEo2XozgUueVwhrimjyroC679QL"], "asm": "OP_HASH160 73d1e8ec44ad82be254edf3128cc3906a557ce14 OP_EQUAL", "type": "scripthash"}, "value": 0.00298859, "n": 1}], "hex": "02000000010a3477414f4b75f5591f934b028b36948f70f956bb569343a7ef3dd86e0826d5000000006a473044022008d9cad6d8b6a064e8695ef207f7b7f953cf7d7159f2d9cc0049cb56bf2b14e002201639556808bcbfdecbdc60a97dbccbc2bdf66166b3bb74036812432000ff455f012103077ed2b6ae7ef2bb1d5ef3a7595edfc09d63d4d456c725b5aad824cf10f1cd83feffffff0218fc3b00000000001976a914b15bd5586409a012e10527d674fde5c00690f90388ac6b8f04000000000017a91473d1e8ec44ad82be254edf3128cc3906a557ce14870c490800", "vin": [{"sequence": 4294967294, "scriptSig": {"hex": "473044022008d9cad6d8b6a064e8695ef207f7b7f953cf7d7159f2d9cc0049cb56bf2b14e002201639556808bcbfdecbdc60a97dbccbc2bdf66166b3bb74036812432000ff455f012103077ed2b6ae7ef2bb1d5ef3a7595edfc09d63d4d456c725b5aad824cf10f1cd83", "asm": "3044022008d9cad6d8b6a064e8695ef207f7b7f953cf7d7159f2d9cc0049cb56bf2b14e002201639556808bcbfdecbdc60a97dbccbc2bdf66166b3bb74036812432000ff455f[ALL] 03077ed2b6ae7ef2bb1d5ef3a7595edfc09d63d4d456c725b5aad824cf10f1cd83"}, "vout": 0, "txid": "d526086ed83defa7439356bb56f9708f94368b024b931f59f5754b4f4177340a"}], "txid": "0043146567218a6858042bd1bd51965fe5eaddd30662cbd474cc491ed6d4039c", "blocktime": 1537870268, "version": 2, "confirmations": 11518, "time": 1537870268, "locktime": 542988, "vsize": 223, "size": 223}