{"hash": "0046af496fd0a85232e2981a5361dde94c784809f7801fe5709b20b817f19fb7", "blockhash": "0000000000000000000baef3f32e3676a92c3b2e5da21b426e4f302fc371ce76", "vout": [{"scriptPubKey": {"reqSigs": 1, "hex": "76a914ac027ae5c5d866024f8e65253b0c9cb3edc449e788ac", "addresses": ["1GgWCK9zF5dZVZK6m1CADjEdDkE174UpDJ"], "asm": "OP_DUP OP_HASH160 ac027ae5c5d866024f8e65253b0c9cb3edc449e7 OP_EQUALVERIFY OP_CHECKSIG", "type": "pubkeyhash"}, "value": 0.02476093, "n": 0}, {"scriptPubKey": {"reqSigs": 1, "hex": "a914a94ccd504d018cc6bef10fcff99f3404b1f563b987", "addresses": ["3H8C8G36fKoUK6UsREaLguFFjByNbhuPqL"], "asm": "OP_HASH160 a94ccd504d018cc6bef10fcff99f3404b1f563b9 OP_EQUAL", "type": "scripthash"}, "value": 0.26049068, "n": 1}], "hex": "0100000003e32d5a13bdfb26d9eda18038bcd4107f93c0890f1140292983d268402e9ff740010000006b483045022100a72a5cedbff66763f53e220c8f5f8d88fe58633b2568ab2fe7cc8c5d68f1243a022038c700d804788ab44900026721f3754398cf711bb81cf5cb957a3cc6df11162f012103280a6509bab9783bc833fcc900a75c1b31fa4a513d8b5922787575b9575dbc30ffffffff0518dfb556d05d394c66a670ab02301747ec3e1f71f411e1d6f4af6b6e05966d000000006a47304402207cd5303f815c31af32a5eb378b5866b61e6cb0e7824442f4af3cf97028345f3202205490c25f3a7d88a10138383d46b87e8aadba441fd4d1cff99bc7f473f67238c301210290709c65bc24e709d325a9c5f1cecec0485b1f3d4fd2b7ff4b71735c2ea70b72ffffffffd630e0c343d56ae1af0c042cf39d7fd12305524a9e6977846c8d939686149b72010000006a4730440220247e4b3f769f6eb79d0a5502828f77a6ce085e5db41a82eb7c55a737ca3f9fdf02200f7ec48c31ec159978df7bccc78de08d718ba57f678135374cc8f8d924dc895b01210290709c65bc24e709d325a9c5f1cecec0485b1f3d4fd2b7ff4b71735c2ea70b72ffffffff023dc82500000000001976a914ac027ae5c5d866024f8e65253b0c9cb3edc449e788ac2c7a8d010000000017a914a94ccd504d018cc6bef10fcff99f3404b1f563b98700000000", "vin": [{"sequence": 4294967295, "scriptSig": {"hex": "483045022100a72a5cedbff66763f53e220c8f5f8d88fe58633b2568ab2fe7cc8c5d68f1243a022038c700d804788ab44900026721f3754398cf711bb81cf5cb957a3cc6df11162f012103280a6509bab9783bc833fcc900a75c1b31fa4a513d8b5922787575b9575dbc30", "asm": "3045022100a72a5cedbff66763f53e220c8f5f8d88fe58633b2568ab2fe7cc8c5d68f1243a022038c700d804788ab44900026721f3754398cf711bb81cf5cb957a3cc6df11162f[ALL] 03280a6509bab9783bc833fcc900a75c1b31fa4a513d8b5922787575b9575dbc30"}, "vout": 1, "txid": "40f79f2e4068d283292940110f89c0937f10d4bc3880a1edd926fbbd135a2de3"}, {"sequence": 4294967295, "scriptSig": {"hex": "47304402207cd5303f815c31af32a5eb378b5866b61e6cb0e7824442f4af3cf97028345f3202205490c25f3a7d88a10138383d46b87e8aadba441fd4d1cff99bc7f473f67238c301210290709c65bc24e709d325a9c5f1cecec0485b1f3d4fd2b7ff4b71735c2ea70b72", "asm": "304402207cd5303f815c31af32a5eb378b5866b61e6cb0e7824442f4af3cf97028345f3202205490c25f3a7d88a10138383d46b87e8aadba441fd4d1cff99bc7f473f67238c3[ALL] 0290709c65bc24e709d325a9c5f1cecec0485b1f3d4fd2b7ff4b71735c2ea70b72"}, "vout": 0, "txid": "6d96056e6baff4d6e111f4711f3eec47173002ab70a6664c395dd056b5df1805"}, {"sequence": 4294967295, "scriptSig": {"hex": "4730440220247e4b3f769f6eb79d0a5502828f77a6ce085e5db41a82eb7c55a737ca3f9fdf02200f7ec48c31ec159978df7bccc78de08d718ba57f678135374cc8f8d924dc895b01210290709c65bc24e709d325a9c5f1cecec0485b1f3d4fd2b7ff4b71735c2ea70b72", "asm": "30440220247e4b3f769f6eb79d0a5502828f77a6ce085e5db41a82eb7c55a737ca3f9fdf02200f7ec48c31ec159978df7bccc78de08d718ba57f678135374cc8f8d924dc895b[ALL] 0290709c65bc24e709d325a9c5f1cecec0485b1f3d4fd2b7ff4b71735c2ea70b72"}, "vout": 1, "txid": "729b148696938d6c8477699e4a520523d17f9df32c040cafe16ad543c3e030d6"}], "txid": "0046af496fd0a85232e2981a5361dde94c784809f7801fe5709b20b817f19fb7", "blocktime": 1537876114, "version": 1, "confirmations": 11460, "time": 1537876114, "locktime": 0, "vsize": 518, "size": 518}