{"hash": "00544b2cb00a04efa0b324ee666b87e2f9a1d513c737a67175a9e3d3fb099644", "blockhash": "00000000000000000018f53835495a110e01622372bf6ae95dc86f2b0ab887b0", "vout": [{"scriptPubKey": {"reqSigs": 1, "hex": "76a9141e06a66f9b9dafd16b3f043026706dd4bbaf119f88ac", "addresses": ["13jmEpFuPdkYJocrSUCJqgJfLs3TZZbcwp"], "asm": "OP_DUP OP_HASH160 1e06a66f9b9dafd16b3f043026706dd4bbaf119f OP_EQUALVERIFY OP_CHECKSIG", "type": "pubkeyhash"}, "value": 0.05049115, "n": 0}], "hex": "01000000012941d071b55c7c44b6e0a9060e8d59b75cef5c0445b407a169c3d1794bd32c1e0b0000006a473044022059cba38a40578c68bb622bad88c2598da4664cfa357b2983013209c93f9912540220642b9f943b2e0da551797b36c29d905c6268588d311a0cabfd512804365b41f5012103274ce64fa1a9d833f62f2e27390408a08e1820c6e95cbe70313a0eba8f7180d6ffffffff011b0b4d00000000001976a9141e06a66f9b9dafd16b3f043026706dd4bbaf119f88ac00000000", "vin": [{"sequence": 4294967295, "scriptSig": {"hex": "473044022059cba38a40578c68bb622bad88c2598da4664cfa357b2983013209c93f9912540220642b9f943b2e0da551797b36c29d905c6268588d311a0cabfd512804365b41f5012103274ce64fa1a9d833f62f2e27390408a08e1820c6e95cbe70313a0eba8f7180d6", "asm": "3044022059cba38a40578c68bb622bad88c2598da4664cfa357b2983013209c93f9912540220642b9f943b2e0da551797b36c29d905c6268588d311a0cabfd512804365b41f5[ALL] 03274ce64fa1a9d833f62f2e27390408a08e1820c6e95cbe70313a0eba8f7180d6"}, "vout": 11, "txid": "1e2cd34b79d1c369a107b445045cef5cb7598d0e06a9e0b6447c5cb571d04129"}], "txid": "00544b2cb00a04efa0b324ee666b87e2f9a1d513c737a67175a9e3d3fb099644", "blocktime": 1537870928, "version": 1, "confirmations": 11512, "time": 1537870928, "locktime": 0, "vsize": 191, "size": 191}