{"hash": "005836c57ff6933e6764ea7f232defb5e4769b501b51561f6c81245087c8e9e3", "blockhash": "0000000000000000001f76057863aec43deb6fa401d9628bb513d65a8098bfab", "vout": [{"scriptPubKey": {"reqSigs": 1, "hex": "76a9140a6b825daa1b89f8e100ed8eec6d79b592500f4988ac", "addresses": ["1x6YnuBVeeE65dQRZztRWgUPwyBjHCA5g"], "asm": "OP_DUP OP_HASH160 0a6b825daa1b89f8e100ed8eec6d79b592500f49 OP_EQUALVERIFY OP_CHECKSIG", "type": "pubkeyhash"}, "value": 0.44540706, "n": 0}, {"scriptPubKey": {"reqSigs": 1, "hex": "76a91477b07d491b2c7d54aba5e42028edac69b39b184a88ac", "addresses": ["1BurqXWknEaJmaE2e6ReaWabQrk34onbsE"], "asm": "OP_DUP OP_HASH160 77b07d491b2c7d54aba5e42028edac69b39b184a OP_EQUALVERIFY OP_CHECKSIG", "type": "pubkeyhash"}, "value": 5.46e-06, "n": 1}, {"scriptPubKey": {"type": "nulldata", "hex": "6a146f6d6e69000000000000001f0000000059682f00", "asm": "OP_RETURN 6f6d6e69000000000000001f0000000059682f00"}, "value": 0.0, "n": 2}], "hex": "01000000021c0b45102261e44cc8a8a8ad3148ba6a171ccc9481abd2e8095d4ac8ff9b9ac2010000006a4730440220408517f047ca417d88cb4aecd8caaf50db19a183e1f6f16ccf057502a174641b02207286e9d1045dd20bd0517c7b641f503475102c65a89f7d5156374fbaeb4fa5ed012103fe02b06a6bfd9b5a83e0417430a3235a39a0b4c7973591ca27ac58f6474d9120ffffffff77f886499dea2c17c0b741ba6211b337c10d74fd6d40c513fd8c8743eb10c745000000006a47304402205333bedf6970e00ec47c19a1f31f63462c773ec19ffe8f85580ed4785d58d0d802207c668f0267217e1824ed08926241ef8dffb7ff1196744233fb56dd22fb402a2f012103fe02b06a6bfd9b5a83e0417430a3235a39a0b4c7973591ca27ac58f6474d9120ffffffff0322a3a702000000001976a9140a6b825daa1b89f8e100ed8eec6d79b592500f4988ac22020000000000001976a91477b07d491b2c7d54aba5e42028edac69b39b184a88ac0000000000000000166a146f6d6e69000000000000001f0000000059682f0000000000", "vin": [{"sequence": 4294967295, "scriptSig": {"hex": "4730440220408517f047ca417d88cb4aecd8caaf50db19a183e1f6f16ccf057502a174641b02207286e9d1045dd20bd0517c7b641f503475102c65a89f7d5156374fbaeb4fa5ed012103fe02b06a6bfd9b5a83e0417430a3235a39a0b4c7973591ca27ac58f6474d9120", "asm": "30440220408517f047ca417d88cb4aecd8caaf50db19a183e1f6f16ccf057502a174641b02207286e9d1045dd20bd0517c7b641f503475102c65a89f7d5156374fbaeb4fa5ed[ALL] 03fe02b06a6bfd9b5a83e0417430a3235a39a0b4c7973591ca27ac58f6474d9120"}, "vout": 1, "txid": "c29a9bffc84a5d09e8d2ab8194cc1c176aba4831ada8a8c84ce4612210450b1c"}, {"sequence": 4294967295, "scriptSig": {"hex": "47304402205333bedf6970e00ec47c19a1f31f63462c773ec19ffe8f85580ed4785d58d0d802207c668f0267217e1824ed08926241ef8dffb7ff1196744233fb56dd22fb402a2f012103fe02b06a6bfd9b5a83e0417430a3235a39a0b4c7973591ca27ac58f6474d9120", "asm": "304402205333bedf6970e00ec47c19a1f31f63462c773ec19ffe8f85580ed4785d58d0d802207c668f0267217e1824ed08926241ef8dffb7ff1196744233fb56dd22fb402a2f[ALL] 03fe02b06a6bfd9b5a83e0417430a3235a39a0b4c7973591ca27ac58f6474d9120"}, "vout": 0, "txid": "45c710eb43878cfd13c5406dfd740dc137b31162ba41b7c0172cea9d4986f877"}], "txid": "005836c57ff6933e6764ea7f232defb5e4769b501b51561f6c81245087c8e9e3", "blocktime": 1537873891, "version": 1, "confirmations": 11474, "time": 1537873891, "locktime": 0, "vsize": 403, "size": 403}