{"hash": "bd7bd78951ba088af738ae3d10cc0b4bec87925271fb4ff66e48f5e6855da313", "blockhash": "000000000000000000022b45ed06c6f4ccd3cf7fb5ba4856ebd2e58215665228", "vout": [{"scriptPubKey": {"reqSigs": 1, "hex": "76a914912d463e9dce0362199c8ab92c32855980ffc39788ac", "addresses": ["1EEdDY42Jiz6KcUEyPjuFveeWy3gZcKcXe"], "asm": "OP_DUP OP_HASH160 912d463e9dce0362199c8ab92c32855980ffc397 OP_EQUALVERIFY OP_CHECKSIG", "type": "pubkeyhash"}, "value": 0.00658, "n": 0}, {"scriptPubKey": {"reqSigs": 1, "hex": "a914627aa52932456d89054bd84f86246af3b71b93a887", "addresses": ["3Afj4stdiLG9EktGrMbm252ySonnhYaz8v"], "asm": "OP_HASH160 627aa52932456d89054bd84f86246af3b71b93a8 OP_EQUAL", "type": "scripthash"}, "value": 0.75374156, "n": 1}], "hex": "01000000000101eb7644f8a44cf40447388b8d28d4ff2201f8fdcc55f7c81488f7cfd564085e6701000000232200205fdd641234b13964b223bd85ad2a4a667ca2099df3d42a1d3b45706a8d81abf0ffffffff02500a0a00000000001976a914912d463e9dce0362199c8ab92c32855980ffc39788ac4c1e7e040000000017a914627aa52932456d89054bd84f86246af3b71b93a887040047304402207e71cb7fa5e71b83bf1acd5a2fdbe77c385d11e47cc06dd710e9b662c13c48230220393f2ba2de017aea91d12032ec0b719160a01530c387fec334149d0cad52dcf001483045022100d0366b9aa2a2f89440fd21250518522da2ea753dfa7d3dcd9b06e3571fa748650220772471c2de389119079356bb22ba6698e554018b083af22bbb7ba36277ae077c0147522103dcde3832fa56def7b4e783faad1b8af85c3cdd74a5ff4f3c7c216b1075c18da12103c70ae8ded79be1afda73b9ce5ea14a3878908ee160d66a9a717e792bb6db276952ae00000000", "vin": [{"txinwitness": ["", "304402207e71cb7fa5e71b83bf1acd5a2fdbe77c385d11e47cc06dd710e9b662c13c48230220393f2ba2de017aea91d12032ec0b719160a01530c387fec334149d0cad52dcf001", "3045022100d0366b9aa2a2f89440fd21250518522da2ea753dfa7d3dcd9b06e3571fa748650220772471c2de389119079356bb22ba6698e554018b083af22bbb7ba36277ae077c01", "522103dcde3832fa56def7b4e783faad1b8af85c3cdd74a5ff4f3c7c216b1075c18da12103c70ae8ded79be1afda73b9ce5ea14a3878908ee160d66a9a717e792bb6db276952ae"], "sequence": 4294967295, "scriptSig": {"hex": "2200205fdd641234b13964b223bd85ad2a4a667ca2099df3d42a1d3b45706a8d81abf0", "asm": "00205fdd641234b13964b223bd85ad2a4a667ca2099df3d42a1d3b45706a8d81abf0"}, "vout": 1, "txid": "675e0864d5cff78814c8f755ccfdf80122ffd4288d8b384704f44ca4f84476eb"}], "txid": "005a9125d86c78b5f4312e8d899d8de79996f9f99a10843bd47f914f6ef83dba", "blocktime": 1537869901, "version": 1, "confirmations": 11523, "time": 1537869901, "locktime": 0, "vsize": 208, "size": 373}