{"hash": "005aff8f634bfd5a3463ba3126c63643ab17203705ed5f8e293c95a938834848", "blockhash": "0000000000000000000baef3f32e3676a92c3b2e5da21b426e4f302fc371ce76", "vout": [{"scriptPubKey": {"reqSigs": 1, "hex": "76a9143eb5918cc54ed9e02d96036e6ef61dcc5b4e464788ac", "addresses": ["16iaQVsbxutysgLXLvwGLYSDxvBPXLLyCj"], "asm": "OP_DUP OP_HASH160 3eb5918cc54ed9e02d96036e6ef61dcc5b4e4647 OP_EQUALVERIFY OP_CHECKSIG", "type": "pubkeyhash"}, "value": 0.000448, "n": 0}, {"scriptPubKey": {"type": "nulldata", "hex": "6a4c500000782200017cdcad2d95c4798fc698134b019d6ddc0f1b8ff117702940d64fa54d8eb21b66e7736205396f49b98d72f7e7af165baa1d97061451c8c779c6dfbc9a9526289ac0f6612cd74e33776ee4", "asm": "OP_RETURN 0000782200017cdcad2d95c4798fc698134b019d6ddc0f1b8ff117702940d64fa54d8eb21b66e7736205396f49b98d72f7e7af165baa1d97061451c8c779c6dfbc9a9526289ac0f6612cd74e33776ee4"}, "value": 0.0, "n": 1}], "hex": "010000000129fe247a6b97756951e3a6daad20fe44160c2313294a2729e5355ae3c8abf344000000006a4730440220716c62aca2d3f2cda6995818634ba61bc78bf5871a23fa50ad26186ecdb10b310220367894340deeb612ea74dec2ffcad7f4a5c0eaa6d410c7ade43c0f1f1adae9d2012102598212ea685187d21f3a842e2ced780e712698c0a07219a98b2f5e9ade8d3f91ffffffff0200af0000000000001976a9143eb5918cc54ed9e02d96036e6ef61dcc5b4e464788ac0000000000000000536a4c500000782200017cdcad2d95c4798fc698134b019d6ddc0f1b8ff117702940d64fa54d8eb21b66e7736205396f49b98d72f7e7af165baa1d97061451c8c779c6dfbc9a9526289ac0f6612cd74e33776ee400000000", "vin": [{"sequence": 4294967295, "scriptSig": {"hex": "4730440220716c62aca2d3f2cda6995818634ba61bc78bf5871a23fa50ad26186ecdb10b310220367894340deeb612ea74dec2ffcad7f4a5c0eaa6d410c7ade43c0f1f1adae9d2012102598212ea685187d21f3a842e2ced780e712698c0a07219a98b2f5e9ade8d3f91", "asm": "30440220716c62aca2d3f2cda6995818634ba61bc78bf5871a23fa50ad26186ecdb10b310220367894340deeb612ea74dec2ffcad7f4a5c0eaa6d410c7ade43c0f1f1adae9d2[ALL] 02598212ea685187d21f3a842e2ced780e712698c0a07219a98b2f5e9ade8d3f91"}, "vout": 0, "txid": "44f3abc8e35a35e529274a2913230c1644fe20addaa6e3516975976b7a24fe29"}], "txid": "005aff8f634bfd5a3463ba3126c63643ab17203705ed5f8e293c95a938834848", "blocktime": 1537876114, "version": 1, "confirmations": 11460, "time": 1537876114, "locktime": 0, "vsize": 283, "size": 283}