{"hash": "005dc7bb3c7db647342117bda2c2dee7432038189523285a2f7bfab54a57c547", "blockhash": "0000000000000000001f76057863aec43deb6fa401d9628bb513d65a8098bfab", "vout": [{"scriptPubKey": {"reqSigs": 1, "hex": "76a914a529ab9e44207552b37ec4d83b0a88f56502b73588ac", "addresses": ["1G4JQxjvpdt9bEqjm1tmge9PRESkHUxGwv"], "asm": "OP_DUP OP_HASH160 a529ab9e44207552b37ec4d83b0a88f56502b735 OP_EQUALVERIFY OP_CHECKSIG", "type": "pubkeyhash"}, "value": 0.14999322, "n": 0}, {"scriptPubKey": {"reqSigs": 1, "hex": "a914da5252d597140e5844e5918007538f5b669212af87", "addresses": ["3MbPrJdfYzY2hwXvbzuYy3CFMbXQnNQ63c"], "asm": "OP_HASH160 da5252d597140e5844e5918007538f5b669212af OP_EQUAL", "type": "scripthash"}, "value": 0.2, "n": 1}], "hex": "0100000001d0d4aad313a91aa9e9c56564abca392a4bfc54bd714fa718fb71f1081bf92e19010000006a47304402203da19e52412c78c1d51c7f154ad3734c19ceddcf1f4b9aabb75fc9c8058bc80c022051be02f220c2204f1c0ac24b6ad204e53354e1dfed7b5ba5cb6ad3d2eb450a97012103b7d8f8f4e28ea51551100a3d3d19ef00ad54489043f75a7df7de98375ad56065ffffffff021adfe400000000001976a914a529ab9e44207552b37ec4d83b0a88f56502b73588ac002d31010000000017a914da5252d597140e5844e5918007538f5b669212af8700000000", "vin": [{"sequence": 4294967295, "scriptSig": {"hex": "47304402203da19e52412c78c1d51c7f154ad3734c19ceddcf1f4b9aabb75fc9c8058bc80c022051be02f220c2204f1c0ac24b6ad204e53354e1dfed7b5ba5cb6ad3d2eb450a97012103b7d8f8f4e28ea51551100a3d3d19ef00ad54489043f75a7df7de98375ad56065", "asm": "304402203da19e52412c78c1d51c7f154ad3734c19ceddcf1f4b9aabb75fc9c8058bc80c022051be02f220c2204f1c0ac24b6ad204e53354e1dfed7b5ba5cb6ad3d2eb450a97[ALL] 03b7d8f8f4e28ea51551100a3d3d19ef00ad54489043f75a7df7de98375ad56065"}, "vout": 1, "txid": "192ef91b08f171fb18a74f71bd54fc4b2a39caab6465c5e9a91aa913d3aad4d0"}], "txid": "005dc7bb3c7db647342117bda2c2dee7432038189523285a2f7bfab54a57c547", "blocktime": 1537873891, "version": 1, "confirmations": 11478, "time": 1537873891, "locktime": 0, "vsize": 223, "size": 223}