{"hash": "006706ebb3c4ef1eb1a57341b766c49cc728c09a362f17153e3dc86409f944cf", "blockhash": "0000000000000000000e13cef7c366c0283d82e591d1acd082e914b08063cdf1", "vout": [{"scriptPubKey": {"reqSigs": 1, "hex": "76a9145276ee0fec20cffaec60bc79458ae5eb978c0a4f88ac", "addresses": ["18X2t8LeSSPPhhBDsqJdzpvdsEXAfrMStQ"], "asm": "OP_DUP OP_HASH160 5276ee0fec20cffaec60bc79458ae5eb978c0a4f OP_EQUALVERIFY OP_CHECKSIG", "type": "pubkeyhash"}, "value": 0.15619606, "n": 0}, {"scriptPubKey": {"reqSigs": 1, "hex": "76a914f621eaf922fe084cfb434845e8ec91b76dc538a188ac", "addresses": ["1PSRrqzsmz8KaS2HRTdTvFzJcwttjGxq53"], "asm": "OP_DUP OP_HASH160 f621eaf922fe084cfb434845e8ec91b76dc538a1 OP_EQUALVERIFY OP_CHECKSIG", "type": "pubkeyhash"}, "value": 0.4058013, "n": 1}], "hex": "0100000001959aa0f6489096769329e2f74ca7154edd1963ed0f5240c73447135445007e1d010000006a473044022052fd92ad7603129d1fc5f024e5a148fc2a6de73a8cb8eeac5a381fd746f6828902206b72eccd37484909c1ee09c39a41676e61d2d0091b43cd8cad4dfbc27b5db40a01210318014f89d6bd8ca710eda2c0a84c8fadeda1e321c469eb586817ba92eb3f99d0ffffffff021656ee00000000001976a9145276ee0fec20cffaec60bc79458ae5eb978c0a4f88ac22346b02000000001976a914f621eaf922fe084cfb434845e8ec91b76dc538a188ac00000000", "vin": [{"sequence": 4294967295, "scriptSig": {"hex": "473044022052fd92ad7603129d1fc5f024e5a148fc2a6de73a8cb8eeac5a381fd746f6828902206b72eccd37484909c1ee09c39a41676e61d2d0091b43cd8cad4dfbc27b5db40a01210318014f89d6bd8ca710eda2c0a84c8fadeda1e321c469eb586817ba92eb3f99d0", "asm": "3044022052fd92ad7603129d1fc5f024e5a148fc2a6de73a8cb8eeac5a381fd746f6828902206b72eccd37484909c1ee09c39a41676e61d2d0091b43cd8cad4dfbc27b5db40a[ALL] 0318014f89d6bd8ca710eda2c0a84c8fadeda1e321c469eb586817ba92eb3f99d0"}, "vout": 1, "txid": "1d7e004554134734c740520fed6319dd4e15a74cf7e2299376969048f6a09a95"}], "txid": "006706ebb3c4ef1eb1a57341b766c49cc728c09a362f17153e3dc86409f944cf", "blocktime": 1537871767, "version": 1, "confirmations": 11493, "time": 1537871767, "locktime": 0, "vsize": 225, "size": 225}