{"hash": "006c5b3b83f26de65ad77be4be41e1eb088c883fe2613686cea74765854b4582", "blockhash": "0000000000000000001cda96e906b7601b7a6fb1a3b62bca570a9e5d8f4b3de1", "vout": [{"scriptPubKey": {"reqSigs": 1, "hex": "a9144e3521f5bff98214faa48afe11a2cde1e86362ba87", "addresses": ["38pYHEBtiV5wcgh1Ku4ZcTyPgZEzNUpkRj"], "asm": "OP_HASH160 4e3521f5bff98214faa48afe11a2cde1e86362ba OP_EQUAL", "type": "scripthash"}, "value": 0.054693, "n": 0}, {"scriptPubKey": {"reqSigs": 1, "hex": "76a91465b35581e5b65a5c9300b6f241628f9e0599194288ac", "addresses": ["1AGk5inySuBhTsRc3cTQwTRp7g17RKJLss"], "asm": "OP_DUP OP_HASH160 65b35581e5b65a5c9300b6f241628f9e05991942 OP_EQUALVERIFY OP_CHECKSIG", "type": "pubkeyhash"}, "value": 1.09400242, "n": 1}], "hex": "01000000019ab2f8effb5d0014ca8608b6413aa8e8eb557be0e791057b5fc013c25b834732010000006a47304402202efce69ece3216d11c26f6a6bb74c0c028a899d0a90d762d8cfe6b92388b133f02205a596fa43e157a9772b4f069aeedc55075f56ca059c846bc8947de2a7d37941c012103c5ee8957d70b871e5b69659373d09a3999fa50c77c773df5d3cfe135eadd1193ffffffff02747453000000000017a9144e3521f5bff98214faa48afe11a2cde1e86362ba87b2508506000000001976a91465b35581e5b65a5c9300b6f241628f9e0599194288ac00000000", "vin": [{"sequence": 4294967295, "scriptSig": {"hex": "47304402202efce69ece3216d11c26f6a6bb74c0c028a899d0a90d762d8cfe6b92388b133f02205a596fa43e157a9772b4f069aeedc55075f56ca059c846bc8947de2a7d37941c012103c5ee8957d70b871e5b69659373d09a3999fa50c77c773df5d3cfe135eadd1193", "asm": "304402202efce69ece3216d11c26f6a6bb74c0c028a899d0a90d762d8cfe6b92388b133f02205a596fa43e157a9772b4f069aeedc55075f56ca059c846bc8947de2a7d37941c[ALL] 03c5ee8957d70b871e5b69659373d09a3999fa50c77c773df5d3cfe135eadd1193"}, "vout": 1, "txid": "3247835bc213c05f7b0591e7e07b55ebe8a83a41b60886ca14005dfbeff8b29a"}], "txid": "006c5b3b83f26de65ad77be4be41e1eb088c883fe2613686cea74765854b4582", "blocktime": 1537873282, "version": 1, "confirmations": 11484, "time": 1537873282, "locktime": 0, "vsize": 223, "size": 223}