{"hash": "006c3c6706df7b239f8e710ba4286e8acf041dd9c525dd23a4faa3a35e449631", "blockhash": "0000000000000000001cda96e906b7601b7a6fb1a3b62bca570a9e5d8f4b3de1", "vout": [{"scriptPubKey": {"reqSigs": 1, "hex": "a91441a429e3947d91201be3ee8effdbc7fd8e47669187", "addresses": ["37g6WJSw69JLSkcm9skT5ik19ihZgVoFsk"], "asm": "OP_HASH160 41a429e3947d91201be3ee8effdbc7fd8e476691 OP_EQUAL", "type": "scripthash"}, "value": 0.01148664, "n": 0}], "hex": "01000000015e400a5758c3b76afecd2023082fbfc17d07bcd73e7298b1b3fefbdafd44ee61870100006a473044022025e965708890d9c1f0ad205f5ceea2b1a99069f44f6bf8b4e264cb7b64bc5440022013ff3ce1a21b57cbe79df518d20a5084c4219ffd07c0e2e387b540958b8c32ce01210319d46081d91ba3830809109ce5111cefa05214c5231074285ebabcf3005679e4ffffffff01f88611000000000017a91441a429e3947d91201be3ee8effdbc7fd8e4766918700000000", "vin": [{"sequence": 4294967295, "scriptSig": {"hex": "473044022025e965708890d9c1f0ad205f5ceea2b1a99069f44f6bf8b4e264cb7b64bc5440022013ff3ce1a21b57cbe79df518d20a5084c4219ffd07c0e2e387b540958b8c32ce01210319d46081d91ba3830809109ce5111cefa05214c5231074285ebabcf3005679e4", "asm": "3044022025e965708890d9c1f0ad205f5ceea2b1a99069f44f6bf8b4e264cb7b64bc5440022013ff3ce1a21b57cbe79df518d20a5084c4219ffd07c0e2e387b540958b8c32ce[ALL] 0319d46081d91ba3830809109ce5111cefa05214c5231074285ebabcf3005679e4"}, "vout": 391, "txid": "61ee44fddafbfeb3b198723ed7bc077dc1bf2f082320cdfe6ab7c358570a405e"}], "txid": "006c3c6706df7b239f8e710ba4286e8acf041dd9c525dd23a4faa3a35e449631", "blocktime": 1537873282, "version": 1, "confirmations": 11483, "time": 1537873282, "locktime": 0, "vsize": 189, "size": 189}