{"hash": "0078da784d4b7015d5ee4ae98ac6d4321fe24532176d857f111aae4119430d11", "blockhash": "00000000000000000017f5eb5941039fbcee6240d03bc1f2f8e35350df66a1d8", "vout": [{"scriptPubKey": {"reqSigs": 1, "hex": "a914f42fa3b8b94034aabfbfc793af34c9a238f5978387", "addresses": ["3Px9sQMWRZhbJnSBjqFyonsBsmnC9etGFw"], "asm": "OP_HASH160 f42fa3b8b94034aabfbfc793af34c9a238f59783 OP_EQUAL", "type": "scripthash"}, "value": 0.00023452, "n": 0}, {"scriptPubKey": {"reqSigs": 1, "hex": "76a9148806fcf4749dd8a26d156385ef5f6f3bb3f6349a88ac", "addresses": ["1DQFGdbexfeWpmUptTEJT6uGhvveTjDFKV"], "asm": "OP_DUP OP_HASH160 8806fcf4749dd8a26d156385ef5f6f3bb3f6349a OP_EQUALVERIFY OP_CHECKSIG", "type": "pubkeyhash"}, "value": 0.00190733, "n": 1}], "hex": "0100000001eaff69795fdaa8bc94bb88ecee659052cc7ab17f1abe5e687ef7936630625dd4000000006b483045022100c5e587e65f9370155e20def35a47d4b2fc9e7442ccdb112c36120305ce10305f02203a3c0a787072de25530e9958d75cb4871e60acb7fc8e7f7c7e76c7ec2639a3bf012102bdd32437b52a3a15f3c78261e344acfd8e82167231226820fb8b88b40be0a694ffffffff029c5b00000000000017a914f42fa3b8b94034aabfbfc793af34c9a238f59783870de90200000000001976a9148806fcf4749dd8a26d156385ef5f6f3bb3f6349a88ac00000000", "vin": [{"sequence": 4294967295, "scriptSig": {"hex": "483045022100c5e587e65f9370155e20def35a47d4b2fc9e7442ccdb112c36120305ce10305f02203a3c0a787072de25530e9958d75cb4871e60acb7fc8e7f7c7e76c7ec2639a3bf012102bdd32437b52a3a15f3c78261e344acfd8e82167231226820fb8b88b40be0a694", "asm": "3045022100c5e587e65f9370155e20def35a47d4b2fc9e7442ccdb112c36120305ce10305f02203a3c0a787072de25530e9958d75cb4871e60acb7fc8e7f7c7e76c7ec2639a3bf[ALL] 02bdd32437b52a3a15f3c78261e344acfd8e82167231226820fb8b88b40be0a694"}, "vout": 0, "txid": "d45d62306693f77e685ebe1a7fb17acc529065eeec88bb94bca8da5f7969ffea"}], "txid": "0078da784d4b7015d5ee4ae98ac6d4321fe24532176d857f111aae4119430d11", "blocktime": 1537874412, "version": 1, "confirmations": 11468, "time": 1537874412, "locktime": 0, "vsize": 224, "size": 224}