{"hash": "b23ff93d57cd4b261fe09e5bace353fdcf8971a42fc1e7112cae064e2245b872", "blockhash": "0000000000000000000baef3f32e3676a92c3b2e5da21b426e4f302fc371ce76", "vout": [{"scriptPubKey": {"reqSigs": 1, "hex": "a914057ef1f5dd85e8ea32e5a39b8c177029f873b21687", "addresses": ["32C5NomMMsPJKs6ygggTsKkGJC2Aw49fAh"], "asm": "OP_HASH160 057ef1f5dd85e8ea32e5a39b8c177029f873b216 OP_EQUAL", "type": "scripthash"}, "value": 0.00539553, "n": 0}, {"scriptPubKey": {"reqSigs": 1, "hex": "a914231e199ff349f2b6f3ea25f141f529ab564e611987", "addresses": ["34thdecDQSzoaqSpoTAvyNxQccH1LK8GEa"], "asm": "OP_HASH160 231e199ff349f2b6f3ea25f141f529ab564e6119 OP_EQUAL", "type": "scripthash"}, "value": 0.12523871, "n": 1}], "hex": "01000000000101a24a52ca5e83e0352f08359ac05084e77a9aa33253fca7fcdb2758827443f0530100000023220020cdafa10aab1aaa124a6118fc734c6de668c825386795794a90e9019bdbf5bb83ffffffff02a13b08000000000017a914057ef1f5dd85e8ea32e5a39b8c177029f873b216875f19bf000000000017a914231e199ff349f2b6f3ea25f141f529ab564e611987040047304402204e07f096ed3fbfcb6e85207a05b570713297093d08008a0556d0e60f878dad3a02207feb36a51e9574e24f548a88b932c07197021f927d1e24ef76e27bfc5532354601473044022062cccdfe8f752331e3d5836ae67f1cfb27b262bc06a8bc166c521caaa570aa6902202846c1974a4bf6ddf336f8a6176c5f165d20f93600bd6d196b144cf31f44833e01475221024876e76f0163eba3ea103501c302228e545e5be1f7822f240009c14774c01785210277a81d678c83107207ed37b2d105224aef4b8a021163b4f29221fa69aff0927d52ae00000000", "vin": [{"txinwitness": ["", "304402204e07f096ed3fbfcb6e85207a05b570713297093d08008a0556d0e60f878dad3a02207feb36a51e9574e24f548a88b932c07197021f927d1e24ef76e27bfc5532354601", "3044022062cccdfe8f752331e3d5836ae67f1cfb27b262bc06a8bc166c521caaa570aa6902202846c1974a4bf6ddf336f8a6176c5f165d20f93600bd6d196b144cf31f44833e01", "5221024876e76f0163eba3ea103501c302228e545e5be1f7822f240009c14774c01785210277a81d678c83107207ed37b2d105224aef4b8a021163b4f29221fa69aff0927d52ae"], "sequence": 4294967295, "scriptSig": {"hex": "220020cdafa10aab1aaa124a6118fc734c6de668c825386795794a90e9019bdbf5bb83", "asm": "0020cdafa10aab1aaa124a6118fc734c6de668c825386795794a90e9019bdbf5bb83"}, "vout": 1, "txid": "53f04374825827dbfca7fc5332a39a7ae78450c09a35082f35e0835eca524aa2"}], "txid": "007a7bff77ade05453f7d5a18ef504fbff01baa482ece4cf6a337e884c8ed62a", "blocktime": 1537876114, "version": 1, "confirmations": 11460, "time": 1537876114, "locktime": 0, "vsize": 205, "size": 370}