{"hash": "0080d7361d81857769a801d043a8edcbdc4b55155b894dec2e7bf199ab8bd902", "blockhash": "0000000000000000001e0dab787dd257d1dbfcb92a98c2207d5e1078be1f4165", "vout": [{"scriptPubKey": {"type": "nulldata", "hex": "6a146f6d6e69000000000000001f00000012aa811e80", "asm": "OP_RETURN 6f6d6e69000000000000001f00000012aa811e80"}, "value": 0.0, "n": 0}, {"scriptPubKey": {"reqSigs": 1, "hex": "76a914d5143fbb1df08ea9fb64e91ad4604f877330270a88ac", "addresses": ["1LRfBnL28Z9ajUZLG5tPhaA88zesGWQEzA"], "asm": "OP_DUP OP_HASH160 d5143fbb1df08ea9fb64e91ad4604f877330270a OP_EQUALVERIFY OP_CHECKSIG", "type": "pubkeyhash"}, "value": 5.46e-06, "n": 1}, {"scriptPubKey": {"reqSigs": 1, "hex": "76a914a25dec4d0011064ef106a983c39c7a540699f22088ac", "addresses": ["1FoWyxwPXuj4C6abqwhjDWdz6D4PZgYRjA"], "asm": "OP_DUP OP_HASH160 a25dec4d0011064ef106a983c39c7a540699f220 OP_EQUALVERIFY OP_CHECKSIG", "type": "pubkeyhash"}, "value": 0.01990376, "n": 2}], "hex": "01000000018ab10be6ccf96eaf06950b7b1152ed84fbba7851b20af89bb8308a20a81041ac010000006a47304402200f6b63632bf3b5cba08f829219130f1098d7df426a9cb826b06d39278b61f39702207bfb5f1ce96f5120661ccba4986a05a3671b65a9546780abd4ad7d32b3437ecd012103da5bac7b36d5aa38f531c6b9601e21bb598a4b6716ebed38b009a55dabde9440feffffff030000000000000000166a146f6d6e69000000000000001f00000012aa811e8022020000000000001976a914d5143fbb1df08ea9fb64e91ad4604f877330270a88ace85e1e00000000001976a914a25dec4d0011064ef106a983c39c7a540699f22088ac12490800", "vin": [{"sequence": 4294967294, "scriptSig": {"hex": "47304402200f6b63632bf3b5cba08f829219130f1098d7df426a9cb826b06d39278b61f39702207bfb5f1ce96f5120661ccba4986a05a3671b65a9546780abd4ad7d32b3437ecd012103da5bac7b36d5aa38f531c6b9601e21bb598a4b6716ebed38b009a55dabde9440", "asm": "304402200f6b63632bf3b5cba08f829219130f1098d7df426a9cb826b06d39278b61f39702207bfb5f1ce96f5120661ccba4986a05a3671b65a9546780abd4ad7d32b3437ecd[ALL] 03da5bac7b36d5aa38f531c6b9601e21bb598a4b6716ebed38b009a55dabde9440"}, "vout": 1, "txid": "ac4110a8208a30b89bf80ab25178bafb84ed52117b0b9506af6ef9cce60bb18a"}], "txid": "0080d7361d81857769a801d043a8edcbdc4b55155b894dec2e7bf199ab8bd902", "blocktime": 1537872475, "version": 1, "confirmations": 11486, "time": 1537872475, "locktime": 542994, "vsize": 256, "size": 256}