{"hash": "00871ef26b14805a8a6c2e49f416e08ef6fa347c3b93c85662562133ba7c4494", "blockhash": "0000000000000000000e13cef7c366c0283d82e591d1acd082e914b08063cdf1", "vout": [{"scriptPubKey": {"reqSigs": 1, "hex": "a91437488f098fa963f781496be4dea7c888dc776ec287", "addresses": ["36jL1ZfgeoSKr1j16scVAmJrmEHp6gLKvk"], "asm": "OP_HASH160 37488f098fa963f781496be4dea7c888dc776ec2 OP_EQUAL", "type": "scripthash"}, "value": 4.116e-05, "n": 0}, {"scriptPubKey": {"reqSigs": 1, "hex": "a91442193a0c007583dbe7aae1205b33a51bb2d1981e87", "addresses": ["37iWjzMBu9FqUWzVhKAPBvV7G2sS1vxVgv"], "asm": "OP_HASH160 42193a0c007583dbe7aae1205b33a51bb2d1981e OP_EQUAL", "type": "scripthash"}, "value": 6.598e-05, "n": 1}, {"scriptPubKey": {"reqSigs": 1, "hex": "76a914c7afc6a3517a95d3f67a9ec0c9a8d06ada9ab7e188ac", "addresses": ["1KCr3JQ2XStMDXNAy4yEzVrZvAijJaYhtm"], "asm": "OP_DUP OP_HASH160 c7afc6a3517a95d3f67a9ec0c9a8d06ada9ab7e1 OP_EQUALVERIFY OP_CHECKSIG", "type": "pubkeyhash"}, "value": 0.00137931, "n": 2}], "hex": "01000000027102b8888bae97a1914aff455c98367567411fac0149e1e4249fb45c23d13d9001000000fdfd000047304402207c946d0fbfa9b80bf520931f64e6e0809545330f80aeb0c62c361cfbb1a1674202204657eaf0bd6e018e6102d0493a5199f9976c11d9c14fd59aee0086a31d2c819701483045022100d74aa9c2beda9d711a791c94fc3240ee5a16eeebbe49bd14355b97738b31c8b702200d596bac47fddfa70bd46d2092c664ccf326adf6d6cc0e1e17608f278235c46a014c6952210245fbd88a33d39fab88c486638708b69e276140bc20d304bd8f4fca80b74615092102d242b8ba61c73f10c9a434c9f4e57232cc359f77a0e3d3585afada43970f68342103648abc039fbfe0ea9c63d5e97f4acb9355a3cd3e5096f2bf3ce7815c94e0222353ae330300007102b8888bae97a1914aff455c98367567411fac0149e1e4249fb45c23d13d90020000006b483045022100f124082abe128fc376e6fa3f3345312a41e5d89ee46412380bd8fe96859bc8fc022042cfcd9b6d6b211756c18eb06a4b736c93af82049270293df956cb007096bdce01210399420833d52ee09f7638ae159b508e40a4cd3e9ff3b48ef49c065f2156cadfc8ffffffff03141000000000000017a91437488f098fa963f781496be4dea7c888dc776ec287c61900000000000017a91442193a0c007583dbe7aae1205b33a51bb2d1981e87cb1a0200000000001976a914c7afc6a3517a95d3f67a9ec0c9a8d06ada9ab7e188ac00000000", "vin": [{"sequence": 819, "scriptSig": {"hex": "0047304402207c946d0fbfa9b80bf520931f64e6e0809545330f80aeb0c62c361cfbb1a1674202204657eaf0bd6e018e6102d0493a5199f9976c11d9c14fd59aee0086a31d2c819701483045022100d74aa9c2beda9d711a791c94fc3240ee5a16eeebbe49bd14355b97738b31c8b702200d596bac47fddfa70bd46d2092c664ccf326adf6d6cc0e1e17608f278235c46a014c6952210245fbd88a33d39fab88c486638708b69e276140bc20d304bd8f4fca80b74615092102d242b8ba61c73f10c9a434c9f4e57232cc359f77a0e3d3585afada43970f68342103648abc039fbfe0ea9c63d5e97f4acb9355a3cd3e5096f2bf3ce7815c94e0222353ae", "asm": "0 304402207c946d0fbfa9b80bf520931f64e6e0809545330f80aeb0c62c361cfbb1a1674202204657eaf0bd6e018e6102d0493a5199f9976c11d9c14fd59aee0086a31d2c8197[ALL] 3045022100d74aa9c2beda9d711a791c94fc3240ee5a16eeebbe49bd14355b97738b31c8b702200d596bac47fddfa70bd46d2092c664ccf326adf6d6cc0e1e17608f278235c46a[ALL] 52210245fbd88a33d39fab88c486638708b69e276140bc20d304bd8f4fca80b74615092102d242b8ba61c73f10c9a434c9f4e57232cc359f77a0e3d3585afada43970f68342103648abc039fbfe0ea9c63d5e97f4acb9355a3cd3e5096f2bf3ce7815c94e0222353ae"}, "vout": 1, "txid": "903dd1235cb49f24e4e14901ac1f41677536985c45ff4a91a197ae8b88b80271"}, {"sequence": 4294967295, "scriptSig": {"hex": "483045022100f124082abe128fc376e6fa3f3345312a41e5d89ee46412380bd8fe96859bc8fc022042cfcd9b6d6b211756c18eb06a4b736c93af82049270293df956cb007096bdce01210399420833d52ee09f7638ae159b508e40a4cd3e9ff3b48ef49c065f2156cadfc8", "asm": "3045022100f124082abe128fc376e6fa3f3345312a41e5d89ee46412380bd8fe96859bc8fc022042cfcd9b6d6b211756c18eb06a4b736c93af82049270293df956cb007096bdce[ALL] 0399420833d52ee09f7638ae159b508e40a4cd3e9ff3b48ef49c065f2156cadfc8"}, "vout": 2, "txid": "903dd1235cb49f24e4e14901ac1f41677536985c45ff4a91a197ae8b88b80271"}], "txid": "00871ef26b14805a8a6c2e49f416e08ef6fa347c3b93c85662562133ba7c4494", "blocktime": 1537871767, "version": 1, "confirmations": 11491, "time": 1537871767, "locktime": 0, "vsize": 552, "size": 552}