{"hash": "a42e23bc2f60b1e84c1ac79fd6954c3505d9a385e6bff633fe8101dc9be57357", "blockhash": "0000000000000000000baef3f32e3676a92c3b2e5da21b426e4f302fc371ce76", "vout": [{"scriptPubKey": {"reqSigs": 1, "hex": "a9142f6869cb8dd066486740793dbfc42a853b7778cd87", "addresses": ["361gmKYB49Hn7KRpu2Vmgb5XnARMb2VjcD"], "asm": "OP_HASH160 2f6869cb8dd066486740793dbfc42a853b7778cd OP_EQUAL", "type": "scripthash"}, "value": 0.01178115, "n": 0}, {"scriptPubKey": {"reqSigs": 1, "hex": "76a9142badcd5608d479f7de6cee6c1b6aa9c319bae18d88ac", "addresses": ["14yxGELQj7AVoPbqAQQwo85xCVHRsWcvzF"], "asm": "OP_DUP OP_HASH160 2badcd5608d479f7de6cee6c1b6aa9c319bae18d OP_EQUALVERIFY OP_CHECKSIG", "type": "pubkeyhash"}, "value": 0.01174212, "n": 1}, {"scriptPubKey": {"reqSigs": 1, "hex": "76a9144910a70982dde1a08975c1a159b1e0024b336f6188ac", "addresses": ["17fLH3Fdd15XcCkoTRPioTWhh2F4kcLqWk"], "asm": "OP_DUP OP_HASH160 4910a70982dde1a08975c1a159b1e0024b336f61 OP_EQUALVERIFY OP_CHECKSIG", "type": "pubkeyhash"}, "value": 0.01146699, "n": 2}, {"scriptPubKey": {"reqSigs": 1, "hex": "a9141d5f8ce508b083b739de001d0fb26926941c644787", "addresses": ["34NKz4buXhYETYHMripfaRxogXvD5hdoXE"], "asm": "OP_HASH160 1d5f8ce508b083b739de001d0fb26926941c6447 OP_EQUAL", "type": "scripthash"}, "value": 0.0017, "n": 3}, {"scriptPubKey": {"reqSigs": 1, "hex": "a91457d7b6610d630139dae2c5abd911309978deadcb87", "addresses": ["39hV8CEqzc3y7eRcAac2vpos3pgchytSkY"], "asm": "OP_HASH160 57d7b6610d630139dae2c5abd911309978deadcb OP_EQUAL", "type": "scripthash"}, "value": 0.015, "n": 4}, {"scriptPubKey": {"reqSigs": 1, "hex": "76a9147b8935aad384cc2f22538e0e924f41947d8ad66288ac", "addresses": ["1CGCV66js1VcrZnvLZ9KosxdKGaZyPUs5y"], "asm": "OP_DUP OP_HASH160 7b8935aad384cc2f22538e0e924f41947d8ad662 OP_EQUALVERIFY OP_CHECKSIG", "type": "pubkeyhash"}, "value": 0.00721958, "n": 5}, {"scriptPubKey": {"reqSigs": 1, "hex": "76a914fbac43e7cadd7641ebcaa5482feb060f5664b3f488ac", "addresses": ["1PwiyMFozA3Ksvd4XA1j9d7wwvDkrUar22"], "asm": "OP_DUP OP_HASH160 fbac43e7cadd7641ebcaa5482feb060f5664b3f4 OP_EQUALVERIFY OP_CHECKSIG", "type": "pubkeyhash"}, "value": 0.00664807, "n": 6}, {"scriptPubKey": {"reqSigs": 1, "hex": "a914298b2ace55ef30d9d8375807243aae254168967887", "addresses": ["35UgLv68V6ZmMw2rNdfyo31MBHh648FnZX"], "asm": "OP_HASH160 298b2ace55ef30d9d8375807243aae2541689678 OP_EQUAL", "type": "scripthash"}, "value": 0.00234572, "n": 7}, {"scriptPubKey": {"reqSigs": 1, "hex": "a914226c50d08beea63bcd89fbf65c35d04da81a3fa087", "addresses": ["34q2eyJTUuZtnZKqzBT1HUsW2qVsBAr7kL"], "asm": "OP_HASH160 226c50d08beea63bcd89fbf65c35d04da81a3fa0 OP_EQUAL", "type": "scripthash"}, "value": 0.03132567, "n": 8}, {"scriptPubKey": {"reqSigs": 1, "hex": "a914048538c644f876c733450f710db732656368e10f87", "addresses": ["326vDir5aUC5Xauq2oMRbWvNfh2GVVukrP"], "asm": "OP_HASH160 048538c644f876c733450f710db732656368e10f OP_EQUAL", "type": "scripthash"}, "value": 0.02025326, "n": 9}, {"scriptPubKey": {"reqSigs": 1, "hex": "a914ec973869b0722b8c50f243b2dc2bd269dc8e3d1f87", "addresses": ["3PFzYnpGze3PCcEzRp2dzQKB6UHztfiPWY"], "asm": "OP_HASH160 ec973869b0722b8c50f243b2dc2bd269dc8e3d1f OP_EQUAL", "type": "scripthash"}, "value": 0.1825, "n": 10}, {"scriptPubKey": {"reqSigs": 1, "hex": "a9149525114470eb4149bb17499c738ef71ff3fb7af187", "addresses": ["3FHd1coZ9UVWLsAmVbrwXyusTKJFZu47Mu"], "asm": "OP_HASH160 9525114470eb4149bb17499c738ef71ff3fb7af1 OP_EQUAL", "type": "scripthash"}, "value": 0.00191043, "n": 11}, {"scriptPubKey": {"reqSigs": 1, "hex": "76a9140f15daec07e5e42bb17d4344e874bb5a0c46cf1b88ac", "addresses": ["12NmKQFYecdz9o6WSnoNgcNo6XXA74CQoM"], "asm": "OP_DUP OP_HASH160 0f15daec07e5e42bb17d4344e874bb5a0c46cf1b OP_EQUALVERIFY OP_CHECKSIG", "type": "pubkeyhash"}, "value": 0.009, "n": 12}, {"scriptPubKey": {"reqSigs": 1, "hex": "a914c2f29f6343082815fa7c38f1ff14fc298090150e87", "addresses": ["3KTofUQAZnq8TmtfMRobMyonH5aJNpRBhG"], "asm": "OP_HASH160 c2f29f6343082815fa7c38f1ff14fc298090150e OP_EQUAL", "type": "scripthash"}, "value": 0.0153814, "n": 13}, {"scriptPubKey": {"reqSigs": 1, "hex": "76a9145a7081c27cd19fd83bc731e3079b9df0de03065b88ac", "addresses": ["19FCbP1ESHWfL9QBmfn3REhkNAAnLKyTcL"], "asm": "OP_DUP OP_HASH160 5a7081c27cd19fd83bc731e3079b9df0de03065b OP_EQUALVERIFY OP_CHECKSIG", "type": "pubkeyhash"}, "value": 0.0051, "n": 14}, {"scriptPubKey": {"reqSigs": 1, "hex": "a914b76716f19da3bfe54c2c7fb8b0e2e67ab482d1dc87", "addresses": ["3JQm5SZ5VbQ6qAoamnY1pvwm2CschobAgj"], "asm": "OP_HASH160 b76716f19da3bfe54c2c7fb8b0e2e67ab482d1dc OP_EQUAL", "type": "scripthash"}, "value": 0.06370254, "n": 15}, {"scriptPubKey": {"reqSigs": 1, "hex": "a914207598ccc794acfde6531a37410827710e39a56587", "addresses": ["34eeRTRfSWGG6xHWBEtHKDSeGsBa6jLj3T"], "asm": "OP_HASH160 207598ccc794acfde6531a37410827710e39a565 OP_EQUAL", "type": "scripthash"}, "value": 0.04522404, "n": 16}, {"scriptPubKey": {"reqSigs": 1, "hex": "76a91400407e6a9659bcc3c8cc356bb82c5b1a3aee27a788ac", "addresses": ["112LG7Jq81JX6hxnoNjQJrfYgmNFFMNjSQ"], "asm": "OP_DUP OP_HASH160 00407e6a9659bcc3c8cc356bb82c5b1a3aee27a7 OP_EQUALVERIFY OP_CHECKSIG", "type": "pubkeyhash"}, "value": 0.00480021, "n": 17}, {"scriptPubKey": {"reqSigs": 1, "hex": "76a9149824b9b75753b4266611f75995a41c6e8a2dfeed88ac", "addresses": ["1EsThtUWs7Yj2icYKeLNBzdLH7ZWGJonDi"], "asm": "OP_DUP OP_HASH160 9824b9b75753b4266611f75995a41c6e8a2dfeed OP_EQUALVERIFY OP_CHECKSIG", "type": "pubkeyhash"}, "value": 0.035, "n": 18}, {"scriptPubKey": {"reqSigs": 1, "hex": "a9144c7cd584696c21f84c24dcee559e230a966a612f87", "addresses": ["38fSpk9t8vcUhfnrYZYtC7kRxCxU5Vki6s"], "asm": "OP_HASH160 4c7cd584696c21f84c24dcee559e230a966a612f OP_EQUAL", "type": "scripthash"}, "value": 0.00734846, "n": 19}, {"scriptPubKey": {"reqSigs": 1, "hex": "a9148abd71e236fe71e945d4023d683b6254457f183287", "addresses": ["3ELc7skbutLQahby1QV5TSB63G1ppCJABS"], "asm": "OP_HASH160 8abd71e236fe71e945d4023d683b6254457f1832 OP_EQUAL", "type": "scripthash"}, "value": 0.08137664, "n": 20}, {"scriptPubKey": {"reqSigs": 1, "hex": "76a914e13ee50add6cf1a09b773fe188a51f7d3286223188ac", "addresses": ["1MXzPAPzG5wv6nXRNj69t4dWWFRidbuqrg"], "asm": "OP_DUP OP_HASH160 e13ee50add6cf1a09b773fe188a51f7d32862231 OP_EQUALVERIFY OP_CHECKSIG", "type": "pubkeyhash"}, "value": 0.0055, "n": 21}, {"scriptPubKey": {"reqSigs": 1, "hex": "76a914994135622313b07756489626faaf21ecf353c82688ac", "addresses": ["1EyLW7r9ZH9BRw4mMpvUqEczQPNmWYXWw6"], "asm": "OP_DUP OP_HASH160 994135622313b07756489626faaf21ecf353c826 OP_EQUALVERIFY OP_CHECKSIG", "type": "pubkeyhash"}, "value": 0.0062878, "n": 22}], "hex": "0100000000010614dac5066542c9d6d5f3867463a52997032fb3dc3ecfba66442ff5d7fa6cbd6600000000232200209b61000633403d80b9e9a5f272d479f81adad87c24fa889567f58dcb854c105fffffffff33d187936ac533443a7296a5c8745664ba9cf54d0bb44c301f6536e5ca23d77e00000000fc00473044022025ff5ffd0de7db2037569a7802e491835cdae74ad02ef3c4fe7e9e6822e4426502202b8274de1e9af4a76226b3a23a9e5b313cfc208a1c0c83b51e81601d7abb3b360147304402201a61df19a8eb75c7a34a08e5722058923a7fa155d4c02945528178a5603cd1aa02202ea027940579393720073793640a3f4e73341fec2d7e4e4616d90f3db9e35dd6014c69522103ae9ddf90a03c83a42fe0f770e9f2aa3973e90e6cc71c10402bd7bd0ca4af46df2103a9163943698edf93bf822125f4ed32568ae9de7cbc048ca08651e13c544b75a021024c938bdd2bdc563553cbd0bcc5402f06f3c842519ad3dedb7bf5f0b33a1d149d53aeffffffff3001ef30e0ab89c3e130204d5b3d9562a8625d66286271efec0f2a4723fd68c90100000023220020d06f7b9d2b34820b70974e031b8968a09ffb655c94fbfc6211ed9a7e5d8d78deffffffffbce777e6b4388046581b4ee54114c88c6db33b48c4fd4d79066d67a77fd284700000000023220020cf5451c45ad2807455d291cec72a37de484150d4f369829d950b39cf3b7bb751ffffffffc2c18cc967a1c54cbab5df76d144ed72df9b623592fe57925e8f9990b5acfcc301000000fdfe0000483045022100d52df470ad29799908633c23262f97aa3244e628ed3426ce08557d4bd5664f6a022065293a6204d748fb2ff678a6d0cef746f7ed877fb0111533649e7dd9507b103b0148304502210086383c4fbc3dc2ab912de07ad33c51cd6ee902de1b3ce6944c84f64de7b73d3802203f8a4c06f0558ba552aac9137cb7854d7c5141a000f28b2df8c03614869bc719014c695221022fde22681beade2e48258c8e2a19c4742cf89f19d16ceaeac6c372597d25e9ba2103637d0e1d1553c40777f12f25c573227b292268b681daf3ba3462bfdaa50d730d21035af7fc810b6d39523c5a31b9fb4e79219dd3b24a27b8ebff290a3d4029f4ac1853aeffffffffdbd441dab06a84ec9237803939afe64267f736f9e664cad75a17fb11214505e301000000fdfd0000483045022100d18ca2dbaa320857fb67ef1f36afb7a8c81ec71c84f4f1c44700f51c9d8e3cf302205fa06ec3f077da76583c1631566c9f0a68af821104af74aaeec0a29a9f56d5240147304402202f5166e306dc0111cbd4a025f5da1676102e0e00d43a4afa61047adf7337b495022026d09c9a2faad09940f2d7aa5a087c2e93345e06902d482853ff7f0a59ea5db3014c69522103aeca3db300329518159f30348aa290fed08fe51b6663943063bed498989926b321022ee325be602567a00d94343cb6e1f12fb46403e2f01039615bd187f7de9fe8ac210228e5669fb246097dda84bdddf65232de2ed175bba529b6d39ae1641a9325fca253aeffffffff1703fa11000000000017a9142f6869cb8dd066486740793dbfc42a853b7778cd87c4ea1100000000001976a9142badcd5608d479f7de6cee6c1b6aa9c319bae18d88ac4b7f1100000000001976a9144910a70982dde1a08975c1a159b1e0024b336f6188ac109802000000000017a9141d5f8ce508b083b739de001d0fb26926941c64478760e316000000000017a91457d7b6610d630139dae2c5abd911309978deadcb8726040b00000000001976a9147b8935aad384cc2f22538e0e924f41947d8ad66288ace7240a00000000001976a914fbac43e7cadd7641ebcaa5482feb060f5664b3f488ac4c9403000000000017a914298b2ace55ef30d9d8375807243aae25416896788797cc2f000000000017a914226c50d08beea63bcd89fbf65c35d04da81a3fa0876ee71e000000000017a914048538c644f876c733450f710db732656368e10f87107916010000000017a914ec973869b0722b8c50f243b2dc2bd269dc8e3d1f8743ea02000000000017a9149525114470eb4149bb17499c738ef71ff3fb7af187a0bb0d00000000001976a9140f15daec07e5e42bb17d4344e874bb5a0c46cf1b88ac5c7817000000000017a914c2f29f6343082815fa7c38f1ff14fc298090150e8730c80700000000001976a9145a7081c27cd19fd83bc731e3079b9df0de03065b88acce3361000000000017a914b76716f19da3bfe54c2c7fb8b0e2e67ab482d1dc87a40145000000000017a914207598ccc794acfde6531a37410827710e39a5658715530700000000001976a91400407e6a9659bcc3c8cc356bb82c5b1a3aee27a788ace0673500000000001976a9149824b9b75753b4266611f75995a41c6e8a2dfeed88ac7e360b000000000017a9144c7cd584696c21f84c24dcee559e230a966a612f87c02b7c000000000017a9148abd71e236fe71e945d4023d683b6254457f18328770640800000000001976a914e13ee50add6cf1a09b773fe188a51f7d3286223188ac2c980900000000001976a914994135622313b07756489626faaf21ecf353c82688ac0400483045022100d8d24eaec71032d6285082b5b4a234f0f9730bb2d8f18e148987933c857d1b3f02205aac78327020ae82ce9055a56d165d9290dc4e7103e8eaba22673aa7a4ad078001473044022021085a9503f2e61b6323f68615f5bbaf2af7d0c7992aac69e643e93ab5f4a2c4022064e896d7d239d3f7bf8d95e81381a9a8930a4a1dfd1754110ee9a007365a1e7601695221032a30d66120a5cdedd9adbf84ff8d45c1ec4f461ab222e4dbe8460cf6c05a01532103d693ef9cf5889cebade6dc6efc00c7fa7902a63b121253501124f22b458a1cd321023b1d853d8247019b61f2f00bea17f4441efbca2aca9d8cbf537b549f45c9bc0653ae000400483045022100a5f7e54175336e18909606a30232f5cca97aa67e7e7dd2a174ddd3115be97f0c022038a9b2f748e2d6d5954224b5902fc98e048fa9645e761ceae2630d37f7e3dc69014830450221009c74c0b1565ec069acfb3cf8352ed799cae80d65c88741b872254af45a9de2f602200687ab37b3f4e9568afc7cee75a3ce7d2cd1e8a081c3b2ea94d8282a07f83485016952210365ce4cc49e0892b0675b6ac1b0d5a6376cb361fce6b23992fe21934454a33b2e2103ff07f352746a3ee4ac449d585cec893444fc2d350efe537eb9daa89bb9ad8ad7210397d407c728994dee2859a6916d3bb33a30d342665d6523711e8437cd4d5687c153ae0400473044022032c7d95ecee9de48a955102c9d008c800f2fa22bb2ec1b001e9c43af75af1e2f02204e67e4820ad9f189abe018dce6a86be183128a35f06ec28b86effc71aeea236401483045022100c23492a3874d311bf56af682ea92b9c181a2d6985cfcf7b4fdd54e91ce3c22bb0220484f9ee68a2551391b3f6e4de8c1c997b66d7a656f3188cabf88d1da7a61f86b0169522103f3a6667d8a1f7715243c94f0758ec773581c1e97717e2218dfd562db52a1694e2102102055809ee77074f755bb8606c738e18c3f008fb77238c519cc6c37425042932103613d9da39eae9f666081b827a1dd9833ccc1ec35fd6a2cecb30513f8d19f329c53ae000000000000", "vin": [{"txinwitness": ["", "3045022100d8d24eaec71032d6285082b5b4a234f0f9730bb2d8f18e148987933c857d1b3f02205aac78327020ae82ce9055a56d165d9290dc4e7103e8eaba22673aa7a4ad078001", "3044022021085a9503f2e61b6323f68615f5bbaf2af7d0c7992aac69e643e93ab5f4a2c4022064e896d7d239d3f7bf8d95e81381a9a8930a4a1dfd1754110ee9a007365a1e7601", "5221032a30d66120a5cdedd9adbf84ff8d45c1ec4f461ab222e4dbe8460cf6c05a01532103d693ef9cf5889cebade6dc6efc00c7fa7902a63b121253501124f22b458a1cd321023b1d853d8247019b61f2f00bea17f4441efbca2aca9d8cbf537b549f45c9bc0653ae"], "sequence": 4294967295, "scriptSig": {"hex": "2200209b61000633403d80b9e9a5f272d479f81adad87c24fa889567f58dcb854c105f", "asm": "00209b61000633403d80b9e9a5f272d479f81adad87c24fa889567f58dcb854c105f"}, "vout": 0, "txid": "66bd6cfad7f52f4466bacf3edcb32f039729a5637486f3d5d6c9426506c5da14"}, {"sequence": 4294967295, "scriptSig": {"hex": "00473044022025ff5ffd0de7db2037569a7802e491835cdae74ad02ef3c4fe7e9e6822e4426502202b8274de1e9af4a76226b3a23a9e5b313cfc208a1c0c83b51e81601d7abb3b360147304402201a61df19a8eb75c7a34a08e5722058923a7fa155d4c02945528178a5603cd1aa02202ea027940579393720073793640a3f4e73341fec2d7e4e4616d90f3db9e35dd6014c69522103ae9ddf90a03c83a42fe0f770e9f2aa3973e90e6cc71c10402bd7bd0ca4af46df2103a9163943698edf93bf822125f4ed32568ae9de7cbc048ca08651e13c544b75a021024c938bdd2bdc563553cbd0bcc5402f06f3c842519ad3dedb7bf5f0b33a1d149d53ae", "asm": "0 3044022025ff5ffd0de7db2037569a7802e491835cdae74ad02ef3c4fe7e9e6822e4426502202b8274de1e9af4a76226b3a23a9e5b313cfc208a1c0c83b51e81601d7abb3b36[ALL] 304402201a61df19a8eb75c7a34a08e5722058923a7fa155d4c02945528178a5603cd1aa02202ea027940579393720073793640a3f4e73341fec2d7e4e4616d90f3db9e35dd6[ALL] 522103ae9ddf90a03c83a42fe0f770e9f2aa3973e90e6cc71c10402bd7bd0ca4af46df2103a9163943698edf93bf822125f4ed32568ae9de7cbc048ca08651e13c544b75a021024c938bdd2bdc563553cbd0bcc5402f06f3c842519ad3dedb7bf5f0b33a1d149d53ae"}, "vout": 0, "txid": "7ed723cae536651f304cb40b4df59cba645674c8a596723a4433c56a9387d133"}, {"txinwitness": ["", "3045022100a5f7e54175336e18909606a30232f5cca97aa67e7e7dd2a174ddd3115be97f0c022038a9b2f748e2d6d5954224b5902fc98e048fa9645e761ceae2630d37f7e3dc6901", "30450221009c74c0b1565ec069acfb3cf8352ed799cae80d65c88741b872254af45a9de2f602200687ab37b3f4e9568afc7cee75a3ce7d2cd1e8a081c3b2ea94d8282a07f8348501", "52210365ce4cc49e0892b0675b6ac1b0d5a6376cb361fce6b23992fe21934454a33b2e2103ff07f352746a3ee4ac449d585cec893444fc2d350efe537eb9daa89bb9ad8ad7210397d407c728994dee2859a6916d3bb33a30d342665d6523711e8437cd4d5687c153ae"], "sequence": 4294967295, "scriptSig": {"hex": "220020d06f7b9d2b34820b70974e031b8968a09ffb655c94fbfc6211ed9a7e5d8d78de", "asm": "0020d06f7b9d2b34820b70974e031b8968a09ffb655c94fbfc6211ed9a7e5d8d78de"}, "vout": 1, "txid": "c968fd23472a0fecef716228665d62a862953d5b4d2030e1c389abe030ef0130"}, {"txinwitness": ["", "3044022032c7d95ecee9de48a955102c9d008c800f2fa22bb2ec1b001e9c43af75af1e2f02204e67e4820ad9f189abe018dce6a86be183128a35f06ec28b86effc71aeea236401", "3045022100c23492a3874d311bf56af682ea92b9c181a2d6985cfcf7b4fdd54e91ce3c22bb0220484f9ee68a2551391b3f6e4de8c1c997b66d7a656f3188cabf88d1da7a61f86b01", "522103f3a6667d8a1f7715243c94f0758ec773581c1e97717e2218dfd562db52a1694e2102102055809ee77074f755bb8606c738e18c3f008fb77238c519cc6c37425042932103613d9da39eae9f666081b827a1dd9833ccc1ec35fd6a2cecb30513f8d19f329c53ae"], "sequence": 4294967295, "scriptSig": {"hex": "220020cf5451c45ad2807455d291cec72a37de484150d4f369829d950b39cf3b7bb751", "asm": "0020cf5451c45ad2807455d291cec72a37de484150d4f369829d950b39cf3b7bb751"}, "vout": 0, "txid": "7084d27fa7676d06794dfdc4483bb36d8cc81441e54e1b58468038b4e677e7bc"}, {"sequence": 4294967295, "scriptSig": {"hex": "00483045022100d52df470ad29799908633c23262f97aa3244e628ed3426ce08557d4bd5664f6a022065293a6204d748fb2ff678a6d0cef746f7ed877fb0111533649e7dd9507b103b0148304502210086383c4fbc3dc2ab912de07ad33c51cd6ee902de1b3ce6944c84f64de7b73d3802203f8a4c06f0558ba552aac9137cb7854d7c5141a000f28b2df8c03614869bc719014c695221022fde22681beade2e48258c8e2a19c4742cf89f19d16ceaeac6c372597d25e9ba2103637d0e1d1553c40777f12f25c573227b292268b681daf3ba3462bfdaa50d730d21035af7fc810b6d39523c5a31b9fb4e79219dd3b24a27b8ebff290a3d4029f4ac1853ae", "asm": "0 3045022100d52df470ad29799908633c23262f97aa3244e628ed3426ce08557d4bd5664f6a022065293a6204d748fb2ff678a6d0cef746f7ed877fb0111533649e7dd9507b103b[ALL] 304502210086383c4fbc3dc2ab912de07ad33c51cd6ee902de1b3ce6944c84f64de7b73d3802203f8a4c06f0558ba552aac9137cb7854d7c5141a000f28b2df8c03614869bc719[ALL] 5221022fde22681beade2e48258c8e2a19c4742cf89f19d16ceaeac6c372597d25e9ba2103637d0e1d1553c40777f12f25c573227b292268b681daf3ba3462bfdaa50d730d21035af7fc810b6d39523c5a31b9fb4e79219dd3b24a27b8ebff290a3d4029f4ac1853ae"}, "vout": 1, "txid": "c3fcacb590998f5e9257fe9235629bdf72ed44d176dfb5ba4cc5a167c98cc1c2"}, {"sequence": 4294967295, "scriptSig": {"hex": "00483045022100d18ca2dbaa320857fb67ef1f36afb7a8c81ec71c84f4f1c44700f51c9d8e3cf302205fa06ec3f077da76583c1631566c9f0a68af821104af74aaeec0a29a9f56d5240147304402202f5166e306dc0111cbd4a025f5da1676102e0e00d43a4afa61047adf7337b495022026d09c9a2faad09940f2d7aa5a087c2e93345e06902d482853ff7f0a59ea5db3014c69522103aeca3db300329518159f30348aa290fed08fe51b6663943063bed498989926b321022ee325be602567a00d94343cb6e1f12fb46403e2f01039615bd187f7de9fe8ac210228e5669fb246097dda84bdddf65232de2ed175bba529b6d39ae1641a9325fca253ae", "asm": "0 3045022100d18ca2dbaa320857fb67ef1f36afb7a8c81ec71c84f4f1c44700f51c9d8e3cf302205fa06ec3f077da76583c1631566c9f0a68af821104af74aaeec0a29a9f56d524[ALL] 304402202f5166e306dc0111cbd4a025f5da1676102e0e00d43a4afa61047adf7337b495022026d09c9a2faad09940f2d7aa5a087c2e93345e06902d482853ff7f0a59ea5db3[ALL] 522103aeca3db300329518159f30348aa290fed08fe51b6663943063bed498989926b321022ee325be602567a00d94343cb6e1f12fb46403e2f01039615bd187f7de9fe8ac210228e5669fb246097dda84bdddf65232de2ed175bba529b6d39ae1641a9325fca253ae"}, "vout": 1, "txid": "e305452111fb175ad7ca64e6f936f76742e6af3939803792ec846ab0da41d4db"}], "txid": "008849ce13c87f153abaf6955b018024dc1c613b2895f36869431b652c2f77f8", "blocktime": 1537876114, "version": 1, "confirmations": 11460, "time": 1537876114, "locktime": 0, "vsize": 2072, "size": 2645}