{"hash": "a60be924635bd47f62c1eb8e030f87f90a93cc1bcbb632dcdba205940adc9163", "blockhash": "0000000000000000001cda96e906b7601b7a6fb1a3b62bca570a9e5d8f4b3de1", "vout": [{"scriptPubKey": {"reqSigs": 1, "hex": "76a914003d4c583b2f61b1d29cec677d1d4e2d1fef1c5088ac", "addresses": ["112GS5MaX194bFTxSzbgq5mn3BPDRsbcTf"], "asm": "OP_DUP OP_HASH160 003d4c583b2f61b1d29cec677d1d4e2d1fef1c50 OP_EQUALVERIFY OP_CHECKSIG", "type": "pubkeyhash"}, "value": 0.1165833, "n": 0}, {"scriptPubKey": {"reqSigs": 1, "hex": "a914a15f7f89c99727a4323687ba08f75cfb000a143b87", "addresses": ["3GQH7m13SkDMB8GCZ1LKFhhNpttDfj7ryn"], "asm": "OP_HASH160 a15f7f89c99727a4323687ba08f75cfb000a143b OP_EQUAL", "type": "scripthash"}, "value": 0.03833238, "n": 1}], "hex": "0200000000010149a3c1bf04f69d7ddf1df17f57549201d4fb96a3b101218a51997a138235ca9500000000171600146950913ca58e4e01d50e931bdb90a7f430085060feffffff025ae4b100000000001976a914003d4c583b2f61b1d29cec677d1d4e2d1fef1c5088ac967d3a000000000017a914a15f7f89c99727a4323687ba08f75cfb000a143b870247304402205008b3a0ea769e97270ac04f547237afc381b656e297958359220e0a5923371102202fd6d1e7d3eff45d9cbcff0c01c6a229373730aff585e73dffa9bad633f1bb770121037987a7254a956fdc29126ddeb70254075ac50c00b03e3d9eb02d7eef95c72b3f13490800", "vin": [{"txinwitness": ["304402205008b3a0ea769e97270ac04f547237afc381b656e297958359220e0a5923371102202fd6d1e7d3eff45d9cbcff0c01c6a229373730aff585e73dffa9bad633f1bb7701", "037987a7254a956fdc29126ddeb70254075ac50c00b03e3d9eb02d7eef95c72b3f"], "sequence": 4294967294, "scriptSig": {"hex": "1600146950913ca58e4e01d50e931bdb90a7f430085060", "asm": "00146950913ca58e4e01d50e931bdb90a7f430085060"}, "vout": 0, "txid": "95ca3582137a99518a2101b1a396fbd4019254577ff11ddf7d9df604bfc1a349"}], "txid": "0088611dea755fed2b968e4fd4032442f50965a5ba013f41783a69ed7d510ba2", "blocktime": 1537873282, "version": 2, "confirmations": 11485, "time": 1537873282, "locktime": 542995, "vsize": 168, "size": 249}