{"hash": "dc6bfd8e095c20a3a39b114cb5a4370e479455ecfcba1dfd52cc301030c47c11", "blockhash": "0000000000000000001f0ddff1eddb255c1121bcd4da4f1bc9a0da00cae72433", "vout": [{"scriptPubKey": {"reqSigs": 1, "hex": "76a914d84a2b7e65fe4e8219af1213b8843826cd0bf4ef88ac", "addresses": ["1LidorK3GSVhVZSoHvoeDJ7BPRPBgWdDDk"], "asm": "OP_DUP OP_HASH160 d84a2b7e65fe4e8219af1213b8843826cd0bf4ef OP_EQUALVERIFY OP_CHECKSIG", "type": "pubkeyhash"}, "value": 0.00347, "n": 0}, {"scriptPubKey": {"reqSigs": 1, "hex": "a91428eec496fb6b8cf3456381b1ebb5cdd93774ec4187", "addresses": ["35RSz6xSZTm4HdzVmrPoF2zWRVJQuktj51"], "asm": "OP_HASH160 28eec496fb6b8cf3456381b1ebb5cdd93774ec41 OP_EQUAL", "type": "scripthash"}, "value": 0.01000674, "n": 1}], "hex": "020000000001024581e48014eae047397ba1b922d005258877815f9ced1fed99c3d45236047255000000001716001437ad6fac42e28e21b533ea33f75e3666e5acb1d3feffffff90aee5df92ffa3273bc912c3bcd2c65e2fa5ce6d31db28a6dd9c182f0927d22401000000171600140ee5a8da40c6f0f853f1e22a50b2273629dec8d5feffffff02784b0500000000001976a914d84a2b7e65fe4e8219af1213b8843826cd0bf4ef88ace2440f000000000017a91428eec496fb6b8cf3456381b1ebb5cdd93774ec418702473044022065d6295e01656560f00ea5a59822c4144d7ed8f6e0ea89b671d3b67b933d4f550220161e3cb39180d9af65b33f4a6740a8cfc5a1a5f24237f9c692c750c5537ed1aa0121027172b5e18775a22ab340ef14ed26ece9c05eeecb80f0b3297aec09bd625dfe180248304502210085d6aed3dc113eb4afd69e9d46b2b845c677311a0e5cdaa333b8c4206fb5e12102202108741c695081963bcf6478e2935a27d60a41124f2fca94127954bc70e6bbd40121020e3cc9ac93d62d1f67eb717442b9137a393bcf1e9d90ea950367726b069d723b11490800", "vin": [{"txinwitness": ["3044022065d6295e01656560f00ea5a59822c4144d7ed8f6e0ea89b671d3b67b933d4f550220161e3cb39180d9af65b33f4a6740a8cfc5a1a5f24237f9c692c750c5537ed1aa01", "027172b5e18775a22ab340ef14ed26ece9c05eeecb80f0b3297aec09bd625dfe18"], "sequence": 4294967294, "scriptSig": {"hex": "16001437ad6fac42e28e21b533ea33f75e3666e5acb1d3", "asm": "001437ad6fac42e28e21b533ea33f75e3666e5acb1d3"}, "vout": 0, "txid": "5572043652d4c399ed1fed9c5f8177882505d022b9a17b3947e0ea1480e48145"}, {"txinwitness": ["304502210085d6aed3dc113eb4afd69e9d46b2b845c677311a0e5cdaa333b8c4206fb5e12102202108741c695081963bcf6478e2935a27d60a41124f2fca94127954bc70e6bbd401", "020e3cc9ac93d62d1f67eb717442b9137a393bcf1e9d90ea950367726b069d723b"], "sequence": 4294967294, "scriptSig": {"hex": "1600140ee5a8da40c6f0f853f1e22a50b2273629dec8d5", "asm": "00140ee5a8da40c6f0f853f1e22a50b2273629dec8d5"}, "vout": 1, "txid": "24d227092f189cdda628db316dcea52f5ec6d2bcc312c93b27a3ff92dfe5ae90"}], "txid": "008aff0254313b5236c1cad70bc32e51d110ae73d2d2358b97f8bc670d1addae", "blocktime": 1537872018, "version": 2, "confirmations": 11489, "time": 1537872018, "locktime": 542993, "vsize": 259, "size": 421}