{"hash": "008b70a8a2f38c572f1ca06f7db9534c55bcfe25b81599fed79231877932dbe5", "blockhash": "0000000000000000001cda96e906b7601b7a6fb1a3b62bca570a9e5d8f4b3de1", "vout": [{"scriptPubKey": {"reqSigs": 1, "hex": "76a914307e55ba2c263dffd93c2115de3efa5f6fd734ee88ac", "addresses": ["15RQn7JWrHYRG9MRZfsEUx9tdm1o35cpEs"], "asm": "OP_DUP OP_HASH160 307e55ba2c263dffd93c2115de3efa5f6fd734ee OP_EQUALVERIFY OP_CHECKSIG", "type": "pubkeyhash"}, "value": 0.00610497, "n": 0}, {"scriptPubKey": {"reqSigs": 1, "hex": "a914556e03fbd268b318fc4405d718d336aa14e64d7887", "addresses": ["39Uj9s6aUZwDP7GjEsq4UXDdzBcLyN7oT1"], "asm": "OP_HASH160 556e03fbd268b318fc4405d718d336aa14e64d78 OP_EQUAL", "type": "scripthash"}, "value": 1.0041803, "n": 1}], "hex": "010000000420d5e01245a6528669e8ae47e092a1b1951fa47c7206a533421ecc155749312f000000006b483045022100822eb4b3c9a45a00104805aea2ac2ae0f86f9d9636c21cde591b9df5f6088eb3022004e7824c998a726573bedd7d5655b859add0c03b733488ce98365930a50b2354012103fd72f0044840a593abd5bd2044b570f48c7700e8dee397159656221add7ebe08ffffffff285b95ba81da99e8aac6366f6f2ac8f41f92f7a4c0f8bc20da9aba5bda79c961000000006a473044022050a919a6dfb7e34b2903aaff03349ad89d33d1121cd7f118b072a7c01dfd38b5022044dd6f73d0fa84f45432f9e124710d0ccb1f87c3a8f6087d2b6f43c230fb1d290121031858266ed02983fa86308729ec019b5459e8f8165d84db6a2e92402ddb2cdde2ffffffff1dd543f4cfdbd1e724f15d33cdf9784536b23b866f8d18fdb9bd5b8a1282d3f1010000006b483045022100d4c687435a54b3bdbd72088ebc18ce10c477aef56c14629e478fd42db34c2b2202201ce2949da534b1ec3d11b02117539528b1a327023f8d432ff6e5eb66d2b5f9f90121029453e37761f6813b1831d7bb1f5851721a4fc07c745ea0644275415fb8bf091cffffffff978f05a1c4c67a36699a2adfd924072f000a2bea913bfe6b88b4e4b2854d60f7010000006b483045022100ed78a92e97859217c33469300e3b8fd5eda5a8b40de1895b5c919b289c04994d022018e5e0fa9a006bff7363aa9fa82528fb3613e1462a2ed02ddbbe27bfbcc85f4a012103af09ac83542ddde6af075d508322b4cad0f0a902251d68514acf694086c8ad1dffffffff02c1500900000000001976a914307e55ba2c263dffd93c2115de3efa5f6fd734ee88acee41fc050000000017a914556e03fbd268b318fc4405d718d336aa14e64d788700000000", "vin": [{"sequence": 4294967295, "scriptSig": {"hex": "483045022100822eb4b3c9a45a00104805aea2ac2ae0f86f9d9636c21cde591b9df5f6088eb3022004e7824c998a726573bedd7d5655b859add0c03b733488ce98365930a50b2354012103fd72f0044840a593abd5bd2044b570f48c7700e8dee397159656221add7ebe08", "asm": "3045022100822eb4b3c9a45a00104805aea2ac2ae0f86f9d9636c21cde591b9df5f6088eb3022004e7824c998a726573bedd7d5655b859add0c03b733488ce98365930a50b2354[ALL] 03fd72f0044840a593abd5bd2044b570f48c7700e8dee397159656221add7ebe08"}, "vout": 0, "txid": "2f31495715cc1e4233a506727ca41f95b1a192e047aee8698652a64512e0d520"}, {"sequence": 4294967295, "scriptSig": {"hex": "473044022050a919a6dfb7e34b2903aaff03349ad89d33d1121cd7f118b072a7c01dfd38b5022044dd6f73d0fa84f45432f9e124710d0ccb1f87c3a8f6087d2b6f43c230fb1d290121031858266ed02983fa86308729ec019b5459e8f8165d84db6a2e92402ddb2cdde2", "asm": "3044022050a919a6dfb7e34b2903aaff03349ad89d33d1121cd7f118b072a7c01dfd38b5022044dd6f73d0fa84f45432f9e124710d0ccb1f87c3a8f6087d2b6f43c230fb1d29[ALL] 031858266ed02983fa86308729ec019b5459e8f8165d84db6a2e92402ddb2cdde2"}, "vout": 0, "txid": "61c979da5bba9ada20bcf8c0a4f7921ff4c82a6f6f36c6aae899da81ba955b28"}, {"sequence": 4294967295, "scriptSig": {"hex": "483045022100d4c687435a54b3bdbd72088ebc18ce10c477aef56c14629e478fd42db34c2b2202201ce2949da534b1ec3d11b02117539528b1a327023f8d432ff6e5eb66d2b5f9f90121029453e37761f6813b1831d7bb1f5851721a4fc07c745ea0644275415fb8bf091c", "asm": "3045022100d4c687435a54b3bdbd72088ebc18ce10c477aef56c14629e478fd42db34c2b2202201ce2949da534b1ec3d11b02117539528b1a327023f8d432ff6e5eb66d2b5f9f9[ALL] 029453e37761f6813b1831d7bb1f5851721a4fc07c745ea0644275415fb8bf091c"}, "vout": 1, "txid": "f1d382128a5bbdb9fd188d6f863bb2364578f9cd335df124e7d1dbcff443d51d"}, {"sequence": 4294967295, "scriptSig": {"hex": "483045022100ed78a92e97859217c33469300e3b8fd5eda5a8b40de1895b5c919b289c04994d022018e5e0fa9a006bff7363aa9fa82528fb3613e1462a2ed02ddbbe27bfbcc85f4a012103af09ac83542ddde6af075d508322b4cad0f0a902251d68514acf694086c8ad1d", "asm": "3045022100ed78a92e97859217c33469300e3b8fd5eda5a8b40de1895b5c919b289c04994d022018e5e0fa9a006bff7363aa9fa82528fb3613e1462a2ed02ddbbe27bfbcc85f4a[ALL] 03af09ac83542ddde6af075d508322b4cad0f0a902251d68514acf694086c8ad1d"}, "vout": 1, "txid": "f7604d85b2e4b4886bfe3b91ea2b0a002f0724d9df2a9a69367ac6c4a1058f97"}], "txid": "008b70a8a2f38c572f1ca06f7db9534c55bcfe25b81599fed79231877932dbe5", "blocktime": 1537873282, "version": 1, "confirmations": 11485, "time": 1537873282, "locktime": 0, "vsize": 667, "size": 667}