{"hash": "598ebe8ca707d56aa7606b00aec4da58bdbad8b0413b1dd7bc7e5b52708b9cce", "blockhash": "0000000000000000001f76057863aec43deb6fa401d9628bb513d65a8098bfab", "vout": [{"scriptPubKey": {"reqSigs": 1, "hex": "a914222570944ba4270214126ec86f546c0d8198c83b87", "addresses": ["34oZkRgNSEU4Qdd5WyjVhbyRCMqAZTdiZV"], "asm": "OP_HASH160 222570944ba4270214126ec86f546c0d8198c83b OP_EQUAL", "type": "scripthash"}, "value": 0.44, "n": 0}, {"scriptPubKey": {"reqSigs": 1, "hex": "a9143743ddd70008adaa1c03c5136c6d0f47a391f47987", "addresses": ["36jEPYcNd8miZyrZ53osuAx5y5ZUMdwNaZ"], "asm": "OP_HASH160 3743ddd70008adaa1c03c5136c6d0f47a391f479 OP_EQUAL", "type": "scripthash"}, "value": 0.10261441, "n": 1}, {"scriptPubKey": {"reqSigs": 1, "hex": "76a914d44c6c231b6a344f13ece3e9419cc860ac02c11688ac", "addresses": ["1LMXobEYYVCQPLSj2HLazNQ2MfWJmuWgaA"], "asm": "OP_DUP OP_HASH160 d44c6c231b6a344f13ece3e9419cc860ac02c116 OP_EQUALVERIFY OP_CHECKSIG", "type": "pubkeyhash"}, "value": 0.0196, "n": 2}, {"scriptPubKey": {"reqSigs": 1, "hex": "a9147b759b19f063925ef1feb1ca74b24f60c81a9ae487", "addresses": ["3CwovY8oUHmv1crr8uWhM4TzL4yoeSsqAz"], "asm": "OP_HASH160 7b759b19f063925ef1feb1ca74b24f60c81a9ae4 OP_EQUAL", "type": "scripthash"}, "value": 198.50156872, "n": 3}], "hex": "0100000000010253e963f0cadb84c9cb2c312b523c200161536c3f735102a11afad298e161115002000000171600142a1fb4f21b604dd19b016069ed27100044e91962ffffffff481570ca1e71553f7ca92c8f56c39edb63f407d21b8b885abdea1cb16f99473a03000000171600142a1fb4f21b604dd19b016069ed27100044e91962ffffffff0400639f020000000017a914222570944ba4270214126ec86f546c0d8198c83b87c1939c000000000017a9143743ddd70008adaa1c03c5136c6d0f47a391f4798740e81d00000000001976a914d44c6c231b6a344f13ece3e9419cc860ac02c11688ac485b299f0400000017a9147b759b19f063925ef1feb1ca74b24f60c81a9ae48702483045022100f11b5b1aea7343b1ef16dfc0c0767391c2e2ffcd9b328b9f70ad438567afc3ca0220652e26549e794184aeacac15a18ac48f5ae23153a9ddbf5099a25c5eb828659001210276e2e2e95b3a442a0d2e655454a70a03167adda61a6bce61444ffae3c04cdc3b024730440220159a7397e53317eedd519d6457bee05fd191a7f2ae31306511fd045a6059d2fa02201c697f85cb564c07a8ca33befa05502b6d645093776c3db488b2100b421901f201210276e2e2e95b3a442a0d2e655454a70a03167adda61a6bce61444ffae3c04cdc3b00000000", "vin": [{"txinwitness": ["3045022100f11b5b1aea7343b1ef16dfc0c0767391c2e2ffcd9b328b9f70ad438567afc3ca0220652e26549e794184aeacac15a18ac48f5ae23153a9ddbf5099a25c5eb828659001", "0276e2e2e95b3a442a0d2e655454a70a03167adda61a6bce61444ffae3c04cdc3b"], "sequence": 4294967295, "scriptSig": {"hex": "1600142a1fb4f21b604dd19b016069ed27100044e91962", "asm": "00142a1fb4f21b604dd19b016069ed27100044e91962"}, "vout": 2, "txid": "501161e198d2fa1aa10251733f6c536101203c522b312ccbc984dbcaf063e953"}, {"txinwitness": ["30440220159a7397e53317eedd519d6457bee05fd191a7f2ae31306511fd045a6059d2fa02201c697f85cb564c07a8ca33befa05502b6d645093776c3db488b2100b421901f201", "0276e2e2e95b3a442a0d2e655454a70a03167adda61a6bce61444ffae3c04cdc3b"], "sequence": 4294967295, "scriptSig": {"hex": "1600142a1fb4f21b604dd19b016069ed27100044e91962", "asm": "00142a1fb4f21b604dd19b016069ed27100044e91962"}, "vout": 3, "txid": "3a47996fb11ceabd5a888b1bd207f463db9ec3568f2ca97c3f55711eca701548"}], "txid": "008b71b14a2f7c540f2f2bd668db9547057c1ed4ea8ee4faced024b989e8e741", "blocktime": 1537873891, "version": 1, "confirmations": 11477, "time": 1537873891, "locktime": 0, "vsize": 323, "size": 485}