{"hash": "129c36a298b20e94b8bca7c9b5bb6d001de69706f655d3961efa6c4f978b4a66", "blockhash": "0000000000000000000e13cef7c366c0283d82e591d1acd082e914b08063cdf1", "vout": [{"scriptPubKey": {"reqSigs": 1, "hex": "a91478fb97b7a7ef9e35e06963642fe86415fe5a78d987", "addresses": ["3CiiQXWokJ32s29jHybDgwmxhgTSgosUZv"], "asm": "OP_HASH160 78fb97b7a7ef9e35e06963642fe86415fe5a78d9 OP_EQUAL", "type": "scripthash"}, "value": 0.01021761, "n": 0}, {"scriptPubKey": {"reqSigs": 1, "hex": "76a914ffa7f051bda0c7d870bd9f1b2d88a2644a3d512088ac", "addresses": ["1QJnVWKSRLafMG8MtDSib5UFUauiu2HmwL"], "asm": "OP_DUP OP_HASH160 ffa7f051bda0c7d870bd9f1b2d88a2644a3d5120 OP_EQUALVERIFY OP_CHECKSIG", "type": "pubkeyhash"}, "value": 0.16139541, "n": 1}, {"scriptPubKey": {"reqSigs": 1, "hex": "76a9141c0b4ad4c9d5ce12afa2cddd8d4bba5eb0de247f88ac", "addresses": ["13ZHSyXmXuS9ikFuavy2uS9nmum3TqCjcH"], "asm": "OP_DUP OP_HASH160 1c0b4ad4c9d5ce12afa2cddd8d4bba5eb0de247f OP_EQUALVERIFY OP_CHECKSIG", "type": "pubkeyhash"}, "value": 0.02534413, "n": 2}, {"scriptPubKey": {"reqSigs": 1, "hex": "a914a3790ac4f7ab274e7f02f32bd45fe50a7f58a17187", "addresses": ["3GbP4xmtQ8SFRpUVhR6vMV5Dnyupm97VGi"], "asm": "OP_HASH160 a3790ac4f7ab274e7f02f32bd45fe50a7f58a171 OP_EQUAL", "type": "scripthash"}, "value": 0.026, "n": 3}], "hex": "020000000001050db7a2047c8f79a29e4703382342ef56cdef70bbb8f5e7969760b1fca6a8679201000000171600147cc7f9b56445492f992eda544743004fad00e9dcfeffffff1a7fcef2cde08f85a95690ca2404dc30e8d6e8bb568e71ef877b69bae3a3245200000000171600140bc1ef0c9894f739c565fa86042a5105f9c7eda5feffffff218c626dee72ec8c0d9880513c2a121b0ae5d8798e7e26a112739a619907eb7b0100000017160014e9b26c1459f2d3e8d497c8c20b75fadf17205b49feffffff82bfdd0472c1559b77ed71be30af01ec286bfdc5b928f0cd06ca85887fcbc357070000001716001471b6165322acfc7611ec2534c6f5f81b33bfd069feffffffc8efb724b835d9e917d14721562875070e4340ff9287d0da80a9e79658fe6f190400000017160014e17ccb66b424a00002e50b2130b7cafe4c9e67b2feffffff0441970f000000000017a91478fb97b7a7ef9e35e06963642fe86415fe5a78d9871545f600000000001976a914ffa7f051bda0c7d870bd9f1b2d88a2644a3d512088ac0dac2600000000001976a9141c0b4ad4c9d5ce12afa2cddd8d4bba5eb0de247f88ac40ac27000000000017a914a3790ac4f7ab274e7f02f32bd45fe50a7f58a171870247304402201e24fb47d7c3b1fb1ed4500dfbef37bfd688bc3c7fe620a6055634ba9a7a8bab022058420563aca3a49853c05d6fc49d043363fc48715874a34487d316a7b46955a3012102fb6678d6cc386b43436b794ec98d8de54fceff300ba9847e1e36c0fcdcd2a6670247304402202e383e2e7642f1f8e2cc0c2431247bceca9e084e0bf8531b0859eec84a0d9ee702205aad283ed7b4bf45af89d40fb3ae22edce6ba09efaa41bc4ab283b1f7bac43b9012102b7080268b8c4f65c32e002a5f973f68b95f742b14313c622cd51cbe6274603fe0247304402200f4afe97c8bf561e57074afa03f26454d9aaf130b55df5986d35e84cd061ea77022048a9630fd0d586ca9301b26f15abaf2082ed7b90581756acd9b305b9bac3c52b0121026bad6698d4011f39da334d231af2df22a01d47056b8ae12710b611aa08fb9fc802473044022001c4f60901714555c02f591029d6128665deff2f9c40c4b736bfa4859b17f8a202206e0ee0deb5f0ab36aa645b03e2176375b4b4d4ee3eb222652fd74368482ea165012103b5e90cc38476a06b7abf594d850b435a98e0652147d6faa3b9cf4aea9b8cc92402473044022033a592710a891d53c2780cded956c76305935003096778ce4ec41539af204613022019023bb3d6038ffdca59fbe47a70573c31e822a362c8966bd4c235283f9f84f90121034ffacbbb945449e60c5e87f0a85f8976487005ea55721d1e96f40a9bbfc2c0c910490800", "vin": [{"txinwitness": ["304402201e24fb47d7c3b1fb1ed4500dfbef37bfd688bc3c7fe620a6055634ba9a7a8bab022058420563aca3a49853c05d6fc49d043363fc48715874a34487d316a7b46955a301", "02fb6678d6cc386b43436b794ec98d8de54fceff300ba9847e1e36c0fcdcd2a667"], "sequence": 4294967294, "scriptSig": {"hex": "1600147cc7f9b56445492f992eda544743004fad00e9dc", "asm": "00147cc7f9b56445492f992eda544743004fad00e9dc"}, "vout": 1, "txid": "9267a8a6fcb1609796e7f5b8bb70efcd56ef42233803479ea2798f7c04a2b70d"}, {"txinwitness": ["304402202e383e2e7642f1f8e2cc0c2431247bceca9e084e0bf8531b0859eec84a0d9ee702205aad283ed7b4bf45af89d40fb3ae22edce6ba09efaa41bc4ab283b1f7bac43b901", "02b7080268b8c4f65c32e002a5f973f68b95f742b14313c622cd51cbe6274603fe"], "sequence": 4294967294, "scriptSig": {"hex": "1600140bc1ef0c9894f739c565fa86042a5105f9c7eda5", "asm": "00140bc1ef0c9894f739c565fa86042a5105f9c7eda5"}, "vout": 0, "txid": "5224a3e3ba697b87ef718e56bbe8d6e830dc0424ca9056a9858fe0cdf2ce7f1a"}, {"txinwitness": ["304402200f4afe97c8bf561e57074afa03f26454d9aaf130b55df5986d35e84cd061ea77022048a9630fd0d586ca9301b26f15abaf2082ed7b90581756acd9b305b9bac3c52b01", "026bad6698d4011f39da334d231af2df22a01d47056b8ae12710b611aa08fb9fc8"], "sequence": 4294967294, "scriptSig": {"hex": "160014e9b26c1459f2d3e8d497c8c20b75fadf17205b49", "asm": "0014e9b26c1459f2d3e8d497c8c20b75fadf17205b49"}, "vout": 1, "txid": "7beb0799619a7312a1267e8e79d8e50a1b122a3c5180980d8cec72ee6d628c21"}, {"txinwitness": ["3044022001c4f60901714555c02f591029d6128665deff2f9c40c4b736bfa4859b17f8a202206e0ee0deb5f0ab36aa645b03e2176375b4b4d4ee3eb222652fd74368482ea16501", "03b5e90cc38476a06b7abf594d850b435a98e0652147d6faa3b9cf4aea9b8cc924"], "sequence": 4294967294, "scriptSig": {"hex": "16001471b6165322acfc7611ec2534c6f5f81b33bfd069", "asm": "001471b6165322acfc7611ec2534c6f5f81b33bfd069"}, "vout": 7, "txid": "57c3cb7f8885ca06cdf028b9c5fd6b28ec01af30be71ed779b55c17204ddbf82"}, {"txinwitness": ["3044022033a592710a891d53c2780cded956c76305935003096778ce4ec41539af204613022019023bb3d6038ffdca59fbe47a70573c31e822a362c8966bd4c235283f9f84f901", "034ffacbbb945449e60c5e87f0a85f8976487005ea55721d1e96f40a9bbfc2c0c9"], "sequence": 4294967294, "scriptSig": {"hex": "160014e17ccb66b424a00002e50b2130b7cafe4c9e67b2", "asm": "0014e17ccb66b424a00002e50b2130b7cafe4c9e67b2"}, "vout": 4, "txid": "196ffe5896e7a980dad08792ff40430e077528562147d117e9d935b824b7efc8"}], "txid": "008ddca97a4056accbbaa153be4e657904d51d0e5d81e43cc7fa3599714265ec", "blocktime": 1537871767, "version": 2, "confirmations": 11495, "time": 1537871767, "locktime": 542992, "vsize": 597, "size": 999}