{"hash": "e6ffc1c48940e2435333f075d5694b2b34f93978e0a5fa76f82262802785d0e1", "blockhash": "000000000000000000022b45ed06c6f4ccd3cf7fb5ba4856ebd2e58215665228", "vout": [{"scriptPubKey": {"reqSigs": 1, "hex": "76a914052e8df65179b918f9e216828e4d0a956ae78b6988ac", "addresses": ["1UQ9dGTALte69u1Zj56PZ43msk36SM5dj"], "asm": "OP_DUP OP_HASH160 052e8df65179b918f9e216828e4d0a956ae78b69 OP_EQUALVERIFY OP_CHECKSIG", "type": "pubkeyhash"}, "value": 0.01199829, "n": 0}], "hex": "01000000000106841a2bf1bffe08da395a01d35ca23cf47c10049047005bad6cccb0bef89ff4630100000017160014df5b1a27af478b993ac5fb8eaa497411311ecfa5fdffffff40f60bd02de752989c5d55094ffb059849468cc4d6f860944d24947964975ca10100000017160014ca2d0fd170ac57ca5e463771e662bfc315aaa091fdffffff14a1da0dfa5a2ca51b11c385a41648055e091bfb6dcd8c3fc734864d588e93fb0000000017160014020720238c2b44ca057a346f86d8a673439104cdfdffffffc9153da2ba32fde4a066a9b3f8827f1d19338d607c8cffc889ca587c88596df700000000171600143fe1ef9c0b24bfcc2f211f07922029e7fefa3eccfdffffffa1ad77c5334fc525f7c9b9f121bcf4e17f4868c4b3f4b6aa54e19500ca700f900500000017160014bd58af0a4dc531faa456f0c4b67fa160ab0144aefdffffff59cb67be5f49fbe0bf5a3fc0b46c4a7d935098163bc76237282bac95b324616b0000000017160014b401e63e2df1b883677c5506102c5728388c9417fdffffff01d54e1200000000001976a914052e8df65179b918f9e216828e4d0a956ae78b6988ac02473044022036c5609d2960e0a88bdb0a3966a05ec99ebf9a6e903b94ca6e4a276157a9609702207194a821bd8c21b76675ae3172ae89c9608b7994c39cf0d3a8abe7089851d58f012102886c612834a7476ae1bfa325afb91cb90c0871e3e191217768879c06539166ed02473044022068a568666cecfa3959faee6d454265ca6750c8747269ba0bb310d5064e80324a022045438a4b1f0fb8a94121b4cf5f1fe75f6d35e9a5a37ec5b7cb0732cc5f62d2bb01210271f4f74a99814e62bede99ce82c64235c9a4fe7870337d767de60970cd180cbd02473044022044cd118d92e29cedf2eecb38eae306790c39d9220a68919737acd4a7e595f91302200ee2b554f5d58b04a15e14d19104ceb1a696101a62c4a9b678ed12c558f4feb7012102b1d93b5080ae8954e2423bdb5ce125608bb73b8b21463e538761f2b422bbd4220247304402202b21d49f5a6157fc6d161581252354f19501a86c53943fc34818af887a41d99c02204b690f37238964e8e9ef14683b6e7e193290d5d7e96ff72f4a4d3956d430f6da012103dc7fe3997a4ebec74000bae5bd1d223b04d8386ada2b90a5cfcc4b831ac49c5802473044022100eec9f689ccdf87c89d53ff099906dae5bf7b151b6c9ffb5a8642dd7911be6196021f18097205f03d6490b76f7bb4a44c49737e8ee039bdb7236c19a00151085b0201210347d8a1bb91e73c46cbf2d30c242515c60caebccbdc0d6f2c89bf72c5a1769e6e02483045022100d4088a2cb274819e571b4b31ff36bac616e9d4f5b81ca6997aa4974c27ef66f40220666fcb8df1dabf910b53b56bf10d146e5ab4bfaba1cafa2387bacc89f332703c012102809b6b55031f69c2216f892bf7d0d5d92555d370557892685368f149da97730a0b490800", "vin": [{"txinwitness": ["3044022036c5609d2960e0a88bdb0a3966a05ec99ebf9a6e903b94ca6e4a276157a9609702207194a821bd8c21b76675ae3172ae89c9608b7994c39cf0d3a8abe7089851d58f01", "02886c612834a7476ae1bfa325afb91cb90c0871e3e191217768879c06539166ed"], "sequence": 4294967293, "scriptSig": {"hex": "160014df5b1a27af478b993ac5fb8eaa497411311ecfa5", "asm": "0014df5b1a27af478b993ac5fb8eaa497411311ecfa5"}, "vout": 1, "txid": "63f49ff8beb0cc6cad5b00479004107cf43ca25cd3015a39da08febff12b1a84"}, {"txinwitness": ["3044022068a568666cecfa3959faee6d454265ca6750c8747269ba0bb310d5064e80324a022045438a4b1f0fb8a94121b4cf5f1fe75f6d35e9a5a37ec5b7cb0732cc5f62d2bb01", "0271f4f74a99814e62bede99ce82c64235c9a4fe7870337d767de60970cd180cbd"], "sequence": 4294967293, "scriptSig": {"hex": "160014ca2d0fd170ac57ca5e463771e662bfc315aaa091", "asm": "0014ca2d0fd170ac57ca5e463771e662bfc315aaa091"}, "vout": 1, "txid": "a15c97647994244d9460f8d6c48c46499805fb4f09555d9c9852e72dd00bf640"}, {"txinwitness": ["3044022044cd118d92e29cedf2eecb38eae306790c39d9220a68919737acd4a7e595f91302200ee2b554f5d58b04a15e14d19104ceb1a696101a62c4a9b678ed12c558f4feb701", "02b1d93b5080ae8954e2423bdb5ce125608bb73b8b21463e538761f2b422bbd422"], "sequence": 4294967293, "scriptSig": {"hex": "160014020720238c2b44ca057a346f86d8a673439104cd", "asm": "0014020720238c2b44ca057a346f86d8a673439104cd"}, "vout": 0, "txid": "fb938e584d8634c73f8ccd6dfb1b095e054816a485c3111ba52c5afa0ddaa114"}, {"txinwitness": ["304402202b21d49f5a6157fc6d161581252354f19501a86c53943fc34818af887a41d99c02204b690f37238964e8e9ef14683b6e7e193290d5d7e96ff72f4a4d3956d430f6da01", "03dc7fe3997a4ebec74000bae5bd1d223b04d8386ada2b90a5cfcc4b831ac49c58"], "sequence": 4294967293, "scriptSig": {"hex": "1600143fe1ef9c0b24bfcc2f211f07922029e7fefa3ecc", "asm": "00143fe1ef9c0b24bfcc2f211f07922029e7fefa3ecc"}, "vout": 0, "txid": "f76d59887c58ca89c8ff8c7c608d33191d7f82f8b3a966a0e4fd32baa23d15c9"}, {"txinwitness": ["3044022100eec9f689ccdf87c89d53ff099906dae5bf7b151b6c9ffb5a8642dd7911be6196021f18097205f03d6490b76f7bb4a44c49737e8ee039bdb7236c19a00151085b0201", "0347d8a1bb91e73c46cbf2d30c242515c60caebccbdc0d6f2c89bf72c5a1769e6e"], "sequence": 4294967293, "scriptSig": {"hex": "160014bd58af0a4dc531faa456f0c4b67fa160ab0144ae", "asm": "0014bd58af0a4dc531faa456f0c4b67fa160ab0144ae"}, "vout": 5, "txid": "900f70ca0095e154aab6f4b3c468487fe1f4bc21f1b9c9f725c54f33c577ada1"}, {"txinwitness": ["3045022100d4088a2cb274819e571b4b31ff36bac616e9d4f5b81ca6997aa4974c27ef66f40220666fcb8df1dabf910b53b56bf10d146e5ab4bfaba1cafa2387bacc89f332703c01", "02809b6b55031f69c2216f892bf7d0d5d92555d370557892685368f149da97730a"], "sequence": 4294967293, "scriptSig": {"hex": "160014b401e63e2df1b883677c5506102c5728388c9417", "asm": "0014b401e63e2df1b883677c5506102c5728388c9417"}, "vout": 0, "txid": "6b6124b395ac2b283762c73b169850937d4a6cb4c03f5abfe0fb495fbe67cb59"}], "txid": "008efb0a87aa54c170e2415a09a47ade31d091bbbbd45f54eec3ffc221f29b94", "blocktime": 1537869901, "version": 1, "confirmations": 11524, "time": 1537869901, "locktime": 542987, "vsize": 590, "size": 1073}