{"hash": "24fdfa1a32662927f2e90931f42ae81c46742ee2c0e9987c9deff9ff9e65d9a1", "blockhash": "0000000000000000001f0ddff1eddb255c1121bcd4da4f1bc9a0da00cae72433", "vout": [{"scriptPubKey": {"reqSigs": 1, "hex": "00209acbbe667ec1465bf05b64696ded3c1b635e709a45b8ade689e30e4809194388", "addresses": ["bc1qnt9muen7c9r9huzmv35kmmfurd34uuy6gku2me5fuv8yszgegwyqtmuzlm"], "asm": "0 9acbbe667ec1465bf05b64696ded3c1b635e709a45b8ade689e30e4809194388", "type": "witness_v0_scripthash"}, "value": 0.006, "n": 0}, {"scriptPubKey": {"reqSigs": 1, "hex": "001452286225e93a3005d89a768ab89fd5e6021ee987", "addresses": ["bc1q2g5xyf0f8gcqtky6w69t3874ucppa6v83ycy2p"], "asm": "0 52286225e93a3005d89a768ab89fd5e6021ee987", "type": "witness_v0_keyhash"}, "value": 0.08812998, "n": 1}], "hex": "01000000000101ff5f9093f4764cf6d717d03c1462698ef30e91913275534f6a4e2e03b1ea52f80100000000ffffffff02c0270900000000002200209acbbe667ec1465bf05b64696ded3c1b635e709a45b8ade689e30e4809194388c67986000000000016001452286225e93a3005d89a768ab89fd5e6021ee987024730440220236cec8da7df3850c78b20b639283303de90bcb76f9a23e23b10641b6c0b52a7022019ca8a1b014921ee4846771c556d64df23083f4fa625869fd8bcb84afa0b997e012103995cecabb4f17c388099ee46a9814646cacbbd110e74717b7100f02d84d9b32e00000000", "vin": [{"txinwitness": ["30440220236cec8da7df3850c78b20b639283303de90bcb76f9a23e23b10641b6c0b52a7022019ca8a1b014921ee4846771c556d64df23083f4fa625869fd8bcb84afa0b997e01", "03995cecabb4f17c388099ee46a9814646cacbbd110e74717b7100f02d84d9b32e"], "sequence": 4294967295, "scriptSig": {"hex": "", "asm": ""}, "vout": 1, "txid": "f852eab1032e4e6a4f53753291910ef38e6962143cd017d7f64c76f493905fff"}], "txid": "009bdb19ff74be4303a2ec516a025cc6a06d4808be941215405e2f009c83cef5", "blocktime": 1537872018, "version": 1, "confirmations": 11489, "time": 1537872018, "locktime": 0, "vsize": 153, "size": 234}