{"hash": "009c9d8128e3bf77127b4caf8b31ba8e02ab3d31d9c91b400dfb7759e5316600", "blockhash": "00000000000000000004ffacab907a6b429b9a5745fa0b75af4234bf69dd7176", "vout": [{"scriptPubKey": {"reqSigs": 1, "hex": "76a9141a8e5ce884b285fcf9c29be19d3d25c62d7bdad388ac", "addresses": ["13RR7Y96GW7GxJSiUSHUXDhsuyweSs13iZ"], "asm": "OP_DUP OP_HASH160 1a8e5ce884b285fcf9c29be19d3d25c62d7bdad3 OP_EQUALVERIFY OP_CHECKSIG", "type": "pubkeyhash"}, "value": 0.02394116, "n": 0}], "hex": "01000000012761e220e5193dc479d6d0544538e1f209c2e05d6270aa7ccc21b57f88605251010000006a47304402207d199f923c07838c5e3bc2aab0e796f3134a0b189e48fd2851ab5802d4ff370f02204e6f7210ddeed241aecf3ce373c04c49dc9feffeecacb5c0c65e354a31e742410121038ddb85294b0684bd65480ebc1ae90aaccdbcce8241131e0ae5e815136f633ae3f0ffffff0104882400000000001976a9141a8e5ce884b285fcf9c29be19d3d25c62d7bdad388ac00000000", "vin": [{"sequence": 4294967280, "scriptSig": {"hex": "47304402207d199f923c07838c5e3bc2aab0e796f3134a0b189e48fd2851ab5802d4ff370f02204e6f7210ddeed241aecf3ce373c04c49dc9feffeecacb5c0c65e354a31e742410121038ddb85294b0684bd65480ebc1ae90aaccdbcce8241131e0ae5e815136f633ae3", "asm": "304402207d199f923c07838c5e3bc2aab0e796f3134a0b189e48fd2851ab5802d4ff370f02204e6f7210ddeed241aecf3ce373c04c49dc9feffeecacb5c0c65e354a31e74241[ALL] 038ddb85294b0684bd65480ebc1ae90aaccdbcce8241131e0ae5e815136f633ae3"}, "vout": 1, "txid": "515260887fb521cc7caa70625de0c209f2e1384554d0d679c43d19e520e26127"}], "txid": "009c9d8128e3bf77127b4caf8b31ba8e02ab3d31d9c91b400dfb7759e5316600", "blocktime": 1537875543, "version": 1, "confirmations": 11464, "time": 1537875543, "locktime": 0, "vsize": 191, "size": 191}