{"hash": "00a0e592712d70ecbc4b7a435b649e0755f3bfba933ab3b32cbb9cb11ac6d5ad", "blockhash": "0000000000000000000dcc0f55137456b1a82d3642486a52398922ac4d620174", "vout": [{"scriptPubKey": {"reqSigs": 1, "hex": "a9147fb15f39107b2fadc960dbffe256abac306813a187", "addresses": ["3DLCDvgYPVpcQSzMmfyq2U7YNTSNseWN1X"], "asm": "OP_HASH160 7fb15f39107b2fadc960dbffe256abac306813a1 OP_EQUAL", "type": "scripthash"}, "value": 0.00477019, "n": 0}], "hex": "010000000159ac2efe70ee69dfd3631c5e58405a74b5935a49fb1dfd8c35a24377f870ae1d000000006a47304402201632e94cf16f9357fa14efbce02c8be753cba42ca6631e67ba7b6403662dde8e02207559ee773d36427de5d15f5dbaf121bc1afc79ced5ec6c523917798f482434c701210397a4536a7f0068e7d42383811483f18c8d3fa4a436dab7cb2271bdabdc716d47feffffff015b4707000000000017a9147fb15f39107b2fadc960dbffe256abac306813a1870c490800", "vin": [{"sequence": 4294967294, "scriptSig": {"hex": "47304402201632e94cf16f9357fa14efbce02c8be753cba42ca6631e67ba7b6403662dde8e02207559ee773d36427de5d15f5dbaf121bc1afc79ced5ec6c523917798f482434c701210397a4536a7f0068e7d42383811483f18c8d3fa4a436dab7cb2271bdabdc716d47", "asm": "304402201632e94cf16f9357fa14efbce02c8be753cba42ca6631e67ba7b6403662dde8e02207559ee773d36427de5d15f5dbaf121bc1afc79ced5ec6c523917798f482434c7[ALL] 0397a4536a7f0068e7d42383811483f18c8d3fa4a436dab7cb2271bdabdc716d47"}, "vout": 0, "txid": "1dae70f87743a2358cfd1dfb495a93b5745a40585e1c63d3df69ee70fe2eac59"}], "txid": "00a0e592712d70ecbc4b7a435b649e0755f3bfba933ab3b32cbb9cb11ac6d5ad", "blocktime": 1537870268, "version": 1, "confirmations": 11518, "time": 1537870268, "locktime": 542988, "vsize": 189, "size": 189}