{"hash": "fe77854a8a100151a09b2ddc7c1deec0ab15d4b633056216689ddd0496930774", "blockhash": "0000000000000000001e0dab787dd257d1dbfcb92a98c2207d5e1078be1f4165", "vout": [{"scriptPubKey": {"reqSigs": 1, "hex": "76a9148c45aedf3ab6c99208a9976ee0b9e7d1fda67cc388ac", "addresses": ["1Dnh5XJf2kkE4Ycb1cVh2YQKDoTXf5TZXm"], "asm": "OP_DUP OP_HASH160 8c45aedf3ab6c99208a9976ee0b9e7d1fda67cc3 OP_EQUALVERIFY OP_CHECKSIG", "type": "pubkeyhash"}, "value": 0.00508923, "n": 0}, {"scriptPubKey": {"reqSigs": 1, "hex": "0014c1718d919a584d8ce4b0587a3b268489b55eed66", "addresses": ["bc1qc9ccmyv6tpxcee9stparkf5y3x64amtxzrwsj3"], "asm": "0 c1718d919a584d8ce4b0587a3b268489b55eed66", "type": "witness_v0_keyhash"}, "value": 3.894e-05, "n": 1}], "hex": "010000000001018885886cb8c5e59e69a1cb55cbf6b9c78a9574351a4a002ac4bc7cac4af103c40100000000ffffffff02fbc30700000000001976a9148c45aedf3ab6c99208a9976ee0b9e7d1fda67cc388ac360f000000000000160014c1718d919a584d8ce4b0587a3b268489b55eed6602473044022064f2e0c23f4dfbc128ad0781806b74740f2d2db080d72f978e23820de7b2aab2022006bc69cbb06f8f5b794c7bb546f172c6a66885420330e6bcdb07f1234096b59d012103935376974c776491ed6c98790b970f022d394594f4dabab51d1922a7f91e637500000000", "vin": [{"txinwitness": ["3044022064f2e0c23f4dfbc128ad0781806b74740f2d2db080d72f978e23820de7b2aab2022006bc69cbb06f8f5b794c7bb546f172c6a66885420330e6bcdb07f1234096b59d01", "03935376974c776491ed6c98790b970f022d394594f4dabab51d1922a7f91e6375"], "sequence": 4294967295, "scriptSig": {"hex": "", "asm": ""}, "vout": 1, "txid": "c403f14aac7cbcc42a004a1a3574958ac7b9f6cb55cba1699ee5c5b86c888588"}], "txid": "00a28a48e6d3a3afa7ebb36b34a22e9ed4b7d6aa4891533ae14cbe3dd039e2b7", "blocktime": 1537872475, "version": 1, "confirmations": 11487, "time": 1537872475, "locktime": 0, "vsize": 144, "size": 225}