{"hash": "00aafa9b8ed44ab64dd940a28479002f8643f7fa4b28a6873b0350988d2e4dc9", "blockhash": "0000000000000000000baef3f32e3676a92c3b2e5da21b426e4f302fc371ce76", "vout": [{"scriptPubKey": {"reqSigs": 1, "hex": "76a914c02b2e6bc2b25b911ec7efeb3882217106849f2d88ac", "addresses": ["1JX6U88gP691LuWv4B4YM7bugRYVfoepHm"], "asm": "OP_DUP OP_HASH160 c02b2e6bc2b25b911ec7efeb3882217106849f2d OP_EQUALVERIFY OP_CHECKSIG", "type": "pubkeyhash"}, "value": 0.0062952, "n": 0}, {"scriptPubKey": {"type": "nulldata", "hex": "6a4c50000078280001b7d718a1ed20d6560cda168f019d6ddc0f1b8ff117702940d64fa54d8eb2d5d1a0011579c7157c8eb53bf24801745baa1e860613b965dcc703ad1d100759d4ba30d2c37bb011d97e02cf", "asm": "OP_RETURN 000078280001b7d718a1ed20d6560cda168f019d6ddc0f1b8ff117702940d64fa54d8eb2d5d1a0011579c7157c8eb53bf24801745baa1e860613b965dcc703ad1d100759d4ba30d2c37bb011d97e02cf"}, "value": 0.0, "n": 1}], "hex": "01000000011af2ca82b1b40677d1704422b42fe7ba9c637a6c68b6d4b9a247a8dc597fc2f8000000006b483045022100bde934dd6f7f1bd000cd1093c17bd9f9da34a3bff97c6120baab76ca4e869b9302201181f28b6576b4d80a55742c2d764855f5a299c891c5774f0c4a1fd2470d183d012102dee9cee65cf53722c587d7dd9111ed258d37f4491114269284228f93e46dc480ffffffff02109b0900000000001976a914c02b2e6bc2b25b911ec7efeb3882217106849f2d88ac0000000000000000536a4c50000078280001b7d718a1ed20d6560cda168f019d6ddc0f1b8ff117702940d64fa54d8eb2d5d1a0011579c7157c8eb53bf24801745baa1e860613b965dcc703ad1d100759d4ba30d2c37bb011d97e02cf00000000", "vin": [{"sequence": 4294967295, "scriptSig": {"hex": "483045022100bde934dd6f7f1bd000cd1093c17bd9f9da34a3bff97c6120baab76ca4e869b9302201181f28b6576b4d80a55742c2d764855f5a299c891c5774f0c4a1fd2470d183d012102dee9cee65cf53722c587d7dd9111ed258d37f4491114269284228f93e46dc480", "asm": "3045022100bde934dd6f7f1bd000cd1093c17bd9f9da34a3bff97c6120baab76ca4e869b9302201181f28b6576b4d80a55742c2d764855f5a299c891c5774f0c4a1fd2470d183d[ALL] 02dee9cee65cf53722c587d7dd9111ed258d37f4491114269284228f93e46dc480"}, "vout": 0, "txid": "f8c27f59dca847a2b9d4b6686c7a639cbae72fb4224470d17706b4b182caf21a"}], "txid": "00aafa9b8ed44ab64dd940a28479002f8643f7fa4b28a6873b0350988d2e4dc9", "blocktime": 1537876114, "version": 1, "confirmations": 11463, "time": 1537876114, "locktime": 0, "vsize": 284, "size": 284}