{"hash": "07beb65ace9213a0c6d8558478a50282426aa4b5160332eac85c93963a2fa1e2", "blockhash": "0000000000000000000baef3f32e3676a92c3b2e5da21b426e4f302fc371ce76", "vout": [{"scriptPubKey": {"reqSigs": 1, "hex": "76a9140f0891304ecd96bb2bd7e9a24ac61658b3d9035a88ac", "addresses": ["12NVQ8iTTBQdfFEvaDvD1RZAbUaRFaQq9M"], "asm": "OP_DUP OP_HASH160 0f0891304ecd96bb2bd7e9a24ac61658b3d9035a OP_EQUALVERIFY OP_CHECKSIG", "type": "pubkeyhash"}, "value": 0.72247423, "n": 0}, {"scriptPubKey": {"reqSigs": 1, "hex": "a9141270f570222a0cfbf98b3e38582659b1aa00c71f87", "addresses": ["33NXQWQBaLsgEKnbTyvXCFPDg2k13ciA9R"], "asm": "OP_HASH160 1270f570222a0cfbf98b3e38582659b1aa00c71f OP_EQUAL", "type": "scripthash"}, "value": 0.32, "n": 1}, {"scriptPubKey": {"reqSigs": 1, "hex": "0020701a8d401c84fb13e6baf169d59684e17abd9fa216c8cc5b9fc63d622ff8c58d", "addresses": ["bc1qwqdg6squsna38e46795at95yu9atm8azzmyvckulcc7kytlcckxswvvzej"], "asm": "0 701a8d401c84fb13e6baf169d59684e17abd9fa216c8cc5b9fc63d622ff8c58d", "type": "witness_v0_scripthash"}, "value": 1.80162699, "n": 2}], "hex": "010000000001014cccd469a8a6bc77552932f7a651059a478e73c2293cf2ee9e573fef5670e54d0100000000ffffffff037f684e04000000001976a9140f0891304ecd96bb2bd7e9a24ac61658b3d9035a88ac0048e8010000000017a9141270f570222a0cfbf98b3e38582659b1aa00c71f878b10bd0a00000000220020701a8d401c84fb13e6baf169d59684e17abd9fa216c8cc5b9fc63d622ff8c58d0400483045022100a069e31f317966e5ac09a5fd84e2bc334e5176a316e9352cd6de5c6632332fc702203daab405835b031db7aeaf72a90c5b9907213dda7577c610328b300d283f107501473044022038219505554f8324ce2bff1e0f0ed8280f81db1fa2b546a99f7cc59db3c291e902205243ac9415c8a68194efdaeb0eb521c6a91cdaf1443b26b96298fdceb1e7ed85016952210375e00eb72e29da82b89367947f29ef34afb75e8654f6ea368e0acdfd92976b7c2103a1b26313f430c4b15bb1fdce663207659d8cac749a0e53d70eff01874496feff2103c96d495bfdd5ba4145e3e046fee45e84a8a48ad05bd8dbb395c011a32cf9f88053ae00000000", "vin": [{"txinwitness": ["", "3045022100a069e31f317966e5ac09a5fd84e2bc334e5176a316e9352cd6de5c6632332fc702203daab405835b031db7aeaf72a90c5b9907213dda7577c610328b300d283f107501", "3044022038219505554f8324ce2bff1e0f0ed8280f81db1fa2b546a99f7cc59db3c291e902205243ac9415c8a68194efdaeb0eb521c6a91cdaf1443b26b96298fdceb1e7ed8501", "52210375e00eb72e29da82b89367947f29ef34afb75e8654f6ea368e0acdfd92976b7c2103a1b26313f430c4b15bb1fdce663207659d8cac749a0e53d70eff01874496feff2103c96d495bfdd5ba4145e3e046fee45e84a8a48ad05bd8dbb395c011a32cf9f88053ae"], "sequence": 4294967295, "scriptSig": {"hex": "", "asm": ""}, "vout": 1, "txid": "4de57056ef3f579eeef23c29c2738e479a0551a6f732295577bca6a869d4cc4c"}], "txid": "00adc7c60d8cb47f17436b0effdec1749fca4c413683791013f1b1cc3b666367", "blocktime": 1537876114, "version": 1, "confirmations": 11459, "time": 1537876114, "locktime": 0, "vsize": 224, "size": 415}