{"hash": "00aedd10551a7dfee96c05e0f07a843431548b852810d8a175f0a3b36c95b6ac", "blockhash": "0000000000000000001f76057863aec43deb6fa401d9628bb513d65a8098bfab", "vout": [{"scriptPubKey": {"reqSigs": 1, "hex": "76a91456b54e35e1ab5f9aa2e881ff96ec8b471251eb5088ac", "addresses": ["18uUJprYnWBc42UvbpSuKo898ykag2uQPS"], "asm": "OP_DUP OP_HASH160 56b54e35e1ab5f9aa2e881ff96ec8b471251eb50 OP_EQUALVERIFY OP_CHECKSIG", "type": "pubkeyhash"}, "value": 7.587e-05, "n": 0}, {"scriptPubKey": {"reqSigs": 1, "hex": "a914dbbbca4d25d07c06d512bfb99de684ae97fd7dcb87", "addresses": ["3MirsT1QduxcXPnQYxx7b69NbqQEYKSYei"], "asm": "OP_HASH160 dbbbca4d25d07c06d512bfb99de684ae97fd7dcb OP_EQUAL", "type": "scripthash"}, "value": 0.002, "n": 1}], "hex": "0100000001d5f963485227fff509daccb748122cdeeede96c0c48c6dc5a8c4f6eed9ab3e23000000006a47304402200943b167ce1721950f6e407aea62d2b3703a816183c71072c95744361603fec9022016ee973f9f731ccf4529d42a21ceb37878fa145f9fd44c0d9a5d51e9c30ec9310121028b128814fd1ea4c9b1ffa74da4faa2a2064d999e127faa826d283c91bfb9da4effffffff02a31d0000000000001976a91456b54e35e1ab5f9aa2e881ff96ec8b471251eb5088ac400d03000000000017a914dbbbca4d25d07c06d512bfb99de684ae97fd7dcb8700000000", "vin": [{"sequence": 4294967295, "scriptSig": {"hex": "47304402200943b167ce1721950f6e407aea62d2b3703a816183c71072c95744361603fec9022016ee973f9f731ccf4529d42a21ceb37878fa145f9fd44c0d9a5d51e9c30ec9310121028b128814fd1ea4c9b1ffa74da4faa2a2064d999e127faa826d283c91bfb9da4e", "asm": "304402200943b167ce1721950f6e407aea62d2b3703a816183c71072c95744361603fec9022016ee973f9f731ccf4529d42a21ceb37878fa145f9fd44c0d9a5d51e9c30ec931[ALL] 028b128814fd1ea4c9b1ffa74da4faa2a2064d999e127faa826d283c91bfb9da4e"}, "vout": 0, "txid": "233eabd9eef6c4a8c56d8cc4c096deeede2c1248b7ccda09f5ff27524863f9d5"}], "txid": "00aedd10551a7dfee96c05e0f07a843431548b852810d8a175f0a3b36c95b6ac", "blocktime": 1537873891, "version": 1, "confirmations": 11478, "time": 1537873891, "locktime": 0, "vsize": 223, "size": 223}