{"hash": "00b720788a9421780c91395de61f55daf5e581027a5e8ed5cc6f42534b5b5ee9", "blockhash": "0000000000000000000e13cef7c366c0283d82e591d1acd082e914b08063cdf1", "vout": [{"scriptPubKey": {"reqSigs": 1, "hex": "76a9142e64eca99faecfd73fdd34fe81998d9ef961dab288ac", "addresses": ["15EJzBNd27yMJy25vvN8Ew7KnBsrGg1nba"], "asm": "OP_DUP OP_HASH160 2e64eca99faecfd73fdd34fe81998d9ef961dab2 OP_EQUALVERIFY OP_CHECKSIG", "type": "pubkeyhash"}, "value": 8.26e-06, "n": 0}, {"scriptPubKey": {"reqSigs": 1, "hex": "a914ed9d0f9d3d2beb0c340a8558c39a9701febcaec987", "addresses": ["3PMQDoAG57wKYMNucEzfuJYEUJ7da7enBN"], "asm": "OP_HASH160 ed9d0f9d3d2beb0c340a8558c39a9701febcaec9 OP_EQUAL", "type": "scripthash"}, "value": 0.01125, "n": 1}], "hex": "0100000004b8b973c7f1ff77db98aabf39d2f491225458bea74c146f00fd962b230887c636000000006a47304402202c0b7ca5e86ed0138f4479bf56377dcb41e39c3d3d5504295df26a02847ec9240220270cce059d1e3c742fc23af1b571d6979d5fdaa8d7536bf3e50d8afaf88a95a2012103a2d7098075634ab46c028ffabd5dc2675de21b8fca879b3c1d4ef8e59c71ab4bffffffff9320dd525a7891ddb64e241fad4e9155dbb294550a44d2a561a1ea7602a2599a000000006a473044022052b537e995b7a92dcb0d3e671096c85fb6cea43db9b7904061db73b142fa057102207123b4bf20d73489fee9488ad6dd0698ba0fefcdc45c83a95b46f2e006b0b45701210216dbc2a505524282c9fd87a91955696b86aa6fd232caec4e1067a8b138451d7affffffff1a5422231c5e9d88b84a2c0c4ad72ad668a9ec685f936a3fe94c536be95c16ba000000006a47304402201050ba97204ca8e29391d9609055eec808dc49b2352fc871c6968d5f6de4ba5d02201a6696152e077b4a28df039da02a83ca3b479796ccb0bcf86e5032ce8d44023401210360f0b6c247e0b7188393ea49f3db05cc241bd60c45f7ebffdf14c2595000e246ffffffff4dbd88f40f692353c6327db3e7387962e5cee2363eff0d2b6ee07523db35c2ca010000006a47304402207953eddeadc8270ded2bec1c7a72305e84f68f0027d0176761ed96069f0d243402207b68c088f6aabf6c6e58f9626ed4991ed7296f41d7449ddd096e9c66a5515aa00121036a69dda2f8c9ce0b3f2e4a21e5a15e06948f338b4b95af03dd894daeca28df2cffffffff023a030000000000001976a9142e64eca99faecfd73fdd34fe81998d9ef961dab288ac882a11000000000017a914ed9d0f9d3d2beb0c340a8558c39a9701febcaec98700000000", "vin": [{"sequence": 4294967295, "scriptSig": {"hex": "47304402202c0b7ca5e86ed0138f4479bf56377dcb41e39c3d3d5504295df26a02847ec9240220270cce059d1e3c742fc23af1b571d6979d5fdaa8d7536bf3e50d8afaf88a95a2012103a2d7098075634ab46c028ffabd5dc2675de21b8fca879b3c1d4ef8e59c71ab4b", "asm": "304402202c0b7ca5e86ed0138f4479bf56377dcb41e39c3d3d5504295df26a02847ec9240220270cce059d1e3c742fc23af1b571d6979d5fdaa8d7536bf3e50d8afaf88a95a2[ALL] 03a2d7098075634ab46c028ffabd5dc2675de21b8fca879b3c1d4ef8e59c71ab4b"}, "vout": 0, "txid": "36c68708232b96fd006f144ca7be58542291f4d239bfaa98db77fff1c773b9b8"}, {"sequence": 4294967295, "scriptSig": {"hex": "473044022052b537e995b7a92dcb0d3e671096c85fb6cea43db9b7904061db73b142fa057102207123b4bf20d73489fee9488ad6dd0698ba0fefcdc45c83a95b46f2e006b0b45701210216dbc2a505524282c9fd87a91955696b86aa6fd232caec4e1067a8b138451d7a", "asm": "3044022052b537e995b7a92dcb0d3e671096c85fb6cea43db9b7904061db73b142fa057102207123b4bf20d73489fee9488ad6dd0698ba0fefcdc45c83a95b46f2e006b0b457[ALL] 0216dbc2a505524282c9fd87a91955696b86aa6fd232caec4e1067a8b138451d7a"}, "vout": 0, "txid": "9a59a20276eaa161a5d2440a5594b2db55914ead1f244eb6dd91785a52dd2093"}, {"sequence": 4294967295, "scriptSig": {"hex": "47304402201050ba97204ca8e29391d9609055eec808dc49b2352fc871c6968d5f6de4ba5d02201a6696152e077b4a28df039da02a83ca3b479796ccb0bcf86e5032ce8d44023401210360f0b6c247e0b7188393ea49f3db05cc241bd60c45f7ebffdf14c2595000e246", "asm": "304402201050ba97204ca8e29391d9609055eec808dc49b2352fc871c6968d5f6de4ba5d02201a6696152e077b4a28df039da02a83ca3b479796ccb0bcf86e5032ce8d440234[ALL] 0360f0b6c247e0b7188393ea49f3db05cc241bd60c45f7ebffdf14c2595000e246"}, "vout": 0, "txid": "ba165ce96b534ce93f6a935f68eca968d62ad74a0c2c4ab8889d5e1c2322541a"}, {"sequence": 4294967295, "scriptSig": {"hex": "47304402207953eddeadc8270ded2bec1c7a72305e84f68f0027d0176761ed96069f0d243402207b68c088f6aabf6c6e58f9626ed4991ed7296f41d7449ddd096e9c66a5515aa00121036a69dda2f8c9ce0b3f2e4a21e5a15e06948f338b4b95af03dd894daeca28df2c", "asm": "304402207953eddeadc8270ded2bec1c7a72305e84f68f0027d0176761ed96069f0d243402207b68c088f6aabf6c6e58f9626ed4991ed7296f41d7449ddd096e9c66a5515aa0[ALL] 036a69dda2f8c9ce0b3f2e4a21e5a15e06948f338b4b95af03dd894daeca28df2c"}, "vout": 1, "txid": "cac235db2375e06e2b0dff3e36e2cee5627938e7b37d32c65323690ff488bd4d"}], "txid": "00b720788a9421780c91395de61f55daf5e581027a5e8ed5cc6f42534b5b5ee9", "blocktime": 1537871767, "version": 1, "confirmations": 11495, "time": 1537871767, "locktime": 0, "vsize": 664, "size": 664}