{"hash": "00bb8725c687f3d156374fbb71be955a3b37953c970f62b5977b69a1f760a145", "blockhash": "00000000000000000004ffacab907a6b429b9a5745fa0b75af4234bf69dd7176", "vout": [{"scriptPubKey": {"reqSigs": 1, "hex": "76a9142fabd7e6f52737558ebdae573c1fb53fe70e2f8488ac", "addresses": ["15M4cuMBSmwgSJtLxePnMREuqLggG7gHuj"], "asm": "OP_DUP OP_HASH160 2fabd7e6f52737558ebdae573c1fb53fe70e2f84 OP_EQUALVERIFY OP_CHECKSIG", "type": "pubkeyhash"}, "value": 0.00083992, "n": 0}, {"scriptPubKey": {"reqSigs": 1, "hex": "76a9148b80b2920c044bdfb3ef56f0ded112c06d7ec9f288ac", "addresses": ["1Did6j8R1caPnxGHhLCsFgWZ6bQdWgx9Xm"], "asm": "OP_DUP OP_HASH160 8b80b2920c044bdfb3ef56f0ded112c06d7ec9f2 OP_EQUALVERIFY OP_CHECKSIG", "type": "pubkeyhash"}, "value": 3.448e-05, "n": 1}], "hex": "02000000016e10ba672c626838a060bbdf7782540dfa60d5d2619a81297d3d6576cae4b9af000000006a47304402201e2aaf7552f55b13b23d27afbd4e3a9a0379d6ddb34e29a5f52285f0d1be462e022015f2b31bc082656a125f42ed310dd0d33fefdb0dedd0248d76f87e5fb25aec4b012102f05b6230d55787f5ae4d15d23b30b3b26a4f98617366f5aea40705576fbe9f1afeffffff0218480100000000001976a9142fabd7e6f52737558ebdae573c1fb53fe70e2f8488ac780d0000000000001976a9148b80b2920c044bdfb3ef56f0ded112c06d7ec9f288ac16490800", "vin": [{"sequence": 4294967294, "scriptSig": {"hex": "47304402201e2aaf7552f55b13b23d27afbd4e3a9a0379d6ddb34e29a5f52285f0d1be462e022015f2b31bc082656a125f42ed310dd0d33fefdb0dedd0248d76f87e5fb25aec4b012102f05b6230d55787f5ae4d15d23b30b3b26a4f98617366f5aea40705576fbe9f1a", "asm": "304402201e2aaf7552f55b13b23d27afbd4e3a9a0379d6ddb34e29a5f52285f0d1be462e022015f2b31bc082656a125f42ed310dd0d33fefdb0dedd0248d76f87e5fb25aec4b[ALL] 02f05b6230d55787f5ae4d15d23b30b3b26a4f98617366f5aea40705576fbe9f1a"}, "vout": 0, "txid": "afb9e4ca76653d7d29819a61d2d560fa0d548277dfbb60a03868622c67ba106e"}], "txid": "00bb8725c687f3d156374fbb71be955a3b37953c970f62b5977b69a1f760a145", "blocktime": 1537875543, "version": 2, "confirmations": 11464, "time": 1537875543, "locktime": 542998, "vsize": 225, "size": 225}