{"hash": "59239cc2b9fc8f48e40d43290c7ceedb448394ea6f059692f2ab107879b377f6", "blockhash": "00000000000000000018f53835495a110e01622372bf6ae95dc86f2b0ab887b0", "vout": [{"scriptPubKey": {"reqSigs": 1, "hex": "76a9148992813741442611d927d0ad0fa5ad75066d8ce688ac", "addresses": ["1DYR5cLP6nRYFRz1Fin6rCjHZvinijjpxb"], "asm": "OP_DUP OP_HASH160 8992813741442611d927d0ad0fa5ad75066d8ce6 OP_EQUALVERIFY OP_CHECKSIG", "type": "pubkeyhash"}, "value": 0.00249702, "n": 0}], "hex": "0200000000010145ad68a382932cdb9bae59295697689e02d5697d78dba894a19a85246ef347e30000000017160014a30679d4c4945cd41989704450f4d8290f2d8b31ffffffff0166cf0300000000001976a9148992813741442611d927d0ad0fa5ad75066d8ce688ac02483045022100f953abc4512e379d81e3d0b55822c3bc21b0d9b118fe132c58fb3b377bfae49602205d240455df7a988bdf56810c50f5499c3e4827809b01f8be202f6030245b5c110121027a0146f355230623578bd374f51f86011fbae34e730bfbe9a3c5e0846f4444b200000000", "vin": [{"txinwitness": ["3045022100f953abc4512e379d81e3d0b55822c3bc21b0d9b118fe132c58fb3b377bfae49602205d240455df7a988bdf56810c50f5499c3e4827809b01f8be202f6030245b5c1101", "027a0146f355230623578bd374f51f86011fbae34e730bfbe9a3c5e0846f4444b2"], "sequence": 4294967295, "scriptSig": {"hex": "160014a30679d4c4945cd41989704450f4d8290f2d8b31", "asm": "0014a30679d4c4945cd41989704450f4d8290f2d8b31"}, "vout": 0, "txid": "e347f36e24859aa194a8db787d69d5029e6897562959ae9bdb2c9382a368ad45"}], "txid": "00beffce5c0c8a3fdea46648689f6d7f45fa52aa6a49cf2952c9cb0c308a2a2d", "blocktime": 1537870928, "version": 2, "confirmations": 11512, "time": 1537870928, "locktime": 0, "vsize": 136, "size": 218}