{"hash": "00c65a63a9081d73e1eed03294480502f51575f02b8825880adcee2c36cc1735", "blockhash": "000000000000000000022b45ed06c6f4ccd3cf7fb5ba4856ebd2e58215665228", "vout": [{"scriptPubKey": {"type": "nulldata", "hex": "6a146f6d6e69000000000000001f0000048c27395000", "asm": "OP_RETURN 6f6d6e69000000000000001f0000048c27395000"}, "value": 0.0, "n": 0}, {"scriptPubKey": {"reqSigs": 1, "hex": "76a914a25dec4d0011064ef106a983c39c7a540699f22088ac", "addresses": ["1FoWyxwPXuj4C6abqwhjDWdz6D4PZgYRjA"], "asm": "OP_DUP OP_HASH160 a25dec4d0011064ef106a983c39c7a540699f220 OP_EQUALVERIFY OP_CHECKSIG", "type": "pubkeyhash"}, "value": 5.46e-06, "n": 1}, {"scriptPubKey": {"reqSigs": 1, "hex": "76a91456f5fa43fd5264c36557bd4cd2d8de9e87429bc288ac", "addresses": ["18vonKbmv3DivtvHjkXWEPEFiVoyPyya9W"], "asm": "OP_DUP OP_HASH160 56f5fa43fd5264c36557bd4cd2d8de9e87429bc2 OP_EQUALVERIFY OP_CHECKSIG", "type": "pubkeyhash"}, "value": 0.00499387, "n": 2}], "hex": "010000000276b8c2a5a6ca284a98cd47e45fef30679a1ed2536e820ea7ee98eae58fc265d7020000006a47304402201a3ac87516ac5f084c88d9a78c4cdbdf2e5a0e978c9e23fb7a66b8fb9829d1b202202906ae77ebbe99ee53772443e3d0b71795cd62bcabfc125825af9a963886182f0121024e8323379cdc0eaf59bf6bf7b2a18257a2e102a9163043ae9e1b0186fa817ae7feffffff912557e17582ceb1e81d6f8ffb4f018df417ac78d3254cd8c0dfa44a279b8e73070000006a4730440220032451d9181a07c053a5dffc60bae93b6e4f03c44223d67497e5d2b1401431740220540a1afec2fc405a01dff7d8eb6e969649d1ef7674db693c967ce8c4b0d723c20121024e8323379cdc0eaf59bf6bf7b2a18257a2e102a9163043ae9e1b0186fa817ae7feffffff030000000000000000166a146f6d6e69000000000000001f0000048c2739500022020000000000001976a914a25dec4d0011064ef106a983c39c7a540699f22088acbb9e0700000000001976a91456f5fa43fd5264c36557bd4cd2d8de9e87429bc288ac0b490800", "vin": [{"sequence": 4294967294, "scriptSig": {"hex": "47304402201a3ac87516ac5f084c88d9a78c4cdbdf2e5a0e978c9e23fb7a66b8fb9829d1b202202906ae77ebbe99ee53772443e3d0b71795cd62bcabfc125825af9a963886182f0121024e8323379cdc0eaf59bf6bf7b2a18257a2e102a9163043ae9e1b0186fa817ae7", "asm": "304402201a3ac87516ac5f084c88d9a78c4cdbdf2e5a0e978c9e23fb7a66b8fb9829d1b202202906ae77ebbe99ee53772443e3d0b71795cd62bcabfc125825af9a963886182f[ALL] 024e8323379cdc0eaf59bf6bf7b2a18257a2e102a9163043ae9e1b0186fa817ae7"}, "vout": 2, "txid": "d765c28fe5ea98eea70e826e53d21e9a6730ef5fe447cd984a28caa6a5c2b876"}, {"sequence": 4294967294, "scriptSig": {"hex": "4730440220032451d9181a07c053a5dffc60bae93b6e4f03c44223d67497e5d2b1401431740220540a1afec2fc405a01dff7d8eb6e969649d1ef7674db693c967ce8c4b0d723c20121024e8323379cdc0eaf59bf6bf7b2a18257a2e102a9163043ae9e1b0186fa817ae7", "asm": "30440220032451d9181a07c053a5dffc60bae93b6e4f03c44223d67497e5d2b1401431740220540a1afec2fc405a01dff7d8eb6e969649d1ef7674db693c967ce8c4b0d723c2[ALL] 024e8323379cdc0eaf59bf6bf7b2a18257a2e102a9163043ae9e1b0186fa817ae7"}, "vout": 7, "txid": "738e9b274aa4dfc0d84c25d378ac17f48d014ffb8f6f1de8b1ce8275e1572591"}], "txid": "00c65a63a9081d73e1eed03294480502f51575f02b8825880adcee2c36cc1735", "blocktime": 1537869901, "version": 1, "confirmations": 11524, "time": 1537869901, "locktime": 542987, "vsize": 403, "size": 403}