{"hash": "00cba9e18d57fe5af43a192375c8ef52b62adcbf8508d9d0432155d71fad8066", "blockhash": "00000000000000000018f53835495a110e01622372bf6ae95dc86f2b0ab887b0", "vout": [{"scriptPubKey": {"reqSigs": 1, "hex": "76a914ac40cb956418af496960173dec9da9571bcbff0588ac", "addresses": ["1Ghnr3mA2GujsRFHyLGvMDyTWz1ZVyxFGT"], "asm": "OP_DUP OP_HASH160 ac40cb956418af496960173dec9da9571bcbff05 OP_EQUALVERIFY OP_CHECKSIG", "type": "pubkeyhash"}, "value": 2.606e-05, "n": 0}, {"scriptPubKey": {"reqSigs": 1, "hex": "76a914197d414fe1fcdd7bc0af0ffcebc9b8786b756fd888ac", "addresses": ["13Kmwg7n7jAPuSMqTXTFYxZmLTRD59598c"], "asm": "OP_DUP OP_HASH160 197d414fe1fcdd7bc0af0ffcebc9b8786b756fd8 OP_EQUALVERIFY OP_CHECKSIG", "type": "pubkeyhash"}, "value": 0.00143745, "n": 1}], "hex": "0100000002d68db32abf2253e9b8003f60934f0ad8c48f7884baa8fdb050bba64e0dd4b69d000000006b48304502210096e87d385e1c4c5e16b420bf353e8b91c587a3be2caf9be33037df041f7754d8022042486249d65f79c709512e2f8212dd7fc3932dab43dd6f8712a8f8576eda125f012103f82c79143cda7a26dd302b7b3bb671ef44533d9433515c1a2b63ffa4114f7b8fffffffff12addc1dd65d11827aeecaf7c9573f3380a06d1f3e61ae971ef6d8f83f4f1cec000000006b483045022100befa59d46eecffccd5ea1a98589ff345f34e8573f7ceb65b96a5393528a5564e02201f647f4b88a37efb263198bae16d499fe1e9feee544dfed53037d3dabadc2e890121026495b0c351bd23b260f2b6c42e432e983bff06c853731c1adb69c84b39b12911ffffffff022e0a0000000000001976a914ac40cb956418af496960173dec9da9571bcbff0588ac81310200000000001976a914197d414fe1fcdd7bc0af0ffcebc9b8786b756fd888ac00000000", "vin": [{"sequence": 4294967295, "scriptSig": {"hex": "48304502210096e87d385e1c4c5e16b420bf353e8b91c587a3be2caf9be33037df041f7754d8022042486249d65f79c709512e2f8212dd7fc3932dab43dd6f8712a8f8576eda125f012103f82c79143cda7a26dd302b7b3bb671ef44533d9433515c1a2b63ffa4114f7b8f", "asm": "304502210096e87d385e1c4c5e16b420bf353e8b91c587a3be2caf9be33037df041f7754d8022042486249d65f79c709512e2f8212dd7fc3932dab43dd6f8712a8f8576eda125f[ALL] 03f82c79143cda7a26dd302b7b3bb671ef44533d9433515c1a2b63ffa4114f7b8f"}, "vout": 0, "txid": "9db6d40d4ea6bb50b0fda8ba84788fc4d80a4f93603f00b8e95322bf2ab38dd6"}, {"sequence": 4294967295, "scriptSig": {"hex": "483045022100befa59d46eecffccd5ea1a98589ff345f34e8573f7ceb65b96a5393528a5564e02201f647f4b88a37efb263198bae16d499fe1e9feee544dfed53037d3dabadc2e890121026495b0c351bd23b260f2b6c42e432e983bff06c853731c1adb69c84b39b12911", "asm": "3045022100befa59d46eecffccd5ea1a98589ff345f34e8573f7ceb65b96a5393528a5564e02201f647f4b88a37efb263198bae16d499fe1e9feee544dfed53037d3dabadc2e89[ALL] 026495b0c351bd23b260f2b6c42e432e983bff06c853731c1adb69c84b39b12911"}, "vout": 0, "txid": "ec1c4f3ff8d8f61e97ae613e1f6da080333f57c9f7caee7a82115dd61ddcad12"}], "txid": "00cba9e18d57fe5af43a192375c8ef52b62adcbf8508d9d0432155d71fad8066", "blocktime": 1537870928, "version": 1, "confirmations": 11514, "time": 1537870928, "locktime": 0, "vsize": 374, "size": 374}