{"hash": "abaab23db242847c9aa732c4150705d844fbe2ab1326d99696b6aa17953d6545", "blockhash": "0000000000000000001e0dab787dd257d1dbfcb92a98c2207d5e1078be1f4165", "vout": [{"scriptPubKey": {"reqSigs": 1, "hex": "76a9143634110a2ac769710789fefdcd69f31e6298f5c188ac", "addresses": ["15wbs1QNw79nD665ViQpqmUpJ3SiWSt4UE"], "asm": "OP_DUP OP_HASH160 3634110a2ac769710789fefdcd69f31e6298f5c1 OP_EQUALVERIFY OP_CHECKSIG", "type": "pubkeyhash"}, "value": 0.01561995, "n": 0}, {"scriptPubKey": {"reqSigs": 1, "hex": "76a914853269921b6c6b56d6d5dd49a831adb7e6461edd88ac", "addresses": ["1D9HGEC1AkH3WjkGRPnqdAJyFwC9Bv4iQg"], "asm": "OP_DUP OP_HASH160 853269921b6c6b56d6d5dd49a831adb7e6461edd OP_EQUALVERIFY OP_CHECKSIG", "type": "pubkeyhash"}, "value": 0.01562019, "n": 1}, {"scriptPubKey": {"reqSigs": 1, "hex": "a914e488a9b1352428a2a084ae60be7f2b0d30f4858b87", "addresses": ["3NXPhnNYxjsE4Y7V27AvkoPzZGWVx7azdN"], "asm": "OP_HASH160 e488a9b1352428a2a084ae60be7f2b0d30f4858b OP_EQUAL", "type": "scripthash"}, "value": 0.00016818, "n": 2}], "hex": "0100000000010122a23030ea475edde5261010b784429b314c972f7fcca0c355979b444a5303010c00000017160014a6cae6246f5d2db7da86cd49ac05ea4c5b555052ffffffff038bd51700000000001976a9143634110a2ac769710789fefdcd69f31e6298f5c188aca3d51700000000001976a914853269921b6c6b56d6d5dd49a831adb7e6461edd88acb24100000000000017a914e488a9b1352428a2a084ae60be7f2b0d30f4858b87024830450221009444e119c9a1db69b6cbdb3e782c6745b77222d4ed5abae856d24cf48f9b48670220680022a5b1c0b9f4f478c0a76fdcf8633ffd0b2a1b88f8448e959a6e04e94e12012102a60f437372fde6f3fe36133abe5e51da96138206dffd02ca5963582e999cc06200000000", "vin": [{"txinwitness": ["30450221009444e119c9a1db69b6cbdb3e782c6745b77222d4ed5abae856d24cf48f9b48670220680022a5b1c0b9f4f478c0a76fdcf8633ffd0b2a1b88f8448e959a6e04e94e1201", "02a60f437372fde6f3fe36133abe5e51da96138206dffd02ca5963582e999cc062"], "sequence": 4294967295, "scriptSig": {"hex": "160014a6cae6246f5d2db7da86cd49ac05ea4c5b555052", "asm": "0014a6cae6246f5d2db7da86cd49ac05ea4c5b555052"}, "vout": 12, "txid": "0103534a449b9755c3a0cc7f2f974c319b4284b7101026e5dd5e47ea3030a222"}], "txid": "00ceb56b4bd5ff48ebacfb934d040b0224323d160ded8b58b0015614e91f80d3", "blocktime": 1537872475, "version": 1, "confirmations": 11486, "time": 1537872475, "locktime": 0, "vsize": 202, "size": 284}