{"hash": "efe6137fab097cb04c76da30fe2249a3b85d7cb334ec2c3d02ad012a720dd851", "blockhash": "0000000000000000000baef3f32e3676a92c3b2e5da21b426e4f302fc371ce76", "vout": [{"scriptPubKey": {"reqSigs": 1, "hex": "a914e1ed5b44fae26ad8660e0217a688c0427c001c5587", "addresses": ["3NHcJXT7Jxk6ELUwun8GqzGEBVazJixQ7b"], "asm": "OP_HASH160 e1ed5b44fae26ad8660e0217a688c0427c001c55 OP_EQUAL", "type": "scripthash"}, "value": 0.00998402, "n": 0}, {"scriptPubKey": {"reqSigs": 1, "hex": "76a91461f0fc59a501a83fa8daad1d9d5149a8477df83188ac", "addresses": ["19vsEbFTydUU6XVeZzK2yW28gBCB4YCaNG"], "asm": "OP_DUP OP_HASH160 61f0fc59a501a83fa8daad1d9d5149a8477df831 OP_EQUALVERIFY OP_CHECKSIG", "type": "pubkeyhash"}, "value": 0.042309, "n": 1}], "hex": "0200000000010126319f2d792e852ab20e1f69ca52c0e55e8c1da49d09a63e876b2b02e92610df0000000017160014597d8ccf36ac8b2efe4b5d0351a6d4b5c9fdeaadfeffffff02023c0f000000000017a914e1ed5b44fae26ad8660e0217a688c0427c001c5587f48e4000000000001976a91461f0fc59a501a83fa8daad1d9d5149a8477df83188ac024730440220377c603640ec4df241eec101fb8205d2238efbbddae58fde7d238447c8fa73a9022012a709bffbf89c2e3720c5a42ea4b0bbbdcf01680b72e5eba8e04f00982b4e3f012102004a5d5a6ffbccf836589deff2343aa483e098b054375bc2d839c4f241f6e98a17490800", "vin": [{"txinwitness": ["30440220377c603640ec4df241eec101fb8205d2238efbbddae58fde7d238447c8fa73a9022012a709bffbf89c2e3720c5a42ea4b0bbbdcf01680b72e5eba8e04f00982b4e3f01", "02004a5d5a6ffbccf836589deff2343aa483e098b054375bc2d839c4f241f6e98a"], "sequence": 4294967294, "scriptSig": {"hex": "160014597d8ccf36ac8b2efe4b5d0351a6d4b5c9fdeaad", "asm": "0014597d8ccf36ac8b2efe4b5d0351a6d4b5c9fdeaad"}, "vout": 0, "txid": "df1026e9022b6b873ea6099da41d8c5ee5c052ca691f0eb22a852e792d9f3126"}], "txid": "00d37b353ba19604e26be96e5f17ac77ec7b3d2162f0b4f7d2424e8228247ac6", "blocktime": 1537876114, "version": 2, "confirmations": 11460, "time": 1537876114, "locktime": 542999, "vsize": 168, "size": 249}