{"hash": "00d6ab2e65a05c6a426cd9c53d91900a3a3dd995c0f70f964e0ddd7c43113826", "blockhash": "0000000000000000001f0ddff1eddb255c1121bcd4da4f1bc9a0da00cae72433", "vout": [{"scriptPubKey": {"reqSigs": 1, "hex": "76a914d243e6abb9a60fbff430b421d2df4b7d59ec186088ac", "addresses": ["1LAnF8h3qMGx3TSwNUHVneBZUEpwE4gu3D"], "asm": "OP_DUP OP_HASH160 d243e6abb9a60fbff430b421d2df4b7d59ec1860 OP_EQUALVERIFY OP_CHECKSIG", "type": "pubkeyhash"}, "value": 0.00077314, "n": 0}, {"scriptPubKey": {"reqSigs": 1, "hex": "76a9144a9d2d3c91df2dcd8b3a11b25bb29a7d9269038a88ac", "addresses": ["17oXJ2R6AqQ3dcc8GxtPTJU3bHRhSe78Wu"], "asm": "OP_DUP OP_HASH160 4a9d2d3c91df2dcd8b3a11b25bb29a7d9269038a OP_EQUALVERIFY OP_CHECKSIG", "type": "pubkeyhash"}, "value": 5.46e-06, "n": 1}, {"scriptPubKey": {"type": "nulldata", "hex": "6a146f6d6e69000000000000001f00000004c5e52d00", "asm": "OP_RETURN 6f6d6e69000000000000001f00000004c5e52d00"}, "value": 0.0, "n": 2}], "hex": "0100000001981d411f6e26c1f312907c9bf69ad1a7553e780e07ea71bed224cc5f0104df61000000006b483045022100a25457af08e741750d0e17623be283a654f4c521034a39af12aa34959fcbc34e02200be935a3d98788c51d86805b26e222e3cdc257ca1cada98dcab50207ad2fade501210271977291b74f1f5f5c42157e8aae804664eaaeccfd097918450d37f28fb94d77ffffffff03022e0100000000001976a914d243e6abb9a60fbff430b421d2df4b7d59ec186088ac22020000000000001976a9144a9d2d3c91df2dcd8b3a11b25bb29a7d9269038a88ac0000000000000000166a146f6d6e69000000000000001f00000004c5e52d0000000000", "vin": [{"sequence": 4294967295, "scriptSig": {"hex": "483045022100a25457af08e741750d0e17623be283a654f4c521034a39af12aa34959fcbc34e02200be935a3d98788c51d86805b26e222e3cdc257ca1cada98dcab50207ad2fade501210271977291b74f1f5f5c42157e8aae804664eaaeccfd097918450d37f28fb94d77", "asm": "3045022100a25457af08e741750d0e17623be283a654f4c521034a39af12aa34959fcbc34e02200be935a3d98788c51d86805b26e222e3cdc257ca1cada98dcab50207ad2fade5[ALL] 0271977291b74f1f5f5c42157e8aae804664eaaeccfd097918450d37f28fb94d77"}, "vout": 0, "txid": "61df04015fcc24d2be71ea070e783e55a7d19af69b7c9012f3c1266e1f411d98"}], "txid": "00d6ab2e65a05c6a426cd9c53d91900a3a3dd995c0f70f964e0ddd7c43113826", "blocktime": 1537872018, "version": 1, "confirmations": 11489, "time": 1537872018, "locktime": 0, "vsize": 257, "size": 257}