{"hash": "00d791b4b8e190690d791d3bea70966f3ac2e28f831f21ceae4ab2a78df05ec0", "blockhash": "00000000000000000017f5eb5941039fbcee6240d03bc1f2f8e35350df66a1d8", "vout": [{"scriptPubKey": {"reqSigs": 1, "hex": "76a914bbee52a265c4a379a23c8618cd7804ce93b801e588ac", "addresses": ["1J8grq9MZj59asPVrVAeWVd7nSHAGVLEat"], "asm": "OP_DUP OP_HASH160 bbee52a265c4a379a23c8618cd7804ce93b801e5 OP_EQUALVERIFY OP_CHECKSIG", "type": "pubkeyhash"}, "value": 0.13640007, "n": 0}, {"scriptPubKey": {"reqSigs": 1, "hex": "76a9145986c90008ad858a40e64448cfab18497feacc8088ac", "addresses": ["19ANc7NJL61kZzS3U2JE91C1bbYCjiXFrZ"], "asm": "OP_DUP OP_HASH160 5986c90008ad858a40e64448cfab18497feacc80 OP_EQUALVERIFY OP_CHECKSIG", "type": "pubkeyhash"}, "value": 0.01085072, "n": 1}], "hex": "02000000030b2f12f4df8a1b40479b41777448c489ece008c5b9fda36a23071344e8c16ba4000000006b483045022100c327747fd54c426573fe188e72316ee39f63112b1a3a4495a78087ff8826a3680220486b40fe06241bfe1c324b4513420422a3fdfb026dafd8a97198523d32a3a1aa012102cc1f325151bab1446b8c2e3e2ee72a625aee61d7f9c84f1c8b75a3982b82fb3cfeffffff46f4ed50476f812a208056f075e5dac821b8f1624bc8976cf8b079d5e697b4e0010000006a47304402202afb073f193f341f1e880d3baf21fab0348a11b738fdb191f649c1d62fd4cf9b0220339938fded1dfec8a641a2ff25e0bf34ffeb18a000d4900392a62c7a42ad0563012102bc2e72d99a3b3d83f6467da18bd0bbe05504b028495f0c15f51e0c0a8bae04cdfeffffff6b22f981248fe3b695258baa844f66bf88432c039fdd30c9589811a18ffb50cc020000006a47304402206a80033169883da6b55a08b20c0717a48a925b914acb93f7a23ed43d4eba3bc9022068920922c1fd5201d01f84a9abc10e6d9ac90b57b8e4a5f7b8d13409ff99b07e012102973c4034c52533d3a60baacb48f486e9bcfa16aecc48564c8f221c7a79bfc944feffffff024721d000000000001976a914bbee52a265c4a379a23c8618cd7804ce93b801e588ac908e1000000000001976a9145986c90008ad858a40e64448cfab18497feacc8088ac15490800", "vin": [{"sequence": 4294967294, "scriptSig": {"hex": "483045022100c327747fd54c426573fe188e72316ee39f63112b1a3a4495a78087ff8826a3680220486b40fe06241bfe1c324b4513420422a3fdfb026dafd8a97198523d32a3a1aa012102cc1f325151bab1446b8c2e3e2ee72a625aee61d7f9c84f1c8b75a3982b82fb3c", "asm": "3045022100c327747fd54c426573fe188e72316ee39f63112b1a3a4495a78087ff8826a3680220486b40fe06241bfe1c324b4513420422a3fdfb026dafd8a97198523d32a3a1aa[ALL] 02cc1f325151bab1446b8c2e3e2ee72a625aee61d7f9c84f1c8b75a3982b82fb3c"}, "vout": 0, "txid": "a46bc1e8441307236aa3fdb9c508e0ec89c4487477419b47401b8adff4122f0b"}, {"sequence": 4294967294, "scriptSig": {"hex": "47304402202afb073f193f341f1e880d3baf21fab0348a11b738fdb191f649c1d62fd4cf9b0220339938fded1dfec8a641a2ff25e0bf34ffeb18a000d4900392a62c7a42ad0563012102bc2e72d99a3b3d83f6467da18bd0bbe05504b028495f0c15f51e0c0a8bae04cd", "asm": "304402202afb073f193f341f1e880d3baf21fab0348a11b738fdb191f649c1d62fd4cf9b0220339938fded1dfec8a641a2ff25e0bf34ffeb18a000d4900392a62c7a42ad0563[ALL] 02bc2e72d99a3b3d83f6467da18bd0bbe05504b028495f0c15f51e0c0a8bae04cd"}, "vout": 1, "txid": "e0b497e6d579b0f86c97c84b62f1b821c8dae575f05680202a816f4750edf446"}, {"sequence": 4294967294, "scriptSig": {"hex": "47304402206a80033169883da6b55a08b20c0717a48a925b914acb93f7a23ed43d4eba3bc9022068920922c1fd5201d01f84a9abc10e6d9ac90b57b8e4a5f7b8d13409ff99b07e012102973c4034c52533d3a60baacb48f486e9bcfa16aecc48564c8f221c7a79bfc944", "asm": "304402206a80033169883da6b55a08b20c0717a48a925b914acb93f7a23ed43d4eba3bc9022068920922c1fd5201d01f84a9abc10e6d9ac90b57b8e4a5f7b8d13409ff99b07e[ALL] 02973c4034c52533d3a60baacb48f486e9bcfa16aecc48564c8f221c7a79bfc944"}, "vout": 2, "txid": "cc50fb8fa1119858c930dd9f032c4388bf664f84aa8b2595b6e38f2481f9226b"}], "txid": "00d791b4b8e190690d791d3bea70966f3ac2e28f831f21ceae4ab2a78df05ec0", "blocktime": 1537874412, "version": 2, "confirmations": 11466, "time": 1537874412, "locktime": 542997, "vsize": 520, "size": 520}