{"hash": "00e0fd9a653222795d08f7b6c5c9dc791086b84dfb187759cd37da0754b02c04", "blockhash": "00000000000000000004ffacab907a6b429b9a5745fa0b75af4234bf69dd7176", "vout": [{"scriptPubKey": {"reqSigs": 1, "hex": "a914ce93a14e3a496ae98f9b5f69f4446bb6cbf4da7887", "addresses": ["3LXHyabLMBVmpu7mdQMExjUunGXHXXbCDy"], "asm": "OP_HASH160 ce93a14e3a496ae98f9b5f69f4446bb6cbf4da78 OP_EQUAL", "type": "scripthash"}, "value": 0.00156265, "n": 0}, {"scriptPubKey": {"reqSigs": 1, "hex": "76a914b520984c1c6d9448650bbbfe4d5a55e40c4cf19a88ac", "addresses": ["1HWiMTR8vxiGdCQp3LH67w7A7cohumFa8u"], "asm": "OP_DUP OP_HASH160 b520984c1c6d9448650bbbfe4d5a55e40c4cf19a OP_EQUALVERIFY OP_CHECKSIG", "type": "pubkeyhash"}, "value": 0.0889703, "n": 1}], "hex": "020000000124b42c3840507d666a985ea249773211089dea37a9dccaccb37001d90fe874cd010000006b483045022100ee00a6ac899c90404b2943aa702e4e45e7acb2adeded796fe60acdaedaa979e1022047a70d3e764389da054f57dd362517a797c6e543979c606adc465e4a838b27c8012102db979748bb82aac24e3e82f688b9262d56fd7ae3c9442f309259e127f2db4a52ffffffff02696202000000000017a914ce93a14e3a496ae98f9b5f69f4446bb6cbf4da788706c28700000000001976a914b520984c1c6d9448650bbbfe4d5a55e40c4cf19a88ac00000000", "vin": [{"sequence": 4294967295, "scriptSig": {"hex": "483045022100ee00a6ac899c90404b2943aa702e4e45e7acb2adeded796fe60acdaedaa979e1022047a70d3e764389da054f57dd362517a797c6e543979c606adc465e4a838b27c8012102db979748bb82aac24e3e82f688b9262d56fd7ae3c9442f309259e127f2db4a52", "asm": "3045022100ee00a6ac899c90404b2943aa702e4e45e7acb2adeded796fe60acdaedaa979e1022047a70d3e764389da054f57dd362517a797c6e543979c606adc465e4a838b27c8[ALL] 02db979748bb82aac24e3e82f688b9262d56fd7ae3c9442f309259e127f2db4a52"}, "vout": 1, "txid": "cd74e80fd90170b3cccadca937ea9d0811327749a25e986a667d5040382cb424"}], "txid": "00e0fd9a653222795d08f7b6c5c9dc791086b84dfb187759cd37da0754b02c04", "blocktime": 1537875543, "version": 2, "confirmations": 11464, "time": 1537875543, "locktime": 0, "vsize": 224, "size": 224}