{"hash": "00e0329bbf3ae3a081168d2f62620160c7be18d7e47763f7cff25498c07abad2", "blockhash": "0000000000000000001e0dab787dd257d1dbfcb92a98c2207d5e1078be1f4165", "vout": [{"scriptPubKey": {"reqSigs": 1, "hex": "76a9147b11f0309918cfe2eaad27886348b9d4b537855e88ac", "addresses": ["1CDjby2g43tRKKQoYooWPJLL6DQ2fFwqAY"], "asm": "OP_DUP OP_HASH160 7b11f0309918cfe2eaad27886348b9d4b537855e OP_EQUALVERIFY OP_CHECKSIG", "type": "pubkeyhash"}, "value": 0.00912205, "n": 0}, {"scriptPubKey": {"reqSigs": 1, "hex": "76a9146438611929060118ea682dd0559e0e906367360688ac", "addresses": ["1A8v7V7rpN5KFF94X2nFWBPBsecbUBbYpa"], "asm": "OP_DUP OP_HASH160 6438611929060118ea682dd0559e0e9063673606 OP_EQUALVERIFY OP_CHECKSIG", "type": "pubkeyhash"}, "value": 1.42707903, "n": 1}], "hex": "0100000001c28a4d64986f70257fd056f3dd56a7b3f294aefb01e66a5446256e5bb2a58ae2010000006a47304402200932142295b2e58f7d4f186546bb50fb2c1ee67f1a508432e38123a466619bbb022048687e1fb3992f6b323af98447f401b0e6c8fc228c174b7eb9351fafd8b43d2b0121024610d836d662dded124c10c466f9be04c3ec0d4aeae25513d2fd1a49dac2196affffffff024deb0d00000000001976a9147b11f0309918cfe2eaad27886348b9d4b537855e88acbf8c8108000000001976a9146438611929060118ea682dd0559e0e906367360688ac00000000", "vin": [{"sequence": 4294967295, "scriptSig": {"hex": "47304402200932142295b2e58f7d4f186546bb50fb2c1ee67f1a508432e38123a466619bbb022048687e1fb3992f6b323af98447f401b0e6c8fc228c174b7eb9351fafd8b43d2b0121024610d836d662dded124c10c466f9be04c3ec0d4aeae25513d2fd1a49dac2196a", "asm": "304402200932142295b2e58f7d4f186546bb50fb2c1ee67f1a508432e38123a466619bbb022048687e1fb3992f6b323af98447f401b0e6c8fc228c174b7eb9351fafd8b43d2b[ALL] 024610d836d662dded124c10c466f9be04c3ec0d4aeae25513d2fd1a49dac2196a"}, "vout": 1, "txid": "e28aa5b25b6e2546546ae601fbae94f2b3a756ddf356d07f25706f98644d8ac2"}], "txid": "00e0329bbf3ae3a081168d2f62620160c7be18d7e47763f7cff25498c07abad2", "blocktime": 1537872475, "version": 1, "confirmations": 11487, "time": 1537872475, "locktime": 0, "vsize": 225, "size": 225}