{"hash": "00e133369e08be37ab05c74ce293e265ac34cc887e3d671eae635026802e723a", "blockhash": "0000000000000000001e0dab787dd257d1dbfcb92a98c2207d5e1078be1f4165", "vout": [{"scriptPubKey": {"reqSigs": 1, "hex": "76a914a9f19c7e13036b5b6c73865888d595da7bc8b1f288ac", "addresses": ["1GVadsGWthdDQo8HkGPx9xh8N5B4hYXbUS"], "asm": "OP_DUP OP_HASH160 a9f19c7e13036b5b6c73865888d595da7bc8b1f2 OP_EQUALVERIFY OP_CHECKSIG", "type": "pubkeyhash"}, "value": 0.014772, "n": 0}, {"scriptPubKey": {"type": "nulldata", "hex": "6a4c50000077ae0001adaf350a813e09068a8e8f00af6c953dd567cf27e7e3ef3236678a6250975d38637e5e7ea8a59895ad68641c2c5b5baa10f20611f279415e8296bc9a9526289ac0f6612cd74e33776ee4", "asm": "OP_RETURN 000077ae0001adaf350a813e09068a8e8f00af6c953dd567cf27e7e3ef3236678a6250975d38637e5e7ea8a59895ad68641c2c5b5baa10f20611f279415e8296bc9a9526289ac0f6612cd74e33776ee4"}, "value": 0.0, "n": 1}], "hex": "01000000012e6705419ea0ce0b3e139f0a08639b010bd24992ba994ce9d541f870cfd0eb64000000006a47304402200301e4e5fec69773d82928936f5ba90fac6d7c150ec4cecc565b48aac10d03120220324e1c08f0ccef749562aa17e78235a9191603047d79692e4caeebe1496f018a012103a25f3ba7b400dfd819753996d00dd9f52674095675241322e9d566d084616cd8ffffffff02508a1600000000001976a914a9f19c7e13036b5b6c73865888d595da7bc8b1f288ac0000000000000000536a4c50000077ae0001adaf350a813e09068a8e8f00af6c953dd567cf27e7e3ef3236678a6250975d38637e5e7ea8a59895ad68641c2c5b5baa10f20611f279415e8296bc9a9526289ac0f6612cd74e33776ee400000000", "vin": [{"sequence": 4294967295, "scriptSig": {"hex": "47304402200301e4e5fec69773d82928936f5ba90fac6d7c150ec4cecc565b48aac10d03120220324e1c08f0ccef749562aa17e78235a9191603047d79692e4caeebe1496f018a012103a25f3ba7b400dfd819753996d00dd9f52674095675241322e9d566d084616cd8", "asm": "304402200301e4e5fec69773d82928936f5ba90fac6d7c150ec4cecc565b48aac10d03120220324e1c08f0ccef749562aa17e78235a9191603047d79692e4caeebe1496f018a[ALL] 03a25f3ba7b400dfd819753996d00dd9f52674095675241322e9d566d084616cd8"}, "vout": 0, "txid": "64ebd0cf70f841d5e94c99ba9249d20b019b63080a9f133e0bcea09e4105672e"}], "txid": "00e133369e08be37ab05c74ce293e265ac34cc887e3d671eae635026802e723a", "blocktime": 1537872475, "version": 1, "confirmations": 11486, "time": 1537872475, "locktime": 0, "vsize": 283, "size": 283}