{"hash": "00e218b17c1ac92d8d651d9904f7fe7afa12a240723104fe8f4f02beb3f2f762", "blockhash": "0000000000000000001cda96e906b7601b7a6fb1a3b62bca570a9e5d8f4b3de1", "vout": [{"scriptPubKey": {"reqSigs": 1, "hex": "76a914e714eb16de9977e5002f34dbf308eec228d4c08188ac", "addresses": ["1N4r9k6XUvZ6gwQhArp2u6ccGCbjpN6pvF"], "asm": "OP_DUP OP_HASH160 e714eb16de9977e5002f34dbf308eec228d4c081 OP_EQUALVERIFY OP_CHECKSIG", "type": "pubkeyhash"}, "value": 0.03098467, "n": 0}, {"scriptPubKey": {"reqSigs": 1, "hex": "76a9148e6dc5100b7eec18de8865f1d3566b1c24d53cf988ac", "addresses": ["1Dz6TBJgevdeJR2yGZ58NtmrweUkY87eWW"], "asm": "OP_DUP OP_HASH160 8e6dc5100b7eec18de8865f1d3566b1c24d53cf9 OP_EQUALVERIFY OP_CHECKSIG", "type": "pubkeyhash"}, "value": 0.00226616, "n": 1}], "hex": "010000000170b1b94a0dd865062b960fc514b1674f0b0b0f5a9c399aa142665afc6c5cb74c050000006b483045022100b285ee8f938b6a4b06e6940c51234ab88b9300498cf514fce486f503f940c2db02200e40a5a365a51bed52c362b8b76221f5d32886e51316b290880969063b3b2787012103e581e35eee7bc83d2b265f778d364727bc0a455876c821ef12f8642dc1e0b617ffffffff0263472f00000000001976a914e714eb16de9977e5002f34dbf308eec228d4c08188ac38750300000000001976a9148e6dc5100b7eec18de8865f1d3566b1c24d53cf988ac00000000", "vin": [{"sequence": 4294967295, "scriptSig": {"hex": "483045022100b285ee8f938b6a4b06e6940c51234ab88b9300498cf514fce486f503f940c2db02200e40a5a365a51bed52c362b8b76221f5d32886e51316b290880969063b3b2787012103e581e35eee7bc83d2b265f778d364727bc0a455876c821ef12f8642dc1e0b617", "asm": "3045022100b285ee8f938b6a4b06e6940c51234ab88b9300498cf514fce486f503f940c2db02200e40a5a365a51bed52c362b8b76221f5d32886e51316b290880969063b3b2787[ALL] 03e581e35eee7bc83d2b265f778d364727bc0a455876c821ef12f8642dc1e0b617"}, "vout": 5, "txid": "4cb75c6cfc5a6642a19a399c5a0f0b0b4f67b114c50f962b0665d80d4ab9b170"}], "txid": "00e218b17c1ac92d8d651d9904f7fe7afa12a240723104fe8f4f02beb3f2f762", "blocktime": 1537873282, "version": 1, "confirmations": 11481, "time": 1537873282, "locktime": 0, "vsize": 226, "size": 226}