{"hash": "00e3ce5c51f183bb53e5f9b8ec6418f14ba1a64c32507b49c7dd5f6c08cbfcc2", "blockhash": "0000000000000000001f0ddff1eddb255c1121bcd4da4f1bc9a0da00cae72433", "vout": [{"scriptPubKey": {"reqSigs": 1, "hex": "76a914ee084e8dc043522d0b11a43f846430582bb72b7788ac", "addresses": ["1NhbmptkMSFpgnQ6FQyL513vvfE6M9KPDE"], "asm": "OP_DUP OP_HASH160 ee084e8dc043522d0b11a43f846430582bb72b77 OP_EQUALVERIFY OP_CHECKSIG", "type": "pubkeyhash"}, "value": 0.07441395, "n": 0}, {"scriptPubKey": {"reqSigs": 1, "hex": "76a9140f199d6d551b99e66192f2f0d3af1cdcb966474188ac", "addresses": ["12NqpdrKbTznokmwgKJJ3DXBaJwv1Zqykk"], "asm": "OP_DUP OP_HASH160 0f199d6d551b99e66192f2f0d3af1cdcb9664741 OP_EQUALVERIFY OP_CHECKSIG", "type": "pubkeyhash"}, "value": 108.41690796, "n": 1}], "hex": "010000000100f72faa679f88a7554ea3fd61022ee9deb9d7695bea5f32c240ff0f14675f97010000006a4730440220294431f8983b5428dc31dc6a6b4caa9790a207de14cd194dc248618201b5d806022006b5b7c2837455b9b5d4a434c6a0d2666b5a54162e1c9b654c2b4d21d4526823012102a8c6c515e4ae9428f725f51a96fe9e09fb0e345819fc4bb86ce41a68751e77b4ffffffff02f38b7100000000001976a914ee084e8dc043522d0b11a43f846430582bb72b7788acac123786020000001976a9140f199d6d551b99e66192f2f0d3af1cdcb966474188ac00000000", "vin": [{"sequence": 4294967295, "scriptSig": {"hex": "4730440220294431f8983b5428dc31dc6a6b4caa9790a207de14cd194dc248618201b5d806022006b5b7c2837455b9b5d4a434c6a0d2666b5a54162e1c9b654c2b4d21d4526823012102a8c6c515e4ae9428f725f51a96fe9e09fb0e345819fc4bb86ce41a68751e77b4", "asm": "30440220294431f8983b5428dc31dc6a6b4caa9790a207de14cd194dc248618201b5d806022006b5b7c2837455b9b5d4a434c6a0d2666b5a54162e1c9b654c2b4d21d4526823[ALL] 02a8c6c515e4ae9428f725f51a96fe9e09fb0e345819fc4bb86ce41a68751e77b4"}, "vout": 1, "txid": "975f67140fff40c2325fea5b69d7b9dee92e0261fda34e55a7889f67aa2ff700"}], "txid": "00e3ce5c51f183bb53e5f9b8ec6418f14ba1a64c32507b49c7dd5f6c08cbfcc2", "blocktime": 1537872018, "version": 1, "confirmations": 11489, "time": 1537872018, "locktime": 0, "vsize": 225, "size": 225}