{"hash": "00e6e8c3ec245cb44f95c8d88e2104a5910117b7ece463ca729ff05a58e7e30c", "blockhash": "0000000000000000000e13cef7c366c0283d82e591d1acd082e914b08063cdf1", "vout": [{"scriptPubKey": {"type": "nulldata", "hex": "6a4c500000779d0001abc9a6af6c953dd567cf27e7e3ef3236678a625097bcbefa6b8351586b4e2c11c7f7018bbbbd3fbb5818bdbdc8f75baa0dcf06154ad32edb164f1d100759d4ba30d2c37bb011d97e02cf", "asm": "OP_RETURN 0000779d0001abc9a6af6c953dd567cf27e7e3ef3236678a625097bcbefa6b8351586b4e2c11c7f7018bbbbd3fbb5818bdbdc8f75baa0dcf06154ad32edb164f1d100759d4ba30d2c37bb011d97e02cf"}, "value": 0.0, "n": 0}, {"scriptPubKey": {"reqSigs": 1, "hex": "76a914c22362144afef6ff714500524ad32a03246ac7da88ac", "addresses": ["1JhWUgJCpB1HbzuVFVVt1fcnGeznZxoX54"], "asm": "OP_DUP OP_HASH160 c22362144afef6ff714500524ad32a03246ac7da OP_EQUALVERIFY OP_CHECKSIG", "type": "pubkeyhash"}, "value": 0.00645332, "n": 1}], "hex": "010000000150a2fd6876ea33809e741cc0a967921ff39584901c7126d16e966efebed11dc2010000006b483045022100951bd9eb32277ee84288d9064c82580589878fc8a071c9768765e6d8ecc85caf022019ecf2ebc624578d8a126495d6f8d6c680353813373bd08010940b47782fd7a8012102b1e3cd110da65afc760283649aa574be2ce677082fa5c24fd27e7adbfa490a1affffffff020000000000000000536a4c500000779d0001abc9a6af6c953dd567cf27e7e3ef3236678a625097bcbefa6b8351586b4e2c11c7f7018bbbbd3fbb5818bdbdc8f75baa0dcf06154ad32edb164f1d100759d4ba30d2c37bb011d97e02cfd4d80900000000001976a914c22362144afef6ff714500524ad32a03246ac7da88ac00000000", "vin": [{"sequence": 4294967295, "scriptSig": {"hex": "483045022100951bd9eb32277ee84288d9064c82580589878fc8a071c9768765e6d8ecc85caf022019ecf2ebc624578d8a126495d6f8d6c680353813373bd08010940b47782fd7a8012102b1e3cd110da65afc760283649aa574be2ce677082fa5c24fd27e7adbfa490a1a", "asm": "3045022100951bd9eb32277ee84288d9064c82580589878fc8a071c9768765e6d8ecc85caf022019ecf2ebc624578d8a126495d6f8d6c680353813373bd08010940b47782fd7a8[ALL] 02b1e3cd110da65afc760283649aa574be2ce677082fa5c24fd27e7adbfa490a1a"}, "vout": 1, "txid": "c21dd1befe6e966ed126711c908495f31f9267a9c01c749e8033ea7668fda250"}], "txid": "00e6e8c3ec245cb44f95c8d88e2104a5910117b7ece463ca729ff05a58e7e30c", "blocktime": 1537871767, "version": 1, "confirmations": 11495, "time": 1537871767, "locktime": 0, "vsize": 284, "size": 284}