{"hash": "00e86ee6a0db8304ba76ad490bd42e59ec97f76ecec5e7e390349be25cb890f9", "blockhash": "00000000000000000004ffacab907a6b429b9a5745fa0b75af4234bf69dd7176", "vout": [{"scriptPubKey": {"reqSigs": 1, "hex": "a914fce82c5a4145a6c0443fb13910859c8bc61dfee387", "addresses": ["3QkGLZkDjcuLpurm3PZd88TB71tnFCVxHo"], "asm": "OP_HASH160 fce82c5a4145a6c0443fb13910859c8bc61dfee3 OP_EQUAL", "type": "scripthash"}, "value": 0.002133, "n": 0}, {"scriptPubKey": {"reqSigs": 1, "hex": "76a914e61964116f506bc27a6fee777d16f2842de8b3d688ac", "addresses": ["1MyeqK3KSwhn68uNTtACsxbr6KiB1S5hpx"], "asm": "OP_DUP OP_HASH160 e61964116f506bc27a6fee777d16f2842de8b3d6 OP_EQUALVERIFY OP_CHECKSIG", "type": "pubkeyhash"}, "value": 0.09295806, "n": 1}], "hex": "01000000015f2d4f40e87cc7a91e7864970eeeda85cd7f89ec71cfd9a0bd66dc81d9febcde010000006a47304402201d529befd16792f8279f7783f6c95a525310dedd57568646c3397350148ecdfe022010bf8e6e7c0091bd9c44c1e426ee5a63209f91ad7af672498a30d1f5cd8d5e99012103a0c6d7cac0f3e4b6eb01eae6a1e42a5d61cd657c89ee94ea7d4676470e3f3cedffffffff02344103000000000017a914fce82c5a4145a6c0443fb13910859c8bc61dfee387bed78d00000000001976a914e61964116f506bc27a6fee777d16f2842de8b3d688ac00000000", "vin": [{"sequence": 4294967295, "scriptSig": {"hex": "47304402201d529befd16792f8279f7783f6c95a525310dedd57568646c3397350148ecdfe022010bf8e6e7c0091bd9c44c1e426ee5a63209f91ad7af672498a30d1f5cd8d5e99012103a0c6d7cac0f3e4b6eb01eae6a1e42a5d61cd657c89ee94ea7d4676470e3f3ced", "asm": "304402201d529befd16792f8279f7783f6c95a525310dedd57568646c3397350148ecdfe022010bf8e6e7c0091bd9c44c1e426ee5a63209f91ad7af672498a30d1f5cd8d5e99[ALL] 03a0c6d7cac0f3e4b6eb01eae6a1e42a5d61cd657c89ee94ea7d4676470e3f3ced"}, "vout": 1, "txid": "debcfed981dc66bda0d9cf71ec897fcd85daee0e9764781ea9c77ce8404f2d5f"}], "txid": "00e86ee6a0db8304ba76ad490bd42e59ec97f76ecec5e7e390349be25cb890f9", "blocktime": 1537875543, "version": 1, "confirmations": 11464, "time": 1537875543, "locktime": 0, "vsize": 223, "size": 223}