{"hash": "00e92b23bb28913e85a247aa4f3b2c8aaeb0cd06e64560f68d8aadd2563c5e7f", "blockhash": "0000000000000000001f76057863aec43deb6fa401d9628bb513d65a8098bfab", "vout": [{"scriptPubKey": {"reqSigs": 1, "hex": "76a914cc20cef41030adc238d838019edc43803dc4d76a88ac", "addresses": ["1KcL9hht7etDjD2z9Um8BUXtA1ikbRdUzj"], "asm": "OP_DUP OP_HASH160 cc20cef41030adc238d838019edc43803dc4d76a OP_EQUALVERIFY OP_CHECKSIG", "type": "pubkeyhash"}, "value": 1.62416207, "n": 0}, {"scriptPubKey": {"reqSigs": 1, "hex": "76a91407a1937f4d35b2d648fe4d17e1341f5d3ad257e188ac", "addresses": ["1hMHrNoTwnp2QxtURcmwBDrmeVRStpyaa"], "asm": "OP_DUP OP_HASH160 07a1937f4d35b2d648fe4d17e1341f5d3ad257e1 OP_EQUALVERIFY OP_CHECKSIG", "type": "pubkeyhash"}, "value": 0.01, "n": 1}], "hex": "010000000111435bf172c430e686af8f7a39ecbd4b84a762dc123937d26f94ba64a4202f32010000006a473044022003bd7e5904fe7eb30bed3c7b42b6997e4791170ee432b144ea18c315f22ce479022042dfa08f97254d92ca9c3a27d468d98f59cd8480ff49118acd5d915205187a6b012103cd2540b253724186ab452f4ec769af6a881d2d8b9c484d677cc398138da33c2fffffffff024f46ae09000000001976a914cc20cef41030adc238d838019edc43803dc4d76a88ac40420f00000000001976a91407a1937f4d35b2d648fe4d17e1341f5d3ad257e188ac00000000", "vin": [{"sequence": 4294967295, "scriptSig": {"hex": "473044022003bd7e5904fe7eb30bed3c7b42b6997e4791170ee432b144ea18c315f22ce479022042dfa08f97254d92ca9c3a27d468d98f59cd8480ff49118acd5d915205187a6b012103cd2540b253724186ab452f4ec769af6a881d2d8b9c484d677cc398138da33c2f", "asm": "3044022003bd7e5904fe7eb30bed3c7b42b6997e4791170ee432b144ea18c315f22ce479022042dfa08f97254d92ca9c3a27d468d98f59cd8480ff49118acd5d915205187a6b[ALL] 03cd2540b253724186ab452f4ec769af6a881d2d8b9c484d677cc398138da33c2f"}, "vout": 1, "txid": "322f20a464ba946fd2373912dc62a7844bbdec397a8faf86e630c472f15b4311"}], "txid": "00e92b23bb28913e85a247aa4f3b2c8aaeb0cd06e64560f68d8aadd2563c5e7f", "blocktime": 1537873891, "version": 1, "confirmations": 11474, "time": 1537873891, "locktime": 0, "vsize": 225, "size": 225}