{"hash": "79099d9193b26070a5f13b97f1d16c173f15a93ac370c4542c54c45260f95482", "blockhash": "0000000000000000000dcc0f55137456b1a82d3642486a52398922ac4d620174", "vout": [{"scriptPubKey": {"reqSigs": 1, "hex": "a914aea727d1342d23d61a786b72780678f0e5e8062587", "addresses": ["3HcVk6KQSgoyjJqmwZfYXUSJJXiYz2RMCB"], "asm": "OP_HASH160 aea727d1342d23d61a786b72780678f0e5e80625 OP_EQUAL", "type": "scripthash"}, "value": 0.00224521, "n": 0}, {"scriptPubKey": {"reqSigs": 1, "hex": "a91497c58c37dddc93002e2a882b231a59eef890054e87", "addresses": ["3FXWcNEScNosTy3ob1GDTTzMrz8hPXE5uT"], "asm": "OP_HASH160 97c58c37dddc93002e2a882b231a59eef890054e OP_EQUAL", "type": "scripthash"}, "value": 16.38885663, "n": 1}, {"scriptPubKey": {"reqSigs": 1, "hex": "a9140f84805d7e2a1db96e4fd42d5db63c7a760fd28b87", "addresses": ["3374nnHz7tr4eeAFtRpVqvvHNxHQbQG195"], "asm": "OP_HASH160 0f84805d7e2a1db96e4fd42d5db63c7a760fd28b OP_EQUAL", "type": "scripthash"}, "value": 0.0025, "n": 2}, {"scriptPubKey": {"reqSigs": 1, "hex": "a914b17c43302c5f965c76107fbfd1fd9ac9ffb94ce587", "addresses": ["3HsUPQQdMYHejiLeQAPj24HHSzh3viDmCB"], "asm": "OP_HASH160 b17c43302c5f965c76107fbfd1fd9ac9ffb94ce5 OP_EQUAL", "type": "scripthash"}, "value": 0.0054576, "n": 3}, {"scriptPubKey": {"reqSigs": 1, "hex": "a914c3e28cbb9580c48ad44568a03c2960d464255cb787", "addresses": ["3KYm5uHty4QCD8LQCev2VGYknaX6qFwP64"], "asm": "OP_HASH160 c3e28cbb9580c48ad44568a03c2960d464255cb7 OP_EQUAL", "type": "scripthash"}, "value": 0.04223352, "n": 4}, {"scriptPubKey": {"reqSigs": 1, "hex": "76a9141251d1d155c80c5507abf34a97d41bef7d3efd1c88ac", "addresses": ["12fsBNx7BkBkprAt5vSbHqk9BSYPd8JtW3"], "asm": "OP_DUP OP_HASH160 1251d1d155c80c5507abf34a97d41bef7d3efd1c OP_EQUALVERIFY OP_CHECKSIG", "type": "pubkeyhash"}, "value": 0.00211819, "n": 5}, {"scriptPubKey": {"reqSigs": 1, "hex": "76a914c50838a60f430bc4a589f866931033fb0e2e5b1a88ac", "addresses": ["1Jxoy1tqhQtFbWsudXcgLbbvSP6qFxTgSk"], "asm": "OP_DUP OP_HASH160 c50838a60f430bc4a589f866931033fb0e2e5b1a OP_EQUALVERIFY OP_CHECKSIG", "type": "pubkeyhash"}, "value": 0.07, "n": 6}, {"scriptPubKey": {"reqSigs": 1, "hex": "76a9148ffdcca8e8c83ca346d1553ab7488df80977125288ac", "addresses": ["1E8MfjA82jSC97Yx835yjyCbZXggnxgvPx"], "asm": "OP_DUP OP_HASH160 8ffdcca8e8c83ca346d1553ab7488df809771252 OP_EQUALVERIFY OP_CHECKSIG", "type": "pubkeyhash"}, "value": 0.11918369, "n": 7}, {"scriptPubKey": {"reqSigs": 1, "hex": "a91416122a0cd39a8d44378e07d818afa9ba190415e487", "addresses": ["33hiYqc1VZvB7uhypRkquVVzKMesPjkJPC"], "asm": "OP_HASH160 16122a0cd39a8d44378e07d818afa9ba190415e4 OP_EQUAL", "type": "scripthash"}, "value": 0.0021406, "n": 8}, {"scriptPubKey": {"reqSigs": 1, "hex": "a9145cd3edf43e666dc7684f1dab638acd3b20eabaf287", "addresses": ["3A9qyK5b1WvpqBhqMYek8HLv9H2yw8H8WV"], "asm": "OP_HASH160 5cd3edf43e666dc7684f1dab638acd3b20eabaf2 OP_EQUAL", "type": "scripthash"}, "value": 0.0021356, "n": 9}, {"scriptPubKey": {"reqSigs": 1, "hex": "a9141f2aa09c0fd38823cdc4d17ec7a7e45121615a1c87", "addresses": ["34XowHwUyNt4Wiw6kcYqCGqqKM2Yb13oc2"], "asm": "OP_HASH160 1f2aa09c0fd38823cdc4d17ec7a7e45121615a1c OP_EQUAL", "type": "scripthash"}, "value": 0.0023676, "n": 10}, {"scriptPubKey": {"reqSigs": 1, "hex": "76a914123b7fa6837a4db11c4acd2af097aee26932d4c388ac", "addresses": ["12fQSVTDFtpdTEEfn9CMbBsf9Rc62tdgTe"], "asm": "OP_DUP OP_HASH160 123b7fa6837a4db11c4acd2af097aee26932d4c3 OP_EQUALVERIFY OP_CHECKSIG", "type": "pubkeyhash"}, "value": 0.3106, "n": 11}, {"scriptPubKey": {"reqSigs": 1, "hex": "a914c5f5a58ab524a1947357553454f85e411ff4f7ea87", "addresses": ["3KjjKAPR1NtGg7RzicaiuCJ8wdtcHQ8bPK"], "asm": "OP_HASH160 c5f5a58ab524a1947357553454f85e411ff4f7ea OP_EQUAL", "type": "scripthash"}, "value": 0.00237, "n": 12}, {"scriptPubKey": {"reqSigs": 1, "hex": "76a914d15795f5213167a0483b031a3a69b759259192fd88ac", "addresses": ["1L5u9fCj3ay3ThUoQzTepWCLLNy32VJ5mo"], "asm": "OP_DUP OP_HASH160 d15795f5213167a0483b031a3a69b759259192fd OP_EQUALVERIFY OP_CHECKSIG", "type": "pubkeyhash"}, "value": 0.00260493, "n": 13}, {"scriptPubKey": {"reqSigs": 1, "hex": "a914d06e770cdba3ff6b95b2caaf739596f05fa3d6de87", "addresses": ["3Lh6ogyTR9rKcsp7fwtPVc7Sc1ojftdZsS"], "asm": "OP_HASH160 d06e770cdba3ff6b95b2caaf739596f05fa3d6de OP_EQUAL", "type": "scripthash"}, "value": 0.00349076, "n": 14}, {"scriptPubKey": {"reqSigs": 1, "hex": "a914c2a80b9b0a0785a16c309eac88909e49cc12787d87", "addresses": ["3KSGKkeeb493G7mrxoUUqGqZwEoKtaPeB7"], "asm": "OP_HASH160 c2a80b9b0a0785a16c309eac88909e49cc12787d OP_EQUAL", "type": "scripthash"}, "value": 0.00569332, "n": 15}, {"scriptPubKey": {"reqSigs": 1, "hex": "a9144ca56947b7e3e488da2b20c971bfee001b28713f87", "addresses": ["38gHS6e4mopBWUUgZ7mfK2nkviN3aVD846"], "asm": "OP_HASH160 4ca56947b7e3e488da2b20c971bfee001b28713f OP_EQUAL", "type": "scripthash"}, "value": 0.00245227, "n": 16}, {"scriptPubKey": {"reqSigs": 1, "hex": "a914f4d33b4bab041f63defb0e3420d197c3865ba9f387", "addresses": ["3Q1XqyqtFusX4U8ruyaJ2mS2At6Tb3TVFt"], "asm": "OP_HASH160 f4d33b4bab041f63defb0e3420d197c3865ba9f3 OP_EQUAL", "type": "scripthash"}, "value": 0.0053496, "n": 17}], "hex": "02000000000101b627759848b0d0afb8cb2fc93c5bbe0fb2a298b77a04170272f60f5e75d0429a1900000017160014f9a298c845268ff507a42d42c8aaa9f9f9e5a077feffffff12096d03000000000017a914aea727d1342d23d61a786b72780678f0e5e80625871f69af610000000017a91497c58c37dddc93002e2a882b231a59eef890054e8790d003000000000017a9140f84805d7e2a1db96e4fd42d5db63c7a760fd28b87e05308000000000017a914b17c43302c5f965c76107fbfd1fd9ac9ffb94ce587787140000000000017a914c3e28cbb9580c48ad44568a03c2960d464255cb7876b3b0300000000001976a9141251d1d155c80c5507abf34a97d41bef7d3efd1c88acc0cf6a00000000001976a914c50838a60f430bc4a589f866931033fb0e2e5b1a88ac21dcb500000000001976a9148ffdcca8e8c83ca346d1553ab7488df80977125288ac2c4403000000000017a91416122a0cd39a8d44378e07d818afa9ba190415e487384203000000000017a9145cd3edf43e666dc7684f1dab638acd3b20eabaf287d89c03000000000017a9141f2aa09c0fd38823cdc4d17ec7a7e45121615a1c8720f0d901000000001976a914123b7fa6837a4db11c4acd2af097aee26932d4c388acc89d03000000000017a914c5f5a58ab524a1947357553454f85e411ff4f7ea878df90300000000001976a914d15795f5213167a0483b031a3a69b759259192fd88ac945305000000000017a914d06e770cdba3ff6b95b2caaf739596f05fa3d6de87f4af08000000000017a914c2a80b9b0a0785a16c309eac88909e49cc12787d87ebbd03000000000017a9144ca56947b7e3e488da2b20c971bfee001b28713f87b02908000000000017a914f4d33b4bab041f63defb0e3420d197c3865ba9f38702453042021e40be5c81ae1514f27b0d57520f35d234a1e6f966b21582d05555619987a3022003ef2453a271891962cea04c0417ba7680a17fe08e98f418d79a1a6bb60b4f41012102ece6b2c5f70daf838178711b60988caab70d626ccf0d67c748c1158d11b877e10c490800", "vin": [{"txinwitness": ["3042021e40be5c81ae1514f27b0d57520f35d234a1e6f966b21582d05555619987a3022003ef2453a271891962cea04c0417ba7680a17fe08e98f418d79a1a6bb60b4f4101", "02ece6b2c5f70daf838178711b60988caab70d626ccf0d67c748c1158d11b877e1"], "sequence": 4294967294, "scriptSig": {"hex": "160014f9a298c845268ff507a42d42c8aaa9f9f9e5a077", "asm": "0014f9a298c845268ff507a42d42c8aaa9f9f9e5a077"}, "vout": 25, "txid": "9a42d0755e0ff6720217047ab798a2b20fbe5b3cc92fcbb8afd0b048987527b6"}], "txid": "00e9bc7b5d92f6257bc3f2f73c4c64124153706102dfb5c26a4d8077c263007a", "blocktime": 1537870268, "version": 2, "confirmations": 11516, "time": 1537870268, "locktime": 542988, "vsize": 687, "size": 767}