{"hash": "00ecd41432321e799e7d6882bb17eee7b985bb4053742101b98a9321a951b2f2", "blockhash": "0000000000000000001f76057863aec43deb6fa401d9628bb513d65a8098bfab", "vout": [{"scriptPubKey": {"reqSigs": 1, "hex": "76a914e56f0b0759239d5f8f120c09e1fcefbeab603a0c88ac", "addresses": ["1Mv8mLayVCAD1gEkBV3Z1m2VdexChNYvB8"], "asm": "OP_DUP OP_HASH160 e56f0b0759239d5f8f120c09e1fcefbeab603a0c OP_EQUALVERIFY OP_CHECKSIG", "type": "pubkeyhash"}, "value": 0.00998844, "n": 0}, {"scriptPubKey": {"reqSigs": 1, "hex": "76a9148be77f69f32b93fae803a8be5200ff31476ca62b88ac", "addresses": ["1DkkFQdGUYMwEgFgZLBKof22ojdVZm4DDp"], "asm": "OP_DUP OP_HASH160 8be77f69f32b93fae803a8be5200ff31476ca62b OP_EQUALVERIFY OP_CHECKSIG", "type": "pubkeyhash"}, "value": 0.01751927, "n": 1}], "hex": "02000000034e144cff8c99f0e8a5cfc3ac539014d0aee01b1f2b54444a90d35603ffae363d000000006a4730440220074440beaf7e55409d303ed15a0b6245f876f937c0aebf47d4e1be48b699b94102202ba4e1b5f88ab5618f34b5b54219da7b60cd85529b7ec6e4d9ed6a919d56a51e012102799a31fee1be1adc5cad7340084a96ce3005ac0c12834068cdd2c4c3c3e18f8efeffffff8280b58b93e17cb974494c5b2bd850d9bfc9d7490dabf3cc6549a3181d118d60000000006b483045022100b55dcd31af23c55412af9f0bf578b64075c84d61ec3f786e0fec864388de61880220368a5c1d99b024c2dbf5676f3a07d39a35c99d5ef9552a92ddb5dd024c86a2080121022b72457d942f2d4eddeef36f57a23aa49cda0ccfe574a5ded878682a67b634dbfeffffffb742816ea9a3e671f20fd453c25f736bb3f4c33febbcf6caa4d9673b80ebadd9010000006b483045022100b428a09b7cf369d86d35291117255287756cf17a46d9d4682e9082b6b707daa202201c01494b17b5b71af3e13b49dbc3eb3d260b20e6fb5d5b3851b56af1eec8cb620121034e17050128a4a04e39f55a3faccbfb0a99a5767b58e586f81fa7824479b8ed76feffffff02bc3d0f00000000001976a914e56f0b0759239d5f8f120c09e1fcefbeab603a0c88ac77bb1a00000000001976a9148be77f69f32b93fae803a8be5200ff31476ca62b88ac13490800", "vin": [{"sequence": 4294967294, "scriptSig": {"hex": "4730440220074440beaf7e55409d303ed15a0b6245f876f937c0aebf47d4e1be48b699b94102202ba4e1b5f88ab5618f34b5b54219da7b60cd85529b7ec6e4d9ed6a919d56a51e012102799a31fee1be1adc5cad7340084a96ce3005ac0c12834068cdd2c4c3c3e18f8e", "asm": "30440220074440beaf7e55409d303ed15a0b6245f876f937c0aebf47d4e1be48b699b94102202ba4e1b5f88ab5618f34b5b54219da7b60cd85529b7ec6e4d9ed6a919d56a51e[ALL] 02799a31fee1be1adc5cad7340084a96ce3005ac0c12834068cdd2c4c3c3e18f8e"}, "vout": 0, "txid": "3d36aeff0356d3904a44542b1f1be0aed0149053acc3cfa5e8f0998cff4c144e"}, {"sequence": 4294967294, "scriptSig": {"hex": "483045022100b55dcd31af23c55412af9f0bf578b64075c84d61ec3f786e0fec864388de61880220368a5c1d99b024c2dbf5676f3a07d39a35c99d5ef9552a92ddb5dd024c86a2080121022b72457d942f2d4eddeef36f57a23aa49cda0ccfe574a5ded878682a67b634db", "asm": "3045022100b55dcd31af23c55412af9f0bf578b64075c84d61ec3f786e0fec864388de61880220368a5c1d99b024c2dbf5676f3a07d39a35c99d5ef9552a92ddb5dd024c86a208[ALL] 022b72457d942f2d4eddeef36f57a23aa49cda0ccfe574a5ded878682a67b634db"}, "vout": 0, "txid": "608d111d18a34965ccf3ab0d49d7c9bfd950d82b5b4c4974b97ce1938bb58082"}, {"sequence": 4294967294, "scriptSig": {"hex": "483045022100b428a09b7cf369d86d35291117255287756cf17a46d9d4682e9082b6b707daa202201c01494b17b5b71af3e13b49dbc3eb3d260b20e6fb5d5b3851b56af1eec8cb620121034e17050128a4a04e39f55a3faccbfb0a99a5767b58e586f81fa7824479b8ed76", "asm": "3045022100b428a09b7cf369d86d35291117255287756cf17a46d9d4682e9082b6b707daa202201c01494b17b5b71af3e13b49dbc3eb3d260b20e6fb5d5b3851b56af1eec8cb62[ALL] 034e17050128a4a04e39f55a3faccbfb0a99a5767b58e586f81fa7824479b8ed76"}, "vout": 1, "txid": "d9adeb803b67d9a4caf6bceb3fc3f4b36b735fc253d40ff271e6a3a96e8142b7"}], "txid": "00ecd41432321e799e7d6882bb17eee7b985bb4053742101b98a9321a951b2f2", "blocktime": 1537873891, "version": 2, "confirmations": 11478, "time": 1537873891, "locktime": 542995, "vsize": 521, "size": 521}