{"hash": "00ed4972eb3e2bd16d05e46d1998e0714fd29be747dac0963ce4145225a3ce55", "blockhash": "00000000000000000017f5eb5941039fbcee6240d03bc1f2f8e35350df66a1d8", "vout": [{"scriptPubKey": {"reqSigs": 1, "hex": "76a9143a52446ac7bd962d33f8e369bf197adb0c67522488ac", "addresses": ["16KNkA17EzMYeBPvRa6mF6dVofBXWsrxjC"], "asm": "OP_DUP OP_HASH160 3a52446ac7bd962d33f8e369bf197adb0c675224 OP_EQUALVERIFY OP_CHECKSIG", "type": "pubkeyhash"}, "value": 5.576e-05, "n": 0}, {"scriptPubKey": {"reqSigs": 1, "hex": "a91463e0e0f9492a3c9fc214db24d5899c1739bf5eb787", "addresses": ["3Ao8DPU5Le2q4MTyruKApb8QyBF2Jdzjoz"], "asm": "OP_HASH160 63e0e0f9492a3c9fc214db24d5899c1739bf5eb7 OP_EQUAL", "type": "scripthash"}, "value": 0.001, "n": 1}], "hex": "01000000044adbc97bdff9e06ebcac5d2a3f6f48724568ed33c2916fa3afa01c606849b93a000000006b4830450221008d8981aa706756026fd3485e4e2c52eb90a852a1bf17e62715f875c840bef5e80220402e6f704a8e9f57903b51580ea8b80764625064b364cd15b78566dfee22d9ee0121025ec4ce8a8877535221be34dbd69a57e4c21e8639afa2f9aaad86a05aac53fcdbffffffffee5c7c5f5d1d2d4b8179b2a3a185faf5b22aadee566900f51d7c4a07f8c3ea87000000006b483045022100af8c72fa8a4082063a48c7a4dd5cf45dde5e370215f613ff51fee66857a188410220310ffef334850b096ef4bece0741e0f3a22b21d59edf5adc0b752a3d11c2025101210260fd86b573586b8a6cfa3dff73b9d2a03758376da0a347788b36e9e0104b2782ffffffffbfeb8ffefcd9969ce88056acb0fa48d471bf1d34d76db6c27668cf5e320be48e000000006a47304402204efd91ddce2a96bc47541fdad85deba7f339db93433ae31278b3d43584f66a6402202760968de312c9e0d3e74285d6153956e6f36cf11a3f554148a879e7f03881c4012102e6804f509e88730ddd165676978639d7b05bfc8f20a5b74f5cc61df40884ae8cffffffff068d248f3505b421bac7d48d7030cb495a3b901517635199e17f8ff9d2fc87d0000000006b483045022100fa5a4f8dfefddfa2776e7da0169289c139a842b640167020ddbfe107ee929031022056ccdf6ab726089f8511d639626ba3c62cf00d081a73a49fd0234c7c606eceda012102aa3a3e091a8860c1c6f942a4f5b31c29016fc3ec36db48478194b72feab65fccffffffff02c8150000000000001976a9143a52446ac7bd962d33f8e369bf197adb0c67522488aca08601000000000017a91463e0e0f9492a3c9fc214db24d5899c1739bf5eb78700000000", "vin": [{"sequence": 4294967295, "scriptSig": {"hex": "4830450221008d8981aa706756026fd3485e4e2c52eb90a852a1bf17e62715f875c840bef5e80220402e6f704a8e9f57903b51580ea8b80764625064b364cd15b78566dfee22d9ee0121025ec4ce8a8877535221be34dbd69a57e4c21e8639afa2f9aaad86a05aac53fcdb", "asm": "30450221008d8981aa706756026fd3485e4e2c52eb90a852a1bf17e62715f875c840bef5e80220402e6f704a8e9f57903b51580ea8b80764625064b364cd15b78566dfee22d9ee[ALL] 025ec4ce8a8877535221be34dbd69a57e4c21e8639afa2f9aaad86a05aac53fcdb"}, "vout": 0, "txid": "3ab94968601ca0afa36f91c233ed684572486f3f2a5dacbc6ee0f9df7bc9db4a"}, {"sequence": 4294967295, "scriptSig": {"hex": "483045022100af8c72fa8a4082063a48c7a4dd5cf45dde5e370215f613ff51fee66857a188410220310ffef334850b096ef4bece0741e0f3a22b21d59edf5adc0b752a3d11c2025101210260fd86b573586b8a6cfa3dff73b9d2a03758376da0a347788b36e9e0104b2782", "asm": "3045022100af8c72fa8a4082063a48c7a4dd5cf45dde5e370215f613ff51fee66857a188410220310ffef334850b096ef4bece0741e0f3a22b21d59edf5adc0b752a3d11c20251[ALL] 0260fd86b573586b8a6cfa3dff73b9d2a03758376da0a347788b36e9e0104b2782"}, "vout": 0, "txid": "87eac3f8074a7c1df5006956eead2ab2f5fa85a1a3b279814b2d1d5d5f7c5cee"}, {"sequence": 4294967295, "scriptSig": {"hex": "47304402204efd91ddce2a96bc47541fdad85deba7f339db93433ae31278b3d43584f66a6402202760968de312c9e0d3e74285d6153956e6f36cf11a3f554148a879e7f03881c4012102e6804f509e88730ddd165676978639d7b05bfc8f20a5b74f5cc61df40884ae8c", "asm": "304402204efd91ddce2a96bc47541fdad85deba7f339db93433ae31278b3d43584f66a6402202760968de312c9e0d3e74285d6153956e6f36cf11a3f554148a879e7f03881c4[ALL] 02e6804f509e88730ddd165676978639d7b05bfc8f20a5b74f5cc61df40884ae8c"}, "vout": 0, "txid": "8ee40b325ecf6876c2b66dd7341dbf71d448fab0ac5680e89c96d9fcfe8febbf"}, {"sequence": 4294967295, "scriptSig": {"hex": "483045022100fa5a4f8dfefddfa2776e7da0169289c139a842b640167020ddbfe107ee929031022056ccdf6ab726089f8511d639626ba3c62cf00d081a73a49fd0234c7c606eceda012102aa3a3e091a8860c1c6f942a4f5b31c29016fc3ec36db48478194b72feab65fcc", "asm": "3045022100fa5a4f8dfefddfa2776e7da0169289c139a842b640167020ddbfe107ee929031022056ccdf6ab726089f8511d639626ba3c62cf00d081a73a49fd0234c7c606eceda[ALL] 02aa3a3e091a8860c1c6f942a4f5b31c29016fc3ec36db48478194b72feab65fcc"}, "vout": 0, "txid": "d087fcd2f98f7fe19951631715903b5a49cb30708dd4c7ba21b405358f248d06"}], "txid": "00ed4972eb3e2bd16d05e46d1998e0714fd29be747dac0963ce4145225a3ce55", "blocktime": 1537874412, "version": 1, "confirmations": 11467, "time": 1537874412, "locktime": 0, "vsize": 667, "size": 667}