{"hash": "ff342242b4f1c58d6f2641f1f0986c5e74eccc5d480182797813af7a2e39b68c", "blockhash": "0000000000000000001f0ddff1eddb255c1121bcd4da4f1bc9a0da00cae72433", "vout": [{"scriptPubKey": {"reqSigs": 1, "hex": "a914f7f78712ef5f65c7d73f95edc59c6214ac76bb7987", "addresses": ["3QJ9MStxVp32ceCijEPRjECCfHDkasa2gL"], "asm": "OP_HASH160 f7f78712ef5f65c7d73f95edc59c6214ac76bb79 OP_EQUAL", "type": "scripthash"}, "value": 0.03073024, "n": 0}, {"scriptPubKey": {"reqSigs": 1, "hex": "76a914acc95e2f01b18ca2ecef24341b7f4c3d204ffacf88ac", "addresses": ["1GkcTHN7h27CEYCNWTiXiuDy1jvaCumaqe"], "asm": "OP_DUP OP_HASH160 acc95e2f01b18ca2ecef24341b7f4c3d204ffacf OP_EQUALVERIFY OP_CHECKSIG", "type": "pubkeyhash"}, "value": 0.111152, "n": 1}], "hex": "02000000000101c94e8c74799a572d24733441d7acd5866318465b896cb2281c09bcbeded89f058b00000017160014d9a233bf9015cb52b8df4c5bad9abb4197a32e06feffffff0200e42e000000000017a914f7f78712ef5f65c7d73f95edc59c6214ac76bb7987c09aa900000000001976a914acc95e2f01b18ca2ecef24341b7f4c3d204ffacf88ac024830450221009fe41e82099e6c945c88b115ef9ac1f7d5d8788551d828ca27deea886b320c840220471f524bedc9aad40ce5e8c8e677a8e100b6148e6cf85b1c8ffe44985a9d69e9012103787bb36f9c2c79700127ea8148439ed97c56acec9771d749618343d3f927dfb910490800", "vin": [{"txinwitness": ["30450221009fe41e82099e6c945c88b115ef9ac1f7d5d8788551d828ca27deea886b320c840220471f524bedc9aad40ce5e8c8e677a8e100b6148e6cf85b1c8ffe44985a9d69e901", "03787bb36f9c2c79700127ea8148439ed97c56acec9771d749618343d3f927dfb9"], "sequence": 4294967294, "scriptSig": {"hex": "160014d9a233bf9015cb52b8df4c5bad9abb4197a32e06", "asm": "0014d9a233bf9015cb52b8df4c5bad9abb4197a32e06"}, "vout": 139, "txid": "059fd8debebc091c28b26c895b46186386d5acd7413473242d579a79748c4ec9"}], "txid": "00efb1442fb589066ebb5e3a693ed9f1724599b1e6d4050d85b5d06d5e9ef5ea", "blocktime": 1537872018, "version": 2, "confirmations": 11489, "time": 1537872018, "locktime": 542992, "vsize": 168, "size": 250}