{"hash": "00f183bd64afe172306cee9ea1b659cfbf7d817e4503743a9ccaeea85097e58e", "blockhash": "00000000000000000004ffacab907a6b429b9a5745fa0b75af4234bf69dd7176", "vout": [{"scriptPubKey": {"reqSigs": 1, "hex": "76a9140a6b825daa1b89f8e100ed8eec6d79b592500f4988ac", "addresses": ["1x6YnuBVeeE65dQRZztRWgUPwyBjHCA5g"], "asm": "OP_DUP OP_HASH160 0a6b825daa1b89f8e100ed8eec6d79b592500f49 OP_EQUALVERIFY OP_CHECKSIG", "type": "pubkeyhash"}, "value": 0.44343436, "n": 0}, {"scriptPubKey": {"reqSigs": 1, "hex": "76a914a045e3c63f54188696096a184ea23e4a6b3e788488ac", "addresses": ["1FcSqicKXCqVn4Zx9QR5dsJb8Q7SrG9m1g"], "asm": "OP_DUP OP_HASH160 a045e3c63f54188696096a184ea23e4a6b3e7884 OP_EQUALVERIFY OP_CHECKSIG", "type": "pubkeyhash"}, "value": 5.46e-06, "n": 1}, {"scriptPubKey": {"type": "nulldata", "hex": "6a146f6d6e69000000000000001f00000010d0a43860", "asm": "OP_RETURN 6f6d6e69000000000000001f00000010d0a43860"}, "value": 0.0, "n": 2}], "hex": "01000000014cf2f93d5280d0b9fceecb4cba7aa614b1cc1c29621f84d6a8f274b654065547000000006b483045022100b799c75fdc7662a7dd1ee546fe3ed83c379137e2b3e63f93938acafdcaa9de8502206a75dd19cbb4e44ff31f8c25502bc981463609194764fd0493da76062164e9dd012103fe02b06a6bfd9b5a83e0417430a3235a39a0b4c7973591ca27ac58f6474d9120ffffffff038ca0a402000000001976a9140a6b825daa1b89f8e100ed8eec6d79b592500f4988ac22020000000000001976a914a045e3c63f54188696096a184ea23e4a6b3e788488ac0000000000000000166a146f6d6e69000000000000001f00000010d0a4386000000000", "vin": [{"sequence": 4294967295, "scriptSig": {"hex": "483045022100b799c75fdc7662a7dd1ee546fe3ed83c379137e2b3e63f93938acafdcaa9de8502206a75dd19cbb4e44ff31f8c25502bc981463609194764fd0493da76062164e9dd012103fe02b06a6bfd9b5a83e0417430a3235a39a0b4c7973591ca27ac58f6474d9120", "asm": "3045022100b799c75fdc7662a7dd1ee546fe3ed83c379137e2b3e63f93938acafdcaa9de8502206a75dd19cbb4e44ff31f8c25502bc981463609194764fd0493da76062164e9dd[ALL] 03fe02b06a6bfd9b5a83e0417430a3235a39a0b4c7973591ca27ac58f6474d9120"}, "vout": 0, "txid": "47550654b674f2a8d6841f62291cccb114a67aba4ccbeefcb9d080523df9f24c"}], "txid": "00f183bd64afe172306cee9ea1b659cfbf7d817e4503743a9ccaeea85097e58e", "blocktime": 1537875543, "version": 1, "confirmations": 11464, "time": 1537875543, "locktime": 0, "vsize": 257, "size": 257}