{"hash": "00f65ad902cdc8259ae840e0547f2302fbf0141ed193f99a8e7d23aa16bedf71", "blockhash": "00000000000000000017f5eb5941039fbcee6240d03bc1f2f8e35350df66a1d8", "vout": [{"scriptPubKey": {"reqSigs": 1, "hex": "a914b4beefc3b2f06692f25fa1985524b023b7c6cf0e87", "addresses": ["3JAiHaZH2qsLrLsaHprixoBS2HNSioMi5f"], "asm": "OP_HASH160 b4beefc3b2f06692f25fa1985524b023b7c6cf0e OP_EQUAL", "type": "scripthash"}, "value": 0.00032694, "n": 0}], "hex": "010000000353c14493b541fb45c8caeb9473f8f14df5eb3ef1b8274d6b59ac9434e9745d2e000000006a473044022052fba3a86386452b14e8c99078c9dd92b4ee28da19a328db2e6d65fbc5f3a7ee0220056bc5bc7f1f476300a77e74202e29f725bbac8ec63e4f0bc50da09bcd0a3edd012102f5e5e62dbcf22351e22bb7ab5114113e92b8738dba717f05ac04d013ec0745efffffffff0a951b27e066dabac5b69672032a50c79b745db2c1124a7fd9d3f58edfc72742000000006b483045022100b44911f680dba1bf9db44901438b71b6d2501dfffc41ee31a58870b247a44a110220047d572e00cdf3724f9c996504d9f9c47ca21ddd7e97aa62b35514b1ec8a538b0121037b0401389dea55183fee74448cdf3fa0c186f7047a751c50fbc797c61ccba8ecffffffff428b4c1e1b302e59bbaef99dc338be426cb9b280b74c04490d342b9de28348b7000000006b483045022100e8e13ca5e720fd3782a788505ad2d78a9b1ff65fc77c72c2fa162b922aec7a0702201f9caf3b88bf92a030a5452b8919a217a7ea8cb987dbceaf3b3d3f9a0ff5bb0b0121032a674de8609e0eb20be9967c3bd0287f3880a5b29015874c70b1b8df28b3b3b1ffffffff01b67f00000000000017a914b4beefc3b2f06692f25fa1985524b023b7c6cf0e8700000000", "vin": [{"sequence": 4294967295, "scriptSig": {"hex": "473044022052fba3a86386452b14e8c99078c9dd92b4ee28da19a328db2e6d65fbc5f3a7ee0220056bc5bc7f1f476300a77e74202e29f725bbac8ec63e4f0bc50da09bcd0a3edd012102f5e5e62dbcf22351e22bb7ab5114113e92b8738dba717f05ac04d013ec0745ef", "asm": "3044022052fba3a86386452b14e8c99078c9dd92b4ee28da19a328db2e6d65fbc5f3a7ee0220056bc5bc7f1f476300a77e74202e29f725bbac8ec63e4f0bc50da09bcd0a3edd[ALL] 02f5e5e62dbcf22351e22bb7ab5114113e92b8738dba717f05ac04d013ec0745ef"}, "vout": 0, "txid": "2e5d74e93494ac596b4d27b8f13eebf54df1f87394ebcac845fb41b59344c153"}, {"sequence": 4294967295, "scriptSig": {"hex": "483045022100b44911f680dba1bf9db44901438b71b6d2501dfffc41ee31a58870b247a44a110220047d572e00cdf3724f9c996504d9f9c47ca21ddd7e97aa62b35514b1ec8a538b0121037b0401389dea55183fee74448cdf3fa0c186f7047a751c50fbc797c61ccba8ec", "asm": "3045022100b44911f680dba1bf9db44901438b71b6d2501dfffc41ee31a58870b247a44a110220047d572e00cdf3724f9c996504d9f9c47ca21ddd7e97aa62b35514b1ec8a538b[ALL] 037b0401389dea55183fee74448cdf3fa0c186f7047a751c50fbc797c61ccba8ec"}, "vout": 0, "txid": "4227c7df8ef5d3d97f4a12c1b25d749bc7502a037296b6c5bada66e0271b950a"}, {"sequence": 4294967295, "scriptSig": {"hex": "483045022100e8e13ca5e720fd3782a788505ad2d78a9b1ff65fc77c72c2fa162b922aec7a0702201f9caf3b88bf92a030a5452b8919a217a7ea8cb987dbceaf3b3d3f9a0ff5bb0b0121032a674de8609e0eb20be9967c3bd0287f3880a5b29015874c70b1b8df28b3b3b1", "asm": "3045022100e8e13ca5e720fd3782a788505ad2d78a9b1ff65fc77c72c2fa162b922aec7a0702201f9caf3b88bf92a030a5452b8919a217a7ea8cb987dbceaf3b3d3f9a0ff5bb0b[ALL] 032a674de8609e0eb20be9967c3bd0287f3880a5b29015874c70b1b8df28b3b3b1"}, "vout": 0, "txid": "b74883e29d2b340d49044cb780b2b96c42be38c39df9aebb592e301b1e4c8b42"}], "txid": "00f65ad902cdc8259ae840e0547f2302fbf0141ed193f99a8e7d23aa16bedf71", "blocktime": 1537874412, "version": 1, "confirmations": 11467, "time": 1537874412, "locktime": 0, "vsize": 485, "size": 485}