{"hash": "00fbed51c168b629d2dd2c0140099a0c5c0600ad2b8f90bad32eac2f1c3bb809", "blockhash": "0000000000000000001cda96e906b7601b7a6fb1a3b62bca570a9e5d8f4b3de1", "vout": [{"scriptPubKey": {"reqSigs": 1, "hex": "76a9146056fe1fb38b6516234561f19e8a06a4910b679d88ac", "addresses": ["19nQ5modSHbWPfyUi5Vdo4UCzARbqWzUWo"], "asm": "OP_DUP OP_HASH160 6056fe1fb38b6516234561f19e8a06a4910b679d OP_EQUALVERIFY OP_CHECKSIG", "type": "pubkeyhash"}, "value": 0.01185889, "n": 0}], "hex": "0100000001cd24b7e005c9f43dac81d478ec0bd17af0261850c2001e9c9790d527acc148b8010000006a4730440220509af5cb7690d71f0ddbeddc8334fd887a9c0f55c509b3ef2c8d83cbef1b57550220316abd15b779de4edf0090aa313967c9b738b5fbf1523c02fd07c46316f1bd34012103e1d980ed30831b0eda1f7361e5e0d0233824bc8d0c9a3e0ff92d0aec11fa5cd5ffffffff0161181200000000001976a9146056fe1fb38b6516234561f19e8a06a4910b679d88ac00000000", "vin": [{"sequence": 4294967295, "scriptSig": {"hex": "4730440220509af5cb7690d71f0ddbeddc8334fd887a9c0f55c509b3ef2c8d83cbef1b57550220316abd15b779de4edf0090aa313967c9b738b5fbf1523c02fd07c46316f1bd34012103e1d980ed30831b0eda1f7361e5e0d0233824bc8d0c9a3e0ff92d0aec11fa5cd5", "asm": "30440220509af5cb7690d71f0ddbeddc8334fd887a9c0f55c509b3ef2c8d83cbef1b57550220316abd15b779de4edf0090aa313967c9b738b5fbf1523c02fd07c46316f1bd34[ALL] 03e1d980ed30831b0eda1f7361e5e0d0233824bc8d0c9a3e0ff92d0aec11fa5cd5"}, "vout": 1, "txid": "b848c1ac27d590979c1e00c2501826f07ad10bec78d481ac3df4c905e0b724cd"}], "txid": "00fbed51c168b629d2dd2c0140099a0c5c0600ad2b8f90bad32eac2f1c3bb809", "blocktime": 1537873282, "version": 1, "confirmations": 11484, "time": 1537873282, "locktime": 0, "vsize": 191, "size": 191}