{"hash": "ac16241216fdb1421772a8e4adebaea0c9a394beaaf936fc969529d5cdc1b794", "blockhash": "00000000000000000017f5eb5941039fbcee6240d03bc1f2f8e35350df66a1d8", "vout": [{"scriptPubKey": {"reqSigs": 1, "hex": "76a9149f0c23e598980c47417ad1cdecbba60c52908d7a88ac", "addresses": ["1FVxz2567VUQ9QvLEEbWAJkccwNSCz8Yfm"], "asm": "OP_DUP OP_HASH160 9f0c23e598980c47417ad1cdecbba60c52908d7a OP_EQUALVERIFY OP_CHECKSIG", "type": "pubkeyhash"}, "value": 0.05990806, "n": 0}, {"scriptPubKey": {"reqSigs": 1, "hex": "0014c784574866b6ae2e321f48b4a6c706c4b1a1b3dc", "addresses": ["bc1qc7z9wjrxk6hzuvslfz62d3cxcjc6rv7u4kmd8n"], "asm": "0 c784574866b6ae2e321f48b4a6c706c4b1a1b3dc", "type": "witness_v0_keyhash"}, "value": 0.66720071, "n": 1}], "hex": "01000000000101c56ca5f1a87a0c43c003a3b1fe2a2a6d690c57e67a0ede1fee9a28e4aea9bc530100000000ffffffff0296695b00000000001976a9149f0c23e598980c47417ad1cdecbba60c52908d7a88ac4711fa0300000000160014c784574866b6ae2e321f48b4a6c706c4b1a1b3dc0248304502210080b28684fcee1dd4963a06c13897f9456ea442899ade20b29e07c8ee70be8800022036413f35cbd787378debcf4fa2242d94bc4a97477e6cd281480ae54a44bf69570121034ba413513c77510032e7697ae5371b843e6f475ff888eea0de7f8f01e8e80d8a00000000", "vin": [{"txinwitness": ["304502210080b28684fcee1dd4963a06c13897f9456ea442899ade20b29e07c8ee70be8800022036413f35cbd787378debcf4fa2242d94bc4a97477e6cd281480ae54a44bf695701", "034ba413513c77510032e7697ae5371b843e6f475ff888eea0de7f8f01e8e80d8a"], "sequence": 4294967295, "scriptSig": {"hex": "", "asm": ""}, "vout": 1, "txid": "53bca9aee4289aee1fde0e7ae6570c696d2a2afeb1a303c0430c7aa8f1a56cc5"}], "txid": "00fcd3681d7544ff9939204cae59022afaab98512ed70f7fbf93f268e7721f9d", "blocktime": 1537874412, "version": 1, "confirmations": 11467, "time": 1537874412, "locktime": 0, "vsize": 144, "size": 226}