{"hash": "0100a94776d18c1ba97673e358acd53170b23e90f9a03cf625894079fc893bb3", "blockhash": "000000000000000000022b45ed06c6f4ccd3cf7fb5ba4856ebd2e58215665228", "vout": [{"scriptPubKey": {"reqSigs": 1, "hex": "76a914c9b070b643d249010441d841ca2ccbcabc2e833f88ac", "addresses": ["1KPSBqvmCnPLvxjwz7rw8JrcZcdSDhrciv"], "asm": "OP_DUP OP_HASH160 c9b070b643d249010441d841ca2ccbcabc2e833f OP_EQUALVERIFY OP_CHECKSIG", "type": "pubkeyhash"}, "value": 0.00431238, "n": 0}, {"scriptPubKey": {"reqSigs": 1, "hex": "76a914249dac3159dcba34e69f5d9631cae0619fdffece88ac", "addresses": ["14LcDC9Poinmw2fMDotNaWEVXyYK3SGNwe"], "asm": "OP_DUP OP_HASH160 249dac3159dcba34e69f5d9631cae0619fdffece OP_EQUALVERIFY OP_CHECKSIG", "type": "pubkeyhash"}, "value": 0.05673815, "n": 1}], "hex": "01000000019ffa03c9c4d1859e230bb276b2d63793cc79c5ea5bf11979ab97c8fef1248b1f010000006a473044022061f87a3cc85735e0eeb5dfa4e667355654be48d0f5b27178625f89531d75823a0220362c206942da2b4adf92b1bff396e1aa19c06670d94af700eeee83bff21a89bd012103134a0d818b6a4579d289d77843967db2e1e7c3f5dbe037c1e746d17f94614449ffffffff0286940600000000001976a914c9b070b643d249010441d841ca2ccbcabc2e833f88ac57935600000000001976a914249dac3159dcba34e69f5d9631cae0619fdffece88ac00000000", "vin": [{"sequence": 4294967295, "scriptSig": {"hex": "473044022061f87a3cc85735e0eeb5dfa4e667355654be48d0f5b27178625f89531d75823a0220362c206942da2b4adf92b1bff396e1aa19c06670d94af700eeee83bff21a89bd012103134a0d818b6a4579d289d77843967db2e1e7c3f5dbe037c1e746d17f94614449", "asm": "3044022061f87a3cc85735e0eeb5dfa4e667355654be48d0f5b27178625f89531d75823a0220362c206942da2b4adf92b1bff396e1aa19c06670d94af700eeee83bff21a89bd[ALL] 03134a0d818b6a4579d289d77843967db2e1e7c3f5dbe037c1e746d17f94614449"}, "vout": 1, "txid": "1f8b24f1fec897ab7919f15beac579cc9337d6b276b20b239e85d1c4c903fa9f"}], "txid": "0100a94776d18c1ba97673e358acd53170b23e90f9a03cf625894079fc893bb3", "blocktime": 1537869901, "version": 1, "confirmations": 11522, "time": 1537869901, "locktime": 0, "vsize": 225, "size": 225}