{"hash": "1ee9a0cd5ec466c5edd52a272c3ef39657c41731c7f25a059bcc9a9b8e19035b", "blockhash": "0000000000000000001f76057863aec43deb6fa401d9628bb513d65a8098bfab", "vout": [{"scriptPubKey": {"reqSigs": 1, "hex": "a914116dfd7e36811e17962f3ea54ca58a6cb10aa63c87", "addresses": ["33HBB4Lqgp8tgjo9yUf4qKcSvmsvmN9BWB"], "asm": "OP_HASH160 116dfd7e36811e17962f3ea54ca58a6cb10aa63c OP_EQUAL", "type": "scripthash"}, "value": 0.11029691, "n": 0}, {"scriptPubKey": {"reqSigs": 1, "hex": "a91475f3ab16506b27cb6dfb80e0915154c98c529faf87", "addresses": ["3CSgtMmRDBWH2cZnar15nnZeJvMXUYDyEH"], "asm": "OP_HASH160 75f3ab16506b27cb6dfb80e0915154c98c529faf OP_EQUAL", "type": "scripthash"}, "value": 0.01655, "n": 1}], "hex": "0200000000010147b22f4d0e20bb32cba45eeb1f75a5c1416e21793667a347e92e970a66f93593010000001716001414dbcd94bcac449b90c02bcaaff5394ff411b5cbfdffffff02bb4ca8000000000017a914116dfd7e36811e17962f3ea54ca58a6cb10aa63c87d84019000000000017a91475f3ab16506b27cb6dfb80e0915154c98c529faf870247304402202669232acc924e7182ee3756b8daaf7b7b56335d45ffe445f292c74fafec099702200ad0782d57e93acd172589141e5cdeadc0047e8bc700715c194c4d7f7e43fe2e01210281d454c20c13717420be9df5af94bbe5d52953cd83872ae683772f2741836f4414490800", "vin": [{"txinwitness": ["304402202669232acc924e7182ee3756b8daaf7b7b56335d45ffe445f292c74fafec099702200ad0782d57e93acd172589141e5cdeadc0047e8bc700715c194c4d7f7e43fe2e01", "0281d454c20c13717420be9df5af94bbe5d52953cd83872ae683772f2741836f44"], "sequence": 4294967293, "scriptSig": {"hex": "16001414dbcd94bcac449b90c02bcaaff5394ff411b5cb", "asm": "001414dbcd94bcac449b90c02bcaaff5394ff411b5cb"}, "vout": 1, "txid": "9335f9660a972ee947a3673679216e41c1a5751feb5ea4cb32bb200e4d2fb247"}], "txid": "010ca154a683b221893e75d3cef46d85da4b043c48a6454cb0f1e3981db58b32", "blocktime": 1537873891, "version": 2, "confirmations": 11479, "time": 1537873891, "locktime": 542996, "vsize": 166, "size": 247}