{"hash": "010e1d9b85f28b27832ec640c38b94cb346528624630cef9db9dfe55ad14cdb9", "blockhash": "0000000000000000001f0ddff1eddb255c1121bcd4da4f1bc9a0da00cae72433", "vout": [{"scriptPubKey": {"reqSigs": 1, "hex": "76a914cf9b76ed6c36f89d8251281df9b9b043111bafea88ac", "addresses": ["1Kvj7aQNtMaMLaKvE2dGyRDoRkNNXDapZj"], "asm": "OP_DUP OP_HASH160 cf9b76ed6c36f89d8251281df9b9b043111bafea OP_EQUALVERIFY OP_CHECKSIG", "type": "pubkeyhash"}, "value": 45.0, "n": 0}, {"scriptPubKey": {"reqSigs": 1, "hex": "76a9141ec86146848ae5bfd9688ff3727ae771c372de1188ac", "addresses": ["13omKQD9AaxDZT9vaZxxoLaEFJGKy5FmQB"], "asm": "OP_DUP OP_HASH160 1ec86146848ae5bfd9688ff3727ae771c372de11 OP_EQUALVERIFY OP_CHECKSIG", "type": "pubkeyhash"}, "value": 3.07041198, "n": 1}], "hex": "01000000049f22cda4597a0e41ca271e51988f8523c59529bd625bb935db63d4c2ac2f5505000000008b483045022100e841d7011feee60bc1acbfc9cc654274e1078a1ef47a603e9fbd37427c71d6bd022024eb5a2f4072bbe1106a7e4b07a41754bccf4c98a00a1b4ef892d5bce1b551960141049f57da396ca4f278533116cb28398cae142c1fa805cb33d5119f12bad6ed90811fc8c53ee1d2a6fc23f1759974530a1d00bc58bc743bf9c03c522296d89cb075ffffffff194f0ede07c05834a21be230b4be953e396f3b1dc21370fc22ced9a6bbbb4bbc000000006b483045022100f0036d7eb00e7023706faee0b9a8562c31fea57a9cb49a86ba0e28e31109657902207d5fd44406e2cd984d89209280991c984750a448749f44025d810783131a72d6012103f87d1e945a8ef35f06fc756b90bf6587ebe1d05baf5e725d6327d99e154a7624ffffffff803c291867580a6c5264bdba45c769e624bf0a86018d63ea12ba6368caa6cc46020000006a473044022073ffde9496f12ec992ddb63389072a043318ad366f4cb47773770fd17d79267102205d54d23fcd526d62f545c6fedb35ca49abe57e1ae21ac2c0a1af881512866e5f012103b13d0129b010757f9dccba52b9578042231589f7b70773bb02992746321b1e71ffffffff9d21cfa59811faba29e6773ea8978f7e9c9de17007bdb7df3f092186f40cc627000000008a47304402205495ea8330c3cedbeaba808423eaff2e8ed0bba827d070b06fa72c78c2574ae802207893eb17a95ebb3c3061e210d24e2a792604b3f3195f90ea75afc48de556112e014104f85816096d0c75adb04a6d9e972796eeb6604aa68a2756e660e9bb87c94a754536abb7c1d95bc14933d68db582ae0cc1b0e6a7efa97949662a4713debe675b6affffffff02008d380c010000001976a914cf9b76ed6c36f89d8251281df9b9b043111bafea88acae134d12000000001976a9141ec86146848ae5bfd9688ff3727ae771c372de1188ac00000000", "vin": [{"sequence": 4294967295, "scriptSig": {"hex": "483045022100e841d7011feee60bc1acbfc9cc654274e1078a1ef47a603e9fbd37427c71d6bd022024eb5a2f4072bbe1106a7e4b07a41754bccf4c98a00a1b4ef892d5bce1b551960141049f57da396ca4f278533116cb28398cae142c1fa805cb33d5119f12bad6ed90811fc8c53ee1d2a6fc23f1759974530a1d00bc58bc743bf9c03c522296d89cb075", "asm": "3045022100e841d7011feee60bc1acbfc9cc654274e1078a1ef47a603e9fbd37427c71d6bd022024eb5a2f4072bbe1106a7e4b07a41754bccf4c98a00a1b4ef892d5bce1b55196[ALL] 049f57da396ca4f278533116cb28398cae142c1fa805cb33d5119f12bad6ed90811fc8c53ee1d2a6fc23f1759974530a1d00bc58bc743bf9c03c522296d89cb075"}, "vout": 0, "txid": "05552facc2d463db35b95b62bd2995c523858f98511e27ca410e7a59a4cd229f"}, {"sequence": 4294967295, "scriptSig": {"hex": "483045022100f0036d7eb00e7023706faee0b9a8562c31fea57a9cb49a86ba0e28e31109657902207d5fd44406e2cd984d89209280991c984750a448749f44025d810783131a72d6012103f87d1e945a8ef35f06fc756b90bf6587ebe1d05baf5e725d6327d99e154a7624", "asm": "3045022100f0036d7eb00e7023706faee0b9a8562c31fea57a9cb49a86ba0e28e31109657902207d5fd44406e2cd984d89209280991c984750a448749f44025d810783131a72d6[ALL] 03f87d1e945a8ef35f06fc756b90bf6587ebe1d05baf5e725d6327d99e154a7624"}, "vout": 0, "txid": "bc4bbbbba6d9ce22fc7013c21d3b6f393e95beb430e21ba23458c007de0e4f19"}, {"sequence": 4294967295, "scriptSig": {"hex": "473044022073ffde9496f12ec992ddb63389072a043318ad366f4cb47773770fd17d79267102205d54d23fcd526d62f545c6fedb35ca49abe57e1ae21ac2c0a1af881512866e5f012103b13d0129b010757f9dccba52b9578042231589f7b70773bb02992746321b1e71", "asm": "3044022073ffde9496f12ec992ddb63389072a043318ad366f4cb47773770fd17d79267102205d54d23fcd526d62f545c6fedb35ca49abe57e1ae21ac2c0a1af881512866e5f[ALL] 03b13d0129b010757f9dccba52b9578042231589f7b70773bb02992746321b1e71"}, "vout": 2, "txid": "46cca6ca6863ba12ea638d01860abf24e669c745babd64526c0a586718293c80"}, {"sequence": 4294967295, "scriptSig": {"hex": "47304402205495ea8330c3cedbeaba808423eaff2e8ed0bba827d070b06fa72c78c2574ae802207893eb17a95ebb3c3061e210d24e2a792604b3f3195f90ea75afc48de556112e014104f85816096d0c75adb04a6d9e972796eeb6604aa68a2756e660e9bb87c94a754536abb7c1d95bc14933d68db582ae0cc1b0e6a7efa97949662a4713debe675b6a", "asm": "304402205495ea8330c3cedbeaba808423eaff2e8ed0bba827d070b06fa72c78c2574ae802207893eb17a95ebb3c3061e210d24e2a792604b3f3195f90ea75afc48de556112e[ALL] 04f85816096d0c75adb04a6d9e972796eeb6604aa68a2756e660e9bb87c94a754536abb7c1d95bc14933d68db582ae0cc1b0e6a7efa97949662a4713debe675b6a"}, "vout": 0, "txid": "27c60cf48621093fdfb7bd0770e19d9c7e8f97a83e77e629bafa1198a5cf219d"}], "txid": "010e1d9b85f28b27832ec640c38b94cb346528624630cef9db9dfe55ad14cdb9", "blocktime": 1537872018, "version": 1, "confirmations": 11489, "time": 1537872018, "locktime": 0, "vsize": 732, "size": 732}