{"hash": "27135576e038659f3f5fe56bcf85761d2ca83d654861602c902d1773b07f5674", "blockhash": "0000000000000000001f76057863aec43deb6fa401d9628bb513d65a8098bfab", "vout": [{"scriptPubKey": {"reqSigs": 1, "hex": "76a91465a2355aea64c2069f1c12e80d21793a32aa543888ac", "addresses": ["1AGPZpBCA1uuaV7wjkECjvrBEEvWybsxHn"], "asm": "OP_DUP OP_HASH160 65a2355aea64c2069f1c12e80d21793a32aa5438 OP_EQUALVERIFY OP_CHECKSIG", "type": "pubkeyhash"}, "value": 0.00125057, "n": 0}, {"scriptPubKey": {"reqSigs": 1, "hex": "a914371ecafeccb3f40f26d9ef566a2f20e8c0c80a8887", "addresses": ["36iTydGZS4RFtxGtViPug5qfLvFzigC1HG"], "asm": "OP_HASH160 371ecafeccb3f40f26d9ef566a2f20e8c0c80a88 OP_EQUAL", "type": "scripthash"}, "value": 0.00999096, "n": 1}], "hex": "02000000000102856f4ecc2f7de88ce55e892e704f82f70b3eda21fed01b9f0a42b90b075783ad000000001716001440824cd050da9a7f0c06cf942e437bc6991be75dfeffffffba04ea14df4fed4b66c475bf29fdebd233c9347be6564f9b8dcd3ad4a9a9f30d01000000171600141e2c11a081853d60057d3ea16db73902b1d4cf9ffeffffff0281e80100000000001976a91465a2355aea64c2069f1c12e80d21793a32aa543888acb83e0f000000000017a914371ecafeccb3f40f26d9ef566a2f20e8c0c80a888702483045022100b62c4b5fea43e86b18058c395c649a70fd61114aada6b8277ff5c403dbd5abbd02201a947ea0691da399ecb282fafdadbcc41b82b4e7de166dc1460aaa3911fedbc001210246ad83fcf8da1d9b7ceae334e2ff760b443ebf814b74ba3fed90d4b715c61e2c02483045022100e8f715a8e130d7015415054f23f080a41372d85bc449bae3b28e6a5e5a9a6c3002202f95cc3c73b853dd6e9d8a952ba5b82516978e6219434397cc2cc7966c5e86cd012102c68717a96a4c1073aa16fa6950044cf2a5d21c91187b2ef71608249bf341c8e914490800", "vin": [{"txinwitness": ["3045022100b62c4b5fea43e86b18058c395c649a70fd61114aada6b8277ff5c403dbd5abbd02201a947ea0691da399ecb282fafdadbcc41b82b4e7de166dc1460aaa3911fedbc001", "0246ad83fcf8da1d9b7ceae334e2ff760b443ebf814b74ba3fed90d4b715c61e2c"], "sequence": 4294967294, "scriptSig": {"hex": "16001440824cd050da9a7f0c06cf942e437bc6991be75d", "asm": "001440824cd050da9a7f0c06cf942e437bc6991be75d"}, "vout": 0, "txid": "ad8357070bb9420a9f1bd0fe21da3e0bf7824f702e895ee58ce87d2fcc4e6f85"}, {"txinwitness": ["3045022100e8f715a8e130d7015415054f23f080a41372d85bc449bae3b28e6a5e5a9a6c3002202f95cc3c73b853dd6e9d8a952ba5b82516978e6219434397cc2cc7966c5e86cd01", "02c68717a96a4c1073aa16fa6950044cf2a5d21c91187b2ef71608249bf341c8e9"], "sequence": 4294967294, "scriptSig": {"hex": "1600141e2c11a081853d60057d3ea16db73902b1d4cf9f", "asm": "00141e2c11a081853d60057d3ea16db73902b1d4cf9f"}, "vout": 1, "txid": "0df3a9a9d43acd8d9b4f56e67b34c933d2ebfd29bf75c4664bed4fdf14ea04ba"}], "txid": "0119845641168ffade6e6abcbe44cbcac5385714aa9285fb98d5ef602cd37f08", "blocktime": 1537873891, "version": 2, "confirmations": 11478, "time": 1537873891, "locktime": 542996, "vsize": 259, "size": 422}