{"hash": "011a07f0bc0012b0a0ab47318b890b81927bf4cd08d84239689df82c562f2dbf", "blockhash": "0000000000000000001f76057863aec43deb6fa401d9628bb513d65a8098bfab", "vout": [{"scriptPubKey": {"reqSigs": 1, "hex": "a91443b99ee8b62666c027a2c94f4abb96c25622717687", "addresses": ["37s7ZYwA2LAdsAAkKu6APPJvXQmeabLbdS"], "asm": "OP_HASH160 43b99ee8b62666c027a2c94f4abb96c256227176 OP_EQUAL", "type": "scripthash"}, "value": 0.18223481, "n": 0}, {"scriptPubKey": {"reqSigs": 1, "hex": "76a9145738350f255ccb99b83c750ff9620ef17e79382c88ac", "addresses": ["18xB83DquD9VqkyJrAazes2o7F9fUTXfgq"], "asm": "OP_DUP OP_HASH160 5738350f255ccb99b83c750ff9620ef17e79382c OP_EQUALVERIFY OP_CHECKSIG", "type": "pubkeyhash"}, "value": 0.00032341, "n": 1}], "hex": "010000000282b2f68dcac4c92865758de0dc6cdc4148827894190c4288184c55c58949eb9700000000d900473044022100c5ece16a847757bade3d862ee401c3764bd39ef1485d0c3804a26a03143188e0021f4182d0f6810c224fd181b33d24d7e8d842134afa4f70a490080875173553970147304402203310e4fb452d326a544482199c4c46de09f59c3a56ed913a09dc224aad3c8e8902204525c97b99bddc0926a5c88ae2021301363312d7a7da6b3f295285ff7f245e260147522102907a54bed8ad74b3f35638c60114ca240a308cb986f3f2f306178869a8880b61210374fea1d8b337977f7c04b1ea619df3714fc971c07c78b91472854c57b3cc845b52aeffffffff0e5d55fccd981cffcf93c393ce6ddd7539e402387bac9e4fce4b7e20c4173917010000006b4830450221009807abcfaef3f3aadeb41dd989f2d242f2625793977f2b219fe408f4b66dd71a0220268c29ba2798a5c8905e7393f76fafcdd9623f9103789aa5c7802e964217308a012103ba8e4f6b23dbc7cdebf6b9e71e77da6059a73ecc87016d5979bca2617dbfcca0ffffffff02791116010000000017a91443b99ee8b62666c027a2c94f4abb96c25622717687557e0000000000001976a9145738350f255ccb99b83c750ff9620ef17e79382c88ac00000000", "vin": [{"sequence": 4294967295, "scriptSig": {"hex": "00473044022100c5ece16a847757bade3d862ee401c3764bd39ef1485d0c3804a26a03143188e0021f4182d0f6810c224fd181b33d24d7e8d842134afa4f70a490080875173553970147304402203310e4fb452d326a544482199c4c46de09f59c3a56ed913a09dc224aad3c8e8902204525c97b99bddc0926a5c88ae2021301363312d7a7da6b3f295285ff7f245e260147522102907a54bed8ad74b3f35638c60114ca240a308cb986f3f2f306178869a8880b61210374fea1d8b337977f7c04b1ea619df3714fc971c07c78b91472854c57b3cc845b52ae", "asm": "0 3044022100c5ece16a847757bade3d862ee401c3764bd39ef1485d0c3804a26a03143188e0021f4182d0f6810c224fd181b33d24d7e8d842134afa4f70a49008087517355397[ALL] 304402203310e4fb452d326a544482199c4c46de09f59c3a56ed913a09dc224aad3c8e8902204525c97b99bddc0926a5c88ae2021301363312d7a7da6b3f295285ff7f245e26[ALL] 522102907a54bed8ad74b3f35638c60114ca240a308cb986f3f2f306178869a8880b61210374fea1d8b337977f7c04b1ea619df3714fc971c07c78b91472854c57b3cc845b52ae"}, "vout": 0, "txid": "97eb4989c5554c1888420c199478824841dc6cdce08d756528c9c4ca8df6b282"}, {"sequence": 4294967295, "scriptSig": {"hex": "4830450221009807abcfaef3f3aadeb41dd989f2d242f2625793977f2b219fe408f4b66dd71a0220268c29ba2798a5c8905e7393f76fafcdd9623f9103789aa5c7802e964217308a012103ba8e4f6b23dbc7cdebf6b9e71e77da6059a73ecc87016d5979bca2617dbfcca0", "asm": "30450221009807abcfaef3f3aadeb41dd989f2d242f2625793977f2b219fe408f4b66dd71a0220268c29ba2798a5c8905e7393f76fafcdd9623f9103789aa5c7802e964217308a[ALL] 03ba8e4f6b23dbc7cdebf6b9e71e77da6059a73ecc87016d5979bca2617dbfcca0"}, "vout": 1, "txid": "173917c4207e4bce4f9eac7b3802e43975dd6dce93c393cfff1c98cdfc555d0e"}], "txid": "011a07f0bc0012b0a0ab47318b890b81927bf4cd08d84239689df82c562f2dbf", "blocktime": 1537873891, "version": 1, "confirmations": 11478, "time": 1537873891, "locktime": 0, "vsize": 482, "size": 482}