{"hash": "011aa8071833811297e0944e09b1c814f123cdf76f23ff25e4699cc1d6585107", "blockhash": "0000000000000000000baef3f32e3676a92c3b2e5da21b426e4f302fc371ce76", "vout": [{"scriptPubKey": {"reqSigs": 1, "hex": "a9147e635ffadfd41563de6199a2644d3adce73529bf87", "addresses": ["3DDJ7QSfztxoemvwsAcSFsMpiwJfgXYSsG"], "asm": "OP_HASH160 7e635ffadfd41563de6199a2644d3adce73529bf OP_EQUAL", "type": "scripthash"}, "value": 0.00773832, "n": 0}, {"scriptPubKey": {"reqSigs": 1, "hex": "76a9143e8db41a34777488ceea4791e535800790814c2988ac", "addresses": ["16hkedNEHP8EetggjA9pyPqUK1WDs5LcU3"], "asm": "OP_DUP OP_HASH160 3e8db41a34777488ceea4791e535800790814c29 OP_EQUALVERIFY OP_CHECKSIG", "type": "pubkeyhash"}, "value": 0.02058008, "n": 1}], "hex": "0100000001a7979e3daf55be4ec0c4c5df5cb21b2011270a38877c91bfa89d589d3eac2039010000006b48304502210084f8a6abf8b742bf8eaf687b8d440049d6ef57f2524e1ebe6f3d950d50bf94db02201fd0eac392f713d42e78b1c2e3cdf7c65b7a4fb169c46530342652d2524a7507012103c60ca4a815035a061bbf41b6e5d526e9441816af0c9eab539ce7eb9d7d0dd107ffffffff02c8ce0b000000000017a9147e635ffadfd41563de6199a2644d3adce73529bf8718671f00000000001976a9143e8db41a34777488ceea4791e535800790814c2988ac00000000", "vin": [{"sequence": 4294967295, "scriptSig": {"hex": "48304502210084f8a6abf8b742bf8eaf687b8d440049d6ef57f2524e1ebe6f3d950d50bf94db02201fd0eac392f713d42e78b1c2e3cdf7c65b7a4fb169c46530342652d2524a7507012103c60ca4a815035a061bbf41b6e5d526e9441816af0c9eab539ce7eb9d7d0dd107", "asm": "304502210084f8a6abf8b742bf8eaf687b8d440049d6ef57f2524e1ebe6f3d950d50bf94db02201fd0eac392f713d42e78b1c2e3cdf7c65b7a4fb169c46530342652d2524a7507[ALL] 03c60ca4a815035a061bbf41b6e5d526e9441816af0c9eab539ce7eb9d7d0dd107"}, "vout": 1, "txid": "3920ac3e9d589da8bf917c87380a2711201bb25cdfc5c4c04ebe55af3d9e97a7"}], "txid": "011aa8071833811297e0944e09b1c814f123cdf76f23ff25e4699cc1d6585107", "blocktime": 1537876114, "version": 1, "confirmations": 11459, "time": 1537876114, "locktime": 0, "vsize": 224, "size": 224}