{"hash": "865b47c47a157e16b34ccac194f8a7d9218d6bd4439544a3b8923b59631a3dad", "blockhash": "00000000000000000018f53835495a110e01622372bf6ae95dc86f2b0ab887b0", "vout": [{"scriptPubKey": {"reqSigs": 1, "hex": "76a914c1fc11d6caefdd82c989d0e7c4fb9bd020d3abe388ac", "addresses": ["1JghP8eqwM975AnBxyeqWM7ZEwFJUn4M57"], "asm": "OP_DUP OP_HASH160 c1fc11d6caefdd82c989d0e7c4fb9bd020d3abe3 OP_EQUALVERIFY OP_CHECKSIG", "type": "pubkeyhash"}, "value": 0.00015005, "n": 0}, {"scriptPubKey": {"reqSigs": 1, "hex": "a914bddce1db77593a7ac8d67f0d488c4311d5103ffa87", "addresses": ["3JzvEy64J63pDv7KjyKsVzupMgKcwdgQU4"], "asm": "OP_HASH160 bddce1db77593a7ac8d67f0d488c4311d5103ffa OP_EQUAL", "type": "scripthash"}, "value": 0.00038471, "n": 1}], "hex": "0200000000010168d7bef370b03c7c21cd7133ca49e022e4a942fbec2fc420eacdbd06b4e6111c0100000017160014394c1d55120fea8442873d75d93263e22518f914ffffffff029d3a0000000000001976a914c1fc11d6caefdd82c989d0e7c4fb9bd020d3abe388ac479600000000000017a914bddce1db77593a7ac8d67f0d488c4311d5103ffa8702483045022100f09e1052dbc9ed2e880d709daf763d6e3efc6decff9b94526ce57ca3c86c3e7202201f9c0fa61ff3961f4c24c97b65afb783fd9b44ebe2f62fa0f16065e41c04414a012103e196163b6d30d0fef27eff5bae2754a7ccba75d466b78c87116b6535bacce31b00000000", "vin": [{"txinwitness": ["3045022100f09e1052dbc9ed2e880d709daf763d6e3efc6decff9b94526ce57ca3c86c3e7202201f9c0fa61ff3961f4c24c97b65afb783fd9b44ebe2f62fa0f16065e41c04414a01", "03e196163b6d30d0fef27eff5bae2754a7ccba75d466b78c87116b6535bacce31b"], "sequence": 4294967295, "scriptSig": {"hex": "160014394c1d55120fea8442873d75d93263e22518f914", "asm": "0014394c1d55120fea8442873d75d93263e22518f914"}, "vout": 1, "txid": "1c11e6b406bdcdea20c42fecfb42a9e422e049ca3371cd217c3cb070f3bed768"}], "txid": "011dd29625655d5aa2417d0bc3f2cb623657267544ef546f3fb7c1a138c3179c", "blocktime": 1537870928, "version": 2, "confirmations": 11512, "time": 1537870928, "locktime": 0, "vsize": 168, "size": 250}