{"hash": "011dab418e5f96bc00aedf180ffc481b9b78e340b234d6c1ca8431c611bd75f5", "blockhash": "0000000000000000000dcc0f55137456b1a82d3642486a52398922ac4d620174", "vout": [{"scriptPubKey": {"reqSigs": 1, "hex": "a914169d52f8c126ffa8d139c5c528714d5af7d5209c87", "addresses": ["33kbFqNAdQdLtXimQgmrnDypfmGTBr4K37"], "asm": "OP_HASH160 169d52f8c126ffa8d139c5c528714d5af7d5209c OP_EQUAL", "type": "scripthash"}, "value": 0.086267, "n": 0}], "hex": "0100000001582e0a10ea3d872a0b9de753b09c2e36a16f42c82ba84db5957f0c9e4bef1add020000006b483045022100d99eb0fd330f5a8ddde329bf18edaa5d424e01d742c164d54d9970ec8e8b558f022039fdd500ecf0314fb856474aa0bc97e6b63c0f9ec5bf6f06276774dc976be7eb012102ee2290b052ece6fc0dfc082eecb7dccae3a693aeae44edbdfea018e0ceb63b1effffffff010ca283000000000017a914169d52f8c126ffa8d139c5c528714d5af7d5209c8700000000", "vin": [{"sequence": 4294967295, "scriptSig": {"hex": "483045022100d99eb0fd330f5a8ddde329bf18edaa5d424e01d742c164d54d9970ec8e8b558f022039fdd500ecf0314fb856474aa0bc97e6b63c0f9ec5bf6f06276774dc976be7eb012102ee2290b052ece6fc0dfc082eecb7dccae3a693aeae44edbdfea018e0ceb63b1e", "asm": "3045022100d99eb0fd330f5a8ddde329bf18edaa5d424e01d742c164d54d9970ec8e8b558f022039fdd500ecf0314fb856474aa0bc97e6b63c0f9ec5bf6f06276774dc976be7eb[ALL] 02ee2290b052ece6fc0dfc082eecb7dccae3a693aeae44edbdfea018e0ceb63b1e"}, "vout": 2, "txid": "dd1aef4b9e0c7f95b54da82bc8426fa1362e9cb053e79d0b2a873dea100a2e58"}], "txid": "011dab418e5f96bc00aedf180ffc481b9b78e340b234d6c1ca8431c611bd75f5", "blocktime": 1537870268, "version": 1, "confirmations": 11518, "time": 1537870268, "locktime": 0, "vsize": 190, "size": 190}