{"hash": "0124b7843bfd9170f7a1956a3f4049a496c9ee4f9cd6d2e7cdaf5df313b31c8d", "blockhash": "0000000000000000001e0dab787dd257d1dbfcb92a98c2207d5e1078be1f4165", "vout": [{"scriptPubKey": {"reqSigs": 1, "hex": "76a914ea58999933a06b5046db0b3b52e3d5a8903f970288ac", "addresses": ["1NN7Fvaj4hJjjGcZAy3rzothhxZqMTgxyc"], "asm": "OP_DUP OP_HASH160 ea58999933a06b5046db0b3b52e3d5a8903f9702 OP_EQUALVERIFY OP_CHECKSIG", "type": "pubkeyhash"}, "value": 0.01562446, "n": 0}, {"scriptPubKey": {"reqSigs": 1, "hex": "76a9140b55b127b01626019576d25073d5aee5f740fe0988ac", "addresses": ["122w66YFiJDCmw3uFHoaBw9oF8HkB27DHi"], "asm": "OP_DUP OP_HASH160 0b55b127b01626019576d25073d5aee5f740fe09 OP_EQUALVERIFY OP_CHECKSIG", "type": "pubkeyhash"}, "value": 0.02112667, "n": 1}], "hex": "0100000001da24f5605583b9c81513d7032e34e5ffd69f92531ac3f9a97b170f1e94465067000000006b483045022100d3c0abde50fe377cfb9970dcd760d0744e818cc468aaed9d435f2bfa2d49fd16022062d82396d7d64281e5d97674099e61fad7acd886909f47f53e132af65b9863cb012103ede8dfb917c8413cd0e5fd33ae4c8170734b24d1b2447ff5e37bc8467fd95833ffffffff024ed71700000000001976a914ea58999933a06b5046db0b3b52e3d5a8903f970288ac9b3c2000000000001976a9140b55b127b01626019576d25073d5aee5f740fe0988ac00000000", "vin": [{"sequence": 4294967295, "scriptSig": {"hex": "483045022100d3c0abde50fe377cfb9970dcd760d0744e818cc468aaed9d435f2bfa2d49fd16022062d82396d7d64281e5d97674099e61fad7acd886909f47f53e132af65b9863cb012103ede8dfb917c8413cd0e5fd33ae4c8170734b24d1b2447ff5e37bc8467fd95833", "asm": "3045022100d3c0abde50fe377cfb9970dcd760d0744e818cc468aaed9d435f2bfa2d49fd16022062d82396d7d64281e5d97674099e61fad7acd886909f47f53e132af65b9863cb[ALL] 03ede8dfb917c8413cd0e5fd33ae4c8170734b24d1b2447ff5e37bc8467fd95833"}, "vout": 0, "txid": "675046941e0f177ba9f9c31a53929fd6ffe5342e03d71315c8b9835560f524da"}], "txid": "0124b7843bfd9170f7a1956a3f4049a496c9ee4f9cd6d2e7cdaf5df313b31c8d", "blocktime": 1537872475, "version": 1, "confirmations": 11486, "time": 1537872475, "locktime": 0, "vsize": 226, "size": 226}