{"hash": "01288e02bff0a0c94da2d5d7ba271ef5036ca94894a0d5a64fc26eed3490e322", "blockhash": "0000000000000000001f76057863aec43deb6fa401d9628bb513d65a8098bfab", "vout": [{"scriptPubKey": {"type": "nulldata", "hex": "6a4c50000077d800010e0e7dff8cbfd771d8f827995b23cc0f42c2fc38c5e5bf9ae76da98a211a9b9a00f305af959bb1524a8c64273df45baa15970612b77f0da053e21d100759d4ba30d2c37bb011d97e02cf", "asm": "OP_RETURN 000077d800010e0e7dff8cbfd771d8f827995b23cc0f42c2fc38c5e5bf9ae76da98a211a9b9a00f305af959bb1524a8c64273df45baa15970612b77f0da053e21d100759d4ba30d2c37bb011d97e02cf"}, "value": 0.0, "n": 0}, {"scriptPubKey": {"reqSigs": 1, "hex": "76a91463c3af4be5c69719a01cacf038768e1d6fb788b588ac", "addresses": ["1A6WKQZE9UM5PFFn9AzBFuFiNjmr4gA1fg"], "asm": "OP_DUP OP_HASH160 63c3af4be5c69719a01cacf038768e1d6fb788b5 OP_EQUALVERIFY OP_CHECKSIG", "type": "pubkeyhash"}, "value": 0.00637106, "n": 1}], "hex": "0100000001ae9de1613c21bd4b27a826bb6fa161174573a800a50724aff9c99a5faef12fb6000000006a4730440220668dc8f934bbc19db52ce7bfb2a6706132cf315e446134c150178486409cd90902206e0731d99729d3a953ee350612c9717987404f2ea4f873999670397faa6b216e0121020d69fa42d183f33ef18c7f48e8b1a8dfb9891f19d27d3aa4717486b65ac77adcffffffff020000000000000000536a4c50000077d800010e0e7dff8cbfd771d8f827995b23cc0f42c2fc38c5e5bf9ae76da98a211a9b9a00f305af959bb1524a8c64273df45baa15970612b77f0da053e21d100759d4ba30d2c37bb011d97e02cfb2b80900000000001976a91463c3af4be5c69719a01cacf038768e1d6fb788b588ac00000000", "vin": [{"sequence": 4294967295, "scriptSig": {"hex": "4730440220668dc8f934bbc19db52ce7bfb2a6706132cf315e446134c150178486409cd90902206e0731d99729d3a953ee350612c9717987404f2ea4f873999670397faa6b216e0121020d69fa42d183f33ef18c7f48e8b1a8dfb9891f19d27d3aa4717486b65ac77adc", "asm": "30440220668dc8f934bbc19db52ce7bfb2a6706132cf315e446134c150178486409cd90902206e0731d99729d3a953ee350612c9717987404f2ea4f873999670397faa6b216e[ALL] 020d69fa42d183f33ef18c7f48e8b1a8dfb9891f19d27d3aa4717486b65ac77adc"}, "vout": 0, "txid": "b62ff1ae5f9ac9f9af2407a500a873451761a16fbb26a8274bbd213c61e19dae"}], "txid": "01288e02bff0a0c94da2d5d7ba271ef5036ca94894a0d5a64fc26eed3490e322", "blocktime": 1537873891, "version": 1, "confirmations": 11478, "time": 1537873891, "locktime": 0, "vsize": 283, "size": 283}