{"hash": "01289cc573a2d76907663de5b1da94d299e8d6513eceef40a4d11152a0d486eb", "blockhash": "0000000000000000000e13cef7c366c0283d82e591d1acd082e914b08063cdf1", "vout": [{"scriptPubKey": {"reqSigs": 1, "hex": "76a9148ae819bd2983c55ce4163243eef14931b91e264f88ac", "addresses": ["1DfUJ6rq2KpE1Y88xA3QJm4Z7GduHaN7sy"], "asm": "OP_DUP OP_HASH160 8ae819bd2983c55ce4163243eef14931b91e264f OP_EQUALVERIFY OP_CHECKSIG", "type": "pubkeyhash"}, "value": 0.01001106, "n": 0}, {"scriptPubKey": {"reqSigs": 1, "hex": "a9149706daf99580c1c93359b1d5cf6bd376f61381ef87", "addresses": ["3FTaAq5F7BTBbC3gkq6HhGJ2BtAeywpzF7"], "asm": "OP_HASH160 9706daf99580c1c93359b1d5cf6bd376f61381ef OP_EQUAL", "type": "scripthash"}, "value": 0.032106, "n": 1}], "hex": "0200000004387b2f176ad4dba0fa5fd84fc546f4716a8383eecf0721f29b26023ee9e0770f000000006a47304402205ae21ce4f83788218176cb8839fee065f021430c9d63b5542ece8adeedf3904b022078570a72d9da24b256f897463e9a3126bd3a99c314aee25f99c3206cba36668c012103d0fd9658f9657e53437a0d0274c6f487433e8366b70c8a8956b3d790fe7c322ffeffffff4b1105a207de0e760fb69617315d9b91040123389ac158e0dc28c52574a3b858000000006a47304402202a7fa04f51a6199072ca39b4d13de537083a03b3a697fbd4b4b7f13243173aba02202755b9c57d87299abcb472ca1fc5a2b2e759d9a6190d1cdd7e47fd6fa396e7fb01210264aae6641015ec6a73f573214fc92a6882529fa35a1aecebd769a5f4f0c9bf73fefffffff614c0dd156968f8a9f740e644c577d1a04eb3ad0abb0a0b418c92702e13baca000000006a47304402207eb288f9dbfd720e731c9ce6d6c38ce195801b369f109830e6a3b5f851324c6602200bd58549053c1969242cceb7edbd49ec205c22351e94db14183120eb385408b1012103a421a3c7bd0617591b955ecfca04aecf8964b5c8e7a38867aa60a70e48b8651efeffffffff0d71413bddaa35010086c0873bc75ee36e71ae9fdc6b52f56fcda3f0d54e2f000000006b483045022100d1a22c1eb77b281fecadbb8817396c6e262eadc6ab84cdf44f02a5a1f8f785bd0220372fa2ea54bb04d111958aeb4a798742de1be388a45bb715a92ba695b326e55a0121023fbbd3d52d0602ff3ff46082378dd62b9dde1a1de5ea8f0c76f775780071a86afeffffff0292460f00000000001976a9148ae819bd2983c55ce4163243eef14931b91e264f88ac68fd30000000000017a9149706daf99580c1c93359b1d5cf6bd376f61381ef8710490800", "vin": [{"sequence": 4294967294, "scriptSig": {"hex": "47304402205ae21ce4f83788218176cb8839fee065f021430c9d63b5542ece8adeedf3904b022078570a72d9da24b256f897463e9a3126bd3a99c314aee25f99c3206cba36668c012103d0fd9658f9657e53437a0d0274c6f487433e8366b70c8a8956b3d790fe7c322f", "asm": "304402205ae21ce4f83788218176cb8839fee065f021430c9d63b5542ece8adeedf3904b022078570a72d9da24b256f897463e9a3126bd3a99c314aee25f99c3206cba36668c[ALL] 03d0fd9658f9657e53437a0d0274c6f487433e8366b70c8a8956b3d790fe7c322f"}, "vout": 0, "txid": "0f77e0e93e02269bf22107cfee83836a71f446c54fd85ffaa0dbd46a172f7b38"}, {"sequence": 4294967294, "scriptSig": {"hex": "47304402202a7fa04f51a6199072ca39b4d13de537083a03b3a697fbd4b4b7f13243173aba02202755b9c57d87299abcb472ca1fc5a2b2e759d9a6190d1cdd7e47fd6fa396e7fb01210264aae6641015ec6a73f573214fc92a6882529fa35a1aecebd769a5f4f0c9bf73", "asm": "304402202a7fa04f51a6199072ca39b4d13de537083a03b3a697fbd4b4b7f13243173aba02202755b9c57d87299abcb472ca1fc5a2b2e759d9a6190d1cdd7e47fd6fa396e7fb[ALL] 0264aae6641015ec6a73f573214fc92a6882529fa35a1aecebd769a5f4f0c9bf73"}, "vout": 0, "txid": "58b8a37425c528dce058c19a38230104919b5d311796b60f760ede07a205114b"}, {"sequence": 4294967294, "scriptSig": {"hex": "47304402207eb288f9dbfd720e731c9ce6d6c38ce195801b369f109830e6a3b5f851324c6602200bd58549053c1969242cceb7edbd49ec205c22351e94db14183120eb385408b1012103a421a3c7bd0617591b955ecfca04aecf8964b5c8e7a38867aa60a70e48b8651e", "asm": "304402207eb288f9dbfd720e731c9ce6d6c38ce195801b369f109830e6a3b5f851324c6602200bd58549053c1969242cceb7edbd49ec205c22351e94db14183120eb385408b1[ALL] 03a421a3c7bd0617591b955ecfca04aecf8964b5c8e7a38867aa60a70e48b8651e"}, "vout": 0, "txid": "caba132e70928c410b0abb0aadb34ea0d177c544e640f7a9f8686915ddc014f6"}, {"sequence": 4294967294, "scriptSig": {"hex": "483045022100d1a22c1eb77b281fecadbb8817396c6e262eadc6ab84cdf44f02a5a1f8f785bd0220372fa2ea54bb04d111958aeb4a798742de1be388a45bb715a92ba695b326e55a0121023fbbd3d52d0602ff3ff46082378dd62b9dde1a1de5ea8f0c76f775780071a86a", "asm": "3045022100d1a22c1eb77b281fecadbb8817396c6e262eadc6ab84cdf44f02a5a1f8f785bd0220372fa2ea54bb04d111958aeb4a798742de1be388a45bb715a92ba695b326e55a[ALL] 023fbbd3d52d0602ff3ff46082378dd62b9dde1a1de5ea8f0c76f775780071a86a"}, "vout": 0, "txid": "2f4ed5f0a3cd6ff5526bdc9fae716ee35ec73b87c086000135aadd3b41710dff"}], "txid": "01289cc573a2d76907663de5b1da94d299e8d6513eceef40a4d11152a0d486eb", "blocktime": 1537871767, "version": 2, "confirmations": 11495, "time": 1537871767, "locktime": 542992, "vsize": 665, "size": 665}