{"hash": "0129b81b61202e022b418f1eb687c72cfa40ce81b1ec579d4187b48950b045be", "blockhash": "0000000000000000001cda96e906b7601b7a6fb1a3b62bca570a9e5d8f4b3de1", "vout": [{"scriptPubKey": {"reqSigs": 1, "hex": "76a91465b0ba0c7ddbf792d689cfc6a9d21444d053428088ac", "addresses": ["1AGgxZmUvmZWkm8SfC2DRQpXeBW2NPQG32"], "asm": "OP_DUP OP_HASH160 65b0ba0c7ddbf792d689cfc6a9d21444d0534280 OP_EQUALVERIFY OP_CHECKSIG", "type": "pubkeyhash"}, "value": 0.00638916, "n": 0}, {"scriptPubKey": {"type": "nulldata", "hex": "6a4c50000077d500017b7451d3863b8d420c7093555b23cc0f42c2fc38c5e5bf9ae76da98a211a5bd994bab65537662fb9fa51cd26c93f5baa151f0612d711973bc7821d100759d4ba30d2c37bb011d97e02cf", "asm": "OP_RETURN 000077d500017b7451d3863b8d420c7093555b23cc0f42c2fc38c5e5bf9ae76da98a211a5bd994bab65537662fb9fa51cd26c93f5baa151f0612d711973bc7821d100759d4ba30d2c37bb011d97e02cf"}, "value": 0.0, "n": 1}], "hex": "0100000001f9f2ba02c43a1d34636258b573430e2377970841732647e4b34e1b451f80eb9c000000006a47304402200b436244fffb7ef37f967b3553fcc6d05900c94b01f337fa8583dded69e96a1c022027537a6ae15f61cbda7dfabf35e3a198a44ed79bcf164c75eb39b9f31c15b27b0121024bd3cc46d48d960aadef7097342afb8a7804b6b7ba5cf0d3c8a93accdf46bd3fffffffff02c4bf0900000000001976a91465b0ba0c7ddbf792d689cfc6a9d21444d053428088ac0000000000000000536a4c50000077d500017b7451d3863b8d420c7093555b23cc0f42c2fc38c5e5bf9ae76da98a211a5bd994bab65537662fb9fa51cd26c93f5baa151f0612d711973bc7821d100759d4ba30d2c37bb011d97e02cf00000000", "vin": [{"sequence": 4294967295, "scriptSig": {"hex": "47304402200b436244fffb7ef37f967b3553fcc6d05900c94b01f337fa8583dded69e96a1c022027537a6ae15f61cbda7dfabf35e3a198a44ed79bcf164c75eb39b9f31c15b27b0121024bd3cc46d48d960aadef7097342afb8a7804b6b7ba5cf0d3c8a93accdf46bd3f", "asm": "304402200b436244fffb7ef37f967b3553fcc6d05900c94b01f337fa8583dded69e96a1c022027537a6ae15f61cbda7dfabf35e3a198a44ed79bcf164c75eb39b9f31c15b27b[ALL] 024bd3cc46d48d960aadef7097342afb8a7804b6b7ba5cf0d3c8a93accdf46bd3f"}, "vout": 0, "txid": "9ceb801f451b4eb3e447267341089777230e4373b5586263341d3ac402baf2f9"}], "txid": "0129b81b61202e022b418f1eb687c72cfa40ce81b1ec579d4187b48950b045be", "blocktime": 1537873282, "version": 1, "confirmations": 11484, "time": 1537873282, "locktime": 0, "vsize": 283, "size": 283}