{"hash": "012ea8ca808b247f394484bb1dbba82c46a76b55a83cf265467e51e959405daa", "blockhash": "0000000000000000000e13cef7c366c0283d82e591d1acd082e914b08063cdf1", "vout": [{"scriptPubKey": {"reqSigs": 1, "hex": "76a9145a1fc16d9e1ed1396cbecbd5c9d256b337a7b49b88ac", "addresses": ["19DXrgW215GAjTwwy6CRz3QnYLFX3d1uYv"], "asm": "OP_DUP OP_HASH160 5a1fc16d9e1ed1396cbecbd5c9d256b337a7b49b OP_EQUALVERIFY OP_CHECKSIG", "type": "pubkeyhash"}, "value": 0.01050103, "n": 0}, {"scriptPubKey": {"reqSigs": 1, "hex": "76a914b5a0584cc1e12141228a77a743ce6ee8a83e277988ac", "addresses": ["1HZMPgYPyUt4twSkv1PLStC7G8Rhp6JUUb"], "asm": "OP_DUP OP_HASH160 b5a0584cc1e12141228a77a743ce6ee8a83e2779 OP_EQUALVERIFY OP_CHECKSIG", "type": "pubkeyhash"}, "value": 0.00291751, "n": 1}], "hex": "020000000200690685b9683d04e2441766edd58e7103ec7b9b19c7fe3246479661a3fea50a000000006b483045022100836e1aa96c346b4bda3102492200d84d4c61175b1ce75da7f24bff7947b9b38902201f22ae07d51a29a8e615ef2bb2bf41622d4ad5fe1ab0002771a74eb665c1221e012103ddd02bd7c81b7fd898a5ee9338d98647d1bee51cba369c1556b43ada92fd62fcfeffffff8177aa53cf46baf479fcbe6c36e46b79e69c41f5ac5454d3b487325143d55830000000006b483045022100ea3fb9b2f8e069d6d848e89f9459eba9d92403c0a2bea18ef2fadd781946330f0220664dfb152ae84bb84bd7abd7e7b922b1963a9ad2ea42693961d6a72e91f020a1012102b1d2235d7445308c6927b98b4d55b7631b4fe6c631336e95a47168d0809b9d16feffffff02f7051000000000001976a9145a1fc16d9e1ed1396cbecbd5c9d256b337a7b49b88aca7730400000000001976a914b5a0584cc1e12141228a77a743ce6ee8a83e277988ac10490800", "vin": [{"sequence": 4294967294, "scriptSig": {"hex": "483045022100836e1aa96c346b4bda3102492200d84d4c61175b1ce75da7f24bff7947b9b38902201f22ae07d51a29a8e615ef2bb2bf41622d4ad5fe1ab0002771a74eb665c1221e012103ddd02bd7c81b7fd898a5ee9338d98647d1bee51cba369c1556b43ada92fd62fc", "asm": "3045022100836e1aa96c346b4bda3102492200d84d4c61175b1ce75da7f24bff7947b9b38902201f22ae07d51a29a8e615ef2bb2bf41622d4ad5fe1ab0002771a74eb665c1221e[ALL] 03ddd02bd7c81b7fd898a5ee9338d98647d1bee51cba369c1556b43ada92fd62fc"}, "vout": 0, "txid": "0aa5fea36196474632fec7199b7bec03718ed5ed661744e2043d68b985066900"}, {"sequence": 4294967294, "scriptSig": {"hex": "483045022100ea3fb9b2f8e069d6d848e89f9459eba9d92403c0a2bea18ef2fadd781946330f0220664dfb152ae84bb84bd7abd7e7b922b1963a9ad2ea42693961d6a72e91f020a1012102b1d2235d7445308c6927b98b4d55b7631b4fe6c631336e95a47168d0809b9d16", "asm": "3045022100ea3fb9b2f8e069d6d848e89f9459eba9d92403c0a2bea18ef2fadd781946330f0220664dfb152ae84bb84bd7abd7e7b922b1963a9ad2ea42693961d6a72e91f020a1[ALL] 02b1d2235d7445308c6927b98b4d55b7631b4fe6c631336e95a47168d0809b9d16"}, "vout": 0, "txid": "3058d543513287b4d35454acf5419ce6796be4366cbefc79f4ba46cf53aa7781"}], "txid": "012ea8ca808b247f394484bb1dbba82c46a76b55a83cf265467e51e959405daa", "blocktime": 1537871767, "version": 2, "confirmations": 11491, "time": 1537871767, "locktime": 542992, "vsize": 374, "size": 374}