{"hash": "0132091facc0f9a0c8d3a2acf64e03c71e35f9ce0f20af38c0b63db946fb7667", "blockhash": "000000000000000000022b45ed06c6f4ccd3cf7fb5ba4856ebd2e58215665228", "vout": [{"scriptPubKey": {"reqSigs": 1, "hex": "76a91423a6cdbafce8621253731b111d2eb29feef911c688ac", "addresses": ["14FWUSACQoShkwG4oxDxW8DUUzvP7q7Ku6"], "asm": "OP_DUP OP_HASH160 23a6cdbafce8621253731b111d2eb29feef911c6 OP_EQUALVERIFY OP_CHECKSIG", "type": "pubkeyhash"}, "value": 0.077925, "n": 0}, {"scriptPubKey": {"reqSigs": 1, "hex": "76a914d5ba2eb2d52670fbe9522748bf642da754eb0d6f88ac", "addresses": ["1LV5y3NkVkmdWnF6xRCEXrAnUkRgge4KSq"], "asm": "OP_DUP OP_HASH160 d5ba2eb2d52670fbe9522748bf642da754eb0d6f OP_EQUALVERIFY OP_CHECKSIG", "type": "pubkeyhash"}, "value": 6.56446987, "n": 1}], "hex": "0100000001fc28a7a574d343ddc42775c90292e30e413df07040a90da1a6fff869b6a0d6d2010000006b48304502210099a8016d2d7825af86d0c31b38a67b0c9b95fa1f3089b09f69e1c7980f8b9b310220068ad998b2e6251817d5d7d0d356e06643eaf5542a4187c6dc0b585205d9a459012102c19ebc0e7fe714e24c55adaeebc7dbab2dc9a208b511bd1b6e83db85506d4d19ffffffff0274e77600000000001976a91423a6cdbafce8621253731b111d2eb29feef911c688ac0b962027000000001976a914d5ba2eb2d52670fbe9522748bf642da754eb0d6f88ac00000000", "vin": [{"sequence": 4294967295, "scriptSig": {"hex": "48304502210099a8016d2d7825af86d0c31b38a67b0c9b95fa1f3089b09f69e1c7980f8b9b310220068ad998b2e6251817d5d7d0d356e06643eaf5542a4187c6dc0b585205d9a459012102c19ebc0e7fe714e24c55adaeebc7dbab2dc9a208b511bd1b6e83db85506d4d19", "asm": "304502210099a8016d2d7825af86d0c31b38a67b0c9b95fa1f3089b09f69e1c7980f8b9b310220068ad998b2e6251817d5d7d0d356e06643eaf5542a4187c6dc0b585205d9a459[ALL] 02c19ebc0e7fe714e24c55adaeebc7dbab2dc9a208b511bd1b6e83db85506d4d19"}, "vout": 1, "txid": "d2d6a0b669f8ffa6a10da94070f03d410ee39202c97527c4dd43d374a5a728fc"}], "txid": "0132091facc0f9a0c8d3a2acf64e03c71e35f9ce0f20af38c0b63db946fb7667", "blocktime": 1537869901, "version": 1, "confirmations": 11523, "time": 1537869901, "locktime": 0, "vsize": 226, "size": 226}