{"hash": "23b0a69420b46687f71baec2a30c3bd2712ac2af7a30e9c97a85928593d28fbb", "blockhash": "00000000000000000017f5eb5941039fbcee6240d03bc1f2f8e35350df66a1d8", "vout": [{"scriptPubKey": {"reqSigs": 1, "hex": "76a914b1ee2ef33568367b7a75f6c321945b1a0eb895db88ac", "addresses": ["1HDowE9SBH6rRpB8WdrEh74xqZx6uBFn2e"], "asm": "OP_DUP OP_HASH160 b1ee2ef33568367b7a75f6c321945b1a0eb895db OP_EQUALVERIFY OP_CHECKSIG", "type": "pubkeyhash"}, "value": 0.0024126, "n": 0}, {"scriptPubKey": {"reqSigs": 1, "hex": "a91414cb417360afd5354b3d51fa8f8c3a8a45354a1c87", "addresses": ["33axvqC11Vqq6h6ttDckdAahzt3zzazYSf"], "asm": "OP_HASH160 14cb417360afd5354b3d51fa8f8c3a8a45354a1c OP_EQUAL", "type": "scripthash"}, "value": 0.01014418, "n": 1}], "hex": "020000000001026e3488f9f97086911ced18db5fbc1d9ad59ae7a765bdf84df68c65ce98e1e386010000001716001460d20f979e4900b0fb820954292b77e7052c9769feffffffe4ff714a2fdf7ec91c512d6a99e98602b676076daada050d400af28c31da33a80b000000171600142c70421073c8b07d5398c5375b22a6251e71967cfeffffff026cae0300000000001976a914b1ee2ef33568367b7a75f6c321945b1a0eb895db88ac927a0f000000000017a91414cb417360afd5354b3d51fa8f8c3a8a45354a1c870247304402202bf530712bd708121c723874c99f27f174b045373e247d6fcdb3a43572b90ace0220701ce961d5d848efd9c4e0d56ec2361bc36436ed8ae3fc5aeb72ff881ae70ffa012103e5a2a302c294996bf78a75a1afbde37fb644a460ece76392195c99a6da55df2f02483045022100b7c761f267f82f792e0d70b303b3c573c6df20b2050e2fac32200ecef8a84cf802203707497ec4218d097c1670d388fd4c5b5ffa97eaf6186a36f8cfa6c7f505f6e3012102ebf596c175521a8ffecf9dec7126e9f10c19b6236c2da255dd6d8343f0161d4b15490800", "vin": [{"txinwitness": ["304402202bf530712bd708121c723874c99f27f174b045373e247d6fcdb3a43572b90ace0220701ce961d5d848efd9c4e0d56ec2361bc36436ed8ae3fc5aeb72ff881ae70ffa01", "03e5a2a302c294996bf78a75a1afbde37fb644a460ece76392195c99a6da55df2f"], "sequence": 4294967294, "scriptSig": {"hex": "16001460d20f979e4900b0fb820954292b77e7052c9769", "asm": "001460d20f979e4900b0fb820954292b77e7052c9769"}, "vout": 1, "txid": "86e3e198ce658cf64df8bd65a7e79ad59a1dbc5fdb18ed1c918670f9f988346e"}, {"txinwitness": ["3045022100b7c761f267f82f792e0d70b303b3c573c6df20b2050e2fac32200ecef8a84cf802203707497ec4218d097c1670d388fd4c5b5ffa97eaf6186a36f8cfa6c7f505f6e301", "02ebf596c175521a8ffecf9dec7126e9f10c19b6236c2da255dd6d8343f0161d4b"], "sequence": 4294967294, "scriptSig": {"hex": "1600142c70421073c8b07d5398c5375b22a6251e71967c", "asm": "00142c70421073c8b07d5398c5375b22a6251e71967c"}, "vout": 11, "txid": "a833da318cf20a400d05daaa6d0776b60286e9996a2d511cc97edf2f4a71ffe4"}], "txid": "013669c6c4822a4e8cfd4786fccf25a80c37ac4a581ee99f9fe70969ac56d438", "blocktime": 1537874412, "version": 2, "confirmations": 11468, "time": 1537874412, "locktime": 542997, "vsize": 259, "size": 421}