{"hash": "013982eb09c63a0be8e6885e807a19915e3a1ee16adf2331a75ba6d5428e0e2b", "blockhash": "0000000000000000000e13cef7c366c0283d82e591d1acd082e914b08063cdf1", "vout": [{"scriptPubKey": {"reqSigs": 1, "hex": "76a914e615c67495312a76061bc7722ba5d4618229911388ac", "addresses": ["1MyaW6CGdqbcrdQKoS4DBwniCCp4nZ8JfY"], "asm": "OP_DUP OP_HASH160 e615c67495312a76061bc7722ba5d46182299113 OP_EQUALVERIFY OP_CHECKSIG", "type": "pubkeyhash"}, "value": 0.01779274, "n": 0}, {"scriptPubKey": {"reqSigs": 1, "hex": "a914e23764fb5ca8e55f30b31528aae34d1f5ff70a7287", "addresses": ["3NK8zmjKe55ENpPv175PMABTypRzsJMtAQ"], "asm": "OP_HASH160 e23764fb5ca8e55f30b31528aae34d1f5ff70a72 OP_EQUAL", "type": "scripthash"}, "value": 0.078, "n": 1}], "hex": "01000000020749c1f4030bbe430fc8548d69af955b5a9c63fd7f141e6ea75f4a87ea12f567000000006a47304402205676ca5be9adef4a657c8063330674be8f674ca67f808d2b4c6ea8aa281959520220756dbe060a9622a8d159cb3b223610a7b18ba1346658e13a05cb86f3922db9b20121028f8cbb06cfb066b01872eb3e971c37cf37e4445cb8393b545c7f2ffc62c6b815ffffffff98d98854a4a7beed3ce543cd9d2d195a79e5d2bcef36380dea2ec10cf6e6a86d010000006a47304402201fa8789e27fa053ddb18bdc25d11815fe4111f183f0794a74833c1e74eadd78d02207eae721db5fa50ea97e26ccbec1974c13c56805ac9dae1ed02f93d30dcd8fca20121020ad8a915be72994bd4c3bf060f59ceeceb3213f3887a85f840454a98f556d6f6ffffffff024a261b00000000001976a914e615c67495312a76061bc7722ba5d4618229911388acc00477000000000017a914e23764fb5ca8e55f30b31528aae34d1f5ff70a728700000000", "vin": [{"sequence": 4294967295, "scriptSig": {"hex": "47304402205676ca5be9adef4a657c8063330674be8f674ca67f808d2b4c6ea8aa281959520220756dbe060a9622a8d159cb3b223610a7b18ba1346658e13a05cb86f3922db9b20121028f8cbb06cfb066b01872eb3e971c37cf37e4445cb8393b545c7f2ffc62c6b815", "asm": "304402205676ca5be9adef4a657c8063330674be8f674ca67f808d2b4c6ea8aa281959520220756dbe060a9622a8d159cb3b223610a7b18ba1346658e13a05cb86f3922db9b2[ALL] 028f8cbb06cfb066b01872eb3e971c37cf37e4445cb8393b545c7f2ffc62c6b815"}, "vout": 0, "txid": "67f512ea874a5fa76e1e147ffd639c5a5b95af698d54c80f43be0b03f4c14907"}, {"sequence": 4294967295, "scriptSig": {"hex": "47304402201fa8789e27fa053ddb18bdc25d11815fe4111f183f0794a74833c1e74eadd78d02207eae721db5fa50ea97e26ccbec1974c13c56805ac9dae1ed02f93d30dcd8fca20121020ad8a915be72994bd4c3bf060f59ceeceb3213f3887a85f840454a98f556d6f6", "asm": "304402201fa8789e27fa053ddb18bdc25d11815fe4111f183f0794a74833c1e74eadd78d02207eae721db5fa50ea97e26ccbec1974c13c56805ac9dae1ed02f93d30dcd8fca2[ALL] 020ad8a915be72994bd4c3bf060f59ceeceb3213f3887a85f840454a98f556d6f6"}, "vout": 1, "txid": "6da8e6f60cc12eea0d3836efbcd2e5795a192d9dcd43e53cedbea7a45488d998"}], "txid": "013982eb09c63a0be8e6885e807a19915e3a1ee16adf2331a75ba6d5428e0e2b", "blocktime": 1537871767, "version": 1, "confirmations": 11495, "time": 1537871767, "locktime": 0, "vsize": 370, "size": 370}