{"hash": "0139e9295bdec96cd0a221adb72c2c2b9bab67f925c28e4d9387cf0c10d3b820", "blockhash": "0000000000000000000dcc0f55137456b1a82d3642486a52398922ac4d620174", "vout": [{"scriptPubKey": {"reqSigs": 1, "hex": "76a914d243e6abb9a60fbff430b421d2df4b7d59ec186088ac", "addresses": ["1LAnF8h3qMGx3TSwNUHVneBZUEpwE4gu3D"], "asm": "OP_DUP OP_HASH160 d243e6abb9a60fbff430b421d2df4b7d59ec1860 OP_EQUALVERIFY OP_CHECKSIG", "type": "pubkeyhash"}, "value": 0.00076972, "n": 0}, {"scriptPubKey": {"reqSigs": 1, "hex": "76a9143851f34d13937b673a7d24a1950bb5b21ce94af388ac", "addresses": ["168o1kqNquEJeR9vosUB5fw4eAwcVAgh8P"], "asm": "OP_DUP OP_HASH160 3851f34d13937b673a7d24a1950bb5b21ce94af3 OP_EQUALVERIFY OP_CHECKSIG", "type": "pubkeyhash"}, "value": 5.46e-06, "n": 1}, {"scriptPubKey": {"type": "nulldata", "hex": "6a146f6d6e69000000000000001f0000012eae09c800", "asm": "OP_RETURN 6f6d6e69000000000000001f0000012eae09c800"}, "value": 0.0, "n": 2}], "hex": "01000000028ad3f4c1af6e66939c598e6c180ea857f2eaf0080473979d26e1f7cc6fee75bd000000006a47304402207651d6b1a84752b3bb981a31562b44ae0aca7f6aad46e451adf5b013fbf20aaf0220293273f6e5689bfa597dfebbe06c432a7f8a2918df955eb8dc97f58916a42e460121031732355642b7be7c92cba3a431f4cb2b70b575d541f722c29628091f66f5b76effffffff32ac3758e646c4de951f27b45b03bb43819f8a5cb95884529cd53022048d96ae000000006a473044022053add03e1ab9f509146446a92607ece589b9e7a9c5a712c8d47b7114a38bb982022004c8fd7f3f271a0f17f84fc454c577eda388a8a9b837e76a7c6a24b826446a2001210271977291b74f1f5f5c42157e8aae804664eaaeccfd097918450d37f28fb94d77ffffffff03ac2c0100000000001976a914d243e6abb9a60fbff430b421d2df4b7d59ec186088ac22020000000000001976a9143851f34d13937b673a7d24a1950bb5b21ce94af388ac0000000000000000166a146f6d6e69000000000000001f0000012eae09c80000000000", "vin": [{"sequence": 4294967295, "scriptSig": {"hex": "47304402207651d6b1a84752b3bb981a31562b44ae0aca7f6aad46e451adf5b013fbf20aaf0220293273f6e5689bfa597dfebbe06c432a7f8a2918df955eb8dc97f58916a42e460121031732355642b7be7c92cba3a431f4cb2b70b575d541f722c29628091f66f5b76e", "asm": "304402207651d6b1a84752b3bb981a31562b44ae0aca7f6aad46e451adf5b013fbf20aaf0220293273f6e5689bfa597dfebbe06c432a7f8a2918df955eb8dc97f58916a42e46[ALL] 031732355642b7be7c92cba3a431f4cb2b70b575d541f722c29628091f66f5b76e"}, "vout": 0, "txid": "bd75ee6fccf7e1269d97730408f0eaf257a80e186c8e599c93666eafc1f4d38a"}, {"sequence": 4294967295, "scriptSig": {"hex": "473044022053add03e1ab9f509146446a92607ece589b9e7a9c5a712c8d47b7114a38bb982022004c8fd7f3f271a0f17f84fc454c577eda388a8a9b837e76a7c6a24b826446a2001210271977291b74f1f5f5c42157e8aae804664eaaeccfd097918450d37f28fb94d77", "asm": "3044022053add03e1ab9f509146446a92607ece589b9e7a9c5a712c8d47b7114a38bb982022004c8fd7f3f271a0f17f84fc454c577eda388a8a9b837e76a7c6a24b826446a20[ALL] 0271977291b74f1f5f5c42157e8aae804664eaaeccfd097918450d37f28fb94d77"}, "vout": 0, "txid": "ae968d042230d59c528458b95c8a9f8143bb035bb4271f95dec446e65837ac32"}], "txid": "0139e9295bdec96cd0a221adb72c2c2b9bab67f925c28e4d9387cf0c10d3b820", "blocktime": 1537870268, "version": 1, "confirmations": 11516, "time": 1537870268, "locktime": 0, "vsize": 403, "size": 403}