{"hash": "8e296b1f32ab9705e39bd99af598cd476b183d9a8d9d8b67c926ef0d599039cb", "blockhash": "0000000000000000001f76057863aec43deb6fa401d9628bb513d65a8098bfab", "vout": [{"scriptPubKey": {"reqSigs": 1, "hex": "a914dfad11ea2b089e28ed03db9f3c94a8b9787166f987", "addresses": ["3N5hwSBKUoovPwyWqykRDW5h8AS4CqXenF"], "asm": "OP_HASH160 dfad11ea2b089e28ed03db9f3c94a8b9787166f9 OP_EQUAL", "type": "scripthash"}, "value": 0.00018768, "n": 0}, {"scriptPubKey": {"reqSigs": 1, "hex": "a91408c364340a91e77e4376b26fdad3b5aedc5661f787", "addresses": ["32VMQ7Th4qGhbDYY68FZrfSF9hTbsPivgt"], "asm": "OP_HASH160 08c364340a91e77e4376b26fdad3b5aedc5661f7 OP_EQUAL", "type": "scripthash"}, "value": 0.02843615, "n": 1}], "hex": "01000000000101a25bb7d3e7515a5636f3c09512921ad6e524b20f6cd8e10bce23a67e46cf4c4f010000002322002027561ef61439ff4994ea3793249bbb358319edb59fff63c1eeada48f299e81b5ffffffff02504900000000000017a914dfad11ea2b089e28ed03db9f3c94a8b9787166f987df632b000000000017a91408c364340a91e77e4376b26fdad3b5aedc5661f787040047304402203058b4b88d3d0c329178e9006944f40dcc045aa34649665c8dcc9fd143ee39c202203f20fd9c8dc7e92472693588d768a04b0270e0571452c2766b4aafe1857d3dca01483045022100addbb2cb4299d5ef37dcc710605428344c2962ab21fca4a90375fa5dc0601eb3022042c32723b557f91a627c57b019fe520c0a5ef3f30bad15b7fc2f469742fb4f9c0147522102f484437eae67e7d1f9cf7235bd52510c99f379408a1f6fe737011d4bc259358a2103871fc2ca08e6950b38867e8e6a0e94ee625223d3aa0df5c65f414c6d784467e252ae00000000", "vin": [{"txinwitness": ["", "304402203058b4b88d3d0c329178e9006944f40dcc045aa34649665c8dcc9fd143ee39c202203f20fd9c8dc7e92472693588d768a04b0270e0571452c2766b4aafe1857d3dca01", "3045022100addbb2cb4299d5ef37dcc710605428344c2962ab21fca4a90375fa5dc0601eb3022042c32723b557f91a627c57b019fe520c0a5ef3f30bad15b7fc2f469742fb4f9c01", "522102f484437eae67e7d1f9cf7235bd52510c99f379408a1f6fe737011d4bc259358a2103871fc2ca08e6950b38867e8e6a0e94ee625223d3aa0df5c65f414c6d784467e252ae"], "sequence": 4294967295, "scriptSig": {"hex": "22002027561ef61439ff4994ea3793249bbb358319edb59fff63c1eeada48f299e81b5", "asm": "002027561ef61439ff4994ea3793249bbb358319edb59fff63c1eeada48f299e81b5"}, "vout": 1, "txid": "4f4ccf467ea623ce0be1d86c0fb224e5d61a921295c0f336565a51e7d3b75ba2"}], "txid": "013a12ab2b323cc19f02ad59086c1224c0d6332e0920f070803bfd0b1bfb0f33", "blocktime": 1537873891, "version": 1, "confirmations": 11478, "time": 1537873891, "locktime": 0, "vsize": 206, "size": 371}