{"hash": "013ee495863aba1c29b3344af0b18b322525decdcac12ccdfe527f8cfdd3997c", "blockhash": "00000000000000000018f53835495a110e01622372bf6ae95dc86f2b0ab887b0", "vout": [{"scriptPubKey": {"reqSigs": 1, "hex": "76a91411ccb9e6df472aefcb0d642f7eb5d8d231cf600f88ac", "addresses": ["12d7jtMXuDUFhxEqiBmdXgeypMaXZHRV4R"], "asm": "OP_DUP OP_HASH160 11ccb9e6df472aefcb0d642f7eb5d8d231cf600f OP_EQUALVERIFY OP_CHECKSIG", "type": "pubkeyhash"}, "value": 0.17625143, "n": 0}, {"scriptPubKey": {"reqSigs": 1, "hex": "76a914480f54bcd7b59d6794492a613c55a047853cbd2688ac", "addresses": ["17a222fseGFnfo6hnkbpKpSxYxvqUMuDXP"], "asm": "OP_DUP OP_HASH160 480f54bcd7b59d6794492a613c55a047853cbd26 OP_EQUALVERIFY OP_CHECKSIG", "type": "pubkeyhash"}, "value": 1.13901801, "n": 1}], "hex": "01000000019d9f9fdc4b785f035f5ea33668b283e1f9c3f4215eb830b29ae1f8b5e544ee32010000006b4830450221009fbd7134d1f836f6d4ca89787f9537fca617a9082e939e322ea6d03390805bd4022017040c29840f4669f51ef46475a404fe68c6e98870d70d0318a97eb1d2e2b778012102427fb135ee7942037d4f5a01ea5a749ff3a5dd0334fe345c6b3ee7e50a5d644fffffffff0237f00c01000000001976a91411ccb9e6df472aefcb0d642f7eb5d8d231cf600f88ace900ca06000000001976a914480f54bcd7b59d6794492a613c55a047853cbd2688ac00000000", "vin": [{"sequence": 4294967295, "scriptSig": {"hex": "4830450221009fbd7134d1f836f6d4ca89787f9537fca617a9082e939e322ea6d03390805bd4022017040c29840f4669f51ef46475a404fe68c6e98870d70d0318a97eb1d2e2b778012102427fb135ee7942037d4f5a01ea5a749ff3a5dd0334fe345c6b3ee7e50a5d644f", "asm": "30450221009fbd7134d1f836f6d4ca89787f9537fca617a9082e939e322ea6d03390805bd4022017040c29840f4669f51ef46475a404fe68c6e98870d70d0318a97eb1d2e2b778[ALL] 02427fb135ee7942037d4f5a01ea5a749ff3a5dd0334fe345c6b3ee7e50a5d644f"}, "vout": 1, "txid": "32ee44e5b5f8e19ab230b85e21f4c3f9e183b26836a35e5f035f784bdc9f9f9d"}], "txid": "013ee495863aba1c29b3344af0b18b322525decdcac12ccdfe527f8cfdd3997c", "blocktime": 1537870928, "version": 1, "confirmations": 11514, "time": 1537870928, "locktime": 0, "vsize": 226, "size": 226}