{"hash": "01513b0b2d38f6c4ab9f5fd606255c6fabd726e27e582d16fc14987d71cb8e21", "blockhash": "0000000000000000000e13cef7c366c0283d82e591d1acd082e914b08063cdf1", "vout": [{"scriptPubKey": {"reqSigs": 1, "hex": "76a914c9f524028a4543be8ccd4750069cc0acacf86a0d88ac", "addresses": ["1KQrVELAbKeizu9wxQsDa4QNvdBoAEVgd8"], "asm": "OP_DUP OP_HASH160 c9f524028a4543be8ccd4750069cc0acacf86a0d OP_EQUALVERIFY OP_CHECKSIG", "type": "pubkeyhash"}, "value": 0.00218954, "n": 0}, {"scriptPubKey": {"reqSigs": 1, "hex": "76a9140e7bcf5914a53ee61da943217a2a42d33328a27788ac", "addresses": ["12Kan9pEfyWK9dq4frzPjYaCM9BcTv365E"], "asm": "OP_DUP OP_HASH160 0e7bcf5914a53ee61da943217a2a42d33328a277 OP_EQUALVERIFY OP_CHECKSIG", "type": "pubkeyhash"}, "value": 0.00366094, "n": 1}], "hex": "0100000001bdea77816fb1fd0896580c56d221ddf53e4de6c343c5a13452937c637a58ffd9000000006b4830450221008755f36a385058470bc60178a35b53597f68d35e6cda7c916bc56e7d5331eabf02207b59a5801160f4c52cd76a36b7eb2a6a70ae85a8229afac071caae686ec408d20121026fded376bdd554eb2d180d5a3d17e81fa7304e135066f2b42b72966fca854196ffffffff024a570300000000001976a914c9f524028a4543be8ccd4750069cc0acacf86a0d88ac0e960500000000001976a9140e7bcf5914a53ee61da943217a2a42d33328a27788ac00000000", "vin": [{"sequence": 4294967295, "scriptSig": {"hex": "4830450221008755f36a385058470bc60178a35b53597f68d35e6cda7c916bc56e7d5331eabf02207b59a5801160f4c52cd76a36b7eb2a6a70ae85a8229afac071caae686ec408d20121026fded376bdd554eb2d180d5a3d17e81fa7304e135066f2b42b72966fca854196", "asm": "30450221008755f36a385058470bc60178a35b53597f68d35e6cda7c916bc56e7d5331eabf02207b59a5801160f4c52cd76a36b7eb2a6a70ae85a8229afac071caae686ec408d2[ALL] 026fded376bdd554eb2d180d5a3d17e81fa7304e135066f2b42b72966fca854196"}, "vout": 0, "txid": "d9ff587a637c935234a1c543c3e64d3ef5dd21d2560c589608fdb16f8177eabd"}], "txid": "01513b0b2d38f6c4ab9f5fd606255c6fabd726e27e582d16fc14987d71cb8e21", "blocktime": 1537871767, "version": 1, "confirmations": 11495, "time": 1537871767, "locktime": 0, "vsize": 226, "size": 226}