{"hash": "0155746ae5de1bbd1a6314a9c29f5452a3a26126e06d7f248d367f3fadbc9956", "blockhash": "00000000000000000004ffacab907a6b429b9a5745fa0b75af4234bf69dd7176", "vout": [{"scriptPubKey": {"reqSigs": 1, "hex": "76a914d5dee418c729ba7fe0521365c6620191b0b8268f88ac", "addresses": ["1LVqwbhbVVoxAMm2DaFCEPymwkixoL6p7d"], "asm": "OP_DUP OP_HASH160 d5dee418c729ba7fe0521365c6620191b0b8268f OP_EQUALVERIFY OP_CHECKSIG", "type": "pubkeyhash"}, "value": 0.0010903, "n": 0}, {"scriptPubKey": {"reqSigs": 1, "hex": "76a9147fb3ce8684a7d3993967af81f694e520f2b548d588ac", "addresses": ["1CeEDZ7w3gJZnAWrr1fbMZ4FUjJeMGFcZz"], "asm": "OP_DUP OP_HASH160 7fb3ce8684a7d3993967af81f694e520f2b548d5 OP_EQUALVERIFY OP_CHECKSIG", "type": "pubkeyhash"}, "value": 3.98606504, "n": 1}], "hex": "01000000012380f60add649f9b5bd2bf83e23a77724b3348b76bb72bb19bab49aeca59489c010000006b483045022100f0245a0774aa7d5d3f7681fb50136a09012765cf995e9a294d1387e282d2c989022007490e9dc139ad335b43643183d4fdca5350492a89f753ec1038fecaaecfa2ea012102fe9315703cb7f94a9c1e2a11bf35e9fa12c1e86eae793a32a5ac1ebef4ab4ca5ffffffff02e6a90100000000001976a914d5dee418c729ba7fe0521365c6620191b0b8268f88aca840c217000000001976a9147fb3ce8684a7d3993967af81f694e520f2b548d588ac00000000", "vin": [{"sequence": 4294967295, "scriptSig": {"hex": "483045022100f0245a0774aa7d5d3f7681fb50136a09012765cf995e9a294d1387e282d2c989022007490e9dc139ad335b43643183d4fdca5350492a89f753ec1038fecaaecfa2ea012102fe9315703cb7f94a9c1e2a11bf35e9fa12c1e86eae793a32a5ac1ebef4ab4ca5", "asm": "3045022100f0245a0774aa7d5d3f7681fb50136a09012765cf995e9a294d1387e282d2c989022007490e9dc139ad335b43643183d4fdca5350492a89f753ec1038fecaaecfa2ea[ALL] 02fe9315703cb7f94a9c1e2a11bf35e9fa12c1e86eae793a32a5ac1ebef4ab4ca5"}, "vout": 1, "txid": "9c4859caae49ab9bb12bb76bb748334b72773ae283bfd25b9b9f64dd0af68023"}], "txid": "0155746ae5de1bbd1a6314a9c29f5452a3a26126e06d7f248d367f3fadbc9956", "blocktime": 1537875543, "version": 1, "confirmations": 11464, "time": 1537875543, "locktime": 0, "vsize": 226, "size": 226}