{"hash": "0156f7968d81fb240c78fc6a6e0414901e38c2e5d5d2c47ea132cfcf37633cbd", "blockhash": "00000000000000000004ffacab907a6b429b9a5745fa0b75af4234bf69dd7176", "vout": [{"scriptPubKey": {"reqSigs": 1, "hex": "76a914374918f55f1ef3b10fbad337f5d3a245c1ffff5e88ac", "addresses": ["163KjTJutL7fKCowp2wkqf6J45u6tuMDkz"], "asm": "OP_DUP OP_HASH160 374918f55f1ef3b10fbad337f5d3a245c1ffff5e OP_EQUALVERIFY OP_CHECKSIG", "type": "pubkeyhash"}, "value": 0.06255326, "n": 0}, {"scriptPubKey": {"reqSigs": 1, "hex": "76a914f5f73504a45917da5c155bd6c22fbe75871d275288ac", "addresses": ["1PRYhFSipqv7FuncXPUZayr5LuRmxQv6oj"], "asm": "OP_DUP OP_HASH160 f5f73504a45917da5c155bd6c22fbe75871d2752 OP_EQUALVERIFY OP_CHECKSIG", "type": "pubkeyhash"}, "value": 0.18798761, "n": 1}], "hex": "01000000016e51de291c1092762df7a5c6059d9faf262f0b322e60095b0ecfd747981e48b6010000006a473044022029d86f6712e38538368ab258d12efab41592bde832239aa34195e04eb9f1aeb20220424194d2003d851fb7260f6a2ec4c12637fe5bfafc456ba2aaacd8004f02bde70121032643b77caa63339ce8333ab5f63c04195340b92b459fe09d7158c40397180235ffffffff02de725f00000000001976a914374918f55f1ef3b10fbad337f5d3a245c1ffff5e88aca9d81e01000000001976a914f5f73504a45917da5c155bd6c22fbe75871d275288ac00000000", "vin": [{"sequence": 4294967295, "scriptSig": {"hex": "473044022029d86f6712e38538368ab258d12efab41592bde832239aa34195e04eb9f1aeb20220424194d2003d851fb7260f6a2ec4c12637fe5bfafc456ba2aaacd8004f02bde70121032643b77caa63339ce8333ab5f63c04195340b92b459fe09d7158c40397180235", "asm": "3044022029d86f6712e38538368ab258d12efab41592bde832239aa34195e04eb9f1aeb20220424194d2003d851fb7260f6a2ec4c12637fe5bfafc456ba2aaacd8004f02bde7[ALL] 032643b77caa63339ce8333ab5f63c04195340b92b459fe09d7158c40397180235"}, "vout": 1, "txid": "b6481e9847d7cf0e5b09602e320b2f26af9f9d05c6a5f72d7692101c29de516e"}], "txid": "0156f7968d81fb240c78fc6a6e0414901e38c2e5d5d2c47ea132cfcf37633cbd", "blocktime": 1537875543, "version": 1, "confirmations": 11464, "time": 1537875543, "locktime": 0, "vsize": 225, "size": 225}