{"hash": "015630bd0400c35c807fb5c4c84b0d98db0cd11f9cc65649d47e06859230998e", "blockhash": "000000000000000000022b45ed06c6f4ccd3cf7fb5ba4856ebd2e58215665228", "vout": [{"scriptPubKey": {"type": "nulldata", "hex": "6a146f6d6e69000000000000001f0000001435aee400", "asm": "OP_RETURN 6f6d6e69000000000000001f0000001435aee400"}, "value": 0.0, "n": 0}, {"scriptPubKey": {"reqSigs": 1, "hex": "76a914c40e6b4569d373ed039df202e615d0a4357099d688ac", "addresses": ["1JseiT86bAcQhasGjArkWs5k4obVwg5w1P"], "asm": "OP_DUP OP_HASH160 c40e6b4569d373ed039df202e615d0a4357099d6 OP_EQUALVERIFY OP_CHECKSIG", "type": "pubkeyhash"}, "value": 2.73e-05, "n": 1}], "hex": "0100000001190062606a02b34803584ce4e59bea42297172803ea114c4be21c0cbc94e7a1b010000006b48304502210091c0936cd94f4dab8ebd4b44702c7e610f54528125d9fbd5ef43dd1e8ca14b280220082097ced08825a1c7f0b53554a094cd11dc132e610a1ddfbb21437825fa5c9d012102f5888b0fb82765787a7ca1a4420eefded195312a7d66fde5092e4699b2824f10feffffff020000000000000000166a146f6d6e69000000000000001f0000001435aee400aa0a0000000000001976a914c40e6b4569d373ed039df202e615d0a4357099d688accb480800", "vin": [{"sequence": 4294967294, "scriptSig": {"hex": "48304502210091c0936cd94f4dab8ebd4b44702c7e610f54528125d9fbd5ef43dd1e8ca14b280220082097ced08825a1c7f0b53554a094cd11dc132e610a1ddfbb21437825fa5c9d012102f5888b0fb82765787a7ca1a4420eefded195312a7d66fde5092e4699b2824f10", "asm": "304502210091c0936cd94f4dab8ebd4b44702c7e610f54528125d9fbd5ef43dd1e8ca14b280220082097ced08825a1c7f0b53554a094cd11dc132e610a1ddfbb21437825fa5c9d[ALL] 02f5888b0fb82765787a7ca1a4420eefded195312a7d66fde5092e4699b2824f10"}, "vout": 1, "txid": "1b7a4ec9cbc021bec414a13e8072712942ea9be5e44c580348b3026a60620019"}], "txid": "015630bd0400c35c807fb5c4c84b0d98db0cd11f9cc65649d47e06859230998e", "blocktime": 1537869901, "version": 1, "confirmations": 11522, "time": 1537869901, "locktime": 542923, "vsize": 223, "size": 223}