{"hash": "015a6d4f6c1fde3761bee1476d50f930e2ee2e90d1393399e92d88de8e918dc0", "blockhash": "0000000000000000000e13cef7c366c0283d82e591d1acd082e914b08063cdf1", "vout": [{"scriptPubKey": {"reqSigs": 1, "hex": "76a9147333033017eccbc0cfd2b2636132d3316664f9ac88ac", "addresses": ["1BW7pU8pfbzAR42gAADuo2wjeMkVAjbjcP"], "asm": "OP_DUP OP_HASH160 7333033017eccbc0cfd2b2636132d3316664f9ac OP_EQUALVERIFY OP_CHECKSIG", "type": "pubkeyhash"}, "value": 0.01671561, "n": 0}, {"scriptPubKey": {"reqSigs": 1, "hex": "76a914713e0c1fd039e26894dd85596cccb610daa0ad0c88ac", "addresses": ["1BKmgoaMjdyH9qhsiueBJiFxyarMW4ogwy"], "asm": "OP_DUP OP_HASH160 713e0c1fd039e26894dd85596cccb610daa0ad0c OP_EQUALVERIFY OP_CHECKSIG", "type": "pubkeyhash"}, "value": 0.35942161, "n": 1}], "hex": "010000000654d6c122d6e15e09231cc880537e58f9240d466567e4c8a98555323208e9b940170000006a47304402202503519b99fef1d9310455df3a3da9f02d201f67ce43cff105a3c8e6310ae91902201fece2102b34531bf73fdc9f67249d01a2e56c865249f0e1f95fbc2c4c8969bb0121034bb3bead816c4ae26674b0ddeef0abaabe1108351f34aecef0f1a6263d33b79dffffffff07803117643aa6573005d1a6d989b7470c4ab4d6d308e2eb0b1e8a77f5e6d99c0f0000006b483045022100e7c9b1d7cdd1d5ef78dbc4672c8277be222d2224743a1c59f49da908e06eadce02204dbfea39ef43b0564cbdd39d0ac1848b8f36a0329ad2514cc26931e46b5d9238012103b0016fd711aac47da4708a97a3d68ff20963b6605737105d2ab7f16815c5faf3fffffffff0456c274be31aaf490624965fee49afde994650fabf17f306de329c45686fb2010000006b48304502210090df5ec5027b6eb631c9fabfd4afdcdbde88c7f2e177cd6083b06ec26ebf8100022039b9fd7410ab68ac650451d576541e95609ab1052ff8136a49e44ba22fe3336d012103a385ff07899f69b4dca29d2d20de0ad4215448248ca36751e988889a49124845ffffffff76f5fd751b7cbdb40f2272c945080a8b9084bfe2a80ec267fc6dcc7d727ed2b4000000006a47304402203fbc2f8f1fadf6ee97180730e3ad560b0115f82b8444e3fa4b5a8454316ff21c02202cc8fb3992b689c5a1ae20efc739e0598e6c61bb1cebfefe7d6b18f8fc756c710121029ea3359b3af126e22f3301cdd608cb7d65d4b1cc166e665c2969fdfe548a1872ffffffff2a52f282c1a8f75a99a4a55742f93f4257c0b7b7f5aa91a8f9a1fdd8fe75dbdb010000006b48304502210098fb6e369d0a1d0eb3113f4e2529583bbb5b32a12e0b33e76eae0b6f83d84a580220791d7cbb9b2f83aeb41c9531f32a8155856079a52cff9bc5ce07d8cb3afb8e260121039b265bc29d858ccafe72d462c76b0d275d8ed3d04f763399e7af60c3ab0ee1dfffffffff002ac92d41c3204aeed4e8c59557a168bd48e05b28448c5edcd58690087c21f3010000006a47304402203288972d15a88568a684ab0d74bbc88565aebb8f681590f44301e4a326251ce902204b951b33d85dd007463316c9f8536d7cd785c9a79d119a410d014bd8e26d27380121029183444320c08e2696a1e3901afdb42ddda8daa1804f4cb6e9820fdfbff28704ffffffff0289811900000000001976a9147333033017eccbc0cfd2b2636132d3316664f9ac88ac116f2402000000001976a914713e0c1fd039e26894dd85596cccb610daa0ad0c88ac00000000", "vin": [{"sequence": 4294967295, "scriptSig": {"hex": "47304402202503519b99fef1d9310455df3a3da9f02d201f67ce43cff105a3c8e6310ae91902201fece2102b34531bf73fdc9f67249d01a2e56c865249f0e1f95fbc2c4c8969bb0121034bb3bead816c4ae26674b0ddeef0abaabe1108351f34aecef0f1a6263d33b79d", "asm": "304402202503519b99fef1d9310455df3a3da9f02d201f67ce43cff105a3c8e6310ae91902201fece2102b34531bf73fdc9f67249d01a2e56c865249f0e1f95fbc2c4c8969bb[ALL] 034bb3bead816c4ae26674b0ddeef0abaabe1108351f34aecef0f1a6263d33b79d"}, "vout": 23, "txid": "40b9e90832325585a9c8e46765460d24f9587e5380c81c23095ee1d622c1d654"}, {"sequence": 4294967295, "scriptSig": {"hex": "483045022100e7c9b1d7cdd1d5ef78dbc4672c8277be222d2224743a1c59f49da908e06eadce02204dbfea39ef43b0564cbdd39d0ac1848b8f36a0329ad2514cc26931e46b5d9238012103b0016fd711aac47da4708a97a3d68ff20963b6605737105d2ab7f16815c5faf3", "asm": "3045022100e7c9b1d7cdd1d5ef78dbc4672c8277be222d2224743a1c59f49da908e06eadce02204dbfea39ef43b0564cbdd39d0ac1848b8f36a0329ad2514cc26931e46b5d9238[ALL] 03b0016fd711aac47da4708a97a3d68ff20963b6605737105d2ab7f16815c5faf3"}, "vout": 15, "txid": "9cd9e6f5778a1e0bebe208d3d6b44a0c47b789d9a6d1053057a63a6417318007"}, {"sequence": 4294967295, "scriptSig": {"hex": "48304502210090df5ec5027b6eb631c9fabfd4afdcdbde88c7f2e177cd6083b06ec26ebf8100022039b9fd7410ab68ac650451d576541e95609ab1052ff8136a49e44ba22fe3336d012103a385ff07899f69b4dca29d2d20de0ad4215448248ca36751e988889a49124845", "asm": "304502210090df5ec5027b6eb631c9fabfd4afdcdbde88c7f2e177cd6083b06ec26ebf8100022039b9fd7410ab68ac650451d576541e95609ab1052ff8136a49e44ba22fe3336d[ALL] 03a385ff07899f69b4dca29d2d20de0ad4215448248ca36751e988889a49124845"}, "vout": 1, "txid": "b26f68459c32de06f317bffa504699deaf49ee5f96240649af1ae34b276c45f0"}, {"sequence": 4294967295, "scriptSig": {"hex": "47304402203fbc2f8f1fadf6ee97180730e3ad560b0115f82b8444e3fa4b5a8454316ff21c02202cc8fb3992b689c5a1ae20efc739e0598e6c61bb1cebfefe7d6b18f8fc756c710121029ea3359b3af126e22f3301cdd608cb7d65d4b1cc166e665c2969fdfe548a1872", "asm": "304402203fbc2f8f1fadf6ee97180730e3ad560b0115f82b8444e3fa4b5a8454316ff21c02202cc8fb3992b689c5a1ae20efc739e0598e6c61bb1cebfefe7d6b18f8fc756c71[ALL] 029ea3359b3af126e22f3301cdd608cb7d65d4b1cc166e665c2969fdfe548a1872"}, "vout": 0, "txid": "b4d27e727dcc6dfc67c20ea8e2bf84908b0a0845c972220fb4bd7c1b75fdf576"}, {"sequence": 4294967295, "scriptSig": {"hex": "48304502210098fb6e369d0a1d0eb3113f4e2529583bbb5b32a12e0b33e76eae0b6f83d84a580220791d7cbb9b2f83aeb41c9531f32a8155856079a52cff9bc5ce07d8cb3afb8e260121039b265bc29d858ccafe72d462c76b0d275d8ed3d04f763399e7af60c3ab0ee1df", "asm": "304502210098fb6e369d0a1d0eb3113f4e2529583bbb5b32a12e0b33e76eae0b6f83d84a580220791d7cbb9b2f83aeb41c9531f32a8155856079a52cff9bc5ce07d8cb3afb8e26[ALL] 039b265bc29d858ccafe72d462c76b0d275d8ed3d04f763399e7af60c3ab0ee1df"}, "vout": 1, "txid": "dbdb75fed8fda1f9a891aaf5b7b7c057423ff94257a5a4995af7a8c182f2522a"}, {"sequence": 4294967295, "scriptSig": {"hex": "47304402203288972d15a88568a684ab0d74bbc88565aebb8f681590f44301e4a326251ce902204b951b33d85dd007463316c9f8536d7cd785c9a79d119a410d014bd8e26d27380121029183444320c08e2696a1e3901afdb42ddda8daa1804f4cb6e9820fdfbff28704", "asm": "304402203288972d15a88568a684ab0d74bbc88565aebb8f681590f44301e4a326251ce902204b951b33d85dd007463316c9f8536d7cd785c9a79d119a410d014bd8e26d2738[ALL] 029183444320c08e2696a1e3901afdb42ddda8daa1804f4cb6e9820fdfbff28704"}, "vout": 1, "txid": "f3217c089086d5dc5e8c44285be048bd68a15795c5e8d4ee4a20c3412dc92a00"}], "txid": "015a6d4f6c1fde3761bee1476d50f930e2ee2e90d1393399e92d88de8e918dc0", "blocktime": 1537871767, "version": 1, "confirmations": 11495, "time": 1537871767, "locktime": 0, "vsize": 963, "size": 963}