{"hash": "670c1e54c167af3b68a15ea3801316e275bee415b9d5c626caeb4427e07bf7cd", "blockhash": "0000000000000000000e13cef7c366c0283d82e591d1acd082e914b08063cdf1", "vout": [{"scriptPubKey": {"reqSigs": 1, "hex": "a914fa2f710b4b0f2a23b5f0b45e6b697be3403d249287", "addresses": ["3QVsgoMYHqdvgE8b3VSWBnk99qE7k1eJ7E"], "asm": "OP_HASH160 fa2f710b4b0f2a23b5f0b45e6b697be3403d2492 OP_EQUAL", "type": "scripthash"}, "value": 0.00390553, "n": 0}, {"scriptPubKey": {"reqSigs": 1, "hex": "a91444363382c9ec8d92bc94715ef5694c46fc98dfe687", "addresses": ["37ugoZ81BzZqtvZ9F8AJt1oTeu3RemTHBH"], "asm": "OP_HASH160 44363382c9ec8d92bc94715ef5694c46fc98dfe6 OP_EQUAL", "type": "scripthash"}, "value": 1.70945719, "n": 1}], "hex": "010000000001015daf002bf5f2a752d6eef94a3e1f0c6acc2267c1004e77a3e5ed528fb96f90b70000000023220020436e7ea9630ae2caaf69803b5bc7d9bb9c4a6550cf71c57e541518a7e0bfa849ffffffff0299f505000000000017a914fa2f710b4b0f2a23b5f0b45e6b697be3403d249287b76c300a0000000017a91444363382c9ec8d92bc94715ef5694c46fc98dfe68704004730440220743198f57a3c618ab7be64eab4d67a057a4fb1ea2b3f57570bcb5622d1490ef302201b5ba9fac155f812549d248eca7d6c2e2328abc2d17fb528800526307a65b25e01483045022100c05e45c9c4d7be496605c131ba4ca8f12bd6deb933e4b6ac77f49dc745a3c78102205d681eba6aeaf82d1df36e07e8c9fce89cdbe1005cda351922063917ee17ea84016952210264a6a37987e0e3471f7db96c639a18d88a8fa99a864464b1d853adcfd5fac9232103a8b052753f4557f7bffe5497a9764775f888bc40bf31995fe49010339098a47e2103ff17ee2b2c8b636098e96f71d782b56f17d7c607add980b19025952102fbace753ae00000000", "vin": [{"txinwitness": ["", "30440220743198f57a3c618ab7be64eab4d67a057a4fb1ea2b3f57570bcb5622d1490ef302201b5ba9fac155f812549d248eca7d6c2e2328abc2d17fb528800526307a65b25e01", "3045022100c05e45c9c4d7be496605c131ba4ca8f12bd6deb933e4b6ac77f49dc745a3c78102205d681eba6aeaf82d1df36e07e8c9fce89cdbe1005cda351922063917ee17ea8401", "52210264a6a37987e0e3471f7db96c639a18d88a8fa99a864464b1d853adcfd5fac9232103a8b052753f4557f7bffe5497a9764775f888bc40bf31995fe49010339098a47e2103ff17ee2b2c8b636098e96f71d782b56f17d7c607add980b19025952102fbace753ae"], "sequence": 4294967295, "scriptSig": {"hex": "220020436e7ea9630ae2caaf69803b5bc7d9bb9c4a6550cf71c57e541518a7e0bfa849", "asm": "0020436e7ea9630ae2caaf69803b5bc7d9bb9c4a6550cf71c57e541518a7e0bfa849"}, "vout": 0, "txid": "b7906fb98f52ede5a3774e00c16722cc6a0c1f3e4af9eed652a7f2f52b00af5d"}], "txid": "015c9a1a308a5ee282d85b4c8c01352a75a8560408244b9e3d1a284a400f6d97", "blocktime": 1537871767, "version": 1, "confirmations": 11493, "time": 1537871767, "locktime": 0, "vsize": 214, "size": 405}