{"hash": "016161b6732da67e0c121f62bc6ea4d8c3cf731ec4ae34ad143acc8a7ba61cae", "blockhash": "000000000000000000022b45ed06c6f4ccd3cf7fb5ba4856ebd2e58215665228", "vout": [{"scriptPubKey": {"reqSigs": 1, "hex": "76a914c1d065c41de1a88290f56e83231b43efb674fe9988ac", "addresses": ["1Jfo4jkVnC5ZqpRm6mZ2CNr8bS6tyTeNqt"], "asm": "OP_DUP OP_HASH160 c1d065c41de1a88290f56e83231b43efb674fe99 OP_EQUALVERIFY OP_CHECKSIG", "type": "pubkeyhash"}, "value": 0.012, "n": 0}, {"scriptPubKey": {"reqSigs": 1, "hex": "76a9141d2f80c9128ddbba003a25227dbc3677ea4a853688ac", "addresses": ["13fKW8nB5Hf4PbV8syeDn9RCkomKDaq2DF"], "asm": "OP_DUP OP_HASH160 1d2f80c9128ddbba003a25227dbc3677ea4a8536 OP_EQUALVERIFY OP_CHECKSIG", "type": "pubkeyhash"}, "value": 0.01482488, "n": 1}], "hex": "01000000027b05e5b385e20e6fd9dff1fcd58dc07cacfe9deb42dcb4c3db385502915137d0000000006b483045022100cedd7a8a535b8368a3d3a4fd9c2524cfa6c076f92a8ba21fbcf4fc5b958cb2f702204994a0db22ee0166d44b2e8350b4b5e0004df5f3e2977c30b84cc2f11578c2080121038b337dfefcd18eaf7ab991831cab6859f74f2e27eb55e2abc3ec3a6c357b436bffffffff254cf267ee7acd564dbf36e701898d3cf5223cb662298bbf5fd9d1cd9ea535fc010000006b483045022100c5356c6edf684ff86eb2d0138fa3d049aa993794be4947e1344ec154c6b18405022020651de80f997aa58391ed7e9900de9cc3969f88dd225faadad0d1f3747188a1012103185a9ac30b3a23680ec5019b0f8e7232c95475cb5edcbad427727b5a78657e99ffffffff02804f1200000000001976a914c1d065c41de1a88290f56e83231b43efb674fe9988acf89e1600000000001976a9141d2f80c9128ddbba003a25227dbc3677ea4a853688ac00000000", "vin": [{"sequence": 4294967295, "scriptSig": {"hex": "483045022100cedd7a8a535b8368a3d3a4fd9c2524cfa6c076f92a8ba21fbcf4fc5b958cb2f702204994a0db22ee0166d44b2e8350b4b5e0004df5f3e2977c30b84cc2f11578c2080121038b337dfefcd18eaf7ab991831cab6859f74f2e27eb55e2abc3ec3a6c357b436b", "asm": "3045022100cedd7a8a535b8368a3d3a4fd9c2524cfa6c076f92a8ba21fbcf4fc5b958cb2f702204994a0db22ee0166d44b2e8350b4b5e0004df5f3e2977c30b84cc2f11578c208[ALL] 038b337dfefcd18eaf7ab991831cab6859f74f2e27eb55e2abc3ec3a6c357b436b"}, "vout": 0, "txid": "d0375191025538dbc3b4dc42eb9dfeac7cc08dd5fcf1dfd96f0ee285b3e5057b"}, {"sequence": 4294967295, "scriptSig": {"hex": "483045022100c5356c6edf684ff86eb2d0138fa3d049aa993794be4947e1344ec154c6b18405022020651de80f997aa58391ed7e9900de9cc3969f88dd225faadad0d1f3747188a1012103185a9ac30b3a23680ec5019b0f8e7232c95475cb5edcbad427727b5a78657e99", "asm": "3045022100c5356c6edf684ff86eb2d0138fa3d049aa993794be4947e1344ec154c6b18405022020651de80f997aa58391ed7e9900de9cc3969f88dd225faadad0d1f3747188a1[ALL] 03185a9ac30b3a23680ec5019b0f8e7232c95475cb5edcbad427727b5a78657e99"}, "vout": 1, "txid": "fc35a59ecdd1d95fbf8b2962b63c22f53c8d8901e736bf4d56cd7aee67f24c25"}], "txid": "016161b6732da67e0c121f62bc6ea4d8c3cf731ec4ae34ad143acc8a7ba61cae", "blocktime": 1537869901, "version": 1, "confirmations": 11522, "time": 1537869901, "locktime": 0, "vsize": 374, "size": 374}