{"hash": "22cd9ab9a36d6b8274a115f4ced9741f4b3a478efc97c7ad3cf67899fd47c11f", "blockhash": "0000000000000000000dcc0f55137456b1a82d3642486a52398922ac4d620174", "vout": [{"scriptPubKey": {"reqSigs": 1, "hex": "76a9149a8c2b816863c1b92af250e2cc782d608a43eea388ac", "addresses": ["1F6Ayin3tCHahJvJSEKzwoG7S1GcSCm8sX"], "asm": "OP_DUP OP_HASH160 9a8c2b816863c1b92af250e2cc782d608a43eea3 OP_EQUALVERIFY OP_CHECKSIG", "type": "pubkeyhash"}, "value": 0.00457665, "n": 0}, {"scriptPubKey": {"reqSigs": 1, "hex": "a914c3aac73b19a6df3a3a68ef69a8e9f79c8dff9a9c87", "addresses": ["3KXcGqASXznMituPhPnV7BkSc6CHZRLykC"], "asm": "OP_HASH160 c3aac73b19a6df3a3a68ef69a8e9f79c8dff9a9c OP_EQUAL", "type": "scripthash"}, "value": 0.00132523, "n": 1}], "hex": "010000000001012fe70dc31724c6308ead32dc5c075055d04db971a7b2712b68c4707c95a011f801000000232200200b5c15b2a266c1fd9e615145cf3cd379109fe761c2844ebebbc12b381bddc9faffffffff02c1fb0600000000001976a9149a8c2b816863c1b92af250e2cc782d608a43eea388acab0502000000000017a914c3aac73b19a6df3a3a68ef69a8e9f79c8dff9a9c8704004830450221009ac4255d3d20d93272914396960f6059e4801797e24f655b401e55e5078b266e02207b17ebbc512a6a3476586e49b4d39d727313907a1d19fdd44c7634cc470b6d0d01483045022100c6d1968c16858721fb032371951a1dcea7b99121b3b3bc47a281bd3388e02dff02202a0deac43bd1aebcf42812df970c108f113d537471ba242ddd1625e58a165e5d0147522102b590b6826675da568b914aa494372424b69f5fe06067fd7fa568cc41070c8e6b21024c55499905a522129124e75484b7ddea868aee9a7f01d75add901db6cf9b589f52ae00000000", "vin": [{"txinwitness": ["", "30450221009ac4255d3d20d93272914396960f6059e4801797e24f655b401e55e5078b266e02207b17ebbc512a6a3476586e49b4d39d727313907a1d19fdd44c7634cc470b6d0d01", "3045022100c6d1968c16858721fb032371951a1dcea7b99121b3b3bc47a281bd3388e02dff02202a0deac43bd1aebcf42812df970c108f113d537471ba242ddd1625e58a165e5d01", "522102b590b6826675da568b914aa494372424b69f5fe06067fd7fa568cc41070c8e6b21024c55499905a522129124e75484b7ddea868aee9a7f01d75add901db6cf9b589f52ae"], "sequence": 4294967295, "scriptSig": {"hex": "2200200b5c15b2a266c1fd9e615145cf3cd379109fe761c2844ebebbc12b381bddc9fa", "asm": "00200b5c15b2a266c1fd9e615145cf3cd379109fe761c2844ebebbc12b381bddc9fa"}, "vout": 1, "txid": "f811a0957c70c4682b71b2a771b94dd05550075cdc32ad8e30c62417c30de72f"}], "txid": "01621c2436ad8383b736368d37b9a2aed44e8ddf161e7d77eb8bd7a095463a7c", "blocktime": 1537870268, "version": 1, "confirmations": 11516, "time": 1537870268, "locktime": 0, "vsize": 208, "size": 374}