{"hash": "14444032f729f34f849b081e5425cd5df9936a13598b9e007665f89e0acf0bcd", "blockhash": "0000000000000000000dcc0f55137456b1a82d3642486a52398922ac4d620174", "vout": [{"scriptPubKey": {"reqSigs": 1, "hex": "a91435ee3724555d087f842a8af2da48e2bdf180dc4c87", "addresses": ["36cB7CwvExfW4cqLxtiUgc44puUy4TFPGy"], "asm": "OP_HASH160 35ee3724555d087f842a8af2da48e2bdf180dc4c OP_EQUAL", "type": "scripthash"}, "value": 0.46155887, "n": 0}, {"scriptPubKey": {"reqSigs": 1, "hex": "76a91420e435d32571d289482f4a28571beeddefa7744388ac", "addresses": ["13zv1Ty3yNhcFqgCvgpRBqP5eRwTJjTdFE"], "asm": "OP_DUP OP_HASH160 20e435d32571d289482f4a28571beeddefa77443 OP_EQUALVERIFY OP_CHECKSIG", "type": "pubkeyhash"}, "value": 0.15614363, "n": 1}], "hex": "02000000000101728c8dda596bee91e26d6db732763c29877166c399e59d7e09fe51d707baa3cd0100000017160014ceec2876ff395d89550c319755f104e15a88cec5feffffff026f48c0020000000017a91435ee3724555d087f842a8af2da48e2bdf180dc4c879b41ee00000000001976a91420e435d32571d289482f4a28571beeddefa7744388ac0247304402204c461cfa3a1fed425fcafad367773793d51121d9d7588d69f1a546d482e5fba2022071aa4e258cd2022c38f6153cc5b63d4f3ebc51cf852b7efe970d993d7d04877c012103228895f679434c56eb280183c292d34dd01204f7a56898b820e8fdc3497fb7c50b490800", "vin": [{"txinwitness": ["304402204c461cfa3a1fed425fcafad367773793d51121d9d7588d69f1a546d482e5fba2022071aa4e258cd2022c38f6153cc5b63d4f3ebc51cf852b7efe970d993d7d04877c01", "03228895f679434c56eb280183c292d34dd01204f7a56898b820e8fdc3497fb7c5"], "sequence": 4294967294, "scriptSig": {"hex": "160014ceec2876ff395d89550c319755f104e15a88cec5", "asm": "0014ceec2876ff395d89550c319755f104e15a88cec5"}, "vout": 1, "txid": "cda3ba07d751fe097e9de599c3667187293c7632b76d6de291ee6b59da8d8c72"}], "txid": "016ba98f7a9d756d8cc9beb05632e038676e108d1c33f1519f2a2412be8d3f38", "blocktime": 1537870268, "version": 2, "confirmations": 11516, "time": 1537870268, "locktime": 542987, "vsize": 168, "size": 249}