{"hash": "016cb5f3db33f2f793ca41071f28ea53582d6d363d9d1d055e2d07b097d24dc9", "blockhash": "0000000000000000000e13cef7c366c0283d82e591d1acd082e914b08063cdf1", "vout": [{"scriptPubKey": {"reqSigs": 1, "hex": "76a914e9d9a74ae7e81d4ca48b684a1fd64f8267057ef888ac", "addresses": ["1NKVBXW1pwDW347WfLZZ9NQMBHzPf6UGbd"], "asm": "OP_DUP OP_HASH160 e9d9a74ae7e81d4ca48b684a1fd64f8267057ef8 OP_EQUALVERIFY OP_CHECKSIG", "type": "pubkeyhash"}, "value": 0.00018907, "n": 0}, {"scriptPubKey": {"reqSigs": 1, "hex": "a914d7fa0aff725ae81313e5aaf21d7a5134ebd7cd1587", "addresses": ["3MNzk5QSam2D7HGSduAKMZ33XRvKgxwUdw"], "asm": "OP_HASH160 d7fa0aff725ae81313e5aaf21d7a5134ebd7cd15 OP_EQUAL", "type": "scripthash"}, "value": 0.00039042, "n": 1}], "hex": "01000000015993be71f617c53551dfc7611af7947791ab69408da972d471dd8db21924a493000000006b483045022100cc0a418b94c6a452bc6087f3c03eb4c2138548559d5477b9e99fc8945a41690f0220597eecd1e1fff5d0d34e1a980ae9726d3024d02f36d074c2c65aa8cb2bf943cc012102f9e287ee34abec31d4ffc6a452b63a318859cabd9f37fbba9a0438eaa22e86e7ffffffff02db490000000000001976a914e9d9a74ae7e81d4ca48b684a1fd64f8267057ef888ac829800000000000017a914d7fa0aff725ae81313e5aaf21d7a5134ebd7cd158700000000", "vin": [{"sequence": 4294967295, "scriptSig": {"hex": "483045022100cc0a418b94c6a452bc6087f3c03eb4c2138548559d5477b9e99fc8945a41690f0220597eecd1e1fff5d0d34e1a980ae9726d3024d02f36d074c2c65aa8cb2bf943cc012102f9e287ee34abec31d4ffc6a452b63a318859cabd9f37fbba9a0438eaa22e86e7", "asm": "3045022100cc0a418b94c6a452bc6087f3c03eb4c2138548559d5477b9e99fc8945a41690f0220597eecd1e1fff5d0d34e1a980ae9726d3024d02f36d074c2c65aa8cb2bf943cc[ALL] 02f9e287ee34abec31d4ffc6a452b63a318859cabd9f37fbba9a0438eaa22e86e7"}, "vout": 0, "txid": "93a42419b28ddd71d472a98d4069ab917794f71a61c7df5135c517f671be9359"}], "txid": "016cb5f3db33f2f793ca41071f28ea53582d6d363d9d1d055e2d07b097d24dc9", "blocktime": 1537871767, "version": 1, "confirmations": 11493, "time": 1537871767, "locktime": 0, "vsize": 224, "size": 224}