{"hash": "ce3640b561e6162b3d3fe7580aabf7e82edcda4df5795ccfff29f9e2c855b70e", "blockhash": "00000000000000000018f53835495a110e01622372bf6ae95dc86f2b0ab887b0", "vout": [{"scriptPubKey": {"reqSigs": 1, "hex": "a914db6f63289d347ddf837a5c493d86b719980bd51c87", "addresses": ["3MhHLt9E6Wpyis7BQcJosY2fGLLKCCGLPQ"], "asm": "OP_HASH160 db6f63289d347ddf837a5c493d86b719980bd51c OP_EQUAL", "type": "scripthash"}, "value": 0.00699287, "n": 0}, {"scriptPubKey": {"reqSigs": 1, "hex": "a91408c364340a91e77e4376b26fdad3b5aedc5661f787", "addresses": ["32VMQ7Th4qGhbDYY68FZrfSF9hTbsPivgt"], "asm": "OP_HASH160 08c364340a91e77e4376b26fdad3b5aedc5661f7 OP_EQUAL", "type": "scripthash"}, "value": 0.06631516, "n": 1}], "hex": "01000000000101bd2b655433d47fef53a6b16357dd30455acb5f4bd7a64f8b14966b7d4ace6cc3010000002322002027561ef61439ff4994ea3793249bbb358319edb59fff63c1eeada48f299e81b5ffffffff0297ab0a000000000017a914db6f63289d347ddf837a5c493d86b719980bd51c875c3065000000000017a91408c364340a91e77e4376b26fdad3b5aedc5661f78704004730440220467c6d62cf17073681723f782c97911d112ec54938a478ac393500043a774ad102201aa06c328b99560032930a08af515085b656b9aa69d83c8cf4421fe4f4494f4e014830450221008323deae8301310231471a0f49b1a74fc9a84eeb31ac0600abcf834f21d1f173022027044dd11ccc2506f1f108a9b875457184ba31450aa6c335e77bf5d2c4825e220147522102f484437eae67e7d1f9cf7235bd52510c99f379408a1f6fe737011d4bc259358a2103871fc2ca08e6950b38867e8e6a0e94ee625223d3aa0df5c65f414c6d784467e252ae00000000", "vin": [{"txinwitness": ["", "30440220467c6d62cf17073681723f782c97911d112ec54938a478ac393500043a774ad102201aa06c328b99560032930a08af515085b656b9aa69d83c8cf4421fe4f4494f4e01", "30450221008323deae8301310231471a0f49b1a74fc9a84eeb31ac0600abcf834f21d1f173022027044dd11ccc2506f1f108a9b875457184ba31450aa6c335e77bf5d2c4825e2201", "522102f484437eae67e7d1f9cf7235bd52510c99f379408a1f6fe737011d4bc259358a2103871fc2ca08e6950b38867e8e6a0e94ee625223d3aa0df5c65f414c6d784467e252ae"], "sequence": 4294967295, "scriptSig": {"hex": "22002027561ef61439ff4994ea3793249bbb358319edb59fff63c1eeada48f299e81b5", "asm": "002027561ef61439ff4994ea3793249bbb358319edb59fff63c1eeada48f299e81b5"}, "vout": 1, "txid": "c36cce4a7d6b96148b4fa6d74b5fcb5a4530dd5763b1a653ef7fd43354652bbd"}], "txid": "0170b3b87c8b7f82a2fb59ad78a63e0a4bd65760167c5a1580f52da33548a2cd", "blocktime": 1537870928, "version": 1, "confirmations": 11514, "time": 1537870928, "locktime": 0, "vsize": 206, "size": 371}