{"hash": "0170524bc829027aa7bbcb3c90960602e74499c27af3b320b963ece2baf5b1a5", "blockhash": "00000000000000000017f5eb5941039fbcee6240d03bc1f2f8e35350df66a1d8", "vout": [{"scriptPubKey": {"reqSigs": 1, "hex": "76a9142c8453946ebb2546aa4ff944518135fc329dac8e88ac", "addresses": ["154PFeTVr4v97rdqzkGcy1Z99awmduzoeJ"], "asm": "OP_DUP OP_HASH160 2c8453946ebb2546aa4ff944518135fc329dac8e OP_EQUALVERIFY OP_CHECKSIG", "type": "pubkeyhash"}, "value": 0.005973, "n": 0}], "hex": "01000000024e71676cf0fd59b8dabc200d1c7f936314a1437cc6b1b082c3c098773c02c2b8000000006b483045022100c8c60aebdfabc8f6e4324d79f15a4f165eb5c3a8d141a380785de85f9da0500302202a1a6cbaf571966d00aba7f1e3a8ccf705cdc64bf7f88c76a9ddc2b620b407ac0121025b172e8eecacc3732f873334d208a8d22e46a966de6c8c0cbd2c38d8bdf88b93ffffffffe7006773bc23c70c95a116bbab22944d3cdbc4d2462b7208b7edf4363434fefb000000006a47304402204670b8b495d57030736a0f20bfa3300c1ff1a7b4af7da2d1ecffdbbc7c6de406022049008c566e57d370505fa17ab880dd0c247e342a96aab8b47d1dcef4e0b89b5c012102bf8a682ed09e4971e0ac96b2debe1698c7667200b2586038888076c7f82d8fa0ffffffff01341d0900000000001976a9142c8453946ebb2546aa4ff944518135fc329dac8e88ac00000000", "vin": [{"sequence": 4294967295, "scriptSig": {"hex": "483045022100c8c60aebdfabc8f6e4324d79f15a4f165eb5c3a8d141a380785de85f9da0500302202a1a6cbaf571966d00aba7f1e3a8ccf705cdc64bf7f88c76a9ddc2b620b407ac0121025b172e8eecacc3732f873334d208a8d22e46a966de6c8c0cbd2c38d8bdf88b93", "asm": "3045022100c8c60aebdfabc8f6e4324d79f15a4f165eb5c3a8d141a380785de85f9da0500302202a1a6cbaf571966d00aba7f1e3a8ccf705cdc64bf7f88c76a9ddc2b620b407ac[ALL] 025b172e8eecacc3732f873334d208a8d22e46a966de6c8c0cbd2c38d8bdf88b93"}, "vout": 0, "txid": "b8c2023c7798c0c382b0b1c67c43a11463937f1c0d20bcdab859fdf06c67714e"}, {"sequence": 4294967295, "scriptSig": {"hex": "47304402204670b8b495d57030736a0f20bfa3300c1ff1a7b4af7da2d1ecffdbbc7c6de406022049008c566e57d370505fa17ab880dd0c247e342a96aab8b47d1dcef4e0b89b5c012102bf8a682ed09e4971e0ac96b2debe1698c7667200b2586038888076c7f82d8fa0", "asm": "304402204670b8b495d57030736a0f20bfa3300c1ff1a7b4af7da2d1ecffdbbc7c6de406022049008c566e57d370505fa17ab880dd0c247e342a96aab8b47d1dcef4e0b89b5c[ALL] 02bf8a682ed09e4971e0ac96b2debe1698c7667200b2586038888076c7f82d8fa0"}, "vout": 0, "txid": "fbfe343436f4edb708722b46d2c4db3c4d9422abbb16a1950cc723bc736700e7"}], "txid": "0170524bc829027aa7bbcb3c90960602e74499c27af3b320b963ece2baf5b1a5", "blocktime": 1537874412, "version": 1, "confirmations": 11467, "time": 1537874412, "locktime": 0, "vsize": 339, "size": 339}