{"hash": "0170a5c70559471798252f331dcf8c763ab3e4a38f2dd0669f8bc6b810e160df", "blockhash": "00000000000000000017f5eb5941039fbcee6240d03bc1f2f8e35350df66a1d8", "vout": [{"scriptPubKey": {"type": "nulldata", "hex": "6a4c50000077ef00012cb2bc3ed45b681581ade26cd19ed074892d00f8e87af8e8e963c7cfd5b99529522677c7572b56c310f930b169925baa18000613e36e32f8169c1d100759d4ba30d2c37bb011d97e02cf", "asm": "OP_RETURN 000077ef00012cb2bc3ed45b681581ade26cd19ed074892d00f8e87af8e8e963c7cfd5b99529522677c7572b56c310f930b169925baa18000613e36e32f8169c1d100759d4ba30d2c37bb011d97e02cf"}, "value": 0.0, "n": 0}, {"scriptPubKey": {"reqSigs": 1, "hex": "76a914dad07e7fd409ec228f3f062c641b8be09c275c2488ac", "addresses": ["1Lwz5FFYqDrLVy9tT5cDLg3eQap7ucQuGG"], "asm": "OP_DUP OP_HASH160 dad07e7fd409ec228f3f062c641b8be09c275c24 OP_EQUALVERIFY OP_CHECKSIG", "type": "pubkeyhash"}, "value": 0.0063452, "n": 1}], "hex": "0100000001539d4b353d8ef7d1ea66c0be29a39fdf4f63d23bfd13a8b80e30b8331951b260000000006b4830450221008b67261934cf96e2f423445363428f9aed924f3dbf73f90a69081201dfd513b2022019ebf0908a147691a7f4997e24689873b4f5a1684824756e225beece8778158a0121026c9b21a7093110b9daa24b8bb246d936d2c7ad221c40f6a1e0ef4e7df2595f79ffffffff020000000000000000536a4c50000077ef00012cb2bc3ed45b681581ade26cd19ed074892d00f8e87af8e8e963c7cfd5b99529522677c7572b56c310f930b169925baa18000613e36e32f8169c1d100759d4ba30d2c37bb011d97e02cf98ae0900000000001976a914dad07e7fd409ec228f3f062c641b8be09c275c2488ac00000000", "vin": [{"sequence": 4294967295, "scriptSig": {"hex": "4830450221008b67261934cf96e2f423445363428f9aed924f3dbf73f90a69081201dfd513b2022019ebf0908a147691a7f4997e24689873b4f5a1684824756e225beece8778158a0121026c9b21a7093110b9daa24b8bb246d936d2c7ad221c40f6a1e0ef4e7df2595f79", "asm": "30450221008b67261934cf96e2f423445363428f9aed924f3dbf73f90a69081201dfd513b2022019ebf0908a147691a7f4997e24689873b4f5a1684824756e225beece8778158a[ALL] 026c9b21a7093110b9daa24b8bb246d936d2c7ad221c40f6a1e0ef4e7df2595f79"}, "vout": 0, "txid": "60b2511933b8300eb8a813fd3bd2634fdf9fa329bec066ead1f78e3d354b9d53"}], "txid": "0170a5c70559471798252f331dcf8c763ab3e4a38f2dd0669f8bc6b810e160df", "blocktime": 1537874412, "version": 1, "confirmations": 11467, "time": 1537874412, "locktime": 0, "vsize": 284, "size": 284}