{"hash": "891c7d6ed494a9e2db1a8b092c5b3f18634d9ea4a0f7dc968172dab47d101235", "blockhash": "0000000000000000001f76057863aec43deb6fa401d9628bb513d65a8098bfab", "vout": [{"scriptPubKey": {"reqSigs": 1, "hex": "a914d24752e2f955b27805fe1c2f89eb1745002138bf87", "addresses": ["3LrsGVRs6v3f2vuBpW3DMyYQQra7Yu7USq"], "asm": "OP_HASH160 d24752e2f955b27805fe1c2f89eb1745002138bf OP_EQUAL", "type": "scripthash"}, "value": 0.04107341, "n": 0}, {"scriptPubKey": {"reqSigs": 1, "hex": "a9146f8f5beeb094e18774d99ffb7707c0b66c2875ea87", "addresses": ["3BrtfbuKjWWHbTndThjJF9SrvqCAv8oWpC"], "asm": "OP_HASH160 6f8f5beeb094e18774d99ffb7707c0b66c2875ea OP_EQUAL", "type": "scripthash"}, "value": 0.0025, "n": 1}, {"scriptPubKey": {"reqSigs": 1, "hex": "a914aba304dca90cd2ef32ee4414b669664d0afd25c187", "addresses": ["3HLYm737Jtja4GKNYzntmiQnYS6rwTahCU"], "asm": "OP_HASH160 aba304dca90cd2ef32ee4414b669664d0afd25c1 OP_EQUAL", "type": "scripthash"}, "value": 2e-05, "n": 2}], "hex": "020000000001016a2bfaf93eb6d6a0750d1048efa5cec47545ae10b07818c174cbb8a47e1b0323020000001716001414192fe21ea95ff8464a34b8ccf2b518e093a664feffffff034dac3e000000000017a914d24752e2f955b27805fe1c2f89eb1745002138bf8790d003000000000017a9146f8f5beeb094e18774d99ffb7707c0b66c2875ea87d00700000000000017a914aba304dca90cd2ef32ee4414b669664d0afd25c18702483045022100a7305312e7e01e56096e77c3560ee3307dcb4fc186bac1fe1bf60b5bd12bcd0f02203b0adb5f66d883994ffec6abf39aa870a0d636db15e79558b703082d34c7e7aa012103a02a45ca054793987ad103e7ac68f11e2d4c2724eda966816147a9351123677114490800", "vin": [{"txinwitness": ["3045022100a7305312e7e01e56096e77c3560ee3307dcb4fc186bac1fe1bf60b5bd12bcd0f02203b0adb5f66d883994ffec6abf39aa870a0d636db15e79558b703082d34c7e7aa01", "03a02a45ca054793987ad103e7ac68f11e2d4c2724eda966816147a93511236771"], "sequence": 4294967294, "scriptSig": {"hex": "16001414192fe21ea95ff8464a34b8ccf2b518e093a664", "asm": "001414192fe21ea95ff8464a34b8ccf2b518e093a664"}, "vout": 2, "txid": "23031b7ea4b8cb74c11878b010ae4575c4cea5ef48100d75a0d6b63ef9fa2b6a"}], "txid": "0177bbcb664d05c3621bee81c9f0302177c990dcdb0598a415911e885fc02e2f", "blocktime": 1537873891, "version": 2, "confirmations": 11475, "time": 1537873891, "locktime": 542996, "vsize": 198, "size": 280}