{"hash": "0178952ba9e586a1301ff2ba5d270167fd4a027dfa0f502eb087afca7881a843", "blockhash": "00000000000000000004ffacab907a6b429b9a5745fa0b75af4234bf69dd7176", "vout": [{"scriptPubKey": {"reqSigs": 1, "hex": "76a914a25dec4d0011064ef106a983c39c7a540699f22088ac", "addresses": ["1FoWyxwPXuj4C6abqwhjDWdz6D4PZgYRjA"], "asm": "OP_DUP OP_HASH160 a25dec4d0011064ef106a983c39c7a540699f220 OP_EQUALVERIFY OP_CHECKSIG", "type": "pubkeyhash"}, "value": 0.01980839, "n": 0}, {"scriptPubKey": {"type": "nulldata", "hex": "6a146f6d6e69000000000000001f000009184e72a000", "asm": "OP_RETURN 6f6d6e69000000000000001f000009184e72a000"}, "value": 0.0, "n": 1}, {"scriptPubKey": {"reqSigs": 1, "hex": "76a9144e54152534d0abb935ea91caf931404f15a675a288ac", "addresses": ["189AS8Chw4zE5J1ngoiNDbM1NUzACjZFbt"], "asm": "OP_DUP OP_HASH160 4e54152534d0abb935ea91caf931404f15a675a2 OP_EQUALVERIFY OP_CHECKSIG", "type": "pubkeyhash"}, "value": 5.46e-06, "n": 2}], "hex": "0100000001240c68bd8cc0de993c19653c1b33408547b367b15b3841b0fa60258cbe827db6010000006a47304402201ce55812bd2d61941e9e1ddd330f588805d909f3ac086d67729a556616bac46b0220377ff1535af6f93e3d59cc37d7977d65f97c076aaae178a156229e939042c74d012103da5bac7b36d5aa38f531c6b9601e21bb598a4b6716ebed38b009a55dabde9440feffffff03a7391e00000000001976a914a25dec4d0011064ef106a983c39c7a540699f22088ac0000000000000000166a146f6d6e69000000000000001f000009184e72a00022020000000000001976a9144e54152534d0abb935ea91caf931404f15a675a288ac15490800", "vin": [{"sequence": 4294967294, "scriptSig": {"hex": "47304402201ce55812bd2d61941e9e1ddd330f588805d909f3ac086d67729a556616bac46b0220377ff1535af6f93e3d59cc37d7977d65f97c076aaae178a156229e939042c74d012103da5bac7b36d5aa38f531c6b9601e21bb598a4b6716ebed38b009a55dabde9440", "asm": "304402201ce55812bd2d61941e9e1ddd330f588805d909f3ac086d67729a556616bac46b0220377ff1535af6f93e3d59cc37d7977d65f97c076aaae178a156229e939042c74d[ALL] 03da5bac7b36d5aa38f531c6b9601e21bb598a4b6716ebed38b009a55dabde9440"}, "vout": 1, "txid": "b67d82be8c2560fab041385bb167b3478540331b3c65193c99dec08cbd680c24"}], "txid": "0178952ba9e586a1301ff2ba5d270167fd4a027dfa0f502eb087afca7881a843", "blocktime": 1537875543, "version": 1, "confirmations": 11464, "time": 1537875543, "locktime": 542997, "vsize": 256, "size": 256}