{"hash": "017844691d90ac0b6646e2ba7982127e67269ea8ea1f1c9e8801bfaf8b9fd1cd", "blockhash": "000000000000000000022b45ed06c6f4ccd3cf7fb5ba4856ebd2e58215665228", "vout": [{"scriptPubKey": {"reqSigs": 1, "hex": "76a91402d10e0fa687bd348d984020c28383a76c8b411088ac", "addresses": ["1FtnmviQ39KVaJ8K2QQUtmQ7pb7v14WFp"], "asm": "OP_DUP OP_HASH160 02d10e0fa687bd348d984020c28383a76c8b4110 OP_EQUALVERIFY OP_CHECKSIG", "type": "pubkeyhash"}, "value": 0.0064952, "n": 0}, {"scriptPubKey": {"type": "nulldata", "hex": "6a4c5000007760000172dac894e56a771115d2ceea3a016b46dc7dc7d0968d120d670c1906f999943905847529ed097dd8ea8c866b9ee15baa07ad06126b00aec6aa311d100759d4ba30d2c37bb011d97e02cf", "asm": "OP_RETURN 00007760000172dac894e56a771115d2ceea3a016b46dc7dc7d0968d120d670c1906f999943905847529ed097dd8ea8c866b9ee15baa07ad06126b00aec6aa311d100759d4ba30d2c37bb011d97e02cf"}, "value": 0.0, "n": 1}], "hex": "01000000016f2bfa54a67fb460e783dfa411243b052c8b126a1ffce1f91b5e1655bbdfadde000000006a4730440220268000e599d6b5dd0f3d2b86a6a10ae1ea3dcf9166171aa28defa7ae8372b43202203aaa832afca414a4675af9a5b72df7db5690a4eefb848bd061ec3bb6db1fd5a20121023cf137a5b468159fee2d7c93e9e40c64bbc27f39a031a80923805ed91505a6e1ffffffff0230e90900000000001976a91402d10e0fa687bd348d984020c28383a76c8b411088ac0000000000000000536a4c5000007760000172dac894e56a771115d2ceea3a016b46dc7dc7d0968d120d670c1906f999943905847529ed097dd8ea8c866b9ee15baa07ad06126b00aec6aa311d100759d4ba30d2c37bb011d97e02cf00000000", "vin": [{"sequence": 4294967295, "scriptSig": {"hex": "4730440220268000e599d6b5dd0f3d2b86a6a10ae1ea3dcf9166171aa28defa7ae8372b43202203aaa832afca414a4675af9a5b72df7db5690a4eefb848bd061ec3bb6db1fd5a20121023cf137a5b468159fee2d7c93e9e40c64bbc27f39a031a80923805ed91505a6e1", "asm": "30440220268000e599d6b5dd0f3d2b86a6a10ae1ea3dcf9166171aa28defa7ae8372b43202203aaa832afca414a4675af9a5b72df7db5690a4eefb848bd061ec3bb6db1fd5a2[ALL] 023cf137a5b468159fee2d7c93e9e40c64bbc27f39a031a80923805ed91505a6e1"}, "vout": 0, "txid": "deaddfbb55165e1bf9e1fc1f6a128b2c053b2411a4df83e760b47fa654fa2b6f"}], "txid": "017844691d90ac0b6646e2ba7982127e67269ea8ea1f1c9e8801bfaf8b9fd1cd", "blocktime": 1537869901, "version": 1, "confirmations": 11523, "time": 1537869901, "locktime": 0, "vsize": 283, "size": 283}