{"hash": "017e9393d65176fa9878c4d9b3edbb4b8778d2a6de4427a49a9609058ed9844f", "blockhash": "0000000000000000000e13cef7c366c0283d82e591d1acd082e914b08063cdf1", "vout": [{"scriptPubKey": {"reqSigs": 1, "hex": "a914bd88526431b5bbdf516a2721356b6a5009225ad887", "addresses": ["3JyAwcBBWrGgghvCxoSsuatG23GQ4KdoTB"], "asm": "OP_HASH160 bd88526431b5bbdf516a2721356b6a5009225ad8 OP_EQUAL", "type": "scripthash"}, "value": 0.01224127, "n": 0}, {"scriptPubKey": {"reqSigs": 1, "hex": "76a914e33d6a3f5761a741d0c8f9f81e11bbdda57a6cf888ac", "addresses": ["1MiXxjigpejQFessEbCTmAAuQXDEBi7ohW"], "asm": "OP_DUP OP_HASH160 e33d6a3f5761a741d0c8f9f81e11bbdda57a6cf8 OP_EQUALVERIFY OP_CHECKSIG", "type": "pubkeyhash"}, "value": 0.00255832, "n": 1}, {"scriptPubKey": {"reqSigs": 1, "hex": "a914f78d8dbd5d7e46833b17f64a27ae4b6e42c25d4687", "addresses": ["3QFxQFJHeUP2LuExZvLZ5vYUACrJxn3iZ7"], "asm": "OP_HASH160 f78d8dbd5d7e46833b17f64a27ae4b6e42c25d46 OP_EQUAL", "type": "scripthash"}, "value": 0.0032866, "n": 2}, {"scriptPubKey": {"reqSigs": 1, "hex": "a914d6f92eb41a72b53317990853c8b8a60ab88ce00787", "addresses": ["3MHh36SYznQWm4uFrHuQBSrLHmJu4KvRgk"], "asm": "OP_HASH160 d6f92eb41a72b53317990853c8b8a60ab88ce007 OP_EQUAL", "type": "scripthash"}, "value": 0.00421, "n": 3}, {"scriptPubKey": {"reqSigs": 1, "hex": "76a9142907785a10bb9ee09b5b16190f008be222825cb088ac", "addresses": ["14jweu7A7capjmg1eqbZGZ1ZfF8MdbYNDi"], "asm": "OP_DUP OP_HASH160 2907785a10bb9ee09b5b16190f008be222825cb0 OP_EQUALVERIFY OP_CHECKSIG", "type": "pubkeyhash"}, "value": 0.00757638, "n": 4}, {"scriptPubKey": {"reqSigs": 1, "hex": "76a9145095bce0592992777baab4d79a1825ed1689142988ac", "addresses": ["18M6SK3NzCEdxCbG9FYaP3bBDFVvj3gNRF"], "asm": "OP_DUP OP_HASH160 5095bce0592992777baab4d79a1825ed16891429 OP_EQUALVERIFY OP_CHECKSIG", "type": "pubkeyhash"}, "value": 0.00766991, "n": 5}, {"scriptPubKey": {"reqSigs": 1, "hex": "76a914ab8e6542c48b22612e42cf3433f5457f4eb74ed388ac", "addresses": ["1Ge78cvDqg5AQj9eC7htgSUXrBMMjSR2Y5"], "asm": "OP_DUP OP_HASH160 ab8e6542c48b22612e42cf3433f5457f4eb74ed3 OP_EQUALVERIFY OP_CHECKSIG", "type": "pubkeyhash"}, "value": 0.00386445, "n": 6}, {"scriptPubKey": {"reqSigs": 1, "hex": "76a914df8380ff48e781cc6f8949103d71af0d44e95c9b88ac", "addresses": ["1MNqDq5ok1awj27A6m5RXXLEn4Q2LnCuHM"], "asm": "OP_DUP OP_HASH160 df8380ff48e781cc6f8949103d71af0d44e95c9b OP_EQUALVERIFY OP_CHECKSIG", "type": "pubkeyhash"}, "value": 0.00997127, "n": 7}, {"scriptPubKey": {"reqSigs": 1, "hex": "76a91493c754f2d9c810c6c9134a7d74c392697a461fb588ac", "addresses": ["1EUP821kpECxCJxK27rBb64gYag9omznvL"], "asm": "OP_DUP OP_HASH160 93c754f2d9c810c6c9134a7d74c392697a461fb5 OP_EQUALVERIFY OP_CHECKSIG", "type": "pubkeyhash"}, "value": 0.00428767, "n": 8}, {"scriptPubKey": {"reqSigs": 1, "hex": "a914449a9afc2874c699a611400edfa483507163f52987", "addresses": ["37wm5m4NnrnoVbGRtq2oq75GQ436VfxVfL"], "asm": "OP_HASH160 449a9afc2874c699a611400edfa483507163f529 OP_EQUAL", "type": "scripthash"}, "value": 0.00540444, "n": 9}, {"scriptPubKey": {"reqSigs": 1, "hex": "a9148294a62982a9b5cd6acc541d813f04e5cbc5c20d87", "addresses": ["3DbTqoNCZs5WZ2wXbpgTCuzkZcct7Ueroi"], "asm": "OP_HASH160 8294a62982a9b5cd6acc541d813f04e5cbc5c20d OP_EQUAL", "type": "scripthash"}, "value": 0.0142278, "n": 10}], "hex": "02000000030bd56ce119eec70d5ee5dabb0fa889aadd500af71f54187a9df30f5bdbf89b1a000000006b483045022100e813b53e4ff0c204f9c166d721c5eb5fa47d5b6a43ea4abb25b70e69126350f2022051ac9a62156255cdf630ad7f06eae6d221b0bfa95fba16ab5a5cc465a8f7eefa0121037b5980e5731420ebb136ecd8c3e041068e774cad8587a15e1fa3b506307ce066feffffff5d500b81072d828b3e8679e89099ca64f4286111edd7f47f90bb2e06f9fd459cf20000006b4830450221009ef11bc54b61e44adddcbd37d78225f7623bf523417d4bd9e668214da18e143d022036dea67c791e35f6247d58000d15013d69e2c4e210349e21b6805bc01286ccf2012103bdc9bc09686a6b0da3a9055d089cbc1446804649a6938710df32f4c8f914f19bfeffffffc0f28da85d8fdc677d465435b9b139cae446ad5344ecd9b903620ff8efa4648e040000006a4730440220014257d0243946ff0844e363e0a1435129f8f235b1442df41a51306ce02fa226022026dfbad5cf2892111a1b4cc4e78c9f9f2397719be62d2d940366c1a18fcbcac5012103bb9892f378f81fa8a732438e9aed22de4b9b8daf3771ec37abac8d6525c4ed41feffffff0bbfad12000000000017a914bd88526431b5bbdf516a2721356b6a5009225ad88758e70300000000001976a914e33d6a3f5761a741d0c8f9f81e11bbdda57a6cf888acd40305000000000017a914f78d8dbd5d7e46833b17f64a27ae4b6e42c25d4687886c06000000000017a914d6f92eb41a72b53317990853c8b8a60ab88ce00787868f0b00000000001976a9142907785a10bb9ee09b5b16190f008be222825cb088ac0fb40b00000000001976a9145095bce0592992777baab4d79a1825ed1689142988ac8de50500000000001976a914ab8e6542c48b22612e42cf3433f5457f4eb74ed388ac07370f00000000001976a914df8380ff48e781cc6f8949103d71af0d44e95c9b88acdf8a0600000000001976a91493c754f2d9c810c6c9134a7d74c392697a461fb588ac1c3f08000000000017a914449a9afc2874c699a611400edfa483507163f52987bcb515000000000017a9148294a62982a9b5cd6acc541d813f04e5cbc5c20d8710490800", "vin": [{"sequence": 4294967294, "scriptSig": {"hex": "483045022100e813b53e4ff0c204f9c166d721c5eb5fa47d5b6a43ea4abb25b70e69126350f2022051ac9a62156255cdf630ad7f06eae6d221b0bfa95fba16ab5a5cc465a8f7eefa0121037b5980e5731420ebb136ecd8c3e041068e774cad8587a15e1fa3b506307ce066", "asm": "3045022100e813b53e4ff0c204f9c166d721c5eb5fa47d5b6a43ea4abb25b70e69126350f2022051ac9a62156255cdf630ad7f06eae6d221b0bfa95fba16ab5a5cc465a8f7eefa[ALL] 037b5980e5731420ebb136ecd8c3e041068e774cad8587a15e1fa3b506307ce066"}, "vout": 0, "txid": "1a9bf8db5b0ff39d7a18541ff70a50ddaa89a80fbbdae55e0dc7ee19e16cd50b"}, {"sequence": 4294967294, "scriptSig": {"hex": "4830450221009ef11bc54b61e44adddcbd37d78225f7623bf523417d4bd9e668214da18e143d022036dea67c791e35f6247d58000d15013d69e2c4e210349e21b6805bc01286ccf2012103bdc9bc09686a6b0da3a9055d089cbc1446804649a6938710df32f4c8f914f19b", "asm": "30450221009ef11bc54b61e44adddcbd37d78225f7623bf523417d4bd9e668214da18e143d022036dea67c791e35f6247d58000d15013d69e2c4e210349e21b6805bc01286ccf2[ALL] 03bdc9bc09686a6b0da3a9055d089cbc1446804649a6938710df32f4c8f914f19b"}, "vout": 242, "txid": "9c45fdf9062ebb907ff4d7ed116128f464ca9990e879863e8b822d07810b505d"}, {"sequence": 4294967294, "scriptSig": {"hex": "4730440220014257d0243946ff0844e363e0a1435129f8f235b1442df41a51306ce02fa226022026dfbad5cf2892111a1b4cc4e78c9f9f2397719be62d2d940366c1a18fcbcac5012103bb9892f378f81fa8a732438e9aed22de4b9b8daf3771ec37abac8d6525c4ed41", "asm": "30440220014257d0243946ff0844e363e0a1435129f8f235b1442df41a51306ce02fa226022026dfbad5cf2892111a1b4cc4e78c9f9f2397719be62d2d940366c1a18fcbcac5[ALL] 03bb9892f378f81fa8a732438e9aed22de4b9b8daf3771ec37abac8d6525c4ed41"}, "vout": 4, "txid": "8e64a4eff80f6203b9d9ec4453ad46e4ca39b1b93554467d67dc8f5da88df2c0"}], "txid": "017e9393d65176fa9878c4d9b3edbb4b8778d2a6de4427a49a9609058ed9844f", "blocktime": 1537871767, "version": 2, "confirmations": 11495, "time": 1537871767, "locktime": 542992, "vsize": 817, "size": 817}