{"hash": "0184638313d8fce29cb9b1213201c87cc015fdd02b4fd297ec1373bda1407ec6", "blockhash": "00000000000000000018f53835495a110e01622372bf6ae95dc86f2b0ab887b0", "vout": [{"scriptPubKey": {"reqSigs": 1, "hex": "a91486ed17bfa7bd80cf87cf7e80abd9289079b78c5b87", "addresses": ["3DzSVk4veMCkNbNT9CdETeE26uWxmNbBnD"], "asm": "OP_HASH160 86ed17bfa7bd80cf87cf7e80abd9289079b78c5b OP_EQUAL", "type": "scripthash"}, "value": 5.58860269, "n": 0}, {"scriptPubKey": {"reqSigs": 1, "hex": "76a9144a9bc72945605c29985452d94a9c0c3c2fbcf9d088ac", "addresses": ["17oVcqej6AX9b6g9RrjmHpjU72KYtVtoSa"], "asm": "OP_DUP OP_HASH160 4a9bc72945605c29985452d94a9c0c3c2fbcf9d0 OP_EQUALVERIFY OP_CHECKSIG", "type": "pubkeyhash"}, "value": 2.2, "n": 1}], "hex": "02000000016df0f264c8730f599c610a946d712012d15caa4842ac387ffb6cf97fa17cd2f101000000da00473044022077805867bdf93f77eec7d7d6ff20382c945a5ab4b35722026a0d09acb7e0600502205e8ff43699f749488e39a2dff3ccf174c926e7980066c316c575609778520eb001483045022100ca0503d067e37bec5f3f9b61e6f2262846ecf78f304b64a83a95f32e8279de3f022033cc3a92fe232727575d166dd92940e4bfd98bd319e669926bd32941fe6470e401475221038934160de8ad1dd529329f5bf51e3086cc0f6d19e10fb4120385f23d871c0c1d21021659435e23e3891d39ec2b0266b3c14a68cb4e45adb8543f31508310c98722d952aeffffffff02ed874f210000000017a91486ed17bfa7bd80cf87cf7e80abd9289079b78c5b8700ef1c0d000000001976a9144a9bc72945605c29985452d94a9c0c3c2fbcf9d088ac00000000", "vin": [{"sequence": 4294967295, "scriptSig": {"hex": "00473044022077805867bdf93f77eec7d7d6ff20382c945a5ab4b35722026a0d09acb7e0600502205e8ff43699f749488e39a2dff3ccf174c926e7980066c316c575609778520eb001483045022100ca0503d067e37bec5f3f9b61e6f2262846ecf78f304b64a83a95f32e8279de3f022033cc3a92fe232727575d166dd92940e4bfd98bd319e669926bd32941fe6470e401475221038934160de8ad1dd529329f5bf51e3086cc0f6d19e10fb4120385f23d871c0c1d21021659435e23e3891d39ec2b0266b3c14a68cb4e45adb8543f31508310c98722d952ae", "asm": "0 3044022077805867bdf93f77eec7d7d6ff20382c945a5ab4b35722026a0d09acb7e0600502205e8ff43699f749488e39a2dff3ccf174c926e7980066c316c575609778520eb0[ALL] 3045022100ca0503d067e37bec5f3f9b61e6f2262846ecf78f304b64a83a95f32e8279de3f022033cc3a92fe232727575d166dd92940e4bfd98bd319e669926bd32941fe6470e4[ALL] 5221038934160de8ad1dd529329f5bf51e3086cc0f6d19e10fb4120385f23d871c0c1d21021659435e23e3891d39ec2b0266b3c14a68cb4e45adb8543f31508310c98722d952ae"}, "vout": 1, "txid": "f1d27ca17ff96cfb7f38ac4248aa5cd11220716d940a619c590f73c864f2f06d"}], "txid": "0184638313d8fce29cb9b1213201c87cc015fdd02b4fd297ec1373bda1407ec6", "blocktime": 1537870928, "version": 2, "confirmations": 11512, "time": 1537870928, "locktime": 0, "vsize": 335, "size": 335}