{"hash": "6ac8551fb636e90e934f8615b81cbd2871210dabdb74c39e4ba8381502a4f10c", "blockhash": "0000000000000000000dcc0f55137456b1a82d3642486a52398922ac4d620174", "vout": [{"scriptPubKey": {"reqSigs": 1, "hex": "76a91435693c7908faefda9466cc6d4461c4cde3d8701c88ac", "addresses": ["15sQt7FxGFpkU4id69VnYzg5QVGpx9MGwt"], "asm": "OP_DUP OP_HASH160 35693c7908faefda9466cc6d4461c4cde3d8701c OP_EQUALVERIFY OP_CHECKSIG", "type": "pubkeyhash"}, "value": 0.000594, "n": 0}, {"scriptPubKey": {"reqSigs": 1, "hex": "a914414cec0fc72a9410f6836edaf08de1aa3b2a321c87", "addresses": ["37eHzewnAFRR2SVZu8rZM3nBsmuE2XBU7D"], "asm": "OP_HASH160 414cec0fc72a9410f6836edaf08de1aa3b2a321c OP_EQUAL", "type": "scripthash"}, "value": 0.31146835, "n": 1}], "hex": "010000000001019d3f4bbd9111ad60fab7a0ed4a8fa254f3ad19e1f7f3ef3b436f6ce283cedbf50100000023220020ce74cde37cfb8dd71d0179287e12fc721ee236ce3c89c2745bcd365b39807eb3ffffffff0208e80000000000001976a91435693c7908faefda9466cc6d4461c4cde3d8701c88ac5343db010000000017a914414cec0fc72a9410f6836edaf08de1aa3b2a321c870400483045022100ae853256b828b282e1d59ae3d9ed22ed6510290385d6c393c058637732d87aa402203a9d8f2f70149198ef8c1aa0e381c5457a3adb66cf6d717abf5db4c7d4c5884401483045022100b03e6f0e52fb2e819b86d1a37b3a5b0a750d7355b772f2dea49490316ec169ad02206e3f2204a60a3212b1410ca59fec41b51f09c1a9c50f3cc71604b15e268bba960147522103ada901d90d5a76319a60f228e0b1bbc84b1d9a87238550bae5d5d190067b66712103871fc2ca08e6950b38867e8e6a0e94ee625223d3aa0df5c65f414c6d784467e252ae00000000", "vin": [{"txinwitness": ["", "3045022100ae853256b828b282e1d59ae3d9ed22ed6510290385d6c393c058637732d87aa402203a9d8f2f70149198ef8c1aa0e381c5457a3adb66cf6d717abf5db4c7d4c5884401", "3045022100b03e6f0e52fb2e819b86d1a37b3a5b0a750d7355b772f2dea49490316ec169ad02206e3f2204a60a3212b1410ca59fec41b51f09c1a9c50f3cc71604b15e268bba9601", "522103ada901d90d5a76319a60f228e0b1bbc84b1d9a87238550bae5d5d190067b66712103871fc2ca08e6950b38867e8e6a0e94ee625223d3aa0df5c65f414c6d784467e252ae"], "sequence": 4294967295, "scriptSig": {"hex": "220020ce74cde37cfb8dd71d0179287e12fc721ee236ce3c89c2745bcd365b39807eb3", "asm": "0020ce74cde37cfb8dd71d0179287e12fc721ee236ce3c89c2745bcd365b39807eb3"}, "vout": 1, "txid": "f5dbce83e26c6f433beff3f7e119adf354a28f4aeda0b7fa60ad1191bd4b3f9d"}], "txid": "018599f08621f9147cb5ff407be4da915f6f63075fce0f1d121ffeafd107147e", "blocktime": 1537870268, "version": 1, "confirmations": 11518, "time": 1537870268, "locktime": 0, "vsize": 208, "size": 374}