{"hash": "0186f73d13984d391f9d7d198dca205acab66c496c9a68868d29fee134561927", "blockhash": "0000000000000000000e13cef7c366c0283d82e591d1acd082e914b08063cdf1", "vout": [{"scriptPubKey": {"reqSigs": 1, "hex": "a9148ae04ef421969d2294bd382c7cafdf09737e519287", "addresses": ["3EMKtEmBp9N2tCH1v36e5Lrhh2dfvFCU3t"], "asm": "OP_HASH160 8ae04ef421969d2294bd382c7cafdf09737e5192 OP_EQUAL", "type": "scripthash"}, "value": 0.28472, "n": 0}], "hex": "0100000004a409430081701097cc7306fc3abd6d4af98153734b1dc4cf13969449b340620b010000006a473044022022df706bd232aa3fd70d5d47e58940b13f80a2f1c998475b6fd3db1068c0f26f02202d4c0f6de17217c8ea914868d92afe2712d3a3da3fffb2c8192a8106aa1c7fcd012102efc6bc31e20dcf127001c62b3f2a9118fd9b74f2e05b28ca8e9ca6af200d90beffffffff6a429c6202e9d8f0159e137e03c77c33aed8c8b4da47cb7b34a6bda8950fe88c010000006b483045022100ebf2adc750424b6626e875b78fcd0f7a8d076e6a9011fdc0fda7e7c1e0c7b84702207a8c152f683efb6dc782f23023462560ddbcf4a1412443e907fca9a4d19a83ea01210220c3be1fbbc2613ac3e62b3aaa4cc32337ab59648b5c45ccb8a57b265c4d8cedffffffffcb915e3366cad39127f1ac6821e5971be82cb9f0547efa26d57b0ce5b70b97d7000000006a47304402202c08618e893591899b8b296ea461d485a1884f1e3e2b8a86f0554115722208ad022069303b566031593371b62d33784587a791236ff2fec359357ae4f14540a42ce801210348853ce24af13a2f839c8f7f94ca882be64c3fdb399940ad872709c4d02de032ffffffff7a5392a3f9e936c9d701b1094106e872ca1964a6ac2396035cf46003c28ba9eb000000006b483045022100facee4f0d2c5d203542304db7fd8fffa5e05e743de1b2d9597aba7c3c7d5759b022064d610c168e07df11b20c2820f219f32011f8b3b577fe53c54318b6b701ab90e0121036ed62d184a737486b9af037a5bd8a15048f65c2cf0f951ffd5f6154c79c49e05ffffffff01c072b2010000000017a9148ae04ef421969d2294bd382c7cafdf09737e51928700000000", "vin": [{"sequence": 4294967295, "scriptSig": {"hex": "473044022022df706bd232aa3fd70d5d47e58940b13f80a2f1c998475b6fd3db1068c0f26f02202d4c0f6de17217c8ea914868d92afe2712d3a3da3fffb2c8192a8106aa1c7fcd012102efc6bc31e20dcf127001c62b3f2a9118fd9b74f2e05b28ca8e9ca6af200d90be", "asm": "3044022022df706bd232aa3fd70d5d47e58940b13f80a2f1c998475b6fd3db1068c0f26f02202d4c0f6de17217c8ea914868d92afe2712d3a3da3fffb2c8192a8106aa1c7fcd[ALL] 02efc6bc31e20dcf127001c62b3f2a9118fd9b74f2e05b28ca8e9ca6af200d90be"}, "vout": 1, "txid": "0b6240b349949613cfc41d4b735381f94a6dbd3afc0673cc97107081004309a4"}, {"sequence": 4294967295, "scriptSig": {"hex": "483045022100ebf2adc750424b6626e875b78fcd0f7a8d076e6a9011fdc0fda7e7c1e0c7b84702207a8c152f683efb6dc782f23023462560ddbcf4a1412443e907fca9a4d19a83ea01210220c3be1fbbc2613ac3e62b3aaa4cc32337ab59648b5c45ccb8a57b265c4d8ced", "asm": "3045022100ebf2adc750424b6626e875b78fcd0f7a8d076e6a9011fdc0fda7e7c1e0c7b84702207a8c152f683efb6dc782f23023462560ddbcf4a1412443e907fca9a4d19a83ea[ALL] 0220c3be1fbbc2613ac3e62b3aaa4cc32337ab59648b5c45ccb8a57b265c4d8ced"}, "vout": 1, "txid": "8ce80f95a8bda6347bcb47dab4c8d8ae337cc7037e139e15f0d8e902629c426a"}, {"sequence": 4294967295, "scriptSig": {"hex": "47304402202c08618e893591899b8b296ea461d485a1884f1e3e2b8a86f0554115722208ad022069303b566031593371b62d33784587a791236ff2fec359357ae4f14540a42ce801210348853ce24af13a2f839c8f7f94ca882be64c3fdb399940ad872709c4d02de032", "asm": "304402202c08618e893591899b8b296ea461d485a1884f1e3e2b8a86f0554115722208ad022069303b566031593371b62d33784587a791236ff2fec359357ae4f14540a42ce8[ALL] 0348853ce24af13a2f839c8f7f94ca882be64c3fdb399940ad872709c4d02de032"}, "vout": 0, "txid": "d7970bb7e50c7bd526fa7e54f0b92ce81b97e52168acf12791d3ca66335e91cb"}, {"sequence": 4294967295, "scriptSig": {"hex": "483045022100facee4f0d2c5d203542304db7fd8fffa5e05e743de1b2d9597aba7c3c7d5759b022064d610c168e07df11b20c2820f219f32011f8b3b577fe53c54318b6b701ab90e0121036ed62d184a737486b9af037a5bd8a15048f65c2cf0f951ffd5f6154c79c49e05", "asm": "3045022100facee4f0d2c5d203542304db7fd8fffa5e05e743de1b2d9597aba7c3c7d5759b022064d610c168e07df11b20c2820f219f32011f8b3b577fe53c54318b6b701ab90e[ALL] 036ed62d184a737486b9af037a5bd8a15048f65c2cf0f951ffd5f6154c79c49e05"}, "vout": 0, "txid": "eba98bc20360f45c039623aca66419ca72e8064109b101d7c936e9f9a392537a"}], "txid": "0186f73d13984d391f9d7d198dca205acab66c496c9a68868d29fee134561927", "blocktime": 1537871767, "version": 1, "confirmations": 11491, "time": 1537871767, "locktime": 0, "vsize": 632, "size": 632}