{"hash": "db064389d465e2faa4290be3fc1f85cab6b4bd68116510792ed3d6c1c974d28a", "blockhash": "0000000000000000001f0ddff1eddb255c1121bcd4da4f1bc9a0da00cae72433", "vout": [{"scriptPubKey": {"reqSigs": 1, "hex": "a91455f3959c3f5242901d6682cd54e2a7f2f40a7dbd87", "addresses": ["39XVAPeLzYsV9qzuDBn53C6xzMTo73wiZu"], "asm": "OP_HASH160 55f3959c3f5242901d6682cd54e2a7f2f40a7dbd OP_EQUAL", "type": "scripthash"}, "value": 0.04904979, "n": 0}], "hex": "0100000000010fb4f97b3337a756eb7e2a379791666b617d9aa793a7a0b4aca22547f2fbbf80090b00000017160014483cd2923df28e28a22d318fb49cc1b3ebb29cd0fdffffff57ec333d8293661e6d112944ffe1d85e75a521ecb918c527e44713b3d514f60a0700000017160014483cd2923df28e28a22d318fb49cc1b3ebb29cd0fdffffff1c363cfe3d7dfeefba270dc6e23113233aaef92bf08ba17d6d6ed45a7d50fa1f0b00000017160014483cd2923df28e28a22d318fb49cc1b3ebb29cd0fdffffffc7b797510ddd0f6de758e91d1f48d7348af3a190b47b78ef20b91d9040f5323f1000000017160014483cd2923df28e28a22d318fb49cc1b3ebb29cd0fdffffff35016a72f9ce3216bee9e52001a380c361dd3a204a25fcc618c6cd0ab73ee14a1200000017160014483cd2923df28e28a22d318fb49cc1b3ebb29cd0fdffffff70ecc61cbcd9f5cba0773915248e4ba3e8104f21c5f4954d813c58d1d5d4e0540900000017160014483cd2923df28e28a22d318fb49cc1b3ebb29cd0fdffffffaed358597a830f4d3915cb5db97bc49dc2b263f32ddc9d3a19a5d7fc55f2be580200000017160014483cd2923df28e28a22d318fb49cc1b3ebb29cd0fdffffff4b583d785aab433db1cd9584d6b35a0a8340c59c36f9cd1231cd144d9364e5880000000017160014483cd2923df28e28a22d318fb49cc1b3ebb29cd0fdffffff37818b63bf657dce18ef86ddbf872abcf1991b35058ccce3e6d65f2fae02c88a1100000017160014483cd2923df28e28a22d318fb49cc1b3ebb29cd0fdffffff8da7978ee1339609a44ec1b48717863e61477139be2d2209217a6c4d402011c60a00000017160014483cd2923df28e28a22d318fb49cc1b3ebb29cd0fdffffff0587b9c4314ab7cb80d3642c1db3cd70aa0007aac93d4efcaaff221407b9b8cd1000000017160014483cd2923df28e28a22d318fb49cc1b3ebb29cd0fdffffffd8e7be76ebf781e73c4af678cbf461e59a7a22ec57320d87207db56a261f30d51200000017160014483cd2923df28e28a22d318fb49cc1b3ebb29cd0fdffffff8b27bf1c54fc2b5d2f85afd0867a4ff615b5e801a4fca310238ff29ca49249d70100000017160014483cd2923df28e28a22d318fb49cc1b3ebb29cd0fdffffff7c48d00bfa27d1b70321ea910d6a823ec19a1252fa0b0cd1bb7b7e2a6b39cddd6500000017160014483cd2923df28e28a22d318fb49cc1b3ebb29cd0fdffffff955321ff3de80744dc92d11a326c351bb2b118ed3aa5eec5ffe4bea2ea267bf61400000017160014483cd2923df28e28a22d318fb49cc1b3ebb29cd0fdffffff0113d84a000000000017a91455f3959c3f5242901d6682cd54e2a7f2f40a7dbd87024730440220259469efb6b2b04efea82578c1d4e6bda53c92d56500204f5cd11e33819ab372022079ad88505f0139a9096f25d507530e4dfd51a630d027ead65b3c72b1991877d20121034c01f4bfeaa68e17e28c9b580294d7b212491b42da18d36b38abcf739714aae20247304402204b6564450001efe2e6a4e5644f2ea7d77e0f64655164dc22e335f96cc81a745602207f1cfc8613a7a241841b29bc026e2b16c96894ba81a5d7d9dea26192cfbfd61d0121034c01f4bfeaa68e17e28c9b580294d7b212491b42da18d36b38abcf739714aae202483045022100abec766bd0ee9a723b3dff46a9770bdddf2fca3f8af3453c7a263e28e292003902205cc0eb47e66a287987323962089dd2211c24466526d76673cd31a84a5247a5520121034c01f4bfeaa68e17e28c9b580294d7b212491b42da18d36b38abcf739714aae202483045022100dd2b8cb5d0353e53e401015ef253af5736bc838bc16b3cb68ac6f2651e083bf2022009d70e0b5c7af1efecc91f194d5b974679e576676f12b5a0a67678c9e9a5b63b0121034c01f4bfeaa68e17e28c9b580294d7b212491b42da18d36b38abcf739714aae202483045022100a715fe082220b9d85096e1bc7fa147cee38b16f6205c091029c49cdfcc4e35f602207acf6070ffd775ce3e8ab87290e08e1b3804aaea300a7615766e13d68da2afca0121034c01f4bfeaa68e17e28c9b580294d7b212491b42da18d36b38abcf739714aae202473044022079cc0bc4b207f5d1e8d0e9d097ec17b346760491297c23783924824d1e715d4502204a79b43ac657f7439f7534897306a01d4774d6843adfefebacfc4fa336b207aa0121034c01f4bfeaa68e17e28c9b580294d7b212491b42da18d36b38abcf739714aae202483045022100e8378ecb68bd35fcfe7ab32c8a91bda6d5c5e796c846a30927c33a3541f141d2022033e42421c73c120aaa8b8c90e92b8249c4bc4c35982ea8c82e50475da07cd6ac0121034c01f4bfeaa68e17e28c9b580294d7b212491b42da18d36b38abcf739714aae202483045022100f05ad652bf8cc632ebf4786d7969a7b7333e7ec41bfc451535e4cd0f1eebcefc022057b42fec8b715c9d32ec804260ad4d1fdee2f78a9f41595c6290e82c7a00c19e0121034c01f4bfeaa68e17e28c9b580294d7b212491b42da18d36b38abcf739714aae20247304402203a4eca8b0222c2d5e77e71d8990574c8627d3bd239791e5e2cdf2243208fabc902207c9a573a3782444b48111052970fe01c51fe2c07ed7c7abbf45031439eb39b7a0121034c01f4bfeaa68e17e28c9b580294d7b212491b42da18d36b38abcf739714aae202473044022017df7a326956780d10602d762766d4e7a4b7fed838715926be1e833b56a8807b02205d870f322f0374c3176ea6768747242e94722d386591b658460313783027c44f0121034c01f4bfeaa68e17e28c9b580294d7b212491b42da18d36b38abcf739714aae202483045022100e0b95d03b5b586bc715de37611d403709626c5eb98686d467ebd7eed2540d6d80220104c06c8d8c6dae304d4336005499884a125876a3812d77f36db65afb00d4fcf0121034c01f4bfeaa68e17e28c9b580294d7b212491b42da18d36b38abcf739714aae20247304402201eca66ea8fb195675b47d3d9e96f6a52aa27ec916204957a604661c0dc1bbb080220494bf0dcf45cf0a9b06520ffeb46255682dad5dd5388d7110302ec4866a5dcfa0121034c01f4bfeaa68e17e28c9b580294d7b212491b42da18d36b38abcf739714aae20247304402201246591f41f4d5b4220c18b2c569f2abe721a76b8cad2080891cf2236e36e0b8022019b7153c5ef9a1ac0656a28e6455156987fb8879a72636636bdc1a4769344c570121034c01f4bfeaa68e17e28c9b580294d7b212491b42da18d36b38abcf739714aae202483045022100b7c2b89078d972e9e9aae7ba73464817d5bf08952c9e0499e3e8b71329c698ef02204cf050e4e5c8c407228074d6b6c36a3ec9efd71c6bf548669e9e954910b874550121034c01f4bfeaa68e17e28c9b580294d7b212491b42da18d36b38abcf739714aae20247304402200a547be60312f050a1b7b75dc3515535bbc48fb1e1adba20039a5be3cbc8d2350220608f4e91c760e2b74fef777fae2e673ffd64663863a4578d9a57b384e94cfbbe0121034c01f4bfeaa68e17e28c9b580294d7b212491b42da18d36b38abcf739714aae211490800", "vin": [{"txinwitness": ["30440220259469efb6b2b04efea82578c1d4e6bda53c92d56500204f5cd11e33819ab372022079ad88505f0139a9096f25d507530e4dfd51a630d027ead65b3c72b1991877d201", "034c01f4bfeaa68e17e28c9b580294d7b212491b42da18d36b38abcf739714aae2"], "sequence": 4294967293, "scriptSig": {"hex": "160014483cd2923df28e28a22d318fb49cc1b3ebb29cd0", "asm": "0014483cd2923df28e28a22d318fb49cc1b3ebb29cd0"}, "vout": 11, "txid": "0980bffbf24725a2acb4a0a793a79a7d616b669197372a7eeb56a737337bf9b4"}, {"txinwitness": ["304402204b6564450001efe2e6a4e5644f2ea7d77e0f64655164dc22e335f96cc81a745602207f1cfc8613a7a241841b29bc026e2b16c96894ba81a5d7d9dea26192cfbfd61d01", "034c01f4bfeaa68e17e28c9b580294d7b212491b42da18d36b38abcf739714aae2"], "sequence": 4294967293, "scriptSig": {"hex": "160014483cd2923df28e28a22d318fb49cc1b3ebb29cd0", "asm": "0014483cd2923df28e28a22d318fb49cc1b3ebb29cd0"}, "vout": 7, "txid": "0af614d5b31347e427c518b9ec21a5755ed8e1ff4429116d1e6693823d33ec57"}, {"txinwitness": ["3045022100abec766bd0ee9a723b3dff46a9770bdddf2fca3f8af3453c7a263e28e292003902205cc0eb47e66a287987323962089dd2211c24466526d76673cd31a84a5247a55201", "034c01f4bfeaa68e17e28c9b580294d7b212491b42da18d36b38abcf739714aae2"], "sequence": 4294967293, "scriptSig": {"hex": "160014483cd2923df28e28a22d318fb49cc1b3ebb29cd0", "asm": "0014483cd2923df28e28a22d318fb49cc1b3ebb29cd0"}, "vout": 11, "txid": "1ffa507d5ad46e6d7da18bf02bf9ae3a231331e2c60d27baeffe7d3dfe3c361c"}, {"txinwitness": ["3045022100dd2b8cb5d0353e53e401015ef253af5736bc838bc16b3cb68ac6f2651e083bf2022009d70e0b5c7af1efecc91f194d5b974679e576676f12b5a0a67678c9e9a5b63b01", "034c01f4bfeaa68e17e28c9b580294d7b212491b42da18d36b38abcf739714aae2"], "sequence": 4294967293, "scriptSig": {"hex": "160014483cd2923df28e28a22d318fb49cc1b3ebb29cd0", "asm": "0014483cd2923df28e28a22d318fb49cc1b3ebb29cd0"}, "vout": 16, "txid": "3f32f540901db920ef787bb490a1f38a34d7481f1de958e76d0fdd0d5197b7c7"}, {"txinwitness": ["3045022100a715fe082220b9d85096e1bc7fa147cee38b16f6205c091029c49cdfcc4e35f602207acf6070ffd775ce3e8ab87290e08e1b3804aaea300a7615766e13d68da2afca01", "034c01f4bfeaa68e17e28c9b580294d7b212491b42da18d36b38abcf739714aae2"], "sequence": 4294967293, "scriptSig": {"hex": "160014483cd2923df28e28a22d318fb49cc1b3ebb29cd0", "asm": "0014483cd2923df28e28a22d318fb49cc1b3ebb29cd0"}, "vout": 18, "txid": "4ae13eb70acdc618c6fc254a203add61c380a30120e5e9be1632cef9726a0135"}, {"txinwitness": ["3044022079cc0bc4b207f5d1e8d0e9d097ec17b346760491297c23783924824d1e715d4502204a79b43ac657f7439f7534897306a01d4774d6843adfefebacfc4fa336b207aa01", "034c01f4bfeaa68e17e28c9b580294d7b212491b42da18d36b38abcf739714aae2"], "sequence": 4294967293, "scriptSig": {"hex": "160014483cd2923df28e28a22d318fb49cc1b3ebb29cd0", "asm": "0014483cd2923df28e28a22d318fb49cc1b3ebb29cd0"}, "vout": 9, "txid": "54e0d4d5d1583c814d95f4c5214f10e8a34b8e24153977a0cbf5d9bc1cc6ec70"}, {"txinwitness": ["3045022100e8378ecb68bd35fcfe7ab32c8a91bda6d5c5e796c846a30927c33a3541f141d2022033e42421c73c120aaa8b8c90e92b8249c4bc4c35982ea8c82e50475da07cd6ac01", "034c01f4bfeaa68e17e28c9b580294d7b212491b42da18d36b38abcf739714aae2"], "sequence": 4294967293, "scriptSig": {"hex": "160014483cd2923df28e28a22d318fb49cc1b3ebb29cd0", "asm": "0014483cd2923df28e28a22d318fb49cc1b3ebb29cd0"}, "vout": 2, "txid": "58bef255fcd7a5193a9ddc2df363b2c29dc47bb95dcb15394d0f837a5958d3ae"}, {"txinwitness": ["3045022100f05ad652bf8cc632ebf4786d7969a7b7333e7ec41bfc451535e4cd0f1eebcefc022057b42fec8b715c9d32ec804260ad4d1fdee2f78a9f41595c6290e82c7a00c19e01", "034c01f4bfeaa68e17e28c9b580294d7b212491b42da18d36b38abcf739714aae2"], "sequence": 4294967293, "scriptSig": {"hex": "160014483cd2923df28e28a22d318fb49cc1b3ebb29cd0", "asm": "0014483cd2923df28e28a22d318fb49cc1b3ebb29cd0"}, "vout": 0, "txid": "88e564934d14cd3112cdf9369cc540830a5ab3d68495cdb13d43ab5a783d584b"}, {"txinwitness": ["304402203a4eca8b0222c2d5e77e71d8990574c8627d3bd239791e5e2cdf2243208fabc902207c9a573a3782444b48111052970fe01c51fe2c07ed7c7abbf45031439eb39b7a01", "034c01f4bfeaa68e17e28c9b580294d7b212491b42da18d36b38abcf739714aae2"], "sequence": 4294967293, "scriptSig": {"hex": "160014483cd2923df28e28a22d318fb49cc1b3ebb29cd0", "asm": "0014483cd2923df28e28a22d318fb49cc1b3ebb29cd0"}, "vout": 17, "txid": "8ac802ae2f5fd6e6e3cc8c05351b99f1bc2a87bfdd86ef18ce7d65bf638b8137"}, {"txinwitness": ["3044022017df7a326956780d10602d762766d4e7a4b7fed838715926be1e833b56a8807b02205d870f322f0374c3176ea6768747242e94722d386591b658460313783027c44f01", "034c01f4bfeaa68e17e28c9b580294d7b212491b42da18d36b38abcf739714aae2"], "sequence": 4294967293, "scriptSig": {"hex": "160014483cd2923df28e28a22d318fb49cc1b3ebb29cd0", "asm": "0014483cd2923df28e28a22d318fb49cc1b3ebb29cd0"}, "vout": 10, "txid": "c61120404d6c7a2109222dbe397147613e861787b4c14ea4099633e18e97a78d"}, {"txinwitness": ["3045022100e0b95d03b5b586bc715de37611d403709626c5eb98686d467ebd7eed2540d6d80220104c06c8d8c6dae304d4336005499884a125876a3812d77f36db65afb00d4fcf01", "034c01f4bfeaa68e17e28c9b580294d7b212491b42da18d36b38abcf739714aae2"], "sequence": 4294967293, "scriptSig": {"hex": "160014483cd2923df28e28a22d318fb49cc1b3ebb29cd0", "asm": "0014483cd2923df28e28a22d318fb49cc1b3ebb29cd0"}, "vout": 16, "txid": "cdb8b9071422ffaafc4e3dc9aa0700aa70cdb31d2c64d380cbb74a31c4b98705"}, {"txinwitness": ["304402201eca66ea8fb195675b47d3d9e96f6a52aa27ec916204957a604661c0dc1bbb080220494bf0dcf45cf0a9b06520ffeb46255682dad5dd5388d7110302ec4866a5dcfa01", "034c01f4bfeaa68e17e28c9b580294d7b212491b42da18d36b38abcf739714aae2"], "sequence": 4294967293, "scriptSig": {"hex": "160014483cd2923df28e28a22d318fb49cc1b3ebb29cd0", "asm": "0014483cd2923df28e28a22d318fb49cc1b3ebb29cd0"}, "vout": 18, "txid": "d5301f266ab57d20870d3257ec227a9ae561f4cb78f64a3ce781f7eb76bee7d8"}, {"txinwitness": ["304402201246591f41f4d5b4220c18b2c569f2abe721a76b8cad2080891cf2236e36e0b8022019b7153c5ef9a1ac0656a28e6455156987fb8879a72636636bdc1a4769344c5701", "034c01f4bfeaa68e17e28c9b580294d7b212491b42da18d36b38abcf739714aae2"], "sequence": 4294967293, "scriptSig": {"hex": "160014483cd2923df28e28a22d318fb49cc1b3ebb29cd0", "asm": "0014483cd2923df28e28a22d318fb49cc1b3ebb29cd0"}, "vout": 1, "txid": "d74992a49cf28f2310a3fca401e8b515f64f7a86d0af852f5d2bfc541cbf278b"}, {"txinwitness": ["3045022100b7c2b89078d972e9e9aae7ba73464817d5bf08952c9e0499e3e8b71329c698ef02204cf050e4e5c8c407228074d6b6c36a3ec9efd71c6bf548669e9e954910b8745501", "034c01f4bfeaa68e17e28c9b580294d7b212491b42da18d36b38abcf739714aae2"], "sequence": 4294967293, "scriptSig": {"hex": "160014483cd2923df28e28a22d318fb49cc1b3ebb29cd0", "asm": "0014483cd2923df28e28a22d318fb49cc1b3ebb29cd0"}, "vout": 101, "txid": "ddcd396b2a7e7bbbd10c0bfa52129ac13e826a0d91ea2103b7d127fa0bd0487c"}, {"txinwitness": ["304402200a547be60312f050a1b7b75dc3515535bbc48fb1e1adba20039a5be3cbc8d2350220608f4e91c760e2b74fef777fae2e673ffd64663863a4578d9a57b384e94cfbbe01", "034c01f4bfeaa68e17e28c9b580294d7b212491b42da18d36b38abcf739714aae2"], "sequence": 4294967293, "scriptSig": {"hex": "160014483cd2923df28e28a22d318fb49cc1b3ebb29cd0", "asm": "0014483cd2923df28e28a22d318fb49cc1b3ebb29cd0"}, "vout": 20, "txid": "f67b26eaa2bee4ffc5eea53aed18b1b21b356c321ad192dc4407e83dff215395"}], "txid": "018bf150d2f1e1990e58f8b921626900c98800e31788f410fda9771c4f0fa8af", "blocktime": 1537872018, "version": 1, "confirmations": 11489, "time": 1537872018, "locktime": 542993, "vsize": 1406, "size": 2616}