{"hash": "018c988e3f0e6b415777168ff8e13fceb68a00e5352c9af169f520029e66c9b6", "blockhash": "0000000000000000000baef3f32e3676a92c3b2e5da21b426e4f302fc371ce76", "vout": [{"scriptPubKey": {"reqSigs": 1, "hex": "76a9143c3bc889185b30ffa3d9b7169200eadb68eb684a88ac", "addresses": ["16VVAL6a6PS8JY4xksAa2qMyGmqqUBMWnP"], "asm": "OP_DUP OP_HASH160 3c3bc889185b30ffa3d9b7169200eadb68eb684a OP_EQUALVERIFY OP_CHECKSIG", "type": "pubkeyhash"}, "value": 0.0041, "n": 0}], "hex": "0100000001a23602999d3437a383c522d98df3e679e1e5ff13075227e098b42423ca54bfa3000000006a473044022060ba4236b66164e6876f66388e4768073e7b0417ce519849c2ecffdd841a219902205ff3abcfeeb6c489615c8b5024e29dab6d1bc1288ac4732b4f077b41d840563b01210248698e9b224d4d78a38b5bf6c7bbb702f4908b1abad08ab651b4e8d12a24755affffffff0190410600000000001976a9143c3bc889185b30ffa3d9b7169200eadb68eb684a88ac00000000", "vin": [{"sequence": 4294967295, "scriptSig": {"hex": "473044022060ba4236b66164e6876f66388e4768073e7b0417ce519849c2ecffdd841a219902205ff3abcfeeb6c489615c8b5024e29dab6d1bc1288ac4732b4f077b41d840563b01210248698e9b224d4d78a38b5bf6c7bbb702f4908b1abad08ab651b4e8d12a24755a", "asm": "3044022060ba4236b66164e6876f66388e4768073e7b0417ce519849c2ecffdd841a219902205ff3abcfeeb6c489615c8b5024e29dab6d1bc1288ac4732b4f077b41d840563b[ALL] 0248698e9b224d4d78a38b5bf6c7bbb702f4908b1abad08ab651b4e8d12a24755a"}, "vout": 0, "txid": "a3bf54ca2324b498e027520713ffe5e179e6f38dd922c583a337349d990236a2"}], "txid": "018c988e3f0e6b415777168ff8e13fceb68a00e5352c9af169f520029e66c9b6", "blocktime": 1537876114, "version": 1, "confirmations": 11459, "time": 1537876114, "locktime": 0, "vsize": 191, "size": 191}