{"hash": "018f0938de41af64267cd22bfcc5f25c45f2da75143e0b2b937200ef37d624ea", "blockhash": "0000000000000000000baef3f32e3676a92c3b2e5da21b426e4f302fc371ce76", "vout": [{"scriptPubKey": {"reqSigs": 1, "hex": "76a914a520c86a08366941cd90d22e11ac1c7eefa2db3788ac", "addresses": ["1G47mSr3oANXMafVrR8UC4pzV7FEAzo3r9"], "asm": "OP_DUP OP_HASH160 a520c86a08366941cd90d22e11ac1c7eefa2db37 OP_EQUALVERIFY OP_CHECKSIG", "type": "pubkeyhash"}, "value": 0.43316284, "n": 0}, {"scriptPubKey": {"reqSigs": 1, "hex": "76a914cff862f63b5113f519e25fb182c89a115107c78f88ac", "addresses": ["1KxeRuoJayJNRF7Byax3TaNgcHSQaTnk7G"], "asm": "OP_DUP OP_HASH160 cff862f63b5113f519e25fb182c89a115107c78f OP_EQUALVERIFY OP_CHECKSIG", "type": "pubkeyhash"}, "value": 5.46e-06, "n": 1}, {"scriptPubKey": {"type": "nulldata", "hex": "6a146f6d6e69000000000000001f00000f9b6ba01200", "asm": "OP_RETURN 6f6d6e69000000000000001f00000f9b6ba01200"}, "value": 0.0, "n": 2}], "hex": "0100000001eee9291d08ae3e0e959275699cd919e64fdf690754691d7bc5bfbd7d3c94e4ef000000006b483045022100e8292e8a3cecbacea9613c51426add9aa6c5c8e5c0d1065785246a568cab91da02200bd121be01ee0c9bc97e8b1b9fc6d5e38e48e1bd5332b28106584748e6191bf7012103f3f44c9e80e2cedc1a2909631a3adea8866ee32187f74d0912387359b0ff36a2ffffffff033cf49402000000001976a914a520c86a08366941cd90d22e11ac1c7eefa2db3788ac22020000000000001976a914cff862f63b5113f519e25fb182c89a115107c78f88ac0000000000000000166a146f6d6e69000000000000001f00000f9b6ba0120000000000", "vin": [{"sequence": 4294967295, "scriptSig": {"hex": "483045022100e8292e8a3cecbacea9613c51426add9aa6c5c8e5c0d1065785246a568cab91da02200bd121be01ee0c9bc97e8b1b9fc6d5e38e48e1bd5332b28106584748e6191bf7012103f3f44c9e80e2cedc1a2909631a3adea8866ee32187f74d0912387359b0ff36a2", "asm": "3045022100e8292e8a3cecbacea9613c51426add9aa6c5c8e5c0d1065785246a568cab91da02200bd121be01ee0c9bc97e8b1b9fc6d5e38e48e1bd5332b28106584748e6191bf7[ALL] 03f3f44c9e80e2cedc1a2909631a3adea8866ee32187f74d0912387359b0ff36a2"}, "vout": 0, "txid": "efe4943c7dbdbfc57b1d69540769df4fe619d99c697592950e3eae081d29e9ee"}], "txid": "018f0938de41af64267cd22bfcc5f25c45f2da75143e0b2b937200ef37d624ea", "blocktime": 1537876114, "version": 1, "confirmations": 11460, "time": 1537876114, "locktime": 0, "vsize": 257, "size": 257}