{"hash": "0193b42ae85cc9bd890868cd832d2300320de482286ef0787ad22374b0e192ed", "blockhash": "0000000000000000001e0dab787dd257d1dbfcb92a98c2207d5e1078be1f4165", "vout": [{"scriptPubKey": {"type": "nulldata", "hex": "6a4c50000077ac0001822e42dd8bd1a4fd87de89c8af6c953dd567cf27e7e3ef3236678a625097a1e44d6c54af0dabd960e864e2dc6a695baa10a50612e85f7aeb84a51d100759d4ba30d2c37bb011d97e02cf", "asm": "OP_RETURN 000077ac0001822e42dd8bd1a4fd87de89c8af6c953dd567cf27e7e3ef3236678a625097a1e44d6c54af0dabd960e864e2dc6a695baa10a50612e85f7aeb84a51d100759d4ba30d2c37bb011d97e02cf"}, "value": 0.0, "n": 0}, {"scriptPubKey": {"reqSigs": 1, "hex": "76a9148fb36632191baefc09977276b553237dc1ca7d9688ac", "addresses": ["1E6pYJoA8noj9Y4jvpDq9rQRm2dxVQuqZd"], "asm": "OP_DUP OP_HASH160 8fb36632191baefc09977276b553237dc1ca7d96 OP_EQUALVERIFY OP_CHECKSIG", "type": "pubkeyhash"}, "value": 0.00640756, "n": 1}], "hex": "01000000011c58993faf646b6c3520e60517bd72af7a8dea7da869c48462c991987d9710bc010000006a4730440220250dd632756f0eef8115f41eae2d1f58611a012c235806f72ebb22a0eb6eebdf02205c96e7a9c1c9cb0141d2f9e1c4d716236bbc3e1ad3410e2e88fc1122f18a246501210211b490cc3306fa6c287b2862def046599a366da4dddaac408882789dcd9b0882ffffffff020000000000000000536a4c50000077ac0001822e42dd8bd1a4fd87de89c8af6c953dd567cf27e7e3ef3236678a625097a1e44d6c54af0dabd960e864e2dc6a695baa10a50612e85f7aeb84a51d100759d4ba30d2c37bb011d97e02cff4c60900000000001976a9148fb36632191baefc09977276b553237dc1ca7d9688ac00000000", "vin": [{"sequence": 4294967295, "scriptSig": {"hex": "4730440220250dd632756f0eef8115f41eae2d1f58611a012c235806f72ebb22a0eb6eebdf02205c96e7a9c1c9cb0141d2f9e1c4d716236bbc3e1ad3410e2e88fc1122f18a246501210211b490cc3306fa6c287b2862def046599a366da4dddaac408882789dcd9b0882", "asm": "30440220250dd632756f0eef8115f41eae2d1f58611a012c235806f72ebb22a0eb6eebdf02205c96e7a9c1c9cb0141d2f9e1c4d716236bbc3e1ad3410e2e88fc1122f18a2465[ALL] 0211b490cc3306fa6c287b2862def046599a366da4dddaac408882789dcd9b0882"}, "vout": 1, "txid": "bc10977d9891c96284c469a87dea8d7aaf72bd1705e620356c6b64af3f99581c"}], "txid": "0193b42ae85cc9bd890868cd832d2300320de482286ef0787ad22374b0e192ed", "blocktime": 1537872475, "version": 1, "confirmations": 11486, "time": 1537872475, "locktime": 0, "vsize": 283, "size": 283}