{"hash": "97d1bd0514d504e8a7759353377554c50caabfed2c765c8f105c1589f33bce39", "blockhash": "0000000000000000001cda96e906b7601b7a6fb1a3b62bca570a9e5d8f4b3de1", "vout": [{"scriptPubKey": {"reqSigs": 1, "hex": "0014cc35d8878c3b6b49c004829ca4ae1c6029aed773", "addresses": ["bc1qes6a3puv8d45nsqys2w2ftsuvq56a4mnl4l4mh"], "asm": "0 cc35d8878c3b6b49c004829ca4ae1c6029aed773", "type": "witness_v0_keyhash"}, "value": 0.00281621, "n": 0}, {"scriptPubKey": {"reqSigs": 1, "hex": "76a914ada673f1db85aff86cddaaa51dd099d3b38e609488ac", "addresses": ["1GqBJYBK7JawVuZKdtdfgbjqYsc49Q1zPA"], "asm": "OP_DUP OP_HASH160 ada673f1db85aff86cddaaa51dd099d3b38e6094 OP_EQUALVERIFY OP_CHECKSIG", "type": "pubkeyhash"}, "value": 0.0419412, "n": 1}], "hex": "0100000000010132ad326340a56253de4630518330c700cb290c567936393a1ce4e89cf79b84af0100000017160014ef97ef6aa4c58016545533b8c014c37073c1f54fffffffff02154c040000000000160014cc35d8878c3b6b49c004829ca4ae1c6029aed77348ff3f00000000001976a914ada673f1db85aff86cddaaa51dd099d3b38e609488ac0247304402200ef886ef884c631626517aca2014b40ba9a0fa98a9a39520e1e9a1942e3f43df02207c82ef6d6214745606ad274742a230004c4d7d6fb557ad2b7ff918d0f30d66f7012102837a2d767cc77e13e352421386e08b579d95328ca583d29f2f508f624f0c38a300000000", "vin": [{"txinwitness": ["304402200ef886ef884c631626517aca2014b40ba9a0fa98a9a39520e1e9a1942e3f43df02207c82ef6d6214745606ad274742a230004c4d7d6fb557ad2b7ff918d0f30d66f701", "02837a2d767cc77e13e352421386e08b579d95328ca583d29f2f508f624f0c38a3"], "sequence": 4294967295, "scriptSig": {"hex": "160014ef97ef6aa4c58016545533b8c014c37073c1f54f", "asm": "0014ef97ef6aa4c58016545533b8c014c37073c1f54f"}, "vout": 1, "txid": "af849bf79ce8e41c3a393679560c29cb00c73083513046de5362a5406332ad32"}], "txid": "01936dd44395ce64c856998df9427c1eeac268737747c839efc4cc21c5e2bc0b", "blocktime": 1537873282, "version": 1, "confirmations": 11484, "time": 1537873282, "locktime": 0, "vsize": 167, "size": 248}