{"hash": "0d53284c68ee48c4c1a1919ea71a7242b6d7aaefb8ddc7386c20227b40e4b100", "blockhash": "0000000000000000001cda96e906b7601b7a6fb1a3b62bca570a9e5d8f4b3de1", "vout": [{"scriptPubKey": {"reqSigs": 1, "hex": "a914b4dfcd3e0fe018e21b144d40ede554854e441fc887", "addresses": ["3JBPf6AjfmG2X2Zj4da5uwwuqLS5EJ98CJ"], "asm": "OP_HASH160 b4dfcd3e0fe018e21b144d40ede554854e441fc8 OP_EQUAL", "type": "scripthash"}, "value": 0.01012146, "n": 0}, {"scriptPubKey": {"reqSigs": 1, "hex": "76a914d30624b67eed5a478a6d22e227cc4db257c837a988ac", "addresses": ["1LEnwL1jkAeK5C78HjAvmdxG1bopvszmnM"], "asm": "OP_DUP OP_HASH160 d30624b67eed5a478a6d22e227cc4db257c837a9 OP_EQUALVERIFY OP_CHECKSIG", "type": "pubkeyhash"}, "value": 0.01731684, "n": 1}], "hex": "020000000001050e66e3d0f6d9f442b9ecf9b093e245cdd50fb4efff141b6cd42fd6e4484d1998000000001716001467a738fa2eeff12fedb2939ec82556079e89893dfeffffff55c12c1e4b3699be58171e26c0d10ef1d1293e3c72ee5cf04f9b188d888712fd00000000171600143c59a5abdca398748a28a095742a775229eceaebfeffffff55c12c1e4b3699be58171e26c0d10ef1d1293e3c72ee5cf04f9b188d888712fd0500000017160014b6cb9f57eba8eef5bc860c3021e6eaae13169b1ffeffffffd870c8b71bec73f403a5123ee5a854d60ec1c2595aa53b626bec4b196426e11b020000001716001481c7f38c628a5d8f4c4b6d71c8f871790774ea2bfefffffff6e1288ebd2bb60c49bb64f17d09ac80c41036ac93fd7674b976f4917ca02b8400000000171600147fe878c5ab6071daf3686541de3e554f18ba18ccfeffffff02b2710f000000000017a914b4dfcd3e0fe018e21b144d40ede554854e441fc887646c1a00000000001976a914d30624b67eed5a478a6d22e227cc4db257c837a988ac02483045022100a5c9b78db1d870ae0ed9c96a984634769081e36d71d2f237c258af6c0b70dde4022006591f995964f2c768db1681e9975a94a97e94e347208009051878eb9423b455012102542c8f93d10eba9d0bad7f1345cae1abf4ce4b654361fa32ca76cda8d9b076f302473044022004ea56d43320aca06ed0a8cf258672f0af14deb0447aa8307685e347250bc64702201943630436d4cb3a21f929bcbd178389f597b80da1d0fd78c5545029534fec47012103fb58e91a80a0356cd7c5f5ddb9f44eaedb5e3b14ffc304830e7d8aed215bd16702483045022100afa9467d2a8a40185507d6b73f93646e7a42a5bd3aad61874771701391cf180302206a6eb58c099cb2b7d29670d5f99ed82f26d0547994cddffda1b26225797ab44701210270c3e1dc81c4a167821fef1dc4ecb8083071c8f156bbeb2e920ae94fbe7a5e660247304402200a69b2298d4a57b52602cd0692bd96b2a5ebd9890fbdc1739160eaeb45319df0022036e60096826424618982063e6546ac0e3464319742afc367cfe718b9b689349701210209cfc829514cb7b1ecdc59bf4c71210d0361e32e5ac68f67f94bdbd92606011302483045022100ea64b29354fa47257934e5b3ea30c6590a0e834bc6c030b2290471c8f98496c502207e7cc161b4dd476add76c304bce9b929b2d40d4f24c81e170ff62c1f6ecd6156012103bd13024aa0e069b86a954c6a02e51e169fc4623c8c0aab1282b557a3373fa70ed9480800", "vin": [{"txinwitness": ["3045022100a5c9b78db1d870ae0ed9c96a984634769081e36d71d2f237c258af6c0b70dde4022006591f995964f2c768db1681e9975a94a97e94e347208009051878eb9423b45501", "02542c8f93d10eba9d0bad7f1345cae1abf4ce4b654361fa32ca76cda8d9b076f3"], "sequence": 4294967294, "scriptSig": {"hex": "16001467a738fa2eeff12fedb2939ec82556079e89893d", "asm": "001467a738fa2eeff12fedb2939ec82556079e89893d"}, "vout": 0, "txid": "98194d48e4d62fd46c1b14ffefb40fd5cd45e293b0f9ecb942f4d9f6d0e3660e"}, {"txinwitness": ["3044022004ea56d43320aca06ed0a8cf258672f0af14deb0447aa8307685e347250bc64702201943630436d4cb3a21f929bcbd178389f597b80da1d0fd78c5545029534fec4701", "03fb58e91a80a0356cd7c5f5ddb9f44eaedb5e3b14ffc304830e7d8aed215bd167"], "sequence": 4294967294, "scriptSig": {"hex": "1600143c59a5abdca398748a28a095742a775229eceaeb", "asm": "00143c59a5abdca398748a28a095742a775229eceaeb"}, "vout": 0, "txid": "fd1287888d189b4ff05cee723c3e29d1f10ed1c0261e1758be99364b1e2cc155"}, {"txinwitness": ["3045022100afa9467d2a8a40185507d6b73f93646e7a42a5bd3aad61874771701391cf180302206a6eb58c099cb2b7d29670d5f99ed82f26d0547994cddffda1b26225797ab44701", "0270c3e1dc81c4a167821fef1dc4ecb8083071c8f156bbeb2e920ae94fbe7a5e66"], "sequence": 4294967294, "scriptSig": {"hex": "160014b6cb9f57eba8eef5bc860c3021e6eaae13169b1f", "asm": "0014b6cb9f57eba8eef5bc860c3021e6eaae13169b1f"}, "vout": 5, "txid": "fd1287888d189b4ff05cee723c3e29d1f10ed1c0261e1758be99364b1e2cc155"}, {"txinwitness": ["304402200a69b2298d4a57b52602cd0692bd96b2a5ebd9890fbdc1739160eaeb45319df0022036e60096826424618982063e6546ac0e3464319742afc367cfe718b9b689349701", "0209cfc829514cb7b1ecdc59bf4c71210d0361e32e5ac68f67f94bdbd926060113"], "sequence": 4294967294, "scriptSig": {"hex": "16001481c7f38c628a5d8f4c4b6d71c8f871790774ea2b", "asm": "001481c7f38c628a5d8f4c4b6d71c8f871790774ea2b"}, "vout": 2, "txid": "1be12664194bec6b623ba55a59c2c10ed654a8e53e12a503f473ec1bb7c870d8"}, {"txinwitness": ["3045022100ea64b29354fa47257934e5b3ea30c6590a0e834bc6c030b2290471c8f98496c502207e7cc161b4dd476add76c304bce9b929b2d40d4f24c81e170ff62c1f6ecd615601", "03bd13024aa0e069b86a954c6a02e51e169fc4623c8c0aab1282b557a3373fa70e"], "sequence": 4294967294, "scriptSig": {"hex": "1600147fe878c5ab6071daf3686541de3e554f18ba18cc", "asm": "00147fe878c5ab6071daf3686541de3e554f18ba18cc"}, "vout": 0, "txid": "842ba07c91f476b97476fd93ac3610c480ac097df164bb490cb62bbd8e28e1f6"}], "txid": "019768ff655199919ff469f031993ba25499c7132ae9bc045acf34978679f0e0", "blocktime": 1537873282, "version": 2, "confirmations": 11483, "time": 1537873282, "locktime": 542937, "vsize": 531, "size": 936}