{"hash": "0198ae2f82894392f691cc0fca54ba8d246e3ce173af5065cfa5723509573cf9", "blockhash": "0000000000000000001e0dab787dd257d1dbfcb92a98c2207d5e1078be1f4165", "vout": [{"scriptPubKey": {"type": "nulldata", "hex": "6a4c50000077b90001d6d5c92c0fd00b78d3393bafe5bf9ae76da98a211aaf6c953dd567cf27e73c0877eeca33786294573d0bc4a4cecf5baa11f506127da7d2117837bc9a9526289ac0f6612cd74e33776ee4", "asm": "OP_RETURN 000077b90001d6d5c92c0fd00b78d3393bafe5bf9ae76da98a211aaf6c953dd567cf27e73c0877eeca33786294573d0bc4a4cecf5baa11f506127da7d2117837bc9a9526289ac0f6612cd74e33776ee4"}, "value": 0.0, "n": 0}, {"scriptPubKey": {"reqSigs": 1, "hex": "76a91445d8824eb56a38feaec8534028b1f1d4276b9ce488ac", "addresses": ["17NJzYghXGrCvAnGoLYAbN2fi9RZw9HK59"], "asm": "OP_DUP OP_HASH160 45d8824eb56a38feaec8534028b1f1d4276b9ce4 OP_EQUALVERIFY OP_CHECKSIG", "type": "pubkeyhash"}, "value": 0.0009382, "n": 1}], "hex": "010000000159e229b64565b4a02392f99482b4957ab390e6bbdfb91477830d96d91fd3104b010000006a473044022033be3df9b55fe91e844228acf24784195f192c1abda5919a7863b6050af3072c02201a6f10147c8564d0933a940f540e6ad099125da0867c4f595d5c3b670b17af7c012103b0fff9b402f2e2311ca0b0eb6b550ea9c96628ea046a294a58ce8d8699c9449fffffffff020000000000000000536a4c50000077b90001d6d5c92c0fd00b78d3393bafe5bf9ae76da98a211aaf6c953dd567cf27e73c0877eeca33786294573d0bc4a4cecf5baa11f506127da7d2117837bc9a9526289ac0f6612cd74e33776ee47c6e0100000000001976a91445d8824eb56a38feaec8534028b1f1d4276b9ce488ac00000000", "vin": [{"sequence": 4294967295, "scriptSig": {"hex": "473044022033be3df9b55fe91e844228acf24784195f192c1abda5919a7863b6050af3072c02201a6f10147c8564d0933a940f540e6ad099125da0867c4f595d5c3b670b17af7c012103b0fff9b402f2e2311ca0b0eb6b550ea9c96628ea046a294a58ce8d8699c9449f", "asm": "3044022033be3df9b55fe91e844228acf24784195f192c1abda5919a7863b6050af3072c02201a6f10147c8564d0933a940f540e6ad099125da0867c4f595d5c3b670b17af7c[ALL] 03b0fff9b402f2e2311ca0b0eb6b550ea9c96628ea046a294a58ce8d8699c9449f"}, "vout": 1, "txid": "4b10d31fd9960d837714b9dfbbe690b37a95b48294f99223a0b46545b629e259"}], "txid": "0198ae2f82894392f691cc0fca54ba8d246e3ce173af5065cfa5723509573cf9", "blocktime": 1537872475, "version": 1, "confirmations": 11486, "time": 1537872475, "locktime": 0, "vsize": 283, "size": 283}