{"hash": "01990ac524fe91fe81ff3b40e206d85950b66dcfaa3f7c3123c239024af65242", "blockhash": "0000000000000000000e13cef7c366c0283d82e591d1acd082e914b08063cdf1", "vout": [{"scriptPubKey": {"reqSigs": 1, "hex": "a914c3a06cfed3636c408dce076c57271cf891e7153e87", "addresses": ["3KXPsXau41zVNnTQgtqTu5tNxvHWhWstJm"], "asm": "OP_HASH160 c3a06cfed3636c408dce076c57271cf891e7153e OP_EQUAL", "type": "scripthash"}, "value": 0.00320931, "n": 0}, {"scriptPubKey": {"reqSigs": 1, "hex": "76a9142cacee3785fc03de300e54b6251a49b95457b5c188ac", "addresses": ["155Dts9yEgTapmq8jjzDtdgnu9sAs1KhPA"], "asm": "OP_DUP OP_HASH160 2cacee3785fc03de300e54b6251a49b95457b5c1 OP_EQUALVERIFY OP_CHECKSIG", "type": "pubkeyhash"}, "value": 0.03174471, "n": 1}], "hex": "0100000001b6ec784c7a7832820a43de7f9befef401cabe0e339506c73ebd85ae991cb043b010000006a47304402206175fa958b04e8c17a646de96dc67c83f635b19e9227207d21f131eb03cb1f1f0220194006c7dc7415095415b1d3b6d7fcf4746d83e305f62867bba970d19f0976400121026508f0629b893528b322f0fc545f7b2db278e0160618584be9eb4ac48209505bffffffff02a3e504000000000017a914c3a06cfed3636c408dce076c57271cf891e7153e8747703000000000001976a9142cacee3785fc03de300e54b6251a49b95457b5c188ac00000000", "vin": [{"sequence": 4294967295, "scriptSig": {"hex": "47304402206175fa958b04e8c17a646de96dc67c83f635b19e9227207d21f131eb03cb1f1f0220194006c7dc7415095415b1d3b6d7fcf4746d83e305f62867bba970d19f0976400121026508f0629b893528b322f0fc545f7b2db278e0160618584be9eb4ac48209505b", "asm": "304402206175fa958b04e8c17a646de96dc67c83f635b19e9227207d21f131eb03cb1f1f0220194006c7dc7415095415b1d3b6d7fcf4746d83e305f62867bba970d19f097640[ALL] 026508f0629b893528b322f0fc545f7b2db278e0160618584be9eb4ac48209505b"}, "vout": 1, "txid": "3b04cb91e95ad8eb736c5039e3e0ab1c40efef9b7fde430a8232787a4c78ecb6"}], "txid": "01990ac524fe91fe81ff3b40e206d85950b66dcfaa3f7c3123c239024af65242", "blocktime": 1537871767, "version": 1, "confirmations": 11490, "time": 1537871767, "locktime": 0, "vsize": 223, "size": 223}