{"hash": "fc64d814a5559f4d3ce5b7e07bf3072a83416fa9693d833051b4d0ea183a6f4d", "blockhash": "0000000000000000001f76057863aec43deb6fa401d9628bb513d65a8098bfab", "vout": [{"scriptPubKey": {"reqSigs": 1, "hex": "76a9140a3195c50a139c1268b517078c4818eb7c3cee7288ac", "addresses": ["1vuA9XxA95fff3zonS6wemPTWBvQ16vN9"], "asm": "OP_DUP OP_HASH160 0a3195c50a139c1268b517078c4818eb7c3cee72 OP_EQUALVERIFY OP_CHECKSIG", "type": "pubkeyhash"}, "value": 0.00232872, "n": 0}, {"scriptPubKey": {"reqSigs": 1, "hex": "a9143a3e8a90d08d97f6305cd46551111ba97f704b2d87", "addresses": ["36zz37Yi9wzYjNCQzFf9qy984BhY9fgDTb"], "asm": "OP_HASH160 3a3e8a90d08d97f6305cd46551111ba97f704b2d OP_EQUAL", "type": "scripthash"}, "value": 0.00998962, "n": 1}], "hex": "020000000001035e68d0c7d118935d980806e433f15b3d3191fe156c4547d6c1db8e03743402ff2100000017160014df7d74d2488d02a99a029dab1538cb56c0fbca09feffffff78f20a01b8ef1d73abd1546b6c6f9eebc73fe96f7b44541cbe2ce1be57a4acd6000000001716001403db0071844e4bccd6cca29a6aef1eb6527d08a5feffffff7fc8f0b88114a00628f9422f4771dd2e7b86aea09b55ce9732c1da8afc55050a0500000017160014c4e4dbb62ca134f887232e0cd030986a1bf33508feffffff02a88d0300000000001976a9140a3195c50a139c1268b517078c4818eb7c3cee7288ac323e0f000000000017a9143a3e8a90d08d97f6305cd46551111ba97f704b2d8702483045022100fb0546a977feebf0c41ad900a909916f1d4f5fef059b77cb290bf859527a5b550220638c5e93ed834696912f71684f4fe4e2f6ad8d1f6006c27c608a448e6887d4d2012103bc6797653b7c658f5813a73148bf3df485dde1094a9e6a51ac23dfc329a8d1ef02473044022043cbcd01afcf0740664eba8a0e829dcd5bfd7225a47d5156a33d4b32e5426935022065eb7cdb15663030fb98b3d087fcd243b8d8af3e78a1cdda30f486044b5960340121025078fcd30118ca3771f96eef0cf788ba7b0c254c90bf3cb38204358ec7eafd9b0248304502210092ce748cba92427a507d306c243e7bb49fc5a2b60721e8a378b8787f01cf2de902205ec28a05d60e9993620fd7c81411253e46f66aa92ad2824939851c8f8dc2f9ea012102c09f9f2ce97a38ec9441d0aa78c186d892ec95cf26a8ff567d76380aba9b84b614490800", "vin": [{"txinwitness": ["3045022100fb0546a977feebf0c41ad900a909916f1d4f5fef059b77cb290bf859527a5b550220638c5e93ed834696912f71684f4fe4e2f6ad8d1f6006c27c608a448e6887d4d201", "03bc6797653b7c658f5813a73148bf3df485dde1094a9e6a51ac23dfc329a8d1ef"], "sequence": 4294967294, "scriptSig": {"hex": "160014df7d74d2488d02a99a029dab1538cb56c0fbca09", "asm": "0014df7d74d2488d02a99a029dab1538cb56c0fbca09"}, "vout": 33, "txid": "ff023474038edbc1d647456c15fe91313d5bf133e40608985d9318d1c7d0685e"}, {"txinwitness": ["3044022043cbcd01afcf0740664eba8a0e829dcd5bfd7225a47d5156a33d4b32e5426935022065eb7cdb15663030fb98b3d087fcd243b8d8af3e78a1cdda30f486044b59603401", "025078fcd30118ca3771f96eef0cf788ba7b0c254c90bf3cb38204358ec7eafd9b"], "sequence": 4294967294, "scriptSig": {"hex": "16001403db0071844e4bccd6cca29a6aef1eb6527d08a5", "asm": "001403db0071844e4bccd6cca29a6aef1eb6527d08a5"}, "vout": 0, "txid": "d6aca457bee12cbe1c54447b6fe93fc7eb9e6f6c6b54d1ab731defb8010af278"}, {"txinwitness": ["304502210092ce748cba92427a507d306c243e7bb49fc5a2b60721e8a378b8787f01cf2de902205ec28a05d60e9993620fd7c81411253e46f66aa92ad2824939851c8f8dc2f9ea01", "02c09f9f2ce97a38ec9441d0aa78c186d892ec95cf26a8ff567d76380aba9b84b6"], "sequence": 4294967294, "scriptSig": {"hex": "160014c4e4dbb62ca134f887232e0cd030986a1bf33508", "asm": "0014c4e4dbb62ca134f887232e0cd030986a1bf33508"}, "vout": 5, "txid": "0a0555fc8adac13297ce559ba0ae867b2edd71472f42f92806a01481b8f0c87f"}], "txid": "0199052f25862065472faee629a087f33725f99dd2391446e20b504620a121d8", "blocktime": 1537873891, "version": 2, "confirmations": 11478, "time": 1537873891, "locktime": 542996, "vsize": 350, "size": 593}