{"hash": "ae17cbe4f22c092c86797722b8eec00feb97e8083bc1474f116a18bf26a536b8", "blockhash": "0000000000000000001cda96e906b7601b7a6fb1a3b62bca570a9e5d8f4b3de1", "vout": [{"scriptPubKey": {"reqSigs": 1, "hex": "76a914cbc03af5a1074a6ca07169a6efb5bcf9070e7e9f88ac", "addresses": ["1KaLTLb2kJVHeW6KyHoJdDLQe6AB9EDTC5"], "asm": "OP_DUP OP_HASH160 cbc03af5a1074a6ca07169a6efb5bcf9070e7e9f OP_EQUALVERIFY OP_CHECKSIG", "type": "pubkeyhash"}, "value": 0.33810853, "n": 0}, {"scriptPubKey": {"reqSigs": 1, "hex": "0014f2128188d76a1f92b222eb5bbb414e13122116c6", "addresses": ["bc1q7gfgrzxhdg0e9v3zaddmks2wzvfzz9kxjqv27t"], "asm": "0 f2128188d76a1f92b222eb5bbb414e13122116c6", "type": "witness_v0_keyhash"}, "value": 0.28934009, "n": 1}], "hex": "010000000001016a00344f86fcaf94b1bacc5d88dbdb56ed2df51d331f7606737a147d158400850100000000ffffffff02a5e90302000000001976a914cbc03af5a1074a6ca07169a6efb5bcf9070e7e9f88ac797fb90100000000160014f2128188d76a1f92b222eb5bbb414e13122116c60247304402205d564648fce611470b7b7fad2026f86124432b323b9b37af199594781f41df1802204473782bcf0ba3909053e4f00ec1a6223899495983f2439b16b9ff6302aa81c801210389f0273a30d0880fcc7034d568a149c116578a0c1401d7e0d9f932144dfc7d8800000000", "vin": [{"txinwitness": ["304402205d564648fce611470b7b7fad2026f86124432b323b9b37af199594781f41df1802204473782bcf0ba3909053e4f00ec1a6223899495983f2439b16b9ff6302aa81c801", "0389f0273a30d0880fcc7034d568a149c116578a0c1401d7e0d9f932144dfc7d88"], "sequence": 4294967295, "scriptSig": {"hex": "", "asm": ""}, "vout": 1, "txid": "850084157d147a7306761f331df52ded56dbdb885dccbab194affc864f34006a"}], "txid": "019c164d5697a26d0e8eb790c6d17601485d3f24b39d03047397a7878a76c01e", "blocktime": 1537873282, "version": 1, "confirmations": 11484, "time": 1537873282, "locktime": 0, "vsize": 144, "size": 225}