{"hash": "01a3e87d2124307e5b2a187e0b6655d695be50ef60eae11f7106ea73d8a5da83", "blockhash": "0000000000000000001e0dab787dd257d1dbfcb92a98c2207d5e1078be1f4165", "vout": [{"scriptPubKey": {"reqSigs": 1, "hex": "76a91461159011e3aa3323119094d98e89b2b9c2b183fc88ac", "addresses": ["19rLNpHcJ1TcoogRGmjBxU457UC85yz2VJ"], "asm": "OP_DUP OP_HASH160 61159011e3aa3323119094d98e89b2b9c2b183fc OP_EQUALVERIFY OP_CHECKSIG", "type": "pubkeyhash"}, "value": 0.003132, "n": 0}, {"scriptPubKey": {"reqSigs": 1, "hex": "76a914ff50e335800baae093599a36265524066b95f0e788ac", "addresses": ["1QGzD5iEipkH2wCGaKySpYNDVHbUC5qahQ"], "asm": "OP_DUP OP_HASH160 ff50e335800baae093599a36265524066b95f0e7 OP_EQUALVERIFY OP_CHECKSIG", "type": "pubkeyhash"}, "value": 0.00802437, "n": 1}], "hex": "010000000135a2447e449496348e599b40ddd2d9c8e64606a79842d2426b527040d2868442000000006b483045022100da5152edc522fccbf7dde913a51b458c2e6acdd3c2b2ef55b594ed1b2753c10402207f1e0e8894770800ea8bb7e505c11494d0d41b72ea226b113dbbdb6ac9d8d33c0121025cc527e5190f70d0a71cb23b02ba1f3ee575b11815e13758ca309c9a40e730b8ffffffff0270c70400000000001976a91461159011e3aa3323119094d98e89b2b9c2b183fc88ac853e0c00000000001976a914ff50e335800baae093599a36265524066b95f0e788ac00000000", "vin": [{"sequence": 4294967295, "scriptSig": {"hex": "483045022100da5152edc522fccbf7dde913a51b458c2e6acdd3c2b2ef55b594ed1b2753c10402207f1e0e8894770800ea8bb7e505c11494d0d41b72ea226b113dbbdb6ac9d8d33c0121025cc527e5190f70d0a71cb23b02ba1f3ee575b11815e13758ca309c9a40e730b8", "asm": "3045022100da5152edc522fccbf7dde913a51b458c2e6acdd3c2b2ef55b594ed1b2753c10402207f1e0e8894770800ea8bb7e505c11494d0d41b72ea226b113dbbdb6ac9d8d33c[ALL] 025cc527e5190f70d0a71cb23b02ba1f3ee575b11815e13758ca309c9a40e730b8"}, "vout": 0, "txid": "428486d24070526b42d24298a70646e6c8d9d2dd409b598e349694447e44a235"}], "txid": "01a3e87d2124307e5b2a187e0b6655d695be50ef60eae11f7106ea73d8a5da83", "blocktime": 1537872475, "version": 1, "confirmations": 11487, "time": 1537872475, "locktime": 0, "vsize": 226, "size": 226}