{"hash": "01adb27b67964a0f49d9c23a3b0bf361ab4cc2e2f64448a0e3d4ca32248a195a", "blockhash": "0000000000000000001e0dab787dd257d1dbfcb92a98c2207d5e1078be1f4165", "vout": [{"scriptPubKey": {"reqSigs": 1, "hex": "76a914875d19058e9ef65bf23ed1c3e18573c38c58e17d88ac", "addresses": ["1DLjkScPohzEMbJGboRDmatxJXgyf5Te3K"], "asm": "OP_DUP OP_HASH160 875d19058e9ef65bf23ed1c3e18573c38c58e17d OP_EQUALVERIFY OP_CHECKSIG", "type": "pubkeyhash"}, "value": 1.0, "n": 0}, {"scriptPubKey": {"reqSigs": 1, "hex": "76a9145ebbfef56fe13c2f1635c3f68e3bb2ab8bbc61dc88ac", "addresses": ["19dujDfsE7cv5YGPBA8m12AizJerHGtW3k"], "asm": "OP_DUP OP_HASH160 5ebbfef56fe13c2f1635c3f68e3bb2ab8bbc61dc OP_EQUALVERIFY OP_CHECKSIG", "type": "pubkeyhash"}, "value": 0.10726, "n": 1}], "hex": "0100000001eed5641a37414d069fd1b9f4158116ebfafac705e83f11b609c377dd519818f1000000006b483045022100e262386fa564a1b036aa03ddd2e3116650a91e9d5c1f2b37e0a1d43d9a6c965c0220240f0bc0f52ca82561c35e316c6418ad2363cd02b8b6cef066d7de980c6a23d501210297e6ec6a82fd23a9590c8ce4511cf0ab0e7ef5bcb542513af337414525bf6430ffffffff0200e1f505000000001976a914875d19058e9ef65bf23ed1c3e18573c38c58e17d88ac70aaa300000000001976a9145ebbfef56fe13c2f1635c3f68e3bb2ab8bbc61dc88ac00000000", "vin": [{"sequence": 4294967295, "scriptSig": {"hex": "483045022100e262386fa564a1b036aa03ddd2e3116650a91e9d5c1f2b37e0a1d43d9a6c965c0220240f0bc0f52ca82561c35e316c6418ad2363cd02b8b6cef066d7de980c6a23d501210297e6ec6a82fd23a9590c8ce4511cf0ab0e7ef5bcb542513af337414525bf6430", "asm": "3045022100e262386fa564a1b036aa03ddd2e3116650a91e9d5c1f2b37e0a1d43d9a6c965c0220240f0bc0f52ca82561c35e316c6418ad2363cd02b8b6cef066d7de980c6a23d5[ALL] 0297e6ec6a82fd23a9590c8ce4511cf0ab0e7ef5bcb542513af337414525bf6430"}, "vout": 0, "txid": "f1189851dd77c309b6113fe805c7fafaeb168115f4b9d19f064d41371a64d5ee"}], "txid": "01adb27b67964a0f49d9c23a3b0bf361ab4cc2e2f64448a0e3d4ca32248a195a", "blocktime": 1537872475, "version": 1, "confirmations": 11486, "time": 1537872475, "locktime": 0, "vsize": 226, "size": 226}