{"hash": "01b4a257b146ddbbb3d56749f1e8a175a741097e89e88b04b4188aa24ae0e31e", "blockhash": "0000000000000000001cda96e906b7601b7a6fb1a3b62bca570a9e5d8f4b3de1", "vout": [{"scriptPubKey": {"reqSigs": 1, "hex": "76a914b7c6330a13ce6d65d575489d1800b75e79434f6688ac", "addresses": ["1Hki6ErJVTXfkJAhamGr1PJjgfMgbzGowG"], "asm": "OP_DUP OP_HASH160 b7c6330a13ce6d65d575489d1800b75e79434f66 OP_EQUALVERIFY OP_CHECKSIG", "type": "pubkeyhash"}, "value": 0.000703, "n": 0}, {"scriptPubKey": {"reqSigs": 1, "hex": "76a914beb73281434a366e79067ac58e0011cb2a30ab0688ac", "addresses": ["1JPQrDfJwA8M7Dv9Q1EZFnNEPRanBNVgwk"], "asm": "OP_DUP OP_HASH160 beb73281434a366e79067ac58e0011cb2a30ab06 OP_EQUALVERIFY OP_CHECKSIG", "type": "pubkeyhash"}, "value": 0.00181412, "n": 1}], "hex": "01000000012261b35ee7f123805dec4bc3c432c0d8b8e598400204138dd86a7de3fa8474cd000000006b4830450221008bdbb73e3d006b499da68874606d83866f7e7c5f126baac17cf1cde0a65f781e02205f6df149f9fcd9778788fb893273530b7e0b2f966e5661c71869ae33421eb83d0121031ae1e13cf19db3f078afee6f492932fe0961bd9e7929a9f92a67117d1968a5ccffffffff029c120100000000001976a914b7c6330a13ce6d65d575489d1800b75e79434f6688aca4c40200000000001976a914beb73281434a366e79067ac58e0011cb2a30ab0688ac00000000", "vin": [{"sequence": 4294967295, "scriptSig": {"hex": "4830450221008bdbb73e3d006b499da68874606d83866f7e7c5f126baac17cf1cde0a65f781e02205f6df149f9fcd9778788fb893273530b7e0b2f966e5661c71869ae33421eb83d0121031ae1e13cf19db3f078afee6f492932fe0961bd9e7929a9f92a67117d1968a5cc", "asm": "30450221008bdbb73e3d006b499da68874606d83866f7e7c5f126baac17cf1cde0a65f781e02205f6df149f9fcd9778788fb893273530b7e0b2f966e5661c71869ae33421eb83d[ALL] 031ae1e13cf19db3f078afee6f492932fe0961bd9e7929a9f92a67117d1968a5cc"}, "vout": 0, "txid": "cd7484fae37d6ad88d1304024098e5b8d8c032c4c34bec5d8023f1e75eb36122"}], "txid": "01b4a257b146ddbbb3d56749f1e8a175a741097e89e88b04b4188aa24ae0e31e", "blocktime": 1537873282, "version": 1, "confirmations": 11485, "time": 1537873282, "locktime": 0, "vsize": 226, "size": 226}