{"hash": "01b64add7a29546d0fab718c1d259f3e2cc1686d482d4c81df08d2a565bbdead", "blockhash": "0000000000000000001cda96e906b7601b7a6fb1a3b62bca570a9e5d8f4b3de1", "vout": [{"scriptPubKey": {"type": "nulldata", "hex": "6a4c50000077cd000130b58af5fc51d560943542cb5b23cc0f42c2fc38c5e5bf9ae76da98a211a88eef46fccee0464d8a3cff692f70d9a5baa14080613678e8ca912651d100759d4ba30d2c37bb011d97e02cf", "asm": "OP_RETURN 000077cd000130b58af5fc51d560943542cb5b23cc0f42c2fc38c5e5bf9ae76da98a211a88eef46fccee0464d8a3cff692f70d9a5baa14080613678e8ca912651d100759d4ba30d2c37bb011d97e02cf"}, "value": 0.0, "n": 0}, {"scriptPubKey": {"reqSigs": 1, "hex": "76a914fe452671c70f1bb3b56d2876eab5fee191d703c288ac", "addresses": ["1QBTUN4sYrgjkn5EKRdLGiCmpr7jrpxSgt"], "asm": "OP_DUP OP_HASH160 fe452671c70f1bb3b56d2876eab5fee191d703c2 OP_EQUALVERIFY OP_CHECKSIG", "type": "pubkeyhash"}, "value": 0.0064181, "n": 1}], "hex": "01000000012571c31f9594ef90a178356b957b8b3d7be1cfc9df9de5b00a0d86805984e9c9000000006b483045022100b8a913d770dac66e9549001a88664549b45349c19b1c9e8f34ff197c3a0d8ae002201e9acfbe2ecded5e65f22f20c8080569c042ed4038c545548965747fd5431324012102246adc30042588a36b071f909b5b822629288abab3b4a63332551e05de6282d2ffffffff020000000000000000536a4c50000077cd000130b58af5fc51d560943542cb5b23cc0f42c2fc38c5e5bf9ae76da98a211a88eef46fccee0464d8a3cff692f70d9a5baa14080613678e8ca912651d100759d4ba30d2c37bb011d97e02cf12cb0900000000001976a914fe452671c70f1bb3b56d2876eab5fee191d703c288ac00000000", "vin": [{"sequence": 4294967295, "scriptSig": {"hex": "483045022100b8a913d770dac66e9549001a88664549b45349c19b1c9e8f34ff197c3a0d8ae002201e9acfbe2ecded5e65f22f20c8080569c042ed4038c545548965747fd5431324012102246adc30042588a36b071f909b5b822629288abab3b4a63332551e05de6282d2", "asm": "3045022100b8a913d770dac66e9549001a88664549b45349c19b1c9e8f34ff197c3a0d8ae002201e9acfbe2ecded5e65f22f20c8080569c042ed4038c545548965747fd5431324[ALL] 02246adc30042588a36b071f909b5b822629288abab3b4a63332551e05de6282d2"}, "vout": 0, "txid": "c9e9845980860d0ab0e59ddfc9cfe17b3d8b7b956b3578a190ef94951fc37125"}], "txid": "01b64add7a29546d0fab718c1d259f3e2cc1686d482d4c81df08d2a565bbdead", "blocktime": 1537873282, "version": 1, "confirmations": 11484, "time": 1537873282, "locktime": 0, "vsize": 284, "size": 284}