{"hash": "01ba447a74d905c7f30c39b8fd28cb84a90ed256e08caf3f64f7dc3915444513", "blockhash": "0000000000000000001e0dab787dd257d1dbfcb92a98c2207d5e1078be1f4165", "vout": [{"scriptPubKey": {"type": "nulldata", "hex": "6a4c50000077ae0001adaf350a813e09068a8e8f00af6c953dd567cf27e7e3ef3236678a6250975d38637e5e7ea8a59895ad68641c2c5b5baa10f20611f279415e8296bc9a9526289ac0f6612cd74e33776ee4", "asm": "OP_RETURN 000077ae0001adaf350a813e09068a8e8f00af6c953dd567cf27e7e3ef3236678a6250975d38637e5e7ea8a59895ad68641c2c5b5baa10f20611f279415e8296bc9a9526289ac0f6612cd74e33776ee4"}, "value": 0.0, "n": 0}, {"scriptPubKey": {"reqSigs": 1, "hex": "76a91430844c23779a8392974ff0d46c667b0eac18665388ac", "addresses": ["15RXvPpgxnytEkfX5bbdpUnHr4LNWpRNnt"], "asm": "OP_DUP OP_HASH160 30844c23779a8392974ff0d46c667b0eac186653 OP_EQUALVERIFY OP_CHECKSIG", "type": "pubkeyhash"}, "value": 0.01404304, "n": 1}], "hex": "010000000145131be5d080b61766f41bbe4e60f31ed1d9d1d0609d347e6d6ac5e2aebedb43010000006a47304402202d690cc858d64407ae466698c36431e7815ecc58242d154dca217610875c9f4c022059e1d5b398d67145a8aa475758b1c4b9ec782f9e5c07efee236cfdc1df449c19012102747f9b6a98673bf7d63a93c99d595a4aa4aa23cdcb734d832156ee1cc3815e23ffffffff020000000000000000536a4c50000077ae0001adaf350a813e09068a8e8f00af6c953dd567cf27e7e3ef3236678a6250975d38637e5e7ea8a59895ad68641c2c5b5baa10f20611f279415e8296bc9a9526289ac0f6612cd74e33776ee4906d1500000000001976a91430844c23779a8392974ff0d46c667b0eac18665388ac00000000", "vin": [{"sequence": 4294967295, "scriptSig": {"hex": "47304402202d690cc858d64407ae466698c36431e7815ecc58242d154dca217610875c9f4c022059e1d5b398d67145a8aa475758b1c4b9ec782f9e5c07efee236cfdc1df449c19012102747f9b6a98673bf7d63a93c99d595a4aa4aa23cdcb734d832156ee1cc3815e23", "asm": "304402202d690cc858d64407ae466698c36431e7815ecc58242d154dca217610875c9f4c022059e1d5b398d67145a8aa475758b1c4b9ec782f9e5c07efee236cfdc1df449c19[ALL] 02747f9b6a98673bf7d63a93c99d595a4aa4aa23cdcb734d832156ee1cc3815e23"}, "vout": 1, "txid": "43dbbeaee2c56a6d7e349d60d0d1d9d11ef3604ebe1bf46617b680d0e51b1345"}], "txid": "01ba447a74d905c7f30c39b8fd28cb84a90ed256e08caf3f64f7dc3915444513", "blocktime": 1537872475, "version": 1, "confirmations": 11486, "time": 1537872475, "locktime": 0, "vsize": 283, "size": 283}