{"hash": "3d75dbe9bba1f4ee6a17f18f4cee727a8615675df0dfabd17f5624132b4ee93d", "blockhash": "0000000000000000001f0ddff1eddb255c1121bcd4da4f1bc9a0da00cae72433", "vout": [{"scriptPubKey": {"reqSigs": 1, "hex": "a9140cc4dc70c84adb4827cf743de0554f78f4cb259187", "addresses": ["32rXrzdcGgNsEN3PR9KoTRCwSVXfPwNiwP"], "asm": "OP_HASH160 0cc4dc70c84adb4827cf743de0554f78f4cb2591 OP_EQUAL", "type": "scripthash"}, "value": 1.15667924, "n": 0}, {"scriptPubKey": {"reqSigs": 1, "hex": "a91479ebd312aa1108a3bd575671a46cd67041009ca187", "addresses": ["3CogC8SCHQJRmKqULXYjVAZ9nZ2ubGN3fD"], "asm": "OP_HASH160 79ebd312aa1108a3bd575671a46cd67041009ca1 OP_EQUAL", "type": "scripthash"}, "value": 0.02054899, "n": 1}], "hex": "020000000001014273794a26d49b447d4d989952a27f7a38ec29ce2d34513a6b6ffbb36afda318000000001716001477fb3f1826f79b3228780b4d5f6d9b67a5909765feffffff02d4f3e4060000000017a9140cc4dc70c84adb4827cf743de0554f78f4cb259187f35a1f000000000017a91479ebd312aa1108a3bd575671a46cd67041009ca1870247304402203d2972a4df3b090a05cf772e862c4965f7ec7ccbf480badf6408bcce18e576710220573d98ed375522a3f4351631d405f6558524e2841b0770a56d3b6ac6283ba3a3012102beb73af1db17e383caef4b1e80db7dedfaf93c602ec93321ef780788fdc22b6011490800", "vin": [{"txinwitness": ["304402203d2972a4df3b090a05cf772e862c4965f7ec7ccbf480badf6408bcce18e576710220573d98ed375522a3f4351631d405f6558524e2841b0770a56d3b6ac6283ba3a301", "02beb73af1db17e383caef4b1e80db7dedfaf93c602ec93321ef780788fdc22b60"], "sequence": 4294967294, "scriptSig": {"hex": "16001477fb3f1826f79b3228780b4d5f6d9b67a5909765", "asm": "001477fb3f1826f79b3228780b4d5f6d9b67a5909765"}, "vout": 0, "txid": "18a3fd6ab3fb6f6b3a51342dce29ec387a7fa25299984d7d449bd4264a797342"}], "txid": "01c300af79b07079726b53e2518bf6130294c8771abf2d96fa3add140cc46cae", "blocktime": 1537872018, "version": 2, "confirmations": 11489, "time": 1537872018, "locktime": 542993, "vsize": 166, "size": 247}