{"hash": "01c78369d9f064855ef6967e800a943e71722ffc10d659dfb907ae3c248ef046", "blockhash": "00000000000000000024a2167bbff67b0be802c0b01cdd79e6331c2be6459f87", "vout": [{"scriptPubKey": {"reqSigs": 1, "hex": "76a914e2c275819269491b15de50b2d5f960b513c15a8488ac", "addresses": ["1Mfzfbwd2ECAHm2G7zT93ZnSDChdBMzWPx"], "asm": "OP_DUP OP_HASH160 e2c275819269491b15de50b2d5f960b513c15a84 OP_EQUALVERIFY OP_CHECKSIG", "type": "pubkeyhash"}, "value": 3.146e-05, "n": 0}, {"scriptPubKey": {"reqSigs": 1, "hex": "76a914d2ef9d71b935cefdfeac5a493813f20ac7985e0e88ac", "addresses": ["1LEKx2bspnFtTxkNQ6vANew6cJKZ5kPTei"], "asm": "OP_DUP OP_HASH160 d2ef9d71b935cefdfeac5a493813f20ac7985e0e OP_EQUALVERIFY OP_CHECKSIG", "type": "pubkeyhash"}, "value": 0.00419353, "n": 1}, {"scriptPubKey": {"reqSigs": 1, "hex": "76a91472170b2bd91879e31ebdf8da52a9f4b459d700d588ac", "addresses": ["1BQFdyBgYq1jYRBxQQT4TRrKbqvt53GoPx"], "asm": "OP_DUP OP_HASH160 72170b2bd91879e31ebdf8da52a9f4b459d700d5 OP_EQUALVERIFY OP_CHECKSIG", "type": "pubkeyhash"}, "value": 9.158e-05, "n": 2}], "hex": "0100000002fc0f368c23a5835d9f7ba7559fa3d6645e881c12874eb367bdbb7bd4bbc85a99010000006a4730440220316a311fb0f529826c97e780048985315b14f31ba05becad4b05cb08de8519a802206ce10b90021dcd819be0bcabf8e7a1776352328f1a1f1283115291de47e743d00121032e033337234e113517f1aecf43e394004b4c6474cd36a0fbc02bd91e80e37072ffffffffaf80de7f66bb3d6afd924d2ad30056b64b7e0d51df7beb83244a2b86e7288d11010000006b483045022100c7f7d319c4673f22ace4cb096c2685d2b92da928dbebc18cadc3a7727a9900f5022036be4eb9f6f69abacf41dca70753dc266c2091cc28e1cb44ed4926c130df435101210292dbd91c39efdcc599144fe21989461ea324eacdcac27ecb48898cd99b325ae0ffffffff034a0c0000000000001976a914e2c275819269491b15de50b2d5f960b513c15a8488ac19660600000000001976a914d2ef9d71b935cefdfeac5a493813f20ac7985e0e88acc6230000000000001976a91472170b2bd91879e31ebdf8da52a9f4b459d700d588ac00000000", "vin": [{"sequence": 4294967295, "scriptSig": {"hex": "4730440220316a311fb0f529826c97e780048985315b14f31ba05becad4b05cb08de8519a802206ce10b90021dcd819be0bcabf8e7a1776352328f1a1f1283115291de47e743d00121032e033337234e113517f1aecf43e394004b4c6474cd36a0fbc02bd91e80e37072", "asm": "30440220316a311fb0f529826c97e780048985315b14f31ba05becad4b05cb08de8519a802206ce10b90021dcd819be0bcabf8e7a1776352328f1a1f1283115291de47e743d0[ALL] 032e033337234e113517f1aecf43e394004b4c6474cd36a0fbc02bd91e80e37072"}, "vout": 1, "txid": "995ac8bbd47bbbbd67b34e87121c885e64d6a39f55a77b9f5d83a5238c360ffc"}, {"sequence": 4294967295, "scriptSig": {"hex": "483045022100c7f7d319c4673f22ace4cb096c2685d2b92da928dbebc18cadc3a7727a9900f5022036be4eb9f6f69abacf41dca70753dc266c2091cc28e1cb44ed4926c130df435101210292dbd91c39efdcc599144fe21989461ea324eacdcac27ecb48898cd99b325ae0", "asm": "3045022100c7f7d319c4673f22ace4cb096c2685d2b92da928dbebc18cadc3a7727a9900f5022036be4eb9f6f69abacf41dca70753dc266c2091cc28e1cb44ed4926c130df4351[ALL] 0292dbd91c39efdcc599144fe21989461ea324eacdcac27ecb48898cd99b325ae0"}, "vout": 1, "txid": "118d28e7862b4a2483eb7bdf510d7e4bb65600d32a4d92fd6a3dbb667fde80af"}], "txid": "01c78369d9f064855ef6967e800a943e71722ffc10d659dfb907ae3c248ef046", "blocktime": 1537870564, "version": 1, "confirmations": 11515, "time": 1537870564, "locktime": 0, "vsize": 407, "size": 407}