{"hash": "01ccd7c9afb0c9871cfa25374b58b41c402c2b7c4f911e2b697c5616e2a96d5c", "blockhash": "0000000000000000001e0dab787dd257d1dbfcb92a98c2207d5e1078be1f4165", "vout": [{"scriptPubKey": {"reqSigs": 1, "hex": "76a914a8b4ff07b511a8734d324550e56955fb5e90d5b188ac", "addresses": ["1GP3M4koTCCKqVY5cUJ438QYpMKSKqSw3z"], "asm": "OP_DUP OP_HASH160 a8b4ff07b511a8734d324550e56955fb5e90d5b1 OP_EQUALVERIFY OP_CHECKSIG", "type": "pubkeyhash"}, "value": 0.00778806, "n": 0}, {"scriptPubKey": {"reqSigs": 1, "hex": "76a914b743d7df2b8e436e63f9eeb57a17a4984a1d13b888ac", "addresses": ["1Hi1vwKZBvJXhkS4hvsRyq5ha7x8dVdpZC"], "asm": "OP_DUP OP_HASH160 b743d7df2b8e436e63f9eeb57a17a4984a1d13b8 OP_EQUALVERIFY OP_CHECKSIG", "type": "pubkeyhash"}, "value": 0.01107872, "n": 1}], "hex": "010000000168994ece9d823b3e4bd43029f002d5c011b8ae03f72112c3d5e68cc5574228110100000069463043021f6f1a89a40e43a91d0ff72addac64bfc2c90be1c89863038ca5699c7ac374ee022002dd8400f1c821110e3281a713765904051efa1b45f739483feec9516b172b4301210260e97b251ad8755ac42a206632912937cf6cb57c26a70a0901a0f3c9cb594091ffffffff0236e20b00000000001976a914a8b4ff07b511a8734d324550e56955fb5e90d5b188aca0e71000000000001976a914b743d7df2b8e436e63f9eeb57a17a4984a1d13b888ac00000000", "vin": [{"sequence": 4294967295, "scriptSig": {"hex": "463043021f6f1a89a40e43a91d0ff72addac64bfc2c90be1c89863038ca5699c7ac374ee022002dd8400f1c821110e3281a713765904051efa1b45f739483feec9516b172b4301210260e97b251ad8755ac42a206632912937cf6cb57c26a70a0901a0f3c9cb594091", "asm": "3043021f6f1a89a40e43a91d0ff72addac64bfc2c90be1c89863038ca5699c7ac374ee022002dd8400f1c821110e3281a713765904051efa1b45f739483feec9516b172b43[ALL] 0260e97b251ad8755ac42a206632912937cf6cb57c26a70a0901a0f3c9cb594091"}, "vout": 1, "txid": "11284257c58ce6d5c31221f703aeb811c0d502f02930d44b3e3b829dce4e9968"}], "txid": "01ccd7c9afb0c9871cfa25374b58b41c402c2b7c4f911e2b697c5616e2a96d5c", "blocktime": 1537872475, "version": 1, "confirmations": 11486, "time": 1537872475, "locktime": 0, "vsize": 224, "size": 224}