{"hash": "01d2c71ee0d53ccfe94610633ef5e155425f47661e64a9e6c1365ccbac21978a", "blockhash": "00000000000000000024a2167bbff67b0be802c0b01cdd79e6331c2be6459f87", "vout": [{"scriptPubKey": {"reqSigs": 1, "hex": "76a9144801e1736c55dc4dea3aa776c84cb739ab17c1eb88ac", "addresses": ["17ZjuV1L92v8zM3HUxG8KwrTNSEuNS1kpf"], "asm": "OP_DUP OP_HASH160 4801e1736c55dc4dea3aa776c84cb739ab17c1eb OP_EQUALVERIFY OP_CHECKSIG", "type": "pubkeyhash"}, "value": 0.01100896, "n": 0}, {"scriptPubKey": {"reqSigs": 1, "hex": "76a9146e0bb8539051f581cb94ded96ecaa7403e83b58d88ac", "addresses": ["1B2sNRXrX2agFnQr7sXoAt67dDJmqP1hjG"], "asm": "OP_DUP OP_HASH160 6e0bb8539051f581cb94ded96ecaa7403e83b58d OP_EQUALVERIFY OP_CHECKSIG", "type": "pubkeyhash"}, "value": 0.34730138, "n": 1}], "hex": "0100000001763588269ce504c58b91a45164ca4bc9fef6214d83b11012d8b25778069b855b000000006b4830450221009c8aa9bff152dcda6a23a29b95f3d80efb6b3183aee817e453749337012a16be02202839ff26b3e5b3b29ea9a1867ee3401a86041c8b8625bb9404110f6c234b36f601210381daadd16695d81f5a9168f8b23f7e39871f8cd3c8300e93393f9822f0df8f66ffffffff0260cc1000000000001976a9144801e1736c55dc4dea3aa776c84cb739ab17c1eb88ac9af01102000000001976a9146e0bb8539051f581cb94ded96ecaa7403e83b58d88ac00000000", "vin": [{"sequence": 4294967295, "scriptSig": {"hex": "4830450221009c8aa9bff152dcda6a23a29b95f3d80efb6b3183aee817e453749337012a16be02202839ff26b3e5b3b29ea9a1867ee3401a86041c8b8625bb9404110f6c234b36f601210381daadd16695d81f5a9168f8b23f7e39871f8cd3c8300e93393f9822f0df8f66", "asm": "30450221009c8aa9bff152dcda6a23a29b95f3d80efb6b3183aee817e453749337012a16be02202839ff26b3e5b3b29ea9a1867ee3401a86041c8b8625bb9404110f6c234b36f6[ALL] 0381daadd16695d81f5a9168f8b23f7e39871f8cd3c8300e93393f9822f0df8f66"}, "vout": 0, "txid": "5b859b067857b2d81210b1834d21f6fec94bca6451a4918bc504e59c26883576"}], "txid": "01d2c71ee0d53ccfe94610633ef5e155425f47661e64a9e6c1365ccbac21978a", "blocktime": 1537870564, "version": 1, "confirmations": 11515, "time": 1537870564, "locktime": 0, "vsize": 226, "size": 226}