{"hash": "87d96bfbb67df31d39b00fd0e356bb8655b667622944f44321c9e55f27c4e43a", "blockhash": "0000000000000000000dcc0f55137456b1a82d3642486a52398922ac4d620174", "vout": [{"scriptPubKey": {"reqSigs": 1, "hex": "76a914d61c05fd0d22f351b5144fea602b32a929019e5d88ac", "addresses": ["1LX7B9mVNWBK5xF2CXFKXw83YVZzxbbmRg"], "asm": "OP_DUP OP_HASH160 d61c05fd0d22f351b5144fea602b32a929019e5d OP_EQUALVERIFY OP_CHECKSIG", "type": "pubkeyhash"}, "value": 0.007, "n": 0}, {"scriptPubKey": {"reqSigs": 1, "hex": "a914627aa52932456d89054bd84f86246af3b71b93a887", "addresses": ["3Afj4stdiLG9EktGrMbm252ySonnhYaz8v"], "asm": "OP_HASH160 627aa52932456d89054bd84f86246af3b71b93a8 OP_EQUAL", "type": "scripthash"}, "value": 0.59170008, "n": 1}], "hex": "010000000001018f44ab71cf2075a1441f99edda6b8ab4e4597ec42dcf75c67233166d6c78511501000000232200205fdd641234b13964b223bd85ad2a4a667ca2099df3d42a1d3b45706a8d81abf0ffffffff0260ae0a00000000001976a914d61c05fd0d22f351b5144fea602b32a929019e5d88acd8dc86030000000017a914627aa52932456d89054bd84f86246af3b71b93a887040047304402200eb61d5f83cf1316acd803ae47be78d5a84ac43ca272bb9806e8ec64763b7561022021aa81a3f11fd5523bc7daaf56d3c630b839e9ac5266c289c008c819e217676b01483045022100c632a80c7057329c2a9c2a172d8deb6c704e0f3e72d6851b5bc668f5088cd7270220597bd00a50e605a30002d666f6b87c4dbe38c031a71f1aeff26a2a14bd5e79760147522103dcde3832fa56def7b4e783faad1b8af85c3cdd74a5ff4f3c7c216b1075c18da12103c70ae8ded79be1afda73b9ce5ea14a3878908ee160d66a9a717e792bb6db276952ae00000000", "vin": [{"txinwitness": ["", "304402200eb61d5f83cf1316acd803ae47be78d5a84ac43ca272bb9806e8ec64763b7561022021aa81a3f11fd5523bc7daaf56d3c630b839e9ac5266c289c008c819e217676b01", "3045022100c632a80c7057329c2a9c2a172d8deb6c704e0f3e72d6851b5bc668f5088cd7270220597bd00a50e605a30002d666f6b87c4dbe38c031a71f1aeff26a2a14bd5e797601", "522103dcde3832fa56def7b4e783faad1b8af85c3cdd74a5ff4f3c7c216b1075c18da12103c70ae8ded79be1afda73b9ce5ea14a3878908ee160d66a9a717e792bb6db276952ae"], "sequence": 4294967295, "scriptSig": {"hex": "2200205fdd641234b13964b223bd85ad2a4a667ca2099df3d42a1d3b45706a8d81abf0", "asm": "00205fdd641234b13964b223bd85ad2a4a667ca2099df3d42a1d3b45706a8d81abf0"}, "vout": 1, "txid": "1551786c6d163372c675cf2dc47e59e4b48a6bdaed991f44a17520cf71ab448f"}], "txid": "01d5b1fa2ba1a2a04ac734239a41a8e775ae4ee786614acf9f4a0243158b9e5f", "blocktime": 1537870268, "version": 1, "confirmations": 11518, "time": 1537870268, "locktime": 0, "vsize": 208, "size": 373}