{"hash": "530823ed28bc92422305f4fa476d73f52306ccf867853c5d05dc8ba87b8b364b", "blockhash": "0000000000000000001cda96e906b7601b7a6fb1a3b62bca570a9e5d8f4b3de1", "vout": [{"scriptPubKey": {"reqSigs": 1, "hex": "76a9147e10f6ec532848ad0bf1b5a5278ba35b8fed63ff88ac", "addresses": ["1CVaTtVVryVDPF1GqMk2zTXmoi9ADSEBx8"], "asm": "OP_DUP OP_HASH160 7e10f6ec532848ad0bf1b5a5278ba35b8fed63ff OP_EQUALVERIFY OP_CHECKSIG", "type": "pubkeyhash"}, "value": 1e-05, "n": 0}, {"scriptPubKey": {"reqSigs": 1, "hex": "a9141d7370ccde4590204155e4074f69743a8e4fac0287", "addresses": ["34Njp4ZKtmCDfqqps26wHBYQQGUo2pGkLi"], "asm": "OP_HASH160 1d7370ccde4590204155e4074f69743a8e4fac02 OP_EQUAL", "type": "scripthash"}, "value": 1.561e-05, "n": 1}], "hex": "010000000001013760032278c34c538ced479c6d2dec3ff8a061e964df0dc8e745baef3db427410100000023220020f63dfc12340f6360d0251c22746d6b56093e3243e96ca012a65484a5d9cf0ec0ffffffff02e8030000000000001976a9147e10f6ec532848ad0bf1b5a5278ba35b8fed63ff88ac190600000000000017a9141d7370ccde4590204155e4074f69743a8e4fac02870400473044022065272b75a73f526a06b98dde57e30016f9579f0c5a3f298d310161e9024a2c4402202b695c51e05d50418e404a225f0e469a8eff568626aec70dde524f439f05763a01483045022100da9bb5158240ea0b9d9a478d96a0e18eb555a418b5de52190e3a32ee772db9e50220265db2952b82d085e866085822c1fc290ec990af745ea39f364fb391e3a143600147522102097067a6a0cc130a9a6f6577b47bf369b840a79de31cd7457187994266b1bb7c2103338f346cab6ba87fe940591a03ac234be06520c5ab386d4b6632e8eef0d0db7652ae00000000", "vin": [{"txinwitness": ["", "3044022065272b75a73f526a06b98dde57e30016f9579f0c5a3f298d310161e9024a2c4402202b695c51e05d50418e404a225f0e469a8eff568626aec70dde524f439f05763a01", "3045022100da9bb5158240ea0b9d9a478d96a0e18eb555a418b5de52190e3a32ee772db9e50220265db2952b82d085e866085822c1fc290ec990af745ea39f364fb391e3a1436001", "522102097067a6a0cc130a9a6f6577b47bf369b840a79de31cd7457187994266b1bb7c2103338f346cab6ba87fe940591a03ac234be06520c5ab386d4b6632e8eef0d0db7652ae"], "sequence": 4294967295, "scriptSig": {"hex": "220020f63dfc12340f6360d0251c22746d6b56093e3243e96ca012a65484a5d9cf0ec0", "asm": "0020f63dfc12340f6360d0251c22746d6b56093e3243e96ca012a65484a5d9cf0ec0"}, "vout": 1, "txid": "4127b43defba45e7c80ddf64e961a0f83fec2d6d9c47ed8c534cc37822036037"}], "txid": "01d8dd210b43eda34de498ef52ebc97f0148b5b8eee9fe2b6b1f22d5cd86148f", "blocktime": 1537873282, "version": 1, "confirmations": 11485, "time": 1537873282, "locktime": 0, "vsize": 208, "size": 373}