{"hash": "376918a805349edd489338bfe47770fdd173b14b2aaf3f3775a12e807a15b5dc", "blockhash": "0000000000000000000e13cef7c366c0283d82e591d1acd082e914b08063cdf1", "vout": [{"scriptPubKey": {"reqSigs": 1, "hex": "76a914da272fcc47af0796eb828c1199a70bcb029e474988ac", "addresses": ["1LtVFZSvrhbxN8vYcEJiMRuKCM2bAbWSFF"], "asm": "OP_DUP OP_HASH160 da272fcc47af0796eb828c1199a70bcb029e4749 OP_EQUALVERIFY OP_CHECKSIG", "type": "pubkeyhash"}, "value": 0.00045303, "n": 0}, {"scriptPubKey": {"reqSigs": 1, "hex": "001429ab6847a7280bd27d861cdd6072325170df1d17", "addresses": ["bc1q9x4ks3a89q9aylvxrnwkqu3j29cd78ghpvdsf8"], "asm": "0 29ab6847a7280bd27d861cdd6072325170df1d17", "type": "witness_v0_keyhash"}, "value": 3.687e-05, "n": 1}], "hex": "0100000000010176288bf3887afa494f7a6cbd55673d5ec0ebd6fde7b3b8e8bae5b90d484ce75e000000001716001451ef352a4082b8fc3f24151a27d2cb9d92207702ffffffff02f7b00000000000001976a914da272fcc47af0796eb828c1199a70bcb029e474988ac670e00000000000016001429ab6847a7280bd27d861cdd6072325170df1d1702483045022100f91b44d98e45768025d858a374f3122ed394ec7e7d0b60c6b7b7490eef9048a0022007a2be71fb3914f2a8ac2d84da7ed4fed4e4772af9dc46f01cbca0a5fd481ba8012103247de6eac2755da73d0d026880e9d8eaded45eaff98bd6896a204d4f1013473100000000", "vin": [{"txinwitness": ["3045022100f91b44d98e45768025d858a374f3122ed394ec7e7d0b60c6b7b7490eef9048a0022007a2be71fb3914f2a8ac2d84da7ed4fed4e4772af9dc46f01cbca0a5fd481ba801", "03247de6eac2755da73d0d026880e9d8eaded45eaff98bd6896a204d4f10134731"], "sequence": 4294967295, "scriptSig": {"hex": "16001451ef352a4082b8fc3f24151a27d2cb9d92207702", "asm": "001451ef352a4082b8fc3f24151a27d2cb9d92207702"}, "vout": 0, "txid": "5ee74c480db9e5bae8b8b3e7fdd6ebc05e3d6755bd6c7a4f49fa7a88f38b2876"}], "txid": "01ded70b89c8e5ee187e71ed1934d6afee4310c5e77fc3afddb07d6995ca7743", "blocktime": 1537871767, "version": 1, "confirmations": 11495, "time": 1537871767, "locktime": 0, "vsize": 167, "size": 249}