{"hash": "01de67b8310633f8966fb39ac132483b33b14072f345fbd68db1eb74017e3c03", "blockhash": "0000000000000000001f76057863aec43deb6fa401d9628bb513d65a8098bfab", "vout": [{"scriptPubKey": {"reqSigs": 1, "hex": "76a9146f6215478758358fe20bd55f63a59abf2ca1dab688ac", "addresses": ["1B9wWEE3ToCXxvBEx1ZzZN8bNJxzacHSqa"], "asm": "OP_DUP OP_HASH160 6f6215478758358fe20bd55f63a59abf2ca1dab6 OP_EQUALVERIFY OP_CHECKSIG", "type": "pubkeyhash"}, "value": 0.31241873, "n": 0}, {"scriptPubKey": {"reqSigs": 1, "hex": "76a9143f44d3fe8abd01f019c25aee2d0a927864ff69b788ac", "addresses": ["16mY2M43ukh9CfE7hcrngKFaVvGZ8eRwEX"], "asm": "OP_DUP OP_HASH160 3f44d3fe8abd01f019c25aee2d0a927864ff69b7 OP_EQUALVERIFY OP_CHECKSIG", "type": "pubkeyhash"}, "value": 10.02341201, "n": 1}], "hex": "01000000010f799f97505835399979ec0bd4aea053bc5e51fcee72082b7df10136798268dc000000006b483045022100d70ff863cf9239a60c2950ed42f6f98d1ae3c730282e3a120e4a70c0cbe7bc0502204d9f6e25091f5e371683f6c13de97d4eb9c95323d390539040cad736ecb99a3801210345a535a75185c43df555aebc12319b663b561a6fa267364337760b4dab0e6cd8ffffffff0291b6dc01000000001976a9146f6215478758358fe20bd55f63a59abf2ca1dab688ac5183be3b000000001976a9143f44d3fe8abd01f019c25aee2d0a927864ff69b788ac00000000", "vin": [{"sequence": 4294967295, "scriptSig": {"hex": "483045022100d70ff863cf9239a60c2950ed42f6f98d1ae3c730282e3a120e4a70c0cbe7bc0502204d9f6e25091f5e371683f6c13de97d4eb9c95323d390539040cad736ecb99a3801210345a535a75185c43df555aebc12319b663b561a6fa267364337760b4dab0e6cd8", "asm": "3045022100d70ff863cf9239a60c2950ed42f6f98d1ae3c730282e3a120e4a70c0cbe7bc0502204d9f6e25091f5e371683f6c13de97d4eb9c95323d390539040cad736ecb99a38[ALL] 0345a535a75185c43df555aebc12319b663b561a6fa267364337760b4dab0e6cd8"}, "vout": 0, "txid": "dc6882793601f17d2b0872eefc515ebc53a0aed40bec799939355850979f790f"}], "txid": "01de67b8310633f8966fb39ac132483b33b14072f345fbd68db1eb74017e3c03", "blocktime": 1537873891, "version": 1, "confirmations": 11474, "time": 1537873891, "locktime": 0, "vsize": 226, "size": 226}