{"hash": "01e3080a3de2be550c0389bd3fa8adb8304656ba7ca16097faabdbb6e45946a0", "blockhash": "00000000000000000017f5eb5941039fbcee6240d03bc1f2f8e35350df66a1d8", "vout": [{"scriptPubKey": {"reqSigs": 1, "hex": "76a91438755964f817edbb93d333f50d1f8a72006e9d3488ac", "addresses": ["169XRJqvbNUgkoe2yDZ6g89qw1D5EbfdfR"], "asm": "OP_DUP OP_HASH160 38755964f817edbb93d333f50d1f8a72006e9d34 OP_EQUALVERIFY OP_CHECKSIG", "type": "pubkeyhash"}, "value": 0.0003127, "n": 0}, {"scriptPubKey": {"reqSigs": 1, "hex": "76a91476c200f74921cca369a7b2a7bee30e8042c37e5688ac", "addresses": ["1Bpw9Fm3GRg5j1ZJxWFgwxa4LyG9XqJw89"], "asm": "OP_DUP OP_HASH160 76c200f74921cca369a7b2a7bee30e8042c37e56 OP_EQUALVERIFY OP_CHECKSIG", "type": "pubkeyhash"}, "value": 0.0038628, "n": 1}], "hex": "01000000014c67d9e29f44dd476674ad32ab1c361b8c067304db15d6def0e19f379a194147000000006b483045022100a07993fd8f3795fc46ac36334b80b7d2c35505c3975ca16b5144948910aaabf30220043f15842daccf427f73a1a5fa2a9830b6f64c0a80cd83d1e17bad392345d861012103e3a6cca91ff697b53910241e788d61a0316ebf288f596252862c95295bed052affffffff02267a0000000000001976a91438755964f817edbb93d333f50d1f8a72006e9d3488ace8e40500000000001976a91476c200f74921cca369a7b2a7bee30e8042c37e5688ac00000000", "vin": [{"sequence": 4294967295, "scriptSig": {"hex": "483045022100a07993fd8f3795fc46ac36334b80b7d2c35505c3975ca16b5144948910aaabf30220043f15842daccf427f73a1a5fa2a9830b6f64c0a80cd83d1e17bad392345d861012103e3a6cca91ff697b53910241e788d61a0316ebf288f596252862c95295bed052a", "asm": "3045022100a07993fd8f3795fc46ac36334b80b7d2c35505c3975ca16b5144948910aaabf30220043f15842daccf427f73a1a5fa2a9830b6f64c0a80cd83d1e17bad392345d861[ALL] 03e3a6cca91ff697b53910241e788d61a0316ebf288f596252862c95295bed052a"}, "vout": 0, "txid": "4741199a379fe1f0ded615db0473068c1b361cab32ad746647dd449fe2d9674c"}], "txid": "01e3080a3de2be550c0389bd3fa8adb8304656ba7ca16097faabdbb6e45946a0", "blocktime": 1537874412, "version": 1, "confirmations": 11468, "time": 1537874412, "locktime": 0, "vsize": 226, "size": 226}