{"hash": "01e648ae5ce8fed86f419e92d5f9010a65b77215f73e6479a29c69b5684cde25", "blockhash": "0000000000000000001e0dab787dd257d1dbfcb92a98c2207d5e1078be1f4165", "vout": [{"scriptPubKey": {"reqSigs": 1, "hex": "76a91475ead9123203f1668cf8e0048f2e6aec5cf77b4f88ac", "addresses": ["1BkVPxx9uRUWSLdKzhzaKsnWKygF9PpT3N"], "asm": "OP_DUP OP_HASH160 75ead9123203f1668cf8e0048f2e6aec5cf77b4f OP_EQUALVERIFY OP_CHECKSIG", "type": "pubkeyhash"}, "value": 0.00671, "n": 0}], "hex": "01000000027fa5176361377c0d9c6e57a3a3a35a4cfade246bc46585653d869eb4bc2b0ae32e0000006b483045022100f704941d5ea7d7f9fb739e81e05c9993433f08cc38d2083bdf2103fa4e0cc68402205578d22798d10fd3911df31092d8095aeb1fc7af8fb9620ba1ddf0ca82c3ebd901210226d03be92256e91bf353d6f633dd57bb789f5df4e3e165607b828cfc898d54ceffffffff7b9b0683e3517bf68b017819a89eb19b3a8603ecba9b9ac749ff4ce64742e955080000006a473044022011e36c65034150e4464956e18de145f65b3d4a65f123141c60830080474fbb750220180726f2e735d60e822d28ed9c84245dcf03c74c1a3c0dc80b11cd6d09fb9dca01210226d03be92256e91bf353d6f633dd57bb789f5df4e3e165607b828cfc898d54ceffffffff01183d0a00000000001976a91475ead9123203f1668cf8e0048f2e6aec5cf77b4f88ac00000000", "vin": [{"sequence": 4294967295, "scriptSig": {"hex": "483045022100f704941d5ea7d7f9fb739e81e05c9993433f08cc38d2083bdf2103fa4e0cc68402205578d22798d10fd3911df31092d8095aeb1fc7af8fb9620ba1ddf0ca82c3ebd901210226d03be92256e91bf353d6f633dd57bb789f5df4e3e165607b828cfc898d54ce", "asm": "3045022100f704941d5ea7d7f9fb739e81e05c9993433f08cc38d2083bdf2103fa4e0cc68402205578d22798d10fd3911df31092d8095aeb1fc7af8fb9620ba1ddf0ca82c3ebd9[ALL] 0226d03be92256e91bf353d6f633dd57bb789f5df4e3e165607b828cfc898d54ce"}, "vout": 46, "txid": "e30a2bbcb49e863d658565c46b24defa4c5aa3a3a3576e9c0d7c37616317a57f"}, {"sequence": 4294967295, "scriptSig": {"hex": "473044022011e36c65034150e4464956e18de145f65b3d4a65f123141c60830080474fbb750220180726f2e735d60e822d28ed9c84245dcf03c74c1a3c0dc80b11cd6d09fb9dca01210226d03be92256e91bf353d6f633dd57bb789f5df4e3e165607b828cfc898d54ce", "asm": "3044022011e36c65034150e4464956e18de145f65b3d4a65f123141c60830080474fbb750220180726f2e735d60e822d28ed9c84245dcf03c74c1a3c0dc80b11cd6d09fb9dca[ALL] 0226d03be92256e91bf353d6f633dd57bb789f5df4e3e165607b828cfc898d54ce"}, "vout": 8, "txid": "55e94247e64cff49c79a9bbaec03863a9bb19ea81978018bf67b51e383069b7b"}], "txid": "01e648ae5ce8fed86f419e92d5f9010a65b77215f73e6479a29c69b5684cde25", "blocktime": 1537872475, "version": 1, "confirmations": 11486, "time": 1537872475, "locktime": 0, "vsize": 339, "size": 339}