{"hash": "23324c5a13e2d748e15addf65f04ea1a04c211ec9bca42dbcc11a71eacc30a35", "blockhash": "0000000000000000001cda96e906b7601b7a6fb1a3b62bca570a9e5d8f4b3de1", "vout": [{"scriptPubKey": {"reqSigs": 1, "hex": "a914e55b1fa02ca61713852f0c560ca2374ae2daee5687", "addresses": ["3Nbjpr6eiozx36R2Xaw6NSFHPRVYSCCJq3"], "asm": "OP_HASH160 e55b1fa02ca61713852f0c560ca2374ae2daee56 OP_EQUAL", "type": "scripthash"}, "value": 0.20373609, "n": 0}, {"scriptPubKey": {"reqSigs": 1, "hex": "a914f9d19f658d1c549b234d8bf34fd50b13e3cdebde87", "addresses": ["3QTwJ9Rp6BcS5qYR11wYkRBPHsJWR6PV1K"], "asm": "OP_HASH160 f9d19f658d1c549b234d8bf34fd50b13e3cdebde OP_EQUAL", "type": "scripthash"}, "value": 0.10727365, "n": 1}], "hex": "010000000001012dc5aa8119ad540569e2eef697a3ab7a7e6085e97e5b9f99c92164fb950cf9af010000001716001412e136f8a2ff4634ca738ba7b28ccdca5d906040ffffffff0269e036010000000017a914e55b1fa02ca61713852f0c560ca2374ae2daee5687c5afa3000000000017a914f9d19f658d1c549b234d8bf34fd50b13e3cdebde8702483045022100bfb5ce97dbfbeb9f8bba14f1357577db18a26d0b4bcae6f6f71a83add72c14c10220782ebc261f5c216986ee114b37187b47d5b64d419c9bc09fe06fb894b05b0e2e0121037b86f75822c91adcc0263dd5c13f83919c830abb2a4f71487e326e3fdc6acbdf00000000", "vin": [{"txinwitness": ["3045022100bfb5ce97dbfbeb9f8bba14f1357577db18a26d0b4bcae6f6f71a83add72c14c10220782ebc261f5c216986ee114b37187b47d5b64d419c9bc09fe06fb894b05b0e2e01", "037b86f75822c91adcc0263dd5c13f83919c830abb2a4f71487e326e3fdc6acbdf"], "sequence": 4294967295, "scriptSig": {"hex": "16001412e136f8a2ff4634ca738ba7b28ccdca5d906040", "asm": "001412e136f8a2ff4634ca738ba7b28ccdca5d906040"}, "vout": 1, "txid": "aff90c95fb6421c9999f5b7ee985607e7aaba397f6eee2690554ad1981aac52d"}], "txid": "01e8de8c0a539184075ed1ab268fb6942cec76e979077b610fe780e5901e1afc", "blocktime": 1537873282, "version": 1, "confirmations": 11485, "time": 1537873282, "locktime": 0, "vsize": 166, "size": 248}