{"hash": "01ebe92a45be3e36252036a220e56f638e50f61d6a63fd9c7e53659610462e6a", "blockhash": "00000000000000000017f5eb5941039fbcee6240d03bc1f2f8e35350df66a1d8", "vout": [{"scriptPubKey": {"reqSigs": 1, "hex": "76a914f3232d48853e64e4f43a6dea733311555ac84fdd88ac", "addresses": ["1PAbLkNd31YD773Bw3YmWC7E3RQUjCcDao"], "asm": "OP_DUP OP_HASH160 f3232d48853e64e4f43a6dea733311555ac84fdd OP_EQUALVERIFY OP_CHECKSIG", "type": "pubkeyhash"}, "value": 4.10690339, "n": 0}, {"scriptPubKey": {"reqSigs": 1, "hex": "76a91458e1aa386190b48ad3457fe88cfeeb7ab1c3180a88ac", "addresses": ["196xoMaXRDSA7awyYzd2AjiCzPqy7abU23"], "asm": "OP_DUP OP_HASH160 58e1aa386190b48ad3457fe88cfeeb7ab1c3180a OP_EQUALVERIFY OP_CHECKSIG", "type": "pubkeyhash"}, "value": 0.01614453, "n": 1}, {"scriptPubKey": {"reqSigs": 1, "hex": "76a914f29f138f316c0fb9e3058165929a58d44db8678988ac", "addresses": ["1P7s6FE48ZTEA6xjemHtrb3YNV1EL7YZL5"], "asm": "OP_DUP OP_HASH160 f29f138f316c0fb9e3058165929a58d44db86789 OP_EQUALVERIFY OP_CHECKSIG", "type": "pubkeyhash"}, "value": 0.0325, "n": 2}, {"scriptPubKey": {"reqSigs": 1, "hex": "a91469f374fea45b4651f2f89a11bca76c7da040235287", "addresses": ["3BMEXNjk3P7gKjKy7vQj2y7hQE1g5bd98r"], "asm": "OP_HASH160 69f374fea45b4651f2f89a11bca76c7da0402352 OP_EQUAL", "type": "scripthash"}, "value": 0.03435, "n": 3}, {"scriptPubKey": {"reqSigs": 1, "hex": "76a914d93957b666f0d9d02d6a23b62e6d5ed256071f1588ac", "addresses": ["1LoaKs3NEo7fdeGuo8x6b1wanAQXD8ipCP"], "asm": "OP_DUP OP_HASH160 d93957b666f0d9d02d6a23b62e6d5ed256071f15 OP_EQUALVERIFY OP_CHECKSIG", "type": "pubkeyhash"}, "value": 6.849, "n": 4}], "hex": "0200000001deca6173f00090d94a4fb75c86d3100a6704cb11dd26baa1951625309953333a010000006a47304402206e37c5801e0769d0e0bb5aca3df14ff68a0bbd38231fa1326159570a9920534c022026d55816cae07235d9813d7aa73bc6e9e6b5321edf1f56d2dc53258765fd316001210309e8ec59647c42f6ba037348dd36a7de0cf9e181172eec249324ce2f43d4c514feffffff0523a37a18000000001976a914f3232d48853e64e4f43a6dea733311555ac84fdd88ac75a21800000000001976a91458e1aa386190b48ad3457fe88cfeeb7ab1c3180a88ac50973100000000001976a914f29f138f316c0fb9e3058165929a58d44db8678988acf86934000000000017a91469f374fea45b4651f2f89a11bca76c7da040235287a0bed228000000001976a914d93957b666f0d9d02d6a23b62e6d5ed256071f1588ac15490800", "vin": [{"sequence": 4294967294, "scriptSig": {"hex": "47304402206e37c5801e0769d0e0bb5aca3df14ff68a0bbd38231fa1326159570a9920534c022026d55816cae07235d9813d7aa73bc6e9e6b5321edf1f56d2dc53258765fd316001210309e8ec59647c42f6ba037348dd36a7de0cf9e181172eec249324ce2f43d4c514", "asm": "304402206e37c5801e0769d0e0bb5aca3df14ff68a0bbd38231fa1326159570a9920534c022026d55816cae07235d9813d7aa73bc6e9e6b5321edf1f56d2dc53258765fd3160[ALL] 0309e8ec59647c42f6ba037348dd36a7de0cf9e181172eec249324ce2f43d4c514"}, "vout": 1, "txid": "3a33539930251695a1ba26dd11cb04670a10d3865cb74f4ad99000f07361cade"}], "txid": "01ebe92a45be3e36252036a220e56f638e50f61d6a63fd9c7e53659610462e6a", "blocktime": 1537874412, "version": 2, "confirmations": 11466, "time": 1537874412, "locktime": 542997, "vsize": 325, "size": 325}