{"hash": "01ec6fc35a134f54f0db7c5d8cc60426ac7a4f618f737bcd0ecba076b5edd4a5", "blockhash": "0000000000000000000e13cef7c366c0283d82e591d1acd082e914b08063cdf1", "vout": [{"scriptPubKey": {"reqSigs": 1, "hex": "76a914d770f88ee7014f97ff00b63d8bfc4b161c1ccd9788ac", "addresses": ["1Le9cbt7ZNMWntcQ2C9TsXdNKj4Mtqvr3K"], "asm": "OP_DUP OP_HASH160 d770f88ee7014f97ff00b63d8bfc4b161c1ccd97 OP_EQUALVERIFY OP_CHECKSIG", "type": "pubkeyhash"}, "value": 5.61e-06, "n": 0}, {"scriptPubKey": {"reqSigs": 1, "hex": "a914bfe3b9b006bd60d821de4768216fbcf3cb0629a487", "addresses": ["3KBdnpNRSUC6xH7oL58GWg3f1QzPQs9FWq"], "asm": "OP_HASH160 bfe3b9b006bd60d821de4768216fbcf3cb0629a4 OP_EQUAL", "type": "scripthash"}, "value": 0.01426, "n": 1}], "hex": "01000000030517792cd5cbceb7f3bdc2e2c3f9cbcc55be85fb34f38cecd4908c058f041470080000006a4730440220756cdb7ad159ccf67f1ed476623f48edb301758ad3a9135ad72bd720dccf1a04022026c2573e62b55271595810d1305a7f2ad497d5b8b9358c6af132692d3c9720d0012103a6c60612d5aacca5572015b51af972aa80ed4121d0d0490ca29c13c7170f7eabffffffff7c157c6bd65dc54cfb000fe3eb7705b45dd3672324c58474d3e90060cb1637970b0000006b483045022100de73cf0f0509eef6b72599748e0e735a9fb3999065ea1b7e1cb6fcf16ed0cda5022021b6fe4662db13f0be0d8ed85b41fe01055a34784d5d62a9cee169fc74462cdb012102d21b2f97666e2e399279b22b270e4eb3463ff3e4678f8470913da37032c61decffffffffc8d6026cda646d8a5a14553ee8684fabbb55e96d848ab269c4b8bcd10ab59cbd010000006a473044022058aef1d5a186fc1a37a31a8023d75493fc065ccb142a39e1eb26bcf3d8fff1a002200c0284273417270e1b67c72f6f5654c2105225f8a7fc462983703875c584b18101210233580df3f7b55aa045dba35e25175a457a2144bc4f57cf9707d1950304bdfaddffffffff0231020000000000001976a914d770f88ee7014f97ff00b63d8bfc4b161c1ccd9788ac50c215000000000017a914bfe3b9b006bd60d821de4768216fbcf3cb0629a48700000000", "vin": [{"sequence": 4294967295, "scriptSig": {"hex": "4730440220756cdb7ad159ccf67f1ed476623f48edb301758ad3a9135ad72bd720dccf1a04022026c2573e62b55271595810d1305a7f2ad497d5b8b9358c6af132692d3c9720d0012103a6c60612d5aacca5572015b51af972aa80ed4121d0d0490ca29c13c7170f7eab", "asm": "30440220756cdb7ad159ccf67f1ed476623f48edb301758ad3a9135ad72bd720dccf1a04022026c2573e62b55271595810d1305a7f2ad497d5b8b9358c6af132692d3c9720d0[ALL] 03a6c60612d5aacca5572015b51af972aa80ed4121d0d0490ca29c13c7170f7eab"}, "vout": 8, "txid": "7014048f058c90d4ec8cf334fb85be55cccbf9c3e2c2bdf3b7cecbd52c791705"}, {"sequence": 4294967295, "scriptSig": {"hex": "483045022100de73cf0f0509eef6b72599748e0e735a9fb3999065ea1b7e1cb6fcf16ed0cda5022021b6fe4662db13f0be0d8ed85b41fe01055a34784d5d62a9cee169fc74462cdb012102d21b2f97666e2e399279b22b270e4eb3463ff3e4678f8470913da37032c61dec", "asm": "3045022100de73cf0f0509eef6b72599748e0e735a9fb3999065ea1b7e1cb6fcf16ed0cda5022021b6fe4662db13f0be0d8ed85b41fe01055a34784d5d62a9cee169fc74462cdb[ALL] 02d21b2f97666e2e399279b22b270e4eb3463ff3e4678f8470913da37032c61dec"}, "vout": 11, "txid": "973716cb6000e9d37484c5242367d35db40577ebe30f00fb4cc55dd66b7c157c"}, {"sequence": 4294967295, "scriptSig": {"hex": "473044022058aef1d5a186fc1a37a31a8023d75493fc065ccb142a39e1eb26bcf3d8fff1a002200c0284273417270e1b67c72f6f5654c2105225f8a7fc462983703875c584b18101210233580df3f7b55aa045dba35e25175a457a2144bc4f57cf9707d1950304bdfadd", "asm": "3044022058aef1d5a186fc1a37a31a8023d75493fc065ccb142a39e1eb26bcf3d8fff1a002200c0284273417270e1b67c72f6f5654c2105225f8a7fc462983703875c584b181[ALL] 0233580df3f7b55aa045dba35e25175a457a2144bc4f57cf9707d1950304bdfadd"}, "vout": 1, "txid": "bd9cb50ad1bcb8c469b28a846de955bbab4f68e83e55145a8a6d64da6c02d6c8"}], "txid": "01ec6fc35a134f54f0db7c5d8cc60426ac7a4f618f737bcd0ecba076b5edd4a5", "blocktime": 1537871767, "version": 1, "confirmations": 11495, "time": 1537871767, "locktime": 0, "vsize": 518, "size": 518}