{"hash": "01eeac88027c79c082601b706a549621e22750bb0dcd362a536d003b21edcb0c", "blockhash": "00000000000000000004ffacab907a6b429b9a5745fa0b75af4234bf69dd7176", "vout": [{"scriptPubKey": {"reqSigs": 1, "hex": "a91464e2679e17ea562e3e2d88faab4c872607d5fe7787", "addresses": ["3AtSic3ZsF7HhnaR8RhhcwS8QFcn7hbmgA"], "asm": "OP_HASH160 64e2679e17ea562e3e2d88faab4c872607d5fe77 OP_EQUAL", "type": "scripthash"}, "value": 0.009887, "n": 0}], "hex": "0100000001172aabdffaf29f9bbcb6555ee8a4c3a5c26064ab38840ad7437298bd8c9ade11000000006b483045022100bcfacfeaeb108e3f1f8d59921b23682199fd0802303a654e3d76992bc3d0f78e02204763cc7ec74344bfe089b609bfca931962f9b49df854087d7e0877c0dc66478d012103e532d94ffa73ee4f65842d2379d45abf25f19534127986fcb1222fa39534eda8ffffffff011c160f000000000017a91464e2679e17ea562e3e2d88faab4c872607d5fe778700000000", "vin": [{"sequence": 4294967295, "scriptSig": {"hex": "483045022100bcfacfeaeb108e3f1f8d59921b23682199fd0802303a654e3d76992bc3d0f78e02204763cc7ec74344bfe089b609bfca931962f9b49df854087d7e0877c0dc66478d012103e532d94ffa73ee4f65842d2379d45abf25f19534127986fcb1222fa39534eda8", "asm": "3045022100bcfacfeaeb108e3f1f8d59921b23682199fd0802303a654e3d76992bc3d0f78e02204763cc7ec74344bfe089b609bfca931962f9b49df854087d7e0877c0dc66478d[ALL] 03e532d94ffa73ee4f65842d2379d45abf25f19534127986fcb1222fa39534eda8"}, "vout": 0, "txid": "11de9a8cbd987243d70a8438ab6460c2a5c3a4e85e55b6bc9b9ff2fadfab2a17"}], "txid": "01eeac88027c79c082601b706a549621e22750bb0dcd362a536d003b21edcb0c", "blocktime": 1537875543, "version": 1, "confirmations": 11464, "time": 1537875543, "locktime": 0, "vsize": 190, "size": 190}