{"hash": "5eb60fe5bf669fdeb5257d6498d4fd15ce90ecebc1041a9b0c930d94ff981cf9", "blockhash": "000000000000000000022b45ed06c6f4ccd3cf7fb5ba4856ebd2e58215665228", "vout": [{"scriptPubKey": {"reqSigs": 1, "hex": "a91433bf7ebbc90ee4317641832a9b21a58fb17c224d87", "addresses": ["36Qdndsu9tmzVRH54YQ3PWvVrDirHo6bEq"], "asm": "OP_HASH160 33bf7ebbc90ee4317641832a9b21a58fb17c224d OP_EQUAL", "type": "scripthash"}, "value": 0.002, "n": 0}, {"scriptPubKey": {"reqSigs": 1, "hex": "a91449d09527c5ac35f1c02486f6ab3ccf656d43d82887", "addresses": ["38RK886WPcD36HieZetNBRVKPFY61SnJQ6"], "asm": "OP_HASH160 49d09527c5ac35f1c02486f6ab3ccf656d43d828 OP_EQUAL", "type": "scripthash"}, "value": 0.00995702, "n": 1}], "hex": "020000000001038f28694dac61fd05ce0d8c6076a0734ddeda11d200a901c0750768d7f28db87a00000000171600141626facb6bc6e5a6df1d157dd81042e0bfa994c1feffffffe9b59cc332265994e964aaf7dfcb41885478548945755389a0f30004678ce0300100000017160014169c13a9b7ba2c52b2879cc42b1ffde6c48dbab1fefffffff11652d5747e941b690af6dd81a0474b88cd57028ea42024c8ef8ca1d4acfca2000000001716001482dedf91443970a04bcb01ebb61d01ade3820ed1feffffff02400d03000000000017a91433bf7ebbc90ee4317641832a9b21a58fb17c224d8776310f000000000017a91449d09527c5ac35f1c02486f6ab3ccf656d43d8288702473044022026c2f0c14eacd17f008c4c4d95d1152666aa82682751bcfbb9196b3b3c7f8e9902205af6e25a4eea121099aaa07793b8d2047a21531fe8b0b25c547aec004b987011012103b796c5b108dbc84e37abbb7a9e3f7027efc2947c929b6cb39c3041906f93783a0247304402203b8dc816fba2ad4188bf641d8bd5d2000c39afec229c995e8435005d8559a0280220269a4998e781dd37249ad1e4d7bbb11c1e14c2403b35ff766853b0ab39ccc7b40121038af5b02a5c46acd8d82c6a1f565c999c1d73c7558a07189aead16cff3907c40802483045022100b09c75ac4a0f225cc5a61bd27cbd22545ca9687b8d0969e7d8c1f14787e2d0a302202beef9ddce80f1417011fa33d432c3b51137c8474393d3c4d19de2d3aa961692012103ec5f6e9584a4fe01f200bd7712a4795ed5d39a5c52015d6db9b24ae3641af4ad0b490800", "vin": [{"txinwitness": ["3044022026c2f0c14eacd17f008c4c4d95d1152666aa82682751bcfbb9196b3b3c7f8e9902205af6e25a4eea121099aaa07793b8d2047a21531fe8b0b25c547aec004b98701101", "03b796c5b108dbc84e37abbb7a9e3f7027efc2947c929b6cb39c3041906f93783a"], "sequence": 4294967294, "scriptSig": {"hex": "1600141626facb6bc6e5a6df1d157dd81042e0bfa994c1", "asm": "00141626facb6bc6e5a6df1d157dd81042e0bfa994c1"}, "vout": 0, "txid": "7ab88df2d7680775c001a900d211dade4d73a076608c0dce05fd61ac4d69288f"}, {"txinwitness": ["304402203b8dc816fba2ad4188bf641d8bd5d2000c39afec229c995e8435005d8559a0280220269a4998e781dd37249ad1e4d7bbb11c1e14c2403b35ff766853b0ab39ccc7b401", "038af5b02a5c46acd8d82c6a1f565c999c1d73c7558a07189aead16cff3907c408"], "sequence": 4294967294, "scriptSig": {"hex": "160014169c13a9b7ba2c52b2879cc42b1ffde6c48dbab1", "asm": "0014169c13a9b7ba2c52b2879cc42b1ffde6c48dbab1"}, "vout": 1, "txid": "30e08c670400f3a089537545895478548841cbdff7aa64e994592632c39cb5e9"}, {"txinwitness": ["3045022100b09c75ac4a0f225cc5a61bd27cbd22545ca9687b8d0969e7d8c1f14787e2d0a302202beef9ddce80f1417011fa33d432c3b51137c8474393d3c4d19de2d3aa96169201", "03ec5f6e9584a4fe01f200bd7712a4795ed5d39a5c52015d6db9b24ae3641af4ad"], "sequence": 4294967294, "scriptSig": {"hex": "16001482dedf91443970a04bcb01ebb61d01ade3820ed1", "asm": "001482dedf91443970a04bcb01ebb61d01ade3820ed1"}, "vout": 0, "txid": "a2fcacd4a18cefc82420a48e0257cd884b47a081ddf60a691b947e74d55216f1"}], "txid": "01ef5d5ad1e8f3e8f1fd96e7eff5c6c03080c64f3853ead1d03a9b24ca4fdd29", "blocktime": 1537869901, "version": 2, "confirmations": 11522, "time": 1537869901, "locktime": 542987, "vsize": 347, "size": 590}