{"hash": "01f3eda58d54799ef9b11413797c82bac86b3871a6a5b8108d64385332fd7fe3", "blockhash": "0000000000000000001cda96e906b7601b7a6fb1a3b62bca570a9e5d8f4b3de1", "vout": [{"scriptPubKey": {"reqSigs": 1, "hex": "a9148fec40f750433465f54280bef2d639bf6dbf029487", "addresses": ["3Ep1aB8ZeDMqP3ews22Taxb4ZXAUvLpCpA"], "asm": "OP_HASH160 8fec40f750433465f54280bef2d639bf6dbf0294 OP_EQUAL", "type": "scripthash"}, "value": 0.08773305, "n": 0}], "hex": "0100000001a1bad8706423097f6b5973a5ab048da0a6b430bac56beb96ac1c2c6ff391d01207000000fc0047304402201e38d939b747df05fa6f78cbee5442c1830d1e8c74090d7eeed46bf5abf0f15602206d02903e56427299931532d72ae043a19b2331e759cb36fb436f7d1c5aa229d40147304402202cefdf0a92a1a69d58f995b6855a6181d67a63241b51e43374e9381daa1e31700220785a6ade2214f4a9fac77d92879be27b132ebbf79f78aa66e72c86d50fa68f6b014c695221032a4d6b297645eb0f38cb527b4b15bef92e8dab5e44ebb6b73499ec879ae6fd5b21031aa05930fd356630c2f631c50009d757315ce1a2de49b813dea7f86826bc9dc1210381298e00d323ecf5936787710931a256ea6364ba2cdc9b50daddef520d4241fb53aeffffffff01b9de85000000000017a9148fec40f750433465f54280bef2d639bf6dbf02948700000000", "vin": [{"sequence": 4294967295, "scriptSig": {"hex": "0047304402201e38d939b747df05fa6f78cbee5442c1830d1e8c74090d7eeed46bf5abf0f15602206d02903e56427299931532d72ae043a19b2331e759cb36fb436f7d1c5aa229d40147304402202cefdf0a92a1a69d58f995b6855a6181d67a63241b51e43374e9381daa1e31700220785a6ade2214f4a9fac77d92879be27b132ebbf79f78aa66e72c86d50fa68f6b014c695221032a4d6b297645eb0f38cb527b4b15bef92e8dab5e44ebb6b73499ec879ae6fd5b21031aa05930fd356630c2f631c50009d757315ce1a2de49b813dea7f86826bc9dc1210381298e00d323ecf5936787710931a256ea6364ba2cdc9b50daddef520d4241fb53ae", "asm": "0 304402201e38d939b747df05fa6f78cbee5442c1830d1e8c74090d7eeed46bf5abf0f15602206d02903e56427299931532d72ae043a19b2331e759cb36fb436f7d1c5aa229d4[ALL] 304402202cefdf0a92a1a69d58f995b6855a6181d67a63241b51e43374e9381daa1e31700220785a6ade2214f4a9fac77d92879be27b132ebbf79f78aa66e72c86d50fa68f6b[ALL] 5221032a4d6b297645eb0f38cb527b4b15bef92e8dab5e44ebb6b73499ec879ae6fd5b21031aa05930fd356630c2f631c50009d757315ce1a2de49b813dea7f86826bc9dc1210381298e00d323ecf5936787710931a256ea6364ba2cdc9b50daddef520d4241fb53ae"}, "vout": 7, "txid": "12d091f36f2c1cac96eb6bc5ba30b4a6a08d04aba573596b7f09236470d8baa1"}], "txid": "01f3eda58d54799ef9b11413797c82bac86b3871a6a5b8108d64385332fd7fe3", "blocktime": 1537873282, "version": 1, "confirmations": 11480, "time": 1537873282, "locktime": 0, "vsize": 335, "size": 335}