{"hash": "01f5950fc9a94ca6b9001ba829f79aec814742e53a37b1db39d8739801418236", "blockhash": "0000000000000000001cda96e906b7601b7a6fb1a3b62bca570a9e5d8f4b3de1", "vout": [{"scriptPubKey": {"reqSigs": 1, "hex": "76a914f4cc02aac302855ef9cedadc5f4595d8ca559b6188ac", "addresses": ["1PKNGhYMZPpAeL1rYkssbQiHJApKNYZaJR"], "asm": "OP_DUP OP_HASH160 f4cc02aac302855ef9cedadc5f4595d8ca559b61 OP_EQUALVERIFY OP_CHECKSIG", "type": "pubkeyhash"}, "value": 1.838e-05, "n": 0}, {"scriptPubKey": {"reqSigs": 1, "hex": "a9145b56a9829c23c76a4ceaa81a1b15a420e7734cfc87", "addresses": ["3A1yEPgybjwAHcbsfnVKnCWedGmsD9Lb7K"], "asm": "OP_HASH160 5b56a9829c23c76a4ceaa81a1b15a420e7734cfc OP_EQUAL", "type": "scripthash"}, "value": 0.00768, "n": 1}], "hex": "0100000002bf2bda733411aab5d25274e8954dd1ae5bba54f4753b78f92b59843f05bec33b000000006a47304402206e8dfc5382e1320791c74e4842607862cd16c193b6d1eaaf6d7f6a40a6b1940b022060ef052d03425ae953fcda0ec8d0dc90c148e06f1ac65a2612bbe9a6f9ce6d94012102ebba385e9abaf1f7483e881921321e1e8a7d3ff33fe426d3d52a4ad817e27262fffffffff94ffb31e91aad02703c3b6e3e79a4bd3045fb292c08fb3ac2b38f02f1d02965010000006a47304402201ab873bab2ac7bee249c98624184612bd2536833d8aface9a80f581eb5001192022024e7e0b5dabb3816dd17621e4b814599c8ff9680a8a33178bfa4a3cd7b2359fc012102e04a90199f94275d569dbf7fb061714ecae027dbca2499f68efb9f11fce37c51ffffffff022e070000000000001976a914f4cc02aac302855ef9cedadc5f4595d8ca559b6188ac00b80b000000000017a9145b56a9829c23c76a4ceaa81a1b15a420e7734cfc8700000000", "vin": [{"sequence": 4294967295, "scriptSig": {"hex": "47304402206e8dfc5382e1320791c74e4842607862cd16c193b6d1eaaf6d7f6a40a6b1940b022060ef052d03425ae953fcda0ec8d0dc90c148e06f1ac65a2612bbe9a6f9ce6d94012102ebba385e9abaf1f7483e881921321e1e8a7d3ff33fe426d3d52a4ad817e27262", "asm": "304402206e8dfc5382e1320791c74e4842607862cd16c193b6d1eaaf6d7f6a40a6b1940b022060ef052d03425ae953fcda0ec8d0dc90c148e06f1ac65a2612bbe9a6f9ce6d94[ALL] 02ebba385e9abaf1f7483e881921321e1e8a7d3ff33fe426d3d52a4ad817e27262"}, "vout": 0, "txid": "3bc3be053f84592bf9783b75f454ba5baed14d95e87452d2b5aa113473da2bbf"}, {"sequence": 4294967295, "scriptSig": {"hex": "47304402201ab873bab2ac7bee249c98624184612bd2536833d8aface9a80f581eb5001192022024e7e0b5dabb3816dd17621e4b814599c8ff9680a8a33178bfa4a3cd7b2359fc012102e04a90199f94275d569dbf7fb061714ecae027dbca2499f68efb9f11fce37c51", "asm": "304402201ab873bab2ac7bee249c98624184612bd2536833d8aface9a80f581eb5001192022024e7e0b5dabb3816dd17621e4b814599c8ff9680a8a33178bfa4a3cd7b2359fc[ALL] 02e04a90199f94275d569dbf7fb061714ecae027dbca2499f68efb9f11fce37c51"}, "vout": 1, "txid": "6529d0f1028fb3c23afb082c29fb4530bda4793e6e3b3c7002ad1ae931fb4ff9"}], "txid": "01f5950fc9a94ca6b9001ba829f79aec814742e53a37b1db39d8739801418236", "blocktime": 1537873282, "version": 1, "confirmations": 11485, "time": 1537873282, "locktime": 0, "vsize": 370, "size": 370}