{"hash": "02031647d54e76094ee80bab990e6e265231916eea35d2b4994194633c466f0e", "blockhash": "0000000000000000000e13cef7c366c0283d82e591d1acd082e914b08063cdf1", "vout": [{"scriptPubKey": {"reqSigs": 1, "hex": "a9143430b7290ead8278fda481858e2ef75d00c171e487", "addresses": ["36SyRL3WEznV7SQDiKvpeRfo4jDqpgC8fL"], "asm": "OP_HASH160 3430b7290ead8278fda481858e2ef75d00c171e4 OP_EQUAL", "type": "scripthash"}, "value": 0.00624678, "n": 0}, {"scriptPubKey": {"reqSigs": 1, "hex": "76a9141b3934b208bfff174a294b9d16c16650a953660188ac", "addresses": ["13UwmuqXSMPF6GXPKQHBn2Qn8rQHgQhCiW"], "asm": "OP_DUP OP_HASH160 1b3934b208bfff174a294b9d16c16650a9536601 OP_EQUALVERIFY OP_CHECKSIG", "type": "pubkeyhash"}, "value": 0.04835644, "n": 1}], "hex": "01000000019d42bad4f2d2db5fba9c6877ab3fbd43f4111cea70ca396895798fa41c3473f3000000006a473044022031ce752215a5e169027354bb0e53eb59af4cba553862c5c534d38a1c8ddcf468022046e50bb1cd626232b420b8d2a9f124962ecb0ba00171f9b82c19bf4bf89c4107012102a9b7fdd6864f0ba20c3f964e1198b64b67aa93255b08c1bc8d35afe27e78f378ffffffff02268809000000000017a9143430b7290ead8278fda481858e2ef75d00c171e4873cc94900000000001976a9141b3934b208bfff174a294b9d16c16650a953660188ac00000000", "vin": [{"sequence": 4294967295, "scriptSig": {"hex": "473044022031ce752215a5e169027354bb0e53eb59af4cba553862c5c534d38a1c8ddcf468022046e50bb1cd626232b420b8d2a9f124962ecb0ba00171f9b82c19bf4bf89c4107012102a9b7fdd6864f0ba20c3f964e1198b64b67aa93255b08c1bc8d35afe27e78f378", "asm": "3044022031ce752215a5e169027354bb0e53eb59af4cba553862c5c534d38a1c8ddcf468022046e50bb1cd626232b420b8d2a9f124962ecb0ba00171f9b82c19bf4bf89c4107[ALL] 02a9b7fdd6864f0ba20c3f964e1198b64b67aa93255b08c1bc8d35afe27e78f378"}, "vout": 0, "txid": "f373341ca48f79956839ca70ea1c11f443bd3fab77689cba5fdbd2f2d4ba429d"}], "txid": "02031647d54e76094ee80bab990e6e265231916eea35d2b4994194633c466f0e", "blocktime": 1537871767, "version": 1, "confirmations": 11490, "time": 1537871767, "locktime": 0, "vsize": 223, "size": 223}