{"hash": "43d0dab34380bf29635c8f87ab5f49b051c75731ab23e148ca022969b1c5f71a", "blockhash": "00000000000000000004ffacab907a6b429b9a5745fa0b75af4234bf69dd7176", "vout": [{"scriptPubKey": {"reqSigs": 1, "hex": "76a914cc8db527ebcebdaefa2337dd1c1d03ffb893d9cc88ac", "addresses": ["1Keac9sGK9Z84bEqV1QxrRX6kFhgiUAyFp"], "asm": "OP_DUP OP_HASH160 cc8db527ebcebdaefa2337dd1c1d03ffb893d9cc OP_EQUALVERIFY OP_CHECKSIG", "type": "pubkeyhash"}, "value": 0.00173249, "n": 0}, {"scriptPubKey": {"reqSigs": 1, "hex": "a9141988a27e3c2df4ddee7fad5a2303d086179b2a3087", "addresses": ["3422VtS7UtCvXYxoXMVp6eZupR252z85oC"], "asm": "OP_HASH160 1988a27e3c2df4ddee7fad5a2303d086179b2a30 OP_EQUAL", "type": "scripthash"}, "value": 1.72525781, "n": 1}], "hex": "01000000000101efa240bb1cdf8afc1db7417ea6cfef2452cf328ee5a66d62768d81ffa6ff5b87010000002322002065d416c48a8072e0ac51c2d111eb194f009caef0332446c1bf2097316cf07fa9ffffffff02c1a40200000000001976a914cc8db527ebcebdaefa2337dd1c1d03ffb893d9cc88acd588480a0000000017a9141988a27e3c2df4ddee7fad5a2303d086179b2a30870400483045022100f1e32a07b5114d73c56ba45bb88ed6f918421f394f3d86ab87967a1dc47bd4b00220288e2a5717c83e39eac0f81fa06131b961f4b983198fbc5728fa6b09cfd790d901483045022100ebbf28af1ebd03c351a4f3bdbc27e4944d97e2b7188233277390a043d1910f25022007cc00bc38d901a9f518b0484fd89f3a02d2501230a3e3db35c874d8ee7ee2a00169522102f44abcf9e23c9a460da309ccca56c619c04eed3bde2c2cff5e7d78fbcd980b9c2103c9443cf3047bb6c2c82f1b0c44c36109cdc3d0d601d16d1189a1602bf8d1a0a02103bfe867059274412412e088af5572b92168c2ef495cfe6c9b7a753a009eb37c4853ae00000000", "vin": [{"txinwitness": ["", "3045022100f1e32a07b5114d73c56ba45bb88ed6f918421f394f3d86ab87967a1dc47bd4b00220288e2a5717c83e39eac0f81fa06131b961f4b983198fbc5728fa6b09cfd790d901", "3045022100ebbf28af1ebd03c351a4f3bdbc27e4944d97e2b7188233277390a043d1910f25022007cc00bc38d901a9f518b0484fd89f3a02d2501230a3e3db35c874d8ee7ee2a001", "522102f44abcf9e23c9a460da309ccca56c619c04eed3bde2c2cff5e7d78fbcd980b9c2103c9443cf3047bb6c2c82f1b0c44c36109cdc3d0d601d16d1189a1602bf8d1a0a02103bfe867059274412412e088af5572b92168c2ef495cfe6c9b7a753a009eb37c4853ae"], "sequence": 4294967295, "scriptSig": {"hex": "22002065d416c48a8072e0ac51c2d111eb194f009caef0332446c1bf2097316cf07fa9", "asm": "002065d416c48a8072e0ac51c2d111eb194f009caef0332446c1bf2097316cf07fa9"}, "vout": 1, "txid": "875bffa6ff818d76626da6e58e32cf5224efcfa67e41b71dfc8adf1cbb40a2ef"}], "txid": "0204ba9347f0d4a18e796240d3cb69f3a349d0046fdcfc79caf275cc09f33581", "blocktime": 1537875543, "version": 1, "confirmations": 11464, "time": 1537875543, "locktime": 0, "vsize": 216, "size": 408}