{"hash": "02047570202f0b690fd10a97527336184d47056d5a0cea05c4b972633fe82b93", "blockhash": "0000000000000000000e13cef7c366c0283d82e591d1acd082e914b08063cdf1", "vout": [{"scriptPubKey": {"reqSigs": 1, "hex": "a9149b60150190aaf76a37f4e8cbc910c2f1f0843bf787", "addresses": ["3FrZmB9J1ShTaiW2NmFDgzSuf5YhcTEXRu"], "asm": "OP_HASH160 9b60150190aaf76a37f4e8cbc910c2f1f0843bf7 OP_EQUAL", "type": "scripthash"}, "value": 0.04244816, "n": 0}], "hex": "0100000004b4229426404e6d6ca63bed92d378b43e77261083a9f3928afc24b5e600caed57000000006b48304502210083ff03ad8a2d3f96d236677b8e21c0ff72b0b6125bbc63fc425d3f58ab6e81af0220099daa8c8d881e40da9615d8e533f33770275ec9c81122f68bdb113fe00a136c012103ae18a9c6b58317750760b86c26e9fe8673fa0adf386f2c9e09b203ae970d1370ffffffff0239bab185369bd5d3fc7e4262dd4846c39719f645482295bf5a934fbbbb127f000000006a47304402203c920cf84834021e979f462a6e6c73b0dde302f338d17d9f6d6944a5cffcdc61022070656f938e54ef419a7ef8efec8b1bdeba0934894364bd74173bbe5ea62bb8e00121031d716c282c0112224595e18ee026681a0bc4d9938dc2acee7ceb20714222907fffffffff80d5b6ca3c7a5d4d635e7fbfdf741e13d8a9895ab03b1288f68c0cc66e3593c2000000006b483045022100c5ba2cc191434b714acbef39b4bd6d80b2271d7c252dec1c7bd19855a59e255c022073b43b7eda20e9090a20b270b4578d2f71577e980beac6253004a134702805d001210214e6ca786349b287d0d8c40f19d9d0c5c139ad53b04d91798c729c7640377491ffffffff2f4a9aa38720c9168b56e7c1fe8fbe1311bcdd428a926dec8b05b2365cc511e6000000006b483045022100efb6895f80307251f8d022a03c7fe2cdfd30141d8a8c5967ce484bee2293355002200cc2b6d4a2943d56a8ee5d7cc459ac0449e33a17c2c7762265b4589fe152d6960121025d8008385f04d5dfd8dc0190956162dcf7f70a5487fd0cfc3f94fd25227ed590ffffffff0150c540000000000017a9149b60150190aaf76a37f4e8cbc910c2f1f0843bf78700000000", "vin": [{"sequence": 4294967295, "scriptSig": {"hex": "48304502210083ff03ad8a2d3f96d236677b8e21c0ff72b0b6125bbc63fc425d3f58ab6e81af0220099daa8c8d881e40da9615d8e533f33770275ec9c81122f68bdb113fe00a136c012103ae18a9c6b58317750760b86c26e9fe8673fa0adf386f2c9e09b203ae970d1370", "asm": "304502210083ff03ad8a2d3f96d236677b8e21c0ff72b0b6125bbc63fc425d3f58ab6e81af0220099daa8c8d881e40da9615d8e533f33770275ec9c81122f68bdb113fe00a136c[ALL] 03ae18a9c6b58317750760b86c26e9fe8673fa0adf386f2c9e09b203ae970d1370"}, "vout": 0, "txid": "57edca00e6b524fc8a92f3a9831026773eb478d392ed3ba66c6d4e40269422b4"}, {"sequence": 4294967295, "scriptSig": {"hex": "47304402203c920cf84834021e979f462a6e6c73b0dde302f338d17d9f6d6944a5cffcdc61022070656f938e54ef419a7ef8efec8b1bdeba0934894364bd74173bbe5ea62bb8e00121031d716c282c0112224595e18ee026681a0bc4d9938dc2acee7ceb20714222907f", "asm": "304402203c920cf84834021e979f462a6e6c73b0dde302f338d17d9f6d6944a5cffcdc61022070656f938e54ef419a7ef8efec8b1bdeba0934894364bd74173bbe5ea62bb8e0[ALL] 031d716c282c0112224595e18ee026681a0bc4d9938dc2acee7ceb20714222907f"}, "vout": 0, "txid": "7f12bbbb4f935abf95224845f61997c34648dd62427efcd3d59b3685b1ba3902"}, {"sequence": 4294967295, "scriptSig": {"hex": "483045022100c5ba2cc191434b714acbef39b4bd6d80b2271d7c252dec1c7bd19855a59e255c022073b43b7eda20e9090a20b270b4578d2f71577e980beac6253004a134702805d001210214e6ca786349b287d0d8c40f19d9d0c5c139ad53b04d91798c729c7640377491", "asm": "3045022100c5ba2cc191434b714acbef39b4bd6d80b2271d7c252dec1c7bd19855a59e255c022073b43b7eda20e9090a20b270b4578d2f71577e980beac6253004a134702805d0[ALL] 0214e6ca786349b287d0d8c40f19d9d0c5c139ad53b04d91798c729c7640377491"}, "vout": 0, "txid": "c293356ec60c8cf688123bb05a89a9d8131e74dfbf7f5e634d5d7a3ccab6d580"}, {"sequence": 4294967295, "scriptSig": {"hex": "483045022100efb6895f80307251f8d022a03c7fe2cdfd30141d8a8c5967ce484bee2293355002200cc2b6d4a2943d56a8ee5d7cc459ac0449e33a17c2c7762265b4589fe152d6960121025d8008385f04d5dfd8dc0190956162dcf7f70a5487fd0cfc3f94fd25227ed590", "asm": "3045022100efb6895f80307251f8d022a03c7fe2cdfd30141d8a8c5967ce484bee2293355002200cc2b6d4a2943d56a8ee5d7cc459ac0449e33a17c2c7762265b4589fe152d696[ALL] 025d8008385f04d5dfd8dc0190956162dcf7f70a5487fd0cfc3f94fd25227ed590"}, "vout": 0, "txid": "e611c55c36b2058bec6d928a42ddbc1113be8ffec1e7568b16c92087a39a4a2f"}], "txid": "02047570202f0b690fd10a97527336184d47056d5a0cea05c4b972633fe82b93", "blocktime": 1537871767, "version": 1, "confirmations": 11495, "time": 1537871767, "locktime": 0, "vsize": 633, "size": 633}