{"hash": "7222d2f31aad27622692dd5e545604b8fabfa4fb4d6b9f4f7a7202984259afc0", "blockhash": "0000000000000000001cda96e906b7601b7a6fb1a3b62bca570a9e5d8f4b3de1", "vout": [{"scriptPubKey": {"reqSigs": 1, "hex": "76a914d6171ff408a3cec2a9df29be1317469d7c17a78788ac", "addresses": ["1LX1Jnww4aDKYkDkS7tg93V1Q1mByujPXf"], "asm": "OP_DUP OP_HASH160 d6171ff408a3cec2a9df29be1317469d7c17a787 OP_EQUALVERIFY OP_CHECKSIG", "type": "pubkeyhash"}, "value": 0.01199863, "n": 0}], "hex": "01000000000101ae5309617833297dfe87383968e06cd0e33c9c7b436a04b79add4c6ca6cbb50d0100000017160014c7d2613b2785f5dbd1f374f51bba7acb1a8427b4ffffffff01f74e1200000000001976a914d6171ff408a3cec2a9df29be1317469d7c17a78788ac02483045022100a89fb946031307b35ca66126be8aa6a41664fb35a0b5bc2837997b0a56b45add0220647de5a20af1899247b2ea2ff17ddde84029165e0710c5478c8ca934f4c57b440121028decc44857c84a272394272f435468a5d691aa4f4db9fffc083ee4cc2a78161c00000000", "vin": [{"txinwitness": ["3045022100a89fb946031307b35ca66126be8aa6a41664fb35a0b5bc2837997b0a56b45add0220647de5a20af1899247b2ea2ff17ddde84029165e0710c5478c8ca934f4c57b4401", "028decc44857c84a272394272f435468a5d691aa4f4db9fffc083ee4cc2a78161c"], "sequence": 4294967295, "scriptSig": {"hex": "160014c7d2613b2785f5dbd1f374f51bba7acb1a8427b4", "asm": "0014c7d2613b2785f5dbd1f374f51bba7acb1a8427b4"}, "vout": 1, "txid": "0db5cba66c4cdd9ab7046a437b9c3ce3d06ce068393887fe7d293378610953ae"}], "txid": "020ed2cae12de305a40bc17152c6c0661e284a4adcc8f86a1e8f020f12ec3cf4", "blocktime": 1537873282, "version": 1, "confirmations": 11485, "time": 1537873282, "locktime": 0, "vsize": 136, "size": 218}