{"hash": "0210515e61948dd2a09da6a26e1029c274ae7f97131e48985df1c4fc5e663db6", "blockhash": "0000000000000000000e13cef7c366c0283d82e591d1acd082e914b08063cdf1", "vout": [{"scriptPubKey": {"reqSigs": 1, "hex": "76a9144251a273c127d24985643dc02c63b572d8f1670488ac", "addresses": ["173fPjPLkB2veSkbaUnfmYo2izXk56MDuF"], "asm": "OP_DUP OP_HASH160 4251a273c127d24985643dc02c63b572d8f16704 OP_EQUALVERIFY OP_CHECKSIG", "type": "pubkeyhash"}, "value": 0.00015568, "n": 0}, {"scriptPubKey": {"reqSigs": 1, "hex": "a914b6c4f56be2d33f28d4c0c8e696f578690ea1f5ee87", "addresses": ["3JMQrPKnuAxWxjSBHDZ6WSk8PzDimjdrZZ"], "asm": "OP_HASH160 b6c4f56be2d33f28d4c0c8e696f578690ea1f5ee OP_EQUAL", "type": "scripthash"}, "value": 0.0046905, "n": 1}], "hex": "010000000315f45f823795dfac520aab3ce0f3e956f34fea907ed3e719d438f3227dfc6e27000000006a47304402204075fd6ccde964aa0dad000aa9d1b7ce14f5760982bcd619ef1d796691f744cc02205d73d9ee4dc5737fb35976f9ca814788a1d8ba71f56d46fed814062ec3654698012103ffe45a96f1f9ba184c6673ca2fea175cccfce6bb195796a592c9efd063158536ffffffff3ba44d3a21eb015a5e5f9c50843a30e69006a696218798eb6e28ab838216323b000000006a47304402203ed7e5a481c2389c42b842247e8e4ef728023c9eef41f58ebd5fd97c3dc8528c022058879e5dba14a803b7b0bc6a4a328c92f205629c10d77cd9d4088422225f9b5f01210241809edf5a0231bc6f147f0e3a069da2555394b48c58a27db2f68be965af00f0ffffffffab63875ca3537c8e2150b3e46fb177bcb8013676aa5778913eed78d219083853000000006a4730440220468748dddc91957d1031221766e8ea6fb9812414c91dba8eddc8e78cc9aa0a020220762813a878f66cec1dd6c6db829c565e1be7f4bb9f068fd879bcb7863ec86ba9012102e7c4824a6dc32b351763fe90a01c9bcc06d5b5e566f76fed204e9eb5fc3c906affffffff02d03c0000000000001976a9144251a273c127d24985643dc02c63b572d8f1670488ac3a2807000000000017a914b6c4f56be2d33f28d4c0c8e696f578690ea1f5ee8700000000", "vin": [{"sequence": 4294967295, "scriptSig": {"hex": "47304402204075fd6ccde964aa0dad000aa9d1b7ce14f5760982bcd619ef1d796691f744cc02205d73d9ee4dc5737fb35976f9ca814788a1d8ba71f56d46fed814062ec3654698012103ffe45a96f1f9ba184c6673ca2fea175cccfce6bb195796a592c9efd063158536", "asm": "304402204075fd6ccde964aa0dad000aa9d1b7ce14f5760982bcd619ef1d796691f744cc02205d73d9ee4dc5737fb35976f9ca814788a1d8ba71f56d46fed814062ec3654698[ALL] 03ffe45a96f1f9ba184c6673ca2fea175cccfce6bb195796a592c9efd063158536"}, "vout": 0, "txid": "276efc7d22f338d419e7d37e90ea4ff356e9f3e03cab0a52acdf9537825ff415"}, {"sequence": 4294967295, "scriptSig": {"hex": "47304402203ed7e5a481c2389c42b842247e8e4ef728023c9eef41f58ebd5fd97c3dc8528c022058879e5dba14a803b7b0bc6a4a328c92f205629c10d77cd9d4088422225f9b5f01210241809edf5a0231bc6f147f0e3a069da2555394b48c58a27db2f68be965af00f0", "asm": "304402203ed7e5a481c2389c42b842247e8e4ef728023c9eef41f58ebd5fd97c3dc8528c022058879e5dba14a803b7b0bc6a4a328c92f205629c10d77cd9d4088422225f9b5f[ALL] 0241809edf5a0231bc6f147f0e3a069da2555394b48c58a27db2f68be965af00f0"}, "vout": 0, "txid": "3b32168283ab286eeb98872196a60690e6303a84509c5f5e5a01eb213a4da43b"}, {"sequence": 4294967295, "scriptSig": {"hex": "4730440220468748dddc91957d1031221766e8ea6fb9812414c91dba8eddc8e78cc9aa0a020220762813a878f66cec1dd6c6db829c565e1be7f4bb9f068fd879bcb7863ec86ba9012102e7c4824a6dc32b351763fe90a01c9bcc06d5b5e566f76fed204e9eb5fc3c906a", "asm": "30440220468748dddc91957d1031221766e8ea6fb9812414c91dba8eddc8e78cc9aa0a020220762813a878f66cec1dd6c6db829c565e1be7f4bb9f068fd879bcb7863ec86ba9[ALL] 02e7c4824a6dc32b351763fe90a01c9bcc06d5b5e566f76fed204e9eb5fc3c906a"}, "vout": 0, "txid": "53380819d278ed3e917857aa763601b8bc77b16fe4b350218e7c53a35c8763ab"}], "txid": "0210515e61948dd2a09da6a26e1029c274ae7f97131e48985df1c4fc5e663db6", "blocktime": 1537871767, "version": 1, "confirmations": 11492, "time": 1537871767, "locktime": 0, "vsize": 517, "size": 517}