{"hash": "0214e40dd6378c52b4130d5b92b27a34dc3458460af4d63bb16f859c3b682fd0", "blockhash": "0000000000000000001cda96e906b7601b7a6fb1a3b62bca570a9e5d8f4b3de1", "vout": [{"scriptPubKey": {"reqSigs": 1, "hex": "76a9140a6b825daa1b89f8e100ed8eec6d79b592500f4988ac", "addresses": ["1x6YnuBVeeE65dQRZztRWgUPwyBjHCA5g"], "asm": "OP_DUP OP_HASH160 0a6b825daa1b89f8e100ed8eec6d79b592500f49 OP_EQUALVERIFY OP_CHECKSIG", "type": "pubkeyhash"}, "value": 0.44596166, "n": 0}, {"scriptPubKey": {"reqSigs": 1, "hex": "76a9141175e58629f92abf1f4f0fd0f4d028820183843388ac", "addresses": ["12bKirpfBwgfWFqshJhqfk37ECTJAsNni8"], "asm": "OP_DUP OP_HASH160 1175e58629f92abf1f4f0fd0f4d0288201838433 OP_EQUALVERIFY OP_CHECKSIG", "type": "pubkeyhash"}, "value": 5.46e-06, "n": 1}, {"scriptPubKey": {"type": "nulldata", "hex": "6a146f6d6e69000000000000001f00000002d72d3a00", "asm": "OP_RETURN 6f6d6e69000000000000001f00000002d72d3a00"}, "value": 0.0, "n": 2}], "hex": "01000000010b8a7bd82f0d8a9e17d3d9b11b87022409fa5fea10f504245612b3b18a0216e4000000006a47304402204f1d33d2237dfe3309882b6369fe79fdfe2b68f0c220f9dad753b460c055f2ac022030d2b5a9c3a48e59a75ec6aca84863d20f78b1047b00ae24e5d83b86dba47715012103fe02b06a6bfd9b5a83e0417430a3235a39a0b4c7973591ca27ac58f6474d9120ffffffff03c67ba802000000001976a9140a6b825daa1b89f8e100ed8eec6d79b592500f4988ac22020000000000001976a9141175e58629f92abf1f4f0fd0f4d028820183843388ac0000000000000000166a146f6d6e69000000000000001f00000002d72d3a0000000000", "vin": [{"sequence": 4294967295, "scriptSig": {"hex": "47304402204f1d33d2237dfe3309882b6369fe79fdfe2b68f0c220f9dad753b460c055f2ac022030d2b5a9c3a48e59a75ec6aca84863d20f78b1047b00ae24e5d83b86dba47715012103fe02b06a6bfd9b5a83e0417430a3235a39a0b4c7973591ca27ac58f6474d9120", "asm": "304402204f1d33d2237dfe3309882b6369fe79fdfe2b68f0c220f9dad753b460c055f2ac022030d2b5a9c3a48e59a75ec6aca84863d20f78b1047b00ae24e5d83b86dba47715[ALL] 03fe02b06a6bfd9b5a83e0417430a3235a39a0b4c7973591ca27ac58f6474d9120"}, "vout": 0, "txid": "e416028ab1b312562404f510ea5ffa092402871bb1d9d3179e8a0d2fd87b8a0b"}], "txid": "0214e40dd6378c52b4130d5b92b27a34dc3458460af4d63bb16f859c3b682fd0", "blocktime": 1537873282, "version": 1, "confirmations": 11480, "time": 1537873282, "locktime": 0, "vsize": 256, "size": 256}