{"hash": "021673375fcc24dfa06e2833fc3dc7c89150a615cacf0a5068862e91fc09d96d", "blockhash": "0000000000000000001e0dab787dd257d1dbfcb92a98c2207d5e1078be1f4165", "vout": [{"scriptPubKey": {"reqSigs": 1, "hex": "76a914b8e316bf693bfd81315345f44d39d138d79bbe0488ac", "addresses": ["1HrbNi2HedzH3SFfJ3vBuVS1WyWRQ8B12r"], "asm": "OP_DUP OP_HASH160 b8e316bf693bfd81315345f44d39d138d79bbe04 OP_EQUALVERIFY OP_CHECKSIG", "type": "pubkeyhash"}, "value": 0.094619, "n": 0}, {"scriptPubKey": {"reqSigs": 1, "hex": "76a914637cfa024df1d7edfa41cbd2fab4f61438dbe8b088ac", "addresses": ["1A53cX1hdnzpYXFvPFWhvNjtR5qKWnQejs"], "asm": "OP_DUP OP_HASH160 637cfa024df1d7edfa41cbd2fab4f61438dbe8b0 OP_EQUALVERIFY OP_CHECKSIG", "type": "pubkeyhash"}, "value": 0.01, "n": 1}], "hex": "01000000027f8fd42f67932f6dcc355d7cf3f12d4f6777d6fb1c9e939e8a1f85e60d4f8b63000000006b483045022100d8bfc08be686be4fba3f5d472100e1d54cb821f0aa8528eebfac823c49bbe98502205f3b0cd5a9376efc8429ded50358b97a8cc7ada7a01756642f388baa73625bab012102a38ff45999013dd728e8212b411e4e0e4a036facfff1e3358f1189c927ea1476ffffffffc5743657b5792d2b566efab74b8498c14a4373074e491553c6bb3ae25960a55e000000006a47304402200462c6402804fbceb8411808dc6ff72b88b4537875b311ea9ee2ff070e7d09bd022047b2c3414183a8b0f85b06afe226b7af3a30e41131334b852d2aab5c1e980cd50121038f842d30a3f7ff7ee5a6659f4edb8951dd9a8b82ca47f59a0fc29ce065aa4d11ffffffff028c609000000000001976a914b8e316bf693bfd81315345f44d39d138d79bbe0488ac40420f00000000001976a914637cfa024df1d7edfa41cbd2fab4f61438dbe8b088ac00000000", "vin": [{"sequence": 4294967295, "scriptSig": {"hex": "483045022100d8bfc08be686be4fba3f5d472100e1d54cb821f0aa8528eebfac823c49bbe98502205f3b0cd5a9376efc8429ded50358b97a8cc7ada7a01756642f388baa73625bab012102a38ff45999013dd728e8212b411e4e0e4a036facfff1e3358f1189c927ea1476", "asm": "3045022100d8bfc08be686be4fba3f5d472100e1d54cb821f0aa8528eebfac823c49bbe98502205f3b0cd5a9376efc8429ded50358b97a8cc7ada7a01756642f388baa73625bab[ALL] 02a38ff45999013dd728e8212b411e4e0e4a036facfff1e3358f1189c927ea1476"}, "vout": 0, "txid": "638b4f0de6851f8a9e939e1cfbd677674f2df1f37c5d35cc6d2f93672fd48f7f"}, {"sequence": 4294967295, "scriptSig": {"hex": "47304402200462c6402804fbceb8411808dc6ff72b88b4537875b311ea9ee2ff070e7d09bd022047b2c3414183a8b0f85b06afe226b7af3a30e41131334b852d2aab5c1e980cd50121038f842d30a3f7ff7ee5a6659f4edb8951dd9a8b82ca47f59a0fc29ce065aa4d11", "asm": "304402200462c6402804fbceb8411808dc6ff72b88b4537875b311ea9ee2ff070e7d09bd022047b2c3414183a8b0f85b06afe226b7af3a30e41131334b852d2aab5c1e980cd5[ALL] 038f842d30a3f7ff7ee5a6659f4edb8951dd9a8b82ca47f59a0fc29ce065aa4d11"}, "vout": 0, "txid": "5ea56059e23abbc65315494e0773434ac198844bb7fa6e562b2d79b5573674c5"}], "txid": "021673375fcc24dfa06e2833fc3dc7c89150a615cacf0a5068862e91fc09d96d", "blocktime": 1537872475, "version": 1, "confirmations": 11487, "time": 1537872475, "locktime": 0, "vsize": 373, "size": 373}