{"hash": "d81cb225d39ba98de3cf8610ca6ad4c64b303eb4fc000fe905abf6333f25aef1", "blockhash": "0000000000000000001f76057863aec43deb6fa401d9628bb513d65a8098bfab", "vout": [{"scriptPubKey": {"reqSigs": 1, "hex": "76a914368350fc3800143a4f2e6ba7f6ad7af004ed4dbd88ac", "addresses": ["15yEoNxvvWJ7ts7MYVc43kNmxh3UkWJeMi"], "asm": "OP_DUP OP_HASH160 368350fc3800143a4f2e6ba7f6ad7af004ed4dbd OP_EQUALVERIFY OP_CHECKSIG", "type": "pubkeyhash"}, "value": 0.0024686, "n": 0}, {"scriptPubKey": {"reqSigs": 1, "hex": "a914161ed0f24b4f0593f4df159a7de652f278abbf1587", "addresses": ["33hyhune6fSEaPc7ziysLYyFqqnyxjuD6R"], "asm": "OP_HASH160 161ed0f24b4f0593f4df159a7de652f278abbf15 OP_EQUAL", "type": "scripthash"}, "value": 0.00999817, "n": 1}], "hex": "020000000001022d937e2edc71e14bcf9ff283e492b8cd8bf83e3577d87e712d7696467c80b1d601000000171600143041db7bec4f0ac0aa377b96d2f41c627c8f6871feffffff782df87850db0bb4b226a4f068e06ab2bd88c0c992868ddd3231540049e751cc01000000171600149aaa1eddb4eef3931a9573264bacdf71f99a6106feffffff024cc40300000000001976a914368350fc3800143a4f2e6ba7f6ad7af004ed4dbd88ac89410f000000000017a914161ed0f24b4f0593f4df159a7de652f278abbf158702473044022024a0b7ea191513d2dd3f9e51259c57f0e60f24c6b8ec6e7a2f5b45b696dcf78b022060e68b06e21584e1155a84f6795cf3556455c88a60a0c7483263794b5bc6cb5c012103f78eba06d81726a7c2438476e726b9b862d22bf20f3238cc5a8d6921a123237502473044022072d2acac6543d7eb17d5995f92565d80957cb26884a6e8a3d66d9da045c6bdc5022041c7618803ca1642b21873d799f44eafcd914caac3201a470e6a47c0e7f6a6cb012103fea904492f7ca7d489029078aec4a8c35e2dd1fb676d543d83ca05bde398f33814490800", "vin": [{"txinwitness": ["3044022024a0b7ea191513d2dd3f9e51259c57f0e60f24c6b8ec6e7a2f5b45b696dcf78b022060e68b06e21584e1155a84f6795cf3556455c88a60a0c7483263794b5bc6cb5c01", "03f78eba06d81726a7c2438476e726b9b862d22bf20f3238cc5a8d6921a1232375"], "sequence": 4294967294, "scriptSig": {"hex": "1600143041db7bec4f0ac0aa377b96d2f41c627c8f6871", "asm": "00143041db7bec4f0ac0aa377b96d2f41c627c8f6871"}, "vout": 1, "txid": "d6b1807c4696762d717ed877353ef88bcdb892e483f29fcf4be171dc2e7e932d"}, {"txinwitness": ["3044022072d2acac6543d7eb17d5995f92565d80957cb26884a6e8a3d66d9da045c6bdc5022041c7618803ca1642b21873d799f44eafcd914caac3201a470e6a47c0e7f6a6cb01", "03fea904492f7ca7d489029078aec4a8c35e2dd1fb676d543d83ca05bde398f338"], "sequence": 4294967294, "scriptSig": {"hex": "1600149aaa1eddb4eef3931a9573264bacdf71f99a6106", "asm": "00149aaa1eddb4eef3931a9573264bacdf71f99a6106"}, "vout": 1, "txid": "cc51e74900543132dd8d8692c9c088bdb26ae068f0a426b2b40bdb5078f82d78"}], "txid": "021a3d4c5dec152c44d1edca5dfbefb856b81870250b38d72536bd10e31d403b", "blocktime": 1537873891, "version": 2, "confirmations": 11478, "time": 1537873891, "locktime": 542996, "vsize": 258, "size": 420}