{"hash": "02265f3a776d881adee65d4a3ba9be76bbf6556602b54fb8ebcc20f0c52b3067", "blockhash": "000000000000000000205f8b0775d31398ef75b89a5e8ec8d2c57b4dc0ac4c20", "vout": [{"scriptPubKey": {"reqSigs": 1, "hex": "76a91405f94fec57fcd43278e5366a82999ef451a2f99388ac", "addresses": ["1Yb3UXD3zvxrkneDNyV25o9trFu1B1uxu"], "asm": "OP_DUP OP_HASH160 05f94fec57fcd43278e5366a82999ef451a2f993 OP_EQUALVERIFY OP_CHECKSIG", "type": "pubkeyhash"}, "value": 0.00925493, "n": 0}, {"scriptPubKey": {"reqSigs": 1, "hex": "76a914ac590b77e38caadd1c0ab71fec3bc7308c8b883388ac", "addresses": ["1GiHtwHGJTBjwK7JBqRb37nTgymraZ74dX"], "asm": "OP_DUP OP_HASH160 ac590b77e38caadd1c0ab71fec3bc7308c8b8833 OP_EQUALVERIFY OP_CHECKSIG", "type": "pubkeyhash"}, "value": 0.00365156, "n": 1}], "hex": "0200000002c94e8c74799a572d24733441d7acd5866318465b896cb2281c09bcbeded89f05660000006a473044022044d00cce3ecb8f60e98a049c6ba076308b2634d7f79a256d7902cf2635ae36ae02205b3311d2d254b50e3d75ec93570a5b3ed58e020207a6c6dc979aa089547fd4ab012103955c05663201f385cb1b1ba3edc3de77df07ec840cb556c80230e56a810308b4feffffffe909dbbfeb5684888db66efdb0383cdb8237ce3c87b5db73f34f74817909a292040000006b4830450221009b50eab0f19362abd62a2e953a8dcd0cf953196d73caec73b08e13da97e2df55022071f65199c849e6b44195c11238065d04d038461b0104d8d0c0b763386227afa1012102304f4e3b7af10f0de88add5859bea1d0ac6c1bff4aacda718cf319735c413448feffffff02351f0e00000000001976a91405f94fec57fcd43278e5366a82999ef451a2f99388ac64920500000000001976a914ac590b77e38caadd1c0ab71fec3bc7308c8b883388ac0f490800", "vin": [{"sequence": 4294967294, "scriptSig": {"hex": "473044022044d00cce3ecb8f60e98a049c6ba076308b2634d7f79a256d7902cf2635ae36ae02205b3311d2d254b50e3d75ec93570a5b3ed58e020207a6c6dc979aa089547fd4ab012103955c05663201f385cb1b1ba3edc3de77df07ec840cb556c80230e56a810308b4", "asm": "3044022044d00cce3ecb8f60e98a049c6ba076308b2634d7f79a256d7902cf2635ae36ae02205b3311d2d254b50e3d75ec93570a5b3ed58e020207a6c6dc979aa089547fd4ab[ALL] 03955c05663201f385cb1b1ba3edc3de77df07ec840cb556c80230e56a810308b4"}, "vout": 102, "txid": "059fd8debebc091c28b26c895b46186386d5acd7413473242d579a79748c4ec9"}, {"sequence": 4294967294, "scriptSig": {"hex": "4830450221009b50eab0f19362abd62a2e953a8dcd0cf953196d73caec73b08e13da97e2df55022071f65199c849e6b44195c11238065d04d038461b0104d8d0c0b763386227afa1012102304f4e3b7af10f0de88add5859bea1d0ac6c1bff4aacda718cf319735c413448", "asm": "30450221009b50eab0f19362abd62a2e953a8dcd0cf953196d73caec73b08e13da97e2df55022071f65199c849e6b44195c11238065d04d038461b0104d8d0c0b763386227afa1[ALL] 02304f4e3b7af10f0de88add5859bea1d0ac6c1bff4aacda718cf319735c413448"}, "vout": 4, "txid": "92a2097981744ff373dbb5873cce3782db3c38b0fd6eb68d888456ebbfdb09e9"}], "txid": "02265f3a776d881adee65d4a3ba9be76bbf6556602b54fb8ebcc20f0c52b3067", "blocktime": 1537871175, "version": 2, "confirmations": 11510, "time": 1537871175, "locktime": 542991, "vsize": 373, "size": 373}