{"hash": "71d8b3261bea43e0ea5b8b179a0648b4bfb71e5dc1443545249a6fc2d4ab307a", "blockhash": "00000000000000000004ffacab907a6b429b9a5745fa0b75af4234bf69dd7176", "vout": [{"scriptPubKey": {"reqSigs": 1, "hex": "a9146c5852992eaef0948c59d35ac270d8b00526de9a87", "addresses": ["3BZti2WCRvuS2tCoMVZvTSWLvRcjRrMpSd"], "asm": "OP_HASH160 6c5852992eaef0948c59d35ac270d8b00526de9a OP_EQUAL", "type": "scripthash"}, "value": 0.10513707, "n": 0}, {"scriptPubKey": {"reqSigs": 1, "hex": "76a9146d6fc6e65d059fd43dbc749f24699be369542f1e88ac", "addresses": ["1AyeZJtEh7up6q1kLA9emf2SPRBpUefvx8"], "asm": "OP_DUP OP_HASH160 6d6fc6e65d059fd43dbc749f24699be369542f1e OP_EQUALVERIFY OP_CHECKSIG", "type": "pubkeyhash"}, "value": 0.01171, "n": 1}, {"scriptPubKey": {"reqSigs": 1, "hex": "a914fc172c30aa5981f81ab34044aacd2146d748d1e887", "addresses": ["3Qfwxws17Pi5Hwnft5dLxyPivNVbfqKPpe"], "asm": "OP_HASH160 fc172c30aa5981f81ab34044aacd2146d748d1e8 OP_EQUAL", "type": "scripthash"}, "value": 0.00712698, "n": 2}, {"scriptPubKey": {"reqSigs": 1, "hex": "a91461c4d6f654b87a82809495b95a692a8bb3efd09c87", "addresses": ["3AbyGp7jxyvET2UdejpfMFfacJH38n8Unp"], "asm": "OP_HASH160 61c4d6f654b87a82809495b95a692a8bb3efd09c OP_EQUAL", "type": "scripthash"}, "value": 0.00328574, "n": 3}, {"scriptPubKey": {"reqSigs": 1, "hex": "a914136135ffa3aa939f4cc5bd81c4bbb227a54446a587", "addresses": ["33TVDXFwMKR29yLvipQvbz1fD8oe1u765X"], "asm": "OP_HASH160 136135ffa3aa939f4cc5bd81c4bbb227a54446a5 OP_EQUAL", "type": "scripthash"}, "value": 0.00249978, "n": 4}, {"scriptPubKey": {"reqSigs": 1, "hex": "a9144f9d82c17408df4cfd2f1d5d8c434d6eaf0647b987", "addresses": ["38wyzjmK3koKJwE9ACta1BkysJTKSfJKw4"], "asm": "OP_HASH160 4f9d82c17408df4cfd2f1d5d8c434d6eaf0647b9 OP_EQUAL", "type": "scripthash"}, "value": 0.00526301, "n": 5}, {"scriptPubKey": {"reqSigs": 1, "hex": "a914a1c870a8200dee30e6bdf9263f32a70461772b2987", "addresses": ["3GSSqFMhLWcaDE8XUk2NtdQNuGbjsUgtck"], "asm": "OP_HASH160 a1c870a8200dee30e6bdf9263f32a70461772b29 OP_EQUAL", "type": "scripthash"}, "value": 0.00023638, "n": 6}, {"scriptPubKey": {"reqSigs": 1, "hex": "76a9143716101bf0136517f9f5962c49e6048ceb0097e288ac", "addresses": ["162GbWZX6wErXasrHPK6bctKH5NKfxSEYL"], "asm": "OP_DUP OP_HASH160 3716101bf0136517f9f5962c49e6048ceb0097e2 OP_EQUALVERIFY OP_CHECKSIG", "type": "pubkeyhash"}, "value": 0.05761679, "n": 7}, {"scriptPubKey": {"reqSigs": 1, "hex": "a914c2931ec9f7cc5997abb4123592667aac9a1bf0d287", "addresses": ["3KRqFrWMcnYBEU2kncJziPAhWHuf7saTgf"], "asm": "OP_HASH160 c2931ec9f7cc5997abb4123592667aac9a1bf0d2 OP_EQUAL", "type": "scripthash"}, "value": 0.033796, "n": 8}, {"scriptPubKey": {"reqSigs": 1, "hex": "76a9143ebbeb448b336182607297b0b4a274aca8bafa8788ac", "addresses": ["16ii1jfJpdpKE6SAN6E9fHirRd4ryzwoo3"], "asm": "OP_DUP OP_HASH160 3ebbeb448b336182607297b0b4a274aca8bafa87 OP_EQUALVERIFY OP_CHECKSIG", "type": "pubkeyhash"}, "value": 0.00288103, "n": 9}, {"scriptPubKey": {"reqSigs": 1, "hex": "a914437da4ac9ca96f5eccaba7a3d26d70ab1a76560887", "addresses": ["37qsiF3uq6sCMPNgjqQDveDej7uMwjUcah"], "asm": "OP_HASH160 437da4ac9ca96f5eccaba7a3d26d70ab1a765608 OP_EQUAL", "type": "scripthash"}, "value": 0.00224886, "n": 10}, {"scriptPubKey": {"reqSigs": 1, "hex": "a914bfd4283fd78ca670d6a309500b87a86762362adc87", "addresses": ["3KBK98FBwAbDCufmG7mA6QvzjousqvGjwF"], "asm": "OP_HASH160 bfd4283fd78ca670d6a309500b87a86762362adc OP_EQUAL", "type": "scripthash"}, "value": 13.21791392, "n": 11}, {"scriptPubKey": {"reqSigs": 1, "hex": "a91456e625f4ab95749955891f167dd342b6d009289a87", "addresses": ["39cVk2HQrZ3E7wLUED6hjdKjsa6hPMHJEB"], "asm": "OP_HASH160 56e625f4ab95749955891f167dd342b6d009289a OP_EQUAL", "type": "scripthash"}, "value": 0.01228737, "n": 12}, {"scriptPubKey": {"reqSigs": 1, "hex": "a9142cbefc15cc08188db000c251264cd69b782109e887", "addresses": ["35mcSqMDUcqN3wrrBvCHEQ8VTQkpSgfczu"], "asm": "OP_HASH160 2cbefc15cc08188db000c251264cd69b782109e8 OP_EQUAL", "type": "scripthash"}, "value": 0.00293507, "n": 13}, {"scriptPubKey": {"reqSigs": 1, "hex": "a914f38e353398168f0fbb5d8b0cb5a7df68cbb006ca87", "addresses": ["3PtpUvx8UVRoCtuKniCBmvSH1gCyr7uzw8"], "asm": "OP_HASH160 f38e353398168f0fbb5d8b0cb5a7df68cbb006ca OP_EQUAL", "type": "scripthash"}, "value": 0.00245899, "n": 14}, {"scriptPubKey": {"reqSigs": 1, "hex": "76a91468ad8bcd4aa504357a1336658a3c7a7fd32e945888ac", "addresses": ["1AYVB9QMSfS9Lst2bwPBgJhJnS6xCDM7MS"], "asm": "OP_DUP OP_HASH160 68ad8bcd4aa504357a1336658a3c7a7fd32e9458 OP_EQUALVERIFY OP_CHECKSIG", "type": "pubkeyhash"}, "value": 0.00156613, "n": 15}, {"scriptPubKey": {"reqSigs": 1, "hex": "a9140b0b0a03af976f5f9c4d3127d720e0e95936b43c87", "addresses": ["32hQafYLhSqJkxvTRu9aaZKCPzg3YvAedB"], "asm": "OP_HASH160 0b0b0a03af976f5f9c4d3127d720e0e95936b43c OP_EQUAL", "type": "scripthash"}, "value": 0.0049196, "n": 16}, {"scriptPubKey": {"reqSigs": 1, "hex": "a914d9311fd4b3e0b540d86360c8165ffe98438a63ad87", "addresses": ["3MVRQPZqoDNo8Mbp4s1a1bHRhowEGowwN8"], "asm": "OP_HASH160 d9311fd4b3e0b540d86360c8165ffe98438a63ad OP_EQUAL", "type": "scripthash"}, "value": 0.04721335, "n": 17}, {"scriptPubKey": {"reqSigs": 1, "hex": "a9142a7a53505744c0d07098937f66c4c98867d4ac2887", "addresses": ["35ZcqvQH42gtB43aZSsDtnRPFpZUAGvviW"], "asm": "OP_HASH160 2a7a53505744c0d07098937f66c4c98867d4ac28 OP_EQUAL", "type": "scripthash"}, "value": 0.0002847, "n": 18}, {"scriptPubKey": {"reqSigs": 1, "hex": "a9147fe56dd4fe5738489300898a4d3eff6d3d3cc49787", "addresses": ["3DMGav1ZANYTKwLZn6d4tX8h3kXeAqi2nm"], "asm": "OP_HASH160 7fe56dd4fe5738489300898a4d3eff6d3d3cc497 OP_EQUAL", "type": "scripthash"}, "value": 0.00299318, "n": 19}, {"scriptPubKey": {"reqSigs": 1, "hex": "a914939ad08e6580517e8f584c5c11be59ff95346ec887", "addresses": ["3F9UiTLS83grxJhndhhBot65eh4EQ2xcSM"], "asm": "OP_HASH160 939ad08e6580517e8f584c5c11be59ff95346ec8 OP_EQUAL", "type": "scripthash"}, "value": 0.00246953, "n": 20}, {"scriptPubKey": {"reqSigs": 1, "hex": "a914e2b9b4489a734ea18240bfeedfae1b91196a135987", "addresses": ["3NMq6rUCgfYNK4uCsgyQ2vfHMPoXHUx43a"], "asm": "OP_HASH160 e2b9b4489a734ea18240bfeedfae1b91196a1359 OP_EQUAL", "type": "scripthash"}, "value": 0.00776283, "n": 21}, {"scriptPubKey": {"reqSigs": 1, "hex": "a914738782700d970625c392b71e9adcf6270e05c46887", "addresses": ["3CDsxyGSVYHyTAtvq1Y8NSTRTZJJDCQbJE"], "asm": "OP_HASH160 738782700d970625c392b71e9adcf6270e05c468 OP_EQUAL", "type": "scripthash"}, "value": 0.00327588, "n": 22}, {"scriptPubKey": {"reqSigs": 1, "hex": "a914dc80e17360a8cea7f81e7bc11274feb1f1d6ecfb87", "addresses": ["3MnvyXpSjNXHBfLMzQzk5t1RKwK7THwPEt"], "asm": "OP_HASH160 dc80e17360a8cea7f81e7bc11274feb1f1d6ecfb OP_EQUAL", "type": "scripthash"}, "value": 0.00329833, "n": 23}, {"scriptPubKey": {"reqSigs": 1, "hex": "a9149e9485d24c33e6b2fd5685093a67007b2c1c8b1f87", "addresses": ["3G9WcPoCCDP5hcY9SQCXqbNVXxXmw9ELA3"], "asm": "OP_HASH160 9e9485d24c33e6b2fd5685093a67007b2c1c8b1f OP_EQUAL", "type": "scripthash"}, "value": 0.00381946, "n": 24}, {"scriptPubKey": {"reqSigs": 1, "hex": "a91406f67e7f841de260380f39ff07bea79ab9ccae2787", "addresses": ["32KqGQadXUGyA17H72cY8nDsEqjqpbNiUH"], "asm": "OP_HASH160 06f67e7f841de260380f39ff07bea79ab9ccae27 OP_EQUAL", "type": "scripthash"}, "value": 0.068, "n": 25}, {"scriptPubKey": {"reqSigs": 1, "hex": "a91487b835efc67eb0c29c359ac8a24829dd3a0253e687", "addresses": ["3E4dpd9KyDkgixbE3g9gYV3CeFg3zk8ike"], "asm": "OP_HASH160 87b835efc67eb0c29c359ac8a24829dd3a0253e6 OP_EQUAL", "type": "scripthash"}, "value": 0.05, "n": 26}, {"scriptPubKey": {"reqSigs": 1, "hex": "a914f3e64de67259eef36bb5b431cfb7cc4ab637553987", "addresses": ["3Pve1ytbq9fYSSAaYGYViArCHVqNgBv5MG"], "asm": "OP_HASH160 f3e64de67259eef36bb5b431cfb7cc4ab6375539 OP_EQUAL", "type": "scripthash"}, "value": 0.0066, "n": 27}, {"scriptPubKey": {"reqSigs": 1, "hex": "a914150c6073ce554bb35e3538533f1b58669e1312df87", "addresses": ["33cJwXQW23Prdstsm9ZbCzAZKYM8Btvt4s"], "asm": "OP_HASH160 150c6073ce554bb35e3538533f1b58669e1312df OP_EQUAL", "type": "scripthash"}, "value": 0.02824314, "n": 28}, {"scriptPubKey": {"reqSigs": 1, "hex": "76a9144dceb4e6f9c032cfd9874e446b096b5d531f027088ac", "addresses": ["186Qf13TRfinytKdW4XW1ZFaZ9M2nnF9sB"], "asm": "OP_DUP OP_HASH160 4dceb4e6f9c032cfd9874e446b096b5d531f0270 OP_EQUALVERIFY OP_CHECKSIG", "type": "pubkeyhash"}, "value": 0.00828838, "n": 29}, {"scriptPubKey": {"reqSigs": 1, "hex": "a914de28d574d56799fa0f9cc3fab16c63bf51b799ae87", "addresses": ["3MwgrK7zxFagRLti9bMLHKb5fDvB5N9tQs"], "asm": "OP_HASH160 de28d574d56799fa0f9cc3fab16c63bf51b799ae OP_EQUAL", "type": "scripthash"}, "value": 0.0028546, "n": 30}, {"scriptPubKey": {"reqSigs": 1, "hex": "a9143f9cf923979ed9f3f2be0854485af6aa52a0e9c787", "addresses": ["37VNYKQa27r4GswMrZ3KkBt95a9B3E9bPE"], "asm": "OP_HASH160 3f9cf923979ed9f3f2be0854485af6aa52a0e9c7 OP_EQUAL", "type": "scripthash"}, "value": 0.00443561, "n": 31}, {"scriptPubKey": {"reqSigs": 1, "hex": "a914cacc096b25946566cceb5cdda63d0b181af3b89987", "addresses": ["3LBJr21mBCDi7kjV6p6vZeYRncVXoBPmzf"], "asm": "OP_HASH160 cacc096b25946566cceb5cdda63d0b181af3b899 OP_EQUAL", "type": "scripthash"}, "value": 0.002954, "n": 32}], "hex": "020000000001016dd874738ad29cf6ffee2bf5c0eb6a2d29874eb93d0caba84ff5c81d88caf2480100000017160014d120d9e1dadf56de39d926b0f9c4710ee566537afeffffff212b6da0000000000017a9146c5852992eaef0948c59d35ac270d8b00526de9a8738de1100000000001976a9146d6fc6e65d059fd43dbc749f24699be369542f1e88acfadf0a000000000017a914fc172c30aa5981f81ab34044aacd2146d748d1e8877e0305000000000017a91461c4d6f654b87a82809495b95a692a8bb3efd09c877ad003000000000017a914136135ffa3aa939f4cc5bd81c4bbb227a54446a587dd0708000000000017a9144f9d82c17408df4cfd2f1d5d8c434d6eaf0647b987565c00000000000017a914a1c870a8200dee30e6bdf9263f32a70461772b29878fea5700000000001976a9143716101bf0136517f9f5962c49e6048ceb0097e288ac909133000000000017a914c2931ec9f7cc5997abb4123592667aac9a1bf0d28767650400000000001976a9143ebbeb448b336182607297b0b4a274aca8bafa8788ac766e03000000000017a914437da4ac9ca96f5eccaba7a3d26d70ab1a76560887a0efc84e0000000017a914bfd4283fd78ca670d6a309500b87a86762362adc87c1bf12000000000017a91456e625f4ab95749955891f167dd342b6d009289a87837a04000000000017a9142cbefc15cc08188db000c251264cd69b782109e8878bc003000000000017a914f38e353398168f0fbb5d8b0cb5a7df68cbb006ca87c5630200000000001976a91468ad8bcd4aa504357a1336658a3c7a7fd32e945888acb88107000000000017a9140b0b0a03af976f5f9c4d3127d720e0e95936b43c87b70a48000000000017a914d9311fd4b3e0b540d86360c8165ffe98438a63ad87366f00000000000017a9142a7a53505744c0d07098937f66c4c98867d4ac2887369104000000000017a9147fe56dd4fe5738489300898a4d3eff6d3d3cc49787a9c403000000000017a914939ad08e6580517e8f584c5c11be59ff95346ec8875bd80b000000000017a914e2b9b4489a734ea18240bfeedfae1b91196a135987a4ff04000000000017a914738782700d970625c392b71e9adcf6270e05c46887690805000000000017a914dc80e17360a8cea7f81e7bc11274feb1f1d6ecfb87fad305000000000017a9149e9485d24c33e6b2fd5685093a67007b2c1c8b1f8780c267000000000017a91406f67e7f841de260380f39ff07bea79ab9ccae2787404b4c000000000017a91487b835efc67eb0c29c359ac8a24829dd3a0253e68720120a000000000017a914f3e64de67259eef36bb5b431cfb7cc4ab6375539877a182b000000000017a914150c6073ce554bb35e3538533f1b58669e1312df87a6a50c00000000001976a9144dceb4e6f9c032cfd9874e446b096b5d531f027088ac145b04000000000017a914de28d574d56799fa0f9cc3fab16c63bf51b799ae87a9c406000000000017a9143f9cf923979ed9f3f2be0854485af6aa52a0e9c787e88104000000000017a914cacc096b25946566cceb5cdda63d0b181af3b8998702483045022100f0505cd1e67f5b5d4a19d2f5a8a57337c7d0a0aa1634e02c057cd6dc5a09d74a02201f321ee6e8d96a8afc80b0b9e6d07c79dd6c5a1f4ae9438ad0d7d7e4967a01780121034b33f655a84830135f0d36ab2644aaeb099ac6277adf5904de824d206c84e4b116490800", "vin": [{"txinwitness": ["3045022100f0505cd1e67f5b5d4a19d2f5a8a57337c7d0a0aa1634e02c057cd6dc5a09d74a02201f321ee6e8d96a8afc80b0b9e6d07c79dd6c5a1f4ae9438ad0d7d7e4967a017801", "034b33f655a84830135f0d36ab2644aaeb099ac6277adf5904de824d206c84e4b1"], "sequence": 4294967294, "scriptSig": {"hex": "160014d120d9e1dadf56de39d926b0f9c4710ee566537a", "asm": "0014d120d9e1dadf56de39d926b0f9c4710ee566537a"}, "vout": 1, "txid": "48f2ca881dc8f54fa8ab0c3db94e87292d6aebc0f52beefff69cd28a7374d86d"}], "txid": "0227833e5286db6b9f8c5d27c0523c5692881eff58628bfe02384bb1d99782da", "blocktime": 1537875543, "version": 2, "confirmations": 11464, "time": 1537875543, "locktime": 542998, "vsize": 1168, "size": 1250}