{"hash": "59ce50ba27e9213a055548d7eebcf58aebb6ec0ab74f27be710a3c6ce52ad836", "blockhash": "0000000000000000000baef3f32e3676a92c3b2e5da21b426e4f302fc371ce76", "vout": [{"scriptPubKey": {"reqSigs": 1, "hex": "76a914b705d696479cdc68c8bc94ece615b490b516703c88ac", "addresses": ["1HgjekdsTH1xzcNtuQQXbSGfkwtvVXMncT"], "asm": "OP_DUP OP_HASH160 b705d696479cdc68c8bc94ece615b490b516703c OP_EQUALVERIFY OP_CHECKSIG", "type": "pubkeyhash"}, "value": 0.00634263, "n": 0}, {"scriptPubKey": {"reqSigs": 1, "hex": "a914cfaabfe8c271f99a4364b5197ba50c6cddb7adb987", "addresses": ["3Ld4M9RPwEG3VeQbHcC1PsKUndQL7VYLZP"], "asm": "OP_HASH160 cfaabfe8c271f99a4364b5197ba50c6cddb7adb9 OP_EQUAL", "type": "scripthash"}, "value": 0.09874677, "n": 1}], "hex": "01000000000101cd41955313e79fb44395e8e19fe916c60b0e50dfe155a95261a418376efc344001000000232200202f7b4024602241b47d3306a6733d9889e4b6761d9f1cb82a18aa8b9ac4506e51ffffffff0297ad0900000000001976a914b705d696479cdc68c8bc94ece615b490b516703c88acf5ac96000000000017a914cfaabfe8c271f99a4364b5197ba50c6cddb7adb9870400483045022100cc6c7523113aa284be27a0d692fcebcc178715d79175737a03872073c296fca502206a54828368f716e8fa5d2eaf1d6ee7aaa0c89ed3d05a5323810775a849e14dbd0147304402205134b66b7bbe4715481174d3fe078171583b3ffb9443618d13f0150babc8e5fb0220580854b8048d63654e7912135a285bc54e6c3a70e7bd8016dcd2e187fa26f30f0147522102973cd851fecff3a20f08377b072729f303801eee1b7678668338adcaec770ec221033e4af03ed09dbd8a417ba042650d5bd1db7f14f271a8f660974e3abf1fdfa4da52ae00000000", "vin": [{"txinwitness": ["", "3045022100cc6c7523113aa284be27a0d692fcebcc178715d79175737a03872073c296fca502206a54828368f716e8fa5d2eaf1d6ee7aaa0c89ed3d05a5323810775a849e14dbd01", "304402205134b66b7bbe4715481174d3fe078171583b3ffb9443618d13f0150babc8e5fb0220580854b8048d63654e7912135a285bc54e6c3a70e7bd8016dcd2e187fa26f30f01", "522102973cd851fecff3a20f08377b072729f303801eee1b7678668338adcaec770ec221033e4af03ed09dbd8a417ba042650d5bd1db7f14f271a8f660974e3abf1fdfa4da52ae"], "sequence": 4294967295, "scriptSig": {"hex": "2200202f7b4024602241b47d3306a6733d9889e4b6761d9f1cb82a18aa8b9ac4506e51", "asm": "00202f7b4024602241b47d3306a6733d9889e4b6761d9f1cb82a18aa8b9ac4506e51"}, "vout": 1, "txid": "4034fc6e3718a46152a955e1df500e0bc616e99fe1e89543b49fe713539541cd"}], "txid": "0229077f31917abdb3efd8882776ac10d2c84b353aa3f49c9e90d5cfb52817eb", "blocktime": 1537876114, "version": 1, "confirmations": 11460, "time": 1537876114, "locktime": 0, "vsize": 208, "size": 373}