{"hash": "e95bc6065f47cc9a0b9978aa0df8caf4312233a8a1faa128eb64ece2afbcdaf3", "blockhash": "0000000000000000001e0dab787dd257d1dbfcb92a98c2207d5e1078be1f4165", "vout": [{"scriptPubKey": {"reqSigs": 1, "hex": "76a914c23f7dd98bd07c966c9593b104ae0b0142f7b57b88ac", "addresses": ["1Ji69gxKhWTzjxJC3P8NyWKwvWS8mLtZ4N"], "asm": "OP_DUP OP_HASH160 c23f7dd98bd07c966c9593b104ae0b0142f7b57b OP_EQUALVERIFY OP_CHECKSIG", "type": "pubkeyhash"}, "value": 0.027, "n": 0}, {"scriptPubKey": {"reqSigs": 1, "hex": "a914bddce1db77593a7ac8d67f0d488c4311d5103ffa87", "addresses": ["3JzvEy64J63pDv7KjyKsVzupMgKcwdgQU4"], "asm": "OP_HASH160 bddce1db77593a7ac8d67f0d488c4311d5103ffa OP_EQUAL", "type": "scripthash"}, "value": 0.0162146, "n": 1}], "hex": "020000000001017f96c845622a0fac67d6d29448454e7f43cacb117f883b79068c5c2d5b7143130300000017160014394c1d55120fea8442873d75d93263e22518f914ffffffff02e0322900000000001976a914c23f7dd98bd07c966c9593b104ae0b0142f7b57b88acd4bd18000000000017a914bddce1db77593a7ac8d67f0d488c4311d5103ffa870247304402200183807f986ce9a190b6f4958db1f7553b9ded73ae669f531d88a175550718a202205b94f842b1449b09523e906ed1af391ac68403762412aa5daf1a78c65d28cc37012103e196163b6d30d0fef27eff5bae2754a7ccba75d466b78c87116b6535bacce31b00000000", "vin": [{"txinwitness": ["304402200183807f986ce9a190b6f4958db1f7553b9ded73ae669f531d88a175550718a202205b94f842b1449b09523e906ed1af391ac68403762412aa5daf1a78c65d28cc3701", "03e196163b6d30d0fef27eff5bae2754a7ccba75d466b78c87116b6535bacce31b"], "sequence": 4294967295, "scriptSig": {"hex": "160014394c1d55120fea8442873d75d93263e22518f914", "asm": "0014394c1d55120fea8442873d75d93263e22518f914"}, "vout": 3, "txid": "1343715b2d5c8c06793b887f11cbca437f4e454894d2d667ac0f2a6245c8967f"}], "txid": "022e6d80c5f92ba6867dda39861c2fac9eea4fe14e124b908b258feb77246ddb", "blocktime": 1537872475, "version": 2, "confirmations": 11486, "time": 1537872475, "locktime": 0, "vsize": 168, "size": 249}