{"hash": "fe0649cd8a7137b490a492c127854eacfbfd82e78321bae71c4f5e9531d78832", "blockhash": "0000000000000000000dcc0f55137456b1a82d3642486a52398922ac4d620174", "vout": [{"scriptPubKey": {"reqSigs": 1, "hex": "76a9145bb0c841fda9816f6b4070832cf636a7006ef19d88ac", "addresses": ["19MpGWBV77ycKZ1d8jthGfnFiDpAAyXvav"], "asm": "OP_DUP OP_HASH160 5bb0c841fda9816f6b4070832cf636a7006ef19d OP_EQUALVERIFY OP_CHECKSIG", "type": "pubkeyhash"}, "value": 0.71428571, "n": 0}, {"scriptPubKey": {"reqSigs": 1, "hex": "001475277339e073f671d581e1e5a00b271cad67b2ab", "addresses": ["bc1qw5nhxw0qw0m8r4vpu8j6qze8rjkk0v4t7x62gk"], "asm": "0 75277339e073f671d581e1e5a00b271cad67b2ab", "type": "witness_v0_keyhash"}, "value": 0.02495498, "n": 1}], "hex": "01000000000101f5b285b24338859b1335eaff33f6b4e7ad522caeb9b7a621ddf07609b4e164e80000000000ffffffff02dbe94104000000001976a9145bb0c841fda9816f6b4070832cf636a7006ef19d88ac0a1426000000000016001475277339e073f671d581e1e5a00b271cad67b2ab02483045022100fe847177763d3e1e4a283d41293026fd6139333ec0234a8fc456b46bcc60a01f022003c606c6d189b811f3fcda3a81d229299ad2c2a2e797cdc9acc8e6894ce7f87601210228324e458926c50173e4a454a2bb4dbf8e73bac6dee0260c33a2ad774583f26700000000", "vin": [{"txinwitness": ["3045022100fe847177763d3e1e4a283d41293026fd6139333ec0234a8fc456b46bcc60a01f022003c606c6d189b811f3fcda3a81d229299ad2c2a2e797cdc9acc8e6894ce7f87601", "0228324e458926c50173e4a454a2bb4dbf8e73bac6dee0260c33a2ad774583f267"], "sequence": 4294967295, "scriptSig": {"hex": "", "asm": ""}, "vout": 0, "txid": "e864e1b40976f0dd21a6b7b9ae2c52ade7b4f633ffea35139b853843b285b2f5"}], "txid": "02323b21ed8ce3ebc2cd39259284fd4a0d62fc0b8935f81526c0e5197e4e48cf", "blocktime": 1537870268, "version": 1, "confirmations": 11518, "time": 1537870268, "locktime": 0, "vsize": 144, "size": 226}