{"hash": "0232589db5b6b36a6180d9f1dade02e23c24dd7b8aa52d7ee1156032ff99a463", "blockhash": "00000000000000000017f5eb5941039fbcee6240d03bc1f2f8e35350df66a1d8", "vout": [{"scriptPubKey": {"reqSigs": 1, "hex": "76a91408bd3f22617e5b728cedccfb7c43e16b66cf482288ac", "addresses": ["1oD7cyNdEpUXfwknsT7GsheActU1BjHxb"], "asm": "OP_DUP OP_HASH160 08bd3f22617e5b728cedccfb7c43e16b66cf4822 OP_EQUALVERIFY OP_CHECKSIG", "type": "pubkeyhash"}, "value": 0.01563783, "n": 0}, {"scriptPubKey": {"reqSigs": 1, "hex": "76a9140e06fcb0e7a1288447baeb87a9d158b92fcf003c88ac", "addresses": ["12HAqA3zizYGVG8HpdBHeQkM8tKqYZkALB"], "asm": "OP_DUP OP_HASH160 0e06fcb0e7a1288447baeb87a9d158b92fcf003c OP_EQUALVERIFY OP_CHECKSIG", "type": "pubkeyhash"}, "value": 0.13694524, "n": 1}], "hex": "0100000001aeedab4bc7ae88f0d9d458d68470ec7f3a9f531afbe41c5c2ec49eeba61448e5010000006b483045022100a90f819b1dbf5ac8f562496d6c1e7ec976d7f57091eba8be8d68ebc9c368e67b02200e27d2eacb709cd2a2d67550a7844f34f525cc47fbad5d0a00411adc409a055f012102976e60a360a7c87a94ce18142ae2c72f43567ec4491923019a491ca262f08012ffffffff0287dc1700000000001976a91408bd3f22617e5b728cedccfb7c43e16b66cf482288ac3cf6d000000000001976a9140e06fcb0e7a1288447baeb87a9d158b92fcf003c88ac00000000", "vin": [{"sequence": 4294967295, "scriptSig": {"hex": "483045022100a90f819b1dbf5ac8f562496d6c1e7ec976d7f57091eba8be8d68ebc9c368e67b02200e27d2eacb709cd2a2d67550a7844f34f525cc47fbad5d0a00411adc409a055f012102976e60a360a7c87a94ce18142ae2c72f43567ec4491923019a491ca262f08012", "asm": "3045022100a90f819b1dbf5ac8f562496d6c1e7ec976d7f57091eba8be8d68ebc9c368e67b02200e27d2eacb709cd2a2d67550a7844f34f525cc47fbad5d0a00411adc409a055f[ALL] 02976e60a360a7c87a94ce18142ae2c72f43567ec4491923019a491ca262f08012"}, "vout": 1, "txid": "e54814a6eb9ec42e5c1ce4fb1a539f3a7fec7084d658d4d9f088aec74babedae"}], "txid": "0232589db5b6b36a6180d9f1dade02e23c24dd7b8aa52d7ee1156032ff99a463", "blocktime": 1537874412, "version": 1, "confirmations": 11467, "time": 1537874412, "locktime": 0, "vsize": 226, "size": 226}