{"hash": "59f2e9d68cbab979079f08302d51a4486cc37146b5b4513f8fddf9b9810664ae", "blockhash": "0000000000000000001f76057863aec43deb6fa401d9628bb513d65a8098bfab", "vout": [{"scriptPubKey": {"reqSigs": 1, "hex": "76a9142bf6c1a60db735e86b6e489300135b89595c4aa488ac", "addresses": ["151TfBqAfP6HWdERLdpMJ43WRmZXnLzhXj"], "asm": "OP_DUP OP_HASH160 2bf6c1a60db735e86b6e489300135b89595c4aa4 OP_EQUALVERIFY OP_CHECKSIG", "type": "pubkeyhash"}, "value": 0.0716, "n": 0}, {"scriptPubKey": {"reqSigs": 1, "hex": "0014ca2b1aa2b0a1f1b8a91139dcfc0254095849db27", "addresses": ["bc1qeg434g4s58cm32g388w0cqj5p9vynke8hcqh7g"], "asm": "0 ca2b1aa2b0a1f1b8a91139dcfc0254095849db27", "type": "witness_v0_keyhash"}, "value": 0.02039412, "n": 1}], "hex": "0100000000010107e76765d5c59bc68d5d055af0f9ee9e46f9795b6134c6d2f312fd33ec5b4e9a0100000017160014c8a3ab452d84822fc5ae1a5ec6376ca9569ef0f0ffffffff02c0406d00000000001976a9142bf6c1a60db735e86b6e489300135b89595c4aa488ac741e1f0000000000160014ca2b1aa2b0a1f1b8a91139dcfc0254095849db2702483045022100874feaea79e263a2cb545cd84257ee15100dc0cb4e2af41a46b48d0692f41e3502207ce239864edd0ffddc766862c5d102654bfc5bae45ff7998ad5386f18912eb290121030565274103520efd957946f1617cabef174e5e6e8e223592832e923530fdc96200000000", "vin": [{"txinwitness": ["3045022100874feaea79e263a2cb545cd84257ee15100dc0cb4e2af41a46b48d0692f41e3502207ce239864edd0ffddc766862c5d102654bfc5bae45ff7998ad5386f18912eb2901", "030565274103520efd957946f1617cabef174e5e6e8e223592832e923530fdc962"], "sequence": 4294967295, "scriptSig": {"hex": "160014c8a3ab452d84822fc5ae1a5ec6376ca9569ef0f0", "asm": "0014c8a3ab452d84822fc5ae1a5ec6376ca9569ef0f0"}, "vout": 1, "txid": "9a4e5bec33fd12f3d2c634615b79f9469eeef9f05a055d8dc69bc5d56567e707"}], "txid": "023747e803130d62eb245a249ed567f9a1db33880d909d647267ff32430c59fc", "blocktime": 1537873891, "version": 1, "confirmations": 11478, "time": 1537873891, "locktime": 0, "vsize": 167, "size": 249}