{"hash": "023c9e9e58ecf6de3dbec7ce83d412cc6cf0b82ecd9b43e0bde6d3fc53f266f7", "blockhash": "0000000000000000001f76057863aec43deb6fa401d9628bb513d65a8098bfab", "vout": [{"scriptPubKey": {"reqSigs": 1, "hex": "76a91438cc662ee316884c7ac5b905b7c4cdb80e20f90988ac", "addresses": ["16BKhePXEaUCSp1ub1YSszSZ6sJ7fTxfeC"], "asm": "OP_DUP OP_HASH160 38cc662ee316884c7ac5b905b7c4cdb80e20f909 OP_EQUALVERIFY OP_CHECKSIG", "type": "pubkeyhash"}, "value": 0.0145135, "n": 0}, {"scriptPubKey": {"reqSigs": 1, "hex": "76a91405094fa781f50877473425461da1fa36c5e94f1188ac", "addresses": ["1TdXujU9gmAGTdQ1NT28DxEozzUQ1wsua"], "asm": "OP_DUP OP_HASH160 05094fa781f50877473425461da1fa36c5e94f11 OP_EQUALVERIFY OP_CHECKSIG", "type": "pubkeyhash"}, "value": 0.015, "n": 1}], "hex": "0100000002defd7ce01e7af48cde0134e98b0aa25b94f3077c3dd15401688a8c0a34663879000000006b483045022100c3c4fcb13cf58c0f20dd994e082a32e50b6c205264bbff87eb8bb176a1fa050d02206b3ef656bb5434085de723eab6ec73a5670b4db0da63bea110acd5f4efb3b1f3012102003841f80fc799d30d16c1c759e7ee35053af7d7213df8707fade921fac5ca58ffffffffdefd7ce01e7af48cde0134e98b0aa25b94f3077c3dd15401688a8c0a34663879010000006b483045022100da77d2fd946eb774a037addb7832dbf8fc4dcb15153cbbff3e0e0db698b5149202205673454a1f2f8117806e3b81fef2c0e8f4068caa0e89b843710732c7f82e17d6012102b98d605abe906e4e952a6e3aecf7e9ac76c627e838c98722235d64e95b93ca70ffffffff0256251600000000001976a91438cc662ee316884c7ac5b905b7c4cdb80e20f90988ac60e31600000000001976a91405094fa781f50877473425461da1fa36c5e94f1188ac00000000", "vin": [{"sequence": 4294967295, "scriptSig": {"hex": "483045022100c3c4fcb13cf58c0f20dd994e082a32e50b6c205264bbff87eb8bb176a1fa050d02206b3ef656bb5434085de723eab6ec73a5670b4db0da63bea110acd5f4efb3b1f3012102003841f80fc799d30d16c1c759e7ee35053af7d7213df8707fade921fac5ca58", "asm": "3045022100c3c4fcb13cf58c0f20dd994e082a32e50b6c205264bbff87eb8bb176a1fa050d02206b3ef656bb5434085de723eab6ec73a5670b4db0da63bea110acd5f4efb3b1f3[ALL] 02003841f80fc799d30d16c1c759e7ee35053af7d7213df8707fade921fac5ca58"}, "vout": 0, "txid": "793866340a8c8a680154d13d7c07f3945ba20a8be93401de8cf47a1ee07cfdde"}, {"sequence": 4294967295, "scriptSig": {"hex": "483045022100da77d2fd946eb774a037addb7832dbf8fc4dcb15153cbbff3e0e0db698b5149202205673454a1f2f8117806e3b81fef2c0e8f4068caa0e89b843710732c7f82e17d6012102b98d605abe906e4e952a6e3aecf7e9ac76c627e838c98722235d64e95b93ca70", "asm": "3045022100da77d2fd946eb774a037addb7832dbf8fc4dcb15153cbbff3e0e0db698b5149202205673454a1f2f8117806e3b81fef2c0e8f4068caa0e89b843710732c7f82e17d6[ALL] 02b98d605abe906e4e952a6e3aecf7e9ac76c627e838c98722235d64e95b93ca70"}, "vout": 1, "txid": "793866340a8c8a680154d13d7c07f3945ba20a8be93401de8cf47a1ee07cfdde"}], "txid": "023c9e9e58ecf6de3dbec7ce83d412cc6cf0b82ecd9b43e0bde6d3fc53f266f7", "blocktime": 1537873891, "version": 1, "confirmations": 11474, "time": 1537873891, "locktime": 0, "vsize": 374, "size": 374}