{"hash": "02413d396edb89a4a39c73f65ecce3002d8dc9391d910f77bb695ae68b4719c2", "blockhash": "0000000000000000000dcc0f55137456b1a82d3642486a52398922ac4d620174", "vout": [{"scriptPubKey": {"reqSigs": 1, "hex": "76a9141a8e5ce884b285fcf9c29be19d3d25c62d7bdad388ac", "addresses": ["13RR7Y96GW7GxJSiUSHUXDhsuyweSs13iZ"], "asm": "OP_DUP OP_HASH160 1a8e5ce884b285fcf9c29be19d3d25c62d7bdad3 OP_EQUALVERIFY OP_CHECKSIG", "type": "pubkeyhash"}, "value": 0.0462865, "n": 0}], "hex": "01000000018249aa4b78393c39548b298518289ca1015ba5ba688d2cc96a98c251f9bfa067000000006a47304402202f19e1ca5d93ce46de42634301d4f688c247b837cc0f8036c92892c616d9199402202fef5904e3c1101aacbb6abc0b9be5a1ab633ef3185d8e3a464f6860dd2ff52f01210278babe68f6a92c86ce2c6eb81d9f8f45334b9b2c4ffdf7a6ba086581472aca23f0ffffff01aaa04600000000001976a9141a8e5ce884b285fcf9c29be19d3d25c62d7bdad388ac00000000", "vin": [{"sequence": 4294967280, "scriptSig": {"hex": "47304402202f19e1ca5d93ce46de42634301d4f688c247b837cc0f8036c92892c616d9199402202fef5904e3c1101aacbb6abc0b9be5a1ab633ef3185d8e3a464f6860dd2ff52f01210278babe68f6a92c86ce2c6eb81d9f8f45334b9b2c4ffdf7a6ba086581472aca23", "asm": "304402202f19e1ca5d93ce46de42634301d4f688c247b837cc0f8036c92892c616d9199402202fef5904e3c1101aacbb6abc0b9be5a1ab633ef3185d8e3a464f6860dd2ff52f[ALL] 0278babe68f6a92c86ce2c6eb81d9f8f45334b9b2c4ffdf7a6ba086581472aca23"}, "vout": 0, "txid": "67a0bff951c2986ac92c8d68baa55b01a19c281885298b54393c39784baa4982"}], "txid": "02413d396edb89a4a39c73f65ecce3002d8dc9391d910f77bb695ae68b4719c2", "blocktime": 1537870268, "version": 1, "confirmations": 11516, "time": 1537870268, "locktime": 0, "vsize": 191, "size": 191}