{"hash": "02491d0da446ede24edd1e38bc3978e452aea3059cd7ba10400630a259da610b", "blockhash": "0000000000000000001cda96e906b7601b7a6fb1a3b62bca570a9e5d8f4b3de1", "vout": [{"scriptPubKey": {"reqSigs": 1, "hex": "76a9142ec1bfeaf9c1be8e6a6da73e26a658525fd370b088ac", "addresses": ["15GEBnhYRbDRoJsXpPwGxW9VLUdjPnwaLX"], "asm": "OP_DUP OP_HASH160 2ec1bfeaf9c1be8e6a6da73e26a658525fd370b0 OP_EQUALVERIFY OP_CHECKSIG", "type": "pubkeyhash"}, "value": 0.07356631, "n": 0}, {"scriptPubKey": {"reqSigs": 1, "hex": "a914d2c0eba1e9c213696bd8bb44266e71a32036f82087", "addresses": ["3LuNwB7qLtdP3k573Dr4UMgJ5N4i9Dw587"], "asm": "OP_HASH160 d2c0eba1e9c213696bd8bb44266e71a32036f820 OP_EQUAL", "type": "scripthash"}, "value": 0.09530088, "n": 1}], "hex": "01000000019e009ce93ea9c015bf6b065160d182eddb461077fd0451efeb608f455868d0ba430000006b483045022100935860ac183b202d2f550b45a96bc4de90748a4eb7078c845ca30c42e3544d79022055d555ac3ad803e6321fab4f8d9e81dc9a74008c65c53ff7b7a1111ecf874c7c012103ef6d44eb29ba2f00eb47cf356c2f4c0ca36b599dadea772c80a89f5d2111b6b4ffffffff02d7407000000000001976a9142ec1bfeaf9c1be8e6a6da73e26a658525fd370b088ace86a91000000000017a914d2c0eba1e9c213696bd8bb44266e71a32036f8208700000000", "vin": [{"sequence": 4294967295, "scriptSig": {"hex": "483045022100935860ac183b202d2f550b45a96bc4de90748a4eb7078c845ca30c42e3544d79022055d555ac3ad803e6321fab4f8d9e81dc9a74008c65c53ff7b7a1111ecf874c7c012103ef6d44eb29ba2f00eb47cf356c2f4c0ca36b599dadea772c80a89f5d2111b6b4", "asm": "3045022100935860ac183b202d2f550b45a96bc4de90748a4eb7078c845ca30c42e3544d79022055d555ac3ad803e6321fab4f8d9e81dc9a74008c65c53ff7b7a1111ecf874c7c[ALL] 03ef6d44eb29ba2f00eb47cf356c2f4c0ca36b599dadea772c80a89f5d2111b6b4"}, "vout": 67, "txid": "bad06858458f60ebef5104fd771046dbed82d16051066bbf15c0a93ee99c009e"}], "txid": "02491d0da446ede24edd1e38bc3978e452aea3059cd7ba10400630a259da610b", "blocktime": 1537873282, "version": 1, "confirmations": 11484, "time": 1537873282, "locktime": 0, "vsize": 224, "size": 224}