{"hash": "7ed6938a0fb323d5bd9f3d0b863230942fba736f896b2766f9a2737c45a547ae", "blockhash": "000000000000000000022b45ed06c6f4ccd3cf7fb5ba4856ebd2e58215665228", "vout": [{"scriptPubKey": {"reqSigs": 1, "hex": "a914c0c14897bfd4e85484cc14c4c998f8c322775c7c87", "addresses": ["3KGDCxDM35DEQTtWR8iYts3mH4YTTbcvoa"], "asm": "OP_HASH160 c0c14897bfd4e85484cc14c4c998f8c322775c7c OP_EQUAL", "type": "scripthash"}, "value": 0.01000126, "n": 0}, {"scriptPubKey": {"reqSigs": 1, "hex": "76a9142e1b944fe7ffbe969fc1df8d662fd7b5d6303c9b88ac", "addresses": ["15Co856cRnFRCKwSSzECoyT3ozVhuFoJZ6"], "asm": "OP_DUP OP_HASH160 2e1b944fe7ffbe969fc1df8d662fd7b5d6303c9b OP_EQUALVERIFY OP_CHECKSIG", "type": "pubkeyhash"}, "value": 0.0052356, "n": 1}], "hex": "020000000001020d2ef0f1b79e19bec831e9ef59de1544d40481f822d8f20f1384afc38800b0ea010000001716001496fd7df7a14b2a90c1135926e1ba23666a7778cefefffffff3046a853bd7c99ad42cd53d4064a6f5b869db027ada03b6a852b1ea1b6d73af010000001716001419795380c187745577e77c7db1e3757514707057feffffff02be420f000000000017a914c0c14897bfd4e85484cc14c4c998f8c322775c7c8728fd0700000000001976a9142e1b944fe7ffbe969fc1df8d662fd7b5d6303c9b88ac02473044022001e4c0f8b3e73e84bbce0ab59e1bedae07198e0b710d825af2fe8a0c33d0a5b602204d5d21a793b54489d947a383638cd94b405e37919a3c81cec088741a9f6d96e301210297fd28f3119182f7487c80fcfb695b671e084cc7c582ef7459461db4138fc3f802483045022100e012adc2d861fb513e7f03884699b0ab4a729ba118e217c11e1f28fe71658bfd02200d98d396c846feb31acad80f669ac27dabf3c2f79bf0bc03d53325de164d218301210211fc03f304c484ec71b539323f48841d01236d34c921223f39cde8571ddb31be0b490800", "vin": [{"txinwitness": ["3044022001e4c0f8b3e73e84bbce0ab59e1bedae07198e0b710d825af2fe8a0c33d0a5b602204d5d21a793b54489d947a383638cd94b405e37919a3c81cec088741a9f6d96e301", "0297fd28f3119182f7487c80fcfb695b671e084cc7c582ef7459461db4138fc3f8"], "sequence": 4294967294, "scriptSig": {"hex": "16001496fd7df7a14b2a90c1135926e1ba23666a7778ce", "asm": "001496fd7df7a14b2a90c1135926e1ba23666a7778ce"}, "vout": 1, "txid": "eab00088c3af84130ff2d822f88104d44415de59efe931c8be199eb7f1f02e0d"}, {"txinwitness": ["3045022100e012adc2d861fb513e7f03884699b0ab4a729ba118e217c11e1f28fe71658bfd02200d98d396c846feb31acad80f669ac27dabf3c2f79bf0bc03d53325de164d218301", "0211fc03f304c484ec71b539323f48841d01236d34c921223f39cde8571ddb31be"], "sequence": 4294967294, "scriptSig": {"hex": "16001419795380c187745577e77c7db1e3757514707057", "asm": "001419795380c187745577e77c7db1e3757514707057"}, "vout": 1, "txid": "af736d1beab152a8b603da7a02db69b8f5a664403dd52cd49ac9d73b856a04f3"}], "txid": "024ead9b43c2a41998fb1a970b4e9358710eae2914f2718c9b6158c83ed607db", "blocktime": 1537869901, "version": 2, "confirmations": 11524, "time": 1537869901, "locktime": 542987, "vsize": 259, "size": 421}