{"hash": "bec1a59ebffd372f53437de5446adb02a89ea01229d2e7a8611e03ce415e901e", "blockhash": "0000000000000000000e13cef7c366c0283d82e591d1acd082e914b08063cdf1", "vout": [{"scriptPubKey": {"reqSigs": 1, "hex": "76a914fab9a6eeb3ea53ea6cedb73a4247181dd6d4509e88ac", "addresses": ["1PriLHqQT9LwTz5QNggTY8iw1L2BCH1Aqe"], "asm": "OP_DUP OP_HASH160 fab9a6eeb3ea53ea6cedb73a4247181dd6d4509e OP_EQUALVERIFY OP_CHECKSIG", "type": "pubkeyhash"}, "value": 0.00555702, "n": 0}, {"scriptPubKey": {"reqSigs": 1, "hex": "a914f5984b405c839fae1786efe17c8ab9d035e8d9d887", "addresses": ["3Q5bv7R4Y3BszbMxzkzRfS5YCsQrhLKjnW"], "asm": "OP_HASH160 f5984b405c839fae1786efe17c8ab9d035e8d9d8 OP_EQUAL", "type": "scripthash"}, "value": 0.00999993, "n": 1}], "hex": "020000000001021f0b8b50e0ab2b6938f9c036bedcbbebc5ec5e146e995f56bc5043118253ca9501000000171600143b67a093743085b70e34aa18ea8884040fa02ac8feffffff9b2b8c1df7130a4cc3b7320e250bbfa7962de50d09452296891d95a6c60aa7950400000017160014171e865f34942d05aac493a38f6c04e56938722bfeffffff02b67a0800000000001976a914fab9a6eeb3ea53ea6cedb73a4247181dd6d4509e88ac39420f000000000017a914f5984b405c839fae1786efe17c8ab9d035e8d9d8870247304402204d0623bda439b88bfd6d6c70f987aa2b5f2fcbd5b09a0339a6735855f156286f02200c0d1e690d6ff3fd8dd3601661d1a8d7d598b5dbfaa86101ea3b3832327af3170121028cf8a4982f32335ad5a188755f27a79dca81b50a140204566952924533cd49630247304402201da3f6aa8be1d144d8ac7975af7048e02812a0a8b781210d511ff142c606d6c7022079540c1e165841a031781711d3b1ec81bbe202407d2c5a69460083fa39ada53d012103bbd053470292bfbbe590c059eb52c1fe6721260b73555892c3958d7a72a20a81f7480800", "vin": [{"txinwitness": ["304402204d0623bda439b88bfd6d6c70f987aa2b5f2fcbd5b09a0339a6735855f156286f02200c0d1e690d6ff3fd8dd3601661d1a8d7d598b5dbfaa86101ea3b3832327af31701", "028cf8a4982f32335ad5a188755f27a79dca81b50a140204566952924533cd4963"], "sequence": 4294967294, "scriptSig": {"hex": "1600143b67a093743085b70e34aa18ea8884040fa02ac8", "asm": "00143b67a093743085b70e34aa18ea8884040fa02ac8"}, "vout": 1, "txid": "95ca5382114350bc565f996e145eecc5ebbbdcbe36c0f938692babe0508b0b1f"}, {"txinwitness": ["304402201da3f6aa8be1d144d8ac7975af7048e02812a0a8b781210d511ff142c606d6c7022079540c1e165841a031781711d3b1ec81bbe202407d2c5a69460083fa39ada53d01", "03bbd053470292bfbbe590c059eb52c1fe6721260b73555892c3958d7a72a20a81"], "sequence": 4294967294, "scriptSig": {"hex": "160014171e865f34942d05aac493a38f6c04e56938722b", "asm": "0014171e865f34942d05aac493a38f6c04e56938722b"}, "vout": 4, "txid": "95a70ac6a6951d89962245090de52d96a7bf0b250e32b7c34c0a13f71d8c2b9b"}], "txid": "025032422d5f81a0e47b9eac0eb73eba6441e1418ba8f4848db258d6c0fdc4a0", "blocktime": 1537871767, "version": 2, "confirmations": 11495, "time": 1537871767, "locktime": 542967, "vsize": 258, "size": 420}