{"hash": "02518ac84db9c48e91d9377eea80e9b8a239c50ec82dda7dd93f48a8ba8781a3", "blockhash": "0000000000000000000dcc0f55137456b1a82d3642486a52398922ac4d620174", "vout": [{"scriptPubKey": {"reqSigs": 1, "hex": "76a914bb111943b94fb0b1ea69fa36587224a3dc45b80888ac", "addresses": ["1J47qunUxjNLbyyWcYGb58Q2uPgv11JUNK"], "asm": "OP_DUP OP_HASH160 bb111943b94fb0b1ea69fa36587224a3dc45b808 OP_EQUALVERIFY OP_CHECKSIG", "type": "pubkeyhash"}, "value": 1.69696658, "n": 0}, {"scriptPubKey": {"reqSigs": 1, "hex": "76a914ab0c85bd8e8c48697c04fc80be32529f570edd1e88ac", "addresses": ["1GbRYspi4oqKsLJpGbuffXz3G879ckjeFa"], "asm": "OP_DUP OP_HASH160 ab0c85bd8e8c48697c04fc80be32529f570edd1e OP_EQUALVERIFY OP_CHECKSIG", "type": "pubkeyhash"}, "value": 0.2, "n": 1}], "hex": "0100000001376620be0d154e7255f459c0d0a1f10a1b838b49bb995607feffd84692c29c79010000006b4830450221009b90e6ee3f7bae8bfeacc13d04413bc88aa47a63fb57b19e97f8843e8a90056a02205211bea439179b6710f5db8b4ed440e9de90f2c2d2335e5737ef23e8571c1d4f012103f681a5933e8edf6dcdca40769a0dd62690fbeae877df9e608d1f027dd2635f05ffffffff02925d1d0a000000001976a914bb111943b94fb0b1ea69fa36587224a3dc45b80888ac002d3101000000001976a914ab0c85bd8e8c48697c04fc80be32529f570edd1e88ac00000000", "vin": [{"sequence": 4294967295, "scriptSig": {"hex": "4830450221009b90e6ee3f7bae8bfeacc13d04413bc88aa47a63fb57b19e97f8843e8a90056a02205211bea439179b6710f5db8b4ed440e9de90f2c2d2335e5737ef23e8571c1d4f012103f681a5933e8edf6dcdca40769a0dd62690fbeae877df9e608d1f027dd2635f05", "asm": "30450221009b90e6ee3f7bae8bfeacc13d04413bc88aa47a63fb57b19e97f8843e8a90056a02205211bea439179b6710f5db8b4ed440e9de90f2c2d2335e5737ef23e8571c1d4f[ALL] 03f681a5933e8edf6dcdca40769a0dd62690fbeae877df9e608d1f027dd2635f05"}, "vout": 1, "txid": "799cc29246d8fffe075699bb498b831b0af1a1d0c059f455724e150dbe206637"}], "txid": "02518ac84db9c48e91d9377eea80e9b8a239c50ec82dda7dd93f48a8ba8781a3", "blocktime": 1537870268, "version": 1, "confirmations": 11516, "time": 1537870268, "locktime": 0, "vsize": 226, "size": 226}