{"hash": "025938e1afa1aa555aee42b57d364d69ee3d1b29604ea175998bb6f653a52163", "blockhash": "000000000000000000205f8b0775d31398ef75b89a5e8ec8d2c57b4dc0ac4c20", "vout": [{"scriptPubKey": {"reqSigs": 1, "hex": "76a914f27d341052402ea415501fdec6a98259d532f54288ac", "addresses": ["1P7AWhweKKNuj3vhSqqUStq6r15UeMkFwa"], "asm": "OP_DUP OP_HASH160 f27d341052402ea415501fdec6a98259d532f542 OP_EQUALVERIFY OP_CHECKSIG", "type": "pubkeyhash"}, "value": 0.001, "n": 0}, {"scriptPubKey": {"reqSigs": 1, "hex": "76a9149447c836fd7c355f40933f218b1044b91bcc6b7f88ac", "addresses": ["1EX2zu5VpcA33jmPtJ4RDmGLWKQi1yPDD8"], "asm": "OP_DUP OP_HASH160 9447c836fd7c355f40933f218b1044b91bcc6b7f OP_EQUALVERIFY OP_CHECKSIG", "type": "pubkeyhash"}, "value": 0.00094637, "n": 1}], "hex": "01000000027f4e1e0ad81de58642f41ceb63122f05816e3745b41332a016f6164ad6e6ad15040000006b48304502210093a5fc653cb32d1f95eced8e8c5fe7f3ac0426a985bbb82ccf5497de66dd11cf0220559ccfdd1ac58d7387d32554e95fc2962667d1d03aceee596bd7099f98f5e5bb0121035a638ee09dc3effef21295d0a2001a0f75f937f4fcdc17cfec995f14cb70240cffffffffdb0f7b5f3c901bb960fafb6a5e8a46cbf65f662037d2ac3140ebc7417f54f6ba030000006b483045022100b3cf2c4feb8807a61a900991009a4c4b52efc75cd9bf895877850638f5a2954c0220492a383d40314be5a61e25a784b37cd084a589e18b99826467f9ca9fd96ae0830121035a638ee09dc3effef21295d0a2001a0f75f937f4fcdc17cfec995f14cb70240cffffffff02a0860100000000001976a914f27d341052402ea415501fdec6a98259d532f54288acad710100000000001976a9149447c836fd7c355f40933f218b1044b91bcc6b7f88ac00000000", "vin": [{"sequence": 4294967295, "scriptSig": {"hex": "48304502210093a5fc653cb32d1f95eced8e8c5fe7f3ac0426a985bbb82ccf5497de66dd11cf0220559ccfdd1ac58d7387d32554e95fc2962667d1d03aceee596bd7099f98f5e5bb0121035a638ee09dc3effef21295d0a2001a0f75f937f4fcdc17cfec995f14cb70240c", "asm": "304502210093a5fc653cb32d1f95eced8e8c5fe7f3ac0426a985bbb82ccf5497de66dd11cf0220559ccfdd1ac58d7387d32554e95fc2962667d1d03aceee596bd7099f98f5e5bb[ALL] 035a638ee09dc3effef21295d0a2001a0f75f937f4fcdc17cfec995f14cb70240c"}, "vout": 4, "txid": "15ade6d64a16f616a03213b445376e81052f1263eb1cf44286e51dd80a1e4e7f"}, {"sequence": 4294967295, "scriptSig": {"hex": "483045022100b3cf2c4feb8807a61a900991009a4c4b52efc75cd9bf895877850638f5a2954c0220492a383d40314be5a61e25a784b37cd084a589e18b99826467f9ca9fd96ae0830121035a638ee09dc3effef21295d0a2001a0f75f937f4fcdc17cfec995f14cb70240c", "asm": "3045022100b3cf2c4feb8807a61a900991009a4c4b52efc75cd9bf895877850638f5a2954c0220492a383d40314be5a61e25a784b37cd084a589e18b99826467f9ca9fd96ae083[ALL] 035a638ee09dc3effef21295d0a2001a0f75f937f4fcdc17cfec995f14cb70240c"}, "vout": 3, "txid": "baf6547f41c7eb4031acd23720665ff6cb468a5e6afbfa60b91b903c5f7b0fdb"}], "txid": "025938e1afa1aa555aee42b57d364d69ee3d1b29604ea175998bb6f653a52163", "blocktime": 1537871175, "version": 1, "confirmations": 11511, "time": 1537871175, "locktime": 0, "vsize": 374, "size": 374}