{"hash": "025d29f05cbe55a45ba544901491b66f85f4e0995bd0bedae46b04ba19afe0ec", "blockhash": "00000000000000000017f5eb5941039fbcee6240d03bc1f2f8e35350df66a1d8", "vout": [{"scriptPubKey": {"reqSigs": 1, "hex": "76a914e3c9fbf250599e80d0e50bfbc5ee8351faddaa8888ac", "addresses": ["1MmSMenKuon7y9Twtn4H3nrSNu8DMgTr91"], "asm": "OP_DUP OP_HASH160 e3c9fbf250599e80d0e50bfbc5ee8351faddaa88 OP_EQUALVERIFY OP_CHECKSIG", "type": "pubkeyhash"}, "value": 0.01498663, "n": 0}, {"scriptPubKey": {"reqSigs": 1, "hex": "76a9140db7d3a016e6e1dbea63887aab2807a1e2f337ce88ac", "addresses": ["12FXzzfLZGjTieR4f5J6nurYHb7oja8jN2"], "asm": "OP_DUP OP_HASH160 0db7d3a016e6e1dbea63887aab2807a1e2f337ce OP_EQUALVERIFY OP_CHECKSIG", "type": "pubkeyhash"}, "value": 0.1, "n": 1}], "hex": "010000000179d0f544500d90d70e8c74948b2cae05cbddf7ccb3ff029f55cd3be724c67da1070000006a473044022063f94fb366fd53e71a62f49b517eaa00ca726f3632d8e043b97070b29bf5cf8902205b00a08b2452e34dee1c843e1cd9f51918cba2f2eeaa065ffe66f6aa6e52f1a301210215e158a2ea920deda3ce62379b459211d316e9a49d5844522414c8372875f307ffffffff0227de1600000000001976a914e3c9fbf250599e80d0e50bfbc5ee8351faddaa8888ac80969800000000001976a9140db7d3a016e6e1dbea63887aab2807a1e2f337ce88ac00000000", "vin": [{"sequence": 4294967295, "scriptSig": {"hex": "473044022063f94fb366fd53e71a62f49b517eaa00ca726f3632d8e043b97070b29bf5cf8902205b00a08b2452e34dee1c843e1cd9f51918cba2f2eeaa065ffe66f6aa6e52f1a301210215e158a2ea920deda3ce62379b459211d316e9a49d5844522414c8372875f307", "asm": "3044022063f94fb366fd53e71a62f49b517eaa00ca726f3632d8e043b97070b29bf5cf8902205b00a08b2452e34dee1c843e1cd9f51918cba2f2eeaa065ffe66f6aa6e52f1a3[ALL] 0215e158a2ea920deda3ce62379b459211d316e9a49d5844522414c8372875f307"}, "vout": 7, "txid": "a17dc624e73bcd559f02ffb3ccf7ddcb05ae2c8b94748c0ed7900d5044f5d079"}], "txid": "025d29f05cbe55a45ba544901491b66f85f4e0995bd0bedae46b04ba19afe0ec", "blocktime": 1537874412, "version": 1, "confirmations": 11467, "time": 1537874412, "locktime": 0, "vsize": 225, "size": 225}