{"hash": "025f7a3a162ef5110256f035cec4f237d445e0b095acf0ce78ac3711dbbc17b9", "blockhash": "0000000000000000000e13cef7c366c0283d82e591d1acd082e914b08063cdf1", "vout": [{"scriptPubKey": {"reqSigs": 1, "hex": "76a914e8cea30989bd15530f819b766684b00dc7ba7cfa88ac", "addresses": ["1NDyJtNTjmwk5xPNhjgAMu4HDHigtobu1s"], "asm": "OP_DUP OP_HASH160 e8cea30989bd15530f819b766684b00dc7ba7cfa OP_EQUALVERIFY OP_CHECKSIG", "type": "pubkeyhash"}, "value": 68.91457681, "n": 0}, {"scriptPubKey": {"reqSigs": 1, "hex": "76a914a666518f4d8c6c323bfac391fbb4c4cf21d6f1ca88ac", "addresses": ["1GAqk4jMogpgvo8ZaXGUCBGUyrgyMeALPg"], "asm": "OP_DUP OP_HASH160 a666518f4d8c6c323bfac391fbb4c4cf21d6f1ca OP_EQUALVERIFY OP_CHECKSIG", "type": "pubkeyhash"}, "value": 0.0185, "n": 1}], "hex": "020000001929b1cc2d3a6823a8b13f6470d91af13eadcd2b9e00697d200e5cda92a07b0185010000006a4730440220413cf26a4da28b4a9381fa4650ce109be53e7765672255b6ee33c4c083f1ae24022002c09cd4529f1af06738ac7373bca30bbbc9e38a8b5f624f2099b69168b19706012103316a18e81fa83355d49f1fc707a2741b5ada83fdaa9f86ada8f3050727fb3f35feffffff309f9cc977fc89dfa3ee0be7a9218415e406d058c3277f1a91adfba05a9357f46b0000006b483045022100e2acd2cb219351b4e661774b9bc1c292ab67e15f5b1554add1620e83fc1914200220124f1f1ccc77d4312792015cc45c9eaffed7778571b0bb9b45536f962f358821012103a53f741ddb7714b6222b54266e58c38dcd59087ffd727189b86bb60f807172d0feffffff350cac8342c93c6d5052ad5200db2605fbbc6ef06ba364716ecb5c9e749d3f4f000000006b483045022100e6fa74e980784f5f8fed576c7ee7d117e88e9a48dd27c5439a5a12cf9cbb5fc402207136acada3335fe6ca7b7c2d916fd6deab964582a39ce073f6979cf8ee3891ba0121034af46e6d2be2a3fac7aefea0bdbc75dd52a39d37bd13715e776a41a00c72dbcafeffffff5a286c77944c62ac725f6c55b63588cd85e02a34feeed8559c2050708eca6ffe000000006b4830450221008fb1b3759cbff086c7fedc4342dbfcd62cd9f6a8274f2174484c8277fee155d202202b676573ef9e0d25cf8dfefcf526fd6f16d55bf2738af0c727fdc530e6b7621a012103dfd1de00b43dbe51444bca70632054944d9233ddd0e37735865a74389507c54ffeffffff5aa5528bb2412b00f62ea8bd1d1d69e38a037835f558d855c3026a00802cb2c7000000006b483045022100c7c2833303fcf5a95df22c4dbf9b5f6f1ceb6ffc95f3111af7c818d4b8065590022049d8420ad3f21514bc9c0339d055b711631b103a06a35095ee823869679f6494012102f48e40a1152de84c44865ffdb1056f22d5fa803270535bf524cfb9dfb0913221feffffff5d05e0b6a784f78d16933a0328b192655c999028b0de9ef3e3078d0f40b77fd1000000006b483045022100ef0c14c4f2cdc257f45b97e68ab74483ef87375b0c2b15e4a8b80e9aa6bb550302206dbcfbb371df90e6e165f22e8e92057ff990bbe3bfe0c8a8fec51b1024d74ccf012102b954f1287acda9e31e9e3c1baf5a522df96a7a1e692ae3624fcb559888930407feffffff5e814ec79c7b06c3184e1028a030900f69b0c199b6c0040fb3a8c2aac1f4f3ec000000006b4830450221009e06e0515c3a75e4114e00520b70d84f94989c8fecb8c2bceb3281b001bc84f1022072b1f846e5f9854bf5bdd155c564be016e6dc469999d4b4f80a4ecfd212f40e2012103cad4dfd8ea7d2d066434829623f0c665e3e723fb2e8a716b1f23d4862509fd00feffffff6f51adb671f957edf55900887a4cef6d4d736fe22532b2d52c7d44116b3ef6cb020000006b48304502210096c5d077149f44c2b8150a618e7f8e24775765436e4e1781b8c9b38b6e67eb58022034a6841ca48ed057184d525e24bb85314eb7bbf27a44d7619d040eb7fda4fd2e012102dd251957a8ea9bbdfca7032e68af20a305abbe1b9681e2e96f6d64fa1140072afeffffff6f593544d34d9d381cd146bc82848e657f2783ba9977b68b3aaeb67c0352a1fd010000006a4730440220350545cd85385c276299352bbd82c3743e31c2322747017eeceab576a47df24b022013cafaa1061da2701057f4787df225e41c4a8a6f6a306dba065a40d42f5b8e130121031f50b2fc35a2f49b4a5e29af5133150b230826e8feb2a958cdeb1b0fca0c4df9feffffff79fe918869c984027cdb991a319e689935e4f586757ef9613aafa200daad6fce000000006b4830450221008ccb83f9f1d09b15e28b37f5ec5675c157ba573776ad98483b5fca8458519de902207d24e3d8275e9e5dbc88c63973b05a14cb09e734c5b21932b77f269e3c2444a201210345326d975877880c46bcd602db65fa46be5fb0a6e29108dc3a07fbafe3b7e7cdfeffffff7f803f7e022f5381cb54a48f56fb174bb943e9639b68b1fe02838007b741ee9e100000006a47304402203d0b7c499a95e1f5efd4e3bbdeaa693c72727c3f51b1c2d1bea122e1f5410c870220623995cbb39879dc2a5c0270b920741c98aa3f7d1f907bd953d5edd55d16933d012102430fd6974faff36e9437403432e4e3c5e2f4e40eea306c97fb929066f8441342feffffff7f803f7e022f5381cb54a48f56fb174bb943e9639b68b1fe02838007b741ee9e950000006b483045022100f652ff55f3a581ef8a6ab9617754986c6f98d9af370d455ea9a5179c0a27dce50220437b6606dd28c67636305d2e6eb1741386388a1c44c119d7f6c085ed7fe9b30e0121024ad3892715147ac2bbef3d54a65dd9bdc91a79aa7cd7254155be5eb096eab6a1feffffff83f937d35d9f7eaa2da36781f396443dbcbf70d7e878072c4a1de1416fc8b9cc000000006b4830450221008945841fc05d504f0dcba73738371c647cc77bb7c062cb1d41375634deb030450220342ec18535798c7268a76adb2c7a2af20d211ed2b879c2b27955fa6471378fd5012102febd822d8ce7587ae6d4db52dff189b1a3aa03728c696ef1dca1adc63a2ada1efeffffff94e224860b671fd72e62f4ec8a4622e650e3ef2fdfcf7914876aac747fbb194f000000006a47304402205e6e226719f91da7bce45724592470c1c2d5ccb48ff1fae4a306c86fcaa6abf70220032fdbbcf7c08253b43df2782d5bd565e31d49cc39383d9a6f73b68b9384a2c501210395fa33cb0b2fb2633369c32ca9e8537c75bbaa352582c3473db87df5ce28582afeffffff97cd2187899b58dd478803e5c3ae7a438a4a66113bcbc850bea7e883058cb8b7020000006b483045022100e4f0194c1a43a983d469f68998f5c9a45de04b18b4ca4ddf655121f14094fde70220728c0b48bed030e05fcba6aa51a7f8532e7258778f93decb7d411e292ca9db160121028b195f17117db02427b8643da19221da3008e375714303f118c79d30edd5d869feffffffaf6d35197f1b46e676de942e2dd1077b32797354b47725a2ea52b9c2e962d0aa040000006b483045022100f9706325d46fdd86706c2f1f1b6fc4085e1b8b7ff514cd7b04e1eb525e165fd602203e647b66535e7f1f033a6d88b50775ef731a3ea4e6d3ace5ae16c8b701cd3a2f012102c52380b6388958b2598995bbb18bc9e128099c4fd0102b2c998a305b34e7c256feffffffb3f6c2f8012ad754a210fbbfce44f34b4e5468123e98858e3d7b721f05bc47a8020000006b483045022100dc0d6de6d33c09c6241f5eada3edf5df505af4942d048f8b4ce77cf4ca210b2702201aa1080189d8c16665fb31b76ef3992db2102dde3eb51bde56eabc43e66a8136012102fc30c9750b4df3d948de8ec2b2e9c4ef083a0ac8c22974b48116bb6a258c0551feffffffb896b899e87fd34e4454293de6ea9f64fe3623c51ac9f3976bd2a4066e96d846000000006b483045022100cb81383500e3cc394201913bfd5f80061b63cfd6d21872a25f1d802a1a073d7d022069872a3033675d138cf707cec2c528505eb0989505cc87901666048d62d0f8320121027035a772e8a54a3bbbb416e2e3f5add5b76f289b64ddec40153c2c9306d738ddfeffffffc0f853e4b2d00af016dcda2ec009f0caa95e66c11109cb0609128e5ddd3f4617000000006b483045022100cade7b61eed3ea8347a5a4a6065f6c535d127da69c87876f22d42d5f494ce2fd0220070e167e1008e6a7bb4a3b267669d21b60e64d0d854a90f6c6e7239987ecc39f0121029296580b004e2234173da24821fca22f138668c199d481f895a61287e53fbc03feffffffc55d65bcdccb28bc719869ea4326fcc48d19befa17b6bff044df1849e4a00ccf010000006b483045022100f6811193bd07891c4463ad24c94063748a24b261476c7fae9c19645728279a2c02204e4032639303e1a87e5e3fe1de5cd255e1ad7f3b1753c52af4023b558cb67bb901210354b43953c84e852ef0c545cfbeaf6bae6ee64ab2884931a783e89da417a72c69feffffffc5a94c57269f6f08c661d4a4a01c2e0b4bf7817ad840ea583f10beca569a9ba3030000006a47304402203ee0a4876d62c3cf6b7c011cbd2a2d76ddd098c734e4794beecd6540b64d713f0220092550b879adb6d5b9673457dddd01edf06d791543eb9d6f484e3610f7a034f501210218fc5936844b01a979bafa8c8aa26bae6a1ad8ba1418671df6ba4e6bbebbfe73feffffffc6093a4f29f389cba1baa34a0ff14b7d3b8db81fc108db291140cbc2442c9243000000006b483045022100adb31b8855222f2604376d008a1fe5b2f8ea0e962b810f16a07aad70335d00d7022017de5e7d32a3ca640a1c39474e4b00dfafb7014cf41908312d04e9d415bee291012102419a982225c576663e040d5d68084c9889cdb6003692a29ccb90c7c46b08796ffeffffffcf841838acb9f4d9528b728f124084c6613aff3ff35011cec1969883055a597a1c0000006a47304402201f465b020647ba83403ad42ae389f39918a305cad069938c23188c156c89d016022035373a924b77cdb1cac97156eca246de75b8a4051c4aa761a9bdf29178f371010121030e20b87843407db8044e469310a9aefdd3befd67423f29c741dcc918a5aa91d4feffffffde53fac6bfb820dd3306f7d4d3e7546150d3d5f86538ea53d55618d3827549db010000006a47304402207f58a82d66a1d9acd5a69291f5dac815e04729f752b176899634c707bc2f1a1d022050a113a1c5b5f1cb8f5c103a7b0a8de81819f9fb0b755faae80c12f40548f9b1012102aedc2434fa94d0a4ce7c6f8515ad488261a5123eba3eea9a4dbf79f9c5a73c59feffffffe7a489c8649bcb1040468e5ce09c38ef0b905a7b39b7d61f7099e36fc5db4204010000006a473044022035fdb60ea544129c0119ddb9a36be68c86e5aee0f7f871b48ce16fbca9883200022034a195cbb722b2753ef9dff9337d431cba6a8a1c2112cf556872659600f166ce012103860202a6a4e5a2a6108a170a4e95e1cb14a75d239a0f072bdfd25ab9f0aa53e2feffffff02914cc39a010000001976a914e8cea30989bd15530f819b766684b00dc7ba7cfa88ac903a1c00000000001976a914a666518f4d8c6c323bfac391fbb4c4cf21d6f1ca88ac10490800", "vin": [{"sequence": 4294967294, "scriptSig": {"hex": "4730440220413cf26a4da28b4a9381fa4650ce109be53e7765672255b6ee33c4c083f1ae24022002c09cd4529f1af06738ac7373bca30bbbc9e38a8b5f624f2099b69168b19706012103316a18e81fa83355d49f1fc707a2741b5ada83fdaa9f86ada8f3050727fb3f35", "asm": "30440220413cf26a4da28b4a9381fa4650ce109be53e7765672255b6ee33c4c083f1ae24022002c09cd4529f1af06738ac7373bca30bbbc9e38a8b5f624f2099b69168b19706[ALL] 03316a18e81fa83355d49f1fc707a2741b5ada83fdaa9f86ada8f3050727fb3f35"}, "vout": 1, "txid": "85017ba092da5c0e207d69009e2bcdad3ef11ad970643fb1a823683a2dccb129"}, {"sequence": 4294967294, "scriptSig": {"hex": "483045022100e2acd2cb219351b4e661774b9bc1c292ab67e15f5b1554add1620e83fc1914200220124f1f1ccc77d4312792015cc45c9eaffed7778571b0bb9b45536f962f358821012103a53f741ddb7714b6222b54266e58c38dcd59087ffd727189b86bb60f807172d0", "asm": "3045022100e2acd2cb219351b4e661774b9bc1c292ab67e15f5b1554add1620e83fc1914200220124f1f1ccc77d4312792015cc45c9eaffed7778571b0bb9b45536f962f358821[ALL] 03a53f741ddb7714b6222b54266e58c38dcd59087ffd727189b86bb60f807172d0"}, "vout": 107, "txid": "f457935aa0fbad911a7f27c358d006e4158421a9e70beea3df89fc77c99c9f30"}, {"sequence": 4294967294, "scriptSig": {"hex": "483045022100e6fa74e980784f5f8fed576c7ee7d117e88e9a48dd27c5439a5a12cf9cbb5fc402207136acada3335fe6ca7b7c2d916fd6deab964582a39ce073f6979cf8ee3891ba0121034af46e6d2be2a3fac7aefea0bdbc75dd52a39d37bd13715e776a41a00c72dbca", "asm": "3045022100e6fa74e980784f5f8fed576c7ee7d117e88e9a48dd27c5439a5a12cf9cbb5fc402207136acada3335fe6ca7b7c2d916fd6deab964582a39ce073f6979cf8ee3891ba[ALL] 034af46e6d2be2a3fac7aefea0bdbc75dd52a39d37bd13715e776a41a00c72dbca"}, "vout": 0, "txid": "4f3f9d749e5ccb6e7164a36bf06ebcfb0526db0052ad52506d3cc94283ac0c35"}, {"sequence": 4294967294, "scriptSig": {"hex": "4830450221008fb1b3759cbff086c7fedc4342dbfcd62cd9f6a8274f2174484c8277fee155d202202b676573ef9e0d25cf8dfefcf526fd6f16d55bf2738af0c727fdc530e6b7621a012103dfd1de00b43dbe51444bca70632054944d9233ddd0e37735865a74389507c54f", "asm": "30450221008fb1b3759cbff086c7fedc4342dbfcd62cd9f6a8274f2174484c8277fee155d202202b676573ef9e0d25cf8dfefcf526fd6f16d55bf2738af0c727fdc530e6b7621a[ALL] 03dfd1de00b43dbe51444bca70632054944d9233ddd0e37735865a74389507c54f"}, "vout": 0, "txid": "fe6fca8e7050209c55d8eefe342ae085cd8835b6556c5f72ac624c94776c285a"}, {"sequence": 4294967294, "scriptSig": {"hex": "483045022100c7c2833303fcf5a95df22c4dbf9b5f6f1ceb6ffc95f3111af7c818d4b8065590022049d8420ad3f21514bc9c0339d055b711631b103a06a35095ee823869679f6494012102f48e40a1152de84c44865ffdb1056f22d5fa803270535bf524cfb9dfb0913221", "asm": "3045022100c7c2833303fcf5a95df22c4dbf9b5f6f1ceb6ffc95f3111af7c818d4b8065590022049d8420ad3f21514bc9c0339d055b711631b103a06a35095ee823869679f6494[ALL] 02f48e40a1152de84c44865ffdb1056f22d5fa803270535bf524cfb9dfb0913221"}, "vout": 0, "txid": "c7b22c80006a02c355d858f53578038ae3691d1dbda82ef6002b41b28b52a55a"}, {"sequence": 4294967294, "scriptSig": {"hex": "483045022100ef0c14c4f2cdc257f45b97e68ab74483ef87375b0c2b15e4a8b80e9aa6bb550302206dbcfbb371df90e6e165f22e8e92057ff990bbe3bfe0c8a8fec51b1024d74ccf012102b954f1287acda9e31e9e3c1baf5a522df96a7a1e692ae3624fcb559888930407", "asm": "3045022100ef0c14c4f2cdc257f45b97e68ab74483ef87375b0c2b15e4a8b80e9aa6bb550302206dbcfbb371df90e6e165f22e8e92057ff990bbe3bfe0c8a8fec51b1024d74ccf[ALL] 02b954f1287acda9e31e9e3c1baf5a522df96a7a1e692ae3624fcb559888930407"}, "vout": 0, "txid": "d17fb7400f8d07e3f39edeb02890995c6592b128033a93168df784a7b6e0055d"}, {"sequence": 4294967294, "scriptSig": {"hex": "4830450221009e06e0515c3a75e4114e00520b70d84f94989c8fecb8c2bceb3281b001bc84f1022072b1f846e5f9854bf5bdd155c564be016e6dc469999d4b4f80a4ecfd212f40e2012103cad4dfd8ea7d2d066434829623f0c665e3e723fb2e8a716b1f23d4862509fd00", "asm": "30450221009e06e0515c3a75e4114e00520b70d84f94989c8fecb8c2bceb3281b001bc84f1022072b1f846e5f9854bf5bdd155c564be016e6dc469999d4b4f80a4ecfd212f40e2[ALL] 03cad4dfd8ea7d2d066434829623f0c665e3e723fb2e8a716b1f23d4862509fd00"}, "vout": 0, "txid": "ecf3f4c1aac2a8b30f04c0b699c1b0690f9030a028104e18c3067b9cc74e815e"}, {"sequence": 4294967294, "scriptSig": {"hex": "48304502210096c5d077149f44c2b8150a618e7f8e24775765436e4e1781b8c9b38b6e67eb58022034a6841ca48ed057184d525e24bb85314eb7bbf27a44d7619d040eb7fda4fd2e012102dd251957a8ea9bbdfca7032e68af20a305abbe1b9681e2e96f6d64fa1140072a", "asm": "304502210096c5d077149f44c2b8150a618e7f8e24775765436e4e1781b8c9b38b6e67eb58022034a6841ca48ed057184d525e24bb85314eb7bbf27a44d7619d040eb7fda4fd2e[ALL] 02dd251957a8ea9bbdfca7032e68af20a305abbe1b9681e2e96f6d64fa1140072a"}, "vout": 2, "txid": "cbf63e6b11447d2cd5b23225e26f734d6def4c7a880059f5ed57f971b6ad516f"}, {"sequence": 4294967294, "scriptSig": {"hex": "4730440220350545cd85385c276299352bbd82c3743e31c2322747017eeceab576a47df24b022013cafaa1061da2701057f4787df225e41c4a8a6f6a306dba065a40d42f5b8e130121031f50b2fc35a2f49b4a5e29af5133150b230826e8feb2a958cdeb1b0fca0c4df9", "asm": "30440220350545cd85385c276299352bbd82c3743e31c2322747017eeceab576a47df24b022013cafaa1061da2701057f4787df225e41c4a8a6f6a306dba065a40d42f5b8e13[ALL] 031f50b2fc35a2f49b4a5e29af5133150b230826e8feb2a958cdeb1b0fca0c4df9"}, "vout": 1, "txid": "fda152037cb6ae3a8bb67799ba83277f658e8482bc46d11c389d4dd34435596f"}, {"sequence": 4294967294, "scriptSig": {"hex": "4830450221008ccb83f9f1d09b15e28b37f5ec5675c157ba573776ad98483b5fca8458519de902207d24e3d8275e9e5dbc88c63973b05a14cb09e734c5b21932b77f269e3c2444a201210345326d975877880c46bcd602db65fa46be5fb0a6e29108dc3a07fbafe3b7e7cd", "asm": "30450221008ccb83f9f1d09b15e28b37f5ec5675c157ba573776ad98483b5fca8458519de902207d24e3d8275e9e5dbc88c63973b05a14cb09e734c5b21932b77f269e3c2444a2[ALL] 0345326d975877880c46bcd602db65fa46be5fb0a6e29108dc3a07fbafe3b7e7cd"}, "vout": 0, "txid": "ce6fadda00a2af3a61f97e7586f5e43599689e311a99db7c0284c9698891fe79"}, {"sequence": 4294967294, "scriptSig": {"hex": "47304402203d0b7c499a95e1f5efd4e3bbdeaa693c72727c3f51b1c2d1bea122e1f5410c870220623995cbb39879dc2a5c0270b920741c98aa3f7d1f907bd953d5edd55d16933d012102430fd6974faff36e9437403432e4e3c5e2f4e40eea306c97fb929066f8441342", "asm": "304402203d0b7c499a95e1f5efd4e3bbdeaa693c72727c3f51b1c2d1bea122e1f5410c870220623995cbb39879dc2a5c0270b920741c98aa3f7d1f907bd953d5edd55d16933d[ALL] 02430fd6974faff36e9437403432e4e3c5e2f4e40eea306c97fb929066f8441342"}, "vout": 16, "txid": "9eee41b707808302feb1689b63e943b94b17fb568fa454cb81532f027e3f807f"}, {"sequence": 4294967294, "scriptSig": {"hex": "483045022100f652ff55f3a581ef8a6ab9617754986c6f98d9af370d455ea9a5179c0a27dce50220437b6606dd28c67636305d2e6eb1741386388a1c44c119d7f6c085ed7fe9b30e0121024ad3892715147ac2bbef3d54a65dd9bdc91a79aa7cd7254155be5eb096eab6a1", "asm": "3045022100f652ff55f3a581ef8a6ab9617754986c6f98d9af370d455ea9a5179c0a27dce50220437b6606dd28c67636305d2e6eb1741386388a1c44c119d7f6c085ed7fe9b30e[ALL] 024ad3892715147ac2bbef3d54a65dd9bdc91a79aa7cd7254155be5eb096eab6a1"}, "vout": 149, "txid": "9eee41b707808302feb1689b63e943b94b17fb568fa454cb81532f027e3f807f"}, {"sequence": 4294967294, "scriptSig": {"hex": "4830450221008945841fc05d504f0dcba73738371c647cc77bb7c062cb1d41375634deb030450220342ec18535798c7268a76adb2c7a2af20d211ed2b879c2b27955fa6471378fd5012102febd822d8ce7587ae6d4db52dff189b1a3aa03728c696ef1dca1adc63a2ada1e", "asm": "30450221008945841fc05d504f0dcba73738371c647cc77bb7c062cb1d41375634deb030450220342ec18535798c7268a76adb2c7a2af20d211ed2b879c2b27955fa6471378fd5[ALL] 02febd822d8ce7587ae6d4db52dff189b1a3aa03728c696ef1dca1adc63a2ada1e"}, "vout": 0, "txid": "ccb9c86f41e11d4a2c0778e8d770bfbc3d4496f38167a32daa7e9f5dd337f983"}, {"sequence": 4294967294, "scriptSig": {"hex": "47304402205e6e226719f91da7bce45724592470c1c2d5ccb48ff1fae4a306c86fcaa6abf70220032fdbbcf7c08253b43df2782d5bd565e31d49cc39383d9a6f73b68b9384a2c501210395fa33cb0b2fb2633369c32ca9e8537c75bbaa352582c3473db87df5ce28582a", "asm": "304402205e6e226719f91da7bce45724592470c1c2d5ccb48ff1fae4a306c86fcaa6abf70220032fdbbcf7c08253b43df2782d5bd565e31d49cc39383d9a6f73b68b9384a2c5[ALL] 0395fa33cb0b2fb2633369c32ca9e8537c75bbaa352582c3473db87df5ce28582a"}, "vout": 0, "txid": "4f19bb7f74ac6a871479cfdf2fefe350e622468aecf4622ed71f670b8624e294"}, {"sequence": 4294967294, "scriptSig": {"hex": "483045022100e4f0194c1a43a983d469f68998f5c9a45de04b18b4ca4ddf655121f14094fde70220728c0b48bed030e05fcba6aa51a7f8532e7258778f93decb7d411e292ca9db160121028b195f17117db02427b8643da19221da3008e375714303f118c79d30edd5d869", "asm": "3045022100e4f0194c1a43a983d469f68998f5c9a45de04b18b4ca4ddf655121f14094fde70220728c0b48bed030e05fcba6aa51a7f8532e7258778f93decb7d411e292ca9db16[ALL] 028b195f17117db02427b8643da19221da3008e375714303f118c79d30edd5d869"}, "vout": 2, "txid": "b7b88c0583e8a7be50c8cb3b11664a8a437aaec3e5038847dd589b898721cd97"}, {"sequence": 4294967294, "scriptSig": {"hex": "483045022100f9706325d46fdd86706c2f1f1b6fc4085e1b8b7ff514cd7b04e1eb525e165fd602203e647b66535e7f1f033a6d88b50775ef731a3ea4e6d3ace5ae16c8b701cd3a2f012102c52380b6388958b2598995bbb18bc9e128099c4fd0102b2c998a305b34e7c256", "asm": "3045022100f9706325d46fdd86706c2f1f1b6fc4085e1b8b7ff514cd7b04e1eb525e165fd602203e647b66535e7f1f033a6d88b50775ef731a3ea4e6d3ace5ae16c8b701cd3a2f[ALL] 02c52380b6388958b2598995bbb18bc9e128099c4fd0102b2c998a305b34e7c256"}, "vout": 4, "txid": "aad062e9c2b952eaa22577b4547379327b07d12d2e94de76e6461b7f19356daf"}, {"sequence": 4294967294, "scriptSig": {"hex": "483045022100dc0d6de6d33c09c6241f5eada3edf5df505af4942d048f8b4ce77cf4ca210b2702201aa1080189d8c16665fb31b76ef3992db2102dde3eb51bde56eabc43e66a8136012102fc30c9750b4df3d948de8ec2b2e9c4ef083a0ac8c22974b48116bb6a258c0551", "asm": "3045022100dc0d6de6d33c09c6241f5eada3edf5df505af4942d048f8b4ce77cf4ca210b2702201aa1080189d8c16665fb31b76ef3992db2102dde3eb51bde56eabc43e66a8136[ALL] 02fc30c9750b4df3d948de8ec2b2e9c4ef083a0ac8c22974b48116bb6a258c0551"}, "vout": 2, "txid": "a847bc051f727b3d8e85983e1268544e4bf344cebffb10a254d72a01f8c2f6b3"}, {"sequence": 4294967294, "scriptSig": {"hex": "483045022100cb81383500e3cc394201913bfd5f80061b63cfd6d21872a25f1d802a1a073d7d022069872a3033675d138cf707cec2c528505eb0989505cc87901666048d62d0f8320121027035a772e8a54a3bbbb416e2e3f5add5b76f289b64ddec40153c2c9306d738dd", "asm": "3045022100cb81383500e3cc394201913bfd5f80061b63cfd6d21872a25f1d802a1a073d7d022069872a3033675d138cf707cec2c528505eb0989505cc87901666048d62d0f832[ALL] 027035a772e8a54a3bbbb416e2e3f5add5b76f289b64ddec40153c2c9306d738dd"}, "vout": 0, "txid": "46d8966e06a4d26b97f3c91ac52336fe649feae63d2954444ed37fe899b896b8"}, {"sequence": 4294967294, "scriptSig": {"hex": "483045022100cade7b61eed3ea8347a5a4a6065f6c535d127da69c87876f22d42d5f494ce2fd0220070e167e1008e6a7bb4a3b267669d21b60e64d0d854a90f6c6e7239987ecc39f0121029296580b004e2234173da24821fca22f138668c199d481f895a61287e53fbc03", "asm": "3045022100cade7b61eed3ea8347a5a4a6065f6c535d127da69c87876f22d42d5f494ce2fd0220070e167e1008e6a7bb4a3b267669d21b60e64d0d854a90f6c6e7239987ecc39f[ALL] 029296580b004e2234173da24821fca22f138668c199d481f895a61287e53fbc03"}, "vout": 0, "txid": "17463fdd5d8e120906cb0911c1665ea9caf009c02edadc16f00ad0b2e453f8c0"}, {"sequence": 4294967294, "scriptSig": {"hex": "483045022100f6811193bd07891c4463ad24c94063748a24b261476c7fae9c19645728279a2c02204e4032639303e1a87e5e3fe1de5cd255e1ad7f3b1753c52af4023b558cb67bb901210354b43953c84e852ef0c545cfbeaf6bae6ee64ab2884931a783e89da417a72c69", "asm": "3045022100f6811193bd07891c4463ad24c94063748a24b261476c7fae9c19645728279a2c02204e4032639303e1a87e5e3fe1de5cd255e1ad7f3b1753c52af4023b558cb67bb9[ALL] 0354b43953c84e852ef0c545cfbeaf6bae6ee64ab2884931a783e89da417a72c69"}, "vout": 1, "txid": "cf0ca0e44918df44f0bfb617fabe198dc4fc2643ea699871bc28cbdcbc655dc5"}, {"sequence": 4294967294, "scriptSig": {"hex": "47304402203ee0a4876d62c3cf6b7c011cbd2a2d76ddd098c734e4794beecd6540b64d713f0220092550b879adb6d5b9673457dddd01edf06d791543eb9d6f484e3610f7a034f501210218fc5936844b01a979bafa8c8aa26bae6a1ad8ba1418671df6ba4e6bbebbfe73", "asm": "304402203ee0a4876d62c3cf6b7c011cbd2a2d76ddd098c734e4794beecd6540b64d713f0220092550b879adb6d5b9673457dddd01edf06d791543eb9d6f484e3610f7a034f5[ALL] 0218fc5936844b01a979bafa8c8aa26bae6a1ad8ba1418671df6ba4e6bbebbfe73"}, "vout": 3, "txid": "a39b9a56cabe103f58ea40d87a81f74b0b2e1ca0a4d461c6086f9f26574ca9c5"}, {"sequence": 4294967294, "scriptSig": {"hex": "483045022100adb31b8855222f2604376d008a1fe5b2f8ea0e962b810f16a07aad70335d00d7022017de5e7d32a3ca640a1c39474e4b00dfafb7014cf41908312d04e9d415bee291012102419a982225c576663e040d5d68084c9889cdb6003692a29ccb90c7c46b08796f", "asm": "3045022100adb31b8855222f2604376d008a1fe5b2f8ea0e962b810f16a07aad70335d00d7022017de5e7d32a3ca640a1c39474e4b00dfafb7014cf41908312d04e9d415bee291[ALL] 02419a982225c576663e040d5d68084c9889cdb6003692a29ccb90c7c46b08796f"}, "vout": 0, "txid": "43922c44c2cb401129db08c11fb88d3b7d4bf10f4aa3baa1cb89f3294f3a09c6"}, {"sequence": 4294967294, "scriptSig": {"hex": "47304402201f465b020647ba83403ad42ae389f39918a305cad069938c23188c156c89d016022035373a924b77cdb1cac97156eca246de75b8a4051c4aa761a9bdf29178f371010121030e20b87843407db8044e469310a9aefdd3befd67423f29c741dcc918a5aa91d4", "asm": "304402201f465b020647ba83403ad42ae389f39918a305cad069938c23188c156c89d016022035373a924b77cdb1cac97156eca246de75b8a4051c4aa761a9bdf29178f37101[ALL] 030e20b87843407db8044e469310a9aefdd3befd67423f29c741dcc918a5aa91d4"}, "vout": 28, "txid": "7a595a05839896c1ce1150f33fff3a61c68440128f728b52d9f4b9ac381884cf"}, {"sequence": 4294967294, "scriptSig": {"hex": "47304402207f58a82d66a1d9acd5a69291f5dac815e04729f752b176899634c707bc2f1a1d022050a113a1c5b5f1cb8f5c103a7b0a8de81819f9fb0b755faae80c12f40548f9b1012102aedc2434fa94d0a4ce7c6f8515ad488261a5123eba3eea9a4dbf79f9c5a73c59", "asm": "304402207f58a82d66a1d9acd5a69291f5dac815e04729f752b176899634c707bc2f1a1d022050a113a1c5b5f1cb8f5c103a7b0a8de81819f9fb0b755faae80c12f40548f9b1[ALL] 02aedc2434fa94d0a4ce7c6f8515ad488261a5123eba3eea9a4dbf79f9c5a73c59"}, "vout": 1, "txid": "db497582d31856d553ea3865f8d5d3506154e7d3d4f70633dd20b8bfc6fa53de"}, {"sequence": 4294967294, "scriptSig": {"hex": "473044022035fdb60ea544129c0119ddb9a36be68c86e5aee0f7f871b48ce16fbca9883200022034a195cbb722b2753ef9dff9337d431cba6a8a1c2112cf556872659600f166ce012103860202a6a4e5a2a6108a170a4e95e1cb14a75d239a0f072bdfd25ab9f0aa53e2", "asm": "3044022035fdb60ea544129c0119ddb9a36be68c86e5aee0f7f871b48ce16fbca9883200022034a195cbb722b2753ef9dff9337d431cba6a8a1c2112cf556872659600f166ce[ALL] 03860202a6a4e5a2a6108a170a4e95e1cb14a75d239a0f072bdfd25ab9f0aa53e2"}, "vout": 1, "txid": "0442dbc56fe399701fd6b7397b5a900bef389ce05c8e464010cb9b64c889a4e7"}], "txid": "025f7a3a162ef5110256f035cec4f237d445e0b095acf0ce78ac3711dbbc17b9", "blocktime": 1537871767, "version": 2, "confirmations": 11490, "time": 1537871767, "locktime": 542992, "vsize": 3770, "size": 3770}