{"hash": "eb10bf1ad3b781e16b333ccf07f34bf48e0fe88ba3991ede3d5044999b36baff", "blockhash": "00000000000000000017f5eb5941039fbcee6240d03bc1f2f8e35350df66a1d8", "vout": [{"scriptPubKey": {"reqSigs": 1, "hex": "76a9148ead504826f049630b7f5d4bbb0b49b81fcefb1288ac", "addresses": ["1E1QaHF1Emdpm88BxFCWm7YgWe6omkNtoy"], "asm": "OP_DUP OP_HASH160 8ead504826f049630b7f5d4bbb0b49b81fcefb12 OP_EQUALVERIFY OP_CHECKSIG", "type": "pubkeyhash"}, "value": 3.5, "n": 0}, {"scriptPubKey": {"reqSigs": 1, "hex": "a914dd2467796d7761803e15a0cdbabbf4cd0cc5cee387", "addresses": ["3MrJsM2sEdvPL4fuCJjMhJvsQ4qQV7VG6x"], "asm": "OP_HASH160 dd2467796d7761803e15a0cdbabbf4cd0cc5cee3 OP_EQUAL", "type": "scripthash"}, "value": 0.00980962, "n": 1}], "hex": "0200000000012907557df221d0ef8fe516e073325aee1c7e9210c88c76b5536968f0b11492a75a0500000017160014dafd2da96018609e90dd76e388336411a9b02517feffffff0cad5cfeb74b1e5bb132904600f89a14f7a83e68e6e61b18a6969643f51d9301010000001716001407c59f69ec3df13abe37450e1c0db5c26d653e1dfeffffff241c242b5af23748d8e7d08f9e8791e9422857ec6aefe233b3e3bf2c3fa7a35a0100000017160014a6873f449d48f8291e7d710c540b9c0a2fd36e66feffffff39dfab5272aa0b90edd9d24ccf8943548a2583b5ce87c02bb31e975994ef83cd0200000017160014a06b4fae4b250d330dfa85f8e649f3c5cd19cda9feffffff3d1424a648d6643b9aed8bb7efce64eef894a9d956c70e3af79d8a464bbf120e00000000171600148f6fd9bf9de3c23fe49aa2539d0c5d686164035afeffffff3d1502d44f9f6e562620bbfb967be52133d3df8ce3f9289101783d54a9f8971300000000171600141a65c91931a678f30865398a00642cca9a7ff98cfeffffff40349ea7a41483defbf1a79f3287af2de9c6a101ebb33833432e5b0a961576d801000000171600145a985698e202558ba98a988b7fdda8ae36700071feffffff41c9564c5ab446308da92810bbe564201729b985ef931967f7dd6b44567d50210000000017160014bf44a40bf0874bd8b90afa255b461ed424a065cbfeffffff421036db9dc4bd79b961f7775e2ad7ea79458a1f8e9c97bcce606132ac10c8b9010000001716001460945125d6328251cfbe97504d9840cd77ac51eefeffffff4342fcef5cfa8938b411a91a06286d919297394da74eebc8eb1a493bd9b58625000000001716001490f070a6c0acc5eb67c0e9e682eb6cc306036e60feffffff43975239debf8f8281b1c83c73009c408a3e508ab6e640579e7b223e9a18d58e000000001716001419a6657442daf704f2de6c49f873323c9028fc36feffffff54bd5683aae922567d277b8cceb3a9c3d458ff383c86cad9b5c4ed9e2ac0e9090000000017160014a53a27654531c3e7ff9d662f65804cf80afa791cfeffffff5a4a63fb6973b5aa454108dfa2178f308d752c20bbc3edbdba03b85fc5aaef74000000001716001458cb557a92e38786c8e49e69de7b83477dcf29c2feffffff61683a45aa19b48b39a8fbcbe5c6c4eed41c6505a0affdff0033f9f6f65edbbf000000001716001459f0ab918c16850dc8a0ab07d4341d3b8a4531bffeffffff71c7b5ce2f534d690e1fcf1252b14bf51b4ceb1dca15d4e2e0b618ac22cdfb32010000001716001411693db0f9b5817358c5c740af53bf6d5ff48024feffffff74f87c73c468608ca6b2b98d299565aab2cee61a0ad3d228a0122a55dbfee68601000000171600147403989e8a545e7c7da0d6745b11b0c5c4657311feffffff7e783387b8c0cdbaaff8781d0bfc2c1b18745216508e2725ba310ca5c644831b0000000017160014d243a1aca8b869e76bec14a1a05889ed7225b0e7feffffff7f4f3a26bc11181f6ef7230476a632ba740e1a3375a8912da9218e546412318500000000171600147ecfd82ecc3a83a93a18a7b92f44920ad66875f5feffffff83187074f42f83f325f2ac711dcb2d89ac859dd980ce6240a587fb9c05436c120000000017160014fadaa1c20ae93efb0709a89e6443e2b1fd4897cafeffffff936121895f4dd26b1dde4740d1deafc4112c891353283fac33142625951ae23b010000001716001405d772b69c9490e4b9e97a3e620b4be5ca540465feffffff988c2512df8af0407086398d84448f4cf726e0c7231a95b17f49412224ed004e000000001716001440cee48ab296d5110768897791a4434f1734a589feffffffa84efd54af381d6bf70469a6d32e943546addf67063fd0747a424078dcc4ac700100000017160014708ca2fdf34ee606701e046680b4a847c923bcfffeffffffb1e3c41e628935110d37378dafe3143f1a5a54460efb8a44747a450383d3c2da0100000017160014b75cdf5b52ce9c9f23ce96b5aa9d1e4990daabdffeffffffb3124317c66dbaa17a53cab83a7be3aba12751ca30ebdda7f64971eecc62d8ae000000001716001478aa9b84957ffe3ebf35ec730f24295cf6d46264feffffffb45f79cca530caa13c0327ebe90ee562da7549c0aae22dcd349165f11fb79fa20000000017160014656aef8241c8f7eb93f316e175177c71864a24befeffffffb5c020447aed0beea973060fa11768c203c6df4a6bb841b194ce8e0b1f24f6ca0800000017160014054345cf82cd5eb814d01457143ff2636f758c95feffffffc5af9c47bbfb612c06d811ac88890236e54af63d870f0096dcedc76bfa7de5c101000000171600148f6fd9bf9de3c23fe49aa2539d0c5d686164035afeffffffc6b0d4602678cd9195b0fcb2d7749c25a199458557f4308f692c16ee23e9eeeb0100000017160014e1640f83887396b919ce0a2a0902550ce083abdefeffffffcbd3b221e9badc5b888f857d31176a4142a52a08e3db4790a4fb40725783c6a6000000001716001401acdbe9e263511fd617c21d6dd707abefef4fdefeffffffcc88f2c40a84a7d72266408201d14c9b4212e16e37c00623434bf3d290415f090100000017160014fe875e8ba8327fba3dc4bb6001309c40283b462cfeffffffced32512570c432f3f69fbec6ec575c1bf35a878bd8af96124b0cb9b4904fcf20000000017160014f3a9585dc73137bc76d605ed562f2789457b344dfeffffffd179c3d43d097443c22516aef7b66dfe1ed3135ea122bf9e1d4c85358e59a98001000000171600145e5110d05e6d289731953dc0425f06da4fca4150feffffffd63d74e622293a5b99605ab49101d119dd804ee5d41cd7b6e6ebba28cd91882a160000001716001469c9af7174559b04205c9d680aab928ad9a66dc6feffffffe58682350cf09bc58c63590c301c2ab1ee2a1a1683bc8d8394eb0e71b70bbcab0100000017160014bbc3dba00adbd081875a677a22cb10152d0b60befeffffffe7bd1487d43c977a937fa3c70764d29bab31e7b6b0f96f60d1ae2acb7a6dd26f00000000171600145aed6abf999cebd3ad752e85408357406ba8e8e5fefffffff2b5834c5da2565303afc8453f14d8097f0bfb9cf9e93c0d11d1d8746653e0ce0000000017160014136d4dbf92142603c991eb166b08f0a34d6ec631fefffffff3a7efe6c8c76530f5b3ce0e2217c979984ccb4cd6566b272aaca33fc34a5ce90000000017160014a90c182e1a7ccefff0dcd7f6d90c48ca6757e2f8fefffffff9eccf08d4434f206ec337a70bed3c4a312800a8ef8a46c1a4b469575834a44a00000000171600140c646eeb9b18f0d8e78cbd3c21784de0d7d962a8fefffffffa7fdf8055c79004d1ef13f9f94711acd30fde893f691fa6d9e2fde922e57c420200000017160014ef0d409f7f14d1f7677bf987ac4f632693c9ff39fefffffffe3410a2413af28e2e609ce4e9469cf8d4b13ec5a9316ca12607a5480e3cb9da0000000017160014db8b81a262eff51768cf26ed85e75120f6a855b9fefffffffe9afe093c425ba7bc88da7bd212e62d2e604eec9ccdabb102c384eb9651097c010000001716001415e477835e1e46a04e6c17bb1a61d1b6460675f2feffffff028093dc14000000001976a9148ead504826f049630b7f5d4bbb0b49b81fcefb1288ace2f70e000000000017a914dd2467796d7761803e15a0cdbabbf4cd0cc5cee38702483045022100edc5dc9a92c189246332a87fd92d4c1d494ca10c228dd79a74e8b93ad99eef2b022066d62c8cf477d8ce4bcd16682bc97866d04e27db60722e24b0cda2ef645413a901210281b198ac91d7e1cd6e759c85b846d9e709bd8e5d91b43d4e38a0ac08e00d0cd40247304402206967cb895e2c8fb1291a5fc65d2cc9d964a11cc138ad268a7fadaf6fdd5a52a0022016cdace39e15837d44849d0a325fbec4dc3351b6068da14f724e8c3e7331827301210328e0a716519da45a9da638ba94f9dfed3c1e96599e21cd46b3846cfa88db024c02483045022100e01c7c6183f33f4f8fe5c3d87dff15d8e0647b8eb0f45c006dd368d0022ceffb02207622252a0cc1d39fd8ebf4ee34674eef0e54f3280bfbc5dfe5376fb80b6794c20121030702fbf1eeaa0d97812cfc6fdf4b0fae1f81d2dfc8d6ba72db26887f8d90234202483045022100a7e4ea8e2153104f1a0e08bc2fc6ccd2af090400b82142ef1b957b55210ad68202204613265fef148ac27c55915f778090fde6c6ca71409fe9bd71c142be1eb1bdf3012102d1cdcdf4154b059af49d2474cc1ea35e1e13269f3d57cdc21c6745ef0e60b8cc02473044022028485248c70cb8087d8b293fc36bede45b72e270e8eca0d8da52ee735431527c02202b8f83aaf9660595e176553083336425e2fecded642a305f4bb32651ad1c8e990121024e7aeac599404d95d539dbdf9fd100b0c78bfaf51662a1ce00f6fc97b64bdf9d024730440220664126fc668c2cec118ed2d62a3434441e32dcdaf485b69c3df5c17960c8bf0e022017c1b42a78422a8fc13382bc35dc0435792250d97bd7d74922151f2fdb77beec012103975f6e3b8ba3e020379ead6d8ec83dcc4bfc5e7e912505ee2ff138e681e82e1f0247304402202787b34f7fba2bdcb9ae9ef9af19a90b5754c904a534e39e38d6ed808625d36302202aa3998db57284f8861c8013be42a621a4601bd6b9014bec0bb13b5e596dcbdc01210299a1c539218ba15294c97e719a5cc38a6a0ba7a723ab3a1fd4b1122fbd13d79402483045022100a25b735439598291285e88e221accd1258fe2124eae452f63764d8b4c05206ea02207eee4dad9b0fcbab5694039309342e8f76305571347554dd5594c84692d38f3f0121035a0bd97b45d3528ff05dc25d977820ec4233d6e7bceada718754c6005928099a0247304402201ea5aed9b76a2c5aef69d33a459d58c0514756d7fffe574d7bc453ecdd5bded00220306656ab35d98cf535717cd561c6de1f411d5bd4e71c1674b8c3f4546453b3c80121035ef6e06821847038768df1735c4d974b5e8dc05fbe8acbd543618c43f8e6893d024830450221008330029c4a9cb98b5cda79901059b283a9308ceb84cc828c10276cadd97137ac02206bb087cde124a18a79617b54b7c6c836f8c495ec0cdcc5f04d94f81104be23c701210351db8a9e01f2137ad22e4e133e3c6cc03fcb96d9b127dd286014923dffff2ec90248304502210095904f0a273740373a7eecafe37a3cd0d41ff703465bb9986f96c34ed702bfa50220769799e622f4aa03b1b40213448441a2271616edd020ca6e808d35714eb96cd9012103a9599ea91220063e2aaa78487e9ff8f67e947b78412e3224dda4fe011a01e9e402483045022100f5acd9c10a1a1aa8a6b642f7db0120262875733428b484d4c6ba43c9e7f8de85022026e1316135c76f13c85bad87bf2d5b292a75f965b1de43a45e626d8ea8db0a48012103fa790ab6dae35f4a0d4c6132efb9784662aeeae77ff81f969949af0e16b5a5ce0247304402205d00bef8c5e82710f188de306b8b3ab6d54093ae6e3876a3093b9391b23abd280220575fbb8722dc5b3a9666d77e3a73e03458bb98b8228b84b4386fd09b36186777012102803a3d20d0cac1852fa3b0e51d00712f3072edd9c1da619e0566f3661d47bbe60247304402205c42272c591ab76cc4c689ba08cb9d62ce5041dbd340dd42fc37c1c1e9fd159a02203ad845b0b5e782e178b35e60075a31c45dcd1fb08dd70fbf57c037dae16fb5c8012103f59c9d6d1166dfef1d13e8e151b02466e7ab354daf77489300829002ecab036e024730440220021e17ca17489c26e0cd233d6a8c84c3790677362054217496e839b219495a170220732021a95f8c02e9de1e2bd38a5ab9cbcc3eabf6a677de2d40497d1609d956160121026e4ad9385c3a24f347a00862624184ca3c1c2f5cd33f3713bff0c9a0553ebc7402483045022100c3e15b3c80c76646378f26c5ec7013b4a48d436f89104888d66ed0e1984aa00c02202d9e61c5e379a1cc66cd029c046ef0283c22a51b6e50157e55b52f2202667245012102f6ea5b295657e2dea775f5fd17c91f6763ab56ea8692c81a12a3991ea2e20acf024730440220162f34074370a1e2793fd3d87b9743edcb2884b4605bd9fbafb441dbc81c5ba102201da3efeeca281ab85d0fb191bda4bf1dc528b2d8e99bb5d6097ef5df1074c462012102d98b4ba07fb2dfca2937de930235c5ca1fd5c7f7eb045a0d54bb7431decbb56b0247304402203c28b8d6ae16c89d134729b4b6efdb641468cf98c82438c8a0ad7cbc6e7f7e3502201e41fea47599af004fd31af3214f0550c36e0a3b222b1bddc7d03cbaa6a8deea01210345d194b88bf8b2d7ede97273d0d1a94cecbc439c256d893c27a894cf2417c9f9024830450221009b0e1dda1ba61626baf683dc555af61b34706e39d2c02de29dfa511a7a36727e022036a17cd7394d79833c24f033c58999ed7077c15b881b104a0fb06cb758b1be11012102169965b146a50c95ff4fae57c6dd36a0f5eae72767f0372c6dd79690ced17c1202483045022100e1e8614d7001f37e6dce27baae10c37716135a68145d9ff5be046098c04ec9ad02207932414b92504f0755ab37dd7a12eba3d50a1c045e0ba1431fbf80a0f2b1d8aa012103a2faaa12ae87ca252d5f1d02bdd04895d54eda25033b1b4125af77597b0067b50247304402207c9f27bc8a09eedeb547954be1097498318bc1312f5464af785251fc41c356bc02202d87897b69051b568125a558f141df9bdaa712d87c83f7d685a60b8fa46b45c9012103da181255cf1968625e275167e9ab7a196210bb287b558ab3b2dfc47210a7f11c02483045022100eed990d813e633f938d949638d74e924639e3948eef6c91aad6e4a00611661f202201bd53dedf8e9d966b5092fb55332a300cacbce84082e384a7b3c3397ba6f4bc80121029ffe26b6678925e349be500800ae9d19f39585f65c20ed23f66c4dea3fff28f502483045022100cc22bab674a4e42d83d1faabcbb586923682d32e362064746b182e00ab4b674102203399771cd654047982fcbc6f4c359cfb36a03513ae470cfad2955dfec3e616df012102fac41e868551342b7c7d4557e3f9dd8ba67b691bab731d8bc6714ecb2246b68902483045022100dc9e2fc06b943bd96bb9cfc4e7e30b5d7fa5c73b42b73a04b81d7f35a21e52e40220216051755efca1d266de12d1b64e8fa8b9dd97fc4eebec3dd20ac6f3a9897ee70121037fe20fa4edffcd9efac49f32d126ab40099377d0251862c0cc7d2eed1be69ac002483045022100e055350839a86095fb3b822520230bcd6831e6f3ad3c9e7019df8cccdface842022037748d960d79ca58c136c7b1b33535ad313ba57d107291305099c911b498bba00121022c4cfef6e5be990733fa4d138aec72f8890f50289e2340abe5dfedf14d41307802483045022100fb1940f26684ab2591d601a342cc0235f14a1d56dc97b162aa22c42789d4015d02205e494543493337cbec8211242970e7b80a9e546f9ae6ef00eae0f45ed0c784b90121032bcd35c1da7c95f97c44e02575c9abe7628b321bfa39c42c9ae30b1790941bf7024730440220221da8ae72242d52d30280c13b5c80030bf7c5de039e559852c0d909c115f997022002295896a0858f532969b54ce86ee2499fee4763cb90fae19b4e38c72b420fe60121024e7aeac599404d95d539dbdf9fd100b0c78bfaf51662a1ce00f6fc97b64bdf9d02483045022100c956a56ae10c1225d40af1c50e18eaa26a60ccbef8a7f5e743beac2539b498c102205d3d13128768742e89011ed3889eaddb76e85914087305b18388236d514e3ef20121031d51522b2b511204f1c6f94699f499a8b74e071475e31c321550ea8cbe7a48c002483045022100ae8d6f963fd05eb28ecd0721fb8e132431f107a999db0bcf765bdc6f49c4c69a0220464f7560d82591bf22cbb440a0cddcb3b4d5169ce3307c8b5485f69dffae219501210240a79292dafe231ab441c80691fa9c4caab155acc80c39e2a9852e468d58c9c202473044022075279088ff5166f1464e8a1325751108d86cf6eebfb70f7cb4c0893bffe3c2640220452bb4f297021ffb33008baed18642f5237394782936b5e1ea077a68875f3a3301210347e1d70caa097e66501341cbc4b033e7d450756bf3bbc60398efe3d6a4e3d4890247304402201d1f17b9a6fd97b1a4e18daef506773ff4264b57180eabae1c7a5ab74f66ad1102202252b96428a7d8d123d8fce074dc22bb441fbb6d975152464d8bbed907b1003b01210222366c414ac82f9c77e84c60f805057475ff4b926c251dfed1d72ec3b972002602483045022100bb759832030b6f29e3ad9b871403c575b08b3e6057e30b0194fc9f251c91ddec022038d55413c0d85ebc03b6e31d1161f0f8908c2b32b2bc0f3f335328bb38e00d7a012102524251bb3f270bcc23212dbf5782b866e783c93513d54fa5fb1761668a3740be02483045022100f83ae89cedd63a21ce6d9c87a13f0b63ce8858fb256e33623e515f77b70bd11c0220111b16a3264eb2d6ee1115eaa6b2fa69e9232fa6caa34e2076686621551c0b880121038a17b0cec24eee6933563828beea3871f7f1c4b49fc3af395bd998c4b78188f60247304402201b9e79a9fac348e9b5b46f0ed1a0b0e23284c29e681fb07b53c0489fc080902d02205453d01439eb01566317781b8da2a9f4c539dcdcbf7b3d299e8fc728c5b0e4ab01210336b70aa1c7c3ce777b8fc254cb8fe670eedd64f80e3d91b703363c489dd010c002473044022047afde6c68ba4287a9dc04089c4da15f46b51371716fb84a206e57793e7e7254022003ba97afc2cca9c4012a2afb375073e9c18e7827eeade980b2dcc78252fa81ba01210258dacc2914b4aef145a0d40cb38e7fdea68443e3f4ae0990b15dbf3487e01df6024830450221009bae9efdbdda8c731e6e999a32cb476b85a74e81e03ac088637f85a468900a5c02205c6ecdc658c1832e5ec679fa996b1859f8fb75f7cd37d3fb3268fa099e0cf62c0121024e45dce144dbe9a36fb38fa77a7199d41d9c69917c8d35dff7a365a1f3922cb302483045022100efd325573a7e41a53b4d3232484c3f1c2f85501bf9b84eac00b752bcd66816b702202b459f5ff773826693b8370df57384dec53a58e867574278d2f0cccbdce98e060121025804e76ea1e5c0a1e8a44a39e0c642b2cf92c2b907f1a6806a68df0379e3635402483045022100a3124c14d5941c73e738abf86064df7b0a22e9ed2cf4b69b67928803f5617baf022040df8bf139d1a503bf0aba41e5b0aaa171c25cafc5165fe0b955b2e0606094bc0121023847078557b9b968f1f5f73fee697fa9102391cfef7752729b6b58409b5266b302473044022013a1e6f84a60bc734a52e0debc50f6ee635ac15f9c859dcde6b646231d6cabce02203fb196daa39e979ac72dcdac224033bc84e37a9510c6067b2c65849028494bee0121026ef9bdf3bd949516b48a6008e039023420a3550ae0fc85d3fedd94b269e0c93a02483045022100fdcf6436f7d8a68d0b472921296b0c33462eb1751cc3abe30faad8823daa9fae0220608bc3edd1436acc26b97c323fde5b9c83c290aef90ad39a4d50de5845367b65012102cd7db7b2200cd759e13e672f3078c14e8620da50628500aaf9aa438c53fec79302483045022100c30abbe484360bc6c0af362d8fff519ad888fb8324df69dcf414964e9cd9255d02203ff83a52d1d5a26fef0244e130aa70c293c785cf9e4dfaff74728939f0c95f270121039707a076bdd99cf196545fb258b53c6b533216a1c2a4c88b3f5636f6f071c7c315490800", "vin": [{"txinwitness": ["3045022100edc5dc9a92c189246332a87fd92d4c1d494ca10c228dd79a74e8b93ad99eef2b022066d62c8cf477d8ce4bcd16682bc97866d04e27db60722e24b0cda2ef645413a901", "0281b198ac91d7e1cd6e759c85b846d9e709bd8e5d91b43d4e38a0ac08e00d0cd4"], "sequence": 4294967294, "scriptSig": {"hex": "160014dafd2da96018609e90dd76e388336411a9b02517", "asm": "0014dafd2da96018609e90dd76e388336411a9b02517"}, "vout": 5, "txid": "5aa79214b1f0686953b5768cc810927e1cee5a3273e016e58fefd021f27d5507"}, {"txinwitness": ["304402206967cb895e2c8fb1291a5fc65d2cc9d964a11cc138ad268a7fadaf6fdd5a52a0022016cdace39e15837d44849d0a325fbec4dc3351b6068da14f724e8c3e7331827301", "0328e0a716519da45a9da638ba94f9dfed3c1e96599e21cd46b3846cfa88db024c"], "sequence": 4294967294, "scriptSig": {"hex": "16001407c59f69ec3df13abe37450e1c0db5c26d653e1d", "asm": "001407c59f69ec3df13abe37450e1c0db5c26d653e1d"}, "vout": 1, "txid": "01931df5439696a6181be6e6683ea8f7149af800469032b15b1e4bb7fe5cad0c"}, {"txinwitness": ["3045022100e01c7c6183f33f4f8fe5c3d87dff15d8e0647b8eb0f45c006dd368d0022ceffb02207622252a0cc1d39fd8ebf4ee34674eef0e54f3280bfbc5dfe5376fb80b6794c201", "030702fbf1eeaa0d97812cfc6fdf4b0fae1f81d2dfc8d6ba72db26887f8d902342"], "sequence": 4294967294, "scriptSig": {"hex": "160014a6873f449d48f8291e7d710c540b9c0a2fd36e66", "asm": "0014a6873f449d48f8291e7d710c540b9c0a2fd36e66"}, "vout": 1, "txid": "5aa3a73f2cbfe3b333e2ef6aec572842e991879e8fd0e7d84837f25a2b241c24"}, {"txinwitness": ["3045022100a7e4ea8e2153104f1a0e08bc2fc6ccd2af090400b82142ef1b957b55210ad68202204613265fef148ac27c55915f778090fde6c6ca71409fe9bd71c142be1eb1bdf301", "02d1cdcdf4154b059af49d2474cc1ea35e1e13269f3d57cdc21c6745ef0e60b8cc"], "sequence": 4294967294, "scriptSig": {"hex": "160014a06b4fae4b250d330dfa85f8e649f3c5cd19cda9", "asm": "0014a06b4fae4b250d330dfa85f8e649f3c5cd19cda9"}, "vout": 2, "txid": "cd83ef9459971eb32bc087ceb583258a544389cf4cd2d9ed900baa7252abdf39"}, {"txinwitness": ["3044022028485248c70cb8087d8b293fc36bede45b72e270e8eca0d8da52ee735431527c02202b8f83aaf9660595e176553083336425e2fecded642a305f4bb32651ad1c8e9901", "024e7aeac599404d95d539dbdf9fd100b0c78bfaf51662a1ce00f6fc97b64bdf9d"], "sequence": 4294967294, "scriptSig": {"hex": "1600148f6fd9bf9de3c23fe49aa2539d0c5d686164035a", "asm": "00148f6fd9bf9de3c23fe49aa2539d0c5d686164035a"}, "vout": 0, "txid": "0e12bf4b468a9df73a0ec756d9a994f8ee64ceefb78bed9a3b64d648a624143d"}, {"txinwitness": ["30440220664126fc668c2cec118ed2d62a3434441e32dcdaf485b69c3df5c17960c8bf0e022017c1b42a78422a8fc13382bc35dc0435792250d97bd7d74922151f2fdb77beec01", "03975f6e3b8ba3e020379ead6d8ec83dcc4bfc5e7e912505ee2ff138e681e82e1f"], "sequence": 4294967294, "scriptSig": {"hex": "1600141a65c91931a678f30865398a00642cca9a7ff98c", "asm": "00141a65c91931a678f30865398a00642cca9a7ff98c"}, "vout": 0, "txid": "1397f8a9543d78019128f9e38cdfd33321e57b96fbbb2026566e9f4fd402153d"}, {"txinwitness": ["304402202787b34f7fba2bdcb9ae9ef9af19a90b5754c904a534e39e38d6ed808625d36302202aa3998db57284f8861c8013be42a621a4601bd6b9014bec0bb13b5e596dcbdc01", "0299a1c539218ba15294c97e719a5cc38a6a0ba7a723ab3a1fd4b1122fbd13d794"], "sequence": 4294967294, "scriptSig": {"hex": "1600145a985698e202558ba98a988b7fdda8ae36700071", "asm": "00145a985698e202558ba98a988b7fdda8ae36700071"}, "vout": 1, "txid": "d87615960a5b2e433338b3eb01a1c6e92daf87329fa7f1fbde8314a4a79e3440"}, {"txinwitness": ["3045022100a25b735439598291285e88e221accd1258fe2124eae452f63764d8b4c05206ea02207eee4dad9b0fcbab5694039309342e8f76305571347554dd5594c84692d38f3f01", "035a0bd97b45d3528ff05dc25d977820ec4233d6e7bceada718754c6005928099a"], "sequence": 4294967294, "scriptSig": {"hex": "160014bf44a40bf0874bd8b90afa255b461ed424a065cb", "asm": "0014bf44a40bf0874bd8b90afa255b461ed424a065cb"}, "vout": 0, "txid": "21507d56446bddf7671993ef85b929172064e5bb1028a98d3046b45a4c56c941"}, {"txinwitness": ["304402201ea5aed9b76a2c5aef69d33a459d58c0514756d7fffe574d7bc453ecdd5bded00220306656ab35d98cf535717cd561c6de1f411d5bd4e71c1674b8c3f4546453b3c801", "035ef6e06821847038768df1735c4d974b5e8dc05fbe8acbd543618c43f8e6893d"], "sequence": 4294967294, "scriptSig": {"hex": "16001460945125d6328251cfbe97504d9840cd77ac51ee", "asm": "001460945125d6328251cfbe97504d9840cd77ac51ee"}, "vout": 1, "txid": "b9c810ac326160cebc979c8e1f8a4579ead72a5e77f761b979bdc49ddb361042"}, {"txinwitness": ["30450221008330029c4a9cb98b5cda79901059b283a9308ceb84cc828c10276cadd97137ac02206bb087cde124a18a79617b54b7c6c836f8c495ec0cdcc5f04d94f81104be23c701", "0351db8a9e01f2137ad22e4e133e3c6cc03fcb96d9b127dd286014923dffff2ec9"], "sequence": 4294967294, "scriptSig": {"hex": "16001490f070a6c0acc5eb67c0e9e682eb6cc306036e60", "asm": "001490f070a6c0acc5eb67c0e9e682eb6cc306036e60"}, "vout": 0, "txid": "2586b5d93b491aebc8eb4ea74d399792916d28061aa911b43889fa5ceffc4243"}, {"txinwitness": ["304502210095904f0a273740373a7eecafe37a3cd0d41ff703465bb9986f96c34ed702bfa50220769799e622f4aa03b1b40213448441a2271616edd020ca6e808d35714eb96cd901", "03a9599ea91220063e2aaa78487e9ff8f67e947b78412e3224dda4fe011a01e9e4"], "sequence": 4294967294, "scriptSig": {"hex": "16001419a6657442daf704f2de6c49f873323c9028fc36", "asm": "001419a6657442daf704f2de6c49f873323c9028fc36"}, "vout": 0, "txid": "8ed5189a3e227b9e5740e6b68a503e8a409c00733cc8b181828fbfde39529743"}, {"txinwitness": ["3045022100f5acd9c10a1a1aa8a6b642f7db0120262875733428b484d4c6ba43c9e7f8de85022026e1316135c76f13c85bad87bf2d5b292a75f965b1de43a45e626d8ea8db0a4801", "03fa790ab6dae35f4a0d4c6132efb9784662aeeae77ff81f969949af0e16b5a5ce"], "sequence": 4294967294, "scriptSig": {"hex": "160014a53a27654531c3e7ff9d662f65804cf80afa791c", "asm": "0014a53a27654531c3e7ff9d662f65804cf80afa791c"}, "vout": 0, "txid": "09e9c02a9eedc4b5d9ca863c38ff58d4c3a9b3ce8c7b277d5622e9aa8356bd54"}, {"txinwitness": ["304402205d00bef8c5e82710f188de306b8b3ab6d54093ae6e3876a3093b9391b23abd280220575fbb8722dc5b3a9666d77e3a73e03458bb98b8228b84b4386fd09b3618677701", "02803a3d20d0cac1852fa3b0e51d00712f3072edd9c1da619e0566f3661d47bbe6"], "sequence": 4294967294, "scriptSig": {"hex": "16001458cb557a92e38786c8e49e69de7b83477dcf29c2", "asm": "001458cb557a92e38786c8e49e69de7b83477dcf29c2"}, "vout": 0, "txid": "74efaac55fb803babdedc3bb202c758d308f17a2df084145aab57369fb634a5a"}, {"txinwitness": ["304402205c42272c591ab76cc4c689ba08cb9d62ce5041dbd340dd42fc37c1c1e9fd159a02203ad845b0b5e782e178b35e60075a31c45dcd1fb08dd70fbf57c037dae16fb5c801", "03f59c9d6d1166dfef1d13e8e151b02466e7ab354daf77489300829002ecab036e"], "sequence": 4294967294, "scriptSig": {"hex": "16001459f0ab918c16850dc8a0ab07d4341d3b8a4531bf", "asm": "001459f0ab918c16850dc8a0ab07d4341d3b8a4531bf"}, "vout": 0, "txid": "bfdb5ef6f6f93300fffdafa005651cd4eec4c6e5cbfba8398bb419aa453a6861"}, {"txinwitness": ["30440220021e17ca17489c26e0cd233d6a8c84c3790677362054217496e839b219495a170220732021a95f8c02e9de1e2bd38a5ab9cbcc3eabf6a677de2d40497d1609d9561601", "026e4ad9385c3a24f347a00862624184ca3c1c2f5cd33f3713bff0c9a0553ebc74"], "sequence": 4294967294, "scriptSig": {"hex": "16001411693db0f9b5817358c5c740af53bf6d5ff48024", "asm": "001411693db0f9b5817358c5c740af53bf6d5ff48024"}, "vout": 1, "txid": "32fbcd22ac18b6e0e2d415ca1deb4c1bf54bb15212cf1f0e694d532fceb5c771"}, {"txinwitness": ["3045022100c3e15b3c80c76646378f26c5ec7013b4a48d436f89104888d66ed0e1984aa00c02202d9e61c5e379a1cc66cd029c046ef0283c22a51b6e50157e55b52f220266724501", "02f6ea5b295657e2dea775f5fd17c91f6763ab56ea8692c81a12a3991ea2e20acf"], "sequence": 4294967294, "scriptSig": {"hex": "1600147403989e8a545e7c7da0d6745b11b0c5c4657311", "asm": "00147403989e8a545e7c7da0d6745b11b0c5c4657311"}, "vout": 1, "txid": "86e6fedb552a12a028d2d30a1ae6ceb2aa6595298db9b2a68c6068c4737cf874"}, {"txinwitness": ["30440220162f34074370a1e2793fd3d87b9743edcb2884b4605bd9fbafb441dbc81c5ba102201da3efeeca281ab85d0fb191bda4bf1dc528b2d8e99bb5d6097ef5df1074c46201", "02d98b4ba07fb2dfca2937de930235c5ca1fd5c7f7eb045a0d54bb7431decbb56b"], "sequence": 4294967294, "scriptSig": {"hex": "160014d243a1aca8b869e76bec14a1a05889ed7225b0e7", "asm": "0014d243a1aca8b869e76bec14a1a05889ed7225b0e7"}, "vout": 0, "txid": "1b8344c6a50c31ba25278e50165274181b2cfc0b1d78f8afbacdc0b88733787e"}, {"txinwitness": ["304402203c28b8d6ae16c89d134729b4b6efdb641468cf98c82438c8a0ad7cbc6e7f7e3502201e41fea47599af004fd31af3214f0550c36e0a3b222b1bddc7d03cbaa6a8deea01", "0345d194b88bf8b2d7ede97273d0d1a94cecbc439c256d893c27a894cf2417c9f9"], "sequence": 4294967294, "scriptSig": {"hex": "1600147ecfd82ecc3a83a93a18a7b92f44920ad66875f5", "asm": "00147ecfd82ecc3a83a93a18a7b92f44920ad66875f5"}, "vout": 0, "txid": "85311264548e21a92d91a875331a0e74ba32a6760423f76e1f1811bc263a4f7f"}, {"txinwitness": ["30450221009b0e1dda1ba61626baf683dc555af61b34706e39d2c02de29dfa511a7a36727e022036a17cd7394d79833c24f033c58999ed7077c15b881b104a0fb06cb758b1be1101", "02169965b146a50c95ff4fae57c6dd36a0f5eae72767f0372c6dd79690ced17c12"], "sequence": 4294967294, "scriptSig": {"hex": "160014fadaa1c20ae93efb0709a89e6443e2b1fd4897ca", "asm": "0014fadaa1c20ae93efb0709a89e6443e2b1fd4897ca"}, "vout": 0, "txid": "126c43059cfb87a54062ce80d99d85ac892dcb1d71acf225f3832ff474701883"}, {"txinwitness": ["3045022100e1e8614d7001f37e6dce27baae10c37716135a68145d9ff5be046098c04ec9ad02207932414b92504f0755ab37dd7a12eba3d50a1c045e0ba1431fbf80a0f2b1d8aa01", "03a2faaa12ae87ca252d5f1d02bdd04895d54eda25033b1b4125af77597b0067b5"], "sequence": 4294967294, "scriptSig": {"hex": "16001405d772b69c9490e4b9e97a3e620b4be5ca540465", "asm": "001405d772b69c9490e4b9e97a3e620b4be5ca540465"}, "vout": 1, "txid": "3be21a9525261433ac3f285313892c11c4afded14047de1d6bd24d5f89216193"}, {"txinwitness": ["304402207c9f27bc8a09eedeb547954be1097498318bc1312f5464af785251fc41c356bc02202d87897b69051b568125a558f141df9bdaa712d87c83f7d685a60b8fa46b45c901", "03da181255cf1968625e275167e9ab7a196210bb287b558ab3b2dfc47210a7f11c"], "sequence": 4294967294, "scriptSig": {"hex": "16001440cee48ab296d5110768897791a4434f1734a589", "asm": "001440cee48ab296d5110768897791a4434f1734a589"}, "vout": 0, "txid": "4e00ed242241497fb1951a23c7e026f74c8f44848d39867040f08adf12258c98"}, {"txinwitness": ["3045022100eed990d813e633f938d949638d74e924639e3948eef6c91aad6e4a00611661f202201bd53dedf8e9d966b5092fb55332a300cacbce84082e384a7b3c3397ba6f4bc801", "029ffe26b6678925e349be500800ae9d19f39585f65c20ed23f66c4dea3fff28f5"], "sequence": 4294967294, "scriptSig": {"hex": "160014708ca2fdf34ee606701e046680b4a847c923bcff", "asm": "0014708ca2fdf34ee606701e046680b4a847c923bcff"}, "vout": 1, "txid": "70acc4dc7840427a74d03f0667dfad4635942ed3a66904f76b1d38af54fd4ea8"}, {"txinwitness": ["3045022100cc22bab674a4e42d83d1faabcbb586923682d32e362064746b182e00ab4b674102203399771cd654047982fcbc6f4c359cfb36a03513ae470cfad2955dfec3e616df01", "02fac41e868551342b7c7d4557e3f9dd8ba67b691bab731d8bc6714ecb2246b689"], "sequence": 4294967294, "scriptSig": {"hex": "160014b75cdf5b52ce9c9f23ce96b5aa9d1e4990daabdf", "asm": "0014b75cdf5b52ce9c9f23ce96b5aa9d1e4990daabdf"}, "vout": 1, "txid": "dac2d38303457a74448afb0e46545a1a3f14e3af8d37370d113589621ec4e3b1"}, {"txinwitness": ["3045022100dc9e2fc06b943bd96bb9cfc4e7e30b5d7fa5c73b42b73a04b81d7f35a21e52e40220216051755efca1d266de12d1b64e8fa8b9dd97fc4eebec3dd20ac6f3a9897ee701", "037fe20fa4edffcd9efac49f32d126ab40099377d0251862c0cc7d2eed1be69ac0"], "sequence": 4294967294, "scriptSig": {"hex": "16001478aa9b84957ffe3ebf35ec730f24295cf6d46264", "asm": "001478aa9b84957ffe3ebf35ec730f24295cf6d46264"}, "vout": 0, "txid": "aed862ccee7149f6a7ddeb30ca5127a1abe37b3ab8ca537aa1ba6dc6174312b3"}, {"txinwitness": ["3045022100e055350839a86095fb3b822520230bcd6831e6f3ad3c9e7019df8cccdface842022037748d960d79ca58c136c7b1b33535ad313ba57d107291305099c911b498bba001", "022c4cfef6e5be990733fa4d138aec72f8890f50289e2340abe5dfedf14d413078"], "sequence": 4294967294, "scriptSig": {"hex": "160014656aef8241c8f7eb93f316e175177c71864a24be", "asm": "0014656aef8241c8f7eb93f316e175177c71864a24be"}, "vout": 0, "txid": "a29fb71ff1659134cd2de2aac04975da62e50ee9eb27033ca1ca30a5cc795fb4"}, {"txinwitness": ["3045022100fb1940f26684ab2591d601a342cc0235f14a1d56dc97b162aa22c42789d4015d02205e494543493337cbec8211242970e7b80a9e546f9ae6ef00eae0f45ed0c784b901", "032bcd35c1da7c95f97c44e02575c9abe7628b321bfa39c42c9ae30b1790941bf7"], "sequence": 4294967294, "scriptSig": {"hex": "160014054345cf82cd5eb814d01457143ff2636f758c95", "asm": "0014054345cf82cd5eb814d01457143ff2636f758c95"}, "vout": 8, "txid": "caf6241f0b8ece94b141b86b4adfc603c26817a10f0673a9ee0bed7a4420c0b5"}, {"txinwitness": ["30440220221da8ae72242d52d30280c13b5c80030bf7c5de039e559852c0d909c115f997022002295896a0858f532969b54ce86ee2499fee4763cb90fae19b4e38c72b420fe601", "024e7aeac599404d95d539dbdf9fd100b0c78bfaf51662a1ce00f6fc97b64bdf9d"], "sequence": 4294967294, "scriptSig": {"hex": "1600148f6fd9bf9de3c23fe49aa2539d0c5d686164035a", "asm": "00148f6fd9bf9de3c23fe49aa2539d0c5d686164035a"}, "vout": 1, "txid": "c1e57dfa6bc7eddc96000f873df64ae536028988ac11d8062c61fbbb479cafc5"}, {"txinwitness": ["3045022100c956a56ae10c1225d40af1c50e18eaa26a60ccbef8a7f5e743beac2539b498c102205d3d13128768742e89011ed3889eaddb76e85914087305b18388236d514e3ef201", "031d51522b2b511204f1c6f94699f499a8b74e071475e31c321550ea8cbe7a48c0"], "sequence": 4294967294, "scriptSig": {"hex": "160014e1640f83887396b919ce0a2a0902550ce083abde", "asm": "0014e1640f83887396b919ce0a2a0902550ce083abde"}, "vout": 1, "txid": "ebeee923ee162c698f30f457854599a1259c74d7b2fcb09591cd782660d4b0c6"}, {"txinwitness": ["3045022100ae8d6f963fd05eb28ecd0721fb8e132431f107a999db0bcf765bdc6f49c4c69a0220464f7560d82591bf22cbb440a0cddcb3b4d5169ce3307c8b5485f69dffae219501", "0240a79292dafe231ab441c80691fa9c4caab155acc80c39e2a9852e468d58c9c2"], "sequence": 4294967294, "scriptSig": {"hex": "16001401acdbe9e263511fd617c21d6dd707abefef4fde", "asm": "001401acdbe9e263511fd617c21d6dd707abefef4fde"}, "vout": 0, "txid": "a6c683577240fba49047dbe3082aa542416a17317d858f885bdcbae921b2d3cb"}, {"txinwitness": ["3044022075279088ff5166f1464e8a1325751108d86cf6eebfb70f7cb4c0893bffe3c2640220452bb4f297021ffb33008baed18642f5237394782936b5e1ea077a68875f3a3301", "0347e1d70caa097e66501341cbc4b033e7d450756bf3bbc60398efe3d6a4e3d489"], "sequence": 4294967294, "scriptSig": {"hex": "160014fe875e8ba8327fba3dc4bb6001309c40283b462c", "asm": "0014fe875e8ba8327fba3dc4bb6001309c40283b462c"}, "vout": 1, "txid": "095f4190d2f34b432306c0376ee112429b4cd10182406622d7a7840ac4f288cc"}, {"txinwitness": ["304402201d1f17b9a6fd97b1a4e18daef506773ff4264b57180eabae1c7a5ab74f66ad1102202252b96428a7d8d123d8fce074dc22bb441fbb6d975152464d8bbed907b1003b01", "0222366c414ac82f9c77e84c60f805057475ff4b926c251dfed1d72ec3b9720026"], "sequence": 4294967294, "scriptSig": {"hex": "160014f3a9585dc73137bc76d605ed562f2789457b344d", "asm": "0014f3a9585dc73137bc76d605ed562f2789457b344d"}, "vout": 0, "txid": "f2fc04499bcbb02461f98abd78a835bfc175c56eecfb693f2f430c571225d3ce"}, {"txinwitness": ["3045022100bb759832030b6f29e3ad9b871403c575b08b3e6057e30b0194fc9f251c91ddec022038d55413c0d85ebc03b6e31d1161f0f8908c2b32b2bc0f3f335328bb38e00d7a01", "02524251bb3f270bcc23212dbf5782b866e783c93513d54fa5fb1761668a3740be"], "sequence": 4294967294, "scriptSig": {"hex": "1600145e5110d05e6d289731953dc0425f06da4fca4150", "asm": "00145e5110d05e6d289731953dc0425f06da4fca4150"}, "vout": 1, "txid": "80a9598e35854c1d9ebf22a15e13d31efe6db6f7ae1625c24374093dd4c379d1"}, {"txinwitness": ["3045022100f83ae89cedd63a21ce6d9c87a13f0b63ce8858fb256e33623e515f77b70bd11c0220111b16a3264eb2d6ee1115eaa6b2fa69e9232fa6caa34e2076686621551c0b8801", "038a17b0cec24eee6933563828beea3871f7f1c4b49fc3af395bd998c4b78188f6"], "sequence": 4294967294, "scriptSig": {"hex": "16001469c9af7174559b04205c9d680aab928ad9a66dc6", "asm": "001469c9af7174559b04205c9d680aab928ad9a66dc6"}, "vout": 22, "txid": "2a8891cd28baebe6b6d71cd4e54e80dd19d10191b45a60995b3a2922e6743dd6"}, {"txinwitness": ["304402201b9e79a9fac348e9b5b46f0ed1a0b0e23284c29e681fb07b53c0489fc080902d02205453d01439eb01566317781b8da2a9f4c539dcdcbf7b3d299e8fc728c5b0e4ab01", "0336b70aa1c7c3ce777b8fc254cb8fe670eedd64f80e3d91b703363c489dd010c0"], "sequence": 4294967294, "scriptSig": {"hex": "160014bbc3dba00adbd081875a677a22cb10152d0b60be", "asm": "0014bbc3dba00adbd081875a677a22cb10152d0b60be"}, "vout": 1, "txid": "abbc0bb7710eeb94838dbc83161a2aeeb12a1c300c59638cc59bf00c358286e5"}, {"txinwitness": ["3044022047afde6c68ba4287a9dc04089c4da15f46b51371716fb84a206e57793e7e7254022003ba97afc2cca9c4012a2afb375073e9c18e7827eeade980b2dcc78252fa81ba01", "0258dacc2914b4aef145a0d40cb38e7fdea68443e3f4ae0990b15dbf3487e01df6"], "sequence": 4294967294, "scriptSig": {"hex": "1600145aed6abf999cebd3ad752e85408357406ba8e8e5", "asm": "00145aed6abf999cebd3ad752e85408357406ba8e8e5"}, "vout": 0, "txid": "6fd26d7acb2aaed1606ff9b0b6e731ab9bd26407c7a37f937a973cd48714bde7"}, {"txinwitness": ["30450221009bae9efdbdda8c731e6e999a32cb476b85a74e81e03ac088637f85a468900a5c02205c6ecdc658c1832e5ec679fa996b1859f8fb75f7cd37d3fb3268fa099e0cf62c01", "024e45dce144dbe9a36fb38fa77a7199d41d9c69917c8d35dff7a365a1f3922cb3"], "sequence": 4294967294, "scriptSig": {"hex": "160014136d4dbf92142603c991eb166b08f0a34d6ec631", "asm": "0014136d4dbf92142603c991eb166b08f0a34d6ec631"}, "vout": 0, "txid": "cee0536674d8d1110d3ce9f99cfb0b7f09d8143f45c8af035356a25d4c83b5f2"}, {"txinwitness": ["3045022100efd325573a7e41a53b4d3232484c3f1c2f85501bf9b84eac00b752bcd66816b702202b459f5ff773826693b8370df57384dec53a58e867574278d2f0cccbdce98e0601", "025804e76ea1e5c0a1e8a44a39e0c642b2cf92c2b907f1a6806a68df0379e36354"], "sequence": 4294967294, "scriptSig": {"hex": "160014a90c182e1a7ccefff0dcd7f6d90c48ca6757e2f8", "asm": "0014a90c182e1a7ccefff0dcd7f6d90c48ca6757e2f8"}, "vout": 0, "txid": "e95c4ac33fa3ac2a276b56d64ccb4c9879c917220eceb3f53065c7c8e6efa7f3"}, {"txinwitness": ["3045022100a3124c14d5941c73e738abf86064df7b0a22e9ed2cf4b69b67928803f5617baf022040df8bf139d1a503bf0aba41e5b0aaa171c25cafc5165fe0b955b2e0606094bc01", "023847078557b9b968f1f5f73fee697fa9102391cfef7752729b6b58409b5266b3"], "sequence": 4294967294, "scriptSig": {"hex": "1600140c646eeb9b18f0d8e78cbd3c21784de0d7d962a8", "asm": "00140c646eeb9b18f0d8e78cbd3c21784de0d7d962a8"}, "vout": 0, "txid": "4aa434585769b4a4c1468aefa80028314a3ced0ba737c36e204f43d408cfecf9"}, {"txinwitness": ["3044022013a1e6f84a60bc734a52e0debc50f6ee635ac15f9c859dcde6b646231d6cabce02203fb196daa39e979ac72dcdac224033bc84e37a9510c6067b2c65849028494bee01", "026ef9bdf3bd949516b48a6008e039023420a3550ae0fc85d3fedd94b269e0c93a"], "sequence": 4294967294, "scriptSig": {"hex": "160014ef0d409f7f14d1f7677bf987ac4f632693c9ff39", "asm": "0014ef0d409f7f14d1f7677bf987ac4f632693c9ff39"}, "vout": 2, "txid": "427ce522e9fde2d9a61f693f89de0fd3ac1147f9f913efd10490c75580df7ffa"}, {"txinwitness": ["3045022100fdcf6436f7d8a68d0b472921296b0c33462eb1751cc3abe30faad8823daa9fae0220608bc3edd1436acc26b97c323fde5b9c83c290aef90ad39a4d50de5845367b6501", "02cd7db7b2200cd759e13e672f3078c14e8620da50628500aaf9aa438c53fec793"], "sequence": 4294967294, "scriptSig": {"hex": "160014db8b81a262eff51768cf26ed85e75120f6a855b9", "asm": "0014db8b81a262eff51768cf26ed85e75120f6a855b9"}, "vout": 0, "txid": "dab93c0e48a50726a16c31a9c53eb1d4f89c46e9e49c602e8ef23a41a21034fe"}, {"txinwitness": ["3045022100c30abbe484360bc6c0af362d8fff519ad888fb8324df69dcf414964e9cd9255d02203ff83a52d1d5a26fef0244e130aa70c293c785cf9e4dfaff74728939f0c95f2701", "039707a076bdd99cf196545fb258b53c6b533216a1c2a4c88b3f5636f6f071c7c3"], "sequence": 4294967294, "scriptSig": {"hex": "16001415e477835e1e46a04e6c17bb1a61d1b6460675f2", "asm": "001415e477835e1e46a04e6c17bb1a61d1b6460675f2"}, "vout": 1, "txid": "7c095196eb84c302b1abcd9cec4e602e2de612d27bda88bca75b423c09fe9afe"}], "txid": "02615fc55c4e46704fa7d1fdf0cbfee9839fa4bee5c7193b15d24923979b7e4c", "blocktime": 1537874412, "version": 2, "confirmations": 11467, "time": 1537874412, "locktime": 542997, "vsize": 3804, "size": 7113}