{"hash": "0268036e6c051d21e5b7b3300e037d510f1f9ed32b362ef930a7935985690855", "blockhash": "0000000000000000001f76057863aec43deb6fa401d9628bb513d65a8098bfab", "vout": [{"scriptPubKey": {"type": "nulldata", "hex": "6a146f6d6e690000000000000038000000000000c2ba", "asm": "OP_RETURN 6f6d6e690000000000000038000000000000c2ba"}, "value": 0.0, "n": 0}, {"scriptPubKey": {"reqSigs": 1, "hex": "76a9140165a2f00175e416bf9a75b50055d1e37a0767c488ac", "addresses": ["18PS23CRXQviGKGP9G9fjbB5bzcWht1ix"], "asm": "OP_DUP OP_HASH160 0165a2f00175e416bf9a75b50055d1e37a0767c4 OP_EQUALVERIFY OP_CHECKSIG", "type": "pubkeyhash"}, "value": 0.00776591, "n": 1}, {"scriptPubKey": {"reqSigs": 1, "hex": "76a914997379dbacbd696f262f039a7c1cf969bbe56ada88ac", "addresses": ["1EzNimJJmn94QwAJJhag6eJzD1BbZQriNX"], "asm": "OP_DUP OP_HASH160 997379dbacbd696f262f039a7c1cf969bbe56ada OP_EQUALVERIFY OP_CHECKSIG", "type": "pubkeyhash"}, "value": 5.46e-06, "n": 2}], "hex": "010000000143fbdd0b4d23d8f5497b56ff02b4553c0bce04a7bff88da34a0db93770d88ddc000000006a47304402202b2ecce99daee5b323a2c484200679d2dfd4c12a07c2edd1965dfa3c64b1cf5d022016ba3b5f8febab570ea4c82408f5a2ff335c010a481234145f9b5e230bd9a5260121039be37a1eb18c967e0e478cd9dd4d194dc24e5b27491335958c0a4ea5d28ee427feffffff030000000000000000166a146f6d6e690000000000000038000000000000c2ba8fd90b00000000001976a9140165a2f00175e416bf9a75b50055d1e37a0767c488ac22020000000000001976a914997379dbacbd696f262f039a7c1cf969bbe56ada88ac14490800", "vin": [{"sequence": 4294967294, "scriptSig": {"hex": "47304402202b2ecce99daee5b323a2c484200679d2dfd4c12a07c2edd1965dfa3c64b1cf5d022016ba3b5f8febab570ea4c82408f5a2ff335c010a481234145f9b5e230bd9a5260121039be37a1eb18c967e0e478cd9dd4d194dc24e5b27491335958c0a4ea5d28ee427", "asm": "304402202b2ecce99daee5b323a2c484200679d2dfd4c12a07c2edd1965dfa3c64b1cf5d022016ba3b5f8febab570ea4c82408f5a2ff335c010a481234145f9b5e230bd9a526[ALL] 039be37a1eb18c967e0e478cd9dd4d194dc24e5b27491335958c0a4ea5d28ee427"}, "vout": 0, "txid": "dc8dd87037b90d4aa38df8bfa704ce0b3c55b402ff567b49f5d8234d0bddfb43"}], "txid": "0268036e6c051d21e5b7b3300e037d510f1f9ed32b362ef930a7935985690855", "blocktime": 1537873891, "version": 1, "confirmations": 11475, "time": 1537873891, "locktime": 542996, "vsize": 256, "size": 256}