{"hash": "cdb90ef6e58d3b040a1053273fc78c738bbd1b553680148b03be78e975ae57c3", "blockhash": "0000000000000000001e0dab787dd257d1dbfcb92a98c2207d5e1078be1f4165", "vout": [{"scriptPubKey": {"reqSigs": 1, "hex": "a914a43937c2091143c54a99c043f8d569a7c2055fb187", "addresses": ["3GfMHZpchvZsqXpAKTsSjNLrhhFMkeKeCz"], "asm": "OP_HASH160 a43937c2091143c54a99c043f8d569a7c2055fb1 OP_EQUAL", "type": "scripthash"}, "value": 1.20059324, "n": 0}, {"scriptPubKey": {"reqSigs": 1, "hex": "76a9145b4a88385fccceef68a763c66c1c2eda3655cc4588ac", "addresses": ["19Khn3E5mydRi7wUzxLbi1asQNRCvgs5jf"], "asm": "OP_DUP OP_HASH160 5b4a88385fccceef68a763c66c1c2eda3655cc45 OP_EQUALVERIFY OP_CHECKSIG", "type": "pubkeyhash"}, "value": 0.00468821, "n": 1}], "hex": "02000000000101ca4b66e19e284507e1f946b66e176a4488bfcc86b5da0628c0c31e3a128221720000000017160014e5357ba28f41ddbaa00dc3f774772db1cd038009ffffffff02bcf527070000000017a914a43937c2091143c54a99c043f8d569a7c2055fb18755270700000000001976a9145b4a88385fccceef68a763c66c1c2eda3655cc4588ac02483045022100f7aeb1aebc41ccec0348163cc3ae98c97d81a862e26f59b2bcee3fea0a1f2160022023e48b132c9b6b1320d0b7e8e6e70d0bb42837df6af3529268c09cb3b22014cf012103cb83e6b20dd4365d5d8179c3f274508fc12ba8c9970b9618a32ef276d65a243c00000000", "vin": [{"txinwitness": ["3045022100f7aeb1aebc41ccec0348163cc3ae98c97d81a862e26f59b2bcee3fea0a1f2160022023e48b132c9b6b1320d0b7e8e6e70d0bb42837df6af3529268c09cb3b22014cf01", "03cb83e6b20dd4365d5d8179c3f274508fc12ba8c9970b9618a32ef276d65a243c"], "sequence": 4294967295, "scriptSig": {"hex": "160014e5357ba28f41ddbaa00dc3f774772db1cd038009", "asm": "0014e5357ba28f41ddbaa00dc3f774772db1cd038009"}, "vout": 0, "txid": "722182123a1ec3c02806dab586ccbf88446a176eb646f9e10745289ee1664bca"}], "txid": "026c24fef6e2e0027909fbfc626a5fea0f8618fdaf3aa2bdcbb0dd2a420a9bb5", "blocktime": 1537872475, "version": 2, "confirmations": 11486, "time": 1537872475, "locktime": 0, "vsize": 168, "size": 250}