{"hash": "02741b280132dde9e8c62d62d17f1be8016ef4e05ce262725125209f1a8a5629", "blockhash": "0000000000000000000dcc0f55137456b1a82d3642486a52398922ac4d620174", "vout": [{"scriptPubKey": {"type": "nulldata", "hex": "6a4c500000776a00016ffdf9b6d3fe46470d82d05786aeaeacb577c031fc3a016b46dc7dc7d09686d8413c3fc6baecaaad8911649aec025baa084106138d9ae0bd8c5c1d100759d4ba30d2c37bb011d97e02cf", "asm": "OP_RETURN 0000776a00016ffdf9b6d3fe46470d82d05786aeaeacb577c031fc3a016b46dc7dc7d09686d8413c3fc6baecaaad8911649aec025baa084106138d9ae0bd8c5c1d100759d4ba30d2c37bb011d97e02cf"}, "value": 0.0, "n": 0}, {"scriptPubKey": {"reqSigs": 1, "hex": "76a91407d2b6855cbc1a950447049353c7c8d7f0f41c3c88ac", "addresses": ["1iN9wLQyAiaN83TRJxsWpTT4h6UZ6S8PY"], "asm": "OP_DUP OP_HASH160 07d2b6855cbc1a950447049353c7c8d7f0f41c3c OP_EQUALVERIFY OP_CHECKSIG", "type": "pubkeyhash"}, "value": 0.0064852, "n": 1}], "hex": "01000000012edfe5995b304ed9a1fb959bf2e38917d4ac50d77e096424cf776cd28718a202000000006b483045022100c7cbdbebd955493298bd1e96c07d012b7f0b6119660cd180efcd7eb9fe80e500022052e258980f8abc7f0c8a9e91d969f0c81325fb8d1875e8a4fe73ca7e3e4821030121034f24584f54edf0c2f5ba50a061b0f4ab62349fc65323468f6d4fcc6d6eecd78affffffff020000000000000000536a4c500000776a00016ffdf9b6d3fe46470d82d05786aeaeacb577c031fc3a016b46dc7dc7d09686d8413c3fc6baecaaad8911649aec025baa084106138d9ae0bd8c5c1d100759d4ba30d2c37bb011d97e02cf48e50900000000001976a91407d2b6855cbc1a950447049353c7c8d7f0f41c3c88ac00000000", "vin": [{"sequence": 4294967295, "scriptSig": {"hex": "483045022100c7cbdbebd955493298bd1e96c07d012b7f0b6119660cd180efcd7eb9fe80e500022052e258980f8abc7f0c8a9e91d969f0c81325fb8d1875e8a4fe73ca7e3e4821030121034f24584f54edf0c2f5ba50a061b0f4ab62349fc65323468f6d4fcc6d6eecd78a", "asm": "3045022100c7cbdbebd955493298bd1e96c07d012b7f0b6119660cd180efcd7eb9fe80e500022052e258980f8abc7f0c8a9e91d969f0c81325fb8d1875e8a4fe73ca7e3e482103[ALL] 034f24584f54edf0c2f5ba50a061b0f4ab62349fc65323468f6d4fcc6d6eecd78a"}, "vout": 0, "txid": "02a21887d26c77cf2464097ed750acd41789e3f29b95fba1d94e305b99e5df2e"}], "txid": "02741b280132dde9e8c62d62d17f1be8016ef4e05ce262725125209f1a8a5629", "blocktime": 1537870268, "version": 1, "confirmations": 11518, "time": 1537870268, "locktime": 0, "vsize": 284, "size": 284}