{"hash": "027c51cdc4c8517d4e40a91c64087d963eb4d9575e0c59e3e1bc07896b096f25", "blockhash": "000000000000000000022b45ed06c6f4ccd3cf7fb5ba4856ebd2e58215665228", "vout": [{"scriptPubKey": {"reqSigs": 1, "hex": "76a914d3cc4ff9d04173ba2ecd166eedfe6b9ff2edb93e88ac", "addresses": ["1LJtLMMsC9H5uJDGbDwJwb1VWbBm2LZiyg"], "asm": "OP_DUP OP_HASH160 d3cc4ff9d04173ba2ecd166eedfe6b9ff2edb93e OP_EQUALVERIFY OP_CHECKSIG", "type": "pubkeyhash"}, "value": 0.193521, "n": 0}, {"scriptPubKey": {"reqSigs": 1, "hex": "76a9142ddf39a18057b92808b8e05fecc3ad98eeff351e88ac", "addresses": ["15BYpay92Dm1PHPyHm3Dph2SdpKJZzk42a"], "asm": "OP_DUP OP_HASH160 2ddf39a18057b92808b8e05fecc3ad98eeff351e OP_EQUALVERIFY OP_CHECKSIG", "type": "pubkeyhash"}, "value": 1.01021353, "n": 1}], "hex": "0100000001f0699def602f4057cf425e1a03185e71ffc6e5eb4a0a99f028093a36f886898f010000006a4730440220595368e4d07aee281ba9400fb2a5e7e84e8d87fb2e0e90b756a071a4520f293d02201f7d49c3fa8a2ba780c4c7ddd61b0ecba3ae7412b87e5cde63b9982beadba304012103ecfaf55e24c664bc00dae27f8b655a1bbbe2e6142ef8cafbbfd137f59b965548ffffffff02244a2701000000001976a914d3cc4ff9d04173ba2ecd166eedfe6b9ff2edb93e88aca9760506000000001976a9142ddf39a18057b92808b8e05fecc3ad98eeff351e88ac00000000", "vin": [{"sequence": 4294967295, "scriptSig": {"hex": "4730440220595368e4d07aee281ba9400fb2a5e7e84e8d87fb2e0e90b756a071a4520f293d02201f7d49c3fa8a2ba780c4c7ddd61b0ecba3ae7412b87e5cde63b9982beadba304012103ecfaf55e24c664bc00dae27f8b655a1bbbe2e6142ef8cafbbfd137f59b965548", "asm": "30440220595368e4d07aee281ba9400fb2a5e7e84e8d87fb2e0e90b756a071a4520f293d02201f7d49c3fa8a2ba780c4c7ddd61b0ecba3ae7412b87e5cde63b9982beadba304[ALL] 03ecfaf55e24c664bc00dae27f8b655a1bbbe2e6142ef8cafbbfd137f59b965548"}, "vout": 1, "txid": "8f8986f8363a0928f0990a4aebe5c6ff715e18031a5e42cf57402f60ef9d69f0"}], "txid": "027c51cdc4c8517d4e40a91c64087d963eb4d9575e0c59e3e1bc07896b096f25", "blocktime": 1537869901, "version": 1, "confirmations": 11522, "time": 1537869901, "locktime": 0, "vsize": 225, "size": 225}