{"hash": "027cbe566e51c2f1226ab06dce95c53fa224344ea0f98b48f6baf7da63f5f9ba", "blockhash": "0000000000000000001f76057863aec43deb6fa401d9628bb513d65a8098bfab", "vout": [{"scriptPubKey": {"type": "nulldata", "hex": "6a4c50000077db0001a7a87563874182cc956141857af8e8e963c7cfd5b95b23cc0f42c2fc38c55223f8946ef7c6e26582f8f0d13053bd5baa15c906130cdae951bca8bc9a9526289ac0f6612cd74e33776ee4", "asm": "OP_RETURN 000077db0001a7a87563874182cc956141857af8e8e963c7cfd5b95b23cc0f42c2fc38c55223f8946ef7c6e26582f8f0d13053bd5baa15c906130cdae951bca8bc9a9526289ac0f6612cd74e33776ee4"}, "value": 0.0, "n": 0}, {"scriptPubKey": {"reqSigs": 1, "hex": "76a914937710a1ce8c61723695168b374e0d26a367bc1e88ac", "addresses": ["1ESixyjVMjo5Bn9CeiXnHhck7rX66jxWQC"], "asm": "OP_DUP OP_HASH160 937710a1ce8c61723695168b374e0d26a367bc1e OP_EQUALVERIFY OP_CHECKSIG", "type": "pubkeyhash"}, "value": 0.0221672, "n": 1}], "hex": "01000000010d5aa82d83660609c59a6be37b3a4bd1fa79470542d16a1e2d1961b08bddfea9010000006a473044022074ac55f4a845cd9bfce8035afa54d4eeb1f7a40bfbaaf013f648ea4282808abc022000e509fd63dd3fa2d8c67d1a800dbbd78f2982562c0c2d3efb44167e0d39f0540121038982d1388407402112b3ee444607244bd59a804d84ac705cdabaa47d51723e10ffffffff020000000000000000536a4c50000077db0001a7a87563874182cc956141857af8e8e963c7cfd5b95b23cc0f42c2fc38c55223f8946ef7c6e26582f8f0d13053bd5baa15c906130cdae951bca8bc9a9526289ac0f6612cd74e33776ee410d32100000000001976a914937710a1ce8c61723695168b374e0d26a367bc1e88ac00000000", "vin": [{"sequence": 4294967295, "scriptSig": {"hex": "473044022074ac55f4a845cd9bfce8035afa54d4eeb1f7a40bfbaaf013f648ea4282808abc022000e509fd63dd3fa2d8c67d1a800dbbd78f2982562c0c2d3efb44167e0d39f0540121038982d1388407402112b3ee444607244bd59a804d84ac705cdabaa47d51723e10", "asm": "3044022074ac55f4a845cd9bfce8035afa54d4eeb1f7a40bfbaaf013f648ea4282808abc022000e509fd63dd3fa2d8c67d1a800dbbd78f2982562c0c2d3efb44167e0d39f054[ALL] 038982d1388407402112b3ee444607244bd59a804d84ac705cdabaa47d51723e10"}, "vout": 1, "txid": "a9fedd8bb061192d1e6ad142054779fad14b3a7be36b9ac5090666832da85a0d"}], "txid": "027cbe566e51c2f1226ab06dce95c53fa224344ea0f98b48f6baf7da63f5f9ba", "blocktime": 1537873891, "version": 1, "confirmations": 11478, "time": 1537873891, "locktime": 0, "vsize": 283, "size": 283}