{"hash": "0282e13e21a0dbcdf18a9f9bd7d37fe468cd5ec29749de4cf680b264d53aea42", "blockhash": "0000000000000000000e13cef7c366c0283d82e591d1acd082e914b08063cdf1", "vout": [{"scriptPubKey": {"reqSigs": 1, "hex": "76a9143259f59d31cbc88fd45b8916f0e9d840ab5f45da88ac", "addresses": ["15bEZ5mor4bjxy9CDqEXjQa1amSeQouoMM"], "asm": "OP_DUP OP_HASH160 3259f59d31cbc88fd45b8916f0e9d840ab5f45da OP_EQUALVERIFY OP_CHECKSIG", "type": "pubkeyhash"}, "value": 0.006, "n": 0}, {"scriptPubKey": {"reqSigs": 1, "hex": "76a914cfc9948406bec40d3538eaddea50cf498f1c878f88ac", "addresses": ["1KwgMk4tfezq9vumhz2TVS93T6dgyS2jWD"], "asm": "OP_DUP OP_HASH160 cfc9948406bec40d3538eaddea50cf498f1c878f OP_EQUALVERIFY OP_CHECKSIG", "type": "pubkeyhash"}, "value": 0.04111593, "n": 1}], "hex": "01000000014f28e56500856f52ca80ba29830de06a285f84ef50c76f7b3859f39da6aea1bc010000006b483045022100eeb52962af4a2a1fa20bca3b2b2949e38fddcd8359e6e1e833a0abfd97999c6102202e726100b3e988ad62bb96a952d29f83306203cc7b389d20299f4605b091ec7a0121038b75d9157f146124d3b3f85b548979ba0ddb2f4ed8ff690e7f584fdcf18e4c92ffffffff02c0270900000000001976a9143259f59d31cbc88fd45b8916f0e9d840ab5f45da88ace9bc3e00000000001976a914cfc9948406bec40d3538eaddea50cf498f1c878f88ac00000000", "vin": [{"sequence": 4294967295, "scriptSig": {"hex": "483045022100eeb52962af4a2a1fa20bca3b2b2949e38fddcd8359e6e1e833a0abfd97999c6102202e726100b3e988ad62bb96a952d29f83306203cc7b389d20299f4605b091ec7a0121038b75d9157f146124d3b3f85b548979ba0ddb2f4ed8ff690e7f584fdcf18e4c92", "asm": "3045022100eeb52962af4a2a1fa20bca3b2b2949e38fddcd8359e6e1e833a0abfd97999c6102202e726100b3e988ad62bb96a952d29f83306203cc7b389d20299f4605b091ec7a[ALL] 038b75d9157f146124d3b3f85b548979ba0ddb2f4ed8ff690e7f584fdcf18e4c92"}, "vout": 1, "txid": "bca1aea69df359387b6fc750ef845f286ae00d8329ba80ca526f850065e5284f"}], "txid": "0282e13e21a0dbcdf18a9f9bd7d37fe468cd5ec29749de4cf680b264d53aea42", "blocktime": 1537871767, "version": 1, "confirmations": 11495, "time": 1537871767, "locktime": 0, "vsize": 226, "size": 226}