{"hash": "02853ad1485b57b9004597ab6ee82091246171b97e93feefb45757eb6e23fcfd", "blockhash": "00000000000000000024a2167bbff67b0be802c0b01cdd79e6331c2be6459f87", "vout": [{"scriptPubKey": {"reqSigs": 1, "hex": "76a9149e88d29c8ed1a761cf9eabb396c63c0303af25a588ac", "addresses": ["1FTFfvCL1txwSUKbv32UdmCSfQ5NU1rC7f"], "asm": "OP_DUP OP_HASH160 9e88d29c8ed1a761cf9eabb396c63c0303af25a5 OP_EQUALVERIFY OP_CHECKSIG", "type": "pubkeyhash"}, "value": 0.02357112, "n": 0}, {"scriptPubKey": {"reqSigs": 1, "hex": "a91499e7f97ac35e1f6155f79e35d0f4eb86e233d28587", "addresses": ["3FioCmRNFw7ei4hSKabgucSaxuLuPSWgCm"], "asm": "OP_HASH160 99e7f97ac35e1f6155f79e35d0f4eb86e233d285 OP_EQUAL", "type": "scripthash"}, "value": 0.098708, "n": 1}], "hex": "010000000276edd3fa244e5b61a420647e37d4a73c9a66c9abec48535ffbb807451174ae75010000006b483045022100ddfae1cf2eb4d3fd720b37800547f82623e195da024994646006599b3a45b7060220080748c618870063f819282b6d7d15758b7bbbcc6aaf7c5a16aa350ebef13921012102f07d605baae240ac2be8dcb2d856fa715e5e7bf4c10dd0e35d1e130f32169830ffffffff68fe212a6cdbcc6b66a5afa3493daae48afba3a67c8d07c9a9357c53323524e3000000006a473044022059f9cae3730f7ae2ea1cc53e26e9fd28eb382f2cf97192a38a45f9cef65a573402203d4bca18d06606dc61bf992f7bd80ecb3e367b9616cfca92b233f56a53ca3bc5012102854721d94f602707e845609b590e3708218d69b77b4849d86deed4ad799448a0ffffffff0278f72300000000001976a9149e88d29c8ed1a761cf9eabb396c63c0303af25a588acd09d96000000000017a91499e7f97ac35e1f6155f79e35d0f4eb86e233d2858700000000", "vin": [{"sequence": 4294967295, "scriptSig": {"hex": "483045022100ddfae1cf2eb4d3fd720b37800547f82623e195da024994646006599b3a45b7060220080748c618870063f819282b6d7d15758b7bbbcc6aaf7c5a16aa350ebef13921012102f07d605baae240ac2be8dcb2d856fa715e5e7bf4c10dd0e35d1e130f32169830", "asm": "3045022100ddfae1cf2eb4d3fd720b37800547f82623e195da024994646006599b3a45b7060220080748c618870063f819282b6d7d15758b7bbbcc6aaf7c5a16aa350ebef13921[ALL] 02f07d605baae240ac2be8dcb2d856fa715e5e7bf4c10dd0e35d1e130f32169830"}, "vout": 1, "txid": "75ae74114507b8fb5f5348ecabc9669a3ca7d4377e6420a4615b4e24fad3ed76"}, {"sequence": 4294967295, "scriptSig": {"hex": "473044022059f9cae3730f7ae2ea1cc53e26e9fd28eb382f2cf97192a38a45f9cef65a573402203d4bca18d06606dc61bf992f7bd80ecb3e367b9616cfca92b233f56a53ca3bc5012102854721d94f602707e845609b590e3708218d69b77b4849d86deed4ad799448a0", "asm": "3044022059f9cae3730f7ae2ea1cc53e26e9fd28eb382f2cf97192a38a45f9cef65a573402203d4bca18d06606dc61bf992f7bd80ecb3e367b9616cfca92b233f56a53ca3bc5[ALL] 02854721d94f602707e845609b590e3708218d69b77b4849d86deed4ad799448a0"}, "vout": 0, "txid": "e3243532537c35a9c9078d7ca6a3fb8ae4aa3d49a3afa5666bccdb6c2a21fe68"}], "txid": "02853ad1485b57b9004597ab6ee82091246171b97e93feefb45757eb6e23fcfd", "blocktime": 1537870564, "version": 1, "confirmations": 11515, "time": 1537870564, "locktime": 0, "vsize": 371, "size": 371}