{"hash": "02893934321b5f6e9cb672616b0c796d68cfc22f7508a4492b63d5f97c14406f", "blockhash": "0000000000000000000e13cef7c366c0283d82e591d1acd082e914b08063cdf1", "vout": [{"scriptPubKey": {"reqSigs": 1, "hex": "a91441cd848f93949edc874d844391ba040059469b7587", "addresses": ["37gx3e8HEuCi6WaunkVJkj6x9TG1284NNS"], "asm": "OP_HASH160 41cd848f93949edc874d844391ba040059469b75 OP_EQUAL", "type": "scripthash"}, "value": 0.00156356, "n": 0}, {"scriptPubKey": {"reqSigs": 1, "hex": "76a914105df09f5feb41363da6674556fc8f9651c5224c88ac", "addresses": ["12VYM8YvdThGjGSMgqcEWdB8nZV5z2xWAy"], "asm": "OP_DUP OP_HASH160 105df09f5feb41363da6674556fc8f9651c5224c OP_EQUALVERIFY OP_CHECKSIG", "type": "pubkeyhash"}, "value": 0.01963341, "n": 1}], "hex": "0100000001370ddb4607aff8372f7126e03766b5f074cd2335be5c01840eeeb0435938c95b010000006b48304502210092ae68718cda8a481f035e235c82516596f090f25c02b8c4704a175d510d63a4022024b0714bd64cae185002ad812cc1c74633db1861cad2548546a4c57f80355e3c01210319ed908916bc7d1fe615f6fedf8f303ec51dd68c4e03e3d94e003bf097f27509ffffffff02c46202000000000017a91441cd848f93949edc874d844391ba040059469b75874df51d00000000001976a914105df09f5feb41363da6674556fc8f9651c5224c88ac00000000", "vin": [{"sequence": 4294967295, "scriptSig": {"hex": "48304502210092ae68718cda8a481f035e235c82516596f090f25c02b8c4704a175d510d63a4022024b0714bd64cae185002ad812cc1c74633db1861cad2548546a4c57f80355e3c01210319ed908916bc7d1fe615f6fedf8f303ec51dd68c4e03e3d94e003bf097f27509", "asm": "304502210092ae68718cda8a481f035e235c82516596f090f25c02b8c4704a175d510d63a4022024b0714bd64cae185002ad812cc1c74633db1861cad2548546a4c57f80355e3c[ALL] 0319ed908916bc7d1fe615f6fedf8f303ec51dd68c4e03e3d94e003bf097f27509"}, "vout": 1, "txid": "5bc9385943b0ee0e84015cbe3523cd74f0b56637e026712f37f8af0746db0d37"}], "txid": "02893934321b5f6e9cb672616b0c796d68cfc22f7508a4492b63d5f97c14406f", "blocktime": 1537871767, "version": 1, "confirmations": 11495, "time": 1537871767, "locktime": 0, "vsize": 224, "size": 224}