{"hash": "541a907322e08aa2be617af8fce755e292a8dda8711998b3e07786d237b09fe2", "blockhash": "0000000000000000000baef3f32e3676a92c3b2e5da21b426e4f302fc371ce76", "vout": [{"scriptPubKey": {"reqSigs": 1, "hex": "76a9147a68e219f281647786a3e097986aef5919064b6588ac", "addresses": ["1CAF5pMLNqeFgwU1rEHdGvJzX2douMaSwJ"], "asm": "OP_DUP OP_HASH160 7a68e219f281647786a3e097986aef5919064b65 OP_EQUALVERIFY OP_CHECKSIG", "type": "pubkeyhash"}, "value": 0.0241, "n": 0}, {"scriptPubKey": {"reqSigs": 1, "hex": "a91441555f57509ea64faafe7798ae31a64e131029a487", "addresses": ["37eU7nwX8tQ86A4FwG8vcYasHbHaLAKRhb"], "asm": "OP_HASH160 41555f57509ea64faafe7798ae31a64e131029a4 OP_EQUAL", "type": "scripthash"}, "value": 7.7e-05, "n": 1}], "hex": "010000000001013671987025cec477b14958332c42698039d9267085c97a1a40b74960ff3be61a000000002322002093dd8e288add26cbc668a6faeeed539c5d35d2b6447054f371422480febc66d2ffffffff0210c62400000000001976a9147a68e219f281647786a3e097986aef5919064b6588ac141e00000000000017a91441555f57509ea64faafe7798ae31a64e131029a487040047304402200e6886d648a6071af1f21127fa6885b7ffc6a2eb7001323103df5e0530337b3a022004480fc5de8656ca64fe74cf0e73d723c40ce192d8015fca349e51d82c6071410147304402203ece2e831754d4429803958748e7bef7c870704c45d519aea47072298ba6a2c502202f2887db81882473a81948929168c749b6026f93a3d576925f1808ae4abe0a490169522102114b8bf894fd266c2d546f30fe1e93282af37660be403501d20bd0514834237521038c669bb57c25f9c859fcd5e106eeecc26cb8e4ae3ca0ae1cc56489ea6dfa49c721039e5223b82c2071e3bf150373eca6aaa9bd5c7b3af63b8a3dbf82d6775dc53df353ae00000000", "vin": [{"txinwitness": ["", "304402200e6886d648a6071af1f21127fa6885b7ffc6a2eb7001323103df5e0530337b3a022004480fc5de8656ca64fe74cf0e73d723c40ce192d8015fca349e51d82c60714101", "304402203ece2e831754d4429803958748e7bef7c870704c45d519aea47072298ba6a2c502202f2887db81882473a81948929168c749b6026f93a3d576925f1808ae4abe0a4901", "522102114b8bf894fd266c2d546f30fe1e93282af37660be403501d20bd0514834237521038c669bb57c25f9c859fcd5e106eeecc26cb8e4ae3ca0ae1cc56489ea6dfa49c721039e5223b82c2071e3bf150373eca6aaa9bd5c7b3af63b8a3dbf82d6775dc53df353ae"], "sequence": 4294967295, "scriptSig": {"hex": "22002093dd8e288add26cbc668a6faeeed539c5d35d2b6447054f371422480febc66d2", "asm": "002093dd8e288add26cbc668a6faeeed539c5d35d2b6447054f371422480febc66d2"}, "vout": 0, "txid": "1ae63bff6049b7401a7ac9857026d9398069422c335849b177c4ce2570987136"}], "txid": "02952fb44240c0fc3ce77ff024a335ac7933bca2736d4617ddf6c53036f367e3", "blocktime": 1537876114, "version": 1, "confirmations": 11459, "time": 1537876114, "locktime": 0, "vsize": 216, "size": 406}