{"hash": "a0b29519f42c504d2c98051ac0841fbd942e55ce10069b07881872cd50df2396", "blockhash": "00000000000000000018f53835495a110e01622372bf6ae95dc86f2b0ab887b0", "vout": [{"scriptPubKey": {"reqSigs": 1, "hex": "76a914fdd315a202c35a199c12343c0474e0a944e2b12f88ac", "addresses": ["1Q96pwcERJeCkQZbAAD4X97LmqdyXvbDqY"], "asm": "OP_DUP OP_HASH160 fdd315a202c35a199c12343c0474e0a944e2b12f OP_EQUALVERIFY OP_CHECKSIG", "type": "pubkeyhash"}, "value": 1.0, "n": 0}, {"scriptPubKey": {"reqSigs": 1, "hex": "a914a64dab302fc6996aa0ed6d211ea6b9c3523699ab87", "addresses": ["3GrM8uNXFkb3mnKpoGreVakdF6bLthdHFM"], "asm": "OP_HASH160 a64dab302fc6996aa0ed6d211ea6b9c3523699ab OP_EQUAL", "type": "scripthash"}, "value": 1.96998648, "n": 1}], "hex": "01000000000101e8096712739b89315b6bada0e6ca9b6330436a1ddc7c9182efdbfb16585ab4ed0100000017160014bf1dfeb4c2b94c641d84b16d06a03547857189e8ffffffff0200e1f505000000001976a914fdd315a202c35a199c12343c0474e0a944e2b12f88acf8f5bd0b0000000017a914a64dab302fc6996aa0ed6d211ea6b9c3523699ab8702483045022100de6577ab382ab88b2369fa4791be7f46f58a32b513758ba6b44d540da9fb838a022042daef5abd44d3161ab73881257b2e29d07d996383df892b896d3e60929a4c6e0121023afb3752b0108877c8c9440ffde76d70872a052e406292c802eb3daea3c5b84800000000", "vin": [{"txinwitness": ["3045022100de6577ab382ab88b2369fa4791be7f46f58a32b513758ba6b44d540da9fb838a022042daef5abd44d3161ab73881257b2e29d07d996383df892b896d3e60929a4c6e01", "023afb3752b0108877c8c9440ffde76d70872a052e406292c802eb3daea3c5b848"], "sequence": 4294967295, "scriptSig": {"hex": "160014bf1dfeb4c2b94c641d84b16d06a03547857189e8", "asm": "0014bf1dfeb4c2b94c641d84b16d06a03547857189e8"}, "vout": 1, "txid": "edb45a5816fbdbef82917cdc1d6a4330639bcae6a0ad6b5b31899b73126709e8"}], "txid": "02a2650e1b4bf4e36ccbcd436b769d59ced9102cf578f2a88bc1889a7be4dd8a", "blocktime": 1537870928, "version": 1, "confirmations": 11512, "time": 1537870928, "locktime": 0, "vsize": 168, "size": 250}