{"hash": "02a21887d26c77cf2464097ed750acd41789e3f29b95fba1d94e305b99e5df2e", "blockhash": "000000000000000000022b45ed06c6f4ccd3cf7fb5ba4856ebd2e58215665228", "vout": [{"scriptPubKey": {"reqSigs": 1, "hex": "76a914b81058578d1e3eaf2196337cb87cd929e48276f188ac", "addresses": ["1HnEuyT73LdMrxeaXZWH4qLQx1k4UiqkYA"], "asm": "OP_DUP OP_HASH160 b81058578d1e3eaf2196337cb87cd929e48276f1 OP_EQUALVERIFY OP_CHECKSIG", "type": "pubkeyhash"}, "value": 0.0064952, "n": 0}, {"scriptPubKey": {"type": "nulldata", "hex": "6a4c5000007760000172dac894e56a771115d2ceea3a016b46dc7dc7d0968d120d670c1906f999943905847529ed097dd8ea8c866b9ee15baa07ad06126b00aec6aa311d100759d4ba30d2c37bb011d97e02cf", "asm": "OP_RETURN 00007760000172dac894e56a771115d2ceea3a016b46dc7dc7d0968d120d670c1906f999943905847529ed097dd8ea8c866b9ee15baa07ad06126b00aec6aa311d100759d4ba30d2c37bb011d97e02cf"}, "value": 0.0, "n": 1}], "hex": "01000000015eb0f04ba939143c6996894f7fb7406b0f052ed81af2c4387b93adf5fce57519010000006b483045022100d56aa686175df3fb57d79ccfc53eedd754bf05b0bc5856d7902dd9b9086871be022079e7b5c993a45386f0f269d0e776d22aeb9069ccd8bfd1325b8095b8c2bca296012102708e333fa7c46f00232c3e03b68405f44216af44b090e7d8e2f9d7088103c8e5ffffffff0230e90900000000001976a914b81058578d1e3eaf2196337cb87cd929e48276f188ac0000000000000000536a4c5000007760000172dac894e56a771115d2ceea3a016b46dc7dc7d0968d120d670c1906f999943905847529ed097dd8ea8c866b9ee15baa07ad06126b00aec6aa311d100759d4ba30d2c37bb011d97e02cf00000000", "vin": [{"sequence": 4294967295, "scriptSig": {"hex": "483045022100d56aa686175df3fb57d79ccfc53eedd754bf05b0bc5856d7902dd9b9086871be022079e7b5c993a45386f0f269d0e776d22aeb9069ccd8bfd1325b8095b8c2bca296012102708e333fa7c46f00232c3e03b68405f44216af44b090e7d8e2f9d7088103c8e5", "asm": "3045022100d56aa686175df3fb57d79ccfc53eedd754bf05b0bc5856d7902dd9b9086871be022079e7b5c993a45386f0f269d0e776d22aeb9069ccd8bfd1325b8095b8c2bca296[ALL] 02708e333fa7c46f00232c3e03b68405f44216af44b090e7d8e2f9d7088103c8e5"}, "vout": 1, "txid": "1975e5fcf5ad937b38c4f21ad82e050f6b40b77f4f8996693c1439a94bf0b05e"}], "txid": "02a21887d26c77cf2464097ed750acd41789e3f29b95fba1d94e305b99e5df2e", "blocktime": 1537869901, "version": 1, "confirmations": 11523, "time": 1537869901, "locktime": 0, "vsize": 284, "size": 284}