{"hash": "02a26c71a19efa0f7f3c8be8ebe7d5730ea7d70890d889ecd000e14bb2093e84", "blockhash": "00000000000000000018f53835495a110e01622372bf6ae95dc86f2b0ab887b0", "vout": [{"scriptPubKey": {"reqSigs": 1, "hex": "76a9144ed2df4b5849203d41ba520d890dbfb2ed2702ad88ac", "addresses": ["18BnKd98ZLyCW2P4w3SgS5c4fL6aCYRheQ"], "asm": "OP_DUP OP_HASH160 4ed2df4b5849203d41ba520d890dbfb2ed2702ad OP_EQUALVERIFY OP_CHECKSIG", "type": "pubkeyhash"}, "value": 0.08433122, "n": 0}], "hex": "0100000001b34f2d57738178214602dd708bdbc215f57f236f0f10f5cfedfb6dadeefb847b01000000fdfe0000483045022100fdaa9702a70b8349b57d9305543d87d4fc0f62f56bb1da1e163971a6a8d9713002203c268de577007671fc4eccfbd832669f43e05c10c2059158ecc1980f0ac7da05014830450221008969237c4a910e572e2ec450079a07e8ce8f7500e756e2936ceb3600b29fc02302201884ce96e4e4ff50f498b7a88bbe75b5d877e9703a66a0fa7c8cb2e87dc46a79014c69522103cd92b7b0d5b12e26bee8c5d9bf8ae7a561875f682812b7a524c8b1213317af4a210359183143d99f1445ce2fce173b43612c0377703b08fd6e703a98c542c5d679802102280576183cea5987825264307485c7e7c0d418775ee2d1eeb8fc448efb9550b253aeffffffff01e2ad8000000000001976a9144ed2df4b5849203d41ba520d890dbfb2ed2702ad88ac0f490800", "vin": [{"sequence": 4294967295, "scriptSig": {"hex": "00483045022100fdaa9702a70b8349b57d9305543d87d4fc0f62f56bb1da1e163971a6a8d9713002203c268de577007671fc4eccfbd832669f43e05c10c2059158ecc1980f0ac7da05014830450221008969237c4a910e572e2ec450079a07e8ce8f7500e756e2936ceb3600b29fc02302201884ce96e4e4ff50f498b7a88bbe75b5d877e9703a66a0fa7c8cb2e87dc46a79014c69522103cd92b7b0d5b12e26bee8c5d9bf8ae7a561875f682812b7a524c8b1213317af4a210359183143d99f1445ce2fce173b43612c0377703b08fd6e703a98c542c5d679802102280576183cea5987825264307485c7e7c0d418775ee2d1eeb8fc448efb9550b253ae", "asm": "0 3045022100fdaa9702a70b8349b57d9305543d87d4fc0f62f56bb1da1e163971a6a8d9713002203c268de577007671fc4eccfbd832669f43e05c10c2059158ecc1980f0ac7da05[ALL] 30450221008969237c4a910e572e2ec450079a07e8ce8f7500e756e2936ceb3600b29fc02302201884ce96e4e4ff50f498b7a88bbe75b5d877e9703a66a0fa7c8cb2e87dc46a79[ALL] 522103cd92b7b0d5b12e26bee8c5d9bf8ae7a561875f682812b7a524c8b1213317af4a210359183143d99f1445ce2fce173b43612c0377703b08fd6e703a98c542c5d679802102280576183cea5987825264307485c7e7c0d418775ee2d1eeb8fc448efb9550b253ae"}, "vout": 1, "txid": "7b84fbeead6dfbedcff5100f6f237ff515c2db8b70dd024621788173572d4fb3"}], "txid": "02a26c71a19efa0f7f3c8be8ebe7d5730ea7d70890d889ecd000e14bb2093e84", "blocktime": 1537870928, "version": 1, "confirmations": 11512, "time": 1537870928, "locktime": 542991, "vsize": 341, "size": 341}