{"hash": "02a7bbf0b7c2e1fa49f8a1f1c8ef532ae77baba34d0d575cb2e3230d3591bf54", "blockhash": "0000000000000000000e13cef7c366c0283d82e591d1acd082e914b08063cdf1", "vout": [{"scriptPubKey": {"reqSigs": 1, "hex": "76a914b7fe0743496caac079d893ff61e800bfa6da590d88ac", "addresses": ["1HmryJixTD2D7EoZfsc1jdXKBVxPhjZcKL"], "asm": "OP_DUP OP_HASH160 b7fe0743496caac079d893ff61e800bfa6da590d OP_EQUALVERIFY OP_CHECKSIG", "type": "pubkeyhash"}, "value": 7.956e-05, "n": 0}, {"scriptPubKey": {"reqSigs": 1, "hex": "76a9148cc85b6170e829492f39b1945b30082545cee02988ac", "addresses": ["1DqPcuHw3DXnqXp3tJ9W4aJV7ZeUejLUY5"], "asm": "OP_DUP OP_HASH160 8cc85b6170e829492f39b1945b30082545cee029 OP_EQUALVERIFY OP_CHECKSIG", "type": "pubkeyhash"}, "value": 0.03015398, "n": 1}], "hex": "0100000001dd17cd15ef49fcd83f25a7d87805edafe0651cd3426ac1e307e3f6cb79e4cf5c010000006b4830450221008d443c790126ba81145a320cda2b650edf90986a70b2adfcb75bdea1d1c77c86022026084d398126fe483e84e525b13404f57a7cd5ae98c93d1868d87968b81802c6012102d01408f7667b3d2485702686597cad97a2f0bf280ad62b4b8bc9dd016a24084affffffff02141f0000000000001976a914b7fe0743496caac079d893ff61e800bfa6da590d88ace6022e00000000001976a9148cc85b6170e829492f39b1945b30082545cee02988ac00000000", "vin": [{"sequence": 4294967295, "scriptSig": {"hex": "4830450221008d443c790126ba81145a320cda2b650edf90986a70b2adfcb75bdea1d1c77c86022026084d398126fe483e84e525b13404f57a7cd5ae98c93d1868d87968b81802c6012102d01408f7667b3d2485702686597cad97a2f0bf280ad62b4b8bc9dd016a24084a", "asm": "30450221008d443c790126ba81145a320cda2b650edf90986a70b2adfcb75bdea1d1c77c86022026084d398126fe483e84e525b13404f57a7cd5ae98c93d1868d87968b81802c6[ALL] 02d01408f7667b3d2485702686597cad97a2f0bf280ad62b4b8bc9dd016a24084a"}, "vout": 1, "txid": "5ccfe479cbf6e307e3c16a42d31c65e0afed0578d8a7253fd8fc49ef15cd17dd"}], "txid": "02a7bbf0b7c2e1fa49f8a1f1c8ef532ae77baba34d0d575cb2e3230d3591bf54", "blocktime": 1537871767, "version": 1, "confirmations": 11493, "time": 1537871767, "locktime": 0, "vsize": 226, "size": 226}