{"hash": "aea7c9f69820f530d8f121570bf30550c2ebfa183ca606076f450b32f299c523", "blockhash": "0000000000000000000e13cef7c366c0283d82e591d1acd082e914b08063cdf1", "vout": [{"scriptPubKey": {"reqSigs": 1, "hex": "76a91459cc8e800aa622fbe4c8af4881ff7218519a9e8e88ac", "addresses": ["19BpBvDWCz5EpmiokVVBZStxAG3usMJfQf"], "asm": "OP_DUP OP_HASH160 59cc8e800aa622fbe4c8af4881ff7218519a9e8e OP_EQUALVERIFY OP_CHECKSIG", "type": "pubkeyhash"}, "value": 0.00013068, "n": 0}, {"scriptPubKey": {"reqSigs": 1, "hex": "a9141ef8828e72d72a8314b0fdbc8ce10f0401d6c02387", "addresses": ["34Wmu5KFTd5pDR1V8Av7UaatVTurdjpoPU"], "asm": "OP_HASH160 1ef8828e72d72a8314b0fdbc8ce10f0401d6c023 OP_EQUAL", "type": "scripthash"}, "value": 0.00209937, "n": 1}], "hex": "01000000000101663395cef5a6db546a3bcb8d52e8a77a124e0e3b92ff6138e06df329130fcd250100000023220020e0b6457c89caa8596820c62381c2009d628f3a36c52eadf413267f9bc6e1a31affffffff020c330000000000001976a91459cc8e800aa622fbe4c8af4881ff7218519a9e8e88ac113403000000000017a9141ef8828e72d72a8314b0fdbc8ce10f0401d6c02387040047304402205099019ee7ad80ddc9f4280e4728fb153cd45c785211d7fb3ec3251a6df6519802205fad2d0bade95168a1c3f5a2b5e823d9b8e6ee4545b973237ebf74cb470f7d750148304502210090f8b78381cf45c4ddf14cccc5d1548d9952230b8a12a3c033cf01bb9a0d42ab022063a21bd2def49848eebcb82b93288911c4277744a4534d6648a762764bd41ec10147522102662df3c75a4f151bb0d69b086cd19ab6764e52eeb055398aa45f450439053f512103871fc2ca08e6950b38867e8e6a0e94ee625223d3aa0df5c65f414c6d784467e252ae00000000", "vin": [{"txinwitness": ["", "304402205099019ee7ad80ddc9f4280e4728fb153cd45c785211d7fb3ec3251a6df6519802205fad2d0bade95168a1c3f5a2b5e823d9b8e6ee4545b973237ebf74cb470f7d7501", "304502210090f8b78381cf45c4ddf14cccc5d1548d9952230b8a12a3c033cf01bb9a0d42ab022063a21bd2def49848eebcb82b93288911c4277744a4534d6648a762764bd41ec101", "522102662df3c75a4f151bb0d69b086cd19ab6764e52eeb055398aa45f450439053f512103871fc2ca08e6950b38867e8e6a0e94ee625223d3aa0df5c65f414c6d784467e252ae"], "sequence": 4294967295, "scriptSig": {"hex": "220020e0b6457c89caa8596820c62381c2009d628f3a36c52eadf413267f9bc6e1a31a", "asm": "0020e0b6457c89caa8596820c62381c2009d628f3a36c52eadf413267f9bc6e1a31a"}, "vout": 1, "txid": "25cd0f1329f36de03861ff923b0e4e127aa7e8528dcb3b6a54dba6f5ce953366"}], "txid": "02b557bdc0f4c8e60e1d85f1c4fc9efea630969a3bb5014d6ad68a235b8e4ce4", "blocktime": 1537871767, "version": 1, "confirmations": 11495, "time": 1537871767, "locktime": 0, "vsize": 208, "size": 373}