{"hash": "38e9dbecaf2d91b699b95163d1638cc3e7ad304b6011dd61a2a3c1ca3b60215f", "blockhash": "0000000000000000001cda96e906b7601b7a6fb1a3b62bca570a9e5d8f4b3de1", "vout": [{"scriptPubKey": {"reqSigs": 1, "hex": "a9142c6d3d0d48de2b97e1c9b88f329c1e4e246a5d9687", "addresses": ["35jvX1NYJbbN7HUZVR4FEYinMmMVPs24sW"], "asm": "OP_HASH160 2c6d3d0d48de2b97e1c9b88f329c1e4e246a5d96 OP_EQUAL", "type": "scripthash"}, "value": 0.00999659, "n": 0}, {"scriptPubKey": {"reqSigs": 1, "hex": "76a914ebaf2cafdc497032205ccfcbdbc8180fe58ee72688ac", "addresses": ["1NVBeRU67WqPFJyJXWJ3Ee52Y9pg5jxJiR"], "asm": "OP_DUP OP_HASH160 ebaf2cafdc497032205ccfcbdbc8180fe58ee726 OP_EQUALVERIFY OP_CHECKSIG", "type": "pubkeyhash"}, "value": 0.0037046, "n": 1}], "hex": "02000000000102c68deb8e735b16e70611588e32487ebac3c18845d3a5ffaa39190dd2de078316000000001716001451554105569cdacb1b4dfd82e6005139392d6db7feffffffea78916916e332db4845511f43328b222184a1a09c93d2a7ff795c57e46c90390100000017160014d3aa91760c5da53df67b6f7a89a597694e312701feffffff02eb400f000000000017a9142c6d3d0d48de2b97e1c9b88f329c1e4e246a5d96871ca70500000000001976a914ebaf2cafdc497032205ccfcbdbc8180fe58ee72688ac02473044022048780956c45b550fb92b5bc4f60392fc1a0107e0fe63050ccafd7f22972f5fe50220660822020f115a6ec4d4b2a66210dcc871b3a8aeca43237ee74ca0a7ea7d16a60121020f7051053ac85a10eff349341f7abf88da93d66f13061eade75435555d01564b0247304402203152d495bdb61edefc95d7d1a190a54320a135914816843afc82cc95f76c63960220780e535f2f73c034054ab74c8713a5d26a34732b09b0c53446ccbb025e331360012102565d2e04c990da825c51e94ed4ea9c1c3a5e4dfe08091a2ca9436f89ab7ec86c13490800", "vin": [{"txinwitness": ["3044022048780956c45b550fb92b5bc4f60392fc1a0107e0fe63050ccafd7f22972f5fe50220660822020f115a6ec4d4b2a66210dcc871b3a8aeca43237ee74ca0a7ea7d16a601", "020f7051053ac85a10eff349341f7abf88da93d66f13061eade75435555d01564b"], "sequence": 4294967294, "scriptSig": {"hex": "16001451554105569cdacb1b4dfd82e6005139392d6db7", "asm": "001451554105569cdacb1b4dfd82e6005139392d6db7"}, "vout": 0, "txid": "168307ded20d1939aaffa5d34588c1c3ba7e48328e581106e7165b738eeb8dc6"}, {"txinwitness": ["304402203152d495bdb61edefc95d7d1a190a54320a135914816843afc82cc95f76c63960220780e535f2f73c034054ab74c8713a5d26a34732b09b0c53446ccbb025e33136001", "02565d2e04c990da825c51e94ed4ea9c1c3a5e4dfe08091a2ca9436f89ab7ec86c"], "sequence": 4294967294, "scriptSig": {"hex": "160014d3aa91760c5da53df67b6f7a89a597694e312701", "asm": "0014d3aa91760c5da53df67b6f7a89a597694e312701"}, "vout": 1, "txid": "39906ce4575c79ffa7d2939ca0a18421228b32431f514548db32e316699178ea"}], "txid": "02bc4d92d94ac01c6c382e84b60aa09854dfc7e4b1bf2807b265cdb14dccc37d", "blocktime": 1537873282, "version": 2, "confirmations": 11485, "time": 1537873282, "locktime": 542995, "vsize": 258, "size": 420}