{"hash": "02c0f2fb3703333460b221a28e08ccdcd5fbc2501da7d9d7e2a14778d97e3623", "blockhash": "00000000000000000018f53835495a110e01622372bf6ae95dc86f2b0ab887b0", "vout": [{"scriptPubKey": {"type": "nulldata", "hex": "6a4c500000778a00018c2006064182e1e4eaecdd68e3ef3236678a625097bcbefa6b8351586b4e7a7ca6b3f273977974e72d62a9b05e015baa0bda0613db55cc9388541d100759d4ba30d2c37bb011d97e02cf", "asm": "OP_RETURN 0000778a00018c2006064182e1e4eaecdd68e3ef3236678a625097bcbefa6b8351586b4e7a7ca6b3f273977974e72d62a9b05e015baa0bda0613db55cc9388541d100759d4ba30d2c37bb011d97e02cf"}, "value": 0.0, "n": 0}, {"scriptPubKey": {"reqSigs": 1, "hex": "76a914c5a0c7fd27bbe96cf5a77c7ccc27685b9be765ce88ac", "addresses": ["1K1xj4kZLU1uT2EJgraE1poKdLnVDf3AZM"], "asm": "OP_DUP OP_HASH160 c5a0c7fd27bbe96cf5a77c7ccc27685b9be765ce OP_EQUALVERIFY OP_CHECKSIG", "type": "pubkeyhash"}, "value": 0.0064881, "n": 1}], "hex": "0100000001b3d94a95466ffa65af966ba0ad07d6dfc972368d8458b7c70ecbc0774fa5e1f0010000006b483045022100f485fa01ee7ddf8298a1edee77a4021c750fbc5f9aba43aa8175941f0828fe9f02204e01defdb681b864a156467f2480785f20fed76a5a54afa7531201ab081cba41012102ff5f40ff97ef43b553bfb0e9382371002b204447b954ebb5c9d9b798be6b588bffffffff020000000000000000536a4c500000778a00018c2006064182e1e4eaecdd68e3ef3236678a625097bcbefa6b8351586b4e7a7ca6b3f273977974e72d62a9b05e015baa0bda0613db55cc9388541d100759d4ba30d2c37bb011d97e02cf6ae60900000000001976a914c5a0c7fd27bbe96cf5a77c7ccc27685b9be765ce88ac00000000", "vin": [{"sequence": 4294967295, "scriptSig": {"hex": "483045022100f485fa01ee7ddf8298a1edee77a4021c750fbc5f9aba43aa8175941f0828fe9f02204e01defdb681b864a156467f2480785f20fed76a5a54afa7531201ab081cba41012102ff5f40ff97ef43b553bfb0e9382371002b204447b954ebb5c9d9b798be6b588b", "asm": "3045022100f485fa01ee7ddf8298a1edee77a4021c750fbc5f9aba43aa8175941f0828fe9f02204e01defdb681b864a156467f2480785f20fed76a5a54afa7531201ab081cba41[ALL] 02ff5f40ff97ef43b553bfb0e9382371002b204447b954ebb5c9d9b798be6b588b"}, "vout": 1, "txid": "f0e1a54f77c0cb0ec7b758848d3672c9dfd607ada06b96af65fa6f46954ad9b3"}], "txid": "02c0f2fb3703333460b221a28e08ccdcd5fbc2501da7d9d7e2a14778d97e3623", "blocktime": 1537870928, "version": 1, "confirmations": 11513, "time": 1537870928, "locktime": 0, "vsize": 284, "size": 284}