{"hash": "02c9cdc43d07c176ea2d1d25e8ce59b58e32ca9d5ac2cadaf07cafeefc48e883", "blockhash": "0000000000000000000e13cef7c366c0283d82e591d1acd082e914b08063cdf1", "vout": [{"scriptPubKey": {"reqSigs": 1, "hex": "76a914d97b8d3aad21cfa78794441bfc6e94d83cdf030688ac", "addresses": ["1Lpwe9bVyVLqv8eBJSqgNsMro33feDW2Df"], "asm": "OP_DUP OP_HASH160 d97b8d3aad21cfa78794441bfc6e94d83cdf0306 OP_EQUALVERIFY OP_CHECKSIG", "type": "pubkeyhash"}, "value": 0.32459, "n": 0}, {"scriptPubKey": {"reqSigs": 1, "hex": "76a9148b9e11fed67d6c57e0f2c563044e3e09dc8ddee188ac", "addresses": ["1DjEHahfFwicvq2iKmmS9q6ntfZYaL75ei"], "asm": "OP_DUP OP_HASH160 8b9e11fed67d6c57e0f2c563044e3e09dc8ddee1 OP_EQUALVERIFY OP_CHECKSIG", "type": "pubkeyhash"}, "value": 0.00026, "n": 1}], "hex": "01000000013467c0d976819279bf040553300daed84d9d192ca95d28f63d18ae5577afab7f000000006a47304402205b1daef99954ed0e5eabd877921b47d69ff274f0e31ad1b54c0a098e5657d2a3022066502b4d4ab89a247b055d78d4f99525ccfec4de828c67a112f370a7e287cdfa01210247602e35628b51e3735341ae289ca4027ef4ec4386e3245b67194131d430ccaefcffffff02f848ef01000000001976a914d97b8d3aad21cfa78794441bfc6e94d83cdf030688ac90650000000000001976a9148b9e11fed67d6c57e0f2c563044e3e09dc8ddee188ac00000000", "vin": [{"sequence": 4294967292, "scriptSig": {"hex": "47304402205b1daef99954ed0e5eabd877921b47d69ff274f0e31ad1b54c0a098e5657d2a3022066502b4d4ab89a247b055d78d4f99525ccfec4de828c67a112f370a7e287cdfa01210247602e35628b51e3735341ae289ca4027ef4ec4386e3245b67194131d430ccae", "asm": "304402205b1daef99954ed0e5eabd877921b47d69ff274f0e31ad1b54c0a098e5657d2a3022066502b4d4ab89a247b055d78d4f99525ccfec4de828c67a112f370a7e287cdfa[ALL] 0247602e35628b51e3735341ae289ca4027ef4ec4386e3245b67194131d430ccae"}, "vout": 0, "txid": "7fabaf7755ae183df6285da92c199d4dd8ae0d30530504bf79928176d9c06734"}], "txid": "02c9cdc43d07c176ea2d1d25e8ce59b58e32ca9d5ac2cadaf07cafeefc48e883", "blocktime": 1537871767, "version": 1, "confirmations": 11490, "time": 1537871767, "locktime": 0, "vsize": 225, "size": 225}