{"hash": "02cc8fe12fd22252e281e0c31762e81b39f5e9543c60016e78930542b0b2568f", "blockhash": "000000000000000000022b45ed06c6f4ccd3cf7fb5ba4856ebd2e58215665228", "vout": [{"scriptPubKey": {"reqSigs": 1, "hex": "76a9147d2f9f8e4e2fcaf3cb8d1c8661fff7668628363f88ac", "addresses": ["1CQvWuGtZX2dZoLY3Mrn4p6uNTfAzEAAKQ"], "asm": "OP_DUP OP_HASH160 7d2f9f8e4e2fcaf3cb8d1c8661fff7668628363f OP_EQUALVERIFY OP_CHECKSIG", "type": "pubkeyhash"}, "value": 7.14e-06, "n": 0}, {"scriptPubKey": {"reqSigs": 1, "hex": "a914fd015a11449e275edf0d624adee86bd221954d3487", "addresses": ["3QknW19aUVWeYRH2ozBbvMJE9kR3zowGyG"], "asm": "OP_HASH160 fd015a11449e275edf0d624adee86bd221954d34 OP_EQUAL", "type": "scripthash"}, "value": 0.019815, "n": 1}], "hex": "0100000003faaa072cb560502c98979db57fbd5c89e08256fccf04e3779617fd39f9c723c0ea0000006b483045022100a7e4d3d5fed3b21dbf7b0cd3036a4582983e7f3bb3909d45cf277cf759817d8c02204775e8a24d38b1d86eab70e5fb63c27d54ffeacf54ca522e7243f595c0fdec85012102dacc58d1a11845a8fed5864d5bdfad712cd4b4c966408f37e8eacf7549d2f697ffffffff13d3b6060eb933f6a88667daae739a601df7f8bce8ccfa5301434112a07c3bcd010000006b48304502210084ff03aa5e8db64d3b9eab7c9b9e7bd0114d06716ed14df38b238eeea964278802200a39d0c8b29097f2a66ea25f36cd2742f599af625654a228be7e4c75002d1a030121021d0f37f82da28ff2ba40b760d4b4cbca45a968d366c83bc0f2213185e2d55d73ffffffff149f55a4ae1a0453071352b7f9aecca3b90b127efc863598f79e00720a2ab3f0010000006a473044022027b5b19bd4e992e199504c1a1f7859c54674cf3a24ac9b90e4ad44ef32c1e18802203b8ad913b942f01471a1ac9804eca68cc0f93b33c9ed54463591eb6ed5c2c51b012103e3b8455b4bacb1e2ee9aed6ac46496c237ef9f4c7579c96c2e126ec642a2990affffffff02ca020000000000001976a9147d2f9f8e4e2fcaf3cb8d1c8661fff7668628363f88ac3c3c1e000000000017a914fd015a11449e275edf0d624adee86bd221954d348700000000", "vin": [{"sequence": 4294967295, "scriptSig": {"hex": "483045022100a7e4d3d5fed3b21dbf7b0cd3036a4582983e7f3bb3909d45cf277cf759817d8c02204775e8a24d38b1d86eab70e5fb63c27d54ffeacf54ca522e7243f595c0fdec85012102dacc58d1a11845a8fed5864d5bdfad712cd4b4c966408f37e8eacf7549d2f697", "asm": "3045022100a7e4d3d5fed3b21dbf7b0cd3036a4582983e7f3bb3909d45cf277cf759817d8c02204775e8a24d38b1d86eab70e5fb63c27d54ffeacf54ca522e7243f595c0fdec85[ALL] 02dacc58d1a11845a8fed5864d5bdfad712cd4b4c966408f37e8eacf7549d2f697"}, "vout": 234, "txid": "c023c7f939fd179677e304cffc5682e0895cbd7fb59d97982c5060b52c07aafa"}, {"sequence": 4294967295, "scriptSig": {"hex": "48304502210084ff03aa5e8db64d3b9eab7c9b9e7bd0114d06716ed14df38b238eeea964278802200a39d0c8b29097f2a66ea25f36cd2742f599af625654a228be7e4c75002d1a030121021d0f37f82da28ff2ba40b760d4b4cbca45a968d366c83bc0f2213185e2d55d73", "asm": "304502210084ff03aa5e8db64d3b9eab7c9b9e7bd0114d06716ed14df38b238eeea964278802200a39d0c8b29097f2a66ea25f36cd2742f599af625654a228be7e4c75002d1a03[ALL] 021d0f37f82da28ff2ba40b760d4b4cbca45a968d366c83bc0f2213185e2d55d73"}, "vout": 1, "txid": "cd3b7ca01241430153facce8bcf8f71d609a73aeda6786a8f633b90e06b6d313"}, {"sequence": 4294967295, "scriptSig": {"hex": "473044022027b5b19bd4e992e199504c1a1f7859c54674cf3a24ac9b90e4ad44ef32c1e18802203b8ad913b942f01471a1ac9804eca68cc0f93b33c9ed54463591eb6ed5c2c51b012103e3b8455b4bacb1e2ee9aed6ac46496c237ef9f4c7579c96c2e126ec642a2990a", "asm": "3044022027b5b19bd4e992e199504c1a1f7859c54674cf3a24ac9b90e4ad44ef32c1e18802203b8ad913b942f01471a1ac9804eca68cc0f93b33c9ed54463591eb6ed5c2c51b[ALL] 03e3b8455b4bacb1e2ee9aed6ac46496c237ef9f4c7579c96c2e126ec642a2990a"}, "vout": 1, "txid": "f0b32a0a72009ef7983586fc7e120bb9a3ccaef9b752130753041aaea4559f14"}], "txid": "02cc8fe12fd22252e281e0c31762e81b39f5e9543c60016e78930542b0b2568f", "blocktime": 1537869901, "version": 1, "confirmations": 11523, "time": 1537869901, "locktime": 0, "vsize": 519, "size": 519}