{"hash": "02d5614652562178ac93e9e18f274f97e18c1e8bbbb4ff88815f7d73f97fdcb2", "blockhash": "0000000000000000000baef3f32e3676a92c3b2e5da21b426e4f302fc371ce76", "vout": [{"scriptPubKey": {"type": "nulldata", "hex": "6a4c500000781c00018f0bdad15bc188214cd37c29019d6ddc0f1b8ff117702940d64fa54d8eb2f97d5819c6de140ae1275a42503c72e75baa1ce40614542c9a77fe351d100759d4ba30d2c37bb011d97e02cf", "asm": "OP_RETURN 0000781c00018f0bdad15bc188214cd37c29019d6ddc0f1b8ff117702940d64fa54d8eb2f97d5819c6de140ae1275a42503c72e75baa1ce40614542c9a77fe351d100759d4ba30d2c37bb011d97e02cf"}, "value": 0.0, "n": 0}, {"scriptPubKey": {"reqSigs": 1, "hex": "76a9140075c098efdeeb8e29f8365f920994c729153a6e88ac", "addresses": ["113S4aPEJD9DGsuJPdPi7UfpuzQGxXAWm2"], "asm": "OP_DUP OP_HASH160 0075c098efdeeb8e29f8365f920994c729153a6e OP_EQUALVERIFY OP_CHECKSIG", "type": "pubkeyhash"}, "value": 0.00628206, "n": 1}], "hex": "0100000001945d58ac28c47b2e4a71c5126521cb92eec64351ebc04aa9908467b2cb8c1ab9010000006a47304402206bcd04874785a53874c72dcda8542deb3661d674dbcf9ef9b72abc1ee367eee0022000e2786112eecdd467b73e07822a4ad5cd50dba5052a49d9cf96b097c50e677d012103f359d35fe5a9073148344438dffdb19076000ab1f7617893448a48e426bdd5c9ffffffff020000000000000000536a4c500000781c00018f0bdad15bc188214cd37c29019d6ddc0f1b8ff117702940d64fa54d8eb2f97d5819c6de140ae1275a42503c72e75baa1ce40614542c9a77fe351d100759d4ba30d2c37bb011d97e02cfee950900000000001976a9140075c098efdeeb8e29f8365f920994c729153a6e88ac00000000", "vin": [{"sequence": 4294967295, "scriptSig": {"hex": "47304402206bcd04874785a53874c72dcda8542deb3661d674dbcf9ef9b72abc1ee367eee0022000e2786112eecdd467b73e07822a4ad5cd50dba5052a49d9cf96b097c50e677d012103f359d35fe5a9073148344438dffdb19076000ab1f7617893448a48e426bdd5c9", "asm": "304402206bcd04874785a53874c72dcda8542deb3661d674dbcf9ef9b72abc1ee367eee0022000e2786112eecdd467b73e07822a4ad5cd50dba5052a49d9cf96b097c50e677d[ALL] 03f359d35fe5a9073148344438dffdb19076000ab1f7617893448a48e426bdd5c9"}, "vout": 1, "txid": "b91a8ccbb2678490a94ac0eb5143c6ee92cb216512c5714a2e7bc428ac585d94"}], "txid": "02d5614652562178ac93e9e18f274f97e18c1e8bbbb4ff88815f7d73f97fdcb2", "blocktime": 1537876114, "version": 1, "confirmations": 11460, "time": 1537876114, "locktime": 0, "vsize": 283, "size": 283}