{"hash": "02da1e4fcb0134fc7d1ca4456628e13a9214118a52af86036909a990e3037acd", "blockhash": "0000000000000000001f76057863aec43deb6fa401d9628bb513d65a8098bfab", "vout": [{"scriptPubKey": {"reqSigs": 1, "hex": "a91456c26dc08750bf5c704e97f1b6861f5c178c336587", "addresses": ["39bkxBhvvMTPJMvYdKdu3EDEwVccZ48GXE"], "asm": "OP_HASH160 56c26dc08750bf5c704e97f1b6861f5c178c3365 OP_EQUAL", "type": "scripthash"}, "value": 0.00646476, "n": 0}], "hex": "01000000019a7c38167860407eecc11275a2064813bc9d7d9563b9c074b4645f150afff33d010000006a4730440220795002144c46c8ad2703a5fa2129d269bad7a328aa85eb95ea25f92213e5ed0902207ac38e38add47bfca269d01c4973d3e4eac203bba9a5fe05e75067d5e3cd0eef0121020b15a762b06f3223075525e1b7f3f9cf0c9b2bf9bc5de1be7b12b7b06d3278b1ffffffff014cdd09000000000017a91456c26dc08750bf5c704e97f1b6861f5c178c33658700000000", "vin": [{"sequence": 4294967295, "scriptSig": {"hex": "4730440220795002144c46c8ad2703a5fa2129d269bad7a328aa85eb95ea25f92213e5ed0902207ac38e38add47bfca269d01c4973d3e4eac203bba9a5fe05e75067d5e3cd0eef0121020b15a762b06f3223075525e1b7f3f9cf0c9b2bf9bc5de1be7b12b7b06d3278b1", "asm": "30440220795002144c46c8ad2703a5fa2129d269bad7a328aa85eb95ea25f92213e5ed0902207ac38e38add47bfca269d01c4973d3e4eac203bba9a5fe05e75067d5e3cd0eef[ALL] 020b15a762b06f3223075525e1b7f3f9cf0c9b2bf9bc5de1be7b12b7b06d3278b1"}, "vout": 1, "txid": "3df3ff0a155f64b474c0b963957d9dbc134806a27512c1ec7e40607816387c9a"}], "txid": "02da1e4fcb0134fc7d1ca4456628e13a9214118a52af86036909a990e3037acd", "blocktime": 1537873891, "version": 1, "confirmations": 11476, "time": 1537873891, "locktime": 0, "vsize": 189, "size": 189}