{"hash": "e85572937967b37e37c5d9d57a2a317925b6f7e7f8a0a2c7d8038508ec4072db", "blockhash": "0000000000000000000baef3f32e3676a92c3b2e5da21b426e4f302fc371ce76", "vout": [{"scriptPubKey": {"reqSigs": 1, "hex": "a9142e0bb34680637fb72eacb9e5355c9da325896b8387", "addresses": ["35tV2KSFeRFsYty2m8GqHvaCziUMJTDUUb"], "asm": "OP_HASH160 2e0bb34680637fb72eacb9e5355c9da325896b83 OP_EQUAL", "type": "scripthash"}, "value": 1.0549706, "n": 0}, {"scriptPubKey": {"reqSigs": 1, "hex": "a914c6f5ab38817ede60c2399f5740322d4b05f3671087", "addresses": ["3Kq21tuidqNX12oyUoRj7jPDGgarT3N7Vh"], "asm": "OP_HASH160 c6f5ab38817ede60c2399f5740322d4b05f36710 OP_EQUAL", "type": "scripthash"}, "value": 0.00552, "n": 1}], "hex": "02000000000101cb39edf98f809bfe13ba25050b3bbf8ff777ca2347a26cf8ab60f68923d3515801000000171600141c1674985f7ed9095ec9b6db351c857c264cbf58ffffffff02e4c149060000000017a9142e0bb34680637fb72eacb9e5355c9da325896b8387406c08000000000017a914c6f5ab38817ede60c2399f5740322d4b05f36710870247304402203b6b6a8f937d8b56c45300cc912244deb00d5a776d35d1c409c6954fd9c7ec9f0220569bb66d247c4f7f6f0e62a1ab904ab2f7cad3c475d86f86cccec6a337a35583012102fa679df0d5e0d08150ef0d666f20ef39cfd04c2188e8caa44006046a26f08d0000000000", "vin": [{"txinwitness": ["304402203b6b6a8f937d8b56c45300cc912244deb00d5a776d35d1c409c6954fd9c7ec9f0220569bb66d247c4f7f6f0e62a1ab904ab2f7cad3c475d86f86cccec6a337a3558301", "02fa679df0d5e0d08150ef0d666f20ef39cfd04c2188e8caa44006046a26f08d00"], "sequence": 4294967295, "scriptSig": {"hex": "1600141c1674985f7ed9095ec9b6db351c857c264cbf58", "asm": "00141c1674985f7ed9095ec9b6db351c857c264cbf58"}, "vout": 1, "txid": "5851d32389f660abf86ca24723ca77f78fbf3b0b0525ba13fe9b808ff9ed39cb"}], "txid": "02db483a7c6ea4b06de6adcd9aeb4854416610131a9a448bf62ad5fe599a54bf", "blocktime": 1537876114, "version": 2, "confirmations": 11460, "time": 1537876114, "locktime": 0, "vsize": 166, "size": 247}