{"hash": "02dc7ddb51795d28f3accbc6e87e7b6722476846a408ab252a38c48d38557c39", "blockhash": "0000000000000000001cda96e906b7601b7a6fb1a3b62bca570a9e5d8f4b3de1", "vout": [{"scriptPubKey": {"reqSigs": 1, "hex": "76a914492035cc2290195aafbe0dbd703df3e0c0c77a8e88ac", "addresses": ["17fev1Doiz926DeAg93T3164xLHg3xSKRw"], "asm": "OP_DUP OP_HASH160 492035cc2290195aafbe0dbd703df3e0c0c77a8e OP_EQUALVERIFY OP_CHECKSIG", "type": "pubkeyhash"}, "value": 5.317e-05, "n": 0}, {"scriptPubKey": {"reqSigs": 1, "hex": "a914f5ef94303727b9c4629a447e988801e8e72e5cd787", "addresses": ["3Q7QUmoZEFN6kqBrpDiFHscLf1gifnyjJh"], "asm": "OP_HASH160 f5ef94303727b9c4629a447e988801e8e72e5cd7 OP_EQUAL", "type": "scripthash"}, "value": 0.046, "n": 1}], "hex": "0100000002b139fd4b4848a16b1ff29add6b06f57665a6ab372b2c480a58c500b6d6335eb3000000006b4830450221008ce6308114ca8e14211a67969b9e1b0c84b21e1b208a23cf0cbf520e7fb46ec902203b85a2c846870b4635644b4201f50c30f3d1f17c78e8ea510dc0710d5a8ce31b012102941a69fca135b30064f11bb59f68d6c7a8de44bf0012b9bb23ad7ca9a52aa4fafdffffff117f6678c37d286c152990b8a55274b460986469a6805642007bb1a277f706c0010000006b4830450221009eba496b66108be21548ed4caa255874664cea189997fcb8a557050bdf495303022045e87ddb73fe0476a8e9b79e6df1466af732c3e160cffff05ed9293bec1501dc0121032d2f9043f7d897343aa67fe5b6f2184be0b5e1f67cb9de1678570e697636c4adfdffffff02c5140000000000001976a914492035cc2290195aafbe0dbd703df3e0c0c77a8e88acc03046000000000017a914f5ef94303727b9c4629a447e988801e8e72e5cd78713490800", "vin": [{"sequence": 4294967293, "scriptSig": {"hex": "4830450221008ce6308114ca8e14211a67969b9e1b0c84b21e1b208a23cf0cbf520e7fb46ec902203b85a2c846870b4635644b4201f50c30f3d1f17c78e8ea510dc0710d5a8ce31b012102941a69fca135b30064f11bb59f68d6c7a8de44bf0012b9bb23ad7ca9a52aa4fa", "asm": "30450221008ce6308114ca8e14211a67969b9e1b0c84b21e1b208a23cf0cbf520e7fb46ec902203b85a2c846870b4635644b4201f50c30f3d1f17c78e8ea510dc0710d5a8ce31b[ALL] 02941a69fca135b30064f11bb59f68d6c7a8de44bf0012b9bb23ad7ca9a52aa4fa"}, "vout": 0, "txid": "b35e33d6b600c5580a482c2b37aba66576f5066bdd9af21f6ba148484bfd39b1"}, {"sequence": 4294967293, "scriptSig": {"hex": "4830450221009eba496b66108be21548ed4caa255874664cea189997fcb8a557050bdf495303022045e87ddb73fe0476a8e9b79e6df1466af732c3e160cffff05ed9293bec1501dc0121032d2f9043f7d897343aa67fe5b6f2184be0b5e1f67cb9de1678570e697636c4ad", "asm": "30450221009eba496b66108be21548ed4caa255874664cea189997fcb8a557050bdf495303022045e87ddb73fe0476a8e9b79e6df1466af732c3e160cffff05ed9293bec1501dc[ALL] 032d2f9043f7d897343aa67fe5b6f2184be0b5e1f67cb9de1678570e697636c4ad"}, "vout": 1, "txid": "c006f777a2b17b00425680a669649860b47452a5b89029156c287dc378667f11"}], "txid": "02dc7ddb51795d28f3accbc6e87e7b6722476846a408ab252a38c48d38557c39", "blocktime": 1537873282, "version": 1, "confirmations": 11481, "time": 1537873282, "locktime": 542995, "vsize": 372, "size": 372}