{"hash": "fb75ad468b82fc73d26e71795af16653e401be81c031cbe49867676d4d8c0863", "blockhash": "00000000000000000017f5eb5941039fbcee6240d03bc1f2f8e35350df66a1d8", "vout": [{"scriptPubKey": {"reqSigs": 1, "hex": "76a914eb3257daa592b3f5165eb06509ca4f9f3829e8ae88ac", "addresses": ["1NSc6zAdG2NGbjPLQwAjAuqjHSoq5KECT7"], "asm": "OP_DUP OP_HASH160 eb3257daa592b3f5165eb06509ca4f9f3829e8ae OP_EQUALVERIFY OP_CHECKSIG", "type": "pubkeyhash"}, "value": 1.99, "n": 0}, {"scriptPubKey": {"reqSigs": 1, "hex": "a914d782f6e7a476ce5fa7c0c6cb51f89076dce55e0b87", "addresses": ["3MLY6MjiCcuiiqaRpHuYsAtixpJqSJVGvj"], "asm": "OP_HASH160 d782f6e7a476ce5fa7c0c6cb51f89076dce55e0b OP_EQUAL", "type": "scripthash"}, "value": 0.023046, "n": 1}], "hex": "020000000001023c992f49fcce0e2c16d03ece38381a2b1ee6751f903e2e97d5dee226b4db37aa010000006a4730440220537ec091b055dc24aa29870b52298818a2a17af338dd90d14db025cae58b24ba022031ce91c9afaebb7f1d0c321df61cf2bf6c2bf7648e806555ea648bec901a781d0121030ccb5a35c5245927d49f69570cb664d5e5fea11f255ef4ca15eb10a585fbeebffeffffffdfb2d1c3d8236b2e786fec3d1f5443fbffa802ee9342de7e662dbe9a9a18c9d9010000001716001419aea8e8a785d0fb8be63b4911d914545098c919feffffff02c07fdc0b000000001976a914eb3257daa592b3f5165eb06509ca4f9f3829e8ae88ac582a23000000000017a914d782f6e7a476ce5fa7c0c6cb51f89076dce55e0b8700024730440220333d6846bfc284637b08f0e224394f85c8c52b6ea4cf590a4299e3a58f4378e902206e06c6ed5744fb9fc4c28e9753f1a73997dff98bbdae213055b6a102d1ed753701210377393a85ad7aee8d49c919e52d55132f238e32a7d9deb913ef44211b5a4c82fa14490800", "vin": [{"sequence": 4294967294, "scriptSig": {"hex": "4730440220537ec091b055dc24aa29870b52298818a2a17af338dd90d14db025cae58b24ba022031ce91c9afaebb7f1d0c321df61cf2bf6c2bf7648e806555ea648bec901a781d0121030ccb5a35c5245927d49f69570cb664d5e5fea11f255ef4ca15eb10a585fbeebf", "asm": "30440220537ec091b055dc24aa29870b52298818a2a17af338dd90d14db025cae58b24ba022031ce91c9afaebb7f1d0c321df61cf2bf6c2bf7648e806555ea648bec901a781d[ALL] 030ccb5a35c5245927d49f69570cb664d5e5fea11f255ef4ca15eb10a585fbeebf"}, "vout": 1, "txid": "aa37dbb426e2ded5972e3e901f75e61e2b1a3838ce3ed0162c0ecefc492f993c"}, {"txinwitness": ["30440220333d6846bfc284637b08f0e224394f85c8c52b6ea4cf590a4299e3a58f4378e902206e06c6ed5744fb9fc4c28e9753f1a73997dff98bbdae213055b6a102d1ed753701", "0377393a85ad7aee8d49c919e52d55132f238e32a7d9deb913ef44211b5a4c82fa"], "sequence": 4294967294, "scriptSig": {"hex": "16001419aea8e8a785d0fb8be63b4911d914545098c919", "asm": "001419aea8e8a785d0fb8be63b4911d914545098c919"}, "vout": 1, "txid": "d9c9189a9abe2d667ede4293ee02a8fffb43541f3dec6f782e6b23d8c3d1b2df"}], "txid": "02e19a626424965d649ff088a5a02bdb8a9a3d8c7a479897359499f5a9f30a62", "blocktime": 1537874412, "version": 2, "confirmations": 11466, "time": 1537874412, "locktime": 542996, "vsize": 315, "size": 397}