{"hash": "62fa871f7908c12845af0ec028c4d62d798858b1940bf65c7904c1db19a1d3ec", "blockhash": "0000000000000000000dcc0f55137456b1a82d3642486a52398922ac4d620174", "vout": [{"scriptPubKey": {"reqSigs": 1, "hex": "76a9144ba8ea8c45dfe152864562a17ac1ec7e5446e6d688ac", "addresses": ["17u42tfhNukJGGdczBfGSdJjHL7v5v1yWQ"], "asm": "OP_DUP OP_HASH160 4ba8ea8c45dfe152864562a17ac1ec7e5446e6d6 OP_EQUALVERIFY OP_CHECKSIG", "type": "pubkeyhash"}, "value": 0.07833636, "n": 0}, {"scriptPubKey": {"reqSigs": 1, "hex": "00141dc26ed77eacaf349af0ff8e3e4b1d76fcf7a783", "addresses": ["bc1qrhpxa4m74jhnfxhsl78rujcawm700furd7p9u6"], "asm": "0 1dc26ed77eacaf349af0ff8e3e4b1d76fcf7a783", "type": "witness_v0_keyhash"}, "value": 8.22777128, "n": 1}], "hex": "02000000000101db63ddb4a8bddc20c75aa67eb1c42452e5f605dffb1e620374872c86ef5856760100000000ffffffff0224887700000000001976a9144ba8ea8c45dfe152864562a17ac1ec7e5446e6d688ac28950a31000000001600141dc26ed77eacaf349af0ff8e3e4b1d76fcf7a7830247304402202a553d63223f7a4ea977744664ff6f12880531e8e40bfe73b72b18ca4a7b48470220537911f337ec7b8267568a0118e8e92a71e11615f233ff342b69b7ee12736644012102bdd118a5b01d419fa3f6dfaa4cc28092bd47d57c712e3acfbb0cdc34ca773eb900000000", "vin": [{"txinwitness": ["304402202a553d63223f7a4ea977744664ff6f12880531e8e40bfe73b72b18ca4a7b48470220537911f337ec7b8267568a0118e8e92a71e11615f233ff342b69b7ee1273664401", "02bdd118a5b01d419fa3f6dfaa4cc28092bd47d57c712e3acfbb0cdc34ca773eb9"], "sequence": 4294967295, "scriptSig": {"hex": "", "asm": ""}, "vout": 1, "txid": "765658ef862c877403621efbdf05f6e55224c4b17ea65ac720dcbda8b4dd63db"}], "txid": "02e486b28b88c6d2ab660975a18b8e3bce5a5b8bf51d7facba3deba97ff6f5c6", "blocktime": 1537870268, "version": 2, "confirmations": 11516, "time": 1537870268, "locktime": 0, "vsize": 144, "size": 225}