{"hash": "b71c94358e9a2c7fb86f34bd8b887eb9e9a160b058b399a228eb1a4f212076d8", "blockhash": "00000000000000000017f5eb5941039fbcee6240d03bc1f2f8e35350df66a1d8", "vout": [{"scriptPubKey": {"reqSigs": 1, "hex": "a914e8db75c900cf08f06518e96d167331f2a4abfb3387", "addresses": ["3NvFbQMAkkqEFj4i1sYPPLkSWzxTFUchjA"], "asm": "OP_HASH160 e8db75c900cf08f06518e96d167331f2a4abfb33 OP_EQUAL", "type": "scripthash"}, "value": 0.04999574, "n": 0}], "hex": "01000000000101ed3c314b4a8a89f7dba083860bb06603db68ce39559c0fb3d2b615ef5c3315c20100000017160014e7be806aa6e01fc1d32784d77254565058782bebffffffff0196494c000000000017a914e8db75c900cf08f06518e96d167331f2a4abfb338702473044022028653acef3d24c97453c5c012d78ae5f78360ec2b69622c8a7616b5a81c22e8302205e2904435e2a05f34d05699acde7d25216dd4e1dfd190ac90877828679c555d601210258062c32f93738753c2e0e25ede6d3dd47660045f260e23d17db477f2f7c714f00000000", "vin": [{"txinwitness": ["3044022028653acef3d24c97453c5c012d78ae5f78360ec2b69622c8a7616b5a81c22e8302205e2904435e2a05f34d05699acde7d25216dd4e1dfd190ac90877828679c555d601", "0258062c32f93738753c2e0e25ede6d3dd47660045f260e23d17db477f2f7c714f"], "sequence": 4294967295, "scriptSig": {"hex": "160014e7be806aa6e01fc1d32784d77254565058782beb", "asm": "0014e7be806aa6e01fc1d32784d77254565058782beb"}, "vout": 1, "txid": "c215335cef15b6d2b30f9c5539ce68db0366b00b8683a0dbf7898a4a4b313ced"}], "txid": "02e636f1d5727f3a33af604e8f9f85ca52ef1f1d3b8c595de5afa81502508bff", "blocktime": 1537874412, "version": 1, "confirmations": 11467, "time": 1537874412, "locktime": 0, "vsize": 134, "size": 215}