{"hash": "02ea6f23b146b32564656211c6de8962220b690a732987b12c8b37d878ef7997", "blockhash": "00000000000000000018f53835495a110e01622372bf6ae95dc86f2b0ab887b0", "vout": [{"scriptPubKey": {"reqSigs": 1, "hex": "76a9140243958398cdb01dede5dcee5b6842c9d6ee83f488ac", "addresses": ["1CyKCtjB3qYqBRSbLfW57kHGQPbxJbCme"], "asm": "OP_DUP OP_HASH160 0243958398cdb01dede5dcee5b6842c9d6ee83f4 OP_EQUALVERIFY OP_CHECKSIG", "type": "pubkeyhash"}, "value": 0.00996183, "n": 0}, {"scriptPubKey": {"reqSigs": 1, "hex": "76a914ba6b24edb59c163ff178d37f2ceb295b83fd636e88ac", "addresses": ["1Hzh3CEJT8ZA1Yw5JdpyoDdnLmyJomBhNf"], "asm": "OP_DUP OP_HASH160 ba6b24edb59c163ff178d37f2ceb295b83fd636e OP_EQUALVERIFY OP_CHECKSIG", "type": "pubkeyhash"}, "value": 0.05486442, "n": 1}], "hex": "010000000179832f7f663104d018b90f3b9b305b20fabf848edcc73cadf0ca9a042b562549010000006a473044022006e739ae188ecd3c9468bcad56961ee3eb86050cf1b4339d4a1d4af1d7c45379022019c6c877f9e826be2bab129d580a975cd0f3bb14d45ea7f9bc5d71ff34676c530121028c9f75843c7b1c254e3e100c3448b9154a2161a1e2945e782d68b67535692a96ffffffff0257330f00000000001976a9140243958398cdb01dede5dcee5b6842c9d6ee83f488ac6ab75300000000001976a914ba6b24edb59c163ff178d37f2ceb295b83fd636e88ac00000000", "vin": [{"sequence": 4294967295, "scriptSig": {"hex": "473044022006e739ae188ecd3c9468bcad56961ee3eb86050cf1b4339d4a1d4af1d7c45379022019c6c877f9e826be2bab129d580a975cd0f3bb14d45ea7f9bc5d71ff34676c530121028c9f75843c7b1c254e3e100c3448b9154a2161a1e2945e782d68b67535692a96", "asm": "3044022006e739ae188ecd3c9468bcad56961ee3eb86050cf1b4339d4a1d4af1d7c45379022019c6c877f9e826be2bab129d580a975cd0f3bb14d45ea7f9bc5d71ff34676c53[ALL] 028c9f75843c7b1c254e3e100c3448b9154a2161a1e2945e782d68b67535692a96"}, "vout": 1, "txid": "4925562b049acaf0ad3cc7dc8e84bffa205b309b3b0fb918d00431667f2f8379"}], "txid": "02ea6f23b146b32564656211c6de8962220b690a732987b12c8b37d878ef7997", "blocktime": 1537870928, "version": 1, "confirmations": 11512, "time": 1537870928, "locktime": 0, "vsize": 225, "size": 225}