{"hash": "02ee452a380af0b26d78e7e8c36ae32223b28dc0723f522efeef15ac3bf7a1cc", "blockhash": "0000000000000000000dcc0f55137456b1a82d3642486a52398922ac4d620174", "vout": [{"scriptPubKey": {"type": "nulldata", "hex": "6a4c500000776c0001ab806348ac0458a304e2218a86aeaeacb577c031fc3a016b46dc7dc7d096c53662e1a68b38bd2bb20a9e62968ad45baa0878061399fb5ed936ab4bbf23acfcfaac8058b692fe6808c31d", "asm": "OP_RETURN 0000776c0001ab806348ac0458a304e2218a86aeaeacb577c031fc3a016b46dc7dc7d096c53662e1a68b38bd2bb20a9e62968ad45baa0878061399fb5ed936ab4bbf23acfcfaac8058b692fe6808c31d"}, "value": 0.0, "n": 0}, {"scriptPubKey": {"reqSigs": 1, "hex": "76a91441cce4e2210289f00e896b0d780895ce09c7ff4c88ac", "addresses": ["16zvNm219sroQ4mWGrE91u6orK6CUi7ZKi"], "asm": "OP_DUP OP_HASH160 41cce4e2210289f00e896b0d780895ce09c7ff4c OP_EQUALVERIFY OP_CHECKSIG", "type": "pubkeyhash"}, "value": 0.00030575, "n": 1}], "hex": "0100000001f4e8f1fd60d8a6930abdcb869567507d5340f60cea07e5c6180300af9659d3cf01000000694630430220031a80d1cccc3c661f0ce0eae060b1481aae306174de42f1b7a353d4d1c2a8dc021f492d8611c241e718e0bf57509d92b087b83370dc7cda4b666c598cec221894012103a4858ec1a8af24c70a7f2e947d5ca064531ed633ce993d7a628ceedf875c3900ffffffff020000000000000000536a4c500000776c0001ab806348ac0458a304e2218a86aeaeacb577c031fc3a016b46dc7dc7d096c53662e1a68b38bd2bb20a9e62968ad45baa0878061399fb5ed936ab4bbf23acfcfaac8058b692fe6808c31d6f770000000000001976a91441cce4e2210289f00e896b0d780895ce09c7ff4c88ac00000000", "vin": [{"sequence": 4294967295, "scriptSig": {"hex": "4630430220031a80d1cccc3c661f0ce0eae060b1481aae306174de42f1b7a353d4d1c2a8dc021f492d8611c241e718e0bf57509d92b087b83370dc7cda4b666c598cec221894012103a4858ec1a8af24c70a7f2e947d5ca064531ed633ce993d7a628ceedf875c3900", "asm": "30430220031a80d1cccc3c661f0ce0eae060b1481aae306174de42f1b7a353d4d1c2a8dc021f492d8611c241e718e0bf57509d92b087b83370dc7cda4b666c598cec221894[ALL] 03a4858ec1a8af24c70a7f2e947d5ca064531ed633ce993d7a628ceedf875c3900"}, "vout": 1, "txid": "cfd35996af000318c6e507ea0cf640537d50679586cbbd0a93a6d860fdf1e8f4"}], "txid": "02ee452a380af0b26d78e7e8c36ae32223b28dc0723f522efeef15ac3bf7a1cc", "blocktime": 1537870268, "version": 1, "confirmations": 11518, "time": 1537870268, "locktime": 0, "vsize": 282, "size": 282}