{"hash": "25e60ff6d997933cd1bc4bb7cf0f8cd1a8fcbcf45d38ac0f66fd15cec20cd650", "blockhash": "0000000000000000000e13cef7c366c0283d82e591d1acd082e914b08063cdf1", "vout": [{"scriptPubKey": {"reqSigs": 1, "hex": "76a914c8decfee86164d66a9ffe1ea20ae71446b5d014088ac", "addresses": ["1KK74ddEaUhqzL8fFNqWGJrCYuZMqAkfgd"], "asm": "OP_DUP OP_HASH160 c8decfee86164d66a9ffe1ea20ae71446b5d0140 OP_EQUALVERIFY OP_CHECKSIG", "type": "pubkeyhash"}, "value": 0.00242934, "n": 0}, {"scriptPubKey": {"reqSigs": 1, "hex": "a914f5342287aaa57f5c05756dbd5ef14091cc70030f87", "addresses": ["3Q3XvwKWsx3ocmCXheK6pAo5ieooFx75hh"], "asm": "OP_HASH160 f5342287aaa57f5c05756dbd5ef14091cc70030f OP_EQUAL", "type": "scripthash"}, "value": 0.1102277, "n": 1}], "hex": "0100000000010110284c2ae20ebee2912ee68d28c9467f3f913a6e1c22658ca609d2260c2e561201000000232200204fd7968ffe15cb453352a1e9ee2915eff8b6d6252d5a351f9092b82ca10eb12cffffffff02f6b40300000000001976a914c8decfee86164d66a9ffe1ea20ae71446b5d014088acb231a8000000000017a914f5342287aaa57f5c05756dbd5ef14091cc70030f870400473044022079edf372bc366eb9a0b0d472bfeebde39ffd0d23f60e34b1395b290e96a823c9022052f1057229da279e6cd6f99e55a0abd5572304491bb114dc337f3a686a5e780001483045022100f4a272c67b6fb73325440ffe98a940fc9734ea415f68e6ffad047ba81a8daf6902203e8102f41f704f849b79e57957853ed4de23669c082484b70d245479c3433ebe0147522103b70e79262cbb7310fe069dea7c473b53276b75c67fb841ff66279f152a3fe0172103871fc2ca08e6950b38867e8e6a0e94ee625223d3aa0df5c65f414c6d784467e252ae00000000", "vin": [{"txinwitness": ["", "3044022079edf372bc366eb9a0b0d472bfeebde39ffd0d23f60e34b1395b290e96a823c9022052f1057229da279e6cd6f99e55a0abd5572304491bb114dc337f3a686a5e780001", "3045022100f4a272c67b6fb73325440ffe98a940fc9734ea415f68e6ffad047ba81a8daf6902203e8102f41f704f849b79e57957853ed4de23669c082484b70d245479c3433ebe01", "522103b70e79262cbb7310fe069dea7c473b53276b75c67fb841ff66279f152a3fe0172103871fc2ca08e6950b38867e8e6a0e94ee625223d3aa0df5c65f414c6d784467e252ae"], "sequence": 4294967295, "scriptSig": {"hex": "2200204fd7968ffe15cb453352a1e9ee2915eff8b6d6252d5a351f9092b82ca10eb12c", "asm": "00204fd7968ffe15cb453352a1e9ee2915eff8b6d6252d5a351f9092b82ca10eb12c"}, "vout": 1, "txid": "12562e0c26d209a68c65221c6e3a913f7f46c9288de62e91e2be0ee22a4c2810"}], "txid": "02f326cf9f9ef668dc38127588048af0a99c6be081b8d1ba04790a4b4c2f78ed", "blocktime": 1537871767, "version": 1, "confirmations": 11495, "time": 1537871767, "locktime": 0, "vsize": 208, "size": 373}