{"hash": "8ccdea761d95da84c6d9dfee2739bba79688df9ed4e0c146e1b7ec5f4e381a47", "blockhash": "0000000000000000001e0dab787dd257d1dbfcb92a98c2207d5e1078be1f4165", "vout": [{"scriptPubKey": {"reqSigs": 1, "hex": "a914b6f08a8fa51cd0a63b3eb0c87383a0d8dbbfdfaf87", "addresses": ["3JNK4ZDTGSxbfvxVLxeTHadVvUvUZRWM3J"], "asm": "OP_HASH160 b6f08a8fa51cd0a63b3eb0c87383a0d8dbbfdfaf OP_EQUAL", "type": "scripthash"}, "value": 0.017435, "n": 0}, {"scriptPubKey": {"reqSigs": 1, "hex": "a914cfb0a40e9aa094eb2ca55ba6e7dbd1ff7721174e87", "addresses": ["3LdBQUSXeAhejhUZrTU3uiTZ8ZBp6iuKMx"], "asm": "OP_HASH160 cfb0a40e9aa094eb2ca55ba6e7dbd1ff7721174e OP_EQUAL", "type": "scripthash"}, "value": 0.01011149, "n": 1}], "hex": "020000000001023728ec93aee3a09c22bfaeceadd50018e089255c0952b61be37267720b300dd30000000017160014137861a4ad3011053dd4dcbd5176128b297e1bb9fdffffffc8d6f8496c17a89e4ac766348358b8f23a952094b8a85129faebf9c679ccdc850000000017160014285a816515bf470ebe16b41c79e582d033e6a30dfdffffff028c9a1a000000000017a914b6f08a8fa51cd0a63b3eb0c87383a0d8dbbfdfaf87cd6d0f000000000017a914cfb0a40e9aa094eb2ca55ba6e7dbd1ff7721174e87024830450221009a8ff7c752ab64b469797dad1a826c32febcadeafb8ab7ce8ee24cb044e8cd0a022032ab0a82a5e6c150081d55a5a36e6edfa85aeb7dbe1ea163a06e20b4392d94a501210258ac7e377bfd6cb2dda3c1c7b34e6556a5befd719cb803ea2f56d2ac12b2fb90024830450221008ba1d210ba0f37ebc413ececaed9803e83eee21d05152a143a1a04c75aa69b9402201b17e78f29c11cb82ee8173555d3e02fecad94c96615b7d02e5be2cc7d198567012103688626db58516a67022f27e0d5f4b1c1de5077647ca3869a097b9ca9aaffffd400000000", "vin": [{"txinwitness": ["30450221009a8ff7c752ab64b469797dad1a826c32febcadeafb8ab7ce8ee24cb044e8cd0a022032ab0a82a5e6c150081d55a5a36e6edfa85aeb7dbe1ea163a06e20b4392d94a501", "0258ac7e377bfd6cb2dda3c1c7b34e6556a5befd719cb803ea2f56d2ac12b2fb90"], "sequence": 4294967293, "scriptSig": {"hex": "160014137861a4ad3011053dd4dcbd5176128b297e1bb9", "asm": "0014137861a4ad3011053dd4dcbd5176128b297e1bb9"}, "vout": 0, "txid": "d30d300b726772e31bb652095c2589e01800d5adceaebf229ca0e3ae93ec2837"}, {"txinwitness": ["30450221008ba1d210ba0f37ebc413ececaed9803e83eee21d05152a143a1a04c75aa69b9402201b17e78f29c11cb82ee8173555d3e02fecad94c96615b7d02e5be2cc7d19856701", "03688626db58516a67022f27e0d5f4b1c1de5077647ca3869a097b9ca9aaffffd4"], "sequence": 4294967293, "scriptSig": {"hex": "160014285a816515bf470ebe16b41c79e582d033e6a30d", "asm": "0014285a816515bf470ebe16b41c79e582d033e6a30d"}, "vout": 0, "txid": "85dccc79c6f9ebfa2951a8b89420953af2b858833466c74a9ea8176c49f8d6c8"}], "txid": "02f664a5178cbca39304df04d9fc47473e49a51e0f93f9bf59154eb8cd3679cd", "blocktime": 1537872475, "version": 2, "confirmations": 11487, "time": 1537872475, "locktime": 0, "vsize": 257, "size": 420}