{"hash": "02f7261fd78029d75d556bf40a17c4caf86787433ff26e88f3cce3a53a10d808", "blockhash": "00000000000000000017f5eb5941039fbcee6240d03bc1f2f8e35350df66a1d8", "vout": [{"scriptPubKey": {"reqSigs": 1, "hex": "76a9147955c530f7a0319717aac9dc9729fcf34b69e04988ac", "addresses": ["1C4ZWdpoyuhVG2u9T2Ec54GbJb4kEbWSJp"], "asm": "OP_DUP OP_HASH160 7955c530f7a0319717aac9dc9729fcf34b69e049 OP_EQUALVERIFY OP_CHECKSIG", "type": "pubkeyhash"}, "value": 0.73997307, "n": 0}, {"scriptPubKey": {"reqSigs": 1, "hex": "76a914f0e0d17052eef386dafe89d113e0308538cfaa8e88ac", "addresses": ["1NxeVgDXo9abhd1mipebPUwSraFEZDiW5v"], "asm": "OP_DUP OP_HASH160 f0e0d17052eef386dafe89d113e0308538cfaa8e OP_EQUALVERIFY OP_CHECKSIG", "type": "pubkeyhash"}, "value": 0.12, "n": 1}], "hex": "010000000110fb0d0cdd966414538a26394a838d0249ee9ab63dca72a32f97abbfdf68d7ba010000006a4730440220496f52f974db342dfdf9f38c326b2fe396640ff727d43c6bc89ca3ecbc0cbfdd02207e029c176582c496e2f6b804e3d4f403f7dcf4d9a31dd91be1213fe7b7d172cd0121031f1eac16846c1b2499be89026c9897faed00aadc9b06729f581171a53ba84020ffffffff02fb1b6904000000001976a9147955c530f7a0319717aac9dc9729fcf34b69e04988ac001bb700000000001976a914f0e0d17052eef386dafe89d113e0308538cfaa8e88ac00000000", "vin": [{"sequence": 4294967295, "scriptSig": {"hex": "4730440220496f52f974db342dfdf9f38c326b2fe396640ff727d43c6bc89ca3ecbc0cbfdd02207e029c176582c496e2f6b804e3d4f403f7dcf4d9a31dd91be1213fe7b7d172cd0121031f1eac16846c1b2499be89026c9897faed00aadc9b06729f581171a53ba84020", "asm": "30440220496f52f974db342dfdf9f38c326b2fe396640ff727d43c6bc89ca3ecbc0cbfdd02207e029c176582c496e2f6b804e3d4f403f7dcf4d9a31dd91be1213fe7b7d172cd[ALL] 031f1eac16846c1b2499be89026c9897faed00aadc9b06729f581171a53ba84020"}, "vout": 1, "txid": "bad768dfbfab972fa372ca3db69aee49028d834a39268a53146496dd0c0dfb10"}], "txid": "02f7261fd78029d75d556bf40a17c4caf86787433ff26e88f3cce3a53a10d808", "blocktime": 1537874412, "version": 1, "confirmations": 11467, "time": 1537874412, "locktime": 0, "vsize": 225, "size": 225}