{"hash": "02fd5748ccc80987393ce595ca09b74a01d2cec823edcef98cc61bce99721201", "blockhash": "0000000000000000000baef3f32e3676a92c3b2e5da21b426e4f302fc371ce76", "vout": [{"scriptPubKey": {"reqSigs": 1, "hex": "76a914ffe3cb4c4ecea084bf1c3b48bef36faea2795b8788ac", "addresses": ["1QL2CLB8quwdL9wEHUDoADat6P9mknMK5e"], "asm": "OP_DUP OP_HASH160 ffe3cb4c4ecea084bf1c3b48bef36faea2795b87 OP_EQUALVERIFY OP_CHECKSIG", "type": "pubkeyhash"}, "value": 0.00631966, "n": 0}, {"scriptPubKey": {"type": "nulldata", "hex": "6a4c50000078080001990d277908cce9c0333419ac702940d64fa54d8eb2d19ed074892d00f8e85f129d8a3a213c51dc8285590798f4745baa1ade0613b2d236377c001d100759d4ba30d2c37bb011d97e02cf", "asm": "OP_RETURN 000078080001990d277908cce9c0333419ac702940d64fa54d8eb2d19ed074892d00f8e85f129d8a3a213c51dc8285590798f4745baa1ade0613b2d236377c001d100759d4ba30d2c37bb011d97e02cf"}, "value": 0.0, "n": 1}], "hex": "01000000019709e0b82cafea39e3096aedb792668e8b845b785c750115435fdf07bdb69093000000006b483045022100853e41988c4d3e41ab182b7663de1c593aac149abdc9c12841b1dc01d4866b6b02203a95ff9f5f7519d8c77c83af04eb7609287a7960e3c4f3b0b9eb67312cc0bf04012103f0c1ef38074c23e7df251d624259c32d5e23a664cdf2a09d0e1febb6bd3e4aabffffffff029ea40900000000001976a914ffe3cb4c4ecea084bf1c3b48bef36faea2795b8788ac0000000000000000536a4c50000078080001990d277908cce9c0333419ac702940d64fa54d8eb2d19ed074892d00f8e85f129d8a3a213c51dc8285590798f4745baa1ade0613b2d236377c001d100759d4ba30d2c37bb011d97e02cf00000000", "vin": [{"sequence": 4294967295, "scriptSig": {"hex": "483045022100853e41988c4d3e41ab182b7663de1c593aac149abdc9c12841b1dc01d4866b6b02203a95ff9f5f7519d8c77c83af04eb7609287a7960e3c4f3b0b9eb67312cc0bf04012103f0c1ef38074c23e7df251d624259c32d5e23a664cdf2a09d0e1febb6bd3e4aab", "asm": "3045022100853e41988c4d3e41ab182b7663de1c593aac149abdc9c12841b1dc01d4866b6b02203a95ff9f5f7519d8c77c83af04eb7609287a7960e3c4f3b0b9eb67312cc0bf04[ALL] 03f0c1ef38074c23e7df251d624259c32d5e23a664cdf2a09d0e1febb6bd3e4aab"}, "vout": 0, "txid": "9390b6bd07df5f431501755c785b848b8e6692b7ed6a09e339eaaf2cb8e00997"}], "txid": "02fd5748ccc80987393ce595ca09b74a01d2cec823edcef98cc61bce99721201", "blocktime": 1537876114, "version": 1, "confirmations": 11460, "time": 1537876114, "locktime": 0, "vsize": 284, "size": 284}