{"hash": "d2466ecae8b57bb522542240ab5411a966de01bda3180e0b3c2f0618e5e0312c", "blockhash": "00000000000000000024a2167bbff67b0be802c0b01cdd79e6331c2be6459f87", "vout": [{"scriptPubKey": {"reqSigs": 1, "hex": "76a91411fda9a14f7325a06f06d5778bd7c37a9028838588ac", "addresses": ["12e8N3q5YdA8JdZHChyrwDguac9zp6dKqp"], "asm": "OP_DUP OP_HASH160 11fda9a14f7325a06f06d5778bd7c37a90288385 OP_EQUALVERIFY OP_CHECKSIG", "type": "pubkeyhash"}, "value": 0.0073556, "n": 0}, {"scriptPubKey": {"reqSigs": 1, "hex": "a9141af4578d730ec4b7f3d106344168ece98eba49f787", "addresses": ["349YCiCzzp6waLwLHUWuFWyNf62QqBCCfd"], "asm": "OP_HASH160 1af4578d730ec4b7f3d106344168ece98eba49f7 OP_EQUAL", "type": "scripthash"}, "value": 0.00999323, "n": 1}], "hex": "020000000001022197722043606f998863562310906d16b0f7e212f03a13d157969dde3a2024d10b00000017160014c86245751c130a90063424338704bf113c42e424feffffff81c00e9dd2e262aa9ef9532cf7d74dc978f0d947329b6918f36608c087d6a5f20000000017160014ec55e1bdc4a9f031dc866cbd1942f56e0fa0451cfeffffff0248390b00000000001976a91411fda9a14f7325a06f06d5778bd7c37a9028838588ac9b3f0f000000000017a9141af4578d730ec4b7f3d106344168ece98eba49f78702483045022100f88a85d704ba81046a2df3b2bf727ddeca3df89ebfcc8fdcc5870b18df155f3b02202fe0e3a891966e5eccbb14969896048b229e6647920ec6ca547d0c6d3c54438901210230a289dec2782dac579dd7f72f38bcc5343ccc63e6609c37daec9fba8de79e9b02483045022100abf61f2e8ba885d16905699104bd1a574c678447a532c7d7aa4dbd0aeda0ff5e02204e22c1c8fc750ec7d3eefa74ed5938caf2d2d72d047d43b70d78e09aa6ff4e830121033db52fb06e4dbb4f0de223de409ced14c59754ac5f8df1174c985272f51802000d490800", "vin": [{"txinwitness": ["3045022100f88a85d704ba81046a2df3b2bf727ddeca3df89ebfcc8fdcc5870b18df155f3b02202fe0e3a891966e5eccbb14969896048b229e6647920ec6ca547d0c6d3c54438901", "0230a289dec2782dac579dd7f72f38bcc5343ccc63e6609c37daec9fba8de79e9b"], "sequence": 4294967294, "scriptSig": {"hex": "160014c86245751c130a90063424338704bf113c42e424", "asm": "0014c86245751c130a90063424338704bf113c42e424"}, "vout": 11, "txid": "d124203ade9d9657d1133af012e2f7b0166d901023566388996f604320729721"}, {"txinwitness": ["3045022100abf61f2e8ba885d16905699104bd1a574c678447a532c7d7aa4dbd0aeda0ff5e02204e22c1c8fc750ec7d3eefa74ed5938caf2d2d72d047d43b70d78e09aa6ff4e8301", "033db52fb06e4dbb4f0de223de409ced14c59754ac5f8df1174c985272f5180200"], "sequence": 4294967294, "scriptSig": {"hex": "160014ec55e1bdc4a9f031dc866cbd1942f56e0fa0451c", "asm": "0014ec55e1bdc4a9f031dc866cbd1942f56e0fa0451c"}, "vout": 0, "txid": "f2a5d687c00866f318699b3247d9f078c94dd7f72c53f99eaa62e2d29d0ec081"}], "txid": "02fdcec82ccb3db96694cd0de41ce8df0230408a6e2b67987c37d3fe1111cb5a", "blocktime": 1537870564, "version": 2, "confirmations": 11515, "time": 1537870564, "locktime": 542989, "vsize": 259, "size": 422}