{"hash": "789b541a0fd1bc459cc516b569d6bc3527a6a818e0a997fb7751866a14f1314c", "blockhash": "0000000000000000000baef3f32e3676a92c3b2e5da21b426e4f302fc371ce76", "vout": [{"scriptPubKey": {"reqSigs": 1, "hex": "76a914160acf5314ab320485ea6f924f149e5b955c094388ac", "addresses": ["131YpJYz2PhsL3exCoW5aaJE9VVPHXbSRf"], "asm": "OP_DUP OP_HASH160 160acf5314ab320485ea6f924f149e5b955c0943 OP_EQUALVERIFY OP_CHECKSIG", "type": "pubkeyhash"}, "value": 0.0001782, "n": 0}, {"scriptPubKey": {"reqSigs": 1, "hex": "a91408c364340a91e77e4376b26fdad3b5aedc5661f787", "addresses": ["32VMQ7Th4qGhbDYY68FZrfSF9hTbsPivgt"], "asm": "OP_HASH160 08c364340a91e77e4376b26fdad3b5aedc5661f7 OP_EQUAL", "type": "scripthash"}, "value": 0.01951095, "n": 1}], "hex": "010000000001013154c43a2744fb4221ef0ce6c4de9ba319be833d3aa387a57b4732a79552e955010000002322002027561ef61439ff4994ea3793249bbb358319edb59fff63c1eeada48f299e81b5ffffffff029c450000000000001976a914160acf5314ab320485ea6f924f149e5b955c094388ac77c51d000000000017a91408c364340a91e77e4376b26fdad3b5aedc5661f7870400483045022100d934b6f5287427e64fe620b629f6c461b5816c606ab437d408dec672f3f7e25102207d93c6dbedf1a6293b2efba51a48ddd922d06d241d87ff964f5342219e9db91301483045022100c24bba55df3840f232da7a2bd62d153468cecefe92412d0d049d1bb764bd752002203adfaae2ec7a2558ba05ee08aef0242924c46341898408c9fb1ce8832fa004480147522102f484437eae67e7d1f9cf7235bd52510c99f379408a1f6fe737011d4bc259358a2103871fc2ca08e6950b38867e8e6a0e94ee625223d3aa0df5c65f414c6d784467e252ae00000000", "vin": [{"txinwitness": ["", "3045022100d934b6f5287427e64fe620b629f6c461b5816c606ab437d408dec672f3f7e25102207d93c6dbedf1a6293b2efba51a48ddd922d06d241d87ff964f5342219e9db91301", "3045022100c24bba55df3840f232da7a2bd62d153468cecefe92412d0d049d1bb764bd752002203adfaae2ec7a2558ba05ee08aef0242924c46341898408c9fb1ce8832fa0044801", "522102f484437eae67e7d1f9cf7235bd52510c99f379408a1f6fe737011d4bc259358a2103871fc2ca08e6950b38867e8e6a0e94ee625223d3aa0df5c65f414c6d784467e252ae"], "sequence": 4294967295, "scriptSig": {"hex": "22002027561ef61439ff4994ea3793249bbb358319edb59fff63c1eeada48f299e81b5", "asm": "002027561ef61439ff4994ea3793249bbb358319edb59fff63c1eeada48f299e81b5"}, "vout": 1, "txid": "55e95295a732477ba587a33a3d83be19a39bdec4e60cef2142fb44273ac45431"}], "txid": "03063cbccb21d9c997bec454f77724690b96701d774c84e15674e10067f839e7", "blocktime": 1537876114, "version": 1, "confirmations": 11462, "time": 1537876114, "locktime": 0, "vsize": 208, "size": 374}