{"hash": "030773ff81b32996fb43047e3d0cf2ad39f658d25785c09349d8c2b7fdecb758", "blockhash": "0000000000000000001f76057863aec43deb6fa401d9628bb513d65a8098bfab", "vout": [{"scriptPubKey": {"reqSigs": 1, "hex": "76a91490a22efa9fcab2274025c676126e5b0000da4e1f88ac", "addresses": ["1EBkbLEGCgPR6TX6jmMwgvheMsCx8c2Q6S"], "asm": "OP_DUP OP_HASH160 90a22efa9fcab2274025c676126e5b0000da4e1f OP_EQUALVERIFY OP_CHECKSIG", "type": "pubkeyhash"}, "value": 5.46e-06, "n": 0}, {"scriptPubKey": {"reqSigs": 1, "hex": "a9143f4eecba122ad73039d481c8d37f99cb4f887cd887", "addresses": ["37Tm3Qz8Zw2VJrheUUhArDAoq58S6YrS3g"], "asm": "OP_HASH160 3f4eecba122ad73039d481c8d37f99cb4f887cd8 OP_EQUAL", "type": "scripthash"}, "value": 0.99994908, "n": 1}, {"scriptPubKey": {"type": "nulldata", "hex": "6a146f6d6e69000000000000001f00001a6fed1b95a0", "asm": "OP_RETURN 6f6d6e69000000000000001f00001a6fed1b95a0"}, "value": 0.0, "n": 2}], "hex": "0100000001d4b96df9673bb36980e86991e3f3e3c97cfbc750a9e950a7c64d7a1d438d5ffd01000000fdfd00004830450221009dbb7154b817562220176c4d6ded14b367e88437d919bfc5811440c5e846cf6a022060570f5ac9f18ed6264ab84f5a5665dcc5ee51a397b64a9fc69a9cb12c55b82301473044022018163a2abd02e6eadd3852e09e5335a1da417dbde7dc901bf5a0d80b992c370c0220620f336102737056d970e2b28a16351cfbb9b6bff078f3aefc94b7d0a3395f07014c6952210246ccf4de0c54cc7f3354cdd993c2c50cf965fd82238b89659fbd73a1b4bf05a121024fc59f72272a897fe43803374969f396058152fe4765a8d15216f94624257b1b21022593bc69ecbf3bbcc3c58082267cb49dadaf4ca8dbf1b2297338a9d628c4297653aeffffffff0322020000000000001976a91490a22efa9fcab2274025c676126e5b0000da4e1f88ac1ccdf5050000000017a9143f4eecba122ad73039d481c8d37f99cb4f887cd8870000000000000000166a146f6d6e69000000000000001f00001a6fed1b95a000000000", "vin": [{"sequence": 4294967295, "scriptSig": {"hex": "004830450221009dbb7154b817562220176c4d6ded14b367e88437d919bfc5811440c5e846cf6a022060570f5ac9f18ed6264ab84f5a5665dcc5ee51a397b64a9fc69a9cb12c55b82301473044022018163a2abd02e6eadd3852e09e5335a1da417dbde7dc901bf5a0d80b992c370c0220620f336102737056d970e2b28a16351cfbb9b6bff078f3aefc94b7d0a3395f07014c6952210246ccf4de0c54cc7f3354cdd993c2c50cf965fd82238b89659fbd73a1b4bf05a121024fc59f72272a897fe43803374969f396058152fe4765a8d15216f94624257b1b21022593bc69ecbf3bbcc3c58082267cb49dadaf4ca8dbf1b2297338a9d628c4297653ae", "asm": "0 30450221009dbb7154b817562220176c4d6ded14b367e88437d919bfc5811440c5e846cf6a022060570f5ac9f18ed6264ab84f5a5665dcc5ee51a397b64a9fc69a9cb12c55b823[ALL] 3044022018163a2abd02e6eadd3852e09e5335a1da417dbde7dc901bf5a0d80b992c370c0220620f336102737056d970e2b28a16351cfbb9b6bff078f3aefc94b7d0a3395f07[ALL] 52210246ccf4de0c54cc7f3354cdd993c2c50cf965fd82238b89659fbd73a1b4bf05a121024fc59f72272a897fe43803374969f396058152fe4765a8d15216f94624257b1b21022593bc69ecbf3bbcc3c58082267cb49dadaf4ca8dbf1b2297338a9d628c4297653ae"}, "vout": 1, "txid": "fd5f8d431d7a4dc6a750e9a950c7fb7cc9e3f3e39169e88069b33b67f96db9d4"}], "txid": "030773ff81b32996fb43047e3d0cf2ad39f658d25785c09349d8c2b7fdecb758", "blocktime": 1537873891, "version": 1, "confirmations": 11477, "time": 1537873891, "locktime": 0, "vsize": 403, "size": 403}