{"hash": "030a3affeb29179930d4715a52d089e2ea0c70a99fd9b8efe682ead2ea1a60d1", "blockhash": "0000000000000000001cda96e906b7601b7a6fb1a3b62bca570a9e5d8f4b3de1", "vout": [{"scriptPubKey": {"reqSigs": 1, "hex": "76a9148b32d2feed3b55e82f6bd0447f4f86239632aaf488ac", "addresses": ["1Dh1ozXp1TG57VmuEGz1CyhaiT5MALv1pq"], "asm": "OP_DUP OP_HASH160 8b32d2feed3b55e82f6bd0447f4f86239632aaf4 OP_EQUALVERIFY OP_CHECKSIG", "type": "pubkeyhash"}, "value": 4.575e-05, "n": 0}, {"scriptPubKey": {"reqSigs": 1, "hex": "76a9144c373c3f2d8461b6840d65f7315545b7fb3ae04688ac", "addresses": ["17wzXQ52TYgCh9xdRSJJPtEG2rjEq15SSm"], "asm": "OP_DUP OP_HASH160 4c373c3f2d8461b6840d65f7315545b7fb3ae046 OP_EQUALVERIFY OP_CHECKSIG", "type": "pubkeyhash"}, "value": 0.03403814, "n": 1}], "hex": "01000000013a9b0476d9d2852bed43764a475eeca26f376c7b97b4b2c67f09ae66578b81ce110000006a47304402207d89dcc19975ade3e76d3cd6e1f493f56a8ea603172db6e9427400223b29e73a02200cb6e9456254ee960aa5b09c91d57cb3663def1580442af545f7a16e87de2766012102861120a4683d072f09351189fb9cd72873cdbf4b47115c2afa5d67df0e84491effffffff02df110000000000001976a9148b32d2feed3b55e82f6bd0447f4f86239632aaf488ac26f03300000000001976a9144c373c3f2d8461b6840d65f7315545b7fb3ae04688ac00000000", "vin": [{"sequence": 4294967295, "scriptSig": {"hex": "47304402207d89dcc19975ade3e76d3cd6e1f493f56a8ea603172db6e9427400223b29e73a02200cb6e9456254ee960aa5b09c91d57cb3663def1580442af545f7a16e87de2766012102861120a4683d072f09351189fb9cd72873cdbf4b47115c2afa5d67df0e84491e", "asm": "304402207d89dcc19975ade3e76d3cd6e1f493f56a8ea603172db6e9427400223b29e73a02200cb6e9456254ee960aa5b09c91d57cb3663def1580442af545f7a16e87de2766[ALL] 02861120a4683d072f09351189fb9cd72873cdbf4b47115c2afa5d67df0e84491e"}, "vout": 17, "txid": "ce818b5766ae097fc6b2b4977b6c376fa2ec5e474a7643ed2b85d2d976049b3a"}], "txid": "030a3affeb29179930d4715a52d089e2ea0c70a99fd9b8efe682ead2ea1a60d1", "blocktime": 1537873282, "version": 1, "confirmations": 11484, "time": 1537873282, "locktime": 0, "vsize": 225, "size": 225}