{"hash": "987ec31af137cc6d73c90ebb4180d53bc09e0965aa433ebe4573cd61276aa5fe", "blockhash": "00000000000000000017f5eb5941039fbcee6240d03bc1f2f8e35350df66a1d8", "vout": [{"scriptPubKey": {"reqSigs": 1, "hex": "76a9149a1b8f9b1fa2d2297863adb1cb11c71df455684888ac", "addresses": ["1F3r5We2zwNiSzG6GQUTTWnnPMCz2HJbJu"], "asm": "OP_DUP OP_HASH160 9a1b8f9b1fa2d2297863adb1cb11c71df4556848 OP_EQUALVERIFY OP_CHECKSIG", "type": "pubkeyhash"}, "value": 2.625e-05, "n": 0}, {"scriptPubKey": {"reqSigs": 1, "hex": "a914e8db75c900cf08f06518e96d167331f2a4abfb3387", "addresses": ["3NvFbQMAkkqEFj4i1sYPPLkSWzxTFUchjA"], "asm": "OP_HASH160 e8db75c900cf08f06518e96d167331f2a4abfb33 OP_EQUAL", "type": "scripthash"}, "value": 0.00012316, "n": 1}], "hex": "01000000000103b0617a5301f73dfc779461e42a59ad47e9f775926001a5206ba6838458a7ae830100000023220020fdd23d707f55451c4e006c77b5e8df35a185a8e99f9bda70bf0ded7913bb1eb3ffffffff831695b7b9908202ef78d548f40341d366917c71570dd30ccac2b8f44518214b0100000023220020fdd23d707f55451c4e006c77b5e8df35a185a8e99f9bda70bf0ded7913bb1eb3ffffffffad30401ef3faae68de55a2f143a89f7080ba3150c9e949d34575753e9bae40660100000023220020941cfaff8837763dc1f69ff82b6d6553fdea17a41cfc29a04403293eedd8ccc7ffffffff02410a0000000000001976a9149a1b8f9b1fa2d2297863adb1cb11c71df455684888ac1c3000000000000017a914e8db75c900cf08f06518e96d167331f2a4abfb33870400473044022023095c48edadc82ab76fda9536239d1c5a2554b62ceb64d450ebd4d3d0e570bb02201c8a9500f544eabf2ae588e9f30ff8f86f9e407886d204b00ed4d10f247c7eeb0148304502210088b459e2506b3a0c173ad932c5d2d2baa5df51df9fc39e01bfd65be406940b6f02201ab0d06f6a5d4c5ee8a830569628c78204786258c4f8f8f985bccb3905781010014752210286c104577b978160849865bc23f9a6df9b53d41c8ffb486754b97b2a474a181c2103148c80a5bdfddb05ff5bcffc397c8ca748d8b435ec6a175bc9d7bfc7fc6f853752ae040047304402201c855948be892991e6cb5c145af8e1c639fb2957b9a094f23dd1486f63d34eba02205227cea0985f05e5932b975bb660e6debd438e7b68f69ce0d5f2530654d2d58301483045022100a8049224037b23d3526b8c05533c52f95b3a857ccfe7c625b0db7aef9eaba6080220458a960eae1fb8f109488ee0fdb78b9945bddd021315dc28205a2d81fa1f7590014752210286c104577b978160849865bc23f9a6df9b53d41c8ffb486754b97b2a474a181c2103148c80a5bdfddb05ff5bcffc397c8ca748d8b435ec6a175bc9d7bfc7fc6f853752ae0400483045022100a5e2dc79af39bc5f2b3c3cf7b82eb66efa324bdeda9fd16d18f282c4409a3f88022068ccd11dd6bb632fe79e92c07a80c328203d37549a624e932baa9e963a1771a201483045022100a9372e249d7dca7c3307d6972e4917efc061d47ff18ce3224fe9648f7cc5c1e202205fc59035d7a3df9c03b8848fc41ef7f241e5e8ab02acaa08d5ca833aa05131470147522102531db3a5883f29bab4241dd0cd726936667bcda445d89bdd22244e828b6993342103148c80a5bdfddb05ff5bcffc397c8ca748d8b435ec6a175bc9d7bfc7fc6f853752ae00000000", "vin": [{"txinwitness": ["", "3044022023095c48edadc82ab76fda9536239d1c5a2554b62ceb64d450ebd4d3d0e570bb02201c8a9500f544eabf2ae588e9f30ff8f86f9e407886d204b00ed4d10f247c7eeb01", "304502210088b459e2506b3a0c173ad932c5d2d2baa5df51df9fc39e01bfd65be406940b6f02201ab0d06f6a5d4c5ee8a830569628c78204786258c4f8f8f985bccb390578101001", "52210286c104577b978160849865bc23f9a6df9b53d41c8ffb486754b97b2a474a181c2103148c80a5bdfddb05ff5bcffc397c8ca748d8b435ec6a175bc9d7bfc7fc6f853752ae"], "sequence": 4294967295, "scriptSig": {"hex": "220020fdd23d707f55451c4e006c77b5e8df35a185a8e99f9bda70bf0ded7913bb1eb3", "asm": "0020fdd23d707f55451c4e006c77b5e8df35a185a8e99f9bda70bf0ded7913bb1eb3"}, "vout": 1, "txid": "83aea7588483a66b20a501609275f7e947ad592ae4619477fc3df701537a61b0"}, {"txinwitness": ["", "304402201c855948be892991e6cb5c145af8e1c639fb2957b9a094f23dd1486f63d34eba02205227cea0985f05e5932b975bb660e6debd438e7b68f69ce0d5f2530654d2d58301", "3045022100a8049224037b23d3526b8c05533c52f95b3a857ccfe7c625b0db7aef9eaba6080220458a960eae1fb8f109488ee0fdb78b9945bddd021315dc28205a2d81fa1f759001", "52210286c104577b978160849865bc23f9a6df9b53d41c8ffb486754b97b2a474a181c2103148c80a5bdfddb05ff5bcffc397c8ca748d8b435ec6a175bc9d7bfc7fc6f853752ae"], "sequence": 4294967295, "scriptSig": {"hex": "220020fdd23d707f55451c4e006c77b5e8df35a185a8e99f9bda70bf0ded7913bb1eb3", "asm": "0020fdd23d707f55451c4e006c77b5e8df35a185a8e99f9bda70bf0ded7913bb1eb3"}, "vout": 1, "txid": "4b211845f4b8c2ca0cd30d57717c9166d34103f448d578ef028290b9b7951683"}, {"txinwitness": ["", "3045022100a5e2dc79af39bc5f2b3c3cf7b82eb66efa324bdeda9fd16d18f282c4409a3f88022068ccd11dd6bb632fe79e92c07a80c328203d37549a624e932baa9e963a1771a201", "3045022100a9372e249d7dca7c3307d6972e4917efc061d47ff18ce3224fe9648f7cc5c1e202205fc59035d7a3df9c03b8848fc41ef7f241e5e8ab02acaa08d5ca833aa051314701", "522102531db3a5883f29bab4241dd0cd726936667bcda445d89bdd22244e828b6993342103148c80a5bdfddb05ff5bcffc397c8ca748d8b435ec6a175bc9d7bfc7fc6f853752ae"], "sequence": 4294967295, "scriptSig": {"hex": "220020941cfaff8837763dc1f69ff82b6d6553fdea17a41cfc29a04403293eedd8ccc7", "asm": "0020941cfaff8837763dc1f69ff82b6d6553fdea17a41cfc29a04403293eedd8ccc7"}, "vout": 1, "txid": "6640ae9b3e757545d349e9c95031ba80709fa843f1a255de68aefaf31e4030ad"}], "txid": "030ea272a1784ac895fccacc5d0bb68795dcd51800fc7c41c61e979ac9fdcf97", "blocktime": 1537874412, "version": 1, "confirmations": 11468, "time": 1537874412, "locktime": 0, "vsize": 469, "size": 964}