{"hash": "030febfecbf38ae0626c5a96f2acaafaa22f067321b44291879582ec9b99fb2d", "blockhash": "0000000000000000001f0ddff1eddb255c1121bcd4da4f1bc9a0da00cae72433", "vout": [{"scriptPubKey": {"reqSigs": 1, "hex": "76a914d6d0e356c1613b6e4c6ea3f79d6674da7ea0fa2088ac", "addresses": ["1Laqqr9Uw5fJQRt5AFTgLgH2ZaaBGxGdzn"], "asm": "OP_DUP OP_HASH160 d6d0e356c1613b6e4c6ea3f79d6674da7ea0fa20 OP_EQUALVERIFY OP_CHECKSIG", "type": "pubkeyhash"}, "value": 0.02596017, "n": 0}, {"scriptPubKey": {"reqSigs": 1, "hex": "a914f1403cf9f9b9bc260f1b9aa57710816bc1d9efe387", "addresses": ["3Pgdj84S7rPspSVuSBhr8gxfVwBkn5YmPt"], "asm": "OP_HASH160 f1403cf9f9b9bc260f1b9aa57710816bc1d9efe3 OP_EQUAL", "type": "scripthash"}, "value": 0.00512584, "n": 1}], "hex": "010000000132f233402c00bfd8084913eb6cd1df1234b41a2c5602a1b7d4becccfa8c6c19900000000fdfd0000473044022058ff02fe2a7ec0979fec392aec8618a5323ea2b2e803590a15c5a1b91801412202205ed7d0f70d5762ed6a64797da80e78abb6c81b27e4a7367c78cd9f135730db2d014830450221008b437101c36763ee5741ba3cd24d85977fdf748cc78492a95b98550f4ee6d90f02201ba1781bffdfddb4583143606a818130bb592a4363b909d67507710062b516f4014c69522102b56e9a814f16b7288bee252806fa630eecc040cc7a7234dd69436d3361a8c4052103906e59a7a8d9f5e163a1040c22d3df8bd904dc9d9fd0f754e82e6436b95b48f82103d6b4b6e2e08fa96c57a656695157b76eb678222fc9f20f9347751bd48a98767f53aeffffffff02b19c2700000000001976a914d6d0e356c1613b6e4c6ea3f79d6674da7ea0fa2088ac48d207000000000017a914f1403cf9f9b9bc260f1b9aa57710816bc1d9efe38700000000", "vin": [{"sequence": 4294967295, "scriptSig": {"hex": "00473044022058ff02fe2a7ec0979fec392aec8618a5323ea2b2e803590a15c5a1b91801412202205ed7d0f70d5762ed6a64797da80e78abb6c81b27e4a7367c78cd9f135730db2d014830450221008b437101c36763ee5741ba3cd24d85977fdf748cc78492a95b98550f4ee6d90f02201ba1781bffdfddb4583143606a818130bb592a4363b909d67507710062b516f4014c69522102b56e9a814f16b7288bee252806fa630eecc040cc7a7234dd69436d3361a8c4052103906e59a7a8d9f5e163a1040c22d3df8bd904dc9d9fd0f754e82e6436b95b48f82103d6b4b6e2e08fa96c57a656695157b76eb678222fc9f20f9347751bd48a98767f53ae", "asm": "0 3044022058ff02fe2a7ec0979fec392aec8618a5323ea2b2e803590a15c5a1b91801412202205ed7d0f70d5762ed6a64797da80e78abb6c81b27e4a7367c78cd9f135730db2d[ALL] 30450221008b437101c36763ee5741ba3cd24d85977fdf748cc78492a95b98550f4ee6d90f02201ba1781bffdfddb4583143606a818130bb592a4363b909d67507710062b516f4[ALL] 522102b56e9a814f16b7288bee252806fa630eecc040cc7a7234dd69436d3361a8c4052103906e59a7a8d9f5e163a1040c22d3df8bd904dc9d9fd0f754e82e6436b95b48f82103d6b4b6e2e08fa96c57a656695157b76eb678222fc9f20f9347751bd48a98767f53ae"}, "vout": 0, "txid": "99c1c6a8cfccbed4b7a102562c1ab43412dfd16ceb134908d8bf002c4033f232"}], "txid": "030febfecbf38ae0626c5a96f2acaafaa22f067321b44291879582ec9b99fb2d", "blocktime": 1537872018, "version": 1, "confirmations": 11489, "time": 1537872018, "locktime": 0, "vsize": 372, "size": 372}