{"hash": "031186594a578c7725ae34eb6c2462d462dfb8cac70824f1331a24a56c533815", "blockhash": "0000000000000000001f0ddff1eddb255c1121bcd4da4f1bc9a0da00cae72433", "vout": [{"scriptPubKey": {"reqSigs": 1, "hex": "76a91493129634dc35d85cfe32da111c4867f4cf0d8d7488ac", "addresses": ["1EQebdTv8EBoyGDhF45ozrkFFmsFJkJDyF"], "asm": "OP_DUP OP_HASH160 93129634dc35d85cfe32da111c4867f4cf0d8d74 OP_EQUALVERIFY OP_CHECKSIG", "type": "pubkeyhash"}, "value": 0.00140579, "n": 0}, {"scriptPubKey": {"reqSigs": 1, "hex": "76a91462403bbe05cbea80736e2a76c1d230bfe8c9ed5388ac", "addresses": ["19xWAp6jiQtEAn3vDJ8cr8XdGqeRCf4bBY"], "asm": "OP_DUP OP_HASH160 62403bbe05cbea80736e2a76c1d230bfe8c9ed53 OP_EQUALVERIFY OP_CHECKSIG", "type": "pubkeyhash"}, "value": 0.01218058, "n": 1}], "hex": "010000000121d409bf62f2b196074cadbc15188a94b39441ff5488e12ff3ecb148d6d1e1c3010000006b483045022100a933a8de7976e4d437c3c78c7bc36f21a2587bb82111bb0f1e10ef70b6a9e892022052b42f9fd60992cce4d514b4dcd23a8ecb32b2f6e2e8acab83aefb60e5ef0f620121023b19a445d8523da1b6a01a08ba8f957072710c3bb19868c22cf97273a038e586ffffffff0223250200000000001976a91493129634dc35d85cfe32da111c4867f4cf0d8d7488ac0a961200000000001976a91462403bbe05cbea80736e2a76c1d230bfe8c9ed5388ac00000000", "vin": [{"sequence": 4294967295, "scriptSig": {"hex": "483045022100a933a8de7976e4d437c3c78c7bc36f21a2587bb82111bb0f1e10ef70b6a9e892022052b42f9fd60992cce4d514b4dcd23a8ecb32b2f6e2e8acab83aefb60e5ef0f620121023b19a445d8523da1b6a01a08ba8f957072710c3bb19868c22cf97273a038e586", "asm": "3045022100a933a8de7976e4d437c3c78c7bc36f21a2587bb82111bb0f1e10ef70b6a9e892022052b42f9fd60992cce4d514b4dcd23a8ecb32b2f6e2e8acab83aefb60e5ef0f62[ALL] 023b19a445d8523da1b6a01a08ba8f957072710c3bb19868c22cf97273a038e586"}, "vout": 1, "txid": "c3e1d1d648b1ecf32fe18854ff4194b3948a1815bcad4c0796b1f262bf09d421"}], "txid": "031186594a578c7725ae34eb6c2462d462dfb8cac70824f1331a24a56c533815", "blocktime": 1537872018, "version": 1, "confirmations": 11489, "time": 1537872018, "locktime": 0, "vsize": 226, "size": 226}