{"hash": "031277f9c6564a528d11d29fcca5afe3156af7f942275c5afa099782c8878ab0", "blockhash": "00000000000000000018f53835495a110e01622372bf6ae95dc86f2b0ab887b0", "vout": [{"scriptPubKey": {"reqSigs": 1, "hex": "76a91406431fb537f8f2acce14d62a470f78bd610d773988ac", "addresses": ["1a7TzuqDHVVD5s6mFVZnkFu4XHCVti1Zh"], "asm": "OP_DUP OP_HASH160 06431fb537f8f2acce14d62a470f78bd610d7739 OP_EQUALVERIFY OP_CHECKSIG", "type": "pubkeyhash"}, "value": 0.010697, "n": 0}, {"scriptPubKey": {"reqSigs": 1, "hex": "76a9149e7d77348b79e7b4559033da4d3482b8a986bffe88ac", "addresses": ["1FT24pGwuVrEdpcCeB38tHv3LY2gkFVf4V"], "asm": "OP_DUP OP_HASH160 9e7d77348b79e7b4559033da4d3482b8a986bffe OP_EQUALVERIFY OP_CHECKSIG", "type": "pubkeyhash"}, "value": 0.05, "n": 1}], "hex": "010000000110a74798a0f5ef2b9942365895a74aeb152ca709e07d5a7c950bc71bd3a4ef68020000006b483045022100d17e1ac1015d8fa76eec4c9d4c6adfc468c607f92b0ba84fb0e5bb2fd0fe4eb3022015615990ddb3ed71aba9b3442226c44e2132a381376a6cff46f6e29d09a1736c0121021186096888030699368e0887fae06318146e4c07569e5af2df18ad11dc67db70feffffff0284521000000000001976a91406431fb537f8f2acce14d62a470f78bd610d773988ac404b4c00000000001976a9149e7d77348b79e7b4559033da4d3482b8a986bffe88ac0e490800", "vin": [{"sequence": 4294967294, "scriptSig": {"hex": "483045022100d17e1ac1015d8fa76eec4c9d4c6adfc468c607f92b0ba84fb0e5bb2fd0fe4eb3022015615990ddb3ed71aba9b3442226c44e2132a381376a6cff46f6e29d09a1736c0121021186096888030699368e0887fae06318146e4c07569e5af2df18ad11dc67db70", "asm": "3045022100d17e1ac1015d8fa76eec4c9d4c6adfc468c607f92b0ba84fb0e5bb2fd0fe4eb3022015615990ddb3ed71aba9b3442226c44e2132a381376a6cff46f6e29d09a1736c[ALL] 021186096888030699368e0887fae06318146e4c07569e5af2df18ad11dc67db70"}, "vout": 2, "txid": "68efa4d31bc70b957c5a7de009a72c15eb4aa795583642992beff5a09847a710"}], "txid": "031277f9c6564a528d11d29fcca5afe3156af7f942275c5afa099782c8878ab0", "blocktime": 1537870928, "version": 1, "confirmations": 11514, "time": 1537870928, "locktime": 542990, "vsize": 226, "size": 226}