{"hash": "2bcf52e0e5d6e0ac42f426b72cfe8b14cd878c42fd52628a42226ed9b42afb6f", "blockhash": "00000000000000000018f53835495a110e01622372bf6ae95dc86f2b0ab887b0", "vout": [{"scriptPubKey": {"reqSigs": 1, "hex": "a91432748eade424271fd36fb42146cc9fead37a373f87", "addresses": ["36HoLgU8ZoHyJe8nsz6iWzaeeEJUz2DLDB"], "asm": "OP_HASH160 32748eade424271fd36fb42146cc9fead37a373f OP_EQUAL", "type": "scripthash"}, "value": 3.5, "n": 0}, {"scriptPubKey": {"reqSigs": 1, "hex": "a914d610fc10e0f0c6990443719bcc26d3a35397073887", "addresses": ["3MCtsi3PFqts6YSGFYeMscacnJBqeeakno"], "asm": "OP_HASH160 d610fc10e0f0c6990443719bcc26d3a353970738 OP_EQUAL", "type": "scripthash"}, "value": 16.49996, "n": 1}], "hex": "0100000000010141a1a55bbbe065b3426bda4c68dd31113c1ce616d2de242a3019ebf041869a1000000000171600146a6fd50e05552465a9e02dce8bdb2bbcadeb0d3affffffff028093dc140000000017a91432748eade424271fd36fb42146cc9fead37a373f87e0f058620000000017a914d610fc10e0f0c6990443719bcc26d3a3539707388702483045022100fcd0cf3d4390c470fde8bdc1eb407c5111f9093a0cf8fbe832e42bbd63055eac0220452a1dfa12496bedc466291ba28a1ca390998a8b061519982c5af31e3ef4633d012102c190cb2c30fef4c0084431c3e8b340e6fb28c4e729e15e5ef70ce1cbd104cbf700000000", "vin": [{"txinwitness": ["3045022100fcd0cf3d4390c470fde8bdc1eb407c5111f9093a0cf8fbe832e42bbd63055eac0220452a1dfa12496bedc466291ba28a1ca390998a8b061519982c5af31e3ef4633d01", "02c190cb2c30fef4c0084431c3e8b340e6fb28c4e729e15e5ef70ce1cbd104cbf7"], "sequence": 4294967295, "scriptSig": {"hex": "1600146a6fd50e05552465a9e02dce8bdb2bbcadeb0d3a", "asm": "00146a6fd50e05552465a9e02dce8bdb2bbcadeb0d3a"}, "vout": 0, "txid": "109a8641f0eb19302a24ded216e61c3c1131dd684cda6b42b365e0bb5ba5a141"}], "txid": "0313b134c949db89204bf4dde5ed77d509a8bc03addf50b79f60f7acda74b4bd", "blocktime": 1537870928, "version": 1, "confirmations": 11512, "time": 1537870928, "locktime": 0, "vsize": 166, "size": 248}