{"hash": "c13e980363ee22f1aac58c9e1924003265f1b3a95975bfd5491287e7895fdce2", "blockhash": "0000000000000000001f0ddff1eddb255c1121bcd4da4f1bc9a0da00cae72433", "vout": [{"scriptPubKey": {"reqSigs": 1, "hex": "76a914edfa2a2895138063bf7cca771904ca01e57e8fbb88ac", "addresses": ["1NhJqDDXJacbt3ir3cYG4zf9TZDhEDoW9W"], "asm": "OP_DUP OP_HASH160 edfa2a2895138063bf7cca771904ca01e57e8fbb OP_EQUALVERIFY OP_CHECKSIG", "type": "pubkeyhash"}, "value": 0.00280378, "n": 0}, {"scriptPubKey": {"reqSigs": 1, "hex": "a914c025a5f196296b3843aa72e838606e76fa8bc7a487", "addresses": ["3KCzmDfg8f4MfgqCohUjkeWNQvWRaUzAz6"], "asm": "OP_HASH160 c025a5f196296b3843aa72e838606e76fa8bc7a4 OP_EQUAL", "type": "scripthash"}, "value": 0.14926903, "n": 1}], "hex": "01000000000102f322216a9bc99ef54b94633399f9e7fce64279e061feb375c93e2a72ec2d6bfa0100000023220020ccc49cd248ef180a8b69581b18bd557c0db14e1532f46252715e06103d0b6361ffffffff07a29933034e48fceef277bc47cc0e32bd7ca166c73c17660a39ce025a8b212001000000232200207951ff9dd8ddd05812341bb86fe437f30e3fbd0c74d993225c9d96cd1cf943acffffffff023a470400000000001976a914edfa2a2895138063bf7cca771904ca01e57e8fbb88ac37c4e3000000000017a914c025a5f196296b3843aa72e838606e76fa8bc7a4870400483045022100a8e325ea681d7e368e5a01038f884059bf88eb070023dbfc24c4847f93d201f002202eda6dc32e447e42f1b5d3d9071bafd33d15c071b8f50d70e2da201f54cb21a70147304402201681255f63bd80b63f92a48a86e8fe624c378bb90abaf46137ca7fe3b78f58ce02204558f29882b69f5aa1f8171c068466727330da141ec8ba54aba0a1a3455bc31a01475221023176fd30ea65e858e5ca926fdc45be2bc7a3ce6f4224a5a49433b6495b0b5985210272b0cdfbf7f3dd59c0aa752a078c84dddd13062081b565fb3201c9d4eb3356b652ae0400473044022057a78c5f2b446f037da389ce300ab78db369e844f51df5c89dd085dbf90c78b902206ed9355870c1bb935bde1932a7ecfd0d4629022c1172dc113a9635d1927b576201483045022100af895f5cc1926c659cc151c22d7dace94879cc65cfde0a1cc903382013169e5802205395355e1f2ddd25ea4d6d3d9cd9633a20a6fa953718b96bc30ef854a5f437860147522102a2f2df4eac2eb9c8f28fb41b9dc11261b47dc753169a8fbb07dfc371604ab9a3210272b0cdfbf7f3dd59c0aa752a078c84dddd13062081b565fb3201c9d4eb3356b652ae00000000", "vin": [{"txinwitness": ["", "3045022100a8e325ea681d7e368e5a01038f884059bf88eb070023dbfc24c4847f93d201f002202eda6dc32e447e42f1b5d3d9071bafd33d15c071b8f50d70e2da201f54cb21a701", "304402201681255f63bd80b63f92a48a86e8fe624c378bb90abaf46137ca7fe3b78f58ce02204558f29882b69f5aa1f8171c068466727330da141ec8ba54aba0a1a3455bc31a01", "5221023176fd30ea65e858e5ca926fdc45be2bc7a3ce6f4224a5a49433b6495b0b5985210272b0cdfbf7f3dd59c0aa752a078c84dddd13062081b565fb3201c9d4eb3356b652ae"], "sequence": 4294967295, "scriptSig": {"hex": "220020ccc49cd248ef180a8b69581b18bd557c0db14e1532f46252715e06103d0b6361", "asm": "0020ccc49cd248ef180a8b69581b18bd557c0db14e1532f46252715e06103d0b6361"}, "vout": 1, "txid": "fa6b2dec722a3ec975b3fe61e07942e6fce7f9993363944bf59ec99b6a2122f3"}, {"txinwitness": ["", "3044022057a78c5f2b446f037da389ce300ab78db369e844f51df5c89dd085dbf90c78b902206ed9355870c1bb935bde1932a7ecfd0d4629022c1172dc113a9635d1927b576201", "3045022100af895f5cc1926c659cc151c22d7dace94879cc65cfde0a1cc903382013169e5802205395355e1f2ddd25ea4d6d3d9cd9633a20a6fa953718b96bc30ef854a5f4378601", "522102a2f2df4eac2eb9c8f28fb41b9dc11261b47dc753169a8fbb07dfc371604ab9a3210272b0cdfbf7f3dd59c0aa752a078c84dddd13062081b565fb3201c9d4eb3356b652ae"], "sequence": 4294967295, "scriptSig": {"hex": "2200207951ff9dd8ddd05812341bb86fe437f30e3fbd0c74d993225c9d96cd1cf943ac", "asm": "00207951ff9dd8ddd05812341bb86fe437f30e3fbd0c74d993225c9d96cd1cf943ac"}, "vout": 1, "txid": "20218b5a02ce390a66173cc766a17cbd320ecc47bc77f2eefc484e033399a207"}], "txid": "03144441dd9984fba39a98d5f436cfc78675833902a84ccc905a52f1640d59f5", "blocktime": 1537872018, "version": 1, "confirmations": 11489, "time": 1537872018, "locktime": 0, "vsize": 338, "size": 668}