{"hash": "031f6d517a6f55f80eda30c71d27869063790cfbf8d0f8c5bad330ad7fae1872", "blockhash": "00000000000000000018f53835495a110e01622372bf6ae95dc86f2b0ab887b0", "vout": [{"scriptPubKey": {"reqSigs": 1, "hex": "76a914756167a04b2486eef9252b9dfbefcf4aee8c79fc88ac", "addresses": ["1BhekFMtszwuoccebwjff6JUVWtesfEmN2"], "asm": "OP_DUP OP_HASH160 756167a04b2486eef9252b9dfbefcf4aee8c79fc OP_EQUALVERIFY OP_CHECKSIG", "type": "pubkeyhash"}, "value": 3.375e-05, "n": 0}, {"scriptPubKey": {"reqSigs": 1, "hex": "a9147270ada267a225d4ae6f8463cb3b0a3e9de4836f87", "addresses": ["3C87wSC3PioEcX3gPiuqtsZdADzfXufxqo"], "asm": "OP_HASH160 7270ada267a225d4ae6f8463cb3b0a3e9de4836f OP_EQUAL", "type": "scripthash"}, "value": 0.043, "n": 1}], "hex": "0100000005f3e0d7b67b2cc25e5e1a7b87c1bf53a7cab69f10ae87859c80280e15dd89f63d010000006a4730440220233e04bc2dd27e3ea25054ccfdcaf9eced20c1414babcec87b09b60618d5272b02204b7c82640379b6cb2a068783f5c0ec44fc52b98c803d398bbe99a57ff3eb9ae401210246fe4458f1826a5dc21722db889d5808cd481935f33341aa4b810cee38f7c211ffffffffebc96aae5dfdb25e596d1e07042218dccf12e65ac6911d067ac5512048005477010000006b483045022100dfc075155dad64ad5494d6b6b80f5ea6768e0e250801ea8e4298dbba6541bbdf02205d7b07788cc8a3831e023fed83a325cd4bed047e6c5aeabbb76ea0172ed068f601210246fe4458f1826a5dc21722db889d5808cd481935f33341aa4b810cee38f7c211ffffffff7b9e3602837bb1f7598c078282c3aa71a003c18a4c81fef9865f199a444c2278010000006a47304402202f580e45b171201007c5ca6075cda562cfbe424763b90a4a66ea5b154285ed0402200ed134d63218428cd3fcc22b3b852760956383353f1611062f3f696fcdbd4e6201210246fe4458f1826a5dc21722db889d5808cd481935f33341aa4b810cee38f7c211ffffffff9954ebfb58fe18f397823723c61ebe6b5d3a7704e3b610d2e4c46200c45f67c6000000006b483045022100e936f10bcb2f951d544dff54b066f585830f35e8f52575f2381d9c4d6cae39e602202d1e8a56a1512299917ba874701adeaa8d7a45fc0b797dfa8bd60aeea383a2de01210246fe4458f1826a5dc21722db889d5808cd481935f33341aa4b810cee38f7c211ffffffff223bbdecb9f57899e6621ec132728b7537eb39af017e1476424c87a5eab9e4c6000000006b483045022100b5bfeec67563de4776a61243355e8961909b3093160f04d49b1a330f19202dd0022020a21ac81cdb5325d58d039cb7d181964ff2ebf7a8eb31e07f2ee41d2832ddd6012103f3248c25cb6338f21b8a1c15f1ebf238da226ec189be87dca07b0c247d7235b6ffffffff022f0d0000000000001976a914756167a04b2486eef9252b9dfbefcf4aee8c79fc88ace09c41000000000017a9147270ada267a225d4ae6f8463cb3b0a3e9de4836f8700000000", "vin": [{"sequence": 4294967295, "scriptSig": {"hex": "4730440220233e04bc2dd27e3ea25054ccfdcaf9eced20c1414babcec87b09b60618d5272b02204b7c82640379b6cb2a068783f5c0ec44fc52b98c803d398bbe99a57ff3eb9ae401210246fe4458f1826a5dc21722db889d5808cd481935f33341aa4b810cee38f7c211", "asm": "30440220233e04bc2dd27e3ea25054ccfdcaf9eced20c1414babcec87b09b60618d5272b02204b7c82640379b6cb2a068783f5c0ec44fc52b98c803d398bbe99a57ff3eb9ae4[ALL] 0246fe4458f1826a5dc21722db889d5808cd481935f33341aa4b810cee38f7c211"}, "vout": 1, "txid": "3df689dd150e28809c8587ae109fb6caa753bfc1877b1a5e5ec22c7bb6d7e0f3"}, {"sequence": 4294967295, "scriptSig": {"hex": "483045022100dfc075155dad64ad5494d6b6b80f5ea6768e0e250801ea8e4298dbba6541bbdf02205d7b07788cc8a3831e023fed83a325cd4bed047e6c5aeabbb76ea0172ed068f601210246fe4458f1826a5dc21722db889d5808cd481935f33341aa4b810cee38f7c211", "asm": "3045022100dfc075155dad64ad5494d6b6b80f5ea6768e0e250801ea8e4298dbba6541bbdf02205d7b07788cc8a3831e023fed83a325cd4bed047e6c5aeabbb76ea0172ed068f6[ALL] 0246fe4458f1826a5dc21722db889d5808cd481935f33341aa4b810cee38f7c211"}, "vout": 1, "txid": "775400482051c57a061d91c65ae612cfdc182204071e6d595eb2fd5dae6ac9eb"}, {"sequence": 4294967295, "scriptSig": {"hex": "47304402202f580e45b171201007c5ca6075cda562cfbe424763b90a4a66ea5b154285ed0402200ed134d63218428cd3fcc22b3b852760956383353f1611062f3f696fcdbd4e6201210246fe4458f1826a5dc21722db889d5808cd481935f33341aa4b810cee38f7c211", "asm": "304402202f580e45b171201007c5ca6075cda562cfbe424763b90a4a66ea5b154285ed0402200ed134d63218428cd3fcc22b3b852760956383353f1611062f3f696fcdbd4e62[ALL] 0246fe4458f1826a5dc21722db889d5808cd481935f33341aa4b810cee38f7c211"}, "vout": 1, "txid": "78224c449a195f86f9fe814c8ac103a071aac38282078c59f7b17b8302369e7b"}, {"sequence": 4294967295, "scriptSig": {"hex": "483045022100e936f10bcb2f951d544dff54b066f585830f35e8f52575f2381d9c4d6cae39e602202d1e8a56a1512299917ba874701adeaa8d7a45fc0b797dfa8bd60aeea383a2de01210246fe4458f1826a5dc21722db889d5808cd481935f33341aa4b810cee38f7c211", "asm": "3045022100e936f10bcb2f951d544dff54b066f585830f35e8f52575f2381d9c4d6cae39e602202d1e8a56a1512299917ba874701adeaa8d7a45fc0b797dfa8bd60aeea383a2de[ALL] 0246fe4458f1826a5dc21722db889d5808cd481935f33341aa4b810cee38f7c211"}, "vout": 0, "txid": "c6675fc40062c4e4d210b6e304773a5d6bbe1ec623378297f318fe58fbeb5499"}, {"sequence": 4294967295, "scriptSig": {"hex": "483045022100b5bfeec67563de4776a61243355e8961909b3093160f04d49b1a330f19202dd0022020a21ac81cdb5325d58d039cb7d181964ff2ebf7a8eb31e07f2ee41d2832ddd6012103f3248c25cb6338f21b8a1c15f1ebf238da226ec189be87dca07b0c247d7235b6", "asm": "3045022100b5bfeec67563de4776a61243355e8961909b3093160f04d49b1a330f19202dd0022020a21ac81cdb5325d58d039cb7d181964ff2ebf7a8eb31e07f2ee41d2832ddd6[ALL] 03f3248c25cb6338f21b8a1c15f1ebf238da226ec189be87dca07b0c247d7235b6"}, "vout": 0, "txid": "c6e4b9eaa5874c4276147e01af39eb37758b7232c11e62e69978f5b9ecbd3b22"}], "txid": "031f6d517a6f55f80eda30c71d27869063790cfbf8d0f8c5bad330ad7fae1872", "blocktime": 1537870928, "version": 1, "confirmations": 11514, "time": 1537870928, "locktime": 0, "vsize": 814, "size": 814}