{"hash": "12e95570909562ac9441404ef5ee7a415d811d4ee444df86c56e42738f2c5821", "blockhash": "0000000000000000001f0ddff1eddb255c1121bcd4da4f1bc9a0da00cae72433", "vout": [{"scriptPubKey": {"reqSigs": 1, "hex": "76a9144b8db90bac36dddcf2bb1f87dbb6dacc22b9afef88ac", "addresses": ["17tVTTpfKdDT42bNjuAE9TXo8bkRZKj7kL"], "asm": "OP_DUP OP_HASH160 4b8db90bac36dddcf2bb1f87dbb6dacc22b9afef OP_EQUALVERIFY OP_CHECKSIG", "type": "pubkeyhash"}, "value": 0.008, "n": 0}, {"scriptPubKey": {"reqSigs": 1, "hex": "76a914345700e82420cc4fa0f22935861166583601a5e188ac", "addresses": ["15mkN64agBBsKy2CyEvwKt7HUTRm9yUw91"], "asm": "OP_DUP OP_HASH160 345700e82420cc4fa0f22935861166583601a5e1 OP_EQUALVERIFY OP_CHECKSIG", "type": "pubkeyhash"}, "value": 0.04050732, "n": 1}, {"scriptPubKey": {"reqSigs": 1, "hex": "0020701a8d401c84fb13e6baf169d59684e17abd9fa216c8cc5b9fc63d622ff8c58d", "addresses": ["bc1qwqdg6squsna38e46795at95yu9atm8azzmyvckulcc7kytlcckxswvvzej"], "asm": "0 701a8d401c84fb13e6baf169d59684e17abd9fa216c8cc5b9fc63d622ff8c58d", "type": "witness_v0_scripthash"}, "value": 0.00431785, "n": 2}], "hex": "0100000000010148b1d02570974336f84058d5cf78e27e93a42c1f26ce28262d5df170a2c8f4f00100000000ffffffff0300350c00000000001976a9144b8db90bac36dddcf2bb1f87dbb6dacc22b9afef88ac2ccf3d00000000001976a914345700e82420cc4fa0f22935861166583601a5e188aca996060000000000220020701a8d401c84fb13e6baf169d59684e17abd9fa216c8cc5b9fc63d622ff8c58d040047304402200945c98ec5a58694038b7131d5c3d5a918a053c7a5af9622bd64a5b95e738ce102205bf992344aee6033bcee1198e4202936a0aa3d4534fa1a8acc8c544aa99a8d4701483045022100bd94014fae78f14464faf9b24ef7d3afa629ded426902c79af3f5049013c01060220742e62952536b0d826eb03821594fe93306b4d315fe7e9dd478e7822d771409e016952210375e00eb72e29da82b89367947f29ef34afb75e8654f6ea368e0acdfd92976b7c2103a1b26313f430c4b15bb1fdce663207659d8cac749a0e53d70eff01874496feff2103c96d495bfdd5ba4145e3e046fee45e84a8a48ad05bd8dbb395c011a32cf9f88053ae00000000", "vin": [{"txinwitness": ["", "304402200945c98ec5a58694038b7131d5c3d5a918a053c7a5af9622bd64a5b95e738ce102205bf992344aee6033bcee1198e4202936a0aa3d4534fa1a8acc8c544aa99a8d4701", "3045022100bd94014fae78f14464faf9b24ef7d3afa629ded426902c79af3f5049013c01060220742e62952536b0d826eb03821594fe93306b4d315fe7e9dd478e7822d771409e01", "52210375e00eb72e29da82b89367947f29ef34afb75e8654f6ea368e0acdfd92976b7c2103a1b26313f430c4b15bb1fdce663207659d8cac749a0e53d70eff01874496feff2103c96d495bfdd5ba4145e3e046fee45e84a8a48ad05bd8dbb395c011a32cf9f88053ae"], "sequence": 4294967295, "scriptSig": {"hex": "", "asm": ""}, "vout": 1, "txid": "f0f4c8a270f15d2d2628ce261f2ca4937ee278cfd55840f83643977025d0b148"}], "txid": "032cb9fa00e5e00d1df3484a81c0afe7de37410905067bb3b9c31f77dbb82ab0", "blocktime": 1537872018, "version": 1, "confirmations": 11489, "time": 1537872018, "locktime": 0, "vsize": 226, "size": 417}