{"hash": "1a4a7cc282e7414ffd29c574629f9b54a37237f1d87d9b521a19d5a36bc0c627", "blockhash": "00000000000000000018f53835495a110e01622372bf6ae95dc86f2b0ab887b0", "vout": [{"scriptPubKey": {"reqSigs": 1, "hex": "76a9142636e923872eef0071d121dda60763c0a64bd70388ac", "addresses": ["14V4TZ18rbqdhm9Xz92kriHpyFGPbB49fQ"], "asm": "OP_DUP OP_HASH160 2636e923872eef0071d121dda60763c0a64bd703 OP_EQUALVERIFY OP_CHECKSIG", "type": "pubkeyhash"}, "value": 0.01936904, "n": 0}, {"scriptPubKey": {"reqSigs": 1, "hex": "0014136e63bc430d0f7aa29d5589d999577478a39add", "addresses": ["bc1qzdhx80zrp58h4g5a2kyanx2hw3u28xkal9r9qt"], "asm": "0 136e63bc430d0f7aa29d5589d999577478a39add", "type": "witness_v0_keyhash"}, "value": 0.00012508, "n": 1}], "hex": "01000000000101e78b8a04ee4b9a3cec6361ef3cb4243a0eeb53780e6c683bf645f6b68c19d68500000000171600149a79e3495fe34c1f734c5a79771deaa73407f89effffffff02088e1d00000000001976a9142636e923872eef0071d121dda60763c0a64bd70388acdc30000000000000160014136e63bc430d0f7aa29d5589d999577478a39add02483045022100f61dd2cb0949291413f9476e0ba5a93247a30a2503c04db51fb2c54261cee58202207891130490e72a28b9281357c03d3134e1a09cf73737b476ca86db8150b2e02d0121034c572463ce50dc25ec413694f82fac352273382522c9f6f7bbbfa97aa0d6980600000000", "vin": [{"txinwitness": ["3045022100f61dd2cb0949291413f9476e0ba5a93247a30a2503c04db51fb2c54261cee58202207891130490e72a28b9281357c03d3134e1a09cf73737b476ca86db8150b2e02d01", "034c572463ce50dc25ec413694f82fac352273382522c9f6f7bbbfa97aa0d69806"], "sequence": 4294967295, "scriptSig": {"hex": "1600149a79e3495fe34c1f734c5a79771deaa73407f89e", "asm": "00149a79e3495fe34c1f734c5a79771deaa73407f89e"}, "vout": 0, "txid": "85d6198cb6f645f63b686c0e7853eb0e3a24b43cef6163ec3c9a4bee048a8be7"}], "txid": "032d90116f11146b09b7994d4394b5006229e30e56d0893a5090ebd3d018bcc6", "blocktime": 1537870928, "version": 1, "confirmations": 11514, "time": 1537870928, "locktime": 0, "vsize": 167, "size": 249}