{"hash": "e38d359eddcd54c194e76f5d9dc50277a3fbe5230c0c97be84aa2c3589d1f5ce", "blockhash": "0000000000000000001e0dab787dd257d1dbfcb92a98c2207d5e1078be1f4165", "vout": [{"scriptPubKey": {"reqSigs": 1, "hex": "76a9145aaf5f6f589c9f8958c9e0d0505b9b4bda6bf91788ac", "addresses": ["19GVuP3KAR7GenYBUFSYjgV1G6bqynvkYU"], "asm": "OP_DUP OP_HASH160 5aaf5f6f589c9f8958c9e0d0505b9b4bda6bf917 OP_EQUALVERIFY OP_CHECKSIG", "type": "pubkeyhash"}, "value": 0.051, "n": 0}, {"scriptPubKey": {"reqSigs": 1, "hex": "a9140232b10cc370e96d6f23014a069e3b79fa7bcc5e87", "addresses": ["31te13NCAyeBAJhnR4UmssPiSzzDBVnqtS"], "asm": "OP_HASH160 0232b10cc370e96d6f23014a069e3b79fa7bcc5e OP_EQUAL", "type": "scripthash"}, "value": 0.01004169, "n": 1}], "hex": "02000000000101ae4a0d7bfb8d1750ccb60992faed0f25ee7f6280cd7dbf0b4f5e07aba12090a7000000001716001430f8f4440190604d07368e4b99d4393d2aa5122cfeffffff02e0d14d00000000001976a9145aaf5f6f589c9f8958c9e0d0505b9b4bda6bf91788ac89520f000000000017a9140232b10cc370e96d6f23014a069e3b79fa7bcc5e8702483045022100aceb9335e1fc2a4285bef7a368b3091463801b54a6117623396949f1ec219b800220369b7ce38151d2484bf59ab386986db24f10b48d7469e7a3c00e12101d35da5c012103c299c7fcf2dac327dbc860d14314c89a3a17b0970a6686a8bc0fee5acf46031ebe480800", "vin": [{"txinwitness": ["3045022100aceb9335e1fc2a4285bef7a368b3091463801b54a6117623396949f1ec219b800220369b7ce38151d2484bf59ab386986db24f10b48d7469e7a3c00e12101d35da5c01", "03c299c7fcf2dac327dbc860d14314c89a3a17b0970a6686a8bc0fee5acf46031e"], "sequence": 4294967294, "scriptSig": {"hex": "16001430f8f4440190604d07368e4b99d4393d2aa5122c", "asm": "001430f8f4440190604d07368e4b99d4393d2aa5122c"}, "vout": 0, "txid": "a79020a1ab075e4f0bbf7dcd80627fee250fedfa9209b6cc50178dfb7b0d4aae"}], "txid": "03309b06ae8aa571731f744eefbd394f6ccd76e80fe5013bafc91443b6d34ac9", "blocktime": 1537872475, "version": 2, "confirmations": 11486, "time": 1537872475, "locktime": 542910, "vsize": 168, "size": 250}