{"hash": "0333e04b22a8e1b43ca4afc6e388bab8e9925aad2ad5202b59ef52b2c75d99db", "blockhash": "00000000000000000004ffacab907a6b429b9a5745fa0b75af4234bf69dd7176", "vout": [{"scriptPubKey": {"reqSigs": 1, "hex": "76a914625567937e4c4c40caf91525edaeb2aa1f6156bc88ac", "addresses": ["19xwXpFQ4iWz9wnRqqcTWmCs8XKmrPx4S9"], "asm": "OP_DUP OP_HASH160 625567937e4c4c40caf91525edaeb2aa1f6156bc OP_EQUALVERIFY OP_CHECKSIG", "type": "pubkeyhash"}, "value": 0.31945988, "n": 0}, {"scriptPubKey": {"reqSigs": 1, "hex": "a9147f9a5f59a87bd0c8cffcf1caeb9ce8287d74e54187", "addresses": ["3DKiftjyv1uzEbJfU8zPXmNPv58AU5LyQ6"], "asm": "OP_HASH160 7f9a5f59a87bd0c8cffcf1caeb9ce8287d74e541 OP_EQUAL", "type": "scripthash"}, "value": 0.7, "n": 1}], "hex": "0100000001ffe4e340cae08569eb046619c3509cb1e673442a24110b0bc255139721107f03070000006a473044022032cad7f2470b87be66d0f739b4fd73df3a0b6d3030f29f4de1829eb9104d84eb022054e00d90dbcc7f69a2370214863179abdbb861d21f122aac9468035dcb25319f01210366fc528eac95621a5b661d01e4ebfadb960f697cfc06f4052c28567419e3950affffffff020475e701000000001976a914625567937e4c4c40caf91525edaeb2aa1f6156bc88ac801d2c040000000017a9147f9a5f59a87bd0c8cffcf1caeb9ce8287d74e5418700000000", "vin": [{"sequence": 4294967295, "scriptSig": {"hex": "473044022032cad7f2470b87be66d0f739b4fd73df3a0b6d3030f29f4de1829eb9104d84eb022054e00d90dbcc7f69a2370214863179abdbb861d21f122aac9468035dcb25319f01210366fc528eac95621a5b661d01e4ebfadb960f697cfc06f4052c28567419e3950a", "asm": "3044022032cad7f2470b87be66d0f739b4fd73df3a0b6d3030f29f4de1829eb9104d84eb022054e00d90dbcc7f69a2370214863179abdbb861d21f122aac9468035dcb25319f[ALL] 0366fc528eac95621a5b661d01e4ebfadb960f697cfc06f4052c28567419e3950a"}, "vout": 7, "txid": "037f1021971355c20b0b11242a4473e6b19c50c3196604eb6985e0ca40e3e4ff"}], "txid": "0333e04b22a8e1b43ca4afc6e388bab8e9925aad2ad5202b59ef52b2c75d99db", "blocktime": 1537875543, "version": 1, "confirmations": 11464, "time": 1537875543, "locktime": 0, "vsize": 223, "size": 223}