{"hash": "033967f20cd0913899323185a56806fde10524e71484514d9c0cebb18fb46c13", "blockhash": "0000000000000000001cda96e906b7601b7a6fb1a3b62bca570a9e5d8f4b3de1", "vout": [{"scriptPubKey": {"reqSigs": 1, "hex": "76a9140b3feb218498d39573f454b1d93df000ca3d66f088ac", "addresses": ["122V1F9ohPS4hiJfsXDgfTgqBQL2Ldyf7t"], "asm": "OP_DUP OP_HASH160 0b3feb218498d39573f454b1d93df000ca3d66f0 OP_EQUALVERIFY OP_CHECKSIG", "type": "pubkeyhash"}, "value": 0.01396324, "n": 0}, {"scriptPubKey": {"type": "nulldata", "hex": "6a4c50000077d100018db13301a1b9b350ec67fd425b23cc0f42c2fc38c5e5bf9ae76da98a211a3cc616770e89ddbb7fc9a7f4c6f763565baa14480613be1a3ec7129ebc9a9526289ac0f6612cd74e33776ee4", "asm": "OP_RETURN 000077d100018db13301a1b9b350ec67fd425b23cc0f42c2fc38c5e5bf9ae76da98a211a3cc616770e89ddbb7fc9a7f4c6f763565baa14480613be1a3ec7129ebc9a9526289ac0f6612cd74e33776ee4"}, "value": 0.0, "n": 1}], "hex": "0100000001f53d61f9d6cc411d8a24021dec5a11cd098ba7cd6e87951dacda957b34e9799b000000006b483045022100b726fe9c5ed78c17eebd8197b3a09e7263bfe71fc77a9357c9ecf0aff1e5bc2502202b1a56e03793a365de23191bbf4c274dcadd1d67e99b36d1c65a5ef5219a68ba012103b070d90e6bf08d2b6ef0132a5659c29f0c0b4749ab7439e032f9afbd413e1849ffffffff02644e1500000000001976a9140b3feb218498d39573f454b1d93df000ca3d66f088ac0000000000000000536a4c50000077d100018db13301a1b9b350ec67fd425b23cc0f42c2fc38c5e5bf9ae76da98a211a3cc616770e89ddbb7fc9a7f4c6f763565baa14480613be1a3ec7129ebc9a9526289ac0f6612cd74e33776ee400000000", "vin": [{"sequence": 4294967295, "scriptSig": {"hex": "483045022100b726fe9c5ed78c17eebd8197b3a09e7263bfe71fc77a9357c9ecf0aff1e5bc2502202b1a56e03793a365de23191bbf4c274dcadd1d67e99b36d1c65a5ef5219a68ba012103b070d90e6bf08d2b6ef0132a5659c29f0c0b4749ab7439e032f9afbd413e1849", "asm": "3045022100b726fe9c5ed78c17eebd8197b3a09e7263bfe71fc77a9357c9ecf0aff1e5bc2502202b1a56e03793a365de23191bbf4c274dcadd1d67e99b36d1c65a5ef5219a68ba[ALL] 03b070d90e6bf08d2b6ef0132a5659c29f0c0b4749ab7439e032f9afbd413e1849"}, "vout": 0, "txid": "9b79e9347b95daac1d95876ecda78b09cd115aec1d02248a1d41ccd6f9613df5"}], "txid": "033967f20cd0913899323185a56806fde10524e71484514d9c0cebb18fb46c13", "blocktime": 1537873282, "version": 1, "confirmations": 11484, "time": 1537873282, "locktime": 0, "vsize": 284, "size": 284}