{"hash": "033bfc0cda2c85c139e57c5d05f40a33654b24a306442bd09d0df916a1e7e40e", "blockhash": "000000000000000000022b45ed06c6f4ccd3cf7fb5ba4856ebd2e58215665228", "vout": [{"scriptPubKey": {"reqSigs": 1, "hex": "a914468367f4e8055c861571bc3971c64ea91a88a69087", "addresses": ["387reE5z3FLJ8y8hXMN9ijdg9qqEWHtoLA"], "asm": "OP_HASH160 468367f4e8055c861571bc3971c64ea91a88a690 OP_EQUAL", "type": "scripthash"}, "value": 0.01013, "n": 0}, {"scriptPubKey": {"reqSigs": 1, "hex": "76a91490a7c293cad0cbfe37ba2064bdc44e106961690d88ac", "addresses": ["1EBsGoFYMd5wWeXYjRv6jLGPyXLPfQM2gF"], "asm": "OP_DUP OP_HASH160 90a7c293cad0cbfe37ba2064bdc44e106961690d OP_EQUALVERIFY OP_CHECKSIG", "type": "pubkeyhash"}, "value": 0.03040337, "n": 1}], "hex": "0100000001271ed88c661a845e7579f1906cc3e079a6c2983f799dbe8a8bf8f0f3e4b43a52010000006b4830450221009cae8bac25a82bef7b176697ce7740654f1558e040ae77b50959519032a2378402204244787625679b86453e4df74d6fb98ded23e003c4c1e03195d8a6b608df44740121026e9e52f4ddd3bef94d411e22af28dead6227f626aad56bf84d29dcf61006c29fffffffff0208750f000000000017a914468367f4e8055c861571bc3971c64ea91a88a6908751642e00000000001976a91490a7c293cad0cbfe37ba2064bdc44e106961690d88ac00000000", "vin": [{"sequence": 4294967295, "scriptSig": {"hex": "4830450221009cae8bac25a82bef7b176697ce7740654f1558e040ae77b50959519032a2378402204244787625679b86453e4df74d6fb98ded23e003c4c1e03195d8a6b608df44740121026e9e52f4ddd3bef94d411e22af28dead6227f626aad56bf84d29dcf61006c29f", "asm": "30450221009cae8bac25a82bef7b176697ce7740654f1558e040ae77b50959519032a2378402204244787625679b86453e4df74d6fb98ded23e003c4c1e03195d8a6b608df4474[ALL] 026e9e52f4ddd3bef94d411e22af28dead6227f626aad56bf84d29dcf61006c29f"}, "vout": 1, "txid": "523ab4e4f3f0f88b8abe9d793f98c2a679e0c36c90f179755e841a668cd81e27"}], "txid": "033bfc0cda2c85c139e57c5d05f40a33654b24a306442bd09d0df916a1e7e40e", "blocktime": 1537869901, "version": 1, "confirmations": 11522, "time": 1537869901, "locktime": 0, "vsize": 224, "size": 224}