{"hash": "67d29f537030bce3849eab27b4e37f2a85e4e3d4dfa2ecf842d64cdb450a8fa0", "blockhash": "00000000000000000004ffacab907a6b429b9a5745fa0b75af4234bf69dd7176", "vout": [{"scriptPubKey": {"reqSigs": 1, "hex": "a914b44337f216fcdcf0a5895a72e8c4169a68ef293e87", "addresses": ["3J8A5VuG2KUQmCweiwHBDfv67VqWTciCM2"], "asm": "OP_HASH160 b44337f216fcdcf0a5895a72e8c4169a68ef293e OP_EQUAL", "type": "scripthash"}, "value": 0.01188483, "n": 0}], "hex": "010000000001016db940cb010eaaa12582320359358f29f7fad6a090a2d2aa4be36347d8cc954c0000000017160014d58f23ce012a11a1b1d61af61240f4c0c3a06205ffffffff01832212000000000017a914b44337f216fcdcf0a5895a72e8c4169a68ef293e8702473044022063a0e219c2af0240dec49fdc9ed1d70489aa663406dad2c3a5426d67f1dce9c1022062c18dd7a26dca8e4d4489632f2b53e785ab2dc52209e92a562ec470f5af7051012102021f86aceb9a8eee1fef799d23f9aef22f12f13474c3a3307d6cd48e39be584500000000", "vin": [{"txinwitness": ["3044022063a0e219c2af0240dec49fdc9ed1d70489aa663406dad2c3a5426d67f1dce9c1022062c18dd7a26dca8e4d4489632f2b53e785ab2dc52209e92a562ec470f5af705101", "02021f86aceb9a8eee1fef799d23f9aef22f12f13474c3a3307d6cd48e39be5845"], "sequence": 4294967295, "scriptSig": {"hex": "160014d58f23ce012a11a1b1d61af61240f4c0c3a06205", "asm": "0014d58f23ce012a11a1b1d61af61240f4c0c3a06205"}, "vout": 0, "txid": "4c95ccd84763e34baad2a290a0d6faf7298f355903328225a1aa0e01cb40b96d"}], "txid": "03442ee4ebe003ed7d8a885f386ca6b05fdfc4e92ce22a4f4f4a271aca8a190b", "blocktime": 1537875543, "version": 1, "confirmations": 11464, "time": 1537875543, "locktime": 0, "vsize": 134, "size": 215}