{"hash": "0346b77d143c2c5c1fb1ca22ee5e0bf7de7232ae782068e49587012a4b6ba081", "blockhash": "0000000000000000001f0ddff1eddb255c1121bcd4da4f1bc9a0da00cae72433", "vout": [{"scriptPubKey": {"reqSigs": 1, "hex": "76a9146fbef55e448c2e5b21f7f0f93a1e36c6d54c0c6b88ac", "addresses": ["1BBrmKaLAsHM4DgdkQ8HuRjFEs67tQFumQ"], "asm": "OP_DUP OP_HASH160 6fbef55e448c2e5b21f7f0f93a1e36c6d54c0c6b OP_EQUALVERIFY OP_CHECKSIG", "type": "pubkeyhash"}, "value": 0.11390911, "n": 0}], "hex": "02000000017597c8abec5d8a50207a38f09f7e13bd5b0a8d0a0c3d485fcd213d1f4373fce9010000008a4730440220261faeda50392c634342ad92c4748bbfcb759757e405f5594ee2d32b3ed0373002201108a7cef0321f599d1799cd87f8314310a4c7c26d8c749795f9cb42a2c51f67014104ed62e056f2ac2d2e16b96e0cb0f2b0c67565cc4abb2508fa5f1483f70963a49609349e7e5e7e45abc4575a652f112bb7b09ccd914d9fff3250b14b12f0e7158effffffff01bfcfad00000000001976a9146fbef55e448c2e5b21f7f0f93a1e36c6d54c0c6b88ac00000000", "vin": [{"sequence": 4294967295, "scriptSig": {"hex": "4730440220261faeda50392c634342ad92c4748bbfcb759757e405f5594ee2d32b3ed0373002201108a7cef0321f599d1799cd87f8314310a4c7c26d8c749795f9cb42a2c51f67014104ed62e056f2ac2d2e16b96e0cb0f2b0c67565cc4abb2508fa5f1483f70963a49609349e7e5e7e45abc4575a652f112bb7b09ccd914d9fff3250b14b12f0e7158e", "asm": "30440220261faeda50392c634342ad92c4748bbfcb759757e405f5594ee2d32b3ed0373002201108a7cef0321f599d1799cd87f8314310a4c7c26d8c749795f9cb42a2c51f67[ALL] 04ed62e056f2ac2d2e16b96e0cb0f2b0c67565cc4abb2508fa5f1483f70963a49609349e7e5e7e45abc4575a652f112bb7b09ccd914d9fff3250b14b12f0e7158e"}, "vout": 1, "txid": "e9fc73431f3d21cd5f483d0c0a8d0a5bbd137e9ff0387a20508a5decabc89775"}], "txid": "0346b77d143c2c5c1fb1ca22ee5e0bf7de7232ae782068e49587012a4b6ba081", "blocktime": 1537872018, "version": 2, "confirmations": 11489, "time": 1537872018, "locktime": 0, "vsize": 223, "size": 223}