{"hash": "cac96ff9f1ad4d10f33524ae493fca6c36456e0819db63020be2136d938843e3", "blockhash": "00000000000000000024a2167bbff67b0be802c0b01cdd79e6331c2be6459f87", "vout": [{"scriptPubKey": {"reqSigs": 1, "hex": "a914224528162477a8d0e9bf05f4d7dafd949bc78a3487", "addresses": ["34pDk9eh4fpSqo5aDzga1xCoCRZf6nWowe"], "asm": "OP_HASH160 224528162477a8d0e9bf05f4d7dafd949bc78a34 OP_EQUAL", "type": "scripthash"}, "value": 0.03574014, "n": 0}, {"scriptPubKey": {"reqSigs": 1, "hex": "001417f5227c87327961df37627647ea49411fe60f41", "addresses": ["bc1qzl6jyly8xfukrhehvfmy06jfgy07vr6pk9fvp6"], "asm": "0 17f5227c87327961df37627647ea49411fe60f41", "type": "witness_v0_keyhash"}, "value": 0.00732687, "n": 1}], "hex": "01000000000101db8b73dae6ddf4760a4b0c3abf06d107ba4c38d52f4f0fb76e7a0890825f057a0100000000ffffffff02fe8836000000000017a914224528162477a8d0e9bf05f4d7dafd949bc78a34870f2e0b000000000016001417f5227c87327961df37627647ea49411fe60f4102483045022100af69387602d041a36697e8d03292934fbca68da0cb6ed352f9d50ae89c111b6302201e0d02e17b81a561f84e39987c03314ef0b864229e8adf46b9c1964118cc20ef01210229294a45ed200575452148b97109b5fa607f84087fe208369faefa39620075d600000000", "vin": [{"txinwitness": ["3045022100af69387602d041a36697e8d03292934fbca68da0cb6ed352f9d50ae89c111b6302201e0d02e17b81a561f84e39987c03314ef0b864229e8adf46b9c1964118cc20ef01", "0229294a45ed200575452148b97109b5fa607f84087fe208369faefa39620075d6"], "sequence": 4294967295, "scriptSig": {"hex": "", "asm": ""}, "vout": 1, "txid": "7a055f8290087a6eb70f4f2fd5384cba07d106bf3a0c4b0a76f4dde6da738bdb"}], "txid": "0348e9d78074f8b1baa66df0c4094e3822f27bc8681a8c37d503ecfd8439dd3f", "blocktime": 1537870564, "version": 1, "confirmations": 11515, "time": 1537870564, "locktime": 0, "vsize": 142, "size": 224}