{"hash": "0351a79e9cf1f190129fd769ddc7b8ccd26bb66ad68c35ab3acf2ed4cfee26eb", "blockhash": "0000000000000000000baef3f32e3676a92c3b2e5da21b426e4f302fc371ce76", "vout": [{"scriptPubKey": {"reqSigs": 1, "hex": "76a914ecb4129210eed639d9c65b1116e911792d93c73a88ac", "addresses": ["1NaaBw2YJKUpYfS3PnReYfeucNC5jRMrbP"], "asm": "OP_DUP OP_HASH160 ecb4129210eed639d9c65b1116e911792d93c73a OP_EQUALVERIFY OP_CHECKSIG", "type": "pubkeyhash"}, "value": 0.00629746, "n": 0}, {"scriptPubKey": {"type": "nulldata", "hex": "6a4c5000007829000157eebd27b7256b4774d339f6019d6ddc0f1b8ff117702940d64fa54d8eb27385e5af92a7dd1658fbad0c4fc619325baa1e8b0613eb77d51649ea1d100759d4ba30d2c37bb011d97e02cf", "asm": "OP_RETURN 00007829000157eebd27b7256b4774d339f6019d6ddc0f1b8ff117702940d64fa54d8eb27385e5af92a7dd1658fbad0c4fc619325baa1e8b0613eb77d51649ea1d100759d4ba30d2c37bb011d97e02cf"}, "value": 0.0, "n": 1}], "hex": "0100000001f1dae67afa4e90579be80b9cefc6515e5ef3b2031985c9f4689fcbc3fb0a5ef3010000006a47304402206fa09fb9b0682262f9bbb677c2a106b140ba856ce0b83f66143abce3ad5acff802200a6707f07399ea7284dd0a65ab1cf92e0232c33ca9e6a37a76b1e8cfbce5eec501210227d6f730e90c38861e15c9558eef104ebab7863e7066c1f46749f9ad7f2029b8ffffffff02f29b0900000000001976a914ecb4129210eed639d9c65b1116e911792d93c73a88ac0000000000000000536a4c5000007829000157eebd27b7256b4774d339f6019d6ddc0f1b8ff117702940d64fa54d8eb27385e5af92a7dd1658fbad0c4fc619325baa1e8b0613eb77d51649ea1d100759d4ba30d2c37bb011d97e02cf00000000", "vin": [{"sequence": 4294967295, "scriptSig": {"hex": "47304402206fa09fb9b0682262f9bbb677c2a106b140ba856ce0b83f66143abce3ad5acff802200a6707f07399ea7284dd0a65ab1cf92e0232c33ca9e6a37a76b1e8cfbce5eec501210227d6f730e90c38861e15c9558eef104ebab7863e7066c1f46749f9ad7f2029b8", "asm": "304402206fa09fb9b0682262f9bbb677c2a106b140ba856ce0b83f66143abce3ad5acff802200a6707f07399ea7284dd0a65ab1cf92e0232c33ca9e6a37a76b1e8cfbce5eec5[ALL] 0227d6f730e90c38861e15c9558eef104ebab7863e7066c1f46749f9ad7f2029b8"}, "vout": 1, "txid": "f35e0afbc3cb9f68f4c9851903b2f35e5e51c6ef9c0be89b57904efa7ae6daf1"}], "txid": "0351a79e9cf1f190129fd769ddc7b8ccd26bb66ad68c35ab3acf2ed4cfee26eb", "blocktime": 1537876114, "version": 1, "confirmations": 11463, "time": 1537876114, "locktime": 0, "vsize": 283, "size": 283}