{"hash": "0357a8385fb6a3679c168e1910ff59153b2effde25e7c04c480dc77a356c2539", "blockhash": "0000000000000000001f76057863aec43deb6fa401d9628bb513d65a8098bfab", "vout": [{"scriptPubKey": {"reqSigs": 1, "hex": "76a91461f479afbcf38f939d9d0b55aba5b6457207b7b888ac", "addresses": ["19vwR41JRjWWvWasooYvMspXW3V4XukBg3"], "asm": "OP_DUP OP_HASH160 61f479afbcf38f939d9d0b55aba5b6457207b7b8 OP_EQUALVERIFY OP_CHECKSIG", "type": "pubkeyhash"}, "value": 0.0005, "n": 0}, {"scriptPubKey": {"reqSigs": 1, "hex": "76a914e349bc52d6b8100b58d3fce45135a91c5c128a1d88ac", "addresses": ["1MiningDkXkhKaXBTMKXfLemnk1YY5rbkT"], "asm": "OP_DUP OP_HASH160 e349bc52d6b8100b58d3fce45135a91c5c128a1d OP_EQUALVERIFY OP_CHECKSIG", "type": "pubkeyhash"}, "value": 0.0033131, "n": 1}], "hex": "02000000011ef833c277de18081afdb6be71f5653fdbae8cf8a6b3a23cbdb1180bccc23f7d010000008a47304402207c0a6e3e6cd41300d4ca6bab87ccd4dcb627bde6331868389257a086577676220220108c0f07caa84218d7c265c669d24092db298e35d6a2d90e6bb77244d26a764d014104ae414abde7876c34e01694b38b2341d10b9b4c8db18a66262bd8df26bcb57893885c9fe8b79aa25330d5f05bb5aa9ab636a908a72e27956572b44190b22809beffffffff0250c30000000000001976a91461f479afbcf38f939d9d0b55aba5b6457207b7b888ac2e0e0500000000001976a914e349bc52d6b8100b58d3fce45135a91c5c128a1d88ac00000000", "vin": [{"sequence": 4294967295, "scriptSig": {"hex": "47304402207c0a6e3e6cd41300d4ca6bab87ccd4dcb627bde6331868389257a086577676220220108c0f07caa84218d7c265c669d24092db298e35d6a2d90e6bb77244d26a764d014104ae414abde7876c34e01694b38b2341d10b9b4c8db18a66262bd8df26bcb57893885c9fe8b79aa25330d5f05bb5aa9ab636a908a72e27956572b44190b22809be", "asm": "304402207c0a6e3e6cd41300d4ca6bab87ccd4dcb627bde6331868389257a086577676220220108c0f07caa84218d7c265c669d24092db298e35d6a2d90e6bb77244d26a764d[ALL] 04ae414abde7876c34e01694b38b2341d10b9b4c8db18a66262bd8df26bcb57893885c9fe8b79aa25330d5f05bb5aa9ab636a908a72e27956572b44190b22809be"}, "vout": 1, "txid": "7d3fc2cc0b18b1bd3ca2b3a6f88caedb3f65f571beb6fd1a0818de77c233f81e"}], "txid": "0357a8385fb6a3679c168e1910ff59153b2effde25e7c04c480dc77a356c2539", "blocktime": 1537873891, "version": 2, "confirmations": 11478, "time": 1537873891, "locktime": 0, "vsize": 257, "size": 257}