{"hash": "036357a8ba022e6c59f28fcda507a00eca3a39a416b38839cc12a638e4b614b4", "blockhash": "00000000000000000018f53835495a110e01622372bf6ae95dc86f2b0ab887b0", "vout": [{"scriptPubKey": {"reqSigs": 1, "hex": "76a914209806c0d1ef01fac628cfd7430e8dbbec3833dd88ac", "addresses": ["13yLk7mJGky4UaXaZ9iFDjm7dDXoVEmVBE"], "asm": "OP_DUP OP_HASH160 209806c0d1ef01fac628cfd7430e8dbbec3833dd OP_EQUALVERIFY OP_CHECKSIG", "type": "pubkeyhash"}, "value": 0.0094738, "n": 0}, {"scriptPubKey": {"reqSigs": 1, "hex": "76a9143952f1fa2149f3f1e88f0deccf7e0858a6ade74088ac", "addresses": ["16E6t52f3FTzJjd2oMpUQ21SMN5A9UcSzo"], "asm": "OP_DUP OP_HASH160 3952f1fa2149f3f1e88f0deccf7e0858a6ade740 OP_EQUALVERIFY OP_CHECKSIG", "type": "pubkeyhash"}, "value": 0.05078963, "n": 1}], "hex": "0100000001c5311db5b47735e4b76c36ee9a6dafc3e34abbfaad9998696c147cad7b4276f0010000006b483045022100c4c1ad4b5f36453dd0696a3037b23c055e2e5083a2cfc235017a7d2c747468d0022036090b0a172ec9f9bf55963adf3b27e1feda831f67ba71b1f2c56c6193238589012102911cb110a5b5f34cc5215aff7a043a2275e0354246afb82e83da07eceef7e1f0ffffffff02b4740e00000000001976a914209806c0d1ef01fac628cfd7430e8dbbec3833dd88acb37f4d00000000001976a9143952f1fa2149f3f1e88f0deccf7e0858a6ade74088ac00000000", "vin": [{"sequence": 4294967295, "scriptSig": {"hex": "483045022100c4c1ad4b5f36453dd0696a3037b23c055e2e5083a2cfc235017a7d2c747468d0022036090b0a172ec9f9bf55963adf3b27e1feda831f67ba71b1f2c56c6193238589012102911cb110a5b5f34cc5215aff7a043a2275e0354246afb82e83da07eceef7e1f0", "asm": "3045022100c4c1ad4b5f36453dd0696a3037b23c055e2e5083a2cfc235017a7d2c747468d0022036090b0a172ec9f9bf55963adf3b27e1feda831f67ba71b1f2c56c6193238589[ALL] 02911cb110a5b5f34cc5215aff7a043a2275e0354246afb82e83da07eceef7e1f0"}, "vout": 1, "txid": "f076427bad7c146c699899adfabb4ae3c3af6d9aee366cb7e43577b4b51d31c5"}], "txid": "036357a8ba022e6c59f28fcda507a00eca3a39a416b38839cc12a638e4b614b4", "blocktime": 1537870928, "version": 1, "confirmations": 11514, "time": 1537870928, "locktime": 0, "vsize": 226, "size": 226}