{"hash": "03647abae5c48c20f79fd8e1e36201fd82ed89ab358e0189dfa85c396d58dd64", "blockhash": "0000000000000000000e13cef7c366c0283d82e591d1acd082e914b08063cdf1", "vout": [{"scriptPubKey": {"reqSigs": 1, "hex": "a914c682d76a4b5367c7bd971e2da015e68e7ccefa2c87", "addresses": ["3KneTYtS1F9XoKGD2gQ7HJtbedGumXNykv"], "asm": "OP_HASH160 c682d76a4b5367c7bd971e2da015e68e7ccefa2c OP_EQUAL", "type": "scripthash"}, "value": 0.099, "n": 0}, {"scriptPubKey": {"reqSigs": 1, "hex": "76a914b6bd2287365c147270099d439b49637e8889e22a88ac", "addresses": ["1HfEZEcU8An8hhDFpWbRtw8BpsBLMHj8BV"], "asm": "OP_DUP OP_HASH160 b6bd2287365c147270099d439b49637e8889e22a OP_EQUALVERIFY OP_CHECKSIG", "type": "pubkeyhash"}, "value": 0.19613566, "n": 1}], "hex": "01000000018230866d8510b2627eb13578936ffab9e3ad43f9177cd5c48b652b66463280e5b90000006a473044022050aef2ff3529517ae4a1f8df141533b766f006786677c0a13fb925ba655eaf1f02202534b88b229b71d42871a42700cbe5b3f1b15c5e537302303551a6bb22d4279a012102ecb824785821362f301bf0dac892f22d4b75af0264c54e5d61da2c39a145653affffffff02e00f97000000000017a914c682d76a4b5367c7bd971e2da015e68e7ccefa2c877e472b01000000001976a914b6bd2287365c147270099d439b49637e8889e22a88ac00000000", "vin": [{"sequence": 4294967295, "scriptSig": {"hex": "473044022050aef2ff3529517ae4a1f8df141533b766f006786677c0a13fb925ba655eaf1f02202534b88b229b71d42871a42700cbe5b3f1b15c5e537302303551a6bb22d4279a012102ecb824785821362f301bf0dac892f22d4b75af0264c54e5d61da2c39a145653a", "asm": "3044022050aef2ff3529517ae4a1f8df141533b766f006786677c0a13fb925ba655eaf1f02202534b88b229b71d42871a42700cbe5b3f1b15c5e537302303551a6bb22d4279a[ALL] 02ecb824785821362f301bf0dac892f22d4b75af0264c54e5d61da2c39a145653a"}, "vout": 185, "txid": "e5803246662b658bc4d57c17f943ade3b9fa6f937835b17e62b210856d863082"}], "txid": "03647abae5c48c20f79fd8e1e36201fd82ed89ab358e0189dfa85c396d58dd64", "blocktime": 1537871767, "version": 1, "confirmations": 11490, "time": 1537871767, "locktime": 0, "vsize": 223, "size": 223}