{"hash": "036773bb7ce84300a0a6a6f7736c39c1746e7f591ca7a5cc14984054ece807d3", "blockhash": "0000000000000000000e13cef7c366c0283d82e591d1acd082e914b08063cdf1", "vout": [{"scriptPubKey": {"type": "nulldata", "hex": "6a4c500000779f00011bbada52bea64deb80d417c6af6c953dd567cf27e7e3ef3236678a6250976338b0447b36ee276d347b71a7e1b8ac5baa0e0e061705ecdd3a27bc1d100759d4ba30d2c37bb011d97e02cf", "asm": "OP_RETURN 0000779f00011bbada52bea64deb80d417c6af6c953dd567cf27e7e3ef3236678a6250976338b0447b36ee276d347b71a7e1b8ac5baa0e0e061705ecdd3a27bc1d100759d4ba30d2c37bb011d97e02cf"}, "value": 0.0, "n": 0}, {"scriptPubKey": {"reqSigs": 1, "hex": "76a91484fdb85c29a2d6ae7c141dcbcb07bbc215a1d1c288ac", "addresses": ["1D8C97DNvTYti2xLrmPgwAWYMUze1tkTQZ"], "asm": "OP_DUP OP_HASH160 84fdb85c29a2d6ae7c141dcbcb07bbc215a1d1c2 OP_EQUALVERIFY OP_CHECKSIG", "type": "pubkeyhash"}, "value": 0.00643106, "n": 1}], "hex": "0100000001ddaeb6c8ed042a06296893eb92072a1fcf157e8e7857aeb983fd792ba99bf0a8000000006a4730440220725b90d17a2c9d4626dfa25e4d350c1db89f8622452ce70b130834f0d0fed8b502204cea598130fa85036120421621b77cfada9347f983108c345c3fb1393a7ad7da01210256512c0ce976b8db0778ff925af64e24b7a286ef37ef830d4de0adcce804e824ffffffff020000000000000000536a4c500000779f00011bbada52bea64deb80d417c6af6c953dd567cf27e7e3ef3236678a6250976338b0447b36ee276d347b71a7e1b8ac5baa0e0e061705ecdd3a27bc1d100759d4ba30d2c37bb011d97e02cf22d00900000000001976a91484fdb85c29a2d6ae7c141dcbcb07bbc215a1d1c288ac00000000", "vin": [{"sequence": 4294967295, "scriptSig": {"hex": "4730440220725b90d17a2c9d4626dfa25e4d350c1db89f8622452ce70b130834f0d0fed8b502204cea598130fa85036120421621b77cfada9347f983108c345c3fb1393a7ad7da01210256512c0ce976b8db0778ff925af64e24b7a286ef37ef830d4de0adcce804e824", "asm": "30440220725b90d17a2c9d4626dfa25e4d350c1db89f8622452ce70b130834f0d0fed8b502204cea598130fa85036120421621b77cfada9347f983108c345c3fb1393a7ad7da[ALL] 0256512c0ce976b8db0778ff925af64e24b7a286ef37ef830d4de0adcce804e824"}, "vout": 0, "txid": "a8f09ba92b79fd83b9ae57788e7e15cf1f2a0792eb936829062a04edc8b6aedd"}], "txid": "036773bb7ce84300a0a6a6f7736c39c1746e7f591ca7a5cc14984054ece807d3", "blocktime": 1537871767, "version": 1, "confirmations": 11495, "time": 1537871767, "locktime": 0, "vsize": 283, "size": 283}