{"hash": "37bb9b7fe8e7fe8bfd5ac751ae6453bac2d5f72a7b3b81a5c1eced7e07230502", "blockhash": "0000000000000000001cda96e906b7601b7a6fb1a3b62bca570a9e5d8f4b3de1", "vout": [{"scriptPubKey": {"reqSigs": 1, "hex": "a9147dc190649a1ad76a049d482dbcfabf24aa2d301c87", "addresses": ["3D9xGb2a6iLU5Vgz5UiJSeMjas8cHMZpcX"], "asm": "OP_HASH160 7dc190649a1ad76a049d482dbcfabf24aa2d301c OP_EQUAL", "type": "scripthash"}, "value": 0.00091455, "n": 0}, {"scriptPubKey": {"reqSigs": 1, "hex": "a91421e71d60887b5485222ef3d68bf122c4d640887987", "addresses": ["34nH61TrYMRnxNksDyq65GZHaqvUFnEQwF"], "asm": "OP_HASH160 21e71d60887b5485222ef3d68bf122c4d6408879 OP_EQUAL", "type": "scripthash"}, "value": 0.01018882, "n": 1}], "hex": "020000000001013cabb4076b89839b4ad7b03add1d5628ad203224ea63a203f855311c9062b85f000000001716001494d1db6162fcf8337e6f25ab909f7c30d54b7259feffffff023f6501000000000017a9147dc190649a1ad76a049d482dbcfabf24aa2d301c87028c0f000000000017a91421e71d60887b5485222ef3d68bf122c4d64088798702483045022100fd2a7a25e7a7ed9e56a3d5ac8e01f842d2be12f028773c74150eca3ed5ec491002203dc1e7211c9de6eedb09f61a247b8a891233ad9d85a3b6d88682555bd1cbfc0201210245cec58d3053dc8342c9acd679482564f123799d764f3fe83b52c5b624df815c13490800", "vin": [{"txinwitness": ["3045022100fd2a7a25e7a7ed9e56a3d5ac8e01f842d2be12f028773c74150eca3ed5ec491002203dc1e7211c9de6eedb09f61a247b8a891233ad9d85a3b6d88682555bd1cbfc0201", "0245cec58d3053dc8342c9acd679482564f123799d764f3fe83b52c5b624df815c"], "sequence": 4294967294, "scriptSig": {"hex": "16001494d1db6162fcf8337e6f25ab909f7c30d54b7259", "asm": "001494d1db6162fcf8337e6f25ab909f7c30d54b7259"}, "vout": 0, "txid": "5fb862901c3155f803a263ea243220ad28561ddd3ab0d74a9b83896b07b4ab3c"}], "txid": "036df9abb635853be1891b9ad99bd01be3dc72a18f4db140939ef239ea547a05", "blocktime": 1537873282, "version": 2, "confirmations": 11485, "time": 1537873282, "locktime": 542995, "vsize": 166, "size": 248}