{"hash": "7be7eb630745d209a8948b7db93d0006e14d4b2c82c3f8e4c981dc2f4e779ff2", "blockhash": "00000000000000000004ffacab907a6b429b9a5745fa0b75af4234bf69dd7176", "vout": [{"scriptPubKey": {"reqSigs": 1, "hex": "76a914a778a43fc352a59a32e563ae7c164c44b06e195788ac", "addresses": ["1GGWNMvvcCfSsTNJMWVJGk7aasnnADBnku"], "asm": "OP_DUP OP_HASH160 a778a43fc352a59a32e563ae7c164c44b06e1957 OP_EQUALVERIFY OP_CHECKSIG", "type": "pubkeyhash"}, "value": 0.034094, "n": 0}, {"scriptPubKey": {"reqSigs": 1, "hex": "a914dee0a1cc9f055700143e0f4ecee53180ab3530dc87", "addresses": ["3N1V2qWA5hpScEmS72pMooYRmXUiLmwPQQ"], "asm": "OP_HASH160 dee0a1cc9f055700143e0f4ecee53180ab3530dc OP_EQUAL", "type": "scripthash"}, "value": 0.92355838, "n": 1}], "hex": "020000000001015593c82e1b2c9076d86950d998b6478a27d8c53526419bcbe013c2340e5e52910100000017160014cb5dbe423de4d42b6425c6921084c6197a5d2937ffffffff02f8053400000000001976a914a778a43fc352a59a32e563ae7c164c44b06e195788acfe3c81050000000017a914dee0a1cc9f055700143e0f4ecee53180ab3530dc870247304402205059c0d7db41918bd9c86252779c7ee54264c9b2f7aa06dc1d1fd6432c4809d40220265f9ddf8d92da1bab7892bda810d504fe2618e1b42ea7631004331e3ca7213a012102acecad485eda786cbe0422823b7594aea6854abb5ec85e267f1c4b87f3f758f700000000", "vin": [{"txinwitness": ["304402205059c0d7db41918bd9c86252779c7ee54264c9b2f7aa06dc1d1fd6432c4809d40220265f9ddf8d92da1bab7892bda810d504fe2618e1b42ea7631004331e3ca7213a01", "02acecad485eda786cbe0422823b7594aea6854abb5ec85e267f1c4b87f3f758f7"], "sequence": 4294967295, "scriptSig": {"hex": "160014cb5dbe423de4d42b6425c6921084c6197a5d2937", "asm": "0014cb5dbe423de4d42b6425c6921084c6197a5d2937"}, "vout": 1, "txid": "91525e0e34c213e0cb9b412635c5d8278a47b698d95069d876902c1b2ec89355"}], "txid": "037367170d123cb3f2df90292ec020d5eeb08d8f30b8432d7de554a02a7cc6a0", "blocktime": 1537875543, "version": 2, "confirmations": 11464, "time": 1537875543, "locktime": 0, "vsize": 168, "size": 249}