{"hash": "d979d741bde969ddc922f77e811d2fa36ead7baf22c02899a6fdc381189986ba", "blockhash": "000000000000000000022b45ed06c6f4ccd3cf7fb5ba4856ebd2e58215665228", "vout": [{"scriptPubKey": {"reqSigs": 1, "hex": "a914d5a3332d259d7399a1ddd22402b2d9f8ea9f50e287", "addresses": ["3MAdMjQj8VHdXKGGwBkTZSCPNczpRJ9bPX"], "asm": "OP_HASH160 d5a3332d259d7399a1ddd22402b2d9f8ea9f50e2 OP_EQUAL", "type": "scripthash"}, "value": 0.01036542, "n": 0}, {"scriptPubKey": {"reqSigs": 1, "hex": "76a914adc81356832723c826cae7ecc74b59f9d11419f188ac", "addresses": ["1GqsagNWtfmpHDttqXmENw2Xo1EQXT32TZ"], "asm": "OP_DUP OP_HASH160 adc81356832723c826cae7ecc74b59f9d11419f1 OP_EQUALVERIFY OP_CHECKSIG", "type": "pubkeyhash"}, "value": 0.0022806, "n": 1}], "hex": "02000000000102259199de79b13eb3574b886d7e8722bd09893cce8744f04aa071a36cc0503d5101000000171600149d66c338284100eca4bc51d125e8d0e67d04db11fefffffff9eda444024818d120713fe351d7bd3f73422c36216e775b39591f1bf4c544f80900000017160014c2dbff27f0c8025ba6842f2632da3910704dbc4ffeffffff02fed00f000000000017a914d5a3332d259d7399a1ddd22402b2d9f8ea9f50e287dc7a0300000000001976a914adc81356832723c826cae7ecc74b59f9d11419f188ac02483045022100b504306ea3b3aec5faa34fbcf25498d351ab76233c33c050ed0b2680527ffb810220611d490e3b0fa7b7e3598667710701705da278349509b79c7d5bd17be11e6b2a012103c645b5b8524fcfd7c192c972dd5c8d2699614ec5a3c91d5d9dd18205b201c31602483045022100b4b8fad851e3787736ea1a7954f705cd7c443c2f3c4849279ba6466b767fdb8b02207731b17c6f4642a972980eadb1f96b83de4f1479b1155e778553ea3a290f5529012103332950a59f58b910b2953734a5887ab87a72eefdaedcf30d23de0082ac956bbc0b490800", "vin": [{"txinwitness": ["3045022100b504306ea3b3aec5faa34fbcf25498d351ab76233c33c050ed0b2680527ffb810220611d490e3b0fa7b7e3598667710701705da278349509b79c7d5bd17be11e6b2a01", "03c645b5b8524fcfd7c192c972dd5c8d2699614ec5a3c91d5d9dd18205b201c316"], "sequence": 4294967294, "scriptSig": {"hex": "1600149d66c338284100eca4bc51d125e8d0e67d04db11", "asm": "00149d66c338284100eca4bc51d125e8d0e67d04db11"}, "vout": 1, "txid": "513d50c06ca371a04af04487ce3c8909bd22877e6d884b57b33eb179de999125"}, {"txinwitness": ["3045022100b4b8fad851e3787736ea1a7954f705cd7c443c2f3c4849279ba6466b767fdb8b02207731b17c6f4642a972980eadb1f96b83de4f1479b1155e778553ea3a290f552901", "03332950a59f58b910b2953734a5887ab87a72eefdaedcf30d23de0082ac956bbc"], "sequence": 4294967294, "scriptSig": {"hex": "160014c2dbff27f0c8025ba6842f2632da3910704dbc4f", "asm": "0014c2dbff27f0c8025ba6842f2632da3910704dbc4f"}, "vout": 9, "txid": "f844c5f41b1f59395b776e21362c42733fbdd751e33f7120d118480244a4edf9"}], "txid": "0378278f795606d92647673332517627effbbd5d9c67f3441f8516ddf05c7f8b", "blocktime": 1537869901, "version": 2, "confirmations": 11524, "time": 1537869901, "locktime": 542987, "vsize": 259, "size": 422}