{"hash": "121b0548f8274d5cc471188505eae179e7801078681912a5a680e366fc9b0d2b", "blockhash": "0000000000000000000dcc0f55137456b1a82d3642486a52398922ac4d620174", "vout": [{"scriptPubKey": {"reqSigs": 1, "hex": "76a914f5be2e8f92955a2bad3d2dcdab0a225e48d1e1de88ac", "addresses": ["1PQNP4tRj1KqZzYiTrAL6qUuFQHa8GD6dV"], "asm": "OP_DUP OP_HASH160 f5be2e8f92955a2bad3d2dcdab0a225e48d1e1de OP_EQUALVERIFY OP_CHECKSIG", "type": "pubkeyhash"}, "value": 0.0025, "n": 0}, {"scriptPubKey": {"reqSigs": 1, "hex": "76a914972438f56dde5135022db49042b4759022f9fd2888ac", "addresses": ["1EnARkUCaR3K9SZUZBUD6fvY4VasGR1gc9"], "asm": "OP_DUP OP_HASH160 972438f56dde5135022db49042b4759022f9fd28 OP_EQUALVERIFY OP_CHECKSIG", "type": "pubkeyhash"}, "value": 0.1096175, "n": 1}, {"scriptPubKey": {"reqSigs": 1, "hex": "a914cadacee3d90938404f4873a741da5d6189edb68c87", "addresses": ["3LBcYMKwKF5kc2JdWpkHBAk7G89ardRCbF"], "asm": "OP_HASH160 cadacee3d90938404f4873a741da5d6189edb68c OP_EQUAL", "type": "scripthash"}, "value": 0.00282586, "n": 2}], "hex": "01000000000104e7eb2758d1fb4697e65a294f966011186c4c1bd50b4806764d52c975134fe3090500000017160014b492bf17d54d0f0fde7ee8362196df2c95064854ffffffffe7eb2758d1fb4697e65a294f966011186c4c1bd50b4806764d52c975134fe3090700000017160014b501755b28f3d7cacf5142897906b776ec6730f1ffffffffe7eb2758d1fb4697e65a294f966011186c4c1bd50b4806764d52c975134fe3090b000000171600148a79c2c5d0eed96def27195abdd998d8dfb99d04ffffffff53ed48d88d6c1022fc39721335d7b8ebd72e416c74f826b29ff33379b41e80082d00000017160014489429906563cfd82df74fbd94de8a21f20d11e3ffffffff0390d00300000000001976a914f5be2e8f92955a2bad3d2dcdab0a225e48d1e1de88ac5643a700000000001976a914972438f56dde5135022db49042b4759022f9fd2888acda4f04000000000017a914cadacee3d90938404f4873a741da5d6189edb68c87024730440220690ad912269d025080bfd268449264c6e4ebad65a0f3b31dcd2202eaa8612ffc02207d422286a4513d20401347c85a5d89e4d379f0a6e77c1e71c67ecd8ff638c63d0121030d8c819b0c94ce74271a894f759c00f1a28c111b7b1c0907a407d1d2789cfffe02473044022045fd1ae4ba268a1c23213152cf70cc9121ed5819969fe4eb845a0217c9225fe502202382c3310f76fec9c01651ad93cb54f05b4a860a5620cf2d53421b77ab3a47ea012102a04bf176c454ba226df2ad78059ccb2ff682f3c2808de35ff29fc60a94ee83a702473044022029d6a6d6e13a9d487ed2840583e3faca42804328bf7bd01dd01e1278cd82f64b022079bdb5887e1ac7d69b4425553d6801a770fcb971de25feb1b1d339195e5fd3890121038b30315d18701ee03ca0b401f04d546216784c62c81ca64e866f29853b78324202483045022100ded84ad76a74c228e2566213ddc3a7a1afa286964f2592eae4a6ad9ad02a8dbe0220066ac7b8f7663e1ea7d0132abf337352529d04a31f3003c27a9b443ea5786b320121024848a39e9e3268bafd1b198ecbf609a15b048017d13c7cd5cd80a629df9ff28400000000", "vin": [{"txinwitness": ["30440220690ad912269d025080bfd268449264c6e4ebad65a0f3b31dcd2202eaa8612ffc02207d422286a4513d20401347c85a5d89e4d379f0a6e77c1e71c67ecd8ff638c63d01", "030d8c819b0c94ce74271a894f759c00f1a28c111b7b1c0907a407d1d2789cfffe"], "sequence": 4294967295, "scriptSig": {"hex": "160014b492bf17d54d0f0fde7ee8362196df2c95064854", "asm": "0014b492bf17d54d0f0fde7ee8362196df2c95064854"}, "vout": 5, "txid": "09e34f1375c9524d7606480bd51b4c6c181160964f295ae69746fbd15827ebe7"}, {"txinwitness": ["3044022045fd1ae4ba268a1c23213152cf70cc9121ed5819969fe4eb845a0217c9225fe502202382c3310f76fec9c01651ad93cb54f05b4a860a5620cf2d53421b77ab3a47ea01", "02a04bf176c454ba226df2ad78059ccb2ff682f3c2808de35ff29fc60a94ee83a7"], "sequence": 4294967295, "scriptSig": {"hex": "160014b501755b28f3d7cacf5142897906b776ec6730f1", "asm": "0014b501755b28f3d7cacf5142897906b776ec6730f1"}, "vout": 7, "txid": "09e34f1375c9524d7606480bd51b4c6c181160964f295ae69746fbd15827ebe7"}, {"txinwitness": ["3044022029d6a6d6e13a9d487ed2840583e3faca42804328bf7bd01dd01e1278cd82f64b022079bdb5887e1ac7d69b4425553d6801a770fcb971de25feb1b1d339195e5fd38901", "038b30315d18701ee03ca0b401f04d546216784c62c81ca64e866f29853b783242"], "sequence": 4294967295, "scriptSig": {"hex": "1600148a79c2c5d0eed96def27195abdd998d8dfb99d04", "asm": "00148a79c2c5d0eed96def27195abdd998d8dfb99d04"}, "vout": 11, "txid": "09e34f1375c9524d7606480bd51b4c6c181160964f295ae69746fbd15827ebe7"}, {"txinwitness": ["3045022100ded84ad76a74c228e2566213ddc3a7a1afa286964f2592eae4a6ad9ad02a8dbe0220066ac7b8f7663e1ea7d0132abf337352529d04a31f3003c27a9b443ea5786b3201", "024848a39e9e3268bafd1b198ecbf609a15b048017d13c7cd5cd80a629df9ff284"], "sequence": 4294967295, "scriptSig": {"hex": "160014489429906563cfd82df74fbd94de8a21f20d11e3", "asm": "0014489429906563cfd82df74fbd94de8a21f20d11e3"}, "vout": 45, "txid": "08801eb47933f39fb226f8746c412ed7ebb8d735137239fc22106c8dd848ed53"}], "txid": "037df40e5e039a7c8257e65483659106232715622a16444651cb72854dd4e3e0", "blocktime": 1537870268, "version": 1, "confirmations": 11517, "time": 1537870268, "locktime": 0, "vsize": 474, "size": 797}