{"hash": "037f1021971355c20b0b11242a4473e6b19c50c3196604eb6985e0ca40e3e4ff", "blockhash": "00000000000000000004ffacab907a6b429b9a5745fa0b75af4234bf69dd7176", "vout": [{"scriptPubKey": {"reqSigs": 1, "hex": "a9148579cfeb929c7267c5900e77f9cfe646c1ec8e8c87", "addresses": ["3DrmiiWHyQPko5ChxACdDkQz99wyk1cnwP"], "asm": "OP_HASH160 8579cfeb929c7267c5900e77f9cfe646c1ec8e8c OP_EQUAL", "type": "scripthash"}, "value": 0.907188, "n": 0}, {"scriptPubKey": {"reqSigs": 1, "hex": "a914b9bec884dd091c57012240f7dac9096ea73875f487", "addresses": ["3Jd9UtPis2ywHghpDP7kU1fu8iyoRQJi28"], "asm": "OP_HASH160 b9bec884dd091c57012240f7dac9096ea73875f4 OP_EQUAL", "type": "scripthash"}, "value": 0.9995, "n": 1}, {"scriptPubKey": {"reqSigs": 1, "hex": "a914fdd8da60ba780c5ab94950a122fc2ade2a88704b87", "addresses": ["3QqEfHnBDbdkZtu3MfvquuBtptYqDvJNBp"], "asm": "OP_HASH160 fdd8da60ba780c5ab94950a122fc2ade2a88704b OP_EQUAL", "type": "scripthash"}, "value": 11.333181, "n": 2}, {"scriptPubKey": {"reqSigs": 1, "hex": "a91405967dc18fcba45edc8eeb74728dc649bcafc65087", "addresses": ["32CZapMLwrdALiorKqPXScjho7zwMdjWa9"], "asm": "OP_HASH160 05967dc18fcba45edc8eeb74728dc649bcafc650 OP_EQUAL", "type": "scripthash"}, "value": 42.0, "n": 3}, {"scriptPubKey": {"reqSigs": 1, "hex": "a914574d3c30821881f7911e1f672657fd555af86ad587", "addresses": ["39edEd5dPYjj9RhBkttdd97jwqz7QYtbTQ"], "asm": "OP_HASH160 574d3c30821881f7911e1f672657fd555af86ad5 OP_EQUAL", "type": "scripthash"}, "value": 0.0893741, "n": 4}, {"scriptPubKey": {"reqSigs": 1, "hex": "76a914388fc6937927369fab329c427c5767fc23fdf87c88ac", "addresses": ["16A55TEwhir4C8n8hJdsd5U9ryKDeP4aM9"], "asm": "OP_DUP OP_HASH160 388fc6937927369fab329c427c5767fc23fdf87c OP_EQUALVERIFY OP_CHECKSIG", "type": "pubkeyhash"}, "value": 1.32841448, "n": 5}, {"scriptPubKey": {"reqSigs": 1, "hex": "a9145ecfb623d18cabd7b5646236dafc69172278f6c887", "addresses": ["3ALLGd58rpMLzec2GzGDKvbzrAewGFetGc"], "asm": "OP_HASH160 5ecfb623d18cabd7b5646236dafc69172278f6c8 OP_EQUAL", "type": "scripthash"}, "value": 0.2253, "n": 6}, {"scriptPubKey": {"reqSigs": 1, "hex": "76a914657233bcba9bd3e38a95ac1a0ee3c8ee7689933b88ac", "addresses": ["1AFQ4GzkAtXYdEBW5yzb6GKcW7iFLDPBpJ"], "asm": "OP_DUP OP_HASH160 657233bcba9bd3e38a95ac1a0ee3c8ee7689933b OP_EQUALVERIFY OP_CHECKSIG", "type": "pubkeyhash"}, "value": 1.019475, "n": 7}, {"scriptPubKey": {"reqSigs": 1, "hex": "76a914ba64a33e94c0990ff013756b00e884bd49e4ecd188ac", "addresses": ["1HzZF7JN2P4uFkMwj9GzSX9DmdUAcxvya7"], "asm": "OP_DUP OP_HASH160 ba64a33e94c0990ff013756b00e884bd49e4ecd1 OP_EQUALVERIFY OP_CHECKSIG", "type": "pubkeyhash"}, "value": 15.0, "n": 8}, {"scriptPubKey": {"reqSigs": 1, "hex": "a914f329c735eec118ebcc59df081f04465c4d398ce187", "addresses": ["3PrkAxRmxfo39DJXNx9sf1DDipZEU7TtPJ"], "asm": "OP_HASH160 f329c735eec118ebcc59df081f04465c4d398ce1 OP_EQUAL", "type": "scripthash"}, "value": 0.684512, "n": 9}, {"scriptPubKey": {"reqSigs": 1, "hex": "a914d8d82b465b2f0797ca2af4796ab87d172401b6d787", "addresses": ["3MTaqffiCEZukYty6UpZ7WuH6eH5NPgaSZ"], "asm": "OP_HASH160 d8d82b465b2f0797ca2af4796ab87d172401b6d7 OP_EQUAL", "type": "scripthash"}, "value": 0.786883, "n": 10}, {"scriptPubKey": {"reqSigs": 1, "hex": "76a9148be85b74acfa10d5c6eafb911d3c1224bc95ae7d88ac", "addresses": ["1DkmH8VP1P6DG5Sfzs3byZBtXcm4ETtWWU"], "asm": "OP_DUP OP_HASH160 8be85b74acfa10d5c6eafb911d3c1224bc95ae7d OP_EQUALVERIFY OP_CHECKSIG", "type": "pubkeyhash"}, "value": 63.44793259, "n": 11}], "hex": "0100000012b081efe3ffd17be94c6bbcc7dd9a8405564a7a0e16c3e20d0cc37b3987551fe51b0000006b483045022100b7dab5787ab1363f6f5ae9577e115a64b0f3b0a0d60200203cc0fdc305265c600220418ac2c8acfc68b9a9c7b7f8f019117cae67cb1cfadcbdfaae30b15e0936320a012102bfaeac5904425195c6246c9a672377a15bc18391dbaaa3d359496d09d6b91bffffffffff40f9e1c1c7ba3f8208bc4c2a914a1fcbfc360b5929bf5d08c3bb6e99dec3a381010000006a473044022036de2e126b12ece8bd7507aec15545612f9349a3ace470cc6d59a11b5f53243c02206905c3c0f8f098f926a51efec69a3f3ad47ee0d2906af3c91cc89e6bb8b2689b01210281b795614bba10950aefa855d371f914dc1e5cdb6794b0b4fd46c27017d48730ffffffff72a2dc1aae5aba23ab7bb042e79ef385668a52f9533065dee4d8c4da70e8a3c6260000006b483045022100e7fc0b6735446b3b9968eba5ec629aaee20c30a104e85dbf078b7db7a76a863602203c9f70084b25334765bd50a4f2b2165d0883d1ea648f8a1157ad3433e871e3ff01210323704086de27a791b2e919878b0a2d78b6e138f4fc8729d8ef6e3c2da1b1097effffffff72a2dc1aae5aba23ab7bb042e79ef385668a52f9533065dee4d8c4da70e8a3c6450000006b48304502210086547beb1a7af9778593bd8e9b8305446338ec2072598d82aee30a10e86af8cf022021f0c0253d8dcfdfebd78b16254d16caf69c8bc35a2afd129d4cb8b05044aebb012103f1c0db555efb87b5c9c17f74ec169718f868f43cec66fb68d1d71f6a1b25a989ffffffff4ff13b8048aff9534259a8f788914ffa9566a098375cfceb36f2ac7711b87e360d0000006b483045022100ef2c3c8af3d876b0065cfae48d549c1a7b0375dea3418d271f7107a5c2f792c8022062ef2dd619f79adc8ef2d090b256c0751b5ab39047071297358b2f2e6c95e45b012103e4c8b42c917bb00e793e2226a6b7a0c2cd29258547f42cf1432c8c88f14c6956ffffffff83c42f8d8577b0608fcc35913dedb77af6a45951d090c46625a76e0076ade3b6050000006b483045022100a826f22216c91b60cad17de04ff8679037e12f40c19e7380f6bb3837088593f502201342dd6a406fd168e000858bee563c4d5d7350f8ae92fff970f5bb6ddaee431b012103b031e12dd4700939dd0858e585f13e0e206deebb97fc9f0f22961b3b830e2e1dffffffff83c42f8d8577b0608fcc35913dedb77af6a45951d090c46625a76e0076ade3b6070000006a473044022008b90176829fc8926c319b69c7bde853914b11e406744823967ea1f1abbaed0902201c6fb71c795e92a1aed535e2f4b985992eae490a98169f85fd388f09821f23aa012103b031e12dd4700939dd0858e585f13e0e206deebb97fc9f0f22961b3b830e2e1dffffffff83c42f8d8577b0608fcc35913dedb77af6a45951d090c46625a76e0076ade3b60d0000006b4830450221008cd22e12faa7db20a4e900af59dd62048a804a93ffbad5123057a11d450294df022041c916ed5e562f43459fab5b98c764cb6b1671f816fcf2cd988df1842746fadc012103b031e12dd4700939dd0858e585f13e0e206deebb97fc9f0f22961b3b830e2e1dffffffff87e0662cac839d345eef42a20fa677b1ca0003faf7ada3e00ee0fa8f9053dd94180000006b483045022100a00a6f13932ce08257e485491a47a7c2a5102a793d40a4db88ee061d7df82c4d0220416593ef77fc3887c4bce82b649f5ecafc39cd47ef14c9424c55dff349ad3b8201210373d835212c16c376c35e8355f02e3468b911121b65833b7ed2d5c002a7b79de3ffffffff4457e967b61ed4e331423505142d1d124b7e049a5aa6eba692384f9154a2f592080000006a473044022044af1a59c7f4f0d17efbc67fb6c04db892eea5603189c4b0671a785a8b88fb3202206bb59fbe754e3d45619b7e6d5349ba52d004cdb4080524eef9040e752fecc2d4012103a6e9d406395f3baae01f5858edbe7ac11824bd6f07e5963a17a51209b96bfaf4ffffffff4457e967b61ed4e331423505142d1d124b7e049a5aa6eba692384f9154a2f592170000006b483045022100d02696badec970b49ed8c3d3a1d229d380703560c4f8101d0b106f3b4ebbaf640220148a42f02fda7ed660d0b1a5ac026cffff9cbc25bf97ab0ad1a374f50218a316012103f2f4475f63b7d75a7dc024fda195e2d842e518c9ed523a63d185631ffbadbcd7ffffffff25de4c68b5699ca279643ef71572b7650a01f9d5929e416fd8fee85cae48e601000000006a47304402201f04df70958d66712b5b46d116763aee47d2b3b01e23c08f619da0d8fefea20d0220153925f6f8bdf045e7f65f4da4e852e45b2d28a1af868e5659c32e3cba44d336012103826a4bc1aa16e2f6d9241da231274c4fa2d61492f4b1fc4e296c3ca3461c610dfffffffff45e020a336b59a5aa4ef5913829e5d704559fa23f4905fd2eb1cf86fb36b8b9000000006a4730440220794ddd151f53a3598df72bfbe85426c679d5f42f62fbf6d531ecf6dd4a041c4d02203659590dc10670aecedd029e9ed2f71f11629ac3393f535cd5f9e52504a6bbff012103bde4206fcf46b8a8f498a3c92c5756a2b3cfedde1e023685640b191361a08a48ffffffff98228172941868341d39b5fdef585cca62ca5ab36f066f51df8ba42eed624e48010000006a4730440220203be7ff1897f24e1973144be2067ad90535c84e534605eb6e88dc642f1d75c2022010ae2cbdc0f9c5b4447d1d763eb60ecddc3d39ab78eb26e7ec976fa2900fa96a012102535d6235c154f4613793f462c7123613dec6728503e8cc5d203e71d3326adbebffffffff3c0c42c4cb2fe1314a5a096666fd4e7c774412c45437500403fd676a727ab9be000000006a473044022038dbb9be58809419706e6813cd39b80f0d7a599e8f9c2534fe7be0717a9d3db0022003d8b993b82a1589c2782fca185079c1817a09edb67726265111cf65bd87185801210281b795614bba10950aefa855d371f914dc1e5cdb6794b0b4fd46c27017d48730ffffffff00aa7841abfd4799b5b884f1d6fdb7f2ab2fa0b2103fbeebcb4294d65d6831ce000000006b483045022100a06678bc0aaad6bd6189aa06880721bc53df4eb21d12e2e32b695a1599ca2774022045b300a6ce2cb9d01b746e36761c0a10f1758a4b7e21995b4ab62ca8d12026d80121024c9da9ce7df16989bb215d2e41a434d23c68eaaebd1e6c3a9653f6959f535faaffffffff79c9dea9de7b88faf6348cd7ffd84b128e0fa066217950714974a66bab151e5b000000006a473044022003b62bb444a4201a2cb5bc5ae504e634e3e292c259c5e5fb11ae61f8c5e6dcaf02202482c1db4498806c02a7cc0e082626072161b6f238af402b02afe81e16eb77d7012102afaea2e250e9a1a64b6c94247831cb3931aa43911658cec1b876728bdcc3c61cffffffff8c75438e3c38835843fa6362ecd622655de9c35d6f64a23092cf90749a5c98fc010000006a47304402201f57b7b7b08c404ed544a1cc2209ae58fe614491653a10ef4a38ad5b339b947202203e3e24ec640eb373b1f3cdbeb6028d20a1702bec845e8e19d9f6550162f2b59b012102bfdb300472ee2f876be04fa8c9746e22b2649aa5876f1ac52d585185d69e7a08ffffffff0c504268050000000017a9148579cfeb929c7267c5900e77f9cfe646c1ec8e8c87b01df5050000000017a914b9bec884dd091c57012240f7dac9096ea73875f487d40f8d430000000017a914fdd8da60ba780c5ab94950a122fc2ade2a88704b8700ea56fa0000000017a91405967dc18fcba45edc8eeb74728dc649bcafc65087c25f88000000000017a914574d3c30821881f7911e1f672657fd555af86ad587e8ffea07000000001976a914388fc6937927369fab329c427c5767fc23fdf87c88acd0c757010000000017a9145ecfb623d18cabd7b5646236dafc69172278f6c8876c981306000000001976a914657233bcba9bd3e38a95ac1a0ee3c8ee7689933b88ac002f6859000000001976a914ba64a33e94c0990ff013756b00e884bd49e4ecd188ac807b14040000000017a914f329c735eec118ebcc59df081f04465c4d398ce1872cb0b0040000000017a914d8d82b465b2f0797ca2af4796ab87d172401b6d787abdc2d7a010000001976a9148be85b74acfa10d5c6eafb911d3c1224bc95ae7d88ac00000000", "vin": [{"sequence": 4294967295, "scriptSig": {"hex": "483045022100b7dab5787ab1363f6f5ae9577e115a64b0f3b0a0d60200203cc0fdc305265c600220418ac2c8acfc68b9a9c7b7f8f019117cae67cb1cfadcbdfaae30b15e0936320a012102bfaeac5904425195c6246c9a672377a15bc18391dbaaa3d359496d09d6b91bff", "asm": "3045022100b7dab5787ab1363f6f5ae9577e115a64b0f3b0a0d60200203cc0fdc305265c600220418ac2c8acfc68b9a9c7b7f8f019117cae67cb1cfadcbdfaae30b15e0936320a[ALL] 02bfaeac5904425195c6246c9a672377a15bc18391dbaaa3d359496d09d6b91bff"}, "vout": 27, "txid": "e51f5587397bc30c0de2c3160e7a4a5605849addc7bc6b4ce97bd1ffe3ef81b0"}, {"sequence": 4294967295, "scriptSig": {"hex": "473044022036de2e126b12ece8bd7507aec15545612f9349a3ace470cc6d59a11b5f53243c02206905c3c0f8f098f926a51efec69a3f3ad47ee0d2906af3c91cc89e6bb8b2689b01210281b795614bba10950aefa855d371f914dc1e5cdb6794b0b4fd46c27017d48730", "asm": "3044022036de2e126b12ece8bd7507aec15545612f9349a3ace470cc6d59a11b5f53243c02206905c3c0f8f098f926a51efec69a3f3ad47ee0d2906af3c91cc89e6bb8b2689b[ALL] 0281b795614bba10950aefa855d371f914dc1e5cdb6794b0b4fd46c27017d48730"}, "vout": 1, "txid": "81a3c3de996ebbc3085dbf29590b36fccb1f4a912a4cbc08823fbac7c1e1f940"}, {"sequence": 4294967295, "scriptSig": {"hex": "483045022100e7fc0b6735446b3b9968eba5ec629aaee20c30a104e85dbf078b7db7a76a863602203c9f70084b25334765bd50a4f2b2165d0883d1ea648f8a1157ad3433e871e3ff01210323704086de27a791b2e919878b0a2d78b6e138f4fc8729d8ef6e3c2da1b1097e", "asm": "3045022100e7fc0b6735446b3b9968eba5ec629aaee20c30a104e85dbf078b7db7a76a863602203c9f70084b25334765bd50a4f2b2165d0883d1ea648f8a1157ad3433e871e3ff[ALL] 0323704086de27a791b2e919878b0a2d78b6e138f4fc8729d8ef6e3c2da1b1097e"}, "vout": 38, "txid": "c6a3e870dac4d8e4de653053f9528a6685f39ee742b07bab23ba5aae1adca272"}, {"sequence": 4294967295, "scriptSig": {"hex": "48304502210086547beb1a7af9778593bd8e9b8305446338ec2072598d82aee30a10e86af8cf022021f0c0253d8dcfdfebd78b16254d16caf69c8bc35a2afd129d4cb8b05044aebb012103f1c0db555efb87b5c9c17f74ec169718f868f43cec66fb68d1d71f6a1b25a989", "asm": "304502210086547beb1a7af9778593bd8e9b8305446338ec2072598d82aee30a10e86af8cf022021f0c0253d8dcfdfebd78b16254d16caf69c8bc35a2afd129d4cb8b05044aebb[ALL] 03f1c0db555efb87b5c9c17f74ec169718f868f43cec66fb68d1d71f6a1b25a989"}, "vout": 69, "txid": "c6a3e870dac4d8e4de653053f9528a6685f39ee742b07bab23ba5aae1adca272"}, {"sequence": 4294967295, "scriptSig": {"hex": "483045022100ef2c3c8af3d876b0065cfae48d549c1a7b0375dea3418d271f7107a5c2f792c8022062ef2dd619f79adc8ef2d090b256c0751b5ab39047071297358b2f2e6c95e45b012103e4c8b42c917bb00e793e2226a6b7a0c2cd29258547f42cf1432c8c88f14c6956", "asm": "3045022100ef2c3c8af3d876b0065cfae48d549c1a7b0375dea3418d271f7107a5c2f792c8022062ef2dd619f79adc8ef2d090b256c0751b5ab39047071297358b2f2e6c95e45b[ALL] 03e4c8b42c917bb00e793e2226a6b7a0c2cd29258547f42cf1432c8c88f14c6956"}, "vout": 13, "txid": "367eb81177acf236ebfc5c3798a06695fa4f9188f7a8594253f9af48803bf14f"}, {"sequence": 4294967295, "scriptSig": {"hex": "483045022100a826f22216c91b60cad17de04ff8679037e12f40c19e7380f6bb3837088593f502201342dd6a406fd168e000858bee563c4d5d7350f8ae92fff970f5bb6ddaee431b012103b031e12dd4700939dd0858e585f13e0e206deebb97fc9f0f22961b3b830e2e1d", "asm": "3045022100a826f22216c91b60cad17de04ff8679037e12f40c19e7380f6bb3837088593f502201342dd6a406fd168e000858bee563c4d5d7350f8ae92fff970f5bb6ddaee431b[ALL] 03b031e12dd4700939dd0858e585f13e0e206deebb97fc9f0f22961b3b830e2e1d"}, "vout": 5, "txid": "b6e3ad76006ea72566c490d05159a4f67ab7ed3d9135cc8f60b077858d2fc483"}, {"sequence": 4294967295, "scriptSig": {"hex": "473044022008b90176829fc8926c319b69c7bde853914b11e406744823967ea1f1abbaed0902201c6fb71c795e92a1aed535e2f4b985992eae490a98169f85fd388f09821f23aa012103b031e12dd4700939dd0858e585f13e0e206deebb97fc9f0f22961b3b830e2e1d", "asm": "3044022008b90176829fc8926c319b69c7bde853914b11e406744823967ea1f1abbaed0902201c6fb71c795e92a1aed535e2f4b985992eae490a98169f85fd388f09821f23aa[ALL] 03b031e12dd4700939dd0858e585f13e0e206deebb97fc9f0f22961b3b830e2e1d"}, "vout": 7, "txid": "b6e3ad76006ea72566c490d05159a4f67ab7ed3d9135cc8f60b077858d2fc483"}, {"sequence": 4294967295, "scriptSig": {"hex": "4830450221008cd22e12faa7db20a4e900af59dd62048a804a93ffbad5123057a11d450294df022041c916ed5e562f43459fab5b98c764cb6b1671f816fcf2cd988df1842746fadc012103b031e12dd4700939dd0858e585f13e0e206deebb97fc9f0f22961b3b830e2e1d", "asm": "30450221008cd22e12faa7db20a4e900af59dd62048a804a93ffbad5123057a11d450294df022041c916ed5e562f43459fab5b98c764cb6b1671f816fcf2cd988df1842746fadc[ALL] 03b031e12dd4700939dd0858e585f13e0e206deebb97fc9f0f22961b3b830e2e1d"}, "vout": 13, "txid": "b6e3ad76006ea72566c490d05159a4f67ab7ed3d9135cc8f60b077858d2fc483"}, {"sequence": 4294967295, "scriptSig": {"hex": "483045022100a00a6f13932ce08257e485491a47a7c2a5102a793d40a4db88ee061d7df82c4d0220416593ef77fc3887c4bce82b649f5ecafc39cd47ef14c9424c55dff349ad3b8201210373d835212c16c376c35e8355f02e3468b911121b65833b7ed2d5c002a7b79de3", "asm": "3045022100a00a6f13932ce08257e485491a47a7c2a5102a793d40a4db88ee061d7df82c4d0220416593ef77fc3887c4bce82b649f5ecafc39cd47ef14c9424c55dff349ad3b82[ALL] 0373d835212c16c376c35e8355f02e3468b911121b65833b7ed2d5c002a7b79de3"}, "vout": 24, "txid": "94dd53908ffae00ee0a3adf7fa0300cab177a60fa242ef5e349d83ac2c66e087"}, {"sequence": 4294967295, "scriptSig": {"hex": "473044022044af1a59c7f4f0d17efbc67fb6c04db892eea5603189c4b0671a785a8b88fb3202206bb59fbe754e3d45619b7e6d5349ba52d004cdb4080524eef9040e752fecc2d4012103a6e9d406395f3baae01f5858edbe7ac11824bd6f07e5963a17a51209b96bfaf4", "asm": "3044022044af1a59c7f4f0d17efbc67fb6c04db892eea5603189c4b0671a785a8b88fb3202206bb59fbe754e3d45619b7e6d5349ba52d004cdb4080524eef9040e752fecc2d4[ALL] 03a6e9d406395f3baae01f5858edbe7ac11824bd6f07e5963a17a51209b96bfaf4"}, "vout": 8, "txid": "92f5a254914f3892a6eba65a9a047e4b121d2d1405354231e3d41eb667e95744"}, {"sequence": 4294967295, "scriptSig": {"hex": "483045022100d02696badec970b49ed8c3d3a1d229d380703560c4f8101d0b106f3b4ebbaf640220148a42f02fda7ed660d0b1a5ac026cffff9cbc25bf97ab0ad1a374f50218a316012103f2f4475f63b7d75a7dc024fda195e2d842e518c9ed523a63d185631ffbadbcd7", "asm": "3045022100d02696badec970b49ed8c3d3a1d229d380703560c4f8101d0b106f3b4ebbaf640220148a42f02fda7ed660d0b1a5ac026cffff9cbc25bf97ab0ad1a374f50218a316[ALL] 03f2f4475f63b7d75a7dc024fda195e2d842e518c9ed523a63d185631ffbadbcd7"}, "vout": 23, "txid": "92f5a254914f3892a6eba65a9a047e4b121d2d1405354231e3d41eb667e95744"}, {"sequence": 4294967295, "scriptSig": {"hex": "47304402201f04df70958d66712b5b46d116763aee47d2b3b01e23c08f619da0d8fefea20d0220153925f6f8bdf045e7f65f4da4e852e45b2d28a1af868e5659c32e3cba44d336012103826a4bc1aa16e2f6d9241da231274c4fa2d61492f4b1fc4e296c3ca3461c610d", "asm": "304402201f04df70958d66712b5b46d116763aee47d2b3b01e23c08f619da0d8fefea20d0220153925f6f8bdf045e7f65f4da4e852e45b2d28a1af868e5659c32e3cba44d336[ALL] 03826a4bc1aa16e2f6d9241da231274c4fa2d61492f4b1fc4e296c3ca3461c610d"}, "vout": 0, "txid": "01e648ae5ce8fed86f419e92d5f9010a65b77215f73e6479a29c69b5684cde25"}, {"sequence": 4294967295, "scriptSig": {"hex": "4730440220794ddd151f53a3598df72bfbe85426c679d5f42f62fbf6d531ecf6dd4a041c4d02203659590dc10670aecedd029e9ed2f71f11629ac3393f535cd5f9e52504a6bbff012103bde4206fcf46b8a8f498a3c92c5756a2b3cfedde1e023685640b191361a08a48", "asm": "30440220794ddd151f53a3598df72bfbe85426c679d5f42f62fbf6d531ecf6dd4a041c4d02203659590dc10670aecedd029e9ed2f71f11629ac3393f535cd5f9e52504a6bbff[ALL] 03bde4206fcf46b8a8f498a3c92c5756a2b3cfedde1e023685640b191361a08a48"}, "vout": 0, "txid": "b9b836fb86cfb12efd05493fa29f5504d7e5293891f54eaaa5596b330a025ef4"}, {"sequence": 4294967295, "scriptSig": {"hex": "4730440220203be7ff1897f24e1973144be2067ad90535c84e534605eb6e88dc642f1d75c2022010ae2cbdc0f9c5b4447d1d763eb60ecddc3d39ab78eb26e7ec976fa2900fa96a012102535d6235c154f4613793f462c7123613dec6728503e8cc5d203e71d3326adbeb", "asm": "30440220203be7ff1897f24e1973144be2067ad90535c84e534605eb6e88dc642f1d75c2022010ae2cbdc0f9c5b4447d1d763eb60ecddc3d39ab78eb26e7ec976fa2900fa96a[ALL] 02535d6235c154f4613793f462c7123613dec6728503e8cc5d203e71d3326adbeb"}, "vout": 1, "txid": "484e62ed2ea48bdf516f066fb35aca62ca5c58effdb5391d3468189472812298"}, {"sequence": 4294967295, "scriptSig": {"hex": "473044022038dbb9be58809419706e6813cd39b80f0d7a599e8f9c2534fe7be0717a9d3db0022003d8b993b82a1589c2782fca185079c1817a09edb67726265111cf65bd87185801210281b795614bba10950aefa855d371f914dc1e5cdb6794b0b4fd46c27017d48730", "asm": "3044022038dbb9be58809419706e6813cd39b80f0d7a599e8f9c2534fe7be0717a9d3db0022003d8b993b82a1589c2782fca185079c1817a09edb67726265111cf65bd871858[ALL] 0281b795614bba10950aefa855d371f914dc1e5cdb6794b0b4fd46c27017d48730"}, "vout": 0, "txid": "beb97a726a67fd0304503754c41244777c4efd6666095a4a31e12fcbc4420c3c"}, {"sequence": 4294967295, "scriptSig": {"hex": "483045022100a06678bc0aaad6bd6189aa06880721bc53df4eb21d12e2e32b695a1599ca2774022045b300a6ce2cb9d01b746e36761c0a10f1758a4b7e21995b4ab62ca8d12026d80121024c9da9ce7df16989bb215d2e41a434d23c68eaaebd1e6c3a9653f6959f535faa", "asm": "3045022100a06678bc0aaad6bd6189aa06880721bc53df4eb21d12e2e32b695a1599ca2774022045b300a6ce2cb9d01b746e36761c0a10f1758a4b7e21995b4ab62ca8d12026d8[ALL] 024c9da9ce7df16989bb215d2e41a434d23c68eaaebd1e6c3a9653f6959f535faa"}, "vout": 0, "txid": "ce31685dd69442cbebbe3f10b2a02fabf2b7fdd6f184b8b59947fdab4178aa00"}, {"sequence": 4294967295, "scriptSig": {"hex": "473044022003b62bb444a4201a2cb5bc5ae504e634e3e292c259c5e5fb11ae61f8c5e6dcaf02202482c1db4498806c02a7cc0e082626072161b6f238af402b02afe81e16eb77d7012102afaea2e250e9a1a64b6c94247831cb3931aa43911658cec1b876728bdcc3c61c", "asm": "3044022003b62bb444a4201a2cb5bc5ae504e634e3e292c259c5e5fb11ae61f8c5e6dcaf02202482c1db4498806c02a7cc0e082626072161b6f238af402b02afe81e16eb77d7[ALL] 02afaea2e250e9a1a64b6c94247831cb3931aa43911658cec1b876728bdcc3c61c"}, "vout": 0, "txid": "5b1e15ab6ba674497150792166a00f8e124bd8ffd78c34f6fa887bdea9dec979"}, {"sequence": 4294967295, "scriptSig": {"hex": "47304402201f57b7b7b08c404ed544a1cc2209ae58fe614491653a10ef4a38ad5b339b947202203e3e24ec640eb373b1f3cdbeb6028d20a1702bec845e8e19d9f6550162f2b59b012102bfdb300472ee2f876be04fa8c9746e22b2649aa5876f1ac52d585185d69e7a08", "asm": "304402201f57b7b7b08c404ed544a1cc2209ae58fe614491653a10ef4a38ad5b339b947202203e3e24ec640eb373b1f3cdbeb6028d20a1702bec845e8e19d9f6550162f2b59b[ALL] 02bfdb300472ee2f876be04fa8c9746e22b2649aa5876f1ac52d585185d69e7a08"}, "vout": 1, "txid": "fc985c9a7490cf9230a2646f5dc3e95d6522d6ec6263fa435883383c8e43758c"}], "txid": "037f1021971355c20b0b11242a4473e6b19c50c3196604eb6985e0ca40e3e4ff", "blocktime": 1537875543, "version": 1, "confirmations": 11464, "time": 1537875543, "locktime": 0, "vsize": 3057, "size": 3057}