{"hash": "03838a75919d5df73dc6f1cb219f009fa5b369b5b3bbb5241b1cf9f65852d35d", "blockhash": "0000000000000000001f76057863aec43deb6fa401d9628bb513d65a8098bfab", "vout": [{"scriptPubKey": {"reqSigs": 1, "hex": "76a914a8eef7461845b1078ad4f38a98a84fc36f6450d188ac", "addresses": ["1GQEnsUWzM4SXMHoy4PL49nvMxSLmC7fXf"], "asm": "OP_DUP OP_HASH160 a8eef7461845b1078ad4f38a98a84fc36f6450d1 OP_EQUALVERIFY OP_CHECKSIG", "type": "pubkeyhash"}, "value": 4.995e-05, "n": 0}, {"scriptPubKey": {"reqSigs": 1, "hex": "a914a65bfca44ea420402943a17525daba93a286d6fa87", "addresses": ["3GreHkMGiivKesJJ72f83u5LPaPsHPu2VM"], "asm": "OP_HASH160 a65bfca44ea420402943a17525daba93a286d6fa OP_EQUAL", "type": "scripthash"}, "value": 0.00047684, "n": 1}], "hex": "01000000025dfa9fb2dfaddbe542ed647224da29ac722331e3596b3e07ff004cb71dd62940000000006a473044022049f53169864dc30abadbff7ec85be5ee311d68d4a83c187d521c982344c618ac0220712487aab138544c609ba8db803879b036c68706b19f8e1b71acc9ce84c21d62012103e1a1c005cc2cc4e5a51561a3d8a2bd134a33a74f83c3f7daf36b9ae618e5ca01ffffffffdc4efba1e6182e0ba1e65a0b80eebb5e9899c7871c7708927803f844405f24ce000000006a4730440220238a7d892cb586af593613c0af59ba81a217ffa3c889133602dd33f85385680e02207f035a76d285463de2a21e15f253f8e5177cc7159e28b600c4b19cacd0c41940012103d15dd86197fcc654f2e9b5f1cc91d72c2c435c406dbfc2d88e0379893088d95bffffffff0283130000000000001976a914a8eef7461845b1078ad4f38a98a84fc36f6450d188ac44ba00000000000017a914a65bfca44ea420402943a17525daba93a286d6fa8700000000", "vin": [{"sequence": 4294967295, "scriptSig": {"hex": "473044022049f53169864dc30abadbff7ec85be5ee311d68d4a83c187d521c982344c618ac0220712487aab138544c609ba8db803879b036c68706b19f8e1b71acc9ce84c21d62012103e1a1c005cc2cc4e5a51561a3d8a2bd134a33a74f83c3f7daf36b9ae618e5ca01", "asm": "3044022049f53169864dc30abadbff7ec85be5ee311d68d4a83c187d521c982344c618ac0220712487aab138544c609ba8db803879b036c68706b19f8e1b71acc9ce84c21d62[ALL] 03e1a1c005cc2cc4e5a51561a3d8a2bd134a33a74f83c3f7daf36b9ae618e5ca01"}, "vout": 0, "txid": "4029d61db74c00ff073e6b59e3312372ac29da247264ed42e5dbaddfb29ffa5d"}, {"sequence": 4294967295, "scriptSig": {"hex": "4730440220238a7d892cb586af593613c0af59ba81a217ffa3c889133602dd33f85385680e02207f035a76d285463de2a21e15f253f8e5177cc7159e28b600c4b19cacd0c41940012103d15dd86197fcc654f2e9b5f1cc91d72c2c435c406dbfc2d88e0379893088d95b", "asm": "30440220238a7d892cb586af593613c0af59ba81a217ffa3c889133602dd33f85385680e02207f035a76d285463de2a21e15f253f8e5177cc7159e28b600c4b19cacd0c41940[ALL] 03d15dd86197fcc654f2e9b5f1cc91d72c2c435c406dbfc2d88e0379893088d95b"}, "vout": 0, "txid": "ce245f4044f803789208771c87c799985ebbee800b5ae6a10b2e18e6a1fb4edc"}], "txid": "03838a75919d5df73dc6f1cb219f009fa5b369b5b3bbb5241b1cf9f65852d35d", "blocktime": 1537873891, "version": 1, "confirmations": 11475, "time": 1537873891, "locktime": 0, "vsize": 370, "size": 370}