{"hash": "0386ceef0e27ce92fbd2765d5ee9e3c647e719f7ea542fd9a8d25e1e315e5521", "blockhash": "0000000000000000000baef3f32e3676a92c3b2e5da21b426e4f302fc371ce76", "vout": [{"scriptPubKey": {"type": "nulldata", "hex": "6a4c5000007829000157eebd27b7256b4774d339f6019d6ddc0f1b8ff117702940d64fa54d8eb27385e5af92a7dd1658fbad0c4fc619325baa1e8b0613eb77d51649eabc9a9526289ac0f6612cd74e33776ee4", "asm": "OP_RETURN 00007829000157eebd27b7256b4774d339f6019d6ddc0f1b8ff117702940d64fa54d8eb27385e5af92a7dd1658fbad0c4fc619325baa1e8b0613eb77d51649eabc9a9526289ac0f6612cd74e33776ee4"}, "value": 0.0, "n": 0}, {"scriptPubKey": {"reqSigs": 1, "hex": "76a914059c1a5c511d1b576cea681a04082ee68fefcb7f88ac", "addresses": ["1WfPBf5keuPGQLnsJM2hmGwDbCELNvmHx"], "asm": "OP_DUP OP_HASH160 059c1a5c511d1b576cea681a04082ee68fefcb7f OP_EQUALVERIFY OP_CHECKSIG", "type": "pubkeyhash"}, "value": 0.00089664, "n": 1}], "hex": "0100000001ea5dddb7923cf1f46b354ee9257fc03f8a011b328013bae681620d43f13525f1000000006a47304402201702f1415f9350e722fc02c06ea657baae9c8fc75518fd24c880f58cdeec002c022046f1927cf806435c15c6768a6e690d1bb2f9bc7b6e3e7d2e6604b5a728d624730121039e28c86c8ea8c63bd8509692d39e57a6dfa1f2da50d1142a44821febf4568b13ffffffff020000000000000000536a4c5000007829000157eebd27b7256b4774d339f6019d6ddc0f1b8ff117702940d64fa54d8eb27385e5af92a7dd1658fbad0c4fc619325baa1e8b0613eb77d51649eabc9a9526289ac0f6612cd74e33776ee4405e0100000000001976a914059c1a5c511d1b576cea681a04082ee68fefcb7f88ac00000000", "vin": [{"sequence": 4294967295, "scriptSig": {"hex": "47304402201702f1415f9350e722fc02c06ea657baae9c8fc75518fd24c880f58cdeec002c022046f1927cf806435c15c6768a6e690d1bb2f9bc7b6e3e7d2e6604b5a728d624730121039e28c86c8ea8c63bd8509692d39e57a6dfa1f2da50d1142a44821febf4568b13", "asm": "304402201702f1415f9350e722fc02c06ea657baae9c8fc75518fd24c880f58cdeec002c022046f1927cf806435c15c6768a6e690d1bb2f9bc7b6e3e7d2e6604b5a728d62473[ALL] 039e28c86c8ea8c63bd8509692d39e57a6dfa1f2da50d1142a44821febf4568b13"}, "vout": 0, "txid": "f12535f1430d6281e6ba1380321b018a3fc07f25e94e356bf4f13c92b7dd5dea"}], "txid": "0386ceef0e27ce92fbd2765d5ee9e3c647e719f7ea542fd9a8d25e1e315e5521", "blocktime": 1537876114, "version": 1, "confirmations": 11460, "time": 1537876114, "locktime": 0, "vsize": 283, "size": 283}