{"hash": "2c3c1008e286be777d74afb271db872db9ed0d372be213677f3f4952d2046a28", "blockhash": "0000000000000000001cda96e906b7601b7a6fb1a3b62bca570a9e5d8f4b3de1", "vout": [{"scriptPubKey": {"reqSigs": 1, "hex": "0014a092c1df534933f6469acadc9718862e646ff206", "addresses": ["bc1q5zfvrh6nfyelv356etwfwxyx9ejxlusx8hg5n0"], "asm": "0 a092c1df534933f6469acadc9718862e646ff206", "type": "witness_v0_keyhash"}, "value": 0.00030833, "n": 0}, {"scriptPubKey": {"reqSigs": 1, "hex": "a9147ee8ac70e68a5f244b4ea69c2e64f5040819c08e87", "addresses": ["3DG3oACPLTRPMhnNKz97m3Gfymyg341vZW"], "asm": "OP_HASH160 7ee8ac70e68a5f244b4ea69c2e64f5040819c08e OP_EQUAL", "type": "scripthash"}, "value": 0.00359207, "n": 1}], "hex": "01000000000101f233321e66f498a7558cafcf1244551e8b0904b2359ea0c6faac9e5820a99b610100000017160014249cf22a545bc8aa221ba0181295e5afa8d774c1ffffffff027178000000000000160014a092c1df534933f6469acadc9718862e646ff206277b05000000000017a9147ee8ac70e68a5f244b4ea69c2e64f5040819c08e8702483045022100e033449877f85749823a5139dcecf92e4aa0a81fbe681e66a96462d2469417370220643c51f1ac30dc180a739791b4ff09e0068d44a5b33568d70967cd308a3c9e81012103abf561734f64f56bf5962c3a82f06cb109d947c26c88ca5db8b0504f72430c9b00000000", "vin": [{"txinwitness": ["3045022100e033449877f85749823a5139dcecf92e4aa0a81fbe681e66a96462d2469417370220643c51f1ac30dc180a739791b4ff09e0068d44a5b33568d70967cd308a3c9e8101", "03abf561734f64f56bf5962c3a82f06cb109d947c26c88ca5db8b0504f72430c9b"], "sequence": 4294967295, "scriptSig": {"hex": "160014249cf22a545bc8aa221ba0181295e5afa8d774c1", "asm": "0014249cf22a545bc8aa221ba0181295e5afa8d774c1"}, "vout": 1, "txid": "619ba920589eacfac6a09e35b204098b1e554412cfaf8c55a798f4661e3233f2"}], "txid": "038d061e4ffc279379382d1923bb2edb3a960ba1af2e2f89aabb27c882bbd6d4", "blocktime": 1537873282, "version": 1, "confirmations": 11484, "time": 1537873282, "locktime": 0, "vsize": 165, "size": 247}