{"hash": "039c1ca1de2202930bb70f8c98dab942594d30d3c71894f6fc370ec488cf2717", "blockhash": "0000000000000000000e13cef7c366c0283d82e591d1acd082e914b08063cdf1", "vout": [{"scriptPubKey": {"reqSigs": 1, "hex": "76a914c4d555b3d2d7bf42e49032e91f6b80cd21f5668a88ac", "addresses": ["1Jwm1Mp15VyBWC2yLbDsFuCAcLSZ9mmEJj"], "asm": "OP_DUP OP_HASH160 c4d555b3d2d7bf42e49032e91f6b80cd21f5668a OP_EQUALVERIFY OP_CHECKSIG", "type": "pubkeyhash"}, "value": 0.00094284, "n": 0}, {"scriptPubKey": {"reqSigs": 1, "hex": "a914d3b88e05441b91b97e2d3c850af620a7ce1e478e87", "addresses": ["3LzVb7LT5w6ssdNfKwvtfz5tuhbEZTXZnQ"], "asm": "OP_HASH160 d3b88e05441b91b97e2d3c850af620a7ce1e478e OP_EQUAL", "type": "scripthash"}, "value": 0.0032106, "n": 1}], "hex": "010000000155889dca2ec87fcb9c0d7865354c50712f260e33f389a8a596fce1695f134764010000006a47304402205be86eee8e86a946cc81750f195dafd780e0de7c30b2a8acbc8a7f163112238502205a940c88cdd6ebbe1d4d9af4d9fb3db38b045274941d5cee94d5fe4ea2301b7a01210326e9f0fcdc83b3a1858f0b3e06357daa84151cc6c714a7326a93c2d113430675ffffffff024c700100000000001976a914c4d555b3d2d7bf42e49032e91f6b80cd21f5668a88ac24e604000000000017a914d3b88e05441b91b97e2d3c850af620a7ce1e478e8700000000", "vin": [{"sequence": 4294967295, "scriptSig": {"hex": "47304402205be86eee8e86a946cc81750f195dafd780e0de7c30b2a8acbc8a7f163112238502205a940c88cdd6ebbe1d4d9af4d9fb3db38b045274941d5cee94d5fe4ea2301b7a01210326e9f0fcdc83b3a1858f0b3e06357daa84151cc6c714a7326a93c2d113430675", "asm": "304402205be86eee8e86a946cc81750f195dafd780e0de7c30b2a8acbc8a7f163112238502205a940c88cdd6ebbe1d4d9af4d9fb3db38b045274941d5cee94d5fe4ea2301b7a[ALL] 0326e9f0fcdc83b3a1858f0b3e06357daa84151cc6c714a7326a93c2d113430675"}, "vout": 1, "txid": "6447135f69e1fc96a5a889f3330e262f71504c3565780d9ccb7fc82eca9d8855"}], "txid": "039c1ca1de2202930bb70f8c98dab942594d30d3c71894f6fc370ec488cf2717", "blocktime": 1537871767, "version": 1, "confirmations": 11493, "time": 1537871767, "locktime": 0, "vsize": 223, "size": 223}