{"hash": "03a2eddae1fb8012eab1a67ef00389c62f0241b954854e26148cee969a8d280a", "blockhash": "0000000000000000001f0ddff1eddb255c1121bcd4da4f1bc9a0da00cae72433", "vout": [{"scriptPubKey": {"reqSigs": 1, "hex": "76a91462343795d5a093af81b7cb3230f568216dc32e2288ac", "addresses": ["19xFmujVEAhrEoThvmyCUefWbDDLU7PYLB"], "asm": "OP_DUP OP_HASH160 62343795d5a093af81b7cb3230f568216dc32e22 OP_EQUALVERIFY OP_CHECKSIG", "type": "pubkeyhash"}, "value": 0.00114196, "n": 0}, {"scriptPubKey": {"reqSigs": 1, "hex": "a9140cbc1ae60b5c6ef36dae4654900b961b1602bef087", "addresses": ["32rMNce7kyVEasCcpABPAfzFDji45rb9BP"], "asm": "OP_HASH160 0cbc1ae60b5c6ef36dae4654900b961b1602bef0 OP_EQUAL", "type": "scripthash"}, "value": 0.03123682, "n": 1}], "hex": "0100000001bf31ab6f859c1699dcab276bb576eece228f98e93b1f93cd624e365bfa0f70d6010000006a4730440220603eedda2172b23f477c52376f45abf14e4739b0e924c49694d4edaee2d01708022028302b0258a50892abaeea411dabbd0a64cc8683a8d6d07590aec709a0c9d8b40121026251c8722a2c0258e23cc31bb43df887d82907671274d2de85338439a9391184ffffffff0214be0100000000001976a91462343795d5a093af81b7cb3230f568216dc32e2288ace2a92f000000000017a9140cbc1ae60b5c6ef36dae4654900b961b1602bef08700000000", "vin": [{"sequence": 4294967295, "scriptSig": {"hex": "4730440220603eedda2172b23f477c52376f45abf14e4739b0e924c49694d4edaee2d01708022028302b0258a50892abaeea411dabbd0a64cc8683a8d6d07590aec709a0c9d8b40121026251c8722a2c0258e23cc31bb43df887d82907671274d2de85338439a9391184", "asm": "30440220603eedda2172b23f477c52376f45abf14e4739b0e924c49694d4edaee2d01708022028302b0258a50892abaeea411dabbd0a64cc8683a8d6d07590aec709a0c9d8b4[ALL] 026251c8722a2c0258e23cc31bb43df887d82907671274d2de85338439a9391184"}, "vout": 1, "txid": "d6700ffa5b364e62cd931f3be9988f22ceee76b56b27abdc99169c856fab31bf"}], "txid": "03a2eddae1fb8012eab1a67ef00389c62f0241b954854e26148cee969a8d280a", "blocktime": 1537872018, "version": 1, "confirmations": 11489, "time": 1537872018, "locktime": 0, "vsize": 223, "size": 223}