{"hash": "620ebf5029024f10a90485884d79536818f5055eb2b5e1c629f52bede1124668", "blockhash": "000000000000000000022b45ed06c6f4ccd3cf7fb5ba4856ebd2e58215665228", "vout": [{"scriptPubKey": {"reqSigs": 1, "hex": "a91441e44735d6edaef655855371835878088b7f17b987", "addresses": ["37hRK4JQzfUkrMd3apqpC2bChHo9nF7JYS"], "asm": "OP_HASH160 41e44735d6edaef655855371835878088b7f17b9 OP_EQUAL", "type": "scripthash"}, "value": 0.00047, "n": 0}, {"scriptPubKey": {"reqSigs": 1, "hex": "a914f56f3e5305b2d94e93b5c30b1a672c3b6da08b9587", "addresses": ["3Q4kjsakEfK7RrXXu34bBbyMWTaZr2773K"], "asm": "OP_HASH160 f56f3e5305b2d94e93b5c30b1a672c3b6da08b95 OP_EQUAL", "type": "scripthash"}, "value": 0.07275631, "n": 1}], "hex": "01000000000101525d5afd5e260afcf778174421f67b9046a652039ea86d6060042aa0cc0870550100000023220020e941818309f4d5b451f51480d8c5be28066711fb11316ae768c7f739b2438cf4ffffffff0298b700000000000017a91441e44735d6edaef655855371835878088b7f17b9876f046f000000000017a914f56f3e5305b2d94e93b5c30b1a672c3b6da08b95870400483045022100bdc63534f1f7f427a37420d7aa81f3c3e13e213e3926b20b19b0b94c4974b935022042d053e53c49624dadb8d6e5b292ef13dcb5d0de6ee2cd7545503abba11c634301483045022100bd8e2e74fcdf4c2e151893e856aae84630e8002cfbeb7a926c9de7458b4c8df20220366539f448d5a1326bdf82d83d318026d77c32eabddf2f2877d541659a3bbdb80147522103faa541d8d0a70781f6305efd2426b894ad12a66b1cd5e593deda1804412b28fa2103ed050e681225d930a5e8a238b0045afdb024630315a2e4899bec00b073a718c952ae00000000", "vin": [{"txinwitness": ["", "3045022100bdc63534f1f7f427a37420d7aa81f3c3e13e213e3926b20b19b0b94c4974b935022042d053e53c49624dadb8d6e5b292ef13dcb5d0de6ee2cd7545503abba11c634301", "3045022100bd8e2e74fcdf4c2e151893e856aae84630e8002cfbeb7a926c9de7458b4c8df20220366539f448d5a1326bdf82d83d318026d77c32eabddf2f2877d541659a3bbdb801", "522103faa541d8d0a70781f6305efd2426b894ad12a66b1cd5e593deda1804412b28fa2103ed050e681225d930a5e8a238b0045afdb024630315a2e4899bec00b073a718c952ae"], "sequence": 4294967295, "scriptSig": {"hex": "220020e941818309f4d5b451f51480d8c5be28066711fb11316ae768c7f739b2438cf4", "asm": "0020e941818309f4d5b451f51480d8c5be28066711fb11316ae768c7f739b2438cf4"}, "vout": 1, "txid": "557008cca02a0460606da89e0352a646907bf621441778f7fc0a265efd5a5d52"}], "txid": "03a4a717337613090ee3e2a182f56557abc8173d6a58e60c278a562ca24b229c", "blocktime": 1537869901, "version": 1, "confirmations": 11524, "time": 1537869901, "locktime": 0, "vsize": 206, "size": 372}