{"hash": "773b6a0f3e9f23936faee3d282ac2aa73ffb46fd9b40a3f6eaf74ee09a8710cb", "blockhash": "0000000000000000000baef3f32e3676a92c3b2e5da21b426e4f302fc371ce76", "vout": [{"scriptPubKey": {"reqSigs": 1, "hex": "76a914f4c8010186998d878d51be688a11931ec5af7adb88ac", "addresses": ["1PKHUKkUaD3HEPVUpVyP1R6zYq11y59fBH"], "asm": "OP_DUP OP_HASH160 f4c8010186998d878d51be688a11931ec5af7adb OP_EQUALVERIFY OP_CHECKSIG", "type": "pubkeyhash"}, "value": 0.00222, "n": 0}, {"scriptPubKey": {"reqSigs": 1, "hex": "a914dc26957d1ac92328726eda1c97fed65f951af54587", "addresses": ["3Mm4oc5XLgKNaNbb6ZF6AM4ssLZqw4nPqi"], "asm": "OP_HASH160 dc26957d1ac92328726eda1c97fed65f951af545 OP_EQUAL", "type": "scripthash"}, "value": 0.01370154, "n": 1}], "hex": "010000000001010c90c454ca01046526eeb4276e8540f0f4161800a7a9375f1c4f8c126f0daae901000000232200207347a256c5a61406e14bfa1e7d9590ff67037bd006e9b89bf995ca39c97b4e74ffffffff0230630300000000001976a914f4c8010186998d878d51be688a11931ec5af7adb88ac2ae814000000000017a914dc26957d1ac92328726eda1c97fed65f951af54587040047304402205cfaf732af8266bd481d8d2ced513dd47383448a891a56a389fe01eb880af75e022042e6364d2490453433cb8b22379b6dca54d0e6797bceff55be335729a95aa0ca01473044022072069fa3ae19af2887aaa311880c3b51059ce1bb0e4d792198d5c0bdaaaa43d202207961758a53bdffec7a48fd7e931aa9c916210328b3d04aaf2d62d4e39fd03b8801475221036457d97a0bb41f0cbbe3de033690e541f06f55a1e3eb9f953521a4e0e24dce692102cef2f65e67dd388952b1159edda4643422fd1dedc86f72b80e60633b6aa83ecc52ae00000000", "vin": [{"txinwitness": ["", "304402205cfaf732af8266bd481d8d2ced513dd47383448a891a56a389fe01eb880af75e022042e6364d2490453433cb8b22379b6dca54d0e6797bceff55be335729a95aa0ca01", "3044022072069fa3ae19af2887aaa311880c3b51059ce1bb0e4d792198d5c0bdaaaa43d202207961758a53bdffec7a48fd7e931aa9c916210328b3d04aaf2d62d4e39fd03b8801", "5221036457d97a0bb41f0cbbe3de033690e541f06f55a1e3eb9f953521a4e0e24dce692102cef2f65e67dd388952b1159edda4643422fd1dedc86f72b80e60633b6aa83ecc52ae"], "sequence": 4294967295, "scriptSig": {"hex": "2200207347a256c5a61406e14bfa1e7d9590ff67037bd006e9b89bf995ca39c97b4e74", "asm": "00207347a256c5a61406e14bfa1e7d9590ff67037bd006e9b89bf995ca39c97b4e74"}, "vout": 1, "txid": "e9aa0d6f128c4f1c5f37a9a7001816f4f040856e27b4ee26650401ca54c4900c"}], "txid": "03aeb1ad17d418f8bfb0630925c473b50f680a64eec2c58beed688465c6f267d", "blocktime": 1537876114, "version": 1, "confirmations": 11460, "time": 1537876114, "locktime": 0, "vsize": 207, "size": 372}