{"hash": "39e593e8ea7d2d95a22407510b0ed7e4be2af27839a53676bd1dd54a0d74fd5b", "blockhash": "0000000000000000000e13cef7c366c0283d82e591d1acd082e914b08063cdf1", "vout": [{"scriptPubKey": {"reqSigs": 1, "hex": "a91453779bf7f78ab0cae46b34b3faf39b179dfe2ee787", "addresses": ["39JMJ4ZbozPD1nWWd581vRWWwUkybp9CYg"], "asm": "OP_HASH160 53779bf7f78ab0cae46b34b3faf39b179dfe2ee7 OP_EQUAL", "type": "scripthash"}, "value": 0.00513774, "n": 0}, {"scriptPubKey": {"reqSigs": 1, "hex": "a914427d2afe086f02b07770b78a792f2af25083487d87", "addresses": ["37kaU2RjX1Zg8XnC9sRyjmf1eBKY7jqXtT"], "asm": "OP_HASH160 427d2afe086f02b07770b78a792f2af25083487d OP_EQUAL", "type": "scripthash"}, "value": 0.01244575, "n": 1}], "hex": "020000000001010bd219ac01504667d786bd9cf90369a6c81b7adffb92f5c801e0eb32965616240000000017160014d596799ea66510ae2beb1947df572c8ed103a20afeffffff02eed607000000000017a91453779bf7f78ab0cae46b34b3faf39b179dfe2ee7879ffd12000000000017a914427d2afe086f02b07770b78a792f2af25083487d8702483045022100b9671389431f38e3fc9f7efe9b2857c5cf6878f36a609f5ef4fb70ff018a87e80220121f71d05fe39da05cc611ca82dfaaa9660996a9d92bd927ff8f43bdb8b0c665012102e1fa2c2f4bbc2ce15824a20abf7ee97ef8851284f4147b02dab2d2dc7228266b10490800", "vin": [{"txinwitness": ["3045022100b9671389431f38e3fc9f7efe9b2857c5cf6878f36a609f5ef4fb70ff018a87e80220121f71d05fe39da05cc611ca82dfaaa9660996a9d92bd927ff8f43bdb8b0c66501", "02e1fa2c2f4bbc2ce15824a20abf7ee97ef8851284f4147b02dab2d2dc7228266b"], "sequence": 4294967294, "scriptSig": {"hex": "160014d596799ea66510ae2beb1947df572c8ed103a20a", "asm": "0014d596799ea66510ae2beb1947df572c8ed103a20a"}, "vout": 0, "txid": "2416569632ebe001c8f592fbdf7a1bc8a66903f99cbd86d767465001ac19d20b"}], "txid": "03b9f4aef5e2f06fa81021c196cb686bf0a68bf22e6e0c7dbd8970d606fef9cd", "blocktime": 1537871767, "version": 2, "confirmations": 11495, "time": 1537871767, "locktime": 542992, "vsize": 166, "size": 248}