{"hash": "03be93c1983458167b76064935adb1a2d42458a2698d33b2a9d8622799c1aee4", "blockhash": "00000000000000000004ffacab907a6b429b9a5745fa0b75af4234bf69dd7176", "vout": [{"scriptPubKey": {"type": "nulldata", "hex": "6a146f6d6e69000000000000001f000000188fa26640", "asm": "OP_RETURN 6f6d6e69000000000000001f000000188fa26640"}, "value": 0.0, "n": 0}, {"scriptPubKey": {"reqSigs": 1, "hex": "76a914a25dec4d0011064ef106a983c39c7a540699f22088ac", "addresses": ["1FoWyxwPXuj4C6abqwhjDWdz6D4PZgYRjA"], "asm": "OP_DUP OP_HASH160 a25dec4d0011064ef106a983c39c7a540699f220 OP_EQUALVERIFY OP_CHECKSIG", "type": "pubkeyhash"}, "value": 0.01971231, "n": 1}, {"scriptPubKey": {"reqSigs": 1, "hex": "76a91456d8cdb6eccfa0a210d3a79e70a8be5c3cf043ea88ac", "addresses": ["18vCqGsnQcFqvSiD4NVH1T2XMxcCNv75DX"], "asm": "OP_DUP OP_HASH160 56d8cdb6eccfa0a210d3a79e70a8be5c3cf043ea OP_EQUALVERIFY OP_CHECKSIG", "type": "pubkeyhash"}, "value": 5.46e-06, "n": 2}], "hex": "0100000001123042cbf22bbea66f9214ebff8143e477f85ef65858087fd8f854262b0e1a0d000000006a473044022004779f4fc83321a80d86d16a41efec8407cbfe6e234d7d9dc0e4c49553b301c902204c63f26a6b2e4a8e793cacf0f118bb575c2baabd66c55cf33a6a49012f032756012103da5bac7b36d5aa38f531c6b9601e21bb598a4b6716ebed38b009a55dabde9440feffffff030000000000000000166a146f6d6e69000000000000001f000000188fa266401f141e00000000001976a914a25dec4d0011064ef106a983c39c7a540699f22088ac22020000000000001976a91456d8cdb6eccfa0a210d3a79e70a8be5c3cf043ea88ac16490800", "vin": [{"sequence": 4294967294, "scriptSig": {"hex": "473044022004779f4fc83321a80d86d16a41efec8407cbfe6e234d7d9dc0e4c49553b301c902204c63f26a6b2e4a8e793cacf0f118bb575c2baabd66c55cf33a6a49012f032756012103da5bac7b36d5aa38f531c6b9601e21bb598a4b6716ebed38b009a55dabde9440", "asm": "3044022004779f4fc83321a80d86d16a41efec8407cbfe6e234d7d9dc0e4c49553b301c902204c63f26a6b2e4a8e793cacf0f118bb575c2baabd66c55cf33a6a49012f032756[ALL] 03da5bac7b36d5aa38f531c6b9601e21bb598a4b6716ebed38b009a55dabde9440"}, "vout": 0, "txid": "0d1a0e2b2654f8d87f085858f65ef877e44381ffeb14926fa6be2bf2cb423012"}], "txid": "03be93c1983458167b76064935adb1a2d42458a2698d33b2a9d8622799c1aee4", "blocktime": 1537875543, "version": 1, "confirmations": 11464, "time": 1537875543, "locktime": 542998, "vsize": 256, "size": 256}