{"hash": "03bff5c436170bae6317e96540fd5215faa422d4d4ac683906c54ff0eee0e320", "blockhash": "000000000000000000022b45ed06c6f4ccd3cf7fb5ba4856ebd2e58215665228", "vout": [{"scriptPubKey": {"reqSigs": 1, "hex": "76a914d243e6abb9a60fbff430b421d2df4b7d59ec186088ac", "addresses": ["1LAnF8h3qMGx3TSwNUHVneBZUEpwE4gu3D"], "asm": "OP_DUP OP_HASH160 d243e6abb9a60fbff430b421d2df4b7d59ec1860 OP_EQUALVERIFY OP_CHECKSIG", "type": "pubkeyhash"}, "value": 0.00076972, "n": 0}, {"scriptPubKey": {"reqSigs": 1, "hex": "76a9143851f34d13937b673a7d24a1950bb5b21ce94af388ac", "addresses": ["168o1kqNquEJeR9vosUB5fw4eAwcVAgh8P"], "asm": "OP_DUP OP_HASH160 3851f34d13937b673a7d24a1950bb5b21ce94af3 OP_EQUALVERIFY OP_CHECKSIG", "type": "pubkeyhash"}, "value": 5.46e-06, "n": 1}, {"scriptPubKey": {"type": "nulldata", "hex": "6a146f6d6e69000000000000001f0000000c9dfcd4c0", "asm": "OP_RETURN 6f6d6e69000000000000001f0000000c9dfcd4c0"}, "value": 0.0, "n": 2}], "hex": "0100000002e3d2d80938e3e7c0fbd6d373a7a5132c09b2e648e3e3a87ade4f7c5cf9047551020000006a473044022075fde6c4eaf9f2226935ae951614c74ac7d9199a5cb65900a5ce1bfd1cb83b7a022018f57745e0f6c911a557a1f5b56173ba553266293c58b1e9c361fc08125799e70121028e90814c8ce32e5271b4829bc041758ab08f2ae9e9e2c6be47495b75df6bdd71ffffffff84c9ed4cf987ea0229e124cd2c2c947a77832117797d18e9407b4cf1d17d4ed1000000006b4830450221008526b6169ade2c6c1ad31bc3b5d0ee925eeac063414c7b78dd5e84c8c48e8c5002207345b07f80e9e83b2adc6bf7b68d8f7e77f2e96b2607b6d6c020221757553b7d01210271977291b74f1f5f5c42157e8aae804664eaaeccfd097918450d37f28fb94d77ffffffff03ac2c0100000000001976a914d243e6abb9a60fbff430b421d2df4b7d59ec186088ac22020000000000001976a9143851f34d13937b673a7d24a1950bb5b21ce94af388ac0000000000000000166a146f6d6e69000000000000001f0000000c9dfcd4c000000000", "vin": [{"sequence": 4294967295, "scriptSig": {"hex": "473044022075fde6c4eaf9f2226935ae951614c74ac7d9199a5cb65900a5ce1bfd1cb83b7a022018f57745e0f6c911a557a1f5b56173ba553266293c58b1e9c361fc08125799e70121028e90814c8ce32e5271b4829bc041758ab08f2ae9e9e2c6be47495b75df6bdd71", "asm": "3044022075fde6c4eaf9f2226935ae951614c74ac7d9199a5cb65900a5ce1bfd1cb83b7a022018f57745e0f6c911a557a1f5b56173ba553266293c58b1e9c361fc08125799e7[ALL] 028e90814c8ce32e5271b4829bc041758ab08f2ae9e9e2c6be47495b75df6bdd71"}, "vout": 2, "txid": "517504f95c7c4fde7aa8e3e348e6b2092c13a5a773d3d6fbc0e7e33809d8d2e3"}, {"sequence": 4294967295, "scriptSig": {"hex": "4830450221008526b6169ade2c6c1ad31bc3b5d0ee925eeac063414c7b78dd5e84c8c48e8c5002207345b07f80e9e83b2adc6bf7b68d8f7e77f2e96b2607b6d6c020221757553b7d01210271977291b74f1f5f5c42157e8aae804664eaaeccfd097918450d37f28fb94d77", "asm": "30450221008526b6169ade2c6c1ad31bc3b5d0ee925eeac063414c7b78dd5e84c8c48e8c5002207345b07f80e9e83b2adc6bf7b68d8f7e77f2e96b2607b6d6c020221757553b7d[ALL] 0271977291b74f1f5f5c42157e8aae804664eaaeccfd097918450d37f28fb94d77"}, "vout": 0, "txid": "d14e7dd1f14c7b40e9187d79172183777a942c2ccd24e12902ea87f94cedc984"}], "txid": "03bff5c436170bae6317e96540fd5215faa422d4d4ac683906c54ff0eee0e320", "blocktime": 1537869901, "version": 1, "confirmations": 11522, "time": 1537869901, "locktime": 0, "vsize": 404, "size": 404}