{"hash": "03c23ffd2275b3d9d1faaa01d5096b4d4e26a98c68da8a70c16e8541ce5bb77e", "blockhash": "00000000000000000004ffacab907a6b429b9a5745fa0b75af4234bf69dd7176", "vout": [{"scriptPubKey": {"reqSigs": 1, "hex": "a914f55c03207464ac2fb8df9ada41c4931ddb56c0b387", "addresses": ["3Q4MhfQHmKnU7S26sSZix7cHSTVXPQE9E1"], "asm": "OP_HASH160 f55c03207464ac2fb8df9ada41c4931ddb56c0b3 OP_EQUAL", "type": "scripthash"}, "value": 0.00063626, "n": 0}], "hex": "0100000001a72dfc524f499bd79a51a22389e57f354e459106e470e83c2fab2ccd0d776913010000006a47304402201836f5f87c753f3bdfe765064e025e51fcc0f3f6292fa64d436396d3ad94310c02205ec38e5dc5f97bd05b74880e0520b0ce7737a83f3e297d88de3c6b0cea4356ce012103546eca8a771631a431210def4b75def0758f0bed0a21f614e00c7d6124f7d005ffffffff018af800000000000017a914f55c03207464ac2fb8df9ada41c4931ddb56c0b38700000000", "vin": [{"sequence": 4294967295, "scriptSig": {"hex": "47304402201836f5f87c753f3bdfe765064e025e51fcc0f3f6292fa64d436396d3ad94310c02205ec38e5dc5f97bd05b74880e0520b0ce7737a83f3e297d88de3c6b0cea4356ce012103546eca8a771631a431210def4b75def0758f0bed0a21f614e00c7d6124f7d005", "asm": "304402201836f5f87c753f3bdfe765064e025e51fcc0f3f6292fa64d436396d3ad94310c02205ec38e5dc5f97bd05b74880e0520b0ce7737a83f3e297d88de3c6b0cea4356ce[ALL] 03546eca8a771631a431210def4b75def0758f0bed0a21f614e00c7d6124f7d005"}, "vout": 1, "txid": "1369770dcd2cab2f3ce870e40691454e357fe58923a2519ad79b494f52fc2da7"}], "txid": "03c23ffd2275b3d9d1faaa01d5096b4d4e26a98c68da8a70c16e8541ce5bb77e", "blocktime": 1537875543, "version": 1, "confirmations": 11464, "time": 1537875543, "locktime": 0, "vsize": 189, "size": 189}