{"hash": "3681b9aa35082f5dce84173fec2e61786e0a061bea28c277c28aa9edf427c31b", "blockhash": "00000000000000000024a2167bbff67b0be802c0b01cdd79e6331c2be6459f87", "vout": [{"scriptPubKey": {"reqSigs": 1, "hex": "a914d2a90181bd395f850baf44059fd6b7db5928610287", "addresses": ["3LttHZc3jUcgdeisEHxwDPkxJj8y81MU49"], "asm": "OP_HASH160 d2a90181bd395f850baf44059fd6b7db59286102 OP_EQUAL", "type": "scripthash"}, "value": 0.00692712, "n": 0}, {"scriptPubKey": {"reqSigs": 1, "hex": "a914657946de3357c995f9e47d14d8b52c7d2857874a87", "addresses": ["3AwZTP1nthSmQzB7G4SSTVKL46srASS3kA"], "asm": "OP_HASH160 657946de3357c995f9e47d14d8b52c7d2857874a OP_EQUAL", "type": "scripthash"}, "value": 1.8235662, "n": 1}], "hex": "020000000001014decae9c1d2d92b7e0f484994eee4a2c1fe467f12321a9c91bdf21d77351fcb4010000001716001429b5ebcfc562f2b5c591e0bafedbdafb33cea766feffffff02e8910a000000000017a914d2a90181bd395f850baf44059fd6b7db59286102878c8ade0a0000000017a914657946de3357c995f9e47d14d8b52c7d2857874a8702483045022100f7ec8d6a2ebe8932800e6fc0765ec98ca1715c64efedb39facacb79c2a6f44bd02202878dd45a1752e19192464fc95ea2212b0e4333e1017d41ee9aedc3ff190e7710121037b2bd6d82c9d304a6ae77199a2d081847d68141f83adc27a54246bbe304f40a70d490800", "vin": [{"txinwitness": ["3045022100f7ec8d6a2ebe8932800e6fc0765ec98ca1715c64efedb39facacb79c2a6f44bd02202878dd45a1752e19192464fc95ea2212b0e4333e1017d41ee9aedc3ff190e77101", "037b2bd6d82c9d304a6ae77199a2d081847d68141f83adc27a54246bbe304f40a7"], "sequence": 4294967294, "scriptSig": {"hex": "16001429b5ebcfc562f2b5c591e0bafedbdafb33cea766", "asm": "001429b5ebcfc562f2b5c591e0bafedbdafb33cea766"}, "vout": 1, "txid": "b4fc5173d721df1bc9a92123f167e41f2c4aee4e9984f4e0b7922d1d9caeec4d"}], "txid": "03c33f66a745b183169a6e0b2f2db3c16008e9ef244c2f593debbc7f62af34d4", "blocktime": 1537870564, "version": 2, "confirmations": 11515, "time": 1537870564, "locktime": 542989, "vsize": 166, "size": 248}