{"hash": "5a7a5e07a79b085bc3924876347b87a610aa0f7ecb684885fc99ea9ca2054343", "blockhash": "0000000000000000001f76057863aec43deb6fa401d9628bb513d65a8098bfab", "vout": [{"scriptPubKey": {"reqSigs": 1, "hex": "76a914fd63dc71134f280ea3684b2a6d0fed504e023c2288ac", "addresses": ["1Q6ob1ERiRzWSu5EaKn2nBqzq4cV8kDFJD"], "asm": "OP_DUP OP_HASH160 fd63dc71134f280ea3684b2a6d0fed504e023c22 OP_EQUALVERIFY OP_CHECKSIG", "type": "pubkeyhash"}, "value": 0.0031, "n": 0}, {"scriptPubKey": {"reqSigs": 1, "hex": "a914e44356db4d420ce6233dcb2f404bb306e2b1fa0d87", "addresses": ["3NVxf6Z43Rr2rm3hioTGa6fjwNMUw2uAxv"], "asm": "OP_HASH160 e44356db4d420ce6233dcb2f404bb306e2b1fa0d OP_EQUAL", "type": "scripthash"}, "value": 0.01456246, "n": 1}], "hex": "01000000000101c0b1c99b2951efe5e92c1a749482d291d329910e8937baff8db091338bbeb36c0000000017160014c6c2870f9674c04900d9d57600db7582b940cf29ffffffff02f0ba0400000000001976a914fd63dc71134f280ea3684b2a6d0fed504e023c2288ac763816000000000017a914e44356db4d420ce6233dcb2f404bb306e2b1fa0d870248304502210083c84161eab48e0656b4163000cf933a0d59366bb64207729d8df6453c99957b02200f2310718214d1b76af9d8ed15755574004a51d8c73a1f2e764d79c938c1f0430121031336a51856fb12f8e56fe17922ee471818509e829baafb7b97d8b3593c1d8e0900000000", "vin": [{"txinwitness": ["304502210083c84161eab48e0656b4163000cf933a0d59366bb64207729d8df6453c99957b02200f2310718214d1b76af9d8ed15755574004a51d8c73a1f2e764d79c938c1f04301", "031336a51856fb12f8e56fe17922ee471818509e829baafb7b97d8b3593c1d8e09"], "sequence": 4294967295, "scriptSig": {"hex": "160014c6c2870f9674c04900d9d57600db7582b940cf29", "asm": "0014c6c2870f9674c04900d9d57600db7582b940cf29"}, "vout": 0, "txid": "6cb3be8b3391b08dffba37890e9129d391d28294741a2ce9e5ef51299bc9b1c0"}], "txid": "03c9e39d0e17fa766d9e2690694d4fdf756b971c09897b67cd02000be4c7fc48", "blocktime": 1537873891, "version": 1, "confirmations": 11478, "time": 1537873891, "locktime": 0, "vsize": 168, "size": 250}