{"hash": "03cc9407c637fb226c2e291fccd239dd3e8185fde8fc6bda54be0f96f81ce02a", "blockhash": "00000000000000000004ffacab907a6b429b9a5745fa0b75af4234bf69dd7176", "vout": [{"scriptPubKey": {"reqSigs": 1, "hex": "76a91496fe9ea3f49314d18c0762b2f4faf0f1c664e95588ac", "addresses": ["1EmPP4XGZSHD6YdihQTAmZTncoy6myHpoW"], "asm": "OP_DUP OP_HASH160 96fe9ea3f49314d18c0762b2f4faf0f1c664e955 OP_EQUALVERIFY OP_CHECKSIG", "type": "pubkeyhash"}, "value": 0.49130903, "n": 0}, {"scriptPubKey": {"reqSigs": 1, "hex": "a91415a05aa0e910ed7a4ded43e2a28522d7524d803087", "addresses": ["33fNDAWDd4YG25CnKsTaxLw7GH7o9FN3VP"], "asm": "OP_HASH160 15a05aa0e910ed7a4ded43e2a28522d7524d8030 OP_EQUAL", "type": "scripthash"}, "value": 0.001, "n": 1}], "hex": "0100000001afa2b83486d1c76f74b154c5b40f5766a46e13e7e6c75c260489a05f827845ef010000006a473044022073727ab0225c06f334a3243db632a184e082d0b2ac118ce589fb00ac32458d42022050fad1547bdd757a87fcc12190c02d7162a67ab25ed2fccbd0a7f9f33710c268012102742337f8ecf57ee175acfdb61b99f523bb47fb10430507fdbee1fb1da96a404fffffffff0297aded02000000001976a91496fe9ea3f49314d18c0762b2f4faf0f1c664e95588aca08601000000000017a91415a05aa0e910ed7a4ded43e2a28522d7524d80308700000000", "vin": [{"sequence": 4294967295, "scriptSig": {"hex": "473044022073727ab0225c06f334a3243db632a184e082d0b2ac118ce589fb00ac32458d42022050fad1547bdd757a87fcc12190c02d7162a67ab25ed2fccbd0a7f9f33710c268012102742337f8ecf57ee175acfdb61b99f523bb47fb10430507fdbee1fb1da96a404f", "asm": "3044022073727ab0225c06f334a3243db632a184e082d0b2ac118ce589fb00ac32458d42022050fad1547bdd757a87fcc12190c02d7162a67ab25ed2fccbd0a7f9f33710c268[ALL] 02742337f8ecf57ee175acfdb61b99f523bb47fb10430507fdbee1fb1da96a404f"}, "vout": 1, "txid": "ef4578825fa08904265cc7e6e7136ea466570fb4c554b1746fc7d18634b8a2af"}], "txid": "03cc9407c637fb226c2e291fccd239dd3e8185fde8fc6bda54be0f96f81ce02a", "blocktime": 1537875543, "version": 1, "confirmations": 11464, "time": 1537875543, "locktime": 0, "vsize": 223, "size": 223}