{"hash": "f814f017befaf4bda42b208cb45677bc7a0be03a212dc457fe94ae3a0c912b8f", "blockhash": "0000000000000000001cda96e906b7601b7a6fb1a3b62bca570a9e5d8f4b3de1", "vout": [{"scriptPubKey": {"reqSigs": 1, "hex": "00147f265119e5175d18bac86e5ac96d1f94873387b8", "addresses": ["bc1q0un9zx09zaw33wkgdedvjmgljjrn8packjw7e5"], "asm": "0 7f265119e5175d18bac86e5ac96d1f94873387b8", "type": "witness_v0_keyhash"}, "value": 0.01545112, "n": 0}, {"scriptPubKey": {"reqSigs": 1, "hex": "76a91462f9a19bb360a0c3c690c954a73ac93b0defb7bb88ac", "addresses": ["1A2LGV8JrkBhHwfUaMMLy55eF2uQ2wYnWE"], "asm": "OP_DUP OP_HASH160 62f9a19bb360a0c3c690c954a73ac93b0defb7bb OP_EQUALVERIFY OP_CHECKSIG", "type": "pubkeyhash"}, "value": 0.010543, "n": 1}], "hex": "01000000000101ec6542719935fac73ce4815d0e1dd50479654ebe53a1bacbac56407aa9dc8d000300000017160014f0ada6b54766fd0acf7030bd35637c69ee639b13ffffffff0298931700000000001600147f265119e5175d18bac86e5ac96d1f94873387b85c161000000000001976a91462f9a19bb360a0c3c690c954a73ac93b0defb7bb88ac0247304402202fa39f4052345d5c126457d20e0360e2dd996e5892bd3a18329e45cbbfb63c2e022074c25aef32f232c5467cfc5b19d27ce3048c1fc1803ec55b38fd55d493d023d501210287864f9d35835ed03dd7255ca10d737817676efd8fa91d6ebbb9feffbd2042de00000000", "vin": [{"txinwitness": ["304402202fa39f4052345d5c126457d20e0360e2dd996e5892bd3a18329e45cbbfb63c2e022074c25aef32f232c5467cfc5b19d27ce3048c1fc1803ec55b38fd55d493d023d501", "0287864f9d35835ed03dd7255ca10d737817676efd8fa91d6ebbb9feffbd2042de"], "sequence": 4294967295, "scriptSig": {"hex": "160014f0ada6b54766fd0acf7030bd35637c69ee639b13", "asm": "0014f0ada6b54766fd0acf7030bd35637c69ee639b13"}, "vout": 3, "txid": "008ddca97a4056accbbaa153be4e657904d51d0e5d81e43cc7fa3599714265ec"}], "txid": "03d022f4cbf9341f339ef9ba7f2280a1d9a411969e27901738233dbaff6d0c5c", "blocktime": 1537873282, "version": 1, "confirmations": 11484, "time": 1537873282, "locktime": 0, "vsize": 167, "size": 248}