{"hash": "d932356b0a9d3be6d755404eae14acd22f74f4feb6e34a3c08b1785c0c23c880", "blockhash": "0000000000000000001f0ddff1eddb255c1121bcd4da4f1bc9a0da00cae72433", "vout": [{"scriptPubKey": {"reqSigs": 1, "hex": "76a914a0aae7867b413f77babcd0e42cea495bd662e30888ac", "addresses": ["1FeXrLdb1ZaSJUegdeGUbWrt6WPhvbSZEd"], "asm": "OP_DUP OP_HASH160 a0aae7867b413f77babcd0e42cea495bd662e308 OP_EQUALVERIFY OP_CHECKSIG", "type": "pubkeyhash"}, "value": 0.06657178, "n": 0}], "hex": "010000000001017e90e990257085b405e7aff719f71485e5eb3139a8a9829c72d8e1aa94dfeeac010000002322002036401154da6796acefe14f286177b88337a480c3ea0493f7e4d677fd23964805fdffffff019a946500000000001976a914a0aae7867b413f77babcd0e42cea495bd662e30888ac040047304402206967338306c5a3caaf19b90cda4a7f21b0011f10c28b54e5e76f424cf71b33b802207cf36c8570b5e4973cb1909af3efa1d10dd3bd1fb7ccf5704ec53c363661ac2e01483045022100eedc9cbe0b348a24862923566c5cf19f78c0096a0f412ea7a16ebd17d3010ef202206147fb4f1cff717608bb66758ee7d7a4d452125248cae0a60ca9a0913e56fb470147522102f9249803cd75cdbab2bef281ae840f28424355d90fd07fde3060c4cb6fe99d7421032bebc7effa53634fb9284a34b55822f19feb53933d19fbce76f01739da404b0b52ae11490800", "vin": [{"txinwitness": ["", "304402206967338306c5a3caaf19b90cda4a7f21b0011f10c28b54e5e76f424cf71b33b802207cf36c8570b5e4973cb1909af3efa1d10dd3bd1fb7ccf5704ec53c363661ac2e01", "3045022100eedc9cbe0b348a24862923566c5cf19f78c0096a0f412ea7a16ebd17d3010ef202206147fb4f1cff717608bb66758ee7d7a4d452125248cae0a60ca9a0913e56fb4701", "522102f9249803cd75cdbab2bef281ae840f28424355d90fd07fde3060c4cb6fe99d7421032bebc7effa53634fb9284a34b55822f19feb53933d19fbce76f01739da404b0b52ae"], "sequence": 4294967293, "scriptSig": {"hex": "22002036401154da6796acefe14f286177b88337a480c3ea0493f7e4d677fd23964805", "asm": "002036401154da6796acefe14f286177b88337a480c3ea0493f7e4d677fd23964805"}, "vout": 1, "txid": "aceedf94aae1d8729c82a9a83931ebe58514f719f7afe705b485702590e9907e"}], "txid": "03d314b3a6f7e39a5e9fc496d0e3dc62d71f1fcddff9a02da8cf4c3259dbc53d", "blocktime": 1537872018, "version": 1, "confirmations": 11489, "time": 1537872018, "locktime": 542993, "vsize": 176, "size": 341}