{"hash": "30e8cc01a1ae96aa979e910633815de27fdb203303ea0e3323743cae882a437a", "blockhash": "0000000000000000000e13cef7c366c0283d82e591d1acd082e914b08063cdf1", "vout": [{"scriptPubKey": {"reqSigs": 1, "hex": "0014309f7eb7ad400cb4099306f06de6bb15e726fc61", "addresses": ["bc1qxz0hadadgqxtgzvnqmcxme4mzhnjdlrpjmalu3"], "asm": "0 309f7eb7ad400cb4099306f06de6bb15e726fc61", "type": "witness_v0_keyhash"}, "value": 0.07753822, "n": 0}, {"scriptPubKey": {"reqSigs": 1, "hex": "a914cad02608b8455e57a86e4906f155b227acfc706487", "addresses": ["3LBPmi7mJ3bp2KQ6JdKsEnDkxYheeKPxsr"], "asm": "OP_HASH160 cad02608b8455e57a86e4906f155b227acfc7064 OP_EQUAL", "type": "scripthash"}, "value": 0.0552109, "n": 1}], "hex": "0100000000010104cc6fb82dd4406ee88affc9997a8c6f9466d51615239df71ab31e6b3105cf830100000000ffffffff025e50760000000000160014309f7eb7ad400cb4099306f06de6bb15e726fc61c23e54000000000017a914cad02608b8455e57a86e4906f155b227acfc70648702473044022015590761e2714a384c54ee4726e3309531b207d29bb3783bdc494be93dafa1a2022034baffc2096d34d6ca12208cfe0c553535c1dd3e53c7f799d56ecb8d36f8769a01210205ec96c5116facf027eee6684402112bd35c1078e863a034ccb110d3c417f67900000000", "vin": [{"txinwitness": ["3044022015590761e2714a384c54ee4726e3309531b207d29bb3783bdc494be93dafa1a2022034baffc2096d34d6ca12208cfe0c553535c1dd3e53c7f799d56ecb8d36f8769a01", "0205ec96c5116facf027eee6684402112bd35c1078e863a034ccb110d3c417f679"], "sequence": 4294967295, "scriptSig": {"hex": "", "asm": ""}, "vout": 1, "txid": "83cf05316b1eb31af79d231516d566946f8c7a99c9ff8ae86e40d42db86fcc04"}], "txid": "03da0e74778039c988b46a25582479b8328a7489f3667c3d799793de996d04e0", "blocktime": 1537871767, "version": 1, "confirmations": 11495, "time": 1537871767, "locktime": 0, "vsize": 142, "size": 223}