{"hash": "03dbe4077c644bfe56ea92aaacfd002ec7abbbcab187346c60c6d32fd0eb6ec3", "blockhash": "0000000000000000000dcc0f55137456b1a82d3642486a52398922ac4d620174", "vout": [{"scriptPubKey": {"reqSigs": 1, "hex": "76a914d243e6abb9a60fbff430b421d2df4b7d59ec186088ac", "addresses": ["1LAnF8h3qMGx3TSwNUHVneBZUEpwE4gu3D"], "asm": "OP_DUP OP_HASH160 d243e6abb9a60fbff430b421d2df4b7d59ec1860 OP_EQUALVERIFY OP_CHECKSIG", "type": "pubkeyhash"}, "value": 0.00076972, "n": 0}, {"scriptPubKey": {"reqSigs": 1, "hex": "76a9143851f34d13937b673a7d24a1950bb5b21ce94af388ac", "addresses": ["168o1kqNquEJeR9vosUB5fw4eAwcVAgh8P"], "asm": "OP_DUP OP_HASH160 3851f34d13937b673a7d24a1950bb5b21ce94af3 OP_EQUALVERIFY OP_CHECKSIG", "type": "pubkeyhash"}, "value": 5.46e-06, "n": 1}, {"scriptPubKey": {"type": "nulldata", "hex": "6a146f6d6e69000000000000001f0000015d3ef79800", "asm": "OP_RETURN 6f6d6e69000000000000001f0000015d3ef79800"}, "value": 0.0, "n": 2}], "hex": "01000000028ed68316ebb9acf75e561b5930d2212196e338329007cfbaec88848d43b3f672010000006b483045022100c28d970d05657cfdf0ed733b69d9b311fe5af439b15124ddfa280fcffac5c3ca02205b351ff84c37756f96807b22b0653dd8f76964fadde528ad5520751c6946ac1c01210313e10160ffcb1f8c2950b0b1f2551f0bac88ee85ba4092b695f5d1505d619b89ffffffffa2c1aa7b8c80a1bd6ee11ebe7c8c22e06859b95b2607d46b05d892e4b5bcd2d0000000006b483045022100bc9c01e555b095d7e8fe6ee47c55d9ad591c54965f10e3e2eba4c0996e9b5d50022052977e08fc1e4610046c31ec60d704bf10dd46b35a3208e25a54fd3c6f2e0bb401210271977291b74f1f5f5c42157e8aae804664eaaeccfd097918450d37f28fb94d77ffffffff03ac2c0100000000001976a914d243e6abb9a60fbff430b421d2df4b7d59ec186088ac22020000000000001976a9143851f34d13937b673a7d24a1950bb5b21ce94af388ac0000000000000000166a146f6d6e69000000000000001f0000015d3ef7980000000000", "vin": [{"sequence": 4294967295, "scriptSig": {"hex": "483045022100c28d970d05657cfdf0ed733b69d9b311fe5af439b15124ddfa280fcffac5c3ca02205b351ff84c37756f96807b22b0653dd8f76964fadde528ad5520751c6946ac1c01210313e10160ffcb1f8c2950b0b1f2551f0bac88ee85ba4092b695f5d1505d619b89", "asm": "3045022100c28d970d05657cfdf0ed733b69d9b311fe5af439b15124ddfa280fcffac5c3ca02205b351ff84c37756f96807b22b0653dd8f76964fadde528ad5520751c6946ac1c[ALL] 0313e10160ffcb1f8c2950b0b1f2551f0bac88ee85ba4092b695f5d1505d619b89"}, "vout": 1, "txid": "72f6b3438d8488ecbacf07903238e3962121d230591b565ef7acb9eb1683d68e"}, {"sequence": 4294967295, "scriptSig": {"hex": "483045022100bc9c01e555b095d7e8fe6ee47c55d9ad591c54965f10e3e2eba4c0996e9b5d50022052977e08fc1e4610046c31ec60d704bf10dd46b35a3208e25a54fd3c6f2e0bb401210271977291b74f1f5f5c42157e8aae804664eaaeccfd097918450d37f28fb94d77", "asm": "3045022100bc9c01e555b095d7e8fe6ee47c55d9ad591c54965f10e3e2eba4c0996e9b5d50022052977e08fc1e4610046c31ec60d704bf10dd46b35a3208e25a54fd3c6f2e0bb4[ALL] 0271977291b74f1f5f5c42157e8aae804664eaaeccfd097918450d37f28fb94d77"}, "vout": 0, "txid": "d0d2bcb5e492d8056bd407265bb95968e0228c7cbe1ee16ebda1808c7baac1a2"}], "txid": "03dbe4077c644bfe56ea92aaacfd002ec7abbbcab187346c60c6d32fd0eb6ec3", "blocktime": 1537870268, "version": 1, "confirmations": 11516, "time": 1537870268, "locktime": 0, "vsize": 405, "size": 405}