{"hash": "03df2de22a8d8b3359ad8e09c15ed3ab7a8d07b7747c6c97462d4fcf8e6d81aa", "blockhash": "0000000000000000001f76057863aec43deb6fa401d9628bb513d65a8098bfab", "vout": [{"scriptPubKey": {"reqSigs": 1, "hex": "76a914361cd5544902e9df58e7a26c662a941a93da03ec88ac", "addresses": ["15w82jWKQYeAnNg1nLxqxnmxo5cjXPNVA5"], "asm": "OP_DUP OP_HASH160 361cd5544902e9df58e7a26c662a941a93da03ec OP_EQUALVERIFY OP_CHECKSIG", "type": "pubkeyhash"}, "value": 0.00378305, "n": 0}, {"scriptPubKey": {"reqSigs": 1, "hex": "76a9140c74e8ab2041d6294ae3874043f823da6d5cce7388ac", "addresses": ["128sAGnACJgxWbTAwwULkkJvaXgtAmyPby"], "asm": "OP_DUP OP_HASH160 0c74e8ab2041d6294ae3874043f823da6d5cce73 OP_EQUALVERIFY OP_CHECKSIG", "type": "pubkeyhash"}, "value": 0.09360443, "n": 1}], "hex": "01000000015f782b6110f15216036c48f80ef45153f9657b2fec7644852992a637b531c7a8010000006a473044022045eaa0b49571b48f33860d46401325e28bdbd2c5b50266042226d213123b0ed602204b4bca61ad86aaf2c9f11d087b3702417d4afdb220cf88ddc5025b8e34c857bd0121020be1a16a513d905ec05ebaba2d479c68bbd4d7af1bd8e05123e7a8fcac27d318ffffffff02c1c50500000000001976a914361cd5544902e9df58e7a26c662a941a93da03ec88ac3bd48e00000000001976a9140c74e8ab2041d6294ae3874043f823da6d5cce7388ac00000000", "vin": [{"sequence": 4294967295, "scriptSig": {"hex": "473044022045eaa0b49571b48f33860d46401325e28bdbd2c5b50266042226d213123b0ed602204b4bca61ad86aaf2c9f11d087b3702417d4afdb220cf88ddc5025b8e34c857bd0121020be1a16a513d905ec05ebaba2d479c68bbd4d7af1bd8e05123e7a8fcac27d318", "asm": "3044022045eaa0b49571b48f33860d46401325e28bdbd2c5b50266042226d213123b0ed602204b4bca61ad86aaf2c9f11d087b3702417d4afdb220cf88ddc5025b8e34c857bd[ALL] 020be1a16a513d905ec05ebaba2d479c68bbd4d7af1bd8e05123e7a8fcac27d318"}, "vout": 1, "txid": "a8c731b537a69229854476ec2f7b65f95351f40ef8486c031652f110612b785f"}], "txid": "03df2de22a8d8b3359ad8e09c15ed3ab7a8d07b7747c6c97462d4fcf8e6d81aa", "blocktime": 1537873891, "version": 1, "confirmations": 11477, "time": 1537873891, "locktime": 0, "vsize": 225, "size": 225}