{"hash": "03e516d6310e170302aeb6fe89139ef8a3e0d675f3660d868aeccc2376375c7e", "blockhash": "0000000000000000001f0ddff1eddb255c1121bcd4da4f1bc9a0da00cae72433", "vout": [{"scriptPubKey": {"reqSigs": 1, "hex": "76a9147e4caa8a4cb928e854349f58efc47fd580d33dd288ac", "addresses": ["1CWoz2ivdx51oUBcdHUXr5uQpfMsM8kHtE"], "asm": "OP_DUP OP_HASH160 7e4caa8a4cb928e854349f58efc47fd580d33dd2 OP_EQUALVERIFY OP_CHECKSIG", "type": "pubkeyhash"}, "value": 0.001, "n": 0}, {"scriptPubKey": {"reqSigs": 1, "hex": "a9149caf23bead95fc923e847991b5c26dcc2034288d87", "addresses": ["3FyV9PE3xbQ1jb4i7nWocJNY3ot7F5ioFG"], "asm": "OP_HASH160 9caf23bead95fc923e847991b5c26dcc2034288d OP_EQUAL", "type": "scripthash"}, "value": 0.62046317, "n": 1}, {"scriptPubKey": {"reqSigs": 1, "hex": "76a91433b0b19c66471a224283fc30762c2ccf8e808c8588ac", "addresses": ["15iK8gdcd7v2KhHNqeJGaPJ6c7shQa2cM4"], "asm": "OP_DUP OP_HASH160 33b0b19c66471a224283fc30762c2ccf8e808c85 OP_EQUALVERIFY OP_CHECKSIG", "type": "pubkeyhash"}, "value": 2.3351, "n": 2}], "hex": "01000000015bef79fdf7f4586808c449db307add4a218d17cc12f27ff94394ebcce3d9f67101000000fdfe0000483045022100ea809ce9a7195df2e00270ce1e384d7ed7bb4aab7bfd9c4b1cbf0109470042a702207263eb299da964612b3f3de21dda0327535a0f24100824a0edd67b37a521772201483045022100f24995914ced1c32f345a7d4dc3dd82605623063c0867df03b29789b64f802230220439bfe1fd7d9189c4830e49004989706f00ac1aea472e3d46a017fedafbade9c014c6952210280a49d50f86ef2eecb763e0226c7555e774d1ec37bf9685aa669fd00a146016421037d0bfc6e9b7492e985409b355c5a50b0f04c4e75664a69d1d9445c256f286d4121038376207b4ac668299182467a925ca6240ed95d4dd3005a6a8837280dd060519d53aefdffffff03a0860100000000001976a9147e4caa8a4cb928e854349f58efc47fd580d33dd288ac6dc0b2030000000017a9149caf23bead95fc923e847991b5c26dcc2034288d877014eb0d000000001976a91433b0b19c66471a224283fc30762c2ccf8e808c8588ac11490800", "vin": [{"sequence": 4294967293, "scriptSig": {"hex": "00483045022100ea809ce9a7195df2e00270ce1e384d7ed7bb4aab7bfd9c4b1cbf0109470042a702207263eb299da964612b3f3de21dda0327535a0f24100824a0edd67b37a521772201483045022100f24995914ced1c32f345a7d4dc3dd82605623063c0867df03b29789b64f802230220439bfe1fd7d9189c4830e49004989706f00ac1aea472e3d46a017fedafbade9c014c6952210280a49d50f86ef2eecb763e0226c7555e774d1ec37bf9685aa669fd00a146016421037d0bfc6e9b7492e985409b355c5a50b0f04c4e75664a69d1d9445c256f286d4121038376207b4ac668299182467a925ca6240ed95d4dd3005a6a8837280dd060519d53ae", "asm": "0 3045022100ea809ce9a7195df2e00270ce1e384d7ed7bb4aab7bfd9c4b1cbf0109470042a702207263eb299da964612b3f3de21dda0327535a0f24100824a0edd67b37a5217722[ALL] 3045022100f24995914ced1c32f345a7d4dc3dd82605623063c0867df03b29789b64f802230220439bfe1fd7d9189c4830e49004989706f00ac1aea472e3d46a017fedafbade9c[ALL] 52210280a49d50f86ef2eecb763e0226c7555e774d1ec37bf9685aa669fd00a146016421037d0bfc6e9b7492e985409b355c5a50b0f04c4e75664a69d1d9445c256f286d4121038376207b4ac668299182467a925ca6240ed95d4dd3005a6a8837280dd060519d53ae"}, "vout": 1, "txid": "71f6d9e3cceb9443f97ff212cc178d214add7a30db49c4086858f4f7fd79ef5b"}], "txid": "03e516d6310e170302aeb6fe89139ef8a3e0d675f3660d868aeccc2376375c7e", "blocktime": 1537872018, "version": 1, "confirmations": 11489, "time": 1537872018, "locktime": 542993, "vsize": 407, "size": 407}