{"hash": "03e84c32a59a72e3f259d3ddfdd97e6e7393c0add9834376eccea1f0c5360ef2", "blockhash": "0000000000000000001f76057863aec43deb6fa401d9628bb513d65a8098bfab", "vout": [{"scriptPubKey": {"reqSigs": 1, "hex": "a914e34909f475c5749ffaea9fade3a150e1e004a43387", "addresses": ["3NQnovKKQZciwUAhro5JDPGSnQAF7bXopB"], "asm": "OP_HASH160 e34909f475c5749ffaea9fade3a150e1e004a433 OP_EQUAL", "type": "scripthash"}, "value": 0.00304858, "n": 0}, {"scriptPubKey": {"reqSigs": 1, "hex": "76a9143dbd39b192a3c0734dcb964ee9b7edfd4153801488ac", "addresses": ["16dSuK1joFkXaUVVWnx1F1KQmuBcHkteJt"], "asm": "OP_DUP OP_HASH160 3dbd39b192a3c0734dcb964ee9b7edfd41538014 OP_EQUALVERIFY OP_CHECKSIG", "type": "pubkeyhash"}, "value": 0.02901327, "n": 1}], "hex": "0100000001264d3a980c7f3a0b5f82076f3abf3142ffa9ae678b0b834d65d86f1d005244eb010000006a473044022079217992dae9f8bb99533bba50ccc704b726384f367df356a0d568ea6d47a3df022010f221f99c9c778117158db69025b8291063692d0ac6d68f43b8d9e314cd91fe01210375c99485e6ec5c65167ff6c56ae7d6a0173c3f3ec80b2e78ce6f4fd9ef6e0054ffffffff02daa604000000000017a914e34909f475c5749ffaea9fade3a150e1e004a433874f452c00000000001976a9143dbd39b192a3c0734dcb964ee9b7edfd4153801488ac00000000", "vin": [{"sequence": 4294967295, "scriptSig": {"hex": "473044022079217992dae9f8bb99533bba50ccc704b726384f367df356a0d568ea6d47a3df022010f221f99c9c778117158db69025b8291063692d0ac6d68f43b8d9e314cd91fe01210375c99485e6ec5c65167ff6c56ae7d6a0173c3f3ec80b2e78ce6f4fd9ef6e0054", "asm": "3044022079217992dae9f8bb99533bba50ccc704b726384f367df356a0d568ea6d47a3df022010f221f99c9c778117158db69025b8291063692d0ac6d68f43b8d9e314cd91fe[ALL] 0375c99485e6ec5c65167ff6c56ae7d6a0173c3f3ec80b2e78ce6f4fd9ef6e0054"}, "vout": 1, "txid": "eb4452001d6fd8654d830b8b67aea9ff4231bf3a6f07825f0b3a7f0c983a4d26"}], "txid": "03e84c32a59a72e3f259d3ddfdd97e6e7393c0add9834376eccea1f0c5360ef2", "blocktime": 1537873891, "version": 1, "confirmations": 11477, "time": 1537873891, "locktime": 0, "vsize": 223, "size": 223}