{"hash": "03eafe3d22ab8effd138f6c676dd336e38a6a39c5f846c2963deb03c835464d4", "blockhash": "0000000000000000001cda96e906b7601b7a6fb1a3b62bca570a9e5d8f4b3de1", "vout": [{"scriptPubKey": {"reqSigs": 1, "hex": "76a9145b4a23660279d1b6015d2a35ba3294269486d8d488ac", "addresses": ["19KhJg79otrLx3bueygr2wbHkVT5u6JY9y"], "asm": "OP_DUP OP_HASH160 5b4a23660279d1b6015d2a35ba3294269486d8d4 OP_EQUALVERIFY OP_CHECKSIG", "type": "pubkeyhash"}, "value": 48.50579248, "n": 0}, {"scriptPubKey": {"reqSigs": 1, "hex": "a91484f3e835d49f24b721949fb62b5f306c53db20ab87", "addresses": ["3Dp1JprD6Wt9e3KANM3huGuP3HCXVEENqc"], "asm": "OP_HASH160 84f3e835d49f24b721949fb62b5f306c53db20ab OP_EQUAL", "type": "scripthash"}, "value": 0.01650029, "n": 1}], "hex": "0200000001433517e37a9ac0368b064af650722e820ba8a113ba8e752de963582d707c2ba1010000006a473044022056108a36a3cb9582a02b96f7c0422ffee473440ebc9323108348f69b6f62593b0220153f8de1e06727d8e494e90918b442861534161d5cc6a32c711a460b9de9c3e70121027c5715d921b5ccb9a708f45e2e2da6efc9229522a95d539682e652235b56ea4cffffffff0230f71d21010000001976a9145b4a23660279d1b6015d2a35ba3294269486d8d488ac6d2d19000000000017a91484f3e835d49f24b721949fb62b5f306c53db20ab8700000000", "vin": [{"sequence": 4294967295, "scriptSig": {"hex": "473044022056108a36a3cb9582a02b96f7c0422ffee473440ebc9323108348f69b6f62593b0220153f8de1e06727d8e494e90918b442861534161d5cc6a32c711a460b9de9c3e70121027c5715d921b5ccb9a708f45e2e2da6efc9229522a95d539682e652235b56ea4c", "asm": "3044022056108a36a3cb9582a02b96f7c0422ffee473440ebc9323108348f69b6f62593b0220153f8de1e06727d8e494e90918b442861534161d5cc6a32c711a460b9de9c3e7[ALL] 027c5715d921b5ccb9a708f45e2e2da6efc9229522a95d539682e652235b56ea4c"}, "vout": 1, "txid": "a12b7c702d5863e92d758eba13a1a80b822e7250f64a068b36c09a7ae3173543"}], "txid": "03eafe3d22ab8effd138f6c676dd336e38a6a39c5f846c2963deb03c835464d4", "blocktime": 1537873282, "version": 2, "confirmations": 11481, "time": 1537873282, "locktime": 0, "vsize": 223, "size": 223}