{"hash": "03f6ef278fa5afde0792eff52fcce2af84d5e090c300f36a0cc823422bedd19c", "blockhash": "0000000000000000001cda96e906b7601b7a6fb1a3b62bca570a9e5d8f4b3de1", "vout": [{"scriptPubKey": {"reqSigs": 1, "hex": "76a91427c2717d9e066fa2ccdfae5b5b0557183eb477bd88ac", "addresses": ["14dEHe92rD2UEsGnNaUBXY9mz7bh6tnqvX"], "asm": "OP_DUP OP_HASH160 27c2717d9e066fa2ccdfae5b5b0557183eb477bd OP_EQUALVERIFY OP_CHECKSIG", "type": "pubkeyhash"}, "value": 0.00098878, "n": 0}, {"scriptPubKey": {"reqSigs": 1, "hex": "76a914c16dd925221df8fb6805d4a1a5db010fa263100b88ac", "addresses": ["1Jdm1Qsd6QzhWAAxNi7FxgBjWm5UPG4V4P"], "asm": "OP_DUP OP_HASH160 c16dd925221df8fb6805d4a1a5db010fa263100b OP_EQUALVERIFY OP_CHECKSIG", "type": "pubkeyhash"}, "value": 2.5, "n": 1}], "hex": "01000000027850535060fe648b76fcadeb6913b49343905644e05304ad06f0f7d99752465d000000006a473044022038a6362905e67f2512ed5b83e512021c3f07aa5ac2b631b95d8d4e911eb55fbe022049d7e1171996d6179bfeec10d6b9c2517713aab30a4cb974f7aa42ab3a19424701210282f330f711db5da33696acaa8ddc0b2d7409f221ed15017d689ceba3f8056561ffffffffa92dc8b343c7862d6bb2296a751c6be0c6ec535fe8762f957e88decfbedd38cd010000006a473044022005fe3d5173c3197ff2473142f9f19eb46bab19c3c5a4a3795bc7779aa550583402200fce9774ebf4b513e9954ed8d505481b16881ce7708b96326000cc4ecba2cd8301210282f330f711db5da33696acaa8ddc0b2d7409f221ed15017d689ceba3f8056561ffffffff023e820100000000001976a91427c2717d9e066fa2ccdfae5b5b0557183eb477bd88ac80b2e60e000000001976a914c16dd925221df8fb6805d4a1a5db010fa263100b88ac00000000", "vin": [{"sequence": 4294967295, "scriptSig": {"hex": "473044022038a6362905e67f2512ed5b83e512021c3f07aa5ac2b631b95d8d4e911eb55fbe022049d7e1171996d6179bfeec10d6b9c2517713aab30a4cb974f7aa42ab3a19424701210282f330f711db5da33696acaa8ddc0b2d7409f221ed15017d689ceba3f8056561", "asm": "3044022038a6362905e67f2512ed5b83e512021c3f07aa5ac2b631b95d8d4e911eb55fbe022049d7e1171996d6179bfeec10d6b9c2517713aab30a4cb974f7aa42ab3a194247[ALL] 0282f330f711db5da33696acaa8ddc0b2d7409f221ed15017d689ceba3f8056561"}, "vout": 0, "txid": "5d465297d9f7f006ad0453e04456904393b41369ebadfc768b64fe6050535078"}, {"sequence": 4294967295, "scriptSig": {"hex": "473044022005fe3d5173c3197ff2473142f9f19eb46bab19c3c5a4a3795bc7779aa550583402200fce9774ebf4b513e9954ed8d505481b16881ce7708b96326000cc4ecba2cd8301210282f330f711db5da33696acaa8ddc0b2d7409f221ed15017d689ceba3f8056561", "asm": "3044022005fe3d5173c3197ff2473142f9f19eb46bab19c3c5a4a3795bc7779aa550583402200fce9774ebf4b513e9954ed8d505481b16881ce7708b96326000cc4ecba2cd83[ALL] 0282f330f711db5da33696acaa8ddc0b2d7409f221ed15017d689ceba3f8056561"}, "vout": 1, "txid": "cd38ddbecfde887e952f76e85f53ecc6e06b1c756a29b26b2d86c743b3c82da9"}], "txid": "03f6ef278fa5afde0792eff52fcce2af84d5e090c300f36a0cc823422bedd19c", "blocktime": 1537873282, "version": 1, "confirmations": 11484, "time": 1537873282, "locktime": 0, "vsize": 372, "size": 372}