{"hash": "03f807416b4f96f354de492a1bf24937dfa3b2cd1f0c1b42ee00adc418563b80", "blockhash": "0000000000000000000e13cef7c366c0283d82e591d1acd082e914b08063cdf1", "vout": [{"scriptPubKey": {"reqSigs": 1, "hex": "76a914843427c0ef46385ae14eb93a6cbbecf46c3ce90088ac", "addresses": ["1D42g8oaHaiegyNCyWZH7VdKHrY53dmZ1v"], "asm": "OP_DUP OP_HASH160 843427c0ef46385ae14eb93a6cbbecf46c3ce900 OP_EQUALVERIFY OP_CHECKSIG", "type": "pubkeyhash"}, "value": 0.002, "n": 0}, {"scriptPubKey": {"reqSigs": 1, "hex": "76a91486fd6dd43fc61edabbb6e175fa9c17b35015c36188ac", "addresses": ["1DJm9GDJi5vDnMjxfMDNyZLNBnCFVJcdtt"], "asm": "OP_DUP OP_HASH160 86fd6dd43fc61edabbb6e175fa9c17b35015c361 OP_EQUALVERIFY OP_CHECKSIG", "type": "pubkeyhash"}, "value": 0.00219839, "n": 1}], "hex": "01000000010f71b40a521b74aa8f2b4775e2abd6e029861ef15ee48a784e9b8f51df81226f010000006b483045022100feab8a1eaa5fa74d90793e5e76ed14e61b8b513b0c97ccca0a92787970ce54ac02202ba9ef0257af910ab1f50180425dd1f297ee4682eef3d0dde584c2764c953fbd012103dadd74b4bc88d2705e0e031a751f15f074532252e13fae7043ab40531d70f9acffffffff02400d0300000000001976a914843427c0ef46385ae14eb93a6cbbecf46c3ce90088acbf5a0300000000001976a91486fd6dd43fc61edabbb6e175fa9c17b35015c36188ac00000000", "vin": [{"sequence": 4294967295, "scriptSig": {"hex": "483045022100feab8a1eaa5fa74d90793e5e76ed14e61b8b513b0c97ccca0a92787970ce54ac02202ba9ef0257af910ab1f50180425dd1f297ee4682eef3d0dde584c2764c953fbd012103dadd74b4bc88d2705e0e031a751f15f074532252e13fae7043ab40531d70f9ac", "asm": "3045022100feab8a1eaa5fa74d90793e5e76ed14e61b8b513b0c97ccca0a92787970ce54ac02202ba9ef0257af910ab1f50180425dd1f297ee4682eef3d0dde584c2764c953fbd[ALL] 03dadd74b4bc88d2705e0e031a751f15f074532252e13fae7043ab40531d70f9ac"}, "vout": 1, "txid": "6f2281df518f9b4e788ae45ef11e8629e0d6abe275472b8faa741b520ab4710f"}], "txid": "03f807416b4f96f354de492a1bf24937dfa3b2cd1f0c1b42ee00adc418563b80", "blocktime": 1537871767, "version": 1, "confirmations": 11495, "time": 1537871767, "locktime": 0, "vsize": 226, "size": 226}