{"hash": "03fbdcaee7312e99677967abf172a728ee85365af089373131726493208a297b", "blockhash": "0000000000000000001f0ddff1eddb255c1121bcd4da4f1bc9a0da00cae72433", "vout": [{"scriptPubKey": {"reqSigs": 1, "hex": "76a914234e7fe488c5589981579c29fa437ba41a1f81c288ac", "addresses": ["14DggxiLqabS3nbmHiQKKTkpSuW7G4hvfq"], "asm": "OP_DUP OP_HASH160 234e7fe488c5589981579c29fa437ba41a1f81c2 OP_EQUALVERIFY OP_CHECKSIG", "type": "pubkeyhash"}, "value": 6.723e-05, "n": 0}, {"scriptPubKey": {"reqSigs": 1, "hex": "76a914f11dfea7cbd0d825a1d3c8a5da648ae30f24bfdd88ac", "addresses": ["1NyunJZSyzm2FjPs4xeF9LMR8tPGbm38w3"], "asm": "OP_DUP OP_HASH160 f11dfea7cbd0d825a1d3c8a5da648ae30f24bfdd OP_EQUALVERIFY OP_CHECKSIG", "type": "pubkeyhash"}, "value": 0.00056068, "n": 1}], "hex": "0100000001b0015a515403bea37b7a9314f63c653d6564d025891f96bc7f13b9401964765e000000006b483045022100efcddf28714075ee9c0e3a1d763f5a5c104a4395c8bb575b498a9d6bec9105fc02203aa6961075345d335d2d236d0aa87b7508cec0c301621545b466942040623c4201210310585ac46c89d5164044c5d53cb9182f53add397d5d21811f31dcd62ce2a0781ffffffff02431a0000000000001976a914234e7fe488c5589981579c29fa437ba41a1f81c288ac04db0000000000001976a914f11dfea7cbd0d825a1d3c8a5da648ae30f24bfdd88ac00000000", "vin": [{"sequence": 4294967295, "scriptSig": {"hex": "483045022100efcddf28714075ee9c0e3a1d763f5a5c104a4395c8bb575b498a9d6bec9105fc02203aa6961075345d335d2d236d0aa87b7508cec0c301621545b466942040623c4201210310585ac46c89d5164044c5d53cb9182f53add397d5d21811f31dcd62ce2a0781", "asm": "3045022100efcddf28714075ee9c0e3a1d763f5a5c104a4395c8bb575b498a9d6bec9105fc02203aa6961075345d335d2d236d0aa87b7508cec0c301621545b466942040623c42[ALL] 0310585ac46c89d5164044c5d53cb9182f53add397d5d21811f31dcd62ce2a0781"}, "vout": 0, "txid": "5e76641940b9137fbc961f8925d064653d653cf614937a7ba3be0354515a01b0"}], "txid": "03fbdcaee7312e99677967abf172a728ee85365af089373131726493208a297b", "blocktime": 1537872018, "version": 1, "confirmations": 11489, "time": 1537872018, "locktime": 0, "vsize": 226, "size": 226}