{"hash": "fdce7f3e2f5d062c3474ac79edf7b2baf1cfbdd4a8c62beda52bc3ea76b151ab", "blockhash": "0000000000000000001cda96e906b7601b7a6fb1a3b62bca570a9e5d8f4b3de1", "vout": [{"scriptPubKey": {"reqSigs": 1, "hex": "76a91462f9a19bb360a0c3c690c954a73ac93b0defb7bb88ac", "addresses": ["1A2LGV8JrkBhHwfUaMMLy55eF2uQ2wYnWE"], "asm": "OP_DUP OP_HASH160 62f9a19bb360a0c3c690c954a73ac93b0defb7bb OP_EQUALVERIFY OP_CHECKSIG", "type": "pubkeyhash"}, "value": 0.010543, "n": 0}, {"scriptPubKey": {"reqSigs": 1, "hex": "0014274342fac842146ea299dde7465d7a7f2572664e", "addresses": ["bc1qyap597kggg2xag5emhn5vht60ujhyejw428nk6"], "asm": "0 274342fac842146ea299dde7465d7a7f2572664e", "type": "witness_v0_keyhash"}, "value": 0.00344441, "n": 1}], "hex": "0100000000010140958c9723b9a5c783f8c05a6337490627ea934ee9225ebe664fc4e6e2fb31f70100000000ffffffff025c161000000000001976a91462f9a19bb360a0c3c690c954a73ac93b0defb7bb88ac7941050000000000160014274342fac842146ea299dde7465d7a7f2572664e02483045022100fde27fb5694b16ccd5fccf7335ea40403d2a8be37c6d48bfc5d9daca1af1211d0220083aa60b4c21ef809ef1289610d618f49d20296f2cfc6a2ca23c0e2bca77961901210361bec84dbddf4bb6e4bb384bb5312f506363f0ddb8200ee4b02c96d2c064ec0600000000", "vin": [{"txinwitness": ["3045022100fde27fb5694b16ccd5fccf7335ea40403d2a8be37c6d48bfc5d9daca1af1211d0220083aa60b4c21ef809ef1289610d618f49d20296f2cfc6a2ca23c0e2bca77961901", "0361bec84dbddf4bb6e4bb384bb5312f506363f0ddb8200ee4b02c96d2c064ec06"], "sequence": 4294967295, "scriptSig": {"hex": "", "asm": ""}, "vout": 1, "txid": "f731fbe2e6c44f66be5e22e94e93ea27064937635ac0f883c7a5b923978c9540"}], "txid": "03fec033261c0cb6b3da78ed3f93d5f837584f4f554cf3f3fe5c1505c49fc14c", "blocktime": 1537873282, "version": 1, "confirmations": 11484, "time": 1537873282, "locktime": 0, "vsize": 144, "size": 226}