{"hash": "aa673dfb2611dfd7e2d8d604f643935446e663b49799b645a7fef11fa6250aea", "blockhash": "0000000000000000000e13cef7c366c0283d82e591d1acd082e914b08063cdf1", "vout": [{"scriptPubKey": {"reqSigs": 1, "hex": "a9144b6e221f69018dbcd5da67e9c4db7ba8bdfbb47d87", "addresses": ["38ZrY8H8MH3ZQ1xVYm2BR3m5VKkEnyPqWF"], "asm": "OP_HASH160 4b6e221f69018dbcd5da67e9c4db7ba8bdfbb47d OP_EQUAL", "type": "scripthash"}, "value": 0.01020097, "n": 0}, {"scriptPubKey": {"reqSigs": 1, "hex": "a9146fd6455c60e1be9065b1f68eefa0d4a843bf737f87", "addresses": ["3BtMceEyDD8fg9E2SUT1hZFr1z9H9pWuy1"], "asm": "OP_HASH160 6fd6455c60e1be9065b1f68eefa0d4a843bf737f OP_EQUAL", "type": "scripthash"}, "value": 0.00725, "n": 1}], "hex": "02000000000102a5cdb15073fbe27795b65dcf8e421a54b4e93ab47567095e531f059037e5b6e201000000171600146a15e1a7cfaebb4e7684d4692944d70463b28b84fdffffffd12fc2f1f4961a4ac11321de0139cc822d30317b0756db38a332d96cf3a4ea260100000017160014ca2bbf337a7108c76b16a4b0698eab668964c80cfdffffff02c1900f000000000017a9144b6e221f69018dbcd5da67e9c4db7ba8bdfbb47d8708100b000000000017a9146fd6455c60e1be9065b1f68eefa0d4a843bf737f870247304402200caaa6e42782fd3f8f2bdd8b0f927bd8c788ef4930d90a5bd27ad3a7196aa54502201a4edd258b9c93a33fedff2e15ef70aee9fd87089d910f129cb8c43c51e27ad60121039e49e2471078af1aa178c81b7dfde8a1eafe212fc74671ab247213826e0cc92402473044022036198723b5940cc475ec80b3f5a84a099d655201d5c0420ed7115244ca6e7e7502204f90891a00e514a87332dba5c6530d5cb30d4610a89bd1e1b99ccafdcf82a678012103f39bcd8802b01f5a8d41308295947df033c0f4652667c070a360dad50402753100000000", "vin": [{"txinwitness": ["304402200caaa6e42782fd3f8f2bdd8b0f927bd8c788ef4930d90a5bd27ad3a7196aa54502201a4edd258b9c93a33fedff2e15ef70aee9fd87089d910f129cb8c43c51e27ad601", "039e49e2471078af1aa178c81b7dfde8a1eafe212fc74671ab247213826e0cc924"], "sequence": 4294967293, "scriptSig": {"hex": "1600146a15e1a7cfaebb4e7684d4692944d70463b28b84", "asm": "00146a15e1a7cfaebb4e7684d4692944d70463b28b84"}, "vout": 1, "txid": "e2b6e53790051f535e096775b43ae9b4541a428ecf5db69577e2fb7350b1cda5"}, {"txinwitness": ["3044022036198723b5940cc475ec80b3f5a84a099d655201d5c0420ed7115244ca6e7e7502204f90891a00e514a87332dba5c6530d5cb30d4610a89bd1e1b99ccafdcf82a67801", "03f39bcd8802b01f5a8d41308295947df033c0f4652667c070a360dad504027531"], "sequence": 4294967293, "scriptSig": {"hex": "160014ca2bbf337a7108c76b16a4b0698eab668964c80c", "asm": "0014ca2bbf337a7108c76b16a4b0698eab668964c80c"}, "vout": 1, "txid": "26eaa4f36cd932a338db56077b31302d82cc3901de2113c14a1a96f4f1c22fd1"}], "txid": "0407fb32cd443aa87c2ac9bdb547c7591e66c60814f67bb06b2321d1d9baf098", "blocktime": 1537871767, "version": 2, "confirmations": 11495, "time": 1537871767, "locktime": 0, "vsize": 256, "size": 418}