{"hash": "a82a153e44b60761eddfc369843617fbf13c8cbcfc0788d22b419f2526b99564", "blockhash": "0000000000000000000e13cef7c366c0283d82e591d1acd082e914b08063cdf1", "vout": [{"scriptPubKey": {"reqSigs": 1, "hex": "a9142ce8225d70c905fb3d6350466a83de9a090b5a6e87", "addresses": ["35nTjxHGZ1dbGVqUaZPX7oHpQAMMtee2yV"], "asm": "OP_HASH160 2ce8225d70c905fb3d6350466a83de9a090b5a6e OP_EQUAL", "type": "scripthash"}, "value": 0.0099924, "n": 0}, {"scriptPubKey": {"reqSigs": 1, "hex": "76a9145d0af442a21f4c19f5aa3eb29273694ca368ddf788ac", "addresses": ["19UxxwwrVUmBcmLPwgHRinejh7fXu3kekw"], "asm": "OP_DUP OP_HASH160 5d0af442a21f4c19f5aa3eb29273694ca368ddf7 OP_EQUALVERIFY OP_CHECKSIG", "type": "pubkeyhash"}, "value": 0.00467503, "n": 1}], "hex": "02000000000102b479b076d807a4f83ada172f255f0de6f3b91eeb09cef5b92e85782f680dcea30100000017160014e96312a92dd6ec260208d9734bb5d9f1f8277acbfeffffffce98081045a7872bc1b79658afe06f268abb901d308a68752c9bd18fd5f9ea9900000000171600149f5ce2dc5b111d2e943632effc02aace2841974dfeffffff02483f0f000000000017a9142ce8225d70c905fb3d6350466a83de9a090b5a6e872f220700000000001976a9145d0af442a21f4c19f5aa3eb29273694ca368ddf788ac02483045022100b2ff3056187c682020253b1ca84cd495af09a0127c68a48bada2c702b7ffc66b022061c36aa73c21d207466840ba920b204e72836f182ff0b5b1916c0854eec42d17012103df3585770936971d6884e1dc842b7e23c3328a0e989afb797237928bd0c80c9502483045022100c7d286495d67911e15b9f2983d3330c058a765ca70ed4b83f1eeff45735c9ecb022037e6253f70c59ecb6cb63b23afbf8024cc84418f5957eb338e2e4387df814fbc012102e6e2a81ebfadb43bc73a67872f1b131115fa33c1e6854b6afd3621256035a67a10490800", "vin": [{"txinwitness": ["3045022100b2ff3056187c682020253b1ca84cd495af09a0127c68a48bada2c702b7ffc66b022061c36aa73c21d207466840ba920b204e72836f182ff0b5b1916c0854eec42d1701", "03df3585770936971d6884e1dc842b7e23c3328a0e989afb797237928bd0c80c95"], "sequence": 4294967294, "scriptSig": {"hex": "160014e96312a92dd6ec260208d9734bb5d9f1f8277acb", "asm": "0014e96312a92dd6ec260208d9734bb5d9f1f8277acb"}, "vout": 1, "txid": "a3ce0d682f78852eb9f5ce09eb1eb9f3e60d5f252f17da3af8a407d876b079b4"}, {"txinwitness": ["3045022100c7d286495d67911e15b9f2983d3330c058a765ca70ed4b83f1eeff45735c9ecb022037e6253f70c59ecb6cb63b23afbf8024cc84418f5957eb338e2e4387df814fbc01", "02e6e2a81ebfadb43bc73a67872f1b131115fa33c1e6854b6afd3621256035a67a"], "sequence": 4294967294, "scriptSig": {"hex": "1600149f5ce2dc5b111d2e943632effc02aace2841974d", "asm": "00149f5ce2dc5b111d2e943632effc02aace2841974d"}, "vout": 0, "txid": "99eaf9d58fd19b2c75688a301d90bb8a266fe0af5896b7c12b87a745100898ce"}], "txid": "040c98cfb1ef9659b0265531d5850b30ae9e59740c71d7bb8c417d0aaa6c1e11", "blocktime": 1537871767, "version": 2, "confirmations": 11495, "time": 1537871767, "locktime": 542992, "vsize": 259, "size": 422}