{"hash": "d3f39ada992e1abae44f0e9250b0899a4b21507ef755bffe6d1dc2856b9366d8", "blockhash": "0000000000000000000baef3f32e3676a92c3b2e5da21b426e4f302fc371ce76", "vout": [{"scriptPubKey": {"reqSigs": 1, "hex": "76a914f71573cc4af25400247dc3750528e1bf321e1aec88ac", "addresses": ["1PXTbvAGzbPr8nqt8UEfqEpxHpQwd4bekT"], "asm": "OP_DUP OP_HASH160 f71573cc4af25400247dc3750528e1bf321e1aec OP_EQUALVERIFY OP_CHECKSIG", "type": "pubkeyhash"}, "value": 0.105, "n": 0}, {"scriptPubKey": {"reqSigs": 1, "hex": "a9140248832b6a178ff876efaad920577c7a1807870087", "addresses": ["31u69BAGppmTiAjkmsLuUmmSdPULTkrq3Z"], "asm": "OP_HASH160 0248832b6a178ff876efaad920577c7a18078700 OP_EQUAL", "type": "scripthash"}, "value": 0.00102729, "n": 1}], "hex": "01000000000102323ff3d9ebe62a45150a537d89dc06ba656d589aecae961d18787448f6c680d30000000023220020cd0b5b114ff077638241e9e46ae63e7a788d4495e9cde6a1932e07fe1f994509ffffffff34660c2fade91502f73995cc6448a107917a0281e8bcfd3e72d8f40cd7a67c280000000023220020cd0b5b114ff077638241e9e46ae63e7a788d4495e9cde6a1932e07fe1f994509ffffffff02a037a000000000001976a914f71573cc4af25400247dc3750528e1bf321e1aec88ac499101000000000017a9140248832b6a178ff876efaad920577c7a18078700870400473044022078253e92bd4043aac4236b29a034134e4f2a1fcc0b3d1dd351a4992ae79c79b2022007e40da6d468627ffe0434c3b0833a8d224e6f6617ffc298b24b94738092c4b101483045022100e61f80a19913f1c14b3152cdab8542eb19d49e93a2af144f92bb64a00dab0e95022068db9190fe1364e5bedeb582215513ef44e30ec371ba8ab7e9ce9bc2389a628f014752210276e8010efdcae6cb82a42088a81cfcf8f783e96a59e137e5f7c985f57ec8718b21031a3abbdc2f9846f4750147cf71fc103b17dbfbeb0a346401f49eba2956a938eb52ae040047304402200d2ab64abe8d719662c2f13fc519b278532e96f553274cb8395ecb15b5cbe98e0220551f6e083c44b1e388243962f2f69008e1bc7d5ea88ccb5c51fdb381f9a49b6b0147304402202e7b368bd914bff3317e383f3c52b8d537815e5a3e94b1479b0dbf58fc4e3ee8022062474ec81bc5670487e13ff13536413490ca300b9230f06e5f37003915fa832f014752210276e8010efdcae6cb82a42088a81cfcf8f783e96a59e137e5f7c985f57ec8718b21031a3abbdc2f9846f4750147cf71fc103b17dbfbeb0a346401f49eba2956a938eb52ae00000000", "vin": [{"txinwitness": ["", "3044022078253e92bd4043aac4236b29a034134e4f2a1fcc0b3d1dd351a4992ae79c79b2022007e40da6d468627ffe0434c3b0833a8d224e6f6617ffc298b24b94738092c4b101", "3045022100e61f80a19913f1c14b3152cdab8542eb19d49e93a2af144f92bb64a00dab0e95022068db9190fe1364e5bedeb582215513ef44e30ec371ba8ab7e9ce9bc2389a628f01", "52210276e8010efdcae6cb82a42088a81cfcf8f783e96a59e137e5f7c985f57ec8718b21031a3abbdc2f9846f4750147cf71fc103b17dbfbeb0a346401f49eba2956a938eb52ae"], "sequence": 4294967295, "scriptSig": {"hex": "220020cd0b5b114ff077638241e9e46ae63e7a788d4495e9cde6a1932e07fe1f994509", "asm": "0020cd0b5b114ff077638241e9e46ae63e7a788d4495e9cde6a1932e07fe1f994509"}, "vout": 0, "txid": "d380c6f6487478181d96aeec9a586d65ba06dc897d530a15452ae6ebd9f33f32"}, {"txinwitness": ["", "304402200d2ab64abe8d719662c2f13fc519b278532e96f553274cb8395ecb15b5cbe98e0220551f6e083c44b1e388243962f2f69008e1bc7d5ea88ccb5c51fdb381f9a49b6b01", "304402202e7b368bd914bff3317e383f3c52b8d537815e5a3e94b1479b0dbf58fc4e3ee8022062474ec81bc5670487e13ff13536413490ca300b9230f06e5f37003915fa832f01", "52210276e8010efdcae6cb82a42088a81cfcf8f783e96a59e137e5f7c985f57ec8718b21031a3abbdc2f9846f4750147cf71fc103b17dbfbeb0a346401f49eba2956a938eb52ae"], "sequence": 4294967295, "scriptSig": {"hex": "220020cd0b5b114ff077638241e9e46ae63e7a788d4495e9cde6a1932e07fe1f994509", "asm": "0020cd0b5b114ff077638241e9e46ae63e7a788d4495e9cde6a1932e07fe1f994509"}, "vout": 0, "txid": "287ca6d70cf4d8723efdbce881027a9107a14864cc9539f70215e9ad2f0c6634"}], "txid": "040def9bd7533570843cf0ea15dfe8b039fb318fd06095e27838074e8e553217", "blocktime": 1537876114, "version": 1, "confirmations": 11462, "time": 1537876114, "locktime": 0, "vsize": 338, "size": 667}