{"hash": "afe99845a62e4ab8b73de8130b10c167d522242178fe35477b278930126f1520", "blockhash": "0000000000000000000e13cef7c366c0283d82e591d1acd082e914b08063cdf1", "vout": [{"scriptPubKey": {"reqSigs": 1, "hex": "a9148085e078cebfb172b222608043cb21db75148c9987", "addresses": ["3DQao2MfCXyG83CtJYPyRzq9e2rAiVMWQm"], "asm": "OP_HASH160 8085e078cebfb172b222608043cb21db75148c99 OP_EQUAL", "type": "scripthash"}, "value": 0.0024686, "n": 0}, {"scriptPubKey": {"reqSigs": 1, "hex": "a91413d28e81bd907d5ea81c9ffe55b02066826d5a1a87", "addresses": ["33VpzvSgYja6uyYPE24pxqicnpGdpbL4Sz"], "asm": "OP_HASH160 13d28e81bd907d5ea81c9ffe55b02066826d5a1a OP_EQUAL", "type": "scripthash"}, "value": 0.01019312, "n": 1}], "hex": "020000000001029f4879f287804fd9c96a4d6ae033d1a0a39af65414f8399ca41a155136e6c77504000000171600147c1ee2e39fa5b3ae30b0571d2edf3c6eed5a3bbffeffffffdb07d63ec858619b8c71f21429ae0e7158934e0b971afb9819a4c2439bad4e020000000017160014a86ad8312205e50fbcd4d94ec50d3693925b3055feffffff024cc403000000000017a9148085e078cebfb172b222608043cb21db75148c9987b08d0f000000000017a91413d28e81bd907d5ea81c9ffe55b02066826d5a1a8702483045022100ab0f1dcbe279aa0f2c3042d4bce5ab93036f4c85d8522d986c1dbb5a37db60c0022022187cd49dda8fe404b7c153d2fee62c392148720f1f1094528aabf214172a990121020f43fca216fe3a8a3b2614c12fb36a53b4362b193f5c120b41ad792e1f8f3b8b0247304402201d80f237d7cd55b56e917e4d9cd8e5fe673de57b62a9566e9ce8de199166a1590220108805c847e105bf07b0268de6c08cd4ec9ea82b1be24f74659acb2df4c5108d01210332bd9b4e68e66b8a6f457c1a8f99524b33bd7658c0c66316e5784e32257a6714f1480800", "vin": [{"txinwitness": ["3045022100ab0f1dcbe279aa0f2c3042d4bce5ab93036f4c85d8522d986c1dbb5a37db60c0022022187cd49dda8fe404b7c153d2fee62c392148720f1f1094528aabf214172a9901", "020f43fca216fe3a8a3b2614c12fb36a53b4362b193f5c120b41ad792e1f8f3b8b"], "sequence": 4294967294, "scriptSig": {"hex": "1600147c1ee2e39fa5b3ae30b0571d2edf3c6eed5a3bbf", "asm": "00147c1ee2e39fa5b3ae30b0571d2edf3c6eed5a3bbf"}, "vout": 4, "txid": "75c7e63651151aa49c39f81454f69aa3a0d133e06a4d6ac9d94f8087f279489f"}, {"txinwitness": ["304402201d80f237d7cd55b56e917e4d9cd8e5fe673de57b62a9566e9ce8de199166a1590220108805c847e105bf07b0268de6c08cd4ec9ea82b1be24f74659acb2df4c5108d01", "0332bd9b4e68e66b8a6f457c1a8f99524b33bd7658c0c66316e5784e32257a6714"], "sequence": 4294967294, "scriptSig": {"hex": "160014a86ad8312205e50fbcd4d94ec50d3693925b3055", "asm": "0014a86ad8312205e50fbcd4d94ec50d3693925b3055"}, "vout": 0, "txid": "024ead9b43c2a41998fb1a970b4e9358710eae2914f2718c9b6158c83ed607db"}], "txid": "0410a2c2935098c983fb2779e00f5359f9f466139ef39883d555ff035af1aab3", "blocktime": 1537871767, "version": 2, "confirmations": 11495, "time": 1537871767, "locktime": 542961, "vsize": 257, "size": 419}