{"hash": "041238c5c82d49706eccc7c8c52b803a8e49b9772dbeadc94e81d31d10f33cbc", "blockhash": "0000000000000000001f76057863aec43deb6fa401d9628bb513d65a8098bfab", "vout": [{"scriptPubKey": {"reqSigs": 1, "hex": "76a9142fd1851269d17651a8f685d0515da20e7845507d88ac", "addresses": ["15Mqki42UrEYy5P3vbn6apvsv78NfzaU9R"], "asm": "OP_DUP OP_HASH160 2fd1851269d17651a8f685d0515da20e7845507d OP_EQUALVERIFY OP_CHECKSIG", "type": "pubkeyhash"}, "value": 0.1, "n": 0}, {"scriptPubKey": {"reqSigs": 1, "hex": "76a9140c21f959c0f55f28f81a0060c7cb243d667bb30888ac", "addresses": ["1279oroXqHdREL45T8KLBtKtW1yD4osnj1"], "asm": "OP_DUP OP_HASH160 0c21f959c0f55f28f81a0060c7cb243d667bb308 OP_EQUALVERIFY OP_CHECKSIG", "type": "pubkeyhash"}, "value": 0.08948644, "n": 1}], "hex": "0100000001944dae3f33ac756c2605c5dc46d61edbc7c8ccc8de58b207096799646bab8d34010000006a47304402207e9e72ca731392448abec278db7ef97dd14e6b18e722920640ea6240ec61d8d902207645474708e1670cee64d7a2e49adf8cef689300de799a9ed7dfb0276371b183012103bcebaf01a3d8678c74f70a7ea9d8cbd3158a2c4a9349a80c4890424c0924e223ffffffff0280969800000000001976a9142fd1851269d17651a8f685d0515da20e7845507d88aca48b8800000000001976a9140c21f959c0f55f28f81a0060c7cb243d667bb30888ac00000000", "vin": [{"sequence": 4294967295, "scriptSig": {"hex": "47304402207e9e72ca731392448abec278db7ef97dd14e6b18e722920640ea6240ec61d8d902207645474708e1670cee64d7a2e49adf8cef689300de799a9ed7dfb0276371b183012103bcebaf01a3d8678c74f70a7ea9d8cbd3158a2c4a9349a80c4890424c0924e223", "asm": "304402207e9e72ca731392448abec278db7ef97dd14e6b18e722920640ea6240ec61d8d902207645474708e1670cee64d7a2e49adf8cef689300de799a9ed7dfb0276371b183[ALL] 03bcebaf01a3d8678c74f70a7ea9d8cbd3158a2c4a9349a80c4890424c0924e223"}, "vout": 1, "txid": "348dab6b6499670907b258dec8ccc8c7db1ed646dcc505266c75ac333fae4d94"}], "txid": "041238c5c82d49706eccc7c8c52b803a8e49b9772dbeadc94e81d31d10f33cbc", "blocktime": 1537873891, "version": 1, "confirmations": 11476, "time": 1537873891, "locktime": 0, "vsize": 225, "size": 225}