{"hash": "04128e7487c7cdc1494eecbdb868fb6aaf0c2f4e4e43d4a94520a4b74ebedcdb", "blockhash": "0000000000000000001cda96e906b7601b7a6fb1a3b62bca570a9e5d8f4b3de1", "vout": [{"scriptPubKey": {"reqSigs": 1, "hex": "a914b2e8f54677064c9eda0c837eed0ecab93ff23e0487", "addresses": ["3J11GuJVe93BbUXrL8dBwduCGajZsJDaYG"], "asm": "OP_HASH160 b2e8f54677064c9eda0c837eed0ecab93ff23e04 OP_EQUAL", "type": "scripthash"}, "value": 0.015613, "n": 0}, {"scriptPubKey": {"reqSigs": 1, "hex": "76a914b2cb1591087b403dd083836f4947c11efc8f3fc788ac", "addresses": ["1HJNZgpKoyFRcq6DTRgfkkcM3Vh8A6TtHq"], "asm": "OP_DUP OP_HASH160 b2cb1591087b403dd083836f4947c11efc8f3fc7 OP_EQUALVERIFY OP_CHECKSIG", "type": "pubkeyhash"}, "value": 0.18114029, "n": 1}], "hex": "01000000019b0eb681ffd4c5c6014104ad01348a91b07a6f30c1178c20ec7ab9d11ee72c1a010000006a4730440220339023a92e8bd02176744c1cb68aa0d99bc4c13fd1d6d32d166f66ae12875e1d0220070a021feef67462984a9bd7b488abfe31c8315cf6e17eb69ae6b45a944495270121023c8fec6a7a419ac6b6edae2477b113d95b3fb08118a9694a6b8fd6f48b7406d0ffffffff02d4d217000000000017a914b2e8f54677064c9eda0c837eed0ecab93ff23e0487ed651401000000001976a914b2cb1591087b403dd083836f4947c11efc8f3fc788ac00000000", "vin": [{"sequence": 4294967295, "scriptSig": {"hex": "4730440220339023a92e8bd02176744c1cb68aa0d99bc4c13fd1d6d32d166f66ae12875e1d0220070a021feef67462984a9bd7b488abfe31c8315cf6e17eb69ae6b45a944495270121023c8fec6a7a419ac6b6edae2477b113d95b3fb08118a9694a6b8fd6f48b7406d0", "asm": "30440220339023a92e8bd02176744c1cb68aa0d99bc4c13fd1d6d32d166f66ae12875e1d0220070a021feef67462984a9bd7b488abfe31c8315cf6e17eb69ae6b45a94449527[ALL] 023c8fec6a7a419ac6b6edae2477b113d95b3fb08118a9694a6b8fd6f48b7406d0"}, "vout": 1, "txid": "1a2ce71ed1b97aec208c17c1306f7ab0918a3401ad044101c6c5d4ff81b60e9b"}], "txid": "04128e7487c7cdc1494eecbdb868fb6aaf0c2f4e4e43d4a94520a4b74ebedcdb", "blocktime": 1537873282, "version": 1, "confirmations": 11482, "time": 1537873282, "locktime": 0, "vsize": 223, "size": 223}