{"hash": "b651c7155e053bb01a5635f6e278f2d8a754990c06c68b173ee30f19c565268f", "blockhash": "0000000000000000000dcc0f55137456b1a82d3642486a52398922ac4d620174", "vout": [{"scriptPubKey": {"reqSigs": 1, "hex": "a914a91967891b4d509064a44040473c47004df8634a87", "addresses": ["3H78Z6RHEPPpEChy3jnGNFLc8xLHd8Jauz"], "asm": "OP_HASH160 a91967891b4d509064a44040473c47004df8634a OP_EQUAL", "type": "scripthash"}, "value": 0.0001, "n": 0}, {"scriptPubKey": {"reqSigs": 1, "hex": "a91496e2dbce80ddc23a14e1c20a89ef59c8e728e30b87", "addresses": ["3FSq3jPBrV8Bipe6NJ3nuSRBkwqtV4CTAf"], "asm": "OP_HASH160 96e2dbce80ddc23a14e1c20a89ef59c8e728e30b OP_EQUAL", "type": "scripthash"}, "value": 0.00258797, "n": 1}], "hex": "0100000000010240c2b48ee28eeddcb17040af793546fba548ca8f75cbde6ead5f739f2b545adc0000000017160014eb2f9b11153af94c6e2025c47f0e916f695f7eaaffffffff1032699db7e13d3a89f0fe683ab702fbd2c1ed067e49bb4b64f7394143145a4901000000171600149409d10d511e34bced8d25dbc48335bd63ea5011ffffffff02102700000000000017a914a91967891b4d509064a44040473c47004df8634a87edf203000000000017a91496e2dbce80ddc23a14e1c20a89ef59c8e728e30b8702483045022100972d5af0d29773a9e82dbf1462ff16c8a234acfd92eb70513801a83eeb550a6e02204a1d7ca9a4ae911b58ae4fafee5c7e50d53bd3859c083e9cc2fe717dc4a4b9c7012103b4335231d2958a3bd0dd0b46831111918c850bd0f4664c6f62bec2a625f6f65b02483045022100883a0645344b86fc7474da156078b1d4e2916975c9e51bed7a9be529d4949628022006a2c74c8ece2601292b6ffe7c3ac399aa6d26bd062e4cffa5e396a06b76ef2601210231383b944cb317e237331769b33b46058c7e417d183479a60618efea3e9d580900000000", "vin": [{"txinwitness": ["3045022100972d5af0d29773a9e82dbf1462ff16c8a234acfd92eb70513801a83eeb550a6e02204a1d7ca9a4ae911b58ae4fafee5c7e50d53bd3859c083e9cc2fe717dc4a4b9c701", "03b4335231d2958a3bd0dd0b46831111918c850bd0f4664c6f62bec2a625f6f65b"], "sequence": 4294967295, "scriptSig": {"hex": "160014eb2f9b11153af94c6e2025c47f0e916f695f7eaa", "asm": "0014eb2f9b11153af94c6e2025c47f0e916f695f7eaa"}, "vout": 0, "txid": "dc5a542b9f735fad6edecb758fca48a5fb463579af4070b1dced8ee28eb4c240"}, {"txinwitness": ["3045022100883a0645344b86fc7474da156078b1d4e2916975c9e51bed7a9be529d4949628022006a2c74c8ece2601292b6ffe7c3ac399aa6d26bd062e4cffa5e396a06b76ef2601", "0231383b944cb317e237331769b33b46058c7e417d183479a60618efea3e9d5809"], "sequence": 4294967295, "scriptSig": {"hex": "1600149409d10d511e34bced8d25dbc48335bd63ea5011", "asm": "00149409d10d511e34bced8d25dbc48335bd63ea5011"}, "vout": 1, "txid": "495a14434139f7644bbb497e06edc1d2fb02b73a68fef0893a3de1b79d693210"}], "txid": "041fbb81a13ca22a783b79ff44ec7b92adbf701d6d3bcc70ba3d129b59b0ee56", "blocktime": 1537870268, "version": 1, "confirmations": 11516, "time": 1537870268, "locktime": 0, "vsize": 257, "size": 420}