{"hash": "04233a2ba2a6d443f4c62a239fc0eecc17bf89928ef6329424645a5a0a5fbfc8", "blockhash": "0000000000000000000e13cef7c366c0283d82e591d1acd082e914b08063cdf1", "vout": [{"scriptPubKey": {"reqSigs": 1, "hex": "76a91417ba462c847a7939765aba4de1eb05ca330ffb7788ac", "addresses": ["13ATgxx2GKnMCezNVBWxVquWeuN8JcUvwe"], "asm": "OP_DUP OP_HASH160 17ba462c847a7939765aba4de1eb05ca330ffb77 OP_EQUALVERIFY OP_CHECKSIG", "type": "pubkeyhash"}, "value": 0.00055986, "n": 0}, {"scriptPubKey": {"reqSigs": 1, "hex": "a914ee00ae4114c26cbfbe786310b2faec88d81e737b87", "addresses": ["3PPTZVbm3JBWMpGQ6Y7g45PyQE6JJus3Yh"], "asm": "OP_HASH160 ee00ae4114c26cbfbe786310b2faec88d81e737b OP_EQUAL", "type": "scripthash"}, "value": 0.01563555, "n": 1}], "hex": "0100000002740e9270248589befedff0283be6cc14024ccb0916eb2c065746bc76ddb27a35000000006b483045022100b1122d9bbb21c850a813968b48321f5356e3709c0bf91ebba7475ea240f46ce10220526839bb9bfebf281bb6cb78239c2a58a154a74e6f8c7d3969979d7df2b8f17001210311c0c8fa59c32bc39cb73b5ba2d8d1932ff468843fdd3278eda0b393d37c8674ffffffff8ec78f978074757e49338605b2317f6cdb9007307f1b48265b9c3459a3ec82d7000000006b48304502210083b4f57b9e47bf5fb2cbdc84ff56b98239c049da1a7a1e8a4215c668de79c98202204e5fe6aeb405ff6cb07e6bc4e90157630de241860a21bde9e22cf0fedd796a0d01210391bf5145e517d0518734e87ab6f9198892d70c633cf124fa3918c7b86eb8649dffffffff02b2da0000000000001976a91417ba462c847a7939765aba4de1eb05ca330ffb7788aca3db17000000000017a914ee00ae4114c26cbfbe786310b2faec88d81e737b8700000000", "vin": [{"sequence": 4294967295, "scriptSig": {"hex": "483045022100b1122d9bbb21c850a813968b48321f5356e3709c0bf91ebba7475ea240f46ce10220526839bb9bfebf281bb6cb78239c2a58a154a74e6f8c7d3969979d7df2b8f17001210311c0c8fa59c32bc39cb73b5ba2d8d1932ff468843fdd3278eda0b393d37c8674", "asm": "3045022100b1122d9bbb21c850a813968b48321f5356e3709c0bf91ebba7475ea240f46ce10220526839bb9bfebf281bb6cb78239c2a58a154a74e6f8c7d3969979d7df2b8f170[ALL] 0311c0c8fa59c32bc39cb73b5ba2d8d1932ff468843fdd3278eda0b393d37c8674"}, "vout": 0, "txid": "357ab2dd76bc4657062ceb1609cb4c0214cce63b28f0dffebe89852470920e74"}, {"sequence": 4294967295, "scriptSig": {"hex": "48304502210083b4f57b9e47bf5fb2cbdc84ff56b98239c049da1a7a1e8a4215c668de79c98202204e5fe6aeb405ff6cb07e6bc4e90157630de241860a21bde9e22cf0fedd796a0d01210391bf5145e517d0518734e87ab6f9198892d70c633cf124fa3918c7b86eb8649d", "asm": "304502210083b4f57b9e47bf5fb2cbdc84ff56b98239c049da1a7a1e8a4215c668de79c98202204e5fe6aeb405ff6cb07e6bc4e90157630de241860a21bde9e22cf0fedd796a0d[ALL] 0391bf5145e517d0518734e87ab6f9198892d70c633cf124fa3918c7b86eb8649d"}, "vout": 0, "txid": "d782eca359349c5b26481b7f300790db6c7f31b2058633497e757480978fc78e"}], "txid": "04233a2ba2a6d443f4c62a239fc0eecc17bf89928ef6329424645a5a0a5fbfc8", "blocktime": 1537871767, "version": 1, "confirmations": 11495, "time": 1537871767, "locktime": 0, "vsize": 372, "size": 372}