{"hash": "04255ab02daf4586ca04993803fdd8e5986bbc430144771c74ba74ca95afcef8", "blockhash": "0000000000000000000baef3f32e3676a92c3b2e5da21b426e4f302fc371ce76", "vout": [{"scriptPubKey": {"reqSigs": 1, "hex": "76a91471738b700509e167def42b12a2dd8fccce2ff0b688ac", "addresses": ["1BLsmrz8dYdRvCvd2wx2Ee7L4M3QEbHtYh"], "asm": "OP_DUP OP_HASH160 71738b700509e167def42b12a2dd8fccce2ff0b6 OP_EQUALVERIFY OP_CHECKSIG", "type": "pubkeyhash"}, "value": 0.05024614, "n": 0}, {"scriptPubKey": {"reqSigs": 1, "hex": "a9146d74a2869234a8acbdedbbc8a61f924a2b14cc4d87", "addresses": ["3BfmJPLAQ61zX6HCAeqeCXqpkhGrykK6at"], "asm": "OP_HASH160 6d74a2869234a8acbdedbbc8a61f924a2b14cc4d OP_EQUAL", "type": "scripthash"}, "value": 0.0685993, "n": 1}], "hex": "01000000013b8cc46778ff2bd1e5c50efd0c9146f227501a023ea4d5d45a4c3b92653a94cc01000000fdfe0000483045022100c0d9d79d034bed8123bb64255231a2bd78d674828357db8f0697f20e2c80f7b50220776d0f3170caee6560380f435012922fa6f308508fd2017e488068114c271a750148304502210094ad5158c8dcdb83c1062f079fcf0e11cff83445bda8ff98c4e973e4ef6142660220654cfeb021dc7562cb6a3fd7f0c5d967466f6f4d3ad54a77747d0c3005c7f93e014c6952210277f0802ec47e4200470f2b1d1876dd08b6bbe9cb178f0887e18d6ff62deb39372102ab05158e8b565ea12e3468ad20408acdd240fc4b0026b06e069e78b4181dec322103420accc9abb7c4bb1456280b546b55fa7ee70614d2f0c268d9aafe46b9bcb65953aeffffffff0266ab4c00000000001976a91471738b700509e167def42b12a2dd8fccce2ff0b688ac9aac68000000000017a9146d74a2869234a8acbdedbbc8a61f924a2b14cc4d8700000000", "vin": [{"sequence": 4294967295, "scriptSig": {"hex": "00483045022100c0d9d79d034bed8123bb64255231a2bd78d674828357db8f0697f20e2c80f7b50220776d0f3170caee6560380f435012922fa6f308508fd2017e488068114c271a750148304502210094ad5158c8dcdb83c1062f079fcf0e11cff83445bda8ff98c4e973e4ef6142660220654cfeb021dc7562cb6a3fd7f0c5d967466f6f4d3ad54a77747d0c3005c7f93e014c6952210277f0802ec47e4200470f2b1d1876dd08b6bbe9cb178f0887e18d6ff62deb39372102ab05158e8b565ea12e3468ad20408acdd240fc4b0026b06e069e78b4181dec322103420accc9abb7c4bb1456280b546b55fa7ee70614d2f0c268d9aafe46b9bcb65953ae", "asm": "0 3045022100c0d9d79d034bed8123bb64255231a2bd78d674828357db8f0697f20e2c80f7b50220776d0f3170caee6560380f435012922fa6f308508fd2017e488068114c271a75[ALL] 304502210094ad5158c8dcdb83c1062f079fcf0e11cff83445bda8ff98c4e973e4ef6142660220654cfeb021dc7562cb6a3fd7f0c5d967466f6f4d3ad54a77747d0c3005c7f93e[ALL] 52210277f0802ec47e4200470f2b1d1876dd08b6bbe9cb178f0887e18d6ff62deb39372102ab05158e8b565ea12e3468ad20408acdd240fc4b0026b06e069e78b4181dec322103420accc9abb7c4bb1456280b546b55fa7ee70614d2f0c268d9aafe46b9bcb65953ae"}, "vout": 1, "txid": "cc943a65923b4c5ad4d5a43e021a5027f246910cfd0ec5e5d12bff7867c48c3b"}], "txid": "04255ab02daf4586ca04993803fdd8e5986bbc430144771c74ba74ca95afcef8", "blocktime": 1537876114, "version": 1, "confirmations": 11460, "time": 1537876114, "locktime": 0, "vsize": 373, "size": 373}