{"hash": "117da6a2c13eb3a148cebc19cb61d211fe9cc72ae4391356843d6dc3a3e36083", "blockhash": "00000000000000000024a2167bbff67b0be802c0b01cdd79e6331c2be6459f87", "vout": [{"scriptPubKey": {"reqSigs": 1, "hex": "a9140c6d018f83332b15bb9e7290ea74ffa9e064e72a87", "addresses": ["32piciqEujcGMdEx2KoPEkmdJnfQA5tPhM"], "asm": "OP_HASH160 0c6d018f83332b15bb9e7290ea74ffa9e064e72a OP_EQUAL", "type": "scripthash"}, "value": 0.74289122, "n": 0}, {"scriptPubKey": {"reqSigs": 1, "hex": "a91469f3761988bd4a64cde9ec88a507cc29795a5e1f87", "addresses": ["3BMEXg8gRf3xWhLwQQdLxsvh3CMLvfNn7L"], "asm": "OP_HASH160 69f3761988bd4a64cde9ec88a507cc29795a5e1f OP_EQUAL", "type": "scripthash"}, "value": 0.0200135, "n": 1}], "hex": "0100000000010858c5e5d9b472a560ea05745a122e250d79a73ee9f622997677da59cfbc9da8ea000000002322002058ab7cae9c94aa538347357973432084c6670be91962dd2872038807624138acffffffffd1f0f398037765f5f03e919eb72c0b3dec1fdf73be98369711b1a98aeee81d4008000000fdfd000048304502210093c6dffae3959785d268456008b59bdaf41c3fd898f8abc32ed9b94be5ffada702204a19b9bd2fe7a3cc95fa7137b52292b30dcf4cec494fd68d61ef9f7be0d64e790147304402207c634c9aecab2e8f7ae1b1b9c264895fe04194ad315cb7e022b89a82c55c4e47022020e2edbb950b51e8846e53b822f4de770b0c5bddd85193b2f6cc9401884db2ac014c695221034eca325385f0e1917091c8e1e8f6b752b30b486cecb79a925f134a2b1569d08c2102152cac35c28a588022c6bd145d0c115921e17e72f9ca39b774e093ccadbd4a3821029cedcc5d3e4ed554f44d9090f90ee540e3a1012077345cd04376d0fc9e7502f453aeffffffff5fae6029aa6555fc1eac5e0aa4759fd2e6db567081f99c4058d9fbfd5ad190c84a000000fdfd000047304402201c49121086103655c382b196df84895c42eb79f5fc1541b35e1e51a2a484350202205db56ffa71c46412986e199d9a5b669c0713e98187b9de9d2869a6bf2f9f5dae01483045022100ce0bed56f659a46fcaafcd820729d57891e9bcfda8c4e355f7a117a6f5a758aa0220396e8dfa3948b50f7e6c88c464b98b6bf401d81fadd5b3f1dab1f43bf80a3bb9014c69522102af3435ab0586299308176b495b886cf901ca5c69981b7281bae5b123abaf973521023767e328414875237646e79e85ef9dcc46788715653cc906ad1dee0c62f0754c21021bfbf4fcfe1bee72241f53eec4dcbaf45744ddc976c220a814dd27494ea3c11453aeffffffff75656c7cfe616ceb87b882c52356731db961a27a87a6ac96d7c9adf4950e7e3400000000232200207e35033be9cf7ca152ade95fa3b9a1b93ef07b2540b99cba9a4645d694ef77bcffffffffef3fd2c0d56f1c352a625d3094cc6f033a9b791b82d6ce1af60b3ee42490768e00000000232200208bb084a9f0fd803ce28936051630aa8dc9013479d0bbc9af422d59d2c9e45214ffffffff24c33c80d77b3a4243504d457891aec10a07c90aa6383d889e5f6f8135efafbeb8100000fdfd0000483045022100efa0d6ae265982b6b1cbcfff601a6bb20722e44b42982335efd9ceb48327725a02204d72eed2aa1d68ba94cd5fec06547b80ede0d0b4fad9451e8edb73f0e47e4969014730440220082184a2c2df9976e19bd046623cd1c894f58bba3d14fb226e9d3654984ed70802203c14ec3de7f129957fedeb9b5c8c6ec8b9e0ef08c13f28831ec42e0923ba7361014c695221031791b4265ed630ee2b223dc4ec019666af1b97104b7784108079f3ff718cf6582103dc1ae8f9bd57004c9e7cb0f6532368fcc1d624cc4f501248d1119f56cf162157210310bf9b410061fec3989fb20aeaef4c40d4092b739669d33f76ae3dbc719f643c53aeffffffffa83038a8de044af8ab497b0d46d64abc60d953bb895e22778174421241945523f00800002322002005b9f4832aeb7fcef4867c50cf8fe3aa9f2caa7954ce8a60982c2d0ee2be510effffffff756d8bc0e0ab5f500c69a5de98e2608b5e49c91c30bead50e8b37807f02ea78601000000fc0047304402202bc2398255193b8c0841a7d84fab72a2fcf33dbbac2772107f66a37f555d7cde02201fb1182258fa31fd5664eaa62c849fd401ee0245b312abdbfebc3decaf32b362014730440220045b1f441fd42a309eededb8d78e427cacbe738139ce1ecfc7eb38e9f94c74b6022005774dd4d1e92f31e07909725589a8740a16e9b3597ddbb8d0170458ecd531b5014c6952210205dc0449c151188a5103d858a75beaae4ea72835caa931629552c9dc9412904b2103cfb58d99451f85e75dd345809e346e9421fcb9a0e71201244f42bf938d37836c21021d7613d45009849bfb1236890a279d18b806b2ad19bed41e1dc177e78324c34153aeffffffff02e28f6d040000000017a9140c6d018f83332b15bb9e7290ea74ffa9e064e72a87c6891e000000000017a91469f3761988bd4a64cde9ec88a507cc29795a5e1f87040048304502210095cb763f50ef325713e221160386411dd612c5f300ceb068a05714f68db2aed202205c282d384b181ea5e186eb45c94ead482b136843be0222f8e72f23c89b8e1af901483045022100c8715a40214f39e5d1c54af64a6278568610dd82f9569738bf23c13986873a3b022042f331181d7e5009598a772b5088a24426dd1abd8f080c03f1643756dcbb929901695221039bfa0102e533ff83031ea78e539c1b1e26571c9963bd2c7b923926ca209fad2c2103ee257e0be1d19d0e93dfc94e159585e46265532957c90577e06a1ee13bc6cf1b2102a4e84f9cca100662f16c8cec9ef67f7a670d71e185c72989e35e4f20de82c4f453ae00000400483045022100e33ee384d1427d15a8b988e05be22f8cd2a4194be4cdee59ca806a7bb0c269c002207c1a430faf6577186edebdbf342e801409b15db30708e9b723d6721381c801d4014830450221009040e3b63ae1d7800e1c4a9f70b1424e491abb4f04cdf430fcc1abb48eea09b5022067f3255a6cd97d6fb30960344f9d9aa5e437cadebf6e61bc4ed4b8890c3623ae016952210200f1f6cfa95bfd4d8d113c46e887d3609d4ecd2bbd1b20939dbca0b22104e75521027832ab09333bbc6ed323461239dd6c95e048cde10558fa0262426bfdd7ad293a21030c3afb15e8f9d7eba77a16c7f6ecc68b3bf1b22cfb2eea84a9d4c372a702c66d53ae040048304502210083e122f0d4e58111906eb6efc1e0ada6d5e1104b594d701d25362cdbe9a4a9800220337fd864de1b9597e24a404d1744e1ee1b61fa48b6160008c6bb29cded77920701483045022100fa2af45e9dc62b68b89e014702a1b02cc3ed62cf98418564f4dc3593a61d81f402206b410f2b444c3ca58e0e5a9806ca4d84f02b2e5d4c0da2c7b32082694e90de6601695221028052dc0fe3f230344e297dec4a4596f5d666c521c6d6ca4a4d95e029a504e5812103a3b9b7894f0e4dc72dcae827006cbcdb7a75550e55bd71b226397761b89b162021022ebe07ecdd1ff2d62f686e068ae0b8c4d93befeea560c78d2808747ea311612953ae0004004730440220098d8c652f4a786f9e3c293b75f7432f4dfc0232284c083f9e6e2fc58b6689030220527ee6d38a5bb4b43e78725d3696d99962df2bbea021bad45784993f6d6c018d01483045022100ccbb09a81ea287368d29cd681a109a61ee3a4759016f4e6c9203078dd97505f5022046343b523e48d4970dee60968229b2f1c932bbc63ef7a47d2ad2352344e926c201695221038db7bfb197e5fbe9adfeb4626aaef29c2b87b47f007eb8b62d43c302ffc1422a21025838230bea9212ad88b6017c408059fc8c2fbda080b6e50c2835fba2a0b10fb921030b663305af3f33cc96065b01c027c49b90f3787b885d2eb401fb7e9f2d9366ec53ae0000000000", "vin": [{"txinwitness": ["", "304502210095cb763f50ef325713e221160386411dd612c5f300ceb068a05714f68db2aed202205c282d384b181ea5e186eb45c94ead482b136843be0222f8e72f23c89b8e1af901", "3045022100c8715a40214f39e5d1c54af64a6278568610dd82f9569738bf23c13986873a3b022042f331181d7e5009598a772b5088a24426dd1abd8f080c03f1643756dcbb929901", "5221039bfa0102e533ff83031ea78e539c1b1e26571c9963bd2c7b923926ca209fad2c2103ee257e0be1d19d0e93dfc94e159585e46265532957c90577e06a1ee13bc6cf1b2102a4e84f9cca100662f16c8cec9ef67f7a670d71e185c72989e35e4f20de82c4f453ae"], "sequence": 4294967295, "scriptSig": {"hex": "22002058ab7cae9c94aa538347357973432084c6670be91962dd2872038807624138ac", "asm": "002058ab7cae9c94aa538347357973432084c6670be91962dd2872038807624138ac"}, "vout": 0, "txid": "eaa89dbccf59da77769922f6e93ea7790d252e125a7405ea60a572b4d9e5c558"}, {"sequence": 4294967295, "scriptSig": {"hex": "0048304502210093c6dffae3959785d268456008b59bdaf41c3fd898f8abc32ed9b94be5ffada702204a19b9bd2fe7a3cc95fa7137b52292b30dcf4cec494fd68d61ef9f7be0d64e790147304402207c634c9aecab2e8f7ae1b1b9c264895fe04194ad315cb7e022b89a82c55c4e47022020e2edbb950b51e8846e53b822f4de770b0c5bddd85193b2f6cc9401884db2ac014c695221034eca325385f0e1917091c8e1e8f6b752b30b486cecb79a925f134a2b1569d08c2102152cac35c28a588022c6bd145d0c115921e17e72f9ca39b774e093ccadbd4a3821029cedcc5d3e4ed554f44d9090f90ee540e3a1012077345cd04376d0fc9e7502f453ae", "asm": "0 304502210093c6dffae3959785d268456008b59bdaf41c3fd898f8abc32ed9b94be5ffada702204a19b9bd2fe7a3cc95fa7137b52292b30dcf4cec494fd68d61ef9f7be0d64e79[ALL] 304402207c634c9aecab2e8f7ae1b1b9c264895fe04194ad315cb7e022b89a82c55c4e47022020e2edbb950b51e8846e53b822f4de770b0c5bddd85193b2f6cc9401884db2ac[ALL] 5221034eca325385f0e1917091c8e1e8f6b752b30b486cecb79a925f134a2b1569d08c2102152cac35c28a588022c6bd145d0c115921e17e72f9ca39b774e093ccadbd4a3821029cedcc5d3e4ed554f44d9090f90ee540e3a1012077345cd04376d0fc9e7502f453ae"}, "vout": 8, "txid": "401de8ee8aa9b111973698be73df1fec3d0b2cb79e913ef0f565770398f3f0d1"}, {"sequence": 4294967295, "scriptSig": {"hex": "0047304402201c49121086103655c382b196df84895c42eb79f5fc1541b35e1e51a2a484350202205db56ffa71c46412986e199d9a5b669c0713e98187b9de9d2869a6bf2f9f5dae01483045022100ce0bed56f659a46fcaafcd820729d57891e9bcfda8c4e355f7a117a6f5a758aa0220396e8dfa3948b50f7e6c88c464b98b6bf401d81fadd5b3f1dab1f43bf80a3bb9014c69522102af3435ab0586299308176b495b886cf901ca5c69981b7281bae5b123abaf973521023767e328414875237646e79e85ef9dcc46788715653cc906ad1dee0c62f0754c21021bfbf4fcfe1bee72241f53eec4dcbaf45744ddc976c220a814dd27494ea3c11453ae", "asm": "0 304402201c49121086103655c382b196df84895c42eb79f5fc1541b35e1e51a2a484350202205db56ffa71c46412986e199d9a5b669c0713e98187b9de9d2869a6bf2f9f5dae[ALL] 3045022100ce0bed56f659a46fcaafcd820729d57891e9bcfda8c4e355f7a117a6f5a758aa0220396e8dfa3948b50f7e6c88c464b98b6bf401d81fadd5b3f1dab1f43bf80a3bb9[ALL] 522102af3435ab0586299308176b495b886cf901ca5c69981b7281bae5b123abaf973521023767e328414875237646e79e85ef9dcc46788715653cc906ad1dee0c62f0754c21021bfbf4fcfe1bee72241f53eec4dcbaf45744ddc976c220a814dd27494ea3c11453ae"}, "vout": 74, "txid": "c890d15afdfbd958409cf9817056dbe6d29f75a40a5eac1efc5565aa2960ae5f"}, {"txinwitness": ["", "3045022100e33ee384d1427d15a8b988e05be22f8cd2a4194be4cdee59ca806a7bb0c269c002207c1a430faf6577186edebdbf342e801409b15db30708e9b723d6721381c801d401", "30450221009040e3b63ae1d7800e1c4a9f70b1424e491abb4f04cdf430fcc1abb48eea09b5022067f3255a6cd97d6fb30960344f9d9aa5e437cadebf6e61bc4ed4b8890c3623ae01", "52210200f1f6cfa95bfd4d8d113c46e887d3609d4ecd2bbd1b20939dbca0b22104e75521027832ab09333bbc6ed323461239dd6c95e048cde10558fa0262426bfdd7ad293a21030c3afb15e8f9d7eba77a16c7f6ecc68b3bf1b22cfb2eea84a9d4c372a702c66d53ae"], "sequence": 4294967295, "scriptSig": {"hex": "2200207e35033be9cf7ca152ade95fa3b9a1b93ef07b2540b99cba9a4645d694ef77bc", "asm": "00207e35033be9cf7ca152ade95fa3b9a1b93ef07b2540b99cba9a4645d694ef77bc"}, "vout": 0, "txid": "347e0e95f4adc9d796aca6877aa261b91d735623c582b887eb6c61fe7c6c6575"}, {"txinwitness": ["", "304502210083e122f0d4e58111906eb6efc1e0ada6d5e1104b594d701d25362cdbe9a4a9800220337fd864de1b9597e24a404d1744e1ee1b61fa48b6160008c6bb29cded77920701", "3045022100fa2af45e9dc62b68b89e014702a1b02cc3ed62cf98418564f4dc3593a61d81f402206b410f2b444c3ca58e0e5a9806ca4d84f02b2e5d4c0da2c7b32082694e90de6601", "5221028052dc0fe3f230344e297dec4a4596f5d666c521c6d6ca4a4d95e029a504e5812103a3b9b7894f0e4dc72dcae827006cbcdb7a75550e55bd71b226397761b89b162021022ebe07ecdd1ff2d62f686e068ae0b8c4d93befeea560c78d2808747ea311612953ae"], "sequence": 4294967295, "scriptSig": {"hex": "2200208bb084a9f0fd803ce28936051630aa8dc9013479d0bbc9af422d59d2c9e45214", "asm": "00208bb084a9f0fd803ce28936051630aa8dc9013479d0bbc9af422d59d2c9e45214"}, "vout": 0, "txid": "8e769024e43e0bf61aced6821b799b3a036fcc94305d622a351c6fd5c0d23fef"}, {"sequence": 4294967295, "scriptSig": {"hex": "00483045022100efa0d6ae265982b6b1cbcfff601a6bb20722e44b42982335efd9ceb48327725a02204d72eed2aa1d68ba94cd5fec06547b80ede0d0b4fad9451e8edb73f0e47e4969014730440220082184a2c2df9976e19bd046623cd1c894f58bba3d14fb226e9d3654984ed70802203c14ec3de7f129957fedeb9b5c8c6ec8b9e0ef08c13f28831ec42e0923ba7361014c695221031791b4265ed630ee2b223dc4ec019666af1b97104b7784108079f3ff718cf6582103dc1ae8f9bd57004c9e7cb0f6532368fcc1d624cc4f501248d1119f56cf162157210310bf9b410061fec3989fb20aeaef4c40d4092b739669d33f76ae3dbc719f643c53ae", "asm": "0 3045022100efa0d6ae265982b6b1cbcfff601a6bb20722e44b42982335efd9ceb48327725a02204d72eed2aa1d68ba94cd5fec06547b80ede0d0b4fad9451e8edb73f0e47e4969[ALL] 30440220082184a2c2df9976e19bd046623cd1c894f58bba3d14fb226e9d3654984ed70802203c14ec3de7f129957fedeb9b5c8c6ec8b9e0ef08c13f28831ec42e0923ba7361[ALL] 5221031791b4265ed630ee2b223dc4ec019666af1b97104b7784108079f3ff718cf6582103dc1ae8f9bd57004c9e7cb0f6532368fcc1d624cc4f501248d1119f56cf162157210310bf9b410061fec3989fb20aeaef4c40d4092b739669d33f76ae3dbc719f643c53ae"}, "vout": 4280, "txid": "beafef35816f5f9e883d38a60ac9070ac1ae9178454d5043423a7bd7803cc324"}, {"txinwitness": ["", "30440220098d8c652f4a786f9e3c293b75f7432f4dfc0232284c083f9e6e2fc58b6689030220527ee6d38a5bb4b43e78725d3696d99962df2bbea021bad45784993f6d6c018d01", "3045022100ccbb09a81ea287368d29cd681a109a61ee3a4759016f4e6c9203078dd97505f5022046343b523e48d4970dee60968229b2f1c932bbc63ef7a47d2ad2352344e926c201", "5221038db7bfb197e5fbe9adfeb4626aaef29c2b87b47f007eb8b62d43c302ffc1422a21025838230bea9212ad88b6017c408059fc8c2fbda080b6e50c2835fba2a0b10fb921030b663305af3f33cc96065b01c027c49b90f3787b885d2eb401fb7e9f2d9366ec53ae"], "sequence": 4294967295, "scriptSig": {"hex": "22002005b9f4832aeb7fcef4867c50cf8fe3aa9f2caa7954ce8a60982c2d0ee2be510e", "asm": "002005b9f4832aeb7fcef4867c50cf8fe3aa9f2caa7954ce8a60982c2d0ee2be510e"}, "vout": 2288, "txid": "235594411242748177225e89bb53d960bc4ad6460d7b49abf84a04dea83830a8"}, {"sequence": 4294967295, "scriptSig": {"hex": "0047304402202bc2398255193b8c0841a7d84fab72a2fcf33dbbac2772107f66a37f555d7cde02201fb1182258fa31fd5664eaa62c849fd401ee0245b312abdbfebc3decaf32b362014730440220045b1f441fd42a309eededb8d78e427cacbe738139ce1ecfc7eb38e9f94c74b6022005774dd4d1e92f31e07909725589a8740a16e9b3597ddbb8d0170458ecd531b5014c6952210205dc0449c151188a5103d858a75beaae4ea72835caa931629552c9dc9412904b2103cfb58d99451f85e75dd345809e346e9421fcb9a0e71201244f42bf938d37836c21021d7613d45009849bfb1236890a279d18b806b2ad19bed41e1dc177e78324c34153ae", "asm": "0 304402202bc2398255193b8c0841a7d84fab72a2fcf33dbbac2772107f66a37f555d7cde02201fb1182258fa31fd5664eaa62c849fd401ee0245b312abdbfebc3decaf32b362[ALL] 30440220045b1f441fd42a309eededb8d78e427cacbe738139ce1ecfc7eb38e9f94c74b6022005774dd4d1e92f31e07909725589a8740a16e9b3597ddbb8d0170458ecd531b5[ALL] 52210205dc0449c151188a5103d858a75beaae4ea72835caa931629552c9dc9412904b2103cfb58d99451f85e75dd345809e346e9421fcb9a0e71201244f42bf938d37836c21021d7613d45009849bfb1236890a279d18b806b2ad19bed41e1dc177e78324c34153ae"}, "vout": 1, "txid": "86a72ef00778b3e850adbe301cc9495e8b60e298dea5690c505fabe0c08b6d75"}], "txid": "042b73643d8a5db1d68be28113d8493369b2c344416f7425c9db686b179a1b50", "blocktime": 1537870564, "version": 1, "confirmations": 11515, "time": 1537870564, "locktime": 0, "vsize": 1815, "size": 2580}