{"hash": "e11a434f6506ae5a0957422a9696a6f33824de3d6ab27b9e46fdf7ecd0045c4d", "blockhash": "0000000000000000001cda96e906b7601b7a6fb1a3b62bca570a9e5d8f4b3de1", "vout": [{"scriptPubKey": {"reqSigs": 1, "hex": "a914ec96a9242a41789456b57fec96fd66f9d678243887", "addresses": ["3PFysuTWWTEdpmjRgMqFF9McsoKRac6Mkw"], "asm": "OP_HASH160 ec96a9242a41789456b57fec96fd66f9d6782438 OP_EQUAL", "type": "scripthash"}, "value": 0.03999834, "n": 0}, {"scriptPubKey": {"reqSigs": 1, "hex": "a914100820bedd3bd0833346cdbe3e3e9188f5cf589e87", "addresses": ["339nUMGdk8uy3sSt2o3XupMUc2ViE515HY"], "asm": "OP_HASH160 100820bedd3bd0833346cdbe3e3e9188f5cf589e OP_EQUAL", "type": "scripthash"}, "value": 0.08, "n": 1}], "hex": "020000000001015451b2c45ba0cddba307c58df67f79df187a0b7bce73e17b31445600b403c9390b000000171600146730234a92b69a3995e9e4d1cac2098badc7f4fdfdffffff025a083d000000000017a914ec96a9242a41789456b57fec96fd66f9d67824388700127a000000000017a914100820bedd3bd0833346cdbe3e3e9188f5cf589e8702483045022100e2235f7597a95f280ab045af7becb265d72d8bb72ab58b1ce4e7949d89a946df022016613b42f340b59eb2d82100be262045305e8c734c6d63f4a5283e09fa774412012103d6289a830a9a6043e5fbdb993387eac990534a93872f846c4d2f8f94ed391edf13490800", "vin": [{"txinwitness": ["3045022100e2235f7597a95f280ab045af7becb265d72d8bb72ab58b1ce4e7949d89a946df022016613b42f340b59eb2d82100be262045305e8c734c6d63f4a5283e09fa77441201", "03d6289a830a9a6043e5fbdb993387eac990534a93872f846c4d2f8f94ed391edf"], "sequence": 4294967293, "scriptSig": {"hex": "1600146730234a92b69a3995e9e4d1cac2098badc7f4fd", "asm": "00146730234a92b69a3995e9e4d1cac2098badc7f4fd"}, "vout": 11, "txid": "39c903b4005644317be173ce7b0b7a18df797ff68dc507a3dbcda05bc4b25154"}], "txid": "042c183fd9e54459db814c4bb2321c0e235deb01c2cc4f035ed8008535f9ae9f", "blocktime": 1537873282, "version": 2, "confirmations": 11485, "time": 1537873282, "locktime": 542995, "vsize": 166, "size": 248}