{"hash": "042c1357c8f078b2eedc3509c09d2a9042719181977ec7636845501609042949", "blockhash": "0000000000000000000e13cef7c366c0283d82e591d1acd082e914b08063cdf1", "vout": [{"scriptPubKey": {"reqSigs": 1, "hex": "76a9145c27992b1a3cc15fd9efaba8da6e0efc2633e16788ac", "addresses": ["19QGbzGuGg6cF2E89RNSPB9AgZuXQjR7vU"], "asm": "OP_DUP OP_HASH160 5c27992b1a3cc15fd9efaba8da6e0efc2633e167 OP_EQUALVERIFY OP_CHECKSIG", "type": "pubkeyhash"}, "value": 0.01951997, "n": 0}, {"scriptPubKey": {"reqSigs": 1, "hex": "76a9149b8649ae294d5f2d135672c124b8867ebcb5a8be88ac", "addresses": ["1FBLcDSsiJ7gvPhd7nqX9DRr2TqSqQBqnP"], "asm": "OP_DUP OP_HASH160 9b8649ae294d5f2d135672c124b8867ebcb5a8be OP_EQUALVERIFY OP_CHECKSIG", "type": "pubkeyhash"}, "value": 0.02343127, "n": 1}], "hex": "0100000001c670a09217e5fa5ea13149d54f31e8df2b3007afcdae584923f671c166d212f6010000008b4830450221008f781bd4d0518c6d2e9094469df78ebe2bd5a7fc4d9ecfc0a558bce3d3c0ef60022024ce5294ff48d2e9ec6d83836796e774cdd22831ecc5a7fd7566aa5059084ef70141043af5e559968f4b79b131db9dc3cc17acf57d61753181f82314fc039d30f89897250a5de4e491733586ef3b17c825072401dbb826e662911190fefb9370c034e7ffffffff02fdc81d00000000001976a9145c27992b1a3cc15fd9efaba8da6e0efc2633e16788acd7c02300000000001976a9149b8649ae294d5f2d135672c124b8867ebcb5a8be88ac00000000", "vin": [{"sequence": 4294967295, "scriptSig": {"hex": "4830450221008f781bd4d0518c6d2e9094469df78ebe2bd5a7fc4d9ecfc0a558bce3d3c0ef60022024ce5294ff48d2e9ec6d83836796e774cdd22831ecc5a7fd7566aa5059084ef70141043af5e559968f4b79b131db9dc3cc17acf57d61753181f82314fc039d30f89897250a5de4e491733586ef3b17c825072401dbb826e662911190fefb9370c034e7", "asm": "30450221008f781bd4d0518c6d2e9094469df78ebe2bd5a7fc4d9ecfc0a558bce3d3c0ef60022024ce5294ff48d2e9ec6d83836796e774cdd22831ecc5a7fd7566aa5059084ef7[ALL] 043af5e559968f4b79b131db9dc3cc17acf57d61753181f82314fc039d30f89897250a5de4e491733586ef3b17c825072401dbb826e662911190fefb9370c034e7"}, "vout": 1, "txid": "f612d266c171f6234958aecdaf07302bdfe8314fd54931a15efae51792a070c6"}], "txid": "042c1357c8f078b2eedc3509c09d2a9042719181977ec7636845501609042949", "blocktime": 1537871767, "version": 1, "confirmations": 11495, "time": 1537871767, "locktime": 0, "vsize": 258, "size": 258}