{"hash": "0430b348032452bbc374584ab223eec114181aa5b8c5028e4c78a7a791316f8b", "blockhash": "0000000000000000000baef3f32e3676a92c3b2e5da21b426e4f302fc371ce76", "vout": [{"scriptPubKey": {"reqSigs": 1, "hex": "a914158ca677f4ec2debc2219555e53e57207e1da9a187", "addresses": ["33exc89pxoK9UT5iuoh87sPrDNNtLa8zpP"], "asm": "OP_HASH160 158ca677f4ec2debc2219555e53e57207e1da9a1 OP_EQUAL", "type": "scripthash"}, "value": 0.01, "n": 0}, {"scriptPubKey": {"reqSigs": 1, "hex": "76a9148e20eae4be19aebc00c815d56e04a5a2b710123888ac", "addresses": ["1DxWPPiJKqNX26BEbEBPvc2DA8hWiB5adT"], "asm": "OP_DUP OP_HASH160 8e20eae4be19aebc00c815d56e04a5a2b7101238 OP_EQUALVERIFY OP_CHECKSIG", "type": "pubkeyhash"}, "value": 0.0549888, "n": 1}], "hex": "01000000012c7c533b7cc8ed7be75818c922fba4e63fd12d89909e13c4d479e8e36410d046000000006b483045022100faa42547ec805d68840f87e9830fa68a07565553cbbc112436195fea1be9dacf02201ac2421a4dc60b8777f21392822da390ba48305bdf36f6642f97b1aae56e0f26012103803924ea26bae1e3738f26bd5418f4215f061fe6149bf6f8fd78f991fd174201fdffffff0240420f000000000017a914158ca677f4ec2debc2219555e53e57207e1da9a18700e85300000000001976a9148e20eae4be19aebc00c815d56e04a5a2b710123888ac16490800", "vin": [{"sequence": 4294967293, "scriptSig": {"hex": "483045022100faa42547ec805d68840f87e9830fa68a07565553cbbc112436195fea1be9dacf02201ac2421a4dc60b8777f21392822da390ba48305bdf36f6642f97b1aae56e0f26012103803924ea26bae1e3738f26bd5418f4215f061fe6149bf6f8fd78f991fd174201", "asm": "3045022100faa42547ec805d68840f87e9830fa68a07565553cbbc112436195fea1be9dacf02201ac2421a4dc60b8777f21392822da390ba48305bdf36f6642f97b1aae56e0f26[ALL] 03803924ea26bae1e3738f26bd5418f4215f061fe6149bf6f8fd78f991fd174201"}, "vout": 0, "txid": "46d01064e3e879d4c4139e90892dd13fe6a4fb22c91858e77bedc87c3b537c2c"}], "txid": "0430b348032452bbc374584ab223eec114181aa5b8c5028e4c78a7a791316f8b", "blocktime": 1537876114, "version": 1, "confirmations": 11460, "time": 1537876114, "locktime": 542998, "vsize": 224, "size": 224}