{"hash": "0437cfb7eb08ba2a43410db51967f260e10789c1f182d2cbab69307b527623b9", "blockhash": "0000000000000000000dcc0f55137456b1a82d3642486a52398922ac4d620174", "vout": [{"scriptPubKey": {"type": "nulldata", "hex": "6a146f6d6e69000000000000001f0000001835a06cf0", "asm": "OP_RETURN 6f6d6e69000000000000001f0000001835a06cf0"}, "value": 0.0, "n": 0}, {"scriptPubKey": {"reqSigs": 1, "hex": "76a9146f3faa96c32c771dd96425f915d874245079385c88ac", "addresses": ["1B9EGukytBkMmYoSJNcoU9PzK4WL2ypKHp"], "asm": "OP_DUP OP_HASH160 6f3faa96c32c771dd96425f915d874245079385c OP_EQUALVERIFY OP_CHECKSIG", "type": "pubkeyhash"}, "value": 5.46e-06, "n": 1}, {"scriptPubKey": {"reqSigs": 1, "hex": "76a914388256b4fb33f6155727017f7d5cce7e0d2a65f388ac", "addresses": ["169nyqNqauSUMcS3rAExS3rhhrwz9mVA4i"], "asm": "OP_DUP OP_HASH160 388256b4fb33f6155727017f7d5cce7e0d2a65f3 OP_EQUALVERIFY OP_CHECKSIG", "type": "pubkeyhash"}, "value": 0.00165473, "n": 2}], "hex": "01000000012b634861aa1c9c3089774649faead1e7b04d600c56f8455826cf41cbd6c3af1b010000006b4830450221009923609ed6706c612eb6749b80e1f096c45207c974f45de5869f37fca995e465022044ab1b7d711d43586923742bcc92b9156cf5a0f02441d402a08df10aa937fc99012102cca43b3082ae7d70499eba1e028fba08cb647209c0be3dee55eeb6b51b623f1ffeffffff030000000000000000166a146f6d6e69000000000000001f0000001835a06cf022020000000000001976a9146f3faa96c32c771dd96425f915d874245079385c88ac61860200000000001976a914388256b4fb33f6155727017f7d5cce7e0d2a65f388ace1480800", "vin": [{"sequence": 4294967294, "scriptSig": {"hex": "4830450221009923609ed6706c612eb6749b80e1f096c45207c974f45de5869f37fca995e465022044ab1b7d711d43586923742bcc92b9156cf5a0f02441d402a08df10aa937fc99012102cca43b3082ae7d70499eba1e028fba08cb647209c0be3dee55eeb6b51b623f1f", "asm": "30450221009923609ed6706c612eb6749b80e1f096c45207c974f45de5869f37fca995e465022044ab1b7d711d43586923742bcc92b9156cf5a0f02441d402a08df10aa937fc99[ALL] 02cca43b3082ae7d70499eba1e028fba08cb647209c0be3dee55eeb6b51b623f1f"}, "vout": 1, "txid": "1bafc3d6cb41cf265845f8560c604db0e7d1eafa49467789309c1caa6148632b"}], "txid": "0437cfb7eb08ba2a43410db51967f260e10789c1f182d2cbab69307b527623b9", "blocktime": 1537870268, "version": 1, "confirmations": 11520, "time": 1537870268, "locktime": 542945, "vsize": 257, "size": 257}