{"hash": "cfc3ec68758e44f9c9165514b5c7fe7e59ec3465d48b52285d1d28261bce34a1", "blockhash": "00000000000000000018f53835495a110e01622372bf6ae95dc86f2b0ab887b0", "vout": [{"scriptPubKey": {"reqSigs": 1, "hex": "0014788f23c6b255bb9278dbc8b7681c024b10379600", "addresses": ["bc1q0z8j834j2kaey7xmezmks8qzfvgr09sq7sdwqu"], "asm": "0 788f23c6b255bb9278dbc8b7681c024b10379600", "type": "witness_v0_keyhash"}, "value": 1.217e-05, "n": 0}, {"scriptPubKey": {"reqSigs": 1, "hex": "76a914829f8e6cdad511251adc837fe55b273eeb23be5a88ac", "addresses": ["1Cufz7EJJpbeu28UGjo5vQp4B8gjtYkmed"], "asm": "OP_DUP OP_HASH160 829f8e6cdad511251adc837fe55b273eeb23be5a OP_EQUALVERIFY OP_CHECKSIG", "type": "pubkeyhash"}, "value": 0.001404, "n": 1}], "hex": "01000000000101f0f646b50754047d2005375d668a95d4333f9237e863853f508ce63a6654fc850100000000ffffffff02c104000000000000160014788f23c6b255bb9278dbc8b7681c024b1037960070240200000000001976a914829f8e6cdad511251adc837fe55b273eeb23be5a88ac02483045022100f23b1a82026dcbfec8b6a152e1226e837a4cfade6bfcbe3a48ef998260a714510220640254a2ed07ae01dba2f2a41ab89b28832c8a7519d34aae49adb90df4f551be012103bc1eabab81b4644156b069b456c52450c11dca38ba6a4f6771b1a1f82398db2100000000", "vin": [{"txinwitness": ["3045022100f23b1a82026dcbfec8b6a152e1226e837a4cfade6bfcbe3a48ef998260a714510220640254a2ed07ae01dba2f2a41ab89b28832c8a7519d34aae49adb90df4f551be01", "03bc1eabab81b4644156b069b456c52450c11dca38ba6a4f6771b1a1f82398db21"], "sequence": 4294967295, "scriptSig": {"hex": "", "asm": ""}, "vout": 1, "txid": "85fc54663ae68c503f8563e837923f33d4958a665d3705207d045407b546f6f0"}], "txid": "0438a786d507bc7edff0003e3ded360c385c00d09a7603648d4fc1f79c5f1c56", "blocktime": 1537870928, "version": 1, "confirmations": 11514, "time": 1537870928, "locktime": 0, "vsize": 144, "size": 226}