{"hash": "043dd1f279d751923e2f18ad24a7f6f169eee03362730ed1ce7b326c2f0852f6", "blockhash": "00000000000000000004ffacab907a6b429b9a5745fa0b75af4234bf69dd7176", "vout": [{"scriptPubKey": {"reqSigs": 1, "hex": "76a914431eb0ed03ed625a15e071eb0f41a47b2db31c0288ac", "addresses": ["177u3JuouomFVH56JiZFcuMCmuHrz6utWt"], "asm": "OP_DUP OP_HASH160 431eb0ed03ed625a15e071eb0f41a47b2db31c02 OP_EQUALVERIFY OP_CHECKSIG", "type": "pubkeyhash"}, "value": 0.00078158, "n": 0}, {"scriptPubKey": {"reqSigs": 1, "hex": "76a9145c4606b6a298517d7729809f55fcfad7724b38d888ac", "addresses": ["19Qu4A2yjBQShS4X1S7gY6mgFDfxfYJFEu"], "asm": "OP_DUP OP_HASH160 5c4606b6a298517d7729809f55fcfad7724b38d8 OP_EQUALVERIFY OP_CHECKSIG", "type": "pubkeyhash"}, "value": 0.00545987, "n": 1}], "hex": "01000000014eda525563c0b87846fb7247978b32c9e26ebbe94daacd7c2f43425cbb0aba02000000006b483045022100aa195f4c6aa829abb7f46d8265cb9d433527df85fabc9409aa361b36f8ec2e2802201e828387d4ceae512cd44c2804414b73590b06e2ce37e898e970a8e3adcc0c910121033f191d94a303e5447c96aa35fb96984300e09845a5cf8ce22ecffe032f0868b9ffffffff024e310100000000001976a914431eb0ed03ed625a15e071eb0f41a47b2db31c0288acc3540800000000001976a9145c4606b6a298517d7729809f55fcfad7724b38d888ac00000000", "vin": [{"sequence": 4294967295, "scriptSig": {"hex": "483045022100aa195f4c6aa829abb7f46d8265cb9d433527df85fabc9409aa361b36f8ec2e2802201e828387d4ceae512cd44c2804414b73590b06e2ce37e898e970a8e3adcc0c910121033f191d94a303e5447c96aa35fb96984300e09845a5cf8ce22ecffe032f0868b9", "asm": "3045022100aa195f4c6aa829abb7f46d8265cb9d433527df85fabc9409aa361b36f8ec2e2802201e828387d4ceae512cd44c2804414b73590b06e2ce37e898e970a8e3adcc0c91[ALL] 033f191d94a303e5447c96aa35fb96984300e09845a5cf8ce22ecffe032f0868b9"}, "vout": 0, "txid": "02ba0abb5c42432f7ccdaa4de9bb6ee2c9328b974772fb4678b8c0635552da4e"}], "txid": "043dd1f279d751923e2f18ad24a7f6f169eee03362730ed1ce7b326c2f0852f6", "blocktime": 1537875543, "version": 1, "confirmations": 11464, "time": 1537875543, "locktime": 0, "vsize": 226, "size": 226}