{"hash": "34b5285c02dec9c5e5c236eb0b9e6c69326a9795394e8c80d9026aa2d21584f5", "blockhash": "000000000000000000022b45ed06c6f4ccd3cf7fb5ba4856ebd2e58215665228", "vout": [{"scriptPubKey": {"reqSigs": 1, "hex": "0014364f8fea88c5fbb940edd6122bcf168bd6980f3a", "addresses": ["bc1qxe8cl65gchamjs8d6cfzhnck30tfsre6wzg3h5"], "asm": "0 364f8fea88c5fbb940edd6122bcf168bd6980f3a", "type": "witness_v0_keyhash"}, "value": 0.0162932, "n": 0}, {"scriptPubKey": {"reqSigs": 1, "hex": "76a91497cba144c54b1541580bb562b38e631d8753b60588ac", "addresses": ["1EqcyRaVLQfy6aRZP2mLL8YmpVUVUN6P3q"], "asm": "OP_DUP OP_HASH160 97cba144c54b1541580bb562b38e631d8753b605 OP_EQUALVERIFY OP_CHECKSIG", "type": "pubkeyhash"}, "value": 0.10062835, "n": 1}], "hex": "0100000000010153ed48d88d6c1022fc39721335d7b8ebd72e416c74f826b29ff33379b41e8008430000001716001471b5a2bbb80caebae78d4ab9931118ed191310c6ffffffff0288dc180000000000160014364f8fea88c5fbb940edd6122bcf168bd6980f3af38b9900000000001976a91497cba144c54b1541580bb562b38e631d8753b60588ac0247304402204659dee7abfa4fbbe4f07f7fe01c5a1e747244df4a685ed5fc7486adba01d099022066ab3ecd0d166df2f8a2b735e0829f27318e54c6c96e889ad1dd951b1b1229370121026add1bc31208bf6a55151b412d2a399e4a3c4ff3c81f610b906dbbd711f138c800000000", "vin": [{"txinwitness": ["304402204659dee7abfa4fbbe4f07f7fe01c5a1e747244df4a685ed5fc7486adba01d099022066ab3ecd0d166df2f8a2b735e0829f27318e54c6c96e889ad1dd951b1b12293701", "026add1bc31208bf6a55151b412d2a399e4a3c4ff3c81f610b906dbbd711f138c8"], "sequence": 4294967295, "scriptSig": {"hex": "16001471b5a2bbb80caebae78d4ab9931118ed191310c6", "asm": "001471b5a2bbb80caebae78d4ab9931118ed191310c6"}, "vout": 67, "txid": "08801eb47933f39fb226f8746c412ed7ebb8d735137239fc22106c8dd848ed53"}], "txid": "0442dbc56fe399701fd6b7397b5a900bef389ce05c8e464010cb9b64c889a4e7", "blocktime": 1537869901, "version": 1, "confirmations": 11523, "time": 1537869901, "locktime": 0, "vsize": 167, "size": 248}