{"hash": "044379889a44dbf4816f20abad59bc7151b30cbc60f681d5d0af8cf83dfd0501", "blockhash": "00000000000000000018f53835495a110e01622372bf6ae95dc86f2b0ab887b0", "vout": [{"scriptPubKey": {"reqSigs": 1, "hex": "76a9143bbb5f5d7c87c9facd53d51ed1a92c757199a69c88ac", "addresses": ["16SqLBxaujxJvYWxT71Fz2dfbcZp3Kr1cL"], "asm": "OP_DUP OP_HASH160 3bbb5f5d7c87c9facd53d51ed1a92c757199a69c OP_EQUALVERIFY OP_CHECKSIG", "type": "pubkeyhash"}, "value": 0.00018079, "n": 0}, {"scriptPubKey": {"reqSigs": 1, "hex": "76a914e89e632410cc1eef8d066c1e735827fb3ceed2c188ac", "addresses": ["1NCyWSp7z3TxfwmmAqERXY1bBpeXScwePY"], "asm": "OP_DUP OP_HASH160 e89e632410cc1eef8d066c1e735827fb3ceed2c1 OP_EQUALVERIFY OP_CHECKSIG", "type": "pubkeyhash"}, "value": 0.02436111, "n": 1}], "hex": "010000000160789d4cb7bfbe5f1f671d9408962e373111fc6b8e368a583b55068948e23278010000006b483045022100f699a6e823fe7c1366646774fb1e37a5da090262010b57f675293947f02e06200220776088bee3376afd49a9bb3990959cc5461002fc496527e54d38403f96ee8e1501210290823c3d00d58e479930cb37a7509f517c7be33439948557c45494303d6534ebffffffff029f460000000000001976a9143bbb5f5d7c87c9facd53d51ed1a92c757199a69c88ac0f2c2500000000001976a914e89e632410cc1eef8d066c1e735827fb3ceed2c188ac00000000", "vin": [{"sequence": 4294967295, "scriptSig": {"hex": "483045022100f699a6e823fe7c1366646774fb1e37a5da090262010b57f675293947f02e06200220776088bee3376afd49a9bb3990959cc5461002fc496527e54d38403f96ee8e1501210290823c3d00d58e479930cb37a7509f517c7be33439948557c45494303d6534eb", "asm": "3045022100f699a6e823fe7c1366646774fb1e37a5da090262010b57f675293947f02e06200220776088bee3376afd49a9bb3990959cc5461002fc496527e54d38403f96ee8e15[ALL] 0290823c3d00d58e479930cb37a7509f517c7be33439948557c45494303d6534eb"}, "vout": 1, "txid": "7832e2488906553b588a368e6bfc1131372e9608941d671f5fbebfb74c9d7860"}], "txid": "044379889a44dbf4816f20abad59bc7151b30cbc60f681d5d0af8cf83dfd0501", "blocktime": 1537870928, "version": 1, "confirmations": 11514, "time": 1537870928, "locktime": 0, "vsize": 226, "size": 226}