{"hash": "04456cea504132c900fd994143198f3c697282182481c41e0915dff34d151134", "blockhash": "0000000000000000000dcc0f55137456b1a82d3642486a52398922ac4d620174", "vout": [{"scriptPubKey": {"reqSigs": 1, "hex": "76a914942db02e3170d7b95d8748423174fbb66db645d388ac", "addresses": ["1EWVjs4E19J5SaLFcuTaNZpycBicfagLPV"], "asm": "OP_DUP OP_HASH160 942db02e3170d7b95d8748423174fbb66db645d3 OP_EQUALVERIFY OP_CHECKSIG", "type": "pubkeyhash"}, "value": 5.72e-05, "n": 0}, {"scriptPubKey": {"reqSigs": 1, "hex": "a914e07ebb15f98a8e30e48fd96e840faf58624fc43987", "addresses": ["3NA36vZwmyTcq8kpaYVW5Yxsk1jS7CepiY"], "asm": "OP_HASH160 e07ebb15f98a8e30e48fd96e840faf58624fc439 OP_EQUAL", "type": "scripthash"}, "value": 0.00389616, "n": 1}], "hex": "01000000038f26543f69fb47e2c9d243ac0c08edcc950d842d5f7738e4eb5fd5ec992aab75020000006b483045022100d9b648a4ca122bb69c79feea423248e8fecb23ff93a61a2e0746662842d9b94b02203f905617b26133baa24d83bdf5e5753d7289d0522feb90885b1b1e7665568e900121030f3240ec22c8f5bcaa48f1c806be947ff414d6617ec9d6a48f7679e49bda3841ffffffffd77e087e1be7ee1fab1de29b7e46be0d6163c88e4422d12b0ef1b067862fd978000000006a47304402201f4257f69e26274c8073c2c06dcc5f7a1b079b233e0bef9db6f6ce3c8fe593b80220351cbe9d12b6a7328c79c1863b2f7a50b4c82a05eee78b8629dffb9eb7d9a41d01210324fab0d6edff7060170847209c187af69606c26bd08e43596871844160e562d4ffffffff7236ce1d262fd1300f4a6d39feb11bb1b1e2dadcba820784cc1e56f3962ce9c4000000006b4830450221008b506a45d5df49ad4fb06161432c20d238c2d7b80710780edf14bd4f5786309402207e604dac50cd964358b28f8eded4b5ba867630a4b6922ee4bd9ed6b4e8de00550121030f3240ec22c8f5bcaa48f1c806be947ff414d6617ec9d6a48f7679e49bda3841ffffffff0258160000000000001976a914942db02e3170d7b95d8748423174fbb66db645d388acf0f105000000000017a914e07ebb15f98a8e30e48fd96e840faf58624fc4398700000000", "vin": [{"sequence": 4294967295, "scriptSig": {"hex": "483045022100d9b648a4ca122bb69c79feea423248e8fecb23ff93a61a2e0746662842d9b94b02203f905617b26133baa24d83bdf5e5753d7289d0522feb90885b1b1e7665568e900121030f3240ec22c8f5bcaa48f1c806be947ff414d6617ec9d6a48f7679e49bda3841", "asm": "3045022100d9b648a4ca122bb69c79feea423248e8fecb23ff93a61a2e0746662842d9b94b02203f905617b26133baa24d83bdf5e5753d7289d0522feb90885b1b1e7665568e90[ALL] 030f3240ec22c8f5bcaa48f1c806be947ff414d6617ec9d6a48f7679e49bda3841"}, "vout": 2, "txid": "75ab2a99ecd55febe438775f2d840d95cced080cac43d2c9e247fb693f54268f"}, {"sequence": 4294967295, "scriptSig": {"hex": "47304402201f4257f69e26274c8073c2c06dcc5f7a1b079b233e0bef9db6f6ce3c8fe593b80220351cbe9d12b6a7328c79c1863b2f7a50b4c82a05eee78b8629dffb9eb7d9a41d01210324fab0d6edff7060170847209c187af69606c26bd08e43596871844160e562d4", "asm": "304402201f4257f69e26274c8073c2c06dcc5f7a1b079b233e0bef9db6f6ce3c8fe593b80220351cbe9d12b6a7328c79c1863b2f7a50b4c82a05eee78b8629dffb9eb7d9a41d[ALL] 0324fab0d6edff7060170847209c187af69606c26bd08e43596871844160e562d4"}, "vout": 0, "txid": "78d92f8667b0f10e2bd122448ec863610dbe467e9be21dab1feee71b7e087ed7"}, {"sequence": 4294967295, "scriptSig": {"hex": "4830450221008b506a45d5df49ad4fb06161432c20d238c2d7b80710780edf14bd4f5786309402207e604dac50cd964358b28f8eded4b5ba867630a4b6922ee4bd9ed6b4e8de00550121030f3240ec22c8f5bcaa48f1c806be947ff414d6617ec9d6a48f7679e49bda3841", "asm": "30450221008b506a45d5df49ad4fb06161432c20d238c2d7b80710780edf14bd4f5786309402207e604dac50cd964358b28f8eded4b5ba867630a4b6922ee4bd9ed6b4e8de0055[ALL] 030f3240ec22c8f5bcaa48f1c806be947ff414d6617ec9d6a48f7679e49bda3841"}, "vout": 0, "txid": "c4e92c96f3561ecc840782badcdae2b1b11bb1fe396d4a0f30d12f261dce3672"}], "txid": "04456cea504132c900fd994143198f3c697282182481c41e0915dff34d151134", "blocktime": 1537870268, "version": 1, "confirmations": 11518, "time": 1537870268, "locktime": 0, "vsize": 519, "size": 519}