{"hash": "0448661135d2999ffbe5b6e70d5a551aed1eea45ec6edc379af4b98518865618", "blockhash": "0000000000000000001f76057863aec43deb6fa401d9628bb513d65a8098bfab", "vout": [{"scriptPubKey": {"reqSigs": 1, "hex": "76a914f432731c9f9792cdd3aaeca81ef9884e782fcadd88ac", "addresses": ["1PGCK7PWV4jnQcVz1zUBbvrTcKgSH5jea4"], "asm": "OP_DUP OP_HASH160 f432731c9f9792cdd3aaeca81ef9884e782fcadd OP_EQUALVERIFY OP_CHECKSIG", "type": "pubkeyhash"}, "value": 0.12539171, "n": 0}, {"scriptPubKey": {"reqSigs": 1, "hex": "a91441c6989d231ea1f81de48cd32354245d4fd21b1387", "addresses": ["37gokiRTJUfHj4vyMEeVFg2rpSYZ8RXU6j"], "asm": "OP_HASH160 41c6989d231ea1f81de48cd32354245d4fd21b13 OP_EQUAL", "type": "scripthash"}, "value": 0.084, "n": 1}], "hex": "0100000001fcfc4157389e88448a812f5f62dbec590854a9401ae6ade7b9acb60e1d4004e7400000006a47304402203dc259607f2d70cad27651bfaffffd7ee420a73116c48804f7894cc22aa74cd202204ddcfe5259b4894c123f54d6bc380cea98ef564a6b472914e83b5bdc6ef045ad012103538b386fe1e613e117859f6aabed51da9b21b6e5c694cf12f950387898c55a17ffffffff022355bf00000000001976a914f432731c9f9792cdd3aaeca81ef9884e782fcadd88ac802c80000000000017a91441c6989d231ea1f81de48cd32354245d4fd21b138700000000", "vin": [{"sequence": 4294967295, "scriptSig": {"hex": "47304402203dc259607f2d70cad27651bfaffffd7ee420a73116c48804f7894cc22aa74cd202204ddcfe5259b4894c123f54d6bc380cea98ef564a6b472914e83b5bdc6ef045ad012103538b386fe1e613e117859f6aabed51da9b21b6e5c694cf12f950387898c55a17", "asm": "304402203dc259607f2d70cad27651bfaffffd7ee420a73116c48804f7894cc22aa74cd202204ddcfe5259b4894c123f54d6bc380cea98ef564a6b472914e83b5bdc6ef045ad[ALL] 03538b386fe1e613e117859f6aabed51da9b21b6e5c694cf12f950387898c55a17"}, "vout": 64, "txid": "e704401d0eb6acb9e7ade61a40a9540859ecdb625f2f818a44889e385741fcfc"}], "txid": "0448661135d2999ffbe5b6e70d5a551aed1eea45ec6edc379af4b98518865618", "blocktime": 1537873891, "version": 1, "confirmations": 11479, "time": 1537873891, "locktime": 0, "vsize": 223, "size": 223}