{"hash": "0449b90167fc525dc4498c5d2b0e7e38d022d8f7f87aad597a56fa952441ade5", "blockhash": "0000000000000000001f76057863aec43deb6fa401d9628bb513d65a8098bfab", "vout": [{"scriptPubKey": {"reqSigs": 1, "hex": "a914701aad2bc882a0b3cbabd37939808fadf0200fcc87", "addresses": ["3BumZYL2N45KJP8ZHMdYnM6TfwD6HqyQBo"], "asm": "OP_HASH160 701aad2bc882a0b3cbabd37939808fadf0200fcc OP_EQUAL", "type": "scripthash"}, "value": 0.003, "n": 0}, {"scriptPubKey": {"reqSigs": 1, "hex": "76a914a1dcb6e12e22a97375d097724d6fe42a7fc7068688ac", "addresses": ["1FkrCPWxeBFVxJbZ9eKPpySo67YMvLkGCt"], "asm": "OP_DUP OP_HASH160 a1dcb6e12e22a97375d097724d6fe42a7fc70686 OP_EQUALVERIFY OP_CHECKSIG", "type": "pubkeyhash"}, "value": 0.0794661, "n": 1}], "hex": "010000000191086a1bb2cbd3446cd644ac2e48680099a5c979e2db453918c56e052811e884010000006b483045022100dd14d1bc2913fe0e1ebc74c689c75e720a83f5bdd738f3935d5610b1129700fe0220745a95643085778428b513efe97824964c56206a8f331d0e9ca6f7c3e3b8cd9c01210391d58e99306a5f11a1803f6e1954e98bfb549a689cc745e4ce6d336801d3d393ffffffff02e09304000000000017a914701aad2bc882a0b3cbabd37939808fadf0200fcc8772417900000000001976a914a1dcb6e12e22a97375d097724d6fe42a7fc7068688ac00000000", "vin": [{"sequence": 4294967295, "scriptSig": {"hex": "483045022100dd14d1bc2913fe0e1ebc74c689c75e720a83f5bdd738f3935d5610b1129700fe0220745a95643085778428b513efe97824964c56206a8f331d0e9ca6f7c3e3b8cd9c01210391d58e99306a5f11a1803f6e1954e98bfb549a689cc745e4ce6d336801d3d393", "asm": "3045022100dd14d1bc2913fe0e1ebc74c689c75e720a83f5bdd738f3935d5610b1129700fe0220745a95643085778428b513efe97824964c56206a8f331d0e9ca6f7c3e3b8cd9c[ALL] 0391d58e99306a5f11a1803f6e1954e98bfb549a689cc745e4ce6d336801d3d393"}, "vout": 1, "txid": "84e81128056ec5183945dbe279c9a5990068482eac44d66c44d3cbb21b6a0891"}], "txid": "0449b90167fc525dc4498c5d2b0e7e38d022d8f7f87aad597a56fa952441ade5", "blocktime": 1537873891, "version": 1, "confirmations": 11478, "time": 1537873891, "locktime": 0, "vsize": 224, "size": 224}