{"hash": "044ae0bae045dc088c1b564a38412ef699693e475cd1278087e35db9e18ed8b6", "blockhash": "0000000000000000001e0dab787dd257d1dbfcb92a98c2207d5e1078be1f4165", "vout": [{"scriptPubKey": {"reqSigs": 1, "hex": "76a914beedd22cd378e7b1cb051e993962c24bc5e9833188ac", "addresses": ["1JQYHYLaYzyJn6ssqrEs8fyQL7a37aqLC5"], "asm": "OP_DUP OP_HASH160 beedd22cd378e7b1cb051e993962c24bc5e98331 OP_EQUALVERIFY OP_CHECKSIG", "type": "pubkeyhash"}, "value": 0.00106064, "n": 0}, {"scriptPubKey": {"reqSigs": 1, "hex": "76a9142aee22efcd16b220df731dc5e34a461bd69a53a688ac", "addresses": ["14uzf516WAh8tTFeQWonajTkBiMeiYvcYU"], "asm": "OP_DUP OP_HASH160 2aee22efcd16b220df731dc5e34a461bd69a53a6 OP_EQUALVERIFY OP_CHECKSIG", "type": "pubkeyhash"}, "value": 0.00599659, "n": 1}], "hex": "0100000002a1d462c1818dbd61977459ff9b0777cce52bda0de30b0173c35738feb866e036000000006a47304402206967650539dbe6fd680095a7b1d0ef45159c87a762ff2cc1f9af6878a57d6f450220639f68b4e02fb54b76fa449d1b1926d71e0c4e43001d1b9206310fed20caefd8012103c0abf7b8bd30fd8ea0997cd0aa6db518e130a5c715eaa64120753a61680d728cfffffffff225b2102bc5fd4a7b193b380c6d0f4590062c1af3392704f4dd6cf3fa1c29f0030000006b48304502210080a4c1e25c0a3bf6df95dfbc05954cfa69c5698616ac4b0c838616342604728c02202c64dc88e7364cd482c9eb59804750245c8c98e5811f40d24e383a9adaf4f628012103a3bf6f21b6246bd75521f810fb2fd12e708b36bc4039fba51589f1b1f7baa011ffffffff02509e0100000000001976a914beedd22cd378e7b1cb051e993962c24bc5e9833188ac6b260900000000001976a9142aee22efcd16b220df731dc5e34a461bd69a53a688ac00000000", "vin": [{"sequence": 4294967295, "scriptSig": {"hex": "47304402206967650539dbe6fd680095a7b1d0ef45159c87a762ff2cc1f9af6878a57d6f450220639f68b4e02fb54b76fa449d1b1926d71e0c4e43001d1b9206310fed20caefd8012103c0abf7b8bd30fd8ea0997cd0aa6db518e130a5c715eaa64120753a61680d728c", "asm": "304402206967650539dbe6fd680095a7b1d0ef45159c87a762ff2cc1f9af6878a57d6f450220639f68b4e02fb54b76fa449d1b1926d71e0c4e43001d1b9206310fed20caefd8[ALL] 03c0abf7b8bd30fd8ea0997cd0aa6db518e130a5c715eaa64120753a61680d728c"}, "vout": 0, "txid": "36e066b8fe3857c373010be30dda2be5cc77079bff59749761bd8d81c162d4a1"}, {"sequence": 4294967295, "scriptSig": {"hex": "48304502210080a4c1e25c0a3bf6df95dfbc05954cfa69c5698616ac4b0c838616342604728c02202c64dc88e7364cd482c9eb59804750245c8c98e5811f40d24e383a9adaf4f628012103a3bf6f21b6246bd75521f810fb2fd12e708b36bc4039fba51589f1b1f7baa011", "asm": "304502210080a4c1e25c0a3bf6df95dfbc05954cfa69c5698616ac4b0c838616342604728c02202c64dc88e7364cd482c9eb59804750245c8c98e5811f40d24e383a9adaf4f628[ALL] 03a3bf6f21b6246bd75521f810fb2fd12e708b36bc4039fba51589f1b1f7baa011"}, "vout": 3, "txid": "f0291cfaf36cddf4042739f31a2c0690450f6d0c383b197b4afdc52b10b225f2"}], "txid": "044ae0bae045dc088c1b564a38412ef699693e475cd1278087e35db9e18ed8b6", "blocktime": 1537872475, "version": 1, "confirmations": 11486, "time": 1537872475, "locktime": 0, "vsize": 373, "size": 373}