{"hash": "045062a6ada478515bc868b3c95aa21a1aa8581ce76f8231c9c9534ffa0f9ea3", "blockhash": "0000000000000000001e0dab787dd257d1dbfcb92a98c2207d5e1078be1f4165", "vout": [{"scriptPubKey": {"reqSigs": 1, "hex": "76a914c18203908a8a8d9f9e43d986ea60ca6e1b884f9288ac", "addresses": ["1JeBAYrAaaiLuVy8d2kiZNnYARCjpfjq8g"], "asm": "OP_DUP OP_HASH160 c18203908a8a8d9f9e43d986ea60ca6e1b884f92 OP_EQUALVERIFY OP_CHECKSIG", "type": "pubkeyhash"}, "value": 0.00235228, "n": 0}], "hex": "01000000017679897f85e66608652e87e4012e761dd633998326527ffe2d1865ece44948471f0000006b483045022100db585c797c577c1b4dfc92991c5f9ae7fda7dfe37096dd16f1ea6f216570321a02200e006291e1379ed005f2f99b6834ee0e7c6f5308787746d8cb9746ea19931a44012102a6565a9941614f1dc972bdd479c153a47990aa8478df6fd6c9ed15cdcc120071ffffffff01dc960300000000001976a914c18203908a8a8d9f9e43d986ea60ca6e1b884f9288ac00000000", "vin": [{"sequence": 4294967295, "scriptSig": {"hex": "483045022100db585c797c577c1b4dfc92991c5f9ae7fda7dfe37096dd16f1ea6f216570321a02200e006291e1379ed005f2f99b6834ee0e7c6f5308787746d8cb9746ea19931a44012102a6565a9941614f1dc972bdd479c153a47990aa8478df6fd6c9ed15cdcc120071", "asm": "3045022100db585c797c577c1b4dfc92991c5f9ae7fda7dfe37096dd16f1ea6f216570321a02200e006291e1379ed005f2f99b6834ee0e7c6f5308787746d8cb9746ea19931a44[ALL] 02a6565a9941614f1dc972bdd479c153a47990aa8478df6fd6c9ed15cdcc120071"}, "vout": 31, "txid": "474849e4ec65182dfe7f5226839933d61d762e01e4872e650866e6857f897976"}], "txid": "045062a6ada478515bc868b3c95aa21a1aa8581ce76f8231c9c9534ffa0f9ea3", "blocktime": 1537872475, "version": 1, "confirmations": 11487, "time": 1537872475, "locktime": 0, "vsize": 192, "size": 192}