{"hash": "0457b39d55b074e5e7cd936edd5687a31ae246ee5b281fcf0f42575954c58c9f", "blockhash": "0000000000000000001f0ddff1eddb255c1121bcd4da4f1bc9a0da00cae72433", "vout": [{"scriptPubKey": {"reqSigs": 1, "hex": "a91489ff4cc119ffe744435b8c87aba9441c8ef2ef7187", "addresses": ["3EGgLNFAZpxYZZ31ZEp5zo6W3RGnxgzrXG"], "asm": "OP_HASH160 89ff4cc119ffe744435b8c87aba9441c8ef2ef71 OP_EQUAL", "type": "scripthash"}, "value": 0.01562288, "n": 0}, {"scriptPubKey": {"reqSigs": 1, "hex": "76a914092a0e0d1432afa913c110661c9321c981b3707b88ac", "addresses": ["1qTTkaDdhyRDZ8o7FcxaDEsHST3eM8m65"], "asm": "OP_DUP OP_HASH160 092a0e0d1432afa913c110661c9321c981b3707b OP_EQUALVERIFY OP_CHECKSIG", "type": "pubkeyhash"}, "value": 0.23167873, "n": 1}], "hex": "01000000012466c5867a031594c1d4c9ce29b6df84e22b8a2b4767645e1ec32ca26df4504a010000006b483045022100e10f292cac4c4a01fdcf751040428607483644aeb2c18f3c7911e18cbcf1e64c02207cf9bb0cf13b20a5de28d167cf68cea638bdadcb48dbbab5ea89b42d1c316430012102cc6a2455b4979f31dbe347170208c67e4fd97c88500ab03838a2c2494adc8407ffffffff02b0d617000000000017a91489ff4cc119ffe744435b8c87aba9441c8ef2ef718781836101000000001976a914092a0e0d1432afa913c110661c9321c981b3707b88ac00000000", "vin": [{"sequence": 4294967295, "scriptSig": {"hex": "483045022100e10f292cac4c4a01fdcf751040428607483644aeb2c18f3c7911e18cbcf1e64c02207cf9bb0cf13b20a5de28d167cf68cea638bdadcb48dbbab5ea89b42d1c316430012102cc6a2455b4979f31dbe347170208c67e4fd97c88500ab03838a2c2494adc8407", "asm": "3045022100e10f292cac4c4a01fdcf751040428607483644aeb2c18f3c7911e18cbcf1e64c02207cf9bb0cf13b20a5de28d167cf68cea638bdadcb48dbbab5ea89b42d1c316430[ALL] 02cc6a2455b4979f31dbe347170208c67e4fd97c88500ab03838a2c2494adc8407"}, "vout": 1, "txid": "4a50f46da22cc31e5e6467472b8a2be284dfb629cec9d4c19415037a86c56624"}], "txid": "0457b39d55b074e5e7cd936edd5687a31ae246ee5b281fcf0f42575954c58c9f", "blocktime": 1537872018, "version": 1, "confirmations": 11489, "time": 1537872018, "locktime": 0, "vsize": 224, "size": 224}