{"hash": "a514897e7b15a302dfdcb67ce1830c9374b0fd80fb8983601c782f7bdd47ea92", "blockhash": "00000000000000000024a2167bbff67b0be802c0b01cdd79e6331c2be6459f87", "vout": [{"scriptPubKey": {"reqSigs": 1, "hex": "a9148d19211535e3e1f5606c6282236e37445efcb61487", "addresses": ["3EZ5JbqBSTGXEu6jZccYvd7VV1azwVCuhY"], "asm": "OP_HASH160 8d19211535e3e1f5606c6282236e37445efcb614 OP_EQUAL", "type": "scripthash"}, "value": 0.022979, "n": 0}, {"scriptPubKey": {"reqSigs": 1, "hex": "a914fec37293f73cc540a971ea4d2fdd15cdc3e9e57d87", "addresses": ["3Qv5hCnHwXzsNm6fDb2kpgUQ74twMk8QLm"], "asm": "OP_HASH160 fec37293f73cc540a971ea4d2fdd15cdc3e9e57d OP_EQUAL", "type": "scripthash"}, "value": 0.12519176, "n": 1}], "hex": "020000000001016af7bc603e65787a00b781c0dd2acef5bb8de6f4192967e15a5e60dbbe91b2d901000000171600149749079a9c040fee0d0a0e3b209195d18cc5dd12ffffffff022c1023000000000017a9148d19211535e3e1f5606c6282236e37445efcb614870807bf000000000017a914fec37293f73cc540a971ea4d2fdd15cdc3e9e57d8702473044022057fc2131ef865a609917e7f24c438bd503ea06f16533e6b090032d9644076f2b022019ef090eb0e2f013ea2868734333878a6ae3d190ae01b78d08b14c2ec277c2dc01210328f960405f1448804c2899b754664a69c1664511ce3bd84f5c30a4e653ae850400000000", "vin": [{"txinwitness": ["3044022057fc2131ef865a609917e7f24c438bd503ea06f16533e6b090032d9644076f2b022019ef090eb0e2f013ea2868734333878a6ae3d190ae01b78d08b14c2ec277c2dc01", "0328f960405f1448804c2899b754664a69c1664511ce3bd84f5c30a4e653ae8504"], "sequence": 4294967295, "scriptSig": {"hex": "1600149749079a9c040fee0d0a0e3b209195d18cc5dd12", "asm": "00149749079a9c040fee0d0a0e3b209195d18cc5dd12"}, "vout": 1, "txid": "d9b291bedb605e5ae1672919f4e68dbbf5ce2addc081b7007a78653e60bcf76a"}], "txid": "045a0b114df09b505afc1641d1d0057738f9388d6fc112824d490ccd4993fa5c", "blocktime": 1537870564, "version": 2, "confirmations": 11515, "time": 1537870564, "locktime": 0, "vsize": 166, "size": 247}