{"hash": "045d2ec2b4ba92169a9d803379339321ef0d736bd778ee9a0ad9f91420cd2f0d", "blockhash": "0000000000000000000dcc0f55137456b1a82d3642486a52398922ac4d620174", "vout": [{"scriptPubKey": {"reqSigs": 1, "hex": "76a914349e27f96a630e49231b2ebfb9b160fa4bc4d16988ac", "addresses": ["15oDbriHLTBKkw5JnNaLBLcr6RBfVg89fS"], "asm": "OP_DUP OP_HASH160 349e27f96a630e49231b2ebfb9b160fa4bc4d169 OP_EQUALVERIFY OP_CHECKSIG", "type": "pubkeyhash"}, "value": 0.008, "n": 0}, {"scriptPubKey": {"reqSigs": 1, "hex": "76a91470bde1f52413ab45f32df1d085f8fbb45c1e52f288ac", "addresses": ["1BH89mEPXmNXwbhJ3bZSArQszceFm91Yb5"], "asm": "OP_DUP OP_HASH160 70bde1f52413ab45f32df1d085f8fbb45c1e52f2 OP_EQUALVERIFY OP_CHECKSIG", "type": "pubkeyhash"}, "value": 1.5452093, "n": 1}], "hex": "01000000014eb015e8ae5553dac26ed62be44469d26a128a28ed306a6f18a81686ed020fbe010000006a473044022039517a9320db9b022aa20afb12f5e78c0aff76c02afb4d06d943c0daf6d979c40220263fc1ceac32dcf11282a083a72a07fc2cca7859edff2085f7aa323e39de55b0012103b707e7f9624ea0c400fa0fd56ae70924cca3bf5f22c4ccbc4fff986c0909a964ffffffff0200350c00000000001976a914349e27f96a630e49231b2ebfb9b160fa4bc4d16988ac62cd3509000000001976a91470bde1f52413ab45f32df1d085f8fbb45c1e52f288ac00000000", "vin": [{"sequence": 4294967295, "scriptSig": {"hex": "473044022039517a9320db9b022aa20afb12f5e78c0aff76c02afb4d06d943c0daf6d979c40220263fc1ceac32dcf11282a083a72a07fc2cca7859edff2085f7aa323e39de55b0012103b707e7f9624ea0c400fa0fd56ae70924cca3bf5f22c4ccbc4fff986c0909a964", "asm": "3044022039517a9320db9b022aa20afb12f5e78c0aff76c02afb4d06d943c0daf6d979c40220263fc1ceac32dcf11282a083a72a07fc2cca7859edff2085f7aa323e39de55b0[ALL] 03b707e7f9624ea0c400fa0fd56ae70924cca3bf5f22c4ccbc4fff986c0909a964"}, "vout": 1, "txid": "be0f02ed8616a8186f6a30ed288a126ad26944e42bd66ec2da5355aee815b04e"}], "txid": "045d2ec2b4ba92169a9d803379339321ef0d736bd778ee9a0ad9f91420cd2f0d", "blocktime": 1537870268, "version": 1, "confirmations": 11518, "time": 1537870268, "locktime": 0, "vsize": 225, "size": 225}