{"hash": "045e99b125046834e2f975eef75405b2c29398b742902bd7c326386d656b244d", "blockhash": "00000000000000000004ffacab907a6b429b9a5745fa0b75af4234bf69dd7176", "vout": [{"scriptPubKey": {"type": "nulldata", "hex": "6a146f6d6e69000000000000001f0000007c3310263e", "asm": "OP_RETURN 6f6d6e69000000000000001f0000007c3310263e"}, "value": 0.0, "n": 0}, {"scriptPubKey": {"reqSigs": 1, "hex": "76a91470a19e682e41d9a26fb744988b590b9db20ac2c588ac", "addresses": ["1BGYHxMyVHY1FY25rUW9MpyjQ5zeDzaRtp"], "asm": "OP_DUP OP_HASH160 70a19e682e41d9a26fb744988b590b9db20ac2c5 OP_EQUALVERIFY OP_CHECKSIG", "type": "pubkeyhash"}, "value": 5.46e-06, "n": 1}, {"scriptPubKey": {"reqSigs": 1, "hex": "76a914a25dec4d0011064ef106a983c39c7a540699f22088ac", "addresses": ["1FoWyxwPXuj4C6abqwhjDWdz6D4PZgYRjA"], "asm": "OP_DUP OP_HASH160 a25dec4d0011064ef106a983c39c7a540699f220 OP_EQUALVERIFY OP_CHECKSIG", "type": "pubkeyhash"}, "value": 0.01995204, "n": 2}], "hex": "0100000001a44813c76173a4fe9689194c29809e35be05f1741d9b5e1e9e8bd44070ac1fea8b0000006a473044022032e19985f8023a2af0352bd684054b5901310fb1a9ad262ec582ecfda7ee0ec40220588fcaaa58b51fc01fd5d038a158e9b95181b7f875d2553afdb56932876b8e94012103da5bac7b36d5aa38f531c6b9601e21bb598a4b6716ebed38b009a55dabde9440feffffff030000000000000000166a146f6d6e69000000000000001f0000007c3310263e22020000000000001976a91470a19e682e41d9a26fb744988b590b9db20ac2c588acc4711e00000000001976a914a25dec4d0011064ef106a983c39c7a540699f22088ac16490800", "vin": [{"sequence": 4294967294, "scriptSig": {"hex": "473044022032e19985f8023a2af0352bd684054b5901310fb1a9ad262ec582ecfda7ee0ec40220588fcaaa58b51fc01fd5d038a158e9b95181b7f875d2553afdb56932876b8e94012103da5bac7b36d5aa38f531c6b9601e21bb598a4b6716ebed38b009a55dabde9440", "asm": "3044022032e19985f8023a2af0352bd684054b5901310fb1a9ad262ec582ecfda7ee0ec40220588fcaaa58b51fc01fd5d038a158e9b95181b7f875d2553afdb56932876b8e94[ALL] 03da5bac7b36d5aa38f531c6b9601e21bb598a4b6716ebed38b009a55dabde9440"}, "vout": 139, "txid": "ea1fac7040d48b9e1e5e9b1d74f105be359e80294c198996fea47361c71348a4"}], "txid": "045e99b125046834e2f975eef75405b2c29398b742902bd7c326386d656b244d", "blocktime": 1537875543, "version": 1, "confirmations": 11464, "time": 1537875543, "locktime": 542998, "vsize": 256, "size": 256}