{"hash": "0460e022cf8e9b2793e8e8feb6ac9c4b0a89be1713870ea1f005bc4953f24220", "blockhash": "00000000000000000004ffacab907a6b429b9a5745fa0b75af4234bf69dd7176", "vout": [{"scriptPubKey": {"reqSigs": 1, "hex": "a914597c0e03549794cef2aa9c731c5349683fef0be987", "addresses": ["39rAg6ELiQjTpWC7g64vo9eiYLZU6VUgWz"], "asm": "OP_HASH160 597c0e03549794cef2aa9c731c5349683fef0be9 OP_EQUAL", "type": "scripthash"}, "value": 0.24062199, "n": 0}, {"scriptPubKey": {"reqSigs": 1, "hex": "76a91412ffb8f2fbfb4b4ab68e3a2785b6ebbf0c94257f88ac", "addresses": ["12jTWMvireDpbcRcUHAcSnp9RnCA3bcLmq"], "asm": "OP_DUP OP_HASH160 12ffb8f2fbfb4b4ab68e3a2785b6ebbf0c94257f OP_EQUALVERIFY OP_CHECKSIG", "type": "pubkeyhash"}, "value": 0.67288233, "n": 1}], "hex": "0100000001d41de0c76f0dbd3e4b7dd8b56f830f4718fab3a5059b1dc6182b57547ab43674010000006b483045022100f5d76254c700b86641e52f864312fcfad2d919303178ad790d2ed39dde5e35d902203a7abd7557f3edd44fa1e4430c3723bb729af90d9be5d784dece7ad49d0c67760121029496da511a1e6df47631aaa1a4124d7f7dcb0c384482d27fac75d0508b6890d8ffffffff02f7286f010000000017a914597c0e03549794cef2aa9c731c5349683fef0be987a9bc0204000000001976a91412ffb8f2fbfb4b4ab68e3a2785b6ebbf0c94257f88ac00000000", "vin": [{"sequence": 4294967295, "scriptSig": {"hex": "483045022100f5d76254c700b86641e52f864312fcfad2d919303178ad790d2ed39dde5e35d902203a7abd7557f3edd44fa1e4430c3723bb729af90d9be5d784dece7ad49d0c67760121029496da511a1e6df47631aaa1a4124d7f7dcb0c384482d27fac75d0508b6890d8", "asm": "3045022100f5d76254c700b86641e52f864312fcfad2d919303178ad790d2ed39dde5e35d902203a7abd7557f3edd44fa1e4430c3723bb729af90d9be5d784dece7ad49d0c6776[ALL] 029496da511a1e6df47631aaa1a4124d7f7dcb0c384482d27fac75d0508b6890d8"}, "vout": 1, "txid": "7436b47a54572b18c61d9b05a5b3fa18470f836fb5d87d4b3ebd0d6fc7e01dd4"}], "txid": "0460e022cf8e9b2793e8e8feb6ac9c4b0a89be1713870ea1f005bc4953f24220", "blocktime": 1537875543, "version": 1, "confirmations": 11464, "time": 1537875543, "locktime": 0, "vsize": 224, "size": 224}