{"hash": "0462dc28f551cdc9068d8132d00334575463775162092fc690b9edb41787fa2c", "blockhash": "0000000000000000001cda96e906b7601b7a6fb1a3b62bca570a9e5d8f4b3de1", "vout": [{"scriptPubKey": {"reqSigs": 1, "hex": "76a914fe6947d582ef5521235eabe65a7d0b88d81e5ab688ac", "addresses": ["1QCCkkTtUt64eCLEXrnSg2NgZBaaesUWMv"], "asm": "OP_DUP OP_HASH160 fe6947d582ef5521235eabe65a7d0b88d81e5ab6 OP_EQUALVERIFY OP_CHECKSIG", "type": "pubkeyhash"}, "value": 0.00439, "n": 0}, {"scriptPubKey": {"reqSigs": 1, "hex": "76a914e8572a6834a3087a02909cc5823b0557f2469fda88ac", "addresses": ["1NBWBt4a9Z1TewYcS9ESusayud7xe9AYKa"], "asm": "OP_DUP OP_HASH160 e8572a6834a3087a02909cc5823b0557f2469fda OP_EQUALVERIFY OP_CHECKSIG", "type": "pubkeyhash"}, "value": 0.00927326, "n": 1}], "hex": "0100000001efa14ad43646a427ea4124ba1e11242b8431da1102c7255e7a2f47051dd9381e010000006a47304402202e7b09432c7c7b31bc12030e89c09339e4afc1bb2e50b3994c4051a2486fe422022004689f60a9e17af954718e3e5af4d72c07f6e7b7e9b5fc19f29aabf8e268edfe012102bd5a2f01299cd7d178fe5a3e69d2f26066311a64fa056ecbf9cec9da190c5ad1ffffffff02d8b20600000000001976a914fe6947d582ef5521235eabe65a7d0b88d81e5ab688ac5e260e00000000001976a914e8572a6834a3087a02909cc5823b0557f2469fda88ac00000000", "vin": [{"sequence": 4294967295, "scriptSig": {"hex": "47304402202e7b09432c7c7b31bc12030e89c09339e4afc1bb2e50b3994c4051a2486fe422022004689f60a9e17af954718e3e5af4d72c07f6e7b7e9b5fc19f29aabf8e268edfe012102bd5a2f01299cd7d178fe5a3e69d2f26066311a64fa056ecbf9cec9da190c5ad1", "asm": "304402202e7b09432c7c7b31bc12030e89c09339e4afc1bb2e50b3994c4051a2486fe422022004689f60a9e17af954718e3e5af4d72c07f6e7b7e9b5fc19f29aabf8e268edfe[ALL] 02bd5a2f01299cd7d178fe5a3e69d2f26066311a64fa056ecbf9cec9da190c5ad1"}, "vout": 1, "txid": "1e38d91d05472f7a5e25c70211da31842b24111eba2441ea27a44636d44aa1ef"}], "txid": "0462dc28f551cdc9068d8132d00334575463775162092fc690b9edb41787fa2c", "blocktime": 1537873282, "version": 1, "confirmations": 11483, "time": 1537873282, "locktime": 0, "vsize": 225, "size": 225}