{"hash": "0463483b8bbeb947b9957e7ace6ec2e976106d8e9fb4bc7b7bd292b1e26ad24e", "blockhash": "0000000000000000000e13cef7c366c0283d82e591d1acd082e914b08063cdf1", "vout": [{"scriptPubKey": {"reqSigs": 1, "hex": "76a914c11800a754803d1c9597d557a81f1e6a4c9dc0ad88ac", "addresses": ["1JbzAkVh7VSfQUZoSARAv3CXm1nhjBZkV9"], "asm": "OP_DUP OP_HASH160 c11800a754803d1c9597d557a81f1e6a4c9dc0ad OP_EQUALVERIFY OP_CHECKSIG", "type": "pubkeyhash"}, "value": 0.0116, "n": 0}], "hex": "01000000010aa128476433873326f2566251418919552348122eaf862aacbfb66f04753974000000006a473044022029b07e7962242f4041020845d6a19c7ca67d53c1c670dbdc97f72c0fc10d0823022018b564a54f428446dbeec55fac1dcb6b5e9bbe6ab1bebcaa055e481242c5fd690121020de6812f9882d34e87148b90debe494a9f782617f464ddc84e09cd59026837d3ffffffff0140b31100000000001976a914c11800a754803d1c9597d557a81f1e6a4c9dc0ad88ac00000000", "vin": [{"sequence": 4294967295, "scriptSig": {"hex": "473044022029b07e7962242f4041020845d6a19c7ca67d53c1c670dbdc97f72c0fc10d0823022018b564a54f428446dbeec55fac1dcb6b5e9bbe6ab1bebcaa055e481242c5fd690121020de6812f9882d34e87148b90debe494a9f782617f464ddc84e09cd59026837d3", "asm": "3044022029b07e7962242f4041020845d6a19c7ca67d53c1c670dbdc97f72c0fc10d0823022018b564a54f428446dbeec55fac1dcb6b5e9bbe6ab1bebcaa055e481242c5fd69[ALL] 020de6812f9882d34e87148b90debe494a9f782617f464ddc84e09cd59026837d3"}, "vout": 0, "txid": "743975046fb6bfac2a86af2e12482355198941516256f226338733644728a10a"}], "txid": "0463483b8bbeb947b9957e7ace6ec2e976106d8e9fb4bc7b7bd292b1e26ad24e", "blocktime": 1537871767, "version": 1, "confirmations": 11491, "time": 1537871767, "locktime": 0, "vsize": 191, "size": 191}