{"hash": "04691f29f95ffba88b0c31365c3914b4b4d9b924d35c556c174d0958d89dbff9", "blockhash": "0000000000000000001cda96e906b7601b7a6fb1a3b62bca570a9e5d8f4b3de1", "vout": [{"scriptPubKey": {"reqSigs": 1, "hex": "76a914d59091751f9fb7d725028bfa1d97f65dcb115c7d88ac", "addresses": ["1LUE7dmxdi9zaa447YzmNapDYcbYWLnChe"], "asm": "OP_DUP OP_HASH160 d59091751f9fb7d725028bfa1d97f65dcb115c7d OP_EQUALVERIFY OP_CHECKSIG", "type": "pubkeyhash"}, "value": 0.07806, "n": 0}, {"scriptPubKey": {"reqSigs": 1, "hex": "76a914ffa85b07134ee41c6cad1120176ec9e7d32e352c88ac", "addresses": ["1QJnzU6zcE1SUFx2cjPEUpwMPXDX1A8nNX"], "asm": "OP_DUP OP_HASH160 ffa85b07134ee41c6cad1120176ec9e7d32e352c OP_EQUALVERIFY OP_CHECKSIG", "type": "pubkeyhash"}, "value": 0.31879536, "n": 1}], "hex": "0100000001078109e6d58d424cc479b60a0e09167e97c4785bfd021a32c0646ccad3f9b044010000006a47304402206b91254de658d6398c3ba1da935dec0f51213fb91b36e29e76f637cd364d86520220276ce833511a75fb805347fa40592938a3666b0edc589d2454fd0995aa1978f60121033c4ac6c10b30800bfd0ef52dfd72c6e8e0053c9dbd38affd81f4d63e789886ebffffffff02301c7700000000001976a914d59091751f9fb7d725028bfa1d97f65dcb115c7d88ac7071e601000000001976a914ffa85b07134ee41c6cad1120176ec9e7d32e352c88ac00000000", "vin": [{"sequence": 4294967295, "scriptSig": {"hex": "47304402206b91254de658d6398c3ba1da935dec0f51213fb91b36e29e76f637cd364d86520220276ce833511a75fb805347fa40592938a3666b0edc589d2454fd0995aa1978f60121033c4ac6c10b30800bfd0ef52dfd72c6e8e0053c9dbd38affd81f4d63e789886eb", "asm": "304402206b91254de658d6398c3ba1da935dec0f51213fb91b36e29e76f637cd364d86520220276ce833511a75fb805347fa40592938a3666b0edc589d2454fd0995aa1978f6[ALL] 033c4ac6c10b30800bfd0ef52dfd72c6e8e0053c9dbd38affd81f4d63e789886eb"}, "vout": 1, "txid": "44b0f9d3ca6c64c0321a02fd5b78c4977e16090e0ab679c44c428dd5e6098107"}], "txid": "04691f29f95ffba88b0c31365c3914b4b4d9b924d35c556c174d0958d89dbff9", "blocktime": 1537873282, "version": 1, "confirmations": 11484, "time": 1537873282, "locktime": 0, "vsize": 225, "size": 225}