{"hash": "8b1fb9174518e000f059d4cf16e37511f526d3bc3d96815703d0af52379c49b0", "blockhash": "0000000000000000000dcc0f55137456b1a82d3642486a52398922ac4d620174", "vout": [{"scriptPubKey": {"reqSigs": 1, "hex": "76a91448e95d33118fd0761c67a5691fb5e8233abbc39f88ac", "addresses": ["17eXDEPzGT5TYTmJb11CAMWv1CGKEa8LYh"], "asm": "OP_DUP OP_HASH160 48e95d33118fd0761c67a5691fb5e8233abbc39f OP_EQUALVERIFY OP_CHECKSIG", "type": "pubkeyhash"}, "value": 0.08762324, "n": 0}, {"scriptPubKey": {"reqSigs": 1, "hex": "00144c2bacf8bc7311578c64ce0ff292ed1fde077903", "addresses": ["bc1qfs46e79uwvg40rryec8l9yhdrl0qw7gr4a37jg"], "asm": "0 4c2bacf8bc7311578c64ce0ff292ed1fde077903", "type": "witness_v0_keyhash"}, "value": 0.01186581, "n": 1}], "hex": "0100000000010155398eed16299287917aea636385568b556dd4231d692f3e71f93c588f0fa1420100000000ffffffff02d4b38500000000001976a91448e95d33118fd0761c67a5691fb5e8233abbc39f88ac151b1200000000001600144c2bacf8bc7311578c64ce0ff292ed1fde07790302483045022100ca64aa9776ed5faf7e5d5dc8da3bdb6024566f6557751b4f9757ae55a20355e7022077c248d41b6a8cc62d2a2fe56b509a554c025476c0b0c63fbb02c42f250a228a012103a2c25b9d8c12eb156b0ac8080fd097ae0692297ee311e6fb30821e8e6820475f00000000", "vin": [{"txinwitness": ["3045022100ca64aa9776ed5faf7e5d5dc8da3bdb6024566f6557751b4f9757ae55a20355e7022077c248d41b6a8cc62d2a2fe56b509a554c025476c0b0c63fbb02c42f250a228a01", "03a2c25b9d8c12eb156b0ac8080fd097ae0692297ee311e6fb30821e8e6820475f"], "sequence": 4294967295, "scriptSig": {"hex": "", "asm": ""}, "vout": 1, "txid": "42a10f8f583cf9713e2f691d23d46d558b56856363ea7a9187922916ed8e3955"}], "txid": "0473e27fd2c5e061e0a7b078ce011750f44ef2a3b8285071764d7ea89a7a99ab", "blocktime": 1537870268, "version": 1, "confirmations": 11518, "time": 1537870268, "locktime": 0, "vsize": 144, "size": 226}