{"hash": "d835b84685bf15e165e1704759efd680025ab2ed1348f890998fbc7d08a1b740", "blockhash": "0000000000000000001e0dab787dd257d1dbfcb92a98c2207d5e1078be1f4165", "vout": [{"scriptPubKey": {"reqSigs": 1, "hex": "a9142ce302ce6d76fef4e3e9a36b3babd1581fa3403887", "addresses": ["35nMbywJESnUcHN4rVCNarApNFmFtaTvp6"], "asm": "OP_HASH160 2ce302ce6d76fef4e3e9a36b3babd1581fa34038 OP_EQUAL", "type": "scripthash"}, "value": 0.00999606, "n": 0}, {"scriptPubKey": {"reqSigs": 1, "hex": "76a91499bfa0bc37d94f726eadd6d0638309fb0ac7f30e88ac", "addresses": ["1F1wwtWJAKrekQ3GqwgvNsbd67Gzi4XoVg"], "asm": "OP_DUP OP_HASH160 99bfa0bc37d94f726eadd6d0638309fb0ac7f30e OP_EQUALVERIFY OP_CHECKSIG", "type": "pubkeyhash"}, "value": 0.0043436, "n": 1}], "hex": "020000000001021be7c78cbc809775dad694d899e49f3771af19a998f82846a7b9b89c863781860500000017160014a69eaf811681853c4eba175d65d6caad4ab63851feffffffaafc0b087e96139c2e548cc7fe90bae60577160d5b35e93d4c244879f18651d801000000171600144536be7220c3783723dc6a5fd1f9305c0c24a492feffffff02b6400f000000000017a9142ce302ce6d76fef4e3e9a36b3babd1581fa3403887b8a00600000000001976a91499bfa0bc37d94f726eadd6d0638309fb0ac7f30e88ac02483045022100e79925f65a86b5e10d8c0b919624b113e5d19e7e8cff28a03171c318f86bc8f30220551571872a686f58cc0cbead781475e06eec0bdd2f80384eb32da675e0a4f7e401210321485f20d2ff3f7b9a5844fc3a157925427882fce901151b0de88066c66f7ca8024830450221008381fbe62d8b468e96923264d2218c7f6deacdc753e2723372627a1a112c42fc02203f49ee93ec756b9cc6edf038d5168ff6cc8572bcdf440238b565f94e92502b90012103842d1c02541478c2d03136a95610ae903a3bbd6d72be0ed0cdc3b87bc951bdf712490800", "vin": [{"txinwitness": ["3045022100e79925f65a86b5e10d8c0b919624b113e5d19e7e8cff28a03171c318f86bc8f30220551571872a686f58cc0cbead781475e06eec0bdd2f80384eb32da675e0a4f7e401", "0321485f20d2ff3f7b9a5844fc3a157925427882fce901151b0de88066c66f7ca8"], "sequence": 4294967294, "scriptSig": {"hex": "160014a69eaf811681853c4eba175d65d6caad4ab63851", "asm": "0014a69eaf811681853c4eba175d65d6caad4ab63851"}, "vout": 5, "txid": "868137869cb8b9a74628f898a919af71379fe499d894d6da759780bc8cc7e71b"}, {"txinwitness": ["30450221008381fbe62d8b468e96923264d2218c7f6deacdc753e2723372627a1a112c42fc02203f49ee93ec756b9cc6edf038d5168ff6cc8572bcdf440238b565f94e92502b9001", "03842d1c02541478c2d03136a95610ae903a3bbd6d72be0ed0cdc3b87bc951bdf7"], "sequence": 4294967294, "scriptSig": {"hex": "1600144536be7220c3783723dc6a5fd1f9305c0c24a492", "asm": "00144536be7220c3783723dc6a5fd1f9305c0c24a492"}, "vout": 1, "txid": "d85186f17948244c3de9355b0d167705e6ba90fec78c542e9c13967e080bfcaa"}], "txid": "047d4861f481d12067bd07f9aa47774cb4fe96e0ced411363770863f2e428e9a", "blocktime": 1537872475, "version": 2, "confirmations": 11487, "time": 1537872475, "locktime": 542994, "vsize": 259, "size": 422}