{"hash": "2b17ced50b633a6d8042f6245c14a64392fe98903009433f99546dabbdca1e36", "blockhash": "00000000000000000018f53835495a110e01622372bf6ae95dc86f2b0ab887b0", "vout": [{"scriptPubKey": {"reqSigs": 1, "hex": "a914f6349620cd662ea21cf22aff35a0a990371edaad87", "addresses": ["3Q8q9WB4Do6pA8ofb9yNgiJZwhVhAsC7Ni"], "asm": "OP_HASH160 f6349620cd662ea21cf22aff35a0a990371edaad OP_EQUAL", "type": "scripthash"}, "value": 8e-05, "n": 0}, {"scriptPubKey": {"reqSigs": 1, "hex": "a9141d7370ccde4590204155e4074f69743a8e4fac0287", "addresses": ["34Njp4ZKtmCDfqqps26wHBYQQGUo2pGkLi"], "asm": "OP_HASH160 1d7370ccde4590204155e4074f69743a8e4fac02 OP_EQUAL", "type": "scripthash"}, "value": 3.988e-05, "n": 1}], "hex": "010000000001016e3ebd24de14a21d34972da07952654c1afd669d45605ffa98c207f2ee62ec550100000023220020f63dfc12340f6360d0251c22746d6b56093e3243e96ca012a65484a5d9cf0ec0ffffffff02401f00000000000017a914f6349620cd662ea21cf22aff35a0a990371edaad87940f00000000000017a9141d7370ccde4590204155e4074f69743a8e4fac028704004830450221009fa771aeed17815e546e50d7f5ed685e20fcf55b7bcfe41c8f42912e91c0cbef02205ea44444a2f89a3bbcf680127b318a192f436f01d8ea28f39391813aeddd6fc501473044022055db8e981be5a4662d251d410faef4df4ce47f2c9760a7f1585c28abe1e61f1702204e8a29d4da0a39c9793455954f8924245389912f7a85d2884343044868263f4a0147522102097067a6a0cc130a9a6f6577b47bf369b840a79de31cd7457187994266b1bb7c2103338f346cab6ba87fe940591a03ac234be06520c5ab386d4b6632e8eef0d0db7652ae00000000", "vin": [{"txinwitness": ["", "30450221009fa771aeed17815e546e50d7f5ed685e20fcf55b7bcfe41c8f42912e91c0cbef02205ea44444a2f89a3bbcf680127b318a192f436f01d8ea28f39391813aeddd6fc501", "3044022055db8e981be5a4662d251d410faef4df4ce47f2c9760a7f1585c28abe1e61f1702204e8a29d4da0a39c9793455954f8924245389912f7a85d2884343044868263f4a01", "522102097067a6a0cc130a9a6f6577b47bf369b840a79de31cd7457187994266b1bb7c2103338f346cab6ba87fe940591a03ac234be06520c5ab386d4b6632e8eef0d0db7652ae"], "sequence": 4294967295, "scriptSig": {"hex": "220020f63dfc12340f6360d0251c22746d6b56093e3243e96ca012a65484a5d9cf0ec0", "asm": "0020f63dfc12340f6360d0251c22746d6b56093e3243e96ca012a65484a5d9cf0ec0"}, "vout": 1, "txid": "55ec62eef207c298fa5f60459d66fd1a4c655279a02d97341da214de24bd3e6e"}], "txid": "04802c0524b2c83042914d60be5673c284310ee6ac67ce7ad9848727fe97aa7c", "blocktime": 1537870928, "version": 1, "confirmations": 11514, "time": 1537870928, "locktime": 0, "vsize": 206, "size": 371}