{"hash": "0481bd9aa4287ea24ced18e76b18fc433c63ddc490cede0169e16efbf4463911", "blockhash": "00000000000000000024a2167bbff67b0be802c0b01cdd79e6331c2be6459f87", "vout": [{"scriptPubKey": {"reqSigs": 1, "hex": "76a914ab2a9d50d30937548f24999a134f7b21dbb99a2a88ac", "addresses": ["1Gc3biG5hsHAoj4ZNAtnT4sCBbtF9sKEEL"], "asm": "OP_DUP OP_HASH160 ab2a9d50d30937548f24999a134f7b21dbb99a2a OP_EQUALVERIFY OP_CHECKSIG", "type": "pubkeyhash"}, "value": 0.09998954, "n": 0}, {"scriptPubKey": {"type": "nulldata", "hex": "6a146f6d6e69000000000000001f000000070084243b", "asm": "OP_RETURN 6f6d6e69000000000000001f000000070084243b"}, "value": 0.0, "n": 1}], "hex": "0100000002005fce693ccd253c969f9a685ec9c4974b7d98ba3481be10e2e2bfc0363970eb000000006b483045022100b3a0b92dc2bb37b6427dd2cf05f61e7d0656e2c2c4a3bbb52d031c91cf690c6d022044d70d2ebb49120db6b3405864929b354421aa9fe129893cda1f1f53eb5c643e01210322f17ebd596e693b90973602674196735d8e8afda63e7e7117cb4c48ba658760ffffffff8129617e916491a9f111484b8663a0689024eb555cb9e7d02febb8b1dfd055d8050000006b483045022100f60584b654b3e01386f6eb5725fd1dfb9e1a0d71565e7168e3f80e4321629b6502206c0d7560a7720b6c343176aaf56ed10ae4c4343c02f9b6d8cf5352718c022b8401210390424deb98da6c45c0af5063423f08c91c8161cac684e32e1a05023933e974b9ffffffff026a929800000000001976a914ab2a9d50d30937548f24999a134f7b21dbb99a2a88ac0000000000000000166a146f6d6e69000000000000001f000000070084243b00000000", "vin": [{"sequence": 4294967295, "scriptSig": {"hex": "483045022100b3a0b92dc2bb37b6427dd2cf05f61e7d0656e2c2c4a3bbb52d031c91cf690c6d022044d70d2ebb49120db6b3405864929b354421aa9fe129893cda1f1f53eb5c643e01210322f17ebd596e693b90973602674196735d8e8afda63e7e7117cb4c48ba658760", "asm": "3045022100b3a0b92dc2bb37b6427dd2cf05f61e7d0656e2c2c4a3bbb52d031c91cf690c6d022044d70d2ebb49120db6b3405864929b354421aa9fe129893cda1f1f53eb5c643e[ALL] 0322f17ebd596e693b90973602674196735d8e8afda63e7e7117cb4c48ba658760"}, "vout": 0, "txid": "eb703936c0bfe2e210be8134ba987d4b97c4c95e689a9f963c25cd3c69ce5f00"}, {"sequence": 4294967295, "scriptSig": {"hex": "483045022100f60584b654b3e01386f6eb5725fd1dfb9e1a0d71565e7168e3f80e4321629b6502206c0d7560a7720b6c343176aaf56ed10ae4c4343c02f9b6d8cf5352718c022b8401210390424deb98da6c45c0af5063423f08c91c8161cac684e32e1a05023933e974b9", "asm": "3045022100f60584b654b3e01386f6eb5725fd1dfb9e1a0d71565e7168e3f80e4321629b6502206c0d7560a7720b6c343176aaf56ed10ae4c4343c02f9b6d8cf5352718c022b84[ALL] 0390424deb98da6c45c0af5063423f08c91c8161cac684e32e1a05023933e974b9"}, "vout": 5, "txid": "d855d0dfb1b8eb2fd0e7b95c55eb249068a063864b4811f1a99164917e612981"}], "txid": "0481bd9aa4287ea24ced18e76b18fc433c63ddc490cede0169e16efbf4463911", "blocktime": 1537870564, "version": 1, "confirmations": 11515, "time": 1537870564, "locktime": 0, "vsize": 371, "size": 371}