{"hash": "64bb1d91d71563f932ae6322e03bba462908bfebd765520b5f0257341f712495", "blockhash": "000000000000000000022b45ed06c6f4ccd3cf7fb5ba4856ebd2e58215665228", "vout": [{"scriptPubKey": {"reqSigs": 1, "hex": "a914135848cf51de97c109324b686578a9a2faeb1f1087", "addresses": ["33TJXJBkdNaMV8yq2ndG2VM1fCyXUqEEJG"], "asm": "OP_HASH160 135848cf51de97c109324b686578a9a2faeb1f10 OP_EQUAL", "type": "scripthash"}, "value": 1.3058723, "n": 0}, {"scriptPubKey": {"reqSigs": 1, "hex": "a91469f37525ee0b710c43d17a63d1586b4ce94e601187", "addresses": ["3BMEXR9s2kFHUKmjuGWHoAi9VZbwvJA6A2"], "asm": "OP_HASH160 69f37525ee0b710c43d17a63d1586b4ce94e6011 OP_EQUAL", "type": "scripthash"}, "value": 0.04039291, "n": 1}], "hex": "020000000001017577980a147b96d09465dda066965eccfe5f3cf0f305406d6acfef00813a71eb0100000017160014d419073dd2e474eb7af9483830487802bd7e165dfeffffff025e9ac8070000000017a914135848cf51de97c109324b686578a9a2faeb1f10877ba23d000000000017a91469f37525ee0b710c43d17a63d1586b4ce94e6011870247304402201c09c5a1af0e49aef1d84e411dc3882a042fc0bc4f0ac8877a7b55abcd60a96402206e4c23c97b0c33c47d4d218207959d6c866d7da9f3d11c8157dd142933d86ed1012103b16edefdd579e0603702fc82d82fb19334393ceeef18e111cd726eaa8c6978200b490800", "vin": [{"txinwitness": ["304402201c09c5a1af0e49aef1d84e411dc3882a042fc0bc4f0ac8877a7b55abcd60a96402206e4c23c97b0c33c47d4d218207959d6c866d7da9f3d11c8157dd142933d86ed101", "03b16edefdd579e0603702fc82d82fb19334393ceeef18e111cd726eaa8c697820"], "sequence": 4294967294, "scriptSig": {"hex": "160014d419073dd2e474eb7af9483830487802bd7e165d", "asm": "0014d419073dd2e474eb7af9483830487802bd7e165d"}, "vout": 1, "txid": "eb713a8100efcf6a6d4005f3f03c5ffecc5e9666a0dd6594d0967b140a987775"}], "txid": "048236bb1fb8248f4e3d31e9d9e86557d7ee257424513944524274a9be37a826", "blocktime": 1537869901, "version": 2, "confirmations": 11523, "time": 1537869901, "locktime": 542987, "vsize": 166, "size": 247}