{"hash": "eb37359ff444da2b9a0bf4d194bdd1d102c5ea4e2c172785e687e606336fef01", "blockhash": "0000000000000000000e13cef7c366c0283d82e591d1acd082e914b08063cdf1", "vout": [{"scriptPubKey": {"reqSigs": 1, "hex": "0014df5ae6fb2db7adc5f732eb31948dc62a8dc18ee4", "addresses": ["bc1qmadwd7edk7kutaejavcefrwx92xurrhyc8dan9"], "asm": "0 df5ae6fb2db7adc5f732eb31948dc62a8dc18ee4", "type": "witness_v0_keyhash"}, "value": 4.598e-05, "n": 0}, {"scriptPubKey": {"reqSigs": 1, "hex": "a914bc05a49e55a9c2352dbb8ddbe91b59bced14f80a87", "addresses": ["3JqBihAJ54pwPhCeKEP1XNTTwh7pR8Q9iy"], "asm": "OP_HASH160 bc05a49e55a9c2352dbb8ddbe91b59bced14f80a OP_EQUAL", "type": "scripthash"}, "value": 0.00321739, "n": 1}], "hex": "01000000000101fdd0e13bfa143214159609c1588ae4241ac45861eaf5bbc66ecc8b23a6e95dfc0100000000ffffffff02f611000000000000160014df5ae6fb2db7adc5f732eb31948dc62a8dc18ee4cbe804000000000017a914bc05a49e55a9c2352dbb8ddbe91b59bced14f80a870247304402202cb425e182697ab2c9c836c7780715f80b02e3a027effa87b86ee674d9b56ff20220106e1e44990ac7978cce30cdb175aaa8ad57d2f105742f4f50f447cf2b7fd6af012102405e79015a82e8631e883e445485eb52fb0fe5c0a64219e7a7e2dd0515d55f0600000000", "vin": [{"txinwitness": ["304402202cb425e182697ab2c9c836c7780715f80b02e3a027effa87b86ee674d9b56ff20220106e1e44990ac7978cce30cdb175aaa8ad57d2f105742f4f50f447cf2b7fd6af01", "02405e79015a82e8631e883e445485eb52fb0fe5c0a64219e7a7e2dd0515d55f06"], "sequence": 4294967295, "scriptSig": {"hex": "", "asm": ""}, "vout": 1, "txid": "fc5de9a6238bcc6ec6bbf5ea6158c41a24e48a58c1099615143214fa3be1d0fd"}], "txid": "048869940df26208593127755c45846f03301848e7f7e39952959dab1c78775b", "blocktime": 1537871767, "version": 1, "confirmations": 11495, "time": 1537871767, "locktime": 0, "vsize": 142, "size": 223}