{"hash": "04943490417d4a247eb805efa33f257bcdd32a5685b9dd07bb54dcad3f3f751a", "blockhash": "00000000000000000018f53835495a110e01622372bf6ae95dc86f2b0ab887b0", "vout": [{"scriptPubKey": {"reqSigs": 1, "hex": "76a914d14d7ab652eff2336fab2f75731b63fff48554e388ac", "addresses": ["1L5h3TCqGk5PMSVaR2yU9QnUyfvudjhYct"], "asm": "OP_DUP OP_HASH160 d14d7ab652eff2336fab2f75731b63fff48554e3 OP_EQUALVERIFY OP_CHECKSIG", "type": "pubkeyhash"}, "value": 0.08405402, "n": 0}], "hex": "01000000010eb36140d03f4089b991e85a2b3e262eac36efa988e3b046e15f00d7ac480094010000006b48304502210082b8cb1b30d221831ca6a21e8976ad9e1ad8fa9c7dc547af6409f955e5ad1e0b02203c813332d8a64a98045d98d8c6eab3182cab2b8f82ef669805828e4d987881e201210216bb5cb47daadf671ef2e28995b4a74d283938be1b931bf11e9df7f158e9a6f2ffffffff019a418000000000001976a914d14d7ab652eff2336fab2f75731b63fff48554e388ac00000000", "vin": [{"sequence": 4294967295, "scriptSig": {"hex": "48304502210082b8cb1b30d221831ca6a21e8976ad9e1ad8fa9c7dc547af6409f955e5ad1e0b02203c813332d8a64a98045d98d8c6eab3182cab2b8f82ef669805828e4d987881e201210216bb5cb47daadf671ef2e28995b4a74d283938be1b931bf11e9df7f158e9a6f2", "asm": "304502210082b8cb1b30d221831ca6a21e8976ad9e1ad8fa9c7dc547af6409f955e5ad1e0b02203c813332d8a64a98045d98d8c6eab3182cab2b8f82ef669805828e4d987881e2[ALL] 0216bb5cb47daadf671ef2e28995b4a74d283938be1b931bf11e9df7f158e9a6f2"}, "vout": 1, "txid": "940048acd7005fe146b0e388a9ef36ac2e263e2b5ae891b989403fd04061b30e"}], "txid": "04943490417d4a247eb805efa33f257bcdd32a5685b9dd07bb54dcad3f3f751a", "blocktime": 1537870928, "version": 1, "confirmations": 11512, "time": 1537870928, "locktime": 0, "vsize": 192, "size": 192}