{"hash": "37ec1fa88e85aa44adfd5f5769633d1cb2d1161f0c3fd94593aa4c0683307e6a", "blockhash": "0000000000000000000e13cef7c366c0283d82e591d1acd082e914b08063cdf1", "vout": [{"scriptPubKey": {"type": "nulldata", "hex": "6a146f6d6e69000000000000001f00000074935db6a9", "asm": "OP_RETURN 6f6d6e69000000000000001f00000074935db6a9"}, "value": 0.0, "n": 0}, {"scriptPubKey": {"reqSigs": 1, "hex": "a914e818e90b8e6b38dba66f74b35cb708bbc73e2ea787", "addresses": ["3NrEXrB9qAxXYfRt6jKtBD8QzoU2qtNWDR"], "asm": "OP_HASH160 e818e90b8e6b38dba66f74b35cb708bbc73e2ea7 OP_EQUAL", "type": "scripthash"}, "value": 2.73e-05, "n": 1}, {"scriptPubKey": {"reqSigs": 1, "hex": "a914e818e90b8e6b38dba66f74b35cb708bbc73e2ea787", "addresses": ["3NrEXrB9qAxXYfRt6jKtBD8QzoU2qtNWDR"], "asm": "OP_HASH160 e818e90b8e6b38dba66f74b35cb708bbc73e2ea7 OP_EQUAL", "type": "scripthash"}, "value": 0.00621815, "n": 2}], "hex": "01000000000102be964018fe94717508fc127051e2e8e3bfa3196322afbce4484c66fc41c85e3a0200000017160014278646b92155ac3813480c95eb1be610bf814ad0ffffffff5560089ebcbaedfbd2df8de2bb8ba6b1d2fc25bad91cc97e8d453e538149e1c80e00000017160014203aa42f3edfdaf9ed4dee7910167d5c380cf192ffffffff030000000000000000166a146f6d6e69000000000000001f00000074935db6a9aa0a00000000000017a914e818e90b8e6b38dba66f74b35cb708bbc73e2ea787f77c09000000000017a914e818e90b8e6b38dba66f74b35cb708bbc73e2ea7870247304402205bb2be9d57f5d560b8c7aaf6d3d7f0ada42840ebd2b4d9c24e8fe41802a91f88022021e4065bb03f0ca7f77ded2610d75473dea54dfa835560b97b176b0a116ac4da012103eb52423f0b88820823de1d129ae44876133cac75e9cad9519650fd31bdd4b9b802473044022060b7af2c33684c8b70e4ba03396881efd1f0611c5cb0c21695cf5c9f09a990a2022025db34d7907b3ca2975f3c7951d7242b71d9d403684a19d81d17e166a6e9ed4f012102a4702066510e865c8496dbf7bb7f52023cc559dab2cfdf940e3b3dd9c03adc1c00000000", "vin": [{"txinwitness": ["304402205bb2be9d57f5d560b8c7aaf6d3d7f0ada42840ebd2b4d9c24e8fe41802a91f88022021e4065bb03f0ca7f77ded2610d75473dea54dfa835560b97b176b0a116ac4da01", "03eb52423f0b88820823de1d129ae44876133cac75e9cad9519650fd31bdd4b9b8"], "sequence": 4294967295, "scriptSig": {"hex": "160014278646b92155ac3813480c95eb1be610bf814ad0", "asm": "0014278646b92155ac3813480c95eb1be610bf814ad0"}, "vout": 2, "txid": "3a5ec841fc664c48e4bcaf226319a3bfe3e8e2517012fc08757194fe184096be"}, {"txinwitness": ["3044022060b7af2c33684c8b70e4ba03396881efd1f0611c5cb0c21695cf5c9f09a990a2022025db34d7907b3ca2975f3c7951d7242b71d9d403684a19d81d17e166a6e9ed4f01", "02a4702066510e865c8496dbf7bb7f52023cc559dab2cfdf940e3b3dd9c03adc1c"], "sequence": 4294967295, "scriptSig": {"hex": "160014203aa42f3edfdaf9ed4dee7910167d5c380cf192", "asm": "0014203aa42f3edfdaf9ed4dee7910167d5c380cf192"}, "vout": 14, "txid": "c8e14981533e458d7ec91cd9ba25fcd2b1a68bbbe28ddfd2fbedbabc9e086055"}], "txid": "049d462fe6318f0c3440ad49b961ec75fe2cfc92447a5538232a7471c2c9174e", "blocktime": 1537871767, "version": 1, "confirmations": 11493, "time": 1537871767, "locktime": 0, "vsize": 287, "size": 449}