{"hash": "049fdf83ff840fbb0867376df71b69eb7e7445fbde127339412afa863a51b3b5", "blockhash": "0000000000000000001f76057863aec43deb6fa401d9628bb513d65a8098bfab", "vout": [{"scriptPubKey": {"reqSigs": 1, "hex": "76a9140735a7887e22b7e208bc598d21e1010ba5a7ad2788ac", "addresses": ["1f81KRosWveQGpJPUfSVf2FV3PhbCT5aB"], "asm": "OP_DUP OP_HASH160 0735a7887e22b7e208bc598d21e1010ba5a7ad27 OP_EQUALVERIFY OP_CHECKSIG", "type": "pubkeyhash"}, "value": 8.298e-05, "n": 0}, {"scriptPubKey": {"reqSigs": 1, "hex": "a914747e7c4dba845904ef9e3c07eb6ebd0161a6e30d87", "addresses": ["3CJyqAdpYdP9EUv1UG4NFdmB4PWKEpD2JH"], "asm": "OP_HASH160 747e7c4dba845904ef9e3c07eb6ebd0161a6e30d OP_EQUAL", "type": "scripthash"}, "value": 10.8023, "n": 1}], "hex": "0100000002bad72bcdf7a705018913d725e44b27a42e7894d085b3b9620de9d9103705c41d010000006b483045022100ebc39c49d9060f357ffb0879ed46804f5b2563cdd6f47ab53d47ff861687921302202c14f5fd31d6e6b2e1b5513082406107b706df6abeb936cc35672f05c123fc8401210276fb08c5c88b41dfdfc6ef03b376b3f4de74d2e4b16c6fb09b8c9f26e39d5831ffffffff514d9a91f9e77d93bc8ac885301e11359364b9ca6b244310435a0f28b89afc9a010000006b483045022100ebcb20497168369312df241ce2fbfadfb782d19e2bafd24577c6c7ed11e3dfe102200c022e092c6c13cdf801332cab7f99c015f13c6e3d05d7d0b7f1d739a175951f012103f776ead5b466732c2116ab6d0026d78439173c902b2285537af8f6892cb3f770ffffffff026a200000000000001976a9140735a7887e22b7e208bc598d21e1010ba5a7ad2788ac700063400000000017a914747e7c4dba845904ef9e3c07eb6ebd0161a6e30d8700000000", "vin": [{"sequence": 4294967295, "scriptSig": {"hex": "483045022100ebc39c49d9060f357ffb0879ed46804f5b2563cdd6f47ab53d47ff861687921302202c14f5fd31d6e6b2e1b5513082406107b706df6abeb936cc35672f05c123fc8401210276fb08c5c88b41dfdfc6ef03b376b3f4de74d2e4b16c6fb09b8c9f26e39d5831", "asm": "3045022100ebc39c49d9060f357ffb0879ed46804f5b2563cdd6f47ab53d47ff861687921302202c14f5fd31d6e6b2e1b5513082406107b706df6abeb936cc35672f05c123fc84[ALL] 0276fb08c5c88b41dfdfc6ef03b376b3f4de74d2e4b16c6fb09b8c9f26e39d5831"}, "vout": 1, "txid": "1dc4053710d9e90d62b9b385d094782ea4274be425d713890105a7f7cd2bd7ba"}, {"sequence": 4294967295, "scriptSig": {"hex": "483045022100ebcb20497168369312df241ce2fbfadfb782d19e2bafd24577c6c7ed11e3dfe102200c022e092c6c13cdf801332cab7f99c015f13c6e3d05d7d0b7f1d739a175951f012103f776ead5b466732c2116ab6d0026d78439173c902b2285537af8f6892cb3f770", "asm": "3045022100ebcb20497168369312df241ce2fbfadfb782d19e2bafd24577c6c7ed11e3dfe102200c022e092c6c13cdf801332cab7f99c015f13c6e3d05d7d0b7f1d739a175951f[ALL] 03f776ead5b466732c2116ab6d0026d78439173c902b2285537af8f6892cb3f770"}, "vout": 1, "txid": "9afc9ab8280f5a431043246bcab9649335111e3085c88abc937de7f9919a4d51"}], "txid": "049fdf83ff840fbb0867376df71b69eb7e7445fbde127339412afa863a51b3b5", "blocktime": 1537873891, "version": 1, "confirmations": 11478, "time": 1537873891, "locktime": 0, "vsize": 372, "size": 372}