{"hash": "2d473643dc9c3878ce1bb68a33b9d1f980a13213a8d7661a18bdbda6afc02dc4", "blockhash": "0000000000000000001f76057863aec43deb6fa401d9628bb513d65a8098bfab", "vout": [{"scriptPubKey": {"reqSigs": 1, "hex": "00149a89c5bd4f4d8ff0a062637202660a40c15856d6", "addresses": ["bc1qn2yut020fk8lpgrzvdeqyes2grq4s4kkp3ulr5"], "asm": "0 9a89c5bd4f4d8ff0a062637202660a40c15856d6", "type": "witness_v0_keyhash"}, "value": 0.04070455, "n": 0}, {"scriptPubKey": {"reqSigs": 1, "hex": "76a91481fb2192a87db6adb1ee1a2f14bed637705e6a3488ac", "addresses": ["1CrH1eM8QC8w78WWjajY1SVEKNMsWdU5zU"], "asm": "OP_DUP OP_HASH160 81fb2192a87db6adb1ee1a2f14bed637705e6a34 OP_EQUALVERIFY OP_CHECKSIG", "type": "pubkeyhash"}, "value": 0.01977843, "n": 1}], "hex": "010000000001019a73f4bb3d1fdc9861aeb574d7849aa9af55c9f5761899495425005b80cd48670100000000ffffffff02371c3e00000000001600149a89c5bd4f4d8ff0a062637202660a40c15856d6f32d1e00000000001976a91481fb2192a87db6adb1ee1a2f14bed637705e6a3488ac024730440220216aa88e55ff668ab40cefa70d38f9d1e4bfe82e5aeea6b90d99ac72a6a3a43402200579ec87c0054274413d2643fdb3045ad45130e3bdd41b77904f13f1d38c3ab5012103291e0aec174cae31cfa93c567fef2b3c83b0f5cd8b61ca826fc59b76449d873800000000", "vin": [{"txinwitness": ["30440220216aa88e55ff668ab40cefa70d38f9d1e4bfe82e5aeea6b90d99ac72a6a3a43402200579ec87c0054274413d2643fdb3045ad45130e3bdd41b77904f13f1d38c3ab501", "03291e0aec174cae31cfa93c567fef2b3c83b0f5cd8b61ca826fc59b76449d8738"], "sequence": 4294967295, "scriptSig": {"hex": "", "asm": ""}, "vout": 1, "txid": "6748cd805b00255449991876f5c955afa99a84d774b5ae6198dc1f3dbbf4739a"}], "txid": "04a550b76982b5102d0407555c485bc53e95b3e4433503680d94148916fcfaf0", "blocktime": 1537873891, "version": 1, "confirmations": 11478, "time": 1537873891, "locktime": 0, "vsize": 144, "size": 225}