{"hash": "04ac0d2c4864a4d0bf988f1c3f458283abc6eec3727c0ee19d8a474c4cd56f60", "blockhash": "0000000000000000001cda96e906b7601b7a6fb1a3b62bca570a9e5d8f4b3de1", "vout": [{"scriptPubKey": {"reqSigs": 1, "hex": "76a9143970e2d976e15a943bdac5e19698161b0a7be47c88ac", "addresses": ["16EikQDHSE6jkFekJr6THqaFD8QjAtACzs"], "asm": "OP_DUP OP_HASH160 3970e2d976e15a943bdac5e19698161b0a7be47c OP_EQUALVERIFY OP_CHECKSIG", "type": "pubkeyhash"}, "value": 0.00110184, "n": 0}, {"scriptPubKey": {"type": "nulldata", "hex": "6a4c50000077d100018db13301a1b9b350ec67fd425b23cc0f42c2fc38c5e5bf9ae76da98a211a3cc616770e89ddbb7fc9a7f4c6f763565baa14480613be1a3ec7129ebc9a9526289ac0f6612cd74e33776ee4", "asm": "OP_RETURN 000077d100018db13301a1b9b350ec67fd425b23cc0f42c2fc38c5e5bf9ae76da98a211a3cc616770e89ddbb7fc9a7f4c6f763565baa14480613be1a3ec7129ebc9a9526289ac0f6612cd74e33776ee4"}, "value": 0.0, "n": 1}], "hex": "0100000001fd4d80a8702b9d866c406329773961f744a3427a9d76cf1711f2e0175c7daeeb000000006b483045022100c4a3fd643b0e3928887c080c47e1d71833a5e03e9f4dc46efd2095798e2c402c0220692b54b5e9045ddd0a3f574d23f58fe1db51f6023b703a1382ca700f4ff8b2e00121024ca9adf2661b233dcf7f90a77473171e3b013c1b506efb2819d79c8f350ed5d0ffffffff0268ae0100000000001976a9143970e2d976e15a943bdac5e19698161b0a7be47c88ac0000000000000000536a4c50000077d100018db13301a1b9b350ec67fd425b23cc0f42c2fc38c5e5bf9ae76da98a211a3cc616770e89ddbb7fc9a7f4c6f763565baa14480613be1a3ec7129ebc9a9526289ac0f6612cd74e33776ee400000000", "vin": [{"sequence": 4294967295, "scriptSig": {"hex": "483045022100c4a3fd643b0e3928887c080c47e1d71833a5e03e9f4dc46efd2095798e2c402c0220692b54b5e9045ddd0a3f574d23f58fe1db51f6023b703a1382ca700f4ff8b2e00121024ca9adf2661b233dcf7f90a77473171e3b013c1b506efb2819d79c8f350ed5d0", "asm": "3045022100c4a3fd643b0e3928887c080c47e1d71833a5e03e9f4dc46efd2095798e2c402c0220692b54b5e9045ddd0a3f574d23f58fe1db51f6023b703a1382ca700f4ff8b2e0[ALL] 024ca9adf2661b233dcf7f90a77473171e3b013c1b506efb2819d79c8f350ed5d0"}, "vout": 0, "txid": "ebae7d5c17e0f21117cf769d7a42a344f76139772963406c869d2b70a8804dfd"}], "txid": "04ac0d2c4864a4d0bf988f1c3f458283abc6eec3727c0ee19d8a474c4cd56f60", "blocktime": 1537873282, "version": 1, "confirmations": 11484, "time": 1537873282, "locktime": 0, "vsize": 284, "size": 284}