{"hash": "04ad72317454c761bd2cd17844d1601e2456567b3c1d88116cd6a16e03515784", "blockhash": "00000000000000000024a2167bbff67b0be802c0b01cdd79e6331c2be6459f87", "vout": [{"scriptPubKey": {"reqSigs": 1, "hex": "a914bb45bfc197a3c0a5770eaced5780a14d8f4f633b87", "addresses": ["3JmDqfWmnoVL7tFQxg3VZS81xMXSBRK3xy"], "asm": "OP_HASH160 bb45bfc197a3c0a5770eaced5780a14d8f4f633b OP_EQUAL", "type": "scripthash"}, "value": 0.00090327, "n": 0}, {"scriptPubKey": {"reqSigs": 1, "hex": "a91466a403f3b343d9d5c9b62df3efe99c83b1f0beac87", "addresses": ["3B3jL6vAQTayj8t8FcDbrQpk2KPpA6rqzC"], "asm": "OP_HASH160 66a403f3b343d9d5c9b62df3efe99c83b1f0beac OP_EQUAL", "type": "scripthash"}, "value": 0.0005, "n": 1}], "hex": "0100000001d736b7c33dea13099c6f6a3f4e53cdfedc1eaecd4891c64d1e140c7a7a86231800000000fdfe0000483045022100ad0a5e489b449a348d697941f95e9c04c611909d30b455e77852e548c895604802200ceeb857fe16c62ee1f06daebb4a0daefcf0eed0e82f2fc03455f4f41c4777f201483045022100dd7771bf05bc3b9b85e92b89c4f485ba38b0f360978d6486e1bf510c669873c202202709190c9d49a4006e1cf09c2b84469c309825a26cb05a9881540b45325a73c7014c69522102c3132cb7b14e5343e8274842926fa48f90a03a861c741357ca0685a32186c9f021031de90baa8cc26c677a3da6586d832b7ca8d8fc3af50b67b2d94cfdb2e23f21f02102e80091aed6dce73ac58ce4ceef0b4bb9600f6b3c078e6dd2dc819a4166bde79b53aeffffffff02d76001000000000017a914bb45bfc197a3c0a5770eaced5780a14d8f4f633b8750c300000000000017a91466a403f3b343d9d5c9b62df3efe99c83b1f0beac8700000000", "vin": [{"sequence": 4294967295, "scriptSig": {"hex": "00483045022100ad0a5e489b449a348d697941f95e9c04c611909d30b455e77852e548c895604802200ceeb857fe16c62ee1f06daebb4a0daefcf0eed0e82f2fc03455f4f41c4777f201483045022100dd7771bf05bc3b9b85e92b89c4f485ba38b0f360978d6486e1bf510c669873c202202709190c9d49a4006e1cf09c2b84469c309825a26cb05a9881540b45325a73c7014c69522102c3132cb7b14e5343e8274842926fa48f90a03a861c741357ca0685a32186c9f021031de90baa8cc26c677a3da6586d832b7ca8d8fc3af50b67b2d94cfdb2e23f21f02102e80091aed6dce73ac58ce4ceef0b4bb9600f6b3c078e6dd2dc819a4166bde79b53ae", "asm": "0 3045022100ad0a5e489b449a348d697941f95e9c04c611909d30b455e77852e548c895604802200ceeb857fe16c62ee1f06daebb4a0daefcf0eed0e82f2fc03455f4f41c4777f2[ALL] 3045022100dd7771bf05bc3b9b85e92b89c4f485ba38b0f360978d6486e1bf510c669873c202202709190c9d49a4006e1cf09c2b84469c309825a26cb05a9881540b45325a73c7[ALL] 522102c3132cb7b14e5343e8274842926fa48f90a03a861c741357ca0685a32186c9f021031de90baa8cc26c677a3da6586d832b7ca8d8fc3af50b67b2d94cfdb2e23f21f02102e80091aed6dce73ac58ce4ceef0b4bb9600f6b3c078e6dd2dc819a4166bde79b53ae"}, "vout": 0, "txid": "1823867a7a0c141e4dc69148cdae1edcfecd534e3f6a6f9c0913ea3dc3b736d7"}], "txid": "04ad72317454c761bd2cd17844d1601e2456567b3c1d88116cd6a16e03515784", "blocktime": 1537870564, "version": 1, "confirmations": 11515, "time": 1537870564, "locktime": 0, "vsize": 371, "size": 371}