{"hash": "586f984e7fa7f696884aedfef971e40f6c54e1b174bbe1d6a95ee92059376991", "blockhash": "00000000000000000018f53835495a110e01622372bf6ae95dc86f2b0ab887b0", "vout": [{"scriptPubKey": {"reqSigs": 1, "hex": "a914ee5ec25cafa200cfaa37438ad1ae136850bce0ec87", "addresses": ["3PRQGBjc3KKoT7HmC6gpqUJg759t5ufSEP"], "asm": "OP_HASH160 ee5ec25cafa200cfaa37438ad1ae136850bce0ec OP_EQUAL", "type": "scripthash"}, "value": 0.00150006, "n": 0}, {"scriptPubKey": {"type": "nulldata", "hex": "6a146f6d6e69000000000000001f0000003a70c40e00", "asm": "OP_RETURN 6f6d6e69000000000000001f0000003a70c40e00"}, "value": 0.0, "n": 1}, {"scriptPubKey": {"reqSigs": 1, "hex": "a914040a47b923a4e28338b37154abce06f84919be1987", "addresses": ["324NwbA5aWNVBBgEkme19eVHLEzm4mxmi2"], "asm": "OP_HASH160 040a47b923a4e28338b37154abce06f84919be19 OP_EQUAL", "type": "scripthash"}, "value": 5.4e-06, "n": 2}], "hex": "010000000001024680d9db1c0da1bbe5c4583f9675d6a1b2bec513a7fc2f44033960828476a6f00100000017160014e40df177bb0aeaeefbe766d403a3a4f017fd5ca4ffffffff8e54820e05e151cbcb9789507cd5d1e1e6f3e674e62c563a1dbd1800431c33d80000000017160014f086ec36dd6c9e442286454b4f646c1b2c6691bcffffffff03f64902000000000017a914ee5ec25cafa200cfaa37438ad1ae136850bce0ec870000000000000000166a146f6d6e69000000000000001f0000003a70c40e001c0200000000000017a914040a47b923a4e28338b37154abce06f84919be198702473044022010bced27fcdf4614c77d242b17c43ad6753a87eb3d09e247cfbfc6b9b40f97a7022035a3b3514d93d30ff5653effd4c05aa2d9b2acad833fa866ad49cffb9a1ac9c9012103526a8595b91d80eb3c768196d08638731da9c28e44d66f826e364f69746fe52d02483045022100e1b81dae4cf6e7012145813d1a3c9050339e9b8f4082bc10f895ebde585b0a4502204eb1198b53f870051f4e66b748bc3c56660daf00f667949f257447f71fc2e8c4012103d456390e7385f1019a65e90e64b9cc93298ccdeccb56aa327722ebb08924df1c00000000", "vin": [{"txinwitness": ["3044022010bced27fcdf4614c77d242b17c43ad6753a87eb3d09e247cfbfc6b9b40f97a7022035a3b3514d93d30ff5653effd4c05aa2d9b2acad833fa866ad49cffb9a1ac9c901", "03526a8595b91d80eb3c768196d08638731da9c28e44d66f826e364f69746fe52d"], "sequence": 4294967295, "scriptSig": {"hex": "160014e40df177bb0aeaeefbe766d403a3a4f017fd5ca4", "asm": "0014e40df177bb0aeaeefbe766d403a3a4f017fd5ca4"}, "vout": 1, "txid": "f0a6768482603903442ffca713c5beb2a1d675963f58c4e5bba10d1cdbd98046"}, {"txinwitness": ["3045022100e1b81dae4cf6e7012145813d1a3c9050339e9b8f4082bc10f895ebde585b0a4502204eb1198b53f870051f4e66b748bc3c56660daf00f667949f257447f71fc2e8c401", "03d456390e7385f1019a65e90e64b9cc93298ccdeccb56aa327722ebb08924df1c"], "sequence": 4294967295, "scriptSig": {"hex": "160014f086ec36dd6c9e442286454b4f646c1b2c6691bc", "asm": "0014f086ec36dd6c9e442286454b4f646c1b2c6691bc"}, "vout": 0, "txid": "d8331c430018bd1d3a562ce674e6f3e6e1d1d57c508997cbcb51e1050e82548e"}], "txid": "04ae483ca594b40b7c5f99ca2a5286ddb0dd6dbbd6c512b02157e8a0bb146f98", "blocktime": 1537870928, "version": 1, "confirmations": 11512, "time": 1537870928, "locktime": 0, "vsize": 288, "size": 450}