{"hash": "04af13ff10031eedefd33b8d2a10a7cca10b6f2b72ad6c61976fb9425803df5c", "blockhash": "00000000000000000018f53835495a110e01622372bf6ae95dc86f2b0ab887b0", "vout": [{"scriptPubKey": {"reqSigs": 1, "hex": "a91482dd3a4ab7d83c5bf906c8c4eab4d71817be329087", "addresses": ["3DcxnemSwKdXywHFiCqBiVi5wm3gznYt3q"], "asm": "OP_HASH160 82dd3a4ab7d83c5bf906c8c4eab4d71817be3290 OP_EQUAL", "type": "scripthash"}, "value": 0.00781553, "n": 0}, {"scriptPubKey": {"reqSigs": 1, "hex": "76a9149ea69aa5ab16d0bb071df34f0bd9ac77025002ea88ac", "addresses": ["1FTsMAXrnSFwL3K7AWc1kT8uVSDt7ETkXQ"], "asm": "OP_DUP OP_HASH160 9ea69aa5ab16d0bb071df34f0bd9ac77025002ea OP_EQUALVERIFY OP_CHECKSIG", "type": "pubkeyhash"}, "value": 0.00051146, "n": 1}], "hex": "010000000117764d8b83850bd87398f701d1694e9d6b31f6649182c0a81f865ced9e4aaf9a010000006b483045022100d9b15749ba71a6f970ae72d02a9439dcad7c25bd691bd6238bd6234313c0cc66022078f3d610e7185d71ea59a6ca89e53e667ea59625626a616304a458e9d099307d0121027412bba0f6551b8faea459416d3d67dcc33f4677ba49fbed7990e3e2045df3b2ffffffff02f1ec0b000000000017a91482dd3a4ab7d83c5bf906c8c4eab4d71817be329087cac70000000000001976a9149ea69aa5ab16d0bb071df34f0bd9ac77025002ea88ac00000000", "vin": [{"sequence": 4294967295, "scriptSig": {"hex": "483045022100d9b15749ba71a6f970ae72d02a9439dcad7c25bd691bd6238bd6234313c0cc66022078f3d610e7185d71ea59a6ca89e53e667ea59625626a616304a458e9d099307d0121027412bba0f6551b8faea459416d3d67dcc33f4677ba49fbed7990e3e2045df3b2", "asm": "3045022100d9b15749ba71a6f970ae72d02a9439dcad7c25bd691bd6238bd6234313c0cc66022078f3d610e7185d71ea59a6ca89e53e667ea59625626a616304a458e9d099307d[ALL] 027412bba0f6551b8faea459416d3d67dcc33f4677ba49fbed7990e3e2045df3b2"}, "vout": 1, "txid": "9aaf4a9eed5c861fa8c0829164f6316b9d4e69d101f79873d80b85838b4d7617"}], "txid": "04af13ff10031eedefd33b8d2a10a7cca10b6f2b72ad6c61976fb9425803df5c", "blocktime": 1537870928, "version": 1, "confirmations": 11512, "time": 1537870928, "locktime": 0, "vsize": 224, "size": 224}