{"hash": "04b47845d433aba82b5ba2e9f03e8a4e93c01f645602db7c86c7a157706fc624", "blockhash": "000000000000000000022b45ed06c6f4ccd3cf7fb5ba4856ebd2e58215665228", "vout": [{"scriptPubKey": {"type": "nulldata", "hex": "6a4c500000775f0001f76f0f71b697c2d4765c059d3a016b46dc7dc7d0968d120d670c1906f999d5071489fc5a0da764ec84b34e3d7cba5baa077e06125119424c35b74bbf23acfcfaac8058b692fe6808c31d", "asm": "OP_RETURN 0000775f0001f76f0f71b697c2d4765c059d3a016b46dc7dc7d0968d120d670c1906f999d5071489fc5a0da764ec84b34e3d7cba5baa077e06125119424c35b74bbf23acfcfaac8058b692fe6808c31d"}, "value": 0.0, "n": 0}, {"scriptPubKey": {"reqSigs": 1, "hex": "76a9140f87a9c1002d58052fec972ad5e0a068cd0bb3fc88ac", "addresses": ["12R7ev4z8Jk5jDy5fMQQfEyPWo9mGbWPPY"], "asm": "OP_DUP OP_HASH160 0f87a9c1002d58052fec972ad5e0a068cd0bb3fc OP_EQUALVERIFY OP_CHECKSIG", "type": "pubkeyhash"}, "value": 0.00039169, "n": 1}], "hex": "01000000015219ad73d505b04c243959b596932f75cda2310fc274e3b89511452aad54d2f2010000006a473044022038a8df9460491b8ced762073656aab5acd646cf4c8f453c76535ac702872e82102204b596118fbe3f221d971e4ec3cd4d49629ee99c09cfe96145a6bcf2be48baf4d012102a346f0cc394d490a3e891e2d3855f697fee72f1da2d7cd9d2fd100fa93dd8cf2ffffffff020000000000000000536a4c500000775f0001f76f0f71b697c2d4765c059d3a016b46dc7dc7d0968d120d670c1906f999d5071489fc5a0da764ec84b34e3d7cba5baa077e06125119424c35b74bbf23acfcfaac8058b692fe6808c31d01990000000000001976a9140f87a9c1002d58052fec972ad5e0a068cd0bb3fc88ac00000000", "vin": [{"sequence": 4294967295, "scriptSig": {"hex": "473044022038a8df9460491b8ced762073656aab5acd646cf4c8f453c76535ac702872e82102204b596118fbe3f221d971e4ec3cd4d49629ee99c09cfe96145a6bcf2be48baf4d012102a346f0cc394d490a3e891e2d3855f697fee72f1da2d7cd9d2fd100fa93dd8cf2", "asm": "3044022038a8df9460491b8ced762073656aab5acd646cf4c8f453c76535ac702872e82102204b596118fbe3f221d971e4ec3cd4d49629ee99c09cfe96145a6bcf2be48baf4d[ALL] 02a346f0cc394d490a3e891e2d3855f697fee72f1da2d7cd9d2fd100fa93dd8cf2"}, "vout": 1, "txid": "f2d254ad2a451195b8e374c20f31a2cd752f9396b55939244cb005d573ad1952"}], "txid": "04b47845d433aba82b5ba2e9f03e8a4e93c01f645602db7c86c7a157706fc624", "blocktime": 1537869901, "version": 1, "confirmations": 11523, "time": 1537869901, "locktime": 0, "vsize": 283, "size": 283}