{"hash": "04b79e09a08ddbfac12d22da442e33c25f74b7eb57227162bc52613c3a7da063", "blockhash": "00000000000000000024a2167bbff67b0be802c0b01cdd79e6331c2be6459f87", "vout": [{"scriptPubKey": {"type": "nulldata", "hex": "6a4c5000007779000168c60a409527ff4eefdfe53abcbefa6b8351586b4e86aeaeacb577c031fc29b2ee9d14c712a098690e71b2adcc1b5baa09b606148ee5a79975f81d100759d4ba30d2c37bb011d97e02cf", "asm": "OP_RETURN 00007779000168c60a409527ff4eefdfe53abcbefa6b8351586b4e86aeaeacb577c031fc29b2ee9d14c712a098690e71b2adcc1b5baa09b606148ee5a79975f81d100759d4ba30d2c37bb011d97e02cf"}, "value": 0.0, "n": 0}, {"scriptPubKey": {"reqSigs": 1, "hex": "76a914dd4a965b63b0d2b2368c1157feb950708f7213d288ac", "addresses": ["1MB5gpAckR5NyHzWcNYA1DmqDWTEmbmnza"], "asm": "OP_DUP OP_HASH160 dd4a965b63b0d2b2368c1157feb950708f7213d2 OP_EQUALVERIFY OP_CHECKSIG", "type": "pubkeyhash"}, "value": 0.00647106, "n": 1}], "hex": "0100000001ade4d6137cfca8e7b5ed520c9a247e3f32a61c9050fb5e320a51ff2573d5b45d010000006a47304402205a9192ffb6904cf716ed4727b79fc8fba4e96993fee6420459d9de3ebd3df56602206aa62e55cc4f1f166b00e0e736a47e964ddfd5d4a56dd8aacf035fd5c501b9a001210236be2fafd5a956986fc22accfe8a3e07a5b220137a8d9cc5ef510310c92d7c29ffffffff020000000000000000536a4c5000007779000168c60a409527ff4eefdfe53abcbefa6b8351586b4e86aeaeacb577c031fc29b2ee9d14c712a098690e71b2adcc1b5baa09b606148ee5a79975f81d100759d4ba30d2c37bb011d97e02cfc2df0900000000001976a914dd4a965b63b0d2b2368c1157feb950708f7213d288ac00000000", "vin": [{"sequence": 4294967295, "scriptSig": {"hex": "47304402205a9192ffb6904cf716ed4727b79fc8fba4e96993fee6420459d9de3ebd3df56602206aa62e55cc4f1f166b00e0e736a47e964ddfd5d4a56dd8aacf035fd5c501b9a001210236be2fafd5a956986fc22accfe8a3e07a5b220137a8d9cc5ef510310c92d7c29", "asm": "304402205a9192ffb6904cf716ed4727b79fc8fba4e96993fee6420459d9de3ebd3df56602206aa62e55cc4f1f166b00e0e736a47e964ddfd5d4a56dd8aacf035fd5c501b9a0[ALL] 0236be2fafd5a956986fc22accfe8a3e07a5b220137a8d9cc5ef510310c92d7c29"}, "vout": 1, "txid": "5db4d57325ff510a325efb50901ca6323f7e249a0c52edb5e7a8fc7c13d6e4ad"}], "txid": "04b79e09a08ddbfac12d22da442e33c25f74b7eb57227162bc52613c3a7da063", "blocktime": 1537870564, "version": 1, "confirmations": 11515, "time": 1537870564, "locktime": 0, "vsize": 283, "size": 283}