{"hash": "04babf516418a94e3b8b8b947a2e34a76d92e41086ffa48cbfd723dc24e70fea", "blockhash": "000000000000000000022b45ed06c6f4ccd3cf7fb5ba4856ebd2e58215665228", "vout": [{"scriptPubKey": {"reqSigs": 1, "hex": "76a914cd1c7230d4874780444e0c0aeada03079c8b77f088ac", "addresses": ["1KhXbnwBHwToU3tAVscbJNieP4F3AEg33B"], "asm": "OP_DUP OP_HASH160 cd1c7230d4874780444e0c0aeada03079c8b77f0 OP_EQUALVERIFY OP_CHECKSIG", "type": "pubkeyhash"}, "value": 0.0545055, "n": 0}, {"scriptPubKey": {"reqSigs": 1, "hex": "76a9149102a46e62ba9de757972beac09b93a5a6f5253988ac", "addresses": ["1EDk9QZjiggk31gaMBhNuWCg8jDvUjpvx9"], "asm": "OP_DUP OP_HASH160 9102a46e62ba9de757972beac09b93a5a6f52539 OP_EQUALVERIFY OP_CHECKSIG", "type": "pubkeyhash"}, "value": 0.34816558, "n": 1}], "hex": "0100000001cf96e75ed448fdbcaef1ba12ad6113342d11edc3b766d18b2aa3aa0d772204da010000006a4730440220099ceac4ef96557be9a9e7830a2cc7570d8449d342d6dfd903652b3a557a95b702202f7685cc5473c629d81c30059377df6b628465154c75bc631f25029595a0be8501210388847d91286e5bef098e2687ebfd62d7ebceb802b86f6c1ebe137f83ea44afa2ffffffff02362b5300000000001976a914cd1c7230d4874780444e0c0aeada03079c8b77f088ac2e421302000000001976a9149102a46e62ba9de757972beac09b93a5a6f5253988ac00000000", "vin": [{"sequence": 4294967295, "scriptSig": {"hex": "4730440220099ceac4ef96557be9a9e7830a2cc7570d8449d342d6dfd903652b3a557a95b702202f7685cc5473c629d81c30059377df6b628465154c75bc631f25029595a0be8501210388847d91286e5bef098e2687ebfd62d7ebceb802b86f6c1ebe137f83ea44afa2", "asm": "30440220099ceac4ef96557be9a9e7830a2cc7570d8449d342d6dfd903652b3a557a95b702202f7685cc5473c629d81c30059377df6b628465154c75bc631f25029595a0be85[ALL] 0388847d91286e5bef098e2687ebfd62d7ebceb802b86f6c1ebe137f83ea44afa2"}, "vout": 1, "txid": "da0422770daaa32a8bd166b7c3ed112d341361ad12baf1aebcfd48d45ee796cf"}], "txid": "04babf516418a94e3b8b8b947a2e34a76d92e41086ffa48cbfd723dc24e70fea", "blocktime": 1537869901, "version": 1, "confirmations": 11522, "time": 1537869901, "locktime": 0, "vsize": 225, "size": 225}