{"hash": "04bafd62605a00cce5d2b7132a5832d2e8805627c47c14b446cbbda340b8c0e1", "blockhash": "00000000000000000004ffacab907a6b429b9a5745fa0b75af4234bf69dd7176", "vout": [{"scriptPubKey": {"reqSigs": 1, "hex": "76a9140d3a898d4f4121f489c30117feaf27ce8083b06588ac", "addresses": ["12CwujnBZJq2KQEoBMgbsfJghyG88Wr1dC"], "asm": "OP_DUP OP_HASH160 0d3a898d4f4121f489c30117feaf27ce8083b065 OP_EQUALVERIFY OP_CHECKSIG", "type": "pubkeyhash"}, "value": 0.002, "n": 0}, {"scriptPubKey": {"reqSigs": 1, "hex": "76a9147fa495e862447f065e9823e69038e434bc0bceb588ac", "addresses": ["1CduyyCBuebgAWrQUT3qqz44LDagZp8AZK"], "asm": "OP_DUP OP_HASH160 7fa495e862447f065e9823e69038e434bc0bceb5 OP_EQUALVERIFY OP_CHECKSIG", "type": "pubkeyhash"}, "value": 8.192e-05, "n": 1}], "hex": "01000000018087be810273a81b0b2c3e87b2640fb5a20eb7a61ecd3b35dd121f86618f0d4a010000006b483045022100bfe9c6f6e97b9522bfc564ba189465740b5fa5f4f4994a473679d2d95682e432022048569dd6fb81b24ef28143ea4861006f47767de59599ee959723541a602e69d90121023e16993a21525f1a56ac457caf5d5b2dec3f0b2ef0921e75a200ce20030b260affffffff02400d0300000000001976a9140d3a898d4f4121f489c30117feaf27ce8083b06588ac00200000000000001976a9147fa495e862447f065e9823e69038e434bc0bceb588ac00000000", "vin": [{"sequence": 4294967295, "scriptSig": {"hex": "483045022100bfe9c6f6e97b9522bfc564ba189465740b5fa5f4f4994a473679d2d95682e432022048569dd6fb81b24ef28143ea4861006f47767de59599ee959723541a602e69d90121023e16993a21525f1a56ac457caf5d5b2dec3f0b2ef0921e75a200ce20030b260a", "asm": "3045022100bfe9c6f6e97b9522bfc564ba189465740b5fa5f4f4994a473679d2d95682e432022048569dd6fb81b24ef28143ea4861006f47767de59599ee959723541a602e69d9[ALL] 023e16993a21525f1a56ac457caf5d5b2dec3f0b2ef0921e75a200ce20030b260a"}, "vout": 1, "txid": "4a0d8f61861f12dd353bcd1ea6b70ea2b50f64b2873e2c0b1ba8730281be8780"}], "txid": "04bafd62605a00cce5d2b7132a5832d2e8805627c47c14b446cbbda340b8c0e1", "blocktime": 1537875543, "version": 1, "confirmations": 11464, "time": 1537875543, "locktime": 0, "vsize": 226, "size": 226}