{"hash": "afb147e1b2a54e4f3250228481d709a73f6900ad64d981254d0ba5fb18a73389", "blockhash": "0000000000000000000e13cef7c366c0283d82e591d1acd082e914b08063cdf1", "vout": [{"scriptPubKey": {"reqSigs": 1, "hex": "76a91404f29839c4e7d24c82e8685a5c70b8841f0fdc5c88ac", "addresses": ["1TAKYCDvpRKcuWdhmUpqS5ivfdU5kLabQ"], "asm": "OP_DUP OP_HASH160 04f29839c4e7d24c82e8685a5c70b8841f0fdc5c OP_EQUALVERIFY OP_CHECKSIG", "type": "pubkeyhash"}, "value": 0.003233, "n": 0}], "hex": "0100000000010156fe059a89bddce5a7d3073581a06a89f0b1a4bbb3eeddc81ef8920fbc290fa80000000017160014126d28419291e804e7ec063613e188a36e671c4affffffff01e4ee0400000000001976a91404f29839c4e7d24c82e8685a5c70b8841f0fdc5c88ac02483045022100f8b94900ac30a800701a5edf24fd152fa6f615cf3dd5da6bf1eab93c32a25cd60220038abf6522029a28ffe582aac67e83120b96b625855f6ec0a154f3fd08d5110b0121022b2aacc4fb3db90a39990e3556aa1a3e6c19d9e3909af81d32c0c2660ceb2f7200000000", "vin": [{"txinwitness": ["3045022100f8b94900ac30a800701a5edf24fd152fa6f615cf3dd5da6bf1eab93c32a25cd60220038abf6522029a28ffe582aac67e83120b96b625855f6ec0a154f3fd08d5110b01", "022b2aacc4fb3db90a39990e3556aa1a3e6c19d9e3909af81d32c0c2660ceb2f72"], "sequence": 4294967295, "scriptSig": {"hex": "160014126d28419291e804e7ec063613e188a36e671c4a", "asm": "0014126d28419291e804e7ec063613e188a36e671c4a"}, "vout": 0, "txid": "a80f29bc0f92f81ec8ddeeb3bba4b1f0896aa0813507d3a7e5dcbd899a05fe56"}], "txid": "04bd56c1d30c829d487e97d2091ac1548abb70b96c81e3bcabd0fb24c2a89abe", "blocktime": 1537871767, "version": 1, "confirmations": 11493, "time": 1537871767, "locktime": 0, "vsize": 136, "size": 218}