{"hash": "8584ecedbd2314f98cde2161750d00a0114e833171884397b0aaadbec09aedbe", "blockhash": "00000000000000000017f5eb5941039fbcee6240d03bc1f2f8e35350df66a1d8", "vout": [{"scriptPubKey": {"reqSigs": 1, "hex": "76a91444fd39da38a3724d86b9aab264859a8f8c29263788ac", "addresses": ["17HnJVgGFtPY6UZ2GvEpVePX9NPHjHUDcW"], "asm": "OP_DUP OP_HASH160 44fd39da38a3724d86b9aab264859a8f8c292637 OP_EQUALVERIFY OP_CHECKSIG", "type": "pubkeyhash"}, "value": 0.00871517, "n": 0}, {"scriptPubKey": {"reqSigs": 1, "hex": "00145440e79a7e668567b02f5c0607ec7f396b899d61", "addresses": ["bc1q23qw0xn7v6zk0vp0tsrq0mrl894cn8tpnxu5cg"], "asm": "0 5440e79a7e668567b02f5c0607ec7f396b899d61", "type": "witness_v0_keyhash"}, "value": 0.00110461, "n": 1}], "hex": "01000000000101ee2b54e418d947430ce814c4e8b49db55ce0a34b07a4313270227680e09c86df0000000000ffffffff025d4c0d00000000001976a91444fd39da38a3724d86b9aab264859a8f8c29263788ac7daf0100000000001600145440e79a7e668567b02f5c0607ec7f396b899d6102473044022073b50a75f471eaeaa8979ced9ce964408615de939e2ecc656e9cee13e632441102205ef1d54ce96e85960fc7ff7b14a39c6b6327a09e4414e2d1ceefb2d434b47bd50121026e06fdbe6ceed307742bc0957a5b67bc84ca60cacc7f2def950b9e07ec1e8af500000000", "vin": [{"txinwitness": ["3044022073b50a75f471eaeaa8979ced9ce964408615de939e2ecc656e9cee13e632441102205ef1d54ce96e85960fc7ff7b14a39c6b6327a09e4414e2d1ceefb2d434b47bd501", "026e06fdbe6ceed307742bc0957a5b67bc84ca60cacc7f2def950b9e07ec1e8af5"], "sequence": 4294967295, "scriptSig": {"hex": "", "asm": ""}, "vout": 0, "txid": "df869ce0807622703231a4074ba3e05cb59db4e8c414e80c4347d918e4542bee"}], "txid": "04c1059e8e4c230a2945d6486e8f035fc38dc810c119c7e5f24eb2e83d4244bd", "blocktime": 1537874412, "version": 1, "confirmations": 11467, "time": 1537874412, "locktime": 0, "vsize": 144, "size": 225}