{"hash": "04c1dd838f3f74226d474dc49f7b930b3643d930ec0e57d70a5d9926eaeed72c", "blockhash": "0000000000000000001f0ddff1eddb255c1121bcd4da4f1bc9a0da00cae72433", "vout": [{"scriptPubKey": {"reqSigs": 1, "hex": "76a914340789f12ae51b3829a9d3534183f94659a9d60a88ac", "addresses": ["15k7AnQ1bVmH5h9HrjRj7ihRMAndxXTRr6"], "asm": "OP_DUP OP_HASH160 340789f12ae51b3829a9d3534183f94659a9d60a OP_EQUALVERIFY OP_CHECKSIG", "type": "pubkeyhash"}, "value": 0.008824, "n": 0}, {"scriptPubKey": {"reqSigs": 1, "hex": "76a914c1040c6789eafc8d58611fd6d980446a95c685f388ac", "addresses": ["1JbaGKG9TLYEj7CBPrzsirrh4Y3KX9AFn1"], "asm": "OP_DUP OP_HASH160 c1040c6789eafc8d58611fd6d980446a95c685f3 OP_EQUALVERIFY OP_CHECKSIG", "type": "pubkeyhash"}, "value": 0.66924487, "n": 1}], "hex": "01000000013c119f0fc2540e241104f931ee168f15b24fc3ac3edb536b7b06f45557bfe170010000006b4830450221009930969532f8df959c7371d8c14f22d03994783bbf0499b839b550b550629c9f02201d77f25f0a2eb8c02b5185886431b537581512c2f98c4470daa30e70bd888b1a0121028b38b4f760640b4cc9ee32983b054b1a59e9f2ccb96059c3b10aabb94933a03cffffffff02e0760d00000000001976a914340789f12ae51b3829a9d3534183f94659a9d60a88acc72ffd03000000001976a914c1040c6789eafc8d58611fd6d980446a95c685f388ac00000000", "vin": [{"sequence": 4294967295, "scriptSig": {"hex": "4830450221009930969532f8df959c7371d8c14f22d03994783bbf0499b839b550b550629c9f02201d77f25f0a2eb8c02b5185886431b537581512c2f98c4470daa30e70bd888b1a0121028b38b4f760640b4cc9ee32983b054b1a59e9f2ccb96059c3b10aabb94933a03c", "asm": "30450221009930969532f8df959c7371d8c14f22d03994783bbf0499b839b550b550629c9f02201d77f25f0a2eb8c02b5185886431b537581512c2f98c4470daa30e70bd888b1a[ALL] 028b38b4f760640b4cc9ee32983b054b1a59e9f2ccb96059c3b10aabb94933a03c"}, "vout": 1, "txid": "70e1bf5755f4067b6b53db3eacc34fb2158f16ee31f90411240e54c20f9f113c"}], "txid": "04c1dd838f3f74226d474dc49f7b930b3643d930ec0e57d70a5d9926eaeed72c", "blocktime": 1537872018, "version": 1, "confirmations": 11489, "time": 1537872018, "locktime": 0, "vsize": 226, "size": 226}