{"hash": "04cb6310a3b1f165d2a819a4feb61d0bd66fb37fe844281f2f0fe46b9892cef0", "blockhash": "0000000000000000001cda96e906b7601b7a6fb1a3b62bca570a9e5d8f4b3de1", "vout": [{"scriptPubKey": {"reqSigs": 1, "hex": "a9140f97d294826c30c445744070e40fba976c4eecb187", "addresses": ["337TwEovS7eV8YTs3FgRjHmCDHG3UP4SCz"], "asm": "OP_HASH160 0f97d294826c30c445744070e40fba976c4eecb1 OP_EQUAL", "type": "scripthash"}, "value": 0.37376114, "n": 0}, {"scriptPubKey": {"reqSigs": 1, "hex": "76a914f454ba421b0346828a5195ab909b38ae21fae7dd88ac", "addresses": ["1PGuNnKt1dTY6qEttSZq37NWfJGr2F45bc"], "asm": "OP_DUP OP_HASH160 f454ba421b0346828a5195ab909b38ae21fae7dd OP_EQUALVERIFY OP_CHECKSIG", "type": "pubkeyhash"}, "value": 0.0769579, "n": 1}, {"scriptPubKey": {"reqSigs": 1, "hex": "76a914757c59bba6671abbae21273b876ae555767aae0188ac", "addresses": ["1BiD2UFAayg35jHgDLRMfwi9a3whVs2fvx"], "asm": "OP_DUP OP_HASH160 757c59bba6671abbae21273b876ae555767aae01 OP_EQUALVERIFY OP_CHECKSIG", "type": "pubkeyhash"}, "value": 0.00074707, "n": 2}], "hex": "0100000002f195880dcc7d4f5f762c005fa6fadfa0102a288932b2a3b6c686499f796d8f2800000000da004730440220245da4dde453c4e31c012509798b03a91adbeb325684488c814d2bd26f58613902205b9a726822878c431fce17f0957d084459d6a2f72ca8733b9f327961c4925d8a01483045022100dcde35cbadb13171f3a31c7edc98994e1a0870dc21a168a66b2187360550de4202207e2653885152d152c7344541bad15c03fe3790cafa731f8f5df8b78f2fea77500147522102907a54bed8ad74b3f35638c60114ca240a308cb986f3f2f306178869a8880b6121031029da6e33a4bd2eb96034d12c570df51ba0eedce11a74fe86f7b4bbf97cc23552aeffffffff2332ae16f9365d16a0eab53bdecc2fd938089a959299f234dbc7f6ccf473e3fe010000006a47304402200da1f602c49f11a6f6bb96676fbdb962be547e7afc6bcff1cbb54a4649be3ef002204692b405d9904821c4c3107594707dea573fca592eb4fb6a9c6cae05de9f98170121029bd7cc75644694a4bd514dbf3de18598cbf5ec53cfb4c76de41a4201ef214807ffffffff0372503a020000000017a9140f97d294826c30c445744070e40fba976c4eecb187ae6d7500000000001976a914f454ba421b0346828a5195ab909b38ae21fae7dd88acd3230100000000001976a914757c59bba6671abbae21273b876ae555767aae0188ac00000000", "vin": [{"sequence": 4294967295, "scriptSig": {"hex": "004730440220245da4dde453c4e31c012509798b03a91adbeb325684488c814d2bd26f58613902205b9a726822878c431fce17f0957d084459d6a2f72ca8733b9f327961c4925d8a01483045022100dcde35cbadb13171f3a31c7edc98994e1a0870dc21a168a66b2187360550de4202207e2653885152d152c7344541bad15c03fe3790cafa731f8f5df8b78f2fea77500147522102907a54bed8ad74b3f35638c60114ca240a308cb986f3f2f306178869a8880b6121031029da6e33a4bd2eb96034d12c570df51ba0eedce11a74fe86f7b4bbf97cc23552ae", "asm": "0 30440220245da4dde453c4e31c012509798b03a91adbeb325684488c814d2bd26f58613902205b9a726822878c431fce17f0957d084459d6a2f72ca8733b9f327961c4925d8a[ALL] 3045022100dcde35cbadb13171f3a31c7edc98994e1a0870dc21a168a66b2187360550de4202207e2653885152d152c7344541bad15c03fe3790cafa731f8f5df8b78f2fea7750[ALL] 522102907a54bed8ad74b3f35638c60114ca240a308cb986f3f2f306178869a8880b6121031029da6e33a4bd2eb96034d12c570df51ba0eedce11a74fe86f7b4bbf97cc23552ae"}, "vout": 0, "txid": "288f6d799f4986c6b6a3b23289282a10a0dffaa65f002c765f4f7dcc0d8895f1"}, {"sequence": 4294967295, "scriptSig": {"hex": "47304402200da1f602c49f11a6f6bb96676fbdb962be547e7afc6bcff1cbb54a4649be3ef002204692b405d9904821c4c3107594707dea573fca592eb4fb6a9c6cae05de9f98170121029bd7cc75644694a4bd514dbf3de18598cbf5ec53cfb4c76de41a4201ef214807", "asm": "304402200da1f602c49f11a6f6bb96676fbdb962be547e7afc6bcff1cbb54a4649be3ef002204692b405d9904821c4c3107594707dea573fca592eb4fb6a9c6cae05de9f9817[ALL] 029bd7cc75644694a4bd514dbf3de18598cbf5ec53cfb4c76de41a4201ef214807"}, "vout": 1, "txid": "fee373f4ccf6c7db34f29992959a0838d92fccde3bb5eaa0165d36f916ae3223"}], "txid": "04cb6310a3b1f165d2a819a4feb61d0bd66fb37fe844281f2f0fe46b9892cef0", "blocktime": 1537873282, "version": 1, "confirmations": 11484, "time": 1537873282, "locktime": 0, "vsize": 516, "size": 516}