{"hash": "f750588c8d50b0edc751f641964fc3a052e3b917563c1a80060cad010885951f", "blockhash": "0000000000000000001f76057863aec43deb6fa401d9628bb513d65a8098bfab", "vout": [{"scriptPubKey": {"reqSigs": 1, "hex": "a914face04616ddf44a890169f4f4b35bf4ca568c2b987", "addresses": ["3QZ9epar9WwCM5TvArfTQyRTkkpBG6byeZ"], "asm": "OP_HASH160 face04616ddf44a890169f4f4b35bf4ca568c2b9 OP_EQUAL", "type": "scripthash"}, "value": 0.0005, "n": 0}, {"scriptPubKey": {"reqSigs": 1, "hex": "a914ee9cedebcdffa9bc457ac7dd756f490b9f97753c87", "addresses": ["3PSgjqtstZMzMgLkmDn3Q7qgYFgfEGSuSK"], "asm": "OP_HASH160 ee9cedebcdffa9bc457ac7dd756f490b9f97753c OP_EQUAL", "type": "scripthash"}, "value": 0.01019257, "n": 1}], "hex": "020000000001018c7f2ee4d089941366299e763965dc4dfcb539586a7217410b1b935c7dd5fc120000000017160014bc36a290bcf62df2017df05757a1ce842235974afeffffff0250c300000000000017a914face04616ddf44a890169f4f4b35bf4ca568c2b987798d0f000000000017a914ee9cedebcdffa9bc457ac7dd756f490b9f97753c8702483045022100953c07ef39dd4bec2e8d3f03c4be50e99b0cc00897ac1daac8a951ab04095a73022008c16d5d308c95aff36584ae74807562df123067a0b3b3d67a0cebe2598f33b30121029d03f3f0af6657a6496c131a3c3bed76d30d8fa9358b41057988364bdb5a634c14490800", "vin": [{"txinwitness": ["3045022100953c07ef39dd4bec2e8d3f03c4be50e99b0cc00897ac1daac8a951ab04095a73022008c16d5d308c95aff36584ae74807562df123067a0b3b3d67a0cebe2598f33b301", "029d03f3f0af6657a6496c131a3c3bed76d30d8fa9358b41057988364bdb5a634c"], "sequence": 4294967294, "scriptSig": {"hex": "160014bc36a290bcf62df2017df05757a1ce842235974a", "asm": "0014bc36a290bcf62df2017df05757a1ce842235974a"}, "vout": 0, "txid": "12fcd57d5c931b0b4117726a5839b5fc4ddc6539769e2966139489d0e42e7f8c"}], "txid": "04ccb8ad3cc0c62b0156622fe51f77d0441c2d27bc8aca66c686c529da7de43e", "blocktime": 1537873891, "version": 2, "confirmations": 11474, "time": 1537873891, "locktime": 542996, "vsize": 166, "size": 248}