{"hash": "04d5b50817e997f71b13b5450338e607848afd7c30e56fb8795f32583cf7a6c3", "blockhash": "0000000000000000000dcc0f55137456b1a82d3642486a52398922ac4d620174", "vout": [{"scriptPubKey": {"reqSigs": 1, "hex": "76a9140b60c63cbe60e31e9008df0cfe828c93dbadf59588ac", "addresses": ["123AN7RuNCpXXQ4Jz6KnC3k3iqdYaPgHfE"], "asm": "OP_DUP OP_HASH160 0b60c63cbe60e31e9008df0cfe828c93dbadf595 OP_EQUALVERIFY OP_CHECKSIG", "type": "pubkeyhash"}, "value": 0.001, "n": 0}, {"scriptPubKey": {"reqSigs": 1, "hex": "76a914b319ae701aa4144298f4edf3d5b34d3f1be37dfa88ac", "addresses": ["1HKziiKjYWazwDU6HfzYATjcvFTmuu7cHS"], "asm": "OP_DUP OP_HASH160 b319ae701aa4144298f4edf3d5b34d3f1be37dfa OP_EQUALVERIFY OP_CHECKSIG", "type": "pubkeyhash"}, "value": 0.0018585, "n": 1}], "hex": "01000000014ebcedd51d70b8aaa41b237bedc3062a6fa84625fb986bf5dfa9ba77db36ea15010000006b483045022100ed87e79fe9091783977c0877c428835f14325270a499a37717f27e555d945c66022018067a5baa60b9fdb26f924f07890edd396115459b8dcebbba77ff84f60a724f01210356bfbcf03cddd94e47e1615da117278183a31538934c0ddfcaf4a47a80eb7525fdffffff02a0860100000000001976a9140b60c63cbe60e31e9008df0cfe828c93dbadf59588acfad50200000000001976a914b319ae701aa4144298f4edf3d5b34d3f1be37dfa88ac0c490800", "vin": [{"sequence": 4294967293, "scriptSig": {"hex": "483045022100ed87e79fe9091783977c0877c428835f14325270a499a37717f27e555d945c66022018067a5baa60b9fdb26f924f07890edd396115459b8dcebbba77ff84f60a724f01210356bfbcf03cddd94e47e1615da117278183a31538934c0ddfcaf4a47a80eb7525", "asm": "3045022100ed87e79fe9091783977c0877c428835f14325270a499a37717f27e555d945c66022018067a5baa60b9fdb26f924f07890edd396115459b8dcebbba77ff84f60a724f[ALL] 0356bfbcf03cddd94e47e1615da117278183a31538934c0ddfcaf4a47a80eb7525"}, "vout": 1, "txid": "15ea36db77baa9dff56b98fb2546a86f2a06c3ed7b231ba4aab8701dd5edbc4e"}], "txid": "04d5b50817e997f71b13b5450338e607848afd7c30e56fb8795f32583cf7a6c3", "blocktime": 1537870268, "version": 1, "confirmations": 11516, "time": 1537870268, "locktime": 542988, "vsize": 226, "size": 226}