{"hash": "04d7cd2dd2bba059faf76e83f33c0f318d87eba6354915b846b115f7cfe65589", "blockhash": "0000000000000000000dcc0f55137456b1a82d3642486a52398922ac4d620174", "vout": [{"scriptPubKey": {"reqSigs": 1, "hex": "76a914fc78b600330e669b36ef890d16b682bcd3a1960688ac", "addresses": ["1Q1wtV6hEukQebgozZA9NWBrJ5u21gwJDN"], "asm": "OP_DUP OP_HASH160 fc78b600330e669b36ef890d16b682bcd3a19606 OP_EQUALVERIFY OP_CHECKSIG", "type": "pubkeyhash"}, "value": 0.0154282, "n": 0}, {"scriptPubKey": {"reqSigs": 1, "hex": "76a914d5ba2eb2d52670fbe9522748bf642da754eb0d6f88ac", "addresses": ["1LV5y3NkVkmdWnF6xRCEXrAnUkRgge4KSq"], "asm": "OP_DUP OP_HASH160 d5ba2eb2d52670fbe9522748bf642da754eb0d6f OP_EQUALVERIFY OP_CHECKSIG", "type": "pubkeyhash"}, "value": 10.4540949, "n": 1}], "hex": "01000000018b2bdd6174e32b40afd9449e609a7a7a9fbf1dfc86f60f9a159ec73489a67bf3010000006a473044022028553475206c3a48ac23b555570e0b6c058d0e0ee54bdae0e3e35d39876e2b9602200c2c279f6f397364eae3258eb93db6549186a2da520dbbae8ddc095c730b6221012102c19ebc0e7fe714e24c55adaeebc7dbab2dc9a208b511bd1b6e83db85506d4d19ffffffff02a48a1700000000001976a914fc78b600330e669b36ef890d16b682bcd3a1960688acd2ae4f3e000000001976a914d5ba2eb2d52670fbe9522748bf642da754eb0d6f88ac00000000", "vin": [{"sequence": 4294967295, "scriptSig": {"hex": "473044022028553475206c3a48ac23b555570e0b6c058d0e0ee54bdae0e3e35d39876e2b9602200c2c279f6f397364eae3258eb93db6549186a2da520dbbae8ddc095c730b6221012102c19ebc0e7fe714e24c55adaeebc7dbab2dc9a208b511bd1b6e83db85506d4d19", "asm": "3044022028553475206c3a48ac23b555570e0b6c058d0e0ee54bdae0e3e35d39876e2b9602200c2c279f6f397364eae3258eb93db6549186a2da520dbbae8ddc095c730b6221[ALL] 02c19ebc0e7fe714e24c55adaeebc7dbab2dc9a208b511bd1b6e83db85506d4d19"}, "vout": 1, "txid": "f37ba68934c79e159a0ff686fc1dbf9f7a7a9a609e44d9af402be37461dd2b8b"}], "txid": "04d7cd2dd2bba059faf76e83f33c0f318d87eba6354915b846b115f7cfe65589", "blocktime": 1537870268, "version": 1, "confirmations": 11518, "time": 1537870268, "locktime": 0, "vsize": 225, "size": 225}