{"hash": "04da5a7f8001fd972c8fd9774c62735b2502959893c1fad0fe5d7e516c56f4a1", "blockhash": "00000000000000000018f53835495a110e01622372bf6ae95dc86f2b0ab887b0", "vout": [{"scriptPubKey": {"reqSigs": 1, "hex": "76a91494a29ac246db0ff9ef3589b6a55eaf4b2669320588ac", "addresses": ["1EYuoMPSoLcgi2Fc8xir3qpqa1U5ivWT8B"], "asm": "OP_DUP OP_HASH160 94a29ac246db0ff9ef3589b6a55eaf4b26693205 OP_EQUALVERIFY OP_CHECKSIG", "type": "pubkeyhash"}, "value": 0.0132708, "n": 0}, {"scriptPubKey": {"reqSigs": 1, "hex": "76a914e8769bf8d32e97d51a01b41023aa91ea740b509d88ac", "addresses": ["1NC9rd1iRX5ChNeSFF5fnKLMY1SYnoH6s8"], "asm": "OP_DUP OP_HASH160 e8769bf8d32e97d51a01b41023aa91ea740b509d OP_EQUALVERIFY OP_CHECKSIG", "type": "pubkeyhash"}, "value": 0.02942202, "n": 1}], "hex": "0100000001ceaa5975b6d1d054b16faa3e13847b64c345b6d356b5bac093ed038fb1aefb8c010000006b483045022100bdbceba65ca57931d25e92925c01e931e478a2598b7c207ff478cab91eb930de02207ab2ea426b9f0ce0e1bee5a4b3ea7b0b9a346ac0723e42bcd62e30cc18d24c000121030dd84a767e483e56d204621dcd0d968fa9242fd7b4d808bc369eb0b7ead1f68affffffff02e83f1400000000001976a91494a29ac246db0ff9ef3589b6a55eaf4b2669320588acfae42c00000000001976a914e8769bf8d32e97d51a01b41023aa91ea740b509d88ac00000000", "vin": [{"sequence": 4294967295, "scriptSig": {"hex": "483045022100bdbceba65ca57931d25e92925c01e931e478a2598b7c207ff478cab91eb930de02207ab2ea426b9f0ce0e1bee5a4b3ea7b0b9a346ac0723e42bcd62e30cc18d24c000121030dd84a767e483e56d204621dcd0d968fa9242fd7b4d808bc369eb0b7ead1f68a", "asm": "3045022100bdbceba65ca57931d25e92925c01e931e478a2598b7c207ff478cab91eb930de02207ab2ea426b9f0ce0e1bee5a4b3ea7b0b9a346ac0723e42bcd62e30cc18d24c00[ALL] 030dd84a767e483e56d204621dcd0d968fa9242fd7b4d808bc369eb0b7ead1f68a"}, "vout": 1, "txid": "8cfbaeb18f03ed93c0bab556d3b645c3647b84133eaa6fb154d0d1b67559aace"}], "txid": "04da5a7f8001fd972c8fd9774c62735b2502959893c1fad0fe5d7e516c56f4a1", "blocktime": 1537870928, "version": 1, "confirmations": 11514, "time": 1537870928, "locktime": 0, "vsize": 226, "size": 226}