{"hash": "04e8d0ff93d3ea5a1b334d5909f80066b902d7a8200a75894039b35767ece2a3", "blockhash": "00000000000000000018f53835495a110e01622372bf6ae95dc86f2b0ab887b0", "vout": [{"scriptPubKey": {"type": "nulldata", "hex": "6a4c50000077880001b8a47c9880c65efa6e67733fbcbefa6b8351586b4e86aeaeacb577c031fc802d33e46e26b0999c6db454cec3cc255baa0bc006141f93731ddc68bc9a9526289ac0f6612cd74e33776ee4", "asm": "OP_RETURN 000077880001b8a47c9880c65efa6e67733fbcbefa6b8351586b4e86aeaeacb577c031fc802d33e46e26b0999c6db454cec3cc255baa0bc006141f93731ddc68bc9a9526289ac0f6612cd74e33776ee4"}, "value": 0.0, "n": 0}, {"scriptPubKey": {"reqSigs": 1, "hex": "76a914ec5ec8c46111aca82a9c2e8d5eab64727299eb8088ac", "addresses": ["1NYp1zpWddJkQczFNuANHnUyggEzoSn8RF"], "asm": "OP_DUP OP_HASH160 ec5ec8c46111aca82a9c2e8d5eab64727299eb80 OP_EQUALVERIFY OP_CHECKSIG", "type": "pubkeyhash"}, "value": 0.00127284, "n": 1}], "hex": "01000000018392a263de41f82b988400a0172050d65dadd24c30ed49c40720e843c70699c8010000006b483045022100b5ff680ff481041c04f4b14ce54c4b73524cf858ab69828489acaa3e373abeee022005a87fddca2dd3fdf762462caf8f0d2a03d07e7175d657ebe14eb9e2dbb775c701210224852e2dd02df24f8cfdee89d1b4beebcfdfaa07c9d16253230060a9daa79e3cffffffff020000000000000000536a4c50000077880001b8a47c9880c65efa6e67733fbcbefa6b8351586b4e86aeaeacb577c031fc802d33e46e26b0999c6db454cec3cc255baa0bc006141f93731ddc68bc9a9526289ac0f6612cd74e33776ee434f10100000000001976a914ec5ec8c46111aca82a9c2e8d5eab64727299eb8088ac00000000", "vin": [{"sequence": 4294967295, "scriptSig": {"hex": "483045022100b5ff680ff481041c04f4b14ce54c4b73524cf858ab69828489acaa3e373abeee022005a87fddca2dd3fdf762462caf8f0d2a03d07e7175d657ebe14eb9e2dbb775c701210224852e2dd02df24f8cfdee89d1b4beebcfdfaa07c9d16253230060a9daa79e3c", "asm": "3045022100b5ff680ff481041c04f4b14ce54c4b73524cf858ab69828489acaa3e373abeee022005a87fddca2dd3fdf762462caf8f0d2a03d07e7175d657ebe14eb9e2dbb775c7[ALL] 0224852e2dd02df24f8cfdee89d1b4beebcfdfaa07c9d16253230060a9daa79e3c"}, "vout": 1, "txid": "c89906c743e82007c449ed304cd2ad5dd6502017a00084982bf841de63a29283"}], "txid": "04e8d0ff93d3ea5a1b334d5909f80066b902d7a8200a75894039b35767ece2a3", "blocktime": 1537870928, "version": 1, "confirmations": 11512, "time": 1537870928, "locktime": 0, "vsize": 284, "size": 284}