{"hash": "4da477f2974cd0c4dc0cd52e1e45cfc5e6a984745d7a377ea4464483372326c3", "blockhash": "00000000000000000024a2167bbff67b0be802c0b01cdd79e6331c2be6459f87", "vout": [{"scriptPubKey": {"reqSigs": 1, "hex": "76a914658bc2e4001cfacc64a3e041943e921b3086737588ac", "addresses": ["1AFvgAG4FN8fhtp3ZtSF8hsmKvPTDiB4RV"], "asm": "OP_DUP OP_HASH160 658bc2e4001cfacc64a3e041943e921b30867375 OP_EQUALVERIFY OP_CHECKSIG", "type": "pubkeyhash"}, "value": 3.416e-05, "n": 0}, {"scriptPubKey": {"reqSigs": 1, "hex": "a9145fd6ccf3fa4f5e40b590aac3f24664f0653a71dc87", "addresses": ["3ARmSNhAYCtKywjSMAxYdagMtKiGcdVuY2"], "asm": "OP_HASH160 5fd6ccf3fa4f5e40b590aac3f24664f0653a71dc OP_EQUAL", "type": "scripthash"}, "value": 0.00219731, "n": 1}], "hex": "01000000000101ed44c0a5ca24b440eb54870fd573ef5cd35bfb7b57a81c6de68e1128f4202c0b01000000232200206594052309991fbaf27880f6c24f3eaa8cdd7edacf1bc50579894b9e3fe7faccffffffff02580d0000000000001976a914658bc2e4001cfacc64a3e041943e921b3086737588ac535a03000000000017a9145fd6ccf3fa4f5e40b590aac3f24664f0653a71dc87040047304402205006cd57e77cb46873558ded2b9adb08defc25d48e7f01b7aed54891641530d302201b850e7aaaf337cea8ef61affb7bd2249267796e5ebe57503119c3990b244de301483045022100b2140ac0812f6eeee2fedd4d0c3ce630cbf1a5549eaf0fe93a29f6f6385dac3202203d06f0c581cced3023c2ec296d46923d06eb21c0b036cef92995d431bae0a6450147522102762a59cc11c9e209028b4fdb72709e323a3db710158b03d150a252f3d53009582103148c80a5bdfddb05ff5bcffc397c8ca748d8b435ec6a175bc9d7bfc7fc6f853752ae00000000", "vin": [{"txinwitness": ["", "304402205006cd57e77cb46873558ded2b9adb08defc25d48e7f01b7aed54891641530d302201b850e7aaaf337cea8ef61affb7bd2249267796e5ebe57503119c3990b244de301", "3045022100b2140ac0812f6eeee2fedd4d0c3ce630cbf1a5549eaf0fe93a29f6f6385dac3202203d06f0c581cced3023c2ec296d46923d06eb21c0b036cef92995d431bae0a64501", "522102762a59cc11c9e209028b4fdb72709e323a3db710158b03d150a252f3d53009582103148c80a5bdfddb05ff5bcffc397c8ca748d8b435ec6a175bc9d7bfc7fc6f853752ae"], "sequence": 4294967295, "scriptSig": {"hex": "2200206594052309991fbaf27880f6c24f3eaa8cdd7edacf1bc50579894b9e3fe7facc", "asm": "00206594052309991fbaf27880f6c24f3eaa8cdd7edacf1bc50579894b9e3fe7facc"}, "vout": 1, "txid": "0b2c20f428118ee66d1ca8577bfb5bd35cef73d50f8754eb40b424caa5c044ed"}], "txid": "04ee42935967e2ed45114c94c87b34282c572d9a22752c49660ad683b3b081c2", "blocktime": 1537870564, "version": 1, "confirmations": 11515, "time": 1537870564, "locktime": 0, "vsize": 208, "size": 373}