{"hash": "bc2a3921db28060183eeb70c757e741a6b4e8e0c3a8a93c9eece2f10d7c80502", "blockhash": "00000000000000000018f53835495a110e01622372bf6ae95dc86f2b0ab887b0", "vout": [{"scriptPubKey": {"reqSigs": 1, "hex": "00145013e73d70d2dd5838d57b09d21cc88a7d26005b", "addresses": ["bc1q2qf7w0ts6tw4swx40vyay8xg3f7jvqzmjyfpzu"], "asm": "0 5013e73d70d2dd5838d57b09d21cc88a7d26005b", "type": "witness_v0_keyhash"}, "value": 5.492e-05, "n": 0}, {"scriptPubKey": {"reqSigs": 1, "hex": "76a91438a1405296c06dc173cc89c9d84838cbafda99b788ac", "addresses": ["16AS1gEgX5bQbERXuGt8VxBFQnhSPhLD67"], "asm": "OP_DUP OP_HASH160 38a1405296c06dc173cc89c9d84838cbafda99b7 OP_EQUALVERIFY OP_CHECKSIG", "type": "pubkeyhash"}, "value": 0.01543094, "n": 1}], "hex": "01000000000101877fab4370bd590874402dde850036952ec3975de504171598642b37d502e0cf0100000000ffffffff0274150000000000001600145013e73d70d2dd5838d57b09d21cc88a7d26005bb68b1700000000001976a91438a1405296c06dc173cc89c9d84838cbafda99b788ac02483045022100a43a7c527b766a10150667b9137a4609dde50776e5ccefb240611339b3d6a4cf02205332ddc54da8a3f75091ccd61c2d824af4a0921bb7da9ab253086a8ed5662018012102e952c84dee09d34f65ed0603cc0f5761e49ead06bbdf337c787df75c573de95c00000000", "vin": [{"txinwitness": ["3045022100a43a7c527b766a10150667b9137a4609dde50776e5ccefb240611339b3d6a4cf02205332ddc54da8a3f75091ccd61c2d824af4a0921bb7da9ab253086a8ed566201801", "02e952c84dee09d34f65ed0603cc0f5761e49ead06bbdf337c787df75c573de95c"], "sequence": 4294967295, "scriptSig": {"hex": "", "asm": ""}, "vout": 1, "txid": "cfe002d5372b6498151704e55d97c32e95360085de2d40740859bd7043ab7f87"}], "txid": "04f18883465bdead96231c17a8756a7db14c0082816d2b7ab84ba0ef6c8686df", "blocktime": 1537870928, "version": 1, "confirmations": 11514, "time": 1537870928, "locktime": 0, "vsize": 144, "size": 226}