{"hash": "04f8100f136b549865c7703398e29f3f562fe0c4ed71458cd0ff47360ad57690", "blockhash": "0000000000000000001f76057863aec43deb6fa401d9628bb513d65a8098bfab", "vout": [{"scriptPubKey": {"reqSigs": 1, "hex": "76a914320dac05066240e37921b04c5d70bc3f18838e1c88ac", "addresses": ["15ZfAY41UCBFJbNN6aKXbhmKqDd2wzathC"], "asm": "OP_DUP OP_HASH160 320dac05066240e37921b04c5d70bc3f18838e1c OP_EQUALVERIFY OP_CHECKSIG", "type": "pubkeyhash"}, "value": 0.0063652, "n": 0}, {"scriptPubKey": {"type": "nulldata", "hex": "6a4c50000077dc0001057ffcdc7709b0f59811b7277af8e8e963c7cfd5b95b23cc0f42c2fc38c5e7f9b63708a5d9a01eb5a7faf062f1305baa15eb061314d0b4f7c0431d100759d4ba30d2c37bb011d97e02cf", "asm": "OP_RETURN 000077dc0001057ffcdc7709b0f59811b7277af8e8e963c7cfd5b95b23cc0f42c2fc38c5e7f9b63708a5d9a01eb5a7faf062f1305baa15eb061314d0b4f7c0431d100759d4ba30d2c37bb011d97e02cf"}, "value": 0.0, "n": 1}], "hex": "0100000001b470d5961af49c7155134b8a968d83883087bc06d1c83ab07c4d08fa64bea3ee010000006b483045022100d6cc554f180410f9972d815282b5988fa06e14daa43d38c694ed74d7dcefcc6a0220314c32bed36c6dcccdbddeaec516d561aa65e1e8c4477b70da5cbc4d5f326a210121031e641388aa5631fc9dee2972977c7fbb65ed7fd1c2ab3550ba03401c2eb869bfffffffff0268b60900000000001976a914320dac05066240e37921b04c5d70bc3f18838e1c88ac0000000000000000536a4c50000077dc0001057ffcdc7709b0f59811b7277af8e8e963c7cfd5b95b23cc0f42c2fc38c5e7f9b63708a5d9a01eb5a7faf062f1305baa15eb061314d0b4f7c0431d100759d4ba30d2c37bb011d97e02cf00000000", "vin": [{"sequence": 4294967295, "scriptSig": {"hex": "483045022100d6cc554f180410f9972d815282b5988fa06e14daa43d38c694ed74d7dcefcc6a0220314c32bed36c6dcccdbddeaec516d561aa65e1e8c4477b70da5cbc4d5f326a210121031e641388aa5631fc9dee2972977c7fbb65ed7fd1c2ab3550ba03401c2eb869bf", "asm": "3045022100d6cc554f180410f9972d815282b5988fa06e14daa43d38c694ed74d7dcefcc6a0220314c32bed36c6dcccdbddeaec516d561aa65e1e8c4477b70da5cbc4d5f326a21[ALL] 031e641388aa5631fc9dee2972977c7fbb65ed7fd1c2ab3550ba03401c2eb869bf"}, "vout": 1, "txid": "eea3be64fa084d7cb03ac8d106bc873088838d968a4b1355719cf41a96d570b4"}], "txid": "04f8100f136b549865c7703398e29f3f562fe0c4ed71458cd0ff47360ad57690", "blocktime": 1537873891, "version": 1, "confirmations": 11478, "time": 1537873891, "locktime": 0, "vsize": 284, "size": 284}