{"hash": "04f97c16d68aef5024987af6c348b9c1b343a79f259878ebbd91b3d8265f312d", "blockhash": "0000000000000000001e0dab787dd257d1dbfcb92a98c2207d5e1078be1f4165", "vout": [{"scriptPubKey": {"reqSigs": 1, "hex": "0014fdf26981049e35a292685b957922930841f3f699", "addresses": ["bc1qlhexnqgync669yngtw2hjg5nppql8a5eyqdlc3"], "asm": "0 fdf26981049e35a292685b957922930841f3f699", "type": "witness_v0_keyhash"}, "value": 1.732e-05, "n": 0}, {"scriptPubKey": {"reqSigs": 1, "hex": "76a9146ed0613bfc600f8239a60168fd4b8953a99f528c88ac", "addresses": ["1B6vxawXJAQLyDu3GVcpsMWF8eH5WMLJKb"], "asm": "OP_DUP OP_HASH160 6ed0613bfc600f8239a60168fd4b8953a99f528c OP_EQUALVERIFY OP_CHECKSIG", "type": "pubkeyhash"}, "value": 0.02050445, "n": 1}], "hex": "01000000010d3988778ebde01363f3fa7c70a733a355ccbdc3a18283761612b2fd05d24f23170000006b483045022100e646497d6d02699ce7473db679e52975f81de6115b5ac96bf15db96c7aea000d0220015156d7337c0688c50d45976dd84ac57034b14675767b895081e095f17be40a0121024350b8f794b23e3c99d6bef478fb6c0fd5afbe1e5fe1b5038f42feeac64034fbffffffff02c406000000000000160014fdf26981049e35a292685b957922930841f3f6998d491f00000000001976a9146ed0613bfc600f8239a60168fd4b8953a99f528c88ac00000000", "vin": [{"sequence": 4294967295, "scriptSig": {"hex": "483045022100e646497d6d02699ce7473db679e52975f81de6115b5ac96bf15db96c7aea000d0220015156d7337c0688c50d45976dd84ac57034b14675767b895081e095f17be40a0121024350b8f794b23e3c99d6bef478fb6c0fd5afbe1e5fe1b5038f42feeac64034fb", "asm": "3045022100e646497d6d02699ce7473db679e52975f81de6115b5ac96bf15db96c7aea000d0220015156d7337c0688c50d45976dd84ac57034b14675767b895081e095f17be40a[ALL] 024350b8f794b23e3c99d6bef478fb6c0fd5afbe1e5fe1b5038f42feeac64034fb"}, "vout": 23, "txid": "234fd205fdb21216768382a1c3bdcc55a333a7707cfaf36313e0bd8e7788390d"}], "txid": "04f97c16d68aef5024987af6c348b9c1b343a79f259878ebbd91b3d8265f312d", "blocktime": 1537872475, "version": 1, "confirmations": 11487, "time": 1537872475, "locktime": 0, "vsize": 223, "size": 223}