{"hash": "04fbee44f22b8203ebabb7755bcd23688f178efc45a405ed9f072281933362eb", "blockhash": "0000000000000000001e0dab787dd257d1dbfcb92a98c2207d5e1078be1f4165", "vout": [{"scriptPubKey": {"reqSigs": 1, "hex": "a9148ba9470df9201e371f709b5ba8e0c4644a055b2987", "addresses": ["3ERUdpTVBZCLAh4V4uWnyRynmPdMoXwmym"], "asm": "OP_HASH160 8ba9470df9201e371f709b5ba8e0c4644a055b29 OP_EQUAL", "type": "scripthash"}, "value": 0.01428571, "n": 0}, {"scriptPubKey": {"reqSigs": 1, "hex": "76a914d3a2fcbd2123b942d3a08085a788531ee86f998888ac", "addresses": ["1LJ2q2ihfnBMWzPjxweAqVLw2AaUtLpVq5"], "asm": "OP_DUP OP_HASH160 d3a2fcbd2123b942d3a08085a788531ee86f9988 OP_EQUALVERIFY OP_CHECKSIG", "type": "pubkeyhash"}, "value": 0.03686383, "n": 1}], "hex": "0200000001347303a3f465b5756dc546188de8311bf15889b3ba6fd6b122cf8222e532a303010000006b483045022100b29d7a283dd4df5aea01efa411fc7a13fe3c6a3317ebf63e18220ee87c118fa902201ea5e1f78695dfe7dbea0fbe8722573b5de776579e1b573aaa8507bf600b415a0121026ccd08d7564b6c51b1f1e4c4485e4c1af9ea62855dde164c63cd5cafe4fb21c3ffffffff025bcc15000000000017a9148ba9470df9201e371f709b5ba8e0c4644a055b2987ef3f3800000000001976a914d3a2fcbd2123b942d3a08085a788531ee86f998888ac00000000", "vin": [{"sequence": 4294967295, "scriptSig": {"hex": "483045022100b29d7a283dd4df5aea01efa411fc7a13fe3c6a3317ebf63e18220ee87c118fa902201ea5e1f78695dfe7dbea0fbe8722573b5de776579e1b573aaa8507bf600b415a0121026ccd08d7564b6c51b1f1e4c4485e4c1af9ea62855dde164c63cd5cafe4fb21c3", "asm": "3045022100b29d7a283dd4df5aea01efa411fc7a13fe3c6a3317ebf63e18220ee87c118fa902201ea5e1f78695dfe7dbea0fbe8722573b5de776579e1b573aaa8507bf600b415a[ALL] 026ccd08d7564b6c51b1f1e4c4485e4c1af9ea62855dde164c63cd5cafe4fb21c3"}, "vout": 1, "txid": "03a332e52282cf22b1d66fbab38958f11b31e88d1846c56d75b565f4a3037334"}], "txid": "04fbee44f22b8203ebabb7755bcd23688f178efc45a405ed9f072281933362eb", "blocktime": 1537872475, "version": 2, "confirmations": 11486, "time": 1537872475, "locktime": 0, "vsize": 224, "size": 224}