{"hash": "67c856b3f1b24ea00501acc86efcda1a0295a4c2d703ede114218414f3ad3957", "blockhash": "00000000000000000024a2167bbff67b0be802c0b01cdd79e6331c2be6459f87", "vout": [{"scriptPubKey": {"reqSigs": 1, "hex": "a914d71ef1b1e86bd2ef59f5778fdaf6cdb66ac6d14c87", "addresses": ["3MJUGpfAjFwTTLQdytzy7yFRhYoiB4qkpT"], "asm": "OP_HASH160 d71ef1b1e86bd2ef59f5778fdaf6cdb66ac6d14c OP_EQUAL", "type": "scripthash"}, "value": 0.01610398, "n": 0}, {"scriptPubKey": {"reqSigs": 1, "hex": "76a914e4a778bb50ff15641f7704954a2f809887ccf76788ac", "addresses": ["1Mr1gsPCwMDE8fPJTsWAosyGdwGTYUFb2q"], "asm": "OP_DUP OP_HASH160 e4a778bb50ff15641f7704954a2f809887ccf767 OP_EQUALVERIFY OP_CHECKSIG", "type": "pubkeyhash"}, "value": 0.00719789, "n": 1}, {"scriptPubKey": {"reqSigs": 1, "hex": "76a914725bb3343edb9f402e1046e3c080e68543ca511588ac", "addresses": ["1BRftJFhw4oXqDp9E9tgNxrvmwYNto6ppT"], "asm": "OP_DUP OP_HASH160 725bb3343edb9f402e1046e3c080e68543ca5115 OP_EQUALVERIFY OP_CHECKSIG", "type": "pubkeyhash"}, "value": 0.02, "n": 2}], "hex": "020000000001017f05b9a6a315789fd4b48e3a8f9e429a081ab30e5c0c3ec958446d27af9debe4030000001716001484cce5a55150a8a52e568b80996f426590e81086fdffffff039e9218000000000017a914d71ef1b1e86bd2ef59f5778fdaf6cdb66ac6d14c87adfb0a00000000001976a914e4a778bb50ff15641f7704954a2f809887ccf76788ac80841e00000000001976a914725bb3343edb9f402e1046e3c080e68543ca511588ac0247304402207a99ae7c8ec536678523c19603307098f8c1246cda3be6a4d5de987e5baf6e400220472770152009ff838e7fa8bc2ac2b7fd7d14ee50e1a35342d5ffa1f918869bb301210240476d0c5aa4f5bb04dcb0359019fbde505a38c496c0d7a9b2425fab4ad98f760d490800", "vin": [{"txinwitness": ["304402207a99ae7c8ec536678523c19603307098f8c1246cda3be6a4d5de987e5baf6e400220472770152009ff838e7fa8bc2ac2b7fd7d14ee50e1a35342d5ffa1f918869bb301", "0240476d0c5aa4f5bb04dcb0359019fbde505a38c496c0d7a9b2425fab4ad98f76"], "sequence": 4294967293, "scriptSig": {"hex": "16001484cce5a55150a8a52e568b80996f426590e81086", "asm": "001484cce5a55150a8a52e568b80996f426590e81086"}, "vout": 3, "txid": "e4eb9daf276d4458c93e0c5c0eb31a089a429e8f3a8eb4d49f7815a3a6b9057f"}], "txid": "04fcc1e2233390170b433d6530ed7aaa6748599b1c1ef01be195e770706fc537", "blocktime": 1537870564, "version": 2, "confirmations": 11515, "time": 1537870564, "locktime": 542989, "vsize": 202, "size": 283}