{"hash": "05067b79fecdc3ef7b164729a1f15f6cc03bdf1d7726fca709f3cf94493e1004", "blockhash": "0000000000000000001e0dab787dd257d1dbfcb92a98c2207d5e1078be1f4165", "vout": [{"scriptPubKey": {"reqSigs": 1, "hex": "76a914126a8bd41dbe634bf7cd1342045f96c512ae0fea88ac", "addresses": ["12gNoQxbwbveVm71M3QJViCVnkzikr8FWX"], "asm": "OP_DUP OP_HASH160 126a8bd41dbe634bf7cd1342045f96c512ae0fea OP_EQUALVERIFY OP_CHECKSIG", "type": "pubkeyhash"}, "value": 0.00048738, "n": 0}, {"scriptPubKey": {"reqSigs": 1, "hex": "76a914d2ed184a1c73669e3252cbf26a1c8c3c29b885e188ac", "addresses": ["1LEGvvgRRqTZNrgJoxXPP3nWZcCbYtJubj"], "asm": "OP_DUP OP_HASH160 d2ed184a1c73669e3252cbf26a1c8c3c29b885e1 OP_EQUALVERIFY OP_CHECKSIG", "type": "pubkeyhash"}, "value": 0.28378227, "n": 1}], "hex": "020000000127cf3368d2a64df4abdab2ea68969d675035119a3040a21fe588f162d696e7fa010000006b483045022100f2d0abee62792a97f5ab57f1d5e57905433daf673e16f189544466b3c7f8f1aa022074b54e6829db5f66231e147ce410636437251c00fbfa2e44bae348eeadd03c1a012102d7f6ef95788231d1131282b62ee6e23d7663df32756dc18a03fbdb075c04cdd3ffffffff0262be0000000000001976a914126a8bd41dbe634bf7cd1342045f96c512ae0fea88ac7304b101000000001976a914d2ed184a1c73669e3252cbf26a1c8c3c29b885e188ac00000000", "vin": [{"sequence": 4294967295, "scriptSig": {"hex": "483045022100f2d0abee62792a97f5ab57f1d5e57905433daf673e16f189544466b3c7f8f1aa022074b54e6829db5f66231e147ce410636437251c00fbfa2e44bae348eeadd03c1a012102d7f6ef95788231d1131282b62ee6e23d7663df32756dc18a03fbdb075c04cdd3", "asm": "3045022100f2d0abee62792a97f5ab57f1d5e57905433daf673e16f189544466b3c7f8f1aa022074b54e6829db5f66231e147ce410636437251c00fbfa2e44bae348eeadd03c1a[ALL] 02d7f6ef95788231d1131282b62ee6e23d7663df32756dc18a03fbdb075c04cdd3"}, "vout": 1, "txid": "fae796d662f188e51fa240309a113550679d9668eab2daabf44da6d26833cf27"}], "txid": "05067b79fecdc3ef7b164729a1f15f6cc03bdf1d7726fca709f3cf94493e1004", "blocktime": 1537872475, "version": 2, "confirmations": 11486, "time": 1537872475, "locktime": 0, "vsize": 226, "size": 226}