{"hash": "67af964ddc6d0b89982e92d399de9dfad128f04e84981dcb2035bcb8746d6037", "blockhash": "000000000000000000022b45ed06c6f4ccd3cf7fb5ba4856ebd2e58215665228", "vout": [{"scriptPubKey": {"reqSigs": 1, "hex": "a9144e3521f5bff98214faa48afe11a2cde1e86362ba87", "addresses": ["38pYHEBtiV5wcgh1Ku4ZcTyPgZEzNUpkRj"], "asm": "OP_HASH160 4e3521f5bff98214faa48afe11a2cde1e86362ba OP_EQUAL", "type": "scripthash"}, "value": 0.054693, "n": 0}, {"scriptPubKey": {"reqSigs": 1, "hex": "0014288c2a003c591e5cd0dd60ad1fc1f07d778c016d", "addresses": ["bc1q9zxz5qputy09e5xavzk3ls0s04mccqtdjnfyht"], "asm": "0 288c2a003c591e5cd0dd60ad1fc1f07d778c016d", "type": "witness_v0_keyhash"}, "value": 0.06405888, "n": 1}], "hex": "010000000001010895bbb1266d574f421a98da90fccced550d9a7c3f586770f158d74e7bedaa060100000000ffffffff02747453000000000017a9144e3521f5bff98214faa48afe11a2cde1e86362ba8700bf610000000000160014288c2a003c591e5cd0dd60ad1fc1f07d778c016d02473044022021f8ae561f8580f96db7082dd33f3dd1806ae9ba183084ba6e8a9a7615728f1e0220090b6a6b2659ed735ff582abd6aa2e48a585743da4c64bc62663ca26287e83880121020177d239cb35ea23b6a080f53f354c48f31749bcb48bc033878f55bf940b9b4600000000", "vin": [{"txinwitness": ["3044022021f8ae561f8580f96db7082dd33f3dd1806ae9ba183084ba6e8a9a7615728f1e0220090b6a6b2659ed735ff582abd6aa2e48a585743da4c64bc62663ca26287e838801", "020177d239cb35ea23b6a080f53f354c48f31749bcb48bc033878f55bf940b9b46"], "sequence": 4294967295, "scriptSig": {"hex": "", "asm": ""}, "vout": 1, "txid": "06aaed7b4ed758f17067583f7c9a0d55edccfc90da981a424f576d26b1bb9508"}], "txid": "050a0f43f2b7a8af2c36d4e8b12113e86df8714d5bfc61598c2f384a8ed91c8f", "blocktime": 1537869901, "version": 1, "confirmations": 11524, "time": 1537869901, "locktime": 0, "vsize": 142, "size": 223}