{"hash": "050d710fec38f8025e803f1a5de5c4982b38ede68c29a6584cfe207d5a25fc0b", "blockhash": "0000000000000000000baef3f32e3676a92c3b2e5da21b426e4f302fc371ce76", "vout": [{"scriptPubKey": {"type": "nulldata", "hex": "6a4c5000007819000197fd862dc4bf3f27685f40b7019d6ddc0f1b8ff117702940d64fa54d8eb25f00d07763ba5ec78371f0f691f762325baa1c94061498864af1cf56bc9a9526289ac0f6612cd74e33776ee4", "asm": "OP_RETURN 00007819000197fd862dc4bf3f27685f40b7019d6ddc0f1b8ff117702940d64fa54d8eb25f00d07763ba5ec78371f0f691f762325baa1c94061498864af1cf56bc9a9526289ac0f6612cd74e33776ee4"}, "value": 0.0, "n": 0}, {"scriptPubKey": {"reqSigs": 1, "hex": "76a9148e86ec342d3e16af062b8bb9490874899ae0a36988ac", "addresses": ["1DzcaqE2dBdsVKQokrJ6jYDgNSCeNDjJF4"], "asm": "OP_DUP OP_HASH160 8e86ec342d3e16af062b8bb9490874899ae0a369 OP_EQUALVERIFY OP_CHECKSIG", "type": "pubkeyhash"}, "value": 0.01375804, "n": 1}], "hex": "0100000001f07da4e168e2488dd37c2b1955b88b825a128ba7153c6b9bee8db48a4357ca15000000006a47304402205fe04e7dd5bb727d0413894b0fbd2a5f27c637fb6f47bbf902227d8644681ad30220171399f006342cdcce165e94868af9e253f88beab0c64d986ef14af387b844a80121037789a0e9105f0fd2b2303f89b131523d45c8c9e538d16d87345629ced7fdc67fffffffff020000000000000000536a4c5000007819000197fd862dc4bf3f27685f40b7019d6ddc0f1b8ff117702940d64fa54d8eb25f00d07763ba5ec78371f0f691f762325baa1c94061498864af1cf56bc9a9526289ac0f6612cd74e33776ee43cfe1400000000001976a9148e86ec342d3e16af062b8bb9490874899ae0a36988ac00000000", "vin": [{"sequence": 4294967295, "scriptSig": {"hex": "47304402205fe04e7dd5bb727d0413894b0fbd2a5f27c637fb6f47bbf902227d8644681ad30220171399f006342cdcce165e94868af9e253f88beab0c64d986ef14af387b844a80121037789a0e9105f0fd2b2303f89b131523d45c8c9e538d16d87345629ced7fdc67f", "asm": "304402205fe04e7dd5bb727d0413894b0fbd2a5f27c637fb6f47bbf902227d8644681ad30220171399f006342cdcce165e94868af9e253f88beab0c64d986ef14af387b844a8[ALL] 037789a0e9105f0fd2b2303f89b131523d45c8c9e538d16d87345629ced7fdc67f"}, "vout": 0, "txid": "15ca57438ab48dee9b6b3c15a78b125a828bb855192b7cd38d48e268e1a47df0"}], "txid": "050d710fec38f8025e803f1a5de5c4982b38ede68c29a6584cfe207d5a25fc0b", "blocktime": 1537876114, "version": 1, "confirmations": 11460, "time": 1537876114, "locktime": 0, "vsize": 283, "size": 283}