{"hash": "b37bae2fb57d36213f91f0192d32ab8df8f290e2dcd5e73f4a246d21368d91b7", "blockhash": "0000000000000000001e0dab787dd257d1dbfcb92a98c2207d5e1078be1f4165", "vout": [{"scriptPubKey": {"reqSigs": 1, "hex": "0014f815bf1e58d83590e8c517c7d9ffbf57d38bf84d", "addresses": ["bc1qlq2m78jcmq6ep6x9zlranlal2lfch7zdt2p3f3"], "asm": "0 f815bf1e58d83590e8c517c7d9ffbf57d38bf84d", "type": "witness_v0_keyhash"}, "value": 5.517e-05, "n": 0}, {"scriptPubKey": {"reqSigs": 1, "hex": "a9144a511cbbe653e09def19bf7b80b6e89f86e892c787", "addresses": ["38Ty6Wv4S7VbLp1Gpvt744R7BncmjemxY6"], "asm": "OP_HASH160 4a511cbbe653e09def19bf7b80b6e89f86e892c7 OP_EQUAL", "type": "scripthash"}, "value": 0.02745912, "n": 1}], "hex": "0100000000010139cacc92723424de19eb1f19b068dca992479f61b267b0b674fae4becf3dde330f00000017160014fe78b98d8dca285a7395d4f66c3d07e24996c42dffffffff028d15000000000000160014f815bf1e58d83590e8c517c7d9ffbf57d38bf84d38e629000000000017a9144a511cbbe653e09def19bf7b80b6e89f86e892c7870247304402205b3ec7e0cc0c9069a289aad0230a5a58f5c2e83b8dc6668a55c1e8c666b231d402205defbb0b8dadd265fab685a8a32e8333cf11d08cb5c6ca583991a0b4f3fd137e012102b36728a3a3b7bb588d2035b9898e997ea114bacfb83ae086d31a6f0484b5087100000000", "vin": [{"txinwitness": ["304402205b3ec7e0cc0c9069a289aad0230a5a58f5c2e83b8dc6668a55c1e8c666b231d402205defbb0b8dadd265fab685a8a32e8333cf11d08cb5c6ca583991a0b4f3fd137e01", "02b36728a3a3b7bb588d2035b9898e997ea114bacfb83ae086d31a6f0484b50871"], "sequence": 4294967295, "scriptSig": {"hex": "160014fe78b98d8dca285a7395d4f66c3d07e24996c42d", "asm": "0014fe78b98d8dca285a7395d4f66c3d07e24996c42d"}, "vout": 15, "txid": "33de3dcfbee4fa74b6b067b2619f4792a9dc68b0191feb19de24347292ccca39"}], "txid": "050f63f5f2c23bc13583938a7c073c7dee00bb23b525429249c65423db085c85", "blocktime": 1537872475, "version": 1, "confirmations": 11486, "time": 1537872475, "locktime": 0, "vsize": 165, "size": 246}