{"hash": "d1289444acd2952e46269c215b4f67d65aced3870108d74cc8a6f8e459472855", "blockhash": "0000000000000000001cda96e906b7601b7a6fb1a3b62bca570a9e5d8f4b3de1", "vout": [{"scriptPubKey": {"reqSigs": 1, "hex": "a914f4b86dc1befd7e63f1c28b183604ba2a1791311287", "addresses": ["3PzyjgcGPcQqGyAMYkamg4WCbLAeFvTKRJ"], "asm": "OP_HASH160 f4b86dc1befd7e63f1c28b183604ba2a17913112 OP_EQUAL", "type": "scripthash"}, "value": 0.13081615, "n": 0}, {"scriptPubKey": {"reqSigs": 1, "hex": "a9140f788341cf287d254b98f70df306082af0769a0b87", "addresses": ["336pRntX72WaLBjoF7Qn9z2k4ZytUYoqup"], "asm": "OP_HASH160 0f788341cf287d254b98f70df306082af0769a0b OP_EQUAL", "type": "scripthash"}, "value": 0.00074828, "n": 1}], "hex": "02000000000104c1661341de97b846b85faf73538501a7196aac5db5bb78113b5de3eecb78e4fc01000000171600147c249a5a180a23b8b6469ea95b7a4f3128029b00ffffffffe6c6e53307d2a10e3b0fd8a49ff1a20c991f77950e7abedba528a3e546b220b601000000171600143103016cf5c4258e0842728628eee533e82fcc9effffffff0a2fe6321c6d613cb6d603a91374b226a2eb850db10d6394ccc2dc72db7f362201000000171600143fb08665300bb98a5ba0b884bfd4c02c3b2bb5c7ffffffff7ec7d85b927543622d7f8c432049cd38ad771f67b3cedc489efc4751b890376801000000171600141ebf322710cd3903ec9f2d14d2b8941f36c36c14ffffffff020f9cc7000000000017a914f4b86dc1befd7e63f1c28b183604ba2a17913112874c2401000000000017a9140f788341cf287d254b98f70df306082af0769a0b8702483045022100805e347bd4cc89590ee30228e62ba67773a3cc37c6a8ea2c5d74d510a686f90902205de4830969e7806580e3e9a5043b0a3497c7d5e6843e62c29ab9448d86597c2d012102e8470317ae259b557ffb96012bb3415c68d846d1e334821b5cc5ef1b8a67bd950247304402203daec9a691e88231aa2945ba65ec3829184875adcd51e2263282c1913899937802204eeb677c4dc3e35fa6af3975108743ef1a69b73c080c4acc8e4054ac619b67270121038d18a1dcca13f8733c5bb24d45470cbcae507ec703073b8bf582db714354f91802483045022100d97f6cf0b93759a27ca935a9cf174c10caf18d6377890b960cff55caa37230f802202132945a269574e2d4bc10592e15ca9ae14e3f42830e3c3a32e162392a93d725012102525c1fd95e74a69b4168f7bb7deed0bd2628c6ef1439846e43f319bc28208ef30247304402205734b272dda5e5b6018f18475b50f9f5385f8ce3d576394adb87103f88f0374d02203d8e6e24632ba3763679e0197365f1732e7aee54f1f9407b8e39233de5bce01d012102508cfcb9d470e0bec8152da25cfcd77d06d3d53e13d00d63aad14a6f34b8c35300000000", "vin": [{"txinwitness": ["3045022100805e347bd4cc89590ee30228e62ba67773a3cc37c6a8ea2c5d74d510a686f90902205de4830969e7806580e3e9a5043b0a3497c7d5e6843e62c29ab9448d86597c2d01", "02e8470317ae259b557ffb96012bb3415c68d846d1e334821b5cc5ef1b8a67bd95"], "sequence": 4294967295, "scriptSig": {"hex": "1600147c249a5a180a23b8b6469ea95b7a4f3128029b00", "asm": "00147c249a5a180a23b8b6469ea95b7a4f3128029b00"}, "vout": 1, "txid": "fce478cbeee35d3b1178bbb55dac6a19a701855373af5fb846b897de411366c1"}, {"txinwitness": ["304402203daec9a691e88231aa2945ba65ec3829184875adcd51e2263282c1913899937802204eeb677c4dc3e35fa6af3975108743ef1a69b73c080c4acc8e4054ac619b672701", "038d18a1dcca13f8733c5bb24d45470cbcae507ec703073b8bf582db714354f918"], "sequence": 4294967295, "scriptSig": {"hex": "1600143103016cf5c4258e0842728628eee533e82fcc9e", "asm": "00143103016cf5c4258e0842728628eee533e82fcc9e"}, "vout": 1, "txid": "b620b246e5a328a5dbbe7a0e95771f990ca2f19fa4d80f3b0ea1d20733e5c6e6"}, {"txinwitness": ["3045022100d97f6cf0b93759a27ca935a9cf174c10caf18d6377890b960cff55caa37230f802202132945a269574e2d4bc10592e15ca9ae14e3f42830e3c3a32e162392a93d72501", "02525c1fd95e74a69b4168f7bb7deed0bd2628c6ef1439846e43f319bc28208ef3"], "sequence": 4294967295, "scriptSig": {"hex": "1600143fb08665300bb98a5ba0b884bfd4c02c3b2bb5c7", "asm": "00143fb08665300bb98a5ba0b884bfd4c02c3b2bb5c7"}, "vout": 1, "txid": "22367fdb72dcc2cc94630db10d85eba226b27413a903d6b63c616d1c32e62f0a"}, {"txinwitness": ["304402205734b272dda5e5b6018f18475b50f9f5385f8ce3d576394adb87103f88f0374d02203d8e6e24632ba3763679e0197365f1732e7aee54f1f9407b8e39233de5bce01d01", "02508cfcb9d470e0bec8152da25cfcd77d06d3d53e13d00d63aad14a6f34b8c353"], "sequence": 4294967295, "scriptSig": {"hex": "1600141ebf322710cd3903ec9f2d14d2b8941f36c36c14", "asm": "00141ebf322710cd3903ec9f2d14d2b8941f36c36c14"}, "vout": 1, "txid": "683790b85147fc9e48dcceb3671f77ad38cd4920438c7f2d624375925bd8c77e"}], "txid": "05163beebac6948456db4df75668b4da7649641cbd15fc5fd7b00c1f5484eb87", "blocktime": 1537873282, "version": 2, "confirmations": 11480, "time": 1537873282, "locktime": 0, "vsize": 438, "size": 762}