{"hash": "0fc74d165123d934b51ea9a49a00d06f4b39bc9656eb6a22c032d73dc7528405", "blockhash": "0000000000000000000dcc0f55137456b1a82d3642486a52398922ac4d620174", "vout": [{"scriptPubKey": {"reqSigs": 1, "hex": "a91491822e009e56a199b563ab9d8acabd0c3171fbd787", "addresses": ["3ExPrQLD3UeJY4gxtQx8G5mwCCsRkzA8a6"], "asm": "OP_HASH160 91822e009e56a199b563ab9d8acabd0c3171fbd7 OP_EQUAL", "type": "scripthash"}, "value": 0.021026, "n": 0}, {"scriptPubKey": {"reqSigs": 1, "hex": "a914fec37293f73cc540a971ea4d2fdd15cdc3e9e57d87", "addresses": ["3Qv5hCnHwXzsNm6fDb2kpgUQ74twMk8QLm"], "asm": "OP_HASH160 fec37293f73cc540a971ea4d2fdd15cdc3e9e57d OP_EQUAL", "type": "scripthash"}, "value": 0.29064716, "n": 1}], "hex": "02000000000101bb6bca6c706244af0a636520ee3ec0cefa07a1896ef13ef638fc4db9957f58be01000000171600149749079a9c040fee0d0a0e3b209195d18cc5dd12ffffffff02481520000000000017a91491822e009e56a199b563ab9d8acabd0c3171fbd7870c7ebb010000000017a914fec37293f73cc540a971ea4d2fdd15cdc3e9e57d870247304402200d6c4ea38ffe9249e579e183ffdf493b0fd0e83c89ba187c1b48196b807a2aa60220505dae8c1748474acf2b6cc9cbbd5b44e9bb2e616e79862cbf6d7d1a0ec993df01210328f960405f1448804c2899b754664a69c1664511ce3bd84f5c30a4e653ae850400000000", "vin": [{"txinwitness": ["304402200d6c4ea38ffe9249e579e183ffdf493b0fd0e83c89ba187c1b48196b807a2aa60220505dae8c1748474acf2b6cc9cbbd5b44e9bb2e616e79862cbf6d7d1a0ec993df01", "0328f960405f1448804c2899b754664a69c1664511ce3bd84f5c30a4e653ae8504"], "sequence": 4294967295, "scriptSig": {"hex": "1600149749079a9c040fee0d0a0e3b209195d18cc5dd12", "asm": "00149749079a9c040fee0d0a0e3b209195d18cc5dd12"}, "vout": 1, "txid": "be587f95b94dfc38f63ef16e89a107facec03eee2065630aaf4462706cca6bbb"}], "txid": "051cf5e2d309fe3d888bb5c094ec5994e488d366d356c7f17314fca9d6b43afa", "blocktime": 1537870268, "version": 2, "confirmations": 11516, "time": 1537870268, "locktime": 0, "vsize": 166, "size": 247}