{"hash": "05202f016d082ebfda8fd34732788757fd3cbf62ed3ba5aeecd5382dde69b3db", "blockhash": "0000000000000000000e13cef7c366c0283d82e591d1acd082e914b08063cdf1", "vout": [{"scriptPubKey": {"reqSigs": 1, "hex": "76a914fb2ae30847bd04e77a8638a4f436678defbae80b88ac", "addresses": ["1Pu3yypcsVC4xwntk7nnJTENsGypof4pqA"], "asm": "OP_DUP OP_HASH160 fb2ae30847bd04e77a8638a4f436678defbae80b OP_EQUALVERIFY OP_CHECKSIG", "type": "pubkeyhash"}, "value": 0.00030421, "n": 0}, {"scriptPubKey": {"reqSigs": 1, "hex": "76a9141e78290eecadb705ded3c527d58ff93bd4ae07b088ac", "addresses": ["13n7DePxuaYRAgXhvZL9Di9CkEkk1DYPSG"], "asm": "OP_DUP OP_HASH160 1e78290eecadb705ded3c527d58ff93bd4ae07b0 OP_EQUALVERIFY OP_CHECKSIG", "type": "pubkeyhash"}, "value": 0.00430401, "n": 1}], "hex": "01000000012a3d2ce18b11c4c83e3a34fb08c51ab4de7fb8637e03c42d9e8cd43500176ccd290000006b483045022100b99454a4d815979ed4c8ebe42eacd0fde3439f9d73a875acbbae31dd046a70360220138769f00e2f4482d11bbbe6af6800e7fd3a1d5a833341d697ed92ad32fc3f43012103b0fe59f3831c1407dfc04c9c6e6be82ac8befc534646cbc1e9d7f0feccffbeefffffffff02d5760000000000001976a914fb2ae30847bd04e77a8638a4f436678defbae80b88ac41910600000000001976a9141e78290eecadb705ded3c527d58ff93bd4ae07b088ac00000000", "vin": [{"sequence": 4294967295, "scriptSig": {"hex": "483045022100b99454a4d815979ed4c8ebe42eacd0fde3439f9d73a875acbbae31dd046a70360220138769f00e2f4482d11bbbe6af6800e7fd3a1d5a833341d697ed92ad32fc3f43012103b0fe59f3831c1407dfc04c9c6e6be82ac8befc534646cbc1e9d7f0feccffbeef", "asm": "3045022100b99454a4d815979ed4c8ebe42eacd0fde3439f9d73a875acbbae31dd046a70360220138769f00e2f4482d11bbbe6af6800e7fd3a1d5a833341d697ed92ad32fc3f43[ALL] 03b0fe59f3831c1407dfc04c9c6e6be82ac8befc534646cbc1e9d7f0feccffbeef"}, "vout": 41, "txid": "cd6c170035d48c9e2dc4037e63b87fdeb41ac508fb343a3ec8c4118be12c3d2a"}], "txid": "05202f016d082ebfda8fd34732788757fd3cbf62ed3ba5aeecd5382dde69b3db", "blocktime": 1537871767, "version": 1, "confirmations": 11495, "time": 1537871767, "locktime": 0, "vsize": 226, "size": 226}