{"hash": "0524d5dac27693b2c76368cc868d043ac383990dd19bd11a2f07129fb3a6d411", "blockhash": "0000000000000000001f0ddff1eddb255c1121bcd4da4f1bc9a0da00cae72433", "vout": [{"scriptPubKey": {"reqSigs": 1, "hex": "76a91428cf9f0666503468219413a86424bd44b5b3c34e88ac", "addresses": ["14inkSu1kdXx3WpasH2XPyyg1ndTQ4LQ4n"], "asm": "OP_DUP OP_HASH160 28cf9f0666503468219413a86424bd44b5b3c34e OP_EQUALVERIFY OP_CHECKSIG", "type": "pubkeyhash"}, "value": 0.08602222, "n": 0}, {"scriptPubKey": {"reqSigs": 1, "hex": "76a914e3093c25dc6339f9251f719bb22d20715bbce52088ac", "addresses": ["1MhTTCg4vYabTivsybpQmjsZ61vgcpemFh"], "asm": "OP_DUP OP_HASH160 e3093c25dc6339f9251f719bb22d20715bbce520 OP_EQUALVERIFY OP_CHECKSIG", "type": "pubkeyhash"}, "value": 89.16925478, "n": 1}], "hex": "01000000014e5ea297007a6ea1c1b5f70b9e52c128641b2de822d99bcafb1e4ed0b1925a3f000000006b483045022100bbad7eea7515ae4fadedb50d3f0fffe82d978d9babcedbc66fe7b9025577f21802204b14160735dc9fcc59e568149e4356d4740a80e6a02ccf77272de841e5f537f00121021447a3822248b20a444a5deb754284b457fefffb22e4400df1d83b85cf8addeeffffffff026e428300000000001976a91428cf9f0666503468219413a86424bd44b5b3c34e88ac267c7d13020000001976a914e3093c25dc6339f9251f719bb22d20715bbce52088ac00000000", "vin": [{"sequence": 4294967295, "scriptSig": {"hex": "483045022100bbad7eea7515ae4fadedb50d3f0fffe82d978d9babcedbc66fe7b9025577f21802204b14160735dc9fcc59e568149e4356d4740a80e6a02ccf77272de841e5f537f00121021447a3822248b20a444a5deb754284b457fefffb22e4400df1d83b85cf8addee", "asm": "3045022100bbad7eea7515ae4fadedb50d3f0fffe82d978d9babcedbc66fe7b9025577f21802204b14160735dc9fcc59e568149e4356d4740a80e6a02ccf77272de841e5f537f0[ALL] 021447a3822248b20a444a5deb754284b457fefffb22e4400df1d83b85cf8addee"}, "vout": 0, "txid": "3f5a92b1d04e1efbca9bd922e82d1b6428c1529e0bf7b5c1a16e7a0097a25e4e"}], "txid": "0524d5dac27693b2c76368cc868d043ac383990dd19bd11a2f07129fb3a6d411", "blocktime": 1537872018, "version": 1, "confirmations": 11489, "time": 1537872018, "locktime": 0, "vsize": 226, "size": 226}