{"hash": "052544e5bdfdae39a625d2e961f4ea1c056e8c05949191adb32f1a7710370b28", "blockhash": "000000000000000000022b45ed06c6f4ccd3cf7fb5ba4856ebd2e58215665228", "vout": [{"scriptPubKey": {"reqSigs": 1, "hex": "76a914437a756e3216001fe98580c83623f43eecf5a75a88ac", "addresses": ["179nyS8A89TLDqz3itvqG7wTboTzkEw8wT"], "asm": "OP_DUP OP_HASH160 437a756e3216001fe98580c83623f43eecf5a75a OP_EQUALVERIFY OP_CHECKSIG", "type": "pubkeyhash"}, "value": 0.00999626, "n": 0}, {"scriptPubKey": {"reqSigs": 1, "hex": "a914d8a954a386690136d4d7d60992f29ed5d32a257887", "addresses": ["3MScjH1fJcQmf4tAuRWcRb6MydfDsKvtMn"], "asm": "OP_HASH160 d8a954a386690136d4d7d60992f29ed5d32a2578 OP_EQUAL", "type": "scripthash"}, "value": 0.0394, "n": 1}], "hex": "0200000002640272b9ae835d969f7f3c1958065157923e06e25e6a06c7483959c1d3fddc2c010000006a4730440220620c72d4caae4704c00ebeda4cb36975c4f9114884cd41ebeef7a1aad8c5a3480220142c4766455f540bc2b0defef0033a0f495800f94e6ce2cae97394ac61880366012102df09fc3197c73a88f98ad1d43c602c61bf445d3f50ac0cd7ea228efd02883318feffffffe4ba99fa67dd12c194d3180be9a1eac0a937d5bde9c92ed0fa163170ba20489b000000006b483045022100d065bdb528ebb18b1d40129b816d1ef4f550fbcd3400fc84acf1075e9de6dfbe022065636e5ad56f997b78fbf251c7ce16e1320f4674bf6445e8a88649e748bd2bb7012102253017ce840eac315c4e7b93220cc7e26e401b8e2421492f8f9d03347782cb5cfeffffff02ca400f00000000001976a914437a756e3216001fe98580c83623f43eecf5a75a88aca01e3c000000000017a914d8a954a386690136d4d7d60992f29ed5d32a2578870b490800", "vin": [{"sequence": 4294967294, "scriptSig": {"hex": "4730440220620c72d4caae4704c00ebeda4cb36975c4f9114884cd41ebeef7a1aad8c5a3480220142c4766455f540bc2b0defef0033a0f495800f94e6ce2cae97394ac61880366012102df09fc3197c73a88f98ad1d43c602c61bf445d3f50ac0cd7ea228efd02883318", "asm": "30440220620c72d4caae4704c00ebeda4cb36975c4f9114884cd41ebeef7a1aad8c5a3480220142c4766455f540bc2b0defef0033a0f495800f94e6ce2cae97394ac61880366[ALL] 02df09fc3197c73a88f98ad1d43c602c61bf445d3f50ac0cd7ea228efd02883318"}, "vout": 1, "txid": "2cdcfdd3c1593948c7066a5ee2063e9257510658193c7f9f965d83aeb9720264"}, {"sequence": 4294967294, "scriptSig": {"hex": "483045022100d065bdb528ebb18b1d40129b816d1ef4f550fbcd3400fc84acf1075e9de6dfbe022065636e5ad56f997b78fbf251c7ce16e1320f4674bf6445e8a88649e748bd2bb7012102253017ce840eac315c4e7b93220cc7e26e401b8e2421492f8f9d03347782cb5c", "asm": "3045022100d065bdb528ebb18b1d40129b816d1ef4f550fbcd3400fc84acf1075e9de6dfbe022065636e5ad56f997b78fbf251c7ce16e1320f4674bf6445e8a88649e748bd2bb7[ALL] 02253017ce840eac315c4e7b93220cc7e26e401b8e2421492f8f9d03347782cb5c"}, "vout": 0, "txid": "9b4820ba703116fad02ec9e9bdd537a9c0eaa1e90b18d394c112dd67fa99bae4"}], "txid": "052544e5bdfdae39a625d2e961f4ea1c056e8c05949191adb32f1a7710370b28", "blocktime": 1537869901, "version": 2, "confirmations": 11524, "time": 1537869901, "locktime": 542987, "vsize": 371, "size": 371}