{"hash": "1443a3879b29ec0cfbcdba6d30654e61a2153028cf3222db4c0aa2908d607ad3", "blockhash": "000000000000000000022b45ed06c6f4ccd3cf7fb5ba4856ebd2e58215665228", "vout": [{"scriptPubKey": {"reqSigs": 1, "hex": "001496bfd18af650e489de9453a1b010e3bf10695d4c", "addresses": ["bc1qj6larzhk2rjgnh552wsmqy8rhugxjh2vggde7g"], "asm": "0 96bfd18af650e489de9453a1b010e3bf10695d4c", "type": "witness_v0_keyhash"}, "value": 0.00030619, "n": 0}, {"scriptPubKey": {"reqSigs": 1, "hex": "a914976409cc3a65e3074167132d85c9897f229bfd4687", "addresses": ["3FVVoHqmt8froXo2w9Z57qXeHRbgTaamXW"], "asm": "OP_HASH160 976409cc3a65e3074167132d85c9897f229bfd46 OP_EQUAL", "type": "scripthash"}, "value": 0.01528801, "n": 1}], "hex": "010000000001016ac1dd6cbc5e92a39f23bfaf0a396a1902e2c36cdf6e7214b6e761292896f7cd0000000017160014c980dcb7a5c91162dbeedbe8f0ed630d0a884d6affffffff029b7700000000000016001496bfd18af650e489de9453a1b010e3bf10695d4ce15317000000000017a914976409cc3a65e3074167132d85c9897f229bfd468702483045022100fcff9f547536c6b2e2485a25d25676136b8664dcc31f74fd026615ea506a187102206117b59ca46d74bae5950a69ff78199e58930fd1c5fdc2aeee215f39c0d6bc3a012103a378053f7a7e55b8ae7774cede0afeeb3ef06b61e79202dcfd1601c1d2c6bbd000000000", "vin": [{"txinwitness": ["3045022100fcff9f547536c6b2e2485a25d25676136b8664dcc31f74fd026615ea506a187102206117b59ca46d74bae5950a69ff78199e58930fd1c5fdc2aeee215f39c0d6bc3a01", "03a378053f7a7e55b8ae7774cede0afeeb3ef06b61e79202dcfd1601c1d2c6bbd0"], "sequence": 4294967295, "scriptSig": {"hex": "160014c980dcb7a5c91162dbeedbe8f0ed630d0a884d6a", "asm": "0014c980dcb7a5c91162dbeedbe8f0ed630d0a884d6a"}, "vout": 0, "txid": "cdf796282961e7b614726edf6cc3e202196a390aafbf239fa3925ebc6cddc16a"}], "txid": "052eef95b1f920ce7f4938bf2c01556da90f8f2f628618efdbe66d8bc634a5f7", "blocktime": 1537869901, "version": 1, "confirmations": 11523, "time": 1537869901, "locktime": 0, "vsize": 165, "size": 247}