{"hash": "0538359425c8351e5d885913c24dd6b38115a59344e65e6f219a3d30037cd2c0", "blockhash": "00000000000000000004ffacab907a6b429b9a5745fa0b75af4234bf69dd7176", "vout": [{"scriptPubKey": {"reqSigs": 1, "hex": "76a914e8cea30989bd15530f819b766684b00dc7ba7cfa88ac", "addresses": ["1NDyJtNTjmwk5xPNhjgAMu4HDHigtobu1s"], "asm": "OP_DUP OP_HASH160 e8cea30989bd15530f819b766684b00dc7ba7cfa OP_EQUALVERIFY OP_CHECKSIG", "type": "pubkeyhash"}, "value": 5.7403259, "n": 0}, {"scriptPubKey": {"reqSigs": 1, "hex": "76a914fc5aad22dfd837d1e037175a0358675945bc22d388ac", "addresses": ["1Q1KueEbQq5uYgv4pt7tkdQguUMWQRsTHr"], "asm": "OP_DUP OP_HASH160 fc5aad22dfd837d1e037175a0358675945bc22d3 OP_EQUALVERIFY OP_CHECKSIG", "type": "pubkeyhash"}, "value": 0.00844221, "n": 1}], "hex": "020000000a5d625e1010a3f32d0c7c06148f9c3440e0f47e41927fc07f0e33cbb420a5b246000000006a47304402205b861346e0d7598da894b77e1a36cddedbbcaa94c7888939474ed8f75b8ee20e02204bfa230d891de583e5e73e61344c0f55246ed3b213c970e9ccc4b6e31ea4a7db0121037be1ab615f5bab042efd29e9f96b77251d4a21ca2d65d38ca4098ffbfe908348feffffff607fdd4194dc7e5429145ca4fcfc537d6b73ea89f6b26baab53feac651d8721e010000006a473044022079c4ce5635171350799b55a79fc9c856c0d3970eff2e7ceecc56d0eb5d3d519c022023d05f09691c9b42d7a0552c01966f90b38ecaae0a7c89549c9050be222735e20121026c8aef178f7cdd3031379705db2905abc4fb4060c61ac35e3f7d50894353a823feffffff6631c0716eec4702cff462000bf7916c3ab4dc576c13f85375d0bbe8725563a1000000006a47304402204a43728cc31f76b3d3e3f8fc4ab2e0abbdbb8aafc42d4e1ccdaa4c8498174b14022076ad575d74055570dc8f1b8a617d8f0e62241fbe54be118abbce43bc287b0f8a012102ab6d86f0378e919f51ca72511bfbbb2397e705bcca5e00aee0ae48cbd64eb6fbfeffffff7640d7e3116a4dcfa6d8b93985612fa3ec0f24cdcf86a0180b2af2dbb492f2b4010000006a473044022005aeea93a746c89808b370e18b04f76111035777efe829d04151099e6e3f14690220201ff0dc91131164d68cc71aea0a1f056ff98ceb9a45e40a89953739d07e8fdd01210373940c2344c871d31e7fb628a7d345d679743e0743472104a7b998f916a9a2adfeffffff7e35ffd1075a5125018b2c61c74de9c6e45decbc590f258d6e0576d32639a734000000006a47304402203a2ad85f8938981edf5d40847f4f87a0b222ebda7d436b133598d05e20ce2b6e0220744b9ae2980e7b1d166f3fdf7c7b742ef68f0e8837dbbf27980f48153a605b48012103b46df3baf29ae1c962b1973a7fd42ea6b64e915ad7516a11d58fb1060896e23bfeffffffbd02ff2be1549cc6440d93d32af8930a5d0b5ce980ffd1cb4bcab1c6b2037ff1000000006a47304402205620917ff9ba7d86428f6d3a855f6e9952e95049272d95b964b96b3ef8a893a002205c4d20e36bcf5f9ddaa03ed2e01e4f61714172b1605dd4cd6324481dda9c3fbd01210374e876962143168e3d6d78fc6bf8325e4f8275fc85e40cb6972f82f3f7ef7585feffffffcf841838acb9f4d9528b728f124084c6613aff3ff35011cec1969883055a597a2f0000006a47304402202a73941bfbd85255ac65844a4d503ddff25267502c98cb17cf9e5da12d0bfc9d02202dadd2e11395e4755edb0f7df9ca10cc00e80cb072c4d5cce16bb471e2213f190121037bc6e3ba1fadc7981f6343bb7cbb6a1922a07fecd6aa3c79572f30028a83077bfeffffffd9db652d155b41d606e1b682d950857bc904f36e43db0465007415b0ffef2aa7000000006b48304502210091c3df80d8de9a157b30c6789b22f5ddc0fcfb3f991b6e97f88fad991c849efa02207cfe83dc6ff88b9877e26c1af6a6d489fc53b0bf80d45d260f349eeda1bbfeaf0121026ab5f4da6c949680cd34bf994884c35b123356aa66f5db4e2ce353867e8f1794feffffffe29c2a211735290439df4b5da1a9c9cfbcc81a196ec2568b7140a53af7c04c2a0a0000006a4730440220056a747770c3bd3f4cd8bd626135f5100170fe4fb4dc54f4f33c5a41be29e89302202541b97d6793d8c71ff40a87544fe73fe5a093173f92e047584d1b6b14c9fbba0121037563a1ecd7febd02f006f6dec805a4a7cc5de4a07b8fadd0a452186c9078bf10fefffffff3ffef2169c893fd21b59336610f24e1033dc22ab2ae8d4c5e645e9e181cd3ad000000006a473044022032f0247836f77983a90f6c695bb16e7ae0d6f33b8e7f692df57f9a67fb22b84f02207545e5e1c311476f4ae3d129209879be2ec0fb9835b7107ab017be2239447880012103de20db7bb030302009e8b06113b1719e6cdb4c5841fe880452f5528a5298d708feffffff02ce0a3722000000001976a914e8cea30989bd15530f819b766684b00dc7ba7cfa88acbde10c00000000001976a914fc5aad22dfd837d1e037175a0358675945bc22d388ac16490800", "vin": [{"sequence": 4294967294, "scriptSig": {"hex": "47304402205b861346e0d7598da894b77e1a36cddedbbcaa94c7888939474ed8f75b8ee20e02204bfa230d891de583e5e73e61344c0f55246ed3b213c970e9ccc4b6e31ea4a7db0121037be1ab615f5bab042efd29e9f96b77251d4a21ca2d65d38ca4098ffbfe908348", "asm": "304402205b861346e0d7598da894b77e1a36cddedbbcaa94c7888939474ed8f75b8ee20e02204bfa230d891de583e5e73e61344c0f55246ed3b213c970e9ccc4b6e31ea4a7db[ALL] 037be1ab615f5bab042efd29e9f96b77251d4a21ca2d65d38ca4098ffbfe908348"}, "vout": 0, "txid": "46b2a520b4cb330e7fc07f92417ef4e040349c8f14067c0c2df3a310105e625d"}, {"sequence": 4294967294, "scriptSig": {"hex": "473044022079c4ce5635171350799b55a79fc9c856c0d3970eff2e7ceecc56d0eb5d3d519c022023d05f09691c9b42d7a0552c01966f90b38ecaae0a7c89549c9050be222735e20121026c8aef178f7cdd3031379705db2905abc4fb4060c61ac35e3f7d50894353a823", "asm": "3044022079c4ce5635171350799b55a79fc9c856c0d3970eff2e7ceecc56d0eb5d3d519c022023d05f09691c9b42d7a0552c01966f90b38ecaae0a7c89549c9050be222735e2[ALL] 026c8aef178f7cdd3031379705db2905abc4fb4060c61ac35e3f7d50894353a823"}, "vout": 1, "txid": "1e72d851c6ea3fb5aa6bb2f689ea736b7d53fcfca45c1429547edc9441dd7f60"}, {"sequence": 4294967294, "scriptSig": {"hex": "47304402204a43728cc31f76b3d3e3f8fc4ab2e0abbdbb8aafc42d4e1ccdaa4c8498174b14022076ad575d74055570dc8f1b8a617d8f0e62241fbe54be118abbce43bc287b0f8a012102ab6d86f0378e919f51ca72511bfbbb2397e705bcca5e00aee0ae48cbd64eb6fb", "asm": "304402204a43728cc31f76b3d3e3f8fc4ab2e0abbdbb8aafc42d4e1ccdaa4c8498174b14022076ad575d74055570dc8f1b8a617d8f0e62241fbe54be118abbce43bc287b0f8a[ALL] 02ab6d86f0378e919f51ca72511bfbbb2397e705bcca5e00aee0ae48cbd64eb6fb"}, "vout": 0, "txid": "a1635572e8bbd07553f8136c57dcb43a6c91f70b0062f4cf0247ec6e71c03166"}, {"sequence": 4294967294, "scriptSig": {"hex": "473044022005aeea93a746c89808b370e18b04f76111035777efe829d04151099e6e3f14690220201ff0dc91131164d68cc71aea0a1f056ff98ceb9a45e40a89953739d07e8fdd01210373940c2344c871d31e7fb628a7d345d679743e0743472104a7b998f916a9a2ad", "asm": "3044022005aeea93a746c89808b370e18b04f76111035777efe829d04151099e6e3f14690220201ff0dc91131164d68cc71aea0a1f056ff98ceb9a45e40a89953739d07e8fdd[ALL] 0373940c2344c871d31e7fb628a7d345d679743e0743472104a7b998f916a9a2ad"}, "vout": 1, "txid": "b4f292b4dbf22a0b18a086cfcd240feca32f618539b9d8a6cf4d6a11e3d74076"}, {"sequence": 4294967294, "scriptSig": {"hex": "47304402203a2ad85f8938981edf5d40847f4f87a0b222ebda7d436b133598d05e20ce2b6e0220744b9ae2980e7b1d166f3fdf7c7b742ef68f0e8837dbbf27980f48153a605b48012103b46df3baf29ae1c962b1973a7fd42ea6b64e915ad7516a11d58fb1060896e23b", "asm": "304402203a2ad85f8938981edf5d40847f4f87a0b222ebda7d436b133598d05e20ce2b6e0220744b9ae2980e7b1d166f3fdf7c7b742ef68f0e8837dbbf27980f48153a605b48[ALL] 03b46df3baf29ae1c962b1973a7fd42ea6b64e915ad7516a11d58fb1060896e23b"}, "vout": 0, "txid": "34a73926d376056e8d250f59bcec5de4c6e94dc7612c8b0125515a07d1ff357e"}, {"sequence": 4294967294, "scriptSig": {"hex": "47304402205620917ff9ba7d86428f6d3a855f6e9952e95049272d95b964b96b3ef8a893a002205c4d20e36bcf5f9ddaa03ed2e01e4f61714172b1605dd4cd6324481dda9c3fbd01210374e876962143168e3d6d78fc6bf8325e4f8275fc85e40cb6972f82f3f7ef7585", "asm": "304402205620917ff9ba7d86428f6d3a855f6e9952e95049272d95b964b96b3ef8a893a002205c4d20e36bcf5f9ddaa03ed2e01e4f61714172b1605dd4cd6324481dda9c3fbd[ALL] 0374e876962143168e3d6d78fc6bf8325e4f8275fc85e40cb6972f82f3f7ef7585"}, "vout": 0, "txid": "f17f03b2c6b1ca4bcbd1ff80e95c0b5d0a93f82ad3930d44c69c54e12bff02bd"}, {"sequence": 4294967294, "scriptSig": {"hex": "47304402202a73941bfbd85255ac65844a4d503ddff25267502c98cb17cf9e5da12d0bfc9d02202dadd2e11395e4755edb0f7df9ca10cc00e80cb072c4d5cce16bb471e2213f190121037bc6e3ba1fadc7981f6343bb7cbb6a1922a07fecd6aa3c79572f30028a83077b", "asm": "304402202a73941bfbd85255ac65844a4d503ddff25267502c98cb17cf9e5da12d0bfc9d02202dadd2e11395e4755edb0f7df9ca10cc00e80cb072c4d5cce16bb471e2213f19[ALL] 037bc6e3ba1fadc7981f6343bb7cbb6a1922a07fecd6aa3c79572f30028a83077b"}, "vout": 47, "txid": "7a595a05839896c1ce1150f33fff3a61c68440128f728b52d9f4b9ac381884cf"}, {"sequence": 4294967294, "scriptSig": {"hex": "48304502210091c3df80d8de9a157b30c6789b22f5ddc0fcfb3f991b6e97f88fad991c849efa02207cfe83dc6ff88b9877e26c1af6a6d489fc53b0bf80d45d260f349eeda1bbfeaf0121026ab5f4da6c949680cd34bf994884c35b123356aa66f5db4e2ce353867e8f1794", "asm": "304502210091c3df80d8de9a157b30c6789b22f5ddc0fcfb3f991b6e97f88fad991c849efa02207cfe83dc6ff88b9877e26c1af6a6d489fc53b0bf80d45d260f349eeda1bbfeaf[ALL] 026ab5f4da6c949680cd34bf994884c35b123356aa66f5db4e2ce353867e8f1794"}, "vout": 0, "txid": "a72aefffb01574006504db436ef304c97b8550d982b6e106d6415b152d65dbd9"}, {"sequence": 4294967294, "scriptSig": {"hex": "4730440220056a747770c3bd3f4cd8bd626135f5100170fe4fb4dc54f4f33c5a41be29e89302202541b97d6793d8c71ff40a87544fe73fe5a093173f92e047584d1b6b14c9fbba0121037563a1ecd7febd02f006f6dec805a4a7cc5de4a07b8fadd0a452186c9078bf10", "asm": "30440220056a747770c3bd3f4cd8bd626135f5100170fe4fb4dc54f4f33c5a41be29e89302202541b97d6793d8c71ff40a87544fe73fe5a093173f92e047584d1b6b14c9fbba[ALL] 037563a1ecd7febd02f006f6dec805a4a7cc5de4a07b8fadd0a452186c9078bf10"}, "vout": 10, "txid": "2a4cc0f73aa540718b56c26e191ac8bccfc9a9a15d4bdf3904293517212a9ce2"}, {"sequence": 4294967294, "scriptSig": {"hex": "473044022032f0247836f77983a90f6c695bb16e7ae0d6f33b8e7f692df57f9a67fb22b84f02207545e5e1c311476f4ae3d129209879be2ec0fb9835b7107ab017be2239447880012103de20db7bb030302009e8b06113b1719e6cdb4c5841fe880452f5528a5298d708", "asm": "3044022032f0247836f77983a90f6c695bb16e7ae0d6f33b8e7f692df57f9a67fb22b84f02207545e5e1c311476f4ae3d129209879be2ec0fb9835b7107ab017be2239447880[ALL] 03de20db7bb030302009e8b06113b1719e6cdb4c5841fe880452f5528a5298d708"}, "vout": 0, "txid": "add31c189e5e645e4c8daeb22ac23d03e1240f613693b521fd93c86921effff3"}], "txid": "0538359425c8351e5d885913c24dd6b38115a59344e65e6f219a3d30037cd2c0", "blocktime": 1537875543, "version": 2, "confirmations": 11464, "time": 1537875543, "locktime": 542998, "vsize": 1549, "size": 1549}