{"hash": "05396e87db3bff7db424eb46e78437f56005598b1721a0644d340091d3592603", "blockhash": "00000000000000000004ffacab907a6b429b9a5745fa0b75af4234bf69dd7176", "vout": [{"scriptPubKey": {"reqSigs": 1, "hex": "76a9147d7f5f1151c330244f5446465d5fbec9817c445688ac", "addresses": ["1CSa3txqGwe7wzZ6DemTy5fUnecDBLWMon"], "asm": "OP_DUP OP_HASH160 7d7f5f1151c330244f5446465d5fbec9817c4456 OP_EQUALVERIFY OP_CHECKSIG", "type": "pubkeyhash"}, "value": 0.00621687, "n": 0}], "hex": "010000000242ab27919205518c5131800662140e95d1e2b74d92d963428fdb65a36a43a4b0010000006b483045022100a3031b27038cb7ef3a6aebd6803fe254905b35c49c8b652f9f9cc5e60d3640b302204c0ce26fa08e7b15f3baf831597752c7726da056df58e7a8f09523766e1a52be0121022b0fda7c23631434806cea3975125ebfbff1df8460272ca52eacfce5c0c8ea50ffffffff4209a1a7a3eb48765b0c3cbdcc7763a8279de367556b784e4ade20e21be772f5000000006b4830450221009c6312b0c9894721339446e78e71309b82076e8b164625469804b06d79fa5feb02206431609e603d13380ed55e6e4a498d743b8b98a641228d86ffc23791193067220121022b0fda7c23631434806cea3975125ebfbff1df8460272ca52eacfce5c0c8ea50ffffffff01777c0900000000001976a9147d7f5f1151c330244f5446465d5fbec9817c445688ac00000000", "vin": [{"sequence": 4294967295, "scriptSig": {"hex": "483045022100a3031b27038cb7ef3a6aebd6803fe254905b35c49c8b652f9f9cc5e60d3640b302204c0ce26fa08e7b15f3baf831597752c7726da056df58e7a8f09523766e1a52be0121022b0fda7c23631434806cea3975125ebfbff1df8460272ca52eacfce5c0c8ea50", "asm": "3045022100a3031b27038cb7ef3a6aebd6803fe254905b35c49c8b652f9f9cc5e60d3640b302204c0ce26fa08e7b15f3baf831597752c7726da056df58e7a8f09523766e1a52be[ALL] 022b0fda7c23631434806cea3975125ebfbff1df8460272ca52eacfce5c0c8ea50"}, "vout": 1, "txid": "b0a4436aa365db8f4263d9924db7e2d1950e1462068031518c5105929127ab42"}, {"sequence": 4294967295, "scriptSig": {"hex": "4830450221009c6312b0c9894721339446e78e71309b82076e8b164625469804b06d79fa5feb02206431609e603d13380ed55e6e4a498d743b8b98a641228d86ffc23791193067220121022b0fda7c23631434806cea3975125ebfbff1df8460272ca52eacfce5c0c8ea50", "asm": "30450221009c6312b0c9894721339446e78e71309b82076e8b164625469804b06d79fa5feb02206431609e603d13380ed55e6e4a498d743b8b98a641228d86ffc2379119306722[ALL] 022b0fda7c23631434806cea3975125ebfbff1df8460272ca52eacfce5c0c8ea50"}, "vout": 0, "txid": "f572e71be220de4a4e786b5567e39d27a86377ccbd3c0c5b7648eba3a7a10942"}], "txid": "05396e87db3bff7db424eb46e78437f56005598b1721a0644d340091d3592603", "blocktime": 1537875543, "version": 1, "confirmations": 11464, "time": 1537875543, "locktime": 0, "vsize": 340, "size": 340}