{"hash": "053a3ec45319623eb68e6db1de34386c9db3f5c62b858b229269c843b77b68d7", "blockhash": "0000000000000000000baef3f32e3676a92c3b2e5da21b426e4f302fc371ce76", "vout": [{"scriptPubKey": {"reqSigs": 1, "hex": "a914354aa30983c2eb142d2216032e476ddf6b3f54ed87", "addresses": ["36Yo9a53wcjYQN44vZtFEYhB1BEm8rAxdU"], "asm": "OP_HASH160 354aa30983c2eb142d2216032e476ddf6b3f54ed OP_EQUAL", "type": "scripthash"}, "value": 0.06990893, "n": 0}, {"scriptPubKey": {"reqSigs": 1, "hex": "76a91443849383122ebb8a28268a89700c9f723663b5b888ac", "addresses": ["17A16QmavnUfCW11DAApiJxp7ARnxN5pGX"], "asm": "OP_DUP OP_HASH160 43849383122ebb8a28268a89700c9f723663b5b8 OP_EQUALVERIFY OP_CHECKSIG", "type": "pubkeyhash"}, "value": 84.7510494, "n": 1}], "hex": "020000000146a6c5eb42fb0b198c4f3d1c1f0a35f746cd07148952c2af90971e59d978199d020000008a4730440220660167ff07af5c9c207e6d466c71c76a26fb0c578823e4e464a426d02721c6e30220252f7d833b2c5550fbf4ad591960473edf8df3f1f19cb5aeb1d743306b77e6330141047146f0e0fcb3139947cf0beb870fe251930ca10d4545793d31033e801b5219abf56c11a3cf3406ca590e4c14b0dab749d20862b3adc4709153c280c2a78be10cffffffff022dac6a000000000017a914354aa30983c2eb142d2216032e476ddf6b3f54ed87acd627f9010000001976a91443849383122ebb8a28268a89700c9f723663b5b888ac00000000", "vin": [{"sequence": 4294967295, "scriptSig": {"hex": "4730440220660167ff07af5c9c207e6d466c71c76a26fb0c578823e4e464a426d02721c6e30220252f7d833b2c5550fbf4ad591960473edf8df3f1f19cb5aeb1d743306b77e6330141047146f0e0fcb3139947cf0beb870fe251930ca10d4545793d31033e801b5219abf56c11a3cf3406ca590e4c14b0dab749d20862b3adc4709153c280c2a78be10c", "asm": "30440220660167ff07af5c9c207e6d466c71c76a26fb0c578823e4e464a426d02721c6e30220252f7d833b2c5550fbf4ad591960473edf8df3f1f19cb5aeb1d743306b77e633[ALL] 047146f0e0fcb3139947cf0beb870fe251930ca10d4545793d31033e801b5219abf56c11a3cf3406ca590e4c14b0dab749d20862b3adc4709153c280c2a78be10c"}, "vout": 2, "txid": "9d1978d9591e9790afc252891407cd46f7350a1f1c3d4f8c190bfb42ebc5a646"}], "txid": "053a3ec45319623eb68e6db1de34386c9db3f5c62b858b229269c843b77b68d7", "blocktime": 1537876114, "version": 2, "confirmations": 11459, "time": 1537876114, "locktime": 0, "vsize": 255, "size": 255}