{"hash": "f2d9c6042c89d4ef92709281e90395a96a591e8f1df7d420a7f1f66117f5eaa0", "blockhash": "0000000000000000000e13cef7c366c0283d82e591d1acd082e914b08063cdf1", "vout": [{"scriptPubKey": {"reqSigs": 1, "hex": "a9147c5a45f4134d8ef17c3eded9d222cf3bc391b41e87", "addresses": ["3D2XrdHjnQtx2PBD6EGBWtPNXyA5TgMKcQ"], "asm": "OP_HASH160 7c5a45f4134d8ef17c3eded9d222cf3bc391b41e OP_EQUAL", "type": "scripthash"}, "value": 0.01000834, "n": 0}, {"scriptPubKey": {"reqSigs": 1, "hex": "76a9148daeac066cb1b888977c17956d097a46a27f384788ac", "addresses": ["1Dv9XUEY7ZmQh86VxbFp9VGBsUdHwTLShE"], "asm": "OP_DUP OP_HASH160 8daeac066cb1b888977c17956d097a46a27f3847 OP_EQUALVERIFY OP_CHECKSIG", "type": "pubkeyhash"}, "value": 0.366548, "n": 1}], "hex": "0200000000010285814c8e7a88216ce9b301e5cb11710779e445984ac2ff1e4887158971f2125000000000171600149a82a45ce53fbc298f3838c59d40ae5ef12d7474feffffff8ee1a20bf3e07e49bbb07e0974f2a0208a3e7b673c2fed834140887466add0532d00000017160014d6ba7e18457f12ffd078f3a614beb86821b1ef29feffffff0282450f000000000017a9147c5a45f4134d8ef17c3eded9d222cf3bc391b41e87d04e2f02000000001976a9148daeac066cb1b888977c17956d097a46a27f384788ac024830450221008f2833dcd44e3623cf74c35906e4100b4832e2d2f454003430b036a1bbb5e75802204adc5a8aaa71738bd27f2e777e60663d51eabcb9118e3899a2ad98fdba832c520121025c629bd11e26478ab6295beeaf5aee235db056bb72e71e04d38090f52e6657b70247304402202049ffc09d13544ea0a51bc5c6bff0c2aabf49be3c23e5a2b1ae0bc31d4396e30220117e417918b1fd3c22a09cbfed9bf7d7eeeb35563479b2a9c59ade027328fbc501210280173f30d37f88c0523a9289b0e3ff57f8d1c606c5fd36d45578aa4a14327e6bfd480800", "vin": [{"txinwitness": ["30450221008f2833dcd44e3623cf74c35906e4100b4832e2d2f454003430b036a1bbb5e75802204adc5a8aaa71738bd27f2e777e60663d51eabcb9118e3899a2ad98fdba832c5201", "025c629bd11e26478ab6295beeaf5aee235db056bb72e71e04d38090f52e6657b7"], "sequence": 4294967294, "scriptSig": {"hex": "1600149a82a45ce53fbc298f3838c59d40ae5ef12d7474", "asm": "00149a82a45ce53fbc298f3838c59d40ae5ef12d7474"}, "vout": 0, "txid": "5012f271891587481effc24a9845e479077111cbe501b3e96c21887a8e4c8185"}, {"txinwitness": ["304402202049ffc09d13544ea0a51bc5c6bff0c2aabf49be3c23e5a2b1ae0bc31d4396e30220117e417918b1fd3c22a09cbfed9bf7d7eeeb35563479b2a9c59ade027328fbc501", "0280173f30d37f88c0523a9289b0e3ff57f8d1c606c5fd36d45578aa4a14327e6b"], "sequence": 4294967294, "scriptSig": {"hex": "160014d6ba7e18457f12ffd078f3a614beb86821b1ef29", "asm": "0014d6ba7e18457f12ffd078f3a614beb86821b1ef29"}, "vout": 45, "txid": "53d0ad667488404183ed2f3c677b3e8a20a0f274097eb0bb497ee0f30ba2e18e"}], "txid": "053de7d4e5b30b33c6d18ed1cedc8bc873367f31c408f0d611d6792282f798c1", "blocktime": 1537871767, "version": 2, "confirmations": 11495, "time": 1537871767, "locktime": 542973, "vsize": 259, "size": 421}