{"hash": "1292787898e302afc5563e8136325c8c8fe2040b7cefbff6b5212ea75f1949a1", "blockhash": "0000000000000000001e0dab787dd257d1dbfcb92a98c2207d5e1078be1f4165", "vout": [{"scriptPubKey": {"reqSigs": 1, "hex": "a914a8f1a88625db0478fecff139e3441f9ca9857c7887", "addresses": ["3H6JwV2keUD8WEW9kPaQgxzLb1HW3prFUu"], "asm": "OP_HASH160 a8f1a88625db0478fecff139e3441f9ca9857c78 OP_EQUAL", "type": "scripthash"}, "value": 0.15650909, "n": 0}, {"scriptPubKey": {"reqSigs": 1, "hex": "a914c660fed6c0179a7062738f452b890ba3d3a3efbf87", "addresses": ["3KmwutXUpQm9E3ii4ushRV6TNMn19vgSk7"], "asm": "OP_HASH160 c660fed6c0179a7062738f452b890ba3d3a3efbf OP_EQUAL", "type": "scripthash"}, "value": 0.003488, "n": 1}], "hex": "02000000000101ae5e7247574c90c4cae166df323ae95775465dab4cfe33ec8dae5db611db945f0100000017160014a35c676e2d7590627aa30bd2904f09b4df1f35feffffffff025dd0ee000000000017a914a8f1a88625db0478fecff139e3441f9ca9857c7887805205000000000017a914c660fed6c0179a7062738f452b890ba3d3a3efbf8702483045022100b93b2e0883be96807efe560b1ac1eeede7961fcd541ffbb3c6afe80b6623ee4a02205ffae0d8077e4c4f5d9deeccf0177006832d5b8969051f1cf511ad2c694a58df01210397f118428edacdf3cd9a1492c5f2cd99e6609911eb315edac514f426f12ba1db00000000", "vin": [{"txinwitness": ["3045022100b93b2e0883be96807efe560b1ac1eeede7961fcd541ffbb3c6afe80b6623ee4a02205ffae0d8077e4c4f5d9deeccf0177006832d5b8969051f1cf511ad2c694a58df01", "0397f118428edacdf3cd9a1492c5f2cd99e6609911eb315edac514f426f12ba1db"], "sequence": 4294967295, "scriptSig": {"hex": "160014a35c676e2d7590627aa30bd2904f09b4df1f35fe", "asm": "0014a35c676e2d7590627aa30bd2904f09b4df1f35fe"}, "vout": 1, "txid": "5f94db11b65dae8dec33fe4cab5d467557e93a32df66e1cac4904c5747725eae"}], "txid": "053f226d471f7c2b262f3d96cad5f43ad670387717e465dfa2423b34127b3a27", "blocktime": 1537872475, "version": 2, "confirmations": 11487, "time": 1537872475, "locktime": 0, "vsize": 166, "size": 248}