{"hash": "05403bdc50fcb436654ff6dc2af36472ec2333aac8ec6df040d08f0a6ade9a8a", "blockhash": "00000000000000000004ffacab907a6b429b9a5745fa0b75af4234bf69dd7176", "vout": [{"scriptPubKey": {"reqSigs": 1, "hex": "a91473ac58dac8b339faa4c3b266bf2308ba33527a8487", "addresses": ["3CEe6VNEPKFiF9gcLeW9TeZCPAhjNSa52R"], "asm": "OP_HASH160 73ac58dac8b339faa4c3b266bf2308ba33527a84 OP_EQUAL", "type": "scripthash"}, "value": 0.06, "n": 0}, {"scriptPubKey": {"reqSigs": 1, "hex": "76a9149333b3d59c7c1877935a0ffaa86fc8fa80ceff8088ac", "addresses": ["1ERLGYuzUXbEopkx7JkJdT4xwiyVRJp4a8"], "asm": "OP_DUP OP_HASH160 9333b3d59c7c1877935a0ffaa86fc8fa80ceff80 OP_EQUALVERIFY OP_CHECKSIG", "type": "pubkeyhash"}, "value": 0.07141363, "n": 1}], "hex": "0100000002ce3d86ac5161ff981a4fa8afa377e2726e98bf3ee592e336c2df8806eeab844a000000006b483045022100ad0e8adf1e59039eeb6e9f60ef2e4b62e008eb9365527d83928d93ce24062eac0220616320434f89fdbb527f42482e72551d6774d6ca81c56349a5e5f1a4610dd1bb0121030cc520bd3969fe769640fc36c46c833f35bd9741aa69078eb8cab62c282cc3cdffffffff8cad43f6d6cee5f251afb5141fea5abc80ee732c88853151e46892a74faa37fb020000006b483045022100e1ce84835c6a8b476b309dacd452036e1aafc321631dd5a4149883505c9884b9022028a8de6c711cf64a90eebb041a2d9cab7ca43668882b8260f1250d529b8e010f0121030cc520bd3969fe769640fc36c46c833f35bd9741aa69078eb8cab62c282cc3cdffffffff02808d5b000000000017a91473ac58dac8b339faa4c3b266bf2308ba33527a8487f3f76c00000000001976a9149333b3d59c7c1877935a0ffaa86fc8fa80ceff8088ac00000000", "vin": [{"sequence": 4294967295, "scriptSig": {"hex": "483045022100ad0e8adf1e59039eeb6e9f60ef2e4b62e008eb9365527d83928d93ce24062eac0220616320434f89fdbb527f42482e72551d6774d6ca81c56349a5e5f1a4610dd1bb0121030cc520bd3969fe769640fc36c46c833f35bd9741aa69078eb8cab62c282cc3cd", "asm": "3045022100ad0e8adf1e59039eeb6e9f60ef2e4b62e008eb9365527d83928d93ce24062eac0220616320434f89fdbb527f42482e72551d6774d6ca81c56349a5e5f1a4610dd1bb[ALL] 030cc520bd3969fe769640fc36c46c833f35bd9741aa69078eb8cab62c282cc3cd"}, "vout": 0, "txid": "4a84abee0688dfc236e392e53ebf986e72e277a3afa84f1a98ff6151ac863dce"}, {"sequence": 4294967295, "scriptSig": {"hex": "483045022100e1ce84835c6a8b476b309dacd452036e1aafc321631dd5a4149883505c9884b9022028a8de6c711cf64a90eebb041a2d9cab7ca43668882b8260f1250d529b8e010f0121030cc520bd3969fe769640fc36c46c833f35bd9741aa69078eb8cab62c282cc3cd", "asm": "3045022100e1ce84835c6a8b476b309dacd452036e1aafc321631dd5a4149883505c9884b9022028a8de6c711cf64a90eebb041a2d9cab7ca43668882b8260f1250d529b8e010f[ALL] 030cc520bd3969fe769640fc36c46c833f35bd9741aa69078eb8cab62c282cc3cd"}, "vout": 2, "txid": "fb37aa4fa79268e4513185882c73ee80bc5aea1f14b5af51f2e5ced6f643ad8c"}], "txid": "05403bdc50fcb436654ff6dc2af36472ec2333aac8ec6df040d08f0a6ade9a8a", "blocktime": 1537875543, "version": 1, "confirmations": 11464, "time": 1537875543, "locktime": 0, "vsize": 372, "size": 372}