{"hash": "0543addb93c81549e38ac4073b7515bc4816a662a788962aec97cf9a763edb61", "blockhash": "00000000000000000017f5eb5941039fbcee6240d03bc1f2f8e35350df66a1d8", "vout": [{"scriptPubKey": {"reqSigs": 1, "hex": "a9145cf4ca34cc05882bcbbfa616b94b849d05d6618d87", "addresses": ["3AAXLVPqhapPBz5u8NH5RJ14JqFZv7B2Ne"], "asm": "OP_HASH160 5cf4ca34cc05882bcbbfa616b94b849d05d6618d OP_EQUAL", "type": "scripthash"}, "value": 0.634384, "n": 0}, {"scriptPubKey": {"reqSigs": 1, "hex": "76a914f7f2a2eae5d09c651555abd37a8297ec89a76d6188ac", "addresses": ["1Pc2a4AP417otVPRm89cMerqEYG7AkeoNT"], "asm": "OP_DUP OP_HASH160 f7f2a2eae5d09c651555abd37a8297ec89a76d61 OP_EQUALVERIFY OP_CHECKSIG", "type": "pubkeyhash"}, "value": 86.6549922, "n": 1}], "hex": "01000000010ed70e33889e477504730df384815445ff0a8088e084786a82dc56a281a10911010000006b483045022100a26c643bd82850d446c6db0f7c998ad7a56ac048ee899149a6ff384de096914f0220386bfcd2508f50439ebbbc8911337f746904651e24c24bba3342102c8795953701210308344c095c81f8d4cdc3f4a376c4470e852218823c4f7067f2208e1b9442e4edffffffff0240fec7030000000017a9145cf4ca34cc05882bcbbfa616b94b849d05d6618d8754068104020000001976a914f7f2a2eae5d09c651555abd37a8297ec89a76d6188ac00000000", "vin": [{"sequence": 4294967295, "scriptSig": {"hex": "483045022100a26c643bd82850d446c6db0f7c998ad7a56ac048ee899149a6ff384de096914f0220386bfcd2508f50439ebbbc8911337f746904651e24c24bba3342102c8795953701210308344c095c81f8d4cdc3f4a376c4470e852218823c4f7067f2208e1b9442e4ed", "asm": "3045022100a26c643bd82850d446c6db0f7c998ad7a56ac048ee899149a6ff384de096914f0220386bfcd2508f50439ebbbc8911337f746904651e24c24bba3342102c87959537[ALL] 0308344c095c81f8d4cdc3f4a376c4470e852218823c4f7067f2208e1b9442e4ed"}, "vout": 1, "txid": "1109a181a256dc826a7884e088800aff45548184f30d730475479e88330ed70e"}], "txid": "0543addb93c81549e38ac4073b7515bc4816a662a788962aec97cf9a763edb61", "blocktime": 1537874412, "version": 1, "confirmations": 11466, "time": 1537874412, "locktime": 0, "vsize": 224, "size": 224}