{"hash": "0545508a8eff6d1d1ba40e060c4067b6cf9ed1dbb4a5cc6087d5a5fbe08b2621", "blockhash": "0000000000000000000dcc0f55137456b1a82d3642486a52398922ac4d620174", "vout": [{"scriptPubKey": {"reqSigs": 1, "hex": "76a9144ac2198b480dc2ed4ee7bd29656c88774ec8b4ac88ac", "addresses": ["17pHXV7Y3r6PrkyzBfJErviirShz5kg4f4"], "asm": "OP_DUP OP_HASH160 4ac2198b480dc2ed4ee7bd29656c88774ec8b4ac OP_EQUALVERIFY OP_CHECKSIG", "type": "pubkeyhash"}, "value": 0.01107873, "n": 0}, {"scriptPubKey": {"reqSigs": 1, "hex": "a9141e735aed4c818c3831654058465625dc3a79841587", "addresses": ["34U2PKMiqxbafeYPgvP9zHWVYTYjuaVvrp"], "asm": "OP_HASH160 1e735aed4c818c3831654058465625dc3a798415 OP_EQUAL", "type": "scripthash"}, "value": 0.00849035, "n": 1}], "hex": "020000000317f468fdf053289eee06339e9f8ceff1f52fd057b3fc32c186cad670eea8b1bf010000006b483045022100b12ed22b2e037952da2f13f5f6558b6ecb8888a3a26d19f2f702893d4da4a3fd02203ec127a54a250c5513841adf88655a438b8e97dfb20e5e4e73986d3c688c50f20121025b22f42ef8f8ef7dcc7fcdc365d990b5bb59043ce40d6232f7a7e86903768505feffffff21ba5cf02534d4ebbd5b40c4268982b08fedd119ed2985cc570ee11354979c58010000006b483045022100fe9f5fb5a8b6bbbdcafca64f4b1852dea0950336f5b6ef85fc97776f14c48d94022077cc88c5027ef1397c7a394015ee1cec8e2e2168d83e3cf46b18307fbb41b8810121021648d87815ab5431fd3eb3b140f5347561874caf68a70aa3edee3a75d89f0350feffffff60bac4ebb7ba4c5849fd4f05a7d3090fd70cb292414cf4d6d3e91b4cf171d71b000000006b48304502210084159f5906245c6092de1217881088a3759e8106e5db36536a2eb5cc77ee440202202960d47db488ae923dfc2fd87c1a623ce0d718a32fa7012da84a07efc41ebd32012102fd7d8c004064cc35359cef20f60481f3537633b718e7788a52022e13a87bb021feffffff02a1e71000000000001976a9144ac2198b480dc2ed4ee7bd29656c88774ec8b4ac88ac8bf40c000000000017a9141e735aed4c818c3831654058465625dc3a798415870c490800", "vin": [{"sequence": 4294967294, "scriptSig": {"hex": "483045022100b12ed22b2e037952da2f13f5f6558b6ecb8888a3a26d19f2f702893d4da4a3fd02203ec127a54a250c5513841adf88655a438b8e97dfb20e5e4e73986d3c688c50f20121025b22f42ef8f8ef7dcc7fcdc365d990b5bb59043ce40d6232f7a7e86903768505", "asm": "3045022100b12ed22b2e037952da2f13f5f6558b6ecb8888a3a26d19f2f702893d4da4a3fd02203ec127a54a250c5513841adf88655a438b8e97dfb20e5e4e73986d3c688c50f2[ALL] 025b22f42ef8f8ef7dcc7fcdc365d990b5bb59043ce40d6232f7a7e86903768505"}, "vout": 1, "txid": "bfb1a8ee70d6ca86c132fcb357d02ff5f1ef8c9f9e3306ee9e2853f0fd68f417"}, {"sequence": 4294967294, "scriptSig": {"hex": "483045022100fe9f5fb5a8b6bbbdcafca64f4b1852dea0950336f5b6ef85fc97776f14c48d94022077cc88c5027ef1397c7a394015ee1cec8e2e2168d83e3cf46b18307fbb41b8810121021648d87815ab5431fd3eb3b140f5347561874caf68a70aa3edee3a75d89f0350", "asm": "3045022100fe9f5fb5a8b6bbbdcafca64f4b1852dea0950336f5b6ef85fc97776f14c48d94022077cc88c5027ef1397c7a394015ee1cec8e2e2168d83e3cf46b18307fbb41b881[ALL] 021648d87815ab5431fd3eb3b140f5347561874caf68a70aa3edee3a75d89f0350"}, "vout": 1, "txid": "589c975413e10e57cc8529ed19d1ed8fb0828926c4405bbdebd43425f05cba21"}, {"sequence": 4294967294, "scriptSig": {"hex": "48304502210084159f5906245c6092de1217881088a3759e8106e5db36536a2eb5cc77ee440202202960d47db488ae923dfc2fd87c1a623ce0d718a32fa7012da84a07efc41ebd32012102fd7d8c004064cc35359cef20f60481f3537633b718e7788a52022e13a87bb021", "asm": "304502210084159f5906245c6092de1217881088a3759e8106e5db36536a2eb5cc77ee440202202960d47db488ae923dfc2fd87c1a623ce0d718a32fa7012da84a07efc41ebd32[ALL] 02fd7d8c004064cc35359cef20f60481f3537633b718e7788a52022e13a87bb021"}, "vout": 0, "txid": "1bd771f14c1be9d3d6f44c4192b20cd70f09d3a7054ffd49584cbab7ebc4ba60"}], "txid": "0545508a8eff6d1d1ba40e060c4067b6cf9ed1dbb4a5cc6087d5a5fbe08b2621", "blocktime": 1537870268, "version": 2, "confirmations": 11519, "time": 1537870268, "locktime": 542988, "vsize": 520, "size": 520}