{"hash": "05467454bf8ffbff4d44ec0877ed22cf04a6857faafaddbae39ab12dda1bc265", "blockhash": "00000000000000000017f5eb5941039fbcee6240d03bc1f2f8e35350df66a1d8", "vout": [{"scriptPubKey": {"reqSigs": 1, "hex": "76a91432bcd34c86b53e74c3d7ac199f35eb2cb640a81d88ac", "addresses": ["15dGzQk9QLJKPFJVnLJF89PFwJGtsjQbHX"], "asm": "OP_DUP OP_HASH160 32bcd34c86b53e74c3d7ac199f35eb2cb640a81d OP_EQUALVERIFY OP_CHECKSIG", "type": "pubkeyhash"}, "value": 0.00197355, "n": 0}, {"scriptPubKey": {"reqSigs": 1, "hex": "a914da55387f384a60b5f23e4f08bc4cf295881acb1787", "addresses": ["3MbTKbmPKMnfycAXcK7pSGm4ERixTctVux"], "asm": "OP_HASH160 da55387f384a60b5f23e4f08bc4cf295881acb17 OP_EQUAL", "type": "scripthash"}, "value": 0.00381407, "n": 1}], "hex": "0100000001a9f0ce5f1e52fc41a64d169192d624ae054a94aa684b00bcd15a3d752e3e1481b10000006b48304502210097d236ee6c7120ff94cd7998bac408cde08e717174deed0fede7baf9a8cd50450220248e49c859094de3ee58138f08c9f507d43c6aa5f01176a2585e9080d60727c101210365706ac2a9c95bf01ccae854f5ee734d52acb9eca4795bb30540c23fceb352a7ffffffff02eb020300000000001976a91432bcd34c86b53e74c3d7ac199f35eb2cb640a81d88acdfd105000000000017a914da55387f384a60b5f23e4f08bc4cf295881acb178700000000", "vin": [{"sequence": 4294967295, "scriptSig": {"hex": "48304502210097d236ee6c7120ff94cd7998bac408cde08e717174deed0fede7baf9a8cd50450220248e49c859094de3ee58138f08c9f507d43c6aa5f01176a2585e9080d60727c101210365706ac2a9c95bf01ccae854f5ee734d52acb9eca4795bb30540c23fceb352a7", "asm": "304502210097d236ee6c7120ff94cd7998bac408cde08e717174deed0fede7baf9a8cd50450220248e49c859094de3ee58138f08c9f507d43c6aa5f01176a2585e9080d60727c1[ALL] 0365706ac2a9c95bf01ccae854f5ee734d52acb9eca4795bb30540c23fceb352a7"}, "vout": 177, "txid": "81143e2e753d5ad1bc004b68aa944a05ae24d69291164da641fc521e5fcef0a9"}], "txid": "05467454bf8ffbff4d44ec0877ed22cf04a6857faafaddbae39ab12dda1bc265", "blocktime": 1537874412, "version": 1, "confirmations": 11468, "time": 1537874412, "locktime": 0, "vsize": 224, "size": 224}