{"hash": "054d801abd9e391e028b8add4974815bde2c2d469b49b2d12f217e24f224bd90", "blockhash": "0000000000000000001f76057863aec43deb6fa401d9628bb513d65a8098bfab", "vout": [{"scriptPubKey": {"reqSigs": 1, "hex": "76a914e3bc6e24249c89769e049d229e23ae973cead5af88ac", "addresses": ["1MmA7ufdc8yc6yxk2SJfZxKxNqsQ1UXfcc"], "asm": "OP_DUP OP_HASH160 e3bc6e24249c89769e049d229e23ae973cead5af OP_EQUALVERIFY OP_CHECKSIG", "type": "pubkeyhash"}, "value": 0.00218977, "n": 0}, {"scriptPubKey": {"reqSigs": 1, "hex": "76a914eb6327e603a448eeb96839d58c162f4d03cdf0b188ac", "addresses": ["1NTcaYsxKB8mTzbfm1dZYogiCNvZXPSPAn"], "asm": "OP_DUP OP_HASH160 eb6327e603a448eeb96839d58c162f4d03cdf0b1 OP_EQUALVERIFY OP_CHECKSIG", "type": "pubkeyhash"}, "value": 0.00686935, "n": 1}], "hex": "0100000004775dc62328666cdebb55a7d8eb41c9c8c8fa5d51957f45c7cc9fb16a05dd6655000000006b4830450221009bbb502a8cfa1f4de13c32d9bcdbadf27fe0c33ea038cbfa7ccee8ced754bb9902204fe5d2052b17955df9c644065d42a6657a8132246097a4ccca44e0e2daf9da7b012102b9aa6b908ac09ba1aa3e90d4835753fb361fd3a1fa5f5e6fc560f5839734b157ffffffff376cbe282963593a2535da228d87a27ad99928c28c1a10fccc19c0de3c94e957000000006a47304402205532783dc85029004358ab1e2f866a356658268cf8defbdbb408b768a66c9f0d0220797aea504742ac135db3e2302845c4ba1f605aafc5d22b6af83a71b9af681d52012102b9aa6b908ac09ba1aa3e90d4835753fb361fd3a1fa5f5e6fc560f5839734b157ffffffff7b88836174bd843c7c4045c4ac39c8b135a897d61ea3ddf8110ce2be5bcd2684000000006a47304402201e71b35d94cda9adabd101bf981358c182aac8c2c861110eabd982354b1f863f02202a80e8c22cd4e44a27362395d8259d2b02d60ad468969274f15c593fcfb86291012102b9aa6b908ac09ba1aa3e90d4835753fb361fd3a1fa5f5e6fc560f5839734b157ffffffff6d63e9b0e832da8ec83eb2f904bc2bb744ee08d00b22fdb6f992e881cd71a3ea010000006a47304402205d55046fe8905e02bc7999a56fa8a0c3c247be525886b617fc294488a7efd232022036e72ab9c0222efde036d5fc39d4167447074792c7491d803938ec0347c81279012102b9aa6b908ac09ba1aa3e90d4835753fb361fd3a1fa5f5e6fc560f5839734b157ffffffff0261570300000000001976a914e3bc6e24249c89769e049d229e23ae973cead5af88ac577b0a00000000001976a914eb6327e603a448eeb96839d58c162f4d03cdf0b188ac00000000", "vin": [{"sequence": 4294967295, "scriptSig": {"hex": "4830450221009bbb502a8cfa1f4de13c32d9bcdbadf27fe0c33ea038cbfa7ccee8ced754bb9902204fe5d2052b17955df9c644065d42a6657a8132246097a4ccca44e0e2daf9da7b012102b9aa6b908ac09ba1aa3e90d4835753fb361fd3a1fa5f5e6fc560f5839734b157", "asm": "30450221009bbb502a8cfa1f4de13c32d9bcdbadf27fe0c33ea038cbfa7ccee8ced754bb9902204fe5d2052b17955df9c644065d42a6657a8132246097a4ccca44e0e2daf9da7b[ALL] 02b9aa6b908ac09ba1aa3e90d4835753fb361fd3a1fa5f5e6fc560f5839734b157"}, "vout": 0, "txid": "5566dd056ab19fccc7457f95515dfac8c8c941ebd8a755bbde6c662823c65d77"}, {"sequence": 4294967295, "scriptSig": {"hex": "47304402205532783dc85029004358ab1e2f866a356658268cf8defbdbb408b768a66c9f0d0220797aea504742ac135db3e2302845c4ba1f605aafc5d22b6af83a71b9af681d52012102b9aa6b908ac09ba1aa3e90d4835753fb361fd3a1fa5f5e6fc560f5839734b157", "asm": "304402205532783dc85029004358ab1e2f866a356658268cf8defbdbb408b768a66c9f0d0220797aea504742ac135db3e2302845c4ba1f605aafc5d22b6af83a71b9af681d52[ALL] 02b9aa6b908ac09ba1aa3e90d4835753fb361fd3a1fa5f5e6fc560f5839734b157"}, "vout": 0, "txid": "57e9943cdec019ccfc101a8cc22899d97aa2878d22da35253a59632928be6c37"}, {"sequence": 4294967295, "scriptSig": {"hex": "47304402201e71b35d94cda9adabd101bf981358c182aac8c2c861110eabd982354b1f863f02202a80e8c22cd4e44a27362395d8259d2b02d60ad468969274f15c593fcfb86291012102b9aa6b908ac09ba1aa3e90d4835753fb361fd3a1fa5f5e6fc560f5839734b157", "asm": "304402201e71b35d94cda9adabd101bf981358c182aac8c2c861110eabd982354b1f863f02202a80e8c22cd4e44a27362395d8259d2b02d60ad468969274f15c593fcfb86291[ALL] 02b9aa6b908ac09ba1aa3e90d4835753fb361fd3a1fa5f5e6fc560f5839734b157"}, "vout": 0, "txid": "8426cd5bbee20c11f8dda31ed697a835b1c839acc445407c3c84bd746183887b"}, {"sequence": 4294967295, "scriptSig": {"hex": "47304402205d55046fe8905e02bc7999a56fa8a0c3c247be525886b617fc294488a7efd232022036e72ab9c0222efde036d5fc39d4167447074792c7491d803938ec0347c81279012102b9aa6b908ac09ba1aa3e90d4835753fb361fd3a1fa5f5e6fc560f5839734b157", "asm": "304402205d55046fe8905e02bc7999a56fa8a0c3c247be525886b617fc294488a7efd232022036e72ab9c0222efde036d5fc39d4167447074792c7491d803938ec0347c81279[ALL] 02b9aa6b908ac09ba1aa3e90d4835753fb361fd3a1fa5f5e6fc560f5839734b157"}, "vout": 1, "txid": "eaa371cd81e892f9b6fd220bd008ee44b72bbc04f9b23ec88eda32e8b0e9636d"}], "txid": "054d801abd9e391e028b8add4974815bde2c2d469b49b2d12f217e24f224bd90", "blocktime": 1537873891, "version": 1, "confirmations": 11478, "time": 1537873891, "locktime": 0, "vsize": 667, "size": 667}