{"hash": "05507c8f4a8e61469ac4158cb72b0c63436e2105f238681374144540a24e25e9", "blockhash": "0000000000000000001e0dab787dd257d1dbfcb92a98c2207d5e1078be1f4165", "vout": [{"scriptPubKey": {"type": "nulldata", "hex": "6a146f6d6e69000000000000001f000000011064aa80", "asm": "OP_RETURN 6f6d6e69000000000000001f000000011064aa80"}, "value": 0.0, "n": 0}, {"scriptPubKey": {"reqSigs": 1, "hex": "76a914a25dec4d0011064ef106a983c39c7a540699f22088ac", "addresses": ["1FoWyxwPXuj4C6abqwhjDWdz6D4PZgYRjA"], "asm": "OP_DUP OP_HASH160 a25dec4d0011064ef106a983c39c7a540699f220 OP_EQUALVERIFY OP_CHECKSIG", "type": "pubkeyhash"}, "value": 0.01995188, "n": 1}, {"scriptPubKey": {"reqSigs": 1, "hex": "76a914f4024a4ae3212ec0bdc669750ebc721b71f609aa88ac", "addresses": ["1PFCcw7ArDCH6FJ1KNbNbcmBR2KxcSfupp"], "asm": "OP_DUP OP_HASH160 f4024a4ae3212ec0bdc669750ebc721b71f609aa OP_EQUALVERIFY OP_CHECKSIG", "type": "pubkeyhash"}, "value": 5.46e-06, "n": 2}], "hex": "0100000001a44813c76173a4fe9689194c29809e35be05f1741d9b5e1e9e8bd44070ac1fea730000006b4830450221009cf9590614e71b9ced33a714a9d1fb6c39a0bdaae3c6c7c1c201ebbf0965d68f02201da3a9581034554b56d3ff158f9f3c9e6623c706d0544eb2f71800bf9b219dd5012103da5bac7b36d5aa38f531c6b9601e21bb598a4b6716ebed38b009a55dabde9440feffffff030000000000000000166a146f6d6e69000000000000001f000000011064aa80b4711e00000000001976a914a25dec4d0011064ef106a983c39c7a540699f22088ac22020000000000001976a914f4024a4ae3212ec0bdc669750ebc721b71f609aa88ac11490800", "vin": [{"sequence": 4294967294, "scriptSig": {"hex": "4830450221009cf9590614e71b9ced33a714a9d1fb6c39a0bdaae3c6c7c1c201ebbf0965d68f02201da3a9581034554b56d3ff158f9f3c9e6623c706d0544eb2f71800bf9b219dd5012103da5bac7b36d5aa38f531c6b9601e21bb598a4b6716ebed38b009a55dabde9440", "asm": "30450221009cf9590614e71b9ced33a714a9d1fb6c39a0bdaae3c6c7c1c201ebbf0965d68f02201da3a9581034554b56d3ff158f9f3c9e6623c706d0544eb2f71800bf9b219dd5[ALL] 03da5bac7b36d5aa38f531c6b9601e21bb598a4b6716ebed38b009a55dabde9440"}, "vout": 115, "txid": "ea1fac7040d48b9e1e5e9b1d74f105be359e80294c198996fea47361c71348a4"}], "txid": "05507c8f4a8e61469ac4158cb72b0c63436e2105f238681374144540a24e25e9", "blocktime": 1537872475, "version": 1, "confirmations": 11486, "time": 1537872475, "locktime": 542993, "vsize": 257, "size": 257}