{"hash": "ccabccb90cbf9c6e778ab15a30cd06890acbdc5d853b5284bcd2124b2a941c1e", "blockhash": "0000000000000000000e13cef7c366c0283d82e591d1acd082e914b08063cdf1", "vout": [{"scriptPubKey": {"reqSigs": 1, "hex": "a9145c71acb163f54ebf6653f818755a8266463707b287", "addresses": ["3A7pGSWHzgWMArKC6TkfxehC74BcHvkfa6"], "asm": "OP_HASH160 5c71acb163f54ebf6653f818755a8266463707b2 OP_EQUAL", "type": "scripthash"}, "value": 4.66, "n": 0}, {"scriptPubKey": {"reqSigs": 1, "hex": "a914db1167eaf6829d2b460349786cd001821df8ec0e87", "addresses": ["3MfLkwTczzTfWFzRtQX8EYRNm87fzu7K6Z"], "asm": "OP_HASH160 db1167eaf6829d2b460349786cd001821df8ec0e OP_EQUAL", "type": "scripthash"}, "value": 4.98968102, "n": 1}], "hex": "010000000001028b6367c0022665bd28a3b8654bd9bb1f7b6644f7238949727fd5fb5f1b7b252701000000171600149f8956148d560722072dfd653fc237b6a362d0a7ffffffff8221371ea04695d0170065f6e50e2518da08d3dd5b16b7ea637560cf57db3bc80100000017160014af487bcf46dbfceeb247862c619f9b873de59f79ffffffff028098c61b0000000017a9145c71acb163f54ebf6653f818755a8266463707b28726a6bd1d0000000017a914db1167eaf6829d2b460349786cd001821df8ec0e870248304502210080ea4ba12025778de44c54d1ef8880864ded7e835dc562ed864f7dedf31f5dd302206f159099a3991955751b9e7b6e4080505c50dcb239bf180402b4184e704b5ec501210282214a4d816fe071293e26455f51810328f67a1d34e96c1954a579c78e1ab411024730440220134af7bd70348313c50b467e7e4cd9ce071b192279494c7b2770af45713638670220646c12d5af3da54b3b9f459254ca95d292336ed21e69fc0839baf9aac49b195f012102743f325dc13a1f6fb40057848263aaa198f50377d2341518b88352e9ac99343500000000", "vin": [{"txinwitness": ["304502210080ea4ba12025778de44c54d1ef8880864ded7e835dc562ed864f7dedf31f5dd302206f159099a3991955751b9e7b6e4080505c50dcb239bf180402b4184e704b5ec501", "0282214a4d816fe071293e26455f51810328f67a1d34e96c1954a579c78e1ab411"], "sequence": 4294967295, "scriptSig": {"hex": "1600149f8956148d560722072dfd653fc237b6a362d0a7", "asm": "00149f8956148d560722072dfd653fc237b6a362d0a7"}, "vout": 1, "txid": "27257b1b5ffbd57f72498923f744667b1fbbd94b65b8a328bd652602c067638b"}, {"txinwitness": ["30440220134af7bd70348313c50b467e7e4cd9ce071b192279494c7b2770af45713638670220646c12d5af3da54b3b9f459254ca95d292336ed21e69fc0839baf9aac49b195f01", "02743f325dc13a1f6fb40057848263aaa198f50377d2341518b88352e9ac993435"], "sequence": 4294967295, "scriptSig": {"hex": "160014af487bcf46dbfceeb247862c619f9b873de59f79", "asm": "0014af487bcf46dbfceeb247862c619f9b873de59f79"}, "vout": 1, "txid": "c83bdb57cf607563eab7165bddd308da18250ee5f6650017d09546a01e372182"}], "txid": "055891dbbc6f474e6c6211fbd02776f379bfcaaeb1a3fc19171804bcee394d2f", "blocktime": 1537871767, "version": 1, "confirmations": 11490, "time": 1537871767, "locktime": 0, "vsize": 257, "size": 419}