{"hash": "89575d0c3c2f619f788195a713a00dc8d481b493727efdf82b161e6a333d7d23", "blockhash": "0000000000000000001cda96e906b7601b7a6fb1a3b62bca570a9e5d8f4b3de1", "vout": [{"scriptPubKey": {"reqSigs": 1, "hex": "a9140608354ae2f5ead93d570d98d071aa38de073f1b87", "addresses": ["32Eup1TPADYTAa46wq48c7qmg7AuFwigeM"], "asm": "OP_HASH160 0608354ae2f5ead93d570d98d071aa38de073f1b OP_EQUAL", "type": "scripthash"}, "value": 0.0007208, "n": 0}, {"scriptPubKey": {"reqSigs": 1, "hex": "76a9141697f5a07c83f663a4d5bf4cea266ff0ab62095e88ac", "addresses": ["134TuYuMP5L6zVEzcPW5iFieDekoWiihKQ"], "asm": "OP_DUP OP_HASH160 1697f5a07c83f663a4d5bf4cea266ff0ab62095e OP_EQUALVERIFY OP_CHECKSIG", "type": "pubkeyhash"}, "value": 0.0139646, "n": 1}], "hex": "010000000001026f122eddefcca4e952a50100f188bcfb06da2965861d12e8edc03173789655790100000017160014fc1ffd31768558fea0f2e12c6ec3df3980164f6affffffff3865831023d66b70271638bff1e1daefd410549f0f0220aac8293220ccd3a8ec0000000017160014aee44c16ee80a4aa99715e012c5df333f4da151effffffff02901901000000000017a9140608354ae2f5ead93d570d98d071aa38de073f1b87ec4e1500000000001976a9141697f5a07c83f663a4d5bf4cea266ff0ab62095e88ac024730440220656f1ce66b4a7ad54ec12db644c73821e540026c5b6aa58092978d0782d7b1f102202a0623d757196d64a4f4c66d7faedbb5a254356763d805a4a3e926ba5e47ac9001210364a549c76186a852451008a53e53b739b98d4d0e92804e6ae66697f942a2447402483045022100bbe5ebed2499bc0766af429292034d6e4dd1a08c4013193403dd54fb0c419597022027a47815e1fd4bdd76b502c0d3b428f0f818903086073f9492f90e86215d7de9012103ea9135b3442ac650900d33b793a5a126e1a13fe90a706cfcea3e0a0852fb8f4c00000000", "vin": [{"txinwitness": ["30440220656f1ce66b4a7ad54ec12db644c73821e540026c5b6aa58092978d0782d7b1f102202a0623d757196d64a4f4c66d7faedbb5a254356763d805a4a3e926ba5e47ac9001", "0364a549c76186a852451008a53e53b739b98d4d0e92804e6ae66697f942a24474"], "sequence": 4294967295, "scriptSig": {"hex": "160014fc1ffd31768558fea0f2e12c6ec3df3980164f6a", "asm": "0014fc1ffd31768558fea0f2e12c6ec3df3980164f6a"}, "vout": 1, "txid": "795596787331c0ede8121d866529da06fbbc88f10001a552e9a4ccefdd2e126f"}, {"txinwitness": ["3045022100bbe5ebed2499bc0766af429292034d6e4dd1a08c4013193403dd54fb0c419597022027a47815e1fd4bdd76b502c0d3b428f0f818903086073f9492f90e86215d7de901", "03ea9135b3442ac650900d33b793a5a126e1a13fe90a706cfcea3e0a0852fb8f4c"], "sequence": 4294967295, "scriptSig": {"hex": "160014aee44c16ee80a4aa99715e012c5df333f4da151e", "asm": "0014aee44c16ee80a4aa99715e012c5df333f4da151e"}, "vout": 0, "txid": "eca8d3cc203229c8aa20020f9f5410d4efdae1f1bf381627706bd62310836538"}], "txid": "055ae5121e023dc46a68c835465ef313e52d0a7c729c939191f74ed4741e1259", "blocktime": 1537873282, "version": 1, "confirmations": 11481, "time": 1537873282, "locktime": 0, "vsize": 259, "size": 421}