{"hash": "055ce2f10c82949e65894b8890f4c21fcf757c50ee2adcf0d85531dc94494535", "blockhash": "0000000000000000000e13cef7c366c0283d82e591d1acd082e914b08063cdf1", "vout": [{"scriptPubKey": {"reqSigs": 1, "hex": "a9141d3ab4572d5d2caeac367fa5a777fb18eedc0d3387", "addresses": ["34MZqxrnW1uP83Pq6GsaAs28qhKfdGFCug"], "asm": "OP_HASH160 1d3ab4572d5d2caeac367fa5a777fb18eedc0d33 OP_EQUAL", "type": "scripthash"}, "value": 0.0024, "n": 0}, {"scriptPubKey": {"reqSigs": 1, "hex": "76a9146e9dcec8ba59c91db860152bc159d652e3708ac688ac", "addresses": ["1B5tNn1gdeoYuSZTYhqPyh7QzZVkSfVsdT"], "asm": "OP_DUP OP_HASH160 6e9dcec8ba59c91db860152bc159d652e3708ac6 OP_EQUALVERIFY OP_CHECKSIG", "type": "pubkeyhash"}, "value": 0.00808822, "n": 1}], "hex": "01000000015083b0ddc0711d681f3cebce539190f005a8e8fad272b4507df7e7922cc87e1e000000006b483045022100a3043ef3bd1dc800c0e1926e81834a61ca3480202c87887bfe676c11fb29c59902203c1e1e2b7c076c6bd023e08b13d71194aa45747ad2617a9d12423b408cba327c012103ede9842052e381109349fbcf632bb5f5a45663808ca3db328444eea95195abc4ffffffff0280a903000000000017a9141d3ab4572d5d2caeac367fa5a777fb18eedc0d338776570c00000000001976a9146e9dcec8ba59c91db860152bc159d652e3708ac688ac00000000", "vin": [{"sequence": 4294967295, "scriptSig": {"hex": "483045022100a3043ef3bd1dc800c0e1926e81834a61ca3480202c87887bfe676c11fb29c59902203c1e1e2b7c076c6bd023e08b13d71194aa45747ad2617a9d12423b408cba327c012103ede9842052e381109349fbcf632bb5f5a45663808ca3db328444eea95195abc4", "asm": "3045022100a3043ef3bd1dc800c0e1926e81834a61ca3480202c87887bfe676c11fb29c59902203c1e1e2b7c076c6bd023e08b13d71194aa45747ad2617a9d12423b408cba327c[ALL] 03ede9842052e381109349fbcf632bb5f5a45663808ca3db328444eea95195abc4"}, "vout": 0, "txid": "1e7ec82c92e7f77d50b472d2fae8a805f0909153ceeb3c1f681d71c0ddb08350"}], "txid": "055ce2f10c82949e65894b8890f4c21fcf757c50ee2adcf0d85531dc94494535", "blocktime": 1537871767, "version": 1, "confirmations": 11491, "time": 1537871767, "locktime": 0, "vsize": 224, "size": 224}