{"hash": "055e78fd31c36a71623b2b560d68576f002e956e6c419d3cea9f540bbd20aa89", "blockhash": "0000000000000000000baef3f32e3676a92c3b2e5da21b426e4f302fc371ce76", "vout": [{"scriptPubKey": {"reqSigs": 1, "hex": "76a91445ce52b7d2de776a3166b60a6833fee14dd68d6c88ac", "addresses": ["17N6npS8za9KSssJ9SZbcnVREXDRB1okz6"], "asm": "OP_DUP OP_HASH160 45ce52b7d2de776a3166b60a6833fee14dd68d6c OP_EQUALVERIFY OP_CHECKSIG", "type": "pubkeyhash"}, "value": 0.00299, "n": 0}], "hex": "0100000001cb85168aef34132e63cdf62e81816017f7d70effa454dac7b48c22fbaac60433010000006a473044022019603973d3cd34ede3ce29a62421ac812c761006e595370639a77e295a825e0602205c5b3e5abfff893de66dd1faa378e9c7ed58b7f2a8249a9701fa882a7c84ad9a01210248c74c480e5960b9efa79d762a937010b644959bdeed93ac276ddf7d9de12932ffffffff01f88f0400000000001976a91445ce52b7d2de776a3166b60a6833fee14dd68d6c88ac00000000", "vin": [{"sequence": 4294967295, "scriptSig": {"hex": "473044022019603973d3cd34ede3ce29a62421ac812c761006e595370639a77e295a825e0602205c5b3e5abfff893de66dd1faa378e9c7ed58b7f2a8249a9701fa882a7c84ad9a01210248c74c480e5960b9efa79d762a937010b644959bdeed93ac276ddf7d9de12932", "asm": "3044022019603973d3cd34ede3ce29a62421ac812c761006e595370639a77e295a825e0602205c5b3e5abfff893de66dd1faa378e9c7ed58b7f2a8249a9701fa882a7c84ad9a[ALL] 0248c74c480e5960b9efa79d762a937010b644959bdeed93ac276ddf7d9de12932"}, "vout": 1, "txid": "3304c6aafb228cb4c7da54a4ff0ed7f7176081812ef6cd632e1334ef8a1685cb"}], "txid": "055e78fd31c36a71623b2b560d68576f002e956e6c419d3cea9f540bbd20aa89", "blocktime": 1537876114, "version": 1, "confirmations": 11460, "time": 1537876114, "locktime": 0, "vsize": 191, "size": 191}