{"hash": "720e1f2970211094080e08ff4ec219d466f1a4a61d0cf5d12cdd4d96e11b64e8", "blockhash": "00000000000000000004ffacab907a6b429b9a5745fa0b75af4234bf69dd7176", "vout": [{"scriptPubKey": {"reqSigs": 1, "hex": "76a9149c94a66f964c8c73546636b1cac9bef7262771ec88ac", "addresses": ["1FGvVKTwkfDMHiTHqvUf6TccPzAxfZXQqu"], "asm": "OP_DUP OP_HASH160 9c94a66f964c8c73546636b1cac9bef7262771ec OP_EQUALVERIFY OP_CHECKSIG", "type": "pubkeyhash"}, "value": 0.00461588, "n": 0}], "hex": "010000000001015e2c24a133e9e36a8fb3cf869af89284be65cf6c17beaf488a61f31b4c85f1310100000000ffffffff01140b0700000000001976a9149c94a66f964c8c73546636b1cac9bef7262771ec88ac02483045022100b89c499a1ceb63cde5cc4a0ea630c0f9d4a94acad496d10a4ce56f20b0e5ecad022001e21d1e658c29779a6c89e11a34b5473dda46d946c499e802ebc969eb87a9e2012102497e443a3860c5ba9fa4f3c5c701ff201181aaa316a099d26cce0fcca8467db800000000", "vin": [{"txinwitness": ["3045022100b89c499a1ceb63cde5cc4a0ea630c0f9d4a94acad496d10a4ce56f20b0e5ecad022001e21d1e658c29779a6c89e11a34b5473dda46d946c499e802ebc969eb87a9e201", "02497e443a3860c5ba9fa4f3c5c701ff201181aaa316a099d26cce0fcca8467db8"], "sequence": 4294967295, "scriptSig": {"hex": "", "asm": ""}, "vout": 1, "txid": "31f1854c1bf3618a48afbe176ccf65be8492f89a86cfb38f6ae3e933a1242c5e"}], "txid": "05644de6ad23041844a0195598aa7e032a3fdb385bade4d1829f825d7a341071", "blocktime": 1537875543, "version": 1, "confirmations": 11464, "time": 1537875543, "locktime": 0, "vsize": 113, "size": 195}