{"hash": "056447d42a05ded1676bdaa2e569d2f68b4a87426f82f1e5915c9ceeb1ec1ea8", "blockhash": "00000000000000000018f53835495a110e01622372bf6ae95dc86f2b0ab887b0", "vout": [{"scriptPubKey": {"reqSigs": 1, "hex": "a9143b9911925fec1ad0a2061e2f8b1d50d60af62a7d87", "addresses": ["3789AFsmv7j62y4RYrYEFenVPuTWUZ2DMH"], "asm": "OP_HASH160 3b9911925fec1ad0a2061e2f8b1d50d60af62a7d OP_EQUAL", "type": "scripthash"}, "value": 0.418542, "n": 0}, {"scriptPubKey": {"reqSigs": 1, "hex": "76a9143e3f448d14f10b76dc47d5c24ee82bee0480047488ac", "addresses": ["16g8gpKBQHorUCdUcxob9fFeJY7Euf8QDs"], "asm": "OP_DUP OP_HASH160 3e3f448d14f10b76dc47d5c24ee82bee04800474 OP_EQUALVERIFY OP_CHECKSIG", "type": "pubkeyhash"}, "value": 6.00347476, "n": 1}], "hex": "0200000001ba28991477c9d041309d0c54787f4d3a8ecef164513a6a056338810e21420861000000006b483045022100fb48937e9b1ef8e5c538c422f094e7c1f86ef47b5443699d875bb7b60dca4e440220350d11411fae5d7f240320fc37b3963e447c1e97b123c61ae3ae1f2f748e5209012102d4b22a0b96c857cef18ff812fa04f79d723262d98e21d4ee72acd31fa463e267feffffff02f8a47e020000000017a9143b9911925fec1ad0a2061e2f8b1d50d60af62a7d875493c823000000001976a9143e3f448d14f10b76dc47d5c24ee82bee0480047488ac0e490800", "vin": [{"sequence": 4294967294, "scriptSig": {"hex": "483045022100fb48937e9b1ef8e5c538c422f094e7c1f86ef47b5443699d875bb7b60dca4e440220350d11411fae5d7f240320fc37b3963e447c1e97b123c61ae3ae1f2f748e5209012102d4b22a0b96c857cef18ff812fa04f79d723262d98e21d4ee72acd31fa463e267", "asm": "3045022100fb48937e9b1ef8e5c538c422f094e7c1f86ef47b5443699d875bb7b60dca4e440220350d11411fae5d7f240320fc37b3963e447c1e97b123c61ae3ae1f2f748e5209[ALL] 02d4b22a0b96c857cef18ff812fa04f79d723262d98e21d4ee72acd31fa463e267"}, "vout": 0, "txid": "610842210e813863056a3a5164f1ce8e3a4d7f78540c9d3041d0c977149928ba"}], "txid": "056447d42a05ded1676bdaa2e569d2f68b4a87426f82f1e5915c9ceeb1ec1ea8", "blocktime": 1537870928, "version": 2, "confirmations": 11512, "time": 1537870928, "locktime": 542990, "vsize": 224, "size": 224}