{"hash": "05695cb59ea0828d480509a486f237b1fba83d4ad9fe920ac0357abaa8b29744", "blockhash": "0000000000000000000baef3f32e3676a92c3b2e5da21b426e4f302fc371ce76", "vout": [{"scriptPubKey": {"reqSigs": 1, "hex": "76a914dddf80cc38583ad4d559516cacd217875c37036d88ac", "addresses": ["1MEA5fUGkcWvTVCdvNUyoZm1ToASrUztyc"], "asm": "OP_DUP OP_HASH160 dddf80cc38583ad4d559516cacd217875c37036d OP_EQUALVERIFY OP_CHECKSIG", "type": "pubkeyhash"}, "value": 0.0010702, "n": 0}, {"scriptPubKey": {"type": "nulldata", "hex": "6a4c5000007837000185d4b24afb0c01365c5d909727b7256b4774d339f6019d6ddc0f1b8ff117c3751b5b5933a362babcce031af9d3845baa20630613798aa6b08593bc9a9526289ac0f6612cd74e33776ee4", "asm": "OP_RETURN 00007837000185d4b24afb0c01365c5d909727b7256b4774d339f6019d6ddc0f1b8ff117c3751b5b5933a362babcce031af9d3845baa20630613798aa6b08593bc9a9526289ac0f6612cd74e33776ee4"}, "value": 0.0, "n": 1}], "hex": "010000000152da39e784eecf4aa1f7488f1b628d8331148b9a4b01afd58ba12a196912fb6d010000006b483045022100a89b87d972f78cb68159d1ddfdf71520b8acff9eec72a416f3a8231135ed1eaa02206e5a769ee922a3d04d39708b551c0e2a9e5d3eb6c80e235e0447968418f480c5012102df670d70b5997250154b256bc80058722a63e61fef4955a93290ca0fc874da1fffffffff020ca20100000000001976a914dddf80cc38583ad4d559516cacd217875c37036d88ac0000000000000000536a4c5000007837000185d4b24afb0c01365c5d909727b7256b4774d339f6019d6ddc0f1b8ff117c3751b5b5933a362babcce031af9d3845baa20630613798aa6b08593bc9a9526289ac0f6612cd74e33776ee400000000", "vin": [{"sequence": 4294967295, "scriptSig": {"hex": "483045022100a89b87d972f78cb68159d1ddfdf71520b8acff9eec72a416f3a8231135ed1eaa02206e5a769ee922a3d04d39708b551c0e2a9e5d3eb6c80e235e0447968418f480c5012102df670d70b5997250154b256bc80058722a63e61fef4955a93290ca0fc874da1f", "asm": "3045022100a89b87d972f78cb68159d1ddfdf71520b8acff9eec72a416f3a8231135ed1eaa02206e5a769ee922a3d04d39708b551c0e2a9e5d3eb6c80e235e0447968418f480c5[ALL] 02df670d70b5997250154b256bc80058722a63e61fef4955a93290ca0fc874da1f"}, "vout": 1, "txid": "6dfb1269192aa18bd5af014b9a8b1431838d621b8f48f7a14acfee84e739da52"}], "txid": "05695cb59ea0828d480509a486f237b1fba83d4ad9fe920ac0357abaa8b29744", "blocktime": 1537876114, "version": 1, "confirmations": 11462, "time": 1537876114, "locktime": 0, "vsize": 284, "size": 284}