{"hash": "0569617fd66d918d5d4a9b1c37a517cb13721b466ba256ede6503ba8f8d69d82", "blockhash": "0000000000000000001f76057863aec43deb6fa401d9628bb513d65a8098bfab", "vout": [{"scriptPubKey": {"reqSigs": 1, "hex": "76a914bb541e04f8a6521bb746c73a593ad08bef6eb66c88ac", "addresses": ["1J5W8SebDBG7umahmm3zuXFfUX6tG5ecH2"], "asm": "OP_DUP OP_HASH160 bb541e04f8a6521bb746c73a593ad08bef6eb66c OP_EQUALVERIFY OP_CHECKSIG", "type": "pubkeyhash"}, "value": 0.03208848, "n": 0}, {"scriptPubKey": {"reqSigs": 1, "hex": "76a9144a0f1e2f2b0d7daeec5265f10bbbbe08ed725e8988ac", "addresses": ["17kb7c9ndg7ioSuzMWEHWECdEVUegNkcGc"], "asm": "OP_DUP OP_HASH160 4a0f1e2f2b0d7daeec5265f10bbbbe08ed725e89 OP_EQUALVERIFY OP_CHECKSIG", "type": "pubkeyhash"}, "value": 0.0024775, "n": 1}], "hex": "01000000017f497a651465cf30296e9814700fd30d6f8c5d2c4a1b630ea83cae91172750e4000000006a47304402206270ab067be8791e4cd53b435bf782989242337a7bbc86d4164f2086104a6f6402204746df3b70690b03e423d78b88319974c924aab1bf8f8f4c2cf10065d85c535b01210363e1776495149c5a4e92acf453a3caa19000fc804e4ba2024b600ba25e09c943ffffffff0290f63000000000001976a914bb541e04f8a6521bb746c73a593ad08bef6eb66c88acc6c70300000000001976a9144a0f1e2f2b0d7daeec5265f10bbbbe08ed725e8988ac00000000", "vin": [{"sequence": 4294967295, "scriptSig": {"hex": "47304402206270ab067be8791e4cd53b435bf782989242337a7bbc86d4164f2086104a6f6402204746df3b70690b03e423d78b88319974c924aab1bf8f8f4c2cf10065d85c535b01210363e1776495149c5a4e92acf453a3caa19000fc804e4ba2024b600ba25e09c943", "asm": "304402206270ab067be8791e4cd53b435bf782989242337a7bbc86d4164f2086104a6f6402204746df3b70690b03e423d78b88319974c924aab1bf8f8f4c2cf10065d85c535b[ALL] 0363e1776495149c5a4e92acf453a3caa19000fc804e4ba2024b600ba25e09c943"}, "vout": 0, "txid": "e450271791ae3ca80e631b4a2c5d8c6f0dd30f7014986e2930cf6514657a497f"}], "txid": "0569617fd66d918d5d4a9b1c37a517cb13721b466ba256ede6503ba8f8d69d82", "blocktime": 1537873891, "version": 1, "confirmations": 11475, "time": 1537873891, "locktime": 0, "vsize": 225, "size": 225}