{"hash": "056e280bb30d0c173d581245bea2291900c0c8cb7bb9542067618ae8f7ce824e", "blockhash": "0000000000000000000e13cef7c366c0283d82e591d1acd082e914b08063cdf1", "vout": [{"scriptPubKey": {"reqSigs": 1, "hex": "76a914c84eb713e2ece8c500f369adaac8e0e20b184c9188ac", "addresses": ["1KG8SbF5j44DTmraDdxkQghzvhq6ena1qa"], "asm": "OP_DUP OP_HASH160 c84eb713e2ece8c500f369adaac8e0e20b184c91 OP_EQUALVERIFY OP_CHECKSIG", "type": "pubkeyhash"}, "value": 5.46e-06, "n": 0}, {"scriptPubKey": {"reqSigs": 1, "hex": "76a914a520c86a08366941cd90d22e11ac1c7eefa2db3788ac", "addresses": ["1G47mSr3oANXMafVrR8UC4pzV7FEAzo3r9"], "asm": "OP_DUP OP_HASH160 a520c86a08366941cd90d22e11ac1c7eefa2db37 OP_EQUALVERIFY OP_CHECKSIG", "type": "pubkeyhash"}, "value": 1.03737983, "n": 1}, {"scriptPubKey": {"type": "nulldata", "hex": "6a146f6d6e69000000000000001f00000001eb676870", "asm": "OP_RETURN 6f6d6e69000000000000001f00000001eb676870"}, "value": 0.0, "n": 2}], "hex": "010000000180665014a79a09ee9fc4b223d86001180ae827214c097ebb24cc9af2b5e951a9000000006a47304402206b7cac6618f20b26c797e0f929eb042a5ea62cf39b03103a35052a25293effea02206c0079ab20ca24983b15471555e0998105d4a1346e72441056981fe8b7f30030012103f3f44c9e80e2cedc1a2909631a3adea8866ee32187f74d0912387359b0ff36a2ffffffff0322020000000000001976a914c84eb713e2ece8c500f369adaac8e0e20b184c9188ac7fea2e06000000001976a914a520c86a08366941cd90d22e11ac1c7eefa2db3788ac0000000000000000166a146f6d6e69000000000000001f00000001eb67687000000000", "vin": [{"sequence": 4294967295, "scriptSig": {"hex": "47304402206b7cac6618f20b26c797e0f929eb042a5ea62cf39b03103a35052a25293effea02206c0079ab20ca24983b15471555e0998105d4a1346e72441056981fe8b7f30030012103f3f44c9e80e2cedc1a2909631a3adea8866ee32187f74d0912387359b0ff36a2", "asm": "304402206b7cac6618f20b26c797e0f929eb042a5ea62cf39b03103a35052a25293effea02206c0079ab20ca24983b15471555e0998105d4a1346e72441056981fe8b7f30030[ALL] 03f3f44c9e80e2cedc1a2909631a3adea8866ee32187f74d0912387359b0ff36a2"}, "vout": 0, "txid": "a951e9b5f29acc24bb7e094c2127e80a180160d823b2c49fee099aa714506680"}], "txid": "056e280bb30d0c173d581245bea2291900c0c8cb7bb9542067618ae8f7ce824e", "blocktime": 1537871767, "version": 1, "confirmations": 11491, "time": 1537871767, "locktime": 0, "vsize": 256, "size": 256}