{"hash": "0572324b89e1a23944e4d2b901e054a7faa6feff0c932da7b041e35fe6cdbb02", "blockhash": "0000000000000000000e13cef7c366c0283d82e591d1acd082e914b08063cdf1", "vout": [{"scriptPubKey": {"reqSigs": 1, "hex": "76a914ad0183195ffbab6217593f0911eaa85008905a9788ac", "addresses": ["1GmmiFUjt1ufJMHDFm6sXQ6U9NwCNzQQ7Q"], "asm": "OP_DUP OP_HASH160 ad0183195ffbab6217593f0911eaa85008905a97 OP_EQUALVERIFY OP_CHECKSIG", "type": "pubkeyhash"}, "value": 1.659e-05, "n": 0}, {"scriptPubKey": {"reqSigs": 1, "hex": "76a91479cb28b67949abfd0f9c2345c4967257a5e20f3a88ac", "addresses": ["1C6z8x2GHHfWFNvNBZKVfHZb26FovoMm2e"], "asm": "OP_DUP OP_HASH160 79cb28b67949abfd0f9c2345c4967257a5e20f3a OP_EQUALVERIFY OP_CHECKSIG", "type": "pubkeyhash"}, "value": 0.5257, "n": 1}], "hex": "0100000006763d9870713dd5e8fb4a9e3b8520dcfb3556997bca476fb10fb1706a78ab9c67000000006a47304402200f54417717bd1070e9c8ff786d339300074130b8f331bd1cbdb7fbd40dae4b3f02207d5bec2837961793cfd09939744eccd9185ffe11e368323572c83650af18e67401210378a4945cccffddf5590bf9759f1a2861d2de3c3097553d5cc16c02aec083c163ffffffff86f2374597610ce79095101d64c4da695f47b06365317797d168792c0035416b000000006b483045022100d1373b513569e811a227f0498bcb1fdcb762f42f1a8451042fbe89ed2552da7102207c5af256e7816d5516e6015e2c76c2e788cbc69516ac1575c04e4f67baba1b9d012103411e2cfd62c0a10efea2eb2915c362f522a03b595cc7e437af3d88a3987f642bffffffffa221a01ea2195791816656a4b4571f61cccf32984af6777bfddbe0df57953c96000000006a473044022050008639607b87887dfdf376647dab96ddac187dd0e3604d9257861cc75f2b5a02203ad66e297b37a94cb8a71c924d0feb1589eb092a6ae43446adc6c0c7fc3bb30101210381a4a93849cd2530a1b5dfa2d949da41cdbe0b2e3b24840cff1381e498149174ffffffffcf100baa2cace91f49951306f204031b19984b03fed4e87375dc9f6607b102ad000000006b483045022100b92f8afd1db034ac95b89c390c0a89d18d999e7796aae01bd29e45993695551202200f0390e50747b01afd8a4429e149de19598a8069d9db92bda0d38ba444dbdfa3012102af1ae9bcad66d0b4babfe4099568e8b47568ac42bd2000d3b4ef3c8bdd0ed281ffffffff69f9e43255578965605c852a815300c65f02ca3af3b1f3684805d32b75e16fae000000006b483045022100be42f1cd7708cbf6a58821ee53502625e7af099b2e55adf3aa46fad211561fe002206b6f5b7f4da88238a1de7af31d958111cf4d795e7bac485997f2154a41d081b3012102e6982b9506faf821ced91fec40987673e915512aa1e5aaa2fde395350716e0f6ffffffffc939a951ca7ae2ffbeb527c1ac7b7489b7542599e585e723097215481265edd7000000006b483045022100d50e37927c6d36fc1747ad7dc9827685e65433add4fc464c678c3b6304c395630220085b8ffb51f4cd70c875d3d842ad44e818781d8bf20107fab5c2ddb9ef0e11c401210385272d10a3f56a6ebecfa5d7a2480c2c7e6b252ee2eef61b7ed86f09ae1ecd16ffffffff027b060000000000001976a914ad0183195ffbab6217593f0911eaa85008905a9788ac90272203000000001976a91479cb28b67949abfd0f9c2345c4967257a5e20f3a88ac00000000", "vin": [{"sequence": 4294967295, "scriptSig": {"hex": "47304402200f54417717bd1070e9c8ff786d339300074130b8f331bd1cbdb7fbd40dae4b3f02207d5bec2837961793cfd09939744eccd9185ffe11e368323572c83650af18e67401210378a4945cccffddf5590bf9759f1a2861d2de3c3097553d5cc16c02aec083c163", "asm": "304402200f54417717bd1070e9c8ff786d339300074130b8f331bd1cbdb7fbd40dae4b3f02207d5bec2837961793cfd09939744eccd9185ffe11e368323572c83650af18e674[ALL] 0378a4945cccffddf5590bf9759f1a2861d2de3c3097553d5cc16c02aec083c163"}, "vout": 0, "txid": "679cab786a70b10fb16f47ca7b995635fbdc20853b9e4afbe8d53d7170983d76"}, {"sequence": 4294967295, "scriptSig": {"hex": "483045022100d1373b513569e811a227f0498bcb1fdcb762f42f1a8451042fbe89ed2552da7102207c5af256e7816d5516e6015e2c76c2e788cbc69516ac1575c04e4f67baba1b9d012103411e2cfd62c0a10efea2eb2915c362f522a03b595cc7e437af3d88a3987f642b", "asm": "3045022100d1373b513569e811a227f0498bcb1fdcb762f42f1a8451042fbe89ed2552da7102207c5af256e7816d5516e6015e2c76c2e788cbc69516ac1575c04e4f67baba1b9d[ALL] 03411e2cfd62c0a10efea2eb2915c362f522a03b595cc7e437af3d88a3987f642b"}, "vout": 0, "txid": "6b4135002c7968d19777316563b0475f69dac4641d109590e70c61974537f286"}, {"sequence": 4294967295, "scriptSig": {"hex": "473044022050008639607b87887dfdf376647dab96ddac187dd0e3604d9257861cc75f2b5a02203ad66e297b37a94cb8a71c924d0feb1589eb092a6ae43446adc6c0c7fc3bb30101210381a4a93849cd2530a1b5dfa2d949da41cdbe0b2e3b24840cff1381e498149174", "asm": "3044022050008639607b87887dfdf376647dab96ddac187dd0e3604d9257861cc75f2b5a02203ad66e297b37a94cb8a71c924d0feb1589eb092a6ae43446adc6c0c7fc3bb301[ALL] 0381a4a93849cd2530a1b5dfa2d949da41cdbe0b2e3b24840cff1381e498149174"}, "vout": 0, "txid": "963c9557dfe0dbfd7b77f64a9832cfcc611f57b4a4566681915719a21ea021a2"}, {"sequence": 4294967295, "scriptSig": {"hex": "483045022100b92f8afd1db034ac95b89c390c0a89d18d999e7796aae01bd29e45993695551202200f0390e50747b01afd8a4429e149de19598a8069d9db92bda0d38ba444dbdfa3012102af1ae9bcad66d0b4babfe4099568e8b47568ac42bd2000d3b4ef3c8bdd0ed281", "asm": "3045022100b92f8afd1db034ac95b89c390c0a89d18d999e7796aae01bd29e45993695551202200f0390e50747b01afd8a4429e149de19598a8069d9db92bda0d38ba444dbdfa3[ALL] 02af1ae9bcad66d0b4babfe4099568e8b47568ac42bd2000d3b4ef3c8bdd0ed281"}, "vout": 0, "txid": "ad02b107669fdc7573e8d4fe034b98191b0304f2061395491fe9ac2caa0b10cf"}, {"sequence": 4294967295, "scriptSig": {"hex": "483045022100be42f1cd7708cbf6a58821ee53502625e7af099b2e55adf3aa46fad211561fe002206b6f5b7f4da88238a1de7af31d958111cf4d795e7bac485997f2154a41d081b3012102e6982b9506faf821ced91fec40987673e915512aa1e5aaa2fde395350716e0f6", "asm": "3045022100be42f1cd7708cbf6a58821ee53502625e7af099b2e55adf3aa46fad211561fe002206b6f5b7f4da88238a1de7af31d958111cf4d795e7bac485997f2154a41d081b3[ALL] 02e6982b9506faf821ced91fec40987673e915512aa1e5aaa2fde395350716e0f6"}, "vout": 0, "txid": "ae6fe1752bd3054868f3b1f33aca025fc60053812a855c606589575532e4f969"}, {"sequence": 4294967295, "scriptSig": {"hex": "483045022100d50e37927c6d36fc1747ad7dc9827685e65433add4fc464c678c3b6304c395630220085b8ffb51f4cd70c875d3d842ad44e818781d8bf20107fab5c2ddb9ef0e11c401210385272d10a3f56a6ebecfa5d7a2480c2c7e6b252ee2eef61b7ed86f09ae1ecd16", "asm": "3045022100d50e37927c6d36fc1747ad7dc9827685e65433add4fc464c678c3b6304c395630220085b8ffb51f4cd70c875d3d842ad44e818781d8bf20107fab5c2ddb9ef0e11c4[ALL] 0385272d10a3f56a6ebecfa5d7a2480c2c7e6b252ee2eef61b7ed86f09ae1ecd16"}, "vout": 0, "txid": "d7ed65124815720923e785e5992554b789747bacc127b5beffe27aca51a939c9"}], "txid": "0572324b89e1a23944e4d2b901e054a7faa6feff0c932da7b041e35fe6cdbb02", "blocktime": 1537871767, "version": 1, "confirmations": 11495, "time": 1537871767, "locktime": 0, "vsize": 964, "size": 964}