{"hash": "0574231e88019b804af58ee3332756747c3a7ef56b92c994275d15384495b2f0", "blockhash": "00000000000000000004ffacab907a6b429b9a5745fa0b75af4234bf69dd7176", "vout": [{"scriptPubKey": {"reqSigs": 1, "hex": "76a9142718aa55c7fa7df8c22cff45fc4b1746aa5cafac88ac", "addresses": ["14ZiuGAUVZPvTjqnEujZvKTkASYtWQXtHJ"], "asm": "OP_DUP OP_HASH160 2718aa55c7fa7df8c22cff45fc4b1746aa5cafac OP_EQUALVERIFY OP_CHECKSIG", "type": "pubkeyhash"}, "value": 0.00552262, "n": 0}, {"scriptPubKey": {"reqSigs": 1, "hex": "76a914a39b501cde3a8a41463e8f5605297440acf70fab88ac", "addresses": ["1Fv5CbqajrfxxNoCihyfNXacZYfhwoWbj7"], "asm": "OP_DUP OP_HASH160 a39b501cde3a8a41463e8f5605297440acf70fab OP_EQUALVERIFY OP_CHECKSIG", "type": "pubkeyhash"}, "value": 0.0015532, "n": 1}], "hex": "0100000002d6ad7eef517e02937d813a63a372abd8175858ed2080ecaa885351344d42470e280000006b483045022100a81009ceb6c595382e1813fbec4a96aa709cad6010315a7b2bf1962a90ede8230220394135d65f5281eedccb83ee8af987c72a4f40a90271fa7b0eb403b2a5761a0d0121029d41151ce6f8ae8b2a1c222be1ff57cbcfa0d9784edb3a4a096061ec7dab8614ffffffff55349e2553187272997a89c81f83ad7418757663e1fc1e4ca388affa80398bfd010000006b483045022100f2530dc381eae284e97ef405205d2b964fb50741b7e60afb9315375dfeaa44dd022075b4768b40a0895ecbbdc6ab0b5b02e4994a629d324a6eb52c955038bede4fc0012102779d962f09c9f80e99696bd40397875f2616a454d0f8d7031ac54974807df0b1ffffffff02466d0800000000001976a9142718aa55c7fa7df8c22cff45fc4b1746aa5cafac88acb85e0200000000001976a914a39b501cde3a8a41463e8f5605297440acf70fab88ac00000000", "vin": [{"sequence": 4294967295, "scriptSig": {"hex": "483045022100a81009ceb6c595382e1813fbec4a96aa709cad6010315a7b2bf1962a90ede8230220394135d65f5281eedccb83ee8af987c72a4f40a90271fa7b0eb403b2a5761a0d0121029d41151ce6f8ae8b2a1c222be1ff57cbcfa0d9784edb3a4a096061ec7dab8614", "asm": "3045022100a81009ceb6c595382e1813fbec4a96aa709cad6010315a7b2bf1962a90ede8230220394135d65f5281eedccb83ee8af987c72a4f40a90271fa7b0eb403b2a5761a0d[ALL] 029d41151ce6f8ae8b2a1c222be1ff57cbcfa0d9784edb3a4a096061ec7dab8614"}, "vout": 40, "txid": "0e47424d34515388aaec8020ed585817d8ab72a3633a817d93027e51ef7eadd6"}, {"sequence": 4294967295, "scriptSig": {"hex": "483045022100f2530dc381eae284e97ef405205d2b964fb50741b7e60afb9315375dfeaa44dd022075b4768b40a0895ecbbdc6ab0b5b02e4994a629d324a6eb52c955038bede4fc0012102779d962f09c9f80e99696bd40397875f2616a454d0f8d7031ac54974807df0b1", "asm": "3045022100f2530dc381eae284e97ef405205d2b964fb50741b7e60afb9315375dfeaa44dd022075b4768b40a0895ecbbdc6ab0b5b02e4994a629d324a6eb52c955038bede4fc0[ALL] 02779d962f09c9f80e99696bd40397875f2616a454d0f8d7031ac54974807df0b1"}, "vout": 1, "txid": "fd8b3980faaf88a34c1efce16376751874ad831fc8897a9972721853259e3455"}], "txid": "0574231e88019b804af58ee3332756747c3a7ef56b92c994275d15384495b2f0", "blocktime": 1537875543, "version": 1, "confirmations": 11464, "time": 1537875543, "locktime": 0, "vsize": 374, "size": 374}