{"hash": "05753a7c0674ac9907237f864a3fe93ac97615203850cfc8d1b15e6a26378e96", "blockhash": "00000000000000000004ffacab907a6b429b9a5745fa0b75af4234bf69dd7176", "vout": [{"scriptPubKey": {"reqSigs": 1, "hex": "76a914a42707ecf8577a46e02ae89156d92d298e9c23d488ac", "addresses": ["1FxxaNyJkdPctXUcrDDvf1TanCUyVRv8uZ"], "asm": "OP_DUP OP_HASH160 a42707ecf8577a46e02ae89156d92d298e9c23d4 OP_EQUALVERIFY OP_CHECKSIG", "type": "pubkeyhash"}, "value": 0.01690619, "n": 0}, {"scriptPubKey": {"reqSigs": 1, "hex": "76a914b0d8e07fa00ecafe33a2124c3130519dccccb66588ac", "addresses": ["1H85jdve5oZQqLMKa5EZ7CHL5Mn2PmLx8t"], "asm": "OP_DUP OP_HASH160 b0d8e07fa00ecafe33a2124c3130519dccccb665 OP_EQUALVERIFY OP_CHECKSIG", "type": "pubkeyhash"}, "value": 0.1525, "n": 1}], "hex": "0100000002a95782883fe4a5b4fd779c31aea61a9c23cd8b7540c125d995059d7999a5b954000000006a473044022014dde8de245e7c73521ee139aa118fc04951be2b895648937a658c4e4ef03f96022073d5048bb82e3eefd34add12a3d3ea479f717c506384e39e7cfc865a54677562012103e492d2570b281b0cec33c1b47670de70f07f0b4e8875a7ffa95ea8187d6f5febffffffffa9db19199314d8834aeebdfc909be3bb37e71dce665689593f22ca0e37954ce6010000006a473044022025d622e36dae35c8ab141935b524b93a02e2f0e71fb7e07eb3371a9963eb04d1022051c16775d58b7031e4325fe283621835ee47cdf2db63348b4dba473e323a0658012103520adb81b49e5eb61495f52727ad2897b711c439d020fd082817fbb5b66b6e73ffffffff02fbcb1900000000001976a914a42707ecf8577a46e02ae89156d92d298e9c23d488ac50b2e800000000001976a914b0d8e07fa00ecafe33a2124c3130519dccccb66588ac00000000", "vin": [{"sequence": 4294967295, "scriptSig": {"hex": "473044022014dde8de245e7c73521ee139aa118fc04951be2b895648937a658c4e4ef03f96022073d5048bb82e3eefd34add12a3d3ea479f717c506384e39e7cfc865a54677562012103e492d2570b281b0cec33c1b47670de70f07f0b4e8875a7ffa95ea8187d6f5feb", "asm": "3044022014dde8de245e7c73521ee139aa118fc04951be2b895648937a658c4e4ef03f96022073d5048bb82e3eefd34add12a3d3ea479f717c506384e39e7cfc865a54677562[ALL] 03e492d2570b281b0cec33c1b47670de70f07f0b4e8875a7ffa95ea8187d6f5feb"}, "vout": 0, "txid": "54b9a599799d0595d925c140758bcd239c1aa6ae319c77fdb4a5e43f888257a9"}, {"sequence": 4294967295, "scriptSig": {"hex": "473044022025d622e36dae35c8ab141935b524b93a02e2f0e71fb7e07eb3371a9963eb04d1022051c16775d58b7031e4325fe283621835ee47cdf2db63348b4dba473e323a0658012103520adb81b49e5eb61495f52727ad2897b711c439d020fd082817fbb5b66b6e73", "asm": "3044022025d622e36dae35c8ab141935b524b93a02e2f0e71fb7e07eb3371a9963eb04d1022051c16775d58b7031e4325fe283621835ee47cdf2db63348b4dba473e323a0658[ALL] 03520adb81b49e5eb61495f52727ad2897b711c439d020fd082817fbb5b66b6e73"}, "vout": 1, "txid": "e64c95370eca223f59895666ce1de737bbe39b90fcbdee4a83d814931919dba9"}], "txid": "05753a7c0674ac9907237f864a3fe93ac97615203850cfc8d1b15e6a26378e96", "blocktime": 1537875543, "version": 1, "confirmations": 11464, "time": 1537875543, "locktime": 0, "vsize": 372, "size": 372}