{"hash": "05782ee5a1e6599d3348a6ce2b56cdc943631c9c341c0ef8a4a416ad5f1f70a0", "blockhash": "0000000000000000001e0dab787dd257d1dbfcb92a98c2207d5e1078be1f4165", "vout": [{"scriptPubKey": {"reqSigs": 1, "hex": "a914fb7c224529a12ba8629e015a436723a4495b226587", "addresses": ["3QckEfZ729kWiCSmU8wr6RRm6VD4t4PG3h"], "asm": "OP_HASH160 fb7c224529a12ba8629e015a436723a4495b2265 OP_EQUAL", "type": "scripthash"}, "value": 0.003, "n": 0}, {"scriptPubKey": {"reqSigs": 1, "hex": "76a914e1a82ff4e4cf19e7cc8e08bc769273549fd3855a88ac", "addresses": ["1MaAX2JUg56xMu4sVm23sJRm25rnKf71EA"], "asm": "OP_DUP OP_HASH160 e1a82ff4e4cf19e7cc8e08bc769273549fd3855a OP_EQUALVERIFY OP_CHECKSIG", "type": "pubkeyhash"}, "value": 0.02536353, "n": 1}], "hex": "0100000001aec2aeae8565ea1e4c394cb0bb595ddc2da437a78e4272ba80f02d42505e622b010000006a4730440220305cd4c81d09ef3c93ec674483dd20524a4ff7556a330a2f01ba218a569de28d0220767f8f892b9e9217517fb58a338e4daafcaf93a4e9c99d05a0fa9d85e5ba69c60121037a55d8d9cc5e6c1d338f6b80f96f8eae4e4ba63ad950f36756cfe5294bdd0e7effffffff02e09304000000000017a914fb7c224529a12ba8629e015a436723a4495b226587a1b32600000000001976a914e1a82ff4e4cf19e7cc8e08bc769273549fd3855a88ac00000000", "vin": [{"sequence": 4294967295, "scriptSig": {"hex": "4730440220305cd4c81d09ef3c93ec674483dd20524a4ff7556a330a2f01ba218a569de28d0220767f8f892b9e9217517fb58a338e4daafcaf93a4e9c99d05a0fa9d85e5ba69c60121037a55d8d9cc5e6c1d338f6b80f96f8eae4e4ba63ad950f36756cfe5294bdd0e7e", "asm": "30440220305cd4c81d09ef3c93ec674483dd20524a4ff7556a330a2f01ba218a569de28d0220767f8f892b9e9217517fb58a338e4daafcaf93a4e9c99d05a0fa9d85e5ba69c6[ALL] 037a55d8d9cc5e6c1d338f6b80f96f8eae4e4ba63ad950f36756cfe5294bdd0e7e"}, "vout": 1, "txid": "2b625e50422df080ba72428ea737a42ddc5d59bbb04c394c1eea6585aeaec2ae"}], "txid": "05782ee5a1e6599d3348a6ce2b56cdc943631c9c341c0ef8a4a416ad5f1f70a0", "blocktime": 1537872475, "version": 1, "confirmations": 11487, "time": 1537872475, "locktime": 0, "vsize": 223, "size": 223}