{"hash": "d9049236951e1b6dd169c591a09065e04d69082688de7e511976f3bdf09384c6", "blockhash": "0000000000000000001cda96e906b7601b7a6fb1a3b62bca570a9e5d8f4b3de1", "vout": [{"scriptPubKey": {"reqSigs": 1, "hex": "76a9149a1b8f9b1fa2d2297863adb1cb11c71df455684888ac", "addresses": ["1F3r5We2zwNiSzG6GQUTTWnnPMCz2HJbJu"], "asm": "OP_DUP OP_HASH160 9a1b8f9b1fa2d2297863adb1cb11c71df4556848 OP_EQUALVERIFY OP_CHECKSIG", "type": "pubkeyhash"}, "value": 2.706e-05, "n": 0}, {"scriptPubKey": {"reqSigs": 1, "hex": "a9145fd6ccf3fa4f5e40b590aac3f24664f0653a71dc87", "addresses": ["3ARmSNhAYCtKywjSMAxYdagMtKiGcdVuY2"], "asm": "OP_HASH160 5fd6ccf3fa4f5e40b590aac3f24664f0653a71dc OP_EQUAL", "type": "scripthash"}, "value": 7.688e-05, "n": 1}], "hex": "010000000001011e2020d440f97935335f62083b9eca053d1e46a70a9efc6453a66528dd665b3001000000232200206594052309991fbaf27880f6c24f3eaa8cdd7edacf1bc50579894b9e3fe7faccffffffff02920a0000000000001976a9149a1b8f9b1fa2d2297863adb1cb11c71df455684888ac081e00000000000017a9145fd6ccf3fa4f5e40b590aac3f24664f0653a71dc87040047304402200c5b83cb4268d48b7a7e895d020839a16b76dd31100b7504758ebd0078b54cdb02204102d86160cbb45693f100059933e8b3c80942cb8e27f0357ede4199fb5db0cf01483045022100b9c59ff6b48fe763101beab25b4d06b70326994d5e9fecb166b80058c3b6604b022075ac0584166163eda314acb563e33bc9c0d83fe56b8c0dab0fd0fd8cebe305300147522102762a59cc11c9e209028b4fdb72709e323a3db710158b03d150a252f3d53009582103148c80a5bdfddb05ff5bcffc397c8ca748d8b435ec6a175bc9d7bfc7fc6f853752ae00000000", "vin": [{"txinwitness": ["", "304402200c5b83cb4268d48b7a7e895d020839a16b76dd31100b7504758ebd0078b54cdb02204102d86160cbb45693f100059933e8b3c80942cb8e27f0357ede4199fb5db0cf01", "3045022100b9c59ff6b48fe763101beab25b4d06b70326994d5e9fecb166b80058c3b6604b022075ac0584166163eda314acb563e33bc9c0d83fe56b8c0dab0fd0fd8cebe3053001", "522102762a59cc11c9e209028b4fdb72709e323a3db710158b03d150a252f3d53009582103148c80a5bdfddb05ff5bcffc397c8ca748d8b435ec6a175bc9d7bfc7fc6f853752ae"], "sequence": 4294967295, "scriptSig": {"hex": "2200206594052309991fbaf27880f6c24f3eaa8cdd7edacf1bc50579894b9e3fe7facc", "asm": "00206594052309991fbaf27880f6c24f3eaa8cdd7edacf1bc50579894b9e3fe7facc"}, "vout": 1, "txid": "305b66dd2865a65364fc9e0aa7461e3d05ca9e3b08625f333579f940d420201e"}], "txid": "0581f327c67e372ef617dc6c966ed379b0da3c3a4498f283d5a9141d2011a2be", "blocktime": 1537873282, "version": 1, "confirmations": 11485, "time": 1537873282, "locktime": 0, "vsize": 208, "size": 373}