{"hash": "05834025db8713fa03dd2d05b0202e02567cf77e19748ca0bf6798e1a0d30b2c", "blockhash": "0000000000000000001e0dab787dd257d1dbfcb92a98c2207d5e1078be1f4165", "vout": [{"scriptPubKey": {"reqSigs": 1, "hex": "76a914df2b8fddc28f931e509e858b70a2026319c8b27e88ac", "addresses": ["1MM1sX1gnfhSTYYui6THmHCYgj4Wne57Gy"], "asm": "OP_DUP OP_HASH160 df2b8fddc28f931e509e858b70a2026319c8b27e OP_EQUALVERIFY OP_CHECKSIG", "type": "pubkeyhash"}, "value": 0.00176315, "n": 0}, {"scriptPubKey": {"reqSigs": 1, "hex": "76a914ae85a70c4e04e4a5f4fd3afdfd7f83a707a45b4488ac", "addresses": ["1GungiiL9BD96h355m8wiX8vFwbiyWnC1C"], "asm": "OP_DUP OP_HASH160 ae85a70c4e04e4a5f4fd3afdfd7f83a707a45b44 OP_EQUALVERIFY OP_CHECKSIG", "type": "pubkeyhash"}, "value": 0.01562287, "n": 1}], "hex": "0100000001ae9e0c35316c8e9387416eb63d174dbc3927752727258ea72943d30cf703bd60010000006a473044022026143b036e3b1007c4a59eaad73a62c04ce5998967bbc429c5857c8ac3ac061c02201fb414668aab519707be561825fb0c095b8b787abd04d34dc604f3918d3c711f012102e75b60dd6d1b5455e19332000a64531090434b08397a4ecf9727bfaba68e082cffffffff02bbb00200000000001976a914df2b8fddc28f931e509e858b70a2026319c8b27e88acafd61700000000001976a914ae85a70c4e04e4a5f4fd3afdfd7f83a707a45b4488ac00000000", "vin": [{"sequence": 4294967295, "scriptSig": {"hex": "473044022026143b036e3b1007c4a59eaad73a62c04ce5998967bbc429c5857c8ac3ac061c02201fb414668aab519707be561825fb0c095b8b787abd04d34dc604f3918d3c711f012102e75b60dd6d1b5455e19332000a64531090434b08397a4ecf9727bfaba68e082c", "asm": "3044022026143b036e3b1007c4a59eaad73a62c04ce5998967bbc429c5857c8ac3ac061c02201fb414668aab519707be561825fb0c095b8b787abd04d34dc604f3918d3c711f[ALL] 02e75b60dd6d1b5455e19332000a64531090434b08397a4ecf9727bfaba68e082c"}, "vout": 1, "txid": "60bd03f70cd34329a78e252727752739bc4d173db66e4187938e6c31350c9eae"}], "txid": "05834025db8713fa03dd2d05b0202e02567cf77e19748ca0bf6798e1a0d30b2c", "blocktime": 1537872475, "version": 1, "confirmations": 11486, "time": 1537872475, "locktime": 0, "vsize": 225, "size": 225}