{"hash": "8d9801f0c6c8e67ea23008237155853222a2161e35648c50de61b4e6c833164f", "blockhash": "0000000000000000001cda96e906b7601b7a6fb1a3b62bca570a9e5d8f4b3de1", "vout": [{"scriptPubKey": {"reqSigs": 1, "hex": "76a9149e5bbf09884f180030a34ad992746eae0ba5fd2988ac", "addresses": ["1FSKfx5fHR1U8FtkXMLpFMeLZWuaGd7oRH"], "asm": "OP_DUP OP_HASH160 9e5bbf09884f180030a34ad992746eae0ba5fd29 OP_EQUALVERIFY OP_CHECKSIG", "type": "pubkeyhash"}, "value": 0.009, "n": 0}, {"scriptPubKey": {"reqSigs": 1, "hex": "a914148527bf77a6593669b9e40a98ec34f03e6a2f1587", "addresses": ["33ZWxAqSwFd7bbzKMyJkZgYTYRNKWNccvJ"], "asm": "OP_HASH160 148527bf77a6593669b9e40a98ec34f03e6a2f15 OP_EQUAL", "type": "scripthash"}, "value": 0.00012942, "n": 1}], "hex": "020000000001029330c250c5c680fe0ee70108ef3ddcd575edd9f84a389f66f8e72537bd2638570100000017160014ca41c22931fc54cda1eefde639695f4eea71506efeffffff995c028ce9313d9d0ecca6164a0e3ea34976bc5098bca8611b76806c2b2dc4630000000017160014ca41c22931fc54cda1eefde639695f4eea71506efeffffff02a0bb0d00000000001976a9149e5bbf09884f180030a34ad992746eae0ba5fd2988ac8e3200000000000017a914148527bf77a6593669b9e40a98ec34f03e6a2f15870247304402201c63596af035610ed763d388115fce28946190e1e645913b9e75bd22fdee8a890220731109e2c91f5860afaf885e2d50a40350b552a47b220158ed0eb7cb00063d2d0121033bbf709e5c55c686d7ddcc37ebcc212c7304c115358d265d9ab95b259d68f7c502483045022100baee8eb7e13c37ae8f16d56c0d7da9f556b1b185f215f685c186ae32423a47b30220483e9cb65c3a02ed2967c2cbfb36a37a5f29a6a928d7e1a58c9f5093091d5a070121033bbf709e5c55c686d7ddcc37ebcc212c7304c115358d265d9ab95b259d68f7c513490800", "vin": [{"txinwitness": ["304402201c63596af035610ed763d388115fce28946190e1e645913b9e75bd22fdee8a890220731109e2c91f5860afaf885e2d50a40350b552a47b220158ed0eb7cb00063d2d01", "033bbf709e5c55c686d7ddcc37ebcc212c7304c115358d265d9ab95b259d68f7c5"], "sequence": 4294967294, "scriptSig": {"hex": "160014ca41c22931fc54cda1eefde639695f4eea71506e", "asm": "0014ca41c22931fc54cda1eefde639695f4eea71506e"}, "vout": 1, "txid": "573826bd3725e7f8669f384af8d9ed75d5dc3def0801e70efe80c6c550c23093"}, {"txinwitness": ["3045022100baee8eb7e13c37ae8f16d56c0d7da9f556b1b185f215f685c186ae32423a47b30220483e9cb65c3a02ed2967c2cbfb36a37a5f29a6a928d7e1a58c9f5093091d5a0701", "033bbf709e5c55c686d7ddcc37ebcc212c7304c115358d265d9ab95b259d68f7c5"], "sequence": 4294967294, "scriptSig": {"hex": "160014ca41c22931fc54cda1eefde639695f4eea71506e", "asm": "0014ca41c22931fc54cda1eefde639695f4eea71506e"}, "vout": 0, "txid": "63c42d2b6c80761b61a8bc9850bc7649a33e0e4a16a6cc0e9d3d31e98c025c99"}], "txid": "05864ec7194e95c23ca2d94e4bd0c216677e0851fce59e858cef8fed758236f8", "blocktime": 1537873282, "version": 2, "confirmations": 11485, "time": 1537873282, "locktime": 542995, "vsize": 259, "size": 421}