{"hash": "05870c289579e6125b0ea314184306428693829026da98908babd67f977a3013", "blockhash": "0000000000000000001e0dab787dd257d1dbfcb92a98c2207d5e1078be1f4165", "vout": [{"scriptPubKey": {"reqSigs": 1, "hex": "a91402eb9b95991f83ebf8c0e53095cf3f30359acde687", "addresses": ["31xTXEvtqQZUkSJdw4Uvjx62vZx4jkdbbX"], "asm": "OP_HASH160 02eb9b95991f83ebf8c0e53095cf3f30359acde6 OP_EQUAL", "type": "scripthash"}, "value": 0.03994195, "n": 0}], "hex": "01000000018af835c9eaf13df675002dee4a3b97fa54b07861c0360643ea0d5e303761910c2f0000006b483045022100c15a793b47ff83ccd54ce31b6288ab34c4a16237f33a047407e4ff88c8eae9ab022069d6aee40cfea3594ce580d23b460092545c9bafc06442cb3957ca977e362fe0012102df50296d1f24bebebc499f4eb330b01cf45d975fd5997c17e0418629489815e0ffffffff0153f23c000000000017a91402eb9b95991f83ebf8c0e53095cf3f30359acde68700000000", "vin": [{"sequence": 4294967295, "scriptSig": {"hex": "483045022100c15a793b47ff83ccd54ce31b6288ab34c4a16237f33a047407e4ff88c8eae9ab022069d6aee40cfea3594ce580d23b460092545c9bafc06442cb3957ca977e362fe0012102df50296d1f24bebebc499f4eb330b01cf45d975fd5997c17e0418629489815e0", "asm": "3045022100c15a793b47ff83ccd54ce31b6288ab34c4a16237f33a047407e4ff88c8eae9ab022069d6aee40cfea3594ce580d23b460092545c9bafc06442cb3957ca977e362fe0[ALL] 02df50296d1f24bebebc499f4eb330b01cf45d975fd5997c17e0418629489815e0"}, "vout": 47, "txid": "0c916137305e0dea430636c06178b054fa973b4aee2d0075f63df1eac935f88a"}], "txid": "05870c289579e6125b0ea314184306428693829026da98908babd67f977a3013", "blocktime": 1537872475, "version": 1, "confirmations": 11486, "time": 1537872475, "locktime": 0, "vsize": 190, "size": 190}