{"hash": "19f7fb828c7adfb11dac711250382d46db6901e7c73eaa356394c20037e8299e", "blockhash": "0000000000000000000dcc0f55137456b1a82d3642486a52398922ac4d620174", "vout": [{"scriptPubKey": {"reqSigs": 1, "hex": "0014277e7644a6ffdabbe102bf150718e92cd779173e", "addresses": ["bc1qyal8v39xlldthcgzhu2swx8f9nthj9e7mtlgf0"], "asm": "0 277e7644a6ffdabbe102bf150718e92cd779173e", "type": "witness_v0_keyhash"}, "value": 1.189e-05, "n": 0}, {"scriptPubKey": {"reqSigs": 1, "hex": "a914f4fd1abf94e73e5f12f737caf3f141978e35490887", "addresses": ["3Q2Q1MjkgiqiWNbFaKdiri4rZ49MQ4N5xz"], "asm": "OP_HASH160 f4fd1abf94e73e5f12f737caf3f141978e354908 OP_EQUAL", "type": "scripthash"}, "value": 0.00060584, "n": 1}], "hex": "010000000001012a6b37e82bc8cb5c14068c9118f316c9461a593437e536cd687a3fa6e29a25bb0400000017160014293f6c948a36810d50b5b90b1ff5a30057e83212ffffffff02a504000000000000160014277e7644a6ffdabbe102bf150718e92cd779173ea8ec00000000000017a914f4fd1abf94e73e5f12f737caf3f141978e3549088702473044022005cd3cd7b692d3f2773069be7647b9c884ce5f2f3041117fb1fa9b03a5d3e6310220453ffc93a6d61093e0be289f3c62bbd470b97d30a59a99231c49810cd4ae390d012102dda5a881b1e42d31a62ec37013fe43ec2704545e7ad07e33502d7c4bdcc32aac00000000", "vin": [{"txinwitness": ["3044022005cd3cd7b692d3f2773069be7647b9c884ce5f2f3041117fb1fa9b03a5d3e6310220453ffc93a6d61093e0be289f3c62bbd470b97d30a59a99231c49810cd4ae390d01", "02dda5a881b1e42d31a62ec37013fe43ec2704545e7ad07e33502d7c4bdcc32aac"], "sequence": 4294967295, "scriptSig": {"hex": "160014293f6c948a36810d50b5b90b1ff5a30057e83212", "asm": "0014293f6c948a36810d50b5b90b1ff5a30057e83212"}, "vout": 4, "txid": "bb259ae2a63f7a68cd36e53734591a46c916f318918c06145ccbc82be8376b2a"}], "txid": "058deeb65a513d909c03802dbecd3cfda28df252037a8a4116e9849bd3c24e70", "blocktime": 1537870268, "version": 1, "confirmations": 11518, "time": 1537870268, "locktime": 0, "vsize": 165, "size": 246}