{"hash": "059618627c56038358bf60c4c1bfea116e5e9c1a528253f13923638925cea9b9", "blockhash": "00000000000000000017f5eb5941039fbcee6240d03bc1f2f8e35350df66a1d8", "vout": [{"scriptPubKey": {"reqSigs": 1, "hex": "76a9140720897f4f7880c7e384dde359b7585dd34687b888ac", "addresses": ["1egi4V6DNhew3WBbQCEYzXyKr4kUZKTxo"], "asm": "OP_DUP OP_HASH160 0720897f4f7880c7e384dde359b7585dd34687b8 OP_EQUALVERIFY OP_CHECKSIG", "type": "pubkeyhash"}, "value": 0.00126034, "n": 0}, {"scriptPubKey": {"reqSigs": 1, "hex": "a9147b890ab785afd007322a8655689412d47234df0787", "addresses": ["3CxDCyUKFZZPsN3h3jFaEawvcj9MiTxAmL"], "asm": "OP_HASH160 7b890ab785afd007322a8655689412d47234df07 OP_EQUAL", "type": "scripthash"}, "value": 0.01094462, "n": 1}], "hex": "01000000018c18f23083de8c4aefcb16915125ad8d6d25f9f3870778f771b36a6159170931010000006b483045022100ff8361b28e69b431ea9c2f87299d7be3c55833a3e823e416420ee7e16d48982902203666cc52927cc85497eb1eeea8625b9ec3bc2c682835e083b512c289b8460d1c012102de2ba083a393ee6f4e1b8336f8833524a80e40ec59c51c475d0e402a273f844fffffffff0252ec0100000000001976a9140720897f4f7880c7e384dde359b7585dd34687b888ac3eb310000000000017a9147b890ab785afd007322a8655689412d47234df078700000000", "vin": [{"sequence": 4294967295, "scriptSig": {"hex": "483045022100ff8361b28e69b431ea9c2f87299d7be3c55833a3e823e416420ee7e16d48982902203666cc52927cc85497eb1eeea8625b9ec3bc2c682835e083b512c289b8460d1c012102de2ba083a393ee6f4e1b8336f8833524a80e40ec59c51c475d0e402a273f844f", "asm": "3045022100ff8361b28e69b431ea9c2f87299d7be3c55833a3e823e416420ee7e16d48982902203666cc52927cc85497eb1eeea8625b9ec3bc2c682835e083b512c289b8460d1c[ALL] 02de2ba083a393ee6f4e1b8336f8833524a80e40ec59c51c475d0e402a273f844f"}, "vout": 1, "txid": "31091759616ab371f7780787f3f9256d8dad25519116cbef4a8cde8330f2188c"}], "txid": "059618627c56038358bf60c4c1bfea116e5e9c1a528253f13923638925cea9b9", "blocktime": 1537874412, "version": 1, "confirmations": 11468, "time": 1537874412, "locktime": 0, "vsize": 224, "size": 224}