{"hash": "059f2116b6d27f1114cb6f9b4fbe7bd433b43e09220366465cfae6348196a830", "blockhash": "0000000000000000000baef3f32e3676a92c3b2e5da21b426e4f302fc371ce76", "vout": [{"scriptPubKey": {"reqSigs": 1, "hex": "76a91420a1ea3739ee4755b9772e9cda04fffb9d1a212b88ac", "addresses": ["13yYbBdzwfuoqkbv4fqVeoxgUnxKhB4KRJ"], "asm": "OP_DUP OP_HASH160 20a1ea3739ee4755b9772e9cda04fffb9d1a212b OP_EQUALVERIFY OP_CHECKSIG", "type": "pubkeyhash"}, "value": 0.03661312, "n": 0}, {"scriptPubKey": {"reqSigs": 1, "hex": "76a914ced9208fb22fcda16d87fb9cb03a05e84de34f3e88ac", "addresses": ["1KriJnBBpDrvLfY5y6GtLojpb8rxJbcujg"], "asm": "OP_DUP OP_HASH160 ced9208fb22fcda16d87fb9cb03a05e84de34f3e OP_EQUALVERIFY OP_CHECKSIG", "type": "pubkeyhash"}, "value": 0.06246795, "n": 1}], "hex": "0100000001e2ea1cbfc489184b35d6f9506a80ebc79163147f0389d43404669f8ee8b8e648000000006a47304402201883dcddb37c4d42cdce2ccaccf1952a6df38bd4bafa529f5a14d85e311c5d4d0220433643bc557d7f9cce8f6ad4fe74f1353a4acc8ee468b157769f7e43cac05e88012102b5c92be105b79466d7af0db46835178149d8780c2a59a32d0f9514e4f4fd8908fdffffff0200de3700000000001976a91420a1ea3739ee4755b9772e9cda04fffb9d1a212b88ac8b515f00000000001976a914ced9208fb22fcda16d87fb9cb03a05e84de34f3e88ac16490800", "vin": [{"sequence": 4294967293, "scriptSig": {"hex": "47304402201883dcddb37c4d42cdce2ccaccf1952a6df38bd4bafa529f5a14d85e311c5d4d0220433643bc557d7f9cce8f6ad4fe74f1353a4acc8ee468b157769f7e43cac05e88012102b5c92be105b79466d7af0db46835178149d8780c2a59a32d0f9514e4f4fd8908", "asm": "304402201883dcddb37c4d42cdce2ccaccf1952a6df38bd4bafa529f5a14d85e311c5d4d0220433643bc557d7f9cce8f6ad4fe74f1353a4acc8ee468b157769f7e43cac05e88[ALL] 02b5c92be105b79466d7af0db46835178149d8780c2a59a32d0f9514e4f4fd8908"}, "vout": 0, "txid": "48e6b8e88e9f660434d489037f146391c7eb806a50f9d6354b1889c4bf1ceae2"}], "txid": "059f2116b6d27f1114cb6f9b4fbe7bd433b43e09220366465cfae6348196a830", "blocktime": 1537876114, "version": 1, "confirmations": 11460, "time": 1537876114, "locktime": 542998, "vsize": 225, "size": 225}