{"hash": "05a83388759c33171aacf58577d8f10e847ca61cd49213bf18bb0a171ae8b552", "blockhash": "0000000000000000001f76057863aec43deb6fa401d9628bb513d65a8098bfab", "vout": [{"scriptPubKey": {"reqSigs": 1, "hex": "76a9141260648e1ff1b7f3f843d36103a71564d2cadecc88ac", "addresses": ["12gAdwcmDKfsoiMxJgXUZxx92DTKqPct5H"], "asm": "OP_DUP OP_HASH160 1260648e1ff1b7f3f843d36103a71564d2cadecc OP_EQUALVERIFY OP_CHECKSIG", "type": "pubkeyhash"}, "value": 0.07744532, "n": 0}, {"scriptPubKey": {"reqSigs": 1, "hex": "76a914e0410128d5a75d0560a97f1d2a10fad2ab50318688ac", "addresses": ["1MSkEZhwPVBcwYEcmcPFpVT69cycjwUkPC"], "asm": "OP_DUP OP_HASH160 e0410128d5a75d0560a97f1d2a10fad2ab503186 OP_EQUALVERIFY OP_CHECKSIG", "type": "pubkeyhash"}, "value": 0.17228461, "n": 1}], "hex": "0100000001ceb20f14ac945d2c9b31032bd61ece978e9b1e453f58616883379ce6f29c5989010000006a47304402201b7c9c19ac0eee80cd405862166223ddd4ed117a22c96557a71a60c227ae2818022056086c3161dc0f5ea8b22616e246e58ad6abe8b8202c9ab26c84b0e2d3d714d5012102269118f7f5cbcbd34c1a9e02a99faea72fd18f254419ed8888483ea150cbf271ffffffff02142c7600000000001976a9141260648e1ff1b7f3f843d36103a71564d2cadecc88acade20601000000001976a914e0410128d5a75d0560a97f1d2a10fad2ab50318688ac00000000", "vin": [{"sequence": 4294967295, "scriptSig": {"hex": "47304402201b7c9c19ac0eee80cd405862166223ddd4ed117a22c96557a71a60c227ae2818022056086c3161dc0f5ea8b22616e246e58ad6abe8b8202c9ab26c84b0e2d3d714d5012102269118f7f5cbcbd34c1a9e02a99faea72fd18f254419ed8888483ea150cbf271", "asm": "304402201b7c9c19ac0eee80cd405862166223ddd4ed117a22c96557a71a60c227ae2818022056086c3161dc0f5ea8b22616e246e58ad6abe8b8202c9ab26c84b0e2d3d714d5[ALL] 02269118f7f5cbcbd34c1a9e02a99faea72fd18f254419ed8888483ea150cbf271"}, "vout": 1, "txid": "89599cf2e69c37836861583f451e9b8e97ce1ed62b03319b2c5d94ac140fb2ce"}], "txid": "05a83388759c33171aacf58577d8f10e847ca61cd49213bf18bb0a171ae8b552", "blocktime": 1537873891, "version": 1, "confirmations": 11478, "time": 1537873891, "locktime": 0, "vsize": 225, "size": 225}