{"hash": "ab5f8949dfef3c776c7689bf38f942a15ce690932fa03e9b9d602355dceb4f5f", "blockhash": "0000000000000000001e0dab787dd257d1dbfcb92a98c2207d5e1078be1f4165", "vout": [{"scriptPubKey": {"reqSigs": 1, "hex": "a9145c9b4e701d7bf7e435ee044637f187410d5a7b1587", "addresses": ["3A8g951Ku4sGNEFxkdQcEa39ToyRjC1zvq"], "asm": "OP_HASH160 5c9b4e701d7bf7e435ee044637f187410d5a7b15 OP_EQUAL", "type": "scripthash"}, "value": 0.00988661, "n": 0}, {"scriptPubKey": {"reqSigs": 1, "hex": "a9142cfe04e17c0df5d7942d618dd04f680957ce988287", "addresses": ["35nuxYBPqfNYR28XY7fptJQXHRKuar6NKV"], "asm": "OP_HASH160 2cfe04e17c0df5d7942d618dd04f680957ce9882 OP_EQUAL", "type": "scripthash"}, "value": 0.0037, "n": 1}], "hex": "020000000001032ca06c1bbf1e7ebdb29feecbe8e464d2f8ede9c4d9fbb70ac2465be2c6d80f7600000000171600149f384a1cd250914d8482b8460b4ab19aff7a3146feffffff4456ef8326e35eea31293d6b3bb5e122539bfada5afbeaf252f94eb304a60ad1000000006b483045022100a5dac4a872f5b44479005ae6822871fc0a2085d7d4e2eff6fd068ba78dabfcbc0220136c4dea9289c9ff6c9e71498ce3c4b5af952298efc96eb475194fc0393cb23d0121024fe3dece726a3acc7b75ac534107bdcf10fb4a1a02d7000e944484d016494f01feffffff7489980d2c87c227cc9ceaeacb4c5b7c3990d54af5996cb3602d31989127d126010000001716001474a75ae8d1a2f710b02cbd0adb1b22bb1c81dd42feffffff02f5150f000000000017a9145c9b4e701d7bf7e435ee044637f187410d5a7b158750a505000000000017a9142cfe04e17c0df5d7942d618dd04f680957ce9882870247304402200675053c0dcbadbb877c32f2c4f4ba6deb5590805a7adddd90eea1408b6d75dc02207f89004c99ee7245d423559966259375de81e3e2510e14e8609064659c6f556e01210394dfa30c28279ec65bf8a05fcf2db1ebd6ea174f39a69e321d979e0ef6675c090002483045022100fde21c55fc02334d7d15b5a38df651f17595de12c385ab19d6a9fe586c480b7b02204acc97c491f193fd9df41ebfa44e7367ddfa8e416484db33862046b50ae7545c0121020f5b075a3b0a360beea600927b56ef8b74f97f36ba1a1081138d07d16203379b12490800", "vin": [{"txinwitness": ["304402200675053c0dcbadbb877c32f2c4f4ba6deb5590805a7adddd90eea1408b6d75dc02207f89004c99ee7245d423559966259375de81e3e2510e14e8609064659c6f556e01", "0394dfa30c28279ec65bf8a05fcf2db1ebd6ea174f39a69e321d979e0ef6675c09"], "sequence": 4294967294, "scriptSig": {"hex": "1600149f384a1cd250914d8482b8460b4ab19aff7a3146", "asm": "00149f384a1cd250914d8482b8460b4ab19aff7a3146"}, "vout": 0, "txid": "760fd8c6e25b46c20ab7fbd9c4e9edf8d264e4e8cbee9fb2bd7e1ebf1b6ca02c"}, {"sequence": 4294967294, "scriptSig": {"hex": "483045022100a5dac4a872f5b44479005ae6822871fc0a2085d7d4e2eff6fd068ba78dabfcbc0220136c4dea9289c9ff6c9e71498ce3c4b5af952298efc96eb475194fc0393cb23d0121024fe3dece726a3acc7b75ac534107bdcf10fb4a1a02d7000e944484d016494f01", "asm": "3045022100a5dac4a872f5b44479005ae6822871fc0a2085d7d4e2eff6fd068ba78dabfcbc0220136c4dea9289c9ff6c9e71498ce3c4b5af952298efc96eb475194fc0393cb23d[ALL] 024fe3dece726a3acc7b75ac534107bdcf10fb4a1a02d7000e944484d016494f01"}, "vout": 0, "txid": "d10aa604b34ef952f2eafb5adafa9b5322e1b53b6b3d2931ea5ee32683ef5644"}, {"txinwitness": ["3045022100fde21c55fc02334d7d15b5a38df651f17595de12c385ab19d6a9fe586c480b7b02204acc97c491f193fd9df41ebfa44e7367ddfa8e416484db33862046b50ae7545c01", "020f5b075a3b0a360beea600927b56ef8b74f97f36ba1a1081138d07d16203379b"], "sequence": 4294967294, "scriptSig": {"hex": "16001474a75ae8d1a2f710b02cbd0adb1b22bb1c81dd42", "asm": "001474a75ae8d1a2f710b02cbd0adb1b22bb1c81dd42"}, "vout": 1, "txid": "26d1279198312d60b36c99f54ad590397c5b4ccbeaea9ccc27c2872c0d988974"}], "txid": "05ac5f884a0330ffe88c8b76745f45fd995e91a16b041063ce3ae8523fa3055d", "blocktime": 1537872475, "version": 2, "confirmations": 11486, "time": 1537872475, "locktime": 542994, "vsize": 405, "size": 568}