{"hash": "05aff8c00ab9321df056d4af3d05a64fadda4209515701d55c23f23c379421c5", "blockhash": "0000000000000000001e0dab787dd257d1dbfcb92a98c2207d5e1078be1f4165", "vout": [{"scriptPubKey": {"reqSigs": 1, "hex": "76a91497b94b89750e0b7963806c509ab6631523ee1b8988ac", "addresses": ["1EqF1VcTDKi9WoVi2NBQY37eyncB8t3PN8"], "asm": "OP_DUP OP_HASH160 97b94b89750e0b7963806c509ab6631523ee1b89 OP_EQUALVERIFY OP_CHECKSIG", "type": "pubkeyhash"}, "value": 0.00805898, "n": 0}, {"scriptPubKey": {"reqSigs": 1, "hex": "76a91493b7917f3eef1c69490aae4582dbf549f6f4b8ef88ac", "addresses": ["1EU4EkazWpRQ2Ys1iQ3QvLonTghHZMu1Bw"], "asm": "OP_DUP OP_HASH160 93b7917f3eef1c69490aae4582dbf549f6f4b8ef OP_EQUALVERIFY OP_CHECKSIG", "type": "pubkeyhash"}, "value": 0.01221225, "n": 1}], "hex": "02000000067f803f7e022f5381cb54a48f56fb174bb943e9639b68b1fe02838007b741ee9ead0100006a47304402201adbb5e8a748b2afbaf3870a4a4c3ddb1db889e5a5033470cab5d738ff0808f702203a0c777ea31124ae6879c1739d9ec9383f87f5676ddcb24ae56369433dda263a012102dfec624e00ec0b431e5a1c783f139eba65f3186371b0878ab938209341ba11eafeffffff7f803f7e022f5381cb54a48f56fb174bb943e9639b68b1fe02838007b741ee9eb80200006b483045022100ae344ae7d486beb52e97ae6c80e239ef1f51b09287e1649b227b7c9ad48729e402202d58672111220ae3407c3ef8c6cb8c2e3c5fa3ab6d8a8a42d337e69750a5c8d8012102579613b34829c754554ab046de283788a297680132aa45888c70f088feb3d495feffffff7f803f7e022f5381cb54a48f56fb174bb943e9639b68b1fe02838007b741ee9ed10200006a473044022006117db1d8a24a33653587cfd1a43fe1e3bedc1247745069c3bf5a167c7a2ae8022066951422f5bec3347d42f6e7bdbc97b99837b3beaf36fc2d98e39d2ebbffbb5d012102f6fd5744acd75a3450a01c0e5d6a84539ecef78164ed835f2fa49cd97a7fc994feffffffc94e8c74799a572d24733441d7acd5866318465b896cb2281c09bcbeded89f05b00000006b483045022100f78874cffe4d00b04c24c137e4c9cbab7dc5f11a7722775bdd61f8dd3cdb850e02202d9cb9534aaff725f4ea4e3ff3e973e485c045ce229d7ce6c1e734b2aa66c1cf01210200bcd8491082c65d514e860ab155a612ac2652f19696aa6c9fb93c02243a916cfeffffffbf0ea34d3756c19663ca95c8b4be7ff8c0275e617400fa2de5fc99d3bb4b8204000000006b483045022100ad4772b1d7b20706a5f65ba88cd007df71aae240f2140c18a7d2c2c7fa902452022030b6ab0271fa88ff1141867cdf21845721920a94844cdc8dca7560d3ff1784320121021f8adde101d957289638273f4f8d0f0800e1a74855ad9c4b3ab4a3e57bb5adc1feffffffc0ffe871618f097d6ab6a25e524768eda604752123a3d4d5c350203265c05169b10000006a47304402202d71eb8bfadcf811c65e15619f96dd5a908596c650ae132b416dde9e06387ef802202a0066dc9f1388bb8331de7e93e66d959b690d33cffcce69b29c6a1b613ac4cb01210285192be6b544d9620fa5bfbeb08d8f2a67fde492fb3653e57ef1ab3c6b4dc51dfeffffff020a4c0c00000000001976a91497b94b89750e0b7963806c509ab6631523ee1b8988ac69a21200000000001976a91493b7917f3eef1c69490aae4582dbf549f6f4b8ef88ac12490800", "vin": [{"sequence": 4294967294, "scriptSig": {"hex": "47304402201adbb5e8a748b2afbaf3870a4a4c3ddb1db889e5a5033470cab5d738ff0808f702203a0c777ea31124ae6879c1739d9ec9383f87f5676ddcb24ae56369433dda263a012102dfec624e00ec0b431e5a1c783f139eba65f3186371b0878ab938209341ba11ea", "asm": "304402201adbb5e8a748b2afbaf3870a4a4c3ddb1db889e5a5033470cab5d738ff0808f702203a0c777ea31124ae6879c1739d9ec9383f87f5676ddcb24ae56369433dda263a[ALL] 02dfec624e00ec0b431e5a1c783f139eba65f3186371b0878ab938209341ba11ea"}, "vout": 429, "txid": "9eee41b707808302feb1689b63e943b94b17fb568fa454cb81532f027e3f807f"}, {"sequence": 4294967294, "scriptSig": {"hex": "483045022100ae344ae7d486beb52e97ae6c80e239ef1f51b09287e1649b227b7c9ad48729e402202d58672111220ae3407c3ef8c6cb8c2e3c5fa3ab6d8a8a42d337e69750a5c8d8012102579613b34829c754554ab046de283788a297680132aa45888c70f088feb3d495", "asm": "3045022100ae344ae7d486beb52e97ae6c80e239ef1f51b09287e1649b227b7c9ad48729e402202d58672111220ae3407c3ef8c6cb8c2e3c5fa3ab6d8a8a42d337e69750a5c8d8[ALL] 02579613b34829c754554ab046de283788a297680132aa45888c70f088feb3d495"}, "vout": 696, "txid": "9eee41b707808302feb1689b63e943b94b17fb568fa454cb81532f027e3f807f"}, {"sequence": 4294967294, "scriptSig": {"hex": "473044022006117db1d8a24a33653587cfd1a43fe1e3bedc1247745069c3bf5a167c7a2ae8022066951422f5bec3347d42f6e7bdbc97b99837b3beaf36fc2d98e39d2ebbffbb5d012102f6fd5744acd75a3450a01c0e5d6a84539ecef78164ed835f2fa49cd97a7fc994", "asm": "3044022006117db1d8a24a33653587cfd1a43fe1e3bedc1247745069c3bf5a167c7a2ae8022066951422f5bec3347d42f6e7bdbc97b99837b3beaf36fc2d98e39d2ebbffbb5d[ALL] 02f6fd5744acd75a3450a01c0e5d6a84539ecef78164ed835f2fa49cd97a7fc994"}, "vout": 721, "txid": "9eee41b707808302feb1689b63e943b94b17fb568fa454cb81532f027e3f807f"}, {"sequence": 4294967294, "scriptSig": {"hex": "483045022100f78874cffe4d00b04c24c137e4c9cbab7dc5f11a7722775bdd61f8dd3cdb850e02202d9cb9534aaff725f4ea4e3ff3e973e485c045ce229d7ce6c1e734b2aa66c1cf01210200bcd8491082c65d514e860ab155a612ac2652f19696aa6c9fb93c02243a916c", "asm": "3045022100f78874cffe4d00b04c24c137e4c9cbab7dc5f11a7722775bdd61f8dd3cdb850e02202d9cb9534aaff725f4ea4e3ff3e973e485c045ce229d7ce6c1e734b2aa66c1cf[ALL] 0200bcd8491082c65d514e860ab155a612ac2652f19696aa6c9fb93c02243a916c"}, "vout": 176, "txid": "059fd8debebc091c28b26c895b46186386d5acd7413473242d579a79748c4ec9"}, {"sequence": 4294967294, "scriptSig": {"hex": "483045022100ad4772b1d7b20706a5f65ba88cd007df71aae240f2140c18a7d2c2c7fa902452022030b6ab0271fa88ff1141867cdf21845721920a94844cdc8dca7560d3ff1784320121021f8adde101d957289638273f4f8d0f0800e1a74855ad9c4b3ab4a3e57bb5adc1", "asm": "3045022100ad4772b1d7b20706a5f65ba88cd007df71aae240f2140c18a7d2c2c7fa902452022030b6ab0271fa88ff1141867cdf21845721920a94844cdc8dca7560d3ff178432[ALL] 021f8adde101d957289638273f4f8d0f0800e1a74855ad9c4b3ab4a3e57bb5adc1"}, "vout": 0, "txid": "04824bbbd399fce52dfa0074615e27c0f87fbeb4c895ca6396c156374da30ebf"}, {"sequence": 4294967294, "scriptSig": {"hex": "47304402202d71eb8bfadcf811c65e15619f96dd5a908596c650ae132b416dde9e06387ef802202a0066dc9f1388bb8331de7e93e66d959b690d33cffcce69b29c6a1b613ac4cb01210285192be6b544d9620fa5bfbeb08d8f2a67fde492fb3653e57ef1ab3c6b4dc51d", "asm": "304402202d71eb8bfadcf811c65e15619f96dd5a908596c650ae132b416dde9e06387ef802202a0066dc9f1388bb8331de7e93e66d959b690d33cffcce69b29c6a1b613ac4cb[ALL] 0285192be6b544d9620fa5bfbeb08d8f2a67fde492fb3653e57ef1ab3c6b4dc51d"}, "vout": 177, "txid": "6951c065322050c3d5d4a323217504a6ed6847525ea2b66a7d098f6171e8ffc0"}], "txid": "05aff8c00ab9321df056d4af3d05a64fadda4209515701d55c23f23c379421c5", "blocktime": 1537872475, "version": 2, "confirmations": 11486, "time": 1537872475, "locktime": 542994, "vsize": 963, "size": 963}