{"hash": "05b3e3d6d41ca5fd45b78d15eef22e5da5d14a4023b74f9684fbbfc8db4328c5", "blockhash": "0000000000000000001cda96e906b7601b7a6fb1a3b62bca570a9e5d8f4b3de1", "vout": [{"scriptPubKey": {"reqSigs": 1, "hex": "a91463c3a4c7dd7c3ec1c2b8d188762e44f23894c24b87", "addresses": ["3AnXC6WWMCN5NCGd3Rx9Zq7LXe2mPs2Bmb"], "asm": "OP_HASH160 63c3a4c7dd7c3ec1c2b8d188762e44f23894c24b OP_EQUAL", "type": "scripthash"}, "value": 0.00691, "n": 0}, {"scriptPubKey": {"reqSigs": 1, "hex": "76a9149167f6986730233847478531e3f23ef5f9c5fa1d88ac", "addresses": ["1EFqXJxMmst9LSTx4D9ArfPDwF8Q5sbR3Q"], "asm": "OP_DUP OP_HASH160 9167f6986730233847478531e3f23ef5f9c5fa1d OP_EQUALVERIFY OP_CHECKSIG", "type": "pubkeyhash"}, "value": 0.06840217, "n": 1}], "hex": "01000000018acb9012ee7716770f26c59ce6e7af14c6d106c7142c1682b3c5c857dbaae3da010000006a4730440220469b825f93fc460f1d47108faa3b170aec6c0797b862b91aa934979cc676637d02202d9e4befeddeef9d1537fb62a66de524bb398bc637c670d9047fa57ecf9adb85012102dff0fec7e6a597dda21362109bc7d4bab2cc00bd88e2f47c2bbdd1751b25b448ffffffff02388b0a000000000017a91463c3a4c7dd7c3ec1c2b8d188762e44f23894c24b87995f6800000000001976a9149167f6986730233847478531e3f23ef5f9c5fa1d88ac00000000", "vin": [{"sequence": 4294967295, "scriptSig": {"hex": "4730440220469b825f93fc460f1d47108faa3b170aec6c0797b862b91aa934979cc676637d02202d9e4befeddeef9d1537fb62a66de524bb398bc637c670d9047fa57ecf9adb85012102dff0fec7e6a597dda21362109bc7d4bab2cc00bd88e2f47c2bbdd1751b25b448", "asm": "30440220469b825f93fc460f1d47108faa3b170aec6c0797b862b91aa934979cc676637d02202d9e4befeddeef9d1537fb62a66de524bb398bc637c670d9047fa57ecf9adb85[ALL] 02dff0fec7e6a597dda21362109bc7d4bab2cc00bd88e2f47c2bbdd1751b25b448"}, "vout": 1, "txid": "dae3aadb57c8c5b382162c14c706d1c614afe7e69cc5260f771677ee1290cb8a"}], "txid": "05b3e3d6d41ca5fd45b78d15eef22e5da5d14a4023b74f9684fbbfc8db4328c5", "blocktime": 1537873282, "version": 1, "confirmations": 11484, "time": 1537873282, "locktime": 0, "vsize": 223, "size": 223}