{"hash": "05b4700560cbee8761664b6dc3160620dd893dd69bd61f95c9e35dbe29720cd3", "blockhash": "0000000000000000001f0ddff1eddb255c1121bcd4da4f1bc9a0da00cae72433", "vout": [{"scriptPubKey": {"reqSigs": 1, "hex": "a914bc618e212f97bee5c81e3d9398e7772aaf8a80eb87", "addresses": ["3Js5prvb6A33YqTE4CRXbnNbgSumhR6Nng"], "asm": "OP_HASH160 bc618e212f97bee5c81e3d9398e7772aaf8a80eb OP_EQUAL", "type": "scripthash"}, "value": 0.00755549, "n": 0}, {"scriptPubKey": {"reqSigs": 1, "hex": "00146d64f827efb201687f1912a30ab45ebcbe17c939", "addresses": ["bc1qd4j0sfl0kgqkslcez23s4dz7hjlp0jfew09xla"], "asm": "0 6d64f827efb201687f1912a30ab45ebcbe17c939", "type": "witness_v0_keyhash"}, "value": 0.00050193, "n": 1}], "hex": "01000000019f0905014e62c4213e65d1aa4d9f6cc911ecba4fbb47f0356a60ee216ff865613d0000006a4730440220600420f034a79d7ce0aeca2e055f33aa305de045b516e2f71c687d6913541fac0220201d25aea36fe151e1be769ffcdc3ea08afe7dbbe0b2d337296934c6516a18210121023b4f639b3c3274dcd9f31602f7a2cdcf0b1e27fe0ebf320bc71856bc50fd1a43ffffffff025d870b000000000017a914bc618e212f97bee5c81e3d9398e7772aaf8a80eb8711c40000000000001600146d64f827efb201687f1912a30ab45ebcbe17c93900000000", "vin": [{"sequence": 4294967295, "scriptSig": {"hex": "4730440220600420f034a79d7ce0aeca2e055f33aa305de045b516e2f71c687d6913541fac0220201d25aea36fe151e1be769ffcdc3ea08afe7dbbe0b2d337296934c6516a18210121023b4f639b3c3274dcd9f31602f7a2cdcf0b1e27fe0ebf320bc71856bc50fd1a43", "asm": "30440220600420f034a79d7ce0aeca2e055f33aa305de045b516e2f71c687d6913541fac0220201d25aea36fe151e1be769ffcdc3ea08afe7dbbe0b2d337296934c6516a1821[ALL] 023b4f639b3c3274dcd9f31602f7a2cdcf0b1e27fe0ebf320bc71856bc50fd1a43"}, "vout": 61, "txid": "6165f86f21ee606a35f047bb4fbaec11c96c9f4daad1653e21c4624e0105099f"}], "txid": "05b4700560cbee8761664b6dc3160620dd893dd69bd61f95c9e35dbe29720cd3", "blocktime": 1537872018, "version": 1, "confirmations": 11489, "time": 1537872018, "locktime": 0, "vsize": 220, "size": 220}