{"hash": "05bc2310f53edef84cd0d98fc7c3c1ec5e8c6036444a43e66edbccd0ee9da3fe", "blockhash": "0000000000000000000dcc0f55137456b1a82d3642486a52398922ac4d620174", "vout": [{"scriptPubKey": {"reqSigs": 1, "hex": "76a914f0d99fb62e971a5e2ba3de4295a595f575f6d94788ac", "addresses": ["1NxVsp3dGNimjLQG1bRmMPKgUgGyYK5GoJ"], "asm": "OP_DUP OP_HASH160 f0d99fb62e971a5e2ba3de4295a595f575f6d947 OP_EQUALVERIFY OP_CHECKSIG", "type": "pubkeyhash"}, "value": 92.15606512, "n": 0}, {"scriptPubKey": {"reqSigs": 1, "hex": "a914d9dd021a3bf672f63ea40aa41369bee2439cc8d387", "addresses": ["3MYyK6DfSKRPNAfMnBoy9Wcxx872AwdM4N"], "asm": "OP_HASH160 d9dd021a3bf672f63ea40aa41369bee2439cc8d3 OP_EQUAL", "type": "scripthash"}, "value": 0.2228, "n": 1}], "hex": "0200000001018485afae560014f1373c929c6f6c8430e97d6e7c8c7055a63ba4ebb0852d17010000006a47304402203803a1563d0b513cfdfac483459a2d49d45846479a51443e94a30641d935602a02201c5593f69cdfd83e41e0a5cb390048bcc97c4af1315328258a975ef40c801e74012103f2958872a8fbd32714a967a71df6a5a8aeff7ea1274f23be69e38b19a85a0b65ffffffff02f0fe4a25020000001976a914f0d99fb62e971a5e2ba3de4295a595f575f6d94788ac40f753010000000017a914d9dd021a3bf672f63ea40aa41369bee2439cc8d38700000000", "vin": [{"sequence": 4294967295, "scriptSig": {"hex": "47304402203803a1563d0b513cfdfac483459a2d49d45846479a51443e94a30641d935602a02201c5593f69cdfd83e41e0a5cb390048bcc97c4af1315328258a975ef40c801e74012103f2958872a8fbd32714a967a71df6a5a8aeff7ea1274f23be69e38b19a85a0b65", "asm": "304402203803a1563d0b513cfdfac483459a2d49d45846479a51443e94a30641d935602a02201c5593f69cdfd83e41e0a5cb390048bcc97c4af1315328258a975ef40c801e74[ALL] 03f2958872a8fbd32714a967a71df6a5a8aeff7ea1274f23be69e38b19a85a0b65"}, "vout": 1, "txid": "172d85b0eba43ba655708c7c6e7de930846c6f9c923c37f1140056aeaf858401"}], "txid": "05bc2310f53edef84cd0d98fc7c3c1ec5e8c6036444a43e66edbccd0ee9da3fe", "blocktime": 1537870268, "version": 2, "confirmations": 11516, "time": 1537870268, "locktime": 0, "vsize": 223, "size": 223}