{"hash": "05be59666f3cbc4ab8774046441b23a4f6085bfa34e022fa651bbebc2eef1969", "blockhash": "0000000000000000000e13cef7c366c0283d82e591d1acd082e914b08063cdf1", "vout": [{"scriptPubKey": {"reqSigs": 1, "hex": "76a9143f407507cad3ef27586d6866c8837097a86b52fb88ac", "addresses": ["16mSneWEyves22wbDhu2aJgdTTawAMUNcp"], "asm": "OP_DUP OP_HASH160 3f407507cad3ef27586d6866c8837097a86b52fb OP_EQUALVERIFY OP_CHECKSIG", "type": "pubkeyhash"}, "value": 2.259e-05, "n": 0}, {"scriptPubKey": {"reqSigs": 1, "hex": "76a91479b0db0bbef3a963fa06b9874019206d1d4fac4688ac", "addresses": ["1C6SdMj3yc6UHFXJfMYV5ANpjbQrLnCMYY"], "asm": "OP_DUP OP_HASH160 79b0db0bbef3a963fa06b9874019206d1d4fac46 OP_EQUALVERIFY OP_CHECKSIG", "type": "pubkeyhash"}, "value": 0.01703221, "n": 1}], "hex": "0100000005b0ed5ddff9eee5ef699ba8e9201f04dc7de38f59984fe973df58e116da10c50e000000006a47304402202689c0fff117110fbf944cc37b63e02b3ba4c639d7406ef71f7581e2662cc99b02206f5b56e979e877f662462b6274963a30da75c783445189435090f2019f5b6f6e01210328289b36359d790f54cc48ed2ac5b2dd6dc1bcae532e79c9e1bbebf06fd4d1b2ffffffffc0296868628f23deccb74478fcb171139982f3948a1db59f29b72a4253a13037010000006a473044022041b1b018b57c6fbdf3935e386a0166cf4edce6123275dec202a8d273d04d221502203e1f7b0781361cdf1f19ac5fd3e2db8a24704f20c8178696a369114ba158da83012102c29b4ae36d371d3cd73d369ab2dd1551eb4233818b8ca4b74cd5f513f39056a4ffffffff2ef22a3a67c7f626dc69bf3dec8e4fa8c0ce9c2c03a94378d4d7adf5d2680e84000000006b483045022100a162e5976541bda829a1c5556ffdd4fb9edaf82dfc53879c64b289f9a1e9f8d402207c412b015dd8fc3f00cb303f77703e77b952ccc6d4241e9013ab4b1f9ed081d40121029ea13d28e1cfa7515844b435800df763113a0b8c59549955e12d94579b84afbeffffffffb4a6eafaf03d18416a27812e95a3a010c6ee07782a13a7d55a9c777c8e906dd3000000006b4830450221008a90d617b715f06f91cd4f99de184ba4c495f8de067e312a995452f9298eb38802207d8f1baf6f4d03bcfa9f2308b0b7e1b0fcf0f95d292f01857b10503d3ffe37e9012102b81fa7bb5a43692e38b9decaf4da8de6bbef31b589979ce334c9d35654df24baffffffffbc1d7394c4181abc44afdbed0933d2176907c16cee6fc856752eed671a395bd5000000006b483045022100c0a9a9a6c3f7de044f800c4ed974b66c6a032f91ee5ca30c6bec6abd1ba1bdce02206c255f253ed8717ff55e63fe52071c32df486a9ed0972044a3d8b9e414fd6324012102685acba445809b2654447d384d6e857c952b59dc60ca4d88c6d2e66ca02f24eaffffffff02d3080000000000001976a9143f407507cad3ef27586d6866c8837097a86b52fb88ac35fd1900000000001976a91479b0db0bbef3a963fa06b9874019206d1d4fac4688ac00000000", "vin": [{"sequence": 4294967295, "scriptSig": {"hex": "47304402202689c0fff117110fbf944cc37b63e02b3ba4c639d7406ef71f7581e2662cc99b02206f5b56e979e877f662462b6274963a30da75c783445189435090f2019f5b6f6e01210328289b36359d790f54cc48ed2ac5b2dd6dc1bcae532e79c9e1bbebf06fd4d1b2", "asm": "304402202689c0fff117110fbf944cc37b63e02b3ba4c639d7406ef71f7581e2662cc99b02206f5b56e979e877f662462b6274963a30da75c783445189435090f2019f5b6f6e[ALL] 0328289b36359d790f54cc48ed2ac5b2dd6dc1bcae532e79c9e1bbebf06fd4d1b2"}, "vout": 0, "txid": "0ec510da16e158df73e94f98598fe37ddc041f20e9a89b69efe5eef9df5dedb0"}, {"sequence": 4294967295, "scriptSig": {"hex": "473044022041b1b018b57c6fbdf3935e386a0166cf4edce6123275dec202a8d273d04d221502203e1f7b0781361cdf1f19ac5fd3e2db8a24704f20c8178696a369114ba158da83012102c29b4ae36d371d3cd73d369ab2dd1551eb4233818b8ca4b74cd5f513f39056a4", "asm": "3044022041b1b018b57c6fbdf3935e386a0166cf4edce6123275dec202a8d273d04d221502203e1f7b0781361cdf1f19ac5fd3e2db8a24704f20c8178696a369114ba158da83[ALL] 02c29b4ae36d371d3cd73d369ab2dd1551eb4233818b8ca4b74cd5f513f39056a4"}, "vout": 1, "txid": "3730a153422ab7299fb51d8a94f382991371b1fc7844b7ccde238f62686829c0"}, {"sequence": 4294967295, "scriptSig": {"hex": "483045022100a162e5976541bda829a1c5556ffdd4fb9edaf82dfc53879c64b289f9a1e9f8d402207c412b015dd8fc3f00cb303f77703e77b952ccc6d4241e9013ab4b1f9ed081d40121029ea13d28e1cfa7515844b435800df763113a0b8c59549955e12d94579b84afbe", "asm": "3045022100a162e5976541bda829a1c5556ffdd4fb9edaf82dfc53879c64b289f9a1e9f8d402207c412b015dd8fc3f00cb303f77703e77b952ccc6d4241e9013ab4b1f9ed081d4[ALL] 029ea13d28e1cfa7515844b435800df763113a0b8c59549955e12d94579b84afbe"}, "vout": 0, "txid": "840e68d2f5add7d47843a9032c9ccec0a84f8eec3dbf69dc26f6c7673a2af22e"}, {"sequence": 4294967295, "scriptSig": {"hex": "4830450221008a90d617b715f06f91cd4f99de184ba4c495f8de067e312a995452f9298eb38802207d8f1baf6f4d03bcfa9f2308b0b7e1b0fcf0f95d292f01857b10503d3ffe37e9012102b81fa7bb5a43692e38b9decaf4da8de6bbef31b589979ce334c9d35654df24ba", "asm": "30450221008a90d617b715f06f91cd4f99de184ba4c495f8de067e312a995452f9298eb38802207d8f1baf6f4d03bcfa9f2308b0b7e1b0fcf0f95d292f01857b10503d3ffe37e9[ALL] 02b81fa7bb5a43692e38b9decaf4da8de6bbef31b589979ce334c9d35654df24ba"}, "vout": 0, "txid": "d36d908e7c779c5ad5a7132a7807eec610a0a3952e81276a41183df0faeaa6b4"}, {"sequence": 4294967295, "scriptSig": {"hex": "483045022100c0a9a9a6c3f7de044f800c4ed974b66c6a032f91ee5ca30c6bec6abd1ba1bdce02206c255f253ed8717ff55e63fe52071c32df486a9ed0972044a3d8b9e414fd6324012102685acba445809b2654447d384d6e857c952b59dc60ca4d88c6d2e66ca02f24ea", "asm": "3045022100c0a9a9a6c3f7de044f800c4ed974b66c6a032f91ee5ca30c6bec6abd1ba1bdce02206c255f253ed8717ff55e63fe52071c32df486a9ed0972044a3d8b9e414fd6324[ALL] 02685acba445809b2654447d384d6e857c952b59dc60ca4d88c6d2e66ca02f24ea"}, "vout": 0, "txid": "d55b391a67ed2e7556c86fee6cc1076917d23309eddbaf44bc1a18c494731dbc"}], "txid": "05be59666f3cbc4ab8774046441b23a4f6085bfa34e022fa651bbebc2eef1969", "blocktime": 1537871767, "version": 1, "confirmations": 11492, "time": 1537871767, "locktime": 0, "vsize": 816, "size": 816}