{"hash": "f8021d504ddb8471a694cb19ef686d46a32ac6f694020c929987fd9d7a1054b6", "blockhash": "00000000000000000017f5eb5941039fbcee6240d03bc1f2f8e35350df66a1d8", "vout": [{"scriptPubKey": {"reqSigs": 1, "hex": "a9143bfa02fd64c9a7d2ae20c0f38c4f242b2485fdb987", "addresses": ["37A9HyfNXBzB4zdWzJAbzK9nKGmHq6q5S2"], "asm": "OP_HASH160 3bfa02fd64c9a7d2ae20c0f38c4f242b2485fdb9 OP_EQUAL", "type": "scripthash"}, "value": 0.06934093, "n": 0}, {"scriptPubKey": {"reqSigs": 1, "hex": "a91469f376ef76fd70a6c446ffcc42f10b7013b8385087", "addresses": ["3BMEXuHfcHyV8LVVGYVmhKFLGCoWRKPMAr"], "asm": "OP_HASH160 69f376ef76fd70a6c446ffcc42f10b7013b83850 OP_EQUAL", "type": "scripthash"}, "value": 0.156674, "n": 1}], "hex": "0100000000010515c8588bd0c58fc536f2a053dfd7f011d1fd252c634f4a44821e39a9e43209a00200000023220020a0abd44e3ca0fe85acb34fefc64007e5e32e06f02cb571dd57829bb67bf14b80ffffffff1b5a64bf1ab48d44bd8d0e1a48b946de04998b4dac3f2302646f7a79e6aba9b201000000232200208483acadb5d6bd017a097a2e2667dad2ddeaf13f6bacd236b54ca5a39823d126ffffffff7326d8bea88269adff34f27fc22bcc50cdd9d188ea18c748e708839ab69898c800000000232200201ec0ae6c931f29f432c4e9c924f7c084fdba3e47967224be87f5dccd9bcf7ec5ffffffff7fd304cdd4db671395374743f2c4d615975615ef88941983a6a8b4ee20439e810000000023220020c99678c5b37ccb775aef0fe5cbda5cec5784aaf23765ac7edcdf21d420101bf0ffffffffb3934f1de941fdb8e9c10957efb36ba7165b8f9f92f5a3d998c33a32720f9b050100000023220020afc5b67762e92b2ae32d0b82a0f385c71e43d2213abb76f231246663bf8d666cffffffff024dce69000000000017a9143bfa02fd64c9a7d2ae20c0f38c4f242b2485fdb987c810ef000000000017a91469f376ef76fd70a6c446ffcc42f10b7013b8385087040048304502210089b34dc37b3f8702958359011036d87d77249b28aa29914a8103b6493d98531b0220201a68f85e853ebace510f24fffe425fe3c25197b72bd1e96bc0c5665fdbd5a2014730440220187f917d77bb2b27c924043c9eb2ada6b9641550976b68b938b2f9cf115e9f4302203e579fd2d0d7de93912a380100beb84a68f102d93728fb76f7bedab0058d252d01695221023d93ec639a4c761b81d30931e26ba41aac695bcea6308f85edb7994ef1b41ea021021c5bdb172dfd589be727a0b9ca0599bc53468c057beb80a206a760d860bf17bd2103b493ed17171409283710828fc2d2668dc715e47b3a6b03d80b295cf86e0f4e1153ae040048304502210089e7e4f05445da222f9815ad7eb854d038ecf047beced3ba778e109f1837b9cf022012abafef119dcbdfb3266167a5dad66e5de07d146c3a209dd1ce82a3ffe89be70147304402206e2322e92e436e6bad5e66172f736bc57c3481983e98de666d1fc35e8357f76e022055ba22f0f6c5d62eabfe29bd423f9545d17c70fc7c03e4f6011570aba0749ae9016952210367c1e41b86a427ab35ac711ebd2fbd83a0f5b57e1215e85f1e64432168b43de221028d4b73dc14c1c888ffc65aad321e9dff4f12c33875b410468b11874727c63fb921023d5b4fbdb621bcf13d6f50445fb190a878a5626306d77ad8778b48e04da9994553ae0400483045022100fb0132521fce6c14a12468bd94d2723707f4fe07768ddfaa80a52d09e39ae51a022060916111400333eb403394d8766f80d2432d4dbc102a53dc4f2d00c7cef880160147304402203c185c714f6469e3aa5077a02618c27f33592d41cff6af444955f0adc00666c502200ac2dde38c3162cfd59e60f59b8b1a74034852d4f618a7ce03637a9c6da5e67f0169522103cf73a839941e9179721bdbbff3e9fd090df6b7057e4d618ef771aa4072070b30210273a21e1a0d4259e8e7f13da9039eade6ddb32531b143b2de7eef09e2c36dd54d2103c917ad29240324e735024f896f832a81138286671891ad939b1480519188c53753ae040047304402206e8d10d890d6afa9e3f011270316900fa1e5ee3077d3b13579edf9de25606787022047069678d769f6e6cf3df51cb1b0f9dfc5793a3229d0a79bb824ea59c95e78a90147304402201a5cef312e78a412057d96a64cc1f0246f2b32fda1044965d70d7682bbf28c0a02206e05b354c9f11443d58ab0a5a8499c588cd9b2bba4172814da3b0f8ee56bf9cf0169522102ce38041bd624fe01d57bb1761c3a9ea8319c385ae17138e2b380be24554fecac210394ff1889d48f10f1e94a3d17f927d81c6f2dab32575f8b1919b045b98ac1fb282102b8c2656b097c221878f94c921b223d671482f494669cead0b19e1eda64385dec53ae040047304402205c4b08cb08f27582c7feba50a6bbc477e6abc7fa014cd8e726d9431ea25f58dc02205054b0953dda13bdd6b3fc9d9bba0acebc5ab4ed4963c504f90c4f4108cf22e5014830450221008f81d5aafbb0360594d73c375f58538490b261d9267ffe328788288736f668900220084389dadd6bd7954c9f91b955267ad12e6a13361d33f7a8f1c48e624517865b016952210357f4b5d0ab63a8dfd8f3f43be5a68f7875b15963078fef199e9c5b1518d65e642102d995b91cbc00ee0bd20b123d6ce32640917761ca721b2942afa8b53e201274c221037e3eebbe2d5b46f0982653d8af54d98c088443ac3eeb93faef0f2b4f834305f153ae00000000", "vin": [{"txinwitness": ["", "304502210089b34dc37b3f8702958359011036d87d77249b28aa29914a8103b6493d98531b0220201a68f85e853ebace510f24fffe425fe3c25197b72bd1e96bc0c5665fdbd5a201", "30440220187f917d77bb2b27c924043c9eb2ada6b9641550976b68b938b2f9cf115e9f4302203e579fd2d0d7de93912a380100beb84a68f102d93728fb76f7bedab0058d252d01", "5221023d93ec639a4c761b81d30931e26ba41aac695bcea6308f85edb7994ef1b41ea021021c5bdb172dfd589be727a0b9ca0599bc53468c057beb80a206a760d860bf17bd2103b493ed17171409283710828fc2d2668dc715e47b3a6b03d80b295cf86e0f4e1153ae"], "sequence": 4294967295, "scriptSig": {"hex": "220020a0abd44e3ca0fe85acb34fefc64007e5e32e06f02cb571dd57829bb67bf14b80", "asm": "0020a0abd44e3ca0fe85acb34fefc64007e5e32e06f02cb571dd57829bb67bf14b80"}, "vout": 2, "txid": "a00932e4a9391e82444a4f632c25fdd111f0d7df53a0f236c58fc5d08b58c815"}, {"txinwitness": ["", "304502210089e7e4f05445da222f9815ad7eb854d038ecf047beced3ba778e109f1837b9cf022012abafef119dcbdfb3266167a5dad66e5de07d146c3a209dd1ce82a3ffe89be701", "304402206e2322e92e436e6bad5e66172f736bc57c3481983e98de666d1fc35e8357f76e022055ba22f0f6c5d62eabfe29bd423f9545d17c70fc7c03e4f6011570aba0749ae901", "52210367c1e41b86a427ab35ac711ebd2fbd83a0f5b57e1215e85f1e64432168b43de221028d4b73dc14c1c888ffc65aad321e9dff4f12c33875b410468b11874727c63fb921023d5b4fbdb621bcf13d6f50445fb190a878a5626306d77ad8778b48e04da9994553ae"], "sequence": 4294967295, "scriptSig": {"hex": "2200208483acadb5d6bd017a097a2e2667dad2ddeaf13f6bacd236b54ca5a39823d126", "asm": "00208483acadb5d6bd017a097a2e2667dad2ddeaf13f6bacd236b54ca5a39823d126"}, "vout": 1, "txid": "b2a9abe6797a6f6402233fac4d8b9904de46b9481a0e8dbd448db41abf645a1b"}, {"txinwitness": ["", "3045022100fb0132521fce6c14a12468bd94d2723707f4fe07768ddfaa80a52d09e39ae51a022060916111400333eb403394d8766f80d2432d4dbc102a53dc4f2d00c7cef8801601", "304402203c185c714f6469e3aa5077a02618c27f33592d41cff6af444955f0adc00666c502200ac2dde38c3162cfd59e60f59b8b1a74034852d4f618a7ce03637a9c6da5e67f01", "522103cf73a839941e9179721bdbbff3e9fd090df6b7057e4d618ef771aa4072070b30210273a21e1a0d4259e8e7f13da9039eade6ddb32531b143b2de7eef09e2c36dd54d2103c917ad29240324e735024f896f832a81138286671891ad939b1480519188c53753ae"], "sequence": 4294967295, "scriptSig": {"hex": "2200201ec0ae6c931f29f432c4e9c924f7c084fdba3e47967224be87f5dccd9bcf7ec5", "asm": "00201ec0ae6c931f29f432c4e9c924f7c084fdba3e47967224be87f5dccd9bcf7ec5"}, "vout": 0, "txid": "c89898b69a8308e748c718ea88d1d9cd50cc2bc27ff234ffad6982a8bed82673"}, {"txinwitness": ["", "304402206e8d10d890d6afa9e3f011270316900fa1e5ee3077d3b13579edf9de25606787022047069678d769f6e6cf3df51cb1b0f9dfc5793a3229d0a79bb824ea59c95e78a901", "304402201a5cef312e78a412057d96a64cc1f0246f2b32fda1044965d70d7682bbf28c0a02206e05b354c9f11443d58ab0a5a8499c588cd9b2bba4172814da3b0f8ee56bf9cf01", "522102ce38041bd624fe01d57bb1761c3a9ea8319c385ae17138e2b380be24554fecac210394ff1889d48f10f1e94a3d17f927d81c6f2dab32575f8b1919b045b98ac1fb282102b8c2656b097c221878f94c921b223d671482f494669cead0b19e1eda64385dec53ae"], "sequence": 4294967295, "scriptSig": {"hex": "220020c99678c5b37ccb775aef0fe5cbda5cec5784aaf23765ac7edcdf21d420101bf0", "asm": "0020c99678c5b37ccb775aef0fe5cbda5cec5784aaf23765ac7edcdf21d420101bf0"}, "vout": 0, "txid": "819e4320eeb4a8a683199488ef15569715d6c4f2434737951367dbd4cd04d37f"}, {"txinwitness": ["", "304402205c4b08cb08f27582c7feba50a6bbc477e6abc7fa014cd8e726d9431ea25f58dc02205054b0953dda13bdd6b3fc9d9bba0acebc5ab4ed4963c504f90c4f4108cf22e501", "30450221008f81d5aafbb0360594d73c375f58538490b261d9267ffe328788288736f668900220084389dadd6bd7954c9f91b955267ad12e6a13361d33f7a8f1c48e624517865b01", "52210357f4b5d0ab63a8dfd8f3f43be5a68f7875b15963078fef199e9c5b1518d65e642102d995b91cbc00ee0bd20b123d6ce32640917761ca721b2942afa8b53e201274c221037e3eebbe2d5b46f0982653d8af54d98c088443ac3eeb93faef0f2b4f834305f153ae"], "sequence": 4294967295, "scriptSig": {"hex": "220020afc5b67762e92b2ae32d0b82a0f385c71e43d2213abb76f231246663bf8d666c", "asm": "0020afc5b67762e92b2ae32d0b82a0f385c71e43d2213abb76f231246663bf8d666c"}, "vout": 1, "txid": "059b0f72323ac398d9a3f5929f8f5b16a76bb3ef5709c1e9b8fd41e91d4f93b3"}], "txid": "05c15e298361d64f460e220d886391317fe4584caf891dfcf189eea6c217502a", "blocktime": 1537874412, "version": 1, "confirmations": 11467, "time": 1537874412, "locktime": 0, "vsize": 771, "size": 1720}