{"hash": "05c5707443dece503b999b85da40fa50fff6df14ec8f0ccb70aaeca7c2ee3a0f", "blockhash": "0000000000000000001f76057863aec43deb6fa401d9628bb513d65a8098bfab", "vout": [{"scriptPubKey": {"reqSigs": 1, "hex": "76a9140efb5f4fe7c5b6d1eb4865f8780f31833ca439ea88ac", "addresses": ["12NDbLjBuVYJfg9zGJdm3XjACHg1UqNYts"], "asm": "OP_DUP OP_HASH160 0efb5f4fe7c5b6d1eb4865f8780f31833ca439ea OP_EQUALVERIFY OP_CHECKSIG", "type": "pubkeyhash"}, "value": 0.00078033, "n": 0}, {"scriptPubKey": {"reqSigs": 1, "hex": "76a914555cf575899e7d6091a44633f59066bd84a5d72588ac", "addresses": ["18nMoCUwNEjkCQf8mf7f4nuf9edRXZtUFX"], "asm": "OP_DUP OP_HASH160 555cf575899e7d6091a44633f59066bd84a5d725 OP_EQUALVERIFY OP_CHECKSIG", "type": "pubkeyhash"}, "value": 0.01898284, "n": 1}], "hex": "010000000158708dd56f0a26036f11cc9986bb16265e590231315c833ea56f0667932ffbf7010000008b483045022100f6d4f3f2949f91188d4556f9a9646ad95d1bbcc7921d7bd01ef1b773a795d45902201df83da9bff05111a047fd259ea3f0d41a7f2b91ca02b834ff4446e354f22c400141048439bc6be5df9f4e6d8a81df314aec4b7e18217868eb96720dbfe64b7f4df568756ccec42e8935371ff75bb841fd320850b51782fd367bac7abf6443c1d6e50cffffffff02d1300100000000001976a9140efb5f4fe7c5b6d1eb4865f8780f31833ca439ea88ac2cf71c00000000001976a914555cf575899e7d6091a44633f59066bd84a5d72588ac00000000", "vin": [{"sequence": 4294967295, "scriptSig": {"hex": "483045022100f6d4f3f2949f91188d4556f9a9646ad95d1bbcc7921d7bd01ef1b773a795d45902201df83da9bff05111a047fd259ea3f0d41a7f2b91ca02b834ff4446e354f22c400141048439bc6be5df9f4e6d8a81df314aec4b7e18217868eb96720dbfe64b7f4df568756ccec42e8935371ff75bb841fd320850b51782fd367bac7abf6443c1d6e50c", "asm": "3045022100f6d4f3f2949f91188d4556f9a9646ad95d1bbcc7921d7bd01ef1b773a795d45902201df83da9bff05111a047fd259ea3f0d41a7f2b91ca02b834ff4446e354f22c40[ALL] 048439bc6be5df9f4e6d8a81df314aec4b7e18217868eb96720dbfe64b7f4df568756ccec42e8935371ff75bb841fd320850b51782fd367bac7abf6443c1d6e50c"}, "vout": 1, "txid": "f7fb2f9367066fa53e835c313102595e2616bb8699cc116f03260a6fd58d7058"}], "txid": "05c5707443dece503b999b85da40fa50fff6df14ec8f0ccb70aaeca7c2ee3a0f", "blocktime": 1537873891, "version": 1, "confirmations": 11478, "time": 1537873891, "locktime": 0, "vsize": 258, "size": 258}