{"hash": "05cc2bee997a1a56ab53917781c3f4a47c1cad56ddf458fb90726a62e7ab3f1d", "blockhash": "0000000000000000001e0dab787dd257d1dbfcb92a98c2207d5e1078be1f4165", "vout": [{"scriptPubKey": {"reqSigs": 1, "hex": "a9143966d62b19282cbca4dd621dcec413be7cfadc6587", "addresses": ["36vXdgyMG879dHimqNBsHKx5yXJFcfyqnP"], "asm": "OP_HASH160 3966d62b19282cbca4dd621dcec413be7cfadc65 OP_EQUAL", "type": "scripthash"}, "value": 0.00187439, "n": 0}, {"scriptPubKey": {"reqSigs": 1, "hex": "76a9144b97fb59826a694c4f9ad4879b8211e749f6cc0088ac", "addresses": ["17thkGgCctwWA5EPjJ3f6KzLTzTmXZ97xQ"], "asm": "OP_DUP OP_HASH160 4b97fb59826a694c4f9ad4879b8211e749f6cc00 OP_EQUALVERIFY OP_CHECKSIG", "type": "pubkeyhash"}, "value": 0.00060615, "n": 1}], "hex": "02000000026362d247556ebbcf936891686b30c8278145720799086cfadc8c57e4aad128e7000000006a47304402204899af697b2e5a062fcb3b81b331fe8e3157af103daf1e36710e3e9a0e062dc10220762685a8c93cf343e4e92cf1ad05550082e4353907f3b1aa47c10dda4bbbeb1c0121026c86c1225306fc78310329e4bef9594147e846750a89dd7b94e9d1b865e77c05ffffffff4ff769e69c77c497624453c90cdf84d562296c9bdc60e5e9bf0572c3bda119e0010000006a47304402201fe8d764a007247c00576943b8522b563d1cdbc11f8133cc2ab6de65e0254b4f02200215831d06ac0796f3191401a5abf094fd2e022628a2977e8c4c57aabf54aad70121026c86c1225306fc78310329e4bef9594147e846750a89dd7b94e9d1b865e77c05ffffffff022fdc02000000000017a9143966d62b19282cbca4dd621dcec413be7cfadc6587c7ec0000000000001976a9144b97fb59826a694c4f9ad4879b8211e749f6cc0088ac00000000", "vin": [{"sequence": 4294967295, "scriptSig": {"hex": "47304402204899af697b2e5a062fcb3b81b331fe8e3157af103daf1e36710e3e9a0e062dc10220762685a8c93cf343e4e92cf1ad05550082e4353907f3b1aa47c10dda4bbbeb1c0121026c86c1225306fc78310329e4bef9594147e846750a89dd7b94e9d1b865e77c05", "asm": "304402204899af697b2e5a062fcb3b81b331fe8e3157af103daf1e36710e3e9a0e062dc10220762685a8c93cf343e4e92cf1ad05550082e4353907f3b1aa47c10dda4bbbeb1c[ALL] 026c86c1225306fc78310329e4bef9594147e846750a89dd7b94e9d1b865e77c05"}, "vout": 0, "txid": "e728d1aae4578cdcfa6c08990772458127c8306b68916893cfbb6e5547d26263"}, {"sequence": 4294967295, "scriptSig": {"hex": "47304402201fe8d764a007247c00576943b8522b563d1cdbc11f8133cc2ab6de65e0254b4f02200215831d06ac0796f3191401a5abf094fd2e022628a2977e8c4c57aabf54aad70121026c86c1225306fc78310329e4bef9594147e846750a89dd7b94e9d1b865e77c05", "asm": "304402201fe8d764a007247c00576943b8522b563d1cdbc11f8133cc2ab6de65e0254b4f02200215831d06ac0796f3191401a5abf094fd2e022628a2977e8c4c57aabf54aad7[ALL] 026c86c1225306fc78310329e4bef9594147e846750a89dd7b94e9d1b865e77c05"}, "vout": 1, "txid": "e019a1bdc37205bfe9e560dc9b6c2962d584df0cc953446297c4779ce669f74f"}], "txid": "05cc2bee997a1a56ab53917781c3f4a47c1cad56ddf458fb90726a62e7ab3f1d", "blocktime": 1537872475, "version": 2, "confirmations": 11486, "time": 1537872475, "locktime": 0, "vsize": 370, "size": 370}