{"hash": "05cdb103cbdad9a4faedbc581b42f2b29e7b2fe8861dd46362b90f1057e74b9d", "blockhash": "00000000000000000018f53835495a110e01622372bf6ae95dc86f2b0ab887b0", "vout": [{"scriptPubKey": {"reqSigs": 1, "hex": "a9143e6f15908582f42917ec31e39bf8722fc9d5db3f87", "addresses": ["37P8thrtDXb6Di5E7f4FL3bpzum3fhUvT7"], "asm": "OP_HASH160 3e6f15908582f42917ec31e39bf8722fc9d5db3f OP_EQUAL", "type": "scripthash"}, "value": 0.0002, "n": 0}, {"scriptPubKey": {"reqSigs": 1, "hex": "76a91494645ed25d9e4885a3c60e8e838d5fe6378dc75c88ac", "addresses": ["1EXdFFQXyn3PuLFx7dpog9whGNuqXfdaR8"], "asm": "OP_DUP OP_HASH160 94645ed25d9e4885a3c60e8e838d5fe6378dc75c OP_EQUALVERIFY OP_CHECKSIG", "type": "pubkeyhash"}, "value": 0.16367332, "n": 1}], "hex": "010000000161dbd48a6b020432a71ce51640fb7903b7fba6f2e65b1043d497cce715a851bc000000006a4730440220766ed874b9393a26e7665903d0f459d2e9fc6f500d73829cf4f05aff0a26382002204a71b54a40fe462e15d0deb366722e5dcd9d9d013d6896b46f24fef9b61a65f90121029d1a8f6f4e1c4ff255f41a2dcda940aea985002bb1e10684b01fb5571ee4286effffffff02204e00000000000017a9143e6f15908582f42917ec31e39bf8722fc9d5db3f87e4bef900000000001976a91494645ed25d9e4885a3c60e8e838d5fe6378dc75c88ac00000000", "vin": [{"sequence": 4294967295, "scriptSig": {"hex": "4730440220766ed874b9393a26e7665903d0f459d2e9fc6f500d73829cf4f05aff0a26382002204a71b54a40fe462e15d0deb366722e5dcd9d9d013d6896b46f24fef9b61a65f90121029d1a8f6f4e1c4ff255f41a2dcda940aea985002bb1e10684b01fb5571ee4286e", "asm": "30440220766ed874b9393a26e7665903d0f459d2e9fc6f500d73829cf4f05aff0a26382002204a71b54a40fe462e15d0deb366722e5dcd9d9d013d6896b46f24fef9b61a65f9[ALL] 029d1a8f6f4e1c4ff255f41a2dcda940aea985002bb1e10684b01fb5571ee4286e"}, "vout": 0, "txid": "bc51a815e7cc97d443105be6f2a6fbb70379fb4016e51ca73204026b8ad4db61"}], "txid": "05cdb103cbdad9a4faedbc581b42f2b29e7b2fe8861dd46362b90f1057e74b9d", "blocktime": 1537870928, "version": 1, "confirmations": 11512, "time": 1537870928, "locktime": 0, "vsize": 223, "size": 223}