{"hash": "99bbaa6f9793eb811d783d969cdd39299b1b401162ee811d4cab035cda9f1c89", "blockhash": "0000000000000000001e0dab787dd257d1dbfcb92a98c2207d5e1078be1f4165", "vout": [{"scriptPubKey": {"reqSigs": 1, "hex": "76a914fc8ab65ea100e7ddae57418a0dbb53d3a7c9fcc088ac", "addresses": ["1Q2KTFJCKUFbYbKWKwaVDw8QvEmiCz1jtv"], "asm": "OP_DUP OP_HASH160 fc8ab65ea100e7ddae57418a0dbb53d3a7c9fcc0 OP_EQUALVERIFY OP_CHECKSIG", "type": "pubkeyhash"}, "value": 0.0035335, "n": 0}, {"scriptPubKey": {"reqSigs": 1, "hex": "00142ffd0f9dd3c132ad233b634fe9d238e883151971", "addresses": ["bc1q9l7sl8wncye26gemvd87n53cazp32xt37p0523"], "asm": "0 2ffd0f9dd3c132ad233b634fe9d238e883151971", "type": "witness_v0_keyhash"}, "value": 4.89e-05, "n": 1}], "hex": "010000000001013153fc31569816ca8ae861a522e35c9821c1b344681fbcaa328d3729d50d44a0000000001716001418fb16cd212198c325efb339e779203c4e7da0f1ffffffff0246640500000000001976a914fc8ab65ea100e7ddae57418a0dbb53d3a7c9fcc088ac1a130000000000001600142ffd0f9dd3c132ad233b634fe9d238e8831519710247304402205006d16acc8a02fda82bec9fdcd31b413d34e1f71b097f66b2d55090d70b000b02205698a0ab27a6ad44c874989184672b6758409ebcc2f4bde141cab291a50c48cd0121028903a80690e5ae792548db13803913c3e4100c9f36ed819e8a2711fdbad1c58f00000000", "vin": [{"txinwitness": ["304402205006d16acc8a02fda82bec9fdcd31b413d34e1f71b097f66b2d55090d70b000b02205698a0ab27a6ad44c874989184672b6758409ebcc2f4bde141cab291a50c48cd01", "028903a80690e5ae792548db13803913c3e4100c9f36ed819e8a2711fdbad1c58f"], "sequence": 4294967295, "scriptSig": {"hex": "16001418fb16cd212198c325efb339e779203c4e7da0f1", "asm": "001418fb16cd212198c325efb339e779203c4e7da0f1"}, "vout": 0, "txid": "a0440dd529378d32aabc1f6844b3c121985ce322a561e88aca16985631fc5331"}], "txid": "05ce7e13e33a94de6afb1d961c2b3117080f1b44d08f68072cdd1238832456ec", "blocktime": 1537872475, "version": 1, "confirmations": 11487, "time": 1537872475, "locktime": 0, "vsize": 167, "size": 248}