{"hash": "4ba01c0b094d376550a931ff6ae5acbc2ea706a88a6e0e6509dd6ae2f6a69219", "blockhash": "00000000000000000004ffacab907a6b429b9a5745fa0b75af4234bf69dd7176", "vout": [{"scriptPubKey": {"reqSigs": 1, "hex": "a91401d2dc0f077d29967df6583f8dca13d5af5af1d187", "addresses": ["31rfCWyvdpo33YJC8AH3YPF5fuUpMFiV4M"], "asm": "OP_HASH160 01d2dc0f077d29967df6583f8dca13d5af5af1d1 OP_EQUAL", "type": "scripthash"}, "value": 0.00922623, "n": 0}, {"scriptPubKey": {"reqSigs": 1, "hex": "a914f665c4c8ad89b75ecca84bfa627f066f56706a8487", "addresses": ["3Q9r4kF5MeimMhD7Mr9sj63Vu2r9aSD4RG"], "asm": "OP_HASH160 f665c4c8ad89b75ecca84bfa627f066f56706a84 OP_EQUAL", "type": "scripthash"}, "value": 0.33197377, "n": 1}], "hex": "010000000001010da760f3183048685a7a6d0d3377e183b33c612614fa3fbb99f6c148e83bfb5400000000232200202812d02336f79c7eb465e7072c440ce5709c33923cd9a271e5a03e787228003affffffff02ff130e000000000017a91401d2dc0f077d29967df6583f8dca13d5af5af1d187418dfa010000000017a914f665c4c8ad89b75ecca84bfa627f066f56706a848704004730440220096c37c326ede9e21547cecd28312d793ac24b057fa697904f8f2da9cb7679c502205a03270bec017697e4bc96f4e3b2d81b8a0fff68b2d13e2a1bd7db95eb6b382701483045022100e18c19ecd7a29a2180d1f0ba70aa585a882ee6fd8bf401eac5c172edafe6dd9002206d591d8e01726719767b727769910c446c1515190183ff891a010d9e32af7a490169522103e4b079a33fa2f64130295858a89e840198338f0bf02526e79c028c8bbae7c0562103790fc5e8e9b43f0e66ee43c889c2752b069f4e512f96c54cdec1db5c9f683a142102d516bfb94dcef0770ef07bf5e64dc17e3780ea095a2bfaeab76cf070dd295fbc53ae00000000", "vin": [{"txinwitness": ["", "30440220096c37c326ede9e21547cecd28312d793ac24b057fa697904f8f2da9cb7679c502205a03270bec017697e4bc96f4e3b2d81b8a0fff68b2d13e2a1bd7db95eb6b382701", "3045022100e18c19ecd7a29a2180d1f0ba70aa585a882ee6fd8bf401eac5c172edafe6dd9002206d591d8e01726719767b727769910c446c1515190183ff891a010d9e32af7a4901", "522103e4b079a33fa2f64130295858a89e840198338f0bf02526e79c028c8bbae7c0562103790fc5e8e9b43f0e66ee43c889c2752b069f4e512f96c54cdec1db5c9f683a142102d516bfb94dcef0770ef07bf5e64dc17e3780ea095a2bfaeab76cf070dd295fbc53ae"], "sequence": 4294967295, "scriptSig": {"hex": "2200202812d02336f79c7eb465e7072c440ce5709c33923cd9a271e5a03e787228003a", "asm": "00202812d02336f79c7eb465e7072c440ce5709c33923cd9a271e5a03e787228003a"}, "vout": 0, "txid": "54fb3be848c1f699bb3ffa1426613cb383e177330d6d7a5a68483018f360a70d"}], "txid": "05d2222ecc1ad93a5d110625398988f17fd286f95f83cc7c7f11f8487253db49", "blocktime": 1537875543, "version": 1, "confirmations": 11464, "time": 1537875543, "locktime": 0, "vsize": 214, "size": 405}