{"hash": "05d60b5d11c9d005054d37ea228a38aedb582bb5b53f40c946d7f05cde8770b4", "blockhash": "00000000000000000018f53835495a110e01622372bf6ae95dc86f2b0ab887b0", "vout": [{"scriptPubKey": {"type": "nulldata", "hex": "6a146f6d6e69000000000000001f0000000045bcc880", "asm": "OP_RETURN 6f6d6e69000000000000001f0000000045bcc880"}, "value": 0.0, "n": 0}, {"scriptPubKey": {"reqSigs": 1, "hex": "76a914951752ac3b5c4130673b734adf73bed448a268e388ac", "addresses": ["1EbKd6AZyrJMmXkNtdw9ZUKj9GVoL3U6Qe"], "asm": "OP_DUP OP_HASH160 951752ac3b5c4130673b734adf73bed448a268e3 OP_EQUALVERIFY OP_CHECKSIG", "type": "pubkeyhash"}, "value": 5.46e-06, "n": 1}, {"scriptPubKey": {"reqSigs": 1, "hex": "76a914a25dec4d0011064ef106a983c39c7a540699f22088ac", "addresses": ["1FoWyxwPXuj4C6abqwhjDWdz6D4PZgYRjA"], "asm": "OP_DUP OP_HASH160 a25dec4d0011064ef106a983c39c7a540699f220 OP_EQUALVERIFY OP_CHECKSIG", "type": "pubkeyhash"}, "value": 0.01980768, "n": 2}], "hex": "01000000014c7dd5cdaca22d6365c95b37aa75eec0f906fd814e019996f40d40689c988e2b010000006b483045022100d80c32a02d3b3ab27e6366ac3f7c0445e772583e7763e9db9c8bd317d7214e230220211e82a532373f7cfcdab121086043e53e64fd604c0a7696f5351d628d72c5ff012103da5bac7b36d5aa38f531c6b9601e21bb598a4b6716ebed38b009a55dabde9440feffffff030000000000000000166a146f6d6e69000000000000001f0000000045bcc88022020000000000001976a914951752ac3b5c4130673b734adf73bed448a268e388ac60391e00000000001976a914a25dec4d0011064ef106a983c39c7a540699f22088ac0d490800", "vin": [{"sequence": 4294967294, "scriptSig": {"hex": "483045022100d80c32a02d3b3ab27e6366ac3f7c0445e772583e7763e9db9c8bd317d7214e230220211e82a532373f7cfcdab121086043e53e64fd604c0a7696f5351d628d72c5ff012103da5bac7b36d5aa38f531c6b9601e21bb598a4b6716ebed38b009a55dabde9440", "asm": "3045022100d80c32a02d3b3ab27e6366ac3f7c0445e772583e7763e9db9c8bd317d7214e230220211e82a532373f7cfcdab121086043e53e64fd604c0a7696f5351d628d72c5ff[ALL] 03da5bac7b36d5aa38f531c6b9601e21bb598a4b6716ebed38b009a55dabde9440"}, "vout": 1, "txid": "2b8e989c68400df49699014e81fd06f9c0ee75aa375bc965632da2accdd57d4c"}], "txid": "05d60b5d11c9d005054d37ea228a38aedb582bb5b53f40c946d7f05cde8770b4", "blocktime": 1537870928, "version": 1, "confirmations": 11512, "time": 1537870928, "locktime": 542989, "vsize": 257, "size": 257}