{"hash": "5405d5e597cec93450aa5a7def2e4a256bca61212b63e8240d36ec90bac70167", "blockhash": "0000000000000000000e13cef7c366c0283d82e591d1acd082e914b08063cdf1", "vout": [{"scriptPubKey": {"reqSigs": 1, "hex": "76a9142f2b738826f958842c36641548ddfd0107d6fc8d88ac", "addresses": ["15JQp4mjZRtSPHxfH5d8P7fbyehR4m4gGN"], "asm": "OP_DUP OP_HASH160 2f2b738826f958842c36641548ddfd0107d6fc8d OP_EQUALVERIFY OP_CHECKSIG", "type": "pubkeyhash"}, "value": 0.00632085, "n": 0}, {"scriptPubKey": {"reqSigs": 1, "hex": "0014fd7b0ec4b1ba6337b6dafb7fa13fd3a3778de5b9", "addresses": ["bc1ql4asa393hf3n0dk6ldl6z07n5dmcmede9tcg62"], "asm": "0 fd7b0ec4b1ba6337b6dafb7fa13fd3a3778de5b9", "type": "witness_v0_keyhash"}, "value": 0.010806, "n": 1}], "hex": "01000000000101380d00551ea4db0ec93219ea9e65827167c73f5a66e2371867f5938d3d7214f90000000000ffffffff0215a50900000000001976a9142f2b738826f958842c36641548ddfd0107d6fc8d88ac187d100000000000160014fd7b0ec4b1ba6337b6dafb7fa13fd3a3778de5b902483045022100f294c91e79436420624cdfaee25a28074885ffd370504a144eadaa4ec4ded94f02205dd77ac875de596ad3ceed5b408eb7fafa6a8b31c73cf83f1bc43f03016b3f09012103cb414b14c48486116a3c350b5823edc53c908e8bdbe978ea3388b059f61927ba00000000", "vin": [{"txinwitness": ["3045022100f294c91e79436420624cdfaee25a28074885ffd370504a144eadaa4ec4ded94f02205dd77ac875de596ad3ceed5b408eb7fafa6a8b31c73cf83f1bc43f03016b3f0901", "03cb414b14c48486116a3c350b5823edc53c908e8bdbe978ea3388b059f61927ba"], "sequence": 4294967295, "scriptSig": {"hex": "", "asm": ""}, "vout": 0, "txid": "f914723d8d93f5671837e2665a3fc7677182659eea1932c90edba41e55000d38"}], "txid": "05dc2a42015cfc394d0ddbbcb14b0b3ad3f70f0232253680d7ed9882cadd8632", "blocktime": 1537871767, "version": 1, "confirmations": 11495, "time": 1537871767, "locktime": 0, "vsize": 144, "size": 226}