{"hash": "05e0037139dbc0f41339d37ec923c976c78941c67a5133b3b0484e916a2cda1a", "blockhash": "000000000000000000022b45ed06c6f4ccd3cf7fb5ba4856ebd2e58215665228", "vout": [{"scriptPubKey": {"reqSigs": 1, "hex": "76a91404a3cfa933dd31407895a3d7de385061e11945f288ac", "addresses": ["1RXwZuXH5TYJQmNtSvkVUhs3u3TWKuTU8"], "asm": "OP_DUP OP_HASH160 04a3cfa933dd31407895a3d7de385061e11945f2 OP_EQUALVERIFY OP_CHECKSIG", "type": "pubkeyhash"}, "value": 0.05288642, "n": 0}], "hex": "0100000001f0699def602f4057cf425e1a03185e71ffc6e5eb4a0a99f028093a36f886898f000000006a47304402204ad55e3dcb11529b91e3edd23a5bf9ebbf4ca4bc5d75fa322a40298c33fcdb10022077fbcb8f1c74767835aaf698577faf818975aeccd7dd5e8f55437c984c6c6a29012103609f84c67e17cef860592ce6b7f791114bc15b04ef37fb810849fe8e52535881ffffffff01c2b25000000000001976a91404a3cfa933dd31407895a3d7de385061e11945f288ac00000000", "vin": [{"sequence": 4294967295, "scriptSig": {"hex": "47304402204ad55e3dcb11529b91e3edd23a5bf9ebbf4ca4bc5d75fa322a40298c33fcdb10022077fbcb8f1c74767835aaf698577faf818975aeccd7dd5e8f55437c984c6c6a29012103609f84c67e17cef860592ce6b7f791114bc15b04ef37fb810849fe8e52535881", "asm": "304402204ad55e3dcb11529b91e3edd23a5bf9ebbf4ca4bc5d75fa322a40298c33fcdb10022077fbcb8f1c74767835aaf698577faf818975aeccd7dd5e8f55437c984c6c6a29[ALL] 03609f84c67e17cef860592ce6b7f791114bc15b04ef37fb810849fe8e52535881"}, "vout": 0, "txid": "8f8986f8363a0928f0990a4aebe5c6ff715e18031a5e42cf57402f60ef9d69f0"}], "txid": "05e0037139dbc0f41339d37ec923c976c78941c67a5133b3b0484e916a2cda1a", "blocktime": 1537869901, "version": 1, "confirmations": 11522, "time": 1537869901, "locktime": 0, "vsize": 191, "size": 191}