{"hash": "b2d0432925b63c0524c9a2e88794df95d5796f5f6901306f7abc78339159fc19", "blockhash": "00000000000000000004ffacab907a6b429b9a5745fa0b75af4234bf69dd7176", "vout": [{"scriptPubKey": {"reqSigs": 1, "hex": "a91477e41d5d2428a3e4ae8139b90e7ac2c103b99dc787", "addresses": ["3Ccwc4NcUs4c5D6V2d8txGB3bnZwhPAR7e"], "asm": "OP_HASH160 77e41d5d2428a3e4ae8139b90e7ac2c103b99dc7 OP_EQUAL", "type": "scripthash"}, "value": 0.00996319, "n": 0}, {"scriptPubKey": {"reqSigs": 1, "hex": "a9148b4a86d24bda4d1e0a8a93ca3d8212e2ea55f78d87", "addresses": ["3EPX8QkgCNQzdu6D2k2yRwrPxUunmZQ5HJ"], "asm": "OP_HASH160 8b4a86d24bda4d1e0a8a93ca3d8212e2ea55f78d OP_EQUAL", "type": "scripthash"}, "value": 0.04259224, "n": 1}], "hex": "0200000000010434f2c035638f66d006e36b2f0c7d2ae16b4a98154107d4e7ddc8e546c803c6060000000017160014b1642e6443b0b5a31e46082c71f5d5c15dc1c6bafdffffff9a06a5139ddd8b3b87469a10013f5d127c84225c472d76d87b176d9c1e9f1c0d0300000017160014a1af9433960693ac78f6aa8fade843a228afceb1fdfffffff681fb5fb1de8e3831bce8d9e43579702e78cc6d9b91c3257f0b0b9725bd40f500000000171600145210ae53d9e1c3342661b6ead0087f5c7790bca3fdfffffffd79883539c8cc9b5b770b47f49d4808dec9686733e4f703f8be30fb6cc08a500000000017160014885e9b71dee4504b2ac7c9b095ced51510a6fd22fdffffff02df330f000000000017a91477e41d5d2428a3e4ae8139b90e7ac2c103b99dc78798fd40000000000017a9148b4a86d24bda4d1e0a8a93ca3d8212e2ea55f78d8702473044022010c8dc2757ceda41a121e7299a8ee5e5e510ded3a68ff9d3b5d603c5fd34701c0220428ee01724d851c3920a5309a56dcbe287e5fd9a7fe2a4be734d3d3aefee1ad9012102980cdf2c5d7ecf2e3daa624f02a685ce4fdeab8a0c9b2f4af10ca33c9eb12f5e02483045022100b13baef3919008c1af4d9e24cbeef7c3f9c20f1aad43315d44749474f1084ea60220287df861397919b61607bb61d8ddc5855901fae5d13a65a62b0095f90116a231012102d14ede58e060ca4fa057d3f36234aa083d3337defa47ad4977b051913ac54ca00247304402205abd1fcf702dbd928f2a41e846e1871d569ded8bb24203f4bd593d528344ac04022043596c4faf9ba455362c25caf327123f981370988838702eb466c974ab0efd8e0121032cf4e6d384a8147c74ccf7da3655521136e4ee85addea426fd70706936d86b7f0247304402205dbf3145014be94b2fb14ee2cefcb5b044e27c8e25d5c0643989e5342ab17d210220142df281acb54b5baf06a3a2f413b1469e0406ec10518f490e5f24b7fa22d70e012103f180e11269fbc62f29e5c47bd5b983a33cbfc554f3bfe0bf7c91a7b9df1d49cc16490800", "vin": [{"txinwitness": ["3044022010c8dc2757ceda41a121e7299a8ee5e5e510ded3a68ff9d3b5d603c5fd34701c0220428ee01724d851c3920a5309a56dcbe287e5fd9a7fe2a4be734d3d3aefee1ad901", "02980cdf2c5d7ecf2e3daa624f02a685ce4fdeab8a0c9b2f4af10ca33c9eb12f5e"], "sequence": 4294967293, "scriptSig": {"hex": "160014b1642e6443b0b5a31e46082c71f5d5c15dc1c6ba", "asm": "0014b1642e6443b0b5a31e46082c71f5d5c15dc1c6ba"}, "vout": 0, "txid": "06c603c846e5c8dde7d4074115984a6be12a7d0c2f6be306d0668f6335c0f234"}, {"txinwitness": ["3045022100b13baef3919008c1af4d9e24cbeef7c3f9c20f1aad43315d44749474f1084ea60220287df861397919b61607bb61d8ddc5855901fae5d13a65a62b0095f90116a23101", "02d14ede58e060ca4fa057d3f36234aa083d3337defa47ad4977b051913ac54ca0"], "sequence": 4294967293, "scriptSig": {"hex": "160014a1af9433960693ac78f6aa8fade843a228afceb1", "asm": "0014a1af9433960693ac78f6aa8fade843a228afceb1"}, "vout": 3, "txid": "0d1c9f1e9c6d177bd8762d475c22847c125d3f01109a46873b8bdd9d13a5069a"}, {"txinwitness": ["304402205abd1fcf702dbd928f2a41e846e1871d569ded8bb24203f4bd593d528344ac04022043596c4faf9ba455362c25caf327123f981370988838702eb466c974ab0efd8e01", "032cf4e6d384a8147c74ccf7da3655521136e4ee85addea426fd70706936d86b7f"], "sequence": 4294967293, "scriptSig": {"hex": "1600145210ae53d9e1c3342661b6ead0087f5c7790bca3", "asm": "00145210ae53d9e1c3342661b6ead0087f5c7790bca3"}, "vout": 0, "txid": "f540bd25970b0b7f25c3919b6dcc782e707935e4d9e8bc31388edeb15ffb81f6"}, {"txinwitness": ["304402205dbf3145014be94b2fb14ee2cefcb5b044e27c8e25d5c0643989e5342ab17d210220142df281acb54b5baf06a3a2f413b1469e0406ec10518f490e5f24b7fa22d70e01", "03f180e11269fbc62f29e5c47bd5b983a33cbfc554f3bfe0bf7c91a7b9df1d49cc"], "sequence": 4294967293, "scriptSig": {"hex": "160014885e9b71dee4504b2ac7c9b095ced51510a6fd22", "asm": "0014885e9b71dee4504b2ac7c9b095ced51510a6fd22"}, "vout": 0, "txid": "508ac06cfb30bef803f7e4336768c9de08489df4470b775b9bccc839358879fd"}], "txid": "05e92fda32d2d6ff3227132040c0b45aedeab35c586d26af456be666eba98ae8", "blocktime": 1537875543, "version": 2, "confirmations": 11464, "time": 1537875543, "locktime": 542998, "vsize": 438, "size": 761}