{"hash": "05eab171fc0bb31097e1e2c44e46518fa4c4f869db8f9d1e25a16a4bd884fb7c", "blockhash": "0000000000000000001e0dab787dd257d1dbfcb92a98c2207d5e1078be1f4165", "vout": [{"scriptPubKey": {"reqSigs": 1, "hex": "76a914a9ba39c483c9a296b9ba761c140147cefb2150c888ac", "addresses": ["1GUSHc58qe4TT7bFr48e3NH4iKjwtwHZgh"], "asm": "OP_DUP OP_HASH160 a9ba39c483c9a296b9ba761c140147cefb2150c8 OP_EQUALVERIFY OP_CHECKSIG", "type": "pubkeyhash"}, "value": 0.00312452, "n": 0}, {"scriptPubKey": {"reqSigs": 1, "hex": "76a9147779af34ad305adce14f3d0d5fca3498c3ccb30288ac", "addresses": ["1BtjBcGFhHNzzdh9kYWizJJ5TYa4zoBDRi"], "asm": "OP_DUP OP_HASH160 7779af34ad305adce14f3d0d5fca3498c3ccb302 OP_EQUALVERIFY OP_CHECKSIG", "type": "pubkeyhash"}, "value": 0.00431536, "n": 1}], "hex": "01000000010a63576f74be158f42dc3984d0b07f0c0f55ae5c866945cd70befd8b6280d09c000000006a473044022050ce0cc0c9ddb43dbc1f6b8070ee69e7bb723802e71e531d75de840e1458edf00220565f467dbf0a54b5a5fc64858e878d32d6530d64da30a5406f797b32c47bec110121021a98afccb731ad44bbdede5fb693c418a793dbc62447cb5810692bf2083d458affffffff0284c40400000000001976a914a9ba39c483c9a296b9ba761c140147cefb2150c888acb0950600000000001976a9147779af34ad305adce14f3d0d5fca3498c3ccb30288ac00000000", "vin": [{"sequence": 4294967295, "scriptSig": {"hex": "473044022050ce0cc0c9ddb43dbc1f6b8070ee69e7bb723802e71e531d75de840e1458edf00220565f467dbf0a54b5a5fc64858e878d32d6530d64da30a5406f797b32c47bec110121021a98afccb731ad44bbdede5fb693c418a793dbc62447cb5810692bf2083d458a", "asm": "3044022050ce0cc0c9ddb43dbc1f6b8070ee69e7bb723802e71e531d75de840e1458edf00220565f467dbf0a54b5a5fc64858e878d32d6530d64da30a5406f797b32c47bec11[ALL] 021a98afccb731ad44bbdede5fb693c418a793dbc62447cb5810692bf2083d458a"}, "vout": 0, "txid": "9cd080628bfdbe70cd4569865cae550f0c7fb0d08439dc428f15be746f57630a"}], "txid": "05eab171fc0bb31097e1e2c44e46518fa4c4f869db8f9d1e25a16a4bd884fb7c", "blocktime": 1537872475, "version": 1, "confirmations": 11487, "time": 1537872475, "locktime": 0, "vsize": 225, "size": 225}