{"hash": "5ffb3f42e672d753379e6c70f226f8f93b82dd06e4b207c531ee441e2c74bebb", "blockhash": "00000000000000000018f53835495a110e01622372bf6ae95dc86f2b0ab887b0", "vout": [{"scriptPubKey": {"reqSigs": 1, "hex": "76a91440895c617ce9096f8b72a7e48fba71befc8b733c88ac", "addresses": ["16tEoH5UvTxGpTseqCeDB2A4UtMXFaUeKZ"], "asm": "OP_DUP OP_HASH160 40895c617ce9096f8b72a7e48fba71befc8b733c OP_EQUALVERIFY OP_CHECKSIG", "type": "pubkeyhash"}, "value": 0.309, "n": 0}, {"scriptPubKey": {"reqSigs": 1, "hex": "0020701a8d401c84fb13e6baf169d59684e17abd9fa216c8cc5b9fc63d622ff8c58d", "addresses": ["bc1qwqdg6squsna38e46795at95yu9atm8azzmyvckulcc7kytlcckxswvvzej"], "asm": "0 701a8d401c84fb13e6baf169d59684e17abd9fa216c8cc5b9fc63d622ff8c58d", "type": "witness_v0_scripthash"}, "value": 0.09589844, "n": 1}], "hex": "010000000001013e5b0bf8a159df5eee6dfbd48024f120689bd06ba9ad29583b625c254d83001b0100000000ffffffff02207fd701000000001976a91440895c617ce9096f8b72a7e48fba71befc8b733c88ac5454920000000000220020701a8d401c84fb13e6baf169d59684e17abd9fa216c8cc5b9fc63d622ff8c58d0400483045022100b74bf16068e7e6169643ee4fb72802bc32f3528098763ae9fd7f9017e690b773022060a27102c03eb5d997538b53b09f6b330aa1b3ff25046dced770722eef77a5ee0147304402201fdade3a825079874f14c10cb6a441e68dd143538f2f705a38bbedbe880de97502203e0baf6c40e35984e0b0db72f144c338cb49bdb6f5ae18d091baec7945bff627016952210375e00eb72e29da82b89367947f29ef34afb75e8654f6ea368e0acdfd92976b7c2103a1b26313f430c4b15bb1fdce663207659d8cac749a0e53d70eff01874496feff2103c96d495bfdd5ba4145e3e046fee45e84a8a48ad05bd8dbb395c011a32cf9f88053ae00000000", "vin": [{"txinwitness": ["", "3045022100b74bf16068e7e6169643ee4fb72802bc32f3528098763ae9fd7f9017e690b773022060a27102c03eb5d997538b53b09f6b330aa1b3ff25046dced770722eef77a5ee01", "304402201fdade3a825079874f14c10cb6a441e68dd143538f2f705a38bbedbe880de97502203e0baf6c40e35984e0b0db72f144c338cb49bdb6f5ae18d091baec7945bff62701", "52210375e00eb72e29da82b89367947f29ef34afb75e8654f6ea368e0acdfd92976b7c2103a1b26313f430c4b15bb1fdce663207659d8cac749a0e53d70eff01874496feff2103c96d495bfdd5ba4145e3e046fee45e84a8a48ad05bd8dbb395c011a32cf9f88053ae"], "sequence": 4294967295, "scriptSig": {"hex": "", "asm": ""}, "vout": 1, "txid": "1b00834d255c623b5829ada96bd09b6820f12480d4fb6dee5edf59a1f80b5b3e"}], "txid": "05eb693647cf0aac46c6a90d2e572eb08a4322dda94e864142a01df50593bf49", "blocktime": 1537870928, "version": 1, "confirmations": 11512, "time": 1537870928, "locktime": 0, "vsize": 192, "size": 383}