{"hash": "05ed5e3c8338f1aba49c02c34f6090d6bf95ed934e257993f39ced10f3b51479", "blockhash": "0000000000000000001e0dab787dd257d1dbfcb92a98c2207d5e1078be1f4165", "vout": [{"scriptPubKey": {"reqSigs": 1, "hex": "76a914b25ac00470fff54cae0557ec554ffc53c9bb701d88ac", "addresses": ["1HG3za84crfWsbz9rb6qgVgxsfZEbGfyhb"], "asm": "OP_DUP OP_HASH160 b25ac00470fff54cae0557ec554ffc53c9bb701d OP_EQUALVERIFY OP_CHECKSIG", "type": "pubkeyhash"}, "value": 0.00448125, "n": 0}, {"scriptPubKey": {"reqSigs": 1, "hex": "76a9149d5b5024a9bc60e6965bbcbbbf83da35a204f27588ac", "addresses": ["1FM2UfH9aYM1DBwmnRryfyK2Dpq7yNNTyY"], "asm": "OP_DUP OP_HASH160 9d5b5024a9bc60e6965bbcbbbf83da35a204f275 OP_EQUALVERIFY OP_CHECKSIG", "type": "pubkeyhash"}, "value": 0.01026704, "n": 1}], "hex": "01000000015f0fcf7934e6a601f3e8b85e4e7e5c7c6a683113eb7cffcef4e983fa84451655000000006b483045022100ed6988bb40f5f2575a2f8cea3286b90fe66c0abe588e900d63abcee50ddf0446022069c84e5baccdf80de90c87c50ad9558a5969cc325c7388c04cfd35d9c5cbc59301210344e1e9c580f90075cd12500e8d4d296a2d4b7fe98cb2a60033e878bea969121fffffffff027dd60600000000001976a914b25ac00470fff54cae0557ec554ffc53c9bb701d88ac90aa0f00000000001976a9149d5b5024a9bc60e6965bbcbbbf83da35a204f27588ac00000000", "vin": [{"sequence": 4294967295, "scriptSig": {"hex": "483045022100ed6988bb40f5f2575a2f8cea3286b90fe66c0abe588e900d63abcee50ddf0446022069c84e5baccdf80de90c87c50ad9558a5969cc325c7388c04cfd35d9c5cbc59301210344e1e9c580f90075cd12500e8d4d296a2d4b7fe98cb2a60033e878bea969121f", "asm": "3045022100ed6988bb40f5f2575a2f8cea3286b90fe66c0abe588e900d63abcee50ddf0446022069c84e5baccdf80de90c87c50ad9558a5969cc325c7388c04cfd35d9c5cbc593[ALL] 0344e1e9c580f90075cd12500e8d4d296a2d4b7fe98cb2a60033e878bea969121f"}, "vout": 0, "txid": "55164584fa83e9f4ceff7ceb1331686a7c5c7e4e5eb8e8f301a6e63479cf0f5f"}], "txid": "05ed5e3c8338f1aba49c02c34f6090d6bf95ed934e257993f39ced10f3b51479", "blocktime": 1537872475, "version": 1, "confirmations": 11486, "time": 1537872475, "locktime": 0, "vsize": 226, "size": 226}