{"hash": "594300985a1c05e72eff89052b1adfeedd29f22aa9c671cde6543c34a5900d72", "blockhash": "000000000000000000022b45ed06c6f4ccd3cf7fb5ba4856ebd2e58215665228", "vout": [{"scriptPubKey": {"reqSigs": 1, "hex": "a9146b694de2fcc765a3ac27c10e2992cd223758719087", "addresses": ["3BUxNjgsdMmAMFMMqWHYFcbjd5e8zisAfG"], "asm": "OP_HASH160 6b694de2fcc765a3ac27c10e2992cd2237587190 OP_EQUAL", "type": "scripthash"}, "value": 0.00059314, "n": 0}, {"scriptPubKey": {"reqSigs": 1, "hex": "a91438b09cc511f978e34865f939332d1a0b658d8f3a87", "addresses": ["36rmLXg8rwseUyd24HT8L3FtkZf3xe2ZXm"], "asm": "OP_HASH160 38b09cc511f978e34865f939332d1a0b658d8f3a OP_EQUAL", "type": "scripthash"}, "value": 0.01269799, "n": 1}], "hex": "020000000001012b315de3bae1f716e2ffbfdabc4ca42d04157d64391001c4bdbc0b230e1cf0d10100000017160014cc9b961ca8173d5fa0066a37837c3e8529fbd6d6feffffff02b2e700000000000017a9146b694de2fcc765a3ac27c10e2992cd223758719087276013000000000017a91438b09cc511f978e34865f939332d1a0b658d8f3a87024730440220213f4dd722198a54ef3292b15c3bed15a76adec6db92ae3ae02bf1fccf282c9a02200adec73cc7e05730bc2c94cb9f85880284a3d4a6ce1c93ed3a25de36719944ed0121039b26a5a94a9057667858b3e1f8d0163adb10cc54765e25f33f70b933053698110b490800", "vin": [{"txinwitness": ["30440220213f4dd722198a54ef3292b15c3bed15a76adec6db92ae3ae02bf1fccf282c9a02200adec73cc7e05730bc2c94cb9f85880284a3d4a6ce1c93ed3a25de36719944ed01", "039b26a5a94a9057667858b3e1f8d0163adb10cc54765e25f33f70b93305369811"], "sequence": 4294967294, "scriptSig": {"hex": "160014cc9b961ca8173d5fa0066a37837c3e8529fbd6d6", "asm": "0014cc9b961ca8173d5fa0066a37837c3e8529fbd6d6"}, "vout": 1, "txid": "d1f01c0e230bbcbdc4011039647d15042da44cbcdabfffe216f7e1bae35d312b"}], "txid": "05f4d896d141ef92d9fec8e9eaf606dbdc23450ffbc781fd4efac16facd4fd33", "blocktime": 1537869901, "version": 2, "confirmations": 11524, "time": 1537869901, "locktime": 542987, "vsize": 166, "size": 247}