{"hash": "05f5c60ef3023612a2606a151c36a6689eff26518f81501c685c17b7b48bcd0a", "blockhash": "000000000000000000022b45ed06c6f4ccd3cf7fb5ba4856ebd2e58215665228", "vout": [{"scriptPubKey": {"reqSigs": 1, "hex": "76a91484c45c105afda7fa8edd58cba42ee651f06b233c88ac", "addresses": ["1D71RdPxP2rR4VPy1wxDcgLqYcFNKcLBXn"], "asm": "OP_DUP OP_HASH160 84c45c105afda7fa8edd58cba42ee651f06b233c OP_EQUALVERIFY OP_CHECKSIG", "type": "pubkeyhash"}, "value": 0.00663825, "n": 0}, {"scriptPubKey": {"reqSigs": 1, "hex": "76a91464cbeddd06549ef0d54aae7cf7fda14d65054cc188ac", "addresses": ["1ABxsRtLNiq2sd9PCrYdomcaHKKSWx2HJ2"], "asm": "OP_DUP OP_HASH160 64cbeddd06549ef0d54aae7cf7fda14d65054cc1 OP_EQUALVERIFY OP_CHECKSIG", "type": "pubkeyhash"}, "value": 0.0155736, "n": 1}], "hex": "0100000002ec1f8eb2efbe84412f4d3662fb6e9f7b04d46ffe94799a307d9682a0c10edaa3000000008a47304402206619eb08c938f386e8748b8a2d81d2d58e5747f7b17e55382137aae64a37c2ee022033860756a18872c1188f5da6b497878fb293c0c6aa61efcedae6f6bee8e835ea0141046189f9c2b2aef5c6273d46aeb28cc58e5404bbb783f871b3bc5f64cc23d5334ec495c65bfb86967dd8b30a19e46eb0053141d7fb47774f4a95010ce71b82eff7ffffffff483d03fea92dfdfa84b1d772a8dcbb0abaa1f87ae1eb23d34efae6eee43963e0050000008b483045022100d5f015e136b360f35d3a53c5afffe9afb42c6812ce6e026d3748c2f82ddc34a9022001a97277ba735a63adde89e913c7e3d8a2933ef82fe65cd6d0fa0d1d21a862fd0141046189f9c2b2aef5c6273d46aeb28cc58e5404bbb783f871b3bc5f64cc23d5334ec495c65bfb86967dd8b30a19e46eb0053141d7fb47774f4a95010ce71b82eff7ffffffff0211210a00000000001976a91484c45c105afda7fa8edd58cba42ee651f06b233c88ac70c31700000000001976a91464cbeddd06549ef0d54aae7cf7fda14d65054cc188ac00000000", "vin": [{"sequence": 4294967295, "scriptSig": {"hex": "47304402206619eb08c938f386e8748b8a2d81d2d58e5747f7b17e55382137aae64a37c2ee022033860756a18872c1188f5da6b497878fb293c0c6aa61efcedae6f6bee8e835ea0141046189f9c2b2aef5c6273d46aeb28cc58e5404bbb783f871b3bc5f64cc23d5334ec495c65bfb86967dd8b30a19e46eb0053141d7fb47774f4a95010ce71b82eff7", "asm": "304402206619eb08c938f386e8748b8a2d81d2d58e5747f7b17e55382137aae64a37c2ee022033860756a18872c1188f5da6b497878fb293c0c6aa61efcedae6f6bee8e835ea[ALL] 046189f9c2b2aef5c6273d46aeb28cc58e5404bbb783f871b3bc5f64cc23d5334ec495c65bfb86967dd8b30a19e46eb0053141d7fb47774f4a95010ce71b82eff7"}, "vout": 0, "txid": "a3da0ec1a082967d309a7994fe6fd4047b9f6efb62364d2f4184beefb28e1fec"}, {"sequence": 4294967295, "scriptSig": {"hex": "483045022100d5f015e136b360f35d3a53c5afffe9afb42c6812ce6e026d3748c2f82ddc34a9022001a97277ba735a63adde89e913c7e3d8a2933ef82fe65cd6d0fa0d1d21a862fd0141046189f9c2b2aef5c6273d46aeb28cc58e5404bbb783f871b3bc5f64cc23d5334ec495c65bfb86967dd8b30a19e46eb0053141d7fb47774f4a95010ce71b82eff7", "asm": "3045022100d5f015e136b360f35d3a53c5afffe9afb42c6812ce6e026d3748c2f82ddc34a9022001a97277ba735a63adde89e913c7e3d8a2933ef82fe65cd6d0fa0d1d21a862fd[ALL] 046189f9c2b2aef5c6273d46aeb28cc58e5404bbb783f871b3bc5f64cc23d5334ec495c65bfb86967dd8b30a19e46eb0053141d7fb47774f4a95010ce71b82eff7"}, "vout": 5, "txid": "e06339e4eee6fa4ed323ebe17af8a1ba0abbdca872d7b184fafd2da9fe033d48"}], "txid": "05f5c60ef3023612a2606a151c36a6689eff26518f81501c685c17b7b48bcd0a", "blocktime": 1537869901, "version": 1, "confirmations": 11522, "time": 1537869901, "locktime": 0, "vsize": 437, "size": 437}