{"hash": "05ff4a01d284529d0e99de9300c2ea46735d579624129b52ddb0de317741b431", "blockhash": "0000000000000000001cda96e906b7601b7a6fb1a3b62bca570a9e5d8f4b3de1", "vout": [{"scriptPubKey": {"reqSigs": 1, "hex": "76a914eddbfe569370eebc8dc9ee4e292761317fe0cd0488ac", "addresses": ["1Ngggt5rmFBqrM8cL7oeHBhbYhkt8UfpWw"], "asm": "OP_DUP OP_HASH160 eddbfe569370eebc8dc9ee4e292761317fe0cd04 OP_EQUALVERIFY OP_CHECKSIG", "type": "pubkeyhash"}, "value": 0.08457937, "n": 0}, {"scriptPubKey": {"reqSigs": 1, "hex": "76a914865964e3a97d2fbf78a4f107a200398a598ba88988ac", "addresses": ["1DFNdv8wdzyQCRC6oDMkuQrjbe3Yd9eHyP"], "asm": "OP_DUP OP_HASH160 865964e3a97d2fbf78a4f107a200398a598ba889 OP_EQUALVERIFY OP_CHECKSIG", "type": "pubkeyhash"}, "value": 0.12266894, "n": 1}], "hex": "0100000001edfa669d75c96a4e8804e504f54dcdc92a7e39316e538910c38ec688a8501189010000006a473044022061487548c9eb35cfdac1271cb51ceb982acf876d6a852dfdd801c92ad421458b02203a6dbf7199c9e479ad644ec7120f7570e1c79d7a8f9a1e9920ee994c6a696a630121029a5867957dd7bfa813719c1a442881e786049257dcd2470b4d8d837d72a2a532ffffffff02d10e8100000000001976a914eddbfe569370eebc8dc9ee4e292761317fe0cd0488ac8e2dbb00000000001976a914865964e3a97d2fbf78a4f107a200398a598ba88988ac00000000", "vin": [{"sequence": 4294967295, "scriptSig": {"hex": "473044022061487548c9eb35cfdac1271cb51ceb982acf876d6a852dfdd801c92ad421458b02203a6dbf7199c9e479ad644ec7120f7570e1c79d7a8f9a1e9920ee994c6a696a630121029a5867957dd7bfa813719c1a442881e786049257dcd2470b4d8d837d72a2a532", "asm": "3044022061487548c9eb35cfdac1271cb51ceb982acf876d6a852dfdd801c92ad421458b02203a6dbf7199c9e479ad644ec7120f7570e1c79d7a8f9a1e9920ee994c6a696a63[ALL] 029a5867957dd7bfa813719c1a442881e786049257dcd2470b4d8d837d72a2a532"}, "vout": 1, "txid": "891150a888c68ec31089536e31397e2ac9cd4df504e504884e6ac9759d66faed"}], "txid": "05ff4a01d284529d0e99de9300c2ea46735d579624129b52ddb0de317741b431", "blocktime": 1537873282, "version": 1, "confirmations": 11484, "time": 1537873282, "locktime": 0, "vsize": 225, "size": 225}