{"hash": "4caed3bedd46d4c0ea590358509762932753f2c204b29f9a7bbce06268eb78f3", "blockhash": "0000000000000000001f76057863aec43deb6fa401d9628bb513d65a8098bfab", "vout": [{"scriptPubKey": {"reqSigs": 1, "hex": "0014456df1d192679f9f0c986ecad1e7918ce277eb66", "addresses": ["bc1qg4klr5vjv70e7rycdm9dreu33n3806mxp67dvl"], "asm": "0 456df1d192679f9f0c986ecad1e7918ce277eb66", "type": "witness_v0_keyhash"}, "value": 1.048e-05, "n": 0}, {"scriptPubKey": {"reqSigs": 1, "hex": "a91443180400e413496583da4fccda907b8ce1a150bf87", "addresses": ["37omy2pd7cdCXNEGx5fHsQ7BWDtvuwMmqn"], "asm": "OP_HASH160 43180400e413496583da4fccda907b8ce1a150bf OP_EQUAL", "type": "scripthash"}, "value": 0.000145, "n": 1}], "hex": "01000000000101e37239577340a92f6f71e706fa48d64530c3fea160cf2fd84e862c8b23fa20100000000000ffffffff021804000000000000160014456df1d192679f9f0c986ecad1e7918ce277eb66a43800000000000017a91443180400e413496583da4fccda907b8ce1a150bf8702483045022100cb3b210e5808de32221c517486539bd59db6deb3527655a7d5478e91a53befb602206d5926c7dbcc7550d20356327f4d347e225e727a1cd4ec8ae6af4c74d1a22f29012103b902a8b7475d876dadd9f273dcf9ba98dcd528af1a99294dab5d9f8d42abe90700000000", "vin": [{"txinwitness": ["3045022100cb3b210e5808de32221c517486539bd59db6deb3527655a7d5478e91a53befb602206d5926c7dbcc7550d20356327f4d347e225e727a1cd4ec8ae6af4c74d1a22f2901", "03b902a8b7475d876dadd9f273dcf9ba98dcd528af1a99294dab5d9f8d42abe907"], "sequence": 4294967295, "scriptSig": {"hex": "", "asm": ""}, "vout": 0, "txid": "1020fa238b2c864ed82fcf60a1fec33045d648fa06e7716f2fa94073573972e3"}], "txid": "060430083b68d2bb48c8bb7ea2662957909ab040846ed0f9d01e8cbc33357058", "blocktime": 1537873891, "version": 1, "confirmations": 11478, "time": 1537873891, "locktime": 0, "vsize": 142, "size": 224}