{"hash": "0605479e1bda84988c2fd96dd1e2ebd06e252058fe9218e29c86037c2c8778d2", "blockhash": "0000000000000000001f76057863aec43deb6fa401d9628bb513d65a8098bfab", "vout": [{"scriptPubKey": {"reqSigs": 1, "hex": "a914468721bdff5eea508c34b2f385912c99a529144887", "addresses": ["387w76RZJv5YqxtnWcaEMeANoSo9XfWNLT"], "asm": "OP_HASH160 468721bdff5eea508c34b2f385912c99a5291448 OP_EQUAL", "type": "scripthash"}, "value": 0.05259565, "n": 0}, {"scriptPubKey": {"reqSigs": 1, "hex": "76a91442487f8a4c0dce459a0de34355ae3829c5ad784f88ac", "addresses": ["173USvcSySy2QFJ4y7jNsQV8nhCik5BtYg"], "asm": "OP_DUP OP_HASH160 42487f8a4c0dce459a0de34355ae3829c5ad784f OP_EQUALVERIFY OP_CHECKSIG", "type": "pubkeyhash"}, "value": 0.00307829, "n": 1}, {"scriptPubKey": {"reqSigs": 1, "hex": "76a91484110ef79c32a98bb24123342f2580e5fceebd9a88ac", "addresses": ["1D3JdZkHtRfJdFtRfLpk4nx8PhmGq6McTE"], "asm": "OP_DUP OP_HASH160 84110ef79c32a98bb24123342f2580e5fceebd9a OP_EQUALVERIFY OP_CHECKSIG", "type": "pubkeyhash"}, "value": 0.00011406, "n": 2}], "hex": "01000000024f5c16e7afcbeb5a9bc148b9de00ea2912add86914d282ab34e37d90555f8a3900000000db004830450221009b5514980fc8bccdd667a9cf62050e3e8b1688a95b372ce506e58d2f082b99d1022022382c4d415d6ffd49b2c8ed583a0f51e9f875d709a672a145fc4439a5c069ba01483045022100b8cc921643b74c111a513c1c9e0337bac820a222253f4775c9625911ee7953f0022067a1a5a95bb700eecbbee10a440ab50ad828bd129fbe509bbda35d25e13b0be601475221028e232fbfcc775c7b3edff7ec2fa0a89ef5bf2448565c41c3fc45850ed35d93b02102907a54bed8ad74b3f35638c60114ca240a308cb986f3f2f306178869a8880b6152aeffffffff5aa00ea8707e5b3be7f0a1ab2fa27320e57f1eb930618520759e97cc573cb66a010000006a4730440220288e408bb68dc76b6943fb5f9a2b3c2e56c74d010fc0252b9dd74f411712dfe3022017cb7018fe1865c2dfd67540c472a8c8aa76105ebc68732b25986ae5f1ed6650012102774946ef2ddc9e6f9adf97f81920a821fb547c307e66606417451d9c967ecb4effffffff032d4150000000000017a914468721bdff5eea508c34b2f385912c99a52914488775b20400000000001976a91442487f8a4c0dce459a0de34355ae3829c5ad784f88ac8e2c0000000000001976a91484110ef79c32a98bb24123342f2580e5fceebd9a88ac00000000", "vin": [{"sequence": 4294967295, "scriptSig": {"hex": "004830450221009b5514980fc8bccdd667a9cf62050e3e8b1688a95b372ce506e58d2f082b99d1022022382c4d415d6ffd49b2c8ed583a0f51e9f875d709a672a145fc4439a5c069ba01483045022100b8cc921643b74c111a513c1c9e0337bac820a222253f4775c9625911ee7953f0022067a1a5a95bb700eecbbee10a440ab50ad828bd129fbe509bbda35d25e13b0be601475221028e232fbfcc775c7b3edff7ec2fa0a89ef5bf2448565c41c3fc45850ed35d93b02102907a54bed8ad74b3f35638c60114ca240a308cb986f3f2f306178869a8880b6152ae", "asm": "0 30450221009b5514980fc8bccdd667a9cf62050e3e8b1688a95b372ce506e58d2f082b99d1022022382c4d415d6ffd49b2c8ed583a0f51e9f875d709a672a145fc4439a5c069ba[ALL] 3045022100b8cc921643b74c111a513c1c9e0337bac820a222253f4775c9625911ee7953f0022067a1a5a95bb700eecbbee10a440ab50ad828bd129fbe509bbda35d25e13b0be6[ALL] 5221028e232fbfcc775c7b3edff7ec2fa0a89ef5bf2448565c41c3fc45850ed35d93b02102907a54bed8ad74b3f35638c60114ca240a308cb986f3f2f306178869a8880b6152ae"}, "vout": 0, "txid": "398a5f55907de334ab82d21469d8ad1229ea00deb948c19b5aebcbafe7165c4f"}, {"sequence": 4294967295, "scriptSig": {"hex": "4730440220288e408bb68dc76b6943fb5f9a2b3c2e56c74d010fc0252b9dd74f411712dfe3022017cb7018fe1865c2dfd67540c472a8c8aa76105ebc68732b25986ae5f1ed6650012102774946ef2ddc9e6f9adf97f81920a821fb547c307e66606417451d9c967ecb4e", "asm": "30440220288e408bb68dc76b6943fb5f9a2b3c2e56c74d010fc0252b9dd74f411712dfe3022017cb7018fe1865c2dfd67540c472a8c8aa76105ebc68732b25986ae5f1ed6650[ALL] 02774946ef2ddc9e6f9adf97f81920a821fb547c307e66606417451d9c967ecb4e"}, "vout": 1, "txid": "6ab63c57cc979e7520856130b91e7fe52073a22faba1f0e73b5b7e70a80ea05a"}], "txid": "0605479e1bda84988c2fd96dd1e2ebd06e252058fe9218e29c86037c2c8778d2", "blocktime": 1537873891, "version": 1, "confirmations": 11478, "time": 1537873891, "locktime": 0, "vsize": 517, "size": 517}