{"hash": "7241796f15b42055e0b605812b1d50e5880a96338eb7e95408f50b7b2d6e42e4", "blockhash": "00000000000000000024a2167bbff67b0be802c0b01cdd79e6331c2be6459f87", "vout": [{"scriptPubKey": {"reqSigs": 1, "hex": "76a914d7dfa8b637e34ae5132e3a44f2fe80f1e9d0a38888ac", "addresses": ["1LgSDM2xoNwrjbS6KpNjvpDeJkvKv12iqv"], "asm": "OP_DUP OP_HASH160 d7dfa8b637e34ae5132e3a44f2fe80f1e9d0a388 OP_EQUALVERIFY OP_CHECKSIG", "type": "pubkeyhash"}, "value": 0.0056, "n": 0}, {"scriptPubKey": {"reqSigs": 1, "hex": "0014ff2252f15ccc24ae64c6fc52a9ae6ac8859cfa8c", "addresses": ["bc1qlu399u2uesj2uexxl3f2ntn2ezzee75v22m62w"], "asm": "0 ff2252f15ccc24ae64c6fc52a9ae6ac8859cfa8c", "type": "witness_v0_keyhash"}, "value": 0.00100961, "n": 1}], "hex": "01000000000101a555f501ee07afdd8f8f714e08b07d48a1fb78a4b74d4d4b464a443c34bc22fa0000000000ffffffff02808b0800000000001976a914d7dfa8b637e34ae5132e3a44f2fe80f1e9d0a38888ac618a010000000000160014ff2252f15ccc24ae64c6fc52a9ae6ac8859cfa8c02483045022100b36b88f64cd9d8444a3b7cc45350973e569fb90c2ef4165bd37e7d29df3f6e8102204c9a0097d0ba31db85e3c2e246b2fa5dd6d42e3b544c786dca0b18c8bd077cb3012103570495171fe210cc0c452b0e65070e309bd27ae16f5aa451fdb50928dfec21e700000000", "vin": [{"txinwitness": ["3045022100b36b88f64cd9d8444a3b7cc45350973e569fb90c2ef4165bd37e7d29df3f6e8102204c9a0097d0ba31db85e3c2e246b2fa5dd6d42e3b544c786dca0b18c8bd077cb301", "03570495171fe210cc0c452b0e65070e309bd27ae16f5aa451fdb50928dfec21e7"], "sequence": 4294967295, "scriptSig": {"hex": "", "asm": ""}, "vout": 0, "txid": "fa22bc343c444a464b4d4db7a478fba1487db0084e718f8fddaf07ee01f555a5"}], "txid": "060da4eb921763b03a9bb24dfdd678df133213966432bc91fccc12ac9cbad79b", "blocktime": 1537870564, "version": 1, "confirmations": 11515, "time": 1537870564, "locktime": 0, "vsize": 144, "size": 226}