{"hash": "0613d9c5fa92396036f88ed2f22050ac56dc90182dbd4c2cc99d4ca57e86ee46", "blockhash": "00000000000000000017f5eb5941039fbcee6240d03bc1f2f8e35350df66a1d8", "vout": [{"scriptPubKey": {"type": "nulldata", "hex": "6a146f6d6e69000000000000001f000000e8ceaf2f00", "asm": "OP_RETURN 6f6d6e69000000000000001f000000e8ceaf2f00"}, "value": 0.0, "n": 0}, {"scriptPubKey": {"reqSigs": 1, "hex": "76a91447524356dca2e5018383c750278e4f493c90368188ac", "addresses": ["17W7XMgArBpg2qBbR261gyPkVnRotKpFTk"], "asm": "OP_DUP OP_HASH160 47524356dca2e5018383c750278e4f493c903681 OP_EQUALVERIFY OP_CHECKSIG", "type": "pubkeyhash"}, "value": 0.00672208, "n": 1}, {"scriptPubKey": {"reqSigs": 1, "hex": "76a914a25dec4d0011064ef106a983c39c7a540699f22088ac", "addresses": ["1FoWyxwPXuj4C6abqwhjDWdz6D4PZgYRjA"], "asm": "OP_DUP OP_HASH160 a25dec4d0011064ef106a983c39c7a540699f220 OP_EQUALVERIFY OP_CHECKSIG", "type": "pubkeyhash"}, "value": 5.46e-06, "n": 2}], "hex": "010000001404a042b08a3e82f3e6671f6eb3788f1eef5c5d4609e413556d9235436abc759a020000006a473044022049d172849e2372867f1ff399e0d7dd9568a0a803a33d44cf5e855f3781b5faeb02204c920c72ce734b73ead90e598b2a73d53c54d65d9cd577c6d3f1e744da1e5dca012102ff9d024013ddc60e2d3a6068ef945c9a90218d83d083eca3968538b6ad418c43feffffff07197e5bddbb6bbb1c828edd9bda74c63e24ec7562f38de5246fcd5da9bb8349020000006a473044022063874830ce2a4d346e8520c75a01797e17490c38184c90d7fe2827c453b90dcb02206381eb68ec1a82fa3b5c309d837d32694e9dc8ab4a12ddc4395d1fd281733127012102ff9d024013ddc60e2d3a6068ef945c9a90218d83d083eca3968538b6ad418c43feffffff12f46f4bf77098efa48dd8c68404248237158a206465aca7320089a688202db9020000006b483045022100fb3c822c3a5fc8e172cb98a342c18353b0747a765a1130ecd138a9970d1b062502200cef46b41c2d50a34734392321eaa628c951a3a495853b2c2607c98614773023012102ff9d024013ddc60e2d3a6068ef945c9a90218d83d083eca3968538b6ad418c43feffffff1c88d9686b7393367b33da083d3a293e75412aee7297f693393271bd00648407020000006a473044022052584d80d338acda3649a24feaf65a3afae8bfeb1a55a8d7f301a7d0d1919f9a02206824f6570a5b47330d704c52d99f329e6296563ebb4c8341f58be3e9999c4132012102ff9d024013ddc60e2d3a6068ef945c9a90218d83d083eca3968538b6ad418c43feffffff1ea958a5fe6bac98888945c57859b650bc70a0700f0e3094106b7a5f13f6e09a020000006a47304402206e831476fefe02e233cb1716d9c3244067b1c5dd9853713930a2cd22bebf022102203d6c3ecdf18c23222a9d15e159f25d2a7f116ba21206c8048731a7c2d138a748012102ff9d024013ddc60e2d3a6068ef945c9a90218d83d083eca3968538b6ad418c43feffffff3db00f5dcc8791302b41fba141735a359ed7021df85240c5cab8236256a33cf8020000006b483045022100db34653f954d3296155a27ff589de89d28ae7aadbad2dbaa4d3c7bcb51774c8a0220065de7fe388effe304c9274acdde4572710d85bb7a03a3f8db8e2fbe33ff3791012102ff9d024013ddc60e2d3a6068ef945c9a90218d83d083eca3968538b6ad418c43feffffff572e15fd464d218454771be5812f585eebfe2a17692032c8adcd18890709522e020000006b483045022100ba64692f58c4e01cabb7083590e5cdf697be329e78e1981ee20d461358be659802204347e34013199e06374295b45464c099ed7108817c485dc612262125a53cbfc7012102ff9d024013ddc60e2d3a6068ef945c9a90218d83d083eca3968538b6ad418c43feffffff7ad84c6d27fcff048d628fd0d2ae8fb795ec6f65e3f1a52d84a0fa06f5322232020000006b483045022100b1719d6886d8c81df60e08ec6f7eb46639395839afd4d7365283dc486b92838e02206570681aabefc6ae44bdbf3ed0b4dfa7fe27dd12e8e0bd81c559c4838afafbd0012102ff9d024013ddc60e2d3a6068ef945c9a90218d83d083eca3968538b6ad418c43feffffff8a8d004645c09fcf9698050dfec8c0e3329a45b605a15aaccf5f5a8da86b32a8020000006a4730440220615c1e74c6bcb052767ef9dd3cbe45009cdc472f5e4a9aac42a4adb02bb07f300220793ee6054e178120411238d4232640ccef90f27e4282c0ce72ce926a6127dacc012102ff9d024013ddc60e2d3a6068ef945c9a90218d83d083eca3968538b6ad418c43feffffff9a03e7acda6cc3143da6f55842937a96abaa66ded8a01c94e2e452e2517275e0020000006a47304402202753161cf6bc1417ecb7aa6f92e586b4b30c47e341874f5e674b27b682209c8302201dfe34dacc3fe80341928faa144cdc30e0530c28770178c538cf44cf995b8827012102ff9d024013ddc60e2d3a6068ef945c9a90218d83d083eca3968538b6ad418c43feffffffa55100f59a2d4faf24810e3ebc6cfb89922180da26980a76f7f31a68c45a8bf7020000006a47304402203df91b330db2fe40ee61e2d46dbab9453abd9ea5b5f65162f207449ada58b35302201a7305bcc30345fdaf75ad7cd3b415d523ab0d348e09c4cfe8352d3d75b18a7c012102ff9d024013ddc60e2d3a6068ef945c9a90218d83d083eca3968538b6ad418c43feffffffb052ccf7444a5c4b546c5277335142f9f609e3a804b5cd4795c1d70a7f7568fa020000006b48304502210087cc25377a0f877b47398a17155f1ca812517fe95a8f2f1e2f94e4dc4b4222a5022012d5eb6a52e2c5d03ccac01755745ec18def9e6b38ccc90fb9b98ad9b1fedee3012102ff9d024013ddc60e2d3a6068ef945c9a90218d83d083eca3968538b6ad418c43feffffffbc91df51c314eb33cb808989fbb8718231d5e319ed3f74d5184c551fdb92c98d010000006a4730440220135a3bd32fe84181f40254cc71e1702993e6383b633758519a6d60943889b67202204187b3fd31267c12d6b946c341c020d5a7857619709c7edfb04e3beebad6cbd2012102ff9d024013ddc60e2d3a6068ef945c9a90218d83d083eca3968538b6ad418c43feffffffc245f825961565adb4198740cc896032e9f7af6e4bcc6caab5e19659f0f11115020000006b4830450221009c721b70425a4a784c743e8f5a6c6b0fe388615403d4395fe0eb56f382552a79022058a939eb0a61b70d352424f37849a0b35de7e3000c4719bf2684fb857df3b2e1012102ff9d024013ddc60e2d3a6068ef945c9a90218d83d083eca3968538b6ad418c43feffffffc78ce3cc1a5b92341508e592025bedc14d079de752c53231c15318625d306e85010000006a47304402202a55ba72843be4e700102e9aed287282137c06700e6f387cb99689559794c25c02202dac80276659090ff84284e50c6475f185dd19e1665c3f23816d01b2a2c8a70d012102ff9d024013ddc60e2d3a6068ef945c9a90218d83d083eca3968538b6ad418c43feffffffc98671dfb092951b3005be83c5087e79e03ee849fdb211975cc0c34ab2f987b6020000006b483045022100ed34b4def3d584047920622dcec526ed63abbc79bb5d950906cb2eefecf8755302206294995a100bc41d282fd3b0ec0a473c310282209a58ab7aa57468d07b767708012102ff9d024013ddc60e2d3a6068ef945c9a90218d83d083eca3968538b6ad418c43feffffffe11418c7f489fd8893aaba331ab9efbfa740f3ef4f3fbd3dc2cd00e782097c61020000006a473044022016bb29c4cd19801a17f588fc21e7d98c6e400ab462103eaa994783e3e80377540220524b71856c1ecc3fa44db728075931d887448fb1b257ee866f9f8c01a8aa2518012102ff9d024013ddc60e2d3a6068ef945c9a90218d83d083eca3968538b6ad418c43feffffffe839529e75895db50804600c8b9b0e6113de06fe6c124e12806e9a64b9b504af020000006a47304402202938f69eb6cc02d9bf1ef63b510bb4a9d1f27056fe70bbd7c058b1844e1613c30220253a3bd74f7d7e384f3cdf5a38cdd6957f531b47c45e4f6bd4e0826691bcb381012102ff9d024013ddc60e2d3a6068ef945c9a90218d83d083eca3968538b6ad418c43feffffffe9c09cb8c6b4f663a3f6ac454f04bc93351a45067130cc5836e4533ffa082c62020000006a473044022045680bff90a38353f098225db52e6576066f322498673487126af6f043af5f720220102f1c40bbe8d91b97db642daec0b975743ab03d90efcde830902c5b3f25036e012102ff9d024013ddc60e2d3a6068ef945c9a90218d83d083eca3968538b6ad418c43feffffff2e2d3ec18d5bf50c417d858d39c8033097113acae5f5da05f34c6383c84faa07020000006b483045022100e2c15ce8eefdc58027059db804d4cdf8f88fd2ed5e18e8975f9035aae3a70d44022076532cb8efe1fa5f3afbab6a32615cd1bd6d0e5bd3a78fbe3b6efd3e3c874d39012102ff9d024013ddc60e2d3a6068ef945c9a90218d83d083eca3968538b6ad418c43feffffff030000000000000000166a146f6d6e69000000000000001f000000e8ceaf2f00d0410a00000000001976a91447524356dca2e5018383c750278e4f493c90368188ac22020000000000001976a914a25dec4d0011064ef106a983c39c7a540699f22088ac15490800", "vin": [{"sequence": 4294967294, "scriptSig": {"hex": "473044022049d172849e2372867f1ff399e0d7dd9568a0a803a33d44cf5e855f3781b5faeb02204c920c72ce734b73ead90e598b2a73d53c54d65d9cd577c6d3f1e744da1e5dca012102ff9d024013ddc60e2d3a6068ef945c9a90218d83d083eca3968538b6ad418c43", "asm": "3044022049d172849e2372867f1ff399e0d7dd9568a0a803a33d44cf5e855f3781b5faeb02204c920c72ce734b73ead90e598b2a73d53c54d65d9cd577c6d3f1e744da1e5dca[ALL] 02ff9d024013ddc60e2d3a6068ef945c9a90218d83d083eca3968538b6ad418c43"}, "vout": 2, "txid": "9a75bc6a4335926d5513e409465d5cef1e8f78b36e1f67e6f3823e8ab042a004"}, {"sequence": 4294967294, "scriptSig": {"hex": "473044022063874830ce2a4d346e8520c75a01797e17490c38184c90d7fe2827c453b90dcb02206381eb68ec1a82fa3b5c309d837d32694e9dc8ab4a12ddc4395d1fd281733127012102ff9d024013ddc60e2d3a6068ef945c9a90218d83d083eca3968538b6ad418c43", "asm": "3044022063874830ce2a4d346e8520c75a01797e17490c38184c90d7fe2827c453b90dcb02206381eb68ec1a82fa3b5c309d837d32694e9dc8ab4a12ddc4395d1fd281733127[ALL] 02ff9d024013ddc60e2d3a6068ef945c9a90218d83d083eca3968538b6ad418c43"}, "vout": 2, "txid": "4983bba95dcd6f24e58df36275ec243ec674da9bdd8e821cbb6bbbdd5b7e1907"}, {"sequence": 4294967294, "scriptSig": {"hex": "483045022100fb3c822c3a5fc8e172cb98a342c18353b0747a765a1130ecd138a9970d1b062502200cef46b41c2d50a34734392321eaa628c951a3a495853b2c2607c98614773023012102ff9d024013ddc60e2d3a6068ef945c9a90218d83d083eca3968538b6ad418c43", "asm": "3045022100fb3c822c3a5fc8e172cb98a342c18353b0747a765a1130ecd138a9970d1b062502200cef46b41c2d50a34734392321eaa628c951a3a495853b2c2607c98614773023[ALL] 02ff9d024013ddc60e2d3a6068ef945c9a90218d83d083eca3968538b6ad418c43"}, "vout": 2, "txid": "b92d2088a6890032a7ac6564208a153782240484c6d88da4ef9870f74b6ff412"}, {"sequence": 4294967294, "scriptSig": {"hex": "473044022052584d80d338acda3649a24feaf65a3afae8bfeb1a55a8d7f301a7d0d1919f9a02206824f6570a5b47330d704c52d99f329e6296563ebb4c8341f58be3e9999c4132012102ff9d024013ddc60e2d3a6068ef945c9a90218d83d083eca3968538b6ad418c43", "asm": "3044022052584d80d338acda3649a24feaf65a3afae8bfeb1a55a8d7f301a7d0d1919f9a02206824f6570a5b47330d704c52d99f329e6296563ebb4c8341f58be3e9999c4132[ALL] 02ff9d024013ddc60e2d3a6068ef945c9a90218d83d083eca3968538b6ad418c43"}, "vout": 2, "txid": "07846400bd71323993f69772ee2a41753e293a3d08da337b3693736b68d9881c"}, {"sequence": 4294967294, "scriptSig": {"hex": "47304402206e831476fefe02e233cb1716d9c3244067b1c5dd9853713930a2cd22bebf022102203d6c3ecdf18c23222a9d15e159f25d2a7f116ba21206c8048731a7c2d138a748012102ff9d024013ddc60e2d3a6068ef945c9a90218d83d083eca3968538b6ad418c43", "asm": "304402206e831476fefe02e233cb1716d9c3244067b1c5dd9853713930a2cd22bebf022102203d6c3ecdf18c23222a9d15e159f25d2a7f116ba21206c8048731a7c2d138a748[ALL] 02ff9d024013ddc60e2d3a6068ef945c9a90218d83d083eca3968538b6ad418c43"}, "vout": 2, "txid": "9ae0f6135f7a6b1094300e0f70a070bc50b65978c545898898ac6bfea558a91e"}, {"sequence": 4294967294, "scriptSig": {"hex": "483045022100db34653f954d3296155a27ff589de89d28ae7aadbad2dbaa4d3c7bcb51774c8a0220065de7fe388effe304c9274acdde4572710d85bb7a03a3f8db8e2fbe33ff3791012102ff9d024013ddc60e2d3a6068ef945c9a90218d83d083eca3968538b6ad418c43", "asm": "3045022100db34653f954d3296155a27ff589de89d28ae7aadbad2dbaa4d3c7bcb51774c8a0220065de7fe388effe304c9274acdde4572710d85bb7a03a3f8db8e2fbe33ff3791[ALL] 02ff9d024013ddc60e2d3a6068ef945c9a90218d83d083eca3968538b6ad418c43"}, "vout": 2, "txid": "f83ca3566223b8cac54052f81d02d79e355a7341a1fb412b309187cc5d0fb03d"}, {"sequence": 4294967294, "scriptSig": {"hex": "483045022100ba64692f58c4e01cabb7083590e5cdf697be329e78e1981ee20d461358be659802204347e34013199e06374295b45464c099ed7108817c485dc612262125a53cbfc7012102ff9d024013ddc60e2d3a6068ef945c9a90218d83d083eca3968538b6ad418c43", "asm": "3045022100ba64692f58c4e01cabb7083590e5cdf697be329e78e1981ee20d461358be659802204347e34013199e06374295b45464c099ed7108817c485dc612262125a53cbfc7[ALL] 02ff9d024013ddc60e2d3a6068ef945c9a90218d83d083eca3968538b6ad418c43"}, "vout": 2, "txid": "2e5209078918cdadc8322069172afeeb5e582f81e51b775484214d46fd152e57"}, {"sequence": 4294967294, "scriptSig": {"hex": "483045022100b1719d6886d8c81df60e08ec6f7eb46639395839afd4d7365283dc486b92838e02206570681aabefc6ae44bdbf3ed0b4dfa7fe27dd12e8e0bd81c559c4838afafbd0012102ff9d024013ddc60e2d3a6068ef945c9a90218d83d083eca3968538b6ad418c43", "asm": "3045022100b1719d6886d8c81df60e08ec6f7eb46639395839afd4d7365283dc486b92838e02206570681aabefc6ae44bdbf3ed0b4dfa7fe27dd12e8e0bd81c559c4838afafbd0[ALL] 02ff9d024013ddc60e2d3a6068ef945c9a90218d83d083eca3968538b6ad418c43"}, "vout": 2, "txid": "322232f506faa0842da5f1e3656fec95b78faed2d08f628d04fffc276d4cd87a"}, {"sequence": 4294967294, "scriptSig": {"hex": "4730440220615c1e74c6bcb052767ef9dd3cbe45009cdc472f5e4a9aac42a4adb02bb07f300220793ee6054e178120411238d4232640ccef90f27e4282c0ce72ce926a6127dacc012102ff9d024013ddc60e2d3a6068ef945c9a90218d83d083eca3968538b6ad418c43", "asm": "30440220615c1e74c6bcb052767ef9dd3cbe45009cdc472f5e4a9aac42a4adb02bb07f300220793ee6054e178120411238d4232640ccef90f27e4282c0ce72ce926a6127dacc[ALL] 02ff9d024013ddc60e2d3a6068ef945c9a90218d83d083eca3968538b6ad418c43"}, "vout": 2, "txid": "a8326ba88d5a5fcfac5aa105b6459a32e3c0c8fe0d059896cf9fc04546008d8a"}, {"sequence": 4294967294, "scriptSig": {"hex": "47304402202753161cf6bc1417ecb7aa6f92e586b4b30c47e341874f5e674b27b682209c8302201dfe34dacc3fe80341928faa144cdc30e0530c28770178c538cf44cf995b8827012102ff9d024013ddc60e2d3a6068ef945c9a90218d83d083eca3968538b6ad418c43", "asm": "304402202753161cf6bc1417ecb7aa6f92e586b4b30c47e341874f5e674b27b682209c8302201dfe34dacc3fe80341928faa144cdc30e0530c28770178c538cf44cf995b8827[ALL] 02ff9d024013ddc60e2d3a6068ef945c9a90218d83d083eca3968538b6ad418c43"}, "vout": 2, "txid": "e0757251e252e4e2941ca0d8de66aaab967a934258f5a63d14c36cdaace7039a"}, {"sequence": 4294967294, "scriptSig": {"hex": "47304402203df91b330db2fe40ee61e2d46dbab9453abd9ea5b5f65162f207449ada58b35302201a7305bcc30345fdaf75ad7cd3b415d523ab0d348e09c4cfe8352d3d75b18a7c012102ff9d024013ddc60e2d3a6068ef945c9a90218d83d083eca3968538b6ad418c43", "asm": "304402203df91b330db2fe40ee61e2d46dbab9453abd9ea5b5f65162f207449ada58b35302201a7305bcc30345fdaf75ad7cd3b415d523ab0d348e09c4cfe8352d3d75b18a7c[ALL] 02ff9d024013ddc60e2d3a6068ef945c9a90218d83d083eca3968538b6ad418c43"}, "vout": 2, "txid": "f78b5ac4681af3f7760a9826da80219289fb6cbc3e0e8124af4f2d9af50051a5"}, {"sequence": 4294967294, "scriptSig": {"hex": "48304502210087cc25377a0f877b47398a17155f1ca812517fe95a8f2f1e2f94e4dc4b4222a5022012d5eb6a52e2c5d03ccac01755745ec18def9e6b38ccc90fb9b98ad9b1fedee3012102ff9d024013ddc60e2d3a6068ef945c9a90218d83d083eca3968538b6ad418c43", "asm": "304502210087cc25377a0f877b47398a17155f1ca812517fe95a8f2f1e2f94e4dc4b4222a5022012d5eb6a52e2c5d03ccac01755745ec18def9e6b38ccc90fb9b98ad9b1fedee3[ALL] 02ff9d024013ddc60e2d3a6068ef945c9a90218d83d083eca3968538b6ad418c43"}, "vout": 2, "txid": "fa68757f0ad7c19547cdb504a8e309f6f942513377526c544b5c4a44f7cc52b0"}, {"sequence": 4294967294, "scriptSig": {"hex": "4730440220135a3bd32fe84181f40254cc71e1702993e6383b633758519a6d60943889b67202204187b3fd31267c12d6b946c341c020d5a7857619709c7edfb04e3beebad6cbd2012102ff9d024013ddc60e2d3a6068ef945c9a90218d83d083eca3968538b6ad418c43", "asm": "30440220135a3bd32fe84181f40254cc71e1702993e6383b633758519a6d60943889b67202204187b3fd31267c12d6b946c341c020d5a7857619709c7edfb04e3beebad6cbd2[ALL] 02ff9d024013ddc60e2d3a6068ef945c9a90218d83d083eca3968538b6ad418c43"}, "vout": 1, "txid": "8dc992db1f554c18d5743fed19e3d5318271b8fb898980cb33eb14c351df91bc"}, {"sequence": 4294967294, "scriptSig": {"hex": "4830450221009c721b70425a4a784c743e8f5a6c6b0fe388615403d4395fe0eb56f382552a79022058a939eb0a61b70d352424f37849a0b35de7e3000c4719bf2684fb857df3b2e1012102ff9d024013ddc60e2d3a6068ef945c9a90218d83d083eca3968538b6ad418c43", "asm": "30450221009c721b70425a4a784c743e8f5a6c6b0fe388615403d4395fe0eb56f382552a79022058a939eb0a61b70d352424f37849a0b35de7e3000c4719bf2684fb857df3b2e1[ALL] 02ff9d024013ddc60e2d3a6068ef945c9a90218d83d083eca3968538b6ad418c43"}, "vout": 2, "txid": "1511f1f05996e1b5aa6ccc4b6eaff7e9326089cc408719b4ad65159625f845c2"}, {"sequence": 4294967294, "scriptSig": {"hex": "47304402202a55ba72843be4e700102e9aed287282137c06700e6f387cb99689559794c25c02202dac80276659090ff84284e50c6475f185dd19e1665c3f23816d01b2a2c8a70d012102ff9d024013ddc60e2d3a6068ef945c9a90218d83d083eca3968538b6ad418c43", "asm": "304402202a55ba72843be4e700102e9aed287282137c06700e6f387cb99689559794c25c02202dac80276659090ff84284e50c6475f185dd19e1665c3f23816d01b2a2c8a70d[ALL] 02ff9d024013ddc60e2d3a6068ef945c9a90218d83d083eca3968538b6ad418c43"}, "vout": 1, "txid": "856e305d621853c13132c552e79d074dc1ed5b0292e5081534925b1acce38cc7"}, {"sequence": 4294967294, "scriptSig": {"hex": "483045022100ed34b4def3d584047920622dcec526ed63abbc79bb5d950906cb2eefecf8755302206294995a100bc41d282fd3b0ec0a473c310282209a58ab7aa57468d07b767708012102ff9d024013ddc60e2d3a6068ef945c9a90218d83d083eca3968538b6ad418c43", "asm": "3045022100ed34b4def3d584047920622dcec526ed63abbc79bb5d950906cb2eefecf8755302206294995a100bc41d282fd3b0ec0a473c310282209a58ab7aa57468d07b767708[ALL] 02ff9d024013ddc60e2d3a6068ef945c9a90218d83d083eca3968538b6ad418c43"}, "vout": 2, "txid": "b687f9b24ac3c05c9711b2fd49e83ee0797e08c583be05301b9592b0df7186c9"}, {"sequence": 4294967294, "scriptSig": {"hex": "473044022016bb29c4cd19801a17f588fc21e7d98c6e400ab462103eaa994783e3e80377540220524b71856c1ecc3fa44db728075931d887448fb1b257ee866f9f8c01a8aa2518012102ff9d024013ddc60e2d3a6068ef945c9a90218d83d083eca3968538b6ad418c43", "asm": "3044022016bb29c4cd19801a17f588fc21e7d98c6e400ab462103eaa994783e3e80377540220524b71856c1ecc3fa44db728075931d887448fb1b257ee866f9f8c01a8aa2518[ALL] 02ff9d024013ddc60e2d3a6068ef945c9a90218d83d083eca3968538b6ad418c43"}, "vout": 2, "txid": "617c0982e700cdc23dbd3f4feff340a7bfefb91a33baaa9388fd89f4c71814e1"}, {"sequence": 4294967294, "scriptSig": {"hex": "47304402202938f69eb6cc02d9bf1ef63b510bb4a9d1f27056fe70bbd7c058b1844e1613c30220253a3bd74f7d7e384f3cdf5a38cdd6957f531b47c45e4f6bd4e0826691bcb381012102ff9d024013ddc60e2d3a6068ef945c9a90218d83d083eca3968538b6ad418c43", "asm": "304402202938f69eb6cc02d9bf1ef63b510bb4a9d1f27056fe70bbd7c058b1844e1613c30220253a3bd74f7d7e384f3cdf5a38cdd6957f531b47c45e4f6bd4e0826691bcb381[ALL] 02ff9d024013ddc60e2d3a6068ef945c9a90218d83d083eca3968538b6ad418c43"}, "vout": 2, "txid": "af04b5b9649a6e80124e126cfe06de13610e9b8b0c600408b55d89759e5239e8"}, {"sequence": 4294967294, "scriptSig": {"hex": "473044022045680bff90a38353f098225db52e6576066f322498673487126af6f043af5f720220102f1c40bbe8d91b97db642daec0b975743ab03d90efcde830902c5b3f25036e012102ff9d024013ddc60e2d3a6068ef945c9a90218d83d083eca3968538b6ad418c43", "asm": "3044022045680bff90a38353f098225db52e6576066f322498673487126af6f043af5f720220102f1c40bbe8d91b97db642daec0b975743ab03d90efcde830902c5b3f25036e[ALL] 02ff9d024013ddc60e2d3a6068ef945c9a90218d83d083eca3968538b6ad418c43"}, "vout": 2, "txid": "622c08fa3f53e43658cc307106451a3593bc044f45acf6a363f6b4c6b89cc0e9"}, {"sequence": 4294967294, "scriptSig": {"hex": "483045022100e2c15ce8eefdc58027059db804d4cdf8f88fd2ed5e18e8975f9035aae3a70d44022076532cb8efe1fa5f3afbab6a32615cd1bd6d0e5bd3a78fbe3b6efd3e3c874d39012102ff9d024013ddc60e2d3a6068ef945c9a90218d83d083eca3968538b6ad418c43", "asm": "3045022100e2c15ce8eefdc58027059db804d4cdf8f88fd2ed5e18e8975f9035aae3a70d44022076532cb8efe1fa5f3afbab6a32615cd1bd6d0e5bd3a78fbe3b6efd3e3c874d39[ALL] 02ff9d024013ddc60e2d3a6068ef945c9a90218d83d083eca3968538b6ad418c43"}, "vout": 2, "txid": "07aa4fc883634cf305daf5e5ca3a11973003c8398d857d410cf55b8dc13e2d2e"}], "txid": "0613d9c5fa92396036f88ed2f22050ac56dc90182dbd4c2cc99d4ca57e86ee46", "blocktime": 1537874412, "version": 1, "confirmations": 11468, "time": 1537874412, "locktime": 542997, "vsize": 3057, "size": 3057}