{"hash": "d9ce056dc2022ac12138fa2bbb104660439706808646f9cd8b6434b56eb795c2", "blockhash": "00000000000000000018f53835495a110e01622372bf6ae95dc86f2b0ab887b0", "vout": [{"scriptPubKey": {"reqSigs": 1, "hex": "0014abea1a0fa11341382b73b836acf0509704e558d3", "addresses": ["bc1q404p5rapzdqns2mnhqm2euzsjuzw2kxnl5fzc7"], "asm": "0 abea1a0fa11341382b73b836acf0509704e558d3", "type": "witness_v0_keyhash"}, "value": 5.626e-05, "n": 0}, {"scriptPubKey": {"reqSigs": 1, "hex": "76a914af81b45fe3da3840d84e7dd8653702299c2cb02488ac", "addresses": ["1GzzdbyqCKzSygReBWB5zRE6f8wUTn5jft"], "asm": "OP_DUP OP_HASH160 af81b45fe3da3840d84e7dd8653702299c2cb024 OP_EQUALVERIFY OP_CHECKSIG", "type": "pubkeyhash"}, "value": 0.00427677, "n": 1}], "hex": "010000000001013d77daed4ca9715c29d7d9f86a662911b0dcae58dd5de6d65f9275c9103ef01b0100000017160014f5c85a8d038c57aa0174c9a692a3c696529ad529ffffffff02fa15000000000000160014abea1a0fa11341382b73b836acf0509704e558d39d860600000000001976a914af81b45fe3da3840d84e7dd8653702299c2cb02488ac02483045022100fb2bcb06705d1d398e6cf4eca9b148772ef287506a899a21a5dd381cd547faf802201b53320ced7f39cf63d78df17292cdef3da783f082d14c0a2d0726797b9d654b012102e7c62c9082a3f3d710e7af5ec6241a395b4533de8a0ea5730b7123a99389994a00000000", "vin": [{"txinwitness": ["3045022100fb2bcb06705d1d398e6cf4eca9b148772ef287506a899a21a5dd381cd547faf802201b53320ced7f39cf63d78df17292cdef3da783f082d14c0a2d0726797b9d654b01", "02e7c62c9082a3f3d710e7af5ec6241a395b4533de8a0ea5730b7123a99389994a"], "sequence": 4294967295, "scriptSig": {"hex": "160014f5c85a8d038c57aa0174c9a692a3c696529ad529", "asm": "0014f5c85a8d038c57aa0174c9a692a3c696529ad529"}, "vout": 1, "txid": "1bf03e10c975925fd6e65ddd58aedcb01129666af8d9d7295c71a94cedda773d"}], "txid": "06132e6efe1155ce524a2dc171b88ce1c759352daa1b3304dc22603788fe1273", "blocktime": 1537870928, "version": 1, "confirmations": 11514, "time": 1537870928, "locktime": 0, "vsize": 167, "size": 249}