{"hash": "0614228276f6252d220b21c1f73c861c06773c1b60cbbdf33354dfe764508ad8", "blockhash": "0000000000000000001f76057863aec43deb6fa401d9628bb513d65a8098bfab", "vout": [{"scriptPubKey": {"reqSigs": 1, "hex": "a91467d9941f48ce34e969b4f89d0b3734afa7cc7b1f87", "addresses": ["3BA8Avp6QQkPndyBDaMhA86RosQwm61NGu"], "asm": "OP_HASH160 67d9941f48ce34e969b4f89d0b3734afa7cc7b1f OP_EQUAL", "type": "scripthash"}, "value": 0.10519085, "n": 0}], "hex": "0100000001eb353a76258fe1bf431f2da822de09e1d9ca66e7da7585f5b2f45fd8d1ae0965080000006b4830450221009810a2f21cc16c7f4ba0e0052b4efc78f00d85a66e0dec2250d6429514fb96f70220008fbed41a4227e5c4b17ce9848823f99bd891fc1177879d57bd3c7abd8066c4012102975fcb7854b4d147cd79567db7c6c16214c844d79bdf02721dd911c1418f20dfffffffff012d82a0000000000017a91467d9941f48ce34e969b4f89d0b3734afa7cc7b1f8700000000", "vin": [{"sequence": 4294967295, "scriptSig": {"hex": "4830450221009810a2f21cc16c7f4ba0e0052b4efc78f00d85a66e0dec2250d6429514fb96f70220008fbed41a4227e5c4b17ce9848823f99bd891fc1177879d57bd3c7abd8066c4012102975fcb7854b4d147cd79567db7c6c16214c844d79bdf02721dd911c1418f20df", "asm": "30450221009810a2f21cc16c7f4ba0e0052b4efc78f00d85a66e0dec2250d6429514fb96f70220008fbed41a4227e5c4b17ce9848823f99bd891fc1177879d57bd3c7abd8066c4[ALL] 02975fcb7854b4d147cd79567db7c6c16214c844d79bdf02721dd911c1418f20df"}, "vout": 8, "txid": "6509aed1d85ff4b2f58575dae766cad9e109de22a82d1f43bfe18f25763a35eb"}], "txid": "0614228276f6252d220b21c1f73c861c06773c1b60cbbdf33354dfe764508ad8", "blocktime": 1537873891, "version": 1, "confirmations": 11478, "time": 1537873891, "locktime": 0, "vsize": 190, "size": 190}