{"hash": "392c21a73609c7e7ee8078c47dd8fd692c272a42b0fe365877ddbcfd2e34e9a9", "blockhash": "0000000000000000001f76057863aec43deb6fa401d9628bb513d65a8098bfab", "vout": [{"scriptPubKey": {"reqSigs": 1, "hex": "a9148d1c670f8ea2af72d8a27813ad6d05d06717654387", "addresses": ["3EZ9E39LQ2JFrEPks3BMPmvRfT1wmun6Tg"], "asm": "OP_HASH160 8d1c670f8ea2af72d8a27813ad6d05d067176543 OP_EQUAL", "type": "scripthash"}, "value": 0.0003, "n": 0}, {"scriptPubKey": {"reqSigs": 1, "hex": "a9143ce732ede99d106d140ffd9371765dd48e120b6287", "addresses": ["37F3S39De5twY2ExpoxBfbKJxwRvkJnMkh"], "asm": "OP_HASH160 3ce732ede99d106d140ffd9371765dd48e120b62 OP_EQUAL", "type": "scripthash"}, "value": 0.00255033, "n": 1}, {"scriptPubKey": {"reqSigs": 1, "hex": "76a91423e5c6afdadd0f7dbe4cd15e97766ccc4235f05888ac", "addresses": ["14GouqepLVkAxZt6SZ8PxMHaLVmAtBGsjE"], "asm": "OP_DUP OP_HASH160 23e5c6afdadd0f7dbe4cd15e97766ccc4235f058 OP_EQUALVERIFY OP_CHECKSIG", "type": "pubkeyhash"}, "value": 0.00562, "n": 2}, {"scriptPubKey": {"reqSigs": 1, "hex": "a914d9967f7499c7510beada7b273709862a7892a8a087", "addresses": ["3MXWqwrESHwvBJ2omeyifsaJ8gajGvS5yf"], "asm": "OP_HASH160 d9967f7499c7510beada7b273709862a7892a8a0 OP_EQUAL", "type": "scripthash"}, "value": 0.00070557, "n": 3}, {"scriptPubKey": {"reqSigs": 1, "hex": "76a914bdda60750f227b3d0357b0a43796eb9f560c0a5788ac", "addresses": ["1JJrKLnJxYd1u5joqGkX9t4L1U3XhUYoZj"], "asm": "OP_DUP OP_HASH160 bdda60750f227b3d0357b0a43796eb9f560c0a57 OP_EQUALVERIFY OP_CHECKSIG", "type": "pubkeyhash"}, "value": 0.01416785, "n": 4}, {"scriptPubKey": {"reqSigs": 1, "hex": "a91445b58d8b5b047ef7e1405e0b5348f6e50d98c14287", "addresses": ["383c3JC7WXiUeteaNCTRWDTbyE8QvpbgbR"], "asm": "OP_HASH160 45b58d8b5b047ef7e1405e0b5348f6e50d98c142 OP_EQUAL", "type": "scripthash"}, "value": 0.00032, "n": 5}, {"scriptPubKey": {"reqSigs": 1, "hex": "76a914a70b0985a6717456c238db816c2d543287a5f34388ac", "addresses": ["1GEF4uyvj1ncxPcytVxH6mHJrmwWfJhMm4"], "asm": "OP_DUP OP_HASH160 a70b0985a6717456c238db816c2d543287a5f343 OP_EQUALVERIFY OP_CHECKSIG", "type": "pubkeyhash"}, "value": 0.00017788, "n": 6}, {"scriptPubKey": {"reqSigs": 1, "hex": "a914c10316d487cb716d61fa5b3a123f427ef26ebdc887", "addresses": ["3KHa3CxknmqjPWDyMf5bjndBKpj34K3YeQ"], "asm": "OP_HASH160 c10316d487cb716d61fa5b3a123f427ef26ebdc8 OP_EQUAL", "type": "scripthash"}, "value": 0.00016, "n": 7}, {"scriptPubKey": {"reqSigs": 1, "hex": "76a914982fa52e194c6b6c6186e2d87fd117d64a28d4eb88ac", "addresses": ["1EsgncDW23syLLtMPbKj3Q3deDNygENY9C"], "asm": "OP_DUP OP_HASH160 982fa52e194c6b6c6186e2d87fd117d64a28d4eb OP_EQUALVERIFY OP_CHECKSIG", "type": "pubkeyhash"}, "value": 0.00169992, "n": 8}, {"scriptPubKey": {"reqSigs": 1, "hex": "a91451b21db4d270122ac6452f8d3eda6e5afc3c148287", "addresses": ["398z2oSNuDgsDXJn5vCyPCw4mx4K4LKzYd"], "asm": "OP_HASH160 51b21db4d270122ac6452f8d3eda6e5afc3c1482 OP_EQUAL", "type": "scripthash"}, "value": 0.002835, "n": 9}, {"scriptPubKey": {"reqSigs": 1, "hex": "a9147faf845c239312e29fe93e6c56d15ffeb11ebb7387", "addresses": ["3DLA13Tz8tB32LsWbXqaqimztn7jDcqi7X"], "asm": "OP_HASH160 7faf845c239312e29fe93e6c56d15ffeb11ebb73 OP_EQUAL", "type": "scripthash"}, "value": 0.0005, "n": 10}, {"scriptPubKey": {"reqSigs": 1, "hex": "a914b79ade0b75ac951ec59ef47509329b9cd3a4a01987", "addresses": ["3JRq72DFUaerCx4o51c6rC9VhWFJ5kBkA6"], "asm": "OP_HASH160 b79ade0b75ac951ec59ef47509329b9cd3a4a019 OP_EQUAL", "type": "scripthash"}, "value": 7.412e-05, "n": 11}, {"scriptPubKey": {"reqSigs": 1, "hex": "a914c9b0492fbfea3f850223851a11035383ed72f17f87", "addresses": ["3L5SvfDR1Za4rNzu4BGD8nfFy4U4FdBQGM"], "asm": "OP_HASH160 c9b0492fbfea3f850223851a11035383ed72f17f OP_EQUAL", "type": "scripthash"}, "value": 0.00481979, "n": 12}, {"scriptPubKey": {"reqSigs": 1, "hex": "76a9148ae6d899a46f6a6485ce22cc69b28c13b08571ac88ac", "addresses": ["1DfSnwYbeghE12xRV9DF5hui3omb8PsDkZ"], "asm": "OP_DUP OP_HASH160 8ae6d899a46f6a6485ce22cc69b28c13b08571ac OP_EQUALVERIFY OP_CHECKSIG", "type": "pubkeyhash"}, "value": 0.00312237, "n": 13}, {"scriptPubKey": {"reqSigs": 1, "hex": "a9140e04677e664593ea8610224ae34b708bb69b607687", "addresses": ["32y8fF5hsc398WaFwMYHbVgrGTeKXPxrbf"], "asm": "OP_HASH160 0e04677e664593ea8610224ae34b708bb69b6076 OP_EQUAL", "type": "scripthash"}, "value": 0.0014166, "n": 14}], "hex": "010000000001076d412e000a9f1b5a9fea0aea204d72442bc16fbe6a8de1c64957efca54f2dbde00000000fdfd0000473044022061e543ec332c1fa8316294c030ac822bde7044d8df46f2ffc1e822fae79afc0f022057a2ff51a55d1c9356fdacf53429b815828f4b480744ea4486be9fd300eb854201483045022100f67102e9fa9a7fdfac5617794e098c1d428718dd3c79fcf1126b7d231035e0cf02200d6ada647d65fcf9c0b82e6f36aa938d7cecfacbd982567bfcf69f1014973d00014c695221028f7e2931d7982d6d8505407abe47fec5285d3cde9b05c3bb9bb952f9b21499192103c45bed7253e3ece31be037d6ed09ea0831ec2531534c9758da648172bc1f023b2102fa30af0409df4b88e6c925bc4db239e755b60006d79fd1c60b7a04fd84e89d8c53aeffffffff396bb73919297d816c1dc884d0b7f806cccbdc094deafba0b7ed8511c2e2524800000000fdfd00004730440220373a9b199fdaad1ff50ba735d5cf13e9816e35a340e2e66e3d5fd7de8fe9958f02200485e7973a5cfe0e50035ef5132420690743f3be085ef55be20761774bccc394014830450221008a379f1c056f0fa18156560f12087b250117911ae0d0838bcafd689c46f6bc2d022041a682d1f0b164d8dfa3cd4c0905e395ebf8426dd374b3dd4c0bf283a21c51ec014c69522102ba1b6ea3a22dca95688d42a68831d37afd911ae84c710c5e93d26a9168b66db62102199d10d817d733aad6652e24231413006098fd1d241843cc3571b59ffec54e8a2102e0e3edc431dd363138678057ada7364301df318aeba5befdc4a20b4f9ffdbe8453aeffffffffb568d61e6ee5c5af328c668173bd863acc527a33b7f65ec2d2d270678e6e6b9c030000002322002091b5a0c33cfae32f28174f63a0d0da2d4e83a94a00bea109294dc69dde71297cffffffff77780cac6a445243c9573f04a47f39d75490c92d5426207ef59840200f08dc2e0000000023220020904bb74d43e91789e5ed37c65f1de8dbecc87339ec1e11ba9c71a56d08ccdab0ffffffff4f30c3cc689210a1fb23802b1ee2e2fefea4d8dd80509ac4e14632c67215f054010000002322002039358a3fb28e898214a2bc0f0b6e9a437b3792a826a10ca998df24eb76b650c1ffffffffc304d05140060a97589986a06c14bca3fce97e93ab1da6e6530bfd4add93392003000000232200201bcc16ac8b67086dc653aa48ea7d8bfbb8a631bedf2c2b6cf73269b1fa85395effffffffe83f9bb7d32ce91eff3af56305d2fae6b170c1656a53a1e644c6fd1cdbd5a71c00000000fdfe0000483045022100fffc65d0e8491c755fb8e5368bd60f7850c6c67a17dd7f28ffce97677cfb2c9402206f8fe2c5fb88fd6f79b1aa91458477d10eda95b8990a2617b9e79d730df754bf01483045022100d6b3cfaf1d25cbc98a518c84e95fa7f267a9444cc063ce76fb7473a4346fe9df02200928fbb2604123a4ff19a9ae98a31097d6234329c7c17de20eb02ee7baff0f19014c69522102348aface4e2911274d4dc4d2f7a006889d931dbdc7eac9cf47365e65a313806d2103f82f3a0fa81192325f10fc311d97bd4359ad8ce7d02a185c25641445ca34b9ac21038f517728d2491421b00c5e18eb6f85ab90db01c8d613c885b258a1838b864b8453aeffffffff0f307500000000000017a9148d1c670f8ea2af72d8a27813ad6d05d0671765438739e403000000000017a9143ce732ede99d106d140ffd9371765dd48e120b628750930800000000001976a91423e5c6afdadd0f7dbe4cd15e97766ccc4235f05888ac9d1301000000000017a914d9967f7499c7510beada7b273709862a7892a8a087519e1500000000001976a914bdda60750f227b3d0357b0a43796eb9f560c0a5788ac007d00000000000017a91445b58d8b5b047ef7e1405e0b5348f6e50d98c142877c450000000000001976a914a70b0985a6717456c238db816c2d543287a5f34388ac803e00000000000017a914c10316d487cb716d61fa5b3a123f427ef26ebdc88708980200000000001976a914982fa52e194c6b6c6186e2d87fd117d64a28d4eb88ac6c5304000000000017a91451b21db4d270122ac6452f8d3eda6e5afc3c14828750c300000000000017a9147faf845c239312e29fe93e6c56d15ffeb11ebb7387f41c00000000000017a914b79ade0b75ac951ec59ef47509329b9cd3a4a01987bb5a07000000000017a914c9b0492fbfea3f850223851a11035383ed72f17f87adc30400000000001976a9148ae6d899a46f6a6485ce22cc69b28c13b08571ac88ac5c2902000000000017a9140e04677e664593ea8610224ae34b708bb69b60768700000400473044022006e1cb7ca8f926416a51e4aa8a38da2c9571837d5a4f6a67d15c7f6be9131c3d022073bfba3ec33e62c09410489e0f101a18c77843d388b1e7f42f6db5b50b44582d01483045022100d6727821edcaeba5dd16839a6806d7bfbad572b876dfa9eed92169e82a1c433002204d62c46f448ddaf94828ea096e57b0a77e988ccdc5eff341a90a5461bc5a4843016952210346e11aad719a766cd1d8a92638e277c8955c323d5c67f868adb634bf9bbcb0ab2102bf3c0d2cd354dad67dbf6d801cbd8b3005d79ccda5dc77b3aad8369417739ac62103abe0df753b091aa225fe52398f266aa833ec8aafe8ecec923faefa4920f61bb353ae0400473044022078cccb7a40cd9292e238651bb6880ea12dfa1e4d9359654a8285cd0863d05b5402204a23b34b0fc48484bd2a1580b34e6496d7121d52fe9ce781df32dee54c6a46cb01483045022100a72fdd2c31e763cce026c68fb20dfa9754ab5ce2c871a4611e31c0f2f0e64e1b02207f13ddc1499f588d3fce7d3f43d001136104d67f3ba69ab41d14387bf7cb79120169522102613660c6af717b8e35b4cea866bf8afd2aaa9ae5ac05ef4fdff0fbe531815fc32103e60ddece618fc622f4f1059062e79a64ee6d4a71ece2758cbd51c14be8834ca721032c65706d32cfe5e1dcb0484be076f5b2bc11d23942062ea01eb9cdd72557caf253ae0400483045022100d6cb9a621f9fc3c0453afcba313128d64b617fa892b9138a2c186ffe17013b7902206dc4fb6185ba8881a3dd9e02c3254907c08eb74c4b964e4ac7e6282851525f600147304402201a97ca7e520fa2f5b919f71507b611bf46597aa86aa2d29dc91af2905d84506a0220568a742f024953efa8f04c51137d6eb96271fab9ae8dc1e7329d1769680ffd570169522103f6a073573669ddb12a40f898f16b64fc306f9aaef9d08e8ffc3b9108906da63f2103d5f3da111e59f0c6b091dc4ef18caff776d3de8ab1fc1d5a0d3ddf6dbb7109a72103784dd8bae3c2146333ae7beeded56e545cbada1ef46402b7a50afe450771e95753ae040047304402207f00598c66262b6e9ae090d945f9cb5b7f12e73eec0f5674c4059e69151dfae00220781ce1fcea11e20882c14a92f67f7029cf7572f1b79e47b6d07fad052019d1d40147304402207352215aafe672c910255933959ba590115f6769a4efcf14be7bfff923d84cc3022042867e0818547e3652a105ed6bfbba9871dba663ae3cef3b2902ddf9c15d8c5e016952210262418e0c5724a30fcb4a8185035249ff7d03b20dddc7f1181ffcd813bcc6bc2021037249042a842cd7603985cb00c001f482c9eb15689a15207ebc159173fbfe33d421024d18fb091b9f5581c3a15536f8a7954e34f170e70a1c3420bf95f4a2d487603653ae0000000000", "vin": [{"sequence": 4294967295, "scriptSig": {"hex": "00473044022061e543ec332c1fa8316294c030ac822bde7044d8df46f2ffc1e822fae79afc0f022057a2ff51a55d1c9356fdacf53429b815828f4b480744ea4486be9fd300eb854201483045022100f67102e9fa9a7fdfac5617794e098c1d428718dd3c79fcf1126b7d231035e0cf02200d6ada647d65fcf9c0b82e6f36aa938d7cecfacbd982567bfcf69f1014973d00014c695221028f7e2931d7982d6d8505407abe47fec5285d3cde9b05c3bb9bb952f9b21499192103c45bed7253e3ece31be037d6ed09ea0831ec2531534c9758da648172bc1f023b2102fa30af0409df4b88e6c925bc4db239e755b60006d79fd1c60b7a04fd84e89d8c53ae", "asm": "0 3044022061e543ec332c1fa8316294c030ac822bde7044d8df46f2ffc1e822fae79afc0f022057a2ff51a55d1c9356fdacf53429b815828f4b480744ea4486be9fd300eb8542[ALL] 3045022100f67102e9fa9a7fdfac5617794e098c1d428718dd3c79fcf1126b7d231035e0cf02200d6ada647d65fcf9c0b82e6f36aa938d7cecfacbd982567bfcf69f1014973d00[ALL] 5221028f7e2931d7982d6d8505407abe47fec5285d3cde9b05c3bb9bb952f9b21499192103c45bed7253e3ece31be037d6ed09ea0831ec2531534c9758da648172bc1f023b2102fa30af0409df4b88e6c925bc4db239e755b60006d79fd1c60b7a04fd84e89d8c53ae"}, "vout": 0, "txid": "dedbf254caef5749c6e18d6abe6fc12b44724d20ea0aea9f5a1b9f0a002e416d"}, {"sequence": 4294967295, "scriptSig": {"hex": "004730440220373a9b199fdaad1ff50ba735d5cf13e9816e35a340e2e66e3d5fd7de8fe9958f02200485e7973a5cfe0e50035ef5132420690743f3be085ef55be20761774bccc394014830450221008a379f1c056f0fa18156560f12087b250117911ae0d0838bcafd689c46f6bc2d022041a682d1f0b164d8dfa3cd4c0905e395ebf8426dd374b3dd4c0bf283a21c51ec014c69522102ba1b6ea3a22dca95688d42a68831d37afd911ae84c710c5e93d26a9168b66db62102199d10d817d733aad6652e24231413006098fd1d241843cc3571b59ffec54e8a2102e0e3edc431dd363138678057ada7364301df318aeba5befdc4a20b4f9ffdbe8453ae", "asm": "0 30440220373a9b199fdaad1ff50ba735d5cf13e9816e35a340e2e66e3d5fd7de8fe9958f02200485e7973a5cfe0e50035ef5132420690743f3be085ef55be20761774bccc394[ALL] 30450221008a379f1c056f0fa18156560f12087b250117911ae0d0838bcafd689c46f6bc2d022041a682d1f0b164d8dfa3cd4c0905e395ebf8426dd374b3dd4c0bf283a21c51ec[ALL] 522102ba1b6ea3a22dca95688d42a68831d37afd911ae84c710c5e93d26a9168b66db62102199d10d817d733aad6652e24231413006098fd1d241843cc3571b59ffec54e8a2102e0e3edc431dd363138678057ada7364301df318aeba5befdc4a20b4f9ffdbe8453ae"}, "vout": 0, "txid": "4852e2c21185edb7a0fbea4d09dccbcc06f8b7d084c81d6c817d291939b76b39"}, {"txinwitness": ["", "3044022006e1cb7ca8f926416a51e4aa8a38da2c9571837d5a4f6a67d15c7f6be9131c3d022073bfba3ec33e62c09410489e0f101a18c77843d388b1e7f42f6db5b50b44582d01", "3045022100d6727821edcaeba5dd16839a6806d7bfbad572b876dfa9eed92169e82a1c433002204d62c46f448ddaf94828ea096e57b0a77e988ccdc5eff341a90a5461bc5a484301", "52210346e11aad719a766cd1d8a92638e277c8955c323d5c67f868adb634bf9bbcb0ab2102bf3c0d2cd354dad67dbf6d801cbd8b3005d79ccda5dc77b3aad8369417739ac62103abe0df753b091aa225fe52398f266aa833ec8aafe8ecec923faefa4920f61bb353ae"], "sequence": 4294967295, "scriptSig": {"hex": "22002091b5a0c33cfae32f28174f63a0d0da2d4e83a94a00bea109294dc69dde71297c", "asm": "002091b5a0c33cfae32f28174f63a0d0da2d4e83a94a00bea109294dc69dde71297c"}, "vout": 3, "txid": "9c6b6e8e6770d2d2c25ef6b7337a52cc3a86bd7381668c32afc5e56e1ed668b5"}, {"txinwitness": ["", "3044022078cccb7a40cd9292e238651bb6880ea12dfa1e4d9359654a8285cd0863d05b5402204a23b34b0fc48484bd2a1580b34e6496d7121d52fe9ce781df32dee54c6a46cb01", "3045022100a72fdd2c31e763cce026c68fb20dfa9754ab5ce2c871a4611e31c0f2f0e64e1b02207f13ddc1499f588d3fce7d3f43d001136104d67f3ba69ab41d14387bf7cb791201", "522102613660c6af717b8e35b4cea866bf8afd2aaa9ae5ac05ef4fdff0fbe531815fc32103e60ddece618fc622f4f1059062e79a64ee6d4a71ece2758cbd51c14be8834ca721032c65706d32cfe5e1dcb0484be076f5b2bc11d23942062ea01eb9cdd72557caf253ae"], "sequence": 4294967295, "scriptSig": {"hex": "220020904bb74d43e91789e5ed37c65f1de8dbecc87339ec1e11ba9c71a56d08ccdab0", "asm": "0020904bb74d43e91789e5ed37c65f1de8dbecc87339ec1e11ba9c71a56d08ccdab0"}, "vout": 0, "txid": "2edc080f204098f57e2026542dc99054d7397fa4043f57c94352446aac0c7877"}, {"txinwitness": ["", "3045022100d6cb9a621f9fc3c0453afcba313128d64b617fa892b9138a2c186ffe17013b7902206dc4fb6185ba8881a3dd9e02c3254907c08eb74c4b964e4ac7e6282851525f6001", "304402201a97ca7e520fa2f5b919f71507b611bf46597aa86aa2d29dc91af2905d84506a0220568a742f024953efa8f04c51137d6eb96271fab9ae8dc1e7329d1769680ffd5701", "522103f6a073573669ddb12a40f898f16b64fc306f9aaef9d08e8ffc3b9108906da63f2103d5f3da111e59f0c6b091dc4ef18caff776d3de8ab1fc1d5a0d3ddf6dbb7109a72103784dd8bae3c2146333ae7beeded56e545cbada1ef46402b7a50afe450771e95753ae"], "sequence": 4294967295, "scriptSig": {"hex": "22002039358a3fb28e898214a2bc0f0b6e9a437b3792a826a10ca998df24eb76b650c1", "asm": "002039358a3fb28e898214a2bc0f0b6e9a437b3792a826a10ca998df24eb76b650c1"}, "vout": 1, "txid": "54f01572c63246e1c49a5080ddd8a4fefee2e21e2b8023fba1109268ccc3304f"}, {"txinwitness": ["", "304402207f00598c66262b6e9ae090d945f9cb5b7f12e73eec0f5674c4059e69151dfae00220781ce1fcea11e20882c14a92f67f7029cf7572f1b79e47b6d07fad052019d1d401", "304402207352215aafe672c910255933959ba590115f6769a4efcf14be7bfff923d84cc3022042867e0818547e3652a105ed6bfbba9871dba663ae3cef3b2902ddf9c15d8c5e01", "52210262418e0c5724a30fcb4a8185035249ff7d03b20dddc7f1181ffcd813bcc6bc2021037249042a842cd7603985cb00c001f482c9eb15689a15207ebc159173fbfe33d421024d18fb091b9f5581c3a15536f8a7954e34f170e70a1c3420bf95f4a2d487603653ae"], "sequence": 4294967295, "scriptSig": {"hex": "2200201bcc16ac8b67086dc653aa48ea7d8bfbb8a631bedf2c2b6cf73269b1fa85395e", "asm": "00201bcc16ac8b67086dc653aa48ea7d8bfbb8a631bedf2c2b6cf73269b1fa85395e"}, "vout": 3, "txid": "203993dd4afd0b53e6a61dab937ee9fca3bc146ca0869958970a064051d004c3"}, {"sequence": 4294967295, "scriptSig": {"hex": "00483045022100fffc65d0e8491c755fb8e5368bd60f7850c6c67a17dd7f28ffce97677cfb2c9402206f8fe2c5fb88fd6f79b1aa91458477d10eda95b8990a2617b9e79d730df754bf01483045022100d6b3cfaf1d25cbc98a518c84e95fa7f267a9444cc063ce76fb7473a4346fe9df02200928fbb2604123a4ff19a9ae98a31097d6234329c7c17de20eb02ee7baff0f19014c69522102348aface4e2911274d4dc4d2f7a006889d931dbdc7eac9cf47365e65a313806d2103f82f3a0fa81192325f10fc311d97bd4359ad8ce7d02a185c25641445ca34b9ac21038f517728d2491421b00c5e18eb6f85ab90db01c8d613c885b258a1838b864b8453ae", "asm": "0 3045022100fffc65d0e8491c755fb8e5368bd60f7850c6c67a17dd7f28ffce97677cfb2c9402206f8fe2c5fb88fd6f79b1aa91458477d10eda95b8990a2617b9e79d730df754bf[ALL] 3045022100d6b3cfaf1d25cbc98a518c84e95fa7f267a9444cc063ce76fb7473a4346fe9df02200928fbb2604123a4ff19a9ae98a31097d6234329c7c17de20eb02ee7baff0f19[ALL] 522102348aface4e2911274d4dc4d2f7a006889d931dbdc7eac9cf47365e65a313806d2103f82f3a0fa81192325f10fc311d97bd4359ad8ce7d02a185c25641445ca34b9ac21038f517728d2491421b00c5e18eb6f85ab90db01c8d613c885b258a1838b864b8453ae"}, "vout": 0, "txid": "1ca7d5db1cfdc644e6a1536a65c170b1e6fad20563f53aff1ee92cd3b79b3fe8"}], "txid": "0615a34e83104448bbc274f4d7f7796bb5a1a51cad2cb07d8f3c0b0f4f54e2bf", "blocktime": 1537873891, "version": 1, "confirmations": 11478, "time": 1537873891, "locktime": 0, "vsize": 1947, "size": 2709}