{"hash": "8d4672bfa9b9e09540f3674f0b03c1634c5abb40993affd4373acab28e62ae03", "blockhash": "0000000000000000000dcc0f55137456b1a82d3642486a52398922ac4d620174", "vout": [{"scriptPubKey": {"reqSigs": 1, "hex": "a914956815412e9c921fda5e6c5d40fa1b41e8a471ec87", "addresses": ["3FK1HwapYmSW25eCmETjKK7YcPvA5MyLZf"], "asm": "OP_HASH160 956815412e9c921fda5e6c5d40fa1b41e8a471ec OP_EQUAL", "type": "scripthash"}, "value": 0.0115125, "n": 0}, {"scriptPubKey": {"reqSigs": 1, "hex": "76a914eb3257daa592b3f5165eb06509ca4f9f3829e8ae88ac", "addresses": ["1NSc6zAdG2NGbjPLQwAjAuqjHSoq5KECT7"], "asm": "OP_DUP OP_HASH160 eb3257daa592b3f5165eb06509ca4f9f3829e8ae OP_EQUALVERIFY OP_CHECKSIG", "type": "pubkeyhash"}, "value": 1.99, "n": 1}], "hex": "02000000000102933e3ae0a3c06e6da17b6edb8a4d1e3083521b075ab394f57031ff44c308c7180000000017160014fb0464efab89e019cec63bcf2b3091be94382793feffffffc775559112a9285d0cdd1631040705fee60b8d13a51d6877bc0697aa7097b94e010000006b4830450221008cb539e39e8db91fc4a4bfa9e4d7f3f93dc0af77dd07378e72663c4fbc4e86f602201356a954d02332b7ade9e9bdcb566a11bc29cc3b1580bbd23de645130c1851ca0121030ccb5a35c5245927d49f69570cb664d5e5fea11f255ef4ca15eb10a585fbeebffeffffff02129111000000000017a914956815412e9c921fda5e6c5d40fa1b41e8a471ec87c07fdc0b000000001976a914eb3257daa592b3f5165eb06509ca4f9f3829e8ae88ac02473044022026fb8576bd2f68c73b82217aab2e896621e225e57249d4b900985b55df5d24c002201316935c6ecdd3fecaef59d6d2e82311174c9cf8af8f98d190a9ac01431a320801210307323b65c4eb73543e918268ac042e9b7b0f330ed131d381140fe77ecc1e1db5000c490800", "vin": [{"txinwitness": ["3044022026fb8576bd2f68c73b82217aab2e896621e225e57249d4b900985b55df5d24c002201316935c6ecdd3fecaef59d6d2e82311174c9cf8af8f98d190a9ac01431a320801", "0307323b65c4eb73543e918268ac042e9b7b0f330ed131d381140fe77ecc1e1db5"], "sequence": 4294967294, "scriptSig": {"hex": "160014fb0464efab89e019cec63bcf2b3091be94382793", "asm": "0014fb0464efab89e019cec63bcf2b3091be94382793"}, "vout": 0, "txid": "18c708c344ff3170f594b35a071b5283301e4d8adb6e7ba16d6ec0a3e03a3e93"}, {"sequence": 4294967294, "scriptSig": {"hex": "4830450221008cb539e39e8db91fc4a4bfa9e4d7f3f93dc0af77dd07378e72663c4fbc4e86f602201356a954d02332b7ade9e9bdcb566a11bc29cc3b1580bbd23de645130c1851ca0121030ccb5a35c5245927d49f69570cb664d5e5fea11f255ef4ca15eb10a585fbeebf", "asm": "30450221008cb539e39e8db91fc4a4bfa9e4d7f3f93dc0af77dd07378e72663c4fbc4e86f602201356a954d02332b7ade9e9bdcb566a11bc29cc3b1580bbd23de645130c1851ca[ALL] 030ccb5a35c5245927d49f69570cb664d5e5fea11f255ef4ca15eb10a585fbeebf"}, "vout": 1, "txid": "4eb99770aa9706bc77681da5138d0be6fe0507043116dd0c5d28a912915575c7"}], "txid": "06169e1e52b92e486d904ca1bc7c5eb440f4a0a52a138b551bfaa00650180229", "blocktime": 1537870268, "version": 2, "confirmations": 11516, "time": 1537870268, "locktime": 542988, "vsize": 316, "size": 398}