{"hash": "0618921115191b72be8672b7e9975cd58b58b3340b2d87e91a68fb8d212fa6c4", "blockhash": "00000000000000000017f5eb5941039fbcee6240d03bc1f2f8e35350df66a1d8", "vout": [{"scriptPubKey": {"reqSigs": 1, "hex": "76a914e93c07a7a51063c13509b8ff4159650db0c6858c88ac", "addresses": ["1NGEMeY8wdGprDx1GVwneH3wfVmgkZYdvZ"], "asm": "OP_DUP OP_HASH160 e93c07a7a51063c13509b8ff4159650db0c6858c OP_EQUALVERIFY OP_CHECKSIG", "type": "pubkeyhash"}, "value": 0.20679162, "n": 0}, {"scriptPubKey": {"reqSigs": 1, "hex": "76a91465e2f2613add70901267f794b3220c8c7aa2cfa888ac", "addresses": ["1AHj7v45N3pNgt3mDMVNgD1WX5dfGDGVFd"], "asm": "OP_DUP OP_HASH160 65e2f2613add70901267f794b3220c8c7aa2cfa8 OP_EQUALVERIFY OP_CHECKSIG", "type": "pubkeyhash"}, "value": 0.0002, "n": 1}], "hex": "01000000017d765c72198fb17c37518d0700a45aa7a3dcfd4618016e7be42510c5a1714512010000006b483045022100f403068ebc78aabb7ec141bf4b50168b96e521a3c0a4a6008841d02dd15e824e02205267b53b88860bf638ef61e2a018bac8f1ac3412a8e8788fe4a164b96552427c01210238446aa8fc1001b9d5bd177dbc32cef24488c27514b0ac3fbe5518f0bbcdb723ffffffff02fa893b01000000001976a914e93c07a7a51063c13509b8ff4159650db0c6858c88ac204e0000000000001976a91465e2f2613add70901267f794b3220c8c7aa2cfa888ac00000000", "vin": [{"sequence": 4294967295, "scriptSig": {"hex": "483045022100f403068ebc78aabb7ec141bf4b50168b96e521a3c0a4a6008841d02dd15e824e02205267b53b88860bf638ef61e2a018bac8f1ac3412a8e8788fe4a164b96552427c01210238446aa8fc1001b9d5bd177dbc32cef24488c27514b0ac3fbe5518f0bbcdb723", "asm": "3045022100f403068ebc78aabb7ec141bf4b50168b96e521a3c0a4a6008841d02dd15e824e02205267b53b88860bf638ef61e2a018bac8f1ac3412a8e8788fe4a164b96552427c[ALL] 0238446aa8fc1001b9d5bd177dbc32cef24488c27514b0ac3fbe5518f0bbcdb723"}, "vout": 1, "txid": "124571a1c51025e47b6e011846fddca3a75aa400078d51377cb18f19725c767d"}], "txid": "0618921115191b72be8672b7e9975cd58b58b3340b2d87e91a68fb8d212fa6c4", "blocktime": 1537874412, "version": 1, "confirmations": 11466, "time": 1537874412, "locktime": 0, "vsize": 226, "size": 226}