{"hash": "062568662b464f52a39ddc6ecddda59e27ecae4b36c0e90495ff9524e08290c3", "blockhash": "000000000000000000022b45ed06c6f4ccd3cf7fb5ba4856ebd2e58215665228", "vout": [{"scriptPubKey": {"reqSigs": 1, "hex": "76a914ad3373746beae1e5378026b27652ef0186ba49c488ac", "addresses": ["1GnoY4jv2UkW3DAuNfCdK8MjLZFztqfnkn"], "asm": "OP_DUP OP_HASH160 ad3373746beae1e5378026b27652ef0186ba49c4 OP_EQUALVERIFY OP_CHECKSIG", "type": "pubkeyhash"}, "value": 0.02462667, "n": 0}, {"scriptPubKey": {"reqSigs": 1, "hex": "001409bb12d1c418e006b76fe3f3ba26b7e5de9d9165", "addresses": ["bc1qpxa395wyrrsqddm0u0em5f4huh0fmyt9n9n9sk"], "asm": "0 09bb12d1c418e006b76fe3f3ba26b7e5de9d9165", "type": "witness_v0_keyhash"}, "value": 0.00036549, "n": 1}], "hex": "01000000015898e24f36a4a065bdb7143f86ff6dc5b8140450db6c3825e9ed93760c512444000000006a47304402205f10c3453449ee09ad4fda6b0e4da9cccdccee716a5bd5c05bcdaab0dea0056e022050cdb83515e2c9de02309cc4b89871c06eacf611644dfbe5dc29a956e46461a60121039a100d71a8f2e67eaa73952c7a47b801391659c7577da8b1b21b8ea43286a080ffffffff02cb932500000000001976a914ad3373746beae1e5378026b27652ef0186ba49c488acc58e00000000000016001409bb12d1c418e006b76fe3f3ba26b7e5de9d916500000000", "vin": [{"sequence": 4294967295, "scriptSig": {"hex": "47304402205f10c3453449ee09ad4fda6b0e4da9cccdccee716a5bd5c05bcdaab0dea0056e022050cdb83515e2c9de02309cc4b89871c06eacf611644dfbe5dc29a956e46461a60121039a100d71a8f2e67eaa73952c7a47b801391659c7577da8b1b21b8ea43286a080", "asm": "304402205f10c3453449ee09ad4fda6b0e4da9cccdccee716a5bd5c05bcdaab0dea0056e022050cdb83515e2c9de02309cc4b89871c06eacf611644dfbe5dc29a956e46461a6[ALL] 039a100d71a8f2e67eaa73952c7a47b801391659c7577da8b1b21b8ea43286a080"}, "vout": 0, "txid": "4424510c7693ede925386cdb500414b8c56dff863f14b7bd65a0a4364fe29858"}], "txid": "062568662b464f52a39ddc6ecddda59e27ecae4b36c0e90495ff9524e08290c3", "blocktime": 1537869901, "version": 1, "confirmations": 11523, "time": 1537869901, "locktime": 0, "vsize": 222, "size": 222}