{"hash": "bccf59eae372b1381556eead80c2689685835b2f2e90d44322af7debfefbf9c7", "blockhash": "0000000000000000000e13cef7c366c0283d82e591d1acd082e914b08063cdf1", "vout": [{"scriptPubKey": {"reqSigs": 1, "hex": "0014a20801b22018520e9eeab886fe203743d12ecc12", "addresses": ["bc1q5gyqrv3qrpfqa8h2hzr0ugphg0gjanqjvnnlx4"], "asm": "0 a20801b22018520e9eeab886fe203743d12ecc12", "type": "witness_v0_keyhash"}, "value": 0.12982336, "n": 0}, {"scriptPubKey": {"reqSigs": 1, "hex": "76a9146e9141c6a5f22b3fdada83213a33051b7a2b95c388ac", "addresses": ["1B5dLjMhZC9nqusDuxFDZgxVjdV65H7Rue"], "asm": "OP_DUP OP_HASH160 6e9141c6a5f22b3fdada83213a33051b7a2b95c3 OP_EQUALVERIFY OP_CHECKSIG", "type": "pubkeyhash"}, "value": 0.25, "n": 1}], "hex": "01000000000101c6b7b4a08c2a03b59bafcb390d3fa1bfd657f0ee185227e9a61fb35fd52997790000000000ffffffff024018c60000000000160014a20801b22018520e9eeab886fe203743d12ecc1240787d01000000001976a9146e9141c6a5f22b3fdada83213a33051b7a2b95c388ac02473044022023c8b6b5c5576f1b6cfc12c8d5d7402ca5d7aa61c67b5656f5ba1170fc6920d302201edce4d77ba37751aea746d5ddb72a62e5739fec8ae8c7e27b36a71af2619e5e012102c58a8a32af18e73771c81d56523a5e049e997e766bd55992c202bb8b27212a7b00000000", "vin": [{"txinwitness": ["3044022023c8b6b5c5576f1b6cfc12c8d5d7402ca5d7aa61c67b5656f5ba1170fc6920d302201edce4d77ba37751aea746d5ddb72a62e5739fec8ae8c7e27b36a71af2619e5e01", "02c58a8a32af18e73771c81d56523a5e049e997e766bd55992c202bb8b27212a7b"], "sequence": 4294967295, "scriptSig": {"hex": "", "asm": ""}, "vout": 0, "txid": "799729d55fb31fa6e9275218eef057d6bfa13f0d39cbaf9bb5032a8ca0b4b7c6"}], "txid": "0626c0478e36b561635dab6ae4cbacebb7bc4b18248db7c3589c751a0c224b07", "blocktime": 1537871767, "version": 1, "confirmations": 11495, "time": 1537871767, "locktime": 0, "vsize": 144, "size": 225}