{"hash": "71b1259c636cc5accf3187812be200c0bc281f5aea6eef364b1003bb53d0a92f", "blockhash": "0000000000000000001f76057863aec43deb6fa401d9628bb513d65a8098bfab", "vout": [{"scriptPubKey": {"reqSigs": 1, "hex": "76a914fd9761cd326aa68c34bb5a2557772b6dd3aa75ff88ac", "addresses": ["1Q7sJk1DnPqsPvTJuia2ZgwDoHAMYn3NEK"], "asm": "OP_DUP OP_HASH160 fd9761cd326aa68c34bb5a2557772b6dd3aa75ff OP_EQUALVERIFY OP_CHECKSIG", "type": "pubkeyhash"}, "value": 0.0199848, "n": 0}, {"scriptPubKey": {"reqSigs": 1, "hex": "a91408ad1da0608b6d972c93e8613318491f2fb289b887", "addresses": ["32UtiNRCAyPUHEtcDx9g2M1xkDew6C1tLw"], "asm": "OP_HASH160 08ad1da0608b6d972c93e8613318491f2fb289b8 OP_EQUAL", "type": "scripthash"}, "value": 2.67177502, "n": 1}], "hex": "0200000000010163194e5fcef55dfc9348e519c41cbc48271926881fa7ba0e1d80ae8907d04ee20000000017160014aa652ae1b33c2254cf6f27f13511f5b3ff4c88fdfeffffff02907e1e00000000001976a914fd9761cd326aa68c34bb5a2557772b6dd3aa75ff88ac1eceec0f0000000017a91408ad1da0608b6d972c93e8613318491f2fb289b887024730440220514ef0f1415800879d7ec3e1edbf8d176db391c86629a6a3d6f4b120a9071303022069b9ccf6b479d68b22b38d3b70b930d000ae40e047a67770e64a7c9c84feca53012102a5fe21b9f9e72f463abef52dcc0ab70e3043660eeab218fb1c86606ce16a052714490800", "vin": [{"txinwitness": ["30440220514ef0f1415800879d7ec3e1edbf8d176db391c86629a6a3d6f4b120a9071303022069b9ccf6b479d68b22b38d3b70b930d000ae40e047a67770e64a7c9c84feca5301", "02a5fe21b9f9e72f463abef52dcc0ab70e3043660eeab218fb1c86606ce16a0527"], "sequence": 4294967294, "scriptSig": {"hex": "160014aa652ae1b33c2254cf6f27f13511f5b3ff4c88fd", "asm": "0014aa652ae1b33c2254cf6f27f13511f5b3ff4c88fd"}, "vout": 0, "txid": "e24ed00789ae801d0ebaa71f8826192748bc1cc419e54893fc5df5ce5f4e1963"}], "txid": "06295e23e6a493c8cb4259478fddd774155ba8567a7d732dd35c3c6c7f1de1c3", "blocktime": 1537873891, "version": 2, "confirmations": 11478, "time": 1537873891, "locktime": 542996, "vsize": 168, "size": 249}