{"hash": "062cec57331eb4814f58d78abcc334ae392599910f017010170c3cfd1088ecc7", "blockhash": "0000000000000000000baef3f32e3676a92c3b2e5da21b426e4f302fc371ce76", "vout": [{"scriptPubKey": {"reqSigs": 1, "hex": "76a91427d51d1aecba602dea991d6cff202e50703ee88188ac", "addresses": ["14dcet4Lqh3XUBWSU5GhVQREgfmMG9mAA5"], "asm": "OP_DUP OP_HASH160 27d51d1aecba602dea991d6cff202e50703ee881 OP_EQUALVERIFY OP_CHECKSIG", "type": "pubkeyhash"}, "value": 0.14319924, "n": 0}, {"scriptPubKey": {"type": "nulldata", "hex": "6a146f6d6e69000000000000001f00000004a817c800", "asm": "OP_RETURN 6f6d6e69000000000000001f00000004a817c800"}, "value": 0.0, "n": 1}, {"scriptPubKey": {"reqSigs": 1, "hex": "76a914845ed86f69d1900faef09a34c0101104cc9ed3d688ac", "addresses": ["1D4upJLtAnsyNsRkADvezvg7unf2FJFgs5"], "asm": "OP_DUP OP_HASH160 845ed86f69d1900faef09a34c0101104cc9ed3d6 OP_EQUALVERIFY OP_CHECKSIG", "type": "pubkeyhash"}, "value": 5.46e-06, "n": 2}], "hex": "010000000218f58a93db61ed9911c1cd95aeb7b2cea5af455b683109681341cf35b1948b34020000006a47304402204c3ca17d2fe6e81c348f0b4fd81a2880966bd94a3d8603dcc1a7bd98c67521fe02205ec1baafe1126560aeae2443d8464bdc93e06b7e86f87440a9230974d829b216012103e026bb044c0158cf15437040083f28e12917a481c536d2146b4238bebffbc982ffffffff4b82e448284c24a555dcba3541aabe165ba42156ea1b7a54409e12a7315f600a000000006a473044022038c460904f38dc43490297e197fa08b547a6dd3d59db92648c838a16116b0e4a0220433047d1aa5473768f52327585f87212de97525c9cd47f61eaac7bc22cd6c1550121039d6badaa44b1756460faa2d4bf0daa40e46c5206ec9ef5963decb350076e7f6affffffff033481da00000000001976a91427d51d1aecba602dea991d6cff202e50703ee88188ac0000000000000000166a146f6d6e69000000000000001f00000004a817c80022020000000000001976a914845ed86f69d1900faef09a34c0101104cc9ed3d688ac00000000", "vin": [{"sequence": 4294967295, "scriptSig": {"hex": "47304402204c3ca17d2fe6e81c348f0b4fd81a2880966bd94a3d8603dcc1a7bd98c67521fe02205ec1baafe1126560aeae2443d8464bdc93e06b7e86f87440a9230974d829b216012103e026bb044c0158cf15437040083f28e12917a481c536d2146b4238bebffbc982", "asm": "304402204c3ca17d2fe6e81c348f0b4fd81a2880966bd94a3d8603dcc1a7bd98c67521fe02205ec1baafe1126560aeae2443d8464bdc93e06b7e86f87440a9230974d829b216[ALL] 03e026bb044c0158cf15437040083f28e12917a481c536d2146b4238bebffbc982"}, "vout": 2, "txid": "348b94b135cf4113680931685b45afa5ceb2b7ae95cdc11199ed61db938af518"}, {"sequence": 4294967295, "scriptSig": {"hex": "473044022038c460904f38dc43490297e197fa08b547a6dd3d59db92648c838a16116b0e4a0220433047d1aa5473768f52327585f87212de97525c9cd47f61eaac7bc22cd6c1550121039d6badaa44b1756460faa2d4bf0daa40e46c5206ec9ef5963decb350076e7f6a", "asm": "3044022038c460904f38dc43490297e197fa08b547a6dd3d59db92648c838a16116b0e4a0220433047d1aa5473768f52327585f87212de97525c9cd47f61eaac7bc22cd6c155[ALL] 039d6badaa44b1756460faa2d4bf0daa40e46c5206ec9ef5963decb350076e7f6a"}, "vout": 0, "txid": "0a605f31a7129e40547a1bea5621a45b16beaa4135badc55a5244c2848e4824b"}], "txid": "062cec57331eb4814f58d78abcc334ae392599910f017010170c3cfd1088ecc7", "blocktime": 1537876114, "version": 1, "confirmations": 11459, "time": 1537876114, "locktime": 0, "vsize": 403, "size": 403}