{"hash": "65fe77ac07f8f946ef52fca4f6438f7ce19b8655bc0d2757c4120d34087d7e39", "blockhash": "0000000000000000001e0dab787dd257d1dbfcb92a98c2207d5e1078be1f4165", "vout": [{"scriptPubKey": {"reqSigs": 1, "hex": "76a914bbaec083b5e6b2619a44122d11954d363152fd0488ac", "addresses": ["1J7NhraWXwxB5EzsPgHjvHxXqAAYgWV397"], "asm": "OP_DUP OP_HASH160 bbaec083b5e6b2619a44122d11954d363152fd04 OP_EQUALVERIFY OP_CHECKSIG", "type": "pubkeyhash"}, "value": 0.00410168, "n": 0}, {"scriptPubKey": {"reqSigs": 1, "hex": "a914fee0e97aefdcb594fd5da0f027c955d4d3a7b5ef87", "addresses": ["3QvgzRvudh7VrLmv2VhDvz1TN4AAMehbhL"], "asm": "OP_HASH160 fee0e97aefdcb594fd5da0f027c955d4d3a7b5ef OP_EQUAL", "type": "scripthash"}, "value": 0.01245109, "n": 1}], "hex": "02000000000101a4ff4301a1df61af6006da95283540a48a68e99ddd8e4d4b346359547249645600000000171600143b12565fde4b64da642a53726e019974725102f7feffffff0238420600000000001976a914bbaec083b5e6b2619a44122d11954d363152fd0488acb5ff12000000000017a914fee0e97aefdcb594fd5da0f027c955d4d3a7b5ef8702483045022100d77236635db06ff9f363cbaf1a61a761acdc872997dfc3474e7ce56c63452bcf02205f94a8cb5ef870201062627b15fa9a059c8b75526c1b9f84ac983ee0a7afa2670121025a60d037d882eaa76bb9d6591fcec306fc8714df70e7085ed7f96b92e60931ad12490800", "vin": [{"txinwitness": ["3045022100d77236635db06ff9f363cbaf1a61a761acdc872997dfc3474e7ce56c63452bcf02205f94a8cb5ef870201062627b15fa9a059c8b75526c1b9f84ac983ee0a7afa26701", "025a60d037d882eaa76bb9d6591fcec306fc8714df70e7085ed7f96b92e60931ad"], "sequence": 4294967294, "scriptSig": {"hex": "1600143b12565fde4b64da642a53726e019974725102f7", "asm": "00143b12565fde4b64da642a53726e019974725102f7"}, "vout": 0, "txid": "56644972545963344b4d8edd9de9688aa440352895da0660af61dfa10143ffa4"}], "txid": "062fdc657a6bb50e94b41624f0f9667e5d9fc90880ee86ed7b712906dd9eb0b9", "blocktime": 1537872475, "version": 2, "confirmations": 11487, "time": 1537872475, "locktime": 542994, "vsize": 168, "size": 250}