{"hash": "ba7b867126b1b539ba321cfa71dfb400381c5c490a9cb40bd24f9f0156e7cf6c", "blockhash": "00000000000000000017f5eb5941039fbcee6240d03bc1f2f8e35350df66a1d8", "vout": [{"scriptPubKey": {"reqSigs": 1, "hex": "0014bf1914da05f4f4e96b9ab7ca33c23e30c1d77b21", "addresses": ["bc1qhuv3fks97n6wj6u6kl9r8s37xrqaw7epucf3st"], "asm": "0 bf1914da05f4f4e96b9ab7ca33c23e30c1d77b21", "type": "witness_v0_keyhash"}, "value": 0.02784046, "n": 0}, {"scriptPubKey": {"reqSigs": 1, "hex": "76a9149b08c3d43697561f5701fa0c485b99b5d5fac31988ac", "addresses": ["1F8kEjYp82geyGZYS8MWf1LeZtdgpiu9v8"], "asm": "OP_DUP OP_HASH160 9b08c3d43697561f5701fa0c485b99b5d5fac319 OP_EQUALVERIFY OP_CHECKSIG", "type": "pubkeyhash"}, "value": 0.0126, "n": 1}], "hex": "01000000000101bf660e479353a91cd2ccaf3340b1c0c61466d4ee92435832bb41ff367be3ecf10100000000ffffffff022e7b2a0000000000160014bf1914da05f4f4e96b9ab7ca33c23e30c1d77b21e0391300000000001976a9149b08c3d43697561f5701fa0c485b99b5d5fac31988ac0247304402200c85573da656c36e23e84a886c471746f65fcd32a0115fa04f8c9e71b0c621da022069eacef7c0efc290144626578873405b5c1f85ae65ef6c9079a8160dabd378ec01210274e82ecb94e341dc458909803c056b630d8fac346be47d757275b0b39dd22f1d00000000", "vin": [{"txinwitness": ["304402200c85573da656c36e23e84a886c471746f65fcd32a0115fa04f8c9e71b0c621da022069eacef7c0efc290144626578873405b5c1f85ae65ef6c9079a8160dabd378ec01", "0274e82ecb94e341dc458909803c056b630d8fac346be47d757275b0b39dd22f1d"], "sequence": 4294967295, "scriptSig": {"hex": "", "asm": ""}, "vout": 1, "txid": "f1ece37b36ff41bb32584392eed46614c6c0b14033afccd21ca95393470e66bf"}], "txid": "063421e3037b04bcc57f9d934528bcc0e6f44da21994b8be5e8b6e86f6f95508", "blocktime": 1537874412, "version": 1, "confirmations": 11467, "time": 1537874412, "locktime": 0, "vsize": 144, "size": 225}