{"hash": "0634d25a5e950bef24bbe31841b63e1325bf8b49bf0d76819a051136ff9cb182", "blockhash": "0000000000000000001f76057863aec43deb6fa401d9628bb513d65a8098bfab", "vout": [{"scriptPubKey": {"reqSigs": 1, "hex": "76a91416921dbf180db955754bbd26bdef1d816d2521f488ac", "addresses": ["134LuYzg2v6iV3uV1Qwu2wE2vPyxATmQEj"], "asm": "OP_DUP OP_HASH160 16921dbf180db955754bbd26bdef1d816d2521f4 OP_EQUALVERIFY OP_CHECKSIG", "type": "pubkeyhash"}, "value": 0.2, "n": 0}, {"scriptPubKey": {"reqSigs": 1, "hex": "76a91433e22e6516a7632572388f40f07b26fd56a8cd7988ac", "addresses": ["15jLR8ajwqNPS3f6vk4EFb6ETMnUQgLnfR"], "asm": "OP_DUP OP_HASH160 33e22e6516a7632572388f40f07b26fd56a8cd79 OP_EQUALVERIFY OP_CHECKSIG", "type": "pubkeyhash"}, "value": 0.29998644, "n": 1}], "hex": "01000000013509adf5ef5e705a8c804f56a3b04bc1e739cd7cf7cb02550656aa063bded3a3000000006a47304402202cfa7f14126c8d769e16a938bfbed32f94a5f5334ae5df50b77589876cef804d022019db70020e04f3a00fa2c467981881760d686b1de8ace0b0290a492dfe4bd095012102fda5aa3bc56be1f4355a4250d8fd58bfa99e90959bf87ef8fb687aca0fa92dd1ffffffff02002d3101000000001976a91416921dbf180db955754bbd26bdef1d816d2521f488ac34bec901000000001976a91433e22e6516a7632572388f40f07b26fd56a8cd7988ac00000000", "vin": [{"sequence": 4294967295, "scriptSig": {"hex": "47304402202cfa7f14126c8d769e16a938bfbed32f94a5f5334ae5df50b77589876cef804d022019db70020e04f3a00fa2c467981881760d686b1de8ace0b0290a492dfe4bd095012102fda5aa3bc56be1f4355a4250d8fd58bfa99e90959bf87ef8fb687aca0fa92dd1", "asm": "304402202cfa7f14126c8d769e16a938bfbed32f94a5f5334ae5df50b77589876cef804d022019db70020e04f3a00fa2c467981881760d686b1de8ace0b0290a492dfe4bd095[ALL] 02fda5aa3bc56be1f4355a4250d8fd58bfa99e90959bf87ef8fb687aca0fa92dd1"}, "vout": 0, "txid": "a3d3de3b06aa56065502cbf77ccd39e7c14bb0a3564f808c5a705eeff5ad0935"}], "txid": "0634d25a5e950bef24bbe31841b63e1325bf8b49bf0d76819a051136ff9cb182", "blocktime": 1537873891, "version": 1, "confirmations": 11476, "time": 1537873891, "locktime": 0, "vsize": 225, "size": 225}