{"hash": "06351b38a6f060ddcb7ff32922072c816d03521243c48d9ac7225a621a6b12ef", "blockhash": "0000000000000000001cda96e906b7601b7a6fb1a3b62bca570a9e5d8f4b3de1", "vout": [{"scriptPubKey": {"reqSigs": 1, "hex": "76a914fb391d89482ac653270ce313cba16d4de6d44cef88ac", "addresses": ["1PuM2bXhN7QK2e3ireN3cN2nsTAUYsXBb8"], "asm": "OP_DUP OP_HASH160 fb391d89482ac653270ce313cba16d4de6d44cef OP_EQUALVERIFY OP_CHECKSIG", "type": "pubkeyhash"}, "value": 0.00014365, "n": 0}, {"scriptPubKey": {"reqSigs": 1, "hex": "a914b8ae7567e4d1e1e36722b1c272ef5456a92218ea87", "addresses": ["3JXXFSLntNeGjd5W454MFckQgKSEQUvNwJ"], "asm": "OP_HASH160 b8ae7567e4d1e1e36722b1c272ef5456a92218ea OP_EQUAL", "type": "scripthash"}, "value": 0.00218582, "n": 1}], "hex": "01000000018aff229cec6324e7688b819109b18c6e55962b0c8c8895bb583c4d6aed9e0c610d0000006a473044022079e4ac877ae027c033a523e415b752afb0a93df77b0803f72ddf6b5dff0ff32502202f7866859e5be5412729391cd5eaa3716b74ae90df5c11697718987661a5377b012103a1a97aa03dbe055c60723883f70d515bd60c28261fda02b60135504f2bbe29c0ffffffff021d380000000000001976a914fb391d89482ac653270ce313cba16d4de6d44cef88acd65503000000000017a914b8ae7567e4d1e1e36722b1c272ef5456a92218ea8700000000", "vin": [{"sequence": 4294967295, "scriptSig": {"hex": "473044022079e4ac877ae027c033a523e415b752afb0a93df77b0803f72ddf6b5dff0ff32502202f7866859e5be5412729391cd5eaa3716b74ae90df5c11697718987661a5377b012103a1a97aa03dbe055c60723883f70d515bd60c28261fda02b60135504f2bbe29c0", "asm": "3044022079e4ac877ae027c033a523e415b752afb0a93df77b0803f72ddf6b5dff0ff32502202f7866859e5be5412729391cd5eaa3716b74ae90df5c11697718987661a5377b[ALL] 03a1a97aa03dbe055c60723883f70d515bd60c28261fda02b60135504f2bbe29c0"}, "vout": 13, "txid": "610c9eed6a4d3c58bb95888c0c2b96556e8cb10991818b68e72463ec9c22ff8a"}], "txid": "06351b38a6f060ddcb7ff32922072c816d03521243c48d9ac7225a621a6b12ef", "blocktime": 1537873282, "version": 1, "confirmations": 11484, "time": 1537873282, "locktime": 0, "vsize": 223, "size": 223}