{"hash": "06368d9f4c05f06bfb04dd97f5a803bb50ed1f65284e1a13d72a2368d5ad43d5", "blockhash": "00000000000000000017f5eb5941039fbcee6240d03bc1f2f8e35350df66a1d8", "vout": [{"scriptPubKey": {"reqSigs": 1, "hex": "76a91475de1a36ba5a5307c785e77e46cfa097248b4a4588ac", "addresses": ["1BkE8PaYqc2T94E4DtJCQ7x9C4GtRsFPdU"], "asm": "OP_DUP OP_HASH160 75de1a36ba5a5307c785e77e46cfa097248b4a45 OP_EQUALVERIFY OP_CHECKSIG", "type": "pubkeyhash"}, "value": 0.002432, "n": 0}, {"scriptPubKey": {"reqSigs": 1, "hex": "76a9143619610a7fa71b7a79f3ccda780f93f7ef96194688ac", "addresses": ["15w3tjBcefP24z9zxsXWK9F3SAT5QdjW1H"], "asm": "OP_DUP OP_HASH160 3619610a7fa71b7a79f3ccda780f93f7ef961946 OP_EQUALVERIFY OP_CHECKSIG", "type": "pubkeyhash"}, "value": 0.015, "n": 1}], "hex": "01000000025030394b95a46928b907759939f4e55561c25624b297a019bfbd992ef2c7ca44000000006a47304402207e8dfb4f93653713dbf5bc3500b9fc2be1fab5f74083612118b51444227ef89102207d42ccb5c0b38951ebc4c79e119e6560f213d221c264a9ac91ef9e6001f91b4001210396d013e327b4a41dab064ad446e9a5adfa71f98ee1137ee66af16f17b6b5b138ffffffff3b26985ec5cb7ce783cad1b6258f7de3a46c79a10e19ee7380bd8d51c4815d66620000006a4730440220498b4ff9bd29ff01c2b20dd2ea1252df394c0ee520cc17ca5452e8a5fdf9a7f2022021f312d2ceeda1fcb5a95454208309606764fb9f49da92bdc850513f1be233730121027c92df60b2d5c6773b2e7078d5a0cda1e7eb6cf58a4e7ec1653aa1c622c0cfb1ffffffff0200b60300000000001976a91475de1a36ba5a5307c785e77e46cfa097248b4a4588ac60e31600000000001976a9143619610a7fa71b7a79f3ccda780f93f7ef96194688ac00000000", "vin": [{"sequence": 4294967295, "scriptSig": {"hex": "47304402207e8dfb4f93653713dbf5bc3500b9fc2be1fab5f74083612118b51444227ef89102207d42ccb5c0b38951ebc4c79e119e6560f213d221c264a9ac91ef9e6001f91b4001210396d013e327b4a41dab064ad446e9a5adfa71f98ee1137ee66af16f17b6b5b138", "asm": "304402207e8dfb4f93653713dbf5bc3500b9fc2be1fab5f74083612118b51444227ef89102207d42ccb5c0b38951ebc4c79e119e6560f213d221c264a9ac91ef9e6001f91b40[ALL] 0396d013e327b4a41dab064ad446e9a5adfa71f98ee1137ee66af16f17b6b5b138"}, "vout": 0, "txid": "44cac7f22e99bdbf19a097b22456c26155e5f439997507b92869a4954b393050"}, {"sequence": 4294967295, "scriptSig": {"hex": "4730440220498b4ff9bd29ff01c2b20dd2ea1252df394c0ee520cc17ca5452e8a5fdf9a7f2022021f312d2ceeda1fcb5a95454208309606764fb9f49da92bdc850513f1be233730121027c92df60b2d5c6773b2e7078d5a0cda1e7eb6cf58a4e7ec1653aa1c622c0cfb1", "asm": "30440220498b4ff9bd29ff01c2b20dd2ea1252df394c0ee520cc17ca5452e8a5fdf9a7f2022021f312d2ceeda1fcb5a95454208309606764fb9f49da92bdc850513f1be23373[ALL] 027c92df60b2d5c6773b2e7078d5a0cda1e7eb6cf58a4e7ec1653aa1c622c0cfb1"}, "vout": 98, "txid": "665d81c4518dbd8073ee190ea1796ca4e37d8f25b6d1ca83e77ccbc55e98263b"}], "txid": "06368d9f4c05f06bfb04dd97f5a803bb50ed1f65284e1a13d72a2368d5ad43d5", "blocktime": 1537874412, "version": 1, "confirmations": 11467, "time": 1537874412, "locktime": 0, "vsize": 372, "size": 372}