{"hash": "60460034306047b8919da481b79a35576477810319df660aa1e1a8cbaf88153a", "blockhash": "0000000000000000001cda96e906b7601b7a6fb1a3b62bca570a9e5d8f4b3de1", "vout": [{"scriptPubKey": {"reqSigs": 1, "hex": "a9143bb4a0e0627499c651e60acce1cb5cbeac9cbb4387", "addresses": ["378iB9LtAuspozSVSoh7JrAMcB5e8p7Kdh"], "asm": "OP_HASH160 3bb4a0e0627499c651e60acce1cb5cbeac9cbb43 OP_EQUAL", "type": "scripthash"}, "value": 0.11907977, "n": 0}, {"scriptPubKey": {"reqSigs": 1, "hex": "a9146482e5185be185078f6160458ca7c18be7316ecd87", "addresses": ["3ArUJTsTqLAyKjuNpzRsmJyEFWA3Te2hVo"], "asm": "OP_HASH160 6482e5185be185078f6160458ca7c18be7316ecd OP_EQUAL", "type": "scripthash"}, "value": 0.0005, "n": 1}], "hex": "01000000000101e73728b5a3284e8a8cc1a1df90c163321824d3c4e12f5e8b9c630feccf45b32801000000232200208ab73ed7b8d0fd8390e27b70a4fdfaa8cd41c977d8b914ed609850d2df74bab9ffffffff0289b3b5000000000017a9143bb4a0e0627499c651e60acce1cb5cbeac9cbb438750c300000000000017a9146482e5185be185078f6160458ca7c18be7316ecd870400483045022100b7d771a9b46ce1aba89b121c23837e2a66a0371bac002392dcf805876299987c022018e88b8fe51ccf4339104045db62a6fe0b852b2c1213c3395ba3092abc764b9501473044022004c17c372bc3c8ab5b54c45d79ae7c988928f3bc99597f36b6b127e85ecf118502202d5e1710802324a9d76f036f4595e3418b1a1be8d674d6a3e15ff00449f338050169522102d89f3f3c23283fe5e55df627b6d68ec2921a12d754f1920659ab9898ec4f251a2102f0a1fc2070902a2636462a2af9acfdb45f9edcffd97e436ade6247658d7065ed21020eef4aeb07dce6b3729523976bebd006818c7bd7cdba02431c821a7f739f0a7653ae00000000", "vin": [{"txinwitness": ["", "3045022100b7d771a9b46ce1aba89b121c23837e2a66a0371bac002392dcf805876299987c022018e88b8fe51ccf4339104045db62a6fe0b852b2c1213c3395ba3092abc764b9501", "3044022004c17c372bc3c8ab5b54c45d79ae7c988928f3bc99597f36b6b127e85ecf118502202d5e1710802324a9d76f036f4595e3418b1a1be8d674d6a3e15ff00449f3380501", "522102d89f3f3c23283fe5e55df627b6d68ec2921a12d754f1920659ab9898ec4f251a2102f0a1fc2070902a2636462a2af9acfdb45f9edcffd97e436ade6247658d7065ed21020eef4aeb07dce6b3729523976bebd006818c7bd7cdba02431c821a7f739f0a7653ae"], "sequence": 4294967295, "scriptSig": {"hex": "2200208ab73ed7b8d0fd8390e27b70a4fdfaa8cd41c977d8b914ed609850d2df74bab9", "asm": "00208ab73ed7b8d0fd8390e27b70a4fdfaa8cd41c977d8b914ed609850d2df74bab9"}, "vout": 1, "txid": "28b345cfec0f639c8b5e2fe1c4d324183263c190dfa1c18c8a4e28a3b52837e7"}], "txid": "063b84ea68fee5e94e6c949ac88f6591282bf0d98256430497831c096d74deaf", "blocktime": 1537873282, "version": 1, "confirmations": 11484, "time": 1537873282, "locktime": 0, "vsize": 214, "size": 405}