{"hash": "063d540a494f5988fc84db759f2cdff1a66b695d7dcc2f97e55bf522adae64c4", "blockhash": "0000000000000000001e0dab787dd257d1dbfcb92a98c2207d5e1078be1f4165", "vout": [{"scriptPubKey": {"reqSigs": 1, "hex": "a91457ddbf8d6383b4a6295d9f2dc3d98dfc987f667387", "addresses": ["39hcMa77mLhpn3AAp6bLYgwFTvkPvM4M3C"], "asm": "OP_HASH160 57ddbf8d6383b4a6295d9f2dc3d98dfc987f6673 OP_EQUAL", "type": "scripthash"}, "value": 0.00046839, "n": 0}], "hex": "0100000001e8ff5392eb9cf42a1568cf901f2e4cafcb457ef1fdcaf2a29e7d3a73183fe204000000006a47304402203d8b02ce31543aec5db35d45854e56a579b34f02907867e9fcce477b64ca06db022020f559e91b1cad6f73c759fcfc64cea80e06fa18b5f12b0ebd34d44838c9604501210366f901a9ad8783af097ae1e66835e2228d6c7a5eca41914c35e825c56f6118ecffffffff01f7b600000000000017a91457ddbf8d6383b4a6295d9f2dc3d98dfc987f66738700000000", "vin": [{"sequence": 4294967295, "scriptSig": {"hex": "47304402203d8b02ce31543aec5db35d45854e56a579b34f02907867e9fcce477b64ca06db022020f559e91b1cad6f73c759fcfc64cea80e06fa18b5f12b0ebd34d44838c9604501210366f901a9ad8783af097ae1e66835e2228d6c7a5eca41914c35e825c56f6118ec", "asm": "304402203d8b02ce31543aec5db35d45854e56a579b34f02907867e9fcce477b64ca06db022020f559e91b1cad6f73c759fcfc64cea80e06fa18b5f12b0ebd34d44838c96045[ALL] 0366f901a9ad8783af097ae1e66835e2228d6c7a5eca41914c35e825c56f6118ec"}, "vout": 0, "txid": "04e23f18733a7d9ea2f2cafdf17e45cbaf4c2e1f90cf68152af49ceb9253ffe8"}], "txid": "063d540a494f5988fc84db759f2cdff1a66b695d7dcc2f97e55bf522adae64c4", "blocktime": 1537872475, "version": 1, "confirmations": 11486, "time": 1537872475, "locktime": 0, "vsize": 189, "size": 189}