{"hash": "063d61492d1a3996b47e404cedd49debc78d3192104c96a159a399a38255d12d", "blockhash": "00000000000000000024a2167bbff67b0be802c0b01cdd79e6331c2be6459f87", "vout": [{"scriptPubKey": {"reqSigs": 1, "hex": "76a9145bfff39a9cfb460f4ffb1047ef0ba277101d54f988ac", "addresses": ["19PT7HUJBmKVxo7uH6deDQioYML5ECXXhk"], "asm": "OP_DUP OP_HASH160 5bfff39a9cfb460f4ffb1047ef0ba277101d54f9 OP_EQUALVERIFY OP_CHECKSIG", "type": "pubkeyhash"}, "value": 0.09027473, "n": 0}], "hex": "0100000001884dc85d0b64770e8a3f29318074b4473fd338afd0cef5905b0472c499a65694000000006a473044022024b9afd39ff78fe4121400c14356b2f4e9932eadb1b5c17ca236a844441561dd02207d4435ca70bb32baba46f9ee1885f7f5b2487d6493d9e28f5f36851438a6d552012103045b41d97b2a145951f34ee18ee4ab1e0a150d69c3f166b7c5efc4136598502effffffff0191bf8900000000001976a9145bfff39a9cfb460f4ffb1047ef0ba277101d54f988ac00000000", "vin": [{"sequence": 4294967295, "scriptSig": {"hex": "473044022024b9afd39ff78fe4121400c14356b2f4e9932eadb1b5c17ca236a844441561dd02207d4435ca70bb32baba46f9ee1885f7f5b2487d6493d9e28f5f36851438a6d552012103045b41d97b2a145951f34ee18ee4ab1e0a150d69c3f166b7c5efc4136598502e", "asm": "3044022024b9afd39ff78fe4121400c14356b2f4e9932eadb1b5c17ca236a844441561dd02207d4435ca70bb32baba46f9ee1885f7f5b2487d6493d9e28f5f36851438a6d552[ALL] 03045b41d97b2a145951f34ee18ee4ab1e0a150d69c3f166b7c5efc4136598502e"}, "vout": 0, "txid": "9456a699c472045b90f5ced0af38d33f47b4748031293f8a0e77640b5dc84d88"}], "txid": "063d61492d1a3996b47e404cedd49debc78d3192104c96a159a399a38255d12d", "blocktime": 1537870564, "version": 1, "confirmations": 11515, "time": 1537870564, "locktime": 0, "vsize": 191, "size": 191}