{"hash": "0643c49d72cc70136d6f422eed54cbd61e570e336d242a27ed5d9c903e30d148", "blockhash": "0000000000000000000dcc0f55137456b1a82d3642486a52398922ac4d620174", "vout": [{"scriptPubKey": {"reqSigs": 1, "hex": "a9145205a06ccdba00fdaf571d9606d0d781c9a5f9f787", "addresses": ["39Ai5DmsqtjPSdXcebHEShN65gYbgTpK7q"], "asm": "OP_HASH160 5205a06ccdba00fdaf571d9606d0d781c9a5f9f7 OP_EQUAL", "type": "scripthash"}, "value": 0.1, "n": 0}, {"scriptPubKey": {"reqSigs": 1, "hex": "76a9144a9e03c330f6a9417c6497d5eadfe40ac0fb93e788ac", "addresses": ["17oYJFSvBxLFQpzHdTGwYRKBe4EXsyZ5aM"], "asm": "OP_DUP OP_HASH160 4a9e03c330f6a9417c6497d5eadfe40ac0fb93e7 OP_EQUALVERIFY OP_CHECKSIG", "type": "pubkeyhash"}, "value": 0.00030716, "n": 1}], "hex": "010000000315c52b13d6d20ab3ebbfa22ec4fecb7bff0e1aa1a6ae07e69d9f0fe72f339ae8490100006b483045022100bd262c0f27b6f2f9752b9216ede74498cacf978734b9985b902d6022ad5abf0502202a9255ce84197989059b1457ea4bfd73dad5441304c2e79b81cb9ebb02d18d2e012103abf4c3c7f9357cf8f25fdc70ac932963854977897fcb2ee8ef1f9432a391c38dffffffff24c33c80d77b3a4243504d457891aec10a07c90aa6383d889e5f6f8135efafbe6c0100006a473044022070e984d475e55abd5a6600e4ef26e1e991880002d7a7550ff0df3d0cbe027a650220267bb6b0e617ad145411a2eece7c3d239df3c25cd6d0df1140bb51aea5184dec012103abf4c3c7f9357cf8f25fdc70ac932963854977897fcb2ee8ef1f9432a391c38dffffffffc2566ec21d4ef9980540f980a7dfa42468f04e0208438678f99d70b20cdb7454700e00006b483045022100ba72f79e895ad0452a9c3308e36ee43c4f34bd39283f689dd2baf9fe6a4253d5022043d5fab799a0bbc821e880529bb17e2a5d2c1da99b74cd01e91d88e8ced7700a012103abf4c3c7f9357cf8f25fdc70ac932963854977897fcb2ee8ef1f9432a391c38dffffffff02809698000000000017a9145205a06ccdba00fdaf571d9606d0d781c9a5f9f787fc770000000000001976a9144a9e03c330f6a9417c6497d5eadfe40ac0fb93e788ac00000000", "vin": [{"sequence": 4294967295, "scriptSig": {"hex": "483045022100bd262c0f27b6f2f9752b9216ede74498cacf978734b9985b902d6022ad5abf0502202a9255ce84197989059b1457ea4bfd73dad5441304c2e79b81cb9ebb02d18d2e012103abf4c3c7f9357cf8f25fdc70ac932963854977897fcb2ee8ef1f9432a391c38d", "asm": "3045022100bd262c0f27b6f2f9752b9216ede74498cacf978734b9985b902d6022ad5abf0502202a9255ce84197989059b1457ea4bfd73dad5441304c2e79b81cb9ebb02d18d2e[ALL] 03abf4c3c7f9357cf8f25fdc70ac932963854977897fcb2ee8ef1f9432a391c38d"}, "vout": 329, "txid": "e89a332fe70f9f9de607aea6a11a0eff7bcbfec42ea2bfebb30ad2d6132bc515"}, {"sequence": 4294967295, "scriptSig": {"hex": "473044022070e984d475e55abd5a6600e4ef26e1e991880002d7a7550ff0df3d0cbe027a650220267bb6b0e617ad145411a2eece7c3d239df3c25cd6d0df1140bb51aea5184dec012103abf4c3c7f9357cf8f25fdc70ac932963854977897fcb2ee8ef1f9432a391c38d", "asm": "3044022070e984d475e55abd5a6600e4ef26e1e991880002d7a7550ff0df3d0cbe027a650220267bb6b0e617ad145411a2eece7c3d239df3c25cd6d0df1140bb51aea5184dec[ALL] 03abf4c3c7f9357cf8f25fdc70ac932963854977897fcb2ee8ef1f9432a391c38d"}, "vout": 364, "txid": "beafef35816f5f9e883d38a60ac9070ac1ae9178454d5043423a7bd7803cc324"}, {"sequence": 4294967295, "scriptSig": {"hex": "483045022100ba72f79e895ad0452a9c3308e36ee43c4f34bd39283f689dd2baf9fe6a4253d5022043d5fab799a0bbc821e880529bb17e2a5d2c1da99b74cd01e91d88e8ced7700a012103abf4c3c7f9357cf8f25fdc70ac932963854977897fcb2ee8ef1f9432a391c38d", "asm": "3045022100ba72f79e895ad0452a9c3308e36ee43c4f34bd39283f689dd2baf9fe6a4253d5022043d5fab799a0bbc821e880529bb17e2a5d2c1da99b74cd01e91d88e8ced7700a[ALL] 03abf4c3c7f9357cf8f25fdc70ac932963854977897fcb2ee8ef1f9432a391c38d"}, "vout": 3696, "txid": "5474db0cb2709df978864308024ef06824a4dfa780f9400598f94e1dc26e56c2"}], "txid": "0643c49d72cc70136d6f422eed54cbd61e570e336d242a27ed5d9c903e30d148", "blocktime": 1537870268, "version": 1, "confirmations": 11516, "time": 1537870268, "locktime": 0, "vsize": 519, "size": 519}