{"hash": "0100328c0f6fd1b0b2dfb5a88513cc3937a479c7cb631c35b53c42312faa86e8", "blockhash": "00000000000000000018f53835495a110e01622372bf6ae95dc86f2b0ab887b0", "vout": [{"scriptPubKey": {"reqSigs": 1, "hex": "a914a4584e1990ec509954ba4ee646397edd401decf087", "addresses": ["3GfzXYkjCneau8tGYrFijxzBJBHrVLiFMX"], "asm": "OP_HASH160 a4584e1990ec509954ba4ee646397edd401decf0 OP_EQUAL", "type": "scripthash"}, "value": 0.00268138, "n": 0}, {"scriptPubKey": {"reqSigs": 1, "hex": "a9140be7846be16b05bea00dbec2fcd7e045a793cb1787", "addresses": ["32mxhko5mJHfkbkDPpz7SfdJwEJi21P1WK"], "asm": "OP_HASH160 0be7846be16b05bea00dbec2fcd7e045a793cb17 OP_EQUAL", "type": "scripthash"}, "value": 0.19833849, "n": 1}], "hex": "01000000000101341d25cedbe0505f362e6fbb6d2fe0cc9ef943c092627470102b9787e1225e7a01000000232200202c66ece6da72bcbfeadf83a91236f4891c13e14d8ecebdcaa81666fc1aa73a31ffffffff026a1704000000000017a914a4584e1990ec509954ba4ee646397edd401decf087f9a32e010000000017a9140be7846be16b05bea00dbec2fcd7e045a793cb178704004730440220080b94b2c78f8d5d174ffb96b6cb6afca1ea971fca7c6ffebb0f58e07b85135302206317d12d8d64681da258dffa93cc03f59e3e9ea48fe273c4b621eae0bf3fe8a201483045022100b341e086954073bf49a0643ece5233a39c54c410a0127899d9530102ce99d1cc02202440f33ca7b646db0e1053f8549e0d3609854fc0b0b196fdb48dc71ca28a887b01475221029e6fbb942d34a473faaa5557c1bfe08d72102f0b9754ad140fd369d7a3ba3cdc2103871fc2ca08e6950b38867e8e6a0e94ee625223d3aa0df5c65f414c6d784467e252ae00000000", "vin": [{"txinwitness": ["", "30440220080b94b2c78f8d5d174ffb96b6cb6afca1ea971fca7c6ffebb0f58e07b85135302206317d12d8d64681da258dffa93cc03f59e3e9ea48fe273c4b621eae0bf3fe8a201", "3045022100b341e086954073bf49a0643ece5233a39c54c410a0127899d9530102ce99d1cc02202440f33ca7b646db0e1053f8549e0d3609854fc0b0b196fdb48dc71ca28a887b01", "5221029e6fbb942d34a473faaa5557c1bfe08d72102f0b9754ad140fd369d7a3ba3cdc2103871fc2ca08e6950b38867e8e6a0e94ee625223d3aa0df5c65f414c6d784467e252ae"], "sequence": 4294967295, "scriptSig": {"hex": "2200202c66ece6da72bcbfeadf83a91236f4891c13e14d8ecebdcaa81666fc1aa73a31", "asm": "00202c66ece6da72bcbfeadf83a91236f4891c13e14d8ecebdcaa81666fc1aa73a31"}, "vout": 1, "txid": "7a5e22e187972b1070746292c043f99ecce02f6dbb6f2e365f50e0dbce251d34"}], "txid": "0646f55722ad99e29d39cd729ede98ec98d75dde262956cc1b3f852ba91f3257", "blocktime": 1537870928, "version": 1, "confirmations": 11514, "time": 1537870928, "locktime": 0, "vsize": 206, "size": 371}