{"hash": "064e46c9a262649bf16fe9864b6836f9447fa97a78f9c7a59cd24a3030b28481", "blockhash": "00000000000000000018f53835495a110e01622372bf6ae95dc86f2b0ab887b0", "vout": [{"scriptPubKey": {"reqSigs": 1, "hex": "a91469f3752691ca92f5cc92c9dc08a5fbcfec979ee787", "addresses": ["3BMEXRC9LvXNMGG3AEDYznZ2mjTTffa3gC"], "asm": "OP_HASH160 69f3752691ca92f5cc92c9dc08a5fbcfec979ee7 OP_EQUAL", "type": "scripthash"}, "value": 0.01038454, "n": 0}, {"scriptPubKey": {"reqSigs": 1, "hex": "76a914f7ba90818d2ea250f26dde191fd9c3911f86cdd388ac", "addresses": ["1PasQ7LPsEtzaqP72v7cnC71NKySqQcHX9"], "asm": "OP_DUP OP_HASH160 f7ba90818d2ea250f26dde191fd9c3911f86cdd3 OP_EQUALVERIFY OP_CHECKSIG", "type": "pubkeyhash"}, "value": 0.01305231, "n": 1}, {"scriptPubKey": {"reqSigs": 1, "hex": "76a914dc6c915f78211ebeb39e0b79a07dcac681af229688ac", "addresses": ["1M6VidYWxHrDoinkhPo6M9hpX2cY2vCAbu"], "asm": "OP_DUP OP_HASH160 dc6c915f78211ebeb39e0b79a07dcac681af2296 OP_EQUALVERIFY OP_CHECKSIG", "type": "pubkeyhash"}, "value": 13.69691818, "n": 2}, {"scriptPubKey": {"reqSigs": 1, "hex": "76a91414dfbd079556281a55a490e0d3a46b663569cf7488ac", "addresses": ["12uNYTGmPJ9nZLusPUnVfJkVW5i96B4QAJ"], "asm": "OP_DUP OP_HASH160 14dfbd079556281a55a490e0d3a46b663569cf74 OP_EQUALVERIFY OP_CHECKSIG", "type": "pubkeyhash"}, "value": 0.0733974, "n": 3}, {"scriptPubKey": {"reqSigs": 1, "hex": "76a91408e800e702604e8b65d8a2b59e4e030c4d0ec22788ac", "addresses": ["1p6LRV8cWWi6Y1bsvs9pZqWuwZt8ZVYKX"], "asm": "OP_DUP OP_HASH160 08e800e702604e8b65d8a2b59e4e030c4d0ec227 OP_EQUALVERIFY OP_CHECKSIG", "type": "pubkeyhash"}, "value": 0.18955027, "n": 4}, {"scriptPubKey": {"reqSigs": 1, "hex": "a9142f82b97c5d562b0a6a605d502d568bfc4f468a1a87", "addresses": ["362EHTh8iNuiffuuFLiFLhjpjgxtRdAHke"], "asm": "OP_HASH160 2f82b97c5d562b0a6a605d502d568bfc4f468a1a OP_EQUAL", "type": "scripthash"}, "value": 0.558, "n": 5}], "hex": "02000000017247eb950861156cebde7ff734256af889d6734231f92698dd324513c8628f9e030000006b483045022100efca4eb6e409507696236160c0ee2ab62d2db1e59b1bf5383046e680ec91a6a7022056e60ea6ef74d40ed657578fea9e1903c34d544f3826112db4071ab853bb8f4b012103aea1889245983b3b5a015552830100998272c09d669310c33796cda3080ea1dafeffffff0676d80f000000000017a91469f3752691ca92f5cc92c9dc08a5fbcfec979ee7878fea1300000000001976a914f7ba90818d2ea250f26dde191fd9c3911f86cdd388acaad6a351000000001976a914dc6c915f78211ebeb39e0b79a07dcac681af229688acdcfe6f00000000001976a91414dfbd079556281a55a490e0d3a46b663569cf7488ac133b2101000000001976a91408e800e702604e8b65d8a2b59e4e030c4d0ec22788acc07053030000000017a9142f82b97c5d562b0a6a605d502d568bfc4f468a1a870e490800", "vin": [{"sequence": 4294967294, "scriptSig": {"hex": "483045022100efca4eb6e409507696236160c0ee2ab62d2db1e59b1bf5383046e680ec91a6a7022056e60ea6ef74d40ed657578fea9e1903c34d544f3826112db4071ab853bb8f4b012103aea1889245983b3b5a015552830100998272c09d669310c33796cda3080ea1da", "asm": "3045022100efca4eb6e409507696236160c0ee2ab62d2db1e59b1bf5383046e680ec91a6a7022056e60ea6ef74d40ed657578fea9e1903c34d544f3826112db4071ab853bb8f4b[ALL] 03aea1889245983b3b5a015552830100998272c09d669310c33796cda3080ea1da"}, "vout": 3, "txid": "9e8f62c8134532dd9826f9314273d689f86a2534f77fdeeb6c15610895eb4772"}], "txid": "064e46c9a262649bf16fe9864b6836f9447fa97a78f9c7a59cd24a3030b28481", "blocktime": 1537870928, "version": 2, "confirmations": 11512, "time": 1537870928, "locktime": 542990, "vsize": 358, "size": 358}