{"hash": "cef1b0ab78b085686f0d1ddfde022f588979e8b472ba98e292afd0e93db87a5d", "blockhash": "0000000000000000000baef3f32e3676a92c3b2e5da21b426e4f302fc371ce76", "vout": [{"scriptPubKey": {"reqSigs": 1, "hex": "a914e142245fc921e2fc47727f1af67c74f832511f3387", "addresses": ["3NE5CLaRtcdz37sYacPmPmHAVEvJwyraK6"], "asm": "OP_HASH160 e142245fc921e2fc47727f1af67c74f832511f33 OP_EQUAL", "type": "scripthash"}, "value": 1.0, "n": 0}, {"scriptPubKey": {"reqSigs": 1, "hex": "a9144bee2aa7e449ad72bbb12640b6c9945fb4ad918887", "addresses": ["38cVv3AmAXrDHGxr5fkquz3iY7SXyVC3r2"], "asm": "OP_HASH160 4bee2aa7e449ad72bbb12640b6c9945fb4ad9188 OP_EQUAL", "type": "scripthash"}, "value": 0.1699878, "n": 1}], "hex": "0100000000010133fe25a0cd42b09a931b6a3e807455f72268fd479bd9eccdf2a810786cf8032e0100000017160014f5317d573a8db000c8f349c90dada7103d8ec443ffffff000200e1f5050000000017a914e142245fc921e2fc47727f1af67c74f832511f33877c6103010000000017a9144bee2aa7e449ad72bbb12640b6c9945fb4ad91888702473044022011879a6724cf0ee9e100510b84ebb87ae34fb95529d8cd3d6379477c0c5fa36402202b65f44739c7490182ed1311516401f19c57e8657d2645f9cf6097b0caea65850121020b9b228442b997a828572ffc9a1ac931c5307db5dd178b01e889157ccdd3d22600000000", "vin": [{"txinwitness": ["3044022011879a6724cf0ee9e100510b84ebb87ae34fb95529d8cd3d6379477c0c5fa36402202b65f44739c7490182ed1311516401f19c57e8657d2645f9cf6097b0caea658501", "020b9b228442b997a828572ffc9a1ac931c5307db5dd178b01e889157ccdd3d226"], "sequence": 16777215, "scriptSig": {"hex": "160014f5317d573a8db000c8f349c90dada7103d8ec443", "asm": "0014f5317d573a8db000c8f349c90dada7103d8ec443"}, "vout": 1, "txid": "2e03f86c7810a8f2cdecd99b47fd6822f75574803e6a1b939ab042cda025fe33"}], "txid": "064fe482197b60645f594598a5b1c1d0c7c5da82b4c30f10174848e10964dd6d", "blocktime": 1537876114, "version": 1, "confirmations": 11460, "time": 1537876114, "locktime": 0, "vsize": 166, "size": 247}