{"hash": "065dea3b0c301e992190cadca75e27f0e0c278d4167aeb9b53e1540c20023492", "blockhash": "0000000000000000001e0dab787dd257d1dbfcb92a98c2207d5e1078be1f4165", "vout": [{"scriptPubKey": {"reqSigs": 1, "hex": "a9140c38e0f4817b1d103c2591f40d9d5f727649b01d87", "addresses": ["32oeArD39H6EQGmGZi5CtnM6knztT3tpCh"], "asm": "OP_HASH160 0c38e0f4817b1d103c2591f40d9d5f727649b01d OP_EQUAL", "type": "scripthash"}, "value": 0.00636495, "n": 0}, {"scriptPubKey": {"reqSigs": 1, "hex": "76a9143482c33dffe45c05de901d39e3b16a7ba74ebcf088ac", "addresses": ["15nenXR81wCJAS6D99tmSZwLwK7vDjez3m"], "asm": "OP_DUP OP_HASH160 3482c33dffe45c05de901d39e3b16a7ba74ebcf0 OP_EQUALVERIFY OP_CHECKSIG", "type": "pubkeyhash"}, "value": 0.00818038, "n": 1}], "hex": "010000000131828c18c9feaaf63a4961ff9933bcc04be65212ff160885f6bcdf1c280bfe29010000006b483045022100fadd459616dbbf15c87cf0e0602b7c551192795078618f035a3ad6bf78ca05b002207a1ed5eeafd183f2415df700c2828af85cf66ccdb170c415ea9467a282e3cd03012103bf74ece6e4c126109fa455b8ef869679d5eb764788f9aa3a31df3b42c905e667ffffffff024fb609000000000017a9140c38e0f4817b1d103c2591f40d9d5f727649b01d87767b0c00000000001976a9143482c33dffe45c05de901d39e3b16a7ba74ebcf088ac00000000", "vin": [{"sequence": 4294967295, "scriptSig": {"hex": "483045022100fadd459616dbbf15c87cf0e0602b7c551192795078618f035a3ad6bf78ca05b002207a1ed5eeafd183f2415df700c2828af85cf66ccdb170c415ea9467a282e3cd03012103bf74ece6e4c126109fa455b8ef869679d5eb764788f9aa3a31df3b42c905e667", "asm": "3045022100fadd459616dbbf15c87cf0e0602b7c551192795078618f035a3ad6bf78ca05b002207a1ed5eeafd183f2415df700c2828af85cf66ccdb170c415ea9467a282e3cd03[ALL] 03bf74ece6e4c126109fa455b8ef869679d5eb764788f9aa3a31df3b42c905e667"}, "vout": 1, "txid": "29fe0b281cdfbcf6850816ff1252e64bc0bc3399ff61493af6aafec9188c8231"}], "txid": "065dea3b0c301e992190cadca75e27f0e0c278d4167aeb9b53e1540c20023492", "blocktime": 1537872475, "version": 1, "confirmations": 11487, "time": 1537872475, "locktime": 0, "vsize": 224, "size": 224}