{"hash": "298ddb3d477ff4bd07046bb1c2def8b84ae73f7b35757ac9d562fe0891679578", "blockhash": "0000000000000000001f0ddff1eddb255c1121bcd4da4f1bc9a0da00cae72433", "vout": [{"scriptPubKey": {"reqSigs": 1, "hex": "a91473526abcaa73f1ff18ac04349af2d42865816ed987", "addresses": ["3CCnN2uhuRk8S65csPYtwAZf56F2Zzgkd4"], "asm": "OP_HASH160 73526abcaa73f1ff18ac04349af2d42865816ed9 OP_EQUAL", "type": "scripthash"}, "value": 0.0099, "n": 0}], "hex": "0200000000010199c90ec9ee81ebb8a8d2df5aecb6001a73dffa07d2febbed0dc149383989860800000000171600141aca046706509d9e360228b7dbf0af6d0df31f82ffffffff01301b0f000000000017a91473526abcaa73f1ff18ac04349af2d42865816ed9870247304402206b3cc8994af7a4a86f04f5fe67dc6bc65c8d4b68c4c4071a854bcf3714b6cb5802201ce1d9b9bfd6c1139aa9aeb999dba5073aa04d94ec1129648d34f0441ce9eec90121022e395f987a6781c7473985bd2724b3f771caa1fbbd67dc8c926d50c0c814daed00000000", "vin": [{"txinwitness": ["304402206b3cc8994af7a4a86f04f5fe67dc6bc65c8d4b68c4c4071a854bcf3714b6cb5802201ce1d9b9bfd6c1139aa9aeb999dba5073aa04d94ec1129648d34f0441ce9eec901", "022e395f987a6781c7473985bd2724b3f771caa1fbbd67dc8c926d50c0c814daed"], "sequence": 4294967295, "scriptSig": {"hex": "1600141aca046706509d9e360228b7dbf0af6d0df31f82", "asm": "00141aca046706509d9e360228b7dbf0af6d0df31f82"}, "vout": 0, "txid": "088689393849c10dedbbfed207fadf731a00b6ec5adfd2a8b8eb81eec90ec999"}], "txid": "06608c56f291fcea83d9a540bcfc6343c4747711e825c226ce5e24166a171ab4", "blocktime": 1537872018, "version": 2, "confirmations": 11489, "time": 1537872018, "locktime": 0, "vsize": 134, "size": 215}