{"hash": "066019186a7750229d774dfe71ffe9fa2dc2023067ff0cef7108bba44e08f4eb", "blockhash": "000000000000000000022b45ed06c6f4ccd3cf7fb5ba4856ebd2e58215665228", "vout": [{"scriptPubKey": {"reqSigs": 1, "hex": "76a914edf98396d7823298ba58d513c48ee7199d0afee488ac", "addresses": ["1NhJ417KNFuWLn2iN4yGbEL3TfAxgv9WXr"], "asm": "OP_DUP OP_HASH160 edf98396d7823298ba58d513c48ee7199d0afee4 OP_EQUALVERIFY OP_CHECKSIG", "type": "pubkeyhash"}, "value": 0.00649746, "n": 0}, {"scriptPubKey": {"type": "nulldata", "hex": "6a4c50000077610001e2f35f86aeaeacb577c031fc3a016b46dc7dc7d0968d120d670c1906f9996f39d7f2eff59bc5d22535e3fd75cc3b5baa07b20612424af0420d811d100759d4ba30d2c37bb011d97e02cf", "asm": "OP_RETURN 000077610001e2f35f86aeaeacb577c031fc3a016b46dc7dc7d0968d120d670c1906f9996f39d7f2eff59bc5d22535e3fd75cc3b5baa07b20612424af0420d811d100759d4ba30d2c37bb011d97e02cf"}, "value": 0.0, "n": 1}], "hex": "0100000001c9a1651aa12dad6c7555ee9ef68f7328772f29fd5da975882bd854bd47a74139010000006b483045022100cea2be2333436c3f228c54f5e0d5d8e5af2185b8b9a77441ad6818798f9be8c102203a065b48298e06c501500f351b2dfccf04863ffe090348103ea8d3f086911cb3012103d260bd1665a995a4864e5ef7c61b4925517847a0668495771d8fbed0f836c0b4ffffffff0212ea0900000000001976a914edf98396d7823298ba58d513c48ee7199d0afee488ac0000000000000000536a4c50000077610001e2f35f86aeaeacb577c031fc3a016b46dc7dc7d0968d120d670c1906f9996f39d7f2eff59bc5d22535e3fd75cc3b5baa07b20612424af0420d811d100759d4ba30d2c37bb011d97e02cf00000000", "vin": [{"sequence": 4294967295, "scriptSig": {"hex": "483045022100cea2be2333436c3f228c54f5e0d5d8e5af2185b8b9a77441ad6818798f9be8c102203a065b48298e06c501500f351b2dfccf04863ffe090348103ea8d3f086911cb3012103d260bd1665a995a4864e5ef7c61b4925517847a0668495771d8fbed0f836c0b4", "asm": "3045022100cea2be2333436c3f228c54f5e0d5d8e5af2185b8b9a77441ad6818798f9be8c102203a065b48298e06c501500f351b2dfccf04863ffe090348103ea8d3f086911cb3[ALL] 03d260bd1665a995a4864e5ef7c61b4925517847a0668495771d8fbed0f836c0b4"}, "vout": 1, "txid": "3941a747bd54d82b8875a95dfd292f7728738ff69eee55756cad2da11a65a1c9"}], "txid": "066019186a7750229d774dfe71ffe9fa2dc2023067ff0cef7108bba44e08f4eb", "blocktime": 1537869901, "version": 1, "confirmations": 11523, "time": 1537869901, "locktime": 0, "vsize": 284, "size": 284}