{"hash": "0666f0db82a911b21ccc49ccbfe9b90a0e5db64c05f52b5d2ad6042bee6e9476", "blockhash": "000000000000000000022b45ed06c6f4ccd3cf7fb5ba4856ebd2e58215665228", "vout": [{"scriptPubKey": {"reqSigs": 1, "hex": "a9141214bb59ea72ea728dcca7d56bd2e1a50e44dc5387", "addresses": ["33LcvUEB8xaaAuK5sGkrLRJxwiRmU982dn"], "asm": "OP_HASH160 1214bb59ea72ea728dcca7d56bd2e1a50e44dc53 OP_EQUAL", "type": "scripthash"}, "value": 0.00205, "n": 0}], "hex": "0100000002bb8f22404049caed9404bca4f57695622f9c43f025d4ad320d88f41e35e82927000000006a4730440220266e738a4b4d6cfcf7d5a1a233b49ee53dc60732fdeb6645148256ab8b83a29e02202e16b8c56d69fd5364edee0fb6c2d1cfe6abb4c5f3891dd17b539370f4c7e37801210392ddccb453e4a68ba0818002a9004dd98f4e2bac0cfa057415d574bbb76b61aeffffffff13a7a47adf08e3ea5815bbbd76be7d9823aa4dbfd90f413a26f86fece2507c2f000000006a473044022065c6e28be258d5785b6df191ab52653cace6e3bf611906ad635173cd620ab388022009e968aeb5b2be579841d1c02b6e364718fe5f5b5aeb6600ce894f3fd6575d350121034b8e446a248efff4c2a54049e7a22f83d0ebc8f7ce77cde6ece19c9e9ffb43d3ffffffff01c82003000000000017a9141214bb59ea72ea728dcca7d56bd2e1a50e44dc538700000000", "vin": [{"sequence": 4294967295, "scriptSig": {"hex": "4730440220266e738a4b4d6cfcf7d5a1a233b49ee53dc60732fdeb6645148256ab8b83a29e02202e16b8c56d69fd5364edee0fb6c2d1cfe6abb4c5f3891dd17b539370f4c7e37801210392ddccb453e4a68ba0818002a9004dd98f4e2bac0cfa057415d574bbb76b61ae", "asm": "30440220266e738a4b4d6cfcf7d5a1a233b49ee53dc60732fdeb6645148256ab8b83a29e02202e16b8c56d69fd5364edee0fb6c2d1cfe6abb4c5f3891dd17b539370f4c7e378[ALL] 0392ddccb453e4a68ba0818002a9004dd98f4e2bac0cfa057415d574bbb76b61ae"}, "vout": 0, "txid": "2729e8351ef4880d32add425f0439c2f629576f5a4bc0494edca494040228fbb"}, {"sequence": 4294967295, "scriptSig": {"hex": "473044022065c6e28be258d5785b6df191ab52653cace6e3bf611906ad635173cd620ab388022009e968aeb5b2be579841d1c02b6e364718fe5f5b5aeb6600ce894f3fd6575d350121034b8e446a248efff4c2a54049e7a22f83d0ebc8f7ce77cde6ece19c9e9ffb43d3", "asm": "3044022065c6e28be258d5785b6df191ab52653cace6e3bf611906ad635173cd620ab388022009e968aeb5b2be579841d1c02b6e364718fe5f5b5aeb6600ce894f3fd6575d35[ALL] 034b8e446a248efff4c2a54049e7a22f83d0ebc8f7ce77cde6ece19c9e9ffb43d3"}, "vout": 0, "txid": "2f7c50e2ec6ff8263a410fd9bf4daa23987dbe76bdbb1558eae308df7aa4a713"}], "txid": "0666f0db82a911b21ccc49ccbfe9b90a0e5db64c05f52b5d2ad6042bee6e9476", "blocktime": 1537869901, "version": 1, "confirmations": 11522, "time": 1537869901, "locktime": 0, "vsize": 336, "size": 336}