{"hash": "06677a3ac499b0fe3132581b73952137cfc6872f12c8260fc5f7a4b2b35e2063", "blockhash": "00000000000000000018f53835495a110e01622372bf6ae95dc86f2b0ab887b0", "vout": [{"scriptPubKey": {"reqSigs": 1, "hex": "76a9147716ffddd45d5803022c864dd55cf02f3183300788ac", "addresses": ["1Brgxrrivke39ESF7oADRkCRgJTABUcedt"], "asm": "OP_DUP OP_HASH160 7716ffddd45d5803022c864dd55cf02f31833007 OP_EQUALVERIFY OP_CHECKSIG", "type": "pubkeyhash"}, "value": 0.011575, "n": 0}, {"scriptPubKey": {"reqSigs": 1, "hex": "76a9143c2e4207fb14d86dc0eb015bf81ff94aed3684e388ac", "addresses": ["16VCxZutKivp4KHSToBhGS7nYT34Njw7Li"], "asm": "OP_DUP OP_HASH160 3c2e4207fb14d86dc0eb015bf81ff94aed3684e3 OP_EQUALVERIFY OP_CHECKSIG", "type": "pubkeyhash"}, "value": 0.0108498, "n": 1}], "hex": "02000000030e245193148239fae2a639546f6d311b59e6931fdf72ecc58e6d1869e6f5da1c010000006a4730440220129acd21c083edb1820704e77da25362491815149136355f3c126b8e09de8a7702205c6b2042f3fc33b27ead5d859409613582bc3e4f231f50b46cabcd22e5f1e0a7012103d3f02e99289618ef3a16330d3ea2543056ed7144f8f2ba3287620f761065450afeffffff5fac39f75d58594b9ffc98c2eb4d88dbeec4f507f192d646f80df4b53e62cb9d0c0000006a47304402207edaa817e43e17ae719a34250f80c5bc016b0a54a73c2c373a0a400dfad253d30220722c9c4e596beef0c1dde285109a188f080dad96b3676a87df10ee82aaf5921601210343aaed67b9d5da97112aadae0ac77a968e39c2893c1459b5b98ffb464b30b1eafeffffffd4d755952feb7086276c4cebdd0feaa4723368437573e2d4ca6b8f1bb0bc45b0000000006b483045022100d3adca4c015e6fd5f031f99328fbacb5c9e2e00885f5f94540ddb67adb205b0c022026ce600112aaa7aa2bfbdaca61d5b1110d55860ab9edc8c85ba17538e790ece2012102dca649ea11e68e351e71a37f617b935c9f8f2784ae5ac0c4bd5ca131a8f4047ffeffffff027ca91100000000001976a9147716ffddd45d5803022c864dd55cf02f3183300788ac348e1000000000001976a9143c2e4207fb14d86dc0eb015bf81ff94aed3684e388ac0e490800", "vin": [{"sequence": 4294967294, "scriptSig": {"hex": "4730440220129acd21c083edb1820704e77da25362491815149136355f3c126b8e09de8a7702205c6b2042f3fc33b27ead5d859409613582bc3e4f231f50b46cabcd22e5f1e0a7012103d3f02e99289618ef3a16330d3ea2543056ed7144f8f2ba3287620f761065450a", "asm": "30440220129acd21c083edb1820704e77da25362491815149136355f3c126b8e09de8a7702205c6b2042f3fc33b27ead5d859409613582bc3e4f231f50b46cabcd22e5f1e0a7[ALL] 03d3f02e99289618ef3a16330d3ea2543056ed7144f8f2ba3287620f761065450a"}, "vout": 1, "txid": "1cdaf5e669186d8ec5ec72df1f93e6591b316d6f5439a6e2fa3982149351240e"}, {"sequence": 4294967294, "scriptSig": {"hex": "47304402207edaa817e43e17ae719a34250f80c5bc016b0a54a73c2c373a0a400dfad253d30220722c9c4e596beef0c1dde285109a188f080dad96b3676a87df10ee82aaf5921601210343aaed67b9d5da97112aadae0ac77a968e39c2893c1459b5b98ffb464b30b1ea", "asm": "304402207edaa817e43e17ae719a34250f80c5bc016b0a54a73c2c373a0a400dfad253d30220722c9c4e596beef0c1dde285109a188f080dad96b3676a87df10ee82aaf59216[ALL] 0343aaed67b9d5da97112aadae0ac77a968e39c2893c1459b5b98ffb464b30b1ea"}, "vout": 12, "txid": "9dcb623eb5f40df846d692f107f5c4eedb884debc298fc9f4b59585df739ac5f"}, {"sequence": 4294967294, "scriptSig": {"hex": "483045022100d3adca4c015e6fd5f031f99328fbacb5c9e2e00885f5f94540ddb67adb205b0c022026ce600112aaa7aa2bfbdaca61d5b1110d55860ab9edc8c85ba17538e790ece2012102dca649ea11e68e351e71a37f617b935c9f8f2784ae5ac0c4bd5ca131a8f4047f", "asm": "3045022100d3adca4c015e6fd5f031f99328fbacb5c9e2e00885f5f94540ddb67adb205b0c022026ce600112aaa7aa2bfbdaca61d5b1110d55860ab9edc8c85ba17538e790ece2[ALL] 02dca649ea11e68e351e71a37f617b935c9f8f2784ae5ac0c4bd5ca131a8f4047f"}, "vout": 0, "txid": "b045bcb01b8f6bcad4e2737543683372a4ea0fddeb4c6c278670eb2f9555d7d4"}], "txid": "06677a3ac499b0fe3132581b73952137cfc6872f12c8260fc5f7a4b2b35e2063", "blocktime": 1537870928, "version": 2, "confirmations": 11514, "time": 1537870928, "locktime": 542990, "vsize": 520, "size": 520}