{"hash": "0667f6bc0c099d4a78d40882dfc54d2fb620428669d43802afdcab009fa7c673", "blockhash": "0000000000000000000baef3f32e3676a92c3b2e5da21b426e4f302fc371ce76", "vout": [{"scriptPubKey": {"type": "nulldata", "hex": "6a4c500000782a000153859a53cab2d46ba22edb7b27b7256b4774d339f6019d6ddc0f1b8ff117eae40cebdb6a3375ae57fb1ddc5e1e0c5baa1ea20614346d0f2803d9bc9a9526289ac0f6612cd74e33776ee4", "asm": "OP_RETURN 0000782a000153859a53cab2d46ba22edb7b27b7256b4774d339f6019d6ddc0f1b8ff117eae40cebdb6a3375ae57fb1ddc5e1e0c5baa1ea20614346d0f2803d9bc9a9526289ac0f6612cd74e33776ee4"}, "value": 0.0, "n": 0}, {"scriptPubKey": {"reqSigs": 1, "hex": "76a9149fecd6d78182252cf0341f79e938fba97d6293b188ac", "addresses": ["1FacANykod5eKWsm2rZnrmUhxi6fXievq7"], "asm": "OP_DUP OP_HASH160 9fecd6d78182252cf0341f79e938fba97d6293b1 OP_EQUALVERIFY OP_CHECKSIG", "type": "pubkeyhash"}, "value": 0.01371244, "n": 1}], "hex": "0100000001daa408981de115b7eab686c33f2a627e4ccabd2a191f96b941f177f49dd2dc98000000006b483045022100db51af1a5ba1b0a3ef1fc660fbe36394829609954d9c6bab22a30c5a7055bc7802204671def2a553ebe701d915a07c86ad990c2481f02a315cc2ac0f75b11b826a050121039e89d866c149c56d4052cce55d9f4534aadf77f938129ac8f3d26c20ef955559ffffffff020000000000000000536a4c500000782a000153859a53cab2d46ba22edb7b27b7256b4774d339f6019d6ddc0f1b8ff117eae40cebdb6a3375ae57fb1ddc5e1e0c5baa1ea20614346d0f2803d9bc9a9526289ac0f6612cd74e33776ee46cec1400000000001976a9149fecd6d78182252cf0341f79e938fba97d6293b188ac00000000", "vin": [{"sequence": 4294967295, "scriptSig": {"hex": "483045022100db51af1a5ba1b0a3ef1fc660fbe36394829609954d9c6bab22a30c5a7055bc7802204671def2a553ebe701d915a07c86ad990c2481f02a315cc2ac0f75b11b826a050121039e89d866c149c56d4052cce55d9f4534aadf77f938129ac8f3d26c20ef955559", "asm": "3045022100db51af1a5ba1b0a3ef1fc660fbe36394829609954d9c6bab22a30c5a7055bc7802204671def2a553ebe701d915a07c86ad990c2481f02a315cc2ac0f75b11b826a05[ALL] 039e89d866c149c56d4052cce55d9f4534aadf77f938129ac8f3d26c20ef955559"}, "vout": 0, "txid": "98dcd29df477f141b9961f192abdca4c7e622a3fc386b6eab715e11d9808a4da"}], "txid": "0667f6bc0c099d4a78d40882dfc54d2fb620428669d43802afdcab009fa7c673", "blocktime": 1537876114, "version": 1, "confirmations": 11460, "time": 1537876114, "locktime": 0, "vsize": 284, "size": 284}