{"hash": "4da38bacb2359241b43096fa99fd6e19373ff757433d3e9a7f67595407373a0e", "blockhash": "0000000000000000001e0dab787dd257d1dbfcb92a98c2207d5e1078be1f4165", "vout": [{"scriptPubKey": {"reqSigs": 1, "hex": "a914c801c0979414ff5611ac0d15c66a26ff4cabfffb87", "addresses": ["3KvZAfPV4Yu3UrStwYspcYM5QGtjDixxxg"], "asm": "OP_HASH160 c801c0979414ff5611ac0d15c66a26ff4cabfffb OP_EQUAL", "type": "scripthash"}, "value": 0.00070378, "n": 0}, {"scriptPubKey": {"reqSigs": 1, "hex": "a91477657ba408929531c3a97b9ab781f79d2fa9767f87", "addresses": ["3CaKuXp7VM5ipeEb9u21ARPdqmFjyMf7Br"], "asm": "OP_HASH160 77657ba408929531c3a97b9ab781f79d2fa9767f OP_EQUAL", "type": "scripthash"}, "value": 0.01023944, "n": 1}], "hex": "020000000001012c6b6cfb6dd934728b54e238ac840f5fe3a32adeffb0c0968c3febb1ab99b84401000000171600149fe98ff395f00e0bd3f391638860297f96b783b2feffffff02ea1201000000000017a914c801c0979414ff5611ac0d15c66a26ff4cabfffb87c89f0f000000000017a91477657ba408929531c3a97b9ab781f79d2fa9767f8702473044022015bcdc31c96654c34e5632f7256f45084408269db4f51ff23c5bf95dea301afe02206b32cf2f433d99a6e599beb7051c4081f4075a2cbffe39ad927def580a43d10201210306eab1448e07628de0a2a158a936505ad48b0c9814788789c1a040cb3f3a4f9412490800", "vin": [{"txinwitness": ["3044022015bcdc31c96654c34e5632f7256f45084408269db4f51ff23c5bf95dea301afe02206b32cf2f433d99a6e599beb7051c4081f4075a2cbffe39ad927def580a43d10201", "0306eab1448e07628de0a2a158a936505ad48b0c9814788789c1a040cb3f3a4f94"], "sequence": 4294967294, "scriptSig": {"hex": "1600149fe98ff395f00e0bd3f391638860297f96b783b2", "asm": "00149fe98ff395f00e0bd3f391638860297f96b783b2"}, "vout": 1, "txid": "44b899abb1eb3f8c96c0b0ffde2aa3e35f0f84ac38e2548b7234d96dfb6c6b2c"}], "txid": "0668c4add2eee8fdbcb281319f59581f65d98db38b0cf8e85b1d20eea3b55325", "blocktime": 1537872475, "version": 2, "confirmations": 11487, "time": 1537872475, "locktime": 542994, "vsize": 166, "size": 247}