{"hash": "06683fc6e5b924ec3d39ba6748ae0aabf028c667441dca7ec012a994cbb85ed5", "blockhash": "00000000000000000018f53835495a110e01622372bf6ae95dc86f2b0ab887b0", "vout": [{"scriptPubKey": {"type": "nulldata", "hex": "6a4c500000778200015aa091b580448882568b364dbcbefa6b8351586b4e86aeaeacb577c031fc00b8ec07956fbef6f6fdb23a1c7eddd85baa0b03061403b1747f0a3abc9a9526289ac0f6612cd74e33776ee4", "asm": "OP_RETURN 0000778200015aa091b580448882568b364dbcbefa6b8351586b4e86aeaeacb577c031fc00b8ec07956fbef6f6fdb23a1c7eddd85baa0b03061403b1747f0a3abc9a9526289ac0f6612cd74e33776ee4"}, "value": 0.0, "n": 0}, {"scriptPubKey": {"reqSigs": 1, "hex": "76a9143554b03c0dda808e066394e60ae0b8a8cf05bd9b88ac", "addresses": ["15rzGRSPAsUX9QZerAREc4ymGB2Uryjw98"], "asm": "OP_DUP OP_HASH160 3554b03c0dda808e066394e60ae0b8a8cf05bd9b OP_EQUALVERIFY OP_CHECKSIG", "type": "pubkeyhash"}, "value": 0.014829, "n": 1}], "hex": "0100000001aeb59d11db9938f0fe91bf88bc693e3bb61c58e0f3fa4b281e1cdaa5b0848a07010000006b483045022100979c4ea4b35452788711851c33e65d6eaeca8ba14cb5a4f5ce1046b0aff43bb202207e0879baafdffa5cd37798aefa1e3f0d538a02238a87c182b02ca4b60c7c5e51012102480e37ac4ea3deb12c8b51a15bc02cbc53df154406461f6a56daeed6aca160d5ffffffff020000000000000000536a4c500000778200015aa091b580448882568b364dbcbefa6b8351586b4e86aeaeacb577c031fc00b8ec07956fbef6f6fdb23a1c7eddd85baa0b03061403b1747f0a3abc9a9526289ac0f6612cd74e33776ee494a01600000000001976a9143554b03c0dda808e066394e60ae0b8a8cf05bd9b88ac00000000", "vin": [{"sequence": 4294967295, "scriptSig": {"hex": "483045022100979c4ea4b35452788711851c33e65d6eaeca8ba14cb5a4f5ce1046b0aff43bb202207e0879baafdffa5cd37798aefa1e3f0d538a02238a87c182b02ca4b60c7c5e51012102480e37ac4ea3deb12c8b51a15bc02cbc53df154406461f6a56daeed6aca160d5", "asm": "3045022100979c4ea4b35452788711851c33e65d6eaeca8ba14cb5a4f5ce1046b0aff43bb202207e0879baafdffa5cd37798aefa1e3f0d538a02238a87c182b02ca4b60c7c5e51[ALL] 02480e37ac4ea3deb12c8b51a15bc02cbc53df154406461f6a56daeed6aca160d5"}, "vout": 1, "txid": "078a84b0a5da1c1e284bfaf3e0581cb63b3e69bc88bf91fef03899db119db5ae"}], "txid": "06683fc6e5b924ec3d39ba6748ae0aabf028c667441dca7ec012a994cbb85ed5", "blocktime": 1537870928, "version": 1, "confirmations": 11512, "time": 1537870928, "locktime": 0, "vsize": 284, "size": 284}