{"hash": "31202fe1539cb3c77bc3b6884060a36d2daefe5c7605bb2e89fe1bf35eb34590", "blockhash": "0000000000000000001f76057863aec43deb6fa401d9628bb513d65a8098bfab", "vout": [{"scriptPubKey": {"reqSigs": 1, "hex": "a914e1db7494a5b1f6e137a535c8cae18ea3bf90ed1187", "addresses": ["3NHErjWC5H96BbPRYytnTFCQTq93ee1GMz"], "asm": "OP_HASH160 e1db7494a5b1f6e137a535c8cae18ea3bf90ed11 OP_EQUAL", "type": "scripthash"}, "value": 2.3933413, "n": 0}, {"scriptPubKey": {"reqSigs": 1, "hex": "a91469f374e3ebfa623bada4b0b17f301425cd68363787", "addresses": ["3BMEXM6Sm1iKoWdCSdFuWveaF6kZ4Pz7ee"], "asm": "OP_HASH160 69f374e3ebfa623bada4b0b17f301425cd683637 OP_EQUAL", "type": "scripthash"}, "value": 0.09948814, "n": 1}], "hex": "02000000000101f66d153812241c27834ef905003d8a6acecca214f312b8addbf16757c44bee760000000017160014e2dac27dd7da567b423fdae6ed6ae20700a02a0cfeffffff02f2f2430e0000000017a914e1db7494a5b1f6e137a535c8cae18ea3bf90ed11878ece97000000000017a91469f374e3ebfa623bada4b0b17f301425cd6836378702473044022063bf5d09d6f0a688a87762798eae9a27980f1ec76e9787cc976f76d5e2b2141f02204bfaa0ac4e32f2c5f8f15540ea01eb3a08aac77b29ff474d477f130a5a8dfaa5012102b5e07538c111fa8c465d817a542251367d71b86124cb0df5db933b569005549614490800", "vin": [{"txinwitness": ["3044022063bf5d09d6f0a688a87762798eae9a27980f1ec76e9787cc976f76d5e2b2141f02204bfaa0ac4e32f2c5f8f15540ea01eb3a08aac77b29ff474d477f130a5a8dfaa501", "02b5e07538c111fa8c465d817a542251367d71b86124cb0df5db933b5690055496"], "sequence": 4294967294, "scriptSig": {"hex": "160014e2dac27dd7da567b423fdae6ed6ae20700a02a0c", "asm": "0014e2dac27dd7da567b423fdae6ed6ae20700a02a0c"}, "vout": 0, "txid": "76ee4bc45767f1dbadb812f314a2ccce6a8a3d0005f94e83271c241238156df6"}], "txid": "0669f64a2cb9ab3df267d296fbe8653a82aa5cc803c148904a9f5d82eafe6ea6", "blocktime": 1537873891, "version": 2, "confirmations": 11478, "time": 1537873891, "locktime": 542996, "vsize": 166, "size": 247}