{"hash": "2fdb697873355304f53f8dd028fd616b1660a259e1b5cfaa49ce68d76ed59130", "blockhash": "0000000000000000001f76057863aec43deb6fa401d9628bb513d65a8098bfab", "vout": [{"scriptPubKey": {"reqSigs": 1, "hex": "76a9145ab02ab956d9fd2531bca565bf9b643f102b2d8088ac", "addresses": ["19GWrZBcm7WoE6EeBaoExKoP3cFQTLU4mN"], "asm": "OP_DUP OP_HASH160 5ab02ab956d9fd2531bca565bf9b643f102b2d80 OP_EQUALVERIFY OP_CHECKSIG", "type": "pubkeyhash"}, "value": 0.0012858, "n": 0}, {"scriptPubKey": {"reqSigs": 1, "hex": "a914e4b9083bced4f6226d159e4aafb7202f6cf589e687", "addresses": ["3NYPeYLd29eLXsQB1tXyXKeURDSgSPSYYv"], "asm": "OP_HASH160 e4b9083bced4f6226d159e4aafb7202f6cf589e6 OP_EQUAL", "type": "scripthash"}, "value": 0.01018518, "n": 1}], "hex": "0200000000010126c28a79bb27ad95fde5477bcb4644bd38c09ef2aac8e1ce1c7125bce78911160000000017160014977790a392c5895c6270e4fc3bed2588c34b3a1dfeffffff0244f60100000000001976a9145ab02ab956d9fd2531bca565bf9b643f102b2d8088ac968a0f000000000017a914e4b9083bced4f6226d159e4aafb7202f6cf589e687024830450221009fdd238b597a0de038462e3a08f06fe900d7b4e27b94321af307cd8907e37ef202205b29b28eb893d1098482f6cf2a1db758d9d887cd38521c1336cf8f58a54acd120121024010953fbc55e38990585b6525b228f970a52a2cc968261ea1085e243e64c06914490800", "vin": [{"txinwitness": ["30450221009fdd238b597a0de038462e3a08f06fe900d7b4e27b94321af307cd8907e37ef202205b29b28eb893d1098482f6cf2a1db758d9d887cd38521c1336cf8f58a54acd1201", "024010953fbc55e38990585b6525b228f970a52a2cc968261ea1085e243e64c069"], "sequence": 4294967294, "scriptSig": {"hex": "160014977790a392c5895c6270e4fc3bed2588c34b3a1d", "asm": "0014977790a392c5895c6270e4fc3bed2588c34b3a1d"}, "vout": 0, "txid": "161189e7bc25711ccee1c8aaf29ec038bd4446cb7b47e5fd95ad27bb798ac226"}], "txid": "0670c06486495bffdcefa908d1e9e41d2cbf6ce42ec08fbda68451a2735d89cb", "blocktime": 1537873891, "version": 2, "confirmations": 11478, "time": 1537873891, "locktime": 542996, "vsize": 168, "size": 250}