{"hash": "3187504ef7be5cf81d5e7717430e6722454e2243a4b4f250c8f4865cd759e528", "blockhash": "00000000000000000004ffacab907a6b429b9a5745fa0b75af4234bf69dd7176", "vout": [{"scriptPubKey": {"reqSigs": 1, "hex": "76a914f44baf5b48f18eeee029b8b98bbc8de5d3e6d90088ac", "addresses": ["1PGiYVX2mCuoZFMeyu4pFLRtCPztbjDnwG"], "asm": "OP_DUP OP_HASH160 f44baf5b48f18eeee029b8b98bbc8de5d3e6d900 OP_EQUALVERIFY OP_CHECKSIG", "type": "pubkeyhash"}, "value": 0.01537, "n": 0}, {"scriptPubKey": {"reqSigs": 1, "hex": "a914083e88eeb7532f53b812263d5ec1d6b7426ee5a087", "addresses": ["32ScF5XgTDT8qq2j6TnDx8dvhw3oHSDbGK"], "asm": "OP_HASH160 083e88eeb7532f53b812263d5ec1d6b7426ee5a0 OP_EQUAL", "type": "scripthash"}, "value": 0.0014442, "n": 1}], "hex": "01000000000101044cd42d9f9129191f585f214e6dcc9d61e13053d00ebee26b16aab3d496f7aa00000000171600141b6599bc4f8d5519d7f35afab6bbad4bbe03e3a5ffffffff02e8731700000000001976a914f44baf5b48f18eeee029b8b98bbc8de5d3e6d90088ac243402000000000017a914083e88eeb7532f53b812263d5ec1d6b7426ee5a0870247304402201284418d7d0c6ea686b3e0756f6a96f1bbe82a78bc89d5ee539cba26df62c98302200b8a567a340693a944b178f01e0b9d05bc5589899821343c6e8f74b8c42fc61e0121036c446eb360229e6ccd970f153eb48701602f911f31812ec72c193930e407137700000000", "vin": [{"txinwitness": ["304402201284418d7d0c6ea686b3e0756f6a96f1bbe82a78bc89d5ee539cba26df62c98302200b8a567a340693a944b178f01e0b9d05bc5589899821343c6e8f74b8c42fc61e01", "036c446eb360229e6ccd970f153eb48701602f911f31812ec72c193930e4071377"], "sequence": 4294967295, "scriptSig": {"hex": "1600141b6599bc4f8d5519d7f35afab6bbad4bbe03e3a5", "asm": "00141b6599bc4f8d5519d7f35afab6bbad4bbe03e3a5"}, "vout": 0, "txid": "aaf796d4b3aa166be2be0ed05330e1619dcc6d4e215f581f1929919f2dd44c04"}], "txid": "06712b19f65c83c757a6d522242a0063fa0c839f3ee79157897a0f3d7a072b1a", "blocktime": 1537875543, "version": 1, "confirmations": 11464, "time": 1537875543, "locktime": 0, "vsize": 168, "size": 249}