{"hash": "067209472532df54e0ca844191fb5cb3c39282da324926df2ca768082475b883", "blockhash": "0000000000000000001cda96e906b7601b7a6fb1a3b62bca570a9e5d8f4b3de1", "vout": [{"scriptPubKey": {"reqSigs": 1, "hex": "76a9144a0f1e2f2b0d7daeec5265f10bbbbe08ed725e8988ac", "addresses": ["17kb7c9ndg7ioSuzMWEHWECdEVUegNkcGc"], "asm": "OP_DUP OP_HASH160 4a0f1e2f2b0d7daeec5265f10bbbbe08ed725e89 OP_EQUALVERIFY OP_CHECKSIG", "type": "pubkeyhash"}, "value": 0.18998656, "n": 0}], "hex": "0100000001ba1c1a767771c572bba4527a9c9107f25e8b824385f21ecb57aacb7dd6bdc673010000006a4730440220295c26f437dcf19f36bf719bec62d0029153ea85fe81afd7e71d912b4b8e0f5f022037de4f553d140e236ca8e19f9dc1853ba853403dfe964a46486f0844b3d57f52012103a6eef92feddd34cd3668a63d264aa88c6385cfccf326593aef924c755f6b13e3ffffffff0180e52101000000001976a9144a0f1e2f2b0d7daeec5265f10bbbbe08ed725e8988ac00000000", "vin": [{"sequence": 4294967295, "scriptSig": {"hex": "4730440220295c26f437dcf19f36bf719bec62d0029153ea85fe81afd7e71d912b4b8e0f5f022037de4f553d140e236ca8e19f9dc1853ba853403dfe964a46486f0844b3d57f52012103a6eef92feddd34cd3668a63d264aa88c6385cfccf326593aef924c755f6b13e3", "asm": "30440220295c26f437dcf19f36bf719bec62d0029153ea85fe81afd7e71d912b4b8e0f5f022037de4f553d140e236ca8e19f9dc1853ba853403dfe964a46486f0844b3d57f52[ALL] 03a6eef92feddd34cd3668a63d264aa88c6385cfccf326593aef924c755f6b13e3"}, "vout": 1, "txid": "73c6bdd67dcbaa57cb1ef28543828b5ef207919c7a52a4bb72c57177761a1cba"}], "txid": "067209472532df54e0ca844191fb5cb3c39282da324926df2ca768082475b883", "blocktime": 1537873282, "version": 1, "confirmations": 11482, "time": 1537873282, "locktime": 0, "vsize": 191, "size": 191}