{"hash": "067b842f684c9e3784feb6a04ae9e1ceaba21cd6541a929ae8f354fd5fd71976", "blockhash": "00000000000000000018f53835495a110e01622372bf6ae95dc86f2b0ab887b0", "vout": [{"scriptPubKey": {"reqSigs": 1, "hex": "76a914a699fc674b05d453430bc044234db8c0a650f72488ac", "addresses": ["1GBudyZvBz91mtxx4V3UGySJzJixw6J342"], "asm": "OP_DUP OP_HASH160 a699fc674b05d453430bc044234db8c0a650f724 OP_EQUALVERIFY OP_CHECKSIG", "type": "pubkeyhash"}, "value": 1.762e-05, "n": 0}, {"scriptPubKey": {"reqSigs": 1, "hex": "a9149beff205338c9a3901b61acaa3ab3470277969dd87", "addresses": ["3FuY6yY57ooK41ScnvuBS5T5n1gMrJRtaU"], "asm": "OP_HASH160 9beff205338c9a3901b61acaa3ab3470277969dd OP_EQUAL", "type": "scripthash"}, "value": 0.02225065, "n": 1}], "hex": "01000000016a6af0c43d4f4e6d95a5c463d6d0bd682286237d949d4f4afd2a577fc2796bcb010000006b483045022100a0b778b9a79c06dbcd0c97e467d0f93136118909bc2537cc61fe275152574a9f022009de7a6ceac7663587ce7d24ace9ba085d28d80a7764a797d3cec2fa8a22442c012103e0120efa4c37efc3082c0934f0ec85cc8080ab12f0fa9de88bd5ecce79f62e8effffffff02e2060000000000001976a914a699fc674b05d453430bc044234db8c0a650f72488aca9f321000000000017a9149beff205338c9a3901b61acaa3ab3470277969dd8700000000", "vin": [{"sequence": 4294967295, "scriptSig": {"hex": "483045022100a0b778b9a79c06dbcd0c97e467d0f93136118909bc2537cc61fe275152574a9f022009de7a6ceac7663587ce7d24ace9ba085d28d80a7764a797d3cec2fa8a22442c012103e0120efa4c37efc3082c0934f0ec85cc8080ab12f0fa9de88bd5ecce79f62e8e", "asm": "3045022100a0b778b9a79c06dbcd0c97e467d0f93136118909bc2537cc61fe275152574a9f022009de7a6ceac7663587ce7d24ace9ba085d28d80a7764a797d3cec2fa8a22442c[ALL] 03e0120efa4c37efc3082c0934f0ec85cc8080ab12f0fa9de88bd5ecce79f62e8e"}, "vout": 1, "txid": "cb6b79c27f572afd4a4f9d947d23862268bdd0d663c4a5956d4e4f3dc4f06a6a"}], "txid": "067b842f684c9e3784feb6a04ae9e1ceaba21cd6541a929ae8f354fd5fd71976", "blocktime": 1537870928, "version": 1, "confirmations": 11512, "time": 1537870928, "locktime": 0, "vsize": 224, "size": 224}