{"hash": "c33e3e2886a378ca27e30395991b81b7b7d56d57008e36f0474b2b385cd24562", "blockhash": "00000000000000000004ffacab907a6b429b9a5745fa0b75af4234bf69dd7176", "vout": [{"scriptPubKey": {"reqSigs": 1, "hex": "a9141321165ecf5522354c88e67c91954eb606a84a1d87", "addresses": ["33SAQ96BaH6Nu1XHshge5v44waJXSyi9Py"], "asm": "OP_HASH160 1321165ecf5522354c88e67c91954eb606a84a1d OP_EQUAL", "type": "scripthash"}, "value": 11.35483864, "n": 0}, {"scriptPubKey": {"reqSigs": 1, "hex": "76a91425d9a4c6deb961332d7052e34fa45866684612ad88ac", "addresses": ["14T8jFApR4TA225ERpBQKU7jWfc6L1xfm3"], "asm": "OP_DUP OP_HASH160 25d9a4c6deb961332d7052e34fa45866684612ad OP_EQUALVERIFY OP_CHECKSIG", "type": "pubkeyhash"}, "value": 0.499, "n": 1}], "hex": "020000000001015374196c61403e5f94b5a1cdcdeda6455700ac31929434bd1fffd599082bb999000000001716001482f16087aeb85946b8dfc4f40ceccc4719b62cf3feffffff02d81bae430000000017a9141321165ecf5522354c88e67c91954eb606a84a1d87e069f902000000001976a91425d9a4c6deb961332d7052e34fa45866684612ad88ac02483045022100fed438b73afc8497b490ca823d3ee1e79a319a4e7980f9030bb26cbba5930d5d02204d76ecc08321dcf93bf81cdda7fd34ee8f83d1594132d3696f2c24da4b8751db01210399f859d937fd727f72369ba94bda68799b1d234cf9b85a410c6883a5883d397116490800", "vin": [{"txinwitness": ["3045022100fed438b73afc8497b490ca823d3ee1e79a319a4e7980f9030bb26cbba5930d5d02204d76ecc08321dcf93bf81cdda7fd34ee8f83d1594132d3696f2c24da4b8751db01", "0399f859d937fd727f72369ba94bda68799b1d234cf9b85a410c6883a5883d3971"], "sequence": 4294967294, "scriptSig": {"hex": "16001482f16087aeb85946b8dfc4f40ceccc4719b62cf3", "asm": "001482f16087aeb85946b8dfc4f40ceccc4719b62cf3"}, "vout": 0, "txid": "99b92b0899d5ff1fbd34949231ac005745a6edcdcda1b5945f3e40616c197453"}], "txid": "067f2ab5cc3554a3e1a8aefc20d218bb07aefb389bc91024eab5c6f5396e7f64", "blocktime": 1537875543, "version": 2, "confirmations": 11464, "time": 1537875543, "locktime": 542998, "vsize": 168, "size": 250}