{"hash": "0686b7a3b3490989d5f5e64db1cb8e40efdc69563f7740dea30b6b0029865006", "blockhash": "0000000000000000001f76057863aec43deb6fa401d9628bb513d65a8098bfab", "vout": [{"scriptPubKey": {"reqSigs": 1, "hex": "a914cdd8a941101a804a6f8d1e1b24487e09149c2dfe87", "addresses": ["3LTRzkRhGyUk7Z52QTaWaYusKe2JJrue6b"], "asm": "OP_HASH160 cdd8a941101a804a6f8d1e1b24487e09149c2dfe OP_EQUAL", "type": "scripthash"}, "value": 0.000304, "n": 0}, {"scriptPubKey": {"reqSigs": 1, "hex": "76a9140396c750f15f6e2aea1495bee284490a42c197e788ac", "addresses": ["1KyeraaoWhQ64rPgxTRNfHXJkNRkoxqhi"], "asm": "OP_DUP OP_HASH160 0396c750f15f6e2aea1495bee284490a42c197e7 OP_EQUALVERIFY OP_CHECKSIG", "type": "pubkeyhash"}, "value": 0.21076213, "n": 1}], "hex": "0200000001b7d48dd12b9986750b34f6975fc6c9df09dee76b4fb0d38a0723aa8e6a6d0d5c010000006a4730440220139a29dbc0c1a6cbca65eae04d06be89c14a18d620bacb11faee14ccc743029502206ae94122d461715031c891bb5f4f7557c501d8850380d1717ab0ee9580cbd8450121037aed202cc0420c61a4ecd5ba5d8ff2b6263caec8e7242e78157405b8890aaf5dffffffff02c07600000000000017a914cdd8a941101a804a6f8d1e1b24487e09149c2dfe87f5984101000000001976a9140396c750f15f6e2aea1495bee284490a42c197e788ac00000000", "vin": [{"sequence": 4294967295, "scriptSig": {"hex": "4730440220139a29dbc0c1a6cbca65eae04d06be89c14a18d620bacb11faee14ccc743029502206ae94122d461715031c891bb5f4f7557c501d8850380d1717ab0ee9580cbd8450121037aed202cc0420c61a4ecd5ba5d8ff2b6263caec8e7242e78157405b8890aaf5d", "asm": "30440220139a29dbc0c1a6cbca65eae04d06be89c14a18d620bacb11faee14ccc743029502206ae94122d461715031c891bb5f4f7557c501d8850380d1717ab0ee9580cbd845[ALL] 037aed202cc0420c61a4ecd5ba5d8ff2b6263caec8e7242e78157405b8890aaf5d"}, "vout": 1, "txid": "5c0d6d6a8eaa23078ad3b04f6be7de09dfc9c65f97f6340b7586992bd18dd4b7"}], "txid": "0686b7a3b3490989d5f5e64db1cb8e40efdc69563f7740dea30b6b0029865006", "blocktime": 1537873891, "version": 2, "confirmations": 11478, "time": 1537873891, "locktime": 0, "vsize": 223, "size": 223}