{"hash": "06896a70e4ea9d25b22effce9091fd499445dea6f831c2c3de6297b95cdd247f", "blockhash": "00000000000000000024a2167bbff67b0be802c0b01cdd79e6331c2be6459f87", "vout": [{"scriptPubKey": {"reqSigs": 1, "hex": "76a914ecee98c9c505259dfb3876f699047385cb63116888ac", "addresses": ["1NbnJGgCXXFR1AhJ9JAiAjpBkiEWsjfd3c"], "asm": "OP_DUP OP_HASH160 ecee98c9c505259dfb3876f699047385cb631168 OP_EQUALVERIFY OP_CHECKSIG", "type": "pubkeyhash"}, "value": 0.00046948, "n": 0}, {"scriptPubKey": {"reqSigs": 1, "hex": "a91482c8749f04415e9de034ea5976df111e05407ab887", "addresses": ["3DcXuNrUQtgJmQDWcEQoCTWmxhmhSGEfT8"], "asm": "OP_HASH160 82c8749f04415e9de034ea5976df111e05407ab8 OP_EQUAL", "type": "scripthash"}, "value": 0.009344, "n": 1}], "hex": "01000000018c657c8e30ea7eda4d4a22c09dbbc204ba8e59a110513ece7b79b203561ddad5160000006b483045022100d4a24c34eff1b4ad072dede274549f5472764db0ea0518af7093bdff1c724838022066ff252cae2a1f5a63ac80268bf132b0e50797172912769c3060a5997c78a86f0121022dd77f739e4ba895017d0903fd0ee37df60e9ca7cec9a40b559840ebc51ecc99ffffffff0264b70000000000001976a914ecee98c9c505259dfb3876f699047385cb63116888ac00420e000000000017a91482c8749f04415e9de034ea5976df111e05407ab88700000000", "vin": [{"sequence": 4294967295, "scriptSig": {"hex": "483045022100d4a24c34eff1b4ad072dede274549f5472764db0ea0518af7093bdff1c724838022066ff252cae2a1f5a63ac80268bf132b0e50797172912769c3060a5997c78a86f0121022dd77f739e4ba895017d0903fd0ee37df60e9ca7cec9a40b559840ebc51ecc99", "asm": "3045022100d4a24c34eff1b4ad072dede274549f5472764db0ea0518af7093bdff1c724838022066ff252cae2a1f5a63ac80268bf132b0e50797172912769c3060a5997c78a86f[ALL] 022dd77f739e4ba895017d0903fd0ee37df60e9ca7cec9a40b559840ebc51ecc99"}, "vout": 22, "txid": "d5da1d5603b2797bce3e5110a1598eba04c2bb9dc0224a4dda7eea308e7c658c"}], "txid": "06896a70e4ea9d25b22effce9091fd499445dea6f831c2c3de6297b95cdd247f", "blocktime": 1537870564, "version": 1, "confirmations": 11515, "time": 1537870564, "locktime": 0, "vsize": 224, "size": 224}