{"hash": "068ede436300aa5938f82372007bc9f44ec7f6d2ae7fd799e2e0a634684b2465", "blockhash": "0000000000000000000dcc0f55137456b1a82d3642486a52398922ac4d620174", "vout": [{"scriptPubKey": {"reqSigs": 1, "hex": "76a914189417c7c2ff1f199fc582f54d47d48282a6016e88ac", "addresses": ["13ExdH9hSEXGPVAcUtLaEp4qeKVpKtYNJv"], "asm": "OP_DUP OP_HASH160 189417c7c2ff1f199fc582f54d47d48282a6016e OP_EQUALVERIFY OP_CHECKSIG", "type": "pubkeyhash"}, "value": 0.0021958, "n": 0}, {"scriptPubKey": {"reqSigs": 1, "hex": "76a9147d062f9d43eae2f359ad8f96d69cd304a8e6b6c388ac", "addresses": ["1CQ4snmjmPVT1siGNKGrXMRLGwebbinLCM"], "asm": "OP_DUP OP_HASH160 7d062f9d43eae2f359ad8f96d69cd304a8e6b6c3 OP_EQUALVERIFY OP_CHECKSIG", "type": "pubkeyhash"}, "value": 2.42e-05, "n": 1}], "hex": "01000000011e68e9364bc3ee7025ddcec8d3314297186a8f8de0ae05fb1295e059c6d8e0b2050000006b483045022100a5f0a006859bfd793981121da2546ecd4975bff5afd76d7c9ec3342a7a8c929b02201e30f437b7e737d45c5f74169baa27a11694c23e2787ff925984af312c856529012103a4e4564ba9896c59ce0a9fd4e82d297890ec5223da6db39d891c7404577f7228ffffffff02bc590300000000001976a914189417c7c2ff1f199fc582f54d47d48282a6016e88ac74090000000000001976a9147d062f9d43eae2f359ad8f96d69cd304a8e6b6c388ac00000000", "vin": [{"sequence": 4294967295, "scriptSig": {"hex": "483045022100a5f0a006859bfd793981121da2546ecd4975bff5afd76d7c9ec3342a7a8c929b02201e30f437b7e737d45c5f74169baa27a11694c23e2787ff925984af312c856529012103a4e4564ba9896c59ce0a9fd4e82d297890ec5223da6db39d891c7404577f7228", "asm": "3045022100a5f0a006859bfd793981121da2546ecd4975bff5afd76d7c9ec3342a7a8c929b02201e30f437b7e737d45c5f74169baa27a11694c23e2787ff925984af312c856529[ALL] 03a4e4564ba9896c59ce0a9fd4e82d297890ec5223da6db39d891c7404577f7228"}, "vout": 5, "txid": "b2e0d8c659e09512fb05aee08d8f6a18974231d3c8cedd2570eec34b36e9681e"}], "txid": "068ede436300aa5938f82372007bc9f44ec7f6d2ae7fd799e2e0a634684b2465", "blocktime": 1537870268, "version": 1, "confirmations": 11516, "time": 1537870268, "locktime": 0, "vsize": 226, "size": 226}