{"hash": "7bd05a21ebf32e7818190303e5fa19c87e6f54e002c563ee5d19807b2a57eb1b", "blockhash": "0000000000000000001cda96e906b7601b7a6fb1a3b62bca570a9e5d8f4b3de1", "vout": [{"scriptPubKey": {"reqSigs": 1, "hex": "a914f7a6056bf6525fd8255a394ed51043e7512c8f7b87", "addresses": ["3QGTiHAnLKsGhQtM7zUXKCjmyGN9XfxRhc"], "asm": "OP_HASH160 f7a6056bf6525fd8255a394ed51043e7512c8f7b OP_EQUAL", "type": "scripthash"}, "value": 0.94187011, "n": 0}, {"scriptPubKey": {"reqSigs": 1, "hex": "a914d8a0f4ceee5dba89aab39daa3bca871889b32f0987", "addresses": ["3MSShRBNWWNmrdGYEaVv9LtxUy9WXrr5PY"], "asm": "OP_HASH160 d8a0f4ceee5dba89aab39daa3bca871889b32f09 OP_EQUAL", "type": "scripthash"}, "value": 0.0248576, "n": 1}], "hex": "020000000001040a60146c732c2768e64994bed11d5826ee5364c37c29743beae4c8a1741d921e030000006a4730440220270ae1a053ccdc7ecf1dd0553c8762b048c1e4e9e35df8fd1278db65f09479c302204130f2c10b8b5188e62a0d938780c50bbe9e35887dfb7a0130f4ecfa879c2e8f0121032bc0a399f406ff57a6a5496747fff7fc78daf7bf60e5293c43985a8548dd088bffffffffd23b60ed234ac8d2d5519aeaed251e4143580e20b551f6d129b63925f2c1e63301000000171600149eb6ce2652ccc3b25885c387d685c33fee2f82a5ffffffffb47503ed8dbef8faeec68a3e0204e637c1b1be0f7c2a83b8173500744f49ec12010000001716001485f1754ee85f3101fe587c9871941bce4ade8c93ffffffff766892748a9aae899f2dca233590ec60c706b845aa389d3250efc32c4049d0aa010000001716001473eb047f879e762d7900c324952381fb6829f8e7ffffffff02032e9d050000000017a914f7a6056bf6525fd8255a394ed51043e7512c8f7b8700ee25000000000017a914d8a0f4ceee5dba89aab39daa3bca871889b32f098700024830450221008844b7675381fa197c730be4f0c75c1a6f28997eb1d8f25098488263d59bfefe02201375b7ed90c2a77df79bd95aafb6a64a6b20350837e7d89c5a50e5a6a42b6b120121026e312fc2633cf547598482c7220e1c51d636b0748fb667a27c5bdabf901d5767024730440220255b535d2cb509638ab95e32cd119c0ecc8987ca8019cd581681a393f697a6f30220078e018886471b56d050e6e7167c6e718be28b1e82939327cb8cf17ca2495d380121036ab6f8cc539c1562708388a41a5ac597f066b3e7fb267a2e8bd48ee6dbe26fca024830450221008f378633db250bb8afa0c6e62159dad911b89b263d39f52b2fd89d7c5d946e880220273226a9c385db64a98a5d5503a69e6c2eb1a4f667ecaa1ad1ed3e768319be2c012102747b38124ecf80211ffbe1137724f618f51a5921d76d161131f0be585721f60400000000", "vin": [{"sequence": 4294967295, "scriptSig": {"hex": "4730440220270ae1a053ccdc7ecf1dd0553c8762b048c1e4e9e35df8fd1278db65f09479c302204130f2c10b8b5188e62a0d938780c50bbe9e35887dfb7a0130f4ecfa879c2e8f0121032bc0a399f406ff57a6a5496747fff7fc78daf7bf60e5293c43985a8548dd088b", "asm": "30440220270ae1a053ccdc7ecf1dd0553c8762b048c1e4e9e35df8fd1278db65f09479c302204130f2c10b8b5188e62a0d938780c50bbe9e35887dfb7a0130f4ecfa879c2e8f[ALL] 032bc0a399f406ff57a6a5496747fff7fc78daf7bf60e5293c43985a8548dd088b"}, "vout": 3, "txid": "1e921d74a1c8e4ea3b74297cc36453ee26581dd1be9449e668272c736c14600a"}, {"txinwitness": ["30450221008844b7675381fa197c730be4f0c75c1a6f28997eb1d8f25098488263d59bfefe02201375b7ed90c2a77df79bd95aafb6a64a6b20350837e7d89c5a50e5a6a42b6b1201", "026e312fc2633cf547598482c7220e1c51d636b0748fb667a27c5bdabf901d5767"], "sequence": 4294967295, "scriptSig": {"hex": "1600149eb6ce2652ccc3b25885c387d685c33fee2f82a5", "asm": "00149eb6ce2652ccc3b25885c387d685c33fee2f82a5"}, "vout": 1, "txid": "33e6c1f22539b629d1f651b5200e5843411e25edea9a51d5d2c84a23ed603bd2"}, {"txinwitness": ["30440220255b535d2cb509638ab95e32cd119c0ecc8987ca8019cd581681a393f697a6f30220078e018886471b56d050e6e7167c6e718be28b1e82939327cb8cf17ca2495d3801", "036ab6f8cc539c1562708388a41a5ac597f066b3e7fb267a2e8bd48ee6dbe26fca"], "sequence": 4294967295, "scriptSig": {"hex": "16001485f1754ee85f3101fe587c9871941bce4ade8c93", "asm": "001485f1754ee85f3101fe587c9871941bce4ade8c93"}, "vout": 1, "txid": "12ec494f74003517b8832a7c0fbeb1c137e604023e8ac6eefaf8be8ded0375b4"}, {"txinwitness": ["30450221008f378633db250bb8afa0c6e62159dad911b89b263d39f52b2fd89d7c5d946e880220273226a9c385db64a98a5d5503a69e6c2eb1a4f667ecaa1ad1ed3e768319be2c01", "02747b38124ecf80211ffbe1137724f618f51a5921d76d161131f0be585721f604"], "sequence": 4294967295, "scriptSig": {"hex": "16001473eb047f879e762d7900c324952381fb6829f8e7", "asm": "001473eb047f879e762d7900c324952381fb6829f8e7"}, "vout": 1, "txid": "aad049402cc3ef50329d38aa45b806c760ec903523ca2d9f89ae9a8a74926876"}], "txid": "06911eeea72f630a6f9f95d1a16cfe851c88cd5c956795e5aecc85ef3cb53bf4", "blocktime": 1537873282, "version": 2, "confirmations": 11480, "time": 1537873282, "locktime": 0, "vsize": 495, "size": 739}