{"hash": "0692c9d1ae402d3f6272c0463e2f6fed201a0b9e01e297a16f63b6615932b3ad", "blockhash": "0000000000000000000e13cef7c366c0283d82e591d1acd082e914b08063cdf1", "vout": [{"scriptPubKey": {"reqSigs": 1, "hex": "76a91496492b2a638c00b144bdc049d03e29634519983288ac", "addresses": ["1Ehe1cueKMySo1ejvsRasGBrXPuUz55wrY"], "asm": "OP_DUP OP_HASH160 96492b2a638c00b144bdc049d03e296345199832 OP_EQUALVERIFY OP_CHECKSIG", "type": "pubkeyhash"}, "value": 0.00097972, "n": 0}, {"scriptPubKey": {"reqSigs": 1, "hex": "76a9141f4f68c5d994219c7c5b035c5db064e80f6ec80b88ac", "addresses": ["13rZ5QAqn6tx2QSKmmydRYvBbQqVbDBUMN"], "asm": "OP_DUP OP_HASH160 1f4f68c5d994219c7c5b035c5db064e80f6ec80b OP_EQUALVERIFY OP_CHECKSIG", "type": "pubkeyhash"}, "value": 0.001, "n": 1}], "hex": "01000000026ff5e6e0e82fc9734b46d0cab60dd3dbc47d05848546c8b8fae7145db4943b9c020000006b483045022100a60d725e26c8f980c93ce2f26b4e1cff6736797ec31e2b2d7bc6a447544c104c022059e43067e2225b08f836217653be071a823639eb4a4b82ac0fa3eca99693f31f0121021eb1d1bb35beaeadf94f59ec46d748b95a400a6e6cdc1e3ca40ac0b9b38a6328ffffffff1cb0bcec06fb4e2f758c690d76da7a2df8f7a04a793842142acf4b069197f1eb170000006b483045022100f7276212ed3de431ca8c7f701ce578daa3fddca7a37c4c9c5cf4d46f246db3e20220447cf117b67b3008fd3192de3adbd515da500115bb5853a0fdd7e2e9a0eb6e9b0121021eb1d1bb35beaeadf94f59ec46d748b95a400a6e6cdc1e3ca40ac0b9b38a6328ffffffff02b47e0100000000001976a91496492b2a638c00b144bdc049d03e29634519983288aca0860100000000001976a9141f4f68c5d994219c7c5b035c5db064e80f6ec80b88ac00000000", "vin": [{"sequence": 4294967295, "scriptSig": {"hex": "483045022100a60d725e26c8f980c93ce2f26b4e1cff6736797ec31e2b2d7bc6a447544c104c022059e43067e2225b08f836217653be071a823639eb4a4b82ac0fa3eca99693f31f0121021eb1d1bb35beaeadf94f59ec46d748b95a400a6e6cdc1e3ca40ac0b9b38a6328", "asm": "3045022100a60d725e26c8f980c93ce2f26b4e1cff6736797ec31e2b2d7bc6a447544c104c022059e43067e2225b08f836217653be071a823639eb4a4b82ac0fa3eca99693f31f[ALL] 021eb1d1bb35beaeadf94f59ec46d748b95a400a6e6cdc1e3ca40ac0b9b38a6328"}, "vout": 2, "txid": "9c3b94b45d14e7fab8c8468584057dc4dbd30db6cad0464b73c92fe8e0e6f56f"}, {"sequence": 4294967295, "scriptSig": {"hex": "483045022100f7276212ed3de431ca8c7f701ce578daa3fddca7a37c4c9c5cf4d46f246db3e20220447cf117b67b3008fd3192de3adbd515da500115bb5853a0fdd7e2e9a0eb6e9b0121021eb1d1bb35beaeadf94f59ec46d748b95a400a6e6cdc1e3ca40ac0b9b38a6328", "asm": "3045022100f7276212ed3de431ca8c7f701ce578daa3fddca7a37c4c9c5cf4d46f246db3e20220447cf117b67b3008fd3192de3adbd515da500115bb5853a0fdd7e2e9a0eb6e9b[ALL] 021eb1d1bb35beaeadf94f59ec46d748b95a400a6e6cdc1e3ca40ac0b9b38a6328"}, "vout": 23, "txid": "ebf19791064bcf2a144238794aa0f7f82d7ada760d698c752f4efb06ecbcb01c"}], "txid": "0692c9d1ae402d3f6272c0463e2f6fed201a0b9e01e297a16f63b6615932b3ad", "blocktime": 1537871767, "version": 1, "confirmations": 11493, "time": 1537871767, "locktime": 0, "vsize": 374, "size": 374}