{"hash": "06934960973d5821e1da21052d589618b665f6fbf68a58cb474f63171c01ba89", "blockhash": "0000000000000000001f76057863aec43deb6fa401d9628bb513d65a8098bfab", "vout": [{"scriptPubKey": {"reqSigs": 1, "hex": "a914194a9d1f4b228546c30143a089ba03c43966cc6987", "addresses": ["33zkCbRg7ZyNgdoarUgVtzPqhEdkqDKvHf"], "asm": "OP_HASH160 194a9d1f4b228546c30143a089ba03c43966cc69 OP_EQUAL", "type": "scripthash"}, "value": 0.00629172, "n": 0}], "hex": "01000000042c99ed76e97efe256d2377cd0ce770385e058f368c49166a95ea371f6d3fc3f2bd0000006a47304402202f6acc487f432aee63cd7cfefcc18797312c0cd4e804e4b9dba7a8f5cb4c8977022005cc88145d5616984b1e9287f955ed68e4707daa8f7917efb010a83eeed6503c0121027e01807c248fe91c1aac09f71db0179302da545b5f6e27b1e68379092225d607ffffffffd8f4ac5977e9c5e1b04cb4ef8179b56f9a258dd3b7b9bc19e7eeb1e19efe33dbbc0000006b483045022100dff4bfe1649fe485f36a6157cd9a27c01ae4832c44a52d9e4068bc38275d8e11022010da6de50bfeefcf1c369b19e3090401a9de2fb7f89b2537c732715660788c250121027e01807c248fe91c1aac09f71db0179302da545b5f6e27b1e68379092225d607ffffffffd71eae432ebb2792dc1161909b680fb11382d2f321b3cce55cd546d1f084696ac00000006a4730440220488287f003e95b2f3ac93a934e1622793371cc677625a8f00837f4397811f44202203cc58b2a1710e89e719e1a5b7a676e459eb051dfa1836d23248c7039eee893670121027e01807c248fe91c1aac09f71db0179302da545b5f6e27b1e68379092225d607ffffffff088cd6685ca9e12642230c37608bd5081cb1691f81ee5cccd6657b95e52c66e6ba0000006b483045022100a87a9b83b20f384a78e08071bc669cb2fb6a32b4b6caba3b9d7aecf13c175b9e02200a4780981be936a80fe84695a70aaee15cbda6d460e1150bcfa41fa7c08c55b70121027e01807c248fe91c1aac09f71db0179302da545b5f6e27b1e68379092225d607ffffffff01b49909000000000017a914194a9d1f4b228546c30143a089ba03c43966cc698700000000", "vin": [{"sequence": 4294967295, "scriptSig": {"hex": "47304402202f6acc487f432aee63cd7cfefcc18797312c0cd4e804e4b9dba7a8f5cb4c8977022005cc88145d5616984b1e9287f955ed68e4707daa8f7917efb010a83eeed6503c0121027e01807c248fe91c1aac09f71db0179302da545b5f6e27b1e68379092225d607", "asm": "304402202f6acc487f432aee63cd7cfefcc18797312c0cd4e804e4b9dba7a8f5cb4c8977022005cc88145d5616984b1e9287f955ed68e4707daa8f7917efb010a83eeed6503c[ALL] 027e01807c248fe91c1aac09f71db0179302da545b5f6e27b1e68379092225d607"}, "vout": 189, "txid": "f2c33f6d1f37ea956a16498c368f055e3870e70ccd77236d25fe7ee976ed992c"}, {"sequence": 4294967295, "scriptSig": {"hex": "483045022100dff4bfe1649fe485f36a6157cd9a27c01ae4832c44a52d9e4068bc38275d8e11022010da6de50bfeefcf1c369b19e3090401a9de2fb7f89b2537c732715660788c250121027e01807c248fe91c1aac09f71db0179302da545b5f6e27b1e68379092225d607", "asm": "3045022100dff4bfe1649fe485f36a6157cd9a27c01ae4832c44a52d9e4068bc38275d8e11022010da6de50bfeefcf1c369b19e3090401a9de2fb7f89b2537c732715660788c25[ALL] 027e01807c248fe91c1aac09f71db0179302da545b5f6e27b1e68379092225d607"}, "vout": 188, "txid": "db33fe9ee1b1eee719bcb9b7d38d259a6fb57981efb44cb0e1c5e97759acf4d8"}, {"sequence": 4294967295, "scriptSig": {"hex": "4730440220488287f003e95b2f3ac93a934e1622793371cc677625a8f00837f4397811f44202203cc58b2a1710e89e719e1a5b7a676e459eb051dfa1836d23248c7039eee893670121027e01807c248fe91c1aac09f71db0179302da545b5f6e27b1e68379092225d607", "asm": "30440220488287f003e95b2f3ac93a934e1622793371cc677625a8f00837f4397811f44202203cc58b2a1710e89e719e1a5b7a676e459eb051dfa1836d23248c7039eee89367[ALL] 027e01807c248fe91c1aac09f71db0179302da545b5f6e27b1e68379092225d607"}, "vout": 192, "txid": "6a6984f0d146d55ce5ccb321f3d28213b10f689b906111dc9227bb2e43ae1ed7"}, {"sequence": 4294967295, "scriptSig": {"hex": "483045022100a87a9b83b20f384a78e08071bc669cb2fb6a32b4b6caba3b9d7aecf13c175b9e02200a4780981be936a80fe84695a70aaee15cbda6d460e1150bcfa41fa7c08c55b70121027e01807c248fe91c1aac09f71db0179302da545b5f6e27b1e68379092225d607", "asm": "3045022100a87a9b83b20f384a78e08071bc669cb2fb6a32b4b6caba3b9d7aecf13c175b9e02200a4780981be936a80fe84695a70aaee15cbda6d460e1150bcfa41fa7c08c55b7[ALL] 027e01807c248fe91c1aac09f71db0179302da545b5f6e27b1e68379092225d607"}, "vout": 186, "txid": "e6662ce5957b65d6cc5cee811f69b11c08d58b60370c234226e1a95c68d68c08"}], "txid": "06934960973d5821e1da21052d589618b665f6fbf68a58cb474f63171c01ba89", "blocktime": 1537873891, "version": 1, "confirmations": 11475, "time": 1537873891, "locktime": 0, "vsize": 632, "size": 632}