{"hash": "61411adf61b03b78e56318a5d47bc7f11c68a69b69765641d26f42e21d27d5a6", "blockhash": "0000000000000000001f76057863aec43deb6fa401d9628bb513d65a8098bfab", "vout": [{"scriptPubKey": {"reqSigs": 1, "hex": "a914659c25df903d05fe08ba8cb2ea1d97a45b7920d587", "addresses": ["3AxHEGVPfPwLJybpDaU9RhhremJCX74ed9"], "asm": "OP_HASH160 659c25df903d05fe08ba8cb2ea1d97a45b7920d5 OP_EQUAL", "type": "scripthash"}, "value": 0.01149978, "n": 0}, {"scriptPubKey": {"reqSigs": 1, "hex": "a914e3e19a2befa18b53607903d5be0452478955690687", "addresses": ["3NTwaCyHqh14rVvAgt5Ur19xtxTrPcmFap"], "asm": "OP_HASH160 e3e19a2befa18b53607903d5be04524789556906 OP_EQUAL", "type": "scripthash"}, "value": 0.05045363, "n": 1}], "hex": "01000000000101cefe856150d1ba129f1da45ecea3cbb5bd8cbb4805a10b9b5b02447672a495c30100000023220020598cc331b5df795f2e7050374613ae6b5351e9ce6bb76ff8a014db8c2cf66a8cffffffff021a8c11000000000017a914659c25df903d05fe08ba8cb2ea1d97a45b7920d58773fc4c000000000017a914e3e19a2befa18b53607903d5be045247895569068704004730440220164bea6fb65ff6b57936dc7f6a69543e95161e1a876483adfd7242aa7a5dcd54022076fad480ee8fba4ea0b8f5a0bcb6cd9644eab1b48b690ffa04153e528d0c224901473044022027b0dc9edfd4943bb7267a6557acbe8372175ebd36c94203468f6cf21487b014022041a0b7e413d01c90001f973b23a12b32f974d4f3c80107b9a4931361c6b6dc3b01475221030ed676eb638b504a581aba87a51ab1d20d3e97fd15e71f12d6671e730710fff521038407424ead2b88063db2d589e50c34e1572f6b82eb9e266dec536939ee0db9eb52ae00000000", "vin": [{"txinwitness": ["", "30440220164bea6fb65ff6b57936dc7f6a69543e95161e1a876483adfd7242aa7a5dcd54022076fad480ee8fba4ea0b8f5a0bcb6cd9644eab1b48b690ffa04153e528d0c224901", "3044022027b0dc9edfd4943bb7267a6557acbe8372175ebd36c94203468f6cf21487b014022041a0b7e413d01c90001f973b23a12b32f974d4f3c80107b9a4931361c6b6dc3b01", "5221030ed676eb638b504a581aba87a51ab1d20d3e97fd15e71f12d6671e730710fff521038407424ead2b88063db2d589e50c34e1572f6b82eb9e266dec536939ee0db9eb52ae"], "sequence": 4294967295, "scriptSig": {"hex": "220020598cc331b5df795f2e7050374613ae6b5351e9ce6bb76ff8a014db8c2cf66a8c", "asm": "0020598cc331b5df795f2e7050374613ae6b5351e9ce6bb76ff8a014db8c2cf66a8c"}, "vout": 1, "txid": "c395a4727644025b9b0ba10548bb8cbdb5cba3ce5ea41d9f12bad1506185fece"}], "txid": "069843cdddb0e993aa8b0a56146bc2cd2437c0dd04edebf4af6396a95a8dde36", "blocktime": 1537873891, "version": 1, "confirmations": 11475, "time": 1537873891, "locktime": 0, "vsize": 205, "size": 370}