{"hash": "069b2634f4376ef6f2c1b167d347b54d335da2b0a9f2e4ea8bc19299df7c005a", "blockhash": "0000000000000000001f0ddff1eddb255c1121bcd4da4f1bc9a0da00cae72433", "vout": [{"scriptPubKey": {"reqSigs": 1, "hex": "76a91494db5ef5a2a256ca1873a34aab09f4509dd5b8e288ac", "addresses": ["1Ea5oYwdAE3TQGEQ8BHgDxhQZ3aH3BRYzE"], "asm": "OP_DUP OP_HASH160 94db5ef5a2a256ca1873a34aab09f4509dd5b8e2 OP_EQUALVERIFY OP_CHECKSIG", "type": "pubkeyhash"}, "value": 0.10248802, "n": 0}, {"scriptPubKey": {"reqSigs": 1, "hex": "76a914608daa2ba864541a101c400a778e05d8379f1fca88ac", "addresses": ["19oXaTK1G4n1XHztW5U5hYZ31tKwgpWxnM"], "asm": "OP_DUP OP_HASH160 608daa2ba864541a101c400a778e05d8379f1fca OP_EQUALVERIFY OP_CHECKSIG", "type": "pubkeyhash"}, "value": 0.137, "n": 1}], "hex": "0100000001c45633716a7d2466e14cdca001b879df916bdde95617dae30fefb2c80a956e4c030000006b48304502210086c8184507083b972567034f37cdfd6add027e485b75dc1c181c01a63169e7600220100234390bbcfb429374f9dffb19d000aa5f14a8b2769ea3d9c36d16650e9f76012102ecf5229cb9e7379780c078157b8a946b09fdc212c2352a803784ab4324644572fdffffff0262629c00000000001976a91494db5ef5a2a256ca1873a34aab09f4509dd5b8e288aca00bd100000000001976a914608daa2ba864541a101c400a778e05d8379f1fca88ac11490800", "vin": [{"sequence": 4294967293, "scriptSig": {"hex": "48304502210086c8184507083b972567034f37cdfd6add027e485b75dc1c181c01a63169e7600220100234390bbcfb429374f9dffb19d000aa5f14a8b2769ea3d9c36d16650e9f76012102ecf5229cb9e7379780c078157b8a946b09fdc212c2352a803784ab4324644572", "asm": "304502210086c8184507083b972567034f37cdfd6add027e485b75dc1c181c01a63169e7600220100234390bbcfb429374f9dffb19d000aa5f14a8b2769ea3d9c36d16650e9f76[ALL] 02ecf5229cb9e7379780c078157b8a946b09fdc212c2352a803784ab4324644572"}, "vout": 3, "txid": "4c6e950ac8b2ef0fe3da1756e9dd6b91df79b801a0dc4ce166247d6a713356c4"}], "txid": "069b2634f4376ef6f2c1b167d347b54d335da2b0a9f2e4ea8bc19299df7c005a", "blocktime": 1537872018, "version": 1, "confirmations": 11489, "time": 1537872018, "locktime": 542993, "vsize": 226, "size": 226}