{"hash": "069da3b83af27d1e75b70509a23b65b9566d209969b403312e6473f849b76199", "blockhash": "0000000000000000000e13cef7c366c0283d82e591d1acd082e914b08063cdf1", "vout": [{"scriptPubKey": {"reqSigs": 1, "hex": "a9144251946304ab2a16b4351cfff8d35fc113fdbbf487", "addresses": ["37jgFTTieL979pBuR918KvaLVhBYq6aJaQ"], "asm": "OP_HASH160 4251946304ab2a16b4351cfff8d35fc113fdbbf4 OP_EQUAL", "type": "scripthash"}, "value": 0.00465, "n": 0}, {"scriptPubKey": {"reqSigs": 1, "hex": "76a91415904d68499ceed9053b9803bfa96b963494544e88ac", "addresses": ["12y24LKQM5E22iQA6ziZMq2ve2gVPUvp3c"], "asm": "OP_DUP OP_HASH160 15904d68499ceed9053b9803bfa96b963494544e OP_EQUALVERIFY OP_CHECKSIG", "type": "pubkeyhash"}, "value": 0.13696328, "n": 1}], "hex": "0100000001dfdbd3c9435a34f2d73c71b614fbeebd75741d3971a76b01ad92df0380aea975010000006a47304402206b0911e5040d13622bcbd2a9e957cc5b7bec0f0a0557f21a5698bd562723c4dd022016a4b5ec4fbc23736e3ce2bcb226e1ad71b3b70e19b8229eed196bb11bf96d87012102076972301eae2218a9becdea0379c8cb6da0a604d08ee3c1e32da10e724f0686fdffffff02681807000000000017a9144251946304ab2a16b4351cfff8d35fc113fdbbf48748fdd000000000001976a91415904d68499ceed9053b9803bfa96b963494544e88ac10490800", "vin": [{"sequence": 4294967293, "scriptSig": {"hex": "47304402206b0911e5040d13622bcbd2a9e957cc5b7bec0f0a0557f21a5698bd562723c4dd022016a4b5ec4fbc23736e3ce2bcb226e1ad71b3b70e19b8229eed196bb11bf96d87012102076972301eae2218a9becdea0379c8cb6da0a604d08ee3c1e32da10e724f0686", "asm": "304402206b0911e5040d13622bcbd2a9e957cc5b7bec0f0a0557f21a5698bd562723c4dd022016a4b5ec4fbc23736e3ce2bcb226e1ad71b3b70e19b8229eed196bb11bf96d87[ALL] 02076972301eae2218a9becdea0379c8cb6da0a604d08ee3c1e32da10e724f0686"}, "vout": 1, "txid": "75a9ae8003df92ad016ba771391d7475bdeefb14b6713cd7f2345a43c9d3dbdf"}], "txid": "069da3b83af27d1e75b70509a23b65b9566d209969b403312e6473f849b76199", "blocktime": 1537871767, "version": 1, "confirmations": 11493, "time": 1537871767, "locktime": 542992, "vsize": 223, "size": 223}