{"hash": "06a05b6da7520529f4643eadf8c128c59ce0edb5f2f549d2f0dc17c64fd1a073", "blockhash": "0000000000000000001e0dab787dd257d1dbfcb92a98c2207d5e1078be1f4165", "vout": [{"scriptPubKey": {"type": "nulldata", "hex": "6a146f6d6e69000000000000001f000006d23ad5f800", "asm": "OP_RETURN 6f6d6e69000000000000001f000006d23ad5f800"}, "value": 0.0, "n": 0}, {"scriptPubKey": {"reqSigs": 1, "hex": "76a9144af8ea583bc8b22147f3f9b2b061d1c2a0f2adcb88ac", "addresses": ["17qRC9CC6NZzQPuKT6geVQD4edypaimUFJ"], "asm": "OP_DUP OP_HASH160 4af8ea583bc8b22147f3f9b2b061d1c2a0f2adcb OP_EQUALVERIFY OP_CHECKSIG", "type": "pubkeyhash"}, "value": 0.00841789, "n": 1}, {"scriptPubKey": {"reqSigs": 1, "hex": "76a914a25dec4d0011064ef106a983c39c7a540699f22088ac", "addresses": ["1FoWyxwPXuj4C6abqwhjDWdz6D4PZgYRjA"], "asm": "OP_DUP OP_HASH160 a25dec4d0011064ef106a983c39c7a540699f220 OP_EQUALVERIFY OP_CHECKSIG", "type": "pubkeyhash"}, "value": 5.46e-06, "n": 2}], "hex": "010000000a0707158c029ba12efc47de5194699b5f2485256010ef2217bac2f75be9a9c4ed020000006b483045022100af17d69abc96151d9c216b906ab60d10c9aa206fc9cc3577ea2590ddcbf93121022079895a5cfbf5c62f98c879526de2645d3d8a90a7af27576e6c8ce59249f81b8c0121020b6c40cd6871c35862d744f549b30efaf8a9a55502098a44a3aacf3456cba187feffffff09602f4f547597d980f331cc6686e89b728ffafae94aefe84f85ff25cfe92a2e010000006a47304402206bedb9a149d365dfbad8f8f696ea4346c0bf1f0e6efe9f553091793fbf43e7c80220739543d49643acacd8ccab50cae1d80c1cf3f06213639e698b26826a0f039a020121020b6c40cd6871c35862d744f549b30efaf8a9a55502098a44a3aacf3456cba187feffffff112c73f71c7be2e03c580d1fe77a8d65b551a840b42379d5309efd5393e80b17020000006b483045022100eb273616684504b32389930016cdd60da5ec81c8df15cef41bb098257e4df82202206b5bf39f12d830c4ed38470c8e577a24ffa129fa654fb67eb1f3a5b6d666e9180121020b6c40cd6871c35862d744f549b30efaf8a9a55502098a44a3aacf3456cba187feffffff176b2495274b2a67adea72d35b28cd0c8f2d85cccdfc9a1728cf34b6cb647081020000006b483045022100f1a3ef5ed4180f3a86f4217954bcbf11e314964f0f800eb72e75fa3eeea9ca9f0220659a58204f773e3a0d9596920d87a76d2438ed6df716d34d931ea7b3c8f6766b0121020b6c40cd6871c35862d744f549b30efaf8a9a55502098a44a3aacf3456cba187feffffff18e5e3e603c264eed3066a5b03a22dfe547c1272edfd7087338cf2564974d547020000006b483045022100f7e3a9233217cb2d765c49e014edb26885aacff8bd9ecf0ae9e12f640cc8d88b02204fabb43a01637dbcd5996e422c58201ce63cc5baf9c464abb0e969756882df800121020b6c40cd6871c35862d744f549b30efaf8a9a55502098a44a3aacf3456cba187feffffff3085bdda26aa6ddfb73ede91288fc544a684e5aeadbf2e834d9a6efbcedadee1010000006b483045022100e8bcf084b0c348c3097f98561d4113d924a712f2948893f044b614c914d5f9f502200293cdb66482e8e64d1039aee8b2695408e10280c3f6140e8080a54cba351fff0121020b6c40cd6871c35862d744f549b30efaf8a9a55502098a44a3aacf3456cba187feffffff341cbaf3cfef07887e8c27871f6f03c5b212dcac9db650ba111aa1a536863cd1020000006a47304402207d40122a4f275b599a5822edf5472d24f4e4f5e5a175260a31baf35e4f559fd302202c0e12b624d5affede087a4ba26d000756fdaa5051b441741f89f4d8ee10be520121020b6c40cd6871c35862d744f549b30efaf8a9a55502098a44a3aacf3456cba187feffffff3e503ccc486f200cca399d758bd8aa9435b7f8d22b67f46990007729b92be2ae010000006b483045022100e8c2644448dbcd709dee77c159d86dddc78aff24df3eed6b91f6126411883bba022052e95250b65caefa737289fd4f5ea4da1e3ecd48e6de661c14f255a6b572e2e50121020b6c40cd6871c35862d744f549b30efaf8a9a55502098a44a3aacf3456cba187feffffff00067453534f8b16c36b80098081bb8b5433bc16391f5265b17104800b5d2a85020000006a473044022002821fb69105d0690d2d3e4df6adaaaf184152d36224dcc8ff06d79ce64df87b02204f26e14c2ade82cdc2a1a8afd865e0d3b1fa4ab268967e1df241ee9e9af86e640121020b6c40cd6871c35862d744f549b30efaf8a9a55502098a44a3aacf3456cba187feffffff0164d321642109ce2fe2a46f847094a42aa2474fb6df2d2c16f253ddf68c04e9020000006b483045022100f8157a0ea57194e2ff45156a9d0be740a304c95c451099f3e7e3b653bd51f0a402201cf2f61657b80c164364b15006687b0852949e22f5531d93d03ca783824df49a0121020b6c40cd6871c35862d744f549b30efaf8a9a55502098a44a3aacf3456cba187feffffff030000000000000000166a146f6d6e69000000000000001f000006d23ad5f8003dd80c00000000001976a9144af8ea583bc8b22147f3f9b2b061d1c2a0f2adcb88ac22020000000000001976a914a25dec4d0011064ef106a983c39c7a540699f22088aceb480800", "vin": [{"sequence": 4294967294, "scriptSig": {"hex": "483045022100af17d69abc96151d9c216b906ab60d10c9aa206fc9cc3577ea2590ddcbf93121022079895a5cfbf5c62f98c879526de2645d3d8a90a7af27576e6c8ce59249f81b8c0121020b6c40cd6871c35862d744f549b30efaf8a9a55502098a44a3aacf3456cba187", "asm": "3045022100af17d69abc96151d9c216b906ab60d10c9aa206fc9cc3577ea2590ddcbf93121022079895a5cfbf5c62f98c879526de2645d3d8a90a7af27576e6c8ce59249f81b8c[ALL] 020b6c40cd6871c35862d744f549b30efaf8a9a55502098a44a3aacf3456cba187"}, "vout": 2, "txid": "edc4a9e95bf7c2ba1722ef10602585245f9b699451de47fc2ea19b028c150707"}, {"sequence": 4294967294, "scriptSig": {"hex": "47304402206bedb9a149d365dfbad8f8f696ea4346c0bf1f0e6efe9f553091793fbf43e7c80220739543d49643acacd8ccab50cae1d80c1cf3f06213639e698b26826a0f039a020121020b6c40cd6871c35862d744f549b30efaf8a9a55502098a44a3aacf3456cba187", "asm": "304402206bedb9a149d365dfbad8f8f696ea4346c0bf1f0e6efe9f553091793fbf43e7c80220739543d49643acacd8ccab50cae1d80c1cf3f06213639e698b26826a0f039a02[ALL] 020b6c40cd6871c35862d744f549b30efaf8a9a55502098a44a3aacf3456cba187"}, "vout": 1, "txid": "2e2ae9cf25ff854fe8ef4ae9fafa8f729be88666cc31f380d99775544f2f6009"}, {"sequence": 4294967294, "scriptSig": {"hex": "483045022100eb273616684504b32389930016cdd60da5ec81c8df15cef41bb098257e4df82202206b5bf39f12d830c4ed38470c8e577a24ffa129fa654fb67eb1f3a5b6d666e9180121020b6c40cd6871c35862d744f549b30efaf8a9a55502098a44a3aacf3456cba187", "asm": "3045022100eb273616684504b32389930016cdd60da5ec81c8df15cef41bb098257e4df82202206b5bf39f12d830c4ed38470c8e577a24ffa129fa654fb67eb1f3a5b6d666e918[ALL] 020b6c40cd6871c35862d744f549b30efaf8a9a55502098a44a3aacf3456cba187"}, "vout": 2, "txid": "170be89353fd9e30d57923b440a851b5658d7ae71f0d583ce0e27b1cf7732c11"}, {"sequence": 4294967294, "scriptSig": {"hex": "483045022100f1a3ef5ed4180f3a86f4217954bcbf11e314964f0f800eb72e75fa3eeea9ca9f0220659a58204f773e3a0d9596920d87a76d2438ed6df716d34d931ea7b3c8f6766b0121020b6c40cd6871c35862d744f549b30efaf8a9a55502098a44a3aacf3456cba187", "asm": "3045022100f1a3ef5ed4180f3a86f4217954bcbf11e314964f0f800eb72e75fa3eeea9ca9f0220659a58204f773e3a0d9596920d87a76d2438ed6df716d34d931ea7b3c8f6766b[ALL] 020b6c40cd6871c35862d744f549b30efaf8a9a55502098a44a3aacf3456cba187"}, "vout": 2, "txid": "817064cbb634cf28179afccdcc852d8f0ccd285bd372eaad672a4b2795246b17"}, {"sequence": 4294967294, "scriptSig": {"hex": "483045022100f7e3a9233217cb2d765c49e014edb26885aacff8bd9ecf0ae9e12f640cc8d88b02204fabb43a01637dbcd5996e422c58201ce63cc5baf9c464abb0e969756882df800121020b6c40cd6871c35862d744f549b30efaf8a9a55502098a44a3aacf3456cba187", "asm": "3045022100f7e3a9233217cb2d765c49e014edb26885aacff8bd9ecf0ae9e12f640cc8d88b02204fabb43a01637dbcd5996e422c58201ce63cc5baf9c464abb0e969756882df80[ALL] 020b6c40cd6871c35862d744f549b30efaf8a9a55502098a44a3aacf3456cba187"}, "vout": 2, "txid": "47d5744956f28c338770fded72127c54fe2da2035b6a06d3ee64c203e6e3e518"}, {"sequence": 4294967294, "scriptSig": {"hex": "483045022100e8bcf084b0c348c3097f98561d4113d924a712f2948893f044b614c914d5f9f502200293cdb66482e8e64d1039aee8b2695408e10280c3f6140e8080a54cba351fff0121020b6c40cd6871c35862d744f549b30efaf8a9a55502098a44a3aacf3456cba187", "asm": "3045022100e8bcf084b0c348c3097f98561d4113d924a712f2948893f044b614c914d5f9f502200293cdb66482e8e64d1039aee8b2695408e10280c3f6140e8080a54cba351fff[ALL] 020b6c40cd6871c35862d744f549b30efaf8a9a55502098a44a3aacf3456cba187"}, "vout": 1, "txid": "e1dedacefb6e9a4d832ebfadaee584a644c58f2891de3eb7df6daa26dabd8530"}, {"sequence": 4294967294, "scriptSig": {"hex": "47304402207d40122a4f275b599a5822edf5472d24f4e4f5e5a175260a31baf35e4f559fd302202c0e12b624d5affede087a4ba26d000756fdaa5051b441741f89f4d8ee10be520121020b6c40cd6871c35862d744f549b30efaf8a9a55502098a44a3aacf3456cba187", "asm": "304402207d40122a4f275b599a5822edf5472d24f4e4f5e5a175260a31baf35e4f559fd302202c0e12b624d5affede087a4ba26d000756fdaa5051b441741f89f4d8ee10be52[ALL] 020b6c40cd6871c35862d744f549b30efaf8a9a55502098a44a3aacf3456cba187"}, "vout": 2, "txid": "d13c8636a5a11a11ba50b69dacdc12b2c5036f1f87278c7e8807efcff3ba1c34"}, {"sequence": 4294967294, "scriptSig": {"hex": "483045022100e8c2644448dbcd709dee77c159d86dddc78aff24df3eed6b91f6126411883bba022052e95250b65caefa737289fd4f5ea4da1e3ecd48e6de661c14f255a6b572e2e50121020b6c40cd6871c35862d744f549b30efaf8a9a55502098a44a3aacf3456cba187", "asm": "3045022100e8c2644448dbcd709dee77c159d86dddc78aff24df3eed6b91f6126411883bba022052e95250b65caefa737289fd4f5ea4da1e3ecd48e6de661c14f255a6b572e2e5[ALL] 020b6c40cd6871c35862d744f549b30efaf8a9a55502098a44a3aacf3456cba187"}, "vout": 1, "txid": "aee22bb92977009069f4672bd2f8b73594aad88b759d39ca0c206f48cc3c503e"}, {"sequence": 4294967294, "scriptSig": {"hex": "473044022002821fb69105d0690d2d3e4df6adaaaf184152d36224dcc8ff06d79ce64df87b02204f26e14c2ade82cdc2a1a8afd865e0d3b1fa4ab268967e1df241ee9e9af86e640121020b6c40cd6871c35862d744f549b30efaf8a9a55502098a44a3aacf3456cba187", "asm": "3044022002821fb69105d0690d2d3e4df6adaaaf184152d36224dcc8ff06d79ce64df87b02204f26e14c2ade82cdc2a1a8afd865e0d3b1fa4ab268967e1df241ee9e9af86e64[ALL] 020b6c40cd6871c35862d744f549b30efaf8a9a55502098a44a3aacf3456cba187"}, "vout": 2, "txid": "852a5d0b800471b165521f3916bc33548bbb818009806bc3168b4f5353740600"}, {"sequence": 4294967294, "scriptSig": {"hex": "483045022100f8157a0ea57194e2ff45156a9d0be740a304c95c451099f3e7e3b653bd51f0a402201cf2f61657b80c164364b15006687b0852949e22f5531d93d03ca783824df49a0121020b6c40cd6871c35862d744f549b30efaf8a9a55502098a44a3aacf3456cba187", "asm": "3045022100f8157a0ea57194e2ff45156a9d0be740a304c95c451099f3e7e3b653bd51f0a402201cf2f61657b80c164364b15006687b0852949e22f5531d93d03ca783824df49a[ALL] 020b6c40cd6871c35862d744f549b30efaf8a9a55502098a44a3aacf3456cba187"}, "vout": 2, "txid": "e9048cf6dd53f2162c2ddfb64f47a22aa49470846fa4e22fce09216421d36401"}], "txid": "06a05b6da7520529f4643eadf8c128c59ce0edb5f2f549d2f0dc17c64fd1a073", "blocktime": 1537872475, "version": 1, "confirmations": 11487, "time": 1537872475, "locktime": 542955, "vsize": 1586, "size": 1586}