{"hash": "06a085b70df558eae766086e9908775a2058b01261b51b04f2a060c48ad3dadf", "blockhash": "0000000000000000000baef3f32e3676a92c3b2e5da21b426e4f302fc371ce76", "vout": [{"scriptPubKey": {"reqSigs": 1, "hex": "76a9147b13e612964339b5410c069832fc69bc01ea900c88ac", "addresses": ["1CDmxBb1SF8HufBKRoVRTa6asgsxzmD9LA"], "asm": "OP_DUP OP_HASH160 7b13e612964339b5410c069832fc69bc01ea900c OP_EQUALVERIFY OP_CHECKSIG", "type": "pubkeyhash"}, "value": 0.02349, "n": 0}, {"scriptPubKey": {"reqSigs": 1, "hex": "76a9140714a58bae0f9bf597cbfe222e129eb89c07cdf588ac", "addresses": ["1eSTu69749KnjkNZCyqfDztSwekCHaiCh"], "asm": "OP_DUP OP_HASH160 0714a58bae0f9bf597cbfe222e129eb89c07cdf5 OP_EQUALVERIFY OP_CHECKSIG", "type": "pubkeyhash"}, "value": 0.00782258, "n": 1}], "hex": "01000000011c4197c96c216048d640308852ef7bf3fc1c1d6f5c31c2dfee2ea0e56de602b1010000006b483045022100feaf87e2470701e9311c54d3b89b79702a8953f1ea7fab9d11dc1207c7665d32022043893debf6bfc56afe310059bc380d0bc3d4b55efb508cb6fb2905666a9bd097012102e1a4bdecd6edfe4d7b16ac7179253ba04e7470fb2a6484f1741b574eb2aeef8affffffff02c8d72300000000001976a9147b13e612964339b5410c069832fc69bc01ea900c88acb2ef0b00000000001976a9140714a58bae0f9bf597cbfe222e129eb89c07cdf588ac00000000", "vin": [{"sequence": 4294967295, "scriptSig": {"hex": "483045022100feaf87e2470701e9311c54d3b89b79702a8953f1ea7fab9d11dc1207c7665d32022043893debf6bfc56afe310059bc380d0bc3d4b55efb508cb6fb2905666a9bd097012102e1a4bdecd6edfe4d7b16ac7179253ba04e7470fb2a6484f1741b574eb2aeef8a", "asm": "3045022100feaf87e2470701e9311c54d3b89b79702a8953f1ea7fab9d11dc1207c7665d32022043893debf6bfc56afe310059bc380d0bc3d4b55efb508cb6fb2905666a9bd097[ALL] 02e1a4bdecd6edfe4d7b16ac7179253ba04e7470fb2a6484f1741b574eb2aeef8a"}, "vout": 1, "txid": "b102e66de5a02eeedfc2315c6f1d1cfcf37bef52883040d64860216cc997411c"}], "txid": "06a085b70df558eae766086e9908775a2058b01261b51b04f2a060c48ad3dadf", "blocktime": 1537876114, "version": 1, "confirmations": 11460, "time": 1537876114, "locktime": 0, "vsize": 226, "size": 226}