{"hash": "5aa0c96049f1ac7510abc0e549e4be1dce702e8aea5990ccc3c10a64889fd297", "blockhash": "0000000000000000000baef3f32e3676a92c3b2e5da21b426e4f302fc371ce76", "vout": [{"scriptPubKey": {"reqSigs": 1, "hex": "a914e7f6008f3f326e93da7121860fd7c9fb06a1b1c687", "addresses": ["3NqWiPTpivKDN1AwKpV9EhjzZZwTDwSwLv"], "asm": "OP_HASH160 e7f6008f3f326e93da7121860fd7c9fb06a1b1c6 OP_EQUAL", "type": "scripthash"}, "value": 1.017e-05, "n": 0}, {"scriptPubKey": {"reqSigs": 1, "hex": "a9141d7370ccde4590204155e4074f69743a8e4fac0287", "addresses": ["34Njp4ZKtmCDfqqps26wHBYQQGUo2pGkLi"], "asm": "OP_HASH160 1d7370ccde4590204155e4074f69743a8e4fac02 OP_EQUAL", "type": "scripthash"}, "value": 0.00411478, "n": 1}], "hex": "01000000000101f50cb4ccca1f8025ea5b6db342b79eb3fc02ff357b9c1166c8d3b58683ad0bbc0100000023220020f63dfc12340f6360d0251c22746d6b56093e3243e96ca012a65484a5d9cf0ec0ffffffff02f90300000000000017a914e7f6008f3f326e93da7121860fd7c9fb06a1b1c687564706000000000017a9141d7370ccde4590204155e4074f69743a8e4fac02870400483045022100e249625a8e448a05f4be5ffba2ec92fb8bd1b2167d08a28e681245c927edf60f02202b39a08687c44438d7dc38140babd2e4937ebc033bd61d2f9d49a125450a943001483045022100d2164390354b9c9e9fd09630dfd14419b1a2b16f89869af4dccf6fcf4022378902203b1a69d64f46a112dd2841c9f32b42fd1bf6e4b2e6556d5578274e9a472a507a0147522102097067a6a0cc130a9a6f6577b47bf369b840a79de31cd7457187994266b1bb7c2103338f346cab6ba87fe940591a03ac234be06520c5ab386d4b6632e8eef0d0db7652ae00000000", "vin": [{"txinwitness": ["", "3045022100e249625a8e448a05f4be5ffba2ec92fb8bd1b2167d08a28e681245c927edf60f02202b39a08687c44438d7dc38140babd2e4937ebc033bd61d2f9d49a125450a943001", "3045022100d2164390354b9c9e9fd09630dfd14419b1a2b16f89869af4dccf6fcf4022378902203b1a69d64f46a112dd2841c9f32b42fd1bf6e4b2e6556d5578274e9a472a507a01", "522102097067a6a0cc130a9a6f6577b47bf369b840a79de31cd7457187994266b1bb7c2103338f346cab6ba87fe940591a03ac234be06520c5ab386d4b6632e8eef0d0db7652ae"], "sequence": 4294967295, "scriptSig": {"hex": "220020f63dfc12340f6360d0251c22746d6b56093e3243e96ca012a65484a5d9cf0ec0", "asm": "0020f63dfc12340f6360d0251c22746d6b56093e3243e96ca012a65484a5d9cf0ec0"}, "vout": 1, "txid": "bc0bad8386b5d3c866119c7b35ff02fcb39eb742b36d5bea25801fcaccb40cf5"}], "txid": "06a0d409d10b67ba7d73ea275f4ddd82c1e32b93e9752fca4afba787213d4bcc", "blocktime": 1537876114, "version": 1, "confirmations": 11462, "time": 1537876114, "locktime": 0, "vsize": 206, "size": 372}