{"hash": "06a2cb444d9964174da7f5803737038c84a36935d5313c95bc4ae90099884590", "blockhash": "000000000000000000022b45ed06c6f4ccd3cf7fb5ba4856ebd2e58215665228", "vout": [{"scriptPubKey": {"reqSigs": 1, "hex": "76a914663760c78af2096c62b857106ff2d8c8936c78da88ac", "addresses": ["1AKUGJSb2f1NdzMWTzKcyaaXCQFRPLuMbH"], "asm": "OP_DUP OP_HASH160 663760c78af2096c62b857106ff2d8c8936c78da OP_EQUALVERIFY OP_CHECKSIG", "type": "pubkeyhash"}, "value": 0.00337804, "n": 0}, {"scriptPubKey": {"reqSigs": 1, "hex": "76a91433af33a21502ef3fcf15b80259121ea5bca1080888ac", "addresses": ["15iHM1bi4FmPCfbv2pmXBnp6ZU1g9J67AB"], "asm": "OP_DUP OP_HASH160 33af33a21502ef3fcf15b80259121ea5bca10808 OP_EQUALVERIFY OP_CHECKSIG", "type": "pubkeyhash"}, "value": 0.00619083, "n": 1}], "hex": "01000000010a70d3c28ed4ba25775f8ad2ff83bc162f0ce988fa5e77d1ed48f15008bb8584010000006b483045022100b6e87e6cd5f6789c48f36b39fae895a9106ebb0e892227b28277b325c0782ad302205bf8c5f70c1cb084bd5fd6dd2de9c69d4523fdc9982e48a9a83e983f7ca8eaee012102f0cc87ce8ac5fb8bcc37fc9d6036fdb58e97fb3cfab86834535852040865de21ffffffff028c270500000000001976a914663760c78af2096c62b857106ff2d8c8936c78da88ac4b720900000000001976a91433af33a21502ef3fcf15b80259121ea5bca1080888ac00000000", "vin": [{"sequence": 4294967295, "scriptSig": {"hex": "483045022100b6e87e6cd5f6789c48f36b39fae895a9106ebb0e892227b28277b325c0782ad302205bf8c5f70c1cb084bd5fd6dd2de9c69d4523fdc9982e48a9a83e983f7ca8eaee012102f0cc87ce8ac5fb8bcc37fc9d6036fdb58e97fb3cfab86834535852040865de21", "asm": "3045022100b6e87e6cd5f6789c48f36b39fae895a9106ebb0e892227b28277b325c0782ad302205bf8c5f70c1cb084bd5fd6dd2de9c69d4523fdc9982e48a9a83e983f7ca8eaee[ALL] 02f0cc87ce8ac5fb8bcc37fc9d6036fdb58e97fb3cfab86834535852040865de21"}, "vout": 1, "txid": "8485bb0850f148edd1775efa88e90c2f16bc83ffd28a5f7725bad48ec2d3700a"}], "txid": "06a2cb444d9964174da7f5803737038c84a36935d5313c95bc4ae90099884590", "blocktime": 1537869901, "version": 1, "confirmations": 11523, "time": 1537869901, "locktime": 0, "vsize": 226, "size": 226}