{"hash": "06ac8bdc2b968d1536518f8ee1e0783dfed1ea4ae3dad760a3df46b6e56c4a79", "blockhash": "0000000000000000001f76057863aec43deb6fa401d9628bb513d65a8098bfab", "vout": [{"scriptPubKey": {"reqSigs": 1, "hex": "76a914c930b894cb169b90edd972d042f4f3a7d2b9d2c588ac", "addresses": ["1KLoBkieMJWTmJjxMvR1YiKt83QMA8Chzu"], "asm": "OP_DUP OP_HASH160 c930b894cb169b90edd972d042f4f3a7d2b9d2c5 OP_EQUALVERIFY OP_CHECKSIG", "type": "pubkeyhash"}, "value": 0.0464335, "n": 0}, {"scriptPubKey": {"reqSigs": 1, "hex": "76a9142aeccb777695bf6d12b8855db4eddb3af5cd166e88ac", "addresses": ["14uy3r9mtUCMMALvkARSewN7HqxVfHuq9Y"], "asm": "OP_DUP OP_HASH160 2aeccb777695bf6d12b8855db4eddb3af5cd166e OP_EQUALVERIFY OP_CHECKSIG", "type": "pubkeyhash"}, "value": 0.0208663, "n": 1}], "hex": "02000000013852768d90a4d0d756f66a39ba65b969d8460beb0c9aadb58376d5803acc408e0d0000006a47304402200689fb56b38f088dd49dbf580b7e406509da46edea596eb8b2a127eb204b6c48022077c0ef9c4f4b4d55d16527748c730be87c1fd639fce298f2b403ce7b52c25ab201210362d6a33813c1839ac5ab586f4d6cfcba34a061d0e57cb630c8cfd8f7f3bb3880feffffff0216da4600000000001976a914c930b894cb169b90edd972d042f4f3a7d2b9d2c588ace6d61f00000000001976a9142aeccb777695bf6d12b8855db4eddb3af5cd166e88ac14490800", "vin": [{"sequence": 4294967294, "scriptSig": {"hex": "47304402200689fb56b38f088dd49dbf580b7e406509da46edea596eb8b2a127eb204b6c48022077c0ef9c4f4b4d55d16527748c730be87c1fd639fce298f2b403ce7b52c25ab201210362d6a33813c1839ac5ab586f4d6cfcba34a061d0e57cb630c8cfd8f7f3bb3880", "asm": "304402200689fb56b38f088dd49dbf580b7e406509da46edea596eb8b2a127eb204b6c48022077c0ef9c4f4b4d55d16527748c730be87c1fd639fce298f2b403ce7b52c25ab2[ALL] 0362d6a33813c1839ac5ab586f4d6cfcba34a061d0e57cb630c8cfd8f7f3bb3880"}, "vout": 13, "txid": "8e40cc3a80d57683b5ad9a0ceb0b46d869b965ba396af656d7d0a4908d765238"}], "txid": "06ac8bdc2b968d1536518f8ee1e0783dfed1ea4ae3dad760a3df46b6e56c4a79", "blocktime": 1537873891, "version": 2, "confirmations": 11474, "time": 1537873891, "locktime": 542996, "vsize": 225, "size": 225}