{"hash": "06acb1190137ae1e87cb8bc75180af99859bdc8c3763f9b06fb40beb3fff430d", "blockhash": "0000000000000000000e13cef7c366c0283d82e591d1acd082e914b08063cdf1", "vout": [{"scriptPubKey": {"reqSigs": 1, "hex": "76a9145a50c7ee58e18fce0e4f53dbc950c0b4ee9474b488ac", "addresses": ["19EYb2VMhkgRXJ5NY2iXKpXRJ54Sgx79pE"], "asm": "OP_DUP OP_HASH160 5a50c7ee58e18fce0e4f53dbc950c0b4ee9474b4 OP_EQUALVERIFY OP_CHECKSIG", "type": "pubkeyhash"}, "value": 0.00051384, "n": 0}, {"scriptPubKey": {"reqSigs": 1, "hex": "76a914e618347720b9eaacefb0207f2aa0cde4630f9e6688ac", "addresses": ["1MydQumuraHS2XGTgxUyFx2fBUNtBM8FpU"], "asm": "OP_DUP OP_HASH160 e618347720b9eaacefb0207f2aa0cde4630f9e66 OP_EQUALVERIFY OP_CHECKSIG", "type": "pubkeyhash"}, "value": 0.015633, "n": 1}], "hex": "01000000049f3628af6152062eff0d80914f7608cc1c35e8618d2284640225c9f60991990d000000006a47304402206337e2af5f44e22b70dfed31652b19aa36f28c5ca695cd91900e47c72c6a553d022075f71149048869800b670818d7b129ab67fc558e8efcf2810dc3a367aef2a320012103600ee8335d8a74ab4c70d57448d502b06941a438f7f3cf4bab37778e54c0279affffffffab55515633a23bfa4b522fef46782bcb5a906dc349ebeda5812f679aa6ff3a19000000006a47304402206e783c92ab406b6b3cc1d244db90bf72e7a32d9e4502367628feb9eda4faa1490220459d1a0579c64af0a78af05e314054511345c3bfa21680439e94876fa8105599012103b1b86f9c3602ba3439fb54f7a7d6ecb7e1e9173a784b5253eb73661f20fadc7cffffffff97982a6e90618c03daad5a8aa1e9c16d435240d02d861ff2f76057fe565cd74e000000006b483045022100d3edf3bd9ea22101f22225eb08f9a2fa42c15ba7362dba643d0a926ef5874697022075908da5a2d47bc518b3135976b192169267c2747f5ebab59775deab6c28df25012102e658775cb88b582a669ecaa32744769b0c7c8219230b234d25caca754d43384affffffffbd19224b11041fa521aa4ae1d78249e14446f23d3e3051dd13603e5f0bdca293000000006a473044022024adf2bfe800e6ebf2602129f169befb01f44937fd24eb1087379b96527e54ac02204c3a4601b126741df2e4abaa43a6a17cd5287a7c7810250750c8b50617e68bdc0121023f628bcf8a36abacc3c1617b4e54b47e2efbf066b6551d6ab0eddb52af382b70ffffffff02b8c80000000000001976a9145a50c7ee58e18fce0e4f53dbc950c0b4ee9474b488aca4da1700000000001976a914e618347720b9eaacefb0207f2aa0cde4630f9e6688ac00000000", "vin": [{"sequence": 4294967295, "scriptSig": {"hex": "47304402206337e2af5f44e22b70dfed31652b19aa36f28c5ca695cd91900e47c72c6a553d022075f71149048869800b670818d7b129ab67fc558e8efcf2810dc3a367aef2a320012103600ee8335d8a74ab4c70d57448d502b06941a438f7f3cf4bab37778e54c0279a", "asm": "304402206337e2af5f44e22b70dfed31652b19aa36f28c5ca695cd91900e47c72c6a553d022075f71149048869800b670818d7b129ab67fc558e8efcf2810dc3a367aef2a320[ALL] 03600ee8335d8a74ab4c70d57448d502b06941a438f7f3cf4bab37778e54c0279a"}, "vout": 0, "txid": "0d999109f6c925026484228d61e8351ccc08764f91800dff2e065261af28369f"}, {"sequence": 4294967295, "scriptSig": {"hex": "47304402206e783c92ab406b6b3cc1d244db90bf72e7a32d9e4502367628feb9eda4faa1490220459d1a0579c64af0a78af05e314054511345c3bfa21680439e94876fa8105599012103b1b86f9c3602ba3439fb54f7a7d6ecb7e1e9173a784b5253eb73661f20fadc7c", "asm": "304402206e783c92ab406b6b3cc1d244db90bf72e7a32d9e4502367628feb9eda4faa1490220459d1a0579c64af0a78af05e314054511345c3bfa21680439e94876fa8105599[ALL] 03b1b86f9c3602ba3439fb54f7a7d6ecb7e1e9173a784b5253eb73661f20fadc7c"}, "vout": 0, "txid": "193affa69a672f81a5edeb49c36d905acb2b7846ef2f524bfa3ba233565155ab"}, {"sequence": 4294967295, "scriptSig": {"hex": "483045022100d3edf3bd9ea22101f22225eb08f9a2fa42c15ba7362dba643d0a926ef5874697022075908da5a2d47bc518b3135976b192169267c2747f5ebab59775deab6c28df25012102e658775cb88b582a669ecaa32744769b0c7c8219230b234d25caca754d43384a", "asm": "3045022100d3edf3bd9ea22101f22225eb08f9a2fa42c15ba7362dba643d0a926ef5874697022075908da5a2d47bc518b3135976b192169267c2747f5ebab59775deab6c28df25[ALL] 02e658775cb88b582a669ecaa32744769b0c7c8219230b234d25caca754d43384a"}, "vout": 0, "txid": "4ed75c56fe5760f7f21f862dd04052436dc1e9a18a5aadda038c61906e2a9897"}, {"sequence": 4294967295, "scriptSig": {"hex": "473044022024adf2bfe800e6ebf2602129f169befb01f44937fd24eb1087379b96527e54ac02204c3a4601b126741df2e4abaa43a6a17cd5287a7c7810250750c8b50617e68bdc0121023f628bcf8a36abacc3c1617b4e54b47e2efbf066b6551d6ab0eddb52af382b70", "asm": "3044022024adf2bfe800e6ebf2602129f169befb01f44937fd24eb1087379b96527e54ac02204c3a4601b126741df2e4abaa43a6a17cd5287a7c7810250750c8b50617e68bdc[ALL] 023f628bcf8a36abacc3c1617b4e54b47e2efbf066b6551d6ab0eddb52af382b70"}, "vout": 0, "txid": "93a2dc0b5f3e6013dd51303e3df24644e14982d7e14aaa21a51f04114b2219bd"}], "txid": "06acb1190137ae1e87cb8bc75180af99859bdc8c3763f9b06fb40beb3fff430d", "blocktime": 1537871767, "version": 1, "confirmations": 11495, "time": 1537871767, "locktime": 0, "vsize": 667, "size": 667}