{"hash": "b66a4a0519b9d143fb11317f3064127f9c4e087973e6a66640b02c4b7747d435", "blockhash": "0000000000000000000dcc0f55137456b1a82d3642486a52398922ac4d620174", "vout": [{"scriptPubKey": {"reqSigs": 1, "hex": "76a914d4779d982968541206d0f98c21b4286a5b0caec388ac", "addresses": ["1LNRYhwV5xG2947D6RPyvc9uY9wy4h8mEB"], "asm": "OP_DUP OP_HASH160 d4779d982968541206d0f98c21b4286a5b0caec3 OP_EQUALVERIFY OP_CHECKSIG", "type": "pubkeyhash"}, "value": 0.0074, "n": 0}, {"scriptPubKey": {"reqSigs": 1, "hex": "a914ce794358d54d000e7520bbe1aae72952e7396bb387", "addresses": ["3LWkPZqPyaARqTQBhAAAyCfjabyZ9hZbto"], "asm": "OP_HASH160 ce794358d54d000e7520bbe1aae72952e7396bb3 OP_EQUAL", "type": "scripthash"}, "value": 0.36691185, "n": 1}], "hex": "010000000001016de9253cfd4a19561dff226e91bfc395a15b43bdef6889be6e9d6556b357962501000000232200202d4515d412d2adc56ee7f32aa27575b9a142cc4132849e1577e7a0fa45820c14ffffffff02a04a0b00000000001976a914d4779d982968541206d0f98c21b4286a5b0caec388acf1dc2f020000000017a914ce794358d54d000e7520bbe1aae72952e7396bb387040047304402206423914170f983f5d8fd26b0f6937e0517064993011eeb1feabdce4ed387099602201e57dbf5ecafaa86b8d1e693074c937456fc00b36c39de1a16fef562bbaca7910147304402201b9c147fb5f1e30d8e595d7a21e068ae8e1f2589312b8da38def2ed5373deab0022074cc18daae184a06f887effd32c99a6c0d8300a3088c8d2030f0275a3f8233db0147522102fa19578b79eca19b7593441271ac497a30a8288df78a0d0e1a640b087d8943762103555f8a0fbc16380f6c50b382800f927c71e2a43576133a0d6aaafdd743210a8252ae00000000", "vin": [{"txinwitness": ["", "304402206423914170f983f5d8fd26b0f6937e0517064993011eeb1feabdce4ed387099602201e57dbf5ecafaa86b8d1e693074c937456fc00b36c39de1a16fef562bbaca79101", "304402201b9c147fb5f1e30d8e595d7a21e068ae8e1f2589312b8da38def2ed5373deab0022074cc18daae184a06f887effd32c99a6c0d8300a3088c8d2030f0275a3f8233db01", "522102fa19578b79eca19b7593441271ac497a30a8288df78a0d0e1a640b087d8943762103555f8a0fbc16380f6c50b382800f927c71e2a43576133a0d6aaafdd743210a8252ae"], "sequence": 4294967295, "scriptSig": {"hex": "2200202d4515d412d2adc56ee7f32aa27575b9a142cc4132849e1577e7a0fa45820c14", "asm": "00202d4515d412d2adc56ee7f32aa27575b9a142cc4132849e1577e7a0fa45820c14"}, "vout": 1, "txid": "259657b356659d6ebe8968efbd435ba195c3bf916e22ff1d56194afd3c25e96d"}], "txid": "06b8af929a10e1492e194b4ff1b2ca26232a682b37941d33d5268181a65d148a", "blocktime": 1537870268, "version": 1, "confirmations": 11518, "time": 1537870268, "locktime": 0, "vsize": 207, "size": 372}