{"hash": "06ba8ae156d604126e1b22188f2a9ebd6ecfa8ee65140579abbf608ddd7665cc", "blockhash": "0000000000000000000e13cef7c366c0283d82e591d1acd082e914b08063cdf1", "vout": [{"scriptPubKey": {"reqSigs": 1, "hex": "76a914e83ef65132f9c656b4a98eb363980b639052164688ac", "addresses": ["1NB1CCDWbZrLQgFGxw6aEBUD7C7gPwjPQk"], "asm": "OP_DUP OP_HASH160 e83ef65132f9c656b4a98eb363980b6390521646 OP_EQUALVERIFY OP_CHECKSIG", "type": "pubkeyhash"}, "value": 0.08758226, "n": 0}, {"scriptPubKey": {"reqSigs": 1, "hex": "a91404efc3c5c1ab82253cbbeb3599c419cafb42c32887", "addresses": ["3297rTTd5Mvt2WPQHPhN7ah4BV9DJzQZPM"], "asm": "OP_HASH160 04efc3c5c1ab82253cbbeb3599c419cafb42c328 OP_EQUAL", "type": "scripthash"}, "value": 0.15626464, "n": 1}], "hex": "0100000002cfc392ad785e28f75e537ded2c02c63c5a0607a5e5e7b1f94190d190872cf18f000000006b483045022100bf78b757149f576323ec3ed534bdae7dec7ef228521248dc6ae6227d42cf0fab0220213cfe3ad4d186f0c8ed530d94c7191184570ec68da9c1667920f29a0a9fdec90121031dd98d454fbe43d453759835abd2a628214a5a5b1cb711cb7a695fb96839cda5ffffffff3d4f9ee6cc7e34de226b45a6263dc668273392dfaad3f64a14c2a7e73cd097d8000000006b483045022100efae0fa0296c705880d30bd33603e9cd6dcab88f471c0a834ada6f87287070b6022046115907e320f135a49b48f1d098f0a6a892bacc8f70232eec2c6924684d07810121031dd98d454fbe43d453759835abd2a628214a5a5b1cb711cb7a695fb96839cda5ffffffff02d2a38500000000001976a914e83ef65132f9c656b4a98eb363980b639052164688ace070ee000000000017a91404efc3c5c1ab82253cbbeb3599c419cafb42c3288700000000", "vin": [{"sequence": 4294967295, "scriptSig": {"hex": "483045022100bf78b757149f576323ec3ed534bdae7dec7ef228521248dc6ae6227d42cf0fab0220213cfe3ad4d186f0c8ed530d94c7191184570ec68da9c1667920f29a0a9fdec90121031dd98d454fbe43d453759835abd2a628214a5a5b1cb711cb7a695fb96839cda5", "asm": "3045022100bf78b757149f576323ec3ed534bdae7dec7ef228521248dc6ae6227d42cf0fab0220213cfe3ad4d186f0c8ed530d94c7191184570ec68da9c1667920f29a0a9fdec9[ALL] 031dd98d454fbe43d453759835abd2a628214a5a5b1cb711cb7a695fb96839cda5"}, "vout": 0, "txid": "8ff12c8790d19041f9b1e7e5a507065a3cc6022ced7d535ef7285e78ad92c3cf"}, {"sequence": 4294967295, "scriptSig": {"hex": "483045022100efae0fa0296c705880d30bd33603e9cd6dcab88f471c0a834ada6f87287070b6022046115907e320f135a49b48f1d098f0a6a892bacc8f70232eec2c6924684d07810121031dd98d454fbe43d453759835abd2a628214a5a5b1cb711cb7a695fb96839cda5", "asm": "3045022100efae0fa0296c705880d30bd33603e9cd6dcab88f471c0a834ada6f87287070b6022046115907e320f135a49b48f1d098f0a6a892bacc8f70232eec2c6924684d0781[ALL] 031dd98d454fbe43d453759835abd2a628214a5a5b1cb711cb7a695fb96839cda5"}, "vout": 0, "txid": "d897d03ce7a7c2144af6d3aadf92332768c63d26a6456b22de347ecce69e4f3d"}], "txid": "06ba8ae156d604126e1b22188f2a9ebd6ecfa8ee65140579abbf608ddd7665cc", "blocktime": 1537871767, "version": 1, "confirmations": 11495, "time": 1537871767, "locktime": 0, "vsize": 372, "size": 372}