{"hash": "06bbbed4ebf5a187434e7bef0c082d7fca4cc49110d7b110901f408272cc6536", "blockhash": "00000000000000000024a2167bbff67b0be802c0b01cdd79e6331c2be6459f87", "vout": [{"scriptPubKey": {"reqSigs": 1, "hex": "76a91429e4f31fee5be8024ef79d51a14520c75b20939688ac", "addresses": ["14pWya2oBVcMGhvTByfrCY1aEMDW3WFfRN"], "asm": "OP_DUP OP_HASH160 29e4f31fee5be8024ef79d51a14520c75b209396 OP_EQUALVERIFY OP_CHECKSIG", "type": "pubkeyhash"}, "value": 3.471e-05, "n": 0}, {"scriptPubKey": {"reqSigs": 1, "hex": "a914973a3d64322bd3a28f32ebf62786472d8e6fa24887", "addresses": ["3FUdj5mnaUzvHxohbqidFTF9hx9aTkwkg1"], "asm": "OP_HASH160 973a3d64322bd3a28f32ebf62786472d8e6fa248 OP_EQUAL", "type": "scripthash"}, "value": 0.07806482, "n": 1}], "hex": "0100000003580727bff6541132a1560b24d5120da389ad3705e9aa83d6ca64414bc49f4233040000006b483045022100843fc6e5d3e6cbfccb75208115723bd71120f478d97b745fcba889b157105487022009875dae92cad84fd2b4e2632b27033a8a9dff0380de53c7de6fe070ea406be2012102c3823f5a4af71f860378095e6e14093ae4e72ee563cddd18444f77b9ab7a8ac6ffffffff6be7f632578a954b77ad3e1818105771d1888c48c1393d6e8580b97720ed0a39000000006a4730440220396e506395ea82ec238265e7ff7fb2baa6e79c5323a63a6d625457b14245bc030220683b421d995e3ee8a88bf661b9d21997b6bc6a42b160860179218f0b019c943c01210240e82796e75b33894e9bbee8c9b666176384c5f7450c7218db749c1271b0faeeffffffff57e95ddbf4a563e8e93419c136e78b6f23d5281360489d49cdb6bab8c423aa43010000006a47304402200510da483bdbac35d8df637ad66aaa5d442f1b144e72d4ffd76060dde90076f702205742ec867a894a1bd88177ee9132f4cfafdb31b2ed623851d5d221d5e81b0775012102ea1472cbf0f33a4654ced505cf016ead1aca9099eb0346a67b1709d8ba71f0c7ffffffff028f0d0000000000001976a91429e4f31fee5be8024ef79d51a14520c75b20939688ac121e77000000000017a914973a3d64322bd3a28f32ebf62786472d8e6fa2488700000000", "vin": [{"sequence": 4294967295, "scriptSig": {"hex": "483045022100843fc6e5d3e6cbfccb75208115723bd71120f478d97b745fcba889b157105487022009875dae92cad84fd2b4e2632b27033a8a9dff0380de53c7de6fe070ea406be2012102c3823f5a4af71f860378095e6e14093ae4e72ee563cddd18444f77b9ab7a8ac6", "asm": "3045022100843fc6e5d3e6cbfccb75208115723bd71120f478d97b745fcba889b157105487022009875dae92cad84fd2b4e2632b27033a8a9dff0380de53c7de6fe070ea406be2[ALL] 02c3823f5a4af71f860378095e6e14093ae4e72ee563cddd18444f77b9ab7a8ac6"}, "vout": 4, "txid": "33429fc44b4164cad683aae90537ad89a30d12d5240b56a1321154f6bf270758"}, {"sequence": 4294967295, "scriptSig": {"hex": "4730440220396e506395ea82ec238265e7ff7fb2baa6e79c5323a63a6d625457b14245bc030220683b421d995e3ee8a88bf661b9d21997b6bc6a42b160860179218f0b019c943c01210240e82796e75b33894e9bbee8c9b666176384c5f7450c7218db749c1271b0faee", "asm": "30440220396e506395ea82ec238265e7ff7fb2baa6e79c5323a63a6d625457b14245bc030220683b421d995e3ee8a88bf661b9d21997b6bc6a42b160860179218f0b019c943c[ALL] 0240e82796e75b33894e9bbee8c9b666176384c5f7450c7218db749c1271b0faee"}, "vout": 0, "txid": "390aed2077b980856e3d39c1488c88d171571018183ead774b958a5732f6e76b"}, {"sequence": 4294967295, "scriptSig": {"hex": "47304402200510da483bdbac35d8df637ad66aaa5d442f1b144e72d4ffd76060dde90076f702205742ec867a894a1bd88177ee9132f4cfafdb31b2ed623851d5d221d5e81b0775012102ea1472cbf0f33a4654ced505cf016ead1aca9099eb0346a67b1709d8ba71f0c7", "asm": "304402200510da483bdbac35d8df637ad66aaa5d442f1b144e72d4ffd76060dde90076f702205742ec867a894a1bd88177ee9132f4cfafdb31b2ed623851d5d221d5e81b0775[ALL] 02ea1472cbf0f33a4654ced505cf016ead1aca9099eb0346a67b1709d8ba71f0c7"}, "vout": 1, "txid": "43aa23c4b8bab6cd499d48601328d5236f8be736c11934e9e863a5f4db5de957"}], "txid": "06bbbed4ebf5a187434e7bef0c082d7fca4cc49110d7b110901f408272cc6536", "blocktime": 1537870564, "version": 1, "confirmations": 11515, "time": 1537870564, "locktime": 0, "vsize": 518, "size": 518}