{"hash": "06bcc58548abf4ae0f0bc1abeb885c75596912231f7d99ad76f27131872a959f", "blockhash": "0000000000000000000e13cef7c366c0283d82e591d1acd082e914b08063cdf1", "vout": [{"scriptPubKey": {"reqSigs": 1, "hex": "a9146c25ab8ea42e54ff386ed92efea0121678d0529187", "addresses": ["3BYr2dSGp4zQSrdZzKCcBf9yKjxi2kKgeD"], "asm": "OP_HASH160 6c25ab8ea42e54ff386ed92efea0121678d05291 OP_EQUAL", "type": "scripthash"}, "value": 0.0557876, "n": 0}, {"scriptPubKey": {"reqSigs": 1, "hex": "76a914cdb16aeca9e617102c4dd3fb6b8e91faa10cdfa088ac", "addresses": ["1Kkc4XEhpVPmpq1P6GpSLCvMFEUYiLebmM"], "asm": "OP_DUP OP_HASH160 cdb16aeca9e617102c4dd3fb6b8e91faa10cdfa0 OP_EQUALVERIFY OP_CHECKSIG", "type": "pubkeyhash"}, "value": 20.23141827, "n": 1}], "hex": "0200000001df40a8f6a6cce1ee181b7841012ffa08b9b7fb04117d315aaf94052b99825501000000006b483045022100df4862273834c9a58506e9bc39d0e390991bbb9debab3f4f0fce0d53f9d07c0702201401bb09bba376b6a083da71d5e7adc8fd1ba7d89b30dcd3caf5b426ee7946e90121029ec5da3bb3195a70f11e32b3fe4a0501d8c0ddbbff1ed3955b6afcf655f175cbfeffffff02082055000000000017a9146c25ab8ea42e54ff386ed92efea0121678d0529187c3b19678000000001976a914cdb16aeca9e617102c4dd3fb6b8e91faa10cdfa088ac10490800", "vin": [{"sequence": 4294967294, "scriptSig": {"hex": "483045022100df4862273834c9a58506e9bc39d0e390991bbb9debab3f4f0fce0d53f9d07c0702201401bb09bba376b6a083da71d5e7adc8fd1ba7d89b30dcd3caf5b426ee7946e90121029ec5da3bb3195a70f11e32b3fe4a0501d8c0ddbbff1ed3955b6afcf655f175cb", "asm": "3045022100df4862273834c9a58506e9bc39d0e390991bbb9debab3f4f0fce0d53f9d07c0702201401bb09bba376b6a083da71d5e7adc8fd1ba7d89b30dcd3caf5b426ee7946e9[ALL] 029ec5da3bb3195a70f11e32b3fe4a0501d8c0ddbbff1ed3955b6afcf655f175cb"}, "vout": 0, "txid": "015582992b0594af5a317d1104fbb7b908fa2f0141781b18eee1cca6f6a840df"}], "txid": "06bcc58548abf4ae0f0bc1abeb885c75596912231f7d99ad76f27131872a959f", "blocktime": 1537871767, "version": 2, "confirmations": 11490, "time": 1537871767, "locktime": 542992, "vsize": 224, "size": 224}