{"hash": "123125788911ac01ad670aa17b79c3699ac26dfd6ce63ff67ab53ddce432fadc", "blockhash": "000000000000000000022b45ed06c6f4ccd3cf7fb5ba4856ebd2e58215665228", "vout": [{"scriptPubKey": {"reqSigs": 1, "hex": "00146cdbded4ebeef1b2c9c4b4ba34424e284f90dc64", "addresses": ["bc1qdndaa48tamcm9jwykjargsjw9p8ephrywrxg7g"], "asm": "0 6cdbded4ebeef1b2c9c4b4ba34424e284f90dc64", "type": "witness_v0_keyhash"}, "value": 0.12841709, "n": 0}, {"scriptPubKey": {"reqSigs": 1, "hex": "76a914a7e6c6d3faf67834b27bfa0c833b07d36c23031a88ac", "addresses": ["1GJnJgSPbPL74orH8goKEtb25f3YWtSQRA"], "asm": "OP_DUP OP_HASH160 a7e6c6d3faf67834b27bfa0c833b07d36c23031a OP_EQUALVERIFY OP_CHECKSIG", "type": "pubkeyhash"}, "value": 1.073, "n": 1}], "hex": "010000000001016759f0788bfe536a025624df357d14c7e47a46bf8303680a50e6005a00d595050000000000ffffffff02edf2c300000000001600146cdbded4ebeef1b2c9c4b4ba34424e284f90dc64a0446506000000001976a914a7e6c6d3faf67834b27bfa0c833b07d36c23031a88ac02483045022100d11df7aaa4f23abdff9c806d4a8312faa83d0b5299a14786a33b3f264d101e8f02201e9a4af4b8c56c7827bb18a0ddf6d12c70233dfe93d948ae8e2c0e3615a6c7cd0121033c63f01c2390dfa6cdaf1703b0e53e95c8ed860ebcf78dba2424d33ea2c185d800000000", "vin": [{"txinwitness": ["3045022100d11df7aaa4f23abdff9c806d4a8312faa83d0b5299a14786a33b3f264d101e8f02201e9a4af4b8c56c7827bb18a0ddf6d12c70233dfe93d948ae8e2c0e3615a6c7cd01", "033c63f01c2390dfa6cdaf1703b0e53e95c8ed860ebcf78dba2424d33ea2c185d8"], "sequence": 4294967295, "scriptSig": {"hex": "", "asm": ""}, "vout": 0, "txid": "0595d5005a00e6500a680383bf467ae4c7147d35df2456026a53fe8b78f05967"}], "txid": "06be2852e0c1b602d4f2ec60443a1270f7f4e0d5230042fa09ba302f1bfdf6c2", "blocktime": 1537869901, "version": 1, "confirmations": 11523, "time": 1537869901, "locktime": 0, "vsize": 144, "size": 226}