{"hash": "06c22d8023f26922fa79bc9aba64d196cf042b99c67fe74910497f6f2cc4df25", "blockhash": "00000000000000000004ffacab907a6b429b9a5745fa0b75af4234bf69dd7176", "vout": [{"scriptPubKey": {"reqSigs": 1, "hex": "a914317a04881f2cda85818720bb6a706dc3a886c9b387", "addresses": ["36CdCt7LePnxjHdMU6RiYyfvWgRj1LGvfu"], "asm": "OP_HASH160 317a04881f2cda85818720bb6a706dc3a886c9b3 OP_EQUAL", "type": "scripthash"}, "value": 0.02, "n": 0}, {"scriptPubKey": {"reqSigs": 1, "hex": "76a91496af30999a3e2bc3c2751f95b1509c7984f31c8488ac", "addresses": ["1EjkEBLpdLso8ajChsRdHoCgD1ajojJFjA"], "asm": "OP_DUP OP_HASH160 96af30999a3e2bc3c2751f95b1509c7984f31c84 OP_EQUALVERIFY OP_CHECKSIG", "type": "pubkeyhash"}, "value": 0.05459224, "n": 1}], "hex": "01000000029746179f55389985a337ad0cf13c8f2310ebfaa4f0555e57f8eb8f3117c298027f0000006b483045022100f9bdcdd3128a095905914f499f85493eb6321071c403a31d3da44282866f484b02206671748a0a0e098015d2a2b7d05cb820e755443e734214d7469ffe08ee84c252012103b2630ed226b0c0aaf38025fae284fbdf99957fbb24f1041a8a832e2deb38a809ffffffff1c6073d37a8e25740051f7999db8af454775af1976e0d6cc75df373e235aaa4d000000006a47304402206738c2135c5ca5c7c9b6b2cfd5f64236cb6161e12c313328d6320464430a3e16022018981afcb2da9837b22b4e5cce1842ed5f200bc726c31b6b21296d6ef050f90c01210390851b69113145e36eded5e0f3f4dc40b53f396ff26c7e9891f9cd635fa79803ffffffff0280841e000000000017a914317a04881f2cda85818720bb6a706dc3a886c9b387184d5300000000001976a91496af30999a3e2bc3c2751f95b1509c7984f31c8488ac00000000", "vin": [{"sequence": 4294967295, "scriptSig": {"hex": "483045022100f9bdcdd3128a095905914f499f85493eb6321071c403a31d3da44282866f484b02206671748a0a0e098015d2a2b7d05cb820e755443e734214d7469ffe08ee84c252012103b2630ed226b0c0aaf38025fae284fbdf99957fbb24f1041a8a832e2deb38a809", "asm": "3045022100f9bdcdd3128a095905914f499f85493eb6321071c403a31d3da44282866f484b02206671748a0a0e098015d2a2b7d05cb820e755443e734214d7469ffe08ee84c252[ALL] 03b2630ed226b0c0aaf38025fae284fbdf99957fbb24f1041a8a832e2deb38a809"}, "vout": 127, "txid": "0298c217318febf8575e55f0a4faeb10238f3cf10cad37a3859938559f174697"}, {"sequence": 4294967295, "scriptSig": {"hex": "47304402206738c2135c5ca5c7c9b6b2cfd5f64236cb6161e12c313328d6320464430a3e16022018981afcb2da9837b22b4e5cce1842ed5f200bc726c31b6b21296d6ef050f90c01210390851b69113145e36eded5e0f3f4dc40b53f396ff26c7e9891f9cd635fa79803", "asm": "304402206738c2135c5ca5c7c9b6b2cfd5f64236cb6161e12c313328d6320464430a3e16022018981afcb2da9837b22b4e5cce1842ed5f200bc726c31b6b21296d6ef050f90c[ALL] 0390851b69113145e36eded5e0f3f4dc40b53f396ff26c7e9891f9cd635fa79803"}, "vout": 0, "txid": "4daa5a233e37df75ccd6e07619af754745afb89d99f7510074258e7ad373601c"}], "txid": "06c22d8023f26922fa79bc9aba64d196cf042b99c67fe74910497f6f2cc4df25", "blocktime": 1537875543, "version": 1, "confirmations": 11464, "time": 1537875543, "locktime": 0, "vsize": 371, "size": 371}