{"hash": "a80b7cfda8cf72c8c0853700a4cda704f720b5cc49d23b2bcc7ec64069cd8193", "blockhash": "00000000000000000017f5eb5941039fbcee6240d03bc1f2f8e35350df66a1d8", "vout": [{"scriptPubKey": {"reqSigs": 1, "hex": "a914c97bfda89a27bd153ed74b7be726f54201b7af2687", "addresses": ["3L4NH8utrXjBwwdyKVWNnc7yJMNYBHbaHy"], "asm": "OP_HASH160 c97bfda89a27bd153ed74b7be726f54201b7af26 OP_EQUAL", "type": "scripthash"}, "value": 1.68116427, "n": 0}, {"scriptPubKey": {"reqSigs": 1, "hex": "76a914b225455d7f42fd9db9ebd5e276b27b9982c4cfa888ac", "addresses": ["1HEwvn652ycBECxxjsAzgMkbHBofsHQrS3"], "asm": "OP_DUP OP_HASH160 b225455d7f42fd9db9ebd5e276b27b9982c4cfa8 OP_EQUALVERIFY OP_CHECKSIG", "type": "pubkeyhash"}, "value": 0.01715292, "n": 1}], "hex": "02000000000101b01928d2d9a4794dff9a81ff04e9f79bff569119b16cb92669a35f62c9c69740010000001716001452edca7d727e116e6277a8e46822f4d4514e11a0feffffff02cb40050a0000000017a914c97bfda89a27bd153ed74b7be726f54201b7af26875c2c1a00000000001976a914b225455d7f42fd9db9ebd5e276b27b9982c4cfa888ac024830450221008b78c2ac095434c202c662928ffdc2f749596f63d6ec7f477164723ec7b2c9b6022042dab420a3fe98a54bd5c47d34b84d46e2a19c6bc09b18988dc62e4454962ece012102436a8dc297f1b16d00cd276ddb78246223f9dc5cbe51995a69eb0fc912624ff8d2480800", "vin": [{"txinwitness": ["30450221008b78c2ac095434c202c662928ffdc2f749596f63d6ec7f477164723ec7b2c9b6022042dab420a3fe98a54bd5c47d34b84d46e2a19c6bc09b18988dc62e4454962ece01", "02436a8dc297f1b16d00cd276ddb78246223f9dc5cbe51995a69eb0fc912624ff8"], "sequence": 4294967294, "scriptSig": {"hex": "16001452edca7d727e116e6277a8e46822f4d4514e11a0", "asm": "001452edca7d727e116e6277a8e46822f4d4514e11a0"}, "vout": 1, "txid": "4097c6c9625fa36926b96cb1199156ff9bf7e904ff819aff4d79a4d9d22819b0"}], "txid": "06c41e964be89db48b0082435db76f62291dc3e7b0b41bc1a42725bc0b8cc00f", "blocktime": 1537874412, "version": 2, "confirmations": 11468, "time": 1537874412, "locktime": 542930, "vsize": 168, "size": 250}