{"hash": "06c603c846e5c8dde7d4074115984a6be12a7d0c2f6be306d0668f6335c0f234", "blockhash": "00000000000000000018f53835495a110e01622372bf6ae95dc86f2b0ab887b0", "vout": [{"scriptPubKey": {"reqSigs": 1, "hex": "a914527cfef19ca3358214dfe3171ef7f7576d2c146c87", "addresses": ["39DB593Lq5WTdjXePnF8Vd3EtsPjkcA5Ga"], "asm": "OP_HASH160 527cfef19ca3358214dfe3171ef7f7576d2c146c OP_EQUAL", "type": "scripthash"}, "value": 0.00532928, "n": 0}], "hex": "0100000001e56ea0749901bb25895543d2ee073942aca48a150233fb11dc91d9d60066352cc80000006a47304402202276de4cfb94742fd1f9d1df6fb205bd2a6f12dbdb4dd94833405213a6f872cf022074a20b120809b81e3b9564643151f5abb07b4bac2f3f8b74b88716bf21c32ba3012103f4ceae3cc4e7220c9747e851cd2e3bf6f267535569276b4ba61aff716b926327ffffffff01c02108000000000017a914527cfef19ca3358214dfe3171ef7f7576d2c146c8700000000", "vin": [{"sequence": 4294967295, "scriptSig": {"hex": "47304402202276de4cfb94742fd1f9d1df6fb205bd2a6f12dbdb4dd94833405213a6f872cf022074a20b120809b81e3b9564643151f5abb07b4bac2f3f8b74b88716bf21c32ba3012103f4ceae3cc4e7220c9747e851cd2e3bf6f267535569276b4ba61aff716b926327", "asm": "304402202276de4cfb94742fd1f9d1df6fb205bd2a6f12dbdb4dd94833405213a6f872cf022074a20b120809b81e3b9564643151f5abb07b4bac2f3f8b74b88716bf21c32ba3[ALL] 03f4ceae3cc4e7220c9747e851cd2e3bf6f267535569276b4ba61aff716b926327"}, "vout": 200, "txid": "2c356600d6d991dc11fb3302158aa4ac423907eed243558925bb019974a06ee5"}], "txid": "06c603c846e5c8dde7d4074115984a6be12a7d0c2f6be306d0668f6335c0f234", "blocktime": 1537870928, "version": 1, "confirmations": 11514, "time": 1537870928, "locktime": 0, "vsize": 189, "size": 189}