{"hash": "06c6bb175b0b5b912f2c5692c6ebe147deb2d4411922a8308d032aec475e4bb1", "blockhash": "0000000000000000001cda96e906b7601b7a6fb1a3b62bca570a9e5d8f4b3de1", "vout": [{"scriptPubKey": {"reqSigs": 1, "hex": "76a91408252a93034857d0098aba1864e576146af215be88ac", "addresses": ["1k4vtuEbfERWHDwNp57Nwu2CTfYbbfM8i"], "asm": "OP_DUP OP_HASH160 08252a93034857d0098aba1864e576146af215be OP_EQUALVERIFY OP_CHECKSIG", "type": "pubkeyhash"}, "value": 0.0036972, "n": 0}], "hex": "0100000003271bc753083e1274614cb9ec6cb9352a2363660d2219d2e46d48caf829120639010000006a47304402204ad3b45d64dba2a4bd61bee62f68cabe18a1a6af482eb8f5afb8ca000a476fb502201a1ac6a1c6d58266f66b9182f0045ca57e8d6af0c3ee35fcc5779be1f49ea67f0121026f72efbe960710381cb47d1eacb1c07a12884cbe5c2dcb1ff64a312fd8310e56ffffffff89b6c742da139b13ef727f8534ca214b474faefdbf4168db10d8a5727840fc9f000000006a47304402200a3a1b91576c32c93b5b00101e16b7eb99642d3459ec7fa3123bf26be158642e0220399ff74fe6ba6eeb60ce9a21df5bead03cfc730868c782c4b69ea9e41e83f69e012103d2c320a827f61b468273dd3b73e8ac8feee243a5458bd0db1b0d85c5ae15f8b5ffffffffd57a2f0ca1fc610041f59aefd179af6133991ad3a2bf0f5f6ec6ba5dca77ead9000000006a473044022055cf3a6b607308cf0cb8f892268ae2c50a5151fd6e5288c03fdf90e851a6d55302200a178a64212d4f99819caf3cc9ca4049e4cf586bc405a9c7f3b2ebefe222a9470121030ea23a6b76aa6121c143ab32bee8a796bfbd7f7b10438dad196938eae683fbf1ffffffff0138a40500000000001976a91408252a93034857d0098aba1864e576146af215be88ac00000000", "vin": [{"sequence": 4294967295, "scriptSig": {"hex": "47304402204ad3b45d64dba2a4bd61bee62f68cabe18a1a6af482eb8f5afb8ca000a476fb502201a1ac6a1c6d58266f66b9182f0045ca57e8d6af0c3ee35fcc5779be1f49ea67f0121026f72efbe960710381cb47d1eacb1c07a12884cbe5c2dcb1ff64a312fd8310e56", "asm": "304402204ad3b45d64dba2a4bd61bee62f68cabe18a1a6af482eb8f5afb8ca000a476fb502201a1ac6a1c6d58266f66b9182f0045ca57e8d6af0c3ee35fcc5779be1f49ea67f[ALL] 026f72efbe960710381cb47d1eacb1c07a12884cbe5c2dcb1ff64a312fd8310e56"}, "vout": 1, "txid": "39061229f8ca486de4d219220d6663232a35b96cecb94c6174123e0853c71b27"}, {"sequence": 4294967295, "scriptSig": {"hex": "47304402200a3a1b91576c32c93b5b00101e16b7eb99642d3459ec7fa3123bf26be158642e0220399ff74fe6ba6eeb60ce9a21df5bead03cfc730868c782c4b69ea9e41e83f69e012103d2c320a827f61b468273dd3b73e8ac8feee243a5458bd0db1b0d85c5ae15f8b5", "asm": "304402200a3a1b91576c32c93b5b00101e16b7eb99642d3459ec7fa3123bf26be158642e0220399ff74fe6ba6eeb60ce9a21df5bead03cfc730868c782c4b69ea9e41e83f69e[ALL] 03d2c320a827f61b468273dd3b73e8ac8feee243a5458bd0db1b0d85c5ae15f8b5"}, "vout": 0, "txid": "9ffc407872a5d810db6841bffdae4f474b21ca34857f72ef139b13da42c7b689"}, {"sequence": 4294967295, "scriptSig": {"hex": "473044022055cf3a6b607308cf0cb8f892268ae2c50a5151fd6e5288c03fdf90e851a6d55302200a178a64212d4f99819caf3cc9ca4049e4cf586bc405a9c7f3b2ebefe222a9470121030ea23a6b76aa6121c143ab32bee8a796bfbd7f7b10438dad196938eae683fbf1", "asm": "3044022055cf3a6b607308cf0cb8f892268ae2c50a5151fd6e5288c03fdf90e851a6d55302200a178a64212d4f99819caf3cc9ca4049e4cf586bc405a9c7f3b2ebefe222a947[ALL] 030ea23a6b76aa6121c143ab32bee8a796bfbd7f7b10438dad196938eae683fbf1"}, "vout": 0, "txid": "d9ea77ca5dbac66e5f0fbfa2d31a993361af79d1ef9af5410061fca10c2f7ad5"}], "txid": "06c6bb175b0b5b912f2c5692c6ebe147deb2d4411922a8308d032aec475e4bb1", "blocktime": 1537873282, "version": 1, "confirmations": 11484, "time": 1537873282, "locktime": 0, "vsize": 485, "size": 485}