{"hash": "06c8e9d3bba4e3c12922bba240ef146d92a6364b500d5184e49e776b560e2ff1", "blockhash": "0000000000000000001cda96e906b7601b7a6fb1a3b62bca570a9e5d8f4b3de1", "vout": [{"scriptPubKey": {"reqSigs": 1, "hex": "76a91411679da128f759288b8218f84c2c9128e68440be88ac", "addresses": ["12b2ccKaPWWWzLBVp2SpawyPCRSnfQP6Lh"], "asm": "OP_DUP OP_HASH160 11679da128f759288b8218f84c2c9128e68440be OP_EQUALVERIFY OP_CHECKSIG", "type": "pubkeyhash"}, "value": 0.52842, "n": 0}, {"scriptPubKey": {"reqSigs": 1, "hex": "76a914d5ba2eb2d52670fbe9522748bf642da754eb0d6f88ac", "addresses": ["1LV5y3NkVkmdWnF6xRCEXrAnUkRgge4KSq"], "asm": "OP_DUP OP_HASH160 d5ba2eb2d52670fbe9522748bf642da754eb0d6f OP_EQUALVERIFY OP_CHECKSIG", "type": "pubkeyhash"}, "value": 9.92566695, "n": 1}], "hex": "01000000018955e6cff715b146b8154935a6eb878d310f3cf3836ef7fa59a0bbd22dcdd704010000006a47304402204c6707b61baffc4965a9e638fe9ea04b23c8dd3014c6486c13be4f6c2c811b80022004b7fbe22a853c00be2b9399694368cc9b133a1b4c5279362461cc4360cdbf56012102c19ebc0e7fe714e24c55adaeebc7dbab2dc9a208b511bd1b6e83db85506d4d19ffffffff02104e2603000000001976a91411679da128f759288b8218f84c2c9128e68440be88aca75d293b000000001976a914d5ba2eb2d52670fbe9522748bf642da754eb0d6f88ac00000000", "vin": [{"sequence": 4294967295, "scriptSig": {"hex": "47304402204c6707b61baffc4965a9e638fe9ea04b23c8dd3014c6486c13be4f6c2c811b80022004b7fbe22a853c00be2b9399694368cc9b133a1b4c5279362461cc4360cdbf56012102c19ebc0e7fe714e24c55adaeebc7dbab2dc9a208b511bd1b6e83db85506d4d19", "asm": "304402204c6707b61baffc4965a9e638fe9ea04b23c8dd3014c6486c13be4f6c2c811b80022004b7fbe22a853c00be2b9399694368cc9b133a1b4c5279362461cc4360cdbf56[ALL] 02c19ebc0e7fe714e24c55adaeebc7dbab2dc9a208b511bd1b6e83db85506d4d19"}, "vout": 1, "txid": "04d7cd2dd2bba059faf76e83f33c0f318d87eba6354915b846b115f7cfe65589"}], "txid": "06c8e9d3bba4e3c12922bba240ef146d92a6364b500d5184e49e776b560e2ff1", "blocktime": 1537873282, "version": 1, "confirmations": 11484, "time": 1537873282, "locktime": 0, "vsize": 225, "size": 225}