{"hash": "06ca763e1c610a26e7298a5673d352e3bd39090042abaac63533fa309acccc42", "blockhash": "0000000000000000001cda96e906b7601b7a6fb1a3b62bca570a9e5d8f4b3de1", "vout": [{"scriptPubKey": {"reqSigs": 1, "hex": "76a9141ea1bf9db41ee828f6f6a847bb9d97972dc85a5888ac", "addresses": ["13ny3Enhu9GxBA4LBkhnuhdtCnLvXY8tnH"], "asm": "OP_DUP OP_HASH160 1ea1bf9db41ee828f6f6a847bb9d97972dc85a58 OP_EQUALVERIFY OP_CHECKSIG", "type": "pubkeyhash"}, "value": 0.0211452, "n": 0}, {"scriptPubKey": {"reqSigs": 1, "hex": "a9146d33b8b0939e19d11220a4b881d1c4408f6a0d9f87", "addresses": ["3BeRY83R1h95fvW1hPMJ92yg9zLgDYCEfw"], "asm": "OP_HASH160 6d33b8b0939e19d11220a4b881d1c4408f6a0d9f OP_EQUAL", "type": "scripthash"}, "value": 0.00042624, "n": 1}], "hex": "02000000014b5f61ed57790910f41335fcffdb96c14d3fce8908550498007ff3e804b4f1f3000000006b483045022100bfb37f23035dcc63433d4f777fe553991e71e9ac34accd60eec7a40ca5df83c702206b3f694e89f7c7c0b17b204d47ebd2abdeb3bf1c2679ff49e5664f8e1cc32a2301210338272d3f0301eb9a326adf89015052d58389f3470fc62d9c056e85e4defd6342feffffff02d8432000000000001976a9141ea1bf9db41ee828f6f6a847bb9d97972dc85a5888ac80a600000000000017a9146d33b8b0939e19d11220a4b881d1c4408f6a0d9f8713490800", "vin": [{"sequence": 4294967294, "scriptSig": {"hex": "483045022100bfb37f23035dcc63433d4f777fe553991e71e9ac34accd60eec7a40ca5df83c702206b3f694e89f7c7c0b17b204d47ebd2abdeb3bf1c2679ff49e5664f8e1cc32a2301210338272d3f0301eb9a326adf89015052d58389f3470fc62d9c056e85e4defd6342", "asm": "3045022100bfb37f23035dcc63433d4f777fe553991e71e9ac34accd60eec7a40ca5df83c702206b3f694e89f7c7c0b17b204d47ebd2abdeb3bf1c2679ff49e5664f8e1cc32a23[ALL] 0338272d3f0301eb9a326adf89015052d58389f3470fc62d9c056e85e4defd6342"}, "vout": 0, "txid": "f3f1b404e8f37f009804550889ce3f4dc196dbfffc3513f410097957ed615f4b"}], "txid": "06ca763e1c610a26e7298a5673d352e3bd39090042abaac63533fa309acccc42", "blocktime": 1537873282, "version": 2, "confirmations": 11480, "time": 1537873282, "locktime": 542995, "vsize": 224, "size": 224}