{"hash": "06cf2807608a83361968cace5d2acbcfebdb7fd82099721dcf41475f5e3d7697", "blockhash": "0000000000000000000e13cef7c366c0283d82e591d1acd082e914b08063cdf1", "vout": [{"scriptPubKey": {"reqSigs": 1, "hex": "76a914144caed062475fd94644d37bcbb244595544d38688ac", "addresses": ["12rLNrdL5fHP6wz7JoyrTJnDG177LFEvKW"], "asm": "OP_DUP OP_HASH160 144caed062475fd94644d37bcbb244595544d386 OP_EQUALVERIFY OP_CHECKSIG", "type": "pubkeyhash"}, "value": 0.00781323, "n": 0}, {"scriptPubKey": {"reqSigs": 1, "hex": "76a914934f4a1c5193727d8595f14bff4d54253d063bad88ac", "addresses": ["1ERuKL8Exr8wKymoWPZb8goLH13vexmg7W"], "asm": "OP_DUP OP_HASH160 934f4a1c5193727d8595f14bff4d54253d063bad OP_EQUALVERIFY OP_CHECKSIG", "type": "pubkeyhash"}, "value": 0.02654538, "n": 1}], "hex": "01000000012667fff67be7710895f91f2698798de34bd36430b29a2c1a8619c248b52805e8010000006a47304402206a9beb76bbc4742f9d2eb8795a231904c254557da08b1b83fb4831a70c7910cd022057d3249b385c3c64cfd03fe39d7c792e4aa3267b382bf40f85681ff802968724012103de6b826cb1207b70e7c26da575a55a9320846ae203c9e95fc2ee154ea8819fbcffffffff020bec0b00000000001976a914144caed062475fd94644d37bcbb244595544d38688ac4a812800000000001976a914934f4a1c5193727d8595f14bff4d54253d063bad88ac00000000", "vin": [{"sequence": 4294967295, "scriptSig": {"hex": "47304402206a9beb76bbc4742f9d2eb8795a231904c254557da08b1b83fb4831a70c7910cd022057d3249b385c3c64cfd03fe39d7c792e4aa3267b382bf40f85681ff802968724012103de6b826cb1207b70e7c26da575a55a9320846ae203c9e95fc2ee154ea8819fbc", "asm": "304402206a9beb76bbc4742f9d2eb8795a231904c254557da08b1b83fb4831a70c7910cd022057d3249b385c3c64cfd03fe39d7c792e4aa3267b382bf40f85681ff802968724[ALL] 03de6b826cb1207b70e7c26da575a55a9320846ae203c9e95fc2ee154ea8819fbc"}, "vout": 1, "txid": "e80528b548c219861a2c9ab23064d34be38d7998261ff9950871e77bf6ff6726"}], "txid": "06cf2807608a83361968cace5d2acbcfebdb7fd82099721dcf41475f5e3d7697", "blocktime": 1537871767, "version": 1, "confirmations": 11493, "time": 1537871767, "locktime": 0, "vsize": 225, "size": 225}