{"hash": "06d443d199323172c673715c99ccd6e940be855d88fd1fe5c5dc8aa5e4f4b88e", "blockhash": "0000000000000000000baef3f32e3676a92c3b2e5da21b426e4f302fc371ce76", "vout": [{"scriptPubKey": {"reqSigs": 1, "hex": "a914136cd877aa02be70691575093032681766d1df4a87", "addresses": ["33Tj9uqKGztuP67pBxp8twpdN8w8gxUoSL"], "asm": "OP_HASH160 136cd877aa02be70691575093032681766d1df4a OP_EQUAL", "type": "scripthash"}, "value": 0.00081783, "n": 0}, {"scriptPubKey": {"reqSigs": 1, "hex": "76a914655e4569cdc45ab59b1fba578593f05dbe6f8c9188ac", "addresses": ["1AEzBT37ocwNADTtbmNb6KxxTLnmPd4CY8"], "asm": "OP_DUP OP_HASH160 655e4569cdc45ab59b1fba578593f05dbe6f8c91 OP_EQUALVERIFY OP_CHECKSIG", "type": "pubkeyhash"}, "value": 0.01258326, "n": 1}], "hex": "02000000016ab521856eab01029dcd84f9b57da6f0fa370724b07e63a3311df6df0b717657010000006b483045022100a0e175aaceb4e8be52869b77e205d2c60a5030f8724e486647386ac5eed09232022075e5806350f4b84ec4689429db81c7672ad4772e4f29ad90bf8227a1934cfefe012103d662ccef07b70424d49d1e1281e3bb83de4882a11e9f57591e20311691b52ab9ffffffff02773f01000000000017a914136cd877aa02be70691575093032681766d1df4a8756331300000000001976a914655e4569cdc45ab59b1fba578593f05dbe6f8c9188ac00000000", "vin": [{"sequence": 4294967295, "scriptSig": {"hex": "483045022100a0e175aaceb4e8be52869b77e205d2c60a5030f8724e486647386ac5eed09232022075e5806350f4b84ec4689429db81c7672ad4772e4f29ad90bf8227a1934cfefe012103d662ccef07b70424d49d1e1281e3bb83de4882a11e9f57591e20311691b52ab9", "asm": "3045022100a0e175aaceb4e8be52869b77e205d2c60a5030f8724e486647386ac5eed09232022075e5806350f4b84ec4689429db81c7672ad4772e4f29ad90bf8227a1934cfefe[ALL] 03d662ccef07b70424d49d1e1281e3bb83de4882a11e9f57591e20311691b52ab9"}, "vout": 1, "txid": "5776710bdff61d31a3637eb0240737faf0a67db5f984cd9d0201ab6e8521b56a"}], "txid": "06d443d199323172c673715c99ccd6e940be855d88fd1fe5c5dc8aa5e4f4b88e", "blocktime": 1537876114, "version": 2, "confirmations": 11460, "time": 1537876114, "locktime": 0, "vsize": 224, "size": 224}