{"hash": "b25b98fba89ddff77eec29fc90c8e5add40651c5245b092f8df3808ae3fce1f8", "blockhash": "0000000000000000000dcc0f55137456b1a82d3642486a52398922ac4d620174", "vout": [{"scriptPubKey": {"reqSigs": 1, "hex": "76a91486b8831a772a97667e15a20d1be8d3a2aec1629a88ac", "addresses": ["1DHLaqGsiT3Qmj7tMkXLb9uLdCRrcFnNtk"], "asm": "OP_DUP OP_HASH160 86b8831a772a97667e15a20d1be8d3a2aec1629a OP_EQUALVERIFY OP_CHECKSIG", "type": "pubkeyhash"}, "value": 2.8, "n": 0}, {"scriptPubKey": {"reqSigs": 1, "hex": "a914414cec0fc72a9410f6836edaf08de1aa3b2a321c87", "addresses": ["37eHzewnAFRR2SVZu8rZM3nBsmuE2XBU7D"], "asm": "OP_HASH160 414cec0fc72a9410f6836edaf08de1aa3b2a321c OP_EQUAL", "type": "scripthash"}, "value": 0.31572254, "n": 1}], "hex": "0100000000010c4a243ce6d5a043801f252fe0258e2069f6335b55dd1d14fadb83bbc63ededdea0100000023220020d4d5df029411299e1d3362ef6a8daf52165a0effbaf546e0d63aa8a0c0c1f7dcffffffff21ef7242721159479110edb81f03114666c2324702c83bf18dfca266c87a59a101000000232200201e413c4456c7d48e50992a7e85f62b4804d4dbcff3ddf375a944dd6e49f2d3f6ffffffff75a240f731446d969d3dfba2ad8035c8ea6171b1c73175ac1ecfca46465d278f0100000023220020ebbdfcaa42723c51f4eaad63b5efb3abe6f6b2b68b95c77d60db368d99353104fffffffffbf66756ef72cb9032ca237eb87201cfba16d37d75b1a5e5e446284ce6acbb480100000023220020e2cae556dbdfe249d99c52ad57b42cfab51f6a41e1470f5d63e903dcff3db6d8ffffffff3015222751642a0c7ab9bdf5f66bef319121bc6313bbcbca69a84615d4f69a1401000000232200204995a4c8654ce71ef15cfeeffffdcb7c280f3d8948a57289ee71e64403a6a1a6ffffffff1e95393c5a862a804f98515498404c18b285d1b0c9e68ff781c2afbe24204a7d010000002322002044dec21a3f37d24817a24fccbf8cda9f68367d66cec31872187a00bd1cc9b702ffffffff3f901a2f025ac13aeffdadf2860ff1173cce0744d6b3902a6c6f9de29edf3317010000002322002032775831919222784f82be1d33502bd3dd237156fc4904241ed50e74bc2cf941ffffffff017d71bf4c36ccde0fc7ff32fe1f0b966137cd41e3d591035f84a68ffc0dfdea01000000232200200a49b77e3bb7c34dd9d7f9509d4d68004b3ab9cb6c9791a9b4ca0ec3ddf627eaffffffff02ddd4da754cd9028c6c2cab633f92a2cd16d167f86ebf6019c10d212d0dca4a010000002322002062cdc786a47be7b109cfc9b27690d8b488f29bc4fdd24c48364e28d10662879cffffffff7d9625898476a77172b3c1e77faa77761447a6d8296a4713e1777a7640c9951c01000000232200203fe94dbc5ef18d6fcb1527e3b00709e0b3698ccbe2f75f2e24387c7ac51f8a33ffffffff9e5a14e41e85789bfa817fee85e64a3eb8f1164fe387211b2f5d44b29f6f1b2a0100000023220020498d60ddbcb4e3436c003751b8cfa30a9d989d39fa3d47dc6748041f901be4ffffffffff98fe452ae7ed0ac89d50f1bd96b0d7255f6fc138da9e9bb4c8f2a3c1a38ccab90100000023220020ce74cde37cfb8dd71d0179287e12fc721ee236ce3c89c2745bcd365b39807eb3ffffffff020076b010000000001976a91486b8831a772a97667e15a20d1be8d3a2aec1629a88ac1ec1e1010000000017a914414cec0fc72a9410f6836edaf08de1aa3b2a321c87040047304402206217987fecf600170506913c3dd0126c5675ba40a1c0ff2c4f0355dd9515874c02202d3811a35fa187ac843aaf9fe7a7a32623097017e18f39298221c85eba12133e01483045022100805304d4be13e6d0c2b16e83de1ab1537a5fc57e148ff4c720307deb4df840780220323cf851c6591afdf1900c03b313af11266166573131dbf2247bfa35a6d89ea20147522102cd6be34bdaa89e84223115ae737e814f12b7eb41a2dbe171e47acb70527b1b7d2103871fc2ca08e6950b38867e8e6a0e94ee625223d3aa0df5c65f414c6d784467e252ae0400473044022073b6a234dce1c00e0b18cdf4c7de808eea3f15b1442407826cac392a180ab13902204d51cae94d39ad7cfd8f02dbd49bff432cd0082abbfe052afc2f445adc6278c801483045022100fbc7848a8c1a2bef4eae440e8c731f9c45197ce53fd84b8f379f3b63ec14d6630220229d8075a1114d2a312599dd365c84c6a54e9cd164c0543e0d9b7984b99bfa1b0147522103b4ac1f8801533cdc9a0b9f52122a1b675bb437b86b6cd5127432c1166a0bd3ca2103871fc2ca08e6950b38867e8e6a0e94ee625223d3aa0df5c65f414c6d784467e252ae0400473044022045ab90c120ff771964db70920c474797331b2c1a3ae59afa3e604689b3ab638202204e1178456abd44ec6dfa844225bf8913f360ae70dce7713027de37e3c03f987001473044022030ad84b79aec1d6510e0bca56dcf2cc26fe312bee887b4f62d6b6f3933eaaeb4022021aa38c18550e625e047c9d4a417edcfc99236c31c74594f335f570bbe5d26b501475221030f48e4c604f793abe343d3a022216b64c95169e8cd839c35df8a50c05d703e802103871fc2ca08e6950b38867e8e6a0e94ee625223d3aa0df5c65f414c6d784467e252ae0400483045022100fc21e88dc3fbafaa2acadfe74fd96ff0a055d584574284403fd4e0b827b79eb702206e485a992288e8f071a0cbda8ccda0d0485087ff59a15a6b07022c0db3daddb701483045022100944b9477465872924acbc786f0ddc71cfa33d1c98c7f6e7edfa6eb4898ec4bd202201b3afaa64af43eca5a0cf01794113f4f43cbda8ab6417b8435d2d3d7e0d45fb90147522102bf5fd280b0b6efb0df5a7c0362fabcd776d51479e5acdc89f8cd7e2b3e49c3e72103871fc2ca08e6950b38867e8e6a0e94ee625223d3aa0df5c65f414c6d784467e252ae040047304402201e1ec5413049003d3cb39b418b03f8e9df85168bb6857ade131a8af9160d22d2022028ee41ad4fe80ee115a31908144eaa2cae4bd914a679084277375014e09b78e10148304502210087c04d83af0e649e8d3596e2565cb7cc0fc948b705f8f5f2b5de2fd618ee12d0022037d36cd8af7c618e99dbb8510189e8267eb70911816e7e1cc3f97b94e2e41b720147522103fbe9855c9bd1f254f54b8c5930559257f6fdbd99f9ba22bfd4f0e0a93913e78a2103871fc2ca08e6950b38867e8e6a0e94ee625223d3aa0df5c65f414c6d784467e252ae0400473044022053e10398e7201a255f602eae936ee34cf25dacec024a90937a43b0d096da8d33022062ffd572911f62c538af264ba2a8cddb6ff4457a7643699e93a6af4a2f71ee0a014830450221008bf247fc9570c7d441be29c9c190bf87671a3e99255e19c0e22af998c744336902207837532a4d1513fcf0ab1b05df78f506ac6bee4d2055490747a60c608b09046301475221035bd066d3e541773e5250501a67e4a775970be7dfff703259a4c11e220115b4762103871fc2ca08e6950b38867e8e6a0e94ee625223d3aa0df5c65f414c6d784467e252ae040047304402200669abbb05ed7307fc480dc5238b4ad46fc3af378b670a805c7ecf862680e78102206ff16ad9051a35a38125f3a29f510589166c61fc16bf6afe21958f9d5bbaee9001483045022100be302a0c7ae579983895319ec56b3d5c7408f6a825faedb3aae0fa0d42d86d6e02202593a2c9eadac459962ad7810f74c30aad3ef1216fcf4fe7279788f38795d07f0147522102a93e56e27a53918fbfa623e88a2dc39ac282efcfb40edff0816fb9f1a14456ad2103871fc2ca08e6950b38867e8e6a0e94ee625223d3aa0df5c65f414c6d784467e252ae0400483045022100ac123451cafab8a1dad8b1ae156661d8f2f6160a9084f8fc52379be7816a84dd02202ecf3c57dd724b0e74d23b5518a7e8b511313449870b4a5c5901be10dd1db2ec01483045022100b0c1943dad17203902d7362f6276a604ce7eb8fe39bf400d74bf2c8121597f7a022004484de5468f800c8ff26b9da92c3226d1366a4d019393b75af97592c86b2d250147522103e39c19265a687799473a781ad5bb34731a539b5358334848831961585cb141362103871fc2ca08e6950b38867e8e6a0e94ee625223d3aa0df5c65f414c6d784467e252ae040047304402203e9405b0736cfea6568cea523517ff4f5acf3799ffa1af211a15f1c768ce254f02205195c64d5f07c3e6b13b6db331722a38d9759e5752a55e818a051422b604e4e801473044022052cbec3ea247cfdfc32d374e70ad30e208f5992332bc122c849c62d499ab449502202b63d2d821cc3583fcf1a3dcba87f6589310f164775b69f2054073f4a01d98cf0147522102fb81b41ac83b9b62c99b6e1e5d8051bcf3e4416b44c3cc619a9dfbe4e75306752103871fc2ca08e6950b38867e8e6a0e94ee625223d3aa0df5c65f414c6d784467e252ae0400483045022100aed6144d06e0fcfdaa230928d46f88c3489af373dbb97563890d964fc89ca3890220610a4ee7fb046d2ac923901d7a8f4423194d4d465c460db2f623f9256e7e7ccf014730440220465f29208e9499f143ea2db60f86ef874c16de505997d94f62fedd724d99f5f20220324d8463cdfb7c96bd79d3c5938d1809cd35d7c187799a64c2ccf2105db3cab40147522102ed8de9deeeb83a3b52ae1ed7c8c60f2b05d551e65524c7796d85bdb1f316659d2103871fc2ca08e6950b38867e8e6a0e94ee625223d3aa0df5c65f414c6d784467e252ae040047304402205d3a5d9de0f3709333abda73ac8fb51e3f9c6e8db92e47b8a95979839089a7d702201b9bffad0e751546c1ff2e8180db54d1f4ed10b27a3a191a416618dd65d71bb40147304402204c66ed05e3123352a46390a910e4a54b3e2a8069df43fc545e9bbd6a13c2b5df02201c35f3bef75e007d58d347c55f62890cc8a49ad8922f32b6b9663a035e897e3101475221026f536d07cbbe8e2ab831df0af2f6733995993955c1c0626b271c095882ceda002103871fc2ca08e6950b38867e8e6a0e94ee625223d3aa0df5c65f414c6d784467e252ae040047304402201402559314d220ba962aa6e1a37a49a576978bb86618ec11abbd0e942d0e0ca9022050f8d3c0183f6f5b67b0938daa33a147ea9d939ddb0e8aefabb721beed39429e0147304402202ec82cfe66201560a139d6fd296cc251f4217e8ac85e4731c116f32d46c29dfa02201e7f49981b318ee76cfada81c55da09b581eeed6dc27c0a52144a800184b352c0147522103ada901d90d5a76319a60f228e0b1bbc84b1d9a87238550bae5d5d190067b66712103871fc2ca08e6950b38867e8e6a0e94ee625223d3aa0df5c65f414c6d784467e252ae00000000", "vin": [{"txinwitness": ["", "304402206217987fecf600170506913c3dd0126c5675ba40a1c0ff2c4f0355dd9515874c02202d3811a35fa187ac843aaf9fe7a7a32623097017e18f39298221c85eba12133e01", "3045022100805304d4be13e6d0c2b16e83de1ab1537a5fc57e148ff4c720307deb4df840780220323cf851c6591afdf1900c03b313af11266166573131dbf2247bfa35a6d89ea201", "522102cd6be34bdaa89e84223115ae737e814f12b7eb41a2dbe171e47acb70527b1b7d2103871fc2ca08e6950b38867e8e6a0e94ee625223d3aa0df5c65f414c6d784467e252ae"], "sequence": 4294967295, "scriptSig": {"hex": "220020d4d5df029411299e1d3362ef6a8daf52165a0effbaf546e0d63aa8a0c0c1f7dc", "asm": "0020d4d5df029411299e1d3362ef6a8daf52165a0effbaf546e0d63aa8a0c0c1f7dc"}, "vout": 1, "txid": "eaddde3ec6bb83dbfa141ddd555b33f669208e25e02f251f8043a0d5e63c244a"}, {"txinwitness": ["", "3044022073b6a234dce1c00e0b18cdf4c7de808eea3f15b1442407826cac392a180ab13902204d51cae94d39ad7cfd8f02dbd49bff432cd0082abbfe052afc2f445adc6278c801", "3045022100fbc7848a8c1a2bef4eae440e8c731f9c45197ce53fd84b8f379f3b63ec14d6630220229d8075a1114d2a312599dd365c84c6a54e9cd164c0543e0d9b7984b99bfa1b01", "522103b4ac1f8801533cdc9a0b9f52122a1b675bb437b86b6cd5127432c1166a0bd3ca2103871fc2ca08e6950b38867e8e6a0e94ee625223d3aa0df5c65f414c6d784467e252ae"], "sequence": 4294967295, "scriptSig": {"hex": "2200201e413c4456c7d48e50992a7e85f62b4804d4dbcff3ddf375a944dd6e49f2d3f6", "asm": "00201e413c4456c7d48e50992a7e85f62b4804d4dbcff3ddf375a944dd6e49f2d3f6"}, "vout": 1, "txid": "a1597ac866a2fc8df13bc8024732c2664611031fb8ed1091475911724272ef21"}, {"txinwitness": ["", "3044022045ab90c120ff771964db70920c474797331b2c1a3ae59afa3e604689b3ab638202204e1178456abd44ec6dfa844225bf8913f360ae70dce7713027de37e3c03f987001", "3044022030ad84b79aec1d6510e0bca56dcf2cc26fe312bee887b4f62d6b6f3933eaaeb4022021aa38c18550e625e047c9d4a417edcfc99236c31c74594f335f570bbe5d26b501", "5221030f48e4c604f793abe343d3a022216b64c95169e8cd839c35df8a50c05d703e802103871fc2ca08e6950b38867e8e6a0e94ee625223d3aa0df5c65f414c6d784467e252ae"], "sequence": 4294967295, "scriptSig": {"hex": "220020ebbdfcaa42723c51f4eaad63b5efb3abe6f6b2b68b95c77d60db368d99353104", "asm": "0020ebbdfcaa42723c51f4eaad63b5efb3abe6f6b2b68b95c77d60db368d99353104"}, "vout": 1, "txid": "8f275d4646cacf1eac7531c7b17161eac83580ada2fb3d9d966d4431f740a275"}, {"txinwitness": ["", "3045022100fc21e88dc3fbafaa2acadfe74fd96ff0a055d584574284403fd4e0b827b79eb702206e485a992288e8f071a0cbda8ccda0d0485087ff59a15a6b07022c0db3daddb701", "3045022100944b9477465872924acbc786f0ddc71cfa33d1c98c7f6e7edfa6eb4898ec4bd202201b3afaa64af43eca5a0cf01794113f4f43cbda8ab6417b8435d2d3d7e0d45fb901", "522102bf5fd280b0b6efb0df5a7c0362fabcd776d51479e5acdc89f8cd7e2b3e49c3e72103871fc2ca08e6950b38867e8e6a0e94ee625223d3aa0df5c65f414c6d784467e252ae"], "sequence": 4294967295, "scriptSig": {"hex": "220020e2cae556dbdfe249d99c52ad57b42cfab51f6a41e1470f5d63e903dcff3db6d8", "asm": "0020e2cae556dbdfe249d99c52ad57b42cfab51f6a41e1470f5d63e903dcff3db6d8"}, "vout": 1, "txid": "48bbace64c2846e4e5a5b1757dd316bacf0172b87e23ca3290cb72ef5667f6fb"}, {"txinwitness": ["", "304402201e1ec5413049003d3cb39b418b03f8e9df85168bb6857ade131a8af9160d22d2022028ee41ad4fe80ee115a31908144eaa2cae4bd914a679084277375014e09b78e101", "304502210087c04d83af0e649e8d3596e2565cb7cc0fc948b705f8f5f2b5de2fd618ee12d0022037d36cd8af7c618e99dbb8510189e8267eb70911816e7e1cc3f97b94e2e41b7201", "522103fbe9855c9bd1f254f54b8c5930559257f6fdbd99f9ba22bfd4f0e0a93913e78a2103871fc2ca08e6950b38867e8e6a0e94ee625223d3aa0df5c65f414c6d784467e252ae"], "sequence": 4294967295, "scriptSig": {"hex": "2200204995a4c8654ce71ef15cfeeffffdcb7c280f3d8948a57289ee71e64403a6a1a6", "asm": "00204995a4c8654ce71ef15cfeeffffdcb7c280f3d8948a57289ee71e64403a6a1a6"}, "vout": 1, "txid": "149af6d41546a869cacbbb1363bc219131ef6bf6f5bdb97a0c2a645127221530"}, {"txinwitness": ["", "3044022053e10398e7201a255f602eae936ee34cf25dacec024a90937a43b0d096da8d33022062ffd572911f62c538af264ba2a8cddb6ff4457a7643699e93a6af4a2f71ee0a01", "30450221008bf247fc9570c7d441be29c9c190bf87671a3e99255e19c0e22af998c744336902207837532a4d1513fcf0ab1b05df78f506ac6bee4d2055490747a60c608b09046301", "5221035bd066d3e541773e5250501a67e4a775970be7dfff703259a4c11e220115b4762103871fc2ca08e6950b38867e8e6a0e94ee625223d3aa0df5c65f414c6d784467e252ae"], "sequence": 4294967295, "scriptSig": {"hex": "22002044dec21a3f37d24817a24fccbf8cda9f68367d66cec31872187a00bd1cc9b702", "asm": "002044dec21a3f37d24817a24fccbf8cda9f68367d66cec31872187a00bd1cc9b702"}, "vout": 1, "txid": "7d4a2024beafc281f78fe6c9b0d185b2184c40985451984f802a865a3c39951e"}, {"txinwitness": ["", "304402200669abbb05ed7307fc480dc5238b4ad46fc3af378b670a805c7ecf862680e78102206ff16ad9051a35a38125f3a29f510589166c61fc16bf6afe21958f9d5bbaee9001", "3045022100be302a0c7ae579983895319ec56b3d5c7408f6a825faedb3aae0fa0d42d86d6e02202593a2c9eadac459962ad7810f74c30aad3ef1216fcf4fe7279788f38795d07f01", "522102a93e56e27a53918fbfa623e88a2dc39ac282efcfb40edff0816fb9f1a14456ad2103871fc2ca08e6950b38867e8e6a0e94ee625223d3aa0df5c65f414c6d784467e252ae"], "sequence": 4294967295, "scriptSig": {"hex": "22002032775831919222784f82be1d33502bd3dd237156fc4904241ed50e74bc2cf941", "asm": "002032775831919222784f82be1d33502bd3dd237156fc4904241ed50e74bc2cf941"}, "vout": 1, "txid": "1733df9ee29d6f6c2a90b3d64407ce3c17f10f86f2adfdef3ac15a022f1a903f"}, {"txinwitness": ["", "3045022100ac123451cafab8a1dad8b1ae156661d8f2f6160a9084f8fc52379be7816a84dd02202ecf3c57dd724b0e74d23b5518a7e8b511313449870b4a5c5901be10dd1db2ec01", "3045022100b0c1943dad17203902d7362f6276a604ce7eb8fe39bf400d74bf2c8121597f7a022004484de5468f800c8ff26b9da92c3226d1366a4d019393b75af97592c86b2d2501", "522103e39c19265a687799473a781ad5bb34731a539b5358334848831961585cb141362103871fc2ca08e6950b38867e8e6a0e94ee625223d3aa0df5c65f414c6d784467e252ae"], "sequence": 4294967295, "scriptSig": {"hex": "2200200a49b77e3bb7c34dd9d7f9509d4d68004b3ab9cb6c9791a9b4ca0ec3ddf627ea", "asm": "00200a49b77e3bb7c34dd9d7f9509d4d68004b3ab9cb6c9791a9b4ca0ec3ddf627ea"}, "vout": 1, "txid": "eafd0dfc8fa6845f0391d5e341cd3761960b1ffe32ffc70fdecc364cbf717d01"}, {"txinwitness": ["", "304402203e9405b0736cfea6568cea523517ff4f5acf3799ffa1af211a15f1c768ce254f02205195c64d5f07c3e6b13b6db331722a38d9759e5752a55e818a051422b604e4e801", "3044022052cbec3ea247cfdfc32d374e70ad30e208f5992332bc122c849c62d499ab449502202b63d2d821cc3583fcf1a3dcba87f6589310f164775b69f2054073f4a01d98cf01", "522102fb81b41ac83b9b62c99b6e1e5d8051bcf3e4416b44c3cc619a9dfbe4e75306752103871fc2ca08e6950b38867e8e6a0e94ee625223d3aa0df5c65f414c6d784467e252ae"], "sequence": 4294967295, "scriptSig": {"hex": "22002062cdc786a47be7b109cfc9b27690d8b488f29bc4fdd24c48364e28d10662879c", "asm": "002062cdc786a47be7b109cfc9b27690d8b488f29bc4fdd24c48364e28d10662879c"}, "vout": 1, "txid": "4aca0d2d210dc11960bf6ef867d116cda2923f63ab2c6c8c02d94c75dad4dd02"}, {"txinwitness": ["", "3045022100aed6144d06e0fcfdaa230928d46f88c3489af373dbb97563890d964fc89ca3890220610a4ee7fb046d2ac923901d7a8f4423194d4d465c460db2f623f9256e7e7ccf01", "30440220465f29208e9499f143ea2db60f86ef874c16de505997d94f62fedd724d99f5f20220324d8463cdfb7c96bd79d3c5938d1809cd35d7c187799a64c2ccf2105db3cab401", "522102ed8de9deeeb83a3b52ae1ed7c8c60f2b05d551e65524c7796d85bdb1f316659d2103871fc2ca08e6950b38867e8e6a0e94ee625223d3aa0df5c65f414c6d784467e252ae"], "sequence": 4294967295, "scriptSig": {"hex": "2200203fe94dbc5ef18d6fcb1527e3b00709e0b3698ccbe2f75f2e24387c7ac51f8a33", "asm": "00203fe94dbc5ef18d6fcb1527e3b00709e0b3698ccbe2f75f2e24387c7ac51f8a33"}, "vout": 1, "txid": "1c95c940767a77e113476a29d8a647147677aa7fe7c1b37271a776848925967d"}, {"txinwitness": ["", "304402205d3a5d9de0f3709333abda73ac8fb51e3f9c6e8db92e47b8a95979839089a7d702201b9bffad0e751546c1ff2e8180db54d1f4ed10b27a3a191a416618dd65d71bb401", "304402204c66ed05e3123352a46390a910e4a54b3e2a8069df43fc545e9bbd6a13c2b5df02201c35f3bef75e007d58d347c55f62890cc8a49ad8922f32b6b9663a035e897e3101", "5221026f536d07cbbe8e2ab831df0af2f6733995993955c1c0626b271c095882ceda002103871fc2ca08e6950b38867e8e6a0e94ee625223d3aa0df5c65f414c6d784467e252ae"], "sequence": 4294967295, "scriptSig": {"hex": "220020498d60ddbcb4e3436c003751b8cfa30a9d989d39fa3d47dc6748041f901be4ff", "asm": "0020498d60ddbcb4e3436c003751b8cfa30a9d989d39fa3d47dc6748041f901be4ff"}, "vout": 1, "txid": "2a1b6f9fb2445d2f1b2187e34f16f1b83e4ae685ee7f81fa9b78851ee4145a9e"}, {"txinwitness": ["", "304402201402559314d220ba962aa6e1a37a49a576978bb86618ec11abbd0e942d0e0ca9022050f8d3c0183f6f5b67b0938daa33a147ea9d939ddb0e8aefabb721beed39429e01", "304402202ec82cfe66201560a139d6fd296cc251f4217e8ac85e4731c116f32d46c29dfa02201e7f49981b318ee76cfada81c55da09b581eeed6dc27c0a52144a800184b352c01", "522103ada901d90d5a76319a60f228e0b1bbc84b1d9a87238550bae5d5d190067b66712103871fc2ca08e6950b38867e8e6a0e94ee625223d3aa0df5c65f414c6d784467e252ae"], "sequence": 4294967295, "scriptSig": {"hex": "220020ce74cde37cfb8dd71d0179287e12fc721ee236ce3c89c2745bcd365b39807eb3", "asm": "0020ce74cde37cfb8dd71d0179287e12fc721ee236ce3c89c2745bcd365b39807eb3"}, "vout": 1, "txid": "b9ca8ca3c1a3f2c8b49b9eda38c16f5f25d7b096bdf1509dc80aede72a45fe98"}], "txid": "06d70fda2835b799a1dee3817971fdd354719138bad025cdb86d2bc7cb5066b9", "blocktime": 1537870268, "version": 1, "confirmations": 11518, "time": 1537870268, "locktime": 0, "vsize": 1645, "size": 3616}