{"hash": "06db3484bc030bba912bf921661bf7463aefbc6a08e3983fb9f162d29b73cc45", "blockhash": "0000000000000000001f76057863aec43deb6fa401d9628bb513d65a8098bfab", "vout": [{"scriptPubKey": {"type": "nulldata", "hex": "6a4c50000077ec00010bfa2521b752ef3a7ce7766b7af8e8e963c7cfd5b95b23cc0f42c2fc38c503919c38a803afc4f4de078971a44a4f5baa17a3061336a77aa18b181d100759d4ba30d2c37bb011d97e02cf", "asm": "OP_RETURN 000077ec00010bfa2521b752ef3a7ce7766b7af8e8e963c7cfd5b95b23cc0f42c2fc38c503919c38a803afc4f4de078971a44a4f5baa17a3061336a77aa18b181d100759d4ba30d2c37bb011d97e02cf"}, "value": 0.0, "n": 0}, {"scriptPubKey": {"reqSigs": 1, "hex": "76a914f09e3cfb28924b96fa30ce27bc472c374d8cf7a388ac", "addresses": ["1NwGjd7kfwihervTddDyBPebQZqcwqEotf"], "asm": "OP_DUP OP_HASH160 f09e3cfb28924b96fa30ce27bc472c374d8cf7a3 OP_EQUALVERIFY OP_CHECKSIG", "type": "pubkeyhash"}, "value": 0.00634794, "n": 1}], "hex": "0100000001be195a95e0f998fe900203f757ce0a6c81eb139f02cd408fc7f8cb5726fba1de010000006a473044022031ece1e7d8286c298a4f67f8e3563817cd984370b7f7a6b06d48a0cc0795bd1d02206f54e9299ab285aa54f3a688bdcd6ec6f40c06402c453a15c97855414db81080012103f56a4a42d69be58de4ae0eb74992da79401d62b3f914aad63f92f6af56e68816ffffffff020000000000000000536a4c50000077ec00010bfa2521b752ef3a7ce7766b7af8e8e963c7cfd5b95b23cc0f42c2fc38c503919c38a803afc4f4de078971a44a4f5baa17a3061336a77aa18b181d100759d4ba30d2c37bb011d97e02cfaaaf0900000000001976a914f09e3cfb28924b96fa30ce27bc472c374d8cf7a388ac00000000", "vin": [{"sequence": 4294967295, "scriptSig": {"hex": "473044022031ece1e7d8286c298a4f67f8e3563817cd984370b7f7a6b06d48a0cc0795bd1d02206f54e9299ab285aa54f3a688bdcd6ec6f40c06402c453a15c97855414db81080012103f56a4a42d69be58de4ae0eb74992da79401d62b3f914aad63f92f6af56e68816", "asm": "3044022031ece1e7d8286c298a4f67f8e3563817cd984370b7f7a6b06d48a0cc0795bd1d02206f54e9299ab285aa54f3a688bdcd6ec6f40c06402c453a15c97855414db81080[ALL] 03f56a4a42d69be58de4ae0eb74992da79401d62b3f914aad63f92f6af56e68816"}, "vout": 1, "txid": "dea1fb2657cbf8c78f40cd029f13eb816c0ace57f7030290fe98f9e0955a19be"}], "txid": "06db3484bc030bba912bf921661bf7463aefbc6a08e3983fb9f162d29b73cc45", "blocktime": 1537873891, "version": 1, "confirmations": 11478, "time": 1537873891, "locktime": 0, "vsize": 283, "size": 283}