{"hash": "06eb45847677e7f807dd2006f43ee7551c4350bcb379b41a49fdb2cca1a72795", "blockhash": "0000000000000000001f76057863aec43deb6fa401d9628bb513d65a8098bfab", "vout": [{"scriptPubKey": {"reqSigs": 1, "hex": "76a91472716f05e02e4c9814bada78c29cd129343d8fa988ac", "addresses": ["1BS7vNzWGFDAxNcr5XwHAdi27im6ugNeSm"], "asm": "OP_DUP OP_HASH160 72716f05e02e4c9814bada78c29cd129343d8fa9 OP_EQUALVERIFY OP_CHECKSIG", "type": "pubkeyhash"}, "value": 0.01000905, "n": 0}, {"scriptPubKey": {"reqSigs": 1, "hex": "76a914d6d7dd334fa81d67d8d858217459874bdb5b314e88ac", "addresses": ["1LazCYtdiomSwQf1V5KRSpC1HW6fuzrqgp"], "asm": "OP_DUP OP_HASH160 d6d7dd334fa81d67d8d858217459874bdb5b314e OP_EQUALVERIFY OP_CHECKSIG", "type": "pubkeyhash"}, "value": 0.16029983, "n": 1}], "hex": "0200000004a5c1fad872ae82b63dc9fc58be9d4dec9ad116bcc86ce2fbf85537e8548cedbb010000006a473044022074e8e7cff39458f19ad959b72183fab87a57a265665c1e850180666280edc47702201e21ec9025db36c206d6beb78a7bee481fbb9ffab547525461a6b7f4048f57fb012103adbe56aefa79765906a7c889df8a4bb7a677a4301d6dd4437d5274ee7120b340feffffff0f4353242d06863f2ae558d9cf39ba3e85e61a502d27bceb6d678821afff4cb9000000006b483045022100ab710e67a617fd41996458f146d1caf5d6182312b371cc000f1f72f6967ef3bd0220132cd63fdf4f6066b923b7a91d0b398566ca3309281dd3cf6372b2cb142ff7b80121022b72457d942f2d4eddeef36f57a23aa49cda0ccfe574a5ded878682a67b634dbfeffffff2d1645209739fdb169472f9b427f55fef404e5e93c168a9812cd1b571e7c7798010000006b483045022100822a06ba250b18896b75bc34e3985646856eae339ad29cb4b92a95a26dcd53cf02204e3d94223a6bbbcc443559bbe1e176d40f6c9809749f2cec25a48be396cdb17c012103ecfd695d3e1e76f3dffefd1f512205add7d4206182afb882b129589f2af69793feffffffbbc062883aeb088f31001d7d8697b4fc818f783710d29741ff411ccac6b434d0000000006b483045022100cd675b43dec1e7820d7d3461ee59aa0f4240c4fff7ce0a94b1cafbca239b38b102200bdbf4d0a90d914394a12b2d12cd48b373334fd234fb04443ced0ab0273ad3fd0121022b5ced506a3b068790f59ed30119b9a749f8889fa71d44ec9c6f1ca908c40722feffffff02c9450f00000000001976a91472716f05e02e4c9814bada78c29cd129343d8fa988ac1f99f400000000001976a914d6d7dd334fa81d67d8d858217459874bdb5b314e88ac13490800", "vin": [{"sequence": 4294967294, "scriptSig": {"hex": "473044022074e8e7cff39458f19ad959b72183fab87a57a265665c1e850180666280edc47702201e21ec9025db36c206d6beb78a7bee481fbb9ffab547525461a6b7f4048f57fb012103adbe56aefa79765906a7c889df8a4bb7a677a4301d6dd4437d5274ee7120b340", "asm": "3044022074e8e7cff39458f19ad959b72183fab87a57a265665c1e850180666280edc47702201e21ec9025db36c206d6beb78a7bee481fbb9ffab547525461a6b7f4048f57fb[ALL] 03adbe56aefa79765906a7c889df8a4bb7a677a4301d6dd4437d5274ee7120b340"}, "vout": 1, "txid": "bbed8c54e83755f8fbe26cc8bc16d19aec4d9dbe58fcc93db682ae72d8fac1a5"}, {"sequence": 4294967294, "scriptSig": {"hex": "483045022100ab710e67a617fd41996458f146d1caf5d6182312b371cc000f1f72f6967ef3bd0220132cd63fdf4f6066b923b7a91d0b398566ca3309281dd3cf6372b2cb142ff7b80121022b72457d942f2d4eddeef36f57a23aa49cda0ccfe574a5ded878682a67b634db", "asm": "3045022100ab710e67a617fd41996458f146d1caf5d6182312b371cc000f1f72f6967ef3bd0220132cd63fdf4f6066b923b7a91d0b398566ca3309281dd3cf6372b2cb142ff7b8[ALL] 022b72457d942f2d4eddeef36f57a23aa49cda0ccfe574a5ded878682a67b634db"}, "vout": 0, "txid": "b94cffaf2188676debbc272d501ae6853eba39cfd958e52a3f86062d2453430f"}, {"sequence": 4294967294, "scriptSig": {"hex": "483045022100822a06ba250b18896b75bc34e3985646856eae339ad29cb4b92a95a26dcd53cf02204e3d94223a6bbbcc443559bbe1e176d40f6c9809749f2cec25a48be396cdb17c012103ecfd695d3e1e76f3dffefd1f512205add7d4206182afb882b129589f2af69793", "asm": "3045022100822a06ba250b18896b75bc34e3985646856eae339ad29cb4b92a95a26dcd53cf02204e3d94223a6bbbcc443559bbe1e176d40f6c9809749f2cec25a48be396cdb17c[ALL] 03ecfd695d3e1e76f3dffefd1f512205add7d4206182afb882b129589f2af69793"}, "vout": 1, "txid": "98777c1e571bcd12988a163ce9e504f4fe557f429b2f4769b1fd39972045162d"}, {"sequence": 4294967294, "scriptSig": {"hex": "483045022100cd675b43dec1e7820d7d3461ee59aa0f4240c4fff7ce0a94b1cafbca239b38b102200bdbf4d0a90d914394a12b2d12cd48b373334fd234fb04443ced0ab0273ad3fd0121022b5ced506a3b068790f59ed30119b9a749f8889fa71d44ec9c6f1ca908c40722", "asm": "3045022100cd675b43dec1e7820d7d3461ee59aa0f4240c4fff7ce0a94b1cafbca239b38b102200bdbf4d0a90d914394a12b2d12cd48b373334fd234fb04443ced0ab0273ad3fd[ALL] 022b5ced506a3b068790f59ed30119b9a749f8889fa71d44ec9c6f1ca908c40722"}, "vout": 0, "txid": "d034b4c6ca1c41ff4197d21037788f81fcb497867d1d00318f08eb3a8862c0bb"}], "txid": "06eb45847677e7f807dd2006f43ee7551c4350bcb379b41a49fdb2cca1a72795", "blocktime": 1537873891, "version": 2, "confirmations": 11478, "time": 1537873891, "locktime": 542995, "vsize": 669, "size": 669}