{"hash": "40dcd6b5832999bf353555988c58fbffd27a0625e8ff3efdb042384ccae64035", "blockhash": "0000000000000000001f76057863aec43deb6fa401d9628bb513d65a8098bfab", "vout": [{"scriptPubKey": {"reqSigs": 1, "hex": "76a914ac8df50fc37733ba83268c5e88c0895afd8fe43f88ac", "addresses": ["1GjPHMpeehFm2NcYu4zM4U7tQxKUBD8iTS"], "asm": "OP_DUP OP_HASH160 ac8df50fc37733ba83268c5e88c0895afd8fe43f OP_EQUALVERIFY OP_CHECKSIG", "type": "pubkeyhash"}, "value": 0.000156, "n": 0}, {"scriptPubKey": {"reqSigs": 1, "hex": "00142b48b396fea04053b4689a1de45181e2f58909f2", "addresses": ["bc1q9dyt89h75pq98drgngw7g5vput6cjz0jtmy492"], "asm": "0 2b48b396fea04053b4689a1de45181e2f58909f2", "type": "witness_v0_keyhash"}, "value": 1.627e-05, "n": 1}], "hex": "01000000000101d4762dfff58d37330187d7abcd5c118052049f27da2ccb1be1eb66a08feaaa450000000000ffffffff02f03c0000000000001976a914ac8df50fc37733ba83268c5e88c0895afd8fe43f88ac5b060000000000001600142b48b396fea04053b4689a1de45181e2f58909f202483045022100b2d234cd952e57a01a246e2ef8db8693ff2bdab129dd2d226bcd48340ba2b8cf02202c0676d5d502954bb0ff4d9f5f1d2ff5a19e01ffde88f821a5765710d9b38f960121025ee0eb1f6dd3b7daeea6e5d4dcc9a97bfcbdb3822ec52060de8fcc24aee5292d00000000", "vin": [{"txinwitness": ["3045022100b2d234cd952e57a01a246e2ef8db8693ff2bdab129dd2d226bcd48340ba2b8cf02202c0676d5d502954bb0ff4d9f5f1d2ff5a19e01ffde88f821a5765710d9b38f9601", "025ee0eb1f6dd3b7daeea6e5d4dcc9a97bfcbdb3822ec52060de8fcc24aee5292d"], "sequence": 4294967295, "scriptSig": {"hex": "", "asm": ""}, "vout": 0, "txid": "45aaea8fa066ebe11bcb2cda279f045280115ccdabd7870133378df5ff2d76d4"}], "txid": "06f40dcbd03b8a6b6d368ebd0b500ddbd13214d4a41167805422d8d9aa6da8aa", "blocktime": 1537873891, "version": 1, "confirmations": 11478, "time": 1537873891, "locktime": 0, "vsize": 144, "size": 226}