{"hash": "06f403275c2a97fcf99976d992dc4f36206f45b6d5260a2c89c6f535fe2ec782", "blockhash": "00000000000000000024a2167bbff67b0be802c0b01cdd79e6331c2be6459f87", "vout": [{"scriptPubKey": {"reqSigs": 1, "hex": "76a914ae089cc6299f22cd66ffb12d943ad0659b20d00988ac", "addresses": ["1GsCtn9hKFBBDk2K2DJJzRwSzxVT4KuQx8"], "asm": "OP_DUP OP_HASH160 ae089cc6299f22cd66ffb12d943ad0659b20d009 OP_EQUALVERIFY OP_CHECKSIG", "type": "pubkeyhash"}, "value": 0.01305007, "n": 0}, {"scriptPubKey": {"reqSigs": 1, "hex": "76a9148c5eee3b7df1193921e0f50d6879fd739181011188ac", "addresses": ["1DoDKkUq9jG2rLX159eQwXEkk2v7yH6gmj"], "asm": "OP_DUP OP_HASH160 8c5eee3b7df1193921e0f50d6879fd7391810111 OP_EQUALVERIFY OP_CHECKSIG", "type": "pubkeyhash"}, "value": 0.01960207, "n": 1}], "hex": "0100000001370f0803059e421b6d4b48221778992e54335ea595106ba7d0b98c84452874d8000000006b483045022100eb77ad3cc7ee5d8c32d988197bed7a5268e6603da0ab6c06571c632827f48b96022060e359c0f50a8ca540411ec84de831db86cf31dbbe86b439f4c35de9e5094b0b012102238d865de8c914bc0edca386b96bbb8b46688a7027b8fece646b46742246c9ebffffffff02afe91300000000001976a914ae089cc6299f22cd66ffb12d943ad0659b20d00988ac0fe91d00000000001976a9148c5eee3b7df1193921e0f50d6879fd739181011188ac00000000", "vin": [{"sequence": 4294967295, "scriptSig": {"hex": "483045022100eb77ad3cc7ee5d8c32d988197bed7a5268e6603da0ab6c06571c632827f48b96022060e359c0f50a8ca540411ec84de831db86cf31dbbe86b439f4c35de9e5094b0b012102238d865de8c914bc0edca386b96bbb8b46688a7027b8fece646b46742246c9eb", "asm": "3045022100eb77ad3cc7ee5d8c32d988197bed7a5268e6603da0ab6c06571c632827f48b96022060e359c0f50a8ca540411ec84de831db86cf31dbbe86b439f4c35de9e5094b0b[ALL] 02238d865de8c914bc0edca386b96bbb8b46688a7027b8fece646b46742246c9eb"}, "vout": 0, "txid": "d8742845848cb9d0a76b1095a55e33542e99781722484b6d1b429e0503080f37"}], "txid": "06f403275c2a97fcf99976d992dc4f36206f45b6d5260a2c89c6f535fe2ec782", "blocktime": 1537870564, "version": 1, "confirmations": 11515, "time": 1537870564, "locktime": 0, "vsize": 226, "size": 226}