{"hash": "06f54b3018c4f9ce850fa2acbda3321190135930d25a315179053a2896b541ce", "blockhash": "0000000000000000000baef3f32e3676a92c3b2e5da21b426e4f302fc371ce76", "vout": [{"scriptPubKey": {"reqSigs": 1, "hex": "a914848f51a1432098c5dc8c85ae95fc2733832f4e7987", "addresses": ["3DmvoqNaZcFR91ZNMr3R93YUTjX4s3qmNF"], "asm": "OP_HASH160 848f51a1432098c5dc8c85ae95fc2733832f4e79 OP_EQUAL", "type": "scripthash"}, "value": 0.00234829, "n": 0}, {"scriptPubKey": {"reqSigs": 1, "hex": "76a9145e5989a2492769554582c2c088abbf647708a29688ac", "addresses": ["19bsnDX4Xi4SAG3AUgkLmLDT1FssrzgRuH"], "asm": "OP_DUP OP_HASH160 5e5989a2492769554582c2c088abbf647708a296 OP_EQUALVERIFY OP_CHECKSIG", "type": "pubkeyhash"}, "value": 0.04960109, "n": 1}], "hex": "01000000013eece4a786f57ef9432d0510fccb244b99549a7f3a247076b70ec6334b56d554010000006a4730440220239b64973987159e44639ac6f4aed912a9626eb2b5adb01b09e398c765259b0a02205f4fc644429d289409844c9472982b91dbff5c1a966607d1efac8080d93c13f10121031bddcb32234609c093317fb4d2df89fa09610c5fa47a35c21af96d8cf6f74400ffffffff024d9503000000000017a914848f51a1432098c5dc8c85ae95fc2733832f4e79876daf4b00000000001976a9145e5989a2492769554582c2c088abbf647708a29688ac00000000", "vin": [{"sequence": 4294967295, "scriptSig": {"hex": "4730440220239b64973987159e44639ac6f4aed912a9626eb2b5adb01b09e398c765259b0a02205f4fc644429d289409844c9472982b91dbff5c1a966607d1efac8080d93c13f10121031bddcb32234609c093317fb4d2df89fa09610c5fa47a35c21af96d8cf6f74400", "asm": "30440220239b64973987159e44639ac6f4aed912a9626eb2b5adb01b09e398c765259b0a02205f4fc644429d289409844c9472982b91dbff5c1a966607d1efac8080d93c13f1[ALL] 031bddcb32234609c093317fb4d2df89fa09610c5fa47a35c21af96d8cf6f74400"}, "vout": 1, "txid": "54d5564b33c60eb77670243a7f9a54994b24cbfc10052d43f97ef586a7e4ec3e"}], "txid": "06f54b3018c4f9ce850fa2acbda3321190135930d25a315179053a2896b541ce", "blocktime": 1537876114, "version": 1, "confirmations": 11460, "time": 1537876114, "locktime": 0, "vsize": 223, "size": 223}