{"hash": "8030ad46ef0e64efd006bc14e062880bd0f50661bb2bfa1ae41593407fed0de4", "blockhash": "0000000000000000000e13cef7c366c0283d82e591d1acd082e914b08063cdf1", "vout": [{"scriptPubKey": {"reqSigs": 1, "hex": "76a91450883c91f122a70e175aa154ead6a3433681479f88ac", "addresses": ["18LpGERhpUePjxq7WB9aKrWVc19NG4jCFn"], "asm": "OP_DUP OP_HASH160 50883c91f122a70e175aa154ead6a3433681479f OP_EQUALVERIFY OP_CHECKSIG", "type": "pubkeyhash"}, "value": 0.00740661, "n": 0}, {"scriptPubKey": {"reqSigs": 1, "hex": "a9140e299012c7f8b11b6e077a9565da585e8d46e4e287", "addresses": ["32yuB4aECPCRdJUgX99jQUN6D7VUWoTrKm"], "asm": "OP_HASH160 0e299012c7f8b11b6e077a9565da585e8d46e4e2 OP_EQUAL", "type": "scripthash"}, "value": 0.01133698, "n": 1}], "hex": "020000000001033d03b027fa11695ad27d2b0e791eba95a74f11ef6f38fb2c6ea4b344327fa69300000000171600142887b0aeeae3b52da89130540c7c25bf7e681a40fdffffff87c9de0af7c4dd6047f159bad848cac9d811a4e351f4fbacb859ece4435d0fbd01000000171600147e3cdf6b5309d9ec42725d42ade753f57a9ad637fdfffffff9489724bc3b9fd0d1ae41d02edd5b924d831d2219591109678ebc53e4af54a901000000171600143e4b38c20964334f3b185b1b205b4ea0bd6ef5e7fdffffff02354d0b00000000001976a91450883c91f122a70e175aa154ead6a3433681479f88ac824c11000000000017a9140e299012c7f8b11b6e077a9565da585e8d46e4e28702483045022100ec3b6b390e3ba97fa23e539d245dd7f9e4e52a2e2b0a4a4af35f80d81f7e669702207c1f6e552c39cfdad5713a358a1761e768bf15a3d904689a5e91fa29b2d8c1010121024f4a68914f874576046e01c5ec33f7b16b591c1f54f44a07aa812dbe7a7db5f402483045022100a64a7594e9d60f1f86053b3eb70df67714efaa105b107c4f4d1b4c221395967b022059c20260261d4882937479bda2f2db0d76c5910ce4dea16bb619bfb30430bfb501210330181b95dc842af3837a2f09e5d2ffd842de31321a4316664000f0dca05eb0ad02483045022100f6754d0e2328181744d8b6f0d6e4ea85c82be59eca00cdfbd44477b9271044ec0220720d7209eb3bdc51419b4e49a9eda76b1faa5ac5ea7a658a3e77c211a6787d34012103495b2b4db7fdecf01e2b390cda7b3e69b8f6fe95d12b1a4e853a2755e848464010490800", "vin": [{"txinwitness": ["3045022100ec3b6b390e3ba97fa23e539d245dd7f9e4e52a2e2b0a4a4af35f80d81f7e669702207c1f6e552c39cfdad5713a358a1761e768bf15a3d904689a5e91fa29b2d8c10101", "024f4a68914f874576046e01c5ec33f7b16b591c1f54f44a07aa812dbe7a7db5f4"], "sequence": 4294967293, "scriptSig": {"hex": "1600142887b0aeeae3b52da89130540c7c25bf7e681a40", "asm": "00142887b0aeeae3b52da89130540c7c25bf7e681a40"}, "vout": 0, "txid": "93a67f3244b3a46e2cfb386fef114fa795ba1e790e2b7dd25a6911fa27b0033d"}, {"txinwitness": ["3045022100a64a7594e9d60f1f86053b3eb70df67714efaa105b107c4f4d1b4c221395967b022059c20260261d4882937479bda2f2db0d76c5910ce4dea16bb619bfb30430bfb501", "0330181b95dc842af3837a2f09e5d2ffd842de31321a4316664000f0dca05eb0ad"], "sequence": 4294967293, "scriptSig": {"hex": "1600147e3cdf6b5309d9ec42725d42ade753f57a9ad637", "asm": "00147e3cdf6b5309d9ec42725d42ade753f57a9ad637"}, "vout": 1, "txid": "bd0f5d43e4ec59b8acfbf451e3a411d8c9ca48d8ba59f14760ddc4f70adec987"}, {"txinwitness": ["3045022100f6754d0e2328181744d8b6f0d6e4ea85c82be59eca00cdfbd44477b9271044ec0220720d7209eb3bdc51419b4e49a9eda76b1faa5ac5ea7a658a3e77c211a6787d3401", "03495b2b4db7fdecf01e2b390cda7b3e69b8f6fe95d12b1a4e853a2755e8484640"], "sequence": 4294967293, "scriptSig": {"hex": "1600143e4b38c20964334f3b185b1b205b4ea0bd6ef5e7", "asm": "00143e4b38c20964334f3b185b1b205b4ea0bd6ef5e7"}, "vout": 1, "txid": "a954afe453bc8e6709115919221d834d925bdd2ed041aed1d09f3bbc249748f9"}], "txid": "06fc1bbc455942df6d129eb763b1faec4a4c4d076a8c33155d6fb3155737122a", "blocktime": 1537871767, "version": 2, "confirmations": 11495, "time": 1537871767, "locktime": 542992, "vsize": 350, "size": 594}