{"hash": "06fd63c68f151b111ad83df4712d035d03060d3815bc41b78428a902f4f827be", "blockhash": "0000000000000000000baef3f32e3676a92c3b2e5da21b426e4f302fc371ce76", "vout": [{"scriptPubKey": {"reqSigs": 1, "hex": "a9149dc5927f02512da7357f1e64d8d56500b73776f587", "addresses": ["3G5EhDpEj5Hgx7qFoKstRARNHR3Gh2Py6f"], "asm": "OP_HASH160 9dc5927f02512da7357f1e64d8d56500b73776f5 OP_EQUAL", "type": "scripthash"}, "value": 0.02974229, "n": 0}], "hex": "0100000001d2ef8e775193d610454a6060075e9ee797c77d160857e313ace1531528af5848000000006b483045022100e02bca5b97b68fa0c61ad56d90ae93a3adac1889095e524835ebf7f216240f4d02207153caa7ef3aacb9866d9c58f4d27e2e676b396ae99d9a93c9d530a894dbd491012103c4137af21281dea099eb34fcb8a7141d50420316119920f87e96624d30b90a79ffffffff0115622d000000000017a9149dc5927f02512da7357f1e64d8d56500b73776f58700000000", "vin": [{"sequence": 4294967295, "scriptSig": {"hex": "483045022100e02bca5b97b68fa0c61ad56d90ae93a3adac1889095e524835ebf7f216240f4d02207153caa7ef3aacb9866d9c58f4d27e2e676b396ae99d9a93c9d530a894dbd491012103c4137af21281dea099eb34fcb8a7141d50420316119920f87e96624d30b90a79", "asm": "3045022100e02bca5b97b68fa0c61ad56d90ae93a3adac1889095e524835ebf7f216240f4d02207153caa7ef3aacb9866d9c58f4d27e2e676b396ae99d9a93c9d530a894dbd491[ALL] 03c4137af21281dea099eb34fcb8a7141d50420316119920f87e96624d30b90a79"}, "vout": 0, "txid": "4858af281553e1ac13e35708167dc797e79e5e0760604a4510d69351778eefd2"}], "txid": "06fd63c68f151b111ad83df4712d035d03060d3815bc41b78428a902f4f827be", "blocktime": 1537876114, "version": 1, "confirmations": 11460, "time": 1537876114, "locktime": 0, "vsize": 190, "size": 190}