{"hash": "06fe02adb86b89e0a5b876b831145557a2fc049fde076e9bd22378f0459a50e6", "blockhash": "0000000000000000001cda96e906b7601b7a6fb1a3b62bca570a9e5d8f4b3de1", "vout": [{"scriptPubKey": {"reqSigs": 1, "hex": "76a9142abdd10201d25608a1431a482b055c33d19286ea88ac", "addresses": ["14tzmjabZdXJvKfBeQNQzQ8DDxMiD5m8LU"], "asm": "OP_DUP OP_HASH160 2abdd10201d25608a1431a482b055c33d19286ea OP_EQUALVERIFY OP_CHECKSIG", "type": "pubkeyhash"}, "value": 0.02273829, "n": 0}, {"scriptPubKey": {"reqSigs": 1, "hex": "76a9145e74d9d6abafe282d0277acacccb7bd660efaa6f88ac", "addresses": ["19cSVyg6kLytAiXZJqo2maufYt4Ethcdwg"], "asm": "OP_DUP OP_HASH160 5e74d9d6abafe282d0277acacccb7bd660efaa6f OP_EQUALVERIFY OP_CHECKSIG", "type": "pubkeyhash"}, "value": 0.8325082, "n": 1}], "hex": "0100000001f6bd83f320d29a867734f99143a361fcda6e782f79d0faa4f1aadad62b1b0c66010000006b483045022100e0b540453087461d638a072118dfdbe606460bb6432de3b338e9233cf50c54f9022022dc0eb37e6a13be0e7cf8968737b547ebb7c480abe59d8c2147b4c832de8ee101210220440d95d08e3c6cf31c36534bae9d397ca1fed25a4b220db9acf0d285c5afaefdffffff0225b22200000000001976a9142abdd10201d25608a1431a482b055c33d19286ea88ac844ef604000000001976a9145e74d9d6abafe282d0277acacccb7bd660efaa6f88ac13490800", "vin": [{"sequence": 4294967293, "scriptSig": {"hex": "483045022100e0b540453087461d638a072118dfdbe606460bb6432de3b338e9233cf50c54f9022022dc0eb37e6a13be0e7cf8968737b547ebb7c480abe59d8c2147b4c832de8ee101210220440d95d08e3c6cf31c36534bae9d397ca1fed25a4b220db9acf0d285c5afae", "asm": "3045022100e0b540453087461d638a072118dfdbe606460bb6432de3b338e9233cf50c54f9022022dc0eb37e6a13be0e7cf8968737b547ebb7c480abe59d8c2147b4c832de8ee1[ALL] 0220440d95d08e3c6cf31c36534bae9d397ca1fed25a4b220db9acf0d285c5afae"}, "vout": 1, "txid": "660c1b2bd6daaaf1a4fad0792f786edafc61a34391f93477869ad220f383bdf6"}], "txid": "06fe02adb86b89e0a5b876b831145557a2fc049fde076e9bd22378f0459a50e6", "blocktime": 1537873282, "version": 1, "confirmations": 11485, "time": 1537873282, "locktime": 542995, "vsize": 226, "size": 226}