{"hash": "06ff1154068fee6b4441437cc17f83f4fb9be989d45210ce2a5299c162412a6d", "blockhash": "00000000000000000004ffacab907a6b429b9a5745fa0b75af4234bf69dd7176", "vout": [{"scriptPubKey": {"reqSigs": 1, "hex": "76a9147b824d5e4b6a9062b1ed92b58510b7e1a5684ed788ac", "addresses": ["1CG4D9phpJ8694LkJrMBdxKB3YEZbJizdN"], "asm": "OP_DUP OP_HASH160 7b824d5e4b6a9062b1ed92b58510b7e1a5684ed7 OP_EQUALVERIFY OP_CHECKSIG", "type": "pubkeyhash"}, "value": 0.00078, "n": 0}, {"scriptPubKey": {"reqSigs": 1, "hex": "76a9148405f3e40ee08fc52459e9e5f7a19177f5402f1388ac", "addresses": ["1D35KvVr37suy5ZVrBMomKbcdzAXi5QzJL"], "asm": "OP_DUP OP_HASH160 8405f3e40ee08fc52459e9e5f7a19177f5402f13 OP_EQUALVERIFY OP_CHECKSIG", "type": "pubkeyhash"}, "value": 0.00348851, "n": 1}], "hex": "0100000001af4f0578dbcfb00b7ead0350e524f06711ccc29883124e019a522e75bcadb0480100000069463043022053a6d81809521b65ea94371e102118c1e574cc1928e24e552ef5adffa653da3f021f7a4ed04dd97b5eb9c6a62f1ac476d223a75d566e7e0676f5b248b0a3ef974e012103af6d5250d822e2c56345c1f4d443886655d1cc64532b5494b1c995272bf2cd13ffffffff02b0300100000000001976a9147b824d5e4b6a9062b1ed92b58510b7e1a5684ed788acb3520500000000001976a9148405f3e40ee08fc52459e9e5f7a19177f5402f1388ac00000000", "vin": [{"sequence": 4294967295, "scriptSig": {"hex": "463043022053a6d81809521b65ea94371e102118c1e574cc1928e24e552ef5adffa653da3f021f7a4ed04dd97b5eb9c6a62f1ac476d223a75d566e7e0676f5b248b0a3ef974e012103af6d5250d822e2c56345c1f4d443886655d1cc64532b5494b1c995272bf2cd13", "asm": "3043022053a6d81809521b65ea94371e102118c1e574cc1928e24e552ef5adffa653da3f021f7a4ed04dd97b5eb9c6a62f1ac476d223a75d566e7e0676f5b248b0a3ef974e[ALL] 03af6d5250d822e2c56345c1f4d443886655d1cc64532b5494b1c995272bf2cd13"}, "vout": 1, "txid": "48b0adbc752e529a014e128398c2cc1167f024e55003ad7e0bb0cfdb78054faf"}], "txid": "06ff1154068fee6b4441437cc17f83f4fb9be989d45210ce2a5299c162412a6d", "blocktime": 1537875543, "version": 1, "confirmations": 11464, "time": 1537875543, "locktime": 0, "vsize": 224, "size": 224}