{"hash": "070112823cd2d2f604cc6c9bdebdb60c845f0ddb5dfae59e545f511304ac133b", "blockhash": "0000000000000000000e13cef7c366c0283d82e591d1acd082e914b08063cdf1", "vout": [{"scriptPubKey": {"reqSigs": 1, "hex": "76a91488a2880c9c93b82c22fa628d4a20cc6d87c0a00688ac", "addresses": ["1DTTbyMFBHAbxUErv5SyBs9TbHLeHddotB"], "asm": "OP_DUP OP_HASH160 88a2880c9c93b82c22fa628d4a20cc6d87c0a006 OP_EQUALVERIFY OP_CHECKSIG", "type": "pubkeyhash"}, "value": 5.732e-05, "n": 0}, {"scriptPubKey": {"reqSigs": 1, "hex": "76a9140752f6d088ff727ee4ea6bdb5864eddd1773a10b88ac", "addresses": ["1fj7nsZhhpVVApkDveHaYAfbPKU8bitZA"], "asm": "OP_DUP OP_HASH160 0752f6d088ff727ee4ea6bdb5864eddd1773a10b OP_EQUALVERIFY OP_CHECKSIG", "type": "pubkeyhash"}, "value": 0.0020792, "n": 1}], "hex": "0100000001e44c7a6975e067d132701acd032a030e35b93d6a8701810715fca8079ddf0d72000000006b4830450221008043619bec1a83e8b8e34b4215372537e7958d375473201bdf8662b0010619b80220468d564b25617627825bfd09b95cc54bf1909d5253b3cedfcc3535e1a10e56a8012102489a4b8c2cff0c03063d1a7ff8a28cc32e8d81db7452faba27fdee7965b41ea2ffffffff0264160000000000001976a91488a2880c9c93b82c22fa628d4a20cc6d87c0a00688ac302c0300000000001976a9140752f6d088ff727ee4ea6bdb5864eddd1773a10b88ac00000000", "vin": [{"sequence": 4294967295, "scriptSig": {"hex": "4830450221008043619bec1a83e8b8e34b4215372537e7958d375473201bdf8662b0010619b80220468d564b25617627825bfd09b95cc54bf1909d5253b3cedfcc3535e1a10e56a8012102489a4b8c2cff0c03063d1a7ff8a28cc32e8d81db7452faba27fdee7965b41ea2", "asm": "30450221008043619bec1a83e8b8e34b4215372537e7958d375473201bdf8662b0010619b80220468d564b25617627825bfd09b95cc54bf1909d5253b3cedfcc3535e1a10e56a8[ALL] 02489a4b8c2cff0c03063d1a7ff8a28cc32e8d81db7452faba27fdee7965b41ea2"}, "vout": 0, "txid": "720ddf9d07a8fc15078101876a3db9350e032a03cd1a7032d167e075697a4ce4"}], "txid": "070112823cd2d2f604cc6c9bdebdb60c845f0ddb5dfae59e545f511304ac133b", "blocktime": 1537871767, "version": 1, "confirmations": 11493, "time": 1537871767, "locktime": 0, "vsize": 226, "size": 226}