{"hash": "aa6f64408a24db3716fd4df46c00a0d285b5512692e607b987c555c881057a77", "blockhash": "0000000000000000000baef3f32e3676a92c3b2e5da21b426e4f302fc371ce76", "vout": [{"scriptPubKey": {"reqSigs": 1, "hex": "a91469f3771743bb516a2a810fd624a0a9a7446182cd87", "addresses": ["3BMEXwjcVdt9mEeRZtESJK2qf1ZkFHXMMG"], "asm": "OP_HASH160 69f3771743bb516a2a810fd624a0a9a7446182cd OP_EQUAL", "type": "scripthash"}, "value": 0.299, "n": 0}, {"scriptPubKey": {"reqSigs": 1, "hex": "76a914b20d32fb5d23ad13dd6c70e74e933e37b9f0ddb488ac", "addresses": ["1HET6EqyT7autUBcu9QKqVooGJnMV4h2MN"], "asm": "OP_DUP OP_HASH160 b20d32fb5d23ad13dd6c70e74e933e37b9f0ddb4 OP_EQUALVERIFY OP_CHECKSIG", "type": "pubkeyhash"}, "value": 0.04, "n": 1}, {"scriptPubKey": {"reqSigs": 1, "hex": "a91407e4021ca440e9c34ed07f5584e5976eaf16893187", "addresses": ["32QjoBFHrPpDwcvPTadEyYaPseQWzL8Fq9"], "asm": "OP_HASH160 07e4021ca440e9c34ed07f5584e5976eaf168931 OP_EQUAL", "type": "scripthash"}, "value": 191.48628485, "n": 2}], "hex": "01000000000101f7703ff540ee1bb87bcee0fa08e2fde8aa118db8b5956692f534d6cb484bdbc1040000001716001480395b92d165fc1dc5470ffa0706ea66e15757b6ffffffff03e03cc8010000000017a91469f3771743bb516a2a810fd624a0a9a7446182cd8700093d00000000001976a914b20d32fb5d23ad13dd6c70e74e933e37b9f0ddb488ac05e258750400000017a91407e4021ca440e9c34ed07f5584e5976eaf1689318702483045022100ca71210d20db2c2a108e1791bf72e6f0f2fc3780518a9cadc26e3422434267a202206da8c8b56e0cdce94cdab6c5780c2a226739f58bab3bd459a7f855c3a3f1c5f5012103f166ff75d4382bb77a58c574ba3e426624712bf205c410af7858f842df68486a00000000", "vin": [{"txinwitness": ["3045022100ca71210d20db2c2a108e1791bf72e6f0f2fc3780518a9cadc26e3422434267a202206da8c8b56e0cdce94cdab6c5780c2a226739f58bab3bd459a7f855c3a3f1c5f501", "03f166ff75d4382bb77a58c574ba3e426624712bf205c410af7858f842df68486a"], "sequence": 4294967295, "scriptSig": {"hex": "16001480395b92d165fc1dc5470ffa0706ea66e15757b6", "asm": "001480395b92d165fc1dc5470ffa0706ea66e15757b6"}, "vout": 4, "txid": "c1db4b48cbd634f5926695b5b88d11aae8fde208fae0ce7bb81bee40f53f70f7"}], "txid": "070528a7bdc840672882c1725844ed3152c334fbb6a60a7f44506fcc05b4ade0", "blocktime": 1537876114, "version": 1, "confirmations": 11460, "time": 1537876114, "locktime": 0, "vsize": 200, "size": 282}