{"hash": "838b0b6075ef065ddb51791be6d15905478b461c7faf597c2212c551ce8c5558", "blockhash": "0000000000000000001f76057863aec43deb6fa401d9628bb513d65a8098bfab", "vout": [{"scriptPubKey": {"reqSigs": 1, "hex": "76a9149a1b8f9b1fa2d2297863adb1cb11c71df455684888ac", "addresses": ["1F3r5We2zwNiSzG6GQUTTWnnPMCz2HJbJu"], "asm": "OP_DUP OP_HASH160 9a1b8f9b1fa2d2297863adb1cb11c71df4556848 OP_EQUALVERIFY OP_CHECKSIG", "type": "pubkeyhash"}, "value": 2.691e-05, "n": 0}, {"scriptPubKey": {"reqSigs": 1, "hex": "a9148ddb66c3371910a0ef8f38021cc4094e61e69f3a87", "addresses": ["3Ed62sPENkraPwpovPty9YMFGJ8FtTyv63"], "asm": "OP_HASH160 8ddb66c3371910a0ef8f38021cc4094e61e69f3a OP_EQUAL", "type": "scripthash"}, "value": 0.00045458, "n": 1}], "hex": "010000000001010d2189cf53ae3532d7caa2dd698e87e449fa28583e2e565018ae21ae6184c8260100000023220020fdd23d707f55451c4e006c77b5e8df35a185a8e99f9bda70bf0ded7913bb1eb3ffffffff02830a0000000000001976a9149a1b8f9b1fa2d2297863adb1cb11c71df455684888ac92b100000000000017a9148ddb66c3371910a0ef8f38021cc4094e61e69f3a870400483045022100d12c7e7b234d307166deeaf6e13cecdb34bc8db7bbead5719f194e1105561d9f02204ea34087dbd776f3bd85cc692200409856f5e58f77423d3e1334defb47e7c68e01483045022100bc66c5984632d2245f98a37ed204bb546b576af6ac154ea88899fc71e1266745022023e3d149e1b385440c0d4371da83c8c5b26f86acdb8a41e94157341657ed4243014752210286c104577b978160849865bc23f9a6df9b53d41c8ffb486754b97b2a474a181c2103148c80a5bdfddb05ff5bcffc397c8ca748d8b435ec6a175bc9d7bfc7fc6f853752ae00000000", "vin": [{"txinwitness": ["", "3045022100d12c7e7b234d307166deeaf6e13cecdb34bc8db7bbead5719f194e1105561d9f02204ea34087dbd776f3bd85cc692200409856f5e58f77423d3e1334defb47e7c68e01", "3045022100bc66c5984632d2245f98a37ed204bb546b576af6ac154ea88899fc71e1266745022023e3d149e1b385440c0d4371da83c8c5b26f86acdb8a41e94157341657ed424301", "52210286c104577b978160849865bc23f9a6df9b53d41c8ffb486754b97b2a474a181c2103148c80a5bdfddb05ff5bcffc397c8ca748d8b435ec6a175bc9d7bfc7fc6f853752ae"], "sequence": 4294967295, "scriptSig": {"hex": "220020fdd23d707f55451c4e006c77b5e8df35a185a8e99f9bda70bf0ded7913bb1eb3", "asm": "0020fdd23d707f55451c4e006c77b5e8df35a185a8e99f9bda70bf0ded7913bb1eb3"}, "vout": 1, "txid": "26c88461ae21ae1850562e3e5828fa49e4878e69dda2cad73235ae53cf89210d"}], "txid": "07064d1dcb4cf95ec0a91ad340126d46babad613366e2065fcba76c44003bb0a", "blocktime": 1537873891, "version": 1, "confirmations": 11478, "time": 1537873891, "locktime": 0, "vsize": 208, "size": 374}