{"hash": "070797756ea0f27ebb3f8e7eda02c9fb4be95d9c1e785ba9faec3f0231eb9dc7", "blockhash": "0000000000000000001cda96e906b7601b7a6fb1a3b62bca570a9e5d8f4b3de1", "vout": [{"scriptPubKey": {"reqSigs": 1, "hex": "a914a0984dde491cb60fe06f296622d2f73222d8b06f87", "addresses": ["3GLAVWtN1vjkBGeTAMen5NHkGqCzkY74SK"], "asm": "OP_HASH160 a0984dde491cb60fe06f296622d2f73222d8b06f OP_EQUAL", "type": "scripthash"}, "value": 0.00021332, "n": 0}, {"scriptPubKey": {"reqSigs": 1, "hex": "76a914345bce49181cf00f4dc01363a56b01247e24796888ac", "addresses": ["15mr7kk6VjT7v7nSUkaYztuHTDiCYC4YwZ"], "asm": "OP_DUP OP_HASH160 345bce49181cf00f4dc01363a56b01247e247968 OP_EQUALVERIFY OP_CHECKSIG", "type": "pubkeyhash"}, "value": 1.76440835, "n": 1}], "hex": "01000000012ca319e6c50a592d020148405b0276c87d4c95ba1fad9f9131a59a1db7a88407010000006b48304502210095f7399a89be5f51c94722bccaa3523e1f04f9d696a29b8be691c48978cc1a100220263ae5dc72f095e2034873cbd5e6dc186d43f2ec5c74f0449831ae2e5ceb2875012103fb73a4abfc598c87a96e50130f85d941dd70e1fc5b61322cb1fc5368f3612946ffffffff02545300000000000017a914a0984dde491cb60fe06f296622d2f73222d8b06f870346840a000000001976a914345bce49181cf00f4dc01363a56b01247e24796888ac00000000", "vin": [{"sequence": 4294967295, "scriptSig": {"hex": "48304502210095f7399a89be5f51c94722bccaa3523e1f04f9d696a29b8be691c48978cc1a100220263ae5dc72f095e2034873cbd5e6dc186d43f2ec5c74f0449831ae2e5ceb2875012103fb73a4abfc598c87a96e50130f85d941dd70e1fc5b61322cb1fc5368f3612946", "asm": "304502210095f7399a89be5f51c94722bccaa3523e1f04f9d696a29b8be691c48978cc1a100220263ae5dc72f095e2034873cbd5e6dc186d43f2ec5c74f0449831ae2e5ceb2875[ALL] 03fb73a4abfc598c87a96e50130f85d941dd70e1fc5b61322cb1fc5368f3612946"}, "vout": 1, "txid": "0784a8b71d9aa531919fad1fba954c7dc876025b404801022d590ac5e619a32c"}], "txid": "070797756ea0f27ebb3f8e7eda02c9fb4be95d9c1e785ba9faec3f0231eb9dc7", "blocktime": 1537873282, "version": 1, "confirmations": 11485, "time": 1537873282, "locktime": 0, "vsize": 224, "size": 224}