{"hash": "e5ec4d488f2456990cd42762f6f0cbd770e768a59cd975e47abf53d22231c321", "blockhash": "0000000000000000001e0dab787dd257d1dbfcb92a98c2207d5e1078be1f4165", "vout": [{"scriptPubKey": {"reqSigs": 1, "hex": "a91440c48105cd379c82201a01f21b5cf061efacab6c87", "addresses": ["37bUaA79buHGmGbs18WFdy1CQ2W4darPAj"], "asm": "OP_HASH160 40c48105cd379c82201a01f21b5cf061efacab6c OP_EQUAL", "type": "scripthash"}, "value": 0.084, "n": 0}, {"scriptPubKey": {"reqSigs": 1, "hex": "a91478251585eeae212505cdeb16366c35908cb609d887", "addresses": ["3CeHSD92bo2xZL8ZxRTURUekXgK1uFhnSr"], "asm": "OP_HASH160 78251585eeae212505cdeb16366c35908cb609d8 OP_EQUAL", "type": "scripthash"}, "value": 4.24354583, "n": 1}], "hex": "020000000001010314ce79ff304c00e6185ca0acf98ec2c9b0386acc3c033680251d985d88ebc300000000171600143fa16387f0c59b7f3a6f05856839ee4cc2f202d8feffffff02802c80000000000017a91440c48105cd379c82201a01f21b5cf061efacab6c8717234b190000000017a91478251585eeae212505cdeb16366c35908cb609d88702473044022051aa0817d937fad80be9281b05a17a3bc5a40e6099aa3f8b00c30bbf50af4d670220731dbc1eafd3e58310e854c1ccb92e55e6d44f89078c8ba472b01d74447746a30121035d6bb9278b74e65d9521990ba01eb7a6502a3abf7f9b0811dd7c365437d523ec12490800", "vin": [{"txinwitness": ["3044022051aa0817d937fad80be9281b05a17a3bc5a40e6099aa3f8b00c30bbf50af4d670220731dbc1eafd3e58310e854c1ccb92e55e6d44f89078c8ba472b01d74447746a301", "035d6bb9278b74e65d9521990ba01eb7a6502a3abf7f9b0811dd7c365437d523ec"], "sequence": 4294967294, "scriptSig": {"hex": "1600143fa16387f0c59b7f3a6f05856839ee4cc2f202d8", "asm": "00143fa16387f0c59b7f3a6f05856839ee4cc2f202d8"}, "vout": 0, "txid": "c3eb885d981d258036033ccc6a38b0c9c28ef9aca05c18e6004c30ff79ce1403"}], "txid": "0708ed024ad3e78f667fe3f76fd6bacc3e162e24d79b09279254477a628c92bc", "blocktime": 1537872475, "version": 2, "confirmations": 11486, "time": 1537872475, "locktime": 542994, "vsize": 166, "size": 247}