{"hash": "da600eecafd00d16a8efb18115c9d36dce908516c6895082a1a33830ceba3696", "blockhash": "0000000000000000000dcc0f55137456b1a82d3642486a52398922ac4d620174", "vout": [{"scriptPubKey": {"reqSigs": 1, "hex": "a914e1bf8e912f36ddb48888ffe598f2d1c9dbe029d787", "addresses": ["3NGfSK5e4qQKbWFJttmXt8ZMHvJiwz99Uv"], "asm": "OP_HASH160 e1bf8e912f36ddb48888ffe598f2d1c9dbe029d7 OP_EQUAL", "type": "scripthash"}, "value": 18.98181334, "n": 0}, {"scriptPubKey": {"reqSigs": 1, "hex": "76a914dda56c4c249bc0b3437f1d387c659df5a3929e9788ac", "addresses": ["1MCxWBwXaRrdWL9XjF6TahNt8atF7n1DZ5"], "asm": "OP_DUP OP_HASH160 dda56c4c249bc0b3437f1d387c659df5a3929e97 OP_EQUALVERIFY OP_CHECKSIG", "type": "pubkeyhash"}, "value": 0.0025, "n": 1}], "hex": "020000000001019753670561bb31d473727f5f654b6142b34eaaecc7e5aa603e27bb475fa1e7130000000017160014cf8ee3f9a8bc230311e9dc1b013e3746f05424bdfdffffff02d6f223710000000017a914e1bf8e912f36ddb48888ffe598f2d1c9dbe029d78790d00300000000001976a914dda56c4c249bc0b3437f1d387c659df5a3929e9788ac02483045022100eecb788551552f5de4da336ac82b1434b8ad82649fa2f94f94611b1c54a2ff810220023051ad3b576644ac7718b9d8f7781fcefc6cc3450675ec10861da471bd3b8301210352f80ced475f8e9c437126537ffb62ce0f4f5ce7434c56833019bc16f6a6d7d40c490800", "vin": [{"txinwitness": ["3045022100eecb788551552f5de4da336ac82b1434b8ad82649fa2f94f94611b1c54a2ff810220023051ad3b576644ac7718b9d8f7781fcefc6cc3450675ec10861da471bd3b8301", "0352f80ced475f8e9c437126537ffb62ce0f4f5ce7434c56833019bc16f6a6d7d4"], "sequence": 4294967293, "scriptSig": {"hex": "160014cf8ee3f9a8bc230311e9dc1b013e3746f05424bd", "asm": "0014cf8ee3f9a8bc230311e9dc1b013e3746f05424bd"}, "vout": 0, "txid": "13e7a15f47bb273e60aae5c7ecaa4eb342614b655f7f7273d431bb6105675397"}], "txid": "070a59078550432114e8462df51851aa13a46cf019789ad0d4c0eed12c08534a", "blocktime": 1537870268, "version": 2, "confirmations": 11520, "time": 1537870268, "locktime": 542988, "vsize": 168, "size": 250}