{"hash": "070ae1aed839c4671bb22f36ae2fbbac0c9a6013c3ac22e0d612167f90d4e70e", "blockhash": "000000000000000000205f8b0775d31398ef75b89a5e8ec8d2c57b4dc0ac4c20", "vout": [{"scriptPubKey": {"reqSigs": 1, "hex": "76a9140cf23f95e668bdfd33095426ede406a93aeb037388ac", "addresses": ["12BTK1qymCpjmpAS8BMSxKE48FM6s5XruQ"], "asm": "OP_DUP OP_HASH160 0cf23f95e668bdfd33095426ede406a93aeb0373 OP_EQUALVERIFY OP_CHECKSIG", "type": "pubkeyhash"}, "value": 0.0075476, "n": 0}, {"scriptPubKey": {"type": "nulldata", "hex": "6a146f6d6e69000000000000001f00000022c550539c", "asm": "OP_RETURN 6f6d6e69000000000000001f00000022c550539c"}, "value": 0.0, "n": 1}, {"scriptPubKey": {"reqSigs": 1, "hex": "76a914daf31ee992f1a19eb1cc927efe69033cd935cd5b88ac", "addresses": ["1LxhZ9QkgE3yovkfoJKiQnVKERSa5kBxUB"], "asm": "OP_DUP OP_HASH160 daf31ee992f1a19eb1cc927efe69033cd935cd5b OP_EQUALVERIFY OP_CHECKSIG", "type": "pubkeyhash"}, "value": 5.46e-06, "n": 2}], "hex": "0100000001cec7ab283e706c4a4f84b4cb2dc0ac32583dfec93c8ff2f2cb72b9ba976332ba000000006b483045022100a423f6f408335e53e18d9a5f3f3ccf1746c90563f061ddb2bc2f1cdd1a90ac7d022037229622cb6123c378b76133849b007c35d88ea83c4a6870eee89ebb4f780325012103d929589c13382490f73d6b033b389a6cde21af4cfb0cfc20d4c82745b9930b78ffffffff0348840b00000000001976a9140cf23f95e668bdfd33095426ede406a93aeb037388ac0000000000000000166a146f6d6e69000000000000001f00000022c550539c22020000000000001976a914daf31ee992f1a19eb1cc927efe69033cd935cd5b88ac00000000", "vin": [{"sequence": 4294967295, "scriptSig": {"hex": "483045022100a423f6f408335e53e18d9a5f3f3ccf1746c90563f061ddb2bc2f1cdd1a90ac7d022037229622cb6123c378b76133849b007c35d88ea83c4a6870eee89ebb4f780325012103d929589c13382490f73d6b033b389a6cde21af4cfb0cfc20d4c82745b9930b78", "asm": "3045022100a423f6f408335e53e18d9a5f3f3ccf1746c90563f061ddb2bc2f1cdd1a90ac7d022037229622cb6123c378b76133849b007c35d88ea83c4a6870eee89ebb4f780325[ALL] 03d929589c13382490f73d6b033b389a6cde21af4cfb0cfc20d4c82745b9930b78"}, "vout": 0, "txid": "ba326397bab972cbf2f28f3cc9fe3d5832acc02dcbb4844f4a6c703e28abc7ce"}], "txid": "070ae1aed839c4671bb22f36ae2fbbac0c9a6013c3ac22e0d612167f90d4e70e", "blocktime": 1537871175, "version": 1, "confirmations": 11511, "time": 1537871175, "locktime": 0, "vsize": 257, "size": 257}