{"hash": "070da02b67e5896510f8ce934137652dc10baf9653f395f01a38a97734e67933", "blockhash": "0000000000000000001cda96e906b7601b7a6fb1a3b62bca570a9e5d8f4b3de1", "vout": [{"scriptPubKey": {"reqSigs": 1, "hex": "a9146e727318f95d78b71bdd2d2d56b81757841fb09b87", "addresses": ["3Bm1Mk2iPieWFW4HkW5mtWXaLMjL6mgZun"], "asm": "OP_HASH160 6e727318f95d78b71bdd2d2d56b81757841fb09b OP_EQUAL", "type": "scripthash"}, "value": 0.00203, "n": 0}, {"scriptPubKey": {"reqSigs": 1, "hex": "76a914fa56c3ef7ce59abeac18b153e7cb48190f29961988ac", "addresses": ["1PpfsXF2igTqbAoFpPJuHFarL71gsG6FXY"], "asm": "OP_DUP OP_HASH160 fa56c3ef7ce59abeac18b153e7cb48190f299619 OP_EQUALVERIFY OP_CHECKSIG", "type": "pubkeyhash"}, "value": 0.03023892, "n": 1}], "hex": "0100000001751d4a7bceb2dc087ccac9feb2fb900bcf75797d30f6e71f5230ef74fd5326d6010000006a47304402201d6b04feca112a03c6516d7c326ae1e287d9396fca69f7358f957df44a0cd4f00220211bcb8c87db2848c9139b89c60ffd29d73b025d4dc99b93855b035e33fd1f7c0121020960f8c601abb41a1594b4275976f63f93499c7b1e84f0b2d64ae186e954e845ffffffff02f81803000000000017a9146e727318f95d78b71bdd2d2d56b81757841fb09b8714242e00000000001976a914fa56c3ef7ce59abeac18b153e7cb48190f29961988ac00000000", "vin": [{"sequence": 4294967295, "scriptSig": {"hex": "47304402201d6b04feca112a03c6516d7c326ae1e287d9396fca69f7358f957df44a0cd4f00220211bcb8c87db2848c9139b89c60ffd29d73b025d4dc99b93855b035e33fd1f7c0121020960f8c601abb41a1594b4275976f63f93499c7b1e84f0b2d64ae186e954e845", "asm": "304402201d6b04feca112a03c6516d7c326ae1e287d9396fca69f7358f957df44a0cd4f00220211bcb8c87db2848c9139b89c60ffd29d73b025d4dc99b93855b035e33fd1f7c[ALL] 020960f8c601abb41a1594b4275976f63f93499c7b1e84f0b2d64ae186e954e845"}, "vout": 1, "txid": "d62653fd74ef30521fe7f6307d7975cf0b90fbb2fec9ca7c08dcb2ce7b4a1d75"}], "txid": "070da02b67e5896510f8ce934137652dc10baf9653f395f01a38a97734e67933", "blocktime": 1537873282, "version": 1, "confirmations": 11482, "time": 1537873282, "locktime": 0, "vsize": 223, "size": 223}