{"hash": "070e474f6ab1448243f5ffe67af8afbab6e28d4c30d35453755b2d4dea4b63c4", "blockhash": "0000000000000000001f76057863aec43deb6fa401d9628bb513d65a8098bfab", "vout": [{"scriptPubKey": {"reqSigs": 1, "hex": "76a91488130976bec414c80cbbb6e3dd09477337e8540c88ac", "addresses": ["1DQVhoSTyrY61z6689WuhYTN54SbN6DLoZ"], "asm": "OP_DUP OP_HASH160 88130976bec414c80cbbb6e3dd09477337e8540c OP_EQUALVERIFY OP_CHECKSIG", "type": "pubkeyhash"}, "value": 0.0803912, "n": 0}, {"scriptPubKey": {"reqSigs": 1, "hex": "76a914b84ffd0b36b528e7b8d9919a86f3402726fa98ab88ac", "addresses": ["1HoZ9zXkarF7uBV9x4KJE9xcPhELe8UPaC"], "asm": "OP_DUP OP_HASH160 b84ffd0b36b528e7b8d9919a86f3402726fa98ab OP_EQUALVERIFY OP_CHECKSIG", "type": "pubkeyhash"}, "value": 0.11220099, "n": 1}, {"scriptPubKey": {"reqSigs": 1, "hex": "a9142b01fe5e5e919cf669980b49fa4e61492f237cf687", "addresses": ["35cRNK4FG8jVF8tRru1Nmg8WVmGcTZi7Ey"], "asm": "OP_HASH160 2b01fe5e5e919cf669980b49fa4e61492f237cf6 OP_EQUAL", "type": "scripthash"}, "value": 0.1285576, "n": 2}], "hex": "0100000002eb4cf39c6c0010d3a842d93a7b1c96c9acfe124d096eba4d6c5e37d965be0e3d000000006a47304402206318c674dda730ed7369ddb98ddcfbfda714ea1419edc1c1e020b29766144d0302201c5703c86072ffd0bd3cb94502cf67b697844ca1494386645372addd3e60973401210261f2ef1cfeeec3f44eb5e00d65dad65e18bdcf4a396ae62cf6133b5203e5aabcfdffffffa86e384c53260630367e8129f720797fc761b7d084176f0d776dbe2fc46c3b59000000006b483045022100feb15e44b523fbe5606be7f7fbbd91559051985599ab303f1207ac3a1955fcc102206fbe317216fd1c1a51f2cbacd0dc393cc56373d5dd5239f94d0aa07116e1c65401210261f2ef1cfeeec3f44eb5e00d65dad65e18bdcf4a396ae62cf6133b5203e5aabcfdffffff03d0aa7a00000000001976a91488130976bec414c80cbbb6e3dd09477337e8540c88ac8334ab00000000001976a914b84ffd0b36b528e7b8d9919a86f3402726fa98ab88acd029c4000000000017a9142b01fe5e5e919cf669980b49fa4e61492f237cf68714490800", "vin": [{"sequence": 4294967293, "scriptSig": {"hex": "47304402206318c674dda730ed7369ddb98ddcfbfda714ea1419edc1c1e020b29766144d0302201c5703c86072ffd0bd3cb94502cf67b697844ca1494386645372addd3e60973401210261f2ef1cfeeec3f44eb5e00d65dad65e18bdcf4a396ae62cf6133b5203e5aabc", "asm": "304402206318c674dda730ed7369ddb98ddcfbfda714ea1419edc1c1e020b29766144d0302201c5703c86072ffd0bd3cb94502cf67b697844ca1494386645372addd3e609734[ALL] 0261f2ef1cfeeec3f44eb5e00d65dad65e18bdcf4a396ae62cf6133b5203e5aabc"}, "vout": 0, "txid": "3d0ebe65d9375e6c4dba6e094d12feacc9961c7b3ad942a8d310006c9cf34ceb"}, {"sequence": 4294967293, "scriptSig": {"hex": "483045022100feb15e44b523fbe5606be7f7fbbd91559051985599ab303f1207ac3a1955fcc102206fbe317216fd1c1a51f2cbacd0dc393cc56373d5dd5239f94d0aa07116e1c65401210261f2ef1cfeeec3f44eb5e00d65dad65e18bdcf4a396ae62cf6133b5203e5aabc", "asm": "3045022100feb15e44b523fbe5606be7f7fbbd91559051985599ab303f1207ac3a1955fcc102206fbe317216fd1c1a51f2cbacd0dc393cc56373d5dd5239f94d0aa07116e1c654[ALL] 0261f2ef1cfeeec3f44eb5e00d65dad65e18bdcf4a396ae62cf6133b5203e5aabc"}, "vout": 0, "txid": "593b6cc42fbe6d770d6f1784d0b761c77f7920f729817e36300626534c386ea8"}], "txid": "070e474f6ab1448243f5ffe67af8afbab6e28d4c30d35453755b2d4dea4b63c4", "blocktime": 1537873891, "version": 1, "confirmations": 11477, "time": 1537873891, "locktime": 542996, "vsize": 405, "size": 405}