{"hash": "c48c406f5c20fcd378e6907985999f9714b430addedbf2a70e6f8d2da251f67f", "blockhash": "0000000000000000001f76057863aec43deb6fa401d9628bb513d65a8098bfab", "vout": [{"scriptPubKey": {"reqSigs": 1, "hex": "76a914cd89d458357b1b929e09628f867df4beeb58d5b188ac", "addresses": ["1KjndtKMcdxuoNY8v4TM6Jfy5uBMaxjSAY"], "asm": "OP_DUP OP_HASH160 cd89d458357b1b929e09628f867df4beeb58d5b1 OP_EQUALVERIFY OP_CHECKSIG", "type": "pubkeyhash"}, "value": 0.01475527, "n": 0}, {"scriptPubKey": {"reqSigs": 1, "hex": "a914060fffdc6187a3cc87b97fdd8a27a54f74da51d287", "addresses": ["32F59MdPmAP6eP6oStNe4SJ1ej6U6zc23g"], "asm": "OP_HASH160 060fffdc6187a3cc87b97fdd8a27a54f74da51d2 OP_EQUAL", "type": "scripthash"}, "value": 5.33781252, "n": 1}], "hex": "02000000000101a5baedc2cc78152df0068a2464d375b575cfdfbf61e6d796de07743d9011f8740100000017160014eac41fcb8e9f7e91eecb05d3ce9c1cb3f22f6643ffffffff02c7831600000000001976a914cd89d458357b1b929e09628f867df4beeb58d5b188ac04dbd01f0000000017a914060fffdc6187a3cc87b97fdd8a27a54f74da51d28702473044022057da8c0ee13d7aec4d2eb20b35f4d2107ad22a0faff0aeaea68d8018887a1b1802204a7127420d408031f93440e238e5e3aa5e8b84bbdd9f039b70a123d46b58b30d0121039750ca3b575cace9d04da96736c94bb7283f8cf69c5242bd4242a202b6406cb500000000", "vin": [{"txinwitness": ["3044022057da8c0ee13d7aec4d2eb20b35f4d2107ad22a0faff0aeaea68d8018887a1b1802204a7127420d408031f93440e238e5e3aa5e8b84bbdd9f039b70a123d46b58b30d01", "039750ca3b575cace9d04da96736c94bb7283f8cf69c5242bd4242a202b6406cb5"], "sequence": 4294967295, "scriptSig": {"hex": "160014eac41fcb8e9f7e91eecb05d3ce9c1cb3f22f6643", "asm": "0014eac41fcb8e9f7e91eecb05d3ce9c1cb3f22f6643"}, "vout": 1, "txid": "74f811903d7407de96d7e661bfdfcf75b575d364248a06f02d1578ccc2edbaa5"}], "txid": "0714944febed709d39713733d93671652b1456f513764cb0e35546154655efb8", "blocktime": 1537873891, "version": 2, "confirmations": 11478, "time": 1537873891, "locktime": 0, "vsize": 168, "size": 249}