{"hash": "81da01a179da5b6a3534c32041952753a87afb9bc68797c4f76d4a0f69101d7c", "blockhash": "000000000000000000022b45ed06c6f4ccd3cf7fb5ba4856ebd2e58215665228", "vout": [{"scriptPubKey": {"reqSigs": 1, "hex": "a91479f425812cbbcab8930a43d8e3cf94c19106294e87", "addresses": ["3CorAMM4FTn4KZVPUGddLQ9aRtQMTMoBS8"], "asm": "OP_HASH160 79f425812cbbcab8930a43d8e3cf94c19106294e OP_EQUAL", "type": "scripthash"}, "value": 0.0025, "n": 0}, {"scriptPubKey": {"reqSigs": 1, "hex": "a914a5022e900e3d3bcbcb220a4f7af8e95ae7a2b9db87", "addresses": ["3GjW2o7UEBbnzMLdZD1oTDSWiKsfpew1SQ"], "asm": "OP_HASH160 a5022e900e3d3bcbcb220a4f7af8e95ae7a2b9db OP_EQUAL", "type": "scripthash"}, "value": 0.01062738, "n": 1}], "hex": "0200000000010220446d0d6aa881cacf89eacfb07ba6bdd5f06476a0916731c9c6ca046634e82e01000000171600141ccca4680a5985c9535c48f44f11c6d9013e1f37feffffff5898e24f36a4a065bdb7143f86ff6dc5b8140450db6c3825e9ed93760c512444010000001716001472ccf89403af412ae54522d0dcc5e27eb31fc1b0feffffff0290d003000000000017a91479f425812cbbcab8930a43d8e3cf94c19106294e87523710000000000017a914a5022e900e3d3bcbcb220a4f7af8e95ae7a2b9db8702483045022100d8f3230b718cedd7a091f624e0099663bb198aefc9cd2f5d5a022a0dc4cc69cd02203a77a92518fa6e7d9d340a067528b583678ac65c753d93142d72dc2baf5ed4da012102974044e2b598af5f3a765ac6f319053b6a24827aedcdd37571178b3df255ad8d02473044022023c62cb78a3378e9069a44ae008f93c06c90318dc0bd03bffbb46e5468f380d302201d6ee99b813a31d10d6f09fc954c103abb4ef34d208536d44bb3fc8a2fdc69be01210318293f80a2409e2538f3c1e59aeddedb4f07c0b2c91e02810ed3c3f45ae362fd0b490800", "vin": [{"txinwitness": ["3045022100d8f3230b718cedd7a091f624e0099663bb198aefc9cd2f5d5a022a0dc4cc69cd02203a77a92518fa6e7d9d340a067528b583678ac65c753d93142d72dc2baf5ed4da01", "02974044e2b598af5f3a765ac6f319053b6a24827aedcdd37571178b3df255ad8d"], "sequence": 4294967294, "scriptSig": {"hex": "1600141ccca4680a5985c9535c48f44f11c6d9013e1f37", "asm": "00141ccca4680a5985c9535c48f44f11c6d9013e1f37"}, "vout": 1, "txid": "2ee8346604cac6c9316791a07664f0d5bda67bb0cfea89cfca81a86a0d6d4420"}, {"txinwitness": ["3044022023c62cb78a3378e9069a44ae008f93c06c90318dc0bd03bffbb46e5468f380d302201d6ee99b813a31d10d6f09fc954c103abb4ef34d208536d44bb3fc8a2fdc69be01", "0318293f80a2409e2538f3c1e59aeddedb4f07c0b2c91e02810ed3c3f45ae362fd"], "sequence": 4294967294, "scriptSig": {"hex": "16001472ccf89403af412ae54522d0dcc5e27eb31fc1b0", "asm": "001472ccf89403af412ae54522d0dcc5e27eb31fc1b0"}, "vout": 1, "txid": "4424510c7693ede925386cdb500414b8c56dff863f14b7bd65a0a4364fe29858"}], "txid": "07155d637d60a2e3b83570774ea276030b263dc3ce28c0f4d05f8ce8d2615455", "blocktime": 1537869901, "version": 2, "confirmations": 11524, "time": 1537869901, "locktime": 542987, "vsize": 257, "size": 419}