{"hash": "07165bdabc3e3bc44d118ed51a48dfde7e72c11c73bba1d6f72a97868305dc4d", "blockhash": "0000000000000000000e13cef7c366c0283d82e591d1acd082e914b08063cdf1", "vout": [{"scriptPubKey": {"reqSigs": 1, "hex": "76a914d243e6abb9a60fbff430b421d2df4b7d59ec186088ac", "addresses": ["1LAnF8h3qMGx3TSwNUHVneBZUEpwE4gu3D"], "asm": "OP_DUP OP_HASH160 d243e6abb9a60fbff430b421d2df4b7d59ec1860 OP_EQUALVERIFY OP_CHECKSIG", "type": "pubkeyhash"}, "value": 0.00076972, "n": 0}, {"scriptPubKey": {"reqSigs": 1, "hex": "76a9143851f34d13937b673a7d24a1950bb5b21ce94af388ac", "addresses": ["168o1kqNquEJeR9vosUB5fw4eAwcVAgh8P"], "asm": "OP_DUP OP_HASH160 3851f34d13937b673a7d24a1950bb5b21ce94af3 OP_EQUALVERIFY OP_CHECKSIG", "type": "pubkeyhash"}, "value": 5.46e-06, "n": 1}, {"scriptPubKey": {"type": "nulldata", "hex": "6a146f6d6e69000000000000001f0000000ba43b7400", "asm": "OP_RETURN 6f6d6e69000000000000001f0000000ba43b7400"}, "value": 0.0, "n": 2}], "hex": "0100000002b804ef5d1963722076c41581d0f2ffb36d09550f3fc69030402c62f51266460c010000006a47304402207fa441345073f73bd0fc267ae0cd36bf4ab4ad93676aa9571ea60b4522a0313002201bbe2cd8bf7ab1d02084021595c5334fdea22c2144b2cd40b194e1c0c8706f820121022e76fc1fe6b2c3be25836dbbe2ebee7185db87e6894eecae8ddb07b488c5761affffffffe81ea8c603cecc01daf6868281f67918641429ec0259eb3be0343de00fbc8dd4000000006b483045022100b2e034a3366c6296abff34395c91957e40a9cacc99e6a14548a90669489c1e32022013f9febd5061e0e7c30d68df40cb623429447c798e133d6b1c4ff3c43423a22a01210271977291b74f1f5f5c42157e8aae804664eaaeccfd097918450d37f28fb94d77ffffffff03ac2c0100000000001976a914d243e6abb9a60fbff430b421d2df4b7d59ec186088ac22020000000000001976a9143851f34d13937b673a7d24a1950bb5b21ce94af388ac0000000000000000166a146f6d6e69000000000000001f0000000ba43b740000000000", "vin": [{"sequence": 4294967295, "scriptSig": {"hex": "47304402207fa441345073f73bd0fc267ae0cd36bf4ab4ad93676aa9571ea60b4522a0313002201bbe2cd8bf7ab1d02084021595c5334fdea22c2144b2cd40b194e1c0c8706f820121022e76fc1fe6b2c3be25836dbbe2ebee7185db87e6894eecae8ddb07b488c5761a", "asm": "304402207fa441345073f73bd0fc267ae0cd36bf4ab4ad93676aa9571ea60b4522a0313002201bbe2cd8bf7ab1d02084021595c5334fdea22c2144b2cd40b194e1c0c8706f82[ALL] 022e76fc1fe6b2c3be25836dbbe2ebee7185db87e6894eecae8ddb07b488c5761a"}, "vout": 1, "txid": "0c466612f5622c403090c63f0f55096db3fff2d08115c476207263195def04b8"}, {"sequence": 4294967295, "scriptSig": {"hex": "483045022100b2e034a3366c6296abff34395c91957e40a9cacc99e6a14548a90669489c1e32022013f9febd5061e0e7c30d68df40cb623429447c798e133d6b1c4ff3c43423a22a01210271977291b74f1f5f5c42157e8aae804664eaaeccfd097918450d37f28fb94d77", "asm": "3045022100b2e034a3366c6296abff34395c91957e40a9cacc99e6a14548a90669489c1e32022013f9febd5061e0e7c30d68df40cb623429447c798e133d6b1c4ff3c43423a22a[ALL] 0271977291b74f1f5f5c42157e8aae804664eaaeccfd097918450d37f28fb94d77"}, "vout": 0, "txid": "d48dbc0fe03d34e03beb5902ec2914641879f6818286f6da01ccce03c6a81ee8"}], "txid": "07165bdabc3e3bc44d118ed51a48dfde7e72c11c73bba1d6f72a97868305dc4d", "blocktime": 1537871767, "version": 1, "confirmations": 11491, "time": 1537871767, "locktime": 0, "vsize": 404, "size": 404}