{"hash": "071722ad0dd56ed8f862c42442b43092fce3c73bf76772572741269c4089e0e4", "blockhash": "0000000000000000001e0dab787dd257d1dbfcb92a98c2207d5e1078be1f4165", "vout": [{"scriptPubKey": {"reqSigs": 1, "hex": "a914344bff0a4e8c5daf38bab90d5aaaff176b4be96187", "addresses": ["36TY6q9puxZCD8GXPrATa5n2vuKnuqmQwH"], "asm": "OP_HASH160 344bff0a4e8c5daf38bab90d5aaaff176b4be961 OP_EQUAL", "type": "scripthash"}, "value": 0.02, "n": 0}, {"scriptPubKey": {"reqSigs": 1, "hex": "76a914309e28e7d9b17a90f2386f71f62a6554c0c98d3788ac", "addresses": ["15S4uLsPiWKEzzHk4ioU3u4v6aq5HEMaVA"], "asm": "OP_DUP OP_HASH160 309e28e7d9b17a90f2386f71f62a6554c0c98d37 OP_EQUALVERIFY OP_CHECKSIG", "type": "pubkeyhash"}, "value": 0.13887454, "n": 1}], "hex": "01000000017af940f65d3d29cad2538e2f6be2218222c89ad1b2b9cb6685519264e1ff3ab9010000006a47304402206cbb0efd4673d855359b2619713a640759b3566a1f065426a6ee4094e6c323fc0220352e3e9d4f36314332c0b6591e4653a67c3291bb41e4a16a7053582355f61680012103d978081165c335c7b112616e50f2efd759daf8a21d41b40698b20579c8e54276ffffffff0280841e000000000017a914344bff0a4e8c5daf38bab90d5aaaff176b4be96187dee7d300000000001976a914309e28e7d9b17a90f2386f71f62a6554c0c98d3788ac00000000", "vin": [{"sequence": 4294967295, "scriptSig": {"hex": "47304402206cbb0efd4673d855359b2619713a640759b3566a1f065426a6ee4094e6c323fc0220352e3e9d4f36314332c0b6591e4653a67c3291bb41e4a16a7053582355f61680012103d978081165c335c7b112616e50f2efd759daf8a21d41b40698b20579c8e54276", "asm": "304402206cbb0efd4673d855359b2619713a640759b3566a1f065426a6ee4094e6c323fc0220352e3e9d4f36314332c0b6591e4653a67c3291bb41e4a16a7053582355f61680[ALL] 03d978081165c335c7b112616e50f2efd759daf8a21d41b40698b20579c8e54276"}, "vout": 1, "txid": "b93affe16492518566cbb9b2d19ac8228221e26b2f8e53d2ca293d5df640f97a"}], "txid": "071722ad0dd56ed8f862c42442b43092fce3c73bf76772572741269c4089e0e4", "blocktime": 1537872475, "version": 1, "confirmations": 11486, "time": 1537872475, "locktime": 0, "vsize": 223, "size": 223}