{"hash": "6046f5d2878f80aa67147940e0d43cefa2854228105db3a1f17b98453e70af93", "blockhash": "0000000000000000001cda96e906b7601b7a6fb1a3b62bca570a9e5d8f4b3de1", "vout": [{"scriptPubKey": {"reqSigs": 1, "hex": "a91481feeb35f50b142fa622adf4b5f95219a0a93c8c87", "addresses": ["3DYNUMinLRWqQAihJjCeJFWe8yFqnJbtZK"], "asm": "OP_HASH160 81feeb35f50b142fa622adf4b5f95219a0a93c8c OP_EQUAL", "type": "scripthash"}, "value": 0.00822964, "n": 0}, {"scriptPubKey": {"reqSigs": 1, "hex": "a914a5c679defd49547b8133a1367eeadbdeaecec3da87", "addresses": ["3GoZBZ6F8g4UiCt7moPNLDX7KKwgtGgLUT"], "asm": "OP_HASH160 a5c679defd49547b8133a1367eeadbdeaecec3da OP_EQUAL", "type": "scripthash"}, "value": 0.51835536, "n": 1}], "hex": "0100000000010152d5ab1bff2b862a0e5840aedf91f7b194d1e95bbb797d3c99dcd4c6bffd001201000000232200202d90cd274cea8141a030c0b79acc5b5c0b80b73d028692a1104913808bff6c09ffffffff02b48e0c000000000017a91481feeb35f50b142fa622adf4b5f95219a0a93c8c8790f216030000000017a914a5c679defd49547b8133a1367eeadbdeaecec3da87040047304402205954942a9a43df36595c7e6380d44f40e635b45a9633748be45115e119f8314502205d203d5ed5cef96df4b91944787041cc51d264886af3caa48cf42a2fd3994ca201483045022100f88458cee9e2f428e95a40fcae9ad7cbe1a9c773ad91b49fdc8b6129ed09e500022042c7a5b82aeae8e9f54be08754d8f33fa55c8fc5db7dd84c2c08250b31898d28014752210295d70c0f10033e6e119fdc61ddd495bfe23995150af6df4688db5bf235f2853b21023e4b58fb2a91970de56515d11487aabd364f0404f1099bef70493cc56002342352ae00000000", "vin": [{"txinwitness": ["", "304402205954942a9a43df36595c7e6380d44f40e635b45a9633748be45115e119f8314502205d203d5ed5cef96df4b91944787041cc51d264886af3caa48cf42a2fd3994ca201", "3045022100f88458cee9e2f428e95a40fcae9ad7cbe1a9c773ad91b49fdc8b6129ed09e500022042c7a5b82aeae8e9f54be08754d8f33fa55c8fc5db7dd84c2c08250b31898d2801", "52210295d70c0f10033e6e119fdc61ddd495bfe23995150af6df4688db5bf235f2853b21023e4b58fb2a91970de56515d11487aabd364f0404f1099bef70493cc56002342352ae"], "sequence": 4294967295, "scriptSig": {"hex": "2200202d90cd274cea8141a030c0b79acc5b5c0b80b73d028692a1104913808bff6c09", "asm": "00202d90cd274cea8141a030c0b79acc5b5c0b80b73d028692a1104913808bff6c09"}, "vout": 1, "txid": "1200fdbfc6d4dc993c7d79bb5be9d194b1f791dfae40580e2a862bff1babd552"}], "txid": "071b1019cb0af9e1be7e2c2a9b9065ab0368eb2910c3fef15aaa501379bc2347", "blocktime": 1537873282, "version": 1, "confirmations": 11484, "time": 1537873282, "locktime": 0, "vsize": 206, "size": 371}