{"hash": "41196b0406c9a45ada245920456ce54b571139bf56515167c93079209756ebf4", "blockhash": "000000000000000000022b45ed06c6f4ccd3cf7fb5ba4856ebd2e58215665228", "vout": [{"scriptPubKey": {"reqSigs": 1, "hex": "76a9147f4dd6c9442e31e0b16bc669ffb3691425c4afb788ac", "addresses": ["1Cc84iGoZrXC1JmagmKPLgRswx3UQzCWaE"], "asm": "OP_DUP OP_HASH160 7f4dd6c9442e31e0b16bc669ffb3691425c4afb7 OP_EQUALVERIFY OP_CHECKSIG", "type": "pubkeyhash"}, "value": 0.11577634, "n": 0}, {"scriptPubKey": {"reqSigs": 1, "hex": "76a9141f6e229695e855d79b4fa44b206bca599606bbef88ac", "addresses": ["13sBtGZko6kdGgPx9zZySQhWUyoGu1Sy5U"], "asm": "OP_DUP OP_HASH160 1f6e229695e855d79b4fa44b206bca599606bbef OP_EQUALVERIFY OP_CHECKSIG", "type": "pubkeyhash"}, "value": 0.00977114, "n": 1}], "hex": "02000000000108175d16578d00e57190b69ec474891fb4f0dd8294f8de904c4a98a2d2d003d499000000006b483045022100807fcf11f03a7c2b0c2bfc99f93e38384d692376d0fb8601ef8bef7dad00250702202f0bfae96d027d53bc2882fb0174c12bc43e11e7a724b865d677ae5cd13bb090012102b049eb6261c3f67cd4715df7dc409584972e98b3148c06938e9ee8277d9868acfeffffff2cb6a79ca99e0da5d69eb52eac115625818e8d553e54f57acacbeb1b99d2b67a00000000171600147192e2c29e3864e73e322e25e6bf0401a9549b1afeffffff50f2b67d8c63a85ffbf9d6e7c1001e9f24504482cb1e1db0c3ea8b70954da85b000000006a473044022019aaad989a960e9528300a7d02131224894f8da5fe01d8eed7773ca76711a50b022030d7d6d1cc51b10d70b41ea836b1dd00e491de7335a7b67e29b88886943f34c60121021e0f73631be72c6d4b2c730cde23187114b368be899e16ba231a242a07124337feffffff6880f50deae71e1b87a0db465f7e17ee4c5da684c16ff25fbcde738e2750aa60010000006a47304402204efaafbcf9d73fdc6b8e5516b8e90aee2c3e4df25c02fefe7a8a24e7c474782c02203d346940d3e35dcadbb16965cbaa9d4399b57587c0fbeed72a51b8b8e895d9e9012102a96cb7003a6646cd9cce59a9b67a18318b50ed8992cef6f7187c46a9c78863d9feffffff77e0cae86696d3eddb921d86307d3958e47c0b4e6d62ec5b7ead90c368820fd5000000006a47304402202e1a11abc179537f6b9993ddfbd203b1aba82e9e5d0002a4ed09e8b17ff3eea30220499989354bfe5e0e5039fa76a38cbc7f7863824617705f597e815392450e8ea60121035f7c9f4753a8f2e77530c67df092b0c590e6cf71151d4c9c08d671ff914ad6fefeffffff7b1f80f738642c0edf140ab7d002d8acb8735745fe59ab5e8dba3eed57181f14010000006a47304402204646ff53e6c167a507e16c841da38fce6c693be4a4c4bc0d611e009f4b7b9023022066ead2a1bafa770ab3ab822a185a99b4a30a35023f6922cd9f0a2f1cf4ac9920012102c926ce23a961523bc1a9c95db25e955c98010aa11ed1875aeadeae07015e8665feffffff9c8cb4b215607c4ede328b2eefe2e32ee58d27bf16eca138aee3e63a26e757a600000000171600148d80fb5832740ffdc40500ef727da4ebe2cfd92dfeffffffb4a29f58ae137f929dc17b30098658717c58b93c1e8d12287a1d33266c052ab1000000006a47304402202a3d0a749424f933c4dfda283996a54848b5b6149e98318919a90f642205e48d022055fa4e3a71aebfa2c2c826cc55099868bb120c423cc9fce3c7c64eb9cf9b7c3b012102c95d45e0020de6a1ab4199f6d0b551d8f5a89f0c43ef945abce8c3053344d53bfeffffff0222a9b000000000001976a9147f4dd6c9442e31e0b16bc669ffb3691425c4afb788acdae80e00000000001976a9141f6e229695e855d79b4fa44b206bca599606bbef88ac000247304402202382dc87048d7afb0daf19b617d2aa79611032b1e1c43e944bdf560af227291d02207aee1ecf4bad9f359e84fa38c264947cff88ceb55691fb79dab9df5b4fe1b06f012102550e7d33f789e11747b0544bbe48ad76059bf7b6f7c326ca9196bfc3657b971800000000024830450221009885130a3ac1fba1ddbef7a8fac63f89cd7141850f07c9306583970ecfda04c0022013bc620a36bf0dbe12ba92613894b8ac681da31edefa1a38b1a42ddf007373e0012103248ba1b7ba6ee7345a5c13e80a13319ea59b9f5f9cb07d0d56d84f3f17303c38000b490800", "vin": [{"sequence": 4294967294, "scriptSig": {"hex": "483045022100807fcf11f03a7c2b0c2bfc99f93e38384d692376d0fb8601ef8bef7dad00250702202f0bfae96d027d53bc2882fb0174c12bc43e11e7a724b865d677ae5cd13bb090012102b049eb6261c3f67cd4715df7dc409584972e98b3148c06938e9ee8277d9868ac", "asm": "3045022100807fcf11f03a7c2b0c2bfc99f93e38384d692376d0fb8601ef8bef7dad00250702202f0bfae96d027d53bc2882fb0174c12bc43e11e7a724b865d677ae5cd13bb090[ALL] 02b049eb6261c3f67cd4715df7dc409584972e98b3148c06938e9ee8277d9868ac"}, "vout": 0, "txid": "99d403d0d2a2984a4c90def89482ddf0b41f8974c49eb69071e5008d57165d17"}, {"txinwitness": ["304402202382dc87048d7afb0daf19b617d2aa79611032b1e1c43e944bdf560af227291d02207aee1ecf4bad9f359e84fa38c264947cff88ceb55691fb79dab9df5b4fe1b06f01", "02550e7d33f789e11747b0544bbe48ad76059bf7b6f7c326ca9196bfc3657b9718"], "sequence": 4294967294, "scriptSig": {"hex": "1600147192e2c29e3864e73e322e25e6bf0401a9549b1a", "asm": "00147192e2c29e3864e73e322e25e6bf0401a9549b1a"}, "vout": 0, "txid": "7ab6d2991bebcbca7af5543e558d8e81255611ac2eb59ed6a50d9ea99ca7b62c"}, {"sequence": 4294967294, "scriptSig": {"hex": "473044022019aaad989a960e9528300a7d02131224894f8da5fe01d8eed7773ca76711a50b022030d7d6d1cc51b10d70b41ea836b1dd00e491de7335a7b67e29b88886943f34c60121021e0f73631be72c6d4b2c730cde23187114b368be899e16ba231a242a07124337", "asm": "3044022019aaad989a960e9528300a7d02131224894f8da5fe01d8eed7773ca76711a50b022030d7d6d1cc51b10d70b41ea836b1dd00e491de7335a7b67e29b88886943f34c6[ALL] 021e0f73631be72c6d4b2c730cde23187114b368be899e16ba231a242a07124337"}, "vout": 0, "txid": "5ba84d95708beac3b01d1ecb824450249f1e00c1e7d6f9fb5fa8638c7db6f250"}, {"sequence": 4294967294, "scriptSig": {"hex": "47304402204efaafbcf9d73fdc6b8e5516b8e90aee2c3e4df25c02fefe7a8a24e7c474782c02203d346940d3e35dcadbb16965cbaa9d4399b57587c0fbeed72a51b8b8e895d9e9012102a96cb7003a6646cd9cce59a9b67a18318b50ed8992cef6f7187c46a9c78863d9", "asm": "304402204efaafbcf9d73fdc6b8e5516b8e90aee2c3e4df25c02fefe7a8a24e7c474782c02203d346940d3e35dcadbb16965cbaa9d4399b57587c0fbeed72a51b8b8e895d9e9[ALL] 02a96cb7003a6646cd9cce59a9b67a18318b50ed8992cef6f7187c46a9c78863d9"}, "vout": 1, "txid": "60aa50278e73debc5ff26fc184a65d4cee177e5f46dba0871b1ee7ea0df58068"}, {"sequence": 4294967294, "scriptSig": {"hex": "47304402202e1a11abc179537f6b9993ddfbd203b1aba82e9e5d0002a4ed09e8b17ff3eea30220499989354bfe5e0e5039fa76a38cbc7f7863824617705f597e815392450e8ea60121035f7c9f4753a8f2e77530c67df092b0c590e6cf71151d4c9c08d671ff914ad6fe", "asm": "304402202e1a11abc179537f6b9993ddfbd203b1aba82e9e5d0002a4ed09e8b17ff3eea30220499989354bfe5e0e5039fa76a38cbc7f7863824617705f597e815392450e8ea6[ALL] 035f7c9f4753a8f2e77530c67df092b0c590e6cf71151d4c9c08d671ff914ad6fe"}, "vout": 0, "txid": "d50f8268c390ad7e5bec626d4e0b7ce458397d30861d92dbedd39666e8cae077"}, {"sequence": 4294967294, "scriptSig": {"hex": "47304402204646ff53e6c167a507e16c841da38fce6c693be4a4c4bc0d611e009f4b7b9023022066ead2a1bafa770ab3ab822a185a99b4a30a35023f6922cd9f0a2f1cf4ac9920012102c926ce23a961523bc1a9c95db25e955c98010aa11ed1875aeadeae07015e8665", "asm": "304402204646ff53e6c167a507e16c841da38fce6c693be4a4c4bc0d611e009f4b7b9023022066ead2a1bafa770ab3ab822a185a99b4a30a35023f6922cd9f0a2f1cf4ac9920[ALL] 02c926ce23a961523bc1a9c95db25e955c98010aa11ed1875aeadeae07015e8665"}, "vout": 1, "txid": "141f1857ed3eba8d5eab59fe455773b8acd802d0b70a14df0e2c6438f7801f7b"}, {"txinwitness": ["30450221009885130a3ac1fba1ddbef7a8fac63f89cd7141850f07c9306583970ecfda04c0022013bc620a36bf0dbe12ba92613894b8ac681da31edefa1a38b1a42ddf007373e001", "03248ba1b7ba6ee7345a5c13e80a13319ea59b9f5f9cb07d0d56d84f3f17303c38"], "sequence": 4294967294, "scriptSig": {"hex": "1600148d80fb5832740ffdc40500ef727da4ebe2cfd92d", "asm": "00148d80fb5832740ffdc40500ef727da4ebe2cfd92d"}, "vout": 0, "txid": "a657e7263ae6e3ae38a1ec16bf278de52ee3e2ef2e8b32de4e7c6015b2b48c9c"}, {"sequence": 4294967294, "scriptSig": {"hex": "47304402202a3d0a749424f933c4dfda283996a54848b5b6149e98318919a90f642205e48d022055fa4e3a71aebfa2c2c826cc55099868bb120c423cc9fce3c7c64eb9cf9b7c3b012102c95d45e0020de6a1ab4199f6d0b551d8f5a89f0c43ef945abce8c3053344d53b", "asm": "304402202a3d0a749424f933c4dfda283996a54848b5b6149e98318919a90f642205e48d022055fa4e3a71aebfa2c2c826cc55099868bb120c423cc9fce3c7c64eb9cf9b7c3b[ALL] 02c95d45e0020de6a1ab4199f6d0b551d8f5a89f0c43ef945abce8c3053344d53b"}, "vout": 0, "txid": "b12a056c26331d7a28128d1e3cb9587c71588609307bc19d927f13ae589fa2b4"}], "txid": "071ba4c68c9975621e4d7c7d0ecdec32071c3c445203becfdda86c1f71eff333", "blocktime": 1537869901, "version": 2, "confirmations": 11522, "time": 1537869901, "locktime": 542987, "vsize": 1145, "size": 1312}