{"hash": "071cbd8816452f68558936e02d2e605cb50e6a5885073884664874e4156aeb94", "blockhash": "0000000000000000001f0ddff1eddb255c1121bcd4da4f1bc9a0da00cae72433", "vout": [{"scriptPubKey": {"reqSigs": 1, "hex": "76a914b6146519da1a4ed833fffc1fc3b475dfa7594e7888ac", "addresses": ["1HbkQyh31wgV1uAmTJoUUxjK4dAu1Jr3Gh"], "asm": "OP_DUP OP_HASH160 b6146519da1a4ed833fffc1fc3b475dfa7594e78 OP_EQUALVERIFY OP_CHECKSIG", "type": "pubkeyhash"}, "value": 0.06249295, "n": 0}, {"scriptPubKey": {"reqSigs": 1, "hex": "a914c9367137a14ca35566e917b714c8a9ef655c790387", "addresses": ["3L2vxpGqFTtFvn1D2eAZCVp43magDZLFwz"], "asm": "OP_HASH160 c9367137a14ca35566e917b714c8a9ef655c7903 OP_EQUAL", "type": "scripthash"}, "value": 0.06063255, "n": 1}, {"scriptPubKey": {"reqSigs": 1, "hex": "76a9148135b7ab6ef5731630f51feeb38e7c31c09eef9e88ac", "addresses": ["1CnCX6qbC6fbgyN4L2h2iwBNYEPaDAw1bv"], "asm": "OP_DUP OP_HASH160 8135b7ab6ef5731630f51feeb38e7c31c09eef9e OP_EQUALVERIFY OP_CHECKSIG", "type": "pubkeyhash"}, "value": 0.06009493, "n": 2}, {"scriptPubKey": {"reqSigs": 1, "hex": "76a9144d9339346db8e15376f05e680665a1858840550088ac", "addresses": ["185BQ369efwUBYUZcRcBU99BDZpdBpR1BQ"], "asm": "OP_DUP OP_HASH160 4d9339346db8e15376f05e680665a18588405500 OP_EQUALVERIFY OP_CHECKSIG", "type": "pubkeyhash"}, "value": 0.06382191, "n": 3}, {"scriptPubKey": {"reqSigs": 1, "hex": "a9148a3b1d8dbe33c0a190c508ea459b4108fd9782d387", "addresses": ["3EHuzRroU1bcfpsjfg6q9ewHytChsCLsyE"], "asm": "OP_HASH160 8a3b1d8dbe33c0a190c508ea459b4108fd9782d3 OP_EQUAL", "type": "scripthash"}, "value": 0.06122626, "n": 4}, {"scriptPubKey": {"reqSigs": 1, "hex": "76a914efe533633dc721b51f9560a3e5b1d934c719ec3588ac", "addresses": ["1NsT4zdSCkmhZgrxbMxe47Xhj7S4F6piGL"], "asm": "OP_DUP OP_HASH160 efe533633dc721b51f9560a3e5b1d934c719ec35 OP_EQUALVERIFY OP_CHECKSIG", "type": "pubkeyhash"}, "value": 0.06020766, "n": 5}, {"scriptPubKey": {"reqSigs": 1, "hex": "76a914f4a91defa3b4ae65a7ee7d5099247b8c7d3a457d88ac", "addresses": ["1PJeUFw7KZTyqexGmNFDse9HpXtDXoWuT5"], "asm": "OP_DUP OP_HASH160 f4a91defa3b4ae65a7ee7d5099247b8c7d3a457d OP_EQUALVERIFY OP_CHECKSIG", "type": "pubkeyhash"}, "value": 0.06105859, "n": 6}, {"scriptPubKey": {"reqSigs": 1, "hex": "76a9144608c9c895700f08b731b39a2e291ad52e34941988ac", "addresses": ["17PJq3ZWJmQHPE8cQ4kGq8QcFhUPTM6Npz"], "asm": "OP_DUP OP_HASH160 4608c9c895700f08b731b39a2e291ad52e349419 OP_EQUALVERIFY OP_CHECKSIG", "type": "pubkeyhash"}, "value": 0.061722, "n": 7}, {"scriptPubKey": {"reqSigs": 1, "hex": "76a914cce778d6266fe39069936cf32a391f167e808b6a88ac", "addresses": ["1KgS96HcoZPceQM4i7NMipayURqYHx1ZUK"], "asm": "OP_DUP OP_HASH160 cce778d6266fe39069936cf32a391f167e808b6a OP_EQUALVERIFY OP_CHECKSIG", "type": "pubkeyhash"}, "value": 0.06328755, "n": 8}, {"scriptPubKey": {"reqSigs": 1, "hex": "a914a89d6c2e6be0a55415da59e75ef37bacd367879a87", "addresses": ["3H4a2gdbWN9ae1zypywt23Gs6nPGEWEoTs"], "asm": "OP_HASH160 a89d6c2e6be0a55415da59e75ef37bacd367879a OP_EQUAL", "type": "scripthash"}, "value": 0.06086432, "n": 9}, {"scriptPubKey": {"reqSigs": 1, "hex": "76a914f5bf1421da939055e3cdee716512571f7979909388ac", "addresses": ["1PQPTNmEprLjLCteUx3Vjd4rzaYhdDRaKx"], "asm": "OP_DUP OP_HASH160 f5bf1421da939055e3cdee716512571f79799093 OP_EQUALVERIFY OP_CHECKSIG", "type": "pubkeyhash"}, "value": 0.06166736, "n": 10}, {"scriptPubKey": {"reqSigs": 1, "hex": "76a9140dfaab61fac7ea11928b91d0c0774394e0aae35c88ac", "addresses": ["12Gv5KBYFeCWM1KK6bLgE7EMrvCqcfA3bj"], "asm": "OP_DUP OP_HASH160 0dfaab61fac7ea11928b91d0c0774394e0aae35c OP_EQUALVERIFY OP_CHECKSIG", "type": "pubkeyhash"}, "value": 0.15432806, "n": 11}, {"scriptPubKey": {"reqSigs": 1, "hex": "76a9148ad14123376dd2209a92be387e8bbbe12f2b630088ac", "addresses": ["1Dezvj83ExR21uM2Ew6mJnmYVBVTTiuAhV"], "asm": "OP_DUP OP_HASH160 8ad14123376dd2209a92be387e8bbbe12f2b6300 OP_EQUALVERIFY OP_CHECKSIG", "type": "pubkeyhash"}, "value": 0.06182935, "n": 12}, {"scriptPubKey": {"reqSigs": 1, "hex": "76a91410711cf79c0536486fe7f6e33276faef39e1b45d88ac", "addresses": ["12VwKJvKfw5Er7EkionPSn3NLrpA6Dr7pL"], "asm": "OP_DUP OP_HASH160 10711cf79c0536486fe7f6e33276faef39e1b45d OP_EQUALVERIFY OP_CHECKSIG", "type": "pubkeyhash"}, "value": 0.06398356, "n": 13}, {"scriptPubKey": {"reqSigs": 1, "hex": "76a914678287243e9b11fcb64bc4445c5b29bcfcae75d688ac", "addresses": ["1ASJxzkryYY6asKHYSFC4ZyJXdehPz4qcS"], "asm": "OP_DUP OP_HASH160 678287243e9b11fcb64bc4445c5b29bcfcae75d6 OP_EQUALVERIFY OP_CHECKSIG", "type": "pubkeyhash"}, "value": 0.06441781, "n": 14}, {"scriptPubKey": {"reqSigs": 1, "hex": "a914ba565325e7f85a0770cce2c05f6cddd1c68bf04e87", "addresses": ["3JgH2BBDsw3KQFQnEFnk4ANws4q8ZxTPuo"], "asm": "OP_HASH160 ba565325e7f85a0770cce2c05f6cddd1c68bf04e OP_EQUAL", "type": "scripthash"}, "value": 0.05944843, "n": 15}, {"scriptPubKey": {"reqSigs": 1, "hex": "76a914c9258472cc6e9e3cf7577303b16b9b48738d438388ac", "addresses": ["1KLZmK32JKhBEbw9qRtVrwCVbD1hoswjRx"], "asm": "OP_DUP OP_HASH160 c9258472cc6e9e3cf7577303b16b9b48738d4383 OP_EQUALVERIFY OP_CHECKSIG", "type": "pubkeyhash"}, "value": 0.0619511, "n": 16}, {"scriptPubKey": {"reqSigs": 1, "hex": "a91444e5975c22982efdce3d00f618e508746889de9087", "addresses": ["37yJusHty8HziNdeP7z4FLUpetgknbzeKn"], "asm": "OP_HASH160 44e5975c22982efdce3d00f618e508746889de90 OP_EQUAL", "type": "scripthash"}, "value": 0.0633307, "n": 17}, {"scriptPubKey": {"reqSigs": 1, "hex": "76a91422c034bcdc9edcc14a8de88cb5c489614f95148d88ac", "addresses": ["14AkEEKkJb12q2qooNDYx1GBSXefBTUjYt"], "asm": "OP_DUP OP_HASH160 22c034bcdc9edcc14a8de88cb5c489614f95148d OP_EQUALVERIFY OP_CHECKSIG", "type": "pubkeyhash"}, "value": 0.06230953, "n": 18}, {"scriptPubKey": {"reqSigs": 1, "hex": "a91488d0c8d21c5801b49c1ac3119886ad541195659087", "addresses": ["3EARwEMPFZXiCNUsXVLeecdEuLspWUXNzr"], "asm": "OP_HASH160 88d0c8d21c5801b49c1ac3119886ad5411956590 OP_EQUAL", "type": "scripthash"}, "value": 0.06037221, "n": 19}, {"scriptPubKey": {"reqSigs": 1, "hex": "76a914ef09209e38e9534fa43d4a72bc6cb19cb0f572f588ac", "addresses": ["1NnuS2pQMJVPuJQdiDWBGvMtHiPmeiDLnJ"], "asm": "OP_DUP OP_HASH160 ef09209e38e9534fa43d4a72bc6cb19cb0f572f5 OP_EQUALVERIFY OP_CHECKSIG", "type": "pubkeyhash"}, "value": 129.56733129, "n": 20}, {"scriptPubKey": {"reqSigs": 1, "hex": "76a914581dd457e995cba50f7454dceabb68d1516cc23d88ac", "addresses": ["192vCUBqnDnqhNfzY3XevzEYvE2u25nw1k"], "asm": "OP_DUP OP_HASH160 581dd457e995cba50f7454dceabb68d1516cc23d OP_EQUALVERIFY OP_CHECKSIG", "type": "pubkeyhash"}, "value": 0.064585, "n": 21}, {"scriptPubKey": {"reqSigs": 1, "hex": "76a9143031434afe309cb312e39eb5c4252565dd4dbf9788ac", "addresses": ["15PpT3zZ7BdjfAW8WNCCAPKgtxDLJ4WBMZ"], "asm": "OP_DUP OP_HASH160 3031434afe309cb312e39eb5c4252565dd4dbf97 OP_EQUALVERIFY OP_CHECKSIG", "type": "pubkeyhash"}, "value": 0.06194764, "n": 22}, {"scriptPubKey": {"reqSigs": 1, "hex": "76a9142e89f9e78dfae4deb97c9fb412492d81ccb2842d88ac", "addresses": ["15F5NaX6driXEGPZxCiNsYKHHKLaYsQo6q"], "asm": "OP_DUP OP_HASH160 2e89f9e78dfae4deb97c9fb412492d81ccb2842d OP_EQUALVERIFY OP_CHECKSIG", "type": "pubkeyhash"}, "value": 0.07509852, "n": 23}, {"scriptPubKey": {"reqSigs": 1, "hex": "76a9149240da3ae89cd962cd2d7e4759d73bb3a2ae786d88ac", "addresses": ["1ELKM33bPeSZfNakoTtaWPL9KeGFFBHz7M"], "asm": "OP_DUP OP_HASH160 9240da3ae89cd962cd2d7e4759d73bb3a2ae786d OP_EQUALVERIFY OP_CHECKSIG", "type": "pubkeyhash"}, "value": 0.06370226, "n": 24}, {"scriptPubKey": {"reqSigs": 1, "hex": "a9144c456666f5dfd9a236b09887f93a50f1cd08fcc887", "addresses": ["38eJR7uv9u39TjgXECkQm14wfSmTcxZdDW"], "asm": "OP_HASH160 4c456666f5dfd9a236b09887f93a50f1cd08fcc8 OP_EQUAL", "type": "scripthash"}, "value": 0.06063493, "n": 25}, {"scriptPubKey": {"reqSigs": 1, "hex": "76a9144af5bc3819f613db96844d4bbc97150501302c9a88ac", "addresses": ["17qMPBMuzngam3B5Tyn6qfc4uKn4C8bMLS"], "asm": "OP_DUP OP_HASH160 4af5bc3819f613db96844d4bbc97150501302c9a OP_EQUALVERIFY OP_CHECKSIG", "type": "pubkeyhash"}, "value": 0.06139029, "n": 26}, {"scriptPubKey": {"reqSigs": 1, "hex": "76a91462798974cedfedbc7c052d34a17fdc47baaa9c1188ac", "addresses": ["19ygpLNJMMK7F7cMvS46fmgjZpXAYkN1rk"], "asm": "OP_DUP OP_HASH160 62798974cedfedbc7c052d34a17fdc47baaa9c11 OP_EQUALVERIFY OP_CHECKSIG", "type": "pubkeyhash"}, "value": 0.06100215, "n": 27}, {"scriptPubKey": {"reqSigs": 1, "hex": "76a91437b4c82b6781142bab100b4c33ab7095c34d960d88ac", "addresses": ["165YjVtmbQBdWkjcPsPweMZLNj31hj3awc"], "asm": "OP_DUP OP_HASH160 37b4c82b6781142bab100b4c33ab7095c34d960d OP_EQUALVERIFY OP_CHECKSIG", "type": "pubkeyhash"}, "value": 0.06257947, "n": 28}, {"scriptPubKey": {"reqSigs": 1, "hex": "76a914d4f93175c6595bb39b56bdf875a36a4d9183884288ac", "addresses": ["1LR6mv6G7yfcWkxMmSoNg3NACEqUqMfRbd"], "asm": "OP_DUP OP_HASH160 d4f93175c6595bb39b56bdf875a36a4d91838842 OP_EQUALVERIFY OP_CHECKSIG", "type": "pubkeyhash"}, "value": 0.06072706, "n": 29}, {"scriptPubKey": {"reqSigs": 1, "hex": "76a914772cb23e65728c4fc84ea8976708fab810bbc14088ac", "addresses": ["1Bs8xNy3KqkXt34FDD8Zr6MdoKWoSF5XUK"], "asm": "OP_DUP OP_HASH160 772cb23e65728c4fc84ea8976708fab810bbc140 OP_EQUALVERIFY OP_CHECKSIG", "type": "pubkeyhash"}, "value": 0.06196506, "n": 30}, {"scriptPubKey": {"reqSigs": 1, "hex": "76a914674ccbf0ec9bff6a773164a396156c8107876c5688ac", "addresses": ["1ARCbgcWh63cTXu4C9vXPjWzU64rnZrDrY"], "asm": "OP_DUP OP_HASH160 674ccbf0ec9bff6a773164a396156c8107876c56 OP_EQUALVERIFY OP_CHECKSIG", "type": "pubkeyhash"}, "value": 0.06152836, "n": 31}, {"scriptPubKey": {"reqSigs": 1, "hex": "76a914dc50a4f2917bcd2a9900ce034a4d8e77f5dc17e588ac", "addresses": ["1M5vGUBkzpMAsvgohsCheR3dkMi5NvYwLy"], "asm": "OP_DUP OP_HASH160 dc50a4f2917bcd2a9900ce034a4d8e77f5dc17e5 OP_EQUALVERIFY OP_CHECKSIG", "type": "pubkeyhash"}, "value": 0.0642824, "n": 32}, {"scriptPubKey": {"reqSigs": 1, "hex": "76a914b359da5613f2496fe34ccdf7739b16f014a2280688ac", "addresses": ["1HMKbReQuS2pxeM7JM6LiTBFPuTihq2wxD"], "asm": "OP_DUP OP_HASH160 b359da5613f2496fe34ccdf7739b16f014a22806 OP_EQUALVERIFY OP_CHECKSIG", "type": "pubkeyhash"}, "value": 0.06121293, "n": 33}, {"scriptPubKey": {"reqSigs": 1, "hex": "76a914e8a70abcad252be90dcd591ec094f0c54950c08988ac", "addresses": ["1ND9snNQ1m7x27ZqHGwy7D5kXyhRpPxU62"], "asm": "OP_DUP OP_HASH160 e8a70abcad252be90dcd591ec094f0c54950c089 OP_EQUALVERIFY OP_CHECKSIG", "type": "pubkeyhash"}, "value": 0.06694947, "n": 34}, {"scriptPubKey": {"reqSigs": 1, "hex": "a914a78edf97c5cf770779e4bd83481845c69f98b4a287", "addresses": ["3Gxyvbdp5wwS7xHaNvDULBb9VmgY24AyeX"], "asm": "OP_HASH160 a78edf97c5cf770779e4bd83481845c69f98b4a2 OP_EQUAL", "type": "scripthash"}, "value": 0.06372329, "n": 35}, {"scriptPubKey": {"reqSigs": 1, "hex": "76a9140b90164b71c0f81687e1a710bf55ba5229cfd77f88ac", "addresses": ["12493TUtnjDCNXmdnW2tk5UqMeHgVfzxJW"], "asm": "OP_DUP OP_HASH160 0b90164b71c0f81687e1a710bf55ba5229cfd77f OP_EQUALVERIFY OP_CHECKSIG", "type": "pubkeyhash"}, "value": 0.06253188, "n": 36}, {"scriptPubKey": {"reqSigs": 1, "hex": "76a91485d369554f3dfdf40025320396b5b69b903433f788ac", "addresses": ["1DCc8e4ounao8ZCsnABt7ZK5FPKmqugRuA"], "asm": "OP_DUP OP_HASH160 85d369554f3dfdf40025320396b5b69b903433f7 OP_EQUALVERIFY OP_CHECKSIG", "type": "pubkeyhash"}, "value": 0.06489094, "n": 37}, {"scriptPubKey": {"reqSigs": 1, "hex": "a914e0487b05b8d72c99c5dfec0543b6fea504b97e5587", "addresses": ["3N8v7Yv83oCShXXvShEXtgN9sMDCZpPy3u"], "asm": "OP_HASH160 e0487b05b8d72c99c5dfec0543b6fea504b97e55 OP_EQUAL", "type": "scripthash"}, "value": 0.06761761, "n": 38}, {"scriptPubKey": {"reqSigs": 1, "hex": "76a9141f0e486b77634e3a7ffa638af7915d2522b8626788ac", "addresses": ["13qD4LgVJCVpi6RqW8mghaCaKtybb9Me9H"], "asm": "OP_DUP OP_HASH160 1f0e486b77634e3a7ffa638af7915d2522b86267 OP_EQUALVERIFY OP_CHECKSIG", "type": "pubkeyhash"}, "value": 0.07081092, "n": 39}, {"scriptPubKey": {"reqSigs": 1, "hex": "76a914a441ec13f73922a6a3752ba84138f07392ebd63588ac", "addresses": ["1FyWnpBiUpyy5XcemYa1Y74SwL4zycD2Zt"], "asm": "OP_DUP OP_HASH160 a441ec13f73922a6a3752ba84138f07392ebd635 OP_EQUALVERIFY OP_CHECKSIG", "type": "pubkeyhash"}, "value": 0.06450546, "n": 40}, {"scriptPubKey": {"reqSigs": 1, "hex": "76a914bf9e9c766ed7a2c08f1eefb7781e08e5512796d288ac", "addresses": ["1JUC58zPFb1Ds2zjuqaFCUdZi4NRkyXuj2"], "asm": "OP_DUP OP_HASH160 bf9e9c766ed7a2c08f1eefb7781e08e5512796d2 OP_EQUALVERIFY OP_CHECKSIG", "type": "pubkeyhash"}, "value": 0.06449795, "n": 41}, {"scriptPubKey": {"reqSigs": 1, "hex": "76a91406e274882a8ef5d1b34bfb5618ef44e4af35080d88ac", "addresses": ["1dQLXzRQqM4DrGQeZz48ENtmGhLVvwm94"], "asm": "OP_DUP OP_HASH160 06e274882a8ef5d1b34bfb5618ef44e4af35080d OP_EQUALVERIFY OP_CHECKSIG", "type": "pubkeyhash"}, "value": 0.06212542, "n": 42}, {"scriptPubKey": {"reqSigs": 1, "hex": "76a9147ca579c3182df1318fd38bf87ec64d4b3a8d54ba88ac", "addresses": ["1CN52EfKEb37s1BYKpSFdvkRL48EUBBAAB"], "asm": "OP_DUP OP_HASH160 7ca579c3182df1318fd38bf87ec64d4b3a8d54ba OP_EQUALVERIFY OP_CHECKSIG", "type": "pubkeyhash"}, "value": 0.05963666, "n": 43}, {"scriptPubKey": {"reqSigs": 1, "hex": "a914097f973c09f611bbbea4eb82d2f4d9bde64d4a6f87", "addresses": ["32ZErRzHq6xFgdiFNHMxseusCphFwyksuo"], "asm": "OP_HASH160 097f973c09f611bbbea4eb82d2f4d9bde64d4a6f OP_EQUAL", "type": "scripthash"}, "value": 0.06521072, "n": 44}, {"scriptPubKey": {"reqSigs": 1, "hex": "76a91415ca044a52658d84b8367682db4aead1a0aa044488ac", "addresses": ["12zDCQ91XF867m3FC9QC21QupykVVUNdx1"], "asm": "OP_DUP OP_HASH160 15ca044a52658d84b8367682db4aead1a0aa0444 OP_EQUALVERIFY OP_CHECKSIG", "type": "pubkeyhash"}, "value": 0.06287996, "n": 45}, {"scriptPubKey": {"reqSigs": 1, "hex": "a91492f4697b5042f3fd25e431102b59a8f6d0ccee2e87", "addresses": ["3F63NbauGV4naqE98GdYhYq4QAnmzqzsLQ"], "asm": "OP_HASH160 92f4697b5042f3fd25e431102b59a8f6d0ccee2e OP_EQUAL", "type": "scripthash"}, "value": 0.06481451, "n": 46}, {"scriptPubKey": {"reqSigs": 1, "hex": "76a9145a3d8723cbda2b3698a764c73ad697febc2c6f6f88ac", "addresses": ["19E9XJFicLBuQgkpxztSRT5xpU1JtQJP9R"], "asm": "OP_DUP OP_HASH160 5a3d8723cbda2b3698a764c73ad697febc2c6f6f OP_EQUALVERIFY OP_CHECKSIG", "type": "pubkeyhash"}, "value": 0.06038024, "n": 47}, {"scriptPubKey": {"reqSigs": 1, "hex": "76a914aa5efed01319a021424e4233f445a2f98083ab1288ac", "addresses": ["1GXqg1GhpX4WxiBQZmxbcLFhqqfgi4R3j7"], "asm": "OP_DUP OP_HASH160 aa5efed01319a021424e4233f445a2f98083ab12 OP_EQUALVERIFY OP_CHECKSIG", "type": "pubkeyhash"}, "value": 0.06220322, "n": 48}, {"scriptPubKey": {"reqSigs": 1, "hex": "76a914ae000ea9a7bcd3170e6e787aa25e1f67832ef13b88ac", "addresses": ["1Gs2eMmhdKYKfweXQwfa9Rw19C3xNFePyx"], "asm": "OP_DUP OP_HASH160 ae000ea9a7bcd3170e6e787aa25e1f67832ef13b OP_EQUALVERIFY OP_CHECKSIG", "type": "pubkeyhash"}, "value": 0.06413344, "n": 49}, {"scriptPubKey": {"reqSigs": 1, "hex": "76a914ce8090c3485b44ab7a8e61e43ac6319f5a0863f288ac", "addresses": ["1KptDQPPCd5hewJCGVgSPMRNRd9p9x3K8N"], "asm": "OP_DUP OP_HASH160 ce8090c3485b44ab7a8e61e43ac6319f5a0863f2 OP_EQUALVERIFY OP_CHECKSIG", "type": "pubkeyhash"}, "value": 0.06426697, "n": 50}, {"scriptPubKey": {"reqSigs": 1, "hex": "76a91444f66a1eec54ff9431c150961365caae87b434ef88ac", "addresses": ["17He9E8qx5qYbqfbwKbaoevQJ5EY4r3zpq"], "asm": "OP_DUP OP_HASH160 44f66a1eec54ff9431c150961365caae87b434ef OP_EQUALVERIFY OP_CHECKSIG", "type": "pubkeyhash"}, "value": 0.06312479, "n": 51}, {"scriptPubKey": {"reqSigs": 1, "hex": "76a9142b234d58c8cafbfa9a79a3186aa9e510a624c35288ac", "addresses": ["14w6M5syQ9u25vUx76Un2fxnjmu8TGZLWG"], "asm": "OP_DUP OP_HASH160 2b234d58c8cafbfa9a79a3186aa9e510a624c352 OP_EQUALVERIFY OP_CHECKSIG", "type": "pubkeyhash"}, "value": 0.06272294, "n": 52}, {"scriptPubKey": {"reqSigs": 1, "hex": "76a914a3c58d1f08a43c5f4a39a9a05250a73a95f1357f88ac", "addresses": ["1FvwoNUGjbdUmqysU9sLSgxQj9LRPpHCbq"], "asm": "OP_DUP OP_HASH160 a3c58d1f08a43c5f4a39a9a05250a73a95f1357f OP_EQUALVERIFY OP_CHECKSIG", "type": "pubkeyhash"}, "value": 0.06274529, "n": 53}, {"scriptPubKey": {"reqSigs": 1, "hex": "76a914fc596edc168ff8b6895436b247c02502b6c15d3588ac", "addresses": ["1Q1JRFyfYdkNz1k6Aktred31mmr3pEQzBZ"], "asm": "OP_DUP OP_HASH160 fc596edc168ff8b6895436b247c02502b6c15d35 OP_EQUALVERIFY OP_CHECKSIG", "type": "pubkeyhash"}, "value": 0.06076381, "n": 54}, {"scriptPubKey": {"reqSigs": 1, "hex": "76a914a2017770970eeb5139a86af4e3ea4691de64d8c688ac", "addresses": ["1FmcDyYyscRE5U6sFyfCTsUBaC83M9TAWB"], "asm": "OP_DUP OP_HASH160 a2017770970eeb5139a86af4e3ea4691de64d8c6 OP_EQUALVERIFY OP_CHECKSIG", "type": "pubkeyhash"}, "value": 0.06087722, "n": 55}, {"scriptPubKey": {"reqSigs": 1, "hex": "a914cb42a87ce91b7e2892f23644807c2ad0932ebca787", "addresses": ["3LDkwyWqKPc22KriR3YUovBAsAg7UfyMwE"], "asm": "OP_HASH160 cb42a87ce91b7e2892f23644807c2ad0932ebca7 OP_EQUAL", "type": "scripthash"}, "value": 0.06264487, "n": 56}, {"scriptPubKey": {"reqSigs": 1, "hex": "76a9142e4722965d615350befd1e26fbe8cd895a96648288ac", "addresses": ["15DhJNvqrZUd74SFdm8hdcNBEqNjmDiKad"], "asm": "OP_DUP OP_HASH160 2e4722965d615350befd1e26fbe8cd895a966482 OP_EQUALVERIFY OP_CHECKSIG", "type": "pubkeyhash"}, "value": 0.06430136, "n": 57}, {"scriptPubKey": {"reqSigs": 1, "hex": "76a9142762669f80fcb87efe613dbf21b2279dd9910cd788ac", "addresses": ["14bFEVe6txK73b8UFhZAfHYM4ybcsCd5FS"], "asm": "OP_DUP OP_HASH160 2762669f80fcb87efe613dbf21b2279dd9910cd7 OP_EQUALVERIFY OP_CHECKSIG", "type": "pubkeyhash"}, "value": 0.06529622, "n": 58}, {"scriptPubKey": {"reqSigs": 1, "hex": "76a91470c62d7667365d6a966ad961bc4c86b43118907d88ac", "addresses": ["1BHJ676weJTTaAxCojm4i4JkpE1xshLRyu"], "asm": "OP_DUP OP_HASH160 70c62d7667365d6a966ad961bc4c86b43118907d OP_EQUALVERIFY OP_CHECKSIG", "type": "pubkeyhash"}, "value": 0.06246619, "n": 59}, {"scriptPubKey": {"reqSigs": 1, "hex": "a9146fa259c4dcd0af75b94291b05ef71299e73920ca87", "addresses": ["3BsHRA9dQzMTr69NhmtbhRB6Cua31euuUw"], "asm": "OP_HASH160 6fa259c4dcd0af75b94291b05ef71299e73920ca OP_EQUAL", "type": "scripthash"}, "value": 0.06121968, "n": 60}, {"scriptPubKey": {"reqSigs": 1, "hex": "76a914338f72859c2582e54517be4fd1e8b41aa1a0eea288ac", "addresses": ["15hdJgSg95As7aYJe5xxXwhnG22JrSuJxh"], "asm": "OP_DUP OP_HASH160 338f72859c2582e54517be4fd1e8b41aa1a0eea2 OP_EQUALVERIFY OP_CHECKSIG", "type": "pubkeyhash"}, "value": 0.06519887, "n": 61}, {"scriptPubKey": {"reqSigs": 1, "hex": "76a9147b5485f9cbdaebac9cc13845dc45efb74cdadf9988ac", "addresses": ["1CF7NP3BYZ6gFQhbpg9sSpbJta5jBJyGpy"], "asm": "OP_DUP OP_HASH160 7b5485f9cbdaebac9cc13845dc45efb74cdadf99 OP_EQUALVERIFY OP_CHECKSIG", "type": "pubkeyhash"}, "value": 0.06110695, "n": 62}, {"scriptPubKey": {"reqSigs": 1, "hex": "76a9143291a10f4b2c303ce505d38d3a95fed3ee5b624c88ac", "addresses": ["15cPF5jGYLcsnDhe5oVFq1rxBL4CGzVTm3"], "asm": "OP_DUP OP_HASH160 3291a10f4b2c303ce505d38d3a95fed3ee5b624c OP_EQUALVERIFY OP_CHECKSIG", "type": "pubkeyhash"}, "value": 0.06170682, "n": 63}, {"scriptPubKey": {"reqSigs": 1, "hex": "76a9149babeab3aa4c6b4d795e009d89524b333ed2c92f88ac", "addresses": ["1FC7giv3b67fXaWsqAEnYLLJXwwSqrgaZK"], "asm": "OP_DUP OP_HASH160 9babeab3aa4c6b4d795e009d89524b333ed2c92f OP_EQUALVERIFY OP_CHECKSIG", "type": "pubkeyhash"}, "value": 0.06026287, "n": 64}, {"scriptPubKey": {"reqSigs": 1, "hex": "76a914b0b161ed7433a7d2a2352c825c689a99be9dfe0b88ac", "addresses": ["1H7GRWx5JFEPsJoeRWNppQrFsBp6D1sEAd"], "asm": "OP_DUP OP_HASH160 b0b161ed7433a7d2a2352c825c689a99be9dfe0b OP_EQUALVERIFY OP_CHECKSIG", "type": "pubkeyhash"}, "value": 0.06409923, "n": 65}, {"scriptPubKey": {"reqSigs": 1, "hex": "a914f4846c4beaa4ef4fe23babea5c6740e91c69047487", "addresses": ["3PyuSGGUuFM849w5Yi7mTmQJBM5VsbAbby"], "asm": "OP_HASH160 f4846c4beaa4ef4fe23babea5c6740e91c690474 OP_EQUAL", "type": "scripthash"}, "value": 0.0616578, "n": 66}, {"scriptPubKey": {"reqSigs": 1, "hex": "a914a20a51dc2013ac3856bea7875bdb6ba9b47cf46187", "addresses": ["3GTokefJ21b9vHMaw66kT2Tku5fYXwtmZ3"], "asm": "OP_HASH160 a20a51dc2013ac3856bea7875bdb6ba9b47cf461 OP_EQUAL", "type": "scripthash"}, "value": 0.06518925, "n": 67}, {"scriptPubKey": {"reqSigs": 1, "hex": "76a9147a426a55e1a3f47abd7ad230d171b3a126feb5f088ac", "addresses": ["1C9T12Qpku6JViRMddNKyiuf7kgBbxazaj"], "asm": "OP_DUP OP_HASH160 7a426a55e1a3f47abd7ad230d171b3a126feb5f0 OP_EQUALVERIFY OP_CHECKSIG", "type": "pubkeyhash"}, "value": 0.06209417, "n": 68}, {"scriptPubKey": {"reqSigs": 1, "hex": "a914ff74032707ac32b7557ec3e12cebe0cba72d207f87", "addresses": ["3QyjD8vYFUJ32vxdQ1yYgtHfEWLcDcftG1"], "asm": "OP_HASH160 ff74032707ac32b7557ec3e12cebe0cba72d207f OP_EQUAL", "type": "scripthash"}, "value": 0.06356967, "n": 69}, {"scriptPubKey": {"reqSigs": 1, "hex": "76a9149499771f2f95c36fd58761908f557e03d8825f6988ac", "addresses": ["1EYirMCVLMypVvAkZCHdL25VNLZa51s4zM"], "asm": "OP_DUP OP_HASH160 9499771f2f95c36fd58761908f557e03d8825f69 OP_EQUALVERIFY OP_CHECKSIG", "type": "pubkeyhash"}, "value": 0.05962257, "n": 70}, {"scriptPubKey": {"reqSigs": 1, "hex": "a91400d36bab0ad564a3a05ec774bd87eb549645ab4987", "addresses": ["31mPCJXqb2tEHWooVM8pMRyqRVtfwGNRBX"], "asm": "OP_HASH160 00d36bab0ad564a3a05ec774bd87eb549645ab49 OP_EQUAL", "type": "scripthash"}, "value": 0.06036256, "n": 71}, {"scriptPubKey": {"reqSigs": 1, "hex": "76a91403dade5e76ae6578db3f0b047ebbbc3e4ba141ce88ac", "addresses": ["1MPDqQ1zd2TQKcN84BFe1SFpp9Jyj4kVQ"], "asm": "OP_DUP OP_HASH160 03dade5e76ae6578db3f0b047ebbbc3e4ba141ce OP_EQUALVERIFY OP_CHECKSIG", "type": "pubkeyhash"}, "value": 0.06314376, "n": 72}, {"scriptPubKey": {"reqSigs": 1, "hex": "76a9141e636d585efacb7cee93b6d78672ba63c14c130988ac", "addresses": ["13mgP5EZ1fPXi1jeDzDBhnAhRR4QGC2ybK"], "asm": "OP_DUP OP_HASH160 1e636d585efacb7cee93b6d78672ba63c14c1309 OP_EQUALVERIFY OP_CHECKSIG", "type": "pubkeyhash"}, "value": 0.06452863, "n": 73}, {"scriptPubKey": {"reqSigs": 1, "hex": "76a9142aa4cb17cdb20fb8d45b34471d8caa0e6e61686a88ac", "addresses": ["14tUo6hjTN8Nufyj9vD5gHMeV2s1Df81C6"], "asm": "OP_DUP OP_HASH160 2aa4cb17cdb20fb8d45b34471d8caa0e6e61686a OP_EQUALVERIFY OP_CHECKSIG", "type": "pubkeyhash"}, "value": 0.06420445, "n": 74}, {"scriptPubKey": {"reqSigs": 1, "hex": "76a914fee957e5cf7cfd0ed2b56df929f1192e23e2fa1d88ac", "addresses": ["1QErAhu6yzUDfQSxhsaH3DZSjfoVyXjWe8"], "asm": "OP_DUP OP_HASH160 fee957e5cf7cfd0ed2b56df929f1192e23e2fa1d OP_EQUALVERIFY OP_CHECKSIG", "type": "pubkeyhash"}, "value": 0.06422407, "n": 75}, {"scriptPubKey": {"reqSigs": 1, "hex": "76a914d8cd07226ca35988d94bfb70c9bda409d15a315588ac", "addresses": ["1LmLa2FAcKj1ywvJHDPW7z5qb7ri6sBRnq"], "asm": "OP_DUP OP_HASH160 d8cd07226ca35988d94bfb70c9bda409d15a3155 OP_EQUALVERIFY OP_CHECKSIG", "type": "pubkeyhash"}, "value": 0.06169158, "n": 76}, {"scriptPubKey": {"reqSigs": 1, "hex": "76a91427518174a3e71ec46d0a2c882285c79c6d350ad988ac", "addresses": ["14atzbZ3jn1FRFsJLF8N8HpL8mXqAgG4sL"], "asm": "OP_DUP OP_HASH160 27518174a3e71ec46d0a2c882285c79c6d350ad9 OP_EQUALVERIFY OP_CHECKSIG", "type": "pubkeyhash"}, "value": 0.06178177, "n": 77}, {"scriptPubKey": {"reqSigs": 1, "hex": "76a91446000248dc9d7e2d838d5e5a33466cc38664d69088ac", "addresses": ["17P8K3o9HF5Fag1dc4e5JfDsQuMYZw69YT"], "asm": "OP_DUP OP_HASH160 46000248dc9d7e2d838d5e5a33466cc38664d690 OP_EQUALVERIFY OP_CHECKSIG", "type": "pubkeyhash"}, "value": 0.06098179, "n": 78}, {"scriptPubKey": {"reqSigs": 1, "hex": "a9140a4e6682d95ab21b64b776e6e00895833d6f6da087", "addresses": ["32dWbpVnRRcpKPdo17AJQy9dSyujjMHHMJ"], "asm": "OP_HASH160 0a4e6682d95ab21b64b776e6e00895833d6f6da0 OP_EQUAL", "type": "scripthash"}, "value": 0.06405375, "n": 79}, {"scriptPubKey": {"reqSigs": 1, "hex": "76a914325083a74f91c6d14a09b6183bd797b6c504ef5788ac", "addresses": ["15b3EpdVaic5AzfruzvpKXeqVzzXfTNgaJ"], "asm": "OP_DUP OP_HASH160 325083a74f91c6d14a09b6183bd797b6c504ef57 OP_EQUALVERIFY OP_CHECKSIG", "type": "pubkeyhash"}, "value": 0.06499194, "n": 80}, {"scriptPubKey": {"reqSigs": 1, "hex": "76a914b80fd03a669ffcf8e83d763c491ec2538102e98188ac", "addresses": ["1HnEH2mWzr6AxuY8H3zkuewARUWAXu7YKE"], "asm": "OP_DUP OP_HASH160 b80fd03a669ffcf8e83d763c491ec2538102e981 OP_EQUALVERIFY OP_CHECKSIG", "type": "pubkeyhash"}, "value": 0.0621529, "n": 81}, {"scriptPubKey": {"reqSigs": 1, "hex": "76a9148a48f48282cd26334910d1003471f35393ce93ec88ac", "addresses": ["1DcBeV1f5r1VJki9EyaPfZDPBffkufkFeq"], "asm": "OP_DUP OP_HASH160 8a48f48282cd26334910d1003471f35393ce93ec OP_EQUALVERIFY OP_CHECKSIG", "type": "pubkeyhash"}, "value": 0.06213004, "n": 82}, {"scriptPubKey": {"reqSigs": 1, "hex": "a914226f65dd0cd204fc5aa3730cb07b88fb910e80dc87", "addresses": ["34q6M8P4dL5PqjiVJUN4kS9ci6jWKnDhaf"], "asm": "OP_HASH160 226f65dd0cd204fc5aa3730cb07b88fb910e80dc OP_EQUAL", "type": "scripthash"}, "value": 0.061562, "n": 83}, {"scriptPubKey": {"reqSigs": 1, "hex": "a914ef595912c0ebd506f4cbddaea1397aed87cdac9087", "addresses": ["3PWaTPsMfMtT1B1tD8rVko9fnXR23m2hJs"], "asm": "OP_HASH160 ef595912c0ebd506f4cbddaea1397aed87cdac90 OP_EQUAL", "type": "scripthash"}, "value": 0.06341611, "n": 84}, {"scriptPubKey": {"reqSigs": 1, "hex": "76a9143845543aa383cf25a66319217582b17bd4c5f94588ac", "addresses": ["168XtopaBRCVfVqz1J1woykGz5SwNHGnXw"], "asm": "OP_DUP OP_HASH160 3845543aa383cf25a66319217582b17bd4c5f945 OP_EQUALVERIFY OP_CHECKSIG", "type": "pubkeyhash"}, "value": 0.05951317, "n": 85}, {"scriptPubKey": {"reqSigs": 1, "hex": "76a91420e273ba55a933289d85db4e10781ce0e960667488ac", "addresses": ["13zsuJcaQuuZiE5V1h4LxH6wx1P6uGdVEJ"], "asm": "OP_DUP OP_HASH160 20e273ba55a933289d85db4e10781ce0e9606674 OP_EQUALVERIFY OP_CHECKSIG", "type": "pubkeyhash"}, "value": 0.06318578, "n": 86}, {"scriptPubKey": {"reqSigs": 1, "hex": "76a914d0c320088c76271a400ebc271b0109d247e4a38f88ac", "addresses": ["1L2qJS5q5AuRobw13W2HYQs57cy5SxRfFx"], "asm": "OP_DUP OP_HASH160 d0c320088c76271a400ebc271b0109d247e4a38f OP_EQUALVERIFY OP_CHECKSIG", "type": "pubkeyhash"}, "value": 0.06207213, "n": 87}, {"scriptPubKey": {"reqSigs": 1, "hex": "76a914cb0ba7f9d2dbbcc9477207e9b6ae6374104616c488ac", "addresses": ["1KWc8psu9mbZY1Zkr1Lt8hXqaTfunpDu9E"], "asm": "OP_DUP OP_HASH160 cb0ba7f9d2dbbcc9477207e9b6ae6374104616c4 OP_EQUALVERIFY OP_CHECKSIG", "type": "pubkeyhash"}, "value": 0.0608996, "n": 88}, {"scriptPubKey": {"reqSigs": 1, "hex": "76a9146c71f09c0006d614977c75608c4b1886fe7b506d88ac", "addresses": ["1AtQUQATPdsNvgepKb5ffMrgkt8hBLSAyu"], "asm": "OP_DUP OP_HASH160 6c71f09c0006d614977c75608c4b1886fe7b506d OP_EQUALVERIFY OP_CHECKSIG", "type": "pubkeyhash"}, "value": 0.06520174, "n": 89}, {"scriptPubKey": {"reqSigs": 1, "hex": "76a9143c2eba6c7d48f67b2b603d325cb5f70a6226484688ac", "addresses": ["16VDXF7YeW4ccnfmXbTZPSP1tDX3YeffKy"], "asm": "OP_DUP OP_HASH160 3c2eba6c7d48f67b2b603d325cb5f70a62264846 OP_EQUALVERIFY OP_CHECKSIG", "type": "pubkeyhash"}, "value": 0.06171212, "n": 90}, {"scriptPubKey": {"reqSigs": 1, "hex": "a914c59a8b383baa0c9f76e4ed82512b5e4f73b9a1ea87", "addresses": ["3KhrBEAAprsMdwmyXDkH4iu2n8pBQuwrsq"], "asm": "OP_HASH160 c59a8b383baa0c9f76e4ed82512b5e4f73b9a1ea OP_EQUAL", "type": "scripthash"}, "value": 0.06113907, "n": 91}, {"scriptPubKey": {"reqSigs": 1, "hex": "76a914682f0e946915519e0e422aff7eac2aaab28a261188ac", "addresses": ["1AVseXS8iWsxcMfDSuFKFhHJZiizX7t6Dm"], "asm": "OP_DUP OP_HASH160 682f0e946915519e0e422aff7eac2aaab28a2611 OP_EQUALVERIFY OP_CHECKSIG", "type": "pubkeyhash"}, "value": 0.06100308, "n": 92}, {"scriptPubKey": {"reqSigs": 1, "hex": "a9145ec4ab2c7a71a36fb61e469b128f0d9c75f19a2087", "addresses": ["3AL73MRjYWdm1DBqmbpixgZH92Eff1PT4J"], "asm": "OP_HASH160 5ec4ab2c7a71a36fb61e469b128f0d9c75f19a20 OP_EQUAL", "type": "scripthash"}, "value": 0.05989195, "n": 93}, {"scriptPubKey": {"reqSigs": 1, "hex": "76a914024886f1b05a233272c43e9acd282f0ec7491c7088ac", "addresses": ["1D5Ef64V9AHsX2b9gPH62uGXcgMnbVL5w"], "asm": "OP_DUP OP_HASH160 024886f1b05a233272c43e9acd282f0ec7491c70 OP_EQUALVERIFY OP_CHECKSIG", "type": "pubkeyhash"}, "value": 0.06082708, "n": 94}, {"scriptPubKey": {"reqSigs": 1, "hex": "a914ed9888f01c156a38c05fb59da058d55fd302d24387", "addresses": ["3PMJoKTxJEWPpXjxxEiBqrcmXuZL3wTH6K"], "asm": "OP_HASH160 ed9888f01c156a38c05fb59da058d55fd302d243 OP_EQUAL", "type": "scripthash"}, "value": 0.06316342, "n": 95}, {"scriptPubKey": {"reqSigs": 1, "hex": "76a9145082e94f98ed5399c73cf60d8527589780bfe8cf88ac", "addresses": ["18LhtEDncyv9zRVPw6wdAmis2riymRo96R"], "asm": "OP_DUP OP_HASH160 5082e94f98ed5399c73cf60d8527589780bfe8cf OP_EQUALVERIFY OP_CHECKSIG", "type": "pubkeyhash"}, "value": 0.06293178, "n": 96}, {"scriptPubKey": {"reqSigs": 1, "hex": "a914148a55c3cc74c28ebcc19bb6df4580a4cfb4a96c87", "addresses": ["33ZdA4nD4dceRFR7VE8gWMPvGgYkMXXJEW"], "asm": "OP_HASH160 148a55c3cc74c28ebcc19bb6df4580a4cfb4a96c OP_EQUAL", "type": "scripthash"}, "value": 0.06179837, "n": 97}, {"scriptPubKey": {"reqSigs": 1, "hex": "76a91499e1d5173f71fb9fd57b94e51144153e9a62589888ac", "addresses": ["1F2evTe94Tpoqs4kX1sn8E3nxzADzW2ZgJ"], "asm": "OP_DUP OP_HASH160 99e1d5173f71fb9fd57b94e51144153e9a625898 OP_EQUALVERIFY OP_CHECKSIG", "type": "pubkeyhash"}, "value": 0.06365616, "n": 98}, {"scriptPubKey": {"reqSigs": 1, "hex": "76a914244ee41113d78fc27ee26e981bc1f39b8cd626bc88ac", "addresses": ["14JyqLmBptVdrznGw2FDEbSrdYJL2ao2iP"], "asm": "OP_DUP OP_HASH160 244ee41113d78fc27ee26e981bc1f39b8cd626bc OP_EQUALVERIFY OP_CHECKSIG", "type": "pubkeyhash"}, "value": 0.0650983, "n": 99}, {"scriptPubKey": {"reqSigs": 1, "hex": "a9144ba4d3376717ea6f6ef32782ff493de2af42414c87", "addresses": ["38az4BEZevdG4ECJB61bizdw8MoiLhwZh4"], "asm": "OP_HASH160 4ba4d3376717ea6f6ef32782ff493de2af42414c OP_EQUAL", "type": "scripthash"}, "value": 0.05985942, "n": 100}], "hex": "0200000001d05b673667a3f7fbc64ee016fdbdc9ada76de11941a652d667e2179d00a49bfd100000006b483045022100a76ddaf4527207b04074e623609c8bc7d34bcc8b07519e842a293461d9660b7102200b186468f4d7c5866b03ec5c214928c72bbdf4d8303bda5dbb412eeeef19de9e012102dc6b34c21e855f2befe7f53b9407f1120c4e34496790228f733f091e2a33e197feffffff654f5b5f00000000001976a914b6146519da1a4ed833fffc1fc3b475dfa7594e7888ac97845c000000000017a914c9367137a14ca35566e917b714c8a9ef655c79038795b25b00000000001976a9148135b7ab6ef5731630f51feeb38e7c31c09eef9e88ac6f626100000000001976a9144d9339346db8e15376f05e680665a1858840550088ac826c5d000000000017a9148a3b1d8dbe33c0a190c508ea459b4108fd9782d3879ede5b00000000001976a914efe533633dc721b51f9560a3e5b1d934c719ec3588ac032b5d00000000001976a914f4a91defa3b4ae65a7ee7d5099247b8c7d3a457d88ac282e5e00000000001976a9144608c9c895700f08b731b39a2e291ad52e34941988acb3916000000000001976a914cce778d6266fe39069936cf32a391f167e808b6a88ac20df5c000000000017a914a89d6c2e6be0a55415da59e75ef37bacd367879a87d0185e00000000001976a914f5bf1421da939055e3cdee716512571f7979909388ac667ceb00000000001976a9140dfaab61fac7ea11928b91d0c0774394e0aae35c88ac17585e00000000001976a9148ad14123376dd2209a92be387e8bbbe12f2b630088ac94a16100000000001976a91410711cf79c0536486fe7f6e33276faef39e1b45d88ac354b6200000000001976a914678287243e9b11fcb64bc4445c5b29bcfcae75d688ac0bb65a000000000017a914ba565325e7f85a0770cce2c05f6cddd1c68bf04e87a6875e00000000001976a914c9258472cc6e9e3cf7577303b16b9b48738d438388ac8ea260000000000017a91444e5975c22982efdce3d00f618e508746889de9087a9135f00000000001976a91422c034bcdc9edcc14a8de88cb5c489614f95148d88ace51e5c000000000017a91488d0c8d21c5801b49c1ac3119886ad541195659087c90e4804030000001976a914ef09209e38e9534fa43d4a72bc6cb19cb0f572f588ac848c6200000000001976a914581dd457e995cba50f7454dceabb68d1516cc23d88ac4c865e00000000001976a9143031434afe309cb312e39eb5c4252565dd4dbf9788ac5c977200000000001976a9142e89f9e78dfae4deb97c9fb412492d81ccb2842d88acb2336100000000001976a9149240da3ae89cd962cd2d7e4759d73bb3a2ae786d88ac85855c000000000017a9144c456666f5dfd9a236b09887f93a50f1cd08fcc88795ac5d00000000001976a9144af5bc3819f613db96844d4bbc97150501302c9a88acf7145d00000000001976a91462798974cedfedbc7c052d34a17fdc47baaa9c1188ac1b7d5f00000000001976a91437b4c82b6781142bab100b4c33ab7095c34d960d88ac82a95c00000000001976a914d4f93175c6595bb39b56bdf875a36a4d9183884288ac1a8d5e00000000001976a914772cb23e65728c4fc84ea8976708fab810bbc14088ac84e25d00000000001976a914674ccbf0ec9bff6a773164a396156c8107876c5688ac50166200000000001976a914dc50a4f2917bcd2a9900ce034a4d8e77f5dc17e588ac4d675d00000000001976a914b359da5613f2496fe34ccdf7739b16f014a2280688ac23286600000000001976a914e8a70abcad252be90dcd591ec094f0c54950c08988ace93b61000000000017a914a78edf97c5cf770779e4bd83481845c69f98b4a287846a5f00000000001976a9140b90164b71c0f81687e1a710bf55ba5229cfd77f88ac06046300000000001976a91485d369554f3dfdf40025320396b5b69b903433f788ac212d67000000000017a914e0487b05b8d72c99c5dfec0543b6fea504b97e5587840c6c00000000001976a9141f0e486b77634e3a7ffa638af7915d2522b8626788ac726d6200000000001976a914a441ec13f73922a6a3752ba84138f07392ebd63588ac836a6200000000001976a914bf9e9c766ed7a2c08f1eefb7781e08e5512796d288acbecb5e00000000001976a91406e274882a8ef5d1b34bfb5618ef44e4af35080d88ac92ff5a00000000001976a9147ca579c3182df1318fd38bf87ec64d4b3a8d54ba88acf08063000000000017a914097f973c09f611bbbea4eb82d2f4d9bde64d4a6f877cf25f00000000001976a91415ca044a52658d84b8367682db4aead1a0aa044488ac2be662000000000017a91492f4697b5042f3fd25e431102b59a8f6d0ccee2e8708225c00000000001976a9145a3d8723cbda2b3698a764c73ad697febc2c6f6f88ac22ea5e00000000001976a914aa5efed01319a021424e4233f445a2f98083ab1288ac20dc6100000000001976a914ae000ea9a7bcd3170e6e787aa25e1f67832ef13b88ac49106200000000001976a914ce8090c3485b44ab7a8e61e43ac6319f5a0863f288ac1f526000000000001976a91444f66a1eec54ff9431c150961365caae87b434ef88ac26b55f00000000001976a9142b234d58c8cafbfa9a79a3186aa9e510a624c35288ace1bd5f00000000001976a914a3c58d1f08a43c5f4a39a9a05250a73a95f1357f88acddb75c00000000001976a914fc596edc168ff8b6895436b247c02502b6c15d3588ac2ae45c00000000001976a914a2017770970eeb5139a86af4e3ea4691de64d8c688aca7965f000000000017a914cb42a87ce91b7e2892f23644807c2ad0932ebca787b81d6200000000001976a9142e4722965d615350befd1e26fbe8cd895a96648288ac56a26300000000001976a9142762669f80fcb87efe613dbf21b2279dd9910cd788acdb505f00000000001976a91470c62d7667365d6a966ad961bc4c86b43118907d88acf0695d000000000017a9146fa259c4dcd0af75b94291b05ef71299e73920ca874f7c6300000000001976a914338f72859c2582e54517be4fd1e8b41aa1a0eea288ace73d5d00000000001976a9147b5485f9cbdaebac9cc13845dc45efb74cdadf9988ac3a285e00000000001976a9143291a10f4b2c303ce505d38d3a95fed3ee5b624c88ac2ff45b00000000001976a9149babeab3aa4c6b4d795e009d89524b333ed2c92f88acc3ce6100000000001976a914b0b161ed7433a7d2a2352c825c689a99be9dfe0b88ac14155e000000000017a914f4846c4beaa4ef4fe23babea5c6740e91c690474878d7863000000000017a914a20a51dc2013ac3856bea7875bdb6ba9b47cf4618789bf5e00000000001976a9147a426a55e1a3f47abd7ad230d171b3a126feb5f088ace7ff60000000000017a914ff74032707ac32b7557ec3e12cebe0cba72d207f8711fa5a00000000001976a9149499771f2f95c36fd58761908f557e03d8825f6988ac201b5c000000000017a91400d36bab0ad564a3a05ec774bd87eb549645ab498788596000000000001976a91403dade5e76ae6578db3f0b047ebbbc3e4ba141ce88ac7f766200000000001976a9141e636d585efacb7cee93b6d78672ba63c14c130988acddf76100000000001976a9142aa4cb17cdb20fb8d45b34471d8caa0e6e61686a88ac87ff6100000000001976a914fee957e5cf7cfd0ed2b56df929f1192e23e2fa1d88ac46225e00000000001976a914d8cd07226ca35988d94bfb70c9bda409d15a315588ac81455e00000000001976a91427518174a3e71ec46d0a2c882285c79c6d350ad988ac030d5d00000000001976a91446000248dc9d7e2d838d5e5a33466cc38664d69088acffbc61000000000017a9140a4e6682d95ab21b64b776e6e00895833d6f6da0877a2b6300000000001976a914325083a74f91c6d14a09b6183bd797b6c504ef5788ac7ad65e00000000001976a914b80fd03a669ffcf8e83d763c491ec2538102e98188ac8ccd5e00000000001976a9148a48f48282cd26334910d1003471f35393ce93ec88aca8ef5d000000000017a914226f65dd0cd204fc5aa3730cb07b88fb910e80dc87ebc360000000000017a914ef595912c0ebd506f4cbddaea1397aed87cdac908755cf5a00000000001976a9143845543aa383cf25a66319217582b17bd4c5f94588acf2696000000000001976a91420e273ba55a933289d85db4e10781ce0e960667488acedb65e00000000001976a914d0c320088c76271a400ebc271b0109d247e4a38f88ace8ec5c00000000001976a914cb0ba7f9d2dbbcc9477207e9b6ae6374104616c488ac6e7d6300000000001976a9146c71f09c0006d614977c75608c4b1886fe7b506d88ac4c2a5e00000000001976a9143c2eba6c7d48f67b2b603d325cb5f70a6226484688ac734a5d000000000017a914c59a8b383baa0c9f76e4ed82512b5e4f73b9a1ea8754155d00000000001976a914682f0e946915519e0e422aff7eac2aaab28a261188ac4b635b000000000017a9145ec4ab2c7a71a36fb61e469b128f0d9c75f19a208794d05c00000000001976a914024886f1b05a233272c43e9acd282f0ec7491c7088ac366160000000000017a914ed9888f01c156a38c05fb59da058d55fd302d24387ba066000000000001976a9145082e94f98ed5399c73cf60d8527589780bfe8cf88acfd4b5e000000000017a914148a55c3cc74c28ebcc19bb6df4580a4cfb4a96c87b0216100000000001976a91499e1d5173f71fb9fd57b94e51144153e9a62589888ac06556300000000001976a914244ee41113d78fc27ee26e981bc1f39b8cd626bc88ac96565b000000000017a9144ba4d3376717ea6f6ef32782ff493de2af42414c8710490800", "vin": [{"sequence": 4294967294, "scriptSig": {"hex": "483045022100a76ddaf4527207b04074e623609c8bc7d34bcc8b07519e842a293461d9660b7102200b186468f4d7c5866b03ec5c214928c72bbdf4d8303bda5dbb412eeeef19de9e012102dc6b34c21e855f2befe7f53b9407f1120c4e34496790228f733f091e2a33e197", "asm": "3045022100a76ddaf4527207b04074e623609c8bc7d34bcc8b07519e842a293461d9660b7102200b186468f4d7c5866b03ec5c214928c72bbdf4d8303bda5dbb412eeeef19de9e[ALL] 02dc6b34c21e855f2befe7f53b9407f1120c4e34496790228f733f091e2a33e197"}, "vout": 16, "txid": "fd9ba4009d17e267d652a64119e16da7adc9bdfd16e04ec6fbf7a36736675bd0"}], "txid": "071cbd8816452f68558936e02d2e605cb50e6a5885073884664874e4156aeb94", "blocktime": 1537872018, "version": 2, "confirmations": 11489, "time": 1537872018, "locktime": 542992, "vsize": 3542, "size": 3542}