{"hash": "071ea308301bd83c8ab0aa71fba9b7d72656c505aa1f9578adc83a994a2d271e", "blockhash": "00000000000000000004ffacab907a6b429b9a5745fa0b75af4234bf69dd7176", "vout": [{"scriptPubKey": {"reqSigs": 1, "hex": "76a914e8cea30989bd15530f819b766684b00dc7ba7cfa88ac", "addresses": ["1NDyJtNTjmwk5xPNhjgAMu4HDHigtobu1s"], "asm": "OP_DUP OP_HASH160 e8cea30989bd15530f819b766684b00dc7ba7cfa OP_EQUALVERIFY OP_CHECKSIG", "type": "pubkeyhash"}, "value": 1.22424583, "n": 0}, {"scriptPubKey": {"reqSigs": 1, "hex": "76a9141da37c804fe4cc8c22e327df72dd6428346e172c88ac", "addresses": ["13hiSnyQyxQcxUANbesteoXhgqgM9dXJvp"], "asm": "OP_DUP OP_HASH160 1da37c804fe4cc8c22e327df72dd6428346e172c OP_EQUALVERIFY OP_CHECKSIG", "type": "pubkeyhash"}, "value": 0.08241313, "n": 1}], "hex": "020000000233c1e2996a42824e7f0ffef6e61e1e3154be831466614b836d28f093ecede4dc030000006a4730440220011602b3df440027d67496f0bc2ae4b882c7801150a7b28cbce77478548834d30220669433d7229b2f22da1bed92e15482da09e1f2b7c506bc538490995149cd8607012103d85d501ddbf09e1744bf485257c00c62ebb7a2f15547d0430c838139e1b21af2feffffff97f827d900b3b33183f5a86233397608a579e6984afba9e44023d24259281a15000000006b483045022100a52278ffb0cad3cf51cb40a8966af6fa5c43953b421034f0db1f2028ee69ba9302200941ad9e26397c9fb9e4a32707c63cbd998f44581d33830608becd452fe7361e01210251f570c493333c8913e878713ae5b483428f1d4a1a7f3ea51f7f2703e0f3a592feffffff02070d4c07000000001976a914e8cea30989bd15530f819b766684b00dc7ba7cfa88aca1c07d00000000001976a9141da37c804fe4cc8c22e327df72dd6428346e172c88ac16490800", "vin": [{"sequence": 4294967294, "scriptSig": {"hex": "4730440220011602b3df440027d67496f0bc2ae4b882c7801150a7b28cbce77478548834d30220669433d7229b2f22da1bed92e15482da09e1f2b7c506bc538490995149cd8607012103d85d501ddbf09e1744bf485257c00c62ebb7a2f15547d0430c838139e1b21af2", "asm": "30440220011602b3df440027d67496f0bc2ae4b882c7801150a7b28cbce77478548834d30220669433d7229b2f22da1bed92e15482da09e1f2b7c506bc538490995149cd8607[ALL] 03d85d501ddbf09e1744bf485257c00c62ebb7a2f15547d0430c838139e1b21af2"}, "vout": 3, "txid": "dce4edec93f0286d834b61661483be54311e1ee6f6fe0f7f4e82426a99e2c133"}, {"sequence": 4294967294, "scriptSig": {"hex": "483045022100a52278ffb0cad3cf51cb40a8966af6fa5c43953b421034f0db1f2028ee69ba9302200941ad9e26397c9fb9e4a32707c63cbd998f44581d33830608becd452fe7361e01210251f570c493333c8913e878713ae5b483428f1d4a1a7f3ea51f7f2703e0f3a592", "asm": "3045022100a52278ffb0cad3cf51cb40a8966af6fa5c43953b421034f0db1f2028ee69ba9302200941ad9e26397c9fb9e4a32707c63cbd998f44581d33830608becd452fe7361e[ALL] 0251f570c493333c8913e878713ae5b483428f1d4a1a7f3ea51f7f2703e0f3a592"}, "vout": 0, "txid": "151a285942d22340e4a9fb4a98e679a50876393362a8f58331b3b300d927f897"}], "txid": "071ea308301bd83c8ab0aa71fba9b7d72656c505aa1f9578adc83a994a2d271e", "blocktime": 1537875543, "version": 2, "confirmations": 11464, "time": 1537875543, "locktime": 542998, "vsize": 373, "size": 373}