{"hash": "7bd6d17a2706a4eb27f2dfdf36ce91d3d8d6eebdb16b204fab41c35f78103806", "blockhash": "0000000000000000000baef3f32e3676a92c3b2e5da21b426e4f302fc371ce76", "vout": [{"scriptPubKey": {"reqSigs": 1, "hex": "76a91485db7cab769f93a69785c13cc1e0df51be1f9d8b88ac", "addresses": ["1DCmojk8DoVM3CmvYCzyJbGfcHzZstF2vU"], "asm": "OP_DUP OP_HASH160 85db7cab769f93a69785c13cc1e0df51be1f9d8b OP_EQUALVERIFY OP_CHECKSIG", "type": "pubkeyhash"}, "value": 2.614e-05, "n": 0}, {"scriptPubKey": {"reqSigs": 1, "hex": "a914e8db75c900cf08f06518e96d167331f2a4abfb3387", "addresses": ["3NvFbQMAkkqEFj4i1sYPPLkSWzxTFUchjA"], "asm": "OP_HASH160 e8db75c900cf08f06518e96d167331f2a4abfb33 OP_EQUAL", "type": "scripthash"}, "value": 0.00036342, "n": 1}], "hex": "01000000000101f0cfb8ccfecc44650f1026f307657a6e0e9be2dde8d4ecf150dd4b8b153887350100000023220020941cfaff8837763dc1f69ff82b6d6553fdea17a41cfc29a04403293eedd8ccc7ffffffff02360a0000000000001976a91485db7cab769f93a69785c13cc1e0df51be1f9d8b88acf68d00000000000017a914e8db75c900cf08f06518e96d167331f2a4abfb3387040048304502210082717f337bfb646aa489cae34de8cb8898f2dd98695c6e9d388f6efd3d63287302204293a967f700755aeb6fd680d3d468ae24fc11c288193a78dfd9954df09518ee01483045022100f607def7a9c13adc9414e044db0340594863c44ed8f2c7d3ad491b0e69d3900702204ba5c0089981e40c38598e8a8fe8b337f0fe06670dc3db659cc7cd5f6eec1e040147522102531db3a5883f29bab4241dd0cd726936667bcda445d89bdd22244e828b6993342103148c80a5bdfddb05ff5bcffc397c8ca748d8b435ec6a175bc9d7bfc7fc6f853752ae00000000", "vin": [{"txinwitness": ["", "304502210082717f337bfb646aa489cae34de8cb8898f2dd98695c6e9d388f6efd3d63287302204293a967f700755aeb6fd680d3d468ae24fc11c288193a78dfd9954df09518ee01", "3045022100f607def7a9c13adc9414e044db0340594863c44ed8f2c7d3ad491b0e69d3900702204ba5c0089981e40c38598e8a8fe8b337f0fe06670dc3db659cc7cd5f6eec1e0401", "522102531db3a5883f29bab4241dd0cd726936667bcda445d89bdd22244e828b6993342103148c80a5bdfddb05ff5bcffc397c8ca748d8b435ec6a175bc9d7bfc7fc6f853752ae"], "sequence": 4294967295, "scriptSig": {"hex": "220020941cfaff8837763dc1f69ff82b6d6553fdea17a41cfc29a04403293eedd8ccc7", "asm": "0020941cfaff8837763dc1f69ff82b6d6553fdea17a41cfc29a04403293eedd8ccc7"}, "vout": 1, "txid": "358738158b4bdd50f1ecd4e8dde29b0e6e7a6507f326100f6544ccfeccb8cff0"}], "txid": "0722eda48a29da46a7362b853b0b0fbe045ee199e3d08173ed8a67fcf031a5f8", "blocktime": 1537876114, "version": 1, "confirmations": 11462, "time": 1537876114, "locktime": 0, "vsize": 208, "size": 374}