{"hash": "42d18377f93188e926e45f5b417fb78565a8feb8fbc82eddca2cf391dc38beaa", "blockhash": "0000000000000000001cda96e906b7601b7a6fb1a3b62bca570a9e5d8f4b3de1", "vout": [{"scriptPubKey": {"reqSigs": 1, "hex": "76a9144cfc13de8e2198c0eab41cb21faab5f3674f588e88ac", "addresses": ["1824LErRz4tXo8NCMdpWwaAVR6j8REVdmj"], "asm": "OP_DUP OP_HASH160 4cfc13de8e2198c0eab41cb21faab5f3674f588e OP_EQUALVERIFY OP_CHECKSIG", "type": "pubkeyhash"}, "value": 0.0272, "n": 0}, {"scriptPubKey": {"reqSigs": 1, "hex": "a9147eebc1ca8bedf6dce2fa672f4204fa159792062c87", "addresses": ["3DG7VQ281ZQbu652HiaDVrLF3RAMkKLVXi"], "asm": "OP_HASH160 7eebc1ca8bedf6dce2fa672f4204fa159792062c OP_EQUAL", "type": "scripthash"}, "value": 0.01478313, "n": 1}], "hex": "02000000000103138e8b9d1e4c6621c822dae63bda6103cce3bce62c7cf2d1f5e97ff3dc80784235000000171600146be8bfe49bec2a85f7c7e3a9bc6ef94421567c4efeffffff19ca8157a00773c072116a7816381e55cf1ff0c6c8a000a605da56bc8e2b2dde010000001716001400f0ed61b8ae5b11a5732f0af41c1644a3afd3f0feffffff9e83ed36b68b59e5836b35ebb67ccd6b20cc529e190aa7fa62023653d67572ba0100000017160014376f78b27ff30710640801a79ceec83a7451d7c8feffffff0200812900000000001976a9144cfc13de8e2198c0eab41cb21faab5f3674f588e88aca98e16000000000017a9147eebc1ca8bedf6dce2fa672f4204fa159792062c870247304402203ddb3980ad9026f2708f87ddf8ca3b13ac65e061f011279ac9aa64bbef0690f6022077c995dab5d1a918fc62c074e53d6be93250002c80f0a536bfd20f264636c842012102cff46661f45b70b586173990edb8d36abe017c5dda8f64e8841fa38c9d51dff20248304502210083b2cc3ceed96255072ea7bbcea05f74e2075c2699f1c11cc1dd811325f32240022070ea04dde342d2e1444cc5d13c52963275b8772218d17be71a3542f1c3f145d1012103198e04bef28fcf7edc7aaae53424c3cfee7fbbfbd98e24e15d80e4c816174bc402483045022100dd08b7204ea3b2a110ca3124066976d5148008e2c6b30f3450ba4a30fb04775a0220280292d75dfd6deb1173003daa73cc28f449cbadc62f3d1a17a56279ca341e6e012103068df1bbdd5cfd9017b6a651a7384c98ddd6b338e4ea3afbb5da15e71b1df9c313490800", "vin": [{"txinwitness": ["304402203ddb3980ad9026f2708f87ddf8ca3b13ac65e061f011279ac9aa64bbef0690f6022077c995dab5d1a918fc62c074e53d6be93250002c80f0a536bfd20f264636c84201", "02cff46661f45b70b586173990edb8d36abe017c5dda8f64e8841fa38c9d51dff2"], "sequence": 4294967294, "scriptSig": {"hex": "1600146be8bfe49bec2a85f7c7e3a9bc6ef94421567c4e", "asm": "00146be8bfe49bec2a85f7c7e3a9bc6ef94421567c4e"}, "vout": 53, "txid": "427880dcf37fe9f5d1f27c2ce6bce3cc0361da3be6da22c821664c1e9d8b8e13"}, {"txinwitness": ["304502210083b2cc3ceed96255072ea7bbcea05f74e2075c2699f1c11cc1dd811325f32240022070ea04dde342d2e1444cc5d13c52963275b8772218d17be71a3542f1c3f145d101", "03198e04bef28fcf7edc7aaae53424c3cfee7fbbfbd98e24e15d80e4c816174bc4"], "sequence": 4294967294, "scriptSig": {"hex": "16001400f0ed61b8ae5b11a5732f0af41c1644a3afd3f0", "asm": "001400f0ed61b8ae5b11a5732f0af41c1644a3afd3f0"}, "vout": 1, "txid": "de2d2b8ebc56da05a600a0c8c6f01fcf551e3816786a1172c07307a05781ca19"}, {"txinwitness": ["3045022100dd08b7204ea3b2a110ca3124066976d5148008e2c6b30f3450ba4a30fb04775a0220280292d75dfd6deb1173003daa73cc28f449cbadc62f3d1a17a56279ca341e6e01", "03068df1bbdd5cfd9017b6a651a7384c98ddd6b338e4ea3afbb5da15e71b1df9c3"], "sequence": 4294967294, "scriptSig": {"hex": "160014376f78b27ff30710640801a79ceec83a7451d7c8", "asm": "0014376f78b27ff30710640801a79ceec83a7451d7c8"}, "vout": 1, "txid": "ba7275d653360262faa70a199e52cc206bcd7cb6eb356b83e5598bb636ed839e"}], "txid": "0723704295ffe28e1ebf2720bb12dded42d5f39ae157bbbf90a55d44eff429b6", "blocktime": 1537873282, "version": 2, "confirmations": 11481, "time": 1537873282, "locktime": 542995, "vsize": 350, "size": 593}