{"hash": "0723e7a0cd2efe8542fe0e65cbc436bf7170abd1709928c9092d8b53d5b7947a", "blockhash": "0000000000000000001cda96e906b7601b7a6fb1a3b62bca570a9e5d8f4b3de1", "vout": [{"scriptPubKey": {"type": "nulldata", "hex": "6a4c50000077c500011ac8685b23cc0f42c2fc38c5e5bf9ae76da98a211aaf6c953dd567cf27e7dd8adcd0cd4bfb78da54f1f70f6253cd5baa134c06136d4758d12efcbc9a9526289ac0f6612cd74e33776ee4", "asm": "OP_RETURN 000077c500011ac8685b23cc0f42c2fc38c5e5bf9ae76da98a211aaf6c953dd567cf27e7dd8adcd0cd4bfb78da54f1f70f6253cd5baa134c06136d4758d12efcbc9a9526289ac0f6612cd74e33776ee4"}, "value": 0.0, "n": 0}, {"scriptPubKey": {"reqSigs": 1, "hex": "76a914946559423e4ea0fd251f001d65fc074da320c4e588ac", "addresses": ["1EXeRDkCtKfzWKUUsnVPtmfptXF25Pqupm"], "asm": "OP_DUP OP_HASH160 946559423e4ea0fd251f001d65fc074da320c4e5 OP_EQUALVERIFY OP_CHECKSIG", "type": "pubkeyhash"}, "value": 0.0147492, "n": 1}], "hex": "0100000001868f5a4ef8994f5b915d7643679db8873803211aad3dba7b130e063993dec324000000006a47304402200a2a7949bfc4c1f4a1059e82423c65d79fb97aa6aad7221354995d74b2e859f702204ec1d1548e39d6212179c67931745df5eeeb52ade852c3c4088208a9cfd1486e0121033991ea351172453d39e2277ba870cf87c9fb36c14e87fdc350ec4c265dcb4c49ffffffff020000000000000000536a4c50000077c500011ac8685b23cc0f42c2fc38c5e5bf9ae76da98a211aaf6c953dd567cf27e7dd8adcd0cd4bfb78da54f1f70f6253cd5baa134c06136d4758d12efcbc9a9526289ac0f6612cd74e33776ee468811600000000001976a914946559423e4ea0fd251f001d65fc074da320c4e588ac00000000", "vin": [{"sequence": 4294967295, "scriptSig": {"hex": "47304402200a2a7949bfc4c1f4a1059e82423c65d79fb97aa6aad7221354995d74b2e859f702204ec1d1548e39d6212179c67931745df5eeeb52ade852c3c4088208a9cfd1486e0121033991ea351172453d39e2277ba870cf87c9fb36c14e87fdc350ec4c265dcb4c49", "asm": "304402200a2a7949bfc4c1f4a1059e82423c65d79fb97aa6aad7221354995d74b2e859f702204ec1d1548e39d6212179c67931745df5eeeb52ade852c3c4088208a9cfd1486e[ALL] 033991ea351172453d39e2277ba870cf87c9fb36c14e87fdc350ec4c265dcb4c49"}, "vout": 0, "txid": "24c3de9339060e137bba3dad1a21033887b89d6743765d915b4f99f84e5a8f86"}], "txid": "0723e7a0cd2efe8542fe0e65cbc436bf7170abd1709928c9092d8b53d5b7947a", "blocktime": 1537873282, "version": 1, "confirmations": 11484, "time": 1537873282, "locktime": 0, "vsize": 283, "size": 283}