{"hash": "072cea0106b1121d6efc3ca6812a19700f7adbb89876d0a0880dfa1824e4634b", "blockhash": "000000000000000000022b45ed06c6f4ccd3cf7fb5ba4856ebd2e58215665228", "vout": [{"scriptPubKey": {"reqSigs": 1, "hex": "a914762f1bf05bf820a9a6bf931352f74971f0a9ec5287", "addresses": ["3CTv6NzJV4dnjCVfNYtY8VMXDpK8MXvm2R"], "asm": "OP_HASH160 762f1bf05bf820a9a6bf931352f74971f0a9ec52 OP_EQUAL", "type": "scripthash"}, "value": 0.01590772, "n": 0}, {"scriptPubKey": {"reqSigs": 1, "hex": "76a9148ae6d899a46f6a6485ce22cc69b28c13b08571ac88ac", "addresses": ["1DfSnwYbeghE12xRV9DF5hui3omb8PsDkZ"], "asm": "OP_DUP OP_HASH160 8ae6d899a46f6a6485ce22cc69b28c13b08571ac OP_EQUALVERIFY OP_CHECKSIG", "type": "pubkeyhash"}, "value": 0.00159466, "n": 1}], "hex": "0200000005c5460beaa4b283227e9eee7f254d63aaa03e9a9c74540fc9bd2641633f2327dc000000006a4730440220505457fd7e747472f15f4dce72e8a63d6777880d8e147b2fa1c777680197f0f70220275202f2e37402b8f018306a127ea79e3fd45cff062d5ae2cf5a3786dbe32ce00121026326f8c3793ad2898952a2a8f115735e37e2889ae737cfbab1251cb14f04771afffffffff4622a44ff8a1d8c5b24dbcf664fb2ec55ede692d50aea90b13439dc9aaac8ab010000006b483045022100d5522eaffd7e5169f2a9ed15889fa3fcc57c2bd18a433a5f297c42246b248df20220244f4ffd64996149d0d9c82253ecec8718b255db5bd1a84bc3aa45630f8d8f890121026326f8c3793ad2898952a2a8f115735e37e2889ae737cfbab1251cb14f04771affffffff618193124e31b9bc25976a67abd85ecb55986189b81757bd7bcf2e1b33e53377010000006b483045022100f630d1c2df4a5684853a3e567a52ff922f71f5adbd100e589e86d09d7d1eaad8022028576ad65bdff7c6b08d90cdcede3918ed8b1cbf11b1f69e322e56114e9b4d860121026326f8c3793ad2898952a2a8f115735e37e2889ae737cfbab1251cb14f04771affffffff0168a609f19198aeca291b7e349a0880f4e86b7347c0ae52c81ac37f15415df6010000006b483045022100ecc0146c7eb4738ba8dddc4471c135fb35e4d94dfa6e53780140c32d726d1ff20220676c37ebdafe597a5901c36b2d9c5d15e712a0a6879adb72102f5c5c71b1020a0121026326f8c3793ad2898952a2a8f115735e37e2889ae737cfbab1251cb14f04771affffffff0ffb75ae15ccb81f42813a2963560aeb17c02a321eb16c646212792537e63bd3010000006a47304402206c4de2b28214c2197601d05d7f4f687f4e6f6d3cb316042f4b2899dfaa1cec35022056b62ff4af91c5bfeea3e2ba74900cade58148ad684fce9295d84e6d8f1ba8cd0121026326f8c3793ad2898952a2a8f115735e37e2889ae737cfbab1251cb14f04771affffffff02f44518000000000017a914762f1bf05bf820a9a6bf931352f74971f0a9ec5287ea6e0200000000001976a9148ae6d899a46f6a6485ce22cc69b28c13b08571ac88ac00000000", "vin": [{"sequence": 4294967295, "scriptSig": {"hex": "4730440220505457fd7e747472f15f4dce72e8a63d6777880d8e147b2fa1c777680197f0f70220275202f2e37402b8f018306a127ea79e3fd45cff062d5ae2cf5a3786dbe32ce00121026326f8c3793ad2898952a2a8f115735e37e2889ae737cfbab1251cb14f04771a", "asm": "30440220505457fd7e747472f15f4dce72e8a63d6777880d8e147b2fa1c777680197f0f70220275202f2e37402b8f018306a127ea79e3fd45cff062d5ae2cf5a3786dbe32ce0[ALL] 026326f8c3793ad2898952a2a8f115735e37e2889ae737cfbab1251cb14f04771a"}, "vout": 0, "txid": "dc27233f634126bdc90f54749c9a3ea0aa634d257fee9e7e2283b2a4ea0b46c5"}, {"sequence": 4294967295, "scriptSig": {"hex": "483045022100d5522eaffd7e5169f2a9ed15889fa3fcc57c2bd18a433a5f297c42246b248df20220244f4ffd64996149d0d9c82253ecec8718b255db5bd1a84bc3aa45630f8d8f890121026326f8c3793ad2898952a2a8f115735e37e2889ae737cfbab1251cb14f04771a", "asm": "3045022100d5522eaffd7e5169f2a9ed15889fa3fcc57c2bd18a433a5f297c42246b248df20220244f4ffd64996149d0d9c82253ecec8718b255db5bd1a84bc3aa45630f8d8f89[ALL] 026326f8c3793ad2898952a2a8f115735e37e2889ae737cfbab1251cb14f04771a"}, "vout": 1, "txid": "abc8aa9adc3934b190ea0ad592e6ed55ecb24f66cfdb245b8c1d8aff442a62f4"}, {"sequence": 4294967295, "scriptSig": {"hex": "483045022100f630d1c2df4a5684853a3e567a52ff922f71f5adbd100e589e86d09d7d1eaad8022028576ad65bdff7c6b08d90cdcede3918ed8b1cbf11b1f69e322e56114e9b4d860121026326f8c3793ad2898952a2a8f115735e37e2889ae737cfbab1251cb14f04771a", "asm": "3045022100f630d1c2df4a5684853a3e567a52ff922f71f5adbd100e589e86d09d7d1eaad8022028576ad65bdff7c6b08d90cdcede3918ed8b1cbf11b1f69e322e56114e9b4d86[ALL] 026326f8c3793ad2898952a2a8f115735e37e2889ae737cfbab1251cb14f04771a"}, "vout": 1, "txid": "7733e5331b2ecf7bbd5717b889619855cb5ed8ab676a9725bcb9314e12938161"}, {"sequence": 4294967295, "scriptSig": {"hex": "483045022100ecc0146c7eb4738ba8dddc4471c135fb35e4d94dfa6e53780140c32d726d1ff20220676c37ebdafe597a5901c36b2d9c5d15e712a0a6879adb72102f5c5c71b1020a0121026326f8c3793ad2898952a2a8f115735e37e2889ae737cfbab1251cb14f04771a", "asm": "3045022100ecc0146c7eb4738ba8dddc4471c135fb35e4d94dfa6e53780140c32d726d1ff20220676c37ebdafe597a5901c36b2d9c5d15e712a0a6879adb72102f5c5c71b1020a[ALL] 026326f8c3793ad2898952a2a8f115735e37e2889ae737cfbab1251cb14f04771a"}, "vout": 1, "txid": "f65d41157fc31ac852aec047736be8f480089a347e1b29caae9891f109a66801"}, {"sequence": 4294967295, "scriptSig": {"hex": "47304402206c4de2b28214c2197601d05d7f4f687f4e6f6d3cb316042f4b2899dfaa1cec35022056b62ff4af91c5bfeea3e2ba74900cade58148ad684fce9295d84e6d8f1ba8cd0121026326f8c3793ad2898952a2a8f115735e37e2889ae737cfbab1251cb14f04771a", "asm": "304402206c4de2b28214c2197601d05d7f4f687f4e6f6d3cb316042f4b2899dfaa1cec35022056b62ff4af91c5bfeea3e2ba74900cade58148ad684fce9295d84e6d8f1ba8cd[ALL] 026326f8c3793ad2898952a2a8f115735e37e2889ae737cfbab1251cb14f04771a"}, "vout": 1, "txid": "d33be63725791262646cb11e322ac017eb0a5663293a81421fb8cc15ae75fb0f"}], "txid": "072cea0106b1121d6efc3ca6812a19700f7adbb89876d0a0880dfa1824e4634b", "blocktime": 1537869901, "version": 2, "confirmations": 11522, "time": 1537869901, "locktime": 0, "vsize": 814, "size": 814}