{"hash": "d0188dcac42237649954da699d0f368ec2b7c420543fac29ab47f3902187eefc", "blockhash": "000000000000000000022b45ed06c6f4ccd3cf7fb5ba4856ebd2e58215665228", "vout": [{"scriptPubKey": {"reqSigs": 1, "hex": "a914dc0eca25190db9902ead8c4b6ca6f7dce76191fb87", "addresses": ["3MkaJM8SAzAziVerfRQduJVWUwXN3a8RW2"], "asm": "OP_HASH160 dc0eca25190db9902ead8c4b6ca6f7dce76191fb OP_EQUAL", "type": "scripthash"}, "value": 0.99998664, "n": 0}, {"scriptPubKey": {"reqSigs": 1, "hex": "a91402691a0614ee7fa7ce1f435e205b618b59237b9487", "addresses": ["31umBX2K57R28Sqh7skngTG1AyqCFMsQnu"], "asm": "OP_HASH160 02691a0614ee7fa7ce1f435e205b618b59237b94 OP_EQUAL", "type": "scripthash"}, "value": 2.0, "n": 1}], "hex": "01000000000101f06cbf4c7db873e836f1348b2b7e8f9827295bd74f322b43e8cf469c7b4ec2b90100000017160014ca93949e84966365051f91dc3eda56a343b2239effffffff02c8dbf5050000000017a914dc0eca25190db9902ead8c4b6ca6f7dce76191fb8700c2eb0b0000000017a91402691a0614ee7fa7ce1f435e205b618b59237b948702473044022030dccb65a56a07ffa8137be3bfff0138bea603878e15fc1b4fa1619bf85f8b9202203258a111fc9a6040e04d465b74826422be1af725a06a3d1716f3c18294ca257e01210304a4ad228c3ce51d4668c8990720bfc5518ca25aa55dc197fef9784d728d584400000000", "vin": [{"txinwitness": ["3044022030dccb65a56a07ffa8137be3bfff0138bea603878e15fc1b4fa1619bf85f8b9202203258a111fc9a6040e04d465b74826422be1af725a06a3d1716f3c18294ca257e01", "0304a4ad228c3ce51d4668c8990720bfc5518ca25aa55dc197fef9784d728d5844"], "sequence": 4294967295, "scriptSig": {"hex": "160014ca93949e84966365051f91dc3eda56a343b2239e", "asm": "0014ca93949e84966365051f91dc3eda56a343b2239e"}, "vout": 1, "txid": "b9c24e7b9c46cfe8432b324fd75b2927988f7e2b8b34f136e873b87d4cbf6cf0"}], "txid": "07321a29006a7e57af59567f77f8793a7b34653caaea899958c8c2e67402fc13", "blocktime": 1537869901, "version": 1, "confirmations": 11523, "time": 1537869901, "locktime": 0, "vsize": 166, "size": 247}