{"hash": "0746155721500dacbb6632bf4eaca104ad5f8a145266f42eb3ac7fef735a785a", "blockhash": "00000000000000000018f53835495a110e01622372bf6ae95dc86f2b0ab887b0", "vout": [{"scriptPubKey": {"reqSigs": 1, "hex": "76a914d243e6abb9a60fbff430b421d2df4b7d59ec186088ac", "addresses": ["1LAnF8h3qMGx3TSwNUHVneBZUEpwE4gu3D"], "asm": "OP_DUP OP_HASH160 d243e6abb9a60fbff430b421d2df4b7d59ec1860 OP_EQUALVERIFY OP_CHECKSIG", "type": "pubkeyhash"}, "value": 0.00076972, "n": 0}, {"scriptPubKey": {"reqSigs": 1, "hex": "76a9143851f34d13937b673a7d24a1950bb5b21ce94af388ac", "addresses": ["168o1kqNquEJeR9vosUB5fw4eAwcVAgh8P"], "asm": "OP_DUP OP_HASH160 3851f34d13937b673a7d24a1950bb5b21ce94af3 OP_EQUALVERIFY OP_CHECKSIG", "type": "pubkeyhash"}, "value": 5.46e-06, "n": 1}, {"scriptPubKey": {"type": "nulldata", "hex": "6a146f6d6e69000000000000001f00000023c0e608a4", "asm": "OP_RETURN 6f6d6e69000000000000001f00000023c0e608a4"}, "value": 0.0, "n": 2}], "hex": "01000000020b64b203f1e99cb9a9e6cb66e8bee96b3bab85547c29d3376e3b35503a507208020000006a4730440220677ee96baa5794b99a8a671c7e9c069189aaadb5825b83c36785e5d644c2592802202194e8a6b7b9ddf34d6b4ee2db2329e50427b0c731828894104894eb7d925c160121025acc48df582d112ab05ac2ce3363ebf04401fb3304b9a0fdae80f5cb51028b9bffffffff224c19b7bb0b471c36184f2b5c5911931cfca1a32cf1abb708df714101c439ed000000006a47304402200571ab7d98bbe6b12a9342c380d81c495bd524027c48b01431a8a4bd2577bb3402206547d76cbf053e111a89cae0183b8ce5970cd519b34c4dbac612d8eeac6ff64101210271977291b74f1f5f5c42157e8aae804664eaaeccfd097918450d37f28fb94d77ffffffff03ac2c0100000000001976a914d243e6abb9a60fbff430b421d2df4b7d59ec186088ac22020000000000001976a9143851f34d13937b673a7d24a1950bb5b21ce94af388ac0000000000000000166a146f6d6e69000000000000001f00000023c0e608a400000000", "vin": [{"sequence": 4294967295, "scriptSig": {"hex": "4730440220677ee96baa5794b99a8a671c7e9c069189aaadb5825b83c36785e5d644c2592802202194e8a6b7b9ddf34d6b4ee2db2329e50427b0c731828894104894eb7d925c160121025acc48df582d112ab05ac2ce3363ebf04401fb3304b9a0fdae80f5cb51028b9b", "asm": "30440220677ee96baa5794b99a8a671c7e9c069189aaadb5825b83c36785e5d644c2592802202194e8a6b7b9ddf34d6b4ee2db2329e50427b0c731828894104894eb7d925c16[ALL] 025acc48df582d112ab05ac2ce3363ebf04401fb3304b9a0fdae80f5cb51028b9b"}, "vout": 2, "txid": "0872503a50353b6e37d3297c5485ab3b6be9bee866cbe6a9b99ce9f103b2640b"}, {"sequence": 4294967295, "scriptSig": {"hex": "47304402200571ab7d98bbe6b12a9342c380d81c495bd524027c48b01431a8a4bd2577bb3402206547d76cbf053e111a89cae0183b8ce5970cd519b34c4dbac612d8eeac6ff64101210271977291b74f1f5f5c42157e8aae804664eaaeccfd097918450d37f28fb94d77", "asm": "304402200571ab7d98bbe6b12a9342c380d81c495bd524027c48b01431a8a4bd2577bb3402206547d76cbf053e111a89cae0183b8ce5970cd519b34c4dbac612d8eeac6ff641[ALL] 0271977291b74f1f5f5c42157e8aae804664eaaeccfd097918450d37f28fb94d77"}, "vout": 0, "txid": "ed39c4014171df08b7abf12ca3a1fc1c9311595c2b4f18361c470bbbb7194c22"}], "txid": "0746155721500dacbb6632bf4eaca104ad5f8a145266f42eb3ac7fef735a785a", "blocktime": 1537870928, "version": 1, "confirmations": 11512, "time": 1537870928, "locktime": 0, "vsize": 403, "size": 403}