{"hash": "64f1daa0a2105016e768971e294fc0e8a27ca6637dec4c474c94f962dc061761", "blockhash": "0000000000000000000dcc0f55137456b1a82d3642486a52398922ac4d620174", "vout": [{"scriptPubKey": {"reqSigs": 1, "hex": "a91453136e0d857483be394d8a4ce218812c39803e0487", "addresses": ["39GHHUhV676tW54oBBqvvw6DzKzLQircGS"], "asm": "OP_HASH160 53136e0d857483be394d8a4ce218812c39803e04 OP_EQUAL", "type": "scripthash"}, "value": 11.56788381, "n": 0}, {"scriptPubKey": {"reqSigs": 1, "hex": "a914346e8205e9b2667a30f7929174a0808fad1e70c387", "addresses": ["36UFSk2SjfpnFAFbRz1nkSdevtvjNhs969"], "asm": "OP_HASH160 346e8205e9b2667a30f7929174a0808fad1e70c3 OP_EQUAL", "type": "scripthash"}, "value": 0.00208607, "n": 1}], "hex": "02000000000101d39396f5e01aca258a72a26d361bca106195863dce15fba981a60cd937b8ce880100000017160014e1a46241ab3f70ffa6b5bb8c638835cd833efe5cfeffffff029d30f3440000000017a91453136e0d857483be394d8a4ce218812c39803e0487df2e03000000000017a914346e8205e9b2667a30f7929174a0808fad1e70c387024830450221009b2f148a089d03724da66e78a64da95a48370de4fb537ef60c54c412dcef05970220022a74fa359d6e629bb54e48bf11e541423e3d2040628c8183a9b9a2de00be73012103501530fe1a3b5edd86e6e8da681b6f773337ed8d890b083f7952bf6d23f86fc50c490800", "vin": [{"txinwitness": ["30450221009b2f148a089d03724da66e78a64da95a48370de4fb537ef60c54c412dcef05970220022a74fa359d6e629bb54e48bf11e541423e3d2040628c8183a9b9a2de00be7301", "03501530fe1a3b5edd86e6e8da681b6f773337ed8d890b083f7952bf6d23f86fc5"], "sequence": 4294967294, "scriptSig": {"hex": "160014e1a46241ab3f70ffa6b5bb8c638835cd833efe5c", "asm": "0014e1a46241ab3f70ffa6b5bb8c638835cd833efe5c"}, "vout": 1, "txid": "88ceb837d90ca681a9fb15ce3d86956110ca1b366da2728a25ca1ae0f59693d3"}], "txid": "0747990fecdeceb442af046e199b601df22aaa693a347703db2236e428bab158", "blocktime": 1537870268, "version": 2, "confirmations": 11516, "time": 1537870268, "locktime": 542988, "vsize": 166, "size": 248}