{"hash": "f52b80b7bc61e37eee429157a648aadc399b152cc42a1f29fac33cb71700f000", "blockhash": "00000000000000000004ffacab907a6b429b9a5745fa0b75af4234bf69dd7176", "vout": [{"scriptPubKey": {"reqSigs": 1, "hex": "a91449bd336cb6530690c309a166f99c68cb13ba998287", "addresses": ["38QuuTLEk3r5buQqRskTZb3NJYqBBev7zm"], "asm": "OP_HASH160 49bd336cb6530690c309a166f99c68cb13ba9982 OP_EQUAL", "type": "scripthash"}, "value": 0.01042882, "n": 0}, {"scriptPubKey": {"reqSigs": 1, "hex": "a914a8c255bd732c0a7eff01c357c4aa20031be05b4687", "addresses": ["3H5LFQ4MBSkyBbKtGYaKnvfHyAs1bP5en2"], "asm": "OP_HASH160 a8c255bd732c0a7eff01c357c4aa20031be05b46 OP_EQUAL", "type": "scripthash"}, "value": 1.06194229, "n": 1}], "hex": "020000000001019a1a5bf33525b943e69ceb78001eb77c2cb47bebe44f7178b428f2732adbc091010000001716001416d3e9c60f07b4c28bf827cdef7fb8a00d381df2feffffff02c2e90f000000000017a91449bd336cb6530690c309a166f99c68cb13ba998287356554060000000017a914a8c255bd732c0a7eff01c357c4aa20031be05b468702483045022100856c8284fd5247ed1db04c178ef9619588c1005f64a34c7e04bc9054053514e802201faedbef7535b65cc25749b25f0fe70df2c58c1b539a54c7f5cccefe2ad7234b012103407563c8d4d6a962c3d4a7e054c871d71d13ab4763549541bb776fc74caa94ccd6480800", "vin": [{"txinwitness": ["3045022100856c8284fd5247ed1db04c178ef9619588c1005f64a34c7e04bc9054053514e802201faedbef7535b65cc25749b25f0fe70df2c58c1b539a54c7f5cccefe2ad7234b01", "03407563c8d4d6a962c3d4a7e054c871d71d13ab4763549541bb776fc74caa94cc"], "sequence": 4294967294, "scriptSig": {"hex": "16001416d3e9c60f07b4c28bf827cdef7fb8a00d381df2", "asm": "001416d3e9c60f07b4c28bf827cdef7fb8a00d381df2"}, "vout": 1, "txid": "91c0db2a73f228b478714fe4eb7bb42c7cb71e0078eb9ce643b92535f35b1a9a"}], "txid": "0748b91a180656518366ed3cb805617376f285fcfcabd457f18618f6bdfa6099", "blocktime": 1537875543, "version": 2, "confirmations": 11464, "time": 1537875543, "locktime": 542934, "vsize": 166, "size": 248}