{"hash": "ab1e5b108a1ff34212357e00c482e625424982641c1dfcba5df9d4fb7aa6595a", "blockhash": "0000000000000000000dcc0f55137456b1a82d3642486a52398922ac4d620174", "vout": [{"scriptPubKey": {"reqSigs": 1, "hex": "0014303efebcdc28c43f4afc6a99b63d93ca936a3114", "addresses": ["bc1qxql0a0xu9rzr7jhud2vmv0vne2fk5vg5xdlmtx"], "asm": "0 303efebcdc28c43f4afc6a99b63d93ca936a3114", "type": "witness_v0_keyhash"}, "value": 0.01102391, "n": 0}, {"scriptPubKey": {"reqSigs": 1, "hex": "00209c917ac53ef3906ca26578cad048588e2be7fe614000ddf513001feba7eaacd5", "addresses": ["bc1qnjgh43f77wgxegn90r9dqjzc3c470lnpgqqdmagnqq07hfl24n2seww2p3"], "asm": "0 9c917ac53ef3906ca26578cad048588e2be7fe614000ddf513001feba7eaacd5", "type": "witness_v0_scripthash"}, "value": 0.03247734, "n": 1}], "hex": "01000000000106a23a76111e0e803b775ad8e63ad642d5eb2994f0a61921aba0f08fbc93bcdd1c0000000000ffffffff1d9455b7eed33dd9a6f599817fab155b938ca7ff6e36fd057091480eb9f243260000000000ffffffffff2c817a907bcec1bb31b1a8e3471cd44b041f80429f20985420d23e636391270000000000ffffffff1b2e6d3db7a1afed84d6c89e3b1b85e37a1e679c5d3f11ead84355c8ae1076310000000000ffffffff3cb36f8bd642c765652f69b3bf964584e55a2bf00589e13c9e0c986c6ac3c4a00000000000ffffffff164c7f21ba9be6e58f7ee6b49378052dad8a8e2b6a99ae54f39c3f51db703ebc0000000000ffffffff0237d2100000000000160014303efebcdc28c43f4afc6a99b63d93ca936a3114768e3100000000002200209c917ac53ef3906ca26578cad048588e2be7fe614000ddf513001feba7eaacd50248304502210084b15b032e36e9e193bdd413675df815695b20ff227363d88efcfe7f06e45b9b02201f6ed0f311f46646b8068ee630e7c4d87d8351338ece9c069a32e1ad729fb90801210219be97387308cb685cf2abaa20d797ec30eaf1ac81d432ce6ac991233a028b2e024730440220020b3b4e3e9d9f932abee3ad5eb4ed2259201b38be1ed4b844065342ee0db09602205893cb15071e437cc3dcdf470040a82bc99c6614beee2abba540a382b9a0b15b0121027271488dea3bc14b8a7a7963dd0c4438c5aea11a3da1bfb1a24a53e0f9101fee0247304402206c7515758d611b4d408ee1ed422fc067e5b6bf212d199a624c3dcf4b58ff140c0220505ba3fc9bf5727272e4dde6404b13ad6e457db669d5325db8314ee987b69cf701210212ca817d7f7c0a1e6c8f787180ee15a18c8f392c2af182332327e40f6f9be9ba0248304502210094e5a5aee4c5ee41bbb7d7ce0d5c6b24d781555ecc3eee8189772387b04566ed02203f62ca384b579ca2c2b2d886b3cde3bd4802d26386469513609bf67ca9b0869d012103142c6158959af860047d0812707bac46d4fcc99d7a770145e945ee0ae5bc6b8e0247304402203c582383ef05f20a82bec0219f67abaf613c2240151b52d8fc347dab573bf1ce02202b225a2f605c37f0528f4c591ebf3f40f8cf8b7d4c0a239d953855cb2963df77012102754ba88549a77255bdf51e5207c724a50d7a717a195fc306480beccd596a71c80248304502210086f5bea4699f1c40df3904e26e48d06ff37dbc686d3f5c5b1d825141747472ee02203a32093cb9484f4e6afc58280ca54d93afdda2c59939095a52123310e71f23d3012103212fa0dfb7e9939731ee9316648a9d3f1f7ab0e3c5211647e4b08d50db2d045400000000", "vin": [{"txinwitness": ["304502210084b15b032e36e9e193bdd413675df815695b20ff227363d88efcfe7f06e45b9b02201f6ed0f311f46646b8068ee630e7c4d87d8351338ece9c069a32e1ad729fb90801", "0219be97387308cb685cf2abaa20d797ec30eaf1ac81d432ce6ac991233a028b2e"], "sequence": 4294967295, "scriptSig": {"hex": "", "asm": ""}, "vout": 0, "txid": "1cddbc93bc8ff0a0ab2119a6f09429ebd542d63ae6d85a773b800e1e11763aa2"}, {"txinwitness": ["30440220020b3b4e3e9d9f932abee3ad5eb4ed2259201b38be1ed4b844065342ee0db09602205893cb15071e437cc3dcdf470040a82bc99c6614beee2abba540a382b9a0b15b01", "027271488dea3bc14b8a7a7963dd0c4438c5aea11a3da1bfb1a24a53e0f9101fee"], "sequence": 4294967295, "scriptSig": {"hex": "", "asm": ""}, "vout": 0, "txid": "2643f2b90e48917005fd366effa78c935b15ab7f8199f5a6d93dd3eeb755941d"}, {"txinwitness": ["304402206c7515758d611b4d408ee1ed422fc067e5b6bf212d199a624c3dcf4b58ff140c0220505ba3fc9bf5727272e4dde6404b13ad6e457db669d5325db8314ee987b69cf701", "0212ca817d7f7c0a1e6c8f787180ee15a18c8f392c2af182332327e40f6f9be9ba"], "sequence": 4294967295, "scriptSig": {"hex": "", "asm": ""}, "vout": 0, "txid": "279163633ed2205498209f42801f044bd41c47e3a8b131bbc1ce7b907a812cff"}, {"txinwitness": ["304502210094e5a5aee4c5ee41bbb7d7ce0d5c6b24d781555ecc3eee8189772387b04566ed02203f62ca384b579ca2c2b2d886b3cde3bd4802d26386469513609bf67ca9b0869d01", "03142c6158959af860047d0812707bac46d4fcc99d7a770145e945ee0ae5bc6b8e"], "sequence": 4294967295, "scriptSig": {"hex": "", "asm": ""}, "vout": 0, "txid": "317610aec85543d8ea113f5d9c671e7ae3851b3b9ec8d684edafa1b73d6d2e1b"}, {"txinwitness": ["304402203c582383ef05f20a82bec0219f67abaf613c2240151b52d8fc347dab573bf1ce02202b225a2f605c37f0528f4c591ebf3f40f8cf8b7d4c0a239d953855cb2963df7701", "02754ba88549a77255bdf51e5207c724a50d7a717a195fc306480beccd596a71c8"], "sequence": 4294967295, "scriptSig": {"hex": "", "asm": ""}, "vout": 0, "txid": "a0c4c36a6c980c9e3ce18905f02b5ae5844596bfb3692f6565c742d68b6fb33c"}, {"txinwitness": ["304502210086f5bea4699f1c40df3904e26e48d06ff37dbc686d3f5c5b1d825141747472ee02203a32093cb9484f4e6afc58280ca54d93afdda2c59939095a52123310e71f23d301", "03212fa0dfb7e9939731ee9316648a9d3f1f7ab0e3c5211647e4b08d50db2d0454"], "sequence": 4294967295, "scriptSig": {"hex": "", "asm": ""}, "vout": 0, "txid": "bc3e70db513f9cf354ae996a2b8e8aad2d057893b4e67e8fe5e69bba217f4c16"}], "txid": "074933540b6853d385a99702a4927e57a9e35ca3f458018c4983d93d8477324a", "blocktime": 1537870268, "version": 1, "confirmations": 11518, "time": 1537870268, "locktime": 0, "vsize": 492, "size": 977}