{"hash": "074fa0c9aefe4988244ecc7b43f7115309ca5ef5a2befc6c35c33a5d5edce9bf", "blockhash": "00000000000000000017f5eb5941039fbcee6240d03bc1f2f8e35350df66a1d8", "vout": [{"scriptPubKey": {"reqSigs": 1, "hex": "76a914216c97305749805bbb273151333ccd593e1ff0c588ac", "addresses": ["143jPLWDRpTFNMWG54sKDQn2Y9B5PDu2Gs"], "asm": "OP_DUP OP_HASH160 216c97305749805bbb273151333ccd593e1ff0c5 OP_EQUALVERIFY OP_CHECKSIG", "type": "pubkeyhash"}, "value": 0.09012538, "n": 0}, {"scriptPubKey": {"reqSigs": 1, "hex": "76a9147ea86819c60b6733ccaf6547412396c14bb7969588ac", "addresses": ["1CYhtGd4n8Bi45xAfoN1VXkMRKeD3AMhBq"], "asm": "OP_DUP OP_HASH160 7ea86819c60b6733ccaf6547412396c14bb79695 OP_EQUALVERIFY OP_CHECKSIG", "type": "pubkeyhash"}, "value": 0.03148712, "n": 1}], "hex": "01000000057887fa3f55edebe34c8b3f6f541d974770874567d0a04b81a7a92d8f0ea269bb010000006a47304402200a6054b2115c746a95db2b0b9bf3c3b6cf7e08d3b4738a5f32ff03af38d230df022048cefc51b01d5f97d212ac1ef96473d889474acfe890c1845d323639dadd77c9012102dddc383d723d55f96aef37b0b7e1c6c52bb59882094f9250ac2986ba5485d1afffffffff5e2f8343369a9772ff845c1afb6dfc7f69053aae46a88085e29ca79343636785010000006a473044022037e3068dbeed57511406619cd11eee9fac352d9c77c2d6361d68fa8639e8b9ed022045d7378332d154113204a63e571094d017abe78b11b292cbc2720ab470b3e218012103eeacc1c6ed0eae6913f09930530ed172e56f7a7249ff0d500494bbe0ceb8612fffffffff80ac2afbb7ad5df5329cc27842c200fc17135461cc0e4412821d4eafdb056119010000006b483045022100b7b0d592d06eea1016f5cace8532ef6a8491c568f454d9ff4985483e87a4a63f0220600ae4e518457ee753f710c4032c02008a76e2a6da5f0754dd2ce62d158bff4f012103af5554cbe8a3bbc9e4e517a3b9c609cd8bc2fb863abab637ebd69f3a527d2d2fffffffff45bfdb24dfbf5924090b7510d0471460cc2be605ea482e3c8b14449a20f0157d000000006b483045022100971b5731d77ed6cba3b2e979c8a54f8f979f746fdc2fb4ff82188a1ad54f785702204087bcff6e24f59f4ce31492659be07f3d01edc059e794a58fcdcc20db1da1c6012102815aa5b2aac64e957d10983b6bf9e3a041b32495897a53aaa9d8ed6ef4ba5f0affffffffb6632687b33f926fcec0eb2af53317afedfe659bb650578497fe8d60083db35e010000006a473044022006213664bbdf3eb51ff940364ed5dfc5a3383eaf0e02b0e7b4dc8fa3a4658e5f0220715de5cdd27ecf94b7cd372df66ba6c2d901da780f8c86091738042bff291e070121024e56e731bdbd9df9d25e5eb7406d6a570f7ee4d6ce22fe7a121b2118b576c842ffffffff023a858900000000001976a914216c97305749805bbb273151333ccd593e1ff0c588aca80b3000000000001976a9147ea86819c60b6733ccaf6547412396c14bb7969588ac00000000", "vin": [{"sequence": 4294967295, "scriptSig": {"hex": "47304402200a6054b2115c746a95db2b0b9bf3c3b6cf7e08d3b4738a5f32ff03af38d230df022048cefc51b01d5f97d212ac1ef96473d889474acfe890c1845d323639dadd77c9012102dddc383d723d55f96aef37b0b7e1c6c52bb59882094f9250ac2986ba5485d1af", "asm": "304402200a6054b2115c746a95db2b0b9bf3c3b6cf7e08d3b4738a5f32ff03af38d230df022048cefc51b01d5f97d212ac1ef96473d889474acfe890c1845d323639dadd77c9[ALL] 02dddc383d723d55f96aef37b0b7e1c6c52bb59882094f9250ac2986ba5485d1af"}, "vout": 1, "txid": "bb69a20e8f2da9a7814ba0d06745877047971d546f3f8b4ce3ebed553ffa8778"}, {"sequence": 4294967295, "scriptSig": {"hex": "473044022037e3068dbeed57511406619cd11eee9fac352d9c77c2d6361d68fa8639e8b9ed022045d7378332d154113204a63e571094d017abe78b11b292cbc2720ab470b3e218012103eeacc1c6ed0eae6913f09930530ed172e56f7a7249ff0d500494bbe0ceb8612f", "asm": "3044022037e3068dbeed57511406619cd11eee9fac352d9c77c2d6361d68fa8639e8b9ed022045d7378332d154113204a63e571094d017abe78b11b292cbc2720ab470b3e218[ALL] 03eeacc1c6ed0eae6913f09930530ed172e56f7a7249ff0d500494bbe0ceb8612f"}, "vout": 1, "txid": "8567634393a79ce28580a846ae3a05697ffc6dfb1a5c84ff72979a3643832f5e"}, {"sequence": 4294967295, "scriptSig": {"hex": "483045022100b7b0d592d06eea1016f5cace8532ef6a8491c568f454d9ff4985483e87a4a63f0220600ae4e518457ee753f710c4032c02008a76e2a6da5f0754dd2ce62d158bff4f012103af5554cbe8a3bbc9e4e517a3b9c609cd8bc2fb863abab637ebd69f3a527d2d2f", "asm": "3045022100b7b0d592d06eea1016f5cace8532ef6a8491c568f454d9ff4985483e87a4a63f0220600ae4e518457ee753f710c4032c02008a76e2a6da5f0754dd2ce62d158bff4f[ALL] 03af5554cbe8a3bbc9e4e517a3b9c609cd8bc2fb863abab637ebd69f3a527d2d2f"}, "vout": 1, "txid": "196105dbaf4e1d8212440ecc61541317fc00c24278c29c32f55dadb7fb2aac80"}, {"sequence": 4294967295, "scriptSig": {"hex": "483045022100971b5731d77ed6cba3b2e979c8a54f8f979f746fdc2fb4ff82188a1ad54f785702204087bcff6e24f59f4ce31492659be07f3d01edc059e794a58fcdcc20db1da1c6012102815aa5b2aac64e957d10983b6bf9e3a041b32495897a53aaa9d8ed6ef4ba5f0a", "asm": "3045022100971b5731d77ed6cba3b2e979c8a54f8f979f746fdc2fb4ff82188a1ad54f785702204087bcff6e24f59f4ce31492659be07f3d01edc059e794a58fcdcc20db1da1c6[ALL] 02815aa5b2aac64e957d10983b6bf9e3a041b32495897a53aaa9d8ed6ef4ba5f0a"}, "vout": 0, "txid": "7d15f0209a44148b3c2e48ea05e62bcc601447d010750b092459bfdf24dbbf45"}, {"sequence": 4294967295, "scriptSig": {"hex": "473044022006213664bbdf3eb51ff940364ed5dfc5a3383eaf0e02b0e7b4dc8fa3a4658e5f0220715de5cdd27ecf94b7cd372df66ba6c2d901da780f8c86091738042bff291e070121024e56e731bdbd9df9d25e5eb7406d6a570f7ee4d6ce22fe7a121b2118b576c842", "asm": "3044022006213664bbdf3eb51ff940364ed5dfc5a3383eaf0e02b0e7b4dc8fa3a4658e5f0220715de5cdd27ecf94b7cd372df66ba6c2d901da780f8c86091738042bff291e07[ALL] 024e56e731bdbd9df9d25e5eb7406d6a570f7ee4d6ce22fe7a121b2118b576c842"}, "vout": 1, "txid": "5eb33d08608dfe97845750b69b65feedaf1733f52aebc0ce6f923fb3872663b6"}], "txid": "074fa0c9aefe4988244ecc7b43f7115309ca5ef5a2befc6c35c33a5d5edce9bf", "blocktime": 1537874412, "version": 1, "confirmations": 11467, "time": 1537874412, "locktime": 0, "vsize": 815, "size": 815}