{"hash": "07518dd2671208801cc7846843c2b429c57fc680f37e900cae61d6368fb54ecb", "blockhash": "00000000000000000018f53835495a110e01622372bf6ae95dc86f2b0ab887b0", "vout": [{"scriptPubKey": {"reqSigs": 1, "hex": "76a914ec5f48903e0fc68888d46af04f9159e910bee97088ac", "addresses": ["1NYpcgZyTjZJ5sCCeSuie9bNP2oCinf1EK"], "asm": "OP_DUP OP_HASH160 ec5f48903e0fc68888d46af04f9159e910bee970 OP_EQUALVERIFY OP_CHECKSIG", "type": "pubkeyhash"}, "value": 0.00328, "n": 0}, {"scriptPubKey": {"reqSigs": 1, "hex": "76a9148e57696673b7fc6a787d4c68a9b283ccd52b7eb588ac", "addresses": ["1DydfiLRCeNyjFVXaNgxFZeLRbKrXUG7XS"], "asm": "OP_DUP OP_HASH160 8e57696673b7fc6a787d4c68a9b283ccd52b7eb5 OP_EQUALVERIFY OP_CHECKSIG", "type": "pubkeyhash"}, "value": 0.02374701, "n": 1}], "hex": "01000000019a37363dcd13de493bdfe9f869ab96764f38e0fd91d3fcde0d1ab445c439c86e010000006a4730440220714af7c6c72f3bdfd76854c6ce70cc9c6324546eafb70bf298943dc664fc3ece0220083608cdee34098e9c3d8d56002b11221d20b83765ad666ec8c7da278d7b08600121020cb044e71dbf19117b35b5cb3ea5a1d60ccde240af488e9828979573b36ffb3ffeffffff0240010500000000001976a914ec5f48903e0fc68888d46af04f9159e910bee97088ac2d3c2400000000001976a9148e57696673b7fc6a787d4c68a9b283ccd52b7eb588acf3480800", "vin": [{"sequence": 4294967294, "scriptSig": {"hex": "4730440220714af7c6c72f3bdfd76854c6ce70cc9c6324546eafb70bf298943dc664fc3ece0220083608cdee34098e9c3d8d56002b11221d20b83765ad666ec8c7da278d7b08600121020cb044e71dbf19117b35b5cb3ea5a1d60ccde240af488e9828979573b36ffb3f", "asm": "30440220714af7c6c72f3bdfd76854c6ce70cc9c6324546eafb70bf298943dc664fc3ece0220083608cdee34098e9c3d8d56002b11221d20b83765ad666ec8c7da278d7b0860[ALL] 020cb044e71dbf19117b35b5cb3ea5a1d60ccde240af488e9828979573b36ffb3f"}, "vout": 1, "txid": "6ec839c445b41a0ddefcd391fde0384f7696ab69f8e9df3b49de13cd3d36379a"}], "txid": "07518dd2671208801cc7846843c2b429c57fc680f37e900cae61d6368fb54ecb", "blocktime": 1537870928, "version": 1, "confirmations": 11512, "time": 1537870928, "locktime": 542963, "vsize": 225, "size": 225}