{"hash": "0764fbbc55b4b89c9a32d7162efb539f30549a7a6627681c13e22297365e7719", "blockhash": "000000000000000000022b45ed06c6f4ccd3cf7fb5ba4856ebd2e58215665228", "vout": [{"scriptPubKey": {"reqSigs": 1, "hex": "a914eb49b96cc8710b6c46c82e96d1efb14c8aea222887", "addresses": ["3P9735YemD1HwMWEnHtQ53HT1VXgmByQu7"], "asm": "OP_HASH160 eb49b96cc8710b6c46c82e96d1efb14c8aea2228 OP_EQUAL", "type": "scripthash"}, "value": 0.02973612, "n": 0}], "hex": "01000000015acc328ccbfe5e86a864a7cb844d246bb30f20af3111118361d5548c36024fd5310000006b483045022100bcfa085dc8f6fe2611a518677830852c2eb80e96b313efdb374fd463b51ecd37022008920f19527bab8b05c05fd8eddb6373173c6be6b0a41b419b6ff0cd3e2a2e18012102b2d94b9b70d25cfa3b1eee481cad2df777a71eb3cb2bedd472266ac009adaf8dffffffff01ac5f2d000000000017a914eb49b96cc8710b6c46c82e96d1efb14c8aea22288700000000", "vin": [{"sequence": 4294967295, "scriptSig": {"hex": "483045022100bcfa085dc8f6fe2611a518677830852c2eb80e96b313efdb374fd463b51ecd37022008920f19527bab8b05c05fd8eddb6373173c6be6b0a41b419b6ff0cd3e2a2e18012102b2d94b9b70d25cfa3b1eee481cad2df777a71eb3cb2bedd472266ac009adaf8d", "asm": "3045022100bcfa085dc8f6fe2611a518677830852c2eb80e96b313efdb374fd463b51ecd37022008920f19527bab8b05c05fd8eddb6373173c6be6b0a41b419b6ff0cd3e2a2e18[ALL] 02b2d94b9b70d25cfa3b1eee481cad2df777a71eb3cb2bedd472266ac009adaf8d"}, "vout": 49, "txid": "d54f02368c54d56183111131af200fb36b244d84cba764a8865efecb8c32cc5a"}], "txid": "0764fbbc55b4b89c9a32d7162efb539f30549a7a6627681c13e22297365e7719", "blocktime": 1537869901, "version": 1, "confirmations": 11523, "time": 1537869901, "locktime": 0, "vsize": 190, "size": 190}