{"hash": "076650e5e0d2b58ec939b888f95dd418c06e8a4b7248b5e7ff05dd00fbe2a9e0", "blockhash": "0000000000000000001cda96e906b7601b7a6fb1a3b62bca570a9e5d8f4b3de1", "vout": [{"scriptPubKey": {"reqSigs": 1, "hex": "a91489df908f195b09a3eb120d845c82fc5f594416bb87", "addresses": ["3EG2KNUUeb3vmxpQ2PtsKMFrcer4JaroSD"], "asm": "OP_HASH160 89df908f195b09a3eb120d845c82fc5f594416bb OP_EQUAL", "type": "scripthash"}, "value": 0.00359459, "n": 0}, {"scriptPubKey": {"reqSigs": 1, "hex": "a914c174a523b8b658f0e7023d2b79884bee8e1ee4d387", "addresses": ["3KKv5D5NG1tNzVy3KUxE9kCwgHoYX2JhYC"], "asm": "OP_HASH160 c174a523b8b658f0e7023d2b79884bee8e1ee4d3 OP_EQUAL", "type": "scripthash"}, "value": 7.889e-05, "n": 1}], "hex": "010000000113f2378318fbbb05868e9e206e16f911959a4a19af31391c979b49b962348af500000000fc00473044022001078f30ee959bd33e10a4e39009c3b44acb95f22ede2c6ba076e1045df9f38902206d2e924f6601c6f414f0094429fb8193dc8c96bca4fc1472b2abfd746148c0d6014730440220395ddd374b287568a9e89d11b6c4a69f98afa7a0a35160037878e5e938ee5cea02201d084746fac4295b552a7e2ad91fc35baa3eaa090ad58461079c1a7d109ae091014c695221021b3ebff52c0c10cbd7f990812d96cfd418de288291634c4f4e415e387c5a2523210240e62971d6c444181e2dbd373c717117b0ff8e0a156369e68d9133e1596ff18d21029745eebb76e4cbc6b534f9080ca596a09816c56e60f6fcc69b62f23fb0cb979753aeffffffff02237c05000000000017a91489df908f195b09a3eb120d845c82fc5f594416bb87d11e00000000000017a914c174a523b8b658f0e7023d2b79884bee8e1ee4d38700000000", "vin": [{"sequence": 4294967295, "scriptSig": {"hex": "00473044022001078f30ee959bd33e10a4e39009c3b44acb95f22ede2c6ba076e1045df9f38902206d2e924f6601c6f414f0094429fb8193dc8c96bca4fc1472b2abfd746148c0d6014730440220395ddd374b287568a9e89d11b6c4a69f98afa7a0a35160037878e5e938ee5cea02201d084746fac4295b552a7e2ad91fc35baa3eaa090ad58461079c1a7d109ae091014c695221021b3ebff52c0c10cbd7f990812d96cfd418de288291634c4f4e415e387c5a2523210240e62971d6c444181e2dbd373c717117b0ff8e0a156369e68d9133e1596ff18d21029745eebb76e4cbc6b534f9080ca596a09816c56e60f6fcc69b62f23fb0cb979753ae", "asm": "0 3044022001078f30ee959bd33e10a4e39009c3b44acb95f22ede2c6ba076e1045df9f38902206d2e924f6601c6f414f0094429fb8193dc8c96bca4fc1472b2abfd746148c0d6[ALL] 30440220395ddd374b287568a9e89d11b6c4a69f98afa7a0a35160037878e5e938ee5cea02201d084746fac4295b552a7e2ad91fc35baa3eaa090ad58461079c1a7d109ae091[ALL] 5221021b3ebff52c0c10cbd7f990812d96cfd418de288291634c4f4e415e387c5a2523210240e62971d6c444181e2dbd373c717117b0ff8e0a156369e68d9133e1596ff18d21029745eebb76e4cbc6b534f9080ca596a09816c56e60f6fcc69b62f23fb0cb979753ae"}, "vout": 0, "txid": "f58a3462b9499b971c3931af194a9a9511f9166e209e8e8605bbfb188337f213"}], "txid": "076650e5e0d2b58ec939b888f95dd418c06e8a4b7248b5e7ff05dd00fbe2a9e0", "blocktime": 1537873282, "version": 1, "confirmations": 11484, "time": 1537873282, "locktime": 0, "vsize": 367, "size": 367}