{"hash": "2b11a9bcbf65542a5f1b7cc42be9c57c1eda4c0046b0eb14673a1646cf162e2c", "blockhash": "00000000000000000004ffacab907a6b429b9a5745fa0b75af4234bf69dd7176", "vout": [{"scriptPubKey": {"reqSigs": 1, "hex": "a9146ecc29806c22ac14ddfdb5d9bf8e7dd14ee9c7cb87", "addresses": ["3Bnrq5THH1UDjpr32kwBrSQXhu1AFFMEff"], "asm": "OP_HASH160 6ecc29806c22ac14ddfdb5d9bf8e7dd14ee9c7cb OP_EQUAL", "type": "scripthash"}, "value": 0.010022, "n": 0}, {"scriptPubKey": {"reqSigs": 1, "hex": "a9144d293bcdc8b44f39bc0c92eb41ca5b5ef1480d4687", "addresses": ["38j1MGxv8M2EzE5QVWzavCTicpwByECqCv"], "asm": "OP_HASH160 4d293bcdc8b44f39bc0c92eb41ca5b5ef1480d46 OP_EQUAL", "type": "scripthash"}, "value": 8.77060467, "n": 1}], "hex": "02000000000101792ab22a8ea3aa25176e34dbf92894f7f5e53956beae38de8c40f949746a45b101000000171600143ff816c3a02e013cd7ea4b2c204674768da8a76dffffffff02d84a0f000000000017a9146ecc29806c22ac14ddfdb5d9bf8e7dd14ee9c7cb8773e146340000000017a9144d293bcdc8b44f39bc0c92eb41ca5b5ef1480d46870247304402202af183e7eb90da0a7be67b81c0723c98e206fa819c6ecd6fafc69b711428620002205a81eac6a9ff7bfbcb0371420556171c1bf69951c7ac9c56c777dc1426f7635b01210306f6e5c3dfeb94059c2c436c189768eff8f584c499fad5bb8e2f7ab65449bdeb00000000", "vin": [{"txinwitness": ["304402202af183e7eb90da0a7be67b81c0723c98e206fa819c6ecd6fafc69b711428620002205a81eac6a9ff7bfbcb0371420556171c1bf69951c7ac9c56c777dc1426f7635b01", "0306f6e5c3dfeb94059c2c436c189768eff8f584c499fad5bb8e2f7ab65449bdeb"], "sequence": 4294967295, "scriptSig": {"hex": "1600143ff816c3a02e013cd7ea4b2c204674768da8a76d", "asm": "00143ff816c3a02e013cd7ea4b2c204674768da8a76d"}, "vout": 1, "txid": "b1456a7449f9408cde38aebe5639e5f5f79428f9db346e1725aaa38e2ab22a79"}], "txid": "076bcd6b5231ee5bf83a9124a26c65985e584201b5fe66f2095d944e3e9b7522", "blocktime": 1537875543, "version": 2, "confirmations": 11464, "time": 1537875543, "locktime": 0, "vsize": 166, "size": 247}