{"hash": "076b251b64b7c8aae040916dfe0bb983deb32ce29d84846ee00ce42b5b1ad5b8", "blockhash": "0000000000000000001f0ddff1eddb255c1121bcd4da4f1bc9a0da00cae72433", "vout": [{"scriptPubKey": {"reqSigs": 1, "hex": "a914119945c8423b283689cff56fe47cd6902a18114987", "addresses": ["33J52NU13mNADovQpw6kLnvqeBwNpLCejm"], "asm": "OP_HASH160 119945c8423b283689cff56fe47cd6902a181149 OP_EQUAL", "type": "scripthash"}, "value": 0.00190846, "n": 0}], "hex": "010000000190b3192188f877476175aa7f5225e761c8188f2d71b6df7613af4a3541ba990b1e0000006b483045022100e6c0dd6ca0be66c9b972e101fec7d5070da07bd9ac8af20d76bc4b2cbeacb6290220194b18d0ec049015f3daa935dadb30d604c8be62f278af38ca9b66c5b1e096da0121034cce9afca0fa5e490a04f777a40658c003489122f81c8017fae93734e8c73079fdffffff017ee902000000000017a914119945c8423b283689cff56fe47cd6902a181149870f490800", "vin": [{"sequence": 4294967293, "scriptSig": {"hex": "483045022100e6c0dd6ca0be66c9b972e101fec7d5070da07bd9ac8af20d76bc4b2cbeacb6290220194b18d0ec049015f3daa935dadb30d604c8be62f278af38ca9b66c5b1e096da0121034cce9afca0fa5e490a04f777a40658c003489122f81c8017fae93734e8c73079", "asm": "3045022100e6c0dd6ca0be66c9b972e101fec7d5070da07bd9ac8af20d76bc4b2cbeacb6290220194b18d0ec049015f3daa935dadb30d604c8be62f278af38ca9b66c5b1e096da[ALL] 034cce9afca0fa5e490a04f777a40658c003489122f81c8017fae93734e8c73079"}, "vout": 30, "txid": "0b99ba41354aaf1376dfb6712d8f18c861e725527faa75614777f8882119b390"}], "txid": "076b251b64b7c8aae040916dfe0bb983deb32ce29d84846ee00ce42b5b1ad5b8", "blocktime": 1537872018, "version": 1, "confirmations": 11489, "time": 1537872018, "locktime": 542991, "vsize": 190, "size": 190}