{"hash": "07721560a4343fb7dec29701be360b16751faf7386db98b1d1e76fabbc48366d", "blockhash": "0000000000000000001f0ddff1eddb255c1121bcd4da4f1bc9a0da00cae72433", "vout": [{"scriptPubKey": {"type": "nulldata", "hex": "6a146f6d6e69000000000000001f0000000258380180", "asm": "OP_RETURN 6f6d6e69000000000000001f0000000258380180"}, "value": 0.0, "n": 0}, {"scriptPubKey": {"reqSigs": 1, "hex": "76a914a25dec4d0011064ef106a983c39c7a540699f22088ac", "addresses": ["1FoWyxwPXuj4C6abqwhjDWdz6D4PZgYRjA"], "asm": "OP_DUP OP_HASH160 a25dec4d0011064ef106a983c39c7a540699f220 OP_EQUALVERIFY OP_CHECKSIG", "type": "pubkeyhash"}, "value": 0.01995188, "n": 1}, {"scriptPubKey": {"reqSigs": 1, "hex": "76a914742b257de365f878215ffb0ddec98d2c371d76e788ac", "addresses": ["1BbF57yxfK7duzJxMCJ93W222Vrs7kQ8MZ"], "asm": "OP_DUP OP_HASH160 742b257de365f878215ffb0ddec98d2c371d76e7 OP_EQUALVERIFY OP_CHECKSIG", "type": "pubkeyhash"}, "value": 5.46e-06, "n": 2}], "hex": "0100000001a44813c76173a4fe9689194c29809e35be05f1741d9b5e1e9e8bd44070ac1fea710000006a4730440220290446d23e5e8ba312c06030315eb0aa5c8fa259e534f5c7184ec848ceef5c5602204d289f24acc0ddf5d1b3a2cb10765575556faf29b3beaef98f3fa9c2570ae9e5012103da5bac7b36d5aa38f531c6b9601e21bb598a4b6716ebed38b009a55dabde9440feffffff030000000000000000166a146f6d6e69000000000000001f0000000258380180b4711e00000000001976a914a25dec4d0011064ef106a983c39c7a540699f22088ac22020000000000001976a914742b257de365f878215ffb0ddec98d2c371d76e788ac10490800", "vin": [{"sequence": 4294967294, "scriptSig": {"hex": "4730440220290446d23e5e8ba312c06030315eb0aa5c8fa259e534f5c7184ec848ceef5c5602204d289f24acc0ddf5d1b3a2cb10765575556faf29b3beaef98f3fa9c2570ae9e5012103da5bac7b36d5aa38f531c6b9601e21bb598a4b6716ebed38b009a55dabde9440", "asm": "30440220290446d23e5e8ba312c06030315eb0aa5c8fa259e534f5c7184ec848ceef5c5602204d289f24acc0ddf5d1b3a2cb10765575556faf29b3beaef98f3fa9c2570ae9e5[ALL] 03da5bac7b36d5aa38f531c6b9601e21bb598a4b6716ebed38b009a55dabde9440"}, "vout": 113, "txid": "ea1fac7040d48b9e1e5e9b1d74f105be359e80294c198996fea47361c71348a4"}], "txid": "07721560a4343fb7dec29701be360b16751faf7386db98b1d1e76fabbc48366d", "blocktime": 1537872018, "version": 1, "confirmations": 11489, "time": 1537872018, "locktime": 542992, "vsize": 256, "size": 256}