{"hash": "0774a7895ca12adda6a58564b3c583ab9732201f2487c8cdaf72b91473467f68", "blockhash": "0000000000000000000baef3f32e3676a92c3b2e5da21b426e4f302fc371ce76", "vout": [{"scriptPubKey": {"reqSigs": 1, "hex": "76a91438f4d56c9d8d1449a88c31d31ab3a016ae1aed2f88ac", "addresses": ["16CA95xLcNhLCBPWJApMv3K6j2oPw3GWva"], "asm": "OP_DUP OP_HASH160 38f4d56c9d8d1449a88c31d31ab3a016ae1aed2f OP_EQUALVERIFY OP_CHECKSIG", "type": "pubkeyhash"}, "value": 0.044244, "n": 0}, {"scriptPubKey": {"reqSigs": 1, "hex": "76a91486cce8b3ccb00ede83c227c3a49425b1871431fd88ac", "addresses": ["1DHm22qnWUx2zEHMH7GEnEQ6fpgWUBPmY1"], "asm": "OP_DUP OP_HASH160 86cce8b3ccb00ede83c227c3a49425b1871431fd OP_EQUALVERIFY OP_CHECKSIG", "type": "pubkeyhash"}, "value": 1.0, "n": 1}], "hex": "01000000011e33617d9af4354ac9db86d3a93c903fde154019fa9c8d29424b32f91cd01477000000006b483045022100d28cf36bc996935df222b394a9f8367e8ab4269c2185db100374e3ffd4ffc5e3022072651d6cfb6e7b69ef4eead56254b2a12d94513e057f4fa6e55e73cd3efafcc101210274a741a8b1803dc579244f2590d01c0cea1ff90eceb23f9fae9ee0f69925e31bfeffffff02d0824300000000001976a91438f4d56c9d8d1449a88c31d31ab3a016ae1aed2f88ac00e1f505000000001976a91486cce8b3ccb00ede83c227c3a49425b1871431fd88ac00000000", "vin": [{"sequence": 4294967294, "scriptSig": {"hex": "483045022100d28cf36bc996935df222b394a9f8367e8ab4269c2185db100374e3ffd4ffc5e3022072651d6cfb6e7b69ef4eead56254b2a12d94513e057f4fa6e55e73cd3efafcc101210274a741a8b1803dc579244f2590d01c0cea1ff90eceb23f9fae9ee0f69925e31b", "asm": "3045022100d28cf36bc996935df222b394a9f8367e8ab4269c2185db100374e3ffd4ffc5e3022072651d6cfb6e7b69ef4eead56254b2a12d94513e057f4fa6e55e73cd3efafcc1[ALL] 0274a741a8b1803dc579244f2590d01c0cea1ff90eceb23f9fae9ee0f69925e31b"}, "vout": 0, "txid": "7714d01cf9324b42298d9cfa194015de3f903ca9d386dbc94a35f49a7d61331e"}], "txid": "0774a7895ca12adda6a58564b3c583ab9732201f2487c8cdaf72b91473467f68", "blocktime": 1537876114, "version": 1, "confirmations": 11459, "time": 1537876114, "locktime": 0, "vsize": 226, "size": 226}