{"hash": "07778b1baa5313a4cd69c166199a9db5c41c2df99a183ad0220185009e002c44", "blockhash": "0000000000000000000baef3f32e3676a92c3b2e5da21b426e4f302fc371ce76", "vout": [{"scriptPubKey": {"reqSigs": 1, "hex": "76a91485b961424de179ea581389feb2d71bc92e8de28488ac", "addresses": ["1DC4wwHZ9ZhVagbayMgr9o5vF5Gx1Em795"], "asm": "OP_DUP OP_HASH160 85b961424de179ea581389feb2d71bc92e8de284 OP_EQUALVERIFY OP_CHECKSIG", "type": "pubkeyhash"}, "value": 3.016e-05, "n": 0}, {"scriptPubKey": {"reqSigs": 1, "hex": "76a9143a86bec71f4d2a0cd915bcb2e18cefcb253cbe4488ac", "addresses": ["16LTcPYDMoZXEvYiaQw76xwR4UjQp7VntX"], "asm": "OP_DUP OP_HASH160 3a86bec71f4d2a0cd915bcb2e18cefcb253cbe44 OP_EQUALVERIFY OP_CHECKSIG", "type": "pubkeyhash"}, "value": 0.0008, "n": 1}], "hex": "0100000001ffddc8c7a16ad3d47322b5aa0e8d014bdddd7fa04a2f60953fc3b49f677b7122000000006a473044022030f9d9a02cd72c654f87e1dd11f217e961c1ccfedd9c6e03549d2985e8b278fb02206fef4c4cc7dca57e931b0d51f9b4ef92e3500037a23e4ba30a5982c2aed5acb10121020f6014f98ecdf13a0f81bf95636da11b825e42e7aec697f34f93abae43fbcb78fdffffff02c80b0000000000001976a91485b961424de179ea581389feb2d71bc92e8de28488ac80380100000000001976a9143a86bec71f4d2a0cd915bcb2e18cefcb253cbe4488ac16490800", "vin": [{"sequence": 4294967293, "scriptSig": {"hex": "473044022030f9d9a02cd72c654f87e1dd11f217e961c1ccfedd9c6e03549d2985e8b278fb02206fef4c4cc7dca57e931b0d51f9b4ef92e3500037a23e4ba30a5982c2aed5acb10121020f6014f98ecdf13a0f81bf95636da11b825e42e7aec697f34f93abae43fbcb78", "asm": "3044022030f9d9a02cd72c654f87e1dd11f217e961c1ccfedd9c6e03549d2985e8b278fb02206fef4c4cc7dca57e931b0d51f9b4ef92e3500037a23e4ba30a5982c2aed5acb1[ALL] 020f6014f98ecdf13a0f81bf95636da11b825e42e7aec697f34f93abae43fbcb78"}, "vout": 0, "txid": "22717b679fb4c33f95602f4aa07fdddd4b018d0eaab52273d4d36aa1c7c8ddff"}], "txid": "07778b1baa5313a4cd69c166199a9db5c41c2df99a183ad0220185009e002c44", "blocktime": 1537876114, "version": 1, "confirmations": 11461, "time": 1537876114, "locktime": 542998, "vsize": 225, "size": 225}