{"hash": "0778fe82aa4742ffafb19bd12e78f195417a9446713c0a531f1b38075030217d", "blockhash": "00000000000000000024a2167bbff67b0be802c0b01cdd79e6331c2be6459f87", "vout": [{"scriptPubKey": {"reqSigs": 1, "hex": "76a914311afddd7a1538b7d0bb77aa11b4adc1f6a7cb3988ac", "addresses": ["15UeSpATQKJzTdokw9u1iL4uuoi4yUB8GZ"], "asm": "OP_DUP OP_HASH160 311afddd7a1538b7d0bb77aa11b4adc1f6a7cb39 OP_EQUALVERIFY OP_CHECKSIG", "type": "pubkeyhash"}, "value": 0.00400361, "n": 0}, {"scriptPubKey": {"reqSigs": 1, "hex": "76a914097c38ffe72a33e8a4efda859c54a440f6f3497888ac", "addresses": ["1s9tsLRF28QeWYv3HfK3GsCo8H9Rvbtg7"], "asm": "OP_DUP OP_HASH160 097c38ffe72a33e8a4efda859c54a440f6f34978 OP_EQUALVERIFY OP_CHECKSIG", "type": "pubkeyhash"}, "value": 0.01363744, "n": 1}], "hex": "0200000001907b161fd5395f04eab95a6b51e1793e3a580b2efdb4a2a8aaa1b7a6e096c934110000006b48304502210088cd317bddfbcf779d1be1a5eb707cebc171b32c9fe46f17bb9246e267f75e3402202108116b79c16b3c3cc52ec454cd8d4b9d68bcc9a02484b59fb1106b3966a915012102cefe5c6497e704de217ff948be1074ba01869575a194fd7d0e94e895d6b4a493ffffffff02e91b0600000000001976a914311afddd7a1538b7d0bb77aa11b4adc1f6a7cb3988ac20cf1400000000001976a914097c38ffe72a33e8a4efda859c54a440f6f3497888ac00000000", "vin": [{"sequence": 4294967295, "scriptSig": {"hex": "48304502210088cd317bddfbcf779d1be1a5eb707cebc171b32c9fe46f17bb9246e267f75e3402202108116b79c16b3c3cc52ec454cd8d4b9d68bcc9a02484b59fb1106b3966a915012102cefe5c6497e704de217ff948be1074ba01869575a194fd7d0e94e895d6b4a493", "asm": "304502210088cd317bddfbcf779d1be1a5eb707cebc171b32c9fe46f17bb9246e267f75e3402202108116b79c16b3c3cc52ec454cd8d4b9d68bcc9a02484b59fb1106b3966a915[ALL] 02cefe5c6497e704de217ff948be1074ba01869575a194fd7d0e94e895d6b4a493"}, "vout": 17, "txid": "34c996e0a6b7a1aaa8a2b4fd2e0b583a3e79e1516b5ab9ea045f39d51f167b90"}], "txid": "0778fe82aa4742ffafb19bd12e78f195417a9446713c0a531f1b38075030217d", "blocktime": 1537870564, "version": 2, "confirmations": 11515, "time": 1537870564, "locktime": 0, "vsize": 226, "size": 226}