{"hash": "0778813f475b1bc967d74f6794449a41872991ca453633ca54e6093779185fcc", "blockhash": "0000000000000000000e13cef7c366c0283d82e591d1acd082e914b08063cdf1", "vout": [{"scriptPubKey": {"reqSigs": 1, "hex": "a9145d0154cce4ce64a555feb8d5d5725b4dc4eb355e87", "addresses": ["3AAnMt3nKdg31vNRoT2MdtWmQNTS7yFn5X"], "asm": "OP_HASH160 5d0154cce4ce64a555feb8d5d5725b4dc4eb355e OP_EQUAL", "type": "scripthash"}, "value": 0.05756789, "n": 0}, {"scriptPubKey": {"reqSigs": 1, "hex": "76a9141693f6ffb8eef56ffda2c0e181d52b3c1fcb045d88ac", "addresses": ["134P7zrmXKknZMyJPhBPcxRwhWu5Lh3hgr"], "asm": "OP_DUP OP_HASH160 1693f6ffb8eef56ffda2c0e181d52b3c1fcb045d OP_EQUALVERIFY OP_CHECKSIG", "type": "pubkeyhash"}, "value": 0.00346353, "n": 1}], "hex": "020000000359f75276eae7cefe6588b31aa1f14c93c313602d16df6c3525b99164272f3466000000006a4730440220042c6d14a35a1e399d9bd8942bbdbdfe85390c1175a3c29aeb4728351cca812c022076ef91a139446ac5a8d51f1c1e5a2e514fd6b1325ed498821152b05af526abce0121033d011d7cb4c0c11198a636fd4eb7c917c80bdd4a998443e2cae3b69925510b1dffffffff529b08424a3ac8ba0e9bbf1698a74f3fa10f1cd946d87b13050f65ff19b83030000000006b483045022100b7d3d14d8609557c47a3020c7c8c92edaa900a53ad17514bba69df758b73861f02206092766f7aab94dd175ce6378426179e3327209dc3e49c14f7928e67b768329a0121033d011d7cb4c0c11198a636fd4eb7c917c80bdd4a998443e2cae3b69925510b1dffffffff15f369da6b5999e981d82955aa1c6f155a90f60554a71324a29ceacfb65e1b58010000006a473044022073d4f731046747ce7d3e68ff423142407f6216dc179afefd78d0bf63e68204d502204d75e3f795e797be4087615cb2527dba5c7e838de94d490f8600db835290fde20121033d011d7cb4c0c11198a636fd4eb7c917c80bdd4a998443e2cae3b69925510b1dffffffff0275d757000000000017a9145d0154cce4ce64a555feb8d5d5725b4dc4eb355e87f1480500000000001976a9141693f6ffb8eef56ffda2c0e181d52b3c1fcb045d88ac00000000", "vin": [{"sequence": 4294967295, "scriptSig": {"hex": "4730440220042c6d14a35a1e399d9bd8942bbdbdfe85390c1175a3c29aeb4728351cca812c022076ef91a139446ac5a8d51f1c1e5a2e514fd6b1325ed498821152b05af526abce0121033d011d7cb4c0c11198a636fd4eb7c917c80bdd4a998443e2cae3b69925510b1d", "asm": "30440220042c6d14a35a1e399d9bd8942bbdbdfe85390c1175a3c29aeb4728351cca812c022076ef91a139446ac5a8d51f1c1e5a2e514fd6b1325ed498821152b05af526abce[ALL] 033d011d7cb4c0c11198a636fd4eb7c917c80bdd4a998443e2cae3b69925510b1d"}, "vout": 0, "txid": "66342f276491b925356cdf162d6013c3934cf1a11ab38865fecee7ea7652f759"}, {"sequence": 4294967295, "scriptSig": {"hex": "483045022100b7d3d14d8609557c47a3020c7c8c92edaa900a53ad17514bba69df758b73861f02206092766f7aab94dd175ce6378426179e3327209dc3e49c14f7928e67b768329a0121033d011d7cb4c0c11198a636fd4eb7c917c80bdd4a998443e2cae3b69925510b1d", "asm": "3045022100b7d3d14d8609557c47a3020c7c8c92edaa900a53ad17514bba69df758b73861f02206092766f7aab94dd175ce6378426179e3327209dc3e49c14f7928e67b768329a[ALL] 033d011d7cb4c0c11198a636fd4eb7c917c80bdd4a998443e2cae3b69925510b1d"}, "vout": 0, "txid": "3030b819ff650f05137bd846d91c0fa13f4fa79816bf9b0ebac83a4a42089b52"}, {"sequence": 4294967295, "scriptSig": {"hex": "473044022073d4f731046747ce7d3e68ff423142407f6216dc179afefd78d0bf63e68204d502204d75e3f795e797be4087615cb2527dba5c7e838de94d490f8600db835290fde20121033d011d7cb4c0c11198a636fd4eb7c917c80bdd4a998443e2cae3b69925510b1d", "asm": "3044022073d4f731046747ce7d3e68ff423142407f6216dc179afefd78d0bf63e68204d502204d75e3f795e797be4087615cb2527dba5c7e838de94d490f8600db835290fde2[ALL] 033d011d7cb4c0c11198a636fd4eb7c917c80bdd4a998443e2cae3b69925510b1d"}, "vout": 1, "txid": "581b5eb6cfea9ca22413a75405f6905a156f1caa5529d881e999596bda69f315"}], "txid": "0778813f475b1bc967d74f6794449a41872991ca453633ca54e6093779185fcc", "blocktime": 1537871767, "version": 2, "confirmations": 11491, "time": 1537871767, "locktime": 0, "vsize": 518, "size": 518}