{"hash": "077d3f0e90bf73320aee0c0462373836ee655b8fa5b4c866139563e2bdd08df0", "blockhash": "00000000000000000018f53835495a110e01622372bf6ae95dc86f2b0ab887b0", "vout": [{"scriptPubKey": {"reqSigs": 1, "hex": "76a914d9a47589a46cc899b848afee907eb2488bae9bc888ac", "addresses": ["1LqneSz1yuB69x96z28yTUeUuXf2qU9jQ8"], "asm": "OP_DUP OP_HASH160 d9a47589a46cc899b848afee907eb2488bae9bc8 OP_EQUALVERIFY OP_CHECKSIG", "type": "pubkeyhash"}, "value": 0.0016, "n": 0}, {"scriptPubKey": {"reqSigs": 1, "hex": "76a91403bd0a522a4f77b6ce97d6edac0ab033a0852fed88ac", "addresses": ["1LmVKxoFWVy9AzdiT84WDWaRM5mXJGbPD"], "asm": "OP_DUP OP_HASH160 03bd0a522a4f77b6ce97d6edac0ab033a0852fed OP_EQUALVERIFY OP_CHECKSIG", "type": "pubkeyhash"}, "value": 0.04517632, "n": 1}], "hex": "0100000001d4114a964d09c7ab312a10e31d2dbe0c723b0d8a55fc49f498fdd6fe72bdd1ce000000006b483045022100b63c0405827e833354e963200c6349e8450c7d7237406db465bfdac17b76ddcb022073c2168c35ffca411dc486ed96a669c25b24f0906a81650f235b1308074c1a2c01210366f1423ae189104b7e9b7c334426d19688c7c02c3348e4cfeb3a1904b9dff10bffffffff0200710200000000001976a914d9a47589a46cc899b848afee907eb2488bae9bc888ac00ef4400000000001976a91403bd0a522a4f77b6ce97d6edac0ab033a0852fed88ac00000000", "vin": [{"sequence": 4294967295, "scriptSig": {"hex": "483045022100b63c0405827e833354e963200c6349e8450c7d7237406db465bfdac17b76ddcb022073c2168c35ffca411dc486ed96a669c25b24f0906a81650f235b1308074c1a2c01210366f1423ae189104b7e9b7c334426d19688c7c02c3348e4cfeb3a1904b9dff10b", "asm": "3045022100b63c0405827e833354e963200c6349e8450c7d7237406db465bfdac17b76ddcb022073c2168c35ffca411dc486ed96a669c25b24f0906a81650f235b1308074c1a2c[ALL] 0366f1423ae189104b7e9b7c334426d19688c7c02c3348e4cfeb3a1904b9dff10b"}, "vout": 0, "txid": "ced1bd72fed6fd98f449fc558a0d3b720cbe2d1de3102a31abc7094d964a11d4"}], "txid": "077d3f0e90bf73320aee0c0462373836ee655b8fa5b4c866139563e2bdd08df0", "blocktime": 1537870928, "version": 1, "confirmations": 11512, "time": 1537870928, "locktime": 0, "vsize": 226, "size": 226}