{"hash": "077e8505391d86459822e70161dfc80f42ba1c4ecda7b7a5db4baee6202ba8ce", "blockhash": "0000000000000000001f76057863aec43deb6fa401d9628bb513d65a8098bfab", "vout": [{"scriptPubKey": {"reqSigs": 1, "hex": "a914fd069a4807e023cfe1a74702ae22f93022dc6cd187", "addresses": ["3QktnqYgXvaCLFEZWfducifYcR7gg85Xkm"], "asm": "OP_HASH160 fd069a4807e023cfe1a74702ae22f93022dc6cd1 OP_EQUAL", "type": "scripthash"}, "value": 0.03656362, "n": 0}, {"scriptPubKey": {"reqSigs": 1, "hex": "76a9143fbe55ad608b7f31a227f23eca9874de38e17a1688ac", "addresses": ["16p3amgyPvmDXwQXVoZEj2h9tga3SrRyMg"], "asm": "OP_DUP OP_HASH160 3fbe55ad608b7f31a227f23eca9874de38e17a16 OP_EQUALVERIFY OP_CHECKSIG", "type": "pubkeyhash"}, "value": 0.0574792, "n": 1}], "hex": "010000000156de2a62560c16e002ca0d6a24e856879b56ecc3280d385eab164ce799f1fe8d010000006a473044022015c6433bf514caabb639b4405143b086ae8f67d9cb586b4d1809b744ab55e349022042b7a3142d6bfc65ca250ab38f365d6bb284032feae35f2593746bf329588b6f01210202e74b6357c0e0c833e619073d749b1869441fe51fc9e57a9a9f1d359d4962d2ffffffff02aaca37000000000017a914fd069a4807e023cfe1a74702ae22f93022dc6cd187d0b45700000000001976a9143fbe55ad608b7f31a227f23eca9874de38e17a1688ac00000000", "vin": [{"sequence": 4294967295, "scriptSig": {"hex": "473044022015c6433bf514caabb639b4405143b086ae8f67d9cb586b4d1809b744ab55e349022042b7a3142d6bfc65ca250ab38f365d6bb284032feae35f2593746bf329588b6f01210202e74b6357c0e0c833e619073d749b1869441fe51fc9e57a9a9f1d359d4962d2", "asm": "3044022015c6433bf514caabb639b4405143b086ae8f67d9cb586b4d1809b744ab55e349022042b7a3142d6bfc65ca250ab38f365d6bb284032feae35f2593746bf329588b6f[ALL] 0202e74b6357c0e0c833e619073d749b1869441fe51fc9e57a9a9f1d359d4962d2"}, "vout": 1, "txid": "8dfef199e74c16ab5e380d28c3ec569b8756e8246a0dca02e0160c56622ade56"}], "txid": "077e8505391d86459822e70161dfc80f42ba1c4ecda7b7a5db4baee6202ba8ce", "blocktime": 1537873891, "version": 1, "confirmations": 11478, "time": 1537873891, "locktime": 0, "vsize": 223, "size": 223}