{"hash": "0784a8b71d9aa531919fad1fba954c7dc876025b404801022d590ac5e619a32c", "blockhash": "0000000000000000000e13cef7c366c0283d82e591d1acd082e914b08063cdf1", "vout": [{"scriptPubKey": {"reqSigs": 1, "hex": "a914a0984dde491cb60fe06f296622d2f73222d8b06f87", "addresses": ["3GLAVWtN1vjkBGeTAMen5NHkGqCzkY74SK"], "asm": "OP_HASH160 a0984dde491cb60fe06f296622d2f73222d8b06f OP_EQUAL", "type": "scripthash"}, "value": 0.00669025, "n": 0}, {"scriptPubKey": {"reqSigs": 1, "hex": "76a9145e34bd824d21464416f4d0509aef4deb5f108a2a88ac", "addresses": ["19b7hVS7x6Z3mefMt1wcoB9VPKThR9usHd"], "asm": "OP_DUP OP_HASH160 5e34bd824d21464416f4d0509aef4deb5f108a2a OP_EQUALVERIFY OP_CHECKSIG", "type": "pubkeyhash"}, "value": 1.76462734, "n": 1}], "hex": "0100000001e1fcdc892ddd7c58f1b244fbc0abdfd8de673c10ccbca3e076a39a730fa38618010000006b4830450221009620976e0e8c32dedd117e62b75e62ea6672be4ec0d3c34bc81fd6b56c043c4602203cbfd2c06200a822c10db7178ab6b6acbd96424cbd4407d1e95e3d9c6a1a55d40121039a212d39249cc06455836dac9c9be1e4f9f642fc6124a4e713b474760408af19ffffffff0261350a000000000017a914a0984dde491cb60fe06f296622d2f73222d8b06f878e9b840a000000001976a9145e34bd824d21464416f4d0509aef4deb5f108a2a88ac00000000", "vin": [{"sequence": 4294967295, "scriptSig": {"hex": "4830450221009620976e0e8c32dedd117e62b75e62ea6672be4ec0d3c34bc81fd6b56c043c4602203cbfd2c06200a822c10db7178ab6b6acbd96424cbd4407d1e95e3d9c6a1a55d40121039a212d39249cc06455836dac9c9be1e4f9f642fc6124a4e713b474760408af19", "asm": "30450221009620976e0e8c32dedd117e62b75e62ea6672be4ec0d3c34bc81fd6b56c043c4602203cbfd2c06200a822c10db7178ab6b6acbd96424cbd4407d1e95e3d9c6a1a55d4[ALL] 039a212d39249cc06455836dac9c9be1e4f9f642fc6124a4e713b474760408af19"}, "vout": 1, "txid": "1886a30f739aa376e0a3bccc103c67ded8dfabc0fb44b2f1587cdd2d89dcfce1"}], "txid": "0784a8b71d9aa531919fad1fba954c7dc876025b404801022d590ac5e619a32c", "blocktime": 1537871767, "version": 1, "confirmations": 11495, "time": 1537871767, "locktime": 0, "vsize": 224, "size": 224}