{"hash": "078a84b0a5da1c1e284bfaf3e0581cb63b3e69bc88bf91fef03899db119db5ae", "blockhash": "00000000000000000024a2167bbff67b0be802c0b01cdd79e6331c2be6459f87", "vout": [{"scriptPubKey": {"type": "nulldata", "hex": "6a4c500000777c0001b5e35f1de28bd9246c8a4ea5bcbefa6b8351586b4e86aeaeacb577c031fc188e23a49bea01f4b5f926be4d26c66a5baa0a0d0614ac97a78d2db7bc9a9526289ac0f6612cd74e33776ee4", "asm": "OP_RETURN 0000777c0001b5e35f1de28bd9246c8a4ea5bcbefa6b8351586b4e86aeaeacb577c031fc188e23a49bea01f4b5f926be4d26c66a5baa0a0d0614ac97a78d2db7bc9a9526289ac0f6612cd74e33776ee4"}, "value": 0.0, "n": 0}, {"scriptPubKey": {"reqSigs": 1, "hex": "76a9149e0f0fa9b7701dec0b55ce8d7b890c57512ae55888ac", "addresses": ["1FQjonA8YMAe1JvFgsS7miWPU6i445NWJG"], "asm": "OP_DUP OP_HASH160 9e0f0fa9b7701dec0b55ce8d7b890c57512ae558 OP_EQUALVERIFY OP_CHECKSIG", "type": "pubkeyhash"}, "value": 0.0148404, "n": 1}], "hex": "01000000011d3bce922b01481081947d4382eacfe73e952059a468c66a4db206c7e6d99f57000000006b483045022100ad4a203972aeca2ab33fff85f288ff44ca1199e430549da57a564c81bf4e21e002205fe6c555c6ae13788338140be7e5a4ff374e1fae8e97a71e8291499d27efff13012102a7d51bf9d026ad819b0ea7d63e0f95994c1bdc29cbecacd3bfab196baffdbacbffffffff020000000000000000536a4c500000777c0001b5e35f1de28bd9246c8a4ea5bcbefa6b8351586b4e86aeaeacb577c031fc188e23a49bea01f4b5f926be4d26c66a5baa0a0d0614ac97a78d2db7bc9a9526289ac0f6612cd74e33776ee408a51600000000001976a9149e0f0fa9b7701dec0b55ce8d7b890c57512ae55888ac00000000", "vin": [{"sequence": 4294967295, "scriptSig": {"hex": "483045022100ad4a203972aeca2ab33fff85f288ff44ca1199e430549da57a564c81bf4e21e002205fe6c555c6ae13788338140be7e5a4ff374e1fae8e97a71e8291499d27efff13012102a7d51bf9d026ad819b0ea7d63e0f95994c1bdc29cbecacd3bfab196baffdbacb", "asm": "3045022100ad4a203972aeca2ab33fff85f288ff44ca1199e430549da57a564c81bf4e21e002205fe6c555c6ae13788338140be7e5a4ff374e1fae8e97a71e8291499d27efff13[ALL] 02a7d51bf9d026ad819b0ea7d63e0f95994c1bdc29cbecacd3bfab196baffdbacb"}, "vout": 0, "txid": "579fd9e6c706b24d6ac668a45920953ee7cfea82437d94811048012b92ce3b1d"}], "txid": "078a84b0a5da1c1e284bfaf3e0581cb63b3e69bc88bf91fef03899db119db5ae", "blocktime": 1537870564, "version": 1, "confirmations": 11515, "time": 1537870564, "locktime": 0, "vsize": 284, "size": 284}