{"hash": "6b73492d93e7e51107956734e7e7671004abc6bd526a89d20887a22392b17227", "blockhash": "0000000000000000000e13cef7c366c0283d82e591d1acd082e914b08063cdf1", "vout": [{"scriptPubKey": {"reqSigs": 1, "hex": "76a9146f4b18ea32188c2c6c117c6be7d98ca1c5ea3b4288ac", "addresses": ["1B9Ty9WUG3Typ6tQDdnR6nVr6zQML7R3kK"], "asm": "OP_DUP OP_HASH160 6f4b18ea32188c2c6c117c6be7d98ca1c5ea3b42 OP_EQUALVERIFY OP_CHECKSIG", "type": "pubkeyhash"}, "value": 0.0025636, "n": 0}, {"scriptPubKey": {"reqSigs": 1, "hex": "a91422e992cff521ba0db466047a30067f89bac9453987", "addresses": ["34sci34KWgUTeGS6hvN5ZUXTgE7pVQR6MN"], "asm": "OP_HASH160 22e992cff521ba0db466047a30067f89bac94539 OP_EQUAL", "type": "scripthash"}, "value": 0.01026022, "n": 1}], "hex": "0200000000010266327d9123161239d6898eb544abb6c0f8d5ef2ac9afaa1a2ddf6dc0953b3d800000000017160014b5143bd05b8620129d329af0ee1d997108d31cfefeffffffde00083d56b3fa16e7f6a3735418bd84b4c448bed2232499def56eec36f3a07a0000000017160014ced634215a0d0fb8c1855bb410d69a5b40c43930feffffff0268e90300000000001976a9146f4b18ea32188c2c6c117c6be7d98ca1c5ea3b4288ace6a70f000000000017a91422e992cff521ba0db466047a30067f89bac945398702483045022100eea1656a81820754f82b0ee1b9441c709e68ec1d919987024c43b5df78af06a302202ad5c44e501dd76ae68224c8a0ea4968944a2d6c48b935ba30617edf75de6b24012102454ec0633612a02c8994628f5756b2069960d90a703d8ed156dc49607e1a2ae902483045022100cc412c162652ac9d737732776e533addb8b8f1cc1e68108cf58f2943d225eaf4022038f1cad6233bb8075037fa8e85e4c496c6a1055ee786dcb979d4471623d598eb0121020e34c2b5a46260f1eed902e6cc1e85af18d1c72d69ae8765fec6bfe29bcb435810490800", "vin": [{"txinwitness": ["3045022100eea1656a81820754f82b0ee1b9441c709e68ec1d919987024c43b5df78af06a302202ad5c44e501dd76ae68224c8a0ea4968944a2d6c48b935ba30617edf75de6b2401", "02454ec0633612a02c8994628f5756b2069960d90a703d8ed156dc49607e1a2ae9"], "sequence": 4294967294, "scriptSig": {"hex": "160014b5143bd05b8620129d329af0ee1d997108d31cfe", "asm": "0014b5143bd05b8620129d329af0ee1d997108d31cfe"}, "vout": 0, "txid": "803d3b95c06ddf2d1aaaafc92aefd5f8c0b6ab44b58e89d639121623917d3266"}, {"txinwitness": ["3045022100cc412c162652ac9d737732776e533addb8b8f1cc1e68108cf58f2943d225eaf4022038f1cad6233bb8075037fa8e85e4c496c6a1055ee786dcb979d4471623d598eb01", "020e34c2b5a46260f1eed902e6cc1e85af18d1c72d69ae8765fec6bfe29bcb4358"], "sequence": 4294967294, "scriptSig": {"hex": "160014ced634215a0d0fb8c1855bb410d69a5b40c43930", "asm": "0014ced634215a0d0fb8c1855bb410d69a5b40c43930"}, "vout": 0, "txid": "7aa0f336ec6ef5de992423d2be48c4b484bd185473a3f6e716fab3563d0800de"}], "txid": "079c4c1842ac393b920b5bcaf555ef359204f170763e4d2572ae1d885707ce9f", "blocktime": 1537871767, "version": 2, "confirmations": 11495, "time": 1537871767, "locktime": 542992, "vsize": 259, "size": 422}