{"hash": "07a3986fadce8ee50d6929e036a8de87d73e33d8cff00e2d4c17f76098ceb76d", "blockhash": "0000000000000000000baef3f32e3676a92c3b2e5da21b426e4f302fc371ce76", "vout": [{"scriptPubKey": {"reqSigs": 1, "hex": "a914456b0ae3127edce4aa8256c24ef680d9aad016d187", "addresses": ["3824nE1xh9gDLjVgPgZKS887QaxvrYHUxr"], "asm": "OP_HASH160 456b0ae3127edce4aa8256c24ef680d9aad016d1 OP_EQUAL", "type": "scripthash"}, "value": 0.5, "n": 0}, {"scriptPubKey": {"reqSigs": 1, "hex": "76a9142c44f97d9f814f47cc0d8e82ab04cc0c47af6c9b88ac", "addresses": ["1535MsvEqUa7jhBLUQ5htaSo7yJJiwuA5j"], "asm": "OP_DUP OP_HASH160 2c44f97d9f814f47cc0d8e82ab04cc0c47af6c9b OP_EQUALVERIFY OP_CHECKSIG", "type": "pubkeyhash"}, "value": 0.53348, "n": 1}], "hex": "0100000001cfacca3166b8b5280e4feec87d7e753f9c21d61a5ebeb5aba69c732f2ee9a1fa010000006b4830450221009a54201b31f96336b5e525352e42c3e404a98ab6ee3fbf51aacf19716522b22202201e23a5698a0034882c9d5e9d0b45e5cc392703b8bc18d3d86116bccb51ead86e01210316c8c2c485e3c44c4bad2582d2de9683e8d44d826c0d0dbb6756c3b10771a6a4ffffffff0280f0fa020000000017a914456b0ae3127edce4aa8256c24ef680d9aad016d187a0062e03000000001976a9142c44f97d9f814f47cc0d8e82ab04cc0c47af6c9b88ac00000000", "vin": [{"sequence": 4294967295, "scriptSig": {"hex": "4830450221009a54201b31f96336b5e525352e42c3e404a98ab6ee3fbf51aacf19716522b22202201e23a5698a0034882c9d5e9d0b45e5cc392703b8bc18d3d86116bccb51ead86e01210316c8c2c485e3c44c4bad2582d2de9683e8d44d826c0d0dbb6756c3b10771a6a4", "asm": "30450221009a54201b31f96336b5e525352e42c3e404a98ab6ee3fbf51aacf19716522b22202201e23a5698a0034882c9d5e9d0b45e5cc392703b8bc18d3d86116bccb51ead86e[ALL] 0316c8c2c485e3c44c4bad2582d2de9683e8d44d826c0d0dbb6756c3b10771a6a4"}, "vout": 1, "txid": "faa1e92e2f739ca6abb5be5e1ad6219c3f757e7dc8ee4f0e28b5b86631caaccf"}], "txid": "07a3986fadce8ee50d6929e036a8de87d73e33d8cff00e2d4c17f76098ceb76d", "blocktime": 1537876114, "version": 1, "confirmations": 11459, "time": 1537876114, "locktime": 0, "vsize": 224, "size": 224}