{"hash": "7de6faf8e42242068ce3fd765e68d673282e0c10c8eb7e6d3c7a339fa0f2137a", "blockhash": "0000000000000000001f76057863aec43deb6fa401d9628bb513d65a8098bfab", "vout": [{"scriptPubKey": {"reqSigs": 1, "hex": "a914e8db75c900cf08f06518e96d167331f2a4abfb3387", "addresses": ["3NvFbQMAkkqEFj4i1sYPPLkSWzxTFUchjA"], "asm": "OP_HASH160 e8db75c900cf08f06518e96d167331f2a4abfb33 OP_EQUAL", "type": "scripthash"}, "value": 0.19999574, "n": 0}], "hex": "0100000000010147c5574ab5fa7b2f5a28239518382043e7dec2a2bd17213447b67d3cbbc75d0001000000171600141f27cf81c6fc0b82458bad5808ca37b88b601781ffffffff01562b31010000000017a914e8db75c900cf08f06518e96d167331f2a4abfb33870247304402203e5abce8f3ffdfb841db94827adfdb43d57789aee8fd60a31527663944be226e022000c4e4b161ed98689b051b54fd1028c8142ff1097763738c4b3be81fc60754300121021e24b6cfe0fd0228e947391c0e2bb79b33b92e61cf1b05e769cb5456e9f2c16100000000", "vin": [{"txinwitness": ["304402203e5abce8f3ffdfb841db94827adfdb43d57789aee8fd60a31527663944be226e022000c4e4b161ed98689b051b54fd1028c8142ff1097763738c4b3be81fc607543001", "021e24b6cfe0fd0228e947391c0e2bb79b33b92e61cf1b05e769cb5456e9f2c161"], "sequence": 4294967295, "scriptSig": {"hex": "1600141f27cf81c6fc0b82458bad5808ca37b88b601781", "asm": "00141f27cf81c6fc0b82458bad5808ca37b88b601781"}, "vout": 1, "txid": "005dc7bb3c7db647342117bda2c2dee7432038189523285a2f7bfab54a57c547"}], "txid": "07a5c0c5a3ff9ef671da255079e81f6511a452cdf191be4eb0bb05a9282746b1", "blocktime": 1537873891, "version": 1, "confirmations": 11478, "time": 1537873891, "locktime": 0, "vsize": 134, "size": 215}