{"hash": "07a9bb2c02a1f7c4ad627d769bed626516273ef4505269c9422e1a400bbe0b27", "blockhash": "0000000000000000001f76057863aec43deb6fa401d9628bb513d65a8098bfab", "vout": [{"scriptPubKey": {"reqSigs": 1, "hex": "76a91476792e655dc51a45bcc5905a925413d17ab87fae88ac", "addresses": ["1BoRuTS9sTo9qEti9X9yub6FQ9b6a2Teoj"], "asm": "OP_DUP OP_HASH160 76792e655dc51a45bcc5905a925413d17ab87fae OP_EQUALVERIFY OP_CHECKSIG", "type": "pubkeyhash"}, "value": 0.1586404, "n": 0}, {"scriptPubKey": {"reqSigs": 1, "hex": "76a91414005c17205358948400c878e8b52daa914aa93588ac", "addresses": ["12pkwqCHHeZ92b4KZn1evcqAK8G6N7s1rR"], "asm": "OP_DUP OP_HASH160 14005c17205358948400c878e8b52daa914aa935 OP_EQUALVERIFY OP_CHECKSIG", "type": "pubkeyhash"}, "value": 0.00656, "n": 1}], "hex": "010000000192e4f07967286ec3289c2a09dc8bc41390004bf8f1883528133a6a23790ef679000000006a47304402203fcbd6aba0b60caf00baabc3522784b5987a6e3d356e028980c9eeca17ee38f702204c31876f42960d41e073e6a47437af76c864e31c406ba3833d6e41fcb07fb295012102ced87b55d0568d53f332bcda40075f551eaf31afb75a15480e052ca1bfa7fb94feffffff02e810f200000000001976a91476792e655dc51a45bcc5905a925413d17ab87fae88ac80020a00000000001976a91414005c17205358948400c878e8b52daa914aa93588ac14490800", "vin": [{"sequence": 4294967294, "scriptSig": {"hex": "47304402203fcbd6aba0b60caf00baabc3522784b5987a6e3d356e028980c9eeca17ee38f702204c31876f42960d41e073e6a47437af76c864e31c406ba3833d6e41fcb07fb295012102ced87b55d0568d53f332bcda40075f551eaf31afb75a15480e052ca1bfa7fb94", "asm": "304402203fcbd6aba0b60caf00baabc3522784b5987a6e3d356e028980c9eeca17ee38f702204c31876f42960d41e073e6a47437af76c864e31c406ba3833d6e41fcb07fb295[ALL] 02ced87b55d0568d53f332bcda40075f551eaf31afb75a15480e052ca1bfa7fb94"}, "vout": 0, "txid": "79f60e79236a3a13283588f1f84b009013c48bdc092a9c28c36e286779f0e492"}], "txid": "07a9bb2c02a1f7c4ad627d769bed626516273ef4505269c9422e1a400bbe0b27", "blocktime": 1537873891, "version": 1, "confirmations": 11474, "time": 1537873891, "locktime": 542996, "vsize": 225, "size": 225}