{"hash": "07aa4fc883634cf305daf5e5ca3a11973003c8398d857d410cf55b8dc13e2d2e", "blockhash": "0000000000000000001cda96e906b7601b7a6fb1a3b62bca570a9e5d8f4b3de1", "vout": [{"scriptPubKey": {"reqSigs": 1, "hex": "76a914bbf676c726d241beafc244296f7969827012eec788ac", "addresses": ["1J8rcVPwRjJdi1jhk95AsjMfsLBbP7x7pS"], "asm": "OP_DUP OP_HASH160 bbf676c726d241beafc244296f7969827012eec7 OP_EQUALVERIFY OP_CHECKSIG", "type": "pubkeyhash"}, "value": 0.0197906, "n": 0}, {"scriptPubKey": {"type": "nulldata", "hex": "6a146f6d6e69000000000000001f000000e8ceaf2f00", "asm": "OP_RETURN 6f6d6e69000000000000001f000000e8ceaf2f00"}, "value": 0.0, "n": 1}, {"scriptPubKey": {"reqSigs": 1, "hex": "76a91447524356dca2e5018383c750278e4f493c90368188ac", "addresses": ["17W7XMgArBpg2qBbR261gyPkVnRotKpFTk"], "asm": "OP_DUP OP_HASH160 47524356dca2e5018383c750278e4f493c903681 OP_EQUALVERIFY OP_CHECKSIG", "type": "pubkeyhash"}, "value": 5.46e-06, "n": 2}], "hex": "010000000114daf23412e1ff76495808d6892e454e2fbfff02813d82855a011d0c1ca1f9ff010000006a47304402204d67cd886f5cbd764c8258682723fabc2ac1d140dde53a8c230cea2ee7d382c1022075d569587d17af2b2a3086600af6d6e35fe39352855e8b29d13824dfab940658012102061af1d6ec220f4ce39a77205368245c29cd0d340edeb4ced8fd2bd0bc788d42ffffffff03b4321e00000000001976a914bbf676c726d241beafc244296f7969827012eec788ac0000000000000000166a146f6d6e69000000000000001f000000e8ceaf2f0022020000000000001976a91447524356dca2e5018383c750278e4f493c90368188ac00000000", "vin": [{"sequence": 4294967295, "scriptSig": {"hex": "47304402204d67cd886f5cbd764c8258682723fabc2ac1d140dde53a8c230cea2ee7d382c1022075d569587d17af2b2a3086600af6d6e35fe39352855e8b29d13824dfab940658012102061af1d6ec220f4ce39a77205368245c29cd0d340edeb4ced8fd2bd0bc788d42", "asm": "304402204d67cd886f5cbd764c8258682723fabc2ac1d140dde53a8c230cea2ee7d382c1022075d569587d17af2b2a3086600af6d6e35fe39352855e8b29d13824dfab940658[ALL] 02061af1d6ec220f4ce39a77205368245c29cd0d340edeb4ced8fd2bd0bc788d42"}, "vout": 1, "txid": "fff9a11c0c1d015a85823d8102ffbf2f4e452e89d608584976ffe11234f2da14"}], "txid": "07aa4fc883634cf305daf5e5ca3a11973003c8398d857d410cf55b8dc13e2d2e", "blocktime": 1537873282, "version": 1, "confirmations": 11481, "time": 1537873282, "locktime": 0, "vsize": 256, "size": 256}