{"hash": "648ccf95aafc21c1f5a4b49c71e6c5e91c6bbc1a1f786110ca7205bf9e8f711e", "blockhash": "0000000000000000000e13cef7c366c0283d82e591d1acd082e914b08063cdf1", "vout": [{"scriptPubKey": {"reqSigs": 1, "hex": "a914551e034c0e363805bf660d350cffccd33ffe226587", "addresses": ["39T5KBSHyuBgowSmc6jZmo6mB8ctxbfiGp"], "asm": "OP_HASH160 551e034c0e363805bf660d350cffccd33ffe2265 OP_EQUAL", "type": "scripthash"}, "value": 0.0027406, "n": 0}, {"scriptPubKey": {"reqSigs": 1, "hex": "a914134f6951c0db342bdf17c29d2f4786e1bc0d49ae87", "addresses": ["33T7tnkSQvaggZQjxX6pUvSYRjcK6uYnHh"], "asm": "OP_HASH160 134f6951c0db342bdf17c29d2f4786e1bc0d49ae OP_EQUAL", "type": "scripthash"}, "value": 0.01008584, "n": 1}], "hex": "020000000001025b2939813549456bff661155c0c17002a1ef05ea19259b65f315653577ced32900000000171600148c3320bc0f12e2a9347195526ab384cd28b7a208feffffffe31acd5ba440f56467695e0f5c6249e72437e5e756087402690c3eedb41489b601000000171600142333f9eca3ef0b7d4680bd1da5fe3feda751de56feffffff028c2e04000000000017a914551e034c0e363805bf660d350cffccd33ffe226587c8630f000000000017a914134f6951c0db342bdf17c29d2f4786e1bc0d49ae87024830450221008d2ae3b103d362b094717124f3729fcd2c69a41a903844e33d83e8f2db05f7db02201a52241147981b59cdfe63cfef1e73fdc2d0fde2977bd15dcae3e65b82b9ab670121034f99da9c4ecc98c2e3fd40de9332bdfe3dcd95abaf8eb23d99dfd7b9a6a0fe8a02473044022056f84c2d3f0cd502d3c84c4c573321e5d508629b37b011ead5b8923058f61a51022054e220ad6d153289771552088cca08cf315d677911706aed18fdaecc889c3d9801210324802b52bc74647846c2c0e48d05202e50e4bf39a561141d52bd3a2310dc672110490800", "vin": [{"txinwitness": ["30450221008d2ae3b103d362b094717124f3729fcd2c69a41a903844e33d83e8f2db05f7db02201a52241147981b59cdfe63cfef1e73fdc2d0fde2977bd15dcae3e65b82b9ab6701", "034f99da9c4ecc98c2e3fd40de9332bdfe3dcd95abaf8eb23d99dfd7b9a6a0fe8a"], "sequence": 4294967294, "scriptSig": {"hex": "1600148c3320bc0f12e2a9347195526ab384cd28b7a208", "asm": "00148c3320bc0f12e2a9347195526ab384cd28b7a208"}, "vout": 0, "txid": "29d3ce77356515f3659b2519ea05efa10270c1c0551166ff6b4549358139295b"}, {"txinwitness": ["3044022056f84c2d3f0cd502d3c84c4c573321e5d508629b37b011ead5b8923058f61a51022054e220ad6d153289771552088cca08cf315d677911706aed18fdaecc889c3d9801", "0324802b52bc74647846c2c0e48d05202e50e4bf39a561141d52bd3a2310dc6721"], "sequence": 4294967294, "scriptSig": {"hex": "1600142333f9eca3ef0b7d4680bd1da5fe3feda751de56", "asm": "00142333f9eca3ef0b7d4680bd1da5fe3feda751de56"}, "vout": 1, "txid": "b68914b4ed3e0c6902740856e7e53724e749625c0f5e696764f540a45bcd1ae3"}], "txid": "07aa3ed80694fc93de06cfb1ab66709dc8765620cfdb0b7928aa5c2128409dec", "blocktime": 1537871767, "version": 2, "confirmations": 11495, "time": 1537871767, "locktime": 542992, "vsize": 257, "size": 419}