{"hash": "07b010d34313aca86e6c44d36a97737273b6179580f99c887dc18c51d964eab4", "blockhash": "00000000000000000004ffacab907a6b429b9a5745fa0b75af4234bf69dd7176", "vout": [{"scriptPubKey": {"reqSigs": 1, "hex": "76a914efaa39b62c83dc14efcc4b6161e47c90611c61bd88ac", "addresses": ["1NrERKT8iV1GaCwEJtr1GjWfaoCpirWdnk"], "asm": "OP_DUP OP_HASH160 efaa39b62c83dc14efcc4b6161e47c90611c61bd OP_EQUALVERIFY OP_CHECKSIG", "type": "pubkeyhash"}, "value": 89.57575292, "n": 0}, {"scriptPubKey": {"reqSigs": 1, "hex": "a9146713a2e76ffa17b41ec63d0f5fc2cde27dda1a8b87", "addresses": ["3B633fCRM4dhjXG9hrLBjreH33SubN2D4D"], "asm": "OP_HASH160 6713a2e76ffa17b41ec63d0f5fc2cde27dda1a8b OP_EQUAL", "type": "scripthash"}, "value": 0.2886, "n": 1}], "hex": "020000000107f9d05421a5dad7204ce4f15d204dbd7e9f5ca20f70e4d5dc21f3d262ef26e4000000006a473044022045c5b5ac325779146d9cf74143b22529525ebc58676cfa108b3690ce2d77e82e0220535acc4fe26453c056fc4f0483f4598f70d58ec7e5eef13c7fd2883ab59c570b0121033e01efbe5689e568beabc1630511414a7b4f7a79003421c147ed18a5a75a40e4ffffffff027cc0e915020000001976a914efaa39b62c83dc14efcc4b6161e47c90611c61bd88ac605eb8010000000017a9146713a2e76ffa17b41ec63d0f5fc2cde27dda1a8b8700000000", "vin": [{"sequence": 4294967295, "scriptSig": {"hex": "473044022045c5b5ac325779146d9cf74143b22529525ebc58676cfa108b3690ce2d77e82e0220535acc4fe26453c056fc4f0483f4598f70d58ec7e5eef13c7fd2883ab59c570b0121033e01efbe5689e568beabc1630511414a7b4f7a79003421c147ed18a5a75a40e4", "asm": "3044022045c5b5ac325779146d9cf74143b22529525ebc58676cfa108b3690ce2d77e82e0220535acc4fe26453c056fc4f0483f4598f70d58ec7e5eef13c7fd2883ab59c570b[ALL] 033e01efbe5689e568beabc1630511414a7b4f7a79003421c147ed18a5a75a40e4"}, "vout": 0, "txid": "e426ef62d2f321dcd5e4700fa25c9f7ebd4d205df1e44c20d7daa52154d0f907"}], "txid": "07b010d34313aca86e6c44d36a97737273b6179580f99c887dc18c51d964eab4", "blocktime": 1537875543, "version": 2, "confirmations": 11464, "time": 1537875543, "locktime": 0, "vsize": 223, "size": 223}