{"hash": "e538c27ee8bb987469d86183eed7da36375d2e7b680a8ffb000cd54146d7c367", "blockhash": "00000000000000000018f53835495a110e01622372bf6ae95dc86f2b0ab887b0", "vout": [{"scriptPubKey": {"reqSigs": 1, "hex": "a914240aaf6a7150222b4420b3b722bffb82dae1adaa87", "addresses": ["34yb3sWLZrv2Ex7CYhp5UpWwYzV1t2Djba"], "asm": "OP_HASH160 240aaf6a7150222b4420b3b722bffb82dae1adaa OP_EQUAL", "type": "scripthash"}, "value": 0.00994207, "n": 0}, {"scriptPubKey": {"reqSigs": 1, "hex": "76a9149e427e50f9229d91969e87bf0c4dbff45a67112f88ac", "addresses": ["1FRoRMVHMRSQuVdfhiSXbWcMLoWVgnszH3"], "asm": "OP_DUP OP_HASH160 9e427e50f9229d91969e87bf0c4dbff45a67112f OP_EQUALVERIFY OP_CHECKSIG", "type": "pubkeyhash"}, "value": 1.0, "n": 1}], "hex": "020000000001120830faadbb464d1582cb467baa81f81ba5ebc700aafbd015619650d0a4bb495800000000171600147c5ee29e4344a1f2138add1b1698f73e2d206ec6feffffff138e8b9d1e4c6621c822dae63bda6103cce3bce62c7cf2d1f5e97ff3dc8078421e000000171600141958e2212cd585f61efa6e056858545592c397a6feffffff237895a274896b28817c636ac6e238a08d0ae21b852b288a79548db0aed933ef0000000017160014dcd9fdc8daaf9c138f6390be6de39a5dfd3f1570feffffff309f9cc977fc89dfa3ee0be7a9218415e406d058c3277f1a91adfba05a9357f421000000171600148ecc9a89bc2e39e2afceeb98d489f25e7b14bb72feffffff3f6a234019eddd9b4f817445a0bc4b7bd1efe6bc344fc29435c51c752701fb520000000017160014c79fa2846e1b607db17a7507a3cfc14d5dbea383feffffff52c3f09b75b5add85853d48c4aa914c9b1c7724d7d60bb4ca3acfead2200c8810000000017160014fd9519da3e83bda8ec7158c80bdc138c63cc7041feffffff6d2366cea508eed015249177c97c56491dff321d66b2ac6c47676e2af30d88240000000017160014f6a0309aebf874d9c61f15bebca1090359816193feffffff7812da43aa1f78d8ed55fcfb4159dc85e13b8bd2798b62d6b964926d758651770200000017160014636963249d03662fc660c7089158d496eaf06e78feffffff7e7056eb0f9ab058d997b3572f6ec273f4c73dbee25eaa54bd0f7cd1d983d822040000001716001468651e2e450d73ed45b6c64186d6d7f086092188feffffff7fcb9fc1acc4c22ba5fbdb25091ce4c071661ca4f00eb4196c0411884fc1b8d7010000001716001456b18aa94d6acd02da05fc80e7147565b7fce8a8feffffff842d3e699620b62f9c1ef286744840a7d9859d31246cd9243f425e9941de1a5101000000171600148ea1d8c278eb4c33d484cd09a479571e1c4afac9feffffff924b2e7c3ac818ee40040c0da31c669802126c661c70274d46499cbae5405c6b00000000171600148eae2848b19181b955d5371a9c6fb9115975847efeffffffb44d7c1da99dec5e00d4b3c89114d7c86be73f79a7f1cb13bf6823596f13d85d050000001716001486de4050b2db7d73d970cdfd40ed67b0b32a0d4bfeffffffc08ccea663956b33363700937914eba07b7899d0d5142bf170449224b382c7c40100000017160014dfe72e914dfd73488b05fccf6e6d9b2b5d4aab9dfeffffffe2305e353cd5261f479e8ac4a40b6e8f6add9f6543c51eb56d87d196c9f862b401000000171600143763c3594c6f799227eab68f726761618a255b94feffffffe53282d5b47a89599c808febbbea541cef9f3faf2feebdded689b30fc4409e1c0100000017160014ba764441358a052221b681f217e01754de1ca259feffffffe66ad5b9d65b230f5b2f89370a9d7686de2e32ba999709215f55735f440590a707000000171600141942151afee215ee3f33130f5e6ac9c37549936afeffffffff1a2c7aefddb38674ca745d6e4d5d821d52db4af56d4bb1320720cedeb1f0a4010000001716001412f5ff4a0fb894d46cd4d174657e6c3fbd25edf4feffffff029f2b0f000000000017a914240aaf6a7150222b4420b3b722bffb82dae1adaa8700e1f505000000001976a9149e427e50f9229d91969e87bf0c4dbff45a67112f88ac02483045022100ee9411b0cde918efc3b9d4640f75cca0735a695133b8a451ceaddd4b17c3bd830220013dc0f21e41e54eb286d144c334c84b96ad08b9386570d3eea7445b9e65c91d0121021edd2ac78a4582ca2c7e0dac8a2afe2815bce7bd6c7c9ac2387458bd604204e2024730440220387198bf142e10c25e0dd07f54d0ed31c7d9b25793f7f40a3335c1192980d5ea0220551e15803ade0fb5005740862c161eeb0070a42c5b56e4a5b972db2bd6758c17012102d592860960255057280dcfc7f0b1a0b3ad55961e8ad102d581087a383edcbb7f0247304402200b421c2124d4fee7251941939c3f7f18d4fc4fbe8191811c23f9194c80618c7802201123d6407a6d9d9b0f9fcd9ed5b58e6ab209784da268c0a1691a7774bf98799b012103691ea8a3e3fbf7b1015909853ca61cfa8c1b938b2e86648a38b14191115bac9102483045022100a5d455de4b547f9ce8af21168653f09002fbe579365cec94809be254dd5410cc022001b73db5941c95b604e37babf9782827f263c94e4850ee93a62ad4ca605a8870012103b8915bb8bf127f8b0a1ca863746bf3f9020b2ae901fe56dd11c70293387315170247304402204ea8b78779609f92df4dded6a6fd63d9a304d59ef20d01340db48f8d8c3a3268022054f448e9b368771596a12a85c95009f9caeb80c4c0de747493abab497211372d012103e2f29a39372b453d01af9854f473f98d062fd2fd4bb00acd85e6bfe3d91e42ad02473044022006c922ca406066cbea07807d8e82cf54c2b42a2c01c603b2ebecaf154cf6af2402204c40c57b8aebc96c217668cc304b838ed52ff1eb1648cc420bad4848b955246e012102b4d20535c6bf6de15cc9fbbabcd34128954896c83ec6f42d19dfc48a85b549240247304402207e987dfd3f53312fd726b619472202608f063aceb0d7e34b39b898f91f2ce0b9022017a00ccfafae7d28cb45728c7863bb3546f6e1322557d6d164c1bdaeaf25942a0121020cf80e7e42987f2de3fefacb2cbf0be163227a781da4ea7e7459bab25fcaf38d02483045022100cd5e05ef7d68dabf8f8fcd25253b3af964fa55b84bbb09a1747884e92271ac4502205f456abe4f8e71d1d6238f70f58034daf38219737ad4890b9a3fe9802a6e1e4d0121024ca63af04637b1cc851499df85cf751e706804f986b2a68baec87952ae7a15790247304402210093f4359b6c8b72b0e77c0b843fab2ece07782511d589dc227074e7f37870746c021f5835ceff842b9128a67e67e3764bc65b9cd283542b023db879416427cf5f66012103695b3efa3ebbf82c5af662d4889414c6328b0d3796cefd3a66a5cff8fb8cabfd02483045022100c4ef0b72ed1b39e422fe1f76d204c36ca0e0285074f3000ca3264559490c8dad02207d5ab9c2e123f4750306b12af4f4a617ab4bc59a7457a320d93f061ee31e7eec0121031878be45af47799119d97cab5301adbb308792d09fb7973b5abde63f60f4b44f02473044022063ede9f8ec254cd4f721816733db990ef5bbe9ddef3e9f9cfe68c87b2ebc7d1c022035bd9c39c8675c3cb50a79ac8d2c0f64c30784e99c22e8fecf0c9a338c5c70b3012103de2355561d265836a4c6bc006cc7d9cf1503e2080149b540764cd3c37fb721cb02473044022043783b257ea24c07e8838930740f22f9f6dda35d0c6caf0a1b208a7067a3be2a02200ed5a8443e193aa00c14994ba4f1a30dfd3681a3d9d97b302275ef87a66fbaad01210338844aedd45e12daa6c9361fb88145ac197cda060656d4585bc82464faa76a9d02483045022100efbfe9e2c748e7dac258e6eaf28e657ac072efb1a87493d6f08caba2dd4d7bd9022008725246ec5a5dffc1fd2d5a65d1afa9f146177690e3f236836f06716a13af6f01210379fe2076401d17eaffdd95c67dc5b4174d4aa1d3c6fddc16d99541ee5af5b85002483045022100e86a30bf5568a53e7f910d837c3319b6695e77cd71f09273026170d2badd482402205e0b0528613ca568bd2eabbf680808705c7150473aa5c0152ee236bb551d91ce0121035c7680045051b75ac24f8f65f8681a070706491a58ff4e4d147b5eac8d5a5b39024830450221008af650ee65b1f53d5f9182e501a110c67cd924609a897f9b7686f43b1a1f70be022059c8b938cefa0e15ef3c17878efbc64d084588527bf3792aa042fbc76bd7b87d012103c1e0c254f16524eea7424dce0f92f129d510a77b0c8c52e6689889a52b6f17490247304402201fd0be60bb3523ae61ef420c3c790771b0c2570f6bc435b3e6e401d84e1db7d60220747b360efecbbedb10f948260d25b11782d263cdbca358dbd300b9d6e1572545012103e24bb94b0aadf0989509db5d1d89efa761095cacd00c9990845371aff78305ff0247304402204a5aa6077c962bf7ab843508ff2245739c3b2330e90b1caf4763b3ad6686f0d202201efee66d54d05e7812c65dc43cd510be6055e04f55024b0e45e2b76539defe970121026572f0f69ea3bc7bbf7679132cd91ef1cbe07c6b6fd62ed7af3455f0290144ee0247304402207726ddd4dcae56622dc42f9b7f07343697f81335d74253b14bacf6fee596669802203c0a85ccf898b60bb21657235de8776e0a7060c17544a2cf608c29491dc36fb8012102c48ad57fbfd4e5e5a29a9b74c24fd0db57d478e5f594a8cf1da54499d5f509af03490800", "vin": [{"txinwitness": ["3045022100ee9411b0cde918efc3b9d4640f75cca0735a695133b8a451ceaddd4b17c3bd830220013dc0f21e41e54eb286d144c334c84b96ad08b9386570d3eea7445b9e65c91d01", "021edd2ac78a4582ca2c7e0dac8a2afe2815bce7bd6c7c9ac2387458bd604204e2"], "sequence": 4294967294, "scriptSig": {"hex": "1600147c5ee29e4344a1f2138add1b1698f73e2d206ec6", "asm": "00147c5ee29e4344a1f2138add1b1698f73e2d206ec6"}, "vout": 0, "txid": "5849bba4d050966115d0fbaa00c7eba51bf881aa7b46cb82154d46bbadfa3008"}, {"txinwitness": ["30440220387198bf142e10c25e0dd07f54d0ed31c7d9b25793f7f40a3335c1192980d5ea0220551e15803ade0fb5005740862c161eeb0070a42c5b56e4a5b972db2bd6758c1701", "02d592860960255057280dcfc7f0b1a0b3ad55961e8ad102d581087a383edcbb7f"], "sequence": 4294967294, "scriptSig": {"hex": "1600141958e2212cd585f61efa6e056858545592c397a6", "asm": "00141958e2212cd585f61efa6e056858545592c397a6"}, "vout": 30, "txid": "427880dcf37fe9f5d1f27c2ce6bce3cc0361da3be6da22c821664c1e9d8b8e13"}, {"txinwitness": ["304402200b421c2124d4fee7251941939c3f7f18d4fc4fbe8191811c23f9194c80618c7802201123d6407a6d9d9b0f9fcd9ed5b58e6ab209784da268c0a1691a7774bf98799b01", "03691ea8a3e3fbf7b1015909853ca61cfa8c1b938b2e86648a38b14191115bac91"], "sequence": 4294967294, "scriptSig": {"hex": "160014dcd9fdc8daaf9c138f6390be6de39a5dfd3f1570", "asm": "0014dcd9fdc8daaf9c138f6390be6de39a5dfd3f1570"}, "vout": 0, "txid": "ef33d9aeb08d54798a282b851be20a8da038e2c66a637c81286b8974a2957823"}, {"txinwitness": ["3045022100a5d455de4b547f9ce8af21168653f09002fbe579365cec94809be254dd5410cc022001b73db5941c95b604e37babf9782827f263c94e4850ee93a62ad4ca605a887001", "03b8915bb8bf127f8b0a1ca863746bf3f9020b2ae901fe56dd11c7029338731517"], "sequence": 4294967294, "scriptSig": {"hex": "1600148ecc9a89bc2e39e2afceeb98d489f25e7b14bb72", "asm": "00148ecc9a89bc2e39e2afceeb98d489f25e7b14bb72"}, "vout": 33, "txid": "f457935aa0fbad911a7f27c358d006e4158421a9e70beea3df89fc77c99c9f30"}, {"txinwitness": ["304402204ea8b78779609f92df4dded6a6fd63d9a304d59ef20d01340db48f8d8c3a3268022054f448e9b368771596a12a85c95009f9caeb80c4c0de747493abab497211372d01", "03e2f29a39372b453d01af9854f473f98d062fd2fd4bb00acd85e6bfe3d91e42ad"], "sequence": 4294967294, "scriptSig": {"hex": "160014c79fa2846e1b607db17a7507a3cfc14d5dbea383", "asm": "0014c79fa2846e1b607db17a7507a3cfc14d5dbea383"}, "vout": 0, "txid": "52fb0127751cc53594c24f34bce6efd17b4bbca04574814f9bdded1940236a3f"}, {"txinwitness": ["3044022006c922ca406066cbea07807d8e82cf54c2b42a2c01c603b2ebecaf154cf6af2402204c40c57b8aebc96c217668cc304b838ed52ff1eb1648cc420bad4848b955246e01", "02b4d20535c6bf6de15cc9fbbabcd34128954896c83ec6f42d19dfc48a85b54924"], "sequence": 4294967294, "scriptSig": {"hex": "160014fd9519da3e83bda8ec7158c80bdc138c63cc7041", "asm": "0014fd9519da3e83bda8ec7158c80bdc138c63cc7041"}, "vout": 0, "txid": "81c80022adfeaca34cbb607d4d72c7b1c914a94a8cd45358d8adb5759bf0c352"}, {"txinwitness": ["304402207e987dfd3f53312fd726b619472202608f063aceb0d7e34b39b898f91f2ce0b9022017a00ccfafae7d28cb45728c7863bb3546f6e1322557d6d164c1bdaeaf25942a01", "020cf80e7e42987f2de3fefacb2cbf0be163227a781da4ea7e7459bab25fcaf38d"], "sequence": 4294967294, "scriptSig": {"hex": "160014f6a0309aebf874d9c61f15bebca1090359816193", "asm": "0014f6a0309aebf874d9c61f15bebca1090359816193"}, "vout": 0, "txid": "24880df32a6e67476cacb2661d32ff1d49567cc977912415d0ee08a5ce66236d"}, {"txinwitness": ["3045022100cd5e05ef7d68dabf8f8fcd25253b3af964fa55b84bbb09a1747884e92271ac4502205f456abe4f8e71d1d6238f70f58034daf38219737ad4890b9a3fe9802a6e1e4d01", "024ca63af04637b1cc851499df85cf751e706804f986b2a68baec87952ae7a1579"], "sequence": 4294967294, "scriptSig": {"hex": "160014636963249d03662fc660c7089158d496eaf06e78", "asm": "0014636963249d03662fc660c7089158d496eaf06e78"}, "vout": 2, "txid": "775186756d9264b9d6628b79d28b3be185dc5941fbfc55edd8781faa43da1278"}, {"txinwitness": ["304402210093f4359b6c8b72b0e77c0b843fab2ece07782511d589dc227074e7f37870746c021f5835ceff842b9128a67e67e3764bc65b9cd283542b023db879416427cf5f6601", "03695b3efa3ebbf82c5af662d4889414c6328b0d3796cefd3a66a5cff8fb8cabfd"], "sequence": 4294967294, "scriptSig": {"hex": "16001468651e2e450d73ed45b6c64186d6d7f086092188", "asm": "001468651e2e450d73ed45b6c64186d6d7f086092188"}, "vout": 4, "txid": "22d883d9d17c0fbd54aa5ee2be3dc7f473c26e2f57b397d958b09a0feb56707e"}, {"txinwitness": ["3045022100c4ef0b72ed1b39e422fe1f76d204c36ca0e0285074f3000ca3264559490c8dad02207d5ab9c2e123f4750306b12af4f4a617ab4bc59a7457a320d93f061ee31e7eec01", "031878be45af47799119d97cab5301adbb308792d09fb7973b5abde63f60f4b44f"], "sequence": 4294967294, "scriptSig": {"hex": "16001456b18aa94d6acd02da05fc80e7147565b7fce8a8", "asm": "001456b18aa94d6acd02da05fc80e7147565b7fce8a8"}, "vout": 1, "txid": "d7b8c14f8811046c19b40ef0a41c6671c0e41c0925dbfba52bc2c4acc19fcb7f"}, {"txinwitness": ["3044022063ede9f8ec254cd4f721816733db990ef5bbe9ddef3e9f9cfe68c87b2ebc7d1c022035bd9c39c8675c3cb50a79ac8d2c0f64c30784e99c22e8fecf0c9a338c5c70b301", "03de2355561d265836a4c6bc006cc7d9cf1503e2080149b540764cd3c37fb721cb"], "sequence": 4294967294, "scriptSig": {"hex": "1600148ea1d8c278eb4c33d484cd09a479571e1c4afac9", "asm": "00148ea1d8c278eb4c33d484cd09a479571e1c4afac9"}, "vout": 1, "txid": "511ade41995e423f24d96c24319d85d9a740487486f21e9c2fb62096693e2d84"}, {"txinwitness": ["3044022043783b257ea24c07e8838930740f22f9f6dda35d0c6caf0a1b208a7067a3be2a02200ed5a8443e193aa00c14994ba4f1a30dfd3681a3d9d97b302275ef87a66fbaad01", "0338844aedd45e12daa6c9361fb88145ac197cda060656d4585bc82464faa76a9d"], "sequence": 4294967294, "scriptSig": {"hex": "1600148eae2848b19181b955d5371a9c6fb9115975847e", "asm": "00148eae2848b19181b955d5371a9c6fb9115975847e"}, "vout": 0, "txid": "6b5c40e5ba9c49464d27701c666c120298661ca30d0c0440ee18c83a7c2e4b92"}, {"txinwitness": ["3045022100efbfe9e2c748e7dac258e6eaf28e657ac072efb1a87493d6f08caba2dd4d7bd9022008725246ec5a5dffc1fd2d5a65d1afa9f146177690e3f236836f06716a13af6f01", "0379fe2076401d17eaffdd95c67dc5b4174d4aa1d3c6fddc16d99541ee5af5b850"], "sequence": 4294967294, "scriptSig": {"hex": "16001486de4050b2db7d73d970cdfd40ed67b0b32a0d4b", "asm": "001486de4050b2db7d73d970cdfd40ed67b0b32a0d4b"}, "vout": 5, "txid": "5dd8136f592368bf13cbf1a7793fe76bc8d71491c8b3d4005eec9da91d7c4db4"}, {"txinwitness": ["3045022100e86a30bf5568a53e7f910d837c3319b6695e77cd71f09273026170d2badd482402205e0b0528613ca568bd2eabbf680808705c7150473aa5c0152ee236bb551d91ce01", "035c7680045051b75ac24f8f65f8681a070706491a58ff4e4d147b5eac8d5a5b39"], "sequence": 4294967294, "scriptSig": {"hex": "160014dfe72e914dfd73488b05fccf6e6d9b2b5d4aab9d", "asm": "0014dfe72e914dfd73488b05fccf6e6d9b2b5d4aab9d"}, "vout": 1, "txid": "c4c782b324924470f12b14d5d099787ba0eb147993003736336b9563a6ce8cc0"}, {"txinwitness": ["30450221008af650ee65b1f53d5f9182e501a110c67cd924609a897f9b7686f43b1a1f70be022059c8b938cefa0e15ef3c17878efbc64d084588527bf3792aa042fbc76bd7b87d01", "03c1e0c254f16524eea7424dce0f92f129d510a77b0c8c52e6689889a52b6f1749"], "sequence": 4294967294, "scriptSig": {"hex": "1600143763c3594c6f799227eab68f726761618a255b94", "asm": "00143763c3594c6f799227eab68f726761618a255b94"}, "vout": 1, "txid": "b462f8c996d1876db51ec543659fdd6a8f6e0ba4c48a9e471f26d53c355e30e2"}, {"txinwitness": ["304402201fd0be60bb3523ae61ef420c3c790771b0c2570f6bc435b3e6e401d84e1db7d60220747b360efecbbedb10f948260d25b11782d263cdbca358dbd300b9d6e157254501", "03e24bb94b0aadf0989509db5d1d89efa761095cacd00c9990845371aff78305ff"], "sequence": 4294967294, "scriptSig": {"hex": "160014ba764441358a052221b681f217e01754de1ca259", "asm": "0014ba764441358a052221b681f217e01754de1ca259"}, "vout": 1, "txid": "1c9e40c40fb389d6debdee2faf3f9fef1c54eabbeb8f809c59897ab4d58232e5"}, {"txinwitness": ["304402204a5aa6077c962bf7ab843508ff2245739c3b2330e90b1caf4763b3ad6686f0d202201efee66d54d05e7812c65dc43cd510be6055e04f55024b0e45e2b76539defe9701", "026572f0f69ea3bc7bbf7679132cd91ef1cbe07c6b6fd62ed7af3455f0290144ee"], "sequence": 4294967294, "scriptSig": {"hex": "1600141942151afee215ee3f33130f5e6ac9c37549936a", "asm": "00141942151afee215ee3f33130f5e6ac9c37549936a"}, "vout": 7, "txid": "a79005445f73555f21099799ba322ede86769d0a37892f5b0f235bd6b9d56ae6"}, {"txinwitness": ["304402207726ddd4dcae56622dc42f9b7f07343697f81335d74253b14bacf6fee596669802203c0a85ccf898b60bb21657235de8776e0a7060c17544a2cf608c29491dc36fb801", "02c48ad57fbfd4e5e5a29a9b74c24fd0db57d478e5f594a8cf1da54499d5f509af"], "sequence": 4294967294, "scriptSig": {"hex": "16001412f5ff4a0fb894d46cd4d174657e6c3fbd25edf4", "asm": "001412f5ff4a0fb894d46cd4d174657e6c3fbd25edf4"}, "vout": 1, "txid": "a4f0b1dece200732b14b6df54adb521d825d4d6e5d74ca7486b3ddef7a2c1aff"}], "txid": "07b1b0588d667319784286795b590ab3233e8a735504b45e3e493af8a6d4e557", "blocktime": 1537870928, "version": 2, "confirmations": 11512, "time": 1537870928, "locktime": 542979, "vsize": 1712, "size": 3163}