{"hash": "07b8de5bb8277f4b44c496d04b14560b43717900166575b38f9dbfe36ae51b99", "blockhash": "0000000000000000001e0dab787dd257d1dbfcb92a98c2207d5e1078be1f4165", "vout": [{"scriptPubKey": {"reqSigs": 1, "hex": "76a9145bc3b206a69a873ff746d3fffb0e71e5b2b31de688ac", "addresses": ["19NCvcWoE69EH7QvGYzUKn55voUiJ5WbCw"], "asm": "OP_DUP OP_HASH160 5bc3b206a69a873ff746d3fffb0e71e5b2b31de6 OP_EQUALVERIFY OP_CHECKSIG", "type": "pubkeyhash"}, "value": 0.00156164, "n": 0}, {"scriptPubKey": {"reqSigs": 1, "hex": "76a914dcd97e81e42cedf81da1ee740eb7dae7fb1ff8ff88ac", "addresses": ["1M8kCxpuEPjcnSdxYoiD1LaRg8GV97PSVp"], "asm": "OP_DUP OP_HASH160 dcd97e81e42cedf81da1ee740eb7dae7fb1ff8ff OP_EQUALVERIFY OP_CHECKSIG", "type": "pubkeyhash"}, "value": 0.01147067, "n": 1}], "hex": "01000000014b62ab1883b42d363df24c04286f805397b20b415d6e062b222818dce1dba308010000006a47304402201058e976dcd78f141b0a0ccd96292d6f019b25bb31fc911a9fc4de2ac430bf360220179488aa6ebb8f8f24a437074c691bcc9c259d84dc9f6cbc337cb6f4d3cf9ef6012103c0206e8818d2e91ec0ed00f177b02aec5f87b2d922f1ed4c1fe516ed7ea49d84ffffffff0204620200000000001976a9145bc3b206a69a873ff746d3fffb0e71e5b2b31de688acbb801100000000001976a914dcd97e81e42cedf81da1ee740eb7dae7fb1ff8ff88ac00000000", "vin": [{"sequence": 4294967295, "scriptSig": {"hex": "47304402201058e976dcd78f141b0a0ccd96292d6f019b25bb31fc911a9fc4de2ac430bf360220179488aa6ebb8f8f24a437074c691bcc9c259d84dc9f6cbc337cb6f4d3cf9ef6012103c0206e8818d2e91ec0ed00f177b02aec5f87b2d922f1ed4c1fe516ed7ea49d84", "asm": "304402201058e976dcd78f141b0a0ccd96292d6f019b25bb31fc911a9fc4de2ac430bf360220179488aa6ebb8f8f24a437074c691bcc9c259d84dc9f6cbc337cb6f4d3cf9ef6[ALL] 03c0206e8818d2e91ec0ed00f177b02aec5f87b2d922f1ed4c1fe516ed7ea49d84"}, "vout": 1, "txid": "08a3dbe1dc1828222b066e5d410bb29753806f28044cf23d362db48318ab624b"}], "txid": "07b8de5bb8277f4b44c496d04b14560b43717900166575b38f9dbfe36ae51b99", "blocktime": 1537872475, "version": 1, "confirmations": 11487, "time": 1537872475, "locktime": 0, "vsize": 225, "size": 225}