{"hash": "d39b1c8c0125c9f959c4b2123c2603f4b4f86a2176797a6db1a60ba4af34fe69", "blockhash": "00000000000000000017f5eb5941039fbcee6240d03bc1f2f8e35350df66a1d8", "vout": [{"scriptPubKey": {"reqSigs": 1, "hex": "a9147dc6ae766aea986d069577a66c46a11b9022e1fa87", "addresses": ["3DA4Q9vzrxiEfqEwSdVLAHGLAwGSf3cKAR"], "asm": "OP_HASH160 7dc6ae766aea986d069577a66c46a11b9022e1fa OP_EQUAL", "type": "scripthash"}, "value": 0.00999746, "n": 0}, {"scriptPubKey": {"reqSigs": 1, "hex": "a914e2c7cbcdfa30ed34c459b52d2ffa8d13a06768c087", "addresses": ["3NN7yyUwZaGhgVExsvVsZkVoxZumYp7YjW"], "asm": "OP_HASH160 e2c7cbcdfa30ed34c459b52d2ffa8d13a06768c0 OP_EQUAL", "type": "scripthash"}, "value": 0.07377, "n": 1}], "hex": "020000000001023ef3b1369369b204d9c15d277128fa643e166002ebbd23e1f0a0f041d65814300100000017160014c86c9282120f866c6f7ea38b8acb577785f25984feffffff65f5b1cefcda98a93443acefe199433376faf6a09884d89aa7649d11cc93cc130500000017160014dc89c3254b9dce3adea4cc453cc5d3e0862c15b6feffffff0242410f000000000017a9147dc6ae766aea986d069577a66c46a11b9022e1fa87689070000000000017a914e2c7cbcdfa30ed34c459b52d2ffa8d13a06768c087024830450221008f8b51fd638abd4120cdfae8d28dfb6af1c74419e0957d3e81cbd9449ea75ce702204cc5aed69127e95458798d54f0be880278f6058ad298850bb172596d3d3194f801210251a4062dcd6715c1a3c06f9304bd1b8481971f2053baf49139488fdc42b6c6a10247304402207506bb426a14b77186347b4fa75c51b8f97301108dc8f9f86169c8e0c30e3c8a022045de5f0d146e2cfcbdbb129a5b1ddd17b4482244198f476924b959feb9134db1012103c2d85a7c1c0371482ea090ab3c1c18cac678578a34089b7cd146664246970c8315490800", "vin": [{"txinwitness": ["30450221008f8b51fd638abd4120cdfae8d28dfb6af1c74419e0957d3e81cbd9449ea75ce702204cc5aed69127e95458798d54f0be880278f6058ad298850bb172596d3d3194f801", "0251a4062dcd6715c1a3c06f9304bd1b8481971f2053baf49139488fdc42b6c6a1"], "sequence": 4294967294, "scriptSig": {"hex": "160014c86c9282120f866c6f7ea38b8acb577785f25984", "asm": "0014c86c9282120f866c6f7ea38b8acb577785f25984"}, "vout": 1, "txid": "301458d641f0a0f0e123bdeb0260163e64fa2871275dc1d904b2699336b1f33e"}, {"txinwitness": ["304402207506bb426a14b77186347b4fa75c51b8f97301108dc8f9f86169c8e0c30e3c8a022045de5f0d146e2cfcbdbb129a5b1ddd17b4482244198f476924b959feb9134db101", "03c2d85a7c1c0371482ea090ab3c1c18cac678578a34089b7cd146664246970c83"], "sequence": 4294967294, "scriptSig": {"hex": "160014dc89c3254b9dce3adea4cc453cc5d3e0862c15b6", "asm": "0014dc89c3254b9dce3adea4cc453cc5d3e0862c15b6"}, "vout": 5, "txid": "13cc93cc119d64a79ad88498a0f6fa76334399e1efac4334a998dafcceb1f565"}], "txid": "07ba27e0c4b9dac91d467a01926d11242551b61a80ec7cba37b66cb453ddeb13", "blocktime": 1537874412, "version": 2, "confirmations": 11467, "time": 1537874412, "locktime": 542997, "vsize": 257, "size": 419}