{"hash": "276e080c6046311af916016f2f1cb7fd0bb881e64b7a21c9fba9dda41af7fe82", "blockhash": "0000000000000000001f76057863aec43deb6fa401d9628bb513d65a8098bfab", "vout": [{"scriptPubKey": {"reqSigs": 1, "hex": "76a9149dec7575883a632ee42535e1c40bb051400a3c7e88ac", "addresses": ["1FQ2MZk7Xa2pVG1gxvumLyCbxar4MNFyyM"], "asm": "OP_DUP OP_HASH160 9dec7575883a632ee42535e1c40bb051400a3c7e OP_EQUALVERIFY OP_CHECKSIG", "type": "pubkeyhash"}, "value": 0.07849337, "n": 0}, {"scriptPubKey": {"reqSigs": 1, "hex": "001453e5495f0bb52621cc0903ba13fdfdf73d5c5e81", "addresses": ["bc1q20j5jhctk5nzrnqfqwap8l0a7u74ch5pshzaqg"], "asm": "0 53e5495f0bb52621cc0903ba13fdfdf73d5c5e81", "type": "witness_v0_keyhash"}, "value": 0.08642775, "n": 1}], "hex": "01000000000101737428ecb50eef2c9ac9f216ec4c828fc0f44af6d60d5fa818734a4dc564bc4f0000000000ffffffff0279c57700000000001976a9149dec7575883a632ee42535e1c40bb051400a3c7e88acd7e083000000000016001453e5495f0bb52621cc0903ba13fdfdf73d5c5e8102483045022100c2d9b2f4e167ffe41757da371004a9b7178a53bbb413e71448826155251dcfb6022078e92202f8e0a71e52861e1254e23a405ed0fa9833de8d80884499febc4cca17012103ffad4beff4ec3d8638a160caba6275aa602b16d0ce5ceedfbe5aa65dd79976a300000000", "vin": [{"txinwitness": ["3045022100c2d9b2f4e167ffe41757da371004a9b7178a53bbb413e71448826155251dcfb6022078e92202f8e0a71e52861e1254e23a405ed0fa9833de8d80884499febc4cca1701", "03ffad4beff4ec3d8638a160caba6275aa602b16d0ce5ceedfbe5aa65dd79976a3"], "sequence": 4294967295, "scriptSig": {"hex": "", "asm": ""}, "vout": 0, "txid": "4fbc64c54d4a7318a85f0dd6f64af4c08f824cec16f2c99a2cef0eb5ec287473"}], "txid": "07c171f626f547a61b3a86b0a9844d2095b41e0c50e0a55b6b7054fe39910f74", "blocktime": 1537873891, "version": 1, "confirmations": 11478, "time": 1537873891, "locktime": 0, "vsize": 144, "size": 226}