{"hash": "7ad5fa486812b5c97481ca0e40e90905880d0e8dde57aefc999928ccfc98936a", "blockhash": "0000000000000000001cda96e906b7601b7a6fb1a3b62bca570a9e5d8f4b3de1", "vout": [{"scriptPubKey": {"reqSigs": 1, "hex": "a9147d2c8873029e77df5679e8d84611371aefd2e4b087", "addresses": ["3D6sjjHv6e6gu9Mtk7n7mTaG1HYsmj1cat"], "asm": "OP_HASH160 7d2c8873029e77df5679e8d84611371aefd2e4b0 OP_EQUAL", "type": "scripthash"}, "value": 0.005, "n": 0}, {"scriptPubKey": {"reqSigs": 1, "hex": "a9140fc077680a4b7ffd053ca7769ff953dcabd2b50d87", "addresses": ["338JdDuRSB5fdDHQyraW8trcktz2hQ4hvm"], "asm": "OP_HASH160 0fc077680a4b7ffd053ca7769ff953dcabd2b50d OP_EQUAL", "type": "scripthash"}, "value": 0.00996103, "n": 1}], "hex": "02000000000104143e3cf20af6501f1e518f6a33a39883b0bd14a7267b2939f3e8ddd09e573b7a0100000017160014f90ce238b708b302238a0cc808dd11076026bab8feffffff2879d0e30391a2144e4c34888bc2431762264ed56527de263ac55fea2c85f6fc0000000017160014e0b65d83f29b744a384cf6b22a1bfdc098e01579feffffff2e89d05ded43cf90c2305285fdfad8c4d212be889b95d5050ff568c83a8f412d090000001716001421eb28a23b178b4cfe4bcbeb5c41530ea7316c45feffffffa006f22ea0ef939b284f4f6a200f24a262e4fd8ae0772084531f946c0caa020f0000000017160014c42ef26a0aba0b3ca9a146b2e4259fa1a5b43ac2feffffff0220a107000000000017a9147d2c8873029e77df5679e8d84611371aefd2e4b08707330f000000000017a9140fc077680a4b7ffd053ca7769ff953dcabd2b50d870247304402201020b6525a78fffd9b1b45dd731f69f0ed2c34120d58ec1bd7e5a30bd128a1f802203db97c80cd08e0aaf32f66522f6ca64156050298b3452c3929280be7639549be01210309ef98b0888e944b1408e3f0a55dabe66a9e60d14cfa51e3826c78f1715a75e202473044022071b8c9c828e10374d315dc74a4472360c32fe5837fcb37319df1001f69a183e3022033d4d4028cac2d00a9f661168cb77650a2e4cba5aaf9149efcda4c201b009a830121023dad0aa69c361bf6f7825b7e083a66a03f8dfc0de0be85dc49c080097c57192a0247304402203cf4a50fcb040c91821428636c1c5020125926cfaee2862bdac5e237952b5c290220749d97f283ecf71c48a8cbe97e98da370a379e402a7321e077a0addebd50565e0121020b4aa4c77b6b43e58dc4b3ee5b92eddef24a26c1a2c8aad6876345b105e967d802483045022100dece0b7ae72cbe058c38e1930087d8b5392202e021e43e897db541ef309d4c3902201c905b3856d49ec527f43497dc41431aaa24ec3b8c3840477166408d0d7313020121039c4154876157e3da6bde092c7e630a325c21c6f4eb2d3075a7e95c80d0e47b3b13490800", "vin": [{"txinwitness": ["304402201020b6525a78fffd9b1b45dd731f69f0ed2c34120d58ec1bd7e5a30bd128a1f802203db97c80cd08e0aaf32f66522f6ca64156050298b3452c3929280be7639549be01", "0309ef98b0888e944b1408e3f0a55dabe66a9e60d14cfa51e3826c78f1715a75e2"], "sequence": 4294967294, "scriptSig": {"hex": "160014f90ce238b708b302238a0cc808dd11076026bab8", "asm": "0014f90ce238b708b302238a0cc808dd11076026bab8"}, "vout": 1, "txid": "7a3b579ed0dde8f339297b26a714bdb08398a3336a8f511e1f50f60af23c3e14"}, {"txinwitness": ["3044022071b8c9c828e10374d315dc74a4472360c32fe5837fcb37319df1001f69a183e3022033d4d4028cac2d00a9f661168cb77650a2e4cba5aaf9149efcda4c201b009a8301", "023dad0aa69c361bf6f7825b7e083a66a03f8dfc0de0be85dc49c080097c57192a"], "sequence": 4294967294, "scriptSig": {"hex": "160014e0b65d83f29b744a384cf6b22a1bfdc098e01579", "asm": "0014e0b65d83f29b744a384cf6b22a1bfdc098e01579"}, "vout": 0, "txid": "fcf6852cea5fc53a26de2765d54e26621743c28b88344c4e14a29103e3d07928"}, {"txinwitness": ["304402203cf4a50fcb040c91821428636c1c5020125926cfaee2862bdac5e237952b5c290220749d97f283ecf71c48a8cbe97e98da370a379e402a7321e077a0addebd50565e01", "020b4aa4c77b6b43e58dc4b3ee5b92eddef24a26c1a2c8aad6876345b105e967d8"], "sequence": 4294967294, "scriptSig": {"hex": "16001421eb28a23b178b4cfe4bcbeb5c41530ea7316c45", "asm": "001421eb28a23b178b4cfe4bcbeb5c41530ea7316c45"}, "vout": 9, "txid": "2d418f3ac868f50f05d5959b88be12d2c4d8fafd855230c290cf43ed5dd0892e"}, {"txinwitness": ["3045022100dece0b7ae72cbe058c38e1930087d8b5392202e021e43e897db541ef309d4c3902201c905b3856d49ec527f43497dc41431aaa24ec3b8c3840477166408d0d73130201", "039c4154876157e3da6bde092c7e630a325c21c6f4eb2d3075a7e95c80d0e47b3b"], "sequence": 4294967294, "scriptSig": {"hex": "160014c42ef26a0aba0b3ca9a146b2e4259fa1a5b43ac2", "asm": "0014c42ef26a0aba0b3ca9a146b2e4259fa1a5b43ac2"}, "vout": 0, "txid": "0f02aa0c6c941f53842077e08afde462a2240f206a4f4f289b93efa02ef206a0"}], "txid": "07c42cfd2a3f06822b22986feffa32cba39e71b890fe04739b8f4a14bb0ab712", "blocktime": 1537873282, "version": 2, "confirmations": 11481, "time": 1537873282, "locktime": 542995, "vsize": 438, "size": 761}