{"hash": "268821996576b12e5056fa0aba81673f9552a85a6c71ed90bed27982824557ca", "blockhash": "00000000000000000017f5eb5941039fbcee6240d03bc1f2f8e35350df66a1d8", "vout": [{"scriptPubKey": {"reqSigs": 1, "hex": "76a9147056659ddb6f7493bad508d3fb9133aca8036ef588ac", "addresses": ["1BEzBT5a4yFWZARZTVfYbStzL6VtMwS1mp"], "asm": "OP_DUP OP_HASH160 7056659ddb6f7493bad508d3fb9133aca8036ef5 OP_EQUALVERIFY OP_CHECKSIG", "type": "pubkeyhash"}, "value": 13.2051, "n": 0}, {"scriptPubKey": {"reqSigs": 1, "hex": "a91492323db1375b6430bf53e7eec34030d376cd609087", "addresses": ["3F22mMbMLAAGk8XuBoALY4SRqJPRKwG4wg"], "asm": "OP_HASH160 92323db1375b6430bf53e7eec34030d376cd6090 OP_EQUAL", "type": "scripthash"}, "value": 0.82289482, "n": 1}], "hex": "0100000000010146a805577506ebaa0feefeed6746205eb1749c4681c1513b14a533ddf9ed84a30000000017160014a84dc3edc9c5d25fd706b4a5cdff5256ad2c4b80ffffffff023062b54e000000001976a9147056659ddb6f7493bad508d3fb9133aca8036ef588ac4aa3e7040000000017a91492323db1375b6430bf53e7eec34030d376cd60908702483045022100952d69e063a2abcada36372b05679870f83fad41558d583e457126599b0cc1a50220553d58b56da11d9ed90250b06a09c63cca3e07e280c1552052e5bc4d0432fadc012102cfb50660f26747e71976c761d0db6c3ff8036f88b40b0de0f5f9d174ea59ab3e00000000", "vin": [{"txinwitness": ["3045022100952d69e063a2abcada36372b05679870f83fad41558d583e457126599b0cc1a50220553d58b56da11d9ed90250b06a09c63cca3e07e280c1552052e5bc4d0432fadc01", "02cfb50660f26747e71976c761d0db6c3ff8036f88b40b0de0f5f9d174ea59ab3e"], "sequence": 4294967295, "scriptSig": {"hex": "160014a84dc3edc9c5d25fd706b4a5cdff5256ad2c4b80", "asm": "0014a84dc3edc9c5d25fd706b4a5cdff5256ad2c4b80"}, "vout": 0, "txid": "a384edf9dd33a5143b51c181469c74b15e204667edfeee0faaeb06755705a846"}], "txid": "07c77c7ffa3f0297ef92e7a391536fb7d28c5b85a01d032437ed94df64e2ff3e", "blocktime": 1537874412, "version": 1, "confirmations": 11468, "time": 1537874412, "locktime": 0, "vsize": 168, "size": 250}