{"hash": "07c8de5f0f701233098f7534cb78d806d389d1182f480ea89e9b7390cc888254", "blockhash": "0000000000000000000e13cef7c366c0283d82e591d1acd082e914b08063cdf1", "vout": [{"scriptPubKey": {"type": "nulldata", "hex": "6a4c500000778e0001621ad1827c79e0dc044e20bae3ef3236678a625097bcbefa6b8351586b4e43474b8acf76eae3b5d2c1a6d719ddd75baa0c7106139fa1dc0af1d51d100759d4ba30d2c37bb011d97e02cf", "asm": "OP_RETURN 0000778e0001621ad1827c79e0dc044e20bae3ef3236678a625097bcbefa6b8351586b4e43474b8acf76eae3b5d2c1a6d719ddd75baa0c7106139fa1dc0af1d51d100759d4ba30d2c37bb011d97e02cf"}, "value": 0.0, "n": 0}, {"scriptPubKey": {"reqSigs": 1, "hex": "76a9148d2b9077482126a03d92fe37e46e2aaae6650f2888ac", "addresses": ["1DsSTx7BkMdysCBbycvKxWKrYUh1SeCt7G"], "asm": "OP_DUP OP_HASH160 8d2b9077482126a03d92fe37e46e2aaae6650f28 OP_EQUALVERIFY OP_CHECKSIG", "type": "pubkeyhash"}, "value": 0.00643309, "n": 1}], "hex": "010000000162f82bd7d0d27d8286be9ea4e9e47ab020169d828ea270cf7ee9bd52b78852e6010000006b483045022100e9a8bae491a866b4736836321205a6fb7660651400ced3bd22e957dc70081ba802206fc35359f2f8f3454ae07421be9480fc1a96b9b6406227b4fff5f2b3d2d59da8012102505b6a71e4fddf257bc1e970dbd83236ba5ce0f79158a209ad320ea67141c70effffffff020000000000000000536a4c500000778e0001621ad1827c79e0dc044e20bae3ef3236678a625097bcbefa6b8351586b4e43474b8acf76eae3b5d2c1a6d719ddd75baa0c7106139fa1dc0af1d51d100759d4ba30d2c37bb011d97e02cfedd00900000000001976a9148d2b9077482126a03d92fe37e46e2aaae6650f2888ac00000000", "vin": [{"sequence": 4294967295, "scriptSig": {"hex": "483045022100e9a8bae491a866b4736836321205a6fb7660651400ced3bd22e957dc70081ba802206fc35359f2f8f3454ae07421be9480fc1a96b9b6406227b4fff5f2b3d2d59da8012102505b6a71e4fddf257bc1e970dbd83236ba5ce0f79158a209ad320ea67141c70e", "asm": "3045022100e9a8bae491a866b4736836321205a6fb7660651400ced3bd22e957dc70081ba802206fc35359f2f8f3454ae07421be9480fc1a96b9b6406227b4fff5f2b3d2d59da8[ALL] 02505b6a71e4fddf257bc1e970dbd83236ba5ce0f79158a209ad320ea67141c70e"}, "vout": 1, "txid": "e65288b752bde97ecf70a28e829d1620b07ae4e9a49ebe86827dd2d0d72bf862"}], "txid": "07c8de5f0f701233098f7534cb78d806d389d1182f480ea89e9b7390cc888254", "blocktime": 1537871767, "version": 1, "confirmations": 11495, "time": 1537871767, "locktime": 0, "vsize": 284, "size": 284}