{"hash": "07d06ef5624cf2b46e8fd06bc4f7feb6486745d7fc9fa183f736dc90a4f3fb46", "blockhash": "0000000000000000001f76057863aec43deb6fa401d9628bb513d65a8098bfab", "vout": [{"scriptPubKey": {"reqSigs": 1, "hex": "76a91440979d848397b030fe44c78cbe28bb0306beaab888ac", "addresses": ["16tXshCaffpAoMTMt8DCiJB8akGLognM99"], "asm": "OP_DUP OP_HASH160 40979d848397b030fe44c78cbe28bb0306beaab8 OP_EQUALVERIFY OP_CHECKSIG", "type": "pubkeyhash"}, "value": 0.00021, "n": 0}, {"scriptPubKey": {"reqSigs": 1, "hex": "76a914846bbc63e80f48df22408eb9cd1abcaaea8c1a1788ac", "addresses": ["1D5BFwhj9CKNgRwFrYitdxado9HPxL2FCm"], "asm": "OP_DUP OP_HASH160 846bbc63e80f48df22408eb9cd1abcaaea8c1a17 OP_EQUALVERIFY OP_CHECKSIG", "type": "pubkeyhash"}, "value": 0.00030616, "n": 1}], "hex": "0100000001e2bd085edd0475748fdeab1287f15605acfd6040077bf15fcf1f533ead4f9d18010000006b483045022100dddbacef57a9f4c0d0bfa8c884c9a5e26720ac93a03fe6dc5a689b4c55a531290220743f8938e013f7b6c50a37b478ce465c1e935d8e1d104361a3a326d41888f3a8012103d7148a361163d25a8f96933d3aefc9e2820e0c9cd1c6dcf042015541db527dcbffffffff0208520000000000001976a91440979d848397b030fe44c78cbe28bb0306beaab888ac98770000000000001976a914846bbc63e80f48df22408eb9cd1abcaaea8c1a1788ac00000000", "vin": [{"sequence": 4294967295, "scriptSig": {"hex": "483045022100dddbacef57a9f4c0d0bfa8c884c9a5e26720ac93a03fe6dc5a689b4c55a531290220743f8938e013f7b6c50a37b478ce465c1e935d8e1d104361a3a326d41888f3a8012103d7148a361163d25a8f96933d3aefc9e2820e0c9cd1c6dcf042015541db527dcb", "asm": "3045022100dddbacef57a9f4c0d0bfa8c884c9a5e26720ac93a03fe6dc5a689b4c55a531290220743f8938e013f7b6c50a37b478ce465c1e935d8e1d104361a3a326d41888f3a8[ALL] 03d7148a361163d25a8f96933d3aefc9e2820e0c9cd1c6dcf042015541db527dcb"}, "vout": 1, "txid": "189d4fad3e531fcf5ff17b074060fdac0556f18712abde8f747504dd5e08bde2"}], "txid": "07d06ef5624cf2b46e8fd06bc4f7feb6486745d7fc9fa183f736dc90a4f3fb46", "blocktime": 1537873891, "version": 1, "confirmations": 11478, "time": 1537873891, "locktime": 0, "vsize": 226, "size": 226}