{"hash": "07d62e5b312113f11570f1768a872fdb0208bc48dfa5fa41365b17b6b015cade", "blockhash": "00000000000000000024a2167bbff67b0be802c0b01cdd79e6331c2be6459f87", "vout": [{"scriptPubKey": {"reqSigs": 1, "hex": "76a914191096343b825caa0848b91f906e15f4a6e721f188ac", "addresses": ["13HXmGDJa8Az4PJuHV37bCFKuNzYKJge9i"], "asm": "OP_DUP OP_HASH160 191096343b825caa0848b91f906e15f4a6e721f1 OP_EQUALVERIFY OP_CHECKSIG", "type": "pubkeyhash"}, "value": 0.0099, "n": 0}, {"scriptPubKey": {"reqSigs": 1, "hex": "76a91436aa4efa2cf831ddade0b595323539fd7fcbb2e588ac", "addresses": ["15z3WbsUiqmJJogxRuSkfdwccmCmu6dnTT"], "asm": "OP_DUP OP_HASH160 36aa4efa2cf831ddade0b595323539fd7fcbb2e5 OP_EQUALVERIFY OP_CHECKSIG", "type": "pubkeyhash"}, "value": 0.11137867, "n": 1}], "hex": "0100000001a3f5df5050747e815388d6149259b7cffbbd8c93bc47b5f9f179e4a0e6a1bbef010000006a47304402203d19be23272c04e9d2b0f647b15a0061ede0c4327234e4df4ee27e2a79dc000902204393307c7d12a5ff9ca48d16c5d3be8da3199ab0c978ac403d10b06f3cf341620121034791984ead6c448ff6e859c8b69b663cc4ad2cc8a35f1d910744ec723c8b402dffffffff02301b0f00000000001976a914191096343b825caa0848b91f906e15f4a6e721f188ac4bf3a900000000001976a91436aa4efa2cf831ddade0b595323539fd7fcbb2e588ac00000000", "vin": [{"sequence": 4294967295, "scriptSig": {"hex": "47304402203d19be23272c04e9d2b0f647b15a0061ede0c4327234e4df4ee27e2a79dc000902204393307c7d12a5ff9ca48d16c5d3be8da3199ab0c978ac403d10b06f3cf341620121034791984ead6c448ff6e859c8b69b663cc4ad2cc8a35f1d910744ec723c8b402d", "asm": "304402203d19be23272c04e9d2b0f647b15a0061ede0c4327234e4df4ee27e2a79dc000902204393307c7d12a5ff9ca48d16c5d3be8da3199ab0c978ac403d10b06f3cf34162[ALL] 034791984ead6c448ff6e859c8b69b663cc4ad2cc8a35f1d910744ec723c8b402d"}, "vout": 1, "txid": "efbba1e6a0e479f1f9b547bc938cbdfbcfb7599214d68853817e745050dff5a3"}], "txid": "07d62e5b312113f11570f1768a872fdb0208bc48dfa5fa41365b17b6b015cade", "blocktime": 1537870564, "version": 1, "confirmations": 11515, "time": 1537870564, "locktime": 0, "vsize": 225, "size": 225}