{"hash": "07dcf0df9ea61b96b4e386ccc4a6f46724db3a634cee10cca32d3ff8516b4d6b", "blockhash": "000000000000000000022b45ed06c6f4ccd3cf7fb5ba4856ebd2e58215665228", "vout": [{"scriptPubKey": {"reqSigs": 1, "hex": "76a9145b71758a01120ba15a883645ba5bc590652a204288ac", "addresses": ["19LWQjfbitBAGbdAV4f8QxX2M2Sk2AwJZA"], "asm": "OP_DUP OP_HASH160 5b71758a01120ba15a883645ba5bc590652a2042 OP_EQUALVERIFY OP_CHECKSIG", "type": "pubkeyhash"}, "value": 0.29998854, "n": 0}, {"scriptPubKey": {"reqSigs": 1, "hex": "76a914164fef7691b589696dd78676be82992821b9722d88ac", "addresses": ["132ydEJpjA7fXiCrTAwsNykPRGP3t5taUx"], "asm": "OP_DUP OP_HASH160 164fef7691b589696dd78676be82992821b9722d OP_EQUALVERIFY OP_CHECKSIG", "type": "pubkeyhash"}, "value": 0.7, "n": 1}], "hex": "0100000001f7629e79eb97dfbaf823f4cf14ea3723a848b1c6c169022ed37eb4d140b328fc000000006b48304502210083142ca8b7de154c10a788255a03702587b9f8065d858d825d3babad13c0ef7102205af52fa1e848a28370aa07789429f3db8101557f2f8f64d9bfcdefaddf263bf801210352255cc0d52327092b364751cb5d59de2fa86c2bb48c3c317c9467582cb49f20ffffffff0206bfc901000000001976a9145b71758a01120ba15a883645ba5bc590652a204288ac801d2c04000000001976a914164fef7691b589696dd78676be82992821b9722d88ac00000000", "vin": [{"sequence": 4294967295, "scriptSig": {"hex": "48304502210083142ca8b7de154c10a788255a03702587b9f8065d858d825d3babad13c0ef7102205af52fa1e848a28370aa07789429f3db8101557f2f8f64d9bfcdefaddf263bf801210352255cc0d52327092b364751cb5d59de2fa86c2bb48c3c317c9467582cb49f20", "asm": "304502210083142ca8b7de154c10a788255a03702587b9f8065d858d825d3babad13c0ef7102205af52fa1e848a28370aa07789429f3db8101557f2f8f64d9bfcdefaddf263bf8[ALL] 0352255cc0d52327092b364751cb5d59de2fa86c2bb48c3c317c9467582cb49f20"}, "vout": 0, "txid": "fc28b340d1b47ed32e0269c1c6b148a82337ea14cff423f8badf97eb799e62f7"}], "txid": "07dcf0df9ea61b96b4e386ccc4a6f46724db3a634cee10cca32d3ff8516b4d6b", "blocktime": 1537869901, "version": 1, "confirmations": 11524, "time": 1537869901, "locktime": 0, "vsize": 226, "size": 226}