{"hash": "07ddb633d59f731fa86f19c570e449691e9c85bc2962fbb9b1cb6cd29f0eb037", "blockhash": "00000000000000000017f5eb5941039fbcee6240d03bc1f2f8e35350df66a1d8", "vout": [{"scriptPubKey": {"reqSigs": 1, "hex": "76a91407e23c06061f871b3eb2d0b70a53d5820cc65dad88ac", "addresses": ["1igkPa6QDaGyX7BFH7qhVWrgDGg3Xe7Zz"], "asm": "OP_DUP OP_HASH160 07e23c06061f871b3eb2d0b70a53d5820cc65dad OP_EQUALVERIFY OP_CHECKSIG", "type": "pubkeyhash"}, "value": 0.00091918, "n": 0}, {"scriptPubKey": {"reqSigs": 1, "hex": "76a914aaf9f01b1d7eacf959adf4bf34419dc7588495ef88ac", "addresses": ["1Gb3Hbug1hKF3fcBmy6BLEFqeXtbfBLuXt"], "asm": "OP_DUP OP_HASH160 aaf9f01b1d7eacf959adf4bf34419dc7588495ef OP_EQUALVERIFY OP_CHECKSIG", "type": "pubkeyhash"}, "value": 0.0278789, "n": 1}], "hex": "0100000001ca4a00f0df07111065ceec52bceb30840205b4fe54411c70ce9146b18c7afffb000000006a47304402203d33d45c7ca2ce81db77aa5882b24141a391742a00ca0f0f12300e1164241892022006a585bfdff09a9151a5859fe8c35dbbffa2d7d40868a6e2bfaade809dc35709012102b9239b2a786a8a68acbc6d30a739768bcea87dc5fb69de0917e686b58cf472b3feffffff020e670100000000001976a91407e23c06061f871b3eb2d0b70a53d5820cc65dad88ac328a2a00000000001976a914aaf9f01b1d7eacf959adf4bf34419dc7588495ef88ac00000000", "vin": [{"sequence": 4294967294, "scriptSig": {"hex": "47304402203d33d45c7ca2ce81db77aa5882b24141a391742a00ca0f0f12300e1164241892022006a585bfdff09a9151a5859fe8c35dbbffa2d7d40868a6e2bfaade809dc35709012102b9239b2a786a8a68acbc6d30a739768bcea87dc5fb69de0917e686b58cf472b3", "asm": "304402203d33d45c7ca2ce81db77aa5882b24141a391742a00ca0f0f12300e1164241892022006a585bfdff09a9151a5859fe8c35dbbffa2d7d40868a6e2bfaade809dc35709[ALL] 02b9239b2a786a8a68acbc6d30a739768bcea87dc5fb69de0917e686b58cf472b3"}, "vout": 0, "txid": "fbff7a8cb14691ce701c4154feb405028430ebbc52ecce65101107dff0004aca"}], "txid": "07ddb633d59f731fa86f19c570e449691e9c85bc2962fbb9b1cb6cd29f0eb037", "blocktime": 1537874412, "version": 1, "confirmations": 11467, "time": 1537874412, "locktime": 0, "vsize": 225, "size": 225}