{"hash": "07ddc12cb80d6cc711fc46a4702754fbdf060033fd3e1473410f14851adc67b0", "blockhash": "0000000000000000000e13cef7c366c0283d82e591d1acd082e914b08063cdf1", "vout": [{"scriptPubKey": {"reqSigs": 1, "hex": "a91419c253f97393e566ac1e66f8ff3b75ce92ee79b887", "addresses": ["343DcVDtGUiht3BYKWsd1cpeRjnvsgNCTL"], "asm": "OP_HASH160 19c253f97393e566ac1e66f8ff3b75ce92ee79b8 OP_EQUAL", "type": "scripthash"}, "value": 0.00012, "n": 0}, {"scriptPubKey": {"reqSigs": 1, "hex": "76a914b0a05af8b21427c1aeb4ad251949fcf0552ecf7288ac", "addresses": ["1H6v2Sy5idvNv74xU96Xzxm2bZ7CuJ8gx7"], "asm": "OP_DUP OP_HASH160 b0a05af8b21427c1aeb4ad251949fcf0552ecf72 OP_EQUALVERIFY OP_CHECKSIG", "type": "pubkeyhash"}, "value": 0.00202706, "n": 1}], "hex": "01000000014eee90d8baf6a63e4749ec35db36a7a97f4f0e728f796c4a1b5c2091c532121f010000006b483045022100cd661c7c2d628abb3b3b1ecf669598759f3c9daebb605f0f0a4239b79198201802206531bcef12122bf0eddfdc1bf8c6cf1977a1b4dd20ef55299147a6e234a22e9e0121023e026f9e43b5d8fc43059427ba71b537b3e8c5aa0fe41412bd75df58051ee864ffffffff02e02e00000000000017a91419c253f97393e566ac1e66f8ff3b75ce92ee79b887d2170300000000001976a914b0a05af8b21427c1aeb4ad251949fcf0552ecf7288ac00000000", "vin": [{"sequence": 4294967295, "scriptSig": {"hex": "483045022100cd661c7c2d628abb3b3b1ecf669598759f3c9daebb605f0f0a4239b79198201802206531bcef12122bf0eddfdc1bf8c6cf1977a1b4dd20ef55299147a6e234a22e9e0121023e026f9e43b5d8fc43059427ba71b537b3e8c5aa0fe41412bd75df58051ee864", "asm": "3045022100cd661c7c2d628abb3b3b1ecf669598759f3c9daebb605f0f0a4239b79198201802206531bcef12122bf0eddfdc1bf8c6cf1977a1b4dd20ef55299147a6e234a22e9e[ALL] 023e026f9e43b5d8fc43059427ba71b537b3e8c5aa0fe41412bd75df58051ee864"}, "vout": 1, "txid": "1f1232c591205c1b4a6c798f720e4f7fa9a736db35ec49473ea6f6bad890ee4e"}], "txid": "07ddc12cb80d6cc711fc46a4702754fbdf060033fd3e1473410f14851adc67b0", "blocktime": 1537871767, "version": 1, "confirmations": 11492, "time": 1537871767, "locktime": 0, "vsize": 224, "size": 224}