{"hash": "07e2314c731798e6764fe8e775e953f002986c698cd9da20aef7dad031d2e056", "blockhash": "0000000000000000001cda96e906b7601b7a6fb1a3b62bca570a9e5d8f4b3de1", "vout": [{"scriptPubKey": {"reqSigs": 1, "hex": "76a914769c49407ac3b546b140f0b2db5910a7180ccb2388ac", "addresses": ["1Bp9xb4w6WukGJMgivqCQetYVAnmgf1RTh"], "asm": "OP_DUP OP_HASH160 769c49407ac3b546b140f0b2db5910a7180ccb23 OP_EQUALVERIFY OP_CHECKSIG", "type": "pubkeyhash"}, "value": 0.008772, "n": 0}, {"scriptPubKey": {"reqSigs": 1, "hex": "76a91415ee84f9f80a385f50620dcf8767ee255ddebe0388ac", "addresses": ["12zxvegJQU1gsuQqtMCcRJdQQmUpwztdXZ"], "asm": "OP_DUP OP_HASH160 15ee84f9f80a385f50620dcf8767ee255ddebe03 OP_EQUALVERIFY OP_CHECKSIG", "type": "pubkeyhash"}, "value": 0.21470912, "n": 1}], "hex": "0100000001775c831e8b13ddee2f7c0d4469bf3aaa5b474f2fac3320155dfe273b39d48b66010000006b483045022100c9cdc21a179aef17115648be589a50d1fe4f62da93ad04c6661bb5daa27a515a0220198c5201b9688fbcdeb04bd37477cfac800b0cbc3764e17af5f666a0a66d4cf9012102bcbb9b0b10e501f36fba1241f5858a6f2e83cd30274d91232ec86dd417b1844fffffffff0290620d00000000001976a914769c49407ac3b546b140f0b2db5910a7180ccb2388acc09e4701000000001976a91415ee84f9f80a385f50620dcf8767ee255ddebe0388ac00000000", "vin": [{"sequence": 4294967295, "scriptSig": {"hex": "483045022100c9cdc21a179aef17115648be589a50d1fe4f62da93ad04c6661bb5daa27a515a0220198c5201b9688fbcdeb04bd37477cfac800b0cbc3764e17af5f666a0a66d4cf9012102bcbb9b0b10e501f36fba1241f5858a6f2e83cd30274d91232ec86dd417b1844f", "asm": "3045022100c9cdc21a179aef17115648be589a50d1fe4f62da93ad04c6661bb5daa27a515a0220198c5201b9688fbcdeb04bd37477cfac800b0cbc3764e17af5f666a0a66d4cf9[ALL] 02bcbb9b0b10e501f36fba1241f5858a6f2e83cd30274d91232ec86dd417b1844f"}, "vout": 1, "txid": "668bd4393b27fe5d152033ac2f4f475baa3abf69440d7c2feedd138b1e835c77"}], "txid": "07e2314c731798e6764fe8e775e953f002986c698cd9da20aef7dad031d2e056", "blocktime": 1537873282, "version": 1, "confirmations": 11485, "time": 1537873282, "locktime": 0, "vsize": 226, "size": 226}