{"hash": "5b2210d25e73c1c1569e9acd2bb0008b75171cbf82b65d3b2e78d4590f06fb38", "blockhash": "00000000000000000024a2167bbff67b0be802c0b01cdd79e6331c2be6459f87", "vout": [{"scriptPubKey": {"reqSigs": 1, "hex": "a9148f3237c9e273aa61cec6b11aff6b67ec3d41f30c87", "addresses": ["3EkAiBHDeS8KXMsDnsyJZDhqyUekjkyKAB"], "asm": "OP_HASH160 8f3237c9e273aa61cec6b11aff6b67ec3d41f30c OP_EQUAL", "type": "scripthash"}, "value": 3e-05, "n": 0}, {"scriptPubKey": {"reqSigs": 1, "hex": "a9141d7370ccde4590204155e4074f69743a8e4fac0287", "addresses": ["34Njp4ZKtmCDfqqps26wHBYQQGUo2pGkLi"], "asm": "OP_HASH160 1d7370ccde4590204155e4074f69743a8e4fac02 OP_EQUAL", "type": "scripthash"}, "value": 0.00026833, "n": 1}], "hex": "0100000000010174768186247d69500ce354e706c0c49e47decaf238b0388f427b9ab8d77ebac00100000023220020f63dfc12340f6360d0251c22746d6b56093e3243e96ca012a65484a5d9cf0ec0ffffffff02b80b00000000000017a9148f3237c9e273aa61cec6b11aff6b67ec3d41f30c87d16800000000000017a9141d7370ccde4590204155e4074f69743a8e4fac028704004730440220796de5ee0862c7c337062b37d5f226666abf31e95fc6119c803904c2db8e6be802205f1713be9e8f548bbb3537364a6602a349c17010f3714830413c2a6ba714fa6a0147304402206a546325cb41be6ab80f913d0856f5fb65c37f869650c3bd3eae21cab0e7e06a02200b4e52c13042057b524cc052b6612b9436a37b53d8f35e6ecb2d2bb31eea67520147522102097067a6a0cc130a9a6f6577b47bf369b840a79de31cd7457187994266b1bb7c2103338f346cab6ba87fe940591a03ac234be06520c5ab386d4b6632e8eef0d0db7652ae00000000", "vin": [{"txinwitness": ["", "30440220796de5ee0862c7c337062b37d5f226666abf31e95fc6119c803904c2db8e6be802205f1713be9e8f548bbb3537364a6602a349c17010f3714830413c2a6ba714fa6a01", "304402206a546325cb41be6ab80f913d0856f5fb65c37f869650c3bd3eae21cab0e7e06a02200b4e52c13042057b524cc052b6612b9436a37b53d8f35e6ecb2d2bb31eea675201", "522102097067a6a0cc130a9a6f6577b47bf369b840a79de31cd7457187994266b1bb7c2103338f346cab6ba87fe940591a03ac234be06520c5ab386d4b6632e8eef0d0db7652ae"], "sequence": 4294967295, "scriptSig": {"hex": "220020f63dfc12340f6360d0251c22746d6b56093e3243e96ca012a65484a5d9cf0ec0", "asm": "0020f63dfc12340f6360d0251c22746d6b56093e3243e96ca012a65484a5d9cf0ec0"}, "vout": 1, "txid": "c0ba7ed7b89a7b428f38b038f2cade479ec4c006e754e30c50697d2486817674"}], "txid": "07e2161dca8109e3ddea4c511f977b340ff276cd74f78559f24f1948ce7187d2", "blocktime": 1537870564, "version": 1, "confirmations": 11515, "time": 1537870564, "locktime": 0, "vsize": 205, "size": 370}