{"hash": "eaeaf9742f8a3b89b6107474d9a55a47b9063b01a0700b4720305465dfbfb0ea", "blockhash": "00000000000000000018f53835495a110e01622372bf6ae95dc86f2b0ab887b0", "vout": [{"scriptPubKey": {"reqSigs": 1, "hex": "a914d381debe77f61bb9ea5f6c2a375c05deab1ca1a887", "addresses": ["3LyN5Yz8vCWcjRCVAhur5k13GAeZLUmckQ"], "asm": "OP_HASH160 d381debe77f61bb9ea5f6c2a375c05deab1ca1a8 OP_EQUAL", "type": "scripthash"}, "value": 0.00044414, "n": 0}, {"scriptPubKey": {"reqSigs": 1, "hex": "0014c8697c8978905f7deb041c83f44b1e3bcab4ea1f", "addresses": ["bc1qep5heztcjp0hm6cyrjplgjc7809tf6slzahgwe"], "asm": "0 c8697c8978905f7deb041c83f44b1e3bcab4ea1f", "type": "witness_v0_keyhash"}, "value": 1.363e-05, "n": 1}], "hex": "01000000000101a748d4a34bb6ed4a292f3f96f359d8107322e4addbaafddb68064ea6f444ea540000000000ffffffff027ead00000000000017a914d381debe77f61bb9ea5f6c2a375c05deab1ca1a8875305000000000000160014c8697c8978905f7deb041c83f44b1e3bcab4ea1f0247304402204b0bdef8cf63d0b811a87862f073ec859655c3feb4fd39042d4e07409f54d60002202bd4cd183e184d4949b0ca0d47a66aae4dcd5852de7facbc6d3442dacde59b0e0121020395a6aca65bd4aaff12f6bbf8b4c53ca2c1e1c2241b4036cee6ab91a825a3cc00000000", "vin": [{"txinwitness": ["304402204b0bdef8cf63d0b811a87862f073ec859655c3feb4fd39042d4e07409f54d60002202bd4cd183e184d4949b0ca0d47a66aae4dcd5852de7facbc6d3442dacde59b0e01", "020395a6aca65bd4aaff12f6bbf8b4c53ca2c1e1c2241b4036cee6ab91a825a3cc"], "sequence": 4294967295, "scriptSig": {"hex": "", "asm": ""}, "vout": 0, "txid": "54ea44f4a64e0668dbfdaadbade4227310d859f3963f2f294aedb64ba3d448a7"}], "txid": "07e7c012d19ef551ffd532ed39323fce7e37d736fbce07335a111befeaf50003", "blocktime": 1537870928, "version": 1, "confirmations": 11512, "time": 1537870928, "locktime": 0, "vsize": 142, "size": 223}