{"hash": "07ff64876fa2c0c16a06c1c293b7fda301a4c4d4485ad7ce74015f27e65abf13", "blockhash": "0000000000000000000e13cef7c366c0283d82e591d1acd082e914b08063cdf1", "vout": [{"scriptPubKey": {"reqSigs": 1, "hex": "76a914ba5a3f81ca5675b0a0507e50c5fd21a56afb26df88ac", "addresses": ["1HzLoE9E5tym55P7GahmfVVGT8B5bNa8kc"], "asm": "OP_DUP OP_HASH160 ba5a3f81ca5675b0a0507e50c5fd21a56afb26df OP_EQUALVERIFY OP_CHECKSIG", "type": "pubkeyhash"}, "value": 0.46858892, "n": 0}, {"scriptPubKey": {"reqSigs": 1, "hex": "76a914eeb738cbd9a415e91f5dbe00d63191554503cf7e88ac", "addresses": ["1NmDK8kjALhMKAcvWpNS6Nanu2UTLeHMdJ"], "asm": "OP_DUP OP_HASH160 eeb738cbd9a415e91f5dbe00d63191554503cf7e OP_EQUALVERIFY OP_CHECKSIG", "type": "pubkeyhash"}, "value": 4.53098848, "n": 1}], "hex": "01000000014e221c0d63114e0c61437bb614c633398bd9ba1fee5a6d5104e60cf5e43a639d010000006b483045022100bba8259017988c2efd5d894b290dac6e14a3feac9354ddef1673956b30b7aca6022000ddecf8342b98f2c5f219b1d2d38a0e01d84f9060b7ec76ee9b314a1bc65581012102be3590bffa5cb7d1171e9f0e1d6991c5d6e796bc757f661d606e0677f8eac156ffffffff028c02cb02000000001976a914ba5a3f81ca5675b0a0507e50c5fd21a56afb26df88ac60bd011b000000001976a914eeb738cbd9a415e91f5dbe00d63191554503cf7e88ac00000000", "vin": [{"sequence": 4294967295, "scriptSig": {"hex": "483045022100bba8259017988c2efd5d894b290dac6e14a3feac9354ddef1673956b30b7aca6022000ddecf8342b98f2c5f219b1d2d38a0e01d84f9060b7ec76ee9b314a1bc65581012102be3590bffa5cb7d1171e9f0e1d6991c5d6e796bc757f661d606e0677f8eac156", "asm": "3045022100bba8259017988c2efd5d894b290dac6e14a3feac9354ddef1673956b30b7aca6022000ddecf8342b98f2c5f219b1d2d38a0e01d84f9060b7ec76ee9b314a1bc65581[ALL] 02be3590bffa5cb7d1171e9f0e1d6991c5d6e796bc757f661d606e0677f8eac156"}, "vout": 1, "txid": "9d633ae4f50ce604516d5aee1fbad98b3933c614b67b43610c4e11630d1c224e"}], "txid": "07ff64876fa2c0c16a06c1c293b7fda301a4c4d4485ad7ce74015f27e65abf13", "blocktime": 1537871767, "version": 1, "confirmations": 11491, "time": 1537871767, "locktime": 0, "vsize": 226, "size": 226}