{"hash": "0c8ec30485059724a703a8225179cdd6aa3755596d784ef2c86475b6376bcaa4", "blockhash": "0000000000000000000baef3f32e3676a92c3b2e5da21b426e4f302fc371ce76", "vout": [{"scriptPubKey": {"reqSigs": 1, "hex": "a914d732e66f95bf9d01222a0e2711cf7bb8d7c4d19587", "addresses": ["3MJtBPdgoczgUnXMpUguA3udSWuaaWoDYU"], "asm": "OP_HASH160 d732e66f95bf9d01222a0e2711cf7bb8d7c4d195 OP_EQUAL", "type": "scripthash"}, "value": 0.01616687, "n": 0}, {"scriptPubKey": {"reqSigs": 1, "hex": "a914b85fbf60a6ba90609a7169fe5507d39563c63dd587", "addresses": ["3JVtxVrLZFMtMtiugWpi3tF6Cg2wiNTtMX"], "asm": "OP_HASH160 b85fbf60a6ba90609a7169fe5507d39563c63dd5 OP_EQUAL", "type": "scripthash"}, "value": 0.11111392, "n": 1}], "hex": "010000000001017ca4c85683d58851f2270606e491fafe4db8706504f9b4d4aa6badb53c264986010000002322002073ce2809cc3eb88107c85ccecfc8905765b7c78a3dae54cc2017f905071e8b7bffffffff022fab18000000000017a914d732e66f95bf9d01222a0e2711cf7bb8d7c4d19587e08ba9000000000017a914b85fbf60a6ba90609a7169fe5507d39563c63dd5870400473044022048d1fb7b504521f1a80c25a5f660df04190fd71a44f25aca32b54c7505f4eb750220542dc6c80a220aa99e098b9cefbb2a5e6499f5497ebf4b66ff41a05195b502df014730440220704f2ba7bbba8a431de37b1d81333249b99a90615959685f025799e05cfbfc8f02201432092bc4d4fd8951a1b2c00847e45e1734d5d43340f4453d1ca5c470c7733001475221026a42a9fca583a4a65496c8ddf67116f6af889f3675cd483bf11a335e536a651b2103f62b1d27158b53be9caeae920614d9c61c0d4e3ab8a2b8afbc8e020933c6e68352ae00000000", "vin": [{"txinwitness": ["", "3044022048d1fb7b504521f1a80c25a5f660df04190fd71a44f25aca32b54c7505f4eb750220542dc6c80a220aa99e098b9cefbb2a5e6499f5497ebf4b66ff41a05195b502df01", "30440220704f2ba7bbba8a431de37b1d81333249b99a90615959685f025799e05cfbfc8f02201432092bc4d4fd8951a1b2c00847e45e1734d5d43340f4453d1ca5c470c7733001", "5221026a42a9fca583a4a65496c8ddf67116f6af889f3675cd483bf11a335e536a651b2103f62b1d27158b53be9caeae920614d9c61c0d4e3ab8a2b8afbc8e020933c6e68352ae"], "sequence": 4294967295, "scriptSig": {"hex": "22002073ce2809cc3eb88107c85ccecfc8905765b7c78a3dae54cc2017f905071e8b7b", "asm": "002073ce2809cc3eb88107c85ccecfc8905765b7c78a3dae54cc2017f905071e8b7b"}, "vout": 1, "txid": "8649263cb5ad6baad4b4f9046570b84dfefa91e4060627f25188d58356c8a47c"}], "txid": "0802286737678341767a9cadca6a1540c90ddce114bdc381f457cfff0514da16", "blocktime": 1537876114, "version": 1, "confirmations": 11460, "time": 1537876114, "locktime": 0, "vsize": 205, "size": 370}