{"hash": "81287e6150b02a09d1a87eeb1f22f9e833e80801833030d8f455bd922105a3ef", "blockhash": "00000000000000000004ffacab907a6b429b9a5745fa0b75af4234bf69dd7176", "vout": [{"scriptPubKey": {"reqSigs": 1, "hex": "a914dcd47c4db78f8f39b35b125e15a724751bb911cc87", "addresses": ["3Mpf8W57vsU65YvyAXJL5PkD9qMDUxcdzS"], "asm": "OP_HASH160 dcd47c4db78f8f39b35b125e15a724751bb911cc OP_EQUAL", "type": "scripthash"}, "value": 0.01935825, "n": 0}, {"scriptPubKey": {"reqSigs": 1, "hex": "76a9149e883d95488104761b598c8f76daa294b3b2129488ac", "addresses": ["1FTEyUDR3gjSanXZbZdqCWqbADT9nM61D9"], "asm": "OP_DUP OP_HASH160 9e883d95488104761b598c8f76daa294b3b21294 OP_EQUALVERIFY OP_CHECKSIG", "type": "pubkeyhash"}, "value": 0.019927, "n": 1}], "hex": "02000000000102c61c6229c6bde7fe638f8b4a92c6a9db3dab4c00bb5a589f8e72d4a63bcd67b600000000171600141bce3d7be46c4c28915feb3822c9fe1ef8e28ad7fdffffffd3eddcf5d23af7d6a13dcec4dbf587aa4e03ee255a72c1ec5c9c801933dbe5fe0100000017160014e9c5a69271c8d9186a648bf7bef71fd406f57170fdffffff02d1891d000000000017a914dcd47c4db78f8f39b35b125e15a724751bb911cc87fc671e00000000001976a9149e883d95488104761b598c8f76daa294b3b2129488ac0247304402201cd75488bdd04be5156dc0f3c3820784235834df61240ad0fe3dd8cc79f89ac60220338947aeb2a40138684c49fa1027709f14ead0e3e5a6dfa0a46c366c0a58150e0121030fb829967d4329444d593dbc895a06f579a43cb707a8ed942f43b01ac9be9638024730440220719ec2a5511f984ae969acdab9c3fb42f44313d2992b7b478cc9b6e57abc4720022069d5ef15411c58a7390db4b1580fe0ac6ef89900ac4bec12cd302075b5dca0c3012103273ed272ac3b7f55a9998d84b2dbadfee3e4c829e5fc945b2a9e5a36b8c68c0e16490800", "vin": [{"txinwitness": ["304402201cd75488bdd04be5156dc0f3c3820784235834df61240ad0fe3dd8cc79f89ac60220338947aeb2a40138684c49fa1027709f14ead0e3e5a6dfa0a46c366c0a58150e01", "030fb829967d4329444d593dbc895a06f579a43cb707a8ed942f43b01ac9be9638"], "sequence": 4294967293, "scriptSig": {"hex": "1600141bce3d7be46c4c28915feb3822c9fe1ef8e28ad7", "asm": "00141bce3d7be46c4c28915feb3822c9fe1ef8e28ad7"}, "vout": 0, "txid": "b667cd3ba6d4728e9f585abb004cab3ddba9c6924a8b8f63fee7bdc629621cc6"}, {"txinwitness": ["30440220719ec2a5511f984ae969acdab9c3fb42f44313d2992b7b478cc9b6e57abc4720022069d5ef15411c58a7390db4b1580fe0ac6ef89900ac4bec12cd302075b5dca0c301", "03273ed272ac3b7f55a9998d84b2dbadfee3e4c829e5fc945b2a9e5a36b8c68c0e"], "sequence": 4294967293, "scriptSig": {"hex": "160014e9c5a69271c8d9186a648bf7bef71fd406f57170", "asm": "0014e9c5a69271c8d9186a648bf7bef71fd406f57170"}, "vout": 1, "txid": "fee5db3319809c5cecc1725a25ee034eaa87f5dbc4ce3da1d6f73ad2f5dcedd3"}], "txid": "0804f733a9ac95397d0812df17f29d49c7aa635b6abbd8f47fed24a2a01c87a6", "blocktime": 1537875543, "version": 2, "confirmations": 11464, "time": 1537875543, "locktime": 542998, "vsize": 258, "size": 420}