{"hash": "045bcce1af644806453b32f74b536a2e38bd0e1b66ca708daef28c182bd3dec5", "blockhash": "000000000000000000022b45ed06c6f4ccd3cf7fb5ba4856ebd2e58215665228", "vout": [{"scriptPubKey": {"reqSigs": 1, "hex": "a91482cfa4f68a9abcc9a8412b566a73e7f050e6390e87", "addresses": ["3DcgWsDdgvVUfQzXU8g4RJaWJN3gCEZZ7C"], "asm": "OP_HASH160 82cfa4f68a9abcc9a8412b566a73e7f050e6390e OP_EQUAL", "type": "scripthash"}, "value": 0.05442361, "n": 0}, {"scriptPubKey": {"reqSigs": 1, "hex": "a914b6482828d4ea111cade22c6f782dfa0edd79d09987", "addresses": ["3JJqM1Co3CdWB1CuytCL89icnSpv2JzWpc"], "asm": "OP_HASH160 b6482828d4ea111cade22c6f782dfa0edd79d099 OP_EQUAL", "type": "scripthash"}, "value": 0.004, "n": 1}, {"scriptPubKey": {"reqSigs": 1, "hex": "a914aba304dca90cd2ef32ee4414b669664d0afd25c187", "addresses": ["3HLYm737Jtja4GKNYzntmiQnYS6rwTahCU"], "asm": "OP_HASH160 aba304dca90cd2ef32ee4414b669664d0afd25c1 OP_EQUAL", "type": "scripthash"}, "value": 2e-05, "n": 2}], "hex": "020000000001015a19ea7a149918d9fcd1b23e535b9a614ac0f30aa361a11c0e401eeaf5282a500100000017160014d9437e56c6a9a3b5049c187b807b8a6f5b136a33feffffff03390b53000000000017a91482cfa4f68a9abcc9a8412b566a73e7f050e6390e87801a06000000000017a914b6482828d4ea111cade22c6f782dfa0edd79d09987d00700000000000017a914aba304dca90cd2ef32ee4414b669664d0afd25c18702483045022100931414a908fe044cc1bef9bd9a305270c71ccd8a57682cb93dda04f0dd66df3502207171e30ec2f919e1b13c59f020230f98cc593f2f43e60a32bf0008d448d96290012103357bde05619a1948a6a46d940215fe39ba53ead2c74e50b4445a31dc0881f59c0b490800", "vin": [{"txinwitness": ["3045022100931414a908fe044cc1bef9bd9a305270c71ccd8a57682cb93dda04f0dd66df3502207171e30ec2f919e1b13c59f020230f98cc593f2f43e60a32bf0008d448d9629001", "03357bde05619a1948a6a46d940215fe39ba53ead2c74e50b4445a31dc0881f59c"], "sequence": 4294967294, "scriptSig": {"hex": "160014d9437e56c6a9a3b5049c187b807b8a6f5b136a33", "asm": "0014d9437e56c6a9a3b5049c187b807b8a6f5b136a33"}, "vout": 1, "txid": "502a28f5ea1e400e1ca161a30af3c04a619a5b533eb2d1fcd91899147aea195a"}], "txid": "0805394abc8e285d1d9616d60ed5fae2fd652709048f281e20a15c9f194affe3", "blocktime": 1537869901, "version": 2, "confirmations": 11522, "time": 1537869901, "locktime": 542987, "vsize": 198, "size": 280}