{"hash": "0805ab78a62f9a99ef4e7b849d759384788c6f9f0a05b0bc5c422bda74b3f2e2", "blockhash": "00000000000000000004ffacab907a6b429b9a5745fa0b75af4234bf69dd7176", "vout": [{"scriptPubKey": {"reqSigs": 1, "hex": "a9143d284530463b098d489579d3c72c11f75939176587", "addresses": ["37GPPGmXQmMTtT9krKX7K7gcAbNy1v5sUH"], "asm": "OP_HASH160 3d284530463b098d489579d3c72c11f759391765 OP_EQUAL", "type": "scripthash"}, "value": 5.8583546, "n": 0}], "hex": "010000000493e1f76c4d2e6bfe33c02ed66ebb78d6b8ea35c2a9320c1783846805f8224722000000006a4730440220430425beab3a32b2edfc40cc0a230806f959419556aee56e375717133ab93c9a022048c95fd9d73a2fdc60674259b61ace2d5f80641d7091d567d153d5e2ff28fd840121025f55406d3970697d65590e24e7d688b9c6c09b77ebc43bdd1857127521488f7bffffffff61036798d7c4b38e12512838ffe5e0de74165cd4ce197c87229e1678bf78d351020000006b483045022100a2ad0107a50cb4aa9278320c28ab82762a60c031481658fb64ed656c71eb967702206d2de6ff6beb9de43b01bbb9ea0636e326e5db1bd69695e32f41ae366c2ecfa00121021be58b4bd3f1c632fc107cb6a939c1ca2ae8a5f69b3d2587adcb1698b8b91fcbffffffff91a198c03105da43cafbd272cdd905f3c3235670bd1133bdc524385bcf5b4db4480000006a473044022037e860449efa249a0af08cd6b1456adc57ad6fb4d6886b48fff3b17a292ba79d022018f4c87934a00aba5464bb02b9d8c836da826bda5a70420cd671bf6c2cb4de650121031c6ac1d6cf5b07784ed5eb55cc2a5def215cf249a1ee595afa0ef3474493f087ffffffff7a3ab58912148a92ac2e75d080750f909480520fd5d4c2540bf8769dbc49d1fd050000006a47304402202fae674b3244cc7d329d6752f1dac52458174aff3e38515570819a0c64f4ca08022000a3603b778d0815de215365b060c78cc2d7bf58238bfec32c1b28dd609378910121031c6ac1d6cf5b07784ed5eb55cc2a5def215cf249a1ee595afa0ef3474493f087ffffffff01c423eb220000000017a9143d284530463b098d489579d3c72c11f7593917658700000000", "vin": [{"sequence": 4294967295, "scriptSig": {"hex": "4730440220430425beab3a32b2edfc40cc0a230806f959419556aee56e375717133ab93c9a022048c95fd9d73a2fdc60674259b61ace2d5f80641d7091d567d153d5e2ff28fd840121025f55406d3970697d65590e24e7d688b9c6c09b77ebc43bdd1857127521488f7b", "asm": "30440220430425beab3a32b2edfc40cc0a230806f959419556aee56e375717133ab93c9a022048c95fd9d73a2fdc60674259b61ace2d5f80641d7091d567d153d5e2ff28fd84[ALL] 025f55406d3970697d65590e24e7d688b9c6c09b77ebc43bdd1857127521488f7b"}, "vout": 0, "txid": "224722f805688483170c32a9c235eab8d678bb6ed62ec033fe6b2e4d6cf7e193"}, {"sequence": 4294967295, "scriptSig": {"hex": "483045022100a2ad0107a50cb4aa9278320c28ab82762a60c031481658fb64ed656c71eb967702206d2de6ff6beb9de43b01bbb9ea0636e326e5db1bd69695e32f41ae366c2ecfa00121021be58b4bd3f1c632fc107cb6a939c1ca2ae8a5f69b3d2587adcb1698b8b91fcb", "asm": "3045022100a2ad0107a50cb4aa9278320c28ab82762a60c031481658fb64ed656c71eb967702206d2de6ff6beb9de43b01bbb9ea0636e326e5db1bd69695e32f41ae366c2ecfa0[ALL] 021be58b4bd3f1c632fc107cb6a939c1ca2ae8a5f69b3d2587adcb1698b8b91fcb"}, "vout": 2, "txid": "51d378bf78169e22877c19ced45c1674dee0e5ff382851128eb3c4d798670361"}, {"sequence": 4294967295, "scriptSig": {"hex": "473044022037e860449efa249a0af08cd6b1456adc57ad6fb4d6886b48fff3b17a292ba79d022018f4c87934a00aba5464bb02b9d8c836da826bda5a70420cd671bf6c2cb4de650121031c6ac1d6cf5b07784ed5eb55cc2a5def215cf249a1ee595afa0ef3474493f087", "asm": "3044022037e860449efa249a0af08cd6b1456adc57ad6fb4d6886b48fff3b17a292ba79d022018f4c87934a00aba5464bb02b9d8c836da826bda5a70420cd671bf6c2cb4de65[ALL] 031c6ac1d6cf5b07784ed5eb55cc2a5def215cf249a1ee595afa0ef3474493f087"}, "vout": 72, "txid": "b44d5bcf5b3824c5bd3311bd705623c3f305d9cd72d2fbca43da0531c098a191"}, {"sequence": 4294967295, "scriptSig": {"hex": "47304402202fae674b3244cc7d329d6752f1dac52458174aff3e38515570819a0c64f4ca08022000a3603b778d0815de215365b060c78cc2d7bf58238bfec32c1b28dd609378910121031c6ac1d6cf5b07784ed5eb55cc2a5def215cf249a1ee595afa0ef3474493f087", "asm": "304402202fae674b3244cc7d329d6752f1dac52458174aff3e38515570819a0c64f4ca08022000a3603b778d0815de215365b060c78cc2d7bf58238bfec32c1b28dd60937891[ALL] 031c6ac1d6cf5b07784ed5eb55cc2a5def215cf249a1ee595afa0ef3474493f087"}, "vout": 5, "txid": "fdd149bc9d76f80b54c2d4d50f528094900f7580d0752eac928a141289b53a7a"}], "txid": "0805ab78a62f9a99ef4e7b849d759384788c6f9f0a05b0bc5c422bda74b3f2e2", "blocktime": 1537875543, "version": 1, "confirmations": 11464, "time": 1537875543, "locktime": 0, "vsize": 631, "size": 631}