{"hash": "080fc79f34330bb79d9258d8b24a222a539a0f13817bb240e1f034b684c231d9", "blockhash": "0000000000000000000e13cef7c366c0283d82e591d1acd082e914b08063cdf1", "vout": [{"scriptPubKey": {"reqSigs": 1, "hex": "76a914aaccd15cac2820be9680bef86b1a45b29f4de7f888ac", "addresses": ["1Ga7Ebxs6GyX5iy8KdMW4oN6dxZT4dVpuB"], "asm": "OP_DUP OP_HASH160 aaccd15cac2820be9680bef86b1a45b29f4de7f8 OP_EQUALVERIFY OP_CHECKSIG", "type": "pubkeyhash"}, "value": 0.66533599, "n": 0}, {"scriptPubKey": {"reqSigs": 1, "hex": "76a914fb43a0647a7c2166aad813a9fa3f088d5abcae6988ac", "addresses": ["1PuZcvZ6sbBvx2exhBSuo1qSHagjwiKigy"], "asm": "OP_DUP OP_HASH160 fb43a0647a7c2166aad813a9fa3f088d5abcae69 OP_EQUALVERIFY OP_CHECKSIG", "type": "pubkeyhash"}, "value": 1.13465535, "n": 1}], "hex": "01000000010f2652f6bd4191a08e0305a9603b3a1cd73f0d3f7f86fe8ec09b6fee7038570b010000006b483045022100f9094ab779bc87e6a62379049ab13773aa5db8c2898431b86286c6791c761d1702201317da9bbf8ad3e0141c5594ba9926aaef7aaaad3a99c8c9fa20299db2548a600121036c455ee700400b1a2ce6be79cb975db643632e37076b4e5cb2d84fd44b76218cffffffff02df38f703000000001976a914aaccd15cac2820be9680bef86b1a45b29f4de7f888acbf58c306000000001976a914fb43a0647a7c2166aad813a9fa3f088d5abcae6988ac00000000", "vin": [{"sequence": 4294967295, "scriptSig": {"hex": "483045022100f9094ab779bc87e6a62379049ab13773aa5db8c2898431b86286c6791c761d1702201317da9bbf8ad3e0141c5594ba9926aaef7aaaad3a99c8c9fa20299db2548a600121036c455ee700400b1a2ce6be79cb975db643632e37076b4e5cb2d84fd44b76218c", "asm": "3045022100f9094ab779bc87e6a62379049ab13773aa5db8c2898431b86286c6791c761d1702201317da9bbf8ad3e0141c5594ba9926aaef7aaaad3a99c8c9fa20299db2548a60[ALL] 036c455ee700400b1a2ce6be79cb975db643632e37076b4e5cb2d84fd44b76218c"}, "vout": 1, "txid": "0b573870ee6f9bc08efe867f3f0d3fd71c3a3b60a905038ea09141bdf652260f"}], "txid": "080fc79f34330bb79d9258d8b24a222a539a0f13817bb240e1f034b684c231d9", "blocktime": 1537871767, "version": 1, "confirmations": 11494, "time": 1537871767, "locktime": 0, "vsize": 226, "size": 226}