{"hash": "ae0985f45ada42f1a2c781c4ab8d97127c4394a93213103a0a80daa082b77643", "blockhash": "0000000000000000001f76057863aec43deb6fa401d9628bb513d65a8098bfab", "vout": [{"scriptPubKey": {"reqSigs": 1, "hex": "a9148270594aeff9a7149bc17533044518b113615d0a87", "addresses": ["3DaiMcWw1nmzCkSGd3UjqEYu9afg5WmuBj"], "asm": "OP_HASH160 8270594aeff9a7149bc17533044518b113615d0a OP_EQUAL", "type": "scripthash"}, "value": 0.02269383, "n": 0}, {"scriptPubKey": {"reqSigs": 1, "hex": "a914185c92cf1c168335492a8031a2d5707ac742d55c87", "addresses": ["33uq3GLqFVcCczuAWbgzwm4YZQ1XEG6oQh"], "asm": "OP_HASH160 185c92cf1c168335492a8031a2d5707ac742d55c OP_EQUAL", "type": "scripthash"}, "value": 0.00444894, "n": 1}], "hex": "020000000001014cee65ce271c37e95a997e00deb6ea12efcf452fbc7b0d5c2bd691f2ccb392de01000000171600148bfafe0f1c4c3f09aaed2dc390a1fe8280ede20dfeffffff02c7a022000000000017a9148270594aeff9a7149bc17533044518b113615d0a87dec906000000000017a914185c92cf1c168335492a8031a2d5707ac742d55c87024830450221008f7e6c282ad52dab2e877ed8b412cb98126e6dcf878d1d845903728e59592fe9022032eba007112819d4ae4ba0444c0f55b2c7892113490ba6846ff6f296620196ad012103515d8225cbaa4ef599cc57d2553df489468067d00771fd7cb546591a6b16eb0d14490800", "vin": [{"txinwitness": ["30450221008f7e6c282ad52dab2e877ed8b412cb98126e6dcf878d1d845903728e59592fe9022032eba007112819d4ae4ba0444c0f55b2c7892113490ba6846ff6f296620196ad01", "03515d8225cbaa4ef599cc57d2553df489468067d00771fd7cb546591a6b16eb0d"], "sequence": 4294967294, "scriptSig": {"hex": "1600148bfafe0f1c4c3f09aaed2dc390a1fe8280ede20d", "asm": "00148bfafe0f1c4c3f09aaed2dc390a1fe8280ede20d"}, "vout": 1, "txid": "de92b3ccf291d62b5c0d7bbc2f45cfef12eab6de007e995ae9371c27ce65ee4c"}], "txid": "0813cbfe652f5eb85c93263986e8e9acdb015cb16e59d2c869136d07d5dfc917", "blocktime": 1537873891, "version": 2, "confirmations": 11479, "time": 1537873891, "locktime": 542996, "vsize": 166, "size": 248}