{"hash": "66c654e986c7deea3642e31d2cb1d76f95f5e1475f7dd504c52351364361daa7", "blockhash": "00000000000000000017f5eb5941039fbcee6240d03bc1f2f8e35350df66a1d8", "vout": [{"scriptPubKey": {"reqSigs": 1, "hex": "a914b5ba42e31a3963e5054f8899aa1782f152b6a0a087", "addresses": ["3JFuMvdiaZAow6cujwesGAFtDuA8aJTJLz"], "asm": "OP_HASH160 b5ba42e31a3963e5054f8899aa1782f152b6a0a0 OP_EQUAL", "type": "scripthash"}, "value": 0.01431636, "n": 0}, {"scriptPubKey": {"reqSigs": 1, "hex": "76a914e847d1a39f797caa2e72580d9cbdfbefaadf3efa88ac", "addresses": ["1NBBoa2rFXfSANt275EJhHgqAV1Tc5CQQ7"], "asm": "OP_DUP OP_HASH160 e847d1a39f797caa2e72580d9cbdfbefaadf3efa OP_EQUALVERIFY OP_CHECKSIG", "type": "pubkeyhash"}, "value": 0.00218, "n": 1}], "hex": "02000000000101057c14d55eb518339b08bfce68ea2afccd1814f4695a1a0f98423893d488a1a40100000017160014cf071e044541b5dbf7c9786541d46158af014afbfeffffff0254d815000000000017a914b5ba42e31a3963e5054f8899aa1782f152b6a0a08790530300000000001976a914e847d1a39f797caa2e72580d9cbdfbefaadf3efa88ac0247304402205a9b95dc80fa22597914757d4c2e3f11d5006828a8f1b34dcce8250b3a8be4be02200b30880ac1c02d68deb69f43496a33a470d634f8b50dc6359ff913fd2cc6d7f7012103ed4358c774735b31af1a93db52a19278e45475332b922219c15600ae4045277c15490800", "vin": [{"txinwitness": ["304402205a9b95dc80fa22597914757d4c2e3f11d5006828a8f1b34dcce8250b3a8be4be02200b30880ac1c02d68deb69f43496a33a470d634f8b50dc6359ff913fd2cc6d7f701", "03ed4358c774735b31af1a93db52a19278e45475332b922219c15600ae4045277c"], "sequence": 4294967294, "scriptSig": {"hex": "160014cf071e044541b5dbf7c9786541d46158af014afb", "asm": "0014cf071e044541b5dbf7c9786541d46158af014afb"}, "vout": 1, "txid": "a4a188d4933842980f1a5a69f41418cdfc2aea68cebf089b3318b55ed5147c05"}], "txid": "08170be2f4ebeb72a2f8df1b040e818fe94bafd68f4185324a22eae5e5e79c23", "blocktime": 1537874412, "version": 2, "confirmations": 11468, "time": 1537874412, "locktime": 542997, "vsize": 168, "size": 249}