{"hash": "08180c7f7c7d66664f10eaa747489ce59473fedf6120b4dcadcd3cf02f4391d0", "blockhash": "00000000000000000017f5eb5941039fbcee6240d03bc1f2f8e35350df66a1d8", "vout": [{"scriptPubKey": {"reqSigs": 1, "hex": "76a91418faf4f0e4996da7bc557e339ce39347791bf88888ac", "addresses": ["13H5rPWgJrVt3cWGfYjqFDCbpSiegsF2nq"], "asm": "OP_DUP OP_HASH160 18faf4f0e4996da7bc557e339ce39347791bf888 OP_EQUALVERIFY OP_CHECKSIG", "type": "pubkeyhash"}, "value": 0.032, "n": 0}, {"scriptPubKey": {"reqSigs": 1, "hex": "76a91498e1cbe03fa23b3ad6a30eb99fe4b3639c3830be88ac", "addresses": ["1EwNCmTRj6SebLADW5LpfUTKsxbULVMAHf"], "asm": "OP_DUP OP_HASH160 98e1cbe03fa23b3ad6a30eb99fe4b3639c3830be OP_EQUALVERIFY OP_CHECKSIG", "type": "pubkeyhash"}, "value": 8.215e-05, "n": 1}], "hex": "0100000002a25fdbd8aee48883d0ed8597fb167617ee02b59ed8648f171da094c0ecc4e2be000000006a473044022001692e694b2a8d24b2f856002e431c416924c1072917bcd6eb095c1b450c97c302205a3261ce25af2aca81a103529437c581560bbd3d9453d1f08a9b78496afc6bab01210382c9b70de2110f393339b51ca430324e132e2658a89c6d64e01e053ea9abf1aaffffffffc14702936c647d56d722687289a0276edc7f2ecc9f64abbfe62d43a1eb5341cd000000006b483045022100860e2e66f6b980e0fcc03940efa5beabfb258c99893e67754cc5a76fee1bc9b602202db3f1d68ff2213310405ae15f99d86e8bf6f5b2c4425f17524944fb8309610c0121027796e7585d7a0e9429a143737a00650a54c8732472d7173961d9a550573dc128ffffffff0200d43000000000001976a91418faf4f0e4996da7bc557e339ce39347791bf88888ac17200000000000001976a91498e1cbe03fa23b3ad6a30eb99fe4b3639c3830be88ac00000000", "vin": [{"sequence": 4294967295, "scriptSig": {"hex": "473044022001692e694b2a8d24b2f856002e431c416924c1072917bcd6eb095c1b450c97c302205a3261ce25af2aca81a103529437c581560bbd3d9453d1f08a9b78496afc6bab01210382c9b70de2110f393339b51ca430324e132e2658a89c6d64e01e053ea9abf1aa", "asm": "3044022001692e694b2a8d24b2f856002e431c416924c1072917bcd6eb095c1b450c97c302205a3261ce25af2aca81a103529437c581560bbd3d9453d1f08a9b78496afc6bab[ALL] 0382c9b70de2110f393339b51ca430324e132e2658a89c6d64e01e053ea9abf1aa"}, "vout": 0, "txid": "bee2c4ecc094a01d178f64d89eb502ee177616fb9785edd08388e4aed8db5fa2"}, {"sequence": 4294967295, "scriptSig": {"hex": "483045022100860e2e66f6b980e0fcc03940efa5beabfb258c99893e67754cc5a76fee1bc9b602202db3f1d68ff2213310405ae15f99d86e8bf6f5b2c4425f17524944fb8309610c0121027796e7585d7a0e9429a143737a00650a54c8732472d7173961d9a550573dc128", "asm": "3045022100860e2e66f6b980e0fcc03940efa5beabfb258c99893e67754cc5a76fee1bc9b602202db3f1d68ff2213310405ae15f99d86e8bf6f5b2c4425f17524944fb8309610c[ALL] 027796e7585d7a0e9429a143737a00650a54c8732472d7173961d9a550573dc128"}, "vout": 0, "txid": "cd4153eba1432de6bfab649fcc2e7fdc6e27a089726822d7567d646c930247c1"}], "txid": "08180c7f7c7d66664f10eaa747489ce59473fedf6120b4dcadcd3cf02f4391d0", "blocktime": 1537874412, "version": 1, "confirmations": 11468, "time": 1537874412, "locktime": 0, "vsize": 373, "size": 373}