{"hash": "0819f57f4b5e4feb3dff9354ef587141c91a131aa632c3eff97e697e7dd32ac3", "blockhash": "0000000000000000000e13cef7c366c0283d82e591d1acd082e914b08063cdf1", "vout": [{"scriptPubKey": {"reqSigs": 1, "hex": "76a914f4c2806eb796eef71056126674ebfd19ea1cbb1e88ac", "addresses": ["1PKAt2DPGD4bthBAe99gAGxRmjv4S6gGcF"], "asm": "OP_DUP OP_HASH160 f4c2806eb796eef71056126674ebfd19ea1cbb1e OP_EQUALVERIFY OP_CHECKSIG", "type": "pubkeyhash"}, "value": 0.00703685, "n": 0}], "hex": "0100000001999e1049dd1d2b19eadf175437074baf9fa06bfd9242429cc392f269bcb817d1000000006b483045022100e7b3ae5e68b7581f31f9fc7fca87041cf5d096feae0b3e80972c4d368a151e30022066b2132dfbe69321ad559d6eecd961cf25624657a0ce59c1d1330ffcf685e270012103f7114066e45186db93d2578e97da7364a9d513e54a7616c0bc250f9527960bdbffffffff01c5bc0a00000000001976a914f4c2806eb796eef71056126674ebfd19ea1cbb1e88ac00000000", "vin": [{"sequence": 4294967295, "scriptSig": {"hex": "483045022100e7b3ae5e68b7581f31f9fc7fca87041cf5d096feae0b3e80972c4d368a151e30022066b2132dfbe69321ad559d6eecd961cf25624657a0ce59c1d1330ffcf685e270012103f7114066e45186db93d2578e97da7364a9d513e54a7616c0bc250f9527960bdb", "asm": "3045022100e7b3ae5e68b7581f31f9fc7fca87041cf5d096feae0b3e80972c4d368a151e30022066b2132dfbe69321ad559d6eecd961cf25624657a0ce59c1d1330ffcf685e270[ALL] 03f7114066e45186db93d2578e97da7364a9d513e54a7616c0bc250f9527960bdb"}, "vout": 0, "txid": "d117b8bc69f292c39c424292fd6ba09faf4b07375417dfea192b1ddd49109e99"}], "txid": "0819f57f4b5e4feb3dff9354ef587141c91a131aa632c3eff97e697e7dd32ac3", "blocktime": 1537871767, "version": 1, "confirmations": 11490, "time": 1537871767, "locktime": 0, "vsize": 192, "size": 192}