{"hash": "081dc3b0051453894bc5012180539bf94cda933622abbad242a35d4b2a9e1a28", "blockhash": "0000000000000000001e0dab787dd257d1dbfcb92a98c2207d5e1078be1f4165", "vout": [{"scriptPubKey": {"reqSigs": 1, "hex": "001493504076ea86091a39d8ef76e0d482b77d1014c8", "addresses": ["bc1qjdgyqah2scy35wwcaamwp4yzka73q9xg0dmd02"], "asm": "0 93504076ea86091a39d8ef76e0d482b77d1014c8", "type": "witness_v0_keyhash"}, "value": 0.00367171, "n": 0}, {"scriptPubKey": {"reqSigs": 1, "hex": "76a9147eb1c8969acd800f68116828afa17a89f60aa5ab88ac", "addresses": ["1CYu7niC8earDtSwabqyV9ZH8xY1wW6Pzq"], "asm": "OP_DUP OP_HASH160 7eb1c8969acd800f68116828afa17a89f60aa5ab OP_EQUALVERIFY OP_CHECKSIG", "type": "pubkeyhash"}, "value": 0.01291589, "n": 1}], "hex": "0100000001bdb0d1ef4d4676e61843d2addc6775daf2e7f16f5d4357794554ad84f9ca7ff9010000006a47304402204ce5612ada048960aa4eb4d2bd1c1ac8eb18921f1eca34dc5fba8a162be4a54c022058b50f35104960ffec9ac57a03cb727caaa3a7ed1ced769116b74b828188b106012102501824624a760322831d844c11e15171f045b84b795fa0fc283704e1af6cf92dffffffff02439a05000000000016001493504076ea86091a39d8ef76e0d482b77d1014c845b51300000000001976a9147eb1c8969acd800f68116828afa17a89f60aa5ab88ac00000000", "vin": [{"sequence": 4294967295, "scriptSig": {"hex": "47304402204ce5612ada048960aa4eb4d2bd1c1ac8eb18921f1eca34dc5fba8a162be4a54c022058b50f35104960ffec9ac57a03cb727caaa3a7ed1ced769116b74b828188b106012102501824624a760322831d844c11e15171f045b84b795fa0fc283704e1af6cf92d", "asm": "304402204ce5612ada048960aa4eb4d2bd1c1ac8eb18921f1eca34dc5fba8a162be4a54c022058b50f35104960ffec9ac57a03cb727caaa3a7ed1ced769116b74b828188b106[ALL] 02501824624a760322831d844c11e15171f045b84b795fa0fc283704e1af6cf92d"}, "vout": 1, "txid": "f97fcaf984ad54457957435d6ff1e7f2da7567dcadd24318e676464defd1b0bd"}], "txid": "081dc3b0051453894bc5012180539bf94cda933622abbad242a35d4b2a9e1a28", "blocktime": 1537872475, "version": 1, "confirmations": 11486, "time": 1537872475, "locktime": 0, "vsize": 222, "size": 222}