{"hash": "1f3207eff4633a480a341170aa0679d5260398ad5c50f507add8601e7388711f", "blockhash": "0000000000000000000baef3f32e3676a92c3b2e5da21b426e4f302fc371ce76", "vout": [{"scriptPubKey": {"reqSigs": 1, "hex": "a914c79426d9836db3ba3b7cd50f77e55339000d90a787", "addresses": ["3KtHsUwRAywAxD9KUmHzyaEqBWruFHCDny"], "asm": "OP_HASH160 c79426d9836db3ba3b7cd50f77e55339000d90a7 OP_EQUAL", "type": "scripthash"}, "value": 0.01054319, "n": 0}, {"scriptPubKey": {"reqSigs": 1, "hex": "76a9147141cea1c0e1b4643f475550ba5266be2e15106488ac", "addresses": ["1BKrC3DQkZn3QwmW1hBLikZ9PQLG3o3LEW"], "asm": "OP_DUP OP_HASH160 7141cea1c0e1b4643f475550ba5266be2e151064 OP_EQUALVERIFY OP_CHECKSIG", "type": "pubkeyhash"}, "value": 0.0029896, "n": 1}], "hex": "020000000001020966883b82613c18138817b0e1d3e3d3653be8b8427d67df0d32096f4097a7510000000017160014e436bf241c88a51b971aa63faf5d8a40294faf7bfeffffff829990c39260a2a5307537235787519172dbf13de5db6c054dd1c93ba165d9450000000017160014d584f7f9411f76bba92195d925f5a3be52454f32feffffff026f1610000000000017a914c79426d9836db3ba3b7cd50f77e55339000d90a787d08f0400000000001976a9147141cea1c0e1b4643f475550ba5266be2e15106488ac0247304402203fd5538362d8f0897c7d4725a9cf294445506d7143da832edb683f159acb188502200f7cd5f863a7d56a288ba74c6104d2385e91601c52c8ae5294e4074193e6fc69012102c204ab25a8b61ce0c738800670f108e05d845f81c2ac9ac2ffac7bc8992f53ec02473044022072489ae077127f0025f36eb41c8c7ccde1083f6d53af2e6613ba08c49a9d36540220192efeb512c0e35941c631948d78c61b35b485035ad6cf8db1438a1e7e2528a20121032b4c92f125e5942491239969f3c655c4371fe7f571a9f060e1be3d259d87a7c417490800", "vin": [{"txinwitness": ["304402203fd5538362d8f0897c7d4725a9cf294445506d7143da832edb683f159acb188502200f7cd5f863a7d56a288ba74c6104d2385e91601c52c8ae5294e4074193e6fc6901", "02c204ab25a8b61ce0c738800670f108e05d845f81c2ac9ac2ffac7bc8992f53ec"], "sequence": 4294967294, "scriptSig": {"hex": "160014e436bf241c88a51b971aa63faf5d8a40294faf7b", "asm": "0014e436bf241c88a51b971aa63faf5d8a40294faf7b"}, "vout": 0, "txid": "51a797406f09320ddf677d42b8e83b65d3e3d3e1b0178813183c61823b886609"}, {"txinwitness": ["3044022072489ae077127f0025f36eb41c8c7ccde1083f6d53af2e6613ba08c49a9d36540220192efeb512c0e35941c631948d78c61b35b485035ad6cf8db1438a1e7e2528a201", "032b4c92f125e5942491239969f3c655c4371fe7f571a9f060e1be3d259d87a7c4"], "sequence": 4294967294, "scriptSig": {"hex": "160014d584f7f9411f76bba92195d925f5a3be52454f32", "asm": "0014d584f7f9411f76bba92195d925f5a3be52454f32"}, "vout": 0, "txid": "45d965a13bc9d14d056cdbe53df1db729151875723377530a5a26092c3909982"}], "txid": "082144559b12166ad3dd61d2e4ce7b28ae2d30309749e29b464c747bdfcad386", "blocktime": 1537876114, "version": 2, "confirmations": 11460, "time": 1537876114, "locktime": 542999, "vsize": 258, "size": 420}