{"hash": "082360bb597552af154b5c165b023f8b6edf1b2c0623249ce1d6f99db9dfd160", "blockhash": "0000000000000000001cda96e906b7601b7a6fb1a3b62bca570a9e5d8f4b3de1", "vout": [{"scriptPubKey": {"reqSigs": 1, "hex": "76a914707c81f828f6e64d554cbf8adb1f31f9c1750bbe88ac", "addresses": ["1BFmqS1TEyyNkaqhqgh6h3FFV6xdVWXebt"], "asm": "OP_DUP OP_HASH160 707c81f828f6e64d554cbf8adb1f31f9c1750bbe OP_EQUALVERIFY OP_CHECKSIG", "type": "pubkeyhash"}, "value": 0.02912092, "n": 0}, {"scriptPubKey": {"reqSigs": 1, "hex": "76a9148613ea2dae36386fdf3ddb1537abf42128e8adc388ac", "addresses": ["1DDwQQcEhwYYwL8XnNDEhLxFgHyrFCDjkw"], "asm": "OP_DUP OP_HASH160 8613ea2dae36386fdf3ddb1537abf42128e8adc3 OP_EQUALVERIFY OP_CHECKSIG", "type": "pubkeyhash"}, "value": 0.00564861, "n": 1}], "hex": "0200000001c8f0c158c65b565ed6827ca80e7165025711e1983a3d22f90b1fd1dbbf3b0a44000000006b483045022100ed03bc7ea76924794e7ba89531e40de5fd1f0b7ff1aad3910320953689d389f2022005c8610966e4b4e8ac194ed644098838068949923521b970d4577921e13c013b01210211272977189607e93b465ce011d12611eaae5fcb416928da42f38eea68fe2c18feffffff025c6f2c00000000001976a914707c81f828f6e64d554cbf8adb1f31f9c1750bbe88ac7d9e0800000000001976a9148613ea2dae36386fdf3ddb1537abf42128e8adc388ac13490800", "vin": [{"sequence": 4294967294, "scriptSig": {"hex": "483045022100ed03bc7ea76924794e7ba89531e40de5fd1f0b7ff1aad3910320953689d389f2022005c8610966e4b4e8ac194ed644098838068949923521b970d4577921e13c013b01210211272977189607e93b465ce011d12611eaae5fcb416928da42f38eea68fe2c18", "asm": "3045022100ed03bc7ea76924794e7ba89531e40de5fd1f0b7ff1aad3910320953689d389f2022005c8610966e4b4e8ac194ed644098838068949923521b970d4577921e13c013b[ALL] 0211272977189607e93b465ce011d12611eaae5fcb416928da42f38eea68fe2c18"}, "vout": 0, "txid": "440a3bbfdbd11f0bf9223d3a98e111570265710ea87c82d65e565bc658c1f0c8"}], "txid": "082360bb597552af154b5c165b023f8b6edf1b2c0623249ce1d6f99db9dfd160", "blocktime": 1537873282, "version": 2, "confirmations": 11480, "time": 1537873282, "locktime": 542995, "vsize": 226, "size": 226}