{"hash": "082816a3b184715f6e78f14c3a775eebdb1c68e3d322c13f0fb7bec401530d44", "blockhash": "0000000000000000001cda96e906b7601b7a6fb1a3b62bca570a9e5d8f4b3de1", "vout": [{"scriptPubKey": {"reqSigs": 1, "hex": "a914f7c44046c4a0ad6c0d2b5f5dc28b62b20b90a57487", "addresses": ["3QH5vgyEHYffu5hMqtbz3mwUgKB7fga46f"], "asm": "OP_HASH160 f7c44046c4a0ad6c0d2b5f5dc28b62b20b90a574 OP_EQUAL", "type": "scripthash"}, "value": 0.118122, "n": 0}, {"scriptPubKey": {"reqSigs": 1, "hex": "a914cf66d6097af8dff78f130306a6d3fd0eed78fc3887", "addresses": ["3LbezRq5feDDtbnLuJNRLgsWJp2C4ysSaX"], "asm": "OP_HASH160 cf66d6097af8dff78f130306a6d3fd0eed78fc38 OP_EQUAL", "type": "scripthash"}, "value": 0.13705616, "n": 1}], "hex": "01000000045402fade31dee819ced6030060b42d911bf7c5a05b21a28921e0e4ec9cbd088801000000da00483045022100df504d7bb400fe85628880e1431a9e04e7bd2a541d42f774b23245133c19eeb202200ba0992c88f48f6f8e25de6ef6c7dae8411d5f3825c99a1ff773e75f208e8f980147304402200a5985271e1cc1a22ebc2ce83cb912cd24fdbe292814aefe18c87ebde4c1f76902205357f0568d9fc393d5eca4198974ae14ff43030273b19874c137d44a1d4de26e01475221038a1751335d88288474033880ba81a14c5f7f536f7a4de0bbe1836301a9f5fde021029cfe8b16f24284e020d06aaa2566da776776e275665691857265930c813bfb8252aeffffffffc2939f5817e61f9753c207003dc9bf58606eadc2227b7037c0d94d1e24270aa301000000da00473044022063ed08037f7bed931a5864df5d27cafdc97371aecf340642d6192bd1ebb5c77a02207a0e00fc48f44dec7625a0a86f3ef557270d301c3c87eb0ee1405343296bda1c01483045022100a4f29cbd739e27f794d61aec32ace2119a30b2ae1238e1e45ae2fe28f2c992e70220266145076dae18c8daef8e9381ed794fb7b3d4be6594d20d2b7c226fe9ca888601475221038a1751335d88288474033880ba81a14c5f7f536f7a4de0bbe1836301a9f5fde021029cfe8b16f24284e020d06aaa2566da776776e275665691857265930c813bfb8252aeffffffffd28c38d9009d9a4fddd62c71ff9a99b19dd6ce564cbff5a8a438fedce7690a7f01000000db00483045022100ac02ef223932bf96e14be9dbaaf8347d78d2c2548c869d5911525048d32940810220592ecf4afde619813f70b0933613e3924e962697d4780fb9014d7fdb35e2e85001483045022100bce4cdd027d25f28d2e30ea4794619d7bcd7f1bf82fbd86c64d49640eab0651502202b296669d7bf78e9ff8ec964bf0685d3858744e54083efeffca1a0fd908bea6901475221038a1751335d88288474033880ba81a14c5f7f536f7a4de0bbe1836301a9f5fde021029cfe8b16f24284e020d06aaa2566da776776e275665691857265930c813bfb8252aeffffffff93086adc17f4f24a8d80588d3e8617419f6fd91fbb4152f08c58af86d3504a1301000000da00473044022010c501ed295a871375694cc3f981ca6f225de5643ac90510f1b0d1b51b1f827702207e8e66e65f8625c79da6d5a44bdc21a9d3590b29a784fa0bf162631a88a5621e01483045022100de683e0c02a695e4a22171f07fb1ea459c8f7a246cb2e2d5a4480d0ba3329a53022076b13ee8de5c684c2adee671033d61df17d8c31361fd1a973675e3042b5f480801475221038a1751335d88288474033880ba81a14c5f7f536f7a4de0bbe1836301a9f5fde021029cfe8b16f24284e020d06aaa2566da776776e275665691857265930c813bfb8252aeffffffff02683db4000000000017a914f7c44046c4a0ad6c0d2b5f5dc28b62b20b90a574879021d1000000000017a914cf66d6097af8dff78f130306a6d3fd0eed78fc388700000000", "vin": [{"sequence": 4294967295, "scriptSig": {"hex": "00483045022100df504d7bb400fe85628880e1431a9e04e7bd2a541d42f774b23245133c19eeb202200ba0992c88f48f6f8e25de6ef6c7dae8411d5f3825c99a1ff773e75f208e8f980147304402200a5985271e1cc1a22ebc2ce83cb912cd24fdbe292814aefe18c87ebde4c1f76902205357f0568d9fc393d5eca4198974ae14ff43030273b19874c137d44a1d4de26e01475221038a1751335d88288474033880ba81a14c5f7f536f7a4de0bbe1836301a9f5fde021029cfe8b16f24284e020d06aaa2566da776776e275665691857265930c813bfb8252ae", "asm": "0 3045022100df504d7bb400fe85628880e1431a9e04e7bd2a541d42f774b23245133c19eeb202200ba0992c88f48f6f8e25de6ef6c7dae8411d5f3825c99a1ff773e75f208e8f98[ALL] 304402200a5985271e1cc1a22ebc2ce83cb912cd24fdbe292814aefe18c87ebde4c1f76902205357f0568d9fc393d5eca4198974ae14ff43030273b19874c137d44a1d4de26e[ALL] 5221038a1751335d88288474033880ba81a14c5f7f536f7a4de0bbe1836301a9f5fde021029cfe8b16f24284e020d06aaa2566da776776e275665691857265930c813bfb8252ae"}, "vout": 1, "txid": "8808bd9cece4e02189a2215ba0c5f71b912db4600003d6ce19e8de31defa0254"}, {"sequence": 4294967295, "scriptSig": {"hex": "00473044022063ed08037f7bed931a5864df5d27cafdc97371aecf340642d6192bd1ebb5c77a02207a0e00fc48f44dec7625a0a86f3ef557270d301c3c87eb0ee1405343296bda1c01483045022100a4f29cbd739e27f794d61aec32ace2119a30b2ae1238e1e45ae2fe28f2c992e70220266145076dae18c8daef8e9381ed794fb7b3d4be6594d20d2b7c226fe9ca888601475221038a1751335d88288474033880ba81a14c5f7f536f7a4de0bbe1836301a9f5fde021029cfe8b16f24284e020d06aaa2566da776776e275665691857265930c813bfb8252ae", "asm": "0 3044022063ed08037f7bed931a5864df5d27cafdc97371aecf340642d6192bd1ebb5c77a02207a0e00fc48f44dec7625a0a86f3ef557270d301c3c87eb0ee1405343296bda1c[ALL] 3045022100a4f29cbd739e27f794d61aec32ace2119a30b2ae1238e1e45ae2fe28f2c992e70220266145076dae18c8daef8e9381ed794fb7b3d4be6594d20d2b7c226fe9ca8886[ALL] 5221038a1751335d88288474033880ba81a14c5f7f536f7a4de0bbe1836301a9f5fde021029cfe8b16f24284e020d06aaa2566da776776e275665691857265930c813bfb8252ae"}, "vout": 1, "txid": "a30a27241e4dd9c037707b22c2ad6e6058bfc93d0007c253971fe617589f93c2"}, {"sequence": 4294967295, "scriptSig": {"hex": "00483045022100ac02ef223932bf96e14be9dbaaf8347d78d2c2548c869d5911525048d32940810220592ecf4afde619813f70b0933613e3924e962697d4780fb9014d7fdb35e2e85001483045022100bce4cdd027d25f28d2e30ea4794619d7bcd7f1bf82fbd86c64d49640eab0651502202b296669d7bf78e9ff8ec964bf0685d3858744e54083efeffca1a0fd908bea6901475221038a1751335d88288474033880ba81a14c5f7f536f7a4de0bbe1836301a9f5fde021029cfe8b16f24284e020d06aaa2566da776776e275665691857265930c813bfb8252ae", "asm": "0 3045022100ac02ef223932bf96e14be9dbaaf8347d78d2c2548c869d5911525048d32940810220592ecf4afde619813f70b0933613e3924e962697d4780fb9014d7fdb35e2e850[ALL] 3045022100bce4cdd027d25f28d2e30ea4794619d7bcd7f1bf82fbd86c64d49640eab0651502202b296669d7bf78e9ff8ec964bf0685d3858744e54083efeffca1a0fd908bea69[ALL] 5221038a1751335d88288474033880ba81a14c5f7f536f7a4de0bbe1836301a9f5fde021029cfe8b16f24284e020d06aaa2566da776776e275665691857265930c813bfb8252ae"}, "vout": 1, "txid": "7f0a69e7dcfe38a4a8f5bf4c56ced69db1999aff712cd6dd4f9a9d00d9388cd2"}, {"sequence": 4294967295, "scriptSig": {"hex": "00473044022010c501ed295a871375694cc3f981ca6f225de5643ac90510f1b0d1b51b1f827702207e8e66e65f8625c79da6d5a44bdc21a9d3590b29a784fa0bf162631a88a5621e01483045022100de683e0c02a695e4a22171f07fb1ea459c8f7a246cb2e2d5a4480d0ba3329a53022076b13ee8de5c684c2adee671033d61df17d8c31361fd1a973675e3042b5f480801475221038a1751335d88288474033880ba81a14c5f7f536f7a4de0bbe1836301a9f5fde021029cfe8b16f24284e020d06aaa2566da776776e275665691857265930c813bfb8252ae", "asm": "0 3044022010c501ed295a871375694cc3f981ca6f225de5643ac90510f1b0d1b51b1f827702207e8e66e65f8625c79da6d5a44bdc21a9d3590b29a784fa0bf162631a88a5621e[ALL] 3045022100de683e0c02a695e4a22171f07fb1ea459c8f7a246cb2e2d5a4480d0ba3329a53022076b13ee8de5c684c2adee671033d61df17d8c31361fd1a973675e3042b5f4808[ALL] 5221038a1751335d88288474033880ba81a14c5f7f536f7a4de0bbe1836301a9f5fde021029cfe8b16f24284e020d06aaa2566da776776e275665691857265930c813bfb8252ae"}, "vout": 1, "txid": "134a50d386af588cf05241bb1fd96f9f4117863e8d58808d4af2f417dc6a0893"}], "txid": "082816a3b184715f6e78f14c3a775eebdb1c68e3d322c13f0fb7bec401530d44", "blocktime": 1537873282, "version": 1, "confirmations": 11484, "time": 1537873282, "locktime": 0, "vsize": 1111, "size": 1111}