{"hash": "3285761405b04eebd2ecde305f3f03c89f193d1a2365aa0f50db0f5cf7adc7d1", "blockhash": "0000000000000000000e13cef7c366c0283d82e591d1acd082e914b08063cdf1", "vout": [{"scriptPubKey": {"reqSigs": 1, "hex": "002058c8797f181e000075cb9a18a9662013b795012e86acc04d56a2d229e7b8d7c4", "addresses": ["bc1qtry8jlccrcqqqawtngv2je3qzwme2qfws6kvqn2k5tfzneac6lzqpgummp"], "asm": "0 58c8797f181e000075cb9a18a9662013b795012e86acc04d56a2d229e7b8d7c4", "type": "witness_v0_scripthash"}, "value": 0.04249574, "n": 0}], "hex": "0100000000010160c5fa00be0f8f823b129a1241708fa997b65a219fb8fd732a4bdd8d5cf7d7cf0600000017160014ac78b3c9087bde6f00f81516a8f9c488922fef16ffffffff01e6d740000000000022002058c8797f181e000075cb9a18a9662013b795012e86acc04d56a2d229e7b8d7c40247304402201e26a65c011abb4f2be4d017cffce7a57c5bce81250e37e760ff9ebd03dc7150022016ed6b87aeed567b3e9c44e9580e914025b4ec3acfffbc873c37a53d459f1ac10121034eddbdfd4c32ea4c4699d9c2d54235c12c55765dfe1c0794ec4fda113b86395400000000", "vin": [{"txinwitness": ["304402201e26a65c011abb4f2be4d017cffce7a57c5bce81250e37e760ff9ebd03dc7150022016ed6b87aeed567b3e9c44e9580e914025b4ec3acfffbc873c37a53d459f1ac101", "034eddbdfd4c32ea4c4699d9c2d54235c12c55765dfe1c0794ec4fda113b863954"], "sequence": 4294967295, "scriptSig": {"hex": "160014ac78b3c9087bde6f00f81516a8f9c488922fef16", "asm": "0014ac78b3c9087bde6f00f81516a8f9c488922fef16"}, "vout": 6, "txid": "cfd7f75c8ddd4b2a73fdb89f215ab697a98f7041129a123b828f0fbe00fac560"}], "txid": "0828e6ccf4f00eee16e5ae7895d762709f21e836e29e807ea33f8a2d2951e7d3", "blocktime": 1537871767, "version": 1, "confirmations": 11495, "time": 1537871767, "locktime": 0, "vsize": 145, "size": 226}