{"hash": "70124b0bac6b0355adf64fb571bbe8e56e8614691320f038aeda2633ad500477", "blockhash": "00000000000000000024a2167bbff67b0be802c0b01cdd79e6331c2be6459f87", "vout": [{"scriptPubKey": {"reqSigs": 1, "hex": "76a9149ad1b47312b67d650f10de42c77849eebf0d99b788ac", "addresses": ["1F7cH6MzUv9toQYhdgndoemZny46e2Lb9s"], "asm": "OP_DUP OP_HASH160 9ad1b47312b67d650f10de42c77849eebf0d99b7 OP_EQUALVERIFY OP_CHECKSIG", "type": "pubkeyhash"}, "value": 0.0004, "n": 0}, {"scriptPubKey": {"reqSigs": 1, "hex": "a9143b88b7b4b57196040a236b1eb33bd2f9d9b49eea87", "addresses": ["377oaAekPQzHFJyucA5bfJdvqQcHBqae3F"], "asm": "OP_HASH160 3b88b7b4b57196040a236b1eb33bd2f9d9b49eea OP_EQUAL", "type": "scripthash"}, "value": 0.00011158, "n": 1}], "hex": "01000000000101eba09530c2e7908253859988f3b4cd84a4fecb29cdecb9302c521ffc617047bc0100000017160014d24527cf8f228407f566d4f08c300170f349db89ffffffff02409c0000000000001976a9149ad1b47312b67d650f10de42c77849eebf0d99b788ac962b00000000000017a9143b88b7b4b57196040a236b1eb33bd2f9d9b49eea8702473044022045962f4f452a58a767dac9565c28628e608917175866c63250a31c5a18537644022078e4a3028ac6278e3e37712a63ec5b17f9080d42b6a36016d713508b91f67b640121023efe227a7fa2298a7d6e32c098c1839ab174a4e1136b7cd1130f9452cbb975e400000000", "vin": [{"txinwitness": ["3044022045962f4f452a58a767dac9565c28628e608917175866c63250a31c5a18537644022078e4a3028ac6278e3e37712a63ec5b17f9080d42b6a36016d713508b91f67b6401", "023efe227a7fa2298a7d6e32c098c1839ab174a4e1136b7cd1130f9452cbb975e4"], "sequence": 4294967295, "scriptSig": {"hex": "160014d24527cf8f228407f566d4f08c300170f349db89", "asm": "0014d24527cf8f228407f566d4f08c300170f349db89"}, "vout": 1, "txid": "bc477061fc1f522c30b9eccd29cbfea484cdb4f3889985538290e7c23095a0eb"}], "txid": "082c00056e33865515de8fed2dee454f66605481e1e82c8b86b7b69c1c346596", "blocktime": 1537870564, "version": 1, "confirmations": 11515, "time": 1537870564, "locktime": 0, "vsize": 168, "size": 249}