{"hash": "4ee1fe82ea1d399608ecc295f841ba5d735ed6df357eacfa26852e5773eb65b4", "blockhash": "0000000000000000001cda96e906b7601b7a6fb1a3b62bca570a9e5d8f4b3de1", "vout": [{"scriptPubKey": {"reqSigs": 1, "hex": "a9142c3271c2799f3a4887bb314902900d74a28cc1b987", "addresses": ["35ii5vMuFv7QmUTBJNdDxwNYzimreDFBpY"], "asm": "OP_HASH160 2c3271c2799f3a4887bb314902900d74a28cc1b9 OP_EQUAL", "type": "scripthash"}, "value": 0.010343, "n": 0}, {"scriptPubKey": {"reqSigs": 1, "hex": "a91428aed08a0d119483e22f174006b7f1da10cba90187", "addresses": ["35Q8NYnK6y7nEqiq3T8chFTPR6hTzyJhZD"], "asm": "OP_HASH160 28aed08a0d119483e22f174006b7f1da10cba901 OP_EQUAL", "type": "scripthash"}, "value": 0.00266872, "n": 1}], "hex": "020000000001017efec484e8729a8fa9523487b872577b338b8ec1c04dcac9149b15e9a5587656010000001716001471a1b60b58eb5629d3c948ac4ace7fe5084e79dcffffffff023cc80f000000000017a9142c3271c2799f3a4887bb314902900d74a28cc1b987781204000000000017a91428aed08a0d119483e22f174006b7f1da10cba9018702473044022054dfd96ad612e79a827cede870c34effeb77399ad7a38dd997f141cca37b1954022014e259365e4ad5a03e83220c22418f7134b603df8966e1d560e264cce32bd6fa012103172e47fc19877a31c9fcd481213595df3ac7153c3b0e488858ecd0d416d596ae00000000", "vin": [{"txinwitness": ["3044022054dfd96ad612e79a827cede870c34effeb77399ad7a38dd997f141cca37b1954022014e259365e4ad5a03e83220c22418f7134b603df8966e1d560e264cce32bd6fa01", "03172e47fc19877a31c9fcd481213595df3ac7153c3b0e488858ecd0d416d596ae"], "sequence": 4294967295, "scriptSig": {"hex": "16001471a1b60b58eb5629d3c948ac4ace7fe5084e79dc", "asm": "001471a1b60b58eb5629d3c948ac4ace7fe5084e79dc"}, "vout": 1, "txid": "567658a5e9159b14c9ca4dc0c18e8b337b5772b8873452a98f9a72e884c4fe7e"}], "txid": "083a2014738214739742007d7df987dc324761c59854196e282316ebb8ffff25", "blocktime": 1537873282, "version": 2, "confirmations": 11481, "time": 1537873282, "locktime": 0, "vsize": 166, "size": 247}