{"hash": "083f2bbf7073d1e43a84b69a657ee93847d6598a08965a9e9352485640d1e0f1", "blockhash": "00000000000000000004ffacab907a6b429b9a5745fa0b75af4234bf69dd7176", "vout": [{"scriptPubKey": {"type": "nulldata", "hex": "6a146f6d6e69000000000000001f0000000086965880", "asm": "OP_RETURN 6f6d6e69000000000000001f0000000086965880"}, "value": 0.0, "n": 0}, {"scriptPubKey": {"reqSigs": 1, "hex": "76a91488d924f51033b74a895863a5fb57fd545529df7d88ac", "addresses": ["1DUb2YYbQA1jjaNYzVXLZ7ZioEhLXtbUru"], "asm": "OP_DUP OP_HASH160 88d924f51033b74a895863a5fb57fd545529df7d OP_EQUALVERIFY OP_CHECKSIG", "type": "pubkeyhash"}, "value": 5.46e-06, "n": 1}, {"scriptPubKey": {"reqSigs": 1, "hex": "76a914a8c8fc9ad890a705ea409bac200fd5ea21f7ae6288ac", "addresses": ["1GPTJ2nr387G6y76og1yMthbKyfvM4kc2p"], "asm": "OP_DUP OP_HASH160 a8c8fc9ad890a705ea409bac200fd5ea21f7ae62 OP_EQUALVERIFY OP_CHECKSIG", "type": "pubkeyhash"}, "value": 0.00495943, "n": 2}], "hex": "01000000012920d38372457a9a4ef59a7dba58b4aefdc8931b218ad209c040bd00e5315468000000006b483045022100b5f3bdbbcedb26644380fa564e9420ab993ca2d5a987122b2c388bddd633201402205acf92cdce2115d53173d6fef892e0745129ddf34bc78968712518a301b9962401210265798fe13e476264b997cd2b4e4e3c4358e6065128b1a9b7510a297eed656313feffffff030000000000000000166a146f6d6e69000000000000001f000000008696588022020000000000001976a91488d924f51033b74a895863a5fb57fd545529df7d88ac47910700000000001976a914a8c8fc9ad890a705ea409bac200fd5ea21f7ae6288ac16490800", "vin": [{"sequence": 4294967294, "scriptSig": {"hex": "483045022100b5f3bdbbcedb26644380fa564e9420ab993ca2d5a987122b2c388bddd633201402205acf92cdce2115d53173d6fef892e0745129ddf34bc78968712518a301b9962401210265798fe13e476264b997cd2b4e4e3c4358e6065128b1a9b7510a297eed656313", "asm": "3045022100b5f3bdbbcedb26644380fa564e9420ab993ca2d5a987122b2c388bddd633201402205acf92cdce2115d53173d6fef892e0745129ddf34bc78968712518a301b99624[ALL] 0265798fe13e476264b997cd2b4e4e3c4358e6065128b1a9b7510a297eed656313"}, "vout": 0, "txid": "685431e500bd40c009d28a211b93c8fdaeb458ba7d9af54e9a7a457283d32029"}], "txid": "083f2bbf7073d1e43a84b69a657ee93847d6598a08965a9e9352485640d1e0f1", "blocktime": 1537875543, "version": 1, "confirmations": 11464, "time": 1537875543, "locktime": 542998, "vsize": 257, "size": 257}