{"hash": "0845209f8e694cacd3617750a360834aced6a44ccc46b24f9348842e18e163e4", "blockhash": "0000000000000000001f0ddff1eddb255c1121bcd4da4f1bc9a0da00cae72433", "vout": [{"scriptPubKey": {"reqSigs": 1, "hex": "76a9144c80009f0646feb5461a22a57e7adef0110f38d888ac", "addresses": ["17yVhLvxKSws9ku5MNeYB7TmY1J9u6xqza"], "asm": "OP_DUP OP_HASH160 4c80009f0646feb5461a22a57e7adef0110f38d8 OP_EQUALVERIFY OP_CHECKSIG", "type": "pubkeyhash"}, "value": 0.0002, "n": 0}, {"scriptPubKey": {"reqSigs": 1, "hex": "76a914f1e4a0c23042cc8fe1b44295b2c87368fe1b1aba88ac", "addresses": ["1P41jafnXX9t3h7NEA2ZJwt9nvWF6VBojE"], "asm": "OP_DUP OP_HASH160 f1e4a0c23042cc8fe1b44295b2c87368fe1b1aba OP_EQUALVERIFY OP_CHECKSIG", "type": "pubkeyhash"}, "value": 0.66198752, "n": 1}, {"scriptPubKey": {"type": "nulldata", "hex": "6a254d4700040489c5df6d3074535262a75f23114fb9b427d3194469a3e772d2d6dd7ecf8002d2", "asm": "OP_RETURN 4d4700040489c5df6d3074535262a75f23114fb9b427d3194469a3e772d2d6dd7ecf8002d2"}, "value": 0.0, "n": 2}], "hex": "01000000011e93effc7c391032089202a9a0514dfb7a9997b1b02af7bb23525775e58effe7010000006a473044022076d3f1ef712d5ce7e328bee317219ca8de5547333d34a2e3f7bace2e353c56af02204d9439e026b70a8621e07511168b2058ea96b98fef6e38952b17c766f63ce38b0121033ff37f08b4aef829d4fd8d9c6e20176af681280342230d036803a3848f41baedffffffff03204e0000000000001976a9144c80009f0646feb5461a22a57e7adef0110f38d888ace01cf203000000001976a914f1e4a0c23042cc8fe1b44295b2c87368fe1b1aba88ac0000000000000000276a254d4700040489c5df6d3074535262a75f23114fb9b427d3194469a3e772d2d6dd7ecf8002d200000000", "vin": [{"sequence": 4294967295, "scriptSig": {"hex": "473044022076d3f1ef712d5ce7e328bee317219ca8de5547333d34a2e3f7bace2e353c56af02204d9439e026b70a8621e07511168b2058ea96b98fef6e38952b17c766f63ce38b0121033ff37f08b4aef829d4fd8d9c6e20176af681280342230d036803a3848f41baed", "asm": "3044022076d3f1ef712d5ce7e328bee317219ca8de5547333d34a2e3f7bace2e353c56af02204d9439e026b70a8621e07511168b2058ea96b98fef6e38952b17c766f63ce38b[ALL] 033ff37f08b4aef829d4fd8d9c6e20176af681280342230d036803a3848f41baed"}, "vout": 1, "txid": "e7ff8ee575575223bbf72ab0b197997afb4d51a0a90292083210397cfcef931e"}], "txid": "0845209f8e694cacd3617750a360834aced6a44ccc46b24f9348842e18e163e4", "blocktime": 1537872018, "version": 1, "confirmations": 11489, "time": 1537872018, "locktime": 0, "vsize": 273, "size": 273}