{"hash": "084bb83969b295f99cc686c64f0169c671e03e52bc5f980ef2cb19bfde10fbdd", "blockhash": "0000000000000000001f0ddff1eddb255c1121bcd4da4f1bc9a0da00cae72433", "vout": [{"scriptPubKey": {"reqSigs": 1, "hex": "a914079f287b763930c8ad4c6d85aebb2c0f2a43f42787", "addresses": ["32PKKPS4bypfa9tf5J1SssGab9oBVC9JtU"], "asm": "OP_HASH160 079f287b763930c8ad4c6d85aebb2c0f2a43f427 OP_EQUAL", "type": "scripthash"}, "value": 0.00261934, "n": 0}, {"scriptPubKey": {"reqSigs": 1, "hex": "76a914baa23c3eac546f28742893cef77a325d2744ee4d88ac", "addresses": ["1J1q2zMeEhz17N7DGTFpZtjVV4AQvd7NJH"], "asm": "OP_DUP OP_HASH160 baa23c3eac546f28742893cef77a325d2744ee4d OP_EQUALVERIFY OP_CHECKSIG", "type": "pubkeyhash"}, "value": 0.02037301, "n": 1}], "hex": "010000000172157223842ad263fb3f2e3d0181cc561459e882aec97d10c197165eccc72f20010000006a473044022058c5659c85ae6bf0922ce841a3438d64e3a00f462a6f755f3a76a9150ee2436e0220054534d18e9a83d5e9e2ab1f91fbe95f2bc4ed7f7740bf5a2ba9b1a0887de66f012102ea3d88a332515ea471d8baa94d9b48047ffeee6bcf16bebecf7ba8314a04d269ffffffff022eff03000000000017a914079f287b763930c8ad4c6d85aebb2c0f2a43f4278735161f00000000001976a914baa23c3eac546f28742893cef77a325d2744ee4d88ac00000000", "vin": [{"sequence": 4294967295, "scriptSig": {"hex": "473044022058c5659c85ae6bf0922ce841a3438d64e3a00f462a6f755f3a76a9150ee2436e0220054534d18e9a83d5e9e2ab1f91fbe95f2bc4ed7f7740bf5a2ba9b1a0887de66f012102ea3d88a332515ea471d8baa94d9b48047ffeee6bcf16bebecf7ba8314a04d269", "asm": "3044022058c5659c85ae6bf0922ce841a3438d64e3a00f462a6f755f3a76a9150ee2436e0220054534d18e9a83d5e9e2ab1f91fbe95f2bc4ed7f7740bf5a2ba9b1a0887de66f[ALL] 02ea3d88a332515ea471d8baa94d9b48047ffeee6bcf16bebecf7ba8314a04d269"}, "vout": 1, "txid": "202fc7cc5e1697c1107dc9ae82e8591456cc81013d2e3ffb63d22a8423721572"}], "txid": "084bb83969b295f99cc686c64f0169c671e03e52bc5f980ef2cb19bfde10fbdd", "blocktime": 1537872018, "version": 1, "confirmations": 11489, "time": 1537872018, "locktime": 0, "vsize": 223, "size": 223}