{"hash": "76105342f956f6ccb6ae6532344af93708c12706bf4bc033a1de1231b6f99578", "blockhash": "0000000000000000000baef3f32e3676a92c3b2e5da21b426e4f302fc371ce76", "vout": [{"scriptPubKey": {"reqSigs": 1, "hex": "76a914db687c735f5afe789abe3185d785aafe7a2ef5f988ac", "addresses": ["1M189qRMYGETZW4koz32xYHGRNrLLdtCT9"], "asm": "OP_DUP OP_HASH160 db687c735f5afe789abe3185d785aafe7a2ef5f9 OP_EQUALVERIFY OP_CHECKSIG", "type": "pubkeyhash"}, "value": 0.0027926, "n": 0}, {"scriptPubKey": {"reqSigs": 1, "hex": "a91496b97db15d41abcf3d972e9dc8d5f64120ed94d887", "addresses": ["3FRyVTXEejzV6tqeWMH36AGsHviTY54pWa"], "asm": "OP_HASH160 96b97db15d41abcf3d972e9dc8d5f64120ed94d8 OP_EQUAL", "type": "scripthash"}, "value": 0.00999142, "n": 1}], "hex": "0200000000010242b2c34f13add4df22cc596a9af26ea461bc165e6df344f4fe85591d2723ead70100000017160014be3e6a2de3d7b6682e5b3cffdf411ae20e34d1c6feffffff5a35b3e7b1e3338f50d875c9e37b2193a1be3739f77d39606a8732ce34760a790400000017160014dfe5999283b17a12fae7e252e31dd58b396b790bfeffffff02dc420400000000001976a914db687c735f5afe789abe3185d785aafe7a2ef5f988ace63e0f000000000017a91496b97db15d41abcf3d972e9dc8d5f64120ed94d8870247304402206fa8eea4d11a32cc93c25c283e64a0ce966014d660f291da3695e69c75cf2dff02200b8634f6338d3608a968a96cd3cb4fe0a3a49d6d603a53921c982efd902105130121020961c7feb37bfbda460d99f212b0c2b0a46f85c38c45f49501d7a43fca223427024730440220012a5062f0ccad7bd6d17c31b908e2b085ebc3cdea6d80f90de924fadf7d315202206caf193cd291f2ac627a9bcadf7d0fb5f896db20b2bbfef590410431c627053001210265e8ca559b6e268bfb8bea80a6c0b34ece5587b04af239318a32b7c9bbf9809e17490800", "vin": [{"txinwitness": ["304402206fa8eea4d11a32cc93c25c283e64a0ce966014d660f291da3695e69c75cf2dff02200b8634f6338d3608a968a96cd3cb4fe0a3a49d6d603a53921c982efd9021051301", "020961c7feb37bfbda460d99f212b0c2b0a46f85c38c45f49501d7a43fca223427"], "sequence": 4294967294, "scriptSig": {"hex": "160014be3e6a2de3d7b6682e5b3cffdf411ae20e34d1c6", "asm": "0014be3e6a2de3d7b6682e5b3cffdf411ae20e34d1c6"}, "vout": 1, "txid": "d7ea23271d5985fef444f36d5e16bc61a46ef29a6a59cc22dfd4ad134fc3b242"}, {"txinwitness": ["30440220012a5062f0ccad7bd6d17c31b908e2b085ebc3cdea6d80f90de924fadf7d315202206caf193cd291f2ac627a9bcadf7d0fb5f896db20b2bbfef590410431c627053001", "0265e8ca559b6e268bfb8bea80a6c0b34ece5587b04af239318a32b7c9bbf9809e"], "sequence": 4294967294, "scriptSig": {"hex": "160014dfe5999283b17a12fae7e252e31dd58b396b790b", "asm": "0014dfe5999283b17a12fae7e252e31dd58b396b790b"}, "vout": 4, "txid": "790a7634ce32876a60397df73937bea193217be3c975d8508f33e3b1e7b3355a"}], "txid": "084f60250c195525293628ea5ac8e3dfd6cc3fcbfbaf85df7247c2036546d009", "blocktime": 1537876114, "version": 2, "confirmations": 11461, "time": 1537876114, "locktime": 542999, "vsize": 258, "size": 420}