{"hash": "0855be0508d07c45e9dc7d4c390d1972c8456dd344f2b3e715d38bcaae6d6e30", "blockhash": "0000000000000000001f76057863aec43deb6fa401d9628bb513d65a8098bfab", "vout": [{"scriptPubKey": {"reqSigs": 1, "hex": "76a914d243e6abb9a60fbff430b421d2df4b7d59ec186088ac", "addresses": ["1LAnF8h3qMGx3TSwNUHVneBZUEpwE4gu3D"], "asm": "OP_DUP OP_HASH160 d243e6abb9a60fbff430b421d2df4b7d59ec1860 OP_EQUALVERIFY OP_CHECKSIG", "type": "pubkeyhash"}, "value": 0.00077314, "n": 0}, {"scriptPubKey": {"reqSigs": 1, "hex": "76a9143334c19595e4c9368e4b16dc53ed8c60ff906be188ac", "addresses": ["15fkfMAMJ6534f38ioMkBLw1YBBTB4xbHX"], "asm": "OP_DUP OP_HASH160 3334c19595e4c9368e4b16dc53ed8c60ff906be1 OP_EQUALVERIFY OP_CHECKSIG", "type": "pubkeyhash"}, "value": 5.46e-06, "n": 1}, {"scriptPubKey": {"type": "nulldata", "hex": "6a146f6d6e69000000000000001f00000010d43c5340", "asm": "OP_RETURN 6f6d6e69000000000000001f00000010d43c5340"}, "value": 0.0, "n": 2}], "hex": "0100000001fc34b8308761e63d38fe397b3be635c23cb7fbf261c1b124bc692f1ee40216f5000000006b483045022100df9797b2a1e44c58ee47a11f2ebf612da24f0ff40b3a37b03ceba28a9056437402204f2527d06a4d231b3d7d90f4aad924040797fea172b80419831b69985d5cf5e401210271977291b74f1f5f5c42157e8aae804664eaaeccfd097918450d37f28fb94d77ffffffff03022e0100000000001976a914d243e6abb9a60fbff430b421d2df4b7d59ec186088ac22020000000000001976a9143334c19595e4c9368e4b16dc53ed8c60ff906be188ac0000000000000000166a146f6d6e69000000000000001f00000010d43c534000000000", "vin": [{"sequence": 4294967295, "scriptSig": {"hex": "483045022100df9797b2a1e44c58ee47a11f2ebf612da24f0ff40b3a37b03ceba28a9056437402204f2527d06a4d231b3d7d90f4aad924040797fea172b80419831b69985d5cf5e401210271977291b74f1f5f5c42157e8aae804664eaaeccfd097918450d37f28fb94d77", "asm": "3045022100df9797b2a1e44c58ee47a11f2ebf612da24f0ff40b3a37b03ceba28a9056437402204f2527d06a4d231b3d7d90f4aad924040797fea172b80419831b69985d5cf5e4[ALL] 0271977291b74f1f5f5c42157e8aae804664eaaeccfd097918450d37f28fb94d77"}, "vout": 0, "txid": "f51602e41e2f69bc24b1c161f2fbb73cc235e63b7b39fe383de6618730b834fc"}], "txid": "0855be0508d07c45e9dc7d4c390d1972c8456dd344f2b3e715d38bcaae6d6e30", "blocktime": 1537873891, "version": 1, "confirmations": 11475, "time": 1537873891, "locktime": 0, "vsize": 257, "size": 257}