{"hash": "97305641fe4a617660f957dd0db47ccecff91b44aca4d54b7c9518f5f5ee710c", "blockhash": "00000000000000000024a2167bbff67b0be802c0b01cdd79e6331c2be6459f87", "vout": [{"scriptPubKey": {"reqSigs": 1, "hex": "a914443dcc5aacee40ab189c1652e3f9870bfcccc4fb87", "addresses": ["37uquQXjkVMRChW9bdorxdfFMXhAksKLCs"], "asm": "OP_HASH160 443dcc5aacee40ab189c1652e3f9870bfcccc4fb OP_EQUAL", "type": "scripthash"}, "value": 0.00831356, "n": 0}, {"scriptPubKey": {"reqSigs": 1, "hex": "a914329856787d1575ba97585cd71271287f14f5440187", "addresses": ["36JYCkRcaytSxAep9mtsC1bCZTw5EV7Gwx"], "asm": "OP_HASH160 329856787d1575ba97585cd71271287f14f54401 OP_EQUAL", "type": "scripthash"}, "value": 0.01005, "n": 1}, {"scriptPubKey": {"reqSigs": 1, "hex": "a9143d58a37c211ecf0c9089de9260497f0a966dff8287", "addresses": ["37HPKxsp89j36kyHnvRezADjpNWoYm6cUz"], "asm": "OP_HASH160 3d58a37c211ecf0c9089de9260497f0a966dff82 OP_EQUAL", "type": "scripthash"}, "value": 0.24582761, "n": 2}], "hex": "01000000000101eb385251dabb83834ec37ec365eaf71a8a6e13a3e3b601c2876851ccd0c53c6a000000002322002068e6493d2f33a1d477659de7a0c6892a33f546c47ae615a673286e85d9552454ffffffff037caf0c000000000017a914443dcc5aacee40ab189c1652e3f9870bfcccc4fb87c8550f000000000017a914329856787d1575ba97585cd71271287f14f5440187691a77010000000017a9143d58a37c211ecf0c9089de9260497f0a966dff82870400483045022100a8996fe8bf5c2d9ba0306293c83f06a6f9ce2095168de38b4b926626ac2e001902203eb4678f58d7b3d093435a141726f8c9737b463f20283e3becc0104dea6fe92b01473044022044f0d8a2acfc0fbaf88f8f6f637c2c9d4d788e4fafcd34d392b8262b9cab72a40220485530b8349c6713df5af66cc2f9c81532561857ea9e90f7a8869a8c804b80f40169522102942177ddc65508e5e21a8c07fb6b33d16971f3c6785d1e936e43d472fb545ab821020f1cba3bb8041782ee95d767b8d3576fd54f8b52d630f69a1f092fdc0e934a8721033f5e70152a52b0af01c3099251aba975dacd3fda27106c1934e7cfeb537e8d0d53ae00000000", "vin": [{"txinwitness": ["", "3045022100a8996fe8bf5c2d9ba0306293c83f06a6f9ce2095168de38b4b926626ac2e001902203eb4678f58d7b3d093435a141726f8c9737b463f20283e3becc0104dea6fe92b01", "3044022044f0d8a2acfc0fbaf88f8f6f637c2c9d4d788e4fafcd34d392b8262b9cab72a40220485530b8349c6713df5af66cc2f9c81532561857ea9e90f7a8869a8c804b80f401", "522102942177ddc65508e5e21a8c07fb6b33d16971f3c6785d1e936e43d472fb545ab821020f1cba3bb8041782ee95d767b8d3576fd54f8b52d630f69a1f092fdc0e934a8721033f5e70152a52b0af01c3099251aba975dacd3fda27106c1934e7cfeb537e8d0d53ae"], "sequence": 4294967295, "scriptSig": {"hex": "22002068e6493d2f33a1d477659de7a0c6892a33f546c47ae615a673286e85d9552454", "asm": "002068e6493d2f33a1d477659de7a0c6892a33f546c47ae615a673286e85d9552454"}, "vout": 0, "txid": "6a3cc5d0cc516887c201b6e3a3136e8a1af7ea65c37ec34e8383bbda515238eb"}], "txid": "08559a2dbf75c919064df31c2ead238873aba2cb6ca8af55f82e55e466af625a", "blocktime": 1537870564, "version": 1, "confirmations": 11515, "time": 1537870564, "locktime": 0, "vsize": 246, "size": 437}