{"hash": "c575dd29eab810b3ca370a6b928604a88eb7186287b30784b703cc7485063b6e", "blockhash": "0000000000000000001cda96e906b7601b7a6fb1a3b62bca570a9e5d8f4b3de1", "vout": [{"scriptPubKey": {"reqSigs": 1, "hex": "a9145dad8e1e6f860758b3f9b5a809957d1daa79f4d987", "addresses": ["3AELgCykmAPoJzVdLXCJTT8qbdxrPkYsGJ"], "asm": "OP_HASH160 5dad8e1e6f860758b3f9b5a809957d1daa79f4d9 OP_EQUAL", "type": "scripthash"}, "value": 0.03770579, "n": 0}, {"scriptPubKey": {"reqSigs": 1, "hex": "0014152034e8338d1e4f649ac77102c8714368115068", "addresses": ["bc1qz5srf6pn350y7ey6cacs9jr3gd5pz5rgd2600j"], "asm": "0 152034e8338d1e4f649ac77102c8714368115068", "type": "witness_v0_keyhash"}, "value": 0.53589043, "n": 1}], "hex": "01000000000101cdafd8c2118e0e69e8480ed24eb3788f0578b80762237b4f7e7d3f0b51b838360000000000ffffffff02d38839000000000017a9145dad8e1e6f860758b3f9b5a809957d1daa79f4d98733b4310300000000160014152034e8338d1e4f649ac77102c871436811506802483045022100ec454c6cbabbf9d83c7fe4b3d4ce72636f43ac81e10cbb1994d2c09dc9d7e01202200a50aa08a2cc3096951fd04236c9ab2abb3bc512072d84b84b6c94a6ccff90aa012102d4d5e604724c0d490b9c8caa5e6c13434c6d602d873640930afa3558cdb13b1700000000", "vin": [{"txinwitness": ["3045022100ec454c6cbabbf9d83c7fe4b3d4ce72636f43ac81e10cbb1994d2c09dc9d7e01202200a50aa08a2cc3096951fd04236c9ab2abb3bc512072d84b84b6c94a6ccff90aa01", "02d4d5e604724c0d490b9c8caa5e6c13434c6d602d873640930afa3558cdb13b17"], "sequence": 4294967295, "scriptSig": {"hex": "", "asm": ""}, "vout": 0, "txid": "3638b8510b3f7d7e4f7b236207b878058f78b34ed20e48e8690e8e11c2d8afcd"}], "txid": "0859100bb7bc6ba3d8e97b7a8ca23d1974ee735aa822594b3cf76ef75f218e77", "blocktime": 1537873282, "version": 1, "confirmations": 11484, "time": 1537873282, "locktime": 0, "vsize": 142, "size": 224}