{"hash": "d71ea748f7bcbd96ff0cfbee6981442fb8d5858dd3a22d9c3586a8792687cb9b", "blockhash": "00000000000000000018f53835495a110e01622372bf6ae95dc86f2b0ab887b0", "vout": [{"scriptPubKey": {"reqSigs": 1, "hex": "a91469f375b43d2bae010d9074caefb12a1ac0403f3f87", "addresses": ["3BMEXZuQkEmfWWyVRUzSxJnqmH4iBTxYZB"], "asm": "OP_HASH160 69f375b43d2bae010d9074caefb12a1ac0403f3f OP_EQUAL", "type": "scripthash"}, "value": 0.00209311, "n": 0}, {"scriptPubKey": {"reqSigs": 1, "hex": "001470382ba27ffe848788d73b6d8efa5ccd2b25d047", "addresses": ["bc1qwquzhgnll6zg0zxh8dkca7jue54jt5z898x8m2"], "asm": "0 70382ba27ffe848788d73b6d8efa5ccd2b25d047", "type": "witness_v0_keyhash"}, "value": 1.427e-05, "n": 1}], "hex": "01000000000101f75932b0ff0b4188a79e9ce59760db6edcbc1162fc9f544d6fec44c23ceec0c90000000000ffffffff029f3103000000000017a91469f375b43d2bae010d9074caefb12a1ac0403f3f87930500000000000016001470382ba27ffe848788d73b6d8efa5ccd2b25d047024830450221009352e3a49f899bf182566581fc162141e8b5d48adf523ff081c6a711747fdc0b02202eb0f3e5180ae5480f3880bc8fe042dd5090ad154346020f75db649b2a2e8b47012103528613392538e35670436489d761acc2f1cc2a91eef75a9eda87ce296aa155f500000000", "vin": [{"txinwitness": ["30450221009352e3a49f899bf182566581fc162141e8b5d48adf523ff081c6a711747fdc0b02202eb0f3e5180ae5480f3880bc8fe042dd5090ad154346020f75db649b2a2e8b4701", "03528613392538e35670436489d761acc2f1cc2a91eef75a9eda87ce296aa155f5"], "sequence": 4294967295, "scriptSig": {"hex": "", "asm": ""}, "vout": 0, "txid": "c9c0ee3cc244ec6f4d549ffc6211bcdc6edb6097e59c9ea788410bffb03259f7"}], "txid": "085cbe58749cf878efb26de330c506aa5a43ea92e451ed525d8418ad0f543662", "blocktime": 1537870928, "version": 1, "confirmations": 11513, "time": 1537870928, "locktime": 0, "vsize": 142, "size": 224}