{"hash": "3d6e0abf65e2a4cb76c62b42170c02328a82d87a77325b0c0a53c127d2ff5b9f", "blockhash": "000000000000000000022b45ed06c6f4ccd3cf7fb5ba4856ebd2e58215665228", "vout": [{"scriptPubKey": {"reqSigs": 1, "hex": "76a914583256167d59685bf36b69e7d2f7bcf7d0e4600e88ac", "addresses": ["193LmJpKrCkDDvyjD28ovzhWbfUecjpqNJ"], "asm": "OP_DUP OP_HASH160 583256167d59685bf36b69e7d2f7bcf7d0e4600e OP_EQUALVERIFY OP_CHECKSIG", "type": "pubkeyhash"}, "value": 0.0001822, "n": 0}], "hex": "010000000001018fb84c21adfc9563fc21bc4c399e6479f15b209b48986ef64510742cf6c2c1f50000000017160014c7224e82c1a625be5fb020882cfda709d15c20d6ffffffff012c470000000000001976a914583256167d59685bf36b69e7d2f7bcf7d0e4600e88ac0247304402206969741840d7f64b8e44324bc774cde4f82faf777b6423697ff53bf7ced5317c022026d89432e31fd242d4fec8b27e1c9f160e00cdd71ce31b756030ca528740dbcb012102d329c876270cb6fc917e1356ce10c4bf96ffd8be5397330e56b916949e580fac00000000", "vin": [{"txinwitness": ["304402206969741840d7f64b8e44324bc774cde4f82faf777b6423697ff53bf7ced5317c022026d89432e31fd242d4fec8b27e1c9f160e00cdd71ce31b756030ca528740dbcb01", "02d329c876270cb6fc917e1356ce10c4bf96ffd8be5397330e56b916949e580fac"], "sequence": 4294967295, "scriptSig": {"hex": "160014c7224e82c1a625be5fb020882cfda709d15c20d6", "asm": "0014c7224e82c1a625be5fb020882cfda709d15c20d6"}, "vout": 0, "txid": "f5c1c2f62c741045f66e98489b205bf179649e394cbc21fc6395fcad214cb88f"}], "txid": "0860d6489e9db15945b8173ed32d090594e1a6840e8e0cc9892f0c59075300bc", "blocktime": 1537869901, "version": 1, "confirmations": 11522, "time": 1537869901, "locktime": 0, "vsize": 136, "size": 217}