{"hash": "40863fe733152d99cd7882d0554c3734df76c65a86cd63bcb356e16f3c0e002c", "blockhash": "0000000000000000001f0ddff1eddb255c1121bcd4da4f1bc9a0da00cae72433", "vout": [{"scriptPubKey": {"reqSigs": 1, "hex": "a9145580330336527c7a46199c19ab00a1a0ece3444a87", "addresses": ["39V6wHouS5nhuHMXyXQ5xJyKjj67z95Po4"], "asm": "OP_HASH160 5580330336527c7a46199c19ab00a1a0ece3444a OP_EQUAL", "type": "scripthash"}, "value": 0.00999289, "n": 0}, {"scriptPubKey": {"reqSigs": 1, "hex": "76a91404c6edb91098e05aa24ef9059af2cc241f3048c388ac", "addresses": ["1SG1a1WfTdPPY51J5uasbFV65nBM4CnN5"], "asm": "OP_DUP OP_HASH160 04c6edb91098e05aa24ef9059af2cc241f3048c3 OP_EQUALVERIFY OP_CHECKSIG", "type": "pubkeyhash"}, "value": 0.038415, "n": 1}], "hex": "0200000000010606b523582a581be58b99d582e244ab4c709801c1fb68f2494fc1ef5e5d32ec99010000006a47304402202d948e6a1cf9715ee2bdfde7d18566f602a9033e9ff535516d3d5bbb4e1ea86e0220714f80bfab79d48d4068a2b08c1602951d11119fae4effaa7051240ade5917fa012103711f64b576dc948b57ab865dd3faacd4c156e4eee285a0b486d12c068c43bd3cfdffffff545cb28e95d44042a17b3caee4a25a0586cb9b12fd910ab1223879ccfb86758400000000171600145a82f1032a228f58ef66420a227727b47db17406fdffffff86965c83e8731a2e8f53bdc30a89719fc2ee30e108d242d9cd72c0ec2a7c01250100000017160014092b882c1a156515d6297a38589294517ee9cd43fdffffffaec3c514024705b5cfba28029218c4a6a4ca24db0f769e57c7643be8cc208240010000006b483045022100de68889cd2c58c13719282c75eb66427433ef122c25a763942500fcced2cf7e502204c51d41167a77bc4941c099349535181623d56022faad38700f2a85b6bdf8d22012103a74eefe21124110a4c19fcd04d0d4fbb88fdc25d902ef3792849a255b32eeeecfdffffffc78f621f29ed5717e792e91efce76fa2606cf4f6f316570fb63ed1a9bb31a64a01000000171600146777ade1c4a2ea22e195331fc076168cc55f78b8fdffffffee3e93a51bcaaf11c74ffab9c14cc383ee3f3b80fb2cc1498e410f9eb10ab3c100000000171600145e08e458708f192c3f14e313721257b1e0d95bf4fdffffff02793f0f000000000017a9145580330336527c7a46199c19ab00a1a0ece3444a87dc9d3a00000000001976a91404c6edb91098e05aa24ef9059af2cc241f3048c388ac000247304402204a0e29efa4105c0b6196983efb41afaae9f7513f36b5c048386bb640e91e6e1b022031808f38fbf40d730c15933664743d709d102c77fbe41c69e6bcf21c3081ea450121036963ed09d6a0e8625e3c1c72b7bcda2c8df4b0c64292bb4f677aa892b4c13c5f02473044022037eb99bf145711c7a29ae3b4ede7dd8c8a90f5cec1398d2a2cec1d075fe26d2e02201542d0c8a9ff2f64bc5ff371b129001b4eef8bf02862814e60d1449066b94116012102cffcaae67d5f4eaf2c86894c3e2c295fd19872be1f8ed70063b5198da85a036e0002483045022100db43cf0dcbaf50558acf811ebd84ed70d8ad5f534b4f6516ed2d43fa1d0e9aae022006424abce9bb89dd6240f96c600aae8e64f774e1386f011e930b548df4dc7e9b012103c5b6876adc796c5b8d7c65ddc6d087ed986446d7d99393f69ff0cbfadac83b8b024730440220159ddb0646460bd9148c24aa7481bdf987f8c667e0b04ca709592da40fc22aa2022035b8af53c18436140e04b472f011237e46a99ed0f0d2705134670603c7de856601210211ff6b364499cdad6f2571001c89efd72deb426a6d4fd12a817ed1c50b66746e10490800", "vin": [{"sequence": 4294967293, "scriptSig": {"hex": "47304402202d948e6a1cf9715ee2bdfde7d18566f602a9033e9ff535516d3d5bbb4e1ea86e0220714f80bfab79d48d4068a2b08c1602951d11119fae4effaa7051240ade5917fa012103711f64b576dc948b57ab865dd3faacd4c156e4eee285a0b486d12c068c43bd3c", "asm": "304402202d948e6a1cf9715ee2bdfde7d18566f602a9033e9ff535516d3d5bbb4e1ea86e0220714f80bfab79d48d4068a2b08c1602951d11119fae4effaa7051240ade5917fa[ALL] 03711f64b576dc948b57ab865dd3faacd4c156e4eee285a0b486d12c068c43bd3c"}, "vout": 1, "txid": "99ec325d5eefc14f49f268fbc10198704cab44e282d5998be51b582a5823b506"}, {"txinwitness": ["304402204a0e29efa4105c0b6196983efb41afaae9f7513f36b5c048386bb640e91e6e1b022031808f38fbf40d730c15933664743d709d102c77fbe41c69e6bcf21c3081ea4501", "036963ed09d6a0e8625e3c1c72b7bcda2c8df4b0c64292bb4f677aa892b4c13c5f"], "sequence": 4294967293, "scriptSig": {"hex": "1600145a82f1032a228f58ef66420a227727b47db17406", "asm": "00145a82f1032a228f58ef66420a227727b47db17406"}, "vout": 0, "txid": "847586fbcc793822b10a91fd129bcb86055aa2e4ae3c7ba14240d4958eb25c54"}, {"txinwitness": ["3044022037eb99bf145711c7a29ae3b4ede7dd8c8a90f5cec1398d2a2cec1d075fe26d2e02201542d0c8a9ff2f64bc5ff371b129001b4eef8bf02862814e60d1449066b9411601", "02cffcaae67d5f4eaf2c86894c3e2c295fd19872be1f8ed70063b5198da85a036e"], "sequence": 4294967293, "scriptSig": {"hex": "160014092b882c1a156515d6297a38589294517ee9cd43", "asm": "0014092b882c1a156515d6297a38589294517ee9cd43"}, "vout": 1, "txid": "25017c2aecc072cdd942d208e130eec29f71890ac3bd538f2e1a73e8835c9686"}, {"sequence": 4294967293, "scriptSig": {"hex": "483045022100de68889cd2c58c13719282c75eb66427433ef122c25a763942500fcced2cf7e502204c51d41167a77bc4941c099349535181623d56022faad38700f2a85b6bdf8d22012103a74eefe21124110a4c19fcd04d0d4fbb88fdc25d902ef3792849a255b32eeeec", "asm": "3045022100de68889cd2c58c13719282c75eb66427433ef122c25a763942500fcced2cf7e502204c51d41167a77bc4941c099349535181623d56022faad38700f2a85b6bdf8d22[ALL] 03a74eefe21124110a4c19fcd04d0d4fbb88fdc25d902ef3792849a255b32eeeec"}, "vout": 1, "txid": "408220cce83b64c7579e760fdb24caa4a6c418920228bacfb505470214c5c3ae"}, {"txinwitness": ["3045022100db43cf0dcbaf50558acf811ebd84ed70d8ad5f534b4f6516ed2d43fa1d0e9aae022006424abce9bb89dd6240f96c600aae8e64f774e1386f011e930b548df4dc7e9b01", "03c5b6876adc796c5b8d7c65ddc6d087ed986446d7d99393f69ff0cbfadac83b8b"], "sequence": 4294967293, "scriptSig": {"hex": "1600146777ade1c4a2ea22e195331fc076168cc55f78b8", "asm": "00146777ade1c4a2ea22e195331fc076168cc55f78b8"}, "vout": 1, "txid": "4aa631bba9d13eb60f5716f3f6f46c60a26fe7fc1ee992e71757ed291f628fc7"}, {"txinwitness": ["30440220159ddb0646460bd9148c24aa7481bdf987f8c667e0b04ca709592da40fc22aa2022035b8af53c18436140e04b472f011237e46a99ed0f0d2705134670603c7de856601", "0211ff6b364499cdad6f2571001c89efd72deb426a6d4fd12a817ed1c50b66746e"], "sequence": 4294967293, "scriptSig": {"hex": "1600145e08e458708f192c3f14e313721257b1e0d95bf4", "asm": "00145e08e458708f192c3f14e313721257b1e0d95bf4"}, "vout": 0, "txid": "c1b30ab19e0f418e49c12cfb803b3fee83c34cc1b9fa4fc711afca1ba5933eee"}], "txid": "0863e8291c1ab87fc7945b5f1f3c6e6c56c5520c9331b8dc0198877e15a8e37b", "blocktime": 1537872018, "version": 2, "confirmations": 11489, "time": 1537872018, "locktime": 542992, "vsize": 736, "size": 1060}