{"hash": "f186d0253e11d92335275cf1f94e7933339657a32e3a07051c2abf4cc03bad35", "blockhash": "0000000000000000001cda96e906b7601b7a6fb1a3b62bca570a9e5d8f4b3de1", "vout": [{"scriptPubKey": {"reqSigs": 1, "hex": "a9149fff9a3656e63716672c59ffe3e0ee215667662687", "addresses": ["3GH1ZcMLDn7AD3WmM7vjdNuRHuWPxEbQFW"], "asm": "OP_HASH160 9fff9a3656e63716672c59ffe3e0ee2156676626 OP_EQUAL", "type": "scripthash"}, "value": 0.01770458, "n": 0}, {"scriptPubKey": {"reqSigs": 1, "hex": "a914f5342287aaa57f5c05756dbd5ef14091cc70030f87", "addresses": ["3Q3XvwKWsx3ocmCXheK6pAo5ieooFx75hh"], "asm": "OP_HASH160 f5342287aaa57f5c05756dbd5ef14091cc70030f OP_EQUAL", "type": "scripthash"}, "value": 0.09268762, "n": 1}], "hex": "010000000001028d5daf1a7d0aa1a0e62f7fd5cdda544d187f49a4aed179c60aa5643bbb16fb1f0100000023220020be568be4964f287c2029dffb4d1059d3cc9a4e364c450064fe6f96b5748ace98ffffffffb77861a5a6031e371ab79b76dee45278fb10210b7b9e4344ea3a99a20984f4b101000000232200204fd7968ffe15cb453352a1e9ee2915eff8b6d6252d5a351f9092b82ca10eb12cffffffff02da031b000000000017a9149fff9a3656e63716672c59ffe3e0ee2156676626871a6e8d000000000017a914f5342287aaa57f5c05756dbd5ef14091cc70030f87040047304402203ae50878c22a1cfdc323dc46a4bd261e5b468bf7adea8a8b2464b1e061938d840220383a8ba96fc9fb9ae2c585bec6e91023b0e20f25b793c9091004b2e81929d4cf0147304402205403174442a897ae32d3fe50805976364bd733d0be5ce3ae4e7923fe1e526a23022065060917c661930c320b0df35fb02b7c106658a25bdf54afc2854af8537ebef60147522102ec6944d425886cc4333658438ce5997d662b5ae9d74acdaf772b173175c022112103871fc2ca08e6950b38867e8e6a0e94ee625223d3aa0df5c65f414c6d784467e252ae040048304502210096a65ab5d5f94494bd095dfdd5e5537a19019aad7013a177c44f6a2e7b31947702205cd674b555d5992af1c96c1c1cdcd78a319c613b46d2bf1e8b5cb26d2d3f5abe01483045022100b3038477992bc88a169f4a58290ae6dec009d940696d4f7cd0ae1d55277c6bf10220783e00c177808d6e3dca2ca34a38012498266f378cbebf6d3fe102b9a35ca6030147522103b70e79262cbb7310fe069dea7c473b53276b75c67fb841ff66279f152a3fe0172103871fc2ca08e6950b38867e8e6a0e94ee625223d3aa0df5c65f414c6d784467e252ae00000000", "vin": [{"txinwitness": ["", "304402203ae50878c22a1cfdc323dc46a4bd261e5b468bf7adea8a8b2464b1e061938d840220383a8ba96fc9fb9ae2c585bec6e91023b0e20f25b793c9091004b2e81929d4cf01", "304402205403174442a897ae32d3fe50805976364bd733d0be5ce3ae4e7923fe1e526a23022065060917c661930c320b0df35fb02b7c106658a25bdf54afc2854af8537ebef601", "522102ec6944d425886cc4333658438ce5997d662b5ae9d74acdaf772b173175c022112103871fc2ca08e6950b38867e8e6a0e94ee625223d3aa0df5c65f414c6d784467e252ae"], "sequence": 4294967295, "scriptSig": {"hex": "220020be568be4964f287c2029dffb4d1059d3cc9a4e364c450064fe6f96b5748ace98", "asm": "0020be568be4964f287c2029dffb4d1059d3cc9a4e364c450064fe6f96b5748ace98"}, "vout": 1, "txid": "1ffb16bb3b64a50ac679d1aea4497f184d54dacdd57f2fe6a0a10a7d1aaf5d8d"}, {"txinwitness": ["", "304502210096a65ab5d5f94494bd095dfdd5e5537a19019aad7013a177c44f6a2e7b31947702205cd674b555d5992af1c96c1c1cdcd78a319c613b46d2bf1e8b5cb26d2d3f5abe01", "3045022100b3038477992bc88a169f4a58290ae6dec009d940696d4f7cd0ae1d55277c6bf10220783e00c177808d6e3dca2ca34a38012498266f378cbebf6d3fe102b9a35ca60301", "522103b70e79262cbb7310fe069dea7c473b53276b75c67fb841ff66279f152a3fe0172103871fc2ca08e6950b38867e8e6a0e94ee625223d3aa0df5c65f414c6d784467e252ae"], "sequence": 4294967295, "scriptSig": {"hex": "2200204fd7968ffe15cb453352a1e9ee2915eff8b6d6252d5a351f9092b82ca10eb12c", "asm": "00204fd7968ffe15cb453352a1e9ee2915eff8b6d6252d5a351f9092b82ca10eb12c"}, "vout": 1, "txid": "b1f48409a2993aea44439e7b0b2110fb7852e4de769bb71a371e03a6a56178b7"}], "txid": "086ab4d3d10ca9857346d369643d503965b4390fa7d7e12e3c736d12d45777a2", "blocktime": 1537873282, "version": 1, "confirmations": 11484, "time": 1537873282, "locktime": 0, "vsize": 336, "size": 666}