{"hash": "15282ec53f7c16605ac9c098a96c7cd73c85176a2b538ccd991a989b3f6c0006", "blockhash": "0000000000000000000e13cef7c366c0283d82e591d1acd082e914b08063cdf1", "vout": [{"scriptPubKey": {"reqSigs": 1, "hex": "a914a50c960293effa03047e5cc413b8a4a6197a559787", "addresses": ["3GjiVgfqMk57CsH6pPVJHAKYGzE9SBghh5"], "asm": "OP_HASH160 a50c960293effa03047e5cc413b8a4a6197a5597 OP_EQUAL", "type": "scripthash"}, "value": 0.00020474, "n": 0}, {"scriptPubKey": {"reqSigs": 1, "hex": "a9140136c10502ae5684e49b302f1af10f145f74b6b787", "addresses": ["31oSC7GvQMTZoouyNLBEHVRDhXEFbVhSmh"], "asm": "OP_HASH160 0136c10502ae5684e49b302f1af10f145f74b6b7 OP_EQUAL", "type": "scripthash"}, "value": 0.10968576, "n": 1}], "hex": "01000000000101f507649f84ad91123aebfb99e18f63a2da9c9c227d16d6eccbe9fc72d3a6ddc30100000023220020efd02f10cc1074c68ec89b458572a71ce6bfc8a17595d8fde80232e47279444bffffffff02fa4f00000000000017a914a50c960293effa03047e5cc413b8a4a6197a559787005ea7000000000017a9140136c10502ae5684e49b302f1af10f145f74b6b7870400473044022031e81ba8f7cf41f1abb702594f07520207b46009b76c1385b03490335aa7ac9802207eb49f6fe07465e42da96419029801bf72a21d871744688bc40b18d58e5c74a30148304502210082984539247e28e34f7925764e87dcdaff8d5af32937233062c7861fc6911002022002be0726ab07dbca482b6653b685ccd71a1e52f5a54fcdfd9847ef66e6511a740147522103f985ea61f461801f3abc09ebed98ce7e20804639a64616f639f492883ea4e8d62103871fc2ca08e6950b38867e8e6a0e94ee625223d3aa0df5c65f414c6d784467e252ae00000000", "vin": [{"txinwitness": ["", "3044022031e81ba8f7cf41f1abb702594f07520207b46009b76c1385b03490335aa7ac9802207eb49f6fe07465e42da96419029801bf72a21d871744688bc40b18d58e5c74a301", "304502210082984539247e28e34f7925764e87dcdaff8d5af32937233062c7861fc6911002022002be0726ab07dbca482b6653b685ccd71a1e52f5a54fcdfd9847ef66e6511a7401", "522103f985ea61f461801f3abc09ebed98ce7e20804639a64616f639f492883ea4e8d62103871fc2ca08e6950b38867e8e6a0e94ee625223d3aa0df5c65f414c6d784467e252ae"], "sequence": 4294967295, "scriptSig": {"hex": "220020efd02f10cc1074c68ec89b458572a71ce6bfc8a17595d8fde80232e47279444b", "asm": "0020efd02f10cc1074c68ec89b458572a71ce6bfc8a17595d8fde80232e47279444b"}, "vout": 1, "txid": "c3dda6d372fce9cbecd6167d229c9cdaa2638fe199fbeb3a1291ad849f6407f5"}], "txid": "0872039bec1068bdebb6e828d09bc7640289ad4d501e79886d55aa283fce353e", "blocktime": 1537871767, "version": 1, "confirmations": 11495, "time": 1537871767, "locktime": 0, "vsize": 206, "size": 371}