{"hash": "08751becacc4db47e14cbdc73f36e9b646b7ae94debcf88efff959317054781f", "blockhash": "0000000000000000000dcc0f55137456b1a82d3642486a52398922ac4d620174", "vout": [{"scriptPubKey": {"reqSigs": 1, "hex": "a9141e19ecad4ca3e49bf57e213d2b459dd25503b4aa87", "addresses": ["34SBFZmmU2kUznynWkT2mZRAZoEupUwFSd"], "asm": "OP_HASH160 1e19ecad4ca3e49bf57e213d2b459dd25503b4aa OP_EQUAL", "type": "scripthash"}, "value": 0.00757423, "n": 0}, {"scriptPubKey": {"reqSigs": 1, "hex": "76a914aa62136f724ecd8c35ee88781871dfda0a08f00488ac", "addresses": ["1GXuN3e6GkB9bkEjMfNS7VZsLAynym4ubB"], "asm": "OP_DUP OP_HASH160 aa62136f724ecd8c35ee88781871dfda0a08f004 OP_EQUALVERIFY OP_CHECKSIG", "type": "pubkeyhash"}, "value": 0.10237972, "n": 1}], "hex": "0100000001fcc406b84a08dde939802ff6859d003f29e8bd92f3450fe72ec80f12c60922cd010000006a473044022037f5a78195585daa5d82e37e3f107b443b539867aaea031d99b8f8b614cd7a5a02203a3d03e69fd6036c254a94570dba73cba575cbab20410eb2164e8dbd4d1ceaed012103cf9e24efe12b51a67a55d6a0bb75e124e5941e128e6b81daeda9baea0515e3e3ffffffff02af8e0b000000000017a9141e19ecad4ca3e49bf57e213d2b459dd25503b4aa8714389c00000000001976a914aa62136f724ecd8c35ee88781871dfda0a08f00488ac00000000", "vin": [{"sequence": 4294967295, "scriptSig": {"hex": "473044022037f5a78195585daa5d82e37e3f107b443b539867aaea031d99b8f8b614cd7a5a02203a3d03e69fd6036c254a94570dba73cba575cbab20410eb2164e8dbd4d1ceaed012103cf9e24efe12b51a67a55d6a0bb75e124e5941e128e6b81daeda9baea0515e3e3", "asm": "3044022037f5a78195585daa5d82e37e3f107b443b539867aaea031d99b8f8b614cd7a5a02203a3d03e69fd6036c254a94570dba73cba575cbab20410eb2164e8dbd4d1ceaed[ALL] 03cf9e24efe12b51a67a55d6a0bb75e124e5941e128e6b81daeda9baea0515e3e3"}, "vout": 1, "txid": "cd2209c6120fc82ee70f45f392bde8293f009d85f62f8039e9dd084ab806c4fc"}], "txid": "08751becacc4db47e14cbdc73f36e9b646b7ae94debcf88efff959317054781f", "blocktime": 1537870268, "version": 1, "confirmations": 11517, "time": 1537870268, "locktime": 0, "vsize": 223, "size": 223}