{"hash": "0878beb3fc0ba30a9b0b28712ec0ed9084c3c7890fc11bba62942bce47186bc8", "blockhash": "00000000000000000017f5eb5941039fbcee6240d03bc1f2f8e35350df66a1d8", "vout": [{"scriptPubKey": {"reqSigs": 1, "hex": "76a914588a2273f1b391b270b1dd127db84662f0ec141688ac", "addresses": ["1959we8Ca364DsJsRdaX5bRwVQq3Dh17J2"], "asm": "OP_DUP OP_HASH160 588a2273f1b391b270b1dd127db84662f0ec1416 OP_EQUALVERIFY OP_CHECKSIG", "type": "pubkeyhash"}, "value": 0.01387204, "n": 0}, {"scriptPubKey": {"type": "nulldata", "hex": "6a4c50000077ef00012cb2bc3ed45b681581ade26cd19ed074892d00f8e87af8e8e963c7cfd5b99529522677c7572b56c310f930b169925baa18000613e36e32f8169cbc9a9526289ac0f6612cd74e33776ee4", "asm": "OP_RETURN 000077ef00012cb2bc3ed45b681581ade26cd19ed074892d00f8e87af8e8e963c7cfd5b99529522677c7572b56c310f930b169925baa18000613e36e32f8169cbc9a9526289ac0f6612cd74e33776ee4"}, "value": 0.0, "n": 1}], "hex": "010000000173efc65631c95db8e7480cab37790725c47dac81b3a7638cfe4ba0dc9094fbcc010000006b483045022100809fb4d1f736145f9a19ec449d47f13b02de8da766e467abed5c77e4ee50a7c302201098aaf97d1517c702ca24170d9c58050a0e4e6448a54e7fbd4cf1994c09c3d10121031c2934bdb7d11377c79d22c45a2355c77ea0f874884eea9f479608fe0916a32fffffffff02c42a1500000000001976a914588a2273f1b391b270b1dd127db84662f0ec141688ac0000000000000000536a4c50000077ef00012cb2bc3ed45b681581ade26cd19ed074892d00f8e87af8e8e963c7cfd5b99529522677c7572b56c310f930b169925baa18000613e36e32f8169cbc9a9526289ac0f6612cd74e33776ee400000000", "vin": [{"sequence": 4294967295, "scriptSig": {"hex": "483045022100809fb4d1f736145f9a19ec449d47f13b02de8da766e467abed5c77e4ee50a7c302201098aaf97d1517c702ca24170d9c58050a0e4e6448a54e7fbd4cf1994c09c3d10121031c2934bdb7d11377c79d22c45a2355c77ea0f874884eea9f479608fe0916a32f", "asm": "3045022100809fb4d1f736145f9a19ec449d47f13b02de8da766e467abed5c77e4ee50a7c302201098aaf97d1517c702ca24170d9c58050a0e4e6448a54e7fbd4cf1994c09c3d1[ALL] 031c2934bdb7d11377c79d22c45a2355c77ea0f874884eea9f479608fe0916a32f"}, "vout": 1, "txid": "ccfb9490dca04bfe8c63a7b381ac7dc425077937ab0c48e7b85dc93156c6ef73"}], "txid": "0878beb3fc0ba30a9b0b28712ec0ed9084c3c7890fc11bba62942bce47186bc8", "blocktime": 1537874412, "version": 1, "confirmations": 11467, "time": 1537874412, "locktime": 0, "vsize": 284, "size": 284}