{"hash": "087f650160aed1eaa81f0c206a408b36f943e77a0fa49e102307207f8a1229c5", "blockhash": "00000000000000000024a2167bbff67b0be802c0b01cdd79e6331c2be6459f87", "vout": [{"scriptPubKey": {"reqSigs": 1, "hex": "a9143f4eecba122ad73039d481c8d37f99cb4f887cd887", "addresses": ["37Tm3Qz8Zw2VJrheUUhArDAoq58S6YrS3g"], "asm": "OP_HASH160 3f4eecba122ad73039d481c8d37f99cb4f887cd8 OP_EQUAL", "type": "scripthash"}, "value": 1.0, "n": 0}, {"scriptPubKey": {"reqSigs": 1, "hex": "a914c43984c9241911c636b9bde461b321974cf23f6987", "addresses": ["3KaZGcRAprirCMHjexJFd1GqoUYaphsKmg"], "asm": "OP_HASH160 c43984c9241911c636b9bde461b321974cf23f69 OP_EQUAL", "type": "scripthash"}, "value": 35.80928757, "n": 1}], "hex": "0100000001043e68063b756b448f2430ab9beb985928c484852ab85bd909cc875022b0d57101000000fdfd00004730440220096569b56411f46e08a1e36830381b4695fc69b5c73319f90c1129e3e48b0708022066ac448c1b36ef7f9fbec10d4f30957f12dbdce6697530b8ca71cd026b6b8e9401483045022100bf073ce93f024fdbf16dd9c1e45e7112130b4cfa6cd4eff82b17603ce9b365f602204d6e44a1bf4349a8559f6ccf17afb4c3f6a5df1cff4bbbf93dd8a8833e42c62b014c6952210309e2d5a79f8fc800bcbd49faf2d9ffc0d4f58e1bc8861a7c8e901d1f21436a91210282a9ac4881754937d2477125df3107cdcb816839c91dad0de12f8cd6feb4a0ef2103655bcd5121a2c0b58c51392a38c62f8ccf53d6b03bdbf3fb4cb3c1489df260f853aeffffffff0200e1f5050000000017a9143f4eecba122ad73039d481c8d37f99cb4f887cd887f5a270d50000000017a914c43984c9241911c636b9bde461b321974cf23f698700000000", "vin": [{"sequence": 4294967295, "scriptSig": {"hex": "004730440220096569b56411f46e08a1e36830381b4695fc69b5c73319f90c1129e3e48b0708022066ac448c1b36ef7f9fbec10d4f30957f12dbdce6697530b8ca71cd026b6b8e9401483045022100bf073ce93f024fdbf16dd9c1e45e7112130b4cfa6cd4eff82b17603ce9b365f602204d6e44a1bf4349a8559f6ccf17afb4c3f6a5df1cff4bbbf93dd8a8833e42c62b014c6952210309e2d5a79f8fc800bcbd49faf2d9ffc0d4f58e1bc8861a7c8e901d1f21436a91210282a9ac4881754937d2477125df3107cdcb816839c91dad0de12f8cd6feb4a0ef2103655bcd5121a2c0b58c51392a38c62f8ccf53d6b03bdbf3fb4cb3c1489df260f853ae", "asm": "0 30440220096569b56411f46e08a1e36830381b4695fc69b5c73319f90c1129e3e48b0708022066ac448c1b36ef7f9fbec10d4f30957f12dbdce6697530b8ca71cd026b6b8e94[ALL] 3045022100bf073ce93f024fdbf16dd9c1e45e7112130b4cfa6cd4eff82b17603ce9b365f602204d6e44a1bf4349a8559f6ccf17afb4c3f6a5df1cff4bbbf93dd8a8833e42c62b[ALL] 52210309e2d5a79f8fc800bcbd49faf2d9ffc0d4f58e1bc8861a7c8e901d1f21436a91210282a9ac4881754937d2477125df3107cdcb816839c91dad0de12f8cd6feb4a0ef2103655bcd5121a2c0b58c51392a38c62f8ccf53d6b03bdbf3fb4cb3c1489df260f853ae"}, "vout": 1, "txid": "71d5b0225087cc09d95bb82a8584c4285998eb9bab30248f446b753b06683e04"}], "txid": "087f650160aed1eaa81f0c206a408b36f943e77a0fa49e102307207f8a1229c5", "blocktime": 1537870564, "version": 1, "confirmations": 11515, "time": 1537870564, "locktime": 0, "vsize": 370, "size": 370}