{"hash": "f7e3279391776c236e1327ffd13c698b43e65eb67deab7d71bf16fb1fd79fed4", "blockhash": "0000000000000000001f0ddff1eddb255c1121bcd4da4f1bc9a0da00cae72433", "vout": [{"scriptPubKey": {"reqSigs": 1, "hex": "a914d014c0148884ad2b92f8f1d3aec52954c9cb777e87", "addresses": ["3LfFLCeBkhUBz8xRRqogwjXCEpMVdJFhjj"], "asm": "OP_HASH160 d014c0148884ad2b92f8f1d3aec52954c9cb777e OP_EQUAL", "type": "scripthash"}, "value": 0.01, "n": 0}, {"scriptPubKey": {"reqSigs": 1, "hex": "a91478221cb35cde13048902e3e27e37eff4658c3b6487", "addresses": ["3CeDsiPnmc1SaR3retv3vF9CUWA85WsKv8"], "asm": "OP_HASH160 78221cb35cde13048902e3e27e37eff4658c3b64 OP_EQUAL", "type": "scripthash"}, "value": 0.03876449, "n": 1}], "hex": "010000000001015bc62f40a45a70dbc10eef134b3e4d257c2562bc6fde8dca809a8f23d01daac3010000002322002093ab7f18272ef781eb7546d707fb21eb658b6175a35d7dca92fe57ac598e5ef5ffffffff0240420f000000000017a914d014c0148884ad2b92f8f1d3aec52954c9cb777e8761263b000000000017a91478221cb35cde13048902e3e27e37eff4658c3b6487040047304402206372fa9de92b700dc213702eb50fe115dda2f7686bf9338eda1de7f7f0cad087022036b4aa25ec847d0a1f815f8f42d02c0c03641062fbb94da348d2a485a2a78a5e01483045022100af40728aadfb4cbb5766feab8f98d5cd62f830f959967438285eb5eaebc041c20220700b6a7a7099e7502f7ad47d1c91de2ac9f4ba7f6a1cf7796785741dec22fce40147522103571bd17b524db5fecb5639d1eca39f0a67de1ec6c16afba97148ffc0061076c621038f2c7ecee34c843be9d886e50ce79e5dc40a1694c0417d60b35340f292ff73fc52ae00000000", "vin": [{"txinwitness": ["", "304402206372fa9de92b700dc213702eb50fe115dda2f7686bf9338eda1de7f7f0cad087022036b4aa25ec847d0a1f815f8f42d02c0c03641062fbb94da348d2a485a2a78a5e01", "3045022100af40728aadfb4cbb5766feab8f98d5cd62f830f959967438285eb5eaebc041c20220700b6a7a7099e7502f7ad47d1c91de2ac9f4ba7f6a1cf7796785741dec22fce401", "522103571bd17b524db5fecb5639d1eca39f0a67de1ec6c16afba97148ffc0061076c621038f2c7ecee34c843be9d886e50ce79e5dc40a1694c0417d60b35340f292ff73fc52ae"], "sequence": 4294967295, "scriptSig": {"hex": "22002093ab7f18272ef781eb7546d707fb21eb658b6175a35d7dca92fe57ac598e5ef5", "asm": "002093ab7f18272ef781eb7546d707fb21eb658b6175a35d7dca92fe57ac598e5ef5"}, "vout": 1, "txid": "c3aa1dd0238f9a80ca8dde6fbc62257c254d3e4b13ef0ec1db705aa4402fc65b"}], "txid": "088689393849c10dedbbfed207fadf731a00b6ec5adfd2a8b8eb81eec90ec999", "blocktime": 1537872018, "version": 1, "confirmations": 11489, "time": 1537872018, "locktime": 0, "vsize": 206, "size": 371}