{"hash": "088710c874ac03686c4a1a347cff4c9f1fe920f7ec01759caf089d70cf9c443b", "blockhash": "00000000000000000004ffacab907a6b429b9a5745fa0b75af4234bf69dd7176", "vout": [{"scriptPubKey": {"type": "nulldata", "hex": "6a146f6d6e69000000000000001f0000001081f82500", "asm": "OP_RETURN 6f6d6e69000000000000001f0000001081f82500"}, "value": 0.0, "n": 0}, {"scriptPubKey": {"reqSigs": 1, "hex": "76a91451044ee738e128626cae72b1401c29722a187d2888ac", "addresses": ["18PNtswj1DtCgPdEciH7xvnpXUTtD29Bzq"], "asm": "OP_DUP OP_HASH160 51044ee738e128626cae72b1401c29722a187d28 OP_EQUALVERIFY OP_CHECKSIG", "type": "pubkeyhash"}, "value": 5.46e-06, "n": 1}, {"scriptPubKey": {"reqSigs": 1, "hex": "76a91426e0a8ea8d1387efba48fc0d183b3ed649959ace88ac", "addresses": ["14YZovqDsfqDJaJv382PdLaksgkemhCyGS"], "asm": "OP_DUP OP_HASH160 26e0a8ea8d1387efba48fc0d183b3ed649959ace OP_EQUALVERIFY OP_CHECKSIG", "type": "pubkeyhash"}, "value": 0.00491877, "n": 2}], "hex": "01000000012be1a7451427ecd1414076df3e9fab6c46c47a771c159217dc8cb619bd82fbb4020000006b483045022100e6f62b8e2033eb3d23d5b9b640d856a8995a93e55cd03118cbf20f1094fb045e02206f39a2c3e90891fc136efb63336d06a9dd2aa2ea4f164589b2d3f7f37744afc601210300ad58c2ce4171397bbc53c5da61c5347b01e260ca09ecaa8321d48b0df1a222feffffff030000000000000000166a146f6d6e69000000000000001f0000001081f8250022020000000000001976a91451044ee738e128626cae72b1401c29722a187d2888ac65810700000000001976a91426e0a8ea8d1387efba48fc0d183b3ed649959ace88ac16490800", "vin": [{"sequence": 4294967294, "scriptSig": {"hex": "483045022100e6f62b8e2033eb3d23d5b9b640d856a8995a93e55cd03118cbf20f1094fb045e02206f39a2c3e90891fc136efb63336d06a9dd2aa2ea4f164589b2d3f7f37744afc601210300ad58c2ce4171397bbc53c5da61c5347b01e260ca09ecaa8321d48b0df1a222", "asm": "3045022100e6f62b8e2033eb3d23d5b9b640d856a8995a93e55cd03118cbf20f1094fb045e02206f39a2c3e90891fc136efb63336d06a9dd2aa2ea4f164589b2d3f7f37744afc6[ALL] 0300ad58c2ce4171397bbc53c5da61c5347b01e260ca09ecaa8321d48b0df1a222"}, "vout": 2, "txid": "b4fb82bd19b68cdc1792151c777ac4466cab9f3edf764041d1ec271445a7e12b"}], "txid": "088710c874ac03686c4a1a347cff4c9f1fe920f7ec01759caf089d70cf9c443b", "blocktime": 1537875543, "version": 1, "confirmations": 11464, "time": 1537875543, "locktime": 542998, "vsize": 257, "size": 257}