{"hash": "fb58e3f3797c6dd41e9fbefe03e60d38f6269c0c2a75883de0a678648f652075", "blockhash": "0000000000000000001f76057863aec43deb6fa401d9628bb513d65a8098bfab", "vout": [{"scriptPubKey": {"reqSigs": 1, "hex": "00148502c4f2059c6fa43c22ff07db0b95fee6da94b8", "addresses": ["bc1qs5pvfus9n3h6g0pzlurakzu4lmnd499c9cmvw6"], "asm": "0 8502c4f2059c6fa43c22ff07db0b95fee6da94b8", "type": "witness_v0_keyhash"}, "value": 1.049e-05, "n": 0}, {"scriptPubKey": {"reqSigs": 1, "hex": "76a9142ff55cf333f5b0c9b44db7107ddf51a8ad2d6aff88ac", "addresses": ["15Nah9F5qVxKKu8t7L94ZUwAjRB1WdtzD4"], "asm": "OP_DUP OP_HASH160 2ff55cf333f5b0c9b44db7107ddf51a8ad2d6aff OP_EQUALVERIFY OP_CHECKSIG", "type": "pubkeyhash"}, "value": 0.000183, "n": 1}], "hex": "010000000001016ef30f627e43c1d99f2fee3dcb213d4cb7e09ae57b1673feaec04519070ce8e50000000000ffffffff0219040000000000001600148502c4f2059c6fa43c22ff07db0b95fee6da94b87c470000000000001976a9142ff55cf333f5b0c9b44db7107ddf51a8ad2d6aff88ac02483045022100f760a201a03317e60fae712ac6b02790213f3729c741a843e1741863145c5cb502206aac4c90dbe3e1dda65ed67ef1c25d0152d3d5f6a44165a3aadf35f3f20592f20121037375449050ef0f52aa1dadef2d6076d870bac086d6430a95dcff312a8b53223600000000", "vin": [{"txinwitness": ["3045022100f760a201a03317e60fae712ac6b02790213f3729c741a843e1741863145c5cb502206aac4c90dbe3e1dda65ed67ef1c25d0152d3d5f6a44165a3aadf35f3f20592f201", "037375449050ef0f52aa1dadef2d6076d870bac086d6430a95dcff312a8b532236"], "sequence": 4294967295, "scriptSig": {"hex": "", "asm": ""}, "vout": 0, "txid": "e5e80c071945c0aefe73167be59ae0b74c3d21cb3dee2f9fd9c1437e620ff36e"}], "txid": "088ad41398499d86e701eddddbdfd715e43706b1a01fe994fc802ddb506610d8", "blocktime": 1537873891, "version": 1, "confirmations": 11478, "time": 1537873891, "locktime": 0, "vsize": 144, "size": 226}