{"hash": "088b965cb50d288c6031fce10075b0e6edf2f08a5af4badaed001e4ce25d2a46", "blockhash": "0000000000000000001cda96e906b7601b7a6fb1a3b62bca570a9e5d8f4b3de1", "vout": [{"scriptPubKey": {"reqSigs": 1, "hex": "76a914806719c168d7511956dcdf6380c9b659b81f4bdb88ac", "addresses": ["1Chw17PKpjaqdTqVHkEXDQqrdpWAw49eMX"], "asm": "OP_DUP OP_HASH160 806719c168d7511956dcdf6380c9b659b81f4bdb OP_EQUALVERIFY OP_CHECKSIG", "type": "pubkeyhash"}, "value": 0.00593, "n": 0}, {"scriptPubKey": {"reqSigs": 1, "hex": "76a9146586ced214191eaee684bf8787713d2671eff5aa88ac", "addresses": ["1AFpjzWNNtmMamjbbSSNLiVdktzrYMspCQ"], "asm": "OP_DUP OP_HASH160 6586ced214191eaee684bf8787713d2671eff5aa OP_EQUALVERIFY OP_CHECKSIG", "type": "pubkeyhash"}, "value": 0.11970804, "n": 1}], "hex": "0200000001e859aaa8851923fb895b0564ca9905e1ae05774b9c99584f95b5e46518602b22010000006b483045022100b4b70bb859a56f209a3786d4251ff5451c20c86ced52726519cf5f4cbd3023a702202fabe75ee8f8bd950340a736bb9a9c87dff3a722a8ef412731b38d7928fa143b01210210dac65f236a05432a1dbd2f909aa1c6e1870304203e734e8d07db9b57443d46ffffffff02680c0900000000001976a914806719c168d7511956dcdf6380c9b659b81f4bdb88acf4a8b600000000001976a9146586ced214191eaee684bf8787713d2671eff5aa88ac00000000", "vin": [{"sequence": 4294967295, "scriptSig": {"hex": "483045022100b4b70bb859a56f209a3786d4251ff5451c20c86ced52726519cf5f4cbd3023a702202fabe75ee8f8bd950340a736bb9a9c87dff3a722a8ef412731b38d7928fa143b01210210dac65f236a05432a1dbd2f909aa1c6e1870304203e734e8d07db9b57443d46", "asm": "3045022100b4b70bb859a56f209a3786d4251ff5451c20c86ced52726519cf5f4cbd3023a702202fabe75ee8f8bd950340a736bb9a9c87dff3a722a8ef412731b38d7928fa143b[ALL] 0210dac65f236a05432a1dbd2f909aa1c6e1870304203e734e8d07db9b57443d46"}, "vout": 1, "txid": "222b601865e4b5954f58999c4b7705aee10599ca64055b89fb231985a8aa59e8"}], "txid": "088b965cb50d288c6031fce10075b0e6edf2f08a5af4badaed001e4ce25d2a46", "blocktime": 1537873282, "version": 2, "confirmations": 11484, "time": 1537873282, "locktime": 0, "vsize": 226, "size": 226}