{"hash": "089493b0545229544c4b8978afe15b87d38d043c3c8e0cb3dafd626b701d8cc7", "blockhash": "0000000000000000001e0dab787dd257d1dbfcb92a98c2207d5e1078be1f4165", "vout": [{"scriptPubKey": {"reqSigs": 1, "hex": "76a914917bf9dfae22bd00e2d32833eddacae7b56e72d888ac", "addresses": ["1EGFVpn16XrKJUgSbDcFFHEK3qANJ124t3"], "asm": "OP_DUP OP_HASH160 917bf9dfae22bd00e2d32833eddacae7b56e72d8 OP_EQUALVERIFY OP_CHECKSIG", "type": "pubkeyhash"}, "value": 0.00925734, "n": 0}, {"scriptPubKey": {"reqSigs": 1, "hex": "76a914338cae76c0b25b0bb01a7910779bb86fbcf6005e88ac", "addresses": ["15hZzWJqDXfUWhyxp4cVc2r2ZpieRqf653"], "asm": "OP_DUP OP_HASH160 338cae76c0b25b0bb01a7910779bb86fbcf6005e OP_EQUALVERIFY OP_CHECKSIG", "type": "pubkeyhash"}, "value": 0.00925305, "n": 1}], "hex": "02000000025d500b81072d828b3e8679e89099ca64f4286111edd7f47f90bb2e06f9fd459cdd0000006a47304402200a7eccc921a836659ad491a271cafb31e3415eb442cbe465ab861ed6f557a50802206aa07798fdce4f19c042e831f4d65afbd447f5d281614c7d2054fc0eee43773001210310466bdf82b70ea5e762d35d9ddb15a74f39de92fc443fc1f090342f3388f1d5feffffffc0ffe871618f097d6ab6a25e524768eda604752123a3d4d5c350203265c05169380100006b48304502210092f3467d31276915241982ad37196636bf2a2185886974b47f858d76f5cd6f0b022035cc1ba126a8aeedb638798938365c26319990ea327ccb4dda3010e0dd80c9e101210390f3cc874b2520fe058135f768562d4e3762eac2e8f2e98ba1c65c7bd27541d3feffffff0226200e00000000001976a914917bf9dfae22bd00e2d32833eddacae7b56e72d888ac791e0e00000000001976a914338cae76c0b25b0bb01a7910779bb86fbcf6005e88ac11490800", "vin": [{"sequence": 4294967294, "scriptSig": {"hex": "47304402200a7eccc921a836659ad491a271cafb31e3415eb442cbe465ab861ed6f557a50802206aa07798fdce4f19c042e831f4d65afbd447f5d281614c7d2054fc0eee43773001210310466bdf82b70ea5e762d35d9ddb15a74f39de92fc443fc1f090342f3388f1d5", "asm": "304402200a7eccc921a836659ad491a271cafb31e3415eb442cbe465ab861ed6f557a50802206aa07798fdce4f19c042e831f4d65afbd447f5d281614c7d2054fc0eee437730[ALL] 0310466bdf82b70ea5e762d35d9ddb15a74f39de92fc443fc1f090342f3388f1d5"}, "vout": 221, "txid": "9c45fdf9062ebb907ff4d7ed116128f464ca9990e879863e8b822d07810b505d"}, {"sequence": 4294967294, "scriptSig": {"hex": "48304502210092f3467d31276915241982ad37196636bf2a2185886974b47f858d76f5cd6f0b022035cc1ba126a8aeedb638798938365c26319990ea327ccb4dda3010e0dd80c9e101210390f3cc874b2520fe058135f768562d4e3762eac2e8f2e98ba1c65c7bd27541d3", "asm": "304502210092f3467d31276915241982ad37196636bf2a2185886974b47f858d76f5cd6f0b022035cc1ba126a8aeedb638798938365c26319990ea327ccb4dda3010e0dd80c9e1[ALL] 0390f3cc874b2520fe058135f768562d4e3762eac2e8f2e98ba1c65c7bd27541d3"}, "vout": 312, "txid": "6951c065322050c3d5d4a323217504a6ed6847525ea2b66a7d098f6171e8ffc0"}], "txid": "089493b0545229544c4b8978afe15b87d38d043c3c8e0cb3dafd626b701d8cc7", "blocktime": 1537872475, "version": 2, "confirmations": 11486, "time": 1537872475, "locktime": 542993, "vsize": 373, "size": 373}