{"hash": "08959ce25d88fc940661f1dfe5463e58dc2b2d0984354722f1831b7d2da6448e", "blockhash": "0000000000000000000e13cef7c366c0283d82e591d1acd082e914b08063cdf1", "vout": [{"scriptPubKey": {"reqSigs": 1, "hex": "76a9140fa73f35a559f7e8aa66b09e6f2dcfdef6a758bc88ac", "addresses": ["12RmVQ1KMPmehu4h1GTKsR55aGxh13FQ2L"], "asm": "OP_DUP OP_HASH160 0fa73f35a559f7e8aa66b09e6f2dcfdef6a758bc OP_EQUALVERIFY OP_CHECKSIG", "type": "pubkeyhash"}, "value": 0.0745529, "n": 0}, {"scriptPubKey": {"reqSigs": 1, "hex": "76a914d42b1d48a771149d852c3836c2a37bf21e7dc82888ac", "addresses": ["1LLquJtNRN2zT1RpPwrArsr9VdLNWpnWco"], "asm": "OP_DUP OP_HASH160 d42b1d48a771149d852c3836c2a37bf21e7dc828 OP_EQUALVERIFY OP_CHECKSIG", "type": "pubkeyhash"}, "value": 0.06829968, "n": 1}], "hex": "010000000181c83d2dde6f7876f05bcd7e87d0365514df05055e6bd22d14669595bd31a51b010000006b483045022100b3e62056caf42d063331a79ea0ef178e8064b750ea2b4f12f69ce261853c6c8a022025d5e3ad967f5fcd4962f06d94735ac5ce95854a53516cd7330d2450f08c644c012103c7b1fcc431e5c9c5db68c124360c4c1b93bfb60ed3969b53990d091a42e6243cffffffff023ac27100000000001976a9140fa73f35a559f7e8aa66b09e6f2dcfdef6a758bc88ac90376800000000001976a914d42b1d48a771149d852c3836c2a37bf21e7dc82888ac00000000", "vin": [{"sequence": 4294967295, "scriptSig": {"hex": "483045022100b3e62056caf42d063331a79ea0ef178e8064b750ea2b4f12f69ce261853c6c8a022025d5e3ad967f5fcd4962f06d94735ac5ce95854a53516cd7330d2450f08c644c012103c7b1fcc431e5c9c5db68c124360c4c1b93bfb60ed3969b53990d091a42e6243c", "asm": "3045022100b3e62056caf42d063331a79ea0ef178e8064b750ea2b4f12f69ce261853c6c8a022025d5e3ad967f5fcd4962f06d94735ac5ce95854a53516cd7330d2450f08c644c[ALL] 03c7b1fcc431e5c9c5db68c124360c4c1b93bfb60ed3969b53990d091a42e6243c"}, "vout": 1, "txid": "1ba531bd959566142dd26b5e0505df145536d0877ecd5bf076786fde2d3dc881"}], "txid": "08959ce25d88fc940661f1dfe5463e58dc2b2d0984354722f1831b7d2da6448e", "blocktime": 1537871767, "version": 1, "confirmations": 11490, "time": 1537871767, "locktime": 0, "vsize": 226, "size": 226}