{"hash": "089f737422d800afa68153f0354144cae453c1ff7c8817156a432a1449e79748", "blockhash": "00000000000000000024a2167bbff67b0be802c0b01cdd79e6331c2be6459f87", "vout": [{"scriptPubKey": {"reqSigs": 1, "hex": "76a9143e42af6e9079fc270429438c8c39b246eb39341588ac", "addresses": ["16gCnGYeBZZHj93iS7YTsxAJzWhm7P6sRn"], "asm": "OP_DUP OP_HASH160 3e42af6e9079fc270429438c8c39b246eb393415 OP_EQUALVERIFY OP_CHECKSIG", "type": "pubkeyhash"}, "value": 0.00010355, "n": 0}, {"scriptPubKey": {"reqSigs": 1, "hex": "76a914042c1dea5135ee4287e18836f932c336e07a0d7888ac", "addresses": ["1P4Z4ViPsWnUwexzonL12sg2KRXNpN2hF"], "asm": "OP_DUP OP_HASH160 042c1dea5135ee4287e18836f932c336e07a0d78 OP_EQUALVERIFY OP_CHECKSIG", "type": "pubkeyhash"}, "value": 0.04448169, "n": 1}, {"scriptPubKey": {"reqSigs": 1, "hex": "76a9145761bdc8252df0b541ea1f2de8dd876267ff1e2f88ac", "addresses": ["18y2sspnqiY5QywcmdBfYyHp5xWrvUq6mz"], "asm": "OP_DUP OP_HASH160 5761bdc8252df0b541ea1f2de8dd876267ff1e2f OP_EQUALVERIFY OP_CHECKSIG", "type": "pubkeyhash"}, "value": 8.347e-05, "n": 2}], "hex": "010000000518b8d17bd67b3bf027ba2f78328968343d5de4b4d43ca0ca6f1eb9c604502a2f000000006b483045022100dc7276f3410e989c4163b12054e5c702c11363ca1ad2f23cce69198aee6af6b2022005fd8d1db6b2c35bd4109e2712ed4b11b9e15e5bfd41a8779694f81ed4d1c2000121037dafe9ffb89081c7ae703fb0d7d0a4e2a06dafb6643715d77dd77764aa3b2ee8ffffffff88d6fd1eef314ffc3de872dc037b3a44cac5bc582031b19c6226d80bd49d885b000000006a47304402206e49b5b56244bdbfad664b8e9288b77ad6fb1bcb52252cae23ae8896f56638a302202dec7566bf3f975e590e113cb5093f88dc0f6b1f8c0b7eb8a0d756f66681b549012103f763d5ffd58530463ff746dbc1bfce70d6114e4ea6b7162fae2e1b99a127e99ffffffffff337ac3e7792b3445539d2caf9017eee532ebfba2966b1fb10cef52a9d33cc1d000000006a4730440220102a2cdcfd77722d24595fc4b34fc10079a0b202c39a0ac03bbbed54e899a9d202201dd6651d5004a91799c16e633507449c3c800fc20b75bb45a1e85227ba113e77012102f5caf3eb957c44425ea194d9354c4f95916039601bc2214e7519ee3042ae62a7ffffffff977878b0dd7d1143c549259031878e269fb72052883405b620e530d7877112ad000000006a47304402204127acc0df5bbed9f8263308a572a4a0e76d9f44c31d7c64f87703fde3768f32022039bdb8c836975c1d2317457e29096d1b1ee1dda38e69543f2231ded440b3d59f012103d5b088afc98dc7c8cb89fd052901bf36541a1fcc0f1b6c530514f4debb9d660cffffffff373f7a6ebec2d972ed5696623a4fa9edc606201928ecaa09b40bfbcd066bf24f010000006a473044022055fd3d2cdbd15fe7e787532796bd9723dc5e826ab6c3b2dfdcc39097b193aaed02205a8941aabeaf4d6e65c7429cfaf04e49c1b4870bdbefed8e001d98db9783776701210247000ca77c80e374f9cfbcf3e10829a2ed15df8ffc7b7d15a21479d7b3bdbce5ffffffff0373280000000000001976a9143e42af6e9079fc270429438c8c39b246eb39341588aca9df4300000000001976a914042c1dea5135ee4287e18836f932c336e07a0d7888ac9b200000000000001976a9145761bdc8252df0b541ea1f2de8dd876267ff1e2f88ac00000000", "vin": [{"sequence": 4294967295, "scriptSig": {"hex": "483045022100dc7276f3410e989c4163b12054e5c702c11363ca1ad2f23cce69198aee6af6b2022005fd8d1db6b2c35bd4109e2712ed4b11b9e15e5bfd41a8779694f81ed4d1c2000121037dafe9ffb89081c7ae703fb0d7d0a4e2a06dafb6643715d77dd77764aa3b2ee8", "asm": "3045022100dc7276f3410e989c4163b12054e5c702c11363ca1ad2f23cce69198aee6af6b2022005fd8d1db6b2c35bd4109e2712ed4b11b9e15e5bfd41a8779694f81ed4d1c200[ALL] 037dafe9ffb89081c7ae703fb0d7d0a4e2a06dafb6643715d77dd77764aa3b2ee8"}, "vout": 0, "txid": "2f2a5004c6b91e6fcaa03cd4b4e45d3d34688932782fba27f03b7bd67bd1b818"}, {"sequence": 4294967295, "scriptSig": {"hex": "47304402206e49b5b56244bdbfad664b8e9288b77ad6fb1bcb52252cae23ae8896f56638a302202dec7566bf3f975e590e113cb5093f88dc0f6b1f8c0b7eb8a0d756f66681b549012103f763d5ffd58530463ff746dbc1bfce70d6114e4ea6b7162fae2e1b99a127e99f", "asm": "304402206e49b5b56244bdbfad664b8e9288b77ad6fb1bcb52252cae23ae8896f56638a302202dec7566bf3f975e590e113cb5093f88dc0f6b1f8c0b7eb8a0d756f66681b549[ALL] 03f763d5ffd58530463ff746dbc1bfce70d6114e4ea6b7162fae2e1b99a127e99f"}, "vout": 0, "txid": "5b889dd40bd826629cb1312058bcc5ca443a7b03dc72e83dfc4f31ef1efdd688"}, {"sequence": 4294967295, "scriptSig": {"hex": "4730440220102a2cdcfd77722d24595fc4b34fc10079a0b202c39a0ac03bbbed54e899a9d202201dd6651d5004a91799c16e633507449c3c800fc20b75bb45a1e85227ba113e77012102f5caf3eb957c44425ea194d9354c4f95916039601bc2214e7519ee3042ae62a7", "asm": "30440220102a2cdcfd77722d24595fc4b34fc10079a0b202c39a0ac03bbbed54e899a9d202201dd6651d5004a91799c16e633507449c3c800fc20b75bb45a1e85227ba113e77[ALL] 02f5caf3eb957c44425ea194d9354c4f95916039601bc2214e7519ee3042ae62a7"}, "vout": 0, "txid": "1dcc339d2af5ce10fbb16629babf2e53ee7e01f9cad2395544b392773eac37f3"}, {"sequence": 4294967295, "scriptSig": {"hex": "47304402204127acc0df5bbed9f8263308a572a4a0e76d9f44c31d7c64f87703fde3768f32022039bdb8c836975c1d2317457e29096d1b1ee1dda38e69543f2231ded440b3d59f012103d5b088afc98dc7c8cb89fd052901bf36541a1fcc0f1b6c530514f4debb9d660c", "asm": "304402204127acc0df5bbed9f8263308a572a4a0e76d9f44c31d7c64f87703fde3768f32022039bdb8c836975c1d2317457e29096d1b1ee1dda38e69543f2231ded440b3d59f[ALL] 03d5b088afc98dc7c8cb89fd052901bf36541a1fcc0f1b6c530514f4debb9d660c"}, "vout": 0, "txid": "ad127187d730e520b60534885220b79f268e8731902549c543117dddb0787897"}, {"sequence": 4294967295, "scriptSig": {"hex": "473044022055fd3d2cdbd15fe7e787532796bd9723dc5e826ab6c3b2dfdcc39097b193aaed02205a8941aabeaf4d6e65c7429cfaf04e49c1b4870bdbefed8e001d98db9783776701210247000ca77c80e374f9cfbcf3e10829a2ed15df8ffc7b7d15a21479d7b3bdbce5", "asm": "3044022055fd3d2cdbd15fe7e787532796bd9723dc5e826ab6c3b2dfdcc39097b193aaed02205a8941aabeaf4d6e65c7429cfaf04e49c1b4870bdbefed8e001d98db97837767[ALL] 0247000ca77c80e374f9cfbcf3e10829a2ed15df8ffc7b7d15a21479d7b3bdbce5"}, "vout": 1, "txid": "4ff26b06cdfb0bb409aaec28192006c6eda94f3a629656ed72d9c2be6e7a3f37"}], "txid": "089f737422d800afa68153f0354144cae453c1ff7c8817156a432a1449e79748", "blocktime": 1537870564, "version": 1, "confirmations": 11515, "time": 1537870564, "locktime": 0, "vsize": 848, "size": 848}