{"hash": "08a3dbe1dc1828222b066e5d410bb29753806f28044cf23d362db48318ab624b", "blockhash": "0000000000000000001f0ddff1eddb255c1121bcd4da4f1bc9a0da00cae72433", "vout": [{"scriptPubKey": {"reqSigs": 1, "hex": "a914ce005f4154e7d4938b8d588c18b05bbabc79b27f87", "addresses": ["3LUFZuyPWUCApMpW52Asx6fMerDfu4pgP6"], "asm": "OP_HASH160 ce005f4154e7d4938b8d588c18b05bbabc79b27f OP_EQUAL", "type": "scripthash"}, "value": 0.00240826, "n": 0}, {"scriptPubKey": {"reqSigs": 1, "hex": "76a914c9c7007c7217c15a154be86638c05e8f0a0c366988ac", "addresses": ["1KPuDTENbURkVX39sQJ5GC1GABQabBoGf9"], "asm": "OP_DUP OP_HASH160 c9c7007c7217c15a154be86638c05e8f0a0c3669 OP_EQUALVERIFY OP_CHECKSIG", "type": "pubkeyhash"}, "value": 0.01303804, "n": 1}], "hex": "0100000001bcecd3cc4b28a50855364c423e6068b021f718a9031af67c507f96a77afbd36d010000006a47304402205761598eda61ad5e50647b85392d2c423c04f7cb4500bca3a93f762fe7c86bf702205e25d0c72258b3024bd7237860afc07e06d491020341fc6ccacb064b5e99afe80121032e1bf3a63a273b9db10a70c501d7c32973ed92c17971d8d3772361f45ea75069ffffffff02baac03000000000017a914ce005f4154e7d4938b8d588c18b05bbabc79b27f87fce41300000000001976a914c9c7007c7217c15a154be86638c05e8f0a0c366988ac00000000", "vin": [{"sequence": 4294967295, "scriptSig": {"hex": "47304402205761598eda61ad5e50647b85392d2c423c04f7cb4500bca3a93f762fe7c86bf702205e25d0c72258b3024bd7237860afc07e06d491020341fc6ccacb064b5e99afe80121032e1bf3a63a273b9db10a70c501d7c32973ed92c17971d8d3772361f45ea75069", "asm": "304402205761598eda61ad5e50647b85392d2c423c04f7cb4500bca3a93f762fe7c86bf702205e25d0c72258b3024bd7237860afc07e06d491020341fc6ccacb064b5e99afe8[ALL] 032e1bf3a63a273b9db10a70c501d7c32973ed92c17971d8d3772361f45ea75069"}, "vout": 1, "txid": "6dd3fb7aa7967f507cf61a03a918f721b068603e424c365508a5284bccd3ecbc"}], "txid": "08a3dbe1dc1828222b066e5d410bb29753806f28044cf23d362db48318ab624b", "blocktime": 1537872018, "version": 1, "confirmations": 11489, "time": 1537872018, "locktime": 0, "vsize": 223, "size": 223}