{"hash": "b166add6a959cf70293e84bb3fae8a80f666e6cf7c4917e5f1e2fd6938a2b901", "blockhash": "0000000000000000001f76057863aec43deb6fa401d9628bb513d65a8098bfab", "vout": [{"scriptPubKey": {"reqSigs": 1, "hex": "a914a63388dc2dfdc1ba07500f61471211185a5a1eb387", "addresses": ["3Gqoq5JkFGaqHzXUKo45LjMQrMKi3kWwg3"], "asm": "OP_HASH160 a63388dc2dfdc1ba07500f61471211185a5a1eb3 OP_EQUAL", "type": "scripthash"}, "value": 0.0164, "n": 0}, {"scriptPubKey": {"reqSigs": 1, "hex": "00149678316e9fff57fe24b99b5296787c8ce041fe40", "addresses": ["bc1qjeurzm5llatluf9endffv7ru3nsyrljqr0mnc2"], "asm": "0 9678316e9fff57fe24b99b5296787c8ce041fe40", "type": "witness_v0_keyhash"}, "value": 0.00149183, "n": 1}], "hex": "010000000001012bf975261a98556e73076c2ac7d34fd520d9d9c2f9aeac3a483b9dd141a53c9c0100000017160014159d5e00e919cea524373e2baf45a815635dbb8effffffff02400619000000000017a914a63388dc2dfdc1ba07500f61471211185a5a1eb387bf460200000000001600149678316e9fff57fe24b99b5296787c8ce041fe4002483045022100f1a741cd6273c320f973b211f9e46413ecce0b89dc3904f8e49c2ea9d37791e50220388e7153411d53d2c7d6e3a386378cb0ed6c66d07bc2c92e0d6bd13b19c9d34c0121036c84400cce4a7d965d49732b1d888b4505d8f860b0367e4469d8dc0d443f01d800000000", "vin": [{"txinwitness": ["3045022100f1a741cd6273c320f973b211f9e46413ecce0b89dc3904f8e49c2ea9d37791e50220388e7153411d53d2c7d6e3a386378cb0ed6c66d07bc2c92e0d6bd13b19c9d34c01", "036c84400cce4a7d965d49732b1d888b4505d8f860b0367e4469d8dc0d443f01d8"], "sequence": 4294967295, "scriptSig": {"hex": "160014159d5e00e919cea524373e2baf45a815635dbb8e", "asm": "0014159d5e00e919cea524373e2baf45a815635dbb8e"}, "vout": 1, "txid": "9c3ca541d19d3b483aacaef9c2d9d920d54fd3c72a6c07736e55981a2675f92b"}], "txid": "08aa4644a939a84173fa7f2ccc9ba079ba35b80b80d4aa3debce44a155607a26", "blocktime": 1537873891, "version": 1, "confirmations": 11478, "time": 1537873891, "locktime": 0, "vsize": 165, "size": 247}