{"hash": "08af5da115babb96ef758e6bfee69b1c38e41263aee4a578d1fa9002d86309da", "blockhash": "0000000000000000001cda96e906b7601b7a6fb1a3b62bca570a9e5d8f4b3de1", "vout": [{"scriptPubKey": {"reqSigs": 1, "hex": "76a9149f6bd6ee88619639c3eb50017927b753944cb24388ac", "addresses": ["1FXwdKvQT7Bq7mhHu9L6n9WjSrDxkU5mgo"], "asm": "OP_DUP OP_HASH160 9f6bd6ee88619639c3eb50017927b753944cb243 OP_EQUALVERIFY OP_CHECKSIG", "type": "pubkeyhash"}, "value": 0.03407514, "n": 0}, {"scriptPubKey": {"reqSigs": 1, "hex": "a9143fb7884eac0f7571a7e9ac7ca6b1b7b34df7ac3a87", "addresses": ["37VvMgpHJebHdFtWBWDwmLtRAPp7ZiXSq7"], "asm": "OP_HASH160 3fb7884eac0f7571a7e9ac7ca6b1b7b34df7ac3a OP_EQUAL", "type": "scripthash"}, "value": 0.0412, "n": 1}], "hex": "0100000001847fb6c1c689c729a84bc180b3c6ab0b46b57f3c9c81fa9e860d86901e732401010000006b483045022100ee630d3e81dca3b870bbaea1415d100336070f8aa081325594b232b1c298357c0220262fb5149757d4411570a5d439a83d76313a8e3b35632afdaf305e67a41d668d012103599c8b6410e5cacc0aac1825e6af5102d03fada2ec15030b527d4617888bab87ffffffff029afe3300000000001976a9149f6bd6ee88619639c3eb50017927b753944cb24388acc0dd3e000000000017a9143fb7884eac0f7571a7e9ac7ca6b1b7b34df7ac3a8700000000", "vin": [{"sequence": 4294967295, "scriptSig": {"hex": "483045022100ee630d3e81dca3b870bbaea1415d100336070f8aa081325594b232b1c298357c0220262fb5149757d4411570a5d439a83d76313a8e3b35632afdaf305e67a41d668d012103599c8b6410e5cacc0aac1825e6af5102d03fada2ec15030b527d4617888bab87", "asm": "3045022100ee630d3e81dca3b870bbaea1415d100336070f8aa081325594b232b1c298357c0220262fb5149757d4411570a5d439a83d76313a8e3b35632afdaf305e67a41d668d[ALL] 03599c8b6410e5cacc0aac1825e6af5102d03fada2ec15030b527d4617888bab87"}, "vout": 1, "txid": "0124731e90860d869efa819c3c7fb5460babc6b380c14ba829c789c6c1b67f84"}], "txid": "08af5da115babb96ef758e6bfee69b1c38e41263aee4a578d1fa9002d86309da", "blocktime": 1537873282, "version": 1, "confirmations": 11484, "time": 1537873282, "locktime": 0, "vsize": 224, "size": 224}