{"hash": "d8bbff5ba84f4a740c914dd4b71c481866c386e4f10b866a5fc0cc4b06705faa", "blockhash": "0000000000000000000baef3f32e3676a92c3b2e5da21b426e4f302fc371ce76", "vout": [{"scriptPubKey": {"reqSigs": 1, "hex": "a914094492effe0e6b941ce68ce48ee11531fe345c1787", "addresses": ["32Y29scisJWEXmHqfcpVJHkrUraUanWeuA"], "asm": "OP_HASH160 094492effe0e6b941ce68ce48ee11531fe345c17 OP_EQUAL", "type": "scripthash"}, "value": 0.2345187, "n": 0}, {"scriptPubKey": {"reqSigs": 1, "hex": "a91474c44c9832c63e2a99ed16d28accbeaff8f1498287", "addresses": ["3CLRTuMNgdNfqE4D82Gn2GAncxsRniuCcB"], "asm": "OP_HASH160 74c44c9832c63e2a99ed16d28accbeaff8f14982 OP_EQUAL", "type": "scripthash"}, "value": 2.23741015, "n": 1}], "hex": "02000000000101efc243ac5aec431d0431402fe7a44a61c57cb08500667616edb1dab19d4043f501000000171600140c5ba4a9cbc59401da652de7007604b5d1f14262feffffff02ded865010000000017a914094492effe0e6b941ce68ce48ee11531fe345c17875704560d0000000017a91474c44c9832c63e2a99ed16d28accbeaff8f149828702473044022053d96b617fa41ffd0c5d3e3b96077b4d4c4c6beed078a893c9b9ef5b7d57ea3202205f1feb41bd7f3a4b3d8743bfdf364a5ca45bb03a5f415c5d7297f65205135361012103188d2db06046b2eda575138dc32e58a00bbeb3c65f6da33418c3c9ff388aac1316490800", "vin": [{"txinwitness": ["3044022053d96b617fa41ffd0c5d3e3b96077b4d4c4c6beed078a893c9b9ef5b7d57ea3202205f1feb41bd7f3a4b3d8743bfdf364a5ca45bb03a5f415c5d7297f6520513536101", "03188d2db06046b2eda575138dc32e58a00bbeb3c65f6da33418c3c9ff388aac13"], "sequence": 4294967294, "scriptSig": {"hex": "1600140c5ba4a9cbc59401da652de7007604b5d1f14262", "asm": "00140c5ba4a9cbc59401da652de7007604b5d1f14262"}, "vout": 1, "txid": "f543409db1dab1ed1676660085b07cc5614aa4e72f4031041d43ec5aac43c2ef"}], "txid": "08b1c82c44137e7429cc0334c375ae53b7a8a182af59e8604ec64891683ad7e0", "blocktime": 1537876114, "version": 2, "confirmations": 11460, "time": 1537876114, "locktime": 542998, "vsize": 166, "size": 247}