{"hash": "d7cc844de022da5861775f8f37aea8dc06a76d52712aac11f6f7b72252a48623", "blockhash": "00000000000000000018f53835495a110e01622372bf6ae95dc86f2b0ab887b0", "vout": [{"scriptPubKey": {"reqSigs": 1, "hex": "76a91415b762b292f440c327bd650db0a32eb49e467c2788ac", "addresses": ["12ypssyo2QdUwhVWjMUqqpvGNYR7ZvWiF4"], "asm": "OP_DUP OP_HASH160 15b762b292f440c327bd650db0a32eb49e467c27 OP_EQUALVERIFY OP_CHECKSIG", "type": "pubkeyhash"}, "value": 0.01559938, "n": 0}, {"scriptPubKey": {"reqSigs": 1, "hex": "a914c78ec12ff88195a24ce501f46dabd0514396961d87", "addresses": ["3KtBQV2xrrAdg7CCTp9aaQWPBmwnUiGwKK"], "asm": "OP_HASH160 c78ec12ff88195a24ce501f46dabd0514396961d OP_EQUAL", "type": "scripthash"}, "value": 0.24409514, "n": 1}, {"scriptPubKey": {"reqSigs": 1, "hex": "a914cea4ddc6a60a18e49792decc544186edfa0a464487", "addresses": ["3LXedAzKCsKTBryQMEA2RvE5FcVwYb7HoF"], "asm": "OP_HASH160 cea4ddc6a60a18e49792decc544186edfa0a4644 OP_EQUAL", "type": "scripthash"}, "value": 0.00499733, "n": 2}, {"scriptPubKey": {"reqSigs": 1, "hex": "a9146ead5eff09618cfeb3b25c0ee7cae4fee15e06b887", "addresses": ["3BnDwgKv8XyNQZ9Bsh57uFBENvf1UK5aMV"], "asm": "OP_HASH160 6ead5eff09618cfeb3b25c0ee7cae4fee15e06b8 OP_EQUAL", "type": "scripthash"}, "value": 0.00053, "n": 3}, {"scriptPubKey": {"reqSigs": 1, "hex": "a9148ae39f2e197ee59016a79344388a5d91ee848ca587", "addresses": ["3EMPrTQWrZtR7TLLGyGTpxB3soK3s1kPfg"], "asm": "OP_HASH160 8ae39f2e197ee59016a79344388a5d91ee848ca5 OP_EQUAL", "type": "scripthash"}, "value": 0.00026693, "n": 4}], "hex": "01000000000101eb385251dabb83834ec37ec365eaf71a8a6e13a3e3b601c2876851ccd0c53c6a0300000023220020357dd3294109d7d230d294bf4fce877bb2b6c29d570cc7889986c7983da1c7dcffffffff0582cd1700000000001976a91415b762b292f440c327bd650db0a32eb49e467c2788acaa7574010000000017a914c78ec12ff88195a24ce501f46dabd0514396961d8715a007000000000017a914cea4ddc6a60a18e49792decc544186edfa0a46448708cf00000000000017a9146ead5eff09618cfeb3b25c0ee7cae4fee15e06b887456800000000000017a9148ae39f2e197ee59016a79344388a5d91ee848ca5870400483045022100defa1b486dd2a25849b55ce9f5be2a95d8f622a9910e48a0c22a59963d99130b02203eeeeb4df57c61899d98f02517a1ab95a5a0c93daefdbbdd3f98a789c71df8a601483045022100cfc3eb9d70736f2d843f7b0d38659117f9f0db7e41bd1ccc65dec72e2824d0e202207819e8c1d7239e48cbb19cadacdc580bae72d21d5a28f8d58168540254ceabe501695221028da14f37c87ca8ecd5724a25a4e21e07a8fa4ebb395bcd986be11b451646d944210349154e85b54d4006a5e84a7dbb5a9f3807fbcc8e3557279d82c80e2e267befe821024eb46f6fe7e93764e8a78a73fabb73f3837a68769d0d32623f43ec976599a3ff53ae00000000", "vin": [{"txinwitness": ["", "3045022100defa1b486dd2a25849b55ce9f5be2a95d8f622a9910e48a0c22a59963d99130b02203eeeeb4df57c61899d98f02517a1ab95a5a0c93daefdbbdd3f98a789c71df8a601", "3045022100cfc3eb9d70736f2d843f7b0d38659117f9f0db7e41bd1ccc65dec72e2824d0e202207819e8c1d7239e48cbb19cadacdc580bae72d21d5a28f8d58168540254ceabe501", "5221028da14f37c87ca8ecd5724a25a4e21e07a8fa4ebb395bcd986be11b451646d944210349154e85b54d4006a5e84a7dbb5a9f3807fbcc8e3557279d82c80e2e267befe821024eb46f6fe7e93764e8a78a73fabb73f3837a68769d0d32623f43ec976599a3ff53ae"], "sequence": 4294967295, "scriptSig": {"hex": "220020357dd3294109d7d230d294bf4fce877bb2b6c29d570cc7889986c7983da1c7dc", "asm": "0020357dd3294109d7d230d294bf4fce877bb2b6c29d570cc7889986c7983da1c7dc"}, "vout": 3, "txid": "6a3cc5d0cc516887c201b6e3a3136e8a1af7ea65c37ec34e8383bbda515238eb"}], "txid": "08b290e57e912c43ebe986101b5c1c3caca9dffef2f921d0dc9a02ea33fc0bbd", "blocktime": 1537870928, "version": 1, "confirmations": 11512, "time": 1537870928, "locktime": 0, "vsize": 312, "size": 504}