{"hash": "08b7dc5126ec17f96212cf8adcccdb0c2c48fe4229362ded8381fe551e54ed58", "blockhash": "000000000000000000022b45ed06c6f4ccd3cf7fb5ba4856ebd2e58215665228", "vout": [{"scriptPubKey": {"reqSigs": 1, "hex": "76a914952b92fe267845439b5b08c87ef37c5fd3701a1188ac", "addresses": ["1EbjtAtnkRS9V1M1iwqSnYNteNgjRKqiHr"], "asm": "OP_DUP OP_HASH160 952b92fe267845439b5b08c87ef37c5fd3701a11 OP_EQUALVERIFY OP_CHECKSIG", "type": "pubkeyhash"}, "value": 0.00028182, "n": 0}, {"scriptPubKey": {"reqSigs": 1, "hex": "76a914a5103a6a9f5b0d7f8e0d09992c547445eb31bdad88ac", "addresses": ["1G3mwCyHp8rEG3G5gnwAh1HtBep2DvzP5d"], "asm": "OP_DUP OP_HASH160 a5103a6a9f5b0d7f8e0d09992c547445eb31bdad OP_EQUALVERIFY OP_CHECKSIG", "type": "pubkeyhash"}, "value": 0.0015573, "n": 1}], "hex": "0100000001d84818aef900768ad39896e297d921684b3ef9088c005522666adb11b082703c010000006a47304402201d57de1a3e32139fa01c27f83a20f9e0504f4743d5785bdc2c915d23a4f6809d0220211a3bde8ceaaaa4c8ad865a5ec99e01987d189c302ed2d24efe579c1f8fe3ce01210207b0d8382a6cfb820c73aeeb497e94bc45611bbf9533d995446f51bc82fe0168ffffffff02166e0000000000001976a914952b92fe267845439b5b08c87ef37c5fd3701a1188ac52600200000000001976a914a5103a6a9f5b0d7f8e0d09992c547445eb31bdad88ac00000000", "vin": [{"sequence": 4294967295, "scriptSig": {"hex": "47304402201d57de1a3e32139fa01c27f83a20f9e0504f4743d5785bdc2c915d23a4f6809d0220211a3bde8ceaaaa4c8ad865a5ec99e01987d189c302ed2d24efe579c1f8fe3ce01210207b0d8382a6cfb820c73aeeb497e94bc45611bbf9533d995446f51bc82fe0168", "asm": "304402201d57de1a3e32139fa01c27f83a20f9e0504f4743d5785bdc2c915d23a4f6809d0220211a3bde8ceaaaa4c8ad865a5ec99e01987d189c302ed2d24efe579c1f8fe3ce[ALL] 0207b0d8382a6cfb820c73aeeb497e94bc45611bbf9533d995446f51bc82fe0168"}, "vout": 1, "txid": "3c7082b011db6a662255008c08f93e4b6821d997e29698d38a7600f9ae1848d8"}], "txid": "08b7dc5126ec17f96212cf8adcccdb0c2c48fe4229362ded8381fe551e54ed58", "blocktime": 1537869901, "version": 1, "confirmations": 11522, "time": 1537869901, "locktime": 0, "vsize": 225, "size": 225}