{"hash": "e7c47a677b16cfed14aa2c2e7fc3c54cf95a0999baabf7a8670860e59905b405", "blockhash": "0000000000000000001cda96e906b7601b7a6fb1a3b62bca570a9e5d8f4b3de1", "vout": [{"scriptPubKey": {"reqSigs": 1, "hex": "a91413971855727b14bf57fe0b083f5a270aec3410b487", "addresses": ["33UbmTTKtdzQPQ2W1zvVPggz5AHiPh1xE8"], "asm": "OP_HASH160 13971855727b14bf57fe0b083f5a270aec3410b4 OP_EQUAL", "type": "scripthash"}, "value": 0.03, "n": 0}, {"scriptPubKey": {"reqSigs": 1, "hex": "00148948cf522f3eb11a47d29b0f7f14c51e46cf663c", "addresses": ["bc1q39yv753086c3537jnv8h79x9rerv7e3u00mtyl"], "asm": "0 8948cf522f3eb11a47d29b0f7f14c51e46cf663c", "type": "witness_v0_keyhash"}, "value": 0.00259692, "n": 1}], "hex": "01000000000101dd196917c75e2e7f940f2d7a30fd2d8920e3472d46e2123ba4ef7ce7a64e08c000000000171600142f93f62b1600def69a80314b2d3c934c1c038ba4ffffffff02c0c62d000000000017a91413971855727b14bf57fe0b083f5a270aec3410b4876cf60300000000001600148948cf522f3eb11a47d29b0f7f14c51e46cf663c024730440220251c7f2a3e31e26fd68d79d3d5818cf56ed17a468e8381d654e97aa33efb1f4202203c500720f93f46c147abd1853b9e891ab32e96bd6eeacbf23853cfeefd4e7a320121032f3e8b64593eeff49668ec6e03b26ef9168708c9e3f8d4c9eb2953f7249f9e2200000000", "vin": [{"txinwitness": ["30440220251c7f2a3e31e26fd68d79d3d5818cf56ed17a468e8381d654e97aa33efb1f4202203c500720f93f46c147abd1853b9e891ab32e96bd6eeacbf23853cfeefd4e7a3201", "032f3e8b64593eeff49668ec6e03b26ef9168708c9e3f8d4c9eb2953f7249f9e22"], "sequence": 4294967295, "scriptSig": {"hex": "1600142f93f62b1600def69a80314b2d3c934c1c038ba4", "asm": "00142f93f62b1600def69a80314b2d3c934c1c038ba4"}, "vout": 0, "txid": "c0084ea6e77cefa43b12e2462d47e320892dfd307a2d0f947f2e5ec7176919dd"}], "txid": "08c57f9b1c537aa5c654e9f17bd9f48673b63dfb981af0e810198e5ba207a1cf", "blocktime": 1537873282, "version": 1, "confirmations": 11484, "time": 1537873282, "locktime": 0, "vsize": 165, "size": 246}