{"hash": "08ca7d858ddaf7c79a02993865c5cea060ebae3016aae138bc066e984c642c3c", "blockhash": "000000000000000000205f8b0775d31398ef75b89a5e8ec8d2c57b4dc0ac4c20", "vout": [{"scriptPubKey": {"reqSigs": 1, "hex": "a91439d395d8075eab2b76eda1b2c84639519ba37a7487", "addresses": ["36xmugeW1ncckNfaTS5eARCoRHsCHdWPf2"], "asm": "OP_HASH160 39d395d8075eab2b76eda1b2c84639519ba37a74 OP_EQUAL", "type": "scripthash"}, "value": 0.01846216, "n": 0}], "hex": "0100000001dde5afe9de875ba9f80eacb38d79974d53d32ce06b629af0fa39c470faef3134030000008b483045022100da0d36c4feb55bb46febc6b84687ab85b42786b3739a75575e44fb08d3b6db6a0220123555237f7c052c4ce7f9a37787034b62ca387f6a2ee071cfc95cc641fc7e70014104d98ac187024b15354eb96942f7d0b56564c881282e5c56415616befec39b2062eb3384864ca47d5eeabb7be8530daf65d7a72dd8374a07bfde7b429a23cafa12ffffffff01c82b1c000000000017a91439d395d8075eab2b76eda1b2c84639519ba37a748700000000", "vin": [{"sequence": 4294967295, "scriptSig": {"hex": "483045022100da0d36c4feb55bb46febc6b84687ab85b42786b3739a75575e44fb08d3b6db6a0220123555237f7c052c4ce7f9a37787034b62ca387f6a2ee071cfc95cc641fc7e70014104d98ac187024b15354eb96942f7d0b56564c881282e5c56415616befec39b2062eb3384864ca47d5eeabb7be8530daf65d7a72dd8374a07bfde7b429a23cafa12", "asm": "3045022100da0d36c4feb55bb46febc6b84687ab85b42786b3739a75575e44fb08d3b6db6a0220123555237f7c052c4ce7f9a37787034b62ca387f6a2ee071cfc95cc641fc7e70[ALL] 04d98ac187024b15354eb96942f7d0b56564c881282e5c56415616befec39b2062eb3384864ca47d5eeabb7be8530daf65d7a72dd8374a07bfde7b429a23cafa12"}, "vout": 3, "txid": "3431effa70c439faf09a626be02cd3534d97798db3ac0ef8a95b87dee9afe5dd"}], "txid": "08ca7d858ddaf7c79a02993865c5cea060ebae3016aae138bc066e984c642c3c", "blocktime": 1537871175, "version": 1, "confirmations": 11511, "time": 1537871175, "locktime": 0, "vsize": 222, "size": 222}