{"hash": "08ca94d07e7e3616fda87972378e1285034e47f52eeef17ff8ab43efc160a4ed", "blockhash": "0000000000000000001e0dab787dd257d1dbfcb92a98c2207d5e1078be1f4165", "vout": [{"scriptPubKey": {"reqSigs": 1, "hex": "76a9147635bd0ad208e26bdda1c3b94313191cf8bb58b188ac", "addresses": ["1Bn37T2Rrm9gZ1sW2ia5Vcw6xWxpoCNMMX"], "asm": "OP_DUP OP_HASH160 7635bd0ad208e26bdda1c3b94313191cf8bb58b1 OP_EQUALVERIFY OP_CHECKSIG", "type": "pubkeyhash"}, "value": 0.00098, "n": 0}, {"scriptPubKey": {"reqSigs": 1, "hex": "76a914ca0986cb0c1c8d283328740f6a5bc8567a85abb688ac", "addresses": ["1KRGufaEsVHsxjWcTJCwmG2LvSkyL23fVQ"], "asm": "OP_DUP OP_HASH160 ca0986cb0c1c8d283328740f6a5bc8567a85abb6 OP_EQUALVERIFY OP_CHECKSIG", "type": "pubkeyhash"}, "value": 0.27350576, "n": 1}], "hex": "0100000001f9112706db633424752c4769719483fc2c7f39f0a5c4b23bc8614f2adbe72d96010000006b483045022100be6e05de56ab595673ff7d8b2836f1258b44e84480dc681aa799272d7f8cba2702201a9cfb382c72088f4a9788be096c773f93dedc5b68386527e572092b19b39985012102d81d659dec9062294f01792a308a6ab4f9522b5842cfdb07279a93754f3e44e4ffffffff02d07e0100000000001976a9147635bd0ad208e26bdda1c3b94313191cf8bb58b188ac3056a101000000001976a914ca0986cb0c1c8d283328740f6a5bc8567a85abb688ac00000000", "vin": [{"sequence": 4294967295, "scriptSig": {"hex": "483045022100be6e05de56ab595673ff7d8b2836f1258b44e84480dc681aa799272d7f8cba2702201a9cfb382c72088f4a9788be096c773f93dedc5b68386527e572092b19b39985012102d81d659dec9062294f01792a308a6ab4f9522b5842cfdb07279a93754f3e44e4", "asm": "3045022100be6e05de56ab595673ff7d8b2836f1258b44e84480dc681aa799272d7f8cba2702201a9cfb382c72088f4a9788be096c773f93dedc5b68386527e572092b19b39985[ALL] 02d81d659dec9062294f01792a308a6ab4f9522b5842cfdb07279a93754f3e44e4"}, "vout": 1, "txid": "962de7db2a4f61c83bb2c4a5f0397f2cfc83947169472c75243463db062711f9"}], "txid": "08ca94d07e7e3616fda87972378e1285034e47f52eeef17ff8ab43efc160a4ed", "blocktime": 1537872475, "version": 1, "confirmations": 11487, "time": 1537872475, "locktime": 0, "vsize": 226, "size": 226}