{"hash": "e2fa5cc85e3d90416f03053af5664ca2d37800359c9df97b1c9c2f9051bad67b", "blockhash": "00000000000000000017f5eb5941039fbcee6240d03bc1f2f8e35350df66a1d8", "vout": [{"scriptPubKey": {"reqSigs": 1, "hex": "a91474b53220b2a46d6876067d3d4921768a3fede6e187", "addresses": ["3CL7NW4DahUrgnBjSsB3ouTRbXxDrz2KNZ"], "asm": "OP_HASH160 74b53220b2a46d6876067d3d4921768a3fede6e1 OP_EQUAL", "type": "scripthash"}, "value": 0.00435842, "n": 0}, {"scriptPubKey": {"reqSigs": 1, "hex": "0014bf21548277f2d9838df10c2de3a1d030f8216794", "addresses": ["bc1qhus4fqnh7tvc8r03psk78gwsxruzzeu5n5lk5d"], "asm": "0 bf21548277f2d9838df10c2de3a1d030f8216794", "type": "witness_v0_keyhash"}, "value": 7.593e-05, "n": 1}], "hex": "0100000000010139cacc92723424de19eb1f19b068dca992479f61b267b0b674fae4becf3dde330b00000017160014b90e381e770893fe0e92c5a92847fd4ef5a97573ffffffff0282a606000000000017a91474b53220b2a46d6876067d3d4921768a3fede6e187a91d000000000000160014bf21548277f2d9838df10c2de3a1d030f8216794024730440220014ff2fc0cf7a27358cc7d40c6559a37767a08036daa7e869a7467cc9b7e891f022016fd2f641f9ed84805642bb18f5668a5b28b7ba02ee97a033d377b921cb43bad0121025320d499d770e25a3743cad51ae945de2f051cb5e3d85ec5539525df03288b0700000000", "vin": [{"txinwitness": ["30440220014ff2fc0cf7a27358cc7d40c6559a37767a08036daa7e869a7467cc9b7e891f022016fd2f641f9ed84805642bb18f5668a5b28b7ba02ee97a033d377b921cb43bad01", "025320d499d770e25a3743cad51ae945de2f051cb5e3d85ec5539525df03288b07"], "sequence": 4294967295, "scriptSig": {"hex": "160014b90e381e770893fe0e92c5a92847fd4ef5a97573", "asm": "0014b90e381e770893fe0e92c5a92847fd4ef5a97573"}, "vout": 11, "txid": "33de3dcfbee4fa74b6b067b2619f4792a9dc68b0191feb19de24347292ccca39"}], "txid": "08ceca4164017439a29b1e75aca5c4f704e115f14ae1f44a044fdedcd64079cb", "blocktime": 1537874412, "version": 1, "confirmations": 11468, "time": 1537874412, "locktime": 0, "vsize": 165, "size": 246}