{"hash": "76853f0bb44ea63c5924c5e9c13f5cd2a149bd7b5ce7cd47feddd2428e38ca8d", "blockhash": "0000000000000000001f76057863aec43deb6fa401d9628bb513d65a8098bfab", "vout": [{"scriptPubKey": {"reqSigs": 1, "hex": "a914403e1fd257152a3f40885967f7bbaa8929c07c2d87", "addresses": ["37YhbHxTq6q4ACsradbfzjVyqicb8cE8sb"], "asm": "OP_HASH160 403e1fd257152a3f40885967f7bbaa8929c07c2d OP_EQUAL", "type": "scripthash"}, "value": 0.024132, "n": 0}, {"scriptPubKey": {"reqSigs": 1, "hex": "a9146980114aea026a9496f120ba8a911edb131c94ba87", "addresses": ["3BJrHyX5LT5HMqkWRLQRrwiQ3QZuPf8S2K"], "asm": "OP_HASH160 6980114aea026a9496f120ba8a911edb131c94ba OP_EQUAL", "type": "scripthash"}, "value": 0.00714372, "n": 1}], "hex": "02000000000101d1258892c649c16c71815b9c6500c19f37477df854553918284404b3ca2f57ac010000001716001417beb9ed846e7ac66dcd26df5275381a4aab6e9dffffffff0290d224000000000017a914403e1fd257152a3f40885967f7bbaa8929c07c2d8784e60a000000000017a9146980114aea026a9496f120ba8a911edb131c94ba8702483045022100c8f80e1ee18138daa0967f5a2b6efb5ad54aad1f11fcac921b42674d388323b402206b49e1c26714e56d5144bc74ac3860caa28d2076286c58096fd51baa9fd123cf012103b03fddd78d664108aa3f1a8e03d810890f5b4f6a04d758ec7625a5e3015d663d00000000", "vin": [{"txinwitness": ["3045022100c8f80e1ee18138daa0967f5a2b6efb5ad54aad1f11fcac921b42674d388323b402206b49e1c26714e56d5144bc74ac3860caa28d2076286c58096fd51baa9fd123cf01", "03b03fddd78d664108aa3f1a8e03d810890f5b4f6a04d758ec7625a5e3015d663d"], "sequence": 4294967295, "scriptSig": {"hex": "16001417beb9ed846e7ac66dcd26df5275381a4aab6e9d", "asm": "001417beb9ed846e7ac66dcd26df5275381a4aab6e9d"}, "vout": 1, "txid": "ac572fcab304442818395554f87d47379fc100659c5b81716cc149c6928825d1"}], "txid": "08cfa18c2734b30f92b41b3fe83a16a8f9d03c33e5a6e0cbd16db9ae395a0310", "blocktime": 1537873891, "version": 2, "confirmations": 11475, "time": 1537873891, "locktime": 0, "vsize": 166, "size": 248}