{"hash": "08d1059d46f95be7711a40d7d0bcb4d904387ea5fe6927a17a07c3e5ca7b3f3b", "blockhash": "00000000000000000004ffacab907a6b429b9a5745fa0b75af4234bf69dd7176", "vout": [{"scriptPubKey": {"reqSigs": 1, "hex": "a914f5470b4af060688880eed09c36f3a3568141311487", "addresses": ["3Q3vamprRw1cJTYSmQvP9H2ELfoN9txUFL"], "asm": "OP_HASH160 f5470b4af060688880eed09c36f3a35681413114 OP_EQUAL", "type": "scripthash"}, "value": 0.02363327, "n": 0}, {"scriptPubKey": {"reqSigs": 1, "hex": "76a9145be865fae776ec331e6d380c6a42b6bf0a4e2ae088ac", "addresses": ["19Nxtn78d8Ctg4YnAb9jG5GqCZDa7usktj"], "asm": "OP_DUP OP_HASH160 5be865fae776ec331e6d380c6a42b6bf0a4e2ae0 OP_EQUALVERIFY OP_CHECKSIG", "type": "pubkeyhash"}, "value": 2.00945838, "n": 1}], "hex": "01000000016cd54f0d8d73955f53144648e776320486b9d6b67e3ce36a684a9d8e9cad5856010000006a47304402201cc88a323ac85d4891cf21c98d78fb4e8138ea639748c1ef58461fdf445a8e1a022018a70eb1e73020d9f487f1787ae66a865d6237110b5ea8a83571902b6c055d71012103f66de701755af53b87f909ab5b191a160de255093f567eefed38c0240aa56af2ffffffff02bf0f24000000000017a914f5470b4af060688880eed09c36f3a3568141311487ae30fa0b000000001976a9145be865fae776ec331e6d380c6a42b6bf0a4e2ae088ac00000000", "vin": [{"sequence": 4294967295, "scriptSig": {"hex": "47304402201cc88a323ac85d4891cf21c98d78fb4e8138ea639748c1ef58461fdf445a8e1a022018a70eb1e73020d9f487f1787ae66a865d6237110b5ea8a83571902b6c055d71012103f66de701755af53b87f909ab5b191a160de255093f567eefed38c0240aa56af2", "asm": "304402201cc88a323ac85d4891cf21c98d78fb4e8138ea639748c1ef58461fdf445a8e1a022018a70eb1e73020d9f487f1787ae66a865d6237110b5ea8a83571902b6c055d71[ALL] 03f66de701755af53b87f909ab5b191a160de255093f567eefed38c0240aa56af2"}, "vout": 1, "txid": "5658ad9c8e9d4a686ae33c7eb6d6b986043276e7484614535f95738d0d4fd56c"}], "txid": "08d1059d46f95be7711a40d7d0bcb4d904387ea5fe6927a17a07c3e5ca7b3f3b", "blocktime": 1537875543, "version": 1, "confirmations": 11464, "time": 1537875543, "locktime": 0, "vsize": 223, "size": 223}