{"hash": "08d1dedc05eca039bd92eb80374c591ccb25073117088fdc8a031f299ad35dbb", "blockhash": "0000000000000000001cda96e906b7601b7a6fb1a3b62bca570a9e5d8f4b3de1", "vout": [{"scriptPubKey": {"reqSigs": 1, "hex": "76a914123e18b2734f6270918ba257a79f117b0d3bebe188ac", "addresses": ["12fTYzWVfBCTmtNegFvje4dmsrZjyDguGH"], "asm": "OP_DUP OP_HASH160 123e18b2734f6270918ba257a79f117b0d3bebe1 OP_EQUALVERIFY OP_CHECKSIG", "type": "pubkeyhash"}, "value": 0.00135255, "n": 0}, {"scriptPubKey": {"reqSigs": 1, "hex": "76a914e39c6a9dd9913e92f86d73bdfba1f420aab2d39d88ac", "addresses": ["1MkVmZ3Rs5pa71jPpwJ49PEW6oJzxHFou7"], "asm": "OP_DUP OP_HASH160 e39c6a9dd9913e92f86d73bdfba1f420aab2d39d OP_EQUALVERIFY OP_CHECKSIG", "type": "pubkeyhash"}, "value": 6.229e-05, "n": 1}], "hex": "01000000028dc2772e91c6335c06bbc47983dfe79d6dc07401017f87605b67e3c8adcc3fa8000000006b4830450221008e89383c7dcffb92ad59284f41e6ad4a40fb8432358400de29e0d3cea7c86795022033016ea9066f1049b3961898ecd12483143ac4a5ecc1861512b6c946b6055f6f012102978d27e4ee65b60201a888f22a974bd2ed9fbcc8e734050860e3f77828d9642afffffffffc6c8b0d17c8ea9d6cf0a73302df2b4a12dc79ff1848eab0ec11b48591f69743010000006b483045022100ea6adde837f1f3a832bfb8a09cefc030f9e38e931a7e24f7008310ec4991a218022041516d09ea61b17f87028e2cf0f855fb0901bfcfcd26fe6ac6b227eb2a4a366c0121031aead762118aa15de3af77b2a90f3242e0ce42c8ee6c1ac488c1cffc41000c35ffffffff0257100200000000001976a914123e18b2734f6270918ba257a79f117b0d3bebe188ac55180000000000001976a914e39c6a9dd9913e92f86d73bdfba1f420aab2d39d88ac00000000", "vin": [{"sequence": 4294967295, "scriptSig": {"hex": "4830450221008e89383c7dcffb92ad59284f41e6ad4a40fb8432358400de29e0d3cea7c86795022033016ea9066f1049b3961898ecd12483143ac4a5ecc1861512b6c946b6055f6f012102978d27e4ee65b60201a888f22a974bd2ed9fbcc8e734050860e3f77828d9642a", "asm": "30450221008e89383c7dcffb92ad59284f41e6ad4a40fb8432358400de29e0d3cea7c86795022033016ea9066f1049b3961898ecd12483143ac4a5ecc1861512b6c946b6055f6f[ALL] 02978d27e4ee65b60201a888f22a974bd2ed9fbcc8e734050860e3f77828d9642a"}, "vout": 0, "txid": "a83fccadc8e3675b60877f010174c06d9de7df8379c4bb065c33c6912e77c28d"}, {"sequence": 4294967295, "scriptSig": {"hex": "483045022100ea6adde837f1f3a832bfb8a09cefc030f9e38e931a7e24f7008310ec4991a218022041516d09ea61b17f87028e2cf0f855fb0901bfcfcd26fe6ac6b227eb2a4a366c0121031aead762118aa15de3af77b2a90f3242e0ce42c8ee6c1ac488c1cffc41000c35", "asm": "3045022100ea6adde837f1f3a832bfb8a09cefc030f9e38e931a7e24f7008310ec4991a218022041516d09ea61b17f87028e2cf0f855fb0901bfcfcd26fe6ac6b227eb2a4a366c[ALL] 031aead762118aa15de3af77b2a90f3242e0ce42c8ee6c1ac488c1cffc41000c35"}, "vout": 1, "txid": "4397f69185b411ecb0ea4818ff79dc124a2bdf0233a7f06c9deac8170d8b6cfc"}], "txid": "08d1dedc05eca039bd92eb80374c591ccb25073117088fdc8a031f299ad35dbb", "blocktime": 1537873282, "version": 1, "confirmations": 11481, "time": 1537873282, "locktime": 0, "vsize": 374, "size": 374}