{"hash": "08d393e9ab40be1c2b6569ca07039bfd6899f013622b9830d1f9d7de3479594c", "blockhash": "00000000000000000024a2167bbff67b0be802c0b01cdd79e6331c2be6459f87", "vout": [{"scriptPubKey": {"reqSigs": 1, "hex": "76a9143025f345610907ad561c0a233310c4841014d11188ac", "addresses": ["15Pau3HQbzva9ToHioM55THdPt4n6iaskg"], "asm": "OP_DUP OP_HASH160 3025f345610907ad561c0a233310c4841014d111 OP_EQUALVERIFY OP_CHECKSIG", "type": "pubkeyhash"}, "value": 0.009, "n": 0}, {"scriptPubKey": {"reqSigs": 1, "hex": "76a914a8f0ef12d4d4809b5689f062f04771d3a192205e88ac", "addresses": ["1GQH9cD7FF46giQMVgbbDpKAyz6MHJfk35"], "asm": "OP_DUP OP_HASH160 a8f0ef12d4d4809b5689f062f04771d3a192205e OP_EQUALVERIFY OP_CHECKSIG", "type": "pubkeyhash"}, "value": 0.13965248, "n": 1}], "hex": "0100000001874102f2515609cfe19717bc51b3f9e0a2bfc4c32de8ffafd204e316a907b988010000006b483045022100f51a7a646a9aa05ee9b68978033021abf2fd87c8c223b7539be5a470488c4a8a02201e45b8ca219e506e566e9efa5753d121a42f3a98644bbc1243353ddf008f9caf012103445bef380a08514c5e51448086b291eed44bd2f87f7d32293c89c15c774a48cfffffffff02a0bb0d00000000001976a9143025f345610907ad561c0a233310c4841014d11188acc017d500000000001976a914a8f0ef12d4d4809b5689f062f04771d3a192205e88ac00000000", "vin": [{"sequence": 4294967295, "scriptSig": {"hex": "483045022100f51a7a646a9aa05ee9b68978033021abf2fd87c8c223b7539be5a470488c4a8a02201e45b8ca219e506e566e9efa5753d121a42f3a98644bbc1243353ddf008f9caf012103445bef380a08514c5e51448086b291eed44bd2f87f7d32293c89c15c774a48cf", "asm": "3045022100f51a7a646a9aa05ee9b68978033021abf2fd87c8c223b7539be5a470488c4a8a02201e45b8ca219e506e566e9efa5753d121a42f3a98644bbc1243353ddf008f9caf[ALL] 03445bef380a08514c5e51448086b291eed44bd2f87f7d32293c89c15c774a48cf"}, "vout": 1, "txid": "88b907a916e304d2afffe82dc3c4bfa2e0f9b351bc1797e1cf095651f2024187"}], "txid": "08d393e9ab40be1c2b6569ca07039bfd6899f013622b9830d1f9d7de3479594c", "blocktime": 1537870564, "version": 1, "confirmations": 11515, "time": 1537870564, "locktime": 0, "vsize": 226, "size": 226}