{"hash": "424a50b0c0a2b55460db9ea4dc6e4c5f5a357c4cb653308212abdc94c65d3e8d", "blockhash": "0000000000000000001f76057863aec43deb6fa401d9628bb513d65a8098bfab", "vout": [{"scriptPubKey": {"reqSigs": 1, "hex": "0014ab07ffd865e348938e08a258064cd3981159b97b", "addresses": ["bc1q4vrllkr9udyf8rsg5fvqvnxnnqg4nwtmyeld77"], "asm": "0 ab07ffd865e348938e08a258064cd3981159b97b", "type": "witness_v0_keyhash"}, "value": 0.00013149, "n": 0}, {"scriptPubKey": {"reqSigs": 1, "hex": "76a914b3b2b07fa8de146f7bcf6adb271ae3b78ca6a26788ac", "addresses": ["1HPA1u6NDaXRctEnGhrkvhJzZwmttVoQsJ"], "asm": "OP_DUP OP_HASH160 b3b2b07fa8de146f7bcf6adb271ae3b78ca6a267 OP_EQUALVERIFY OP_CHECKSIG", "type": "pubkeyhash"}, "value": 0.014, "n": 1}], "hex": "01000000000101abfa33b6a319f68b4c8abf001ccca3c9481578ba1642d847c40123d60a5ee2d20000000000ffffffff025d33000000000000160014ab07ffd865e348938e08a258064cd3981159b97bc05c1500000000001976a914b3b2b07fa8de146f7bcf6adb271ae3b78ca6a26788ac02483045022100846244d62a3323b811d8135866585fba539d7ac9a60fea4489abcc5ae58f12d20220736b6affa2fe5fba5316be17dee5217810e00fae3250addca04eb4d2dc04454c0121031739b91f32b6c594c200589568e54bcb698d1a62dad1998cfdcd9830c237766800000000", "vin": [{"txinwitness": ["3045022100846244d62a3323b811d8135866585fba539d7ac9a60fea4489abcc5ae58f12d20220736b6affa2fe5fba5316be17dee5217810e00fae3250addca04eb4d2dc04454c01", "031739b91f32b6c594c200589568e54bcb698d1a62dad1998cfdcd9830c2377668"], "sequence": 4294967295, "scriptSig": {"hex": "", "asm": ""}, "vout": 0, "txid": "d2e25e0ad62301c447d84216ba781548c9a3cc1c00bf8a4c8bf619a3b633faab"}], "txid": "08d7e4e20bbbaeaad53bb9fc9305ccdd0ba63c62c01f7edc0d3f936104d23913", "blocktime": 1537873891, "version": 1, "confirmations": 11478, "time": 1537873891, "locktime": 0, "vsize": 144, "size": 226}