{"hash": "6f6f7e38445386aed86435d690f4a24c452bc3b0def32856ee100db94fea85f8", "blockhash": "00000000000000000024a2167bbff67b0be802c0b01cdd79e6331c2be6459f87", "vout": [{"scriptPubKey": {"reqSigs": 1, "hex": "a9144c007b23c0b114ff65c445d126819fb5f28e7b8e87", "addresses": ["38csrYXMwJQcoRPiWUZnp5gd5GdbvHrTjv"], "asm": "OP_HASH160 4c007b23c0b114ff65c445d126819fb5f28e7b8e OP_EQUAL", "type": "scripthash"}, "value": 0.01000048, "n": 0}, {"scriptPubKey": {"reqSigs": 1, "hex": "76a9142e449ba0f40a826ded3570ffe5b7684bda22b12b88ac", "addresses": ["15DeGncNoLhQMshYuWMYUdPweFpgTKo3Yp"], "asm": "OP_DUP OP_HASH160 2e449ba0f40a826ded3570ffe5b7684bda22b12b OP_EQUALVERIFY OP_CHECKSIG", "type": "pubkeyhash"}, "value": 0.0052496, "n": 1}], "hex": "0200000000010231a3d9b735d5ff69394280822d65b6e711c1ab3c63150ad2e2c6568ebc006c5c020000001716001413c6a2c7124ccd4ee5b6b4e1c7af6ed60e03184dfefffffff41daa49b3d67de15d9d01125ce29172f8ac0070d62707e2e73dcb5eb1835c2a0100000017160014c0e6b3b83579edfdd01be4dc9aa5154b8c0eb7e4feffffff0270420f000000000017a9144c007b23c0b114ff65c445d126819fb5f28e7b8e87a0020800000000001976a9142e449ba0f40a826ded3570ffe5b7684bda22b12b88ac02483045022100a2374f3b2f10b88fb6a375b373160e936695fd1b58ab0c0de7d3796c4421eb340220410b5cdd018e3de1d43c4a36769724feaec8593e6e308b7dd942a67b7fc5d66b012103e67fced4a78b099ba4d4ccc4bf67cc4658fd61a32f914146c1910ce94043e8f702483045022100ba94916fc7a855c65bcb31052f2e609afc2e53dfaa8838be8814ed10ce6161b2022020c55b0b3282974eec276caa9c3fec2e8b4bf8b2a737431ad3f18803d9ad98160121024057b427a492a706f3b6a1743a25082f0f1a20b3b57942b78a4d3b2c3a438bb50d490800", "vin": [{"txinwitness": ["3045022100a2374f3b2f10b88fb6a375b373160e936695fd1b58ab0c0de7d3796c4421eb340220410b5cdd018e3de1d43c4a36769724feaec8593e6e308b7dd942a67b7fc5d66b01", "03e67fced4a78b099ba4d4ccc4bf67cc4658fd61a32f914146c1910ce94043e8f7"], "sequence": 4294967294, "scriptSig": {"hex": "16001413c6a2c7124ccd4ee5b6b4e1c7af6ed60e03184d", "asm": "001413c6a2c7124ccd4ee5b6b4e1c7af6ed60e03184d"}, "vout": 2, "txid": "5c6c00bc8e56c6e2d20a15633cabc111e7b6652d8280423969ffd535b7d9a331"}, {"txinwitness": ["3045022100ba94916fc7a855c65bcb31052f2e609afc2e53dfaa8838be8814ed10ce6161b2022020c55b0b3282974eec276caa9c3fec2e8b4bf8b2a737431ad3f18803d9ad981601", "024057b427a492a706f3b6a1743a25082f0f1a20b3b57942b78a4d3b2c3a438bb5"], "sequence": 4294967294, "scriptSig": {"hex": "160014c0e6b3b83579edfdd01be4dc9aa5154b8c0eb7e4", "asm": "0014c0e6b3b83579edfdd01be4dc9aa5154b8c0eb7e4"}, "vout": 1, "txid": "2a5c83b15ecb3de7e20727d67000acf87291e25c12019d5de17dd6b349aa1df4"}], "txid": "08dbd6198acbfcfbe185f923555de51b4fa83c47b2d464f5ad3763e34b07920d", "blocktime": 1537870564, "version": 2, "confirmations": 11515, "time": 1537870564, "locktime": 542989, "vsize": 259, "size": 422}