{"hash": "08dbbae2bdb284f253a4527b96c7368550ef8bd7d0f0e781e98fce740b0d75e0", "blockhash": "00000000000000000018f53835495a110e01622372bf6ae95dc86f2b0ab887b0", "vout": [{"scriptPubKey": {"reqSigs": 1, "hex": "76a91430459c27a399aee325c7137c20250d24d0c5055288ac", "addresses": ["15QEpo4BqHWnhRfeQTnyZ91pr8cuxpNw8a"], "asm": "OP_DUP OP_HASH160 30459c27a399aee325c7137c20250d24d0c50552 OP_EQUALVERIFY OP_CHECKSIG", "type": "pubkeyhash"}, "value": 0.01011964, "n": 0}, {"scriptPubKey": {"reqSigs": 1, "hex": "a9144e854661e1ba516ac66f55531c6dcd043824a1f687", "addresses": ["38rCHcPv6aSFGKnCMX6zYeY3yLbkDTBNcM"], "asm": "OP_HASH160 4e854661e1ba516ac66f55531c6dcd043824a1f6 OP_EQUAL", "type": "scripthash"}, "value": 0.015604, "n": 1}], "hex": "0100000001ee57e7047710f9e27bbb4eec6f590cfa0c3b71a2a7bb59decf31a579ce269d90010000006b483045022100bc712bfc8bb5377a0d6622f5adfb71abb63b9b6ac880af8de091af21ecbef72002207ea2a49b7869350b9133f10f7c931c2588c8a31bf0def24da2295d2b67f6002e012102b0fd86f3cea001d6e6aed8e05e540edff39ab0bd439461a42666bd9dc2c24c59ffffffff02fc700f00000000001976a91430459c27a399aee325c7137c20250d24d0c5055288ac50cf17000000000017a9144e854661e1ba516ac66f55531c6dcd043824a1f68700000000", "vin": [{"sequence": 4294967295, "scriptSig": {"hex": "483045022100bc712bfc8bb5377a0d6622f5adfb71abb63b9b6ac880af8de091af21ecbef72002207ea2a49b7869350b9133f10f7c931c2588c8a31bf0def24da2295d2b67f6002e012102b0fd86f3cea001d6e6aed8e05e540edff39ab0bd439461a42666bd9dc2c24c59", "asm": "3045022100bc712bfc8bb5377a0d6622f5adfb71abb63b9b6ac880af8de091af21ecbef72002207ea2a49b7869350b9133f10f7c931c2588c8a31bf0def24da2295d2b67f6002e[ALL] 02b0fd86f3cea001d6e6aed8e05e540edff39ab0bd439461a42666bd9dc2c24c59"}, "vout": 1, "txid": "909d26ce79a531cfde59bba7a2713b0cfa0c596fec4ebb7be2f9107704e757ee"}], "txid": "08dbbae2bdb284f253a4527b96c7368550ef8bd7d0f0e781e98fce740b0d75e0", "blocktime": 1537870928, "version": 1, "confirmations": 11512, "time": 1537870928, "locktime": 0, "vsize": 224, "size": 224}