{"hash": "6d814f0153cb644729ede122332f94525676e502755b488bfa757f63851a060f", "blockhash": "0000000000000000001f76057863aec43deb6fa401d9628bb513d65a8098bfab", "vout": [{"scriptPubKey": {"reqSigs": 1, "hex": "a914996e2e7715879355bd38eb3ee672f0450ae43ec187", "addresses": ["3FgHJSQuR3nRp8cNBu6YVhRsgXdzDhKfxo"], "asm": "OP_HASH160 996e2e7715879355bd38eb3ee672f0450ae43ec1 OP_EQUAL", "type": "scripthash"}, "value": 0.00277706, "n": 0}, {"scriptPubKey": {"reqSigs": 1, "hex": "a914bcf8d36085ebfd0acdcb1089f58c6f9a850e63c187", "addresses": ["3JvD3KWnQME2SsrHsNgPajGZPrbrtBx4WN"], "asm": "OP_HASH160 bcf8d36085ebfd0acdcb1089f58c6f9a850e63c1 OP_EQUAL", "type": "scripthash"}, "value": 0.005939, "n": 1}], "hex": "010000000001028202fdde3463eb3dae7e9447765059905ef9d37dd4d2ff7affca6e735a64d97b02000000232200204edba156375ce14015a4683276739110f51e328074cb12e1024d6cf13f971430ffffffffbfd87fc8c0a346ab1e585bf986e3137a2e7cc58086befb380eba245ade0e44cb0000000023220020ffbefe1efcc72097d37e455fc330f04382c49f0476e47890a85429a6463dfcb7ffffffff02ca3c04000000000017a914996e2e7715879355bd38eb3ee672f0450ae43ec187ec0f09000000000017a914bcf8d36085ebfd0acdcb1089f58c6f9a850e63c1870400483045022100c820a092eb85459cc797d8fb5cecf2e9ef930c29915a4456f1f8aa0a1982b0610220718a47dc4738a7461d4e33f3f6316cbd83829849fa5d023a7e0114a8507d2c3301473044022077f9c2879aeab88e8a747d24c751684131a178d49e1bfe7532b4352ec2d68c7a022001b81b78451f58fa1622effb36824af56058de935dd263d6fca1bca4881c763e016952210209a148ea7c8ce1967663622f145fde8a9155d0262b3c2de43861f69a83e1f61d210229dce5c9b8c871e294a4ded637daf952bc7b7045a7ff33a7e2307953ae6030ae2103a11dcfad105add19f9277544ceac94dce5fdb50b74639204503379f7acd0a94453ae040047304402202f6b15f6adde53e32b30b393ba92dbd1be1ac13afa6eba309cdaaa41d0433014022065cbef1843d5ff0594d0bae3198e284df68329dc33f7ae20bf78ec8f7003cff80147304402201fc21418638d75af53166af3fbb9148cdf74b7576e068f6ebf0b9bfff65938fb022005268c57e0a8bb1988cd9741f91a491e5cc1985b9ef4d989f6fb0a9d6ccdd1600169522102623437b7e0d29b3be3eedb23f59dbb6066b0cabb14a9d00a5e1b2d1ab00a163421030a741373a5e4659e531031fd77f8890410395596975e8d541d6c43c587711d192103a51bf2d87e5f1ad4b03e4e164503fbb6b7a4746bf0c5f754419d23309401b76f53ae00000000", "vin": [{"txinwitness": ["", "3045022100c820a092eb85459cc797d8fb5cecf2e9ef930c29915a4456f1f8aa0a1982b0610220718a47dc4738a7461d4e33f3f6316cbd83829849fa5d023a7e0114a8507d2c3301", "3044022077f9c2879aeab88e8a747d24c751684131a178d49e1bfe7532b4352ec2d68c7a022001b81b78451f58fa1622effb36824af56058de935dd263d6fca1bca4881c763e01", "52210209a148ea7c8ce1967663622f145fde8a9155d0262b3c2de43861f69a83e1f61d210229dce5c9b8c871e294a4ded637daf952bc7b7045a7ff33a7e2307953ae6030ae2103a11dcfad105add19f9277544ceac94dce5fdb50b74639204503379f7acd0a94453ae"], "sequence": 4294967295, "scriptSig": {"hex": "2200204edba156375ce14015a4683276739110f51e328074cb12e1024d6cf13f971430", "asm": "00204edba156375ce14015a4683276739110f51e328074cb12e1024d6cf13f971430"}, "vout": 2, "txid": "7bd9645a736ecaff7affd2d47dd3f95e9059507647947eae3deb6334defd0282"}, {"txinwitness": ["", "304402202f6b15f6adde53e32b30b393ba92dbd1be1ac13afa6eba309cdaaa41d0433014022065cbef1843d5ff0594d0bae3198e284df68329dc33f7ae20bf78ec8f7003cff801", "304402201fc21418638d75af53166af3fbb9148cdf74b7576e068f6ebf0b9bfff65938fb022005268c57e0a8bb1988cd9741f91a491e5cc1985b9ef4d989f6fb0a9d6ccdd16001", "522102623437b7e0d29b3be3eedb23f59dbb6066b0cabb14a9d00a5e1b2d1ab00a163421030a741373a5e4659e531031fd77f8890410395596975e8d541d6c43c587711d192103a51bf2d87e5f1ad4b03e4e164503fbb6b7a4746bf0c5f754419d23309401b76f53ae"], "sequence": 4294967295, "scriptSig": {"hex": "220020ffbefe1efcc72097d37e455fc330f04382c49f0476e47890a85429a6463dfcb7", "asm": "0020ffbefe1efcc72097d37e455fc330f04382c49f0476e47890a85429a6463dfcb7"}, "vout": 0, "txid": "cb440ede5a24ba0e38fbbe8680c57c2e7a13e386f95b581eab46a3c0c87fd8bf"}], "txid": "08eabcea581079d9f0aa36509767098a05b5a1083e4d9f3aaa3909a17a21ba81", "blocktime": 1537873891, "version": 1, "confirmations": 11478, "time": 1537873891, "locktime": 0, "vsize": 353, "size": 733}