{"hash": "08ec93213918ab13d27675a8266a0c491f333e63082befe14fdb1fec86de3d77", "blockhash": "0000000000000000000e13cef7c366c0283d82e591d1acd082e914b08063cdf1", "vout": [{"scriptPubKey": {"reqSigs": 1, "hex": "76a91436abb229f18c3b67ab4e947fedc5fab602afc01c88ac", "addresses": ["15z5B1AJDJspBJ3HDkVC1iMgACxzkiLUFk"], "asm": "OP_DUP OP_HASH160 36abb229f18c3b67ab4e947fedc5fab602afc01c OP_EQUALVERIFY OP_CHECKSIG", "type": "pubkeyhash"}, "value": 0.00475281, "n": 0}, {"scriptPubKey": {"reqSigs": 1, "hex": "76a9144851d3af9b2b433ac9018e6928047799351a447988ac", "addresses": ["17bPgFB1hCeDvp95cMYuNLkS8Ns72omK3F"], "asm": "OP_DUP OP_HASH160 4851d3af9b2b433ac9018e6928047799351a4479 OP_EQUALVERIFY OP_CHECKSIG", "type": "pubkeyhash"}, "value": 0.27728064, "n": 1}], "hex": "0100000001e109ca21d2a3322c5e827a5ca7ee419cc7f3dedf8718484632c9c707424ca4da010000006b483045022100ed1c4d8c346c3ed39151774e85d5c0e6cc51986e50d5fe74fe2442337ccccfc5022076e5cf01227592adb071055eb514f587bd510c05ce3076f7e4abc9a41aef964d0121033eec4844e3cecd09e34d82ba915ecc9e826c37853d2cbb569891c74005cd80d8ffffffff0291400700000000001976a91436abb229f18c3b67ab4e947fedc5fab602afc01c88acc018a701000000001976a9144851d3af9b2b433ac9018e6928047799351a447988ac00000000", "vin": [{"sequence": 4294967295, "scriptSig": {"hex": "483045022100ed1c4d8c346c3ed39151774e85d5c0e6cc51986e50d5fe74fe2442337ccccfc5022076e5cf01227592adb071055eb514f587bd510c05ce3076f7e4abc9a41aef964d0121033eec4844e3cecd09e34d82ba915ecc9e826c37853d2cbb569891c74005cd80d8", "asm": "3045022100ed1c4d8c346c3ed39151774e85d5c0e6cc51986e50d5fe74fe2442337ccccfc5022076e5cf01227592adb071055eb514f587bd510c05ce3076f7e4abc9a41aef964d[ALL] 033eec4844e3cecd09e34d82ba915ecc9e826c37853d2cbb569891c74005cd80d8"}, "vout": 1, "txid": "daa44c4207c7c93246481887dfdef3c79c41eea75c7a825e2c32a3d221ca09e1"}], "txid": "08ec93213918ab13d27675a8266a0c491f333e63082befe14fdb1fec86de3d77", "blocktime": 1537871767, "version": 1, "confirmations": 11495, "time": 1537871767, "locktime": 0, "vsize": 226, "size": 226}