{"hash": "08f1ce3c0d703daeea5c8ec406ab40c2c91c3f506ef3963a017f2676c631205a", "blockhash": "0000000000000000001f76057863aec43deb6fa401d9628bb513d65a8098bfab", "vout": [{"scriptPubKey": {"reqSigs": 1, "hex": "a914273c738098068b12c673d59e7e15dba2b415636087", "addresses": ["35GUhFGaTs2eCywkMWh3L7caoeyhT1ZNXH"], "asm": "OP_HASH160 273c738098068b12c673d59e7e15dba2b4156360 OP_EQUAL", "type": "scripthash"}, "value": 0.0609818, "n": 0}, {"scriptPubKey": {"reqSigs": 1, "hex": "a914c42367a18be35f7be365114b9b0bb49013db586787", "addresses": ["3Ka6n7SCH3JwecXU83cgzGYLptNerMviND"], "asm": "OP_HASH160 c42367a18be35f7be365114b9b0bb49013db5867 OP_EQUAL", "type": "scripthash"}, "value": 0.00154018, "n": 1}, {"scriptPubKey": {"reqSigs": 1, "hex": "76a91457f0a2ce0af537c12d9058c64fdbd82cee63a0de88ac", "addresses": ["191z4NP2eurKLnUexqcT4gQojahZ1eAnPt"], "asm": "OP_DUP OP_HASH160 57f0a2ce0af537c12d9058c64fdbd82cee63a0de OP_EQUALVERIFY OP_CHECKSIG", "type": "pubkeyhash"}, "value": 0.00011385, "n": 2}], "hex": "0100000002808ba6ae620238b30d1f9b658814bf5c9590f8de4ae087eaa3cdf32387fa0be002000000d90047304402205ac5415a0f8d3fb809765d09778191453905cbf8cb859adf186323e6290d92b1022045b516c767e8af49893351aeece8ed5054af407dbe40a306bb8477e3d1ab0ebb0147304402202ad145a864182bae0d29d9c771f620d58253768912828ca3023bd5d58c7777cd022047e536ca697a0951840a670578f2ae6905acf552d2c59e7eacdf2566eeaf435f01475221021f75f1c696299b1f963f7cf63ad678905eadf28bb47823ca6af0dfaa9447b9ca2102907a54bed8ad74b3f35638c60114ca240a308cb986f3f2f306178869a8880b6152aeffffffff9feab6d6612199a1ad6dc615a0978712247467f7632e25eb0104d5c8f2a059f1020000006a47304402202be1ceeb1c4012eb9cb48d64bf15df6416974fe7dbe6527725d9a6ee32b9e86d0220143d6454680af98a6caf28e0cc5f85d782d38fb798b6d43230433d900a584811012103bb0db6df6fad679612aec595b3def6af4131d6289052d250a3f2aa3bf616f8eeffffffff03040d5d000000000017a914273c738098068b12c673d59e7e15dba2b415636087a25902000000000017a914c42367a18be35f7be365114b9b0bb49013db586787792c0000000000001976a91457f0a2ce0af537c12d9058c64fdbd82cee63a0de88ac00000000", "vin": [{"sequence": 4294967295, "scriptSig": {"hex": "0047304402205ac5415a0f8d3fb809765d09778191453905cbf8cb859adf186323e6290d92b1022045b516c767e8af49893351aeece8ed5054af407dbe40a306bb8477e3d1ab0ebb0147304402202ad145a864182bae0d29d9c771f620d58253768912828ca3023bd5d58c7777cd022047e536ca697a0951840a670578f2ae6905acf552d2c59e7eacdf2566eeaf435f01475221021f75f1c696299b1f963f7cf63ad678905eadf28bb47823ca6af0dfaa9447b9ca2102907a54bed8ad74b3f35638c60114ca240a308cb986f3f2f306178869a8880b6152ae", "asm": "0 304402205ac5415a0f8d3fb809765d09778191453905cbf8cb859adf186323e6290d92b1022045b516c767e8af49893351aeece8ed5054af407dbe40a306bb8477e3d1ab0ebb[ALL] 304402202ad145a864182bae0d29d9c771f620d58253768912828ca3023bd5d58c7777cd022047e536ca697a0951840a670578f2ae6905acf552d2c59e7eacdf2566eeaf435f[ALL] 5221021f75f1c696299b1f963f7cf63ad678905eadf28bb47823ca6af0dfaa9447b9ca2102907a54bed8ad74b3f35638c60114ca240a308cb986f3f2f306178869a8880b6152ae"}, "vout": 2, "txid": "e00bfa8723f3cda3ea87e04adef890955cbf1488659b1f0db3380262aea68b80"}, {"sequence": 4294967295, "scriptSig": {"hex": "47304402202be1ceeb1c4012eb9cb48d64bf15df6416974fe7dbe6527725d9a6ee32b9e86d0220143d6454680af98a6caf28e0cc5f85d782d38fb798b6d43230433d900a584811012103bb0db6df6fad679612aec595b3def6af4131d6289052d250a3f2aa3bf616f8ee", "asm": "304402202be1ceeb1c4012eb9cb48d64bf15df6416974fe7dbe6527725d9a6ee32b9e86d0220143d6454680af98a6caf28e0cc5f85d782d38fb798b6d43230433d900a584811[ALL] 03bb0db6df6fad679612aec595b3def6af4131d6289052d250a3f2aa3bf616f8ee"}, "vout": 2, "txid": "f159a0f2c8d50401eb252e63f7677424128797a015c66dada1992161d6b6ea9f"}], "txid": "08f1ce3c0d703daeea5c8ec406ab40c2c91c3f506ef3963a017f2676c631205a", "blocktime": 1537873891, "version": 1, "confirmations": 11478, "time": 1537873891, "locktime": 0, "vsize": 513, "size": 513}