{"hash": "08ff3f38b9d0887ad98d8c4ea5b8f88ff4ee080159df7d87dafa4eede80ae1bc", "blockhash": "0000000000000000000e13cef7c366c0283d82e591d1acd082e914b08063cdf1", "vout": [{"scriptPubKey": {"reqSigs": 1, "hex": "76a914ec9bfce70884fcf31776ded9a153186dd268772388ac", "addresses": ["1Na5LW5NFWHqYWzmNqn3cJCpCmXpSG3TD4"], "asm": "OP_DUP OP_HASH160 ec9bfce70884fcf31776ded9a153186dd2687723 OP_EQUALVERIFY OP_CHECKSIG", "type": "pubkeyhash"}, "value": 0.0187524, "n": 0}, {"scriptPubKey": {"reqSigs": 1, "hex": "76a914274b5fb1a61dfc11b5c65705eaa8ea0552e8279288ac", "addresses": ["14ameYcpnMQfsFPBPD21trerj8Lsa94taH"], "asm": "OP_DUP OP_HASH160 274b5fb1a61dfc11b5c65705eaa8ea0552e82792 OP_EQUALVERIFY OP_CHECKSIG", "type": "pubkeyhash"}, "value": 0.034405, "n": 1}], "hex": "01000000017f656634cb68a01847caa2104068513da04e73d03fd6026752601d5bae8ececd000000006b483045022100ef89d505b8a2c26f68d6ba159ed1076ae6a6eb7c5730e51f94a276da8dd1bc69022038ef67a337a8a9be2c0b77614eae570ecd723ec0f23a13e34611c1e837f3e9d4012102588e2c8aaf99f323ccb4fc1bcad3ded40d5a85fb27220524f39deb4d9606de88ffffffff02289d1c00000000001976a914ec9bfce70884fcf31776ded9a153186dd268772388ac747f3400000000001976a914274b5fb1a61dfc11b5c65705eaa8ea0552e8279288ac00000000", "vin": [{"sequence": 4294967295, "scriptSig": {"hex": "483045022100ef89d505b8a2c26f68d6ba159ed1076ae6a6eb7c5730e51f94a276da8dd1bc69022038ef67a337a8a9be2c0b77614eae570ecd723ec0f23a13e34611c1e837f3e9d4012102588e2c8aaf99f323ccb4fc1bcad3ded40d5a85fb27220524f39deb4d9606de88", "asm": "3045022100ef89d505b8a2c26f68d6ba159ed1076ae6a6eb7c5730e51f94a276da8dd1bc69022038ef67a337a8a9be2c0b77614eae570ecd723ec0f23a13e34611c1e837f3e9d4[ALL] 02588e2c8aaf99f323ccb4fc1bcad3ded40d5a85fb27220524f39deb4d9606de88"}, "vout": 0, "txid": "cdce8eae5b1d60526702d63fd0734ea03d51684010a2ca4718a068cb3466657f"}], "txid": "08ff3f38b9d0887ad98d8c4ea5b8f88ff4ee080159df7d87dafa4eede80ae1bc", "blocktime": 1537871767, "version": 1, "confirmations": 11495, "time": 1537871767, "locktime": 0, "vsize": 226, "size": 226}