{"hash": "0904bc2be1fd77048efe02b160bae731f658801577ebc7d472a78a365e81cb1c", "blockhash": "0000000000000000001f0ddff1eddb255c1121bcd4da4f1bc9a0da00cae72433", "vout": [{"scriptPubKey": {"reqSigs": 1, "hex": "76a9143afed55c88f980316a6726d784113dc18e8716bc88ac", "addresses": ["16NwUGKoLAnytzU9dLbn79KqDtYgAf6H1w"], "asm": "OP_DUP OP_HASH160 3afed55c88f980316a6726d784113dc18e8716bc OP_EQUALVERIFY OP_CHECKSIG", "type": "pubkeyhash"}, "value": 0.00092029, "n": 0}, {"scriptPubKey": {"reqSigs": 1, "hex": "a914dd98678626a4626d05ae201b6cd50e5fe0cc2ed287", "addresses": ["3MthqBT6HLQQdp32gAGmid5wCwisWXHoc8"], "asm": "OP_HASH160 dd98678626a4626d05ae201b6cd50e5fe0cc2ed2 OP_EQUAL", "type": "scripthash"}, "value": 0.032146, "n": 1}], "hex": "0100000003aa1c36942412e47baba24bf09b3594e27d1ed79e1eed9593afc3e5828528fd9a010000006b483045022100fef0fe3d7418a2fd8e8dc97bb6a0ce1472e47c067e6f6f5475a04542efac0566022060aaaed63527b92206d7f9200104cc3cac451a14e3555760b9490be2d996c5cc01210378b275d441c3254e2b9719c722595b31f90ff833e996716800476754f505d51cffffffff33c1cac681caacdef1dd861ca472b5557da226574606e7163c14b33783bc81ee020000006b483045022100cbbdd4a7f21c6ebb1fc58bc50f01e15e4fca85a0c7704522afcddbd776c213610220258255f0023f5abd30105093c8c21fb1ffd9eadf4d3dcc563aeaf055d8777edc01210380974a9a397c9592fb8f77ff8703a91c94b5f357f2080e12435998321a252c0fffffffff8300d4dec55acbd42a47ae27af6eadd66507ef9d5d36608c6b17ca836997abf6010000006a47304402203753622ebe4cd91753fc4204c654d6a9ed6c9bbedb33f08e5fe48e058c6c80320220373237bc987920d5fddce829f22e7f6d764ad3f539b6d7ab23b885f55994525b01210331e030a34b8edf67e79c55f99d66a95bf979d197f19e8df102afa3702f3b11eaffffffff027d670100000000001976a9143afed55c88f980316a6726d784113dc18e8716bc88ac080d31000000000017a914dd98678626a4626d05ae201b6cd50e5fe0cc2ed28700000000", "vin": [{"sequence": 4294967295, "scriptSig": {"hex": "483045022100fef0fe3d7418a2fd8e8dc97bb6a0ce1472e47c067e6f6f5475a04542efac0566022060aaaed63527b92206d7f9200104cc3cac451a14e3555760b9490be2d996c5cc01210378b275d441c3254e2b9719c722595b31f90ff833e996716800476754f505d51c", "asm": "3045022100fef0fe3d7418a2fd8e8dc97bb6a0ce1472e47c067e6f6f5475a04542efac0566022060aaaed63527b92206d7f9200104cc3cac451a14e3555760b9490be2d996c5cc[ALL] 0378b275d441c3254e2b9719c722595b31f90ff833e996716800476754f505d51c"}, "vout": 1, "txid": "9afd288582e5c3af9395ed1e9ed71e7de294359bf04ba2ab7be4122494361caa"}, {"sequence": 4294967295, "scriptSig": {"hex": "483045022100cbbdd4a7f21c6ebb1fc58bc50f01e15e4fca85a0c7704522afcddbd776c213610220258255f0023f5abd30105093c8c21fb1ffd9eadf4d3dcc563aeaf055d8777edc01210380974a9a397c9592fb8f77ff8703a91c94b5f357f2080e12435998321a252c0f", "asm": "3045022100cbbdd4a7f21c6ebb1fc58bc50f01e15e4fca85a0c7704522afcddbd776c213610220258255f0023f5abd30105093c8c21fb1ffd9eadf4d3dcc563aeaf055d8777edc[ALL] 0380974a9a397c9592fb8f77ff8703a91c94b5f357f2080e12435998321a252c0f"}, "vout": 2, "txid": "ee81bc8337b3143c16e706465726a27d55b572a41c86ddf1deacca81c6cac133"}, {"sequence": 4294967295, "scriptSig": {"hex": "47304402203753622ebe4cd91753fc4204c654d6a9ed6c9bbedb33f08e5fe48e058c6c80320220373237bc987920d5fddce829f22e7f6d764ad3f539b6d7ab23b885f55994525b01210331e030a34b8edf67e79c55f99d66a95bf979d197f19e8df102afa3702f3b11ea", "asm": "304402203753622ebe4cd91753fc4204c654d6a9ed6c9bbedb33f08e5fe48e058c6c80320220373237bc987920d5fddce829f22e7f6d764ad3f539b6d7ab23b885f55994525b[ALL] 0331e030a34b8edf67e79c55f99d66a95bf979d197f19e8df102afa3702f3b11ea"}, "vout": 1, "txid": "f6ab976983ca176b8c60365d9def0765d6ad6eaf27ae472ad4cb5ac5ded40083"}], "txid": "0904bc2be1fd77048efe02b160bae731f658801577ebc7d472a78a365e81cb1c", "blocktime": 1537872018, "version": 1, "confirmations": 11489, "time": 1537872018, "locktime": 0, "vsize": 519, "size": 519}