{"hash": "496ab2522977836f7a5de2df8ab9f636012cd4684cef9bd04b942f2d3adf010a", "blockhash": "0000000000000000000e13cef7c366c0283d82e591d1acd082e914b08063cdf1", "vout": [{"scriptPubKey": {"reqSigs": 1, "hex": "a914bdc4102f585bae3de64cfcfb9cdd5f4b5b9f2f7d87", "addresses": ["3JzQWWbzksLAkEW1Lxo9Z5e1if1Q1UaVQA"], "asm": "OP_HASH160 bdc4102f585bae3de64cfcfb9cdd5f4b5b9f2f7d OP_EQUAL", "type": "scripthash"}, "value": 0.1482, "n": 0}, {"scriptPubKey": {"reqSigs": 1, "hex": "001453c4380f4865f6023efa79b00888a3ec30cc34c4", "addresses": ["bc1q20zrsr6gvhmqy0h60xcq3z9rascvcdxyzzqgl4"], "asm": "0 53c4380f4865f6023efa79b00888a3ec30cc34c4", "type": "witness_v0_keyhash"}, "value": 0.00973868, "n": 1}], "hex": "010000000001013d6ea74d692987dc7498d025f2e6ca4fac53dd1ef2c397e3ee71340e5121701501000000171600146ad6e1ddfa2aa7859c44b9c8b991e8f75a2cf3aaffffffff02a022e2000000000017a914bdc4102f585bae3de64cfcfb9cdd5f4b5b9f2f7d872cdc0e000000000016001453c4380f4865f6023efa79b00888a3ec30cc34c402473044022073169685c10a8fb2f74037e026e05e79f928d5e5ca1ab4fd7af1f3a37f7e94b90220515aa242e6774a39b28c5015d2686bfdcf96369cb5e08c72d7aec59029546b7b0121028370e08022b3920d0a07f594835c91f7fd125fcf8fed686ac666752dc328d5ff00000000", "vin": [{"txinwitness": ["3044022073169685c10a8fb2f74037e026e05e79f928d5e5ca1ab4fd7af1f3a37f7e94b90220515aa242e6774a39b28c5015d2686bfdcf96369cb5e08c72d7aec59029546b7b01", "028370e08022b3920d0a07f594835c91f7fd125fcf8fed686ac666752dc328d5ff"], "sequence": 4294967295, "scriptSig": {"hex": "1600146ad6e1ddfa2aa7859c44b9c8b991e8f75a2cf3aa", "asm": "00146ad6e1ddfa2aa7859c44b9c8b991e8f75a2cf3aa"}, "vout": 1, "txid": "157021510e3471eee397c3f21edd53ac4fcae6f225d09874dc8729694da76e3d"}], "txid": "0904823b0eb7d80a6f9e0df5ce069c78b283389192da1e52a036f1051606b26c", "blocktime": 1537871767, "version": 1, "confirmations": 11495, "time": 1537871767, "locktime": 0, "vsize": 165, "size": 246}