{"hash": "3b5c64d78c259a149f41f96b67bfb558ceec21e0cb6d1c65e3af723f5b3e60a5", "blockhash": "0000000000000000000baef3f32e3676a92c3b2e5da21b426e4f302fc371ce76", "vout": [{"scriptPubKey": {"reqSigs": 1, "hex": "a9146fedfca34e7a0d1f917307414ed28351c0ba982787", "addresses": ["3Btr2TJcdoJvwUhX17J826t9fPeBTx6zNH"], "asm": "OP_HASH160 6fedfca34e7a0d1f917307414ed28351c0ba9827 OP_EQUAL", "type": "scripthash"}, "value": 15.51876923, "n": 0}, {"scriptPubKey": {"reqSigs": 1, "hex": "a91480d4bdef7891af0d9451a8c2f392a11fcbbb33dd87", "addresses": ["3DSDGfdY1f3s8os9xap3S8QgLmYYEzWRum"], "asm": "OP_HASH160 80d4bdef7891af0d9451a8c2f392a11fcbbb33dd OP_EQUAL", "type": "scripthash"}, "value": 0.00385146, "n": 1}, {"scriptPubKey": {"reqSigs": 1, "hex": "a9143ef271003c7e0a42e7af60e22a5d4557f2e0e76387", "addresses": ["37RrFZXrJe8n7WEPm7V4vhBdNPKkUFhpRb"], "asm": "OP_HASH160 3ef271003c7e0a42e7af60e22a5d4557f2e0e763 OP_EQUAL", "type": "scripthash"}, "value": 0.14, "n": 2}, {"scriptPubKey": {"reqSigs": 1, "hex": "a9140d89f68bac7ec5d4f7bd59b8afe9bb966dd2091d87", "addresses": ["32vbysyHZAd5zqzBHdksuDiRLMNJaQhjg4"], "asm": "OP_HASH160 0d89f68bac7ec5d4f7bd59b8afe9bb966dd2091d OP_EQUAL", "type": "scripthash"}, "value": 0.0032984, "n": 3}, {"scriptPubKey": {"reqSigs": 1, "hex": "a914dbe385a24087fad441f267f5551ed55e1a28f83c87", "addresses": ["3MjgU4UoUvT8GBP8a61DBtip4Q8Jw6y7BQ"], "asm": "OP_HASH160 dbe385a24087fad441f267f5551ed55e1a28f83c OP_EQUAL", "type": "scripthash"}, "value": 0.01071996, "n": 4}, {"scriptPubKey": {"reqSigs": 1, "hex": "a9147e598c17ac826122bc2faa4352148caf6a08d6dd87", "addresses": ["3DD6LZkP8VCuqqaYGz4YiS3MRpfxBi3iuY"], "asm": "OP_HASH160 7e598c17ac826122bc2faa4352148caf6a08d6dd OP_EQUAL", "type": "scripthash"}, "value": 0.0033, "n": 5}, {"scriptPubKey": {"reqSigs": 1, "hex": "a9148e80e016fb4e73d9a9ad1254cab965709ddb5d7487", "addresses": ["3EgWGCZ7srpGFU3euRASHwVjKeXe84owcX"], "asm": "OP_HASH160 8e80e016fb4e73d9a9ad1254cab965709ddb5d74 OP_EQUAL", "type": "scripthash"}, "value": 0.00406899, "n": 6}, {"scriptPubKey": {"reqSigs": 1, "hex": "76a9147fc6f97df49cc35b0dfe7de2facf835a05e42f0988ac", "addresses": ["1CedBMo5FzN9DCWLJm6FmxFAkdErNjofz2"], "asm": "OP_DUP OP_HASH160 7fc6f97df49cc35b0dfe7de2facf835a05e42f09 OP_EQUALVERIFY OP_CHECKSIG", "type": "pubkeyhash"}, "value": 0.06258, "n": 7}, {"scriptPubKey": {"reqSigs": 1, "hex": "a914b5433934468592ddd0014f6c09190af1362817ab87", "addresses": ["3JDSm2qezhZGR6sNkBM4Je1tBSmcc2Y82T"], "asm": "OP_HASH160 b5433934468592ddd0014f6c09190af1362817ab OP_EQUAL", "type": "scripthash"}, "value": 0.00216716, "n": 8}, {"scriptPubKey": {"reqSigs": 1, "hex": "76a914e1a09709f8b264f95f7d5b3fbcc575d5fdae6be388ac", "addresses": ["1Ma1R9irTmHss4p18TMoyz1YW7E6ycv2j8"], "asm": "OP_DUP OP_HASH160 e1a09709f8b264f95f7d5b3fbcc575d5fdae6be3 OP_EQUALVERIFY OP_CHECKSIG", "type": "pubkeyhash"}, "value": 0.00071676, "n": 9}, {"scriptPubKey": {"reqSigs": 1, "hex": "a9141ab29060f93554083d04ae2df1572435bfcab1c187", "addresses": ["348BQNevty2NSSPyVGYLhjpXuFoFgy8XYi"], "asm": "OP_HASH160 1ab29060f93554083d04ae2df1572435bfcab1c1 OP_EQUAL", "type": "scripthash"}, "value": 0.01195924, "n": 10}, {"scriptPubKey": {"reqSigs": 1, "hex": "a914fec0f203c77f30e582bb862eb8765a2aa40ee9e087", "addresses": ["3Qv2hM91K4rXsJ4QRCGoRJmdQXnHk9kWe7"], "asm": "OP_HASH160 fec0f203c77f30e582bb862eb8765a2aa40ee9e0 OP_EQUAL", "type": "scripthash"}, "value": 0.02777931, "n": 11}, {"scriptPubKey": {"reqSigs": 1, "hex": "76a914d11de60896569612b277ad845849dd4bc6544aea88ac", "addresses": ["1L4i3Uvq1C8Ndchd2L6XDhFWgkZ7oBdLRb"], "asm": "OP_DUP OP_HASH160 d11de60896569612b277ad845849dd4bc6544aea OP_EQUALVERIFY OP_CHECKSIG", "type": "pubkeyhash"}, "value": 0.00250593, "n": 12}, {"scriptPubKey": {"reqSigs": 1, "hex": "a914edb2b723a250f8dbf4163da29811a69abd78771387", "addresses": ["3PMrANSCZfsRNaoFQTNn6KTwTRksSwb5Xf"], "asm": "OP_HASH160 edb2b723a250f8dbf4163da29811a69abd787713 OP_EQUAL", "type": "scripthash"}, "value": 0.00507303, "n": 13}, {"scriptPubKey": {"reqSigs": 1, "hex": "a91440a8bfd6f9917617967f5cd39c197bfb0da4344c87", "addresses": ["37auKjTvawQrvteywXRcRiuu7zhQ9zN4Ly"], "asm": "OP_HASH160 40a8bfd6f9917617967f5cd39c197bfb0da4344c OP_EQUAL", "type": "scripthash"}, "value": 0.01270284, "n": 14}, {"scriptPubKey": {"reqSigs": 1, "hex": "a914656f882076bcaca41c4031d853b46a9a2486c55f87", "addresses": ["3AwMnHCg7gC1JV9WfpJu8neTnAJQbLQ4jM"], "asm": "OP_HASH160 656f882076bcaca41c4031d853b46a9a2486c55f OP_EQUAL", "type": "scripthash"}, "value": 0.0039245, "n": 15}, {"scriptPubKey": {"reqSigs": 1, "hex": "76a9141563971c8490121ad4fc0b253d1526d3a4707efc88ac", "addresses": ["12x6VgaM3ibDz1zR7CfTA5rzVfqU3MExbr"], "asm": "OP_DUP OP_HASH160 1563971c8490121ad4fc0b253d1526d3a4707efc OP_EQUALVERIFY OP_CHECKSIG", "type": "pubkeyhash"}, "value": 0.0001, "n": 16}, {"scriptPubKey": {"reqSigs": 1, "hex": "a914632bc9532a0e298582f0401d4f3ecd89288fb55287", "addresses": ["3AjPGsMzfFKfWtEbTRxepmWDiSNkUBRcdh"], "asm": "OP_HASH160 632bc9532a0e298582f0401d4f3ecd89288fb552 OP_EQUAL", "type": "scripthash"}, "value": 0.0033356, "n": 17}, {"scriptPubKey": {"reqSigs": 1, "hex": "76a914cb37b1a6422eecada452037a6e7ace2cf11f480a88ac", "addresses": ["1KXWtdE79bbWUh2DzisXnyAmfyvigDAfju"], "asm": "OP_DUP OP_HASH160 cb37b1a6422eecada452037a6e7ace2cf11f480a OP_EQUALVERIFY OP_CHECKSIG", "type": "pubkeyhash"}, "value": 0.0040976, "n": 18}, {"scriptPubKey": {"reqSigs": 1, "hex": "a914cf494487ebbd59e8d9d6cdd30a80d8ce7444aa1487", "addresses": ["3Lb3ZytS3jbyiDTFSzxY55cZp7JGJq7xjG"], "asm": "OP_HASH160 cf494487ebbd59e8d9d6cdd30a80d8ce7444aa14 OP_EQUAL", "type": "scripthash"}, "value": 0.01057561, "n": 19}, {"scriptPubKey": {"reqSigs": 1, "hex": "a9144f7abb8e37f382bae36a8eee97ed142d544daf8a87", "addresses": ["38wGLK2UyvAns8U14DoDRUftMn7C1nUKoj"], "asm": "OP_HASH160 4f7abb8e37f382bae36a8eee97ed142d544daf8a OP_EQUAL", "type": "scripthash"}, "value": 0.0032166, "n": 20}, {"scriptPubKey": {"reqSigs": 1, "hex": "a914efc09e91e31f935620916367f9a76a88f78851ae87", "addresses": ["3PYiApfqQvisSeLVmUXAoyfcX7vKiTJodL"], "asm": "OP_HASH160 efc09e91e31f935620916367f9a76a88f78851ae OP_EQUAL", "type": "scripthash"}, "value": 0.00408794, "n": 21}, {"scriptPubKey": {"reqSigs": 1, "hex": "a91466e9a5221ea3b564abf37fab11c442c81908cde787", "addresses": ["3B5Ak43RXJfcWygn4jHhpKoWAf7BZCsufv"], "asm": "OP_HASH160 66e9a5221ea3b564abf37fab11c442c81908cde7 OP_EQUAL", "type": "scripthash"}, "value": 0.00930675, "n": 22}, {"scriptPubKey": {"reqSigs": 1, "hex": "a91426523f370582218f1e9b0d2b8006828545439d7887", "addresses": ["35Be8T5U3jG15AGqLzaTcS6n8T7nvLvts5"], "asm": "OP_HASH160 26523f370582218f1e9b0d2b8006828545439d78 OP_EQUAL", "type": "scripthash"}, "value": 0.01711937, "n": 23}, {"scriptPubKey": {"reqSigs": 1, "hex": "a914bb19320e08d623c83baf0ef01853332b49067b2f87", "addresses": ["3JkJU2oeTtivLR6rHuaDdD7YDMh6MGKreb"], "asm": "OP_HASH160 bb19320e08d623c83baf0ef01853332b49067b2f OP_EQUAL", "type": "scripthash"}, "value": 0.00404196, "n": 24}, {"scriptPubKey": {"reqSigs": 1, "hex": "a914213936569f1cb4431edfaf61aed4d0ace6439c7f87", "addresses": ["34igm3wuBFiBKMYrBvidcJpcHx1fd2JK5c"], "asm": "OP_HASH160 213936569f1cb4431edfaf61aed4d0ace6439c7f OP_EQUAL", "type": "scripthash"}, "value": 0.00270863, "n": 25}, {"scriptPubKey": {"reqSigs": 1, "hex": "a914425829e67dcd75a2957747a990149f1820959bde87", "addresses": ["37jp8vYVZSh1RWBGbXFEGRPrswoSTtDkx4"], "asm": "OP_HASH160 425829e67dcd75a2957747a990149f1820959bde OP_EQUAL", "type": "scripthash"}, "value": 0.00019261, "n": 26}, {"scriptPubKey": {"reqSigs": 1, "hex": "76a9144f18b08549d3b1af2038b895cf07f09a21ec5b3a88ac", "addresses": ["18DDxcamfTKk4P2UY9YPYritgrjHozCWhS"], "asm": "OP_DUP OP_HASH160 4f18b08549d3b1af2038b895cf07f09a21ec5b3a OP_EQUALVERIFY OP_CHECKSIG", "type": "pubkeyhash"}, "value": 0.00501612, "n": 27}, {"scriptPubKey": {"reqSigs": 1, "hex": "a914e2edcb10f29c1a846a033854261553988f0f691587", "addresses": ["3NNuW4TqShRwYcvqtCXhK9Bf6NzuX4tSZj"], "asm": "OP_HASH160 e2edcb10f29c1a846a033854261553988f0f6915 OP_EQUAL", "type": "scripthash"}, "value": 0.00306769, "n": 28}, {"scriptPubKey": {"reqSigs": 1, "hex": "a91469f374faa4fc97be38d8316204718e9fdb8d0ce087", "addresses": ["3BMEXNVV7xCJyfthH4QUL3YfvAR3Hs4XLv"], "asm": "OP_HASH160 69f374faa4fc97be38d8316204718e9fdb8d0ce0 OP_EQUAL", "type": "scripthash"}, "value": 0.25, "n": 29}, {"scriptPubKey": {"reqSigs": 1, "hex": "a914fb79ed471b8bf92b33144e1d53f4e01656f23f5e87", "addresses": ["3QchbKXzeKz7vgWD7jukrEtarePeLRqmYE"], "asm": "OP_HASH160 fb79ed471b8bf92b33144e1d53f4e01656f23f5e OP_EQUAL", "type": "scripthash"}, "value": 0.0042985, "n": 30}, {"scriptPubKey": {"reqSigs": 1, "hex": "76a914e44ef58ddd17d7cc973ae6abf2447b6e3bc02a2288ac", "addresses": ["1MpBevGf5UPk2XhKQjsqtH8DgRWRKsme1E"], "asm": "OP_DUP OP_HASH160 e44ef58ddd17d7cc973ae6abf2447b6e3bc02a22 OP_EQUALVERIFY OP_CHECKSIG", "type": "pubkeyhash"}, "value": 0.51406491, "n": 31}, {"scriptPubKey": {"reqSigs": 1, "hex": "a9148870e90226f8f045420950632cd0c95e72b7e0d187", "addresses": ["3E8T5md5mzDkTND4q2YRZTijd9Fg1bxAQe"], "asm": "OP_HASH160 8870e90226f8f045420950632cd0c95e72b7e0d1 OP_EQUAL", "type": "scripthash"}, "value": 0.00143775, "n": 32}, {"scriptPubKey": {"reqSigs": 1, "hex": "a9145648a48e3c136c2928f4a0ca7459781a5dcd7a6a87", "addresses": ["39ZF4MKGXmo2SxtLYUe4UuvHQuUAeiJgbY"], "asm": "OP_HASH160 5648a48e3c136c2928f4a0ca7459781a5dcd7a6a OP_EQUAL", "type": "scripthash"}, "value": 0.003085, "n": 33}], "hex": "020000000001018a2ff89e3e7e3fd2b96246b930eb671221e062294d84e4a1c73e1ddc46049df81e0000001716001497ca91ffa7e9cd51e69c4ce60455945af3ac55cdfeffffff223bc37f5c0000000017a9146fedfca34e7a0d1f917307414ed28351c0ba9827877ae005000000000017a91480d4bdef7891af0d9451a8c2f392a11fcbbb33dd87809fd5000000000017a9143ef271003c7e0a42e7af60e22a5d4557f2e0e76387700805000000000017a9140d89f68bac7ec5d4f7bd59b8afe9bb966dd2091d877c5b10000000000017a914dbe385a24087fad441f267f5551ed55e1a28f83c87100905000000000017a9147e598c17ac826122bc2faa4352148caf6a08d6dd87733506000000000017a9148e80e016fb4e73d9a9ad1254cab965709ddb5d7487507d5f00000000001976a9147fc6f97df49cc35b0dfe7de2facf835a05e42f0988ac8c4e03000000000017a914b5433934468592ddd0014f6c09190af1362817ab87fc170100000000001976a914e1a09709f8b264f95f7d5b3fbcc575d5fdae6be388ac943f12000000000017a9141ab29060f93554083d04ae2df1572435bfcab1c1874b632a000000000017a914fec0f203c77f30e582bb862eb8765a2aa40ee9e087e1d20300000000001976a914d11de60896569612b277ad845849dd4bc6544aea88aca7bd07000000000017a914edb2b723a250f8dbf4163da29811a69abd787713870c6213000000000017a91440a8bfd6f9917617967f5cd39c197bfb0da4344c8702fd05000000000017a914656f882076bcaca41c4031d853b46a9a2486c55f8710270000000000001976a9141563971c8490121ad4fc0b253d1526d3a4707efc88acf81605000000000017a914632bc9532a0e298582f0401d4f3ecd89288fb55287a0400600000000001976a914cb37b1a6422eecada452037a6e7ace2cf11f480a88ac192310000000000017a914cf494487ebbd59e8d9d6cdd30a80d8ce7444aa14877ce804000000000017a9144f7abb8e37f382bae36a8eee97ed142d544daf8a87da3c06000000000017a914efc09e91e31f935620916367f9a76a88f78851ae8773330e000000000017a91466e9a5221ea3b564abf37fab11c442c81908cde787411f1a000000000017a91426523f370582218f1e9b0d2b8006828545439d7887e42a06000000000017a914bb19320e08d623c83baf0ef01853332b49067b2f870f2204000000000017a914213936569f1cb4431edfaf61aed4d0ace6439c7f873d4b00000000000017a914425829e67dcd75a2957747a990149f1820959bde876ca70700000000001976a9144f18b08549d3b1af2038b895cf07f09a21ec5b3a88ac51ae04000000000017a914e2edcb10f29c1a846a033854261553988f0f69158740787d010000000017a91469f374faa4fc97be38d8316204718e9fdb8d0ce0871a8f06000000000017a914fb79ed471b8bf92b33144e1d53f4e01656f23f5e879b661003000000001976a914e44ef58ddd17d7cc973ae6abf2447b6e3bc02a2288ac9f3102000000000017a9148870e90226f8f045420950632cd0c95e72b7e0d18714b504000000000017a9145648a48e3c136c2928f4a0ca7459781a5dcd7a6a870246304302201bf83264ce218d5d5ed36545328060f764afb510f287a0fe20e486f168ec609f021f4453f9ff79a575220d1b9b417fd2125810e9005a30d1bd5dae1399f7da55dd012103c845ec0c0ced14bfec3122f7ef4302306f659055c795bdaa069a9062d264bf0317490800", "vin": [{"txinwitness": ["304302201bf83264ce218d5d5ed36545328060f764afb510f287a0fe20e486f168ec609f021f4453f9ff79a575220d1b9b417fd2125810e9005a30d1bd5dae1399f7da55dd01", "03c845ec0c0ced14bfec3122f7ef4302306f659055c795bdaa069a9062d264bf03"], "sequence": 4294967294, "scriptSig": {"hex": "16001497ca91ffa7e9cd51e69c4ce60455945af3ac55cd", "asm": "001497ca91ffa7e9cd51e69c4ce60455945af3ac55cd"}, "vout": 30, "txid": "f89d0446dc1d3ec7a1e4844d2962e0211267eb30b94662b9d23f7e3e9ef82f8a"}], "txid": "090ab0113db36caeb1b30333aabdbb8c971aa8849dc0a8bf78f1a878dc59800b", "blocktime": 1537876114, "version": 2, "confirmations": 11459, "time": 1537876114, "locktime": 542999, "vsize": 1203, "size": 1284}