{"hash": "0fda6bd1106a0c29feab0e4dd7eec3b789e0e48d4ffb0cdc6019211badd46b21", "blockhash": "00000000000000000017f5eb5941039fbcee6240d03bc1f2f8e35350df66a1d8", "vout": [{"scriptPubKey": {"reqSigs": 1, "hex": "76a91429681426fb59b8c0d9ca3c2478ecc959b37906c188ac", "addresses": ["14mwPP7ciYkpBvsxHDsitJzw25smQgH6cv"], "asm": "OP_DUP OP_HASH160 29681426fb59b8c0d9ca3c2478ecc959b37906c1 OP_EQUALVERIFY OP_CHECKSIG", "type": "pubkeyhash"}, "value": 0.01352042, "n": 0}, {"scriptPubKey": {"reqSigs": 1, "hex": "00140cef74db264ef05d4d2951a1e4d233d121d48ea9", "addresses": ["bc1qpnhhfkexfmc96nff2xs7f53n6ysafr4fy7zun3"], "asm": "0 0cef74db264ef05d4d2951a1e4d233d121d48ea9", "type": "witness_v0_keyhash"}, "value": 0.74578563, "n": 1}], "hex": "010000000001016d5f163e9f9135075979ab5d81eb3cb0537045814cf6771fdd4ed287ea98df150000000000ffffffff026aa11400000000001976a91429681426fb59b8c0d9ca3c2478ecc959b37906c188ac83fa7104000000001600140cef74db264ef05d4d2951a1e4d233d121d48ea902483045022100d0d0b84cfd4c2b6075b44f87d6d60504c0e50d2ac0a77cb0a2d6c207de5312df02200a369f4ea9114f7e973a6dab111371a8da77ffb1b101bcbaf2a9eefcab1e40bb012103676e2b4474abdd17237cd7a89b9bbb9ad9d10820ce3620f590f022d8a6a5936e00000000", "vin": [{"txinwitness": ["3045022100d0d0b84cfd4c2b6075b44f87d6d60504c0e50d2ac0a77cb0a2d6c207de5312df02200a369f4ea9114f7e973a6dab111371a8da77ffb1b101bcbaf2a9eefcab1e40bb01", "03676e2b4474abdd17237cd7a89b9bbb9ad9d10820ce3620f590f022d8a6a5936e"], "sequence": 4294967295, "scriptSig": {"hex": "", "asm": ""}, "vout": 0, "txid": "15df98ea87d24edd1f77f64c81457053b03ceb815dab79590735919f3e165f6d"}], "txid": "090a0d285093155cbf5245f436e9982b982153d122e695549738bc8e896c919b", "blocktime": 1537874412, "version": 1, "confirmations": 11467, "time": 1537874412, "locktime": 0, "vsize": 144, "size": 226}