{"hash": "090ac806419d126ffacc807584a7edbceaf5e7f60238ab38eb6985f0a736470e", "blockhash": "00000000000000000018f53835495a110e01622372bf6ae95dc86f2b0ab887b0", "vout": [{"scriptPubKey": {"type": "nulldata", "hex": "6a146f6d6e69000000000000001f000000026048a566", "asm": "OP_RETURN 6f6d6e69000000000000001f000000026048a566"}, "value": 0.0, "n": 0}, {"scriptPubKey": {"reqSigs": 1, "hex": "76a914a25dec4d0011064ef106a983c39c7a540699f22088ac", "addresses": ["1FoWyxwPXuj4C6abqwhjDWdz6D4PZgYRjA"], "asm": "OP_DUP OP_HASH160 a25dec4d0011064ef106a983c39c7a540699f220 OP_EQUALVERIFY OP_CHECKSIG", "type": "pubkeyhash"}, "value": 5.46e-06, "n": 1}, {"scriptPubKey": {"reqSigs": 1, "hex": "76a9149c886553754dc93807dd87a25850f6738dd6126e88ac", "addresses": ["1FGfosb5baY7dYMybhNC9VAoGV6ehH96nL"], "asm": "OP_DUP OP_HASH160 9c886553754dc93807dd87a25850f6738dd6126e OP_EQUALVERIFY OP_CHECKSIG", "type": "pubkeyhash"}, "value": 0.00499064, "n": 2}], "hex": "01000000010d01a2029185c1752ddb6f4edd511a7d23d380cfcef6d7a0ca449357da1f4f33070000006a4730440220702f8b45f612728f70d79c902cb49a2f8647ddaa7aaf107eddffdafe1113cf8402205c75eab586da9dd0401fdafc7ba9bba989aa5a1b258296822542056316a7e140012103f904c2826b459392e6ceaf40369d8d52e7fd8b1a0e122b34208eba77fc590066feffffff030000000000000000166a146f6d6e69000000000000001f000000026048a56622020000000000001976a914a25dec4d0011064ef106a983c39c7a540699f22088ac789d0700000000001976a9149c886553754dc93807dd87a25850f6738dd6126e88ac0e490800", "vin": [{"sequence": 4294967294, "scriptSig": {"hex": "4730440220702f8b45f612728f70d79c902cb49a2f8647ddaa7aaf107eddffdafe1113cf8402205c75eab586da9dd0401fdafc7ba9bba989aa5a1b258296822542056316a7e140012103f904c2826b459392e6ceaf40369d8d52e7fd8b1a0e122b34208eba77fc590066", "asm": "30440220702f8b45f612728f70d79c902cb49a2f8647ddaa7aaf107eddffdafe1113cf8402205c75eab586da9dd0401fdafc7ba9bba989aa5a1b258296822542056316a7e140[ALL] 03f904c2826b459392e6ceaf40369d8d52e7fd8b1a0e122b34208eba77fc590066"}, "vout": 7, "txid": "334f1fda579344caa0d7f6cecf80d3237d1a51dd4e6fdb2d75c1859102a2010d"}], "txid": "090ac806419d126ffacc807584a7edbceaf5e7f60238ab38eb6985f0a736470e", "blocktime": 1537870928, "version": 1, "confirmations": 11514, "time": 1537870928, "locktime": 542990, "vsize": 256, "size": 256}