{"hash": "adad6c47f58645cb88e57253131588b5b12a5404a7ff051f8107a28d03d0fe58", "blockhash": "0000000000000000000dcc0f55137456b1a82d3642486a52398922ac4d620174", "vout": [{"scriptPubKey": {"reqSigs": 1, "hex": "0014567e27b5a568151df910b79e8d860d1e9cc73a1b", "addresses": ["bc1q2elz0dd9dq23m7gsk70gmpsdr6wvwwsmc6yw7c"], "asm": "0 567e27b5a568151df910b79e8d860d1e9cc73a1b", "type": "witness_v0_keyhash"}, "value": 1.047e-05, "n": 0}, {"scriptPubKey": {"reqSigs": 1, "hex": "76a9143adb98c1049abc9ee4109d26b1818fc8f2052e8088ac", "addresses": ["16NDFyNvwhMX7MojBZhVjNzxPv5Fp6G6ZT"], "asm": "OP_DUP OP_HASH160 3adb98c1049abc9ee4109d26b1818fc8f2052e80 OP_EQUALVERIFY OP_CHECKSIG", "type": "pubkeyhash"}, "value": 0.00056316, "n": 1}], "hex": "01000000000101e31607c5e89edd6683ac840bcaebf5436b7671d10a31fc987a847f5c93501b310000000000ffffffff021704000000000000160014567e27b5a568151df910b79e8d860d1e9cc73a1bfcdb0000000000001976a9143adb98c1049abc9ee4109d26b1818fc8f2052e8088ac0247304402201d2c52c4850ca894236a7d52572fb993fb183b700733d7134a01e86fa96321df022043a6e7539bb73946cb4106710ec8dece049e2d9d0dc1c1666b7b7ac81235a50b012103cb31b4999fd425b82cbe354a1cfcccdaa877521c699f795c9bb006dad1bb701700000000", "vin": [{"txinwitness": ["304402201d2c52c4850ca894236a7d52572fb993fb183b700733d7134a01e86fa96321df022043a6e7539bb73946cb4106710ec8dece049e2d9d0dc1c1666b7b7ac81235a50b01", "03cb31b4999fd425b82cbe354a1cfcccdaa877521c699f795c9bb006dad1bb7017"], "sequence": 4294967295, "scriptSig": {"hex": "", "asm": ""}, "vout": 0, "txid": "311b50935c7f847a98fc310ad171766b43f5ebca0b84ac8366dd9ee8c50716e3"}], "txid": "091b45e6ce445f2e100e1c12a35760f124ff230fc94d82dd6faff977e82e3802", "blocktime": 1537870268, "version": 1, "confirmations": 11518, "time": 1537870268, "locktime": 0, "vsize": 144, "size": 225}