{"hash": "1be0a5633d97d01497f703452555057f5b87c5278e6477d7781f80517da7085d", "blockhash": "0000000000000000000e13cef7c366c0283d82e591d1acd082e914b08063cdf1", "vout": [{"scriptPubKey": {"reqSigs": 1, "hex": "a9149ead402d570bf8070fd4216a46acf71608480dea87", "addresses": ["3GA2EXEUTjZAXi1CPBw1PahcERM4BACnJj"], "asm": "OP_HASH160 9ead402d570bf8070fd4216a46acf71608480dea OP_EQUAL", "type": "scripthash"}, "value": 0.00225, "n": 0}, {"scriptPubKey": {"reqSigs": 1, "hex": "a9140d366cbf5b7a5f07f52faa06b416d85c946942e187", "addresses": ["32tsuYC5NoYGDsJmm4KgwcGzxw2oJVyGo8"], "asm": "OP_HASH160 0d366cbf5b7a5f07f52faa06b416d85c946942e1 OP_EQUAL", "type": "scripthash"}, "value": 0.16808526, "n": 1}, {"scriptPubKey": {"reqSigs": 1, "hex": "a91445937c65391eeecc078ae21662d3de1c0e19c1b187", "addresses": ["382uEHGrsdagUzGGqzjDg1fEmpnLPnWP48"], "asm": "OP_HASH160 45937c65391eeecc078ae21662d3de1c0e19c1b1 OP_EQUAL", "type": "scripthash"}, "value": 0.00073512, "n": 2}, {"scriptPubKey": {"reqSigs": 1, "hex": "76a914330a8433cb45d58344ae196763809380e07c517a88ac", "addresses": ["15et4UecNewxmVWk3LQWFaHDsWt7SBSWyR"], "asm": "OP_DUP OP_HASH160 330a8433cb45d58344ae196763809380e07c517a OP_EQUALVERIFY OP_CHECKSIG", "type": "pubkeyhash"}, "value": 0.0156196, "n": 3}], "hex": "01000000000101e23ecf4fd421e752e1484426f900d0009f5462ef63e0eecc9bb407236cc38e00020000002322002099c6d43fff3c870a2f3d9f827a82aadd4701603cc97e30ef92125598f157aea4ffffffff04e86e03000000000017a9149ead402d570bf8070fd4216a46acf71608480dea874e7a00010000000017a9140d366cbf5b7a5f07f52faa06b416d85c946942e187281f01000000000017a91445937c65391eeecc078ae21662d3de1c0e19c1b18768d51700000000001976a914330a8433cb45d58344ae196763809380e07c517a88ac040047304402205b271677769ab288b959bf0ca602648579ce977e966614b4c03525f4e865ee2202202f620b3730448ccc12645052bc4d995703500545404899b3ddc36acbb036c7180148304502210095a5a6a5d19d90d928e18d1736323d871c146563a79baaa0042c23e52ecf0f7a02200e5eb98dd32777e9ca152c880b2f1c64f8239265cb7fffdf84c4c89fe0ed56240169522103b1a3c774b228cedc2e682ac5631be19308c982bdd3b2b4a9029bfd23454ccb06210220d1ead2c46d4e5977b415a62cd73be0962fca04e212875035f699ed318a31cc21038e61e3887729fe3c2df81163a6856c0cd07710c9042307c7680fb27eb8aaa02853ae00000000", "vin": [{"txinwitness": ["", "304402205b271677769ab288b959bf0ca602648579ce977e966614b4c03525f4e865ee2202202f620b3730448ccc12645052bc4d995703500545404899b3ddc36acbb036c71801", "304502210095a5a6a5d19d90d928e18d1736323d871c146563a79baaa0042c23e52ecf0f7a02200e5eb98dd32777e9ca152c880b2f1c64f8239265cb7fffdf84c4c89fe0ed562401", "522103b1a3c774b228cedc2e682ac5631be19308c982bdd3b2b4a9029bfd23454ccb06210220d1ead2c46d4e5977b415a62cd73be0962fca04e212875035f699ed318a31cc21038e61e3887729fe3c2df81163a6856c0cd07710c9042307c7680fb27eb8aaa02853ae"], "sequence": 4294967295, "scriptSig": {"hex": "22002099c6d43fff3c870a2f3d9f827a82aadd4701603cc97e30ef92125598f157aea4", "asm": "002099c6d43fff3c870a2f3d9f827a82aadd4701603cc97e30ef92125598f157aea4"}, "vout": 2, "txid": "008ec36c2307b49bcceee063ef62549f00d000f9264448e152e721d44fcf3ee2"}], "txid": "091f7fb20589af7fd7e366c32b36fd6f98c3df75ef179f6cc593195c47aeadcc", "blocktime": 1537871767, "version": 1, "confirmations": 11494, "time": 1537871767, "locktime": 0, "vsize": 280, "size": 471}