{"hash": "0924b4dbac91b195eae54237cf0218b6a74ad2c1e4db5d604462f57bdd65e70f", "blockhash": "0000000000000000001e0dab787dd257d1dbfcb92a98c2207d5e1078be1f4165", "vout": [{"scriptPubKey": {"reqSigs": 1, "hex": "a914eabd0a28d312295d323fe068f46e9f2146413c0f87", "addresses": ["3P6CW949SEcMFqKPLUcCnfFFGQhCsbuueL"], "asm": "OP_HASH160 eabd0a28d312295d323fe068f46e9f2146413c0f OP_EQUAL", "type": "scripthash"}, "value": 0.00684839, "n": 0}, {"scriptPubKey": {"reqSigs": 1, "hex": "76a9147810abfefdfd3ac5fd8bf53c89e71892a4676bef88ac", "addresses": ["1Bwr4QFAzNPuQhjY6TBRHVHZtS5E6svwJo"], "asm": "OP_DUP OP_HASH160 7810abfefdfd3ac5fd8bf53c89e71892a4676bef OP_EQUALVERIFY OP_CHECKSIG", "type": "pubkeyhash"}, "value": 0.00185107, "n": 1}], "hex": "0100000001435bc5cb62f8dca329d5d8d4e73433dbeafad85a44bbce3dd0be1c11c05f06ed02000000da00483045022100a19e385984a46f6e5fb4d27dff169db3f9884da98404a7fda86d96e7d452a1f1022046ce806cf17d8c88677abac3f5e033b717036aa2bd7ea2814cabdcc3525de07c01473044022017a860ce9fbde7a01f8cbbbef1fbd66090bcc122e0d9ca159ed722890bbd537b02204f2140bef3d3abd1afd9af439225629383607b60b363d5602b2cf9331161a9470147522102907a54bed8ad74b3f35638c60114ca240a308cb986f3f2f306178869a8880b61210320ec78628a4a59b5ad0047bcb15c7d9f69c743fa7c9cc912d3a77e2ae8a4efec52aeffffffff0227730a000000000017a914eabd0a28d312295d323fe068f46e9f2146413c0f8713d30200000000001976a9147810abfefdfd3ac5fd8bf53c89e71892a4676bef88ac00000000", "vin": [{"sequence": 4294967295, "scriptSig": {"hex": "00483045022100a19e385984a46f6e5fb4d27dff169db3f9884da98404a7fda86d96e7d452a1f1022046ce806cf17d8c88677abac3f5e033b717036aa2bd7ea2814cabdcc3525de07c01473044022017a860ce9fbde7a01f8cbbbef1fbd66090bcc122e0d9ca159ed722890bbd537b02204f2140bef3d3abd1afd9af439225629383607b60b363d5602b2cf9331161a9470147522102907a54bed8ad74b3f35638c60114ca240a308cb986f3f2f306178869a8880b61210320ec78628a4a59b5ad0047bcb15c7d9f69c743fa7c9cc912d3a77e2ae8a4efec52ae", "asm": "0 3045022100a19e385984a46f6e5fb4d27dff169db3f9884da98404a7fda86d96e7d452a1f1022046ce806cf17d8c88677abac3f5e033b717036aa2bd7ea2814cabdcc3525de07c[ALL] 3044022017a860ce9fbde7a01f8cbbbef1fbd66090bcc122e0d9ca159ed722890bbd537b02204f2140bef3d3abd1afd9af439225629383607b60b363d5602b2cf9331161a947[ALL] 522102907a54bed8ad74b3f35638c60114ca240a308cb986f3f2f306178869a8880b61210320ec78628a4a59b5ad0047bcb15c7d9f69c743fa7c9cc912d3a77e2ae8a4efec52ae"}, "vout": 2, "txid": "ed065fc0111cbed03dcebb445ad8faeadb3334e7d4d8d529a3dcf862cbc55b43"}], "txid": "0924b4dbac91b195eae54237cf0218b6a74ad2c1e4db5d604462f57bdd65e70f", "blocktime": 1537872475, "version": 1, "confirmations": 11486, "time": 1537872475, "locktime": 0, "vsize": 335, "size": 335}