{"hash": "4e9e4f4dcb98cb4b25f9b80afdcf8a7baf917faec3b55784e5b6918cdec055b0", "blockhash": "00000000000000000024a2167bbff67b0be802c0b01cdd79e6331c2be6459f87", "vout": [{"scriptPubKey": {"reqSigs": 1, "hex": "a9141889e27779fd9256d61fd34f6cd605096ae68cd387", "addresses": ["33vmKYHDHa8dfGBuaJtPxDcDgv6g7t6o4d"], "asm": "OP_HASH160 1889e27779fd9256d61fd34f6cd605096ae68cd3 OP_EQUAL", "type": "scripthash"}, "value": 1.0, "n": 0}, {"scriptPubKey": {"reqSigs": 1, "hex": "001480a4dbfb778c0303041e4a1ed9f2cf2610c617c1", "addresses": ["bc1qszjdh7mh3spsxpq7fg0dnuk0ycgvv97pd54pkc"], "asm": "0 80a4dbfb778c0303041e4a1ed9f2cf2610c617c1", "type": "witness_v0_keyhash"}, "value": 0.21662719, "n": 1}], "hex": "010000000001019b36dae6823398057ab7e20597e405c26fdec80c1b3ead0ce81eecd0d8e769220100000000ffffffff0200e1f5050000000017a9141889e27779fd9256d61fd34f6cd605096ae68cd387ff8b4a010000000016001480a4dbfb778c0303041e4a1ed9f2cf2610c617c102473044022021201a22df748fa3d75334a81b8f19efc0b195572f1b48cf29aa1df8257e258f0220207f31e7115416f4e5594a9c0c82269b38d902e096ed45f986d8c14d6588530e012103d6e32baa288b8cb6e62fc57b17aa315f1363e848ba700b7d4bac72b925935d5200000000", "vin": [{"txinwitness": ["3044022021201a22df748fa3d75334a81b8f19efc0b195572f1b48cf29aa1df8257e258f0220207f31e7115416f4e5594a9c0c82269b38d902e096ed45f986d8c14d6588530e01", "03d6e32baa288b8cb6e62fc57b17aa315f1363e848ba700b7d4bac72b925935d52"], "sequence": 4294967295, "scriptSig": {"hex": "", "asm": ""}, "vout": 1, "txid": "2269e7d8d0ec1ee80cad3e1b0cc8de6fc205e49705e2b77a05983382e6da369b"}], "txid": "09253b29a4277e2f940af0ad0dde9715c3049e90d2ce1d08ef46c631a36f4440", "blocktime": 1537870564, "version": 1, "confirmations": 11515, "time": 1537870564, "locktime": 0, "vsize": 142, "size": 223}