{"hash": "16088bb942c3ad39e7d0355dc92daee28b6933014249671c592c1e5e8b7b5009", "blockhash": "0000000000000000000baef3f32e3676a92c3b2e5da21b426e4f302fc371ce76", "vout": [{"scriptPubKey": {"reqSigs": 1, "hex": "a914cd54d8144b50f56155aef7e5bc474556feb74d0087", "addresses": ["3LQi5wLME2LTWcTn3gfaXTQ5PMEnELgdfL"], "asm": "OP_HASH160 cd54d8144b50f56155aef7e5bc474556feb74d00 OP_EQUAL", "type": "scripthash"}, "value": 0.200583, "n": 0}, {"scriptPubKey": {"reqSigs": 1, "hex": "a914e4c6ec1dbc7c3a68928bc67ad18b739fdbf9a01e87", "addresses": ["3NYgHeU59WkD4bdMHTDZN86iWAK7QkX6oo"], "asm": "OP_HASH160 e4c6ec1dbc7c3a68928bc67ad18b739fdbf9a01e OP_EQUAL", "type": "scripthash"}, "value": 0.017092, "n": 1}], "hex": "01000000000101f2fe099cb8574bdb374dc439649dcd47a87bfb213b9ce5dcf0bcf15b8b78afc3010000002322002009c8f2e2414b4df9a5fb7817ed331229e6b2c7f004818c81f5968cdcb889d3d7ffffffff02bc1032010000000017a914cd54d8144b50f56155aef7e5bc474556feb74d008790141a000000000017a914e4c6ec1dbc7c3a68928bc67ad18b739fdbf9a01e870400483045022100e262442873302a3180a41b654b22c845a1bdd9fb75527efe57f7bf11e0fbbac002203f60747c72fb5cfd7e6362c20c9ada9927918f3fbe47fac1c1d308fc1f9cb378014730440220118811cb024c7936afb522b483e6060c7ddd9461e922eac4e9cfd5023907191202200d9606298959bc9c5ab9f039f50236359a212e1a6ce25142f400c5b59308dbe10169522103785344d2abcad3ff1d1d75e7441a21312a16400b82d98d2d86e04e6d7c0630c32102f0f52060e69987e83d6b48914c2daca65ff04ad5e40ea07660376f2ac433420a210229eee71d629ef771737d89b7b36b39021e23e4149959a8b717b281b8c131495a53ae00000000", "vin": [{"txinwitness": ["", "3045022100e262442873302a3180a41b654b22c845a1bdd9fb75527efe57f7bf11e0fbbac002203f60747c72fb5cfd7e6362c20c9ada9927918f3fbe47fac1c1d308fc1f9cb37801", "30440220118811cb024c7936afb522b483e6060c7ddd9461e922eac4e9cfd5023907191202200d9606298959bc9c5ab9f039f50236359a212e1a6ce25142f400c5b59308dbe101", "522103785344d2abcad3ff1d1d75e7441a21312a16400b82d98d2d86e04e6d7c0630c32102f0f52060e69987e83d6b48914c2daca65ff04ad5e40ea07660376f2ac433420a210229eee71d629ef771737d89b7b36b39021e23e4149959a8b717b281b8c131495a53ae"], "sequence": 4294967295, "scriptSig": {"hex": "22002009c8f2e2414b4df9a5fb7817ed331229e6b2c7f004818c81f5968cdcb889d3d7", "asm": "002009c8f2e2414b4df9a5fb7817ed331229e6b2c7f004818c81f5968cdcb889d3d7"}, "vout": 1, "txid": "c3af788b5bf1bcf0dce59c3b21fb7ba847cd9d6439c44d37db4b57b89c09fef2"}], "txid": "09274506f4aaf1ae1c0698f6f2543733850c630c69e70cde0317981df4bc5c7b", "blocktime": 1537876114, "version": 1, "confirmations": 11463, "time": 1537876114, "locktime": 0, "vsize": 214, "size": 405}