{"hash": "f54775ef405fa94db6e4e8ef5191306a4553ddac4d6b79522ea6fd65ee6dd0c9", "blockhash": "0000000000000000000dcc0f55137456b1a82d3642486a52398922ac4d620174", "vout": [{"scriptPubKey": {"reqSigs": 1, "hex": "a91469f37646100992f917912ece268999a64b06892687", "addresses": ["3BMEXisVV992yKqU9RXzmjjtjoCqBeeYgN"], "asm": "OP_HASH160 69f37646100992f917912ece268999a64b068926 OP_EQUAL", "type": "scripthash"}, "value": 0.006, "n": 0}, {"scriptPubKey": {"reqSigs": 1, "hex": "a914d5b6f0a29d41816521b031bff5eb903ed7a0abd887", "addresses": ["3MB31J9F86vr7rrhCMx19LvC3GoT2uCTgM"], "asm": "OP_HASH160 d5b6f0a29d41816521b031bff5eb903ed7a0abd8 OP_EQUAL", "type": "scripthash"}, "value": 0.02794283, "n": 1}], "hex": "01000000000101bfbd66bc9b0ce2ca4d744755b18d454c75b32459337a2ad3b8bc9cea3cb31b020000000023220020c16e0b41bed33075447fbd86c4d994e1d09a949fa57280a091fa88b6d25a369cffffffff02c02709000000000017a91469f37646100992f917912ece268999a64b068926872ba32a000000000017a914d5b6f0a29d41816521b031bff5eb903ed7a0abd8870400483045022100c70649059f197ac828de1371f355f65c9bd51ba03e3bec454b51a88919ac9ba1022020cdcc4165cc2d06cfe17b71efa875f18065390f00285c656546dd6983ca200401483045022100bac6486c809da2733e927bd3cc7c45db185be394de2f05040156651c0f40e1e30220476cd45428f2067efdb140c81fd392c22ff32a4d7a5b6fdfefda90c1708fc1300169522103d489517b654df06a56d5a20ac728dc680a9d53036e2d54386904b4427ba9cc6721021f6d611607dabeaeb6043ffd911b1193c8a470bfe8ba203bb50a047a2f98e5d12102b5a99aa5492f32e894bfb53095de7a00e1493087a16248b124c8f80f5f90b65353ae0d490800", "vin": [{"txinwitness": ["", "3045022100c70649059f197ac828de1371f355f65c9bd51ba03e3bec454b51a88919ac9ba1022020cdcc4165cc2d06cfe17b71efa875f18065390f00285c656546dd6983ca200401", "3045022100bac6486c809da2733e927bd3cc7c45db185be394de2f05040156651c0f40e1e30220476cd45428f2067efdb140c81fd392c22ff32a4d7a5b6fdfefda90c1708fc13001", "522103d489517b654df06a56d5a20ac728dc680a9d53036e2d54386904b4427ba9cc6721021f6d611607dabeaeb6043ffd911b1193c8a470bfe8ba203bb50a047a2f98e5d12102b5a99aa5492f32e894bfb53095de7a00e1493087a16248b124c8f80f5f90b65353ae"], "sequence": 4294967295, "scriptSig": {"hex": "220020c16e0b41bed33075447fbd86c4d994e1d09a949fa57280a091fa88b6d25a369c", "asm": "0020c16e0b41bed33075447fbd86c4d994e1d09a949fa57280a091fa88b6d25a369c"}, "vout": 0, "txid": "021bb33cea9cbcb8d32a7a335924b3754c458db15547744dcae20c9bbc66bdbf"}], "txid": "09276ef0ba287d969d0ea1a093c7608f96f72d494c60d4438b9ac5ec911be98a", "blocktime": 1537870268, "version": 1, "confirmations": 11518, "time": 1537870268, "locktime": 542989, "vsize": 214, "size": 406}