{"hash": "092db557a125d61695fb03cb6e1d4b699cc57a472371e2ef22b5b1b197da9e72", "blockhash": "00000000000000000017f5eb5941039fbcee6240d03bc1f2f8e35350df66a1d8", "vout": [{"scriptPubKey": {"reqSigs": 1, "hex": "a91498fd02a223491a89d59303a39df30e505395072287", "addresses": ["3FdwjAWtb4iY6Q3AGVnTaKNkf7s6gzi4fi"], "asm": "OP_HASH160 98fd02a223491a89d59303a39df30e5053950722 OP_EQUAL", "type": "scripthash"}, "value": 0.00285111, "n": 0}, {"scriptPubKey": {"reqSigs": 1, "hex": "76a9146d52bab49555ecac14bf3bf920a384bd64a4c1a788ac", "addresses": ["1Ay3m3WfVuaKLWy9UGWGDN8m24YfnVsoXw"], "asm": "OP_DUP OP_HASH160 6d52bab49555ecac14bf3bf920a384bd64a4c1a7 OP_EQUALVERIFY OP_CHECKSIG", "type": "pubkeyhash"}, "value": 0.09249727, "n": 1}], "hex": "01000000017e8808bc83092c3f6e65d62bab85f642b4e13d971010ca70f2cf3b5c0cfaf641010000006a47304402206739bc1a7b5fd7ad147592ce2d671d8c9e43a8c75e1d502089d0bfc3c02ec9cc022010d21a22c8f31d7d70af33340c8e5ece60571912a9898503eb426abe47fb6cee0121027b0dfbea0a2d1cc14fc09abb4cb3c11287c2e1a7b766a7d78ee624462c3d0dcaffffffff02b75904000000000017a91498fd02a223491a89d59303a39df30e505395072287bf238d00000000001976a9146d52bab49555ecac14bf3bf920a384bd64a4c1a788ac00000000", "vin": [{"sequence": 4294967295, "scriptSig": {"hex": "47304402206739bc1a7b5fd7ad147592ce2d671d8c9e43a8c75e1d502089d0bfc3c02ec9cc022010d21a22c8f31d7d70af33340c8e5ece60571912a9898503eb426abe47fb6cee0121027b0dfbea0a2d1cc14fc09abb4cb3c11287c2e1a7b766a7d78ee624462c3d0dca", "asm": "304402206739bc1a7b5fd7ad147592ce2d671d8c9e43a8c75e1d502089d0bfc3c02ec9cc022010d21a22c8f31d7d70af33340c8e5ece60571912a9898503eb426abe47fb6cee[ALL] 027b0dfbea0a2d1cc14fc09abb4cb3c11287c2e1a7b766a7d78ee624462c3d0dca"}, "vout": 1, "txid": "41f6fa0c5c3bcff270ca1010973de1b442f685ab2bd6656e3f2c0983bc08887e"}], "txid": "092db557a125d61695fb03cb6e1d4b699cc57a472371e2ef22b5b1b197da9e72", "blocktime": 1537874412, "version": 1, "confirmations": 11467, "time": 1537874412, "locktime": 0, "vsize": 223, "size": 223}