{"hash": "0936ce52ca66bb5a3aa153c19859425bb4c361411ca4b50ed829fcf808b099d6", "blockhash": "000000000000000000022b45ed06c6f4ccd3cf7fb5ba4856ebd2e58215665228", "vout": [{"scriptPubKey": {"reqSigs": 1, "hex": "76a9140032fab823072f1a0454d038b841d0fc8a305fcd88ac", "addresses": ["112457KGS6K62KFDWqrz1ygu5SCvChi6Yn"], "asm": "OP_DUP OP_HASH160 0032fab823072f1a0454d038b841d0fc8a305fcd OP_EQUALVERIFY OP_CHECKSIG", "type": "pubkeyhash"}, "value": 0.059, "n": 0}, {"scriptPubKey": {"reqSigs": 1, "hex": "76a9147fc6f97df49cc35b0dfe7de2facf835a05e42f0988ac", "addresses": ["1CedBMo5FzN9DCWLJm6FmxFAkdErNjofz2"], "asm": "OP_DUP OP_HASH160 7fc6f97df49cc35b0dfe7de2facf835a05e42f09 OP_EQUALVERIFY OP_CHECKSIG", "type": "pubkeyhash"}, "value": 0.00267222, "n": 1}], "hex": "01000000019d09096bfde4f563698c4083fe5f759cfaa801f3322c216ec924e156b7436a7b010000006a47304402205ef3a290066b34b96fe5121b533859b32014f1e64b5f102bf94a842f7a16747a02202c5736033a343668e95db858f39051040722606ebd5e54a944ef7a67620c921c0121023ee76a273b8fe25e4873125d184465fe085d84caa79faf5399550aa4f585999cffffffff02e0065a00000000001976a9140032fab823072f1a0454d038b841d0fc8a305fcd88acd6130400000000001976a9147fc6f97df49cc35b0dfe7de2facf835a05e42f0988ac00000000", "vin": [{"sequence": 4294967295, "scriptSig": {"hex": "47304402205ef3a290066b34b96fe5121b533859b32014f1e64b5f102bf94a842f7a16747a02202c5736033a343668e95db858f39051040722606ebd5e54a944ef7a67620c921c0121023ee76a273b8fe25e4873125d184465fe085d84caa79faf5399550aa4f585999c", "asm": "304402205ef3a290066b34b96fe5121b533859b32014f1e64b5f102bf94a842f7a16747a02202c5736033a343668e95db858f39051040722606ebd5e54a944ef7a67620c921c[ALL] 023ee76a273b8fe25e4873125d184465fe085d84caa79faf5399550aa4f585999c"}, "vout": 1, "txid": "7b6a43b756e124c96e212c32f301a8fa9c755ffe83408c6963f5e4fd6b09099d"}], "txid": "0936ce52ca66bb5a3aa153c19859425bb4c361411ca4b50ed829fcf808b099d6", "blocktime": 1537869901, "version": 1, "confirmations": 11522, "time": 1537869901, "locktime": 0, "vsize": 225, "size": 225}