{"hash": "9dfc7c54450cdf3ffbddacddece40c5cae219793d099fb78bb5cbf15f3dfa289", "blockhash": "00000000000000000018f53835495a110e01622372bf6ae95dc86f2b0ab887b0", "vout": [{"scriptPubKey": {"reqSigs": 1, "hex": "76a9148fc66edfb748f6ab84980d556c1550ef2556a03a88ac", "addresses": ["1E7DLoi7iTiE6xvJgbxdAQ2j36ULaBbidN"], "asm": "OP_DUP OP_HASH160 8fc66edfb748f6ab84980d556c1550ef2556a03a OP_EQUALVERIFY OP_CHECKSIG", "type": "pubkeyhash"}, "value": 0.00717419, "n": 0}, {"scriptPubKey": {"reqSigs": 1, "hex": "a9146b472da974078b6e604ce40aecf3b2ce49d1898f87", "addresses": ["3BUFVdT2RFiwPSBJcUrspKkcpa5rCJviC2"], "asm": "OP_HASH160 6b472da974078b6e604ce40aecf3b2ce49d1898f OP_EQUAL", "type": "scripthash"}, "value": 0.09651161, "n": 1}], "hex": "0200000000010145850c111a929ce1b4fe000613830b9dda520e1a63726b16649f525d546549710100000017160014706c54f3bb361db881f6fc94a83e724f90ff10e6feffffff026bf20a00000000001976a9148fc66edfb748f6ab84980d556c1550ef2556a03a88acd94393000000000017a9146b472da974078b6e604ce40aecf3b2ce49d1898f8702473044022054db6d91f162daaa1a55887719af0ea354f4e175d82a56a9bb8f47ebb54a667d02207588e8b27e6bafe06c2829f3e090e6ebf5d5091e9f865eb5418e22913d1e5681012102595907889ecf6db3f0c86d7793101a8df183951413dce85334ba25135e1f11510e490800", "vin": [{"txinwitness": ["3044022054db6d91f162daaa1a55887719af0ea354f4e175d82a56a9bb8f47ebb54a667d02207588e8b27e6bafe06c2829f3e090e6ebf5d5091e9f865eb5418e22913d1e568101", "02595907889ecf6db3f0c86d7793101a8df183951413dce85334ba25135e1f1151"], "sequence": 4294967294, "scriptSig": {"hex": "160014706c54f3bb361db881f6fc94a83e724f90ff10e6", "asm": "0014706c54f3bb361db881f6fc94a83e724f90ff10e6"}, "vout": 1, "txid": "714965545d529f64166b72631a0e52da9d0b83130600feb4e19c921a110c8545"}], "txid": "09376fb94d37db4a5246990d06f898e4874cc2571165bcf3bb936621328fe596", "blocktime": 1537870928, "version": 2, "confirmations": 11512, "time": 1537870928, "locktime": 542990, "vsize": 168, "size": 249}