{"hash": "093e4db7766a464fd90757b3c7891b5d11984d6583ee3b6c64109645618782ac", "blockhash": "0000000000000000001f76057863aec43deb6fa401d9628bb513d65a8098bfab", "vout": [{"scriptPubKey": {"reqSigs": 1, "hex": "a914b0038471b86b141d702c385af20c49bb5534f49c87", "addresses": ["3Hjh4hLszxCQVbZ95GKaTo3FrTFUtt2zLy"], "asm": "OP_HASH160 b0038471b86b141d702c385af20c49bb5534f49c OP_EQUAL", "type": "scripthash"}, "value": 0.21796149, "n": 0}, {"scriptPubKey": {"reqSigs": 1, "hex": "76a9149103323305a0e78a1d656bb092f04d35d63630a888ac", "addresses": ["1EDkotFoEFAa1ifQoge9FxUqHy9Ze8Uxrc"], "asm": "OP_DUP OP_HASH160 9103323305a0e78a1d656bb092f04d35d63630a8 OP_EQUALVERIFY OP_CHECKSIG", "type": "pubkeyhash"}, "value": 0.00010476, "n": 1}], "hex": "01000000016ff3b258ab9b303ef462ec295b15faeb9549ca777f43b20d94c06d641195ed18000000006a47304402205e965478fa54358aeb2cb941bd65cbf59725f59c29cd13132a0c3afe8aec2f8b02202cb200119a3cc3ea0dde04e4d881e93b5f4ef915ce46c6b5a7ccd55d073d07350121024fc3fd0dafa1e360ec94ac3b73ac699b64029ff3ae352cf15e4a997d383584d0ffffffff0235954c010000000017a914b0038471b86b141d702c385af20c49bb5534f49c87ec280000000000001976a9149103323305a0e78a1d656bb092f04d35d63630a888ac00000000", "vin": [{"sequence": 4294967295, "scriptSig": {"hex": "47304402205e965478fa54358aeb2cb941bd65cbf59725f59c29cd13132a0c3afe8aec2f8b02202cb200119a3cc3ea0dde04e4d881e93b5f4ef915ce46c6b5a7ccd55d073d07350121024fc3fd0dafa1e360ec94ac3b73ac699b64029ff3ae352cf15e4a997d383584d0", "asm": "304402205e965478fa54358aeb2cb941bd65cbf59725f59c29cd13132a0c3afe8aec2f8b02202cb200119a3cc3ea0dde04e4d881e93b5f4ef915ce46c6b5a7ccd55d073d0735[ALL] 024fc3fd0dafa1e360ec94ac3b73ac699b64029ff3ae352cf15e4a997d383584d0"}, "vout": 0, "txid": "18ed9511646dc0940db2437f77ca4995ebfa155b29ec62f43e309bab58b2f36f"}], "txid": "093e4db7766a464fd90757b3c7891b5d11984d6583ee3b6c64109645618782ac", "blocktime": 1537873891, "version": 1, "confirmations": 11474, "time": 1537873891, "locktime": 0, "vsize": 223, "size": 223}