{"hash": "0943fb80f8ef1aa96e2f5411abe6aa72962bf6004b66948ca2b2f38759289180", "blockhash": "00000000000000000017f5eb5941039fbcee6240d03bc1f2f8e35350df66a1d8", "vout": [{"scriptPubKey": {"reqSigs": 1, "hex": "76a914e679cc0a4e3b3d9cbec44edc945203ee7087cffe88ac", "addresses": ["1N1eKjBA1Xm5i7wDpCYXpdC2rNWLQzTnwg"], "asm": "OP_DUP OP_HASH160 e679cc0a4e3b3d9cbec44edc945203ee7087cffe OP_EQUALVERIFY OP_CHECKSIG", "type": "pubkeyhash"}, "value": 0.00010744, "n": 0}, {"scriptPubKey": {"reqSigs": 1, "hex": "76a9147fcee0ded3cd10982930d5660c2ed7a70885789088ac", "addresses": ["1CeneXVShtQ1Bpx1i2RLv4p6P9JknPqBP7"], "asm": "OP_DUP OP_HASH160 7fcee0ded3cd10982930d5660c2ed7a708857890 OP_EQUALVERIFY OP_CHECKSIG", "type": "pubkeyhash"}, "value": 0.00015635, "n": 1}], "hex": "01000000013f88fd55916d5c9b5f9f157e6222731fd09af9e06569f7a85f0d0fb5b8d8b602000000006a473044022067036538c843721845578679004674b8c5dd721d8f8849de87fb8a112b10c312022060472fe610e774deb51f70432783e9106e8343081328116653652332d85b6e690121033fd78456df33d4075f438a6bd60356959f703e82389a33b4fb02a0ac57a61495ffffffff02f8290000000000001976a914e679cc0a4e3b3d9cbec44edc945203ee7087cffe88ac133d0000000000001976a9147fcee0ded3cd10982930d5660c2ed7a70885789088ac00000000", "vin": [{"sequence": 4294967295, "scriptSig": {"hex": "473044022067036538c843721845578679004674b8c5dd721d8f8849de87fb8a112b10c312022060472fe610e774deb51f70432783e9106e8343081328116653652332d85b6e690121033fd78456df33d4075f438a6bd60356959f703e82389a33b4fb02a0ac57a61495", "asm": "3044022067036538c843721845578679004674b8c5dd721d8f8849de87fb8a112b10c312022060472fe610e774deb51f70432783e9106e8343081328116653652332d85b6e69[ALL] 033fd78456df33d4075f438a6bd60356959f703e82389a33b4fb02a0ac57a61495"}, "vout": 0, "txid": "02b6d8b8b50f0d5fa8f76965e0f99ad01f7322627e159f5f9b5c6d9155fd883f"}], "txid": "0943fb80f8ef1aa96e2f5411abe6aa72962bf6004b66948ca2b2f38759289180", "blocktime": 1537874412, "version": 1, "confirmations": 11468, "time": 1537874412, "locktime": 0, "vsize": 225, "size": 225}