{"hash": "09495a31ed91705cafe9bd45ef610574611514f2e06399e31543c75c54d59f8f", "blockhash": "0000000000000000001cda96e906b7601b7a6fb1a3b62bca570a9e5d8f4b3de1", "vout": [{"scriptPubKey": {"reqSigs": 1, "hex": "76a91432b2c3a316b397201a017c576b3de9827b562ca888ac", "addresses": ["15d4wM6GZQbJUpUMEChZmNKoBhub7Zh9Cy"], "asm": "OP_DUP OP_HASH160 32b2c3a316b397201a017c576b3de9827b562ca8 OP_EQUALVERIFY OP_CHECKSIG", "type": "pubkeyhash"}, "value": 0.00755613, "n": 0}], "hex": "0100000001378aa9064fd3a7fe28ef01609632f14535948bcf21504aef6594b69c195e21c41a0000006a4730440220331835f854cd8660a1fddc84e77d1454b4d30899f2542e18a1387591e7e6bcb702203fad59135bd870909121780e5b315fe1cad11b516d1faaf67463ff40079e1fd2012103ee51b241cacebc7f2b08123c705ceed2352ba17891826982e4937be1497fc7fbffffffff019d870b00000000001976a91432b2c3a316b397201a017c576b3de9827b562ca888ac00000000", "vin": [{"sequence": 4294967295, "scriptSig": {"hex": "4730440220331835f854cd8660a1fddc84e77d1454b4d30899f2542e18a1387591e7e6bcb702203fad59135bd870909121780e5b315fe1cad11b516d1faaf67463ff40079e1fd2012103ee51b241cacebc7f2b08123c705ceed2352ba17891826982e4937be1497fc7fb", "asm": "30440220331835f854cd8660a1fddc84e77d1454b4d30899f2542e18a1387591e7e6bcb702203fad59135bd870909121780e5b315fe1cad11b516d1faaf67463ff40079e1fd2[ALL] 03ee51b241cacebc7f2b08123c705ceed2352ba17891826982e4937be1497fc7fb"}, "vout": 26, "txid": "c4215e199cb69465ef4a5021cf8b943545f132966001ef28fea7d34f06a98a37"}], "txid": "09495a31ed91705cafe9bd45ef610574611514f2e06399e31543c75c54d59f8f", "blocktime": 1537873282, "version": 1, "confirmations": 11485, "time": 1537873282, "locktime": 0, "vsize": 191, "size": 191}