{"hash": "094cf62015420d66c4317ca11ffa69c96e0b0a9cf7e96bb85408265745977cf1", "blockhash": "0000000000000000001f76057863aec43deb6fa401d9628bb513d65a8098bfab", "vout": [{"scriptPubKey": {"reqSigs": 1, "hex": "76a9140a6b825daa1b89f8e100ed8eec6d79b592500f4988ac", "addresses": ["1x6YnuBVeeE65dQRZztRWgUPwyBjHCA5g"], "asm": "OP_DUP OP_HASH160 0a6b825daa1b89f8e100ed8eec6d79b592500f49 OP_EQUALVERIFY OP_CHECKSIG", "type": "pubkeyhash"}, "value": 0.44495074, "n": 0}, {"scriptPubKey": {"reqSigs": 1, "hex": "76a914d36791745ff4323e12a53975ee694525f4342a5d88ac", "addresses": ["1LGoeX98ZRhi5SNUh1UWgqmkYaYgfv62n9"], "asm": "OP_DUP OP_HASH160 d36791745ff4323e12a53975ee694525f4342a5d OP_EQUALVERIFY OP_CHECKSIG", "type": "pubkeyhash"}, "value": 5.46e-06, "n": 1}, {"scriptPubKey": {"type": "nulldata", "hex": "6a146f6d6e69000000000000001f00000038f941af00", "asm": "OP_RETURN 6f6d6e69000000000000001f00000038f941af00"}, "value": 0.0, "n": 2}], "hex": "0100000001e68f22762f8ada2549a6cace54660a9b9b373e68d625af25f77ccee21779f65f010000006946304302206cc5972f4f178dc56e33fa1aa771064ae90151e086ee8df351b7e3599cd097a7021f3ee1efeeeb52745a604faa4bcbd95fc165c8c3e9719ea2a9dc28ac9018af1e012103fe02b06a6bfd9b5a83e0417430a3235a39a0b4c7973591ca27ac58f6474d9120ffffffff03e2f0a602000000001976a9140a6b825daa1b89f8e100ed8eec6d79b592500f4988ac22020000000000001976a914d36791745ff4323e12a53975ee694525f4342a5d88ac0000000000000000166a146f6d6e69000000000000001f00000038f941af0000000000", "vin": [{"sequence": 4294967295, "scriptSig": {"hex": "46304302206cc5972f4f178dc56e33fa1aa771064ae90151e086ee8df351b7e3599cd097a7021f3ee1efeeeb52745a604faa4bcbd95fc165c8c3e9719ea2a9dc28ac9018af1e012103fe02b06a6bfd9b5a83e0417430a3235a39a0b4c7973591ca27ac58f6474d9120", "asm": "304302206cc5972f4f178dc56e33fa1aa771064ae90151e086ee8df351b7e3599cd097a7021f3ee1efeeeb52745a604faa4bcbd95fc165c8c3e9719ea2a9dc28ac9018af1e[ALL] 03fe02b06a6bfd9b5a83e0417430a3235a39a0b4c7973591ca27ac58f6474d9120"}, "vout": 1, "txid": "5ff67917e2ce7cf725af25d6683e379b9b0a6654cecaa64925da8a2f76228fe6"}], "txid": "094cf62015420d66c4317ca11ffa69c96e0b0a9cf7e96bb85408265745977cf1", "blocktime": 1537873891, "version": 1, "confirmations": 11474, "time": 1537873891, "locktime": 0, "vsize": 255, "size": 255}