{"hash": "094f31c39e07609fb4564bbe605b43c714668356423ed8454f6d9c959053c71f", "blockhash": "0000000000000000001f0ddff1eddb255c1121bcd4da4f1bc9a0da00cae72433", "vout": [{"scriptPubKey": {"reqSigs": 1, "hex": "a91454377df4591e54525ae85fdc01db804f59e0a71287", "addresses": ["39NKAJvtCZdSUyrqUJHoNgv8EzMjVJ79Uj"], "asm": "OP_HASH160 54377df4591e54525ae85fdc01db804f59e0a712 OP_EQUAL", "type": "scripthash"}, "value": 0.07, "n": 0}, {"scriptPubKey": {"reqSigs": 1, "hex": "76a9147357591edb4fad14e2019181dabb52c6a7ec08b888ac", "addresses": ["1BWsM7f5C8k1MrNpcufxSwf17afjJUCUwk"], "asm": "OP_DUP OP_HASH160 7357591edb4fad14e2019181dabb52c6a7ec08b8 OP_EQUALVERIFY OP_CHECKSIG", "type": "pubkeyhash"}, "value": 0.05647316, "n": 1}], "hex": "0100000001d8e88b77196c43e503ce604eb9f3da8de8863e1d1b54beb79af354580cadb039010000006b483045022100bdaccc1c34577f6f97352b4e9f1aa7f66c62c5bacbc2e8147191d1bdbcd1fb6402200b29c480c1d688e168f5311b717898dde2f3ed995631a031400daea91afd6f220121020a178bc720b29e8c999bc283c633ded996ca913bfbbf75daeec2c86bc090b609ffffffff02c0cf6a000000000017a91454377df4591e54525ae85fdc01db804f59e0a71287d42b5600000000001976a9147357591edb4fad14e2019181dabb52c6a7ec08b888ac00000000", "vin": [{"sequence": 4294967295, "scriptSig": {"hex": "483045022100bdaccc1c34577f6f97352b4e9f1aa7f66c62c5bacbc2e8147191d1bdbcd1fb6402200b29c480c1d688e168f5311b717898dde2f3ed995631a031400daea91afd6f220121020a178bc720b29e8c999bc283c633ded996ca913bfbbf75daeec2c86bc090b609", "asm": "3045022100bdaccc1c34577f6f97352b4e9f1aa7f66c62c5bacbc2e8147191d1bdbcd1fb6402200b29c480c1d688e168f5311b717898dde2f3ed995631a031400daea91afd6f22[ALL] 020a178bc720b29e8c999bc283c633ded996ca913bfbbf75daeec2c86bc090b609"}, "vout": 1, "txid": "39b0ad0c5854f39ab7be541b1d3e86e88ddaf3b94e60ce03e5436c19778be8d8"}], "txid": "094f31c39e07609fb4564bbe605b43c714668356423ed8454f6d9c959053c71f", "blocktime": 1537872018, "version": 1, "confirmations": 11489, "time": 1537872018, "locktime": 0, "vsize": 224, "size": 224}