{"hash": "9385ceb30a1276fb5aed3e07d8df3b06909237e61a8f739cc74343d3cfd6280f", "blockhash": "00000000000000000017f5eb5941039fbcee6240d03bc1f2f8e35350df66a1d8", "vout": [{"scriptPubKey": {"reqSigs": 1, "hex": "a914fe9f01b938fb1957a83a856cecdb5df8022ec88287", "addresses": ["3QuL3FTj1M6SYcQAyEoXvfQA2yHAr4Qmx4"], "asm": "OP_HASH160 fe9f01b938fb1957a83a856cecdb5df8022ec882 OP_EQUAL", "type": "scripthash"}, "value": 0.00999877, "n": 0}, {"scriptPubKey": {"reqSigs": 1, "hex": "76a9147cab014a7de2688af75bebec7d04c4a72bbded4c88ac", "addresses": ["1CNBeRgtqJU9vxJxZPuuwMP6jshb9ggD88"], "asm": "OP_DUP OP_HASH160 7cab014a7de2688af75bebec7d04c4a72bbded4c OP_EQUALVERIFY OP_CHECKSIG", "type": "pubkeyhash"}, "value": 0.01369221, "n": 1}], "hex": "020000000001048e8d703e10ec0683a186b01cdb2fa3ef33bc2a920b335811437e6e1778346174010000001716001403ccafed4f3d75cfb6827ae406a8c9fbf7b0483cfeffffff940f8d53bc86839f6b4a4669c26c95f64d5813c9fc544ad17c07265b809eccb105000000171600144a608ca392c407f97c3eabe10e96784cee849ddbfeffffffa8afe14167d04a2dcf7dab466f5ecfc248bd3ebb380c81f433b9a1c923051f7204000000171600145ebd4aba2cbcf7e4bba7d502e3680704fbecac6bfeffffffed0fc8e91d095c41151f93544233963c30ac596ae0ce50d3095a5b1ba6a503d9010000001716001493e87d5f2ad0036e9b215c63c4d4a528f5ebf5defeffffff02c5410f000000000017a914fe9f01b938fb1957a83a856cecdb5df8022ec8828785e41400000000001976a9147cab014a7de2688af75bebec7d04c4a72bbded4c88ac0247304402200f9b096f33bbac77f211ef16044c628fd8c69aa32d505a0973b1e62482001fa40220113544482dbe552e8b4931169da95e7deeb4248b69083f0ba2b55492f4cebcd701210280603f8e4b57bab125c8e7639af5ef7edb660c2cce49b9d4bc244374f486ab98024830450221009b245408e1158e51b85bab4d988c3d101672e9f46ae4b2c66391a4b05e80dff50220703db34afbeb510b2c4c7502e469cdc02b02f5aa2743dc68a0a3f0d11088acb7012102d1b0041eb45ba215bed426102d8d326e6a76ac473b0123a72aafdd0894806a7602483045022100b77aca5ff4f935e7896d7b2adc55b81def4773ea7165017dd5bf2ca486a3610d0220362ecdddfaa3973f25308001cf155c7568b39c0d4c6d253ddcf286c947d0087d012102025f3b48baa6388197dd439b7e7a15e568b8f8e6418f75a96c7dba2f447bb14f0247304402207719cca1cd7b33c03e984c3485357ff838ddfaf62e9bb2e62c419ef8d07d5ab80220492237bbe7633745975b44599cdb79a96c3a4419f19a3ce7d0792c5e7c9271f701210384004737722ddd7cd09dfebc9cca1a5572fa270b97de69780e85a94aa7dbfc8215490800", "vin": [{"txinwitness": ["304402200f9b096f33bbac77f211ef16044c628fd8c69aa32d505a0973b1e62482001fa40220113544482dbe552e8b4931169da95e7deeb4248b69083f0ba2b55492f4cebcd701", "0280603f8e4b57bab125c8e7639af5ef7edb660c2cce49b9d4bc244374f486ab98"], "sequence": 4294967294, "scriptSig": {"hex": "16001403ccafed4f3d75cfb6827ae406a8c9fbf7b0483c", "asm": "001403ccafed4f3d75cfb6827ae406a8c9fbf7b0483c"}, "vout": 1, "txid": "74613478176e7e431158330b922abc33efa32fdb1cb086a18306ec103e708d8e"}, {"txinwitness": ["30450221009b245408e1158e51b85bab4d988c3d101672e9f46ae4b2c66391a4b05e80dff50220703db34afbeb510b2c4c7502e469cdc02b02f5aa2743dc68a0a3f0d11088acb701", "02d1b0041eb45ba215bed426102d8d326e6a76ac473b0123a72aafdd0894806a76"], "sequence": 4294967294, "scriptSig": {"hex": "1600144a608ca392c407f97c3eabe10e96784cee849ddb", "asm": "00144a608ca392c407f97c3eabe10e96784cee849ddb"}, "vout": 5, "txid": "b1cc9e805b26077cd14a54fcc913584df6956cc269464a6b9f8386bc538d0f94"}, {"txinwitness": ["3045022100b77aca5ff4f935e7896d7b2adc55b81def4773ea7165017dd5bf2ca486a3610d0220362ecdddfaa3973f25308001cf155c7568b39c0d4c6d253ddcf286c947d0087d01", "02025f3b48baa6388197dd439b7e7a15e568b8f8e6418f75a96c7dba2f447bb14f"], "sequence": 4294967294, "scriptSig": {"hex": "1600145ebd4aba2cbcf7e4bba7d502e3680704fbecac6b", "asm": "00145ebd4aba2cbcf7e4bba7d502e3680704fbecac6b"}, "vout": 4, "txid": "721f0523c9a1b933f4810c38bb3ebd48c2cf5e6f46ab7dcf2d4ad06741e1afa8"}, {"txinwitness": ["304402207719cca1cd7b33c03e984c3485357ff838ddfaf62e9bb2e62c419ef8d07d5ab80220492237bbe7633745975b44599cdb79a96c3a4419f19a3ce7d0792c5e7c9271f701", "0384004737722ddd7cd09dfebc9cca1a5572fa270b97de69780e85a94aa7dbfc82"], "sequence": 4294967294, "scriptSig": {"hex": "16001493e87d5f2ad0036e9b215c63c4d4a528f5ebf5de", "asm": "001493e87d5f2ad0036e9b215c63c4d4a528f5ebf5de"}, "vout": 1, "txid": "d903a5a61b5b5a09d350cee06a59ac303c96334254931f15415c091de9c80fed"}], "txid": "095152c356df77fb35a3c01cfd1edec34f396ba2581431b680f2b6da76096ecc", "blocktime": 1537874412, "version": 2, "confirmations": 11468, "time": 1537874412, "locktime": 542997, "vsize": 440, "size": 764}