{"hash": "095264227d12d1240e4792b30773a489c0704dee5a13b81e94638d50d079fbff", "blockhash": "0000000000000000000e13cef7c366c0283d82e591d1acd082e914b08063cdf1", "vout": [{"scriptPubKey": {"reqSigs": 1, "hex": "a9148bd8661ed3bc272f0997e4dfcc95f01ef3c6f88687", "addresses": ["3EST5sHrLVt9hDfprQrHYT87bNX9cjXEw8"], "asm": "OP_HASH160 8bd8661ed3bc272f0997e4dfcc95f01ef3c6f886 OP_EQUAL", "type": "scripthash"}, "value": 0.015623, "n": 0}, {"scriptPubKey": {"reqSigs": 1, "hex": "76a914f56ba8d50d4577a348bfbbeedfabd102d9775f6088ac", "addresses": ["1PNfXK5cL2eW4WUCAdkoBCzCxTJffHhLFA"], "asm": "OP_DUP OP_HASH160 f56ba8d50d4577a348bfbbeedfabd102d9775f60 OP_EQUALVERIFY OP_CHECKSIG", "type": "pubkeyhash"}, "value": 0.02415055, "n": 1}], "hex": "0100000001ae418f597db511c60ad456f1fa0a528926c709447ea7b41a38f34f3d1e8b7849010000006a47304402200d1a172fadf259d469853e868d86a9b27580529f9841c76a3e88abb02433d635022020bce3b69ff4ff5d275cb27368cc8402b19554fb165d5cdb37756e21407e223c012103601cf4cbd221c21ebb94412aadb00d9647fb108da26e06ebd6efa75e8fc2698affffffff02bcd617000000000017a9148bd8661ed3bc272f0997e4dfcc95f01ef3c6f88687cfd92400000000001976a914f56ba8d50d4577a348bfbbeedfabd102d9775f6088ac00000000", "vin": [{"sequence": 4294967295, "scriptSig": {"hex": "47304402200d1a172fadf259d469853e868d86a9b27580529f9841c76a3e88abb02433d635022020bce3b69ff4ff5d275cb27368cc8402b19554fb165d5cdb37756e21407e223c012103601cf4cbd221c21ebb94412aadb00d9647fb108da26e06ebd6efa75e8fc2698a", "asm": "304402200d1a172fadf259d469853e868d86a9b27580529f9841c76a3e88abb02433d635022020bce3b69ff4ff5d275cb27368cc8402b19554fb165d5cdb37756e21407e223c[ALL] 03601cf4cbd221c21ebb94412aadb00d9647fb108da26e06ebd6efa75e8fc2698a"}, "vout": 1, "txid": "49788b1e3d4ff3381ab4a77e4409c72689520afaf156d40ac611b57d598f41ae"}], "txid": "095264227d12d1240e4792b30773a489c0704dee5a13b81e94638d50d079fbff", "blocktime": 1537871767, "version": 1, "confirmations": 11495, "time": 1537871767, "locktime": 0, "vsize": 223, "size": 223}