{"hash": "09579b9e9121bda8a4d7ccbea1cf46389b35f16152a6944cb404cea527eab533", "blockhash": "0000000000000000000baef3f32e3676a92c3b2e5da21b426e4f302fc371ce76", "vout": [{"scriptPubKey": {"reqSigs": 1, "hex": "76a91488110503f59a82edb8de8832ad69753c40bf2a6188ac", "addresses": ["1DQTHdbLeEoVUYxgbdGAwRxLp6msUMM5YP"], "asm": "OP_DUP OP_HASH160 88110503f59a82edb8de8832ad69753c40bf2a61 OP_EQUALVERIFY OP_CHECKSIG", "type": "pubkeyhash"}, "value": 0.00632621, "n": 0}, {"scriptPubKey": {"type": "nulldata", "hex": "6a4c500000780100014e0ce0702940d64fa54d8eb2d19ed074892d00f8e87af8e8e963c7cfd5b9f3e263dabad4372658501355ed46101e5baa1a040613867adde0ad2b1d100759d4ba30d2c37bb011d97e02cf", "asm": "OP_RETURN 0000780100014e0ce0702940d64fa54d8eb2d19ed074892d00f8e87af8e8e963c7cfd5b9f3e263dabad4372658501355ed46101e5baa1a040613867adde0ad2b1d100759d4ba30d2c37bb011d97e02cf"}, "value": 0.0, "n": 1}], "hex": "010000000104dc72836837464512c3e2e83eac00e0263dd99afde5c03e05d8bb1cd2ab9f85000000006b483045022100dc2bb912e99804e7f51db8ba8b039da376a26efe42ce432538e50003ce802f9702204a43f41a5a9a9ad93422f17a305a04bf56721d27c9c66f3940a58630e3ba5a6b012102cb97d11a96c6395b9d96fc6422c42d6b0c11716f868d3a69c07ca30e217d9ae8ffffffff022da70900000000001976a91488110503f59a82edb8de8832ad69753c40bf2a6188ac0000000000000000536a4c500000780100014e0ce0702940d64fa54d8eb2d19ed074892d00f8e87af8e8e963c7cfd5b9f3e263dabad4372658501355ed46101e5baa1a040613867adde0ad2b1d100759d4ba30d2c37bb011d97e02cf00000000", "vin": [{"sequence": 4294967295, "scriptSig": {"hex": "483045022100dc2bb912e99804e7f51db8ba8b039da376a26efe42ce432538e50003ce802f9702204a43f41a5a9a9ad93422f17a305a04bf56721d27c9c66f3940a58630e3ba5a6b012102cb97d11a96c6395b9d96fc6422c42d6b0c11716f868d3a69c07ca30e217d9ae8", "asm": "3045022100dc2bb912e99804e7f51db8ba8b039da376a26efe42ce432538e50003ce802f9702204a43f41a5a9a9ad93422f17a305a04bf56721d27c9c66f3940a58630e3ba5a6b[ALL] 02cb97d11a96c6395b9d96fc6422c42d6b0c11716f868d3a69c07ca30e217d9ae8"}, "vout": 0, "txid": "859fabd21cbbd8053ec0e5fd9ad93d26e000ac3ee8e2c312454637688372dc04"}], "txid": "09579b9e9121bda8a4d7ccbea1cf46389b35f16152a6944cb404cea527eab533", "blocktime": 1537876114, "version": 1, "confirmations": 11462, "time": 1537876114, "locktime": 0, "vsize": 284, "size": 284}