{"hash": "095f3a8b5a49b19fc6bd13e3d06a08c09fb4912b52513a64201ad1ceba9b9dcb", "blockhash": "0000000000000000000e13cef7c366c0283d82e591d1acd082e914b08063cdf1", "vout": [{"scriptPubKey": {"reqSigs": 1, "hex": "76a914d6ad13178a9cd9e1f40bd550bcc363a09628619188ac", "addresses": ["1La6wV5sYey4whF8Rp1zYQ39PnLPdXs5ht"], "asm": "OP_DUP OP_HASH160 d6ad13178a9cd9e1f40bd550bcc363a096286191 OP_EQUALVERIFY OP_CHECKSIG", "type": "pubkeyhash"}, "value": 0.00762197, "n": 0}, {"scriptPubKey": {"reqSigs": 1, "hex": "a9145a3c05a077ffc5a64c1195936993e3f2b87fd94687", "addresses": ["39v8eD4XNukkUQhX3fcSRi5VZtcdfKXyp4"], "asm": "OP_HASH160 5a3c05a077ffc5a64c1195936993e3f2b87fd946 OP_EQUAL", "type": "scripthash"}, "value": 0.02899731, "n": 1}], "hex": "0100000002bb0c1d3822bd88ee917e14a6d131803414966adf864d23012a67998e9e361804010000006a473044022003b74ea3f48867d7745bca548320b2f2028b2eafbac1d688a075eb947eb873e602201b92f17654431199f8851475e5f87ee951a7472d0a03b998cef7ac9d4c90a0bd012102ee62e4d8513314732f560a178be843bdb4ec835fcc8099d32094115c61a33404ffffffff1680c57de54d00e95834db4a64a567f5a9a354704ca6a34aa90dfd71982f588c000000006b4830450221009ef2116a094bd728950115e693fc99d0d248c0e932ab6c65a9f05835d35082c20220388869a23cd36a654ba2fe5302828546326d4e2f6a19d3f5fc045e3859a1d9370121031d8513da80eac69f8fceb484fce31a8072dae849735a374bb47136a893f4084bffffffff0255a10b00000000001976a914d6ad13178a9cd9e1f40bd550bcc363a09628619188ac133f2c000000000017a9145a3c05a077ffc5a64c1195936993e3f2b87fd9468700000000", "vin": [{"sequence": 4294967295, "scriptSig": {"hex": "473044022003b74ea3f48867d7745bca548320b2f2028b2eafbac1d688a075eb947eb873e602201b92f17654431199f8851475e5f87ee951a7472d0a03b998cef7ac9d4c90a0bd012102ee62e4d8513314732f560a178be843bdb4ec835fcc8099d32094115c61a33404", "asm": "3044022003b74ea3f48867d7745bca548320b2f2028b2eafbac1d688a075eb947eb873e602201b92f17654431199f8851475e5f87ee951a7472d0a03b998cef7ac9d4c90a0bd[ALL] 02ee62e4d8513314732f560a178be843bdb4ec835fcc8099d32094115c61a33404"}, "vout": 1, "txid": "0418369e8e99672a01234d86df6a9614348031d1a6147e91ee88bd22381d0cbb"}, {"sequence": 4294967295, "scriptSig": {"hex": "4830450221009ef2116a094bd728950115e693fc99d0d248c0e932ab6c65a9f05835d35082c20220388869a23cd36a654ba2fe5302828546326d4e2f6a19d3f5fc045e3859a1d9370121031d8513da80eac69f8fceb484fce31a8072dae849735a374bb47136a893f4084b", "asm": "30450221009ef2116a094bd728950115e693fc99d0d248c0e932ab6c65a9f05835d35082c20220388869a23cd36a654ba2fe5302828546326d4e2f6a19d3f5fc045e3859a1d937[ALL] 031d8513da80eac69f8fceb484fce31a8072dae849735a374bb47136a893f4084b"}, "vout": 0, "txid": "8c582f9871fd0da94aa3a64c7054a3a9f567a5644adb3458e9004de57dc58016"}], "txid": "095f3a8b5a49b19fc6bd13e3d06a08c09fb4912b52513a64201ad1ceba9b9dcb", "blocktime": 1537871767, "version": 1, "confirmations": 11495, "time": 1537871767, "locktime": 0, "vsize": 371, "size": 371}