{"hash": "90b2f3c75ed6db53ab523f9e3631d66884296d0d59c243676260561a18ff9c01", "blockhash": "0000000000000000001cda96e906b7601b7a6fb1a3b62bca570a9e5d8f4b3de1", "vout": [{"scriptPubKey": {"reqSigs": 1, "hex": "76a914428cd549d0791a65b62bce085ad9e1e12597a56788ac", "addresses": ["174tJvNMsAZNsXmjfjxSkfWFtWMif2uGps"], "asm": "OP_DUP OP_HASH160 428cd549d0791a65b62bce085ad9e1e12597a567 OP_EQUALVERIFY OP_CHECKSIG", "type": "pubkeyhash"}, "value": 0.00990001, "n": 0}, {"scriptPubKey": {"reqSigs": 1, "hex": "a914f7a5c7e164b62d4723ffb81592a3a0ea3ccf607d87", "addresses": ["3QGTRaPx74Q1GRVfprF7URPkkwBxdA3sA2"], "asm": "OP_HASH160 f7a5c7e164b62d4723ffb81592a3a0ea3ccf607d OP_EQUAL", "type": "scripthash"}, "value": 22.3690818, "n": 1}], "hex": "01000000000101248e323f8890f551511d292880cc374243e63436a8e55c18265d40707bfbca930200000017160014f86ab39884f82e684126e1e87aef50ebac1dd49bffffffff02311b0f00000000001976a914428cd549d0791a65b62bce085ad9e1e12597a56788ac948254850000000017a914f7a5c7e164b62d4723ffb81592a3a0ea3ccf607d8702483045022100e685d43c6aedcc03b64aa6e7218b9b96d657c58774ab0a767acc8d43f84bcec502202046d9388b1d25b13311945196ba0c924ba4eaa70f181bf5b716f0f7e0d99b22012103d22381018772b2fd8d3e3cd570790cba07f50716d9ea91593c1a2868c5e5cc3e00000000", "vin": [{"txinwitness": ["3045022100e685d43c6aedcc03b64aa6e7218b9b96d657c58774ab0a767acc8d43f84bcec502202046d9388b1d25b13311945196ba0c924ba4eaa70f181bf5b716f0f7e0d99b2201", "03d22381018772b2fd8d3e3cd570790cba07f50716d9ea91593c1a2868c5e5cc3e"], "sequence": 4294967295, "scriptSig": {"hex": "160014f86ab39884f82e684126e1e87aef50ebac1dd49b", "asm": "0014f86ab39884f82e684126e1e87aef50ebac1dd49b"}, "vout": 2, "txid": "93cafb7b70405d26185ce5a83634e6434237cc8028291d5151f590883f328e24"}], "txid": "096d78cf43a78805634ebab89d3e25b451a175697aa76e90653f57adfef85d8a", "blocktime": 1537873282, "version": 1, "confirmations": 11484, "time": 1537873282, "locktime": 0, "vsize": 168, "size": 250}