{"hash": "cbeb35dd5c9d3d44872fabbfe67d8ec2127eafc237a79a95b6ba3a343bdd9626", "blockhash": "0000000000000000000baef3f32e3676a92c3b2e5da21b426e4f302fc371ce76", "vout": [{"scriptPubKey": {"reqSigs": 1, "hex": "76a9144066b4af04907ac9cda83593ef58fad0902ca14a88ac", "addresses": ["16sXHQFig82Zwuwax5reSskLXcYBREq62M"], "asm": "OP_DUP OP_HASH160 4066b4af04907ac9cda83593ef58fad0902ca14a OP_EQUALVERIFY OP_CHECKSIG", "type": "pubkeyhash"}, "value": 0.00644445, "n": 0}, {"scriptPubKey": {"reqSigs": 1, "hex": "76a9144fd2fdcb1e6509e587575f4b44de3b15a4c6caa188ac", "addresses": ["18H596NxJqC5nZyThgfv5ekHjzp2nipdVM"], "asm": "OP_DUP OP_HASH160 4fd2fdcb1e6509e587575f4b44de3b15a4c6caa1 OP_EQUALVERIFY OP_CHECKSIG", "type": "pubkeyhash"}, "value": 0.00483071, "n": 1}, {"scriptPubKey": {"reqSigs": 1, "hex": "a9145d31b76ac39e40f393314b299be029d6cf52ba4287", "addresses": ["3ABnKkAghvDpZbAJuGjyuK42cAaA3AFig8"], "asm": "OP_HASH160 5d31b76ac39e40f393314b299be029d6cf52ba42 OP_EQUAL", "type": "scripthash"}, "value": 0.35863601, "n": 2}], "hex": "020000000001010101056335d7a2adcee98bb3af9f08182dc1fff8dd7c9d759e9d3480d96e8f5d01000000171600141b6a678f34cb43f763d86355cb7033443e7f4a24feffffff035dd50900000000001976a9144066b4af04907ac9cda83593ef58fad0902ca14a88acff5e0700000000001976a9144fd2fdcb1e6509e587575f4b44de3b15a4c6caa188ac313c23020000000017a9145d31b76ac39e40f393314b299be029d6cf52ba428702483045022100af56ccbba217428635767ac0d50789ae5eb5e806ab8ba904ca2fd4aa217ff05a02206fc3a11a9858d5b782c23174aac718dc629f124d8f930e60d4b8b29417bbcec10121039b0bd2029cea1099dee6c3d7f06c668f934d670a581119b90c650d3a7d7e2eb817490800", "vin": [{"txinwitness": ["3045022100af56ccbba217428635767ac0d50789ae5eb5e806ab8ba904ca2fd4aa217ff05a02206fc3a11a9858d5b782c23174aac718dc629f124d8f930e60d4b8b29417bbcec101", "039b0bd2029cea1099dee6c3d7f06c668f934d670a581119b90c650d3a7d7e2eb8"], "sequence": 4294967294, "scriptSig": {"hex": "1600141b6a678f34cb43f763d86355cb7033443e7f4a24", "asm": "00141b6a678f34cb43f763d86355cb7033443e7f4a24"}, "vout": 1, "txid": "5d8f6ed980349d9e759d7cddf8ffc12d18089fafb38be9ceada2d73563050101"}], "txid": "09705b75f4df2cefde0268d6d98d069885895df922bc840ecab152307350ddb7", "blocktime": 1537876114, "version": 2, "confirmations": 11460, "time": 1537876114, "locktime": 542999, "vsize": 202, "size": 284}