{"hash": "aaf2d86914bd281376e1f4849cf7548c17d67842a1af746b130d4ca1d49bd5ee", "blockhash": "00000000000000000017f5eb5941039fbcee6240d03bc1f2f8e35350df66a1d8", "vout": [{"scriptPubKey": {"reqSigs": 1, "hex": "a914deaf11b83e04aef2c16e4fd0e1b15a554348879b87", "addresses": ["3MzTf9oaNTyQA9KNQ36SxNwNHFWx6CX6qz"], "asm": "OP_HASH160 deaf11b83e04aef2c16e4fd0e1b15a554348879b OP_EQUAL", "type": "scripthash"}, "value": 61.96486746, "n": 0}, {"scriptPubKey": {"reqSigs": 1, "hex": "a9142f4485f3b41ce9c5c6c929ab6338ad78f85036dc87", "addresses": ["35zwmdzgJt79pQudbdvRDEkVKuSR23sfo3"], "asm": "OP_HASH160 2f4485f3b41ce9c5c6c929ab6338ad78f85036dc OP_EQUAL", "type": "scripthash"}, "value": 0.0499, "n": 1}], "hex": "020000000001016338df8eb4015ab8ecd0502326e07a5e55377b88ac0059e1d414c17db4036c6b0100000017160014d7201e349dbd1da35599b9dfbff8346488ccc026feffffff025ae256710100000017a914deaf11b83e04aef2c16e4fd0e1b15a554348879b8730244c000000000017a9142f4485f3b41ce9c5c6c929ab6338ad78f85036dc8702483045022100aba07274fc0c1cd91336e91e5e4da3c32d7a6a1ff22083e6efd101d8d214fd220220231cbee1255e0a1670fd2e63798344f53023a8c41d093b6f19550512abc4b5fa0121038ef76a5ebe858c3b6efad479d632fe053f00dae71e8790fef2dbeefcbd22bf0c13490800", "vin": [{"txinwitness": ["3045022100aba07274fc0c1cd91336e91e5e4da3c32d7a6a1ff22083e6efd101d8d214fd220220231cbee1255e0a1670fd2e63798344f53023a8c41d093b6f19550512abc4b5fa01", "038ef76a5ebe858c3b6efad479d632fe053f00dae71e8790fef2dbeefcbd22bf0c"], "sequence": 4294967294, "scriptSig": {"hex": "160014d7201e349dbd1da35599b9dfbff8346488ccc026", "asm": "0014d7201e349dbd1da35599b9dfbff8346488ccc026"}, "vout": 1, "txid": "6b6c03b47dc114d4e15900ac887b37555e7ae0262350d0ecb85a01b48edf3863"}], "txid": "0976beb45ba3d80f63ec0e48006001575665c3ec1ab9330f8665dc36d0cd8c23", "blocktime": 1537874412, "version": 2, "confirmations": 11468, "time": 1537874412, "locktime": 542995, "vsize": 166, "size": 248}