{"hash": "26bf18f4b436841f17fb1e1da96bf18c1c6f48d56494c98e54efa328c044e5bf", "blockhash": "0000000000000000001e0dab787dd257d1dbfcb92a98c2207d5e1078be1f4165", "vout": [{"scriptPubKey": {"reqSigs": 1, "hex": "00149fc838e6e41e7395ffa28b6e92b9bbfedeeb767f", "addresses": ["bc1qnlyr3ehyreeetlaz3dhf9wdmlm0wkanlwte7kw"], "asm": "0 9fc838e6e41e7395ffa28b6e92b9bbfedeeb767f", "type": "witness_v0_keyhash"}, "value": 0.00135928, "n": 0}, {"scriptPubKey": {"reqSigs": 1, "hex": "a91422b56b0b7747e0f82beefdb3500affdccd1a454787", "addresses": ["34rYEDgyU9jQGFrjBBa8jrR6rmMZWpp3QR"], "asm": "OP_HASH160 22b56b0b7747e0f82beefdb3500affdccd1a4547 OP_EQUAL", "type": "scripthash"}, "value": 0.01647, "n": 1}], "hex": "01000000000101ecd7991c59f06f0c0e1db3c2f16c20a5a2ecbdce19bd784dbecc7b6c49f0ef090100000000ffffffff02f8120200000000001600149fc838e6e41e7395ffa28b6e92b9bbfedeeb767f982119000000000017a91422b56b0b7747e0f82beefdb3500affdccd1a45478702473044022009dbc69e297b70a9c6fdab342e8206fa73dfbb6bce124671423bb980bd813228022074409b20856a869060af1d5bb4054e29209bfd6f6133dfb066cfee274c5402ca01210207961337fce423704b4f8cec14b3c70f0dbbcd2eb9a98065e0338db1799a60d600000000", "vin": [{"txinwitness": ["3044022009dbc69e297b70a9c6fdab342e8206fa73dfbb6bce124671423bb980bd813228022074409b20856a869060af1d5bb4054e29209bfd6f6133dfb066cfee274c5402ca01", "0207961337fce423704b4f8cec14b3c70f0dbbcd2eb9a98065e0338db1799a60d6"], "sequence": 4294967295, "scriptSig": {"hex": "", "asm": ""}, "vout": 1, "txid": "09eff0496c7bccbe4d78bd19cebdeca2a5206cf1c2b31d0e0c6ff0591c99d7ec"}], "txid": "09783e1618e5802781b6a6c8ec0362c978f7c385030bdb56dcccbca1b4dba7ff", "blocktime": 1537872475, "version": 1, "confirmations": 11486, "time": 1537872475, "locktime": 0, "vsize": 142, "size": 223}