{"hash": "09821c60ee724da0345c4da3d00d2ed7172791e5d1e8c60d58982ea8ba6ce901", "blockhash": "0000000000000000000dcc0f55137456b1a82d3642486a52398922ac4d620174", "vout": [{"scriptPubKey": {"reqSigs": 1, "hex": "76a914d243e6abb9a60fbff430b421d2df4b7d59ec186088ac", "addresses": ["1LAnF8h3qMGx3TSwNUHVneBZUEpwE4gu3D"], "asm": "OP_DUP OP_HASH160 d243e6abb9a60fbff430b421d2df4b7d59ec1860 OP_EQUALVERIFY OP_CHECKSIG", "type": "pubkeyhash"}, "value": 0.00076972, "n": 0}, {"scriptPubKey": {"reqSigs": 1, "hex": "76a9143851f34d13937b673a7d24a1950bb5b21ce94af388ac", "addresses": ["168o1kqNquEJeR9vosUB5fw4eAwcVAgh8P"], "asm": "OP_DUP OP_HASH160 3851f34d13937b673a7d24a1950bb5b21ce94af3 OP_EQUALVERIFY OP_CHECKSIG", "type": "pubkeyhash"}, "value": 5.46e-06, "n": 1}, {"scriptPubKey": {"type": "nulldata", "hex": "6a146f6d6e69000000000000001f0000007456a72180", "asm": "OP_RETURN 6f6d6e69000000000000001f0000007456a72180"}, "value": 0.0, "n": 2}], "hex": "010000000282d2824b30472cf81de311a3b68694e84dd41411d4fc2e686034dff2c408ead3020000006b483045022100ad39c7f0545a65155b562843baf905b68b4a382cb27d6a3ba076c9b7048dd002022062f1dbb375917c51659b047b5c03a4a1b17ef36f82649656bc4ea5014e678be0012103b0160750650bafdfc403390ff4e703b139a845683b8b732989d915ebe7fb2572ffffffff56c5c67a6bff662b44da2eb13e4515624bfadbc04a3a94d9532c2e85375356e7000000006b483045022100f117defec1df6a72d8cc9adc0f0f85fc78d4bcd0ccd2a189b633351db1863ba302204ff4c4c77ad566e03667ea2ea9f6bdf318f939bc1e7a3a3f1c01edb29f0fac0a01210271977291b74f1f5f5c42157e8aae804664eaaeccfd097918450d37f28fb94d77ffffffff03ac2c0100000000001976a914d243e6abb9a60fbff430b421d2df4b7d59ec186088ac22020000000000001976a9143851f34d13937b673a7d24a1950bb5b21ce94af388ac0000000000000000166a146f6d6e69000000000000001f0000007456a7218000000000", "vin": [{"sequence": 4294967295, "scriptSig": {"hex": "483045022100ad39c7f0545a65155b562843baf905b68b4a382cb27d6a3ba076c9b7048dd002022062f1dbb375917c51659b047b5c03a4a1b17ef36f82649656bc4ea5014e678be0012103b0160750650bafdfc403390ff4e703b139a845683b8b732989d915ebe7fb2572", "asm": "3045022100ad39c7f0545a65155b562843baf905b68b4a382cb27d6a3ba076c9b7048dd002022062f1dbb375917c51659b047b5c03a4a1b17ef36f82649656bc4ea5014e678be0[ALL] 03b0160750650bafdfc403390ff4e703b139a845683b8b732989d915ebe7fb2572"}, "vout": 2, "txid": "d3ea08c4f2df3460682efcd41114d44de89486b6a311e31df82c47304b82d282"}, {"sequence": 4294967295, "scriptSig": {"hex": "483045022100f117defec1df6a72d8cc9adc0f0f85fc78d4bcd0ccd2a189b633351db1863ba302204ff4c4c77ad566e03667ea2ea9f6bdf318f939bc1e7a3a3f1c01edb29f0fac0a01210271977291b74f1f5f5c42157e8aae804664eaaeccfd097918450d37f28fb94d77", "asm": "3045022100f117defec1df6a72d8cc9adc0f0f85fc78d4bcd0ccd2a189b633351db1863ba302204ff4c4c77ad566e03667ea2ea9f6bdf318f939bc1e7a3a3f1c01edb29f0fac0a[ALL] 0271977291b74f1f5f5c42157e8aae804664eaaeccfd097918450d37f28fb94d77"}, "vout": 0, "txid": "e7565337852e2c53d9943a4ac0dbfa4b6215453eb12eda442b66ff6b7ac6c556"}], "txid": "09821c60ee724da0345c4da3d00d2ed7172791e5d1e8c60d58982ea8ba6ce901", "blocktime": 1537870268, "version": 1, "confirmations": 11516, "time": 1537870268, "locktime": 0, "vsize": 405, "size": 405}