{"hash": "0982e9ec566b00a454bd0fcd99ed9090ef8a330825b751bcc7dc0bc90e89d8db", "blockhash": "00000000000000000018f53835495a110e01622372bf6ae95dc86f2b0ab887b0", "vout": [{"scriptPubKey": {"type": "nulldata", "hex": "6a146f6d6e69000000000000001f0000001a96d9b600", "asm": "OP_RETURN 6f6d6e69000000000000001f0000001a96d9b600"}, "value": 0.0, "n": 0}, {"scriptPubKey": {"reqSigs": 1, "hex": "76a9147a3f2b5597d37e5e3379cc9de7ffd680899af10888ac", "addresses": ["1C9P7UvfXmCE1Dbwz1MAsAHH567EWtsCs8"], "asm": "OP_DUP OP_HASH160 7a3f2b5597d37e5e3379cc9de7ffd680899af108 OP_EQUALVERIFY OP_CHECKSIG", "type": "pubkeyhash"}, "value": 0.00074464, "n": 1}, {"scriptPubKey": {"reqSigs": 1, "hex": "76a9141e5937605900a7c092e8ef725b2ffea9945c364688ac", "addresses": ["13mU9cZPQ57sVpeDHSFUWF93wxDJxSyuNz"], "asm": "OP_DUP OP_HASH160 1e5937605900a7c092e8ef725b2ffea9945c3646 OP_EQUALVERIFY OP_CHECKSIG", "type": "pubkeyhash"}, "value": 5.46e-06, "n": 2}], "hex": "01000000015ce98db9d27cf3aae2c110f470b5e8a20d10029cb5e8bbd55a89b7cf55ad3595020000006a4730440220579ff6776996b090a85f51fdea39c7a23397b2fcdf99b3a30416974f5b708b98022005e189d81fc1e752757fce646155f872c3d6f0523c0a0d02be1217597b1deab10121026d6dbfba37f6d13ab892e4205c34e321e4bba53de75ced605b325c82d8aa4bd1feffffff030000000000000000166a146f6d6e69000000000000001f0000001a96d9b600e0220100000000001976a9147a3f2b5597d37e5e3379cc9de7ffd680899af10888ac22020000000000001976a9141e5937605900a7c092e8ef725b2ffea9945c364688ac0e490800", "vin": [{"sequence": 4294967294, "scriptSig": {"hex": "4730440220579ff6776996b090a85f51fdea39c7a23397b2fcdf99b3a30416974f5b708b98022005e189d81fc1e752757fce646155f872c3d6f0523c0a0d02be1217597b1deab10121026d6dbfba37f6d13ab892e4205c34e321e4bba53de75ced605b325c82d8aa4bd1", "asm": "30440220579ff6776996b090a85f51fdea39c7a23397b2fcdf99b3a30416974f5b708b98022005e189d81fc1e752757fce646155f872c3d6f0523c0a0d02be1217597b1deab1[ALL] 026d6dbfba37f6d13ab892e4205c34e321e4bba53de75ced605b325c82d8aa4bd1"}, "vout": 2, "txid": "9535ad55cfb7895ad5bbe8b59c02100da2e8b570f410c1e2aaf37cd2b98de95c"}], "txid": "0982e9ec566b00a454bd0fcd99ed9090ef8a330825b751bcc7dc0bc90e89d8db", "blocktime": 1537870928, "version": 1, "confirmations": 11512, "time": 1537870928, "locktime": 542990, "vsize": 256, "size": 256}