{"hash": "ad6ac9cc12bd02b8127a9a45ddcc247bf041bf436741c6f24d96b6ce7dcfa5e8", "blockhash": "00000000000000000018f53835495a110e01622372bf6ae95dc86f2b0ab887b0", "vout": [{"scriptPubKey": {"reqSigs": 1, "hex": "76a9141edee9df9df186199e93b242782ddf0601fffeab88ac", "addresses": ["13pEK4YnHiMfnmVmCA7igCSQfZSidQs8DJ"], "asm": "OP_DUP OP_HASH160 1edee9df9df186199e93b242782ddf0601fffeab OP_EQUALVERIFY OP_CHECKSIG", "type": "pubkeyhash"}, "value": 0.35074, "n": 0}, {"scriptPubKey": {"reqSigs": 1, "hex": "a9142350bb5e4e355d3aea87bf1c290d84fb97f6e79487", "addresses": ["34ukHcHHg4ZBa81GqiwzXxenz8aJvgfZaU"], "asm": "OP_HASH160 2350bb5e4e355d3aea87bf1c290d84fb97f6e794 OP_EQUAL", "type": "scripthash"}, "value": 0.28293038, "n": 1}], "hex": "0100000000010294c1fc709ffe0f98ec2f214eb821b7d9cd5494e979c151927c4c33feaa9ea4a80100000017160014faa4b3b25731e30aa61d9ec2b964818e70cd1945ffffffff18ca9cb034591e2c5b8124e084321d2bc045fcf845d54b74d76190e1e31be66f0000000017160014ec9eccd2c3cdd90c16b630fbce3c06fe51cdf410ffffffff02d02f1702000000001976a9141edee9df9df186199e93b242782ddf0601fffeab88acaeb7af010000000017a9142350bb5e4e355d3aea87bf1c290d84fb97f6e794870247304402202578c15f73a1ef45db116b516d177a278f9d7d42c099bd9a05270f669660448b022013a8d1d2cbab872e6446c5a7a045549e66ca183077b5e0fbd2a644ffc1c31be80121022e5ab83639165688c5adcb25bd35791f46f6b8399e4a09f76acb58cd6fec09390247304402200d41ac23516aa4fa4003a705dba08ae1f77c6991e4e1ef3d973e8ddb958ddb61022017d869d601881b87947031c7ae8660657e49cb3234b7319bd8f72fc46372a85d012102a4fe832de1f9118d27c6fc04875e5d11b735307e13bbc82b40d17f95c2d4df9200000000", "vin": [{"txinwitness": ["304402202578c15f73a1ef45db116b516d177a278f9d7d42c099bd9a05270f669660448b022013a8d1d2cbab872e6446c5a7a045549e66ca183077b5e0fbd2a644ffc1c31be801", "022e5ab83639165688c5adcb25bd35791f46f6b8399e4a09f76acb58cd6fec0939"], "sequence": 4294967295, "scriptSig": {"hex": "160014faa4b3b25731e30aa61d9ec2b964818e70cd1945", "asm": "0014faa4b3b25731e30aa61d9ec2b964818e70cd1945"}, "vout": 1, "txid": "a8a49eaafe334c7c9251c179e99454cdd9b721b84e212fec980ffe9f70fcc194"}, {"txinwitness": ["304402200d41ac23516aa4fa4003a705dba08ae1f77c6991e4e1ef3d973e8ddb958ddb61022017d869d601881b87947031c7ae8660657e49cb3234b7319bd8f72fc46372a85d01", "02a4fe832de1f9118d27c6fc04875e5d11b735307e13bbc82b40d17f95c2d4df92"], "sequence": 4294967295, "scriptSig": {"hex": "160014ec9eccd2c3cdd90c16b630fbce3c06fe51cdf410", "asm": "0014ec9eccd2c3cdd90c16b630fbce3c06fe51cdf410"}, "vout": 0, "txid": "6fe61be3e19061d7744bd545f8fc45c02b1d3284e024815b2c1e5934b09cca18"}], "txid": "09845132287865441ce86ab8273e1000eb4b513867f3f7bf6c6cda404556a874", "blocktime": 1537870928, "version": 1, "confirmations": 11512, "time": 1537870928, "locktime": 0, "vsize": 258, "size": 420}