{"hash": "098d67961f80c0642d4f544440b1c77b848f8217fd2b9034acf8dc79e088c254", "blockhash": "0000000000000000000baef3f32e3676a92c3b2e5da21b426e4f302fc371ce76", "vout": [{"scriptPubKey": {"reqSigs": 1, "hex": "76a91434f7bb40a122415f7b46f29c5627a8afe39959d088ac", "addresses": ["15q4ufBxDPZZRf236reNbEttqPupMPVRYM"], "asm": "OP_DUP OP_HASH160 34f7bb40a122415f7b46f29c5627a8afe39959d0 OP_EQUALVERIFY OP_CHECKSIG", "type": "pubkeyhash"}, "value": 0.09377346, "n": 0}, {"scriptPubKey": {"reqSigs": 1, "hex": "76a914e15bfd50ebeebf159a91d0b61dbc0176cb90cd7f88ac", "addresses": ["1MYbEhvCNGG71dmGcGd5JfmXjoQq86M54z"], "asm": "OP_DUP OP_HASH160 e15bfd50ebeebf159a91d0b61dbc0176cb90cd7f OP_EQUALVERIFY OP_CHECKSIG", "type": "pubkeyhash"}, "value": 0.06719425, "n": 1}], "hex": "0100000002b350d4fed73736bb73d680d83d3ef29c66097029737bd2728a5840172c29763d000000006a47304402203d493052d0e8a9e961595efa1085923d1a957ab0f18760b8d3994a5ec9f6f38702200392b8fd6b9b54287e659d667fcec95b43443c709c79024d0b511d49a0bba1ae0121030a4fd23f74e184119765dcc7217363f706affac5d72e4f13c123a1c82439f2edffffffff1d805a927dac57519077729b0fe398c76eac744bd4459ee305e0a7e27dfad77d000000006b483045022100cc752cd31efb57f3155b849790e0f8046ab2d4b0e3c58fa94dc546e90438349202205b0f1e3557d2884c31c29e4eb7d739f585ecf2c3ffe12c2a7ac68f1055336c0b012102641908cbbfad5187720b6b695581aaa34a1d1e5d1ab41a03bf18f62efe216d01ffffffff0242168f00000000001976a91434f7bb40a122415f7b46f29c5627a8afe39959d088acc1876600000000001976a914e15bfd50ebeebf159a91d0b61dbc0176cb90cd7f88ac00000000", "vin": [{"sequence": 4294967295, "scriptSig": {"hex": "47304402203d493052d0e8a9e961595efa1085923d1a957ab0f18760b8d3994a5ec9f6f38702200392b8fd6b9b54287e659d667fcec95b43443c709c79024d0b511d49a0bba1ae0121030a4fd23f74e184119765dcc7217363f706affac5d72e4f13c123a1c82439f2ed", "asm": "304402203d493052d0e8a9e961595efa1085923d1a957ab0f18760b8d3994a5ec9f6f38702200392b8fd6b9b54287e659d667fcec95b43443c709c79024d0b511d49a0bba1ae[ALL] 030a4fd23f74e184119765dcc7217363f706affac5d72e4f13c123a1c82439f2ed"}, "vout": 0, "txid": "3d76292c1740588a72d27b73297009669cf23e3dd880d673bb3637d7fed450b3"}, {"sequence": 4294967295, "scriptSig": {"hex": "483045022100cc752cd31efb57f3155b849790e0f8046ab2d4b0e3c58fa94dc546e90438349202205b0f1e3557d2884c31c29e4eb7d739f585ecf2c3ffe12c2a7ac68f1055336c0b012102641908cbbfad5187720b6b695581aaa34a1d1e5d1ab41a03bf18f62efe216d01", "asm": "3045022100cc752cd31efb57f3155b849790e0f8046ab2d4b0e3c58fa94dc546e90438349202205b0f1e3557d2884c31c29e4eb7d739f585ecf2c3ffe12c2a7ac68f1055336c0b[ALL] 02641908cbbfad5187720b6b695581aaa34a1d1e5d1ab41a03bf18f62efe216d01"}, "vout": 0, "txid": "7dd7fa7de2a7e005e39e45d44b74ac6ec798e30f9b7277905157ac7d925a801d"}], "txid": "098d67961f80c0642d4f544440b1c77b848f8217fd2b9034acf8dc79e088c254", "blocktime": 1537876114, "version": 1, "confirmations": 11460, "time": 1537876114, "locktime": 0, "vsize": 373, "size": 373}