{"hash": "e29085c1ab7a6b6840ec90479e4223c91111b7858b4325317a714e5be2b3fa43", "blockhash": "0000000000000000001f76057863aec43deb6fa401d9628bb513d65a8098bfab", "vout": [{"scriptPubKey": {"reqSigs": 1, "hex": "76a9145573730d05878b050160a924dde3f72ed9f436f888ac", "addresses": ["18npjsZXPBE2nNt2qZtrA9PcjbmSqsktwX"], "asm": "OP_DUP OP_HASH160 5573730d05878b050160a924dde3f72ed9f436f8 OP_EQUALVERIFY OP_CHECKSIG", "type": "pubkeyhash"}, "value": 0.01, "n": 0}, {"scriptPubKey": {"reqSigs": 1, "hex": "76a914c10d6da4128744113867f3b4059e97eabb6adb3088ac", "addresses": ["1JbmW38ywJNcfgaQNmEijQGDHYGj6kywN4"], "asm": "OP_DUP OP_HASH160 c10d6da4128744113867f3b4059e97eabb6adb30 OP_EQUALVERIFY OP_CHECKSIG", "type": "pubkeyhash"}, "value": 0.035, "n": 1}], "hex": "0100000000010125ea8e870ef17cd06ef32d1d0f9f7fa532bf7d18e73832709098fad9fe4b83c604000000171600148acb9bb43d22373d430bdb86d390e1ec8fde59defdffffff0240420f00000000001976a9145573730d05878b050160a924dde3f72ed9f436f888ace0673500000000001976a914c10d6da4128744113867f3b4059e97eabb6adb3088ac02483045022100adf7c273686049a2aaa28ef3ce9ced0fb176a7a6d4433c2754cf292932c0340302203b9283c7d995ccbc0b684694cd20a851a23f7fc11dd6ce109c04a512b8101ead012103d91581b2c13174b001d5304fd3fb11618facc90c03561a2fc15cab4b1727345a14490800", "vin": [{"txinwitness": ["3045022100adf7c273686049a2aaa28ef3ce9ced0fb176a7a6d4433c2754cf292932c0340302203b9283c7d995ccbc0b684694cd20a851a23f7fc11dd6ce109c04a512b8101ead01", "03d91581b2c13174b001d5304fd3fb11618facc90c03561a2fc15cab4b1727345a"], "sequence": 4294967293, "scriptSig": {"hex": "1600148acb9bb43d22373d430bdb86d390e1ec8fde59de", "asm": "00148acb9bb43d22373d430bdb86d390e1ec8fde59de"}, "vout": 4, "txid": "c6834bfed9fa9890703238e7187dbf32a57f9f0f1d2df36ed07cf10e878eea25"}], "txid": "098e87fd8d99b4f64944f8a40126a40618d1d567047ac342507aae400e1e2f99", "blocktime": 1537873891, "version": 1, "confirmations": 11479, "time": 1537873891, "locktime": 542996, "vsize": 170, "size": 252}