{"hash": "098f2c36a465d4b504839ce02adf859981d4f41400512c63250ff8d3ba906794", "blockhash": "0000000000000000000e13cef7c366c0283d82e591d1acd082e914b08063cdf1", "vout": [{"scriptPubKey": {"reqSigs": 1, "hex": "a914a8cc8bfc158b76d23f85261336c2857785d7a26187", "addresses": ["3H5YUw5MCYMyfjdzv1BmDcjtrqUBSok3e4"], "asm": "OP_HASH160 a8cc8bfc158b76d23f85261336c2857785d7a261 OP_EQUAL", "type": "scripthash"}, "value": 0.13, "n": 0}], "hex": "0200000001d45876f50a82041a12da48833a6688a1c13315756b175d5424134d87e35aa494000000006b4830450221008e13804a4ef12cf13e80e9be0e8e9d302873d5070d160d042ae1fc80449189900220720c2277336eaf72d4603cc288c988d8cf27f48171f9fd32fed4103a808834f501210299b7cedec09182f5248abeb32a12bcddc128dd7cd4615ea4d0d62ab22fe58a89ffffffff01405dc6000000000017a914a8cc8bfc158b76d23f85261336c2857785d7a2618700000000", "vin": [{"sequence": 4294967295, "scriptSig": {"hex": "4830450221008e13804a4ef12cf13e80e9be0e8e9d302873d5070d160d042ae1fc80449189900220720c2277336eaf72d4603cc288c988d8cf27f48171f9fd32fed4103a808834f501210299b7cedec09182f5248abeb32a12bcddc128dd7cd4615ea4d0d62ab22fe58a89", "asm": "30450221008e13804a4ef12cf13e80e9be0e8e9d302873d5070d160d042ae1fc80449189900220720c2277336eaf72d4603cc288c988d8cf27f48171f9fd32fed4103a808834f5[ALL] 0299b7cedec09182f5248abeb32a12bcddc128dd7cd4615ea4d0d62ab22fe58a89"}, "vout": 0, "txid": "94a45ae3874d1324545d176b751533c1a188663a8348da121a04820af57658d4"}], "txid": "098f2c36a465d4b504839ce02adf859981d4f41400512c63250ff8d3ba906794", "blocktime": 1537871767, "version": 2, "confirmations": 11490, "time": 1537871767, "locktime": 0, "vsize": 190, "size": 190}