{"hash": "47111e1f2fdd047b667879f467324719a35fbddaa725cf851de9bbda68cc2754", "blockhash": "0000000000000000001f0ddff1eddb255c1121bcd4da4f1bc9a0da00cae72433", "vout": [{"scriptPubKey": {"reqSigs": 1, "hex": "76a914e2549d01bf352ad8c786df0a24ae1f137815a18688ac", "addresses": ["1Mdj5PareSnVPAtYBhxkzaYwkxSF4wXzno"], "asm": "OP_DUP OP_HASH160 e2549d01bf352ad8c786df0a24ae1f137815a186 OP_EQUALVERIFY OP_CHECKSIG", "type": "pubkeyhash"}, "value": 0.0001859, "n": 0}, {"scriptPubKey": {"reqSigs": 1, "hex": "a9140be7846be16b05bea00dbec2fcd7e045a793cb1787", "addresses": ["32mxhko5mJHfkbkDPpz7SfdJwEJi21P1WK"], "asm": "OP_HASH160 0be7846be16b05bea00dbec2fcd7e045a793cb17 OP_EQUAL", "type": "scripthash"}, "value": 0.19318009, "n": 1}], "hex": "01000000000101436c91bd22f93f0f6d11f6c5360191dc2e26707db8ab9458f76ed15e70a46f3201000000232200202c66ece6da72bcbfeadf83a91236f4891c13e14d8ecebdcaa81666fc1aa73a31ffffffff029e480000000000001976a914e2549d01bf352ad8c786df0a24ae1f137815a18688acf9c426010000000017a9140be7846be16b05bea00dbec2fcd7e045a793cb17870400473044022043257721f9a8abbf7ced1d7fe1734ec8d100a4f6e284f1802907a39909e0f8dd02206fe7772c447b8b8fc53b10a624508697d7dafbc77db76ef5214a7063d59cf49801483045022100fd0fd0a261f2ec6ada72d4b988ec14b9cc5cda305e44fe8ca23a4633a2c55326022009cd2fe5bf14d886b8a3a42ae008881454987f113ff45ee41eba71db02d773aa01475221029e6fbb942d34a473faaa5557c1bfe08d72102f0b9754ad140fd369d7a3ba3cdc2103871fc2ca08e6950b38867e8e6a0e94ee625223d3aa0df5c65f414c6d784467e252ae00000000", "vin": [{"txinwitness": ["", "3044022043257721f9a8abbf7ced1d7fe1734ec8d100a4f6e284f1802907a39909e0f8dd02206fe7772c447b8b8fc53b10a624508697d7dafbc77db76ef5214a7063d59cf49801", "3045022100fd0fd0a261f2ec6ada72d4b988ec14b9cc5cda305e44fe8ca23a4633a2c55326022009cd2fe5bf14d886b8a3a42ae008881454987f113ff45ee41eba71db02d773aa01", "5221029e6fbb942d34a473faaa5557c1bfe08d72102f0b9754ad140fd369d7a3ba3cdc2103871fc2ca08e6950b38867e8e6a0e94ee625223d3aa0df5c65f414c6d784467e252ae"], "sequence": 4294967295, "scriptSig": {"hex": "2200202c66ece6da72bcbfeadf83a91236f4891c13e14d8ecebdcaa81666fc1aa73a31", "asm": "00202c66ece6da72bcbfeadf83a91236f4891c13e14d8ecebdcaa81666fc1aa73a31"}, "vout": 1, "txid": "326fa4705ed16ef75894abb87d70262edc910136c5f6116d0f3ff922bd916c43"}], "txid": "099069205711352cba16541287561abb2c978585aa4a1e5c9d452e1ecf6aeef4", "blocktime": 1537872018, "version": 1, "confirmations": 11489, "time": 1537872018, "locktime": 0, "vsize": 208, "size": 373}