{"hash": "c0d9c84d7645567aa43143d5d234cf083ec41aea17517123263eca4d944c08ad", "blockhash": "0000000000000000000e13cef7c366c0283d82e591d1acd082e914b08063cdf1", "vout": [{"scriptPubKey": {"reqSigs": 1, "hex": "a914e04dc6b2fc233f4cdee775ddbb8c35625351dc3787", "addresses": ["3N92TVm9kobKSZ2UQvxcxYLResCoF81Wdu"], "asm": "OP_HASH160 e04dc6b2fc233f4cdee775ddbb8c35625351dc37 OP_EQUAL", "type": "scripthash"}, "value": 0.01000006, "n": 0}, {"scriptPubKey": {"reqSigs": 1, "hex": "a914ad1882a6f19174775a7d0190832dd3e76df34f7387", "addresses": ["3HUGBjssBipoTL51XnxoQPR6zwV7tXAHCj"], "asm": "OP_HASH160 ad1882a6f19174775a7d0190832dd3e76df34f73 OP_EQUAL", "type": "scripthash"}, "value": 0.00575643, "n": 1}], "hex": "020000000001050d8f4d79b58b1e29422ea844cbe087e936ec763a3e753939a042c2fc3d746b420900000017160014d8e6f09deeba8acc7ac5ccb8be0d7403de7804affeffffff30971d0082d13a2d13934b4367bbe702c1c9c668d46a030b19ae1c917540eb990500000017160014c845d0d4553e71a887bf7992f8140e3a15a173cafeffffff539d9cfa79a6d7bad9ba637e9a1cf6aab9f6ab2c06ca9a13e3c21e8196534f380100000017160014dccbe3d8c22b82aa716c472f319ef842deb4ba95feffffff9a6cb31758cd965012ac6331e450cb9d4641bd00aacb6063459b7886c64e56630400000017160014a126c2a2f8699936e0339003d708bf5941b4a756feffffffcaf5c65e29f2c288ff2491d3e5dd7689a964cda4b966db1e9f7776562ec5991f0100000017160014da721f07bd850f030ae87bbc76abbf6bc2c60eb3feffffff0246420f000000000017a914e04dc6b2fc233f4cdee775ddbb8c35625351dc37879bc808000000000017a914ad1882a6f19174775a7d0190832dd3e76df34f73870247304402203dfabc1854a1049eba7e65339d21ecdf53d3a7928fc5d7718f7907b9dde764750220149f367023ba79db9f25c8e122bf7c6d95d7d3a0bb2135d193a7caecaa86de1e0121022f0c13e300db43c5dfdc60d617fa115378844b5ee0834f5c7d8e0b1fb1445dc002483045022100f2d94b938cb9e423cc3d363b8a6c55df3d13e6d59cc2cb3c38015bc8b847c44e0220757805c49e417b3aa6f2d9f912b02c8df290c73f1f1db7cbffcc79f5184600ef012103f1edddc1fac71b3dd845b4c516cc142965fe83cb60ab0f44f8d389114056115802483045022100acbaf27dcaaca0e1f310f55f4537094ea6276e1ee4f644294e2d85e406c0d2ac0220092dd97968334d20a4096ad7d57992b09d2781041cd925bc61c91ffaff8e206e0121038875023bf1359b5e4747056e39ce0a444af497405a2004fc74b211b196cef86002483045022100b72ad58c377add4ff866ed31bf8b234cb4e5f5c60602303310def3ab8017607102206e38eb437437260094b6a84ab9e15ef37dab4cb5c9bc874218ecaf1a77b483630121039f485a71436099032b9d8b3e4d2546075d000087ec33a39530ee163b7e100dd102473044022006f8ba14dd5f6a5812cb5a0309bb1a21601931c4be45bc2894bc6d13d38d5537022058b74b0d21f8217837adf53df28ae54072f76d132f39ee0973a547aef0126254012102446f62cecb3e48bd875a21584c6d6fac4759dbbbabc46ebc4d8310bd7eb1131e10490800", "vin": [{"txinwitness": ["304402203dfabc1854a1049eba7e65339d21ecdf53d3a7928fc5d7718f7907b9dde764750220149f367023ba79db9f25c8e122bf7c6d95d7d3a0bb2135d193a7caecaa86de1e01", "022f0c13e300db43c5dfdc60d617fa115378844b5ee0834f5c7d8e0b1fb1445dc0"], "sequence": 4294967294, "scriptSig": {"hex": "160014d8e6f09deeba8acc7ac5ccb8be0d7403de7804af", "asm": "0014d8e6f09deeba8acc7ac5ccb8be0d7403de7804af"}, "vout": 9, "txid": "426b743dfcc242a03939753e3a76ec36e987e0cb44a82e42291e8bb5794d8f0d"}, {"txinwitness": ["3045022100f2d94b938cb9e423cc3d363b8a6c55df3d13e6d59cc2cb3c38015bc8b847c44e0220757805c49e417b3aa6f2d9f912b02c8df290c73f1f1db7cbffcc79f5184600ef01", "03f1edddc1fac71b3dd845b4c516cc142965fe83cb60ab0f44f8d3891140561158"], "sequence": 4294967294, "scriptSig": {"hex": "160014c845d0d4553e71a887bf7992f8140e3a15a173ca", "asm": "0014c845d0d4553e71a887bf7992f8140e3a15a173ca"}, "vout": 5, "txid": "99eb4075911cae190b036ad468c6c9c102e7bb67434b93132d3ad182001d9730"}, {"txinwitness": ["3045022100acbaf27dcaaca0e1f310f55f4537094ea6276e1ee4f644294e2d85e406c0d2ac0220092dd97968334d20a4096ad7d57992b09d2781041cd925bc61c91ffaff8e206e01", "038875023bf1359b5e4747056e39ce0a444af497405a2004fc74b211b196cef860"], "sequence": 4294967294, "scriptSig": {"hex": "160014dccbe3d8c22b82aa716c472f319ef842deb4ba95", "asm": "0014dccbe3d8c22b82aa716c472f319ef842deb4ba95"}, "vout": 1, "txid": "384f5396811ec2e3139aca062cabf6b9aaf61c9a7e63bad9bad7a679fa9c9d53"}, {"txinwitness": ["3045022100b72ad58c377add4ff866ed31bf8b234cb4e5f5c60602303310def3ab8017607102206e38eb437437260094b6a84ab9e15ef37dab4cb5c9bc874218ecaf1a77b4836301", "039f485a71436099032b9d8b3e4d2546075d000087ec33a39530ee163b7e100dd1"], "sequence": 4294967294, "scriptSig": {"hex": "160014a126c2a2f8699936e0339003d708bf5941b4a756", "asm": "0014a126c2a2f8699936e0339003d708bf5941b4a756"}, "vout": 4, "txid": "63564ec686789b456360cbaa00bd41469dcb50e43163ac125096cd5817b36c9a"}, {"txinwitness": ["3044022006f8ba14dd5f6a5812cb5a0309bb1a21601931c4be45bc2894bc6d13d38d5537022058b74b0d21f8217837adf53df28ae54072f76d132f39ee0973a547aef012625401", "02446f62cecb3e48bd875a21584c6d6fac4759dbbbabc46ebc4d8310bd7eb1131e"], "sequence": 4294967294, "scriptSig": {"hex": "160014da721f07bd850f030ae87bbc76abbf6bc2c60eb3", "asm": "0014da721f07bd850f030ae87bbc76abbf6bc2c60eb3"}, "vout": 1, "txid": "1f99c52e5676779f1edb66b9a4cd64a98976dde5d39124ff88c2f2295ec6f5ca"}], "txid": "0990578db5fd681e1a1cd3732d410d8032829d00172e6ab851c4b4c6d8ec2666", "blocktime": 1537871767, "version": 2, "confirmations": 11495, "time": 1537871767, "locktime": 542992, "vsize": 529, "size": 934}