{"hash": "099136858dae6f3966d9e39b99f365914379ee9c1e5de6e9a54562ceecf21140", "blockhash": "0000000000000000001cda96e906b7601b7a6fb1a3b62bca570a9e5d8f4b3de1", "vout": [{"scriptPubKey": {"reqSigs": 1, "hex": "76a914b2b1c5f172b0cb720dc607b77c10a50e50676d4888ac", "addresses": ["1HHrF3dcoYytYBk1KNN8k3xy1HvnccUjDz"], "asm": "OP_DUP OP_HASH160 b2b1c5f172b0cb720dc607b77c10a50e50676d48 OP_EQUALVERIFY OP_CHECKSIG", "type": "pubkeyhash"}, "value": 0.00132504, "n": 0}, {"scriptPubKey": {"type": "nulldata", "hex": "6a4c50000077d500017b7451d3863b8d420c7093555b23cc0f42c2fc38c5e5bf9ae76da98a211a5bd994bab65537662fb9fa51cd26c93f5baa151f0612d711973bc782bc9a9526289ac0f6612cd74e33776ee4", "asm": "OP_RETURN 000077d500017b7451d3863b8d420c7093555b23cc0f42c2fc38c5e5bf9ae76da98a211a5bd994bab65537662fb9fa51cd26c93f5baa151f0612d711973bc782bc9a9526289ac0f6612cd74e33776ee4"}, "value": 0.0, "n": 1}], "hex": "01000000011bf81f2a01b36932de872e704dfba2131d7241cf0fc76585897d11b35d942e11010000006a47304402201a12966c531dc2abf17168d83ee3095faa5ede24a23235992cd78536c0fcc5d60220043379a83062ef7fe754ffa4b6b401047521175b0f04be6999ea8a6a405c0037012102febc6f3f5d91400ca5f39e97b06b5a7ff1b6c8b0b63b524e5b7658489bb3c270ffffffff0298050200000000001976a914b2b1c5f172b0cb720dc607b77c10a50e50676d4888ac0000000000000000536a4c50000077d500017b7451d3863b8d420c7093555b23cc0f42c2fc38c5e5bf9ae76da98a211a5bd994bab65537662fb9fa51cd26c93f5baa151f0612d711973bc782bc9a9526289ac0f6612cd74e33776ee400000000", "vin": [{"sequence": 4294967295, "scriptSig": {"hex": "47304402201a12966c531dc2abf17168d83ee3095faa5ede24a23235992cd78536c0fcc5d60220043379a83062ef7fe754ffa4b6b401047521175b0f04be6999ea8a6a405c0037012102febc6f3f5d91400ca5f39e97b06b5a7ff1b6c8b0b63b524e5b7658489bb3c270", "asm": "304402201a12966c531dc2abf17168d83ee3095faa5ede24a23235992cd78536c0fcc5d60220043379a83062ef7fe754ffa4b6b401047521175b0f04be6999ea8a6a405c0037[ALL] 02febc6f3f5d91400ca5f39e97b06b5a7ff1b6c8b0b63b524e5b7658489bb3c270"}, "vout": 1, "txid": "112e945db3117d898565c70fcf41721d13a2fb4d702e87de3269b3012a1ff81b"}], "txid": "099136858dae6f3966d9e39b99f365914379ee9c1e5de6e9a54562ceecf21140", "blocktime": 1537873282, "version": 1, "confirmations": 11484, "time": 1537873282, "locktime": 0, "vsize": 283, "size": 283}