{"hash": "0993416620ee36eff014d4dfdb5ef586b4d260b2c0ae58b0eb3025253c9223ea", "blockhash": "0000000000000000000dcc0f55137456b1a82d3642486a52398922ac4d620174", "vout": [{"scriptPubKey": {"reqSigs": 1, "hex": "76a91478eecbbf62a9e84316bd3d7aeef922b5f634726888ac", "addresses": ["1C2S9rEgu3u8GiznN41DnXS6eeEVCLMtoL"], "asm": "OP_DUP OP_HASH160 78eecbbf62a9e84316bd3d7aeef922b5f6347268 OP_EQUALVERIFY OP_CHECKSIG", "type": "pubkeyhash"}, "value": 0.0064752, "n": 0}, {"scriptPubKey": {"type": "nulldata", "hex": "6a4c500000777400012aa17d2e0f5049a186e3222b86aeaeacb577c031fc3a016b46dc7dc7d096e02a39400554f6e38461c97c4f8427f65baa092c06144f1be050ace31d100759d4ba30d2c37bb011d97e02cf", "asm": "OP_RETURN 0000777400012aa17d2e0f5049a186e3222b86aeaeacb577c031fc3a016b46dc7dc7d096e02a39400554f6e38461c97c4f8427f65baa092c06144f1be050ace31d100759d4ba30d2c37bb011d97e02cf"}, "value": 0.0, "n": 1}], "hex": "010000000129568a1a9f2025517262e25ce0f46e01e81b7fd1622dc6e8e9dd3201281b7402010000006a473044022067a1ccb2d8483cf9030a06679edab99ec384c28a87e52c51c79948614f46229202206000adc253ad5369b1e9490ee2b9c71fb5746b9563c973f05d30ffe63eabbaa4012102805c0039fc47444b002330a2ade63aff53b18223efc00312441104cfa6f4dfd9ffffffff0260e10900000000001976a91478eecbbf62a9e84316bd3d7aeef922b5f634726888ac0000000000000000536a4c500000777400012aa17d2e0f5049a186e3222b86aeaeacb577c031fc3a016b46dc7dc7d096e02a39400554f6e38461c97c4f8427f65baa092c06144f1be050ace31d100759d4ba30d2c37bb011d97e02cf00000000", "vin": [{"sequence": 4294967295, "scriptSig": {"hex": "473044022067a1ccb2d8483cf9030a06679edab99ec384c28a87e52c51c79948614f46229202206000adc253ad5369b1e9490ee2b9c71fb5746b9563c973f05d30ffe63eabbaa4012102805c0039fc47444b002330a2ade63aff53b18223efc00312441104cfa6f4dfd9", "asm": "3044022067a1ccb2d8483cf9030a06679edab99ec384c28a87e52c51c79948614f46229202206000adc253ad5369b1e9490ee2b9c71fb5746b9563c973f05d30ffe63eabbaa4[ALL] 02805c0039fc47444b002330a2ade63aff53b18223efc00312441104cfa6f4dfd9"}, "vout": 1, "txid": "02741b280132dde9e8c62d62d17f1be8016ef4e05ce262725125209f1a8a5629"}], "txid": "0993416620ee36eff014d4dfdb5ef586b4d260b2c0ae58b0eb3025253c9223ea", "blocktime": 1537870268, "version": 1, "confirmations": 11518, "time": 1537870268, "locktime": 0, "vsize": 283, "size": 283}