{"hash": "ea08040dd166b703ac1e92a9163ad30b3131e172b7c050b8338cd24dc9215f64", "blockhash": "0000000000000000001e0dab787dd257d1dbfcb92a98c2207d5e1078be1f4165", "vout": [{"scriptPubKey": {"reqSigs": 1, "hex": "a914c90812d8a7babcccc11107d6a0ec4b5dff95ce7787", "addresses": ["3L1yR4ozJGfBnJ1PCELguAw9P3eKozddmr"], "asm": "OP_HASH160 c90812d8a7babcccc11107d6a0ec4b5dff95ce77 OP_EQUAL", "type": "scripthash"}, "value": 1.37975716, "n": 0}, {"scriptPubKey": {"reqSigs": 1, "hex": "a9145ebf77f986014e6e7c1b4603bb3fed3a8dc0729287", "addresses": ["3AKzp3uZFm4zbMcxKsLpNcTAfK2MftnevP"], "asm": "OP_HASH160 5ebf77f986014e6e7c1b4603bb3fed3a8dc07292 OP_EQUAL", "type": "scripthash"}, "value": 11.2201265, "n": 1}], "hex": "020000000001019a97ffd187cafb0dae6cffb89fc14ef4545739f38874fc29a72635e0efea447e010000001716001471abf0df32649ca2afd865c2b9a8b1fcca77df96fdffffff02a45739080000000017a914c90812d8a7babcccc11107d6a0ec4b5dff95ce7787ea8de0420000000017a9145ebf77f986014e6e7c1b4603bb3fed3a8dc072928702483045022100d56b7b071830822a02a7ecf836e8d3586bdc8d045851a1f01156333d11de4ad70220248e31ae5a78c5bcdd8d0ad599703aea0c366eddb4710c8e2fb697b7e19de57a0121036b4719b39b1990e58c19db4fb33e872cb885856f34098612116bf3e5a448cd2d07490800", "vin": [{"txinwitness": ["3045022100d56b7b071830822a02a7ecf836e8d3586bdc8d045851a1f01156333d11de4ad70220248e31ae5a78c5bcdd8d0ad599703aea0c366eddb4710c8e2fb697b7e19de57a01", "036b4719b39b1990e58c19db4fb33e872cb885856f34098612116bf3e5a448cd2d"], "sequence": 4294967293, "scriptSig": {"hex": "16001471abf0df32649ca2afd865c2b9a8b1fcca77df96", "asm": "001471abf0df32649ca2afd865c2b9a8b1fcca77df96"}, "vout": 1, "txid": "7e44eaefe03526a729fc7488f3395754f44ec19fb8ff6cae0dfbca87d1ff979a"}], "txid": "0998bd5d9f472eaf65a8ea486c1ff96bee52aee3802fefaf6e2e2a166eb9491e", "blocktime": 1537872475, "version": 2, "confirmations": 11486, "time": 1537872475, "locktime": 542983, "vsize": 166, "size": 248}