{"hash": "099b9c816b9912c41db26f7f38be1cf961fced39c9a43724ec6aafb7a450403f", "blockhash": "0000000000000000000baef3f32e3676a92c3b2e5da21b426e4f302fc371ce76", "vout": [{"scriptPubKey": {"reqSigs": 1, "hex": "a9145d26c2905f1c2caadddd0496bccfc4765dc6c97687", "addresses": ["3ABZCUd7QuNGWBAPWuXgqE7YjkqTp14sw1"], "asm": "OP_HASH160 5d26c2905f1c2caadddd0496bccfc4765dc6c976 OP_EQUAL", "type": "scripthash"}, "value": 0.0015, "n": 0}, {"scriptPubKey": {"reqSigs": 1, "hex": "76a914c3224ee834c2d3a16cbd4c3be3504b7c7b0e5e6388ac", "addresses": ["1JnmsBhxkxhatvjbeM1sxfv97gLUc8jrD7"], "asm": "OP_DUP OP_HASH160 c3224ee834c2d3a16cbd4c3be3504b7c7b0e5e63 OP_EQUALVERIFY OP_CHECKSIG", "type": "pubkeyhash"}, "value": 0.00142531, "n": 1}], "hex": "0100000001fe17a1f17cb87f382f6d15dc654d869c0acfa8c0d92285465238c518c0fadfca010000006b483045022100f080f8cee6a4d6483d3f41a550369bcb31f44119c6380d34ceb99d5845551aa902200f0ec07ec8035c594ac76b4b787db6d086c6eb92ee167a71072eb992fcb8fc6401210215fd5f5c06db5e373fc4ea1ea9abb911c8659001288668cf1101db905e18133cffffffff02f04902000000000017a9145d26c2905f1c2caadddd0496bccfc4765dc6c97687c32c0200000000001976a914c3224ee834c2d3a16cbd4c3be3504b7c7b0e5e6388ac00000000", "vin": [{"sequence": 4294967295, "scriptSig": {"hex": "483045022100f080f8cee6a4d6483d3f41a550369bcb31f44119c6380d34ceb99d5845551aa902200f0ec07ec8035c594ac76b4b787db6d086c6eb92ee167a71072eb992fcb8fc6401210215fd5f5c06db5e373fc4ea1ea9abb911c8659001288668cf1101db905e18133c", "asm": "3045022100f080f8cee6a4d6483d3f41a550369bcb31f44119c6380d34ceb99d5845551aa902200f0ec07ec8035c594ac76b4b787db6d086c6eb92ee167a71072eb992fcb8fc64[ALL] 0215fd5f5c06db5e373fc4ea1ea9abb911c8659001288668cf1101db905e18133c"}, "vout": 1, "txid": "cadffac018c53852468522d9c0a8cf0a9c864d65dc156d2f387fb87cf1a117fe"}], "txid": "099b9c816b9912c41db26f7f38be1cf961fced39c9a43724ec6aafb7a450403f", "blocktime": 1537876114, "version": 1, "confirmations": 11459, "time": 1537876114, "locktime": 0, "vsize": 224, "size": 224}