{"hash": "5e70a244d9623adbee8b2a3df09c6e70d560d96b10fe20478efda554cce6a1c0", "blockhash": "0000000000000000000e13cef7c366c0283d82e591d1acd082e914b08063cdf1", "vout": [{"scriptPubKey": {"reqSigs": 1, "hex": "a914764c1c3ef6b5b02dd5b854d4adfd4e1245d58a7b87", "addresses": ["3CUWqREMhFjyYiRnZkKNKhGKGvUN5qrNqL"], "asm": "OP_HASH160 764c1c3ef6b5b02dd5b854d4adfd4e1245d58a7b OP_EQUAL", "type": "scripthash"}, "value": 0.0205, "n": 0}, {"scriptPubKey": {"reqSigs": 1, "hex": "a914d5b7022166c4689758fdecf4b97e9501495ed0f587", "addresses": ["3MB363YtGUnSc5koHwAPCxXC6CCkBmUbmc"], "asm": "OP_HASH160 d5b7022166c4689758fdecf4b97e9501495ed0f5 OP_EQUAL", "type": "scripthash"}, "value": 0.00981378, "n": 1}], "hex": "020000000001034dd87cadab1dc6b707474aff1488010dc72626c199cb0164dba2121850208db30100000017160014761d8386e0eff9f09b40f22334bc593e3070fcdffeffffffa9e70f1f75240e70abe5acd90a79017f30bddabeb8127e1374947cbed625b5c7000000006a47304402207f418dfca2bc442242ac8c836890afb35c5c45f9e1379e70db13f993f418ec3202202562afcb943c15d40a10a8e32cb322a386db96511ac79abe2bbebf9094ed6aae012102c6a2bd93b872c476ecbeee39efdfd1d1cf3bb748f8aa1932ddddc5d432ba5e3bfeffffffebb94607f3457a0d93b72b5568a4befc9908a592bf69398fd5e34756ef25ee4b2e0000006b483045022100a19ebcf9d592aa5e36867a05da2bbdabc0f38febfda3011195d3b73eb036fe0a02200163ece94c6f7ba56fecc9272cd604a372e7b98931b400f50e9c9cb04d14c3cf012102645728a2811a4a898ae96266fa2fd495f922e041a810d5c736f3c884cc61d576feffffff02d0471f000000000017a914764c1c3ef6b5b02dd5b854d4adfd4e1245d58a7b8782f90e000000000017a914d5b7022166c4689758fdecf4b97e9501495ed0f58702473044022019141ac6e94bd1d115a1ac5921e877436c3cb62dc17fa2da76c903a7a150505102203bcb875cc33d35aa8f541328f08cdc5a79ec44fad430b598e2f6daa4a8e4cb7c012103d54d69484e4f9a80bc921fd86d699d26d46d04b78f087c9a7bfd336b7e0070560000f5480800", "vin": [{"txinwitness": ["3044022019141ac6e94bd1d115a1ac5921e877436c3cb62dc17fa2da76c903a7a150505102203bcb875cc33d35aa8f541328f08cdc5a79ec44fad430b598e2f6daa4a8e4cb7c01", "03d54d69484e4f9a80bc921fd86d699d26d46d04b78f087c9a7bfd336b7e007056"], "sequence": 4294967294, "scriptSig": {"hex": "160014761d8386e0eff9f09b40f22334bc593e3070fcdf", "asm": "0014761d8386e0eff9f09b40f22334bc593e3070fcdf"}, "vout": 1, "txid": "b38d20501812a2db6401cb99c12626c70d018814ff4a4707b7c61dabad7cd84d"}, {"sequence": 4294967294, "scriptSig": {"hex": "47304402207f418dfca2bc442242ac8c836890afb35c5c45f9e1379e70db13f993f418ec3202202562afcb943c15d40a10a8e32cb322a386db96511ac79abe2bbebf9094ed6aae012102c6a2bd93b872c476ecbeee39efdfd1d1cf3bb748f8aa1932ddddc5d432ba5e3b", "asm": "304402207f418dfca2bc442242ac8c836890afb35c5c45f9e1379e70db13f993f418ec3202202562afcb943c15d40a10a8e32cb322a386db96511ac79abe2bbebf9094ed6aae[ALL] 02c6a2bd93b872c476ecbeee39efdfd1d1cf3bb748f8aa1932ddddc5d432ba5e3b"}, "vout": 0, "txid": "c7b525d6be7c9474137e12b8bedabd307f01790ad9ace5ab700e24751f0fe7a9"}, {"sequence": 4294967294, "scriptSig": {"hex": "483045022100a19ebcf9d592aa5e36867a05da2bbdabc0f38febfda3011195d3b73eb036fe0a02200163ece94c6f7ba56fecc9272cd604a372e7b98931b400f50e9c9cb04d14c3cf012102645728a2811a4a898ae96266fa2fd495f922e041a810d5c736f3c884cc61d576", "asm": "3045022100a19ebcf9d592aa5e36867a05da2bbdabc0f38febfda3011195d3b73eb036fe0a02200163ece94c6f7ba56fecc9272cd604a372e7b98931b400f50e9c9cb04d14c3cf[ALL] 02645728a2811a4a898ae96266fa2fd495f922e041a810d5c736f3c884cc61d576"}, "vout": 46, "txid": "4bee25ef5647e3d58f3969bf92a50899fcbea468552bb7930d7a45f30746b9eb"}], "txid": "099ecd77838b74f6e88a22b6e7476d47ac691572cf9d43ca34e6847484f738a9", "blocktime": 1537871767, "version": 2, "confirmations": 11490, "time": 1537871767, "locktime": 542965, "vsize": 461, "size": 544}