{"hash": "09a01ec786ee19ffdfc5bab48aed94ba39f261d455ca37c0e3d032e2442f306f", "blockhash": "0000000000000000001cda96e906b7601b7a6fb1a3b62bca570a9e5d8f4b3de1", "vout": [{"scriptPubKey": {"reqSigs": 1, "hex": "76a914eae8bf68cc424182d3d43cfb17d98adf2f20501688ac", "addresses": ["1NR5wUvr49BpBwYLUZHmmqtWqjZzJEPoiv"], "asm": "OP_DUP OP_HASH160 eae8bf68cc424182d3d43cfb17d98adf2f205016 OP_EQUALVERIFY OP_CHECKSIG", "type": "pubkeyhash"}, "value": 0.00015226, "n": 0}, {"scriptPubKey": {"reqSigs": 1, "hex": "76a9147b537866b3ccd5301a12f71251ca281c1dd68fa088ac", "addresses": ["1CF67DSQY7WAdfBWFFqBxTMPeQhsb4V5fK"], "asm": "OP_DUP OP_HASH160 7b537866b3ccd5301a12f71251ca281c1dd68fa0 OP_EQUALVERIFY OP_CHECKSIG", "type": "pubkeyhash"}, "value": 0.00093678, "n": 1}], "hex": "0100000001c46777c029349b006b0b94793ad7443cf25d2aa0f1b948549d68443c8c3b9224010000006b4830450221009f2fc258825d4677e9371fcfa431b4755ff9a86ed28c9e0574d2f4b04a116c1b02200a300528b1caa73bc9a26aed9d3d583205d21117bb59218b85565be19b90ef2d01210360598ac8c6adac2c62f474e0c2ae75fa5b7ff34ea3ab4c23a21c733daa79c293feffffff027a3b0000000000001976a914eae8bf68cc424182d3d43cfb17d98adf2f20501688acee6d0100000000001976a9147b537866b3ccd5301a12f71251ca281c1dd68fa088ac13490800", "vin": [{"sequence": 4294967294, "scriptSig": {"hex": "4830450221009f2fc258825d4677e9371fcfa431b4755ff9a86ed28c9e0574d2f4b04a116c1b02200a300528b1caa73bc9a26aed9d3d583205d21117bb59218b85565be19b90ef2d01210360598ac8c6adac2c62f474e0c2ae75fa5b7ff34ea3ab4c23a21c733daa79c293", "asm": "30450221009f2fc258825d4677e9371fcfa431b4755ff9a86ed28c9e0574d2f4b04a116c1b02200a300528b1caa73bc9a26aed9d3d583205d21117bb59218b85565be19b90ef2d[ALL] 0360598ac8c6adac2c62f474e0c2ae75fa5b7ff34ea3ab4c23a21c733daa79c293"}, "vout": 1, "txid": "24923b8c3c44689d5448b9f1a02a5df23c44d73a79940b6b009b3429c07767c4"}], "txid": "09a01ec786ee19ffdfc5bab48aed94ba39f261d455ca37c0e3d032e2442f306f", "blocktime": 1537873282, "version": 1, "confirmations": 11483, "time": 1537873282, "locktime": 542995, "vsize": 226, "size": 226}