{"hash": "ddfdaad476509b257200fe2f45b3f01555b19ae138b012115b599351647cd7b4", "blockhash": "00000000000000000018f53835495a110e01622372bf6ae95dc86f2b0ab887b0", "vout": [{"scriptPubKey": {"reqSigs": 1, "hex": "a914e5d9b1787369802a6137977ff3269d102b4882bf87", "addresses": ["3NeMT4htURYz68qRatRQMZL9SwWGmzNTPJ"], "asm": "OP_HASH160 e5d9b1787369802a6137977ff3269d102b4882bf OP_EQUAL", "type": "scripthash"}, "value": 1.1, "n": 0}, {"scriptPubKey": {"reqSigs": 1, "hex": "a9147ad63b89128bf17ff09fd8c0c573b10bded2854587", "addresses": ["3CtX15xbeKuQbUJnoefP49TXciA5JBidq2"], "asm": "OP_HASH160 7ad63b89128bf17ff09fd8c0c573b10bded28545 OP_EQUAL", "type": "scripthash"}, "value": 37.09536205, "n": 1}], "hex": "010000000001011e8746a9e77ff36974fa7cb087193cb738fc54087382d4a80db1a688b7daea8206000000171600140a98495764ee9540de5e7eea13571debd6566387ffffffff0280778e060000000017a914e5d9b1787369802a6137977ff3269d102b4882bf87cd071bdd0000000017a9147ad63b89128bf17ff09fd8c0c573b10bded2854587024730440220675e2667d6b58e978f67c2a4d42e94e5f2461214a662fa55b6ed506109881541022033c172fa43b67f97cd16fcd5cfd6f366e967e8264a809470ed0edc6b097f184a012102eabe37aadd634330318b87965c043f82e877585d973136b81cc01cb0c18a622c00000000", "vin": [{"txinwitness": ["30440220675e2667d6b58e978f67c2a4d42e94e5f2461214a662fa55b6ed506109881541022033c172fa43b67f97cd16fcd5cfd6f366e967e8264a809470ed0edc6b097f184a01", "02eabe37aadd634330318b87965c043f82e877585d973136b81cc01cb0c18a622c"], "sequence": 4294967295, "scriptSig": {"hex": "1600140a98495764ee9540de5e7eea13571debd6566387", "asm": "00140a98495764ee9540de5e7eea13571debd6566387"}, "vout": 6, "txid": "82eadab788a6b10da8d482730854fc38b73c1987b07cfa7469f37fe7a946871e"}], "txid": "09a29de3cd3f0df9249b802ee6db1e16a415792e840ca720a5a85bc033e1e056", "blocktime": 1537870928, "version": 1, "confirmations": 11512, "time": 1537870928, "locktime": 0, "vsize": 166, "size": 247}