{"hash": "09a82869882a431ca02e1216af267ceaf838a3d0c2458afb5c68eb4d2e0cf359", "blockhash": "0000000000000000001e0dab787dd257d1dbfcb92a98c2207d5e1078be1f4165", "vout": [{"scriptPubKey": {"reqSigs": 1, "hex": "a9146c7525c5b087bfbfe4a3c1a4c3599043d3530d7787", "addresses": ["3BaVEpGSrovoPdC3XYJnEvSwN3N3FSQ2uA"], "asm": "OP_HASH160 6c7525c5b087bfbfe4a3c1a4c3599043d3530d77 OP_EQUAL", "type": "scripthash"}, "value": 0.00128533, "n": 0}, {"scriptPubKey": {"reqSigs": 1, "hex": "76a91444750ba5b21d2e9e3f7484b17b18abdee6ad0af688ac", "addresses": ["17EyAWUWK5g6gKcfQG57zq6Giv3tzXSu8G"], "asm": "OP_DUP OP_HASH160 44750ba5b21d2e9e3f7484b17b18abdee6ad0af6 OP_EQUALVERIFY OP_CHECKSIG", "type": "pubkeyhash"}, "value": 0.00225856, "n": 1}], "hex": "0100000001669a6c92c3a816e8500a18636e2531f90f74df0f27b1e22632eaebd16ad1af26010000006a4730440220796de377471ae84e3fe7915cfbbf1d14510ef310cd5598ea69fb65bcf51d20a702203f747e63eae00a62d938edded8a9d84f04b9bea5847eea538f6bdfeebaab46b7012103dc7ce713eda7ebd0680cfe357be729b61ba12f4461cf5c5ec3f8160868499627ffffffff0215f601000000000017a9146c7525c5b087bfbfe4a3c1a4c3599043d3530d778740720300000000001976a91444750ba5b21d2e9e3f7484b17b18abdee6ad0af688ac00000000", "vin": [{"sequence": 4294967295, "scriptSig": {"hex": "4730440220796de377471ae84e3fe7915cfbbf1d14510ef310cd5598ea69fb65bcf51d20a702203f747e63eae00a62d938edded8a9d84f04b9bea5847eea538f6bdfeebaab46b7012103dc7ce713eda7ebd0680cfe357be729b61ba12f4461cf5c5ec3f8160868499627", "asm": "30440220796de377471ae84e3fe7915cfbbf1d14510ef310cd5598ea69fb65bcf51d20a702203f747e63eae00a62d938edded8a9d84f04b9bea5847eea538f6bdfeebaab46b7[ALL] 03dc7ce713eda7ebd0680cfe357be729b61ba12f4461cf5c5ec3f8160868499627"}, "vout": 1, "txid": "26afd16ad1ebea3226e2b1270fdf740ff931256e63180a50e816a8c3926c9a66"}], "txid": "09a82869882a431ca02e1216af267ceaf838a3d0c2458afb5c68eb4d2e0cf359", "blocktime": 1537872475, "version": 1, "confirmations": 11487, "time": 1537872475, "locktime": 0, "vsize": 223, "size": 223}