{"hash": "98ef67e361214f8bfa893b2d270da2511b2f6f73721919e89ff8b2e52727449c", "blockhash": "00000000000000000024a2167bbff67b0be802c0b01cdd79e6331c2be6459f87", "vout": [{"scriptPubKey": {"reqSigs": 1, "hex": "0014c4f5f34b0f65fd493dcc01c7264a254d8e7b7ddf", "addresses": ["bc1qcn6lxjc0vh75j0wvq8rjvj39fk88klwljmuaf9"], "asm": "0 c4f5f34b0f65fd493dcc01c7264a254d8e7b7ddf", "type": "witness_v0_keyhash"}, "value": 0.01821369, "n": 0}, {"scriptPubKey": {"reqSigs": 1, "hex": "76a914590cf21267c631fbc67be616af41dcc521e4e49c88ac", "addresses": ["197reYpAGdFJHXiWyt6jZT5rJJpStPJD4p"], "asm": "OP_DUP OP_HASH160 590cf21267c631fbc67be616af41dcc521e4e49c OP_EQUALVERIFY OP_CHECKSIG", "type": "pubkeyhash"}, "value": 0.17718971, "n": 1}], "hex": "010000000001015a32ada6a7d7e0ddbfb8114034ad32e8dd313df1f1e4fa057afc8366a8fed08901000000171600148d78b07229d1967afc29567f780269c3b282b92cffffffff02b9ca1b0000000000160014c4f5f34b0f65fd493dcc01c7264a254d8e7b7ddfbb5e0e01000000001976a914590cf21267c631fbc67be616af41dcc521e4e49c88ac02473044022015dd75e490481762318414b6c48c3d60f4ba064b3272b1195e4d7069b9cb3101022018c1d8d418a44296f62e79d5d4b98d065b8abf5198323456f498e9e4f703224d01210307729101583a2f14f0a18087377d072579e6921392f089caba885fc93a426a4000000000", "vin": [{"txinwitness": ["3044022015dd75e490481762318414b6c48c3d60f4ba064b3272b1195e4d7069b9cb3101022018c1d8d418a44296f62e79d5d4b98d065b8abf5198323456f498e9e4f703224d01", "0307729101583a2f14f0a18087377d072579e6921392f089caba885fc93a426a40"], "sequence": 4294967295, "scriptSig": {"hex": "1600148d78b07229d1967afc29567f780269c3b282b92c", "asm": "00148d78b07229d1967afc29567f780269c3b282b92c"}, "vout": 1, "txid": "89d0fea86683fc7a05fae4f1f13d31dde832ad344011b8bfdde0d7a7a6ad325a"}], "txid": "09a84804f5a3216bc50841a46d87222330cfb02d5b271e792303ab750bcc3f3b", "blocktime": 1537870564, "version": 1, "confirmations": 11515, "time": 1537870564, "locktime": 0, "vsize": 167, "size": 248}