{"hash": "c3fe979c8056cfa752a188bc81b77d462e7f291fb166dfab9f93ee8c35c1685e", "blockhash": "0000000000000000001cda96e906b7601b7a6fb1a3b62bca570a9e5d8f4b3de1", "vout": [{"scriptPubKey": {"reqSigs": 1, "hex": "a91431eed0b83c83c62000466da65a41d8579b5f250687", "addresses": ["36F3883DkHNzmwC12cLk4LTZSqCgth95wS"], "asm": "OP_HASH160 31eed0b83c83c62000466da65a41d8579b5f2506 OP_EQUAL", "type": "scripthash"}, "value": 0.00999542, "n": 0}, {"scriptPubKey": {"reqSigs": 1, "hex": "a9143b1306dd106226c6f7d734dc59c2998962d97b4987", "addresses": ["375NasHJE3Hmit1SiovY3iVYefzsfz4hHi"], "asm": "OP_HASH160 3b1306dd106226c6f7d734dc59c2998962d97b49 OP_EQUAL", "type": "scripthash"}, "value": 0.00070378, "n": 1}], "hex": "020000000001036da204aea93a23c50edf46de2fe430d8c7871bf641068996ca3f2862f0f909d10000000017160014ccdb9fcfa97e36a0d68681bd52599f052fe85ac5feffffffa64573ac82ba20b76f022ee07f6018f0cda1905920df84dcbd1e8a1b783aa8e4010000001716001408bf1fec9ba94f991b02544e8942f8a3e02bc789fefffffffdfbdfb94f07ccd764a6bea71189811c9e0e1f37f9df9744e700ca0361bcdb7100000000171600141d5380039356da97d77c59afb6903c738f9d82b2feffffff0276400f000000000017a91431eed0b83c83c62000466da65a41d8579b5f250687ea1201000000000017a9143b1306dd106226c6f7d734dc59c2998962d97b498702473044022023664b066c87ea87d4505ec0a4ac66407dd2674295a7dd53a91e465b3f41c10402203c206c984854fd1671b047fb5be5356acb89290ffa45fcfb5613478aacee278c012102b54964cc5721e4ccb272fa53f9d1e22b682dda86781a966286664d479aebf76802483045022100b2aa09d67c60052c7988408bd0f578b4f696788baa4460dba73e4e695d6422cd02207129530c11ee7a52badf706bf579bde2d86765d3f42127c426246bc4427418cf012103a78fa72ea870b3fc6aab7129eb85baf274c115cc1095997c98566d0b860c4e540247304402203796f9304109419031c194cf05de523e4422ef5a6093b2821d4a7f6916c8e2ef02202e3bef1e9d1cec6a186f69ad8aaa93a0ea2c69560f675b706ee85dca2aca51550121029edec08f0c8c65136f98818ac620e6f35abcc10f2814e5c57be9b01860b3486d13490800", "vin": [{"txinwitness": ["3044022023664b066c87ea87d4505ec0a4ac66407dd2674295a7dd53a91e465b3f41c10402203c206c984854fd1671b047fb5be5356acb89290ffa45fcfb5613478aacee278c01", "02b54964cc5721e4ccb272fa53f9d1e22b682dda86781a966286664d479aebf768"], "sequence": 4294967294, "scriptSig": {"hex": "160014ccdb9fcfa97e36a0d68681bd52599f052fe85ac5", "asm": "0014ccdb9fcfa97e36a0d68681bd52599f052fe85ac5"}, "vout": 0, "txid": "d109f9f062283fca96890641f61b87c7d830e42fde46df0ec5233aa9ae04a26d"}, {"txinwitness": ["3045022100b2aa09d67c60052c7988408bd0f578b4f696788baa4460dba73e4e695d6422cd02207129530c11ee7a52badf706bf579bde2d86765d3f42127c426246bc4427418cf01", "03a78fa72ea870b3fc6aab7129eb85baf274c115cc1095997c98566d0b860c4e54"], "sequence": 4294967294, "scriptSig": {"hex": "16001408bf1fec9ba94f991b02544e8942f8a3e02bc789", "asm": "001408bf1fec9ba94f991b02544e8942f8a3e02bc789"}, "vout": 1, "txid": "e4a83a781b8a1ebddc84df205990a1cdf018607fe02e026fb720ba82ac7345a6"}, {"txinwitness": ["304402203796f9304109419031c194cf05de523e4422ef5a6093b2821d4a7f6916c8e2ef02202e3bef1e9d1cec6a186f69ad8aaa93a0ea2c69560f675b706ee85dca2aca515501", "029edec08f0c8c65136f98818ac620e6f35abcc10f2814e5c57be9b01860b3486d"], "sequence": 4294967294, "scriptSig": {"hex": "1600141d5380039356da97d77c59afb6903c738f9d82b2", "asm": "00141d5380039356da97d77c59afb6903c738f9d82b2"}, "vout": 0, "txid": "71dbbc6103ca00e74497dff9371f0e9e1c818911a7bea664d7cc074fb9dffbfd"}], "txid": "09bb417f41841c5fd3b4c3e2232e8a55018ff6ef18b8b62a9d9f58786443f93c", "blocktime": 1537873282, "version": 2, "confirmations": 11485, "time": 1537873282, "locktime": 542995, "vsize": 347, "size": 590}