{"hash": "09bc5c6baf18a6a80c18f96c0e47ebb0d5d57485914bcd2f422766d89a7109ec", "blockhash": "0000000000000000000e13cef7c366c0283d82e591d1acd082e914b08063cdf1", "vout": [{"scriptPubKey": {"reqSigs": 1, "hex": "a9146747fa7248e3d5ffd9c7cee346c21077476b4cda87", "addresses": ["3B77kSdTNbtZzTymbSUnuXJNLvidxzTUVK"], "asm": "OP_HASH160 6747fa7248e3d5ffd9c7cee346c21077476b4cda OP_EQUAL", "type": "scripthash"}, "value": 0.01, "n": 0}, {"scriptPubKey": {"reqSigs": 1, "hex": "76a91404607585722760691867b42d43701905736be47d88ac", "addresses": ["1Q9FrvpM2xVKAJwqwFhjJTeaE1eouHrD8"], "asm": "OP_DUP OP_HASH160 04607585722760691867b42d43701905736be47d OP_EQUALVERIFY OP_CHECKSIG", "type": "pubkeyhash"}, "value": 0.0141433, "n": 1}], "hex": "010000000198a80ff63f6ebcb3c940ceb22a40fcca27c86d3c1f06378cdc1643c73a5b36d7010000006a47304402201017fac3d85a5ab0edc11f0c5b97bc89cf577fbd24fbd985f978c5dc6e9a97f5022042a63b727036df6851efd784cfc1a72258babe3621c6d69010974e47716198b2012103629aa3df53cad290078bbad26491f1e11f9c01697c65db0967561f6f142c993cffffffff0240420f000000000017a9146747fa7248e3d5ffd9c7cee346c21077476b4cda87ba941500000000001976a91404607585722760691867b42d43701905736be47d88ac00000000", "vin": [{"sequence": 4294967295, "scriptSig": {"hex": "47304402201017fac3d85a5ab0edc11f0c5b97bc89cf577fbd24fbd985f978c5dc6e9a97f5022042a63b727036df6851efd784cfc1a72258babe3621c6d69010974e47716198b2012103629aa3df53cad290078bbad26491f1e11f9c01697c65db0967561f6f142c993c", "asm": "304402201017fac3d85a5ab0edc11f0c5b97bc89cf577fbd24fbd985f978c5dc6e9a97f5022042a63b727036df6851efd784cfc1a72258babe3621c6d69010974e47716198b2[ALL] 03629aa3df53cad290078bbad26491f1e11f9c01697c65db0967561f6f142c993c"}, "vout": 1, "txid": "d7365b3ac74316dc8c37061f3c6dc827cafc402ab2ce40c9b3bc6e3ff60fa898"}], "txid": "09bc5c6baf18a6a80c18f96c0e47ebb0d5d57485914bcd2f422766d89a7109ec", "blocktime": 1537871767, "version": 1, "confirmations": 11490, "time": 1537871767, "locktime": 0, "vsize": 223, "size": 223}