{"hash": "09c9fa1a4cc3a06b17b82e7e1a18f795e2b21f1511ec8b5d79ed5438359a5408", "blockhash": "00000000000000000018f53835495a110e01622372bf6ae95dc86f2b0ab887b0", "vout": [{"scriptPubKey": {"reqSigs": 1, "hex": "a9143f4eecba122ad73039d481c8d37f99cb4f887cd887", "addresses": ["37Tm3Qz8Zw2VJrheUUhArDAoq58S6YrS3g"], "asm": "OP_HASH160 3f4eecba122ad73039d481c8d37f99cb4f887cd8 OP_EQUAL", "type": "scripthash"}, "value": 1.0, "n": 0}, {"scriptPubKey": {"reqSigs": 1, "hex": "a9146bc27a2f9c31331ebc65a054efe2dbe2e625907e87", "addresses": ["3BWoCb66GjdHPJRsA9WckHQ4azDSLT218K"], "asm": "OP_HASH160 6bc27a2f9c31331ebc65a054efe2dbe2e625907e OP_EQUAL", "type": "scripthash"}, "value": 34.80925797, "n": 1}], "hex": "0100000001c529128a7f200723109ea40f7ae743f9368b406a200c1fa8ead1ae6001657f0801000000fdfd00004730440220601e650e50e5893d285616d73d60aa80e57ce1896a27820e1dfde4feb7ff310402204ac30966884fe02dc1b1d08e85dd75fd1c72bbb0f63d294543a763956b088f3f01483045022100ac821ae05d390cdbcc36b2901296c3ed8727da2032af3cf59ec7e76bea61d6f702204b6be3af2c6838ae52d31e1bc9d29c89f123e7a429eaf6b54ca56fd7fd6fb98e014c6952210224874a4d6262b174d9efb558318bc5bb64035dbfb0c301a26b8ed1e9f99af6b12102fb74fce0008b6b516b5d152660596c0790bc57ec88250078449a03f599076d8721029147a130cca1b7c8b22b370f20ed7e55a4e60d1bde62458645cc9979f67ab51d53aeffffffff0200e1f5050000000017a9143f4eecba122ad73039d481c8d37f99cb4f887cd88765b67acf0000000017a9146bc27a2f9c31331ebc65a054efe2dbe2e625907e8700000000", "vin": [{"sequence": 4294967295, "scriptSig": {"hex": "004730440220601e650e50e5893d285616d73d60aa80e57ce1896a27820e1dfde4feb7ff310402204ac30966884fe02dc1b1d08e85dd75fd1c72bbb0f63d294543a763956b088f3f01483045022100ac821ae05d390cdbcc36b2901296c3ed8727da2032af3cf59ec7e76bea61d6f702204b6be3af2c6838ae52d31e1bc9d29c89f123e7a429eaf6b54ca56fd7fd6fb98e014c6952210224874a4d6262b174d9efb558318bc5bb64035dbfb0c301a26b8ed1e9f99af6b12102fb74fce0008b6b516b5d152660596c0790bc57ec88250078449a03f599076d8721029147a130cca1b7c8b22b370f20ed7e55a4e60d1bde62458645cc9979f67ab51d53ae", "asm": "0 30440220601e650e50e5893d285616d73d60aa80e57ce1896a27820e1dfde4feb7ff310402204ac30966884fe02dc1b1d08e85dd75fd1c72bbb0f63d294543a763956b088f3f[ALL] 3045022100ac821ae05d390cdbcc36b2901296c3ed8727da2032af3cf59ec7e76bea61d6f702204b6be3af2c6838ae52d31e1bc9d29c89f123e7a429eaf6b54ca56fd7fd6fb98e[ALL] 52210224874a4d6262b174d9efb558318bc5bb64035dbfb0c301a26b8ed1e9f99af6b12102fb74fce0008b6b516b5d152660596c0790bc57ec88250078449a03f599076d8721029147a130cca1b7c8b22b370f20ed7e55a4e60d1bde62458645cc9979f67ab51d53ae"}, "vout": 1, "txid": "087f650160aed1eaa81f0c206a408b36f943e77a0fa49e102307207f8a1229c5"}], "txid": "09c9fa1a4cc3a06b17b82e7e1a18f795e2b21f1511ec8b5d79ed5438359a5408", "blocktime": 1537870928, "version": 1, "confirmations": 11512, "time": 1537870928, "locktime": 0, "vsize": 370, "size": 370}