{"hash": "8fbd406f1cde14afba4bab1c436db8019405ece8b44ccbe181aa60ef45e342d8", "blockhash": "0000000000000000001f76057863aec43deb6fa401d9628bb513d65a8098bfab", "vout": [{"scriptPubKey": {"reqSigs": 1, "hex": "76a914d66c8d6687265951bdc1564c683f11f4f404396e88ac", "addresses": ["1LYmeQFgR1kWVYhKHfWe5YG5h8uEcT5PCb"], "asm": "OP_DUP OP_HASH160 d66c8d6687265951bdc1564c683f11f4f404396e OP_EQUALVERIFY OP_CHECKSIG", "type": "pubkeyhash"}, "value": 0.00055864, "n": 0}, {"scriptPubKey": {"reqSigs": 1, "hex": "a9141d7370ccde4590204155e4074f69743a8e4fac0287", "addresses": ["34Njp4ZKtmCDfqqps26wHBYQQGUo2pGkLi"], "asm": "OP_HASH160 1d7370ccde4590204155e4074f69743a8e4fac02 OP_EQUAL", "type": "scripthash"}, "value": 0.00012359, "n": 1}], "hex": "0100000000010288812e6c51ca952c745ceadd9c096927b2526eee8650d0fec6611fdce9c8bceb0100000023220020f63dfc12340f6360d0251c22746d6b56093e3243e96ca012a65484a5d9cf0ec0ffffffff4d0915a1ed44df9841802fcea57e05f7ec2064f207a65f57ff1589153bf22f910000000023220020f63dfc12340f6360d0251c22746d6b56093e3243e96ca012a65484a5d9cf0ec0ffffffff0238da0000000000001976a914d66c8d6687265951bdc1564c683f11f4f404396e88ac473000000000000017a9141d7370ccde4590204155e4074f69743a8e4fac02870400483045022100b07a34e7d288189b7384a144e498ccc3c2ce4ef638bff169f74f1702dc7d13e502205f6def9348c5bda2180a5d311f793a7f3b4d83f24d161869e0a5eb1f0205cc4001483045022100eae228167bd202bae10d56cb8bf21031155932e8312000a379411c3db8e03c5702204f012c836a1f42267d67eedaa62aa87f3e412324abd6b94f73daf277aa11a71a0147522102097067a6a0cc130a9a6f6577b47bf369b840a79de31cd7457187994266b1bb7c2103338f346cab6ba87fe940591a03ac234be06520c5ab386d4b6632e8eef0d0db7652ae040047304402204e652e26d566ef6caa7acc7f0fedcd84851967641f2afeaf11ebf45244f11e210220082db3bf726aa71796f977a5db504717d878c91acdb24eaa3493576e5db4c40f01483045022100beca01c9be50bbdc14fcd1e2843df908beed183810c68a0dd8fc7e462f5a5f12022034a5f615026ad34a06cc6ce576efaa368a88599a5b6eb0459067b984b791c5e40147522102097067a6a0cc130a9a6f6577b47bf369b840a79de31cd7457187994266b1bb7c2103338f346cab6ba87fe940591a03ac234be06520c5ab386d4b6632e8eef0d0db7652ae00000000", "vin": [{"txinwitness": ["", "3045022100b07a34e7d288189b7384a144e498ccc3c2ce4ef638bff169f74f1702dc7d13e502205f6def9348c5bda2180a5d311f793a7f3b4d83f24d161869e0a5eb1f0205cc4001", "3045022100eae228167bd202bae10d56cb8bf21031155932e8312000a379411c3db8e03c5702204f012c836a1f42267d67eedaa62aa87f3e412324abd6b94f73daf277aa11a71a01", "522102097067a6a0cc130a9a6f6577b47bf369b840a79de31cd7457187994266b1bb7c2103338f346cab6ba87fe940591a03ac234be06520c5ab386d4b6632e8eef0d0db7652ae"], "sequence": 4294967295, "scriptSig": {"hex": "220020f63dfc12340f6360d0251c22746d6b56093e3243e96ca012a65484a5d9cf0ec0", "asm": "0020f63dfc12340f6360d0251c22746d6b56093e3243e96ca012a65484a5d9cf0ec0"}, "vout": 1, "txid": "ebbcc8e9dc1f61c6fed05086ee6e52b22769099cddea5c742c95ca516c2e8188"}, {"txinwitness": ["", "304402204e652e26d566ef6caa7acc7f0fedcd84851967641f2afeaf11ebf45244f11e210220082db3bf726aa71796f977a5db504717d878c91acdb24eaa3493576e5db4c40f01", "3045022100beca01c9be50bbdc14fcd1e2843df908beed183810c68a0dd8fc7e462f5a5f12022034a5f615026ad34a06cc6ce576efaa368a88599a5b6eb0459067b984b791c5e401", "522102097067a6a0cc130a9a6f6577b47bf369b840a79de31cd7457187994266b1bb7c2103338f346cab6ba87fe940591a03ac234be06520c5ab386d4b6632e8eef0d0db7652ae"], "sequence": 4294967295, "scriptSig": {"hex": "220020f63dfc12340f6360d0251c22746d6b56093e3243e96ca012a65484a5d9cf0ec0", "asm": "0020f63dfc12340f6360d0251c22746d6b56093e3243e96ca012a65484a5d9cf0ec0"}, "vout": 0, "txid": "912ff23b158915ff575fa607f26420ecf7057ea5ce2f804198df44eda115094d"}], "txid": "09d1c5163d3bfc7ed6142043be281f4dc473ca7e013fa2af4a5bcf62c98dfea3", "blocktime": 1537873891, "version": 1, "confirmations": 11478, "time": 1537873891, "locktime": 0, "vsize": 339, "size": 669}