{"hash": "09d25b051a42d223026969313451cb12b73c64b611350b4b53ca74595606424f", "blockhash": "0000000000000000001cda96e906b7601b7a6fb1a3b62bca570a9e5d8f4b3de1", "vout": [{"scriptPubKey": {"reqSigs": 1, "hex": "76a914624272d72e3b7fe7d323f5e49b1d1b25ffffda3988ac", "addresses": ["19xYpjGZdUYUNG8MfBH1FGJnhTWKVKi4Ks"], "asm": "OP_DUP OP_HASH160 624272d72e3b7fe7d323f5e49b1d1b25ffffda39 OP_EQUALVERIFY OP_CHECKSIG", "type": "pubkeyhash"}, "value": 0.00019016, "n": 0}, {"scriptPubKey": {"reqSigs": 1, "hex": "76a914224c68f11ecbbcf5eb95a6930ecfb76f8f699dcc88ac", "addresses": ["148MWaUfZjUuskVkG1tfFxRg4VqgciTgAr"], "asm": "OP_DUP OP_HASH160 224c68f11ecbbcf5eb95a6930ecfb76f8f699dcc OP_EQUALVERIFY OP_CHECKSIG", "type": "pubkeyhash"}, "value": 0.09637657, "n": 1}], "hex": "01000000044489464650870dfce29cfab19ac28dfc3015f6c842ddb2923d6d884194bf820a000000006b483045022100e6c7c2a080d5d23ed850855fb947791f769026ba7bea17595ef85b7022e60f0e0220664dbafcb68cc935455477437712208e4983de6bc444f69a49d348303ea849c2012103df6c8506144fa66eca24e16265b861b3d529a9fc7c4e60e3328a5b12396354f7ffffffff14c4f47ce98152559498ae96c8e45013e113648060ef58c21905243596ad0f62010000006a47304402204f8104ae97d26a5aac54c6cb799f99dbfb3429c6f25d0daf0a5022143952614202200b68f57267d94a833c9102a995c4d8bf4d2ecc360b717b9c9584baf915ad786b01210282bac69b19bceb7272214d0d7a78f6df01c3bbdb4cf484290d403fe30a84b42fffffffff1c275c8c86727512c428a282178abfc487d842e8e886310c74a8fab8de8f519f000000006a47304402202ef8cfc99966019083fd6bfee5b0bfea58c6171d00e66271e867d91399133ba202207da08cbdd72439e17e942684d8a986f202ecb3498191a0ce51d38858aee3534001210282bac69b19bceb7272214d0d7a78f6df01c3bbdb4cf484290d403fe30a84b42ffffffffffddae9a9c0f773fc901e915af74b8e45aa4cf404fd2bb271484ec2172734fbdb010000006b483045022100bb204102d38b0c194bf004018dd36ff37fae87b6532b2b0564f526dd9539d88102204c041594fcbaf93782343a7d3c7ecf604b809766251ba46837349710f896ea2a01210282bac69b19bceb7272214d0d7a78f6df01c3bbdb4cf484290d403fe30a84b42fffffffff02484a0000000000001976a914624272d72e3b7fe7d323f5e49b1d1b25ffffda3988ac190f9300000000001976a914224c68f11ecbbcf5eb95a6930ecfb76f8f699dcc88ac00000000", "vin": [{"sequence": 4294967295, "scriptSig": {"hex": "483045022100e6c7c2a080d5d23ed850855fb947791f769026ba7bea17595ef85b7022e60f0e0220664dbafcb68cc935455477437712208e4983de6bc444f69a49d348303ea849c2012103df6c8506144fa66eca24e16265b861b3d529a9fc7c4e60e3328a5b12396354f7", "asm": "3045022100e6c7c2a080d5d23ed850855fb947791f769026ba7bea17595ef85b7022e60f0e0220664dbafcb68cc935455477437712208e4983de6bc444f69a49d348303ea849c2[ALL] 03df6c8506144fa66eca24e16265b861b3d529a9fc7c4e60e3328a5b12396354f7"}, "vout": 0, "txid": "0a82bf9441886d3d92b2dd42c8f61530fc8dc29ab1fa9ce2fc0d875046468944"}, {"sequence": 4294967295, "scriptSig": {"hex": "47304402204f8104ae97d26a5aac54c6cb799f99dbfb3429c6f25d0daf0a5022143952614202200b68f57267d94a833c9102a995c4d8bf4d2ecc360b717b9c9584baf915ad786b01210282bac69b19bceb7272214d0d7a78f6df01c3bbdb4cf484290d403fe30a84b42f", "asm": "304402204f8104ae97d26a5aac54c6cb799f99dbfb3429c6f25d0daf0a5022143952614202200b68f57267d94a833c9102a995c4d8bf4d2ecc360b717b9c9584baf915ad786b[ALL] 0282bac69b19bceb7272214d0d7a78f6df01c3bbdb4cf484290d403fe30a84b42f"}, "vout": 1, "txid": "620fad9635240519c258ef60806413e11350e4c896ae9894555281e97cf4c414"}, {"sequence": 4294967295, "scriptSig": {"hex": "47304402202ef8cfc99966019083fd6bfee5b0bfea58c6171d00e66271e867d91399133ba202207da08cbdd72439e17e942684d8a986f202ecb3498191a0ce51d38858aee3534001210282bac69b19bceb7272214d0d7a78f6df01c3bbdb4cf484290d403fe30a84b42f", "asm": "304402202ef8cfc99966019083fd6bfee5b0bfea58c6171d00e66271e867d91399133ba202207da08cbdd72439e17e942684d8a986f202ecb3498191a0ce51d38858aee35340[ALL] 0282bac69b19bceb7272214d0d7a78f6df01c3bbdb4cf484290d403fe30a84b42f"}, "vout": 0, "txid": "9f518fdeb8faa8740c3186e8e842d887c4bf8a1782a228c4127572868c5c271c"}, {"sequence": 4294967295, "scriptSig": {"hex": "483045022100bb204102d38b0c194bf004018dd36ff37fae87b6532b2b0564f526dd9539d88102204c041594fcbaf93782343a7d3c7ecf604b809766251ba46837349710f896ea2a01210282bac69b19bceb7272214d0d7a78f6df01c3bbdb4cf484290d403fe30a84b42f", "asm": "3045022100bb204102d38b0c194bf004018dd36ff37fae87b6532b2b0564f526dd9539d88102204c041594fcbaf93782343a7d3c7ecf604b809766251ba46837349710f896ea2a[ALL] 0282bac69b19bceb7272214d0d7a78f6df01c3bbdb4cf484290d403fe30a84b42f"}, "vout": 1, "txid": "dbfb342717c24e4871b22bfd04f44caa458e4bf75a911e90fc73f7c0a9e9dafd"}], "txid": "09d25b051a42d223026969313451cb12b73c64b611350b4b53ca74595606424f", "blocktime": 1537873282, "version": 1, "confirmations": 11485, "time": 1537873282, "locktime": 0, "vsize": 668, "size": 668}