{"hash": "ff854cf8c45150b09da332ff73887ab482e08315355be2bf6daa2a33c0736f20", "blockhash": "0000000000000000001cda96e906b7601b7a6fb1a3b62bca570a9e5d8f4b3de1", "vout": [{"scriptPubKey": {"reqSigs": 1, "hex": "76a9147618a256e1e40379e81fc306e05cd08fd825752188ac", "addresses": ["1BmSFFGGrwd8KgScxem5Me38KFS8qjAsm7"], "asm": "OP_DUP OP_HASH160 7618a256e1e40379e81fc306e05cd08fd8257521 OP_EQUALVERIFY OP_CHECKSIG", "type": "pubkeyhash"}, "value": 0.00962, "n": 0}, {"scriptPubKey": {"reqSigs": 1, "hex": "a9148575b77e36ecb264b7a6f425f345b7df52819c9f87", "addresses": ["3DrgpALMeKJh25DykcSkvHZq3MbrFeZbtq"], "asm": "OP_HASH160 8575b77e36ecb264b7a6f425f345b7df52819c9f OP_EQUAL", "type": "scripthash"}, "value": 0.0102541, "n": 1}], "hex": "020000000001010c422872b43e2f30c39fdcf29426744f233468365c0577d1e83ec228ca8814aa00000000171600143ba234fa7a5800438a71d2cc0ebf5d626b2fa4c2fdffffff02d0ad0e00000000001976a9147618a256e1e40379e81fc306e05cd08fd825752188ac82a50f000000000017a9148575b77e36ecb264b7a6f425f345b7df52819c9f8702483045022100ff74a9edef7d66113a1fe66be691f4d22a6e08366b0f857c9dcd94b23636e85c022054392c5912617e94e547aba9ef994079d1810d2961e98e0e0b1e37db3e7cdc340121037f25d753956a97012d01e3a87bcd443a1bd6da2cd67ebaa94a5714d5b10aebd000000000", "vin": [{"txinwitness": ["3045022100ff74a9edef7d66113a1fe66be691f4d22a6e08366b0f857c9dcd94b23636e85c022054392c5912617e94e547aba9ef994079d1810d2961e98e0e0b1e37db3e7cdc3401", "037f25d753956a97012d01e3a87bcd443a1bd6da2cd67ebaa94a5714d5b10aebd0"], "sequence": 4294967293, "scriptSig": {"hex": "1600143ba234fa7a5800438a71d2cc0ebf5d626b2fa4c2", "asm": "00143ba234fa7a5800438a71d2cc0ebf5d626b2fa4c2"}, "vout": 0, "txid": "aa1488ca28c23ee8d177055c366834234f742694f2dc9fc3302f3eb47228420c"}], "txid": "09d397b52ebded7bcf687e1d103b59e34d4a01efd8315b4398245041758a6fe1", "blocktime": 1537873282, "version": 2, "confirmations": 11484, "time": 1537873282, "locktime": 0, "vsize": 168, "size": 250}