{"hash": "09d71f01c397081fdea946bb462a5ffba317d5deff5b6a1161d199d72f2cfdf0", "blockhash": "00000000000000000018f53835495a110e01622372bf6ae95dc86f2b0ab887b0", "vout": [{"scriptPubKey": {"reqSigs": 1, "hex": "76a9147f68e323f729b67b1966239c0ef6500e06e8aa7888ac", "addresses": ["1CcgU4LgLzfnPsd8q7xxRqzyYcwtD2s72o"], "asm": "OP_DUP OP_HASH160 7f68e323f729b67b1966239c0ef6500e06e8aa78 OP_EQUALVERIFY OP_CHECKSIG", "type": "pubkeyhash"}, "value": 0.07820463, "n": 0}, {"scriptPubKey": {"reqSigs": 1, "hex": "76a91464131785068e32aa1145dba628ace0ab8f12bd1e88ac", "addresses": ["1A89SiALcbxPwK1BziURfS6Hqto9S3vGZr"], "asm": "OP_DUP OP_HASH160 64131785068e32aa1145dba628ace0ab8f12bd1e OP_EQUALVERIFY OP_CHECKSIG", "type": "pubkeyhash"}, "value": 0.125818, "n": 1}], "hex": "01000000013c98d50c3dbd39c3f92860c74f856c60d6356f1f20469b27203103e6229a98de010000006a473044022050c8fabd7be3ad0d1ccd7c2ccc00293f67ef474e0ae1838d0a368d99261d11c3022031d03aad44a57249020132fb3304746c66357829cd2cf9c7f845a4b3263e352d0121023349762019821831da288c346aa60a9c2d7191d6c3ea3f015e2b5fc0340716b8ffffffff02af547700000000001976a9147f68e323f729b67b1966239c0ef6500e06e8aa7888aca8fbbf00000000001976a91464131785068e32aa1145dba628ace0ab8f12bd1e88ac00000000", "vin": [{"sequence": 4294967295, "scriptSig": {"hex": "473044022050c8fabd7be3ad0d1ccd7c2ccc00293f67ef474e0ae1838d0a368d99261d11c3022031d03aad44a57249020132fb3304746c66357829cd2cf9c7f845a4b3263e352d0121023349762019821831da288c346aa60a9c2d7191d6c3ea3f015e2b5fc0340716b8", "asm": "3044022050c8fabd7be3ad0d1ccd7c2ccc00293f67ef474e0ae1838d0a368d99261d11c3022031d03aad44a57249020132fb3304746c66357829cd2cf9c7f845a4b3263e352d[ALL] 023349762019821831da288c346aa60a9c2d7191d6c3ea3f015e2b5fc0340716b8"}, "vout": 1, "txid": "de989a22e6033120279b46201f6f35d6606c854fc76028f9c339bd3d0cd5983c"}], "txid": "09d71f01c397081fdea946bb462a5ffba317d5deff5b6a1161d199d72f2cfdf0", "blocktime": 1537870928, "version": 1, "confirmations": 11514, "time": 1537870928, "locktime": 0, "vsize": 225, "size": 225}