{"hash": "09dabf5e59de34ef893d2e89fffa014d750d436178622ce74dff20bbef2dd463", "blockhash": "0000000000000000000baef3f32e3676a92c3b2e5da21b426e4f302fc371ce76", "vout": [{"scriptPubKey": {"reqSigs": 1, "hex": "76a91480935af046d2524a4c73d43ada3777fbd7cf67e088ac", "addresses": ["1Cir1yZBgBoWQFH6qAn5Bu3B3HTJHsMGwA"], "asm": "OP_DUP OP_HASH160 80935af046d2524a4c73d43ada3777fbd7cf67e0 OP_EQUALVERIFY OP_CHECKSIG", "type": "pubkeyhash"}, "value": 0.14209379, "n": 0}, {"scriptPubKey": {"reqSigs": 1, "hex": "a9142bf43ab31257d4825c87c00ec00eef3163ccdb9987", "addresses": ["35hRZ99ojFngT6Sxwmx2WucL2XM6iNZ6nS"], "asm": "OP_HASH160 2bf43ab31257d4825c87c00ec00eef3163ccdb99 OP_EQUAL", "type": "scripthash"}, "value": 0.15632743, "n": 1}], "hex": "01000000019d74d0a4da8419b38deb78e54e5410905437950b5d1b2f03b442c0c8ed7c453b000000006a47304402202e70b52aed9eaa967f5ee0870e18275b3ad0815b7c0e18798a36570903eb0a02022075031a62811abb621113c4548d8964e3d1cdbeaaa511a1789f8f17d50e0f29f601210316ecca5d20c8d21128adcf7bfc660a8590df31ea03b22d6264ea5ce39a7db4fbffffffff0263d1d800000000001976a91480935af046d2524a4c73d43ada3777fbd7cf67e088ac6789ee000000000017a9142bf43ab31257d4825c87c00ec00eef3163ccdb998700000000", "vin": [{"sequence": 4294967295, "scriptSig": {"hex": "47304402202e70b52aed9eaa967f5ee0870e18275b3ad0815b7c0e18798a36570903eb0a02022075031a62811abb621113c4548d8964e3d1cdbeaaa511a1789f8f17d50e0f29f601210316ecca5d20c8d21128adcf7bfc660a8590df31ea03b22d6264ea5ce39a7db4fb", "asm": "304402202e70b52aed9eaa967f5ee0870e18275b3ad0815b7c0e18798a36570903eb0a02022075031a62811abb621113c4548d8964e3d1cdbeaaa511a1789f8f17d50e0f29f6[ALL] 0316ecca5d20c8d21128adcf7bfc660a8590df31ea03b22d6264ea5ce39a7db4fb"}, "vout": 0, "txid": "3b457cedc8c042b4032f1b5d0b9537549010544ee578eb8db31984daa4d0749d"}], "txid": "09dabf5e59de34ef893d2e89fffa014d750d436178622ce74dff20bbef2dd463", "blocktime": 1537876114, "version": 1, "confirmations": 11460, "time": 1537876114, "locktime": 0, "vsize": 223, "size": 223}