{"hash": "09da4ccd97d780a97aa167c6caa7b2a45b5b6a364888088f9b884fb0100e58b2", "blockhash": "0000000000000000001f76057863aec43deb6fa401d9628bb513d65a8098bfab", "vout": [{"scriptPubKey": {"reqSigs": 1, "hex": "76a91494609fbef0b9d65a6ff0b8f312e9f630dce77efb88ac", "addresses": ["1EXYkwniQKALJqaGo4ST5xWjSNr8p3i2cq"], "asm": "OP_DUP OP_HASH160 94609fbef0b9d65a6ff0b8f312e9f630dce77efb OP_EQUALVERIFY OP_CHECKSIG", "type": "pubkeyhash"}, "value": 0.00054028, "n": 0}, {"scriptPubKey": {"type": "nulldata", "hex": "6a4c50000077ec00010bfa2521b752ef3a7ce7766b7af8e8e963c7cfd5b95b23cc0f42c2fc38c503919c38a803afc4f4de078971a44a4f5baa17a3061336a77aa18b1820599f7cb8fbacf7bab7719c405f2d9a", "asm": "OP_RETURN 000077ec00010bfa2521b752ef3a7ce7766b7af8e8e963c7cfd5b95b23cc0f42c2fc38c503919c38a803afc4f4de078971a44a4f5baa17a3061336a77aa18b1820599f7cb8fbacf7bab7719c405f2d9a"}, "value": 0.0, "n": 1}], "hex": "0100000001afcbce0d640854980c72fc7b25d1e0c6a5936ae6aba030570f02cbd844836e63000000006a4730440220210cd4c86a78660fcc548b609880cd08ca49a9fe005fdda42140422a03c4e51602201432b66073b8c86b275861e1ed207a064e36b527018b7b58730bc6a14982139401210225939af62442da5361545fe0f17f127c0493650a782346af0306096b43710db5ffffffff020cd30000000000001976a91494609fbef0b9d65a6ff0b8f312e9f630dce77efb88ac0000000000000000536a4c50000077ec00010bfa2521b752ef3a7ce7766b7af8e8e963c7cfd5b95b23cc0f42c2fc38c503919c38a803afc4f4de078971a44a4f5baa17a3061336a77aa18b1820599f7cb8fbacf7bab7719c405f2d9a00000000", "vin": [{"sequence": 4294967295, "scriptSig": {"hex": "4730440220210cd4c86a78660fcc548b609880cd08ca49a9fe005fdda42140422a03c4e51602201432b66073b8c86b275861e1ed207a064e36b527018b7b58730bc6a14982139401210225939af62442da5361545fe0f17f127c0493650a782346af0306096b43710db5", "asm": "30440220210cd4c86a78660fcc548b609880cd08ca49a9fe005fdda42140422a03c4e51602201432b66073b8c86b275861e1ed207a064e36b527018b7b58730bc6a149821394[ALL] 0225939af62442da5361545fe0f17f127c0493650a782346af0306096b43710db5"}, "vout": 0, "txid": "636e8344d8cb020f5730a0abe66a93a5c6e0d1257bfc720c985408640dcecbaf"}], "txid": "09da4ccd97d780a97aa167c6caa7b2a45b5b6a364888088f9b884fb0100e58b2", "blocktime": 1537873891, "version": 1, "confirmations": 11475, "time": 1537873891, "locktime": 0, "vsize": 283, "size": 283}