{"hash": "09e7d7da8e6d1314a11ca1ead495886ad3740a4ed7ca6ee4cc01e9105abba40f", "blockhash": "00000000000000000004ffacab907a6b429b9a5745fa0b75af4234bf69dd7176", "vout": [{"scriptPubKey": {"reqSigs": 1, "hex": "a91479fc07dd38d7657b423a14b1a8e2e90b6900a1bf87", "addresses": ["3Cp1cA35yuRymfL8tx4tEmuSPtfDx7Vzr3"], "asm": "OP_HASH160 79fc07dd38d7657b423a14b1a8e2e90b6900a1bf OP_EQUAL", "type": "scripthash"}, "value": 0.02812027, "n": 0}, {"scriptPubKey": {"reqSigs": 1, "hex": "76a914ba9ac78ce136cb0e9c5c5bed88d7335b415ca80688ac", "addresses": ["1J1g6wzjBCVZYQQhcd72fmgg4DZAA6P6ew"], "asm": "OP_DUP OP_HASH160 ba9ac78ce136cb0e9c5c5bed88d7335b415ca806 OP_EQUALVERIFY OP_CHECKSIG", "type": "pubkeyhash"}, "value": 0.00895573, "n": 1}], "hex": "02000000030907225fbb2ee8eb053e11d1c6cbee1c6ab12518d022aa2838ecd177ab6d7aa8000000006a4730440220011f21d456c34b9793bca131324ff1540f7382eb5d60cae56b466f532a09e30102202dd77be676270e25c65fc08a1cd2001d49756e0dd9d95d8edc8234bca49c0a73012102593ea917b028513e32ba29440ff65a15e3ca529f528c308c06ad4ea67fc9b90bfeffffffb9a9b9036f956aa7a5d8fc2faaa888f19da3ff57b1528f0b0cf605059950eb695a0000006b483045022100dff0f658e92734fd894ca50e3bd93d87c0a41fbc1e36ef0bb2022bd93aa550ef02206d65b68471f147bb163f7b745d49e729142ee6668097bb687c1409fd21ccde96012103deddff8375b077b94ad8f6f6c260d8fa6c6be20e208b6d7c395cd54183accc58feffffff5d500b81072d828b3e8679e89099ca64f4286111edd7f47f90bb2e06f9fd459c270000006a47304402200d12aa4f9ab9821f6aafea3fc25ea70ab20b8d4358b3cd42dd5bb5b51dc0ef5302200c81a5bdc2637dccead6e9e7d3ba17758ba42358c01033f4a7c5d729f90001180121036a84fad9ecc99bac2dfadac787177f700e97ffe84657b16a267d07460cee0e3ffeffffff027be82a000000000017a91479fc07dd38d7657b423a14b1a8e2e90b6900a1bf8755aa0d00000000001976a914ba9ac78ce136cb0e9c5c5bed88d7335b415ca80688ac16490800", "vin": [{"sequence": 4294967294, "scriptSig": {"hex": "4730440220011f21d456c34b9793bca131324ff1540f7382eb5d60cae56b466f532a09e30102202dd77be676270e25c65fc08a1cd2001d49756e0dd9d95d8edc8234bca49c0a73012102593ea917b028513e32ba29440ff65a15e3ca529f528c308c06ad4ea67fc9b90b", "asm": "30440220011f21d456c34b9793bca131324ff1540f7382eb5d60cae56b466f532a09e30102202dd77be676270e25c65fc08a1cd2001d49756e0dd9d95d8edc8234bca49c0a73[ALL] 02593ea917b028513e32ba29440ff65a15e3ca529f528c308c06ad4ea67fc9b90b"}, "vout": 0, "txid": "a87a6dab77d1ec3828aa22d01825b16a1ceecbc6d1113e05ebe82ebb5f220709"}, {"sequence": 4294967294, "scriptSig": {"hex": "483045022100dff0f658e92734fd894ca50e3bd93d87c0a41fbc1e36ef0bb2022bd93aa550ef02206d65b68471f147bb163f7b745d49e729142ee6668097bb687c1409fd21ccde96012103deddff8375b077b94ad8f6f6c260d8fa6c6be20e208b6d7c395cd54183accc58", "asm": "3045022100dff0f658e92734fd894ca50e3bd93d87c0a41fbc1e36ef0bb2022bd93aa550ef02206d65b68471f147bb163f7b745d49e729142ee6668097bb687c1409fd21ccde96[ALL] 03deddff8375b077b94ad8f6f6c260d8fa6c6be20e208b6d7c395cd54183accc58"}, "vout": 90, "txid": "69eb50990505f60c0b8f52b157ffa39df188a8aa2ffcd8a5a76a956f03b9a9b9"}, {"sequence": 4294967294, "scriptSig": {"hex": "47304402200d12aa4f9ab9821f6aafea3fc25ea70ab20b8d4358b3cd42dd5bb5b51dc0ef5302200c81a5bdc2637dccead6e9e7d3ba17758ba42358c01033f4a7c5d729f90001180121036a84fad9ecc99bac2dfadac787177f700e97ffe84657b16a267d07460cee0e3f", "asm": "304402200d12aa4f9ab9821f6aafea3fc25ea70ab20b8d4358b3cd42dd5bb5b51dc0ef5302200c81a5bdc2637dccead6e9e7d3ba17758ba42358c01033f4a7c5d729f9000118[ALL] 036a84fad9ecc99bac2dfadac787177f700e97ffe84657b16a267d07460cee0e3f"}, "vout": 39, "txid": "9c45fdf9062ebb907ff4d7ed116128f464ca9990e879863e8b822d07810b505d"}], "txid": "09e7d7da8e6d1314a11ca1ead495886ad3740a4ed7ca6ee4cc01e9105abba40f", "blocktime": 1537875543, "version": 2, "confirmations": 11464, "time": 1537875543, "locktime": 542998, "vsize": 518, "size": 518}