{"hash": "09e9e9f676e187239d3418a525ca15d210053c94f897181d94f73d62eaf1a8b0", "blockhash": "0000000000000000001f0ddff1eddb255c1121bcd4da4f1bc9a0da00cae72433", "vout": [{"scriptPubKey": {"reqSigs": 1, "hex": "a914b1863f10027120e13f4665d2663a25543b2642ba87", "addresses": ["3HsgM6Zz5xEEdwrkqwpNEN7HK6BrqJJd59"], "asm": "OP_HASH160 b1863f10027120e13f4665d2663a25543b2642ba OP_EQUAL", "type": "scripthash"}, "value": 0.03313442, "n": 0}, {"scriptPubKey": {"reqSigs": 1, "hex": "76a9149e8e839a660cea9c755bc8ba114ea3f4f0ffcc1e88ac", "addresses": ["1FTNVMvRsfhQkS5jwocuNPrQZofBHh6bBb"], "asm": "OP_DUP OP_HASH160 9e8e839a660cea9c755bc8ba114ea3f4f0ffcc1e OP_EQUALVERIFY OP_CHECKSIG", "type": "pubkeyhash"}, "value": 2.30164769, "n": 1}], "hex": "01000000017c5e4a190426c6a23f259ec3b453ab7781e5ba38155cd7e42391206d81226452010000006a473044022079aa45a7e6573f002a24240b858e6474fd81369086eb4c229f964a740bec0a99022050ecdc7d0239129966c613c81ade2631b5baa3759b73fe5c6a822bab79e2ab410121026408172de4cd2951459b09f123dbe33434eaed673b3447cfd3869d5f33055444ffffffff02228f32000000000017a914b1863f10027120e13f4665d2663a25543b2642ba872109b80d000000001976a9149e8e839a660cea9c755bc8ba114ea3f4f0ffcc1e88ac00000000", "vin": [{"sequence": 4294967295, "scriptSig": {"hex": "473044022079aa45a7e6573f002a24240b858e6474fd81369086eb4c229f964a740bec0a99022050ecdc7d0239129966c613c81ade2631b5baa3759b73fe5c6a822bab79e2ab410121026408172de4cd2951459b09f123dbe33434eaed673b3447cfd3869d5f33055444", "asm": "3044022079aa45a7e6573f002a24240b858e6474fd81369086eb4c229f964a740bec0a99022050ecdc7d0239129966c613c81ade2631b5baa3759b73fe5c6a822bab79e2ab41[ALL] 026408172de4cd2951459b09f123dbe33434eaed673b3447cfd3869d5f33055444"}, "vout": 1, "txid": "526422816d209123e4d75c1538bae58177ab53b4c39e253fa2c62604194a5e7c"}], "txid": "09e9e9f676e187239d3418a525ca15d210053c94f897181d94f73d62eaf1a8b0", "blocktime": 1537872018, "version": 1, "confirmations": 11489, "time": 1537872018, "locktime": 0, "vsize": 223, "size": 223}