{"hash": "09eb04f0584d3c7b913bf53b5c6e5b17765a4934a2ea10b5a9246f868526a3e6", "blockhash": "0000000000000000001cda96e906b7601b7a6fb1a3b62bca570a9e5d8f4b3de1", "vout": [{"scriptPubKey": {"reqSigs": 1, "hex": "76a91431357ba75230d8252228641c54934258d6be0cee88ac", "addresses": ["15VCBTyvVUzdrQF7U3A2MQYpLx3uksR3BQ"], "asm": "OP_DUP OP_HASH160 31357ba75230d8252228641c54934258d6be0cee OP_EQUALVERIFY OP_CHECKSIG", "type": "pubkeyhash"}, "value": 0.03733342, "n": 0}, {"scriptPubKey": {"reqSigs": 1, "hex": "76a9146586ced214191eaee684bf8787713d2671eff5aa88ac", "addresses": ["1AFpjzWNNtmMamjbbSSNLiVdktzrYMspCQ"], "asm": "OP_DUP OP_HASH160 6586ced214191eaee684bf8787713d2671eff5aa OP_EQUALVERIFY OP_CHECKSIG", "type": "pubkeyhash"}, "value": 0.26044114, "n": 1}], "hex": "0200000001e2795640b476f82b18c61ab51c3101890de7e0c05270610289306741e8fcbb8e010000006a47304402200e1da25ba7b7f27a816af328d9600a180860e5451bb1a9a5bb11909d8d9f05eb02203703006f1ae9bc3b47fdee9690639e9b495a29f9afe5a93e06da46860809115101210210dac65f236a05432a1dbd2f909aa1c6e1870304203e734e8d07db9b57443d46ffffffff025ef73800000000001976a91431357ba75230d8252228641c54934258d6be0cee88acd2668d01000000001976a9146586ced214191eaee684bf8787713d2671eff5aa88ac00000000", "vin": [{"sequence": 4294967295, "scriptSig": {"hex": "47304402200e1da25ba7b7f27a816af328d9600a180860e5451bb1a9a5bb11909d8d9f05eb02203703006f1ae9bc3b47fdee9690639e9b495a29f9afe5a93e06da46860809115101210210dac65f236a05432a1dbd2f909aa1c6e1870304203e734e8d07db9b57443d46", "asm": "304402200e1da25ba7b7f27a816af328d9600a180860e5451bb1a9a5bb11909d8d9f05eb02203703006f1ae9bc3b47fdee9690639e9b495a29f9afe5a93e06da468608091151[ALL] 0210dac65f236a05432a1dbd2f909aa1c6e1870304203e734e8d07db9b57443d46"}, "vout": 1, "txid": "8ebbfce84167308902617052c0e0e70d8901311cb51ac6182bf876b4405679e2"}], "txid": "09eb04f0584d3c7b913bf53b5c6e5b17765a4934a2ea10b5a9246f868526a3e6", "blocktime": 1537873282, "version": 2, "confirmations": 11484, "time": 1537873282, "locktime": 0, "vsize": 225, "size": 225}