{"hash": "09f812b641ec56e4801d5c41c7c3dd40376a8b203b906565a54975502ed0c445", "blockhash": "0000000000000000000e13cef7c366c0283d82e591d1acd082e914b08063cdf1", "vout": [{"scriptPubKey": {"reqSigs": 1, "hex": "76a9142d19892ef826bf8ea2dd163c6af9d881a6d74d4588ac", "addresses": ["157TztxtvZwVZanogmwZC19F8LwF6kv1jp"], "asm": "OP_DUP OP_HASH160 2d19892ef826bf8ea2dd163c6af9d881a6d74d45 OP_EQUALVERIFY OP_CHECKSIG", "type": "pubkeyhash"}, "value": 1.671e-05, "n": 0}, {"scriptPubKey": {"reqSigs": 1, "hex": "76a914745c1494863faface311f96ece9e7da2f5238a4088ac", "addresses": ["1BcFh7PJcP5QsmRo1uK2AoXQGGGj2R9hME"], "asm": "OP_DUP OP_HASH160 745c1494863faface311f96ece9e7da2f5238a40 OP_EQUALVERIFY OP_CHECKSIG", "type": "pubkeyhash"}, "value": 0.00703305, "n": 1}], "hex": "0100000001cc37950eb67a5f5468bf4d6c065532e742e2c53bc8302b4e86a16c9b0352ed54010000006a47304402207fb44765e3463deaed2e0df5bf7d69aa001003c7ca65a44c31b6a46075dcc1b902200de821f6fc13867088d1f71c7a4802c8bf27025d5b2a133b2f2b136d286ed5c80121033b10aced3ea7b3268bf2114c7cade63ea6696509070eab3d58082df27fc1a6c4ffffffff0287060000000000001976a9142d19892ef826bf8ea2dd163c6af9d881a6d74d4588ac49bb0a00000000001976a914745c1494863faface311f96ece9e7da2f5238a4088ac00000000", "vin": [{"sequence": 4294967295, "scriptSig": {"hex": "47304402207fb44765e3463deaed2e0df5bf7d69aa001003c7ca65a44c31b6a46075dcc1b902200de821f6fc13867088d1f71c7a4802c8bf27025d5b2a133b2f2b136d286ed5c80121033b10aced3ea7b3268bf2114c7cade63ea6696509070eab3d58082df27fc1a6c4", "asm": "304402207fb44765e3463deaed2e0df5bf7d69aa001003c7ca65a44c31b6a46075dcc1b902200de821f6fc13867088d1f71c7a4802c8bf27025d5b2a133b2f2b136d286ed5c8[ALL] 033b10aced3ea7b3268bf2114c7cade63ea6696509070eab3d58082df27fc1a6c4"}, "vout": 1, "txid": "54ed52039b6ca1864e2b30c83bc5e242e73255066c4dbf68545f7ab60e9537cc"}], "txid": "09f812b641ec56e4801d5c41c7c3dd40376a8b203b906565a54975502ed0c445", "blocktime": 1537871767, "version": 1, "confirmations": 11495, "time": 1537871767, "locktime": 0, "vsize": 225, "size": 225}