{"hash": "dfd3e6a3403d2678ef6dd093a58efec710b32dae23142738440306218b32525a", "blockhash": "0000000000000000001f0ddff1eddb255c1121bcd4da4f1bc9a0da00cae72433", "vout": [{"scriptPubKey": {"reqSigs": 1, "hex": "76a914484f57e79430570b457af21a01f1020d466e074b88ac", "addresses": ["17bLhgohhV5CeMJJnGnpsvxYGqS7nsneVb"], "asm": "OP_DUP OP_HASH160 484f57e79430570b457af21a01f1020d466e074b OP_EQUALVERIFY OP_CHECKSIG", "type": "pubkeyhash"}, "value": 0.000307, "n": 0}, {"scriptPubKey": {"reqSigs": 1, "hex": "a91461f24c3f4c0eb21ddb76800cd2750266a33aca7387", "addresses": ["3AcujJNtMBsj7m8PWvLoE4wQMsNkQdMo4u"], "asm": "OP_HASH160 61f24c3f4c0eb21ddb76800cd2750266a33aca73 OP_EQUAL", "type": "scripthash"}, "value": 0.192079, "n": 1}], "hex": "01000000000101244535ed069ea71a207d1299db0bc1a2fa936d9e7c398367b314416279f9abc4010000002322002014a90a8d94a4467ee9d1d6ee1be2a5fd8b8931a2c95351d0ff1c27c273e8b733ffffffff02ec770000000000001976a914484f57e79430570b457af21a01f1020d466e074b88acdc1625010000000017a91461f24c3f4c0eb21ddb76800cd2750266a33aca738704004730440220600b250636415ba3cdb0ed9975827e7c2e9d73042f0b21cc2185b77d14bff0fa02205a3d41393efa3c2f3496899761b4e4669a3e7d6695152b0670a3227ac4b2bb280147304402205e6c8bd678bde489c88bacc78d170c6ceea48b32e4d3372a298bcc86ce09ad920220025435a26134682c76e14895eecd40cf782c609a788db1975b455f18dd7c0a7401695221038d87b39abe4fa20a56e1e193a14bf77d780e33ea24b2d117c44db796b102ddb02102cdcf7d25c93358eb0fbfb6b063f7a5e33529eed6e03407bfbac930432c9b917021033e500ff6f39f84020aa76e02bfeaf105bb1c231f5f5aa9e9a7f408c94fe0dcc953ae00000000", "vin": [{"txinwitness": ["", "30440220600b250636415ba3cdb0ed9975827e7c2e9d73042f0b21cc2185b77d14bff0fa02205a3d41393efa3c2f3496899761b4e4669a3e7d6695152b0670a3227ac4b2bb2801", "304402205e6c8bd678bde489c88bacc78d170c6ceea48b32e4d3372a298bcc86ce09ad920220025435a26134682c76e14895eecd40cf782c609a788db1975b455f18dd7c0a7401", "5221038d87b39abe4fa20a56e1e193a14bf77d780e33ea24b2d117c44db796b102ddb02102cdcf7d25c93358eb0fbfb6b063f7a5e33529eed6e03407bfbac930432c9b917021033e500ff6f39f84020aa76e02bfeaf105bb1c231f5f5aa9e9a7f408c94fe0dcc953ae"], "sequence": 4294967295, "scriptSig": {"hex": "22002014a90a8d94a4467ee9d1d6ee1be2a5fd8b8931a2c95351d0ff1c27c273e8b733", "asm": "002014a90a8d94a4467ee9d1d6ee1be2a5fd8b8931a2c95351d0ff1c27c273e8b733"}, "vout": 1, "txid": "c4abf979624114b36783397c9e6d93faa2c10bdb99127d201aa79e06ed354524"}], "txid": "09f83aed3dfaf52695101c80dc81e254e5ddd58902967ec55d2f99d990061510", "blocktime": 1537872018, "version": 1, "confirmations": 11489, "time": 1537872018, "locktime": 0, "vsize": 216, "size": 406}