{"hash": "09f9eddc21b086c50b903867e4564432e69865a49a9e7351a3cd74e4f45dbd47", "blockhash": "0000000000000000001e0dab787dd257d1dbfcb92a98c2207d5e1078be1f4165", "vout": [{"scriptPubKey": {"type": "nulldata", "hex": "6a146f6d6e69000000000000001f000060680c58a000", "asm": "OP_RETURN 6f6d6e69000000000000001f000060680c58a000"}, "value": 0.0, "n": 0}, {"scriptPubKey": {"reqSigs": 1, "hex": "76a9146ec899c0bbdb7921092346e047a8cf4e4874ad6d88ac", "addresses": ["1B6me5MvLP7Mu1yYXB8mbEVtsRsQkeYr6X"], "asm": "OP_DUP OP_HASH160 6ec899c0bbdb7921092346e047a8cf4e4874ad6d OP_EQUALVERIFY OP_CHECKSIG", "type": "pubkeyhash"}, "value": 0.00205985, "n": 1}, {"scriptPubKey": {"reqSigs": 1, "hex": "76a914a25dec4d0011064ef106a983c39c7a540699f22088ac", "addresses": ["1FoWyxwPXuj4C6abqwhjDWdz6D4PZgYRjA"], "asm": "OP_DUP OP_HASH160 a25dec4d0011064ef106a983c39c7a540699f220 OP_EQUALVERIFY OP_CHECKSIG", "type": "pubkeyhash"}, "value": 5.46e-06, "n": 2}], "hex": "0100000001f5284a234ad44f8e6a3370dcedf0df34702abd6d54a6ba6b3a31de9ce02d446b020000006a47304402200d1770d8d39cf494abe71c7261171948212e2a32c9bdeeaf86706e1adfc422040220063aa2d162a463a0c64a71766e57699599d930ccc5a330dfa72e1e84e48bde3301210384490bbaad5393ddf7e613ecca8d813315b414261596ee151afdec343514c043feffffff030000000000000000166a146f6d6e69000000000000001f000060680c58a000a1240300000000001976a9146ec899c0bbdb7921092346e047a8cf4e4874ad6d88ac22020000000000001976a914a25dec4d0011064ef106a983c39c7a540699f22088ac12490800", "vin": [{"sequence": 4294967294, "scriptSig": {"hex": "47304402200d1770d8d39cf494abe71c7261171948212e2a32c9bdeeaf86706e1adfc422040220063aa2d162a463a0c64a71766e57699599d930ccc5a330dfa72e1e84e48bde3301210384490bbaad5393ddf7e613ecca8d813315b414261596ee151afdec343514c043", "asm": "304402200d1770d8d39cf494abe71c7261171948212e2a32c9bdeeaf86706e1adfc422040220063aa2d162a463a0c64a71766e57699599d930ccc5a330dfa72e1e84e48bde33[ALL] 0384490bbaad5393ddf7e613ecca8d813315b414261596ee151afdec343514c043"}, "vout": 2, "txid": "6b442de09cde313a6bbaa6546dbd2a7034dff0eddc70336a8e4fd44a234a28f5"}], "txid": "09f9eddc21b086c50b903867e4564432e69865a49a9e7351a3cd74e4f45dbd47", "blocktime": 1537872475, "version": 1, "confirmations": 11487, "time": 1537872475, "locktime": 542994, "vsize": 256, "size": 256}