{"hash": "09fc246c16347f37e536aac0ddba0a189f2655dde408afeecf62b27c0406d9c2", "blockhash": "0000000000000000000baef3f32e3676a92c3b2e5da21b426e4f302fc371ce76", "vout": [{"scriptPubKey": {"reqSigs": 1, "hex": "76a914d243e6abb9a60fbff430b421d2df4b7d59ec186088ac", "addresses": ["1LAnF8h3qMGx3TSwNUHVneBZUEpwE4gu3D"], "asm": "OP_DUP OP_HASH160 d243e6abb9a60fbff430b421d2df4b7d59ec1860 OP_EQUALVERIFY OP_CHECKSIG", "type": "pubkeyhash"}, "value": 0.00076972, "n": 0}, {"scriptPubKey": {"reqSigs": 1, "hex": "76a9143851f34d13937b673a7d24a1950bb5b21ce94af388ac", "addresses": ["168o1kqNquEJeR9vosUB5fw4eAwcVAgh8P"], "asm": "OP_DUP OP_HASH160 3851f34d13937b673a7d24a1950bb5b21ce94af3 OP_EQUALVERIFY OP_CHECKSIG", "type": "pubkeyhash"}, "value": 5.46e-06, "n": 1}, {"scriptPubKey": {"type": "nulldata", "hex": "6a146f6d6e69000000000000001f0000002e7d426980", "asm": "OP_RETURN 6f6d6e69000000000000001f0000002e7d426980"}, "value": 0.0, "n": 2}], "hex": "010000000261432572313005f6b79e746a9e4870d9b8c6b8df158c8e476c9d157d6322812f020000006a47304402206a1be1567f8a93578eac05f92d2135059af3ab2769286ef2eee010ccf4dd44190220536674e589a8ae8974cef83136d93cb9161a4d45ac6418d5f5bf383915ce6fe801210210ec64d9b28421e2e21efbc8a4e55a6d34d7318a770e542129c6dfe9a90c397fffffffff11175fe420a02ef988dada0c03e6c9c76a4302c9ead4fed0d71f4c0241510941000000006b483045022100e5b4424a8ecf34daadf832f5cf9c061d12894262a7d3d2abd7a8fba9f6f5e18a02205cc17ceea9cb3b0970b9570b761971cde3cdc59fe568a98b1ccaca6a585d1a7801210271977291b74f1f5f5c42157e8aae804664eaaeccfd097918450d37f28fb94d77ffffffff03ac2c0100000000001976a914d243e6abb9a60fbff430b421d2df4b7d59ec186088ac22020000000000001976a9143851f34d13937b673a7d24a1950bb5b21ce94af388ac0000000000000000166a146f6d6e69000000000000001f0000002e7d42698000000000", "vin": [{"sequence": 4294967295, "scriptSig": {"hex": "47304402206a1be1567f8a93578eac05f92d2135059af3ab2769286ef2eee010ccf4dd44190220536674e589a8ae8974cef83136d93cb9161a4d45ac6418d5f5bf383915ce6fe801210210ec64d9b28421e2e21efbc8a4e55a6d34d7318a770e542129c6dfe9a90c397f", "asm": "304402206a1be1567f8a93578eac05f92d2135059af3ab2769286ef2eee010ccf4dd44190220536674e589a8ae8974cef83136d93cb9161a4d45ac6418d5f5bf383915ce6fe8[ALL] 0210ec64d9b28421e2e21efbc8a4e55a6d34d7318a770e542129c6dfe9a90c397f"}, "vout": 2, "txid": "2f8122637d159d6c478e8c15dfb8c6b8d970489e6a749eb7f605303172254361"}, {"sequence": 4294967295, "scriptSig": {"hex": "483045022100e5b4424a8ecf34daadf832f5cf9c061d12894262a7d3d2abd7a8fba9f6f5e18a02205cc17ceea9cb3b0970b9570b761971cde3cdc59fe568a98b1ccaca6a585d1a7801210271977291b74f1f5f5c42157e8aae804664eaaeccfd097918450d37f28fb94d77", "asm": "3045022100e5b4424a8ecf34daadf832f5cf9c061d12894262a7d3d2abd7a8fba9f6f5e18a02205cc17ceea9cb3b0970b9570b761971cde3cdc59fe568a98b1ccaca6a585d1a78[ALL] 0271977291b74f1f5f5c42157e8aae804664eaaeccfd097918450d37f28fb94d77"}, "vout": 0, "txid": "41095141024c1fd7d0fed4eac902436ac7c9e6030cdada88f92ea020e45f1711"}], "txid": "09fc246c16347f37e536aac0ddba0a189f2655dde408afeecf62b27c0406d9c2", "blocktime": 1537876114, "version": 1, "confirmations": 11460, "time": 1537876114, "locktime": 0, "vsize": 404, "size": 404}