{"hash": "d3c61dcdb45b840fe1650af6e91413f4e01a02b0f786f2c7db7941fc2b925b04", "blockhash": "000000000000000000022b45ed06c6f4ccd3cf7fb5ba4856ebd2e58215665228", "vout": [{"scriptPubKey": {"reqSigs": 1, "hex": "76a914df68b84a0eb7b22cc15ecb2edf60e9f7d8ddda6e88ac", "addresses": ["1MNH8qtsZhqLUYjszGTEtZwe8nbXur8eKH"], "asm": "OP_DUP OP_HASH160 df68b84a0eb7b22cc15ecb2edf60e9f7d8ddda6e OP_EQUALVERIFY OP_CHECKSIG", "type": "pubkeyhash"}, "value": 0.2385, "n": 0}, {"scriptPubKey": {"reqSigs": 1, "hex": "a9142544cb240c39c09c1c0d5cfd8ff8057315f10a6387", "addresses": ["3565LVtm5kQugG1debJG5Mw6k5eRuzYFt9"], "asm": "OP_HASH160 2544cb240c39c09c1c0d5cfd8ff8057315f10a63 OP_EQUAL", "type": "scripthash"}, "value": 0.01252765, "n": 1}], "hex": "02000000000102807470cce8eb89b4205ac2f1fd2363e2af9d5edf7c8b2e966c953539da421d4202000000171600149db835d8963d984e23b86b73aaa8ef8385914e21feffffff9051d755f98c81e40e2fb470b917214dd4c1fba0d9718c5ecf325779fbcddce701000000171600144284fa7d0094551a87495e1552cec3fe29182625feffffff0210ec6b01000000001976a914df68b84a0eb7b22cc15ecb2edf60e9f7d8ddda6e88ac9d1d13000000000017a9142544cb240c39c09c1c0d5cfd8ff8057315f10a6387024730440220675c3b8ccd73d94c6f50d013b6afcb3d91a33257c8fb7456fa2e81ebfa00a49802202b27e09c241f9a786ba4661192deda9b5b648f50a6e07827f007a4857d6400f90121038108eed7223b8cfaff6afa08c2e277d492034fd60b261b6c8db8d7c2a4ce77250247304402207bc8d6ad69adc18ea84d0380fdc184a14fda07dad1c47f0a172c5b23aeb4e98d02201ca4108af15be6130b9e1e3901b02f96f067b562139adf465d33651249f1edec0121021cc7381bd7c2f78f24752b657e0ff8d3900923a3d5052fd57531404f788c6a680b490800", "vin": [{"txinwitness": ["30440220675c3b8ccd73d94c6f50d013b6afcb3d91a33257c8fb7456fa2e81ebfa00a49802202b27e09c241f9a786ba4661192deda9b5b648f50a6e07827f007a4857d6400f901", "038108eed7223b8cfaff6afa08c2e277d492034fd60b261b6c8db8d7c2a4ce7725"], "sequence": 4294967294, "scriptSig": {"hex": "1600149db835d8963d984e23b86b73aaa8ef8385914e21", "asm": "00149db835d8963d984e23b86b73aaa8ef8385914e21"}, "vout": 2, "txid": "421d42da3935956c962e8b7cdf5e9dafe26323fdf1c25a20b489ebe8cc707480"}, {"txinwitness": ["304402207bc8d6ad69adc18ea84d0380fdc184a14fda07dad1c47f0a172c5b23aeb4e98d02201ca4108af15be6130b9e1e3901b02f96f067b562139adf465d33651249f1edec01", "021cc7381bd7c2f78f24752b657e0ff8d3900923a3d5052fd57531404f788c6a68"], "sequence": 4294967294, "scriptSig": {"hex": "1600144284fa7d0094551a87495e1552cec3fe29182625", "asm": "00144284fa7d0094551a87495e1552cec3fe29182625"}, "vout": 1, "txid": "e7dccdfb795732cf5e8c71d9a0fbc1d44d2117b970b42f0ee4818cf955d75190"}], "txid": "0a0467984e2ae12d76ce0883a48fd04fa8eac9b0425f5626112f39abf5347748", "blocktime": 1537869901, "version": 2, "confirmations": 11522, "time": 1537869901, "locktime": 542987, "vsize": 258, "size": 420}