{"hash": "4d9e40ddfc655ed44cd78f9bbf579a807291f86e6a832e588194702f0c95c4cf", "blockhash": "0000000000000000001cda96e906b7601b7a6fb1a3b62bca570a9e5d8f4b3de1", "vout": [{"scriptPubKey": {"reqSigs": 1, "hex": "a914ca7468fed3a4def5fe5703920988f534c187edaf87", "addresses": ["3L9VscS3N6scgFHXpQxoHcEio5NdCBhjD9"], "asm": "OP_HASH160 ca7468fed3a4def5fe5703920988f534c187edaf OP_EQUAL", "type": "scripthash"}, "value": 0.0028216, "n": 0}, {"scriptPubKey": {"reqSigs": 1, "hex": "a914adb5ea0a50f61cd0788d463b66ecc5ef316ff2bf87", "addresses": ["3HXWkMNPkkaSKL4nQJrfSXMGdqD7Hp8R71"], "asm": "OP_HASH160 adb5ea0a50f61cd0788d463b66ecc5ef316ff2bf OP_EQUAL", "type": "scripthash"}, "value": 0.0042806, "n": 1}, {"scriptPubKey": {"reqSigs": 1, "hex": "a914fcdfaf1c19473a66bd3ef8768d3b05e55121e17b87", "addresses": ["3Qk6AiufnKgdkd2NpjNngDKeFtXPp7TcyV"], "asm": "OP_HASH160 fcdfaf1c19473a66bd3ef8768d3b05e55121e17b OP_EQUAL", "type": "scripthash"}, "value": 0.0019236, "n": 2}, {"scriptPubKey": {"reqSigs": 1, "hex": "a914ef2ddc83dc67d8f6e42482d327853902c891adc987", "addresses": ["3PVgMtwGVQHfGUNtU7dD3Egx6HB37MznLf"], "asm": "OP_HASH160 ef2ddc83dc67d8f6e42482d327853902c891adc9 OP_EQUAL", "type": "scripthash"}, "value": 0.00328735, "n": 3}, {"scriptPubKey": {"reqSigs": 1, "hex": "76a91402ec1c392473e0b867c9bac60b0d1ffb38d0b2bb88ac", "addresses": ["1GTCcT9NLsdjahjCmHo4YkeZt8a5R6iC6"], "asm": "OP_DUP OP_HASH160 02ec1c392473e0b867c9bac60b0d1ffb38d0b2bb OP_EQUALVERIFY OP_CHECKSIG", "type": "pubkeyhash"}, "value": 0.00245, "n": 4}, {"scriptPubKey": {"reqSigs": 1, "hex": "a914266aaa227f387ef7b9e868a52da269a3a14c335287", "addresses": ["35C9P23jppMfiCH3UoFMoFeVEC414v57yA"], "asm": "OP_HASH160 266aaa227f387ef7b9e868a52da269a3a14c3352 OP_EQUAL", "type": "scripthash"}, "value": 0.0013058, "n": 5}, {"scriptPubKey": {"reqSigs": 1, "hex": "a914debac2e1c16857dc69acee2f98c1cad15ac7540487", "addresses": ["3MzhfXgLkqbQQCTj4rtobiZFmE7nVoWAGE"], "asm": "OP_HASH160 debac2e1c16857dc69acee2f98c1cad15ac75404 OP_EQUAL", "type": "scripthash"}, "value": 0.00506031, "n": 6}, {"scriptPubKey": {"reqSigs": 1, "hex": "a9143378a241c8a0a0b3e1821c3a1523344a9f29669787", "addresses": ["36PAu7RgiYU2PSN9nsMU3bUvGEugzTPSYn"], "asm": "OP_HASH160 3378a241c8a0a0b3e1821c3a1523344a9f296697 OP_EQUAL", "type": "scripthash"}, "value": 0.0025646, "n": 7}, {"scriptPubKey": {"reqSigs": 1, "hex": "a914506fa7e0ee4fc0461bf182eae0b4a34fd71e5ef187", "addresses": ["392KjsPGXPoCJqNnk5HBGi1UgA54zdnHPy"], "asm": "OP_HASH160 506fa7e0ee4fc0461bf182eae0b4a34fd71e5ef1 OP_EQUAL", "type": "scripthash"}, "value": 0.0019256, "n": 8}, {"scriptPubKey": {"reqSigs": 1, "hex": "a914626395abf006fee5bd7cd4d2866cf625b572e70a87", "addresses": ["3AfFSc7h5PTxJq2MzQgh4K796L7hKGHZsB"], "asm": "OP_HASH160 626395abf006fee5bd7cd4d2866cf625b572e70a OP_EQUAL", "type": "scripthash"}, "value": 2.32083843, "n": 9}, {"scriptPubKey": {"reqSigs": 1, "hex": "a9146c1d4e0c480ca112ea29dd9dce5ccd889020178a87", "addresses": ["3BYg1Q9KqjXbfPUUF1g9CuEpSnABMt3AaY"], "asm": "OP_HASH160 6c1d4e0c480ca112ea29dd9dce5ccd889020178a OP_EQUAL", "type": "scripthash"}, "value": 0.00475, "n": 10}, {"scriptPubKey": {"reqSigs": 1, "hex": "a9143eb9070196b50f98f6d42d5ccd3c917af0aa264787", "addresses": ["37QfUN5FBxxkUKHH3ijcXLvTVd1gXrUJ3v"], "asm": "OP_HASH160 3eb9070196b50f98f6d42d5ccd3c917af0aa2647 OP_EQUAL", "type": "scripthash"}, "value": 0.0051886, "n": 11}, {"scriptPubKey": {"reqSigs": 1, "hex": "a91478af6c32ffbec0de19c9896eed9d9f2227c489df87", "addresses": ["3Ch9A9FQ2yxgc6bzp2ZCRzNBK4WG7QMzH2"], "asm": "OP_HASH160 78af6c32ffbec0de19c9896eed9d9f2227c489df OP_EQUAL", "type": "scripthash"}, "value": 0.0028496, "n": 12}, {"scriptPubKey": {"reqSigs": 1, "hex": "a9148abf96b7d33cc2bfd871bcdbb307cd65ec84653f87", "addresses": ["3ELegqR3HTdCghy7HSt6wC3zgFR4beybqX"], "asm": "OP_HASH160 8abf96b7d33cc2bfd871bcdbb307cd65ec84653f OP_EQUAL", "type": "scripthash"}, "value": 0.0035626, "n": 13}, {"scriptPubKey": {"reqSigs": 1, "hex": "a91480dd02944b36c54ab482564e89dd5f755d6c464587", "addresses": ["3DSPB9VjHjHGH5FWGihWgGCaUgczwzXNS8"], "asm": "OP_HASH160 80dd02944b36c54ab482564e89dd5f755d6c4645 OP_EQUAL", "type": "scripthash"}, "value": 0.0035486, "n": 14}, {"scriptPubKey": {"reqSigs": 1, "hex": "a9145303bb494b8e29c7f6923ceb9dc3a8ecfac3a2f687", "addresses": ["39FxUjvdvGpz3AEnUaFLKYfjNqgMckEofE"], "asm": "OP_HASH160 5303bb494b8e29c7f6923ceb9dc3a8ecfac3a2f6 OP_EQUAL", "type": "scripthash"}, "value": 0.0021376, "n": 15}, {"scriptPubKey": {"reqSigs": 1, "hex": "76a914353d0155b80a35c7a888b2954f567ab16df801bc88ac", "addresses": ["15rVttFT5VUCESaTNztqfoQfgaPnZfRnoB"], "asm": "OP_DUP OP_HASH160 353d0155b80a35c7a888b2954f567ab16df801bc OP_EQUALVERIFY OP_CHECKSIG", "type": "pubkeyhash"}, "value": 0.00221563, "n": 16}, {"scriptPubKey": {"reqSigs": 1, "hex": "a91455caa5259d86ee640507c93447bda2c4e0a7da1487", "addresses": ["39We7st9QoaJEh5YhT2neNUjorLydTHfJW"], "asm": "OP_HASH160 55caa5259d86ee640507c93447bda2c4e0a7da14 OP_EQUAL", "type": "scripthash"}, "value": 0.00460575, "n": 17}, {"scriptPubKey": {"reqSigs": 1, "hex": "a914de7c903e365b7b18d6837bfa697632b549bbfad087", "addresses": ["3MyR9x5383fZc4VjH8RRym494bjNjkwvk6"], "asm": "OP_HASH160 de7c903e365b7b18d6837bfa697632b549bbfad0 OP_EQUAL", "type": "scripthash"}, "value": 0.0026636, "n": 18}, {"scriptPubKey": {"reqSigs": 1, "hex": "a9142d100627cc6e566164688d2f3776e0f79cb3fa0687", "addresses": ["35oHXYduzAbSocSqmTbWR9DcjWyz9gkiiA"], "asm": "OP_HASH160 2d100627cc6e566164688d2f3776e0f79cb3fa06 OP_EQUAL", "type": "scripthash"}, "value": 0.00558177, "n": 19}, {"scriptPubKey": {"reqSigs": 1, "hex": "a914d0aab5d013c5014749af87a4628a57301c74cecb87", "addresses": ["3LiLybcRBNSov7N5eCbUCQsMQ2rhSjGsV1"], "asm": "OP_HASH160 d0aab5d013c5014749af87a4628a57301c74cecb OP_EQUAL", "type": "scripthash"}, "value": 0.0014676, "n": 20}, {"scriptPubKey": {"reqSigs": 1, "hex": "a914ed4f8dae4afc8faf1ad52a5d97bad0f1861fe7d187", "addresses": ["3PKoNUefQLszcZr9rAJZtys1ANgcjEjKeR"], "asm": "OP_HASH160 ed4f8dae4afc8faf1ad52a5d97bad0f1861fe7d1 OP_EQUAL", "type": "scripthash"}, "value": 0.0031916, "n": 21}, {"scriptPubKey": {"reqSigs": 1, "hex": "a9141aeca3099b330f2484ee788ef0d3038b4aac5ff787", "addresses": ["349NyMCGEYHYuhexHzEFMyruAcJvyJD3hF"], "asm": "OP_HASH160 1aeca3099b330f2484ee788ef0d3038b4aac5ff7 OP_EQUAL", "type": "scripthash"}, "value": 0.00339164, "n": 22}], "hex": "0200000000010174a496854bea4c4c355dd6a8a276333f07c31195b080cc834d173a52fe7337540000000017160014e3d7f9514af993a90f50eecc0f9070d7e7ff8a39feffffff17304e04000000000017a914ca7468fed3a4def5fe5703920988f534c187edaf871c8806000000000017a914adb5ea0a50f61cd0788d463b66ecc5ef316ff2bf8768ef02000000000017a914fcdfaf1c19473a66bd3ef8768d3b05e55121e17b871f0405000000000017a914ef2ddc83dc67d8f6e42482d327853902c891adc98708bd0300000000001976a91402ec1c392473e0b867c9bac60b0d1ffb38d0b2bb88ac14fe01000000000017a914266aaa227f387ef7b9e868a52da269a3a14c335287afb807000000000017a914debac2e1c16857dc69acee2f98c1cad15ac7540487cce903000000000017a9143378a241c8a0a0b3e1821c3a1523344a9f2966978730f002000000000017a914506fa7e0ee4fc0461bf182eae0b4a34fd71e5ef1878351d50d0000000017a914626395abf006fee5bd7cd4d2866cf625b572e70a87783f07000000000017a9146c1d4e0c480ca112ea29dd9dce5ccd889020178a87ccea07000000000017a9143eb9070196b50f98f6d42d5ccd3c917af0aa264787205904000000000017a91478af6c32ffbec0de19c9896eed9d9f2227c489df87a46f05000000000017a9148abf96b7d33cc2bfd871bcdbb307cd65ec84653f872c6a05000000000017a91480dd02944b36c54ab482564e89dd5f755d6c464587004303000000000017a9145303bb494b8e29c7f6923ceb9dc3a8ecfac3a2f6877b610300000000001976a914353d0155b80a35c7a888b2954f567ab16df801bc88ac1f0707000000000017a91455caa5259d86ee640507c93447bda2c4e0a7da1487781004000000000017a914de7c903e365b7b18d6837bfa697632b549bbfad087618408000000000017a9142d100627cc6e566164688d2f3776e0f79cb3fa0687483d02000000000017a914d0aab5d013c5014749af87a4628a57301c74cecb87b8de04000000000017a914ed4f8dae4afc8faf1ad52a5d97bad0f1861fe7d187dc2c05000000000017a9141aeca3099b330f2484ee788ef0d3038b4aac5ff78702483045022100d2cbd2b41d8de759b7028e70bcdfd4f194362e148ece837717ba78c1d54c7adf022062adcd8923aea9c934d4c12a216904ada0ab9403f86d5c0c0cbdba95d7d2e72401210323064b99685ec639d07d872cc4bab3de2318644b0812d769f777d1d029fa72ea13490800", "vin": [{"txinwitness": ["3045022100d2cbd2b41d8de759b7028e70bcdfd4f194362e148ece837717ba78c1d54c7adf022062adcd8923aea9c934d4c12a216904ada0ab9403f86d5c0c0cbdba95d7d2e72401", "0323064b99685ec639d07d872cc4bab3de2318644b0812d769f777d1d029fa72ea"], "sequence": 4294967294, "scriptSig": {"hex": "160014e3d7f9514af993a90f50eecc0f9070d7e7ff8a39", "asm": "0014e3d7f9514af993a90f50eecc0f9070d7e7ff8a39"}, "vout": 0, "txid": "543773fe523a174d83cc80b09511c3073f3376a2a8d65d354c4cea4b8596a474"}], "txid": "0a0555fc8adac13297ce559ba0ae867b2edd71472f42f92806a01481b8f0c87f", "blocktime": 1537873282, "version": 2, "confirmations": 11480, "time": 1537873282, "locktime": 542995, "vsize": 842, "size": 924}