{"hash": "2c7ebd79594fb852ed0b48b13fa57c04a21d71fe8885f00f51f7b0bb8bb8bcb4", "blockhash": "00000000000000000018f53835495a110e01622372bf6ae95dc86f2b0ab887b0", "vout": [{"scriptPubKey": {"reqSigs": 1, "hex": "a9147ee8734500270275142ae13c0079e9fe151494fc87", "addresses": ["3DG3XeDJFgEZxyven5KdgNAPPnoHB1qTzP"], "asm": "OP_HASH160 7ee8734500270275142ae13c0079e9fe151494fc OP_EQUAL", "type": "scripthash"}, "value": 216.52177823, "n": 0}], "hex": "010000000001029ab63057869dd109a5875375c3cfbce70d51707b6b8210e2a94bc2ea6135183700000000171600149ad86fd1f67b7fe5a1fd5eb7e5d856c0b020f2daffffffff27709338e068de0a80e3dab9364f54ab471ed3d4e9c6a0604ff409eba6ea89b0010000001716001473172477c2f03f07bac695d177aaf503b0c6d8e9ffffffff019f03920a0500000017a9147ee8734500270275142ae13c0079e9fe151494fc870247304402203aca86d366782149ce264cec34778ee78929ed1e9b403507577daeaa74e52433022040f38a47b9cccacccb3bc0cacf8e9b53516d7a3357f61a5d128039064533975a01210389bdfdba4dceeb76dbaa95a91434e06fea6e7b0037a7372ba74b5852fc1de82d0248304502210095f64c5c85f2d1e4a34c75405b70b6d36ef4da60ccdf586ed36072bb9a98cea602205a987478389e4ea29bba965fbde21dc428d4b435e66f549683718ae4193e31f3012103510ece6b5cfd35000e27d24d5218de312ba336c67a611306f3e123b1e3748a6f00000000", "vin": [{"txinwitness": ["304402203aca86d366782149ce264cec34778ee78929ed1e9b403507577daeaa74e52433022040f38a47b9cccacccb3bc0cacf8e9b53516d7a3357f61a5d128039064533975a01", "0389bdfdba4dceeb76dbaa95a91434e06fea6e7b0037a7372ba74b5852fc1de82d"], "sequence": 4294967295, "scriptSig": {"hex": "1600149ad86fd1f67b7fe5a1fd5eb7e5d856c0b020f2da", "asm": "00149ad86fd1f67b7fe5a1fd5eb7e5d856c0b020f2da"}, "vout": 0, "txid": "37183561eac24ba9e210826b7b70510de7bccfc3755387a509d19d865730b69a"}, {"txinwitness": ["304502210095f64c5c85f2d1e4a34c75405b70b6d36ef4da60ccdf586ed36072bb9a98cea602205a987478389e4ea29bba965fbde21dc428d4b435e66f549683718ae4193e31f301", "03510ece6b5cfd35000e27d24d5218de312ba336c67a611306f3e123b1e3748a6f"], "sequence": 4294967295, "scriptSig": {"hex": "16001473172477c2f03f07bac695d177aaf503b0c6d8e9", "asm": "001473172477c2f03f07bac695d177aaf503b0c6d8e9"}, "vout": 1, "txid": "b089eaa6eb09f44f60a0c6e9d4d31e47ab544f36b9dae3800ade68e038937027"}], "txid": "0a0804044f2d16c0063ea242b051a53f80de0640f2569fa96a9d090828fa5329", "blocktime": 1537870928, "version": 1, "confirmations": 11514, "time": 1537870928, "locktime": 0, "vsize": 225, "size": 387}