{"hash": "1c1f66c60f995a519f14eb8d86e0caf3fb003d3ed20da7c32f7745ac4b497056", "blockhash": "0000000000000000000e13cef7c366c0283d82e591d1acd082e914b08063cdf1", "vout": [{"scriptPubKey": {"reqSigs": 1, "hex": "76a914bbaec083b5e6b2619a44122d11954d363152fd0488ac", "addresses": ["1J7NhraWXwxB5EzsPgHjvHxXqAAYgWV397"], "asm": "OP_DUP OP_HASH160 bbaec083b5e6b2619a44122d11954d363152fd04 OP_EQUALVERIFY OP_CHECKSIG", "type": "pubkeyhash"}, "value": 0.00485, "n": 0}, {"scriptPubKey": {"reqSigs": 1, "hex": "a914675f8ff1299fcf89aba909e86ebd4e132c44eb1387", "addresses": ["3B7c15ujuwHmFM82p7atnpEZDkhtrsQ49r"], "asm": "OP_HASH160 675f8ff1299fcf89aba909e86ebd4e132c44eb13 OP_EQUAL", "type": "scripthash"}, "value": 0.00999472, "n": 1}], "hex": "0200000000010254b9546efaaba777052951a23a86336b5daefcbad462950549dda838cac2cfd5000000001716001410e04b4f3f9456ab70388f4824c3b40707db521dfeffffffa1c9a7e91089fb848af1ad0dd880a35c637f480acef6ecd6b87aab1d47eb33a601000000171600147e40b7900a10f72756953c870be632b0078be176feffffff0288660700000000001976a914bbaec083b5e6b2619a44122d11954d363152fd0488ac30400f000000000017a914675f8ff1299fcf89aba909e86ebd4e132c44eb13870247304402200428b4c912b26381a7b0e3ab2cf0282fe5d678a775acf20a6f181802c7b04fac02202088f41056d37e00227cc680da41c29b26e899f392a3540667fd5d4efbea842f0121027bc0f4adce993b45cceae95ba82f0b9d61acaaa21c537dc13a481dff8e7a5b3102473044022069178abad82f7520097ad783c8ab95634f8effff2f5c26febbb1a59187b8037f02205b04b944cdf76e3c1cc3da33d606e0626e73df4f7b4ddd70a18e3ec71086b2ad01210243c03de40f07f50c66ea5bbfa14262e140f63bfef5e486220e7c59d2f5b27e0110490800", "vin": [{"txinwitness": ["304402200428b4c912b26381a7b0e3ab2cf0282fe5d678a775acf20a6f181802c7b04fac02202088f41056d37e00227cc680da41c29b26e899f392a3540667fd5d4efbea842f01", "027bc0f4adce993b45cceae95ba82f0b9d61acaaa21c537dc13a481dff8e7a5b31"], "sequence": 4294967294, "scriptSig": {"hex": "16001410e04b4f3f9456ab70388f4824c3b40707db521d", "asm": "001410e04b4f3f9456ab70388f4824c3b40707db521d"}, "vout": 0, "txid": "d5cfc2ca38a8dd49059562d4bafcae5d6b33863aa251290577a7abfa6e54b954"}, {"txinwitness": ["3044022069178abad82f7520097ad783c8ab95634f8effff2f5c26febbb1a59187b8037f02205b04b944cdf76e3c1cc3da33d606e0626e73df4f7b4ddd70a18e3ec71086b2ad01", "0243c03de40f07f50c66ea5bbfa14262e140f63bfef5e486220e7c59d2f5b27e01"], "sequence": 4294967294, "scriptSig": {"hex": "1600147e40b7900a10f72756953c870be632b0078be176", "asm": "00147e40b7900a10f72756953c870be632b0078be176"}, "vout": 1, "txid": "a633eb471dab7ab8d6ecf6ce0a487f635ca380d80dadf18a84fb8910e9a7c9a1"}], "txid": "0a13dbfe3dddd4c2aebc19e62e07b35b44654f8253156c794a973582fdba057c", "blocktime": 1537871767, "version": 2, "confirmations": 11495, "time": 1537871767, "locktime": 542992, "vsize": 258, "size": 420}