{"hash": "0a158ebd99781a91dfac82e1c1a3badd02fab43057d0cbe66e817c0bdf018dbd", "blockhash": "0000000000000000001cda96e906b7601b7a6fb1a3b62bca570a9e5d8f4b3de1", "vout": [{"scriptPubKey": {"reqSigs": 1, "hex": "a91472ded2a0f667f988474901051d34edfe002fbf7187", "addresses": ["3CAPtQipnAYQV68mthjx8ukz7FXHUJfbNo"], "asm": "OP_HASH160 72ded2a0f667f988474901051d34edfe002fbf71 OP_EQUAL", "type": "scripthash"}, "value": 0.48958668, "n": 0}], "hex": "0100000005d6c5a1e2233b3159e2e7756fd1dfd0d73957f4478e98fcec61abe1a494aa7b18010000006b483045022100a413e3614d4f09605098ec84a09d9000206335280dd06113317160c07588796c022001d2ffe10a58ea6816a18a6f228fa18c18c2f7f003506d9ade1f61a1a8cc4e0a012103fcbda3d19dc6891d77d14d770eeabd93c7755192fa6ceb7576cb762c4df17f90fdffffffae69633ef7783f940d100c3a442b13b13f15e5c44c7506566338985fd187651c010000006b483045022100dd78ba1f6424c0e92ece9bce05aae6c2bccebd537bcc57af7d8f5e4407ea32b5022074a473af835b36dc5ccb14159674a156b75b3d990cb8cedb320c038676c8e8cc012102375e7a03edbcc8cab00fbb34eff0e6254f31e69244cc6de0275bfcc3b63b67aafdffffff2af3e666a2d9a80cd9ed7caa0067c73bcabb23f954926a2e162d12a7c1630794000000006a47304402202b66def0148826d73ab9f1dd10dd4f51598d5bf8f4ea8dc4c2cc3c5cac143871022076babf3789dfdb87b2d27adaf67b2d57052be20fde7ffc2e387571a8eca95e6301210206a8e1eb5e94c8a3d3ac10e3d4e4e4daf5fe97ca987c2568656da30a05971e8bfdffffffc01f2a2619687b9c197ec9b9450fee5a82a55762ed5ebbe1db97bf7f88cbb59c000000006a473044022003a16e01a3f5dccb151fa7648bbbeeed6af0d27425208595c1594ef6fe1b2d810220104547c157ae0bb10f223492f2b85fcd37333b4da2a9b5fd777acdcd4efd3db0012102896ac99c53f0d3d5897af9918295b7b6992ddc8a90a2225587e43c55bf2a51e1fdffffffa44b312650d3e9380bfdf22d5d6db891b5d555fd0924b6e361d340bae41631cf010000006b483045022100aa08141767331f92fd7ace1b75105b8be6592e3d9fed74cd943f02eefd3dd39802203c73edc73096b93e8279a48966e7647081d70ee68feddc17ff47a01171338abb01210369ceaf69c2e23646b6a704bf51017e60cbbbd5dd9cdd7b3a14b4484260832860fdffffff01cc0ceb020000000017a91472ded2a0f667f988474901051d34edfe002fbf718713490800", "vin": [{"sequence": 4294967293, "scriptSig": {"hex": "483045022100a413e3614d4f09605098ec84a09d9000206335280dd06113317160c07588796c022001d2ffe10a58ea6816a18a6f228fa18c18c2f7f003506d9ade1f61a1a8cc4e0a012103fcbda3d19dc6891d77d14d770eeabd93c7755192fa6ceb7576cb762c4df17f90", "asm": "3045022100a413e3614d4f09605098ec84a09d9000206335280dd06113317160c07588796c022001d2ffe10a58ea6816a18a6f228fa18c18c2f7f003506d9ade1f61a1a8cc4e0a[ALL] 03fcbda3d19dc6891d77d14d770eeabd93c7755192fa6ceb7576cb762c4df17f90"}, "vout": 1, "txid": "187baa94a4e1ab61ecfc988e47f45739d7d0dfd16f75e7e259313b23e2a1c5d6"}, {"sequence": 4294967293, "scriptSig": {"hex": "483045022100dd78ba1f6424c0e92ece9bce05aae6c2bccebd537bcc57af7d8f5e4407ea32b5022074a473af835b36dc5ccb14159674a156b75b3d990cb8cedb320c038676c8e8cc012102375e7a03edbcc8cab00fbb34eff0e6254f31e69244cc6de0275bfcc3b63b67aa", "asm": "3045022100dd78ba1f6424c0e92ece9bce05aae6c2bccebd537bcc57af7d8f5e4407ea32b5022074a473af835b36dc5ccb14159674a156b75b3d990cb8cedb320c038676c8e8cc[ALL] 02375e7a03edbcc8cab00fbb34eff0e6254f31e69244cc6de0275bfcc3b63b67aa"}, "vout": 1, "txid": "1c6587d15f9838635606754cc4e5153fb1132b443a0c100d943f78f73e6369ae"}, {"sequence": 4294967293, "scriptSig": {"hex": "47304402202b66def0148826d73ab9f1dd10dd4f51598d5bf8f4ea8dc4c2cc3c5cac143871022076babf3789dfdb87b2d27adaf67b2d57052be20fde7ffc2e387571a8eca95e6301210206a8e1eb5e94c8a3d3ac10e3d4e4e4daf5fe97ca987c2568656da30a05971e8b", "asm": "304402202b66def0148826d73ab9f1dd10dd4f51598d5bf8f4ea8dc4c2cc3c5cac143871022076babf3789dfdb87b2d27adaf67b2d57052be20fde7ffc2e387571a8eca95e63[ALL] 0206a8e1eb5e94c8a3d3ac10e3d4e4e4daf5fe97ca987c2568656da30a05971e8b"}, "vout": 0, "txid": "940763c1a7122d162e6a9254f923bbca3bc76700aa7cedd90ca8d9a266e6f32a"}, {"sequence": 4294967293, "scriptSig": {"hex": "473044022003a16e01a3f5dccb151fa7648bbbeeed6af0d27425208595c1594ef6fe1b2d810220104547c157ae0bb10f223492f2b85fcd37333b4da2a9b5fd777acdcd4efd3db0012102896ac99c53f0d3d5897af9918295b7b6992ddc8a90a2225587e43c55bf2a51e1", "asm": "3044022003a16e01a3f5dccb151fa7648bbbeeed6af0d27425208595c1594ef6fe1b2d810220104547c157ae0bb10f223492f2b85fcd37333b4da2a9b5fd777acdcd4efd3db0[ALL] 02896ac99c53f0d3d5897af9918295b7b6992ddc8a90a2225587e43c55bf2a51e1"}, "vout": 0, "txid": "9cb5cb887fbf97dbe1bb5eed6257a5825aee0f45b9c97e199c7b6819262a1fc0"}, {"sequence": 4294967293, "scriptSig": {"hex": "483045022100aa08141767331f92fd7ace1b75105b8be6592e3d9fed74cd943f02eefd3dd39802203c73edc73096b93e8279a48966e7647081d70ee68feddc17ff47a01171338abb01210369ceaf69c2e23646b6a704bf51017e60cbbbd5dd9cdd7b3a14b4484260832860", "asm": "3045022100aa08141767331f92fd7ace1b75105b8be6592e3d9fed74cd943f02eefd3dd39802203c73edc73096b93e8279a48966e7647081d70ee68feddc17ff47a01171338abb[ALL] 0369ceaf69c2e23646b6a704bf51017e60cbbbd5dd9cdd7b3a14b4484260832860"}, "vout": 1, "txid": "cf3116e4ba40d361e3b62409fd55d5b591b86d5d2df2fd0b38e9d35026314ba4"}], "txid": "0a158ebd99781a91dfac82e1c1a3badd02fab43057d0cbe66e817c0bdf018dbd", "blocktime": 1537873282, "version": 1, "confirmations": 11484, "time": 1537873282, "locktime": 542995, "vsize": 780, "size": 780}