{"hash": "0a15572d7805a455569092e1045ca2a7ba334308b798e0fc8a06bf1e4cb0277a", "blockhash": "00000000000000000004ffacab907a6b429b9a5745fa0b75af4234bf69dd7176", "vout": [{"scriptPubKey": {"reqSigs": 1, "hex": "76a9143900d985825f6fe3cee21bc773dffeeaa607384988ac", "addresses": ["16CQXyP3MFuAczMiPQMkJmbvz8r3amdzVE"], "asm": "OP_DUP OP_HASH160 3900d985825f6fe3cee21bc773dffeeaa6073849 OP_EQUALVERIFY OP_CHECKSIG", "type": "pubkeyhash"}, "value": 0.00390875, "n": 0}, {"scriptPubKey": {"reqSigs": 1, "hex": "76a91476e01c577c9aa719d8d47a95eea638ca81ccb74a88ac", "addresses": ["1BqZD82PbbZtPwJHw9VzFpF5QN7qqZAuTT"], "asm": "OP_DUP OP_HASH160 76e01c577c9aa719d8d47a95eea638ca81ccb74a OP_EQUALVERIFY OP_CHECKSIG", "type": "pubkeyhash"}, "value": 0.07185438, "n": 1}], "hex": "01000000017a42ceb407b648afdffbfe60aa05ac0ef13a43190340370ffed03309d352d937010000006a473044022052d852f61910cd34043e297e2fb5fa433bc2e22fc489484133ea5a525e56ed6102202c8dc36ec6d567172fe5708bddee14d235f4a56670db4ee907671ee5d92fe54301210232f70b03caf92ea4d9995187d064556b761ccc57bca734e85f5a00790a88f36bffffffff02dbf60500000000001976a9143900d985825f6fe3cee21bc773dffeeaa607384988ac1ea46d00000000001976a91476e01c577c9aa719d8d47a95eea638ca81ccb74a88ac00000000", "vin": [{"sequence": 4294967295, "scriptSig": {"hex": "473044022052d852f61910cd34043e297e2fb5fa433bc2e22fc489484133ea5a525e56ed6102202c8dc36ec6d567172fe5708bddee14d235f4a56670db4ee907671ee5d92fe54301210232f70b03caf92ea4d9995187d064556b761ccc57bca734e85f5a00790a88f36b", "asm": "3044022052d852f61910cd34043e297e2fb5fa433bc2e22fc489484133ea5a525e56ed6102202c8dc36ec6d567172fe5708bddee14d235f4a56670db4ee907671ee5d92fe543[ALL] 0232f70b03caf92ea4d9995187d064556b761ccc57bca734e85f5a00790a88f36b"}, "vout": 1, "txid": "37d952d30933d0fe0f37400319433af10eac05aa60fefbdfaf48b607b4ce427a"}], "txid": "0a15572d7805a455569092e1045ca2a7ba334308b798e0fc8a06bf1e4cb0277a", "blocktime": 1537875543, "version": 1, "confirmations": 11464, "time": 1537875543, "locktime": 0, "vsize": 225, "size": 225}