{"hash": "0a179c60618e2c644fe926e5f5f29b088ad5df18e62b2e37c324af2641041d3e", "blockhash": "000000000000000000022b45ed06c6f4ccd3cf7fb5ba4856ebd2e58215665228", "vout": [{"scriptPubKey": {"reqSigs": 1, "hex": "76a9148427b28e90fb126dc0296121ca001bab0e71c7bd88ac", "addresses": ["1D3mkYz1QoeUTCofzrNV2emayVQFxTH5gQ"], "asm": "OP_DUP OP_HASH160 8427b28e90fb126dc0296121ca001bab0e71c7bd OP_EQUALVERIFY OP_CHECKSIG", "type": "pubkeyhash"}, "value": 0.02, "n": 0}, {"scriptPubKey": {"reqSigs": 1, "hex": "76a914d31cd5e0fba93a20ef8270eaa11c5fd06deff53e88ac", "addresses": ["1LFG7zxyGZYFEJsovEimMPnNbGYbtNSvDM"], "asm": "OP_DUP OP_HASH160 d31cd5e0fba93a20ef8270eaa11c5fd06deff53e OP_EQUALVERIFY OP_CHECKSIG", "type": "pubkeyhash"}, "value": 0.069612, "n": 1}], "hex": "010000000108e6e82feed0d3910839f84c974b110dbfc5c5265743780267eefcda236c9a2a010000006a47304402207a999f913b966fd77507699898994f7c936f9450b2ef18141963e2911a62664202205361b9525ac034652b06d8a1b8333645e298b6d7bca5d685b168758e7685ffad012102deed363213c12dc55baa24003544b9a46f168111a4f633bf147965f7d818b9cafeffffff0280841e00000000001976a9148427b28e90fb126dc0296121ca001bab0e71c7bd88ac30386a00000000001976a914d31cd5e0fba93a20ef8270eaa11c5fd06deff53e88ac0b490800", "vin": [{"sequence": 4294967294, "scriptSig": {"hex": "47304402207a999f913b966fd77507699898994f7c936f9450b2ef18141963e2911a62664202205361b9525ac034652b06d8a1b8333645e298b6d7bca5d685b168758e7685ffad012102deed363213c12dc55baa24003544b9a46f168111a4f633bf147965f7d818b9ca", "asm": "304402207a999f913b966fd77507699898994f7c936f9450b2ef18141963e2911a62664202205361b9525ac034652b06d8a1b8333645e298b6d7bca5d685b168758e7685ffad[ALL] 02deed363213c12dc55baa24003544b9a46f168111a4f633bf147965f7d818b9ca"}, "vout": 1, "txid": "2a9a6c23dafcee670278435726c5c5bf0d114b974cf8390891d3d0ee2fe8e608"}], "txid": "0a179c60618e2c644fe926e5f5f29b088ad5df18e62b2e37c324af2641041d3e", "blocktime": 1537869901, "version": 1, "confirmations": 11522, "time": 1537869901, "locktime": 542987, "vsize": 225, "size": 225}