{"hash": "0a1aeb323288933c343841d39ee7da4a909954b9d5b9ff1166e4cb0d0aade8fb", "blockhash": "0000000000000000000dcc0f55137456b1a82d3642486a52398922ac4d620174", "vout": [{"scriptPubKey": {"reqSigs": 1, "hex": "76a914ae603e36fc4cd996fbafab47cefdf6447184da8488ac", "addresses": ["1Gu1sTkW8aNcA47hEqNaeqYvoP8Si6i4d4"], "asm": "OP_DUP OP_HASH160 ae603e36fc4cd996fbafab47cefdf6447184da84 OP_EQUALVERIFY OP_CHECKSIG", "type": "pubkeyhash"}, "value": 0.03116925, "n": 0}, {"scriptPubKey": {"reqSigs": 1, "hex": "76a91475681475822655692e171772baae2118e725600588ac", "addresses": ["1Bhnk3XpDFanB6rUPUyAFVNYwpYAGVeCKN"], "asm": "OP_DUP OP_HASH160 75681475822655692e171772baae2118e7256005 OP_EQUALVERIFY OP_CHECKSIG", "type": "pubkeyhash"}, "value": 0.10147446, "n": 1}], "hex": "010000000191f6ecb316a898372594639745ee13e3a64d817b31b3154fb4d16fcc32edea85010000006a473044022018228f671c82717cc241a14a533cccdb285fa1d441fdff632d0b7e98aa972c28022026d929ce759ff69922edcd82ca150d420848b1bfa09eae21c2d5a83180192e11012102e8ce22548d06723f6eab00eab284fb656ae7be21e4e18273d186a3689fd37cf3ffffffff027d8f2f00000000001976a914ae603e36fc4cd996fbafab47cefdf6447184da8488ac76d69a00000000001976a91475681475822655692e171772baae2118e725600588ac00000000", "vin": [{"sequence": 4294967295, "scriptSig": {"hex": "473044022018228f671c82717cc241a14a533cccdb285fa1d441fdff632d0b7e98aa972c28022026d929ce759ff69922edcd82ca150d420848b1bfa09eae21c2d5a83180192e11012102e8ce22548d06723f6eab00eab284fb656ae7be21e4e18273d186a3689fd37cf3", "asm": "3044022018228f671c82717cc241a14a533cccdb285fa1d441fdff632d0b7e98aa972c28022026d929ce759ff69922edcd82ca150d420848b1bfa09eae21c2d5a83180192e11[ALL] 02e8ce22548d06723f6eab00eab284fb656ae7be21e4e18273d186a3689fd37cf3"}, "vout": 1, "txid": "85eaed32cc6fd1b44f15b3317b814da6e313ee45976394253798a816b3ecf691"}], "txid": "0a1aeb323288933c343841d39ee7da4a909954b9d5b9ff1166e4cb0d0aade8fb", "blocktime": 1537870268, "version": 1, "confirmations": 11518, "time": 1537870268, "locktime": 0, "vsize": 225, "size": 225}