{"hash": "0a2250f9ea366630c8f6ebcad283716bfa0aad3907bf0eba8033e240f61187cc", "blockhash": "0000000000000000000baef3f32e3676a92c3b2e5da21b426e4f302fc371ce76", "vout": [{"scriptPubKey": {"type": "nulldata", "hex": "6a4c500000782e0001a6b11546b730e919c79435fb27b7256b4774d339f6019d6ddc0f1b8ff117b259e1565ec32df7897c670b0d45c17a5baa1f5a06138dcb101615ee1d100759d4ba30d2c37bb011d97e02cf", "asm": "OP_RETURN 0000782e0001a6b11546b730e919c79435fb27b7256b4774d339f6019d6ddc0f1b8ff117b259e1565ec32df7897c670b0d45c17a5baa1f5a06138dcb101615ee1d100759d4ba30d2c37bb011d97e02cf"}, "value": 0.0, "n": 0}, {"scriptPubKey": {"reqSigs": 1, "hex": "76a9143e4680e678ea655f00fc73f057d3e1c59c762b3988ac", "addresses": ["16gHMZhK9qG6nvWCybs5RZQp1RdWfDmf3x"], "asm": "OP_DUP OP_HASH160 3e4680e678ea655f00fc73f057d3e1c59c762b39 OP_EQUALVERIFY OP_CHECKSIG", "type": "pubkeyhash"}, "value": 0.00627519, "n": 1}], "hex": "0100000001822f69c3fd62a558bfcb302454d3c231bafd065787fc0a8c59d1485a660d0a76010000006a473044022025c0749e245a9ea490ebf8c63bd18355993305fbc19f3fef0d2d6b010b1d26db02207da831f5059b43c991bebffccf4c5ebd47d28a87f481044d48527c0213c3e758012102f8ce7752f4da2a914c50861e0b24b03df6a7dce16db79f0d74281539e982c641ffffffff020000000000000000536a4c500000782e0001a6b11546b730e919c79435fb27b7256b4774d339f6019d6ddc0f1b8ff117b259e1565ec32df7897c670b0d45c17a5baa1f5a06138dcb101615ee1d100759d4ba30d2c37bb011d97e02cf3f930900000000001976a9143e4680e678ea655f00fc73f057d3e1c59c762b3988ac00000000", "vin": [{"sequence": 4294967295, "scriptSig": {"hex": "473044022025c0749e245a9ea490ebf8c63bd18355993305fbc19f3fef0d2d6b010b1d26db02207da831f5059b43c991bebffccf4c5ebd47d28a87f481044d48527c0213c3e758012102f8ce7752f4da2a914c50861e0b24b03df6a7dce16db79f0d74281539e982c641", "asm": "3044022025c0749e245a9ea490ebf8c63bd18355993305fbc19f3fef0d2d6b010b1d26db02207da831f5059b43c991bebffccf4c5ebd47d28a87f481044d48527c0213c3e758[ALL] 02f8ce7752f4da2a914c50861e0b24b03df6a7dce16db79f0d74281539e982c641"}, "vout": 1, "txid": "760a0d665a48d1598c0afc875706fdba31c2d3542430cbbf58a562fdc3692f82"}], "txid": "0a2250f9ea366630c8f6ebcad283716bfa0aad3907bf0eba8033e240f61187cc", "blocktime": 1537876114, "version": 1, "confirmations": 11460, "time": 1537876114, "locktime": 0, "vsize": 283, "size": 283}