{"hash": "c36b472a7f7630f0c56ab951d0894c454dccd22e0c2df6a7f7261fd5ef3d36ad", "blockhash": "0000000000000000000dcc0f55137456b1a82d3642486a52398922ac4d620174", "vout": [{"scriptPubKey": {"reqSigs": 1, "hex": "a9144b6540598e1296017023b6879a8bc89297097b3e87", "addresses": ["38ZftzuwZyPNPa9FWtDhw2e3Xiz8tQmUca"], "asm": "OP_HASH160 4b6540598e1296017023b6879a8bc89297097b3e OP_EQUAL", "type": "scripthash"}, "value": 0.00805201, "n": 0}], "hex": "01000000000101daee5a9a631528c534dd1f0d5d4c053ee066df492bcc4f55cc04e898d05c5b9a0900000023220020ba542cc3912d4dda2d3b4f6713dfb43671257a006c0a4ca45a1aca3053c71ecffdffffff0151490c000000000017a9144b6540598e1296017023b6879a8bc89297097b3e870400483045022100eebfe81050c2560af75fd53c23aa930009417110f4f6cd363cb31edb0a99a46f0220300d0f966d88ca71b1f92d9d8de9e1bd661bda1f5129c0cf1824b230f3cc3aad014830450221008c0c2c4bdbc80d2152aae45b03ae2f78712c88f04e8245ed57ef3057e4d67dee0220647af77ed8a241a6e49c3da4f3f85661cf5f33681030b77ee8f77185058b3fa701475221030bc6dad3c35c8fe638013f3a8bbe2a55c8f03074bab706e3834859b70343bbdb210243b0772e8e71106c21735c7dfea9e3f90fd489e9da4245d9ef53091589f204fe52ae0c490800", "vin": [{"txinwitness": ["", "3045022100eebfe81050c2560af75fd53c23aa930009417110f4f6cd363cb31edb0a99a46f0220300d0f966d88ca71b1f92d9d8de9e1bd661bda1f5129c0cf1824b230f3cc3aad01", "30450221008c0c2c4bdbc80d2152aae45b03ae2f78712c88f04e8245ed57ef3057e4d67dee0220647af77ed8a241a6e49c3da4f3f85661cf5f33681030b77ee8f77185058b3fa701", "5221030bc6dad3c35c8fe638013f3a8bbe2a55c8f03074bab706e3834859b70343bbdb210243b0772e8e71106c21735c7dfea9e3f90fd489e9da4245d9ef53091589f204fe52ae"], "sequence": 4294967293, "scriptSig": {"hex": "220020ba542cc3912d4dda2d3b4f6713dfb43671257a006c0a4ca45a1aca3053c71ecf", "asm": "0020ba542cc3912d4dda2d3b4f6713dfb43671257a006c0a4ca45a1aca3053c71ecf"}, "vout": 9, "txid": "9a5b5cd098e804cc554fcc2b49df66e03e054c5d0d1fdd34c52815639a5aeeda"}], "txid": "0a2375b2cc4b7b8c9b8d30ed7a709a4f36339940b69ecf32a81b3cb125292c56", "blocktime": 1537870268, "version": 1, "confirmations": 11519, "time": 1537870268, "locktime": 542988, "vsize": 174, "size": 340}