{"hash": "0a2bda542ff68fdc108efdcbf57432c9881c5f9cacbf7101fa280ed6e7c7e65d", "blockhash": "0000000000000000001f76057863aec43deb6fa401d9628bb513d65a8098bfab", "vout": [{"scriptPubKey": {"type": "nulldata", "hex": "6a4c50000077da000176de278d66a6dcee7212292e7af8e8e963c7cfd5b95b23cc0f42c2fc38c56467b3cbf6c99e7d4156eca100db08db5baa15ae061307ddf866d28bbc9a9526289ac0f6612cd74e33776ee4", "asm": "OP_RETURN 000077da000176de278d66a6dcee7212292e7af8e8e963c7cfd5b95b23cc0f42c2fc38c56467b3cbf6c99e7d4156eca100db08db5baa15ae061307ddf866d28bbc9a9526289ac0f6612cd74e33776ee4"}, "value": 0.0, "n": 0}, {"scriptPubKey": {"reqSigs": 1, "hex": "76a9146f5ff7275c3d0e43e577bb65440d04589e8a2dc088ac", "addresses": ["1B9ty6At17SRYkFTuh5hKicRvGbkZDWBD1"], "asm": "OP_DUP OP_HASH160 6f5ff7275c3d0e43e577bb65440d04589e8a2dc0 OP_EQUALVERIFY OP_CHECKSIG", "type": "pubkeyhash"}, "value": 0.0147492, "n": 1}], "hex": "01000000014fa70810fb5bbfed533a70b6f0bb48b895ee06dbf2f34f55c74674c17bd03daa010000006a473044022039ec748c07bc6bcd3adef8c7b0a8f85da526e72d076ca1c3bbb5ef519198e34c0220143a44c0a7d9c1def0fbd18f424ede06b54b01b6dd1dcce50b5dcb1c7bff4ab6012103410099c5b8704ba28769f379f4d3f7496b449118f2568e7b129693c58c6a702fffffffff020000000000000000536a4c50000077da000176de278d66a6dcee7212292e7af8e8e963c7cfd5b95b23cc0f42c2fc38c56467b3cbf6c99e7d4156eca100db08db5baa15ae061307ddf866d28bbc9a9526289ac0f6612cd74e33776ee468811600000000001976a9146f5ff7275c3d0e43e577bb65440d04589e8a2dc088ac00000000", "vin": [{"sequence": 4294967295, "scriptSig": {"hex": "473044022039ec748c07bc6bcd3adef8c7b0a8f85da526e72d076ca1c3bbb5ef519198e34c0220143a44c0a7d9c1def0fbd18f424ede06b54b01b6dd1dcce50b5dcb1c7bff4ab6012103410099c5b8704ba28769f379f4d3f7496b449118f2568e7b129693c58c6a702f", "asm": "3044022039ec748c07bc6bcd3adef8c7b0a8f85da526e72d076ca1c3bbb5ef519198e34c0220143a44c0a7d9c1def0fbd18f424ede06b54b01b6dd1dcce50b5dcb1c7bff4ab6[ALL] 03410099c5b8704ba28769f379f4d3f7496b449118f2568e7b129693c58c6a702f"}, "vout": 1, "txid": "aa3dd07bc17446c7554ff3f2db06ee95b848bbf0b6703a53edbf5bfb1008a74f"}], "txid": "0a2bda542ff68fdc108efdcbf57432c9881c5f9cacbf7101fa280ed6e7c7e65d", "blocktime": 1537873891, "version": 1, "confirmations": 11478, "time": 1537873891, "locktime": 0, "vsize": 283, "size": 283}