{"hash": "0a34c4492a5c5207e360c15528e8dafd6be756cc27266c879eccaed0ac44face", "blockhash": "00000000000000000017f5eb5941039fbcee6240d03bc1f2f8e35350df66a1d8", "vout": [{"scriptPubKey": {"reqSigs": 1, "hex": "76a914231bbc94bef000c67e922ac2df53d91e6ec11c5388ac", "addresses": ["14Cdstchd525GKdJyQ9b4ofZNzL73MrqtX"], "asm": "OP_DUP OP_HASH160 231bbc94bef000c67e922ac2df53d91e6ec11c53 OP_EQUALVERIFY OP_CHECKSIG", "type": "pubkeyhash"}, "value": 0.00500187, "n": 0}, {"scriptPubKey": {"reqSigs": 1, "hex": "76a9144d0737560b52268f5ca82f3dfccf11382cfb065188ac", "addresses": ["182HgABWv8unaSsuWTrpJv6pXFk5oXofDX"], "asm": "OP_DUP OP_HASH160 4d0737560b52268f5ca82f3dfccf11382cfb0651 OP_EQUALVERIFY OP_CHECKSIG", "type": "pubkeyhash"}, "value": 0.00556539, "n": 1}], "hex": "0100000002547b151aa2c30620b4b52bcbfdb117b731e2d980510bd835976822bdbcd39eb5010000006b483045022100c8632ff679a345589de55015b8ec779083d0f804eb4150f4250c2fdcded314b802205c840a954d5d70e77824a6cd22a7c07e2654ad4de1f147d661d5c19c1c99c9f8012103b920ca2ac9fa8e7e540e0106bff8c6099407f56510272a3e4e6cb57a6a10e06affffffffe6b3633f62bd4714515d2a46343e2767fb4d0ad1c3b9bf4e7eff0f01202eccc0010000006a47304402205a8000eb783c5962a57c8dfdfd4884c10442e6d89863287f9a0f0cf2e2fa179f02202fc5859a3fc31a1b1c6d338a574949af9ebc9db0bd1109de1d44cc30a47e1b66012103b920ca2ac9fa8e7e540e0106bff8c6099407f56510272a3e4e6cb57a6a10e06affffffff02dba10700000000001976a914231bbc94bef000c67e922ac2df53d91e6ec11c5388acfb7d0800000000001976a9144d0737560b52268f5ca82f3dfccf11382cfb065188ac00000000", "vin": [{"sequence": 4294967295, "scriptSig": {"hex": "483045022100c8632ff679a345589de55015b8ec779083d0f804eb4150f4250c2fdcded314b802205c840a954d5d70e77824a6cd22a7c07e2654ad4de1f147d661d5c19c1c99c9f8012103b920ca2ac9fa8e7e540e0106bff8c6099407f56510272a3e4e6cb57a6a10e06a", "asm": "3045022100c8632ff679a345589de55015b8ec779083d0f804eb4150f4250c2fdcded314b802205c840a954d5d70e77824a6cd22a7c07e2654ad4de1f147d661d5c19c1c99c9f8[ALL] 03b920ca2ac9fa8e7e540e0106bff8c6099407f56510272a3e4e6cb57a6a10e06a"}, "vout": 1, "txid": "b59ed3bcbd22689735d80b5180d9e231b717b1fdcb2bb5b42006c3a21a157b54"}, {"sequence": 4294967295, "scriptSig": {"hex": "47304402205a8000eb783c5962a57c8dfdfd4884c10442e6d89863287f9a0f0cf2e2fa179f02202fc5859a3fc31a1b1c6d338a574949af9ebc9db0bd1109de1d44cc30a47e1b66012103b920ca2ac9fa8e7e540e0106bff8c6099407f56510272a3e4e6cb57a6a10e06a", "asm": "304402205a8000eb783c5962a57c8dfdfd4884c10442e6d89863287f9a0f0cf2e2fa179f02202fc5859a3fc31a1b1c6d338a574949af9ebc9db0bd1109de1d44cc30a47e1b66[ALL] 03b920ca2ac9fa8e7e540e0106bff8c6099407f56510272a3e4e6cb57a6a10e06a"}, "vout": 1, "txid": "c0cc2e20010fff7e4ebfb9c3d10a4dfb67273e34462a5d511447bd623f63b3e6"}], "txid": "0a34c4492a5c5207e360c15528e8dafd6be756cc27266c879eccaed0ac44face", "blocktime": 1537874412, "version": 1, "confirmations": 11468, "time": 1537874412, "locktime": 0, "vsize": 373, "size": 373}