{"hash": "0a35c410927f6148254dfee10ee7dbcce1dec9b6653a11bfc8f58858f54fe2bb", "blockhash": "00000000000000000017f5eb5941039fbcee6240d03bc1f2f8e35350df66a1d8", "vout": [{"scriptPubKey": {"reqSigs": 1, "hex": "76a91495765e5efea35acbfbce76f4c9deb8a2b777553688ac", "addresses": ["1EdHUyq6eZpN6vyMTZfKBsQKWNoYAX5v4j"], "asm": "OP_DUP OP_HASH160 95765e5efea35acbfbce76f4c9deb8a2b7775536 OP_EQUALVERIFY OP_CHECKSIG", "type": "pubkeyhash"}, "value": 0.98, "n": 0}, {"scriptPubKey": {"reqSigs": 1, "hex": "76a914f662f778b689728940b631bf6465da10b33763bb88ac", "addresses": ["1PTmnWwLyZ84N43NYcmKrEcmTwQZUZHh13"], "asm": "OP_DUP OP_HASH160 f662f778b689728940b631bf6465da10b33763bb OP_EQUALVERIFY OP_CHECKSIG", "type": "pubkeyhash"}, "value": 4.91996, "n": 1}], "hex": "01000000010e94410205e6d1629f706035e248c599911203aaa6c69b372a2c5c003f631258000000006a473044022038b9d9094724fa68dc02f50f23b579ad63d6e7ebe95be5a84e26a70b0238175c022044ccf7552adedaab706d26c019a9904bcd0e2d5a92a184aa8aa15ca1d0e080ee01210229ffb1e4db5cfd2bb169d5778370bc575402688d9269e360e48c47aa758ba7b6ffffffff02805cd705000000001976a91495765e5efea35acbfbce76f4c9deb8a2b777553688ac6043531d000000001976a914f662f778b689728940b631bf6465da10b33763bb88ac00000000", "vin": [{"sequence": 4294967295, "scriptSig": {"hex": "473044022038b9d9094724fa68dc02f50f23b579ad63d6e7ebe95be5a84e26a70b0238175c022044ccf7552adedaab706d26c019a9904bcd0e2d5a92a184aa8aa15ca1d0e080ee01210229ffb1e4db5cfd2bb169d5778370bc575402688d9269e360e48c47aa758ba7b6", "asm": "3044022038b9d9094724fa68dc02f50f23b579ad63d6e7ebe95be5a84e26a70b0238175c022044ccf7552adedaab706d26c019a9904bcd0e2d5a92a184aa8aa15ca1d0e080ee[ALL] 0229ffb1e4db5cfd2bb169d5778370bc575402688d9269e360e48c47aa758ba7b6"}, "vout": 0, "txid": "5812633f005c2c2a379bc6a6aa03129199c548e23560709f62d1e6050241940e"}], "txid": "0a35c410927f6148254dfee10ee7dbcce1dec9b6653a11bfc8f58858f54fe2bb", "blocktime": 1537874412, "version": 1, "confirmations": 11467, "time": 1537874412, "locktime": 0, "vsize": 225, "size": 225}