{"hash": "0a3a4f9371be256b927e3d0b10b29d119845cf2c6a0a389185e341e0674f82b3", "blockhash": "0000000000000000001f76057863aec43deb6fa401d9628bb513d65a8098bfab", "vout": [{"scriptPubKey": {"reqSigs": 1, "hex": "76a914d243e6abb9a60fbff430b421d2df4b7d59ec186088ac", "addresses": ["1LAnF8h3qMGx3TSwNUHVneBZUEpwE4gu3D"], "asm": "OP_DUP OP_HASH160 d243e6abb9a60fbff430b421d2df4b7d59ec1860 OP_EQUALVERIFY OP_CHECKSIG", "type": "pubkeyhash"}, "value": 0.00076972, "n": 0}, {"scriptPubKey": {"reqSigs": 1, "hex": "76a9143851f34d13937b673a7d24a1950bb5b21ce94af388ac", "addresses": ["168o1kqNquEJeR9vosUB5fw4eAwcVAgh8P"], "asm": "OP_DUP OP_HASH160 3851f34d13937b673a7d24a1950bb5b21ce94af3 OP_EQUALVERIFY OP_CHECKSIG", "type": "pubkeyhash"}, "value": 5.46e-06, "n": 1}, {"scriptPubKey": {"type": "nulldata", "hex": "6a146f6d6e69000000000000001f000000ab2169f600", "asm": "OP_RETURN 6f6d6e69000000000000001f000000ab2169f600"}, "value": 0.0, "n": 2}], "hex": "0100000002dca35231b05c08541dc0615fb2f1b19bdf10afc4e527317ee0552ea6ca2d675a000000006b483045022100deab21be161f2d088e85426f29d0560d3155177b64702b1dc19a36e54e72192b0220606fec73a42a2c1df5a729ad480b8dd4b48a0f4d1cff5452d37d9380b3b08e4e0121026ec5bd6eb0c98e984a57768d1025d650ae9118924135526f344a7ce6e69e2fbfffffffff289db1f83c9deb5b5518650ae73d01f959e8a13814fb8bf1d42633e176ff28f1000000006b483045022100c257dd0ac9e3c3a19ffe36899b82d8dbd123c6a5cf0b24b202e88f55d11de19a02202c87086f61784182bcb2a36a0e7bbf13fc7f933965eb5cee2b279f306bf82e3201210271977291b74f1f5f5c42157e8aae804664eaaeccfd097918450d37f28fb94d77ffffffff03ac2c0100000000001976a914d243e6abb9a60fbff430b421d2df4b7d59ec186088ac22020000000000001976a9143851f34d13937b673a7d24a1950bb5b21ce94af388ac0000000000000000166a146f6d6e69000000000000001f000000ab2169f60000000000", "vin": [{"sequence": 4294967295, "scriptSig": {"hex": "483045022100deab21be161f2d088e85426f29d0560d3155177b64702b1dc19a36e54e72192b0220606fec73a42a2c1df5a729ad480b8dd4b48a0f4d1cff5452d37d9380b3b08e4e0121026ec5bd6eb0c98e984a57768d1025d650ae9118924135526f344a7ce6e69e2fbf", "asm": "3045022100deab21be161f2d088e85426f29d0560d3155177b64702b1dc19a36e54e72192b0220606fec73a42a2c1df5a729ad480b8dd4b48a0f4d1cff5452d37d9380b3b08e4e[ALL] 026ec5bd6eb0c98e984a57768d1025d650ae9118924135526f344a7ce6e69e2fbf"}, "vout": 0, "txid": "5a672dcaa62e55e07e3127e5c4af10df9bb1f1b25f61c01d54085cb03152a3dc"}, {"sequence": 4294967295, "scriptSig": {"hex": "483045022100c257dd0ac9e3c3a19ffe36899b82d8dbd123c6a5cf0b24b202e88f55d11de19a02202c87086f61784182bcb2a36a0e7bbf13fc7f933965eb5cee2b279f306bf82e3201210271977291b74f1f5f5c42157e8aae804664eaaeccfd097918450d37f28fb94d77", "asm": "3045022100c257dd0ac9e3c3a19ffe36899b82d8dbd123c6a5cf0b24b202e88f55d11de19a02202c87086f61784182bcb2a36a0e7bbf13fc7f933965eb5cee2b279f306bf82e32[ALL] 0271977291b74f1f5f5c42157e8aae804664eaaeccfd097918450d37f28fb94d77"}, "vout": 0, "txid": "f128ff76e13326d4f18bfb1438a1e859f9013de70a6518555beb9d3cf8b19d28"}], "txid": "0a3a4f9371be256b927e3d0b10b29d119845cf2c6a0a389185e341e0674f82b3", "blocktime": 1537873891, "version": 1, "confirmations": 11475, "time": 1537873891, "locktime": 0, "vsize": 405, "size": 405}