{"hash": "0a41dfad0840f4d6fe48ef2bef280a2dad0c7172bb5aa6e74b7f8ff2957c9418", "blockhash": "0000000000000000000dcc0f55137456b1a82d3642486a52398922ac4d620174", "vout": [{"scriptPubKey": {"reqSigs": 1, "hex": "76a914ee21d9d342abd2d382e8bbc1de50bac1d0fa046588ac", "addresses": ["1Ni8Nf3oC6pBLTiaYFEAb7HUbCvdevH5jP"], "asm": "OP_DUP OP_HASH160 ee21d9d342abd2d382e8bbc1de50bac1d0fa0465 OP_EQUALVERIFY OP_CHECKSIG", "type": "pubkeyhash"}, "value": 0.01492274, "n": 0}, {"scriptPubKey": {"reqSigs": 1, "hex": "76a91447f319d188a48558daa509f6e23392b5c410202688ac", "addresses": ["17ZSCZgCmnjotqTpwYW3bdugAkNxxT2hYb"], "asm": "OP_DUP OP_HASH160 47f319d188a48558daa509f6e23392b5c4102026 OP_EQUALVERIFY OP_CHECKSIG", "type": "pubkeyhash"}, "value": 0.0848371, "n": 1}], "hex": "02000000025d500b81072d828b3e8679e89099ca64f4286111edd7f47f90bb2e06f9fd459c0f0000006a473044022070de7dde0f025bcfa9b67bd412c70390e209bdc6249081ddb6ee1fa13c13256b0220537c294c27606d1bf7c463c6b11f8bb7323dd4d731baec04f5571c57d5b6d4c9012103d21216dbb0027581f763f6c1928d15ff5f08c22d692b678e7e1386cb7bfef961ffffffff7c92a37511f570e2683938deee5c35d95a548991a6f1f08dd16a539d7d2251ef010000006b483045022100bb15f1d64a522c0155c52979fabb57d6f2bc51e17a3d075a20198070b928c517022022f36a703070fce1fca186e55a8b4bbbe07166cafc043f659cc8fc7205e493b7012102d25a37d39e6fb235b2b85da313ad70d3f4a3ead3cf5d54f9435499f07730fcc9ffffffff0232c51600000000001976a914ee21d9d342abd2d382e8bbc1de50bac1d0fa046588ac7e738100000000001976a91447f319d188a48558daa509f6e23392b5c410202688ac00000000", "vin": [{"sequence": 4294967295, "scriptSig": {"hex": "473044022070de7dde0f025bcfa9b67bd412c70390e209bdc6249081ddb6ee1fa13c13256b0220537c294c27606d1bf7c463c6b11f8bb7323dd4d731baec04f5571c57d5b6d4c9012103d21216dbb0027581f763f6c1928d15ff5f08c22d692b678e7e1386cb7bfef961", "asm": "3044022070de7dde0f025bcfa9b67bd412c70390e209bdc6249081ddb6ee1fa13c13256b0220537c294c27606d1bf7c463c6b11f8bb7323dd4d731baec04f5571c57d5b6d4c9[ALL] 03d21216dbb0027581f763f6c1928d15ff5f08c22d692b678e7e1386cb7bfef961"}, "vout": 15, "txid": "9c45fdf9062ebb907ff4d7ed116128f464ca9990e879863e8b822d07810b505d"}, {"sequence": 4294967295, "scriptSig": {"hex": "483045022100bb15f1d64a522c0155c52979fabb57d6f2bc51e17a3d075a20198070b928c517022022f36a703070fce1fca186e55a8b4bbbe07166cafc043f659cc8fc7205e493b7012102d25a37d39e6fb235b2b85da313ad70d3f4a3ead3cf5d54f9435499f07730fcc9", "asm": "3045022100bb15f1d64a522c0155c52979fabb57d6f2bc51e17a3d075a20198070b928c517022022f36a703070fce1fca186e55a8b4bbbe07166cafc043f659cc8fc7205e493b7[ALL] 02d25a37d39e6fb235b2b85da313ad70d3f4a3ead3cf5d54f9435499f07730fcc9"}, "vout": 1, "txid": "ef51227d9d536ad18df0f1a69189545ad9355ceede383968e270f51175a3927c"}], "txid": "0a41dfad0840f4d6fe48ef2bef280a2dad0c7172bb5aa6e74b7f8ff2957c9418", "blocktime": 1537870268, "version": 2, "confirmations": 11516, "time": 1537870268, "locktime": 0, "vsize": 373, "size": 373}