{"hash": "8e5d2313007edc8b38d5e4efff400e1f16576689e65c00e10c6c5919e44c84d5", "blockhash": "00000000000000000018f53835495a110e01622372bf6ae95dc86f2b0ab887b0", "vout": [{"scriptPubKey": {"reqSigs": 1, "hex": "76a9140a3195c50a139c1268b517078c4818eb7c3cee7288ac", "addresses": ["1vuA9XxA95fff3zonS6wemPTWBvQ16vN9"], "asm": "OP_DUP OP_HASH160 0a3195c50a139c1268b517078c4818eb7c3cee72 OP_EQUALVERIFY OP_CHECKSIG", "type": "pubkeyhash"}, "value": 0.00282712, "n": 0}, {"scriptPubKey": {"reqSigs": 1, "hex": "a91442fac12a3c6d16a7372ee336fd92301bd55afeeb87", "addresses": ["37oAuwFatuQuPwtosSPt8pa6nnxwd9LKtw"], "asm": "OP_HASH160 42fac12a3c6d16a7372ee336fd92301bd55afeeb OP_EQUAL", "type": "scripthash"}, "value": 0.01323618, "n": 1}], "hex": "02000000000101cdd1e3d0428087126202d3270c1a4dea5d99e1f080a9ed44bea51156216cec8101000000171600149b8074d2606e3eb437e111ff0353f0728e9bb2dafeffffff0258500400000000001976a9140a3195c50a139c1268b517078c4818eb7c3cee7288ac623214000000000017a91442fac12a3c6d16a7372ee336fd92301bd55afeeb870248304502210097a22d99e88c447cb6527d13ac7da1dcc1a4839732cbefe9b785af624492c3cb022035867755aa717b6e3284a7b25ecb686f33e59c903cef50a2b015b741b15f2f00012102f852fd79e929f0ab9bd817a076b806c5f486aad8025e5c6c480bf80f44237a980e490800", "vin": [{"txinwitness": ["304502210097a22d99e88c447cb6527d13ac7da1dcc1a4839732cbefe9b785af624492c3cb022035867755aa717b6e3284a7b25ecb686f33e59c903cef50a2b015b741b15f2f0001", "02f852fd79e929f0ab9bd817a076b806c5f486aad8025e5c6c480bf80f44237a98"], "sequence": 4294967294, "scriptSig": {"hex": "1600149b8074d2606e3eb437e111ff0353f0728e9bb2da", "asm": "00149b8074d2606e3eb437e111ff0353f0728e9bb2da"}, "vout": 1, "txid": "81ec6c215611a5be44eda980f0e1995dea4d1a0c27d3026212878042d0e3d1cd"}], "txid": "0a4499ad6ab8d468e1388e607e97c365e9a9d002cce9095d16be28a852533451", "blocktime": 1537870928, "version": 2, "confirmations": 11514, "time": 1537870928, "locktime": 542990, "vsize": 168, "size": 250}