{"hash": "ece72dfec209c2fcdcd223f6f35ef751f03582bb2f0df7458653fc016a7f24ff", "blockhash": "0000000000000000001f0ddff1eddb255c1121bcd4da4f1bc9a0da00cae72433", "vout": [{"scriptPubKey": {"reqSigs": 1, "hex": "76a9141e096ec00e13295631aa568487b730f3ed183ddb88ac", "addresses": ["13jpa9PnFtGHYZ5FWZsLX2yzWVfMzViYAA"], "asm": "OP_DUP OP_HASH160 1e096ec00e13295631aa568487b730f3ed183ddb OP_EQUALVERIFY OP_CHECKSIG", "type": "pubkeyhash"}, "value": 0.00026516, "n": 0}, {"scriptPubKey": {"reqSigs": 1, "hex": "a914412a5a9d44d5834123b7756088f409b7b3a36da687", "addresses": ["37daapNiiDgPEaARWMQCfhGXJo4yF1nTaW"], "asm": "OP_HASH160 412a5a9d44d5834123b7756088f409b7b3a36da6 OP_EQUAL", "type": "scripthash"}, "value": 0.02094938, "n": 1}], "hex": "01000000000101bcc5a783a5db90857df0348c0616e512df999598ecfab0c5225421bb3927ca6b010000002322002083f5850b1b9ae687f7cf8d5c77fefcbd87cde420155cd43c20d50f5f293b7ed6ffffffff0294670000000000001976a9141e096ec00e13295631aa568487b730f3ed183ddb88ac5af71f000000000017a914412a5a9d44d5834123b7756088f409b7b3a36da68704004730440220021cf0746bc7cdfcbb3cad008b40c8ea41eda2ff38a7ad1486f4d44b39c4e4d90220211b55c6f05dc7d979a9cf464cb8483cffad4875ee4042dd235ea2f2b73ab83e01483045022100f2dd00fd9a9f1e73b36622b8c11a3c76c68fdccd40ce8668ff7940f578b0eb3d022058d54a325a79a8496f59f1ffe6701b05acdf5132f7d09a8e8e14340d0873b0bb01475221020511070566b8412d1941b8dc0ded10caa6a6915b609dfa65bb8111255071d3a22103871fc2ca08e6950b38867e8e6a0e94ee625223d3aa0df5c65f414c6d784467e252ae00000000", "vin": [{"txinwitness": ["", "30440220021cf0746bc7cdfcbb3cad008b40c8ea41eda2ff38a7ad1486f4d44b39c4e4d90220211b55c6f05dc7d979a9cf464cb8483cffad4875ee4042dd235ea2f2b73ab83e01", "3045022100f2dd00fd9a9f1e73b36622b8c11a3c76c68fdccd40ce8668ff7940f578b0eb3d022058d54a325a79a8496f59f1ffe6701b05acdf5132f7d09a8e8e14340d0873b0bb01", "5221020511070566b8412d1941b8dc0ded10caa6a6915b609dfa65bb8111255071d3a22103871fc2ca08e6950b38867e8e6a0e94ee625223d3aa0df5c65f414c6d784467e252ae"], "sequence": 4294967295, "scriptSig": {"hex": "22002083f5850b1b9ae687f7cf8d5c77fefcbd87cde420155cd43c20d50f5f293b7ed6", "asm": "002083f5850b1b9ae687f7cf8d5c77fefcbd87cde420155cd43c20d50f5f293b7ed6"}, "vout": 1, "txid": "6bca2739bb215422c5b0faec989599df12e516068c34f07d8590dba583a7c5bc"}], "txid": "0a47cb6fdce5735c9b61bb3848ab66d907d3546d6f4d6f119fa943ae336c01c0", "blocktime": 1537872018, "version": 1, "confirmations": 11489, "time": 1537872018, "locktime": 0, "vsize": 208, "size": 373}