{"hash": "0a48e8a189334a9c5b170bac88b1b57562a6b369c1ed8a9bd74f497dfa95d581", "blockhash": "0000000000000000000e13cef7c366c0283d82e591d1acd082e914b08063cdf1", "vout": [{"scriptPubKey": {"reqSigs": 1, "hex": "76a914841d59857761ae4b1e5055c96806f36ecc292b6488ac", "addresses": ["1D3ZMaJ1JRmi2zf8hzDNfzKSAxj4HbQnL1"], "asm": "OP_DUP OP_HASH160 841d59857761ae4b1e5055c96806f36ecc292b64 OP_EQUALVERIFY OP_CHECKSIG", "type": "pubkeyhash"}, "value": 1.51863937, "n": 0}, {"scriptPubKey": {"reqSigs": 1, "hex": "76a9144f32f64511b51a0503bb173123da8e831c66e2cc88ac", "addresses": ["18DmS4ErZmFoGur7um3ryP9qFr2J8BCZAH"], "asm": "OP_DUP OP_HASH160 4f32f64511b51a0503bb173123da8e831c66e2cc OP_EQUALVERIFY OP_CHECKSIG", "type": "pubkeyhash"}, "value": 2.0, "n": 1}], "hex": "01000000019b5bcab13bb0536530b11ec25b211fcf8185d8cdab176851aeffc8fe709d07d5000000006a4730440220437763e124c9c5f766b1c3714fd1b71a8e5e169de06e20459d79b320a2ab562a02207031511cb2002f195aa9f1a041fc663152b636f7178bea72d55007fbb87e965e012102d6699b0e42ba31993bada6f7cef187aa42dc410d61c92dd6f1e16a9e9d1d4aa5ffffffff0281420d09000000001976a914841d59857761ae4b1e5055c96806f36ecc292b6488ac00c2eb0b000000001976a9144f32f64511b51a0503bb173123da8e831c66e2cc88ac00000000", "vin": [{"sequence": 4294967295, "scriptSig": {"hex": "4730440220437763e124c9c5f766b1c3714fd1b71a8e5e169de06e20459d79b320a2ab562a02207031511cb2002f195aa9f1a041fc663152b636f7178bea72d55007fbb87e965e012102d6699b0e42ba31993bada6f7cef187aa42dc410d61c92dd6f1e16a9e9d1d4aa5", "asm": "30440220437763e124c9c5f766b1c3714fd1b71a8e5e169de06e20459d79b320a2ab562a02207031511cb2002f195aa9f1a041fc663152b636f7178bea72d55007fbb87e965e[ALL] 02d6699b0e42ba31993bada6f7cef187aa42dc410d61c92dd6f1e16a9e9d1d4aa5"}, "vout": 0, "txid": "d5079d70fec8ffae516817abcdd88581cf1f215bc21eb1306553b03bb1ca5b9b"}], "txid": "0a48e8a189334a9c5b170bac88b1b57562a6b369c1ed8a9bd74f497dfa95d581", "blocktime": 1537871767, "version": 1, "confirmations": 11492, "time": 1537871767, "locktime": 0, "vsize": 225, "size": 225}