{"hash": "b6ba20e4b68372c7a737309c41d7fe39d4efa4e4a3596252cd0c35df285ca7b1", "blockhash": "00000000000000000004ffacab907a6b429b9a5745fa0b75af4234bf69dd7176", "vout": [{"scriptPubKey": {"reqSigs": 1, "hex": "76a9144c12249b6d04c142f0bf48900f5caaabc1dd4b2888ac", "addresses": ["17wE6BF8voCGT7Keqkc2yBTVuPCrKUgdWv"], "asm": "OP_DUP OP_HASH160 4c12249b6d04c142f0bf48900f5caaabc1dd4b28 OP_EQUALVERIFY OP_CHECKSIG", "type": "pubkeyhash"}, "value": 0.001, "n": 0}, {"scriptPubKey": {"reqSigs": 1, "hex": "a9146c2259ad31b6f657bcff4265bd6429a192aad84b87", "addresses": ["3BYn3xkbyWkPd14JgATACmReBbFJ2UDJgJ"], "asm": "OP_HASH160 6c2259ad31b6f657bcff4265bd6429a192aad84b OP_EQUAL", "type": "scripthash"}, "value": 0.10401618, "n": 1}], "hex": "010000000001017f4fbdc08c510f2f653024a2d1d8bd485ba46b83edae813bf8975305cab4cdab0000000017160014121fad01d783d8e288ac9d3082206eca5971fb3fffffff0002a0860100000000001976a9144c12249b6d04c142f0bf48900f5caaabc1dd4b2888ac52b79e000000000017a9146c2259ad31b6f657bcff4265bd6429a192aad84b870247304402205bc1ef9fdd75cc61e60be8b22adf44712c2145389cf38efa3d35197b101683330220089fbd7f84adf554f1750b82006bd8ce16d0a81345c8846040e04d2827bf42df0121026c198e7c4299fee2698f6f68a7385370fc1af69727d2b3aab7880b08b2db9e5800000000", "vin": [{"txinwitness": ["304402205bc1ef9fdd75cc61e60be8b22adf44712c2145389cf38efa3d35197b101683330220089fbd7f84adf554f1750b82006bd8ce16d0a81345c8846040e04d2827bf42df01", "026c198e7c4299fee2698f6f68a7385370fc1af69727d2b3aab7880b08b2db9e58"], "sequence": 16777215, "scriptSig": {"hex": "160014121fad01d783d8e288ac9d3082206eca5971fb3f", "asm": "0014121fad01d783d8e288ac9d3082206eca5971fb3f"}, "vout": 0, "txid": "abcdb4ca055397f83b81aeed836ba45b48bdd8d1a22430652f0f518cc0bd4f7f"}], "txid": "0a4b5df29577de2dd10a790ccd464295c8258e5f0df567480a3e6eb2a7f165f6", "blocktime": 1537875543, "version": 1, "confirmations": 11464, "time": 1537875543, "locktime": 0, "vsize": 168, "size": 249}