{"hash": "0a4f090d3b03464e2514645e9925e601f451d25920758d0688a2dfc10315afff", "blockhash": "00000000000000000018f53835495a110e01622372bf6ae95dc86f2b0ab887b0", "vout": [{"scriptPubKey": {"reqSigs": 1, "hex": "a914dfd4075deeced368c78a95e96704ddac2136418d87", "addresses": ["3N6WcLenpfCQsUMvqc8Ce2CH6HevPAjxTi"], "asm": "OP_HASH160 dfd4075deeced368c78a95e96704ddac2136418d OP_EQUAL", "type": "scripthash"}, "value": 0.0079, "n": 0}, {"scriptPubKey": {"reqSigs": 1, "hex": "76a914b362102b5635091fbdf61cbb2d7f9a5ece06f7cf88ac", "addresses": ["1HMVRtMxNErdUQohXAKoinpeu1NXs3myT1"], "asm": "OP_DUP OP_HASH160 b362102b5635091fbdf61cbb2d7f9a5ece06f7cf OP_EQUALVERIFY OP_CHECKSIG", "type": "pubkeyhash"}, "value": 0.0248063, "n": 1}], "hex": "0100000001446b110fa3cd3b80ca782ec12f0266e2ab55408dc54468d46550c204f6a9573e010000006b483045022100d77e0e09831e5507929274f629aab05cbbcad01fa5705bbc8bb452ad9b8617cd0220144b39164582402fbc0dfda2ffd88ec4bd69fd32caae321fba2a731d0eecda300121034cdfa4cf9281692bea5dc64c37fc4a9f8ca3ba28990616355a80b8d16d77c9feffffffff02f00d0c000000000017a914dfd4075deeced368c78a95e96704ddac2136418d87f6d92500000000001976a914b362102b5635091fbdf61cbb2d7f9a5ece06f7cf88ac00000000", "vin": [{"sequence": 4294967295, "scriptSig": {"hex": "483045022100d77e0e09831e5507929274f629aab05cbbcad01fa5705bbc8bb452ad9b8617cd0220144b39164582402fbc0dfda2ffd88ec4bd69fd32caae321fba2a731d0eecda300121034cdfa4cf9281692bea5dc64c37fc4a9f8ca3ba28990616355a80b8d16d77c9fe", "asm": "3045022100d77e0e09831e5507929274f629aab05cbbcad01fa5705bbc8bb452ad9b8617cd0220144b39164582402fbc0dfda2ffd88ec4bd69fd32caae321fba2a731d0eecda30[ALL] 034cdfa4cf9281692bea5dc64c37fc4a9f8ca3ba28990616355a80b8d16d77c9fe"}, "vout": 1, "txid": "3e57a9f604c25065d46844c58d4055abe266022fc12e78ca803bcda30f116b44"}], "txid": "0a4f090d3b03464e2514645e9925e601f451d25920758d0688a2dfc10315afff", "blocktime": 1537870928, "version": 1, "confirmations": 11514, "time": 1537870928, "locktime": 0, "vsize": 224, "size": 224}