{"hash": "0a54981d4e0ce5a89bf03adad15401be17e2cdc70a6c187701ea4d39215509bc", "blockhash": "0000000000000000000baef3f32e3676a92c3b2e5da21b426e4f302fc371ce76", "vout": [{"scriptPubKey": {"reqSigs": 1, "hex": "76a9146bee8d5a13dbdcde2c9bcaa27182297d878db86888ac", "addresses": ["1Aqh5RNbRDCaSqv7NFZBAn6WJtygX4QU5A"], "asm": "OP_DUP OP_HASH160 6bee8d5a13dbdcde2c9bcaa27182297d878db868 OP_EQUALVERIFY OP_CHECKSIG", "type": "pubkeyhash"}, "value": 0.0007444, "n": 0}, {"scriptPubKey": {"type": "nulldata", "hex": "6a4c50000078080001990d277908cce9c0333419ac702940d64fa54d8eb2d19ed074892d00f8e85f129d8a3a213c51dc8285590798f4745baa1ade0613b2d236377c00bc9a9526289ac0f6612cd74e33776ee4", "asm": "OP_RETURN 000078080001990d277908cce9c0333419ac702940d64fa54d8eb2d19ed074892d00f8e85f129d8a3a213c51dc8285590798f4745baa1ade0613b2d236377c00bc9a9526289ac0f6612cd74e33776ee4"}, "value": 0.0, "n": 1}], "hex": "01000000013dbe8865a95dc7a396fd12feebf42afe6599c9605691854e529871a726c88795000000006a473044022037c3ff432f96a752d7cb876159e3347e4095dd02f57836b60ececca139da71da02202496bea2f530717f5c4b97d5e89d3c46bea26e640ca268660f39cbfd4be65bce01210265fdfe332320b3575ba54126f263a0f7dfa6ccf3d91701f90eeec9cbf2e59a1effffffff02c8220100000000001976a9146bee8d5a13dbdcde2c9bcaa27182297d878db86888ac0000000000000000536a4c50000078080001990d277908cce9c0333419ac702940d64fa54d8eb2d19ed074892d00f8e85f129d8a3a213c51dc8285590798f4745baa1ade0613b2d236377c00bc9a9526289ac0f6612cd74e33776ee400000000", "vin": [{"sequence": 4294967295, "scriptSig": {"hex": "473044022037c3ff432f96a752d7cb876159e3347e4095dd02f57836b60ececca139da71da02202496bea2f530717f5c4b97d5e89d3c46bea26e640ca268660f39cbfd4be65bce01210265fdfe332320b3575ba54126f263a0f7dfa6ccf3d91701f90eeec9cbf2e59a1e", "asm": "3044022037c3ff432f96a752d7cb876159e3347e4095dd02f57836b60ececca139da71da02202496bea2f530717f5c4b97d5e89d3c46bea26e640ca268660f39cbfd4be65bce[ALL] 0265fdfe332320b3575ba54126f263a0f7dfa6ccf3d91701f90eeec9cbf2e59a1e"}, "vout": 0, "txid": "9587c826a77198524e85915660c99965fe2af4ebfe12fd96a3c75da96588be3d"}], "txid": "0a54981d4e0ce5a89bf03adad15401be17e2cdc70a6c187701ea4d39215509bc", "blocktime": 1537876114, "version": 1, "confirmations": 11460, "time": 1537876114, "locktime": 0, "vsize": 283, "size": 283}