{"hash": "0a54ba8106a749c3d5390b9eb219f39ed96a01d0d2c7818d0ffb13242a1530fd", "blockhash": "00000000000000000017f5eb5941039fbcee6240d03bc1f2f8e35350df66a1d8", "vout": [{"scriptPubKey": {"reqSigs": 1, "hex": "76a914ebff5c786e26c9b000be10b8c62bd8a7e55b241588ac", "addresses": ["1NWqhtX5ySrDPcUPcd133tmBsQPpxbNgJ6"], "asm": "OP_DUP OP_HASH160 ebff5c786e26c9b000be10b8c62bd8a7e55b2415 OP_EQUALVERIFY OP_CHECKSIG", "type": "pubkeyhash"}, "value": 0.00499064, "n": 0}, {"scriptPubKey": {"type": "nulldata", "hex": "6a146f6d6e69000000000000001f0000005fd6df1fc0", "asm": "OP_RETURN 6f6d6e69000000000000001f0000005fd6df1fc0"}, "value": 0.0, "n": 1}, {"scriptPubKey": {"reqSigs": 1, "hex": "76a914a25dec4d0011064ef106a983c39c7a540699f22088ac", "addresses": ["1FoWyxwPXuj4C6abqwhjDWdz6D4PZgYRjA"], "asm": "OP_DUP OP_HASH160 a25dec4d0011064ef106a983c39c7a540699f220 OP_EQUALVERIFY OP_CHECKSIG", "type": "pubkeyhash"}, "value": 5.46e-06, "n": 2}], "hex": "01000000013a4c1d798db6bc890731bb89fb16f82f1d6cbe6a01b7d47d30c65bc3d1988db3020000006b483045022100ee6ab74f149bfc746319dd3c7ba58acdb6b401ff31dd70755e5383b4775a2f0a0220055733185fd597c19d9b5daa5522e699bc9ad9597c71ec9bf9f4889e67ad93b501210311dc9a69632d12a3eba443f017946e7c34b2b629a00a9cdb8c8d4482bad9f943feffffff03789d0700000000001976a914ebff5c786e26c9b000be10b8c62bd8a7e55b241588ac0000000000000000166a146f6d6e69000000000000001f0000005fd6df1fc022020000000000001976a914a25dec4d0011064ef106a983c39c7a540699f22088ac15490800", "vin": [{"sequence": 4294967294, "scriptSig": {"hex": "483045022100ee6ab74f149bfc746319dd3c7ba58acdb6b401ff31dd70755e5383b4775a2f0a0220055733185fd597c19d9b5daa5522e699bc9ad9597c71ec9bf9f4889e67ad93b501210311dc9a69632d12a3eba443f017946e7c34b2b629a00a9cdb8c8d4482bad9f943", "asm": "3045022100ee6ab74f149bfc746319dd3c7ba58acdb6b401ff31dd70755e5383b4775a2f0a0220055733185fd597c19d9b5daa5522e699bc9ad9597c71ec9bf9f4889e67ad93b5[ALL] 0311dc9a69632d12a3eba443f017946e7c34b2b629a00a9cdb8c8d4482bad9f943"}, "vout": 2, "txid": "b38d98d1c35bc6307dd4b7016abe6c1d2ff816fb89bb310789bcb68d791d4c3a"}], "txid": "0a54ba8106a749c3d5390b9eb219f39ed96a01d0d2c7818d0ffb13242a1530fd", "blocktime": 1537874412, "version": 1, "confirmations": 11468, "time": 1537874412, "locktime": 542997, "vsize": 257, "size": 257}