{"hash": "6561400ac6283f2142e0914012a4468280a5c0ec2fe90bdc0f04472272ac322a", "blockhash": "0000000000000000001e0dab787dd257d1dbfcb92a98c2207d5e1078be1f4165", "vout": [{"scriptPubKey": {"reqSigs": 1, "hex": "a91470e19302dc59373f6875312d53b12ce8045838fd87", "addresses": ["3BysqCk6MDSmiPAQ3Ng3W7eaYk6BRwZcmu"], "asm": "OP_HASH160 70e19302dc59373f6875312d53b12ce8045838fd OP_EQUAL", "type": "scripthash"}, "value": 0.00965861, "n": 0}, {"scriptPubKey": {"reqSigs": 1, "hex": "a9147c2d778520abf5da6334518270ea46458575a3d687", "addresses": ["3D1cBRaaZpC6Uehbfp7LJfmcgy11ezXU1p"], "asm": "OP_HASH160 7c2d778520abf5da6334518270ea46458575a3d6 OP_EQUAL", "type": "scripthash"}, "value": 0.01000134, "n": 1}], "hex": "020000000001040f799f97505835399979ec0bd4aea053bc5e51fcee72082b7df10136798268dc01000000171600145033b866f9b5cf003407fafd0df5999d43a74240feffffff1fb42ccdc4801a1d2f40cfc929c10cf7fd1b6ce252540593db1386ab95adcabe0000000017160014e54cfe5957eab98186f4d7d31de415b9938b71b4feffffff2e9f35e1123bbcca8f10762e862db1bd602d6c6ff4507c2c3b47f9e9bcab35c4010000001716001496a305cb78c397b7e01f823331b02cb08cf6ad29feffffffec33dd66132f4cce31c343a296cd879e269601a381db18c447f73cc66040466f0000000017160014d1ef7466d9f250048bddbcb3608679e81146049bfeffffff02e5bc0e000000000017a91470e19302dc59373f6875312d53b12ce8045838fd87c6420f000000000017a9147c2d778520abf5da6334518270ea46458575a3d68702483045022100e6fd09680355dc1c7deef99b11a1f6c6f2e6c67bc4c9e6325fad560c7d4ca30b02206bb374f0fc0b21793ca93f78a615dc63b021c02e7689c7079aa97896c1455a16012103464a81aa9605a86aebd743aac21b663941593d6fbf347061fb2306f1f30e83cc0247304402206f159910b1f75d916914023efffcb58ef1cb1eb0dcad8f9d6392d8236778ac5402205d2c59fcbbc3089335f8f755888ad8a2127f94ee4f96b15f38c2a8367483049b0121025ee334eb743d56ea986793263501b5091e06d0adc8c45b9d64f199b39a398d37024830450221009f593622c58c14c6a0e7a844a97934d0f018dc24472fe54f4c736971a6be313702207c4ddd216e33542612f4c001a8b0abc07e546c9f55b792446f95cac4fc09b8aa0121024a4439cacd9298d2062652a9e2fccf69197e7656cfefb2acc7524889e700850902473044022065222da7742656398e3e9ef3c6c77008b2cecf6e1a63ef8a1af04e079f27d1c002202d7bacbb8806b8a632d908a2e56626b5cfc6eac694db9ced9b473f0e90aa0e110121028fce7ef0cea62bb6cd315f6429be0ae8ad3b5ba8b46664000926ad9470cea8ee00000000", "vin": [{"txinwitness": ["3045022100e6fd09680355dc1c7deef99b11a1f6c6f2e6c67bc4c9e6325fad560c7d4ca30b02206bb374f0fc0b21793ca93f78a615dc63b021c02e7689c7079aa97896c1455a1601", "03464a81aa9605a86aebd743aac21b663941593d6fbf347061fb2306f1f30e83cc"], "sequence": 4294967294, "scriptSig": {"hex": "1600145033b866f9b5cf003407fafd0df5999d43a74240", "asm": "00145033b866f9b5cf003407fafd0df5999d43a74240"}, "vout": 1, "txid": "dc6882793601f17d2b0872eefc515ebc53a0aed40bec799939355850979f790f"}, {"txinwitness": ["304402206f159910b1f75d916914023efffcb58ef1cb1eb0dcad8f9d6392d8236778ac5402205d2c59fcbbc3089335f8f755888ad8a2127f94ee4f96b15f38c2a8367483049b01", "025ee334eb743d56ea986793263501b5091e06d0adc8c45b9d64f199b39a398d37"], "sequence": 4294967294, "scriptSig": {"hex": "160014e54cfe5957eab98186f4d7d31de415b9938b71b4", "asm": "0014e54cfe5957eab98186f4d7d31de415b9938b71b4"}, "vout": 0, "txid": "becaad95ab8613db93055452e26c1bfdf70cc129c9cf402f1d1a80c4cd2cb41f"}, {"txinwitness": ["30450221009f593622c58c14c6a0e7a844a97934d0f018dc24472fe54f4c736971a6be313702207c4ddd216e33542612f4c001a8b0abc07e546c9f55b792446f95cac4fc09b8aa01", "024a4439cacd9298d2062652a9e2fccf69197e7656cfefb2acc7524889e7008509"], "sequence": 4294967294, "scriptSig": {"hex": "16001496a305cb78c397b7e01f823331b02cb08cf6ad29", "asm": "001496a305cb78c397b7e01f823331b02cb08cf6ad29"}, "vout": 1, "txid": "c435abbce9f9473b2c7c50f46f6c2d60bdb12d862e76108fcabc3b12e1359f2e"}, {"txinwitness": ["3044022065222da7742656398e3e9ef3c6c77008b2cecf6e1a63ef8a1af04e079f27d1c002202d7bacbb8806b8a632d908a2e56626b5cfc6eac694db9ced9b473f0e90aa0e1101", "028fce7ef0cea62bb6cd315f6429be0ae8ad3b5ba8b46664000926ad9470cea8ee"], "sequence": 4294967294, "scriptSig": {"hex": "160014d1ef7466d9f250048bddbcb3608679e81146049b", "asm": "0014d1ef7466d9f250048bddbcb3608679e81146049b"}, "vout": 0, "txid": "6f464060c63cf747c418db81a30196269e87cd96a243c331ce4c2f1366dd33ec"}], "txid": "0a59c61e3b54fa364271138cc48f5e3fe60e8e06645afb21f63632fc1bdbb9b2", "blocktime": 1537872475, "version": 2, "confirmations": 11487, "time": 1537872475, "locktime": 0, "vsize": 438, "size": 762}