{"hash": "0a5b32da3fd551d91e96e2872e8faf2c15aa110d0fdad7f45df637ef03848410", "blockhash": "0000000000000000000dcc0f55137456b1a82d3642486a52398922ac4d620174", "vout": [{"scriptPubKey": {"reqSigs": 1, "hex": "76a9142b76346bcc7b145455915173ca2a33df8899a7a188ac", "addresses": ["14xofG5zD6vUZshTncWPUQ7TVWnJDABS4f"], "asm": "OP_DUP OP_HASH160 2b76346bcc7b145455915173ca2a33df8899a7a1 OP_EQUALVERIFY OP_CHECKSIG", "type": "pubkeyhash"}, "value": 0.00607494, "n": 0}, {"scriptPubKey": {"reqSigs": 1, "hex": "76a9146a9b574853c0675901f42c44b328fc44df05697388ac", "addresses": ["1AigicWfdcEZcwmBdzeGiKWHzAkgZeF3V4"], "asm": "OP_DUP OP_HASH160 6a9b574853c0675901f42c44b328fc44df056973 OP_EQUALVERIFY OP_CHECKSIG", "type": "pubkeyhash"}, "value": 0.02818198, "n": 1}, {"scriptPubKey": {"reqSigs": 1, "hex": "76a9140a66b0c11308e1b30415ad1162389c679891927788ac", "addresses": ["1wzmyas7jmPCxJdnkDGEDveDSiYMS9MFn"], "asm": "OP_DUP OP_HASH160 0a66b0c11308e1b30415ad1162389c6798919277 OP_EQUALVERIFY OP_CHECKSIG", "type": "pubkeyhash"}, "value": 6.55575916, "n": 2}], "hex": "0100000001df5dad7b49f375044c20be8eb26da0d0d89b893f5e683b6f0da19f69407c90c0020000006a47304402203afa7379fa5ad511edbd609d7576c5f58c1dc16df6c4255beedd7ca95837db72022067a18187d96c83b485c2540163d5cdf3f1964459615fc83db39f9e6bc7d1f18f012102d26817135d374de5821e3d712a9f591820fc444110c828e1f19075d75c1a4ef9feffffff0306450900000000001976a9142b76346bcc7b145455915173ca2a33df8899a7a188ac96002b00000000001976a9146a9b574853c0675901f42c44b328fc44df05697388ac6c4b1327000000001976a9140a66b0c11308e1b30415ad1162389c679891927788ac00000000", "vin": [{"sequence": 4294967294, "scriptSig": {"hex": "47304402203afa7379fa5ad511edbd609d7576c5f58c1dc16df6c4255beedd7ca95837db72022067a18187d96c83b485c2540163d5cdf3f1964459615fc83db39f9e6bc7d1f18f012102d26817135d374de5821e3d712a9f591820fc444110c828e1f19075d75c1a4ef9", "asm": "304402203afa7379fa5ad511edbd609d7576c5f58c1dc16df6c4255beedd7ca95837db72022067a18187d96c83b485c2540163d5cdf3f1964459615fc83db39f9e6bc7d1f18f[ALL] 02d26817135d374de5821e3d712a9f591820fc444110c828e1f19075d75c1a4ef9"}, "vout": 2, "txid": "c0907c40699fa10d6f3b685e3f899bd8d0a06db28ebe204c0475f3497bad5ddf"}], "txid": "0a5b32da3fd551d91e96e2872e8faf2c15aa110d0fdad7f45df637ef03848410", "blocktime": 1537870268, "version": 1, "confirmations": 11516, "time": 1537870268, "locktime": 0, "vsize": 259, "size": 259}