{"hash": "0a605f31a7129e40547a1bea5621a45b16beaa4135badc55a5244c2848e4824b", "blockhash": "00000000000000000004ffacab907a6b429b9a5745fa0b75af4234bf69dd7176", "vout": [{"scriptPubKey": {"reqSigs": 1, "hex": "76a91427d51d1aecba602dea991d6cff202e50703ee88188ac", "addresses": ["14dcet4Lqh3XUBWSU5GhVQREgfmMG9mAA5"], "asm": "OP_DUP OP_HASH160 27d51d1aecba602dea991d6cff202e50703ee881 OP_EQUALVERIFY OP_CHECKSIG", "type": "pubkeyhash"}, "value": 0.14417924, "n": 0}, {"scriptPubKey": {"type": "nulldata", "hex": "6a146f6d6e69000000000000001f00000008278967a3", "asm": "OP_RETURN 6f6d6e69000000000000001f00000008278967a3"}, "value": 0.0, "n": 1}, {"scriptPubKey": {"reqSigs": 1, "hex": "76a9142570bc6450971881da6794e13a6f04c42e1cfab488ac", "addresses": ["14Qy48J78C2RQbH1zSUfBsGJPYnrhLTyrs"], "asm": "OP_DUP OP_HASH160 2570bc6450971881da6794e13a6f04c42e1cfab4 OP_EQUALVERIFY OP_CHECKSIG", "type": "pubkeyhash"}, "value": 5.46e-06, "n": 2}], "hex": "010000000266813c117e78144e170646f38dd8ca6469aa0d144bd69c20cf9554affb413fea020000006b483045022100980e308c1809b58611c14615f9f4c672019894353890833827e2e726131ebc970220076a53791ab94d2ddc0bb581758748d87f20e5f426e170e6f3274e0df277c0dc012102a85ece35f8ad6dee0a1954b7a7c9c100f0549d66ff4245c89968803ac73b8b8effffffff77463a3a764b4a49464e2c24ef4ca87d1fcd49553757fb059b717b595bcd2d40000000006b48304502210091aa19c44e262466868fe5afb5f0016bb787ea586832ef8c5d66c29eab2059c802204d04d7f21db0a249d507dbdcd304e92405166c4c0b68da4cd4ad2f6c3843fe650121039d6badaa44b1756460faa2d4bf0daa40e46c5206ec9ef5963decb350076e7f6affffffff030400dc00000000001976a91427d51d1aecba602dea991d6cff202e50703ee88188ac0000000000000000166a146f6d6e69000000000000001f00000008278967a322020000000000001976a9142570bc6450971881da6794e13a6f04c42e1cfab488ac00000000", "vin": [{"sequence": 4294967295, "scriptSig": {"hex": "483045022100980e308c1809b58611c14615f9f4c672019894353890833827e2e726131ebc970220076a53791ab94d2ddc0bb581758748d87f20e5f426e170e6f3274e0df277c0dc012102a85ece35f8ad6dee0a1954b7a7c9c100f0549d66ff4245c89968803ac73b8b8e", "asm": "3045022100980e308c1809b58611c14615f9f4c672019894353890833827e2e726131ebc970220076a53791ab94d2ddc0bb581758748d87f20e5f426e170e6f3274e0df277c0dc[ALL] 02a85ece35f8ad6dee0a1954b7a7c9c100f0549d66ff4245c89968803ac73b8b8e"}, "vout": 2, "txid": "ea3f41fbaf5495cf209cd64b140daa6964cad88df34606174e14787e113c8166"}, {"sequence": 4294967295, "scriptSig": {"hex": "48304502210091aa19c44e262466868fe5afb5f0016bb787ea586832ef8c5d66c29eab2059c802204d04d7f21db0a249d507dbdcd304e92405166c4c0b68da4cd4ad2f6c3843fe650121039d6badaa44b1756460faa2d4bf0daa40e46c5206ec9ef5963decb350076e7f6a", "asm": "304502210091aa19c44e262466868fe5afb5f0016bb787ea586832ef8c5d66c29eab2059c802204d04d7f21db0a249d507dbdcd304e92405166c4c0b68da4cd4ad2f6c3843fe65[ALL] 039d6badaa44b1756460faa2d4bf0daa40e46c5206ec9ef5963decb350076e7f6a"}, "vout": 0, "txid": "402dcd5b597b719b05fb57375549cd1f7da84cef242c4e46494a4b763a3a4677"}], "txid": "0a605f31a7129e40547a1bea5621a45b16beaa4135badc55a5244c2848e4824b", "blocktime": 1537875543, "version": 1, "confirmations": 11464, "time": 1537875543, "locktime": 0, "vsize": 405, "size": 405}