{"hash": "0a650c4e10e6ddd30a6709e5b8b0ad1f057f803db512a6adf64ae9617619aa7c", "blockhash": "00000000000000000017f5eb5941039fbcee6240d03bc1f2f8e35350df66a1d8", "vout": [{"scriptPubKey": {"reqSigs": 1, "hex": "a914692e86fc298afce613f816e7d27972d89cd007fd87", "addresses": ["3BHAcTYJTjZTDXkMqAanr93SiB9SjY1Z9r"], "asm": "OP_HASH160 692e86fc298afce613f816e7d27972d89cd007fd OP_EQUAL", "type": "scripthash"}, "value": 0.00125112, "n": 0}, {"scriptPubKey": {"reqSigs": 1, "hex": "76a91469567de405bd26854efc47e9e2697f2fdf8894c988ac", "addresses": ["1AbyZhKESJ1Yd1AH7XGS2WWdsxwBNcfGZy"], "asm": "OP_DUP OP_HASH160 69567de405bd26854efc47e9e2697f2fdf8894c9 OP_EQUALVERIFY OP_CHECKSIG", "type": "pubkeyhash"}, "value": 0.0063366, "n": 1}], "hex": "0100000001560e1a161c6cecf326fe0af3ddfc69117801701e4aa1f7d11c1eec5f135159ac010000006a4730440220591a0b6a6f7a7c09cd4f095e06fbe6af13d9c4fb868f870bad75860b15fdbe950220021aba68765d57430f45ad0e03401e15aa20537f873e5889f6eb55b7f55302800121039c9223ca6e569cdb6874f11def0b5e4f401aa3e137c8f3cfe844363eeff1cd4effffffff02b8e801000000000017a914692e86fc298afce613f816e7d27972d89cd007fd873cab0900000000001976a91469567de405bd26854efc47e9e2697f2fdf8894c988ac00000000", "vin": [{"sequence": 4294967295, "scriptSig": {"hex": "4730440220591a0b6a6f7a7c09cd4f095e06fbe6af13d9c4fb868f870bad75860b15fdbe950220021aba68765d57430f45ad0e03401e15aa20537f873e5889f6eb55b7f55302800121039c9223ca6e569cdb6874f11def0b5e4f401aa3e137c8f3cfe844363eeff1cd4e", "asm": "30440220591a0b6a6f7a7c09cd4f095e06fbe6af13d9c4fb868f870bad75860b15fdbe950220021aba68765d57430f45ad0e03401e15aa20537f873e5889f6eb55b7f5530280[ALL] 039c9223ca6e569cdb6874f11def0b5e4f401aa3e137c8f3cfe844363eeff1cd4e"}, "vout": 1, "txid": "ac5951135fec1e1cd1f7a14a1e7001781169fcddf30afe26f3ec6c1c161a0e56"}], "txid": "0a650c4e10e6ddd30a6709e5b8b0ad1f057f803db512a6adf64ae9617619aa7c", "blocktime": 1537874412, "version": 1, "confirmations": 11467, "time": 1537874412, "locktime": 0, "vsize": 223, "size": 223}