{"hash": "53bfa5c2c2be7178d661256f1acc3ae10733f8b91d74a5b506bbe99d20dee9e1", "blockhash": "00000000000000000004ffacab907a6b429b9a5745fa0b75af4234bf69dd7176", "vout": [{"scriptPubKey": {"reqSigs": 1, "hex": "a914e142245fc921e2fc47727f1af67c74f832511f3387", "addresses": ["3NE5CLaRtcdz37sYacPmPmHAVEvJwyraK6"], "asm": "OP_HASH160 e142245fc921e2fc47727f1af67c74f832511f33 OP_EQUAL", "type": "scripthash"}, "value": 2.5, "n": 0}, {"scriptPubKey": {"reqSigs": 1, "hex": "a914d170a7495fac366c3da100feda5402654e58869587", "addresses": ["3LnS6wFWxxfJcpZgkagrvwNBHqdxUocFzT"], "asm": "OP_HASH160 d170a7495fac366c3da100feda5402654e588695 OP_EQUAL", "type": "scripthash"}, "value": 1.11416187, "n": 1}], "hex": "0100000000010215632b7d5f1d8ef56de2a839bc29ac4562859a67a199bd8a3159ae5cc308e4cd07000000171600141e17065f251d68ae5a336f0405d2e5ebda99a7c2ffffffff788d47dd4ab8f9f843e6683823e66095b56bcb70c27939a77de666b9d7412f090300000017160014584cf1ae84f55406f4b474e0407daf2ba13b74bcffffffff0280b2e60e0000000017a914e142245fc921e2fc47727f1af67c74f832511f33877b13a4060000000017a914d170a7495fac366c3da100feda5402654e588695870247304402204ceb62ebc9f74c6982dac6c39cea32be2ae5a6a9cb16988fa8cdedaf33261a330220653f2d7ff407db4f98bc299035e56b7352ea5ba0f07ba4f0efbc522add142a95012103cc3a169ecb183366386f3cbc0ec7f0002bc655cd6b5ee5aa3819e6561c79e17b0247304402200e9f42b54438f9e6d4171256a22c24c2dc838b327c01c7541191b86ad6b4017d02202f73aff63570a5fd87e4bff8d11b0d430d8eca98850674c58e674862b5eb965801210339a5e788386347fd30e0e5fbd2ab60a8471931bc430a763ef1b4c2c73e1808f100000000", "vin": [{"txinwitness": ["304402204ceb62ebc9f74c6982dac6c39cea32be2ae5a6a9cb16988fa8cdedaf33261a330220653f2d7ff407db4f98bc299035e56b7352ea5ba0f07ba4f0efbc522add142a9501", "03cc3a169ecb183366386f3cbc0ec7f0002bc655cd6b5ee5aa3819e6561c79e17b"], "sequence": 4294967295, "scriptSig": {"hex": "1600141e17065f251d68ae5a336f0405d2e5ebda99a7c2", "asm": "00141e17065f251d68ae5a336f0405d2e5ebda99a7c2"}, "vout": 7, "txid": "cde408c35cae59318abd99a1679a856245ac29bc39a8e26df58e1d5f7d2b6315"}, {"txinwitness": ["304402200e9f42b54438f9e6d4171256a22c24c2dc838b327c01c7541191b86ad6b4017d02202f73aff63570a5fd87e4bff8d11b0d430d8eca98850674c58e674862b5eb965801", "0339a5e788386347fd30e0e5fbd2ab60a8471931bc430a763ef1b4c2c73e1808f1"], "sequence": 4294967295, "scriptSig": {"hex": "160014584cf1ae84f55406f4b474e0407daf2ba13b74bc", "asm": "0014584cf1ae84f55406f4b474e0407daf2ba13b74bc"}, "vout": 3, "txid": "092f41d7b966e67da73979c270cb6bb59560e6233868e643f8f9b84add478d78"}], "txid": "0a68bd59785ffcda1f28750895c70a9afae2aff64a77a3fa64887bb24d59414d", "blocktime": 1537875543, "version": 1, "confirmations": 11464, "time": 1537875543, "locktime": 0, "vsize": 256, "size": 418}