{"hash": "652459716f615714ab34443398ee901429f878f50ee1cce81455eb4268198b7d", "blockhash": "0000000000000000001cda96e906b7601b7a6fb1a3b62bca570a9e5d8f4b3de1", "vout": [{"scriptPubKey": {"reqSigs": 1, "hex": "a9141037a100c0badbf83617e8570de2c7998510903687", "addresses": ["33AmNn5TvuWNQwscqBHpjrhMHobm1oF6kE"], "asm": "OP_HASH160 1037a100c0badbf83617e8570de2c79985109036 OP_EQUAL", "type": "scripthash"}, "value": 0.05468, "n": 0}, {"scriptPubKey": {"reqSigs": 1, "hex": "a9141988a27e3c2df4ddee7fad5a2303d086179b2a3087", "addresses": ["3422VtS7UtCvXYxoXMVp6eZupR252z85oC"], "asm": "OP_HASH160 1988a27e3c2df4ddee7fad5a2303d086179b2a30 OP_EQUAL", "type": "scripthash"}, "value": 0.19571083, "n": 1}], "hex": "010000000001012981053a4efdc42d3dd8f17e4608070992e47f19ed2f1dd9ceff97b15ffeb2cd020000002322002065d416c48a8072e0ac51c2d111eb194f009caef0332446c1bf2097316cf07fa9ffffffff02606f53000000000017a9141037a100c0badbf83617e8570de2c79985109036878ba12a010000000017a9141988a27e3c2df4ddee7fad5a2303d086179b2a30870400473044022037cba4dafc7466553609dda9a7c289385546c0001d1557d2dd253e37c97c932b02203fcf7d88b7d6da340e67e8edb55212da77573296da74f4f1c18efa3609f4a236014830450221008232cd205ab633de0c5b51fb287252091d58492b37d1077ff57c73acba436c14022008a768a029ef975d39971d69e60c05ac2c494b48ebc25ff7949ea530aba7c7b40169522102f44abcf9e23c9a460da309ccca56c619c04eed3bde2c2cff5e7d78fbcd980b9c2103c9443cf3047bb6c2c82f1b0c44c36109cdc3d0d601d16d1189a1602bf8d1a0a02103bfe867059274412412e088af5572b92168c2ef495cfe6c9b7a753a009eb37c4853ae00000000", "vin": [{"txinwitness": ["", "3044022037cba4dafc7466553609dda9a7c289385546c0001d1557d2dd253e37c97c932b02203fcf7d88b7d6da340e67e8edb55212da77573296da74f4f1c18efa3609f4a23601", "30450221008232cd205ab633de0c5b51fb287252091d58492b37d1077ff57c73acba436c14022008a768a029ef975d39971d69e60c05ac2c494b48ebc25ff7949ea530aba7c7b401", "522102f44abcf9e23c9a460da309ccca56c619c04eed3bde2c2cff5e7d78fbcd980b9c2103c9443cf3047bb6c2c82f1b0c44c36109cdc3d0d601d16d1189a1602bf8d1a0a02103bfe867059274412412e088af5572b92168c2ef495cfe6c9b7a753a009eb37c4853ae"], "sequence": 4294967295, "scriptSig": {"hex": "22002065d416c48a8072e0ac51c2d111eb194f009caef0332446c1bf2097316cf07fa9", "asm": "002065d416c48a8072e0ac51c2d111eb194f009caef0332446c1bf2097316cf07fa9"}, "vout": 2, "txid": "cdb2fe5fb197ffced91d2fed197fe492090708467ef1d83d2dc4fd4e3a058129"}], "txid": "0a6918412fefae0ea4eba5827782dc187d647fb0ad5ca357cbedd4da74e9b6cd", "blocktime": 1537873282, "version": 1, "confirmations": 11482, "time": 1537873282, "locktime": 0, "vsize": 214, "size": 405}