{"hash": "5841fcc441d0fe9cde19c58359547a61d0434fc119303224f4b6ca26d96ea6dc", "blockhash": "0000000000000000001f76057863aec43deb6fa401d9628bb513d65a8098bfab", "vout": [{"scriptPubKey": {"reqSigs": 1, "hex": "76a9147c6bf7803f2202f1f4e22bbc4cb3ab8c1a011a9788ac", "addresses": ["1CLt8TCqK1HwMJ76Ejd2Wau4wYd3ecwHuk"], "asm": "OP_DUP OP_HASH160 7c6bf7803f2202f1f4e22bbc4cb3ab8c1a011a97 OP_EQUALVERIFY OP_CHECKSIG", "type": "pubkeyhash"}, "value": 0.0028, "n": 0}, {"scriptPubKey": {"reqSigs": 1, "hex": "a914425a42b93a420a05903a816deee2a6c382cac8bd87", "addresses": ["37jred8MrPaJkiGVBRkerpTYq87LgH4BEd"], "asm": "OP_HASH160 425a42b93a420a05903a816deee2a6c382cac8bd OP_EQUAL", "type": "scripthash"}, "value": 0.00335947, "n": 1}], "hex": "01000000000101447fe04087877f15514c955972babcc32d816eef49a244e02b03d8a40d9c7ca40100000023220020a708bfb7c7bbbbeadf3340beb77182d43a192cb7e6667dbefaf895e3339ea1c6ffffffff02c0450400000000001976a9147c6bf7803f2202f1f4e22bbc4cb3ab8c1a011a9788ac4b2005000000000017a914425a42b93a420a05903a816deee2a6c382cac8bd870400483045022100e1a5dd6bafbc52b67381b504344926df751ae48eb44f8bb6093698fc3502010902205a4195d465a8615f4ff57c0ce1ec77cad12bf4c2defcf0e148dc014e2341b35f01483045022100e15cb744e60a5ccf635403e6591c45dd4503e36fa5026f9be4e9d6fefb31ba0802202a3f273835002170535def0df98ad6c8a54ac918304749e2df266168f15be1e701475221029149f4b7a7fb02698b40b8c259b0cacc26d9c8dbec0785cc1bb475a30d709eaa21021ba7504f95428868171458363223dad7ab925c81ca917cb158e60901e81a582352ae00000000", "vin": [{"txinwitness": ["", "3045022100e1a5dd6bafbc52b67381b504344926df751ae48eb44f8bb6093698fc3502010902205a4195d465a8615f4ff57c0ce1ec77cad12bf4c2defcf0e148dc014e2341b35f01", "3045022100e15cb744e60a5ccf635403e6591c45dd4503e36fa5026f9be4e9d6fefb31ba0802202a3f273835002170535def0df98ad6c8a54ac918304749e2df266168f15be1e701", "5221029149f4b7a7fb02698b40b8c259b0cacc26d9c8dbec0785cc1bb475a30d709eaa21021ba7504f95428868171458363223dad7ab925c81ca917cb158e60901e81a582352ae"], "sequence": 4294967295, "scriptSig": {"hex": "220020a708bfb7c7bbbbeadf3340beb77182d43a192cb7e6667dbefaf895e3339ea1c6", "asm": "0020a708bfb7c7bbbbeadf3340beb77182d43a192cb7e6667dbefaf895e3339ea1c6"}, "vout": 1, "txid": "a47c9c0da4d8032be044a249ef6e812dc3bcba7259954c51157f878740e07f44"}], "txid": "0a6c291b61c718349a939b0a87d09da8102d2e0d6963a9f3d6769db553d4ee26", "blocktime": 1537873891, "version": 1, "confirmations": 11478, "time": 1537873891, "locktime": 0, "vsize": 208, "size": 374}