{"hash": "d17fd59d87397ef5364592461ffa286c98c1928e1cc9081924f723f3a757951d", "blockhash": "0000000000000000001e0dab787dd257d1dbfcb92a98c2207d5e1078be1f4165", "vout": [{"scriptPubKey": {"reqSigs": 1, "hex": "a914562b6c72b59c791f60f4604ec834d4f17edf710487", "addresses": ["39Ye4AftwfZydwewYwn2EByPu3jniya3Dk"], "asm": "OP_HASH160 562b6c72b59c791f60f4604ec834d4f17edf7104 OP_EQUAL", "type": "scripthash"}, "value": 0.00236259, "n": 0}, {"scriptPubKey": {"reqSigs": 1, "hex": "a914cac32c4c1827effece9e94ea3700a6de2b428faa87", "addresses": ["3LB8E9sazdsXj9T3hLtjHZW1z3yBwNoCYs"], "asm": "OP_HASH160 cac32c4c1827effece9e94ea3700a6de2b428faa OP_EQUAL", "type": "scripthash"}, "value": 0.00076908, "n": 1}], "hex": "01000000000101d6c25afb8b25eaf643578ec52ea6fb751b19303dd0fe634394b22027311de0b501000000232200205e93f4c5a2a1eba4eae1d5d70577b043759dec3ae0225a3f9b723282d32967aeffffffff02e39a03000000000017a914562b6c72b59c791f60f4604ec834d4f17edf7104876c2c01000000000017a914cac32c4c1827effece9e94ea3700a6de2b428faa870400483045022100b89885de925fbe035ec06384876dabcde845aad55845b3217ef60c256af3b8160220059c4adf9fd03e8676a018e9991aa0d8169ed36dee17340e7642fde86ddb161501473044022048ad53cb53171389455addd28ef7e09afb4e0b6eaf2a8003a3cfc76bb64e5bd502200f6d76d970e7d44763a6650a6205484daa571e0b28651d09829d1d72da651e8e014752210343626a675755c1b0f77cbd0c549aeb37b33812775fc7b8e8da33ae4ab5ad08c72102686562c4e5947db14c7fb24fbbb1a24e8c4c7926bea72a9ca5fd7b831d2a594d52ae00000000", "vin": [{"txinwitness": ["", "3045022100b89885de925fbe035ec06384876dabcde845aad55845b3217ef60c256af3b8160220059c4adf9fd03e8676a018e9991aa0d8169ed36dee17340e7642fde86ddb161501", "3044022048ad53cb53171389455addd28ef7e09afb4e0b6eaf2a8003a3cfc76bb64e5bd502200f6d76d970e7d44763a6650a6205484daa571e0b28651d09829d1d72da651e8e01", "52210343626a675755c1b0f77cbd0c549aeb37b33812775fc7b8e8da33ae4ab5ad08c72102686562c4e5947db14c7fb24fbbb1a24e8c4c7926bea72a9ca5fd7b831d2a594d52ae"], "sequence": 4294967295, "scriptSig": {"hex": "2200205e93f4c5a2a1eba4eae1d5d70577b043759dec3ae0225a3f9b723282d32967ae", "asm": "00205e93f4c5a2a1eba4eae1d5d70577b043759dec3ae0225a3f9b723282d32967ae"}, "vout": 1, "txid": "b5e01d312720b2944363fed03d30191b75fba62ec58e5743f6ea258bfb5ac2d6"}], "txid": "0a6e5823510067816f3771375629343aadd2325ea735b4503b51f146217d2554", "blocktime": 1537872475, "version": 1, "confirmations": 11486, "time": 1537872475, "locktime": 0, "vsize": 206, "size": 371}