{"hash": "0a71c8bc631edf1f94bcf7f9004db8f31165d965718469ee079e0a8ea193a7cf", "blockhash": "0000000000000000001cda96e906b7601b7a6fb1a3b62bca570a9e5d8f4b3de1", "vout": [{"scriptPubKey": {"reqSigs": 1, "hex": "a914a4240814db3f6935c51dfd031da0bb86c1dba35187", "addresses": ["3GeuuXBYpwQban1h4Cvc3zHCVFBK4vRqNU"], "asm": "OP_HASH160 a4240814db3f6935c51dfd031da0bb86c1dba351 OP_EQUAL", "type": "scripthash"}, "value": 0.02153128, "n": 0}, {"scriptPubKey": {"reqSigs": 1, "hex": "76a914dd0fc57b9cac37b996c00b9f379cd2897072ae4388ac", "addresses": ["1M9sEDHYr4Ho67UifTXjFwToiqh6kN48Xu"], "asm": "OP_DUP OP_HASH160 dd0fc57b9cac37b996c00b9f379cd2897072ae43 OP_EQUALVERIFY OP_CHECKSIG", "type": "pubkeyhash"}, "value": 0.36352595, "n": 1}], "hex": "01000000011e1fad84513eb1f97fb1f903ecefa994d75eb0104b986cfe83a9c06e9ff83bfd010000006a473044022003ac87318f481e124a9a65fad17efef7effb65dd82e8840cc62c62997480ad420220361ab88c6ecdd5043944bffea627637426d496991a37b0dd58d5c0f7a5d62be401210319bf6f15c5fd681f9ff6ce851395ca34daf1e3cd9a9eb5eb0db1d748687b4f2effffffff02a8da20000000000017a914a4240814db3f6935c51dfd031da0bb86c1dba3518753b22a02000000001976a914dd0fc57b9cac37b996c00b9f379cd2897072ae4388ac00000000", "vin": [{"sequence": 4294967295, "scriptSig": {"hex": "473044022003ac87318f481e124a9a65fad17efef7effb65dd82e8840cc62c62997480ad420220361ab88c6ecdd5043944bffea627637426d496991a37b0dd58d5c0f7a5d62be401210319bf6f15c5fd681f9ff6ce851395ca34daf1e3cd9a9eb5eb0db1d748687b4f2e", "asm": "3044022003ac87318f481e124a9a65fad17efef7effb65dd82e8840cc62c62997480ad420220361ab88c6ecdd5043944bffea627637426d496991a37b0dd58d5c0f7a5d62be4[ALL] 0319bf6f15c5fd681f9ff6ce851395ca34daf1e3cd9a9eb5eb0db1d748687b4f2e"}, "vout": 1, "txid": "fd3bf89f6ec0a983fe6c984b10b05ed794a9efec03f9b17ff9b13e5184ad1f1e"}], "txid": "0a71c8bc631edf1f94bcf7f9004db8f31165d965718469ee079e0a8ea193a7cf", "blocktime": 1537873282, "version": 1, "confirmations": 11482, "time": 1537873282, "locktime": 0, "vsize": 223, "size": 223}