{"hash": "0a7cf019d13b7e4c9f65b05cb39c7c979f037a81fe3b3ce88e5e620d772dc0e6", "blockhash": "00000000000000000017f5eb5941039fbcee6240d03bc1f2f8e35350df66a1d8", "vout": [{"scriptPubKey": {"reqSigs": 1, "hex": "76a914f423dfee34e4833104508103d89e316b4a49314088ac", "addresses": ["1PFtrRjbq4aLfM7k4tyLZ3ZAuTsgLr6Q8Q"], "asm": "OP_DUP OP_HASH160 f423dfee34e4833104508103d89e316b4a493140 OP_EQUALVERIFY OP_CHECKSIG", "type": "pubkeyhash"}, "value": 0.00043669, "n": 0}, {"scriptPubKey": {"reqSigs": 1, "hex": "a914fd9d04f9188963e773bd40c950f2fc12f8a7719c87", "addresses": ["3Qozyyff3fuB6qMQtqL35yiwxJfj7QcMvC"], "asm": "OP_HASH160 fd9d04f9188963e773bd40c950f2fc12f8a7719c OP_EQUAL", "type": "scripthash"}, "value": 5.46e-06, "n": 1}, {"scriptPubKey": {"type": "nulldata", "hex": "6a146f6d6e69000000000000001f0000000a877bb50b", "asm": "OP_RETURN 6f6d6e69000000000000001f0000000a877bb50b"}, "value": 0.0, "n": 2}], "hex": "0100000002c5d8547e00519ef92ef23784f13b63878aa9fbdc384b272b55c9e2aef9a90da8010000006b483045022100d753d4b6c5f360d6c649ed4e4c77dc6e6d3624460d7c7cc744805f6652dafc0a02201d2b7b473477a6801272d7173239822fad6c4be2245d616b1aaf58fa058f16830121039a403b4eeaf8f7a9c5cc655cf2d17310fcd606a75b1392f7892f6b514a67d23cffffffff653dc6f9b8fa53482732d85eeb2932ef2c30ee340fc8137e8ee673d6780ce267000000006b4830450221008795e7fa97c3bee5fe26e3884ddae86ddc6e0fa4a735b9b471912df33f6cf5e702203044dc32d9c34c18357e86b9ff2154c0933aa9ec6200d3b54c8b7b4bad0067a90121039a403b4eeaf8f7a9c5cc655cf2d17310fcd606a75b1392f7892f6b514a67d23cffffffff0395aa0000000000001976a914f423dfee34e4833104508103d89e316b4a49314088ac220200000000000017a914fd9d04f9188963e773bd40c950f2fc12f8a7719c870000000000000000166a146f6d6e69000000000000001f0000000a877bb50b00000000", "vin": [{"sequence": 4294967295, "scriptSig": {"hex": "483045022100d753d4b6c5f360d6c649ed4e4c77dc6e6d3624460d7c7cc744805f6652dafc0a02201d2b7b473477a6801272d7173239822fad6c4be2245d616b1aaf58fa058f16830121039a403b4eeaf8f7a9c5cc655cf2d17310fcd606a75b1392f7892f6b514a67d23c", "asm": "3045022100d753d4b6c5f360d6c649ed4e4c77dc6e6d3624460d7c7cc744805f6652dafc0a02201d2b7b473477a6801272d7173239822fad6c4be2245d616b1aaf58fa058f1683[ALL] 039a403b4eeaf8f7a9c5cc655cf2d17310fcd606a75b1392f7892f6b514a67d23c"}, "vout": 1, "txid": "a80da9f9aee2c9552b274b38dcfba98a87633bf18437f22ef99e51007e54d8c5"}, {"sequence": 4294967295, "scriptSig": {"hex": "4830450221008795e7fa97c3bee5fe26e3884ddae86ddc6e0fa4a735b9b471912df33f6cf5e702203044dc32d9c34c18357e86b9ff2154c0933aa9ec6200d3b54c8b7b4bad0067a90121039a403b4eeaf8f7a9c5cc655cf2d17310fcd606a75b1392f7892f6b514a67d23c", "asm": "30450221008795e7fa97c3bee5fe26e3884ddae86ddc6e0fa4a735b9b471912df33f6cf5e702203044dc32d9c34c18357e86b9ff2154c0933aa9ec6200d3b54c8b7b4bad0067a9[ALL] 039a403b4eeaf8f7a9c5cc655cf2d17310fcd606a75b1392f7892f6b514a67d23c"}, "vout": 0, "txid": "67e20c78d673e68e7e13c80f34ee302cef3229eb5ed832274853fab8f9c63d65"}], "txid": "0a7cf019d13b7e4c9f65b05cb39c7c979f037a81fe3b3ce88e5e620d772dc0e6", "blocktime": 1537874412, "version": 1, "confirmations": 11466, "time": 1537874412, "locktime": 0, "vsize": 403, "size": 403}