{"hash": "6fab1f393898404d05ddc2209292de6b4ad590db5ac3dbdef28d046f86a43562", "blockhash": "0000000000000000001cda96e906b7601b7a6fb1a3b62bca570a9e5d8f4b3de1", "vout": [{"scriptPubKey": {"reqSigs": 1, "hex": "a91475aa3c7a038c67135c215588366e749ad059e1d687", "addresses": ["3CRAvD5MVEaU8hT9LVm3u2wxy93K8ycLWT"], "asm": "OP_HASH160 75aa3c7a038c67135c215588366e749ad059e1d6 OP_EQUAL", "type": "scripthash"}, "value": 0.0085, "n": 0}, {"scriptPubKey": {"reqSigs": 1, "hex": "a914a0908e53b37df984d541ebda80bf8802a0759bbd87", "addresses": ["3GL1DAJHnL9MYTZ2nsFg7Etdm9FvNB5DQY"], "asm": "OP_HASH160 a0908e53b37df984d541ebda80bf8802a0759bbd OP_EQUAL", "type": "scripthash"}, "value": 21.14707883, "n": 1}], "hex": "02000000000101a98f4a4a509b2d11a284a57f90ddf99e07984be727908a88865a756888b9542c0000000017160014eb19a9d5e24904c933f50af1f8d65c5a730edc7efdffffff0250f80c000000000017a91475aa3c7a038c67135c215588366e749ad059e1d687abe10b7e0000000017a914a0908e53b37df984d541ebda80bf8802a0759bbd87024830450221009e5a2f90dca0da6d1127b8dd4b946159ac884513dae68bb3e5234f29cf17f46202205fe6bdb1d04fade599f94dd170eac0ba2987bff5de9077fd1b33b103ca1d78850121029edb5d7c8cce4491fa21977a5e64ceceb5d48a4d86133e31c65d9cd24b2bc5c813490800", "vin": [{"txinwitness": ["30450221009e5a2f90dca0da6d1127b8dd4b946159ac884513dae68bb3e5234f29cf17f46202205fe6bdb1d04fade599f94dd170eac0ba2987bff5de9077fd1b33b103ca1d788501", "029edb5d7c8cce4491fa21977a5e64ceceb5d48a4d86133e31c65d9cd24b2bc5c8"], "sequence": 4294967293, "scriptSig": {"hex": "160014eb19a9d5e24904c933f50af1f8d65c5a730edc7e", "asm": "0014eb19a9d5e24904c933f50af1f8d65c5a730edc7e"}, "vout": 0, "txid": "2c54b98868755a86888a9027e74b98079ef9dd907fa584a2112d9b504a4a8fa9"}], "txid": "0a7e55abb0affa704c1740c0625b162213e38eb3d7852867e15630806280ae15", "blocktime": 1537873282, "version": 2, "confirmations": 11485, "time": 1537873282, "locktime": 542995, "vsize": 166, "size": 248}