{"hash": "0a83a42c759a8c666d7e2cc1317512d9f7a5459a8603befe61f3441dd17b046c", "blockhash": "00000000000000000018f53835495a110e01622372bf6ae95dc86f2b0ab887b0", "vout": [{"scriptPubKey": {"reqSigs": 1, "hex": "76a9143e5a895d2fe94ce1bc8fa34cad3095659b5b603988ac", "addresses": ["16ghMV9H3Vv3iC8JsQgNdTBMijVSetvr2j"], "asm": "OP_DUP OP_HASH160 3e5a895d2fe94ce1bc8fa34cad3095659b5b6039 OP_EQUALVERIFY OP_CHECKSIG", "type": "pubkeyhash"}, "value": 0.00374899, "n": 0}, {"scriptPubKey": {"reqSigs": 1, "hex": "76a914cb148f4e2ad966fbbf8d2bcc772b64f6a1b5668388ac", "addresses": ["1KWnoTiQV93E6Ur9XqgQu1GW3FA9oK1MQd"], "asm": "OP_DUP OP_HASH160 cb148f4e2ad966fbbf8d2bcc772b64f6a1b56683 OP_EQUALVERIFY OP_CHECKSIG", "type": "pubkeyhash"}, "value": 0.00577979, "n": 1}], "hex": "0200000001ab4ed8b5c98901ada852df8aeae0fe1789503b11b584863bf6704f4e2ce6c057010000006b483045022100f37ff269ce847fa96795ce5020e3c3a34e0bbc60729856b8dbb3ccc870519876022025a302f576071a0f79eae87ebb73209c3a83961b222a62ee8c0450c0e6294e0e01210275b5a291cb593e67ba06eca06954d91b9ff5bb630c40e90f683f9a336837851fffffffff0273b80500000000001976a9143e5a895d2fe94ce1bc8fa34cad3095659b5b603988acbbd10800000000001976a914cb148f4e2ad966fbbf8d2bcc772b64f6a1b5668388ac00000000", "vin": [{"sequence": 4294967295, "scriptSig": {"hex": "483045022100f37ff269ce847fa96795ce5020e3c3a34e0bbc60729856b8dbb3ccc870519876022025a302f576071a0f79eae87ebb73209c3a83961b222a62ee8c0450c0e6294e0e01210275b5a291cb593e67ba06eca06954d91b9ff5bb630c40e90f683f9a336837851f", "asm": "3045022100f37ff269ce847fa96795ce5020e3c3a34e0bbc60729856b8dbb3ccc870519876022025a302f576071a0f79eae87ebb73209c3a83961b222a62ee8c0450c0e6294e0e[ALL] 0275b5a291cb593e67ba06eca06954d91b9ff5bb630c40e90f683f9a336837851f"}, "vout": 1, "txid": "57c0e62c4e4f70f63b8684b5113b508917fee0ea8adf52a8ad0189c9b5d84eab"}], "txid": "0a83a42c759a8c666d7e2cc1317512d9f7a5459a8603befe61f3441dd17b046c", "blocktime": 1537870928, "version": 2, "confirmations": 11512, "time": 1537870928, "locktime": 0, "vsize": 226, "size": 226}