{"hash": "0a84a2262cb33fd12ad2270ccdf3ab48283a547986344a521ed75f4189c7c491", "blockhash": "0000000000000000000dcc0f55137456b1a82d3642486a52398922ac4d620174", "vout": [{"scriptPubKey": {"reqSigs": 1, "hex": "76a9147eb2ae1c34d749235de8a7dfdc2a1a062e97b5a488ac", "addresses": ["1CYvC5onP1cwaPDRMYJNoXWwN3du7P1fWv"], "asm": "OP_DUP OP_HASH160 7eb2ae1c34d749235de8a7dfdc2a1a062e97b5a4 OP_EQUALVERIFY OP_CHECKSIG", "type": "pubkeyhash"}, "value": 0.05712311, "n": 0}, {"scriptPubKey": {"reqSigs": 1, "hex": "76a9145aa9e0df78463ac3ca01034e3f6488d7c98002e288ac", "addresses": ["19GPKdAjWkeJ7GwYR3VaNh7wofAsaMZ74s"], "asm": "OP_DUP OP_HASH160 5aa9e0df78463ac3ca01034e3f6488d7c98002e2 OP_EQUALVERIFY OP_CHECKSIG", "type": "pubkeyhash"}, "value": 0.09160163, "n": 1}], "hex": "01000000027348b60f2719f2d68247376b09dc65857e4bfc975ee2361e26c38f74eeb29124000000006b483045022100904e87082c1dd8fd9c25ce945f0e2b68c8d9f7dbeed37d51c4545d36ea73361902201d2fe5556ade9936bdd726ddb9c80f0e767796ffce83dbf72a7dd8c040a37c0f012103fe7a95e505c7b839b5e77ace302d34598ab637ae043b4778b856435d147711bdfdffffff8d7edd7f25a9e174ba4c1841f8de9b48b740a2d20513f0675aa12c0f3361a5ba000000006b483045022100e8547e45db89d2deebc341022bcbb920964c453c879dc651e6eb7a6b18c1ab89022017f0cc0bd3aa7ab828f6047edb1cf76eef776bf576e4faf5de7da1d7bd5b5340012103fe7a95e505c7b839b5e77ace302d34598ab637ae043b4778b856435d147711bdfdffffff02b7295700000000001976a9147eb2ae1c34d749235de8a7dfdc2a1a062e97b5a488ace3c58b00000000001976a9145aa9e0df78463ac3ca01034e3f6488d7c98002e288ac0c490800", "vin": [{"sequence": 4294967293, "scriptSig": {"hex": "483045022100904e87082c1dd8fd9c25ce945f0e2b68c8d9f7dbeed37d51c4545d36ea73361902201d2fe5556ade9936bdd726ddb9c80f0e767796ffce83dbf72a7dd8c040a37c0f012103fe7a95e505c7b839b5e77ace302d34598ab637ae043b4778b856435d147711bd", "asm": "3045022100904e87082c1dd8fd9c25ce945f0e2b68c8d9f7dbeed37d51c4545d36ea73361902201d2fe5556ade9936bdd726ddb9c80f0e767796ffce83dbf72a7dd8c040a37c0f[ALL] 03fe7a95e505c7b839b5e77ace302d34598ab637ae043b4778b856435d147711bd"}, "vout": 0, "txid": "2491b2ee748fc3261e36e25e97fc4b7e8565dc096b374782d6f219270fb64873"}, {"sequence": 4294967293, "scriptSig": {"hex": "483045022100e8547e45db89d2deebc341022bcbb920964c453c879dc651e6eb7a6b18c1ab89022017f0cc0bd3aa7ab828f6047edb1cf76eef776bf576e4faf5de7da1d7bd5b5340012103fe7a95e505c7b839b5e77ace302d34598ab637ae043b4778b856435d147711bd", "asm": "3045022100e8547e45db89d2deebc341022bcbb920964c453c879dc651e6eb7a6b18c1ab89022017f0cc0bd3aa7ab828f6047edb1cf76eef776bf576e4faf5de7da1d7bd5b5340[ALL] 03fe7a95e505c7b839b5e77ace302d34598ab637ae043b4778b856435d147711bd"}, "vout": 0, "txid": "baa561330f2ca15a67f01305d2a240b7489bdef841184cba74e1a9257fdd7e8d"}], "txid": "0a84a2262cb33fd12ad2270ccdf3ab48283a547986344a521ed75f4189c7c491", "blocktime": 1537870268, "version": 1, "confirmations": 11516, "time": 1537870268, "locktime": 542988, "vsize": 374, "size": 374}