{"hash": "ec9971063a375d8cb7051afac4434253da4021cd2431f4d7b1ecc2d88af852dc", "blockhash": "00000000000000000018f53835495a110e01622372bf6ae95dc86f2b0ab887b0", "vout": [{"scriptPubKey": {"reqSigs": 1, "hex": "a9149b62dc04e7ac2e27b45e47a251745f086bf6063a87", "addresses": ["3Frd69o97QmtphRMdBSiY63tpaYcLu5zwn"], "asm": "OP_HASH160 9b62dc04e7ac2e27b45e47a251745f086bf6063a OP_EQUAL", "type": "scripthash"}, "value": 0.00018088, "n": 0}, {"scriptPubKey": {"reqSigs": 1, "hex": "a914693d85449dd6886facf2a173faa1c7aaba3499e687", "addresses": ["3BHUaDAvSdjWHCNLhBoRhETYVAnk9M66qE"], "asm": "OP_HASH160 693d85449dd6886facf2a173faa1c7aaba3499e6 OP_EQUAL", "type": "scripthash"}, "value": 0.033, "n": 1}], "hex": "020000000001022797da5f9720dddbe1a3ad22818cb971073f3365b8fa6be35bb1fc83f98676bc02000000171600143d46adb9dcc73c8db2aea613bd64c8c646e8c967fdffffff6d26b582a3eb66528c91fe4e5a34395d19c0ea04a2af611d39c8f0b7378fd7830100000017160014c39b61a57190f0fbd11c24ab97e06a62fb73c3eefdffffff02a84600000000000017a9149b62dc04e7ac2e27b45e47a251745f086bf6063a87a05a32000000000017a914693d85449dd6886facf2a173faa1c7aaba3499e6870248304502210097eba9330ee0e0872f9415f0f31b094471186b70bba6f7bb5c327354c507467002201bf809c6e10fed7fdc0e4823240cb78fde6364a7fca63f0403b1d975729e67a90121039a71b2c294423c151e81dd6ec952f7f3c656c0080fed6c868e8b8990dd94c0cb0247304402204ca8109c36d3d031e0887a49ca41f37005bb27df100de81aa15445959fa31f7202206f5f1f0c352beba0da2f6bbf9c15ed61660db110c9d687295d5ed5211d4b73eb012102cb3212f82647383cafb78ae22d4ecfb8f1dc5ece6ce64b03d0ed9cf533f56b030e490800", "vin": [{"txinwitness": ["304502210097eba9330ee0e0872f9415f0f31b094471186b70bba6f7bb5c327354c507467002201bf809c6e10fed7fdc0e4823240cb78fde6364a7fca63f0403b1d975729e67a901", "039a71b2c294423c151e81dd6ec952f7f3c656c0080fed6c868e8b8990dd94c0cb"], "sequence": 4294967293, "scriptSig": {"hex": "1600143d46adb9dcc73c8db2aea613bd64c8c646e8c967", "asm": "00143d46adb9dcc73c8db2aea613bd64c8c646e8c967"}, "vout": 2, "txid": "bc7686f983fcb15be36bfab865333f0771b98c8122ada3e1dbdd20975fda9727"}, {"txinwitness": ["304402204ca8109c36d3d031e0887a49ca41f37005bb27df100de81aa15445959fa31f7202206f5f1f0c352beba0da2f6bbf9c15ed61660db110c9d687295d5ed5211d4b73eb01", "02cb3212f82647383cafb78ae22d4ecfb8f1dc5ece6ce64b03d0ed9cf533f56b03"], "sequence": 4294967293, "scriptSig": {"hex": "160014c39b61a57190f0fbd11c24ab97e06a62fb73c3ee", "asm": "0014c39b61a57190f0fbd11c24ab97e06a62fb73c3ee"}, "vout": 1, "txid": "83d78f37b7f0c8391d61afa204eac0195d39345a4efe918c5266eba382b5266d"}], "txid": "0a8857456fb3d595b9d3c2f4359983a63dff46606b15b446a24ec41747580d80", "blocktime": 1537870928, "version": 2, "confirmations": 11514, "time": 1537870928, "locktime": 542990, "vsize": 257, "size": 419}