{"hash": "0a8db14f0e15e51f2f46e6323557763f3d4085160b513a002af1e649fe7189b2", "blockhash": "00000000000000000018f53835495a110e01622372bf6ae95dc86f2b0ab887b0", "vout": [{"scriptPubKey": {"reqSigs": 1, "hex": "a91485e0c643683c85fcfef357353de0be7284d32c5a87", "addresses": ["3Dtu4fHWNm9qQ4Y7BwQW1vnAYyVkvP2dBK"], "asm": "OP_HASH160 85e0c643683c85fcfef357353de0be7284d32c5a OP_EQUAL", "type": "scripthash"}, "value": 0.008888, "n": 0}, {"scriptPubKey": {"reqSigs": 1, "hex": "76a91460552623464b8c4a591c46feee64a97f11b8095f88ac", "addresses": ["19nMsfsoXYfxsYsEkuHBPLvXrXarvZiFmS"], "asm": "OP_DUP OP_HASH160 60552623464b8c4a591c46feee64a97f11b8095f OP_EQUALVERIFY OP_CHECKSIG", "type": "pubkeyhash"}, "value": 0.25493476, "n": 1}], "hex": "0100000001b336db3b0123a85797f07d0dc849d757644a4cfcfa326e4cb021f6fe8b9fa3a2010000006a47304402201af0da089ef83df424b1b834808a893667faa3d3768b4770c3d666d65b1baef402203493d6b0432ab780eba8facfbee1d1154bbdeb2a84c0b797af40274783dde230012102558213d78e497e1f03c3f94bdac1892e2c20f258dfae4841c1977f79695e650dffffffff02e08f0d000000000017a91485e0c643683c85fcfef357353de0be7284d32c5a87e4ff8401000000001976a91460552623464b8c4a591c46feee64a97f11b8095f88ac00000000", "vin": [{"sequence": 4294967295, "scriptSig": {"hex": "47304402201af0da089ef83df424b1b834808a893667faa3d3768b4770c3d666d65b1baef402203493d6b0432ab780eba8facfbee1d1154bbdeb2a84c0b797af40274783dde230012102558213d78e497e1f03c3f94bdac1892e2c20f258dfae4841c1977f79695e650d", "asm": "304402201af0da089ef83df424b1b834808a893667faa3d3768b4770c3d666d65b1baef402203493d6b0432ab780eba8facfbee1d1154bbdeb2a84c0b797af40274783dde230[ALL] 02558213d78e497e1f03c3f94bdac1892e2c20f258dfae4841c1977f79695e650d"}, "vout": 1, "txid": "a2a39f8bfef621b04c6e32fafc4c4a6457d749c80d7df09757a823013bdb36b3"}], "txid": "0a8db14f0e15e51f2f46e6323557763f3d4085160b513a002af1e649fe7189b2", "blocktime": 1537870928, "version": 1, "confirmations": 11514, "time": 1537870928, "locktime": 0, "vsize": 223, "size": 223}