{"hash": "0a8e5fc40fd48c676b61c8ab32d95dd1e09e60867f135a8286b317f1a4176bd2", "blockhash": "00000000000000000017f5eb5941039fbcee6240d03bc1f2f8e35350df66a1d8", "vout": [{"scriptPubKey": {"reqSigs": 1, "hex": "76a914bd3b26f38d724037a34ac5541241765c169f5ad388ac", "addresses": ["1JFZaDju9wYbY8tjGNU4AiW7Ktjh4P1p75"], "asm": "OP_DUP OP_HASH160 bd3b26f38d724037a34ac5541241765c169f5ad3 OP_EQUALVERIFY OP_CHECKSIG", "type": "pubkeyhash"}, "value": 0.02941198, "n": 0}, {"scriptPubKey": {"reqSigs": 1, "hex": "76a9146586ced214191eaee684bf8787713d2671eff5aa88ac", "addresses": ["1AFpjzWNNtmMamjbbSSNLiVdktzrYMspCQ"], "asm": "OP_DUP OP_HASH160 6586ced214191eaee684bf8787713d2671eff5aa OP_EQUALVERIFY OP_CHECKSIG", "type": "pubkeyhash"}, "value": 0.23101408, "n": 1}], "hex": "0200000001e6a32685866f24a9b510eaa234495a76175b6e5c3bf53b917b3c4d58f004eb09010000006b483045022100a8a5d248de0d7fab15b88eda8aed7f47941bdcc51c08b1775a11b5a5802c73830220677c93b7a1d4f98b959ef3d6f2e8996fdf5546e100846c8444b285241bc11df201210210dac65f236a05432a1dbd2f909aa1c6e1870304203e734e8d07db9b57443d46ffffffff020ee12c00000000001976a914bd3b26f38d724037a34ac5541241765c169f5ad388ace07f6001000000001976a9146586ced214191eaee684bf8787713d2671eff5aa88ac00000000", "vin": [{"sequence": 4294967295, "scriptSig": {"hex": "483045022100a8a5d248de0d7fab15b88eda8aed7f47941bdcc51c08b1775a11b5a5802c73830220677c93b7a1d4f98b959ef3d6f2e8996fdf5546e100846c8444b285241bc11df201210210dac65f236a05432a1dbd2f909aa1c6e1870304203e734e8d07db9b57443d46", "asm": "3045022100a8a5d248de0d7fab15b88eda8aed7f47941bdcc51c08b1775a11b5a5802c73830220677c93b7a1d4f98b959ef3d6f2e8996fdf5546e100846c8444b285241bc11df2[ALL] 0210dac65f236a05432a1dbd2f909aa1c6e1870304203e734e8d07db9b57443d46"}, "vout": 1, "txid": "09eb04f0584d3c7b913bf53b5c6e5b17765a4934a2ea10b5a9246f868526a3e6"}], "txid": "0a8e5fc40fd48c676b61c8ab32d95dd1e09e60867f135a8286b317f1a4176bd2", "blocktime": 1537874412, "version": 2, "confirmations": 11467, "time": 1537874412, "locktime": 0, "vsize": 226, "size": 226}