{"hash": "bf6686e9af82084585cea9da944705b0b4565b3448370e34101372cfb77350c4", "blockhash": "0000000000000000000dcc0f55137456b1a82d3642486a52398922ac4d620174", "vout": [{"scriptPubKey": {"reqSigs": 1, "hex": "00145619ab6f83d4665e2fc9bccbbaf8377f1f114f90", "addresses": ["bc1q2cv6kmur63n9ut7fhn9m47ph0u03znushl4qt0"], "asm": "0 5619ab6f83d4665e2fc9bccbbaf8377f1f114f90", "type": "witness_v0_keyhash"}, "value": 0.00180752, "n": 0}, {"scriptPubKey": {"reqSigs": 1, "hex": "76a9146c9c6b2d48431b86eb72d67a696dd96c1bb491fb88ac", "addresses": ["1AuHMsrCLpqUnih8ZuLd8Qq9MdTda9x4o6"], "asm": "OP_DUP OP_HASH160 6c9c6b2d48431b86eb72d67a696dd96c1bb491fb OP_EQUALVERIFY OP_CHECKSIG", "type": "pubkeyhash"}, "value": 0.0346866, "n": 1}], "hex": "01000000000101024f1b31aaf6d4fe31fcfa9dd6022bdf531c7cb4fc77ed76d24c7446266c7bf70f00000017160014c69a9258762e64723788c74de15cc4458ab761cfffffffff0210c20200000000001600145619ab6f83d4665e2fc9bccbbaf8377f1f114f9074ed3400000000001976a9146c9c6b2d48431b86eb72d67a696dd96c1bb491fb88ac024730440220398dcb4c70aea4562b45255d33d7c661b03fb961f51cfb8d5ed26669bd610b7d022017e2056e27b06d826a43d325f5d08bcb50c7313c22fee0794574080827ec103d01210372d76ac441609e82f5562888c6053f77e20bdf42c627455703b4f9e99d3f812c00000000", "vin": [{"txinwitness": ["30440220398dcb4c70aea4562b45255d33d7c661b03fb961f51cfb8d5ed26669bd610b7d022017e2056e27b06d826a43d325f5d08bcb50c7313c22fee0794574080827ec103d01", "0372d76ac441609e82f5562888c6053f77e20bdf42c627455703b4f9e99d3f812c"], "sequence": 4294967295, "scriptSig": {"hex": "160014c69a9258762e64723788c74de15cc4458ab761cf", "asm": "0014c69a9258762e64723788c74de15cc4458ab761cf"}, "vout": 15, "txid": "f77b6c2646744cd276ed77fcb47c1c53df2b02d69dfafc31fed4f6aa311b4f02"}], "txid": "0a90ede3e3dc17716f4ffd5a9a88f60dc6cb3778b1dd6713d79d5921231f2bc9", "blocktime": 1537870268, "version": 1, "confirmations": 11518, "time": 1537870268, "locktime": 0, "vsize": 167, "size": 248}