{"hash": "0a90e86b076fb56ab7e4a3aa6339f9f21db4a7d63b91a92995c935ba85cd988d", "blockhash": "0000000000000000000e13cef7c366c0283d82e591d1acd082e914b08063cdf1", "vout": [{"scriptPubKey": {"reqSigs": 1, "hex": "76a914277c804a6e24f0e1f25799f13691d69024fad6d188ac", "addresses": ["14bnVyNdwqzzHzTv1N93unhvemE5KRJsCp"], "asm": "OP_DUP OP_HASH160 277c804a6e24f0e1f25799f13691d69024fad6d1 OP_EQUALVERIFY OP_CHECKSIG", "type": "pubkeyhash"}, "value": 0.046404, "n": 0}, {"scriptPubKey": {"reqSigs": 1, "hex": "76a91413c171502ee7d4583fbf3ccd8a8d43bab3734bb788ac", "addresses": ["12oTaGupi3K8ydWp9tMbMenJrtZcBCtDyC"], "asm": "OP_DUP OP_HASH160 13c171502ee7d4583fbf3ccd8a8d43bab3734bb7 OP_EQUALVERIFY OP_CHECKSIG", "type": "pubkeyhash"}, "value": 0.07695874, "n": 1}], "hex": "0100000001888ffc093e5874522ae798de5595811343b08219b5b63681b922825648a4f13d010000006a4730440220748e29fbb38ebaba7927fedae2bd25094779eebfdf131f10561496f8e25502a602201402dfc2f29ea03691d8a5f092a1410d639a4b1768846d5ff35a7013f27cb44e012103f5a6cdc050af11dc306dbec67f51943d38967e0ab28e5c2913e3c331b668a7faffffffff0290ce4600000000001976a914277c804a6e24f0e1f25799f13691d69024fad6d188ac026e7500000000001976a91413c171502ee7d4583fbf3ccd8a8d43bab3734bb788ac00000000", "vin": [{"sequence": 4294967295, "scriptSig": {"hex": "4730440220748e29fbb38ebaba7927fedae2bd25094779eebfdf131f10561496f8e25502a602201402dfc2f29ea03691d8a5f092a1410d639a4b1768846d5ff35a7013f27cb44e012103f5a6cdc050af11dc306dbec67f51943d38967e0ab28e5c2913e3c331b668a7fa", "asm": "30440220748e29fbb38ebaba7927fedae2bd25094779eebfdf131f10561496f8e25502a602201402dfc2f29ea03691d8a5f092a1410d639a4b1768846d5ff35a7013f27cb44e[ALL] 03f5a6cdc050af11dc306dbec67f51943d38967e0ab28e5c2913e3c331b668a7fa"}, "vout": 1, "txid": "3df1a448568222b98136b6b51982b04313819555de98e72a5274583e09fc8f88"}], "txid": "0a90e86b076fb56ab7e4a3aa6339f9f21db4a7d63b91a92995c935ba85cd988d", "blocktime": 1537871767, "version": 1, "confirmations": 11493, "time": 1537871767, "locktime": 0, "vsize": 225, "size": 225}