{"hash": "46843a03604a30816b90d7a611374d551e639770b3c8bab8c0bc66cd0790f732", "blockhash": "00000000000000000024a2167bbff67b0be802c0b01cdd79e6331c2be6459f87", "vout": [{"scriptPubKey": {"reqSigs": 1, "hex": "a914d917e9c59d4d4fc51e8e896731924f4cc10977f587", "addresses": ["3MUuCgp9hE6FQwma9xFKZpQMB7dWN4XHDr"], "asm": "OP_HASH160 d917e9c59d4d4fc51e8e896731924f4cc10977f5 OP_EQUAL", "type": "scripthash"}, "value": 0.00994632, "n": 0}, {"scriptPubKey": {"reqSigs": 1, "hex": "a914b460561a4101e8d5895e318c601444fb1fddcdfe87", "addresses": ["3J8kxe31uDqtdwDYzoosPqx46XdCf5mGxj"], "asm": "OP_HASH160 b460561a4101e8d5895e318c601444fb1fddcdfe OP_EQUAL", "type": "scripthash"}, "value": 5.71899295, "n": 1}], "hex": "0200000000010169f697c6e524f16a06c97add8b9ce047d831df0848a470f427eed9f18b1088af0100000017160014937ad3d3412f06165b0f57170ae375b7d4ae8adafeffffff02482d0f000000000017a914d917e9c59d4d4fc51e8e896731924f4cc10977f5879f7d16220000000017a914b460561a4101e8d5895e318c601444fb1fddcdfe8702483045022100c9b2d62d8ec39c53dd002227243d00d87e1593cec5a0d3e4d769f0b356c84abb02203677e40a955d898e6bd65538999ca0876a62959ac5ed3bec3e7b01d390cf9d33012103ba4cd2c289d7aa78cd5c523cf58ad2eec7a604f6c38e9b98d060c0f6803347e20d490800", "vin": [{"txinwitness": ["3045022100c9b2d62d8ec39c53dd002227243d00d87e1593cec5a0d3e4d769f0b356c84abb02203677e40a955d898e6bd65538999ca0876a62959ac5ed3bec3e7b01d390cf9d3301", "03ba4cd2c289d7aa78cd5c523cf58ad2eec7a604f6c38e9b98d060c0f6803347e2"], "sequence": 4294967294, "scriptSig": {"hex": "160014937ad3d3412f06165b0f57170ae375b7d4ae8ada", "asm": "0014937ad3d3412f06165b0f57170ae375b7d4ae8ada"}, "vout": 1, "txid": "af88108bf1d9ee27f470a44808df31d847e09c8bdd7ac9066af124e5c697f669"}], "txid": "0a9428a3222ce79a1ca2c66707c3573716d04cbda70cdea508f722e69dfdda29", "blocktime": 1537870564, "version": 2, "confirmations": 11515, "time": 1537870564, "locktime": 542989, "vsize": 166, "size": 248}