{"hash": "e561d058897e07f44b220bd431a00566538cab4b46a555c6c9a39ad83284e8ce", "blockhash": "0000000000000000001e0dab787dd257d1dbfcb92a98c2207d5e1078be1f4165", "vout": [{"scriptPubKey": {"reqSigs": 1, "hex": "a914fd3459e8b2a935825f802961a72a76e7717e41af87", "addresses": ["3QmqbW6aq9uYx5CZgkePPRS8XggZBnWWqM"], "asm": "OP_HASH160 fd3459e8b2a935825f802961a72a76e7717e41af OP_EQUAL", "type": "scripthash"}, "value": 0.01745294, "n": 0}, {"scriptPubKey": {"reqSigs": 1, "hex": "a91452876d077abb05e12ad3babfd855ce898f01872487", "addresses": ["39DPZq6SScDbCRpWhEzhyy7EXe6cZN9FdT"], "asm": "OP_HASH160 52876d077abb05e12ad3babfd855ce898f018724 OP_EQUAL", "type": "scripthash"}, "value": 0.03402762, "n": 1}, {"scriptPubKey": {"reqSigs": 1, "hex": "a914687a683613103a429f6f754eda3bb3221e1dae5287", "addresses": ["3BDSqVBqvYycc7FxnC4QKoh5RWcAFhbTt1"], "asm": "OP_HASH160 687a683613103a429f6f754eda3bb3221e1dae52 OP_EQUAL", "type": "scripthash"}, "value": 0.0175, "n": 2}], "hex": "020000000001014aa7a3f17eb8010eb2d8de3d1aaa15b71a13a0c9da093a5eeb02f4b1cc71908c010000001716001401106cdf052ee1e84708397d825c2da8b48ead50feffffff038ea11a000000000017a914fd3459e8b2a935825f802961a72a76e7717e41af870aec33000000000017a91452876d077abb05e12ad3babfd855ce898f01872487f0b31a000000000017a914687a683613103a429f6f754eda3bb3221e1dae52870247304402202814314a3e089874c68529481c541b534b5a7504c3eb7775b406919970c73bf902205373c73fe4beed1394c65b677aa2a86b05e556030ee1d3e3dc7ef8f7b5789afa012102da8efe1c15cfb04f7b8086aa1dbf8ce6516a50cda93989a6cf55117b93d35a3b11490800", "vin": [{"txinwitness": ["304402202814314a3e089874c68529481c541b534b5a7504c3eb7775b406919970c73bf902205373c73fe4beed1394c65b677aa2a86b05e556030ee1d3e3dc7ef8f7b5789afa01", "02da8efe1c15cfb04f7b8086aa1dbf8ce6516a50cda93989a6cf55117b93d35a3b"], "sequence": 4294967294, "scriptSig": {"hex": "16001401106cdf052ee1e84708397d825c2da8b48ead50", "asm": "001401106cdf052ee1e84708397d825c2da8b48ead50"}, "vout": 1, "txid": "8c9071ccb1f402eb5e3a09dac9a0131ab715aa1a3dded8b20e01b87ef1a3a74a"}], "txid": "0a95d07fc0320d6a1deab71644b253e9246ed4d8929bdb8282d5573de5c0ca89", "blocktime": 1537872475, "version": 2, "confirmations": 11486, "time": 1537872475, "locktime": 542993, "vsize": 198, "size": 279}