{"hash": "0a960aae93e4ac37c2fbcadb6caa41bf99da4cc1bb812c40d01af737f888c15f", "blockhash": "0000000000000000000e13cef7c366c0283d82e591d1acd082e914b08063cdf1", "vout": [{"scriptPubKey": {"reqSigs": 1, "hex": "76a914750bfe8a808ab0ebd529cdcd29668ec7415dbe3088ac", "addresses": ["1BftRpisyh6azwgzJT7whnkE4EZ4zfqNzN"], "asm": "OP_DUP OP_HASH160 750bfe8a808ab0ebd529cdcd29668ec7415dbe30 OP_EQUALVERIFY OP_CHECKSIG", "type": "pubkeyhash"}, "value": 0.00072154, "n": 0}, {"scriptPubKey": {"reqSigs": 1, "hex": "a91416486b8cdf7975ab673fbd34b65ee66799e5f42e87", "addresses": ["33iqYbsa8LeAcigPqpNxmaCkyp8hqJvJBy"], "asm": "OP_HASH160 16486b8cdf7975ab673fbd34b65ee66799e5f42e OP_EQUAL", "type": "scripthash"}, "value": 0.0036635, "n": 1}], "hex": "010000000146979e1b8fa5ec92e0afb129498a8676e604ab871f78bf2cde40d2634b1bdfaa000000006b483045022100c76a0da62ed0551d532d31c14003bfbf31f1e08f48009b6b76781aae48f3dcf702204dd694bcd6fa4b6b35e19b4e621c77c497adfc08df07d3cf40b73cb53223fa8f012102999e3b60d9c9b10db94a16f609655a58e2388a3f31c8707c34fdb60682a2d379ffffffff02da190100000000001976a914750bfe8a808ab0ebd529cdcd29668ec7415dbe3088ac0e9705000000000017a91416486b8cdf7975ab673fbd34b65ee66799e5f42e8700000000", "vin": [{"sequence": 4294967295, "scriptSig": {"hex": "483045022100c76a0da62ed0551d532d31c14003bfbf31f1e08f48009b6b76781aae48f3dcf702204dd694bcd6fa4b6b35e19b4e621c77c497adfc08df07d3cf40b73cb53223fa8f012102999e3b60d9c9b10db94a16f609655a58e2388a3f31c8707c34fdb60682a2d379", "asm": "3045022100c76a0da62ed0551d532d31c14003bfbf31f1e08f48009b6b76781aae48f3dcf702204dd694bcd6fa4b6b35e19b4e621c77c497adfc08df07d3cf40b73cb53223fa8f[ALL] 02999e3b60d9c9b10db94a16f609655a58e2388a3f31c8707c34fdb60682a2d379"}, "vout": 0, "txid": "aadf1b4b63d240de2cbf781f87ab04e676868a4929b1afe092eca58f1b9e9746"}], "txid": "0a960aae93e4ac37c2fbcadb6caa41bf99da4cc1bb812c40d01af737f888c15f", "blocktime": 1537871767, "version": 1, "confirmations": 11490, "time": 1537871767, "locktime": 0, "vsize": 224, "size": 224}