{"hash": "0a9b6c40c2d2531550803f0bdd907266a5e32eeb49a56dd0560b582b36e96492", "blockhash": "0000000000000000000baef3f32e3676a92c3b2e5da21b426e4f302fc371ce76", "vout": [{"scriptPubKey": {"reqSigs": 1, "hex": "a9143b898c88b4831ed3da00048dc53bbda41bd3a3b787", "addresses": ["377pZvxUuSpspApHFwP9pNtE1jZjHDzB44"], "asm": "OP_HASH160 3b898c88b4831ed3da00048dc53bbda41bd3a3b7 OP_EQUAL", "type": "scripthash"}, "value": 0.00123186, "n": 0}, {"scriptPubKey": {"reqSigs": 1, "hex": "a91412192a59300b355a0c454bc0ee10e738a2f8e6b087", "addresses": ["33LiEXAofQCpMDQRybSBcGydqpdixsjxoD"], "asm": "OP_HASH160 12192a59300b355a0c454bc0ee10e738a2f8e6b0 OP_EQUAL", "type": "scripthash"}, "value": 0.0099672, "n": 1}], "hex": "02000000027f0cddb3ededbee3c2a289ef671b6b370994ed4749b10c8020bccc9efd17aa78000000006b483045022100bdc148536876471ddba62278d2ff6a28bb0b99f5897713bf7a5fd9fcc49cd0ee0220426f92686895fe2d5e9f90085daad39db995d9c45d9bee62f7c314fbf03e0e900121033bc0a404822726a666459a460693a5219d12c8d09caa2008301fcfca690240c5fdffffffefb9db30c336f80ecbe824630cd7bdf2bcede1dfdb849a17a5c441d204aef052bf0000006a47304402206ded2f67ad8474f2315e3cce9b57e0fb2b20e8971c4fa986543b490a57dfae8c0220337bcd29f0f73442c67183d2584545f8c92f9a41de7e3c8b62e84511356c5d4a012102701b972ceca88f6bff3d3b9b8f00b29f7aa7b6539870dcf90692046e632883b8fdffffff0232e101000000000017a9143b898c88b4831ed3da00048dc53bbda41bd3a3b78770350f000000000017a91412192a59300b355a0c454bc0ee10e738a2f8e6b08717490800", "vin": [{"sequence": 4294967293, "scriptSig": {"hex": "483045022100bdc148536876471ddba62278d2ff6a28bb0b99f5897713bf7a5fd9fcc49cd0ee0220426f92686895fe2d5e9f90085daad39db995d9c45d9bee62f7c314fbf03e0e900121033bc0a404822726a666459a460693a5219d12c8d09caa2008301fcfca690240c5", "asm": "3045022100bdc148536876471ddba62278d2ff6a28bb0b99f5897713bf7a5fd9fcc49cd0ee0220426f92686895fe2d5e9f90085daad39db995d9c45d9bee62f7c314fbf03e0e90[ALL] 033bc0a404822726a666459a460693a5219d12c8d09caa2008301fcfca690240c5"}, "vout": 0, "txid": "78aa17fd9eccbc20800cb14947ed9409376b1b67ef89a2c2e3beededb3dd0c7f"}, {"sequence": 4294967293, "scriptSig": {"hex": "47304402206ded2f67ad8474f2315e3cce9b57e0fb2b20e8971c4fa986543b490a57dfae8c0220337bcd29f0f73442c67183d2584545f8c92f9a41de7e3c8b62e84511356c5d4a012102701b972ceca88f6bff3d3b9b8f00b29f7aa7b6539870dcf90692046e632883b8", "asm": "304402206ded2f67ad8474f2315e3cce9b57e0fb2b20e8971c4fa986543b490a57dfae8c0220337bcd29f0f73442c67183d2584545f8c92f9a41de7e3c8b62e84511356c5d4a[ALL] 02701b972ceca88f6bff3d3b9b8f00b29f7aa7b6539870dcf90692046e632883b8"}, "vout": 191, "txid": "52f0ae04d241c4a5179a84dbdfe1edbcf2bdd70c6324e8cb0ef836c330dbb9ef"}], "txid": "0a9b6c40c2d2531550803f0bdd907266a5e32eeb49a56dd0560b582b36e96492", "blocktime": 1537876114, "version": 2, "confirmations": 11460, "time": 1537876114, "locktime": 542999, "vsize": 369, "size": 369}