{"hash": "72d829e7299f9b505a624908028112abd5e2093d468fbaf933100b16cd67830d", "blockhash": "0000000000000000001f76057863aec43deb6fa401d9628bb513d65a8098bfab", "vout": [{"scriptPubKey": {"reqSigs": 1, "hex": "a9145fed0e4b32f0d5129badc8e8cae52b459959946c87", "addresses": ["3ASE6hJxdKXqGdxDdQhKKn5BtAC7HgTmGH"], "asm": "OP_HASH160 5fed0e4b32f0d5129badc8e8cae52b459959946c OP_EQUAL", "type": "scripthash"}, "value": 0.01951, "n": 0}, {"scriptPubKey": {"reqSigs": 1, "hex": "a9149b73129c4c694668beca95329dcb984580f2944387", "addresses": ["3FrxWfjcCF68TLVyMR2qYt1oR18LS9aZGB"], "asm": "OP_HASH160 9b73129c4c694668beca95329dcb984580f29443 OP_EQUAL", "type": "scripthash"}, "value": 0.00036, "n": 1}, {"scriptPubKey": {"reqSigs": 1, "hex": "a9144acf04704a8b5c0c7636f556935166dddd625fa287", "addresses": ["38WZvZCnXT3qy3XVXNFaKcgENmqmLDnQ4V"], "asm": "OP_HASH160 4acf04704a8b5c0c7636f556935166dddd625fa2 OP_EQUAL", "type": "scripthash"}, "value": 0.06827936, "n": 2}], "hex": "02000000000102afbc42dcae85202ad66fdcecbfc09f905ff2ca20c575d9a72a62888b6814e60e0200000017160014389f3c56febc16768afafcc55637da2c377db490ffffffff40e82755918612b3ed741a0c448c2fc9747eef06ef4eaa44affded42e86668660000000017160014389f3c56febc16768afafcc55637da2c377db490ffffffff0318c51d000000000017a9145fed0e4b32f0d5129badc8e8cae52b459959946c87a08c00000000000017a9149b73129c4c694668beca95329dcb984580f2944387a02f68000000000017a9144acf04704a8b5c0c7636f556935166dddd625fa28702483045022100a07af6fffaab9fc9203edea14fb05ed516bf45cbf0d39307a219c7ee55f7badf022079da46b47916d78f54b7590dd87fc615e219be66cedbce09e0d4d47c2a0cbf490121022d85f1afbb993a859b7594aba35027d6ea33b6656520dedf06e21a5cad4bf6ae02473044022041ba473d35b5f1192152f71b7c5c5d51a834f7fea2f4152932cc6d0d9693363902206ab365908c0e1b3f923aca712bc92ed160e4aaded318d0d01d15337ce70132c60121022d85f1afbb993a859b7594aba35027d6ea33b6656520dedf06e21a5cad4bf6ae00000000", "vin": [{"txinwitness": ["3045022100a07af6fffaab9fc9203edea14fb05ed516bf45cbf0d39307a219c7ee55f7badf022079da46b47916d78f54b7590dd87fc615e219be66cedbce09e0d4d47c2a0cbf4901", "022d85f1afbb993a859b7594aba35027d6ea33b6656520dedf06e21a5cad4bf6ae"], "sequence": 4294967295, "scriptSig": {"hex": "160014389f3c56febc16768afafcc55637da2c377db490", "asm": "0014389f3c56febc16768afafcc55637da2c377db490"}, "vout": 2, "txid": "0ee614688b88622aa7d975c520caf25f909fc0bfecdc6fd62a2085aedc42bcaf"}, {"txinwitness": ["3044022041ba473d35b5f1192152f71b7c5c5d51a834f7fea2f4152932cc6d0d9693363902206ab365908c0e1b3f923aca712bc92ed160e4aaded318d0d01d15337ce70132c601", "022d85f1afbb993a859b7594aba35027d6ea33b6656520dedf06e21a5cad4bf6ae"], "sequence": 4294967295, "scriptSig": {"hex": "160014389f3c56febc16768afafcc55637da2c377db490", "asm": "0014389f3c56febc16768afafcc55637da2c377db490"}, "vout": 0, "txid": "666866e842edfdaf44aa4eef06ef7e74c92f8c440c1a74edb31286915527e840"}], "txid": "0aa0df7844c2e99835118178aabad50d7afd5eabef51c19ddfde9694eb1d88de", "blocktime": 1537873891, "version": 2, "confirmations": 11474, "time": 1537873891, "locktime": 0, "vsize": 289, "size": 451}