{"hash": "39533b12d40950a4a23b3285b7706cc92346e245f0f07f58f1a819fc4532a867", "blockhash": "0000000000000000000e13cef7c366c0283d82e591d1acd082e914b08063cdf1", "vout": [{"scriptPubKey": {"reqSigs": 1, "hex": "a9140e0eed33f6f1485f7062d00dc9cf9e4f9f5980ab87", "addresses": ["32yMGM1yffeJh7RSMQB32AftCioXi34EqX"], "asm": "OP_HASH160 0e0eed33f6f1485f7062d00dc9cf9e4f9f5980ab OP_EQUAL", "type": "scripthash"}, "value": 0.00620752, "n": 0}, {"scriptPubKey": {"reqSigs": 1, "hex": "a9147dee0d64e760313f8c2b83c53a06e0b41c9bbd9987", "addresses": ["3DAsZgqxFQJUw7BML9dJuVD5oTfTi5CpSD"], "asm": "OP_HASH160 7dee0d64e760313f8c2b83c53a06e0b41c9bbd99 OP_EQUAL", "type": "scripthash"}, "value": 2.43098244, "n": 1}, {"scriptPubKey": {"reqSigs": 1, "hex": "a9143a40f1a76cefdea07bb173ee06af7279e52b8fdb87", "addresses": ["3712v4AjL4V4UwiGVP6itLjAZWDSUMN3Sj"], "asm": "OP_HASH160 3a40f1a76cefdea07bb173ee06af7279e52b8fdb OP_EQUAL", "type": "scripthash"}, "value": 0.00442278, "n": 2}, {"scriptPubKey": {"reqSigs": 1, "hex": "a914ae0c5e5dde2b37475bf6269e78bd49293821027987", "addresses": ["3HZJKJsndjL84YJXHssdeuBf2Fb72X5uup"], "asm": "OP_HASH160 ae0c5e5dde2b37475bf6269e78bd492938210279 OP_EQUAL", "type": "scripthash"}, "value": 0.0001, "n": 3}, {"scriptPubKey": {"reqSigs": 1, "hex": "a91420e93bbb504a5a08563af63cc608df4200e5d8b887", "addresses": ["34h2x1zjwsGBykXkJHPJKCSgW5NfCn6Z8U"], "asm": "OP_HASH160 20e93bbb504a5a08563af63cc608df4200e5d8b8 OP_EQUAL", "type": "scripthash"}, "value": 0.0029676, "n": 4}, {"scriptPubKey": {"reqSigs": 1, "hex": "a9141701e92e881add90c590848e29a75d25dfef77ce87", "addresses": ["33nfkj1itM1bA3bnG8KhM1bvp7UEfHPxYk"], "asm": "OP_HASH160 1701e92e881add90c590848e29a75d25dfef77ce OP_EQUAL", "type": "scripthash"}, "value": 0.00331474, "n": 5}, {"scriptPubKey": {"reqSigs": 1, "hex": "a914d937159eb847d4a1e500012e2a5eca70aa2ac32c87", "addresses": ["3MVYYWHx94g53u6hsBQGaJjsMp5Z8ypfk7"], "asm": "OP_HASH160 d937159eb847d4a1e500012e2a5eca70aa2ac32c OP_EQUAL", "type": "scripthash"}, "value": 0.00032545, "n": 6}, {"scriptPubKey": {"reqSigs": 1, "hex": "a91425780611e7fae9dfd98aa9a409f346fcd930786b87", "addresses": ["3578i2zL69y6oWsh4rF7VMBJQwGYFGE1Hh"], "asm": "OP_HASH160 25780611e7fae9dfd98aa9a409f346fcd930786b OP_EQUAL", "type": "scripthash"}, "value": 0.0021406, "n": 7}, {"scriptPubKey": {"reqSigs": 1, "hex": "a91475f2fe307aebd0e0faf69228bfab4843cdd522cf87", "addresses": ["3CSg5S38dd4Pj2FLuWriwVjvngJtLBos2c"], "asm": "OP_HASH160 75f2fe307aebd0e0faf69228bfab4843cdd522cf OP_EQUAL", "type": "scripthash"}, "value": 0.00725045, "n": 8}, {"scriptPubKey": {"reqSigs": 1, "hex": "a91408a303de4ed23df17c9d8832792337fde4892ec987", "addresses": ["32UgcZqCdLa9JwdUZnJf1Nd2hjgfiC9w3e"], "asm": "OP_HASH160 08a303de4ed23df17c9d8832792337fde4892ec9 OP_EQUAL", "type": "scripthash"}, "value": 0.00269497, "n": 9}, {"scriptPubKey": {"reqSigs": 1, "hex": "a9143f3d960990de02c11c878247aade7fe7d73debfa87", "addresses": ["37TQGhrS7dmA8wf6phHN16jMgTxtxucwVp"], "asm": "OP_HASH160 3f3d960990de02c11c878247aade7fe7d73debfa OP_EQUAL", "type": "scripthash"}, "value": 0.0027556, "n": 10}, {"scriptPubKey": {"reqSigs": 1, "hex": "a91451732340cebde2aacf8bf152c7e8d8e65bb8c03287", "addresses": ["397gazPG299GMt91XxbqfhFp5tLMtpLuAj"], "asm": "OP_HASH160 51732340cebde2aacf8bf152c7e8d8e65bb8c032 OP_EQUAL", "type": "scripthash"}, "value": 0.0066495, "n": 11}, {"scriptPubKey": {"reqSigs": 1, "hex": "a914bb5d5fcff988437ac9afaaffe142e9658aec37af87", "addresses": ["3Jmi9B38n5W6aKmmawo2FwBgjeuBViyRsU"], "asm": "OP_HASH160 bb5d5fcff988437ac9afaaffe142e9658aec37af OP_EQUAL", "type": "scripthash"}, "value": 0.0028076, "n": 12}, {"scriptPubKey": {"reqSigs": 1, "hex": "a9141fc768248ae08319c3b66dbf567660e78235b03287", "addresses": ["34b3kX26UuhUc45QEjf3thBbNF5QCK9oLh"], "asm": "OP_HASH160 1fc768248ae08319c3b66dbf567660e78235b032 OP_EQUAL", "type": "scripthash"}, "value": 0.00328735, "n": 13}, {"scriptPubKey": {"reqSigs": 1, "hex": "a91496522b9b64a0a86922ec000d4f2e43185e68198e87", "addresses": ["3FPqicYUTfatyeW5CirN3abdmWrSVNTidJ"], "asm": "OP_HASH160 96522b9b64a0a86922ec000d4f2e43185e68198e OP_EQUAL", "type": "scripthash"}, "value": 0.00235, "n": 14}, {"scriptPubKey": {"reqSigs": 1, "hex": "76a914eb3e324f3f43f7bc4243db76787c6078969591d588ac", "addresses": ["1NSrJa5HKKMRYnkSrdHu2E8x9JvXc1FzAS"], "asm": "OP_DUP OP_HASH160 eb3e324f3f43f7bc4243db76787c6078969591d5 OP_EQUALVERIFY OP_CHECKSIG", "type": "pubkeyhash"}, "value": 0.00256252, "n": 15}, {"scriptPubKey": {"reqSigs": 1, "hex": "a914e412493047153e8ce7ba75fc9ce94d94542e1e8c87", "addresses": ["3NUwtomga9Zau48n9kXJWn1PM9dUARphWW"], "asm": "OP_HASH160 e412493047153e8ce7ba75fc9ce94d94542e1e8c OP_EQUAL", "type": "scripthash"}, "value": 0.00209062, "n": 16}, {"scriptPubKey": {"reqSigs": 1, "hex": "a91411a650a9df659704e312a859ba86bb514e282d6987", "addresses": ["33JLeabYxMcvfXctCQy4QZocAtsNoLsJ85"], "asm": "OP_HASH160 11a650a9df659704e312a859ba86bb514e282d69 OP_EQUAL", "type": "scripthash"}, "value": 0.0025956, "n": 17}, {"scriptPubKey": {"reqSigs": 1, "hex": "a914fa383e30da2242499c13679d09765b07a76bfbe287", "addresses": ["3QW4EL2VffzEfLPcdPVVFC2snvePe4jNLb"], "asm": "OP_HASH160 fa383e30da2242499c13679d09765b07a76bfbe2 OP_EQUAL", "type": "scripthash"}, "value": 0.0026156, "n": 18}, {"scriptPubKey": {"reqSigs": 1, "hex": "76a914d537b120b8715b3654d314165e63969b80f1431788ac", "addresses": ["1LSPeQH1xVf2WaWFWuH1Wnb1kNCxd7mdDc"], "asm": "OP_DUP OP_HASH160 d537b120b8715b3654d314165e63969b80f14317 OP_EQUALVERIFY OP_CHECKSIG", "type": "pubkeyhash"}, "value": 0.003915, "n": 19}, {"scriptPubKey": {"reqSigs": 1, "hex": "a9149ed4464b85936cb4e89682f8f68faf914b21c79f87", "addresses": ["3GApyx4Aa61L1TyeecuVHbozTH6gW9j5YA"], "asm": "OP_HASH160 9ed4464b85936cb4e89682f8f68faf914b21c79f OP_EQUAL", "type": "scripthash"}, "value": 0.0052276, "n": 20}, {"scriptPubKey": {"reqSigs": 1, "hex": "a9141ecb3dc21bf4556e244915c6db78c602a4c2b1e787", "addresses": ["34VqfkKsDC1W6PKAhsnA12WHvHSUtSxBfT"], "asm": "OP_HASH160 1ecb3dc21bf4556e244915c6db78c602a4c2b1e7 OP_EQUAL", "type": "scripthash"}, "value": 0.0028536, "n": 21}, {"scriptPubKey": {"reqSigs": 1, "hex": "76a914fdb5dec2ae70530b21f100237d4a531b0358a7ff88ac", "addresses": ["1Q8Vq6QaM751RMVjyLyD8MLSu1AsX8v7HB"], "asm": "OP_DUP OP_HASH160 fdb5dec2ae70530b21f100237d4a531b0358a7ff OP_EQUALVERIFY OP_CHECKSIG", "type": "pubkeyhash"}, "value": 0.00169328, "n": 22}, {"scriptPubKey": {"reqSigs": 1, "hex": "76a9146a66d99e49b72449d2cc3e87bfadf4e0a9bb282688ac", "addresses": ["1AhbqUyNdYpxrzpALS9eA4Yq9KBhWu1K8o"], "asm": "OP_DUP OP_HASH160 6a66d99e49b72449d2cc3e87bfadf4e0a9bb2826 OP_EQUALVERIFY OP_CHECKSIG", "type": "pubkeyhash"}, "value": 0.00318305, "n": 23}, {"scriptPubKey": {"reqSigs": 1, "hex": "76a914c6d288b76e178e73771eb1fa8221c11d4a5aa82788ac", "addresses": ["1K8H19PQSKTZBSp2utaWAf9Jo3gadDdcny"], "asm": "OP_DUP OP_HASH160 c6d288b76e178e73771eb1fa8221c11d4a5aa827 OP_EQUALVERIFY OP_CHECKSIG", "type": "pubkeyhash"}, "value": 0.0018529, "n": 24}, {"scriptPubKey": {"reqSigs": 1, "hex": "76a9141cebf35e00dc737a5ea74add7a843a9c3a6ca2cd88ac", "addresses": ["13dvaWamrBWFvpwPWnTKsMWhzCHMcR2qy2"], "asm": "OP_DUP OP_HASH160 1cebf35e00dc737a5ea74add7a843a9c3a6ca2cd OP_EQUALVERIFY OP_CHECKSIG", "type": "pubkeyhash"}, "value": 0.0028, "n": 25}, {"scriptPubKey": {"reqSigs": 1, "hex": "a914b8a51ed1fad9a4c517932b7548a4056000d77bf887", "addresses": ["3JXL4c8UQ7eEFDHvfyCgomYnimjn8aqG34"], "asm": "OP_HASH160 b8a51ed1fad9a4c517932b7548a4056000d77bf8 OP_EQUAL", "type": "scripthash"}, "value": 0.0017836, "n": 26}], "hex": "020000000001011a5a27cd7d9dadbab624c255c5daa595004be75b811183defdff2cb4abf08d8c0800000017160014372ff5edac8f84410d3b3a4b8bdab7d0335c04fcfeffffff1bd07809000000000017a9140e0eed33f6f1485f7062d00dc9cf9e4f9f5980ab8784627d0e0000000017a9147dee0d64e760313f8c2b83c53a06e0b41c9bbd9987a6bf06000000000017a9143a40f1a76cefdea07bb173ee06af7279e52b8fdb87102700000000000017a914ae0c5e5dde2b37475bf6269e78bd49293821027987388704000000000017a91420e93bbb504a5a08563af63cc608df4200e5d8b887d20e05000000000017a9141701e92e881add90c590848e29a75d25dfef77ce87217f00000000000017a914d937159eb847d4a1e500012e2a5eca70aa2ac32c872c4403000000000017a91425780611e7fae9dfd98aa9a409f346fcd930786b8735100b000000000017a91475f2fe307aebd0e0faf69228bfab4843cdd522cf87b91c04000000000017a91408a303de4ed23df17c9d8832792337fde4892ec987683404000000000017a9143f3d960990de02c11c878247aade7fe7d73debfa8776250a000000000017a91451732340cebde2aacf8bf152c7e8d8e65bb8c03287b84804000000000017a914bb5d5fcff988437ac9afaaffe142e9658aec37af871f0405000000000017a9141fc768248ae08319c3b66dbf567660e78235b03287f89503000000000017a91496522b9b64a0a86922ec000d4f2e43185e68198e87fce80300000000001976a914eb3e324f3f43f7bc4243db76787c6078969591d588aca63003000000000017a914e412493047153e8ce7ba75fc9ce94d94542e1e8c87e8f503000000000017a91411a650a9df659704e312a859ba86bb514e282d6987b8fd03000000000017a914fa383e30da2242499c13679d09765b07a76bfbe2874cf90500000000001976a914d537b120b8715b3654d314165e63969b80f1431788ac08fa07000000000017a9149ed4464b85936cb4e89682f8f68faf914b21c79f87b05a04000000000017a9141ecb3dc21bf4556e244915c6db78c602a4c2b1e78770950200000000001976a914fdb5dec2ae70530b21f100237d4a531b0358a7ff88ac61db0400000000001976a9146a66d99e49b72449d2cc3e87bfadf4e0a9bb282688accad30200000000001976a914c6d288b76e178e73771eb1fa8221c11d4a5aa82788acc0450400000000001976a9141cebf35e00dc737a5ea74add7a843a9c3a6ca2cd88acb8b802000000000017a914b8a51ed1fad9a4c517932b7548a4056000d77bf88702473044022000f4bd00edbbb3c8c152bc3630985cbad8e24cb08a09bb9e2a00076ffbd3b0fb02202d0c691b67dc4230214474f36cb0cf0c4e13527d63db44db34002ac1d9774bfb012103b4a77c95a14e8dfd15d18f0313727cabb660abcafbc62537a15db4a278dbcbef10490800", "vin": [{"txinwitness": ["3044022000f4bd00edbbb3c8c152bc3630985cbad8e24cb08a09bb9e2a00076ffbd3b0fb02202d0c691b67dc4230214474f36cb0cf0c4e13527d63db44db34002ac1d9774bfb01", "03b4a77c95a14e8dfd15d18f0313727cabb660abcafbc62537a15db4a278dbcbef"], "sequence": 4294967294, "scriptSig": {"hex": "160014372ff5edac8f84410d3b3a4b8bdab7d0335c04fc", "asm": "0014372ff5edac8f84410d3b3a4b8bdab7d0335c04fc"}, "vout": 8, "txid": "8c8df0abb42cfffdde8311815be74b0095a5dac555c224b6baad9d7dcd275a1a"}], "txid": "0aa22317f60858c065c2e915fd3cc60eaf4654e12d7a94d5db9cd14f41e68d5e", "blocktime": 1537871767, "version": 2, "confirmations": 11490, "time": 1537871767, "locktime": 542992, "vsize": 978, "size": 1059}