{"hash": "ced9b300d0260d82437903b8257729b2b463ec8997fbf83b20dbd3a18f5add93", "blockhash": "0000000000000000001cda96e906b7601b7a6fb1a3b62bca570a9e5d8f4b3de1", "vout": [{"scriptPubKey": {"reqSigs": 1, "hex": "00149923321564c0a1ba169317f7e3b5e603b5891667", "addresses": ["bc1qny3ny9tyczsm595nzlm78d0xqw6cj9n8hw6e79"], "asm": "0 9923321564c0a1ba169317f7e3b5e603b5891667", "type": "witness_v0_keyhash"}, "value": 0.00371611, "n": 0}, {"scriptPubKey": {"reqSigs": 1, "hex": "76a91491ed8252adaaccf5964c8d8630308dcd88e8217d88ac", "addresses": ["1EJbWEeAGNNR5DQDM9rkUZQUKiq2G1UWhW"], "asm": "OP_DUP OP_HASH160 91ed8252adaaccf5964c8d8630308dcd88e8217d OP_EQUALVERIFY OP_CHECKSIG", "type": "pubkeyhash"}, "value": 0.01011, "n": 1}], "hex": "0100000000010129b05cf3333e48ba39689aa444f0efe01f96cffd910328c304ea2bcbba692f200600000017160014729dd9031401c45e312feec4a6705425d1b051abffffffff029bab0500000000001600149923321564c0a1ba169317f7e3b5e603b5891667386d0f00000000001976a91491ed8252adaaccf5964c8d8630308dcd88e8217d88ac02473044022077cd63e55c5b6fc47048767007c34f6b8b7a94bcf8762447f0ee6574ce7516a002202939beceaa18b89e554ff77183fc0610e3b2b0700221a676702d21f3491105fc012102ac01fff65fddaf43d72c9a1e1d7fd95fe8bfad1a1cfa5fc35489062e0f459d7500000000", "vin": [{"txinwitness": ["3044022077cd63e55c5b6fc47048767007c34f6b8b7a94bcf8762447f0ee6574ce7516a002202939beceaa18b89e554ff77183fc0610e3b2b0700221a676702d21f3491105fc01", "02ac01fff65fddaf43d72c9a1e1d7fd95fe8bfad1a1cfa5fc35489062e0f459d75"], "sequence": 4294967295, "scriptSig": {"hex": "160014729dd9031401c45e312feec4a6705425d1b051ab", "asm": "0014729dd9031401c45e312feec4a6705425d1b051ab"}, "vout": 6, "txid": "202f69bacb2bea04c3280391fdcf961fe0eff044a49a6839ba483e33f35cb029"}], "txid": "0aa33332f7b1616495f55b6ffdc4b5dede36b32643ff152c9defd1f1aeb2a724", "blocktime": 1537873282, "version": 1, "confirmations": 11484, "time": 1537873282, "locktime": 0, "vsize": 167, "size": 248}