{"hash": "0aa8816918148a92bb4ff235da4b21df9bbf731735e0efb53b22fb31a63905f6", "blockhash": "0000000000000000001f0ddff1eddb255c1121bcd4da4f1bc9a0da00cae72433", "vout": [{"scriptPubKey": {"reqSigs": 1, "hex": "a914fa2c01e401872e6970d5a595ca3d5666eaff926f87", "addresses": ["3QVoaBs1hrkqFx1z97g61GkEq53LpXsPyG"], "asm": "OP_HASH160 fa2c01e401872e6970d5a595ca3d5666eaff926f OP_EQUAL", "type": "scripthash"}, "value": 0.34999228, "n": 0}], "hex": "01000000016f3cad55dd26ed7b64352e3aefba4856daaddda76e38742000924827b6e4ce67000000006a4730440220286bc38a8b66bb5ed596661afe43af363bd74be39469557fdb50368151aa94f802201c0af727d99541788b379220fa9b131971432fe18d94406c53c7d35387ab2433012103062223664b404cfe1c34f5f6abfadf666b576a863b9a642ed5810f19f5859c24ffffffff01bc0b16020000000017a914fa2c01e401872e6970d5a595ca3d5666eaff926f8700000000", "vin": [{"sequence": 4294967295, "scriptSig": {"hex": "4730440220286bc38a8b66bb5ed596661afe43af363bd74be39469557fdb50368151aa94f802201c0af727d99541788b379220fa9b131971432fe18d94406c53c7d35387ab2433012103062223664b404cfe1c34f5f6abfadf666b576a863b9a642ed5810f19f5859c24", "asm": "30440220286bc38a8b66bb5ed596661afe43af363bd74be39469557fdb50368151aa94f802201c0af727d99541788b379220fa9b131971432fe18d94406c53c7d35387ab2433[ALL] 03062223664b404cfe1c34f5f6abfadf666b576a863b9a642ed5810f19f5859c24"}, "vout": 0, "txid": "67cee4b6274892002074386ea7ddadda5648baef3a2e35647bed26dd55ad3c6f"}], "txid": "0aa8816918148a92bb4ff235da4b21df9bbf731735e0efb53b22fb31a63905f6", "blocktime": 1537872018, "version": 1, "confirmations": 11489, "time": 1537872018, "locktime": 0, "vsize": 189, "size": 189}