{"hash": "1ff30ca31c57cd264c994f7df1121704930c35304919df01bc18b0b276066412", "blockhash": "0000000000000000001f76057863aec43deb6fa401d9628bb513d65a8098bfab", "vout": [{"scriptPubKey": {"reqSigs": 1, "hex": "a914329abf797d4f1cd24f8ef0188bc8a6aa969e84a787", "addresses": ["36Jb6DCcfA6GkHFFQMxx64oNGX2TezwpSN"], "asm": "OP_HASH160 329abf797d4f1cd24f8ef0188bc8a6aa969e84a7 OP_EQUAL", "type": "scripthash"}, "value": 0.01015537, "n": 0}, {"scriptPubKey": {"reqSigs": 1, "hex": "76a914368350fc3800143a4f2e6ba7f6ad7af004ed4dbd88ac", "addresses": ["15yEoNxvvWJ7ts7MYVc43kNmxh3UkWJeMi"], "asm": "OP_DUP OP_HASH160 368350fc3800143a4f2e6ba7f6ad7af004ed4dbd OP_EQUALVERIFY OP_CHECKSIG", "type": "pubkeyhash"}, "value": 0.0018266, "n": 1}], "hex": "0200000000010299e90ee5fff63049d06566bb5d4b285a814d5ef69e31a18d6ef9e56a09f85f7e0000000017160014a037b15c3e65be5c17822c15b2e58eafe12079a2fefffffffcd39915b37d6cc08375f96bd92313741b7a1ef03ab64e342aa2e658ea85e5fc0000000017160014de899f70702247afc0c4d183aa0b8287f26ff9b5feffffff02f17e0f000000000017a914329abf797d4f1cd24f8ef0188bc8a6aa969e84a78784c90200000000001976a914368350fc3800143a4f2e6ba7f6ad7af004ed4dbd88ac02483045022100bc1be13749342f563e83adae321c67f8e6f70d51119e84ad767261faef73e3b002207b93e9c6e2c9e5326bf1a54cda4e73f9da4699fcd6cf6bacbae2862ad42db704012102baacb66e2bd4afdb15e141b06fd03e1c438addebccb83594fec68e09226258a40247304402200db50eb624f680dac68696a4390c0eb5e3dc0485b25eb246deda0d41d0d2aac6022054f2ffed58e511f80d8c970fd9a9b765a5228f74e16c3c4214572f54f7c58422012103da45728122e934b6295cf034a6262a9810a3d7bd336de0b1dde337070e8f19d214490800", "vin": [{"txinwitness": ["3045022100bc1be13749342f563e83adae321c67f8e6f70d51119e84ad767261faef73e3b002207b93e9c6e2c9e5326bf1a54cda4e73f9da4699fcd6cf6bacbae2862ad42db70401", "02baacb66e2bd4afdb15e141b06fd03e1c438addebccb83594fec68e09226258a4"], "sequence": 4294967294, "scriptSig": {"hex": "160014a037b15c3e65be5c17822c15b2e58eafe12079a2", "asm": "0014a037b15c3e65be5c17822c15b2e58eafe12079a2"}, "vout": 0, "txid": "7e5ff8096ae5f96e8da1319ef65e4d815a284b5dbb6665d04930f6ffe50ee999"}, {"txinwitness": ["304402200db50eb624f680dac68696a4390c0eb5e3dc0485b25eb246deda0d41d0d2aac6022054f2ffed58e511f80d8c970fd9a9b765a5228f74e16c3c4214572f54f7c5842201", "03da45728122e934b6295cf034a6262a9810a3d7bd336de0b1dde337070e8f19d2"], "sequence": 4294967294, "scriptSig": {"hex": "160014de899f70702247afc0c4d183aa0b8287f26ff9b5", "asm": "0014de899f70702247afc0c4d183aa0b8287f26ff9b5"}, "vout": 0, "txid": "fce585ea58e6a22a344eb63af01e7a1b741323d96bf97583c06c7db31599d3fc"}], "txid": "0aab7fc078ad82a65bdfd101fb6dce9179c5b33360a68bee4b2edec78578643b", "blocktime": 1537873891, "version": 2, "confirmations": 11478, "time": 1537873891, "locktime": 542996, "vsize": 259, "size": 421}