{"hash": "5acde784cab9ca29b255edc37962db89b39c42f20bc379a903eaf918ec3fc222", "blockhash": "00000000000000000018f53835495a110e01622372bf6ae95dc86f2b0ab887b0", "vout": [{"scriptPubKey": {"reqSigs": 1, "hex": "a914669d60e58e1d551102b9f322a1ee80e65cac0c1687", "addresses": ["3B3bNxfU4kBzUeJnnHhR1pKYNiu2bgUrKk"], "asm": "OP_HASH160 669d60e58e1d551102b9f322a1ee80e65cac0c16 OP_EQUAL", "type": "scripthash"}, "value": 17.84742779, "n": 0}, {"scriptPubKey": {"reqSigs": 1, "hex": "a914468ec030ceb5cc55e9a13390315ff583a7cedadd87", "addresses": ["3886EU4xdQx8iEnY6qSRszuwbvBZDn2f3i"], "asm": "OP_HASH160 468ec030ceb5cc55e9a13390315ff583a7cedadd OP_EQUAL", "type": "scripthash"}, "value": 1.06833986, "n": 1}], "hex": "020000000001010ea79fecc0fd2bbba504b7eaff00ab931cd30ff9c7b11d9e2156803737c5469e0000000017160014d2240a3a5bc60dbbd7c64e4e72a67d80a847c5aefeffffff027b03616a0000000017a914669d60e58e1d551102b9f322a1ee80e65cac0c168742285e060000000017a914468ec030ceb5cc55e9a13390315ff583a7cedadd8702483045022100ee0c4d52ce5d6ddbf8c77456462ab01e00464e106ba77bcc3f7600124ee054330220067eaf36b9ce6670ea6d4a50eef48a8cc7850a3ff08bf8e94cbe6a4d06760da9012103f97b22a10f3bbbace207e502f181043d4aa822c62f58b6d5ef9659d84d6554490d490800", "vin": [{"txinwitness": ["3045022100ee0c4d52ce5d6ddbf8c77456462ab01e00464e106ba77bcc3f7600124ee054330220067eaf36b9ce6670ea6d4a50eef48a8cc7850a3ff08bf8e94cbe6a4d06760da901", "03f97b22a10f3bbbace207e502f181043d4aa822c62f58b6d5ef9659d84d655449"], "sequence": 4294967294, "scriptSig": {"hex": "160014d2240a3a5bc60dbbd7c64e4e72a67d80a847c5ae", "asm": "0014d2240a3a5bc60dbbd7c64e4e72a67d80a847c5ae"}, "vout": 0, "txid": "9e46c537378056219e1db1c7f90fd31c93ab00ffeab704a5bb2bfdc0ec9fa70e"}], "txid": "0aae34d47d61b53bbc54be7f53835ed84066420e31182a2aca6c09a7ac3128d6", "blocktime": 1537870928, "version": 2, "confirmations": 11512, "time": 1537870928, "locktime": 542989, "vsize": 166, "size": 248}