{"hash": "0ab1eddb491d491b9eb3d2e25b1627af905a686751ba2091670db3e9bb378bb6", "blockhash": "0000000000000000000e13cef7c366c0283d82e591d1acd082e914b08063cdf1", "vout": [{"scriptPubKey": {"reqSigs": 1, "hex": "76a914e175e7c97bbd7940a0e6e02b8de39b844c65a17d88ac", "addresses": ["1MZ8HNgrWYckFt7GKnWcJVy8N1uTYBgUNW"], "asm": "OP_DUP OP_HASH160 e175e7c97bbd7940a0e6e02b8de39b844c65a17d OP_EQUALVERIFY OP_CHECKSIG", "type": "pubkeyhash"}, "value": 0.55520897, "n": 0}, {"scriptPubKey": {"reqSigs": 1, "hex": "76a914922fda6165668f7b58a43ba0a566ab43f153e3da88ac", "addresses": ["1EKxytvxcYh2kudcEgzDerhADUcboiNj4d"], "asm": "OP_DUP OP_HASH160 922fda6165668f7b58a43ba0a566ab43f153e3da OP_EQUALVERIFY OP_CHECKSIG", "type": "pubkeyhash"}, "value": 0.62478425, "n": 1}], "hex": "0100000001f379e60958a6ca6ca385ebe6a5cbc9b71973bc70a4e39dc63f2727af1459f0cd0a0000006a47304402202bf0d36727d88bfa03b636131eb7dd12db578e8abef3e7b17def33b6f20eb61b0220283b0ddd495f5fc2aa3e5ab693d6855e49ca24455291a6437ce8f72ee779945d012103e97d8def35a146fb0b98d47074c749209ad98bbda32fc11ce8466b5d3e89ba99ffffffff02812e4f03000000001976a914e175e7c97bbd7940a0e6e02b8de39b844c65a17d88ac5958b903000000001976a914922fda6165668f7b58a43ba0a566ab43f153e3da88ac00000000", "vin": [{"sequence": 4294967295, "scriptSig": {"hex": "47304402202bf0d36727d88bfa03b636131eb7dd12db578e8abef3e7b17def33b6f20eb61b0220283b0ddd495f5fc2aa3e5ab693d6855e49ca24455291a6437ce8f72ee779945d012103e97d8def35a146fb0b98d47074c749209ad98bbda32fc11ce8466b5d3e89ba99", "asm": "304402202bf0d36727d88bfa03b636131eb7dd12db578e8abef3e7b17def33b6f20eb61b0220283b0ddd495f5fc2aa3e5ab693d6855e49ca24455291a6437ce8f72ee779945d[ALL] 03e97d8def35a146fb0b98d47074c749209ad98bbda32fc11ce8466b5d3e89ba99"}, "vout": 10, "txid": "cdf05914af27273fc69de3a470bc7319b7c9cba5e6eb85a36ccaa65809e679f3"}], "txid": "0ab1eddb491d491b9eb3d2e25b1627af905a686751ba2091670db3e9bb378bb6", "blocktime": 1537871767, "version": 1, "confirmations": 11495, "time": 1537871767, "locktime": 0, "vsize": 225, "size": 225}