{"hash": "0ab9fa047d074fe254f5b0b1a778f0a5372a5d4cdb557aab137635ed49fe6151", "blockhash": "000000000000000000022b45ed06c6f4ccd3cf7fb5ba4856ebd2e58215665228", "vout": [{"scriptPubKey": {"reqSigs": 1, "hex": "a9149984039e29a0615714ff07c7d6bb55be29765cad87", "addresses": ["3FgjTPx7ztvqtJDEtWE1XdszfsvYYUoEz2"], "asm": "OP_HASH160 9984039e29a0615714ff07c7d6bb55be29765cad OP_EQUAL", "type": "scripthash"}, "value": 0.063, "n": 0}, {"scriptPubKey": {"reqSigs": 1, "hex": "76a9142d9fd7ba31c470d497950e5a26920ad249224b1088ac", "addresses": ["15AEthR5v6J912QC4JswwmDdwHbmjcYNRj"], "asm": "OP_DUP OP_HASH160 2d9fd7ba31c470d497950e5a26920ad249224b10 OP_EQUALVERIFY OP_CHECKSIG", "type": "pubkeyhash"}, "value": 1.92171395, "n": 1}], "hex": "020000000170fe15c404d12d63a4c44057cbbae5ae6be3a72b6e40d6fd80a4b7451102eba2000000006a47304402203c3d8e9691868babd2976eab57b2369933165c4ea7a72eb6fcfc40ad18d8980202203634d791648ac0f5015591c7c17581fbd1a190e8ef45d7e971cf30c8774a6eb3012103074342a23b5486b82a4345c9f6f57f1976f520541fd0fec91b423a02594e78cbfeffffff02602160000000000017a9149984039e29a0615714ff07c7d6bb55be29765cad87834d740b000000001976a9142d9fd7ba31c470d497950e5a26920ad249224b1088ac0b490800", "vin": [{"sequence": 4294967294, "scriptSig": {"hex": "47304402203c3d8e9691868babd2976eab57b2369933165c4ea7a72eb6fcfc40ad18d8980202203634d791648ac0f5015591c7c17581fbd1a190e8ef45d7e971cf30c8774a6eb3012103074342a23b5486b82a4345c9f6f57f1976f520541fd0fec91b423a02594e78cb", "asm": "304402203c3d8e9691868babd2976eab57b2369933165c4ea7a72eb6fcfc40ad18d8980202203634d791648ac0f5015591c7c17581fbd1a190e8ef45d7e971cf30c8774a6eb3[ALL] 03074342a23b5486b82a4345c9f6f57f1976f520541fd0fec91b423a02594e78cb"}, "vout": 0, "txid": "a2eb021145b7a480fdd6406e2ba7e36baee5bacb5740c4a4632dd104c415fe70"}], "txid": "0ab9fa047d074fe254f5b0b1a778f0a5372a5d4cdb557aab137635ed49fe6151", "blocktime": 1537869901, "version": 2, "confirmations": 11524, "time": 1537869901, "locktime": 542987, "vsize": 223, "size": 223}