{"hash": "0abef5d0cd06c59b3d3db223c4d884918dba2b415dc1434f5149a881856b0ffa", "blockhash": "0000000000000000000e13cef7c366c0283d82e591d1acd082e914b08063cdf1", "vout": [{"scriptPubKey": {"reqSigs": 1, "hex": "001470b00a9dc27c162ef47c5fa8b00394ed2cb815fb", "addresses": ["bc1qwzcq48wz0stzaarut75tqqu5a5kts90mcpeyr9"], "asm": "0 70b00a9dc27c162ef47c5fa8b00394ed2cb815fb", "type": "witness_v0_keyhash"}, "value": 0.02437861, "n": 0}, {"scriptPubKey": {"reqSigs": 1, "hex": "76a914fd9373b4b4f6033fe221ce74ba5cf43a25c2ff1f88ac", "addresses": ["1Q7nbgD5wL5NdTUE9Zy7ysTpJZxo5HGJBW"], "asm": "OP_DUP OP_HASH160 fd9373b4b4f6033fe221ce74ba5cf43a25c2ff1f OP_EQUALVERIFY OP_CHECKSIG", "type": "pubkeyhash"}, "value": 0.04099507, "n": 1}], "hex": "01000000019140ea8ca2413925ee787cc0cd03f390076f31247f145a86dd7a9578a0e68b67000000006b483045022100a5ef5c50fefd9d8fd567330a2333a21ca4b349773b8c7264a4f864e370431094022017188b8384d9483e5661b4d4bab91e395c4aa579350c80b0e27ab21821029130012102b5fecfb52a263e306c902a559667ac4f82b2fa83a16300e083c060bf68154ed0ffffffff02e53225000000000016001470b00a9dc27c162ef47c5fa8b00394ed2cb815fbb38d3e00000000001976a914fd9373b4b4f6033fe221ce74ba5cf43a25c2ff1f88ac00000000", "vin": [{"sequence": 4294967295, "scriptSig": {"hex": "483045022100a5ef5c50fefd9d8fd567330a2333a21ca4b349773b8c7264a4f864e370431094022017188b8384d9483e5661b4d4bab91e395c4aa579350c80b0e27ab21821029130012102b5fecfb52a263e306c902a559667ac4f82b2fa83a16300e083c060bf68154ed0", "asm": "3045022100a5ef5c50fefd9d8fd567330a2333a21ca4b349773b8c7264a4f864e370431094022017188b8384d9483e5661b4d4bab91e395c4aa579350c80b0e27ab21821029130[ALL] 02b5fecfb52a263e306c902a559667ac4f82b2fa83a16300e083c060bf68154ed0"}, "vout": 0, "txid": "678be6a078957add865a147f24316f0790f303cdc07c78ee253941a28cea4091"}], "txid": "0abef5d0cd06c59b3d3db223c4d884918dba2b415dc1434f5149a881856b0ffa", "blocktime": 1537871767, "version": 1, "confirmations": 11495, "time": 1537871767, "locktime": 0, "vsize": 223, "size": 223}