{"hash": "0abedf12f449e56b19e22522754f00a6a9238610522da9c8450d916d81d0e790", "blockhash": "0000000000000000001e0dab787dd257d1dbfcb92a98c2207d5e1078be1f4165", "vout": [{"scriptPubKey": {"reqSigs": 1, "hex": "76a914250852a281dd9fd7f4d743be99ffa5b1d20b311b88ac", "addresses": ["14NoyNn4LYfeQNhJL914JDfxDakpGbiyey"], "asm": "OP_DUP OP_HASH160 250852a281dd9fd7f4d743be99ffa5b1d20b311b OP_EQUALVERIFY OP_CHECKSIG", "type": "pubkeyhash"}, "value": 0.679817, "n": 0}], "hex": "0100000001c9f445acda88f4ecbd26347d5a762a6fc73d5d8e4544f23021551aa11a548728000000006a47304402201d20a9b1ab918f4ce42b8a04ee164291e14206b5b3dd4c0803abeebbe64b872402204fbe0cbd3eb4109433d9d48319ce79be3eed84deff6e637fed27dd4e0c9e66ea01210336f37d2dcb419a26f6a29a1c47ee3a6e8939c7cf832a6db1b9f29fcb69c73b13ffffffff0184510d04000000001976a914250852a281dd9fd7f4d743be99ffa5b1d20b311b88ac00000000", "vin": [{"sequence": 4294967295, "scriptSig": {"hex": "47304402201d20a9b1ab918f4ce42b8a04ee164291e14206b5b3dd4c0803abeebbe64b872402204fbe0cbd3eb4109433d9d48319ce79be3eed84deff6e637fed27dd4e0c9e66ea01210336f37d2dcb419a26f6a29a1c47ee3a6e8939c7cf832a6db1b9f29fcb69c73b13", "asm": "304402201d20a9b1ab918f4ce42b8a04ee164291e14206b5b3dd4c0803abeebbe64b872402204fbe0cbd3eb4109433d9d48319ce79be3eed84deff6e637fed27dd4e0c9e66ea[ALL] 0336f37d2dcb419a26f6a29a1c47ee3a6e8939c7cf832a6db1b9f29fcb69c73b13"}, "vout": 0, "txid": "2887541aa11a552130f244458e5d3dc76f2a765a7d3426bdecf488daac45f4c9"}], "txid": "0abedf12f449e56b19e22522754f00a6a9238610522da9c8450d916d81d0e790", "blocktime": 1537872475, "version": 1, "confirmations": 11486, "time": 1537872475, "locktime": 0, "vsize": 191, "size": 191}