{"hash": "c3773f3a3c426621f6084cf39e825fc4e97c33131141daf613d85d843f39e9e8", "blockhash": "0000000000000000001f76057863aec43deb6fa401d9628bb513d65a8098bfab", "vout": [{"scriptPubKey": {"reqSigs": 1, "hex": "00144bef9c6a56ae83506eb40ad694d3095c1f46e706", "addresses": ["bc1qf0hec6jk46p4qm45pttff5cfts05decx45m65j"], "asm": "0 4bef9c6a56ae83506eb40ad694d3095c1f46e706", "type": "witness_v0_keyhash"}, "value": 0.0115261, "n": 0}, {"scriptPubKey": {"reqSigs": 1, "hex": "a914f2b731360176e83f1a9e2b468d7e532543e3cd7c87", "addresses": ["3PpNuPLq77xKpExKdj8Ct6fk9cuq7VsowT"], "asm": "OP_HASH160 f2b731360176e83f1a9e2b468d7e532543e3cd7c OP_EQUAL", "type": "scripthash"}, "value": 0.01961002, "n": 1}], "hex": "01000000000101c430553d1f253df011a59108a0455ae8af105ad9c9755888e14da0161b206efe01000000171600140564e6f420cdd09ec68cd1514391626918c9ab65ffffffff0262961100000000001600144bef9c6a56ae83506eb40ad694d3095c1f46e7062aec1d000000000017a914f2b731360176e83f1a9e2b468d7e532543e3cd7c8702483045022100e90a042b039fbb24135bf44aa19671c62eb68ba4449ad754997c1881a639fefb02200bdb43584de928f9c39a0f171ef041f284e40ee61e0ea694cf9c7f2b2aaff107012103a8eb5dd41385eda1d49abf5c1f89bf8c4965e2a4f7e17c54af1da92ee92895c200000000", "vin": [{"txinwitness": ["3045022100e90a042b039fbb24135bf44aa19671c62eb68ba4449ad754997c1881a639fefb02200bdb43584de928f9c39a0f171ef041f284e40ee61e0ea694cf9c7f2b2aaff10701", "03a8eb5dd41385eda1d49abf5c1f89bf8c4965e2a4f7e17c54af1da92ee92895c2"], "sequence": 4294967295, "scriptSig": {"hex": "1600140564e6f420cdd09ec68cd1514391626918c9ab65", "asm": "00140564e6f420cdd09ec68cd1514391626918c9ab65"}, "vout": 1, "txid": "fe6e201b16a04de1885875c9d95a10afe85a45a00891a511f03d251f3d5530c4"}], "txid": "0ac250bf9455d03aee218f24b263db38e44d27aba21f6f5d824fc5f1dcfbfe12", "blocktime": 1537873891, "version": 1, "confirmations": 11478, "time": 1537873891, "locktime": 0, "vsize": 165, "size": 247}