{"hash": "b8aac69f19eec8ffb49858b0d655b1d02e88f51403a8a5abf39da3fabfc638c9", "blockhash": "0000000000000000001f76057863aec43deb6fa401d9628bb513d65a8098bfab", "vout": [{"scriptPubKey": {"reqSigs": 1, "hex": "0014f29c99efac2cc006132c5b5eb2c08bacdad92a21", "addresses": ["bc1q72wfnmav9nqqvyevtd0t9syt4nddj23pva3kpl"], "asm": "0 f29c99efac2cc006132c5b5eb2c08bacdad92a21", "type": "witness_v0_keyhash"}, "value": 8.966e-05, "n": 0}, {"scriptPubKey": {"reqSigs": 1, "hex": "a9148333b9bea180d7a3d257e028542b76e63916431987", "addresses": ["3DekQdRYxJThpjM712qBinNRSNFRTbv386"], "asm": "OP_HASH160 8333b9bea180d7a3d257e028542b76e639164319 OP_EQUAL", "type": "scripthash"}, "value": 0.005, "n": 1}], "hex": "01000000000101e8fb1978b6b7276ad1d79299af227fc140c758bb1ba1d5deb8eb6c6d2677edbe0000000000ffffffff020623000000000000160014f29c99efac2cc006132c5b5eb2c08bacdad92a2120a107000000000017a9148333b9bea180d7a3d257e028542b76e639164319870247304402200c4144e51df68409835e66f824a46012a7e6fd5210475503f536741d9855c1770220176927147eb3fd8804e31ae3cb25c15ea89edf88bae445f44db7a1878615fdc4012102ef68efdc9a7b92cff4f15e164467ecda7eb6e405fe844bbad03a6398afe1e02100000000", "vin": [{"txinwitness": ["304402200c4144e51df68409835e66f824a46012a7e6fd5210475503f536741d9855c1770220176927147eb3fd8804e31ae3cb25c15ea89edf88bae445f44db7a1878615fdc401", "02ef68efdc9a7b92cff4f15e164467ecda7eb6e405fe844bbad03a6398afe1e021"], "sequence": 4294967295, "scriptSig": {"hex": "", "asm": ""}, "vout": 0, "txid": "beed77266d6cebb8ded5a11bbb58c740c17f22af9992d7d16a27b7b67819fbe8"}], "txid": "0ac4829c4803b92a44047e02a2d1ad9d66e24622ae45a6d429e68e4f5dc452ca", "blocktime": 1537873891, "version": 1, "confirmations": 11478, "time": 1537873891, "locktime": 0, "vsize": 142, "size": 223}