{"hash": "0ac73df3cc919557c34483685538f5f1e6902d99175701b532cf44686c215a0e", "blockhash": "000000000000000000205f8b0775d31398ef75b89a5e8ec8d2c57b4dc0ac4c20", "vout": [{"scriptPubKey": {"reqSigs": 1, "hex": "76a914380572862e4021a3b56fd10f1e851364310fc2cc88ac", "addresses": ["167DNESTqa144mtAm4EssXCxUaHvpDK7U2"], "asm": "OP_DUP OP_HASH160 380572862e4021a3b56fd10f1e851364310fc2cc OP_EQUALVERIFY OP_CHECKSIG", "type": "pubkeyhash"}, "value": 0.14776447, "n": 0}, {"scriptPubKey": {"reqSigs": 1, "hex": "76a91467cf5130b2cda9e00d8085bb0bae1a20da512e6b88ac", "addresses": ["1ATtxQaoMmxmepyGGWTt32xkEnu1YFGkec"], "asm": "OP_DUP OP_HASH160 67cf5130b2cda9e00d8085bb0bae1a20da512e6b OP_EQUALVERIFY OP_CHECKSIG", "type": "pubkeyhash"}, "value": 64.70107307, "n": 1}], "hex": "020000000156bf654766dc4aa2cc87d6bc4dab52ad2ac99f35a43ea51916dd94c33638b99c010000006a47304402203c59aeb8355f7d9788834bb542dab914ee9d491307be277f31913b1bb79c0e210220698c8d42b3cecb19371fd7bf2d48deda7b538a585b26fbd5e5e0fe1c1677b4b5012102ec20d3ac01831b269006b080bb25e873b508790e1e0064e4ffdc14f2f285ab3fffffffff027f78e100000000001976a914380572862e4021a3b56fd10f1e851364310fc2cc88acab00a681010000001976a91467cf5130b2cda9e00d8085bb0bae1a20da512e6b88ac00000000", "vin": [{"sequence": 4294967295, "scriptSig": {"hex": "47304402203c59aeb8355f7d9788834bb542dab914ee9d491307be277f31913b1bb79c0e210220698c8d42b3cecb19371fd7bf2d48deda7b538a585b26fbd5e5e0fe1c1677b4b5012102ec20d3ac01831b269006b080bb25e873b508790e1e0064e4ffdc14f2f285ab3f", "asm": "304402203c59aeb8355f7d9788834bb542dab914ee9d491307be277f31913b1bb79c0e210220698c8d42b3cecb19371fd7bf2d48deda7b538a585b26fbd5e5e0fe1c1677b4b5[ALL] 02ec20d3ac01831b269006b080bb25e873b508790e1e0064e4ffdc14f2f285ab3f"}, "vout": 1, "txid": "9cb93836c394dd1619a53ea4359fc92aad52ab4dbcd687cca24adc664765bf56"}], "txid": "0ac73df3cc919557c34483685538f5f1e6902d99175701b532cf44686c215a0e", "blocktime": 1537871175, "version": 2, "confirmations": 11511, "time": 1537871175, "locktime": 0, "vsize": 225, "size": 225}