{"hash": "0acb3049a8e62da6229473adc5965b38224bc3925759b4e3001e425b4ad01cef", "blockhash": "00000000000000000017f5eb5941039fbcee6240d03bc1f2f8e35350df66a1d8", "vout": [{"scriptPubKey": {"reqSigs": 1, "hex": "76a91478b32bd4af95121e346cefc45e2ebc3fcbbfe52f88ac", "addresses": ["1C1Cj489w9s4MSBmP15uvdtYZoCfJGMgYQ"], "asm": "OP_DUP OP_HASH160 78b32bd4af95121e346cefc45e2ebc3fcbbfe52f OP_EQUALVERIFY OP_CHECKSIG", "type": "pubkeyhash"}, "value": 0.00437203, "n": 0}, {"scriptPubKey": {"reqSigs": 1, "hex": "a914256ede4021d159912db6a52837c0ea224bd829be87", "addresses": ["356wjtxmgFrEcpdRnGRhjBnScS1nWjn85b"], "asm": "OP_HASH160 256ede4021d159912db6a52837c0ea224bd829be OP_EQUAL", "type": "scripthash"}, "value": 0.00585926, "n": 1}], "hex": "0100000002691ca7f8f1fdf912297ad9e587b2c6139c8a5a15e97bec0773c0face4929ed5a010000006b483045022100fa20482b089869c5344400e90395ff15ef31c461b20911154374a5ef6a8e7106022065337c0717126cb4c0d2bf729d176c6b42b475927765bacb4abc3da386b625ba012102952c5749776ffe062d439fb42fe2dffbf4ec74a0d1b5d4fa4bd1266654a16180ffffffffa704873cfcf8c9c30a46107aa656726c484ae825882e052bf937d855f38860a3000000006b483045022100ab3631811a9c574516a595333db6be96c434a9e5b6be1038c7426a6768badf3302200d77cf4fea07651ad87facb1b14b4e3057ba2173cfc1fce5f48a365c0c1317ae0121030a64bef8c72728ee1eb8dbb88141ce0d32d52dff9da6a6557156430c00e8aefbffffffff02d3ab0600000000001976a91478b32bd4af95121e346cefc45e2ebc3fcbbfe52f88acc6f008000000000017a914256ede4021d159912db6a52837c0ea224bd829be8700000000", "vin": [{"sequence": 4294967295, "scriptSig": {"hex": "483045022100fa20482b089869c5344400e90395ff15ef31c461b20911154374a5ef6a8e7106022065337c0717126cb4c0d2bf729d176c6b42b475927765bacb4abc3da386b625ba012102952c5749776ffe062d439fb42fe2dffbf4ec74a0d1b5d4fa4bd1266654a16180", "asm": "3045022100fa20482b089869c5344400e90395ff15ef31c461b20911154374a5ef6a8e7106022065337c0717126cb4c0d2bf729d176c6b42b475927765bacb4abc3da386b625ba[ALL] 02952c5749776ffe062d439fb42fe2dffbf4ec74a0d1b5d4fa4bd1266654a16180"}, "vout": 1, "txid": "5aed2949cefac07307ec7be9155a8a9c13c6b287e5d97a2912f9fdf1f8a71c69"}, {"sequence": 4294967295, "scriptSig": {"hex": "483045022100ab3631811a9c574516a595333db6be96c434a9e5b6be1038c7426a6768badf3302200d77cf4fea07651ad87facb1b14b4e3057ba2173cfc1fce5f48a365c0c1317ae0121030a64bef8c72728ee1eb8dbb88141ce0d32d52dff9da6a6557156430c00e8aefb", "asm": "3045022100ab3631811a9c574516a595333db6be96c434a9e5b6be1038c7426a6768badf3302200d77cf4fea07651ad87facb1b14b4e3057ba2173cfc1fce5f48a365c0c1317ae[ALL] 030a64bef8c72728ee1eb8dbb88141ce0d32d52dff9da6a6557156430c00e8aefb"}, "vout": 0, "txid": "a36088f355d837f92b052e8825e84a486c7256a67a10460ac3c9f8fc3c8704a7"}], "txid": "0acb3049a8e62da6229473adc5965b38224bc3925759b4e3001e425b4ad01cef", "blocktime": 1537874412, "version": 1, "confirmations": 11467, "time": 1537874412, "locktime": 0, "vsize": 372, "size": 372}