{"hash": "84208c414330797a65e8418d2cba864f70850bbd4ae4b14ccaf21f8bfb28e281", "blockhash": "000000000000000000022b45ed06c6f4ccd3cf7fb5ba4856ebd2e58215665228", "vout": [{"scriptPubKey": {"reqSigs": 1, "hex": "0014774151c21b0e17579b3e0b684d24d251c535fbc2", "addresses": ["bc1qwaq4rssmpct40xe7pd5y6fxj28znt77zcj0pcg"], "asm": "0 774151c21b0e17579b3e0b684d24d251c535fbc2", "type": "witness_v0_keyhash"}, "value": 0.00083315, "n": 0}, {"scriptPubKey": {"reqSigs": 1, "hex": "76a9147ad6fe96f638619c747d2295068dba22c76c186c88ac", "addresses": ["1CCWzUytQvqHjA63GrBEp6LXbN6W6J4cbi"], "asm": "OP_DUP OP_HASH160 7ad6fe96f638619c747d2295068dba22c76c186c OP_EQUALVERIFY OP_CHECKSIG", "type": "pubkeyhash"}, "value": 0.00893555, "n": 1}], "hex": "010000000001015c850ca07532d33116c1136a534865b188143aac53c583048afd822c8aba651a0000000000ffffffff027345010000000000160014774151c21b0e17579b3e0b684d24d251c535fbc273a20d00000000001976a9147ad6fe96f638619c747d2295068dba22c76c186c88ac02483045022100806ada67145ec19ec0360d06f62af9cd0d0e016d62edb28a6cd7b0884aef9d010220615d3e82e16e233092c7ab00e98e7c38b06ce40f6201dbdb212b45d048ee57960121022cc0a0eb98c5e24575c60ffbd350237cf0224c62d01f996a7c9b013424ad1c2300000000", "vin": [{"txinwitness": ["3045022100806ada67145ec19ec0360d06f62af9cd0d0e016d62edb28a6cd7b0884aef9d010220615d3e82e16e233092c7ab00e98e7c38b06ce40f6201dbdb212b45d048ee579601", "022cc0a0eb98c5e24575c60ffbd350237cf0224c62d01f996a7c9b013424ad1c23"], "sequence": 4294967295, "scriptSig": {"hex": "", "asm": ""}, "vout": 0, "txid": "1a65ba8a2c82fd8a0483c553ac3a1488b16548536a13c11631d33275a00c855c"}], "txid": "0ad17c0b1fdfe7f3df03b7e801d6663500252e5cfe25430c0d280ccadca70648", "blocktime": 1537869901, "version": 1, "confirmations": 11523, "time": 1537869901, "locktime": 0, "vsize": 144, "size": 226}