{"hash": "02e7395a061df6dd38baaf70b20a10242fa83dfe82315b5cbd8e6f0408de87a2", "blockhash": "0000000000000000000baef3f32e3676a92c3b2e5da21b426e4f302fc371ce76", "vout": [{"scriptPubKey": {"reqSigs": 1, "hex": "76a9145765d151ed725076ca70edb9a867a436b6c7233a88ac", "addresses": ["18y7m72yCMavcJEG7DPQstZkUSUV5vt2hB"], "asm": "OP_DUP OP_HASH160 5765d151ed725076ca70edb9a867a436b6c7233a OP_EQUALVERIFY OP_CHECKSIG", "type": "pubkeyhash"}, "value": 0.0138126, "n": 0}, {"scriptPubKey": {"reqSigs": 1, "hex": "a914c69c64d68c1d4d00399d3e00aa062c9746d96d1687", "addresses": ["3KoB4xuiMdXrewktNT6qtdTEiswShN7ZSC"], "asm": "OP_HASH160 c69c64d68c1d4d00399d3e00aa062c9746d96d16 OP_EQUAL", "type": "scripthash"}, "value": 0.01028386, "n": 1}], "hex": "020000000001032ee2a0f431500c9a339fb565adee54823861a99066ef8e7e3212323fccf70c4e0b0000001716001403cd8b4d7b006acfe346524ab5d93f3283452cdefeffffffa6628ec25c2ffdf34205b983b1da5b976fdf08e743570a05e0a03423cef0de000000000017160014a436a764fa241b9728c5be2320bd5f8518d783eefeffffffdd7b841d42a91bfa5d25e173c0776191a848a2fa0a82a41ed19135901c17a6c7000000001716001444e39cfb8c80d77d911e8c58fb616a9051610bdcfeffffff028c131500000000001976a9145765d151ed725076ca70edb9a867a436b6c7233a88ac22b10f000000000017a914c69c64d68c1d4d00399d3e00aa062c9746d96d168702483045022100efc899b29663f92fb0bd7533d8cf8d86a3dbbd5c64094b69a42f2eea7153685002201ded5a4bfaf2b08222896a45b7998bd42d3791e2020237f3a725885a5761b7dc01210263fd8c7a8b11f2c2d793dd4d82a25552360ecb9a01cf9cfb00757367d7669bbc024730440220300947e770f9468bca4cfb16ba4d3110826a761116977fe8a0cf3b516a038c670220189ddd59a4b02aab3f9ca9967a4ed5f57b3de90153fdbaf9a9bbade32edd2278012103511108011a95deca0d15f76252f09a1b33e957c1fa477184dd905f8080d9df8902483045022100c21704b34c36b7b939441ce42ec1c4394c1dbc888b9265e12ab0d5a081794175022002543e39fbd11807571264b849c6b8ad7a5fb966f5c7b878da05c306c3bc5156012103a90a97aa359bfe75ed248ef25e69687bec9f1aaf52a30cb105601ee16e851d2817490800", "vin": [{"txinwitness": ["3045022100efc899b29663f92fb0bd7533d8cf8d86a3dbbd5c64094b69a42f2eea7153685002201ded5a4bfaf2b08222896a45b7998bd42d3791e2020237f3a725885a5761b7dc01", "0263fd8c7a8b11f2c2d793dd4d82a25552360ecb9a01cf9cfb00757367d7669bbc"], "sequence": 4294967294, "scriptSig": {"hex": "16001403cd8b4d7b006acfe346524ab5d93f3283452cde", "asm": "001403cd8b4d7b006acfe346524ab5d93f3283452cde"}, "vout": 11, "txid": "4e0cf7cc3f3212327e8eef6690a961388254eead65b59f339a0c5031f4a0e22e"}, {"txinwitness": ["30440220300947e770f9468bca4cfb16ba4d3110826a761116977fe8a0cf3b516a038c670220189ddd59a4b02aab3f9ca9967a4ed5f57b3de90153fdbaf9a9bbade32edd227801", "03511108011a95deca0d15f76252f09a1b33e957c1fa477184dd905f8080d9df89"], "sequence": 4294967294, "scriptSig": {"hex": "160014a436a764fa241b9728c5be2320bd5f8518d783ee", "asm": "0014a436a764fa241b9728c5be2320bd5f8518d783ee"}, "vout": 0, "txid": "00def0ce2334a0e0050a5743e708df6f975bdab183b90542f3fd2f5cc28e62a6"}, {"txinwitness": ["3045022100c21704b34c36b7b939441ce42ec1c4394c1dbc888b9265e12ab0d5a081794175022002543e39fbd11807571264b849c6b8ad7a5fb966f5c7b878da05c306c3bc515601", "03a90a97aa359bfe75ed248ef25e69687bec9f1aaf52a30cb105601ee16e851d28"], "sequence": 4294967294, "scriptSig": {"hex": "16001444e39cfb8c80d77d911e8c58fb616a9051610bdc", "asm": "001444e39cfb8c80d77d911e8c58fb616a9051610bdc"}, "vout": 0, "txid": "c7a6171c903591d11ea4820afaa248a8916177c073e1255dfa1ba9421d847bdd"}], "txid": "0ad91e0f7fcf190f7411870c7d8c5f56150333f87fbda535c4b0e2fe1a7a1b88", "blocktime": 1537876114, "version": 2, "confirmations": 11462, "time": 1537876114, "locktime": 542999, "vsize": 350, "size": 593}