{"hash": "0adee392474264781ddd2d4fd773cf6eff1a0430e23eba95a1bc07ff0685425d", "blockhash": "0000000000000000001f76057863aec43deb6fa401d9628bb513d65a8098bfab", "vout": [{"scriptPubKey": {"reqSigs": 1, "hex": "76a914becae44b72d7356a5181a190f40ab7a885c9d90488ac", "addresses": ["1JPpSchf35WBxkFkeP2iJpKWUZGSifQnfm"], "asm": "OP_DUP OP_HASH160 becae44b72d7356a5181a190f40ab7a885c9d904 OP_EQUALVERIFY OP_CHECKSIG", "type": "pubkeyhash"}, "value": 0.00081046, "n": 0}, {"scriptPubKey": {"reqSigs": 1, "hex": "a9142dc72728f1899489af9aa0fa4ff2c5013e86f0b587", "addresses": ["35s4uZqWJR1gdgn5YPre2EpxVHQnK9PpjS"], "asm": "OP_HASH160 2dc72728f1899489af9aa0fa4ff2c5013e86f0b5 OP_EQUAL", "type": "scripthash"}, "value": 0.039, "n": 1}], "hex": "01000000026e69a252bc9ec03ba2c988fba18d2d99880c9316d4de68ef87defd201f7cdcb4000000006b4830450221009f8ff5796c4acf4ad323a24fa00f65d51be39f547a4777e130c41cb6f1dbfbd502205a3fdb50e11f4eebb562f802a097d21dd1e8c9079cf1d995c59e86c641cd391c012102448c9a9828a25aa765c0d3ea3a90a3906a8c21c08ccbdffcd105e2155760e26ffdffffff22264bf66dba83eefccc790b58cbcdeb7abbdffe3a2ff207aa5c2f609355d1fe000000006b483045022100816eb0678a80a3adaa58feadf81d04297fcc9e3529889c359624b9a61293af89022078f97df7ce3c2da0c83222edd4e7d9c1d32455e6ea0d6df568c33f95c77264ec012102448c9a9828a25aa765c0d3ea3a90a3906a8c21c08ccbdffcd105e2155760e26ffdffffff02963c0100000000001976a914becae44b72d7356a5181a190f40ab7a885c9d90488ac60823b000000000017a9142dc72728f1899489af9aa0fa4ff2c5013e86f0b58714490800", "vin": [{"sequence": 4294967293, "scriptSig": {"hex": "4830450221009f8ff5796c4acf4ad323a24fa00f65d51be39f547a4777e130c41cb6f1dbfbd502205a3fdb50e11f4eebb562f802a097d21dd1e8c9079cf1d995c59e86c641cd391c012102448c9a9828a25aa765c0d3ea3a90a3906a8c21c08ccbdffcd105e2155760e26f", "asm": "30450221009f8ff5796c4acf4ad323a24fa00f65d51be39f547a4777e130c41cb6f1dbfbd502205a3fdb50e11f4eebb562f802a097d21dd1e8c9079cf1d995c59e86c641cd391c[ALL] 02448c9a9828a25aa765c0d3ea3a90a3906a8c21c08ccbdffcd105e2155760e26f"}, "vout": 0, "txid": "b4dc7c1f20fdde87ef68ded416930c88992d8da1fb88c9a23bc09ebc52a2696e"}, {"sequence": 4294967293, "scriptSig": {"hex": "483045022100816eb0678a80a3adaa58feadf81d04297fcc9e3529889c359624b9a61293af89022078f97df7ce3c2da0c83222edd4e7d9c1d32455e6ea0d6df568c33f95c77264ec012102448c9a9828a25aa765c0d3ea3a90a3906a8c21c08ccbdffcd105e2155760e26f", "asm": "3045022100816eb0678a80a3adaa58feadf81d04297fcc9e3529889c359624b9a61293af89022078f97df7ce3c2da0c83222edd4e7d9c1d32455e6ea0d6df568c33f95c77264ec[ALL] 02448c9a9828a25aa765c0d3ea3a90a3906a8c21c08ccbdffcd105e2155760e26f"}, "vout": 0, "txid": "fed15593602f5caa07f22f3afedfbb7aebcdcb580b79ccfcee83ba6df64b2622"}], "txid": "0adee392474264781ddd2d4fd773cf6eff1a0430e23eba95a1bc07ff0685425d", "blocktime": 1537873891, "version": 1, "confirmations": 11475, "time": 1537873891, "locktime": 542996, "vsize": 372, "size": 372}