{"hash": "a958983b3a8dfaabb0b1e0ecb638a3cc81ff52c8fd4f5b34acd9f00afa2c5bb6", "blockhash": "0000000000000000001cda96e906b7601b7a6fb1a3b62bca570a9e5d8f4b3de1", "vout": [{"scriptPubKey": {"reqSigs": 1, "hex": "76a91474bd75a03ab2fefbabd69e900f0970bf44519b8588ac", "addresses": ["1BeGM8PwmEALuabScwqn27LPmT4BanN9Um"], "asm": "OP_DUP OP_HASH160 74bd75a03ab2fefbabd69e900f0970bf44519b85 OP_EQUALVERIFY OP_CHECKSIG", "type": "pubkeyhash"}, "value": 0.0034646, "n": 0}, {"scriptPubKey": {"reqSigs": 1, "hex": "a91481a097cf134042b28263d03ee28fbecf19e1415e87", "addresses": ["3DWRUVDnQ7KzjoKZKRF44UrPfKsSNWK8qi"], "asm": "OP_HASH160 81a097cf134042b28263d03ee28fbecf19e1415e OP_EQUAL", "type": "scripthash"}, "value": 0.00998966, "n": 1}], "hex": "02000000000102ddc4747869d09bb76158827d32d9e1948821cdd9ce0ba624f8bea1762b46630f00000000171600147a21620a94448a3c450ee73e9bc928a275f94db7feffffffdf01e1088aea1506d73b11bd39bebaf85e1fa2c770a0bb06be26aee1869dfcc119000000171600143ca10c360d0498ea305ec249bff69eae4df7e417feffffff025c490500000000001976a91474bd75a03ab2fefbabd69e900f0970bf44519b8588ac363e0f000000000017a91481a097cf134042b28263d03ee28fbecf19e1415e870247304402205814782bcdb6a5bce93690ea07cb87b77d326e5cdb4d86dc3b4778f7509ddfff02204c2c729d6939eb3c4225a34545a8f9302c9d866fcc43e72091e20c6e49d182e30121029d2858bd6d020f6496fd8cf6ab55579a77d776b3efc5b7fb06573a6f456e2db402483045022100afc571f37a2a551c11f3e6a79d9a267a567a580d32d2fffea799854cbb9dc43802203c22a4450e77f479372157fb8329364e1586ead59b2a1bb5fee93eaf1d00fc420121039c97b3b30a3d71cf06ffc32415c4bff311cf7cfdf55fd15d1f757c345ea5141013490800", "vin": [{"txinwitness": ["304402205814782bcdb6a5bce93690ea07cb87b77d326e5cdb4d86dc3b4778f7509ddfff02204c2c729d6939eb3c4225a34545a8f9302c9d866fcc43e72091e20c6e49d182e301", "029d2858bd6d020f6496fd8cf6ab55579a77d776b3efc5b7fb06573a6f456e2db4"], "sequence": 4294967294, "scriptSig": {"hex": "1600147a21620a94448a3c450ee73e9bc928a275f94db7", "asm": "00147a21620a94448a3c450ee73e9bc928a275f94db7"}, "vout": 0, "txid": "0f63462b76a1bef824a60bced9cd218894e1d9327d825861b79bd0697874c4dd"}, {"txinwitness": ["3045022100afc571f37a2a551c11f3e6a79d9a267a567a580d32d2fffea799854cbb9dc43802203c22a4450e77f479372157fb8329364e1586ead59b2a1bb5fee93eaf1d00fc4201", "039c97b3b30a3d71cf06ffc32415c4bff311cf7cfdf55fd15d1f757c345ea51410"], "sequence": 4294967294, "scriptSig": {"hex": "1600143ca10c360d0498ea305ec249bff69eae4df7e417", "asm": "00143ca10c360d0498ea305ec249bff69eae4df7e417"}, "vout": 25, "txid": "c1fc9d86e1ae26be06bba070c7a21f5ef8babe39bd113bd70615ea8a08e101df"}], "txid": "0ae0bea50847d85d4150dd17f8a3bcd910187e6bfef67ba26d8b84cf0b37a489", "blocktime": 1537873282, "version": 2, "confirmations": 11484, "time": 1537873282, "locktime": 542995, "vsize": 259, "size": 421}