{"hash": "0afa8e49f1809a15355856049f099ab87689a38fe3a81945a7e7733ad1d53ca0", "blockhash": "00000000000000000017f5eb5941039fbcee6240d03bc1f2f8e35350df66a1d8", "vout": [{"scriptPubKey": {"reqSigs": 1, "hex": "76a9144e5cdfefc08b0085bf4aa912d40255ab887d290f88ac", "addresses": ["189Ly1o1UV8Q5teNvnruALW81t8QypwPzU"], "asm": "OP_DUP OP_HASH160 4e5cdfefc08b0085bf4aa912d40255ab887d290f OP_EQUALVERIFY OP_CHECKSIG", "type": "pubkeyhash"}, "value": 0.00633344, "n": 0}, {"scriptPubKey": {"type": "nulldata", "hex": "6a4c50000077f60001492ae4159f1ac9e1d165badfd19ed074892d00f8e87af8e8e963c7cfd5b9104f296b9e48a7b7787860fe9f867d7a5baa18b5061391692808a3361d100759d4ba30d2c37bb011d97e02cf", "asm": "OP_RETURN 000077f60001492ae4159f1ac9e1d165badfd19ed074892d00f8e87af8e8e963c7cfd5b9104f296b9e48a7b7787860fe9f867d7a5baa18b5061391692808a3361d100759d4ba30d2c37bb011d97e02cf"}, "value": 0.0, "n": 1}], "hex": "01000000011f110eaeaf14dee15d77ac64f6b31f9bb741143892bdb9864f25c417733ecb5e000000006a47304402205357c5c4046a40d9cc5ea5ea20ac1cc243be2bc25033b5f370d08eca2ce1f2d40220426d198dce6f7d1b5ca1e55ec22f2907dea702f976d21efc8be0f46508c9488a0121036730ec2bcc5b90833900cadaa33a10dd62e3e2a5a724e8da0da4c462d828cee7ffffffff0200aa0900000000001976a9144e5cdfefc08b0085bf4aa912d40255ab887d290f88ac0000000000000000536a4c50000077f60001492ae4159f1ac9e1d165badfd19ed074892d00f8e87af8e8e963c7cfd5b9104f296b9e48a7b7787860fe9f867d7a5baa18b5061391692808a3361d100759d4ba30d2c37bb011d97e02cf00000000", "vin": [{"sequence": 4294967295, "scriptSig": {"hex": "47304402205357c5c4046a40d9cc5ea5ea20ac1cc243be2bc25033b5f370d08eca2ce1f2d40220426d198dce6f7d1b5ca1e55ec22f2907dea702f976d21efc8be0f46508c9488a0121036730ec2bcc5b90833900cadaa33a10dd62e3e2a5a724e8da0da4c462d828cee7", "asm": "304402205357c5c4046a40d9cc5ea5ea20ac1cc243be2bc25033b5f370d08eca2ce1f2d40220426d198dce6f7d1b5ca1e55ec22f2907dea702f976d21efc8be0f46508c9488a[ALL] 036730ec2bcc5b90833900cadaa33a10dd62e3e2a5a724e8da0da4c462d828cee7"}, "vout": 0, "txid": "5ecb3e7317c4254f86b9bd92381441b79b1fb3f664ac775de1de14afae0e111f"}], "txid": "0afa8e49f1809a15355856049f099ab87689a38fe3a81945a7e7733ad1d53ca0", "blocktime": 1537874412, "version": 1, "confirmations": 11467, "time": 1537874412, "locktime": 0, "vsize": 283, "size": 283}