{"hash": "cbc786a71cdbf70d28d253364271650afe4b443da832ad86b73b6d95dac23d44", "blockhash": "00000000000000000017f5eb5941039fbcee6240d03bc1f2f8e35350df66a1d8", "vout": [{"scriptPubKey": {"reqSigs": 1, "hex": "a914c50743cab0f70d34a1b7f1c10d47dba2d9ca8ccf87", "addresses": ["3Keok6tQMHkXHJjWabWTunca4N3Q9ext8x"], "asm": "OP_HASH160 c50743cab0f70d34a1b7f1c10d47dba2d9ca8ccf OP_EQUAL", "type": "scripthash"}, "value": 0.67424382, "n": 0}, {"scriptPubKey": {"reqSigs": 1, "hex": "a91475bde3917516f7b56bfb942fa7e566cccd24d33687", "addresses": ["3CRaThhwxS3m1NnT2t5uZaLT7kdHfoYXcq"], "asm": "OP_HASH160 75bde3917516f7b56bfb942fa7e566cccd24d336 OP_EQUAL", "type": "scripthash"}, "value": 0.11580708, "n": 1}], "hex": "020000000001011c43627d1a1a032461a53016dca4c1bbe30bc32b06ac9c1953335c52387705c0000000001716001413bda784b93193897d7216dc589c04c3b12ea6c1feffffff027ed004040000000017a914c50743cab0f70d34a1b7f1c10d47dba2d9ca8ccf8724b5b0000000000017a91475bde3917516f7b56bfb942fa7e566cccd24d3368702473044022032c713b7739492d14def800666d4aa60efa2de3229a930b86a118041d83c2d3402206de9481f9c00bdc7d3c67f5a50eaf8cf6155cc023adefeacf50e3ceabe31c875012102fb196fc13ae81a74381b3e314a8f1c23d312b5a60c379593c87642c3c944304815490800", "vin": [{"txinwitness": ["3044022032c713b7739492d14def800666d4aa60efa2de3229a930b86a118041d83c2d3402206de9481f9c00bdc7d3c67f5a50eaf8cf6155cc023adefeacf50e3ceabe31c87501", "02fb196fc13ae81a74381b3e314a8f1c23d312b5a60c379593c87642c3c9443048"], "sequence": 4294967294, "scriptSig": {"hex": "16001413bda784b93193897d7216dc589c04c3b12ea6c1", "asm": "001413bda784b93193897d7216dc589c04c3b12ea6c1"}, "vout": 0, "txid": "c0057738525c3353199cac062bc30be3bbc1a4dc1630a56124031a1a7d62431c"}], "txid": "0afda71a15af4ed7bd969b534d627412117a5f01d19d24ed249b4b300d53a0c5", "blocktime": 1537874412, "version": 2, "confirmations": 11468, "time": 1537874412, "locktime": 542997, "vsize": 166, "size": 247}