{"hash": "0b002ca4bc5576dd7ba5aa3b33f5199b65193821d930d459c8da39018c523f1e", "blockhash": "000000000000000000022b45ed06c6f4ccd3cf7fb5ba4856ebd2e58215665228", "vout": [{"scriptPubKey": {"reqSigs": 1, "hex": "76a9144fac68895546fb02e0488df33ac72c29b2d622ba88ac", "addresses": ["18GGvJCHp4EkrKvXCo7PELSURsiuq3FnDf"], "asm": "OP_DUP OP_HASH160 4fac68895546fb02e0488df33ac72c29b2d622ba OP_EQUALVERIFY OP_CHECKSIG", "type": "pubkeyhash"}, "value": 0.0402, "n": 0}, {"scriptPubKey": {"reqSigs": 1, "hex": "76a914d5ba2eb2d52670fbe9522748bf642da754eb0d6f88ac", "addresses": ["1LV5y3NkVkmdWnF6xRCEXrAnUkRgge4KSq"], "asm": "OP_DUP OP_HASH160 d5ba2eb2d52670fbe9522748bf642da754eb0d6f OP_EQUALVERIFY OP_CHECKSIG", "type": "pubkeyhash"}, "value": 29.59181575, "n": 1}], "hex": "010000000136f8356999361e599a7d4d9472ed7f4e5435513d0a6b04b70c3ef9221b296c87010000006a47304402206ede4de5fd3e23db2a63953dc1b55640b35b308215245b339ca7b856280de2d402202dd47d497938ace2d12f72f0f582b2319192f047fcf58e86b691f97ff9535880012102c19ebc0e7fe714e24c55adaeebc7dbab2dc9a208b511bd1b6e83db85506d4d19ffffffff0220573d00000000001976a9144fac68895546fb02e0488df33ac72c29b2d622ba88ac078761b0000000001976a914d5ba2eb2d52670fbe9522748bf642da754eb0d6f88ac00000000", "vin": [{"sequence": 4294967295, "scriptSig": {"hex": "47304402206ede4de5fd3e23db2a63953dc1b55640b35b308215245b339ca7b856280de2d402202dd47d497938ace2d12f72f0f582b2319192f047fcf58e86b691f97ff9535880012102c19ebc0e7fe714e24c55adaeebc7dbab2dc9a208b511bd1b6e83db85506d4d19", "asm": "304402206ede4de5fd3e23db2a63953dc1b55640b35b308215245b339ca7b856280de2d402202dd47d497938ace2d12f72f0f582b2319192f047fcf58e86b691f97ff9535880[ALL] 02c19ebc0e7fe714e24c55adaeebc7dbab2dc9a208b511bd1b6e83db85506d4d19"}, "vout": 1, "txid": "876c291b22f93e0cb7046b0a3d5135544e7fed72944d7d9a591e36996935f836"}], "txid": "0b002ca4bc5576dd7ba5aa3b33f5199b65193821d930d459c8da39018c523f1e", "blocktime": 1537869901, "version": 1, "confirmations": 11523, "time": 1537869901, "locktime": 0, "vsize": 225, "size": 225}