{"hash": "baf993422953d8ef4f6987bd38ab37bf8c321ed76372351cdcda811283315728", "blockhash": "00000000000000000017f5eb5941039fbcee6240d03bc1f2f8e35350df66a1d8", "vout": [{"scriptPubKey": {"reqSigs": 1, "hex": "a91463b7e472a9291a5f69c3698fe089c6b0176f660287", "addresses": ["3AnH7bpWwsJa4HdWBjrA8oeDsJK33vXvct"], "asm": "OP_HASH160 63b7e472a9291a5f69c3698fe089c6b0176f6602 OP_EQUAL", "type": "scripthash"}, "value": 0.0144, "n": 0}, {"scriptPubKey": {"reqSigs": 1, "hex": "a9142761a11d6b7807d7e17840bf62bad3a28c18e5a487", "addresses": ["35HFERzMHEgwkx9h8bBcLkgqFf9G6eRbhu"], "asm": "OP_HASH160 2761a11d6b7807d7e17840bf62bad3a28c18e5a4 OP_EQUAL", "type": "scripthash"}, "value": 0.03258425, "n": 1}], "hex": "010000000001018618c868efe76e477891d655426b435363b18e1e470ba0e807481f1a8d59c4a70000000017160014a67fc50b45d40da438ed6bd9962206c2de73d668ffffffff0200f915000000000017a91463b7e472a9291a5f69c3698fe089c6b0176f66028739b831000000000017a9142761a11d6b7807d7e17840bf62bad3a28c18e5a487024730440220185b2c868db7ad71a8597fefbb6ad419c8fba22596cb5dd06b24db29ca8d0d4302202d05948356c8e80c3b4173dcd98f8ba9c65f878679428e832ed063213f97908f01210366ed639e459550dbe7ce0c380089fbcd17b4219a7fa35d853ecb10891b4993df00000000", "vin": [{"txinwitness": ["30440220185b2c868db7ad71a8597fefbb6ad419c8fba22596cb5dd06b24db29ca8d0d4302202d05948356c8e80c3b4173dcd98f8ba9c65f878679428e832ed063213f97908f01", "0366ed639e459550dbe7ce0c380089fbcd17b4219a7fa35d853ecb10891b4993df"], "sequence": 4294967295, "scriptSig": {"hex": "160014a67fc50b45d40da438ed6bd9962206c2de73d668", "asm": "0014a67fc50b45d40da438ed6bd9962206c2de73d668"}, "vout": 0, "txid": "a7c4598d1a1f4807e8a00b471e8eb16353436b4255d69178476ee7ef68c81886"}], "txid": "0b0163160a5983c9da8a14729854635d69cc1b9e650de2d0d900e291a16324d5", "blocktime": 1537874412, "version": 1, "confirmations": 11466, "time": 1537874412, "locktime": 0, "vsize": 166, "size": 247}