{"hash": "0b024570d7c0a280c27dd97830042997ef198158917760ae2a8b763aa7e3581f", "blockhash": "0000000000000000001f76057863aec43deb6fa401d9628bb513d65a8098bfab", "vout": [{"scriptPubKey": {"reqSigs": 1, "hex": "0014a502d955bdd925f59f2d3b6e5a05345fe3865419", "addresses": ["bc1q55pdj4damyjlt8ed8dh95pf5tl3cv4qes7wr02"], "asm": "0 a502d955bdd925f59f2d3b6e5a05345fe3865419", "type": "witness_v0_keyhash"}, "value": 1.313e-05, "n": 0}, {"scriptPubKey": {"reqSigs": 1, "hex": "a91407ba9f47f159947f33ac5d1a3b466a57c95069c187", "addresses": ["32PtDd8Zk8idVjnWogMdf8KqZWJfobw5zf"], "asm": "OP_HASH160 07ba9f47f159947f33ac5d1a3b466a57c95069c1 OP_EQUAL", "type": "scripthash"}, "value": 0.001, "n": 1}], "hex": "0100000001491b646b208feb207f1c48a4ad34e5f83940e60047da1c8f014418db9ae89ed1480000006b4830450221008bff480e5b41f93f82365681410e1fc4e03b8842423ee468ee7177a16ca5112402206cf34850e10f3f02b5c836fbef1169caa712e23d30b7cf2bbf6da1a463151de201210278dd2f83e1ca6fcb21ae3eb1c96e81989b39fb431fe7d912634a993609637471ffffffff022105000000000000160014a502d955bdd925f59f2d3b6e5a05345fe3865419a08601000000000017a91407ba9f47f159947f33ac5d1a3b466a57c95069c18700000000", "vin": [{"sequence": 4294967295, "scriptSig": {"hex": "4830450221008bff480e5b41f93f82365681410e1fc4e03b8842423ee468ee7177a16ca5112402206cf34850e10f3f02b5c836fbef1169caa712e23d30b7cf2bbf6da1a463151de201210278dd2f83e1ca6fcb21ae3eb1c96e81989b39fb431fe7d912634a993609637471", "asm": "30450221008bff480e5b41f93f82365681410e1fc4e03b8842423ee468ee7177a16ca5112402206cf34850e10f3f02b5c836fbef1169caa712e23d30b7cf2bbf6da1a463151de2[ALL] 0278dd2f83e1ca6fcb21ae3eb1c96e81989b39fb431fe7d912634a993609637471"}, "vout": 72, "txid": "d19ee89adb1844018f1cda4700e64039f8e534ada4481c7f20eb8f206b641b49"}], "txid": "0b024570d7c0a280c27dd97830042997ef198158917760ae2a8b763aa7e3581f", "blocktime": 1537873891, "version": 1, "confirmations": 11478, "time": 1537873891, "locktime": 0, "vsize": 221, "size": 221}