{"hash": "0b05397ceffbe6a3406396a7a14028331684ec27e08e5ae157524c47921b8405", "blockhash": "00000000000000000018f53835495a110e01622372bf6ae95dc86f2b0ab887b0", "vout": [{"scriptPubKey": {"reqSigs": 1, "hex": "a914adc5750a6c5877324899c3765b9fbf06494f574787", "addresses": ["3HXqNJ9jwLsNVMVdJ21dhHM2sUtcihV6Ny"], "asm": "OP_HASH160 adc5750a6c5877324899c3765b9fbf06494f5747 OP_EQUAL", "type": "scripthash"}, "value": 0.01269361, "n": 0}], "hex": "0100000001515ffdf1d8a3532f5062270c3fba7f6525bbe7db21a30a6febb2c1ae3c36e1d2000000006a47304402205deede083504537b094c191b202b7128886ed35fd2f54db8605e8b88db0708610220449f26b5d0c0a1ed6b2e0c9809312d3bea20c06e68a4d5961d25b408bdc80fa0012103e4ba361d9e75d9f1fb03747973d4896183febbedea3d24c5e5a1a40206ac0fb8ffffffff01715e13000000000017a914adc5750a6c5877324899c3765b9fbf06494f57478700000000", "vin": [{"sequence": 4294967295, "scriptSig": {"hex": "47304402205deede083504537b094c191b202b7128886ed35fd2f54db8605e8b88db0708610220449f26b5d0c0a1ed6b2e0c9809312d3bea20c06e68a4d5961d25b408bdc80fa0012103e4ba361d9e75d9f1fb03747973d4896183febbedea3d24c5e5a1a40206ac0fb8", "asm": "304402205deede083504537b094c191b202b7128886ed35fd2f54db8605e8b88db0708610220449f26b5d0c0a1ed6b2e0c9809312d3bea20c06e68a4d5961d25b408bdc80fa0[ALL] 03e4ba361d9e75d9f1fb03747973d4896183febbedea3d24c5e5a1a40206ac0fb8"}, "vout": 0, "txid": "d2e1363caec1b2eb6f0aa321dbe7bb25657fba3f0c2762502f53a3d8f1fd5f51"}], "txid": "0b05397ceffbe6a3406396a7a14028331684ec27e08e5ae157524c47921b8405", "blocktime": 1537870928, "version": 1, "confirmations": 11512, "time": 1537870928, "locktime": 0, "vsize": 189, "size": 189}