{"hash": "9d9369298ee542dfac5cb66f932e0494d361038f04881803cacbec2037fbf990", "blockhash": "0000000000000000001cda96e906b7601b7a6fb1a3b62bca570a9e5d8f4b3de1", "vout": [{"scriptPubKey": {"reqSigs": 1, "hex": "a9147c6c31a1ec9f66863b96dd5f4c399fcb27d3331487", "addresses": ["3D2uKmnvwGA7YxVaXgvWMJ9aRWHHoahzs5"], "asm": "OP_HASH160 7c6c31a1ec9f66863b96dd5f4c399fcb27d33314 OP_EQUAL", "type": "scripthash"}, "value": 0.01570014, "n": 0}, {"scriptPubKey": {"reqSigs": 1, "hex": "a914b00eaac290807444eff475e7b825a1c46f0d367287", "addresses": ["3HjvRPXDZkT5eKa5wM9W9zMx7CRCHfBaux"], "asm": "OP_HASH160 b00eaac290807444eff475e7b825a1c46f0d3672 OP_EQUAL", "type": "scripthash"}, "value": 0.00429403, "n": 1}], "hex": "02000000000101053b39e69331184aeec2f39b2ed966ff80989371ff76df2352b82873d90dfd3401000000171600147e3cdf6b5309d9ec42725d42ade753f57a9ad637fdffffff02def417000000000017a9147c6c31a1ec9f66863b96dd5f4c399fcb27d33314875b8d06000000000017a914b00eaac290807444eff475e7b825a1c46f0d36728702483045022100f9f4a6ef757916d1799a39c8ed8de6455ed73af806a2b21e6451f39260b3e08802207d57cb8327455a232886f5c18ef715e017b9da231c11f6615b129fdc5c32798d01210330181b95dc842af3837a2f09e5d2ffd842de31321a4316664000f0dca05eb0ad13490800", "vin": [{"txinwitness": ["3045022100f9f4a6ef757916d1799a39c8ed8de6455ed73af806a2b21e6451f39260b3e08802207d57cb8327455a232886f5c18ef715e017b9da231c11f6615b129fdc5c32798d01", "0330181b95dc842af3837a2f09e5d2ffd842de31321a4316664000f0dca05eb0ad"], "sequence": 4294967293, "scriptSig": {"hex": "1600147e3cdf6b5309d9ec42725d42ade753f57a9ad637", "asm": "00147e3cdf6b5309d9ec42725d42ade753f57a9ad637"}, "vout": 1, "txid": "34fd0dd97328b85223df76ff71939880ff66d92e9bf3c2ee4a183193e6393b05"}], "txid": "0b05d1c4ba2508863d6e1159789a18542227d8322593d05c66f0d06c1963f9ea", "blocktime": 1537873282, "version": 2, "confirmations": 11484, "time": 1537873282, "locktime": 542995, "vsize": 166, "size": 248}