{"hash": "0b0743cedcb7404f0b348b2ed1d132917dc399d378304c59173c69c00eacca14", "blockhash": "00000000000000000004ffacab907a6b429b9a5745fa0b75af4234bf69dd7176", "vout": [{"scriptPubKey": {"reqSigs": 1, "hex": "76a9146941e7b0c5366a4e72b8e191b5023e00f79b9b3b88ac", "addresses": ["1AbYuJg6PwQkG6UmzAxwiqhG9ZjRvPRcaX"], "asm": "OP_DUP OP_HASH160 6941e7b0c5366a4e72b8e191b5023e00f79b9b3b OP_EQUALVERIFY OP_CHECKSIG", "type": "pubkeyhash"}, "value": 0.01924, "n": 0}, {"scriptPubKey": {"reqSigs": 1, "hex": "a914e370231feecbfc25e2e2423a5a79bf79bfdca59887", "addresses": ["3NRbeX3vD5VaVE4TDU9ivCDsEf7NPPte6J"], "asm": "OP_HASH160 e370231feecbfc25e2e2423a5a79bf79bfdca598 OP_EQUAL", "type": "scripthash"}, "value": 2.83099939, "n": 1}], "hex": "01000000018eed7f05eef4f41cecb1093cd5cb2d08e65ce09cd32aae43d18628d9f14ca5ef01000000db00483045022100afae8b5e9d71e227a064ff44e60aa56251c1d4a357da2cd28defa7f7c926b4950220600a4152dd2e4214610e10d18e4c219f5e14483e206b99204df8fd97a76b0ea601483045022100c0e77d5715f6af7809c06ab072334033a5f06497565fdc3a91db3836b7d0f36c022029ae6d6e6d231013480335b34a617f91dba4780ed1aa6fcfac655fbe7dce7a90014752210327881b6abce6535553a3ce21fad12a7d74fd237ce7c4cd270a267162344e3082210256141f8eb687f5a68c5cc65054652dc25116fa285e44d72b44368827ffe77d9a52aeffffffff02a05b1d00000000001976a9146941e7b0c5366a4e72b8e191b5023e00f79b9b3b88ac23c3df100000000017a914e370231feecbfc25e2e2423a5a79bf79bfdca5988700000000", "vin": [{"sequence": 4294967295, "scriptSig": {"hex": "00483045022100afae8b5e9d71e227a064ff44e60aa56251c1d4a357da2cd28defa7f7c926b4950220600a4152dd2e4214610e10d18e4c219f5e14483e206b99204df8fd97a76b0ea601483045022100c0e77d5715f6af7809c06ab072334033a5f06497565fdc3a91db3836b7d0f36c022029ae6d6e6d231013480335b34a617f91dba4780ed1aa6fcfac655fbe7dce7a90014752210327881b6abce6535553a3ce21fad12a7d74fd237ce7c4cd270a267162344e3082210256141f8eb687f5a68c5cc65054652dc25116fa285e44d72b44368827ffe77d9a52ae", "asm": "0 3045022100afae8b5e9d71e227a064ff44e60aa56251c1d4a357da2cd28defa7f7c926b4950220600a4152dd2e4214610e10d18e4c219f5e14483e206b99204df8fd97a76b0ea6[ALL] 3045022100c0e77d5715f6af7809c06ab072334033a5f06497565fdc3a91db3836b7d0f36c022029ae6d6e6d231013480335b34a617f91dba4780ed1aa6fcfac655fbe7dce7a90[ALL] 52210327881b6abce6535553a3ce21fad12a7d74fd237ce7c4cd270a267162344e3082210256141f8eb687f5a68c5cc65054652dc25116fa285e44d72b44368827ffe77d9a52ae"}, "vout": 1, "txid": "efa54cf1d92886d143ae2ad39ce05ce6082dcbd53c09b1ec1cf4f4ee057fed8e"}], "txid": "0b0743cedcb7404f0b348b2ed1d132917dc399d378304c59173c69c00eacca14", "blocktime": 1537875543, "version": 1, "confirmations": 11464, "time": 1537875543, "locktime": 0, "vsize": 336, "size": 336}