{"hash": "0d2d41d40fa758c0a5d440f913b7b66e6c30f62dd297ba1cfd783ba49fe4ad1e", "blockhash": "0000000000000000000dcc0f55137456b1a82d3642486a52398922ac4d620174", "vout": [{"scriptPubKey": {"reqSigs": 1, "hex": "a914fd6832f3c36433fb8843a6677ded219b128519c187", "addresses": ["3QnuhxCXZjwdBYfxj4Lf8Toc8HQcbCrDpZ"], "asm": "OP_HASH160 fd6832f3c36433fb8843a6677ded219b128519c1 OP_EQUAL", "type": "scripthash"}, "value": 0.0014, "n": 0}, {"scriptPubKey": {"reqSigs": 1, "hex": "a914627aa52932456d89054bd84f86246af3b71b93a887", "addresses": ["3Afj4stdiLG9EktGrMbm252ySonnhYaz8v"], "asm": "OP_HASH160 627aa52932456d89054bd84f86246af3b71b93a8 OP_EQUAL", "type": "scripthash"}, "value": 0.53983535, "n": 1}], "hex": "01000000000101148bba23f75199b206cff82d78dde9945668b408352db515d413bc5e7ce7625001000000232200205fdd641234b13964b223bd85ad2a4a667ca2099df3d42a1d3b45706a8d81abf0ffffffff02e02202000000000017a914fd6832f3c36433fb8843a6677ded219b128519c1872fb937030000000017a914627aa52932456d89054bd84f86246af3b71b93a88704004730440220707e775033d4bb33023470c3bea1a3fadd65d5b2ffbc23df1e1e35815a7b6e54022022730f803a74326bffb267c207c7d3b95036bed38cbd4862ae3448e416aca2ea01473044022004e9e0d98a5483b044c52d7f3f903e272b9ae5080b30ddddb708a54c41584a2c02201d012dc5c7af9c653f9b8b6e9a4648565bf02a84521345a1a83eaebcbfc2fc210147522103dcde3832fa56def7b4e783faad1b8af85c3cdd74a5ff4f3c7c216b1075c18da12103c70ae8ded79be1afda73b9ce5ea14a3878908ee160d66a9a717e792bb6db276952ae00000000", "vin": [{"txinwitness": ["", "30440220707e775033d4bb33023470c3bea1a3fadd65d5b2ffbc23df1e1e35815a7b6e54022022730f803a74326bffb267c207c7d3b95036bed38cbd4862ae3448e416aca2ea01", "3044022004e9e0d98a5483b044c52d7f3f903e272b9ae5080b30ddddb708a54c41584a2c02201d012dc5c7af9c653f9b8b6e9a4648565bf02a84521345a1a83eaebcbfc2fc2101", "522103dcde3832fa56def7b4e783faad1b8af85c3cdd74a5ff4f3c7c216b1075c18da12103c70ae8ded79be1afda73b9ce5ea14a3878908ee160d66a9a717e792bb6db276952ae"], "sequence": 4294967295, "scriptSig": {"hex": "2200205fdd641234b13964b223bd85ad2a4a667ca2099df3d42a1d3b45706a8d81abf0", "asm": "00205fdd641234b13964b223bd85ad2a4a667ca2099df3d42a1d3b45706a8d81abf0"}, "vout": 1, "txid": "5062e77c5ebc13d415b52d3508b4685694e9dd782df8cf06b29951f723ba8b14"}], "txid": "0b0c1c37238bd17bd428fadeea0b32ea70fc7ca384dfae2b0b453868fdd9b556", "blocktime": 1537870268, "version": 1, "confirmations": 11518, "time": 1537870268, "locktime": 0, "vsize": 205, "size": 370}