{"hash": "0b0ce74beaa288f65a27b19315599c3c9464bc6e0b19910f4a2d5aac9adb0a1c", "blockhash": "00000000000000000017f5eb5941039fbcee6240d03bc1f2f8e35350df66a1d8", "vout": [{"scriptPubKey": {"reqSigs": 1, "hex": "76a9140a6b825daa1b89f8e100ed8eec6d79b592500f4988ac", "addresses": ["1x6YnuBVeeE65dQRZztRWgUPwyBjHCA5g"], "asm": "OP_DUP OP_HASH160 0a6b825daa1b89f8e100ed8eec6d79b592500f49 OP_EQUALVERIFY OP_CHECKSIG", "type": "pubkeyhash"}, "value": 0.44439614, "n": 0}, {"scriptPubKey": {"reqSigs": 1, "hex": "76a914bf9b330f7780f07baa833536a1eca91727605fb288ac", "addresses": ["1JU7z62uTndHJDwj7uve9uPykw2TcQ7PZa"], "asm": "OP_DUP OP_HASH160 bf9b330f7780f07baa833536a1eca91727605fb2 OP_EQUALVERIFY OP_CHECKSIG", "type": "pubkeyhash"}, "value": 5.46e-06, "n": 1}, {"scriptPubKey": {"type": "nulldata", "hex": "6a146f6d6e69000000000000001f00001032e87e4ac0", "asm": "OP_RETURN 6f6d6e69000000000000001f00001032e87e4ac0"}, "value": 0.0, "n": 2}], "hex": "01000000019ce29d519d0a8281bfe994fb25a0c92622e29c06510988c814a6b481491c1a65000000006b483045022100a9d596d54b2797638ea2531c86e70079c9f5a9faea4cedbdc445f71754ad50f8022059422e3e5d7dbe13443cc53eca065ba5f7c6f2ed8bdd22c2813cfa8778147915012103fe02b06a6bfd9b5a83e0417430a3235a39a0b4c7973591ca27ac58f6474d9120ffffffff033e18a602000000001976a9140a6b825daa1b89f8e100ed8eec6d79b592500f4988ac22020000000000001976a914bf9b330f7780f07baa833536a1eca91727605fb288ac0000000000000000166a146f6d6e69000000000000001f00001032e87e4ac000000000", "vin": [{"sequence": 4294967295, "scriptSig": {"hex": "483045022100a9d596d54b2797638ea2531c86e70079c9f5a9faea4cedbdc445f71754ad50f8022059422e3e5d7dbe13443cc53eca065ba5f7c6f2ed8bdd22c2813cfa8778147915012103fe02b06a6bfd9b5a83e0417430a3235a39a0b4c7973591ca27ac58f6474d9120", "asm": "3045022100a9d596d54b2797638ea2531c86e70079c9f5a9faea4cedbdc445f71754ad50f8022059422e3e5d7dbe13443cc53eca065ba5f7c6f2ed8bdd22c2813cfa8778147915[ALL] 03fe02b06a6bfd9b5a83e0417430a3235a39a0b4c7973591ca27ac58f6474d9120"}, "vout": 0, "txid": "651a1c4981b4a614c8880951069ce22226c9a025fb94e9bf81820a9d519de29c"}], "txid": "0b0ce74beaa288f65a27b19315599c3c9464bc6e0b19910f4a2d5aac9adb0a1c", "blocktime": 1537874412, "version": 1, "confirmations": 11466, "time": 1537874412, "locktime": 0, "vsize": 257, "size": 257}