{"hash": "0b0dbec3be3312e3621ad3757669639fb40ce487b4e417218bf512e6cab7e3b8", "blockhash": "00000000000000000017f5eb5941039fbcee6240d03bc1f2f8e35350df66a1d8", "vout": [{"scriptPubKey": {"reqSigs": 1, "hex": "76a914b7decabcf98fa2af0011a86aac718136975b63ef88ac", "addresses": ["1HmDYxizCLAQBtof7qEwJnVuTzV3e2deT5"], "asm": "OP_DUP OP_HASH160 b7decabcf98fa2af0011a86aac718136975b63ef OP_EQUALVERIFY OP_CHECKSIG", "type": "pubkeyhash"}, "value": 0.01005856, "n": 0}, {"scriptPubKey": {"reqSigs": 1, "hex": "a9148a5b41b7276e07d13a11813b26ae93901340104287", "addresses": ["3EJaVeFcpBopkr5NViuWbu73UqFk45pFLt"], "asm": "OP_HASH160 8a5b41b7276e07d13a11813b26ae939013401042 OP_EQUAL", "type": "scripthash"}, "value": 0.04615202, "n": 1}], "hex": "0200000002bd6df33b3195723c90f830ac7a5f37353c06286f49356ca758d915ef825fd2d1000000006a47304402206430741baca53f9facbf83a0a1762483c6473d40f2be5dd0bf8d04024ea5f9e002206b1f1fd374bc4540ca94db0ef6583aa18995db03b81c4747db8be92179a16b000121029dc7bb9aa2164d08572e83ddf03e31c5363921391df8729a3c6b2b44454dccf4feffffff91deae56a7f83bdb9ba4ae5e2245652d844d019380e1a68ec3ccaec3e6e82426010000006a473044022018a717c6f6b8e9012dc5701560b407ca48d6b24bdd413dbf9b75c5cb788b525e022011dc97958eeee086fad602a368801784580a8aedee7edd81e6c7888adb9c339a012103b6e5b8f9a0673c614651438577f6283e310f128d182d92a2ca3069909b33e1c3feffffff0220590f00000000001976a914b7decabcf98fa2af0011a86aac718136975b63ef88ac226c46000000000017a9148a5b41b7276e07d13a11813b26ae9390134010428714490800", "vin": [{"sequence": 4294967294, "scriptSig": {"hex": "47304402206430741baca53f9facbf83a0a1762483c6473d40f2be5dd0bf8d04024ea5f9e002206b1f1fd374bc4540ca94db0ef6583aa18995db03b81c4747db8be92179a16b000121029dc7bb9aa2164d08572e83ddf03e31c5363921391df8729a3c6b2b44454dccf4", "asm": "304402206430741baca53f9facbf83a0a1762483c6473d40f2be5dd0bf8d04024ea5f9e002206b1f1fd374bc4540ca94db0ef6583aa18995db03b81c4747db8be92179a16b00[ALL] 029dc7bb9aa2164d08572e83ddf03e31c5363921391df8729a3c6b2b44454dccf4"}, "vout": 0, "txid": "d1d25f82ef15d958a76c35496f28063c35375f7aac30f8903c7295313bf36dbd"}, {"sequence": 4294967294, "scriptSig": {"hex": "473044022018a717c6f6b8e9012dc5701560b407ca48d6b24bdd413dbf9b75c5cb788b525e022011dc97958eeee086fad602a368801784580a8aedee7edd81e6c7888adb9c339a012103b6e5b8f9a0673c614651438577f6283e310f128d182d92a2ca3069909b33e1c3", "asm": "3044022018a717c6f6b8e9012dc5701560b407ca48d6b24bdd413dbf9b75c5cb788b525e022011dc97958eeee086fad602a368801784580a8aedee7edd81e6c7888adb9c339a[ALL] 03b6e5b8f9a0673c614651438577f6283e310f128d182d92a2ca3069909b33e1c3"}, "vout": 1, "txid": "2624e8e6c3aeccc38ea6e18093014d842d6545225eaea49bdb3bf8a756aede91"}], "txid": "0b0dbec3be3312e3621ad3757669639fb40ce487b4e417218bf512e6cab7e3b8", "blocktime": 1537874412, "version": 2, "confirmations": 11466, "time": 1537874412, "locktime": 542996, "vsize": 370, "size": 370}