{"hash": "0b1a3ca85a6c761f3c10bdd6297cdedf378e44ad2bb2853b8c68823207413e05", "blockhash": "0000000000000000000e13cef7c366c0283d82e591d1acd082e914b08063cdf1", "vout": [{"scriptPubKey": {"reqSigs": 1, "hex": "a914cc1b57cb23a999ac6269ffaef82f611ed397244e87", "addresses": ["3LJEXVr7JywNAts8F9zYx9qNtY7hk3jA4r"], "asm": "OP_HASH160 cc1b57cb23a999ac6269ffaef82f611ed397244e OP_EQUAL", "type": "scripthash"}, "value": 0.0185, "n": 0}, {"scriptPubKey": {"reqSigs": 1, "hex": "76a914bb7dfb7a26ebe83600ac76b9c16b9c41228091dc88ac", "addresses": ["1J6NHH8vfUfeXEzDUQiXJUg6BqKfRFiMWB"], "asm": "OP_DUP OP_HASH160 bb7dfb7a26ebe83600ac76b9c16b9c41228091dc OP_EQUALVERIFY OP_CHECKSIG", "type": "pubkeyhash"}, "value": 0.03424546, "n": 1}, {"scriptPubKey": {"reqSigs": 1, "hex": "76a914a2649164cb1de5d534d1bacb7b5ac63c75dc3b9788ac", "addresses": ["1FoewfGYjZ9RXSR8aHB5tb4vYCD8Jakjh7"], "asm": "OP_DUP OP_HASH160 a2649164cb1de5d534d1bacb7b5ac63c75dc3b97 OP_EQUALVERIFY OP_CHECKSIG", "type": "pubkeyhash"}, "value": 2.933918, "n": 2}], "hex": "0200000001a9f073c140b7f9bb13480ce0b536d9a21113b6a1d48c08727e8d0e836fe9b4fc050000006a47304402203ee08ed6768b99d2f7a7d35c4ccb433e96ef997a2aef678b95cc55608033a0e4022078bebeaa41575139ef1c511beb6f870335ccdc857fb90a0e52d3886cb4de8d1501210347fa795ad70093140126033e58e47c961a546015f02d1b132bb6b98920c1ad66ffffffff03903a1c000000000017a914cc1b57cb23a999ac6269ffaef82f611ed397244e8722413400000000001976a914bb7dfb7a26ebe83600ac76b9c16b9c41228091dc88acb8cd7c11000000001976a914a2649164cb1de5d534d1bacb7b5ac63c75dc3b9788ac00000000", "vin": [{"sequence": 4294967295, "scriptSig": {"hex": "47304402203ee08ed6768b99d2f7a7d35c4ccb433e96ef997a2aef678b95cc55608033a0e4022078bebeaa41575139ef1c511beb6f870335ccdc857fb90a0e52d3886cb4de8d1501210347fa795ad70093140126033e58e47c961a546015f02d1b132bb6b98920c1ad66", "asm": "304402203ee08ed6768b99d2f7a7d35c4ccb433e96ef997a2aef678b95cc55608033a0e4022078bebeaa41575139ef1c511beb6f870335ccdc857fb90a0e52d3886cb4de8d15[ALL] 0347fa795ad70093140126033e58e47c961a546015f02d1b132bb6b98920c1ad66"}, "vout": 5, "txid": "fcb4e96f830e8d7e72088cd4a1b61311a2d936b5e00c4813bbf9b740c173f0a9"}], "txid": "0b1a3ca85a6c761f3c10bdd6297cdedf378e44ad2bb2853b8c68823207413e05", "blocktime": 1537871767, "version": 2, "confirmations": 11491, "time": 1537871767, "locktime": 0, "vsize": 257, "size": 257}