{"hash": "daf1487bc6dfb9cd9cf3aab9866e1d691f9d5f6c60ad2572cb5d11b3166f9071", "blockhash": "00000000000000000024a2167bbff67b0be802c0b01cdd79e6331c2be6459f87", "vout": [{"scriptPubKey": {"reqSigs": 1, "hex": "a9144b225e9ac3911882960098234ed2b1222fff8f6b87", "addresses": ["38YHmyAXW665AY32mdwTuodFCEHEwJ8hjC"], "asm": "OP_HASH160 4b225e9ac3911882960098234ed2b1222fff8f6b OP_EQUAL", "type": "scripthash"}, "value": 0.00023803, "n": 0}, {"scriptPubKey": {"reqSigs": 1, "hex": "a9141ef8828e72d72a8314b0fdbc8ce10f0401d6c02387", "addresses": ["34Wmu5KFTd5pDR1V8Av7UaatVTurdjpoPU"], "asm": "OP_HASH160 1ef8828e72d72a8314b0fdbc8ce10f0401d6c023 OP_EQUAL", "type": "scripthash"}, "value": 0.00235579, "n": 1}], "hex": "01000000000101053d975d7ef3d47f9c58906876ddf2902195b88fc482311d8cea88f70f2bc3880600000023220020e0b6457c89caa8596820c62381c2009d628f3a36c52eadf413267f9bc6e1a31affffffff02fb5c00000000000017a9144b225e9ac3911882960098234ed2b1222fff8f6b873b9803000000000017a9141ef8828e72d72a8314b0fdbc8ce10f0401d6c023870400483045022100a2671ab07dcd6633d6ab08d9aba8c750bc8ed071a60271557725c881a907952b02203b8f9bf0a34c8beba0b9d3ceb4a9b3c97c8327855961c04c4cd0a607752f49240147304402207610130bd6732d0f4daa5280054edf00c50e44e4b5d6e56c1031372f9e47498102207ced6275f15143fbc0220c87c61495bc9a597908a640794dc75ea727927ded1f0147522102662df3c75a4f151bb0d69b086cd19ab6764e52eeb055398aa45f450439053f512103871fc2ca08e6950b38867e8e6a0e94ee625223d3aa0df5c65f414c6d784467e252ae00000000", "vin": [{"txinwitness": ["", "3045022100a2671ab07dcd6633d6ab08d9aba8c750bc8ed071a60271557725c881a907952b02203b8f9bf0a34c8beba0b9d3ceb4a9b3c97c8327855961c04c4cd0a607752f492401", "304402207610130bd6732d0f4daa5280054edf00c50e44e4b5d6e56c1031372f9e47498102207ced6275f15143fbc0220c87c61495bc9a597908a640794dc75ea727927ded1f01", "522102662df3c75a4f151bb0d69b086cd19ab6764e52eeb055398aa45f450439053f512103871fc2ca08e6950b38867e8e6a0e94ee625223d3aa0df5c65f414c6d784467e252ae"], "sequence": 4294967295, "scriptSig": {"hex": "220020e0b6457c89caa8596820c62381c2009d628f3a36c52eadf413267f9bc6e1a31a", "asm": "0020e0b6457c89caa8596820c62381c2009d628f3a36c52eadf413267f9bc6e1a31a"}, "vout": 6, "txid": "88c32b0ff788ea8c1d3182c48fb8952190f2dd766890589c7fd4f37e5d973d05"}], "txid": "0b2c381726ecf54692b3d5ef29e0fc5430990fb131f4692179e613c9228fb9e4", "blocktime": 1537870564, "version": 1, "confirmations": 11515, "time": 1537870564, "locktime": 0, "vsize": 206, "size": 371}