{"hash": "0b36133b1605cf8d7d630f4de0b3eaf5e5507079975ec39d10c4891f04246ee3", "blockhash": "0000000000000000000baef3f32e3676a92c3b2e5da21b426e4f302fc371ce76", "vout": [{"scriptPubKey": {"reqSigs": 1, "hex": "76a914e6962286383f160b1aa73f9413a78c388720ab2d88ac", "addresses": ["1N2EGg6HHMqxQXgvETvY566DxkYkCfELri"], "asm": "OP_DUP OP_HASH160 e6962286383f160b1aa73f9413a78c388720ab2d OP_EQUALVERIFY OP_CHECKSIG", "type": "pubkeyhash"}, "value": 2.97048608, "n": 0}, {"scriptPubKey": {"reqSigs": 1, "hex": "76a9144540ed64c8a6991759cc7e6ee97d6d546ee869dc88ac", "addresses": ["17KBQTzzqQKxRCAsWD8EUH9yF9zWhDAfAE"], "asm": "OP_DUP OP_HASH160 4540ed64c8a6991759cc7e6ee97d6d546ee869dc OP_EQUALVERIFY OP_CHECKSIG", "type": "pubkeyhash"}, "value": 0.17957554, "n": 1}], "hex": "0200000001a08a63adac8bd9502f7d4781a15c1e8144f64cbc7bab1ce25955800ee419f7a6010000006a47304402203510148ded832d1343e89d22faa1c1488acf1c549b2981b09692282115bf3ab402202fd4eb556d7a2d614b8703a450814e9a808b0f80986ba4710bcb9a2b23ea966401210272f00e964fc7192ca284c5d9459f3345180140fe670dfdc1201584197ebb21f8feffffff02209ab411000000001976a914e6962286383f160b1aa73f9413a78c388720ab2d88acb2021201000000001976a9144540ed64c8a6991759cc7e6ee97d6d546ee869dc88ac17490800", "vin": [{"sequence": 4294967294, "scriptSig": {"hex": "47304402203510148ded832d1343e89d22faa1c1488acf1c549b2981b09692282115bf3ab402202fd4eb556d7a2d614b8703a450814e9a808b0f80986ba4710bcb9a2b23ea966401210272f00e964fc7192ca284c5d9459f3345180140fe670dfdc1201584197ebb21f8", "asm": "304402203510148ded832d1343e89d22faa1c1488acf1c549b2981b09692282115bf3ab402202fd4eb556d7a2d614b8703a450814e9a808b0f80986ba4710bcb9a2b23ea9664[ALL] 0272f00e964fc7192ca284c5d9459f3345180140fe670dfdc1201584197ebb21f8"}, "vout": 1, "txid": "a6f719e40e805559e21cab7bbc4cf644811e5ca181477d2f50d98bacad638aa0"}], "txid": "0b36133b1605cf8d7d630f4de0b3eaf5e5507079975ec39d10c4891f04246ee3", "blocktime": 1537876114, "version": 2, "confirmations": 11460, "time": 1537876114, "locktime": 542999, "vsize": 225, "size": 225}