{"hash": "ee8760b4448a86e78c9ecbcdcc6ad94309a24f6afbab78d9d60fc08da8d721d2", "blockhash": "0000000000000000000e13cef7c366c0283d82e591d1acd082e914b08063cdf1", "vout": [{"scriptPubKey": {"reqSigs": 1, "hex": "a9142c33d4a7d16032a0057966936fe339982cd2e29687", "addresses": ["35ijkF5HMPotFoBiNc7emF2pgLtZYBDTt5"], "asm": "OP_HASH160 2c33d4a7d16032a0057966936fe339982cd2e296 OP_EQUAL", "type": "scripthash"}, "value": 0.00329567, "n": 0}, {"scriptPubKey": {"reqSigs": 1, "hex": "a914412a5a9d44d5834123b7756088f409b7b3a36da687", "addresses": ["37daapNiiDgPEaARWMQCfhGXJo4yF1nTaW"], "asm": "OP_HASH160 412a5a9d44d5834123b7756088f409b7b3a36da6 OP_EQUAL", "type": "scripthash"}, "value": 0.02343356, "n": 1}], "hex": "010000000001027b7e57aa48f10540750dd89a4aec64603bee17ac29de3bc118f7e52308791c36010000002322002048aa73a7b7633e620a1bd23cd12c6b43d6409feaca46d8c41a2ab9be45193571ffffffff8afb9d515b917667782764d3c7dff188de7b43af97fb3eb73d37c6e641910fa0010000002322002083f5850b1b9ae687f7cf8d5c77fefcbd87cde420155cd43c20d50f5f293b7ed6ffffffff025f0705000000000017a9142c33d4a7d16032a0057966936fe339982cd2e29687bcc123000000000017a914412a5a9d44d5834123b7756088f409b7b3a36da68704004730440220626615ff6ff7fa46ed07be0352b956aabe7c0e2cb54aa09aeb36778e75e1d65602203a800eb84abcb3790ef252bf500206d4d178523b07744a297fc89db8ac6f1f7c01483045022100852e6e1e1cdb0707dfd5fadd57c4af150812230a9ba09f204e4dd6c84e49ab1f022022fc5071ee376e05843fe561015cb67b84dd209b143623f586924966d75de8620147522103d9627eca6b6a406d71acb9691965ad65ba1c0d8322fd66b4be1b8ef0e08b29d62103871fc2ca08e6950b38867e8e6a0e94ee625223d3aa0df5c65f414c6d784467e252ae040047304402203acd108426c668f52e4191c1f32bd417f8ce3cf597893a426f99a1de5e79e6c0022037a3ce292af06085ebc596b801b36a96b5fa61e3b60118670bb6da1e3f37871601483045022100e0868108eb24a77e6e9e2c4ca0450f028e144333236ce1b32e2a51bacbb7cfef022059f3002a839363b4cfdb32a0aa0fb2af3db39406806f6ea50a693d82b9a0cc4801475221020511070566b8412d1941b8dc0ded10caa6a6915b609dfa65bb8111255071d3a22103871fc2ca08e6950b38867e8e6a0e94ee625223d3aa0df5c65f414c6d784467e252ae00000000", "vin": [{"txinwitness": ["", "30440220626615ff6ff7fa46ed07be0352b956aabe7c0e2cb54aa09aeb36778e75e1d65602203a800eb84abcb3790ef252bf500206d4d178523b07744a297fc89db8ac6f1f7c01", "3045022100852e6e1e1cdb0707dfd5fadd57c4af150812230a9ba09f204e4dd6c84e49ab1f022022fc5071ee376e05843fe561015cb67b84dd209b143623f586924966d75de86201", "522103d9627eca6b6a406d71acb9691965ad65ba1c0d8322fd66b4be1b8ef0e08b29d62103871fc2ca08e6950b38867e8e6a0e94ee625223d3aa0df5c65f414c6d784467e252ae"], "sequence": 4294967295, "scriptSig": {"hex": "22002048aa73a7b7633e620a1bd23cd12c6b43d6409feaca46d8c41a2ab9be45193571", "asm": "002048aa73a7b7633e620a1bd23cd12c6b43d6409feaca46d8c41a2ab9be45193571"}, "vout": 1, "txid": "361c790823e5f718c13bde29ac17ee3b6064ec4a9ad80d754005f148aa577e7b"}, {"txinwitness": ["", "304402203acd108426c668f52e4191c1f32bd417f8ce3cf597893a426f99a1de5e79e6c0022037a3ce292af06085ebc596b801b36a96b5fa61e3b60118670bb6da1e3f37871601", "3045022100e0868108eb24a77e6e9e2c4ca0450f028e144333236ce1b32e2a51bacbb7cfef022059f3002a839363b4cfdb32a0aa0fb2af3db39406806f6ea50a693d82b9a0cc4801", "5221020511070566b8412d1941b8dc0ded10caa6a6915b609dfa65bb8111255071d3a22103871fc2ca08e6950b38867e8e6a0e94ee625223d3aa0df5c65f414c6d784467e252ae"], "sequence": 4294967295, "scriptSig": {"hex": "22002083f5850b1b9ae687f7cf8d5c77fefcbd87cde420155cd43c20d50f5f293b7ed6", "asm": "002083f5850b1b9ae687f7cf8d5c77fefcbd87cde420155cd43c20d50f5f293b7ed6"}, "vout": 1, "txid": "a00f9141e6c6373db73efb97af437bde88f1dfc7d36427786776915b519dfb8a"}], "txid": "0b393e79d8f441858bb3f5227c940cec12876b9ecbd01694c9a7c56b12e637a2", "blocktime": 1537871767, "version": 1, "confirmations": 11495, "time": 1537871767, "locktime": 0, "vsize": 336, "size": 666}