{"hash": "0b3c3ae8e11c5f9396d55de9166dcc9be43a7cc5d4e3025e517d061ea92e9436", "blockhash": "000000000000000000022b45ed06c6f4ccd3cf7fb5ba4856ebd2e58215665228", "vout": [{"scriptPubKey": {"reqSigs": 1, "hex": "76a91492ed482c7fbd71b3c630fd193b0e2fff42971e3688ac", "addresses": ["1EPsuePmPrtAiFce96apqG2xyyUsjd4u3Z"], "asm": "OP_DUP OP_HASH160 92ed482c7fbd71b3c630fd193b0e2fff42971e36 OP_EQUALVERIFY OP_CHECKSIG", "type": "pubkeyhash"}, "value": 0.31017518, "n": 0}, {"scriptPubKey": {"reqSigs": 1, "hex": "a91469f374ae5128c7f5d3513740ee1c2811a8af6f7d87", "addresses": ["3BMEXHoGCzvR5BdHie6DKnn4Hh7AmuoZ5q"], "asm": "OP_HASH160 69f374ae5128c7f5d3513740ee1c2811a8af6f7d OP_EQUAL", "type": "scripthash"}, "value": 0.01562256, "n": 1}], "hex": "01000000013ca1f8f57370bd65dcdbf3f91142e24ab28bc7b0fb9bf5fd7f3fbc2a538b7ead000000006b483045022100dcc60205bf630bf1f4ad0343b48781d74b0d1e291f4791f81b9d3df6485cb5ac02207a7b217255d8afe4ad0a912bb3e0731c9370fe345a5e18920e9dc11d7742a92e012103c799380153d01488dc70c1568726b987affad78f5114bc7d944066c2a0354861ffffffff022e4ad901000000001976a91492ed482c7fbd71b3c630fd193b0e2fff42971e3688ac90d617000000000017a91469f374ae5128c7f5d3513740ee1c2811a8af6f7d8700000000", "vin": [{"sequence": 4294967295, "scriptSig": {"hex": "483045022100dcc60205bf630bf1f4ad0343b48781d74b0d1e291f4791f81b9d3df6485cb5ac02207a7b217255d8afe4ad0a912bb3e0731c9370fe345a5e18920e9dc11d7742a92e012103c799380153d01488dc70c1568726b987affad78f5114bc7d944066c2a0354861", "asm": "3045022100dcc60205bf630bf1f4ad0343b48781d74b0d1e291f4791f81b9d3df6485cb5ac02207a7b217255d8afe4ad0a912bb3e0731c9370fe345a5e18920e9dc11d7742a92e[ALL] 03c799380153d01488dc70c1568726b987affad78f5114bc7d944066c2a0354861"}, "vout": 0, "txid": "ad7e8b532abc3f7ffdf59bfbb0c78bb24ae24211f9f3dbdc65bd7073f5f8a13c"}], "txid": "0b3c3ae8e11c5f9396d55de9166dcc9be43a7cc5d4e3025e517d061ea92e9436", "blocktime": 1537869901, "version": 1, "confirmations": 11524, "time": 1537869901, "locktime": 0, "vsize": 224, "size": 224}