{"hash": "65a3875ae93625606c6b06429e776fbf197a6de94bb6e004c896e163b9bb6842", "blockhash": "0000000000000000000e13cef7c366c0283d82e591d1acd082e914b08063cdf1", "vout": [{"scriptPubKey": {"reqSigs": 1, "hex": "76a9141291b6f1fcbc02bdf93196cf6859dff01ca1aa1c88ac", "addresses": ["12hBitDAw4Bbg8LfPTjHryDVMam8vKogS8"], "asm": "OP_DUP OP_HASH160 1291b6f1fcbc02bdf93196cf6859dff01ca1aa1c OP_EQUALVERIFY OP_CHECKSIG", "type": "pubkeyhash"}, "value": 0.0031746, "n": 0}, {"scriptPubKey": {"reqSigs": 1, "hex": "a91461b4e8a0eb6b7fefb3c9116176d99c383b1a6f1587", "addresses": ["3AbeBueX1ZsUbaTdtHr6PefvsvQw2tThav"], "asm": "OP_HASH160 61b4e8a0eb6b7fefb3c9116176d99c383b1a6f15 OP_EQUAL", "type": "scripthash"}, "value": 0.00999581, "n": 1}], "hex": "0200000000010236fd1bade1380815b1acd413ce2aceb720b9cc05ba44f0d08e680bb5162eea55100000001716001460a79cabb639b97e6c085d7dc0d6a5bda28041adfeffffff43e5c7bb321888a747084f7fa574d9a160e9cd3889e10a214c554dec6f46599a010000001716001434fe3bef290d7ddfca0e43e0a6c9da0bc041191ffeffffff0214d80400000000001976a9141291b6f1fcbc02bdf93196cf6859dff01ca1aa1c88ac9d400f000000000017a91461b4e8a0eb6b7fefb3c9116176d99c383b1a6f1587024730440220786946f46ae8e9621030c43557367677e1530e116bf6c78f7c17ce23349e8b2e022019b95e4b71a2570765b345090aa24bb5bc70d3ed954c649a740e1759099fe0d0012102b2a225c9de9011ce370682270559d91dcbecd62e5d87b8aede7d4ae829298679024730440220688e38cbaab7c233fc572b010736b8a78fa7bbed0fe99de1ef8a95dffd4c185d0220237dba7dd025d859e28cfca5dceed081f1a0ae8b432493007178339ac112a94e012102d1b189968dfdcc691b7b1759ff2bb4da3b4df167d41e4adfc2772716a5e55d7e10490800", "vin": [{"txinwitness": ["30440220786946f46ae8e9621030c43557367677e1530e116bf6c78f7c17ce23349e8b2e022019b95e4b71a2570765b345090aa24bb5bc70d3ed954c649a740e1759099fe0d001", "02b2a225c9de9011ce370682270559d91dcbecd62e5d87b8aede7d4ae829298679"], "sequence": 4294967294, "scriptSig": {"hex": "16001460a79cabb639b97e6c085d7dc0d6a5bda28041ad", "asm": "001460a79cabb639b97e6c085d7dc0d6a5bda28041ad"}, "vout": 16, "txid": "55ea2e16b50b688ed0f044ba05ccb920b7ce2ace13d4acb1150838e1ad1bfd36"}, {"txinwitness": ["30440220688e38cbaab7c233fc572b010736b8a78fa7bbed0fe99de1ef8a95dffd4c185d0220237dba7dd025d859e28cfca5dceed081f1a0ae8b432493007178339ac112a94e01", "02d1b189968dfdcc691b7b1759ff2bb4da3b4df167d41e4adfc2772716a5e55d7e"], "sequence": 4294967294, "scriptSig": {"hex": "16001434fe3bef290d7ddfca0e43e0a6c9da0bc041191f", "asm": "001434fe3bef290d7ddfca0e43e0a6c9da0bc041191f"}, "vout": 1, "txid": "9a59466fec4d554c210ae18938cde960a1d974a57f4f0847a7881832bbc7e543"}], "txid": "0b3e0632099b639b1134a752a6309351561fbea027208d4e1818d7fa838856d6", "blocktime": 1537871767, "version": 2, "confirmations": 11495, "time": 1537871767, "locktime": 542992, "vsize": 258, "size": 420}