{"hash": "618b3bb95e39ccaebe8856f783f8c7f598c88bcb7f3e75cca0fb1b87e2d0bb44", "blockhash": "0000000000000000000baef3f32e3676a92c3b2e5da21b426e4f302fc371ce76", "vout": [{"scriptPubKey": {"reqSigs": 1, "hex": "a914272123fc3d6e9bdd2ac0ebd29cced1a269bbd2e787", "addresses": ["35FuyfwMbffvuoBqvtwVLrG72vxLFQqWpK"], "asm": "OP_HASH160 272123fc3d6e9bdd2ac0ebd29cced1a269bbd2e7 OP_EQUAL", "type": "scripthash"}, "value": 0.61535502, "n": 0}, {"scriptPubKey": {"reqSigs": 1, "hex": "a9140747f84d16ba53fb398425c2e7a3faf47699d2a887", "addresses": ["32MWsSkG1B51BZ7aHgd1aSKiQGvP4LrtW2"], "asm": "OP_HASH160 0747f84d16ba53fb398425c2e7a3faf47699d2a8 OP_EQUAL", "type": "scripthash"}, "value": 0.00438471, "n": 1}], "hex": "0100000000010125c5139cf6856085bad2c95f215f5868669208a273177b127097040abc358fd80100000023220020236d1fabc691282937f69ef66a60555ad1572e99c441e7629d88b5c77eafac02ffffffff020ef5aa030000000017a914272123fc3d6e9bdd2ac0ebd29cced1a269bbd2e787c7b006000000000017a9140747f84d16ba53fb398425c2e7a3faf47699d2a88704004830450221009d844f2ee800c636e27ae659cef06d9d901023521ceb8e68f067d8beef10a19902207478b17da49711112124c6054cd84b1194d4aca9ea83de396c820d1760bc21c801483045022100df5b4860bcceeb65320eec584199c98db0a6c405a5bbf8b99105f9572a765b00022054fbffcdb955e01a4dd3554b830f7922593e356441b16e81a11795f57ca1cb5301695221022ef40f409b30c3b121b08bc711c7bd6eb8816337d95e1dda06a50226e5602f652102b1fc7e79993b7f4eabbb6f35265bb8f911759c232d20f7d7981488ca4489c9e9210376f3a15cb3e4b366b1d86d68236aab4a068f35f7e786e1b2209ed86bbc63b51553ae00000000", "vin": [{"txinwitness": ["", "30450221009d844f2ee800c636e27ae659cef06d9d901023521ceb8e68f067d8beef10a19902207478b17da49711112124c6054cd84b1194d4aca9ea83de396c820d1760bc21c801", "3045022100df5b4860bcceeb65320eec584199c98db0a6c405a5bbf8b99105f9572a765b00022054fbffcdb955e01a4dd3554b830f7922593e356441b16e81a11795f57ca1cb5301", "5221022ef40f409b30c3b121b08bc711c7bd6eb8816337d95e1dda06a50226e5602f652102b1fc7e79993b7f4eabbb6f35265bb8f911759c232d20f7d7981488ca4489c9e9210376f3a15cb3e4b366b1d86d68236aab4a068f35f7e786e1b2209ed86bbc63b51553ae"], "sequence": 4294967295, "scriptSig": {"hex": "220020236d1fabc691282937f69ef66a60555ad1572e99c441e7629d88b5c77eafac02", "asm": "0020236d1fabc691282937f69ef66a60555ad1572e99c441e7629d88b5c77eafac02"}, "vout": 1, "txid": "d88f35bc0a049770127b1773a208926668585f215fc9d2ba856085f69c13c525"}], "txid": "0b467bfb7073799cea0e77062238ee02146e118710e56d2a6c05714388ebc19d", "blocktime": 1537876114, "version": 1, "confirmations": 11460, "time": 1537876114, "locktime": 0, "vsize": 214, "size": 406}