{"hash": "b88d9910e9c850fec17f94dde92dd1829c0e12e587090d9395960292db3d1434", "blockhash": "00000000000000000017f5eb5941039fbcee6240d03bc1f2f8e35350df66a1d8", "vout": [{"scriptPubKey": {"reqSigs": 1, "hex": "a91438981d90ecd1fc07bd472529d11ad4457593244587", "addresses": ["36rFzTQ9ux1k55PRZZuNHBj5nCXZ1eajVV"], "asm": "OP_HASH160 38981d90ecd1fc07bd472529d11ad44575932445 OP_EQUAL", "type": "scripthash"}, "value": 0.4996, "n": 0}, {"scriptPubKey": {"reqSigs": 1, "hex": "76a914cebb2851a9c7cfe2582c12ecaf7f3ff4383d1dc088ac", "addresses": ["1Kr6QSydW9bFQG1mXiPNNu6WpJGmUa9i1g"], "asm": "OP_DUP OP_HASH160 cebb2851a9c7cfe2582c12ecaf7f3ff4383d1dc0 OP_EQUALVERIFY OP_CHECKSIG", "type": "pubkeyhash"}, "value": 37.32245379, "n": 1}], "hex": "02000000000104f9de42a14bead13e3932765b584853739632f6ec84ee29d50de827877c0fd1d0010000006a4730440220694c3464293db0c955adac69b547d479a7293a7755a23f47a467d8ad9c86d0320220102bb44689202a869e502c36708f5efe62193e80b76ca3e2d68ffcff771706d3012103786af4b32017ec640dba2d2a7e1fd5aa4a231a658e4cbc114d51c031576e19bcffffffffbfb74be6c1590f3e41eab6b27177afd133fac1af681ff8b8ab2c93c31d452754000000006b483045022100939bc98f8fa107e8869019ff482342957fb75df46c93f0a8c4ae96b61066c802022046838a79913ce1ced70ceec80d28f050fea61c5e4abdc8999006b7f985e4c271012103327e1ea06cac98f83f5f852ec2f223d1a37bef6dc80cd7e3ef1b337b7f8dfa5cffffffff1e83b7dcba019383f2c41d41b7aeff0d6a52c4e1d995411d8b974ec360623f65000000006a47304402201a1aaa04b7baaa265f5108c1ba127b1e04b4a849074afc5876df9ccd9a63a805022016712e10e4be0cae5e0e5eded596bee36c89ea6bd059bed276b4d6d5f3800817012102f0f07e23ac2f6d22a8db20ca29e9f0b7646d009882e0607eb5f74db51f69cd75ffffffff96bf6cda5c845e96b3fa6d83664a734e772b46bb192a1a97b22b399bb2f21de70100000017160014efa602ddb24e16c62aade3584480354cb5cac957ffffffff024054fa020000000017a91438981d90ecd1fc07bd472529d11ad4457593244587838b75de000000001976a914cebb2851a9c7cfe2582c12ecaf7f3ff4383d1dc088ac0000000247304402203e7cb1c48f5eef1f9004086cf8bcbf37649219fa42b9a096b130d57039274f4f022050020cfaa075b537d1907ca8be77fd454af9585dc0cd8ec786bbfb56587b31ca0121027d55f4733cd1c7f7337b3170c1af9d3fdb9910fe48b3a2cee311c7e29678bbfb00000000", "vin": [{"sequence": 4294967295, "scriptSig": {"hex": "4730440220694c3464293db0c955adac69b547d479a7293a7755a23f47a467d8ad9c86d0320220102bb44689202a869e502c36708f5efe62193e80b76ca3e2d68ffcff771706d3012103786af4b32017ec640dba2d2a7e1fd5aa4a231a658e4cbc114d51c031576e19bc", "asm": "30440220694c3464293db0c955adac69b547d479a7293a7755a23f47a467d8ad9c86d0320220102bb44689202a869e502c36708f5efe62193e80b76ca3e2d68ffcff771706d3[ALL] 03786af4b32017ec640dba2d2a7e1fd5aa4a231a658e4cbc114d51c031576e19bc"}, "vout": 1, "txid": "d0d10f7c8727e80dd529ee84ecf63296735348585b7632393ed1ea4ba142def9"}, {"sequence": 4294967295, "scriptSig": {"hex": "483045022100939bc98f8fa107e8869019ff482342957fb75df46c93f0a8c4ae96b61066c802022046838a79913ce1ced70ceec80d28f050fea61c5e4abdc8999006b7f985e4c271012103327e1ea06cac98f83f5f852ec2f223d1a37bef6dc80cd7e3ef1b337b7f8dfa5c", "asm": "3045022100939bc98f8fa107e8869019ff482342957fb75df46c93f0a8c4ae96b61066c802022046838a79913ce1ced70ceec80d28f050fea61c5e4abdc8999006b7f985e4c271[ALL] 03327e1ea06cac98f83f5f852ec2f223d1a37bef6dc80cd7e3ef1b337b7f8dfa5c"}, "vout": 0, "txid": "5427451dc3932cabb8f81f68afc1fa33d1af7771b2b6ea413e0f59c1e64bb7bf"}, {"sequence": 4294967295, "scriptSig": {"hex": "47304402201a1aaa04b7baaa265f5108c1ba127b1e04b4a849074afc5876df9ccd9a63a805022016712e10e4be0cae5e0e5eded596bee36c89ea6bd059bed276b4d6d5f3800817012102f0f07e23ac2f6d22a8db20ca29e9f0b7646d009882e0607eb5f74db51f69cd75", "asm": "304402201a1aaa04b7baaa265f5108c1ba127b1e04b4a849074afc5876df9ccd9a63a805022016712e10e4be0cae5e0e5eded596bee36c89ea6bd059bed276b4d6d5f3800817[ALL] 02f0f07e23ac2f6d22a8db20ca29e9f0b7646d009882e0607eb5f74db51f69cd75"}, "vout": 0, "txid": "653f6260c34e978b1d4195d9e1c4526a0dffaeb7411dc4f2839301badcb7831e"}, {"txinwitness": ["304402203e7cb1c48f5eef1f9004086cf8bcbf37649219fa42b9a096b130d57039274f4f022050020cfaa075b537d1907ca8be77fd454af9585dc0cd8ec786bbfb56587b31ca01", "027d55f4733cd1c7f7337b3170c1af9d3fdb9910fe48b3a2cee311c7e29678bbfb"], "sequence": 4294967295, "scriptSig": {"hex": "160014efa602ddb24e16c62aade3584480354cb5cac957", "asm": "0014efa602ddb24e16c62aade3584480354cb5cac957"}, "vout": 1, "txid": "e71df2b29b392bb2971a2a19bb462b774e734a66836dfab3965e845cda6cbf96"}], "txid": "0b5068c4d6d1f52a1f14bce1e25d9b907bc36c7f91a8df6722aaf295e27768f8", "blocktime": 1537874412, "version": 2, "confirmations": 11467, "time": 1537874412, "locktime": 0, "vsize": 610, "size": 694}