{"hash": "0ec35959fcc7be047a42055111167eee2c432a525e3de8ea881589f5f896d682", "blockhash": "0000000000000000001cda96e906b7601b7a6fb1a3b62bca570a9e5d8f4b3de1", "vout": [{"scriptPubKey": {"reqSigs": 1, "hex": "76a91499c8f068260704583fa4e140cb4858c3bfaaadaa88ac", "addresses": ["1F296qsx71jThPdRRtxi3LqZwz9V1SGw7S"], "asm": "OP_DUP OP_HASH160 99c8f068260704583fa4e140cb4858c3bfaaadaa OP_EQUALVERIFY OP_CHECKSIG", "type": "pubkeyhash"}, "value": 0.01370499, "n": 0}, {"scriptPubKey": {"reqSigs": 1, "hex": "a91411c419fb5f4855bf7646100aeb6117c8df496e2c87", "addresses": ["33JxLB8HWQVbtsZccD4KcrJr7DEmHG7y69"], "asm": "OP_HASH160 11c419fb5f4855bf7646100aeb6117c8df496e2c OP_EQUAL", "type": "scripthash"}, "value": 0.01216412, "n": 1}], "hex": "020000000001014a1adfcb1209d36384fa842e2c127906fe84c7626829fcdef07ebd4c0ad91ef40100000017160014405f3905bf2580b8c40a221d924cf19394d8feccffffffff0283e91400000000001976a91499c8f068260704583fa4e140cb4858c3bfaaadaa88ac9c8f12000000000017a91411c419fb5f4855bf7646100aeb6117c8df496e2c87024830450221008cf7eb4e963537af61a76cfe0c1f8303f02a5cdf0448d82363ec3689118d88b00220202d45337a8d8848063a2c7197961fc7b16b8b6bfec9d346b913505d861dc2130121020189ed1c21e77584f448a101dc6cc364188ff09a25946fef3fbd5a4fb0d316f500000000", "vin": [{"txinwitness": ["30450221008cf7eb4e963537af61a76cfe0c1f8303f02a5cdf0448d82363ec3689118d88b00220202d45337a8d8848063a2c7197961fc7b16b8b6bfec9d346b913505d861dc21301", "020189ed1c21e77584f448a101dc6cc364188ff09a25946fef3fbd5a4fb0d316f5"], "sequence": 4294967295, "scriptSig": {"hex": "160014405f3905bf2580b8c40a221d924cf19394d8fecc", "asm": "0014405f3905bf2580b8c40a221d924cf19394d8fecc"}, "vout": 1, "txid": "f41ed90a4cbd7ef0defc296862c784fe0679122c2e84fa8463d30912cbdf1a4a"}], "txid": "0b53d8f241404f80a037ae1ebd84676aa29436032d1ea06e5045ec17d816ebb9", "blocktime": 1537873282, "version": 2, "confirmations": 11481, "time": 1537873282, "locktime": 0, "vsize": 168, "size": 250}