{"hash": "0b5c6a7d23edb3bfc9ea3e0f25bb217c024a40eb4362b8b75ed7a6dc2672d66f", "blockhash": "00000000000000000024a2167bbff67b0be802c0b01cdd79e6331c2be6459f87", "vout": [{"scriptPubKey": {"reqSigs": 1, "hex": "76a9149d4fcdf13822f52c85deed90c6ea12af8d24b1af88ac", "addresses": ["1FLnh2fDb9tzjqaNuTvDqWTDfA1w88sYFk"], "asm": "OP_DUP OP_HASH160 9d4fcdf13822f52c85deed90c6ea12af8d24b1af OP_EQUALVERIFY OP_CHECKSIG", "type": "pubkeyhash"}, "value": 0.195, "n": 0}, {"scriptPubKey": {"reqSigs": 1, "hex": "76a91410e50b1f2ff5afaf37dd43fe134791be21755d3e88ac", "addresses": ["12YLCHdqyumc5eXhoQqHb17ee8iqaYrdcX"], "asm": "OP_DUP OP_HASH160 10e50b1f2ff5afaf37dd43fe134791be21755d3e OP_EQUALVERIFY OP_CHECKSIG", "type": "pubkeyhash"}, "value": 0.01905915, "n": 1}], "hex": "0200000002ce83639d0652f75c4c603850b74947d3b504f587ea33304c7e5177afcfe3339b000000006b483045022100cf40778bdb2a19dedf38ff3a1379dd079b4fa7bf8eb8b630cd1cfe0e8af001e40220423d82ee80b925de2aeb20510231485c14f6d15ba7dfe5da311960f8a9ec0b450121038c3fdb5ac2ac3388526da5d7e98745b1c61d7200e16448972677a2192a444f76fefffffffeda71b9cc3fa3f26b9c8aaf1a2cb393bab663e95e8c8e961005dec37dcff352000000006b483045022100a04f84c4285c123dbae805fd66c7804d3548ca02964c5c9aa5d1b8d24c0fdb1202202f2ec27815ab0d96d4512be5da9c370a9542a783ef13d330767607cb4285bce6012103a13545cab557c43346e8b74bc36ca45a18b707b096b999211ec9437069bbdd7afeffffff02e08b2901000000001976a9149d4fcdf13822f52c85deed90c6ea12af8d24b1af88acfb141d00000000001976a91410e50b1f2ff5afaf37dd43fe134791be21755d3e88ac00000000", "vin": [{"sequence": 4294967294, "scriptSig": {"hex": "483045022100cf40778bdb2a19dedf38ff3a1379dd079b4fa7bf8eb8b630cd1cfe0e8af001e40220423d82ee80b925de2aeb20510231485c14f6d15ba7dfe5da311960f8a9ec0b450121038c3fdb5ac2ac3388526da5d7e98745b1c61d7200e16448972677a2192a444f76", "asm": "3045022100cf40778bdb2a19dedf38ff3a1379dd079b4fa7bf8eb8b630cd1cfe0e8af001e40220423d82ee80b925de2aeb20510231485c14f6d15ba7dfe5da311960f8a9ec0b45[ALL] 038c3fdb5ac2ac3388526da5d7e98745b1c61d7200e16448972677a2192a444f76"}, "vout": 0, "txid": "9b33e3cfaf77517e4c3033ea87f504b5d34749b75038604c5cf752069d6383ce"}, {"sequence": 4294967294, "scriptSig": {"hex": "483045022100a04f84c4285c123dbae805fd66c7804d3548ca02964c5c9aa5d1b8d24c0fdb1202202f2ec27815ab0d96d4512be5da9c370a9542a783ef13d330767607cb4285bce6012103a13545cab557c43346e8b74bc36ca45a18b707b096b999211ec9437069bbdd7a", "asm": "3045022100a04f84c4285c123dbae805fd66c7804d3548ca02964c5c9aa5d1b8d24c0fdb1202202f2ec27815ab0d96d4512be5da9c370a9542a783ef13d330767607cb4285bce6[ALL] 03a13545cab557c43346e8b74bc36ca45a18b707b096b999211ec9437069bbdd7a"}, "vout": 0, "txid": "52f3cf7dc3de0510968e8c5ee963b6ba93b32c1aaf8a9c6bf2a33fccb971dafe"}], "txid": "0b5c6a7d23edb3bfc9ea3e0f25bb217c024a40eb4362b8b75ed7a6dc2672d66f", "blocktime": 1537870564, "version": 2, "confirmations": 11515, "time": 1537870564, "locktime": 0, "vsize": 374, "size": 374}