{"hash": "0b601f59e4d53c35482d38ba089ee01d94045a77a6315c729070be3f1625bfb7", "blockhash": "0000000000000000000e13cef7c366c0283d82e591d1acd082e914b08063cdf1", "vout": [{"scriptPubKey": {"reqSigs": 1, "hex": "76a9145a8b63b1a5a1622758c79b0f9a9d4cae6fdfe67a88ac", "addresses": ["19FkoDJSvwRwLdYGJ98fHsURtzDky2Mfse"], "asm": "OP_DUP OP_HASH160 5a8b63b1a5a1622758c79b0f9a9d4cae6fdfe67a OP_EQUALVERIFY OP_CHECKSIG", "type": "pubkeyhash"}, "value": 0.0021, "n": 0}, {"scriptPubKey": {"reqSigs": 1, "hex": "76a9147f2bf1edfdf6cfd51e2ce6f49f1c19b5359d964388ac", "addresses": ["1CbRTibhsDVBw2pvPn37zj4Jp71BYRaSBm"], "asm": "OP_DUP OP_HASH160 7f2bf1edfdf6cfd51e2ce6f49f1c19b5359d9643 OP_EQUALVERIFY OP_CHECKSIG", "type": "pubkeyhash"}, "value": 10.78991574, "n": 1}], "hex": "0200000001868f3c6099f839936aed5dceea242482c4a96c3dcbf8f58775adb0f8fc762252010000006b4830450221008a1951bc0d8579023f04559601f5f2c6f9d103e494e9ad9754dcab118884135d02203aba9f36de159bcec2ca934892b7194ae91681458e51affa3345f5cd40ae8fd3012102a3bfc480f524dd2bd1f44aeb1913a7d618ec97663df614af75a7bb045f08da49ffffffff0250340300000000001976a9145a8b63b1a5a1622758c79b0f9a9d4cae6fdfe67a88acd61a5040000000001976a9147f2bf1edfdf6cfd51e2ce6f49f1c19b5359d964388ac00000000", "vin": [{"sequence": 4294967295, "scriptSig": {"hex": "4830450221008a1951bc0d8579023f04559601f5f2c6f9d103e494e9ad9754dcab118884135d02203aba9f36de159bcec2ca934892b7194ae91681458e51affa3345f5cd40ae8fd3012102a3bfc480f524dd2bd1f44aeb1913a7d618ec97663df614af75a7bb045f08da49", "asm": "30450221008a1951bc0d8579023f04559601f5f2c6f9d103e494e9ad9754dcab118884135d02203aba9f36de159bcec2ca934892b7194ae91681458e51affa3345f5cd40ae8fd3[ALL] 02a3bfc480f524dd2bd1f44aeb1913a7d618ec97663df614af75a7bb045f08da49"}, "vout": 1, "txid": "522276fcf8b0ad7587f5f8cb3d6ca9c4822424eace5ded6a9339f899603c8f86"}], "txid": "0b601f59e4d53c35482d38ba089ee01d94045a77a6315c729070be3f1625bfb7", "blocktime": 1537871767, "version": 2, "confirmations": 11491, "time": 1537871767, "locktime": 0, "vsize": 226, "size": 226}