{"hash": "9fe133d2e13d042dca4e16e2c2352792f02f2952b78eb45231bb189a10aef951", "blockhash": "0000000000000000000e13cef7c366c0283d82e591d1acd082e914b08063cdf1", "vout": [{"scriptPubKey": {"reqSigs": 1, "hex": "76a9140492dfa59bc33dd8d49eaf75bee5f301d29c79f588ac", "addresses": ["1RBej5EKHLwpfn6v73X1i7Wy75KCUQJqe"], "asm": "OP_DUP OP_HASH160 0492dfa59bc33dd8d49eaf75bee5f301d29c79f5 OP_EQUALVERIFY OP_CHECKSIG", "type": "pubkeyhash"}, "value": 0.79838, "n": 0}, {"scriptPubKey": {"reqSigs": 1, "hex": "a914bbba37f40cb545bcad4ce84c10733be66d166e0487", "addresses": ["3JodN7GmkHdPgKj9G7HCkn9NDLhrcWCjVN"], "asm": "OP_HASH160 bbba37f40cb545bcad4ce84c10733be66d166e04 OP_EQUAL", "type": "scripthash"}, "value": 0.0556767, "n": 1}], "hex": "0200000000010a85abdb631e2b6c416091c34d1dd8d182f1bf32760387c14878eda2fa5b81fb850200000017160014a45f9d74e7ac4aeb4dd0101f75fcfe92b4de8f7fffffffffb37000b3d71cf2a6c12ca42fffc2bb7290102160dd753f92315f41e360e93bcc01000000171600146d745985ecdf4be830d56030a69634ac249759f5ffffffff72e273146bfcafd0ac53233e86fabd8221495d90dbfcb47e80e2431f3edbb465010000001716001421d900734b2ce2ab6618bde8c013800059f1e32dffffffffaea48332cb1d411af8bd5470dabdd243ba09057fcaa65f46d3a9663610d8e79d00000000171600146d745985ecdf4be830d56030a69634ac249759f5ffffffff2ee5c1db8e7494ccb3632fa7be96208f67f86db51ee6503f85fb2bf3d08ebfc205000000171600149b89a8cc480ed71b88dea59e0acf148806af9220ffffffff35afe038d87b008126f44ea7a9dbb290ff25f53b210de6f9f02378c3d944002c0200000017160014f5b8c7f6d1288d616d453168f3f35fc6fdfe5e3cffffffff518c68cdefeff3b256bd335659a2e920fb4f34947580248237f7e4b3ba8796420100000017160014931f946e43d3d83f5a9345f454e00377153a246cffffffff16921e014a4c197a197024a5c097c57a5d8e4016ffa1e5bc1537314d051801db0100000017160014e8c883114703748d6cc4779e9e7877c5cc210accffffffff0506f24f341894045448f8fc54b427305601cc7db8b4e50b8fcfa63ccf0f5cb20000000017160014a9acce272f27c13b049c02af8c26d0197d6f809cffffffff080e02f72edcd87c7764a453f2387e55a8f64feb5b3f469259479621c062b2720000000017160014980df07bf875df1b402109b2f4340312ba202f26ffffffff02303bc204000000001976a9140492dfa59bc33dd8d49eaf75bee5f301d29c79f588acb6f454000000000017a914bbba37f40cb545bcad4ce84c10733be66d166e04870247304402204de55c44de445b8bab508c01af26d77632d52c56597fc31240169ac7db68fb6002207fc68208cd2f5321f8e3c5dcd30a646e0b154f190c921e491732c37428a936fd012103f79f7ba2fdb9000181205930428f8228d04d8b78eb028ff6dc8034ab55a371f602483045022100c8cd0963a4099362409d2318e0292496c6a01cb18b971dc749c5c7444be509d002203a5e1f4c2e79f535e7001e975882c8eb7427ae986d1bd6f2dc0877406ab49dc60121034fcf5108caa90593203e50668548dc1e509fecb50ce4c9253cca74e298bb18f102473044022018f61438dc4e1666ff946d6333c06e75fbde802609572a9f583eb0452ac4c00302201b43c7049e25d9b0a8d8dec15d53906b0ab9552faa1808cc0e96b5698e3e1550012103489c725b39c4090b054d12823f1a3c0f25828b84c7f8a68e435725d90fa289ec0247304402201fbaf0fcfdaf16017dd8d8b784a5ff08c6efa592e1766049c467ec18ea7b9a3f0220152acd5e5f96f83bd7b1120d6d4fd89f4d58173c3a6e9c2b257cbd585392db030121034fcf5108caa90593203e50668548dc1e509fecb50ce4c9253cca74e298bb18f102483045022100a11ca99b301e2bc48b5ed61c9266b722118545150ce873bccbc214f34565076402206fe114ea9e5aa003148256a3888eaf659bd2b5112324dca92bf81e6933b5d040012102692af727f2d7618b181ac1e6ebe2c39d61574d9164b61b3099f590901d6dcb4302483045022100e79c89ef61ee044efdda207c3b6d9f90e80bded1a895188857f6581ea0ae084f022033e082e887e0e9685ff9d453bb4739d6506e6cc5fce69e231cd73c410383f334012103bc91f96d1644b918fb75e75b04e70698516d0b94287098679b18e20a2444ab49024730440220229b7919123b8d6cfb8e2197c33b728f8add1b2deef1ebe526cc71665ec6e83d0220020081973171ac09253c6547fb09507426273c39f65ca6b6880747c9a79c0643012103b5ef8737b08a51938a9335ab297939ad060471b399f72a933d6b83b210e83a6c0247304402202f6c68ed04a9ed71d8bba521ef7d0252c67a78b365f3be0c99fd0d92e19f9ec8022053a692b31c7127f7c6ea54c97e32cee9bc65dbcbb9688e84ae7554349df98a9b012102c5fa9502424b3f3b5909197399fa69a4174c54b3f72b613e08f402effd335b0202483045022100ee67ffd7ea03adf300fc6dfda3432a6c689241c1e769db18f7b2408c832d1de902206b5de06c1787ffecc8a155272de4dde8eec3960b60db10fcb1d0436cbcbdb2fa012102ad81cfd75e747136aebb4aa41628292808a710b07eb498b349eadcacf33e54aa02473044022004ba4a320991e2a7cdb16f6cdc48b13effc096945bddddb18f44c6cc876ab1db02204c3d15aab15b16eacbfba89e928f3baa10d9819d843f4c2397907be164ef61ac0121036f6718d9183e40478c6877c8f76f752052009fff8890222d777c96110d6edeac00000000", "vin": [{"txinwitness": ["304402204de55c44de445b8bab508c01af26d77632d52c56597fc31240169ac7db68fb6002207fc68208cd2f5321f8e3c5dcd30a646e0b154f190c921e491732c37428a936fd01", "03f79f7ba2fdb9000181205930428f8228d04d8b78eb028ff6dc8034ab55a371f6"], "sequence": 4294967295, "scriptSig": {"hex": "160014a45f9d74e7ac4aeb4dd0101f75fcfe92b4de8f7f", "asm": "0014a45f9d74e7ac4aeb4dd0101f75fcfe92b4de8f7f"}, "vout": 2, "txid": "85fb815bfaa2ed7848c187037632bff182d1d81d4dc39160416c2b1e63dbab85"}, {"txinwitness": ["3045022100c8cd0963a4099362409d2318e0292496c6a01cb18b971dc749c5c7444be509d002203a5e1f4c2e79f535e7001e975882c8eb7427ae986d1bd6f2dc0877406ab49dc601", "034fcf5108caa90593203e50668548dc1e509fecb50ce4c9253cca74e298bb18f1"], "sequence": 4294967295, "scriptSig": {"hex": "1600146d745985ecdf4be830d56030a69634ac249759f5", "asm": "00146d745985ecdf4be830d56030a69634ac249759f5"}, "vout": 1, "txid": "cc3be960e3415f31923f75dd6021109072bbc2ff2fa42cc1a6f21cd7b30070b3"}, {"txinwitness": ["3044022018f61438dc4e1666ff946d6333c06e75fbde802609572a9f583eb0452ac4c00302201b43c7049e25d9b0a8d8dec15d53906b0ab9552faa1808cc0e96b5698e3e155001", "03489c725b39c4090b054d12823f1a3c0f25828b84c7f8a68e435725d90fa289ec"], "sequence": 4294967295, "scriptSig": {"hex": "16001421d900734b2ce2ab6618bde8c013800059f1e32d", "asm": "001421d900734b2ce2ab6618bde8c013800059f1e32d"}, "vout": 1, "txid": "65b4db3e1f43e2807eb4fcdb905d492182bdfa863e2353acd0affc6b1473e272"}, {"txinwitness": ["304402201fbaf0fcfdaf16017dd8d8b784a5ff08c6efa592e1766049c467ec18ea7b9a3f0220152acd5e5f96f83bd7b1120d6d4fd89f4d58173c3a6e9c2b257cbd585392db0301", "034fcf5108caa90593203e50668548dc1e509fecb50ce4c9253cca74e298bb18f1"], "sequence": 4294967295, "scriptSig": {"hex": "1600146d745985ecdf4be830d56030a69634ac249759f5", "asm": "00146d745985ecdf4be830d56030a69634ac249759f5"}, "vout": 0, "txid": "9de7d8103666a9d3465fa6ca7f0509ba43d2bdda7054bdf81a411dcb3283a4ae"}, {"txinwitness": ["3045022100a11ca99b301e2bc48b5ed61c9266b722118545150ce873bccbc214f34565076402206fe114ea9e5aa003148256a3888eaf659bd2b5112324dca92bf81e6933b5d04001", "02692af727f2d7618b181ac1e6ebe2c39d61574d9164b61b3099f590901d6dcb43"], "sequence": 4294967295, "scriptSig": {"hex": "1600149b89a8cc480ed71b88dea59e0acf148806af9220", "asm": "00149b89a8cc480ed71b88dea59e0acf148806af9220"}, "vout": 5, "txid": "c2bf8ed0f32bfb853f50e61eb56df8678f2096bea72f63b3cc94748edbc1e52e"}, {"txinwitness": ["3045022100e79c89ef61ee044efdda207c3b6d9f90e80bded1a895188857f6581ea0ae084f022033e082e887e0e9685ff9d453bb4739d6506e6cc5fce69e231cd73c410383f33401", "03bc91f96d1644b918fb75e75b04e70698516d0b94287098679b18e20a2444ab49"], "sequence": 4294967295, "scriptSig": {"hex": "160014f5b8c7f6d1288d616d453168f3f35fc6fdfe5e3c", "asm": "0014f5b8c7f6d1288d616d453168f3f35fc6fdfe5e3c"}, "vout": 2, "txid": "2c0044d9c37823f0f9e60d213bf525ff90b2dba9a74ef42681007bd838e0af35"}, {"txinwitness": ["30440220229b7919123b8d6cfb8e2197c33b728f8add1b2deef1ebe526cc71665ec6e83d0220020081973171ac09253c6547fb09507426273c39f65ca6b6880747c9a79c064301", "03b5ef8737b08a51938a9335ab297939ad060471b399f72a933d6b83b210e83a6c"], "sequence": 4294967295, "scriptSig": {"hex": "160014931f946e43d3d83f5a9345f454e00377153a246c", "asm": "0014931f946e43d3d83f5a9345f454e00377153a246c"}, "vout": 1, "txid": "429687bab3e4f7378224807594344ffb20e9a2595633bd56b2f3efefcd688c51"}, {"txinwitness": ["304402202f6c68ed04a9ed71d8bba521ef7d0252c67a78b365f3be0c99fd0d92e19f9ec8022053a692b31c7127f7c6ea54c97e32cee9bc65dbcbb9688e84ae7554349df98a9b01", "02c5fa9502424b3f3b5909197399fa69a4174c54b3f72b613e08f402effd335b02"], "sequence": 4294967295, "scriptSig": {"hex": "160014e8c883114703748d6cc4779e9e7877c5cc210acc", "asm": "0014e8c883114703748d6cc4779e9e7877c5cc210acc"}, "vout": 1, "txid": "db0118054d313715bce5a1ff16408e5d7ac597c0a52470197a194c4a011e9216"}, {"txinwitness": ["3045022100ee67ffd7ea03adf300fc6dfda3432a6c689241c1e769db18f7b2408c832d1de902206b5de06c1787ffecc8a155272de4dde8eec3960b60db10fcb1d0436cbcbdb2fa01", "02ad81cfd75e747136aebb4aa41628292808a710b07eb498b349eadcacf33e54aa"], "sequence": 4294967295, "scriptSig": {"hex": "160014a9acce272f27c13b049c02af8c26d0197d6f809c", "asm": "0014a9acce272f27c13b049c02af8c26d0197d6f809c"}, "vout": 0, "txid": "b25c0fcf3ca6cf8f0be5b4b87dcc01563027b454fcf84854049418344ff20605"}, {"txinwitness": ["3044022004ba4a320991e2a7cdb16f6cdc48b13effc096945bddddb18f44c6cc876ab1db02204c3d15aab15b16eacbfba89e928f3baa10d9819d843f4c2397907be164ef61ac01", "036f6718d9183e40478c6877c8f76f752052009fff8890222d777c96110d6edeac"], "sequence": 4294967295, "scriptSig": {"hex": "160014980df07bf875df1b402109b2f4340312ba202f26", "asm": "0014980df07bf875df1b402109b2f4340312ba202f26"}, "vout": 0, "txid": "72b262c02196475992463f5beb4ff6a8557e38f253a464777cd8dc2ef7020e08"}], "txid": "0b621b02a2793fda837cb9d95b6d3be4a4e09974bf7d8ae8ca629eabe96539eb", "blocktime": 1537871767, "version": 2, "confirmations": 11490, "time": 1537871767, "locktime": 0, "vsize": 985, "size": 1792}