{"hash": "0b6240b349949613cfc41d4b735381f94a6dbd3afc0673cc97107081004309a4", "blockhash": "0000000000000000000dcc0f55137456b1a82d3642486a52398922ac4d620174", "vout": [{"scriptPubKey": {"reqSigs": 1, "hex": "76a9145092a05b6cb46a750945dfed1059953c5fa01e8a88ac", "addresses": ["18M2i8N7CR4hxWo7cPdu2UQgwKY2dCraCu"], "asm": "OP_DUP OP_HASH160 5092a05b6cb46a750945dfed1059953c5fa01e8a OP_EQUALVERIFY OP_CHECKSIG", "type": "pubkeyhash"}, "value": 5.818e-05, "n": 0}, {"scriptPubKey": {"reqSigs": 1, "hex": "76a914c9bd7ed2b447d7cb1e09b84384edee5c89c9c50f88ac", "addresses": ["1KPhpvuCDcCzmFcqYviZnuR4GdbPFqwSqS"], "asm": "OP_DUP OP_HASH160 c9bd7ed2b447d7cb1e09b84384edee5c89c9c50f OP_EQUALVERIFY OP_CHECKSIG", "type": "pubkeyhash"}, "value": 0.0426, "n": 1}], "hex": "010000000193c1d4b735271ee0885e95e63f8bb5ce58faa31b7badbb82e639cb8cd78173d8000000006a47304402205e2734fab4258c6790a343fb4a11aa4ba29357519dfaa93a2985aebb7457b6a202201852d3ee0af423f2c07c08cea97d2ab0494659e8aac95d1b489e3a4bddb4f87d012103979090106ac2aabdf024c696984906f01916f71f3c88a46a5ac141bb63c35f00ffffffff02ba160000000000001976a9145092a05b6cb46a750945dfed1059953c5fa01e8a88aca0004100000000001976a914c9bd7ed2b447d7cb1e09b84384edee5c89c9c50f88ac00000000", "vin": [{"sequence": 4294967295, "scriptSig": {"hex": "47304402205e2734fab4258c6790a343fb4a11aa4ba29357519dfaa93a2985aebb7457b6a202201852d3ee0af423f2c07c08cea97d2ab0494659e8aac95d1b489e3a4bddb4f87d012103979090106ac2aabdf024c696984906f01916f71f3c88a46a5ac141bb63c35f00", "asm": "304402205e2734fab4258c6790a343fb4a11aa4ba29357519dfaa93a2985aebb7457b6a202201852d3ee0af423f2c07c08cea97d2ab0494659e8aac95d1b489e3a4bddb4f87d[ALL] 03979090106ac2aabdf024c696984906f01916f71f3c88a46a5ac141bb63c35f00"}, "vout": 0, "txid": "d87381d78ccb39e682bbad7b1ba3fa58ceb58b3fe6955e88e01e2735b7d4c193"}], "txid": "0b6240b349949613cfc41d4b735381f94a6dbd3afc0673cc97107081004309a4", "blocktime": 1537870268, "version": 1, "confirmations": 11516, "time": 1537870268, "locktime": 0, "vsize": 225, "size": 225}