{"hash": "0b627202aeeb8ac124bf195763d545b6ec214322a5cbbca371a5eafe16b1dc60", "blockhash": "0000000000000000001cda96e906b7601b7a6fb1a3b62bca570a9e5d8f4b3de1", "vout": [{"scriptPubKey": {"reqSigs": 1, "hex": "76a914a64820514bcf0d8598c94a91cacaa8a7e24ffc9d88ac", "addresses": ["1GADaGFNqXH1UQt2ZbfkiUvsu26wUSatdv"], "asm": "OP_DUP OP_HASH160 a64820514bcf0d8598c94a91cacaa8a7e24ffc9d OP_EQUALVERIFY OP_CHECKSIG", "type": "pubkeyhash"}, "value": 0.00017967, "n": 0}, {"scriptPubKey": {"reqSigs": 1, "hex": "76a914a070efc9203d70d108278e0e475ebf1171700e7788ac", "addresses": ["1FdLQfr4ihhYmQu63gXbLvBxXsEWjsQ5kQ"], "asm": "OP_DUP OP_HASH160 a070efc9203d70d108278e0e475ebf1171700e77 OP_EQUALVERIFY OP_CHECKSIG", "type": "pubkeyhash"}, "value": 0.01092573, "n": 1}], "hex": "01000000045565d3930c7d4ad32b22511a9488a9212e665adbff6a03b0fa536334f91b3e48000000006b483045022100a5c0d104a496344f62d720316e1a793c01d8c9422e0a52d2b2438429e6aea79a02200b1ad56e1a66b305851db11fb04755dd566bd2ef737c9a3316067128dd66d1b901210324780e0b7e2335ee90918ad2027058fb090d405f54a848d6fe9738af95326d36ffffffffd04f586631f89483af8d55d95b31d5e16045bdb6b6f0541b6a9f8ca6e9c2f14a000000006b483045022100be0b620dbba2517a7544a9218cacc692e091f9f304c84ffeb375f30bd2e35ba602202c3526c323c900c9049679bc456e9d3fe94767059571043218c40b394a6bb3f9012103dbc8603e1bbeb5432470c3dfbec7f690f6a8aeab98793377b288d4e29e7d2e72ffffffff2cf8dae33b55ec45643cb1d10359ba18115d9470711fe72ba750ff87729101a2000000006a473044022010574ccabf7fd814b1a5e3391f54f990786d1bc083ab48607dba3c9b3f181554022034a28ffa7f5c7a3cb9c4deaeb2368fea99cad16064f6a680ab1cfe616dd3dd23012102408a48325977c29670b5726d266b3b8ed9920cf39fda07a44a9a64608567e25fffffffff6f5f711a4297ea42e7e0941f247e91f05ff48d01eaaefdac02e7f268403190c1000000006a47304402204bdaf75d46201af2e01ed0ed612baf985d4f67b60c3331f6e5309fa1a81c662002205be1e52322e5f4b25fb26f5b7f893595a04a18e89100f6babb68fb571f3ac04c012102f7966189ce829dc82c787df98987487a63525e0fd089a42b080868d95cbff990ffffffff022f460000000000001976a914a64820514bcf0d8598c94a91cacaa8a7e24ffc9d88acddab1000000000001976a914a070efc9203d70d108278e0e475ebf1171700e7788ac00000000", "vin": [{"sequence": 4294967295, "scriptSig": {"hex": "483045022100a5c0d104a496344f62d720316e1a793c01d8c9422e0a52d2b2438429e6aea79a02200b1ad56e1a66b305851db11fb04755dd566bd2ef737c9a3316067128dd66d1b901210324780e0b7e2335ee90918ad2027058fb090d405f54a848d6fe9738af95326d36", "asm": "3045022100a5c0d104a496344f62d720316e1a793c01d8c9422e0a52d2b2438429e6aea79a02200b1ad56e1a66b305851db11fb04755dd566bd2ef737c9a3316067128dd66d1b9[ALL] 0324780e0b7e2335ee90918ad2027058fb090d405f54a848d6fe9738af95326d36"}, "vout": 0, "txid": "483e1bf9346353fab0036affdb5a662e21a988941a51222bd34a7d0c93d36555"}, {"sequence": 4294967295, "scriptSig": {"hex": "483045022100be0b620dbba2517a7544a9218cacc692e091f9f304c84ffeb375f30bd2e35ba602202c3526c323c900c9049679bc456e9d3fe94767059571043218c40b394a6bb3f9012103dbc8603e1bbeb5432470c3dfbec7f690f6a8aeab98793377b288d4e29e7d2e72", "asm": "3045022100be0b620dbba2517a7544a9218cacc692e091f9f304c84ffeb375f30bd2e35ba602202c3526c323c900c9049679bc456e9d3fe94767059571043218c40b394a6bb3f9[ALL] 03dbc8603e1bbeb5432470c3dfbec7f690f6a8aeab98793377b288d4e29e7d2e72"}, "vout": 0, "txid": "4af1c2e9a68c9f6a1b54f0b6b6bd4560e1d5315bd9558daf8394f83166584fd0"}, {"sequence": 4294967295, "scriptSig": {"hex": "473044022010574ccabf7fd814b1a5e3391f54f990786d1bc083ab48607dba3c9b3f181554022034a28ffa7f5c7a3cb9c4deaeb2368fea99cad16064f6a680ab1cfe616dd3dd23012102408a48325977c29670b5726d266b3b8ed9920cf39fda07a44a9a64608567e25f", "asm": "3044022010574ccabf7fd814b1a5e3391f54f990786d1bc083ab48607dba3c9b3f181554022034a28ffa7f5c7a3cb9c4deaeb2368fea99cad16064f6a680ab1cfe616dd3dd23[ALL] 02408a48325977c29670b5726d266b3b8ed9920cf39fda07a44a9a64608567e25f"}, "vout": 0, "txid": "a201917287ff50a72be71f7170945d1118ba5903d1b13c6445ec553be3daf82c"}, {"sequence": 4294967295, "scriptSig": {"hex": "47304402204bdaf75d46201af2e01ed0ed612baf985d4f67b60c3331f6e5309fa1a81c662002205be1e52322e5f4b25fb26f5b7f893595a04a18e89100f6babb68fb571f3ac04c012102f7966189ce829dc82c787df98987487a63525e0fd089a42b080868d95cbff990", "asm": "304402204bdaf75d46201af2e01ed0ed612baf985d4f67b60c3331f6e5309fa1a81c662002205be1e52322e5f4b25fb26f5b7f893595a04a18e89100f6babb68fb571f3ac04c[ALL] 02f7966189ce829dc82c787df98987487a63525e0fd089a42b080868d95cbff990"}, "vout": 0, "txid": "c190314068f2e702acfdaeea018df45ff0917e241f94e0e742ea97421a715f6f"}], "txid": "0b627202aeeb8ac124bf195763d545b6ec214322a5cbbca371a5eafe16b1dc60", "blocktime": 1537873282, "version": 1, "confirmations": 11485, "time": 1537873282, "locktime": 0, "vsize": 668, "size": 668}