{"hash": "0b647fdd8a478bdb63fa7934d4cdce9b555fb79c330d11612f366592afb10a5d", "blockhash": "00000000000000000024a2167bbff67b0be802c0b01cdd79e6331c2be6459f87", "vout": [{"scriptPubKey": {"reqSigs": 1, "hex": "76a9142b90762e76968084c6e3d45ffd735006c7ff0a6e88ac", "addresses": ["14yM7cxFSv8oFsC9JURSSgWMKRvvhPkcjf"], "asm": "OP_DUP OP_HASH160 2b90762e76968084c6e3d45ffd735006c7ff0a6e OP_EQUALVERIFY OP_CHECKSIG", "type": "pubkeyhash"}, "value": 0.00047994, "n": 0}, {"scriptPubKey": {"reqSigs": 1, "hex": "a914d51dd7e04510d43d813830ac29e09064fe8eb32b87", "addresses": ["3M7sbx4Nd1hmPpQko1AE3fLX5Pz1dsh8EA"], "asm": "OP_HASH160 d51dd7e04510d43d813830ac29e09064fe8eb32b OP_EQUAL", "type": "scripthash"}, "value": 0.01741389, "n": 1}], "hex": "0100000001e80fe32e16689d1d88bdd2ecca87ab72af95e1d50da698492197da3672378e7b080000006a473044022048f8bf51684bb1764cd80acf7723b9ce9e3270cbe0804a7253d137cb902a72f2022043eec409df888c97259235eb0e52d666fc3ee2821b0e354ae17522fc92030749012103f22dc8201485f63e142c4d356073ae70da47546ec0d29101f5f2783309207f9dffffffff027abb0000000000001976a9142b90762e76968084c6e3d45ffd735006c7ff0a6e88ac4d921a000000000017a914d51dd7e04510d43d813830ac29e09064fe8eb32b8700000000", "vin": [{"sequence": 4294967295, "scriptSig": {"hex": "473044022048f8bf51684bb1764cd80acf7723b9ce9e3270cbe0804a7253d137cb902a72f2022043eec409df888c97259235eb0e52d666fc3ee2821b0e354ae17522fc92030749012103f22dc8201485f63e142c4d356073ae70da47546ec0d29101f5f2783309207f9d", "asm": "3044022048f8bf51684bb1764cd80acf7723b9ce9e3270cbe0804a7253d137cb902a72f2022043eec409df888c97259235eb0e52d666fc3ee2821b0e354ae17522fc92030749[ALL] 03f22dc8201485f63e142c4d356073ae70da47546ec0d29101f5f2783309207f9d"}, "vout": 8, "txid": "7b8e377236da97214998a60dd5e195af72ab87caecd2bd881d9d68162ee30fe8"}], "txid": "0b647fdd8a478bdb63fa7934d4cdce9b555fb79c330d11612f366592afb10a5d", "blocktime": 1537870564, "version": 1, "confirmations": 11515, "time": 1537870564, "locktime": 0, "vsize": 223, "size": 223}