{"hash": "0b66b1941bcf11cfa396f90c7f37e8b9743a1546c6b0bf70d87304166eb7bcbb", "blockhash": "0000000000000000001cda96e906b7601b7a6fb1a3b62bca570a9e5d8f4b3de1", "vout": [{"scriptPubKey": {"reqSigs": 1, "hex": "76a9149d2a118d3ead305f17d7e2d0f6c248ae8d222b6a88ac", "addresses": ["1FL1V6MQ4C51TGMHXDzBFKshibiYDLrS8v"], "asm": "OP_DUP OP_HASH160 9d2a118d3ead305f17d7e2d0f6c248ae8d222b6a OP_EQUALVERIFY OP_CHECKSIG", "type": "pubkeyhash"}, "value": 0.11013984, "n": 0}, {"scriptPubKey": {"reqSigs": 1, "hex": "76a9148c80b9fb9e9dea89655afe082c30bf42e049424e88ac", "addresses": ["1DouovwSkFdqsLV3u2qzGhx92py1fEFQ8v"], "asm": "OP_DUP OP_HASH160 8c80b9fb9e9dea89655afe082c30bf42e049424e OP_EQUALVERIFY OP_CHECKSIG", "type": "pubkeyhash"}, "value": 10.0745329, "n": 1}], "hex": "01000000013ba8494a73f7099c1e554e65dad398fe3f4480fae0e9b3ad9c98937300be100c010000006a473044022028d2ee25bdc94416e8ad4340cfc68d80b8fd6ea2a55d5f6cfe11fffe8b5da67c02204ab905c9399dbc09142f08924b9b8bde5778ec79ed6482e0af9d62cf68093296012102e810d030eb6643a3a268f7d2ffd96fed321ef458fa7f92523f34a2a600290ab3fdffffff02600fa800000000001976a9149d2a118d3ead305f17d7e2d0f6c248ae8d222b6a88ac6a840c3c000000001976a9148c80b9fb9e9dea89655afe082c30bf42e049424e88ac13490800", "vin": [{"sequence": 4294967293, "scriptSig": {"hex": "473044022028d2ee25bdc94416e8ad4340cfc68d80b8fd6ea2a55d5f6cfe11fffe8b5da67c02204ab905c9399dbc09142f08924b9b8bde5778ec79ed6482e0af9d62cf68093296012102e810d030eb6643a3a268f7d2ffd96fed321ef458fa7f92523f34a2a600290ab3", "asm": "3044022028d2ee25bdc94416e8ad4340cfc68d80b8fd6ea2a55d5f6cfe11fffe8b5da67c02204ab905c9399dbc09142f08924b9b8bde5778ec79ed6482e0af9d62cf68093296[ALL] 02e810d030eb6643a3a268f7d2ffd96fed321ef458fa7f92523f34a2a600290ab3"}, "vout": 1, "txid": "0c10be007393989cadb3e9e0fa80443ffe98d3da654e551e9c09f7734a49a83b"}], "txid": "0b66b1941bcf11cfa396f90c7f37e8b9743a1546c6b0bf70d87304166eb7bcbb", "blocktime": 1537873282, "version": 1, "confirmations": 11485, "time": 1537873282, "locktime": 542995, "vsize": 225, "size": 225}