{"hash": "0f7a30e0cfa805e7492f9017ebd920159d0aa40e4772947c40e75b49b094a376", "blockhash": "0000000000000000000e13cef7c366c0283d82e591d1acd082e914b08063cdf1", "vout": [{"scriptPubKey": {"reqSigs": 1, "hex": "a9140e0d7bc6130f1c3f1852800ee6d81efc411a465287", "addresses": ["32yKY5XE5tpBissafJ5Nux4jrfHf5aavvb"], "asm": "OP_HASH160 0e0d7bc6130f1c3f1852800ee6d81efc411a4652 OP_EQUAL", "type": "scripthash"}, "value": 0.020683, "n": 0}, {"scriptPubKey": {"reqSigs": 1, "hex": "a914fabd07b92a28c48e751a11302892c6dd6054e42d87", "addresses": ["3QYoJYiwLS7iBmnjVc64UmAnAJBwJs1tsT"], "asm": "OP_HASH160 fabd07b92a28c48e751a11302892c6dd6054e42d OP_EQUAL", "type": "scripthash"}, "value": 0.00435488, "n": 1}], "hex": "02000000000101220ff9f89eaec6e9f69977edcbba725b155ae59cbe6e3e2bbe84384e3cd9e8ba0100000017160014d8b4e74d65e9e67cb247962d55056b96ea899061ffffffff024c8f1f000000000017a9140e0d7bc6130f1c3f1852800ee6d81efc411a46528720a506000000000017a914fabd07b92a28c48e751a11302892c6dd6054e42d8702483045022100ed6a513ff2e2f5d338e2f66107c72b151277d22cffd4ea8b7e97cbf64e55299f02207b9419c1b58623e1e24f58e67a81043d4440c104b5880099e8f8f7fe9292e6950121027f72e94ea5f382832c12a0ecfb41b23f94499265e9c0af1e0682fbdd78fb416300000000", "vin": [{"txinwitness": ["3045022100ed6a513ff2e2f5d338e2f66107c72b151277d22cffd4ea8b7e97cbf64e55299f02207b9419c1b58623e1e24f58e67a81043d4440c104b5880099e8f8f7fe9292e69501", "027f72e94ea5f382832c12a0ecfb41b23f94499265e9c0af1e0682fbdd78fb4163"], "sequence": 4294967295, "scriptSig": {"hex": "160014d8b4e74d65e9e67cb247962d55056b96ea899061", "asm": "0014d8b4e74d65e9e67cb247962d55056b96ea899061"}, "vout": 1, "txid": "bae8d93c4e3884be2b3e6ebe9ce55a155b72bacbed7799f6e9c6ae9ef8f90f22"}], "txid": "0b6c44dee23860792a267546632dbba1e5f2dcd68687149875ac725bdff0311f", "blocktime": 1537871767, "version": 2, "confirmations": 11490, "time": 1537871767, "locktime": 0, "vsize": 166, "size": 248}