{"hash": "61a3777064acd7c6fc12742509f72e91f235a2a4ea8a9658cf80846f209eca08", "blockhash": "0000000000000000001cda96e906b7601b7a6fb1a3b62bca570a9e5d8f4b3de1", "vout": [{"scriptPubKey": {"reqSigs": 1, "hex": "a91427a762bfe0182459c33210f3fa94919a06d1737587", "addresses": ["35JgoBzJnNMxLbJwwnWcszPgzmtyj5RgW1"], "asm": "OP_HASH160 27a762bfe0182459c33210f3fa94919a06d17375 OP_EQUAL", "type": "scripthash"}, "value": 0.0159, "n": 0}, {"scriptPubKey": {"reqSigs": 1, "hex": "a91439673e78059266b953974a820ff20b35ce9a3c7d87", "addresses": ["36vY7zrU7SLfcDR1D4yYXQcAkgTEgFKpc2"], "asm": "OP_HASH160 39673e78059266b953974a820ff20b35ce9a3c7d OP_EQUAL", "type": "scripthash"}, "value": 1.76658954, "n": 1}], "hex": "01000000000101044e87a4e8394622f3924403da5c4344610708089bc59d537c6f2f63b16165bd0100000017160014f4e21d3a73c395eb8fc48514ba7acc99b71d9c61ffffffff02f04218000000000017a91427a762bfe0182459c33210f3fa94919a06d17375870a9a870a0000000017a91439673e78059266b953974a820ff20b35ce9a3c7d8702473044022036195e2ae953e95e50c4435179db8e51f18b7cff52404ddede295413bbcf280e0220713a0c19de7762e59af35fd873b684a83f99ad83dcffc3293109c9fcd20e9d2d01210212de5cc81a7ffd422659c6ea2803632508accc63f5b475dc2ec76a7b717a1c8000000000", "vin": [{"txinwitness": ["3044022036195e2ae953e95e50c4435179db8e51f18b7cff52404ddede295413bbcf280e0220713a0c19de7762e59af35fd873b684a83f99ad83dcffc3293109c9fcd20e9d2d01", "0212de5cc81a7ffd422659c6ea2803632508accc63f5b475dc2ec76a7b717a1c80"], "sequence": 4294967295, "scriptSig": {"hex": "160014f4e21d3a73c395eb8fc48514ba7acc99b71d9c61", "asm": "0014f4e21d3a73c395eb8fc48514ba7acc99b71d9c61"}, "vout": 1, "txid": "bd6561b1632f6f7c539dc59b0808076144435cda034492f3224639e8a4874e04"}], "txid": "0b6dae4458f003b7dc8197ecfb6d09c461764e79fe59425f2adc15685eeab23f", "blocktime": 1537873282, "version": 1, "confirmations": 11484, "time": 1537873282, "locktime": 0, "vsize": 166, "size": 247}