{"hash": "0b6f6aca2b9ad2c305c14f40223c24bfc43909c4526ab35de85b4c80674d7176", "blockhash": "0000000000000000000dcc0f55137456b1a82d3642486a52398922ac4d620174", "vout": [{"scriptPubKey": {"reqSigs": 1, "hex": "76a914328c0f8e91907e10c609f567a2ff8de2797165e488ac", "addresses": ["15cGaBhDhhknK7kpRfXkEkuyQHz7AZRi5N"], "asm": "OP_DUP OP_HASH160 328c0f8e91907e10c609f567a2ff8de2797165e4 OP_EQUALVERIFY OP_CHECKSIG", "type": "pubkeyhash"}, "value": 0.00097477, "n": 0}, {"scriptPubKey": {"reqSigs": 1, "hex": "76a9148676ae1228949f5d1766900689b99d7af21690e988ac", "addresses": ["1DFyijZRpdP2PXALUQGd1iAxCoCgs2UcNK"], "asm": "OP_DUP OP_HASH160 8676ae1228949f5d1766900689b99d7af21690e9 OP_EQUALVERIFY OP_CHECKSIG", "type": "pubkeyhash"}, "value": 0.0050195, "n": 1}], "hex": "0100000001c3548ccf9cb626a4e8e496189ec6bda838ceaf0200c9454c4820d9ecd100d55c000000006b483045022100bd2760853ceadc70c105168fac4c968d4f0d77e95c895d3bbd7ff14336494e7802207a91afa69543bc2e1a928efa90e9d8bebaba53cda5bd609ff78c945044a7dadb012102ee89a0415142fa7ebd2dfb4fd0ba66a943b3dd7d0ceae0b3dba7f7c33d485854ffffffff02c57c0100000000001976a914328c0f8e91907e10c609f567a2ff8de2797165e488acbea80700000000001976a9148676ae1228949f5d1766900689b99d7af21690e988ac00000000", "vin": [{"sequence": 4294967295, "scriptSig": {"hex": "483045022100bd2760853ceadc70c105168fac4c968d4f0d77e95c895d3bbd7ff14336494e7802207a91afa69543bc2e1a928efa90e9d8bebaba53cda5bd609ff78c945044a7dadb012102ee89a0415142fa7ebd2dfb4fd0ba66a943b3dd7d0ceae0b3dba7f7c33d485854", "asm": "3045022100bd2760853ceadc70c105168fac4c968d4f0d77e95c895d3bbd7ff14336494e7802207a91afa69543bc2e1a928efa90e9d8bebaba53cda5bd609ff78c945044a7dadb[ALL] 02ee89a0415142fa7ebd2dfb4fd0ba66a943b3dd7d0ceae0b3dba7f7c33d485854"}, "vout": 0, "txid": "5cd500d1ecd920484c45c90002afce38a8bdc69e1896e4e8a426b69ccf8c54c3"}], "txid": "0b6f6aca2b9ad2c305c14f40223c24bfc43909c4526ab35de85b4c80674d7176", "blocktime": 1537870268, "version": 1, "confirmations": 11518, "time": 1537870268, "locktime": 0, "vsize": 226, "size": 226}