{"hash": "0b7404a71e874a693429d8ded5f66e2c0903bed08431d0e70450a48fccc3a0d0", "blockhash": "00000000000000000024a2167bbff67b0be802c0b01cdd79e6331c2be6459f87", "vout": [{"scriptPubKey": {"reqSigs": 1, "hex": "a9146e6fb8d9ef2fa634e6f0d681c95d89054e8ec84587", "addresses": ["3Bkx6EMHzVVHqAX3iVo5bnktEcfQjSRSHM"], "asm": "OP_HASH160 6e6fb8d9ef2fa634e6f0d681c95d89054e8ec845 OP_EQUAL", "type": "scripthash"}, "value": 0.046869, "n": 0}, {"scriptPubKey": {"reqSigs": 1, "hex": "76a914ebbe7c775d8cb20227768cd67b3fd93d41190e4688ac", "addresses": ["1NVVzHzzbrGnfudFoJFH8wowDNt55rQht5"], "asm": "OP_DUP OP_HASH160 ebbe7c775d8cb20227768cd67b3fd93d41190e46 OP_EQUALVERIFY OP_CHECKSIG", "type": "pubkeyhash"}, "value": 0.12707352, "n": 1}], "hex": "0100000001d4eed619b9b5e2676362e3f23de7906e57e17f55cff256bb3634eae4c33bd58f010000006a4730440220275ecbc7063f8583a2038f0d4416d494b6e693af5fc7c2aeb4811821d29661ca0220668e31b3ad1d7517cc6627b04c40efaa05dc946e34b131c5d6129304dda5fb1b0121025303bb49e16cb4a8cb8fe7c7478fa38a9630e0680d211c8a3817474ded114628ffffffff02348447000000000017a9146e6fb8d9ef2fa634e6f0d681c95d89054e8ec8458718e6c100000000001976a914ebbe7c775d8cb20227768cd67b3fd93d41190e4688ac00000000", "vin": [{"sequence": 4294967295, "scriptSig": {"hex": "4730440220275ecbc7063f8583a2038f0d4416d494b6e693af5fc7c2aeb4811821d29661ca0220668e31b3ad1d7517cc6627b04c40efaa05dc946e34b131c5d6129304dda5fb1b0121025303bb49e16cb4a8cb8fe7c7478fa38a9630e0680d211c8a3817474ded114628", "asm": "30440220275ecbc7063f8583a2038f0d4416d494b6e693af5fc7c2aeb4811821d29661ca0220668e31b3ad1d7517cc6627b04c40efaa05dc946e34b131c5d6129304dda5fb1b[ALL] 025303bb49e16cb4a8cb8fe7c7478fa38a9630e0680d211c8a3817474ded114628"}, "vout": 1, "txid": "8fd53bc3e4ea3436bb56f2cf557fe1576e90e73df2e3626367e2b5b919d6eed4"}], "txid": "0b7404a71e874a693429d8ded5f66e2c0903bed08431d0e70450a48fccc3a0d0", "blocktime": 1537870564, "version": 1, "confirmations": 11515, "time": 1537870564, "locktime": 0, "vsize": 223, "size": 223}