{"hash": "0b75e04046e21417b3e06286ff0a754189dcdce7090529b9ccb4415eb839754c", "blockhash": "0000000000000000001cda96e906b7601b7a6fb1a3b62bca570a9e5d8f4b3de1", "vout": [{"scriptPubKey": {"reqSigs": 1, "hex": "a914a341295cb9fc888ddbc9f9bf70f65f1334c6c7d187", "addresses": ["3GaE8KN9XzqUG4JFxpQqvtBm6Wjdk7akLU"], "asm": "OP_HASH160 a341295cb9fc888ddbc9f9bf70f65f1334c6c7d1 OP_EQUAL", "type": "scripthash"}, "value": 0.00923358, "n": 0}], "hex": "01000000027c44fdc42b7de7e772fcca2802aa73512fa4ad0f847f13949a6580ae2ca5efc0010000006b483045022100ca57bf9ed643f859ad691540c1d11d125197cbfd9f126f35f44edcd62dfc6478022027395b4350c61e90df9d084ff69b0faf4509546f0decebe22f590cad849af9940121037a7710ecae72f521b569f136d4c14420345c828cb485e4dc37b8d1503926c749ffffffff8b1ee03da54a420441b1750b8e4c16d25238503d4f04d85d538e7841b17139c3010000006b483045022100a135a126e4a943438175b208eb2c0c89383340519fc916893cfe8eee8b3cd24702205100d3414256c70dd8ea730bff17f80e345ca55ff8c14d33702b4f77999ed1e20121021ad84e245c9096eb0bca86063a6533df4c1713e2b471b3693e26b2a92a33b98dffffffff01de160e000000000017a914a341295cb9fc888ddbc9f9bf70f65f1334c6c7d18700000000", "vin": [{"sequence": 4294967295, "scriptSig": {"hex": "483045022100ca57bf9ed643f859ad691540c1d11d125197cbfd9f126f35f44edcd62dfc6478022027395b4350c61e90df9d084ff69b0faf4509546f0decebe22f590cad849af9940121037a7710ecae72f521b569f136d4c14420345c828cb485e4dc37b8d1503926c749", "asm": "3045022100ca57bf9ed643f859ad691540c1d11d125197cbfd9f126f35f44edcd62dfc6478022027395b4350c61e90df9d084ff69b0faf4509546f0decebe22f590cad849af994[ALL] 037a7710ecae72f521b569f136d4c14420345c828cb485e4dc37b8d1503926c749"}, "vout": 1, "txid": "c0efa52cae80659a94137f840fada42f5173aa0228cafc72e7e77d2bc4fd447c"}, {"sequence": 4294967295, "scriptSig": {"hex": "483045022100a135a126e4a943438175b208eb2c0c89383340519fc916893cfe8eee8b3cd24702205100d3414256c70dd8ea730bff17f80e345ca55ff8c14d33702b4f77999ed1e20121021ad84e245c9096eb0bca86063a6533df4c1713e2b471b3693e26b2a92a33b98d", "asm": "3045022100a135a126e4a943438175b208eb2c0c89383340519fc916893cfe8eee8b3cd24702205100d3414256c70dd8ea730bff17f80e345ca55ff8c14d33702b4f77999ed1e2[ALL] 021ad84e245c9096eb0bca86063a6533df4c1713e2b471b3693e26b2a92a33b98d"}, "vout": 1, "txid": "c33971b141788e535dd8044f3d503852d2164c8e0b75b14104424aa53de01e8b"}], "txid": "0b75e04046e21417b3e06286ff0a754189dcdce7090529b9ccb4415eb839754c", "blocktime": 1537873282, "version": 1, "confirmations": 11481, "time": 1537873282, "locktime": 0, "vsize": 338, "size": 338}