{"hash": "1b2ed899cc4cf0a2813150e1a13d4e9ebe43d54735c39dfbe878dc97bf541f1d", "blockhash": "0000000000000000000e13cef7c366c0283d82e591d1acd082e914b08063cdf1", "vout": [{"scriptPubKey": {"reqSigs": 1, "hex": "76a914c28d0785e5cdbfb11068688028ad32ec82389ec088ac", "addresses": ["1Jjh37Jd9HP3vrVqcAk4gxjJwRbEGvzSHE"], "asm": "OP_DUP OP_HASH160 c28d0785e5cdbfb11068688028ad32ec82389ec0 OP_EQUALVERIFY OP_CHECKSIG", "type": "pubkeyhash"}, "value": 0.00275539, "n": 0}, {"scriptPubKey": {"reqSigs": 1, "hex": "a91407217a6888594ea6b5d3fcaec33b8086820975fb87", "addresses": ["32LikzMiFeQKk5PLUtLS4ux3JvkyBzE7KF"], "asm": "OP_HASH160 07217a6888594ea6b5d3fcaec33b8086820975fb OP_EQUAL", "type": "scripthash"}, "value": 0.01005883, "n": 1}], "hex": "02000000000102a41f8d37aae864ec6da9f6e4cbf2efd3ccb679f46b7bab9d3e41fa0b35c5b72b0000000017160014e6d2edb3b8d3bd189f8556e2f45fff776ab0b531feffffffdf01e1088aea1506d73b11bd39bebaf85e1fa2c770a0bb06be26aee1869dfcc11c000000171600149f40541925b5c8754f69fda69849f47d60d3f465feffffff0253340400000000001976a914c28d0785e5cdbfb11068688028ad32ec82389ec088ac3b590f000000000017a91407217a6888594ea6b5d3fcaec33b8086820975fb8702483045022100e9533a9fd7f52ee2bfdc065b8c9cce768704fd75e9dea968919275ef56de087702200534a85448e93d2e10d9eb83637da9902b19a5d1043fa5edfda222994a3117d30121034c40261906d7b2f7e8421b94efe164d43b28661fca7e69a73e2c2ded4d565ad20247304402202cde0277898a9e6ac69f50e11d6a9ab2e4374c7717b8672e4c7dc8f50d8b3dac02201f0869f0247d3a207b25844ede78e97f2d18213312cd08c49a0df94011eb61e9012103749feb881c87c14b8dce75a69bee648abff40d3139b1b99c73e71242db12fd7610490800", "vin": [{"txinwitness": ["3045022100e9533a9fd7f52ee2bfdc065b8c9cce768704fd75e9dea968919275ef56de087702200534a85448e93d2e10d9eb83637da9902b19a5d1043fa5edfda222994a3117d301", "034c40261906d7b2f7e8421b94efe164d43b28661fca7e69a73e2c2ded4d565ad2"], "sequence": 4294967294, "scriptSig": {"hex": "160014e6d2edb3b8d3bd189f8556e2f45fff776ab0b531", "asm": "0014e6d2edb3b8d3bd189f8556e2f45fff776ab0b531"}, "vout": 0, "txid": "2bb7c5350bfa413e9dab7b6bf479b6ccd3eff2cbe4f6a96dec64e8aa378d1fa4"}, {"txinwitness": ["304402202cde0277898a9e6ac69f50e11d6a9ab2e4374c7717b8672e4c7dc8f50d8b3dac02201f0869f0247d3a207b25844ede78e97f2d18213312cd08c49a0df94011eb61e901", "03749feb881c87c14b8dce75a69bee648abff40d3139b1b99c73e71242db12fd76"], "sequence": 4294967294, "scriptSig": {"hex": "1600149f40541925b5c8754f69fda69849f47d60d3f465", "asm": "00149f40541925b5c8754f69fda69849f47d60d3f465"}, "vout": 28, "txid": "c1fc9d86e1ae26be06bba070c7a21f5ef8babe39bd113bd70615ea8a08e101df"}], "txid": "0b7a554b76193a2cb0707462fdd5f87b29af65a69b5b9993c53538fa53ac139a", "blocktime": 1537871767, "version": 2, "confirmations": 11495, "time": 1537871767, "locktime": 542992, "vsize": 259, "size": 421}