{"hash": "5bb9eb605f93aa6e541e86c11ef60d735ab95e7eeeed42789ba92208cd63c189", "blockhash": "0000000000000000001cda96e906b7601b7a6fb1a3b62bca570a9e5d8f4b3de1", "vout": [{"scriptPubKey": {"reqSigs": 1, "hex": "a914d5011ff51be18a5ecbe1062e580e4eb2acf8938287", "addresses": ["3M7HCZLuHQdQEQ3GHoCwicgB9YaP7wFAaW"], "asm": "OP_HASH160 d5011ff51be18a5ecbe1062e580e4eb2acf89382 OP_EQUAL", "type": "scripthash"}, "value": 0.0101, "n": 0}, {"scriptPubKey": {"reqSigs": 1, "hex": "a914120cc6cc286eddd4d6170e75f35e3412738ff10f87", "addresses": ["33LTPj8NbJxsCoDua4BZAXDShApHAGEhN6"], "asm": "OP_HASH160 120cc6cc286eddd4d6170e75f35e3412738ff10f OP_EQUAL", "type": "scripthash"}, "value": 12.42415545, "n": 1}, {"scriptPubKey": {"reqSigs": 1, "hex": "a91469f37564e844a8a359cc6df5c7c86908e5353bfb87", "addresses": ["3BMEXV2UPgRyHSevc787FYvc5unrC3smXn"], "asm": "OP_HASH160 69f37564e844a8a359cc6df5c7c86908e5353bfb OP_EQUAL", "type": "scripthash"}, "value": 0.005, "n": 2}, {"scriptPubKey": {"reqSigs": 1, "hex": "a91469f375ca840ecf5d9e4e88d9141ab06bad561c3787", "addresses": ["3BMEXbGrtk7VJACazCP2aFB1L1K7ZN5sTx"], "asm": "OP_HASH160 69f375ca840ecf5d9e4e88d9141ab06bad561c37 OP_EQUAL", "type": "scripthash"}, "value": 0.599, "n": 3}, {"scriptPubKey": {"reqSigs": 1, "hex": "76a91456e07ec8ea4533166522402b9e1f554256805e3f88ac", "addresses": ["18vN3hfP9uaJ5AmCkifTPHje4F4iRq2kLo"], "asm": "OP_DUP OP_HASH160 56e07ec8ea4533166522402b9e1f554256805e3f OP_EQUALVERIFY OP_CHECKSIG", "type": "pubkeyhash"}, "value": 0.0268, "n": 4}], "hex": "010000000001014ea3827c53f1fd98228be179b46c9dcae332c2e3052a80c8488a1d3950a2aec404000000232200202fded2d23ea0631f1fc4ea68726d70af67fc199120e342653aeae699a2e0dad8ffffffff0550690f000000000017a914d5011ff51be18a5ecbe1062e580e4eb2acf8938287b9c10d4a0000000017a914120cc6cc286eddd4d6170e75f35e3412738ff10f8720a107000000000017a91469f37564e844a8a359cc6df5c7c86908e5353bfb87600092030000000017a91469f375ca840ecf5d9e4e88d9141ab06bad561c3787c0e42800000000001976a91456e07ec8ea4533166522402b9e1f554256805e3f88ac04004830450221008a1fdfe01445dab6f9b49e6b685295212fe37170e50de714033637d1487070db0220088387b83127eb3848b6bf2d3d16f79a8cb042889f32ff60ed128c647d9a92cd01483045022100ad2f6dae01f7450d1bd06671320e35241e3452f934bfb733acc51bd67d7ef11d02206db891d773d5a179df3261f646adf83954bc9ccc78cbdb13acef19950efcfebc016952210376fd1e840ad00a1b7302e5a3ab2b0002b028575a41f8eebb45cd872c5e6b714221032de6aa2547202fc27320134c5d7064e0e6110962c43c1a3fb12d9b07a2d45ae321038da4af7e7aeff672706ba0cf5bbcdab4d5417b3bef019e7e5a028450c4d6ad4253ae00000000", "vin": [{"txinwitness": ["", "30450221008a1fdfe01445dab6f9b49e6b685295212fe37170e50de714033637d1487070db0220088387b83127eb3848b6bf2d3d16f79a8cb042889f32ff60ed128c647d9a92cd01", "3045022100ad2f6dae01f7450d1bd06671320e35241e3452f934bfb733acc51bd67d7ef11d02206db891d773d5a179df3261f646adf83954bc9ccc78cbdb13acef19950efcfebc01", "52210376fd1e840ad00a1b7302e5a3ab2b0002b028575a41f8eebb45cd872c5e6b714221032de6aa2547202fc27320134c5d7064e0e6110962c43c1a3fb12d9b07a2d45ae321038da4af7e7aeff672706ba0cf5bbcdab4d5417b3bef019e7e5a028450c4d6ad4253ae"], "sequence": 4294967295, "scriptSig": {"hex": "2200202fded2d23ea0631f1fc4ea68726d70af67fc199120e342653aeae699a2e0dad8", "asm": "00202fded2d23ea0631f1fc4ea68726d70af67fc199120e342653aeae699a2e0dad8"}, "vout": 4, "txid": "c4aea250391d8a48c8802a05e3c232e3ca9d6cb479e18b2298fdf1537c82a34e"}], "txid": "0b8098983e26c475d0f76f3a463d69c0058e17f137de4d052e399c934545149a", "blocktime": 1537873282, "version": 1, "confirmations": 11484, "time": 1537873282, "locktime": 0, "vsize": 312, "size": 504}