{"hash": "0b827811d656bc1c0c5d5ece656bf6adeb072f25616e0f881ce68e5c93bd7bc3", "blockhash": "00000000000000000004ffacab907a6b429b9a5745fa0b75af4234bf69dd7176", "vout": [{"scriptPubKey": {"reqSigs": 1, "hex": "a9147676db43fea61814cf0e2317b5e9b336054f8a2e87", "addresses": ["3CVQ3UUjD29fVRNRCSRd1jmJ4aSvm24CuY"], "asm": "OP_HASH160 7676db43fea61814cf0e2317b5e9b336054f8a2e OP_EQUAL", "type": "scripthash"}, "value": 1.99352805, "n": 0}], "hex": "010000000140fe12f25f6c458e7ee1108c5ef8590eaf128629fd97b2917f3b7669bee9702a07000000fc00473044022029ace68379a18a85111f3cfee3f7e7ff070d31cdee1df713303cf352de88891602203ab9f75285f73eac93ed452852fb77db12d9cdeb43e6abdced7c4c9964850eee0147304402202994a79436a3db2ac29639ed716ce0a7e74ef3a8dc00e051a66d5967870ab3a50220199f5b84799429283fa6c75f0d0ea73bd96425a20b9471b947be2d1e26d88be9014c695221032c381e2b11062abf082a55f70d02e08ed3a46fe386d193b32bdac0772d3ff5b221024713bc3ba65a08c60a1ecf5372ab61bd27675d8890d11a3efbc6a161e49cf2c921020db70401d6f74943ecba08faa7c63c69ee1803b3cf8b62d25916779b92278f2353aeffffffff01e5e1e10b0000000017a9147676db43fea61814cf0e2317b5e9b336054f8a2e8717490800", "vin": [{"sequence": 4294967295, "scriptSig": {"hex": "00473044022029ace68379a18a85111f3cfee3f7e7ff070d31cdee1df713303cf352de88891602203ab9f75285f73eac93ed452852fb77db12d9cdeb43e6abdced7c4c9964850eee0147304402202994a79436a3db2ac29639ed716ce0a7e74ef3a8dc00e051a66d5967870ab3a50220199f5b84799429283fa6c75f0d0ea73bd96425a20b9471b947be2d1e26d88be9014c695221032c381e2b11062abf082a55f70d02e08ed3a46fe386d193b32bdac0772d3ff5b221024713bc3ba65a08c60a1ecf5372ab61bd27675d8890d11a3efbc6a161e49cf2c921020db70401d6f74943ecba08faa7c63c69ee1803b3cf8b62d25916779b92278f2353ae", "asm": "0 3044022029ace68379a18a85111f3cfee3f7e7ff070d31cdee1df713303cf352de88891602203ab9f75285f73eac93ed452852fb77db12d9cdeb43e6abdced7c4c9964850eee[ALL] 304402202994a79436a3db2ac29639ed716ce0a7e74ef3a8dc00e051a66d5967870ab3a50220199f5b84799429283fa6c75f0d0ea73bd96425a20b9471b947be2d1e26d88be9[ALL] 5221032c381e2b11062abf082a55f70d02e08ed3a46fe386d193b32bdac0772d3ff5b221024713bc3ba65a08c60a1ecf5372ab61bd27675d8890d11a3efbc6a161e49cf2c921020db70401d6f74943ecba08faa7c63c69ee1803b3cf8b62d25916779b92278f2353ae"}, "vout": 7, "txid": "2a70e9be69763b7f91b297fd298612af0e59f85e8c10e17e8e456c5ff212fe40"}], "txid": "0b827811d656bc1c0c5d5ece656bf6adeb072f25616e0f881ce68e5c93bd7bc3", "blocktime": 1537875543, "version": 1, "confirmations": 11464, "time": 1537875543, "locktime": 542999, "vsize": 335, "size": 335}