{"hash": "0b84e319204a9e8dd2e2943d49ec8da4e92b7186b04955f293de24409ee4f5bd", "blockhash": "00000000000000000004ffacab907a6b429b9a5745fa0b75af4234bf69dd7176", "vout": [{"scriptPubKey": {"reqSigs": 1, "hex": "a9149a72be593df2ce19e9314a58363e13a9a770715787", "addresses": ["3FmfScAttEJCfgzRbtoyLwZirdcPuYBrQF"], "asm": "OP_HASH160 9a72be593df2ce19e9314a58363e13a9a7707157 OP_EQUAL", "type": "scripthash"}, "value": 0.00101352, "n": 0}, {"scriptPubKey": {"reqSigs": 1, "hex": "76a914391532aedfd0073ac0e85bc18eb76557f60bde1988ac", "addresses": ["16CpuoAHxPuoGSHrNGtauJB9Yt2t6Lq1JL"], "asm": "OP_DUP OP_HASH160 391532aedfd0073ac0e85bc18eb76557f60bde19 OP_EQUALVERIFY OP_CHECKSIG", "type": "pubkeyhash"}, "value": 0.00398096, "n": 1}], "hex": "0100000001a89938a51caa5e0e11bd2fbee4c4e1a9c9bb801abc7b51b685f3efd88cfaa49c010000006a47304402207507da4d9614ef4591c5f47ee9ea2f7db4b2b68a7e1327f05bc3b1f7ccd39e0302207c677a533069f2f67c341a80a899eba559da8a3c75eff1177509bdff0a6d0272012103bc6174a64b8ccf656caaf6dad403e3bfbefdb3a79453396a3f8f75f66dc49299fdffffff02e88b01000000000017a9149a72be593df2ce19e9314a58363e13a9a77071578710130600000000001976a914391532aedfd0073ac0e85bc18eb76557f60bde1988ac16490800", "vin": [{"sequence": 4294967293, "scriptSig": {"hex": "47304402207507da4d9614ef4591c5f47ee9ea2f7db4b2b68a7e1327f05bc3b1f7ccd39e0302207c677a533069f2f67c341a80a899eba559da8a3c75eff1177509bdff0a6d0272012103bc6174a64b8ccf656caaf6dad403e3bfbefdb3a79453396a3f8f75f66dc49299", "asm": "304402207507da4d9614ef4591c5f47ee9ea2f7db4b2b68a7e1327f05bc3b1f7ccd39e0302207c677a533069f2f67c341a80a899eba559da8a3c75eff1177509bdff0a6d0272[ALL] 03bc6174a64b8ccf656caaf6dad403e3bfbefdb3a79453396a3f8f75f66dc49299"}, "vout": 1, "txid": "9ca4fa8cd8eff385b6517bbc1a80bbc9a9e1c4e4be2fbd110e5eaa1ca53899a8"}], "txid": "0b84e319204a9e8dd2e2943d49ec8da4e92b7186b04955f293de24409ee4f5bd", "blocktime": 1537875543, "version": 1, "confirmations": 11464, "time": 1537875543, "locktime": 542998, "vsize": 223, "size": 223}