{"hash": "f56b4e9544521b0fe0a22b58bfd0da8be774e461ffab19e047e2d1e6a1d3c3c1", "blockhash": "0000000000000000000dcc0f55137456b1a82d3642486a52398922ac4d620174", "vout": [{"scriptPubKey": {"reqSigs": 1, "hex": "76a914e5978afe0f757768464c772fdcbc4aba605f76b388ac", "addresses": ["1MvyHKPxtE11PYFXd6Y3hr6b8qUiDHfoYP"], "asm": "OP_DUP OP_HASH160 e5978afe0f757768464c772fdcbc4aba605f76b3 OP_EQUALVERIFY OP_CHECKSIG", "type": "pubkeyhash"}, "value": 0.01135336, "n": 0}, {"scriptPubKey": {"reqSigs": 1, "hex": "a9141b0b0f0dbcb2daabf9b8baf45873951f3088c93387", "addresses": ["34A1R6tQFtweZXLEV2PLEXHYsFGd79416h"], "asm": "OP_HASH160 1b0b0f0dbcb2daabf9b8baf45873951f3088c933 OP_EQUAL", "type": "scripthash"}, "value": 0.23046403, "n": 1}], "hex": "01000000000101af8363fc50f31794f607b87c6cbfe4ca1a865ff05d7283f0751f1cb29ccb87cb00000000232200200208f97aaaef757a901820142345dd94b23affeec32366b174a1c03ec68faf39ffffffff02e8521100000000001976a914e5978afe0f757768464c772fdcbc4aba605f76b388ac03a95f010000000017a9141b0b0f0dbcb2daabf9b8baf45873951f3088c93387040047304402203d7b4dc714b3469795d42deb1e2cd75154e90a31da967a60bae92a3ebe42a3d70220606ac2f68afb5166571ff369e52f70412892457ad7275e648c432fa1ba82b2a201473044022007cb59ebd7c5324ab892252c9a19c617465470c78219bdcfbd9c2da40f66acb902201c4aa3f72b25eb39430b78d24c9811963141a630ae2ceb103897329ab559048f0147522103fe73d63f16b3097fea214f25a29ad5a79e7f2afebfa0e7ab5b1e0b70ac5687892103f62b1d27158b53be9caeae920614d9c61c0d4e3ab8a2b8afbc8e020933c6e68352ae00000000", "vin": [{"txinwitness": ["", "304402203d7b4dc714b3469795d42deb1e2cd75154e90a31da967a60bae92a3ebe42a3d70220606ac2f68afb5166571ff369e52f70412892457ad7275e648c432fa1ba82b2a201", "3044022007cb59ebd7c5324ab892252c9a19c617465470c78219bdcfbd9c2da40f66acb902201c4aa3f72b25eb39430b78d24c9811963141a630ae2ceb103897329ab559048f01", "522103fe73d63f16b3097fea214f25a29ad5a79e7f2afebfa0e7ab5b1e0b70ac5687892103f62b1d27158b53be9caeae920614d9c61c0d4e3ab8a2b8afbc8e020933c6e68352ae"], "sequence": 4294967295, "scriptSig": {"hex": "2200200208f97aaaef757a901820142345dd94b23affeec32366b174a1c03ec68faf39", "asm": "00200208f97aaaef757a901820142345dd94b23affeec32366b174a1c03ec68faf39"}, "vout": 0, "txid": "cb87cb9cb21c1f75f083725df05f861acae4bf6c7cb807f69417f350fc6383af"}], "txid": "0b844d6406ab2cdc6520f5b27b094931a80eb96880d7ed67554d83a5fe8c5322", "blocktime": 1537870268, "version": 1, "confirmations": 11518, "time": 1537870268, "locktime": 0, "vsize": 207, "size": 372}