{"hash": "0b88dcd43ac6803730fdf58547478f161ee4df7179542b1be34503dbae197343", "blockhash": "000000000000000000205f8b0775d31398ef75b89a5e8ec8d2c57b4dc0ac4c20", "vout": [{"scriptPubKey": {"reqSigs": 1, "hex": "76a914d6e0e459ee0bdc39d4e905a7e18d97cbf4f60a8b88ac", "addresses": ["1LbB1peuvFVunN6HNjdcnPQZqLVsYsnmpz"], "asm": "OP_DUP OP_HASH160 d6e0e459ee0bdc39d4e905a7e18d97cbf4f60a8b OP_EQUALVERIFY OP_CHECKSIG", "type": "pubkeyhash"}, "value": 0.00078104, "n": 0}, {"scriptPubKey": {"reqSigs": 1, "hex": "76a9142d02e268ed7aeb4458fd525497f81c7962fdcd0688ac", "addresses": ["156zs3cAmo2uGVJoyNK8cDtswgd4oNiHcZ"], "asm": "OP_DUP OP_HASH160 2d02e268ed7aeb4458fd525497f81c7962fdcd06 OP_EQUALVERIFY OP_CHECKSIG", "type": "pubkeyhash"}, "value": 0.44865405, "n": 1}], "hex": "0100000001ec716bf8da3059977b47335a51f3abe3e7f5a558cce387261c4d42925f8fbf6f010000006a473044022016eb9c2c103ddb6794d9e1dfd4dcabdb046ad43261dd8e8080f46d37771aeddf02205a902af991f8ae206c5c26d55f42451a31805161cf449277b509340cc77c482c0121028816eac98136b5bce4e1b24ecd46f8bbe7b497448b5f9687ac83d4f12f8db313ffffffff0218310100000000001976a914d6e0e459ee0bdc39d4e905a7e18d97cbf4f60a8b88ac7d97ac02000000001976a9142d02e268ed7aeb4458fd525497f81c7962fdcd0688ac00000000", "vin": [{"sequence": 4294967295, "scriptSig": {"hex": "473044022016eb9c2c103ddb6794d9e1dfd4dcabdb046ad43261dd8e8080f46d37771aeddf02205a902af991f8ae206c5c26d55f42451a31805161cf449277b509340cc77c482c0121028816eac98136b5bce4e1b24ecd46f8bbe7b497448b5f9687ac83d4f12f8db313", "asm": "3044022016eb9c2c103ddb6794d9e1dfd4dcabdb046ad43261dd8e8080f46d37771aeddf02205a902af991f8ae206c5c26d55f42451a31805161cf449277b509340cc77c482c[ALL] 028816eac98136b5bce4e1b24ecd46f8bbe7b497448b5f9687ac83d4f12f8db313"}, "vout": 1, "txid": "6fbf8f5f92424d1c2687e3cc58a5f5e7e3abf3515a33477b975930daf86b71ec"}], "txid": "0b88dcd43ac6803730fdf58547478f161ee4df7179542b1be34503dbae197343", "blocktime": 1537871175, "version": 1, "confirmations": 11511, "time": 1537871175, "locktime": 0, "vsize": 225, "size": 225}