{"hash": "0b89ce8388fecd7e8a42b3e377dc99296e5b4d1c8d035c2d63618df166277ca9", "blockhash": "00000000000000000018f53835495a110e01622372bf6ae95dc86f2b0ab887b0", "vout": [{"scriptPubKey": {"reqSigs": 1, "hex": "76a9143e0d28b97d0e0eb8d3834104b70daf871713ed2d88ac", "addresses": ["16f6fCjvqeCmpnrFK8M7B7QNjfV94CGPRv"], "asm": "OP_DUP OP_HASH160 3e0d28b97d0e0eb8d3834104b70daf871713ed2d OP_EQUALVERIFY OP_CHECKSIG", "type": "pubkeyhash"}, "value": 0.00031169, "n": 0}, {"scriptPubKey": {"type": "nulldata", "hex": "6a4c500000778500011343bf3df5a55b4c8efc4953bcbefa6b8351586b4e86aeaeacb577c031fc02ef87d56d6274dc15270394bd3085cd5baa0b420613f088758564294bbf23acfcfaac8058b692fe6808c31d", "asm": "OP_RETURN 0000778500011343bf3df5a55b4c8efc4953bcbefa6b8351586b4e86aeaeacb577c031fc02ef87d56d6274dc15270394bd3085cd5baa0b420613f088758564294bbf23acfcfaac8058b692fe6808c31d"}, "value": 0.0, "n": 1}], "hex": "0100000001dae3ab5c622e604483d1c82a03afa755fc899a6fbe23e7ff6bb5b71610696416010000006b483045022100df3f2a6720f42a54ce1af88c71db6d9ff3da352e762e632953a7b5f9c4d0f6b002205a66c5aa61834282bc7e4cace5145ed32b8488901698bc38c33257dd7dc9523b012103b4957a99df62621ad0e2c3c546209aa50442a9633e98f6b12bd5f6c68df38963ffffffff02c1790000000000001976a9143e0d28b97d0e0eb8d3834104b70daf871713ed2d88ac0000000000000000536a4c500000778500011343bf3df5a55b4c8efc4953bcbefa6b8351586b4e86aeaeacb577c031fc02ef87d56d6274dc15270394bd3085cd5baa0b420613f088758564294bbf23acfcfaac8058b692fe6808c31d00000000", "vin": [{"sequence": 4294967295, "scriptSig": {"hex": "483045022100df3f2a6720f42a54ce1af88c71db6d9ff3da352e762e632953a7b5f9c4d0f6b002205a66c5aa61834282bc7e4cace5145ed32b8488901698bc38c33257dd7dc9523b012103b4957a99df62621ad0e2c3c546209aa50442a9633e98f6b12bd5f6c68df38963", "asm": "3045022100df3f2a6720f42a54ce1af88c71db6d9ff3da352e762e632953a7b5f9c4d0f6b002205a66c5aa61834282bc7e4cace5145ed32b8488901698bc38c33257dd7dc9523b[ALL] 03b4957a99df62621ad0e2c3c546209aa50442a9633e98f6b12bd5f6c68df38963"}, "vout": 1, "txid": "1664691016b7b56bffe723be6f9a89fc55a7af032ac8d18344602e625cabe3da"}], "txid": "0b89ce8388fecd7e8a42b3e377dc99296e5b4d1c8d035c2d63618df166277ca9", "blocktime": 1537870928, "version": 1, "confirmations": 11512, "time": 1537870928, "locktime": 0, "vsize": 284, "size": 284}