{"hash": "a11d35256225516dd33c79ef9520e2c0be244fd139aa617ccf0a055dce59e29a", "blockhash": "0000000000000000000e13cef7c366c0283d82e591d1acd082e914b08063cdf1", "vout": [{"scriptPubKey": {"reqSigs": 1, "hex": "001419b6205cadafd23b28705ba36e387aea83cd68e8", "addresses": ["bc1qrxmzqh9d4lfrk2rstw3kuwr6a2pu668gmxyapv"], "asm": "0 19b6205cadafd23b28705ba36e387aea83cd68e8", "type": "witness_v0_keyhash"}, "value": 0.00029574, "n": 0}, {"scriptPubKey": {"reqSigs": 1, "hex": "76a91459541425f08f2bffb87f8f9ba8bca23d9ffa6dec88ac", "addresses": ["199KrxtngGm6KprjVjSaZt9ssakR8oG3ES"], "asm": "OP_DUP OP_HASH160 59541425f08f2bffb87f8f9ba8bca23d9ffa6dec OP_EQUALVERIFY OP_CHECKSIG", "type": "pubkeyhash"}, "value": 0.00156055, "n": 1}], "hex": "01000000000101e870bbea8bb93979f1564545ccde9aeccdb7d036581128f6581c976f01410a06f9030000171600145c32e328a812d1a2ee218a351f6dbe5ec54a8b07ffffffff02867300000000000016001419b6205cadafd23b28705ba36e387aea83cd68e897610200000000001976a91459541425f08f2bffb87f8f9ba8bca23d9ffa6dec88ac0247304402201623f28d703e60e6e46b7a72aa811b8e1821fa9ea2e285692a95f675cbfa4ed402201b787f1607139f93f4a107a19b86f3b1decba040d5b25bb2583ffcdfb3b1ebd60121021d70ec597efaa239d205eed6510a319df537ce4e6edd490eb28193127b4f33a800000000", "vin": [{"txinwitness": ["304402201623f28d703e60e6e46b7a72aa811b8e1821fa9ea2e285692a95f675cbfa4ed402201b787f1607139f93f4a107a19b86f3b1decba040d5b25bb2583ffcdfb3b1ebd601", "021d70ec597efaa239d205eed6510a319df537ce4e6edd490eb28193127b4f33a8"], "sequence": 4294967295, "scriptSig": {"hex": "1600145c32e328a812d1a2ee218a351f6dbe5ec54a8b07", "asm": "00145c32e328a812d1a2ee218a351f6dbe5ec54a8b07"}, "vout": 1017, "txid": "060a41016f971c58f628115836d0b7cdec9adecc454556f17939b98beabb70e8"}], "txid": "0b9795a199f6356b82c476701d004b3def023286148b2b09041be26e8fa6c1a7", "blocktime": 1537871767, "version": 1, "confirmations": 11495, "time": 1537871767, "locktime": 0, "vsize": 167, "size": 248}