{"hash": "8845cca381335812a2e0caa5ee45847e9dc260f1e73879c9e2531bb0e6b0804e", "blockhash": "00000000000000000017f5eb5941039fbcee6240d03bc1f2f8e35350df66a1d8", "vout": [{"scriptPubKey": {"reqSigs": 1, "hex": "a914d5c6d0e2921465d1868389c363a771719ba9be0d87", "addresses": ["3MBN2NuaKuSDorGB9KzsUZyDzmiYtnFs4g"], "asm": "OP_HASH160 d5c6d0e2921465d1868389c363a771719ba9be0d OP_EQUAL", "type": "scripthash"}, "value": 0.01148528, "n": 0}, {"scriptPubKey": {"reqSigs": 1, "hex": "76a91466f1ee682f487c72ab88350f089edd3915067f5688ac", "addresses": ["1APKkFJMbi2h37yjcGPE7VUh2nHdUvbVps"], "asm": "OP_DUP OP_HASH160 66f1ee682f487c72ab88350f089edd3915067f56 OP_EQUALVERIFY OP_CHECKSIG", "type": "pubkeyhash"}, "value": 0.0024366, "n": 1}], "hex": "02000000000102dacf7361a00a6d6f228c33164e06ec18191ec1a71bcdef26afb5db186ba657f60d0000001716001444d1303533ad473f51a845adc527ae9d732ec256feffffffe0f54561e84a8750aa3a279466fe3e7892227fb4079ddf1ac5294ff0594c5d8a0000000017160014c9c393802169bdd24f2dfeacce0377e0769d4334feffffff02708611000000000017a914d5c6d0e2921465d1868389c363a771719ba9be0d87ccb70300000000001976a91466f1ee682f487c72ab88350f089edd3915067f5688ac0247304402207edb43f3b1975507b2a008ee59fdfc0155e36ef4fc29efb0b2529970e4f41c7402206d67bb5e833a5b30f6db4dc87d062f092fd0e8faada705ae473ee0ecf1fe225a0121032ac0fbeb4a466316f3eab982dcce567c830e6e88914546d9a1982f458ec239f0024730440220709408fbb141221a8cff96c8036c64849c3f80f24de504811f7e1eb8778e311d02206bcd2f22abef29bb4d69c23ae7ca0abddc0fdecafc2f3245aa5c7b44970468ab012102b4db5eedfa464cf94b9566eb0024eb9ec304c9095055a5dde3379b83681d8d7415490800", "vin": [{"txinwitness": ["304402207edb43f3b1975507b2a008ee59fdfc0155e36ef4fc29efb0b2529970e4f41c7402206d67bb5e833a5b30f6db4dc87d062f092fd0e8faada705ae473ee0ecf1fe225a01", "032ac0fbeb4a466316f3eab982dcce567c830e6e88914546d9a1982f458ec239f0"], "sequence": 4294967294, "scriptSig": {"hex": "16001444d1303533ad473f51a845adc527ae9d732ec256", "asm": "001444d1303533ad473f51a845adc527ae9d732ec256"}, "vout": 13, "txid": "f657a66b18dbb5af26efcd1ba7c11e1918ec064e16338c226f6d0aa06173cfda"}, {"txinwitness": ["30440220709408fbb141221a8cff96c8036c64849c3f80f24de504811f7e1eb8778e311d02206bcd2f22abef29bb4d69c23ae7ca0abddc0fdecafc2f3245aa5c7b44970468ab01", "02b4db5eedfa464cf94b9566eb0024eb9ec304c9095055a5dde3379b83681d8d74"], "sequence": 4294967294, "scriptSig": {"hex": "160014c9c393802169bdd24f2dfeacce0377e0769d4334", "asm": "0014c9c393802169bdd24f2dfeacce0377e0769d4334"}, "vout": 0, "txid": "8a5d4c59f04f29c51adf9d07b47f2292783efe6694273aaa50874ae86145f5e0"}], "txid": "0b98a7fb90f4404c02ff637a2786bf373d152b426b5e2139a56e4b28e4dfe979", "blocktime": 1537874412, "version": 2, "confirmations": 11468, "time": 1537874412, "locktime": 542997, "vsize": 258, "size": 420}