{"hash": "0b99f726dfebb05ca2b48e28791b7a65172529b75cc7e1a84eb5b9d9fc26018a", "blockhash": "0000000000000000001e0dab787dd257d1dbfcb92a98c2207d5e1078be1f4165", "vout": [{"scriptPubKey": {"reqSigs": 1, "hex": "76a914022aa180571b8b411ec15a70a51015e238f5055c88ac", "addresses": ["1CTRRpzTtfaBnh81QE6gGoNF7LKaiPMYq"], "asm": "OP_DUP OP_HASH160 022aa180571b8b411ec15a70a51015e238f5055c OP_EQUALVERIFY OP_CHECKSIG", "type": "pubkeyhash"}, "value": 0.00406734, "n": 0}, {"scriptPubKey": {"reqSigs": 1, "hex": "a9143e345f39cbd241a94c312d98a2041f6fd4de8f1287", "addresses": ["37MvZJhJjYPmF6X3o9y9kniUNDrZKjkxGz"], "asm": "OP_HASH160 3e345f39cbd241a94c312d98a2041f6fd4de8f12 OP_EQUAL", "type": "scripthash"}, "value": 0.00104326, "n": 1}], "hex": "01000000012dfb999bec8295879142b42173062fa2faaaacf2965a6c62e08af3cbfeeb0f0301000000fdfd0000483045022100de62f4b9030a6f244b866e3cd452d82d6e0a8751b73b2119d97c6fe5852e8db2022052d6edb7de4538d631f1be5f2686f1162b981b00a89500ae5b8ddd353e2c0868014730440220702b6c421006c449f79dcc8004467cf9bc7700d5ef391b8c5ed122549d815c0d02207af498c5fb6f5bdbb240b8c2cb9a5ac3775bef721d991546f8cd143212208dc1014c695221024f1e7bdbed25e5de8b61c18e305f58dbc4bb9a542e16a71eaeaa441f094058a22102f4cd7c21ae4b0c5e8ef1f7a8e31dbdea216c4651400e34bba3247f39b129ff4f2103d0fd25661e06db14a8c5fbca95c9ce28259c4b6f63c834a8d8e92a8af75c737053aeffffffff02ce340600000000001976a914022aa180571b8b411ec15a70a51015e238f5055c88ac869701000000000017a9143e345f39cbd241a94c312d98a2041f6fd4de8f128700000000", "vin": [{"sequence": 4294967295, "scriptSig": {"hex": "00483045022100de62f4b9030a6f244b866e3cd452d82d6e0a8751b73b2119d97c6fe5852e8db2022052d6edb7de4538d631f1be5f2686f1162b981b00a89500ae5b8ddd353e2c0868014730440220702b6c421006c449f79dcc8004467cf9bc7700d5ef391b8c5ed122549d815c0d02207af498c5fb6f5bdbb240b8c2cb9a5ac3775bef721d991546f8cd143212208dc1014c695221024f1e7bdbed25e5de8b61c18e305f58dbc4bb9a542e16a71eaeaa441f094058a22102f4cd7c21ae4b0c5e8ef1f7a8e31dbdea216c4651400e34bba3247f39b129ff4f2103d0fd25661e06db14a8c5fbca95c9ce28259c4b6f63c834a8d8e92a8af75c737053ae", "asm": "0 3045022100de62f4b9030a6f244b866e3cd452d82d6e0a8751b73b2119d97c6fe5852e8db2022052d6edb7de4538d631f1be5f2686f1162b981b00a89500ae5b8ddd353e2c0868[ALL] 30440220702b6c421006c449f79dcc8004467cf9bc7700d5ef391b8c5ed122549d815c0d02207af498c5fb6f5bdbb240b8c2cb9a5ac3775bef721d991546f8cd143212208dc1[ALL] 5221024f1e7bdbed25e5de8b61c18e305f58dbc4bb9a542e16a71eaeaa441f094058a22102f4cd7c21ae4b0c5e8ef1f7a8e31dbdea216c4651400e34bba3247f39b129ff4f2103d0fd25661e06db14a8c5fbca95c9ce28259c4b6f63c834a8d8e92a8af75c737053ae"}, "vout": 1, "txid": "030febfecbf38ae0626c5a96f2acaafaa22f067321b44291879582ec9b99fb2d"}], "txid": "0b99f726dfebb05ca2b48e28791b7a65172529b75cc7e1a84eb5b9d9fc26018a", "blocktime": 1537872475, "version": 1, "confirmations": 11486, "time": 1537872475, "locktime": 0, "vsize": 372, "size": 372}