{"hash": "5691765bbe28950ffeda737d122618bab68d034ab05900cfdeeb471aaf2aa3a2", "blockhash": "00000000000000000018f53835495a110e01622372bf6ae95dc86f2b0ab887b0", "vout": [{"scriptPubKey": {"reqSigs": 1, "hex": "a9149c29f28178808cfd8ff25191f93fd171ab7ad62987", "addresses": ["3Fvjb1zhjs5BAq1jGA8nfVraxUWA2xapCR"], "asm": "OP_HASH160 9c29f28178808cfd8ff25191f93fd171ab7ad629 OP_EQUAL", "type": "scripthash"}, "value": 0.002471, "n": 0}, {"scriptPubKey": {"reqSigs": 1, "hex": "a91438b65f2108141a61fbd6abeffa0c7c0ec41c84b087", "addresses": ["36rtEgoNYD39HyFKXS5KeMitsytJkqBUvf"], "asm": "OP_HASH160 38b65f2108141a61fbd6abeffa0c7c0ec41c84b0 OP_EQUAL", "type": "scripthash"}, "value": 0.04211, "n": 1}, {"scriptPubKey": {"reqSigs": 1, "hex": "76a91451c3cd6599d7a59d0bccf651fe5eeec04766e09488ac", "addresses": ["18TLJ87yvVG8wPBcH6XRDitegmXVxkooA6"], "asm": "OP_DUP OP_HASH160 51c3cd6599d7a59d0bccf651fe5eeec04766e094 OP_EQUALVERIFY OP_CHECKSIG", "type": "pubkeyhash"}, "value": 0.00062522, "n": 2}, {"scriptPubKey": {"reqSigs": 1, "hex": "a914b928843f50c1ec2c078a113a67dbd36e8502d2ec87", "addresses": ["3Ja3UB5DnAc8nJXRXEZpGQgHzqGMFAm2FT"], "asm": "OP_HASH160 b928843f50c1ec2c078a113a67dbd36e8502d2ec OP_EQUAL", "type": "scripthash"}, "value": 0.0305, "n": 3}, {"scriptPubKey": {"reqSigs": 1, "hex": "a9149fd078c6fd068f87bbeb5a30d83d39ddb88b407587", "addresses": ["3GG36vDtXfLAjbTgzXWudoRyEJP48tvJbm"], "asm": "OP_HASH160 9fd078c6fd068f87bbeb5a30d83d39ddb88b4075 OP_EQUAL", "type": "scripthash"}, "value": 0.00385814, "n": 4}, {"scriptPubKey": {"reqSigs": 1, "hex": "a914ce46d27139ca38e7133737105deb75026434c5b187", "addresses": ["3LVhxryW3GaYh4rwRNoM8MhxCzU98PizZd"], "asm": "OP_HASH160 ce46d27139ca38e7133737105deb75026434c5b1 OP_EQUAL", "type": "scripthash"}, "value": 0.00995125, "n": 5}, {"scriptPubKey": {"reqSigs": 1, "hex": "a9141c70d3881f70235c69cc17063003e6a6b61bf00887", "addresses": ["34HQ1Dv1c7oAx2H5z1WwzL79PZEzVYdvcY"], "asm": "OP_HASH160 1c70d3881f70235c69cc17063003e6a6b61bf008 OP_EQUAL", "type": "scripthash"}, "value": 0.00294281, "n": 6}, {"scriptPubKey": {"reqSigs": 1, "hex": "76a9142e70ae1a114b05555880591184b6ea03a2b4224388ac", "addresses": ["15EZ4yUneFFHz2ojtxeQh5pxb8stPrWHLU"], "asm": "OP_DUP OP_HASH160 2e70ae1a114b05555880591184b6ea03a2b42243 OP_EQUALVERIFY OP_CHECKSIG", "type": "pubkeyhash"}, "value": 0.01006798, "n": 7}, {"scriptPubKey": {"reqSigs": 1, "hex": "a91441fa82dc615cc4314e66e6d6d7034ee296cf0ae087", "addresses": ["37hswqLwfZMcTc3SmFKowu8MtSr5ccsmj3"], "asm": "OP_HASH160 41fa82dc615cc4314e66e6d6d7034ee296cf0ae0 OP_EQUAL", "type": "scripthash"}, "value": 0.00213045, "n": 8}, {"scriptPubKey": {"reqSigs": 1, "hex": "a9146265c6d04b34cc930f02ccdb61fcb07db947650587", "addresses": ["3AfJ4uXJACd8EGshepBEQ4X1Q3DiJmZYqz"], "asm": "OP_HASH160 6265c6d04b34cc930f02ccdb61fcb07db9476505 OP_EQUAL", "type": "scripthash"}, "value": 0.00016626, "n": 9}, {"scriptPubKey": {"reqSigs": 1, "hex": "a914727d838ebde0d80e363823ff7e1dfe4bc645052387", "addresses": ["3C8PKGfRZVrsvwwtw5g2HsaWWeK35rzwyA"], "asm": "OP_HASH160 727d838ebde0d80e363823ff7e1dfe4bc6450523 OP_EQUAL", "type": "scripthash"}, "value": 0.00326808, "n": 10}, {"scriptPubKey": {"reqSigs": 1, "hex": "a914e44b69c0bc9bbc234c2b0e3bb04e37f9f6315fe287", "addresses": ["3NW8L5JMbgFsqZC6pigFK4AmLd4rmhZXR6"], "asm": "OP_HASH160 e44b69c0bc9bbc234c2b0e3bb04e37f9f6315fe2 OP_EQUAL", "type": "scripthash"}, "value": 0.00293857, "n": 11}, {"scriptPubKey": {"reqSigs": 1, "hex": "a914017f498a34696e6c3c03363e950c160a045431f987", "addresses": ["31pw5ovTD5drMNc7Wg3ZSepB4KzxPiScrX"], "asm": "OP_HASH160 017f498a34696e6c3c03363e950c160a045431f9 OP_EQUAL", "type": "scripthash"}, "value": 0.0040113, "n": 12}, {"scriptPubKey": {"reqSigs": 1, "hex": "a914aa3c092e4a7f59e817e438e05116a117a3bed2d787", "addresses": ["3HD8iX6pNU68fYv8MaQcehLnvWq8T1nATq"], "asm": "OP_HASH160 aa3c092e4a7f59e817e438e05116a117a3bed2d7 OP_EQUAL", "type": "scripthash"}, "value": 0.0043946, "n": 13}, {"scriptPubKey": {"reqSigs": 1, "hex": "a914d5e12711dbcfeeebeacbde90a4aa596ba3c094fa87", "addresses": ["3MBuaHHn4VpzVPror5sD3wvqbgnse4qXED"], "asm": "OP_HASH160 d5e12711dbcfeeebeacbde90a4aa596ba3c094fa OP_EQUAL", "type": "scripthash"}, "value": 0.01126113, "n": 14}, {"scriptPubKey": {"reqSigs": 1, "hex": "76a914e603d560dc43b891869607288b1c55534252095388ac", "addresses": ["1MyD1UicTcALBQVcH1eJMTNg6zcncP6k6c"], "asm": "OP_DUP OP_HASH160 e603d560dc43b891869607288b1c555342520953 OP_EQUALVERIFY OP_CHECKSIG", "type": "pubkeyhash"}, "value": 0.00597464, "n": 15}, {"scriptPubKey": {"reqSigs": 1, "hex": "a914598a92553f0337ec417710a99b7968ca84a08df087", "addresses": ["39rU4jwTRJgTVKikQekdSDscGsSxUTuKsS"], "asm": "OP_HASH160 598a92553f0337ec417710a99b7968ca84a08df0 OP_EQUAL", "type": "scripthash"}, "value": 0.0059446, "n": 16}, {"scriptPubKey": {"reqSigs": 1, "hex": "a914f7c26c6552db877ed7659faa1c6b33e67d7a9dea87", "addresses": ["3QH3jhfk4HaSEFU9wN9WeSgzLTrfzxCxzq"], "asm": "OP_HASH160 f7c26c6552db877ed7659faa1c6b33e67d7a9dea OP_EQUAL", "type": "scripthash"}, "value": 0.00238902, "n": 17}, {"scriptPubKey": {"reqSigs": 1, "hex": "76a914435273024b2e8439a32a1920deb4b5b32785312c88ac", "addresses": ["178y3XaZkbuvATE6MEP5XRSHi8N9BBM6hz"], "asm": "OP_DUP OP_HASH160 435273024b2e8439a32a1920deb4b5b32785312c OP_EQUALVERIFY OP_CHECKSIG", "type": "pubkeyhash"}, "value": 0.00382949, "n": 18}, {"scriptPubKey": {"reqSigs": 1, "hex": "a9141ff39fa1609f0d35f56bfc66c49ad2de770a191e87", "addresses": ["34bxikZm8FF7w95n9ZrzPSxMh2oot2TGYw"], "asm": "OP_HASH160 1ff39fa1609f0d35f56bfc66c49ad2de770a191e OP_EQUAL", "type": "scripthash"}, "value": 0.003273, "n": 19}, {"scriptPubKey": {"reqSigs": 1, "hex": "a9144ffcf2d755abec11397ce703ebf70aa687a9a11387", "addresses": ["38yxKsi1cRPo8KPhyfMLZh75aM58ivLc1B"], "asm": "OP_HASH160 4ffcf2d755abec11397ce703ebf70aa687a9a113 OP_EQUAL", "type": "scripthash"}, "value": 0.00527512, "n": 20}, {"scriptPubKey": {"reqSigs": 1, "hex": "a914b73fe20650f5848bd0e03799922322338229859287", "addresses": ["3JPx7JzcAHSn6SCqJEvwVyi7uZs6fE7LiG"], "asm": "OP_HASH160 b73fe20650f5848bd0e037999223223382298592 OP_EQUAL", "type": "scripthash"}, "value": 3.7025387, "n": 21}, {"scriptPubKey": {"reqSigs": 1, "hex": "76a914f16355c2b11688bf1d57b60ffcd0aa5a4854386f88ac", "addresses": ["1P1Lr9b79PgGSw5PETRCrJKRtwM25yvAhG"], "asm": "OP_DUP OP_HASH160 f16355c2b11688bf1d57b60ffcd0aa5a4854386f OP_EQUALVERIFY OP_CHECKSIG", "type": "pubkeyhash"}, "value": 0.04830616, "n": 22}, {"scriptPubKey": {"reqSigs": 1, "hex": "a914a0f88c112fd79b5756037e6fadb50c0e005fa73687", "addresses": ["3GN9nbS3kvSSVxeAn9bTvqs6j2f1qdFqxF"], "asm": "OP_HASH160 a0f88c112fd79b5756037e6fadb50c0e005fa736 OP_EQUAL", "type": "scripthash"}, "value": 0.007, "n": 23}, {"scriptPubKey": {"reqSigs": 1, "hex": "a9144a7b47f20d20ce534949783a89d2451d3a2ebec187", "addresses": ["38UqcTPgJUjVyAyRuYGmzxaXpTS54ZYosj"], "asm": "OP_HASH160 4a7b47f20d20ce534949783a89d2451d3a2ebec1 OP_EQUAL", "type": "scripthash"}, "value": 0.00183436, "n": 24}, {"scriptPubKey": {"reqSigs": 1, "hex": "a9142887eb838b7fdbfb336e76f87244f7c6336d840a87", "addresses": ["35PKn6twT2VLNLoam6HvcgL6AbwsJKsYft"], "asm": "OP_HASH160 2887eb838b7fdbfb336e76f87244f7c6336d840a OP_EQUAL", "type": "scripthash"}, "value": 0.00494486, "n": 25}, {"scriptPubKey": {"reqSigs": 1, "hex": "a914c699f86332c0c687e77f12a1accdfe9de9a0119887", "addresses": ["3Ko8AZsornpDxXBCmstX5zHbHMXzt4WNWs"], "asm": "OP_HASH160 c699f86332c0c687e77f12a1accdfe9de9a01198 OP_EQUAL", "type": "scripthash"}, "value": 0.00344, "n": 26}, {"scriptPubKey": {"reqSigs": 1, "hex": "76a914d2200194976b25804233bfa9cc0d4ac19911aee488ac", "addresses": ["1LA3F7WpugmMQbuLt2HNcbZ2R5ZX6wgtFn"], "asm": "OP_DUP OP_HASH160 d2200194976b25804233bfa9cc0d4ac19911aee4 OP_EQUALVERIFY OP_CHECKSIG", "type": "pubkeyhash"}, "value": 0.00093784, "n": 27}, {"scriptPubKey": {"reqSigs": 1, "hex": "a9140500e9056879de4fa9b54082a9346e694769d00987", "addresses": ["329UPkJXEv8acVEtqG9coe9bjpXstGu14G"], "asm": "OP_HASH160 0500e9056879de4fa9b54082a9346e694769d009 OP_EQUAL", "type": "scripthash"}, "value": 0.01227431, "n": 28}, {"scriptPubKey": {"reqSigs": 1, "hex": "a91469c2f1d8e89b1f7a6213d058008e6198fa4204f687", "addresses": ["3BLEQgXRvkS21Qty73tcsAo4vzL6N7vSWj"], "asm": "OP_HASH160 69c2f1d8e89b1f7a6213d058008e6198fa4204f6 OP_EQUAL", "type": "scripthash"}, "value": 0.01070269, "n": 29}, {"scriptPubKey": {"reqSigs": 1, "hex": "76a914098ccdbdcccf7f66016fe7587cb88346cb43c80088ac", "addresses": ["1sVkwNiGfD4xGn9psqBjda9epe2CqKmj9"], "asm": "OP_DUP OP_HASH160 098ccdbdcccf7f66016fe7587cb88346cb43c800 OP_EQUALVERIFY OP_CHECKSIG", "type": "pubkeyhash"}, "value": 0.00191036, "n": 30}, {"scriptPubKey": {"reqSigs": 1, "hex": "a914514e7131ccb5a272c93e37287d8f661e12ec0fa787", "addresses": ["396vdLdZKptFs1P6heR6TCBahgn4HV6e12"], "asm": "OP_HASH160 514e7131ccb5a272c93e37287d8f661e12ec0fa7 OP_EQUAL", "type": "scripthash"}, "value": 0.001935, "n": 31}, {"scriptPubKey": {"reqSigs": 1, "hex": "76a9146441f9c07de8e82c5855dbcac5a24a95eedae24788ac", "addresses": ["1A97cFN4DobzXzh3NukeoWHLzEeDFPaz3J"], "asm": "OP_DUP OP_HASH160 6441f9c07de8e82c5855dbcac5a24a95eedae247 OP_EQUALVERIFY OP_CHECKSIG", "type": "pubkeyhash"}, "value": 0.0240983, "n": 32}], "hex": "02000000000101809d4306e258dc26ea7724679c082ef3e68e5b30929ca52fcf3a7ab6cfc21a2f0b000000171600143d4b3317021577b6b07beb8e80613c1f5b8f7ce2feffffff213cc503000000000017a9149c29f28178808cfd8ff25191f93fd171ab7ad62987384140000000000017a91438b65f2108141a61fbd6abeffa0c7c0ec41c84b0873af40000000000001976a91451c3cd6599d7a59d0bccf651fe5eeec04766e09488ac108a2e000000000017a914b928843f50c1ec2c078a113a67dbd36e8502d2ec8716e305000000000017a9149fd078c6fd068f87bbeb5a30d83d39ddb88b407587352f0f000000000017a914ce46d27139ca38e7133737105deb75026434c5b187897d04000000000017a9141c70d3881f70235c69cc17063003e6a6b61bf00887ce5c0f00000000001976a9142e70ae1a114b05555880591184b6ea03a2b4224388ac354003000000000017a91441fa82dc615cc4314e66e6d6d7034ee296cf0ae087f24000000000000017a9146265c6d04b34cc930f02ccdb61fcb07db94765058798fc04000000000017a914727d838ebde0d80e363823ff7e1dfe4bc645052387e17b04000000000017a914e44b69c0bc9bbc234c2b0e3bb04e37f9f6315fe287ea1e06000000000017a914017f498a34696e6c3c03363e950c160a045431f987a4b406000000000017a914aa3c092e4a7f59e817e438e05116a117a3bed2d787e12e11000000000017a914d5e12711dbcfeeebeacbde90a4aa596ba3c094fa87d81d0900000000001976a914e603d560dc43b891869607288b1c55534252095388ac1c1209000000000017a914598a92553f0337ec417710a99b7968ca84a08df08736a503000000000017a914f7c26c6552db877ed7659faa1c6b33e67d7a9dea87e5d70500000000001976a914435273024b2e8439a32a1920deb4b5b32785312c88ac84fe04000000000017a9141ff39fa1609f0d35f56bfc66c49ad2de770a191e87980c08000000000017a9144ffcf2d755abec11397ce703ebf70aa687a9a113872ea011160000000017a914b73fe20650f5848bd0e0379992232233822985928798b54900000000001976a914f16355c2b11688bf1d57b60ffcd0aa5a4854386f88ac60ae0a000000000017a914a0f88c112fd79b5756037e6fadb50c0e005fa736878ccc02000000000017a9144a7b47f20d20ce534949783a89d2451d3a2ebec187968b07000000000017a9142887eb838b7fdbfb336e76f87244f7c6336d840a87c03f05000000000017a914c699f86332c0c687e77f12a1accdfe9de9a0119887586e0100000000001976a914d2200194976b25804233bfa9cc0d4ac19911aee488aca7ba12000000000017a9140500e9056879de4fa9b54082a9346e694769d00987bd5410000000000017a91469c2f1d8e89b1f7a6213d058008e6198fa4204f6873cea0200000000001976a914098ccdbdcccf7f66016fe7587cb88346cb43c80088acdcf302000000000017a914514e7131ccb5a272c93e37287d8f661e12ec0fa78766c52400000000001976a9146441f9c07de8e82c5855dbcac5a24a95eedae24788ac024830450221009899c86c2b3e4d6d6cd960fcc3163b4a49214193fe735416496bba041d42ffac0220601118f217cd2953a3fe66d9a6202489fc6dd6359f9cbde5d45d49ff1dbe3dca012103b4318ffcac9e86a2742248ee7d88f2804b4b7e70055d08279e1800634627590f0e490800", "vin": [{"txinwitness": ["30450221009899c86c2b3e4d6d6cd960fcc3163b4a49214193fe735416496bba041d42ffac0220601118f217cd2953a3fe66d9a6202489fc6dd6359f9cbde5d45d49ff1dbe3dca01", "03b4318ffcac9e86a2742248ee7d88f2804b4b7e70055d08279e1800634627590f"], "sequence": 4294967294, "scriptSig": {"hex": "1600143d4b3317021577b6b07beb8e80613c1f5b8f7ce2", "asm": "00143d4b3317021577b6b07beb8e80613c1f5b8f7ce2"}, "vout": 11, "txid": "2f1ac2cfb67a3acf2fa59c92305b8ee6f32e089c672477ea26dc58e206439d80"}], "txid": "0b99ba41354aaf1376dfb6712d8f18c861e725527faa75614777f8882119b390", "blocktime": 1537870928, "version": 2, "confirmations": 11512, "time": 1537870928, "locktime": 542990, "vsize": 1174, "size": 1256}