{"hash": "7d7fac28f95dce16036ee608b25f6301f7904e0b39a38ba56a6589c98340f56a", "blockhash": "0000000000000000000e13cef7c366c0283d82e591d1acd082e914b08063cdf1", "vout": [{"scriptPubKey": {"reqSigs": 1, "hex": "a91412bb02556defec7218ae16ccd0c5f614aec6490187", "addresses": ["33Q47cno4rgrvEsPgEPsSGXCK33RqyDR3D"], "asm": "OP_HASH160 12bb02556defec7218ae16ccd0c5f614aec64901 OP_EQUAL", "type": "scripthash"}, "value": 3.10801514, "n": 0}, {"scriptPubKey": {"reqSigs": 1, "hex": "76a91445c13b81d0656e4950aa44f9a63acadf3b19790788ac", "addresses": ["17Mq7GDGeqnTnBczKLnEXEHbqoMTjvP2LM"], "asm": "OP_DUP OP_HASH160 45c13b81d0656e4950aa44f9a63acadf3b197907 OP_EQUALVERIFY OP_CHECKSIG", "type": "pubkeyhash"}, "value": 0.07458645, "n": 1}], "hex": "020000000001014ce53bcb123867430b9e818afb49ab5985c8872a44c205c01f6b3f141683b6d000000000171600144ec5fa87f7c779bce2ae9d060ab6048161fd439ffeffffff026a7486120000000017a91412bb02556defec7218ae16ccd0c5f614aec649018755cf7100000000001976a91445c13b81d0656e4950aa44f9a63acadf3b19790788ac0247304402200e4d7d93e778e4bd94160d6fb9f71a89314d95cb5e911c03cfdafc7bab3a41f3022070f5185cac1016f2a0cfdbd5674218c4342e541b18728496aab45c2d414958ec012103c9946b4967a33bf508db21ea68bbd0c55b2af111795d69571c195c5301d7fe6e10490800", "vin": [{"txinwitness": ["304402200e4d7d93e778e4bd94160d6fb9f71a89314d95cb5e911c03cfdafc7bab3a41f3022070f5185cac1016f2a0cfdbd5674218c4342e541b18728496aab45c2d414958ec01", "03c9946b4967a33bf508db21ea68bbd0c55b2af111795d69571c195c5301d7fe6e"], "sequence": 4294967294, "scriptSig": {"hex": "1600144ec5fa87f7c779bce2ae9d060ab6048161fd439f", "asm": "00144ec5fa87f7c779bce2ae9d060ab6048161fd439f"}, "vout": 0, "txid": "d0b68316143f6b1fc005c2442a87c88559ab49fb8a819e0b43673812cb3be54c"}], "txid": "0b9a78614c1e98bae32d4f787de610ad228b7f95618acf897b5150b19ed73ecc", "blocktime": 1537871767, "version": 2, "confirmations": 11490, "time": 1537871767, "locktime": 542992, "vsize": 168, "size": 249}