{"hash": "385714be30be1dd7bcc9a8e7dafc7aaf0084623954fc3d65754eec3aef605af0", "blockhash": "00000000000000000024a2167bbff67b0be802c0b01cdd79e6331c2be6459f87", "vout": [{"scriptPubKey": {"reqSigs": 1, "hex": "a9147c85a1dfa720b9194c1a43a711472fd81fca459c87", "addresses": ["3D3RoGSWYAwSgHwY8v8nojignsCihk2hZx"], "asm": "OP_HASH160 7c85a1dfa720b9194c1a43a711472fd81fca459c OP_EQUAL", "type": "scripthash"}, "value": 0.88088128, "n": 0}, {"scriptPubKey": {"reqSigs": 1, "hex": "76a9142ac151d223027b26e3f8a12811fa8ce0d560bdee88ac", "addresses": ["14u4y94kk3FwBTiT4tLEJ7L1jgsBuF5JpH"], "asm": "OP_DUP OP_HASH160 2ac151d223027b26e3f8a12811fa8ce0d560bdee OP_EQUALVERIFY OP_CHECKSIG", "type": "pubkeyhash"}, "value": 2.0, "n": 1}], "hex": "01000000000101a8834b6a162a8ad1a84c8eb0a71f52993a869d28a58d568bb4a9a42766f56402030000001716001442a36fb13c44c8ea060c7cec227033c5a91083a6ffffffff02401e40050000000017a9147c85a1dfa720b9194c1a43a711472fd81fca459c8700c2eb0b000000001976a9142ac151d223027b26e3f8a12811fa8ce0d560bdee88ac02473044022058903f6c699cb9bcaf79b1386f6fcbb09b0b180815a823f8d6f885f2418e5a4d0220383623821cbd53e42523776a07e8b142a02bbe2f4fbc3e574b14426ea2c2ab330121037279c78afc097ed08bcdc2b26beedb4c726e01504d66192aa63a818e65fa46fb00000000", "vin": [{"txinwitness": ["3044022058903f6c699cb9bcaf79b1386f6fcbb09b0b180815a823f8d6f885f2418e5a4d0220383623821cbd53e42523776a07e8b142a02bbe2f4fbc3e574b14426ea2c2ab3301", "037279c78afc097ed08bcdc2b26beedb4c726e01504d66192aa63a818e65fa46fb"], "sequence": 4294967295, "scriptSig": {"hex": "16001442a36fb13c44c8ea060c7cec227033c5a91083a6", "asm": "001442a36fb13c44c8ea060c7cec227033c5a91083a6"}, "vout": 3, "txid": "0264f56627a4a9b48b568da5289d863a99521fa7b08e4ca8d18a2a166a4b83a8"}], "txid": "0b9c5f54ccdc29c194d88b3d00cf5c9c327889512cc17e0173144d05644bab1a", "blocktime": 1537870564, "version": 1, "confirmations": 11515, "time": 1537870564, "locktime": 0, "vsize": 168, "size": 249}