{"hash": "0b9fd3eaeb1dfc69d20e26c9ad6b9b33b2271c120e3ed591f7b56eca10ae8c74", "blockhash": "00000000000000000004ffacab907a6b429b9a5745fa0b75af4234bf69dd7176", "vout": [{"scriptPubKey": {"reqSigs": 1, "hex": "76a9148d5daf8b84dee482653a3595ca6d236811810e4888ac", "addresses": ["1DtUWSt53GR5w2JsysgftEK7CGQkp2kXs3"], "asm": "OP_DUP OP_HASH160 8d5daf8b84dee482653a3595ca6d236811810e48 OP_EQUALVERIFY OP_CHECKSIG", "type": "pubkeyhash"}, "value": 0.00767757, "n": 0}], "hex": "010000000143caaa363516ee9f3d1e11216553bc150ed8b1368f36111b94aed3269a40fd78000000006a47304402204e24ae932e5c90adad2104d2b1a2cfb3186fc4eceaae06927496d4b2e78fd4a402206b2707353de91a0fbec321b41f4e7a18cb6bf5a0d6279bce06b00378bfe2129f012103d16c7817f5d5657789cb7e7b64b8c283cca567fde2b028d45628aab407e138fcffffffff010db70b00000000001976a9148d5daf8b84dee482653a3595ca6d236811810e4888ac00000000", "vin": [{"sequence": 4294967295, "scriptSig": {"hex": "47304402204e24ae932e5c90adad2104d2b1a2cfb3186fc4eceaae06927496d4b2e78fd4a402206b2707353de91a0fbec321b41f4e7a18cb6bf5a0d6279bce06b00378bfe2129f012103d16c7817f5d5657789cb7e7b64b8c283cca567fde2b028d45628aab407e138fc", "asm": "304402204e24ae932e5c90adad2104d2b1a2cfb3186fc4eceaae06927496d4b2e78fd4a402206b2707353de91a0fbec321b41f4e7a18cb6bf5a0d6279bce06b00378bfe2129f[ALL] 03d16c7817f5d5657789cb7e7b64b8c283cca567fde2b028d45628aab407e138fc"}, "vout": 0, "txid": "78fd409a26d3ae941b11368f36b1d80e15bc536521111e3d9fee163536aaca43"}], "txid": "0b9fd3eaeb1dfc69d20e26c9ad6b9b33b2271c120e3ed591f7b56eca10ae8c74", "blocktime": 1537875543, "version": 1, "confirmations": 11464, "time": 1537875543, "locktime": 0, "vsize": 191, "size": 191}