{"hash": "0ba163351c8a1d619064b958b620f4f5ec3b86a124da7c0c7387936cbfdb51f2", "blockhash": "0000000000000000001cda96e906b7601b7a6fb1a3b62bca570a9e5d8f4b3de1", "vout": [{"scriptPubKey": {"reqSigs": 1, "hex": "76a914f4c7342bfde7fa2aa676ce819d0c37653597fdb988ac", "addresses": ["1PKGWjHUMBBstoaVViHBsLYkU4zjhpVtK9"], "asm": "OP_DUP OP_HASH160 f4c7342bfde7fa2aa676ce819d0c37653597fdb9 OP_EQUALVERIFY OP_CHECKSIG", "type": "pubkeyhash"}, "value": 0.017179, "n": 0}, {"scriptPubKey": {"reqSigs": 1, "hex": "76a914ea0c5f9fd74e65cce1933caaca5e1c8466ccb1fd88ac", "addresses": ["1NLXwckihG8RTxxM3SLjLnhcUiWf4fJgtH"], "asm": "OP_DUP OP_HASH160 ea0c5f9fd74e65cce1933caaca5e1c8466ccb1fd OP_EQUALVERIFY OP_CHECKSIG", "type": "pubkeyhash"}, "value": 1.87220481, "n": 1}], "hex": "0100000001437489ba011116f73f38eb1855fa4f857a3d51dfdb8f00c7f15486fcd248c0ec010000006a473044022067363d8514ad38fb55b20985009b6d28f244d39d6e1cfa9226ac9a43ac6a9a890220192b29d12dd39d86a2154333674aef738f833d3950a8b80673364573118c6ed00121030eee23a465e07535bc79493208bb0017bdf02639551692984fe5cd98ec56437effffffff028c361a00000000001976a914f4c7342bfde7fa2aa676ce819d0c37653597fdb988ac01c2280b000000001976a914ea0c5f9fd74e65cce1933caaca5e1c8466ccb1fd88ac00000000", "vin": [{"sequence": 4294967295, "scriptSig": {"hex": "473044022067363d8514ad38fb55b20985009b6d28f244d39d6e1cfa9226ac9a43ac6a9a890220192b29d12dd39d86a2154333674aef738f833d3950a8b80673364573118c6ed00121030eee23a465e07535bc79493208bb0017bdf02639551692984fe5cd98ec56437e", "asm": "3044022067363d8514ad38fb55b20985009b6d28f244d39d6e1cfa9226ac9a43ac6a9a890220192b29d12dd39d86a2154333674aef738f833d3950a8b80673364573118c6ed0[ALL] 030eee23a465e07535bc79493208bb0017bdf02639551692984fe5cd98ec56437e"}, "vout": 1, "txid": "ecc048d2fc8654f1c7008fdbdf513d7a854ffa5518eb383ff7161101ba897443"}], "txid": "0ba163351c8a1d619064b958b620f4f5ec3b86a124da7c0c7387936cbfdb51f2", "blocktime": 1537873282, "version": 1, "confirmations": 11484, "time": 1537873282, "locktime": 0, "vsize": 225, "size": 225}