{"hash": "046ee7b749e5e126694b0d29d573d683790ac5879aafaa15617953829dc3b88f", "blockhash": "00000000000000000017f5eb5941039fbcee6240d03bc1f2f8e35350df66a1d8", "vout": [{"scriptPubKey": {"reqSigs": 1, "hex": "a91419fb17c0af1b5119cf2212bef44b399a08cd31d187", "addresses": ["344Pca8RwyWjSbrvkrRitpbFXSXqMcn1vc"], "asm": "OP_HASH160 19fb17c0af1b5119cf2212bef44b399a08cd31d1 OP_EQUAL", "type": "scripthash"}, "value": 0.01020979, "n": 0}, {"scriptPubKey": {"reqSigs": 1, "hex": "76a914325a7aba44c6056abdff158920a604e84609195488ac", "addresses": ["15bFBDE3VAV4vaUk93HF6rsz8AoRB565Bu"], "asm": "OP_DUP OP_HASH160 325a7aba44c6056abdff158920a604e846091954 OP_EQUALVERIFY OP_CHECKSIG", "type": "pubkeyhash"}, "value": 0.000688, "n": 1}], "hex": "0200000000010131e9310c97691d755b9ac707fb34599bc61ca9bcbfae0607e99787be925320900100000017160014c18a6bdc5ce7f0b563fed6f8309723ecc15fdbbafeffffff0233940f000000000017a91419fb17c0af1b5119cf2212bef44b399a08cd31d187c00c0100000000001976a914325a7aba44c6056abdff158920a604e84609195488ac02483045022100bb166773e175c8c625a848e1dddbe432634c3d8889cad2a79a84c90676d162d002202f835e0e31110e8d292134f5a6167ece81d39444951a82b18b68f5d300e85aa60121022c6d1a85081ac799dcdd8e04aac8889238230c20ef60bdb12ae54d7c33427843e0480800", "vin": [{"txinwitness": ["3045022100bb166773e175c8c625a848e1dddbe432634c3d8889cad2a79a84c90676d162d002202f835e0e31110e8d292134f5a6167ece81d39444951a82b18b68f5d300e85aa601", "022c6d1a85081ac799dcdd8e04aac8889238230c20ef60bdb12ae54d7c33427843"], "sequence": 4294967294, "scriptSig": {"hex": "160014c18a6bdc5ce7f0b563fed6f8309723ecc15fdbba", "asm": "0014c18a6bdc5ce7f0b563fed6f8309723ecc15fdbba"}, "vout": 1, "txid": "90205392be8797e90706aebfbca91cc69b5934fb07c79a5b751d69970c31e931"}], "txid": "0ba6b13c6109ad84241ff50f613a1c22c4ff064f32039b6a4cd39f83e8d8b483", "blocktime": 1537874412, "version": 2, "confirmations": 11468, "time": 1537874412, "locktime": 542944, "vsize": 168, "size": 250}