{"hash": "0ba8d9590c63a1c3faa20f2658d6b35bd73c6ad01462afbad9493112c988502c", "blockhash": "00000000000000000018f53835495a110e01622372bf6ae95dc86f2b0ab887b0", "vout": [{"scriptPubKey": {"type": "nulldata", "hex": "6a4c500000778c0001f70b36bf1d3054d80ba3060ce3ef3236678a625097bcbefa6b8351586b4e0397d38bd4ef329276b2018db169cec95baa0c4006144be3021c8cbf1d100759d4ba30d2c37bb011d97e02cf", "asm": "OP_RETURN 0000778c0001f70b36bf1d3054d80ba3060ce3ef3236678a625097bcbefa6b8351586b4e0397d38bd4ef329276b2018db169cec95baa0c4006144be3021c8cbf1d100759d4ba30d2c37bb011d97e02cf"}, "value": 0.0, "n": 0}, {"scriptPubKey": {"reqSigs": 1, "hex": "76a91441d29d8f1885cf199feaf7a1ed453eb11daa076f88ac", "addresses": ["1713EHhszGTDN2Wben54prpRWBWwoY75fv"], "asm": "OP_DUP OP_HASH160 41d29d8f1885cf199feaf7a1ed453eb11daa076f OP_EQUALVERIFY OP_CHECKSIG", "type": "pubkeyhash"}, "value": 0.00645106, "n": 1}], "hex": "0100000001d3e54bc18eb7952a3a609f2499236d0229711fdfe75ec71b4b32080977cce757000000006a47304402206d7d03c96d2d97d64b211c40e689615e88f9e50d9061163c821420d766f67e79022034250388f6727f79b184864398c7165f13b0ddf0c3f77cc54ba333f65dd52fac012102ec37fe6ff2e80c367ff7e7df92bc3012b5fccd02adc2244d92048e0ce781be82ffffffff020000000000000000536a4c500000778c0001f70b36bf1d3054d80ba3060ce3ef3236678a625097bcbefa6b8351586b4e0397d38bd4ef329276b2018db169cec95baa0c4006144be3021c8cbf1d100759d4ba30d2c37bb011d97e02cff2d70900000000001976a91441d29d8f1885cf199feaf7a1ed453eb11daa076f88ac00000000", "vin": [{"sequence": 4294967295, "scriptSig": {"hex": "47304402206d7d03c96d2d97d64b211c40e689615e88f9e50d9061163c821420d766f67e79022034250388f6727f79b184864398c7165f13b0ddf0c3f77cc54ba333f65dd52fac012102ec37fe6ff2e80c367ff7e7df92bc3012b5fccd02adc2244d92048e0ce781be82", "asm": "304402206d7d03c96d2d97d64b211c40e689615e88f9e50d9061163c821420d766f67e79022034250388f6727f79b184864398c7165f13b0ddf0c3f77cc54ba333f65dd52fac[ALL] 02ec37fe6ff2e80c367ff7e7df92bc3012b5fccd02adc2244d92048e0ce781be82"}, "vout": 0, "txid": "57e7cc770908324b1bc75ee7df1f7129026d2399249f603a2a95b78ec14be5d3"}], "txid": "0ba8d9590c63a1c3faa20f2658d6b35bd73c6ad01462afbad9493112c988502c", "blocktime": 1537870928, "version": 1, "confirmations": 11512, "time": 1537870928, "locktime": 0, "vsize": 283, "size": 283}