{"hash": "0bafb2bda7e5b0eebd99e00dc3b41f7896acf44b7821e0e378764afde4e373df", "blockhash": "00000000000000000024a2167bbff67b0be802c0b01cdd79e6331c2be6459f87", "vout": [{"scriptPubKey": {"reqSigs": 1, "hex": "76a91430ce2a9fbbf32a8c426e4c91b254080f64d1fd4a88ac", "addresses": ["15T4QudVMS8qSCX7CBSzz6bguguCTVGvGR"], "asm": "OP_DUP OP_HASH160 30ce2a9fbbf32a8c426e4c91b254080f64d1fd4a OP_EQUALVERIFY OP_CHECKSIG", "type": "pubkeyhash"}, "value": 3.345e-05, "n": 0}, {"scriptPubKey": {"reqSigs": 1, "hex": "76a914e616ff86d3f23995e04859f8842777dc2382e0b188ac", "addresses": ["1Myby4WgFJVgsaH4fiCEJyqd5FLvqfEvPx"], "asm": "OP_DUP OP_HASH160 e616ff86d3f23995e04859f8842777dc2382e0b1 OP_EQUALVERIFY OP_CHECKSIG", "type": "pubkeyhash"}, "value": 0.02267485, "n": 1}], "hex": "01000000031fa487b6964f158c7757c371a07ffff2a3c89677438b931c4e1eccaf5d9f1d10000000006a47304402202a2f288b980577f23bdf398bc712f8bd720333e76c55e335a7ee4614b357417902207cdfec7e7869bc0991944501c5a09ef20af45362d9b501dbcbca0e951455cf71012103c377630d913d68dbb8c1191beb701b533b31d65a112516729282d2abf9f433b5fffffffff642bd3fdb6a8b88eb38918e4229fcaf2661be3abb9daee857f7d1b5a9a54f35000000006a47304402207d917afff2184fc0f3b35457fc5c4d8a376984987add621f3c4f0a3bf880f3950220688d9b99bcb72364c1c21afcf2cca96c58850aae5759eb6af5f74ae177c07760012103f5eb6d09ef80d9917e27baf6a2653b11e96ca28537ecc75c44cda3620e80e031ffffffff7a09a2767992b378f487619911ef9b8e5bc0584a4633f4686309ad1cba608e81000000006b4830450221009401a9562405da69f667ecfce1d06520e7c6cdc3a795bb27dcdc423db1e195c502207837c19affd0c20b54d030836557babc8a5c94283ee4b4df5181e0678ae70e8e0121037a60db6aad99c202f953c1c909e96ade2615b3de06a55fc21d6dfc38cf6892fcffffffff02110d0000000000001976a91430ce2a9fbbf32a8c426e4c91b254080f64d1fd4a88ac5d992200000000001976a914e616ff86d3f23995e04859f8842777dc2382e0b188ac00000000", "vin": [{"sequence": 4294967295, "scriptSig": {"hex": "47304402202a2f288b980577f23bdf398bc712f8bd720333e76c55e335a7ee4614b357417902207cdfec7e7869bc0991944501c5a09ef20af45362d9b501dbcbca0e951455cf71012103c377630d913d68dbb8c1191beb701b533b31d65a112516729282d2abf9f433b5", "asm": "304402202a2f288b980577f23bdf398bc712f8bd720333e76c55e335a7ee4614b357417902207cdfec7e7869bc0991944501c5a09ef20af45362d9b501dbcbca0e951455cf71[ALL] 03c377630d913d68dbb8c1191beb701b533b31d65a112516729282d2abf9f433b5"}, "vout": 0, "txid": "101d9f5dafcc1e4e1c938b437796c8a3f2ff7fa071c357778c154f96b687a41f"}, {"sequence": 4294967295, "scriptSig": {"hex": "47304402207d917afff2184fc0f3b35457fc5c4d8a376984987add621f3c4f0a3bf880f3950220688d9b99bcb72364c1c21afcf2cca96c58850aae5759eb6af5f74ae177c07760012103f5eb6d09ef80d9917e27baf6a2653b11e96ca28537ecc75c44cda3620e80e031", "asm": "304402207d917afff2184fc0f3b35457fc5c4d8a376984987add621f3c4f0a3bf880f3950220688d9b99bcb72364c1c21afcf2cca96c58850aae5759eb6af5f74ae177c07760[ALL] 03f5eb6d09ef80d9917e27baf6a2653b11e96ca28537ecc75c44cda3620e80e031"}, "vout": 0, "txid": "354fa5a9b5d1f757e8ae9dbb3abe6126affc29428e9138eb888b6adb3fbd42f6"}, {"sequence": 4294967295, "scriptSig": {"hex": "4830450221009401a9562405da69f667ecfce1d06520e7c6cdc3a795bb27dcdc423db1e195c502207837c19affd0c20b54d030836557babc8a5c94283ee4b4df5181e0678ae70e8e0121037a60db6aad99c202f953c1c909e96ade2615b3de06a55fc21d6dfc38cf6892fc", "asm": "30450221009401a9562405da69f667ecfce1d06520e7c6cdc3a795bb27dcdc423db1e195c502207837c19affd0c20b54d030836557babc8a5c94283ee4b4df5181e0678ae70e8e[ALL] 037a60db6aad99c202f953c1c909e96ade2615b3de06a55fc21d6dfc38cf6892fc"}, "vout": 0, "txid": "818e60ba1cad096368f433464a58c05b8e9bef11996187f478b3927976a2097a"}], "txid": "0bafb2bda7e5b0eebd99e00dc3b41f7896acf44b7821e0e378764afde4e373df", "blocktime": 1537870564, "version": 1, "confirmations": 11515, "time": 1537870564, "locktime": 0, "vsize": 520, "size": 520}