{"hash": "14ca427d094aea11b3e6443085eb682e8c3b905c0c2228feecf23490487386a4", "blockhash": "00000000000000000024a2167bbff67b0be802c0b01cdd79e6331c2be6459f87", "vout": [{"scriptPubKey": {"reqSigs": 1, "hex": "a914873f46626a355472acdc75d5e07ed873249db1c287", "addresses": ["3E28wrsgVXtJsA72pXBWVxhRqKvmZz6Hop"], "asm": "OP_HASH160 873f46626a355472acdc75d5e07ed873249db1c2 OP_EQUAL", "type": "scripthash"}, "value": 0.00999701, "n": 0}, {"scriptPubKey": {"reqSigs": 1, "hex": "a91477fa02010d24a76416c834ace0315b8f4ec24dc987", "addresses": ["3CdPqDiSbb8xJQjgszo733ag7WJVXXa3Pd"], "asm": "OP_HASH160 77fa02010d24a76416c834ace0315b8f4ec24dc9 OP_EQUAL", "type": "scripthash"}, "value": 1.27281952, "n": 1}], "hex": "0200000000010745749bf06376b81528d308162e34bf2c7dd6c2a20370fd965a802b1264febd04000000006b483045022100a3bb1e2fb172f8fa04251505fbb1949d926a480a76e4f6021b3d3166dfe78fd10220070dd80721314c3abd8764c459f87d13ab5a6d63e3ba6c26bf793df663a20b7a012103b769ab1b5016177d94d002c8b7cb5e3989402332c35961d4bb5eb6c2a5bce879feffffff56734d5e4aded201b043fd14f3cf43837d77f79493d0d7d1d0b2338d512778a4010000001716001428ec5500c105e06c781febde13b514c8ad5e2f9dfeffffff925c8c3eb61ef437b008b92ec9fba52e9b9471c199b79fec6bf89f34816619010100000017160014775f52b14ab36459593c2df7e0c2d4b12211579dfeffffff990fa0c10a824cab03b504a101b4b3e1ff26dd0bdd5ae6108112cc072333c05501000000171600144cbc8980386830831876176bc10ba33f0f3d41cefeffffffc94e8c74799a572d24733441d7acd5866318465b896cb2281c09bcbeded89f057600000017160014dd151ea78f711f049c7b34be5478bd6fcb7a435efeffffffd08fe2a99b127e07416715794fcd71ecae9659216b93da81f6626fbe0e18c7580000000017160014758b9a8c7e17ad6a5afed38f292e45ee7f9c5e25feffffffe4739c391405277ec4ff5ab4b6cdd6be3fde736ecdc3a31d4721d98dc78f3cc9010000006b483045022100983d5013ccd3e16d200249227a36f6fd1fe9a8eff39d50b05da4ed79374a3d7202205ed5d351e4a185f19af384128c535b37513afc382bc2ffcb35eee73dc5804b56012103a5cca3a7b928f74bb921dd642fa8932025204e513c94b229447880902831e604feffffff0215410f000000000017a914873f46626a355472acdc75d5e07ed873249db1c287202b96070000000017a91477fa02010d24a76416c834ace0315b8f4ec24dc9870002473044022016caab55b72163de7a280d459ec1fce3d4d378fc30ba6a0a1613ffa8add7e2990220714d41a69d4c1ee01273990065964f6086ef928717284432ef3f58b6367ce3640121035a088fd6a050e7a992cbf2962676798b9068ef9af6533e71eafebf6df6fd86c702483045022100dc52f75b5f6d2cfed5289d0a30ac5ff1751142c01e426f462654e0458ef2699f022075d0607f2d6bea60d17eede6ef534a102b033b954200e59b89d10a5743dbbd4d0121038da96229757e4574261c24b5a4e20ad2d690f32a02aada49585ae33f10efdada02483045022100f8aaab0a790adf3193562e551f1d5fc1342439a63e323e584b3dc06cef668aaa02207021282d64543b4c6013ea969f4c595f17cbcae40684a6562fa5e1dbbbe629b70121030509bd61296bda1a800079a7b695eb76104ce3077b53e37f44b4c83429a2c0530247304402200fa96f6946fe7779ed97143b1cc696e89f5eb6b48d2a3e85f353123d58b5846e022023af6f2c2052c102033ffececaa7e9fb15fbe5dc7ee463a4f703c3937ee84070012102b37332b2512bc5864fe8a0f5a9c97e5e99d49f91decbc2edcab844d7087374be02483045022100c1208c0037e19a6bee2dbfc4640eded047db4ebc1ca12d80b244a0e669c11eaa02200bda968640d86d6eed62f6be9c0be5ea210cd880606a91ff02e7d43d1262bb9f012103c9d1152ebec76050380a4c284977b4685d5c5a59389e8b07ef3ac8e316f358d6000d490800", "vin": [{"sequence": 4294967294, "scriptSig": {"hex": "483045022100a3bb1e2fb172f8fa04251505fbb1949d926a480a76e4f6021b3d3166dfe78fd10220070dd80721314c3abd8764c459f87d13ab5a6d63e3ba6c26bf793df663a20b7a012103b769ab1b5016177d94d002c8b7cb5e3989402332c35961d4bb5eb6c2a5bce879", "asm": "3045022100a3bb1e2fb172f8fa04251505fbb1949d926a480a76e4f6021b3d3166dfe78fd10220070dd80721314c3abd8764c459f87d13ab5a6d63e3ba6c26bf793df663a20b7a[ALL] 03b769ab1b5016177d94d002c8b7cb5e3989402332c35961d4bb5eb6c2a5bce879"}, "vout": 0, "txid": "04bdfe64122b805a96fd7003a2c2d67d2cbf342e1608d32815b87663f09b7445"}, {"txinwitness": ["3044022016caab55b72163de7a280d459ec1fce3d4d378fc30ba6a0a1613ffa8add7e2990220714d41a69d4c1ee01273990065964f6086ef928717284432ef3f58b6367ce36401", "035a088fd6a050e7a992cbf2962676798b9068ef9af6533e71eafebf6df6fd86c7"], "sequence": 4294967294, "scriptSig": {"hex": "16001428ec5500c105e06c781febde13b514c8ad5e2f9d", "asm": "001428ec5500c105e06c781febde13b514c8ad5e2f9d"}, "vout": 1, "txid": "a47827518d33b2d0d1d7d09394f7777d8343cff314fd43b001d2de4a5e4d7356"}, {"txinwitness": ["3045022100dc52f75b5f6d2cfed5289d0a30ac5ff1751142c01e426f462654e0458ef2699f022075d0607f2d6bea60d17eede6ef534a102b033b954200e59b89d10a5743dbbd4d01", "038da96229757e4574261c24b5a4e20ad2d690f32a02aada49585ae33f10efdada"], "sequence": 4294967294, "scriptSig": {"hex": "160014775f52b14ab36459593c2df7e0c2d4b12211579d", "asm": "0014775f52b14ab36459593c2df7e0c2d4b12211579d"}, "vout": 1, "txid": "01196681349ff86bec9fb799c171949b2ea5fbc92eb908b037f41eb63e8c5c92"}, {"txinwitness": ["3045022100f8aaab0a790adf3193562e551f1d5fc1342439a63e323e584b3dc06cef668aaa02207021282d64543b4c6013ea969f4c595f17cbcae40684a6562fa5e1dbbbe629b701", "030509bd61296bda1a800079a7b695eb76104ce3077b53e37f44b4c83429a2c053"], "sequence": 4294967294, "scriptSig": {"hex": "1600144cbc8980386830831876176bc10ba33f0f3d41ce", "asm": "00144cbc8980386830831876176bc10ba33f0f3d41ce"}, "vout": 1, "txid": "55c0332307cc128110e65add0bdd26ffe1b3b401a104b503ab4c820ac1a00f99"}, {"txinwitness": ["304402200fa96f6946fe7779ed97143b1cc696e89f5eb6b48d2a3e85f353123d58b5846e022023af6f2c2052c102033ffececaa7e9fb15fbe5dc7ee463a4f703c3937ee8407001", "02b37332b2512bc5864fe8a0f5a9c97e5e99d49f91decbc2edcab844d7087374be"], "sequence": 4294967294, "scriptSig": {"hex": "160014dd151ea78f711f049c7b34be5478bd6fcb7a435e", "asm": "0014dd151ea78f711f049c7b34be5478bd6fcb7a435e"}, "vout": 118, "txid": "059fd8debebc091c28b26c895b46186386d5acd7413473242d579a79748c4ec9"}, {"txinwitness": ["3045022100c1208c0037e19a6bee2dbfc4640eded047db4ebc1ca12d80b244a0e669c11eaa02200bda968640d86d6eed62f6be9c0be5ea210cd880606a91ff02e7d43d1262bb9f01", "03c9d1152ebec76050380a4c284977b4685d5c5a59389e8b07ef3ac8e316f358d6"], "sequence": 4294967294, "scriptSig": {"hex": "160014758b9a8c7e17ad6a5afed38f292e45ee7f9c5e25", "asm": "0014758b9a8c7e17ad6a5afed38f292e45ee7f9c5e25"}, "vout": 0, "txid": "58c7180ebe6f62f681da936b215996aeec71cd4f79156741077e129ba9e28fd0"}, {"sequence": 4294967294, "scriptSig": {"hex": "483045022100983d5013ccd3e16d200249227a36f6fd1fe9a8eff39d50b05da4ed79374a3d7202205ed5d351e4a185f19af384128c535b37513afc382bc2ffcb35eee73dc5804b56012103a5cca3a7b928f74bb921dd642fa8932025204e513c94b229447880902831e604", "asm": "3045022100983d5013ccd3e16d200249227a36f6fd1fe9a8eff39d50b05da4ed79374a3d7202205ed5d351e4a185f19af384128c535b37513afc382bc2ffcb35eee73dc5804b56[ALL] 03a5cca3a7b928f74bb921dd642fa8932025204e513c94b229447880902831e604"}, "vout": 1, "txid": "c93c8fc78dd921471da3c3cd6e73de3fbed6cdb6b45affc47e270514399c73e4"}], "txid": "0bc26cbfe017dafe65e41776d75dc3a43f66ff5cd2fcfd3d70fb5572037568a9", "blocktime": 1537870564, "version": 2, "confirmations": 11515, "time": 1537870564, "locktime": 542989, "vsize": 826, "size": 1232}