{"hash": "b452e6f26776cdbe3acb074e30426a44296758d2eac7e9e12410d9a575045a7c", "blockhash": "00000000000000000004ffacab907a6b429b9a5745fa0b75af4234bf69dd7176", "vout": [{"scriptPubKey": {"reqSigs": 1, "hex": "a9140dbcd58560fd2030053ce1d3b306a742a751d82987", "addresses": ["32wevTYf2Leyw8YP3RLaJe6UvtkR1j81sp"], "asm": "OP_HASH160 0dbcd58560fd2030053ce1d3b306a742a751d829 OP_EQUAL", "type": "scripthash"}, "value": 0.003833, "n": 0}, {"scriptPubKey": {"reqSigs": 1, "hex": "a9141df964e97b63096fde7592ca7cfd0cbbc5b026b287", "addresses": ["34RWHKSd5HznEgqLezSJoCkhQurim38BM4"], "asm": "OP_HASH160 1df964e97b63096fde7592ca7cfd0cbbc5b026b2 OP_EQUAL", "type": "scripthash"}, "value": 0.0002755, "n": 1}], "hex": "0200000000010173c3ff8956c0dc48184501bfa8a2aa64899e0234fe932b6ee04fe0e93853a6bc0100000017160014ce130dfbe6b83c749428f4bf434a4fc43730d05fffffffff0244d905000000000017a9140dbcd58560fd2030053ce1d3b306a742a751d829879e6b00000000000017a9141df964e97b63096fde7592ca7cfd0cbbc5b026b28702483045022100abc867c2dc793ca410d1e3c5c1ecfaaa98daa03e96d23ac667501354880b5d1e022053da5bee4a0fdd89930e91f6cb9e97a9511b779d1cffe255ad3af2ae9594c6ab0121024562c13ebb61cabce8d2b20ad614e754337f14b83beca7fdd8649f3cd82a85be00000000", "vin": [{"txinwitness": ["3045022100abc867c2dc793ca410d1e3c5c1ecfaaa98daa03e96d23ac667501354880b5d1e022053da5bee4a0fdd89930e91f6cb9e97a9511b779d1cffe255ad3af2ae9594c6ab01", "024562c13ebb61cabce8d2b20ad614e754337f14b83beca7fdd8649f3cd82a85be"], "sequence": 4294967295, "scriptSig": {"hex": "160014ce130dfbe6b83c749428f4bf434a4fc43730d05f", "asm": "0014ce130dfbe6b83c749428f4bf434a4fc43730d05f"}, "vout": 1, "txid": "bca65338e9e04fe06e2b93fe34029e8964aaa2a8bf01451848dcc05689ffc373"}], "txid": "0bc365bb8afa72faf81fb407b4e93c297f883d93fa87a7066f342cc1df6ea581", "blocktime": 1537875543, "version": 2, "confirmations": 11464, "time": 1537875543, "locktime": 0, "vsize": 166, "size": 248}