{"hash": "0bc5d2aee2c10af6a0ff790433a24256e9cebad3a61b89807d87f310995bc2fd", "blockhash": "0000000000000000000dcc0f55137456b1a82d3642486a52398922ac4d620174", "vout": [{"scriptPubKey": {"reqSigs": 1, "hex": "76a914ac58bd4306f3afcb12ef01ba59aa9a7cbd5f626288ac", "addresses": ["1GiHXiAeyW7mAQd6263gmRpP8qMwo5SLpv"], "asm": "OP_DUP OP_HASH160 ac58bd4306f3afcb12ef01ba59aa9a7cbd5f6262 OP_EQUALVERIFY OP_CHECKSIG", "type": "pubkeyhash"}, "value": 0.0117, "n": 0}, {"scriptPubKey": {"reqSigs": 1, "hex": "76a91483255a07d2a762f72fa1673382743baf4ad574db88ac", "addresses": ["1CxSGNU9WcdTW2MdmDS6YGqs5ibJqk5st9"], "asm": "OP_DUP OP_HASH160 83255a07d2a762f72fa1673382743baf4ad574db OP_EQUALVERIFY OP_CHECKSIG", "type": "pubkeyhash"}, "value": 0.18376967, "n": 1}], "hex": "01000000018fa7ca21d21f520ec4d4d582c8e51f88acfef5db994cc1c7b8d7371b72b5c757010000006a47304402207ce891a9d6d1b6ff043deec80256cdaf9727b8dbca5bb06f9ce4e225b39d059202200769d209c8e029641f596181f6ea7c6f62758bda4830cedd0065d82537dadbfd012102c9ae37d703c44848afdf80a9cd547ddde97f7e62ae55bd067628e01b2441f13bffffffff0250da1100000000001976a914ac58bd4306f3afcb12ef01ba59aa9a7cbd5f626288ac07691801000000001976a91483255a07d2a762f72fa1673382743baf4ad574db88ac00000000", "vin": [{"sequence": 4294967295, "scriptSig": {"hex": "47304402207ce891a9d6d1b6ff043deec80256cdaf9727b8dbca5bb06f9ce4e225b39d059202200769d209c8e029641f596181f6ea7c6f62758bda4830cedd0065d82537dadbfd012102c9ae37d703c44848afdf80a9cd547ddde97f7e62ae55bd067628e01b2441f13b", "asm": "304402207ce891a9d6d1b6ff043deec80256cdaf9727b8dbca5bb06f9ce4e225b39d059202200769d209c8e029641f596181f6ea7c6f62758bda4830cedd0065d82537dadbfd[ALL] 02c9ae37d703c44848afdf80a9cd547ddde97f7e62ae55bd067628e01b2441f13b"}, "vout": 1, "txid": "57c7b5721b37d7b8c7c14c99dbf5feac881fe5c882d5d4c40e521fd221caa78f"}], "txid": "0bc5d2aee2c10af6a0ff790433a24256e9cebad3a61b89807d87f310995bc2fd", "blocktime": 1537870268, "version": 1, "confirmations": 11518, "time": 1537870268, "locktime": 0, "vsize": 225, "size": 225}