{"hash": "0bd0bc159f45cf086f9522b1ed18988c8dd74893fc290b3513dfd23e29dfba2a", "blockhash": "0000000000000000001cda96e906b7601b7a6fb1a3b62bca570a9e5d8f4b3de1", "vout": [{"scriptPubKey": {"reqSigs": 1, "hex": "76a914d5ba2950d5f5bd52ea85e750f8173a1acf01435288ac", "addresses": ["1LV5wae7PBssrXLTReU8R8A6XeKWEAN1Dh"], "asm": "OP_DUP OP_HASH160 d5ba2950d5f5bd52ea85e750f8173a1acf014352 OP_EQUALVERIFY OP_CHECKSIG", "type": "pubkeyhash"}, "value": 0.03395, "n": 0}, {"scriptPubKey": {"reqSigs": 1, "hex": "76a91447f319d188a48558daa509f6e23392b5c410202688ac", "addresses": ["17ZSCZgCmnjotqTpwYW3bdugAkNxxT2hYb"], "asm": "OP_DUP OP_HASH160 47f319d188a48558daa509f6e23392b5c4102026 OP_EQUALVERIFY OP_CHECKSIG", "type": "pubkeyhash"}, "value": 0.14886625, "n": 1}], "hex": "0200000009cb681c9f88eadcb68d995afc582c22915dd86990ae4d2b8f1eb78d92cf4bebf8010000006a47304402204d76d40c0afae02d87b14c40c023fb32ccab71c7abc54882e3036c6d13500b2c022035049ebe7ff4a5486bef293dfe2bd9a6f6a12948fe9c0214f5ebba648e4faa6a012103430ec9dc822fb4d76b96cc9980f4b1059108c5a4b6e0348447fa52b32468691fffffffff81582885d74ae9b0d1ffe4622e76f02eb878aaeadf826f5a7cb54b297f36cbad1b0000006b483045022100afed1efe0a079edd848b568da4a4e5c1299974c8ac22cd2a50a0e26282d2c6c5022029e994a9a32e703293dcf51c778fa2f20d70ee0f02b353c8c7c349d39ef5fee70121028d43d03ffc146f3d52ba7e3482991e7eac1079f9b7eb3ff97d84bab7871fec6efffffffff4db5643e3f96a5b8a18793aebda1e13355deb7c0168c4bdc5d0ed295b95cd683a0000006a4730440220101a6fe2f3f8ccd8c117f83deed0ca88190fecbf7f3f5b335bc59317486e0afc022042621ac950752531e4342f7f5639b2f006241eaf1be23ec9b274766f153546f4012103717b1f50c0ab1e2a7bf2f017881b34cd5622991399967e1b265860106c60a67cffffffff555cc3e005adbe808f343ddaaadfcd5ed75b89ff4d89389d99fcee7ac36ea5d74a0000006a47304402205320e58db69355d41329466014a52f87b3a4f94bb3a38556b791b1cb364797af02203f33978649ec6a42d1033a8eafffa34f4443143bd37d677f8bfdaaa9f905d8850121024eb3982eb713f6ddc6d2009f875439b0047a28a34a79f4d9a0025250ffe9db52ffffffff6fdbeaf65d352b411b8e3b78074061ee662e721116896960dbb9974b368ee4d7060000006b483045022100a48275b24e9bc309353eee0cbdb09915dfe30599398da31d43f9c62947a7f8ed02201178d419647bcb743e62a1458c4478d90548e135bc1ac7c1512e9cd7e357a45801210310ec90d126b416345cc504c6377eb4462476ac073a03be8b55fe659b01b75331ffffffff8b32c5a6456d46c3e1a2efcb33815dfda955bbf44ebe5f830067340a9801f2123f0000006b4830450221009811af55f1d9a864d4189de56a5bae9e7b034d2e64b81020ce24f35181de046302203160d6b0538d3d6ab555f201f4b6a7b7da1ff4c5413f1b14d6c90bacd8064ed9012103d4c960f13d2d35a45e422fbb695fe9bcc1861806974384e21a132f6beb4e5480ffffffff3fb3c7c17b11f7c0e0b7c637c14571ac30acd4f6040cb09add6997fb6f93456c000000006b483045022100c7a4ce18453cd53814a35eadf6ff3a88139d5ad3a7c032ad61968123af1f1ac7022064bc766e4dabf2a2d955849ab27881cbc393c0098079ea7070f57abb82cba8dd01210355bc24030b1e18b1067a38289bc4aec98d0deb1ce3a46f4408a2f7af8e63a65effffffff7a5bfd528fa33a652b547c919b757b2a3346baac8598573b3b40df19a16d0754010000006a473044022057c7ac6a22236b6afb6c39888c27528efdc45255014ea44aa61b52cd0fd93c380220366a2341d4548c15e5a6eb0b77db2236510b35a48c1cebd4babffebbdbe2c747012103430ec9dc822fb4d76b96cc9980f4b1059108c5a4b6e0348447fa52b32468691fffffffff18947c95f28f7f4be7a65abb72710cad2d0a28ef2bef48fed6f44008addf410a010000006a4730440220009bef5102cd07d95aa3ab91c3c0533021a3f84c6d5b3ba1bbf5d61878e57d7202202047b8d3182b35cd3de5187fb1b0d4efc24619fa50bc50962700a0ab9951b266012103430ec9dc822fb4d76b96cc9980f4b1059108c5a4b6e0348447fa52b32468691fffffffff02b8cd3300000000001976a914d5ba2950d5f5bd52ea85e750f8173a1acf01435288ace126e300000000001976a91447f319d188a48558daa509f6e23392b5c410202688ac00000000", "vin": [{"sequence": 4294967295, "scriptSig": {"hex": "47304402204d76d40c0afae02d87b14c40c023fb32ccab71c7abc54882e3036c6d13500b2c022035049ebe7ff4a5486bef293dfe2bd9a6f6a12948fe9c0214f5ebba648e4faa6a012103430ec9dc822fb4d76b96cc9980f4b1059108c5a4b6e0348447fa52b32468691f", "asm": "304402204d76d40c0afae02d87b14c40c023fb32ccab71c7abc54882e3036c6d13500b2c022035049ebe7ff4a5486bef293dfe2bd9a6f6a12948fe9c0214f5ebba648e4faa6a[ALL] 03430ec9dc822fb4d76b96cc9980f4b1059108c5a4b6e0348447fa52b32468691f"}, "vout": 1, "txid": "f8eb4bcf928db71e8f2b4dae9069d85d91222c58fc5a998db6dcea889f1c68cb"}, {"sequence": 4294967295, "scriptSig": {"hex": "483045022100afed1efe0a079edd848b568da4a4e5c1299974c8ac22cd2a50a0e26282d2c6c5022029e994a9a32e703293dcf51c778fa2f20d70ee0f02b353c8c7c349d39ef5fee70121028d43d03ffc146f3d52ba7e3482991e7eac1079f9b7eb3ff97d84bab7871fec6e", "asm": "3045022100afed1efe0a079edd848b568da4a4e5c1299974c8ac22cd2a50a0e26282d2c6c5022029e994a9a32e703293dcf51c778fa2f20d70ee0f02b353c8c7c349d39ef5fee7[ALL] 028d43d03ffc146f3d52ba7e3482991e7eac1079f9b7eb3ff97d84bab7871fec6e"}, "vout": 27, "txid": "adcb367f294bb57c5a6f82dfeaaa78b82ef0762e62e4ffd1b0e94ad785285881"}, {"sequence": 4294967295, "scriptSig": {"hex": "4730440220101a6fe2f3f8ccd8c117f83deed0ca88190fecbf7f3f5b335bc59317486e0afc022042621ac950752531e4342f7f5639b2f006241eaf1be23ec9b274766f153546f4012103717b1f50c0ab1e2a7bf2f017881b34cd5622991399967e1b265860106c60a67c", "asm": "30440220101a6fe2f3f8ccd8c117f83deed0ca88190fecbf7f3f5b335bc59317486e0afc022042621ac950752531e4342f7f5639b2f006241eaf1be23ec9b274766f153546f4[ALL] 03717b1f50c0ab1e2a7bf2f017881b34cd5622991399967e1b265860106c60a67c"}, "vout": 58, "txid": "68cd955b29edd0c5bdc468017ceb5d35131edaeb3a79188a5b6af9e34356dbf4"}, {"sequence": 4294967295, "scriptSig": {"hex": "47304402205320e58db69355d41329466014a52f87b3a4f94bb3a38556b791b1cb364797af02203f33978649ec6a42d1033a8eafffa34f4443143bd37d677f8bfdaaa9f905d8850121024eb3982eb713f6ddc6d2009f875439b0047a28a34a79f4d9a0025250ffe9db52", "asm": "304402205320e58db69355d41329466014a52f87b3a4f94bb3a38556b791b1cb364797af02203f33978649ec6a42d1033a8eafffa34f4443143bd37d677f8bfdaaa9f905d885[ALL] 024eb3982eb713f6ddc6d2009f875439b0047a28a34a79f4d9a0025250ffe9db52"}, "vout": 74, "txid": "d7a56ec37aeefc999d38894dff895bd75ecddfaada3d348f80bead05e0c35c55"}, {"sequence": 4294967295, "scriptSig": {"hex": "483045022100a48275b24e9bc309353eee0cbdb09915dfe30599398da31d43f9c62947a7f8ed02201178d419647bcb743e62a1458c4478d90548e135bc1ac7c1512e9cd7e357a45801210310ec90d126b416345cc504c6377eb4462476ac073a03be8b55fe659b01b75331", "asm": "3045022100a48275b24e9bc309353eee0cbdb09915dfe30599398da31d43f9c62947a7f8ed02201178d419647bcb743e62a1458c4478d90548e135bc1ac7c1512e9cd7e357a458[ALL] 0310ec90d126b416345cc504c6377eb4462476ac073a03be8b55fe659b01b75331"}, "vout": 6, "txid": "d7e48e364b97b9db6069891611722e66ee614007783b8e1b412b355df6eadb6f"}, {"sequence": 4294967295, "scriptSig": {"hex": "4830450221009811af55f1d9a864d4189de56a5bae9e7b034d2e64b81020ce24f35181de046302203160d6b0538d3d6ab555f201f4b6a7b7da1ff4c5413f1b14d6c90bacd8064ed9012103d4c960f13d2d35a45e422fbb695fe9bcc1861806974384e21a132f6beb4e5480", "asm": "30450221009811af55f1d9a864d4189de56a5bae9e7b034d2e64b81020ce24f35181de046302203160d6b0538d3d6ab555f201f4b6a7b7da1ff4c5413f1b14d6c90bacd8064ed9[ALL] 03d4c960f13d2d35a45e422fbb695fe9bcc1861806974384e21a132f6beb4e5480"}, "vout": 63, "txid": "12f201980a346700835fbe4ef4bb55a9fd5d8133cbefa2e1c3466d45a6c5328b"}, {"sequence": 4294967295, "scriptSig": {"hex": "483045022100c7a4ce18453cd53814a35eadf6ff3a88139d5ad3a7c032ad61968123af1f1ac7022064bc766e4dabf2a2d955849ab27881cbc393c0098079ea7070f57abb82cba8dd01210355bc24030b1e18b1067a38289bc4aec98d0deb1ce3a46f4408a2f7af8e63a65e", "asm": "3045022100c7a4ce18453cd53814a35eadf6ff3a88139d5ad3a7c032ad61968123af1f1ac7022064bc766e4dabf2a2d955849ab27881cbc393c0098079ea7070f57abb82cba8dd[ALL] 0355bc24030b1e18b1067a38289bc4aec98d0deb1ce3a46f4408a2f7af8e63a65e"}, "vout": 0, "txid": "6c45936ffb9769dd9ab00c04f6d4ac30ac7145c137c6b7e0c0f7117bc1c7b33f"}, {"sequence": 4294967295, "scriptSig": {"hex": "473044022057c7ac6a22236b6afb6c39888c27528efdc45255014ea44aa61b52cd0fd93c380220366a2341d4548c15e5a6eb0b77db2236510b35a48c1cebd4babffebbdbe2c747012103430ec9dc822fb4d76b96cc9980f4b1059108c5a4b6e0348447fa52b32468691f", "asm": "3044022057c7ac6a22236b6afb6c39888c27528efdc45255014ea44aa61b52cd0fd93c380220366a2341d4548c15e5a6eb0b77db2236510b35a48c1cebd4babffebbdbe2c747[ALL] 03430ec9dc822fb4d76b96cc9980f4b1059108c5a4b6e0348447fa52b32468691f"}, "vout": 1, "txid": "54076da119df403b3b579885acba46332a7b759b917c542b653aa38f52fd5b7a"}, {"sequence": 4294967295, "scriptSig": {"hex": "4730440220009bef5102cd07d95aa3ab91c3c0533021a3f84c6d5b3ba1bbf5d61878e57d7202202047b8d3182b35cd3de5187fb1b0d4efc24619fa50bc50962700a0ab9951b266012103430ec9dc822fb4d76b96cc9980f4b1059108c5a4b6e0348447fa52b32468691f", "asm": "30440220009bef5102cd07d95aa3ab91c3c0533021a3f84c6d5b3ba1bbf5d61878e57d7202202047b8d3182b35cd3de5187fb1b0d4efc24619fa50bc50962700a0ab9951b266[ALL] 03430ec9dc822fb4d76b96cc9980f4b1059108c5a4b6e0348447fa52b32468691f"}, "vout": 1, "txid": "0a41dfad0840f4d6fe48ef2bef280a2dad0c7172bb5aa6e74b7f8ff2957c9418"}], "txid": "0bd0bc159f45cf086f9522b1ed18988c8dd74893fc290b3513dfd23e29dfba2a", "blocktime": 1537873282, "version": 2, "confirmations": 11480, "time": 1537873282, "locktime": 0, "vsize": 1405, "size": 1405}