{"hash": "6d3549c42095410cdc2a5229628b8747fe48063a4937413d2ebb86cbac5b18a3", "blockhash": "0000000000000000001f76057863aec43deb6fa401d9628bb513d65a8098bfab", "vout": [{"scriptPubKey": {"reqSigs": 1, "hex": "76a9143784860194fc6c2b7d97dfe1c7311090d8f79ed388ac", "addresses": ["164YvSec41DbF5ano14g9WRp7h92oHstrE"], "asm": "OP_DUP OP_HASH160 3784860194fc6c2b7d97dfe1c7311090d8f79ed3 OP_EQUALVERIFY OP_CHECKSIG", "type": "pubkeyhash"}, "value": 0.07690056, "n": 0}, {"scriptPubKey": {"reqSigs": 1, "hex": "a9140ef5fc88904c73df00664b8e1688e325b158f37587", "addresses": ["33484fhyd1WuvyAWGerMRXhQsaRZpM7oLX"], "asm": "OP_HASH160 0ef5fc88904c73df00664b8e1688e325b158f375 OP_EQUAL", "type": "scripthash"}, "value": 0.13963447, "n": 1}], "hex": "010000000001024bd6d84ae51966b2d70f3a60e677afe2cc23e6847e319038e65ddd70c242f8060100000023220020f89cb5e0f6ee69540aa988cdddaa4d2cf0c59f68faf7d21250a3b8d06446274effffffffe6e4fddc49c31fa400ece8cb7e29753b586730ca322bdb10440d169c4df5128e0100000023220020e56f6a29ea913362a04ca45905aa9da5a82789a117227db1b033b15d7e5e5ffdffffffff0248577500000000001976a9143784860194fc6c2b7d97dfe1c7311090d8f79ed388acb710d5000000000017a9140ef5fc88904c73df00664b8e1688e325b158f375870400483045022100fa858fb06b577ec19f51d57d930e72ef335c6a3113b3a349124d9391538872cb02204e556bf6619ed0065ff9319f3faf527b5479a68a81579851919a6dded5d1d61601483045022100fd9aa754bf71434676e5da689381fbc954fc439efddb9a1cc6d65fce02b5d2780220311a3293d5d5bd98b1e2288d14c5b837c8c671d132cc5e6b5e1d804a91040e700169522103c650f42ef8c171863e5669756df39134b9687def490a88bbf1bd79d497bec28b210320f1d2ff1887a4410d48076ced036def2a61ecce37a29cdeb09658aca731a71f21029f1cd9587816c4e6b11c3fd43c81661ca6375df83d5e7a46f9e2a6e983b257ba53ae0400473044022068de9ca3dfb4b3928bec99853d911bc75933fc72012a4b39c8eab7c45a23333f02205cb43f45a40095b889c6c66b3af8df94a9f38b64a3f50df92d2fbf0c96e057e801463043021f1d811c556783c35af4f302aaf76f2a3662344f466e76d2c306e919419861900220517766d3be49d5d1bc388549fa96a9436a0024e58c7480bd20a7b528450e807e0169522103608e40780c567964be077a3aaae76c1aba6322c32a309ae2043821e5c2110088210320f1d2ff1887a4410d48076ced036def2a61ecce37a29cdeb09658aca731a71f21029f1cd9587816c4e6b11c3fd43c81661ca6375df83d5e7a46f9e2a6e983b257ba53ae00000000", "vin": [{"txinwitness": ["", "3045022100fa858fb06b577ec19f51d57d930e72ef335c6a3113b3a349124d9391538872cb02204e556bf6619ed0065ff9319f3faf527b5479a68a81579851919a6dded5d1d61601", "3045022100fd9aa754bf71434676e5da689381fbc954fc439efddb9a1cc6d65fce02b5d2780220311a3293d5d5bd98b1e2288d14c5b837c8c671d132cc5e6b5e1d804a91040e7001", "522103c650f42ef8c171863e5669756df39134b9687def490a88bbf1bd79d497bec28b210320f1d2ff1887a4410d48076ced036def2a61ecce37a29cdeb09658aca731a71f21029f1cd9587816c4e6b11c3fd43c81661ca6375df83d5e7a46f9e2a6e983b257ba53ae"], "sequence": 4294967295, "scriptSig": {"hex": "220020f89cb5e0f6ee69540aa988cdddaa4d2cf0c59f68faf7d21250a3b8d06446274e", "asm": "0020f89cb5e0f6ee69540aa988cdddaa4d2cf0c59f68faf7d21250a3b8d06446274e"}, "vout": 1, "txid": "06f842c270dd5de63890317e84e623cce2af77e6603a0fd7b26619e54ad8d64b"}, {"txinwitness": ["", "3044022068de9ca3dfb4b3928bec99853d911bc75933fc72012a4b39c8eab7c45a23333f02205cb43f45a40095b889c6c66b3af8df94a9f38b64a3f50df92d2fbf0c96e057e801", "3043021f1d811c556783c35af4f302aaf76f2a3662344f466e76d2c306e919419861900220517766d3be49d5d1bc388549fa96a9436a0024e58c7480bd20a7b528450e807e01", "522103608e40780c567964be077a3aaae76c1aba6322c32a309ae2043821e5c2110088210320f1d2ff1887a4410d48076ced036def2a61ecce37a29cdeb09658aca731a71f21029f1cd9587816c4e6b11c3fd43c81661ca6375df83d5e7a46f9e2a6e983b257ba53ae"], "sequence": 4294967295, "scriptSig": {"hex": "220020e56f6a29ea913362a04ca45905aa9da5a82789a117227db1b033b15d7e5e5ffd", "asm": "0020e56f6a29ea913362a04ca45905aa9da5a82789a117227db1b033b15d7e5e5ffd"}, "vout": 1, "txid": "8e12f54d9c160d4410db2b32ca3067583b75297ecbe8ec00a41fc349dcfde4e6"}], "txid": "0bd0e1106abf6902404846842afd397fcce5df50f316a018e0aa6047eef518a9", "blocktime": 1537873891, "version": 1, "confirmations": 11478, "time": 1537873891, "locktime": 0, "vsize": 355, "size": 735}