{"hash": "98e4d66e7ca9b54692980fee55734200cf8a18bb01975a3232369bab6a63d71a", "blockhash": "0000000000000000001cda96e906b7601b7a6fb1a3b62bca570a9e5d8f4b3de1", "vout": [{"scriptPubKey": {"reqSigs": 1, "hex": "76a9148d5d76445156977ff932e30274cabd1001cba61688ac", "addresses": ["1DtUEuDcU2vs6a7Gm8QUiotYzyENxsgRSE"], "asm": "OP_DUP OP_HASH160 8d5d76445156977ff932e30274cabd1001cba616 OP_EQUALVERIFY OP_CHECKSIG", "type": "pubkeyhash"}, "value": 0.00288521, "n": 0}, {"scriptPubKey": {"reqSigs": 1, "hex": "a914412a5a9d44d5834123b7756088f409b7b3a36da687", "addresses": ["37daapNiiDgPEaARWMQCfhGXJo4yF1nTaW"], "asm": "OP_HASH160 412a5a9d44d5834123b7756088f409b7b3a36da6 OP_EQUAL", "type": "scripthash"}, "value": 0.00636173, "n": 1}], "hex": "010000000001012c47de20749e3d8bd40e84d1c31936799c9acfe10b3d9ce7c66b19e7b4059a93010000002322002083f5850b1b9ae687f7cf8d5c77fefcbd87cde420155cd43c20d50f5f293b7ed6ffffffff0209670400000000001976a9148d5d76445156977ff932e30274cabd1001cba61688ac0db509000000000017a914412a5a9d44d5834123b7756088f409b7b3a36da6870400483045022100df9a96ecb1b2d3266c1bd0d5d7a35f22a15f7e4c20c463223dcd00ccc79c74e00220715808163da6ac8388e9f4e602e47c549ea169711eecc6d1ce7fb04a0b5ef91a014730440220050cd3c5e1e89634e90b8e01f5a8fcf58d91b6cd18ff0961e4403ee663be3e1002203bbe128e1809e63c93742418512f535ad9f3b1a80c153234b285446e80e66d9e01475221020511070566b8412d1941b8dc0ded10caa6a6915b609dfa65bb8111255071d3a22103871fc2ca08e6950b38867e8e6a0e94ee625223d3aa0df5c65f414c6d784467e252ae00000000", "vin": [{"txinwitness": ["", "3045022100df9a96ecb1b2d3266c1bd0d5d7a35f22a15f7e4c20c463223dcd00ccc79c74e00220715808163da6ac8388e9f4e602e47c549ea169711eecc6d1ce7fb04a0b5ef91a01", "30440220050cd3c5e1e89634e90b8e01f5a8fcf58d91b6cd18ff0961e4403ee663be3e1002203bbe128e1809e63c93742418512f535ad9f3b1a80c153234b285446e80e66d9e01", "5221020511070566b8412d1941b8dc0ded10caa6a6915b609dfa65bb8111255071d3a22103871fc2ca08e6950b38867e8e6a0e94ee625223d3aa0df5c65f414c6d784467e252ae"], "sequence": 4294967295, "scriptSig": {"hex": "22002083f5850b1b9ae687f7cf8d5c77fefcbd87cde420155cd43c20d50f5f293b7ed6", "asm": "002083f5850b1b9ae687f7cf8d5c77fefcbd87cde420155cd43c20d50f5f293b7ed6"}, "vout": 1, "txid": "939a05b4e7196bc6e79c3d0be1cf9a9c793619c3d1840ed48b3d9e7420de472c"}], "txid": "0bd30093ff649bac6fd0300073e67eea4c3ae89805c44369aadc6debb772cf3a", "blocktime": 1537873282, "version": 1, "confirmations": 11484, "time": 1537873282, "locktime": 0, "vsize": 208, "size": 373}