{"hash": "0ddfc2613b44de8cea9170fc4e53b3810df53e3a28cdb4457354f39a8b53de3a", "blockhash": "0000000000000000000e13cef7c366c0283d82e591d1acd082e914b08063cdf1", "vout": [{"scriptPubKey": {"reqSigs": 1, "hex": "a9146ae5284b61beb285e237b418c74447f647c6cc3687", "addresses": ["3BSE51iFoaaDzgTgVdmzxAZEPHHXeSK2C6"], "asm": "OP_HASH160 6ae5284b61beb285e237b418c74447f647c6cc36 OP_EQUAL", "type": "scripthash"}, "value": 0.15847587, "n": 0}, {"scriptPubKey": {"reqSigs": 1, "hex": "a91472c28375ae8b4104b1e7bc93c8ddd440a58d8c6387", "addresses": ["3C9oySxTxBXfwBtGDz8PjtjjG3E9rXoFb4"], "asm": "OP_HASH160 72c28375ae8b4104b1e7bc93c8ddd440a58d8c63 OP_EQUAL", "type": "scripthash"}, "value": 0.00298147, "n": 1}], "hex": "01000000000101bfb6183db88af3cd4f35e28c9a1ef8463411d9ee653dcfd00461777476ae3b790100000023220020b665780936b775a042a5a2fa249e440e4fbb729a84457545b3d3e2bba530a183ffffffff02a3d0f1000000000017a9146ae5284b61beb285e237b418c74447f647c6cc3687a38c04000000000017a91472c28375ae8b4104b1e7bc93c8ddd440a58d8c63870400483045022100f5185271f5104e0af6d5e9151bb25e92dcde9a803b5b08a8d307d5c0271ff626022041661875b7c6a98b2d1e0423d357a3ca3969cdd6a08e3d46ca7e0658359d03c301483045022100f7eb20c5aecb73907a06ec99e6a2fe041ee69f435964e4e7afee923025523c870220267456747e1680622dd703b29be4656e917a27be18950b55e6c7d5cff9547b0601695221030d743132c857d5d7c8a7a825c78cdce3a5d70cda83b7ac5ccdc592dc6f88c08521023aa485f66fda617fa7f60748a21fb80567315857681c7d91b80e214bed2f311f2102c94eb380be1e8b26c1c3eae1c033ff633372df5b8b5670e0a431ba683eb8d3a053ae00000000", "vin": [{"txinwitness": ["", "3045022100f5185271f5104e0af6d5e9151bb25e92dcde9a803b5b08a8d307d5c0271ff626022041661875b7c6a98b2d1e0423d357a3ca3969cdd6a08e3d46ca7e0658359d03c301", "3045022100f7eb20c5aecb73907a06ec99e6a2fe041ee69f435964e4e7afee923025523c870220267456747e1680622dd703b29be4656e917a27be18950b55e6c7d5cff9547b0601", "5221030d743132c857d5d7c8a7a825c78cdce3a5d70cda83b7ac5ccdc592dc6f88c08521023aa485f66fda617fa7f60748a21fb80567315857681c7d91b80e214bed2f311f2102c94eb380be1e8b26c1c3eae1c033ff633372df5b8b5670e0a431ba683eb8d3a053ae"], "sequence": 4294967295, "scriptSig": {"hex": "220020b665780936b775a042a5a2fa249e440e4fbb729a84457545b3d3e2bba530a183", "asm": "0020b665780936b775a042a5a2fa249e440e4fbb729a84457545b3d3e2bba530a183"}, "vout": 1, "txid": "793bae7674776104d0cf3d65eed9113446f81e9a8ce2354fcdf38ab83d18b6bf"}], "txid": "0bd499113f37fbeed164d724d11ed2ea463cc1325d33ea679756aab617ee7592", "blocktime": 1537871767, "version": 1, "confirmations": 11495, "time": 1537871767, "locktime": 0, "vsize": 214, "size": 406}