{"hash": "0bd54a82438a3db1fcb29e7a64eb4046d1718162cededba6d17355b4c1190d70", "blockhash": "0000000000000000001cda96e906b7601b7a6fb1a3b62bca570a9e5d8f4b3de1", "vout": [{"scriptPubKey": {"reqSigs": 1, "hex": "76a9144a42d730926dd9110a9ba8b6dd482065ec4808d288ac", "addresses": ["17mf5MvRNoMSmB3SgicBuenjjFDd4HZk5o"], "asm": "OP_DUP OP_HASH160 4a42d730926dd9110a9ba8b6dd482065ec4808d2 OP_EQUALVERIFY OP_CHECKSIG", "type": "pubkeyhash"}, "value": 0.00093675, "n": 0}, {"scriptPubKey": {"reqSigs": 1, "hex": "76a914b0ffb00eedcc76729afd4e09bd25c28eaf8d41b488ac", "addresses": ["1H8tEFuKNGdrGGt97gLciYcu2mLfrqPrFD"], "asm": "OP_DUP OP_HASH160 b0ffb00eedcc76729afd4e09bd25c28eaf8d41b4 OP_EQUALVERIFY OP_CHECKSIG", "type": "pubkeyhash"}, "value": 0.00472798, "n": 1}], "hex": "01000000016270d5660b6fbdd824d5d2c5f7c6cdc8622c55cc7be939025732734142fff077000000006b483045022100c97b32ca7f632f817a3453c174ff4569225240afd8803d5518ca1d555f1579bc022054741651da701f11ba90ebf2117208f724bc00c2a482ccfea0049632565b1a60012103d61fc876244336ea52a24119c1a89027638ca65c93de2b98c8376aaab1f982e9ffffffff02eb6d0100000000001976a9144a42d730926dd9110a9ba8b6dd482065ec4808d288acde360700000000001976a914b0ffb00eedcc76729afd4e09bd25c28eaf8d41b488ac00000000", "vin": [{"sequence": 4294967295, "scriptSig": {"hex": "483045022100c97b32ca7f632f817a3453c174ff4569225240afd8803d5518ca1d555f1579bc022054741651da701f11ba90ebf2117208f724bc00c2a482ccfea0049632565b1a60012103d61fc876244336ea52a24119c1a89027638ca65c93de2b98c8376aaab1f982e9", "asm": "3045022100c97b32ca7f632f817a3453c174ff4569225240afd8803d5518ca1d555f1579bc022054741651da701f11ba90ebf2117208f724bc00c2a482ccfea0049632565b1a60[ALL] 03d61fc876244336ea52a24119c1a89027638ca65c93de2b98c8376aaab1f982e9"}, "vout": 0, "txid": "77f0ff42417332570239e97bcc552c62c8cdc6f7c5d2d524d8bd6f0b66d57062"}], "txid": "0bd54a82438a3db1fcb29e7a64eb4046d1718162cededba6d17355b4c1190d70", "blocktime": 1537873282, "version": 1, "confirmations": 11485, "time": 1537873282, "locktime": 0, "vsize": 226, "size": 226}