{"hash": "0bdbece0bd65cf01ba99ce01cc708f172b1bac0ce57778233c7398ea03885659", "blockhash": "00000000000000000018f53835495a110e01622372bf6ae95dc86f2b0ab887b0", "vout": [{"scriptPubKey": {"reqSigs": 1, "hex": "76a91446ae444c0410ce7c51daf9f39272df61d03bf66888ac", "addresses": ["17Sj4hQRNAjTDXh1wgANTAbvZRR7cd2NJN"], "asm": "OP_DUP OP_HASH160 46ae444c0410ce7c51daf9f39272df61d03bf668 OP_EQUALVERIFY OP_CHECKSIG", "type": "pubkeyhash"}, "value": 0.0034249, "n": 0}, {"scriptPubKey": {"type": "nulldata", "hex": "6a146f6d6e69000000000000001f0000000ab5d04c00", "asm": "OP_RETURN 6f6d6e69000000000000001f0000000ab5d04c00"}, "value": 0.0, "n": 1}, {"scriptPubKey": {"reqSigs": 1, "hex": "76a914e004004a401e9e445e38eeae243c3f54bee3a51088ac", "addresses": ["1MRV9yUDLdUaBb4wz95RUEVomKu7YokNUy"], "asm": "OP_DUP OP_HASH160 e004004a401e9e445e38eeae243c3f54bee3a510 OP_EQUALVERIFY OP_CHECKSIG", "type": "pubkeyhash"}, "value": 5.46e-06, "n": 2}], "hex": "0100000002d34ce2d06691626284e303b21f47bb6dc3a73c16516000a45c3936a173cabbcf010000006a473044022073d1bfe290677edfc8966203c14770f127d36278dc9b43c60e7b99c73ead6d330220674447879393e5f1b45f0e0a02b9e40c84370f94788d27bf09e4d909ddc2d2ab0121022df61b5f854a41f1559b2f7a86aa23fb7a43a4d3ab0783e7ec87f738d36c26ffffffffff51ec6056c41894250ac14ceac716da80e4faeb834d87339265f00c9691d417f3000000006a47304402200e7372fca80274d0c6909d7ffa5770fff60b2e287845b5c29332a9fc2afea2d6022042c217e0a693c070201d88c408a977d65119058beaddc4d977e0a6a4c8f60c240121023b6d8cd84467cfe6fe831bbdf44cb20cb3180001523862a359bd0bb5ada5b7ecffffffff03da390500000000001976a91446ae444c0410ce7c51daf9f39272df61d03bf66888ac0000000000000000166a146f6d6e69000000000000001f0000000ab5d04c0022020000000000001976a914e004004a401e9e445e38eeae243c3f54bee3a51088ac00000000", "vin": [{"sequence": 4294967295, "scriptSig": {"hex": "473044022073d1bfe290677edfc8966203c14770f127d36278dc9b43c60e7b99c73ead6d330220674447879393e5f1b45f0e0a02b9e40c84370f94788d27bf09e4d909ddc2d2ab0121022df61b5f854a41f1559b2f7a86aa23fb7a43a4d3ab0783e7ec87f738d36c26ff", "asm": "3044022073d1bfe290677edfc8966203c14770f127d36278dc9b43c60e7b99c73ead6d330220674447879393e5f1b45f0e0a02b9e40c84370f94788d27bf09e4d909ddc2d2ab[ALL] 022df61b5f854a41f1559b2f7a86aa23fb7a43a4d3ab0783e7ec87f738d36c26ff"}, "vout": 1, "txid": "cfbbca73a136395ca4006051163ca7c36dbb471fb203e38462629166d0e24cd3"}, {"sequence": 4294967295, "scriptSig": {"hex": "47304402200e7372fca80274d0c6909d7ffa5770fff60b2e287845b5c29332a9fc2afea2d6022042c217e0a693c070201d88c408a977d65119058beaddc4d977e0a6a4c8f60c240121023b6d8cd84467cfe6fe831bbdf44cb20cb3180001523862a359bd0bb5ada5b7ec", "asm": "304402200e7372fca80274d0c6909d7ffa5770fff60b2e287845b5c29332a9fc2afea2d6022042c217e0a693c070201d88c408a977d65119058beaddc4d977e0a6a4c8f60c24[ALL] 023b6d8cd84467cfe6fe831bbdf44cb20cb3180001523862a359bd0bb5ada5b7ec"}, "vout": 0, "txid": "f317d491960cf0659233874d83ebfae480da16c7ea4cc10a259418c45660ec51"}], "txid": "0bdbece0bd65cf01ba99ce01cc708f172b1bac0ce57778233c7398ea03885659", "blocktime": 1537870928, "version": 1, "confirmations": 11512, "time": 1537870928, "locktime": 0, "vsize": 403, "size": 403}