{"hash": "0bdde505bf662e1417781b9fc767a797adde3960f30c75f67e47fb51f34fb81d", "blockhash": "0000000000000000000baef3f32e3676a92c3b2e5da21b426e4f302fc371ce76", "vout": [{"scriptPubKey": {"reqSigs": 1, "hex": "76a914b9e060e6889cb9e94e81f0512559e9a666acb06c88ac", "addresses": ["1Hwpoaieu6EqdbUdB8N2FPKSt8iJE6XKJN"], "asm": "OP_DUP OP_HASH160 b9e060e6889cb9e94e81f0512559e9a666acb06c OP_EQUALVERIFY OP_CHECKSIG", "type": "pubkeyhash"}, "value": 0.01177865, "n": 0}, {"scriptPubKey": {"reqSigs": 1, "hex": "76a91427e6053f5732fd23a3d1d8df81f8e558419cfccf88ac", "addresses": ["14dxuayUshuuLvp6tTYw2aYSvYsHQND6Sk"], "asm": "OP_DUP OP_HASH160 27e6053f5732fd23a3d1d8df81f8e558419cfccf OP_EQUALVERIFY OP_CHECKSIG", "type": "pubkeyhash"}, "value": 0.18774271, "n": 1}], "hex": "0100000001e7bce43fe47aa94e4702f43a64fcd16dd7c63364c515e47bc5be8985eb1b39b1010000006a47304402201256358b4a7f3820f1ecb5a9a2caabde17defff248ea84552cb6148e6d85143f022053b0218eeac3e0d30f38ad8e85d497aa373cd0debed2d501d1f53d3c1d4bba2e0121028dd3ebb3e76d5ead06a9deddacc593757e0ce956b278126ce7a9f37d2b76bb0cffffffff0209f91100000000001976a914b9e060e6889cb9e94e81f0512559e9a666acb06c88acff781e01000000001976a91427e6053f5732fd23a3d1d8df81f8e558419cfccf88ac00000000", "vin": [{"sequence": 4294967295, "scriptSig": {"hex": "47304402201256358b4a7f3820f1ecb5a9a2caabde17defff248ea84552cb6148e6d85143f022053b0218eeac3e0d30f38ad8e85d497aa373cd0debed2d501d1f53d3c1d4bba2e0121028dd3ebb3e76d5ead06a9deddacc593757e0ce956b278126ce7a9f37d2b76bb0c", "asm": "304402201256358b4a7f3820f1ecb5a9a2caabde17defff248ea84552cb6148e6d85143f022053b0218eeac3e0d30f38ad8e85d497aa373cd0debed2d501d1f53d3c1d4bba2e[ALL] 028dd3ebb3e76d5ead06a9deddacc593757e0ce956b278126ce7a9f37d2b76bb0c"}, "vout": 1, "txid": "b1391beb8589bec57be415c56433c6d76dd1fc643af402474ea97ae43fe4bce7"}], "txid": "0bdde505bf662e1417781b9fc767a797adde3960f30c75f67e47fb51f34fb81d", "blocktime": 1537876114, "version": 1, "confirmations": 11460, "time": 1537876114, "locktime": 0, "vsize": 225, "size": 225}