{"hash": "0bdde84cd7ccdc5079100fafe1a4ec6d87ad576b4d913cc971b294e66f215aa7", "blockhash": "0000000000000000001e0dab787dd257d1dbfcb92a98c2207d5e1078be1f4165", "vout": [{"scriptPubKey": {"reqSigs": 1, "hex": "76a914e618aa57756bf3aed0b397d5fe7d94c6bd96bece88ac", "addresses": ["1MydxuN77dP6dro7r7eqkTBpg1Zw1EU9gg"], "asm": "OP_DUP OP_HASH160 e618aa57756bf3aed0b397d5fe7d94c6bd96bece OP_EQUALVERIFY OP_CHECKSIG", "type": "pubkeyhash"}, "value": 0.0004703, "n": 0}, {"scriptPubKey": {"reqSigs": 1, "hex": "76a914226570e45ba99001b62c490690de715ba555eff888ac", "addresses": ["148sVmPoYUFSCYfk5QAtDaRWp3rDErqJP1"], "asm": "OP_DUP OP_HASH160 226570e45ba99001b62c490690de715ba555eff8 OP_EQUALVERIFY OP_CHECKSIG", "type": "pubkeyhash"}, "value": 0.01238567, "n": 1}], "hex": "010000000154eaf5b5624f762bc4d0ad46bc445ac90fc8018d13bac044e7f9ffa382ef2edf010000006b483045022100e08897ef5433e581ecdd83e3779068ff2835bb94907f1527426089ed62ef2e9702200a875d90a984b58700768cf5ec4135615509cb93af0c41417c5cb45bc86eb1ec0121022dc2707e205023209150bf84509536bf55d9faa80c402f4b29e1c6acd66d5a37ffffffff02b6b70000000000001976a914e618aa57756bf3aed0b397d5fe7d94c6bd96bece88ac27e61200000000001976a914226570e45ba99001b62c490690de715ba555eff888ac00000000", "vin": [{"sequence": 4294967295, "scriptSig": {"hex": "483045022100e08897ef5433e581ecdd83e3779068ff2835bb94907f1527426089ed62ef2e9702200a875d90a984b58700768cf5ec4135615509cb93af0c41417c5cb45bc86eb1ec0121022dc2707e205023209150bf84509536bf55d9faa80c402f4b29e1c6acd66d5a37", "asm": "3045022100e08897ef5433e581ecdd83e3779068ff2835bb94907f1527426089ed62ef2e9702200a875d90a984b58700768cf5ec4135615509cb93af0c41417c5cb45bc86eb1ec[ALL] 022dc2707e205023209150bf84509536bf55d9faa80c402f4b29e1c6acd66d5a37"}, "vout": 1, "txid": "df2eef82a3fff9e744c0ba138d01c80fc95a44bc46add0c42b764f62b5f5ea54"}], "txid": "0bdde84cd7ccdc5079100fafe1a4ec6d87ad576b4d913cc971b294e66f215aa7", "blocktime": 1537872475, "version": 1, "confirmations": 11487, "time": 1537872475, "locktime": 0, "vsize": 226, "size": 226}