{"hash": "1dbcfb242437915e8c46f38d736924d2b702a15a64dcf2b78b73f93c10989bf2", "blockhash": "0000000000000000000baef3f32e3676a92c3b2e5da21b426e4f302fc371ce76", "vout": [{"scriptPubKey": {"reqSigs": 1, "hex": "a9147e5ad7f8af4bff5a950f696148a36de04d99095087", "addresses": ["3DD7te8hcS6ogEt2uec4idxEpGzgaNaL3k"], "asm": "OP_HASH160 7e5ad7f8af4bff5a950f696148a36de04d990950 OP_EQUAL", "type": "scripthash"}, "value": 0.00016335, "n": 0}, {"scriptPubKey": {"reqSigs": 1, "hex": "a9140be7846be16b05bea00dbec2fcd7e045a793cb1787", "addresses": ["32mxhko5mJHfkbkDPpz7SfdJwEJi21P1WK"], "asm": "OP_HASH160 0be7846be16b05bea00dbec2fcd7e045a793cb17 OP_EQUAL", "type": "scripthash"}, "value": 0.17718715, "n": 1}], "hex": "010000000001019441cb52a119fc38ca1a7e9a1501e1d5abc581205136a6f14a7f09ca024e8d3601000000232200202c66ece6da72bcbfeadf83a91236f4891c13e14d8ecebdcaa81666fc1aa73a31ffffffff02cf3f00000000000017a9147e5ad7f8af4bff5a950f696148a36de04d99095087bb5d0e010000000017a9140be7846be16b05bea00dbec2fcd7e045a793cb17870400483045022100f55e7bc3c4622906f976827f53e81d8973e5d68ad36ab5ad9fe5a3024fdd6fe50220393fe5127b8870b9b78a7fa6d641966d316a7a83e76c0cb9775231822f3c5e7601473044022048b79bc0918a879b13e927a33dd1b16907e9227b41067b9d588302643e62d7b202201368bcdb220e436199fc6399c44ae2a18ea167d23692dbd493207e59b746817b01475221029e6fbb942d34a473faaa5557c1bfe08d72102f0b9754ad140fd369d7a3ba3cdc2103871fc2ca08e6950b38867e8e6a0e94ee625223d3aa0df5c65f414c6d784467e252ae00000000", "vin": [{"txinwitness": ["", "3045022100f55e7bc3c4622906f976827f53e81d8973e5d68ad36ab5ad9fe5a3024fdd6fe50220393fe5127b8870b9b78a7fa6d641966d316a7a83e76c0cb9775231822f3c5e7601", "3044022048b79bc0918a879b13e927a33dd1b16907e9227b41067b9d588302643e62d7b202201368bcdb220e436199fc6399c44ae2a18ea167d23692dbd493207e59b746817b01", "5221029e6fbb942d34a473faaa5557c1bfe08d72102f0b9754ad140fd369d7a3ba3cdc2103871fc2ca08e6950b38867e8e6a0e94ee625223d3aa0df5c65f414c6d784467e252ae"], "sequence": 4294967295, "scriptSig": {"hex": "2200202c66ece6da72bcbfeadf83a91236f4891c13e14d8ecebdcaa81666fc1aa73a31", "asm": "00202c66ece6da72bcbfeadf83a91236f4891c13e14d8ecebdcaa81666fc1aa73a31"}, "vout": 1, "txid": "368d4e02ca097f4af1a636512081c5abd5e101159a7e1aca38fc19a152cb4194"}], "txid": "0be088642fd24e2c22fef933f1978f654fb05a1337ad178a816af94a95fa92b4", "blocktime": 1537876114, "version": 1, "confirmations": 11460, "time": 1537876114, "locktime": 0, "vsize": 206, "size": 371}