{"hash": "0be185e0d45a2ff79a75e9567940bb4d81ed73fe480fd2133cf22233a9126c26", "blockhash": "0000000000000000001e0dab787dd257d1dbfcb92a98c2207d5e1078be1f4165", "vout": [{"scriptPubKey": {"type": "nulldata", "hex": "6a146f6d6e69000000000000001f00000059bba14e00", "asm": "OP_RETURN 6f6d6e69000000000000001f00000059bba14e00"}, "value": 0.0, "n": 0}, {"scriptPubKey": {"reqSigs": 1, "hex": "76a914be3532ae77ff6c5f1a2b6552055053efc9cd7f0288ac", "addresses": ["1JLj7i4F4V62WLnADgmRrg85c1TujTK3g6"], "asm": "OP_DUP OP_HASH160 be3532ae77ff6c5f1a2b6552055053efc9cd7f02 OP_EQUALVERIFY OP_CHECKSIG", "type": "pubkeyhash"}, "value": 0.00486426, "n": 1}, {"scriptPubKey": {"reqSigs": 1, "hex": "76a914a25dec4d0011064ef106a983c39c7a540699f22088ac", "addresses": ["1FoWyxwPXuj4C6abqwhjDWdz6D4PZgYRjA"], "asm": "OP_DUP OP_HASH160 a25dec4d0011064ef106a983c39c7a540699f220 OP_EQUALVERIFY OP_CHECKSIG", "type": "pubkeyhash"}, "value": 5.46e-06, "n": 2}], "hex": "0100000002a326e18d9288179425bfbb4de781df1a3a2d3ba0bb85abd299a8ca7100e6b9cb020000006b4830450221008f2469a43285727ba6df978271c21b484e43ef9806ed237c1ebb86ae10c32af802204e53c40b5ea23c68540ae88d66e87e18cf7a21642eb31228a6e6d8fa28622a58012102cc22bfdfd3f420e090406c03834de15df12a6396888aa32e90442e69d938d3dffeffffff56463428b696e7a76b03983c4218caa9f75ffdeb0692215bd95508c813e60597020000006a47304402201e9f56a38a724f7ae78c49961f04a7d938cb9cc1a430902c8cd8b907971fc8eb02201fa90bbb66016192563704789b60102da80c96d3b9688da05dce3a040b44acd1012102cc22bfdfd3f420e090406c03834de15df12a6396888aa32e90442e69d938d3dffeffffff030000000000000000166a146f6d6e69000000000000001f00000059bba14e001a6c0700000000001976a914be3532ae77ff6c5f1a2b6552055053efc9cd7f0288ac22020000000000001976a914a25dec4d0011064ef106a983c39c7a540699f22088ac12490800", "vin": [{"sequence": 4294967294, "scriptSig": {"hex": "4830450221008f2469a43285727ba6df978271c21b484e43ef9806ed237c1ebb86ae10c32af802204e53c40b5ea23c68540ae88d66e87e18cf7a21642eb31228a6e6d8fa28622a58012102cc22bfdfd3f420e090406c03834de15df12a6396888aa32e90442e69d938d3df", "asm": "30450221008f2469a43285727ba6df978271c21b484e43ef9806ed237c1ebb86ae10c32af802204e53c40b5ea23c68540ae88d66e87e18cf7a21642eb31228a6e6d8fa28622a58[ALL] 02cc22bfdfd3f420e090406c03834de15df12a6396888aa32e90442e69d938d3df"}, "vout": 2, "txid": "cbb9e60071caa899d2ab85bba03b2d3a1adf81e74dbbbf25941788928de126a3"}, {"sequence": 4294967294, "scriptSig": {"hex": "47304402201e9f56a38a724f7ae78c49961f04a7d938cb9cc1a430902c8cd8b907971fc8eb02201fa90bbb66016192563704789b60102da80c96d3b9688da05dce3a040b44acd1012102cc22bfdfd3f420e090406c03834de15df12a6396888aa32e90442e69d938d3df", "asm": "304402201e9f56a38a724f7ae78c49961f04a7d938cb9cc1a430902c8cd8b907971fc8eb02201fa90bbb66016192563704789b60102da80c96d3b9688da05dce3a040b44acd1[ALL] 02cc22bfdfd3f420e090406c03834de15df12a6396888aa32e90442e69d938d3df"}, "vout": 2, "txid": "9705e613c80855d95b219206ebfd5ff7a9ca18423c98036ba7e796b628344656"}], "txid": "0be185e0d45a2ff79a75e9567940bb4d81ed73fe480fd2133cf22233a9126c26", "blocktime": 1537872475, "version": 1, "confirmations": 11487, "time": 1537872475, "locktime": 542994, "vsize": 404, "size": 404}