{"hash": "a53894d721b8294143b58cd04ff330881ef37aad828e7d8539741b239573f5ab", "blockhash": "0000000000000000001f76057863aec43deb6fa401d9628bb513d65a8098bfab", "vout": [{"scriptPubKey": {"reqSigs": 1, "hex": "76a9140d9cba89c610f333fff6d2dd96e0d0c212ac883588ac", "addresses": ["12EyYCA1KcPrWBtnSGY28o1MJ5WQZ4i2JZ"], "asm": "OP_DUP OP_HASH160 0d9cba89c610f333fff6d2dd96e0d0c212ac8835 OP_EQUALVERIFY OP_CHECKSIG", "type": "pubkeyhash"}, "value": 0.003744, "n": 0}, {"scriptPubKey": {"reqSigs": 1, "hex": "00146b8f828ee51e698a33326ed4200c5352489e3cfb", "addresses": ["bc1qdw8c9rh9re5c5vejdm2zqrzn2fyfu08m5r2vv0"], "asm": "0 6b8f828ee51e698a33326ed4200c5352489e3cfb", "type": "witness_v0_keyhash"}, "value": 0.00015915, "n": 1}], "hex": "01000000000101caffe9aa1611c4d5ec81cac6929afe1d1ff6a15af2f47874deeaf8485b86d64c0100000000ffffffff0280b60500000000001976a9140d9cba89c610f333fff6d2dd96e0d0c212ac883588ac2b3e0000000000001600146b8f828ee51e698a33326ed4200c5352489e3cfb02483045022100e2388ec9196a6d90c782dd09bcf484ba89a37b1302f7b236a88dfb8cf8e690ab022023c00907a810c90b88e7d3d6c5e14f9eeb43279628eeb2dd801c29e452acf919012103f9383bc641396068f9aec490b9283c208ab45e417a32810a32890417cc04cd9400000000", "vin": [{"txinwitness": ["3045022100e2388ec9196a6d90c782dd09bcf484ba89a37b1302f7b236a88dfb8cf8e690ab022023c00907a810c90b88e7d3d6c5e14f9eeb43279628eeb2dd801c29e452acf91901", "03f9383bc641396068f9aec490b9283c208ab45e417a32810a32890417cc04cd94"], "sequence": 4294967295, "scriptSig": {"hex": "", "asm": ""}, "vout": 1, "txid": "4cd6865b48f8eade7478f4f25aa1f61f1dfe9a92c6ca81ecd5c41116aae9ffca"}], "txid": "0be5dd1ac694829b7ef2f85d8e81a8aac5c29c61cb401b754e69ad804629cb80", "blocktime": 1537873891, "version": 1, "confirmations": 11478, "time": 1537873891, "locktime": 0, "vsize": 144, "size": 226}