{"hash": "0be79c290a62266efdcaea75eaebc21a92f07d752d64d71885eac69109975934", "blockhash": "0000000000000000001cda96e906b7601b7a6fb1a3b62bca570a9e5d8f4b3de1", "vout": [{"scriptPubKey": {"reqSigs": 1, "hex": "76a914f9db4ff3e771f15bbcf6a5df98e185f53e6ee36388ac", "addresses": ["1Pn7yrT7yes2SfcWC5m7AMYQDNeU9njfnA"], "asm": "OP_DUP OP_HASH160 f9db4ff3e771f15bbcf6a5df98e185f53e6ee363 OP_EQUALVERIFY OP_CHECKSIG", "type": "pubkeyhash"}, "value": 0.0094978, "n": 0}, {"scriptPubKey": {"reqSigs": 1, "hex": "76a9141ea999767f1fcbd4a8309d9c0adcf70255c29a3c88ac", "addresses": ["13o8SjUQKfyYJ9972qC53ejGQ4mkcj6Xeu"], "asm": "OP_DUP OP_HASH160 1ea999767f1fcbd4a8309d9c0adcf70255c29a3c OP_EQUALVERIFY OP_CHECKSIG", "type": "pubkeyhash"}, "value": 0.01461647, "n": 1}], "hex": "01000000014fb6c44593965d2a66ba87b377e20dc9cd1ca003417fee6f8f8d62bbdcd4ea3b060000006a4730440220185659a2aec6ff3c5e7e256c0cd37dc11036ceaa2ee4876f9ec3eeea194fa5ac02202324009895e079c889c12d1c4591b6bbaa509bd4831f9da1c52bd85c0fee543101210398dee7a1fded54f2f06c3063dbf204080f86a9feca0f2ad74437815db5928185ffffffff02147e0e00000000001976a914f9db4ff3e771f15bbcf6a5df98e185f53e6ee36388ac8f4d1600000000001976a9141ea999767f1fcbd4a8309d9c0adcf70255c29a3c88ac00000000", "vin": [{"sequence": 4294967295, "scriptSig": {"hex": "4730440220185659a2aec6ff3c5e7e256c0cd37dc11036ceaa2ee4876f9ec3eeea194fa5ac02202324009895e079c889c12d1c4591b6bbaa509bd4831f9da1c52bd85c0fee543101210398dee7a1fded54f2f06c3063dbf204080f86a9feca0f2ad74437815db5928185", "asm": "30440220185659a2aec6ff3c5e7e256c0cd37dc11036ceaa2ee4876f9ec3eeea194fa5ac02202324009895e079c889c12d1c4591b6bbaa509bd4831f9da1c52bd85c0fee5431[ALL] 0398dee7a1fded54f2f06c3063dbf204080f86a9feca0f2ad74437815db5928185"}, "vout": 6, "txid": "3bead4dcbb628d8f6fee7f4103a01ccdc90de277b387ba662a5d969345c4b64f"}], "txid": "0be79c290a62266efdcaea75eaebc21a92f07d752d64d71885eac69109975934", "blocktime": 1537873282, "version": 1, "confirmations": 11481, "time": 1537873282, "locktime": 0, "vsize": 225, "size": 225}