{"hash": "16125a02a64c8e05c69cb753afccefb38d7bdc0e4d4bff22a2105be0c0c0e15c", "blockhash": "00000000000000000017f5eb5941039fbcee6240d03bc1f2f8e35350df66a1d8", "vout": [{"scriptPubKey": {"reqSigs": 1, "hex": "76a914dbd133b935343a8b6e7ab99aa5ad86460f512e6588ac", "addresses": ["1M3HbdBLDq1uutWKo3bJD41rDSMVRtZxep"], "asm": "OP_DUP OP_HASH160 dbd133b935343a8b6e7ab99aa5ad86460f512e65 OP_EQUALVERIFY OP_CHECKSIG", "type": "pubkeyhash"}, "value": 0.0011, "n": 0}, {"scriptPubKey": {"reqSigs": 1, "hex": "a9149649ad6d2730bb28020a268d9d80df10a9f74ad487", "addresses": ["3FPfYWwfMfKMGY7fuPHvz2b73RhTNGzsm3"], "asm": "OP_HASH160 9649ad6d2730bb28020a268d9d80df10a9f74ad4 OP_EQUAL", "type": "scripthash"}, "value": 13.8067161, "n": 1}], "hex": "010000000001019bb3600bf45cb286664268f692dc4273eea059a3d79a72279e3df16e3a5753bb01000000232200207768efcc1e5eb3d28410fac3f45831004c860cc24cddd940a616b34324823fceffffffff02b0ad0100000000001976a914dbd133b935343a8b6e7ab99aa5ad86460f512e6588ac7a604b520000000017a9149649ad6d2730bb28020a268d9d80df10a9f74ad487040047304402204152e9de959e3f4d4537910fcf1905d40d954602e84f4672050706e6d0319e8402201da4f4bbe8adfa4fe462b797f962825cd8bd4357520404656b8729769fb4323001473044022046881d96d7d553c635f694e104906be91358534aaf83a4f0e44923bfe31ccac50220220626ea238007d85856796f15d6a29fb56a6a3287d5aae451a85377357d33c20147522102529d5d1f6733ab45d9d50e07db42c7f6b967ae321c38b726c2247f149959b8262103d0c936a5988dd8421c63240496b723b0ec42400c38b9350e32c2eb4f47d8796952ae00000000", "vin": [{"txinwitness": ["", "304402204152e9de959e3f4d4537910fcf1905d40d954602e84f4672050706e6d0319e8402201da4f4bbe8adfa4fe462b797f962825cd8bd4357520404656b8729769fb4323001", "3044022046881d96d7d553c635f694e104906be91358534aaf83a4f0e44923bfe31ccac50220220626ea238007d85856796f15d6a29fb56a6a3287d5aae451a85377357d33c201", "522102529d5d1f6733ab45d9d50e07db42c7f6b967ae321c38b726c2247f149959b8262103d0c936a5988dd8421c63240496b723b0ec42400c38b9350e32c2eb4f47d8796952ae"], "sequence": 4294967295, "scriptSig": {"hex": "2200207768efcc1e5eb3d28410fac3f45831004c860cc24cddd940a616b34324823fce", "asm": "00207768efcc1e5eb3d28410fac3f45831004c860cc24cddd940a616b34324823fce"}, "vout": 1, "txid": "bb53573a6ef13d9e27729ad7a359a0ee7342dc92f668426686b25cf40b60b39b"}], "txid": "0be7e4de51110ab6fe0fdc48bb0b66151f87d7c942038fbf371d08773fd63a5e", "blocktime": 1537874412, "version": 1, "confirmations": 11468, "time": 1537874412, "locktime": 0, "vsize": 207, "size": 372}