{"hash": "a6b45ed55d6dbe8ca231bb942d848f318e2ec67efd10fd76b93a983d9763d250", "blockhash": "0000000000000000001e0dab787dd257d1dbfcb92a98c2207d5e1078be1f4165", "vout": [{"scriptPubKey": {"reqSigs": 1, "hex": "a91432c48480bcfb37ad4302498490409209f0d9749787", "addresses": ["36KT8R8EmNX7cNpBmQ3pRdXNW82qrd3AvW"], "asm": "OP_HASH160 32c48480bcfb37ad4302498490409209f0d97497 OP_EQUAL", "type": "scripthash"}, "value": 0.015212, "n": 0}, {"scriptPubKey": {"reqSigs": 1, "hex": "a9142436c47e7996cb6953ae71383ddfba4aff26a2b387", "addresses": ["34zVrmPKUfnknskEpArrtkC5z1mKh7jwYj"], "asm": "OP_HASH160 2436c47e7996cb6953ae71383ddfba4aff26a2b3 OP_EQUAL", "type": "scripthash"}, "value": 0.0102981, "n": 1}], "hex": "02000000000102b640668599a8f4fadb32e6798c1108ba9caae323f2bb5a90bcb76d214bada358000000001716001428e0d94b9f4c12d8e1dc3f0d72ba97b869c14caafdffffffc21980bd2b2cea67344aa3dae84bccb760634879b1a9213e33fe5a3ff9716be201000000171600144a2d608b04931b5957bcab82820c704f36bce0f8fdffffff02303617000000000017a91432c48480bcfb37ad4302498490409209f0d9749787b2b60f000000000017a9142436c47e7996cb6953ae71383ddfba4aff26a2b38702473044022079a2a7ae4649bfac37161c494f50dca6cdd43dcadca32722907627a4aa17a230022002d6020a6a10b6db9f72a22ce0c2d7ba34329ec1692f8b362a28329a9ed12838012102932e993019e7128990d607c5b668b753493105602123d3cd112839a70e9ff6970247304402202df347cdde5af02ac5b5f8c591722e9fd0c988cf379230412eef0b5b27d618b70220273db2cb8961df0ca29d54933d54c6fb51487ad9cb3770748e1485498487b8b80121023290e14f15b11ef799de76efb3a2d1aa1022086a452d0bac85bdb989b293f4a700000000", "vin": [{"txinwitness": ["3044022079a2a7ae4649bfac37161c494f50dca6cdd43dcadca32722907627a4aa17a230022002d6020a6a10b6db9f72a22ce0c2d7ba34329ec1692f8b362a28329a9ed1283801", "02932e993019e7128990d607c5b668b753493105602123d3cd112839a70e9ff697"], "sequence": 4294967293, "scriptSig": {"hex": "16001428e0d94b9f4c12d8e1dc3f0d72ba97b869c14caa", "asm": "001428e0d94b9f4c12d8e1dc3f0d72ba97b869c14caa"}, "vout": 0, "txid": "58a3ad4b216db7bc905abbf223e3aa9cba08118c79e632dbfaf4a899856640b6"}, {"txinwitness": ["304402202df347cdde5af02ac5b5f8c591722e9fd0c988cf379230412eef0b5b27d618b70220273db2cb8961df0ca29d54933d54c6fb51487ad9cb3770748e1485498487b8b801", "023290e14f15b11ef799de76efb3a2d1aa1022086a452d0bac85bdb989b293f4a7"], "sequence": 4294967293, "scriptSig": {"hex": "1600144a2d608b04931b5957bcab82820c704f36bce0f8", "asm": "00144a2d608b04931b5957bcab82820c704f36bce0f8"}, "vout": 1, "txid": "e26b71f93f5afe333e21a9b179486360b7cc4be8daa34a3467ea2c2bbd8019c2"}], "txid": "0bef3947388adf536770429f71fa983be5bdd85aa6921e3ce323545ba78fec06", "blocktime": 1537872475, "version": 2, "confirmations": 11486, "time": 1537872475, "locktime": 0, "vsize": 256, "size": 418}