{"hash": "0bf0377488d202e05c53d45b9651bdc8aec10eeaa25bd1a7429c90af47a51f41", "blockhash": "0000000000000000000baef3f32e3676a92c3b2e5da21b426e4f302fc371ce76", "vout": [{"scriptPubKey": {"reqSigs": 1, "hex": "a9143eee6d4f3235228af4cefc6dc6c370aba4abc1c987", "addresses": ["37RmSdn5sXrxD1efJZHvCEwevz1FKVCUsF"], "asm": "OP_HASH160 3eee6d4f3235228af4cefc6dc6c370aba4abc1c9 OP_EQUAL", "type": "scripthash"}, "value": 0.02641162, "n": 0}, {"scriptPubKey": {"reqSigs": 1, "hex": "76a914b2c0071a54bdb45fc7002d9e0455a7c70293a60188ac", "addresses": ["1HJ9KU7c6Qbq6yGJHHPrygjKEC7UxhgD4t"], "asm": "OP_DUP OP_HASH160 b2c0071a54bdb45fc7002d9e0455a7c70293a601 OP_EQUALVERIFY OP_CHECKSIG", "type": "pubkeyhash"}, "value": 0.1068305, "n": 1}], "hex": "0200000001f5a713c4d6e5915c908eee9f0489ef3bad391c5357ed4bf6f6b83bf647f6512e000000006a4730440220694fb6d2441a37deaa20e25502683eff6d1726145180ebaa2b1daf20defd1927022070590afd5209769d258d43c59718bbd462895385483487d07c2f8b082150ddd20121022438a59e8a356e163a4df84cc14d358d3f457f01b1b4a1ae986726261096a5c6feffffff020a4d28000000000017a9143eee6d4f3235228af4cefc6dc6c370aba4abc1c987aa02a300000000001976a914b2c0071a54bdb45fc7002d9e0455a7c70293a60188ac15490800", "vin": [{"sequence": 4294967294, "scriptSig": {"hex": "4730440220694fb6d2441a37deaa20e25502683eff6d1726145180ebaa2b1daf20defd1927022070590afd5209769d258d43c59718bbd462895385483487d07c2f8b082150ddd20121022438a59e8a356e163a4df84cc14d358d3f457f01b1b4a1ae986726261096a5c6", "asm": "30440220694fb6d2441a37deaa20e25502683eff6d1726145180ebaa2b1daf20defd1927022070590afd5209769d258d43c59718bbd462895385483487d07c2f8b082150ddd2[ALL] 022438a59e8a356e163a4df84cc14d358d3f457f01b1b4a1ae986726261096a5c6"}, "vout": 0, "txid": "2e51f647f63bb8f6f64bed57531c39ad3bef89049fee8e905c91e5d6c413a7f5"}], "txid": "0bf0377488d202e05c53d45b9651bdc8aec10eeaa25bd1a7429c90af47a51f41", "blocktime": 1537876114, "version": 2, "confirmations": 11461, "time": 1537876114, "locktime": 542997, "vsize": 223, "size": 223}