{"hash": "acfb6f01d47a2580e4dc4ab606376d72c1fd64fea7027396b19c056a6c30d8d4", "blockhash": "0000000000000000001e0dab787dd257d1dbfcb92a98c2207d5e1078be1f4165", "vout": [{"scriptPubKey": {"reqSigs": 1, "hex": "a914c5d380e3e459898db51a7e97ab3f377148f235e887", "addresses": ["3Kj2QrThvmxGeV5rxsJDSmzokhHDQvjXta"], "asm": "OP_HASH160 c5d380e3e459898db51a7e97ab3f377148f235e8 OP_EQUAL", "type": "scripthash"}, "value": 0.062343, "n": 0}, {"scriptPubKey": {"reqSigs": 1, "hex": "a914dee0a1cc9f055700143e0f4ecee53180ab3530dc87", "addresses": ["3N1V2qWA5hpScEmS72pMooYRmXUiLmwPQQ"], "asm": "OP_HASH160 dee0a1cc9f055700143e0f4ecee53180ab3530dc OP_EQUAL", "type": "scripthash"}, "value": 0.49018582, "n": 1}], "hex": "020000000001016e2baa0e7a436833432117fa93f62e33cbc21856cf43d4bc60ef0d56f8b177620100000017160014cb5dbe423de4d42b6425c6921084c6197a5d2937ffffffff02bc205f000000000017a914c5d380e3e459898db51a7e97ab3f377148f235e887d6f6eb020000000017a914dee0a1cc9f055700143e0f4ecee53180ab3530dc8702483045022100fb43f664c70b45a41b99086df7fb7d881965f97b900ec85e7c2ba188f6ada237022035bb29f1f9f69b58b57b02f52992f14f3a01d2bee3414e0e75bdfc380e163670012102acecad485eda786cbe0422823b7594aea6854abb5ec85e267f1c4b87f3f758f700000000", "vin": [{"txinwitness": ["3045022100fb43f664c70b45a41b99086df7fb7d881965f97b900ec85e7c2ba188f6ada237022035bb29f1f9f69b58b57b02f52992f14f3a01d2bee3414e0e75bdfc380e16367001", "02acecad485eda786cbe0422823b7594aea6854abb5ec85e267f1c4b87f3f758f7"], "sequence": 4294967295, "scriptSig": {"hex": "160014cb5dbe423de4d42b6425c6921084c6197a5d2937", "asm": "0014cb5dbe423de4d42b6425c6921084c6197a5d2937"}, "vout": 1, "txid": "6277b1f8560def60bcd443cf5618c2cb332ef693fa1721433368437a0eaa2b6e"}], "txid": "0bf6876604a2ffc5233952905d685e600e3d9b6c86a1246c7854600550d02706", "blocktime": 1537872475, "version": 2, "confirmations": 11486, "time": 1537872475, "locktime": 0, "vsize": 166, "size": 248}