{"hash": "5d38db6d5cc4f972438ffc32c0442376311586ef6abbb34d1f8e911e2498e4a6", "blockhash": "0000000000000000000baef3f32e3676a92c3b2e5da21b426e4f302fc371ce76", "vout": [{"scriptPubKey": {"reqSigs": 1, "hex": "a9143e3a813279d672b97e0d8ff5bd7586181e6d46f687", "addresses": ["37N3uQw1YUVsYmmXh23rbC2sPoa1j5kd3B"], "asm": "OP_HASH160 3e3a813279d672b97e0d8ff5bd7586181e6d46f6 OP_EQUAL", "type": "scripthash"}, "value": 20.77822085, "n": 0}, {"scriptPubKey": {"reqSigs": 1, "hex": "76a91463cb9d6e17fe29bb92018ebe9c62be792b194bb788ac", "addresses": ["1A6fpQbFU44Bv6GQ3w4KkjbcESvc2uR56v"], "asm": "OP_DUP OP_HASH160 63cb9d6e17fe29bb92018ebe9c62be792b194bb7 OP_EQUALVERIFY OP_CHECKSIG", "type": "pubkeyhash"}, "value": 0.19533656, "n": 1}], "hex": "02000000000101204d7b64d5d397012f298f30bd3472168b2d519a1c0b64521c0413bb0beace060100000017160014c5b4580fc7a1e01e0ef473c60e9cfef09341f73bfeffffff02850cd97b0000000017a9143e3a813279d672b97e0d8ff5bd7586181e6d46f687580f2a01000000001976a91463cb9d6e17fe29bb92018ebe9c62be792b194bb788ac02483045022100ba64d5bd0514d56b30d1d9b22304df73dbe02f5cd00a618512db800a1722d88f0220009538f5bf985fb0eec9979b070f9e8fdd7aa9659415fb4ee420c2ecb7549c610121035f88fbca1d6948793d2b58a5ea67ee5abb089ae7fbd97b8ffee7d2aab21949a917490800", "vin": [{"txinwitness": ["3045022100ba64d5bd0514d56b30d1d9b22304df73dbe02f5cd00a618512db800a1722d88f0220009538f5bf985fb0eec9979b070f9e8fdd7aa9659415fb4ee420c2ecb7549c6101", "035f88fbca1d6948793d2b58a5ea67ee5abb089ae7fbd97b8ffee7d2aab21949a9"], "sequence": 4294967294, "scriptSig": {"hex": "160014c5b4580fc7a1e01e0ef473c60e9cfef09341f73b", "asm": "0014c5b4580fc7a1e01e0ef473c60e9cfef09341f73b"}, "vout": 1, "txid": "06ceea0bbb13041c52640b1c9a512d8b167234bd308f292f0197d3d5647b4d20"}], "txid": "0bf9d09b0ddf21e2d66323386903be318e14c84ca287d275bce234c4b9310d1e", "blocktime": 1537876114, "version": 2, "confirmations": 11460, "time": 1537876114, "locktime": 542999, "vsize": 168, "size": 250}