{"hash": "0c015b829411d42993e08a4329e5d6730a6be75cb30e9e8a55cd02ffe6bafded", "blockhash": "0000000000000000001cda96e906b7601b7a6fb1a3b62bca570a9e5d8f4b3de1", "vout": [{"scriptPubKey": {"reqSigs": 1, "hex": "76a914280ecd849b40aa413e22c984b7952e2adc90052188ac", "addresses": ["14eomC2YuN7HviMTfCUth26526iXvpyGT2"], "asm": "OP_DUP OP_HASH160 280ecd849b40aa413e22c984b7952e2adc900521 OP_EQUALVERIFY OP_CHECKSIG", "type": "pubkeyhash"}, "value": 0.01031742, "n": 0}, {"scriptPubKey": {"reqSigs": 1, "hex": "76a914a33fafc04e3126172438aefcec3006dbbf545ecd88ac", "addresses": ["1FtBSHanmvWdU7DkRAAqeKU3xveXzgKNLV"], "asm": "OP_DUP OP_HASH160 a33fafc04e3126172438aefcec3006dbbf545ecd OP_EQUALVERIFY OP_CHECKSIG", "type": "pubkeyhash"}, "value": 0.0013853, "n": 1}], "hex": "01000000019f4c105b489a3035c663ca2a164a949633153f41831ade2bfc19c996fe91088e010000006a47304402205bd9251ba3f7015ea6e529de5742753b774ee9458733eb90ff02b8d4093bafe00220130fc7bc8ab4a496ea3e45889de10aa838a73368a82746523c644b4ac63a860901210213530aa73ec9f6162899ea0a007b104ce6287fed488bd74703390a10a2aac79dffffffff023ebe0f00000000001976a914280ecd849b40aa413e22c984b7952e2adc90052188ac221d0200000000001976a914a33fafc04e3126172438aefcec3006dbbf545ecd88ac00000000", "vin": [{"sequence": 4294967295, "scriptSig": {"hex": "47304402205bd9251ba3f7015ea6e529de5742753b774ee9458733eb90ff02b8d4093bafe00220130fc7bc8ab4a496ea3e45889de10aa838a73368a82746523c644b4ac63a860901210213530aa73ec9f6162899ea0a007b104ce6287fed488bd74703390a10a2aac79d", "asm": "304402205bd9251ba3f7015ea6e529de5742753b774ee9458733eb90ff02b8d4093bafe00220130fc7bc8ab4a496ea3e45889de10aa838a73368a82746523c644b4ac63a8609[ALL] 0213530aa73ec9f6162899ea0a007b104ce6287fed488bd74703390a10a2aac79d"}, "vout": 1, "txid": "8e0891fe96c919fc2bde1a83413f153396944a162aca63c635309a485b104c9f"}], "txid": "0c015b829411d42993e08a4329e5d6730a6be75cb30e9e8a55cd02ffe6bafded", "blocktime": 1537873282, "version": 1, "confirmations": 11485, "time": 1537873282, "locktime": 0, "vsize": 225, "size": 225}