{"hash": "0c02ec9d184d179a959505cc77d4a0653a62bafe4fcb2cd7ccba47ead424d564", "blockhash": "0000000000000000000baef3f32e3676a92c3b2e5da21b426e4f302fc371ce76", "vout": [{"scriptPubKey": {"reqSigs": 1, "hex": "76a914a55b762e51b795285792ec8fc3975fc926c7466188ac", "addresses": ["1G5L4X594c9eMwB9dZ8WeZwGYmYeuHgtmw"], "asm": "OP_DUP OP_HASH160 a55b762e51b795285792ec8fc3975fc926c74661 OP_EQUALVERIFY OP_CHECKSIG", "type": "pubkeyhash"}, "value": 0.48577829, "n": 0}, {"scriptPubKey": {"reqSigs": 1, "hex": "a914fdc29e8473de8a4ae7479f223dbfdf05330e358187", "addresses": ["3Qpn2TS13qyrk1Dtmb9NvukojUpcAegQM9"], "asm": "OP_HASH160 fdc29e8473de8a4ae7479f223dbfdf05330e3581 OP_EQUAL", "type": "scripthash"}, "value": 0.014431, "n": 1}], "hex": "010000000169daf55bf6c94649b4c884988ffda4c049e0837951150f42f222ccb5300b7523000000006b483045022100ba5e184518186a3e92bf2e1d40580047a1b73a3b978929821bb1d7ea0526f4ae022005089886942681335cd936b255bb8ec22e7d21fa2416f831f260da690e9100a1012103950c20a5ab671584c2ebc5d5015f5443d8ef6215a1f2d2b47d0d1b0a542d5009ffffffff02253de502000000001976a914a55b762e51b795285792ec8fc3975fc926c7466188ac1c0516000000000017a914fdc29e8473de8a4ae7479f223dbfdf05330e35818700000000", "vin": [{"sequence": 4294967295, "scriptSig": {"hex": "483045022100ba5e184518186a3e92bf2e1d40580047a1b73a3b978929821bb1d7ea0526f4ae022005089886942681335cd936b255bb8ec22e7d21fa2416f831f260da690e9100a1012103950c20a5ab671584c2ebc5d5015f5443d8ef6215a1f2d2b47d0d1b0a542d5009", "asm": "3045022100ba5e184518186a3e92bf2e1d40580047a1b73a3b978929821bb1d7ea0526f4ae022005089886942681335cd936b255bb8ec22e7d21fa2416f831f260da690e9100a1[ALL] 03950c20a5ab671584c2ebc5d5015f5443d8ef6215a1f2d2b47d0d1b0a542d5009"}, "vout": 0, "txid": "23750b30b5cc22f2420f15517983e049c0a4fd8f9884c8b44946c9f65bf5da69"}], "txid": "0c02ec9d184d179a959505cc77d4a0653a62bafe4fcb2cd7ccba47ead424d564", "blocktime": 1537876114, "version": 1, "confirmations": 11460, "time": 1537876114, "locktime": 0, "vsize": 224, "size": 224}