{"hash": "0c02ee6e186206f33ef4671b0aa5a71ba5c1f80b4452c5b239f499fe60a91e42", "blockhash": "0000000000000000001e0dab787dd257d1dbfcb92a98c2207d5e1078be1f4165", "vout": [{"scriptPubKey": {"reqSigs": 1, "hex": "76a914acd2ec76ba7dd39ac53f4afcbaca52758c05bbeb88ac", "addresses": ["1GkouEK43xYb2fzBULoobdWAitNusbJWq2"], "asm": "OP_DUP OP_HASH160 acd2ec76ba7dd39ac53f4afcbaca52758c05bbeb OP_EQUALVERIFY OP_CHECKSIG", "type": "pubkeyhash"}, "value": 0.00153754, "n": 0}, {"scriptPubKey": {"reqSigs": 1, "hex": "76a91459541425f08f2bffb87f8f9ba8bca23d9ffa6dec88ac", "addresses": ["199KrxtngGm6KprjVjSaZt9ssakR8oG3ES"], "asm": "OP_DUP OP_HASH160 59541425f08f2bffb87f8f9ba8bca23d9ffa6dec OP_EQUALVERIFY OP_CHECKSIG", "type": "pubkeyhash"}, "value": 0.0015698, "n": 1}], "hex": "01000000018d95fe92b643a5bcbea91b965eb26928e277f9ea95ebb13a0216fb45dfc33368000000006b483045022100cfa79764c37409cc829101f6de521eceb8bd89b4ece37d7132eaaf4b3b64f995022001f1f70e1fa3cd197c6cacf42412e7dcbc22782afb0aa7e4142aace378b8e68501210367bf166a59c2b3c55ef69db608a7e3c952db39b57db56b3cbb792c8890b5ed9cffffffff029a580200000000001976a914acd2ec76ba7dd39ac53f4afcbaca52758c05bbeb88ac34650200000000001976a91459541425f08f2bffb87f8f9ba8bca23d9ffa6dec88ac00000000", "vin": [{"sequence": 4294967295, "scriptSig": {"hex": "483045022100cfa79764c37409cc829101f6de521eceb8bd89b4ece37d7132eaaf4b3b64f995022001f1f70e1fa3cd197c6cacf42412e7dcbc22782afb0aa7e4142aace378b8e68501210367bf166a59c2b3c55ef69db608a7e3c952db39b57db56b3cbb792c8890b5ed9c", "asm": "3045022100cfa79764c37409cc829101f6de521eceb8bd89b4ece37d7132eaaf4b3b64f995022001f1f70e1fa3cd197c6cacf42412e7dcbc22782afb0aa7e4142aace378b8e685[ALL] 0367bf166a59c2b3c55ef69db608a7e3c952db39b57db56b3cbb792c8890b5ed9c"}, "vout": 0, "txid": "6833c3df45fb16023ab1eb95eaf977e22869b25e961ba9bebca543b692fe958d"}], "txid": "0c02ee6e186206f33ef4671b0aa5a71ba5c1f80b4452c5b239f499fe60a91e42", "blocktime": 1537872475, "version": 1, "confirmations": 11487, "time": 1537872475, "locktime": 0, "vsize": 226, "size": 226}