{"hash": "0c043e66f4f6f599584586d03c2bc0a1269588f07a878543d7cf020981bb6614", "blockhash": "00000000000000000017f5eb5941039fbcee6240d03bc1f2f8e35350df66a1d8", "vout": [{"scriptPubKey": {"reqSigs": 1, "hex": "76a914c8f8fdc2fb4e5c0c185d4c3d2942cf998f165b1a88ac", "addresses": ["1KKeRakRdCGX7iHDsByRJQ4fXpWUq3QL84"], "asm": "OP_DUP OP_HASH160 c8f8fdc2fb4e5c0c185d4c3d2942cf998f165b1a OP_EQUALVERIFY OP_CHECKSIG", "type": "pubkeyhash"}, "value": 0.00023833, "n": 0}, {"scriptPubKey": {"reqSigs": 1, "hex": "76a914bf774fd996f1aa7e3871cf729cef1c38032f974488ac", "addresses": ["1JTNzaT674mSsSJ9fVU3c3XgdhkUn6ry5N"], "asm": "OP_DUP OP_HASH160 bf774fd996f1aa7e3871cf729cef1c38032f9744 OP_EQUALVERIFY OP_CHECKSIG", "type": "pubkeyhash"}, "value": 0.00254, "n": 1}], "hex": "01000000038ca6e1dfb424b15b024fafd4274a62d2be809fda04fe4392aba18100347fe312000000006b4830450221008f599e40a08fd0470e022850f7c71bff6adb575ce37ed6ed5e37ff618a4fb224022002ee5b9ee0aa291adebe8fcf4df91c1aea68793201d9ab54b9a65d58b75c4193012102fd66742320bace8be8df08263cc51e2521587f5f6748dd2e3bd4eafc48ca70e6ffffffff05766cdb2b7408d8e719d31fd47541139cb7dc72beceeb1eb8e8a6ac67be9e19000000006a4730440220688e7cef40852e3b751c74a4acb0073f2655734d329cba8cf1e148479cd9bf9002206a81e15a3ccfd2afc1acc1007546b55daf1304f93b4b90c4f81dcd060a6f86be012102fd66742320bace8be8df08263cc51e2521587f5f6748dd2e3bd4eafc48ca70e6ffffffff2be3cf6b463d26a596e9efc2be0153d9c95525e8c40015ee835621902d3a089b000000006b483045022100f60d6215a6cbd4d1d2ed73c02d2f3d1bae3e85ac68b291a70afb504c247fd3c2022005ac1b32c7b8d0a8a8e5ed5ae9f34df31df72439b27421689e14de0e5ec388e3012102fd66742320bace8be8df08263cc51e2521587f5f6748dd2e3bd4eafc48ca70e6ffffffff02195d0000000000001976a914c8f8fdc2fb4e5c0c185d4c3d2942cf998f165b1a88ac30e00300000000001976a914bf774fd996f1aa7e3871cf729cef1c38032f974488ac00000000", "vin": [{"sequence": 4294967295, "scriptSig": {"hex": "4830450221008f599e40a08fd0470e022850f7c71bff6adb575ce37ed6ed5e37ff618a4fb224022002ee5b9ee0aa291adebe8fcf4df91c1aea68793201d9ab54b9a65d58b75c4193012102fd66742320bace8be8df08263cc51e2521587f5f6748dd2e3bd4eafc48ca70e6", "asm": "30450221008f599e40a08fd0470e022850f7c71bff6adb575ce37ed6ed5e37ff618a4fb224022002ee5b9ee0aa291adebe8fcf4df91c1aea68793201d9ab54b9a65d58b75c4193[ALL] 02fd66742320bace8be8df08263cc51e2521587f5f6748dd2e3bd4eafc48ca70e6"}, "vout": 0, "txid": "12e37f340081a1ab9243fe04da9f80bed2624a27d4af4f025bb124b4dfe1a68c"}, {"sequence": 4294967295, "scriptSig": {"hex": "4730440220688e7cef40852e3b751c74a4acb0073f2655734d329cba8cf1e148479cd9bf9002206a81e15a3ccfd2afc1acc1007546b55daf1304f93b4b90c4f81dcd060a6f86be012102fd66742320bace8be8df08263cc51e2521587f5f6748dd2e3bd4eafc48ca70e6", "asm": "30440220688e7cef40852e3b751c74a4acb0073f2655734d329cba8cf1e148479cd9bf9002206a81e15a3ccfd2afc1acc1007546b55daf1304f93b4b90c4f81dcd060a6f86be[ALL] 02fd66742320bace8be8df08263cc51e2521587f5f6748dd2e3bd4eafc48ca70e6"}, "vout": 0, "txid": "199ebe67aca6e8b81eebcebe72dcb79c134175d41fd319e7d808742bdb6c7605"}, {"sequence": 4294967295, "scriptSig": {"hex": "483045022100f60d6215a6cbd4d1d2ed73c02d2f3d1bae3e85ac68b291a70afb504c247fd3c2022005ac1b32c7b8d0a8a8e5ed5ae9f34df31df72439b27421689e14de0e5ec388e3012102fd66742320bace8be8df08263cc51e2521587f5f6748dd2e3bd4eafc48ca70e6", "asm": "3045022100f60d6215a6cbd4d1d2ed73c02d2f3d1bae3e85ac68b291a70afb504c247fd3c2022005ac1b32c7b8d0a8a8e5ed5ae9f34df31df72439b27421689e14de0e5ec388e3[ALL] 02fd66742320bace8be8df08263cc51e2521587f5f6748dd2e3bd4eafc48ca70e6"}, "vout": 0, "txid": "9b083a2d90215683ee1500c4e82555c9d95301bec2efe996a5263d466bcfe32b"}], "txid": "0c043e66f4f6f599584586d03c2bc0a1269588f07a878543d7cf020981bb6614", "blocktime": 1537874412, "version": 1, "confirmations": 11468, "time": 1537874412, "locktime": 0, "vsize": 521, "size": 521}