{"hash": "0c07c6f258949753e3a82d3ae4478b0ea52b1292a4a6d2159779bf3b954150f1", "blockhash": "000000000000000000022b45ed06c6f4ccd3cf7fb5ba4856ebd2e58215665228", "vout": [{"scriptPubKey": {"type": "nulldata", "hex": "6a146f6d6e69000000000000001f000002299cb18199", "asm": "OP_RETURN 6f6d6e69000000000000001f000002299cb18199"}, "value": 0.0, "n": 0}, {"scriptPubKey": {"reqSigs": 1, "hex": "76a914042aac5f381f18acccda2005792bf8f35c84c6fa88ac", "addresses": ["1P2pmCnx5Ex5ZR2WJ46tFbQbeFCX1Aq7L"], "asm": "OP_DUP OP_HASH160 042aac5f381f18acccda2005792bf8f35c84c6fa OP_EQUALVERIFY OP_CHECKSIG", "type": "pubkeyhash"}, "value": 0.00494825, "n": 1}, {"scriptPubKey": {"reqSigs": 1, "hex": "76a914a25dec4d0011064ef106a983c39c7a540699f22088ac", "addresses": ["1FoWyxwPXuj4C6abqwhjDWdz6D4PZgYRjA"], "asm": "OP_DUP OP_HASH160 a25dec4d0011064ef106a983c39c7a540699f220 OP_EQUALVERIFY OP_CHECKSIG", "type": "pubkeyhash"}, "value": 5.46e-06, "n": 2}], "hex": "0100000004c98fa0bffc3ba8ebd95db053638141f28e6216c1d928c7f210200eadef8f1a0a000000006b483045022100ecf3618a7e074f3de1c1cfa1d12a9d0a8695ccc8ad954291fe479640ba3b470302200c83036943939c91c4b42b1cdc59ad63d0d3618f209b30533021b046c61918b90121025bae862ba5340d6649fa34a58f60efd9e3ae1dd2088283f291438c506c2bab34fefffffff7a10323af7d2553f0925c98fb44a78b3bc55512fb91ffa0abe04e6920032bea000000006a47304402207ec8fb9dedd202a13837bb5c9dcf97b7e8a5fb97175f60822c927496d6727d9502201e49372aa70b93c66f6eec5c3e5c01e753d542d29732884cf119ab749cb4b57c0121025bae862ba5340d6649fa34a58f60efd9e3ae1dd2088283f291438c506c2bab34feffffffb360d23c1c1432c86379bbb45deb873432e4f766a3681609e34381369e85e121020000006a47304402202500edb2cef9e85b8bf0fe70e813959e15180535d34ef59c115498540300694b0220687584214fae1cb3af5fca466fb7e9948636d00c0c4e128f3a030463529b41400121025bae862ba5340d6649fa34a58f60efd9e3ae1dd2088283f291438c506c2bab34feffffffea5b17aa06362d62c68bf26bf89305a3093b75b48c5dc4ee7e0ea1d2bcf9f3d3000000006b483045022100fed1d10bdd7ade1682f4a460aca5ed2bb2da5b94c69e0922572d72ac8482183802200ce650e7fe8dd48b10b10645484dfe2a04cd1a54bb597a4ab0fda0ce70d9e80d0121025bae862ba5340d6649fa34a58f60efd9e3ae1dd2088283f291438c506c2bab34feffffff030000000000000000166a146f6d6e69000000000000001f000002299cb18199e98c0700000000001976a914042aac5f381f18acccda2005792bf8f35c84c6fa88ac22020000000000001976a914a25dec4d0011064ef106a983c39c7a540699f22088ac0b490800", "vin": [{"sequence": 4294967294, "scriptSig": {"hex": "483045022100ecf3618a7e074f3de1c1cfa1d12a9d0a8695ccc8ad954291fe479640ba3b470302200c83036943939c91c4b42b1cdc59ad63d0d3618f209b30533021b046c61918b90121025bae862ba5340d6649fa34a58f60efd9e3ae1dd2088283f291438c506c2bab34", "asm": "3045022100ecf3618a7e074f3de1c1cfa1d12a9d0a8695ccc8ad954291fe479640ba3b470302200c83036943939c91c4b42b1cdc59ad63d0d3618f209b30533021b046c61918b9[ALL] 025bae862ba5340d6649fa34a58f60efd9e3ae1dd2088283f291438c506c2bab34"}, "vout": 0, "txid": "0a1a8fefad0e2010f2c728d9c116628ef241816353b05dd9eba83bfcbfa08fc9"}, {"sequence": 4294967294, "scriptSig": {"hex": "47304402207ec8fb9dedd202a13837bb5c9dcf97b7e8a5fb97175f60822c927496d6727d9502201e49372aa70b93c66f6eec5c3e5c01e753d542d29732884cf119ab749cb4b57c0121025bae862ba5340d6649fa34a58f60efd9e3ae1dd2088283f291438c506c2bab34", "asm": "304402207ec8fb9dedd202a13837bb5c9dcf97b7e8a5fb97175f60822c927496d6727d9502201e49372aa70b93c66f6eec5c3e5c01e753d542d29732884cf119ab749cb4b57c[ALL] 025bae862ba5340d6649fa34a58f60efd9e3ae1dd2088283f291438c506c2bab34"}, "vout": 0, "txid": "ea2b0320694ee0aba0ff91fb1255c53b8ba744fb985c92f053257daf2303a1f7"}, {"sequence": 4294967294, "scriptSig": {"hex": "47304402202500edb2cef9e85b8bf0fe70e813959e15180535d34ef59c115498540300694b0220687584214fae1cb3af5fca466fb7e9948636d00c0c4e128f3a030463529b41400121025bae862ba5340d6649fa34a58f60efd9e3ae1dd2088283f291438c506c2bab34", "asm": "304402202500edb2cef9e85b8bf0fe70e813959e15180535d34ef59c115498540300694b0220687584214fae1cb3af5fca466fb7e9948636d00c0c4e128f3a030463529b4140[ALL] 025bae862ba5340d6649fa34a58f60efd9e3ae1dd2088283f291438c506c2bab34"}, "vout": 2, "txid": "21e1859e368143e3091668a366f7e4323487eb5db4bb7963c832141c3cd260b3"}, {"sequence": 4294967294, "scriptSig": {"hex": "483045022100fed1d10bdd7ade1682f4a460aca5ed2bb2da5b94c69e0922572d72ac8482183802200ce650e7fe8dd48b10b10645484dfe2a04cd1a54bb597a4ab0fda0ce70d9e80d0121025bae862ba5340d6649fa34a58f60efd9e3ae1dd2088283f291438c506c2bab34", "asm": "3045022100fed1d10bdd7ade1682f4a460aca5ed2bb2da5b94c69e0922572d72ac8482183802200ce650e7fe8dd48b10b10645484dfe2a04cd1a54bb597a4ab0fda0ce70d9e80d[ALL] 025bae862ba5340d6649fa34a58f60efd9e3ae1dd2088283f291438c506c2bab34"}, "vout": 0, "txid": "d3f3f9bcd2a10e7eeec45d8cb4753b09a30593f86bf28bc6622d3606aa175bea"}], "txid": "0c07c6f258949753e3a82d3ae4478b0ea52b1292a4a6d2159779bf3b954150f1", "blocktime": 1537869901, "version": 1, "confirmations": 11524, "time": 1537869901, "locktime": 542987, "vsize": 699, "size": 699}