{"hash": "b07e25b8ef4fdf3a7c42801dda36f0c3380a4abce79851fbd913eb8dffe418be", "blockhash": "00000000000000000017f5eb5941039fbcee6240d03bc1f2f8e35350df66a1d8", "vout": [{"scriptPubKey": {"reqSigs": 1, "hex": "76a91475fe39eb47ba28e816977a3fcf35bf8f16bbbf3588ac", "addresses": ["1BktcPpUsqahsACFuKBTKQ78tngtH8jAGw"], "asm": "OP_DUP OP_HASH160 75fe39eb47ba28e816977a3fcf35bf8f16bbbf35 OP_EQUALVERIFY OP_CHECKSIG", "type": "pubkeyhash"}, "value": 1.25426855, "n": 0}, {"scriptPubKey": {"reqSigs": 1, "hex": "a9142323fe07461088fc74ff90b2beef4c3d6693435787", "addresses": ["34tph3esv2DKpyBpNDr51Nzx2E7Duk7Gii"], "asm": "OP_HASH160 2323fe07461088fc74ff90b2beef4c3d66934357 OP_EQUAL", "type": "scripthash"}, "value": 0.01004193, "n": 1}, {"scriptPubKey": {"reqSigs": 1, "hex": "76a914dd23e90716530fee1cdf0baa1b491861597c751b88ac", "addresses": ["1MAHMV3GtCSSXwWMiVfSFvMK6sQKdHEiVu"], "asm": "OP_DUP OP_HASH160 dd23e90716530fee1cdf0baa1b491861597c751b OP_EQUALVERIFY OP_CHECKSIG", "type": "pubkeyhash"}, "value": 0.0116052, "n": 2}], "hex": "02000000000106aa221127ee7402fe8d67de4812d9e6eed23e6dbe4916af19bcdc143bb60ab7af0000000017160014b04d8b7975bba300602d08625361133cb8a82126feffffffc0ffe871618f097d6ab6a25e524768eda604752123a3d4d5c350203265c05169bc0000006b483045022100da17f6dce909eaeaaa4c55312982b6b4a61a8347403b7b9de9e396c47b6fffab0220505daf8f587f3e5904f6a27cad9ae8bf5b26aa3dbe19b554645ad9f11ea73e4f0121037947c0afbb0436dbb0d45db8ea7c018591d6fa10310f585c981684cc012378dbfeffffffd1675c5109cc457ff2bad471198a305bbf0ec81b20509ac81a9d3a2dfea139ab000000006b483045022100bcf25df77cdad09c22ff68b87427fedab5cbfd29334e8363e23001113de176e002202ec74a2342c7fa36432b6f992337145b2e24612905bbc506a70eb564a8246e0801210292cada664b9335975a61fd1e138979f0a5f8ec60860bb6f8d19654c25d28340cfeffffffd7e1645cc780b45f042fac62da8eb3d1bc1a1841735e1d3f7f60859f3e288b11030000006a47304402207e6059122216cfa44045afb8d2f4d9edee3f95326613384e8aea5f14d608d618022078747252e2a5c4e50255fb880b4049dc10a75cbaf49ae694671bc331331dbda50121024bc8958a610ad3c7803153f4db236a9931b78e644caccf664fdf9ae22a836ae7feffffffe7463a9f72cb9a3f76af4d9daa51f0c824ca0a7edcc95af53b6eea6028e36131020000006b4830450221008f532a468b2e871a61693d8fa50d6305f2ee5055f0cc724796862eb721e7783c02201bc9b549ed9656931b4cd7e9250ba54540fe9109951a02f1c3ce1bd10cb0dc61012102e2441f769991b3d782ad701ec27d06a1e11f59093f5c4dbc99c6f04c5e649fbcfefffffff40343786f853f023144d3574cff5706e371629690b98e75721b005941ad724b1700000017160014143c54ef6400a12d49d34ec5bc9e6a3f317320b2feffffff03a7dc7907000000001976a91475fe39eb47ba28e816977a3fcf35bf8f16bbbf3588aca1520f000000000017a9142323fe07461088fc74ff90b2beef4c3d669343578748b51100000000001976a914dd23e90716530fee1cdf0baa1b491861597c751b88ac02483045022100ac112888632c3effecdc08ff1c411c639288d4049ad181715812902ee4ec3c0d02204587cb7a1e23db6d8c69b1ca6755404084183c991f033e12b0af88dcb4acf90d012103393e2bca9084879dda93bc2099da6956e387c97be6c70196336136fa92d6448b000000000247304402202c1b37d6a127de86094d58826b8a3b36775f2ba2ce579df00f0862801a068dcf0220587d73c645c1eb9538a97b53b59c18ee9c29fd9f73d3f7e71c763ea58305b1ea012103bb7994ea34f8e25ffc2a38a39f065e57eb619ea27cf884c0bf674dea0b3ff13db3480800", "vin": [{"txinwitness": ["3045022100ac112888632c3effecdc08ff1c411c639288d4049ad181715812902ee4ec3c0d02204587cb7a1e23db6d8c69b1ca6755404084183c991f033e12b0af88dcb4acf90d01", "03393e2bca9084879dda93bc2099da6956e387c97be6c70196336136fa92d6448b"], "sequence": 4294967294, "scriptSig": {"hex": "160014b04d8b7975bba300602d08625361133cb8a82126", "asm": "0014b04d8b7975bba300602d08625361133cb8a82126"}, "vout": 0, "txid": "afb70ab63b14dcbc19af1649be6d3ed2eee6d91248de678dfe0274ee271122aa"}, {"sequence": 4294967294, "scriptSig": {"hex": "483045022100da17f6dce909eaeaaa4c55312982b6b4a61a8347403b7b9de9e396c47b6fffab0220505daf8f587f3e5904f6a27cad9ae8bf5b26aa3dbe19b554645ad9f11ea73e4f0121037947c0afbb0436dbb0d45db8ea7c018591d6fa10310f585c981684cc012378db", "asm": "3045022100da17f6dce909eaeaaa4c55312982b6b4a61a8347403b7b9de9e396c47b6fffab0220505daf8f587f3e5904f6a27cad9ae8bf5b26aa3dbe19b554645ad9f11ea73e4f[ALL] 037947c0afbb0436dbb0d45db8ea7c018591d6fa10310f585c981684cc012378db"}, "vout": 188, "txid": "6951c065322050c3d5d4a323217504a6ed6847525ea2b66a7d098f6171e8ffc0"}, {"sequence": 4294967294, "scriptSig": {"hex": "483045022100bcf25df77cdad09c22ff68b87427fedab5cbfd29334e8363e23001113de176e002202ec74a2342c7fa36432b6f992337145b2e24612905bbc506a70eb564a8246e0801210292cada664b9335975a61fd1e138979f0a5f8ec60860bb6f8d19654c25d28340c", "asm": "3045022100bcf25df77cdad09c22ff68b87427fedab5cbfd29334e8363e23001113de176e002202ec74a2342c7fa36432b6f992337145b2e24612905bbc506a70eb564a8246e08[ALL] 0292cada664b9335975a61fd1e138979f0a5f8ec60860bb6f8d19654c25d28340c"}, "vout": 0, "txid": "ab39a1fe2d3a9d1ac89a50201bc80ebf5b308a1971d4baf27f45cc09515c67d1"}, {"sequence": 4294967294, "scriptSig": {"hex": "47304402207e6059122216cfa44045afb8d2f4d9edee3f95326613384e8aea5f14d608d618022078747252e2a5c4e50255fb880b4049dc10a75cbaf49ae694671bc331331dbda50121024bc8958a610ad3c7803153f4db236a9931b78e644caccf664fdf9ae22a836ae7", "asm": "304402207e6059122216cfa44045afb8d2f4d9edee3f95326613384e8aea5f14d608d618022078747252e2a5c4e50255fb880b4049dc10a75cbaf49ae694671bc331331dbda5[ALL] 024bc8958a610ad3c7803153f4db236a9931b78e644caccf664fdf9ae22a836ae7"}, "vout": 3, "txid": "118b283e9f85607f3f1d5e7341181abcd1b38eda62ac2f045fb480c75c64e1d7"}, {"sequence": 4294967294, "scriptSig": {"hex": "4830450221008f532a468b2e871a61693d8fa50d6305f2ee5055f0cc724796862eb721e7783c02201bc9b549ed9656931b4cd7e9250ba54540fe9109951a02f1c3ce1bd10cb0dc61012102e2441f769991b3d782ad701ec27d06a1e11f59093f5c4dbc99c6f04c5e649fbc", "asm": "30450221008f532a468b2e871a61693d8fa50d6305f2ee5055f0cc724796862eb721e7783c02201bc9b549ed9656931b4cd7e9250ba54540fe9109951a02f1c3ce1bd10cb0dc61[ALL] 02e2441f769991b3d782ad701ec27d06a1e11f59093f5c4dbc99c6f04c5e649fbc"}, "vout": 2, "txid": "3161e32860ea6e3bf55ac9dc7e0aca24c8f051aa9d4daf763f9acb729f3a46e7"}, {"txinwitness": ["304402202c1b37d6a127de86094d58826b8a3b36775f2ba2ce579df00f0862801a068dcf0220587d73c645c1eb9538a97b53b59c18ee9c29fd9f73d3f7e71c763ea58305b1ea01", "03bb7994ea34f8e25ffc2a38a39f065e57eb619ea27cf884c0bf674dea0b3ff13d"], "sequence": 4294967294, "scriptSig": {"hex": "160014143c54ef6400a12d49d34ec5bc9e6a3f317320b2", "asm": "0014143c54ef6400a12d49d34ec5bc9e6a3f317320b2"}, "vout": 23, "txid": "4b72ad4159001b72758eb990966271e30657ff4c57d34431023f856f784303f4"}], "txid": "0c0d064c4185a43b64e6452dd4c4b534ddab780fe52377d9be9cab3c01a77318", "blocktime": 1537874412, "version": 2, "confirmations": 11467, "time": 1537874412, "locktime": 542899, "vsize": 885, "size": 1050}