{"hash": "685ffe20cb9dbac79c30a517303ce89d3095a35d6e24599aad6c889e3ca9edcf", "blockhash": "0000000000000000001f76057863aec43deb6fa401d9628bb513d65a8098bfab", "vout": [{"scriptPubKey": {"reqSigs": 1, "hex": "76a91495c0b50eb72b89f0d615387f34bee72ff8396e7088ac", "addresses": ["1EepY7pc1jMnRoWZbXA6bdazHjXPXsF26q"], "asm": "OP_DUP OP_HASH160 95c0b50eb72b89f0d615387f34bee72ff8396e70 OP_EQUALVERIFY OP_CHECKSIG", "type": "pubkeyhash"}, "value": 0.00041572, "n": 0}], "hex": "010000000001015dd35258f6f91c1b24b5bbb3b569b3a59f009f21cbf1c63df75d9d91758a83030100000017160014401e47be60c29f40f943b427d57f60851e96c113ffffffff0164a20000000000001976a91495c0b50eb72b89f0d615387f34bee72ff8396e7088ac0247304402202ea5f703e6e7167bd9cf79d101e370629c366e38cf0704c750d8f2f5c4589c8602206b08e71ba27ebba773475c1bd147e23646f58fc04346b964a0f1d6f745cef58301210274575be6bb89f2f9b946cc172f1e6a0cb604f2e4d508fda2c5c862fd56724a9a00000000", "vin": [{"txinwitness": ["304402202ea5f703e6e7167bd9cf79d101e370629c366e38cf0704c750d8f2f5c4589c8602206b08e71ba27ebba773475c1bd147e23646f58fc04346b964a0f1d6f745cef58301", "0274575be6bb89f2f9b946cc172f1e6a0cb604f2e4d508fda2c5c862fd56724a9a"], "sequence": 4294967295, "scriptSig": {"hex": "160014401e47be60c29f40f943b427d57f60851e96c113", "asm": "0014401e47be60c29f40f943b427d57f60851e96c113"}, "vout": 1, "txid": "03838a75919d5df73dc6f1cb219f009fa5b369b5b3bbb5241b1cf9f65852d35d"}], "txid": "0c11436936bab49feb479c33984768932f7fc7d3ddda2b4bc775ed0cda9df59d", "blocktime": 1537873891, "version": 1, "confirmations": 11475, "time": 1537873891, "locktime": 0, "vsize": 136, "size": 217}