{"hash": "32a95fea2be58d90a4cec2159cc51a24816837af299d5a580c708a98ae237f6b", "blockhash": "0000000000000000000baef3f32e3676a92c3b2e5da21b426e4f302fc371ce76", "vout": [{"scriptPubKey": {"reqSigs": 1, "hex": "a91490e99e8d26d05ead3c05430c292a887bbff695f587", "addresses": ["3EuF6KjJawxTiUsea3Sc8hsLUGmVEf7Xg5"], "asm": "OP_HASH160 90e99e8d26d05ead3c05430c292a887bbff695f5 OP_EQUAL", "type": "scripthash"}, "value": 0.00097732, "n": 0}, {"scriptPubKey": {"type": "nulldata", "hex": "6a146f6d6e69000000000000001f0000000005f5e100", "asm": "OP_RETURN 6f6d6e69000000000000001f0000000005f5e100"}, "value": 0.0, "n": 1}, {"scriptPubKey": {"reqSigs": 1, "hex": "a91490e99e8d26d05ead3c05430c292a887bbff695f587", "addresses": ["3EuF6KjJawxTiUsea3Sc8hsLUGmVEf7Xg5"], "asm": "OP_HASH160 90e99e8d26d05ead3c05430c292a887bbff695f5 OP_EQUAL", "type": "scripthash"}, "value": 5.4e-06, "n": 2}], "hex": "01000000000102c2450169419070f1658ac7b648d6003fa85bc6768f91e585eeb4188df2ab29d30000000017160014f6e1792e7852ebd5ae795c2a25d579acdfadec2dffffffffc2450169419070f1658ac7b648d6003fa85bc6768f91e585eeb4188df2ab29d30200000017160014f6e1792e7852ebd5ae795c2a25d579acdfadec2dffffffff03c47d01000000000017a91490e99e8d26d05ead3c05430c292a887bbff695f5870000000000000000166a146f6d6e69000000000000001f0000000005f5e1001c0200000000000017a91490e99e8d26d05ead3c05430c292a887bbff695f58702483045022100a017bdcff1bf704559c99f4eaee8d72c59b28081dc065ee8521c1c11ca90e5d302202f77cd781545253d5e1b4e2d3eb2377bd6db25e1e6a73ef273f6c3e3df3fbe65012103f1cf988013a33e053d1e9bd54c4798c1a6dc362a5b2798b5344049fca40e2db002483045022100b46058fa56dac3016ea28c35ffa52f0ecc388a0f98bf194ae43e92769e821ee4022029814983167f9dd9a25ba005da891f45afe05f278e9790106e9b1e293d9012bf012103f1cf988013a33e053d1e9bd54c4798c1a6dc362a5b2798b5344049fca40e2db000000000", "vin": [{"txinwitness": ["3045022100a017bdcff1bf704559c99f4eaee8d72c59b28081dc065ee8521c1c11ca90e5d302202f77cd781545253d5e1b4e2d3eb2377bd6db25e1e6a73ef273f6c3e3df3fbe6501", "03f1cf988013a33e053d1e9bd54c4798c1a6dc362a5b2798b5344049fca40e2db0"], "sequence": 4294967295, "scriptSig": {"hex": "160014f6e1792e7852ebd5ae795c2a25d579acdfadec2d", "asm": "0014f6e1792e7852ebd5ae795c2a25d579acdfadec2d"}, "vout": 0, "txid": "d329abf28d18b4ee85e5918f76c65ba83f00d648b6c78a65f1709041690145c2"}, {"txinwitness": ["3045022100b46058fa56dac3016ea28c35ffa52f0ecc388a0f98bf194ae43e92769e821ee4022029814983167f9dd9a25ba005da891f45afe05f278e9790106e9b1e293d9012bf01", "03f1cf988013a33e053d1e9bd54c4798c1a6dc362a5b2798b5344049fca40e2db0"], "sequence": 4294967295, "scriptSig": {"hex": "160014f6e1792e7852ebd5ae795c2a25d579acdfadec2d", "asm": "0014f6e1792e7852ebd5ae795c2a25d579acdfadec2d"}, "vout": 2, "txid": "d329abf28d18b4ee85e5918f76c65ba83f00d648b6c78a65f1709041690145c2"}], "txid": "0c12190510e9180431ed3fc146b2fce80347cb140691b45a11cce4823dfbb1a3", "blocktime": 1537876114, "version": 1, "confirmations": 11460, "time": 1537876114, "locktime": 0, "vsize": 288, "size": 451}