{"hash": "0c1ab2595c536642bf8a80162c9ae2c619af227df72fa9646ffdcddc9e49a0df", "blockhash": "0000000000000000001cda96e906b7601b7a6fb1a3b62bca570a9e5d8f4b3de1", "vout": [{"scriptPubKey": {"reqSigs": 1, "hex": "76a9145b4ce32326b23333d5718f01c196698b3791d75588ac", "addresses": ["19KkbgFT2q2CNrEfZ5tGvt5X77QmAJYnpu"], "asm": "OP_DUP OP_HASH160 5b4ce32326b23333d5718f01c196698b3791d755 OP_EQUALVERIFY OP_CHECKSIG", "type": "pubkeyhash"}, "value": 0.0780651, "n": 0}, {"scriptPubKey": {"reqSigs": 1, "hex": "76a91429a7b3b8c6554785794eabc3bd392c6036f9d1e188ac", "addresses": ["14oFc1QLMwtKvHVmW1cWWNsjyJ6WUxqnuS"], "asm": "OP_DUP OP_HASH160 29a7b3b8c6554785794eabc3bd392c6036f9d1e1 OP_EQUALVERIFY OP_CHECKSIG", "type": "pubkeyhash"}, "value": 0.2252598, "n": 1}], "hex": "01000000016338dddcb1607ca36bc60e0761d5e7b1350a641a738b7ed819c13f962ebdcb13010000006a473044022019255239216f73b3de7603be5b65c6985bfb059c9daaadcec3f405a413c54d9e022075a28a3ea4cf1b51e8d2783b8425d79d18c8c0427d102db925f2fafe603eb635012103c0aa9c0813347a123d5f1d332f69425f8284c146955bb9dac287f3be6c0c0d57ffffffff022e1e7700000000001976a9145b4ce32326b23333d5718f01c196698b3791d75588ac1cb85701000000001976a91429a7b3b8c6554785794eabc3bd392c6036f9d1e188ac00000000", "vin": [{"sequence": 4294967295, "scriptSig": {"hex": "473044022019255239216f73b3de7603be5b65c6985bfb059c9daaadcec3f405a413c54d9e022075a28a3ea4cf1b51e8d2783b8425d79d18c8c0427d102db925f2fafe603eb635012103c0aa9c0813347a123d5f1d332f69425f8284c146955bb9dac287f3be6c0c0d57", "asm": "3044022019255239216f73b3de7603be5b65c6985bfb059c9daaadcec3f405a413c54d9e022075a28a3ea4cf1b51e8d2783b8425d79d18c8c0427d102db925f2fafe603eb635[ALL] 03c0aa9c0813347a123d5f1d332f69425f8284c146955bb9dac287f3be6c0c0d57"}, "vout": 1, "txid": "13cbbd2e963fc119d87e8b731a640a35b1e7d561070ec66ba37c60b1dcdd3863"}], "txid": "0c1ab2595c536642bf8a80162c9ae2c619af227df72fa9646ffdcddc9e49a0df", "blocktime": 1537873282, "version": 1, "confirmations": 11484, "time": 1537873282, "locktime": 0, "vsize": 225, "size": 225}