{"hash": "7cd12f0d99786c64ea0bf524ac8fa800d6ed2c20ec0e707aa1f7418b46cd7114", "blockhash": "0000000000000000001f76057863aec43deb6fa401d9628bb513d65a8098bfab", "vout": [{"scriptPubKey": {"reqSigs": 1, "hex": "a914c50743cab0f70d34a1b7f1c10d47dba2d9ca8ccf87", "addresses": ["3Keok6tQMHkXHJjWabWTunca4N3Q9ext8x"], "asm": "OP_HASH160 c50743cab0f70d34a1b7f1c10d47dba2d9ca8ccf OP_EQUAL", "type": "scripthash"}, "value": 0.00823504, "n": 0}, {"scriptPubKey": {"reqSigs": 1, "hex": "a9140afd36027b4d9214f91c1cfd6eb66fd5907ec36287", "addresses": ["32h81sMmd8pDMCNtSLCtnKtJMnq5ChRcuJ"], "asm": "OP_HASH160 0afd36027b4d9214f91c1cfd6eb66fd5907ec362 OP_EQUAL", "type": "scripthash"}, "value": 0.06176129, "n": 1}], "hex": "02000000000101974b2ffb37256ec699a56a61d292db7328da3b7044406225915c9d15839b00f60100000017160014b09d092e9f9d85c8b1961d58031bdace0b348d51feffffff02d0900c000000000017a914c50743cab0f70d34a1b7f1c10d47dba2d9ca8ccf87813d5e000000000017a9140afd36027b4d9214f91c1cfd6eb66fd5907ec362870247304402200ccdcff6af5b7e1a6a36945e02eceac491a0905d2650ee6ee3175c6cef953dda02201814303a33f203493cddfa756f6fc2168e45e725fe49c636540f47304cb16a920121039aa395b8a88db9f3bf47ea02efe2e5feaf61352fbbdfc6cf8b02465f13aff15a14490800", "vin": [{"txinwitness": ["304402200ccdcff6af5b7e1a6a36945e02eceac491a0905d2650ee6ee3175c6cef953dda02201814303a33f203493cddfa756f6fc2168e45e725fe49c636540f47304cb16a9201", "039aa395b8a88db9f3bf47ea02efe2e5feaf61352fbbdfc6cf8b02465f13aff15a"], "sequence": 4294967294, "scriptSig": {"hex": "160014b09d092e9f9d85c8b1961d58031bdace0b348d51", "asm": "0014b09d092e9f9d85c8b1961d58031bdace0b348d51"}, "vout": 1, "txid": "f6009b83159d5c9125624044703bda2873db92d2616aa599c66e2537fb2f4b97"}], "txid": "0c1aa771eadfbdb866c58f7f6fca8613b15ff298878e19b0a79a37edab223cd0", "blocktime": 1537873891, "version": 2, "confirmations": 11479, "time": 1537873891, "locktime": 542996, "vsize": 166, "size": 247}