{"hash": "b65dd14bdd115379ebc4354569c9c9798e5b29a1aae092514ec2ef70c3a55d84", "blockhash": "0000000000000000001cda96e906b7601b7a6fb1a3b62bca570a9e5d8f4b3de1", "vout": [{"scriptPubKey": {"reqSigs": 1, "hex": "a914a74df7a53f6610fd643fc91b8a9a7857aeaa225587", "addresses": ["3GweAr5N2TiH4PWA1X2aWiWUEAafyjvmhv"], "asm": "OP_HASH160 a74df7a53f6610fd643fc91b8a9a7857aeaa2255 OP_EQUAL", "type": "scripthash"}, "value": 0.47646131, "n": 0}, {"scriptPubKey": {"reqSigs": 1, "hex": "76a9141205d689061b00747e41b856b597b7e1559442f088ac", "addresses": ["12eJA61CbTKAENjsHY5wn9jmPKEBRYvDd1"], "asm": "OP_DUP OP_HASH160 1205d689061b00747e41b856b597b7e1559442f0 OP_EQUALVERIFY OP_CHECKSIG", "type": "pubkeyhash"}, "value": 0.37734913, "n": 1}, {"scriptPubKey": {"reqSigs": 1, "hex": "a914e2695019a0a1b5b17c82b985c2eeda0862ab55e687", "addresses": ["3NLAoAYb2gTv4DowuwM5nxojf7mAhzimEw"], "asm": "OP_HASH160 e2695019a0a1b5b17c82b985c2eeda0862ab55e6 OP_EQUAL", "type": "scripthash"}, "value": 0.00251609, "n": 2}, {"scriptPubKey": {"reqSigs": 1, "hex": "a914a4ff7a24858f0625009253553924d80ed230a19087", "addresses": ["3GjSns9X9FvcQsmLRybaiZ62ynHDdVmrhc"], "asm": "OP_HASH160 a4ff7a24858f0625009253553924d80ed230a190 OP_EQUAL", "type": "scripthash"}, "value": 0.0016, "n": 3}, {"scriptPubKey": {"reqSigs": 1, "hex": "76a91467b5e0a579111c2f619590846cc8d95f6dd0d92088ac", "addresses": ["1ATNUqApuzbaQeCkaJyVHAuWabwjELvAQX"], "asm": "OP_DUP OP_HASH160 67b5e0a579111c2f619590846cc8d95f6dd0d920 OP_EQUALVERIFY OP_CHECKSIG", "type": "pubkeyhash"}, "value": 0.00196286, "n": 4}, {"scriptPubKey": {"reqSigs": 1, "hex": "76a914300d448d778a22e239d9f54e6a4908f6ec7d96c488ac", "addresses": ["15P5L53E4a8VJqqHYGXZupSHb6vaHZ3oqb"], "asm": "OP_DUP OP_HASH160 300d448d778a22e239d9f54e6a4908f6ec7d96c4 OP_EQUALVERIFY OP_CHECKSIG", "type": "pubkeyhash"}, "value": 1.5, "n": 5}, {"scriptPubKey": {"reqSigs": 1, "hex": "76a9149654a0a867727b38afa27901875568b0321717b988ac", "addresses": ["1EhsjoUBuUW4tUQXLovfJXAmDXfbBHpGxV"], "asm": "OP_DUP OP_HASH160 9654a0a867727b38afa27901875568b0321717b9 OP_EQUALVERIFY OP_CHECKSIG", "type": "pubkeyhash"}, "value": 0.00251775, "n": 6}, {"scriptPubKey": {"reqSigs": 1, "hex": "76a9146736f1343d889b9d144dffa74d0e984c95a633b588ac", "addresses": ["1AQkRDAbNgrGHDhdmq18gSUfSazEK6JvDA"], "asm": "OP_DUP OP_HASH160 6736f1343d889b9d144dffa74d0e984c95a633b5 OP_EQUALVERIFY OP_CHECKSIG", "type": "pubkeyhash"}, "value": 0.03777598, "n": 7}, {"scriptPubKey": {"reqSigs": 1, "hex": "a914c6cd1ee5a83d23b85bb1af30cae7d5e244e0553e87", "addresses": ["3KpBSZXoaFKKxwZ2aAVPdaKgkUiTToMYmA"], "asm": "OP_HASH160 c6cd1ee5a83d23b85bb1af30cae7d5e244e0553e OP_EQUAL", "type": "scripthash"}, "value": 0.5, "n": 8}, {"scriptPubKey": {"reqSigs": 1, "hex": "76a91484a11e5bf5364a7658fdb02328fd9760e0a115fd88ac", "addresses": ["1D6HD3BKjAB5F9oC76BkgWmoxeSxwENtzj"], "asm": "OP_DUP OP_HASH160 84a11e5bf5364a7658fdb02328fd9760e0a115fd OP_EQUALVERIFY OP_CHECKSIG", "type": "pubkeyhash"}, "value": 0.006, "n": 9}], "hex": "010000000001056e36700be9dbd53e2eedffce6cbfba7503e972fc29a689a10ef0af5fd5c2e1c50000000023220020fe5bea2ea6a498f6a37c02b5ddaf1fc7a1827c5162bfa5746e21d9ce5285fa5affffffff4a2c0d13baa324ea73cd88efc568e693224e29119362e4fa84f289e82f206f340000000023220020ae8503d82c0182ee7ba7b8d14fb52b37179ddcf3b98fbec4a148aa07c3e388e9ffffffff4741fe612d4a0037359246490776f23dc2b52852849864a56b40245ff33ded0200000000232200205215399b808ef13936914eb915e44830806584be7f2aebb2aeb347c5efa0cde2ffffffffd7e1645cc780b45f042fac62da8eb3d1bc1a1841735e1d3f7f60859f3e288b110000000023220020d5789cfb54a67cf5af54317a72a1fcace649ea19b19c720d3162ce85fae365b2ffffffff116f2feff7b270fe838306cba5d3026671e73210c4e29d7fcb08c013e8cd49770000000023220020cdba0d375c6e65f360b62354767359165e4216ceaa140f022a6d545d107845ceffffffff0ab305d7020000000017a914a74df7a53f6610fd643fc91b8a9a7857aeaa22558701ca3f02000000001976a9141205d689061b00747e41b856b597b7e1559442f088acd9d603000000000017a914e2695019a0a1b5b17c82b985c2eeda0862ab55e687007102000000000017a914a4ff7a24858f0625009253553924d80ed230a19087befe0200000000001976a91467b5e0a579111c2f619590846cc8d95f6dd0d92088ac80d1f008000000001976a914300d448d778a22e239d9f54e6a4908f6ec7d96c488ac7fd70300000000001976a9149654a0a867727b38afa27901875568b0321717b988ac3ea43900000000001976a9146736f1343d889b9d144dffa74d0e984c95a633b588ac80f0fa020000000017a914c6cd1ee5a83d23b85bb1af30cae7d5e244e0553e87c0270900000000001976a91484a11e5bf5364a7658fdb02328fd9760e0a115fd88ac0400483045022100b045e39344dba35648be86f049c270aeffe47ab9107ffc00345d31e20953da89022055d6c1e429d5f7fc3f5e305bcdfa6959f625da0c5b937b095febe38da8adca1101473044022001a23150a64bbf80e389e3f472f2bf48404eaf9683db1b553faea51ad7030e9202202fcf5cbf2cb6a16ab17474e32520369ce58c25917d5e0953fe24fc4ae9bf480b01695221027dcbc4acdc72d23b21251ca7d8486699241d927775ee8e9faf24f2fc6e0e07cf210371aeba02f46a21914142f861c1052d4a72672c472a3bdac59b645af4c0089ffb210281be8f3bb9282e19996ae1f2e395a506d6e5c82fb19f5070b1db13196fd2ce1b53ae040047304402202f03ca31affd604b66e8bae9bddecbd276cae5fbfe6f849ba2190e95bf58322902207733d34b97fc82362770904365e7f1917e8e545fe22f41fc5d0c7267047bf8bc01483045022100de00f1956e263cf0933cf12bbdcf8e4409279f9b0a35c5f3c11758e4c92b4a610220501b35196d6fdd0b7ef8a9649e3d4875738790e7e08cd759401f1a79ca364e370169522103e2cc88c623b0c8323ed7b87e9eda52119465d0a0301f7d393b495a1f00225057210305924eeab257a972379ba1f083ec86d1d2ec752d58e78125383426ec74b55e5b2102405e568ab4f5c0cb8a286304bdc691592aae2378bbf1c34524e0fef3a009d5dc53ae0400483045022100a07faf694567140d04ceff6c5d47c4cde1c6f0e3ab1d8d8f10b8608ef270a65a02207310afe8a09f51da39aaff98040e8d2bf4ffff8677dfae1d0382fa67694f96b201483045022100843b8f6f1e03368a88ea4307d45a3784af28ef2b8109a278e901e370b2ba800802201886aa2c4496ea5f877c3746e7bbb0cbbe18421fa52e361baa0e12b19b15327101695221032ae2f39ad6449f88579b988b2e6229c0c4a835b2e63ea07e9f0b586b8cecf381210383c7a87899a996b6245a5f8b9455f64f074f1603fb7af517e96f5c1b34f7ba682103f2bf5ccc1bfd77674313244ccc46b3fabbc9c8e7c8415eb921ffa334621dc9c353ae0400473044022026486d7effb5c8877c367e853085b2b718bdf533e62be6c8c1c8fc3b5e145f5702200ba7f971c25c19f992d11e47bea562c523600968fa3294cae5f2ca436d50807101483045022100e90b58a395de63190b5c75e7b70d1134e4021ebfa5aea4e091de4dba8d6505ac0220708fb2ba0d30c79dba1aefdc7fa01733bb48f6c89d43d69f9f10358a12b06aaa0169522103d4d716b9d6ae25f1c10201448696add74d9acb074a5ed28a7e6ee8f31104d20621021f71d2f9183d31058a5684f0983a237151a68e43785c595a83c864b6f282e62b2102fc9e10d5c28f71517891cc84224c0eb93520c416b85e624af47421767605b7bb53ae0400483045022100c44d49e5f3c63aaeb30655a3ce856e5690be14eb99fa7df24fba42e822e6f74b02207e76f80a70fa9173ce4eb5baa315335a605df764e6dae7823820287e61a2300d0147304402203fa432bbe3302e3b6a39735284f65c6aebb115cb162e245eeb0de32d57fd1cc2022004f8011aeb72e50c70ddcbcf166a4cce9d8c251fe172feb71557c5dcdf76cd660169522103c2944d29e766a086789b4212b9694a6ee14951d600d6f0485788e9ed46f1f7a221029e0122971ad32c3a8c1e41f992d1f7b80eaa22e93249fa4049b0dd94aec5d7c621023fa6f43c195ad205cc784a73e152e12aaeea7e7e99659e8b0b99ed520d38ebd153ae00000000", "vin": [{"txinwitness": ["", "3045022100b045e39344dba35648be86f049c270aeffe47ab9107ffc00345d31e20953da89022055d6c1e429d5f7fc3f5e305bcdfa6959f625da0c5b937b095febe38da8adca1101", "3044022001a23150a64bbf80e389e3f472f2bf48404eaf9683db1b553faea51ad7030e9202202fcf5cbf2cb6a16ab17474e32520369ce58c25917d5e0953fe24fc4ae9bf480b01", "5221027dcbc4acdc72d23b21251ca7d8486699241d927775ee8e9faf24f2fc6e0e07cf210371aeba02f46a21914142f861c1052d4a72672c472a3bdac59b645af4c0089ffb210281be8f3bb9282e19996ae1f2e395a506d6e5c82fb19f5070b1db13196fd2ce1b53ae"], "sequence": 4294967295, "scriptSig": {"hex": "220020fe5bea2ea6a498f6a37c02b5ddaf1fc7a1827c5162bfa5746e21d9ce5285fa5a", "asm": "0020fe5bea2ea6a498f6a37c02b5ddaf1fc7a1827c5162bfa5746e21d9ce5285fa5a"}, "vout": 0, "txid": "c5e1c2d55faff00ea189a629fc72e90375babf6cceffed2e3ed5dbe90b70366e"}, {"txinwitness": ["", "304402202f03ca31affd604b66e8bae9bddecbd276cae5fbfe6f849ba2190e95bf58322902207733d34b97fc82362770904365e7f1917e8e545fe22f41fc5d0c7267047bf8bc01", "3045022100de00f1956e263cf0933cf12bbdcf8e4409279f9b0a35c5f3c11758e4c92b4a610220501b35196d6fdd0b7ef8a9649e3d4875738790e7e08cd759401f1a79ca364e3701", "522103e2cc88c623b0c8323ed7b87e9eda52119465d0a0301f7d393b495a1f00225057210305924eeab257a972379ba1f083ec86d1d2ec752d58e78125383426ec74b55e5b2102405e568ab4f5c0cb8a286304bdc691592aae2378bbf1c34524e0fef3a009d5dc53ae"], "sequence": 4294967295, "scriptSig": {"hex": "220020ae8503d82c0182ee7ba7b8d14fb52b37179ddcf3b98fbec4a148aa07c3e388e9", "asm": "0020ae8503d82c0182ee7ba7b8d14fb52b37179ddcf3b98fbec4a148aa07c3e388e9"}, "vout": 0, "txid": "346f202fe889f284fae4629311294e2293e668c5ef88cd73ea24a3ba130d2c4a"}, {"txinwitness": ["", "3045022100a07faf694567140d04ceff6c5d47c4cde1c6f0e3ab1d8d8f10b8608ef270a65a02207310afe8a09f51da39aaff98040e8d2bf4ffff8677dfae1d0382fa67694f96b201", "3045022100843b8f6f1e03368a88ea4307d45a3784af28ef2b8109a278e901e370b2ba800802201886aa2c4496ea5f877c3746e7bbb0cbbe18421fa52e361baa0e12b19b15327101", "5221032ae2f39ad6449f88579b988b2e6229c0c4a835b2e63ea07e9f0b586b8cecf381210383c7a87899a996b6245a5f8b9455f64f074f1603fb7af517e96f5c1b34f7ba682103f2bf5ccc1bfd77674313244ccc46b3fabbc9c8e7c8415eb921ffa334621dc9c353ae"], "sequence": 4294967295, "scriptSig": {"hex": "2200205215399b808ef13936914eb915e44830806584be7f2aebb2aeb347c5efa0cde2", "asm": "00205215399b808ef13936914eb915e44830806584be7f2aebb2aeb347c5efa0cde2"}, "vout": 0, "txid": "02ed3df35f24406ba56498845228b5c23df276074946923537004a2d61fe4147"}, {"txinwitness": ["", "3044022026486d7effb5c8877c367e853085b2b718bdf533e62be6c8c1c8fc3b5e145f5702200ba7f971c25c19f992d11e47bea562c523600968fa3294cae5f2ca436d50807101", "3045022100e90b58a395de63190b5c75e7b70d1134e4021ebfa5aea4e091de4dba8d6505ac0220708fb2ba0d30c79dba1aefdc7fa01733bb48f6c89d43d69f9f10358a12b06aaa01", "522103d4d716b9d6ae25f1c10201448696add74d9acb074a5ed28a7e6ee8f31104d20621021f71d2f9183d31058a5684f0983a237151a68e43785c595a83c864b6f282e62b2102fc9e10d5c28f71517891cc84224c0eb93520c416b85e624af47421767605b7bb53ae"], "sequence": 4294967295, "scriptSig": {"hex": "220020d5789cfb54a67cf5af54317a72a1fcace649ea19b19c720d3162ce85fae365b2", "asm": "0020d5789cfb54a67cf5af54317a72a1fcace649ea19b19c720d3162ce85fae365b2"}, "vout": 0, "txid": "118b283e9f85607f3f1d5e7341181abcd1b38eda62ac2f045fb480c75c64e1d7"}, {"txinwitness": ["", "3045022100c44d49e5f3c63aaeb30655a3ce856e5690be14eb99fa7df24fba42e822e6f74b02207e76f80a70fa9173ce4eb5baa315335a605df764e6dae7823820287e61a2300d01", "304402203fa432bbe3302e3b6a39735284f65c6aebb115cb162e245eeb0de32d57fd1cc2022004f8011aeb72e50c70ddcbcf166a4cce9d8c251fe172feb71557c5dcdf76cd6601", "522103c2944d29e766a086789b4212b9694a6ee14951d600d6f0485788e9ed46f1f7a221029e0122971ad32c3a8c1e41f992d1f7b80eaa22e93249fa4049b0dd94aec5d7c621023fa6f43c195ad205cc784a73e152e12aaeea7e7e99659e8b0b99ed520d38ebd153ae"], "sequence": 4294967295, "scriptSig": {"hex": "220020cdba0d375c6e65f360b62354767359165e4216ceaa140f022a6d545d107845ce", "asm": "0020cdba0d375c6e65f360b62354767359165e4216ceaa140f022a6d545d107845ce"}, "vout": 0, "txid": "7749cde813c008cb7f9de2c41032e7716602d3a5cb068383fe70b2f7ef2f6f11"}], "txid": "0c1fc5e283ce8b92d6e5f73cbddef5593ba33f30641f48b0117d31c2ba377acd", "blocktime": 1537873282, "version": 1, "confirmations": 11481, "time": 1537873282, "locktime": 0, "vsize": 1039, "size": 1990}