{"hash": "0c253c7ce591be4817e15c53d40923189ebb7b8ba567c00b5e5364ec09a52c08", "blockhash": "00000000000000000004ffacab907a6b429b9a5745fa0b75af4234bf69dd7176", "vout": [{"scriptPubKey": {"reqSigs": 1, "hex": "76a914a2cd19c496ced18d8c049558f4f1f99e81e3c8e988ac", "addresses": ["1FqpAikruh2BJMr8dZjaBegQ2Mehb4Jc6t"], "asm": "OP_DUP OP_HASH160 a2cd19c496ced18d8c049558f4f1f99e81e3c8e9 OP_EQUALVERIFY OP_CHECKSIG", "type": "pubkeyhash"}, "value": 0.01108777, "n": 0}], "hex": "01000000015e4d23023c6a3bcece03f8cf0c862fc80dc76c95b229c48461da50fb414845e7050000006b483045022100b3e0e49b1ccf9d936e2ab2007584923f5983386cae2ce4d239bb0391cbee5d4d02200e439820a6321c2b01a6edb80c5942d09c3c39c2e9c1705bb58b3496c07e066c0121039bea6748926085573e71e4388989f2f15e165cc0c7c9e7dce1ac31a48e2910c9ffffffff0129eb1000000000001976a914a2cd19c496ced18d8c049558f4f1f99e81e3c8e988ac00000000", "vin": [{"sequence": 4294967295, "scriptSig": {"hex": "483045022100b3e0e49b1ccf9d936e2ab2007584923f5983386cae2ce4d239bb0391cbee5d4d02200e439820a6321c2b01a6edb80c5942d09c3c39c2e9c1705bb58b3496c07e066c0121039bea6748926085573e71e4388989f2f15e165cc0c7c9e7dce1ac31a48e2910c9", "asm": "3045022100b3e0e49b1ccf9d936e2ab2007584923f5983386cae2ce4d239bb0391cbee5d4d02200e439820a6321c2b01a6edb80c5942d09c3c39c2e9c1705bb58b3496c07e066c[ALL] 039bea6748926085573e71e4388989f2f15e165cc0c7c9e7dce1ac31a48e2910c9"}, "vout": 5, "txid": "e7454841fb50da6184c429b2956cc70dc82f860ccff803cece3b6a3c02234d5e"}], "txid": "0c253c7ce591be4817e15c53d40923189ebb7b8ba567c00b5e5364ec09a52c08", "blocktime": 1537875543, "version": 1, "confirmations": 11464, "time": 1537875543, "locktime": 0, "vsize": 192, "size": 192}