{"hash": "0c28fc2ce89322b01f4688bcb962df93354cdd0bdcf882605c53fa6d266245b9", "blockhash": "000000000000000000022b45ed06c6f4ccd3cf7fb5ba4856ebd2e58215665228", "vout": [{"scriptPubKey": {"reqSigs": 1, "hex": "76a914cc5b6dce5187aaab09a847d3a24587608d3303a188ac", "addresses": ["1KdYNj9vUv9Qtsmkx8nuXmRo8n2fs6dWuw"], "asm": "OP_DUP OP_HASH160 cc5b6dce5187aaab09a847d3a24587608d3303a1 OP_EQUALVERIFY OP_CHECKSIG", "type": "pubkeyhash"}, "value": 0.00418, "n": 0}, {"scriptPubKey": {"reqSigs": 1, "hex": "76a914db8b36ac24b66bec37b866e136562e664c42b70488ac", "addresses": ["1M1qkjrajemCSZ5GaQytovwtQfixHrSkoK"], "asm": "OP_DUP OP_HASH160 db8b36ac24b66bec37b866e136562e664c42b704 OP_EQUALVERIFY OP_CHECKSIG", "type": "pubkeyhash"}, "value": 0.01045427, "n": 1}], "hex": "0100000001d7b7fb9902ac28fb559d1d0d20f77ce6ce872fb62ccb8aad7275ecb7d7f5f60b000000006a47304402206c6b611ab1e0adfc11522c9f7671b89d44b278755bc31c5aaf84186f189fbefb0220767619060aebe5f4fcb695391e8acaa4ed779d02b5b085b74c68ff2b51b4a53601210328e4fc416cbe15bb06fda8c04cc2753cb3480ea3491fd0cbe71b37a7716d7995ffffffff02d0600600000000001976a914cc5b6dce5187aaab09a847d3a24587608d3303a188acb3f30f00000000001976a914db8b36ac24b66bec37b866e136562e664c42b70488ac00000000", "vin": [{"sequence": 4294967295, "scriptSig": {"hex": "47304402206c6b611ab1e0adfc11522c9f7671b89d44b278755bc31c5aaf84186f189fbefb0220767619060aebe5f4fcb695391e8acaa4ed779d02b5b085b74c68ff2b51b4a53601210328e4fc416cbe15bb06fda8c04cc2753cb3480ea3491fd0cbe71b37a7716d7995", "asm": "304402206c6b611ab1e0adfc11522c9f7671b89d44b278755bc31c5aaf84186f189fbefb0220767619060aebe5f4fcb695391e8acaa4ed779d02b5b085b74c68ff2b51b4a536[ALL] 0328e4fc416cbe15bb06fda8c04cc2753cb3480ea3491fd0cbe71b37a7716d7995"}, "vout": 0, "txid": "0bf6f5d7b7ec7572ad8acb2cb62f87cee67cf7200d1d9d55fb28ac0299fbb7d7"}], "txid": "0c28fc2ce89322b01f4688bcb962df93354cdd0bdcf882605c53fa6d266245b9", "blocktime": 1537869901, "version": 1, "confirmations": 11524, "time": 1537869901, "locktime": 0, "vsize": 225, "size": 225}