{"hash": "249c9d7a270834d72577cc12ac502f8972e1e235e7b5a2a1c0f0676d6c4466c8", "blockhash": "00000000000000000017f5eb5941039fbcee6240d03bc1f2f8e35350df66a1d8", "vout": [{"scriptPubKey": {"reqSigs": 1, "hex": "76a9140984fcefb9e51601603d9fc0753d8a88c36a635988ac", "addresses": ["1sLPu2V5KXsjBZPAmqGfWsGpRzxcDzwYL"], "asm": "OP_DUP OP_HASH160 0984fcefb9e51601603d9fc0753d8a88c36a6359 OP_EQUALVERIFY OP_CHECKSIG", "type": "pubkeyhash"}, "value": 0.05921336, "n": 0}, {"scriptPubKey": {"reqSigs": 1, "hex": "a9149a80df801e48595d59b8ef5b1c1997f58370d4bd87", "addresses": ["3FmxNLnseMBsVZgAjaQSnsbQ9Wuo7bjhn9"], "asm": "OP_HASH160 9a80df801e48595d59b8ef5b1c1997f58370d4bd OP_EQUAL", "type": "scripthash"}, "value": 0.01261773, "n": 1}], "hex": "020000000001030af7d454d21b7e6038db162763107f7e0bfb45fc402009a7c8d60cdebe45d4f80100000017160014b48341adc840267dd0dcfe182b8d78377543cb9ffeffffff737e72f79787b2db5360c8152b2eba486e2412085dbe96e19981d1444a9ff4c400000000171600142038e808adaafd79ce45b398fc6bd8bb6400d454feffffffd9dea32c6fe8a229da8a624eaed2a7cd602ffe49370762dfc5c25b6cef59486600000000171600142ac1bea060a80ed973de856f1d4511fa190fec67feffffff02385a5a00000000001976a9140984fcefb9e51601603d9fc0753d8a88c36a635988accd4013000000000017a9149a80df801e48595d59b8ef5b1c1997f58370d4bd8702473044022074aa5b7be64bae0a091fa79c3fcdc5d056fb2a7b8cdd9ff1cd27e1a94953c893022029e2d36f96569aeb2961a76c1b2d7e1e6b857f19ecbf722afb952da86bf4fddb012102f0498f2741f1941f67eebdd22e66fc9a248660f0e4e50985d15bd080034fc9470247304402206c787f1759cf74063219df6d08de1c3c74f7bf3a22fd309db551443eee3a02f702201efebdb50d5d10336dfe498b9b85df0a944decc68b70b1ec26b07db9740efaf101210397ef81c7e26c399211822257a44cc7af4be35568f83c07e87a251b1d694b128c02483045022100ef9b7ba5248833141b147f6b1239ff64120a70ebcf53a9671aa8d966d3ed26d90220218e086c0a97738a09a22e0dfc4dd08c01174362902cd6323e0ca9a084e5f4850121022dac20bc83e4cbca9798cdfbb568b3f895b72e4ee7a9b0e99069b0f48caaf93915490800", "vin": [{"txinwitness": ["3044022074aa5b7be64bae0a091fa79c3fcdc5d056fb2a7b8cdd9ff1cd27e1a94953c893022029e2d36f96569aeb2961a76c1b2d7e1e6b857f19ecbf722afb952da86bf4fddb01", "02f0498f2741f1941f67eebdd22e66fc9a248660f0e4e50985d15bd080034fc947"], "sequence": 4294967294, "scriptSig": {"hex": "160014b48341adc840267dd0dcfe182b8d78377543cb9f", "asm": "0014b48341adc840267dd0dcfe182b8d78377543cb9f"}, "vout": 1, "txid": "f8d445bede0cd6c8a7092040fc45fb0b7e7f10632716db38607e1bd254d4f70a"}, {"txinwitness": ["304402206c787f1759cf74063219df6d08de1c3c74f7bf3a22fd309db551443eee3a02f702201efebdb50d5d10336dfe498b9b85df0a944decc68b70b1ec26b07db9740efaf101", "0397ef81c7e26c399211822257a44cc7af4be35568f83c07e87a251b1d694b128c"], "sequence": 4294967294, "scriptSig": {"hex": "1600142038e808adaafd79ce45b398fc6bd8bb6400d454", "asm": "00142038e808adaafd79ce45b398fc6bd8bb6400d454"}, "vout": 0, "txid": "c4f49f4a44d18199e196be5d0812246e48ba2e2b15c86053dbb28797f7727e73"}, {"txinwitness": ["3045022100ef9b7ba5248833141b147f6b1239ff64120a70ebcf53a9671aa8d966d3ed26d90220218e086c0a97738a09a22e0dfc4dd08c01174362902cd6323e0ca9a084e5f48501", "022dac20bc83e4cbca9798cdfbb568b3f895b72e4ee7a9b0e99069b0f48caaf939"], "sequence": 4294967294, "scriptSig": {"hex": "1600142ac1bea060a80ed973de856f1d4511fa190fec67", "asm": "00142ac1bea060a80ed973de856f1d4511fa190fec67"}, "vout": 0, "txid": "664859ef6c5bc2c5df62073749fe2f60cda7d2ae4e628ada29a2e86f2ca3ded9"}], "txid": "0c290921c2a8aae14c80416ce1bef8efd17ac360d703221f37a876dbc21253ec", "blocktime": 1537874412, "version": 2, "confirmations": 11466, "time": 1537874412, "locktime": 542997, "vsize": 349, "size": 592}