{"hash": "8fe13c2ea0265cc4366d1e9bf343f18d2e051e7d60ad05e7f7220d6be8563ccc", "blockhash": "0000000000000000001f76057863aec43deb6fa401d9628bb513d65a8098bfab", "vout": [{"scriptPubKey": {"reqSigs": 1, "hex": "a91490e99e8d26d05ead3c05430c292a887bbff695f587", "addresses": ["3EuF6KjJawxTiUsea3Sc8hsLUGmVEf7Xg5"], "asm": "OP_HASH160 90e99e8d26d05ead3c05430c292a887bbff695f5 OP_EQUAL", "type": "scripthash"}, "value": 0.00141167, "n": 0}, {"scriptPubKey": {"type": "nulldata", "hex": "6a146f6d6e69000000000000001f0000000005f5e100", "asm": "OP_RETURN 6f6d6e69000000000000001f0000000005f5e100"}, "value": 0.0, "n": 1}, {"scriptPubKey": {"reqSigs": 1, "hex": "a91490e99e8d26d05ead3c05430c292a887bbff695f587", "addresses": ["3EuF6KjJawxTiUsea3Sc8hsLUGmVEf7Xg5"], "asm": "OP_HASH160 90e99e8d26d05ead3c05430c292a887bbff695f5 OP_EQUAL", "type": "scripthash"}, "value": 5.4e-06, "n": 2}], "hex": "010000000001022ee603246f360401df792033c3529ad27b97ec0c789d5f42015ac70396e543810000000017160014f6e1792e7852ebd5ae795c2a25d579acdfadec2dffffffff2ee603246f360401df792033c3529ad27b97ec0c789d5f42015ac70396e543810200000017160014f6e1792e7852ebd5ae795c2a25d579acdfadec2dffffffff036f2702000000000017a91490e99e8d26d05ead3c05430c292a887bbff695f5870000000000000000166a146f6d6e69000000000000001f0000000005f5e1001c0200000000000017a91490e99e8d26d05ead3c05430c292a887bbff695f5870247304402207f4a311eba818e91f0ff2dc5cb7f3b55cb34e8b74cad0cdd7fe0d76d78fa975f02205ff607df20790b272b149c461b999940b5eae43e012b6c75570e7e1775642eaa012103f1cf988013a33e053d1e9bd54c4798c1a6dc362a5b2798b5344049fca40e2db002483045022100b5a9de6cca1e1933a93684c362761c733ca07b0ce8dabe99b9f3180f543e3851022055fa6728bdd3216c13ce984bf7a103ae54c29a3fc9fbb7c93daea1862acde215012103f1cf988013a33e053d1e9bd54c4798c1a6dc362a5b2798b5344049fca40e2db000000000", "vin": [{"txinwitness": ["304402207f4a311eba818e91f0ff2dc5cb7f3b55cb34e8b74cad0cdd7fe0d76d78fa975f02205ff607df20790b272b149c461b999940b5eae43e012b6c75570e7e1775642eaa01", "03f1cf988013a33e053d1e9bd54c4798c1a6dc362a5b2798b5344049fca40e2db0"], "sequence": 4294967295, "scriptSig": {"hex": "160014f6e1792e7852ebd5ae795c2a25d579acdfadec2d", "asm": "0014f6e1792e7852ebd5ae795c2a25d579acdfadec2d"}, "vout": 0, "txid": "8143e59603c75a01425f9d780cec977bd29a52c3332079df0104366f2403e62e"}, {"txinwitness": ["3045022100b5a9de6cca1e1933a93684c362761c733ca07b0ce8dabe99b9f3180f543e3851022055fa6728bdd3216c13ce984bf7a103ae54c29a3fc9fbb7c93daea1862acde21501", "03f1cf988013a33e053d1e9bd54c4798c1a6dc362a5b2798b5344049fca40e2db0"], "sequence": 4294967295, "scriptSig": {"hex": "160014f6e1792e7852ebd5ae795c2a25d579acdfadec2d", "asm": "0014f6e1792e7852ebd5ae795c2a25d579acdfadec2d"}, "vout": 2, "txid": "8143e59603c75a01425f9d780cec977bd29a52c3332079df0104366f2403e62e"}], "txid": "0c2ac8512d4f1b70e52dab4e221641d700469ee4ad0622a6b29e7311ae20fb36", "blocktime": 1537873891, "version": 1, "confirmations": 11478, "time": 1537873891, "locktime": 0, "vsize": 288, "size": 450}