{"hash": "0c2de3ce41159ef1751126a61c7a9015e092053ebc531b04ec92ecac6925a9f1", "blockhash": "00000000000000000004ffacab907a6b429b9a5745fa0b75af4234bf69dd7176", "vout": [{"scriptPubKey": {"reqSigs": 1, "hex": "a914e69e648af3def814fce08ce4ce158869815a2ba387", "addresses": ["3NiR5z7uCnsESfzCajW5TQq837jahcyphw"], "asm": "OP_HASH160 e69e648af3def814fce08ce4ce158869815a2ba3 OP_EQUAL", "type": "scripthash"}, "value": 0.00329156, "n": 0}, {"scriptPubKey": {"reqSigs": 1, "hex": "76a9149af7f1480527b69d128021f5ba90b0325d5437ec88ac", "addresses": ["1F8Q5ta8xx8x5YheyLTtTpUAGjyj91xKA2"], "asm": "OP_DUP OP_HASH160 9af7f1480527b69d128021f5ba90b0325d5437ec OP_EQUALVERIFY OP_CHECKSIG", "type": "pubkeyhash"}, "value": 0.01700554, "n": 1}], "hex": "01000000012bcee59186d734396f1bd5a40eacb35865f92f8884aa8e5db472c93ce1f3fc28010000006a47304402205ec09fff4e8916e5880cf89146921c33eb37165e790d0f54b1b7f907ceace568022072b7ac664a636f887ee8f7118f9cafbc9d063689a78cdaa162b08ef901c318c80121026795b698aa3688bf9c6dc191c434eea3c2b0e61362a88e89b78250c9df1f6765ffffffff02c40505000000000017a914e69e648af3def814fce08ce4ce158869815a2ba387caf21900000000001976a9149af7f1480527b69d128021f5ba90b0325d5437ec88ac00000000", "vin": [{"sequence": 4294967295, "scriptSig": {"hex": "47304402205ec09fff4e8916e5880cf89146921c33eb37165e790d0f54b1b7f907ceace568022072b7ac664a636f887ee8f7118f9cafbc9d063689a78cdaa162b08ef901c318c80121026795b698aa3688bf9c6dc191c434eea3c2b0e61362a88e89b78250c9df1f6765", "asm": "304402205ec09fff4e8916e5880cf89146921c33eb37165e790d0f54b1b7f907ceace568022072b7ac664a636f887ee8f7118f9cafbc9d063689a78cdaa162b08ef901c318c8[ALL] 026795b698aa3688bf9c6dc191c434eea3c2b0e61362a88e89b78250c9df1f6765"}, "vout": 1, "txid": "28fcf3e13cc972b45d8eaa84882ff96558b3ac0ea4d51b6f3934d78691e5ce2b"}], "txid": "0c2de3ce41159ef1751126a61c7a9015e092053ebc531b04ec92ecac6925a9f1", "blocktime": 1537875543, "version": 1, "confirmations": 11464, "time": 1537875543, "locktime": 0, "vsize": 223, "size": 223}