{"hash": "0c367ff0034257336ce192ddfa1223ee47dcdaa7796c77bbad7a831a06a2cef0", "blockhash": "00000000000000000004ffacab907a6b429b9a5745fa0b75af4234bf69dd7176", "vout": [{"scriptPubKey": {"type": "nulldata", "hex": "6a146f6d6e69000000000000001f0000001134c88300", "asm": "OP_RETURN 6f6d6e69000000000000001f0000001134c88300"}, "value": 0.0, "n": 0}, {"scriptPubKey": {"reqSigs": 1, "hex": "76a9148e7f46580fd0f9526b17f1b93f444fa5c837f50a88ac", "addresses": ["1DzTRSusMBDzhSpUPEtPo8BqskgZHoMioE"], "asm": "OP_DUP OP_HASH160 8e7f46580fd0f9526b17f1b93f444fa5c837f50a OP_EQUALVERIFY OP_CHECKSIG", "type": "pubkeyhash"}, "value": 5.46e-06, "n": 1}, {"scriptPubKey": {"reqSigs": 1, "hex": "76a914e0282cc0a9f283d161346923471a409484fc3a0888ac", "addresses": ["1MSEVNB9FuomfKvDjzxL34awefQ3haeHTm"], "asm": "OP_DUP OP_HASH160 e0282cc0a9f283d161346923471a409484fc3a08 OP_EQUALVERIFY OP_CHECKSIG", "type": "pubkeyhash"}, "value": 0.17362377, "n": 2}], "hex": "010000000112216a493cb4df09b6ed07fae16119cc44c390db895862c37dd36ed04f3b5e44010000006b4830450221009b7dedf7fc6f9a1c2a4d27d3b6e2c1bd5ec6f84c212cdd0827ecb326d20a990002201efa75c8a5147f20583064d3396078910f39a182149011491d4d723ffaa3cfed012102cff625998fb7c306a53216ab626b2e925af8075cbc1571268b3e9e025191ea00feffffff030000000000000000166a146f6d6e69000000000000001f0000001134c8830022020000000000001976a9148e7f46580fd0f9526b17f1b93f444fa5c837f50a88acc9ed0801000000001976a914e0282cc0a9f283d161346923471a409484fc3a0888ac16490800", "vin": [{"sequence": 4294967294, "scriptSig": {"hex": "4830450221009b7dedf7fc6f9a1c2a4d27d3b6e2c1bd5ec6f84c212cdd0827ecb326d20a990002201efa75c8a5147f20583064d3396078910f39a182149011491d4d723ffaa3cfed012102cff625998fb7c306a53216ab626b2e925af8075cbc1571268b3e9e025191ea00", "asm": "30450221009b7dedf7fc6f9a1c2a4d27d3b6e2c1bd5ec6f84c212cdd0827ecb326d20a990002201efa75c8a5147f20583064d3396078910f39a182149011491d4d723ffaa3cfed[ALL] 02cff625998fb7c306a53216ab626b2e925af8075cbc1571268b3e9e025191ea00"}, "vout": 1, "txid": "445e3b4fd06ed37dc3625889db90c344cc1961e1fa07edb609dfb43c496a2112"}], "txid": "0c367ff0034257336ce192ddfa1223ee47dcdaa7796c77bbad7a831a06a2cef0", "blocktime": 1537875543, "version": 1, "confirmations": 11464, "time": 1537875543, "locktime": 542998, "vsize": 257, "size": 257}