{"hash": "a6c0dcd112d3473a613f68cfde601d47912a3a7bc12812fc13c30d4b2409fca1", "blockhash": "0000000000000000001f76057863aec43deb6fa401d9628bb513d65a8098bfab", "vout": [{"scriptPubKey": {"type": "nulldata", "hex": "6a146f6d6e69000000000000001f00000184d3c1bc00", "asm": "OP_RETURN 6f6d6e69000000000000001f00000184d3c1bc00"}, "value": 0.0, "n": 0}, {"scriptPubKey": {"reqSigs": 1, "hex": "a9141895754006a3c1a3e50c965dbd2da3f6aaedd22187", "addresses": ["33w1BfwMdSQoG9ktqW6vKgobA4V7tW6uxf"], "asm": "OP_HASH160 1895754006a3c1a3e50c965dbd2da3f6aaedd221 OP_EQUAL", "type": "scripthash"}, "value": 4.98965556, "n": 1}, {"scriptPubKey": {"reqSigs": 1, "hex": "76a914c1e924721c4c2d1d23c9a79c015012e6c527886f88ac", "addresses": ["1JgJi3FjN5n5pZc1b8QvCrVg88FDv7XgB5"], "asm": "OP_DUP OP_HASH160 c1e924721c4c2d1d23c9a79c015012e6c527886f OP_EQUALVERIFY OP_CHECKSIG", "type": "pubkeyhash"}, "value": 5.46e-06, "n": 2}, {"scriptPubKey": {"reqSigs": 1, "hex": "76a914c09aa9b0c173c948787553b7e0ee3a4f460284a188ac", "addresses": ["1JZQ1zhnYitgMNTRqjRVLntscy1cFnPNsz"], "asm": "OP_DUP OP_HASH160 c09aa9b0c173c948787553b7e0ee3a4f460284a1 OP_EQUALVERIFY OP_CHECKSIG", "type": "pubkeyhash"}, "value": 5.46e-06, "n": 3}], "hex": "01000000000102214e44ae4f5dd43647993437ddfbb8a13e96f568270c4ad381c570b91d53ea43020000006b483045022100d40eb5a3552c62aa78a49dc2b1e936eaccade6a9806c4880c51013c8c046894f02204d3c1197c12af54f7d1f8f2de2e7c703e3cd0639b20f6e70a2d8bcdf681e45c001210286ace8f5d330a4c4713e366f25740299fcdff485e8d9f7ced2d71ebff55834adffffffff2f4d39eebc04181719fca3b1aecabf79f37627d0fb11626c4e476fbcdb9158050100000017160014caa9d2544a6793603b58a2245e72fd5237ac4a14ffffffff040000000000000000166a146f6d6e69000000000000001f00000184d3c1bc00349cbd1d0000000017a9141895754006a3c1a3e50c965dbd2da3f6aaedd2218722020000000000001976a914c1e924721c4c2d1d23c9a79c015012e6c527886f88ac22020000000000001976a914c09aa9b0c173c948787553b7e0ee3a4f460284a188ac000247304402207a096a70834d199146cfa04f90e81dbd2865fb1f1494f0d2a91f70f17f79ff0e022061976bb2aff71d26fb6f4a51fd5ebf833e5359430b3e462f097d6672168a7a91012102940a0ad8326f422af4579b66e04a22d67767add52c46cfbdbe0a726553c850d600000000", "vin": [{"sequence": 4294967295, "scriptSig": {"hex": "483045022100d40eb5a3552c62aa78a49dc2b1e936eaccade6a9806c4880c51013c8c046894f02204d3c1197c12af54f7d1f8f2de2e7c703e3cd0639b20f6e70a2d8bcdf681e45c001210286ace8f5d330a4c4713e366f25740299fcdff485e8d9f7ced2d71ebff55834ad", "asm": "3045022100d40eb5a3552c62aa78a49dc2b1e936eaccade6a9806c4880c51013c8c046894f02204d3c1197c12af54f7d1f8f2de2e7c703e3cd0639b20f6e70a2d8bcdf681e45c0[ALL] 0286ace8f5d330a4c4713e366f25740299fcdff485e8d9f7ced2d71ebff55834ad"}, "vout": 2, "txid": "43ea531db970c581d34a0c2768f5963ea1b8fbdd3734994736d45d4fae444e21"}, {"txinwitness": ["304402207a096a70834d199146cfa04f90e81dbd2865fb1f1494f0d2a91f70f17f79ff0e022061976bb2aff71d26fb6f4a51fd5ebf833e5359430b3e462f097d6672168a7a9101", "02940a0ad8326f422af4579b66e04a22d67767add52c46cfbdbe0a726553c850d6"], "sequence": 4294967295, "scriptSig": {"hex": "160014caa9d2544a6793603b58a2245e72fd5237ac4a14", "asm": "0014caa9d2544a6793603b58a2245e72fd5237ac4a14"}, "vout": 1, "txid": "055891dbbc6f474e6c6211fbd02776f379bfcaaeb1a3fc19171804bcee394d2f"}], "txid": "0c378ea7301b58f749aca3e88ec3015dd185fef75b611600c88e690dfaeaf396", "blocktime": 1537873891, "version": 1, "confirmations": 11477, "time": 1537873891, "locktime": 0, "vsize": 381, "size": 463}