{"hash": "0c385d296f421c7572e72365178f5bf81f12bca8ef18551b6794f2b6175b8248", "blockhash": "0000000000000000000dcc0f55137456b1a82d3642486a52398922ac4d620174", "vout": [{"scriptPubKey": {"reqSigs": 1, "hex": "a914525f94efc44afaf3963f3afb5af04acb037d780487", "addresses": ["39CZqQtE9R9awvD6ByQfoYEaWdL9y5qzWH"], "asm": "OP_HASH160 525f94efc44afaf3963f3afb5af04acb037d7804 OP_EQUAL", "type": "scripthash"}, "value": 0.02608967, "n": 0}], "hex": "0100000002e219ea6a896cd87cf0093352d1e53cd3b9704ac7543cea8b9d47834aee6e819b000000006b483045022100fc0252d75bfa8d6ac89bd153c8de5d1d02d5917952e1ef3d1e752f8ecc3b78cc022036912780e148084c5219242564d641a7e2f2d2aad769bd311fc1573a45c232f70121039323240bbd336838f0f1ca773921906f5889399a97913a2621e6b268800e9e9fffffffff123ec96729454042cece09fff97b4393a229ef94fa490c701cb683088e9d8216000000006b483045022100f55e560446a6d8cd22f688c085a1b3d23d3c60f630617788b5ff6f2b7c622eec02201631e12347cd472142e7f2cfca0eca85145c6adc7c6965bbd090f7ddbb5184a00121027a6f354d8afbc13863ded5b92e5bea623138589ed767a65561d4b81e49b2b4d8ffffffff0147cf27000000000017a914525f94efc44afaf3963f3afb5af04acb037d78048700000000", "vin": [{"sequence": 4294967295, "scriptSig": {"hex": "483045022100fc0252d75bfa8d6ac89bd153c8de5d1d02d5917952e1ef3d1e752f8ecc3b78cc022036912780e148084c5219242564d641a7e2f2d2aad769bd311fc1573a45c232f70121039323240bbd336838f0f1ca773921906f5889399a97913a2621e6b268800e9e9f", "asm": "3045022100fc0252d75bfa8d6ac89bd153c8de5d1d02d5917952e1ef3d1e752f8ecc3b78cc022036912780e148084c5219242564d641a7e2f2d2aad769bd311fc1573a45c232f7[ALL] 039323240bbd336838f0f1ca773921906f5889399a97913a2621e6b268800e9e9f"}, "vout": 0, "txid": "9b816eee4a83479d8bea3c54c74a70b9d33ce5d1523309f07cd86c896aea19e2"}, {"sequence": 4294967295, "scriptSig": {"hex": "483045022100f55e560446a6d8cd22f688c085a1b3d23d3c60f630617788b5ff6f2b7c622eec02201631e12347cd472142e7f2cfca0eca85145c6adc7c6965bbd090f7ddbb5184a00121027a6f354d8afbc13863ded5b92e5bea623138589ed767a65561d4b81e49b2b4d8", "asm": "3045022100f55e560446a6d8cd22f688c085a1b3d23d3c60f630617788b5ff6f2b7c622eec02201631e12347cd472142e7f2cfca0eca85145c6adc7c6965bbd090f7ddbb5184a0[ALL] 027a6f354d8afbc13863ded5b92e5bea623138589ed767a65561d4b81e49b2b4d8"}, "vout": 0, "txid": "16829d8e0883b61c700c49fa94ef29a293437bf9ff09cece4240452967c93e12"}], "txid": "0c385d296f421c7572e72365178f5bf81f12bca8ef18551b6794f2b6175b8248", "blocktime": 1537870268, "version": 1, "confirmations": 11518, "time": 1537870268, "locktime": 0, "vsize": 338, "size": 338}