{"hash": "0c3c895a226870d6f9ca600fd51fc544c905d194d52d827296bdd03cb1b0cdf0", "blockhash": "0000000000000000001e0dab787dd257d1dbfcb92a98c2207d5e1078be1f4165", "vout": [{"scriptPubKey": {"reqSigs": 1, "hex": "76a914fb8197d5db96e6e11660f6b109cf13b7e8afcd8b88ac", "addresses": ["1PvqrSJvbpX9rkatNzDFEGxLqc25E3xgxc"], "asm": "OP_DUP OP_HASH160 fb8197d5db96e6e11660f6b109cf13b7e8afcd8b OP_EQUALVERIFY OP_CHECKSIG", "type": "pubkeyhash"}, "value": 0.00641375, "n": 0}, {"scriptPubKey": {"type": "nulldata", "hex": "6a4c50000077ae0001adaf350a813e09068a8e8f00af6c953dd567cf27e7e3ef3236678a6250975d38637e5e7ea8a59895ad68641c2c5b5baa10f20611f279415e82961d100759d4ba30d2c37bb011d97e02cf", "asm": "OP_RETURN 000077ae0001adaf350a813e09068a8e8f00af6c953dd567cf27e7e3ef3236678a6250975d38637e5e7ea8a59895ad68641c2c5b5baa10f20611f279415e82961d100759d4ba30d2c37bb011d97e02cf"}, "value": 0.0, "n": 1}], "hex": "0100000001afb768c14eeff781a74f9c5f374481a63718fa9c8eed97f8bf8fd591581adc30010000006b483045022100807e0b9bc6f60bfcc6ca6172dd8b46fb2eba4a3d17a6abfad33e045064b8db20022056da49cca11ea8728047a5c40f03de702f5c322fbec7bb33b777a7409b2006b3012102efa6958777da6eaad558837b3cce497901f56944abcb8fe22b32166d7aa3d58bffffffff025fc90900000000001976a914fb8197d5db96e6e11660f6b109cf13b7e8afcd8b88ac0000000000000000536a4c50000077ae0001adaf350a813e09068a8e8f00af6c953dd567cf27e7e3ef3236678a6250975d38637e5e7ea8a59895ad68641c2c5b5baa10f20611f279415e82961d100759d4ba30d2c37bb011d97e02cf00000000", "vin": [{"sequence": 4294967295, "scriptSig": {"hex": "483045022100807e0b9bc6f60bfcc6ca6172dd8b46fb2eba4a3d17a6abfad33e045064b8db20022056da49cca11ea8728047a5c40f03de702f5c322fbec7bb33b777a7409b2006b3012102efa6958777da6eaad558837b3cce497901f56944abcb8fe22b32166d7aa3d58b", "asm": "3045022100807e0b9bc6f60bfcc6ca6172dd8b46fb2eba4a3d17a6abfad33e045064b8db20022056da49cca11ea8728047a5c40f03de702f5c322fbec7bb33b777a7409b2006b3[ALL] 02efa6958777da6eaad558837b3cce497901f56944abcb8fe22b32166d7aa3d58b"}, "vout": 1, "txid": "30dc1a5891d58fbff897ed8e9cfa1837a68144375f9c4fa781f7ef4ec168b7af"}], "txid": "0c3c895a226870d6f9ca600fd51fc544c905d194d52d827296bdd03cb1b0cdf0", "blocktime": 1537872475, "version": 1, "confirmations": 11486, "time": 1537872475, "locktime": 0, "vsize": 284, "size": 284}