{"hash": "0c3ff5f3343ebd59781a61d644438cb6d4ea34d7f4ce2c1ff5612ca78d34bb57", "blockhash": "0000000000000000000e13cef7c366c0283d82e591d1acd082e914b08063cdf1", "vout": [{"scriptPubKey": {"reqSigs": 1, "hex": "76a914d5ad65b8f80056688c30992b2e3913434b33ecb588ac", "addresses": ["1LUpeiiUFZkLs9VSENxPXwLwyxRQnn4rEd"], "asm": "OP_DUP OP_HASH160 d5ad65b8f80056688c30992b2e3913434b33ecb5 OP_EQUALVERIFY OP_CHECKSIG", "type": "pubkeyhash"}, "value": 8.644e-05, "n": 0}, {"scriptPubKey": {"reqSigs": 1, "hex": "a91493a8e4259c2d6b671628b31fa1e3ae18980163d787", "addresses": ["3F9maWUh5PymeEEycBaxuvbzjxYkzvzHwo"], "asm": "OP_HASH160 93a8e4259c2d6b671628b31fa1e3ae18980163d7 OP_EQUAL", "type": "scripthash"}, "value": 0.00453253, "n": 1}], "hex": "01000000028bf8f87496921ac36108124d2c96ac4940f6b9415665171172d0c11788b69f64000000006b483045022100e9a92f2533a220d6f4d94bb7b6b8caec4633089ccd3611e6159128d35cc2789c0220509c57e423f70ac09e74afbcbb01b10c420fa0e86b7cabc9d3f9baabaf1335a5012103ccbabf095c97cf4e05e55ba4438f80efc26430bbe404b5fe204238654f8e3e85ffffffff3176cf0a8b2fa1e14cbc5384d247e1ec75745e5f0ea1aef5edc6247befd85c7f000000006b483045022100c4024bb0b2fd4f177090c2a491610bd69ea68d5a33871d52cd64ade06f47561e0220683a9b3e7cb8810f948393946f6e9365f687c44d8262c3d2113b48bc70eb7159012103e6e1ef5791bad6a64f2ec6fd32d757194f85573b96a12259da2def07c092e884ffffffff02c4210000000000001976a914d5ad65b8f80056688c30992b2e3913434b33ecb588ac85ea06000000000017a91493a8e4259c2d6b671628b31fa1e3ae18980163d78700000000", "vin": [{"sequence": 4294967295, "scriptSig": {"hex": "483045022100e9a92f2533a220d6f4d94bb7b6b8caec4633089ccd3611e6159128d35cc2789c0220509c57e423f70ac09e74afbcbb01b10c420fa0e86b7cabc9d3f9baabaf1335a5012103ccbabf095c97cf4e05e55ba4438f80efc26430bbe404b5fe204238654f8e3e85", "asm": "3045022100e9a92f2533a220d6f4d94bb7b6b8caec4633089ccd3611e6159128d35cc2789c0220509c57e423f70ac09e74afbcbb01b10c420fa0e86b7cabc9d3f9baabaf1335a5[ALL] 03ccbabf095c97cf4e05e55ba4438f80efc26430bbe404b5fe204238654f8e3e85"}, "vout": 0, "txid": "649fb68817c1d0721117655641b9f64049ac962c4d120861c31a929674f8f88b"}, {"sequence": 4294967295, "scriptSig": {"hex": "483045022100c4024bb0b2fd4f177090c2a491610bd69ea68d5a33871d52cd64ade06f47561e0220683a9b3e7cb8810f948393946f6e9365f687c44d8262c3d2113b48bc70eb7159012103e6e1ef5791bad6a64f2ec6fd32d757194f85573b96a12259da2def07c092e884", "asm": "3045022100c4024bb0b2fd4f177090c2a491610bd69ea68d5a33871d52cd64ade06f47561e0220683a9b3e7cb8810f948393946f6e9365f687c44d8262c3d2113b48bc70eb7159[ALL] 03e6e1ef5791bad6a64f2ec6fd32d757194f85573b96a12259da2def07c092e884"}, "vout": 0, "txid": "7f5cd8ef7b24c6edf5aea10e5f5e7475ece147d28453bc4ce1a12f8b0acf7631"}], "txid": "0c3ff5f3343ebd59781a61d644438cb6d4ea34d7f4ce2c1ff5612ca78d34bb57", "blocktime": 1537871767, "version": 1, "confirmations": 11495, "time": 1537871767, "locktime": 0, "vsize": 372, "size": 372}