{"hash": "0c40a915077dc65d67fe411c9477c86921a0191660302485476cc6f437d93c05", "blockhash": "000000000000000000022b45ed06c6f4ccd3cf7fb5ba4856ebd2e58215665228", "vout": [{"scriptPubKey": {"reqSigs": 1, "hex": "76a914d02eb0aae13072c0c81bbaabcd465db675e87e7e88ac", "addresses": ["1KymUzCnnnXm1DyWV28LxRtBaZJ2cwFxgq"], "asm": "OP_DUP OP_HASH160 d02eb0aae13072c0c81bbaabcd465db675e87e7e OP_EQUALVERIFY OP_CHECKSIG", "type": "pubkeyhash"}, "value": 0.00895127, "n": 0}, {"scriptPubKey": {"reqSigs": 1, "hex": "76a914cc6b518ae80552fe0223c203a52a5d9a71f50f9488ac", "addresses": ["1KdsQkoqJ2maVkar8LzPyDvTTyBzjGh2nr"], "asm": "OP_DUP OP_HASH160 cc6b518ae80552fe0223c203a52a5d9a71f50f94 OP_EQUALVERIFY OP_CHECKSIG", "type": "pubkeyhash"}, "value": 0.04374842, "n": 1}], "hex": "02000000035d500b81072d828b3e8679e89099ca64f4286111edd7f47f90bb2e06f9fd459ca10000006a473044022016d71637285235d579a2b121cfd1c58e5189d378d5491cdddaaae281becd296602200819a71254ed023cc24c6dad75b8deace236157082b484bd497b685154300519012102a5205d3597c3a90bc2431448f284e656d5e4e50f59e148e4cf4233a686faa002feffffff7786911453b27ab6c3296ebd98967454bc30ac5a23af5ee2dc042fbc1f8bbade010000006b483045022100f12dfd26bd3408ced84c166d7b851579e2708da03dbe329cd300e1b83d81657f022044a7ca59352aa3166e803463f749294be337a6504167fb40129e38870507016d0121035e904a57307c8eaf083bbd2e52aac0855b0efa230aaa1f250a10dd76373ca041feffffffed24bf93b3a1fa87bd0a915faf7bd6d898c4cd9634f8c96ab41bf327cc33f0f60b0100006a47304402206d3609fa8f97a4992f42b0df0de064d9caec56b00647ae3f3bb28b0d0550f71802206151330169a2a512f02a55c156248a8d551fd1ef63963464883ca6644eebc2cc0121023d842489161da4e95b816fded46967718f3e91f5bb7e18df626ab011b01f2967feffffff0297a80d00000000001976a914d02eb0aae13072c0c81bbaabcd465db675e87e7e88ac3ac14200000000001976a914cc6b518ae80552fe0223c203a52a5d9a71f50f9488ac0b490800", "vin": [{"sequence": 4294967294, "scriptSig": {"hex": "473044022016d71637285235d579a2b121cfd1c58e5189d378d5491cdddaaae281becd296602200819a71254ed023cc24c6dad75b8deace236157082b484bd497b685154300519012102a5205d3597c3a90bc2431448f284e656d5e4e50f59e148e4cf4233a686faa002", "asm": "3044022016d71637285235d579a2b121cfd1c58e5189d378d5491cdddaaae281becd296602200819a71254ed023cc24c6dad75b8deace236157082b484bd497b685154300519[ALL] 02a5205d3597c3a90bc2431448f284e656d5e4e50f59e148e4cf4233a686faa002"}, "vout": 161, "txid": "9c45fdf9062ebb907ff4d7ed116128f464ca9990e879863e8b822d07810b505d"}, {"sequence": 4294967294, "scriptSig": {"hex": "483045022100f12dfd26bd3408ced84c166d7b851579e2708da03dbe329cd300e1b83d81657f022044a7ca59352aa3166e803463f749294be337a6504167fb40129e38870507016d0121035e904a57307c8eaf083bbd2e52aac0855b0efa230aaa1f250a10dd76373ca041", "asm": "3045022100f12dfd26bd3408ced84c166d7b851579e2708da03dbe329cd300e1b83d81657f022044a7ca59352aa3166e803463f749294be337a6504167fb40129e38870507016d[ALL] 035e904a57307c8eaf083bbd2e52aac0855b0efa230aaa1f250a10dd76373ca041"}, "vout": 1, "txid": "deba8b1fbc2f04dce25eaf235aac30bc54749698bd6e29c3b67ab25314918677"}, {"sequence": 4294967294, "scriptSig": {"hex": "47304402206d3609fa8f97a4992f42b0df0de064d9caec56b00647ae3f3bb28b0d0550f71802206151330169a2a512f02a55c156248a8d551fd1ef63963464883ca6644eebc2cc0121023d842489161da4e95b816fded46967718f3e91f5bb7e18df626ab011b01f2967", "asm": "304402206d3609fa8f97a4992f42b0df0de064d9caec56b00647ae3f3bb28b0d0550f71802206151330169a2a512f02a55c156248a8d551fd1ef63963464883ca6644eebc2cc[ALL] 023d842489161da4e95b816fded46967718f3e91f5bb7e18df626ab011b01f2967"}, "vout": 267, "txid": "f6f033cc27f31bb46ac9f83496cdc498d8d67baf5f910abd87faa1b393bf24ed"}], "txid": "0c40a915077dc65d67fe411c9477c86921a0191660302485476cc6f437d93c05", "blocktime": 1537869901, "version": 2, "confirmations": 11522, "time": 1537869901, "locktime": 542987, "vsize": 520, "size": 520}