{"hash": "0c466612f5622c403090c63f0f55096db3fff2d08115c476207263195def04b8", "blockhash": "0000000000000000000dcc0f55137456b1a82d3642486a52398922ac4d620174", "vout": [{"scriptPubKey": {"type": "nulldata", "hex": "6a146f6d6e69000000000000001f0000000ba43b7400", "asm": "OP_RETURN 6f6d6e69000000000000001f0000000ba43b7400"}, "value": 0.0, "n": 0}, {"scriptPubKey": {"reqSigs": 1, "hex": "76a9145bcd5a8002a8c014a528f7de3bcb504c526c8c1488ac", "addresses": ["19NQVfoTgsEeCAQtA4oXR1WqvT6m3AnYjg"], "asm": "OP_DUP OP_HASH160 5bcd5a8002a8c014a528f7de3bcb504c526c8c14 OP_EQUALVERIFY OP_CHECKSIG", "type": "pubkeyhash"}, "value": 5.46e-06, "n": 1}, {"scriptPubKey": {"reqSigs": 1, "hex": "76a914284b1f894ca72430de8f19952125b6016a9dc7c688ac", "addresses": ["14g42KnXkRFfR8cUtS5tReprjeNvGQKW9v"], "asm": "OP_DUP OP_HASH160 284b1f894ca72430de8f19952125b6016a9dc7c6 OP_EQUALVERIFY OP_CHECKSIG", "type": "pubkeyhash"}, "value": 0.144564, "n": 2}], "hex": "01000000014a96936362fd65d32676a04ecdf13fff6453a03923923b9febe4794688a9fd4c020000006b483045022100a8a6212023433184d2981dcb02e159e63ae62672bd9112c4da03413aa59ed491022068aac4d9a2c11e659f7aee3c975fb74220b83dd0970171864f77011d9c3d4fb301210392260b2475e9dec1855e89404d00787579055270f3f1619ec29bd64ed6a6dd7dfeffffff030000000000000000166a146f6d6e69000000000000001f0000000ba43b740022020000000000001976a9145bcd5a8002a8c014a528f7de3bcb504c526c8c1488ac5096dc00000000001976a914284b1f894ca72430de8f19952125b6016a9dc7c688ac0c490800", "vin": [{"sequence": 4294967294, "scriptSig": {"hex": "483045022100a8a6212023433184d2981dcb02e159e63ae62672bd9112c4da03413aa59ed491022068aac4d9a2c11e659f7aee3c975fb74220b83dd0970171864f77011d9c3d4fb301210392260b2475e9dec1855e89404d00787579055270f3f1619ec29bd64ed6a6dd7d", "asm": "3045022100a8a6212023433184d2981dcb02e159e63ae62672bd9112c4da03413aa59ed491022068aac4d9a2c11e659f7aee3c975fb74220b83dd0970171864f77011d9c3d4fb3[ALL] 0392260b2475e9dec1855e89404d00787579055270f3f1619ec29bd64ed6a6dd7d"}, "vout": 2, "txid": "4cfda9884679e4eb9f3b922339a05364ff3ff1cd4ea07626d365fd626393964a"}], "txid": "0c466612f5622c403090c63f0f55096db3fff2d08115c476207263195def04b8", "blocktime": 1537870268, "version": 1, "confirmations": 11516, "time": 1537870268, "locktime": 542988, "vsize": 257, "size": 257}