{"hash": "0c517ae84aa8798cb18e53124048ec4f98088d3078e40feb8befc9c280be3512", "blockhash": "0000000000000000000dcc0f55137456b1a82d3642486a52398922ac4d620174", "vout": [{"scriptPubKey": {"reqSigs": 1, "hex": "76a91494e3f78578f073ec33e6b01036c075e5d3632cfa88ac", "addresses": ["1EaG6oqD8h7kToV2uEQqah3EE17vXzGn8h"], "asm": "OP_DUP OP_HASH160 94e3f78578f073ec33e6b01036c075e5d3632cfa OP_EQUALVERIFY OP_CHECKSIG", "type": "pubkeyhash"}, "value": 0.00372656, "n": 0}, {"scriptPubKey": {"reqSigs": 1, "hex": "76a9144a931029083b01d8a90a442de75b77318d90c97d88ac", "addresses": ["17oKBKbTdMZyEnheswqATYvvzxugdGFwK7"], "asm": "OP_DUP OP_HASH160 4a931029083b01d8a90a442de75b77318d90c97d OP_EQUALVERIFY OP_CHECKSIG", "type": "pubkeyhash"}, "value": 0.05625988, "n": 1}], "hex": "0100000001c17030fb93e2f4f77bbf4698b83ed955107b4903eeb7b718a8c2490dc170fb2e000000006b483045022100aedd568c8873e9c77904732e99caa2813030a810fc475cddc77a2250de4564ae02205e124825b4e552d2db68cfeff240c0903b38311c173c6b9f6e70cca602d41348012103a4906709018394daf7ad6d7669c05dfc5f739ebad18ee33a26e555f17c4b2734ffffffff02b0af0500000000001976a91494e3f78578f073ec33e6b01036c075e5d3632cfa88ac84d85500000000001976a9144a931029083b01d8a90a442de75b77318d90c97d88ac00000000", "vin": [{"sequence": 4294967295, "scriptSig": {"hex": "483045022100aedd568c8873e9c77904732e99caa2813030a810fc475cddc77a2250de4564ae02205e124825b4e552d2db68cfeff240c0903b38311c173c6b9f6e70cca602d41348012103a4906709018394daf7ad6d7669c05dfc5f739ebad18ee33a26e555f17c4b2734", "asm": "3045022100aedd568c8873e9c77904732e99caa2813030a810fc475cddc77a2250de4564ae02205e124825b4e552d2db68cfeff240c0903b38311c173c6b9f6e70cca602d41348[ALL] 03a4906709018394daf7ad6d7669c05dfc5f739ebad18ee33a26e555f17c4b2734"}, "vout": 0, "txid": "2efb70c10d49c2a818b7b7ee03497b1055d93eb89846bf7bf7f4e293fb3070c1"}], "txid": "0c517ae84aa8798cb18e53124048ec4f98088d3078e40feb8befc9c280be3512", "blocktime": 1537870268, "version": 1, "confirmations": 11516, "time": 1537870268, "locktime": 0, "vsize": 226, "size": 226}