{"hash": "0c53234ef1bab36efa1cd84c334841aabcce690c8b775c0d49c5a9bf64aeb3a3", "blockhash": "0000000000000000001cda96e906b7601b7a6fb1a3b62bca570a9e5d8f4b3de1", "vout": [{"scriptPubKey": {"reqSigs": 1, "hex": "76a914189417c7c2ff1f199fc582f54d47d48282a6016e88ac", "addresses": ["13ExdH9hSEXGPVAcUtLaEp4qeKVpKtYNJv"], "asm": "OP_DUP OP_HASH160 189417c7c2ff1f199fc582f54d47d48282a6016e OP_EQUALVERIFY OP_CHECKSIG", "type": "pubkeyhash"}, "value": 0.00179809, "n": 0}, {"scriptPubKey": {"reqSigs": 1, "hex": "76a9147d062f9d43eae2f359ad8f96d69cd304a8e6b6c388ac", "addresses": ["1CQ4snmjmPVT1siGNKGrXMRLGwebbinLCM"], "asm": "OP_DUP OP_HASH160 7d062f9d43eae2f359ad8f96d69cd304a8e6b6c3 OP_EQUALVERIFY OP_CHECKSIG", "type": "pubkeyhash"}, "value": 2.018e-05, "n": 1}], "hex": "0100000001c7c50a08f66d13488c573c0f173e5a0558e57257a4852d5e48a199c07ddad9c1000000006a47304402207f1f37b46fec13935c717d671388a5955de406f4473d3d116da55dd71fdb98ab022027ce262d087d236c287735c8a745a49151298cb34226e72752258c18236816db012103c7d7260d4ad329f5c3e5c1c52c57ba999f4c6872348dbdc163a1f05dd3b2d682ffffffff0261be0200000000001976a914189417c7c2ff1f199fc582f54d47d48282a6016e88ace2070000000000001976a9147d062f9d43eae2f359ad8f96d69cd304a8e6b6c388ac00000000", "vin": [{"sequence": 4294967295, "scriptSig": {"hex": "47304402207f1f37b46fec13935c717d671388a5955de406f4473d3d116da55dd71fdb98ab022027ce262d087d236c287735c8a745a49151298cb34226e72752258c18236816db012103c7d7260d4ad329f5c3e5c1c52c57ba999f4c6872348dbdc163a1f05dd3b2d682", "asm": "304402207f1f37b46fec13935c717d671388a5955de406f4473d3d116da55dd71fdb98ab022027ce262d087d236c287735c8a745a49151298cb34226e72752258c18236816db[ALL] 03c7d7260d4ad329f5c3e5c1c52c57ba999f4c6872348dbdc163a1f05dd3b2d682"}, "vout": 0, "txid": "c1d9da7dc099a1485e2d85a45772e558055a3e170f3c578c48136df6080ac5c7"}], "txid": "0c53234ef1bab36efa1cd84c334841aabcce690c8b775c0d49c5a9bf64aeb3a3", "blocktime": 1537873282, "version": 1, "confirmations": 11480, "time": 1537873282, "locktime": 0, "vsize": 225, "size": 225}