{"hash": "817ccb228ee96efdeeb54f6689bd87cc649ed8c0948443d163aa2fbd44000526", "blockhash": "0000000000000000001e0dab787dd257d1dbfcb92a98c2207d5e1078be1f4165", "vout": [{"scriptPubKey": {"reqSigs": 1, "hex": "a91417e6b142f7fd08d8efaefd2e3c1b33db890bd2a487", "addresses": ["33sPpkGMvk1fJ3JRKU6MDVtLbK1ZVGS1Z4"], "asm": "OP_HASH160 17e6b142f7fd08d8efaefd2e3c1b33db890bd2a4 OP_EQUAL", "type": "scripthash"}, "value": 0.0001, "n": 0}, {"scriptPubKey": {"reqSigs": 1, "hex": "a9144f977827b261d55c44e62f9a44a4aa349343cbd587", "addresses": ["38wrkyRmNSCkkkdi4VF2fbvND4qi6EfDsz"], "asm": "OP_HASH160 4f977827b261d55c44e62f9a44a4aa349343cbd5 OP_EQUAL", "type": "scripthash"}, "value": 0.01003862, "n": 1}], "hex": "02000000000101487eb0f8bbc4b8bfe3ad244646884684aa57ddba9c14334c4aee7abfc4e1f6760000000017160014671b2fa0a723248815b3c604a9933d8d61d2e7fdfeffffff02102700000000000017a91417e6b142f7fd08d8efaefd2e3c1b33db890bd2a48756510f000000000017a9144f977827b261d55c44e62f9a44a4aa349343cbd58702483045022100d063c08d134dec03355188c53f5ffc5da943bf15fa11f900ad1b6298d5fb569f02203a171c70c34343a092530d1691fe0f92e32a59989a7b96eec66678a5aadf276d012102d80827027fb391c62a2e9820cab90c6511ae85e4d5c9abbb40711d3335e107b8de480800", "vin": [{"txinwitness": ["3045022100d063c08d134dec03355188c53f5ffc5da943bf15fa11f900ad1b6298d5fb569f02203a171c70c34343a092530d1691fe0f92e32a59989a7b96eec66678a5aadf276d01", "02d80827027fb391c62a2e9820cab90c6511ae85e4d5c9abbb40711d3335e107b8"], "sequence": 4294967294, "scriptSig": {"hex": "160014671b2fa0a723248815b3c604a9933d8d61d2e7fd", "asm": "0014671b2fa0a723248815b3c604a9933d8d61d2e7fd"}, "vout": 0, "txid": "76f6e1c4bf7aee4a4c33149cbadd57aa844688464624ade3bfb8c4bbf8b07e48"}], "txid": "0c54e6ea15ff8c183e561db22367aa3a079be146041b3a40edbdc103d0c58ed5", "blocktime": 1537872475, "version": 2, "confirmations": 11487, "time": 1537872475, "locktime": 542942, "vsize": 166, "size": 248}