{"hash": "0c5e8185fc469d54a8fdc42e0cf0ceb30afe0dd582a15574abd3785d530d4377", "blockhash": "0000000000000000000baef3f32e3676a92c3b2e5da21b426e4f302fc371ce76", "vout": [{"scriptPubKey": {"reqSigs": 1, "hex": "a914a7ebeab9fdc9ec6bf0ffabd99c393b2fb2b4c8a687", "addresses": ["3GzuPNbBrTvsrgdCRNssmDejYetjGpcGFi"], "asm": "OP_HASH160 a7ebeab9fdc9ec6bf0ffabd99c393b2fb2b4c8a6 OP_EQUAL", "type": "scripthash"}, "value": 0.003706, "n": 0}, {"scriptPubKey": {"reqSigs": 1, "hex": "76a914b9911097574115fc497660c9d0023018942172c988ac", "addresses": ["1HvBnmZVEpheSj5q9GGE6rURJSgbhevqmg"], "asm": "OP_DUP OP_HASH160 b9911097574115fc497660c9d0023018942172c9 OP_EQUALVERIFY OP_CHECKSIG", "type": "pubkeyhash"}, "value": 0.12637323, "n": 1}], "hex": "0100000001faf40f892bee529df19fa9f3e95c2a2130002178415a473cf8e47641055e617e010000006a4730440220382e115663fdb7a3c2193415ca59e3c7ec04c31868dbee776c53ed714064881802207e71358ce6c1ed5f8634d0bfebb32b7e920a3fc73d53c9d1deffed0089a617fb012102e33f75986ac8f64bcc2a8716955febfb5f8d790f4b5d0606d658754b2491023cfdffffff02a8a705000000000017a914a7ebeab9fdc9ec6bf0ffabd99c393b2fb2b4c8a6878bd4c000000000001976a914b9911097574115fc497660c9d0023018942172c988ac16490800", "vin": [{"sequence": 4294967293, "scriptSig": {"hex": "4730440220382e115663fdb7a3c2193415ca59e3c7ec04c31868dbee776c53ed714064881802207e71358ce6c1ed5f8634d0bfebb32b7e920a3fc73d53c9d1deffed0089a617fb012102e33f75986ac8f64bcc2a8716955febfb5f8d790f4b5d0606d658754b2491023c", "asm": "30440220382e115663fdb7a3c2193415ca59e3c7ec04c31868dbee776c53ed714064881802207e71358ce6c1ed5f8634d0bfebb32b7e920a3fc73d53c9d1deffed0089a617fb[ALL] 02e33f75986ac8f64bcc2a8716955febfb5f8d790f4b5d0606d658754b2491023c"}, "vout": 1, "txid": "7e615e054176e4f83c475a4178210030212a5ce9f3a99ff19d52ee2b890ff4fa"}], "txid": "0c5e8185fc469d54a8fdc42e0cf0ceb30afe0dd582a15574abd3785d530d4377", "blocktime": 1537876114, "version": 1, "confirmations": 11460, "time": 1537876114, "locktime": 542998, "vsize": 223, "size": 223}