{"hash": "0c66fadbc707a38cb71ff1504554c3b19e4b25d627a7d1b0705d520e49c17ffe", "blockhash": "0000000000000000000dcc0f55137456b1a82d3642486a52398922ac4d620174", "vout": [{"scriptPubKey": {"reqSigs": 1, "hex": "a91454c6a802a8fc568995892ebe74411bf2b6a7072787", "addresses": ["39RGfYByBEu52doKBB3QoqzCGCx9fxxbWJ"], "asm": "OP_HASH160 54c6a802a8fc568995892ebe74411bf2b6a70727 OP_EQUAL", "type": "scripthash"}, "value": 0.00407021, "n": 0}, {"scriptPubKey": {"reqSigs": 1, "hex": "76a914140f587e6bf392a4fd7f04d58a3345af80922ff288ac", "addresses": ["12q4u5EquKTq4AWvx8QitgSPwdpJYhhtqn"], "asm": "OP_DUP OP_HASH160 140f587e6bf392a4fd7f04d58a3345af80922ff2 OP_EQUALVERIFY OP_CHECKSIG", "type": "pubkeyhash"}, "value": 0.00013668, "n": 1}], "hex": "010000000253ed48d88d6c1022fc39721335d7b8ebd72e416c74f826b29ff33379b41e8008260000006b4830450221009d5bc9e9890efdee86c869f5c58b53b2f281cddf0d68767b16dff842e33d3c3302201cb936e2e3136cde53f65ccba50ceb5f5b07580fd7fbed6d474588a727f05d6d012102c619c2122446d7a04e94d1ef680fd28214fc5ffaffeac617ff1ff2ca38de0bf0fffffffff28b27d305cbd591129f00a4439f8f2cbcedd7e600f112b5a0d3198021048c4e010000006b483045022100ab1f09123db8ecf646a61acb65f9501daa135e85797744f278c0102636c61bc602206e532044e1efa49ce92110573054d7c58177885c6f9a95c4d5da5e11f6e056a50121038dda43f7f3131dc2642622e967e903617748c6aa4aa572f89029ec578ee5b298ffffffff02ed3506000000000017a91454c6a802a8fc568995892ebe74411bf2b6a707278764350000000000001976a914140f587e6bf392a4fd7f04d58a3345af80922ff288ac00000000", "vin": [{"sequence": 4294967295, "scriptSig": {"hex": "4830450221009d5bc9e9890efdee86c869f5c58b53b2f281cddf0d68767b16dff842e33d3c3302201cb936e2e3136cde53f65ccba50ceb5f5b07580fd7fbed6d474588a727f05d6d012102c619c2122446d7a04e94d1ef680fd28214fc5ffaffeac617ff1ff2ca38de0bf0", "asm": "30450221009d5bc9e9890efdee86c869f5c58b53b2f281cddf0d68767b16dff842e33d3c3302201cb936e2e3136cde53f65ccba50ceb5f5b07580fd7fbed6d474588a727f05d6d[ALL] 02c619c2122446d7a04e94d1ef680fd28214fc5ffaffeac617ff1ff2ca38de0bf0"}, "vout": 38, "txid": "08801eb47933f39fb226f8746c412ed7ebb8d735137239fc22106c8dd848ed53"}, {"sequence": 4294967295, "scriptSig": {"hex": "483045022100ab1f09123db8ecf646a61acb65f9501daa135e85797744f278c0102636c61bc602206e532044e1efa49ce92110573054d7c58177885c6f9a95c4d5da5e11f6e056a50121038dda43f7f3131dc2642622e967e903617748c6aa4aa572f89029ec578ee5b298", "asm": "3045022100ab1f09123db8ecf646a61acb65f9501daa135e85797744f278c0102636c61bc602206e532044e1efa49ce92110573054d7c58177885c6f9a95c4d5da5e11f6e056a5[ALL] 038dda43f7f3131dc2642622e967e903617748c6aa4aa572f89029ec578ee5b298"}, "vout": 1, "txid": "4e8c04218019d3a0b512f100e6d7edbc2c8f9f43a4009f1291d5cb05d3278bf2"}], "txid": "0c66fadbc707a38cb71ff1504554c3b19e4b25d627a7d1b0705d520e49c17ffe", "blocktime": 1537870268, "version": 1, "confirmations": 11518, "time": 1537870268, "locktime": 0, "vsize": 372, "size": 372}