{"hash": "0c6c86ae6936993829c7beabe49564cb6b60984250f587e2f748156eacf2988f", "blockhash": "0000000000000000001f76057863aec43deb6fa401d9628bb513d65a8098bfab", "vout": [{"scriptPubKey": {"reqSigs": 1, "hex": "76a91433abfeceb9b77d0f9d0286c34a5bae590d866b9588ac", "addresses": ["15iDWEJ4k5z4wjYfbuzXZrL7AmcgE3xWwV"], "asm": "OP_DUP OP_HASH160 33abfeceb9b77d0f9d0286c34a5bae590d866b95 OP_EQUALVERIFY OP_CHECKSIG", "type": "pubkeyhash"}, "value": 0.00636106, "n": 0}, {"scriptPubKey": {"type": "nulldata", "hex": "6a4c50000077e20001f8fb869647df387a71663dc57af8e8e963c7cfd5b95b23cc0f42c2fc38c5c153fe2502fe1657337ef23ea47cf7a35baa16d60612aea269f834541d100759d4ba30d2c37bb011d97e02cf", "asm": "OP_RETURN 000077e20001f8fb869647df387a71663dc57af8e8e963c7cfd5b95b23cc0f42c2fc38c5c153fe2502fe1657337ef23ea47cf7a35baa16d60612aea269f834541d100759d4ba30d2c37bb011d97e02cf"}, "value": 0.0, "n": 1}], "hex": "010000000122e39034ed6ec24fa6d5a09448a96c03f51e27bad7d5a24dc9a0f0bf028e2801010000006a4730440220299d503d7a5c5daf06df2190e72744a7e2516a06fedb8022fa029c474854b42902202e3f0f7b1d16c2bae1dc6b92ffb796c1eb4d65577432037f5f995411b124c12b012102d7c92082870ec548afdd9a7a3c7af861b077fef10e6f303b8a54301d0374001effffffff02cab40900000000001976a91433abfeceb9b77d0f9d0286c34a5bae590d866b9588ac0000000000000000536a4c50000077e20001f8fb869647df387a71663dc57af8e8e963c7cfd5b95b23cc0f42c2fc38c5c153fe2502fe1657337ef23ea47cf7a35baa16d60612aea269f834541d100759d4ba30d2c37bb011d97e02cf00000000", "vin": [{"sequence": 4294967295, "scriptSig": {"hex": "4730440220299d503d7a5c5daf06df2190e72744a7e2516a06fedb8022fa029c474854b42902202e3f0f7b1d16c2bae1dc6b92ffb796c1eb4d65577432037f5f995411b124c12b012102d7c92082870ec548afdd9a7a3c7af861b077fef10e6f303b8a54301d0374001e", "asm": "30440220299d503d7a5c5daf06df2190e72744a7e2516a06fedb8022fa029c474854b42902202e3f0f7b1d16c2bae1dc6b92ffb796c1eb4d65577432037f5f995411b124c12b[ALL] 02d7c92082870ec548afdd9a7a3c7af861b077fef10e6f303b8a54301d0374001e"}, "vout": 1, "txid": "01288e02bff0a0c94da2d5d7ba271ef5036ca94894a0d5a64fc26eed3490e322"}], "txid": "0c6c86ae6936993829c7beabe49564cb6b60984250f587e2f748156eacf2988f", "blocktime": 1537873891, "version": 1, "confirmations": 11478, "time": 1537873891, "locktime": 0, "vsize": 283, "size": 283}