{"hash": "0c6fd39b43f2319e65d718e18d716fd3036a4512ff1d920aedbc5bb9abdf49a9", "blockhash": "0000000000000000001cda96e906b7601b7a6fb1a3b62bca570a9e5d8f4b3de1", "vout": [{"scriptPubKey": {"reqSigs": 1, "hex": "76a9141c2eb093c6b26638879aa8e4e3d2e1a422e5325488ac", "addresses": ["13a1rS5EdPVXcx125aA3L9hFqyFe4idh4h"], "asm": "OP_DUP OP_HASH160 1c2eb093c6b26638879aa8e4e3d2e1a422e53254 OP_EQUALVERIFY OP_CHECKSIG", "type": "pubkeyhash"}, "value": 0.022503, "n": 0}, {"scriptPubKey": {"reqSigs": 1, "hex": "a91458220dcd4bfcee2690dc1fd1ea2978e8a3f5bf4e87", "addresses": ["39j2BXpivK9ZGpNtJmcZAyh9rwpw1aV7c5"], "asm": "OP_HASH160 58220dcd4bfcee2690dc1fd1ea2978e8a3f5bf4e OP_EQUAL", "type": "scripthash"}, "value": 0.04, "n": 1}], "hex": "0100000001b541192578b28d43375d83e856d7e07ae68b9aeca82992e41cae64a2428f8bd7010000006a4730440220536c380ed1924016db036268d00eb303874de1f25f6fd086dbc1a724381dbe18022006b478ea11a7941bac7c535464e5a1bef58de0efad4bbc9594e3b6be85c44735012102aa1f079e2a5cf0ecc963a9ee04bd63bcf48b8746d351906dc449ba751b16a7d2feffffff023c562200000000001976a9141c2eb093c6b26638879aa8e4e3d2e1a422e5325488ac00093d000000000017a91458220dcd4bfcee2690dc1fd1ea2978e8a3f5bf4e8713490800", "vin": [{"sequence": 4294967294, "scriptSig": {"hex": "4730440220536c380ed1924016db036268d00eb303874de1f25f6fd086dbc1a724381dbe18022006b478ea11a7941bac7c535464e5a1bef58de0efad4bbc9594e3b6be85c44735012102aa1f079e2a5cf0ecc963a9ee04bd63bcf48b8746d351906dc449ba751b16a7d2", "asm": "30440220536c380ed1924016db036268d00eb303874de1f25f6fd086dbc1a724381dbe18022006b478ea11a7941bac7c535464e5a1bef58de0efad4bbc9594e3b6be85c44735[ALL] 02aa1f079e2a5cf0ecc963a9ee04bd63bcf48b8746d351906dc449ba751b16a7d2"}, "vout": 1, "txid": "d78b8f42a264ae1ce49229a8ec9a8be67ae0d756e8835d37438db278251941b5"}], "txid": "0c6fd39b43f2319e65d718e18d716fd3036a4512ff1d920aedbc5bb9abdf49a9", "blocktime": 1537873282, "version": 1, "confirmations": 11480, "time": 1537873282, "locktime": 542995, "vsize": 223, "size": 223}