{"hash": "0c7792ef874b944da61179d1ecf325f030b42215adc2766cc217ec895b64a2d3", "blockhash": "000000000000000000022b45ed06c6f4ccd3cf7fb5ba4856ebd2e58215665228", "vout": [{"scriptPubKey": {"reqSigs": 1, "hex": "a914fd34e9f5180d43a48776b80286c056e93d549a8d87", "addresses": ["3QmrGbgdUXvJCpswZjcTrBgB1E7PkJbx73"], "asm": "OP_HASH160 fd34e9f5180d43a48776b80286c056e93d549a8d OP_EQUAL", "type": "scripthash"}, "value": 0.00467804, "n": 0}, {"scriptPubKey": {"reqSigs": 1, "hex": "76a91408389e46011889547b3b19c2aff9958c8adccc8988ac", "addresses": ["1kUESXD25LeCoescdVzHhBHyaLnL1wBnL"], "asm": "OP_DUP OP_HASH160 08389e46011889547b3b19c2aff9958c8adccc89 OP_EQUALVERIFY OP_CHECKSIG", "type": "pubkeyhash"}, "value": 0.03599851, "n": 1}], "hex": "01000000017d74ceecd9c43ea63738729077de00f443c5188950f3f2092182bb8e3980c274010000006a47304402203bccde4ae58f93a13e8cd04fc9b6ce42e6a6eefc13be8bc61b9478356a50511102201037fc156519ad6ea36685ea5e32420d72624fd38547b502fd405c2d1d9c6f4401210360c3257bd36b671154ee443fa9fd8bd18fe6bdbe3fa7cd831948180995cb9b7cffffffff025c2307000000000017a914fd34e9f5180d43a48776b80286c056e93d549a8d87ebed3600000000001976a91408389e46011889547b3b19c2aff9958c8adccc8988ac00000000", "vin": [{"sequence": 4294967295, "scriptSig": {"hex": "47304402203bccde4ae58f93a13e8cd04fc9b6ce42e6a6eefc13be8bc61b9478356a50511102201037fc156519ad6ea36685ea5e32420d72624fd38547b502fd405c2d1d9c6f4401210360c3257bd36b671154ee443fa9fd8bd18fe6bdbe3fa7cd831948180995cb9b7c", "asm": "304402203bccde4ae58f93a13e8cd04fc9b6ce42e6a6eefc13be8bc61b9478356a50511102201037fc156519ad6ea36685ea5e32420d72624fd38547b502fd405c2d1d9c6f44[ALL] 0360c3257bd36b671154ee443fa9fd8bd18fe6bdbe3fa7cd831948180995cb9b7c"}, "vout": 1, "txid": "74c280398ebb822109f2f3508918c543f400de7790723837a63ec4d9ecce747d"}], "txid": "0c7792ef874b944da61179d1ecf325f030b42215adc2766cc217ec895b64a2d3", "blocktime": 1537869901, "version": 1, "confirmations": 11522, "time": 1537869901, "locktime": 0, "vsize": 223, "size": 223}