{"hash": "e3b7c7670162411e94b166a5fd7a8d4654ca246f8f5399387237590272ea0323", "blockhash": "0000000000000000001f0ddff1eddb255c1121bcd4da4f1bc9a0da00cae72433", "vout": [{"scriptPubKey": {"reqSigs": 1, "hex": "a914f11d0fc3766e6f27f624422365c87b473aeffdec87", "addresses": ["3Pfub1TCPRr3CRdJatMBC8h9oX4Weg5x87"], "asm": "OP_HASH160 f11d0fc3766e6f27f624422365c87b473aeffdec OP_EQUAL", "type": "scripthash"}, "value": 1.3695, "n": 0}, {"scriptPubKey": {"reqSigs": 1, "hex": "a9149d78b2066cd99c43f838e48506bcbf646c40754087", "addresses": ["3G3ebj24riBERfADuygDrJSNgQwcF8efHm"], "asm": "OP_HASH160 9d78b2066cd99c43f838e48506bcbf646c407540 OP_EQUAL", "type": "scripthash"}, "value": 222.01984959, "n": 1}], "hex": "02000000000101e91c5da3191d5b6b1215677ea79d8f9cd1c67770a44473b36b9d089d1cce025c0000000017160014ae1a4cbd7800e4a070f6622c8a635c61feb50bdffeffffff02f0b029080000000017a914f11d0fc3766e6f27f624422365c87b473aeffdec87bf67572b0500000017a9149d78b2066cd99c43f838e48506bcbf646c4075408702473044022041f0d4afa9ddbc63a49dd147fa750d63cf97428ca1cc40859048e916208871260220076662c5a25c6bbdeac530ee741397e7b387fcf85df0eeadf8d484352cc3cf650121028f9dcb5631160a18762fef9533ef789ebc23e6001eef8c983a3ce33150abc8c911490800", "vin": [{"txinwitness": ["3044022041f0d4afa9ddbc63a49dd147fa750d63cf97428ca1cc40859048e916208871260220076662c5a25c6bbdeac530ee741397e7b387fcf85df0eeadf8d484352cc3cf6501", "028f9dcb5631160a18762fef9533ef789ebc23e6001eef8c983a3ce33150abc8c9"], "sequence": 4294967294, "scriptSig": {"hex": "160014ae1a4cbd7800e4a070f6622c8a635c61feb50bdf", "asm": "0014ae1a4cbd7800e4a070f6622c8a635c61feb50bdf"}, "vout": 0, "txid": "5c02ce1c9d089d6bb37344a47077c6d19c8f9da77e6715126b5b1d19a35d1ce9"}], "txid": "0c7e70a89165622b72c6e49a2a3c093a295902b15243d8ce39afea639365e477", "blocktime": 1537872018, "version": 2, "confirmations": 11489, "time": 1537872018, "locktime": 542993, "vsize": 166, "size": 247}