{"hash": "ba2774987dade2682d86f405ef5cfa060cec89eb653f57d68df4690875c6efd3", "blockhash": "00000000000000000024a2167bbff67b0be802c0b01cdd79e6331c2be6459f87", "vout": [{"scriptPubKey": {"reqSigs": 1, "hex": "a91407e21896d4480b62b98f5711fb237970d919693987", "addresses": ["32QhWKG2RSS5enwRmN6EPXYDzDu8VAoSEo"], "asm": "OP_HASH160 07e21896d4480b62b98f5711fb237970d9196939 OP_EQUAL", "type": "scripthash"}, "value": 0.0207555, "n": 0}, {"scriptPubKey": {"reqSigs": 1, "hex": "76a914b225455d7f42fd9db9ebd5e276b27b9982c4cfa888ac", "addresses": ["1HEwvn652ycBECxxjsAzgMkbHBofsHQrS3"], "asm": "OP_DUP OP_HASH160 b225455d7f42fd9db9ebd5e276b27b9982c4cfa8 OP_EQUALVERIFY OP_CHECKSIG", "type": "pubkeyhash"}, "value": 0.02138726, "n": 1}], "hex": "0200000000010295c31ade6cc0ad276c243e68ba6e3a74d7d1141ce001742dc4a3edd75e5fa2820000000017160014f198881540aa15429ea10fb8c784fd578862a929feffffffb9da83a2badfa7ac85df31e50702da16f260163aca943d65398a69ff91ede47e010000001716001489e82bd77f674261a7889142460819d04f4aefe0feffffff029eab1f000000000017a91407e21896d4480b62b98f5711fb237970d91969398766a22000000000001976a914b225455d7f42fd9db9ebd5e276b27b9982c4cfa888ac02483045022100efd3dfd3fe7faa02ff64ebca880c60c0b6e707d456ca47f24a61522665d9cc4b02206a05fdc4e799094f841b815639848a6228571a7547580b812c37ac85af9007a0012102e2dccf70f976607f825fbd230ca3f7315c3d55f2768204a33d1251ec10076ddc024830450221009e080e683d955f074ead2a66b1a916bd66bfb94fed8596be1a59b7cf817fac5b022004e4eeaee8e521ab28a979f3566e0adb7a8ca38c01e3d535f9b9b746e2f49f6f0121036dbb35e155de918bc43dcdadc1281287496e2bc56ca6fbbe9ad6505798f30d680d490800", "vin": [{"txinwitness": ["3045022100efd3dfd3fe7faa02ff64ebca880c60c0b6e707d456ca47f24a61522665d9cc4b02206a05fdc4e799094f841b815639848a6228571a7547580b812c37ac85af9007a001", "02e2dccf70f976607f825fbd230ca3f7315c3d55f2768204a33d1251ec10076ddc"], "sequence": 4294967294, "scriptSig": {"hex": "160014f198881540aa15429ea10fb8c784fd578862a929", "asm": "0014f198881540aa15429ea10fb8c784fd578862a929"}, "vout": 0, "txid": "82a25f5ed7eda3c42d7401e01c14d1d7743a6eba683e246c27adc06cde1ac395"}, {"txinwitness": ["30450221009e080e683d955f074ead2a66b1a916bd66bfb94fed8596be1a59b7cf817fac5b022004e4eeaee8e521ab28a979f3566e0adb7a8ca38c01e3d535f9b9b746e2f49f6f01", "036dbb35e155de918bc43dcdadc1281287496e2bc56ca6fbbe9ad6505798f30d68"], "sequence": 4294967294, "scriptSig": {"hex": "16001489e82bd77f674261a7889142460819d04f4aefe0", "asm": "001489e82bd77f674261a7889142460819d04f4aefe0"}, "vout": 1, "txid": "7ee4ed91ff698a39653d94ca3a1660f216da0207e531df85aca7dfbaa283dab9"}], "txid": "0c7faa33da480718003b1d66fba6f0826e38394dedadcd0fb0e57e95cf394cc5", "blocktime": 1537870564, "version": 2, "confirmations": 11515, "time": 1537870564, "locktime": 542989, "vsize": 259, "size": 422}