{"hash": "dd1fa91d3d548b8ce5c7e5dd7b56609b735a651525eb2521d489e321615b5950", "blockhash": "00000000000000000017f5eb5941039fbcee6240d03bc1f2f8e35350df66a1d8", "vout": [{"scriptPubKey": {"reqSigs": 1, "hex": "76a9141f7045cc4c08e60d357a5f3cfe85728ac554321b88ac", "addresses": ["13sESnetKfdr7qFhH8JkqM2EzYVMWE1RJr"], "asm": "OP_DUP OP_HASH160 1f7045cc4c08e60d357a5f3cfe85728ac554321b OP_EQUALVERIFY OP_CHECKSIG", "type": "pubkeyhash"}, "value": 0.1005, "n": 0}, {"scriptPubKey": {"reqSigs": 1, "hex": "0014c0190527449d008472c4c0d6daf7555eca5e4a24", "addresses": ["bc1qcqvs2f6yn5qggukycrtd4a64tm99uj3y8ercfz"], "asm": "0 c0190527449d008472c4c0d6daf7555eca5e4a24", "type": "witness_v0_keyhash"}, "value": 0.36680389, "n": 1}], "hex": "01000000000101de65fcf8ad0b9bef1a2665cb762fd8ed715b289c7a25245019386291a516ec7d0000000000ffffffff02d0599900000000001976a9141f7045cc4c08e60d357a5f3cfe85728ac554321b88acc5b22f0200000000160014c0190527449d008472c4c0d6daf7555eca5e4a2402483045022100d801571e220d9850362b064589c31480ae141036ade3fd808b55425f6e4f18e30220081eefce5dffe9e09144f2cc20cf8a4ca2c5220f58a419ddcfe69ce3c1c29a3e012103bcf9ae882a71a0af904d5ce0e85c44a9ffa2ca5d0627db79d5cede9e9620c49d00000000", "vin": [{"txinwitness": ["3045022100d801571e220d9850362b064589c31480ae141036ade3fd808b55425f6e4f18e30220081eefce5dffe9e09144f2cc20cf8a4ca2c5220f58a419ddcfe69ce3c1c29a3e01", "03bcf9ae882a71a0af904d5ce0e85c44a9ffa2ca5d0627db79d5cede9e9620c49d"], "sequence": 4294967295, "scriptSig": {"hex": "", "asm": ""}, "vout": 0, "txid": "7dec16a5916238195024257a9c285b71edd82f76cb65261aef9b0badf8fc65de"}], "txid": "0c8136fb2a6371f11e918bc708857b040e06365bf23c4fa942a25b75a0819390", "blocktime": 1537874412, "version": 1, "confirmations": 11467, "time": 1537874412, "locktime": 0, "vsize": 144, "size": 226}