{"hash": "0c86cfb4e79635971154754ec7659ca2fb394efb25ce151a6b58808f77029e6b", "blockhash": "00000000000000000018f53835495a110e01622372bf6ae95dc86f2b0ab887b0", "vout": [{"scriptPubKey": {"reqSigs": 1, "hex": "76a9143c0ae664a2171a304d2237d87fe8b329304e899d88ac", "addresses": ["16UUbrVGF6okPdfKxw9VGTkf4SMUYiXg7B"], "asm": "OP_DUP OP_HASH160 3c0ae664a2171a304d2237d87fe8b329304e899d OP_EQUALVERIFY OP_CHECKSIG", "type": "pubkeyhash"}, "value": 0.0014692, "n": 0}, {"scriptPubKey": {"type": "nulldata", "hex": "6a4c50000077810001ff1c0bec365306f189a5c1f2bcbefa6b8351586b4e86aeaeacb577c031fca0890c5975127e9f5c77f48d6206b15c5baa0ad906143fe9098cd302bc9a9526289ac0f6612cd74e33776ee4", "asm": "OP_RETURN 000077810001ff1c0bec365306f189a5c1f2bcbefa6b8351586b4e86aeaeacb577c031fca0890c5975127e9f5c77f48d6206b15c5baa0ad906143fe9098cd302bc9a9526289ac0f6612cd74e33776ee4"}, "value": 0.0, "n": 1}], "hex": "01000000012ba0075fd78a88cc1f08ead105d640aafe747b529409cc58e3ed6be4c3be4c7b000000006a4730440220350a2b526420b77ea26a1891b6588c008f360f9058eb79aeb2d9a33cdf9b0fee02202c3c4d47f1e93634465c7b39cb3762dac379e496d0d98d35390e386800bcf4120121024cfbec34b180ba4271328fa9269881c551acfaf523d30dbf449b002a2da26aaaffffffff02e83d0200000000001976a9143c0ae664a2171a304d2237d87fe8b329304e899d88ac0000000000000000536a4c50000077810001ff1c0bec365306f189a5c1f2bcbefa6b8351586b4e86aeaeacb577c031fca0890c5975127e9f5c77f48d6206b15c5baa0ad906143fe9098cd302bc9a9526289ac0f6612cd74e33776ee400000000", "vin": [{"sequence": 4294967295, "scriptSig": {"hex": "4730440220350a2b526420b77ea26a1891b6588c008f360f9058eb79aeb2d9a33cdf9b0fee02202c3c4d47f1e93634465c7b39cb3762dac379e496d0d98d35390e386800bcf4120121024cfbec34b180ba4271328fa9269881c551acfaf523d30dbf449b002a2da26aaa", "asm": "30440220350a2b526420b77ea26a1891b6588c008f360f9058eb79aeb2d9a33cdf9b0fee02202c3c4d47f1e93634465c7b39cb3762dac379e496d0d98d35390e386800bcf412[ALL] 024cfbec34b180ba4271328fa9269881c551acfaf523d30dbf449b002a2da26aaa"}, "vout": 0, "txid": "7b4cbec3e46bede358cc0994527b74feaa40d605d1ea081fcc888ad75f07a02b"}], "txid": "0c86cfb4e79635971154754ec7659ca2fb394efb25ce151a6b58808f77029e6b", "blocktime": 1537870928, "version": 1, "confirmations": 11512, "time": 1537870928, "locktime": 0, "vsize": 283, "size": 283}