{"hash": "0c8da9a062078a550ee313f314dc19f9ef9f732a50356e7feb0f24cecf48aae4", "blockhash": "0000000000000000000dcc0f55137456b1a82d3642486a52398922ac4d620174", "vout": [{"scriptPubKey": {"reqSigs": 1, "hex": "76a914d243e6abb9a60fbff430b421d2df4b7d59ec186088ac", "addresses": ["1LAnF8h3qMGx3TSwNUHVneBZUEpwE4gu3D"], "asm": "OP_DUP OP_HASH160 d243e6abb9a60fbff430b421d2df4b7d59ec1860 OP_EQUALVERIFY OP_CHECKSIG", "type": "pubkeyhash"}, "value": 0.00076972, "n": 0}, {"scriptPubKey": {"reqSigs": 1, "hex": "76a9143851f34d13937b673a7d24a1950bb5b21ce94af388ac", "addresses": ["168o1kqNquEJeR9vosUB5fw4eAwcVAgh8P"], "asm": "OP_DUP OP_HASH160 3851f34d13937b673a7d24a1950bb5b21ce94af3 OP_EQUALVERIFY OP_CHECKSIG", "type": "pubkeyhash"}, "value": 5.46e-06, "n": 1}, {"scriptPubKey": {"type": "nulldata", "hex": "6a146f6d6e69000000000000001f000001cd3ccd2200", "asm": "OP_RETURN 6f6d6e69000000000000001f000001cd3ccd2200"}, "value": 0.0, "n": 2}], "hex": "0100000002a30b54f63cf3eeb2e0975a0f329423e8ef31fd9927918e5ba0e0f9c29d83892e020000006b483045022100f54d1521b776422faa341a6ae860a37994a2562ba7d4c576d36e1551673d4dbc02205f16c8722baa254c23d45611a77e3aaac3353a6cea3ac8bbf73bb7cd4383bac10121027384ae969dcf1abe22d7042f02355b456c93159c8c5260176bd88e04749ab8dbffffffff84201895474fb3dc061e43b8c0f7d09084152905d0a85c8d3c3bb7c2492cab79000000006b483045022100ca03436537b9024409eada25a4e704a95bba84ca22ecd9a3a38c7e855983bf3402205b87d4326e608a21fd2db127032b67388685aac93d1aa57d9455761526a9a03e01210271977291b74f1f5f5c42157e8aae804664eaaeccfd097918450d37f28fb94d77ffffffff03ac2c0100000000001976a914d243e6abb9a60fbff430b421d2df4b7d59ec186088ac22020000000000001976a9143851f34d13937b673a7d24a1950bb5b21ce94af388ac0000000000000000166a146f6d6e69000000000000001f000001cd3ccd220000000000", "vin": [{"sequence": 4294967295, "scriptSig": {"hex": "483045022100f54d1521b776422faa341a6ae860a37994a2562ba7d4c576d36e1551673d4dbc02205f16c8722baa254c23d45611a77e3aaac3353a6cea3ac8bbf73bb7cd4383bac10121027384ae969dcf1abe22d7042f02355b456c93159c8c5260176bd88e04749ab8db", "asm": "3045022100f54d1521b776422faa341a6ae860a37994a2562ba7d4c576d36e1551673d4dbc02205f16c8722baa254c23d45611a77e3aaac3353a6cea3ac8bbf73bb7cd4383bac1[ALL] 027384ae969dcf1abe22d7042f02355b456c93159c8c5260176bd88e04749ab8db"}, "vout": 2, "txid": "2e89839dc2f9e0a05b8e912799fd31efe82394320f5a97e0b2eef33cf6540ba3"}, {"sequence": 4294967295, "scriptSig": {"hex": "483045022100ca03436537b9024409eada25a4e704a95bba84ca22ecd9a3a38c7e855983bf3402205b87d4326e608a21fd2db127032b67388685aac93d1aa57d9455761526a9a03e01210271977291b74f1f5f5c42157e8aae804664eaaeccfd097918450d37f28fb94d77", "asm": "3045022100ca03436537b9024409eada25a4e704a95bba84ca22ecd9a3a38c7e855983bf3402205b87d4326e608a21fd2db127032b67388685aac93d1aa57d9455761526a9a03e[ALL] 0271977291b74f1f5f5c42157e8aae804664eaaeccfd097918450d37f28fb94d77"}, "vout": 0, "txid": "79ab2c49c2b73b3c8d5ca8d00529158490d0f7c0b8431e06dcb34f4795182084"}], "txid": "0c8da9a062078a550ee313f314dc19f9ef9f732a50356e7feb0f24cecf48aae4", "blocktime": 1537870268, "version": 1, "confirmations": 11516, "time": 1537870268, "locktime": 0, "vsize": 405, "size": 405}