{"hash": "5d3c27dd92698acac5462fa0cb90b8e44b99729fbd0aba70932942c52786571a", "blockhash": "0000000000000000000baef3f32e3676a92c3b2e5da21b426e4f302fc371ce76", "vout": [{"scriptPubKey": {"reqSigs": 1, "hex": "a91469f37412cb5d307a5b5e1df8efb53eef03d7a7ee87", "addresses": ["3BMEX8EbAjh4AJtXRtMcBTSwAWcNemd4zd"], "asm": "OP_HASH160 69f37412cb5d307a5b5e1df8efb53eef03d7a7ee OP_EQUAL", "type": "scripthash"}, "value": 0.01803645, "n": 0}, {"scriptPubKey": {"reqSigs": 1, "hex": "a91469f3771665425151caadc512f2bfb6596ffcee6487", "addresses": ["3BMEXwgWjCECYzJVA49TJkbQAgecth6z3w"], "asm": "OP_HASH160 69f3771665425151caadc512f2bfb6596ffcee64 OP_EQUAL", "type": "scripthash"}, "value": 0.003, "n": 1}, {"scriptPubKey": {"reqSigs": 1, "hex": "a914831692f24b4c081a83a02355bd62014616ed90d387", "addresses": ["3De9V9G4NPAiMRSZBm9VEXSvw3Jxxz5PCv"], "asm": "OP_HASH160 831692f24b4c081a83a02355bd62014616ed90d3 OP_EQUAL", "type": "scripthash"}, "value": 0.00985228, "n": 2}, {"scriptPubKey": {"reqSigs": 1, "hex": "a9148e06691a48485e8e71c256f1f6cb197b2f831c6387", "addresses": ["3EdyZCNyAxxwKV1beb3KMMrnRdMRr7bSnW"], "asm": "OP_HASH160 8e06691a48485e8e71c256f1f6cb197b2f831c63 OP_EQUAL", "type": "scripthash"}, "value": 0.09836632, "n": 3}, {"scriptPubKey": {"reqSigs": 1, "hex": "a914ff9e22f60cf3062832ed63da4d9a22d0bf9b561687", "addresses": ["3Qzbfyu3hxJzuH7nEDehRZxiskaxgeVwet"], "asm": "OP_HASH160 ff9e22f60cf3062832ed63da4d9a22d0bf9b5616 OP_EQUAL", "type": "scripthash"}, "value": 0.02130522, "n": 4}, {"scriptPubKey": {"reqSigs": 1, "hex": "a914401ee8f3e37f1ad91eb655cf738165754e01bb3587", "addresses": ["37Y4CUzJWPjrJQboqdoMZebQYY4Mheauoh"], "asm": "OP_HASH160 401ee8f3e37f1ad91eb655cf738165754e01bb35 OP_EQUAL", "type": "scripthash"}, "value": 0.10083279, "n": 5}, {"scriptPubKey": {"reqSigs": 1, "hex": "76a9149b33ed60d272fe1a245a56149864a53e704d4dcb88ac", "addresses": ["1F9dwhmYfWcGyL8qn3o8ZKCDkLxqbapPzL"], "asm": "OP_DUP OP_HASH160 9b33ed60d272fe1a245a56149864a53e704d4dcb OP_EQUALVERIFY OP_CHECKSIG", "type": "pubkeyhash"}, "value": 0.04533437, "n": 6}, {"scriptPubKey": {"reqSigs": 1, "hex": "76a91413a42d35ff8a783c2d8652aa303178ca6c75ae9988ac", "addresses": ["12nrWqSupf8GbrwzZqdANgpDVTwcWyuX2g"], "asm": "OP_DUP OP_HASH160 13a42d35ff8a783c2d8652aa303178ca6c75ae99 OP_EQUALVERIFY OP_CHECKSIG", "type": "pubkeyhash"}, "value": 0.0180404, "n": 7}, {"scriptPubKey": {"reqSigs": 1, "hex": "76a914e883d92ca61a0e62cb6d91d31c4e2c7a415da4c888ac", "addresses": ["1NCRiVHoKVMbaBNwdxEp7w7xuufVCRd2pF"], "asm": "OP_DUP OP_HASH160 e883d92ca61a0e62cb6d91d31c4e2c7a415da4c8 OP_EQUALVERIFY OP_CHECKSIG", "type": "pubkeyhash"}, "value": 0.01804029, "n": 8}], "hex": "020000000001020cde4abe54d2ba4bfef548cc8884bfc5002a919ed5959672e6f7f86b47cf7f400000000017160014342ed65d6ca4e3c7dd980199948adbe45641e622fdfffffffdcdb89ba31f25b54b9ca7fdfa602ff0bf5c49bbdeaf05c44cf72dbfc72ed4a20300000017160014ffd0725637c759564c23adea6cd4882961ac9d68fdffffff097d851b000000000017a91469f37412cb5d307a5b5e1df8efb53eef03d7a7ee87e09304000000000017a91469f3771665425151caadc512f2bfb6596ffcee64878c080f000000000017a914831692f24b4c081a83a02355bd62014616ed90d387581896000000000017a9148e06691a48485e8e71c256f1f6cb197b2f831c63875a8220000000000017a914ff9e22f60cf3062832ed63da4d9a22d0bf9b561687cfdb99000000000017a914401ee8f3e37f1ad91eb655cf738165754e01bb3587bd2c4500000000001976a9149b33ed60d272fe1a245a56149864a53e704d4dcb88ac08871b00000000001976a91413a42d35ff8a783c2d8652aa303178ca6c75ae9988acfd861b00000000001976a914e883d92ca61a0e62cb6d91d31c4e2c7a415da4c888ac0247304402206cf2379bb6e44813f3ce5daa7f97f395a910a54873c9f5ead4145fd7efd3b97d02206942c9c7a2dc2f2a5e80dfae9b140e3a2a96ecd13109c483fe6af42aac0fc42e01210337a84d284c841eaf72b53da882a5f8ca83a5cba580fee5a64d32bc2431c21602024830450221009e66be0ddda8eadf68694cc7ced94d8d189d3453153cc93d529de3c71bbcbdbd022046cec3729afaf0f5a571175da1ebc1b3b14882441ec457dc83d408e68c038b42012102dc7d2038d1463c08fa60c6e765cddfb5caefa96ab45449763f3a82c6a084889316490800", "vin": [{"txinwitness": ["304402206cf2379bb6e44813f3ce5daa7f97f395a910a54873c9f5ead4145fd7efd3b97d02206942c9c7a2dc2f2a5e80dfae9b140e3a2a96ecd13109c483fe6af42aac0fc42e01", "0337a84d284c841eaf72b53da882a5f8ca83a5cba580fee5a64d32bc2431c21602"], "sequence": 4294967293, "scriptSig": {"hex": "160014342ed65d6ca4e3c7dd980199948adbe45641e622", "asm": "0014342ed65d6ca4e3c7dd980199948adbe45641e622"}, "vout": 0, "txid": "407fcf476bf8f7e6729695d59e912a00c5bf8488cc48f5fe4bbad254be4ade0c"}, {"txinwitness": ["30450221009e66be0ddda8eadf68694cc7ced94d8d189d3453153cc93d529de3c71bbcbdbd022046cec3729afaf0f5a571175da1ebc1b3b14882441ec457dc83d408e68c038b4201", "02dc7d2038d1463c08fa60c6e765cddfb5caefa96ab45449763f3a82c6a0848893"], "sequence": 4294967293, "scriptSig": {"hex": "160014ffd0725637c759564c23adea6cd4882961ac9d68", "asm": "0014ffd0725637c759564c23adea6cd4882961ac9d68"}, "vout": 3, "txid": "a2d42ec7bf2df74cc405afdebb495cbff02f60fafda79c4bb5251fa39bb8cdfd"}], "txid": "0c9396dd55ef173b339a9ab988eb7e2fab3466db4dff154a72a8f357efe4839d", "blocktime": 1537876114, "version": 2, "confirmations": 11460, "time": 1537876114, "locktime": 542998, "vsize": 487, "size": 649}