{"hash": "0c97dd7de286d8ad204b0bd933754298f8352f6422443f4916d81b4f22d825e5", "blockhash": "0000000000000000001e0dab787dd257d1dbfcb92a98c2207d5e1078be1f4165", "vout": [{"scriptPubKey": {"reqSigs": 1, "hex": "76a91482f3c80f00f4e26de6b74393403047b83897d2fc88ac", "addresses": ["1CwQtAyofNCvy58TCF1dJ2QNxjHEjBgJB4"], "asm": "OP_DUP OP_HASH160 82f3c80f00f4e26de6b74393403047b83897d2fc OP_EQUALVERIFY OP_CHECKSIG", "type": "pubkeyhash"}, "value": 5.656e-05, "n": 0}, {"scriptPubKey": {"reqSigs": 1, "hex": "76a914ec9bfce70884fcf31776ded9a153186dd268772388ac", "addresses": ["1Na5LW5NFWHqYWzmNqn3cJCpCmXpSG3TD4"], "asm": "OP_DUP OP_HASH160 ec9bfce70884fcf31776ded9a153186dd2687723 OP_EQUALVERIFY OP_CHECKSIG", "type": "pubkeyhash"}, "value": 0.0089049, "n": 1}], "hex": "01000000043fa6d7a7719d2c670d6f3a25eba83809348f98031f74595752f1f0dc31e1eb1c000000006a47304402202a4b4e510f8524800ee5be9f84980f232decfd968da4ff1ad9cab66668924cd802204918ca8b7241d032006b32353ba815d826f12d67424a450370aa56f3e421f64f0121028687b89bb1fe1da13766f7c8dccc275f438eba0bc0f07716ede13431a8f51501ffffffffefe99abe40f8779a93ae12fe874799aa348c16bb60aca81cfa982d8fb956e227000000006a47304402204946711b911cf91cc43163cf5501f58b94d24232f9ef56f827878d1398449aa902205f01719bb2750a9aeeaa39c3033b0b1e2ee590a92b93de72083f1aac13305b270121020779ff89e031782ee79252cf69346e3bf42b3be199f46fbd2cb0e040c94edc1fffffffff0fd99ea9558fb0d3c861a7305c4ea18d87557047121c74fa3342e621e69d3f5b010000006a47304402202f3b0130468bbf694390c8e6115036018b54e9a0289c8e160008d19fc8c589b202201753d2c905ce0c0ffa9decafeaa7fb21568b26a81e91fd6d72ca81f2e6f805f0012103b401b7c88b5b7635068d20d55cc5b1f5ab2f5faaf67b63d68ff44505f13f9f17ffffffff3ae38172e46a4ebff366e9edb06eb5aac13d982f184f989ab2a060bda8ea516c000000006a473044022046e4857754b562a76bbf78d8dbef58581492b32078dabf3ee5594b21a58e352b022006e6a3980aab9261e89dd33b77759c10551671890f72b2687a2b6b13b0ade8ab0121034ba13a703c6a13d4ea95523f6afde938f88048c7bffd8db2887d77bc15b06b25ffffffff0218160000000000001976a91482f3c80f00f4e26de6b74393403047b83897d2fc88ac7a960d00000000001976a914ec9bfce70884fcf31776ded9a153186dd268772388ac00000000", "vin": [{"sequence": 4294967295, "scriptSig": {"hex": "47304402202a4b4e510f8524800ee5be9f84980f232decfd968da4ff1ad9cab66668924cd802204918ca8b7241d032006b32353ba815d826f12d67424a450370aa56f3e421f64f0121028687b89bb1fe1da13766f7c8dccc275f438eba0bc0f07716ede13431a8f51501", "asm": "304402202a4b4e510f8524800ee5be9f84980f232decfd968da4ff1ad9cab66668924cd802204918ca8b7241d032006b32353ba815d826f12d67424a450370aa56f3e421f64f[ALL] 028687b89bb1fe1da13766f7c8dccc275f438eba0bc0f07716ede13431a8f51501"}, "vout": 0, "txid": "1cebe131dcf0f1525759741f03988f340938a8eb253a6f0d672c9d71a7d7a63f"}, {"sequence": 4294967295, "scriptSig": {"hex": "47304402204946711b911cf91cc43163cf5501f58b94d24232f9ef56f827878d1398449aa902205f01719bb2750a9aeeaa39c3033b0b1e2ee590a92b93de72083f1aac13305b270121020779ff89e031782ee79252cf69346e3bf42b3be199f46fbd2cb0e040c94edc1f", "asm": "304402204946711b911cf91cc43163cf5501f58b94d24232f9ef56f827878d1398449aa902205f01719bb2750a9aeeaa39c3033b0b1e2ee590a92b93de72083f1aac13305b27[ALL] 020779ff89e031782ee79252cf69346e3bf42b3be199f46fbd2cb0e040c94edc1f"}, "vout": 0, "txid": "27e256b98f2d98fa1ca8ac60bb168c34aa994787fe12ae939a77f840be9ae9ef"}, {"sequence": 4294967295, "scriptSig": {"hex": "47304402202f3b0130468bbf694390c8e6115036018b54e9a0289c8e160008d19fc8c589b202201753d2c905ce0c0ffa9decafeaa7fb21568b26a81e91fd6d72ca81f2e6f805f0012103b401b7c88b5b7635068d20d55cc5b1f5ab2f5faaf67b63d68ff44505f13f9f17", "asm": "304402202f3b0130468bbf694390c8e6115036018b54e9a0289c8e160008d19fc8c589b202201753d2c905ce0c0ffa9decafeaa7fb21568b26a81e91fd6d72ca81f2e6f805f0[ALL] 03b401b7c88b5b7635068d20d55cc5b1f5ab2f5faaf67b63d68ff44505f13f9f17"}, "vout": 1, "txid": "5b3f9de621e64233fa741c12477055878da14e5c30a761c8d3b08f55a99ed90f"}, {"sequence": 4294967295, "scriptSig": {"hex": "473044022046e4857754b562a76bbf78d8dbef58581492b32078dabf3ee5594b21a58e352b022006e6a3980aab9261e89dd33b77759c10551671890f72b2687a2b6b13b0ade8ab0121034ba13a703c6a13d4ea95523f6afde938f88048c7bffd8db2887d77bc15b06b25", "asm": "3044022046e4857754b562a76bbf78d8dbef58581492b32078dabf3ee5594b21a58e352b022006e6a3980aab9261e89dd33b77759c10551671890f72b2687a2b6b13b0ade8ab[ALL] 034ba13a703c6a13d4ea95523f6afde938f88048c7bffd8db2887d77bc15b06b25"}, "vout": 0, "txid": "6c51eaa8bd60a0b29a984f182f983dc1aab56eb0ede966f3bf4e6ae47281e33a"}], "txid": "0c97dd7de286d8ad204b0bd933754298f8352f6422443f4916d81b4f22d825e5", "blocktime": 1537872475, "version": 1, "confirmations": 11487, "time": 1537872475, "locktime": 0, "vsize": 666, "size": 666}