{"hash": "5ef0d91ce4305d75acafeb996d820fdc8580a77ae790cdd688732f5d5c90df7c", "blockhash": "000000000000000000022b45ed06c6f4ccd3cf7fb5ba4856ebd2e58215665228", "vout": [{"scriptPubKey": {"reqSigs": 1, "hex": "a9140dc208ac4e93542fcac18b999dc894d38ad9945f87", "addresses": ["32wm9kKwV5EL8TLrNjPQt4v5iT3HziA19Y"], "asm": "OP_HASH160 0dc208ac4e93542fcac18b999dc894d38ad9945f OP_EQUAL", "type": "scripthash"}, "value": 0.01058103, "n": 0}, {"scriptPubKey": {"reqSigs": 1, "hex": "76a914ec10eddba18df61ff6413e3ae4062c9e89cdfed888ac", "addresses": ["1NXCkXfeagSmbnpCRQVNewL5uBNvLyXx7T"], "asm": "OP_DUP OP_HASH160 ec10eddba18df61ff6413e3ae4062c9e89cdfed8 OP_EQUALVERIFY OP_CHECKSIG", "type": "pubkeyhash"}, "value": 0.0036856, "n": 1}], "hex": "02000000000102aedcb7ab3b3c07b3cb384683a692390c17118e420fe482ff388306e7b04db7b50100000017160014e004e3c775fe683e10a3e5c8300965f1f0e9d5e2feffffffe3720af683bb9b1d53982cf39775f50e5fee9162ff275fdfe56131e2e379324f0e00000017160014d23930a561f9510ce704a3f57e835d7245820869feffffff02372510000000000017a9140dc208ac4e93542fcac18b999dc894d38ad9945f87b09f0500000000001976a914ec10eddba18df61ff6413e3ae4062c9e89cdfed888ac0247304402206452d77e8bbb4b487b70fd66f10beed3ca549f353da40330fa858388239ed9c30220064e925938fa47ce5d5429c8f208bb6bebf41be2ee83a113b5026586cd59c48c01210266c2b567f9180c9c7c5b1db7ee67fcedba7db38d7592e68748dd2a3d5f8ff66202473044022056ee80721c8443953787742b60530d8a24f381e6afff8d57875bd431db46938d0220458a4b616b5bd61cf2933592caa6e4335edb7b63618a0446bd66d553eadb82020121030f6d7b08278afe1e1eda08405c619fd6bbe51c92c158e31fc5b611342dc5ecef0b490800", "vin": [{"txinwitness": ["304402206452d77e8bbb4b487b70fd66f10beed3ca549f353da40330fa858388239ed9c30220064e925938fa47ce5d5429c8f208bb6bebf41be2ee83a113b5026586cd59c48c01", "0266c2b567f9180c9c7c5b1db7ee67fcedba7db38d7592e68748dd2a3d5f8ff662"], "sequence": 4294967294, "scriptSig": {"hex": "160014e004e3c775fe683e10a3e5c8300965f1f0e9d5e2", "asm": "0014e004e3c775fe683e10a3e5c8300965f1f0e9d5e2"}, "vout": 1, "txid": "b5b74db0e7068338ff82e40f428e11170c3992a6834638cbb3073c3babb7dcae"}, {"txinwitness": ["3044022056ee80721c8443953787742b60530d8a24f381e6afff8d57875bd431db46938d0220458a4b616b5bd61cf2933592caa6e4335edb7b63618a0446bd66d553eadb820201", "030f6d7b08278afe1e1eda08405c619fd6bbe51c92c158e31fc5b611342dc5ecef"], "sequence": 4294967294, "scriptSig": {"hex": "160014d23930a561f9510ce704a3f57e835d7245820869", "asm": "0014d23930a561f9510ce704a3f57e835d7245820869"}, "vout": 14, "txid": "4f3279e3e23161e5df5f27ff6291ee5f0ef57597f32c98531d9bbb83f60a72e3"}], "txid": "0ca112cccaa7732452b60399b4ed02c76242a5df5e995de6110f52e5f749c22d", "blocktime": 1537869901, "version": 2, "confirmations": 11524, "time": 1537869901, "locktime": 542987, "vsize": 258, "size": 420}