{"hash": "aa8f407d7dd09d968e1054e8c2d92f2a5346714a43444ee346713f9ee4f617e6", "blockhash": "0000000000000000000dcc0f55137456b1a82d3642486a52398922ac4d620174", "vout": [{"scriptPubKey": {"reqSigs": 1, "hex": "76a914c0486fa0bc4d6478221759aac94117ba79f9ede688ac", "addresses": ["1JXhWn24MDkXLT36XDoruKgrk2Cd8DsSr1"], "asm": "OP_DUP OP_HASH160 c0486fa0bc4d6478221759aac94117ba79f9ede6 OP_EQUALVERIFY OP_CHECKSIG", "type": "pubkeyhash"}, "value": 0.003647, "n": 0}, {"scriptPubKey": {"reqSigs": 1, "hex": "a914c6c9b15704fcfb33822cda6bbef3088b9a9d544387", "addresses": ["3Kp7LPAjFMfGPjJjzvjYLnYbtHA7SGJNzY"], "asm": "OP_HASH160 c6c9b15704fcfb33822cda6bbef3088b9a9d5443 OP_EQUAL", "type": "scripthash"}, "value": 0.100138, "n": 1}], "hex": "010000000001014e93f97ba21a25559c32af1871b37ade8ea6eb72c8d0a36a828ab704b708ced5010000002322002045fc6cf2f8fad3595d0195d94605f4ee0e5495290ea92793a302989fff546da5ffffffff029c900500000000001976a914c0486fa0bc4d6478221759aac94117ba79f9ede688ac68cc98000000000017a914c6c9b15704fcfb33822cda6bbef3088b9a9d5443870400483045022100984da66aaa6c960620e46b6c5f8400940f1e351ac5cbeb47f5d952d4dda999b9022029b3da24c5ef01acef01b77b4152fa62c89506e872e8608339db1480f2b1daf701483045022100e28dd9341ca5c94f7e64da99264339cccdf4c99f64dccbafee1821eb524e5c9b02204429753095c7db6dc2daf7e5c3275b2e10c9b5ff155a03f8fbfd5fa16ae239180169522103a2434aa59de4955493d6dc4c5a89e96331987bbd28864d2e3dddcdac2b89e693210388fc92ee82c1d199a452cfb45fd703e1b6d65c7c46118fd47272a83052c2cb7d210289b031e1c7358fb159beea7e45cfd5b2e453247fdc09a06ae357bdab826ae69f53ae00000000", "vin": [{"txinwitness": ["", "3045022100984da66aaa6c960620e46b6c5f8400940f1e351ac5cbeb47f5d952d4dda999b9022029b3da24c5ef01acef01b77b4152fa62c89506e872e8608339db1480f2b1daf701", "3045022100e28dd9341ca5c94f7e64da99264339cccdf4c99f64dccbafee1821eb524e5c9b02204429753095c7db6dc2daf7e5c3275b2e10c9b5ff155a03f8fbfd5fa16ae2391801", "522103a2434aa59de4955493d6dc4c5a89e96331987bbd28864d2e3dddcdac2b89e693210388fc92ee82c1d199a452cfb45fd703e1b6d65c7c46118fd47272a83052c2cb7d210289b031e1c7358fb159beea7e45cfd5b2e453247fdc09a06ae357bdab826ae69f53ae"], "sequence": 4294967295, "scriptSig": {"hex": "22002045fc6cf2f8fad3595d0195d94605f4ee0e5495290ea92793a302989fff546da5", "asm": "002045fc6cf2f8fad3595d0195d94605f4ee0e5495290ea92793a302989fff546da5"}, "vout": 1, "txid": "d5ce08b704b78a826aa3d0c872eba68ede7ab37118af329c55251aa27bf9934e"}], "txid": "0ca28996a1c2f72ad833d30f144c03685696711d79aff3fffcd5f5423bee28a8", "blocktime": 1537870268, "version": 1, "confirmations": 11518, "time": 1537870268, "locktime": 0, "vsize": 216, "size": 408}