{"hash": "0ca955acd0218d71dee60fd9c5a3858401e6da57232787ec4c829c12b8d9d033", "blockhash": "0000000000000000000baef3f32e3676a92c3b2e5da21b426e4f302fc371ce76", "vout": [{"scriptPubKey": {"type": "nulldata", "hex": "6a4c50000077fe0001a423e6d10f55c2ff27e7ee67d19ed074892d00f8e87af8e8e963c7cfd5b9471402dbd1898d20170305f05e061da35baa19a90613d4f52767aefdbc9a9526289ac0f6612cd74e33776ee4", "asm": "OP_RETURN 000077fe0001a423e6d10f55c2ff27e7ee67d19ed074892d00f8e87af8e8e963c7cfd5b9471402dbd1898d20170305f05e061da35baa19a90613d4f52767aefdbc9a9526289ac0f6612cd74e33776ee4"}, "value": 0.0, "n": 0}, {"scriptPubKey": {"reqSigs": 1, "hex": "76a914d87536bec70e53cbba1c15723044a53020e97b5a88ac", "addresses": ["1LjXNbb6nUZ7juFbs57oL4PKfJdvr8ecrG"], "asm": "OP_DUP OP_HASH160 d87536bec70e53cbba1c15723044a53020e97b5a OP_EQUALVERIFY OP_CHECKSIG", "type": "pubkeyhash"}, "value": 0.0147264, "n": 1}], "hex": "010000000122fa6ef31ce72f43b49512b3114f0b6bf59aa883353666fa5cd5d572f5c928db010000006b48304502210080960e88060f313398bf0ed18fff201f46e424d5ed97defdc6345c37b98cd3440220016dc308d7eb48d12761c53b8ecaaa13662508ae3138a5687eb497a899a7e1820121024ff4285e118c6b2e40e82210ae0c364c81564f1dd3616bde3d8a453ed7139d61ffffffff020000000000000000536a4c50000077fe0001a423e6d10f55c2ff27e7ee67d19ed074892d00f8e87af8e8e963c7cfd5b9471402dbd1898d20170305f05e061da35baa19a90613d4f52767aefdbc9a9526289ac0f6612cd74e33776ee480781600000000001976a914d87536bec70e53cbba1c15723044a53020e97b5a88ac00000000", "vin": [{"sequence": 4294967295, "scriptSig": {"hex": "48304502210080960e88060f313398bf0ed18fff201f46e424d5ed97defdc6345c37b98cd3440220016dc308d7eb48d12761c53b8ecaaa13662508ae3138a5687eb497a899a7e1820121024ff4285e118c6b2e40e82210ae0c364c81564f1dd3616bde3d8a453ed7139d61", "asm": "304502210080960e88060f313398bf0ed18fff201f46e424d5ed97defdc6345c37b98cd3440220016dc308d7eb48d12761c53b8ecaaa13662508ae3138a5687eb497a899a7e182[ALL] 024ff4285e118c6b2e40e82210ae0c364c81564f1dd3616bde3d8a453ed7139d61"}, "vout": 1, "txid": "db28c9f572d5d55cfa66363583a89af56b0b4f11b31295b4432fe71cf36efa22"}], "txid": "0ca955acd0218d71dee60fd9c5a3858401e6da57232787ec4c829c12b8d9d033", "blocktime": 1537876114, "version": 1, "confirmations": 11462, "time": 1537876114, "locktime": 0, "vsize": 284, "size": 284}