{"hash": "59924a6839764af798eda2ea06d631fc27932144d77dda91d5e3cf1d470a6097", "blockhash": "0000000000000000000baef3f32e3676a92c3b2e5da21b426e4f302fc371ce76", "vout": [{"scriptPubKey": {"reqSigs": 1, "hex": "76a914fe3f264ead2c238b0fbeb840138a9016586134d788ac", "addresses": ["1QBLHSSn5MP5FNV3Rzq5SpPeZaXPD36qXJ"], "asm": "OP_DUP OP_HASH160 fe3f264ead2c238b0fbeb840138a9016586134d7 OP_EQUALVERIFY OP_CHECKSIG", "type": "pubkeyhash"}, "value": 0.10932375, "n": 0}, {"scriptPubKey": {"reqSigs": 1, "hex": "a914cfaabfe8c271f99a4364b5197ba50c6cddb7adb987", "addresses": ["3Ld4M9RPwEG3VeQbHcC1PsKUndQL7VYLZP"], "asm": "OP_HASH160 cfaabfe8c271f99a4364b5197ba50c6cddb7adb9 OP_EQUAL", "type": "scripthash"}, "value": 0.22565314, "n": 1}], "hex": "0100000000010177680057e1d6dd7c2d0802a80bc1f447dc9e09bdde3dba3ec0874250f3347e6201000000232200202f7b4024602241b47d3306a6733d9889e4b6761d9f1cb82a18aa8b9ac4506e51ffffffff0297d0a600000000001976a914fe3f264ead2c238b0fbeb840138a9016586134d788acc25158010000000017a914cfaabfe8c271f99a4364b5197ba50c6cddb7adb987040047304402202ce1f70940eb4d1ce5410905bf89948c0bd980ed664f421cd3ba475af4953dcd02203ab742cf2cbc1549d3618db9ee3b1534545fa64a4e13f4c77b539f079dfaf71a01473044022060b834f8ed2552536ac9d8e2e8a059a7a4985ecc7f1cab6dfa97896eb4d9974e0220483b007999258225ec7f3ed5850b87f2958b72945f62002ebe65b3f9bbae62590147522102973cd851fecff3a20f08377b072729f303801eee1b7678668338adcaec770ec221033e4af03ed09dbd8a417ba042650d5bd1db7f14f271a8f660974e3abf1fdfa4da52ae00000000", "vin": [{"txinwitness": ["", "304402202ce1f70940eb4d1ce5410905bf89948c0bd980ed664f421cd3ba475af4953dcd02203ab742cf2cbc1549d3618db9ee3b1534545fa64a4e13f4c77b539f079dfaf71a01", "3044022060b834f8ed2552536ac9d8e2e8a059a7a4985ecc7f1cab6dfa97896eb4d9974e0220483b007999258225ec7f3ed5850b87f2958b72945f62002ebe65b3f9bbae625901", "522102973cd851fecff3a20f08377b072729f303801eee1b7678668338adcaec770ec221033e4af03ed09dbd8a417ba042650d5bd1db7f14f271a8f660974e3abf1fdfa4da52ae"], "sequence": 4294967295, "scriptSig": {"hex": "2200202f7b4024602241b47d3306a6733d9889e4b6761d9f1cb82a18aa8b9ac4506e51", "asm": "00202f7b4024602241b47d3306a6733d9889e4b6761d9f1cb82a18aa8b9ac4506e51"}, "vout": 1, "txid": "627e34f3504287c03eba3ddebd099edc47f4c10ba802082d7cddd6e157006877"}], "txid": "0cacb4f45c326219627b425bcbda591efe4e0a851524131da58a8d80a8b2222a", "blocktime": 1537876114, "version": 1, "confirmations": 11460, "time": 1537876114, "locktime": 0, "vsize": 207, "size": 372}