{"hash": "0cac814dff4dc34f280f1183d6b1e32b786f5e20739c412df330b3537ca4c6b7", "blockhash": "0000000000000000001f76057863aec43deb6fa401d9628bb513d65a8098bfab", "vout": [{"scriptPubKey": {"reqSigs": 1, "hex": "a91423ca918cf0d5a1af7f834569bf8e21124bd0315187", "addresses": ["34xGEy6FKo9xMCCAqpWSzXirfAAPCbkdgd"], "asm": "OP_HASH160 23ca918cf0d5a1af7f834569bf8e21124bd03151 OP_EQUAL", "type": "scripthash"}, "value": 0.05, "n": 0}, {"scriptPubKey": {"reqSigs": 1, "hex": "76a9147604c473ac972ddd8c73ec38da95afcb268f2f8288ac", "addresses": ["1Bm2St3WiBKzHq5FESB5ZiE5C5M2CDVtVb"], "asm": "OP_DUP OP_HASH160 7604c473ac972ddd8c73ec38da95afcb268f2f82 OP_EQUALVERIFY OP_CHECKSIG", "type": "pubkeyhash"}, "value": 0.00045447, "n": 1}], "hex": "0100000009ea7bdb4616f881752c4cdd98f848e007ad26a6a47c0317ec2276f6cf5a952127010000006b4830450221009d81c86cc86789d5ad66a2c6175f5f7edb44cc27517bfe344ead9c03a2e10180022051109980aa23713f83fda9f73e255c919847c41b80a49507ec0abf59da879251012103b9905b343f4c17b07af81378733819057d3125b7fbed05d5a074ab3e23685b4bffffffffe859f7f0f6fc6d80f1d50563aa332efe5cac101239886f8c2bb5a79fe65bbfb7000000006b483045022100fdb1f9188b8d32964ff466fd931f40cd2a36da5027b689eb6aa0cfebc2efd0b1022070f649910d8134807dda2d5d116802b1ec4704cbe578862ec20b7acc0858cbd7012103b9905b343f4c17b07af81378733819057d3125b7fbed05d5a074ab3e23685b4bffffffff1dbd15e5656de6a2a85fd736beaadfdab91177c1f3bb4c20b09372554aa89c59000000006a47304402207e208e86d8d890ab7e7ef0cfe2e723934aae67516defd8e61da8b9eec397a9a40220108956c5ffaed048bff5bdab7e925cec7a1b6db611c8f04b1f9f1b3e57ce9432012103b9905b343f4c17b07af81378733819057d3125b7fbed05d5a074ab3e23685b4bffffffff82a8b97808922dda4ce1e6238f33c11243ebb7a3e9faba7943745effc6bc420a000000006b483045022100a95c47f41de31867a73a68e31ffa517dcca43ccd4268cf669fe7d9f7491b7bf102207c67b9d21e2a6734d68876456e3d32571ced360705cca54dbe5b8c74c6722ee8012103b9905b343f4c17b07af81378733819057d3125b7fbed05d5a074ab3e23685b4bffffffff92a0a762bd38cc88dddc3dbb26ec4daf85269346731150695edb8661e0d372ce000000006a473044022064b0deec413d7ba8d72a90ea87e3d399d5dabf4f712ae916051c82879a62568c0220391f2deba333eef9f9f02614f308190afcbb5cde49a3acdf30f6c196e97dca62012103b9905b343f4c17b07af81378733819057d3125b7fbed05d5a074ab3e23685b4bffffffff47784f9bcf41a9cf3c2ccee7b7b03f8f8a1257e49b75619932213df0e7c6d7df000000006b483045022100df96c1751b19c0ab81c5b379d329e161699ebe23aa036d0d93bc7a3a028c381f022014c67f1db1fc3e17ee87e121874d5eee0c7036cee9b9f6ef2b365223bdba2c42012103b9905b343f4c17b07af81378733819057d3125b7fbed05d5a074ab3e23685b4bffffffff941b350c3f6d4d5f2714b773f4927925f575ca95ebe88227c1918d9c476f40f6000000006a47304402202e73f3795f1b4027801f818993fecabd8d95bc64ee1b1860120cc423373c8a1d02201cc7a369436ad0d216b36f500224bea9a9e50fa00077966c7e0c32d6fbdf5578012103b9905b343f4c17b07af81378733819057d3125b7fbed05d5a074ab3e23685b4bffffffff505a193155aa8a853df1d282074c66d57dcbcfd0805bcfd1f7e9470181ba8b98000000006b483045022100f96b40f61f4f86a60327928292934e9050fa8a50d877a3a73f4ae573e9804a440220023348d92387c09346c7fc30873a91e35c06a720b9215c99ff2fa8fdc8649c2a012103b9905b343f4c17b07af81378733819057d3125b7fbed05d5a074ab3e23685b4bffffffffc8ec1b8d794e9f5075bb67c4a11269f0443297014c571723d1cfa9cf11bc2a76010000006b483045022100f3bd8b60b1ce36272c283c20c24a32ec1d86e27a23fb7f1c75100977b3fb4a4e0220471c890f20744a6e767e308c8f2928ec19bb5f37cf17fad10fe8e0d076c8b9cc012103b9905b343f4c17b07af81378733819057d3125b7fbed05d5a074ab3e23685b4bffffffff02404b4c000000000017a91423ca918cf0d5a1af7f834569bf8e21124bd031518787b10000000000001976a9147604c473ac972ddd8c73ec38da95afcb268f2f8288ac00000000", "vin": [{"sequence": 4294967295, "scriptSig": {"hex": "4830450221009d81c86cc86789d5ad66a2c6175f5f7edb44cc27517bfe344ead9c03a2e10180022051109980aa23713f83fda9f73e255c919847c41b80a49507ec0abf59da879251012103b9905b343f4c17b07af81378733819057d3125b7fbed05d5a074ab3e23685b4b", "asm": "30450221009d81c86cc86789d5ad66a2c6175f5f7edb44cc27517bfe344ead9c03a2e10180022051109980aa23713f83fda9f73e255c919847c41b80a49507ec0abf59da879251[ALL] 03b9905b343f4c17b07af81378733819057d3125b7fbed05d5a074ab3e23685b4b"}, "vout": 1, "txid": "2721955acff67622ec17037ca4a626ad07e048f898dd4c2c7581f81646db7bea"}, {"sequence": 4294967295, "scriptSig": {"hex": "483045022100fdb1f9188b8d32964ff466fd931f40cd2a36da5027b689eb6aa0cfebc2efd0b1022070f649910d8134807dda2d5d116802b1ec4704cbe578862ec20b7acc0858cbd7012103b9905b343f4c17b07af81378733819057d3125b7fbed05d5a074ab3e23685b4b", "asm": "3045022100fdb1f9188b8d32964ff466fd931f40cd2a36da5027b689eb6aa0cfebc2efd0b1022070f649910d8134807dda2d5d116802b1ec4704cbe578862ec20b7acc0858cbd7[ALL] 03b9905b343f4c17b07af81378733819057d3125b7fbed05d5a074ab3e23685b4b"}, "vout": 0, "txid": "b7bf5be69fa7b52b8c6f88391210ac5cfe2e33aa6305d5f1806dfcf6f0f759e8"}, {"sequence": 4294967295, "scriptSig": {"hex": "47304402207e208e86d8d890ab7e7ef0cfe2e723934aae67516defd8e61da8b9eec397a9a40220108956c5ffaed048bff5bdab7e925cec7a1b6db611c8f04b1f9f1b3e57ce9432012103b9905b343f4c17b07af81378733819057d3125b7fbed05d5a074ab3e23685b4b", "asm": "304402207e208e86d8d890ab7e7ef0cfe2e723934aae67516defd8e61da8b9eec397a9a40220108956c5ffaed048bff5bdab7e925cec7a1b6db611c8f04b1f9f1b3e57ce9432[ALL] 03b9905b343f4c17b07af81378733819057d3125b7fbed05d5a074ab3e23685b4b"}, "vout": 0, "txid": "599ca84a557293b0204cbbf3c17711b9dadfaabe36d75fa8a2e66d65e515bd1d"}, {"sequence": 4294967295, "scriptSig": {"hex": "483045022100a95c47f41de31867a73a68e31ffa517dcca43ccd4268cf669fe7d9f7491b7bf102207c67b9d21e2a6734d68876456e3d32571ced360705cca54dbe5b8c74c6722ee8012103b9905b343f4c17b07af81378733819057d3125b7fbed05d5a074ab3e23685b4b", "asm": "3045022100a95c47f41de31867a73a68e31ffa517dcca43ccd4268cf669fe7d9f7491b7bf102207c67b9d21e2a6734d68876456e3d32571ced360705cca54dbe5b8c74c6722ee8[ALL] 03b9905b343f4c17b07af81378733819057d3125b7fbed05d5a074ab3e23685b4b"}, "vout": 0, "txid": "0a42bcc6ff5e744379bafae9a3b7eb4312c1338f23e6e14cda2d920878b9a882"}, {"sequence": 4294967295, "scriptSig": {"hex": "473044022064b0deec413d7ba8d72a90ea87e3d399d5dabf4f712ae916051c82879a62568c0220391f2deba333eef9f9f02614f308190afcbb5cde49a3acdf30f6c196e97dca62012103b9905b343f4c17b07af81378733819057d3125b7fbed05d5a074ab3e23685b4b", "asm": "3044022064b0deec413d7ba8d72a90ea87e3d399d5dabf4f712ae916051c82879a62568c0220391f2deba333eef9f9f02614f308190afcbb5cde49a3acdf30f6c196e97dca62[ALL] 03b9905b343f4c17b07af81378733819057d3125b7fbed05d5a074ab3e23685b4b"}, "vout": 0, "txid": "ce72d3e06186db5e6950117346932685af4dec26bb3ddcdd88cc38bd62a7a092"}, {"sequence": 4294967295, "scriptSig": {"hex": "483045022100df96c1751b19c0ab81c5b379d329e161699ebe23aa036d0d93bc7a3a028c381f022014c67f1db1fc3e17ee87e121874d5eee0c7036cee9b9f6ef2b365223bdba2c42012103b9905b343f4c17b07af81378733819057d3125b7fbed05d5a074ab3e23685b4b", "asm": "3045022100df96c1751b19c0ab81c5b379d329e161699ebe23aa036d0d93bc7a3a028c381f022014c67f1db1fc3e17ee87e121874d5eee0c7036cee9b9f6ef2b365223bdba2c42[ALL] 03b9905b343f4c17b07af81378733819057d3125b7fbed05d5a074ab3e23685b4b"}, "vout": 0, "txid": "dfd7c6e7f03d21329961759be457128a8f3fb0b7e7ce2c3ccfa941cf9b4f7847"}, {"sequence": 4294967295, "scriptSig": {"hex": "47304402202e73f3795f1b4027801f818993fecabd8d95bc64ee1b1860120cc423373c8a1d02201cc7a369436ad0d216b36f500224bea9a9e50fa00077966c7e0c32d6fbdf5578012103b9905b343f4c17b07af81378733819057d3125b7fbed05d5a074ab3e23685b4b", "asm": "304402202e73f3795f1b4027801f818993fecabd8d95bc64ee1b1860120cc423373c8a1d02201cc7a369436ad0d216b36f500224bea9a9e50fa00077966c7e0c32d6fbdf5578[ALL] 03b9905b343f4c17b07af81378733819057d3125b7fbed05d5a074ab3e23685b4b"}, "vout": 0, "txid": "f6406f479c8d91c12782e8eb95ca75f5257992f473b714275f4d6d3f0c351b94"}, {"sequence": 4294967295, "scriptSig": {"hex": "483045022100f96b40f61f4f86a60327928292934e9050fa8a50d877a3a73f4ae573e9804a440220023348d92387c09346c7fc30873a91e35c06a720b9215c99ff2fa8fdc8649c2a012103b9905b343f4c17b07af81378733819057d3125b7fbed05d5a074ab3e23685b4b", "asm": "3045022100f96b40f61f4f86a60327928292934e9050fa8a50d877a3a73f4ae573e9804a440220023348d92387c09346c7fc30873a91e35c06a720b9215c99ff2fa8fdc8649c2a[ALL] 03b9905b343f4c17b07af81378733819057d3125b7fbed05d5a074ab3e23685b4b"}, "vout": 0, "txid": "988bba810147e9f7d1cf5b80d0cfcb7dd5664c0782d2f13d858aaa5531195a50"}, {"sequence": 4294967295, "scriptSig": {"hex": "483045022100f3bd8b60b1ce36272c283c20c24a32ec1d86e27a23fb7f1c75100977b3fb4a4e0220471c890f20744a6e767e308c8f2928ec19bb5f37cf17fad10fe8e0d076c8b9cc012103b9905b343f4c17b07af81378733819057d3125b7fbed05d5a074ab3e23685b4b", "asm": "3045022100f3bd8b60b1ce36272c283c20c24a32ec1d86e27a23fb7f1c75100977b3fb4a4e0220471c890f20744a6e767e308c8f2928ec19bb5f37cf17fad10fe8e0d076c8b9cc[ALL] 03b9905b343f4c17b07af81378733819057d3125b7fbed05d5a074ab3e23685b4b"}, "vout": 1, "txid": "762abc11cfa9cfd12317574c01973244f06912a1c467bb75509f4e798d1becc8"}], "txid": "0cac814dff4dc34f280f1183d6b1e32b786f5e20739c412df330b3537ca4c6b7", "blocktime": 1537873891, "version": 1, "confirmations": 11477, "time": 1537873891, "locktime": 0, "vsize": 1405, "size": 1405}