{"hash": "0cb32dc6f5b4e9404dcb91d0ce3557146f372f8b4254cd7cb50fc212ed91f270", "blockhash": "0000000000000000001f76057863aec43deb6fa401d9628bb513d65a8098bfab", "vout": [{"scriptPubKey": {"reqSigs": 1, "hex": "76a914389688c57294b8cb1e5df2e526b7d4c01dd07dd788ac", "addresses": ["16ADB3hFUDLw5EqQrYrDHy3RE3ex6whHJ5"], "asm": "OP_DUP OP_HASH160 389688c57294b8cb1e5df2e526b7d4c01dd07dd7 OP_EQUALVERIFY OP_CHECKSIG", "type": "pubkeyhash"}, "value": 0.0684856, "n": 0}, {"scriptPubKey": {"reqSigs": 1, "hex": "76a914372224bced12408ffbcbbced4762cd3d3420aaf488ac", "addresses": ["162X4tE2it8mxsFXrNBCeWjKdGMDzfLb9k"], "asm": "OP_DUP OP_HASH160 372224bced12408ffbcbbced4762cd3d3420aaf4 OP_EQUALVERIFY OP_CHECKSIG", "type": "pubkeyhash"}, "value": 0.00997486, "n": 1}], "hex": "020000000581d83b2ad4708e55e8e56209b06fd2c1794c613f9a507a29168c8ffcee95f635000000006b483045022100b276eed52c63391d212424fa77dedf3386092a09ff16bfa83185ede46f5a388e02205b82d52153a13b50e13121de7b612f8d1c08e43efcab721998f918e5836eb63f012102b439d3ba641d591bf295ef0923943af02f977e3950a00fc4a1ec6f98dea02b57feffffff226fcdda8400596322eb592a7fedce5a9e992d55e3735e14efe6ce74cf2665bf140000006a47304402202491ff3e59ec2500d696949b760d986d8f763f6ea7d74057a317bfeba52c9a4702207033a7b528c430e04b89e6996713861db724871111369c014ffd44a531704089012103a188e0e05b9b456b26b7e75c8aa3e821d0fabbbd6f1937dbb1a79292490c05acfeffffff7edb65a9fdab5d1ea85d25b7d1ab29db5964a072553041bb16d8d9238bad539f000000006b483045022100d18fae5d11f445d7bd2d5ab46392bf8fc093f23afb52389755881040975cbd1502201a06bcb3bb38160dc5c2f9806582a598a96d6df056e3e5511f2abf0e77b1c085012102b3d6ce635cc5c6a3dcf94602be3bd5aac0a0e618e7b7668b69ab639c3a32f8c2feffffff4c6bb1630533de5e04648c98b68d081a35be507604b5893303a1b61c8ee19f7d000000006b483045022100ecf74c3efe3a38bac9dc65c78323ed9bbe8f5b35d190aebce680652e2b41d831022050f58910bdc1c67eafc9411ea5020e774f336f4b15f77ecafbbd28f21cda8bbb0121039a8237faf3c728a18a697fa29845daf7bcdba5dc28218a92a6bf84741d7eda4afeffffff439845324565d8040beee3d286b78323bfb0cff42723855f4274678ca456a1b6000000006b483045022100dcd27c9da80d9262025b6ee3b1aabf0dc88987e74b2ec51f4ee61059520bfa460220792ad2d22c722e378eabf5768dd612279d12bb7ddb82fb4f3e3a813a87090d6a0121031a807bc5f443ae8c9c4310352f7e710856f2a1e6da1f88ed0bd525df2c9b1d65feffffff0230806800000000001976a914389688c57294b8cb1e5df2e526b7d4c01dd07dd788ac6e380f00000000001976a914372224bced12408ffbcbbced4762cd3d3420aaf488ac13490800", "vin": [{"sequence": 4294967294, "scriptSig": {"hex": "483045022100b276eed52c63391d212424fa77dedf3386092a09ff16bfa83185ede46f5a388e02205b82d52153a13b50e13121de7b612f8d1c08e43efcab721998f918e5836eb63f012102b439d3ba641d591bf295ef0923943af02f977e3950a00fc4a1ec6f98dea02b57", "asm": "3045022100b276eed52c63391d212424fa77dedf3386092a09ff16bfa83185ede46f5a388e02205b82d52153a13b50e13121de7b612f8d1c08e43efcab721998f918e5836eb63f[ALL] 02b439d3ba641d591bf295ef0923943af02f977e3950a00fc4a1ec6f98dea02b57"}, "vout": 0, "txid": "35f695eefc8f8c16297a509a3f614c79c1d26fb00962e5e8558e70d42a3bd881"}, {"sequence": 4294967294, "scriptSig": {"hex": "47304402202491ff3e59ec2500d696949b760d986d8f763f6ea7d74057a317bfeba52c9a4702207033a7b528c430e04b89e6996713861db724871111369c014ffd44a531704089012103a188e0e05b9b456b26b7e75c8aa3e821d0fabbbd6f1937dbb1a79292490c05ac", "asm": "304402202491ff3e59ec2500d696949b760d986d8f763f6ea7d74057a317bfeba52c9a4702207033a7b528c430e04b89e6996713861db724871111369c014ffd44a531704089[ALL] 03a188e0e05b9b456b26b7e75c8aa3e821d0fabbbd6f1937dbb1a79292490c05ac"}, "vout": 20, "txid": "bf6526cf74cee6ef145e73e3552d999e5aceed7f2a59eb2263590084dacd6f22"}, {"sequence": 4294967294, "scriptSig": {"hex": "483045022100d18fae5d11f445d7bd2d5ab46392bf8fc093f23afb52389755881040975cbd1502201a06bcb3bb38160dc5c2f9806582a598a96d6df056e3e5511f2abf0e77b1c085012102b3d6ce635cc5c6a3dcf94602be3bd5aac0a0e618e7b7668b69ab639c3a32f8c2", "asm": "3045022100d18fae5d11f445d7bd2d5ab46392bf8fc093f23afb52389755881040975cbd1502201a06bcb3bb38160dc5c2f9806582a598a96d6df056e3e5511f2abf0e77b1c085[ALL] 02b3d6ce635cc5c6a3dcf94602be3bd5aac0a0e618e7b7668b69ab639c3a32f8c2"}, "vout": 0, "txid": "9f53ad8b23d9d816bb41305572a06459db29abd1b7255da81e5dabfda965db7e"}, {"sequence": 4294967294, "scriptSig": {"hex": "483045022100ecf74c3efe3a38bac9dc65c78323ed9bbe8f5b35d190aebce680652e2b41d831022050f58910bdc1c67eafc9411ea5020e774f336f4b15f77ecafbbd28f21cda8bbb0121039a8237faf3c728a18a697fa29845daf7bcdba5dc28218a92a6bf84741d7eda4a", "asm": "3045022100ecf74c3efe3a38bac9dc65c78323ed9bbe8f5b35d190aebce680652e2b41d831022050f58910bdc1c67eafc9411ea5020e774f336f4b15f77ecafbbd28f21cda8bbb[ALL] 039a8237faf3c728a18a697fa29845daf7bcdba5dc28218a92a6bf84741d7eda4a"}, "vout": 0, "txid": "7d9fe18e1cb6a1033389b5047650be351a088db6988c64045ede330563b16b4c"}, {"sequence": 4294967294, "scriptSig": {"hex": "483045022100dcd27c9da80d9262025b6ee3b1aabf0dc88987e74b2ec51f4ee61059520bfa460220792ad2d22c722e378eabf5768dd612279d12bb7ddb82fb4f3e3a813a87090d6a0121031a807bc5f443ae8c9c4310352f7e710856f2a1e6da1f88ed0bd525df2c9b1d65", "asm": "3045022100dcd27c9da80d9262025b6ee3b1aabf0dc88987e74b2ec51f4ee61059520bfa460220792ad2d22c722e378eabf5768dd612279d12bb7ddb82fb4f3e3a813a87090d6a[ALL] 031a807bc5f443ae8c9c4310352f7e710856f2a1e6da1f88ed0bd525df2c9b1d65"}, "vout": 0, "txid": "b6a156a48c6774425f852327f4cfb0bf2383b786d2e3ee0b04d8654532459843"}], "txid": "0cb32dc6f5b4e9404dcb91d0ce3557146f372f8b4254cd7cb50fc212ed91f270", "blocktime": 1537873891, "version": 2, "confirmations": 11478, "time": 1537873891, "locktime": 542995, "vsize": 817, "size": 817}