{"hash": "0cb8ca114806bfe5f363385ef0d30316477fd9cde6fd11d44c61c81e214d6d4a", "blockhash": "0000000000000000001cda96e906b7601b7a6fb1a3b62bca570a9e5d8f4b3de1", "vout": [{"scriptPubKey": {"reqSigs": 1, "hex": "76a9146503af23e27c4eed47fe47b0244e18480151588288ac", "addresses": ["1AD7fMWAhsYvL7v24eXnAY5oad19eJ3Cx9"], "asm": "OP_DUP OP_HASH160 6503af23e27c4eed47fe47b0244e184801515882 OP_EQUALVERIFY OP_CHECKSIG", "type": "pubkeyhash"}, "value": 6.159e-05, "n": 0}, {"scriptPubKey": {"reqSigs": 1, "hex": "a914d5e904e30bcce743f2e369042e1f5d60b762c12787", "addresses": ["3MC4zrUTQDnDv66N28ftNFbm4unW5jxbzP"], "asm": "OP_HASH160 d5e904e30bcce743f2e369042e1f5d60b762c127 OP_EQUAL", "type": "scripthash"}, "value": 0.00343491, "n": 1}], "hex": "010000000239f608eb9a2d4e0c07b53a88dfd165dc73bc9d574ef5666c59acca8ac5adb702850000006a47304402200c99ea22585ed5a4c51bfb7b3d7fd138d849c0aa73d4916771ca8adee31b1e02022057811dce55fa40c75f529f3225b572b9a3297e13bdfb442dde33993c49f17b0b012103f1cb40986896476e6358af07a904f98a7d8623306456772624963ab463bd79c6ffffffff9bc1fef246caec24508f73ab50500410a3765fefc012473f127ad8daff1da4fd010000006a47304402201fe01506f25d9a3c0d1bed827c7b056f049a26093fa2ae4952f52d77771da3cb022006629217f2c3165eb8f309817b1a7d42b5918682021fc84cc7c1161bc7e97b65012103d45e4114e6a7d29df88f69612c06350c52eb0c1a392393fa769a8889151b5dd0ffffffff020f180000000000001976a9146503af23e27c4eed47fe47b0244e18480151588288acc33d05000000000017a914d5e904e30bcce743f2e369042e1f5d60b762c1278700000000", "vin": [{"sequence": 4294967295, "scriptSig": {"hex": "47304402200c99ea22585ed5a4c51bfb7b3d7fd138d849c0aa73d4916771ca8adee31b1e02022057811dce55fa40c75f529f3225b572b9a3297e13bdfb442dde33993c49f17b0b012103f1cb40986896476e6358af07a904f98a7d8623306456772624963ab463bd79c6", "asm": "304402200c99ea22585ed5a4c51bfb7b3d7fd138d849c0aa73d4916771ca8adee31b1e02022057811dce55fa40c75f529f3225b572b9a3297e13bdfb442dde33993c49f17b0b[ALL] 03f1cb40986896476e6358af07a904f98a7d8623306456772624963ab463bd79c6"}, "vout": 133, "txid": "02b7adc58acaac596c66f54e579dbc73dc65d1df883ab5070c4e2d9aeb08f639"}, {"sequence": 4294967295, "scriptSig": {"hex": "47304402201fe01506f25d9a3c0d1bed827c7b056f049a26093fa2ae4952f52d77771da3cb022006629217f2c3165eb8f309817b1a7d42b5918682021fc84cc7c1161bc7e97b65012103d45e4114e6a7d29df88f69612c06350c52eb0c1a392393fa769a8889151b5dd0", "asm": "304402201fe01506f25d9a3c0d1bed827c7b056f049a26093fa2ae4952f52d77771da3cb022006629217f2c3165eb8f309817b1a7d42b5918682021fc84cc7c1161bc7e97b65[ALL] 03d45e4114e6a7d29df88f69612c06350c52eb0c1a392393fa769a8889151b5dd0"}, "vout": 1, "txid": "fda41dffdad87a123f4712c0ef5f76a310045050ab738f5024ecca46f2fec19b"}], "txid": "0cb8ca114806bfe5f363385ef0d30316477fd9cde6fd11d44c61c81e214d6d4a", "blocktime": 1537873282, "version": 1, "confirmations": 11483, "time": 1537873282, "locktime": 0, "vsize": 370, "size": 370}