{"hash": "0cb9c0c061cdce6e5e483aeec5bfc2dd3a71530198f0e3734e14508980187da8", "blockhash": "00000000000000000004ffacab907a6b429b9a5745fa0b75af4234bf69dd7176", "vout": [{"scriptPubKey": {"reqSigs": 1, "hex": "76a91427099f92742f8826278b0c3a59576e1611631df288ac", "addresses": ["14ZQt85JkmYCqkukJjQ1aQwaesSbcLvzAs"], "asm": "OP_DUP OP_HASH160 27099f92742f8826278b0c3a59576e1611631df2 OP_EQUALVERIFY OP_CHECKSIG", "type": "pubkeyhash"}, "value": 0.002326, "n": 0}, {"scriptPubKey": {"reqSigs": 1, "hex": "76a9149008d47265a9160ef35c60e9a8607c94acd7636888ac", "addresses": ["1E8at8kunUCaphmokhqSGigKjj7VmtFMCX"], "asm": "OP_DUP OP_HASH160 9008d47265a9160ef35c60e9a8607c94acd76368 OP_EQUALVERIFY OP_CHECKSIG", "type": "pubkeyhash"}, "value": 0.007757, "n": 1}], "hex": "01000000012e212f4cb9bc42e75182f46dcb2100700c5de1038eae2ba1d33b717a47c19a27010000006b4830450221008285119a60eafadd3721d986eb9ed1eda3efe995815c36993eb73e0be240eb93022019bccc5ffb51a724154d10aeb0801d7069cc45b684272203bbebc9be235b1d700121023563eed3c72fd8c09f2f1214c8abf6deb8d44ee36baa3b50d41c222f0dbcd6a3ffffffff02988c0300000000001976a91427099f92742f8826278b0c3a59576e1611631df288ac14d60b00000000001976a9149008d47265a9160ef35c60e9a8607c94acd7636888ac00000000", "vin": [{"sequence": 4294967295, "scriptSig": {"hex": "4830450221008285119a60eafadd3721d986eb9ed1eda3efe995815c36993eb73e0be240eb93022019bccc5ffb51a724154d10aeb0801d7069cc45b684272203bbebc9be235b1d700121023563eed3c72fd8c09f2f1214c8abf6deb8d44ee36baa3b50d41c222f0dbcd6a3", "asm": "30450221008285119a60eafadd3721d986eb9ed1eda3efe995815c36993eb73e0be240eb93022019bccc5ffb51a724154d10aeb0801d7069cc45b684272203bbebc9be235b1d70[ALL] 023563eed3c72fd8c09f2f1214c8abf6deb8d44ee36baa3b50d41c222f0dbcd6a3"}, "vout": 1, "txid": "279ac1477a713bd3a12bae8e03e15d0c700021cb6df48251e742bcb94c2f212e"}], "txid": "0cb9c0c061cdce6e5e483aeec5bfc2dd3a71530198f0e3734e14508980187da8", "blocktime": 1537875543, "version": 1, "confirmations": 11464, "time": 1537875543, "locktime": 0, "vsize": 226, "size": 226}