{"hash": "0cb9821c7a627367354792a61172c4c4f71c148ee9e073cc35a744076c08a6a4", "blockhash": "00000000000000000024a2167bbff67b0be802c0b01cdd79e6331c2be6459f87", "vout": [{"scriptPubKey": {"reqSigs": 1, "hex": "76a914a4da83bd884b1c708bb0f3bd347375f7a99293eb88ac", "addresses": ["1G2fb83nFHWk3zus5EE9Lg5KreETsKZ77o"], "asm": "OP_DUP OP_HASH160 a4da83bd884b1c708bb0f3bd347375f7a99293eb OP_EQUALVERIFY OP_CHECKSIG", "type": "pubkeyhash"}, "value": 0.009352, "n": 0}, {"scriptPubKey": {"reqSigs": 1, "hex": "76a914c3f0a04e1e794b66b26af3100d4bb2f784ec672b88ac", "addresses": ["1Js32Qf2ae1W3xCtpLJwEoSph89YkTRYyq"], "asm": "OP_DUP OP_HASH160 c3f0a04e1e794b66b26af3100d4bb2f784ec672b OP_EQUALVERIFY OP_CHECKSIG", "type": "pubkeyhash"}, "value": 0.349373, "n": 1}], "hex": "01000000015f7a571654d1a75833983217c6b6077fc898dd496a4722a8d134c9bbb06ca1dd010000006a4730440220075385853ef74974eb0da4bd318d9e12d51730cd80f0a9078e52fa4b7a89772202205092f3f202c145c5728f2568f3712f947620cb062d04f1292e5a1614f9439df10121031a09bfa543b42af97a8bf7e517f5ccd59f6a36ce9bda89e12fab5331e1a80884ffffffff0220450e00000000001976a914a4da83bd884b1c708bb0f3bd347375f7a99293eb88acd4191502000000001976a914c3f0a04e1e794b66b26af3100d4bb2f784ec672b88ac00000000", "vin": [{"sequence": 4294967295, "scriptSig": {"hex": "4730440220075385853ef74974eb0da4bd318d9e12d51730cd80f0a9078e52fa4b7a89772202205092f3f202c145c5728f2568f3712f947620cb062d04f1292e5a1614f9439df10121031a09bfa543b42af97a8bf7e517f5ccd59f6a36ce9bda89e12fab5331e1a80884", "asm": "30440220075385853ef74974eb0da4bd318d9e12d51730cd80f0a9078e52fa4b7a89772202205092f3f202c145c5728f2568f3712f947620cb062d04f1292e5a1614f9439df1[ALL] 031a09bfa543b42af97a8bf7e517f5ccd59f6a36ce9bda89e12fab5331e1a80884"}, "vout": 1, "txid": "dda16cb0bbc934d1a822476a49dd98c87f07b6c61732983358a7d15416577a5f"}], "txid": "0cb9821c7a627367354792a61172c4c4f71c148ee9e073cc35a744076c08a6a4", "blocktime": 1537870564, "version": 1, "confirmations": 11515, "time": 1537870564, "locktime": 0, "vsize": 225, "size": 225}