{"hash": "0cbc0f35d04358a24609ae4d17fc771030e68b80e4643b23481a59dd5c04a3fe", "blockhash": "0000000000000000000baef3f32e3676a92c3b2e5da21b426e4f302fc371ce76", "vout": [{"scriptPubKey": {"reqSigs": 1, "hex": "76a9149c7f659fa17cf3fab31bc31fa350a1548f658be788ac", "addresses": ["1FGV2d5PfYKnM2T5Dck6pW2X4AhSxDGvrc"], "asm": "OP_DUP OP_HASH160 9c7f659fa17cf3fab31bc31fa350a1548f658be7 OP_EQUALVERIFY OP_CHECKSIG", "type": "pubkeyhash"}, "value": 0.04807435, "n": 0}, {"scriptPubKey": {"reqSigs": 1, "hex": "76a914e55fc76917e206cae15149da6e05ff56b5a4994288ac", "addresses": ["1MupUmVWR27utMz12JyfMxSFiCoZsrjUFr"], "asm": "OP_DUP OP_HASH160 e55fc76917e206cae15149da6e05ff56b5a49942 OP_EQUALVERIFY OP_CHECKSIG", "type": "pubkeyhash"}, "value": 0.00109573, "n": 1}], "hex": "010000000162d06ea34ee945ee6c2a200d0c097d2e9e87a3ab2bd9e54de4384ee7113acdda000000006a47304402205e155058bfc5c1a4c256c35897035ee4ce5b0deb914ff8b154f47fd6de5a3da6022049e8043a59eb45dc7ad4201a3b0174098a0b2b684953ecf4a31930940f6bd5be0121024f8cf29867be5ab70354702fe9a0a2f111705db4fb575265d55de7bd4c87ed51ffffffff020b5b4900000000001976a9149c7f659fa17cf3fab31bc31fa350a1548f658be788ac05ac0100000000001976a914e55fc76917e206cae15149da6e05ff56b5a4994288ac00000000", "vin": [{"sequence": 4294967295, "scriptSig": {"hex": "47304402205e155058bfc5c1a4c256c35897035ee4ce5b0deb914ff8b154f47fd6de5a3da6022049e8043a59eb45dc7ad4201a3b0174098a0b2b684953ecf4a31930940f6bd5be0121024f8cf29867be5ab70354702fe9a0a2f111705db4fb575265d55de7bd4c87ed51", "asm": "304402205e155058bfc5c1a4c256c35897035ee4ce5b0deb914ff8b154f47fd6de5a3da6022049e8043a59eb45dc7ad4201a3b0174098a0b2b684953ecf4a31930940f6bd5be[ALL] 024f8cf29867be5ab70354702fe9a0a2f111705db4fb575265d55de7bd4c87ed51"}, "vout": 0, "txid": "dacd3a11e74e38e44de5d92baba3879e2e7d090c0d202a6cee45e94ea36ed062"}], "txid": "0cbc0f35d04358a24609ae4d17fc771030e68b80e4643b23481a59dd5c04a3fe", "blocktime": 1537876114, "version": 1, "confirmations": 11459, "time": 1537876114, "locktime": 0, "vsize": 225, "size": 225}