{"hash": "0cbd516e5c3929c9105a9a0484ed1891b7c5d83562ddede8787754a4d8cbdf4c", "blockhash": "0000000000000000001f76057863aec43deb6fa401d9628bb513d65a8098bfab", "vout": [{"scriptPubKey": {"reqSigs": 1, "hex": "76a91493c42171a08b14cab6f3a22f97741910ab03679b88ac", "addresses": ["1EUKHbW4tUP5TruuLv79dzjkX4FhESxqfG"], "asm": "OP_DUP OP_HASH160 93c42171a08b14cab6f3a22f97741910ab03679b OP_EQUALVERIFY OP_CHECKSIG", "type": "pubkeyhash"}, "value": 5.222e-05, "n": 0}, {"scriptPubKey": {"reqSigs": 1, "hex": "76a9145dee21956137ab72525da66adb12488602dcef3d88ac", "addresses": ["19Zf7V8msRDE9Sv1gX7SWrEPQ7AG2vgB6S"], "asm": "OP_DUP OP_HASH160 5dee21956137ab72525da66adb12488602dcef3d OP_EQUALVERIFY OP_CHECKSIG", "type": "pubkeyhash"}, "value": 0.050161, "n": 1}], "hex": "0100000001edd32032ce70c9452f538333b19753fb197e3f3480867bb662af262b5283353f010000006b483045022100a737a0d0ea37cb3a0cee06386ddcc7ec171f3a1bddeabe75e57b2dc91165275902203de3c341966fd9e4aa2a5a8453cf835447341fa2e905aeb5feb35c0123374446012103366838b59768d6cb50be877b8da8245311b13bd30d00825fb1189d7cadee9077ffffffff0266140000000000001976a91493c42171a08b14cab6f3a22f97741910ab03679b88ac248a4c00000000001976a9145dee21956137ab72525da66adb12488602dcef3d88ac00000000", "vin": [{"sequence": 4294967295, "scriptSig": {"hex": "483045022100a737a0d0ea37cb3a0cee06386ddcc7ec171f3a1bddeabe75e57b2dc91165275902203de3c341966fd9e4aa2a5a8453cf835447341fa2e905aeb5feb35c0123374446012103366838b59768d6cb50be877b8da8245311b13bd30d00825fb1189d7cadee9077", "asm": "3045022100a737a0d0ea37cb3a0cee06386ddcc7ec171f3a1bddeabe75e57b2dc91165275902203de3c341966fd9e4aa2a5a8453cf835447341fa2e905aeb5feb35c0123374446[ALL] 03366838b59768d6cb50be877b8da8245311b13bd30d00825fb1189d7cadee9077"}, "vout": 1, "txid": "3f3583522b26af62b67b8680343f7e19fb5397b13383532f45c970ce3220d3ed"}], "txid": "0cbd516e5c3929c9105a9a0484ed1891b7c5d83562ddede8787754a4d8cbdf4c", "blocktime": 1537873891, "version": 1, "confirmations": 11478, "time": 1537873891, "locktime": 0, "vsize": 226, "size": 226}