{"hash": "077959e1606d9ab57882979ad1fa4c767238c5648dff167bcd2ab60075877007", "blockhash": "00000000000000000018f53835495a110e01622372bf6ae95dc86f2b0ab887b0", "vout": [{"scriptPubKey": {"reqSigs": 1, "hex": "a914d4ee5a50ce90fe25146222402892ddd864c5893787", "addresses": ["3M6tiFhxFWciZ1X2CVX4dvWR3ySSE6jhmY"], "asm": "OP_HASH160 d4ee5a50ce90fe25146222402892ddd864c58937 OP_EQUAL", "type": "scripthash"}, "value": 0.00125743, "n": 0}, {"scriptPubKey": {"reqSigs": 1, "hex": "0014aed9ab465feaeee4c9fd6e1275316ff40e4fdd33", "addresses": ["bc1q4mv6k3jlathwfj0adcf82vt07s8ylhfng9v2ty"], "asm": "0 aed9ab465feaeee4c9fd6e1275316ff40e4fdd33", "type": "witness_v0_keyhash"}, "value": 1.41e-05, "n": 1}], "hex": "01000000000101f498c4bdffc0d7bcc3bc71db6b997e27040587b081d9b8a0d9e3bb56d89035590100000000ffffffff022feb01000000000017a914d4ee5a50ce90fe25146222402892ddd864c58937878205000000000000160014aed9ab465feaeee4c9fd6e1275316ff40e4fdd3302483045022100bfb071bfcfa49a6d28a54c8ac246412e1b2cff1002595ebb8e084a095c7f369202200c1e1c66666dde0bd1e1833ad14df5e9fb5fcbeac6aa5e961a0425eb7c110335012103ada246a47b6dc11e7dba86a3aeb3bbec458c6770044bc3c441c52fba8ef16def00000000", "vin": [{"txinwitness": ["3045022100bfb071bfcfa49a6d28a54c8ac246412e1b2cff1002595ebb8e084a095c7f369202200c1e1c66666dde0bd1e1833ad14df5e9fb5fcbeac6aa5e961a0425eb7c11033501", "03ada246a47b6dc11e7dba86a3aeb3bbec458c6770044bc3c441c52fba8ef16def"], "sequence": 4294967295, "scriptSig": {"hex": "", "asm": ""}, "vout": 1, "txid": "593590d856bbe3d9a0b8d981b0870504277e996bdb71bcc3bcd7c0ffbdc498f4"}], "txid": "0cbed4e43dbba6bd0f5db08d75d5210a8ed9b512fc4f345be1585ad0d563c330", "blocktime": 1537870928, "version": 1, "confirmations": 11513, "time": 1537870928, "locktime": 0, "vsize": 142, "size": 224}