{"hash": "0cc306dbe4991c56a61bacfef87cdcf28d204609088b4d7a179098b657941393", "blockhash": "000000000000000000022b45ed06c6f4ccd3cf7fb5ba4856ebd2e58215665228", "vout": [{"scriptPubKey": {"reqSigs": 1, "hex": "76a9144b1d6bcf8d31f7e04398d7373c57117e8c97ebd188ac", "addresses": ["17rAvc1cS5WTgnrMrYwJTvvAD8BqgdXZKE"], "asm": "OP_DUP OP_HASH160 4b1d6bcf8d31f7e04398d7373c57117e8c97ebd1 OP_EQUALVERIFY OP_CHECKSIG", "type": "pubkeyhash"}, "value": 0.00405451, "n": 0}, {"scriptPubKey": {"reqSigs": 1, "hex": "a914872d80f0b81ffbd9cda4e0f774a97ad204259a8c87", "addresses": ["3E1mf6G3CKjSYsGeHQtHhUpAwDgEenodog"], "asm": "OP_HASH160 872d80f0b81ffbd9cda4e0f774a97ad204259a8c OP_EQUAL", "type": "scripthash"}, "value": 0.07802, "n": 1}], "hex": "01000000080b4993c774847974d43e24ed79b5f3e5e1ef25caad22d7a83efa0a09547f3e51010000006b4830450221008282c6c1ccbe0dd5d4fe0a8b8bb8a5070f448a2b9773b821045c8d85210bae2c02203d74b0a7203faa43c7032e7af2dc3b01fd2da1af06b1b4a1f2b7e4e5f7501836012102828bf7522dc8d72b2e6a3e16345ad9dc36e75b7645676b51df39ef21804fa6faffffffff1414012f0a315d907bb65184b1b9bccd8986c3196709baa66cf4cedc46b84461010000006b48304502210089ecacc0b639803e9256af60013fa4bb99d2c279c2fac21f6373b0dbeeb234b2022027734d89a57ee53471bbbeadba50f2d9966d8cc50ccba2f89c0260699c88689a012103bbf913d26d81f52530920fbff0ccdd04b009e090d394d78e77dd906048f44f6affffffff0ed80f05bce7de23bca4edc9eb58c51c6dca725653dd43eaec0625907d9c1387000000006a473044022000b25b3c1eddb5f7c08f8d696620f6c1a9f930a194a1a35b03bad116dbc1795202203eece3b58981a744527441782fe15d7168b0bf8cc2301e3790fb13166e7addd30121036f6be2666b44c01d2036f6318ba1f32317b8c7f181a539155b7c443695df3b32ffffffff9f5fa7ce2cce2d95057ac7eefa13989b6fffcc96cfcd9cd61a1a3a8d84e00a8a010000006a4730440220699df94a31e33b075d9b3bafab93ab68a26a14592d9a3f39be7256b142cfc6e90220370d73c42c24c8cc799ce42d8c759c2a0f813ee027319f847494a5613393104a0121029dfb7e38672ff909c44f51c79f6a5f4dcf95e06d023a113593feab9970a0bc26ffffffff00f3c8b028180a275b2b38e40236acc9a0188224c5df5bddd39397991ab6a6bb010000006b4830450221008b500e1879311b2b418236b9024544177bc24761718d2d9ea129a8485099aa0a022020a3001ac9fc46facaa77142b10413c90e98a7ccd45d8a7a6377e8051be849de0121020e76eff39b694709d5b88fbf5b3f7c01fdc8484b04a0eb6d26b38772181da4b9ffffffff7d1471a34bceebdbe7d13ea4b844184a00b175da978c8df9f307d49f59db55c6000000006a4730440220149de752f0872a692b36587103b76899c571b7419f637b5ceac27256ecf063650220285abe1f079a4b793911ab3a9bbc8a9f1e0ae7588db8b1c39e64a2ad7105d2e0012102828bf7522dc8d72b2e6a3e16345ad9dc36e75b7645676b51df39ef21804fa6faffffffffc57526cc65a5e6224c98da0186d6143f53be8ea28510af10d95d27fefc350fca000000006b483045022100ba19676aea8fb10f75f9a99c554a1edede2de40a149e2e41672e6a9047edfafc02201655c0b7af688ac27f74bb5e8af6f8ef577ff4efa4bda0af941d2cbd1ddb686001210303c451f133bb078d5417275256ce98cbecafe01ee9846f7eef5686b45b8baa68ffffffffe9e6824f0ca85edd66d7c27f0c77a12b7392f5a7215787e88e9982f0c1ed83d4000000006a47304402202afdae06283cd6d6bb48f31035a267948749417e25178cbe9269be8b5d6b9e83022010b4ecde702e38f1380b532583dbee993e70caaa1cfd72160bb9ac9661fc7e690121037270a4874f2f854169024acd2fc89f058573e1b00ae4e74678aa9276fdd9747fffffffff02cb2f0600000000001976a9144b1d6bcf8d31f7e04398d7373c57117e8c97ebd188ac900c77000000000017a914872d80f0b81ffbd9cda4e0f774a97ad204259a8c8700000000", "vin": [{"sequence": 4294967295, "scriptSig": {"hex": "4830450221008282c6c1ccbe0dd5d4fe0a8b8bb8a5070f448a2b9773b821045c8d85210bae2c02203d74b0a7203faa43c7032e7af2dc3b01fd2da1af06b1b4a1f2b7e4e5f7501836012102828bf7522dc8d72b2e6a3e16345ad9dc36e75b7645676b51df39ef21804fa6fa", "asm": "30450221008282c6c1ccbe0dd5d4fe0a8b8bb8a5070f448a2b9773b821045c8d85210bae2c02203d74b0a7203faa43c7032e7af2dc3b01fd2da1af06b1b4a1f2b7e4e5f7501836[ALL] 02828bf7522dc8d72b2e6a3e16345ad9dc36e75b7645676b51df39ef21804fa6fa"}, "vout": 1, "txid": "513e7f54090afa3ea8d722adca25efe1e5f3b579ed243ed474798474c793490b"}, {"sequence": 4294967295, "scriptSig": {"hex": "48304502210089ecacc0b639803e9256af60013fa4bb99d2c279c2fac21f6373b0dbeeb234b2022027734d89a57ee53471bbbeadba50f2d9966d8cc50ccba2f89c0260699c88689a012103bbf913d26d81f52530920fbff0ccdd04b009e090d394d78e77dd906048f44f6a", "asm": "304502210089ecacc0b639803e9256af60013fa4bb99d2c279c2fac21f6373b0dbeeb234b2022027734d89a57ee53471bbbeadba50f2d9966d8cc50ccba2f89c0260699c88689a[ALL] 03bbf913d26d81f52530920fbff0ccdd04b009e090d394d78e77dd906048f44f6a"}, "vout": 1, "txid": "6144b846dccef46ca6ba096719c38689cdbcb9b18451b67b905d310a2f011414"}, {"sequence": 4294967295, "scriptSig": {"hex": "473044022000b25b3c1eddb5f7c08f8d696620f6c1a9f930a194a1a35b03bad116dbc1795202203eece3b58981a744527441782fe15d7168b0bf8cc2301e3790fb13166e7addd30121036f6be2666b44c01d2036f6318ba1f32317b8c7f181a539155b7c443695df3b32", "asm": "3044022000b25b3c1eddb5f7c08f8d696620f6c1a9f930a194a1a35b03bad116dbc1795202203eece3b58981a744527441782fe15d7168b0bf8cc2301e3790fb13166e7addd3[ALL] 036f6be2666b44c01d2036f6318ba1f32317b8c7f181a539155b7c443695df3b32"}, "vout": 0, "txid": "87139c7d902506ecea43dd535672ca6d1cc558ebc9eda4bc23dee7bc050fd80e"}, {"sequence": 4294967295, "scriptSig": {"hex": "4730440220699df94a31e33b075d9b3bafab93ab68a26a14592d9a3f39be7256b142cfc6e90220370d73c42c24c8cc799ce42d8c759c2a0f813ee027319f847494a5613393104a0121029dfb7e38672ff909c44f51c79f6a5f4dcf95e06d023a113593feab9970a0bc26", "asm": "30440220699df94a31e33b075d9b3bafab93ab68a26a14592d9a3f39be7256b142cfc6e90220370d73c42c24c8cc799ce42d8c759c2a0f813ee027319f847494a5613393104a[ALL] 029dfb7e38672ff909c44f51c79f6a5f4dcf95e06d023a113593feab9970a0bc26"}, "vout": 1, "txid": "8a0ae0848d3a1a1ad69ccdcf96ccff6f9b9813faeec77a05952dce2ccea75f9f"}, {"sequence": 4294967295, "scriptSig": {"hex": "4830450221008b500e1879311b2b418236b9024544177bc24761718d2d9ea129a8485099aa0a022020a3001ac9fc46facaa77142b10413c90e98a7ccd45d8a7a6377e8051be849de0121020e76eff39b694709d5b88fbf5b3f7c01fdc8484b04a0eb6d26b38772181da4b9", "asm": "30450221008b500e1879311b2b418236b9024544177bc24761718d2d9ea129a8485099aa0a022020a3001ac9fc46facaa77142b10413c90e98a7ccd45d8a7a6377e8051be849de[ALL] 020e76eff39b694709d5b88fbf5b3f7c01fdc8484b04a0eb6d26b38772181da4b9"}, "vout": 1, "txid": "bba6b61a999793d3dd5bdfc5248218a0c9ac3602e4382b5b270a1828b0c8f300"}, {"sequence": 4294967295, "scriptSig": {"hex": "4730440220149de752f0872a692b36587103b76899c571b7419f637b5ceac27256ecf063650220285abe1f079a4b793911ab3a9bbc8a9f1e0ae7588db8b1c39e64a2ad7105d2e0012102828bf7522dc8d72b2e6a3e16345ad9dc36e75b7645676b51df39ef21804fa6fa", "asm": "30440220149de752f0872a692b36587103b76899c571b7419f637b5ceac27256ecf063650220285abe1f079a4b793911ab3a9bbc8a9f1e0ae7588db8b1c39e64a2ad7105d2e0[ALL] 02828bf7522dc8d72b2e6a3e16345ad9dc36e75b7645676b51df39ef21804fa6fa"}, "vout": 0, "txid": "c655db599fd407f3f98d8c97da75b1004a1844b8a43ed1e7dbebce4ba371147d"}, {"sequence": 4294967295, "scriptSig": {"hex": "483045022100ba19676aea8fb10f75f9a99c554a1edede2de40a149e2e41672e6a9047edfafc02201655c0b7af688ac27f74bb5e8af6f8ef577ff4efa4bda0af941d2cbd1ddb686001210303c451f133bb078d5417275256ce98cbecafe01ee9846f7eef5686b45b8baa68", "asm": "3045022100ba19676aea8fb10f75f9a99c554a1edede2de40a149e2e41672e6a9047edfafc02201655c0b7af688ac27f74bb5e8af6f8ef577ff4efa4bda0af941d2cbd1ddb6860[ALL] 0303c451f133bb078d5417275256ce98cbecafe01ee9846f7eef5686b45b8baa68"}, "vout": 0, "txid": "ca0f35fcfe275dd910af1085a28ebe533f14d68601da984c22e6a565cc2675c5"}, {"sequence": 4294967295, "scriptSig": {"hex": "47304402202afdae06283cd6d6bb48f31035a267948749417e25178cbe9269be8b5d6b9e83022010b4ecde702e38f1380b532583dbee993e70caaa1cfd72160bb9ac9661fc7e690121037270a4874f2f854169024acd2fc89f058573e1b00ae4e74678aa9276fdd9747f", "asm": "304402202afdae06283cd6d6bb48f31035a267948749417e25178cbe9269be8b5d6b9e83022010b4ecde702e38f1380b532583dbee993e70caaa1cfd72160bb9ac9661fc7e69[ALL] 037270a4874f2f854169024acd2fc89f058573e1b00ae4e74678aa9276fdd9747f"}, "vout": 0, "txid": "d483edc1f082998ee8875721a7f592732ba1770c7fc2d766dd5ea80c4f82e6e9"}], "txid": "0cc306dbe4991c56a61bacfef87cdcf28d204609088b4d7a179098b657941393", "blocktime": 1537869901, "version": 1, "confirmations": 11524, "time": 1537869901, "locktime": 0, "vsize": 1256, "size": 1256}