{"hash": "0cc3f791ddb3a448ec229debe85902e992b1e339cac20592c1eaaf78a2725f11", "blockhash": "0000000000000000001e0dab787dd257d1dbfcb92a98c2207d5e1078be1f4165", "vout": [{"scriptPubKey": {"reqSigs": 1, "hex": "76a91423b50d632f3a0ff05ff49f17b27ec080ffbbc5b988ac", "addresses": ["14FoYSzCPRC1CduUseY2zsdvomAPfU9XZY"], "asm": "OP_DUP OP_HASH160 23b50d632f3a0ff05ff49f17b27ec080ffbbc5b9 OP_EQUALVERIFY OP_CHECKSIG", "type": "pubkeyhash"}, "value": 0.00019253, "n": 0}, {"scriptPubKey": {"reqSigs": 1, "hex": "76a9142ba6dc8512ac9cf506de7984230968292a83babf88ac", "addresses": ["14yowyyrCA7aSmPXFAs2nyBwUWttDJ8jhZ"], "asm": "OP_DUP OP_HASH160 2ba6dc8512ac9cf506de7984230968292a83babf OP_EQUALVERIFY OP_CHECKSIG", "type": "pubkeyhash"}, "value": 0.01116825, "n": 1}], "hex": "0100000001f0b595ea9c118d701afd437f3ab42e2968480a3e40d0d787a3b1c2ed1269309c420000006b4830450221009db229a37b0e85eae7e33f181742f5c81cd87c17da793e19dddebb3370a712c802206e6e98c279028eb91aa94eb77b3e67ae39fc129df4baabc7eb69def35e6ad005012102487006b81b92195a0f75d843d4984db499c749de54cd70fb47cb10201adaffaeffffffff02354b0000000000001976a91423b50d632f3a0ff05ff49f17b27ec080ffbbc5b988ac990a1100000000001976a9142ba6dc8512ac9cf506de7984230968292a83babf88ac00000000", "vin": [{"sequence": 4294967295, "scriptSig": {"hex": "4830450221009db229a37b0e85eae7e33f181742f5c81cd87c17da793e19dddebb3370a712c802206e6e98c279028eb91aa94eb77b3e67ae39fc129df4baabc7eb69def35e6ad005012102487006b81b92195a0f75d843d4984db499c749de54cd70fb47cb10201adaffae", "asm": "30450221009db229a37b0e85eae7e33f181742f5c81cd87c17da793e19dddebb3370a712c802206e6e98c279028eb91aa94eb77b3e67ae39fc129df4baabc7eb69def35e6ad005[ALL] 02487006b81b92195a0f75d843d4984db499c749de54cd70fb47cb10201adaffae"}, "vout": 66, "txid": "9c306912edc2b1a387d7d0403e0a4868292eb43a7f43fd1a708d119cea95b5f0"}], "txid": "0cc3f791ddb3a448ec229debe85902e992b1e339cac20592c1eaaf78a2725f11", "blocktime": 1537872475, "version": 1, "confirmations": 11487, "time": 1537872475, "locktime": 0, "vsize": 226, "size": 226}