{"hash": "9158bea8f2ce05dd1e05cb3450289a2385291972ed3d54a3d1850e55fc595c37", "blockhash": "0000000000000000001cda96e906b7601b7a6fb1a3b62bca570a9e5d8f4b3de1", "vout": [{"scriptPubKey": {"reqSigs": 1, "hex": "00146fd0e2131245d0fb7eadd8dacdbd1faf026ef04b", "addresses": ["bc1qdlgwyycjghg0kl4dmrdvm0gl4upxauztah2057"], "asm": "0 6fd0e2131245d0fb7eadd8dacdbd1faf026ef04b", "type": "witness_v0_keyhash"}, "value": 0.43542071, "n": 0}, {"scriptPubKey": {"reqSigs": 1, "hex": "a91495b036649c37660f8e70ab6c819a24167327f91d87", "addresses": ["3FLVhaovbQKfh6sth3QpPrcw5Vs2uRy2JB"], "asm": "OP_HASH160 95b036649c37660f8e70ab6c819a24167327f91d OP_EQUAL", "type": "scripthash"}, "value": 0.0312, "n": 1}], "hex": "01000000000101def2715a4e80ec060284732ba6dd01ec374ceae5d69e7abc324e7a8b56647e130000000000ffffffff0237669802000000001600146fd0e2131245d0fb7eadd8dacdbd1faf026ef04b809b2f000000000017a91495b036649c37660f8e70ab6c819a24167327f91d870247304402202b3d8675b91d7b37e45bb91c79ba593afc0ab468eb03bb6def192b5bfec87df902205602469da64d9add48a14b810b4f500285810a9c2e3f5bc4b514d15b95a6bd2e012102c7b785a3fa0292a2a3b28f33b230480b6e9671cf43d811c2d784b9a2f226659300000000", "vin": [{"txinwitness": ["304402202b3d8675b91d7b37e45bb91c79ba593afc0ab468eb03bb6def192b5bfec87df902205602469da64d9add48a14b810b4f500285810a9c2e3f5bc4b514d15b95a6bd2e01", "02c7b785a3fa0292a2a3b28f33b230480b6e9671cf43d811c2d784b9a2f2266593"], "sequence": 4294967295, "scriptSig": {"hex": "", "asm": ""}, "vout": 0, "txid": "137e64568b7a4e32bc7a9ed6e5ea4c37ec01dda62b73840206ec804e5a71f2de"}], "txid": "0cc32bea27c989359ea7bb6671106c3894e61beeab6c8e19c5452ea1baa16c2b", "blocktime": 1537873282, "version": 1, "confirmations": 11484, "time": 1537873282, "locktime": 0, "vsize": 142, "size": 223}