{"hash": "0cc93c159a025956cb3a08424ce081ad45721ee9ddea4448fdd0dd31d8fc6bfb", "blockhash": "00000000000000000004ffacab907a6b429b9a5745fa0b75af4234bf69dd7176", "vout": [{"scriptPubKey": {"reqSigs": 1, "hex": "76a9143dc28407ec0b12ee8d76ebd702ec17ebd484fd1f88ac", "addresses": ["16dZEtmmDHeTX7fwSJK2jzhyVg84oyvT8d"], "asm": "OP_DUP OP_HASH160 3dc28407ec0b12ee8d76ebd702ec17ebd484fd1f OP_EQUALVERIFY OP_CHECKSIG", "type": "pubkeyhash"}, "value": 0.14628281, "n": 0}], "hex": "0100000001e56649e904c6670835ce60606e871c3556a2c79f5ea76a78039457e8af29d149010000006b4830450221009919dfc157809dd7e68a2f4d7b8a2bfe5a1a8a28a4ba698e3536a23e748ae69a022037f4591c93fa51b21242b9a6f9cccb224fd853b8ac5efe4c15781df02bb8b24801210294d8f150671c13b3f3bb5c81c8b0f944b5eb2ddbe87b80a9ecb279cf8c00e9ecffffffff01b935df00000000001976a9143dc28407ec0b12ee8d76ebd702ec17ebd484fd1f88ac00000000", "vin": [{"sequence": 4294967295, "scriptSig": {"hex": "4830450221009919dfc157809dd7e68a2f4d7b8a2bfe5a1a8a28a4ba698e3536a23e748ae69a022037f4591c93fa51b21242b9a6f9cccb224fd853b8ac5efe4c15781df02bb8b24801210294d8f150671c13b3f3bb5c81c8b0f944b5eb2ddbe87b80a9ecb279cf8c00e9ec", "asm": "30450221009919dfc157809dd7e68a2f4d7b8a2bfe5a1a8a28a4ba698e3536a23e748ae69a022037f4591c93fa51b21242b9a6f9cccb224fd853b8ac5efe4c15781df02bb8b248[ALL] 0294d8f150671c13b3f3bb5c81c8b0f944b5eb2ddbe87b80a9ecb279cf8c00e9ec"}, "vout": 1, "txid": "49d129afe8579403786aa75e9fc7a256351c876e6060ce350867c604e94966e5"}], "txid": "0cc93c159a025956cb3a08424ce081ad45721ee9ddea4448fdd0dd31d8fc6bfb", "blocktime": 1537875543, "version": 1, "confirmations": 11464, "time": 1537875543, "locktime": 0, "vsize": 192, "size": 192}