{"hash": "0ccfd8e6cadaac0632e8dc7d5bcdab1441c1e12acdd99aa575e6c684d13c086a", "blockhash": "00000000000000000024a2167bbff67b0be802c0b01cdd79e6331c2be6459f87", "vout": [{"scriptPubKey": {"reqSigs": 1, "hex": "76a9146cfd418ba9a171e5e61530d4aaa0aa7532e8c48f88ac", "addresses": ["1AwHNFpzqf43qXiUmUQhbzYbnZ8v1R7WKG"], "asm": "OP_DUP OP_HASH160 6cfd418ba9a171e5e61530d4aaa0aa7532e8c48f OP_EQUALVERIFY OP_CHECKSIG", "type": "pubkeyhash"}, "value": 0.00039369, "n": 0}, {"scriptPubKey": {"reqSigs": 1, "hex": "a914018d58fad832ae6d461b49fb7bae840a4be916e487", "addresses": ["31qDvjj2hm8ZSzbmv63oESYireCPbHVZN1"], "asm": "OP_HASH160 018d58fad832ae6d461b49fb7bae840a4be916e4 OP_EQUAL", "type": "scripthash"}, "value": 0.07010221, "n": 1}], "hex": "0100000005ba93efa52425a5eb06ff090da7954c99916f606cc4eb1496cf440ce1d9859307010000006b483045022100d94bc8ac01e89ad935784abb57880a127171fb79b2d67a26da2a47134748f4940220659e193ef3d4e5b5883e2c84175216521155f2d919e9afcb3e8531d6a7046cf0012103bece65984e86ad63aea42360f55c83ce2a6c84d40c2bb84f1dba13b0e1ba624bffffffff2415b3512e4f442b5acb99256578b1c2ba46834e42d7c8b985e01d1af792d90d000000006b483045022100834f4b16d09828075223cc162f418c4f5ac302e019c0b9a378985c72e662361502202d9965cb4e7735ce82fa3f7ce99b6b9618dde46daee6c450d909b8b667f8321a012103d1304ffc9be299aafee275ee57ed6b7b26f5ad318f5b08eb84fa135539f684bbffffffffca7135648ffdda8cfcf91bd6cfdc1e30e5a1e2421d3684f48d80e2e3742acc19210000006a47304402206fc7d1101745267cf827978feeaea5e3cefea3842e1ffe3c23fa57659670f03602202c1c546e2f0075d2482a42036a177846e6b38c4a693f695f4b300a88287ec45b01210356a46c2006a7c25e90572097ad1b1e7a69545f4d572c6fbbf32f71b66ed13507ffffffff6c285a3c0512e1f079445de9f7f9b913245d9e7f1c04e2558f828f2679ef5a80000000006b483045022100ad9d1d16640e9705e7b0b26834b74893efc583ce77d180b35fa125e8c4e09292022075ef05dcc401fe7466126c12b67556c2ba8b0c84f5c578f62d0aabf9a6e86d0701210210f408005b439990970825f6615b53e2da07b5c7a278918a276ca46421b9bd56ffffffff221b5573cd250816027955dfbba4b5727719a6bbe47d40119414fd674a1ca9f6000000006b483045022100a46903f9f0b2990256cae16058353ce49ab18a1ae79e4349182381e23e419dee02206eee3afa2840933910328211f48ec2ddcf00131587de03f89faf762898266f92012102cd3e95728b44d2858c22f232fad4772784a13e34bc0041d6c52ce825ab7c9f9affffffff02c9990000000000001976a9146cfd418ba9a171e5e61530d4aaa0aa7532e8c48f88acadf76a000000000017a914018d58fad832ae6d461b49fb7bae840a4be916e48700000000", "vin": [{"sequence": 4294967295, "scriptSig": {"hex": "483045022100d94bc8ac01e89ad935784abb57880a127171fb79b2d67a26da2a47134748f4940220659e193ef3d4e5b5883e2c84175216521155f2d919e9afcb3e8531d6a7046cf0012103bece65984e86ad63aea42360f55c83ce2a6c84d40c2bb84f1dba13b0e1ba624b", "asm": "3045022100d94bc8ac01e89ad935784abb57880a127171fb79b2d67a26da2a47134748f4940220659e193ef3d4e5b5883e2c84175216521155f2d919e9afcb3e8531d6a7046cf0[ALL] 03bece65984e86ad63aea42360f55c83ce2a6c84d40c2bb84f1dba13b0e1ba624b"}, "vout": 1, "txid": "079385d9e10c44cf9614ebc46c606f91994c95a70d09ff06eba52524a5ef93ba"}, {"sequence": 4294967295, "scriptSig": {"hex": "483045022100834f4b16d09828075223cc162f418c4f5ac302e019c0b9a378985c72e662361502202d9965cb4e7735ce82fa3f7ce99b6b9618dde46daee6c450d909b8b667f8321a012103d1304ffc9be299aafee275ee57ed6b7b26f5ad318f5b08eb84fa135539f684bb", "asm": "3045022100834f4b16d09828075223cc162f418c4f5ac302e019c0b9a378985c72e662361502202d9965cb4e7735ce82fa3f7ce99b6b9618dde46daee6c450d909b8b667f8321a[ALL] 03d1304ffc9be299aafee275ee57ed6b7b26f5ad318f5b08eb84fa135539f684bb"}, "vout": 0, "txid": "0dd992f71a1de085b9c8d7424e8346bac2b178652599cb5a2b444f2e51b31524"}, {"sequence": 4294967295, "scriptSig": {"hex": "47304402206fc7d1101745267cf827978feeaea5e3cefea3842e1ffe3c23fa57659670f03602202c1c546e2f0075d2482a42036a177846e6b38c4a693f695f4b300a88287ec45b01210356a46c2006a7c25e90572097ad1b1e7a69545f4d572c6fbbf32f71b66ed13507", "asm": "304402206fc7d1101745267cf827978feeaea5e3cefea3842e1ffe3c23fa57659670f03602202c1c546e2f0075d2482a42036a177846e6b38c4a693f695f4b300a88287ec45b[ALL] 0356a46c2006a7c25e90572097ad1b1e7a69545f4d572c6fbbf32f71b66ed13507"}, "vout": 33, "txid": "19cc2a74e3e2808df484361d42e2a1e5301edccfd61bf9fc8cdafd8f643571ca"}, {"sequence": 4294967295, "scriptSig": {"hex": "483045022100ad9d1d16640e9705e7b0b26834b74893efc583ce77d180b35fa125e8c4e09292022075ef05dcc401fe7466126c12b67556c2ba8b0c84f5c578f62d0aabf9a6e86d0701210210f408005b439990970825f6615b53e2da07b5c7a278918a276ca46421b9bd56", "asm": "3045022100ad9d1d16640e9705e7b0b26834b74893efc583ce77d180b35fa125e8c4e09292022075ef05dcc401fe7466126c12b67556c2ba8b0c84f5c578f62d0aabf9a6e86d07[ALL] 0210f408005b439990970825f6615b53e2da07b5c7a278918a276ca46421b9bd56"}, "vout": 0, "txid": "805aef79268f828f55e2041c7f9e5d2413b9f9f7e95d4479f0e112053c5a286c"}, {"sequence": 4294967295, "scriptSig": {"hex": "483045022100a46903f9f0b2990256cae16058353ce49ab18a1ae79e4349182381e23e419dee02206eee3afa2840933910328211f48ec2ddcf00131587de03f89faf762898266f92012102cd3e95728b44d2858c22f232fad4772784a13e34bc0041d6c52ce825ab7c9f9a", "asm": "3045022100a46903f9f0b2990256cae16058353ce49ab18a1ae79e4349182381e23e419dee02206eee3afa2840933910328211f48ec2ddcf00131587de03f89faf762898266f92[ALL] 02cd3e95728b44d2858c22f232fad4772784a13e34bc0041d6c52ce825ab7c9f9a"}, "vout": 0, "txid": "f6a91c4a67fd149411407de4bba6197772b5a4bbdf557902160825cd73551b22"}], "txid": "0ccfd8e6cadaac0632e8dc7d5bcdab1441c1e12acdd99aa575e6c684d13c086a", "blocktime": 1537870564, "version": 1, "confirmations": 11515, "time": 1537870564, "locktime": 0, "vsize": 815, "size": 815}