{"hash": "0cd978db63d3d26f0306285ce5add723d7e92b1c0c4d0f86066ff6fb1ce06f12", "blockhash": "00000000000000000017f5eb5941039fbcee6240d03bc1f2f8e35350df66a1d8", "vout": [{"scriptPubKey": {"reqSigs": 1, "hex": "a914514bf6d41c7b2ae440c815d4b1d0df1f712aa93e87", "addresses": ["396sfAYXsvVoP8puGkBtn2thFsebzfecgJ"], "asm": "OP_HASH160 514bf6d41c7b2ae440c815d4b1d0df1f712aa93e OP_EQUAL", "type": "scripthash"}, "value": 0.0515732, "n": 0}, {"scriptPubKey": {"reqSigs": 1, "hex": "76a914a2d0e4b60a63ff5e1e93e90124aef557edd6a4b188ac", "addresses": ["1FqtiFBqGapmKndxY5k59XwzLULTStLnUV"], "asm": "OP_DUP OP_HASH160 a2d0e4b60a63ff5e1e93e90124aef557edd6a4b1 OP_EQUALVERIFY OP_CHECKSIG", "type": "pubkeyhash"}, "value": 0.1464, "n": 1}], "hex": "010000000294ce20696322861c6d7d2f3585809e0a2bc45a9e29d0a0433ac1148ae885bbc901000000fdfd0000483045022100d03de26629b50311c2ca0a3064479eb659954612c64550e07d883ad39847c08b02203acaf1f98828ded3f37ec9c25cf56b51fbff46ae48e6d7bcb18eb1289c8b5af201473044022066b0c1186696815c49ae2c30dd5b0fc323fd1a391a54fa10278158fa2962964802202c000581dcfc95aedab58ee4bccfe27595c4e0c7f4f94fadf94a520afa14ae0f014c6952210206618ce389b76141dc802604cef1b64ff75861d96012129cfd3335e7311a7c27210236aea54aaca6e6b4bb54e073f4e448117e05590d5f8e6ca44c33f0169748c0502103fc241ae9e9cc5f4826ae40064206dc6703d63b1a294a1058828160ee8a2ddba453aeffffffffc100e7a4eca3afef2c3e9377995939542edee4d0de194817c677b2cdb166046400000000fdfd00004730440220032379737091a0d3db4797417f458ec49e6ef514a24b99fe7dc6c30e2a5c2cde02205e440a44caa47e08a5b97e5b870d60f246d750e0193e6a101ef38549d43fa0f501483045022100aa3df381acc1093d7145a2186116540083d95e32c992725201c19bfedc4a38b40220058323d581242c1cfe943b650124540d65e13e382930d2f7545baf5331990e8c014c695221022d5ccdaa3ee04263bab5aa64a7851e477c9e090efedc5238ec5c4cc3d55506d52102875696e2de53d1299d4ba6c97aeabd30014e3a94ebe26e7e536ddf19086aabd42103598703ea4a52d26b6a396a910c060d2c616efdc43a77acf6aec496b6eddcc85353aeffffffff02c8b14e000000000017a914514bf6d41c7b2ae440c815d4b1d0df1f712aa93e878063df00000000001976a914a2d0e4b60a63ff5e1e93e90124aef557edd6a4b188ac00000000", "vin": [{"sequence": 4294967295, "scriptSig": {"hex": "00483045022100d03de26629b50311c2ca0a3064479eb659954612c64550e07d883ad39847c08b02203acaf1f98828ded3f37ec9c25cf56b51fbff46ae48e6d7bcb18eb1289c8b5af201473044022066b0c1186696815c49ae2c30dd5b0fc323fd1a391a54fa10278158fa2962964802202c000581dcfc95aedab58ee4bccfe27595c4e0c7f4f94fadf94a520afa14ae0f014c6952210206618ce389b76141dc802604cef1b64ff75861d96012129cfd3335e7311a7c27210236aea54aaca6e6b4bb54e073f4e448117e05590d5f8e6ca44c33f0169748c0502103fc241ae9e9cc5f4826ae40064206dc6703d63b1a294a1058828160ee8a2ddba453ae", "asm": "0 3045022100d03de26629b50311c2ca0a3064479eb659954612c64550e07d883ad39847c08b02203acaf1f98828ded3f37ec9c25cf56b51fbff46ae48e6d7bcb18eb1289c8b5af2[ALL] 3044022066b0c1186696815c49ae2c30dd5b0fc323fd1a391a54fa10278158fa2962964802202c000581dcfc95aedab58ee4bccfe27595c4e0c7f4f94fadf94a520afa14ae0f[ALL] 52210206618ce389b76141dc802604cef1b64ff75861d96012129cfd3335e7311a7c27210236aea54aaca6e6b4bb54e073f4e448117e05590d5f8e6ca44c33f0169748c0502103fc241ae9e9cc5f4826ae40064206dc6703d63b1a294a1058828160ee8a2ddba453ae"}, "vout": 1, "txid": "c9bb85e88a14c13a43a0d0299e5ac42b0a9e8085352f7d6d1c8622636920ce94"}, {"sequence": 4294967295, "scriptSig": {"hex": "004730440220032379737091a0d3db4797417f458ec49e6ef514a24b99fe7dc6c30e2a5c2cde02205e440a44caa47e08a5b97e5b870d60f246d750e0193e6a101ef38549d43fa0f501483045022100aa3df381acc1093d7145a2186116540083d95e32c992725201c19bfedc4a38b40220058323d581242c1cfe943b650124540d65e13e382930d2f7545baf5331990e8c014c695221022d5ccdaa3ee04263bab5aa64a7851e477c9e090efedc5238ec5c4cc3d55506d52102875696e2de53d1299d4ba6c97aeabd30014e3a94ebe26e7e536ddf19086aabd42103598703ea4a52d26b6a396a910c060d2c616efdc43a77acf6aec496b6eddcc85353ae", "asm": "0 30440220032379737091a0d3db4797417f458ec49e6ef514a24b99fe7dc6c30e2a5c2cde02205e440a44caa47e08a5b97e5b870d60f246d750e0193e6a101ef38549d43fa0f5[ALL] 3045022100aa3df381acc1093d7145a2186116540083d95e32c992725201c19bfedc4a38b40220058323d581242c1cfe943b650124540d65e13e382930d2f7545baf5331990e8c[ALL] 5221022d5ccdaa3ee04263bab5aa64a7851e477c9e090efedc5238ec5c4cc3d55506d52102875696e2de53d1299d4ba6c97aeabd30014e3a94ebe26e7e536ddf19086aabd42103598703ea4a52d26b6a396a910c060d2c616efdc43a77acf6aec496b6eddcc85353ae"}, "vout": 0, "txid": "640466b1cdb277c6174819ded0e4de2e5439599977933e2cefafa3eca4e700c1"}], "txid": "0cd978db63d3d26f0306285ce5add723d7e92b1c0c4d0f86066ff6fb1ce06f12", "blocktime": 1537874412, "version": 1, "confirmations": 11467, "time": 1537874412, "locktime": 0, "vsize": 668, "size": 668}