{"hash": "b0e1bdebc47d5bdf09997407cf4c6ce100c79b0c45ce3c2850ad26b8b3c324da", "blockhash": "0000000000000000000dcc0f55137456b1a82d3642486a52398922ac4d620174", "vout": [{"scriptPubKey": {"reqSigs": 1, "hex": "a914fc921188443d9336ea2a8f0f60815561b0c1013287", "addresses": ["3QiVBuEHTVWn1LQaW7wHzskbHCVuemExU8"], "asm": "OP_HASH160 fc921188443d9336ea2a8f0f60815561b0c10132 OP_EQUAL", "type": "scripthash"}, "value": 0.068, "n": 0}, {"scriptPubKey": {"reqSigs": 1, "hex": "a91483a14353e5b7d74c6328ec4528cf661d8195037587", "addresses": ["3Dh1dRVgdaYCZe8HCyfVb9Nu7pgQogi6eY"], "asm": "OP_HASH160 83a14353e5b7d74c6328ec4528cf661d81950375 OP_EQUAL", "type": "scripthash"}, "value": 0.00051065, "n": 1}], "hex": "01000000000102fd334469978be8cfa7760f6e5c1b264bbb9f83e16a988667715a3ac982fa9c2901000000232200203a8c413074371fe0490c713d18a65609b0dd830a52bd580a29e0c1635b04c98cffffffff5ed180aceb4c7b7a5edaf1ff69be01de4053aa68327347d560096f8f30e76ce900000000fc0047304402201292da3c6567b843b1a244eb674fd5e3a3c9b220230a4884b8d242038aafe71d022067fe82e5e7be2a608d5df74bf996b8066961dd5afce33863dc5acf34cc92d4e10147304402204754ce4bf47ab6766876149db5a8791f2a3f484e4460cf1253c21e6558bd07a702202d01a74fbfb4bb8da91fe933b2850eae1fbe75c31f710433ddd2960fdd9c2596014c695221027ccffd74fc66c90e5f7897f32126237b26b1a9149c4546a9a0163e8d82a71e01210236c3557e22971d7be538399151e66ea29ee412028b4ab93a5339456557b223c421027157d27926a899ff8e69457d338d053939337a3577220e6cdbc75e6befff4cea53aeffffffff0280c267000000000017a914fc921188443d9336ea2a8f0f60815561b0c101328779c700000000000017a91483a14353e5b7d74c6328ec4528cf661d81950375870400473044022025802588d1605f16488ecda70d83ab198dcb342bc0a2f38325bbc915356b4e67022053be7386e99d6131c78ffa7c5391bca2535b2e6fb98f4e950ee2f42597594b080147304402200c4e64fc7c6de99c13dd9eaee3a3e53a45061e35b6446d1a2d59dbea92023e09022070589da844bab08faf1f7b9757278c7109cdc6ac8e8f6fdafabb70dc3d3f6f4e0169522102163adbba82c629d81cadc43af193907452cdcd023a6bd6e6aa6d809352d0a86021032a674440afc08310c4aaf63095fd78547ad9d1856da1e23bdc8caabdcb3c31c721035fa684f9148074c16140e8b94d9dbe74dd6c1c04a710486502f598b32cff775253ae0000000000", "vin": [{"txinwitness": ["", "3044022025802588d1605f16488ecda70d83ab198dcb342bc0a2f38325bbc915356b4e67022053be7386e99d6131c78ffa7c5391bca2535b2e6fb98f4e950ee2f42597594b0801", "304402200c4e64fc7c6de99c13dd9eaee3a3e53a45061e35b6446d1a2d59dbea92023e09022070589da844bab08faf1f7b9757278c7109cdc6ac8e8f6fdafabb70dc3d3f6f4e01", "522102163adbba82c629d81cadc43af193907452cdcd023a6bd6e6aa6d809352d0a86021032a674440afc08310c4aaf63095fd78547ad9d1856da1e23bdc8caabdcb3c31c721035fa684f9148074c16140e8b94d9dbe74dd6c1c04a710486502f598b32cff775253ae"], "sequence": 4294967295, "scriptSig": {"hex": "2200203a8c413074371fe0490c713d18a65609b0dd830a52bd580a29e0c1635b04c98c", "asm": "00203a8c413074371fe0490c713d18a65609b0dd830a52bd580a29e0c1635b04c98c"}, "vout": 1, "txid": "299cfa82c93a5a716786986ae1839fbb4b261b5c6e0f76a7cfe88b97694433fd"}, {"sequence": 4294967295, "scriptSig": {"hex": "0047304402201292da3c6567b843b1a244eb674fd5e3a3c9b220230a4884b8d242038aafe71d022067fe82e5e7be2a608d5df74bf996b8066961dd5afce33863dc5acf34cc92d4e10147304402204754ce4bf47ab6766876149db5a8791f2a3f484e4460cf1253c21e6558bd07a702202d01a74fbfb4bb8da91fe933b2850eae1fbe75c31f710433ddd2960fdd9c2596014c695221027ccffd74fc66c90e5f7897f32126237b26b1a9149c4546a9a0163e8d82a71e01210236c3557e22971d7be538399151e66ea29ee412028b4ab93a5339456557b223c421027157d27926a899ff8e69457d338d053939337a3577220e6cdbc75e6befff4cea53ae", "asm": "0 304402201292da3c6567b843b1a244eb674fd5e3a3c9b220230a4884b8d242038aafe71d022067fe82e5e7be2a608d5df74bf996b8066961dd5afce33863dc5acf34cc92d4e1[ALL] 304402204754ce4bf47ab6766876149db5a8791f2a3f484e4460cf1253c21e6558bd07a702202d01a74fbfb4bb8da91fe933b2850eae1fbe75c31f710433ddd2960fdd9c2596[ALL] 5221027ccffd74fc66c90e5f7897f32126237b26b1a9149c4546a9a0163e8d82a71e01210236c3557e22971d7be538399151e66ea29ee412028b4ab93a5339456557b223c421027157d27926a899ff8e69457d338d053939337a3577220e6cdbc75e6befff4cea53ae"}, "vout": 0, "txid": "e96ce7308f6f0960d547733268aa5340de01be69fff1da5e7a7b4cebac80d15e"}], "txid": "0ce0926385370466354dc631f4af8137d38c3cfcec80589936924ce817cdeab6", "blocktime": 1537870268, "version": 1, "confirmations": 11518, "time": 1537870268, "locktime": 0, "vsize": 507, "size": 698}