{"hash": "0ce5c6f143e47cca7a8c6301b03205dbce70885a703b98acbffbb1abd1466ebb", "blockhash": "0000000000000000001cda96e906b7601b7a6fb1a3b62bca570a9e5d8f4b3de1", "vout": [{"scriptPubKey": {"reqSigs": 1, "hex": "a914ce53a05ae117c7672cafaea42bb5f2d9f3b999d987", "addresses": ["3LVyJXM6mzxjHzXQCbQkt6g7gwBzLNDmUG"], "asm": "OP_HASH160 ce53a05ae117c7672cafaea42bb5f2d9f3b999d9 OP_EQUAL", "type": "scripthash"}, "value": 0.2, "n": 0}, {"scriptPubKey": {"reqSigs": 1, "hex": "76a9142a6ec30ab2f6cd177a04b0a8f971aa7f850a3f2b88ac", "addresses": ["14sN4vndUpPFnev45X3eoXefNi3ntGE5A4"], "asm": "OP_DUP OP_HASH160 2a6ec30ab2f6cd177a04b0a8f971aa7f850a3f2b OP_EQUALVERIFY OP_CHECKSIG", "type": "pubkeyhash"}, "value": 0.55249994, "n": 1}], "hex": "01000000032bf03647701c8d3724aa30dc5f9e8c99de3a042636686047c263862010fe10eb810000006a47304402205c61372fb4785824ab30e315c727d4115908ef77cdf39e3289052cb37e3088730220192bb0c4e782cf741fb99b55069bcf749d24c7bdaf1638af6cc02491a8a5875c01210257e114e9ef62e3f77434f4d4c08ad32a7954b174a25e35c32f9f40c62da27183ffffffff051dee97d635bdf3fd97c6197d673ec2200ef5436f79a537d9992b6512fd58a2010000006b483045022100bee1872b054239cc5f623287824a87f9594924c5b07929b932ca7b7edf153aeb0220123aae81f654953498985c3351a30298a506360df7a0c0599c8f0089dc75b4930121020c3ab5437ac3b4a8acad1432cbce117e831e92a63e45fe207766308770a27ef3ffffffffb25f6de06d5154fd0ec2d0cdd379267f0ea78a82ca3762006d5a58914d667887190000006b483045022100f6e429e2d82c7e1a1058312a20aa78244d5a5bb2ca19ab1560e6fb6878f775d402201ef8036fd7f9b374778e97804f13bcdf38728a97b629a005ef275c667129260c012102f03c75422d82962fe4edd8eb8f9242cf1bcd5f25f04b504bbe5e5de9491488c0ffffffff02002d31010000000017a914ce53a05ae117c7672cafaea42bb5f2d9f3b999d9874a0c4b03000000001976a9142a6ec30ab2f6cd177a04b0a8f971aa7f850a3f2b88ac00000000", "vin": [{"sequence": 4294967295, "scriptSig": {"hex": "47304402205c61372fb4785824ab30e315c727d4115908ef77cdf39e3289052cb37e3088730220192bb0c4e782cf741fb99b55069bcf749d24c7bdaf1638af6cc02491a8a5875c01210257e114e9ef62e3f77434f4d4c08ad32a7954b174a25e35c32f9f40c62da27183", "asm": "304402205c61372fb4785824ab30e315c727d4115908ef77cdf39e3289052cb37e3088730220192bb0c4e782cf741fb99b55069bcf749d24c7bdaf1638af6cc02491a8a5875c[ALL] 0257e114e9ef62e3f77434f4d4c08ad32a7954b174a25e35c32f9f40c62da27183"}, "vout": 129, "txid": "eb10fe10208663c24760683626043ade998c9e5fdc30aa24378d1c704736f02b"}, {"sequence": 4294967295, "scriptSig": {"hex": "483045022100bee1872b054239cc5f623287824a87f9594924c5b07929b932ca7b7edf153aeb0220123aae81f654953498985c3351a30298a506360df7a0c0599c8f0089dc75b4930121020c3ab5437ac3b4a8acad1432cbce117e831e92a63e45fe207766308770a27ef3", "asm": "3045022100bee1872b054239cc5f623287824a87f9594924c5b07929b932ca7b7edf153aeb0220123aae81f654953498985c3351a30298a506360df7a0c0599c8f0089dc75b493[ALL] 020c3ab5437ac3b4a8acad1432cbce117e831e92a63e45fe207766308770a27ef3"}, "vout": 1, "txid": "a258fd12652b99d937a5796f43f50e20c23e677d19c697fdf3bd35d697ee1d05"}, {"sequence": 4294967295, "scriptSig": {"hex": "483045022100f6e429e2d82c7e1a1058312a20aa78244d5a5bb2ca19ab1560e6fb6878f775d402201ef8036fd7f9b374778e97804f13bcdf38728a97b629a005ef275c667129260c012102f03c75422d82962fe4edd8eb8f9242cf1bcd5f25f04b504bbe5e5de9491488c0", "asm": "3045022100f6e429e2d82c7e1a1058312a20aa78244d5a5bb2ca19ab1560e6fb6878f775d402201ef8036fd7f9b374778e97804f13bcdf38728a97b629a005ef275c667129260c[ALL] 02f03c75422d82962fe4edd8eb8f9242cf1bcd5f25f04b504bbe5e5de9491488c0"}, "vout": 25, "txid": "8778664d91585a6d006237ca828aa70e7f2679d3cdd0c20efd54516de06d5fb2"}], "txid": "0ce5c6f143e47cca7a8c6301b03205dbce70885a703b98acbffbb1abd1466ebb", "blocktime": 1537873282, "version": 1, "confirmations": 11484, "time": 1537873282, "locktime": 0, "vsize": 519, "size": 519}