{"hash": "705dc0c9bd837468ecb399ebdd1a7f945000c971f7105c6a7bde41738fe14ae8", "blockhash": "00000000000000000004ffacab907a6b429b9a5745fa0b75af4234bf69dd7176", "vout": [{"scriptPubKey": {"reqSigs": 1, "hex": "a914ab198797e2271451fec4757ebd7f15d8be6cfed687", "addresses": ["3HHi4BKUBJCDZLhboBN3MWMzwpooSCTnQZ"], "asm": "OP_HASH160 ab198797e2271451fec4757ebd7f15d8be6cfed6 OP_EQUAL", "type": "scripthash"}, "value": 0.00782, "n": 0}, {"scriptPubKey": {"reqSigs": 1, "hex": "a914c5d55d700ea5d5af3fad6235db1378615284481587", "addresses": ["3Kj4eCCHQktMcG6RvaXTc1gLkYhgZmjoHH"], "asm": "OP_HASH160 c5d55d700ea5d5af3fad6235db13786152844815 OP_EQUAL", "type": "scripthash"}, "value": 0.04368619, "n": 1}], "hex": "010000000001015845e3e3228aea5c0d1385c1045b60add066af8533f8a1f8c7705b77cd6a0a3602000000171600147a371e939bf2a62a1c1d9f30085601c32af74971ffffffff02b0ee0b000000000017a914ab198797e2271451fec4757ebd7f15d8be6cfed687eba842000000000017a914c5d55d700ea5d5af3fad6235db13786152844815870247304402200fb9fd13c6af1071122b7ad467ec5f28ffc335781d6b2e5332d1705e123b6d8f02200d2b11b5d8269beec42e3e8557a4269c6783b3104d36a2854b64045c660ef2d301210212975ae9dc102cf29ee1fda525d619816605de4456e83ee119cc5e0cbe54c05d00000000", "vin": [{"txinwitness": ["304402200fb9fd13c6af1071122b7ad467ec5f28ffc335781d6b2e5332d1705e123b6d8f02200d2b11b5d8269beec42e3e8557a4269c6783b3104d36a2854b64045c660ef2d301", "0212975ae9dc102cf29ee1fda525d619816605de4456e83ee119cc5e0cbe54c05d"], "sequence": 4294967295, "scriptSig": {"hex": "1600147a371e939bf2a62a1c1d9f30085601c32af74971", "asm": "00147a371e939bf2a62a1c1d9f30085601c32af74971"}, "vout": 2, "txid": "360a6acd775b70c7f8a1f83385af66d0ad605b04c185130d5cea8a22e3e34558"}], "txid": "0ceb98064b9834f2b3dfbdd47e5abcb2fbd9ea93faabfdd51eb2d8cb617382bd", "blocktime": 1537875543, "version": 1, "confirmations": 11464, "time": 1537875543, "locktime": 0, "vsize": 166, "size": 247}