{"hash": "0cedd01e625d64cad196f8d490db065a14cca04a70dc43dd0d583f62e7dcef0f", "blockhash": "00000000000000000004ffacab907a6b429b9a5745fa0b75af4234bf69dd7176", "vout": [{"scriptPubKey": {"reqSigs": 1, "hex": "76a914c8b31661985d1cfab6d0c6d8a97d4ced85ec04ba88ac", "addresses": ["1KJCgaZXTb7AtjDHJvHetLBehf4EmQfYiA"], "asm": "OP_DUP OP_HASH160 c8b31661985d1cfab6d0c6d8a97d4ced85ec04ba OP_EQUALVERIFY OP_CHECKSIG", "type": "pubkeyhash"}, "value": 8.319e-05, "n": 0}, {"scriptPubKey": {"reqSigs": 1, "hex": "a914178df8458a62825dafbb0e392c5f2d53abdae9ac87", "addresses": ["33qZYC3eutvDi2uCYmLYd4h2vN9MRnY6bw"], "asm": "OP_HASH160 178df8458a62825dafbb0e392c5f2d53abdae9ac OP_EQUAL", "type": "scripthash"}, "value": 0.00283, "n": 1}], "hex": "0100000001e87b2c7a51bcc93c94d2cf8e32f28d0c3d7dd05475ebf3436d34e9f583634ba5150000006a47304402203faa911a7bbd77fae40e8a70b4d33ece604a4844fbc9a5324ceef7533cd167f6022059841dc5c461e8e1d196c1fd1f4438f41062c2871dec4fc199c259348c96438a012102c2f414895c58bccfd9d9e545d06b5b32e267617a78c0f797d752ba79f5c954a2ffffffff027f200000000000001976a914c8b31661985d1cfab6d0c6d8a97d4ced85ec04ba88ac785104000000000017a914178df8458a62825dafbb0e392c5f2d53abdae9ac8700000000", "vin": [{"sequence": 4294967295, "scriptSig": {"hex": "47304402203faa911a7bbd77fae40e8a70b4d33ece604a4844fbc9a5324ceef7533cd167f6022059841dc5c461e8e1d196c1fd1f4438f41062c2871dec4fc199c259348c96438a012102c2f414895c58bccfd9d9e545d06b5b32e267617a78c0f797d752ba79f5c954a2", "asm": "304402203faa911a7bbd77fae40e8a70b4d33ece604a4844fbc9a5324ceef7533cd167f6022059841dc5c461e8e1d196c1fd1f4438f41062c2871dec4fc199c259348c96438a[ALL] 02c2f414895c58bccfd9d9e545d06b5b32e267617a78c0f797d752ba79f5c954a2"}, "vout": 21, "txid": "a54b6383f5e9346d43f3eb7554d07d3d0c8df2328ecfd2943cc9bc517a2c7be8"}], "txid": "0cedd01e625d64cad196f8d490db065a14cca04a70dc43dd0d583f62e7dcef0f", "blocktime": 1537875543, "version": 1, "confirmations": 11464, "time": 1537875543, "locktime": 0, "vsize": 223, "size": 223}