{"hash": "d59a6d7a6a7c38bda86b0e636a6c5d0273ac7803ca126b1a58ffefbf65918cac", "blockhash": "0000000000000000001cda96e906b7601b7a6fb1a3b62bca570a9e5d8f4b3de1", "vout": [{"scriptPubKey": {"reqSigs": 1, "hex": "76a914254edc737fcbd505c063d0f8164e6b35e4574fe988ac", "addresses": ["14QGUU1KALTJJdFBqoZDWg9NDZ9zvq4sF6"], "asm": "OP_DUP OP_HASH160 254edc737fcbd505c063d0f8164e6b35e4574fe9 OP_EQUALVERIFY OP_CHECKSIG", "type": "pubkeyhash"}, "value": 0.002095, "n": 0}, {"scriptPubKey": {"reqSigs": 1, "hex": "00146ad3d7e3bc90847d5d48b692451b3727e3de943b", "addresses": ["bc1qdtfa0caujzz86h2gk6fy2xehyl3aa9pmyjfrc9"], "asm": "0 6ad3d7e3bc90847d5d48b692451b3727e3de943b", "type": "witness_v0_keyhash"}, "value": 1.38e-05, "n": 1}], "hex": "0100000000010194cf7c107db44d5002a93e514a65da85af9db0135b5aea49f36837c571e682c20100000000ffffffff025c320300000000001976a914254edc737fcbd505c063d0f8164e6b35e4574fe988ac64050000000000001600146ad3d7e3bc90847d5d48b692451b3727e3de943b0248304502210087674d7046f605d7326cc4e39764a9ac72508751a0c7d34d737f7a3922b3c662022061933ff5672b700163dddc047d612301c07b4f7c5e49631972f8d693dd29cb3701210307c2190fda68f1b9ceb1c342476123dce5ac4e4a55bee07e2f972441046d22a700000000", "vin": [{"txinwitness": ["304502210087674d7046f605d7326cc4e39764a9ac72508751a0c7d34d737f7a3922b3c662022061933ff5672b700163dddc047d612301c07b4f7c5e49631972f8d693dd29cb3701", "0307c2190fda68f1b9ceb1c342476123dce5ac4e4a55bee07e2f972441046d22a7"], "sequence": 4294967295, "scriptSig": {"hex": "", "asm": ""}, "vout": 1, "txid": "c282e671c53768f349ea5a5b13b09daf85da654a513ea902504db47d107ccf94"}], "txid": "0cf0284e09cd570c741f45914763a8073d5f113533780fd1ba672eddd8aa0594", "blocktime": 1537873282, "version": 1, "confirmations": 11484, "time": 1537873282, "locktime": 0, "vsize": 144, "size": 226}