{"hash": "d8b4ee296b04a1f1772589f1fdadc94dcf38ab4b882848d0fcc4619223b28a06", "blockhash": "0000000000000000000dcc0f55137456b1a82d3642486a52398922ac4d620174", "vout": [{"scriptPubKey": {"reqSigs": 1, "hex": "a91449d7e96499e76d96ef877a2fcb98823c8bccba2187", "addresses": ["38RTuMXR3rjgmqC2TwiJHrCLzc9nbGoNw7"], "asm": "OP_HASH160 49d7e96499e76d96ef877a2fcb98823c8bccba21 OP_EQUAL", "type": "scripthash"}, "value": 0.00060667, "n": 0}], "hex": "010000000001012be330cf2c9b7f70fa9dd28903756ca7cd8affc8e10e78b76a682fa27de324d10300000017160014b922402bc26276799e25350d773ec6e98cc6273affffffff01fbec00000000000017a91449d7e96499e76d96ef877a2fcb98823c8bccba2187024830450221009af9223437dd85286b8885d7c73cf5b4b2917595e2a0fdbe6dd78f6d29a04ebd02202c135cfa9b010e4e37d92f27b779a6fd968589d1d46ade803322b3d34d649167012102885649f39d5cc8e0b25add27d4b4cb0ae09e219e460e471eec5e80e87889bcd000000000", "vin": [{"txinwitness": ["30450221009af9223437dd85286b8885d7c73cf5b4b2917595e2a0fdbe6dd78f6d29a04ebd02202c135cfa9b010e4e37d92f27b779a6fd968589d1d46ade803322b3d34d64916701", "02885649f39d5cc8e0b25add27d4b4cb0ae09e219e460e471eec5e80e87889bcd0"], "sequence": 4294967295, "scriptSig": {"hex": "160014b922402bc26276799e25350d773ec6e98cc6273a", "asm": "0014b922402bc26276799e25350d773ec6e98cc6273a"}, "vout": 3, "txid": "d124e37da22f686ab7780ee1c8ff8acda76c750389d29dfa707f9b2ccf30e32b"}], "txid": "0cf3f4ca1825917e12aeee479dc5f2e2ae73f7e530b0c6690eb7a9ad37fb0193", "blocktime": 1537870268, "version": 1, "confirmations": 11518, "time": 1537870268, "locktime": 0, "vsize": 134, "size": 216}