{"hash": "0d0841207dd868885300838ab73884fdf09d8cabf3b04591828226961052a2ac", "blockhash": "00000000000000000017f5eb5941039fbcee6240d03bc1f2f8e35350df66a1d8", "vout": [{"scriptPubKey": {"reqSigs": 1, "hex": "76a914d9e7f5810a9ae7435feae08c0242a80d7b927a8288ac", "addresses": ["1LsBWRRXv3UFJonPTDedvd1rF9ZD9tGALP"], "asm": "OP_DUP OP_HASH160 d9e7f5810a9ae7435feae08c0242a80d7b927a82 OP_EQUALVERIFY OP_CHECKSIG", "type": "pubkeyhash"}, "value": 0.00035534, "n": 0}, {"scriptPubKey": {"reqSigs": 1, "hex": "a914e038fa39eb1c57b2b3cb7f68d5c5ddca16cc066f87", "addresses": ["3N8bYNmaexhwq4Z88kQTWoVr3PkWJsofC7"], "asm": "OP_HASH160 e038fa39eb1c57b2b3cb7f68d5c5ddca16cc066f OP_EQUAL", "type": "scripthash"}, "value": 0.00781973, "n": 1}], "hex": "0100000004ba15e1899afb2c3cfefd9d1ff23fbdfeec7102a801bc03f7efd43bb4a8cbbf27000000006a47304402201afa1c61a84b7e329ad22e11f66f09c55b3604e9b388cdce340361d64d59b5a4022051d0377fed4b54572182256ceed82afa8114aacb7fb4a804f6d7b15f96120d37012103fae78a9981951d24a113b16181af2c7da81a7565a01704588d15c48f853f1399ffffffff0fafdebcf6a34d62572db7ca2abb18d3e686777ccca49b3a8217fac88d50304a010000006a473044022062656e84542a037cfc8a7bff4ce931203f56d756e3f7ca5b495fb804b531728a02202f1919df58eeb44610c13147a9e0c92a4c2e7734187fa818735d8f848ba58d2c012102580c6a3fef1619f83cb1f283df3c23b2614e8770625ed234e01bb60355acff2dffffffff5c693a432711dae4bf8b4c4a99d39f22e45bf755d316488d344785d8553f235a010000006b483045022100e8e7008765a01f429ececf11dfbfb21473801e005e665c5dd5c8947aec1cbef5022008347b2a2cd2da5684f1547962891ad22283c6166eb9965c64ad1a18e6f84945012103dd7bd005d8c4902cd7a61301c27e28dcfd4c227eebf4a8b1fdebff1132a94286ffffffff884c4dd619012d571bc4306bc7ca40e15645cb8ae357ccc2a1705657ace3d98d000000006a4730440220115fd741be9ac351f616624ad6da91321e6f85a944f3e8aa3c2f5cfcf27668df02206b0b7816a7509491a6376cb054a4ae9484ff0bc7372e8e0177e772f4dca10d3f012102f99d6a27b513f0111d0a7696f34762478d2a0f0b5b6396959c202d265bbbaed2ffffffff02ce8a0000000000001976a914d9e7f5810a9ae7435feae08c0242a80d7b927a8288ac95ee0b000000000017a914e038fa39eb1c57b2b3cb7f68d5c5ddca16cc066f8700000000", "vin": [{"sequence": 4294967295, "scriptSig": {"hex": "47304402201afa1c61a84b7e329ad22e11f66f09c55b3604e9b388cdce340361d64d59b5a4022051d0377fed4b54572182256ceed82afa8114aacb7fb4a804f6d7b15f96120d37012103fae78a9981951d24a113b16181af2c7da81a7565a01704588d15c48f853f1399", "asm": "304402201afa1c61a84b7e329ad22e11f66f09c55b3604e9b388cdce340361d64d59b5a4022051d0377fed4b54572182256ceed82afa8114aacb7fb4a804f6d7b15f96120d37[ALL] 03fae78a9981951d24a113b16181af2c7da81a7565a01704588d15c48f853f1399"}, "vout": 0, "txid": "27bfcba8b43bd4eff703bc01a80271ecfebd3ff21f9dfdfe3c2cfb9a89e115ba"}, {"sequence": 4294967295, "scriptSig": {"hex": "473044022062656e84542a037cfc8a7bff4ce931203f56d756e3f7ca5b495fb804b531728a02202f1919df58eeb44610c13147a9e0c92a4c2e7734187fa818735d8f848ba58d2c012102580c6a3fef1619f83cb1f283df3c23b2614e8770625ed234e01bb60355acff2d", "asm": "3044022062656e84542a037cfc8a7bff4ce931203f56d756e3f7ca5b495fb804b531728a02202f1919df58eeb44610c13147a9e0c92a4c2e7734187fa818735d8f848ba58d2c[ALL] 02580c6a3fef1619f83cb1f283df3c23b2614e8770625ed234e01bb60355acff2d"}, "vout": 1, "txid": "4a30508dc8fa17823a9ba4cc7c7786e6d318bb2acab72d57624da3f6bcdeaf0f"}, {"sequence": 4294967295, "scriptSig": {"hex": "483045022100e8e7008765a01f429ececf11dfbfb21473801e005e665c5dd5c8947aec1cbef5022008347b2a2cd2da5684f1547962891ad22283c6166eb9965c64ad1a18e6f84945012103dd7bd005d8c4902cd7a61301c27e28dcfd4c227eebf4a8b1fdebff1132a94286", "asm": "3045022100e8e7008765a01f429ececf11dfbfb21473801e005e665c5dd5c8947aec1cbef5022008347b2a2cd2da5684f1547962891ad22283c6166eb9965c64ad1a18e6f84945[ALL] 03dd7bd005d8c4902cd7a61301c27e28dcfd4c227eebf4a8b1fdebff1132a94286"}, "vout": 1, "txid": "5a233f55d88547348d4816d355f75be4229fd3994a4c8bbfe4da1127433a695c"}, {"sequence": 4294967295, "scriptSig": {"hex": "4730440220115fd741be9ac351f616624ad6da91321e6f85a944f3e8aa3c2f5cfcf27668df02206b0b7816a7509491a6376cb054a4ae9484ff0bc7372e8e0177e772f4dca10d3f012102f99d6a27b513f0111d0a7696f34762478d2a0f0b5b6396959c202d265bbbaed2", "asm": "30440220115fd741be9ac351f616624ad6da91321e6f85a944f3e8aa3c2f5cfcf27668df02206b0b7816a7509491a6376cb054a4ae9484ff0bc7372e8e0177e772f4dca10d3f[ALL] 02f99d6a27b513f0111d0a7696f34762478d2a0f0b5b6396959c202d265bbbaed2"}, "vout": 0, "txid": "8dd9e3ac575670a1c2cc57e38acb4556e140cac76b30c41b572d0119d64d4c88"}], "txid": "0d0841207dd868885300838ab73884fdf09d8cabf3b04591828226961052a2ac", "blocktime": 1537874412, "version": 1, "confirmations": 11467, "time": 1537874412, "locktime": 0, "vsize": 665, "size": 665}