{"hash": "0d098b5137417eacaed91745d1bf21d1f5d54c4021b2911ff41c9c31e6ce3916", "blockhash": "000000000000000000205f8b0775d31398ef75b89a5e8ec8d2c57b4dc0ac4c20", "vout": [{"scriptPubKey": {"reqSigs": 1, "hex": "76a9143228b1d44fb3d698778444dc211eaa8dc96eac4788ac", "addresses": ["15aDY76WPojjSqUtJ6b6CPqzpX7AF2BGgx"], "asm": "OP_DUP OP_HASH160 3228b1d44fb3d698778444dc211eaa8dc96eac47 OP_EQUALVERIFY OP_CHECKSIG", "type": "pubkeyhash"}, "value": 0.03806766, "n": 0}, {"scriptPubKey": {"reqSigs": 1, "hex": "76a9140dfb9a396d85b7c6094575e036a79b65877a367688ac", "addresses": ["12GwC8zGyLN5VdYsVAeSTWfWLKoQHC1Ckc"], "asm": "OP_DUP OP_HASH160 0dfb9a396d85b7c6094575e036a79b65877a3676 OP_EQUALVERIFY OP_CHECKSIG", "type": "pubkeyhash"}, "value": 0.0781201, "n": 1}], "hex": "0100000001ebbbbc12110b6268e415522e776bbaa7eb9aa729a54d097b57fd7efc9ab90755000000006b4830450221008b43348d63e0d7ceadd80e7efe63fed5470959d7b11b5a3535d4a64f752d5d8302206b3bcc04ccd661afe67ec730e335a962411c2005df4ad4f9a6c8612502eea9bc012103c32362d8cd97a335d31f2a4cc5398f22a3d37457dc6e66507ad9a4cf803ec948ffffffff022e163a00000000001976a9143228b1d44fb3d698778444dc211eaa8dc96eac4788acaa337700000000001976a9140dfb9a396d85b7c6094575e036a79b65877a367688ac00000000", "vin": [{"sequence": 4294967295, "scriptSig": {"hex": "4830450221008b43348d63e0d7ceadd80e7efe63fed5470959d7b11b5a3535d4a64f752d5d8302206b3bcc04ccd661afe67ec730e335a962411c2005df4ad4f9a6c8612502eea9bc012103c32362d8cd97a335d31f2a4cc5398f22a3d37457dc6e66507ad9a4cf803ec948", "asm": "30450221008b43348d63e0d7ceadd80e7efe63fed5470959d7b11b5a3535d4a64f752d5d8302206b3bcc04ccd661afe67ec730e335a962411c2005df4ad4f9a6c8612502eea9bc[ALL] 03c32362d8cd97a335d31f2a4cc5398f22a3d37457dc6e66507ad9a4cf803ec948"}, "vout": 0, "txid": "5507b99afc7efd577b094da529a79aeba7ba6b772e5215e468620b1112bcbbeb"}], "txid": "0d098b5137417eacaed91745d1bf21d1f5d54c4021b2911ff41c9c31e6ce3916", "blocktime": 1537871175, "version": 1, "confirmations": 11511, "time": 1537871175, "locktime": 0, "vsize": 226, "size": 226}