{"hash": "29fcde757b27838095084767d5f62ba9dd3433ebe415cf2ecdf311de8a268f4b", "blockhash": "0000000000000000000dcc0f55137456b1a82d3642486a52398922ac4d620174", "vout": [{"scriptPubKey": {"reqSigs": 1, "hex": "0014a8b8c9b30c4e6013355863a2743d1df2da587f44", "addresses": ["bc1q4zuvnvcvfespxd2cvw38g0ga7td9sl6yvh72je"], "asm": "0 a8b8c9b30c4e6013355863a2743d1df2da587f44", "type": "witness_v0_keyhash"}, "value": 0.00140721, "n": 0}, {"scriptPubKey": {"reqSigs": 1, "hex": "a914dc6f6295495e74bb6047d7f962569bf863b33dd187", "addresses": ["3Mna1vD6hkUKrZ1JLqVKTPQkJAwndB6tZB"], "asm": "OP_HASH160 dc6f6295495e74bb6047d7f962569bf863b33dd1 OP_EQUAL", "type": "scripthash"}, "value": 0.01908699, "n": 1}], "hex": "01000000000101eeda3860577b747d5df716588c999556abb2aca05db8d9ab44bbe614562043860000000017160014ae7f5cf9e7132a0042aca3858e3c36aca9bae06affffffff02b125020000000000160014a8b8c9b30c4e6013355863a2743d1df2da587f44db1f1d000000000017a914dc6f6295495e74bb6047d7f962569bf863b33dd1870248304502210086b520152b627e7da1bc7d9e0be8d88d17371745bd35319816e7e7ecfba5792c0220584e75632659b31c7598ace57ad89d539a4f665606deb2e83c681d7390655dd9012103277507bbbea007a19d97548704ed4488b607d0586c4d3d4583ff148e9693950f00000000", "vin": [{"txinwitness": ["304502210086b520152b627e7da1bc7d9e0be8d88d17371745bd35319816e7e7ecfba5792c0220584e75632659b31c7598ace57ad89d539a4f665606deb2e83c681d7390655dd901", "03277507bbbea007a19d97548704ed4488b607d0586c4d3d4583ff148e9693950f"], "sequence": 4294967295, "scriptSig": {"hex": "160014ae7f5cf9e7132a0042aca3858e3c36aca9bae06a", "asm": "0014ae7f5cf9e7132a0042aca3858e3c36aca9bae06a"}, "vout": 0, "txid": "8643205614e6bb44abd9b85da0acb2ab5695998c5816f75d7d747b576038daee"}], "txid": "0d0de5359405e46f87a5e52dc87249fea19e37d9f86372d5856dd3163b4682c0", "blocktime": 1537870268, "version": 1, "confirmations": 11518, "time": 1537870268, "locktime": 0, "vsize": 165, "size": 247}