{"hash": "b3d8fdbdef66fd493c07d768ffbd283929d79e51bc8b0cecc165ce158c51004b", "blockhash": "00000000000000000017f5eb5941039fbcee6240d03bc1f2f8e35350df66a1d8", "vout": [{"scriptPubKey": {"reqSigs": 1, "hex": "001451e37fec6cfc2e8861b440fc1bba04dc34514ad1", "addresses": ["bc1q283hlmrvlshgscd5gr7phwsyms69zjk333eynz"], "asm": "0 51e37fec6cfc2e8861b440fc1bba04dc34514ad1", "type": "witness_v0_keyhash"}, "value": 0.73052148, "n": 0}, {"scriptPubKey": {"reqSigs": 1, "hex": "a91469f374b9d534cebb76465cea1effcd29ad7396a687", "addresses": ["3BMEXJWLLgYBX9GVNmpU6GwANyVeMwNeLv"], "asm": "OP_HASH160 69f374b9d534cebb76465cea1effcd29ad7396a6 OP_EQUAL", "type": "scripthash"}, "value": 0.02194045, "n": 1}], "hex": "010000000001012af3b11079fc2a82f109793c232756796bc8861640cf685a35daa31eebf895e70100000000ffffffff02f4af5a040000000016001451e37fec6cfc2e8861b440fc1bba04dc34514ad17d7a21000000000017a91469f374b9d534cebb76465cea1effcd29ad7396a687024830450221009ea40b4286d6e8731fe626ed5ad2368f79d02961b90af2c3fc422438ade03a3b02203e88c336cee9c0a219996431be636fb6c7dadbf2dd886f17dbbb3e618112ccdb012102e5361bb8c446ba88347c3be46da3346f491d65e16931d446efa73e2f3faf33be00000000", "vin": [{"txinwitness": ["30450221009ea40b4286d6e8731fe626ed5ad2368f79d02961b90af2c3fc422438ade03a3b02203e88c336cee9c0a219996431be636fb6c7dadbf2dd886f17dbbb3e618112ccdb01", "02e5361bb8c446ba88347c3be46da3346f491d65e16931d446efa73e2f3faf33be"], "sequence": 4294967295, "scriptSig": {"hex": "", "asm": ""}, "vout": 1, "txid": "e795f8eb1ea3da355a68cf401686c86b795627233c7909f1822afc7910b1f32a"}], "txid": "0d0f83630d93f01496d4c25592761ee0527152d6fbdb93379f55975d231f92d6", "blocktime": 1537874412, "version": 1, "confirmations": 11467, "time": 1537874412, "locktime": 0, "vsize": 142, "size": 224}