{"hash": "0d1214252c0f177fd43ba0f99270df104dd63745402b393dddf5a2363d6e7a07", "blockhash": "0000000000000000000e13cef7c366c0283d82e591d1acd082e914b08063cdf1", "vout": [{"scriptPubKey": {"type": "nulldata", "hex": "6a4c5000007794000197b46aacbf9d8ecbd73510f5e3ef3236678a625097bcbefa6b8351586b4ecfd1cf2fc0f8da7267914631a8e740655baa0cd806147062147c1c74bc9a9526289ac0f6612cd74e33776ee4", "asm": "OP_RETURN 00007794000197b46aacbf9d8ecbd73510f5e3ef3236678a625097bcbefa6b8351586b4ecfd1cf2fc0f8da7267914631a8e740655baa0cd806147062147c1c74bc9a9526289ac0f6612cd74e33776ee4"}, "value": 0.0, "n": 0}, {"scriptPubKey": {"reqSigs": 1, "hex": "76a914ed8026fb9f288691cced2316233d42565de5654688ac", "addresses": ["1Nenfe8LZHrid98JbS3FKAsstDs4sS4u7r"], "asm": "OP_DUP OP_HASH160 ed8026fb9f288691cced2316233d42565de56546 OP_EQUALVERIFY OP_CHECKSIG", "type": "pubkeyhash"}, "value": 0.001018, "n": 1}], "hex": "0100000001337137dfb641c7dd4698bf4ad57d7c199d7bd65d08b4deceb5c52febe189efca000000006b483045022100b2a1d313fa21d0234c5a86c869301438d90562d488695def51e2e60f42221366022046a88608e5fe7b40b4ae2d4e6e7311f10da20edc2da0b23f3c2266fe74d323570121038649aac362d26fb3df139eaf2bdab3ff09dafce8cf53086b815e1e744a0014f1ffffffff020000000000000000536a4c5000007794000197b46aacbf9d8ecbd73510f5e3ef3236678a625097bcbefa6b8351586b4ecfd1cf2fc0f8da7267914631a8e740655baa0cd806147062147c1c74bc9a9526289ac0f6612cd74e33776ee4a88d0100000000001976a914ed8026fb9f288691cced2316233d42565de5654688ac00000000", "vin": [{"sequence": 4294967295, "scriptSig": {"hex": "483045022100b2a1d313fa21d0234c5a86c869301438d90562d488695def51e2e60f42221366022046a88608e5fe7b40b4ae2d4e6e7311f10da20edc2da0b23f3c2266fe74d323570121038649aac362d26fb3df139eaf2bdab3ff09dafce8cf53086b815e1e744a0014f1", "asm": "3045022100b2a1d313fa21d0234c5a86c869301438d90562d488695def51e2e60f42221366022046a88608e5fe7b40b4ae2d4e6e7311f10da20edc2da0b23f3c2266fe74d32357[ALL] 038649aac362d26fb3df139eaf2bdab3ff09dafce8cf53086b815e1e744a0014f1"}, "vout": 0, "txid": "caef89e1eb2fc5b5cedeb4085dd67b9d197c7dd54abf9846ddc741b6df377133"}], "txid": "0d1214252c0f177fd43ba0f99270df104dd63745402b393dddf5a2363d6e7a07", "blocktime": 1537871767, "version": 1, "confirmations": 11493, "time": 1537871767, "locktime": 0, "vsize": 284, "size": 284}