{"hash": "0d136583c626456456811a21dbf96fe25f744c60b8f01ec413458c17d5a089f1", "blockhash": "0000000000000000001f76057863aec43deb6fa401d9628bb513d65a8098bfab", "vout": [{"scriptPubKey": {"reqSigs": 1, "hex": "76a914c2bf41c709bfe6efb06692d73a124a77edb7811b88ac", "addresses": ["1JkjCysNhLemJcUatYb548HroeBBGQvVWd"], "asm": "OP_DUP OP_HASH160 c2bf41c709bfe6efb06692d73a124a77edb7811b OP_EQUALVERIFY OP_CHECKSIG", "type": "pubkeyhash"}, "value": 0.0007, "n": 0}, {"scriptPubKey": {"reqSigs": 1, "hex": "76a9142905c419f20f43091f8e4dfd328625c58d82ce1e88ac", "addresses": ["14jucVirzFU4YNPiuFdsGbQEvsSkpb8kKh"], "asm": "OP_DUP OP_HASH160 2905c419f20f43091f8e4dfd328625c58d82ce1e OP_EQUALVERIFY OP_CHECKSIG", "type": "pubkeyhash"}, "value": 0.03530373, "n": 1}], "hex": "0200000001fa6f85263f49c975b819d999ff30464b370b08dde7807628ef2ba7c11e6ce9f3010000006b4830450221009f948c25e02539e14a02cd4906b7514bcf03259446af0a1f52fe6f796ccb32e402206ad7e577f4e4b18cb62c2b18d6aa02bb7060afdefb82b7217a6323f265669d1c012102553619577d3b092e0dbd1d1f75ca7faa85e1f576ca2891c8ff3bc04d72904356ffffffff0270110100000000001976a914c2bf41c709bfe6efb06692d73a124a77edb7811b88ac85de3500000000001976a9142905c419f20f43091f8e4dfd328625c58d82ce1e88ac00000000", "vin": [{"sequence": 4294967295, "scriptSig": {"hex": "4830450221009f948c25e02539e14a02cd4906b7514bcf03259446af0a1f52fe6f796ccb32e402206ad7e577f4e4b18cb62c2b18d6aa02bb7060afdefb82b7217a6323f265669d1c012102553619577d3b092e0dbd1d1f75ca7faa85e1f576ca2891c8ff3bc04d72904356", "asm": "30450221009f948c25e02539e14a02cd4906b7514bcf03259446af0a1f52fe6f796ccb32e402206ad7e577f4e4b18cb62c2b18d6aa02bb7060afdefb82b7217a6323f265669d1c[ALL] 02553619577d3b092e0dbd1d1f75ca7faa85e1f576ca2891c8ff3bc04d72904356"}, "vout": 1, "txid": "f3e96c1ec1a72bef287680e7dd080b374b4630ff99d919b875c9493f26856ffa"}], "txid": "0d136583c626456456811a21dbf96fe25f744c60b8f01ec413458c17d5a089f1", "blocktime": 1537873891, "version": 2, "confirmations": 11475, "time": 1537873891, "locktime": 0, "vsize": 226, "size": 226}