{"hash": "0fda5d612e6b29bb173f0935cf59ce2d92f5e88e8cb4b0f766118501795b611d", "blockhash": "0000000000000000001cda96e906b7601b7a6fb1a3b62bca570a9e5d8f4b3de1", "vout": [{"scriptPubKey": {"reqSigs": 1, "hex": "76a9140f1a7f3ac57a068b3554c94e18d4f164b73bf13788ac", "addresses": ["12NrsvQ1juwvaCwHnhMkBFv2eR1hFm4q7S"], "asm": "OP_DUP OP_HASH160 0f1a7f3ac57a068b3554c94e18d4f164b73bf137 OP_EQUALVERIFY OP_CHECKSIG", "type": "pubkeyhash"}, "value": 1.7895, "n": 0}, {"scriptPubKey": {"reqSigs": 1, "hex": "a914fa3e67c661a8cf18608577afb817a6184f56f12287", "addresses": ["3QWBcW6nq5TgBLWBj7N3vsiMZsErQqVimn"], "asm": "OP_HASH160 fa3e67c661a8cf18608577afb817a6184f56f122 OP_EQUAL", "type": "scripthash"}, "value": 0.86183243, "n": 1}], "hex": "0200000000010178c0adb52ae9e6b6609e4b33a891b035ae86cde6c993ccec726809c34b38a97d010000001716001420dda50a97920b7098a3c6725f834dcfe114324bfeffffff02708faa0a000000001976a9140f1a7f3ac57a068b3554c94e18d4f164b73bf13788ac4b0d23050000000017a914fa3e67c661a8cf18608577afb817a6184f56f1228702483045022100d30b7eab37ff4bf6b58c4c52ae989773503263cbe8091217beba1bf79ab265b802201a2a8a51b00c8170e4a959c1259b3ba1adf5bd8bfe0ed82fe42894747834820201210286d1a7bb3e065408f8cfe0c0b70379a0b4ac3b8ba4f44914a22d57181f55e6b613490800", "vin": [{"txinwitness": ["3045022100d30b7eab37ff4bf6b58c4c52ae989773503263cbe8091217beba1bf79ab265b802201a2a8a51b00c8170e4a959c1259b3ba1adf5bd8bfe0ed82fe42894747834820201", "0286d1a7bb3e065408f8cfe0c0b70379a0b4ac3b8ba4f44914a22d57181f55e6b6"], "sequence": 4294967294, "scriptSig": {"hex": "16001420dda50a97920b7098a3c6725f834dcfe114324b", "asm": "001420dda50a97920b7098a3c6725f834dcfe114324b"}, "vout": 1, "txid": "7da9384bc3096872eccc93c9e6cd86ae35b091a8334b9e60b6e6e92ab5adc078"}], "txid": "0d18039ceee0bb2d4cf0744df288656c458785a7c334bbe2ffcdf3737af739db", "blocktime": 1537873282, "version": 2, "confirmations": 11484, "time": 1537873282, "locktime": 542995, "vsize": 168, "size": 250}