{"hash": "0d1a0e2b2654f8d87f085858f65ef877e44381ffeb14926fa6be2bf2cb423012", "blockhash": "00000000000000000004ffacab907a6b429b9a5745fa0b75af4234bf69dd7176", "vout": [{"scriptPubKey": {"reqSigs": 1, "hex": "76a914a25dec4d0011064ef106a983c39c7a540699f22088ac", "addresses": ["1FoWyxwPXuj4C6abqwhjDWdz6D4PZgYRjA"], "asm": "OP_DUP OP_HASH160 a25dec4d0011064ef106a983c39c7a540699f220 OP_EQUALVERIFY OP_CHECKSIG", "type": "pubkeyhash"}, "value": 0.01976027, "n": 0}, {"scriptPubKey": {"type": "nulldata", "hex": "6a146f6d6e69000000000000001f0000001fa4d1388c", "asm": "OP_RETURN 6f6d6e69000000000000001f0000001fa4d1388c"}, "value": 0.0, "n": 1}, {"scriptPubKey": {"reqSigs": 1, "hex": "76a914dd9fff5df0279e7d27e38982e557f9a3d3d1bd2588ac", "addresses": ["1MCr1Dd19XzJnsTWwcthc5HS9fzVcJNTfc"], "asm": "OP_DUP OP_HASH160 dd9fff5df0279e7d27e38982e557f9a3d3d1bd25 OP_EQUALVERIFY OP_CHECKSIG", "type": "pubkeyhash"}, "value": 5.46e-06, "n": 2}], "hex": "010000000143a88178caaf87b02e500ffa7d024afd6701275dbaf21f30a186e5a92b957801000000006a47304402205ae85a47296e4f935e8f5707be8d1cf1e564352be8ddfaf6a5bcdf4cfefa5fd202200f8db46bdfd47868f70fda8ca66ef9db800c11df4bf650308d789723948cea77012103da5bac7b36d5aa38f531c6b9601e21bb598a4b6716ebed38b009a55dabde9440feffffff03db261e00000000001976a914a25dec4d0011064ef106a983c39c7a540699f22088ac0000000000000000166a146f6d6e69000000000000001f0000001fa4d1388c22020000000000001976a914dd9fff5df0279e7d27e38982e557f9a3d3d1bd2588accb480800", "vin": [{"sequence": 4294967294, "scriptSig": {"hex": "47304402205ae85a47296e4f935e8f5707be8d1cf1e564352be8ddfaf6a5bcdf4cfefa5fd202200f8db46bdfd47868f70fda8ca66ef9db800c11df4bf650308d789723948cea77012103da5bac7b36d5aa38f531c6b9601e21bb598a4b6716ebed38b009a55dabde9440", "asm": "304402205ae85a47296e4f935e8f5707be8d1cf1e564352be8ddfaf6a5bcdf4cfefa5fd202200f8db46bdfd47868f70fda8ca66ef9db800c11df4bf650308d789723948cea77[ALL] 03da5bac7b36d5aa38f531c6b9601e21bb598a4b6716ebed38b009a55dabde9440"}, "vout": 0, "txid": "0178952ba9e586a1301ff2ba5d270167fd4a027dfa0f502eb087afca7881a843"}], "txid": "0d1a0e2b2654f8d87f085858f65ef877e44381ffeb14926fa6be2bf2cb423012", "blocktime": 1537875543, "version": 1, "confirmations": 11464, "time": 1537875543, "locktime": 542923, "vsize": 256, "size": 256}