{"hash": "0d1c9f1e9c6d177bd8762d475c22847c125d3f01109a46873b8bdd9d13a5069a", "blockhash": "000000000000000000022b45ed06c6f4ccd3cf7fb5ba4856ebd2e58215665228", "vout": [{"scriptPubKey": {"reqSigs": 1, "hex": "76a914d03c2d3bcf0d46f91a9771a72064c63b64b713bf88ac", "addresses": ["1Kz3e3wcXPbFSuTPJ8cfADJiwxZ6AYLDNK"], "asm": "OP_DUP OP_HASH160 d03c2d3bcf0d46f91a9771a72064c63b64b713bf OP_EQUALVERIFY OP_CHECKSIG", "type": "pubkeyhash"}, "value": 0.00545837, "n": 0}, {"scriptPubKey": {"reqSigs": 1, "hex": "a91499729b8ad0a3715debd1a05fb23b711c17a9443c87", "addresses": ["3FgNby8SxZBxd9aVcd5pof5LYmv374qLrQ"], "asm": "OP_HASH160 99729b8ad0a3715debd1a05fb23b711c17a9443c OP_EQUAL", "type": "scripthash"}, "value": 0.00445, "n": 1}, {"scriptPubKey": {"reqSigs": 1, "hex": "76a914ae4b84fc485fba846b9731e7ba35329de2fd5d8c88ac", "addresses": ["1Gtb3Zgrn6edLgW4C9EU1q5u8dyBrMQQbN"], "asm": "OP_DUP OP_HASH160 ae4b84fc485fba846b9731e7ba35329de2fd5d8c OP_EQUALVERIFY OP_CHECKSIG", "type": "pubkeyhash"}, "value": 0.03117265, "n": 2}, {"scriptPubKey": {"reqSigs": 1, "hex": "a9146efa47c6a40671efab59c4723027b4cd5b1f41b287", "addresses": ["3Bop5Rv8HjnLsbeDpn6doFnzJFzVebn5zD"], "asm": "OP_HASH160 6efa47c6a40671efab59c4723027b4cd5b1f41b2 OP_EQUAL", "type": "scripthash"}, "value": 0.01694435, "n": 3}, {"scriptPubKey": {"reqSigs": 1, "hex": "a91426f5c02f1ed3743f5a430c8d7b71921bf1498a2787", "addresses": ["35F1ztizw1vBLy5eiegtEUfdWw1ZuZF2Xu"], "asm": "OP_HASH160 26f5c02f1ed3743f5a430c8d7b71921bf1498a27 OP_EQUAL", "type": "scripthash"}, "value": 0.00121241, "n": 4}], "hex": "02000000051aae8dfe80b4d27744c0586f79c2fd9bf9b9c0ffcb30a964ac1f211c061cb5a4170000006b483045022100b583b2a321c2fe981968d180ea51472ef40aa9fd39a6609409d68cfde1c7536302202323662426a750b31c0134df1894ec12dc984649fc4dd7c9712695765d8fbbb0012102c2ab9e529bd82f5e3e888066a3cef36eed0fe48575ddb6109454fa953b40eadbfeffffff78ae617ee341eccdd2b31361ddcc9c9ba1d9179940e75ac2555b0e9299816a42000000006b483045022100ffe31ac068317b44e4b25dbf44952c8f56eaf019cbf062899acadf551236466a02200f643e18d90744d98ac978e67b38ced973605a5c6ff0c1a09b535c317c149978012103f978d87ddbf6d4d5e07f7b53517ba95700834feb7009ffabe5b45d72853ee395feffffffc26c7e51f329fe681a5d712dace25ec3e060ffd881c8354fc8f684375c3db0c3490100006b483045022100d903da3e7b5f6dbbf649ae68816d48caeba5b4fb2ab6cc3635d1ebbd977a6da802203ba76800439ef500d56cb4eb91bdf1bd838174441c8463de6e31a9dbe434d5e4012102f67c6a60aa798dbc325902299228afb26019a412fe907cb67162ee0a384f8fe1feffffffc94e8c74799a572d24733441d7acd5866318465b896cb2281c09bcbeded89f05740000006b483045022100918991206f8910bac2c9db2cac074903404f44310b339571c81cdbe56b847c1102205c146f2477e19059596582961107b681e87ee9840d420c80c7a429145412dc8301210310ef330eb4126e2937f337ca915eed5c0d2c56f2519164c9b46b7187c9d8ac08feffffffed24bf93b3a1fa87bd0a915faf7bd6d898c4cd9634f8c96ab41bf327cc33f0f63d0100006a47304402203108e08b19fb22ebdbf24f2bec6f8eed826c97346b1065d40e64ef816a7101790220228b2853aa20472a0786c6397c2875d7fd7ac91aa237cfedcd669313c66e51f701210393c13da640814e1ba0b5578d3b83e89e9cee592a0cdb561c9dde8b53249b9527feffffff052d540800000000001976a914d03c2d3bcf0d46f91a9771a72064c63b64b713bf88ac48ca06000000000017a91499729b8ad0a3715debd1a05fb23b711c17a9443c87d1902f00000000001976a914ae4b84fc485fba846b9731e7ba35329de2fd5d8c88ace3da19000000000017a9146efa47c6a40671efab59c4723027b4cd5b1f41b28799d901000000000017a91426f5c02f1ed3743f5a430c8d7b71921bf1498a27870b490800", "vin": [{"sequence": 4294967294, "scriptSig": {"hex": "483045022100b583b2a321c2fe981968d180ea51472ef40aa9fd39a6609409d68cfde1c7536302202323662426a750b31c0134df1894ec12dc984649fc4dd7c9712695765d8fbbb0012102c2ab9e529bd82f5e3e888066a3cef36eed0fe48575ddb6109454fa953b40eadb", "asm": "3045022100b583b2a321c2fe981968d180ea51472ef40aa9fd39a6609409d68cfde1c7536302202323662426a750b31c0134df1894ec12dc984649fc4dd7c9712695765d8fbbb0[ALL] 02c2ab9e529bd82f5e3e888066a3cef36eed0fe48575ddb6109454fa953b40eadb"}, "vout": 23, "txid": "a4b51c061c211fac64a930cbffc0b9f99bfdc2796f58c04477d2b480fe8dae1a"}, {"sequence": 4294967294, "scriptSig": {"hex": "483045022100ffe31ac068317b44e4b25dbf44952c8f56eaf019cbf062899acadf551236466a02200f643e18d90744d98ac978e67b38ced973605a5c6ff0c1a09b535c317c149978012103f978d87ddbf6d4d5e07f7b53517ba95700834feb7009ffabe5b45d72853ee395", "asm": "3045022100ffe31ac068317b44e4b25dbf44952c8f56eaf019cbf062899acadf551236466a02200f643e18d90744d98ac978e67b38ced973605a5c6ff0c1a09b535c317c149978[ALL] 03f978d87ddbf6d4d5e07f7b53517ba95700834feb7009ffabe5b45d72853ee395"}, "vout": 0, "txid": "426a8199920e5b55c25ae7409917d9a19b9cccdd6113b3d2cdec41e37e61ae78"}, {"sequence": 4294967294, "scriptSig": {"hex": "483045022100d903da3e7b5f6dbbf649ae68816d48caeba5b4fb2ab6cc3635d1ebbd977a6da802203ba76800439ef500d56cb4eb91bdf1bd838174441c8463de6e31a9dbe434d5e4012102f67c6a60aa798dbc325902299228afb26019a412fe907cb67162ee0a384f8fe1", "asm": "3045022100d903da3e7b5f6dbbf649ae68816d48caeba5b4fb2ab6cc3635d1ebbd977a6da802203ba76800439ef500d56cb4eb91bdf1bd838174441c8463de6e31a9dbe434d5e4[ALL] 02f67c6a60aa798dbc325902299228afb26019a412fe907cb67162ee0a384f8fe1"}, "vout": 329, "txid": "c3b03d5c3784f6c84f35c881d8ff60e0c35ee2ac2d715d1a68fe29f3517e6cc2"}, {"sequence": 4294967294, "scriptSig": {"hex": "483045022100918991206f8910bac2c9db2cac074903404f44310b339571c81cdbe56b847c1102205c146f2477e19059596582961107b681e87ee9840d420c80c7a429145412dc8301210310ef330eb4126e2937f337ca915eed5c0d2c56f2519164c9b46b7187c9d8ac08", "asm": "3045022100918991206f8910bac2c9db2cac074903404f44310b339571c81cdbe56b847c1102205c146f2477e19059596582961107b681e87ee9840d420c80c7a429145412dc83[ALL] 0310ef330eb4126e2937f337ca915eed5c0d2c56f2519164c9b46b7187c9d8ac08"}, "vout": 116, "txid": "059fd8debebc091c28b26c895b46186386d5acd7413473242d579a79748c4ec9"}, {"sequence": 4294967294, "scriptSig": {"hex": "47304402203108e08b19fb22ebdbf24f2bec6f8eed826c97346b1065d40e64ef816a7101790220228b2853aa20472a0786c6397c2875d7fd7ac91aa237cfedcd669313c66e51f701210393c13da640814e1ba0b5578d3b83e89e9cee592a0cdb561c9dde8b53249b9527", "asm": "304402203108e08b19fb22ebdbf24f2bec6f8eed826c97346b1065d40e64ef816a7101790220228b2853aa20472a0786c6397c2875d7fd7ac91aa237cfedcd669313c66e51f7[ALL] 0393c13da640814e1ba0b5578d3b83e89e9cee592a0cdb561c9dde8b53249b9527"}, "vout": 317, "txid": "f6f033cc27f31bb46ac9f83496cdc498d8d67baf5f910abd87faa1b393bf24ed"}], "txid": "0d1c9f1e9c6d177bd8762d475c22847c125d3f01109a46873b8bdd9d13a5069a", "blocktime": 1537869901, "version": 2, "confirmations": 11523, "time": 1537869901, "locktime": 542987, "vsize": 913, "size": 913}