{"hash": "ff9c31dd6ad1d18003f35ce8049882298fbbef7fad790b585cc88e0cb48b557b", "blockhash": "0000000000000000001f0ddff1eddb255c1121bcd4da4f1bc9a0da00cae72433", "vout": [{"scriptPubKey": {"reqSigs": 1, "hex": "76a9142e1b944fe7ffbe969fc1df8d662fd7b5d6303c9b88ac", "addresses": ["15Co856cRnFRCKwSSzECoyT3ozVhuFoJZ6"], "asm": "OP_DUP OP_HASH160 2e1b944fe7ffbe969fc1df8d662fd7b5d6303c9b OP_EQUALVERIFY OP_CHECKSIG", "type": "pubkeyhash"}, "value": 0.0030876, "n": 0}, {"scriptPubKey": {"reqSigs": 1, "hex": "a9143be337480f6b323ac3d8e2d371fb01705336d8ae87", "addresses": ["379fz6tFSSp6BQLwcaWYkoXzJjfK48LF2k"], "asm": "OP_HASH160 3be337480f6b323ac3d8e2d371fb01705336d8ae OP_EQUAL", "type": "scripthash"}, "value": 0.00999083, "n": 1}], "hex": "02000000000102aedc7fe11be3b535726e7e9e317b332a24788abaca98c713844382a71290a2c00000000017160014ac3051867a3137dcb0cb75f3436926474087d27bfeffffffbfb580b08ce4a37fb747398cad104dddeb0a141bda57f8c11681b29aab8597b50100000017160014d67846f054b8658c374af25945e2d05f79d80aa7feffffff0218b60400000000001976a9142e1b944fe7ffbe969fc1df8d662fd7b5d6303c9b88acab3e0f000000000017a9143be337480f6b323ac3d8e2d371fb01705336d8ae870247304402204db1b21e5da8588f52c6c60cc53964bccf3e47e3cd8653906bd7a4fb04fe9c36022061abd07f9b028389367ebcb884b5578d0e77f6c6f0f81206494f5a33bfdb3c62012103424a2b87fcb2f54ef516602d18a87aaee4dbaeed72eb7daf15f298ff6942b68502483045022100dfa5a3100378d9001cdc94abd7e1aea9130a87b124593830a8f405ba70cbcebb0220729f63915d2649bfce61154a2779f3559ec868548281c913c09cfbb00c38daab0121037a244bc21583e6bf83abdaa3689cda56221ef1d31277ab19c1e925ad44fff59208490800", "vin": [{"txinwitness": ["304402204db1b21e5da8588f52c6c60cc53964bccf3e47e3cd8653906bd7a4fb04fe9c36022061abd07f9b028389367ebcb884b5578d0e77f6c6f0f81206494f5a33bfdb3c6201", "03424a2b87fcb2f54ef516602d18a87aaee4dbaeed72eb7daf15f298ff6942b685"], "sequence": 4294967294, "scriptSig": {"hex": "160014ac3051867a3137dcb0cb75f3436926474087d27b", "asm": "0014ac3051867a3137dcb0cb75f3436926474087d27b"}, "vout": 0, "txid": "c0a29012a782438413c798caba8a78242a337b319e7e6e7235b5e31be17fdcae"}, {"txinwitness": ["3045022100dfa5a3100378d9001cdc94abd7e1aea9130a87b124593830a8f405ba70cbcebb0220729f63915d2649bfce61154a2779f3559ec868548281c913c09cfbb00c38daab01", "037a244bc21583e6bf83abdaa3689cda56221ef1d31277ab19c1e925ad44fff592"], "sequence": 4294967294, "scriptSig": {"hex": "160014d67846f054b8658c374af25945e2d05f79d80aa7", "asm": "0014d67846f054b8658c374af25945e2d05f79d80aa7"}, "vout": 1, "txid": "b59785ab9ab28116c1f857da1b140aebdd4d10ad8c3947b77fa3e48cb080b5bf"}], "txid": "0d1c0d24e0444afa7eb64a02ed967e6c2b2ae2463ce57a8da3d1e3c1114263f7", "blocktime": 1537872018, "version": 2, "confirmations": 11489, "time": 1537872018, "locktime": 542984, "vsize": 259, "size": 421}