{"hash": "aede5a7666f2a19dc08db2f2ff95023cbff7fec65bb1d08f4c93476932cb94a7", "blockhash": "00000000000000000018f53835495a110e01622372bf6ae95dc86f2b0ab887b0", "vout": [{"scriptPubKey": {"reqSigs": 1, "hex": "76a914eb3257daa592b3f5165eb06509ca4f9f3829e8ae88ac", "addresses": ["1NSc6zAdG2NGbjPLQwAjAuqjHSoq5KECT7"], "asm": "OP_DUP OP_HASH160 eb3257daa592b3f5165eb06509ca4f9f3829e8ae OP_EQUALVERIFY OP_CHECKSIG", "type": "pubkeyhash"}, "value": 1.99, "n": 0}, {"scriptPubKey": {"reqSigs": 1, "hex": "a914712d9465df3679829a28e898f082c684ec969e9887", "addresses": ["3C1St9nPJAKw17naEZQBa7HNNxhqRLX6Eb"], "asm": "OP_HASH160 712d9465df3679829a28e898f082c684ec969e98 OP_EQUAL", "type": "scripthash"}, "value": 0.023678, "n": 1}], "hex": "020000000001022902185006a0fa1b558b132aa5a0f440b45e7cbca14c906d482eb9521e9e1606010000006a47304402205338c12fa0f73ca53096ef42398e65fcabb1c958e5b5a3c5b46d742f760feea002203f8bc8f84c034cecee7834c9077b749c52337d351454f63838a4996445378bef0121030ccb5a35c5245927d49f69570cb664d5e5fea11f255ef4ca15eb10a585fbeebffefffffff1e866df348bfe538e5e286e99248acba9f08793f9eea21015a1043df954628d0100000017160014f21ff4f9ae16c24cbcd6deb4a764a20475a7da72feffffff02c07fdc0b000000001976a914eb3257daa592b3f5165eb06509ca4f9f3829e8ae88ac382124000000000017a914712d9465df3679829a28e898f082c684ec969e98870002483045022100965448c22f102d6a160cf4fdba3e1905048f0ccdbea9f3bed44d5fdb8c7b30c2022001724df2e390166e506a092d5c584f89273c7b3380e031753a5ea9b8c886351301210324adafbdeebd1616e9e824efe755fa4fd45ae7a7c88b462ec6c72705b5f192040e490800", "vin": [{"sequence": 4294967294, "scriptSig": {"hex": "47304402205338c12fa0f73ca53096ef42398e65fcabb1c958e5b5a3c5b46d742f760feea002203f8bc8f84c034cecee7834c9077b749c52337d351454f63838a4996445378bef0121030ccb5a35c5245927d49f69570cb664d5e5fea11f255ef4ca15eb10a585fbeebf", "asm": "304402205338c12fa0f73ca53096ef42398e65fcabb1c958e5b5a3c5b46d742f760feea002203f8bc8f84c034cecee7834c9077b749c52337d351454f63838a4996445378bef[ALL] 030ccb5a35c5245927d49f69570cb664d5e5fea11f255ef4ca15eb10a585fbeebf"}, "vout": 1, "txid": "06169e1e52b92e486d904ca1bc7c5eb440f4a0a52a138b551bfaa00650180229"}, {"txinwitness": ["3045022100965448c22f102d6a160cf4fdba3e1905048f0ccdbea9f3bed44d5fdb8c7b30c2022001724df2e390166e506a092d5c584f89273c7b3380e031753a5ea9b8c886351301", "0324adafbdeebd1616e9e824efe755fa4fd45ae7a7c88b462ec6c72705b5f19204"], "sequence": 4294967294, "scriptSig": {"hex": "160014f21ff4f9ae16c24cbcd6deb4a764a20475a7da72", "asm": "0014f21ff4f9ae16c24cbcd6deb4a764a20475a7da72"}, "vout": 1, "txid": "8d6254f93d04a11510a2eef99387f0a9cb8a24996e285e8e53fe8b34df66e8f1"}], "txid": "0d23a86043593226327442d05f5cb122b6544ec57868c3a5f83bc27cd35261f7", "blocktime": 1537870928, "version": 2, "confirmations": 11512, "time": 1537870928, "locktime": 542990, "vsize": 315, "size": 398}