{"hash": "0d23f75d2b489809aecb651a8273c2893499d79cfe2e753d3ff5323f08b4c63f", "blockhash": "00000000000000000017f5eb5941039fbcee6240d03bc1f2f8e35350df66a1d8", "vout": [{"scriptPubKey": {"reqSigs": 1, "hex": "76a914d243e6abb9a60fbff430b421d2df4b7d59ec186088ac", "addresses": ["1LAnF8h3qMGx3TSwNUHVneBZUEpwE4gu3D"], "asm": "OP_DUP OP_HASH160 d243e6abb9a60fbff430b421d2df4b7d59ec1860 OP_EQUALVERIFY OP_CHECKSIG", "type": "pubkeyhash"}, "value": 0.00076972, "n": 0}, {"scriptPubKey": {"reqSigs": 1, "hex": "76a9143851f34d13937b673a7d24a1950bb5b21ce94af388ac", "addresses": ["168o1kqNquEJeR9vosUB5fw4eAwcVAgh8P"], "asm": "OP_DUP OP_HASH160 3851f34d13937b673a7d24a1950bb5b21ce94af3 OP_EQUALVERIFY OP_CHECKSIG", "type": "pubkeyhash"}, "value": 5.46e-06, "n": 1}, {"scriptPubKey": {"type": "nulldata", "hex": "6a146f6d6e69000000000000001f0000021ef0123700", "asm": "OP_RETURN 6f6d6e69000000000000001f0000021ef0123700"}, "value": 0.0, "n": 2}], "hex": "0100000002cd741eb804469fa4feb82379e16c48d442bb50e4c9fc52b6bb6b97d981650d83010000006b483045022100ab27efec87aacdd56d5b149c01b012a516c893dfe13a8e2232299701b43384b2022032f0d0af240ecd8d18bc80e6da79419fa57b6ed19cc09266fa4073f9d7b32595012102471e8c75c9f36bf60f2ff3065fb056044a40ad57f2c081e005c8e6427f5dd038ffffffffc9913eba33f88ffc105ce4dbd9b50390b25e650b000e2effdd3e51d5532d9b0c000000006a473044022033830ea9836a1f5eb7542f94e146c2f54336cae3fd3273e19c9c48f6beffe89502201bf8ba73ff30fbe2291d328cff69e5d9a3d3b46d1c6c55e84709eda3e731173a01210271977291b74f1f5f5c42157e8aae804664eaaeccfd097918450d37f28fb94d77ffffffff03ac2c0100000000001976a914d243e6abb9a60fbff430b421d2df4b7d59ec186088ac22020000000000001976a9143851f34d13937b673a7d24a1950bb5b21ce94af388ac0000000000000000166a146f6d6e69000000000000001f0000021ef012370000000000", "vin": [{"sequence": 4294967295, "scriptSig": {"hex": "483045022100ab27efec87aacdd56d5b149c01b012a516c893dfe13a8e2232299701b43384b2022032f0d0af240ecd8d18bc80e6da79419fa57b6ed19cc09266fa4073f9d7b32595012102471e8c75c9f36bf60f2ff3065fb056044a40ad57f2c081e005c8e6427f5dd038", "asm": "3045022100ab27efec87aacdd56d5b149c01b012a516c893dfe13a8e2232299701b43384b2022032f0d0af240ecd8d18bc80e6da79419fa57b6ed19cc09266fa4073f9d7b32595[ALL] 02471e8c75c9f36bf60f2ff3065fb056044a40ad57f2c081e005c8e6427f5dd038"}, "vout": 1, "txid": "830d6581d9976bbbb652fcc9e450bb42d4486ce17923b8fea49f4604b81e74cd"}, {"sequence": 4294967295, "scriptSig": {"hex": "473044022033830ea9836a1f5eb7542f94e146c2f54336cae3fd3273e19c9c48f6beffe89502201bf8ba73ff30fbe2291d328cff69e5d9a3d3b46d1c6c55e84709eda3e731173a01210271977291b74f1f5f5c42157e8aae804664eaaeccfd097918450d37f28fb94d77", "asm": "3044022033830ea9836a1f5eb7542f94e146c2f54336cae3fd3273e19c9c48f6beffe89502201bf8ba73ff30fbe2291d328cff69e5d9a3d3b46d1c6c55e84709eda3e731173a[ALL] 0271977291b74f1f5f5c42157e8aae804664eaaeccfd097918450d37f28fb94d77"}, "vout": 0, "txid": "0c9b2d53d5513eddff2e0e000b655eb29003b5d9dbe45c10fc8ff833ba3e91c9"}], "txid": "0d23f75d2b489809aecb651a8273c2893499d79cfe2e753d3ff5323f08b4c63f", "blocktime": 1537874412, "version": 1, "confirmations": 11467, "time": 1537874412, "locktime": 0, "vsize": 404, "size": 404}