{"hash": "0d2853b96330df7ea1aa0b280574f97d81493ab8b958c8c05e3f57b4e576b52f", "blockhash": "000000000000000000022b45ed06c6f4ccd3cf7fb5ba4856ebd2e58215665228", "vout": [{"scriptPubKey": {"reqSigs": 1, "hex": "a9145fe214db9eb6e23c6eed68243667b02e3707309f87", "addresses": ["3ARzxBdCpEcU9G51v2L8B46C8Fb8DKMEZN"], "asm": "OP_HASH160 5fe214db9eb6e23c6eed68243667b02e3707309f OP_EQUAL", "type": "scripthash"}, "value": 0.0237, "n": 0}, {"scriptPubKey": {"reqSigs": 1, "hex": "76a914878dd7e7cca7456a342500ab8435b562ab9acedb88ac", "addresses": ["1DMk9MBbZ5fyitcXa3rncSC1jsThT6xGvw"], "asm": "OP_DUP OP_HASH160 878dd7e7cca7456a342500ab8435b562ab9acedb OP_EQUALVERIFY OP_CHECKSIG", "type": "pubkeyhash"}, "value": 1.63294941, "n": 1}], "hex": "01000000019d1bb790c41756bc3ebd19d170ecb6b50225a18c27f56768ae5c7fff11c5a1d7010000006b483045022100e0819d16df8f5916932edb38370b4ab86b8bac0c9ea6f76162d538e08c6849620220262de3d69a6e9989b0d3aa2b3f3aaa15269bdfd0a8ed42913f40e463e647e6a70121027bfb38798eaca4e5d8e3e6546fca862f078a7aad6443e30100d5c9543e92df59ffffffff02d02924000000000017a9145fe214db9eb6e23c6eed68243667b02e3707309f87ddaebb09000000001976a914878dd7e7cca7456a342500ab8435b562ab9acedb88ac00000000", "vin": [{"sequence": 4294967295, "scriptSig": {"hex": "483045022100e0819d16df8f5916932edb38370b4ab86b8bac0c9ea6f76162d538e08c6849620220262de3d69a6e9989b0d3aa2b3f3aaa15269bdfd0a8ed42913f40e463e647e6a70121027bfb38798eaca4e5d8e3e6546fca862f078a7aad6443e30100d5c9543e92df59", "asm": "3045022100e0819d16df8f5916932edb38370b4ab86b8bac0c9ea6f76162d538e08c6849620220262de3d69a6e9989b0d3aa2b3f3aaa15269bdfd0a8ed42913f40e463e647e6a7[ALL] 027bfb38798eaca4e5d8e3e6546fca862f078a7aad6443e30100d5c9543e92df59"}, "vout": 1, "txid": "d7a1c511ff7f5cae6867f5278ca12502b5b6ec70d119bd3ebc5617c490b71b9d"}], "txid": "0d2853b96330df7ea1aa0b280574f97d81493ab8b958c8c05e3f57b4e576b52f", "blocktime": 1537869901, "version": 1, "confirmations": 11522, "time": 1537869901, "locktime": 0, "vsize": 224, "size": 224}