{"hash": "0d28cd8cad8ff1bd1da3f01ff4003a7e1bd508203632fcaf044b1c700afb0113", "blockhash": "00000000000000000017f5eb5941039fbcee6240d03bc1f2f8e35350df66a1d8", "vout": [{"scriptPubKey": {"reqSigs": 1, "hex": "76a9140df9ec6392b7a5b46681f5d95738636c5f1b82c988ac", "addresses": ["12GuBUb8rjEPsjsVnf64tagrjN6kgySwjt"], "asm": "OP_DUP OP_HASH160 0df9ec6392b7a5b46681f5d95738636c5f1b82c9 OP_EQUALVERIFY OP_CHECKSIG", "type": "pubkeyhash"}, "value": 6.485e-05, "n": 0}, {"scriptPubKey": {"reqSigs": 1, "hex": "a9147aa3f37718c5a331667d0045930eadde845c43fc87", "addresses": ["3CsUmTugrFTfFXvyS7RGHX4VUTqmBiv8tK"], "asm": "OP_HASH160 7aa3f37718c5a331667d0045930eadde845c43fc OP_EQUAL", "type": "scripthash"}, "value": 0.00020321, "n": 1}], "hex": "01000000033d7cd2c9c0b6e7566f541a4c30fba695deb753849cba228bd23b488863259f0e010000006a47304402200a1533684950a9c5ebad75dde49a0464f3a7b8395c0f3cebc580f1113029fda402200e181c50b23133b4e443b1c44441ac52ff6cd1f06e33bf6fdc731682f0fa04df012102838891311370f2c35ca974c66525583ff6f2efb3fd1b87cb998e510e536bd944ffffffff4cad3906df27aecb9dd9330b133589de515f775401f6a0b21f7a65b24b6b678b000000006b483045022100dc52f4acd35a42a06c94732e12443ce448cd29102dab9a349d2216290c58c3a6022078d328c563cf51dee80a9d3f5b2ffb8c583efc2b59fa4d9065158e8bfa9cd72d01210394846c1c69570465f01c931a09c1004bb99207733dbab3cccd60960dab0ede2effffffff3e186cc793e9508cb291788da44118aad8b60bd4ff764b66eac898df798ed2f8000000006a47304402200b31b01ccfd911590d02acbc8d209a2438871d293830d6dd4c417ac99098610202201dbce62d21fb3a95b481292f3502b1c0c8929338f578301beb9431ebb00541ed0121030dfe8caa666602d4ea4118af25e05b46a539e1c0ded6e88bddbe6cd93b4ad4fdffffffff0255190000000000001976a9140df9ec6392b7a5b46681f5d95738636c5f1b82c988ac614f00000000000017a9147aa3f37718c5a331667d0045930eadde845c43fc8700000000", "vin": [{"sequence": 4294967295, "scriptSig": {"hex": "47304402200a1533684950a9c5ebad75dde49a0464f3a7b8395c0f3cebc580f1113029fda402200e181c50b23133b4e443b1c44441ac52ff6cd1f06e33bf6fdc731682f0fa04df012102838891311370f2c35ca974c66525583ff6f2efb3fd1b87cb998e510e536bd944", "asm": "304402200a1533684950a9c5ebad75dde49a0464f3a7b8395c0f3cebc580f1113029fda402200e181c50b23133b4e443b1c44441ac52ff6cd1f06e33bf6fdc731682f0fa04df[ALL] 02838891311370f2c35ca974c66525583ff6f2efb3fd1b87cb998e510e536bd944"}, "vout": 1, "txid": "0e9f256388483bd28b22ba9c8453b7de95a6fb304c1a546f56e7b6c0c9d27c3d"}, {"sequence": 4294967295, "scriptSig": {"hex": "483045022100dc52f4acd35a42a06c94732e12443ce448cd29102dab9a349d2216290c58c3a6022078d328c563cf51dee80a9d3f5b2ffb8c583efc2b59fa4d9065158e8bfa9cd72d01210394846c1c69570465f01c931a09c1004bb99207733dbab3cccd60960dab0ede2e", "asm": "3045022100dc52f4acd35a42a06c94732e12443ce448cd29102dab9a349d2216290c58c3a6022078d328c563cf51dee80a9d3f5b2ffb8c583efc2b59fa4d9065158e8bfa9cd72d[ALL] 0394846c1c69570465f01c931a09c1004bb99207733dbab3cccd60960dab0ede2e"}, "vout": 0, "txid": "8b676b4bb2657a1fb2a0f60154775f51de8935130b33d99dcbae27df0639ad4c"}, {"sequence": 4294967295, "scriptSig": {"hex": "47304402200b31b01ccfd911590d02acbc8d209a2438871d293830d6dd4c417ac99098610202201dbce62d21fb3a95b481292f3502b1c0c8929338f578301beb9431ebb00541ed0121030dfe8caa666602d4ea4118af25e05b46a539e1c0ded6e88bddbe6cd93b4ad4fd", "asm": "304402200b31b01ccfd911590d02acbc8d209a2438871d293830d6dd4c417ac99098610202201dbce62d21fb3a95b481292f3502b1c0c8929338f578301beb9431ebb00541ed[ALL] 030dfe8caa666602d4ea4118af25e05b46a539e1c0ded6e88bddbe6cd93b4ad4fd"}, "vout": 0, "txid": "f8d28e79df98c8ea664b76ffd40bb6d8aa1841a48d7891b28c50e993c76c183e"}], "txid": "0d28cd8cad8ff1bd1da3f01ff4003a7e1bd508203632fcaf044b1c700afb0113", "blocktime": 1537874412, "version": 1, "confirmations": 11467, "time": 1537874412, "locktime": 0, "vsize": 518, "size": 518}