{"hash": "fd2b6ccfbb75e4b61f0ebee2f1b7ec82be20049c6aeb885be960a2ba744205c1", "blockhash": "0000000000000000001cda96e906b7601b7a6fb1a3b62bca570a9e5d8f4b3de1", "vout": [{"scriptPubKey": {"reqSigs": 1, "hex": "0014bbd1047f309e3c1f923c381021338f9605b4132d", "addresses": ["bc1qh0gsglesnc7ply3u8qgzzvu0jczmgyedh7xqk5"], "asm": "0 bbd1047f309e3c1f923c381021338f9605b4132d", "type": "witness_v0_keyhash"}, "value": 3.484e-05, "n": 0}, {"scriptPubKey": {"reqSigs": 1, "hex": "a91415066da13e2ffebc0dcb779e0e8f6db69af610a787", "addresses": ["33cBpDNzXpNjD5SmpBCtjEERmNjPEXooZV"], "asm": "OP_HASH160 15066da13e2ffebc0dcb779e0e8f6db69af610a7 OP_EQUAL", "type": "scripthash"}, "value": 0.002184, "n": 1}], "hex": "01000000000101c8a939d449ba5eb408a9b810e0ccb78463e43fdc4fb0a9e0b03091b2d3a03baa0000000000ffffffff029c0d000000000000160014bbd1047f309e3c1f923c381021338f9605b4132d205503000000000017a91415066da13e2ffebc0dcb779e0e8f6db69af610a78702483045022100fcab3b89e63b4bdbe1f69181bfb7a8cdb82ac10ee5709ca49f24ca377c00dbc30220476d4a36c411a2ca3e00ce8fbebb8ac8ba67528589e6e4a303a893f1ae18f18c01210202b35db0a02a11ad0a6e2625b8c3f3e96cd89e08bf138e4f325aa38132c3eeb100000000", "vin": [{"txinwitness": ["3045022100fcab3b89e63b4bdbe1f69181bfb7a8cdb82ac10ee5709ca49f24ca377c00dbc30220476d4a36c411a2ca3e00ce8fbebb8ac8ba67528589e6e4a303a893f1ae18f18c01", "0202b35db0a02a11ad0a6e2625b8c3f3e96cd89e08bf138e4f325aa38132c3eeb1"], "sequence": 4294967295, "scriptSig": {"hex": "", "asm": ""}, "vout": 0, "txid": "aa3ba0d3b29130b0e0a9b04fdc3fe46384b7cce010b8a908b45eba49d439a9c8"}], "txid": "0d2c3c19a74128a93ff028d000bdd45d3ef83c691436ec672fc5e0fa7e59feef", "blocktime": 1537873282, "version": 1, "confirmations": 11484, "time": 1537873282, "locktime": 0, "vsize": 142, "size": 224}