{"hash": "0d3519f897d64e9ea1fe9f84fa3de5af8a4dc8813588b5344c3d293612fda6ab", "blockhash": "0000000000000000001f76057863aec43deb6fa401d9628bb513d65a8098bfab", "vout": [{"scriptPubKey": {"reqSigs": 1, "hex": "76a91409ec4a718f38757507d6fa0c3b83e92cb69b251588ac", "addresses": ["1uU9VvodudrBA9ykQyCywj5B4PCPLrJnM"], "asm": "OP_DUP OP_HASH160 09ec4a718f38757507d6fa0c3b83e92cb69b2515 OP_EQUALVERIFY OP_CHECKSIG", "type": "pubkeyhash"}, "value": 5.66802276, "n": 0}, {"scriptPubKey": {"reqSigs": 1, "hex": "76a91442ad26bfb04cbe1cd70e81eeba79df13cad008cb88ac", "addresses": ["175Z2Rr5jNnTohTQs3bGtpmh68Rhxi52bS"], "asm": "OP_DUP OP_HASH160 42ad26bfb04cbe1cd70e81eeba79df13cad008cb OP_EQUALVERIFY OP_CHECKSIG", "type": "pubkeyhash"}, "value": 0.335, "n": 1}], "hex": "0200000001a81eecb1ee9c5c91e5f1826f42874a8bf6d269e5a2da6b67d1de052ad4476405010000006b483045022100a96747cc4800c6d1ca8b22c2c70426d981a8549cbf03123c2ff0a2cbede3d9dd02207844c904f54d9101420555443adf104108a6a76bfee46ff4792f54ea2660b6080121039d55512963bff127a8bc42baf1c18c8cb593ce94241707f87226b013b3aada2bfeffffff0264b7c821000000001976a91409ec4a718f38757507d6fa0c3b83e92cb69b251588ac602bff01000000001976a91442ad26bfb04cbe1cd70e81eeba79df13cad008cb88ac14490800", "vin": [{"sequence": 4294967294, "scriptSig": {"hex": "483045022100a96747cc4800c6d1ca8b22c2c70426d981a8549cbf03123c2ff0a2cbede3d9dd02207844c904f54d9101420555443adf104108a6a76bfee46ff4792f54ea2660b6080121039d55512963bff127a8bc42baf1c18c8cb593ce94241707f87226b013b3aada2b", "asm": "3045022100a96747cc4800c6d1ca8b22c2c70426d981a8549cbf03123c2ff0a2cbede3d9dd02207844c904f54d9101420555443adf104108a6a76bfee46ff4792f54ea2660b608[ALL] 039d55512963bff127a8bc42baf1c18c8cb593ce94241707f87226b013b3aada2b"}, "vout": 1, "txid": "056447d42a05ded1676bdaa2e569d2f68b4a87426f82f1e5915c9ceeb1ec1ea8"}], "txid": "0d3519f897d64e9ea1fe9f84fa3de5af8a4dc8813588b5344c3d293612fda6ab", "blocktime": 1537873891, "version": 2, "confirmations": 11474, "time": 1537873891, "locktime": 542996, "vsize": 226, "size": 226}