{"hash": "696ed54694986ebbdbe17cd40d90da48a74f9c15d3b421a9ed2dd68ee360516a", "blockhash": "0000000000000000001cda96e906b7601b7a6fb1a3b62bca570a9e5d8f4b3de1", "vout": [{"scriptPubKey": {"reqSigs": 1, "hex": "76a9148bca4249d4235da05ee3782813d3faa91734ac1488ac", "addresses": ["1Dk9DrzNTH9nxg6jwkicrftNS7nEwTy4U9"], "asm": "OP_DUP OP_HASH160 8bca4249d4235da05ee3782813d3faa91734ac14 OP_EQUALVERIFY OP_CHECKSIG", "type": "pubkeyhash"}, "value": 0.03048589, "n": 0}, {"scriptPubKey": {"reqSigs": 1, "hex": "0014f2107c83e3a5b66866a2b3211c9b6b756c252e12", "addresses": ["bc1q7gg8eqlr5kmxse4zkvs3exmtw4kz2tsj7v3afz"], "asm": "0 f2107c83e3a5b66866a2b3211c9b6b756c252e12", "type": "witness_v0_keyhash"}, "value": 0.01006823, "n": 1}], "hex": "0100000000010140958c9723b9a5c783f8c05a6337490627ea934ee9225ebe664fc4e6e2fb31f7000000001716001444ff4519f3b0eeeb17cec5017fb68a8b0229bad1ffffffff028d842e00000000001976a9148bca4249d4235da05ee3782813d3faa91734ac1488ace75c0f0000000000160014f2107c83e3a5b66866a2b3211c9b6b756c252e1202473044022046e68dae1201dd4e5470dccfe1e85647e8cc96fe80e1a1584b5a8977d57deeee02203773e0af73cac469c9b44e08e85d66fc36618e48b7aefc4215aebe290261ff6d0121022b8d127f3c50e4c616300f2bea1bb16b4a8058c54e1ee2a6429597eaf9cc226100000000", "vin": [{"txinwitness": ["3044022046e68dae1201dd4e5470dccfe1e85647e8cc96fe80e1a1584b5a8977d57deeee02203773e0af73cac469c9b44e08e85d66fc36618e48b7aefc4215aebe290261ff6d01", "022b8d127f3c50e4c616300f2bea1bb16b4a8058c54e1ee2a6429597eaf9cc2261"], "sequence": 4294967295, "scriptSig": {"hex": "16001444ff4519f3b0eeeb17cec5017fb68a8b0229bad1", "asm": "001444ff4519f3b0eeeb17cec5017fb68a8b0229bad1"}, "vout": 0, "txid": "f731fbe2e6c44f66be5e22e94e93ea27064937635ac0f883c7a5b923978c9540"}], "txid": "0d37d4a75d2d8d442976d131cafe08859a49fc45e2abf362037e0cfa5a3d33dc", "blocktime": 1537873282, "version": 1, "confirmations": 11484, "time": 1537873282, "locktime": 0, "vsize": 167, "size": 248}