{"hash": "0d3cf6893f83a37776af7968fd111af85431d6f71846f398d77d0daee3456f06", "blockhash": "0000000000000000001cda96e906b7601b7a6fb1a3b62bca570a9e5d8f4b3de1", "vout": [{"scriptPubKey": {"reqSigs": 1, "hex": "76a914703d31f15f14dae6987dbcb0095719085402c64488ac", "addresses": ["1BETzPsbiXNeTbSpx74ybhqtXL4zKLiTWY"], "asm": "OP_DUP OP_HASH160 703d31f15f14dae6987dbcb0095719085402c644 OP_EQUALVERIFY OP_CHECKSIG", "type": "pubkeyhash"}, "value": 0.0003575, "n": 0}, {"scriptPubKey": {"reqSigs": 1, "hex": "76a914e2baaaa40dbc04e18cdc1b90e88e5e98a5d8fa2588ac", "addresses": ["1MfqLB6UJkzLGY4i9vWx8b6kYLEqnkaUYo"], "asm": "OP_DUP OP_HASH160 e2baaaa40dbc04e18cdc1b90e88e5e98a5d8fa25 OP_EQUALVERIFY OP_CHECKSIG", "type": "pubkeyhash"}, "value": 0.00257149, "n": 1}], "hex": "01000000020f875fa854035f838ed1403292e655d63f263e06bb20467dca40d9ce22c0ab9c000000006a473044022018eaaca989631a9c8d8be923c83aa5e3e30b01bbcd6c17b2aa320017c454344202202d481e3f9a51afa6a8c46dd9adf0b9627aa9ce0b0559f10027d5d4b4feea78e001210350cb4ad144c72e09233dd9253c0424ce0c9b9761c5a19b399d64e1714c1d0666fdffffff6dd2e8f709c16ce6ee0fd1a17a4dc1344bcef2ee1fbc06fdbb1b0376f76614f6000000006a473044022014aaf7ca2afa80ae9d544ea026110e4e91c409343eadc98d960cd4ee276a44d602202f6b5c92b67ff4a554c184d502aa59243c2b21944e31de0d247af5a723eabb95012102418e8537543ecc34c45c3a1fb75b0c819be2a84760e044d90ddbe7726761f2a7fdffffff02a68b0000000000001976a914703d31f15f14dae6987dbcb0095719085402c64488ac7dec0300000000001976a914e2baaaa40dbc04e18cdc1b90e88e5e98a5d8fa2588ac13490800", "vin": [{"sequence": 4294967293, "scriptSig": {"hex": "473044022018eaaca989631a9c8d8be923c83aa5e3e30b01bbcd6c17b2aa320017c454344202202d481e3f9a51afa6a8c46dd9adf0b9627aa9ce0b0559f10027d5d4b4feea78e001210350cb4ad144c72e09233dd9253c0424ce0c9b9761c5a19b399d64e1714c1d0666", "asm": "3044022018eaaca989631a9c8d8be923c83aa5e3e30b01bbcd6c17b2aa320017c454344202202d481e3f9a51afa6a8c46dd9adf0b9627aa9ce0b0559f10027d5d4b4feea78e0[ALL] 0350cb4ad144c72e09233dd9253c0424ce0c9b9761c5a19b399d64e1714c1d0666"}, "vout": 0, "txid": "9cabc022ced940ca7d4620bb063e263fd655e6923240d18e835f0354a85f870f"}, {"sequence": 4294967293, "scriptSig": {"hex": "473044022014aaf7ca2afa80ae9d544ea026110e4e91c409343eadc98d960cd4ee276a44d602202f6b5c92b67ff4a554c184d502aa59243c2b21944e31de0d247af5a723eabb95012102418e8537543ecc34c45c3a1fb75b0c819be2a84760e044d90ddbe7726761f2a7", "asm": "3044022014aaf7ca2afa80ae9d544ea026110e4e91c409343eadc98d960cd4ee276a44d602202f6b5c92b67ff4a554c184d502aa59243c2b21944e31de0d247af5a723eabb95[ALL] 02418e8537543ecc34c45c3a1fb75b0c819be2a84760e044d90ddbe7726761f2a7"}, "vout": 0, "txid": "f61466f776031bbbfd06bc1feef2ce4b34c14d7aa1d10feee66cc109f7e8d26d"}], "txid": "0d3cf6893f83a37776af7968fd111af85431d6f71846f398d77d0daee3456f06", "blocktime": 1537873282, "version": 1, "confirmations": 11484, "time": 1537873282, "locktime": 542995, "vsize": 372, "size": 372}