{"hash": "78ad35ad0dd1f2fca62cc004169b0ae5227585e6a745e8c86455ef2d451c28e2", "blockhash": "0000000000000000000e13cef7c366c0283d82e591d1acd082e914b08063cdf1", "vout": [{"scriptPubKey": {"reqSigs": 1, "hex": "a9141aa641b29629e8c36c12c704cdba44fa857964d687", "addresses": ["347vfF965da3VAh8Lmp78fvfCtYg664gUK"], "asm": "OP_HASH160 1aa641b29629e8c36c12c704cdba44fa857964d6 OP_EQUAL", "type": "scripthash"}, "value": 0.00999797, "n": 0}, {"scriptPubKey": {"reqSigs": 1, "hex": "a9143b8f9281fbe89661fda479eeeff1f206fc3bd4f787", "addresses": ["377wnSTaQF79ebmazGTJSvFAcmiRew9zCZ"], "asm": "OP_HASH160 3b8f9281fbe89661fda479eeeff1f206fc3bd4f7 OP_EQUAL", "type": "scripthash"}, "value": 0.09915, "n": 1}], "hex": "0200000000010253745fdcb9cd4f99804b2c52d32bb08663f61627d07d4ba45a804e5a02fa10aa48000000171600146aa761379367b669b7514e7a597c8ecd7ba6fc07fdffffff6289d26e3ad59a4dbaff4d48b8e1e05a3fc3911da289802c9b4550a36da35e4d000000001716001409a0207e5ce0a0cfb561e0e154b1ba20a2f20242fdffffff0275410f000000000017a9141aa641b29629e8c36c12c704cdba44fa857964d687784a97000000000017a9143b8f9281fbe89661fda479eeeff1f206fc3bd4f78702483045022100e19ff68fc74f741c973b5f0eb6b9b4c5aa5006a46f3ba321c451420d0eafea6502204b90d81e1215a39ce5658b20734ef49984e9ad5951fd531ca6ed95cb88d4d881012102665d8122d853cba7a86fb7ec0697a106f93abf5a3f90c17660d8648c2385f0c9024830450221009fe80ea5fc96c30c01f5f435659bbbff953459c791d6765d3d0abe02c487d8ae02207496e6fccc65b2916deaffe7d1ece6278a69f2a5a3a77790f92eec56b118638e0121034baae83e40ec918883d94e0f70952f3fef22635f86763b5f1131f207f3e65b9e00000000", "vin": [{"txinwitness": ["3045022100e19ff68fc74f741c973b5f0eb6b9b4c5aa5006a46f3ba321c451420d0eafea6502204b90d81e1215a39ce5658b20734ef49984e9ad5951fd531ca6ed95cb88d4d88101", "02665d8122d853cba7a86fb7ec0697a106f93abf5a3f90c17660d8648c2385f0c9"], "sequence": 4294967293, "scriptSig": {"hex": "1600146aa761379367b669b7514e7a597c8ecd7ba6fc07", "asm": "00146aa761379367b669b7514e7a597c8ecd7ba6fc07"}, "vout": 72, "txid": "aa10fa025a4e805aa44b7dd02716f66386b02bd3522c4b80994fcdb9dc5f7453"}, {"txinwitness": ["30450221009fe80ea5fc96c30c01f5f435659bbbff953459c791d6765d3d0abe02c487d8ae02207496e6fccc65b2916deaffe7d1ece6278a69f2a5a3a77790f92eec56b118638e01", "034baae83e40ec918883d94e0f70952f3fef22635f86763b5f1131f207f3e65b9e"], "sequence": 4294967293, "scriptSig": {"hex": "16001409a0207e5ce0a0cfb561e0e154b1ba20a2f20242", "asm": "001409a0207e5ce0a0cfb561e0e154b1ba20a2f20242"}, "vout": 0, "txid": "4d5ea36da350459b2c8089a21d91c33f5ae0e1b8484dffba4d9ad53a6ed28962"}], "txid": "0d4e1511ef93fa716918412be837708d137faea07d2863917a9b47ce708d2cfc", "blocktime": 1537871767, "version": 2, "confirmations": 11495, "time": 1537871767, "locktime": 0, "vsize": 257, "size": 420}