{"hash": "0d5162eb1fdc25c9d45f0afcd93193cc1192a4d2caee80fed97cf123aa71f4b7", "blockhash": "0000000000000000001f0ddff1eddb255c1121bcd4da4f1bc9a0da00cae72433", "vout": [{"scriptPubKey": {"reqSigs": 1, "hex": "a914bff6d00c8e9464477f2785677f9a8ebe2ce2c48087", "addresses": ["3KC2f2gZ8YCWoC8Gx7qpDtjxLKhHnLvYBR"], "asm": "OP_HASH160 bff6d00c8e9464477f2785677f9a8ebe2ce2c480 OP_EQUAL", "type": "scripthash"}, "value": 0.0021807, "n": 0}, {"scriptPubKey": {"reqSigs": 1, "hex": "76a91429b7390ba55b6e21bff7bd38844bd15f3095ef5488ac", "addresses": ["14oaCQphgdMLRcRQ3ugPd4jUkzZkFwhsqc"], "asm": "OP_DUP OP_HASH160 29b7390ba55b6e21bff7bd38844bd15f3095ef54 OP_EQUALVERIFY OP_CHECKSIG", "type": "pubkeyhash"}, "value": 0.00422244, "n": 1}], "hex": "01000000012a5cbb2a38a0a056ed4f68817e525c2b99237ee34c27156790aa1515fa695aa81b000000fdfe0000483045022100fefc257ad39cb1cb019a80c87d70e54968627107729c03b8c22a93a28c3d0a0b0220371ce072db195353ea997049f93b6a03965a642b380884496cb14de887a001ae01483045022100efd24f20df37fca4fdb777d99aebbb30e7aadc609d80249a20500a54d936ad230220085f706f2ebe8bb724f4b34e385619feb1edd7ef3a03aeea7a382fce5a7ac798014c695221021c6dd976d78cd0f59f63b4f234875ac036e0c0b8902fb01d110f0cecce580bbb21038de0ad6f55cf5bdabbb0b427ccadca72cd30589c42761428eece35e2c646713c2103fff8f41f5b02d0c2df6670f3051be10e8147ef67d6f473d1de579827bc01693d53aeffffffff02d65303000000000017a914bff6d00c8e9464477f2785677f9a8ebe2ce2c4808764710600000000001976a91429b7390ba55b6e21bff7bd38844bd15f3095ef5488ac00000000", "vin": [{"sequence": 4294967295, "scriptSig": {"hex": "00483045022100fefc257ad39cb1cb019a80c87d70e54968627107729c03b8c22a93a28c3d0a0b0220371ce072db195353ea997049f93b6a03965a642b380884496cb14de887a001ae01483045022100efd24f20df37fca4fdb777d99aebbb30e7aadc609d80249a20500a54d936ad230220085f706f2ebe8bb724f4b34e385619feb1edd7ef3a03aeea7a382fce5a7ac798014c695221021c6dd976d78cd0f59f63b4f234875ac036e0c0b8902fb01d110f0cecce580bbb21038de0ad6f55cf5bdabbb0b427ccadca72cd30589c42761428eece35e2c646713c2103fff8f41f5b02d0c2df6670f3051be10e8147ef67d6f473d1de579827bc01693d53ae", "asm": "0 3045022100fefc257ad39cb1cb019a80c87d70e54968627107729c03b8c22a93a28c3d0a0b0220371ce072db195353ea997049f93b6a03965a642b380884496cb14de887a001ae[ALL] 3045022100efd24f20df37fca4fdb777d99aebbb30e7aadc609d80249a20500a54d936ad230220085f706f2ebe8bb724f4b34e385619feb1edd7ef3a03aeea7a382fce5a7ac798[ALL] 5221021c6dd976d78cd0f59f63b4f234875ac036e0c0b8902fb01d110f0cecce580bbb21038de0ad6f55cf5bdabbb0b427ccadca72cd30589c42761428eece35e2c646713c2103fff8f41f5b02d0c2df6670f3051be10e8147ef67d6f473d1de579827bc01693d53ae"}, "vout": 27, "txid": "a85a69fa1515aa906715274ce37e23992b5c527e81684fed56a0a0382abb5c2a"}], "txid": "0d5162eb1fdc25c9d45f0afcd93193cc1192a4d2caee80fed97cf123aa71f4b7", "blocktime": 1537872018, "version": 1, "confirmations": 11489, "time": 1537872018, "locktime": 0, "vsize": 373, "size": 373}