{"hash": "14b8902cc869e3d24b5a01a44236fecbd0c4242b5c8e17919e51445d25119784", "blockhash": "00000000000000000017f5eb5941039fbcee6240d03bc1f2f8e35350df66a1d8", "vout": [{"scriptPubKey": {"reqSigs": 1, "hex": "00145813d9c46bd6f349effc1b808396a3d61bfba52c", "addresses": ["bc1qtqfan3rt6me5nmlurwqg894r6cdlhffv3qqpj3"], "asm": "0 5813d9c46bd6f349effc1b808396a3d61bfba52c", "type": "witness_v0_keyhash"}, "value": 0.44679536, "n": 0}, {"scriptPubKey": {"reqSigs": 1, "hex": "76a9144465bed8ee547056d82e6228b053523c8077c5dd88ac", "addresses": ["17EeqSqvRCicdsXUKWzWGzCjaax6wnGXcb"], "asm": "OP_DUP OP_HASH160 4465bed8ee547056d82e6228b053523c8077c5dd OP_EQUALVERIFY OP_CHECKSIG", "type": "pubkeyhash"}, "value": 0.01245768, "n": 1}], "hex": "010000000001013ed8ef1c964f77a441001d074a4878b5a8ae073724ece1fc2f3c55350a4ac82b0000000000ffffffff0270c1a902000000001600145813d9c46bd6f349effc1b808396a3d61bfba52c48021300000000001976a9144465bed8ee547056d82e6228b053523c8077c5dd88ac02483045022100f9f1ad7324f183b728ba5556911ffb5156fc4674678db01314ea81dcb69c8eb502207fe3004f0f39f672c0910d47ffec105e49e31c078ed5b9b70eeffefa1634f5e50121029d445036049df3f4d5a70fbc4382d9b8b4d315011bbf4ab859f00b266759f20600000000", "vin": [{"txinwitness": ["3045022100f9f1ad7324f183b728ba5556911ffb5156fc4674678db01314ea81dcb69c8eb502207fe3004f0f39f672c0910d47ffec105e49e31c078ed5b9b70eeffefa1634f5e501", "029d445036049df3f4d5a70fbc4382d9b8b4d315011bbf4ab859f00b266759f206"], "sequence": 4294967295, "scriptSig": {"hex": "", "asm": ""}, "vout": 0, "txid": "2bc84a0a35553c2ffce1ec243707aea8b578484a071d0041a4774f961cefd83e"}], "txid": "0d55725967d8c3407dc72a54bef1935b3af938139b727820f391d5ca30ec01ab", "blocktime": 1537874412, "version": 1, "confirmations": 11467, "time": 1537874412, "locktime": 0, "vsize": 144, "size": 226}