{"hash": "f3da810e50de693164255f17267fc8fc858d79ac6fbde42ab9316352d2a1aa2a", "blockhash": "0000000000000000000baef3f32e3676a92c3b2e5da21b426e4f302fc371ce76", "vout": [{"scriptPubKey": {"reqSigs": 1, "hex": "a9147c6125b3074bdb8f32a42cb82011dcfb7d46919987", "addresses": ["3D2g6Evcsh55LwnmoR5YwkA6WzHXL8L7wU"], "asm": "OP_HASH160 7c6125b3074bdb8f32a42cb82011dcfb7d469199 OP_EQUAL", "type": "scripthash"}, "value": 0.00192437, "n": 0}, {"scriptPubKey": {"reqSigs": 1, "hex": "a914414cec0fc72a9410f6836edaf08de1aa3b2a321c87", "addresses": ["37eHzewnAFRR2SVZu8rZM3nBsmuE2XBU7D"], "asm": "OP_HASH160 414cec0fc72a9410f6836edaf08de1aa3b2a321c OP_EQUAL", "type": "scripthash"}, "value": 0.22599875, "n": 1}], "hex": "01000000000101ef1be42f5fc644cc3c00a0e24e5cc1e3b2cec284eaf442aa837a61b39da5246e0100000023220020ce74cde37cfb8dd71d0179287e12fc721ee236ce3c89c2745bcd365b39807eb3ffffffff02b5ef02000000000017a9147c6125b3074bdb8f32a42cb82011dcfb7d46919987c3d858010000000017a914414cec0fc72a9410f6836edaf08de1aa3b2a321c870400473044022075a71dc05fd565b7196ee11b16514ebde3d1758307ca07281bc4765527f251cf022049b305f9bcf185e15681ee4067d3f9f10fd591d042e27c38328d7cc146ebe4680147304402200b05dae5ab461382aa26b953ffaa664e13ecb9fa33a0371ea1c923d37565bc6c022060f29fdd5269cba617d545e331a731ce9f580cbe65a62ee59ea97e564c9c5ce30147522103ada901d90d5a76319a60f228e0b1bbc84b1d9a87238550bae5d5d190067b66712103871fc2ca08e6950b38867e8e6a0e94ee625223d3aa0df5c65f414c6d784467e252ae00000000", "vin": [{"txinwitness": ["", "3044022075a71dc05fd565b7196ee11b16514ebde3d1758307ca07281bc4765527f251cf022049b305f9bcf185e15681ee4067d3f9f10fd591d042e27c38328d7cc146ebe46801", "304402200b05dae5ab461382aa26b953ffaa664e13ecb9fa33a0371ea1c923d37565bc6c022060f29fdd5269cba617d545e331a731ce9f580cbe65a62ee59ea97e564c9c5ce301", "522103ada901d90d5a76319a60f228e0b1bbc84b1d9a87238550bae5d5d190067b66712103871fc2ca08e6950b38867e8e6a0e94ee625223d3aa0df5c65f414c6d784467e252ae"], "sequence": 4294967295, "scriptSig": {"hex": "220020ce74cde37cfb8dd71d0179287e12fc721ee236ce3c89c2745bcd365b39807eb3", "asm": "0020ce74cde37cfb8dd71d0179287e12fc721ee236ce3c89c2745bcd365b39807eb3"}, "vout": 1, "txid": "6e24a59db3617a83aa42f4ea84c2ceb2e3c15c4ee2a0003ccc44c65f2fe41bef"}], "txid": "0d55a2e586b8940da503a3e36966a0089f6328728ff506940c18459dab3aab77", "blocktime": 1537876114, "version": 1, "confirmations": 11462, "time": 1537876114, "locktime": 0, "vsize": 205, "size": 370}