{"hash": "0d5958a161b037acfb1f0b6300cfeb68e9f11d23da97f2e32bbb1a35ae6867a1", "blockhash": "0000000000000000000e13cef7c366c0283d82e591d1acd082e914b08063cdf1", "vout": [{"scriptPubKey": {"reqSigs": 1, "hex": "76a914cd2bc709f31aaf06da9f8519ec4dd65c7e2237f788ac", "addresses": ["1Khqy3G3CU4pRW4HQgQsdapwkszggTvRqP"], "asm": "OP_DUP OP_HASH160 cd2bc709f31aaf06da9f8519ec4dd65c7e2237f7 OP_EQUALVERIFY OP_CHECKSIG", "type": "pubkeyhash"}, "value": 0.00380682, "n": 0}, {"scriptPubKey": {"reqSigs": 1, "hex": "76a91439ab97df96ad1e9bd705d3e2157afb418b7b936188ac", "addresses": ["16Fw5SgNQweUfrChVnqZYyLNEybWLTa3XM"], "asm": "OP_DUP OP_HASH160 39ab97df96ad1e9bd705d3e2157afb418b7b9361 OP_EQUALVERIFY OP_CHECKSIG", "type": "pubkeyhash"}, "value": 0.00587444, "n": 1}], "hex": "0100000001cc35a271b13d14424ccd9511104087823ff8cf6f8ac2ec05b750cd21ecf746db000000006b483045022100d9bd18c0cf51e16ccc5c2304c1624053c4c300cbe5ece5e0349a9692c802d122022038a7803ecca951695f87047808b9eabe8fed2d593277eade3e33f96009d526ac012103266b71cdfb80f0f9e5bb14a88c384b266e69295fb385f3d8c9d9e5b631e699b3ffffffff020acf0500000000001976a914cd2bc709f31aaf06da9f8519ec4dd65c7e2237f788acb4f60800000000001976a91439ab97df96ad1e9bd705d3e2157afb418b7b936188ac00000000", "vin": [{"sequence": 4294967295, "scriptSig": {"hex": "483045022100d9bd18c0cf51e16ccc5c2304c1624053c4c300cbe5ece5e0349a9692c802d122022038a7803ecca951695f87047808b9eabe8fed2d593277eade3e33f96009d526ac012103266b71cdfb80f0f9e5bb14a88c384b266e69295fb385f3d8c9d9e5b631e699b3", "asm": "3045022100d9bd18c0cf51e16ccc5c2304c1624053c4c300cbe5ece5e0349a9692c802d122022038a7803ecca951695f87047808b9eabe8fed2d593277eade3e33f96009d526ac[ALL] 03266b71cdfb80f0f9e5bb14a88c384b266e69295fb385f3d8c9d9e5b631e699b3"}, "vout": 0, "txid": "db46f7ec21cd50b705ecc28a6fcff83f828740101195cd4c42143db171a235cc"}], "txid": "0d5958a161b037acfb1f0b6300cfeb68e9f11d23da97f2e32bbb1a35ae6867a1", "blocktime": 1537871767, "version": 1, "confirmations": 11493, "time": 1537871767, "locktime": 0, "vsize": 226, "size": 226}