{"hash": "0d61a3c4abc6a92335fc39b2ec81f2063c6360009bd5f2071a27e54232362df3", "blockhash": "00000000000000000004ffacab907a6b429b9a5745fa0b75af4234bf69dd7176", "vout": [{"scriptPubKey": {"reqSigs": 1, "hex": "76a914f35679f6f57e1b167dd2f6bb31ae04f6a8deb5e188ac", "addresses": ["1PBeo6vUwy3ktfxi4FkarPNCZziR9qyTTv"], "asm": "OP_DUP OP_HASH160 f35679f6f57e1b167dd2f6bb31ae04f6a8deb5e1 OP_EQUALVERIFY OP_CHECKSIG", "type": "pubkeyhash"}, "value": 0.01152762, "n": 0}], "hex": "01000000017a08885c8febf4a196529eff0d5f956ccab6a68d5583c23e271a72bc3fe6270f000000006a473044022039b42e92fd90537c8ffe6321e63fbbe72d89775684c77dcd9ad06fd2b4e8e2dd022067c5a00ff1a1fb6a94c6146b0dee9c70148c06fe0d05326b945ba948978b2c19012103094526a92e757c5e7ae7cbc3450a1b4f41fe0f4e3a1bc8cdd9d8944e39204900ffffffff01fa961100000000001976a914f35679f6f57e1b167dd2f6bb31ae04f6a8deb5e188ac00000000", "vin": [{"sequence": 4294967295, "scriptSig": {"hex": "473044022039b42e92fd90537c8ffe6321e63fbbe72d89775684c77dcd9ad06fd2b4e8e2dd022067c5a00ff1a1fb6a94c6146b0dee9c70148c06fe0d05326b945ba948978b2c19012103094526a92e757c5e7ae7cbc3450a1b4f41fe0f4e3a1bc8cdd9d8944e39204900", "asm": "3044022039b42e92fd90537c8ffe6321e63fbbe72d89775684c77dcd9ad06fd2b4e8e2dd022067c5a00ff1a1fb6a94c6146b0dee9c70148c06fe0d05326b945ba948978b2c19[ALL] 03094526a92e757c5e7ae7cbc3450a1b4f41fe0f4e3a1bc8cdd9d8944e39204900"}, "vout": 0, "txid": "0f27e63fbc721a273ec283558da6b6ca6c955f0dff9e5296a1f4eb8f5c88087a"}], "txid": "0d61a3c4abc6a92335fc39b2ec81f2063c6360009bd5f2071a27e54232362df3", "blocktime": 1537875543, "version": 1, "confirmations": 11464, "time": 1537875543, "locktime": 0, "vsize": 191, "size": 191}