{"hash": "56a60c6756d241e4d2cc0ada891e6f2ea5ad0634aefb2184b0d9d2507cce48c5", "blockhash": "00000000000000000024a2167bbff67b0be802c0b01cdd79e6331c2be6459f87", "vout": [{"scriptPubKey": {"reqSigs": 1, "hex": "76a914bfe06275ced3debed05216fff5477da96ca98ef988ac", "addresses": ["1JVYsA2aKNKTqGnZeu84FjFUA5hvQz7oBc"], "asm": "OP_DUP OP_HASH160 bfe06275ced3debed05216fff5477da96ca98ef9 OP_EQUALVERIFY OP_CHECKSIG", "type": "pubkeyhash"}, "value": 0.00032042, "n": 0}, {"scriptPubKey": {"reqSigs": 1, "hex": "a91447cebc243bcf747824f91be69f1b2c081272a25187", "addresses": ["38EhZMjeymHJePyQ9dkvA5hKs6iNLrwDiA"], "asm": "OP_HASH160 47cebc243bcf747824f91be69f1b2c081272a251 OP_EQUAL", "type": "scripthash"}, "value": 0.0040275, "n": 1}, {"scriptPubKey": {"reqSigs": 1, "hex": "76a914e2c43ecc2ab92567b57f492408a4191fe3b584d588ac", "addresses": ["1Mg2oiYqT664oPXdmYEJgdMA2HKwNPBQNC"], "asm": "OP_DUP OP_HASH160 e2c43ecc2ab92567b57f492408a4191fe3b584d5 OP_EQUALVERIFY OP_CHECKSIG", "type": "pubkeyhash"}, "value": 0.00031, "n": 2}, {"scriptPubKey": {"reqSigs": 1, "hex": "76a914bbee79fe9a9073f0452817e4a14b66f6543269ad88ac", "addresses": ["1J8h3WkFN9fxa2UY1KS2rJGToNwu6tLUwJ"], "asm": "OP_DUP OP_HASH160 bbee79fe9a9073f0452817e4a14b66f6543269ad OP_EQUALVERIFY OP_CHECKSIG", "type": "pubkeyhash"}, "value": 0.00351763, "n": 3}, {"scriptPubKey": {"reqSigs": 1, "hex": "76a91477bf44d5f1a064afdbc571e6a552a07af3d2aaf788ac", "addresses": ["1BvAYRYoSRJJ4wEmsHRNHi6utKWUUTudXK"], "asm": "OP_DUP OP_HASH160 77bf44d5f1a064afdbc571e6a552a07af3d2aaf7 OP_EQUALVERIFY OP_CHECKSIG", "type": "pubkeyhash"}, "value": 0.004, "n": 4}, {"scriptPubKey": {"reqSigs": 1, "hex": "76a914a21b6aa7a28d50becc0d74697156b249c8a1088388ac", "addresses": ["1Fn9K1yDG1QaDaxfCkcnP6goEVoP8zNyXQ"], "asm": "OP_DUP OP_HASH160 a21b6aa7a28d50becc0d74697156b249c8a10883 OP_EQUALVERIFY OP_CHECKSIG", "type": "pubkeyhash"}, "value": 0.00141116, "n": 5}, {"scriptPubKey": {"reqSigs": 1, "hex": "a914050e9b73041b548fc5c0102c08177fb3285ad59b87", "addresses": ["329koRvovTyNnd4ADrpR2uJHzXxfvKxta5"], "asm": "OP_HASH160 050e9b73041b548fc5c0102c08177fb3285ad59b OP_EQUAL", "type": "scripthash"}, "value": 48.42653831, "n": 6}], "hex": "0200000000010188484d26d528fa6520542b41404fa6cf6ae058da1ee40cd58f753212e787aa260b0000001716001437de5da24ea7c8a3122ff93038f95492bd3834e5feffffff072a7d0000000000001976a914bfe06275ced3debed05216fff5477da96ca98ef988ac3e2506000000000017a91447cebc243bcf747824f91be69f1b2c081272a2518718790000000000001976a914e2c43ecc2ab92567b57f492408a4191fe3b584d588ac135e0500000000001976a914bbee79fe9a9073f0452817e4a14b66f6543269ad88ac801a0600000000001976a91477bf44d5f1a064afdbc571e6a552a07af3d2aaf788ac3c270200000000001976a914a21b6aa7a28d50becc0d74697156b249c8a1088388ac8708a5200100000017a914050e9b73041b548fc5c0102c08177fb3285ad59b8702483045022100dc2e81e03b98e2a450b63bcd45696cf0d722e9733497cdafeaa3952b003294c00220148e9623b7865d0bc592f0390264851baf77f502c3911bb4fa58ac606f10e5240121036f4dd476664e417eab722cf99a991c471d38a6a7562275be1bc2dc9a606b468d0d490800", "vin": [{"txinwitness": ["3045022100dc2e81e03b98e2a450b63bcd45696cf0d722e9733497cdafeaa3952b003294c00220148e9623b7865d0bc592f0390264851baf77f502c3911bb4fa58ac606f10e52401", "036f4dd476664e417eab722cf99a991c471d38a6a7562275be1bc2dc9a606b468d"], "sequence": 4294967294, "scriptSig": {"hex": "16001437de5da24ea7c8a3122ff93038f95492bd3834e5", "asm": "001437de5da24ea7c8a3122ff93038f95492bd3834e5"}, "vout": 11, "txid": "26aa87e71232758fd50ce41eda58e06acfa64f40412b542065fa28d5264d4888"}], "txid": "0d6170483e2a0e83080bc84e7bb86e41208ea3f5d5d6d0b26cf019080acc6b78", "blocktime": 1537870564, "version": 2, "confirmations": 11515, "time": 1537870564, "locktime": 542989, "vsize": 336, "size": 418}