{"hash": "0d632cbbe52f094316b8937ba42f0308a5b6619f1dbbe657664edd0faa6c3119", "blockhash": "0000000000000000001cda96e906b7601b7a6fb1a3b62bca570a9e5d8f4b3de1", "vout": [{"scriptPubKey": {"reqSigs": 1, "hex": "a9141c8301876314e62e5165668fefd2b364f99d88a487", "addresses": ["34HmnNPL5mNKFPghPQmBrmn72WA2Xy88hA"], "asm": "OP_HASH160 1c8301876314e62e5165668fefd2b364f99d88a4 OP_EQUAL", "type": "scripthash"}, "value": 0.34891407, "n": 0}], "hex": "020000000270573014fad89d07fe025f16242c6ca618c9313437f4f15050399500e4837dec010000006b4830450221008fb43f7969407b7520fbf16db2c67cc4b0f2cf314595bcc116c11af30608472b022030f1069377893550ce610aa418c8d2776b1b1d8653751f35f12f3b03cac0b130012102e68f09510cf78fec45674bfc5d428316f49695cb1230622b0fdda03569abb279fdffffff70573014fad89d07fe025f16242c6ca618c9313437f4f15050399500e4837dec120000006b483045022100d235377eab4a1819467e06100239f05afcadd2e761053d8ee1cc9ff9a744308902200d9a9ac72aba255afd751997ed86ef8b9ec1adcb38037705015841a90bf7ca4101210223b3b9d854751d5bd4fff290eaeb07b2764e471b36ba5f99b0d6fca3ab61843efdffffff018f6614020000000017a9141c8301876314e62e5165668fefd2b364f99d88a487b8480800", "vin": [{"sequence": 4294967293, "scriptSig": {"hex": "4830450221008fb43f7969407b7520fbf16db2c67cc4b0f2cf314595bcc116c11af30608472b022030f1069377893550ce610aa418c8d2776b1b1d8653751f35f12f3b03cac0b130012102e68f09510cf78fec45674bfc5d428316f49695cb1230622b0fdda03569abb279", "asm": "30450221008fb43f7969407b7520fbf16db2c67cc4b0f2cf314595bcc116c11af30608472b022030f1069377893550ce610aa418c8d2776b1b1d8653751f35f12f3b03cac0b130[ALL] 02e68f09510cf78fec45674bfc5d428316f49695cb1230622b0fdda03569abb279"}, "vout": 1, "txid": "ec7d83e40095395050f1f4373431c918a66c2c24165f02fe079dd8fa14305770"}, {"sequence": 4294967293, "scriptSig": {"hex": "483045022100d235377eab4a1819467e06100239f05afcadd2e761053d8ee1cc9ff9a744308902200d9a9ac72aba255afd751997ed86ef8b9ec1adcb38037705015841a90bf7ca4101210223b3b9d854751d5bd4fff290eaeb07b2764e471b36ba5f99b0d6fca3ab61843e", "asm": "3045022100d235377eab4a1819467e06100239f05afcadd2e761053d8ee1cc9ff9a744308902200d9a9ac72aba255afd751997ed86ef8b9ec1adcb38037705015841a90bf7ca41[ALL] 0223b3b9d854751d5bd4fff290eaeb07b2764e471b36ba5f99b0d6fca3ab61843e"}, "vout": 18, "txid": "ec7d83e40095395050f1f4373431c918a66c2c24165f02fe079dd8fa14305770"}], "txid": "0d632cbbe52f094316b8937ba42f0308a5b6619f1dbbe657664edd0faa6c3119", "blocktime": 1537873282, "version": 2, "confirmations": 11485, "time": 1537873282, "locktime": 542904, "vsize": 338, "size": 338}