{"hash": "0d67fbbbf0a67368ca467f10715e65312979d62d7f55c84afc609ef4c9c0be51", "blockhash": "0000000000000000001cda96e906b7601b7a6fb1a3b62bca570a9e5d8f4b3de1", "vout": [{"scriptPubKey": {"reqSigs": 1, "hex": "76a914d498f6b5b4c7f30337c55ed73b9fd85df9c0bfe488ac", "addresses": ["1LP7VmqD2GEStjK8JjGFvxDhvSHsoNFxKk"], "asm": "OP_DUP OP_HASH160 d498f6b5b4c7f30337c55ed73b9fd85df9c0bfe4 OP_EQUALVERIFY OP_CHECKSIG", "type": "pubkeyhash"}, "value": 0.0048, "n": 0}, {"scriptPubKey": {"reqSigs": 1, "hex": "76a9143566b994b0c6db842ed7cd6b034cb3703ffe290888ac", "addresses": ["15sMscxTp4azxGcdYumvAupNkrPvQDMZhW"], "asm": "OP_DUP OP_HASH160 3566b994b0c6db842ed7cd6b034cb3703ffe2908 OP_EQUALVERIFY OP_CHECKSIG", "type": "pubkeyhash"}, "value": 7.84e-06, "n": 1}], "hex": "020000000332a8400a1d4767dd761f25618545d2fe315bfe5ddab66fbfa1b08a8735235e93000000006a47304402204f52fc68e0fb52e9c5fd25a73fef2dd4288edef1d817b15bb7e7e7ad93b9a47002207cde1a3e99e3f585e901fdc4c6e788ce973a8f7e4f0854515ce724245d88c987012103b12a818594f13733e2547cc91dbe1da3b60ea4b79be5c8e622e0f500678de5d8fdffffffa16460dda81f3c87a429edf9e950256e1d051d21230cfa0aea29ebc329aa03aa170000006a473044022064d95467561fb08b580af8a8f1a1d8fb2a2bb50f89177e4e2dac65720c61caf3022031153c44d90ca5cd50cb1ee27794c5d9a736429474c3666ef79d235970173f42012103b12a818594f13733e2547cc91dbe1da3b60ea4b79be5c8e622e0f500678de5d8fdffffffbbbe0b4647a167fb7ed4c8b2705edbd82c1e00ba135fe9e7c3cf4f5067f404bd1c0000006a4730440220701f44b9f99beec67fa2e950cd9e04ffb8f3c8427f081d7446b746278564cf99022066ff89cb0d4074f59b056300cad00f1e0e56fb4e895bcfce0ec3d3ab24a8a0ff012103b12a818594f13733e2547cc91dbe1da3b60ea4b79be5c8e622e0f500678de5d8fdffffff0200530700000000001976a914d498f6b5b4c7f30337c55ed73b9fd85df9c0bfe488ac10030000000000001976a9143566b994b0c6db842ed7cd6b034cb3703ffe290888ac13490800", "vin": [{"sequence": 4294967293, "scriptSig": {"hex": "47304402204f52fc68e0fb52e9c5fd25a73fef2dd4288edef1d817b15bb7e7e7ad93b9a47002207cde1a3e99e3f585e901fdc4c6e788ce973a8f7e4f0854515ce724245d88c987012103b12a818594f13733e2547cc91dbe1da3b60ea4b79be5c8e622e0f500678de5d8", "asm": "304402204f52fc68e0fb52e9c5fd25a73fef2dd4288edef1d817b15bb7e7e7ad93b9a47002207cde1a3e99e3f585e901fdc4c6e788ce973a8f7e4f0854515ce724245d88c987[ALL] 03b12a818594f13733e2547cc91dbe1da3b60ea4b79be5c8e622e0f500678de5d8"}, "vout": 0, "txid": "935e2335878ab0a1bf6fb6da5dfe5b31fed2458561251f76dd67471d0a40a832"}, {"sequence": 4294967293, "scriptSig": {"hex": "473044022064d95467561fb08b580af8a8f1a1d8fb2a2bb50f89177e4e2dac65720c61caf3022031153c44d90ca5cd50cb1ee27794c5d9a736429474c3666ef79d235970173f42012103b12a818594f13733e2547cc91dbe1da3b60ea4b79be5c8e622e0f500678de5d8", "asm": "3044022064d95467561fb08b580af8a8f1a1d8fb2a2bb50f89177e4e2dac65720c61caf3022031153c44d90ca5cd50cb1ee27794c5d9a736429474c3666ef79d235970173f42[ALL] 03b12a818594f13733e2547cc91dbe1da3b60ea4b79be5c8e622e0f500678de5d8"}, "vout": 23, "txid": "aa03aa29c3eb29ea0afa0c23211d051d6e2550e9f9ed29a4873c1fa8dd6064a1"}, {"sequence": 4294967293, "scriptSig": {"hex": "4730440220701f44b9f99beec67fa2e950cd9e04ffb8f3c8427f081d7446b746278564cf99022066ff89cb0d4074f59b056300cad00f1e0e56fb4e895bcfce0ec3d3ab24a8a0ff012103b12a818594f13733e2547cc91dbe1da3b60ea4b79be5c8e622e0f500678de5d8", "asm": "30440220701f44b9f99beec67fa2e950cd9e04ffb8f3c8427f081d7446b746278564cf99022066ff89cb0d4074f59b056300cad00f1e0e56fb4e895bcfce0ec3d3ab24a8a0ff[ALL] 03b12a818594f13733e2547cc91dbe1da3b60ea4b79be5c8e622e0f500678de5d8"}, "vout": 28, "txid": "bd04f467504fcfc3e7e95f13ba001e2cd8db5e70b2c8d47efb67a147460bbebb"}], "txid": "0d67fbbbf0a67368ca467f10715e65312979d62d7f55c84afc609ef4c9c0be51", "blocktime": 1537873282, "version": 2, "confirmations": 11485, "time": 1537873282, "locktime": 542995, "vsize": 519, "size": 519}