{"hash": "0d6b21e32f2d5cc2d8969ad4b76d6fe9cc1d4d59d351f41843e624b849488ed4", "blockhash": "00000000000000000018f53835495a110e01622372bf6ae95dc86f2b0ab887b0", "vout": [{"scriptPubKey": {"reqSigs": 1, "hex": "76a914b97d3b174bcfc3fea8246962e34338c4003e9a0688ac", "addresses": ["1Hun2gNcAnHyzLuyykcYcrpSD3NiZbskWV"], "asm": "OP_DUP OP_HASH160 b97d3b174bcfc3fea8246962e34338c4003e9a06 OP_EQUALVERIFY OP_CHECKSIG", "type": "pubkeyhash"}, "value": 0.00333496, "n": 0}, {"scriptPubKey": {"reqSigs": 1, "hex": "76a914dabcc859f52e679166865ae70ff61fa029301a3988ac", "addresses": ["1LwaTfc6rbqBRKLecSNro3msKsLrJDFSMh"], "asm": "OP_DUP OP_HASH160 dabcc859f52e679166865ae70ff61fa029301a39 OP_EQUALVERIFY OP_CHECKSIG", "type": "pubkeyhash"}, "value": 1e-05, "n": 1}], "hex": "010000000149e63746308d9e2f1e9624cc692d18acbc93002dbb070bb716f12baa194f7c0e000000006a47304402207e22c89393b5c68f9f2e83652af126786382438cbdcaf738d0f4477600d904e802206e0bd8b033dcb45983354812eee14c5eff2e706936a30d2c2afe5015151bc9c3012102ae9e8327810da3b8094db78e949992d84f7bcafb3f955d5e01ccfa391eac5ed2ffffffff02b8160500000000001976a914b97d3b174bcfc3fea8246962e34338c4003e9a0688ace8030000000000001976a914dabcc859f52e679166865ae70ff61fa029301a3988ac00000000", "vin": [{"sequence": 4294967295, "scriptSig": {"hex": "47304402207e22c89393b5c68f9f2e83652af126786382438cbdcaf738d0f4477600d904e802206e0bd8b033dcb45983354812eee14c5eff2e706936a30d2c2afe5015151bc9c3012102ae9e8327810da3b8094db78e949992d84f7bcafb3f955d5e01ccfa391eac5ed2", "asm": "304402207e22c89393b5c68f9f2e83652af126786382438cbdcaf738d0f4477600d904e802206e0bd8b033dcb45983354812eee14c5eff2e706936a30d2c2afe5015151bc9c3[ALL] 02ae9e8327810da3b8094db78e949992d84f7bcafb3f955d5e01ccfa391eac5ed2"}, "vout": 0, "txid": "0e7c4f19aa2bf116b70b07bb2d0093bcac182d69cc24961e2f9e8d304637e649"}], "txid": "0d6b21e32f2d5cc2d8969ad4b76d6fe9cc1d4d59d351f41843e624b849488ed4", "blocktime": 1537870928, "version": 1, "confirmations": 11514, "time": 1537870928, "locktime": 0, "vsize": 225, "size": 225}