{"hash": "0d70225e8ebbeba73d953435660050c323c395276d8e709699492a6e08b4e84e", "blockhash": "00000000000000000018f53835495a110e01622372bf6ae95dc86f2b0ab887b0", "vout": [{"scriptPubKey": {"reqSigs": 1, "hex": "76a914cd49e4b735f81b9332974fe1e18ffa6717c49cea88ac", "addresses": ["1KiU3XkH6F3tD5CedpLAkPGS4Jme4iKwFN"], "asm": "OP_DUP OP_HASH160 cd49e4b735f81b9332974fe1e18ffa6717c49cea OP_EQUALVERIFY OP_CHECKSIG", "type": "pubkeyhash"}, "value": 0.0154431, "n": 0}, {"scriptPubKey": {"reqSigs": 1, "hex": "76a914792883ae8accf86d26edf1fe366a24d5fa37b71d88ac", "addresses": ["1C3dJCc86r2P89rafJMbuntXzNs38k56Hk"], "asm": "OP_DUP OP_HASH160 792883ae8accf86d26edf1fe366a24d5fa37b71d OP_EQUALVERIFY OP_CHECKSIG", "type": "pubkeyhash"}, "value": 1.14555012, "n": 1}], "hex": "01000000019d77a9ed251850c17fa1d117299730b4ea70f735b9471d765813c214214a95c4010000006a4730440220107728c3b063fb790eb06b6bc5dd35e63dc92524e1f45dae8372a75e174ff97602205b510b0b0780549914d6e56b7f041d8ce4d22bbb27834c83c74cf66d1982237d012103e9f4eb008e96430002b77f964d700ab49c0500f5b6b0ad33ed7a5a66f0774528ffffffff0276901700000000001976a914cd49e4b735f81b9332974fe1e18ffa6717c49cea88ac84f8d306000000001976a914792883ae8accf86d26edf1fe366a24d5fa37b71d88ac00000000", "vin": [{"sequence": 4294967295, "scriptSig": {"hex": "4730440220107728c3b063fb790eb06b6bc5dd35e63dc92524e1f45dae8372a75e174ff97602205b510b0b0780549914d6e56b7f041d8ce4d22bbb27834c83c74cf66d1982237d012103e9f4eb008e96430002b77f964d700ab49c0500f5b6b0ad33ed7a5a66f0774528", "asm": "30440220107728c3b063fb790eb06b6bc5dd35e63dc92524e1f45dae8372a75e174ff97602205b510b0b0780549914d6e56b7f041d8ce4d22bbb27834c83c74cf66d1982237d[ALL] 03e9f4eb008e96430002b77f964d700ab49c0500f5b6b0ad33ed7a5a66f0774528"}, "vout": 1, "txid": "c4954a2114c21358761d47b935f770eab430972917d1a17fc1501825eda9779d"}], "txid": "0d70225e8ebbeba73d953435660050c323c395276d8e709699492a6e08b4e84e", "blocktime": 1537870928, "version": 1, "confirmations": 11514, "time": 1537870928, "locktime": 0, "vsize": 225, "size": 225}