{"hash": "0d778d990b92cb77518dad4a0efa517c8ac5130df608096b97d2e53923f634c7", "blockhash": "00000000000000000017f5eb5941039fbcee6240d03bc1f2f8e35350df66a1d8", "vout": [{"scriptPubKey": {"reqSigs": 1, "hex": "76a914e6624424ace9325d164c6ce4146c372acc00acaa88ac", "addresses": ["1N1A8mxn17Vptq39ZCjvy3bLG1haFCwv6n"], "asm": "OP_DUP OP_HASH160 e6624424ace9325d164c6ce4146c372acc00acaa OP_EQUALVERIFY OP_CHECKSIG", "type": "pubkeyhash"}, "value": 0.0063681, "n": 0}, {"scriptPubKey": {"type": "nulldata", "hex": "6a4c50000077fd000111e85041433989018c4eec9bd19ed074892d00f8e87af8e8e963c7cfd5b9c612cb83320704831df896aeb96185b45baa19830613cebbf6251a091d100759d4ba30d2c37bb011d97e02cf", "asm": "OP_RETURN 000077fd000111e85041433989018c4eec9bd19ed074892d00f8e87af8e8e963c7cfd5b9c612cb83320704831df896aeb96185b45baa19830613cebbf6251a091d100759d4ba30d2c37bb011d97e02cf"}, "value": 0.0, "n": 1}], "hex": "010000000166db2a88284d3d97cc0669b81b16a878fb127a15e08ef4496f8fcba2adfb67bd010000006a47304402207e1093f3a56e7b1ca5ca0a6e074d4af29d9f48d415ef2e0c115ba3fe9af2a96702203832dceabd1a927fc9e69f1f21e7c04d14c3bcd709dad6462c55c7e306024879012103eab311b234f221493648c8fa7579a9ebd20000a6b34fd899cd16748d8a6532d6ffffffff028ab70900000000001976a914e6624424ace9325d164c6ce4146c372acc00acaa88ac0000000000000000536a4c50000077fd000111e85041433989018c4eec9bd19ed074892d00f8e87af8e8e963c7cfd5b9c612cb83320704831df896aeb96185b45baa19830613cebbf6251a091d100759d4ba30d2c37bb011d97e02cf00000000", "vin": [{"sequence": 4294967295, "scriptSig": {"hex": "47304402207e1093f3a56e7b1ca5ca0a6e074d4af29d9f48d415ef2e0c115ba3fe9af2a96702203832dceabd1a927fc9e69f1f21e7c04d14c3bcd709dad6462c55c7e306024879012103eab311b234f221493648c8fa7579a9ebd20000a6b34fd899cd16748d8a6532d6", "asm": "304402207e1093f3a56e7b1ca5ca0a6e074d4af29d9f48d415ef2e0c115ba3fe9af2a96702203832dceabd1a927fc9e69f1f21e7c04d14c3bcd709dad6462c55c7e306024879[ALL] 03eab311b234f221493648c8fa7579a9ebd20000a6b34fd899cd16748d8a6532d6"}, "vout": 1, "txid": "bd67fbada2cb8f6f49f48ee0157a12fb78a8161bb86906cc973d4d28882adb66"}], "txid": "0d778d990b92cb77518dad4a0efa517c8ac5130df608096b97d2e53923f634c7", "blocktime": 1537874412, "version": 1, "confirmations": 11467, "time": 1537874412, "locktime": 0, "vsize": 283, "size": 283}