{"hash": "4d9d7e05f2ae2a101b07543144345d27a1f323b01ca30b7e09d423f784a7add3", "blockhash": "00000000000000000024a2167bbff67b0be802c0b01cdd79e6331c2be6459f87", "vout": [{"scriptPubKey": {"reqSigs": 1, "hex": "76a9142e1b944fe7ffbe969fc1df8d662fd7b5d6303c9b88ac", "addresses": ["15Co856cRnFRCKwSSzECoyT3ozVhuFoJZ6"], "asm": "OP_DUP OP_HASH160 2e1b944fe7ffbe969fc1df8d662fd7b5d6303c9b OP_EQUALVERIFY OP_CHECKSIG", "type": "pubkeyhash"}, "value": 0.0028616, "n": 0}, {"scriptPubKey": {"reqSigs": 1, "hex": "a9140c185d6a6952ad61fb918db265a33378fa7271a687", "addresses": ["32nyDkPsNpUoazFLvbFFp9vtkmMBigtik8"], "asm": "OP_HASH160 0c185d6a6952ad61fb918db265a33378fa7271a6 OP_EQUAL", "type": "scripthash"}, "value": 0.00999372, "n": 1}], "hex": "020000000001029c73a7f21582d3073ff2beddff27edd833898e1cf4a170769a62be172f62e47d0400000017160014d4b6d9cd4e05f42a6a300d3dbd31a22f6675b344feffffffd212b57536c286b9177e13b888b2ef5746e4c7b524cdad5ba2888468752425830000000017160014be14b9fc9ddbb3313b2b87e96264cf68b02700bffeffffff02d05d0400000000001976a9142e1b944fe7ffbe969fc1df8d662fd7b5d6303c9b88accc3f0f000000000017a9140c185d6a6952ad61fb918db265a33378fa7271a6870248304502210090fe7679711efa130e74c4454cc7abebf5bd212a5bdc619f7fdf51e135948b96022037d0a99b0b6489f1666e873584fae20948f0eab0968ebfc937c7d4f1caa5a6cd012103f16ec963e47d224aeeb9dbfd7abff0d11c5c0bc69ec5c07bf93aa43ebc42d6170247304402201c7d024923bfb204c5059b24bb36a474592bb3cbb3e67effe232a15a2cbb50b602206e166fe877542e4808cfdfe14b43e67c6f4a275bb26106f5445637e1e282f6a6012102004857e755b364bac6d3cfe229802db9b98ef0416d89976622cbcc9e9a7e1c9f0d490800", "vin": [{"txinwitness": ["304502210090fe7679711efa130e74c4454cc7abebf5bd212a5bdc619f7fdf51e135948b96022037d0a99b0b6489f1666e873584fae20948f0eab0968ebfc937c7d4f1caa5a6cd01", "03f16ec963e47d224aeeb9dbfd7abff0d11c5c0bc69ec5c07bf93aa43ebc42d617"], "sequence": 4294967294, "scriptSig": {"hex": "160014d4b6d9cd4e05f42a6a300d3dbd31a22f6675b344", "asm": "0014d4b6d9cd4e05f42a6a300d3dbd31a22f6675b344"}, "vout": 4, "txid": "7de4622f17be629a7670a1f41c8e8933d8ed27ffddbef23f07d38215f2a7739c"}, {"txinwitness": ["304402201c7d024923bfb204c5059b24bb36a474592bb3cbb3e67effe232a15a2cbb50b602206e166fe877542e4808cfdfe14b43e67c6f4a275bb26106f5445637e1e282f6a601", "02004857e755b364bac6d3cfe229802db9b98ef0416d89976622cbcc9e9a7e1c9f"], "sequence": 4294967294, "scriptSig": {"hex": "160014be14b9fc9ddbb3313b2b87e96264cf68b02700bf", "asm": "0014be14b9fc9ddbb3313b2b87e96264cf68b02700bf"}, "vout": 0, "txid": "83252475688488a25badcd24b5c7e44657efb288b8137e17b986c23675b512d2"}], "txid": "0d7859108fa832cfd13586f3f8cfb60360fa0e754ea732fbdba01131094fc5b8", "blocktime": 1537870564, "version": 2, "confirmations": 11515, "time": 1537870564, "locktime": 542989, "vsize": 259, "size": 421}