{"hash": "0d7b9452f594b21b8fd039ed55434ccdb4bfdb919a2d5d6e8870ab9b4340420d", "blockhash": "0000000000000000001f76057863aec43deb6fa401d9628bb513d65a8098bfab", "vout": [{"scriptPubKey": {"reqSigs": 1, "hex": "a91469f3757331c58aa5bb4e7485a905aab71d63fd9f87", "addresses": ["3BMEXVuRnsezBdECNRPMjbMif1dTad7DLJ"], "asm": "OP_HASH160 69f3757331c58aa5bb4e7485a905aab71d63fd9f OP_EQUAL", "type": "scripthash"}, "value": 0.008024, "n": 0}, {"scriptPubKey": {"reqSigs": 1, "hex": "76a914975e0f4b49f9c9670bdc1e32d16aec93a6e1480888ac", "addresses": ["1EoMiMQj1v1u1ByLcw1vTEHGzBZZHGX1Qy"], "asm": "OP_DUP OP_HASH160 975e0f4b49f9c9670bdc1e32d16aec93a6e14808 OP_EQUALVERIFY OP_CHECKSIG", "type": "pubkeyhash"}, "value": 0.04056756, "n": 1}], "hex": "01000000034dbcb611e7931a2a710d72bcafe287adb3c1d8fc93c1865a1f1b11dc61b65e98010000006b48304502210092fd5ed9adfc843cea10caa4b252c2f909ebfb4535b85bdf090f03841f8346e802203ccb9f5d66d7ca8cdc147b008e6c768f91fa730853d59dc9e943dc1123f870c1012103d0ab00d20e9a50e6547ff68b248a014d4ef8521e368da55b332e3fdaf925beedffffffff82cf51a08a6da7b85473291e511ed05af533523fb469d959557012dd098333c8000000006b483045022100968eb43d93037d60dba2990b8fc3ffb17ad179a93e9441dfbc6354bf2fb914fe022064d11d61164f96a4ab6e9a9a40d0a3be9111464206b3c1e7c3491da3bcdadbca0121033ba36fddbed98afd6a68b5ba68fc0050b1321eac534336a8964b541903044ea3ffffffff43d144fef3e90a53e9a8588a679ac665f4ed5de9fb72f766140f538d908082ea000000006b483045022100be35ffba5c062edd9c37c030263b83b7cf69c407fab58a3b0a8f5bb27b48a88f02201591eaf9a8b10c0f87e08baf90a7f16e7d4db368eea1014775181411c9d55d7a01210293865470d0db3ecfac74e9d5f2563818c222043973e5c0dc8a8b32c7b60f1211ffffffff02603e0c000000000017a91469f3757331c58aa5bb4e7485a905aab71d63fd9f87b4e63d00000000001976a914975e0f4b49f9c9670bdc1e32d16aec93a6e1480888ac00000000", "vin": [{"sequence": 4294967295, "scriptSig": {"hex": "48304502210092fd5ed9adfc843cea10caa4b252c2f909ebfb4535b85bdf090f03841f8346e802203ccb9f5d66d7ca8cdc147b008e6c768f91fa730853d59dc9e943dc1123f870c1012103d0ab00d20e9a50e6547ff68b248a014d4ef8521e368da55b332e3fdaf925beed", "asm": "304502210092fd5ed9adfc843cea10caa4b252c2f909ebfb4535b85bdf090f03841f8346e802203ccb9f5d66d7ca8cdc147b008e6c768f91fa730853d59dc9e943dc1123f870c1[ALL] 03d0ab00d20e9a50e6547ff68b248a014d4ef8521e368da55b332e3fdaf925beed"}, "vout": 1, "txid": "985eb661dc111b1f5a86c193fcd8c1b3ad87e2afbc720d712a1a93e711b6bc4d"}, {"sequence": 4294967295, "scriptSig": {"hex": "483045022100968eb43d93037d60dba2990b8fc3ffb17ad179a93e9441dfbc6354bf2fb914fe022064d11d61164f96a4ab6e9a9a40d0a3be9111464206b3c1e7c3491da3bcdadbca0121033ba36fddbed98afd6a68b5ba68fc0050b1321eac534336a8964b541903044ea3", "asm": "3045022100968eb43d93037d60dba2990b8fc3ffb17ad179a93e9441dfbc6354bf2fb914fe022064d11d61164f96a4ab6e9a9a40d0a3be9111464206b3c1e7c3491da3bcdadbca[ALL] 033ba36fddbed98afd6a68b5ba68fc0050b1321eac534336a8964b541903044ea3"}, "vout": 0, "txid": "c8338309dd12705559d969b43f5233f55ad01e511e297354b8a76d8aa051cf82"}, {"sequence": 4294967295, "scriptSig": {"hex": "483045022100be35ffba5c062edd9c37c030263b83b7cf69c407fab58a3b0a8f5bb27b48a88f02201591eaf9a8b10c0f87e08baf90a7f16e7d4db368eea1014775181411c9d55d7a01210293865470d0db3ecfac74e9d5f2563818c222043973e5c0dc8a8b32c7b60f1211", "asm": "3045022100be35ffba5c062edd9c37c030263b83b7cf69c407fab58a3b0a8f5bb27b48a88f02201591eaf9a8b10c0f87e08baf90a7f16e7d4db368eea1014775181411c9d55d7a[ALL] 0293865470d0db3ecfac74e9d5f2563818c222043973e5c0dc8a8b32c7b60f1211"}, "vout": 0, "txid": "ea8280908d530f1466f772fbe95dedf465c69a678a58a8e9530ae9f3fe44d143"}], "txid": "0d7b9452f594b21b8fd039ed55434ccdb4bfdb919a2d5d6e8870ab9b4340420d", "blocktime": 1537873891, "version": 1, "confirmations": 11478, "time": 1537873891, "locktime": 0, "vsize": 520, "size": 520}