{"hash": "0d7ee8e11107fe8ee2d18ef882853def02b4b646d8d03af04a3f118aa2a61fa3", "blockhash": "000000000000000000022b45ed06c6f4ccd3cf7fb5ba4856ebd2e58215665228", "vout": [{"scriptPubKey": {"type": "nulldata", "hex": "6a146f6d6e69000000000000001f0000002de012c9eb", "asm": "OP_RETURN 6f6d6e69000000000000001f0000002de012c9eb"}, "value": 0.0, "n": 0}, {"scriptPubKey": {"reqSigs": 1, "hex": "76a914a25dec4d0011064ef106a983c39c7a540699f22088ac", "addresses": ["1FoWyxwPXuj4C6abqwhjDWdz6D4PZgYRjA"], "asm": "OP_DUP OP_HASH160 a25dec4d0011064ef106a983c39c7a540699f220 OP_EQUALVERIFY OP_CHECKSIG", "type": "pubkeyhash"}, "value": 5.46e-06, "n": 1}, {"scriptPubKey": {"reqSigs": 1, "hex": "76a9141a142ca9822a3f12f25bc72406c936b34e6487cb88ac", "addresses": ["13NtjjZLPE3sAQRAnyZhPqNKXSdh6A8CnU"], "asm": "OP_DUP OP_HASH160 1a142ca9822a3f12f25bc72406c936b34e6487cb OP_EQUALVERIFY OP_CHECKSIG", "type": "pubkeyhash"}, "value": 0.00497846, "n": 2}], "hex": "0100000003426ca54007f16f2f77f1242ca6cf4ee6bec402e4a8feaf13cb46d0a346d497dd010000006a4730440220025b8fed5412d094e500377ce44e46bda49013583cceb00cd7ef5be47b9357500220766a846e4422d960bc2fbfdba65596bd365c69a406afeb879c2b5c2ec47ffed40121034d90a4e8d3c968fbfa4d579257eb22f0a1b474961fb95f485591c30d2ada7fdefefffffff318a1436ed56fd1e27d86f1811ec342d845fc0a08811cdc79623cf3e9cb8573010000006b483045022100a374a486275f91f3f10a3890ef0afe6a827537b82aaf72b8d4e7ec91c3deab6502201d504a49926e1697aafadb272819b80306bd6d0a123494b03f694f1f5400a9dc0121034d90a4e8d3c968fbfa4d579257eb22f0a1b474961fb95f485591c30d2ada7fdefeffffffb2736505efde5e22dbe348b3a0a8973c4d4868e257c1c21f22bd5783fae18e42020000006a47304402207aa8f792bce8f2f71cfbc1fe247607b32a6e42efe69c14f4d05dd18be898263b02202d21647b013ef027ba5ea50a318696cae1688241ba4e7b68b9b8c6ca6bca76b90121034d90a4e8d3c968fbfa4d579257eb22f0a1b474961fb95f485591c30d2ada7fdefeffffff030000000000000000166a146f6d6e69000000000000001f0000002de012c9eb22020000000000001976a914a25dec4d0011064ef106a983c39c7a540699f22088acb6980700000000001976a9141a142ca9822a3f12f25bc72406c936b34e6487cb88ac0b490800", "vin": [{"sequence": 4294967294, "scriptSig": {"hex": "4730440220025b8fed5412d094e500377ce44e46bda49013583cceb00cd7ef5be47b9357500220766a846e4422d960bc2fbfdba65596bd365c69a406afeb879c2b5c2ec47ffed40121034d90a4e8d3c968fbfa4d579257eb22f0a1b474961fb95f485591c30d2ada7fde", "asm": "30440220025b8fed5412d094e500377ce44e46bda49013583cceb00cd7ef5be47b9357500220766a846e4422d960bc2fbfdba65596bd365c69a406afeb879c2b5c2ec47ffed4[ALL] 034d90a4e8d3c968fbfa4d579257eb22f0a1b474961fb95f485591c30d2ada7fde"}, "vout": 1, "txid": "dd97d446a3d046cb13affea8e402c4bee64ecfa62c24f1772f6ff10740a56c42"}, {"sequence": 4294967294, "scriptSig": {"hex": "483045022100a374a486275f91f3f10a3890ef0afe6a827537b82aaf72b8d4e7ec91c3deab6502201d504a49926e1697aafadb272819b80306bd6d0a123494b03f694f1f5400a9dc0121034d90a4e8d3c968fbfa4d579257eb22f0a1b474961fb95f485591c30d2ada7fde", "asm": "3045022100a374a486275f91f3f10a3890ef0afe6a827537b82aaf72b8d4e7ec91c3deab6502201d504a49926e1697aafadb272819b80306bd6d0a123494b03f694f1f5400a9dc[ALL] 034d90a4e8d3c968fbfa4d579257eb22f0a1b474961fb95f485591c30d2ada7fde"}, "vout": 1, "txid": "7385cbe9f33c6279dc1c81080afc45d842c31e81f1867de2d16fd56e43a118f3"}, {"sequence": 4294967294, "scriptSig": {"hex": "47304402207aa8f792bce8f2f71cfbc1fe247607b32a6e42efe69c14f4d05dd18be898263b02202d21647b013ef027ba5ea50a318696cae1688241ba4e7b68b9b8c6ca6bca76b90121034d90a4e8d3c968fbfa4d579257eb22f0a1b474961fb95f485591c30d2ada7fde", "asm": "304402207aa8f792bce8f2f71cfbc1fe247607b32a6e42efe69c14f4d05dd18be898263b02202d21647b013ef027ba5ea50a318696cae1688241ba4e7b68b9b8c6ca6bca76b9[ALL] 034d90a4e8d3c968fbfa4d579257eb22f0a1b474961fb95f485591c30d2ada7fde"}, "vout": 2, "txid": "428ee1fa8357bd221fc2c157e268484d3c97a8a0b348e3db225edeef056573b2"}], "txid": "0d7ee8e11107fe8ee2d18ef882853def02b4b646d8d03af04a3f118aa2a61fa3", "blocktime": 1537869901, "version": 1, "confirmations": 11524, "time": 1537869901, "locktime": 542987, "vsize": 551, "size": 551}