{"hash": "3f387ae7914ef8afedf137d360933fd4a59c0bc9eb7d601bb7810895bffc00c0", "blockhash": "0000000000000000000baef3f32e3676a92c3b2e5da21b426e4f302fc371ce76", "vout": [{"scriptPubKey": {"reqSigs": 1, "hex": "a91490e99e8d26d05ead3c05430c292a887bbff695f587", "addresses": ["3EuF6KjJawxTiUsea3Sc8hsLUGmVEf7Xg5"], "asm": "OP_HASH160 90e99e8d26d05ead3c05430c292a887bbff695f5 OP_EQUAL", "type": "scripthash"}, "value": 0.00115106, "n": 0}, {"scriptPubKey": {"type": "nulldata", "hex": "6a146f6d6e69000000000000001f0000000005f5e100", "asm": "OP_RETURN 6f6d6e69000000000000001f0000000005f5e100"}, "value": 0.0, "n": 1}, {"scriptPubKey": {"reqSigs": 1, "hex": "a91490e99e8d26d05ead3c05430c292a887bbff695f587", "addresses": ["3EuF6KjJawxTiUsea3Sc8hsLUGmVEf7Xg5"], "asm": "OP_HASH160 90e99e8d26d05ead3c05430c292a887bbff695f5 OP_EQUAL", "type": "scripthash"}, "value": 5.4e-06, "n": 2}], "hex": "0100000000010246b47e0d3084e6a520ee0c29c283ae72111492e14e092ca4b25dd57870054c6b0000000017160014f6e1792e7852ebd5ae795c2a25d579acdfadec2dffffffff46b47e0d3084e6a520ee0c29c283ae72111492e14e092ca4b25dd57870054c6b0200000017160014f6e1792e7852ebd5ae795c2a25d579acdfadec2dffffffff03a2c101000000000017a91490e99e8d26d05ead3c05430c292a887bbff695f5870000000000000000166a146f6d6e69000000000000001f0000000005f5e1001c0200000000000017a91490e99e8d26d05ead3c05430c292a887bbff695f58702483045022100ec8bdcb4c69758971a32cc14c7899f42132cb71b550548716493c4926bcdad60022047a3068ff8ef8407c342dedbccf660776532e25635bc65487c2bd3e6ceb3112b012103f1cf988013a33e053d1e9bd54c4798c1a6dc362a5b2798b5344049fca40e2db002483045022100a2703e734ae3d8a43f513fc6de990eab85d06d307e33840c07ca5c215aea9b8c02207892ec2d414ed85ee760c26787e60df0a8936696a6aa6559a5f06c4c407ece94012103f1cf988013a33e053d1e9bd54c4798c1a6dc362a5b2798b5344049fca40e2db000000000", "vin": [{"txinwitness": ["3045022100ec8bdcb4c69758971a32cc14c7899f42132cb71b550548716493c4926bcdad60022047a3068ff8ef8407c342dedbccf660776532e25635bc65487c2bd3e6ceb3112b01", "03f1cf988013a33e053d1e9bd54c4798c1a6dc362a5b2798b5344049fca40e2db0"], "sequence": 4294967295, "scriptSig": {"hex": "160014f6e1792e7852ebd5ae795c2a25d579acdfadec2d", "asm": "0014f6e1792e7852ebd5ae795c2a25d579acdfadec2d"}, "vout": 0, "txid": "6b4c057078d55db2a42c094ee192141172ae83c2290cee20a5e684300d7eb446"}, {"txinwitness": ["3045022100a2703e734ae3d8a43f513fc6de990eab85d06d307e33840c07ca5c215aea9b8c02207892ec2d414ed85ee760c26787e60df0a8936696a6aa6559a5f06c4c407ece9401", "03f1cf988013a33e053d1e9bd54c4798c1a6dc362a5b2798b5344049fca40e2db0"], "sequence": 4294967295, "scriptSig": {"hex": "160014f6e1792e7852ebd5ae795c2a25d579acdfadec2d", "asm": "0014f6e1792e7852ebd5ae795c2a25d579acdfadec2d"}, "vout": 2, "txid": "6b4c057078d55db2a42c094ee192141172ae83c2290cee20a5e684300d7eb446"}], "txid": "0d81358c686abb6af62d4cba84ae51890203472c33ca4c7f766be6fbbe127dc3", "blocktime": 1537876114, "version": 1, "confirmations": 11460, "time": 1537876114, "locktime": 0, "vsize": 288, "size": 451}