{"hash": "0d83306bf51990deb97bc1d37a51db6b5e6b7de220052ac46e0a92dfb15fcac1", "blockhash": "0000000000000000001f76057863aec43deb6fa401d9628bb513d65a8098bfab", "vout": [{"scriptPubKey": {"reqSigs": 1, "hex": "76a914aef7db30dd7a1a0e508b610e5de8956e21010a9388ac", "addresses": ["1Gx9VjMKXwkbZKPMv9zfxRc6bZjsLcmQEX"], "asm": "OP_DUP OP_HASH160 aef7db30dd7a1a0e508b610e5de8956e21010a93 OP_EQUALVERIFY OP_CHECKSIG", "type": "pubkeyhash"}, "value": 0.000307, "n": 0}, {"scriptPubKey": {"reqSigs": 1, "hex": "a91476fe1757e6219587201dbe5ad31390fb39ae0e9787", "addresses": ["3CYC3k9hQ6zUzYeAiGGJWfZ7dS4dm74kiL"], "asm": "OP_HASH160 76fe1757e6219587201dbe5ad31390fb39ae0e97 OP_EQUAL", "type": "scripthash"}, "value": 0.00252504, "n": 1}], "hex": "010000000164f0d6f6a09cb090435603eab82bf9e90e6905bd3f4bffe08738afca5b60b3f0010000006a47304402202bcf5f1980eb05a7505087980aa0ee166324e1dcdc6144d6471a41a7bf24353502205eec01592cf6cdaeb307c8719012b9483e9df4f2339bd9591e4bac59cd328ea90121020df8d28feb6ece6e402337291b44bca3889ad56ccb6f088ca25238b202444673ffffffff02ec770000000000001976a914aef7db30dd7a1a0e508b610e5de8956e21010a9388ac58da03000000000017a91476fe1757e6219587201dbe5ad31390fb39ae0e978700000000", "vin": [{"sequence": 4294967295, "scriptSig": {"hex": "47304402202bcf5f1980eb05a7505087980aa0ee166324e1dcdc6144d6471a41a7bf24353502205eec01592cf6cdaeb307c8719012b9483e9df4f2339bd9591e4bac59cd328ea90121020df8d28feb6ece6e402337291b44bca3889ad56ccb6f088ca25238b202444673", "asm": "304402202bcf5f1980eb05a7505087980aa0ee166324e1dcdc6144d6471a41a7bf24353502205eec01592cf6cdaeb307c8719012b9483e9df4f2339bd9591e4bac59cd328ea9[ALL] 020df8d28feb6ece6e402337291b44bca3889ad56ccb6f088ca25238b202444673"}, "vout": 1, "txid": "f0b3605bcaaf3887e0ff4b3fbd05690ee9f92bb8ea03564390b09ca0f6d6f064"}], "txid": "0d83306bf51990deb97bc1d37a51db6b5e6b7de220052ac46e0a92dfb15fcac1", "blocktime": 1537873891, "version": 1, "confirmations": 11478, "time": 1537873891, "locktime": 0, "vsize": 223, "size": 223}