{"hash": "0d8e2eb10b49dfb22de9aac2d534197035c3b6b93de4a2162511976b4564b0ba", "blockhash": "0000000000000000001cda96e906b7601b7a6fb1a3b62bca570a9e5d8f4b3de1", "vout": [{"scriptPubKey": {"reqSigs": 1, "hex": "a914bfae4db72f394363b49a7e35a287e9b37974466d87", "addresses": ["3KAXo1RjtcUix6C3DGABTBkvWwvtc3zJz4"], "asm": "OP_HASH160 bfae4db72f394363b49a7e35a287e9b37974466d OP_EQUAL", "type": "scripthash"}, "value": 0.013279, "n": 0}, {"scriptPubKey": {"reqSigs": 1, "hex": "76a914dbf11e51c80e5fc7df37c2bb2a548e9b584931f788ac", "addresses": ["1M3wqDP4osq96Gr7aZmdHLP3XGFYFG1QgB"], "asm": "OP_DUP OP_HASH160 dbf11e51c80e5fc7df37c2bb2a548e9b584931f7 OP_EQUALVERIFY OP_CHECKSIG", "type": "pubkeyhash"}, "value": 0.0359288, "n": 1}], "hex": "0100000001d64541694739cbd3501aa77e7435a18140447f80f5bce8a87e1b72b9cd59bdc8010000006b483045022100d8780e62f702e18a106c08d7ed4372019108ace12b161b1ee5fdd1a63069c33a022072a1637af94d6258f6d958f17d6748287dce3a4877e725465d1524ce6260243d012103f21b12a9eb73b033f627c1662b1a5bd34f648d985258d9cdad48b429db636220ffffffff021c4314000000000017a914bfae4db72f394363b49a7e35a287e9b37974466d87b0d23600000000001976a914dbf11e51c80e5fc7df37c2bb2a548e9b584931f788ac00000000", "vin": [{"sequence": 4294967295, "scriptSig": {"hex": "483045022100d8780e62f702e18a106c08d7ed4372019108ace12b161b1ee5fdd1a63069c33a022072a1637af94d6258f6d958f17d6748287dce3a4877e725465d1524ce6260243d012103f21b12a9eb73b033f627c1662b1a5bd34f648d985258d9cdad48b429db636220", "asm": "3045022100d8780e62f702e18a106c08d7ed4372019108ace12b161b1ee5fdd1a63069c33a022072a1637af94d6258f6d958f17d6748287dce3a4877e725465d1524ce6260243d[ALL] 03f21b12a9eb73b033f627c1662b1a5bd34f648d985258d9cdad48b429db636220"}, "vout": 1, "txid": "c8bd59cdb9721b7ea8e8bcf5807f444081a135747ea71a50d3cb3947694145d6"}], "txid": "0d8e2eb10b49dfb22de9aac2d534197035c3b6b93de4a2162511976b4564b0ba", "blocktime": 1537873282, "version": 1, "confirmations": 11481, "time": 1537873282, "locktime": 0, "vsize": 224, "size": 224}