{"hash": "0d8f9f845fe4e3c414898598e747e80008654b9d4b2f17a5bf09458292c7e769", "blockhash": "0000000000000000001cda96e906b7601b7a6fb1a3b62bca570a9e5d8f4b3de1", "vout": [{"scriptPubKey": {"reqSigs": 1, "hex": "76a91421e51d421e40e8b4983a4d96ca0d45d2e794be1988ac", "addresses": ["146DmUHJabcXLsTxWF2DMGLsaFKZpcSKpB"], "asm": "OP_DUP OP_HASH160 21e51d421e40e8b4983a4d96ca0d45d2e794be19 OP_EQUALVERIFY OP_CHECKSIG", "type": "pubkeyhash"}, "value": 0.00682012, "n": 0}, {"scriptPubKey": {"reqSigs": 1, "hex": "76a9149e220ba25659c8ff619ee16df8f34deb9f52bded88ac", "addresses": ["1FR8Yq3ExQTm52vmCDADw1C8ik18bi4Tvt"], "asm": "OP_DUP OP_HASH160 9e220ba25659c8ff619ee16df8f34deb9f52bded OP_EQUALVERIFY OP_CHECKSIG", "type": "pubkeyhash"}, "value": 0.415, "n": 1}], "hex": "0100000005574fc49117e8e007cac6ab0c85f1ce101edda35a040a4f13f4a17cd88f422022010000006a473044022033f4fdf204cf00919599fd9ccb4bdc95c8e75418816ea1a0378e774c7170d42202202dbaf53b882060139b4d25cada2335c788d932d082fc348a91af324383814c3e012103746ea534093bdb9bd03d354090c73d35fd521927b939e648b947750876fae31dfeffffff1d77750fff028ab12dcab03f30f1af2472737d5acd3718a44b2dc18bc16d2a29000000006a47304402202eb9b1087529fa8796022fe39b1eebbc3dbb2a1c3da57cee6ec6bc7ce78dbaf2022018b660a27370679683d926daf16999c5c556f1601121d6f3b02c0249589251d201210354c3ab328b483aacfbc02b04c10d38eb3d5062b02712881b66ceb658ef4ca537feffffff9609e58b927145acde4870be58b16c17f1ffc00fb120f7c4cd39bd3bd43bfc2a010000006b483045022100f77f136ec0fb6d4e03d5b88f4ff2be59fa3a6d428c79b68d4efcebe114771d230220781565e4f58435eab502aa611f6bf6d742e23b03cbaf650920cb10216f6be74e012103a3bec10dd7ef9ecf1326e62664e08ffc0fe256d37aff6a8922d3292dd83ac65ffeffffff8ecf26a47cb318ac86724952799438f60e0c799e2a1ea4f5e9f791ee07ef9255000000006b483045022100e88d05b389a36913080f8af218ac58895a1ea12f3afb52186d0681ad934bd6c1022068bfab00505fad34b41b5c897691b747345613ab763a7612133b9630c7c0e8b0012103405ef50ffa9f3a7cb69b5dfd641e0efa6ee75591161eb50b1fcd6fb5275eee8afeffffffb2548fe34215cb2b9e1c891c2428f55c8a3f531f5f849b3c60f387bb1884cef9000000006b483045022100965ef04be0c2cd6035169ae976c050fbd7d972c7e175cc14dcacd4de41d7321e02207c4d1b97de83a318c406a9da34831e7909894f962571934fd57c8a8f4ba634220121032c46781de21c2b88fb1ce4a2a2c910b7f4cdb0a3cc8522f9216a1f745abddb84feffffff021c680a00000000001976a91421e51d421e40e8b4983a4d96ca0d45d2e794be1988ac603d7902000000001976a9149e220ba25659c8ff619ee16df8f34deb9f52bded88ac13490800", "vin": [{"sequence": 4294967294, "scriptSig": {"hex": "473044022033f4fdf204cf00919599fd9ccb4bdc95c8e75418816ea1a0378e774c7170d42202202dbaf53b882060139b4d25cada2335c788d932d082fc348a91af324383814c3e012103746ea534093bdb9bd03d354090c73d35fd521927b939e648b947750876fae31d", "asm": "3044022033f4fdf204cf00919599fd9ccb4bdc95c8e75418816ea1a0378e774c7170d42202202dbaf53b882060139b4d25cada2335c788d932d082fc348a91af324383814c3e[ALL] 03746ea534093bdb9bd03d354090c73d35fd521927b939e648b947750876fae31d"}, "vout": 1, "txid": "2220428fd87ca1f4134f0a045aa3dd1e10cef1850cabc6ca07e0e81791c44f57"}, {"sequence": 4294967294, "scriptSig": {"hex": "47304402202eb9b1087529fa8796022fe39b1eebbc3dbb2a1c3da57cee6ec6bc7ce78dbaf2022018b660a27370679683d926daf16999c5c556f1601121d6f3b02c0249589251d201210354c3ab328b483aacfbc02b04c10d38eb3d5062b02712881b66ceb658ef4ca537", "asm": "304402202eb9b1087529fa8796022fe39b1eebbc3dbb2a1c3da57cee6ec6bc7ce78dbaf2022018b660a27370679683d926daf16999c5c556f1601121d6f3b02c0249589251d2[ALL] 0354c3ab328b483aacfbc02b04c10d38eb3d5062b02712881b66ceb658ef4ca537"}, "vout": 0, "txid": "292a6dc18bc12d4ba41837cd5a7d737224aff1303fb0ca2db18a02ff0f75771d"}, {"sequence": 4294967294, "scriptSig": {"hex": "483045022100f77f136ec0fb6d4e03d5b88f4ff2be59fa3a6d428c79b68d4efcebe114771d230220781565e4f58435eab502aa611f6bf6d742e23b03cbaf650920cb10216f6be74e012103a3bec10dd7ef9ecf1326e62664e08ffc0fe256d37aff6a8922d3292dd83ac65f", "asm": "3045022100f77f136ec0fb6d4e03d5b88f4ff2be59fa3a6d428c79b68d4efcebe114771d230220781565e4f58435eab502aa611f6bf6d742e23b03cbaf650920cb10216f6be74e[ALL] 03a3bec10dd7ef9ecf1326e62664e08ffc0fe256d37aff6a8922d3292dd83ac65f"}, "vout": 1, "txid": "2afc3bd43bbd39cdc4f720b10fc0fff1176cb158be7048deac4571928be50996"}, {"sequence": 4294967294, "scriptSig": {"hex": "483045022100e88d05b389a36913080f8af218ac58895a1ea12f3afb52186d0681ad934bd6c1022068bfab00505fad34b41b5c897691b747345613ab763a7612133b9630c7c0e8b0012103405ef50ffa9f3a7cb69b5dfd641e0efa6ee75591161eb50b1fcd6fb5275eee8a", "asm": "3045022100e88d05b389a36913080f8af218ac58895a1ea12f3afb52186d0681ad934bd6c1022068bfab00505fad34b41b5c897691b747345613ab763a7612133b9630c7c0e8b0[ALL] 03405ef50ffa9f3a7cb69b5dfd641e0efa6ee75591161eb50b1fcd6fb5275eee8a"}, "vout": 0, "txid": "5592ef07ee91f7e9f5a41e2a9e790c0ef638947952497286ac18b37ca426cf8e"}, {"sequence": 4294967294, "scriptSig": {"hex": "483045022100965ef04be0c2cd6035169ae976c050fbd7d972c7e175cc14dcacd4de41d7321e02207c4d1b97de83a318c406a9da34831e7909894f962571934fd57c8a8f4ba634220121032c46781de21c2b88fb1ce4a2a2c910b7f4cdb0a3cc8522f9216a1f745abddb84", "asm": "3045022100965ef04be0c2cd6035169ae976c050fbd7d972c7e175cc14dcacd4de41d7321e02207c4d1b97de83a318c406a9da34831e7909894f962571934fd57c8a8f4ba63422[ALL] 032c46781de21c2b88fb1ce4a2a2c910b7f4cdb0a3cc8522f9216a1f745abddb84"}, "vout": 0, "txid": "f9ce8418bb87f3603c9b845f1f533f8a5cf528241c891c9e2bcb1542e38f54b2"}], "txid": "0d8f9f845fe4e3c414898598e747e80008654b9d4b2f17a5bf09458292c7e769", "blocktime": 1537873282, "version": 1, "confirmations": 11484, "time": 1537873282, "locktime": 542995, "vsize": 816, "size": 816}