{"hash": "0d9a5f0023c0daa8489a74dc2d9391a76a89d499cee72bb654a0b040b190cc09", "blockhash": "00000000000000000018f53835495a110e01622372bf6ae95dc86f2b0ab887b0", "vout": [{"scriptPubKey": {"reqSigs": 1, "hex": "76a914f66372b1f565f2307d0ccf93fd7815d4f335d1d288ac", "addresses": ["1PTnMxhneBHpw3DLAM5ZHLWsFQFtQD76Y8"], "asm": "OP_DUP OP_HASH160 f66372b1f565f2307d0ccf93fd7815d4f335d1d2 OP_EQUALVERIFY OP_CHECKSIG", "type": "pubkeyhash"}, "value": 0.00457077, "n": 0}, {"scriptPubKey": {"reqSigs": 1, "hex": "a9144a769bb2f9284f49f7ed151d8b554b25f64a29d187", "addresses": ["38Uk1nGrmTesW5xE8xJVYRpHLq5mdUS7S9"], "asm": "OP_HASH160 4a769bb2f9284f49f7ed151d8b554b25f64a29d1 OP_EQUAL", "type": "scripthash"}, "value": 0.01140626, "n": 1}], "hex": "01000000016453e1463464e9eb1c0cdd6b9c1df7472cf0ea30aa811fbd0ffd467777a989af010000006a473044022025a51babfae02d1ca8c648b33333e15b41e7f58e48c15df2c378ff1e84710d450220052d3c84137b6d7d528588230db9fe6e1ff5f424a0a9eac082ab4da41f98e846012102030de100de23a91046cae79fe509a3a7a4b7e77577e3932eacdc15c57eaf79ecffffffff0275f90600000000001976a914f66372b1f565f2307d0ccf93fd7815d4f335d1d288ac926711000000000017a9144a769bb2f9284f49f7ed151d8b554b25f64a29d18700000000", "vin": [{"sequence": 4294967295, "scriptSig": {"hex": "473044022025a51babfae02d1ca8c648b33333e15b41e7f58e48c15df2c378ff1e84710d450220052d3c84137b6d7d528588230db9fe6e1ff5f424a0a9eac082ab4da41f98e846012102030de100de23a91046cae79fe509a3a7a4b7e77577e3932eacdc15c57eaf79ec", "asm": "3044022025a51babfae02d1ca8c648b33333e15b41e7f58e48c15df2c378ff1e84710d450220052d3c84137b6d7d528588230db9fe6e1ff5f424a0a9eac082ab4da41f98e846[ALL] 02030de100de23a91046cae79fe509a3a7a4b7e77577e3932eacdc15c57eaf79ec"}, "vout": 1, "txid": "af89a9777746fd0fbd1f81aa30eaf02c47f71d9c6bdd0c1cebe9643446e15364"}], "txid": "0d9a5f0023c0daa8489a74dc2d9391a76a89d499cee72bb654a0b040b190cc09", "blocktime": 1537870928, "version": 1, "confirmations": 11512, "time": 1537870928, "locktime": 0, "vsize": 223, "size": 223}