{"hash": "aa3d42c96e587f5215fa521c8313cfe3222e3249e5b9262716d86b08193a2f78", "blockhash": "00000000000000000018f53835495a110e01622372bf6ae95dc86f2b0ab887b0", "vout": [{"scriptPubKey": {"reqSigs": 1, "hex": "76a914fcf9fcf215d93ba64c6407658dbf31f19066e6b988ac", "addresses": ["1Q4ckpNiw6gikRWnpXR97J3xfYB5XSkwtG"], "asm": "OP_DUP OP_HASH160 fcf9fcf215d93ba64c6407658dbf31f19066e6b9 OP_EQUALVERIFY OP_CHECKSIG", "type": "pubkeyhash"}, "value": 0.0017146, "n": 0}, {"scriptPubKey": {"reqSigs": 1, "hex": "a9146b7846fed46a1d310e2e647dee201d9ca1b0973887", "addresses": ["3BVGK5sFZhe29EjFPnchZa8V5SXSuJ4ryu"], "asm": "OP_HASH160 6b7846fed46a1d310e2e647dee201d9ca1b09738 OP_EQUAL", "type": "scripthash"}, "value": 0.0104086, "n": 1}], "hex": "0200000000010271d70282c0b4cd482b04691aa4ffd6fc4d52dc1ac85218977520829a82be6ae30100000017160014b7d4976e37229140ce742918f1c308dc85e47577feffffffce0b0ee88c82a4703d67a0b5bf138fcb213b59a9799d5ddcc79416b37bdb71591300000017160014be023d68112a3c216c7ef24f1553655187e6ac41feffffff02c49d0200000000001976a914fcf9fcf215d93ba64c6407658dbf31f19066e6b988acdce10f000000000017a9146b7846fed46a1d310e2e647dee201d9ca1b097388702483045022100a8458bd361b7987f6eabcd46a8a4942221d1b16e07dffdc2ae7e8aad580d22660220607e42b5df87f7aeb630ea689202238d92ea487c10d9efcc4908bf33d26eb1f4012103224a7bc8456fc05590366d7aca8ba637f8af1eb5d2757592928593b06bf85dd6024730440220074088c1cf80cbc1f5a620372c75e1286496385c12fff0073572588b585233b602203c741c70e6257dd0dcf7c16a3d13cde8437e61da5a80be0e04391ef7aedb8f270121031b69ae686acff0dac853d399a37bed7396b5c7c1bc6e56a7f1aea63a34abe37e0e490800", "vin": [{"txinwitness": ["3045022100a8458bd361b7987f6eabcd46a8a4942221d1b16e07dffdc2ae7e8aad580d22660220607e42b5df87f7aeb630ea689202238d92ea487c10d9efcc4908bf33d26eb1f401", "03224a7bc8456fc05590366d7aca8ba637f8af1eb5d2757592928593b06bf85dd6"], "sequence": 4294967294, "scriptSig": {"hex": "160014b7d4976e37229140ce742918f1c308dc85e47577", "asm": "0014b7d4976e37229140ce742918f1c308dc85e47577"}, "vout": 1, "txid": "e36abe829a822075971852c81adc524dfcd6ffa41a69042b48cdb4c08202d771"}, {"txinwitness": ["30440220074088c1cf80cbc1f5a620372c75e1286496385c12fff0073572588b585233b602203c741c70e6257dd0dcf7c16a3d13cde8437e61da5a80be0e04391ef7aedb8f2701", "031b69ae686acff0dac853d399a37bed7396b5c7c1bc6e56a7f1aea63a34abe37e"], "sequence": 4294967294, "scriptSig": {"hex": "160014be023d68112a3c216c7ef24f1553655187e6ac41", "asm": "0014be023d68112a3c216c7ef24f1553655187e6ac41"}, "vout": 19, "txid": "5971db7bb31694c7dc5d9d79a9593b21cb8f13bfb5a0673d70a4828ce80e0bce"}], "txid": "0d9d9a4a365aa10e95faa55dcb6aee28f6b4e13aebd6c4e5f53cc0009a985ba0", "blocktime": 1537870928, "version": 2, "confirmations": 11514, "time": 1537870928, "locktime": 542990, "vsize": 259, "size": 421}