{"hash": "0db5cba66c4cdd9ab7046a437b9c3ce3d06ce068393887fe7d293378610953ae", "blockhash": "0000000000000000000dcc0f55137456b1a82d3642486a52398922ac4d620174", "vout": [{"scriptPubKey": {"reqSigs": 1, "hex": "76a9146f152f9785e8919e97d8f48104f8bbc98dec48ce88ac", "addresses": ["1B8MPKK5TfYTFhAsmCN7hCAB1hhF83fFMk"], "asm": "OP_DUP OP_HASH160 6f152f9785e8919e97d8f48104f8bbc98dec48ce OP_EQUALVERIFY OP_CHECKSIG", "type": "pubkeyhash"}, "value": 0.0379537, "n": 0}, {"scriptPubKey": {"reqSigs": 1, "hex": "a914c8f073e91deb931daea765477fe63a0af6c2f59a87", "addresses": ["3L1V7rvfBoUMnaScC5fXMUvWMmovwujBr9"], "asm": "OP_HASH160 c8f073e91deb931daea765477fe63a0af6c2f59a OP_EQUAL", "type": "scripthash"}, "value": 0.012, "n": 1}], "hex": "010000000128863bd3c19e884d6ae854912f72f9d1a5ea1674ed402263c92aa6c264558b6f000000006a47304402202855f1fb55ffb403c64bc1c3db8757d7ea70e61e4aff835c191b2511028929ea02201f5281d2130a738e5d6eadbd205f9932cda9fb2c67170de28b6fdf0e8fa2fd7f0121021d00e3dfd7219930e0b26890595ab0bfcb55e994f7966a68bdc801e98a2635cfffffffff02aae93900000000001976a9146f152f9785e8919e97d8f48104f8bbc98dec48ce88ac804f12000000000017a914c8f073e91deb931daea765477fe63a0af6c2f59a8700000000", "vin": [{"sequence": 4294967295, "scriptSig": {"hex": "47304402202855f1fb55ffb403c64bc1c3db8757d7ea70e61e4aff835c191b2511028929ea02201f5281d2130a738e5d6eadbd205f9932cda9fb2c67170de28b6fdf0e8fa2fd7f0121021d00e3dfd7219930e0b26890595ab0bfcb55e994f7966a68bdc801e98a2635cf", "asm": "304402202855f1fb55ffb403c64bc1c3db8757d7ea70e61e4aff835c191b2511028929ea02201f5281d2130a738e5d6eadbd205f9932cda9fb2c67170de28b6fdf0e8fa2fd7f[ALL] 021d00e3dfd7219930e0b26890595ab0bfcb55e994f7966a68bdc801e98a2635cf"}, "vout": 0, "txid": "6f8b5564c2a62ac9632240ed7416eaa5d1f9722f9154e86a4d889ec1d33b8628"}], "txid": "0db5cba66c4cdd9ab7046a437b9c3ce3d06ce068393887fe7d293378610953ae", "blocktime": 1537870268, "version": 1, "confirmations": 11517, "time": 1537870268, "locktime": 0, "vsize": 223, "size": 223}