{"hash": "6e9a2f666d3dc3ece65ccbfd813861dd688bc549a6a3cfb2b9094628200f5c10", "blockhash": "00000000000000000018f53835495a110e01622372bf6ae95dc86f2b0ab887b0", "vout": [{"scriptPubKey": {"reqSigs": 1, "hex": "a91434087ca4b540bd308f027d51d0ad5381c548a35587", "addresses": ["36S9ECTEFbh1jhEV1d8t3EPMHn53wvFHoi"], "asm": "OP_HASH160 34087ca4b540bd308f027d51d0ad5381c548a355 OP_EQUAL", "type": "scripthash"}, "value": 0.01, "n": 0}, {"scriptPubKey": {"reqSigs": 1, "hex": "001423aa6d555268dacfe44f42c5b159756ed02439cc", "addresses": ["bc1qyw4x642jdrdvlez0gtzmzkt4dmgzgwwv9uw0um"], "asm": "0 23aa6d555268dacfe44f42c5b159756ed02439cc", "type": "witness_v0_keyhash"}, "value": 0.00186081, "n": 1}], "hex": "01000000000101ab997a9aa87e4d76715028b8a3f24ef4501701ce78b0a7e061e0c5d27fe273040100000000ffffffff0240420f000000000017a91434087ca4b540bd308f027d51d0ad5381c548a35587e1d602000000000016001423aa6d555268dacfe44f42c5b159756ed02439cc02483045022100a3c6666f430dd781405ee0f9335b37d7cd077d463c06c2248a17bb3fa1dc4da50220302b6b85a17a08484b9a91909f7eaa355eadd467f39e8eb606a1c8935c90f48501210372cead7875f956cc39d21a5759cc88d74cec91f8b402c75095d95f7fe13ffcdf00000000", "vin": [{"txinwitness": ["3045022100a3c6666f430dd781405ee0f9335b37d7cd077d463c06c2248a17bb3fa1dc4da50220302b6b85a17a08484b9a91909f7eaa355eadd467f39e8eb606a1c8935c90f48501", "0372cead7875f956cc39d21a5759cc88d74cec91f8b402c75095d95f7fe13ffcdf"], "sequence": 4294967295, "scriptSig": {"hex": "", "asm": ""}, "vout": 1, "txid": "0473e27fd2c5e061e0a7b078ce011750f44ef2a3b8285071764d7ea89a7a99ab"}], "txid": "0db5bd44711cedd946c3b7aed530a18cb1ace31427ab8a4e69119ccb7001f3e4", "blocktime": 1537870928, "version": 1, "confirmations": 11513, "time": 1537870928, "locktime": 0, "vsize": 142, "size": 224}