{"hash": "33edb2c004ab71f22201608e4504941ef912bff0f5dff7c29778d13f7dbe9feb", "blockhash": "00000000000000000004ffacab907a6b429b9a5745fa0b75af4234bf69dd7176", "vout": [{"scriptPubKey": {"reqSigs": 1, "hex": "a914e86ab68cf93591413b4b21d21a23b0aa5b1cca0787", "addresses": ["3NsvXbyQhkYthdbhXRnDtf2YGuqtX3W2sV"], "asm": "OP_HASH160 e86ab68cf93591413b4b21d21a23b0aa5b1cca07 OP_EQUAL", "type": "scripthash"}, "value": 31.41619846, "n": 0}, {"scriptPubKey": {"reqSigs": 1, "hex": "a91469f375154b43097f99726b90d1b584ab8cea2ba587", "addresses": ["3BMEXQ8XmtVvVu1o5NUaGxssQAwXSqd1ut"], "asm": "OP_HASH160 69f375154b43097f99726b90d1b584ab8cea2ba5 OP_EQUAL", "type": "scripthash"}, "value": 0.020967, "n": 1}], "hex": "02000000000101eef4f38b4283a5c583926bf415202ee59c10c3b2ab6d000fc450757ec0e2a8df0100000017160014d9f48f1726c8be2eda0309eed9a2675bcc5ffb1bfeffffff02865041bb0000000017a914e86ab68cf93591413b4b21d21a23b0aa5b1cca07873cfe1f000000000017a91469f375154b43097f99726b90d1b584ab8cea2ba58702483045022100d3954e6056b067b84ae532ff734d614fa2319a473adc64098b2e70508c917913022033508bf2eed6754cc6b571fe774217e228d2471bb3500e49f9bda6c45a34453c0121031f9223d8a0bd1b084b4abc3a296292317c475d0b2da1e74ea7ddbb56cb91089416490800", "vin": [{"txinwitness": ["3045022100d3954e6056b067b84ae532ff734d614fa2319a473adc64098b2e70508c917913022033508bf2eed6754cc6b571fe774217e228d2471bb3500e49f9bda6c45a34453c01", "031f9223d8a0bd1b084b4abc3a296292317c475d0b2da1e74ea7ddbb56cb910894"], "sequence": 4294967294, "scriptSig": {"hex": "160014d9f48f1726c8be2eda0309eed9a2675bcc5ffb1b", "asm": "0014d9f48f1726c8be2eda0309eed9a2675bcc5ffb1b"}, "vout": 1, "txid": "dfa8e2c07e7550c40f006dabb2c3109ce52e2015f46b9283c5a583428bf3f4ee"}], "txid": "0dbdb95ee321bd96959843d18f99f9d0b6c690e5dbc0c851fbf218ce52c107d6", "blocktime": 1537875543, "version": 2, "confirmations": 11464, "time": 1537875543, "locktime": 542998, "vsize": 166, "size": 248}