{"hash": "0dbff538a5eaf4a20440d512b4163482f76fb0fa8f697c5c90c261a7cec6cd1c", "blockhash": "0000000000000000000baef3f32e3676a92c3b2e5da21b426e4f302fc371ce76", "vout": [{"scriptPubKey": {"type": "nulldata", "hex": "6a146f6d6e69000000000000001f0000002da402cfc0", "asm": "OP_RETURN 6f6d6e69000000000000001f0000002da402cfc0"}, "value": 0.0, "n": 0}, {"scriptPubKey": {"reqSigs": 1, "hex": "76a9141d082623346a1c464120f7450dbaabc19a38535488ac", "addresses": ["13eWMmJKYMsejVc6jWAdkCJYMPcBwrYtAu"], "asm": "OP_DUP OP_HASH160 1d082623346a1c464120f7450dbaabc19a385354 OP_EQUALVERIFY OP_CHECKSIG", "type": "pubkeyhash"}, "value": 5.46e-06, "n": 1}, {"scriptPubKey": {"reqSigs": 1, "hex": "76a9140ea2c16f9786cdfea33384770c72f226ae93ef3f88ac", "addresses": ["12LPS9L3BtpHJxCw7CBABQHFsKc7wFRjAR"], "asm": "OP_DUP OP_HASH160 0ea2c16f9786cdfea33384770c72f226ae93ef3f OP_EQUALVERIFY OP_CHECKSIG", "type": "pubkeyhash"}, "value": 0.36162203, "n": 2}], "hex": "0100000001bf8172d5290bce024aab0957b8882a7c453b557abcb6e3c4c3bbd036854dc9a1010000006b4830450221008f8f1f64df1031bc52d998e4259346c2657a6dac5a2df66d5d55222b7342b5e302207793625c30ac240b529b478b541c8e17279bb2cd4dfe7706afe3ab5dda0284f101210242604bdd2261b6188326b9f490e074dda990f5bb746eb9716e491b86b498f4c5feffffff030000000000000000166a146f6d6e69000000000000001f0000002da402cfc022020000000000001976a9141d082623346a1c464120f7450dbaabc19a38535488ac9bca2702000000001976a9140ea2c16f9786cdfea33384770c72f226ae93ef3f88ac16490800", "vin": [{"sequence": 4294967294, "scriptSig": {"hex": "4830450221008f8f1f64df1031bc52d998e4259346c2657a6dac5a2df66d5d55222b7342b5e302207793625c30ac240b529b478b541c8e17279bb2cd4dfe7706afe3ab5dda0284f101210242604bdd2261b6188326b9f490e074dda990f5bb746eb9716e491b86b498f4c5", "asm": "30450221008f8f1f64df1031bc52d998e4259346c2657a6dac5a2df66d5d55222b7342b5e302207793625c30ac240b529b478b541c8e17279bb2cd4dfe7706afe3ab5dda0284f1[ALL] 0242604bdd2261b6188326b9f490e074dda990f5bb746eb9716e491b86b498f4c5"}, "vout": 1, "txid": "a1c94d8536d0bbc3c4e3b6bc7a553b457c2a88b85709ab4a02ce0b29d57281bf"}], "txid": "0dbff538a5eaf4a20440d512b4163482f76fb0fa8f697c5c90c261a7cec6cd1c", "blocktime": 1537876114, "version": 1, "confirmations": 11460, "time": 1537876114, "locktime": 542998, "vsize": 257, "size": 257}