{"hash": "0dd3da57bad089adb36b726db8042c8644d17760b6a245716f4c9a5a0a5bd299", "blockhash": "0000000000000000001e0dab787dd257d1dbfcb92a98c2207d5e1078be1f4165", "vout": [{"scriptPubKey": {"reqSigs": 1, "hex": "a914d23790225625b817510a99ca7bec16460b39c41487", "addresses": ["3LrYPR1PaD22HQb6mH4dRj2BPyKYArbXxW"], "asm": "OP_HASH160 d23790225625b817510a99ca7bec16460b39c414 OP_EQUAL", "type": "scripthash"}, "value": 0.00078139, "n": 0}, {"scriptPubKey": {"reqSigs": 1, "hex": "76a914142163488a62ca962ab757ccce7561d8011dc59788ac", "addresses": ["12qSWfUgoHFGUgfjDSVbxegqUkQyCfHDWd"], "asm": "OP_DUP OP_HASH160 142163488a62ca962ab757ccce7561d8011dc597 OP_EQUALVERIFY OP_CHECKSIG", "type": "pubkeyhash"}, "value": 0.00232271, "n": 1}], "hex": "0100000001be6b8eda574806f0a28a5bbd8bb49d6020f2647816ec03e52ed9e448598256c7010000006a47304402205d2256bd1ba21f71e6f625684313f74ebf3c7630e48c681673ddc52f59f1078002206e43e3b5074a640624810d5229c7ebe3ba5a9e40ab7cfd8c4203fe4bdd3b6da8012102fbd8cd1c46b29cb22207c513ce7af30c8997f84bbd3a71cea857ee4282bcd156ffffffff023b3101000000000017a914d23790225625b817510a99ca7bec16460b39c414874f8b0300000000001976a914142163488a62ca962ab757ccce7561d8011dc59788ac00000000", "vin": [{"sequence": 4294967295, "scriptSig": {"hex": "47304402205d2256bd1ba21f71e6f625684313f74ebf3c7630e48c681673ddc52f59f1078002206e43e3b5074a640624810d5229c7ebe3ba5a9e40ab7cfd8c4203fe4bdd3b6da8012102fbd8cd1c46b29cb22207c513ce7af30c8997f84bbd3a71cea857ee4282bcd156", "asm": "304402205d2256bd1ba21f71e6f625684313f74ebf3c7630e48c681673ddc52f59f1078002206e43e3b5074a640624810d5229c7ebe3ba5a9e40ab7cfd8c4203fe4bdd3b6da8[ALL] 02fbd8cd1c46b29cb22207c513ce7af30c8997f84bbd3a71cea857ee4282bcd156"}, "vout": 1, "txid": "c756825948e4d92ee503ec167864f220609db48bbd5b8aa2f0064857da8e6bbe"}], "txid": "0dd3da57bad089adb36b726db8042c8644d17760b6a245716f4c9a5a0a5bd299", "blocktime": 1537872475, "version": 1, "confirmations": 11486, "time": 1537872475, "locktime": 0, "vsize": 223, "size": 223}