{"hash": "c227e78f77b61114306b949b8089b179c13b30a9784cc86202836d092534a094", "blockhash": "00000000000000000017f5eb5941039fbcee6240d03bc1f2f8e35350df66a1d8", "vout": [{"scriptPubKey": {"reqSigs": 1, "hex": "a91409701c0b0d22d12c52e80c378f04a4fc99ca326c87", "addresses": ["32YvJn532pLHY3qX1QF7vmdFZ8NBBSzv8p"], "asm": "OP_HASH160 09701c0b0d22d12c52e80c378f04a4fc99ca326c OP_EQUAL", "type": "scripthash"}, "value": 0.00188739, "n": 0}, {"scriptPubKey": {"reqSigs": 1, "hex": "a91478b97b99863f311f0525c8ddd9920fb0b077ea7e87", "addresses": ["3ChMD8ndbZEXaaqV9YsFRX1Papkiph8M3w"], "asm": "OP_HASH160 78b97b99863f311f0525c8ddd9920fb0b077ea7e OP_EQUAL", "type": "scripthash"}, "value": 0.13355469, "n": 1}], "hex": "02000000000101fd560613357eaa4c575e1f39dc2f2650ae6a4a8bf385a2d678a81809ab708338010000001716001438adb969558aad428723295ce6feb854c69e611dfeffffff0243e102000000000017a91409701c0b0d22d12c52e80c378f04a4fc99ca326c87cdc9cb000000000017a91478b97b99863f311f0525c8ddd9920fb0b077ea7e8702483045022100d6dbce94fc2ffbfd035842a54f90934ee618aad00807c517023f3197f1ac88aa0220368e123893601e411995c30e399841a77b540c9b9b7f1cd68b444377847f2161012102c8c5198cdd282a7d84d9b137fc1949963df26c811d250b2c55c99bab31c2b837fd480800", "vin": [{"txinwitness": ["3045022100d6dbce94fc2ffbfd035842a54f90934ee618aad00807c517023f3197f1ac88aa0220368e123893601e411995c30e399841a77b540c9b9b7f1cd68b444377847f216101", "02c8c5198cdd282a7d84d9b137fc1949963df26c811d250b2c55c99bab31c2b837"], "sequence": 4294967294, "scriptSig": {"hex": "16001438adb969558aad428723295ce6feb854c69e611d", "asm": "001438adb969558aad428723295ce6feb854c69e611d"}, "vout": 1, "txid": "388370ab0918a878d6a285f38b4a6aae50262fdc391f5e574caa7e35130656fd"}], "txid": "0dd55c6ec6a77ae20c9983b466db4c87a14f9fa890a5db0c290715405b9fa7d7", "blocktime": 1537874412, "version": 2, "confirmations": 11467, "time": 1537874412, "locktime": 542973, "vsize": 166, "size": 248}