{"hash": "0dd9d9a1ef9d13754b78b4140fa38c3a096fd12638b962bc9fc9bf0bd021bba9", "blockhash": "00000000000000000017f5eb5941039fbcee6240d03bc1f2f8e35350df66a1d8", "vout": [{"scriptPubKey": {"reqSigs": 1, "hex": "a914631adabce6c80cb7b1cabf82a63def9c784940bb87", "addresses": ["3Aj2zQzfGJanmiZyc276PoDz9NR7rmzgVK"], "asm": "OP_HASH160 631adabce6c80cb7b1cabf82a63def9c784940bb OP_EQUAL", "type": "scripthash"}, "value": 3.853e-05, "n": 0}], "hex": "010000000272a364684375e9d1a387c2012c95589eaac6c16bfb9c125f284f190267f24a44000000006b48304502210083f33fbf1642fa0750afca8e80a33a5e3f4ba0716a46d6c74e2dcb00bc938c7f022002cd29a73474b361a3e2cc7029c2fede4a9bced55d376e0df3002c24e090d6160121029327a0385c1e2a420d23dbd418946d5193c2b53b6e7a167d4208b99a744a6dbfffffffff8566943ef3bc4a7c3dcfd083f5840814b294f6ac2eb1546c5515508590b3fc92000000006a4730440220487993556b8290d280af5a379f855d065d7c2d16e9edae7fb60f054bf8a6b60702203a0be6b5f695615631d4c29ddabcf88461fcdca2a0cf103d9be29b817c0fc8de012103274f89583d8c5b92c02b07d36e375bcedbbf2155364bbdca2e28a45168d68df2ffffffff010d0f00000000000017a914631adabce6c80cb7b1cabf82a63def9c784940bb8700000000", "vin": [{"sequence": 4294967295, "scriptSig": {"hex": "48304502210083f33fbf1642fa0750afca8e80a33a5e3f4ba0716a46d6c74e2dcb00bc938c7f022002cd29a73474b361a3e2cc7029c2fede4a9bced55d376e0df3002c24e090d6160121029327a0385c1e2a420d23dbd418946d5193c2b53b6e7a167d4208b99a744a6dbf", "asm": "304502210083f33fbf1642fa0750afca8e80a33a5e3f4ba0716a46d6c74e2dcb00bc938c7f022002cd29a73474b361a3e2cc7029c2fede4a9bced55d376e0df3002c24e090d616[ALL] 029327a0385c1e2a420d23dbd418946d5193c2b53b6e7a167d4208b99a744a6dbf"}, "vout": 0, "txid": "444af26702194f285f129cfb6bc1c6aa9e58952c01c287a3d1e975436864a372"}, {"sequence": 4294967295, "scriptSig": {"hex": "4730440220487993556b8290d280af5a379f855d065d7c2d16e9edae7fb60f054bf8a6b60702203a0be6b5f695615631d4c29ddabcf88461fcdca2a0cf103d9be29b817c0fc8de012103274f89583d8c5b92c02b07d36e375bcedbbf2155364bbdca2e28a45168d68df2", "asm": "30440220487993556b8290d280af5a379f855d065d7c2d16e9edae7fb60f054bf8a6b60702203a0be6b5f695615631d4c29ddabcf88461fcdca2a0cf103d9be29b817c0fc8de[ALL] 03274f89583d8c5b92c02b07d36e375bcedbbf2155364bbdca2e28a45168d68df2"}, "vout": 0, "txid": "92fcb390855015556c54b12eacf694b2140884f583d0cf3d7c4abcf33e946685"}], "txid": "0dd9d9a1ef9d13754b78b4140fa38c3a096fd12638b962bc9fc9bf0bd021bba9", "blocktime": 1537874412, "version": 1, "confirmations": 11468, "time": 1537874412, "locktime": 0, "vsize": 337, "size": 337}