{"hash": "7a17ea9d85698d6673f6d35df9c86422062fafc7822b1dbe86f84943de7b4101", "blockhash": "0000000000000000001cda96e906b7601b7a6fb1a3b62bca570a9e5d8f4b3de1", "vout": [{"scriptPubKey": {"reqSigs": 1, "hex": "a914985ba3c82857ee392ba79dee42a7feb461f42f0187", "addresses": ["3FacQwmKLhsnv28A4fVaRBgXGqmUosFbuw"], "asm": "OP_HASH160 985ba3c82857ee392ba79dee42a7feb461f42f01 OP_EQUAL", "type": "scripthash"}, "value": 0.0007, "n": 0}, {"scriptPubKey": {"reqSigs": 1, "hex": "00143187d03aa00bd29ffd998e30bb3780ef00567641", "addresses": ["bc1qxxraqw4qp0ffllve3cctkduqauq9vajp8yceun"], "asm": "0 3187d03aa00bd29ffd998e30bb3780ef00567641", "type": "witness_v0_keyhash"}, "value": 1.49e-05, "n": 1}], "hex": "010000000001010e46fa76ad7d9372352bc24785125bd1777b85e1861f9204285c141ac6a484340000000000ffffffff02701101000000000017a914985ba3c82857ee392ba79dee42a7feb461f42f0187d2050000000000001600143187d03aa00bd29ffd998e30bb3780ef0056764102483045022100ff37dd3cc9b43febb536c8f006e8f7414e63edd6e435e6470b0ad8e8291b35d0022025f00301a894f790bfafaf68d630d27e36e01fc954faf8a916e1f352ca240fad01210306373e37a53cf9142e648a37d4ef35f8c203481de28f8c8c48f5d58516ea1f5300000000", "vin": [{"txinwitness": ["3045022100ff37dd3cc9b43febb536c8f006e8f7414e63edd6e435e6470b0ad8e8291b35d0022025f00301a894f790bfafaf68d630d27e36e01fc954faf8a916e1f352ca240fad01", "0306373e37a53cf9142e648a37d4ef35f8c203481de28f8c8c48f5d58516ea1f53"], "sequence": 4294967295, "scriptSig": {"hex": "", "asm": ""}, "vout": 0, "txid": "3484a4c61a145c2804921f86e1857b77d15b128547c22b3572937dad76fa460e"}], "txid": "0de0ddfe48347261a71c7bd9e356ed61a4dc81b5de45ab91190ae881cd24ed42", "blocktime": 1537873282, "version": 1, "confirmations": 11484, "time": 1537873282, "locktime": 0, "vsize": 142, "size": 224}