{"hash": "285eea5abcca7365861b4d6d14ce0ced73d15a757d8935580580034a4fa3eb22", "blockhash": "0000000000000000001cda96e906b7601b7a6fb1a3b62bca570a9e5d8f4b3de1", "vout": [{"scriptPubKey": {"reqSigs": 1, "hex": "76a914ca48f5d81063ef53dffdfb7c8c7182804257012b88ac", "addresses": ["1KSau868cQvQxG2aeMsLGy1uX2H5M68Rqj"], "asm": "OP_DUP OP_HASH160 ca48f5d81063ef53dffdfb7c8c7182804257012b OP_EQUALVERIFY OP_CHECKSIG", "type": "pubkeyhash"}, "value": 0.0095877, "n": 0}, {"scriptPubKey": {"reqSigs": 1, "hex": "a91459a57da94cc598fe95ab1ec401a110ee2c8a711687", "addresses": ["39s2K87kaDRJgr8QoivBQbRKQonNZAcJjA"], "asm": "OP_HASH160 59a57da94cc598fe95ab1ec401a110ee2c8a7116 OP_EQUAL", "type": "scripthash"}, "value": 0.01000064, "n": 1}], "hex": "0200000000010393dd2832278f4bccae3a3647d5967476a4fac456809ca658325d8f3e5083c6d6010000001716001495dc698b24c307f44893777203f0f6beb2fa8f3afeffffffcf841838acb9f4d9528b728f124084c6613aff3ff35011cec1969883055a597a140000001716001473386e1cce82d986a9701325c26d89a2d8ae7ec7feffffffd3b46bf447fe3e8a4cafc32083325fe067e099884e9ba8c1c47375c44649f40d00000000171600143848ba13c47655861269e7c569516dab8b45d818feffffff0232a10e00000000001976a914ca48f5d81063ef53dffdfb7c8c7182804257012b88ac80420f000000000017a91459a57da94cc598fe95ab1ec401a110ee2c8a7116870248304502210099f72b3b9c324b3d5e98ce2fddb17ef36f38a775230c750f43afc5954fdd9910022063f11812cd48da19f50a5dd666cc4ad4fcf250582e25f97da27c302807a8906a01210208326980dfe4115de09ca89d15359ff3d5f954814e38c062fc30944db672462b02483045022100cc0f5df1d7751fb77910fb2fe60e49a66659e787ffaf8e82161457345fec299a02200a9f8648291fde4aec28436b5ce09d1c95ddeb4fa3923eb0c15034ffa32e041901210347a0226ea00aaa7516c242e1a19f240cd8818f01df56044db15393870ffb5acb0248304502210098ee026d27065a54b81fbd7b96af76991e78459f2b5a301062bae1e998ce30a302205e1cf5b900b8abdb60b904356c7e27988555fee10017cf58925e1a4164265f8101210209775c2faeebb286dade85c806f0afc43a83c075c0276e5b38701e5954b9186413490800", "vin": [{"txinwitness": ["304502210099f72b3b9c324b3d5e98ce2fddb17ef36f38a775230c750f43afc5954fdd9910022063f11812cd48da19f50a5dd666cc4ad4fcf250582e25f97da27c302807a8906a01", "0208326980dfe4115de09ca89d15359ff3d5f954814e38c062fc30944db672462b"], "sequence": 4294967294, "scriptSig": {"hex": "16001495dc698b24c307f44893777203f0f6beb2fa8f3a", "asm": "001495dc698b24c307f44893777203f0f6beb2fa8f3a"}, "vout": 1, "txid": "d6c683503e8f5d3258a69c8056c4faa4767496d547363aaecc4b8f273228dd93"}, {"txinwitness": ["3045022100cc0f5df1d7751fb77910fb2fe60e49a66659e787ffaf8e82161457345fec299a02200a9f8648291fde4aec28436b5ce09d1c95ddeb4fa3923eb0c15034ffa32e041901", "0347a0226ea00aaa7516c242e1a19f240cd8818f01df56044db15393870ffb5acb"], "sequence": 4294967294, "scriptSig": {"hex": "16001473386e1cce82d986a9701325c26d89a2d8ae7ec7", "asm": "001473386e1cce82d986a9701325c26d89a2d8ae7ec7"}, "vout": 20, "txid": "7a595a05839896c1ce1150f33fff3a61c68440128f728b52d9f4b9ac381884cf"}, {"txinwitness": ["304502210098ee026d27065a54b81fbd7b96af76991e78459f2b5a301062bae1e998ce30a302205e1cf5b900b8abdb60b904356c7e27988555fee10017cf58925e1a4164265f8101", "0209775c2faeebb286dade85c806f0afc43a83c075c0276e5b38701e5954b91864"], "sequence": 4294967294, "scriptSig": {"hex": "1600143848ba13c47655861269e7c569516dab8b45d818", "asm": "00143848ba13c47655861269e7c569516dab8b45d818"}, "vout": 0, "txid": "0df44946c47573c4c1a89b4e8899e067e05f328320c3af4c8a3efe47f46bb4d3"}], "txid": "0df3a9a9d43acd8d9b4f56e67b34c933d2ebfd29bf75c4664bed4fdf14ea04ba", "blocktime": 1537873282, "version": 2, "confirmations": 11484, "time": 1537873282, "locktime": 542995, "vsize": 350, "size": 594}