{"hash": "0df44946c47573c4c1a89b4e8899e067e05f328320c3af4c8a3efe47f46bb4d3", "blockhash": "000000000000000000022b45ed06c6f4ccd3cf7fb5ba4856ebd2e58215665228", "vout": [{"scriptPubKey": {"reqSigs": 1, "hex": "a9146ad629d391b015d9e3edd7e0f44d46967eeb505a87", "addresses": ["3BRv7DAjNLfwWLJ9pJ6YjYmMCC5xWcsHLk"], "asm": "OP_HASH160 6ad629d391b015d9e3edd7e0f44d46967eeb505a OP_EQUAL", "type": "scripthash"}, "value": 0.00625, "n": 0}, {"scriptPubKey": {"reqSigs": 1, "hex": "76a914b718074d354044e77481638726678e8cde2d2db188ac", "addresses": ["1Hh7SdtHKdRjLyVEofBzTRjjjhCmJ56mCs"], "asm": "OP_DUP OP_HASH160 b718074d354044e77481638726678e8cde2d2db1 OP_EQUALVERIFY OP_CHECKSIG", "type": "pubkeyhash"}, "value": 0.05398675, "n": 1}], "hex": "01000000011e4ac3110a10942b8e8d0ad1d6a1ec56d8837ecbcce2adfc9ece23e97b40774b010000006b483045022100efaffd4e413eec2e046be6def3b531c4b64b5bb1b489180d96d0d25d7c879f9d022066d9c4f36163f1dd9c8959639822b93d6f5fcf90820c47dcf2844bbbaf5e2c15012102c2646db1d4cec7fd8a9704cfc0778c4bd76a3fb5aef1790bd87e0209a612ac66fdffffff02688909000000000017a9146ad629d391b015d9e3edd7e0f44d46967eeb505a8793605200000000001976a914b718074d354044e77481638726678e8cde2d2db188ac0b490800", "vin": [{"sequence": 4294967293, "scriptSig": {"hex": "483045022100efaffd4e413eec2e046be6def3b531c4b64b5bb1b489180d96d0d25d7c879f9d022066d9c4f36163f1dd9c8959639822b93d6f5fcf90820c47dcf2844bbbaf5e2c15012102c2646db1d4cec7fd8a9704cfc0778c4bd76a3fb5aef1790bd87e0209a612ac66", "asm": "3045022100efaffd4e413eec2e046be6def3b531c4b64b5bb1b489180d96d0d25d7c879f9d022066d9c4f36163f1dd9c8959639822b93d6f5fcf90820c47dcf2844bbbaf5e2c15[ALL] 02c2646db1d4cec7fd8a9704cfc0778c4bd76a3fb5aef1790bd87e0209a612ac66"}, "vout": 1, "txid": "4b77407be923ce9efcade2cccb7e83d856eca1d6d10a8d8e2b94100a11c34a1e"}], "txid": "0df44946c47573c4c1a89b4e8899e067e05f328320c3af4c8a3efe47f46bb4d3", "blocktime": 1537869901, "version": 1, "confirmations": 11522, "time": 1537869901, "locktime": 542987, "vsize": 224, "size": 224}