{"hash": "89d28b5d3f97897e58bf23d4e4b14d8f3a679da1447d215f969a3476955e34df", "blockhash": "0000000000000000001f76057863aec43deb6fa401d9628bb513d65a8098bfab", "vout": [{"scriptPubKey": {"reqSigs": 1, "hex": "76a9140a3195c50a139c1268b517078c4818eb7c3cee7288ac", "addresses": ["1vuA9XxA95fff3zonS6wemPTWBvQ16vN9"], "asm": "OP_DUP OP_HASH160 0a3195c50a139c1268b517078c4818eb7c3cee72 OP_EQUALVERIFY OP_CHECKSIG", "type": "pubkeyhash"}, "value": 0.0025939, "n": 0}, {"scriptPubKey": {"reqSigs": 1, "hex": "a914351292bd52e4710dcb70b64fe5163bff7dbac0c787", "addresses": ["36XdzCX6r5X9sUb41Gvrq49x75rcJ9dTG4"], "asm": "OP_HASH160 351292bd52e4710dcb70b64fe5163bff7dbac0c7 OP_EQUAL", "type": "scripthash"}, "value": 0.00215844, "n": 1}], "hex": "020000000001019968446b87722f3f03c635e29474f4bb12214df93403b9b5c121b99805aa566500000000171600142cba23a803bc314d88649384a2fac8c70f8b6555feffffff023ef50300000000001976a9140a3195c50a139c1268b517078c4818eb7c3cee7288ac244b03000000000017a914351292bd52e4710dcb70b64fe5163bff7dbac0c78702483045022100ca068daef82ced0016f8fb0cb0c15131d9f4c814650e7746c27a1386c99c92c402202b9a9c8897b17b3d534ab9cf19b39df68b0f33973e3fe16979b40eb60a92d59b0121027cffabdd24d2153126f30c171da6d452389fd0482e80d804ac9d7c78f9c5655b14490800", "vin": [{"txinwitness": ["3045022100ca068daef82ced0016f8fb0cb0c15131d9f4c814650e7746c27a1386c99c92c402202b9a9c8897b17b3d534ab9cf19b39df68b0f33973e3fe16979b40eb60a92d59b01", "027cffabdd24d2153126f30c171da6d452389fd0482e80d804ac9d7c78f9c5655b"], "sequence": 4294967294, "scriptSig": {"hex": "1600142cba23a803bc314d88649384a2fac8c70f8b6555", "asm": "00142cba23a803bc314d88649384a2fac8c70f8b6555"}, "vout": 0, "txid": "6556aa0598b921c1b5b90334f94d2112bbf47494e235c6033f2f72876b446899"}], "txid": "0df4f1ed85766068681914dc377b7b6d84af0e2076905345d2729b5e3eedd1b6", "blocktime": 1537873891, "version": 2, "confirmations": 11478, "time": 1537873891, "locktime": 542996, "vsize": 168, "size": 250}