{"hash": "0dfd989217ef2c91f63a98d65538c67a7c33b6fead8fc07f677a52e83f4d235b", "blockhash": "0000000000000000001f76057863aec43deb6fa401d9628bb513d65a8098bfab", "vout": [{"scriptPubKey": {"reqSigs": 1, "hex": "76a914ec54ed04a22bc1f6b91060b0ef6217f2d7717abf88ac", "addresses": ["1NYcD2NTVe9VgAwpkjMJhowEgxv7yqRHVY"], "asm": "OP_DUP OP_HASH160 ec54ed04a22bc1f6b91060b0ef6217f2d7717abf OP_EQUALVERIFY OP_CHECKSIG", "type": "pubkeyhash"}, "value": 0.00560662, "n": 0}], "hex": "01000000014948db213fffc612ab3fde85457b060f83fded9eed426c3b527cabb1004c60c4000000006a473044022034011d67136fd9d677d2a75562174ad10e24e95a86a5bd11761e8ec539725a8102207074e7a3792c2d4261f822161c4f5cf2d3b8bf5f669618a65a2141be299c77e401210329b4bbaf3f05f0366d8ee50b1aa45657aad7ff07e693cb6d5e23bed022e81d89ffffffff01168e0800000000001976a914ec54ed04a22bc1f6b91060b0ef6217f2d7717abf88ac00000000", "vin": [{"sequence": 4294967295, "scriptSig": {"hex": "473044022034011d67136fd9d677d2a75562174ad10e24e95a86a5bd11761e8ec539725a8102207074e7a3792c2d4261f822161c4f5cf2d3b8bf5f669618a65a2141be299c77e401210329b4bbaf3f05f0366d8ee50b1aa45657aad7ff07e693cb6d5e23bed022e81d89", "asm": "3044022034011d67136fd9d677d2a75562174ad10e24e95a86a5bd11761e8ec539725a8102207074e7a3792c2d4261f822161c4f5cf2d3b8bf5f669618a65a2141be299c77e4[ALL] 0329b4bbaf3f05f0366d8ee50b1aa45657aad7ff07e693cb6d5e23bed022e81d89"}, "vout": 0, "txid": "c4604c00b1ab7c523b6c42ed9eedfd830f067b4585de3fab12c6ff3f21db4849"}], "txid": "0dfd989217ef2c91f63a98d65538c67a7c33b6fead8fc07f677a52e83f4d235b", "blocktime": 1537873891, "version": 1, "confirmations": 11475, "time": 1537873891, "locktime": 0, "vsize": 191, "size": 191}