{"hash": "30de8dc03046c586d68ee6de8a45258077ad5198d6dd221c0d69d9f03117264b", "blockhash": "0000000000000000001f0ddff1eddb255c1121bcd4da4f1bc9a0da00cae72433", "vout": [{"scriptPubKey": {"reqSigs": 1, "hex": "a9148d3702934e624b453a9bdf71b8ec475fc60cb12987", "addresses": ["3EZh6kuc7MrtQmvzUjhCv2QAkd1VK5msU7"], "asm": "OP_HASH160 8d3702934e624b453a9bdf71b8ec475fc60cb129 OP_EQUAL", "type": "scripthash"}, "value": 1.26230419, "n": 0}, {"scriptPubKey": {"reqSigs": 1, "hex": "a914fc68b9b56d2fa6dff275c1b7b2202b7dc5f1253f87", "addresses": ["3QhdfLPUqwEKPzf3eiC5sBhg8MDGXh5zev"], "asm": "OP_HASH160 fc68b9b56d2fa6dff275c1b7b2202b7dc5f1253f OP_EQUAL", "type": "scripthash"}, "value": 0.0293, "n": 1}], "hex": "020000000001019dd24f003353cccb537cebf6586c237b80bc465216e1c45c82e70d618c4dcfb000000000171600149c920ea836999c75b8b6bcf2cf017ef36befb2c4ffffffff02931f86070000000017a9148d3702934e624b453a9bdf71b8ec475fc60cb1298750b52c000000000017a914fc68b9b56d2fa6dff275c1b7b2202b7dc5f1253f8702473044022024f554d7ee66cfef7d9fbf569932df822fbff2943a45f37909f607d3ff05fff6022031a88eb28fa742b6bbbd8ce2df496c2ccd371e7089524cd9451787b3354f42fb012103ef8e4d4611531a9317c4236624ec147255cf28110b28bf1c0463ce8ac22f0dab00000000", "vin": [{"txinwitness": ["3044022024f554d7ee66cfef7d9fbf569932df822fbff2943a45f37909f607d3ff05fff6022031a88eb28fa742b6bbbd8ce2df496c2ccd371e7089524cd9451787b3354f42fb01", "03ef8e4d4611531a9317c4236624ec147255cf28110b28bf1c0463ce8ac22f0dab"], "sequence": 4294967295, "scriptSig": {"hex": "1600149c920ea836999c75b8b6bcf2cf017ef36befb2c4", "asm": "00149c920ea836999c75b8b6bcf2cf017ef36befb2c4"}, "vout": 0, "txid": "b0cf4d8c610de7825cc4e1165246bc807b236c58f6eb7c53cbcc5333004fd29d"}], "txid": "0e038a4256cc28270b15eb4fdc0340d406536a378f1756098385abc7f38b897c", "blocktime": 1537872018, "version": 2, "confirmations": 11489, "time": 1537872018, "locktime": 0, "vsize": 166, "size": 247}