{"hash": "9f720936c88895533182e0729cb2e87e00d30e13bf5f1bf84c1cf56ab3dbfa54", "blockhash": "000000000000000000022b45ed06c6f4ccd3cf7fb5ba4856ebd2e58215665228", "vout": [{"scriptPubKey": {"reqSigs": 1, "hex": "a914ad9df8d03d5453b7071563119dfc98de3074f90e87", "addresses": ["3HX24p53A2cGGmAz7VsEQvhMVzEERWbvtP"], "asm": "OP_HASH160 ad9df8d03d5453b7071563119dfc98de3074f90e OP_EQUAL", "type": "scripthash"}, "value": 0.077, "n": 0}, {"scriptPubKey": {"reqSigs": 1, "hex": "a914abb325daaade871b6a3533b258656451ba730a2f87", "addresses": ["3HLt5kxxp64SpK9qhKXNVcB2ZuWEz29BT4"], "asm": "OP_HASH160 abb325daaade871b6a3533b258656451ba730a2f OP_EQUAL", "type": "scripthash"}, "value": 0.02144942, "n": 1}], "hex": "01000000000104580f662b35df34d482a9e7d57c3852ffdca0c45a1c6fe7c4fcc584529589959c65000000232200204e00b75c8bf9cd088e75b396bfc874d2f90c7251c20699486ab34c540c0c0a19ffffffff580f662b35df34d482a9e7d57c3852ffdca0c45a1c6fe7c4fcc584529589959c62000000232200200c70a5b1a3fbe871685546d7262e091ad140e2e6048d0870550894d365255b5effffffff580f662b35df34d482a9e7d57c3852ffdca0c45a1c6fe7c4fcc584529589959c6400000023220020b7f4e5a28b73bea29220d25a98e76f1cec105292311179f9442ffc7feea36d8cffffffff580f662b35df34d482a9e7d57c3852ffdca0c45a1c6fe7c4fcc584529589959c6300000023220020701d0626d3c5f19db130a6fbcee542d39d1ce7f8fad8ec53d9d91b7691bcb4d7ffffffff02207e75000000000017a914ad9df8d03d5453b7071563119dfc98de3074f90e87aeba20000000000017a914abb325daaade871b6a3533b258656451ba730a2f870400483045022100a855e2d3c866265a7582b8727d44efe4bd3689793280c68c331dc550c86d28d102206b148ff2759a9e32837fc226bafbd7f9d89adfb718cef9e502463655c8b1582401483045022100cdee56c170ad5212b0267cc73edc7174b29e8bd2a9cdeabcda9f9396762176a002202dc8ecbcdd984348d84958f464584f132b181837ed5b882fb52f11288f8e79fb0169522102b4c23bdca1d8574a390a1ac2bbf2edf565695d16ec10d5cd921255f05bf23a8b210251bf5ae3c0982af05e1cf0d344ff9f4f289cc8593acc447d90171218847dc8c721034a92d2c42a425f6d8f6f9565f4bdbd26dd128968b76336618aab02f4bf2a78cf53ae0400483045022100efeed291ddbe83a3f674de65e30a26560a562241aed6f27c710b876d54935574022071f346c18b88a1bb854e8f8c2d0d795ad64d7dbe3aa021e6534238024697dbc801483045022100ba392b7b4116d85c3ab6e017f3ef869249ecbc3c4b9a08f31a56fee993f5521802203ee135dcf1863c28e70c70f25093312e739a1db0b489044e07864c2d05d8b58c0169522102f9109164824e3e368fd62583f4ef882e382329f226731e78bc6217bf4140ff6c21028ce949adedee2834979b5cab7c5df0a9743a34a18b77e94c3eb0c9baefccddf421023bf7400fafd57b9a6d7e28d01d401b2d632112845f0ad0190f2b04931aacb09453ae0400473044022062ae8c440d3c0053e179f8c572d9c82a4ea672be946cc59900c024c99e45e3e402200372a40d6fc518aa1ad7c3285fe9cdebab62f65856d9ce350645eda1caaf378401473044022040e9460b560995613b35b23ba77d942289da943ebfa71d4184187bd0d5b88cc9022066ea79fb011173fb5c4e35c6c59a4c83623906185884821845cb409ec4c54e270169522102e68ec453f36894fc301e26e6357642f7d173f7de199b9d4ebe803c5efb2540012103f5e21d24482d70f0e2137a7d1359f1e017c8dbe85f332616ddbf91d1199da68c21031f7c5db40ec6611c28349a5c03dd68236abf52744ebc4f566bf6a54d8d61212153ae0400473044022016b1ec93e33dfc2cf90188cd864321edf443cdefd687b01d38f5dbe190c0371502203b44ae5df9233f3a9873a8befc259a5e6434d5c363badc587d7d3064298a594f01473044022058fb4fd7af28d2df1fb682815a24319d020d7adde341fc98b75e5882d13511df0220164e4cc8fa8afce50f12d06b350c1d592cffc90f2a8d86a35c8c30ab0efacf81016952210281a3f86fc836229ae1eecc71ed2a4a895052e4f7e0d4c9c6a2013c2e77ba150a21036203f4b3c3110d860ab77408db08192a66be5a6ca83fcc580f58197590ae22c1210232aac4d0d547d5152ca265ebc7f89b76fc79ee6a72c8e6d6c10b8ab8ee18ed4b53ae00000000", "vin": [{"txinwitness": ["", "3045022100a855e2d3c866265a7582b8727d44efe4bd3689793280c68c331dc550c86d28d102206b148ff2759a9e32837fc226bafbd7f9d89adfb718cef9e502463655c8b1582401", "3045022100cdee56c170ad5212b0267cc73edc7174b29e8bd2a9cdeabcda9f9396762176a002202dc8ecbcdd984348d84958f464584f132b181837ed5b882fb52f11288f8e79fb01", "522102b4c23bdca1d8574a390a1ac2bbf2edf565695d16ec10d5cd921255f05bf23a8b210251bf5ae3c0982af05e1cf0d344ff9f4f289cc8593acc447d90171218847dc8c721034a92d2c42a425f6d8f6f9565f4bdbd26dd128968b76336618aab02f4bf2a78cf53ae"], "sequence": 4294967295, "scriptSig": {"hex": "2200204e00b75c8bf9cd088e75b396bfc874d2f90c7251c20699486ab34c540c0c0a19", "asm": "00204e00b75c8bf9cd088e75b396bfc874d2f90c7251c20699486ab34c540c0c0a19"}, "vout": 101, "txid": "9c9589955284c5fcc4e76f1c5ac4a0dcff52387cd5e7a982d434df352b660f58"}, {"txinwitness": ["", "3045022100efeed291ddbe83a3f674de65e30a26560a562241aed6f27c710b876d54935574022071f346c18b88a1bb854e8f8c2d0d795ad64d7dbe3aa021e6534238024697dbc801", "3045022100ba392b7b4116d85c3ab6e017f3ef869249ecbc3c4b9a08f31a56fee993f5521802203ee135dcf1863c28e70c70f25093312e739a1db0b489044e07864c2d05d8b58c01", "522102f9109164824e3e368fd62583f4ef882e382329f226731e78bc6217bf4140ff6c21028ce949adedee2834979b5cab7c5df0a9743a34a18b77e94c3eb0c9baefccddf421023bf7400fafd57b9a6d7e28d01d401b2d632112845f0ad0190f2b04931aacb09453ae"], "sequence": 4294967295, "scriptSig": {"hex": "2200200c70a5b1a3fbe871685546d7262e091ad140e2e6048d0870550894d365255b5e", "asm": "00200c70a5b1a3fbe871685546d7262e091ad140e2e6048d0870550894d365255b5e"}, "vout": 98, "txid": "9c9589955284c5fcc4e76f1c5ac4a0dcff52387cd5e7a982d434df352b660f58"}, {"txinwitness": ["", "3044022062ae8c440d3c0053e179f8c572d9c82a4ea672be946cc59900c024c99e45e3e402200372a40d6fc518aa1ad7c3285fe9cdebab62f65856d9ce350645eda1caaf378401", "3044022040e9460b560995613b35b23ba77d942289da943ebfa71d4184187bd0d5b88cc9022066ea79fb011173fb5c4e35c6c59a4c83623906185884821845cb409ec4c54e2701", "522102e68ec453f36894fc301e26e6357642f7d173f7de199b9d4ebe803c5efb2540012103f5e21d24482d70f0e2137a7d1359f1e017c8dbe85f332616ddbf91d1199da68c21031f7c5db40ec6611c28349a5c03dd68236abf52744ebc4f566bf6a54d8d61212153ae"], "sequence": 4294967295, "scriptSig": {"hex": "220020b7f4e5a28b73bea29220d25a98e76f1cec105292311179f9442ffc7feea36d8c", "asm": "0020b7f4e5a28b73bea29220d25a98e76f1cec105292311179f9442ffc7feea36d8c"}, "vout": 100, "txid": "9c9589955284c5fcc4e76f1c5ac4a0dcff52387cd5e7a982d434df352b660f58"}, {"txinwitness": ["", "3044022016b1ec93e33dfc2cf90188cd864321edf443cdefd687b01d38f5dbe190c0371502203b44ae5df9233f3a9873a8befc259a5e6434d5c363badc587d7d3064298a594f01", "3044022058fb4fd7af28d2df1fb682815a24319d020d7adde341fc98b75e5882d13511df0220164e4cc8fa8afce50f12d06b350c1d592cffc90f2a8d86a35c8c30ab0efacf8101", "52210281a3f86fc836229ae1eecc71ed2a4a895052e4f7e0d4c9c6a2013c2e77ba150a21036203f4b3c3110d860ab77408db08192a66be5a6ca83fcc580f58197590ae22c1210232aac4d0d547d5152ca265ebc7f89b76fc79ee6a72c8e6d6c10b8ab8ee18ed4b53ae"], "sequence": 4294967295, "scriptSig": {"hex": "220020701d0626d3c5f19db130a6fbcee542d39d1ce7f8fad8ec53d9d91b7691bcb4d7", "asm": "0020701d0626d3c5f19db130a6fbcee542d39d1ce7f8fad8ec53d9d91b7691bcb4d7"}, "vout": 99, "txid": "9c9589955284c5fcc4e76f1c5ac4a0dcff52387cd5e7a982d434df352b660f58"}], "txid": "0e0bf40430b8e7af137750fe6f8d9d9c68913d756447981228defdd86b6555cb", "blocktime": 1537869901, "version": 1, "confirmations": 11523, "time": 1537869901, "locktime": 0, "vsize": 632, "size": 1392}