{"hash": "0e0cfaae83b8c34c2e36cd2985ed8dc1e24bfc28720261e2f3416baf7cedb6ea", "blockhash": "0000000000000000000e13cef7c366c0283d82e591d1acd082e914b08063cdf1", "vout": [{"scriptPubKey": {"reqSigs": 1, "hex": "a914178d763a0edd17ac025efe037a914a8e77752d2d87", "addresses": ["33qYvtuEsKx959yH1goa36V4VBPmSRWKcb"], "asm": "OP_HASH160 178d763a0edd17ac025efe037a914a8e77752d2d OP_EQUAL", "type": "scripthash"}, "value": 0.07598998, "n": 0}], "hex": "01000000018dfc0ef349790ed9ecd78a112178d0436af59b6130d12e90fdb9fe9c641f7b0a000000006a4730440220171e5d4bc9865816eb95f36901f8ca3e56edf8b17cd657485df60ad2f25558aa0220457da30e95bdaa22ebc18dd8ad4d60c1c7a54893a45a6648860f01414b3f5992012103984e6f57eaf90b169ade09bb6740a1d9d28aa62264336982c358862eae806dfcfeffffff0196f373000000000017a914178d763a0edd17ac025efe037a914a8e77752d2d8700000000", "vin": [{"sequence": 4294967294, "scriptSig": {"hex": "4730440220171e5d4bc9865816eb95f36901f8ca3e56edf8b17cd657485df60ad2f25558aa0220457da30e95bdaa22ebc18dd8ad4d60c1c7a54893a45a6648860f01414b3f5992012103984e6f57eaf90b169ade09bb6740a1d9d28aa62264336982c358862eae806dfc", "asm": "30440220171e5d4bc9865816eb95f36901f8ca3e56edf8b17cd657485df60ad2f25558aa0220457da30e95bdaa22ebc18dd8ad4d60c1c7a54893a45a6648860f01414b3f5992[ALL] 03984e6f57eaf90b169ade09bb6740a1d9d28aa62264336982c358862eae806dfc"}, "vout": 0, "txid": "0a7b1f649cfeb9fd902ed130619bf56a43d07821118ad7ecd90e7949f30efc8d"}], "txid": "0e0cfaae83b8c34c2e36cd2985ed8dc1e24bfc28720261e2f3416baf7cedb6ea", "blocktime": 1537871767, "version": 1, "confirmations": 11493, "time": 1537871767, "locktime": 0, "vsize": 189, "size": 189}