{"hash": "0e0d5c16e4cf905f02d1611492a4d813dcf03f4faf6dd6a083076340189fdf2a", "blockhash": "00000000000000000004ffacab907a6b429b9a5745fa0b75af4234bf69dd7176", "vout": [{"scriptPubKey": {"reqSigs": 1, "hex": "a914c848f940fa7477a1002fe7faf700289663051c1587", "addresses": ["3Kx2VD1CHTXmXmr8dY4Vj79vghp5AzDxhQ"], "asm": "OP_HASH160 c848f940fa7477a1002fe7faf700289663051c15 OP_EQUAL", "type": "scripthash"}, "value": 0.27318221, "n": 0}], "hex": "0100000003c7ba7bee34a5dc4e71f7affab44b91efbb24eb16e7ab72cfaf59359214552e3a010000006b483045022100c424b7ce00e534eae49d58654dc3d7434c2d57163da1fd908e9f00c68980e6ea02204f7070c4a6ba716a9abdda48d59473e27317373f6dabeaeae44ca93941a82120012102e664fe2f252cbe61eb2676178a12da0f051376537c9353dcff6da42ff935b334ffffffff5a546482e1222ced211d5c166db9007a7d0b5b7397c4ad28666b53319cc0add3000000006b48304502210097eca6e460371a7834820c4ee6b2e1b4db621faf50a946b8cae2b46cde684bd702202ba2c165963fdf7f81f334e125376024deb5ee02a3fa7ce1c2b39ceea132803e012102854087f4f074c791c9af5cfb397d4e0a0b0475c4c6ccd4fe7c212bc6d560032effffffffb79b52f8992464d9c2827a5f1a44981898af04aaf181caecc4191a6de72ea8ed000000006b483045022100ca3f42936106fbe6ca374cdfdd1b5c8e4e4b2cae6249452286c8a7ecd79e1ef502206d4ba0f66e677c50774f34cedf77f5ab3a7b3d89a2c1d9047391447e7fbed4c10121035c7a65df18fe0cd1c99537a7384830cc759f83e8e95647d630e1ea9332951279ffffffff01cdd7a0010000000017a914c848f940fa7477a1002fe7faf700289663051c158700000000", "vin": [{"sequence": 4294967295, "scriptSig": {"hex": "483045022100c424b7ce00e534eae49d58654dc3d7434c2d57163da1fd908e9f00c68980e6ea02204f7070c4a6ba716a9abdda48d59473e27317373f6dabeaeae44ca93941a82120012102e664fe2f252cbe61eb2676178a12da0f051376537c9353dcff6da42ff935b334", "asm": "3045022100c424b7ce00e534eae49d58654dc3d7434c2d57163da1fd908e9f00c68980e6ea02204f7070c4a6ba716a9abdda48d59473e27317373f6dabeaeae44ca93941a82120[ALL] 02e664fe2f252cbe61eb2676178a12da0f051376537c9353dcff6da42ff935b334"}, "vout": 1, "txid": "3a2e5514923559afcf72abe716eb24bbef914bb4faaff7714edca534ee7bbac7"}, {"sequence": 4294967295, "scriptSig": {"hex": "48304502210097eca6e460371a7834820c4ee6b2e1b4db621faf50a946b8cae2b46cde684bd702202ba2c165963fdf7f81f334e125376024deb5ee02a3fa7ce1c2b39ceea132803e012102854087f4f074c791c9af5cfb397d4e0a0b0475c4c6ccd4fe7c212bc6d560032e", "asm": "304502210097eca6e460371a7834820c4ee6b2e1b4db621faf50a946b8cae2b46cde684bd702202ba2c165963fdf7f81f334e125376024deb5ee02a3fa7ce1c2b39ceea132803e[ALL] 02854087f4f074c791c9af5cfb397d4e0a0b0475c4c6ccd4fe7c212bc6d560032e"}, "vout": 0, "txid": "d3adc09c31536b6628adc497735b0b7d7a00b96d165c1d21ed2c22e18264545a"}, {"sequence": 4294967295, "scriptSig": {"hex": "483045022100ca3f42936106fbe6ca374cdfdd1b5c8e4e4b2cae6249452286c8a7ecd79e1ef502206d4ba0f66e677c50774f34cedf77f5ab3a7b3d89a2c1d9047391447e7fbed4c10121035c7a65df18fe0cd1c99537a7384830cc759f83e8e95647d630e1ea9332951279", "asm": "3045022100ca3f42936106fbe6ca374cdfdd1b5c8e4e4b2cae6249452286c8a7ecd79e1ef502206d4ba0f66e677c50774f34cedf77f5ab3a7b3d89a2c1d9047391447e7fbed4c1[ALL] 035c7a65df18fe0cd1c99537a7384830cc759f83e8e95647d630e1ea9332951279"}, "vout": 0, "txid": "eda82ee76d1a19c4ecca81f1aa04af981898441a5f7a82c2d9642499f8529bb7"}], "txid": "0e0d5c16e4cf905f02d1611492a4d813dcf03f4faf6dd6a083076340189fdf2a", "blocktime": 1537875543, "version": 1, "confirmations": 11464, "time": 1537875543, "locktime": 0, "vsize": 486, "size": 486}