{"hash": "601d84c6e2d207926201393b66e70ce19fcf72f51f1f60c5a6e0219aba2649d1", "blockhash": "0000000000000000000dcc0f55137456b1a82d3642486a52398922ac4d620174", "vout": [{"scriptPubKey": {"reqSigs": 1, "hex": "0014a4b3d61d2f9123c3026826b57ddca2378d9083a8", "addresses": ["bc1q5jeav8f0jy3uxqngy66hmh9zx7xepqagf3gwwq"], "asm": "0 a4b3d61d2f9123c3026826b57ddca2378d9083a8", "type": "witness_v0_keyhash"}, "value": 1.049e-05, "n": 0}, {"scriptPubKey": {"reqSigs": 1, "hex": "76a9142193d8b13182a7bfd8f2bd573f252c2e83b0bda488ac", "addresses": ["144YQtAPT6Vd24CLiMnDFgc6sgaEfKMkeH"], "asm": "OP_DUP OP_HASH160 2193d8b13182a7bfd8f2bd573f252c2e83b0bda4 OP_EQUALVERIFY OP_CHECKSIG", "type": "pubkeyhash"}, "value": 0.00089449, "n": 1}], "hex": "01000000000101d723525026570dff3e9dbaa864aa1e22bb757ad2fb3673bc1eae1adcdbc709767600000017160014f74d120c0ad209c886ab23d92389fefc0e45c174ffffffff021904000000000000160014a4b3d61d2f9123c3026826b57ddca2378d9083a8695d0100000000001976a9142193d8b13182a7bfd8f2bd573f252c2e83b0bda488ac02483045022100b85d0c1d72c90ca1f6d9299dc93d7daa24be4f3628f4c407f7a6429fe0ecb410022006d9dc0f2600c10259396a2ca7c713b8533489f34a85d685c37b8c68947057a301210370bca6220eb4c9c8785181729adaad22772add09f83396aa51946a1df3772dd200000000", "vin": [{"txinwitness": ["3045022100b85d0c1d72c90ca1f6d9299dc93d7daa24be4f3628f4c407f7a6429fe0ecb410022006d9dc0f2600c10259396a2ca7c713b8533489f34a85d685c37b8c68947057a301", "0370bca6220eb4c9c8785181729adaad22772add09f83396aa51946a1df3772dd2"], "sequence": 4294967295, "scriptSig": {"hex": "160014f74d120c0ad209c886ab23d92389fefc0e45c174", "asm": "0014f74d120c0ad209c886ab23d92389fefc0e45c174"}, "vout": 118, "txid": "7609c7dbdc1aae1ebc7336fbd27a75bb221eaa64a8ba9d3eff0d5726505223d7"}], "txid": "0e0e3ed9a74cafbfbf87473c01dbefbde975817b368ce679d7a3af299b38519f", "blocktime": 1537870268, "version": 1, "confirmations": 11518, "time": 1537870268, "locktime": 0, "vsize": 167, "size": 249}