{"hash": "8541554154149e0c472e0355f15de5666dbe79d80618bc78bff42df02c968f81", "blockhash": "0000000000000000000baef3f32e3676a92c3b2e5da21b426e4f302fc371ce76", "vout": [{"scriptPubKey": {"reqSigs": 1, "hex": "a914becb55fb498176854d0012bdd5d2a60e5c9980be87", "addresses": ["3K5qu1qEfa5etC52Vb9C4JoAp6pE62Zqjf"], "asm": "OP_HASH160 becb55fb498176854d0012bdd5d2a60e5c9980be OP_EQUAL", "type": "scripthash"}, "value": 0.00182474, "n": 0}, {"scriptPubKey": {"reqSigs": 1, "hex": "a914f5342287aaa57f5c05756dbd5ef14091cc70030f87", "addresses": ["3Q3XvwKWsx3ocmCXheK6pAo5ieooFx75hh"], "asm": "OP_HASH160 f5342287aaa57f5c05756dbd5ef14091cc70030f OP_EQUAL", "type": "scripthash"}, "value": 0.07934687, "n": 1}], "hex": "01000000000101691d7c1e640a975985904fb97d8dd57638113afe1a418f0b4d294cae3b27929801000000232200204fd7968ffe15cb453352a1e9ee2915eff8b6d6252d5a351f9092b82ca10eb12cffffffff02cac802000000000017a914becb55fb498176854d0012bdd5d2a60e5c9980be87df1279000000000017a914f5342287aaa57f5c05756dbd5ef14091cc70030f87040047304402201c1f3e8621d056a90e7919cad9496cecf7c2684ea2deffb2183a65e3f7fead1b022074ccb5bd8acc5573bdb8fccc5c8fe517bd744f3372694e0a822be7f76bad7efb01473044022009334e95f6b42972e8cf90caf2bd6bef2ca02e7563b938d85a0128a2c307feb10220030fbec6dc19db17c2a2f09a9f391d78bf886a1f94b268b2a6d26ebcc5ba4c6b0147522103b70e79262cbb7310fe069dea7c473b53276b75c67fb841ff66279f152a3fe0172103871fc2ca08e6950b38867e8e6a0e94ee625223d3aa0df5c65f414c6d784467e252ae00000000", "vin": [{"txinwitness": ["", "304402201c1f3e8621d056a90e7919cad9496cecf7c2684ea2deffb2183a65e3f7fead1b022074ccb5bd8acc5573bdb8fccc5c8fe517bd744f3372694e0a822be7f76bad7efb01", "3044022009334e95f6b42972e8cf90caf2bd6bef2ca02e7563b938d85a0128a2c307feb10220030fbec6dc19db17c2a2f09a9f391d78bf886a1f94b268b2a6d26ebcc5ba4c6b01", "522103b70e79262cbb7310fe069dea7c473b53276b75c67fb841ff66279f152a3fe0172103871fc2ca08e6950b38867e8e6a0e94ee625223d3aa0df5c65f414c6d784467e252ae"], "sequence": 4294967295, "scriptSig": {"hex": "2200204fd7968ffe15cb453352a1e9ee2915eff8b6d6252d5a351f9092b82ca10eb12c", "asm": "00204fd7968ffe15cb453352a1e9ee2915eff8b6d6252d5a351f9092b82ca10eb12c"}, "vout": 1, "txid": "9892273bae4c294d0b8f411afe3a113876d58d7db94f908559970a641e7c1d69"}], "txid": "0e0f2138c705a830df2d255c2e81d50c821c829c183e3ea40b15f8b8c962fe82", "blocktime": 1537876114, "version": 1, "confirmations": 11460, "time": 1537876114, "locktime": 0, "vsize": 205, "size": 370}