{"hash": "0e1229f9c114de1b081c591012173c3681ff38774b84ba1e14b70251638af58a", "blockhash": "00000000000000000018f53835495a110e01622372bf6ae95dc86f2b0ab887b0", "vout": [{"scriptPubKey": {"reqSigs": 1, "hex": "76a9140eab767c6e40fb11e4c8cced23353e7509839da988ac", "addresses": ["12LZs8gBxBdzBKee4twUrKfGWK1oSgv1BN"], "asm": "OP_DUP OP_HASH160 0eab767c6e40fb11e4c8cced23353e7509839da9 OP_EQUALVERIFY OP_CHECKSIG", "type": "pubkeyhash"}, "value": 7.904e-05, "n": 0}, {"scriptPubKey": {"reqSigs": 1, "hex": "76a9148ae6d899a46f6a6485ce22cc69b28c13b08571ac88ac", "addresses": ["1DfSnwYbeghE12xRV9DF5hui3omb8PsDkZ"], "asm": "OP_DUP OP_HASH160 8ae6d899a46f6a6485ce22cc69b28c13b08571ac OP_EQUALVERIFY OP_CHECKSIG", "type": "pubkeyhash"}, "value": 0.00437384, "n": 1}], "hex": "010000000409cae8401bee5604a87beaf6ba88cbd68115364c842e8b0d0ce6108eb6d14565000000006b483045022100b287988ba1a2236fb089c9f1092734d1e37f4e1390575dcdb611d5ee4708e52202203b1b345a1711c7bb6b042796e78afc4b969109b84e22b2feff106f9bdb029b340121037a1204720a1c999c9699617b9ad2a820aa91e6a292ddd72d629e0482cc1b6c7ffffffffff5cb10affd6a5646b33c1084445aed154be82aad627e1194c19acfffe03dcf86000000006b483045022100ee25bc6c183e298b396eccff1dddfea694046c89edc1939c9d9a29f8b452b788022017638dd9fa68ca50a949139fab5deff2a39698d7db0b9cab951d45c874846661012103e7b9d520c6bd2ff97df9c0f1f0a76dbf4eb2b3cb5ecf5d514fd80c13a6fa7e84ffffffff2613c90f46fadb2d78492d1fa64386e86157cd266ed9cbd04c80c15e294f788a010000006a473044022011ccf6e8640220e41557e32018d1529c2eaccf2ddc5dc9754a63cf1976f5056202204188393115c0bcd56b319ea122f011f906f317207c1c145367e37763f7b353f3012103d64c7260a57a41a4c6120b36aef23f0fabccebcbe92d262edf85df0c6a6dfabbffffffff4ef2745c978ff2f7cbdda7fec152f49e9821edc12f67662b3bd65360a200a2d5000000006a473044022100868c4edd48c854114989eccaa7e3ef060938a38d0b4f2d3c6914ee1822f930b0021f0bef825986fc4dfbc3eab0b046053c98cf2c2c7a8831e7c054b391437a518f012102a30a531ee150953ce79a8f93678ad07cd959eeb67f7433e7ede1819d6a60efd1ffffffff02e01e0000000000001976a9140eab767c6e40fb11e4c8cced23353e7509839da988ac88ac0600000000001976a9148ae6d899a46f6a6485ce22cc69b28c13b08571ac88ac00000000", "vin": [{"sequence": 4294967295, "scriptSig": {"hex": "483045022100b287988ba1a2236fb089c9f1092734d1e37f4e1390575dcdb611d5ee4708e52202203b1b345a1711c7bb6b042796e78afc4b969109b84e22b2feff106f9bdb029b340121037a1204720a1c999c9699617b9ad2a820aa91e6a292ddd72d629e0482cc1b6c7f", "asm": "3045022100b287988ba1a2236fb089c9f1092734d1e37f4e1390575dcdb611d5ee4708e52202203b1b345a1711c7bb6b042796e78afc4b969109b84e22b2feff106f9bdb029b34[ALL] 037a1204720a1c999c9699617b9ad2a820aa91e6a292ddd72d629e0482cc1b6c7f"}, "vout": 0, "txid": "6545d1b68e10e60c0d8b2e844c361581d6cb88baf6ea7ba80456ee1b40e8ca09"}, {"sequence": 4294967295, "scriptSig": {"hex": "483045022100ee25bc6c183e298b396eccff1dddfea694046c89edc1939c9d9a29f8b452b788022017638dd9fa68ca50a949139fab5deff2a39698d7db0b9cab951d45c874846661012103e7b9d520c6bd2ff97df9c0f1f0a76dbf4eb2b3cb5ecf5d514fd80c13a6fa7e84", "asm": "3045022100ee25bc6c183e298b396eccff1dddfea694046c89edc1939c9d9a29f8b452b788022017638dd9fa68ca50a949139fab5deff2a39698d7db0b9cab951d45c874846661[ALL] 03e7b9d520c6bd2ff97df9c0f1f0a76dbf4eb2b3cb5ecf5d514fd80c13a6fa7e84"}, "vout": 0, "txid": "86cf3de0ffcf9ac194117e62ad2ae84b15ed5a4484103cb346566afdaf10cbf5"}, {"sequence": 4294967295, "scriptSig": {"hex": "473044022011ccf6e8640220e41557e32018d1529c2eaccf2ddc5dc9754a63cf1976f5056202204188393115c0bcd56b319ea122f011f906f317207c1c145367e37763f7b353f3012103d64c7260a57a41a4c6120b36aef23f0fabccebcbe92d262edf85df0c6a6dfabb", "asm": "3044022011ccf6e8640220e41557e32018d1529c2eaccf2ddc5dc9754a63cf1976f5056202204188393115c0bcd56b319ea122f011f906f317207c1c145367e37763f7b353f3[ALL] 03d64c7260a57a41a4c6120b36aef23f0fabccebcbe92d262edf85df0c6a6dfabb"}, "vout": 1, "txid": "8a784f295ec1804cd0cbd96e26cd5761e88643a61f2d49782ddbfa460fc91326"}, {"sequence": 4294967295, "scriptSig": {"hex": "473044022100868c4edd48c854114989eccaa7e3ef060938a38d0b4f2d3c6914ee1822f930b0021f0bef825986fc4dfbc3eab0b046053c98cf2c2c7a8831e7c054b391437a518f012102a30a531ee150953ce79a8f93678ad07cd959eeb67f7433e7ede1819d6a60efd1", "asm": "3044022100868c4edd48c854114989eccaa7e3ef060938a38d0b4f2d3c6914ee1822f930b0021f0bef825986fc4dfbc3eab0b046053c98cf2c2c7a8831e7c054b391437a518f[ALL] 02a30a531ee150953ce79a8f93678ad07cd959eeb67f7433e7ede1819d6a60efd1"}, "vout": 0, "txid": "d5a200a26053d63b2b66672fc1ed21989ef452c1fea7ddcbf7f28f975c74f24e"}], "txid": "0e1229f9c114de1b081c591012173c3681ff38774b84ba1e14b70251638af58a", "blocktime": 1537870928, "version": 1, "confirmations": 11514, "time": 1537870928, "locktime": 0, "vsize": 668, "size": 668}