{"hash": "e2d126870dfc5b8d1f8ac05b7c423f7102f3aa2f90e350fded854bf3657470c8", "blockhash": "000000000000000000022b45ed06c6f4ccd3cf7fb5ba4856ebd2e58215665228", "vout": [{"scriptPubKey": {"reqSigs": 1, "hex": "a914afa9e50aa52bd5a56428da2c3d665f96a547ae6a87", "addresses": ["3Hhqhc1FpzwHve8CZzUFCbsASxVn1aBsK1"], "asm": "OP_HASH160 afa9e50aa52bd5a56428da2c3d665f96a547ae6a OP_EQUAL", "type": "scripthash"}, "value": 0.01025807, "n": 0}, {"scriptPubKey": {"reqSigs": 1, "hex": "76a914c9c9e228afa05e75487bbf75196c7abf581c2bc888ac", "addresses": ["1KPxffZJDA4vYAptYB3qWNhMXHXigh5kYh"], "asm": "OP_DUP OP_HASH160 c9c9e228afa05e75487bbf75196c7abf581c2bc8 OP_EQUALVERIFY OP_CHECKSIG", "type": "pubkeyhash"}, "value": 0.0123056, "n": 1}], "hex": "0200000000010348e89238df7ef9d01aa95629e4410fd7ca4cb8214b23c4db35deb2e0876b86150100000017160014f52a89f19f897cbafc084c484a3b6a4d6e0b00f9feffffffe0bec9a662eb5d23dd7895cb84dc4c65fcd070d7a27a5147c1137a72a97a77320400000017160014c4eba8eaa252ae844acb507baac9878da9339d1afefffffff5531b11ebae55df0b747d653015607771f982887a23540db68ecfc4f7f1bf3001000000171600146c9946687c33bca3c02709c835fb971c8e9deaaffeffffff020fa70f000000000017a914afa9e50aa52bd5a56428da2c3d665f96a547ae6a87e0c61200000000001976a914c9c9e228afa05e75487bbf75196c7abf581c2bc888ac02473044022069e5099d887f0f12085891c3048045317e1ee33be6dc2092d4d8764fad5437780220615bf2e69ddcac384bd5b4ca2e8c221324bf67ebb79690b7bb562f9f75d4ef2301210338d802e03ff0e9a419fc210e40dddf48fc525bafacf5e1811a71365ba1172b7802473044022053de08088eaa25904936f3bef5330a70910e239df168c32a0bccc67d07ed429d0220476bc6cd2b4f329512f0a2eb9b7594d5c52c7031357403d8c8431f537d31ad230121022aa201d049ef8fe7b4aa16bc45349db17a5f08a73d480c1c95262aace5a2955902483045022100ffdf89737549044bb3e8ff4c769768ef94b37f3061328190a91f1da79ebadc3c02200be6d424f768bd613baabfb0d28b897f0c82ec33f40e06e072efcc36830bcbc20121028c4c793ab794ea6b95a1985f1a1af7f7dc1d3008ef83cee48e33fded8f7f40a5e7480800", "vin": [{"txinwitness": ["3044022069e5099d887f0f12085891c3048045317e1ee33be6dc2092d4d8764fad5437780220615bf2e69ddcac384bd5b4ca2e8c221324bf67ebb79690b7bb562f9f75d4ef2301", "0338d802e03ff0e9a419fc210e40dddf48fc525bafacf5e1811a71365ba1172b78"], "sequence": 4294967294, "scriptSig": {"hex": "160014f52a89f19f897cbafc084c484a3b6a4d6e0b00f9", "asm": "0014f52a89f19f897cbafc084c484a3b6a4d6e0b00f9"}, "vout": 1, "txid": "15866b87e0b2de35dbc4234b21b84ccad70f41e42956a91ad0f97edf3892e848"}, {"txinwitness": ["3044022053de08088eaa25904936f3bef5330a70910e239df168c32a0bccc67d07ed429d0220476bc6cd2b4f329512f0a2eb9b7594d5c52c7031357403d8c8431f537d31ad2301", "022aa201d049ef8fe7b4aa16bc45349db17a5f08a73d480c1c95262aace5a29559"], "sequence": 4294967294, "scriptSig": {"hex": "160014c4eba8eaa252ae844acb507baac9878da9339d1a", "asm": "0014c4eba8eaa252ae844acb507baac9878da9339d1a"}, "vout": 4, "txid": "32777aa9727a13c147517aa2d770d0fc654cdc84cb9578dd235deb62a6c9bee0"}, {"txinwitness": ["3045022100ffdf89737549044bb3e8ff4c769768ef94b37f3061328190a91f1da79ebadc3c02200be6d424f768bd613baabfb0d28b897f0c82ec33f40e06e072efcc36830bcbc201", "028c4c793ab794ea6b95a1985f1a1af7f7dc1d3008ef83cee48e33fded8f7f40a5"], "sequence": 4294967294, "scriptSig": {"hex": "1600146c9946687c33bca3c02709c835fb971c8e9deaaf", "asm": "00146c9946687c33bca3c02709c835fb971c8e9deaaf"}, "vout": 1, "txid": "30bff1f7c4cf8eb60d54237a8882f97177601530657d740bdf55aeeb111b53f5"}], "txid": "0e13a3f8e76a546dea4c4b1c46da49600d40ace68b02af8d8ec908194ec0b330", "blocktime": 1537869901, "version": 2, "confirmations": 11524, "time": 1537869901, "locktime": 542951, "vsize": 349, "size": 592}