{"hash": "0e135ff6fad6275df18e8beb4c16b7ba7632725451e1bf2e2c3f4ed3c79d4da2", "blockhash": "00000000000000000017f5eb5941039fbcee6240d03bc1f2f8e35350df66a1d8", "vout": [{"scriptPubKey": {"reqSigs": 1, "hex": "76a914ef464e8800b3a8ec110153001feaef9644e4757b88ac", "addresses": ["1NpAir8Fx64maEYsNZNKsgLUwzLmnSPTbS"], "asm": "OP_DUP OP_HASH160 ef464e8800b3a8ec110153001feaef9644e4757b OP_EQUALVERIFY OP_CHECKSIG", "type": "pubkeyhash"}, "value": 0.00547469, "n": 0}, {"scriptPubKey": {"reqSigs": 1, "hex": "76a914fcb03acbeec1be6a544a1881fecc561fe1a55d1388ac", "addresses": ["1Q36PzdoBfVBcnFnob5L3JRpQhBPNWwA6P"], "asm": "OP_DUP OP_HASH160 fcb03acbeec1be6a544a1881fecc561fe1a55d13 OP_EQUALVERIFY OP_CHECKSIG", "type": "pubkeyhash"}, "value": 0.0317918, "n": 1}], "hex": "01000000013425c7c0dbe81349064c94cf13cff9d13592ea94860e6f65514aa1c709ac42a1010000006a473044022059ffd7fdb4d5a629d4eb740a8f118bcdafb906668e2fa515e936517877c8e11802204b353c23c3bb464efb7e2170afdd051bddd6f4cac05ecfeea781a77ed2adef8b012103d110ffe0ed78ee288b387e4fc545fd92f53f8d82147dad2502770465cb3f9840ffffffff028d5a0800000000001976a914ef464e8800b3a8ec110153001feaef9644e4757b88acac823000000000001976a914fcb03acbeec1be6a544a1881fecc561fe1a55d1388ac00000000", "vin": [{"sequence": 4294967295, "scriptSig": {"hex": "473044022059ffd7fdb4d5a629d4eb740a8f118bcdafb906668e2fa515e936517877c8e11802204b353c23c3bb464efb7e2170afdd051bddd6f4cac05ecfeea781a77ed2adef8b012103d110ffe0ed78ee288b387e4fc545fd92f53f8d82147dad2502770465cb3f9840", "asm": "3044022059ffd7fdb4d5a629d4eb740a8f118bcdafb906668e2fa515e936517877c8e11802204b353c23c3bb464efb7e2170afdd051bddd6f4cac05ecfeea781a77ed2adef8b[ALL] 03d110ffe0ed78ee288b387e4fc545fd92f53f8d82147dad2502770465cb3f9840"}, "vout": 1, "txid": "a142ac09c7a14a51656f0e8694ea9235d1f9cf13cf944c064913e8dbc0c72534"}], "txid": "0e135ff6fad6275df18e8beb4c16b7ba7632725451e1bf2e2c3f4ed3c79d4da2", "blocktime": 1537874412, "version": 1, "confirmations": 11468, "time": 1537874412, "locktime": 0, "vsize": 225, "size": 225}