{"hash": "0e16b09fd4c54a26f9a90d7e31da03db3ca94a144dd94908af3ef2776efd1567", "blockhash": "0000000000000000000dcc0f55137456b1a82d3642486a52398922ac4d620174", "vout": [{"scriptPubKey": {"reqSigs": 1, "hex": "76a914b092adf8ded74ea53995cca2e540fb8dc1093a0c88ac", "addresses": ["1H6deEoUAQXYLUvm2vJ8ohVbm6hdCYfAGR"], "asm": "OP_DUP OP_HASH160 b092adf8ded74ea53995cca2e540fb8dc1093a0c OP_EQUALVERIFY OP_CHECKSIG", "type": "pubkeyhash"}, "value": 0.049644, "n": 0}, {"scriptPubKey": {"reqSigs": 1, "hex": "76a9140ef83dc48014f797337bd85da65aeb253d89011488ac", "addresses": ["12N9qnwfft4UXiBJ8Bym59d1E87GN34ev5"], "asm": "OP_DUP OP_HASH160 0ef83dc48014f797337bd85da65aeb253d890114 OP_EQUALVERIFY OP_CHECKSIG", "type": "pubkeyhash"}, "value": 16.36035257, "n": 1}], "hex": "020000000121be5a04184dbbe0753857566e91c5a1bcb96b0d56ffa8ae3fd1906b79c0d4ca010000006a47304402204752d38907f68753b0204d36372564607333308201694301aceeed3941f9bfc8022015f5666298c736856a35de9f464fce842a1930f14f05ddefefecdbec25b2a853012103dcba2d546c54e97900378fecedf62ef11e4273ad9b70083a2e70a9643c14c53fffffffff0230c04b00000000001976a914b092adf8ded74ea53995cca2e540fb8dc1093a0c88acb9ea8361000000001976a9140ef83dc48014f797337bd85da65aeb253d89011488ac00000000", "vin": [{"sequence": 4294967295, "scriptSig": {"hex": "47304402204752d38907f68753b0204d36372564607333308201694301aceeed3941f9bfc8022015f5666298c736856a35de9f464fce842a1930f14f05ddefefecdbec25b2a853012103dcba2d546c54e97900378fecedf62ef11e4273ad9b70083a2e70a9643c14c53f", "asm": "304402204752d38907f68753b0204d36372564607333308201694301aceeed3941f9bfc8022015f5666298c736856a35de9f464fce842a1930f14f05ddefefecdbec25b2a853[ALL] 03dcba2d546c54e97900378fecedf62ef11e4273ad9b70083a2e70a9643c14c53f"}, "vout": 1, "txid": "cad4c0796b90d13faea8ff560d6bb9bca1c5916e56573875e0bb4d18045abe21"}], "txid": "0e16b09fd4c54a26f9a90d7e31da03db3ca94a144dd94908af3ef2776efd1567", "blocktime": 1537870268, "version": 2, "confirmations": 11518, "time": 1537870268, "locktime": 0, "vsize": 225, "size": 225}