{"hash": "0e1a548856adde457a5223188517e0cd5379ee6c7b62b3d25ab85dc8a4200f44", "blockhash": "0000000000000000000dcc0f55137456b1a82d3642486a52398922ac4d620174", "vout": [{"scriptPubKey": {"reqSigs": 1, "hex": "76a91474d09746fc4e0e20021d4e1a857ba7d19963442388ac", "addresses": ["1BefGQS6aqAxvxoKgSe18YfTXcPXKqf23H"], "asm": "OP_DUP OP_HASH160 74d09746fc4e0e20021d4e1a857ba7d199634423 OP_EQUALVERIFY OP_CHECKSIG", "type": "pubkeyhash"}, "value": 0.00865797, "n": 0}, {"scriptPubKey": {"reqSigs": 1, "hex": "a91440f771f306eeb4ea320c13a010c4c711b27249ce87", "addresses": ["37cXbcGVNd6dR4Ftcf8y8hXKGrKst9yYEC"], "asm": "OP_HASH160 40f771f306eeb4ea320c13a010c4c711b27249ce OP_EQUAL", "type": "scripthash"}, "value": 0.06320335, "n": 1}], "hex": "0200000004c94e8c74799a572d24733441d7acd5866318465b896cb2281c09bcbeded89f05090000006a47304402205ea571bfe28442078ec710aa32772375cd22495e453531e74c55dc6202287b4a02201e9f808bc1498af864f8bdd72374fb683191323376f8f05c13ab3d74b58a5d3f012103d3e42db03dbc63da3df0f6898dd57dc94350c279d582dbb34633f2fa750fdb28feffffffed24bf93b3a1fa87bd0a915faf7bd6d898c4cd9634f8c96ab41bf327cc33f0f6740000006a4730440220116dd9c79346f367ec8cc3a5606378c8d88595dcd55319302b1c5b395cea3bf102201a47e908f1f5f8f94d36cdbb36a72ee8afe1718d66c1c59e12b8ee3a6b21a6b1012102a94855f6b1147fd7530e36d311cfa51ee6b06fa9315c635ad3198b68b1f60ce6feffffffed24bf93b3a1fa87bd0a915faf7bd6d898c4cd9634f8c96ab41bf327cc33f0f6e30000006a47304402200960fe533db150549b4d8f8a3ffddda79e69a0b14bbeef212446be569399e85002204d74d7d8cd99ea8a01b06b696409301bc93c11af044b6569ce55c731f4bbeac50121036ffa1e2329965bb1d2f01d0e850b6bb10c1903b780ded3b3d455ede9aa60c625feffffff818d83f20a0a60f2360b64ce465bfa1f194e57464f85c1830d0e19926adbf5180c0000006a4730440220560bd3831aa29b3a302dcdc270a39ee2bf0d06bbc508e84fab70bdb199b730bc022006c03cecc7f44443be84a5794cbf743c61574732e9034ca9e1e07e62e8bb188601210208ca6c48d756f64b8f6dc653f894bdcc898a7015a78ef36a33918b4ee7baefb0feffffff0205360d00000000001976a91474d09746fc4e0e20021d4e1a857ba7d19963442388accf7060000000000017a91440f771f306eeb4ea320c13a010c4c711b27249ce87e3480800", "vin": [{"sequence": 4294967294, "scriptSig": {"hex": "47304402205ea571bfe28442078ec710aa32772375cd22495e453531e74c55dc6202287b4a02201e9f808bc1498af864f8bdd72374fb683191323376f8f05c13ab3d74b58a5d3f012103d3e42db03dbc63da3df0f6898dd57dc94350c279d582dbb34633f2fa750fdb28", "asm": "304402205ea571bfe28442078ec710aa32772375cd22495e453531e74c55dc6202287b4a02201e9f808bc1498af864f8bdd72374fb683191323376f8f05c13ab3d74b58a5d3f[ALL] 03d3e42db03dbc63da3df0f6898dd57dc94350c279d582dbb34633f2fa750fdb28"}, "vout": 9, "txid": "059fd8debebc091c28b26c895b46186386d5acd7413473242d579a79748c4ec9"}, {"sequence": 4294967294, "scriptSig": {"hex": "4730440220116dd9c79346f367ec8cc3a5606378c8d88595dcd55319302b1c5b395cea3bf102201a47e908f1f5f8f94d36cdbb36a72ee8afe1718d66c1c59e12b8ee3a6b21a6b1012102a94855f6b1147fd7530e36d311cfa51ee6b06fa9315c635ad3198b68b1f60ce6", "asm": "30440220116dd9c79346f367ec8cc3a5606378c8d88595dcd55319302b1c5b395cea3bf102201a47e908f1f5f8f94d36cdbb36a72ee8afe1718d66c1c59e12b8ee3a6b21a6b1[ALL] 02a94855f6b1147fd7530e36d311cfa51ee6b06fa9315c635ad3198b68b1f60ce6"}, "vout": 116, "txid": "f6f033cc27f31bb46ac9f83496cdc498d8d67baf5f910abd87faa1b393bf24ed"}, {"sequence": 4294967294, "scriptSig": {"hex": "47304402200960fe533db150549b4d8f8a3ffddda79e69a0b14bbeef212446be569399e85002204d74d7d8cd99ea8a01b06b696409301bc93c11af044b6569ce55c731f4bbeac50121036ffa1e2329965bb1d2f01d0e850b6bb10c1903b780ded3b3d455ede9aa60c625", "asm": "304402200960fe533db150549b4d8f8a3ffddda79e69a0b14bbeef212446be569399e85002204d74d7d8cd99ea8a01b06b696409301bc93c11af044b6569ce55c731f4bbeac5[ALL] 036ffa1e2329965bb1d2f01d0e850b6bb10c1903b780ded3b3d455ede9aa60c625"}, "vout": 227, "txid": "f6f033cc27f31bb46ac9f83496cdc498d8d67baf5f910abd87faa1b393bf24ed"}, {"sequence": 4294967294, "scriptSig": {"hex": "4730440220560bd3831aa29b3a302dcdc270a39ee2bf0d06bbc508e84fab70bdb199b730bc022006c03cecc7f44443be84a5794cbf743c61574732e9034ca9e1e07e62e8bb188601210208ca6c48d756f64b8f6dc653f894bdcc898a7015a78ef36a33918b4ee7baefb0", "asm": "30440220560bd3831aa29b3a302dcdc270a39ee2bf0d06bbc508e84fab70bdb199b730bc022006c03cecc7f44443be84a5794cbf743c61574732e9034ca9e1e07e62e8bb1886[ALL] 0208ca6c48d756f64b8f6dc653f894bdcc898a7015a78ef36a33918b4ee7baefb0"}, "vout": 12, "txid": "18f5db6a92190e0d83c1854f46574e191ffa5b46ce640b36f2600a0af2838d81"}], "txid": "0e1a548856adde457a5223188517e0cd5379ee6c7b62b3d25ab85dc8a4200f44", "blocktime": 1537870268, "version": 2, "confirmations": 11516, "time": 1537870268, "locktime": 542947, "vsize": 664, "size": 664}