{"hash": "0e1d6bf88bb244a779f6afae243385a169f35d5125bba210dbc852febbf3719c", "blockhash": "0000000000000000000e13cef7c366c0283d82e591d1acd082e914b08063cdf1", "vout": [{"scriptPubKey": {"reqSigs": 1, "hex": "76a9149b5748a38312064f30ff30e0337a27fb54ac1fde88ac", "addresses": ["1FANJKFSNBXyJhWggjEYiq73JcsvqdgsND"], "asm": "OP_DUP OP_HASH160 9b5748a38312064f30ff30e0337a27fb54ac1fde OP_EQUALVERIFY OP_CHECKSIG", "type": "pubkeyhash"}, "value": 0.0649116, "n": 0}, {"scriptPubKey": {"reqSigs": 1, "hex": "76a9143615e73c8ca673b63d41b9b86b915d4690bee1ff88ac", "addresses": ["15vyjE2RKPYG7ooMH8PsFFfHM39nv6PPyi"], "asm": "OP_DUP OP_HASH160 3615e73c8ca673b63d41b9b86b915d4690bee1ff OP_EQUALVERIFY OP_CHECKSIG", "type": "pubkeyhash"}, "value": 10.54926234, "n": 1}], "hex": "02000000019cfe6b7b45ec2fb06d2bff5279b3906970bc727800c87951091f50327ea5b795010000006a4730440220444052a7ca6c8041a2aba2f09954f80feb59caa646230b5c665b4dfa4e008bed02206e3e09161e585a75ec458ec8414f223d41525c51df01631ac91fe16bf689fe86012103896aa71809d2d15ce2d4591fd9ee52075057ee908162a75ecaf7113f45aee793ffffffff02180c6300000000001976a9149b5748a38312064f30ff30e0337a27fb54ac1fde88ac9ae5e03e000000001976a9143615e73c8ca673b63d41b9b86b915d4690bee1ff88ac00000000", "vin": [{"sequence": 4294967295, "scriptSig": {"hex": "4730440220444052a7ca6c8041a2aba2f09954f80feb59caa646230b5c665b4dfa4e008bed02206e3e09161e585a75ec458ec8414f223d41525c51df01631ac91fe16bf689fe86012103896aa71809d2d15ce2d4591fd9ee52075057ee908162a75ecaf7113f45aee793", "asm": "30440220444052a7ca6c8041a2aba2f09954f80feb59caa646230b5c665b4dfa4e008bed02206e3e09161e585a75ec458ec8414f223d41525c51df01631ac91fe16bf689fe86[ALL] 03896aa71809d2d15ce2d4591fd9ee52075057ee908162a75ecaf7113f45aee793"}, "vout": 1, "txid": "95b7a57e32501f095179c8007872bc706990b37952ff2b6db02fec457b6bfe9c"}], "txid": "0e1d6bf88bb244a779f6afae243385a169f35d5125bba210dbc852febbf3719c", "blocktime": 1537871767, "version": 2, "confirmations": 11495, "time": 1537871767, "locktime": 0, "vsize": 225, "size": 225}