{"hash": "9b3d5fe32da33ad91799978d8307a1a087c60fa98847d6a7ab21359173752934", "blockhash": "00000000000000000018f53835495a110e01622372bf6ae95dc86f2b0ab887b0", "vout": [{"scriptPubKey": {"reqSigs": 1, "hex": "a914cce6882ac8365cdc38a5e23503cac4dbcf4c4b7a87", "addresses": ["3LNRwKCUriaEeKGs4B18RsdGRj5s4PuSm3"], "asm": "OP_HASH160 cce6882ac8365cdc38a5e23503cac4dbcf4c4b7a OP_EQUAL", "type": "scripthash"}, "value": 0.008076, "n": 0}, {"scriptPubKey": {"reqSigs": 1, "hex": "a9149649ad6d2730bb28020a268d9d80df10a9f74ad487", "addresses": ["3FPfYWwfMfKMGY7fuPHvz2b73RhTNGzsm3"], "asm": "OP_HASH160 9649ad6d2730bb28020a268d9d80df10a9f74ad4 OP_EQUAL", "type": "scripthash"}, "value": 13.93713229, "n": 1}], "hex": "0100000000010167b97efbd33544a978d13c81071a83a924a98d5131542a7afc3078a27e6f5eba01000000232200207768efcc1e5eb3d28410fac3f45831004c860cc24cddd940a616b34324823fceffffffff02b0520c000000000017a914cce6882ac8365cdc38a5e23503cac4dbcf4c4b7a874d6012530000000017a9149649ad6d2730bb28020a268d9d80df10a9f74ad487040047304402201d4fdb7600181327726472014c29a4a64f88a37b4288d9fab93614bccf60d46e02202399a47a974b6372f84458cc56dd1ad14ae6b1ba1045846e56db42aea5366ca80147304402205503df6a3c565bdcc6cfa62e7e2b77336e4a953d0be3e4135fd3a4367a66699102202126cb0544c0d1eb836e8929b882da38874edb3d446c8005c0b539c87c4970de0147522102529d5d1f6733ab45d9d50e07db42c7f6b967ae321c38b726c2247f149959b8262103d0c936a5988dd8421c63240496b723b0ec42400c38b9350e32c2eb4f47d8796952ae00000000", "vin": [{"txinwitness": ["", "304402201d4fdb7600181327726472014c29a4a64f88a37b4288d9fab93614bccf60d46e02202399a47a974b6372f84458cc56dd1ad14ae6b1ba1045846e56db42aea5366ca801", "304402205503df6a3c565bdcc6cfa62e7e2b77336e4a953d0be3e4135fd3a4367a66699102202126cb0544c0d1eb836e8929b882da38874edb3d446c8005c0b539c87c4970de01", "522102529d5d1f6733ab45d9d50e07db42c7f6b967ae321c38b726c2247f149959b8262103d0c936a5988dd8421c63240496b723b0ec42400c38b9350e32c2eb4f47d8796952ae"], "sequence": 4294967295, "scriptSig": {"hex": "2200207768efcc1e5eb3d28410fac3f45831004c860cc24cddd940a616b34324823fce", "asm": "00207768efcc1e5eb3d28410fac3f45831004c860cc24cddd940a616b34324823fce"}, "vout": 1, "txid": "ba5e6f7ea27830fc7a2a5431518da924a9831a07813cd178a94435d3fb7eb967"}], "txid": "0e1df6994fbb5bec4bc80e9f1b0e392a6076f3e5c502bde41cc3f2342482471f", "blocktime": 1537870928, "version": 1, "confirmations": 11514, "time": 1537870928, "locktime": 0, "vsize": 205, "size": 370}