{"hash": "91f1056454bd5463ec2ba7c9e351c8eb902b9ba176033487a6ff407260bfff10", "blockhash": "0000000000000000000e13cef7c366c0283d82e591d1acd082e914b08063cdf1", "vout": [{"scriptPubKey": {"reqSigs": 1, "hex": "a914ffc5308eeb42f4dd27f55a588de2c58ec49226f087", "addresses": ["3R1QTSTVJ4EU1h7Kb4h8TDTamp7c8mciM8"], "asm": "OP_HASH160 ffc5308eeb42f4dd27f55a588de2c58ec49226f0 OP_EQUAL", "type": "scripthash"}, "value": 0.00999551, "n": 0}, {"scriptPubKey": {"reqSigs": 1, "hex": "76a91499bfa0bc37d94f726eadd6d0638309fb0ac7f30e88ac", "addresses": ["1F1wwtWJAKrekQ3GqwgvNsbd67Gzi4XoVg"], "asm": "OP_DUP OP_HASH160 99bfa0bc37d94f726eadd6d0638309fb0ac7f30e OP_EQUALVERIFY OP_CHECKSIG", "type": "pubkeyhash"}, "value": 0.0043346, "n": 1}], "hex": "020000000001029a84c9fc9103d9c0d3644fb85ce046112af9d5790d406caa6d48eb6d7f87506000000000171600140cd8860c78814be3699c3d67e6039e55ff3eed94feffffffdf01e1088aea1506d73b11bd39bebaf85e1fa2c770a0bb06be26aee1869dfcc10400000017160014037fa0d7120df977acba6f372a6462fe07c9b05efeffffff027f400f000000000017a914ffc5308eeb42f4dd27f55a588de2c58ec49226f087349d0600000000001976a91499bfa0bc37d94f726eadd6d0638309fb0ac7f30e88ac0247304402201b2393b37485675b3de2b3e0269f8a548dfe33b461ce574aeb949cc1a316928a0220661b108d3053f09310c50ad117a6de89d58672698bd867a4568f9e144f036cc2012102ad78196c382eec4c61ae9a7ce9cca9b45fff3bc8a23d5f865eb233261626f20002473044022067ede3107669917d4494c9361563b90dcf7f79e0576505bbb8be47152e21a8a80220545b548af79826bd63daff5b998e765fb64b090cb54e1b803c4c5d427ed6ebec012102764cec82146b3daea9094ce7620910b860275ab554baab1aa2f1af03549837450f490800", "vin": [{"txinwitness": ["304402201b2393b37485675b3de2b3e0269f8a548dfe33b461ce574aeb949cc1a316928a0220661b108d3053f09310c50ad117a6de89d58672698bd867a4568f9e144f036cc201", "02ad78196c382eec4c61ae9a7ce9cca9b45fff3bc8a23d5f865eb233261626f200"], "sequence": 4294967294, "scriptSig": {"hex": "1600140cd8860c78814be3699c3d67e6039e55ff3eed94", "asm": "00140cd8860c78814be3699c3d67e6039e55ff3eed94"}, "vout": 0, "txid": "6050877f6deb486daa6c400d79d5f92a1146e05cb84f64d3c0d90391fcc9849a"}, {"txinwitness": ["3044022067ede3107669917d4494c9361563b90dcf7f79e0576505bbb8be47152e21a8a80220545b548af79826bd63daff5b998e765fb64b090cb54e1b803c4c5d427ed6ebec01", "02764cec82146b3daea9094ce7620910b860275ab554baab1aa2f1af0354983745"], "sequence": 4294967294, "scriptSig": {"hex": "160014037fa0d7120df977acba6f372a6462fe07c9b05e", "asm": "0014037fa0d7120df977acba6f372a6462fe07c9b05e"}, "vout": 4, "txid": "c1fc9d86e1ae26be06bba070c7a21f5ef8babe39bd113bd70615ea8a08e101df"}], "txid": "0e218ec4e4a69e597ebcd9b50909c4bb4b4a3fb2ce0861426c16292b3f677321", "blocktime": 1537871767, "version": 2, "confirmations": 11495, "time": 1537871767, "locktime": 542991, "vsize": 258, "size": 420}