{"hash": "b21fd3e497207741a3fec70131c61c3dac9065e57f8dfc1be6632db713f063a8", "blockhash": "0000000000000000000e13cef7c366c0283d82e591d1acd082e914b08063cdf1", "vout": [{"scriptPubKey": {"reqSigs": 1, "hex": "76a9149c43e8d709815ce33c2353aa3b7d78e80ea5e1cb88ac", "addresses": ["1FFFmN2RpR8GBE71GCfodMHGAi5abymxXs"], "asm": "OP_DUP OP_HASH160 9c43e8d709815ce33c2353aa3b7d78e80ea5e1cb OP_EQUALVERIFY OP_CHECKSIG", "type": "pubkeyhash"}, "value": 0.0159967, "n": 0}, {"scriptPubKey": {"reqSigs": 1, "hex": "a91438d90c4aa976138a86b01c1db7bfa1ecc1b585c787", "addresses": ["36sbn3fFirjtyLmT7JnAukr6wJgMttmYoz"], "asm": "OP_HASH160 38d90c4aa976138a86b01c1db7bfa1ecc1b585c7 OP_EQUAL", "type": "scripthash"}, "value": 2.11354368, "n": 1}], "hex": "0200000000010141c542e6fdfdd4ff357e522ddd93e46f5a141142d962915cf58e283f0547df500000000017160014a06a172c201157d7d9dd002b83bc4f41e8b09609feffffff02b6681800000000001976a9149c43e8d709815ce33c2353aa3b7d78e80ea5e1cb88ac0003990c0000000017a91438d90c4aa976138a86b01c1db7bfa1ecc1b585c78702483045022100ab28b005d268971ee0612f1798c5ed8fdc1de2738e46a54670889ad98a733e670220665f105d498b7e08660574fb150337a2e4e0a8183d97a16806483204220eff5f01210395fe74cd671652bb555d55d86ec79453af916c1c837f61aa2cbf734690c8a23610490800", "vin": [{"txinwitness": ["3045022100ab28b005d268971ee0612f1798c5ed8fdc1de2738e46a54670889ad98a733e670220665f105d498b7e08660574fb150337a2e4e0a8183d97a16806483204220eff5f01", "0395fe74cd671652bb555d55d86ec79453af916c1c837f61aa2cbf734690c8a236"], "sequence": 4294967294, "scriptSig": {"hex": "160014a06a172c201157d7d9dd002b83bc4f41e8b09609", "asm": "0014a06a172c201157d7d9dd002b83bc4f41e8b09609"}, "vout": 0, "txid": "50df47053f288ef55c9162d94211145a6fe493dd2d527e35ffd4fdfde642c541"}], "txid": "0e22750b7287b76a89c0f91f1b7ae2d10cb8be05579a73ae909c9f3b87b2a1d5", "blocktime": 1537871767, "version": 2, "confirmations": 11495, "time": 1537871767, "locktime": 542992, "vsize": 168, "size": 250}