{"hash": "0e244c7425a793fdafd9021fee89023041709dce9b16c9265a93ef55da73bc61", "blockhash": "00000000000000000017f5eb5941039fbcee6240d03bc1f2f8e35350df66a1d8", "vout": [{"scriptPubKey": {"reqSigs": 1, "hex": "76a914be0474d35935b6a4f79eafd99c6611f3ed35355f88ac", "addresses": ["1JKij5fU7CFdbVFa3Mv1GVsV7ahWan1mkG"], "asm": "OP_DUP OP_HASH160 be0474d35935b6a4f79eafd99c6611f3ed35355f OP_EQUALVERIFY OP_CHECKSIG", "type": "pubkeyhash"}, "value": 0.051804, "n": 0}, {"scriptPubKey": {"reqSigs": 1, "hex": "76a914073514ec02f48aa1ef0aebb0ee7cd6efba61484d88ac", "addresses": ["1f7KXVq38E2gHz6KCc2L5gMdbTtYNauck"], "asm": "OP_DUP OP_HASH160 073514ec02f48aa1ef0aebb0ee7cd6efba61484d OP_EQUALVERIFY OP_CHECKSIG", "type": "pubkeyhash"}, "value": 0.01007852, "n": 1}], "hex": "01000000010d8f220c23d17f4a5bff29b4161d8d8ff9757b4d3b02f92be28aec81305f5f66000000006b483045022100d74588712b7a28e9bd1122aa84d2bfc142d34a9b2b93e03e8300cea99ef5b42202207fb73baaed37100d7ec69fd8d01bd69593f3ec4fef4683a4d4210eec547eb72c0121037db5575b0e037d4269f488c9794557e2902f2e5a477d559446f1cffb5a389c1effffffff02f00b4f00000000001976a914be0474d35935b6a4f79eafd99c6611f3ed35355f88acec600f00000000001976a914073514ec02f48aa1ef0aebb0ee7cd6efba61484d88ac00000000", "vin": [{"sequence": 4294967295, "scriptSig": {"hex": "483045022100d74588712b7a28e9bd1122aa84d2bfc142d34a9b2b93e03e8300cea99ef5b42202207fb73baaed37100d7ec69fd8d01bd69593f3ec4fef4683a4d4210eec547eb72c0121037db5575b0e037d4269f488c9794557e2902f2e5a477d559446f1cffb5a389c1e", "asm": "3045022100d74588712b7a28e9bd1122aa84d2bfc142d34a9b2b93e03e8300cea99ef5b42202207fb73baaed37100d7ec69fd8d01bd69593f3ec4fef4683a4d4210eec547eb72c[ALL] 037db5575b0e037d4269f488c9794557e2902f2e5a477d559446f1cffb5a389c1e"}, "vout": 0, "txid": "665f5f3081ec8ae22bf9023b4d7b75f98f8d1d16b429ff5b4a7fd1230c228f0d"}], "txid": "0e244c7425a793fdafd9021fee89023041709dce9b16c9265a93ef55da73bc61", "blocktime": 1537874412, "version": 1, "confirmations": 11467, "time": 1537874412, "locktime": 0, "vsize": 226, "size": 226}