{"hash": "58a04ae2bcb0ce9a0c833db9f569c75d0c718b8ec25c8b07f9f9866ab654c6ac", "blockhash": "0000000000000000001f76057863aec43deb6fa401d9628bb513d65a8098bfab", "vout": [{"scriptPubKey": {"reqSigs": 1, "hex": "a91430897cc6c9d69f6a2c2f1c651d51f22219f1a4f687", "addresses": ["367f4YWz1VCFaqBqwbTrzwi2b1h2U3w1AF"], "asm": "OP_HASH160 30897cc6c9d69f6a2c2f1c651d51f22219f1a4f6 OP_EQUAL", "type": "scripthash"}, "value": 1.5912135, "n": 0}, {"scriptPubKey": {"reqSigs": 1, "hex": "a914e690bdae8e85a7e71e83beae6a527e805d62dbe787", "addresses": ["3Ni8jSaoj5TugtHoiaF5RDWXLQKQ4N5NXz"], "asm": "OP_HASH160 e690bdae8e85a7e71e83beae6a527e805d62dbe7 OP_EQUAL", "type": "scripthash"}, "value": 0.35, "n": 1}], "hex": "0100000000010124d38272aa99ccdbd772b92d1660702852771ac870d959d41a1b835096c6b3d70000000023220020bcf9f822194145acea0f3235f4107b5bf1a91b6b9f8489f63bf79ec29b360913ffffffff02c6ff7b090000000017a91430897cc6c9d69f6a2c2f1c651d51f22219f1a4f687c00e16020000000017a914e690bdae8e85a7e71e83beae6a527e805d62dbe7870400473044022056110dfce69a1282ec971afddb44bf4c5410ebeaee3e11a70d27f663debf9a3102202946a8ac9a2a49e8e1efa5bee013b9b65531cb040df20a976abc4a3a43fc537901473044022005eea1877a16aa1973414b22c03a5cdcb148d8628672f0ba0ab2e97b858d029802204f5ae75cdc846d9107efc8e28b7fd85b8a5eaa2d4ab48fc757853d2a159eba2001695221026c8f72b9e63db63907115e65d4da86eaae595b22fdc85ec75301bb4adbf203582103806535be3e3920e5eedee92de5714188fd6a784f2bf7b04f87de0b9c3ae1ecdb21024b23bfdce2afcae7e28c42f7f79aa100f22931712c52d7414a526ba494d44a2553ae00000000", "vin": [{"txinwitness": ["", "3044022056110dfce69a1282ec971afddb44bf4c5410ebeaee3e11a70d27f663debf9a3102202946a8ac9a2a49e8e1efa5bee013b9b65531cb040df20a976abc4a3a43fc537901", "3044022005eea1877a16aa1973414b22c03a5cdcb148d8628672f0ba0ab2e97b858d029802204f5ae75cdc846d9107efc8e28b7fd85b8a5eaa2d4ab48fc757853d2a159eba2001", "5221026c8f72b9e63db63907115e65d4da86eaae595b22fdc85ec75301bb4adbf203582103806535be3e3920e5eedee92de5714188fd6a784f2bf7b04f87de0b9c3ae1ecdb21024b23bfdce2afcae7e28c42f7f79aa100f22931712c52d7414a526ba494d44a2553ae"], "sequence": 4294967295, "scriptSig": {"hex": "220020bcf9f822194145acea0f3235f4107b5bf1a91b6b9f8489f63bf79ec29b360913", "asm": "0020bcf9f822194145acea0f3235f4107b5bf1a91b6b9f8489f63bf79ec29b360913"}, "vout": 0, "txid": "d7b3c69650831b1ad459d970c81a7752287060162db972d7dbcc99aa7282d324"}], "txid": "0e26c2800b089e61aec37e287b7e735230d33135accf2138073cdc4256a7a100", "blocktime": 1537873891, "version": 1, "confirmations": 11478, "time": 1537873891, "locktime": 0, "vsize": 214, "size": 404}