{"hash": "0e282c513624d79c0b8b6c44ffcc27515ac71ef9307104e75269c5d77852dc68", "blockhash": "0000000000000000000e13cef7c366c0283d82e591d1acd082e914b08063cdf1", "vout": [{"scriptPubKey": {"reqSigs": 1, "hex": "76a9146953d4cdac1fe4e784056b125c6434d582b4a48f88ac", "addresses": ["1AbvNqkPGbpc4wJgsGGPYVH54ySpSWLCwc"], "asm": "OP_DUP OP_HASH160 6953d4cdac1fe4e784056b125c6434d582b4a48f OP_EQUALVERIFY OP_CHECKSIG", "type": "pubkeyhash"}, "value": 0.0063277, "n": 0}, {"scriptPubKey": {"reqSigs": 1, "hex": "76a914096df244dce879e9d1b64d67951ab9bfce6064e188ac", "addresses": ["1rrnwA2XnPeeXpxe9Pae4TSH9tKhCqor7"], "asm": "OP_DUP OP_HASH160 096df244dce879e9d1b64d67951ab9bfce6064e1 OP_EQUALVERIFY OP_CHECKSIG", "type": "pubkeyhash"}, "value": 0.0303282, "n": 1}], "hex": "010000000179edbc8b45f96cc5109a625ad13eac9a3efdba112b1d82cb6ab5cd20df22990b010000006b483045022100b8cb9f4b42a32d7dab3d70fa523436a053e47f7d8e4b0ef0d91acaeb1482c86d02200994b35113a64de72244e62c9b7e9339b8d618dba98b65f4b6d5e39ec4e51060012103b516a83c703112230f65e37fdf38b1e5c390d1417a6433a4184792f5e2d30ce4ffffffff02c2a70900000000001976a9146953d4cdac1fe4e784056b125c6434d582b4a48f88acf4462e00000000001976a914096df244dce879e9d1b64d67951ab9bfce6064e188ac00000000", "vin": [{"sequence": 4294967295, "scriptSig": {"hex": "483045022100b8cb9f4b42a32d7dab3d70fa523436a053e47f7d8e4b0ef0d91acaeb1482c86d02200994b35113a64de72244e62c9b7e9339b8d618dba98b65f4b6d5e39ec4e51060012103b516a83c703112230f65e37fdf38b1e5c390d1417a6433a4184792f5e2d30ce4", "asm": "3045022100b8cb9f4b42a32d7dab3d70fa523436a053e47f7d8e4b0ef0d91acaeb1482c86d02200994b35113a64de72244e62c9b7e9339b8d618dba98b65f4b6d5e39ec4e51060[ALL] 03b516a83c703112230f65e37fdf38b1e5c390d1417a6433a4184792f5e2d30ce4"}, "vout": 1, "txid": "0b9922df20cdb56acb821d2b11bafd3e9aac3ed15a629a10c56cf9458bbced79"}], "txid": "0e282c513624d79c0b8b6c44ffcc27515ac71ef9307104e75269c5d77852dc68", "blocktime": 1537871767, "version": 1, "confirmations": 11495, "time": 1537871767, "locktime": 0, "vsize": 226, "size": 226}