{"hash": "0e2e3441f39694169008f1ea24fa4e81a0731d9726fd1bcf6ffad8924c76593f", "blockhash": "00000000000000000018f53835495a110e01622372bf6ae95dc86f2b0ab887b0", "vout": [{"scriptPubKey": {"reqSigs": 1, "hex": "a914beb37b0595d7ddfe61633ca701138ebcad1778a587", "addresses": ["3K5MKX4KusLzPTaRzsgwm2T6nHUjxeQT1C"], "asm": "OP_HASH160 beb37b0595d7ddfe61633ca701138ebcad1778a5 OP_EQUAL", "type": "scripthash"}, "value": 0.01955732, "n": 0}, {"scriptPubKey": {"reqSigs": 1, "hex": "76a9145441b9bafc5492d3770d2b1a9c93019bd7fc61bf88ac", "addresses": ["18gWVoXdhk9wG4dVLHLFUdHvKWcqzCNw2H"], "asm": "OP_DUP OP_HASH160 5441b9bafc5492d3770d2b1a9c93019bd7fc61bf OP_EQUALVERIFY OP_CHECKSIG", "type": "pubkeyhash"}, "value": 0.00329704, "n": 1}], "hex": "0100000002406abf50e4e45aa766e76f7863d03544822433f1c64ff50630f6b636688d7d7e010000006a4730440220333a05ac4226bd48da2c2af56baa331109aca0161347f71e184b237cc05e9b26022023604047f972e6b9bf3d4169adb56df1a303def9df743974dc1b69a7b14556e7012102148b7ad7e0335ee30c3484e21cb03715c00c2f008351dcc5506b72c9a3f1a9d3ffffffffa65aa13379452132abd999e12cbf93b1c0e54cee02dd76f6f37f72c69494cbf4000000006b483045022100e4975d63544bc2b6dbc99f31637f1db8384b2d57cdacd9c7ddcd7daacd7f5baa02205328a48aa16d4768c554e6e280edfb82b3b938f3564e58926809e2be056b0367012102148b7ad7e0335ee30c3484e21cb03715c00c2f008351dcc5506b72c9a3f1a9d3ffffffff0294d71d000000000017a914beb37b0595d7ddfe61633ca701138ebcad1778a587e8070500000000001976a9145441b9bafc5492d3770d2b1a9c93019bd7fc61bf88ac00000000", "vin": [{"sequence": 4294967295, "scriptSig": {"hex": "4730440220333a05ac4226bd48da2c2af56baa331109aca0161347f71e184b237cc05e9b26022023604047f972e6b9bf3d4169adb56df1a303def9df743974dc1b69a7b14556e7012102148b7ad7e0335ee30c3484e21cb03715c00c2f008351dcc5506b72c9a3f1a9d3", "asm": "30440220333a05ac4226bd48da2c2af56baa331109aca0161347f71e184b237cc05e9b26022023604047f972e6b9bf3d4169adb56df1a303def9df743974dc1b69a7b14556e7[ALL] 02148b7ad7e0335ee30c3484e21cb03715c00c2f008351dcc5506b72c9a3f1a9d3"}, "vout": 1, "txid": "7e7d8d6836b6f63006f54fc6f13324824435d063786fe766a75ae4e450bf6a40"}, {"sequence": 4294967295, "scriptSig": {"hex": "483045022100e4975d63544bc2b6dbc99f31637f1db8384b2d57cdacd9c7ddcd7daacd7f5baa02205328a48aa16d4768c554e6e280edfb82b3b938f3564e58926809e2be056b0367012102148b7ad7e0335ee30c3484e21cb03715c00c2f008351dcc5506b72c9a3f1a9d3", "asm": "3045022100e4975d63544bc2b6dbc99f31637f1db8384b2d57cdacd9c7ddcd7daacd7f5baa02205328a48aa16d4768c554e6e280edfb82b3b938f3564e58926809e2be056b0367[ALL] 02148b7ad7e0335ee30c3484e21cb03715c00c2f008351dcc5506b72c9a3f1a9d3"}, "vout": 0, "txid": "f4cb9494c6727ff3f676dd02ee4ce5c0b193bf2ce199d9ab3221457933a15aa6"}], "txid": "0e2e3441f39694169008f1ea24fa4e81a0731d9726fd1bcf6ffad8924c76593f", "blocktime": 1537870928, "version": 1, "confirmations": 11512, "time": 1537870928, "locktime": 0, "vsize": 371, "size": 371}