{"hash": "0e2eb01b4b05b2969b70c099202db2e8c57e627da9ac038b5f2bff2e25ea9436", "blockhash": "0000000000000000001f0ddff1eddb255c1121bcd4da4f1bc9a0da00cae72433", "vout": [{"scriptPubKey": {"reqSigs": 1, "hex": "76a91463162c65daa45617bd6b512ed4f9eca321a902ed88ac", "addresses": ["1A2vTdRrqT6bfn5Entv29JYcbUVaB41kUY"], "asm": "OP_DUP OP_HASH160 63162c65daa45617bd6b512ed4f9eca321a902ed OP_EQUALVERIFY OP_CHECKSIG", "type": "pubkeyhash"}, "value": 5.723e-05, "n": 0}, {"scriptPubKey": {"reqSigs": 1, "hex": "a91467c3c2e1fe821e80c63fd57db8f2d80952b8566b87", "addresses": ["3B9g32smLTgupJjUtm6DdGt2usDR8Qk61s"], "asm": "OP_HASH160 67c3c2e1fe821e80c63fd57db8f2d80952b8566b OP_EQUAL", "type": "scripthash"}, "value": 0.0033, "n": 1}], "hex": "0100000001ed24bf93b3a1fa87bd0a915faf7bd6d898c4cd9634f8c96ab41bf327cc33f0f60f0000006a47304402207a7d1022781efe1c10a26eaf0fbd09c9aa4e527b06e3f0e2c2463d698f0a49bd02207de4c82278f133928e135acdaea063d1cd85962791719b6ba3d6fba9e47ca7e7012102e1cc9a280f64f8f404c377ce749d7d0275c2b5d930c1158f5b8d3ac2a6cf7fb6ffffffff025b160000000000001976a91463162c65daa45617bd6b512ed4f9eca321a902ed88ac100905000000000017a91467c3c2e1fe821e80c63fd57db8f2d80952b8566b8700000000", "vin": [{"sequence": 4294967295, "scriptSig": {"hex": "47304402207a7d1022781efe1c10a26eaf0fbd09c9aa4e527b06e3f0e2c2463d698f0a49bd02207de4c82278f133928e135acdaea063d1cd85962791719b6ba3d6fba9e47ca7e7012102e1cc9a280f64f8f404c377ce749d7d0275c2b5d930c1158f5b8d3ac2a6cf7fb6", "asm": "304402207a7d1022781efe1c10a26eaf0fbd09c9aa4e527b06e3f0e2c2463d698f0a49bd02207de4c82278f133928e135acdaea063d1cd85962791719b6ba3d6fba9e47ca7e7[ALL] 02e1cc9a280f64f8f404c377ce749d7d0275c2b5d930c1158f5b8d3ac2a6cf7fb6"}, "vout": 15, "txid": "f6f033cc27f31bb46ac9f83496cdc498d8d67baf5f910abd87faa1b393bf24ed"}], "txid": "0e2eb01b4b05b2969b70c099202db2e8c57e627da9ac038b5f2bff2e25ea9436", "blocktime": 1537872018, "version": 1, "confirmations": 11489, "time": 1537872018, "locktime": 0, "vsize": 223, "size": 223}