{"hash": "0e3394f4ac1f62bc4a2fb57108053f14ff29b953614b73bd6671e05c971883c6", "blockhash": "0000000000000000000baef3f32e3676a92c3b2e5da21b426e4f302fc371ce76", "vout": [{"scriptPubKey": {"reqSigs": 1, "hex": "76a91415040dbbec374bfeeead298473993d72b719fc5888ac", "addresses": ["12v83gVWmdjScT1PCCCiyzMYueJHBKfTjA"], "asm": "OP_DUP OP_HASH160 15040dbbec374bfeeead298473993d72b719fc58 OP_EQUALVERIFY OP_CHECKSIG", "type": "pubkeyhash"}, "value": 5.46e-06, "n": 0}, {"scriptPubKey": {"reqSigs": 1, "hex": "a9143f4eecba122ad73039d481c8d37f99cb4f887cd887", "addresses": ["37Tm3Qz8Zw2VJrheUUhArDAoq58S6YrS3g"], "asm": "OP_HASH160 3f4eecba122ad73039d481c8d37f99cb4f887cd8 OP_EQUAL", "type": "scripthash"}, "value": 0.99989816, "n": 1}, {"scriptPubKey": {"type": "nulldata", "hex": "6a146f6d6e69000000000000001f0000001a03680b60", "asm": "OP_RETURN 6f6d6e69000000000000001f0000001a03680b60"}, "value": 0.0, "n": 2}], "hex": "0100000001c06b82227cda14dc77cc1d864aeaa2dac092b1599e4f738a9f64b61ccb53d12b01000000fdfd0000473044022064f867f6454ed586f0ead8ed1a7b66cfcb35a31f121b375b49ef85240ad8b1c102205764dee59cd4cb1e63aa8f3280f61e13f2ca26fa6d9ef8a49640842cac3a903301483045022100fefd03d89713fcead5df8ea092d5816ad6d86029342ff2689ea36a4a0026497a02200e189b9364b7533672f815eabdda27945dbbfc621a5743e32b3abfee435eaed5014c6952210246ccf4de0c54cc7f3354cdd993c2c50cf965fd82238b89659fbd73a1b4bf05a121024fc59f72272a897fe43803374969f396058152fe4765a8d15216f94624257b1b21022593bc69ecbf3bbcc3c58082267cb49dadaf4ca8dbf1b2297338a9d628c4297653aeffffffff0322020000000000001976a91415040dbbec374bfeeead298473993d72b719fc5888ac38b9f5050000000017a9143f4eecba122ad73039d481c8d37f99cb4f887cd8870000000000000000166a146f6d6e69000000000000001f0000001a03680b6000000000", "vin": [{"sequence": 4294967295, "scriptSig": {"hex": "00473044022064f867f6454ed586f0ead8ed1a7b66cfcb35a31f121b375b49ef85240ad8b1c102205764dee59cd4cb1e63aa8f3280f61e13f2ca26fa6d9ef8a49640842cac3a903301483045022100fefd03d89713fcead5df8ea092d5816ad6d86029342ff2689ea36a4a0026497a02200e189b9364b7533672f815eabdda27945dbbfc621a5743e32b3abfee435eaed5014c6952210246ccf4de0c54cc7f3354cdd993c2c50cf965fd82238b89659fbd73a1b4bf05a121024fc59f72272a897fe43803374969f396058152fe4765a8d15216f94624257b1b21022593bc69ecbf3bbcc3c58082267cb49dadaf4ca8dbf1b2297338a9d628c4297653ae", "asm": "0 3044022064f867f6454ed586f0ead8ed1a7b66cfcb35a31f121b375b49ef85240ad8b1c102205764dee59cd4cb1e63aa8f3280f61e13f2ca26fa6d9ef8a49640842cac3a9033[ALL] 3045022100fefd03d89713fcead5df8ea092d5816ad6d86029342ff2689ea36a4a0026497a02200e189b9364b7533672f815eabdda27945dbbfc621a5743e32b3abfee435eaed5[ALL] 52210246ccf4de0c54cc7f3354cdd993c2c50cf965fd82238b89659fbd73a1b4bf05a121024fc59f72272a897fe43803374969f396058152fe4765a8d15216f94624257b1b21022593bc69ecbf3bbcc3c58082267cb49dadaf4ca8dbf1b2297338a9d628c4297653ae"}, "vout": 1, "txid": "2bd153cb1cb6649f8a734f9e59b192c0daa2ea4a861dcc77dc14da7c22826bc0"}], "txid": "0e3394f4ac1f62bc4a2fb57108053f14ff29b953614b73bd6671e05c971883c6", "blocktime": 1537876114, "version": 1, "confirmations": 11460, "time": 1537876114, "locktime": 0, "vsize": 403, "size": 403}