{"hash": "4d5b53e1526f8db2210c9405970da5574e563e222df71f272a9aa4b5b1c73b9e", "blockhash": "0000000000000000000dcc0f55137456b1a82d3642486a52398922ac4d620174", "vout": [{"scriptPubKey": {"reqSigs": 1, "hex": "76a9142bf312ffbd6bd24a47be2358be66c49176e02c0988ac", "addresses": ["151PFLnvPKnQjVttwZ5m8KiXobSxrNXNVc"], "asm": "OP_DUP OP_HASH160 2bf312ffbd6bd24a47be2358be66c49176e02c09 OP_EQUALVERIFY OP_CHECKSIG", "type": "pubkeyhash"}, "value": 0.0010397, "n": 0}, {"scriptPubKey": {"reqSigs": 1, "hex": "0014b868fc082da7ac2c25a34a91cfb3040e7b98a800", "addresses": ["bc1qhp50czpd57kzcfdrf2gulvcypeae32qqw6da6a"], "asm": "0 b868fc082da7ac2c25a34a91cfb3040e7b98a800", "type": "witness_v0_keyhash"}, "value": 1.412e-05, "n": 1}], "hex": "010000000001016666c8397ab19f8cc57dec38b55b16212ce5226811075ff0b8c5343ba001b5fb00000000171600148642abab1e67368f6d449a95b733740e050e9bd8ffffffff0222960100000000001976a9142bf312ffbd6bd24a47be2358be66c49176e02c0988ac8405000000000000160014b868fc082da7ac2c25a34a91cfb3040e7b98a80002483045022100ae2149a5c5f5622c7c035d3367f67935f1c424b3454590b0614d5cc78835985d0220751539030951409c6672e0dc045414065e2a39a44ea8b477861643f937ef9c1c0121029e17277566b24f798282a36b50ff6c85fbb1d5bc06480936e1096e774d9dfbc500000000", "vin": [{"txinwitness": ["3045022100ae2149a5c5f5622c7c035d3367f67935f1c424b3454590b0614d5cc78835985d0220751539030951409c6672e0dc045414065e2a39a44ea8b477861643f937ef9c1c01", "029e17277566b24f798282a36b50ff6c85fbb1d5bc06480936e1096e774d9dfbc5"], "sequence": 4294967295, "scriptSig": {"hex": "1600148642abab1e67368f6d449a95b733740e050e9bd8", "asm": "00148642abab1e67368f6d449a95b733740e050e9bd8"}, "vout": 0, "txid": "fbb501a03b34c5b8f05f07116822e52c21165bb538ec7dc58c9fb17a39c86666"}], "txid": "0e36ed548f5137a0b6a3d4dcc6bd83524085d5d0a94709fb8bf339e37ce25065", "blocktime": 1537870268, "version": 1, "confirmations": 11518, "time": 1537870268, "locktime": 0, "vsize": 167, "size": 249}