{"hash": "0e37fb87c0e2367fbfc6e6680fe247f00717685491e7bc7e16b81b8d182ee87e", "blockhash": "0000000000000000001f76057863aec43deb6fa401d9628bb513d65a8098bfab", "vout": [{"scriptPubKey": {"reqSigs": 1, "hex": "76a91489f73a5865ced30fb391701f15f96683fcca66e388ac", "addresses": ["1DaVjygH2v9mELQ6R6xSFSmsbcwH6BfHf7"], "asm": "OP_DUP OP_HASH160 89f73a5865ced30fb391701f15f96683fcca66e3 OP_EQUALVERIFY OP_CHECKSIG", "type": "pubkeyhash"}, "value": 0.00634756, "n": 0}, {"scriptPubKey": {"type": "nulldata", "hex": "6a4c50000077e5000156cc4abfee6c8a7dd3835c4c7af8e8e963c7cfd5b95b23cc0f42c2fc38c555f0bf47b10919c186d469e2ea8439825baa17490612320a6ff6adaa1d100759d4ba30d2c37bb011d97e02cf", "asm": "OP_RETURN 000077e5000156cc4abfee6c8a7dd3835c4c7af8e8e963c7cfd5b95b23cc0f42c2fc38c555f0bf47b10919c186d469e2ea8439825baa17490612320a6ff6adaa1d100759d4ba30d2c37bb011d97e02cf"}, "value": 0.0, "n": 1}], "hex": "01000000013ebcfadfc7a3b9210438812daccbd7d1b28cb331a5e4fad604964aa2617773d5000000006b483045022100bf827a1e8228c87f0c82369e8ec55562ed09659d782d74430312f1f9daceb6a2022033b3b59d1feadd390b734142182c0b56434f14ec66e887f4809d82af4429cb49012102e4e2dd5ac683aa3fe2ec879de43edde504eb6136499fc1a7139f85a5562685f7ffffffff0284af0900000000001976a91489f73a5865ced30fb391701f15f96683fcca66e388ac0000000000000000536a4c50000077e5000156cc4abfee6c8a7dd3835c4c7af8e8e963c7cfd5b95b23cc0f42c2fc38c555f0bf47b10919c186d469e2ea8439825baa17490612320a6ff6adaa1d100759d4ba30d2c37bb011d97e02cf00000000", "vin": [{"sequence": 4294967295, "scriptSig": {"hex": "483045022100bf827a1e8228c87f0c82369e8ec55562ed09659d782d74430312f1f9daceb6a2022033b3b59d1feadd390b734142182c0b56434f14ec66e887f4809d82af4429cb49012102e4e2dd5ac683aa3fe2ec879de43edde504eb6136499fc1a7139f85a5562685f7", "asm": "3045022100bf827a1e8228c87f0c82369e8ec55562ed09659d782d74430312f1f9daceb6a2022033b3b59d1feadd390b734142182c0b56434f14ec66e887f4809d82af4429cb49[ALL] 02e4e2dd5ac683aa3fe2ec879de43edde504eb6136499fc1a7139f85a5562685f7"}, "vout": 0, "txid": "d5737761a24a9604d6fae4a531b38cb2d1d7cbac2d81380421b9a3c7dffabc3e"}], "txid": "0e37fb87c0e2367fbfc6e6680fe247f00717685491e7bc7e16b81b8d182ee87e", "blocktime": 1537873891, "version": 1, "confirmations": 11478, "time": 1537873891, "locktime": 0, "vsize": 284, "size": 284}