{"hash": "0e39f1d32bc95d41830f900af374ce6a748655b80bc8ebc758cd27095fb962d7", "blockhash": "0000000000000000001e0dab787dd257d1dbfcb92a98c2207d5e1078be1f4165", "vout": [{"scriptPubKey": {"reqSigs": 1, "hex": "a914c9dd6ce0cc86ebc5eb41e21e9f241987b47ddba687", "addresses": ["3L6P113b7ed5qsDebnr8GoheaeKPQiiJSF"], "asm": "OP_HASH160 c9dd6ce0cc86ebc5eb41e21e9f241987b47ddba6 OP_EQUAL", "type": "scripthash"}, "value": 0.00062485, "n": 0}, {"scriptPubKey": {"reqSigs": 1, "hex": "76a914614194ca22c9623bf35d159ef8f0c91ce36d88c588ac", "addresses": ["19sF7GeougjkLrWgJtv7TaakHE1ArvMAcP"], "asm": "OP_DUP OP_HASH160 614194ca22c9623bf35d159ef8f0c91ce36d88c5 OP_EQUALVERIFY OP_CHECKSIG", "type": "pubkeyhash"}, "value": 0.00473129, "n": 1}], "hex": "01000000017f5f86818551f281061b5d54a4543ae417b6d07fe8817bc9de91c2e196d60a27010000006b48304502210091c7bd4d3166745df83a133b061c6e0c5239345c6de398bad7d68229e78716c50220627434f2183ab09a1da177642e910d2c2de13732a393256beaaf51b2a79a8ea1012103f85766ccb329be69651b53479411cb982141e8bba110f79ae769d568a4d07d51ffffffff0215f400000000000017a914c9dd6ce0cc86ebc5eb41e21e9f241987b47ddba68729380700000000001976a914614194ca22c9623bf35d159ef8f0c91ce36d88c588ac00000000", "vin": [{"sequence": 4294967295, "scriptSig": {"hex": "48304502210091c7bd4d3166745df83a133b061c6e0c5239345c6de398bad7d68229e78716c50220627434f2183ab09a1da177642e910d2c2de13732a393256beaaf51b2a79a8ea1012103f85766ccb329be69651b53479411cb982141e8bba110f79ae769d568a4d07d51", "asm": "304502210091c7bd4d3166745df83a133b061c6e0c5239345c6de398bad7d68229e78716c50220627434f2183ab09a1da177642e910d2c2de13732a393256beaaf51b2a79a8ea1[ALL] 03f85766ccb329be69651b53479411cb982141e8bba110f79ae769d568a4d07d51"}, "vout": 1, "txid": "270ad696e1c291dec97b81e87fd0b617e43a54a4545d1b0681f2518581865f7f"}], "txid": "0e39f1d32bc95d41830f900af374ce6a748655b80bc8ebc758cd27095fb962d7", "blocktime": 1537872475, "version": 1, "confirmations": 11487, "time": 1537872475, "locktime": 0, "vsize": 224, "size": 224}