{"hash": "0e3ab086194ddf9a3b2c4f6fa7632a8c5be38852bf44b293a5da401215856bbb", "blockhash": "0000000000000000000baef3f32e3676a92c3b2e5da21b426e4f302fc371ce76", "vout": [{"scriptPubKey": {"reqSigs": 1, "hex": "76a914a280f8442ea63358da2e3c47c9f0589f8f5124cc88ac", "addresses": ["1FpEy4AspAgX6FooQVP92ShaSNPdpgm3Hf"], "asm": "OP_DUP OP_HASH160 a280f8442ea63358da2e3c47c9f0589f8f5124cc OP_EQUALVERIFY OP_CHECKSIG", "type": "pubkeyhash"}, "value": 0.102395, "n": 0}, {"scriptPubKey": {"reqSigs": 1, "hex": "a91467bc16e19fd27fcc32db8cd21cd5224ad4a6cb7387", "addresses": ["3B9Wqyt9Bne5kV9Q44z3D8Yv3CVZYiavE7"], "asm": "OP_HASH160 67bc16e19fd27fcc32db8cd21cd5224ad4a6cb73 OP_EQUAL", "type": "scripthash"}, "value": 0.0071587, "n": 1}], "hex": "010000000583013da65abaf8d9659ea5d6cbec0535f3f3fdf571f12d52fd9ef2b5d2dd8a1101000000fc0047304402205cf43c2cbbf752690f541f9958e0e81ead6f9ca95a4bb760d69a620dac0f3f91022046b9ba3fb6c4337b29e6a95830d6beb880b2d21e931d308a19065f387027902d014730440220013aebd2b949754b3e50b661c35bd088ad41f26dfad66d5d40e408246dd35f69022029fcd03de8ae600d010cecc657a4fb02045443675f490db4fdf04d643c9d6601014c695221028a89b81fec9b757a31e63a6f994060d41ff80189fa1e3c607d557922261347182102afc2c5191799abbfe043747a049d213fa57ba0a72706aeaca3f70984e7b6fa472102dea969c25615e02cd8922503d9db832b67eab3a5d94f0109ab302a1b756552b653aeffffffff60d628f6e88e37062ca2cebb4003a6a1fbc4155df47cac56d6f4d55d3ae61f1200000000fdfd00004730440220577d4f1f10967122ec4e5405dd6f89afe00f0c2168e20a0cb58a0195393ebe45022035972d21fcd623bdf41a6e59aa85eabed15fae9e74cb51a5ca5e48d9d865f21a01483045022100d48d846c0c65e06188dc9e7d476b3941cf13484b6da44ed2caba44d7c680c1aa02207181a11c647b11527bec1f8ab5faf3eb57988ff9a791307ef540dd6e8e608b1d014c69522103072740ad2888a0f4923f12f17f3f93b3538d4439193a36a688d717c63e9b83c3210368b3376fff0a5fe23a1d7a5d568d2fd859087dbf5213fa46193cf77057cd328c2103c385c45cdf1bfc28afc1bd75a3d66b88a1274e613288367abdd303cbbd46e62553aeffffffff8680f906aa77447db8f726fd651b7b221cb42a11508339151491a2a4d32ed14401000000fdfe0000483045022100f1d04986062d2719db6a0e9b6a0f9898982e085524de9f6e6bd865afdc8ed48902200c38d91a148ea14916068330fbb40e1492423c0ea846eafbef8fedb51738d8fd0148304502210092ebed3ea37898a998b10029d77d5a1eaa425e11fba1bed9cc6a0cdbb16875c502203b9b3587736e4cb7ff23d4abfe7842c1211b783b4d17026b2dc41d43ddcf6527014c69522103072740ad2888a0f4923f12f17f3f93b3538d4439193a36a688d717c63e9b83c3210368b3376fff0a5fe23a1d7a5d568d2fd859087dbf5213fa46193cf77057cd328c2103c385c45cdf1bfc28afc1bd75a3d66b88a1274e613288367abdd303cbbd46e62553aeffffffff0fcd555db84b9d5e5d961c33bd09d992dda0af469573309349831d31522ca01a01000000fdfe00004830450221009f868d47c822a38532be049aee80985d2b5ca346c40fe88c4df0660c382e2f630220379f8461a21f489a7d2d003f628100c682ebe97b14c41bd4a9933a704e69f83e01483045022100f7b9646f8b9245a16da7ba35c18fce2996be47eac8611bce6299407524428a0302204e72f1f65b83462f6d6f6eb7f9066e05a3209ba73375588b5d601745a4127a92014c69522103bf2ed6cb8f526aa24684e72082840354f2a5a770c4969063f3a699192a5d5a3a2103def4ece3dcfa8510b0374e0ce9aea6ace1aae879fea963bbdcee8175e12abaae2103e6c64838e02af880d3daa7b24087fe2fb153b725053ad652940137affa3fec7e53aeffffffffc98f05522a4fec76e914ef786ce112756e06a11970d33afce914e82c218ac2a001000000fdfd0000473044022014d9105294b8366a921a768bfb5b2a69eb799c64e3ab18d44474f459cda6e50902206d390ab85206fac3e29287b712a98dd33dead71f69426a82eebf61c58490aecf01483045022100fdc7c48939ab5b68d38a79763e53dc4a522bc3d93a04234b0ec8ec861ec59bef02206579909f5ad874911799d0f5a284303632b3ac07eb1e1d09b6f48923f861ddc2014c69522103072740ad2888a0f4923f12f17f3f93b3538d4439193a36a688d717c63e9b83c3210368b3376fff0a5fe23a1d7a5d568d2fd859087dbf5213fa46193cf77057cd328c2103c385c45cdf1bfc28afc1bd75a3d66b88a1274e613288367abdd303cbbd46e62553aeffffffff020c3e9c00000000001976a914a280f8442ea63358da2e3c47c9f0589f8f5124cc88ac5eec0a000000000017a91467bc16e19fd27fcc32db8cd21cd5224ad4a6cb738700000000", "vin": [{"sequence": 4294967295, "scriptSig": {"hex": "0047304402205cf43c2cbbf752690f541f9958e0e81ead6f9ca95a4bb760d69a620dac0f3f91022046b9ba3fb6c4337b29e6a95830d6beb880b2d21e931d308a19065f387027902d014730440220013aebd2b949754b3e50b661c35bd088ad41f26dfad66d5d40e408246dd35f69022029fcd03de8ae600d010cecc657a4fb02045443675f490db4fdf04d643c9d6601014c695221028a89b81fec9b757a31e63a6f994060d41ff80189fa1e3c607d557922261347182102afc2c5191799abbfe043747a049d213fa57ba0a72706aeaca3f70984e7b6fa472102dea969c25615e02cd8922503d9db832b67eab3a5d94f0109ab302a1b756552b653ae", "asm": "0 304402205cf43c2cbbf752690f541f9958e0e81ead6f9ca95a4bb760d69a620dac0f3f91022046b9ba3fb6c4337b29e6a95830d6beb880b2d21e931d308a19065f387027902d[ALL] 30440220013aebd2b949754b3e50b661c35bd088ad41f26dfad66d5d40e408246dd35f69022029fcd03de8ae600d010cecc657a4fb02045443675f490db4fdf04d643c9d6601[ALL] 5221028a89b81fec9b757a31e63a6f994060d41ff80189fa1e3c607d557922261347182102afc2c5191799abbfe043747a049d213fa57ba0a72706aeaca3f70984e7b6fa472102dea969c25615e02cd8922503d9db832b67eab3a5d94f0109ab302a1b756552b653ae"}, "vout": 1, "txid": "118addd2b5f29efd522df171f5fdf3f33505eccbd6a59e65d9f8ba5aa63d0183"}, {"sequence": 4294967295, "scriptSig": {"hex": "004730440220577d4f1f10967122ec4e5405dd6f89afe00f0c2168e20a0cb58a0195393ebe45022035972d21fcd623bdf41a6e59aa85eabed15fae9e74cb51a5ca5e48d9d865f21a01483045022100d48d846c0c65e06188dc9e7d476b3941cf13484b6da44ed2caba44d7c680c1aa02207181a11c647b11527bec1f8ab5faf3eb57988ff9a791307ef540dd6e8e608b1d014c69522103072740ad2888a0f4923f12f17f3f93b3538d4439193a36a688d717c63e9b83c3210368b3376fff0a5fe23a1d7a5d568d2fd859087dbf5213fa46193cf77057cd328c2103c385c45cdf1bfc28afc1bd75a3d66b88a1274e613288367abdd303cbbd46e62553ae", "asm": "0 30440220577d4f1f10967122ec4e5405dd6f89afe00f0c2168e20a0cb58a0195393ebe45022035972d21fcd623bdf41a6e59aa85eabed15fae9e74cb51a5ca5e48d9d865f21a[ALL] 3045022100d48d846c0c65e06188dc9e7d476b3941cf13484b6da44ed2caba44d7c680c1aa02207181a11c647b11527bec1f8ab5faf3eb57988ff9a791307ef540dd6e8e608b1d[ALL] 522103072740ad2888a0f4923f12f17f3f93b3538d4439193a36a688d717c63e9b83c3210368b3376fff0a5fe23a1d7a5d568d2fd859087dbf5213fa46193cf77057cd328c2103c385c45cdf1bfc28afc1bd75a3d66b88a1274e613288367abdd303cbbd46e62553ae"}, "vout": 0, "txid": "121fe63a5dd5f4d656ac7cf45d15c4fba1a60340bbcea22c06378ee8f628d660"}, {"sequence": 4294967295, "scriptSig": {"hex": "00483045022100f1d04986062d2719db6a0e9b6a0f9898982e085524de9f6e6bd865afdc8ed48902200c38d91a148ea14916068330fbb40e1492423c0ea846eafbef8fedb51738d8fd0148304502210092ebed3ea37898a998b10029d77d5a1eaa425e11fba1bed9cc6a0cdbb16875c502203b9b3587736e4cb7ff23d4abfe7842c1211b783b4d17026b2dc41d43ddcf6527014c69522103072740ad2888a0f4923f12f17f3f93b3538d4439193a36a688d717c63e9b83c3210368b3376fff0a5fe23a1d7a5d568d2fd859087dbf5213fa46193cf77057cd328c2103c385c45cdf1bfc28afc1bd75a3d66b88a1274e613288367abdd303cbbd46e62553ae", "asm": "0 3045022100f1d04986062d2719db6a0e9b6a0f9898982e085524de9f6e6bd865afdc8ed48902200c38d91a148ea14916068330fbb40e1492423c0ea846eafbef8fedb51738d8fd[ALL] 304502210092ebed3ea37898a998b10029d77d5a1eaa425e11fba1bed9cc6a0cdbb16875c502203b9b3587736e4cb7ff23d4abfe7842c1211b783b4d17026b2dc41d43ddcf6527[ALL] 522103072740ad2888a0f4923f12f17f3f93b3538d4439193a36a688d717c63e9b83c3210368b3376fff0a5fe23a1d7a5d568d2fd859087dbf5213fa46193cf77057cd328c2103c385c45cdf1bfc28afc1bd75a3d66b88a1274e613288367abdd303cbbd46e62553ae"}, "vout": 1, "txid": "44d12ed3a4a2911415398350112ab41c227b1b65fd26f7b87d4477aa06f98086"}, {"sequence": 4294967295, "scriptSig": {"hex": "004830450221009f868d47c822a38532be049aee80985d2b5ca346c40fe88c4df0660c382e2f630220379f8461a21f489a7d2d003f628100c682ebe97b14c41bd4a9933a704e69f83e01483045022100f7b9646f8b9245a16da7ba35c18fce2996be47eac8611bce6299407524428a0302204e72f1f65b83462f6d6f6eb7f9066e05a3209ba73375588b5d601745a4127a92014c69522103bf2ed6cb8f526aa24684e72082840354f2a5a770c4969063f3a699192a5d5a3a2103def4ece3dcfa8510b0374e0ce9aea6ace1aae879fea963bbdcee8175e12abaae2103e6c64838e02af880d3daa7b24087fe2fb153b725053ad652940137affa3fec7e53ae", "asm": "0 30450221009f868d47c822a38532be049aee80985d2b5ca346c40fe88c4df0660c382e2f630220379f8461a21f489a7d2d003f628100c682ebe97b14c41bd4a9933a704e69f83e[ALL] 3045022100f7b9646f8b9245a16da7ba35c18fce2996be47eac8611bce6299407524428a0302204e72f1f65b83462f6d6f6eb7f9066e05a3209ba73375588b5d601745a4127a92[ALL] 522103bf2ed6cb8f526aa24684e72082840354f2a5a770c4969063f3a699192a5d5a3a2103def4ece3dcfa8510b0374e0ce9aea6ace1aae879fea963bbdcee8175e12abaae2103e6c64838e02af880d3daa7b24087fe2fb153b725053ad652940137affa3fec7e53ae"}, "vout": 1, "txid": "1aa02c52311d83499330739546afa0dd92d909bd331c965d5e9d4bb85d55cd0f"}, {"sequence": 4294967295, "scriptSig": {"hex": "00473044022014d9105294b8366a921a768bfb5b2a69eb799c64e3ab18d44474f459cda6e50902206d390ab85206fac3e29287b712a98dd33dead71f69426a82eebf61c58490aecf01483045022100fdc7c48939ab5b68d38a79763e53dc4a522bc3d93a04234b0ec8ec861ec59bef02206579909f5ad874911799d0f5a284303632b3ac07eb1e1d09b6f48923f861ddc2014c69522103072740ad2888a0f4923f12f17f3f93b3538d4439193a36a688d717c63e9b83c3210368b3376fff0a5fe23a1d7a5d568d2fd859087dbf5213fa46193cf77057cd328c2103c385c45cdf1bfc28afc1bd75a3d66b88a1274e613288367abdd303cbbd46e62553ae", "asm": "0 3044022014d9105294b8366a921a768bfb5b2a69eb799c64e3ab18d44474f459cda6e50902206d390ab85206fac3e29287b712a98dd33dead71f69426a82eebf61c58490aecf[ALL] 3045022100fdc7c48939ab5b68d38a79763e53dc4a522bc3d93a04234b0ec8ec861ec59bef02206579909f5ad874911799d0f5a284303632b3ac07eb1e1d09b6f48923f861ddc2[ALL] 522103072740ad2888a0f4923f12f17f3f93b3538d4439193a36a688d717c63e9b83c3210368b3376fff0a5fe23a1d7a5d568d2fd859087dbf5213fa46193cf77057cd328c2103c385c45cdf1bfc28afc1bd75a3d66b88a1274e613288367abdd303cbbd46e62553ae"}, "vout": 1, "txid": "a0c28a212ce814e9fc3ad37019a1066e7512e16c78ef14e976ec4f2a52058fc9"}], "txid": "0e3ab086194ddf9a3b2c4f6fa7632a8c5be38852bf44b293a5da401215856bbb", "blocktime": 1537876114, "version": 1, "confirmations": 11459, "time": 1537876114, "locktime": 0, "vsize": 1555, "size": 1555}