{"hash": "0e3aa94d49769714745d752df872330e57ceb85a83edf5a051373fafb31a09df", "blockhash": "0000000000000000001cda96e906b7601b7a6fb1a3b62bca570a9e5d8f4b3de1", "vout": [{"scriptPubKey": {"reqSigs": 1, "hex": "76a914ffe953dac25b1185acd286f6f5f4393e6254d58388ac", "addresses": ["1QL8poNuBCWLpLzvvy2RPcnhUytvvTGbgE"], "asm": "OP_DUP OP_HASH160 ffe953dac25b1185acd286f6f5f4393e6254d583 OP_EQUALVERIFY OP_CHECKSIG", "type": "pubkeyhash"}, "value": 0.04702089, "n": 0}], "hex": "0100000001fb60ae4c00150891e63c3a49fe39b01fdd2910d42d7f8af833c64f8c280171ee010000006a4730440220757d821dca7ca3c4d43cd1ed31c5e6f6a527727f1e18e58a2c6288870a4579e9022002cd52923111e942e97dcd4a82b20230d89dbdb58726dc376b8c9f100f173ce301210363a4be4d7c13c12a83c84038dc998bb1d04be46d3fc67b3a8c4a3eceb2942282ffffffff0189bf4700000000001976a914ffe953dac25b1185acd286f6f5f4393e6254d58388ac00000000", "vin": [{"sequence": 4294967295, "scriptSig": {"hex": "4730440220757d821dca7ca3c4d43cd1ed31c5e6f6a527727f1e18e58a2c6288870a4579e9022002cd52923111e942e97dcd4a82b20230d89dbdb58726dc376b8c9f100f173ce301210363a4be4d7c13c12a83c84038dc998bb1d04be46d3fc67b3a8c4a3eceb2942282", "asm": "30440220757d821dca7ca3c4d43cd1ed31c5e6f6a527727f1e18e58a2c6288870a4579e9022002cd52923111e942e97dcd4a82b20230d89dbdb58726dc376b8c9f100f173ce3[ALL] 0363a4be4d7c13c12a83c84038dc998bb1d04be46d3fc67b3a8c4a3eceb2942282"}, "vout": 1, "txid": "ee7101288c4fc633f88a7f2dd41029dd1fb039fe493a3ce6910815004cae60fb"}], "txid": "0e3aa94d49769714745d752df872330e57ceb85a83edf5a051373fafb31a09df", "blocktime": 1537873282, "version": 1, "confirmations": 11484, "time": 1537873282, "locktime": 0, "vsize": 191, "size": 191}