{"hash": "7fb197962d9d2f469718b35af342f9dede6927c4c501513f7e28cf2a1082f741", "blockhash": "0000000000000000000e13cef7c366c0283d82e591d1acd082e914b08063cdf1", "vout": [{"scriptPubKey": {"reqSigs": 1, "hex": "76a914989ed7a09524089a66a0f9119aec7f90cba53e3988ac", "addresses": ["1EuyziRu6QhUSj7poT5SXM82fqGK8nmvS3"], "asm": "OP_DUP OP_HASH160 989ed7a09524089a66a0f9119aec7f90cba53e39 OP_EQUALVERIFY OP_CHECKSIG", "type": "pubkeyhash"}, "value": 0.0017424, "n": 0}, {"scriptPubKey": {"reqSigs": 1, "hex": "a9141ea31ee0c58fc1e57f2ef8e550e150b03b4c5f3c87", "addresses": ["34V1c7nhAV6Grt6hexfHHt451X2fbhSDyw"], "asm": "OP_HASH160 1ea31ee0c58fc1e57f2ef8e550e150b03b4c5f3c OP_EQUAL", "type": "scripthash"}, "value": 0.00196596, "n": 1}], "hex": "01000000000101452f4ee16ae14aff5bf289a249c3e0a6b880da6cdc0abf58794fc82d2f711b500100000023220020b5afc8940ff0cfaa9ea8bc432325ad3bebb7d9d80d862f4a9d71599834a1ebedffffffff02a0a80200000000001976a914989ed7a09524089a66a0f9119aec7f90cba53e3988acf4ff02000000000017a9141ea31ee0c58fc1e57f2ef8e550e150b03b4c5f3c870400473044022018b9f73f662731d0c16c0547d77f013b67dcfc2e818af80df8994aed5305566d02202240bd5ebd8d1bb7953f6fcc8007e52dc9a9598938d4f10e85856f93664b2b480147304402200f2863ddd82cc847a30cf8c5848b2849d7e3b3456bf79c079a5582d84829f95502205a3bfa2416c0030dfa8fd1b8ce8152233532512ef059b628a9d210af97c81f9b01475221033f1a1e9827ea969509a10cae1794b1ae9f7e2087f09823b9ee1bd9d63f8e7fe82103871fc2ca08e6950b38867e8e6a0e94ee625223d3aa0df5c65f414c6d784467e252ae00000000", "vin": [{"txinwitness": ["", "3044022018b9f73f662731d0c16c0547d77f013b67dcfc2e818af80df8994aed5305566d02202240bd5ebd8d1bb7953f6fcc8007e52dc9a9598938d4f10e85856f93664b2b4801", "304402200f2863ddd82cc847a30cf8c5848b2849d7e3b3456bf79c079a5582d84829f95502205a3bfa2416c0030dfa8fd1b8ce8152233532512ef059b628a9d210af97c81f9b01", "5221033f1a1e9827ea969509a10cae1794b1ae9f7e2087f09823b9ee1bd9d63f8e7fe82103871fc2ca08e6950b38867e8e6a0e94ee625223d3aa0df5c65f414c6d784467e252ae"], "sequence": 4294967295, "scriptSig": {"hex": "220020b5afc8940ff0cfaa9ea8bc432325ad3bebb7d9d80d862f4a9d71599834a1ebed", "asm": "0020b5afc8940ff0cfaa9ea8bc432325ad3bebb7d9d80d862f4a9d71599834a1ebed"}, "vout": 1, "txid": "501b712f2dc84f7958bf0adc6cda80b8a6e0c349a289f25bff4ae16ae14e2f45"}], "txid": "0e3fec6bf861f5e2e26c919bb4d01e36019e82d0291eb8fc3452e1b5965f7ff9", "blocktime": 1537871767, "version": 1, "confirmations": 11495, "time": 1537871767, "locktime": 0, "vsize": 207, "size": 372}