{"hash": "0f592496fcde93d0c514c7ccfef8ad9251d603fc5c4851f4e0259c33c85c4bcf", "blockhash": "000000000000000000022b45ed06c6f4ccd3cf7fb5ba4856ebd2e58215665228", "vout": [{"scriptPubKey": {"reqSigs": 1, "hex": "76a914725ea79b81c81fed463c4f3dc3856cfa7e57e34888ac", "addresses": ["1BRjRbS85SbgQcBPagdN3YmB7Ho4SCzahL"], "asm": "OP_DUP OP_HASH160 725ea79b81c81fed463c4f3dc3856cfa7e57e348 OP_EQUALVERIFY OP_CHECKSIG", "type": "pubkeyhash"}, "value": 1.55, "n": 0}, {"scriptPubKey": {"reqSigs": 1, "hex": "00149e2f87cec205f6afafd094501ce295b1004c15bd", "addresses": ["bc1qnchc0nkzqhm2lt7sj3gpec54kyqyc9daw92ptc"], "asm": "0 9e2f87cec205f6afafd094501ce295b1004c15bd", "type": "witness_v0_keyhash"}, "value": 0.0142253, "n": 1}], "hex": "0100000000010103f0f392004b798770b2f7dc2c9861185accef223e74a200493ff4757c7fa9100000000000ffffffff02c01c3d09000000001976a914725ea79b81c81fed463c4f3dc3856cfa7e57e34888acc2b41500000000001600149e2f87cec205f6afafd094501ce295b1004c15bd024730440220017f1df885f531ab9f662d3e514c1bf05ff0f6487c9882f94274ee777816fc6202205972ccd02b5c26cc8bca9e01e12f21815540ea3b1a75858fd016fd722e1873800121024f05c2667e257969b2df046108483bdc1ce4b42cd7264ebd6eb5d088bd1ccefb00000000", "vin": [{"txinwitness": ["30440220017f1df885f531ab9f662d3e514c1bf05ff0f6487c9882f94274ee777816fc6202205972ccd02b5c26cc8bca9e01e12f21815540ea3b1a75858fd016fd722e18738001", "024f05c2667e257969b2df046108483bdc1ce4b42cd7264ebd6eb5d088bd1ccefb"], "sequence": 4294967295, "scriptSig": {"hex": "", "asm": ""}, "vout": 0, "txid": "10a97f7c75f43f4900a2743e22efcc5a1861982cdcf7b27087794b0092f3f003"}], "txid": "0e41d69bb809b33fcde674145f48b6c6517fc8884b77fd7d7a1855c0d3fb5092", "blocktime": 1537869901, "version": 1, "confirmations": 11523, "time": 1537869901, "locktime": 0, "vsize": 144, "size": 225}