{"hash": "f10ae545966cb16fbfd9b9ddc9755453c58c7bee8544039143b26cb2816d0ceb", "blockhash": "0000000000000000000e13cef7c366c0283d82e591d1acd082e914b08063cdf1", "vout": [{"scriptPubKey": {"reqSigs": 1, "hex": "76a914b163e9ed18602a64741d078f0ec53a0050e6d91088ac", "addresses": ["1HAxJ5uxYwXyzHXTG9hdtVSdkhCuKE14z1"], "asm": "OP_DUP OP_HASH160 b163e9ed18602a64741d078f0ec53a0050e6d910 OP_EQUALVERIFY OP_CHECKSIG", "type": "pubkeyhash"}, "value": 0.0046346, "n": 0}, {"scriptPubKey": {"reqSigs": 1, "hex": "a914246337e3027364bfef1180c65582cfd2ee10095387", "addresses": ["351R7Fwv6L1WXC1GFRTU16DDzPyWABp4GH"], "asm": "OP_HASH160 246337e3027364bfef1180c65582cfd2ee100953 OP_EQUAL", "type": "scripthash"}, "value": 0.01003492, "n": 1}], "hex": "020000000001025f156731788b03bae87e8da123fd00ca2bb4a7965233fb8e74e16c5cfee700a200000000171600142a5be51360631d1f226b5253fa3b4d66aaba5bb7feffffff67f978452ef133bed1a3fb115185862ca75f0d28a1a8addf04f6d4f352ffb26f0000000017160014a363351f846219809f62c6bc1915755d3a74a7cbfeffffff0264120700000000001976a914b163e9ed18602a64741d078f0ec53a0050e6d91088ace44f0f000000000017a914246337e3027364bfef1180c65582cfd2ee10095387024730440220106ba3682868616485a81e01e729dc0ca6aa22bf0149c74a6487065bba3d45e7022044018fc6545ce9c289e6f0e3338cbf9875122ec5fe1d988018bd10283c0e549b0121037b81036309ab6e5c8e0f2a1fad06fa37db2736a279a931ba6a60932560ea20a00248304502210086e44468a9398865e1734787fb922b6f35140a1adbac08637e0359ee8f7c495502202d03e2d1074adc89f209f1554d7999fd965c1277f97c4aedac1b173598ccb541012103944592f7ae857b39b29ca2812e54fc1e89ca5132db1ee69f33b0d428daf0fe6710490800", "vin": [{"txinwitness": ["30440220106ba3682868616485a81e01e729dc0ca6aa22bf0149c74a6487065bba3d45e7022044018fc6545ce9c289e6f0e3338cbf9875122ec5fe1d988018bd10283c0e549b01", "037b81036309ab6e5c8e0f2a1fad06fa37db2736a279a931ba6a60932560ea20a0"], "sequence": 4294967294, "scriptSig": {"hex": "1600142a5be51360631d1f226b5253fa3b4d66aaba5bb7", "asm": "00142a5be51360631d1f226b5253fa3b4d66aaba5bb7"}, "vout": 0, "txid": "a200e7fe5c6ce1748efb335296a7b42bca00fd23a18d7ee8ba038b783167155f"}, {"txinwitness": ["304502210086e44468a9398865e1734787fb922b6f35140a1adbac08637e0359ee8f7c495502202d03e2d1074adc89f209f1554d7999fd965c1277f97c4aedac1b173598ccb54101", "03944592f7ae857b39b29ca2812e54fc1e89ca5132db1ee69f33b0d428daf0fe67"], "sequence": 4294967294, "scriptSig": {"hex": "160014a363351f846219809f62c6bc1915755d3a74a7cb", "asm": "0014a363351f846219809f62c6bc1915755d3a74a7cb"}, "vout": 0, "txid": "6fb2ff52f3d4f604dfada8a1280d5fa72c86855111fba3d1be33f12e4578f967"}], "txid": "0e43ba746491d475931ed158572f478e3e423373a4d673d1a98ac60f2b08bc3b", "blocktime": 1537871767, "version": 2, "confirmations": 11495, "time": 1537871767, "locktime": 542992, "vsize": 259, "size": 421}