{"hash": "c26f0ea523039eff3952d2b18b0360b38cfb6df8eb8815f45c34e84d23b3e2fd", "blockhash": "00000000000000000024a2167bbff67b0be802c0b01cdd79e6331c2be6459f87", "vout": [{"scriptPubKey": {"reqSigs": 1, "hex": "76a914dfb2daf4d7d0eb30df880b994e7111b1d8f9679f88ac", "addresses": ["1MPows1Phzdb4c1npv9qg3pAnPxs7mEZam"], "asm": "OP_DUP OP_HASH160 dfb2daf4d7d0eb30df880b994e7111b1d8f9679f OP_EQUALVERIFY OP_CHECKSIG", "type": "pubkeyhash"}, "value": 0.86925, "n": 0}, {"scriptPubKey": {"reqSigs": 1, "hex": "00144eb8bb846145490bd4d3ad42830cfb5939d00394", "addresses": ["bc1qf6uthprpg4ysh4xn44pgxr8mtyuaqqu5ahgf36"], "asm": "0 4eb8bb846145490bd4d3ad42830cfb5939d00394", "type": "witness_v0_keyhash"}, "value": 0.01908395, "n": 1}], "hex": "0100000000010100e3786467de17c0b8a6e3da8b06d763f684f666a24ead4227102fa6322bc7480100000000ffffffff02c85e2e05000000001976a914dfb2daf4d7d0eb30df880b994e7111b1d8f9679f88acab1e1d00000000001600144eb8bb846145490bd4d3ad42830cfb5939d0039402483045022100c88c5cf830a05381c36928f0a41586619cc5209684795ba9ed40cfc3e759cd450220622afb62bd46676d86eb16e371de145bd498db3f5a2196aaccad838f4c18e7ba0121030dd93703b6453ae1288457dcf44f13f63eedf7049a0a6a7b800ed240831ad42a00000000", "vin": [{"txinwitness": ["3045022100c88c5cf830a05381c36928f0a41586619cc5209684795ba9ed40cfc3e759cd450220622afb62bd46676d86eb16e371de145bd498db3f5a2196aaccad838f4c18e7ba01", "030dd93703b6453ae1288457dcf44f13f63eedf7049a0a6a7b800ed240831ad42a"], "sequence": 4294967295, "scriptSig": {"hex": "", "asm": ""}, "vout": 1, "txid": "48c72b32a62f102742ad4ea266f684f663d7068bdae3a6b8c017de676478e300"}], "txid": "0e4a6532113968af1cfb64f521eb9bed7f3a339cb9a7b753b6951ef74b03bbc7", "blocktime": 1537870564, "version": 1, "confirmations": 11515, "time": 1537870564, "locktime": 0, "vsize": 144, "size": 226}