{"hash": "f212eb4130a6ae9f308be9cb8f0e767aa5fa6fb1ce58f404ae97b0d5937955c4", "blockhash": "0000000000000000000baef3f32e3676a92c3b2e5da21b426e4f302fc371ce76", "vout": [{"scriptPubKey": {"reqSigs": 1, "hex": "a914ae0db146a0c4ca40a1f94214922e2caf5ac1cc5f87", "addresses": ["3HZKuHvvvVGDMGYi8hteS7xfCZ6A2Leg6R"], "asm": "OP_HASH160 ae0db146a0c4ca40a1f94214922e2caf5ac1cc5f OP_EQUAL", "type": "scripthash"}, "value": 0.018861, "n": 0}, {"scriptPubKey": {"reqSigs": 1, "hex": "a914dee0a1cc9f055700143e0f4ecee53180ab3530dc87", "addresses": ["3N1V2qWA5hpScEmS72pMooYRmXUiLmwPQQ"], "asm": "OP_HASH160 dee0a1cc9f055700143e0f4ecee53180ab3530dc OP_EQUAL", "type": "scripthash"}, "value": 0.34464829, "n": 1}], "hex": "020000000001010451f9ae67690e6bbb3291c79aab05ac8c5d72ff85a402e3034d7474cfb54c560100000017160014cb5dbe423de4d42b6425c6921084c6197a5d2937ffffffff0294c71c000000000017a914ae0db146a0c4ca40a1f94214922e2caf5ac1cc5f873de40d020000000017a914dee0a1cc9f055700143e0f4ecee53180ab3530dc8702483045022100db249d6e2247993fc923196b1b04c732dc35ee9219887ec806ab370999530b38022049aba3103834fc1086694f3b104866d5f0e29107cb423cc88149813f87bed98d012102acecad485eda786cbe0422823b7594aea6854abb5ec85e267f1c4b87f3f758f700000000", "vin": [{"txinwitness": ["3045022100db249d6e2247993fc923196b1b04c732dc35ee9219887ec806ab370999530b38022049aba3103834fc1086694f3b104866d5f0e29107cb423cc88149813f87bed98d01", "02acecad485eda786cbe0422823b7594aea6854abb5ec85e267f1c4b87f3f758f7"], "sequence": 4294967295, "scriptSig": {"hex": "160014cb5dbe423de4d42b6425c6921084c6197a5d2937", "asm": "0014cb5dbe423de4d42b6425c6921084c6197a5d2937"}, "vout": 1, "txid": "564cb5cf74744d03e302a485ff725d8cac05ab9ac79132bb6b0e6967aef95104"}], "txid": "0e4d3eb90790d43de075c0b2aa8ada455b631ff1fb102a71a2b8fbf171418750", "blocktime": 1537876114, "version": 2, "confirmations": 11459, "time": 1537876114, "locktime": 0, "vsize": 166, "size": 248}