{"hash": "0e527189f9937b960f7d39bf0abd5b9352c7b7c3f9a2234d51a9558b15894322", "blockhash": "0000000000000000001f0ddff1eddb255c1121bcd4da4f1bc9a0da00cae72433", "vout": [{"scriptPubKey": {"reqSigs": 1, "hex": "76a914d243e6abb9a60fbff430b421d2df4b7d59ec186088ac", "addresses": ["1LAnF8h3qMGx3TSwNUHVneBZUEpwE4gu3D"], "asm": "OP_DUP OP_HASH160 d243e6abb9a60fbff430b421d2df4b7d59ec1860 OP_EQUALVERIFY OP_CHECKSIG", "type": "pubkeyhash"}, "value": 0.00076972, "n": 0}, {"scriptPubKey": {"reqSigs": 1, "hex": "76a9143851f34d13937b673a7d24a1950bb5b21ce94af388ac", "addresses": ["168o1kqNquEJeR9vosUB5fw4eAwcVAgh8P"], "asm": "OP_DUP OP_HASH160 3851f34d13937b673a7d24a1950bb5b21ce94af3 OP_EQUALVERIFY OP_CHECKSIG", "type": "pubkeyhash"}, "value": 5.46e-06, "n": 1}, {"scriptPubKey": {"type": "nulldata", "hex": "6a146f6d6e69000000000000001f0000001010b87200", "asm": "OP_RETURN 6f6d6e69000000000000001f0000001010b87200"}, "value": 0.0, "n": 2}], "hex": "010000000225eace78b39917d8f35abd57e99a60c5b94f3fcea57c55c4aeebf0b8fd172ba6020000006b483045022100cae8adfc4e20b45082c1383030f60ed1093612673eb98256b067925b32304be502202c71ff7d566c5b2a4b43a7f527517625e4973817e993fcf21b8d007e34222462012103c501335fe3963daefff5a58ce4042c249101954b079860a2cab62aa2c04c6112ffffffff707d50332cf50f9be6fa00bb545d6567284664b2ebf7e20e8ad422703b4cd323000000006b483045022100b1750d12593dec684dec928fbef4edc92140de9069c5b3ec1a77d519d707f972022018eaba891f5078810b577ce09a9a295c7b0a415adcb23869be4d5717d9bb954e01210271977291b74f1f5f5c42157e8aae804664eaaeccfd097918450d37f28fb94d77ffffffff03ac2c0100000000001976a914d243e6abb9a60fbff430b421d2df4b7d59ec186088ac22020000000000001976a9143851f34d13937b673a7d24a1950bb5b21ce94af388ac0000000000000000166a146f6d6e69000000000000001f0000001010b8720000000000", "vin": [{"sequence": 4294967295, "scriptSig": {"hex": "483045022100cae8adfc4e20b45082c1383030f60ed1093612673eb98256b067925b32304be502202c71ff7d566c5b2a4b43a7f527517625e4973817e993fcf21b8d007e34222462012103c501335fe3963daefff5a58ce4042c249101954b079860a2cab62aa2c04c6112", "asm": "3045022100cae8adfc4e20b45082c1383030f60ed1093612673eb98256b067925b32304be502202c71ff7d566c5b2a4b43a7f527517625e4973817e993fcf21b8d007e34222462[ALL] 03c501335fe3963daefff5a58ce4042c249101954b079860a2cab62aa2c04c6112"}, "vout": 2, "txid": "a62b17fdb8f0ebaec4557ca5ce3f4fb9c5609ae957bd5af3d81799b378ceea25"}, {"sequence": 4294967295, "scriptSig": {"hex": "483045022100b1750d12593dec684dec928fbef4edc92140de9069c5b3ec1a77d519d707f972022018eaba891f5078810b577ce09a9a295c7b0a415adcb23869be4d5717d9bb954e01210271977291b74f1f5f5c42157e8aae804664eaaeccfd097918450d37f28fb94d77", "asm": "3045022100b1750d12593dec684dec928fbef4edc92140de9069c5b3ec1a77d519d707f972022018eaba891f5078810b577ce09a9a295c7b0a415adcb23869be4d5717d9bb954e[ALL] 0271977291b74f1f5f5c42157e8aae804664eaaeccfd097918450d37f28fb94d77"}, "vout": 0, "txid": "23d34c3b7022d48a0ee2f7ebb264462867655d54bb00fae69b0ff52c33507d70"}], "txid": "0e527189f9937b960f7d39bf0abd5b9352c7b7c3f9a2234d51a9558b15894322", "blocktime": 1537872018, "version": 1, "confirmations": 11489, "time": 1537872018, "locktime": 0, "vsize": 405, "size": 405}