{"hash": "0e57969b2df8fa89cd938770e3608b47b52885454764d9735844d32a64345c8f", "blockhash": "0000000000000000001cda96e906b7601b7a6fb1a3b62bca570a9e5d8f4b3de1", "vout": [{"scriptPubKey": {"reqSigs": 1, "hex": "00142057db08f78e42dc2b6cd79577789bc1d5c8ead9", "addresses": ["bc1qyptakz8h3epdc2mv672hw7ymc82u36kejr3wgg"], "asm": "0 2057db08f78e42dc2b6cd79577789bc1d5c8ead9", "type": "witness_v0_keyhash"}, "value": 1.273e-05, "n": 0}, {"scriptPubKey": {"reqSigs": 1, "hex": "a9147ee4a8c263e41a8e7920fa02e09be0aa70e6615a87", "addresses": ["3DFxzEbeDY6mmS18rVXkNizBkp321A42KA"], "asm": "OP_HASH160 7ee4a8c263e41a8e7920fa02e09be0aa70e6615a OP_EQUAL", "type": "scripthash"}, "value": 0.00286584, "n": 1}], "hex": "01000000015d0c81f12093aef0849a8a3b331e7123ecab4a1404c3fab3a1d65683e5d1c529300000006b483045022100e9cc99ba6a29de9368ea087d5984e3aabff2b056971dfaa8384a2b3eb80c6f2002206ccda71b11d14ab092eed9a379ea04be673165271cd78b0de8ba0eda5446bfc0012102641d8b59038ea5235250b374010c435357bef7aaf1c5a64bdb7af41540761b6effffffff02f9040000000000001600142057db08f78e42dc2b6cd79577789bc1d5c8ead9785f04000000000017a9147ee4a8c263e41a8e7920fa02e09be0aa70e6615a8700000000", "vin": [{"sequence": 4294967295, "scriptSig": {"hex": "483045022100e9cc99ba6a29de9368ea087d5984e3aabff2b056971dfaa8384a2b3eb80c6f2002206ccda71b11d14ab092eed9a379ea04be673165271cd78b0de8ba0eda5446bfc0012102641d8b59038ea5235250b374010c435357bef7aaf1c5a64bdb7af41540761b6e", "asm": "3045022100e9cc99ba6a29de9368ea087d5984e3aabff2b056971dfaa8384a2b3eb80c6f2002206ccda71b11d14ab092eed9a379ea04be673165271cd78b0de8ba0eda5446bfc0[ALL] 02641d8b59038ea5235250b374010c435357bef7aaf1c5a64bdb7af41540761b6e"}, "vout": 48, "txid": "29c5d1e58356d6a1b3fac304144aabec23711e333b8a9a84f0ae9320f1810c5d"}], "txid": "0e57969b2df8fa89cd938770e3608b47b52885454764d9735844d32a64345c8f", "blocktime": 1537873282, "version": 1, "confirmations": 11484, "time": 1537873282, "locktime": 0, "vsize": 221, "size": 221}