{"hash": "0e5989ca88318d29af13eab7a2fb8572ff5b747579af80d55c3202fdb64a96c2", "blockhash": "00000000000000000024a2167bbff67b0be802c0b01cdd79e6331c2be6459f87", "vout": [{"scriptPubKey": {"reqSigs": 1, "hex": "76a914a18e0071ff600af20b13e42ed1141cbefbf2054588ac", "addresses": ["1FjDuLdoWXiUA5n6pGMc9MEhw7nP8VmC7R"], "asm": "OP_DUP OP_HASH160 a18e0071ff600af20b13e42ed1141cbefbf20545 OP_EQUALVERIFY OP_CHECKSIG", "type": "pubkeyhash"}, "value": 0.027785, "n": 0}, {"scriptPubKey": {"reqSigs": 1, "hex": "76a9140712bb83e58763228fc64beb3f8c00d1207ccf1b88ac", "addresses": ["1eQAu7LCWZYgJwtQwSmWpJ1Zv2pVJqrfM"], "asm": "OP_DUP OP_HASH160 0712bb83e58763228fc64beb3f8c00d1207ccf1b OP_EQUALVERIFY OP_CHECKSIG", "type": "pubkeyhash"}, "value": 0.15, "n": 1}], "hex": "0100000001cbfd6c35939adcb0c8133149b0287941460c1d79337b207ba4c24bbc9ee6f7ea000000006a473044022066c733a148245ac01e7185571091a3cc0feb19301e0f0bce3ced311678e5315f02206053f6b77f181b47c8c8759f6fa78b2e20a97fbfad804e9a4684e36976b39632012103d1ec2dad4d9f475ddf954a7e8a51ecd42a811d4a3e9ebd21ed22ea12e70dbaedffffffff0284652a00000000001976a914a18e0071ff600af20b13e42ed1141cbefbf2054588acc0e1e400000000001976a9140712bb83e58763228fc64beb3f8c00d1207ccf1b88ac00000000", "vin": [{"sequence": 4294967295, "scriptSig": {"hex": "473044022066c733a148245ac01e7185571091a3cc0feb19301e0f0bce3ced311678e5315f02206053f6b77f181b47c8c8759f6fa78b2e20a97fbfad804e9a4684e36976b39632012103d1ec2dad4d9f475ddf954a7e8a51ecd42a811d4a3e9ebd21ed22ea12e70dbaed", "asm": "3044022066c733a148245ac01e7185571091a3cc0feb19301e0f0bce3ced311678e5315f02206053f6b77f181b47c8c8759f6fa78b2e20a97fbfad804e9a4684e36976b39632[ALL] 03d1ec2dad4d9f475ddf954a7e8a51ecd42a811d4a3e9ebd21ed22ea12e70dbaed"}, "vout": 0, "txid": "eaf7e69ebc4bc2a47b207b33791d0c46417928b0493113c8b0dc9a93356cfdcb"}], "txid": "0e5989ca88318d29af13eab7a2fb8572ff5b747579af80d55c3202fdb64a96c2", "blocktime": 1537870564, "version": 1, "confirmations": 11515, "time": 1537870564, "locktime": 0, "vsize": 225, "size": 225}