{"hash": "9aab01aa5d8832b127a564bfc131f98e852ad48070aa3d88b27739a2085b9d52", "blockhash": "0000000000000000001cda96e906b7601b7a6fb1a3b62bca570a9e5d8f4b3de1", "vout": [{"scriptPubKey": {"reqSigs": 1, "hex": "a914384ac3c159fca89b95e9b0d6637844db10b435a987", "addresses": ["36pfL2VWfRaJjHjww4Cu8RgdoVR3zKhzPJ"], "asm": "OP_HASH160 384ac3c159fca89b95e9b0d6637844db10b435a9 OP_EQUAL", "type": "scripthash"}, "value": 0.013, "n": 0}, {"scriptPubKey": {"reqSigs": 1, "hex": "a9144200d2dc859930e3a3a80c9f7bea52b70867947c87", "addresses": ["37i1WSAV4EUGaUtoGFEVGPKd1MZcoiws99"], "asm": "OP_HASH160 4200d2dc859930e3a3a80c9f7bea52b70867947c OP_EQUAL", "type": "scripthash"}, "value": 0.02357038, "n": 1}], "hex": "01000000000102bfe7b3c0f47d755b40b9a87616b62e7356d78f90e3f395b4e2d3739e2cb87db701000000fdfd00004830450221008a8b1a77a00a28df85a27e55f03d65431d75796f23ec1c211e16ab3f20e4a13602207192408004ebec1a264ee38bf24c9a8a8da2954fa865a3c869656e16291400470147304402200537b72173399a64e2246542dd53f5c620675a0cf54b097960ca487015c6429d022040ce4bb7184173b6f228d25a9088a70a37f67812877fbdaeaf9187c0e573d7d8014c69522102f290375d01b34026846b1f0e61a9548f9c8f675e121f7e1773d4d9f4e3b382fc210390a6e1591046a2f1c1df7f8b57cc961bbc26c59910764c923d34188d26939c5b2102ad35e1d3c280a9e813e52c84c51eefc4e38d0bbf76580ac16d0dee9aba6fd1bc53aeffffffff580f662b35df34d482a9e7d57c3852ffdca0c45a1c6fe7c4fcc584529589959c6e000000232200207b9b0724b8f32931ab0d75f37f1da76c26c4998d6330f3fab84a777868f5a97effffffff0220d613000000000017a914384ac3c159fca89b95e9b0d6637844db10b435a9872ef723000000000017a9144200d2dc859930e3a3a80c9f7bea52b70867947c8700040047304402201adfe0a685abb994b0fb66324cb3e76e0a3218a2c0d78aece9604d9a0aedec6f0220108d131f48139d23fb6431cb970fb81ceb7257dd187142863dfec58ee24c7e6101473044022039fbf05ae32cba882b6194569c7e8292951117b20351ed2d4dedfc99448d29f40220351d499643766420216d07297886373db37c9804a6fb5d5bb8517931dde268dd01695221032a06845c6266c60d621b033625c2d79ef9d9f4280fa4cd764f234271ed36a93921029a62ea838041bd6a05e86fc21b272f1aa40e9a7b3fa04c7a37edde1a57a4883421031cc057e9f942f6ff06cab12992de67f3e4eae524ea714a0adb4ecb87d8a37c3753ae00000000", "vin": [{"sequence": 4294967295, "scriptSig": {"hex": "004830450221008a8b1a77a00a28df85a27e55f03d65431d75796f23ec1c211e16ab3f20e4a13602207192408004ebec1a264ee38bf24c9a8a8da2954fa865a3c869656e16291400470147304402200537b72173399a64e2246542dd53f5c620675a0cf54b097960ca487015c6429d022040ce4bb7184173b6f228d25a9088a70a37f67812877fbdaeaf9187c0e573d7d8014c69522102f290375d01b34026846b1f0e61a9548f9c8f675e121f7e1773d4d9f4e3b382fc210390a6e1591046a2f1c1df7f8b57cc961bbc26c59910764c923d34188d26939c5b2102ad35e1d3c280a9e813e52c84c51eefc4e38d0bbf76580ac16d0dee9aba6fd1bc53ae", "asm": "0 30450221008a8b1a77a00a28df85a27e55f03d65431d75796f23ec1c211e16ab3f20e4a13602207192408004ebec1a264ee38bf24c9a8a8da2954fa865a3c869656e1629140047[ALL] 304402200537b72173399a64e2246542dd53f5c620675a0cf54b097960ca487015c6429d022040ce4bb7184173b6f228d25a9088a70a37f67812877fbdaeaf9187c0e573d7d8[ALL] 522102f290375d01b34026846b1f0e61a9548f9c8f675e121f7e1773d4d9f4e3b382fc210390a6e1591046a2f1c1df7f8b57cc961bbc26c59910764c923d34188d26939c5b2102ad35e1d3c280a9e813e52c84c51eefc4e38d0bbf76580ac16d0dee9aba6fd1bc53ae"}, "vout": 1, "txid": "b77db82c9e73d3e2b495f3e3908fd756732eb61676a8b9405b757df4c0b3e7bf"}, {"txinwitness": ["", "304402201adfe0a685abb994b0fb66324cb3e76e0a3218a2c0d78aece9604d9a0aedec6f0220108d131f48139d23fb6431cb970fb81ceb7257dd187142863dfec58ee24c7e6101", "3044022039fbf05ae32cba882b6194569c7e8292951117b20351ed2d4dedfc99448d29f40220351d499643766420216d07297886373db37c9804a6fb5d5bb8517931dde268dd01", "5221032a06845c6266c60d621b033625c2d79ef9d9f4280fa4cd764f234271ed36a93921029a62ea838041bd6a05e86fc21b272f1aa40e9a7b3fa04c7a37edde1a57a4883421031cc057e9f942f6ff06cab12992de67f3e4eae524ea714a0adb4ecb87d8a37c3753ae"], "sequence": 4294967295, "scriptSig": {"hex": "2200207b9b0724b8f32931ab0d75f37f1da76c26c4998d6330f3fab84a777868f5a97e", "asm": "00207b9b0724b8f32931ab0d75f37f1da76c26c4998d6330f3fab84a777868f5a97e"}, "vout": 110, "txid": "9c9589955284c5fcc4e76f1c5ac4a0dcff52387cd5e7a982d434df352b660f58"}], "txid": "0e5e58fcd263ce993d65b3dd027048d9e63ca6df2a1361ca23696ad5e063d268", "blocktime": 1537873282, "version": 1, "confirmations": 11484, "time": 1537873282, "locktime": 0, "vsize": 510, "size": 701}