{"hash": "0e64dea657aa7b9027e3fd766707326ab0aa4f70866d09d6067bf68706d45b4b", "blockhash": "0000000000000000001f76057863aec43deb6fa401d9628bb513d65a8098bfab", "vout": [{"scriptPubKey": {"reqSigs": 1, "hex": "a9145772da7ee846b452a2ff2f6d2270af5e609b330987", "addresses": ["39fQJPohZtDhDcRxF8pb7bQmGE4yBdUKMg"], "asm": "OP_HASH160 5772da7ee846b452a2ff2f6d2270af5e609b3309 OP_EQUAL", "type": "scripthash"}, "value": 0.00340161, "n": 0}, {"scriptPubKey": {"reqSigs": 1, "hex": "76a914b2e0e0bc5e3a86b5e0a4b2b63f008b4749d832d388ac", "addresses": ["1HJpfwCTRgAnperH9cWeiYnMuNzqFWcfnL"], "asm": "OP_DUP OP_HASH160 b2e0e0bc5e3a86b5e0a4b2b63f008b4749d832d3 OP_EQUALVERIFY OP_CHECKSIG", "type": "pubkeyhash"}, "value": 0.00340871, "n": 1}, {"scriptPubKey": {"reqSigs": 1, "hex": "76a9149e10277f0ac99bc7e2547db2b22b3f6fc626f77f88ac", "addresses": ["1FQm7jFPWTWbhi73iY4FPsXMBWuEyHGgfP"], "asm": "OP_DUP OP_HASH160 9e10277f0ac99bc7e2547db2b22b3f6fc626f77f OP_EQUALVERIFY OP_CHECKSIG", "type": "pubkeyhash"}, "value": 0.00340221, "n": 2}, {"scriptPubKey": {"reqSigs": 1, "hex": "76a9149c788275a3969864fde27a917af583fe156fcd2888ac", "addresses": ["1FGLn5dgAycgDVqW915CnMGn2kwaqreiXy"], "asm": "OP_DUP OP_HASH160 9c788275a3969864fde27a917af583fe156fcd28 OP_EQUALVERIFY OP_CHECKSIG", "type": "pubkeyhash"}, "value": 0.00340046, "n": 3}, {"scriptPubKey": {"reqSigs": 1, "hex": "76a914c7fc72171d4709f4123f05053e1b1e556f62463588ac", "addresses": ["1KERtQai9FUitaYKtZmJt1dZXheAeddjHS"], "asm": "OP_DUP OP_HASH160 c7fc72171d4709f4123f05053e1b1e556f624635 OP_EQUALVERIFY OP_CHECKSIG", "type": "pubkeyhash"}, "value": 0.00340011, "n": 4}, {"scriptPubKey": {"reqSigs": 1, "hex": "a914b5d0731e346a1c6f60d4e61c0702c1511d837a9787", "addresses": ["3JGMwbumoJwzNptzkbjBS5azGBBv1z9WXr"], "asm": "OP_HASH160 b5d0731e346a1c6f60d4e61c0702c1511d837a97 OP_EQUAL", "type": "scripthash"}, "value": 1.5591725, "n": 5}, {"scriptPubKey": {"reqSigs": 1, "hex": "76a9140caa794e1e184f04325bae8a8c058b6f0f60473488ac", "addresses": ["129yL2te7E4gMAgT3wS6eH15XbxEza7pHq"], "asm": "OP_DUP OP_HASH160 0caa794e1e184f04325bae8a8c058b6f0f604734 OP_EQUALVERIFY OP_CHECKSIG", "type": "pubkeyhash"}, "value": 0.00339976, "n": 6}, {"scriptPubKey": {"reqSigs": 1, "hex": "a914b4babf012621da07989f50c808ab69440fd6223987", "addresses": ["3JAdGRLs3cM7EM3Jyidb5pHuUW5WErRKDN"], "asm": "OP_HASH160 b4babf012621da07989f50c808ab69440fd62239 OP_EQUAL", "type": "scripthash"}, "value": 0.00339509, "n": 7}, {"scriptPubKey": {"reqSigs": 1, "hex": "76a914187a4fda4ba35c164066fef86e51a967b74c5f7b88ac", "addresses": ["13ERjzA2mix48XwgBXFHLQiitYk8NYcCTx"], "asm": "OP_DUP OP_HASH160 187a4fda4ba35c164066fef86e51a967b74c5f7b OP_EQUALVERIFY OP_CHECKSIG", "type": "pubkeyhash"}, "value": 0.0033989, "n": 8}, {"scriptPubKey": {"reqSigs": 1, "hex": "76a91488bf575a85ffe74bd08c52048a9a09258629b96888ac", "addresses": ["1DU47iCXRSaRf6n6JJ8A8XKdy2MY7wzRmQ"], "asm": "OP_DUP OP_HASH160 88bf575a85ffe74bd08c52048a9a09258629b968 OP_EQUALVERIFY OP_CHECKSIG", "type": "pubkeyhash"}, "value": 0.00340255, "n": 9}, {"scriptPubKey": {"reqSigs": 1, "hex": "a9145772da7ee846b452a2ff2f6d2270af5e609b330987", "addresses": ["39fQJPohZtDhDcRxF8pb7bQmGE4yBdUKMg"], "asm": "OP_HASH160 5772da7ee846b452a2ff2f6d2270af5e609b3309 OP_EQUAL", "type": "scripthash"}, "value": 0.00340265, "n": 10}], "hex": "01000000011e631f757eca90287daabb3f47ed85ff852311064209fe0f6ad8e5810ba7719600000000fc004730440220726a3b2499db9e425d645debc67c9cc9cee149b5679f2e6cc7af4f5a387351ca02206d449cca3f0b6a655ceb9905f5d07518f91f43f6c852c135cea3bc545ed32d1d014730440220044107335f875bba9e7dcac09181f3058ee539e350e6154ad8c05355023b2b9102204a973692b2282c0db7cef22fd656e9c6e2976a1b152db4206c84bf09cda775e9014c695221023d035f6548842751bd720758eaa037c9a390d8d9c5f2ced46aae94b8483760952103fe37aadcfed3cae0a02700f698414353380ac2a852f87cf4b4bdd8376b5c652c210259e906c6ed6ba4a2eb363b8d06bbefe09b7afc01fca5266c591d8e7775e04a3f53aeffffffff0bc13005000000000017a9145772da7ee846b452a2ff2f6d2270af5e609b33098787330500000000001976a914b2e0e0bc5e3a86b5e0a4b2b63f008b4749d832d388acfd300500000000001976a9149e10277f0ac99bc7e2547db2b22b3f6fc626f77f88ac4e300500000000001976a9149c788275a3969864fde27a917af583fe156fcd2888ac2b300500000000001976a914c7fc72171d4709f4123f05053e1b1e556f62463588acc21b4b090000000017a914b5d0731e346a1c6f60d4e61c0702c1511d837a978708300500000000001976a9140caa794e1e184f04325bae8a8c058b6f0f60473488ac352e05000000000017a914b4babf012621da07989f50c808ab69440fd6223987b22f0500000000001976a914187a4fda4ba35c164066fef86e51a967b74c5f7b88ac1f310500000000001976a91488bf575a85ffe74bd08c52048a9a09258629b96888ac293105000000000017a9145772da7ee846b452a2ff2f6d2270af5e609b33098700000000", "vin": [{"sequence": 4294967295, "scriptSig": {"hex": "004730440220726a3b2499db9e425d645debc67c9cc9cee149b5679f2e6cc7af4f5a387351ca02206d449cca3f0b6a655ceb9905f5d07518f91f43f6c852c135cea3bc545ed32d1d014730440220044107335f875bba9e7dcac09181f3058ee539e350e6154ad8c05355023b2b9102204a973692b2282c0db7cef22fd656e9c6e2976a1b152db4206c84bf09cda775e9014c695221023d035f6548842751bd720758eaa037c9a390d8d9c5f2ced46aae94b8483760952103fe37aadcfed3cae0a02700f698414353380ac2a852f87cf4b4bdd8376b5c652c210259e906c6ed6ba4a2eb363b8d06bbefe09b7afc01fca5266c591d8e7775e04a3f53ae", "asm": "0 30440220726a3b2499db9e425d645debc67c9cc9cee149b5679f2e6cc7af4f5a387351ca02206d449cca3f0b6a655ceb9905f5d07518f91f43f6c852c135cea3bc545ed32d1d[ALL] 30440220044107335f875bba9e7dcac09181f3058ee539e350e6154ad8c05355023b2b9102204a973692b2282c0db7cef22fd656e9c6e2976a1b152db4206c84bf09cda775e9[ALL] 5221023d035f6548842751bd720758eaa037c9a390d8d9c5f2ced46aae94b8483760952103fe37aadcfed3cae0a02700f698414353380ac2a852f87cf4b4bdd8376b5c652c210259e906c6ed6ba4a2eb363b8d06bbefe09b7afc01fca5266c591d8e7775e04a3f53ae"}, "vout": 0, "txid": "9671a70b81e5d86a0ffe094206112385ff85ed473fbbaa7d2890ca7e751f631e"}], "txid": "0e64dea657aa7b9027e3fd766707326ab0aa4f70866d09d6067bf68706d45b4b", "blocktime": 1537873891, "version": 1, "confirmations": 11474, "time": 1537873891, "locktime": 0, "vsize": 669, "size": 669}