{"hash": "5745b3e96b7a7555062085258bdf883a46879aeeeed1b17d8bc8c64bf5a4320f", "blockhash": "00000000000000000018f53835495a110e01622372bf6ae95dc86f2b0ab887b0", "vout": [{"scriptPubKey": {"reqSigs": 1, "hex": "a914f586a9a646166e5a0886843543e877715a57650387", "addresses": ["3Q5Eo52KTgMAQPNMj5mdBqRMDGt19X2jDC"], "asm": "OP_HASH160 f586a9a646166e5a0886843543e877715a576503 OP_EQUAL", "type": "scripthash"}, "value": 0.00970082, "n": 0}, {"scriptPubKey": {"reqSigs": 1, "hex": "a9145a1b0cbab8dbf5b38c3948de92df1b2296dd9f6e87", "addresses": ["39uT9FpMvSc1G9g4ht7pXPrFzQxhthbNz5"], "asm": "OP_HASH160 5a1b0cbab8dbf5b38c3948de92df1b2296dd9f6e OP_EQUAL", "type": "scripthash"}, "value": 0.613084, "n": 1}], "hex": "02000000000136025c5ee532a8e8b579235dcf34b2ab69655d562f7885fe358675d8b9f3d31fab0100000017160014481585f636a32235eeed87f987cfe63498d1529afeffffff03fa8b00432ee7bf444049466d66e191bbbfeee987e9e6429397cc963306c8d909000000171600142f8e5ec39c13b6a61c70e52d7334b4cb97ebc06afeffffff0fb866fb6d245ed2af085c91b70500b3faaff1402ed82a7696b08ea50c1e93430c0000001716001471fb634e920d39d54c6affb267e48f2b52a3b239feffffff12b19aa1ce809fbc16e88a219834d449e467f6bb4d3f329a616bdba445e991ce00000000171600143d381ad4a5229f0dcec9c7ad4945179ecc51559efeffffff19c59dae8477b162daa96b3685bbee1c99381ea69c57b949a93f8c89b97ba3940000000017160014057b7c755e621bb0078ba5a74f43a1b002c52f70feffffff1a724f51a04efa08c2446ca5bbbb91a8c68a0e33957df5abeadc4e069966a2a607000000171600147924d3a1c93d2c6934720899a58bbe6b02d27c36feffffff1ae76bab797a87f6ab4e07001bd8620fb9a2bc3b178530c2f4212074faa3cb7e12000000171600144b6bc37409bd724a12a85da734a0bd47795f90d4feffffff1ae76bab797a87f6ab4e07001bd8620fb9a2bc3b178530c2f4212074faa3cb7e1800000017160014df2ebad411ae80ad50445c277c6b2c801224171cfeffffff1b5aa8e7bf2b67d80391e51c32d50d0482ed8eda826a11b12274548be94648980a00000017160014bc7b1c6143323114eb50b958b78e76859412b31efeffffff334412c363becee43251a85f62238af9f43503f6bd60d16a3bf1ac14823ec5a90000000017160014534fd2ad15d0f34bf57f56ac5e061cbfb00f4d86feffffff34d8a6b780cc420da7020055f315cb92bcf1799d6713551ccb8ebc304d82eb660000000017160014e0ba70420ea2ea5622436234d8b9af738486c823feffffff38da6d5cf31e3d298726a0260a482c722034bfeccc90ffbd5119b478a767e516060000001716001483958234a95414b541987379daa61bb09f8cf7d1feffffff3a6eb8e7c92c0db7ff0f79db96bc045226c53e98ac9122951a38b319423d690b00000000171600140e418d231a5d5e09d45525d4ce0cbb6905fc3b3efeffffff3b622a08dc37971eed425a69be3d26a0080895f5d9ccd14ab93474ec12334db10000000017160014fc4c9e002f4d80ec31360390072937ec32c4387efeffffff476713e49cb99c02dda451bda87fc481fc1402ed0ca32839f7d6efd197b73df71d00000017160014000a580fb46ebcf587b4720455ccb751bd374a02feffffff48825b17b6f294671b5518efa8bc121ff85b8f176523e772751c426f295d380c0000000017160014c880adfa0c14c854db4cbf72b518f3d6a8f6f0b7feffffff4aa7a3f17eb8010eb2d8de3d1aaa15b71a13a0c9da093a5eeb02f4b1cc71908c02000000171600140536bc296a1e639e1b30940340ffd51cb8e91e71feffffff4abb1c4cb94da66eb52e400d824a446a10d63de5f72c520f088b524efa9251c21a000000171600141edb712f702a2142f42d5fa66aa0c43b82083512feffffff4e3fe30395477836f58e682094a147b30670192f64b658a5c07992ab66c96e890000000017160014572c400768028bd71f277193bde6da3736426b38feffffff5610914eaad1fc4f2008b54658e012b116df1306a8618e163c657964cc48ba76010000001716001448961869a01ce42ceea507acda55cc7d3f6acc1dfeffffff5d595051d0143392a28d6b583cb7135a276b1b2f967320ec7e7b6ae328fa31940000000017160014f323cbfaf48ab68da45f9d65b538d685e5b4fc0efeffffff6e091801448bbfdcef729dba556e03995f8aa1b8903b681636a9d049d5e9b0e701000000171600146799b47fa42f9b20686ac34fde89458ffb0c6e63feffffff6e6d22ce4198e6d134c91efdd846f8c122d65c4b3c55b024d2466cdf465f42b100000000171600144dddfc4fc5aec84c77d472d759f1214624daf3e7feffffff7ac9ad6ad7053e324ea617dec0628b76084559e3ee7adf9d05f0d8df7b1c80bd0100000017160014fa92d2f19473f013f1d88d11fe544168e7df0c44feffffff7bd0733802f40d5f2622e35dfb7ad33c8c7529e85c526d4aa87994895c4de0190100000017160014d16cf97aa1fc5e606a0571cbe7e0b9d41de252fdfeffffff7c0b7e89e38db694ec48f82a2ac77a850e8e5fdb50d74dacd2c1ed18ed4d4f24010000001716001490162aa22430c7e6708e4eea5db4723cccb29d2efeffffff7d1d9ca5159021b46007586b20e2e7edc1d72b5ad30ed303e9c294bff8da8d0f0300000017160014af5a908257be8ec9cc9e70d31371e479a728296afeffffff7ff297657a3e14be4bf42b58a5650197dc8eefc7357e8b052ce8c871fbd443a804000000171600147f537a38c3c90107d28fc287067d94ae7e555722feffffff809d4306e258dc26ea7724679c082ef3e68e5b30929ca52fcf3a7ab6cfc21a2f150000001716001456c73969377484c82a94abb6de0340392f4ac0b2feffffff8104352e999b2e8e35cfcad6615539cc8c4d1af079a5ae1c874753805aeb83bc00000000171600147b4d03f46415940dcbcf2c0c32d4e4ad9c16163efeffffff8981b49a38e1fcd4232e58eefb4e5e35fe7d4ff5006bbe0a61340524b5a331fd0000000017160014ed4b58e6c36f2935ca496871afd79046c9ed9df1feffffff8a5c82c3220c16f402fcfa1f8303edc0f88712ca8ff028d3329362d2a468410c00000000171600147bb680cb4de2f0602a233f509d69be45adc98183feffffff8cdff63030b42f1f4df69cbb169fb841da0698cebd9543b404e44ecdd9f24bfc000000001716001482e8624d6e6f7c88ef8c8d835c680f70ed321192feffffff8dedb5b5ff6b5af89ba88f636c3bb9e239cc907fa1c29a5313a3b48a0916c4c00000000017160014e3c00f66ff3052fed93e27c9ef7a74c52759dc30feffffff924fc1457226193c015d9a96c1cab42dc40481f12288acae0c74e3dfc70d6fc500000000171600143e10c23b037aedf3cc47717988ad8a67b65896b1feffffff933ccf7bd5775e948bd1dd3d7ab6918edcd9797aa4b6f7268ef21a6e0a520b9700000000171600145735a956f009f5fc3fb998b460bac0c66fc07aa5feffffffa50c74998e7465b50fa150d426ddec25804bab3e20538a37d8600a30ad4abed10100000017160014b63ead9846e11c7adc049ec76d1f9610d75dc467feffffffa5a5de9f056d5558f05429950657963c3a397ec1100bcf40f33a8ecca98f2cee0000000017160014c5742255652397dbe7cc602ef92a068b60e1e296feffffffa5c95143433e1639b4bc31869281ea17ec97fdad7bb4b0dc1dca5777c9ec9efd090000001716001474329636ab9abccc85e0286725abb5c2aff1bdadfeffffffa7da7ca37983b2ea13507220145f2936d4053406938357c9cb54d860cc352aae0100000017160014c2265b42fc4976c559534b1dec04f7c7fab71baafeffffffaa6cfd500c45c6feb9733c28d1e2b16d9b8ba133c3865be1189a467fdecb31c10000000017160014126d2da8b9605050751eb76e5cc94495dee360edfeffffffb0fd19d9fcafb0b4396c23061bf258707c518e6204d9b78e1efbe171632b869c000000001716001496028d15c7491883519da881cbc1162828600f9bfeffffffb2a23efbe4026def74cea2a952ec1b132b61c924debfb0478de4f44345c9ab570000000017160014a4a6910dcde6fadf0c8e60ff15a6dd8378aa1f7afeffffffb627759848b0d0afb8cb2fc93c5bbe0fb2a298b77a04170272f60f5e75d0429a17000000171600145d90bde624c8f547f7f6ead25543f1d83175c4e3feffffffca00a0b6eee544a7a48eb3a5455f02715593515e62215a9671f11b63458bd59e0100000017160014b229087d46266c880429b8319a98dabfb229ffb7feffffffcb8bc25a2d416791900385a67219e027cce67433a6490d33c950fa9113a48bc100000000171600148bbe98a5ab3c97b9902e58820a523b196c9569c9feffffffdd682e2d2834f9662dbda6cab020081587812b135090c79b52ea18e0c945315701000000171600145b912e9abe813c37d0f50c27dcc63dd93a80225efeffffffe211af7c4e9c8712417afd159cb318946491d226f3c1ab0bca7a3b6c302e76f80f0000001716001436272306b99b657b3b589a4b3f5f97486418bf28feffffffe79d57bb805b16e6c05857e4264c41655ffbf8de82c4edd3ceb37d3be0f6302400000000171600143a8571a598c2b8971e9155d19da618bc5a9f9c4cfeffffffe93c5afb30dac73bd77f8790002449f34dcc6cd9cd647adf807a2c1ca9a072260100000017160014e8ece12f24f08fd824211cfdc995fba23bce0df2feffffffea3b7a0fdd8a3d9951e2b2e890a7a8337a03345b7e375093c5bb194e4b2ea02c01000000171600146f36e3c5e4e8207eccbef5ad6f08a219d40806ecfeffffffeaf1ecf0ff2c5f76f1b33b80141813a0e1d1c76042b453ea6010b164bc7542a70000000017160014413da3a3458a0677607d75b29d902de67c44982dfeffffffed6390991a0d56ee31d01fe2a98efbfb97c6c2c37a8eafdc7024b1f7808d2e3f00000000171600142f1f7f4d53c1e90ccd0685309dddae2e493ce475fefffffffcb3600a3bf51dd3758d355e88293d64ef1d0fa50cacfca725b36b893ad8089000000000171600146e82341ed67b82e39f14785fc9e6dc89376e7437feffffff0262cd0e000000000017a914f586a9a646166e5a0886843543e877715a57650387f07da7030000000017a9145a1b0cbab8dbf5b38c3948de92df1b2296dd9f6e870247304402207060d86e3b95b74a6ca272469d03de75ac83682c9ef29fbd9482186c118f2bcb02207158aa20610d271d63ed401ca7bd539d7744060668cb0e5789c3556ca00dfe3b012102584db36221e319639b86685381a7b7014e4bd8720689fee16a8019ddd4a0e31c02483045022100e45aafa7a04a720a05c9b3c66d51128f2fb7d83014ca33aa99783309083116ff02203a3e6bffe9480df19008ef464ebb48b9172a5bf9aa75518f7469eecf5795859801210229911064e4de879cb21f186c5b4312b008c84a73ccf2177522caeb5955d55acf024730440220027fd59ca369307d395a7aac438993d3ca020202556fcb131b8e565daff5605f022034388638e2b2cdaee79a7e18de97e1a9c7562981dd94686d0017721b11ba082a0121028a21910d8cd52b8511932110d1bdd26a16c53ba459b2a9550d2e97f52e45645a024830450221009d21d4170b86fff68d8624cd8fc11138be506ae7d00c95bac9d3a7b58ae88a2f02203c27b14847df7401d2d15f57619574c11420d6b35db3b5193ed2b07cd435daa5012102e97ed568988486793749d07c7343827d71fc5200f2d3cc17ce40fe20741645c302473044022009c1f77f097da90f4fb095313a282134d01de2a5de000d95d27cb925b51c21b1022047a3063b660e43e68899c92443b0adeb853f09025feab3fcd64c66a82de3851f01210233f5a1ff65468a2e87c8f85fad8a43f60586fe7160936e2be7809e68cb3de14802483045022100f07e408e8c33d1f7c842686e15802063d8046dddc1b3e76623b9a4c447ea0118022029fcad58e151d0a169b5234d2261e184b319640d64992acea00aed551dbe262e012102a5438d3197325e1419ee35a08c20cb13195dc7e51207d7d6b116d27e875ee08c02473044022064c6b7f5b9dff285475daadd86ed90b67a189acc17ce7ad697572eedca6b90dc022058cd05d3723854bf5c764c66e993c7257ed714a72a543b4041defb0302b483620121024ba6e432c31904347f2cf7dc04245012af41afc497a8a2d8b1feb7528feefa2f0247304402203d1e15879aff5b5332447081d6bddfd148792fa7252b541f383feb5f7244c4320220641cd6b06a302a7346a640748dc8418e906f18af62aba4fdc432af89880392b00121026121fef6b4b60c2b77fd90cc79b5292c822315918b7e1fa90572a6914638aa370247304402205f5ef5d94863c4ce40f76a8043b4de6c2b1aa7a60b4d71576ba67d559ce6a8f3022072a80af3b2f07ecd9912476492c6c3cd8f687a030b24e34dfa957bde30a58170012103e63e8065ad0ff88fbbe702e3d8bf4e4959645752afa578c8bd0f843fd96acd7f02473044022002eaf8fbeb671fd3846f907d75102dcba19158450d05fc152d99b7d63b6a068a022063e050cfad24ffc3761ac50dbe0027499b13e8a07352af75de74b92043265061012103c2268150878fad9b698ec69256c6af182e6882ee4546578a48e276b65bcfbe1402473044022021fe11f2ac75b6264e616a4c632cdfb6a8333bbce82a17ce1b867c3e1c958f9c02201dd722bfb4dbb4943900db455e0d01206acd3408af5a8c49598641770631c35401210362b9837509ddd53f186ffd006c190cd7e55a51b784641496b795a6103fc4019b0248304502210085f5192b550aecfff78f532ba72b30335e783e33723ebdced58afd6a0a5b196f022048a3d0e3b68fc8cd1da868f4bd0c5cdaa00196e0a738ae3b3d3bcd74562cb52b012103e6677f221f6f44425a07f6535be1465a3ae581310c09d2173e5395e36f46bb7b02483045022100a4d72893e7638bd64d238a5c2c7522331d2bc05a9594811aff5700e1c5c7f19a02201c8d2314460b1003e3e8028438820d89b38371509f6529525cc38a73efe38aff0121033232724ee4a999c6371e086df8bb7bb4069566e8996499511dfd434f42dfa9f402473044022044c56de502770e99947a9c107ff836e59da033630112c464f8c6fa85bbee27480220763f27535f3b92eba578b8982ca3fc17365f6dbd27877c836d4969d12ee8e76601210286493763a4d6d444e750cefacd7b031400f6713cdcb4626bed7a0dd25834482002483045022100f9357862453c47e9f4e059681fda40bb24c3debc49dd1837738bf0bb1e6358a00220590576e5d0b885b0bd68c14755c3bb540c1a0021ce5b3b1f8235bd794f6c7d0d012102e02e5e33692362025da7c360fec3ca6d61a4a0af60f0229ec5b1a3970824855502483045022100d2589a5f7a2ea31760b54642d108784cf481e820addf49845599c81169b4c68702206d78a63ff94cfad0ef87de150762db8584b877e938cb7ee15dd4a28705d3bf9f012102ecb827433a724cb6f0c071ca1a64b1a7d5bcc4ce005902bbd79f38531a88ce4f02483045022100abe7003da953659bb914a1aee6d88b105f1b242fef5b5b788e5a0b87a93b7c70022012e44a61a7a1996ffe14670b2aaedb5ba68c301ec467890e7eb0976961ecf6da012103d49d418750b1d21cc242471f389c6b4a496aa705e282ffd136ddbf017228fbf002483045022100d5f71c300ed7fd765360cd447fbfef8a6efd248a14b6988df26a2f274b43bef60220287315bfbebfa71f1b2ea8918509d3ff3e1b7e5bc723321456a962b3cab8bdd10121035f97e5b4f3212cb79d9a643a977aca43bde479ee20d30cbcb0afcecf4f51fdad02483045022100836252911f10ccf9ddd9434f3366dbf843826985d4d3118f2776426e9aabc3c402205fa95ffdfa1799d9bdea83934592c16a5225266470f12a48052b34fb00d295e701210337f7f7c72aab261d48becc22a06cf9b491850d643ce29cbe5bdbc2fac8a1801a0247304402206f4efd8e58ca9a950cd0c2f3743a3362dff8cd3294cd7b7beb3f6358c054b5d902200e0bc1717592effaa3e0b4a3ca3cd2f34cf3bd904eedb92077a1b248bf9bd4850121036e32a933ecc30b2991d952bd8c8692ddb7c27bcda81acb04135b5a955fff256a024730440220596b8d06899826125cf8a18f5c880f3cb510226bd3adca9235e06b7fff5c36b4022039487ee4281d9c5f030b4959eb6d8c57c5f4da5d2de1a04f2623b4ddbdf46aac012102e0b0247e8106e5cc708b5d397da58ae505934e566ebb40c5cbc09d9c2306071a0247304402207272a932671d38fea15865b27b8b829d810c00bb1c25aafd23a48165870876d902203512f0e6fe68d3a803183058ccc9e36a8f2efa1ddec509806c2b2a3d6709bef4012102d0d5eb3102299fc2f511cb76cd8188613e8506d684d62ab40bf9eaa30ca0ad700247304402202f2816b94bcd39088093f329f3a4b97da4f6bde7d499a602c2c3d6c653651edc02205dc93e63f263618af02f90675c78bf1d2024096e9005dcc0ce0cbf9bda5b982e012102f5fdb7e83d7c6e5f9d2e624578d777d5851edc7cbe349a114af68861fa02fbe302483045022100e984bb734d9068981df8ee5539294d447573b991fda6e54d5058853316a0d3bd022025ed834ba91b948975c30d495407957aaa2cc74059f9c4a914a6eaf04dcd384c0121037044f214cce125839644dbeb76bd40987fcfe20855c44dc9e4783b2f37847c3c02483045022100db9fd1a134b5ff4acb5cd6282a28ba713db6395a5d1636cc22bdb2a739183e9902206a8d552241e7fbae6574a1e1ad94810052066c2565098ae227d0ed07be54b72501210323d290a092c4c9a9e724dc9ce4f354d7dfe182146c2526c908803ec64fd5adc002473044022000d7d8690960fc278b108dd1c322634c63b1c254864878c04420a522a40cc28302204c3dc3cbc35a6e4055bafad224adeab62c52f8f128fdf41500eaf9ad57f76689012102edea8fb966e96a70bc55868925be5e7d11233a440332eb0d2ef1c6e02351f5a702483045022100833e3e693f2a9f85f7197f468312e263bcddcc1155d6b6b89af2d67842c50260022048beb4e9f0d5982b152b61f9605d09a1b7acf4922fec91382711bb3ca517539801210256874b6a40f9e3d5aa85b51214cbfeb6637b5c50646e26f74696ab52428e8d70024730440220720bce6868d2a618748a1d0ba30051b71d68b640612753298777405adc86d5ae02207bab8e859dbdb018b413d3339d80f46d8f02f0d936f2621788658c59481b4869012103416e0f1cb33f4071d5ec0e34bce44d19d0279a5eb65cf174828acfafa77134740247304402200faa50732881894c5fc84ed41ccd7df40055a46167f2b3c834efc5804e5f0b4e0220389560003c06f2e83740320eb85945d8cb705b778604e7d09a3662ebf75807b0012102491e6d1eb2075c7a696c524f6add5ee271a03ddaebbfe4e68c95ec4765dbb7a802473044022079c39f483c8ccc615accea88601dd327da74b8cef5eaf6f398cf7aed1969cc71022009bf0a6bebe47e247781b812f1aee04d7c9565d6a97337dafe0ab93181079bff01210308593c4de1b0c2f09f5b85fff03902895105e078d5026c4f927b6703d16a509402483045022100996f9c0ea83eb2d88f9e12a4a29641586e0b54a1e89a13cb4eaeb2ea724b7255022012988b469867470a1de04c97f4378edd0d642051ea876391bb196c1ba639a8e9012103619e61fbc33c1045a0983b83c12274ec829b79d3bfaddd1d86b449f8c2e609960248304502210099c0a64e4711fa7a15f647d9ca6d767b3d35939ef75c9b18eff8306964ab3749022040a0352f6c37313da34bbc6825b41e7490e0706d55ff4ff169416a3ca80a68110121028c545e734c8dae84bd13da3471d662022c0a827fb3a71d21cce4ed02e77af69d02483045022100c1fb4dff7835eb3ecfa5f9fdae322f75808ee0078225f9ba808f03ff378f11bf022061ab5f6ec1d2275cb0e5187d3cea78520b7a51656e994ef8b96fd1ea7fa952d10121038555ceb38cf1669ecd5bf8864e2ef645c3ce61246479c0046f0072c71daaa59002473044022015c3cb3a954a9822eb899bef370c8d0846f989f17eb3fa46f21aa24298f01cf302207875d09e218e8975fd7697888520d92c706494e115ebf370f2b1e8b8472f6870012103960ee7a6f986923237ccf0a9f32c56b207371d6c24a1221e2d1182bdb797c6260247304402202e4333da61298111d0b8c113713ad9f6ada01da59a5b8e46d801a1bf248f878402206265d7970ad0f068a821b022b5bc9ccd255637807f05c36b0738f89d59c46157012103bb13bc4ced2959ff6c94e4dd7d33b32b66190ecc0ec6bd24d97fabbc82468d920247304402205e67d497457fdedfd235b61d102eb98f839510c7bb314758f3c1ac9d41bcb1170220474bd6bdc5e28ffcd5f7ec5d8132bf48e1b677e57cdda8b301ac4cd660592123012103785b0d490ceea17715e27ca3cdc9c39ec027fc009d0b5e558710d992c08a5af402483045022100a6cc6c1a77989352bc5320d79ca9aaa32233662501571f318609d8c0c52d8a2b0220533bae284cd11d409d138f214fabe854e7cb051094e167f850c33e4af133de6f01210261aff5003903e26df315da1439f99d76c0e94ce6a9d2e76b8abb5782799871fc0247304402204b436b8cb650497d3627c45074a0d7128099a7ccdd240dd19e0fad51e48cc1820220642d50aff365267e6511151a63e0bebf6f5ef9c76cb1a732445b6c96013bf4e7012103dd42ff67cbdeed3af6c671f841afaa331cf827d80099a758ce9d15975cc29a2e0247304402202e9915a5de9518aa1837670c91b77cf309da3fa3d993261c2922e90d532ed53902201c7c084712a8e211737bf5a13d8ea2b96c84e42fdf8115cc80fe1d289195bdda0121035451bfdd1b7726b091e69fcdd5b0f52d53075795cae8a24da46e1a016f8dd9cc02483045022100ce7d5ae793929bbf8c97cb018e271181982f333ddf47113921e24f4eb864a6350220449dd49763e5e431f90e642002e010d39e7641ebad62ec72889e28bf7593671d012102f3fea99c740e03212ef3ee28c3d8c4ab2f6a6859721e4c0bf077222f5b777b2502483045022100df365a0ab0a0c6e85b4667917c9629bd789ac921e0b575b8e4fc3146428304f402207944f9344b0aa04fd66d665fe41b439fc1de3bb08997fb3480c52c2c87a9087901210278a5da14e1e43c675a102a181db702853ba0c477c9331046b15bccd09a57cdc402483045022100c994727e146ef37a9b6c99fc5c407452bfcbca186a92aee5622dbacecf65ba1002202f297128b27fe9ea35cb3e7fc70cc98c2bf0cd2f6f724f74081608fc74c6379a012103f05a4ff39a0268b89c10f3100da2fa5e0a3f883fc023dd7617c44e411e9fa6950247304402206e06bd242a476b2257de487c7bb25068873dd73211917965c93dec3680907a04022012ac7236285e4c29d9a973ebdcae3b4d2679964a1c8ca41ea780906ae62713e90121026e9d84035b6cef944fe7f407c9682bfb416b2ae128536410308cd659be85278502483045022100930f08b5c193174d4d7d23a841a150c273206a55181e105dde22a42d52e9184c022071e06f1ce2f33f52b2c5063b8dfa6927f2674ce9ad9f4a103ea0bf8cd23f1b6801210304cd822f1fe7df281e563f84d77991ee3ef3c685ac2f86342ee1a7019b28262002473044022079de0a1b801274bef776d2d2c64e608ce85fecc27bb49646c666dfcfd33a158e02204774d18b485ed77bac09e1b3e96d8394516affc5c99b152e8e9a38aed45e2f9f012102541e36a89dd3fa79e1b593c5097ecd640ae8da143f16f9eae8f7cf84ac7b800a02483045022100a20e1eda581d478b99da7efe9c889f8010e3b42dc53dd4b5543c0c2eae5e407a022059d88a3ce50a050e65910f7644fe3591a0527ed287d1be11f05bbff07a2515cd012102c284f2d068c447540263d865d13df2ace593eb7ca7af9fdd67621775b15c6aab0247304402201753668e4586e2870150a3fabd28ed80f90d9875b87b37fae7f067c453206c1d02201ab1b8f670eab0fc3f8b7e1c1ee0e4a463917eb21a3eac2bea8983bc7e42d183012102830ec892967678d2fe53897517b63b5c410e2618a56b82b22e34b9488215cf660247304402203156312d49ff4645cbf302a597373fc8b280d5c85309afe4086aadcdb8aeba3d0220642e25d10b5186200461254fb3eb31a2f2780d8f408a11e9f01845f8f1bf13d4012103296b76d69f98f77bd7e2231872240b12d44ff84ec9f141d2e1a897f532441df30247304402200635badb505f0ad25dd4cdb7415c58b86971dc171deca426e937d873c484d3aa022046e71f2477024641a799080138fc26636251a8ee7b6786258b362bdae4156f1e012103d828ea87f989411225a734895487b309b76f0b23ba8eb1dc2b3a28efeba1e4e102473044022074a0adb6c776883e90f57b222d5448a640d6ffba9b36a397e6070482384dc0d502200dae12c4d9fc02775e57ca3877c8e548f65269d96a3c9203431a3d378cffdeb301210359593176e81d3b20b51a20a49a8976f0fe841a93b3ba26315822a645ea4a20ce024830450221008cf8a110a12fca762d2f7ee87587c1d2e81b42e699fd495bf8b6161e436f476a0220542fd2aa5466eeeb4afd2f4951360694280e527525c0a797d6701d659b40a6c10121032a483c130f65028d0b0da20d618e354c4199594e070f96d8fd838fe4b9a4e85a0247304402206bf40dd3059c563a7b3c286a1de73e27f9f75d511984ff8efea2a7323a3f9cb702203ee3c6b8a34fc59786ee05f4a4dfe42fda3a8e2139297b41f1b70e73d44e1b270121020c7057453f175c62714a0883dea878f7259664201d798ad90987cbe191e1f28602483045022100b7ea2abe66fb57bc382691699e9f450d363444e8fa8fa4640ec127098e3a3134022027a7d15c0992b9f77efc170170023ccbff28db6d4b5c99023bb48c0de5c3edbc0121032b1405b3d73e44f2054871cf0479fc397ae26821cd48f5def365f85094752e8f02483045022100d13ccc74f40d228f46c79b3e152920b90bc741aefa46fefeea669730d48197e80220422d600b4b761d1014a0cb9263bf0127070b1905c1eaff7aa370194e1d260c1d01210320b6f77b48dad793ba345a97e4928694eea23058c788229fd0588e4c50008a0e0e490800", "vin": [{"txinwitness": ["304402207060d86e3b95b74a6ca272469d03de75ac83682c9ef29fbd9482186c118f2bcb02207158aa20610d271d63ed401ca7bd539d7744060668cb0e5789c3556ca00dfe3b01", "02584db36221e319639b86685381a7b7014e4bd8720689fee16a8019ddd4a0e31c"], "sequence": 4294967294, "scriptSig": {"hex": "160014481585f636a32235eeed87f987cfe63498d1529a", "asm": "0014481585f636a32235eeed87f987cfe63498d1529a"}, "vout": 1, "txid": "ab1fd3f3b9d8758635fe85782f565d6569abb234cf5d2379b5e8a832e55e5c02"}, {"txinwitness": ["3045022100e45aafa7a04a720a05c9b3c66d51128f2fb7d83014ca33aa99783309083116ff02203a3e6bffe9480df19008ef464ebb48b9172a5bf9aa75518f7469eecf5795859801", "0229911064e4de879cb21f186c5b4312b008c84a73ccf2177522caeb5955d55acf"], "sequence": 4294967294, "scriptSig": {"hex": "1600142f8e5ec39c13b6a61c70e52d7334b4cb97ebc06a", "asm": "00142f8e5ec39c13b6a61c70e52d7334b4cb97ebc06a"}, "vout": 9, "txid": "d9c8063396cc979342e6e987e9eebfbb91e1666d46494044bfe72e43008bfa03"}, {"txinwitness": ["30440220027fd59ca369307d395a7aac438993d3ca020202556fcb131b8e565daff5605f022034388638e2b2cdaee79a7e18de97e1a9c7562981dd94686d0017721b11ba082a01", "028a21910d8cd52b8511932110d1bdd26a16c53ba459b2a9550d2e97f52e45645a"], "sequence": 4294967294, "scriptSig": {"hex": "16001471fb634e920d39d54c6affb267e48f2b52a3b239", "asm": "001471fb634e920d39d54c6affb267e48f2b52a3b239"}, "vout": 12, "txid": "43931e0ca58eb096762ad82e40f1affab30005b7915c08afd25e246dfb66b80f"}, {"txinwitness": ["30450221009d21d4170b86fff68d8624cd8fc11138be506ae7d00c95bac9d3a7b58ae88a2f02203c27b14847df7401d2d15f57619574c11420d6b35db3b5193ed2b07cd435daa501", "02e97ed568988486793749d07c7343827d71fc5200f2d3cc17ce40fe20741645c3"], "sequence": 4294967294, "scriptSig": {"hex": "1600143d381ad4a5229f0dcec9c7ad4945179ecc51559e", "asm": "00143d381ad4a5229f0dcec9c7ad4945179ecc51559e"}, "vout": 0, "txid": "ce91e945a4db6b619a323f4dbbf667e449d43498218ae816bc9f80cea19ab112"}, {"txinwitness": ["3044022009c1f77f097da90f4fb095313a282134d01de2a5de000d95d27cb925b51c21b1022047a3063b660e43e68899c92443b0adeb853f09025feab3fcd64c66a82de3851f01", "0233f5a1ff65468a2e87c8f85fad8a43f60586fe7160936e2be7809e68cb3de148"], "sequence": 4294967294, "scriptSig": {"hex": "160014057b7c755e621bb0078ba5a74f43a1b002c52f70", "asm": "0014057b7c755e621bb0078ba5a74f43a1b002c52f70"}, "vout": 0, "txid": "94a37bb9898c3fa949b9579ca61e38991ceebb85366ba9da62b17784ae9dc519"}, {"txinwitness": ["3045022100f07e408e8c33d1f7c842686e15802063d8046dddc1b3e76623b9a4c447ea0118022029fcad58e151d0a169b5234d2261e184b319640d64992acea00aed551dbe262e01", "02a5438d3197325e1419ee35a08c20cb13195dc7e51207d7d6b116d27e875ee08c"], "sequence": 4294967294, "scriptSig": {"hex": "1600147924d3a1c93d2c6934720899a58bbe6b02d27c36", "asm": "00147924d3a1c93d2c6934720899a58bbe6b02d27c36"}, "vout": 7, "txid": "a6a26699064edceaabf57d95330e8ac6a891bbbba56c44c208fa4ea0514f721a"}, {"txinwitness": ["3044022064c6b7f5b9dff285475daadd86ed90b67a189acc17ce7ad697572eedca6b90dc022058cd05d3723854bf5c764c66e993c7257ed714a72a543b4041defb0302b4836201", "024ba6e432c31904347f2cf7dc04245012af41afc497a8a2d8b1feb7528feefa2f"], "sequence": 4294967294, "scriptSig": {"hex": "1600144b6bc37409bd724a12a85da734a0bd47795f90d4", "asm": "00144b6bc37409bd724a12a85da734a0bd47795f90d4"}, "vout": 18, "txid": "7ecba3fa742021f4c23085173bbca2b90f62d81b00074eabf6877a79ab6be71a"}, {"txinwitness": ["304402203d1e15879aff5b5332447081d6bddfd148792fa7252b541f383feb5f7244c4320220641cd6b06a302a7346a640748dc8418e906f18af62aba4fdc432af89880392b001", "026121fef6b4b60c2b77fd90cc79b5292c822315918b7e1fa90572a6914638aa37"], "sequence": 4294967294, "scriptSig": {"hex": "160014df2ebad411ae80ad50445c277c6b2c801224171c", "asm": "0014df2ebad411ae80ad50445c277c6b2c801224171c"}, "vout": 24, "txid": "7ecba3fa742021f4c23085173bbca2b90f62d81b00074eabf6877a79ab6be71a"}, {"txinwitness": ["304402205f5ef5d94863c4ce40f76a8043b4de6c2b1aa7a60b4d71576ba67d559ce6a8f3022072a80af3b2f07ecd9912476492c6c3cd8f687a030b24e34dfa957bde30a5817001", "03e63e8065ad0ff88fbbe702e3d8bf4e4959645752afa578c8bd0f843fd96acd7f"], "sequence": 4294967294, "scriptSig": {"hex": "160014bc7b1c6143323114eb50b958b78e76859412b31e", "asm": "0014bc7b1c6143323114eb50b958b78e76859412b31e"}, "vout": 10, "txid": "984846e98b547422b1116a82da8eed82040dd5321ce59103d8672bbfe7a85a1b"}, {"txinwitness": ["3044022002eaf8fbeb671fd3846f907d75102dcba19158450d05fc152d99b7d63b6a068a022063e050cfad24ffc3761ac50dbe0027499b13e8a07352af75de74b9204326506101", "03c2268150878fad9b698ec69256c6af182e6882ee4546578a48e276b65bcfbe14"], "sequence": 4294967294, "scriptSig": {"hex": "160014534fd2ad15d0f34bf57f56ac5e061cbfb00f4d86", "asm": "0014534fd2ad15d0f34bf57f56ac5e061cbfb00f4d86"}, "vout": 0, "txid": "a9c53e8214acf13b6ad160bdf60335f4f98a23625fa85132e4cebe63c3124433"}, {"txinwitness": ["3044022021fe11f2ac75b6264e616a4c632cdfb6a8333bbce82a17ce1b867c3e1c958f9c02201dd722bfb4dbb4943900db455e0d01206acd3408af5a8c49598641770631c35401", "0362b9837509ddd53f186ffd006c190cd7e55a51b784641496b795a6103fc4019b"], "sequence": 4294967294, "scriptSig": {"hex": "160014e0ba70420ea2ea5622436234d8b9af738486c823", "asm": "0014e0ba70420ea2ea5622436234d8b9af738486c823"}, "vout": 0, "txid": "66eb824d30bc8ecb1c5513679d79f1bc92cb15f3550002a70d42cc80b7a6d834"}, {"txinwitness": ["304502210085f5192b550aecfff78f532ba72b30335e783e33723ebdced58afd6a0a5b196f022048a3d0e3b68fc8cd1da868f4bd0c5cdaa00196e0a738ae3b3d3bcd74562cb52b01", "03e6677f221f6f44425a07f6535be1465a3ae581310c09d2173e5395e36f46bb7b"], "sequence": 4294967294, "scriptSig": {"hex": "16001483958234a95414b541987379daa61bb09f8cf7d1", "asm": "001483958234a95414b541987379daa61bb09f8cf7d1"}, "vout": 6, "txid": "16e567a778b41951bdff90ccecbf3420722c480a26a02687293d1ef35c6dda38"}, {"txinwitness": ["3045022100a4d72893e7638bd64d238a5c2c7522331d2bc05a9594811aff5700e1c5c7f19a02201c8d2314460b1003e3e8028438820d89b38371509f6529525cc38a73efe38aff01", "033232724ee4a999c6371e086df8bb7bb4069566e8996499511dfd434f42dfa9f4"], "sequence": 4294967294, "scriptSig": {"hex": "1600140e418d231a5d5e09d45525d4ce0cbb6905fc3b3e", "asm": "00140e418d231a5d5e09d45525d4ce0cbb6905fc3b3e"}, "vout": 0, "txid": "0b693d4219b3381a952291ac983ec5265204bc96db790fffb70d2cc9e7b86e3a"}, {"txinwitness": ["3044022044c56de502770e99947a9c107ff836e59da033630112c464f8c6fa85bbee27480220763f27535f3b92eba578b8982ca3fc17365f6dbd27877c836d4969d12ee8e76601", "0286493763a4d6d444e750cefacd7b031400f6713cdcb4626bed7a0dd258344820"], "sequence": 4294967294, "scriptSig": {"hex": "160014fc4c9e002f4d80ec31360390072937ec32c4387e", "asm": "0014fc4c9e002f4d80ec31360390072937ec32c4387e"}, "vout": 0, "txid": "b14d3312ec7434b94ad1ccd9f5950808a0263dbe695a42ed1e9737dc082a623b"}, {"txinwitness": ["3045022100f9357862453c47e9f4e059681fda40bb24c3debc49dd1837738bf0bb1e6358a00220590576e5d0b885b0bd68c14755c3bb540c1a0021ce5b3b1f8235bd794f6c7d0d01", "02e02e5e33692362025da7c360fec3ca6d61a4a0af60f0229ec5b1a39708248555"], "sequence": 4294967294, "scriptSig": {"hex": "160014000a580fb46ebcf587b4720455ccb751bd374a02", "asm": "0014000a580fb46ebcf587b4720455ccb751bd374a02"}, "vout": 29, "txid": "f73db797d1efd6f73928a30ced0214fc81c47fa8bd51a4dd029cb99ce4136747"}, {"txinwitness": ["3045022100d2589a5f7a2ea31760b54642d108784cf481e820addf49845599c81169b4c68702206d78a63ff94cfad0ef87de150762db8584b877e938cb7ee15dd4a28705d3bf9f01", "02ecb827433a724cb6f0c071ca1a64b1a7d5bcc4ce005902bbd79f38531a88ce4f"], "sequence": 4294967294, "scriptSig": {"hex": "160014c880adfa0c14c854db4cbf72b518f3d6a8f6f0b7", "asm": "0014c880adfa0c14c854db4cbf72b518f3d6a8f6f0b7"}, "vout": 0, "txid": "0c385d296f421c7572e72365178f5bf81f12bca8ef18551b6794f2b6175b8248"}, {"txinwitness": ["3045022100abe7003da953659bb914a1aee6d88b105f1b242fef5b5b788e5a0b87a93b7c70022012e44a61a7a1996ffe14670b2aaedb5ba68c301ec467890e7eb0976961ecf6da01", "03d49d418750b1d21cc242471f389c6b4a496aa705e282ffd136ddbf017228fbf0"], "sequence": 4294967294, "scriptSig": {"hex": "1600140536bc296a1e639e1b30940340ffd51cb8e91e71", "asm": "00140536bc296a1e639e1b30940340ffd51cb8e91e71"}, "vout": 2, "txid": "8c9071ccb1f402eb5e3a09dac9a0131ab715aa1a3dded8b20e01b87ef1a3a74a"}, {"txinwitness": ["3045022100d5f71c300ed7fd765360cd447fbfef8a6efd248a14b6988df26a2f274b43bef60220287315bfbebfa71f1b2ea8918509d3ff3e1b7e5bc723321456a962b3cab8bdd101", "035f97e5b4f3212cb79d9a643a977aca43bde479ee20d30cbcb0afcecf4f51fdad"], "sequence": 4294967294, "scriptSig": {"hex": "1600141edb712f702a2142f42d5fa66aa0c43b82083512", "asm": "00141edb712f702a2142f42d5fa66aa0c43b82083512"}, "vout": 26, "txid": "c25192fa4e528b080f522cf7e53dd6106a444a820d402eb56ea64db94c1cbb4a"}, {"txinwitness": ["3045022100836252911f10ccf9ddd9434f3366dbf843826985d4d3118f2776426e9aabc3c402205fa95ffdfa1799d9bdea83934592c16a5225266470f12a48052b34fb00d295e701", "0337f7f7c72aab261d48becc22a06cf9b491850d643ce29cbe5bdbc2fac8a1801a"], "sequence": 4294967294, "scriptSig": {"hex": "160014572c400768028bd71f277193bde6da3736426b38", "asm": "0014572c400768028bd71f277193bde6da3736426b38"}, "vout": 0, "txid": "896ec966ab9279c0a558b6642f197006b347a19420688ef53678479503e33f4e"}, {"txinwitness": ["304402206f4efd8e58ca9a950cd0c2f3743a3362dff8cd3294cd7b7beb3f6358c054b5d902200e0bc1717592effaa3e0b4a3ca3cd2f34cf3bd904eedb92077a1b248bf9bd48501", "036e32a933ecc30b2991d952bd8c8692ddb7c27bcda81acb04135b5a955fff256a"], "sequence": 4294967294, "scriptSig": {"hex": "16001448961869a01ce42ceea507acda55cc7d3f6acc1d", "asm": "001448961869a01ce42ceea507acda55cc7d3f6acc1d"}, "vout": 1, "txid": "76ba48cc6479653c168e61a80613df16b112e05846b508204ffcd1aa4e911056"}, {"txinwitness": ["30440220596b8d06899826125cf8a18f5c880f3cb510226bd3adca9235e06b7fff5c36b4022039487ee4281d9c5f030b4959eb6d8c57c5f4da5d2de1a04f2623b4ddbdf46aac01", "02e0b0247e8106e5cc708b5d397da58ae505934e566ebb40c5cbc09d9c2306071a"], "sequence": 4294967294, "scriptSig": {"hex": "160014f323cbfaf48ab68da45f9d65b538d685e5b4fc0e", "asm": "0014f323cbfaf48ab68da45f9d65b538d685e5b4fc0e"}, "vout": 0, "txid": "9431fa28e36a7b7eec2073962f1b6b275a13b73c586b8da2923314d05150595d"}, {"txinwitness": ["304402207272a932671d38fea15865b27b8b829d810c00bb1c25aafd23a48165870876d902203512f0e6fe68d3a803183058ccc9e36a8f2efa1ddec509806c2b2a3d6709bef401", "02d0d5eb3102299fc2f511cb76cd8188613e8506d684d62ab40bf9eaa30ca0ad70"], "sequence": 4294967294, "scriptSig": {"hex": "1600146799b47fa42f9b20686ac34fde89458ffb0c6e63", "asm": "00146799b47fa42f9b20686ac34fde89458ffb0c6e63"}, "vout": 1, "txid": "e7b0e9d549d0a93616683b90b8a18a5f99036e55ba9d72efdcbf8b440118096e"}, {"txinwitness": ["304402202f2816b94bcd39088093f329f3a4b97da4f6bde7d499a602c2c3d6c653651edc02205dc93e63f263618af02f90675c78bf1d2024096e9005dcc0ce0cbf9bda5b982e01", "02f5fdb7e83d7c6e5f9d2e624578d777d5851edc7cbe349a114af68861fa02fbe3"], "sequence": 4294967294, "scriptSig": {"hex": "1600144dddfc4fc5aec84c77d472d759f1214624daf3e7", "asm": "00144dddfc4fc5aec84c77d472d759f1214624daf3e7"}, "vout": 0, "txid": "b1425f46df6c46d224b0553c4b5cd622c1f846d8fd1ec934d1e69841ce226d6e"}, {"txinwitness": ["3045022100e984bb734d9068981df8ee5539294d447573b991fda6e54d5058853316a0d3bd022025ed834ba91b948975c30d495407957aaa2cc74059f9c4a914a6eaf04dcd384c01", "037044f214cce125839644dbeb76bd40987fcfe20855c44dc9e4783b2f37847c3c"], "sequence": 4294967294, "scriptSig": {"hex": "160014fa92d2f19473f013f1d88d11fe544168e7df0c44", "asm": "0014fa92d2f19473f013f1d88d11fe544168e7df0c44"}, "vout": 1, "txid": "bd801c7bdfd8f0059ddf7aeee3594508768b62c0de17a64e323e05d76aadc97a"}, {"txinwitness": ["3045022100db9fd1a134b5ff4acb5cd6282a28ba713db6395a5d1636cc22bdb2a739183e9902206a8d552241e7fbae6574a1e1ad94810052066c2565098ae227d0ed07be54b72501", "0323d290a092c4c9a9e724dc9ce4f354d7dfe182146c2526c908803ec64fd5adc0"], "sequence": 4294967294, "scriptSig": {"hex": "160014d16cf97aa1fc5e606a0571cbe7e0b9d41de252fd", "asm": "0014d16cf97aa1fc5e606a0571cbe7e0b9d41de252fd"}, "vout": 1, "txid": "19e04d5c899479a84a6d525ce829758c3cd37afb5de322265f0df4023873d07b"}, {"txinwitness": ["3044022000d7d8690960fc278b108dd1c322634c63b1c254864878c04420a522a40cc28302204c3dc3cbc35a6e4055bafad224adeab62c52f8f128fdf41500eaf9ad57f7668901", "02edea8fb966e96a70bc55868925be5e7d11233a440332eb0d2ef1c6e02351f5a7"], "sequence": 4294967294, "scriptSig": {"hex": "16001490162aa22430c7e6708e4eea5db4723cccb29d2e", "asm": "001490162aa22430c7e6708e4eea5db4723cccb29d2e"}, "vout": 1, "txid": "244f4ded18edc1d2ac4dd750db5f8e0e857ac72a2af848ec94b68de3897e0b7c"}, {"txinwitness": ["3045022100833e3e693f2a9f85f7197f468312e263bcddcc1155d6b6b89af2d67842c50260022048beb4e9f0d5982b152b61f9605d09a1b7acf4922fec91382711bb3ca517539801", "0256874b6a40f9e3d5aa85b51214cbfeb6637b5c50646e26f74696ab52428e8d70"], "sequence": 4294967294, "scriptSig": {"hex": "160014af5a908257be8ec9cc9e70d31371e479a728296a", "asm": "0014af5a908257be8ec9cc9e70d31371e479a728296a"}, "vout": 3, "txid": "0f8ddaf8bf94c2e903d30ed35a2bd7c1ede7e2206b580760b4219015a59c1d7d"}, {"txinwitness": ["30440220720bce6868d2a618748a1d0ba30051b71d68b640612753298777405adc86d5ae02207bab8e859dbdb018b413d3339d80f46d8f02f0d936f2621788658c59481b486901", "03416e0f1cb33f4071d5ec0e34bce44d19d0279a5eb65cf174828acfafa7713474"], "sequence": 4294967294, "scriptSig": {"hex": "1600147f537a38c3c90107d28fc287067d94ae7e555722", "asm": "00147f537a38c3c90107d28fc287067d94ae7e555722"}, "vout": 4, "txid": "a843d4fb71c8e82c058b7e35c7ef8edc970165a5582bf44bbe143e7a6597f27f"}, {"txinwitness": ["304402200faa50732881894c5fc84ed41ccd7df40055a46167f2b3c834efc5804e5f0b4e0220389560003c06f2e83740320eb85945d8cb705b778604e7d09a3662ebf75807b001", "02491e6d1eb2075c7a696c524f6add5ee271a03ddaebbfe4e68c95ec4765dbb7a8"], "sequence": 4294967294, "scriptSig": {"hex": "16001456c73969377484c82a94abb6de0340392f4ac0b2", "asm": "001456c73969377484c82a94abb6de0340392f4ac0b2"}, "vout": 21, "txid": "2f1ac2cfb67a3acf2fa59c92305b8ee6f32e089c672477ea26dc58e206439d80"}, {"txinwitness": ["3044022079c39f483c8ccc615accea88601dd327da74b8cef5eaf6f398cf7aed1969cc71022009bf0a6bebe47e247781b812f1aee04d7c9565d6a97337dafe0ab93181079bff01", "0308593c4de1b0c2f09f5b85fff03902895105e078d5026c4f927b6703d16a5094"], "sequence": 4294967294, "scriptSig": {"hex": "1600147b4d03f46415940dcbcf2c0c32d4e4ad9c16163e", "asm": "00147b4d03f46415940dcbcf2c0c32d4e4ad9c16163e"}, "vout": 0, "txid": "bc83eb5a805347871caea579f01a4d8ccc395561d6cacf358e2e9b992e350481"}, {"txinwitness": ["3045022100996f9c0ea83eb2d88f9e12a4a29641586e0b54a1e89a13cb4eaeb2ea724b7255022012988b469867470a1de04c97f4378edd0d642051ea876391bb196c1ba639a8e901", "03619e61fbc33c1045a0983b83c12274ec829b79d3bfaddd1d86b449f8c2e60996"], "sequence": 4294967294, "scriptSig": {"hex": "160014ed4b58e6c36f2935ca496871afd79046c9ed9df1", "asm": "0014ed4b58e6c36f2935ca496871afd79046c9ed9df1"}, "vout": 0, "txid": "fd31a3b5240534610abe6b00f54f7dfe355e4efbee582e23d4fce1389ab48189"}, {"txinwitness": ["304502210099c0a64e4711fa7a15f647d9ca6d767b3d35939ef75c9b18eff8306964ab3749022040a0352f6c37313da34bbc6825b41e7490e0706d55ff4ff169416a3ca80a681101", "028c545e734c8dae84bd13da3471d662022c0a827fb3a71d21cce4ed02e77af69d"], "sequence": 4294967294, "scriptSig": {"hex": "1600147bb680cb4de2f0602a233f509d69be45adc98183", "asm": "00147bb680cb4de2f0602a233f509d69be45adc98183"}, "vout": 0, "txid": "0c4168a4d2629332d328f08fca1287f8c0ed03831ffafc02f4160c22c3825c8a"}, {"txinwitness": ["3045022100c1fb4dff7835eb3ecfa5f9fdae322f75808ee0078225f9ba808f03ff378f11bf022061ab5f6ec1d2275cb0e5187d3cea78520b7a51656e994ef8b96fd1ea7fa952d101", "038555ceb38cf1669ecd5bf8864e2ef645c3ce61246479c0046f0072c71daaa590"], "sequence": 4294967294, "scriptSig": {"hex": "16001482e8624d6e6f7c88ef8c8d835c680f70ed321192", "asm": "001482e8624d6e6f7c88ef8c8d835c680f70ed321192"}, "vout": 0, "txid": "fc4bf2d9cd4ee404b44395bdce9806da41b89f16bb9cf64d1f2fb43030f6df8c"}, {"txinwitness": ["3044022015c3cb3a954a9822eb899bef370c8d0846f989f17eb3fa46f21aa24298f01cf302207875d09e218e8975fd7697888520d92c706494e115ebf370f2b1e8b8472f687001", "03960ee7a6f986923237ccf0a9f32c56b207371d6c24a1221e2d1182bdb797c626"], "sequence": 4294967294, "scriptSig": {"hex": "160014e3c00f66ff3052fed93e27c9ef7a74c52759dc30", "asm": "0014e3c00f66ff3052fed93e27c9ef7a74c52759dc30"}, "vout": 0, "txid": "c0c416098ab4a313539ac2a17f90cc39e2b93b6c638fa89bf85a6bffb5b5ed8d"}, {"txinwitness": ["304402202e4333da61298111d0b8c113713ad9f6ada01da59a5b8e46d801a1bf248f878402206265d7970ad0f068a821b022b5bc9ccd255637807f05c36b0738f89d59c4615701", "03bb13bc4ced2959ff6c94e4dd7d33b32b66190ecc0ec6bd24d97fabbc82468d92"], "sequence": 4294967294, "scriptSig": {"hex": "1600143e10c23b037aedf3cc47717988ad8a67b65896b1", "asm": "00143e10c23b037aedf3cc47717988ad8a67b65896b1"}, "vout": 0, "txid": "c56f0dc7dfe3740caeac8822f18104c42db4cac1969a5d013c19267245c14f92"}, {"txinwitness": ["304402205e67d497457fdedfd235b61d102eb98f839510c7bb314758f3c1ac9d41bcb1170220474bd6bdc5e28ffcd5f7ec5d8132bf48e1b677e57cdda8b301ac4cd66059212301", "03785b0d490ceea17715e27ca3cdc9c39ec027fc009d0b5e558710d992c08a5af4"], "sequence": 4294967294, "scriptSig": {"hex": "1600145735a956f009f5fc3fb998b460bac0c66fc07aa5", "asm": "00145735a956f009f5fc3fb998b460bac0c66fc07aa5"}, "vout": 0, "txid": "970b520a6e1af28e26f7b6a47a79d9dc8e91b67a3dddd18b945e77d57bcf3c93"}, {"txinwitness": ["3045022100a6cc6c1a77989352bc5320d79ca9aaa32233662501571f318609d8c0c52d8a2b0220533bae284cd11d409d138f214fabe854e7cb051094e167f850c33e4af133de6f01", "0261aff5003903e26df315da1439f99d76c0e94ce6a9d2e76b8abb5782799871fc"], "sequence": 4294967294, "scriptSig": {"hex": "160014b63ead9846e11c7adc049ec76d1f9610d75dc467", "asm": "0014b63ead9846e11c7adc049ec76d1f9610d75dc467"}, "vout": 1, "txid": "d1be4aad300a60d8378a53203eab4b8025ecdd26d450a10fb565748e99740ca5"}, {"txinwitness": ["304402204b436b8cb650497d3627c45074a0d7128099a7ccdd240dd19e0fad51e48cc1820220642d50aff365267e6511151a63e0bebf6f5ef9c76cb1a732445b6c96013bf4e701", "03dd42ff67cbdeed3af6c671f841afaa331cf827d80099a758ce9d15975cc29a2e"], "sequence": 4294967294, "scriptSig": {"hex": "160014c5742255652397dbe7cc602ef92a068b60e1e296", "asm": "0014c5742255652397dbe7cc602ef92a068b60e1e296"}, "vout": 0, "txid": "ee2c8fa9cc8e3af340cf0b10c17e393a3c965706952954f058556d059fdea5a5"}, {"txinwitness": ["304402202e9915a5de9518aa1837670c91b77cf309da3fa3d993261c2922e90d532ed53902201c7c084712a8e211737bf5a13d8ea2b96c84e42fdf8115cc80fe1d289195bdda01", "035451bfdd1b7726b091e69fcdd5b0f52d53075795cae8a24da46e1a016f8dd9cc"], "sequence": 4294967294, "scriptSig": {"hex": "16001474329636ab9abccc85e0286725abb5c2aff1bdad", "asm": "001474329636ab9abccc85e0286725abb5c2aff1bdad"}, "vout": 9, "txid": "fd9eecc97757ca1ddcb0b47badfd97ec17ea81928631bcb439163e434351c9a5"}, {"txinwitness": ["3045022100ce7d5ae793929bbf8c97cb018e271181982f333ddf47113921e24f4eb864a6350220449dd49763e5e431f90e642002e010d39e7641ebad62ec72889e28bf7593671d01", "02f3fea99c740e03212ef3ee28c3d8c4ab2f6a6859721e4c0bf077222f5b777b25"], "sequence": 4294967294, "scriptSig": {"hex": "160014c2265b42fc4976c559534b1dec04f7c7fab71baa", "asm": "0014c2265b42fc4976c559534b1dec04f7c7fab71baa"}, "vout": 1, "txid": "ae2a35cc60d854cbc9578393063405d436295f1420725013eab28379a37cdaa7"}, {"txinwitness": ["3045022100df365a0ab0a0c6e85b4667917c9629bd789ac921e0b575b8e4fc3146428304f402207944f9344b0aa04fd66d665fe41b439fc1de3bb08997fb3480c52c2c87a9087901", "0278a5da14e1e43c675a102a181db702853ba0c477c9331046b15bccd09a57cdc4"], "sequence": 4294967294, "scriptSig": {"hex": "160014126d2da8b9605050751eb76e5cc94495dee360ed", "asm": "0014126d2da8b9605050751eb76e5cc94495dee360ed"}, "vout": 0, "txid": "c131cbde7f469a18e15b86c333a18b9b6db1e2d1283c73b9fec6450c50fd6caa"}, {"txinwitness": ["3045022100c994727e146ef37a9b6c99fc5c407452bfcbca186a92aee5622dbacecf65ba1002202f297128b27fe9ea35cb3e7fc70cc98c2bf0cd2f6f724f74081608fc74c6379a01", "03f05a4ff39a0268b89c10f3100da2fa5e0a3f883fc023dd7617c44e411e9fa695"], "sequence": 4294967294, "scriptSig": {"hex": "16001496028d15c7491883519da881cbc1162828600f9b", "asm": "001496028d15c7491883519da881cbc1162828600f9b"}, "vout": 0, "txid": "9c862b6371e1fb1e8eb7d904628e517c7058f21b06236c39b4b0affcd919fdb0"}, {"txinwitness": ["304402206e06bd242a476b2257de487c7bb25068873dd73211917965c93dec3680907a04022012ac7236285e4c29d9a973ebdcae3b4d2679964a1c8ca41ea780906ae62713e901", "026e9d84035b6cef944fe7f407c9682bfb416b2ae128536410308cd659be852785"], "sequence": 4294967294, "scriptSig": {"hex": "160014a4a6910dcde6fadf0c8e60ff15a6dd8378aa1f7a", "asm": "0014a4a6910dcde6fadf0c8e60ff15a6dd8378aa1f7a"}, "vout": 0, "txid": "57abc94543f4e48d47b0bfde24c9612b131bec52a9a2ce74ef6d02e4fb3ea2b2"}, {"txinwitness": ["3045022100930f08b5c193174d4d7d23a841a150c273206a55181e105dde22a42d52e9184c022071e06f1ce2f33f52b2c5063b8dfa6927f2674ce9ad9f4a103ea0bf8cd23f1b6801", "0304cd822f1fe7df281e563f84d77991ee3ef3c685ac2f86342ee1a7019b282620"], "sequence": 4294967294, "scriptSig": {"hex": "1600145d90bde624c8f547f7f6ead25543f1d83175c4e3", "asm": "00145d90bde624c8f547f7f6ead25543f1d83175c4e3"}, "vout": 23, "txid": "9a42d0755e0ff6720217047ab798a2b20fbe5b3cc92fcbb8afd0b048987527b6"}, {"txinwitness": ["3044022079de0a1b801274bef776d2d2c64e608ce85fecc27bb49646c666dfcfd33a158e02204774d18b485ed77bac09e1b3e96d8394516affc5c99b152e8e9a38aed45e2f9f01", "02541e36a89dd3fa79e1b593c5097ecd640ae8da143f16f9eae8f7cf84ac7b800a"], "sequence": 4294967294, "scriptSig": {"hex": "160014b229087d46266c880429b8319a98dabfb229ffb7", "asm": "0014b229087d46266c880429b8319a98dabfb229ffb7"}, "vout": 1, "txid": "9ed58b45631bf171965a21625e51935571025f45a5b38ea4a744e5eeb6a000ca"}, {"txinwitness": ["3045022100a20e1eda581d478b99da7efe9c889f8010e3b42dc53dd4b5543c0c2eae5e407a022059d88a3ce50a050e65910f7644fe3591a0527ed287d1be11f05bbff07a2515cd01", "02c284f2d068c447540263d865d13df2ace593eb7ca7af9fdd67621775b15c6aab"], "sequence": 4294967294, "scriptSig": {"hex": "1600148bbe98a5ab3c97b9902e58820a523b196c9569c9", "asm": "00148bbe98a5ab3c97b9902e58820a523b196c9569c9"}, "vout": 0, "txid": "c18ba41391fa50c9330d49a63374e6cc27e01972a68503909167412d5ac28bcb"}, {"txinwitness": ["304402201753668e4586e2870150a3fabd28ed80f90d9875b87b37fae7f067c453206c1d02201ab1b8f670eab0fc3f8b7e1c1ee0e4a463917eb21a3eac2bea8983bc7e42d18301", "02830ec892967678d2fe53897517b63b5c410e2618a56b82b22e34b9488215cf66"], "sequence": 4294967294, "scriptSig": {"hex": "1600145b912e9abe813c37d0f50c27dcc63dd93a80225e", "asm": "00145b912e9abe813c37d0f50c27dcc63dd93a80225e"}, "vout": 1, "txid": "573145c9e018ea529bc79050132b8187150820b0caa6bd2d66f934282d2e68dd"}, {"txinwitness": ["304402203156312d49ff4645cbf302a597373fc8b280d5c85309afe4086aadcdb8aeba3d0220642e25d10b5186200461254fb3eb31a2f2780d8f408a11e9f01845f8f1bf13d401", "03296b76d69f98f77bd7e2231872240b12d44ff84ec9f141d2e1a897f532441df3"], "sequence": 4294967294, "scriptSig": {"hex": "16001436272306b99b657b3b589a4b3f5f97486418bf28", "asm": "001436272306b99b657b3b589a4b3f5f97486418bf28"}, "vout": 15, "txid": "f8762e306c3b7aca0babc1f326d291649418b39c15fd7a4112879c4e7caf11e2"}, {"txinwitness": ["304402200635badb505f0ad25dd4cdb7415c58b86971dc171deca426e937d873c484d3aa022046e71f2477024641a799080138fc26636251a8ee7b6786258b362bdae4156f1e01", "03d828ea87f989411225a734895487b309b76f0b23ba8eb1dc2b3a28efeba1e4e1"], "sequence": 4294967294, "scriptSig": {"hex": "1600143a8571a598c2b8971e9155d19da618bc5a9f9c4c", "asm": "00143a8571a598c2b8971e9155d19da618bc5a9f9c4c"}, "vout": 0, "txid": "2430f6e03b7db3ced3edc482def8fb5f65414c26e45758c0e6165b80bb579de7"}, {"txinwitness": ["3044022074a0adb6c776883e90f57b222d5448a640d6ffba9b36a397e6070482384dc0d502200dae12c4d9fc02775e57ca3877c8e548f65269d96a3c9203431a3d378cffdeb301", "0359593176e81d3b20b51a20a49a8976f0fe841a93b3ba26315822a645ea4a20ce"], "sequence": 4294967294, "scriptSig": {"hex": "160014e8ece12f24f08fd824211cfdc995fba23bce0df2", "asm": "0014e8ece12f24f08fd824211cfdc995fba23bce0df2"}, "vout": 1, "txid": "2672a0a91c2c7a80df7a64cdd96ccc4df349240090877fd73bc7da30fb5a3ce9"}, {"txinwitness": ["30450221008cf8a110a12fca762d2f7ee87587c1d2e81b42e699fd495bf8b6161e436f476a0220542fd2aa5466eeeb4afd2f4951360694280e527525c0a797d6701d659b40a6c101", "032a483c130f65028d0b0da20d618e354c4199594e070f96d8fd838fe4b9a4e85a"], "sequence": 4294967294, "scriptSig": {"hex": "1600146f36e3c5e4e8207eccbef5ad6f08a219d40806ec", "asm": "00146f36e3c5e4e8207eccbef5ad6f08a219d40806ec"}, "vout": 1, "txid": "2ca02e4b4e19bbc59350377e5b34037a33a8a790e8b2e251993d8add0f7a3bea"}, {"txinwitness": ["304402206bf40dd3059c563a7b3c286a1de73e27f9f75d511984ff8efea2a7323a3f9cb702203ee3c6b8a34fc59786ee05f4a4dfe42fda3a8e2139297b41f1b70e73d44e1b2701", "020c7057453f175c62714a0883dea878f7259664201d798ad90987cbe191e1f286"], "sequence": 4294967294, "scriptSig": {"hex": "160014413da3a3458a0677607d75b29d902de67c44982d", "asm": "0014413da3a3458a0677607d75b29d902de67c44982d"}, "vout": 0, "txid": "a74275bc64b11060ea53b44260c7d1e1a0131814803bb3f1765f2cfff0ecf1ea"}, {"txinwitness": ["3045022100b7ea2abe66fb57bc382691699e9f450d363444e8fa8fa4640ec127098e3a3134022027a7d15c0992b9f77efc170170023ccbff28db6d4b5c99023bb48c0de5c3edbc01", "032b1405b3d73e44f2054871cf0479fc397ae26821cd48f5def365f85094752e8f"], "sequence": 4294967294, "scriptSig": {"hex": "1600142f1f7f4d53c1e90ccd0685309dddae2e493ce475", "asm": "00142f1f7f4d53c1e90ccd0685309dddae2e493ce475"}, "vout": 0, "txid": "3f2e8d80f7b12470dcaf8e7ac3c2c697fbfb8ea9e21fd031ee560d1a999063ed"}, {"txinwitness": ["3045022100d13ccc74f40d228f46c79b3e152920b90bc741aefa46fefeea669730d48197e80220422d600b4b761d1014a0cb9263bf0127070b1905c1eaff7aa370194e1d260c1d01", "0320b6f77b48dad793ba345a97e4928694eea23058c788229fd0588e4c50008a0e"], "sequence": 4294967294, "scriptSig": {"hex": "1600146e82341ed67b82e39f14785fc9e6dc89376e7437", "asm": "00146e82341ed67b82e39f14785fc9e6dc89376e7437"}, "vout": 0, "txid": "9008d83a896bb325a7fcac0ca50f1def643d29885e358d75d31df53b0a60b3fc"}], "txid": "0e65b5e9f2ef2418e3c3d16bca974d12ac37302aff6f2e694a5731d388117a45", "blocktime": 1537870928, "version": 2, "confirmations": 11512, "time": 1537870928, "locktime": 542990, "vsize": 4982, "size": 9335}