{"hash": "0e65b2cc0cfabd4bed70856176b330f5373811a197f5c9250fdb4dfb191b8d9b", "blockhash": "0000000000000000000e13cef7c366c0283d82e591d1acd082e914b08063cdf1", "vout": [{"scriptPubKey": {"reqSigs": 1, "hex": "a9149e055b7cc5f0ba0966b502d608b6fa7ba0fa162d87", "addresses": ["3G6Z76A8NfMubYNqWCQZXv8cahuaC7J7cT"], "asm": "OP_HASH160 9e055b7cc5f0ba0966b502d608b6fa7ba0fa162d OP_EQUAL", "type": "scripthash"}, "value": 0.00619395, "n": 0}, {"scriptPubKey": {"reqSigs": 1, "hex": "76a9143df07e71cf7e83ba669379c58a19300551e413f388ac", "addresses": ["16eWKWisGBVtE7dLp23bNwN1JJAxBaSz73"], "asm": "OP_DUP OP_HASH160 3df07e71cf7e83ba669379c58a19300551e413f3 OP_EQUALVERIFY OP_CHECKSIG", "type": "pubkeyhash"}, "value": 0.01324852, "n": 1}], "hex": "0100000001c8546f360f039754ac5a1ea0383a6536662ea4e9e2185b53a967dcf00b20103d010000006a473044022053b04a0b64810bda23ed42e478b1e0740333f25c029851043ce9f2676a66c54802203c9581b5909da62b6088475aa1e78fc1c5123d15f846b60a383805f010ccc0ac012102c05415b84dd5dd530291477df6b7178c9f2b8d05a622f8b0caf42deacf00b7e3ffffffff02837309000000000017a9149e055b7cc5f0ba0966b502d608b6fa7ba0fa162d8734371400000000001976a9143df07e71cf7e83ba669379c58a19300551e413f388ac00000000", "vin": [{"sequence": 4294967295, "scriptSig": {"hex": "473044022053b04a0b64810bda23ed42e478b1e0740333f25c029851043ce9f2676a66c54802203c9581b5909da62b6088475aa1e78fc1c5123d15f846b60a383805f010ccc0ac012102c05415b84dd5dd530291477df6b7178c9f2b8d05a622f8b0caf42deacf00b7e3", "asm": "3044022053b04a0b64810bda23ed42e478b1e0740333f25c029851043ce9f2676a66c54802203c9581b5909da62b6088475aa1e78fc1c5123d15f846b60a383805f010ccc0ac[ALL] 02c05415b84dd5dd530291477df6b7178c9f2b8d05a622f8b0caf42deacf00b7e3"}, "vout": 1, "txid": "3d10200bf0dc67a9535b18e2e9a42e6636653a38a01e5aac5497030f366f54c8"}], "txid": "0e65b2cc0cfabd4bed70856176b330f5373811a197f5c9250fdb4dfb191b8d9b", "blocktime": 1537871767, "version": 1, "confirmations": 11492, "time": 1537871767, "locktime": 0, "vsize": 223, "size": 223}