{"hash": "0e6c94b36b9ca054cf3ac4a6cab3c13d71d70d041f3372c71cae16b74ab3701d", "blockhash": "0000000000000000001e0dab787dd257d1dbfcb92a98c2207d5e1078be1f4165", "vout": [{"scriptPubKey": {"reqSigs": 1, "hex": "76a914689442383f400f34696c1535875729f6e94188db88ac", "addresses": ["1AXxt9KQ7HxkT417ZCaZwGmJudf8wXVdmE"], "asm": "OP_DUP OP_HASH160 689442383f400f34696c1535875729f6e94188db OP_EQUALVERIFY OP_CHECKSIG", "type": "pubkeyhash"}, "value": 0.00049132, "n": 0}, {"scriptPubKey": {"reqSigs": 1, "hex": "a914bccc6a797f32c1b08c2d43039de460710f39186987", "addresses": ["3JuHqg65bDohAMWsdiPwSayv8vrvdMxG1B"], "asm": "OP_HASH160 bccc6a797f32c1b08c2d43039de460710f391869 OP_EQUAL", "type": "scripthash"}, "value": 0.005, "n": 1}], "hex": "01000000022f44445de99f0007ecd8046b4b43b1c87ac34e7ee5341139d3c3e9bf2360de17000000006b4830450221008e86cb78865b0503e6b6b6193fb0d6c9f1c020f421273afab2cf2c900b67762c022041ab7d1fb551bf46e41697b768638e61a24aa16c110ececdff6153af96844c70012102c930a1593bf8e71eff2a45d33f2eab239601da1b484dd4ff2b0fe2321d6923a2ffffffff41155151204e4c9ed79fe891f5ab7ba847a9858c87d2d03e7b54b084cb5381de0e0000006a473044022057920a595190b2125f4a0653f55fbd17d19aa9bce111e40ca9ea1636a4cc6dd00220472615548590863b76b6517cf0942e7435197193807cdc75322f2c2ff258df62012102bf1d475c04f53e0924d92744e9880b199ea132419b945a74227f30e75dcbe4a6ffffffff02ecbf0000000000001976a914689442383f400f34696c1535875729f6e94188db88ac20a107000000000017a914bccc6a797f32c1b08c2d43039de460710f3918698700000000", "vin": [{"sequence": 4294967295, "scriptSig": {"hex": "4830450221008e86cb78865b0503e6b6b6193fb0d6c9f1c020f421273afab2cf2c900b67762c022041ab7d1fb551bf46e41697b768638e61a24aa16c110ececdff6153af96844c70012102c930a1593bf8e71eff2a45d33f2eab239601da1b484dd4ff2b0fe2321d6923a2", "asm": "30450221008e86cb78865b0503e6b6b6193fb0d6c9f1c020f421273afab2cf2c900b67762c022041ab7d1fb551bf46e41697b768638e61a24aa16c110ececdff6153af96844c70[ALL] 02c930a1593bf8e71eff2a45d33f2eab239601da1b484dd4ff2b0fe2321d6923a2"}, "vout": 0, "txid": "17de6023bfe9c3d3391134e57e4ec37ac8b1434b6b04d8ec07009fe95d44442f"}, {"sequence": 4294967295, "scriptSig": {"hex": "473044022057920a595190b2125f4a0653f55fbd17d19aa9bce111e40ca9ea1636a4cc6dd00220472615548590863b76b6517cf0942e7435197193807cdc75322f2c2ff258df62012102bf1d475c04f53e0924d92744e9880b199ea132419b945a74227f30e75dcbe4a6", "asm": "3044022057920a595190b2125f4a0653f55fbd17d19aa9bce111e40ca9ea1636a4cc6dd00220472615548590863b76b6517cf0942e7435197193807cdc75322f2c2ff258df62[ALL] 02bf1d475c04f53e0924d92744e9880b199ea132419b945a74227f30e75dcbe4a6"}, "vout": 14, "txid": "de8153cb84b0547b3ed0d2878c85a947a87babf591e89fd79e4c4e2051511541"}], "txid": "0e6c94b36b9ca054cf3ac4a6cab3c13d71d70d041f3372c71cae16b74ab3701d", "blocktime": 1537872475, "version": 1, "confirmations": 11487, "time": 1537872475, "locktime": 0, "vsize": 371, "size": 371}