{"hash": "0e747283126600f5c3a4092673a7a46b23aa4b0c2dcd38d5ae06fbc7ddd34930", "blockhash": "0000000000000000000baef3f32e3676a92c3b2e5da21b426e4f302fc371ce76", "vout": [{"scriptPubKey": {"reqSigs": 1, "hex": "a914ba89a6a4f9e86bc4a1e4ab5c2706a7209652509f87", "addresses": ["3JhLWP1L6CUxWyx1bmvzG8kunGJFRHULmE"], "asm": "OP_HASH160 ba89a6a4f9e86bc4a1e4ab5c2706a7209652509f OP_EQUAL", "type": "scripthash"}, "value": 0.04218991, "n": 0}], "hex": "010000000152c77ac19958935d7123b3b43c8600b26292701cc0944f72ec827242bf9c89c4000000006b48304502210091c787b3fb5d447c797e38a86ef4d9d9ceb4d28b55c061a651c0fb7ca675dcc7022070445eb745fb4f06aaa955487b934efd20dab9fe392e29964f93fceeb385b88601210383819dc7efbb38f0176e6d695b13e0b77f65ac9d9b0e8a98b6249a499bb0bccbffffffff016f6040000000000017a914ba89a6a4f9e86bc4a1e4ab5c2706a7209652509f8700000000", "vin": [{"sequence": 4294967295, "scriptSig": {"hex": "48304502210091c787b3fb5d447c797e38a86ef4d9d9ceb4d28b55c061a651c0fb7ca675dcc7022070445eb745fb4f06aaa955487b934efd20dab9fe392e29964f93fceeb385b88601210383819dc7efbb38f0176e6d695b13e0b77f65ac9d9b0e8a98b6249a499bb0bccb", "asm": "304502210091c787b3fb5d447c797e38a86ef4d9d9ceb4d28b55c061a651c0fb7ca675dcc7022070445eb745fb4f06aaa955487b934efd20dab9fe392e29964f93fceeb385b886[ALL] 0383819dc7efbb38f0176e6d695b13e0b77f65ac9d9b0e8a98b6249a499bb0bccb"}, "vout": 0, "txid": "c4899cbf427282ec724f94c01c709262b200863cb4b323715d935899c17ac752"}], "txid": "0e747283126600f5c3a4092673a7a46b23aa4b0c2dcd38d5ae06fbc7ddd34930", "blocktime": 1537876114, "version": 1, "confirmations": 11459, "time": 1537876114, "locktime": 0, "vsize": 190, "size": 190}