{"hash": "0e75214b65f108f7b087ff9a5a41ed4a38def76fbc047d29db5d137c85b29a6a", "blockhash": "0000000000000000000baef3f32e3676a92c3b2e5da21b426e4f302fc371ce76", "vout": [{"scriptPubKey": {"type": "nulldata", "hex": "6a4c500000782200017cdcad2d95c4798fc698134b019d6ddc0f1b8ff117702940d64fa54d8eb21b66e7736205396f49b98d72f7e7af165baa1d97061451c8c779c6dfbc9a9526289ac0f6612cd74e33776ee4", "asm": "OP_RETURN 0000782200017cdcad2d95c4798fc698134b019d6ddc0f1b8ff117702940d64fa54d8eb21b66e7736205396f49b98d72f7e7af165baa1d97061451c8c779c6dfbc9a9526289ac0f6612cd74e33776ee4"}, "value": 0.0, "n": 0}, {"scriptPubKey": {"reqSigs": 1, "hex": "76a914e37bb9253cbb1349fc58d2e2eec9d803dc771da488ac", "addresses": ["1MjpbzBPGm5XDvGfrYa8uhXUmZELNHSRH9"], "asm": "OP_DUP OP_HASH160 e37bb9253cbb1349fc58d2e2eec9d803dc771da4 OP_EQUALVERIFY OP_CHECKSIG", "type": "pubkeyhash"}, "value": 0.00115404, "n": 1}], "hex": "01000000014380c3c58f69c032ad98c1bb3c6923d42322357ec9d33d5aa4660375c98299e7000000006b483045022100953f794a2794b066a3eda1e1535005f7e3c209b35b72076c588cfaf5a5a492c902204caaf428e279322a53c7bc5b22245d53b1f07b3258e3b8c09d151efa1e7064c90121031ed2e78ec1322e6906b32d20667740389e6e65c63cb52f531712a6115f055880ffffffff020000000000000000536a4c500000782200017cdcad2d95c4798fc698134b019d6ddc0f1b8ff117702940d64fa54d8eb21b66e7736205396f49b98d72f7e7af165baa1d97061451c8c779c6dfbc9a9526289ac0f6612cd74e33776ee4ccc20100000000001976a914e37bb9253cbb1349fc58d2e2eec9d803dc771da488ac00000000", "vin": [{"sequence": 4294967295, "scriptSig": {"hex": "483045022100953f794a2794b066a3eda1e1535005f7e3c209b35b72076c588cfaf5a5a492c902204caaf428e279322a53c7bc5b22245d53b1f07b3258e3b8c09d151efa1e7064c90121031ed2e78ec1322e6906b32d20667740389e6e65c63cb52f531712a6115f055880", "asm": "3045022100953f794a2794b066a3eda1e1535005f7e3c209b35b72076c588cfaf5a5a492c902204caaf428e279322a53c7bc5b22245d53b1f07b3258e3b8c09d151efa1e7064c9[ALL] 031ed2e78ec1322e6906b32d20667740389e6e65c63cb52f531712a6115f055880"}, "vout": 0, "txid": "e79982c9750366a45a3dd3c97e352223d423693cbbc198ad32c0698fc5c38043"}], "txid": "0e75214b65f108f7b087ff9a5a41ed4a38def76fbc047d29db5d137c85b29a6a", "blocktime": 1537876114, "version": 1, "confirmations": 11461, "time": 1537876114, "locktime": 0, "vsize": 284, "size": 284}