{"hash": "0e7c3bc22d3388b8f481eb2cb67856dfb510162d82da319a7f7a9f41a61945b1", "blockhash": "0000000000000000001f0ddff1eddb255c1121bcd4da4f1bc9a0da00cae72433", "vout": [{"scriptPubKey": {"reqSigs": 1, "hex": "76a9146f244d9f49f627b66b7451b88886c55d74e6fef488ac", "addresses": ["1B8fVghqaCUpgZfz2Qb5cpbVWdGWDcSjGL"], "asm": "OP_DUP OP_HASH160 6f244d9f49f627b66b7451b88886c55d74e6fef4 OP_EQUALVERIFY OP_CHECKSIG", "type": "pubkeyhash"}, "value": 0.11087765, "n": 0}, {"scriptPubKey": {"reqSigs": 1, "hex": "a914252881ebe5d35823369fd1386b10ccd27da9829387", "addresses": ["355VT9nfQunq4atkb4WELkSvqRBDw38KdF"], "asm": "OP_HASH160 252881ebe5d35823369fd1386b10ccd27da98293 OP_EQUAL", "type": "scripthash"}, "value": 0.23889001, "n": 1}], "hex": "010000000132eb4255a50c0ffb8e87678d903774cc2673c903e4a216d6924a7a713182e13b000000006a4730440220377cc28cdeb91ba38941a5dea141c041a31e8b008231221414d2db2c999a220b02206fcf21bc972c35246bf16358e43776ccb335386314a212d528f48bd24b0b8045012102f799414870e4be980b7f6df8f4009b60d9f6f6d3730523b5d6a2158bbe6d164bfdffffff02952fa900000000001976a9146f244d9f49f627b66b7451b88886c55d74e6fef488ac69846c010000000017a914252881ebe5d35823369fd1386b10ccd27da982938710490800", "vin": [{"sequence": 4294967293, "scriptSig": {"hex": "4730440220377cc28cdeb91ba38941a5dea141c041a31e8b008231221414d2db2c999a220b02206fcf21bc972c35246bf16358e43776ccb335386314a212d528f48bd24b0b8045012102f799414870e4be980b7f6df8f4009b60d9f6f6d3730523b5d6a2158bbe6d164b", "asm": "30440220377cc28cdeb91ba38941a5dea141c041a31e8b008231221414d2db2c999a220b02206fcf21bc972c35246bf16358e43776ccb335386314a212d528f48bd24b0b8045[ALL] 02f799414870e4be980b7f6df8f4009b60d9f6f6d3730523b5d6a2158bbe6d164b"}, "vout": 0, "txid": "3be18231717a4a92d616a2e403c97326cc7437908d67878efb0f0ca55542eb32"}], "txid": "0e7c3bc22d3388b8f481eb2cb67856dfb510162d82da319a7f7a9f41a61945b1", "blocktime": 1537872018, "version": 1, "confirmations": 11489, "time": 1537872018, "locktime": 542992, "vsize": 223, "size": 223}