{"hash": "0e88842b76d43a0b90246405e2ad89934cdc92548d041779a3e2411683d3746c", "blockhash": "0000000000000000001cda96e906b7601b7a6fb1a3b62bca570a9e5d8f4b3de1", "vout": [{"scriptPubKey": {"reqSigs": 1, "hex": "76a9140282c303e6ae7817fee1b285494298cab581edfd88ac", "addresses": ["1EGzsY34duv5t6EZ8rZ2S7teHkxEkfGcg"], "asm": "OP_DUP OP_HASH160 0282c303e6ae7817fee1b285494298cab581edfd OP_EQUALVERIFY OP_CHECKSIG", "type": "pubkeyhash"}, "value": 0.006295, "n": 0}, {"scriptPubKey": {"reqSigs": 1, "hex": "76a9144bb4c7290fcf51fd2d20430065040f8b121e00eb88ac", "addresses": ["17uJF4XjoxiKB4mFdRDPcRihac1S6Y3fDS"], "asm": "OP_DUP OP_HASH160 4bb4c7290fcf51fd2d20430065040f8b121e00eb OP_EQUALVERIFY OP_CHECKSIG", "type": "pubkeyhash"}, "value": 0.66294309, "n": 1}], "hex": "01000000012cd7eeea26995d0ad7570eec30d943360b937b9fc44d476d22743f8f83ddc104010000006a47304402205a49099326f46dce9a6fec5d1892133bd5b57134e702bf909fc58ee675331c5a022072af8f09bfa35b6cb220820ce738e18b5c30ed3e676c7800f470e8dc9db7ed1a012102075f681ea1a125cbdeb3e935f0031281e08d709f9d8aa150f14b88b907e69e42ffffffff02fc9a0900000000001976a9140282c303e6ae7817fee1b285494298cab581edfd88ac2592f303000000001976a9144bb4c7290fcf51fd2d20430065040f8b121e00eb88ac00000000", "vin": [{"sequence": 4294967295, "scriptSig": {"hex": "47304402205a49099326f46dce9a6fec5d1892133bd5b57134e702bf909fc58ee675331c5a022072af8f09bfa35b6cb220820ce738e18b5c30ed3e676c7800f470e8dc9db7ed1a012102075f681ea1a125cbdeb3e935f0031281e08d709f9d8aa150f14b88b907e69e42", "asm": "304402205a49099326f46dce9a6fec5d1892133bd5b57134e702bf909fc58ee675331c5a022072af8f09bfa35b6cb220820ce738e18b5c30ed3e676c7800f470e8dc9db7ed1a[ALL] 02075f681ea1a125cbdeb3e935f0031281e08d709f9d8aa150f14b88b907e69e42"}, "vout": 1, "txid": "04c1dd838f3f74226d474dc49f7b930b3643d930ec0e57d70a5d9926eaeed72c"}], "txid": "0e88842b76d43a0b90246405e2ad89934cdc92548d041779a3e2411683d3746c", "blocktime": 1537873282, "version": 1, "confirmations": 11484, "time": 1537873282, "locktime": 0, "vsize": 225, "size": 225}