{"hash": "0e902a07b87de6d4694ba1c33d759ca85c7a704cc90b11f97a80ced6a1c5dc72", "blockhash": "0000000000000000000dcc0f55137456b1a82d3642486a52398922ac4d620174", "vout": [{"scriptPubKey": {"reqSigs": 1, "hex": "76a914a55589de655a28d9146f3c420cab24d70f84531888ac", "addresses": ["1G5CxyXifxu6qyCoXtnuX4zhXJDpJWXqst"], "asm": "OP_DUP OP_HASH160 a55589de655a28d9146f3c420cab24d70f845318 OP_EQUALVERIFY OP_CHECKSIG", "type": "pubkeyhash"}, "value": 0.00611259, "n": 0}, {"scriptPubKey": {"reqSigs": 1, "hex": "76a91491ad8e08e4c335dae0dfca822f8ac5b3be7ade4c88ac", "addresses": ["1EHGtcizkgsY5MQDPzKfmVay8oqWhKDf9w"], "asm": "OP_DUP OP_HASH160 91ad8e08e4c335dae0dfca822f8ac5b3be7ade4c OP_EQUALVERIFY OP_CHECKSIG", "type": "pubkeyhash"}, "value": 0.05672927, "n": 1}], "hex": "0100000001ed52a52d877fa6ec0c08389d981b5ed33304990a7150575cbd1bb1603db0f99a010000006a473044022025cd55a32672b2172d5b2282b2e7ed05e62a0f6e23ee1d46577b16fe909f6b8e022012e7308f2eb6d970badb9c0366d15e67773ba9d6dad0c63f390abedc5a5754ad01210298f144997435454affb656da145f1108600a58330519f23a2f52c89a4729bbadffffffff02bb530900000000001976a914a55589de655a28d9146f3c420cab24d70f84531888acdf8f5600000000001976a91491ad8e08e4c335dae0dfca822f8ac5b3be7ade4c88ac00000000", "vin": [{"sequence": 4294967295, "scriptSig": {"hex": "473044022025cd55a32672b2172d5b2282b2e7ed05e62a0f6e23ee1d46577b16fe909f6b8e022012e7308f2eb6d970badb9c0366d15e67773ba9d6dad0c63f390abedc5a5754ad01210298f144997435454affb656da145f1108600a58330519f23a2f52c89a4729bbad", "asm": "3044022025cd55a32672b2172d5b2282b2e7ed05e62a0f6e23ee1d46577b16fe909f6b8e022012e7308f2eb6d970badb9c0366d15e67773ba9d6dad0c63f390abedc5a5754ad[ALL] 0298f144997435454affb656da145f1108600a58330519f23a2f52c89a4729bbad"}, "vout": 1, "txid": "9af9b03d60b11bbd5c5750710a990433d35e1b989d38080ceca67f872da552ed"}], "txid": "0e902a07b87de6d4694ba1c33d759ca85c7a704cc90b11f97a80ced6a1c5dc72", "blocktime": 1537870268, "version": 1, "confirmations": 11516, "time": 1537870268, "locktime": 0, "vsize": 225, "size": 225}