{"hash": "0e90f91c578150a8ac3ff36a7ddc19402b9cd734ae568df6cd6ef8b3ced2e69c", "blockhash": "00000000000000000017f5eb5941039fbcee6240d03bc1f2f8e35350df66a1d8", "vout": [{"scriptPubKey": {"reqSigs": 1, "hex": "76a914588d3055b12ad6fc7add798f600d26922919a34788ac", "addresses": ["195DbrP8bGznUSVLtvYoKRZ9uqmHwwC88v"], "asm": "OP_DUP OP_HASH160 588d3055b12ad6fc7add798f600d26922919a347 OP_EQUALVERIFY OP_CHECKSIG", "type": "pubkeyhash"}, "value": 0.07233472, "n": 0}, {"scriptPubKey": {"reqSigs": 1, "hex": "a914ddef2e5bfc74f392809be150aea1e7a6bdc6cb3887", "addresses": ["3MvVnXoKyeBBoetAJgRbv2XyvLNSs7Q98Q"], "asm": "OP_HASH160 ddef2e5bfc74f392809be150aea1e7a6bdc6cb38 OP_EQUAL", "type": "scripthash"}, "value": 0.00790934, "n": 1}, {"scriptPubKey": {"reqSigs": 1, "hex": "a914d10d30be61f8c853f9f61e11cf92c2a3b4e75ef287", "addresses": ["3LkNx81iRcaHFJy5rdcFksPNXg9F8KnJvW"], "asm": "OP_HASH160 d10d30be61f8c853f9f61e11cf92c2a3b4e75ef2 OP_EQUAL", "type": "scripthash"}, "value": 0.00183867, "n": 2}, {"scriptPubKey": {"reqSigs": 1, "hex": "76a91454c12568ba6b484978b2bdda4a818ccdfe7bcb3188ac", "addresses": ["18j999Eyj3vGzwq3AjR6DycF5Gmpe3QnoZ"], "asm": "OP_DUP OP_HASH160 54c12568ba6b484978b2bdda4a818ccdfe7bcb31 OP_EQUALVERIFY OP_CHECKSIG", "type": "pubkeyhash"}, "value": 9.60872487, "n": 3}], "hex": "0100000001be6513a1e743c0eebd6937b9ab0a6f10a112152055cbb78cb184eab2a1875295010000006a47304402204dd91bcf9f6edeab3813ee9bc6d4d2611148f898fe9815fcafb53ea4c5c2e66802205452df65c80ff1112751d59ac8e12cc362151e8610f4c211d0779749d93ee12d012103d378caf0607c90711237da576139fbd035715c7bdac9d9caf4e6db1e17f28f5bffffffff04c05f6e00000000001976a914588d3055b12ad6fc7add798f600d26922919a34788ac96110c000000000017a914ddef2e5bfc74f392809be150aea1e7a6bdc6cb38873bce02000000000017a914d10d30be61f8c853f9f61e11cf92c2a3b4e75ef28727c04539000000001976a91454c12568ba6b484978b2bdda4a818ccdfe7bcb3188ac00000000", "vin": [{"sequence": 4294967295, "scriptSig": {"hex": "47304402204dd91bcf9f6edeab3813ee9bc6d4d2611148f898fe9815fcafb53ea4c5c2e66802205452df65c80ff1112751d59ac8e12cc362151e8610f4c211d0779749d93ee12d012103d378caf0607c90711237da576139fbd035715c7bdac9d9caf4e6db1e17f28f5b", "asm": "304402204dd91bcf9f6edeab3813ee9bc6d4d2611148f898fe9815fcafb53ea4c5c2e66802205452df65c80ff1112751d59ac8e12cc362151e8610f4c211d0779749d93ee12d[ALL] 03d378caf0607c90711237da576139fbd035715c7bdac9d9caf4e6db1e17f28f5b"}, "vout": 1, "txid": "955287a1b2ea84b18cb7cb55201512a1106f0aabb93769bdeec043e7a11365be"}], "txid": "0e90f91c578150a8ac3ff36a7ddc19402b9cd734ae568df6cd6ef8b3ced2e69c", "blocktime": 1537874412, "version": 1, "confirmations": 11466, "time": 1537874412, "locktime": 0, "vsize": 289, "size": 289}