{"hash": "2f7839e839625454b29bb574c8ded2046b8e615ec78dfe00f63853a1cc92d800", "blockhash": "0000000000000000000dcc0f55137456b1a82d3642486a52398922ac4d620174", "vout": [{"scriptPubKey": {"reqSigs": 1, "hex": "a9149f6bc36ecaeae3a708cf76f3fc6547896cd9f0f787", "addresses": ["3GDxTaTkeLvqnbskvN5tinisNDfxdyAXCC"], "asm": "OP_HASH160 9f6bc36ecaeae3a708cf76f3fc6547896cd9f0f7 OP_EQUAL", "type": "scripthash"}, "value": 0.0005, "n": 0}, {"scriptPubKey": {"reqSigs": 1, "hex": "a9141d7370ccde4590204155e4074f69743a8e4fac0287", "addresses": ["34Njp4ZKtmCDfqqps26wHBYQQGUo2pGkLi"], "asm": "OP_HASH160 1d7370ccde4590204155e4074f69743a8e4fac02 OP_EQUAL", "type": "scripthash"}, "value": 0.00048137, "n": 1}], "hex": "0100000000010267a73f46c5c2ec0420c7d74882aa37f2a31eac31ba9c77b12303147cd967222400000000232200202a9a1aa43dd52fca361d638a9bb1c7c7a7b32bed598a04104268b8ecbdbfe96fffffffff65cc8227d2207dd5c6e9a75b3fe75dc9e95b2bc88043f5a6afb0c6d5bbbd63f40000000023220020f63dfc12340f6360d0251c22746d6b56093e3243e96ca012a65484a5d9cf0ec0ffffffff0250c300000000000017a9149f6bc36ecaeae3a708cf76f3fc6547896cd9f0f78709bc00000000000017a9141d7370ccde4590204155e4074f69743a8e4fac02870400473044022046ff489dd83e42fa52190a50e777e26a2d2118a03fcefc08b4118c9f6271bd1c022045f8bd14a1441942c818bf882a0d5245e4586731106180c7acca870dd701748301473044022032480c2b9bc4fb48e756e6d31f2e52715641b16c15ffaeed93feaa21bc16b75e02203930f89571496f76862b1250b1ad43639243ad3fdcfd7b73deb05281af8aa3100147522103ea39afa13bfc0b16775c1ffdd58dbb69a77441d8211cfd208f16ac7437c451312103338f346cab6ba87fe940591a03ac234be06520c5ab386d4b6632e8eef0d0db7652ae04004730440220442834e4e85a41a236ea02776432fcef73d04d9d588dccbca50b988347fbb98a022071a841abe1981d5865503a8064efc4e220f84b482514148f976bd7e2ff5831df0147304402203a772cd6622cb08912d2a6700348e802e1ee7d2ecdd0df0f52fa5d79c46075e302201a83e0ae99d15142dcb01d00819b0da3fba5a328f624a2665be72532e36769190147522102097067a6a0cc130a9a6f6577b47bf369b840a79de31cd7457187994266b1bb7c2103338f346cab6ba87fe940591a03ac234be06520c5ab386d4b6632e8eef0d0db7652ae00000000", "vin": [{"txinwitness": ["", "3044022046ff489dd83e42fa52190a50e777e26a2d2118a03fcefc08b4118c9f6271bd1c022045f8bd14a1441942c818bf882a0d5245e4586731106180c7acca870dd701748301", "3044022032480c2b9bc4fb48e756e6d31f2e52715641b16c15ffaeed93feaa21bc16b75e02203930f89571496f76862b1250b1ad43639243ad3fdcfd7b73deb05281af8aa31001", "522103ea39afa13bfc0b16775c1ffdd58dbb69a77441d8211cfd208f16ac7437c451312103338f346cab6ba87fe940591a03ac234be06520c5ab386d4b6632e8eef0d0db7652ae"], "sequence": 4294967295, "scriptSig": {"hex": "2200202a9a1aa43dd52fca361d638a9bb1c7c7a7b32bed598a04104268b8ecbdbfe96f", "asm": "00202a9a1aa43dd52fca361d638a9bb1c7c7a7b32bed598a04104268b8ecbdbfe96f"}, "vout": 0, "txid": "242267d97c140323b1779cba31ac1ea3f237aa8248d7c72004ecc2c5463fa767"}, {"txinwitness": ["", "30440220442834e4e85a41a236ea02776432fcef73d04d9d588dccbca50b988347fbb98a022071a841abe1981d5865503a8064efc4e220f84b482514148f976bd7e2ff5831df01", "304402203a772cd6622cb08912d2a6700348e802e1ee7d2ecdd0df0f52fa5d79c46075e302201a83e0ae99d15142dcb01d00819b0da3fba5a328f624a2665be72532e367691901", "522102097067a6a0cc130a9a6f6577b47bf369b840a79de31cd7457187994266b1bb7c2103338f346cab6ba87fe940591a03ac234be06520c5ab386d4b6632e8eef0d0db7652ae"], "sequence": 4294967295, "scriptSig": {"hex": "220020f63dfc12340f6360d0251c22746d6b56093e3243e96ca012a65484a5d9cf0ec0", "asm": "0020f63dfc12340f6360d0251c22746d6b56093e3243e96ca012a65484a5d9cf0ec0"}, "vout": 0, "txid": "f463bdbbd5c6b0afa6f54380c82b5be9c95de73f5ba7e9c6d57d20d22782cc65"}], "txid": "0e927f8412c2a18522625181b9f9212281c96697104ba588464a77b191bb5abc", "blocktime": 1537870268, "version": 1, "confirmations": 11518, "time": 1537870268, "locktime": 0, "vsize": 336, "size": 664}