{"hash": "ba3a9290fcc080a4508cd1a46d08b3b7e20038992b00e1da295db5a0fa5c56af", "blockhash": "0000000000000000000e13cef7c366c0283d82e591d1acd082e914b08063cdf1", "vout": [{"scriptPubKey": {"reqSigs": 1, "hex": "a914c19e4595380bddb995fa78a04a3433a68d812a1b87", "addresses": ["3KLmwV5wZZ74jrLeszXEBnR4ZBZNzM3hgH"], "asm": "OP_HASH160 c19e4595380bddb995fa78a04a3433a68d812a1b OP_EQUAL", "type": "scripthash"}, "value": 0.00095179, "n": 0}, {"scriptPubKey": {"reqSigs": 1, "hex": "a914a5cb6d8c4286a5de7fe0921dde3267adc77ff9ed87", "addresses": ["3Gof7cexUxQWMSB5e4adGtarBJDNNv4Vjy"], "asm": "OP_HASH160 a5cb6d8c4286a5de7fe0921dde3267adc77ff9ed OP_EQUAL", "type": "scripthash"}, "value": 0.00772598, "n": 1}], "hex": "01000000000101224e6a7f3c4eb794fa5cb714975345d40e8bc57400b3eb89e2808e4269174d8a0100000023220020b3338f9571dda5ad799834148ea1ed19d1123924bdbb356e0c8c610b69cfd906ffffffff02cb7301000000000017a914c19e4595380bddb995fa78a04a3433a68d812a1b87f6c90b000000000017a914a5cb6d8c4286a5de7fe0921dde3267adc77ff9ed8704004830450221009b076410db579fa5f0f6d42b50fe6357ba648e594ad21c2ef498137982d4021702200225da9ddb43fb09f864652c2d1a87ba12bfced5ace9217bed6587b2f1321d9701483045022100d204b680db450f1d58af92514b3bc815bd3d3ea8d337b0836c1bc52529ac27bc022057db50f6e4c993be255f8f672099d012f5c542f08f4e8795d0388dfc0ca3dd7201475221030c187397a5b8dfedda9f5fedc3a23f7c20923351690c4b0247f9bce94499c4202103871fc2ca08e6950b38867e8e6a0e94ee625223d3aa0df5c65f414c6d784467e252ae00000000", "vin": [{"txinwitness": ["", "30450221009b076410db579fa5f0f6d42b50fe6357ba648e594ad21c2ef498137982d4021702200225da9ddb43fb09f864652c2d1a87ba12bfced5ace9217bed6587b2f1321d9701", "3045022100d204b680db450f1d58af92514b3bc815bd3d3ea8d337b0836c1bc52529ac27bc022057db50f6e4c993be255f8f672099d012f5c542f08f4e8795d0388dfc0ca3dd7201", "5221030c187397a5b8dfedda9f5fedc3a23f7c20923351690c4b0247f9bce94499c4202103871fc2ca08e6950b38867e8e6a0e94ee625223d3aa0df5c65f414c6d784467e252ae"], "sequence": 4294967295, "scriptSig": {"hex": "220020b3338f9571dda5ad799834148ea1ed19d1123924bdbb356e0c8c610b69cfd906", "asm": "0020b3338f9571dda5ad799834148ea1ed19d1123924bdbb356e0c8c610b69cfd906"}, "vout": 1, "txid": "8a4d1769428e80e289ebb30074c58b0ed445539714b75cfa94b74e3c7f6a4e22"}], "txid": "0e95307df193f94be623711acd584bdfa2fdf383585945290fa5f70e8b33ab2a", "blocktime": 1537871767, "version": 1, "confirmations": 11495, "time": 1537871767, "locktime": 0, "vsize": 206, "size": 372}