{"hash": "0e974b37b4e139942c60272bab918ebcaa789cf2d05690d325303e65521f9717", "blockhash": "000000000000000000022b45ed06c6f4ccd3cf7fb5ba4856ebd2e58215665228", "vout": [{"scriptPubKey": {"reqSigs": 1, "hex": "76a91486080360f7ab985d8592ec2808b0fea5d107c35688ac", "addresses": ["1DDh9UP1LNg9mKof3iKEJqdHTvGuccaXp6"], "asm": "OP_DUP OP_HASH160 86080360f7ab985d8592ec2808b0fea5d107c356 OP_EQUALVERIFY OP_CHECKSIG", "type": "pubkeyhash"}, "value": 0.00199774, "n": 0}], "hex": "020000000170aa3864097730e57b9fa9a1ef929994033956ae8469471ee57e1580d58697eb010000006b4830450221009f299f301c39dce87c4c0e5b081bc610baa39f23deb9a3e675905301f719ff0c022032fb3181c953015f47b93452bb0bc8a7956d51f2d5fe562e08bf5229e92a630001210286554b28070a60695bfae780feb41cf40c3973e2e1cfb4d70b046264edb0903effffffff015e0c0300000000001976a91486080360f7ab985d8592ec2808b0fea5d107c35688ac00000000", "vin": [{"sequence": 4294967295, "scriptSig": {"hex": "4830450221009f299f301c39dce87c4c0e5b081bc610baa39f23deb9a3e675905301f719ff0c022032fb3181c953015f47b93452bb0bc8a7956d51f2d5fe562e08bf5229e92a630001210286554b28070a60695bfae780feb41cf40c3973e2e1cfb4d70b046264edb0903e", "asm": "30450221009f299f301c39dce87c4c0e5b081bc610baa39f23deb9a3e675905301f719ff0c022032fb3181c953015f47b93452bb0bc8a7956d51f2d5fe562e08bf5229e92a6300[ALL] 0286554b28070a60695bfae780feb41cf40c3973e2e1cfb4d70b046264edb0903e"}, "vout": 1, "txid": "eb9786d580157ee51e476984ae563903949992efa1a99f7be53077096438aa70"}], "txid": "0e974b37b4e139942c60272bab918ebcaa789cf2d05690d325303e65521f9717", "blocktime": 1537869901, "version": 2, "confirmations": 11524, "time": 1537869901, "locktime": 0, "vsize": 192, "size": 192}