{"hash": "0e991ef9495045f0d8713c886eaffe76159014a6272503134547f0c9b67de3e7", "blockhash": "0000000000000000001f76057863aec43deb6fa401d9628bb513d65a8098bfab", "vout": [{"scriptPubKey": {"reqSigs": 1, "hex": "0014420fbb3dfb8a856382e92c250c5f19463c1cd22f", "addresses": ["bc1qgg8mk00m32zk8qhf9sjschcegc7pe5308dh527"], "asm": "0 420fbb3dfb8a856382e92c250c5f19463c1cd22f", "type": "witness_v0_keyhash"}, "value": 2.161e-05, "n": 0}, {"scriptPubKey": {"reqSigs": 1, "hex": "a9147b4d1bd30130b10472f93849fda1d8aa8ffac79987", "addresses": ["3CvyQk8j3u3gvmvDzbCVAKfPVWnEFWf3pn"], "asm": "OP_HASH160 7b4d1bd30130b10472f93849fda1d8aa8ffac799 OP_EQUAL", "type": "scripthash"}, "value": 0.00286584, "n": 1}], "hex": "0100000001efdc1e10c966b73b32a57a0bc2ab33f8978488f8c4cc73ce72e6fc56ef846bbe5c0100006a47304402205ad10b134f9e419c359da7c8ca15c561ad6236331c53362d76b0cd04eb2389c902200b8f2034beb24726a8b22e86f0adeb8ab5f6967c5eed2e75f72ce548dab8ed7f0121036945162b1ca6c05cecdeb49e1b412a2f14afaf3d354d7968d31055cfd18a2a36ffffffff027108000000000000160014420fbb3dfb8a856382e92c250c5f19463c1cd22f785f04000000000017a9147b4d1bd30130b10472f93849fda1d8aa8ffac7998700000000", "vin": [{"sequence": 4294967295, "scriptSig": {"hex": "47304402205ad10b134f9e419c359da7c8ca15c561ad6236331c53362d76b0cd04eb2389c902200b8f2034beb24726a8b22e86f0adeb8ab5f6967c5eed2e75f72ce548dab8ed7f0121036945162b1ca6c05cecdeb49e1b412a2f14afaf3d354d7968d31055cfd18a2a36", "asm": "304402205ad10b134f9e419c359da7c8ca15c561ad6236331c53362d76b0cd04eb2389c902200b8f2034beb24726a8b22e86f0adeb8ab5f6967c5eed2e75f72ce548dab8ed7f[ALL] 036945162b1ca6c05cecdeb49e1b412a2f14afaf3d354d7968d31055cfd18a2a36"}, "vout": 348, "txid": "be6b84ef56fce672ce73ccc4f8888497f833abc20b7aa5323bb766c9101edcef"}], "txid": "0e991ef9495045f0d8713c886eaffe76159014a6272503134547f0c9b67de3e7", "blocktime": 1537873891, "version": 1, "confirmations": 11478, "time": 1537873891, "locktime": 0, "vsize": 220, "size": 220}