{"hash": "0e9cd9c572d6df2b138953235006e76f4690193a764d992a0365142395c284bf", "blockhash": "00000000000000000018f53835495a110e01622372bf6ae95dc86f2b0ab887b0", "vout": [{"scriptPubKey": {"reqSigs": 1, "hex": "a914032b655c82bcb251835ac2f28f42f1881035563f87", "addresses": ["31ymwKeBZLDJAo3Khwo6a3v6Bq1Ft7BYmU"], "asm": "OP_HASH160 032b655c82bcb251835ac2f28f42f1881035563f OP_EQUAL", "type": "scripthash"}, "value": 0.01955161, "n": 0}], "hex": "0100000001eb353a76258fe1bf431f2da822de09e1d9ca66e7da7585f5b2f45fd8d1ae09650a0000006b483045022100c375fd73f1666bbfde7717a3426b742acad046297d7c40b7996d775567ee412302203bee2d6b449fb654e906b5bbd3de8ecce100fcf2444ccf02da428aa566bb76c20121024231863a6cd2d19898c7844b603d90ea556b47848b22b93b5ead0435538eefd8ffffffff0159d51d000000000017a914032b655c82bcb251835ac2f28f42f1881035563f8700000000", "vin": [{"sequence": 4294967295, "scriptSig": {"hex": "483045022100c375fd73f1666bbfde7717a3426b742acad046297d7c40b7996d775567ee412302203bee2d6b449fb654e906b5bbd3de8ecce100fcf2444ccf02da428aa566bb76c20121024231863a6cd2d19898c7844b603d90ea556b47848b22b93b5ead0435538eefd8", "asm": "3045022100c375fd73f1666bbfde7717a3426b742acad046297d7c40b7996d775567ee412302203bee2d6b449fb654e906b5bbd3de8ecce100fcf2444ccf02da428aa566bb76c2[ALL] 024231863a6cd2d19898c7844b603d90ea556b47848b22b93b5ead0435538eefd8"}, "vout": 10, "txid": "6509aed1d85ff4b2f58575dae766cad9e109de22a82d1f43bfe18f25763a35eb"}], "txid": "0e9cd9c572d6df2b138953235006e76f4690193a764d992a0365142395c284bf", "blocktime": 1537870928, "version": 1, "confirmations": 11512, "time": 1537870928, "locktime": 0, "vsize": 190, "size": 190}