{"hash": "0e9c4c0d5c6fe14828e3abb6b3df6444bbeabdd581c52034c20e2c6b629e25dc", "blockhash": "0000000000000000001f0ddff1eddb255c1121bcd4da4f1bc9a0da00cae72433", "vout": [{"scriptPubKey": {"reqSigs": 1, "hex": "76a914b8ecb411e924108c4deec197b36ac39e1fae21f688ac", "addresses": ["1Hrntjm4eGBDAeTb8ymqTbLPxLUeWrAiFm"], "asm": "OP_DUP OP_HASH160 b8ecb411e924108c4deec197b36ac39e1fae21f6 OP_EQUALVERIFY OP_CHECKSIG", "type": "pubkeyhash"}, "value": 0.01028775, "n": 0}], "hex": "0100000003ebfd8aaec46f0d3229a2d7f023a05b2edafed6e775b9a0b66285532fef794f6a000000006b483045022100fe113a7c8f916cebce79226282b39df3bbf7da42865be60a1ec817dedcfe92be0220452062a58a63b5395d5dfd444919138150e9c32f209d364e7fbe91b5c69b15570121034a8fb41a4cfaec232c8557ad96b97daa1b429e34c3afbb940269ee8fb1e180c8fffffffff22bc89865d0187cb118caf6382484e0fb39f0ba26be74ca46bc877073156678000000006b483045022100a9b34255568ee47bafd93f00283818cb02f46cef28a06903889d7ba1782ef7510220468ef1da4b505499238b89cb8477f19dc638b5c963c858c4db5de0a9595cbc820121038ce64f7691b9061ee08c180432d6f51778c6d84e110ebc69a1b27c3be4294469ffffffffb242fca49387741cc40dd7f418f1d343c003f0c375e5e200c63c12ea49d3f9ca000000006b483045022100fa7e59c43aabf4787116e1fa7ee13879555ef7819d1d9176b9d3097ab1afb62e02205a93aef3c0c1412c21711cc6483235a82109705683418188aa6a30ca290539c2012102780a45ab35d15be8f9bd3a43f8709668f3bbf500ae669fbd110f58a8d7dbf873ffffffff01a7b20f00000000001976a914b8ecb411e924108c4deec197b36ac39e1fae21f688ac00000000", "vin": [{"sequence": 4294967295, "scriptSig": {"hex": "483045022100fe113a7c8f916cebce79226282b39df3bbf7da42865be60a1ec817dedcfe92be0220452062a58a63b5395d5dfd444919138150e9c32f209d364e7fbe91b5c69b15570121034a8fb41a4cfaec232c8557ad96b97daa1b429e34c3afbb940269ee8fb1e180c8", "asm": "3045022100fe113a7c8f916cebce79226282b39df3bbf7da42865be60a1ec817dedcfe92be0220452062a58a63b5395d5dfd444919138150e9c32f209d364e7fbe91b5c69b1557[ALL] 034a8fb41a4cfaec232c8557ad96b97daa1b429e34c3afbb940269ee8fb1e180c8"}, "vout": 0, "txid": "6a4f79ef2f538562b6a0b975e7d6feda2e5ba023f0d7a229320d6fc4ae8afdeb"}, {"sequence": 4294967295, "scriptSig": {"hex": "483045022100a9b34255568ee47bafd93f00283818cb02f46cef28a06903889d7ba1782ef7510220468ef1da4b505499238b89cb8477f19dc638b5c963c858c4db5de0a9595cbc820121038ce64f7691b9061ee08c180432d6f51778c6d84e110ebc69a1b27c3be4294469", "asm": "3045022100a9b34255568ee47bafd93f00283818cb02f46cef28a06903889d7ba1782ef7510220468ef1da4b505499238b89cb8477f19dc638b5c963c858c4db5de0a9595cbc82[ALL] 038ce64f7691b9061ee08c180432d6f51778c6d84e110ebc69a1b27c3be4294469"}, "vout": 0, "txid": "786615737087bc46ca74be26baf039fbe0842438f6ca18b17c18d06598c82bf2"}, {"sequence": 4294967295, "scriptSig": {"hex": "483045022100fa7e59c43aabf4787116e1fa7ee13879555ef7819d1d9176b9d3097ab1afb62e02205a93aef3c0c1412c21711cc6483235a82109705683418188aa6a30ca290539c2012102780a45ab35d15be8f9bd3a43f8709668f3bbf500ae669fbd110f58a8d7dbf873", "asm": "3045022100fa7e59c43aabf4787116e1fa7ee13879555ef7819d1d9176b9d3097ab1afb62e02205a93aef3c0c1412c21711cc6483235a82109705683418188aa6a30ca290539c2[ALL] 02780a45ab35d15be8f9bd3a43f8709668f3bbf500ae669fbd110f58a8d7dbf873"}, "vout": 0, "txid": "caf9d349ea123cc600e2e575c3f003c043d3f118f4d70dc41c748793a4fc42b2"}], "txid": "0e9c4c0d5c6fe14828e3abb6b3df6444bbeabdd581c52034c20e2c6b629e25dc", "blocktime": 1537872018, "version": 1, "confirmations": 11489, "time": 1537872018, "locktime": 0, "vsize": 488, "size": 488}