{"hash": "0ea28ca97c06ebb3779c612798e01a28b20e56de557660b41dee09d626322b49", "blockhash": "0000000000000000001cda96e906b7601b7a6fb1a3b62bca570a9e5d8f4b3de1", "vout": [{"scriptPubKey": {"reqSigs": 1, "hex": "76a9149a26b11fa4767e0b1421eaaa47d247699ccee5fa88ac", "addresses": ["1F45QuHYAPEfoDi8dzbhpjuE38kSXMA5Y9"], "asm": "OP_DUP OP_HASH160 9a26b11fa4767e0b1421eaaa47d247699ccee5fa OP_EQUALVERIFY OP_CHECKSIG", "type": "pubkeyhash"}, "value": 0.01484238, "n": 0}, {"scriptPubKey": {"reqSigs": 1, "hex": "76a91409398b5099d6634d035da87afd138844490c580c88ac", "addresses": ["1qn1y7dWThqjL6syJCJd7aUHFGfFSWzBT"], "asm": "OP_DUP OP_HASH160 09398b5099d6634d035da87afd138844490c580c OP_EQUALVERIFY OP_CHECKSIG", "type": "pubkeyhash"}, "value": 0.01215, "n": 1}], "hex": "0200000001c94e8c74799a572d24733441d7acd5866318465b896cb2281c09bcbeded89f058f0000006a473044022024be3dd564b2bbc5f3ca82d0f2b737f5c4300d8a6ded6eb73277938668f6fa80022008538c2fabfacf054435a35d3c456e198990606b6f3448f5b912668c6812e45d012103d97aeb62cd355fdbeb46fd0ceeef34a4fa18b7bbc00bc0faed42cb063760a333feffffff02cea51600000000001976a9149a26b11fa4767e0b1421eaaa47d247699ccee5fa88ac188a1200000000001976a91409398b5099d6634d035da87afd138844490c580c88ac13490800", "vin": [{"sequence": 4294967294, "scriptSig": {"hex": "473044022024be3dd564b2bbc5f3ca82d0f2b737f5c4300d8a6ded6eb73277938668f6fa80022008538c2fabfacf054435a35d3c456e198990606b6f3448f5b912668c6812e45d012103d97aeb62cd355fdbeb46fd0ceeef34a4fa18b7bbc00bc0faed42cb063760a333", "asm": "3044022024be3dd564b2bbc5f3ca82d0f2b737f5c4300d8a6ded6eb73277938668f6fa80022008538c2fabfacf054435a35d3c456e198990606b6f3448f5b912668c6812e45d[ALL] 03d97aeb62cd355fdbeb46fd0ceeef34a4fa18b7bbc00bc0faed42cb063760a333"}, "vout": 143, "txid": "059fd8debebc091c28b26c895b46186386d5acd7413473242d579a79748c4ec9"}], "txid": "0ea28ca97c06ebb3779c612798e01a28b20e56de557660b41dee09d626322b49", "blocktime": 1537873282, "version": 2, "confirmations": 11484, "time": 1537873282, "locktime": 542995, "vsize": 225, "size": 225}