{"hash": "455beadbf6c14fbbaf3b650b514e5e289af62964e5b7f8aed10e05c035b265c2", "blockhash": "0000000000000000001f76057863aec43deb6fa401d9628bb513d65a8098bfab", "vout": [{"scriptPubKey": {"reqSigs": 1, "hex": "a914c66671b5302ccfa04f3a2f457f9868cb988e861287", "addresses": ["3Kn4SUKvyaPwBqMCPgY7B5QJMWsM7HTwcy"], "asm": "OP_HASH160 c66671b5302ccfa04f3a2f457f9868cb988e8612 OP_EQUAL", "type": "scripthash"}, "value": 0.01073589, "n": 0}, {"scriptPubKey": {"reqSigs": 1, "hex": "76a914d1ab23934ae885ed0c22da3ba2e43c41b31a7cec88ac", "addresses": ["1L7dF37SCJkEQeUoDQypmisVgw265YjH6o"], "asm": "OP_DUP OP_HASH160 d1ab23934ae885ed0c22da3ba2e43c41b31a7cec OP_EQUALVERIFY OP_CHECKSIG", "type": "pubkeyhash"}, "value": 0.11223807, "n": 1}], "hex": "020000000001020c5afe811e627fbe58125a9d3053c936700f3c3ef95cc39b6450101a212c7af0010000001716001472e7c6420ccce825fb6e5635737451ef6303f44cfdffffff9116fbf8788eee243258ebc133d3a0439e8e4b817ac9bca319c03b08dbbb127f00000000171600145eef181bfcfea12b657fc96b179c1793cf51bfe1fdffffff02b56110000000000017a914c66671b5302ccfa04f3a2f457f9868cb988e861287ff42ab00000000001976a914d1ab23934ae885ed0c22da3ba2e43c41b31a7cec88ac024830450221008794ce78e5a4535c31f0be0666c5e917de4e705234a5983308d9d3770890162a0220490cb140aeedf6e4bb3cc788c30b7f8f71d44665d77f6761d3152516bf22947c012103701ce11badeaf538a8421759ceb5916bf68650cf4742b8e950e67367049c853e02483045022100e58ad086db502fff99c4b9e4cd3b62625cc81b4f5864f25c242049cad17250c402207587160ed2545ee3fcef081c6b9b60e3f13e684d4a949462d8f9116a5d6b7896012103f3c7507adbeb7d14e25d39d02a53a9e2485f8a77ffd28015b5d0ce5ea1e6695514490800", "vin": [{"txinwitness": ["30450221008794ce78e5a4535c31f0be0666c5e917de4e705234a5983308d9d3770890162a0220490cb140aeedf6e4bb3cc788c30b7f8f71d44665d77f6761d3152516bf22947c01", "03701ce11badeaf538a8421759ceb5916bf68650cf4742b8e950e67367049c853e"], "sequence": 4294967293, "scriptSig": {"hex": "16001472e7c6420ccce825fb6e5635737451ef6303f44c", "asm": "001472e7c6420ccce825fb6e5635737451ef6303f44c"}, "vout": 1, "txid": "f07a2c211a1050649bc35cf93e3c0f7036c953309d5a1258be7f621e81fe5a0c"}, {"txinwitness": ["3045022100e58ad086db502fff99c4b9e4cd3b62625cc81b4f5864f25c242049cad17250c402207587160ed2545ee3fcef081c6b9b60e3f13e684d4a949462d8f9116a5d6b789601", "03f3c7507adbeb7d14e25d39d02a53a9e2485f8a77ffd28015b5d0ce5ea1e66955"], "sequence": 4294967293, "scriptSig": {"hex": "1600145eef181bfcfea12b657fc96b179c1793cf51bfe1", "asm": "00145eef181bfcfea12b657fc96b179c1793cf51bfe1"}, "vout": 0, "txid": "7f12bbdb083bc019a3bcc97a814b8e9e43a0d333c1eb583224ee8e78f8fb1691"}], "txid": "0ea579c67485ccd26e199f08a403c5726c453ff083c165c640260743fb382405", "blocktime": 1537873891, "version": 2, "confirmations": 11478, "time": 1537873891, "locktime": 542996, "vsize": 259, "size": 422}