{"hash": "0ea7ec80fd781056377497e49e7fa8441c4baf895b9e46f1bc9ae0161aa44139", "blockhash": "0000000000000000001cda96e906b7601b7a6fb1a3b62bca570a9e5d8f4b3de1", "vout": [{"scriptPubKey": {"type": "nulldata", "hex": "6a4c50000077c80001624eaac1c35f8ee7303417685b23cc0f42c2fc38c5e5bf9ae76da98a211a39811c1665291878898fab1d3ea6421b5baa13a10612c5e3025f34a71d100759d4ba30d2c37bb011d97e02cf", "asm": "OP_RETURN 000077c80001624eaac1c35f8ee7303417685b23cc0f42c2fc38c5e5bf9ae76da98a211a39811c1665291878898fab1d3ea6421b5baa13a10612c5e3025f34a71d100759d4ba30d2c37bb011d97e02cf"}, "value": 0.0, "n": 0}, {"scriptPubKey": {"reqSigs": 1, "hex": "76a91450fb3364fa91c8bf7151f9c60eb50a15cbb8a4e788ac", "addresses": ["18PBz5i8emMNv5Q6gfdParhHiGGo39FDG3"], "asm": "OP_DUP OP_HASH160 50fb3364fa91c8bf7151f9c60eb50a15cbb8a4e7 OP_EQUALVERIFY OP_CHECKSIG", "type": "pubkeyhash"}, "value": 0.00638761, "n": 1}], "hex": "0100000001d4c8fd15d709e07459c366c63c60fa143a918482e4cf094b1253329544dfd5f0000000006b483045022100b37d41af86b6bbec030a27fd29d14a1f07d111dcb86154abf1dd23978513974802204a01b784638c096f29ee8499f7cb600285d6874b98c89988d565ad1972374856012103b261593717e1e6152b0ca1ce002f4b04987b400ef93af99a3e9ffd9b45fde514ffffffff020000000000000000536a4c50000077c80001624eaac1c35f8ee7303417685b23cc0f42c2fc38c5e5bf9ae76da98a211a39811c1665291878898fab1d3ea6421b5baa13a10612c5e3025f34a71d100759d4ba30d2c37bb011d97e02cf29bf0900000000001976a91450fb3364fa91c8bf7151f9c60eb50a15cbb8a4e788ac00000000", "vin": [{"sequence": 4294967295, "scriptSig": {"hex": "483045022100b37d41af86b6bbec030a27fd29d14a1f07d111dcb86154abf1dd23978513974802204a01b784638c096f29ee8499f7cb600285d6874b98c89988d565ad1972374856012103b261593717e1e6152b0ca1ce002f4b04987b400ef93af99a3e9ffd9b45fde514", "asm": "3045022100b37d41af86b6bbec030a27fd29d14a1f07d111dcb86154abf1dd23978513974802204a01b784638c096f29ee8499f7cb600285d6874b98c89988d565ad1972374856[ALL] 03b261593717e1e6152b0ca1ce002f4b04987b400ef93af99a3e9ffd9b45fde514"}, "vout": 0, "txid": "f0d5df44953253124b09cfe48284913a14fa603cc666c35974e009d715fdc8d4"}], "txid": "0ea7ec80fd781056377497e49e7fa8441c4baf895b9e46f1bc9ae0161aa44139", "blocktime": 1537873282, "version": 1, "confirmations": 11484, "time": 1537873282, "locktime": 0, "vsize": 284, "size": 284}