{"hash": "0eabdd4df2c775d15e5f9393b2fe7e1594bb7a8925decd7464e04e199ce4eb92", "blockhash": "0000000000000000000e13cef7c366c0283d82e591d1acd082e914b08063cdf1", "vout": [{"scriptPubKey": {"reqSigs": 1, "hex": "76a9147e882b0fdba576a9bcd16618f9243a15279e243388ac", "addresses": ["1CY3GJcutDNVjLg3c2FB7dfZNYWAivY6Th"], "asm": "OP_DUP OP_HASH160 7e882b0fdba576a9bcd16618f9243a15279e2433 OP_EQUALVERIFY OP_CHECKSIG", "type": "pubkeyhash"}, "value": 8.67e-06, "n": 0}, {"scriptPubKey": {"reqSigs": 1, "hex": "a914c78af6412ffb0b21e1d04549f5627f9a131f748e87", "addresses": ["3Kt6rxmWSEQvTft2Sj1wG9UA3ojjbozz3K"], "asm": "OP_HASH160 c78af6412ffb0b21e1d04549f5627f9a131f748e OP_EQUAL", "type": "scripthash"}, "value": 0.00437348, "n": 1}], "hex": "0100000002eb1b327f12a9b47ccc683326db36621a4fa1c7aa9aac6ae9fc66b6ac580a399e000000006b483045022100c5c073a4a16ac9717cbac194159a569607d5e3ae67b037b8892931111659f162022003b6e090e25f7f6233140640619e0257916845fe5f40f3ef8044ddf37aee623a012102c5c41c100d4fc4ca0e0d9aef5df1929325f180cb6b77179446bb8c0e2be12990ffffffffe5154dc002b030802e0f9cb9513927b2ff99e3f21911fbed83d774883d02b5e7010000006b483045022100bd94a0a0c3082d955befcef9fa065d585d1c9fa7fddb3b6db2f1203397c3a211022031c61e11784a2091a85b105552d6768538a75228c6b531d327640b7179b4a64601210246124d2b76095bcf7c5437ca15afc16656ecc0036fa4cd0a33f04c36e303c7b7ffffffff0263030000000000001976a9147e882b0fdba576a9bcd16618f9243a15279e243388ac64ac06000000000017a914c78af6412ffb0b21e1d04549f5627f9a131f748e8700000000", "vin": [{"sequence": 4294967295, "scriptSig": {"hex": "483045022100c5c073a4a16ac9717cbac194159a569607d5e3ae67b037b8892931111659f162022003b6e090e25f7f6233140640619e0257916845fe5f40f3ef8044ddf37aee623a012102c5c41c100d4fc4ca0e0d9aef5df1929325f180cb6b77179446bb8c0e2be12990", "asm": "3045022100c5c073a4a16ac9717cbac194159a569607d5e3ae67b037b8892931111659f162022003b6e090e25f7f6233140640619e0257916845fe5f40f3ef8044ddf37aee623a[ALL] 02c5c41c100d4fc4ca0e0d9aef5df1929325f180cb6b77179446bb8c0e2be12990"}, "vout": 0, "txid": "9e390a58acb666fce96aac9aaac7a14f1a6236db263368cc7cb4a9127f321beb"}, {"sequence": 4294967295, "scriptSig": {"hex": "483045022100bd94a0a0c3082d955befcef9fa065d585d1c9fa7fddb3b6db2f1203397c3a211022031c61e11784a2091a85b105552d6768538a75228c6b531d327640b7179b4a64601210246124d2b76095bcf7c5437ca15afc16656ecc0036fa4cd0a33f04c36e303c7b7", "asm": "3045022100bd94a0a0c3082d955befcef9fa065d585d1c9fa7fddb3b6db2f1203397c3a211022031c61e11784a2091a85b105552d6768538a75228c6b531d327640b7179b4a646[ALL] 0246124d2b76095bcf7c5437ca15afc16656ecc0036fa4cd0a33f04c36e303c7b7"}, "vout": 1, "txid": "e7b5023d8874d783edfb1119f2e399ffb2273951b99c0f2e8030b002c04d15e5"}], "txid": "0eabdd4df2c775d15e5f9393b2fe7e1594bb7a8925decd7464e04e199ce4eb92", "blocktime": 1537871767, "version": 1, "confirmations": 11495, "time": 1537871767, "locktime": 0, "vsize": 372, "size": 372}