{"hash": "0eac2b923390844dfccd3674be47cd0dff60527c0a05ff94b424013fab0dbbb3", "blockhash": "0000000000000000000e13cef7c366c0283d82e591d1acd082e914b08063cdf1", "vout": [{"scriptPubKey": {"reqSigs": 1, "hex": "76a9147d106d829703e51e45d9020f81bdda15ce9314dd88ac", "addresses": ["1CQH9QERkxeDKtZL8TjciAGe4XQPGyLFEt"], "asm": "OP_DUP OP_HASH160 7d106d829703e51e45d9020f81bdda15ce9314dd OP_EQUALVERIFY OP_CHECKSIG", "type": "pubkeyhash"}, "value": 0.00938526, "n": 0}, {"scriptPubKey": {"reqSigs": 1, "hex": "76a914ae178f2e1e16dc8ed1e6ea4c29ed018aaf4b5fae88ac", "addresses": ["1GsWoJpLv1A5QFzwUWEW9pbwWkhhdX9axB"], "asm": "OP_DUP OP_HASH160 ae178f2e1e16dc8ed1e6ea4c29ed018aaf4b5fae OP_EQUALVERIFY OP_CHECKSIG", "type": "pubkeyhash"}, "value": 0.02186919, "n": 1}], "hex": "0100000001f45e9b3c46d625bf27707f65b451feef1614c7941cb3f238b0e8099593b03d42000000006a4730440220172e94e0f02960ea0868c2ab0585454237e45613e5cadebd9c5f542181352ef202201802ad13960c05bfaf74de23a401189c35fec1194b8e57463568b9f143e5566e012102224c6a0fda71f94d478ceefff40f82705de6a6e4088ff997a9a85bae80042574ffffffff021e520e00000000001976a9147d106d829703e51e45d9020f81bdda15ce9314dd88aca75e2100000000001976a914ae178f2e1e16dc8ed1e6ea4c29ed018aaf4b5fae88ac00000000", "vin": [{"sequence": 4294967295, "scriptSig": {"hex": "4730440220172e94e0f02960ea0868c2ab0585454237e45613e5cadebd9c5f542181352ef202201802ad13960c05bfaf74de23a401189c35fec1194b8e57463568b9f143e5566e012102224c6a0fda71f94d478ceefff40f82705de6a6e4088ff997a9a85bae80042574", "asm": "30440220172e94e0f02960ea0868c2ab0585454237e45613e5cadebd9c5f542181352ef202201802ad13960c05bfaf74de23a401189c35fec1194b8e57463568b9f143e5566e[ALL] 02224c6a0fda71f94d478ceefff40f82705de6a6e4088ff997a9a85bae80042574"}, "vout": 0, "txid": "423db0939509e8b038f2b31c94c71416effe51b4657f7027bf25d6463c9b5ef4"}], "txid": "0eac2b923390844dfccd3674be47cd0dff60527c0a05ff94b424013fab0dbbb3", "blocktime": 1537871767, "version": 1, "confirmations": 11495, "time": 1537871767, "locktime": 0, "vsize": 225, "size": 225}