{"hash": "91b3b7c492de2e994233ff868b71b496fb5be8995dbe7dcdf6c3f7ccc2ee7a49", "blockhash": "0000000000000000001f76057863aec43deb6fa401d9628bb513d65a8098bfab", "vout": [{"scriptPubKey": {"reqSigs": 1, "hex": "76a9148d3ea1a917d300e0b527fa1e7ad4fc2222d9f33288ac", "addresses": ["1DsqJm5puCeVDWDfNDptpGHkVQrtG5a3aQ"], "asm": "OP_DUP OP_HASH160 8d3ea1a917d300e0b527fa1e7ad4fc2222d9f332 OP_EQUALVERIFY OP_CHECKSIG", "type": "pubkeyhash"}, "value": 0.0033146, "n": 0}, {"scriptPubKey": {"reqSigs": 1, "hex": "a9143c5713333b7fac4a195c249df501df540f9ca37687", "addresses": ["37C4n8XrZuo9vyehdspAQASxR4D4oHynhM"], "asm": "OP_HASH160 3c5713333b7fac4a195c249df501df540f9ca376 OP_EQUAL", "type": "scripthash"}, "value": 0.00999935, "n": 1}], "hex": "020000000001020987e190af73977386bf24b895d020baa4bd8c108990df1178243e68cddca83b0100000017160014ca79281eff408519b0a23ffad2aeb74fecdb7e33feffffff1a5a27cd7d9dadbab624c255c5daa595004be75b811183defdff2cb4abf08d8c0e0000001716001419dc3d46901bc2d4a08ee9e3c4fbef9e69cee7c1feffffff02c40e0500000000001976a9148d3ea1a917d300e0b527fa1e7ad4fc2222d9f33288acff410f000000000017a9143c5713333b7fac4a195c249df501df540f9ca3768702483045022100edb810372cd4c716790e0e4c0b14acdec30ded4214e3e86def065317f577964c02206fc54657e87264269020784a9487c1665d21a9c589091cf81bb4c0237acff664012102dbfbb2a0bef6e91078012d2546cc1050f40e560243021320182a8b14379b6ef7024830450221008a779fd9c7beadffe626c174db37db2d313c3afe6ac1f61cebf539a30a295f8e02204b76b51c3fae08499962138d4dce0c48ae3ba6375315b3ecf4ae7c43cc79c2fe012103530bbfa894daf256a3031b07baf84384f6749f4d0816bf8f45a0671b41ca4d3714490800", "vin": [{"txinwitness": ["3045022100edb810372cd4c716790e0e4c0b14acdec30ded4214e3e86def065317f577964c02206fc54657e87264269020784a9487c1665d21a9c589091cf81bb4c0237acff66401", "02dbfbb2a0bef6e91078012d2546cc1050f40e560243021320182a8b14379b6ef7"], "sequence": 4294967294, "scriptSig": {"hex": "160014ca79281eff408519b0a23ffad2aeb74fecdb7e33", "asm": "0014ca79281eff408519b0a23ffad2aeb74fecdb7e33"}, "vout": 1, "txid": "3ba8dccd683e247811df9089108cbda4ba20d095b824bf86739773af90e18709"}, {"txinwitness": ["30450221008a779fd9c7beadffe626c174db37db2d313c3afe6ac1f61cebf539a30a295f8e02204b76b51c3fae08499962138d4dce0c48ae3ba6375315b3ecf4ae7c43cc79c2fe01", "03530bbfa894daf256a3031b07baf84384f6749f4d0816bf8f45a0671b41ca4d37"], "sequence": 4294967294, "scriptSig": {"hex": "16001419dc3d46901bc2d4a08ee9e3c4fbef9e69cee7c1", "asm": "001419dc3d46901bc2d4a08ee9e3c4fbef9e69cee7c1"}, "vout": 14, "txid": "8c8df0abb42cfffdde8311815be74b0095a5dac555c224b6baad9d7dcd275a1a"}], "txid": "0eb07748d61ed78ccb974d97a4baa8f9fa0ec418a61047f65b8028ec14513cad", "blocktime": 1537873891, "version": 2, "confirmations": 11478, "time": 1537873891, "locktime": 542996, "vsize": 259, "size": 422}