{"hash": "f0e819c35a047e7515cb9614704e2b3f0a1d154ec87aabb0d9457b7bfa08d379", "blockhash": "00000000000000000018f53835495a110e01622372bf6ae95dc86f2b0ab887b0", "vout": [{"scriptPubKey": {"reqSigs": 1, "hex": "76a914c1b7b0a5ba36bdde0a5eb38d2b60d3d653b5f7b988ac", "addresses": ["1JfHU2kfmxrwUU8kfpRWXGW5kkWEUPtzwG"], "asm": "OP_DUP OP_HASH160 c1b7b0a5ba36bdde0a5eb38d2b60d3d653b5f7b9 OP_EQUALVERIFY OP_CHECKSIG", "type": "pubkeyhash"}, "value": 0.001, "n": 0}, {"scriptPubKey": {"reqSigs": 1, "hex": "001469f15e6086428f764c786ed24a76f5f9922094ad", "addresses": ["bc1qd8c4ucyxg28hvnrcdmfy5ah4lxfzp99deujkm4"], "asm": "0 69f15e6086428f764c786ed24a76f5f9922094ad", "type": "witness_v0_keyhash"}, "value": 1.809e-05, "n": 1}], "hex": "01000000000101ffaae85898dd7b807d15e974af5c80fb706ea7bc809fd13fa9decc5b238899110100000000ffffffff02a0860100000000001976a914c1b7b0a5ba36bdde0a5eb38d2b60d3d653b5f7b988ac110700000000000016001469f15e6086428f764c786ed24a76f5f9922094ad02483045022100d1758af88cdcc44485d901f70aabd8907b675642d4c6c893a9a99a558b06fce002204876ebd0d701965119b3ae12eb8066a3ae5e59066558040ccdd9ea2449e4b186012103f3ead03fc1965951e3b452bfa4870100e5629d5c205ce41bb154e500c6f74f3e00000000", "vin": [{"txinwitness": ["3045022100d1758af88cdcc44485d901f70aabd8907b675642d4c6c893a9a99a558b06fce002204876ebd0d701965119b3ae12eb8066a3ae5e59066558040ccdd9ea2449e4b18601", "03f3ead03fc1965951e3b452bfa4870100e5629d5c205ce41bb154e500c6f74f3e"], "sequence": 4294967295, "scriptSig": {"hex": "", "asm": ""}, "vout": 1, "txid": "119988235bccdea93fd19f80bca76e70fb805caf74e9157d807bdd9858e8aaff"}], "txid": "0eb353e25c120b41823458aa9d3c4a40ff952d9b03dd6cf4d06fb203c3ecb818", "blocktime": 1537870928, "version": 1, "confirmations": 11514, "time": 1537870928, "locktime": 0, "vsize": 144, "size": 226}