{"hash": "0ebe44242361dce771ecf73d8f3cd2d6506b475d34ab7bf96558e3de09721b88", "blockhash": "0000000000000000001f76057863aec43deb6fa401d9628bb513d65a8098bfab", "vout": [{"scriptPubKey": {"reqSigs": 1, "hex": "76a9146f6189b5759dcd05f08766fe39604a71af589a0788ac", "addresses": ["1B9vrM8PE54YKAqSfESEmp5rLHrYS7tBNB"], "asm": "OP_DUP OP_HASH160 6f6189b5759dcd05f08766fe39604a71af589a07 OP_EQUALVERIFY OP_CHECKSIG", "type": "pubkeyhash"}, "value": 4.41722897, "n": 0}, {"scriptPubKey": {"reqSigs": 1, "hex": "a914163f2ecb990c6a5ba11521ec1a295dd0fa132ec487", "addresses": ["33ieUnHJDTPZkwCcn1GbtoA8vNs1u5Ch1E"], "asm": "OP_HASH160 163f2ecb990c6a5ba11521ec1a295dd0fa132ec4 OP_EQUAL", "type": "scripthash"}, "value": 0.00370272, "n": 1}], "hex": "010000000136ce39684462e884082e992b18cda744f27aa08bf794f0592057391c76ba12fa000000006a47304402201b1696c05fd590048dd9538b72bc934da70460cde8d15d7b54ab5ee9b83da68e0220727542e811e0f96aab3d9c995665cffeb356d399603a892a21a5d6182643ce610121032a2c42ea0c434849d13028421d48c387149cb9a390c4ae5d050284b0dc1af23affffffff021128541a000000001976a9146f6189b5759dcd05f08766fe39604a71af589a0788ac60a605000000000017a914163f2ecb990c6a5ba11521ec1a295dd0fa132ec48700000000", "vin": [{"sequence": 4294967295, "scriptSig": {"hex": "47304402201b1696c05fd590048dd9538b72bc934da70460cde8d15d7b54ab5ee9b83da68e0220727542e811e0f96aab3d9c995665cffeb356d399603a892a21a5d6182643ce610121032a2c42ea0c434849d13028421d48c387149cb9a390c4ae5d050284b0dc1af23a", "asm": "304402201b1696c05fd590048dd9538b72bc934da70460cde8d15d7b54ab5ee9b83da68e0220727542e811e0f96aab3d9c995665cffeb356d399603a892a21a5d6182643ce61[ALL] 032a2c42ea0c434849d13028421d48c387149cb9a390c4ae5d050284b0dc1af23a"}, "vout": 0, "txid": "fa12ba761c39572059f094f78ba07af244a7cd182b992e0884e862446839ce36"}], "txid": "0ebe44242361dce771ecf73d8f3cd2d6506b475d34ab7bf96558e3de09721b88", "blocktime": 1537873891, "version": 1, "confirmations": 11474, "time": 1537873891, "locktime": 0, "vsize": 223, "size": 223}