{"hash": "0ecf7f61070c376aea9481acdb7d5144b4330d217796225dcc4be9c7b48db893", "blockhash": "0000000000000000000baef3f32e3676a92c3b2e5da21b426e4f302fc371ce76", "vout": [{"scriptPubKey": {"reqSigs": 1, "hex": "76a914b364e12750a300a3d06f19112ca4b60987d977f588ac", "addresses": ["1HMYoZyp7FzCFUahVRdAYsy6aDKxVqctZR"], "asm": "OP_DUP OP_HASH160 b364e12750a300a3d06f19112ca4b60987d977f5 OP_EQUALVERIFY OP_CHECKSIG", "type": "pubkeyhash"}, "value": 0.00015206, "n": 0}, {"scriptPubKey": {"reqSigs": 1, "hex": "a914f575414abacb3aa3e86c3e6c28e8d9de5ca10bf687", "addresses": ["3Q4swZmA2P2PnUszvUdPLLWQCk92gjRtzV"], "asm": "OP_HASH160 f575414abacb3aa3e86c3e6c28e8d9de5ca10bf6 OP_EQUAL", "type": "scripthash"}, "value": 0.00156425, "n": 1}], "hex": "01000000014e58c3c85de11294c50b764957bc8d05cb30f70b6bc3b8cfcf1a0aabedd8b776000000006b483045022100a555d94be86dd5ab0018924e36e87b5f9b1c4b69d5128edc96934a88fbcbbbef02206f59dbea0f0edcb2ddc22cee8d801d0abd28b6b247b575e8aead99619c6eb391012102420bc0151e94de75d03ced940d9b899cda9d91eabc845687658f2187b48d8052ffffffff02663b0000000000001976a914b364e12750a300a3d06f19112ca4b60987d977f588ac096302000000000017a914f575414abacb3aa3e86c3e6c28e8d9de5ca10bf68700000000", "vin": [{"sequence": 4294967295, "scriptSig": {"hex": "483045022100a555d94be86dd5ab0018924e36e87b5f9b1c4b69d5128edc96934a88fbcbbbef02206f59dbea0f0edcb2ddc22cee8d801d0abd28b6b247b575e8aead99619c6eb391012102420bc0151e94de75d03ced940d9b899cda9d91eabc845687658f2187b48d8052", "asm": "3045022100a555d94be86dd5ab0018924e36e87b5f9b1c4b69d5128edc96934a88fbcbbbef02206f59dbea0f0edcb2ddc22cee8d801d0abd28b6b247b575e8aead99619c6eb391[ALL] 02420bc0151e94de75d03ced940d9b899cda9d91eabc845687658f2187b48d8052"}, "vout": 0, "txid": "76b7d8edab0a1acfcfb8c36b0bf730cb058dbc5749760bc59412e15dc8c3584e"}], "txid": "0ecf7f61070c376aea9481acdb7d5144b4330d217796225dcc4be9c7b48db893", "blocktime": 1537876114, "version": 1, "confirmations": 11459, "time": 1537876114, "locktime": 0, "vsize": 224, "size": 224}