{"hash": "0ed8f214a4fa5dd13b44c8e06d1bc86465726de74a821895a34af34a85e6c3bc", "blockhash": "0000000000000000001cda96e906b7601b7a6fb1a3b62bca570a9e5d8f4b3de1", "vout": [{"scriptPubKey": {"reqSigs": 1, "hex": "76a9149259356363962ed9a717f62bca11c52cc5c3b87e88ac", "addresses": ["1ELpXKu1ndEj6GtcszavTvswb8ujZsmjM2"], "asm": "OP_DUP OP_HASH160 9259356363962ed9a717f62bca11c52cc5c3b87e OP_EQUALVERIFY OP_CHECKSIG", "type": "pubkeyhash"}, "value": 0.00524744, "n": 0}, {"scriptPubKey": {"reqSigs": 1, "hex": "a914db3ce61141cf0baa4b58e7469b86f50e709fb54687", "addresses": ["3MgErsSiGQpJGFwmfmsVV3f9kMPqUiiTJV"], "asm": "OP_HASH160 db3ce61141cf0baa4b58e7469b86f50e709fb546 OP_EQUAL", "type": "scripthash"}, "value": 0.012546, "n": 1}], "hex": "0100000001062cea1a10cbd645a2aa95c9389ee181fab0290e8e1e4a3ad8289da9f32ba7f9010000006b483045022100a203d709ed124b8c00860357483114932100c724aae346bf42bdcf1a3c8c3f7e022016eb9d9ff9c176ce9161e50d633b615a31d83c242ec4814b33a7e506453496140121037322b19f12671a74ea026d634471378867bc20e3f3a197b03e10b60648acec22ffffffff02c8010800000000001976a9149259356363962ed9a717f62bca11c52cc5c3b87e88acc82413000000000017a914db3ce61141cf0baa4b58e7469b86f50e709fb5468700000000", "vin": [{"sequence": 4294967295, "scriptSig": {"hex": "483045022100a203d709ed124b8c00860357483114932100c724aae346bf42bdcf1a3c8c3f7e022016eb9d9ff9c176ce9161e50d633b615a31d83c242ec4814b33a7e506453496140121037322b19f12671a74ea026d634471378867bc20e3f3a197b03e10b60648acec22", "asm": "3045022100a203d709ed124b8c00860357483114932100c724aae346bf42bdcf1a3c8c3f7e022016eb9d9ff9c176ce9161e50d633b615a31d83c242ec4814b33a7e50645349614[ALL] 037322b19f12671a74ea026d634471378867bc20e3f3a197b03e10b60648acec22"}, "vout": 1, "txid": "f9a72bf3a99d28d83a4a1e8e0e29b0fa81e19e38c995aaa245d6cb101aea2c06"}], "txid": "0ed8f214a4fa5dd13b44c8e06d1bc86465726de74a821895a34af34a85e6c3bc", "blocktime": 1537873282, "version": 1, "confirmations": 11484, "time": 1537873282, "locktime": 0, "vsize": 224, "size": 224}