{"hash": "e3325d886bfafecd059542106bb94e39f1e17e9795c5eea78fb5ac0b905c68b6", "blockhash": "00000000000000000017f5eb5941039fbcee6240d03bc1f2f8e35350df66a1d8", "vout": [{"scriptPubKey": {"reqSigs": 1, "hex": "0014fb6e56cb4209cf11f7f725c1480ac1240f123bad", "addresses": ["bc1qldh9dj6zp883ralhyhq5szkpys83ywadrrd2uz"], "asm": "0 fb6e56cb4209cf11f7f725c1480ac1240f123bad", "type": "witness_v0_keyhash"}, "value": 9.75e-06, "n": 0}, {"scriptPubKey": {"reqSigs": 1, "hex": "76a914c811f86b69b5ab0141324cd102f903a09e927a7a88ac", "addresses": ["1KEsfyJ6pBKFbj2KnHWV7NC3r9KpUSnPBN"], "asm": "OP_DUP OP_HASH160 c811f86b69b5ab0141324cd102f903a09e927a7a OP_EQUALVERIFY OP_CHECKSIG", "type": "pubkeyhash"}, "value": 0.00132473, "n": 1}], "hex": "01000000000101bd1281f7206327f8e8e9b63a3d2a537da6787834007b194e8655b43b285599140100000000ffffffff02cf03000000000000160014fb6e56cb4209cf11f7f725c1480ac1240f123bad79050200000000001976a914c811f86b69b5ab0141324cd102f903a09e927a7a88ac02483045022100c007c4fba6c8b76607fb67dd99d7867fb803dbf303b5193d56e8de8801d963990220364a6517844794ba1c0994273df7eb4e99ea73b878b51cbbcd6f886e9ffebc2d012103b7a12b774714dbfea5e0b665a6272695bce5803bec7174f5aa47be4f6749657c00000000", "vin": [{"txinwitness": ["3045022100c007c4fba6c8b76607fb67dd99d7867fb803dbf303b5193d56e8de8801d963990220364a6517844794ba1c0994273df7eb4e99ea73b878b51cbbcd6f886e9ffebc2d01", "03b7a12b774714dbfea5e0b665a6272695bce5803bec7174f5aa47be4f6749657c"], "sequence": 4294967295, "scriptSig": {"hex": "", "asm": ""}, "vout": 1, "txid": "149955283bb455864e197b00347878a67d532a3d3ab6e9e8f8276320f78112bd"}], "txid": "0edb107ab33a5cef4e0f66e624387a7646de5a4fb0b4455487d8da8a36f7efa0", "blocktime": 1537874412, "version": 1, "confirmations": 11467, "time": 1537874412, "locktime": 0, "vsize": 144, "size": 226}