{"hash": "94de6edc13526b2ee0f506f6a8037df2c2d0b66f6a5f99c04eea119f79807ce4", "blockhash": "00000000000000000024a2167bbff67b0be802c0b01cdd79e6331c2be6459f87", "vout": [{"scriptPubKey": {"reqSigs": 1, "hex": "a9140017bfdcb93536ac8300b066c156a9ba24e8ddd987", "addresses": ["31hWNghYe6rnumZ7TcJqc4hzMu4XPDzsZ5"], "asm": "OP_HASH160 0017bfdcb93536ac8300b066c156a9ba24e8ddd9 OP_EQUAL", "type": "scripthash"}, "value": 0.00302822, "n": 0}, {"scriptPubKey": {"reqSigs": 1, "hex": "a914f4ee9e5f72bec18663d4709261d03f511808af3087", "addresses": ["3Q26es69Hx76qx3WhrhPouDC9MdxoWoYFY"], "asm": "OP_HASH160 f4ee9e5f72bec18663d4709261d03f511808af30 OP_EQUAL", "type": "scripthash"}, "value": 0.00999785, "n": 1}], "hex": "020000000001032750163223eb145c8cb21a62de0f87d44c5f9c3def1f36a0f30c6178c2bca1fa1c03000017160014273b154ccb329d1eb0dc0e30aa72f7833a7eb772feffffff9cf3bda7319f799bf7f2d958640c1124c37f61ed741c9f4f0fd6ddb926160e67010000001716001428c9e5e7ba2c11c244427bdb4ba54a2f005fd390feffffffb7ad33cc3ba552348136d3154dd19d51a8c7bd3390da380e3cafd1fa797b7385460200006a473044022019d3ff75e40a53403519e12cec8c87a32aeff46ec06ed46bf2b355c428f3bd51022029287251dea11f82c612c5275beea6a099ef301b3e746152992394ff293cee850121037eff67505a5e7cd17fbcd37f1288c6ebcefa84fcba97d2c0aa6bc4ea99375189feffffff02e69e04000000000017a9140017bfdcb93536ac8300b066c156a9ba24e8ddd98769410f000000000017a914f4ee9e5f72bec18663d4709261d03f511808af308702473044022038a3e4bd9f41bdabd13f47c45e2fac6c02aa45c22feb742449a36f7a720e7852022001de8428cc06b8351955a1911b3d0019d9cc5cad1eefb370d6883e244879b4f3012103166748c85526ac018232146cd658de511dd1c6f67ed92d0adf39b603e7b065cc02483045022100d6f526f9d3c9e7d009b707253e943c3020a0061149292a26149b8833e9dec583022051f025a62c2ff6c0f9546e8f5184b2e1b421994f1e7a2f67b794b62dc472bebc012103fed2972a40be5c2aa50fb21bc6ba8ad9f87d1f70e1a23f2cebc57149d241a058000d490800", "vin": [{"txinwitness": ["3044022038a3e4bd9f41bdabd13f47c45e2fac6c02aa45c22feb742449a36f7a720e7852022001de8428cc06b8351955a1911b3d0019d9cc5cad1eefb370d6883e244879b4f301", "03166748c85526ac018232146cd658de511dd1c6f67ed92d0adf39b603e7b065cc"], "sequence": 4294967294, "scriptSig": {"hex": "160014273b154ccb329d1eb0dc0e30aa72f7833a7eb772", "asm": "0014273b154ccb329d1eb0dc0e30aa72f7833a7eb772"}, "vout": 796, "txid": "faa1bcc278610cf3a0361fef3d9c5f4cd4870fde621ab28c5c14eb2332165027"}, {"txinwitness": ["3045022100d6f526f9d3c9e7d009b707253e943c3020a0061149292a26149b8833e9dec583022051f025a62c2ff6c0f9546e8f5184b2e1b421994f1e7a2f67b794b62dc472bebc01", "03fed2972a40be5c2aa50fb21bc6ba8ad9f87d1f70e1a23f2cebc57149d241a058"], "sequence": 4294967294, "scriptSig": {"hex": "16001428c9e5e7ba2c11c244427bdb4ba54a2f005fd390", "asm": "001428c9e5e7ba2c11c244427bdb4ba54a2f005fd390"}, "vout": 1, "txid": "670e1626b9ddd60f4f9f1c74ed617fc324110c6458d9f2f79b799f31a7bdf39c"}, {"sequence": 4294967294, "scriptSig": {"hex": "473044022019d3ff75e40a53403519e12cec8c87a32aeff46ec06ed46bf2b355c428f3bd51022029287251dea11f82c612c5275beea6a099ef301b3e746152992394ff293cee850121037eff67505a5e7cd17fbcd37f1288c6ebcefa84fcba97d2c0aa6bc4ea99375189", "asm": "3044022019d3ff75e40a53403519e12cec8c87a32aeff46ec06ed46bf2b355c428f3bd51022029287251dea11f82c612c5275beea6a099ef301b3e746152992394ff293cee85[ALL] 037eff67505a5e7cd17fbcd37f1288c6ebcefa84fcba97d2c0aa6bc4ea99375189"}, "vout": 582, "txid": "85737b79fad1af3c0e38da9033bdc7a8519dd14d15d336813452a53bcc33adb7"}], "txid": "0ee0784982da4ee4e6064f83bf2785f61a858f872238722af9cb2ef8022f9b99", "blocktime": 1537870564, "version": 2, "confirmations": 11515, "time": 1537870564, "locktime": 542989, "vsize": 404, "size": 567}