{"hash": "471d2253be53c8db7bacca7cb51d1c806ea31ae4abbc4246481537957dcbfe38", "blockhash": "0000000000000000000e13cef7c366c0283d82e591d1acd082e914b08063cdf1", "vout": [{"scriptPubKey": {"reqSigs": 1, "hex": "001492fdd70728d9f2d884bc181481f39689b1769dcc", "addresses": ["bc1qjt7awpegm8ed3p9urq2gruuk3xchd8wvjn2uya"], "asm": "0 92fdd70728d9f2d884bc181481f39689b1769dcc", "type": "witness_v0_keyhash"}, "value": 1.10263213, "n": 0}, {"scriptPubKey": {"reqSigs": 1, "hex": "a9147a18d28db79d22ca827e4cb6bce7a306dc9f0c0a87", "addresses": ["3Cpc6eEqEA7p4ntJY7jdyM9XzkRAqJbvhC"], "asm": "OP_HASH160 7a18d28db79d22ca827e4cb6bce7a306dc9f0c0a OP_EQUAL", "type": "scripthash"}, "value": 0.01754054, "n": 1}], "hex": "01000000000101c9d3117831c3c2cf6dd7a47bbf6c56f3b046c8430865af76978b394940c7d3ed030000001716001486513feb7c0a29349246dacafabcc4dd5655764cffffffff02ad7b92060000000016001492fdd70728d9f2d884bc181481f39689b1769dccc6c31a000000000017a9147a18d28db79d22ca827e4cb6bce7a306dc9f0c0a870247304402203b5613c38965839b1afb682575dfd7fd6bcc62493cfa0205dcb8eefd65f9e60002204466a047d2be3b624d0b39e381177eb668017a0584c4bc49dd95497e68a1b9ad0121024ea2fb15ea93756f5cdc21dc43568e0ab0f53001ec169bf86a18a6616c21549600000000", "vin": [{"txinwitness": ["304402203b5613c38965839b1afb682575dfd7fd6bcc62493cfa0205dcb8eefd65f9e60002204466a047d2be3b624d0b39e381177eb668017a0584c4bc49dd95497e68a1b9ad01", "024ea2fb15ea93756f5cdc21dc43568e0ab0f53001ec169bf86a18a6616c215496"], "sequence": 4294967295, "scriptSig": {"hex": "16001486513feb7c0a29349246dacafabcc4dd5655764c", "asm": "001486513feb7c0a29349246dacafabcc4dd5655764c"}, "vout": 3, "txid": "edd3c74049398b9776af650843c846b0f3566cbf7ba4d76dcfc2c3317811d3c9"}], "txid": "0ee3388474769e9e4ab24dacc7d4f26eca0c7e57a9960c6211b2119c04db7f7a", "blocktime": 1537871767, "version": 1, "confirmations": 11495, "time": 1537871767, "locktime": 0, "vsize": 165, "size": 246}