{"hash": "0ee4bb9ca037d1853427c50fc58f64b81a5dcb8a575a0e4814415791d6f2f815", "blockhash": "0000000000000000001f76057863aec43deb6fa401d9628bb513d65a8098bfab", "vout": [{"scriptPubKey": {"reqSigs": 1, "hex": "76a91451d60fdaf9a3113c1d227d4484ec0dbb200a9c2688ac", "addresses": ["18TiAph5EckSCkpGZPEuiPtuzFzZb5q5AV"], "asm": "OP_DUP OP_HASH160 51d60fdaf9a3113c1d227d4484ec0dbb200a9c26 OP_EQUALVERIFY OP_CHECKSIG", "type": "pubkeyhash"}, "value": 0.0140625, "n": 0}, {"scriptPubKey": {"reqSigs": 1, "hex": "76a914737cd4be6443d24621fd4192e6cfc6c6094768b288ac", "addresses": ["1BXeFUQasZUqKwcRGjBuE5B65QqyNtzERp"], "asm": "OP_DUP OP_HASH160 737cd4be6443d24621fd4192e6cfc6c6094768b2 OP_EQUALVERIFY OP_CHECKSIG", "type": "pubkeyhash"}, "value": 0.00592732, "n": 1}], "hex": "010000000168087697ae0bb6dcbf41431ee3608ce54a73e28297a153b0907fb36c44454e74010000006b4830450221009446c00389db7c541b3460b3f6f16653fca3deae9a38e57644c6d275815a33ff02205827450a886a2bbd47046800f33aa2f95edca614fdf957c3304f13f6e90b3e0d0121021811e58e24ba83cbf36afb3e2d3ebfb566fa66842aa31e102373f33c99fc4718ffffffff022a751500000000001976a91451d60fdaf9a3113c1d227d4484ec0dbb200a9c2688ac5c0b0900000000001976a914737cd4be6443d24621fd4192e6cfc6c6094768b288ac00000000", "vin": [{"sequence": 4294967295, "scriptSig": {"hex": "4830450221009446c00389db7c541b3460b3f6f16653fca3deae9a38e57644c6d275815a33ff02205827450a886a2bbd47046800f33aa2f95edca614fdf957c3304f13f6e90b3e0d0121021811e58e24ba83cbf36afb3e2d3ebfb566fa66842aa31e102373f33c99fc4718", "asm": "30450221009446c00389db7c541b3460b3f6f16653fca3deae9a38e57644c6d275815a33ff02205827450a886a2bbd47046800f33aa2f95edca614fdf957c3304f13f6e90b3e0d[ALL] 021811e58e24ba83cbf36afb3e2d3ebfb566fa66842aa31e102373f33c99fc4718"}, "vout": 1, "txid": "744e45446cb37f90b053a19782e2734ae58c60e31e4341bfdcb60bae97760868"}], "txid": "0ee4bb9ca037d1853427c50fc58f64b81a5dcb8a575a0e4814415791d6f2f815", "blocktime": 1537873891, "version": 1, "confirmations": 11475, "time": 1537873891, "locktime": 0, "vsize": 226, "size": 226}