{"hash": "0ee9d13b5221b946ad10db5a4093e2cb18c0b7502805ce392e590961972355e9", "blockhash": "0000000000000000001e0dab787dd257d1dbfcb92a98c2207d5e1078be1f4165", "vout": [{"scriptPubKey": {"reqSigs": 1, "hex": "a91469f3771e6a12aa8d25bdabdb765801ef899d981f87", "addresses": ["3BMEXxB7Uj5XPPRuVx61PNY1pXgXcwJfSZ"], "asm": "OP_HASH160 69f3771e6a12aa8d25bdabdb765801ef899d981f OP_EQUAL", "type": "scripthash"}, "value": 0.0156, "n": 0}, {"scriptPubKey": {"reqSigs": 1, "hex": "00145574d0557839098e3074e1f639c9263e178e4b70", "addresses": ["bc1q246dq4tc8yycuvr5u8mrnjfx8ctcujmskzate7"], "asm": "0 5574d0557839098e3074e1f639c9263e178e4b70", "type": "witness_v0_keyhash"}, "value": 0.00465424, "n": 1}], "hex": "01000000010d3988778ebde01363f3fa7c70a733a355ccbdc3a18283761612b2fd05d24f23490000006a47304402203bc74d9c312869e975638b177753066411237672704846a430049778bc9dc6d90220621ca258605f3bff0c3ad2624855e6095ff0142e196f9f703448790ea6e8c3ab0121035df8564a3619a3a337a6e6b6b7187308e72209381882d6b7edb7de12baa47e8bffffffff02c0cd17000000000017a91469f3771e6a12aa8d25bdabdb765801ef899d981f87101a0700000000001600145574d0557839098e3074e1f639c9263e178e4b7000000000", "vin": [{"sequence": 4294967295, "scriptSig": {"hex": "47304402203bc74d9c312869e975638b177753066411237672704846a430049778bc9dc6d90220621ca258605f3bff0c3ad2624855e6095ff0142e196f9f703448790ea6e8c3ab0121035df8564a3619a3a337a6e6b6b7187308e72209381882d6b7edb7de12baa47e8b", "asm": "304402203bc74d9c312869e975638b177753066411237672704846a430049778bc9dc6d90220621ca258605f3bff0c3ad2624855e6095ff0142e196f9f703448790ea6e8c3ab[ALL] 035df8564a3619a3a337a6e6b6b7187308e72209381882d6b7edb7de12baa47e8b"}, "vout": 73, "txid": "234fd205fdb21216768382a1c3bdcc55a333a7707cfaf36313e0bd8e7788390d"}], "txid": "0ee9d13b5221b946ad10db5a4093e2cb18c0b7502805ce392e590961972355e9", "blocktime": 1537872475, "version": 1, "confirmations": 11486, "time": 1537872475, "locktime": 0, "vsize": 220, "size": 220}