{"hash": "d781f2086f9c8bd86114af276534799f66572f7ea718810f7656e8e6c9505857", "blockhash": "0000000000000000000e13cef7c366c0283d82e591d1acd082e914b08063cdf1", "vout": [{"scriptPubKey": {"reqSigs": 1, "hex": "76a9143347a7af3d3e20fe26bc3bce524a7864bfe920d588ac", "addresses": ["15g9JTkgr23ndZTnxcWBHk3mUgz1HRsPPu"], "asm": "OP_DUP OP_HASH160 3347a7af3d3e20fe26bc3bce524a7864bfe920d5 OP_EQUALVERIFY OP_CHECKSIG", "type": "pubkeyhash"}, "value": 0.008, "n": 0}, {"scriptPubKey": {"reqSigs": 1, "hex": "a914b1da8f6467194d376332b5346141c77f8f11e20887", "addresses": ["3HuRMKbnbvdvmTEGdF4tzTWDznYMLBxfpD"], "asm": "OP_HASH160 b1da8f6467194d376332b5346141c77f8f11e208 OP_EQUAL", "type": "scripthash"}, "value": 0.02320989, "n": 1}], "hex": "020000000001014a3aa37cb07f9c081dc44636876715f0b4d9c81df886c0aec7de7dd646664bfc000000001716001402f38b8d30ce57ad23813cbeb2e79a0b16c67828fdffffff0200350c00000000001976a9143347a7af3d3e20fe26bc3bce524a7864bfe920d588ac5d6a23000000000017a914b1da8f6467194d376332b5346141c77f8f11e2088702483045022100c7fbaa44aa69c69d48eed26d063ec91d7a82d2086e8b24a13da3654c2c7f3ef1022022e18563d961f840293069f21c5dac957032f5f4899a02e271478c9d0532a5e901210315cff170251c028d1fd937a8744f00d4e429ee5188b82b3f673fc5fa85133ba00f490800", "vin": [{"txinwitness": ["3045022100c7fbaa44aa69c69d48eed26d063ec91d7a82d2086e8b24a13da3654c2c7f3ef1022022e18563d961f840293069f21c5dac957032f5f4899a02e271478c9d0532a5e901", "0315cff170251c028d1fd937a8744f00d4e429ee5188b82b3f673fc5fa85133ba0"], "sequence": 4294967293, "scriptSig": {"hex": "16001402f38b8d30ce57ad23813cbeb2e79a0b16c67828", "asm": "001402f38b8d30ce57ad23813cbeb2e79a0b16c67828"}, "vout": 0, "txid": "fc4b6646d67ddec7aec086f81dc8d9b4f01567873646c41d089c7fb07ca33a4a"}], "txid": "0eef9fe5595d093046437d144931c8a577a27cd91faa077434f3fe6ce9e59bc8", "blocktime": 1537871767, "version": 2, "confirmations": 11493, "time": 1537871767, "locktime": 542991, "vsize": 168, "size": 250}