{"hash": "2aa037860095a32e9d020711e0e883312189b7d0690afebed7124a11f80883de", "blockhash": "00000000000000000024a2167bbff67b0be802c0b01cdd79e6331c2be6459f87", "vout": [{"scriptPubKey": {"reqSigs": 1, "hex": "a914a0bc67348f9303c173da446f071bd4f900d9b52987", "addresses": ["3GLujiXAZtJx6m8wnWDTb9eF5x4m5fnVAw"], "asm": "OP_HASH160 a0bc67348f9303c173da446f071bd4f900d9b529 OP_EQUAL", "type": "scripthash"}, "value": 0.01689594, "n": 0}, {"scriptPubKey": {"reqSigs": 1, "hex": "0014b147c3588f8849f3feaf29a524f7cdbf7543250b", "addresses": ["bc1qk9ruxky03pyl8l409xjjfa7dha65xfgtcnuetm"], "asm": "0 b147c3588f8849f3feaf29a524f7cdbf7543250b", "type": "witness_v0_keyhash"}, "value": 0.00214483, "n": 1}], "hex": "0100000000010153f76b731bbf32d65c2e11cca1eb150f5fd7e0f5779d39779c38e3a8c6ea14ac0100000000ffffffff02fac719000000000017a914a0bc67348f9303c173da446f071bd4f900d9b52987d345030000000000160014b147c3588f8849f3feaf29a524f7cdbf7543250b02483045022100e0e731cd4149923eda1f5e1243145e80334981590cf6e8d2c047769330159612022075a0731519d004a7e08a1ffd5886a91a2d5a8fe5d5c058c94c1e777eb56137330121034fa9af94d6e3d26358e8dee67f94e90972469959410e68dac43667094b8af9ca00000000", "vin": [{"txinwitness": ["3045022100e0e731cd4149923eda1f5e1243145e80334981590cf6e8d2c047769330159612022075a0731519d004a7e08a1ffd5886a91a2d5a8fe5d5c058c94c1e777eb561373301", "034fa9af94d6e3d26358e8dee67f94e90972469959410e68dac43667094b8af9ca"], "sequence": 4294967295, "scriptSig": {"hex": "", "asm": ""}, "vout": 1, "txid": "ac14eac6a8e3389c77399d77f5e0d75f0f15eba1cc112e5cd632bf1b736bf753"}], "txid": "0ef2f0ed76e43baf1067ba98d05df99f753b2b12ce232b70c52df7e175c1963f", "blocktime": 1537870564, "version": 1, "confirmations": 11515, "time": 1537870564, "locktime": 0, "vsize": 142, "size": 224}