{"hash": "0ef5690358f62898081275400a2ed21f1307182729ab1f0426be8087a64ac7dd", "blockhash": "00000000000000000018f53835495a110e01622372bf6ae95dc86f2b0ab887b0", "vout": [{"scriptPubKey": {"reqSigs": 1, "hex": "76a9141241492a287633e5d760ebe987c40a79da072a0e88ac", "addresses": ["12fXNbDAW7KBLfkCEkVrcv4dm6XdKiwF1Q"], "asm": "OP_DUP OP_HASH160 1241492a287633e5d760ebe987c40a79da072a0e OP_EQUALVERIFY OP_CHECKSIG", "type": "pubkeyhash"}, "value": 0.04410962, "n": 0}, {"scriptPubKey": {"reqSigs": 1, "hex": "76a914ddcebc6ff29b1f73773998ae46bf210c538d1e3488ac", "addresses": ["1MDozfpsyop9uebM68pE6uhZboypeKW8Ek"], "asm": "OP_DUP OP_HASH160 ddcebc6ff29b1f73773998ae46bf210c538d1e34 OP_EQUALVERIFY OP_CHECKSIG", "type": "pubkeyhash"}, "value": 0.0008557, "n": 1}], "hex": "0100000004f4d82809a19c49cc4ebe18fd49cd4a26b8cc736853b98a20b90d271307f9025a010000006a473044022057989b55d6dcecc206a8f4436048d4a278557fb4b2c2813e0cd60cb5cbd60e8002207a34824ec4096512eee2270d4def82a927141f46fb566ab485784eac79ee4b1f012102612186e9ac215a4d66bcd4c770d2b320c35923ee8df8171616b40ade45215075ffffffff73b023a8e110b1392f96c009cc3b44d543d93f708a2384584bcadd62346d7fc0000000006b483045022100adc7e172cb312caf6b991f3414fbc8e06f2932b749d794ee4e30d4ffba45d964022046132ccfc236b4a4589fb665aba50cf0be912ea4d2288be8d9570f77989aa8a90121032ef179b74c1cb94d5baa6b90caa912413dce372a5b18e27efddf0eb324f6c74fffffffff53008e1ffd42c8b13ef80dfc86e414f60efb6255833461ba962ef498d2d8d794020000006a47304402207f3ba910a1547fb8b6cda60c79bfebe57f5777e59ac7041e127bc6d9d6c1212402205d5165e25b631b6d87003499358f6a9af49a7cedd4edd711bbeb2891ab59375f012102f0a2a8dac82fb55d9ba60afe276e3fee26978d5d518703a93f8c7eccf0021d0cffffffff6785aefb4fa7dc59d1a7bce57825093d78f75e710cbcb6ca8750bb7e2e269034090000006a4730440220475290bfa02948d650175e93e07c249e99229941d7f1d6365c25cdb5d81c2e2f022059b0d4623888a2c79ddb333f7aa4c9c167145864318e7727ff76f6a1b58fd6bb012103815e4f90caa099b05f51843c386bd7c359b447725f82afbf5a316985a53ee78bffffffff02524e4300000000001976a9141241492a287633e5d760ebe987c40a79da072a0e88ac424e0100000000001976a914ddcebc6ff29b1f73773998ae46bf210c538d1e3488ac00000000", "vin": [{"sequence": 4294967295, "scriptSig": {"hex": "473044022057989b55d6dcecc206a8f4436048d4a278557fb4b2c2813e0cd60cb5cbd60e8002207a34824ec4096512eee2270d4def82a927141f46fb566ab485784eac79ee4b1f012102612186e9ac215a4d66bcd4c770d2b320c35923ee8df8171616b40ade45215075", "asm": "3044022057989b55d6dcecc206a8f4436048d4a278557fb4b2c2813e0cd60cb5cbd60e8002207a34824ec4096512eee2270d4def82a927141f46fb566ab485784eac79ee4b1f[ALL] 02612186e9ac215a4d66bcd4c770d2b320c35923ee8df8171616b40ade45215075"}, "vout": 1, "txid": "5a02f90713270db9208ab9536873ccb8264acd49fd18be4ecc499ca10928d8f4"}, {"sequence": 4294967295, "scriptSig": {"hex": "483045022100adc7e172cb312caf6b991f3414fbc8e06f2932b749d794ee4e30d4ffba45d964022046132ccfc236b4a4589fb665aba50cf0be912ea4d2288be8d9570f77989aa8a90121032ef179b74c1cb94d5baa6b90caa912413dce372a5b18e27efddf0eb324f6c74f", "asm": "3045022100adc7e172cb312caf6b991f3414fbc8e06f2932b749d794ee4e30d4ffba45d964022046132ccfc236b4a4589fb665aba50cf0be912ea4d2288be8d9570f77989aa8a9[ALL] 032ef179b74c1cb94d5baa6b90caa912413dce372a5b18e27efddf0eb324f6c74f"}, "vout": 0, "txid": "c07f6d3462ddca4b5884238a703fd943d5443bcc09c0962f39b110e1a823b073"}, {"sequence": 4294967295, "scriptSig": {"hex": "47304402207f3ba910a1547fb8b6cda60c79bfebe57f5777e59ac7041e127bc6d9d6c1212402205d5165e25b631b6d87003499358f6a9af49a7cedd4edd711bbeb2891ab59375f012102f0a2a8dac82fb55d9ba60afe276e3fee26978d5d518703a93f8c7eccf0021d0c", "asm": "304402207f3ba910a1547fb8b6cda60c79bfebe57f5777e59ac7041e127bc6d9d6c1212402205d5165e25b631b6d87003499358f6a9af49a7cedd4edd711bbeb2891ab59375f[ALL] 02f0a2a8dac82fb55d9ba60afe276e3fee26978d5d518703a93f8c7eccf0021d0c"}, "vout": 2, "txid": "94d7d8d298f42e96ba6134835562fb0ef614e486fc0df83eb1c842fd1f8e0053"}, {"sequence": 4294967295, "scriptSig": {"hex": "4730440220475290bfa02948d650175e93e07c249e99229941d7f1d6365c25cdb5d81c2e2f022059b0d4623888a2c79ddb333f7aa4c9c167145864318e7727ff76f6a1b58fd6bb012103815e4f90caa099b05f51843c386bd7c359b447725f82afbf5a316985a53ee78b", "asm": "30440220475290bfa02948d650175e93e07c249e99229941d7f1d6365c25cdb5d81c2e2f022059b0d4623888a2c79ddb333f7aa4c9c167145864318e7727ff76f6a1b58fd6bb[ALL] 03815e4f90caa099b05f51843c386bd7c359b447725f82afbf5a316985a53ee78b"}, "vout": 9, "txid": "3490262e7ebb5087cab6bc0c715ef7783d092578e5bca7d159dca74ffbae8567"}], "txid": "0ef5690358f62898081275400a2ed21f1307182729ab1f0426be8087a64ac7dd", "blocktime": 1537870928, "version": 1, "confirmations": 11512, "time": 1537870928, "locktime": 0, "vsize": 667, "size": 667}