{"hash": "0ef765645f57f09d4d54e437a5f487ce37b08961c526b22f6cb2cae88dd56aa1", "blockhash": "0000000000000000001e0dab787dd257d1dbfcb92a98c2207d5e1078be1f4165", "vout": [{"scriptPubKey": {"reqSigs": 1, "hex": "a914f933bd57b9273578844b1eeb8c26a43ec98054ea87", "addresses": ["3QQgAEx76aY8yaCnc7GCUtH6rDDhua4jgv"], "asm": "OP_HASH160 f933bd57b9273578844b1eeb8c26a43ec98054ea OP_EQUAL", "type": "scripthash"}, "value": 0.00484344, "n": 0}, {"scriptPubKey": {"reqSigs": 1, "hex": "76a91449531ed8746196f4edf7af723244dc5e8396458388ac", "addresses": ["17ghuKMqCabveTcY9v9rCpCPdD8qo1SGtF"], "asm": "OP_DUP OP_HASH160 49531ed8746196f4edf7af723244dc5e83964583 OP_EQUALVERIFY OP_CHECKSIG", "type": "pubkeyhash"}, "value": 0.01076826, "n": 1}], "hex": "0100000001bec1e2e7ccde95773739fa8e1e9e169bb05e93a57285b26c6103a8b51b7ae8da000000006b483045022100f673955d4f0f67b26edd67e5392789fc5e44e24586f066073120e4a199236f5c0220101df3a41dc393e3c89e2a1f43876ed4a85d1f1326c98291ff09df9edd812dd10121023295225bf91c60a9541887390003d5b466a385ef082f3648675eb907a33bc707ffffffff02f86307000000000017a914f933bd57b9273578844b1eeb8c26a43ec98054ea875a6e1000000000001976a91449531ed8746196f4edf7af723244dc5e8396458388ac00000000", "vin": [{"sequence": 4294967295, "scriptSig": {"hex": "483045022100f673955d4f0f67b26edd67e5392789fc5e44e24586f066073120e4a199236f5c0220101df3a41dc393e3c89e2a1f43876ed4a85d1f1326c98291ff09df9edd812dd10121023295225bf91c60a9541887390003d5b466a385ef082f3648675eb907a33bc707", "asm": "3045022100f673955d4f0f67b26edd67e5392789fc5e44e24586f066073120e4a199236f5c0220101df3a41dc393e3c89e2a1f43876ed4a85d1f1326c98291ff09df9edd812dd1[ALL] 023295225bf91c60a9541887390003d5b466a385ef082f3648675eb907a33bc707"}, "vout": 0, "txid": "dae87a1bb5a803616cb28572a5935eb09b169e1e8efa39377795decce7e2c1be"}], "txid": "0ef765645f57f09d4d54e437a5f487ce37b08961c526b22f6cb2cae88dd56aa1", "blocktime": 1537872475, "version": 1, "confirmations": 11487, "time": 1537872475, "locktime": 0, "vsize": 224, "size": 224}