{"hash": "07bea77ef1531ab43f37014e142695c3ab2924f5c18bca6b61fcc52093f0401d", "blockhash": "0000000000000000001f0ddff1eddb255c1121bcd4da4f1bc9a0da00cae72433", "vout": [{"scriptPubKey": {"reqSigs": 1, "hex": "a914dca975307cc7b2ccfce6afb81f1b48cb44f5357c87", "addresses": ["3MomasvXYEUiKxmt1oCA7YApJzbowEiFeP"], "asm": "OP_HASH160 dca975307cc7b2ccfce6afb81f1b48cb44f5357c OP_EQUAL", "type": "scripthash"}, "value": 0.01094448, "n": 0}, {"scriptPubKey": {"reqSigs": 1, "hex": "a914e24bf15b3bf1bbc40e3c6f705acce0c2b529575287", "addresses": ["3NKZcVhLFX8Ze8i9t3jFmjjszDkAGw8WtH"], "asm": "OP_HASH160 e24bf15b3bf1bbc40e3c6f705acce0c2b5295752 OP_EQUAL", "type": "scripthash"}, "value": 0.01038259, "n": 1}], "hex": "0200000000010362ae785d71432c2d542df4c4c1bd93a3c7665450ec6a93cabe6b85a0c40989b00100000017160014355a27d4c70824ffba56d951a6e77a344366559bfefffffff4678b8ccc6140eb98d1a2ecd5e99597e2e528e384f6901c24a8d0f24a7ecc090000000017160014fddd0e5dc02e024cc77acab7ec6cb509812dc46dfefffffff70ed8dcf084a2c3b58b842e991b0bcc6e74f96befe06e7e283527ca8ca26cfa00000000171600145006f7965605a802d5d14e3e5e80e033fc0eaf5ffeffffff0230b310000000000017a914dca975307cc7b2ccfce6afb81f1b48cb44f5357c87b3d70f000000000017a914e24bf15b3bf1bbc40e3c6f705acce0c2b52957528702483045022100b5a6b372b7d68ac5ba0638669fe27ff6510ddf0b120eadeac5a1871f9eb4548e02205a01cc8cd4bcacdd90475b3102b35389cfab972a00beab247989f793ddd717a301210358fd0760c1d272b27fbae672e57e7f48b509479fee3d9055f229433b03c5ed6302483045022100b1721be893b00f8aa1f5f72d44a8f868d0ae91920ba88417655672ff63065fea02207b941dcc19f24495f5f1acfb7b0e5995bab5eb8c9363f81833c9d375010c0e9b0121020bfd974bb53e855a83c82def58a8e9899943736338635087eac22f04ae46beaf02473044022022e45e3c960b51c1b422da37abc5e189698f29a65856ffd38c0d75d20350340702204dc43d933274a7839f3c736f57ee26ae6cb80d962f0d4258e9b2a0ed5b786ea7012102ebc55423156d0f31bdff581af94f44881634693df51a1f90d3c5e0b92a8d3cca10490800", "vin": [{"txinwitness": ["3045022100b5a6b372b7d68ac5ba0638669fe27ff6510ddf0b120eadeac5a1871f9eb4548e02205a01cc8cd4bcacdd90475b3102b35389cfab972a00beab247989f793ddd717a301", "0358fd0760c1d272b27fbae672e57e7f48b509479fee3d9055f229433b03c5ed63"], "sequence": 4294967294, "scriptSig": {"hex": "160014355a27d4c70824ffba56d951a6e77a344366559b", "asm": "0014355a27d4c70824ffba56d951a6e77a344366559b"}, "vout": 1, "txid": "b08909c4a0856bbeca936aec505466c7a393bdc1c4f42d542d2c43715d78ae62"}, {"txinwitness": ["3045022100b1721be893b00f8aa1f5f72d44a8f868d0ae91920ba88417655672ff63065fea02207b941dcc19f24495f5f1acfb7b0e5995bab5eb8c9363f81833c9d375010c0e9b01", "020bfd974bb53e855a83c82def58a8e9899943736338635087eac22f04ae46beaf"], "sequence": 4294967294, "scriptSig": {"hex": "160014fddd0e5dc02e024cc77acab7ec6cb509812dc46d", "asm": "0014fddd0e5dc02e024cc77acab7ec6cb509812dc46d"}, "vout": 0, "txid": "09cc7e4af2d0a8241c90f684e328e5e29795e9d5eca2d198eb4061cc8c8b67f4"}, {"txinwitness": ["3044022022e45e3c960b51c1b422da37abc5e189698f29a65856ffd38c0d75d20350340702204dc43d933274a7839f3c736f57ee26ae6cb80d962f0d4258e9b2a0ed5b786ea701", "02ebc55423156d0f31bdff581af94f44881634693df51a1f90d3c5e0b92a8d3cca"], "sequence": 4294967294, "scriptSig": {"hex": "1600145006f7965605a802d5d14e3e5e80e033fc0eaf5f", "asm": "00145006f7965605a802d5d14e3e5e80e033fc0eaf5f"}, "vout": 0, "txid": "fa6ca28cca2735287e6ee0ef6bf9746ecc0b1b992e848bb5c3a284f0dcd80ef7"}], "txid": "0f01789290b41c744d035ae23dc6ec53e9d85150442993de02ed0573f356ea5a", "blocktime": 1537872018, "version": 2, "confirmations": 11489, "time": 1537872018, "locktime": 542992, "vsize": 348, "size": 591}