{"hash": "d18fe95cbd4c14dd7e352182f91eaac7355444ef75008a46afe23a9722d544f6", "blockhash": "00000000000000000018f53835495a110e01622372bf6ae95dc86f2b0ab887b0", "vout": [{"scriptPubKey": {"reqSigs": 1, "hex": "a914938a1910ce0cedf2cda14440f5664784b4a0c67687", "addresses": ["3F98gxHZ6vCMW4CQqP25F4575p1XTqfJmo"], "asm": "OP_HASH160 938a1910ce0cedf2cda14440f5664784b4a0c676 OP_EQUAL", "type": "scripthash"}, "value": 0.01003044, "n": 0}, {"scriptPubKey": {"reqSigs": 1, "hex": "76a9146bf5d825fdc826a564706de3e597daf6a5aaf14b88ac", "addresses": ["1Aqqp6BYo68MNUBoX7myFDEicK2Xk7yxRH"], "asm": "OP_DUP OP_HASH160 6bf5d825fdc826a564706de3e597daf6a5aaf14b OP_EQUALVERIFY OP_CHECKSIG", "type": "pubkeyhash"}, "value": 0.0028826, "n": 1}], "hex": "020000000001021169c19ffb5ed4099467c642199170524d4e27ba03765f7e862867d6600c26c40100000017160014853534a7c6a26f9de4f9aee9fe6a51b510deee73feffffffea78916916e332db4845511f43328b222184a1a09c93d2a7ff795c57e46c90390d0000001716001440208ddfabaced411a8d05a7a47251ebb99cd243feffffff02244e0f000000000017a914938a1910ce0cedf2cda14440f5664784b4a0c6768704660400000000001976a9146bf5d825fdc826a564706de3e597daf6a5aaf14b88ac02483045022100f3eab0ac4bc7e4883419327a49fbc4ae9eee437381a2a74f789360002f9857180220474871f3e91f3aa3eb43870260e48c5ff950ca22ddb5b752fc0cb490768c7aa40121034d31553be0e6fa9110489fcc122043f48df0a04ab6df6a8f62715338ff92474e024830450221009aeed10aadbc9237a18b03c6ca08bf8ca618540043f19bb8f0c1f542bffeb5bd02203a7916cbb3d20fb085aeaa33c07450bf3ce86e43b84d3e1bcf7a6a3c8a4f4a45012102dcfb871a5489352549310c0ce4606a7533594fc01d82b27e02c167f358e6fdeb0e490800", "vin": [{"txinwitness": ["3045022100f3eab0ac4bc7e4883419327a49fbc4ae9eee437381a2a74f789360002f9857180220474871f3e91f3aa3eb43870260e48c5ff950ca22ddb5b752fc0cb490768c7aa401", "034d31553be0e6fa9110489fcc122043f48df0a04ab6df6a8f62715338ff92474e"], "sequence": 4294967294, "scriptSig": {"hex": "160014853534a7c6a26f9de4f9aee9fe6a51b510deee73", "asm": "0014853534a7c6a26f9de4f9aee9fe6a51b510deee73"}, "vout": 1, "txid": "c4260c60d66728867e5f7603ba274e4d5270911942c6679409d45efb9fc16911"}, {"txinwitness": ["30450221009aeed10aadbc9237a18b03c6ca08bf8ca618540043f19bb8f0c1f542bffeb5bd02203a7916cbb3d20fb085aeaa33c07450bf3ce86e43b84d3e1bcf7a6a3c8a4f4a4501", "02dcfb871a5489352549310c0ce4606a7533594fc01d82b27e02c167f358e6fdeb"], "sequence": 4294967294, "scriptSig": {"hex": "16001440208ddfabaced411a8d05a7a47251ebb99cd243", "asm": "001440208ddfabaced411a8d05a7a47251ebb99cd243"}, "vout": 13, "txid": "39906ce4575c79ffa7d2939ca0a18421228b32431f514548db32e316699178ea"}], "txid": "0f07779e4b07c450e8f0b3247af5875d1c5634341b16d8f3c56e0e25809f2195", "blocktime": 1537870928, "version": 2, "confirmations": 11514, "time": 1537870928, "locktime": 542990, "vsize": 259, "size": 422}