{"hash": "0f0cc993f62e82f14cc3d8825261b0f902ea2da4804a8f1277f14be5afde539a", "blockhash": "0000000000000000000baef3f32e3676a92c3b2e5da21b426e4f302fc371ce76", "vout": [{"scriptPubKey": {"reqSigs": 1, "hex": "76a914d35590fe1491a858db478a4e1de0e2f1afa6c9f288ac", "addresses": ["1LGS5jUWpu4SPPz6tLxZd37GGthrcddRZT"], "asm": "OP_DUP OP_HASH160 d35590fe1491a858db478a4e1de0e2f1afa6c9f2 OP_EQUALVERIFY OP_CHECKSIG", "type": "pubkeyhash"}, "value": 0.02, "n": 0}, {"scriptPubKey": {"reqSigs": 1, "hex": "76a914f7ac8b891394422d91cac659b035fad92773745988ac", "addresses": ["1Paac2LepGfifVGQaGbcFEm4UarXVQd4k9"], "asm": "OP_DUP OP_HASH160 f7ac8b891394422d91cac659b035fad927737459 OP_EQUALVERIFY OP_CHECKSIG", "type": "pubkeyhash"}, "value": 0.02462484, "n": 1}], "hex": "01000000016b9531881f686f4d053f44f0c2edfc430c463544cd596bb4fa28be871e703cc4000000006b483045022100df86f590116955d7a114b42fcb06dc0c3a0455029d6511e4b02a1d81388999800220368f7d696684b82dde097c81cf42f1f1106df81b103fd5230413bdae98ee433e0121033e5ff56da3518fd5e943e3639ca9479ca737db7f58a4394d7989a43d7df72391fdffffff0280841e00000000001976a914d35590fe1491a858db478a4e1de0e2f1afa6c9f288ac14932500000000001976a914f7ac8b891394422d91cac659b035fad92773745988ac16490800", "vin": [{"sequence": 4294967293, "scriptSig": {"hex": "483045022100df86f590116955d7a114b42fcb06dc0c3a0455029d6511e4b02a1d81388999800220368f7d696684b82dde097c81cf42f1f1106df81b103fd5230413bdae98ee433e0121033e5ff56da3518fd5e943e3639ca9479ca737db7f58a4394d7989a43d7df72391", "asm": "3045022100df86f590116955d7a114b42fcb06dc0c3a0455029d6511e4b02a1d81388999800220368f7d696684b82dde097c81cf42f1f1106df81b103fd5230413bdae98ee433e[ALL] 033e5ff56da3518fd5e943e3639ca9479ca737db7f58a4394d7989a43d7df72391"}, "vout": 0, "txid": "c43c701e87be28fab46b59cd4435460c43fcedc2f0443f054d6f681f8831956b"}], "txid": "0f0cc993f62e82f14cc3d8825261b0f902ea2da4804a8f1277f14be5afde539a", "blocktime": 1537876114, "version": 1, "confirmations": 11460, "time": 1537876114, "locktime": 542998, "vsize": 226, "size": 226}