{"hash": "0f0ec737c601017d1cec2892afbbe780040a6791f48393538769fa404f3efaa0", "blockhash": "0000000000000000000baef3f32e3676a92c3b2e5da21b426e4f302fc371ce76", "vout": [{"scriptPubKey": {"reqSigs": 1, "hex": "76a914408752eaa926256b405f6404ef68195b6dd043be88ac", "addresses": ["16tCMkGosDV3gghycpnXp2tTYjag44rzuy"], "asm": "OP_DUP OP_HASH160 408752eaa926256b405f6404ef68195b6dd043be OP_EQUALVERIFY OP_CHECKSIG", "type": "pubkeyhash"}, "value": 0.0124, "n": 0}, {"scriptPubKey": {"reqSigs": 1, "hex": "a914e370231feecbfc25e2e2423a5a79bf79bfdca59887", "addresses": ["3NRbeX3vD5VaVE4TDU9ivCDsEf7NPPte6J"], "asm": "OP_HASH160 e370231feecbfc25e2e2423a5a79bf79bfdca598 OP_EQUAL", "type": "scripthash"}, "value": 10.2088862, "n": 1}], "hex": "0100000001038debcd94078a13f1dc9204e7ff4c4676d1db83f386b250626ad62f9c88813401000000db00483045022100d8d19f34df6d315d61b29ed0d939817a7a661f00ea15665fd8a252a154eb87960220591c8e8e9324eea31906a43ba9fd6f7b974e55ac493e4254f74d401e0eec7f510148304502210093d1620654fede7660f0be026ff3d6ebe3097bd2b45c558b8791b9ac73e8efcb02207c4d97284d18b43b56276ee7ee56e6b751906885b59efaf6e9e2332c1d348264014752210327881b6abce6535553a3ce21fad12a7d74fd237ce7c4cd270a267162344e3082210256141f8eb687f5a68c5cc65054652dc25116fa285e44d72b44368827ffe77d9a52aeffffffff02c0eb1200000000001976a914408752eaa926256b405f6404ef68195b6dd043be88ac2c86d93c0000000017a914e370231feecbfc25e2e2423a5a79bf79bfdca5988700000000", "vin": [{"sequence": 4294967295, "scriptSig": {"hex": "00483045022100d8d19f34df6d315d61b29ed0d939817a7a661f00ea15665fd8a252a154eb87960220591c8e8e9324eea31906a43ba9fd6f7b974e55ac493e4254f74d401e0eec7f510148304502210093d1620654fede7660f0be026ff3d6ebe3097bd2b45c558b8791b9ac73e8efcb02207c4d97284d18b43b56276ee7ee56e6b751906885b59efaf6e9e2332c1d348264014752210327881b6abce6535553a3ce21fad12a7d74fd237ce7c4cd270a267162344e3082210256141f8eb687f5a68c5cc65054652dc25116fa285e44d72b44368827ffe77d9a52ae", "asm": "0 3045022100d8d19f34df6d315d61b29ed0d939817a7a661f00ea15665fd8a252a154eb87960220591c8e8e9324eea31906a43ba9fd6f7b974e55ac493e4254f74d401e0eec7f51[ALL] 304502210093d1620654fede7660f0be026ff3d6ebe3097bd2b45c558b8791b9ac73e8efcb02207c4d97284d18b43b56276ee7ee56e6b751906885b59efaf6e9e2332c1d348264[ALL] 52210327881b6abce6535553a3ce21fad12a7d74fd237ce7c4cd270a267162344e3082210256141f8eb687f5a68c5cc65054652dc25116fa285e44d72b44368827ffe77d9a52ae"}, "vout": 1, "txid": "3481889c2fd66a6250b286f383dbd176464cffe70492dcf1138a0794cdeb8d03"}], "txid": "0f0ec737c601017d1cec2892afbbe780040a6791f48393538769fa404f3efaa0", "blocktime": 1537876114, "version": 1, "confirmations": 11460, "time": 1537876114, "locktime": 0, "vsize": 336, "size": 336}