{"hash": "0f10201d67667e7ddec393a14ab71313267b55b9fb77ef176d6f369684575b7a", "blockhash": "0000000000000000001e0dab787dd257d1dbfcb92a98c2207d5e1078be1f4165", "vout": [{"scriptPubKey": {"type": "nulldata", "hex": "6a2e804caf20c9b34287e0c2625d434697a985094fba5d74b578be5e259f52e02f9143b47998f13963dce0c1ee2ec8dc", "asm": "OP_RETURN 804caf20c9b34287e0c2625d434697a985094fba5d74b578be5e259f52e02f9143b47998f13963dce0c1ee2ec8dc"}, "value": 0.0, "n": 0}, {"scriptPubKey": {"reqSigs": 1, "hex": "76a9149afca594e77fcbaf6dc16b190ae0426e151db54188ac", "addresses": ["1F8VikUQmEW6n8cHAwNjrNPUkuydM5Bt9m"], "asm": "OP_DUP OP_HASH160 9afca594e77fcbaf6dc16b190ae0426e151db541 OP_EQUALVERIFY OP_CHECKSIG", "type": "pubkeyhash"}, "value": 0.00010104, "n": 1}], "hex": "01000000015a60609ae66422e588e15d8cf87b6c77d48315cd202ef1389cd4106ff7336a1e010000006b483045022100b890465c349572148a4c79d06e50847e804974c584ec9b44595d1d0aa7900c4e02203f4327a62470a92a9414e5b9beb869733f581127f93efbde6281ef532c2f0644012102f2881289557966f72764bfdd23bb097321a1a703f7734badf3abe8c862f4959bffffffff020000000000000000306a2e804caf20c9b34287e0c2625d434697a985094fba5d74b578be5e259f52e02f9143b47998f13963dce0c1ee2ec8dc78270000000000001976a9149afca594e77fcbaf6dc16b190ae0426e151db54188ac00000000", "vin": [{"sequence": 4294967295, "scriptSig": {"hex": "483045022100b890465c349572148a4c79d06e50847e804974c584ec9b44595d1d0aa7900c4e02203f4327a62470a92a9414e5b9beb869733f581127f93efbde6281ef532c2f0644012102f2881289557966f72764bfdd23bb097321a1a703f7734badf3abe8c862f4959b", "asm": "3045022100b890465c349572148a4c79d06e50847e804974c584ec9b44595d1d0aa7900c4e02203f4327a62470a92a9414e5b9beb869733f581127f93efbde6281ef532c2f0644[ALL] 02f2881289557966f72764bfdd23bb097321a1a703f7734badf3abe8c862f4959b"}, "vout": 1, "txid": "1e6a33f76f10d49c38f12e20cd1583d4776c7bf88c5de188e52264e69a60605a"}], "txid": "0f10201d67667e7ddec393a14ab71313267b55b9fb77ef176d6f369684575b7a", "blocktime": 1537872475, "version": 1, "confirmations": 11487, "time": 1537872475, "locktime": 0, "vsize": 249, "size": 249}