{"hash": "0f10a9009cf2ecd5e14b959b1f8ba47a547383bf02b2654ce972c01733969b1c", "blockhash": "00000000000000000018f53835495a110e01622372bf6ae95dc86f2b0ab887b0", "vout": [{"scriptPubKey": {"reqSigs": 1, "hex": "76a914b537788990c2d28b1739299bb1d573a356c639a788ac", "addresses": ["1HXBkuQGZMLGzSizgKHwyaEtZJBmkFRgBn"], "asm": "OP_DUP OP_HASH160 b537788990c2d28b1739299bb1d573a356c639a7 OP_EQUALVERIFY OP_CHECKSIG", "type": "pubkeyhash"}, "value": 0.00013991, "n": 0}, {"scriptPubKey": {"reqSigs": 1, "hex": "a9140fd66ed7a8a1d00241aeef6454be5f37c210b2bc87", "addresses": ["338kwV8Fz8ePjnM7dqcCLuf6Kqez2iq2Fy"], "asm": "OP_HASH160 0fd66ed7a8a1d00241aeef6454be5f37c210b2bc OP_EQUAL", "type": "scripthash"}, "value": 0.00015615, "n": 1}], "hex": "0100000001faf3bf46052f002c6eaa2a444ed22255e047370b17bcc77956a3a0c0c036f648000000006b483045022100fdb9851589c9bc7dcf0179eb046b063109afab2447b1118a4d04f4a5810dc69502207bb01ab44906802b50af7560796ef8780dc8077908b8ad2c7acf8bcd3bad629c012103710c0238344b32360d724b5eb030f9dd634f6724fb1f30f8f55a66a8fe10e944ffffffff02a7360000000000001976a914b537788990c2d28b1739299bb1d573a356c639a788acff3c00000000000017a9140fd66ed7a8a1d00241aeef6454be5f37c210b2bc8700000000", "vin": [{"sequence": 4294967295, "scriptSig": {"hex": "483045022100fdb9851589c9bc7dcf0179eb046b063109afab2447b1118a4d04f4a5810dc69502207bb01ab44906802b50af7560796ef8780dc8077908b8ad2c7acf8bcd3bad629c012103710c0238344b32360d724b5eb030f9dd634f6724fb1f30f8f55a66a8fe10e944", "asm": "3045022100fdb9851589c9bc7dcf0179eb046b063109afab2447b1118a4d04f4a5810dc69502207bb01ab44906802b50af7560796ef8780dc8077908b8ad2c7acf8bcd3bad629c[ALL] 03710c0238344b32360d724b5eb030f9dd634f6724fb1f30f8f55a66a8fe10e944"}, "vout": 0, "txid": "48f636c0c0a0a35679c7bc170b3747e05522d24e442aaa6e2c002f0546bff3fa"}], "txid": "0f10a9009cf2ecd5e14b959b1f8ba47a547383bf02b2654ce972c01733969b1c", "blocktime": 1537870928, "version": 1, "confirmations": 11514, "time": 1537870928, "locktime": 0, "vsize": 224, "size": 224}