{"hash": "0f1903fbabaa3f0a2add725550acbd5899a72a7a1dc2c3de05ba4e17a52a05a8", "blockhash": "00000000000000000017f5eb5941039fbcee6240d03bc1f2f8e35350df66a1d8", "vout": [{"scriptPubKey": {"reqSigs": 1, "hex": "76a9146709bb97261f6fafd74eb2a6b1a6771730f8d1d188ac", "addresses": ["1APpG1D7tj5gA65fcQTVoXpcJP5Fi5msXT"], "asm": "OP_DUP OP_HASH160 6709bb97261f6fafd74eb2a6b1a6771730f8d1d1 OP_EQUALVERIFY OP_CHECKSIG", "type": "pubkeyhash"}, "value": 0.00264, "n": 0}, {"scriptPubKey": {"reqSigs": 1, "hex": "76a914311fdd2c5ea5f4c67e661c7706288bf0f9b4d17e88ac", "addresses": ["15UkHM638UQzUS3T1KiZSuFTeKDNHqKjJ7"], "asm": "OP_DUP OP_HASH160 311fdd2c5ea5f4c67e661c7706288bf0f9b4d17e OP_EQUALVERIFY OP_CHECKSIG", "type": "pubkeyhash"}, "value": 5.73e-05, "n": 1}], "hex": "01000000010a5b17b3c59ac8cce45a1af315fa82f471ce9f2c485d0a21e09f54681d985b8f000000006a47304402201cdf7b4d972704a26eccb7f871e8c0f168f1661e1aaf27ffb4abd5633e7f80180220274576a4dbb2adaf5ccedaedb8b8561f01c93987b1b3074a5ea924151e9540660121030d826bfa53c40296291596e569aca6370ac87a4a55cf1c08aae02ecf9d3951c6ffffffff0240070400000000001976a9146709bb97261f6fafd74eb2a6b1a6771730f8d1d188ac62160000000000001976a914311fdd2c5ea5f4c67e661c7706288bf0f9b4d17e88ac00000000", "vin": [{"sequence": 4294967295, "scriptSig": {"hex": "47304402201cdf7b4d972704a26eccb7f871e8c0f168f1661e1aaf27ffb4abd5633e7f80180220274576a4dbb2adaf5ccedaedb8b8561f01c93987b1b3074a5ea924151e9540660121030d826bfa53c40296291596e569aca6370ac87a4a55cf1c08aae02ecf9d3951c6", "asm": "304402201cdf7b4d972704a26eccb7f871e8c0f168f1661e1aaf27ffb4abd5633e7f80180220274576a4dbb2adaf5ccedaedb8b8561f01c93987b1b3074a5ea924151e954066[ALL] 030d826bfa53c40296291596e569aca6370ac87a4a55cf1c08aae02ecf9d3951c6"}, "vout": 0, "txid": "8f5b981d68549fe0210a5d482c9fce71f482fa15f31a5ae4ccc89ac5b3175b0a"}], "txid": "0f1903fbabaa3f0a2add725550acbd5899a72a7a1dc2c3de05ba4e17a52a05a8", "blocktime": 1537874412, "version": 1, "confirmations": 11468, "time": 1537874412, "locktime": 0, "vsize": 225, "size": 225}