{"hash": "0f19f753c8a68929296c185005d8d2f3c5d0925aa5a20c2666c29587563b0571", "blockhash": "00000000000000000017f5eb5941039fbcee6240d03bc1f2f8e35350df66a1d8", "vout": [{"scriptPubKey": {"reqSigs": 1, "hex": "76a9142ff7252da094256a94ca2fa74fc32766dfe9127788ac", "addresses": ["15Ncpy7bhCY1RTgaW7bqUwqvY3Zgvx538P"], "asm": "OP_DUP OP_HASH160 2ff7252da094256a94ca2fa74fc32766dfe91277 OP_EQUALVERIFY OP_CHECKSIG", "type": "pubkeyhash"}, "value": 0.01383784, "n": 0}, {"scriptPubKey": {"type": "nulldata", "hex": "6a4c50000077fc0001024291d4c6f5cc6431af6411d19ed074892d00f8e87af8e8e963c7cfd5b9f682f669bcef1809ebfb471da22bee5d5baa19670613a51606938be4bc9a9526289ac0f6612cd74e33776ee4", "asm": "OP_RETURN 000077fc0001024291d4c6f5cc6431af6411d19ed074892d00f8e87af8e8e963c7cfd5b9f682f669bcef1809ebfb471da22bee5d5baa19670613a51606938be4bc9a9526289ac0f6612cd74e33776ee4"}, "value": 0.0, "n": 1}], "hex": "0100000001402923653c92dc6d78df0a57b4630805e60df0f0fbe8722140bc552db7bd844e000000006b483045022100ee4e0adb6d655f9fe9c386a025481e6824bb4b4bfa4f79a54133a3c57debddbf022008cb7ac02456ef84ee1ba30b852d75161dfbf8400c673315d4f0883bf12abb4c01210209daa13b81133f92387961f42a09c372fe1fc6d8be61f4863e01da8c5e61fb14ffffffff02681d1500000000001976a9142ff7252da094256a94ca2fa74fc32766dfe9127788ac0000000000000000536a4c50000077fc0001024291d4c6f5cc6431af6411d19ed074892d00f8e87af8e8e963c7cfd5b9f682f669bcef1809ebfb471da22bee5d5baa19670613a51606938be4bc9a9526289ac0f6612cd74e33776ee400000000", "vin": [{"sequence": 4294967295, "scriptSig": {"hex": "483045022100ee4e0adb6d655f9fe9c386a025481e6824bb4b4bfa4f79a54133a3c57debddbf022008cb7ac02456ef84ee1ba30b852d75161dfbf8400c673315d4f0883bf12abb4c01210209daa13b81133f92387961f42a09c372fe1fc6d8be61f4863e01da8c5e61fb14", "asm": "3045022100ee4e0adb6d655f9fe9c386a025481e6824bb4b4bfa4f79a54133a3c57debddbf022008cb7ac02456ef84ee1ba30b852d75161dfbf8400c673315d4f0883bf12abb4c[ALL] 0209daa13b81133f92387961f42a09c372fe1fc6d8be61f4863e01da8c5e61fb14"}, "vout": 0, "txid": "4e84bdb72d55bc402172e8fbf0f00de6050863b4570adf786ddc923c65232940"}], "txid": "0f19f753c8a68929296c185005d8d2f3c5d0925aa5a20c2666c29587563b0571", "blocktime": 1537874412, "version": 1, "confirmations": 11467, "time": 1537874412, "locktime": 0, "vsize": 284, "size": 284}