{"hash": "b9f58f90fbe40da7572ef797220ed433214597fb67e7590f1350d7f44bca506e", "blockhash": "00000000000000000018f53835495a110e01622372bf6ae95dc86f2b0ab887b0", "vout": [{"scriptPubKey": {"reqSigs": 1, "hex": "a914cfad5fb24901d7faea42cc10c926df5361eeefd287", "addresses": ["3Ld7VUb1V8aZygpVLJXJgDxyydqjF1dsTn"], "asm": "OP_HASH160 cfad5fb24901d7faea42cc10c926df5361eeefd2 OP_EQUAL", "type": "scripthash"}, "value": 0.01004531, "n": 0}, {"scriptPubKey": {"reqSigs": 1, "hex": "76a914e2e935237afbbfe00bd99aaa81246024105058c788ac", "addresses": ["1Mgo5uCE8xnPyzaSukNvFp2KYQNQKmaVky"], "asm": "OP_DUP OP_HASH160 e2e935237afbbfe00bd99aaa81246024105058c7 OP_EQUALVERIFY OP_CHECKSIG", "type": "pubkeyhash"}, "value": 0.0019176, "n": 1}], "hex": "0200000000010294f1b6e89a2d99e7715ff6df53574be440c41de853963e42c6f862f846086f3000000000171600149fa42b7b3d242d962947ef2427d8235d3800dffdfeffffffea78916916e332db4845511f43328b222184a1a09c93d2a7ff795c57e46c90390a000000171600144b9a6d8b7e27dc0d1927e55d5be0118e480c2d09feffffff02f3530f000000000017a914cfad5fb24901d7faea42cc10c926df5361eeefd28710ed0200000000001976a914e2e935237afbbfe00bd99aaa81246024105058c788ac02483045022100d8114f16a1f7bdcfbdb93725cb0baead45d94091d0ea5d6b1df4178c8d395ee80220680b3d15fa587721eba27868822d98903dfdfef2fb12dd9977cd4d6b94646cd1012102ae36d6cf4f4b14fab59844c09a2a5ffd01e39ea4a69cfb74c8b7769c9cb724af02473044022045a7e20b2c272f2fbaf55b0f6c7e9bcbb8d7b0ca91cdbdf31d94a2e57b69754502203425ddb3b5dd17b9528510ab26b24bf8894421ff88f52ab9328f8b363f13e3e7012102217bf9c08aa2d83bca8fc78081c02dfee1e6a858d1bacfde60f7171973d564e00e490800", "vin": [{"txinwitness": ["3045022100d8114f16a1f7bdcfbdb93725cb0baead45d94091d0ea5d6b1df4178c8d395ee80220680b3d15fa587721eba27868822d98903dfdfef2fb12dd9977cd4d6b94646cd101", "02ae36d6cf4f4b14fab59844c09a2a5ffd01e39ea4a69cfb74c8b7769c9cb724af"], "sequence": 4294967294, "scriptSig": {"hex": "1600149fa42b7b3d242d962947ef2427d8235d3800dffd", "asm": "00149fa42b7b3d242d962947ef2427d8235d3800dffd"}, "vout": 0, "txid": "306f0846f862f8c6423e9653e81dc440e44b5753dff65f71e7992d9ae8b6f194"}, {"txinwitness": ["3044022045a7e20b2c272f2fbaf55b0f6c7e9bcbb8d7b0ca91cdbdf31d94a2e57b69754502203425ddb3b5dd17b9528510ab26b24bf8894421ff88f52ab9328f8b363f13e3e701", "02217bf9c08aa2d83bca8fc78081c02dfee1e6a858d1bacfde60f7171973d564e0"], "sequence": 4294967294, "scriptSig": {"hex": "1600144b9a6d8b7e27dc0d1927e55d5be0118e480c2d09", "asm": "00144b9a6d8b7e27dc0d1927e55d5be0118e480c2d09"}, "vout": 10, "txid": "39906ce4575c79ffa7d2939ca0a18421228b32431f514548db32e316699178ea"}], "txid": "0f1ccd41fc4a9cc89e6553fbed635b06a21904fbd3ee15fa8688d3454dd7daba", "blocktime": 1537870928, "version": 2, "confirmations": 11514, "time": 1537870928, "locktime": 542990, "vsize": 259, "size": 421}