{"hash": "5087ce057a1435de322278109658f7c564f73567b8de34400b288a3b7e4176b7", "blockhash": "0000000000000000001e0dab787dd257d1dbfcb92a98c2207d5e1078be1f4165", "vout": [{"scriptPubKey": {"reqSigs": 1, "hex": "76a9143687b8f6aa15f552a8775ed1f8d9af2f4a18f2b888ac", "addresses": ["15yL5XRAJELfPFpK9MFXVnJ3z1bGZEsNEF"], "asm": "OP_DUP OP_HASH160 3687b8f6aa15f552a8775ed1f8d9af2f4a18f2b8 OP_EQUALVERIFY OP_CHECKSIG", "type": "pubkeyhash"}, "value": 0.004, "n": 0}, {"scriptPubKey": {"reqSigs": 1, "hex": "a914a9665bf45f2b75ef096c1a59e1e6f9d2d77cb84487", "addresses": ["3H8ik1EUue1YuHaFM7UyGG8BK6qDaZLa5y"], "asm": "OP_HASH160 a9665bf45f2b75ef096c1a59e1e6f9d2d77cb844 OP_EQUAL", "type": "scripthash"}, "value": 0.287741, "n": 1}], "hex": "01000000000101cbd89d683ad788482b6cb580acb7049137fc9a49429ce61b6ca8d1a713fea46f01000000232200200e973628fd50bb093c73b7749addb7ca89e6d298042b41baef3bc435118d2276ffffffff02801a0600000000001976a9143687b8f6aa15f552a8775ed1f8d9af2f4a18f2b888acd40eb7010000000017a914a9665bf45f2b75ef096c1a59e1e6f9d2d77cb844870400483045022100ce2a74171dfd96e969b40de56f053d6442c86706f3c5607f5c75e3c5e3330c6502201357ecfbf658dddb9ed2d2c68053fe363846fcd82f6e4d0ae384f15e12d9773b014730440220775ad9ea37f1c45b737a0f0ca28bf2dbba0179025bca17ed940d69fe15f9d65002200686b68cb374cbbb36f38aa3632a51533e3c2cae39d986052bf68bc6e18cbb6101695221021909bf9706046df3f27fc4a1766c93175bcf1fead06ceb95d536ac70916b4c2821026ad23be80fc71762405d5105ba3bc492014d17b57b81cf325bd643c61af8b6e121026d202b35ab20fc56e9926dceab3a8f161019dcf72feee8e66370e81b131cefdd53ae00000000", "vin": [{"txinwitness": ["", "3045022100ce2a74171dfd96e969b40de56f053d6442c86706f3c5607f5c75e3c5e3330c6502201357ecfbf658dddb9ed2d2c68053fe363846fcd82f6e4d0ae384f15e12d9773b01", "30440220775ad9ea37f1c45b737a0f0ca28bf2dbba0179025bca17ed940d69fe15f9d65002200686b68cb374cbbb36f38aa3632a51533e3c2cae39d986052bf68bc6e18cbb6101", "5221021909bf9706046df3f27fc4a1766c93175bcf1fead06ceb95d536ac70916b4c2821026ad23be80fc71762405d5105ba3bc492014d17b57b81cf325bd643c61af8b6e121026d202b35ab20fc56e9926dceab3a8f161019dcf72feee8e66370e81b131cefdd53ae"], "sequence": 4294967295, "scriptSig": {"hex": "2200200e973628fd50bb093c73b7749addb7ca89e6d298042b41baef3bc435118d2276", "asm": "00200e973628fd50bb093c73b7749addb7ca89e6d298042b41baef3bc435118d2276"}, "vout": 1, "txid": "6fa4fe13a7d1a86c1be69c42499afc379104b7ac80b56c2b4888d73a689dd8cb"}], "txid": "0f1c361c379679040ead86cb699d4c8cf285e4bb94564dffc86f6c71592d95f9", "blocktime": 1537872475, "version": 1, "confirmations": 11487, "time": 1537872475, "locktime": 0, "vsize": 216, "size": 407}