{"hash": "0f1e030830a025b20ff8aa9b30cc404b817474940612159b59c3a212c0caeef0", "blockhash": "00000000000000000017f5eb5941039fbcee6240d03bc1f2f8e35350df66a1d8", "vout": [{"scriptPubKey": {"reqSigs": 1, "hex": "76a914147d1e9f67612bf408a8c2674208f47a3fba6c5088ac", "addresses": ["12sLQJQsWL8NprhukguoyBhavH5PdHbxT3"], "asm": "OP_DUP OP_HASH160 147d1e9f67612bf408a8c2674208f47a3fba6c50 OP_EQUALVERIFY OP_CHECKSIG", "type": "pubkeyhash"}, "value": 0.0112, "n": 0}, {"scriptPubKey": {"reqSigs": 1, "hex": "76a9144e5a3d36ad31cc73aec1b5c6c0147324b15f118088ac", "addresses": ["189HotQz7HZ4uQ1q14bNKzbAS9HkLPMzNc"], "asm": "OP_DUP OP_HASH160 4e5a3d36ad31cc73aec1b5c6c0147324b15f1180 OP_EQUALVERIFY OP_CHECKSIG", "type": "pubkeyhash"}, "value": 1.296e-05, "n": 1}], "hex": "01000000011db856f62dfb5790023badf984312d96d3edc419a84fcff50a28b44f3a8806050f0000006b483045022100e01202796be8c51ec4ccc3767b932cbe96d0a7abdd6da66a21952ead6819f90f022037b7852cc2905f964e836a7ce3695bfe7843b753db04b629f6dfefad43dc2f0801210282506db15ecbdad17f8676f87ae07666883bfa0485cf74fa96eaac586a1e9ef4ffffffff0200171100000000001976a914147d1e9f67612bf408a8c2674208f47a3fba6c5088ac10050000000000001976a9144e5a3d36ad31cc73aec1b5c6c0147324b15f118088ac00000000", "vin": [{"sequence": 4294967295, "scriptSig": {"hex": "483045022100e01202796be8c51ec4ccc3767b932cbe96d0a7abdd6da66a21952ead6819f90f022037b7852cc2905f964e836a7ce3695bfe7843b753db04b629f6dfefad43dc2f0801210282506db15ecbdad17f8676f87ae07666883bfa0485cf74fa96eaac586a1e9ef4", "asm": "3045022100e01202796be8c51ec4ccc3767b932cbe96d0a7abdd6da66a21952ead6819f90f022037b7852cc2905f964e836a7ce3695bfe7843b753db04b629f6dfefad43dc2f08[ALL] 0282506db15ecbdad17f8676f87ae07666883bfa0485cf74fa96eaac586a1e9ef4"}, "vout": 15, "txid": "0506883a4fb4280af5cf4fa819c4edd3962d3184f9ad3b029057fb2df656b81d"}], "txid": "0f1e030830a025b20ff8aa9b30cc404b817474940612159b59c3a212c0caeef0", "blocktime": 1537874412, "version": 1, "confirmations": 11467, "time": 1537874412, "locktime": 0, "vsize": 226, "size": 226}