{"hash": "0f2206e74d5db12c30f87c9a19381a6410dad30567e4c6a2dce2b9a7fa33cbbc", "blockhash": "0000000000000000001f76057863aec43deb6fa401d9628bb513d65a8098bfab", "vout": [{"scriptPubKey": {"reqSigs": 1, "hex": "a9146ee86d47277df4b5ed8b5a3189e851d0c8a53e1d87", "addresses": ["3BoSgwsjpWBZym5UPcfcApzXtAsEUy1urq"], "asm": "OP_HASH160 6ee86d47277df4b5ed8b5a3189e851d0c8a53e1d OP_EQUAL", "type": "scripthash"}, "value": 4.097e-05, "n": 0}, {"scriptPubKey": {"reqSigs": 1, "hex": "76a91463af8aca0e4a27a6b48dc28310692a8a767f80a288ac", "addresses": ["1A66BseqKVYdDmBYM2qBJkJNUF1Dt7EtAP"], "asm": "OP_DUP OP_HASH160 63af8aca0e4a27a6b48dc28310692a8a767f80a2 OP_EQUALVERIFY OP_CHECKSIG", "type": "pubkeyhash"}, "value": 0.00426283, "n": 1}], "hex": "0100000002ab66d1fb933de2e20b2754faece30064802ffc55e5699fd18c801a636b40a24000000000fc0047304402204ff3b9f71884c7be592ca5c65c37a580b0502dc9c882aa2ce7b7dc0a8fa6b7670220219390f1dfb0fc6c7a98a44b04cb03eac3f7dd33f189a6f7cc764bc03f1587fa0147304402207ce8cd56e2a4934ae0bec6fb750dc40e1f93396af7c8390b0f934199a83cd49f022075cf557c86ff3f5cbd6c8503e583dd606d269f32661226127df3433f31d31924014c695221021380dc354f15ed7f8821577ab0c148c9a2401cfa43dbbba0aa18a5b19ad21f312102b4b4bfac5f56f74ef20ecc299fd33335be63147fea86efbddab3ca23604ea8c0210304821016a62f6fb13570238eefa2cbb7db1f5101b91d280da1099428a24e6f7753ae33030000d9220479dba07d13c69ca03e282ad7b742cd80f0376a051dbe9e66d9631d550a020000006b483045022100fbb04d152f5984a6e89613aa412df5e24d4e76c80845c56f2e43d4053763b1c30220776164b2ad6ae7dca475583d6382f46ea88443306fec18d9623137e6e5885542012103c42f3e8ba91ab56ec5db60d06fd55ed939f7de6ed4b54eb556961bbb5dc7ab37ffffffff02011000000000000017a9146ee86d47277df4b5ed8b5a3189e851d0c8a53e1d872b810600000000001976a91463af8aca0e4a27a6b48dc28310692a8a767f80a288ac00000000", "vin": [{"sequence": 819, "scriptSig": {"hex": "0047304402204ff3b9f71884c7be592ca5c65c37a580b0502dc9c882aa2ce7b7dc0a8fa6b7670220219390f1dfb0fc6c7a98a44b04cb03eac3f7dd33f189a6f7cc764bc03f1587fa0147304402207ce8cd56e2a4934ae0bec6fb750dc40e1f93396af7c8390b0f934199a83cd49f022075cf557c86ff3f5cbd6c8503e583dd606d269f32661226127df3433f31d31924014c695221021380dc354f15ed7f8821577ab0c148c9a2401cfa43dbbba0aa18a5b19ad21f312102b4b4bfac5f56f74ef20ecc299fd33335be63147fea86efbddab3ca23604ea8c0210304821016a62f6fb13570238eefa2cbb7db1f5101b91d280da1099428a24e6f7753ae", "asm": "0 304402204ff3b9f71884c7be592ca5c65c37a580b0502dc9c882aa2ce7b7dc0a8fa6b7670220219390f1dfb0fc6c7a98a44b04cb03eac3f7dd33f189a6f7cc764bc03f1587fa[ALL] 304402207ce8cd56e2a4934ae0bec6fb750dc40e1f93396af7c8390b0f934199a83cd49f022075cf557c86ff3f5cbd6c8503e583dd606d269f32661226127df3433f31d31924[ALL] 5221021380dc354f15ed7f8821577ab0c148c9a2401cfa43dbbba0aa18a5b19ad21f312102b4b4bfac5f56f74ef20ecc299fd33335be63147fea86efbddab3ca23604ea8c0210304821016a62f6fb13570238eefa2cbb7db1f5101b91d280da1099428a24e6f7753ae"}, "vout": 0, "txid": "40a2406b631a808cd19f69e555fc2f806400e3ecfa54270be2e23d93fbd166ab"}, {"sequence": 4294967295, "scriptSig": {"hex": "483045022100fbb04d152f5984a6e89613aa412df5e24d4e76c80845c56f2e43d4053763b1c30220776164b2ad6ae7dca475583d6382f46ea88443306fec18d9623137e6e5885542012103c42f3e8ba91ab56ec5db60d06fd55ed939f7de6ed4b54eb556961bbb5dc7ab37", "asm": "3045022100fbb04d152f5984a6e89613aa412df5e24d4e76c80845c56f2e43d4053763b1c30220776164b2ad6ae7dca475583d6382f46ea88443306fec18d9623137e6e5885542[ALL] 03c42f3e8ba91ab56ec5db60d06fd55ed939f7de6ed4b54eb556961bbb5dc7ab37"}, "vout": 2, "txid": "0a551d63d9669ebe1d056a37f080cd42b7d72a283ea09cc6137da0db790422d9"}], "txid": "0f2206e74d5db12c30f87c9a19381a6410dad30567e4c6a2dce2b9a7fa33cbbc", "blocktime": 1537873891, "version": 1, "confirmations": 11475, "time": 1537873891, "locktime": 0, "vsize": 517, "size": 517}