{"hash": "0f25ab0c150faa50a7adae9aba7a7388b152fd496703f5677b94a21a37054b2e", "blockhash": "00000000000000000018f53835495a110e01622372bf6ae95dc86f2b0ab887b0", "vout": [{"scriptPubKey": {"reqSigs": 1, "hex": "a9149423f02482bf9c4e1b608f5997512d409396b00e87", "addresses": ["3FCJyxKfJEFD3kLAzqcb4i8HiG8QRoJ7dA"], "asm": "OP_HASH160 9423f02482bf9c4e1b608f5997512d409396b00e OP_EQUAL", "type": "scripthash"}, "value": 0.00780591, "n": 0}], "hex": "0100000001948bcddcdf4dcb0919d81bafb9f141789188c531b98e1fedceb0171e63521a62010000006b4830450221008ccfe54391c0a6baa76117bff78b61b81438605fd867ec9157106048b7eda48b0220342843f3ad52e9718b5d70a4d7420d342cfdfde0e3e1c78238e6651adb397d48012103fed8bf3bb3e9e11530adfbfab4032d9f61a826275613d955c7aa071ca8544000feffffff012fe90b000000000017a9149423f02482bf9c4e1b608f5997512d409396b00e870e490800", "vin": [{"sequence": 4294967294, "scriptSig": {"hex": "4830450221008ccfe54391c0a6baa76117bff78b61b81438605fd867ec9157106048b7eda48b0220342843f3ad52e9718b5d70a4d7420d342cfdfde0e3e1c78238e6651adb397d48012103fed8bf3bb3e9e11530adfbfab4032d9f61a826275613d955c7aa071ca8544000", "asm": "30450221008ccfe54391c0a6baa76117bff78b61b81438605fd867ec9157106048b7eda48b0220342843f3ad52e9718b5d70a4d7420d342cfdfde0e3e1c78238e6651adb397d48[ALL] 03fed8bf3bb3e9e11530adfbfab4032d9f61a826275613d955c7aa071ca8544000"}, "vout": 1, "txid": "621a52631e17b0ceed1f8eb931c588917841f1b9af1bd81909cb4ddfdccd8b94"}], "txid": "0f25ab0c150faa50a7adae9aba7a7388b152fd496703f5677b94a21a37054b2e", "blocktime": 1537870928, "version": 1, "confirmations": 11514, "time": 1537870928, "locktime": 542990, "vsize": 190, "size": 190}