{"hash": "0f27302365ccd8be5ce0480e8537cbe10dce24fad84207eef153b061896aa8b8", "blockhash": "0000000000000000001cda96e906b7601b7a6fb1a3b62bca570a9e5d8f4b3de1", "vout": [{"scriptPubKey": {"reqSigs": 1, "hex": "a9146f846526b7d94d2951cee66e6b2d5a4b94dbe9ac87", "addresses": ["3BrfXp1Psfm6faiv3tnzJ8Qye3jDNha5WR"], "asm": "OP_HASH160 6f846526b7d94d2951cee66e6b2d5a4b94dbe9ac OP_EQUAL", "type": "scripthash"}, "value": 0.008444, "n": 0}, {"scriptPubKey": {"reqSigs": 1, "hex": "76a914579f69b154be5f7b1f64debbdad0dc9cb64ce43588ac", "addresses": ["18zJktZt4MDqmHHjDPGsQFgkXBh5MJ34PH"], "asm": "OP_DUP OP_HASH160 579f69b154be5f7b1f64debbdad0dc9cb64ce435 OP_EQUALVERIFY OP_CHECKSIG", "type": "pubkeyhash"}, "value": 0.21465081, "n": 1}], "hex": "0100000001e9d799dd8be1e013d3004d4afe555888f9fee9d3a607dee568eff3617f619b58010000006b483045022100a394b2934a967f1875b21a009f3e0f06717b51a3ac867e624d11600951430ba202204f3185e775c2e244280bd6c9055b532dbc04c872fb1fdac0b71be2004f4f11f40121038c76e90ed64a5c1f70261e1db21f517e2232b8116142a27bc27073c81c3f66f7ffffffff0270e20c000000000017a9146f846526b7d94d2951cee66e6b2d5a4b94dbe9ac87f9874701000000001976a914579f69b154be5f7b1f64debbdad0dc9cb64ce43588ac00000000", "vin": [{"sequence": 4294967295, "scriptSig": {"hex": "483045022100a394b2934a967f1875b21a009f3e0f06717b51a3ac867e624d11600951430ba202204f3185e775c2e244280bd6c9055b532dbc04c872fb1fdac0b71be2004f4f11f40121038c76e90ed64a5c1f70261e1db21f517e2232b8116142a27bc27073c81c3f66f7", "asm": "3045022100a394b2934a967f1875b21a009f3e0f06717b51a3ac867e624d11600951430ba202204f3185e775c2e244280bd6c9055b532dbc04c872fb1fdac0b71be2004f4f11f4[ALL] 038c76e90ed64a5c1f70261e1db21f517e2232b8116142a27bc27073c81c3f66f7"}, "vout": 1, "txid": "589b617f61f3ef68e5de07a6d3e9fef9885855fe4a4d00d313e0e18bdd99d7e9"}], "txid": "0f27302365ccd8be5ce0480e8537cbe10dce24fad84207eef153b061896aa8b8", "blocktime": 1537873282, "version": 1, "confirmations": 11484, "time": 1537873282, "locktime": 0, "vsize": 224, "size": 224}