{"hash": "5fcf0df66436c78a8d6adb15631ed5ea0c11af0bd9a49eebe1d08ceea0c6e0dc", "blockhash": "0000000000000000000dcc0f55137456b1a82d3642486a52398922ac4d620174", "vout": [{"scriptPubKey": {"reqSigs": 1, "hex": "a9147be2f987fb4d9f3fe7f386b2cf4e9125ac46aabd87", "addresses": ["3Cz4wcttywEKoJiVsUk3uz3XBXpsnvij83"], "asm": "OP_HASH160 7be2f987fb4d9f3fe7f386b2cf4e9125ac46aabd OP_EQUAL", "type": "scripthash"}, "value": 0.04977543, "n": 0}], "hex": "010000000001048a901ed6273da68005d7e133e80cbbea32b73bd65c86dcc770a3790c849acb5a060000001716001447f582746cf3118ab5779d2556b2995e50ecb5fcfdffffff46ed0a9b1ec6a824b27f7f391356d7300ce8656d9b03017cd1fcf291a55c37ac000000001716001498fa4583b7aa20ddbf25921cb412056487638f44fdffffff46ed0a9b1ec6a824b27f7f391356d7300ce8656d9b03017cd1fcf291a55c37ac010000001716001408762a61b07894e067a42ead087a636fe32b5abcfdffffff46ed0a9b1ec6a824b27f7f391356d7300ce8656d9b03017cd1fcf291a55c37ac0300000017160014093c014fc9a4af088c3cb317abc8d900c08fc42dfdffffff0187f34b000000000017a9147be2f987fb4d9f3fe7f386b2cf4e9125ac46aabd8702473044022006ea580e3e16f2f30c8a3c8badbb0fab98561c0212c6e69f41b88245ded4164d022052d3e7b6540ed8e1c198d969a997b026df1cb1ea04a3d32551adb3886b11fa96012102eccc51790cf5bcc1b61c98ac2b4619785e3152535f61b16a90d6006133c33a6002483045022100d423b7346bf372143b76c9fdd99d0ef5f30f3ddf3a4f4238dc0952d8dee1ac6002201b863ed4d4cf419ccb21d25c560c31a1163b0f67d8247d99c81bf2e00e330507012102813dbb75cbbc997298804803389b82e46cabc4c8ae336b9c4da89626357a5883024730440220782da9300c8eaabc99a7b6ef01232af3cc0b9ad8b617bf2774da2196111e52e602201353e77f60fb1e036f7d0033e1e5bbb124079fe5946cdbb3ff865cb7cc2dae380121029be38bff7b10b69fc80ec5595d7c1c44c836be73d3938e2dab5e45efd9c44b54024830450221008478d71af5b3308e4cb7da178105a50871a8241e3272ee55bf03c9d8f5e60f3002205f6c82ef54a4d9d19c84b07a8450d231071e831856604978877a5dfc6003ec2a012103aba711d57d0d5ab73004506ae9a893de66e8e641cb1d4114fa719d68dc10110f00000000", "vin": [{"txinwitness": ["3044022006ea580e3e16f2f30c8a3c8badbb0fab98561c0212c6e69f41b88245ded4164d022052d3e7b6540ed8e1c198d969a997b026df1cb1ea04a3d32551adb3886b11fa9601", "02eccc51790cf5bcc1b61c98ac2b4619785e3152535f61b16a90d6006133c33a60"], "sequence": 4294967293, "scriptSig": {"hex": "16001447f582746cf3118ab5779d2556b2995e50ecb5fc", "asm": "001447f582746cf3118ab5779d2556b2995e50ecb5fc"}, "vout": 6, "txid": "5acb9a840c79a370c7dc865cd63bb732eabb0ce833e1d70580a63d27d61e908a"}, {"txinwitness": ["3045022100d423b7346bf372143b76c9fdd99d0ef5f30f3ddf3a4f4238dc0952d8dee1ac6002201b863ed4d4cf419ccb21d25c560c31a1163b0f67d8247d99c81bf2e00e33050701", "02813dbb75cbbc997298804803389b82e46cabc4c8ae336b9c4da89626357a5883"], "sequence": 4294967293, "scriptSig": {"hex": "16001498fa4583b7aa20ddbf25921cb412056487638f44", "asm": "001498fa4583b7aa20ddbf25921cb412056487638f44"}, "vout": 0, "txid": "ac375ca591f2fcd17c01039b6d65e80c30d75613397f7fb224a8c61e9b0aed46"}, {"txinwitness": ["30440220782da9300c8eaabc99a7b6ef01232af3cc0b9ad8b617bf2774da2196111e52e602201353e77f60fb1e036f7d0033e1e5bbb124079fe5946cdbb3ff865cb7cc2dae3801", "029be38bff7b10b69fc80ec5595d7c1c44c836be73d3938e2dab5e45efd9c44b54"], "sequence": 4294967293, "scriptSig": {"hex": "16001408762a61b07894e067a42ead087a636fe32b5abc", "asm": "001408762a61b07894e067a42ead087a636fe32b5abc"}, "vout": 1, "txid": "ac375ca591f2fcd17c01039b6d65e80c30d75613397f7fb224a8c61e9b0aed46"}, {"txinwitness": ["30450221008478d71af5b3308e4cb7da178105a50871a8241e3272ee55bf03c9d8f5e60f3002205f6c82ef54a4d9d19c84b07a8450d231071e831856604978877a5dfc6003ec2a01", "03aba711d57d0d5ab73004506ae9a893de66e8e641cb1d4114fa719d68dc10110f"], "sequence": 4294967293, "scriptSig": {"hex": "160014093c014fc9a4af088c3cb317abc8d900c08fc42d", "asm": "0014093c014fc9a4af088c3cb317abc8d900c08fc42d"}, "vout": 3, "txid": "ac375ca591f2fcd17c01039b6d65e80c30d75613397f7fb224a8c61e9b0aed46"}], "txid": "0f2a7e029530c9bf9e6e4cafb6a5d0104c1a2cce10d6b6b43487afa979c57249", "blocktime": 1537870268, "version": 1, "confirmations": 11518, "time": 1537870268, "locktime": 0, "vsize": 406, "size": 730}