{"hash": "0f2efa1e41ea7709ff74928147deb5e9c2a585264d7cb1f20ed3658f0d7a0fbf", "blockhash": "000000000000000000022b45ed06c6f4ccd3cf7fb5ba4856ebd2e58215665228", "vout": [{"scriptPubKey": {"reqSigs": 1, "hex": "76a914019b8d61692e6b3b1052b9c651114b87cfe4863088ac", "addresses": ["19W29sE2gUVmHzU8bK1kUihQngd4khxBV"], "asm": "OP_DUP OP_HASH160 019b8d61692e6b3b1052b9c651114b87cfe48630 OP_EQUALVERIFY OP_CHECKSIG", "type": "pubkeyhash"}, "value": 0.00157584, "n": 0}, {"scriptPubKey": {"type": "nulldata", "hex": "6a4c500000775f0001f76f0f71b697c2d4765c059d3a016b46dc7dc7d0968d120d670c1906f999d5071489fc5a0da764ec84b34e3d7cba5baa077e06125119424c35b7bc9a9526289ac0f6612cd74e33776ee4", "asm": "OP_RETURN 0000775f0001f76f0f71b697c2d4765c059d3a016b46dc7dc7d0968d120d670c1906f999d5071489fc5a0da764ec84b34e3d7cba5baa077e06125119424c35b7bc9a9526289ac0f6612cd74e33776ee4"}, "value": 0.0, "n": 1}], "hex": "010000000188ffb8b9aede67ce938258c9bb3f008d514354e1284496d4672ca186d702fd8c010000006b483045022100b2467dbf9f2550e789f4191d59016cbc9487162956c52c32b3b41d72f04cbe5c02201c34fd46fdf53605d4e49d04be705d58f896690eea75d4fb4485a1e4305ed120012102abf585d7b31b6ed3ade06145d50a428abb10106e4cdd84b9e8f496e36880c5d1ffffffff0290670200000000001976a914019b8d61692e6b3b1052b9c651114b87cfe4863088ac0000000000000000536a4c500000775f0001f76f0f71b697c2d4765c059d3a016b46dc7dc7d0968d120d670c1906f999d5071489fc5a0da764ec84b34e3d7cba5baa077e06125119424c35b7bc9a9526289ac0f6612cd74e33776ee400000000", "vin": [{"sequence": 4294967295, "scriptSig": {"hex": "483045022100b2467dbf9f2550e789f4191d59016cbc9487162956c52c32b3b41d72f04cbe5c02201c34fd46fdf53605d4e49d04be705d58f896690eea75d4fb4485a1e4305ed120012102abf585d7b31b6ed3ade06145d50a428abb10106e4cdd84b9e8f496e36880c5d1", "asm": "3045022100b2467dbf9f2550e789f4191d59016cbc9487162956c52c32b3b41d72f04cbe5c02201c34fd46fdf53605d4e49d04be705d58f896690eea75d4fb4485a1e4305ed120[ALL] 02abf585d7b31b6ed3ade06145d50a428abb10106e4cdd84b9e8f496e36880c5d1"}, "vout": 1, "txid": "8cfd02d786a12c67d4964428e15443518d003fbbc9588293ce67deaeb9b8ff88"}], "txid": "0f2efa1e41ea7709ff74928147deb5e9c2a585264d7cb1f20ed3658f0d7a0fbf", "blocktime": 1537869901, "version": 1, "confirmations": 11523, "time": 1537869901, "locktime": 0, "vsize": 284, "size": 284}