{"hash": "0f3595cc0c4e3b2ac5d72c0babbf7c02c2e3a182433c168ead68f85df35458f9", "blockhash": "0000000000000000001cda96e906b7601b7a6fb1a3b62bca570a9e5d8f4b3de1", "vout": [{"scriptPubKey": {"reqSigs": 1, "hex": "76a9140e1a2ec0bec0ffd18307406fddcb4c033534aa5888ac", "addresses": ["12HZptRMhGMprzfYhnvX4cZwnJzeobPVyU"], "asm": "OP_DUP OP_HASH160 0e1a2ec0bec0ffd18307406fddcb4c033534aa58 OP_EQUALVERIFY OP_CHECKSIG", "type": "pubkeyhash"}, "value": 0.00142763, "n": 0}, {"scriptPubKey": {"reqSigs": 1, "hex": "a91460f3fe8880d351123a9aebd91c02db82cc7babaf87", "addresses": ["3AXf5yiDYMyFHxzhYoEToXrPSyzUjh2XPr"], "asm": "OP_HASH160 60f3fe8880d351123a9aebd91c02db82cc7babaf OP_EQUAL", "type": "scripthash"}, "value": 0.00499678, "n": 1}], "hex": "01000000015df1408c6153c248020f6407700d7631670705ad096299f23e1d82d785d4f239010000006b483045022100aa359bf051c5a297dd17f11d17994ac1e5d0533347e8a1c6134ad9a1f584d123022072b732ab14d1a2e2e0b527f852df30ca268f43b9d6830d78452a2abca3b5c3b1012102527b42f674863e57cf9cfaa925ad2b3b7ef0f19181f594f4682f6fd5def0c59bffffffff02ab2d0200000000001976a9140e1a2ec0bec0ffd18307406fddcb4c033534aa5888acde9f07000000000017a91460f3fe8880d351123a9aebd91c02db82cc7babaf8700000000", "vin": [{"sequence": 4294967295, "scriptSig": {"hex": "483045022100aa359bf051c5a297dd17f11d17994ac1e5d0533347e8a1c6134ad9a1f584d123022072b732ab14d1a2e2e0b527f852df30ca268f43b9d6830d78452a2abca3b5c3b1012102527b42f674863e57cf9cfaa925ad2b3b7ef0f19181f594f4682f6fd5def0c59b", "asm": "3045022100aa359bf051c5a297dd17f11d17994ac1e5d0533347e8a1c6134ad9a1f584d123022072b732ab14d1a2e2e0b527f852df30ca268f43b9d6830d78452a2abca3b5c3b1[ALL] 02527b42f674863e57cf9cfaa925ad2b3b7ef0f19181f594f4682f6fd5def0c59b"}, "vout": 1, "txid": "39f2d485d7821d3ef2996209ad05076731760d7007640f0248c253618c40f15d"}], "txid": "0f3595cc0c4e3b2ac5d72c0babbf7c02c2e3a182433c168ead68f85df35458f9", "blocktime": 1537873282, "version": 1, "confirmations": 11484, "time": 1537873282, "locktime": 0, "vsize": 224, "size": 224}