{"hash": "0f3b39c2eea0958bc74261c6413955eabbeb2b33279b5f41adf500bb91422d9d", "blockhash": "0000000000000000001e0dab787dd257d1dbfcb92a98c2207d5e1078be1f4165", "vout": [{"scriptPubKey": {"reqSigs": 1, "hex": "76a914436b8a2bd9923cb300e4a9b7f531da3d1257467e88ac", "addresses": ["179V6qxq5ps6NWqa1gtfm4LSNi83isZ14Z"], "asm": "OP_DUP OP_HASH160 436b8a2bd9923cb300e4a9b7f531da3d1257467e OP_EQUALVERIFY OP_CHECKSIG", "type": "pubkeyhash"}, "value": 2.824e-05, "n": 0}], "hex": "01000000017d0db978b833d3d0880e139677771d9e22b55f2f1a46a55bd93b5e64a481db9f000000006a47304402205f207dd7726e3854f1b4d70af60e20648b02cfbac092cef2573205b9a796911402203fd1cee359cc81e6ea2109525a6f1c12c6e7a2637e193cbbdab8ee6890689e78012102220f2904a66b789d9be6cc907e04f6f67242ee095c53531667a2f9b6db433565ffffffff01080b0000000000001976a914436b8a2bd9923cb300e4a9b7f531da3d1257467e88ac00000000", "vin": [{"sequence": 4294967295, "scriptSig": {"hex": "47304402205f207dd7726e3854f1b4d70af60e20648b02cfbac092cef2573205b9a796911402203fd1cee359cc81e6ea2109525a6f1c12c6e7a2637e193cbbdab8ee6890689e78012102220f2904a66b789d9be6cc907e04f6f67242ee095c53531667a2f9b6db433565", "asm": "304402205f207dd7726e3854f1b4d70af60e20648b02cfbac092cef2573205b9a796911402203fd1cee359cc81e6ea2109525a6f1c12c6e7a2637e193cbbdab8ee6890689e78[ALL] 02220f2904a66b789d9be6cc907e04f6f67242ee095c53531667a2f9b6db433565"}, "vout": 0, "txid": "9fdb81a4645e3bd95ba5461a2f5fb5229e1d777796130e88d0d333b878b90d7d"}], "txid": "0f3b39c2eea0958bc74261c6413955eabbeb2b33279b5f41adf500bb91422d9d", "blocktime": 1537872475, "version": 1, "confirmations": 11487, "time": 1537872475, "locktime": 0, "vsize": 191, "size": 191}