{"hash": "b91a77bc6a3622e144ed272068f778c09eb0f00df4ce629b118b090d8d2e4185", "blockhash": "0000000000000000000dcc0f55137456b1a82d3642486a52398922ac4d620174", "vout": [{"scriptPubKey": {"reqSigs": 1, "hex": "a914e0c42cfaf290fef71b492c0634d9b4b4e43f6ae987", "addresses": ["3NBUJ3K1J15hwvZXac3QsSwZYY28KBEuKX"], "asm": "OP_HASH160 e0c42cfaf290fef71b492c0634d9b4b4e43f6ae9 OP_EQUAL", "type": "scripthash"}, "value": 1.0, "n": 0}, {"scriptPubKey": {"reqSigs": 1, "hex": "a91420f0ff66461eb9cefac8e9d33dabb916b62c1e3287", "addresses": ["34hCFVYPYVCtQFVurgAzu97Urx7KxPjgfY"], "asm": "OP_HASH160 20f0ff66461eb9cefac8e9d33dabb916b62c1e32 OP_EQUAL", "type": "scripthash"}, "value": 32.08035082, "n": 1}], "hex": "010000000001018e28ba9428ff9697098224ddfa88ba88637b51ac5988d2dde588fc662189713b0100000017160014573ee3b7b7cd6d65778847cecfab364c6de5426affffffff0200e1f5050000000017a914e0c42cfaf290fef71b492c0634d9b4b4e43f6ae9870abb36bf0000000017a91420f0ff66461eb9cefac8e9d33dabb916b62c1e32870248304502210094c34df7f56ea304f96bef9a91eceff7e50d6e8cb2922067aa4cc1c4b8cb465f02202cf58e50901e872fa78dc1cfbed5be5227aff6b0f220026bd3ced6b48c7b82d401210379df4d84fe807ef62430245b2fb4f67d738fd2cb08aae3255c4d1e2298ae554900000000", "vin": [{"txinwitness": ["304502210094c34df7f56ea304f96bef9a91eceff7e50d6e8cb2922067aa4cc1c4b8cb465f02202cf58e50901e872fa78dc1cfbed5be5227aff6b0f220026bd3ced6b48c7b82d401", "0379df4d84fe807ef62430245b2fb4f67d738fd2cb08aae3255c4d1e2298ae5549"], "sequence": 4294967295, "scriptSig": {"hex": "160014573ee3b7b7cd6d65778847cecfab364c6de5426a", "asm": "0014573ee3b7b7cd6d65778847cecfab364c6de5426a"}, "vout": 1, "txid": "3b71892166fc88e5ddd28859ac517b6388ba88fadd2482099796ff2894ba288e"}], "txid": "0f5106215b0aaceedbc1f2b495b7acdf3d039d0dc400b62b2eb5ed10109a59cd", "blocktime": 1537870268, "version": 1, "confirmations": 11518, "time": 1537870268, "locktime": 0, "vsize": 166, "size": 248}