{"hash": "fb5486bb966b6d59bdac317e0a0a1b1a4efeb610d35f6b322910b779c7d9dd66", "blockhash": "0000000000000000001cda96e906b7601b7a6fb1a3b62bca570a9e5d8f4b3de1", "vout": [{"scriptPubKey": {"reqSigs": 1, "hex": "a9149eb7e940accc6ce19f78e7d3eebc617e82ab9e7d87", "addresses": ["3GAF1Du7Kh1YBo19H3LKqdTL31eL7sbuyu"], "asm": "OP_HASH160 9eb7e940accc6ce19f78e7d3eebc617e82ab9e7d OP_EQUAL", "type": "scripthash"}, "value": 0.69116275, "n": 0}, {"scriptPubKey": {"reqSigs": 1, "hex": "76a914923a3ddc66b33466ab79ff216137bcb2d818e6c888ac", "addresses": ["1ELBRi3UJPmbXZfwVh7AbsPuDHGtjr18re"], "asm": "OP_DUP OP_HASH160 923a3ddc66b33466ab79ff216137bcb2d818e6c8 OP_EQUALVERIFY OP_CHECKSIG", "type": "pubkeyhash"}, "value": 0.0214, "n": 1}, {"scriptPubKey": {"reqSigs": 1, "hex": "76a914a7e7a0c32e241195ffa126a91330e4fb8cdde1a388ac", "addresses": ["1GJoKq8H6XrEzfNg4YFgq4eXHsA5ybnhCi"], "asm": "OP_DUP OP_HASH160 a7e7a0c32e241195ffa126a91330e4fb8cdde1a3 OP_EQUALVERIFY OP_CHECKSIG", "type": "pubkeyhash"}, "value": 0.0434, "n": 2}, {"scriptPubKey": {"reqSigs": 1, "hex": "a9147b759b19f063925ef1feb1ca74b24f60c81a9ae487", "addresses": ["3CwovY8oUHmv1crr8uWhM4TzL4yoeSsqAz"], "asm": "OP_HASH160 7b759b19f063925ef1feb1ca74b24f60c81a9ae4 OP_EQUAL", "type": "scripthash"}, "value": 21.25229726, "n": 3}], "hex": "01000000000101d0d4aad313a91aa9e9c56564abca392a4bfc54bd714fa718fb71f1081bf92e1902000000171600142a1fb4f21b604dd19b016069ed27100044e91962ffffffff0473a11e040000000017a9149eb7e940accc6ce19f78e7d3eebc617e82ab9e7d8760a72000000000001976a914923a3ddc66b33466ab79ff216137bcb2d818e6c888ac20394200000000001976a914a7e7a0c32e241195ffa126a91330e4fb8cdde1a388ac9e6eac7e0000000017a9147b759b19f063925ef1feb1ca74b24f60c81a9ae487024730440220418193b2f11e157c0dd2b2557a9c4d6a88a79072efc702542fa02fbc1a54281b02205f4288a4f0fe1de6b4db1b4f475b11dfb9c2bfde0d5ce1235fa90c23fa1b0d3901210276e2e2e95b3a442a0d2e655454a70a03167adda61a6bce61444ffae3c04cdc3b00000000", "vin": [{"txinwitness": ["30440220418193b2f11e157c0dd2b2557a9c4d6a88a79072efc702542fa02fbc1a54281b02205f4288a4f0fe1de6b4db1b4f475b11dfb9c2bfde0d5ce1235fa90c23fa1b0d3901", "0276e2e2e95b3a442a0d2e655454a70a03167adda61a6bce61444ffae3c04cdc3b"], "sequence": 4294967295, "scriptSig": {"hex": "1600142a1fb4f21b604dd19b016069ed27100044e91962", "asm": "00142a1fb4f21b604dd19b016069ed27100044e91962"}, "vout": 2, "txid": "192ef91b08f171fb18a74f71bd54fc4b2a39caab6465c5e9a91aa913d3aad4d0"}], "txid": "0f5324312c0d09696ff2b9197b96ac32d505f5180013aa8fe45b55336e9acf8e", "blocktime": 1537873282, "version": 1, "confirmations": 11484, "time": 1537873282, "locktime": 0, "vsize": 234, "size": 315}