{"hash": "0f5865263e303b046a123af8be8b904a4976780005f139e9671a60ff6cf2cbd8", "blockhash": "00000000000000000017f5eb5941039fbcee6240d03bc1f2f8e35350df66a1d8", "vout": [{"scriptPubKey": {"reqSigs": 1, "hex": "a914547f8f517bc81103c741f697f787997cf9763bdd87", "addresses": ["39PoVfqNiWUbKisVPSfzJXu3sFbzWUodt8"], "asm": "OP_HASH160 547f8f517bc81103c741f697f787997cf9763bdd OP_EQUAL", "type": "scripthash"}, "value": 0.84604045, "n": 0}, {"scriptPubKey": {"reqSigs": 1, "hex": "a914e7bd8f4c73d6136f0c5a0d471c8ab9d3e89563ba87", "addresses": ["3NpM6hXoYJWK5P1f8qRXkcUSqkTmuivZ7G"], "asm": "OP_HASH160 e7bd8f4c73d6136f0c5a0d471c8ab9d3e89563ba OP_EQUAL", "type": "scripthash"}, "value": 0.04163887, "n": 1}, {"scriptPubKey": {"reqSigs": 1, "hex": "a9146af33a1cc9df35db316650f333da92638149c50187", "addresses": ["3BSWvax1NH54zfFFZk3iB7XQ3DeGQxBgrm"], "asm": "OP_HASH160 6af33a1cc9df35db316650f333da92638149c501 OP_EQUAL", "type": "scripthash"}, "value": 35.14189008, "n": 2}], "hex": "0100000001cd3f2bfd7748f8784d38c42c5cda96fde3ba6e17d9cf9f19271f9c42e397537b02000000fdfd0000483045022100d6c25757a4f0ac46cb5e092e8875b19a4aa5b5f236b938411ea9f877ada7fc9a02200451878197aa6e34991b9f53db5001475d88d547756c8611ed344dec1b17aab001473044022065876f30918bf598cd683dafd2e922750df7b6a49036b356f032be483adfb7fb0220267919a8ccd81049b4e803bd04f4053933a9d1a66be0fe244dba142db5ab8ef9014c69522103b86f0ea9ee7379d957e02739209cc099bbf3fea6e46d6be85681c6b15975354a21029b7a2d9304e7e4cd4615fc518a2ea8224caf314c2f34311061ed0a7b7ae30a732103240d0ba864158b7b7ec7715027e19752aae806bc7f9694e07f2ea292beb90a9453aeffffffff038df40a050000000017a914547f8f517bc81103c741f697f787997cf9763bdd872f893f000000000017a914e7bd8f4c73d6136f0c5a0d471c8ab9d3e89563ba87d04476d10000000017a9146af33a1cc9df35db316650f333da92638149c5018700000000", "vin": [{"sequence": 4294967295, "scriptSig": {"hex": "00483045022100d6c25757a4f0ac46cb5e092e8875b19a4aa5b5f236b938411ea9f877ada7fc9a02200451878197aa6e34991b9f53db5001475d88d547756c8611ed344dec1b17aab001473044022065876f30918bf598cd683dafd2e922750df7b6a49036b356f032be483adfb7fb0220267919a8ccd81049b4e803bd04f4053933a9d1a66be0fe244dba142db5ab8ef9014c69522103b86f0ea9ee7379d957e02739209cc099bbf3fea6e46d6be85681c6b15975354a21029b7a2d9304e7e4cd4615fc518a2ea8224caf314c2f34311061ed0a7b7ae30a732103240d0ba864158b7b7ec7715027e19752aae806bc7f9694e07f2ea292beb90a9453ae", "asm": "0 3045022100d6c25757a4f0ac46cb5e092e8875b19a4aa5b5f236b938411ea9f877ada7fc9a02200451878197aa6e34991b9f53db5001475d88d547756c8611ed344dec1b17aab0[ALL] 3044022065876f30918bf598cd683dafd2e922750df7b6a49036b356f032be483adfb7fb0220267919a8ccd81049b4e803bd04f4053933a9d1a66be0fe244dba142db5ab8ef9[ALL] 522103b86f0ea9ee7379d957e02739209cc099bbf3fea6e46d6be85681c6b15975354a21029b7a2d9304e7e4cd4615fc518a2ea8224caf314c2f34311061ed0a7b7ae30a732103240d0ba864158b7b7ec7715027e19752aae806bc7f9694e07f2ea292beb90a9453ae"}, "vout": 2, "txid": "7b5397e3429c1f27199fcfd9176ebae3fd96da5c2cc4384d78f84877fd2b3fcd"}], "txid": "0f5865263e303b046a123af8be8b904a4976780005f139e9671a60ff6cf2cbd8", "blocktime": 1537874412, "version": 1, "confirmations": 11467, "time": 1537874412, "locktime": 0, "vsize": 402, "size": 402}