{"hash": "bb4f762b8b37e983cda1db5a2627c9526c3284ac837c7e46ba2eb771ef399bc2", "blockhash": "0000000000000000000e13cef7c366c0283d82e591d1acd082e914b08063cdf1", "vout": [{"scriptPubKey": {"reqSigs": 1, "hex": "a914a123e95c2f3a39d0836ef0eef4eed3fffdf4887887", "addresses": ["3GP3jcCASZshEmg2pQpZYA3Y9wVMGPdWcD"], "asm": "OP_HASH160 a123e95c2f3a39d0836ef0eef4eed3fffdf48878 OP_EQUAL", "type": "scripthash"}, "value": 0.01026892, "n": 0}, {"scriptPubKey": {"reqSigs": 1, "hex": "76a914e2e935237afbbfe00bd99aaa81246024105058c788ac", "addresses": ["1Mgo5uCE8xnPyzaSukNvFp2KYQNQKmaVky"], "asm": "OP_DUP OP_HASH160 e2e935237afbbfe00bd99aaa81246024105058c7 OP_EQUALVERIFY OP_CHECKSIG", "type": "pubkeyhash"}, "value": 0.0024626, "n": 1}], "hex": "020000000001023fd3715f4d60ecdf1aac2d625a20ea6e3f9ede39ab44a655457fc6c54d9c6c4d0100000017160014f9f6314b1becc8135f23eb8b0a5136f2b137f607feffffffce0b0ee88c82a4703d67a0b5bf138fcb213b59a9799d5ddcc79416b37bdb71590e00000017160014c805cabd056fbbd9c90537c498fae6e3390e6507feffffff024cab0f000000000017a914a123e95c2f3a39d0836ef0eef4eed3fffdf4887887f4c10300000000001976a914e2e935237afbbfe00bd99aaa81246024105058c788ac0247304402207eab257fd8e940ef1e6afd3c80a503ff296b0a70f09f7a7a52afaad57e826da602207175e868cdb158d6646c0a61fc872c04fa78b47990a1a75a90f1ff3efbeeb2cb0121023a83599c1bdc4d4e5f535c3ca28e01c852f4d9ec678f57c22b998bdc335cf13102473044022075b39f1d4a014998bfc21b12a9594085129288110a217c486d4494570dbb3bc2022076791d96e380c0f94434d6d2f437055fc89e4be96e3a2b9b332a07eb5c143d93012103f5063fce7b444d92ac16961fd00a3664af65cfda76fa9428d9d0e56718dfaa1b10490800", "vin": [{"txinwitness": ["304402207eab257fd8e940ef1e6afd3c80a503ff296b0a70f09f7a7a52afaad57e826da602207175e868cdb158d6646c0a61fc872c04fa78b47990a1a75a90f1ff3efbeeb2cb01", "023a83599c1bdc4d4e5f535c3ca28e01c852f4d9ec678f57c22b998bdc335cf131"], "sequence": 4294967294, "scriptSig": {"hex": "160014f9f6314b1becc8135f23eb8b0a5136f2b137f607", "asm": "0014f9f6314b1becc8135f23eb8b0a5136f2b137f607"}, "vout": 1, "txid": "4d6c9c4dc5c67f4555a644ab39de9e3f6eea205a622dac1adfec604d5f71d33f"}, {"txinwitness": ["3044022075b39f1d4a014998bfc21b12a9594085129288110a217c486d4494570dbb3bc2022076791d96e380c0f94434d6d2f437055fc89e4be96e3a2b9b332a07eb5c143d9301", "03f5063fce7b444d92ac16961fd00a3664af65cfda76fa9428d9d0e56718dfaa1b"], "sequence": 4294967294, "scriptSig": {"hex": "160014c805cabd056fbbd9c90537c498fae6e3390e6507", "asm": "0014c805cabd056fbbd9c90537c498fae6e3390e6507"}, "vout": 14, "txid": "5971db7bb31694c7dc5d9d79a9593b21cb8f13bfb5a0673d70a4828ce80e0bce"}], "txid": "0f63462b76a1bef824a60bced9cd218894e1d9327d825861b79bd0697874c4dd", "blocktime": 1537871767, "version": 2, "confirmations": 11495, "time": 1537871767, "locktime": 542992, "vsize": 258, "size": 420}