{"hash": "0f6c6d833d14202a61b1c29d1f834603a8fbfff114a8dd7a34ae48f50822c896", "blockhash": "0000000000000000000baef3f32e3676a92c3b2e5da21b426e4f302fc371ce76", "vout": [{"scriptPubKey": {"type": "nulldata", "hex": "6a4c500000780100014e0ce0702940d64fa54d8eb2d19ed074892d00f8e87af8e8e963c7cfd5b9f3e263dabad4372658501355ed46101e5baa1a040613867adde0ad2b1d100759d4ba30d2c37bb011d97e02cf", "asm": "OP_RETURN 0000780100014e0ce0702940d64fa54d8eb2d19ed074892d00f8e87af8e8e963c7cfd5b9f3e263dabad4372658501355ed46101e5baa1a040613867adde0ad2b1d100759d4ba30d2c37bb011d97e02cf"}, "value": 0.0, "n": 0}, {"scriptPubKey": {"reqSigs": 1, "hex": "76a91477fa6a4fd911af3dec9aafbd08993de19763911788ac", "addresses": ["1BwPPzDoMqzpvF2r2KK8V4qptFU7b5UPBh"], "asm": "OP_DUP OP_HASH160 77fa6a4fd911af3dec9aafbd08993de197639117 OP_EQUALVERIFY OP_CHECKSIG", "type": "pubkeyhash"}, "value": 0.00631616, "n": 1}], "hex": "01000000017dd85ee52afc1484ffa931c405a962b7bf3be2cdc6d47d549ada4d9b7a379254010000006b483045022100a587fd7d9faa23ddefd3cc5da009cea9c2d2971a5f9f9de72f215b43fdaf991202206b8dc49601ad62edaf6d81048a530ed99b8bebb0e9df134c964578ef9374ed0e0121020f2de8f993eec8e82c719023384e7fc71f80aafab92b671c0078ec555de7a6edffffffff020000000000000000536a4c500000780100014e0ce0702940d64fa54d8eb2d19ed074892d00f8e87af8e8e963c7cfd5b9f3e263dabad4372658501355ed46101e5baa1a040613867adde0ad2b1d100759d4ba30d2c37bb011d97e02cf40a30900000000001976a91477fa6a4fd911af3dec9aafbd08993de19763911788ac00000000", "vin": [{"sequence": 4294967295, "scriptSig": {"hex": "483045022100a587fd7d9faa23ddefd3cc5da009cea9c2d2971a5f9f9de72f215b43fdaf991202206b8dc49601ad62edaf6d81048a530ed99b8bebb0e9df134c964578ef9374ed0e0121020f2de8f993eec8e82c719023384e7fc71f80aafab92b671c0078ec555de7a6ed", "asm": "3045022100a587fd7d9faa23ddefd3cc5da009cea9c2d2971a5f9f9de72f215b43fdaf991202206b8dc49601ad62edaf6d81048a530ed99b8bebb0e9df134c964578ef9374ed0e[ALL] 020f2de8f993eec8e82c719023384e7fc71f80aafab92b671c0078ec555de7a6ed"}, "vout": 1, "txid": "5492377a9b4dda9a547dd4c6cde23bbfb762a905c431a9ff8414fc2ae55ed87d"}], "txid": "0f6c6d833d14202a61b1c29d1f834603a8fbfff114a8dd7a34ae48f50822c896", "blocktime": 1537876114, "version": 1, "confirmations": 11462, "time": 1537876114, "locktime": 0, "vsize": 284, "size": 284}