{"hash": "0f74f6378d9b4c50622f162c04c5794d11dc44e2d2cf365e97638c3bbedac77e", "blockhash": "0000000000000000001e0dab787dd257d1dbfcb92a98c2207d5e1078be1f4165", "vout": [{"scriptPubKey": {"reqSigs": 1, "hex": "a914dc296b034882b43c1842c08e4f68cb8a2eefdc8687", "addresses": ["3Mm8CXAP4GMkoiDGxv7dmtEWjpcEAAEUTi"], "asm": "OP_HASH160 dc296b034882b43c1842c08e4f68cb8a2eefdc86 OP_EQUAL", "type": "scripthash"}, "value": 0.0047046, "n": 0}, {"scriptPubKey": {"reqSigs": 1, "hex": "76a9146561adb8626e404651f2f02020d011a606cfb2ac88ac", "addresses": ["1AF4GCkbjYBJYi1L6nq5v4oDeQLqd5nyBz"], "asm": "OP_DUP OP_HASH160 6561adb8626e404651f2f02020d011a606cfb2ac OP_EQUALVERIFY OP_CHECKSIG", "type": "pubkeyhash"}, "value": 0.0201778, "n": 1}], "hex": "010000000152e01e332189d8aba2697d35f70ca06997c99436744de9d912f3a68db20b30d9010000006b483045022100d73425528affee966b3f76366c004efc86ea8befab9956ab4aaa532db8f43d89022024f4183bff6c2caa10a49d927d3d0e13da3cbb809f008b3b479632647cb063ec01210289176f0bad950f91057b1ab5c7c941a9e6cc974e34524dc436e3f317f5dbb82dffffffff02bc2d07000000000017a914dc296b034882b43c1842c08e4f68cb8a2eefdc8687f4c91e00000000001976a9146561adb8626e404651f2f02020d011a606cfb2ac88ac00000000", "vin": [{"sequence": 4294967295, "scriptSig": {"hex": "483045022100d73425528affee966b3f76366c004efc86ea8befab9956ab4aaa532db8f43d89022024f4183bff6c2caa10a49d927d3d0e13da3cbb809f008b3b479632647cb063ec01210289176f0bad950f91057b1ab5c7c941a9e6cc974e34524dc436e3f317f5dbb82d", "asm": "3045022100d73425528affee966b3f76366c004efc86ea8befab9956ab4aaa532db8f43d89022024f4183bff6c2caa10a49d927d3d0e13da3cbb809f008b3b479632647cb063ec[ALL] 0289176f0bad950f91057b1ab5c7c941a9e6cc974e34524dc436e3f317f5dbb82d"}, "vout": 1, "txid": "d9300bb28da6f312d9e94d743694c99769a00cf7357d69a2abd88921331ee052"}], "txid": "0f74f6378d9b4c50622f162c04c5794d11dc44e2d2cf365e97638c3bbedac77e", "blocktime": 1537872475, "version": 1, "confirmations": 11487, "time": 1537872475, "locktime": 0, "vsize": 224, "size": 224}