{"hash": "0f79d6933ef5a33be8aedf5b50c03cbc7876b4083664ca12c91dcfbe02b51fee", "blockhash": "000000000000000000022b45ed06c6f4ccd3cf7fb5ba4856ebd2e58215665228", "vout": [{"scriptPubKey": {"reqSigs": 1, "hex": "76a9143b3579cee94297fc41dd412c80fc03722202b41f88ac", "addresses": ["16Q4vtCF5zjqddzw6z94JcubgtH6JmrP2n"], "asm": "OP_DUP OP_HASH160 3b3579cee94297fc41dd412c80fc03722202b41f OP_EQUALVERIFY OP_CHECKSIG", "type": "pubkeyhash"}, "value": 0.20845152, "n": 0}], "hex": "010000000262c52e3b70a4886d712c85781c24c068a99760278b74c419141f9c3b78bd33b5000000006b4830450221009dd4aff07818a3db9603c578bb28a6228cc71eaf97aad62611203e9edfa9c09002203a6185422a13b9707d3f4b31f66188b041d7710076c9384600df8884f447d1c901210293ea67fbbd1ea4a583fe3e508526288c793abba825d50c2bc973bfa3a782770bffffffffe4c0319d5a0fc498d525b37250bba041e99873fd1bb64a07753a7a732e7d69e3010000006b483045022100fc215dfe2a5cac00448c5312554cb0c69d2a6a3ad9b1855f07f455817df9e0bd02202ad01fdc2dbc9b802b38c48c07ed91234be533c3fa8824759d9128f4a7e1dca4012102b7f9a9ffd464ea2b22d3b2a474baa8aef0ef55f9895f1264ddb62d975eb6a154ffffffff0160123e01000000001976a9143b3579cee94297fc41dd412c80fc03722202b41f88ac00000000", "vin": [{"sequence": 4294967295, "scriptSig": {"hex": "4830450221009dd4aff07818a3db9603c578bb28a6228cc71eaf97aad62611203e9edfa9c09002203a6185422a13b9707d3f4b31f66188b041d7710076c9384600df8884f447d1c901210293ea67fbbd1ea4a583fe3e508526288c793abba825d50c2bc973bfa3a782770b", "asm": "30450221009dd4aff07818a3db9603c578bb28a6228cc71eaf97aad62611203e9edfa9c09002203a6185422a13b9707d3f4b31f66188b041d7710076c9384600df8884f447d1c9[ALL] 0293ea67fbbd1ea4a583fe3e508526288c793abba825d50c2bc973bfa3a782770b"}, "vout": 0, "txid": "b533bd783b9c1f1419c4748b276097a968c0241c78852c716d88a4703b2ec562"}, {"sequence": 4294967295, "scriptSig": {"hex": "483045022100fc215dfe2a5cac00448c5312554cb0c69d2a6a3ad9b1855f07f455817df9e0bd02202ad01fdc2dbc9b802b38c48c07ed91234be533c3fa8824759d9128f4a7e1dca4012102b7f9a9ffd464ea2b22d3b2a474baa8aef0ef55f9895f1264ddb62d975eb6a154", "asm": "3045022100fc215dfe2a5cac00448c5312554cb0c69d2a6a3ad9b1855f07f455817df9e0bd02202ad01fdc2dbc9b802b38c48c07ed91234be533c3fa8824759d9128f4a7e1dca4[ALL] 02b7f9a9ffd464ea2b22d3b2a474baa8aef0ef55f9895f1264ddb62d975eb6a154"}, "vout": 1, "txid": "e3697d2e737a3a75074ab61bfd7398e941a0bb5072b325d598c40f5a9d31c0e4"}], "txid": "0f79d6933ef5a33be8aedf5b50c03cbc7876b4083664ca12c91dcfbe02b51fee", "blocktime": 1537869901, "version": 1, "confirmations": 11522, "time": 1537869901, "locktime": 0, "vsize": 340, "size": 340}