{"hash": "0f7911f90f33471c059720e385eff781033561a54c42bc92ce9069b5fa8097ef", "blockhash": "0000000000000000001f76057863aec43deb6fa401d9628bb513d65a8098bfab", "vout": [{"scriptPubKey": {"reqSigs": 1, "hex": "a9144460457d7a861d96935bb39be87859532d00c69087", "addresses": ["37vZCePtLMExXAtf5APA42PANvKTbMxEHX"], "asm": "OP_HASH160 4460457d7a861d96935bb39be87859532d00c690 OP_EQUAL", "type": "scripthash"}, "value": 0.011, "n": 0}, {"scriptPubKey": {"reqSigs": 1, "hex": "76a91465c85f143923ec560d5191b7d23f55962e180db688ac", "addresses": ["1AHBHRbFs6Zz46oifTUCthAna6GrL4DY4Q"], "asm": "OP_DUP OP_HASH160 65c85f143923ec560d5191b7d23f55962e180db6 OP_EQUALVERIFY OP_CHECKSIG", "type": "pubkeyhash"}, "value": 0.05790072, "n": 1}], "hex": "01000000013362c878222d595b159aeb4e97f3d4fac46b92c0f29a80a44d75acf3994c2033010000006b48304502210092dbc8789a6f664ddcbab34cb2446f8bb7a0b68a5bbd4dcd3246a830f12076ef0220705dc098b02ba9b01cf5fabb912085397622ab6123483d9ca1eb95dc0c761ec901210345de6998c04664b9571ae75189b6e748ab56257b315031d1d483b59ddec82d0affffffff02e0c810000000000017a9144460457d7a861d96935bb39be87859532d00c6908778595800000000001976a91465c85f143923ec560d5191b7d23f55962e180db688ac00000000", "vin": [{"sequence": 4294967295, "scriptSig": {"hex": "48304502210092dbc8789a6f664ddcbab34cb2446f8bb7a0b68a5bbd4dcd3246a830f12076ef0220705dc098b02ba9b01cf5fabb912085397622ab6123483d9ca1eb95dc0c761ec901210345de6998c04664b9571ae75189b6e748ab56257b315031d1d483b59ddec82d0a", "asm": "304502210092dbc8789a6f664ddcbab34cb2446f8bb7a0b68a5bbd4dcd3246a830f12076ef0220705dc098b02ba9b01cf5fabb912085397622ab6123483d9ca1eb95dc0c761ec9[ALL] 0345de6998c04664b9571ae75189b6e748ab56257b315031d1d483b59ddec82d0a"}, "vout": 1, "txid": "33204c99f3ac754da4809af2c0926bc4fad4f3974eeb9a155b592d2278c86233"}], "txid": "0f7911f90f33471c059720e385eff781033561a54c42bc92ce9069b5fa8097ef", "blocktime": 1537873891, "version": 1, "confirmations": 11475, "time": 1537873891, "locktime": 0, "vsize": 224, "size": 224}