{"hash": "0f84ef61719be618b970077d081c8944a1a26bc83ad314d5cef51a2e479bc884", "blockhash": "0000000000000000000baef3f32e3676a92c3b2e5da21b426e4f302fc371ce76", "vout": [{"scriptPubKey": {"reqSigs": 1, "hex": "76a9145665344c73978b8858ca7a60e778e89cef9b16aa88ac", "addresses": ["18spMJ6wXHGrbWMjp9MZsNKkcVHzQhqSAB"], "asm": "OP_DUP OP_HASH160 5665344c73978b8858ca7a60e778e89cef9b16aa OP_EQUALVERIFY OP_CHECKSIG", "type": "pubkeyhash"}, "value": 2.36962528, "n": 0}, {"scriptPubKey": {"reqSigs": 1, "hex": "a91410dc9071d15d2c67e9be5bd6cc7ac90da3f8d05987", "addresses": ["33EAxggAu6Mp6ZPiESo4Nqs9Cp37C1qXjF"], "asm": "OP_HASH160 10dc9071d15d2c67e9be5bd6cc7ac90da3f8d059 OP_EQUAL", "type": "scripthash"}, "value": 0.0375299, "n": 1}], "hex": "0100000001c2d926ee6d77e7b5a32f3a0164104b9ed37b2fc8268e4a042e0ea67d2a9b1df6000000006a47304402204467c7d5722d0cae173ceea0a8c50ba056d0339210067590945903fb6af6541f022060eb2e97bcb3cce4b069bd9d2d8d54c4f0ce3b090db3ac2d0c4141d47cdf2735012102b686c3be2d17e4d2aa1336ca36f37d522e51f5474514308dfdb35b7db0b7b6dbffffffff02e0c21f0e000000001976a9145665344c73978b8858ca7a60e778e89cef9b16aa88ac1e4439000000000017a91410dc9071d15d2c67e9be5bd6cc7ac90da3f8d0598700000000", "vin": [{"sequence": 4294967295, "scriptSig": {"hex": "47304402204467c7d5722d0cae173ceea0a8c50ba056d0339210067590945903fb6af6541f022060eb2e97bcb3cce4b069bd9d2d8d54c4f0ce3b090db3ac2d0c4141d47cdf2735012102b686c3be2d17e4d2aa1336ca36f37d522e51f5474514308dfdb35b7db0b7b6db", "asm": "304402204467c7d5722d0cae173ceea0a8c50ba056d0339210067590945903fb6af6541f022060eb2e97bcb3cce4b069bd9d2d8d54c4f0ce3b090db3ac2d0c4141d47cdf2735[ALL] 02b686c3be2d17e4d2aa1336ca36f37d522e51f5474514308dfdb35b7db0b7b6db"}, "vout": 0, "txid": "f61d9b2a7da60e2e044a8e26c82f7bd39e4b1064013a2fa3b5e7776dee26d9c2"}], "txid": "0f84ef61719be618b970077d081c8944a1a26bc83ad314d5cef51a2e479bc884", "blocktime": 1537876114, "version": 1, "confirmations": 11460, "time": 1537876114, "locktime": 0, "vsize": 223, "size": 223}