{"hash": "0f8609761d3a2901a46a33dbdc28804736c6533f6a0987e43bc4fee716195057", "blockhash": "0000000000000000000dcc0f55137456b1a82d3642486a52398922ac4d620174", "vout": [{"scriptPubKey": {"reqSigs": 1, "hex": "76a914388256b4fb33f6155727017f7d5cce7e0d2a65f388ac", "addresses": ["169nyqNqauSUMcS3rAExS3rhhrwz9mVA4i"], "asm": "OP_DUP OP_HASH160 388256b4fb33f6155727017f7d5cce7e0d2a65f3 OP_EQUALVERIFY OP_CHECKSIG", "type": "pubkeyhash"}, "value": 0.00167079, "n": 0}, {"scriptPubKey": {"type": "nulldata", "hex": "6a146f6d6e69000000000000001f00000018084ed070", "asm": "OP_RETURN 6f6d6e69000000000000001f00000018084ed070"}, "value": 0.0, "n": 1}, {"scriptPubKey": {"reqSigs": 1, "hex": "76a914d78dccc183373ed5cf70aec003835c956025e99c88ac", "addresses": ["1Lek9fm9yrDYzvnXiucU2hxJktzk14m2cc"], "asm": "OP_DUP OP_HASH160 d78dccc183373ed5cf70aec003835c956025e99c OP_EQUALVERIFY OP_CHECKSIG", "type": "pubkeyhash"}, "value": 5.46e-06, "n": 2}], "hex": "0100000001777b69f5653617b65115e22cc514e1da5257c0d6e2943792df5a54c69c63be47020000006a47304402203e4e76802a290e39899263ce87524002e3d3e82f77338f4c2bd17998396ccedf02201466fa352e5d17d2ecd7c77fd249ba6fe6d9805a121bdad47e97cd8fb13ead8f012102cca43b3082ae7d70499eba1e028fba08cb647209c0be3dee55eeb6b51b623f1ffeffffff03a78c0200000000001976a914388256b4fb33f6155727017f7d5cce7e0d2a65f388ac0000000000000000166a146f6d6e69000000000000001f00000018084ed07022020000000000001976a914d78dccc183373ed5cf70aec003835c956025e99c88ac0c490800", "vin": [{"sequence": 4294967294, "scriptSig": {"hex": "47304402203e4e76802a290e39899263ce87524002e3d3e82f77338f4c2bd17998396ccedf02201466fa352e5d17d2ecd7c77fd249ba6fe6d9805a121bdad47e97cd8fb13ead8f012102cca43b3082ae7d70499eba1e028fba08cb647209c0be3dee55eeb6b51b623f1f", "asm": "304402203e4e76802a290e39899263ce87524002e3d3e82f77338f4c2bd17998396ccedf02201466fa352e5d17d2ecd7c77fd249ba6fe6d9805a121bdad47e97cd8fb13ead8f[ALL] 02cca43b3082ae7d70499eba1e028fba08cb647209c0be3dee55eeb6b51b623f1f"}, "vout": 2, "txid": "47be639cc6545adf923794e2d6c05752dae114c52ce21551b6173665f5697b77"}], "txid": "0f8609761d3a2901a46a33dbdc28804736c6533f6a0987e43bc4fee716195057", "blocktime": 1537870268, "version": 1, "confirmations": 11519, "time": 1537870268, "locktime": 542988, "vsize": 256, "size": 256}