{"hash": "5d1bb335bb8b276746e200e80f5fbe9b7518a366a66a38ffcf1f4d2de68f2b2d", "blockhash": "0000000000000000001cda96e906b7601b7a6fb1a3b62bca570a9e5d8f4b3de1", "vout": [{"scriptPubKey": {"reqSigs": 1, "hex": "a914ff39bb588a37ccb52edadaae96020a3ab561135b87", "addresses": ["3QxXPjjmyueSbVMVnWLAbZFi2iM7iwKd16"], "asm": "OP_HASH160 ff39bb588a37ccb52edadaae96020a3ab561135b OP_EQUAL", "type": "scripthash"}, "value": 0.00248998, "n": 0}, {"scriptPubKey": {"reqSigs": 1, "hex": "a914253b612e73dc557bc4516787ffea4a5b3815a36887", "addresses": ["355t4Qhgrivpw7W2uMJJ9wJTQEofnSzVYD"], "asm": "OP_HASH160 253b612e73dc557bc4516787ffea4a5b3815a368 OP_EQUAL", "type": "scripthash"}, "value": 0.02792327, "n": 1}], "hex": "02000000000101692ef6a04fa8653afe67930652886dc9e8f1e6e6f9805a582306aa19ce98b2070000000017160014cb33572bebc9eb39e9acbffb06c4930375be5edcfdffffff02a6cc03000000000017a914ff39bb588a37ccb52edadaae96020a3ab561135b87879b2a000000000017a914253b612e73dc557bc4516787ffea4a5b3815a3688702483045022100d2c6afe3abd6ffa20623b46588128cebdabc5a47afa81277508ec58261ca909d022046d1c8fffc2a6da07fc709547c89f4b41af5965a0b667858fdfe4d0167bd3a5e012102ea187853cfad2578dec000cffdb6195436c825cfc476c4d1dcfc3615e2668996ee430800", "vin": [{"txinwitness": ["3045022100d2c6afe3abd6ffa20623b46588128cebdabc5a47afa81277508ec58261ca909d022046d1c8fffc2a6da07fc709547c89f4b41af5965a0b667858fdfe4d0167bd3a5e01", "02ea187853cfad2578dec000cffdb6195436c825cfc476c4d1dcfc3615e2668996"], "sequence": 4294967293, "scriptSig": {"hex": "160014cb33572bebc9eb39e9acbffb06c4930375be5edc", "asm": "0014cb33572bebc9eb39e9acbffb06c4930375be5edc"}, "vout": 0, "txid": "07b298ce19aa0623585a80f9e6e6f1e8c96d8852069367fe3a65a84fa0f62e69"}], "txid": "0f87dd0c748a2592d74b1abb98b8d992f2c3beed765ea813739e6e2339652166", "blocktime": 1537873282, "version": 2, "confirmations": 11480, "time": 1537873282, "locktime": 541678, "vsize": 166, "size": 248}