{"hash": "0f89fedd7bccf07ecbfb1d1363ad74ca37aec50c498a3801f86b5213903e1fc8", "blockhash": "0000000000000000001f76057863aec43deb6fa401d9628bb513d65a8098bfab", "vout": [{"scriptPubKey": {"reqSigs": 1, "hex": "a9147b2baf83dd479653c96a96024b3e817021e1d2a787", "addresses": ["3CvHNU6cVJDVoTYr7wZhxjPz2wUvSWMHmX"], "asm": "OP_HASH160 7b2baf83dd479653c96a96024b3e817021e1d2a7 OP_EQUAL", "type": "scripthash"}, "value": 0.02043003, "n": 0}, {"scriptPubKey": {"reqSigs": 1, "hex": "76a9140d1f2a648327c02ffd6a67df48190f63c71aa96188ac", "addresses": ["12CP7vD5AG1kwd2iQ4bs6m1HqGQGYkKPHW"], "asm": "OP_DUP OP_HASH160 0d1f2a648327c02ffd6a67df48190f63c71aa961 OP_EQUALVERIFY OP_CHECKSIG", "type": "pubkeyhash"}, "value": 0.04078319, "n": 1}], "hex": "010000000101921047caa2553f6f0fb96a7f69cd5cc52bffe794beb08cbb97eb835695afcd010000006a47304402202618294bb7b818d1dcc4bbb5ad3e2e5ae016587156daee21d142764060d67f9202204b2ec1ac98b2dae2dc5782380709ee3bfd4a240b4b800241dc9ba338a0dabcaf01210370df100b0842958865a45f5992e087ed905dfd9ea7f065cfd9302621ab5a66ccffffffff027b2c1f000000000017a9147b2baf83dd479653c96a96024b3e817021e1d2a787ef3a3e00000000001976a9140d1f2a648327c02ffd6a67df48190f63c71aa96188ac00000000", "vin": [{"sequence": 4294967295, "scriptSig": {"hex": "47304402202618294bb7b818d1dcc4bbb5ad3e2e5ae016587156daee21d142764060d67f9202204b2ec1ac98b2dae2dc5782380709ee3bfd4a240b4b800241dc9ba338a0dabcaf01210370df100b0842958865a45f5992e087ed905dfd9ea7f065cfd9302621ab5a66cc", "asm": "304402202618294bb7b818d1dcc4bbb5ad3e2e5ae016587156daee21d142764060d67f9202204b2ec1ac98b2dae2dc5782380709ee3bfd4a240b4b800241dc9ba338a0dabcaf[ALL] 0370df100b0842958865a45f5992e087ed905dfd9ea7f065cfd9302621ab5a66cc"}, "vout": 1, "txid": "cdaf955683eb97bb8cb0be94e7ff2bc55ccd697f6ab90f6f3f55a2ca47109201"}], "txid": "0f89fedd7bccf07ecbfb1d1363ad74ca37aec50c498a3801f86b5213903e1fc8", "blocktime": 1537873891, "version": 1, "confirmations": 11478, "time": 1537873891, "locktime": 0, "vsize": 223, "size": 223}