{"hash": "0f8a5d027869499d7299b94e2b48a9090cb0b987c1959f1c89756de68d2d3a8d", "blockhash": "0000000000000000000e13cef7c366c0283d82e591d1acd082e914b08063cdf1", "vout": [{"scriptPubKey": {"reqSigs": 1, "hex": "76a9140a2b3241ac0403256405e204e4d29bfa04b6750a88ac", "addresses": ["1vmWFYtMF6NGeaJNq5cEpQTFYn9VB8BF2"], "asm": "OP_DUP OP_HASH160 0a2b3241ac0403256405e204e4d29bfa04b6750a OP_EQUALVERIFY OP_CHECKSIG", "type": "pubkeyhash"}, "value": 0.00220367, "n": 0}, {"scriptPubKey": {"reqSigs": 1, "hex": "76a91407f199de4efab92a1fb676c61b5bdbf3890cbe7188ac", "addresses": ["1j1A5XDWpX5dx5g7uwhGwh47BWjbuavsx"], "asm": "OP_DUP OP_HASH160 07f199de4efab92a1fb676c61b5bdbf3890cbe71 OP_EQUALVERIFY OP_CHECKSIG", "type": "pubkeyhash"}, "value": 0.19813405, "n": 1}], "hex": "01000000016db63fa23cf7a78bb4d278283e9e95353c1a84f7ed8513c399a9d8817bba4b75010000006b483045022100ebc9846e31531cbcf3eafdb605103f7316b67e028442f2e758f8feada625d820022072226ac2a8d7e1de4880d764e2b3a2042a7e1922a5988257167fa9b59731318d012102216b3245e719f662dccd97c854bbce5e9c7bbb9ef7c8e369032911002e4528adffffffff02cf5c0300000000001976a9140a2b3241ac0403256405e204e4d29bfa04b6750a88ac1d542e01000000001976a91407f199de4efab92a1fb676c61b5bdbf3890cbe7188ac00000000", "vin": [{"sequence": 4294967295, "scriptSig": {"hex": "483045022100ebc9846e31531cbcf3eafdb605103f7316b67e028442f2e758f8feada625d820022072226ac2a8d7e1de4880d764e2b3a2042a7e1922a5988257167fa9b59731318d012102216b3245e719f662dccd97c854bbce5e9c7bbb9ef7c8e369032911002e4528ad", "asm": "3045022100ebc9846e31531cbcf3eafdb605103f7316b67e028442f2e758f8feada625d820022072226ac2a8d7e1de4880d764e2b3a2042a7e1922a5988257167fa9b59731318d[ALL] 02216b3245e719f662dccd97c854bbce5e9c7bbb9ef7c8e369032911002e4528ad"}, "vout": 1, "txid": "754bba7b81d8a999c31385edf7841a3c35959e3e2878d2b48ba7f73ca23fb66d"}], "txid": "0f8a5d027869499d7299b94e2b48a9090cb0b987c1959f1c89756de68d2d3a8d", "blocktime": 1537871767, "version": 1, "confirmations": 11495, "time": 1537871767, "locktime": 0, "vsize": 226, "size": 226}