{"hash": "8f53774e221d0935d7708a84b3aad9c1fb080e8dda43763eb53c4a4d916c2633", "blockhash": "00000000000000000024a2167bbff67b0be802c0b01cdd79e6331c2be6459f87", "vout": [{"scriptPubKey": {"reqSigs": 1, "hex": "0014f5a7716cf628165772bf1ba8799035172a413f61", "addresses": ["bc1q7knhzm8k9qt9wu4lrw58nyp4zu4yz0mpdl304c"], "asm": "0 f5a7716cf628165772bf1ba8799035172a413f61", "type": "witness_v0_keyhash"}, "value": 8.19818336, "n": 0}, {"scriptPubKey": {"reqSigs": 1, "hex": "76a914b6e46201c2a45c2b575c789f83512e6b1351311188ac", "addresses": ["1Hg3aEQ6w2v49K9KDRFhrVE2zjQYUVBD1d"], "asm": "OP_DUP OP_HASH160 b6e46201c2a45c2b575c789f83512e6b13513111 OP_EQUALVERIFY OP_CHECKSIG", "type": "pubkeyhash"}, "value": 0.02957792, "n": 1}], "hex": "02000000000101c6f5f67fa9eb3dbaac7f1df58b5b5ace3b8e8ba1750966abd2c6888bb286e4020100000000ffffffff02606fdd3000000000160014f5a7716cf628165772bf1ba8799035172a413f61e0212d00000000001976a914b6e46201c2a45c2b575c789f83512e6b1351311188ac0247304402202a4aeff25b264b105f802f11fa675a6f86f0bfd4d1ca0490d1e3ba9488b74ed1022064466b194c9ea344ce067765e3fa40ad9bccfe53cd99ea2b4101d3ebba3060cd0121034dcdc1ef55e5bb2e94daa668b12fc6e4b5f5f3846c31d21f640f5193443f893400000000", "vin": [{"txinwitness": ["304402202a4aeff25b264b105f802f11fa675a6f86f0bfd4d1ca0490d1e3ba9488b74ed1022064466b194c9ea344ce067765e3fa40ad9bccfe53cd99ea2b4101d3ebba3060cd01", "034dcdc1ef55e5bb2e94daa668b12fc6e4b5f5f3846c31d21f640f5193443f8934"], "sequence": 4294967295, "scriptSig": {"hex": "", "asm": ""}, "vout": 1, "txid": "02e486b28b88c6d2ab660975a18b8e3bce5a5b8bf51d7facba3deba97ff6f5c6"}], "txid": "0f8de3fe36775c2010f8b1d2a941c60c080d2570ac1f8c42fcd001bd1663d24a", "blocktime": 1537870564, "version": 2, "confirmations": 11515, "time": 1537870564, "locktime": 0, "vsize": 144, "size": 225}