{"hash": "0f9265df23ac716af6b7bcdd3d0d52caad2fcd72e917423abb16e23d9a2f76de", "blockhash": "00000000000000000004ffacab907a6b429b9a5745fa0b75af4234bf69dd7176", "vout": [{"scriptPubKey": {"reqSigs": 1, "hex": "a9142f1b0feb3925de0b741f5b2583b627889b92469387", "addresses": ["35z66sbmTZns6w3VmqaZ7hhZZpnwkJ8Q3C"], "asm": "OP_HASH160 2f1b0feb3925de0b741f5b2583b627889b924693 OP_EQUAL", "type": "scripthash"}, "value": 0.0022576, "n": 0}, {"scriptPubKey": {"reqSigs": 1, "hex": "76a914991a86aada6988d925837139817c242c8ed7230a88ac", "addresses": ["1ExYAQtm3W2AQLKExNKtE5mkkoQs1LpusN"], "asm": "OP_DUP OP_HASH160 991a86aada6988d925837139817c242c8ed7230a OP_EQUALVERIFY OP_CHECKSIG", "type": "pubkeyhash"}, "value": 0.02260301, "n": 1}], "hex": "010000000153d0c81bd159ffa40056c9e28e16c5913a00e9b72b66869b82264a05ca9403de010000006b483045022100eb5c7f15afee7a07a9e1c180569c317d7b5d84ee8b20c8440fa28ed47fe86c97022069b9ced8d33da6039074169b0d9100b91da746b96f8fd97267a401be015fb56a0121031bcd7728298263f3e49a7f28cdd1131461cd6d5e7fa30890a8f6cc5ec8188550ffffffff02e07103000000000017a9142f1b0feb3925de0b741f5b2583b627889b924693874d7d2200000000001976a914991a86aada6988d925837139817c242c8ed7230a88ac00000000", "vin": [{"sequence": 4294967295, "scriptSig": {"hex": "483045022100eb5c7f15afee7a07a9e1c180569c317d7b5d84ee8b20c8440fa28ed47fe86c97022069b9ced8d33da6039074169b0d9100b91da746b96f8fd97267a401be015fb56a0121031bcd7728298263f3e49a7f28cdd1131461cd6d5e7fa30890a8f6cc5ec8188550", "asm": "3045022100eb5c7f15afee7a07a9e1c180569c317d7b5d84ee8b20c8440fa28ed47fe86c97022069b9ced8d33da6039074169b0d9100b91da746b96f8fd97267a401be015fb56a[ALL] 031bcd7728298263f3e49a7f28cdd1131461cd6d5e7fa30890a8f6cc5ec8188550"}, "vout": 1, "txid": "de0394ca054a26829b86662bb7e9003a91c5168ee2c95600a4ff59d11bc8d053"}], "txid": "0f9265df23ac716af6b7bcdd3d0d52caad2fcd72e917423abb16e23d9a2f76de", "blocktime": 1537875543, "version": 1, "confirmations": 11464, "time": 1537875543, "locktime": 0, "vsize": 224, "size": 224}