{"hash": "0f93e0e1dff4a9e6692099948fad19bc671140ad6474ebf5930a495c37879df2", "blockhash": "0000000000000000001f76057863aec43deb6fa401d9628bb513d65a8098bfab", "vout": [{"scriptPubKey": {"reqSigs": 1, "hex": "76a914f655fd86e0ec03bf351fcdd75c127a7adaabf2aa88ac", "addresses": ["1PTWEuRPzZ6e3VYhjMZDqzHDCbWY4XV5T2"], "asm": "OP_DUP OP_HASH160 f655fd86e0ec03bf351fcdd75c127a7adaabf2aa OP_EQUALVERIFY OP_CHECKSIG", "type": "pubkeyhash"}, "value": 0.0013843, "n": 0}, {"scriptPubKey": {"reqSigs": 1, "hex": "76a9146c3ab9356b069850627fd9172121013f2c279bb188ac", "addresses": ["1AsGKtyAGfqMrAZRsSjbHti2u9pZcmgwdM"], "asm": "OP_DUP OP_HASH160 6c3ab9356b069850627fd9172121013f2c279bb1 OP_EQUALVERIFY OP_CHECKSIG", "type": "pubkeyhash"}, "value": 0.00614575, "n": 1}], "hex": "010000000138f10e530077eb391f2a248405cef654ec945053582af8dafd1a7ad5f465c039000000006b483045022100faa270e332be8bceaf4730d5f2cb4c248bd6aa4795639e6690c9187fc245c05f022062c4320017ec4c07aafcf1b9e04fc18fbdac0b79d1daaf131ebd54134f831aff012103a672b8c0f29ef6773932e1fa308e4891559f5d0fe851f43602b8512a4bff801fffffffff02be1c0200000000001976a914f655fd86e0ec03bf351fcdd75c127a7adaabf2aa88acaf600900000000001976a9146c3ab9356b069850627fd9172121013f2c279bb188ac00000000", "vin": [{"sequence": 4294967295, "scriptSig": {"hex": "483045022100faa270e332be8bceaf4730d5f2cb4c248bd6aa4795639e6690c9187fc245c05f022062c4320017ec4c07aafcf1b9e04fc18fbdac0b79d1daaf131ebd54134f831aff012103a672b8c0f29ef6773932e1fa308e4891559f5d0fe851f43602b8512a4bff801f", "asm": "3045022100faa270e332be8bceaf4730d5f2cb4c248bd6aa4795639e6690c9187fc245c05f022062c4320017ec4c07aafcf1b9e04fc18fbdac0b79d1daaf131ebd54134f831aff[ALL] 03a672b8c0f29ef6773932e1fa308e4891559f5d0fe851f43602b8512a4bff801f"}, "vout": 0, "txid": "39c065f4d57a1afddaf82a58535094ec54f6ce0584242a1f39eb7700530ef138"}], "txid": "0f93e0e1dff4a9e6692099948fad19bc671140ad6474ebf5930a495c37879df2", "blocktime": 1537873891, "version": 1, "confirmations": 11478, "time": 1537873891, "locktime": 0, "vsize": 226, "size": 226}