{"hash": "0f95fe01575ecbcc2640c653e3d47e87bd1ff3ae00402aa46523503d5c775bb8", "blockhash": "00000000000000000024a2167bbff67b0be802c0b01cdd79e6331c2be6459f87", "vout": [{"scriptPubKey": {"reqSigs": 1, "hex": "76a914e0ee4ce5c9320f8da3a3d42b83cdea6643b9867b88ac", "addresses": ["1MWKqNWHX8TVF33gp1o7uH4HiqcncJPATe"], "asm": "OP_DUP OP_HASH160 e0ee4ce5c9320f8da3a3d42b83cdea6643b9867b OP_EQUALVERIFY OP_CHECKSIG", "type": "pubkeyhash"}, "value": 0.00300782, "n": 0}], "hex": "01000000060124cebf4559f661ca34d18fcccfac9119593a18ae90aa0945232ed76d594076150000006b483045022100ce3b194e8b9115ba4ff11505ddee074077e41f23b4eafc5bc84f2c95979769ae022043bdc4f7fed88193706b8107999c6396f3432b73429cab14e3a64415c8871f56012102c29dd54546f7bc726d5f948179c0423abaca91d00c7b025aa36d3ee70d87ad63feffffff0124cebf4559f661ca34d18fcccfac9119593a18ae90aa0945232ed76d594076380000006a47304402202d8d29aa301835ad70cb9df4140988d9b8636e175ea08fbe224f9ff8bda0105f022044b2086f92b8c9525a5369e01f0aa841c1f6928e18379fcf6cfc804f14b68a240121037ee1f4aaa7905dfc23e0a0fc28f40c96deb7d678bd964d89f64abfa85cf2bd97feffffff0124cebf4559f661ca34d18fcccfac9119593a18ae90aa0945232ed76d594076fa0000006a47304402201d0cf5f020ba7ed741ee0a0dee4e024afb6d151533fd7275e5e177e84126999f022036d4c9bf8e9487d750b9e3efda386f3e0a8b7535ac98d1c2cea55d0c3521b2410121037fea86aa6dc4846a5ec6c70317c5d4b2f2dad7c5d8c2698c4e3be9b70c623edefeffffff0124cebf4559f661ca34d18fcccfac9119593a18ae90aa0945232ed76d594076860100006b483045022100ec6886c5f91b69ebdb58b9f0ed8767a889796749f71ff1585e586367c2229d0002204e28da1e6cc60c870f560c3534a97ed94228ec26b669593f4d6d303af63588ca0121039671e75d5988fdefd7b1ae2feeacfa0e11b02df0e42a810c76a5a0743e0f1d56feffffff0124cebf4559f661ca34d18fcccfac9119593a18ae90aa0945232ed76d594076c30100006a473044022036073f0c44879c5e37743bafe773228acbaf8db4f5debba8ed512ed888fc7c6202207b83dab71e4565728a8dccf2533d41eb716b11b12400573c3163bf61a94d39b50121034cf8f7175e6f64535f34fa705b553c9c1b842e78223a87533c98e40937c4aab3feffffff54c81bc7b76a5d9eac47f8df74d878b4855cf4e042b35388224eac323f1399cdae0100006b483045022100d1e0e2f78c19fe9daa13a4cc2583afd64c59a28281565720f393a23a568c415d0220093fbc515d3fa66c76beb0bdd9a81abb478a3045967cbefee4f2ffe94e7aafa201210258668df3919b82e547e45c1d88873a6bd2b711be4b90b33463467078a5b2d6d9feffffff01ee960400000000001976a914e0ee4ce5c9320f8da3a3d42b83cdea6643b9867b88ac0d490800", "vin": [{"sequence": 4294967294, "scriptSig": {"hex": "483045022100ce3b194e8b9115ba4ff11505ddee074077e41f23b4eafc5bc84f2c95979769ae022043bdc4f7fed88193706b8107999c6396f3432b73429cab14e3a64415c8871f56012102c29dd54546f7bc726d5f948179c0423abaca91d00c7b025aa36d3ee70d87ad63", "asm": "3045022100ce3b194e8b9115ba4ff11505ddee074077e41f23b4eafc5bc84f2c95979769ae022043bdc4f7fed88193706b8107999c6396f3432b73429cab14e3a64415c8871f56[ALL] 02c29dd54546f7bc726d5f948179c0423abaca91d00c7b025aa36d3ee70d87ad63"}, "vout": 21, "txid": "7640596dd72e234509aa90ae183a591991accfcc8fd134ca61f65945bfce2401"}, {"sequence": 4294967294, "scriptSig": {"hex": "47304402202d8d29aa301835ad70cb9df4140988d9b8636e175ea08fbe224f9ff8bda0105f022044b2086f92b8c9525a5369e01f0aa841c1f6928e18379fcf6cfc804f14b68a240121037ee1f4aaa7905dfc23e0a0fc28f40c96deb7d678bd964d89f64abfa85cf2bd97", "asm": "304402202d8d29aa301835ad70cb9df4140988d9b8636e175ea08fbe224f9ff8bda0105f022044b2086f92b8c9525a5369e01f0aa841c1f6928e18379fcf6cfc804f14b68a24[ALL] 037ee1f4aaa7905dfc23e0a0fc28f40c96deb7d678bd964d89f64abfa85cf2bd97"}, "vout": 56, "txid": "7640596dd72e234509aa90ae183a591991accfcc8fd134ca61f65945bfce2401"}, {"sequence": 4294967294, "scriptSig": {"hex": "47304402201d0cf5f020ba7ed741ee0a0dee4e024afb6d151533fd7275e5e177e84126999f022036d4c9bf8e9487d750b9e3efda386f3e0a8b7535ac98d1c2cea55d0c3521b2410121037fea86aa6dc4846a5ec6c70317c5d4b2f2dad7c5d8c2698c4e3be9b70c623ede", "asm": "304402201d0cf5f020ba7ed741ee0a0dee4e024afb6d151533fd7275e5e177e84126999f022036d4c9bf8e9487d750b9e3efda386f3e0a8b7535ac98d1c2cea55d0c3521b241[ALL] 037fea86aa6dc4846a5ec6c70317c5d4b2f2dad7c5d8c2698c4e3be9b70c623ede"}, "vout": 250, "txid": "7640596dd72e234509aa90ae183a591991accfcc8fd134ca61f65945bfce2401"}, {"sequence": 4294967294, "scriptSig": {"hex": "483045022100ec6886c5f91b69ebdb58b9f0ed8767a889796749f71ff1585e586367c2229d0002204e28da1e6cc60c870f560c3534a97ed94228ec26b669593f4d6d303af63588ca0121039671e75d5988fdefd7b1ae2feeacfa0e11b02df0e42a810c76a5a0743e0f1d56", "asm": "3045022100ec6886c5f91b69ebdb58b9f0ed8767a889796749f71ff1585e586367c2229d0002204e28da1e6cc60c870f560c3534a97ed94228ec26b669593f4d6d303af63588ca[ALL] 039671e75d5988fdefd7b1ae2feeacfa0e11b02df0e42a810c76a5a0743e0f1d56"}, "vout": 390, "txid": "7640596dd72e234509aa90ae183a591991accfcc8fd134ca61f65945bfce2401"}, {"sequence": 4294967294, "scriptSig": {"hex": "473044022036073f0c44879c5e37743bafe773228acbaf8db4f5debba8ed512ed888fc7c6202207b83dab71e4565728a8dccf2533d41eb716b11b12400573c3163bf61a94d39b50121034cf8f7175e6f64535f34fa705b553c9c1b842e78223a87533c98e40937c4aab3", "asm": "3044022036073f0c44879c5e37743bafe773228acbaf8db4f5debba8ed512ed888fc7c6202207b83dab71e4565728a8dccf2533d41eb716b11b12400573c3163bf61a94d39b5[ALL] 034cf8f7175e6f64535f34fa705b553c9c1b842e78223a87533c98e40937c4aab3"}, "vout": 451, "txid": "7640596dd72e234509aa90ae183a591991accfcc8fd134ca61f65945bfce2401"}, {"sequence": 4294967294, "scriptSig": {"hex": "483045022100d1e0e2f78c19fe9daa13a4cc2583afd64c59a28281565720f393a23a568c415d0220093fbc515d3fa66c76beb0bdd9a81abb478a3045967cbefee4f2ffe94e7aafa201210258668df3919b82e547e45c1d88873a6bd2b711be4b90b33463467078a5b2d6d9", "asm": "3045022100d1e0e2f78c19fe9daa13a4cc2583afd64c59a28281565720f393a23a568c415d0220093fbc515d3fa66c76beb0bdd9a81abb478a3045967cbefee4f2ffe94e7aafa2[ALL] 0258668df3919b82e547e45c1d88873a6bd2b711be4b90b33463467078a5b2d6d9"}, "vout": 430, "txid": "cd99133f32ac4e228853b342e0f45c85b478d874dff847ac9e5d6ab7c71bc854"}], "txid": "0f95fe01575ecbcc2640c653e3d47e87bd1ff3ae00402aa46523503d5c775bb8", "blocktime": 1537870564, "version": 1, "confirmations": 11515, "time": 1537870564, "locktime": 542989, "vsize": 929, "size": 929}