{"hash": "0f9c414b0771ddb35b80600088845d3ac4249f9babb8f501371747be741db0ba", "blockhash": "0000000000000000000e13cef7c366c0283d82e591d1acd082e914b08063cdf1", "vout": [{"scriptPubKey": {"reqSigs": 1, "hex": "76a9140d5aadbb611e045d8ee1e6f74ce11ba5cbac4e4d88ac", "addresses": ["12DcQxTcbjRkfCpkvjiXSyaVHxGtfpTEQR"], "asm": "OP_DUP OP_HASH160 0d5aadbb611e045d8ee1e6f74ce11ba5cbac4e4d OP_EQUALVERIFY OP_CHECKSIG", "type": "pubkeyhash"}, "value": 0.01287434, "n": 0}, {"scriptPubKey": {"reqSigs": 1, "hex": "a914f2b349c4ff8427b26f70895fabc70d9695a1c40f87", "addresses": ["3PpJE8JBYaXqqmAyx7bwvphtFxSv8wBXxx"], "asm": "OP_HASH160 f2b349c4ff8427b26f70895fabc70d9695a1c40f OP_EQUAL", "type": "scripthash"}, "value": 0.32858326, "n": 1}], "hex": "01000000061fe83ffcb723dd75c8fdceea9dac603cfbe710f164c633cce1d288024fe09f13000000006a47304402202276d1cc0598765a79ecc5fd0c7fcdd38ad7d9cac059f81f1eacd9c16f5b6dee02201f80a01f17a6466d3827e449371536c92b3516a68c2f30bb1d87824ba63b505801210282094aa81c3af8ff4e0c9c25fd84ea053cbec1ada6b67121455725f1e1e3264bfeffffff45e6feca025b76f7177ec6d125db5548f3f4d3c07995ff16100bb3527c31781d010000006a47304402206ecc0dd927ba8a02af2410259366ee9479ed400303d8498142dbca40b50767200220631545e8f88e64e003ff2136997e58082744cb36af7b58eca45a6d874f93bc3a012102d0c4e86eb01810d060dc9b8fb87515b3c84f72b5634caddb1cee4fb7a9a0ad1dfeffffffe7f133a6b206f7b47fc015fe553f5fec1e67cc0bedb91d1ba990b3ac9fba3424000000006a47304402205e9ec0400d4171b1772b3f3753583a2b83c898fe1cb062cbfc3d527af624cde7022065d9acaef4eb8fb5a32832e6c467278b7efb4ca517cdd31a216c0f8eb3c0028c0121038b6f87d493bef9b8deb4cf4c5aef3a548f582a7995f080de124980fcdbfb0dabfeffffffaa50b7e246ee56064568fbe40d9acbe1e0fae4d2b5288aa802d0a7247638e15b000000006a473044022022ccb42d9155c826a201c5998ee7ef713a97d7ac458887db55820285bdeff68d022025367d9b74043037edd0c351f3fb4c35df79ff8a583c7eeab8ec7f3887376619012103142b4d55b427c26b9218466bbd6f8586d3933f9f7b2e73b098d1058c868abf70feffffffceb67bc138df548fea81c905dfeac4f717c067552a2863888cfd4dd5a446545f010000006b483045022100a6ead6ae95f8f0dc4ba5bb4b86120ca24bb8b94e859fb5d7d70165e10c7c594e02207df6b97bf6f0c6b20fa1385b14f8069fa93457ebe6ff51ece7e04f85ba75847f0121036f193e51c3572a2d26eb7ca2e839217bbc2392294114dd7595ab0efa38f2f886feffffff9d991fb71ba12892e219f1231d41843010376968d6d8e28b2693b612df5d84b5010000006b4830450221009caa7959197e81d3fcb4d8df8fd70fc9962cf15ee4881d47d59e3e383fea4e9702201a3846c5240649e067c83582eaa42493bc92c0a444673a39f7ff9e3ff67f4b060121023b6cb1753945becbed964eef2c54be3a57af21c40d4630183d05a33c3a54e092feffffff020aa51300000000001976a9140d5aadbb611e045d8ee1e6f74ce11ba5cbac4e4d88acd660f5010000000017a914f2b349c4ff8427b26f70895fabc70d9695a1c40f8710490800", "vin": [{"sequence": 4294967294, "scriptSig": {"hex": "47304402202276d1cc0598765a79ecc5fd0c7fcdd38ad7d9cac059f81f1eacd9c16f5b6dee02201f80a01f17a6466d3827e449371536c92b3516a68c2f30bb1d87824ba63b505801210282094aa81c3af8ff4e0c9c25fd84ea053cbec1ada6b67121455725f1e1e3264b", "asm": "304402202276d1cc0598765a79ecc5fd0c7fcdd38ad7d9cac059f81f1eacd9c16f5b6dee02201f80a01f17a6466d3827e449371536c92b3516a68c2f30bb1d87824ba63b5058[ALL] 0282094aa81c3af8ff4e0c9c25fd84ea053cbec1ada6b67121455725f1e1e3264b"}, "vout": 0, "txid": "139fe04f0288d2e1cc33c664f110e7fb3c60ac9deacefdc875dd23b7fc3fe81f"}, {"sequence": 4294967294, "scriptSig": {"hex": "47304402206ecc0dd927ba8a02af2410259366ee9479ed400303d8498142dbca40b50767200220631545e8f88e64e003ff2136997e58082744cb36af7b58eca45a6d874f93bc3a012102d0c4e86eb01810d060dc9b8fb87515b3c84f72b5634caddb1cee4fb7a9a0ad1d", "asm": "304402206ecc0dd927ba8a02af2410259366ee9479ed400303d8498142dbca40b50767200220631545e8f88e64e003ff2136997e58082744cb36af7b58eca45a6d874f93bc3a[ALL] 02d0c4e86eb01810d060dc9b8fb87515b3c84f72b5634caddb1cee4fb7a9a0ad1d"}, "vout": 1, "txid": "1d78317c52b30b1016ff9579c0d3f4f34855db25d1c67e17f7765b02cafee645"}, {"sequence": 4294967294, "scriptSig": {"hex": "47304402205e9ec0400d4171b1772b3f3753583a2b83c898fe1cb062cbfc3d527af624cde7022065d9acaef4eb8fb5a32832e6c467278b7efb4ca517cdd31a216c0f8eb3c0028c0121038b6f87d493bef9b8deb4cf4c5aef3a548f582a7995f080de124980fcdbfb0dab", "asm": "304402205e9ec0400d4171b1772b3f3753583a2b83c898fe1cb062cbfc3d527af624cde7022065d9acaef4eb8fb5a32832e6c467278b7efb4ca517cdd31a216c0f8eb3c0028c[ALL] 038b6f87d493bef9b8deb4cf4c5aef3a548f582a7995f080de124980fcdbfb0dab"}, "vout": 0, "txid": "2434ba9facb390a91b1db9ed0bcc671eec5f3f55fe15c07fb4f706b2a633f1e7"}, {"sequence": 4294967294, "scriptSig": {"hex": "473044022022ccb42d9155c826a201c5998ee7ef713a97d7ac458887db55820285bdeff68d022025367d9b74043037edd0c351f3fb4c35df79ff8a583c7eeab8ec7f3887376619012103142b4d55b427c26b9218466bbd6f8586d3933f9f7b2e73b098d1058c868abf70", "asm": "3044022022ccb42d9155c826a201c5998ee7ef713a97d7ac458887db55820285bdeff68d022025367d9b74043037edd0c351f3fb4c35df79ff8a583c7eeab8ec7f3887376619[ALL] 03142b4d55b427c26b9218466bbd6f8586d3933f9f7b2e73b098d1058c868abf70"}, "vout": 0, "txid": "5be1387624a7d002a88a28b5d2e4fae0e1cb9a0de4fb68450656ee46e2b750aa"}, {"sequence": 4294967294, "scriptSig": {"hex": "483045022100a6ead6ae95f8f0dc4ba5bb4b86120ca24bb8b94e859fb5d7d70165e10c7c594e02207df6b97bf6f0c6b20fa1385b14f8069fa93457ebe6ff51ece7e04f85ba75847f0121036f193e51c3572a2d26eb7ca2e839217bbc2392294114dd7595ab0efa38f2f886", "asm": "3045022100a6ead6ae95f8f0dc4ba5bb4b86120ca24bb8b94e859fb5d7d70165e10c7c594e02207df6b97bf6f0c6b20fa1385b14f8069fa93457ebe6ff51ece7e04f85ba75847f[ALL] 036f193e51c3572a2d26eb7ca2e839217bbc2392294114dd7595ab0efa38f2f886"}, "vout": 1, "txid": "5f5446a4d54dfd8c8863282a5567c017f7c4eadf05c981ea8f54df38c17bb6ce"}, {"sequence": 4294967294, "scriptSig": {"hex": "4830450221009caa7959197e81d3fcb4d8df8fd70fc9962cf15ee4881d47d59e3e383fea4e9702201a3846c5240649e067c83582eaa42493bc92c0a444673a39f7ff9e3ff67f4b060121023b6cb1753945becbed964eef2c54be3a57af21c40d4630183d05a33c3a54e092", "asm": "30450221009caa7959197e81d3fcb4d8df8fd70fc9962cf15ee4881d47d59e3e383fea4e9702201a3846c5240649e067c83582eaa42493bc92c0a444673a39f7ff9e3ff67f4b06[ALL] 023b6cb1753945becbed964eef2c54be3a57af21c40d4630183d05a33c3a54e092"}, "vout": 1, "txid": "b5845ddf12b693268be2d8d6686937103084411d23f119e29228a11bb71f999d"}], "txid": "0f9c414b0771ddb35b80600088845d3ac4249f9babb8f501371747be741db0ba", "blocktime": 1537871767, "version": 1, "confirmations": 11493, "time": 1537871767, "locktime": 542992, "vsize": 960, "size": 960}