{"hash": "0f9db6dbc4cd1cd9088e3269d259748f3abc5e7be4b46e325b656141f8ce383f", "blockhash": "00000000000000000004ffacab907a6b429b9a5745fa0b75af4234bf69dd7176", "vout": [{"scriptPubKey": {"reqSigs": 1, "hex": "76a91497e3482b11d5b2c3ee457f729e52f727752d91b088ac", "addresses": ["1Er7Jnq5aXoXWFinjLEnXMFuaCrTK12Mwj"], "asm": "OP_DUP OP_HASH160 97e3482b11d5b2c3ee457f729e52f727752d91b0 OP_EQUALVERIFY OP_CHECKSIG", "type": "pubkeyhash"}, "value": 0.00250001, "n": 0}, {"scriptPubKey": {"reqSigs": 1, "hex": "76a91425f255d06eb2fd62302df46c1c3e9cd41720607088ac", "addresses": ["14TeJqvG2uFTyZFFb54g12TzAGo74zUcJs"], "asm": "OP_DUP OP_HASH160 25f255d06eb2fd62302df46c1c3e9cd417206070 OP_EQUALVERIFY OP_CHECKSIG", "type": "pubkeyhash"}, "value": 0.07760627, "n": 1}], "hex": "010000000134b3062208bb04954afaf4f500402b8d75762e5e0b19e5fe2d529ff9788668ed010000006a47304402207995e6474f0a85230195a55a5ebf912ca4fbf8d2bc76cf5ce3b7253e1c1e1e00022021ae0f47b0c1f7abd974dd3334e7edbcf56e300515f18ca4653cdea8ff73a7e30121034b35550f197a9a7ec2db8e0a74d32cb55fbc656b6cda4c6f6686ea8aa6b52098ffffffff0291d00300000000001976a91497e3482b11d5b2c3ee457f729e52f727752d91b088acf36a7600000000001976a91425f255d06eb2fd62302df46c1c3e9cd41720607088ac00000000", "vin": [{"sequence": 4294967295, "scriptSig": {"hex": "47304402207995e6474f0a85230195a55a5ebf912ca4fbf8d2bc76cf5ce3b7253e1c1e1e00022021ae0f47b0c1f7abd974dd3334e7edbcf56e300515f18ca4653cdea8ff73a7e30121034b35550f197a9a7ec2db8e0a74d32cb55fbc656b6cda4c6f6686ea8aa6b52098", "asm": "304402207995e6474f0a85230195a55a5ebf912ca4fbf8d2bc76cf5ce3b7253e1c1e1e00022021ae0f47b0c1f7abd974dd3334e7edbcf56e300515f18ca4653cdea8ff73a7e3[ALL] 034b35550f197a9a7ec2db8e0a74d32cb55fbc656b6cda4c6f6686ea8aa6b52098"}, "vout": 1, "txid": "ed688678f99f522dfee5190b5e2e76758d2b4000f5f4fa4a9504bb082206b334"}], "txid": "0f9db6dbc4cd1cd9088e3269d259748f3abc5e7be4b46e325b656141f8ce383f", "blocktime": 1537875543, "version": 1, "confirmations": 11464, "time": 1537875543, "locktime": 0, "vsize": 225, "size": 225}