{"hash": "ee5508989096ea13cb17baaff181a0ba47c37a2c4a32ed4c1736a601a1b01c12", "blockhash": "0000000000000000000baef3f32e3676a92c3b2e5da21b426e4f302fc371ce76", "vout": [{"scriptPubKey": {"reqSigs": 1, "hex": "a9144be3beacb0646949aa193e206e3aacc898747b2587", "addresses": ["38cHRvEpTwMYq7VBsP1K2bKpbytawau4ST"], "asm": "OP_HASH160 4be3beacb0646949aa193e206e3aacc898747b25 OP_EQUAL", "type": "scripthash"}, "value": 0.03748243, "n": 0}, {"scriptPubKey": {"reqSigs": 1, "hex": "a914cfaabfe8c271f99a4364b5197ba50c6cddb7adb987", "addresses": ["3Ld4M9RPwEG3VeQbHcC1PsKUndQL7VYLZP"], "asm": "OP_HASH160 cfaabfe8c271f99a4364b5197ba50c6cddb7adb9 OP_EQUAL", "type": "scripthash"}, "value": 0.07369649, "n": 1}], "hex": "01000000000101252f2b394978177334f1e5ee2b4f186adcace957186c43f87c738ca16bdc76f001000000232200202f7b4024602241b47d3306a6733d9889e4b6761d9f1cb82a18aa8b9ac4506e51ffffffff02933139000000000017a9144be3beacb0646949aa193e206e3aacc898747b2587b17370000000000017a914cfaabfe8c271f99a4364b5197ba50c6cddb7adb9870400483045022100f6ae52c7c9f20b16fc7c0fc69df992bf7eb1f283c070d38436aaeab64087dd1b02207032362ec0f229ef78d8cc05e2e4e9a4b2170e98e14823b5443f80e13ebe54e00147304402203ddbbcf845559411c1b6e6de572be1bce43d90c3efcac9bd52bed6e989cd13660220157e989afdaa203441d6d30f51ab4a51444c4fd9c0a4af69cd11456df14805d60147522102973cd851fecff3a20f08377b072729f303801eee1b7678668338adcaec770ec221033e4af03ed09dbd8a417ba042650d5bd1db7f14f271a8f660974e3abf1fdfa4da52ae00000000", "vin": [{"txinwitness": ["", "3045022100f6ae52c7c9f20b16fc7c0fc69df992bf7eb1f283c070d38436aaeab64087dd1b02207032362ec0f229ef78d8cc05e2e4e9a4b2170e98e14823b5443f80e13ebe54e001", "304402203ddbbcf845559411c1b6e6de572be1bce43d90c3efcac9bd52bed6e989cd13660220157e989afdaa203441d6d30f51ab4a51444c4fd9c0a4af69cd11456df14805d601", "522102973cd851fecff3a20f08377b072729f303801eee1b7678668338adcaec770ec221033e4af03ed09dbd8a417ba042650d5bd1db7f14f271a8f660974e3abf1fdfa4da52ae"], "sequence": 4294967295, "scriptSig": {"hex": "2200202f7b4024602241b47d3306a6733d9889e4b6761d9f1cb82a18aa8b9ac4506e51", "asm": "00202f7b4024602241b47d3306a6733d9889e4b6761d9f1cb82a18aa8b9ac4506e51"}, "vout": 1, "txid": "f076dc6ba18c737cf8436c1857e9acdc6a184f2beee5f13473177849392b2f25"}], "txid": "0fa3728c823555594d3d3ffbc6751cc682cb6a41fc5b70f049915a430c85be95", "blocktime": 1537876114, "version": 1, "confirmations": 11462, "time": 1537876114, "locktime": 0, "vsize": 206, "size": 371}