{"hash": "0fa4db2b3aeb7852e88a5d5f288bf2e963dfb3d6b32e0a72cd58c3b331ca6346", "blockhash": "0000000000000000000baef3f32e3676a92c3b2e5da21b426e4f302fc371ce76", "vout": [{"scriptPubKey": {"reqSigs": 1, "hex": "76a9140313e2fac489d7c5d8446e985a91c57f36c676e188ac", "addresses": ["1HGrKksbJLfJN4DwTSbx4N4KKt4YEcPiQ"], "asm": "OP_DUP OP_HASH160 0313e2fac489d7c5d8446e985a91c57f36c676e1 OP_EQUALVERIFY OP_CHECKSIG", "type": "pubkeyhash"}, "value": 13.80338443, "n": 0}, {"scriptPubKey": {"reqSigs": 1, "hex": "a91435499834bef7ddde3eeb0148e86b1f4ef9f67e8687", "addresses": ["36Ymu9f8FE6ovddVAuHMQk4tX9U2WkBmsj"], "asm": "OP_HASH160 35499834bef7ddde3eeb0148e86b1f4ef9f67e86 OP_EQUAL", "type": "scripthash"}, "value": 0.03260605, "n": 1}], "hex": "02000000013096b451e5aa8850165c4d4f9c6a5487c452bb7ff2c4b09ae908c6d74899fe57000000006b4830450221009306195c03dafc885c10a5c5a9d4438e0ba33ea549d3edbd7df615b92ecad468022065b6a49f74eb48e67f44068baaae01ea32d6ffb500cd0c6e72363301b42037e30121031d97d7400b719dae1091482b2ff4e23d5cce9f3e91e8d20c7727420ae75cf2e4ffffffff020b4b4652000000001976a9140313e2fac489d7c5d8446e985a91c57f36c676e188acbdc031000000000017a91435499834bef7ddde3eeb0148e86b1f4ef9f67e868700000000", "vin": [{"sequence": 4294967295, "scriptSig": {"hex": "4830450221009306195c03dafc885c10a5c5a9d4438e0ba33ea549d3edbd7df615b92ecad468022065b6a49f74eb48e67f44068baaae01ea32d6ffb500cd0c6e72363301b42037e30121031d97d7400b719dae1091482b2ff4e23d5cce9f3e91e8d20c7727420ae75cf2e4", "asm": "30450221009306195c03dafc885c10a5c5a9d4438e0ba33ea549d3edbd7df615b92ecad468022065b6a49f74eb48e67f44068baaae01ea32d6ffb500cd0c6e72363301b42037e3[ALL] 031d97d7400b719dae1091482b2ff4e23d5cce9f3e91e8d20c7727420ae75cf2e4"}, "vout": 0, "txid": "57fe9948d7c608e99ab0c4f27fbb52c487546a9c4f4d5c165088aae551b49630"}], "txid": "0fa4db2b3aeb7852e88a5d5f288bf2e963dfb3d6b32e0a72cd58c3b331ca6346", "blocktime": 1537876114, "version": 2, "confirmations": 11459, "time": 1537876114, "locktime": 0, "vsize": 224, "size": 224}