{"hash": "fd17769fcb9030f9a319c846569093e58927eea715cdfe53c9f196db721b0321", "blockhash": "00000000000000000018f53835495a110e01622372bf6ae95dc86f2b0ab887b0", "vout": [{"scriptPubKey": {"reqSigs": 1, "hex": "a914d7681518574adae478335d753b3130ddf53cbba287", "addresses": ["3MKytZQ7mc2Y446YoyQRfkd3KBCrBitptM"], "asm": "OP_HASH160 d7681518574adae478335d753b3130ddf53cbba2 OP_EQUAL", "type": "scripthash"}, "value": 0.04565681, "n": 0}, {"scriptPubKey": {"reqSigs": 1, "hex": "a9145f57584557f80e464fea2e1a5ffddb1c907cab2f87", "addresses": ["3AP8kbFQBHrjfB25qbGscPKqHcqZRqPjgc"], "asm": "OP_HASH160 5f57584557f80e464fea2e1a5ffddb1c907cab2f OP_EQUAL", "type": "scripthash"}, "value": 0.26513723, "n": 1}], "hex": "01000000000101104b829a98746f4d43bdab3280cb5d040c9ac57fdfd71bd7bb7516e5cd5ef8570000000017160014a609c5fc186d9ee2ef09b9631bb626e3a3f442b8ffffffff02b1aa45000000000017a914d7681518574adae478335d753b3130ddf53cbba2873b9194010000000017a9145f57584557f80e464fea2e1a5ffddb1c907cab2f8702483045022100c6b7859df4b7aa3e4dc419a5a57730a4831f317ccb96a8eeb1bff2ea64bc5168022055f94d4ae711649550a016cd5a7e6238954865b974c6f500cecabd516f2ab3b00121037a29ad194ef72fa3e61d9cf73987ebe9be2ffe7ecbaa37e264149d9618816cfb00000000", "vin": [{"txinwitness": ["3045022100c6b7859df4b7aa3e4dc419a5a57730a4831f317ccb96a8eeb1bff2ea64bc5168022055f94d4ae711649550a016cd5a7e6238954865b974c6f500cecabd516f2ab3b001", "037a29ad194ef72fa3e61d9cf73987ebe9be2ffe7ecbaa37e264149d9618816cfb"], "sequence": 4294967295, "scriptSig": {"hex": "160014a609c5fc186d9ee2ef09b9631bb626e3a3f442b8", "asm": "0014a609c5fc186d9ee2ef09b9631bb626e3a3f442b8"}, "vout": 0, "txid": "57f85ecde51675bbd71bd7df7fc59a0c045dcb8032abbd434d6f74989a824b10"}], "txid": "0fac8c976639773cefd3bf41ee712f0b0a9a071132f3a327557bb4f3228fc4c2", "blocktime": 1537870928, "version": 1, "confirmations": 11514, "time": 1537870928, "locktime": 0, "vsize": 166, "size": 248}