{"hash": "0fac14416507d0cbe9f12904ea116d8550ffcd5a5783db6e970c13c7fce29e9b", "blockhash": "0000000000000000001cda96e906b7601b7a6fb1a3b62bca570a9e5d8f4b3de1", "vout": [{"scriptPubKey": {"reqSigs": 1, "hex": "76a9146810a14ccf3c6c0bce5ff3ab336c6d598d5b68cb88ac", "addresses": ["1AVFCRrLShZH45idJ7ptcrmqvKjf4miXst"], "asm": "OP_DUP OP_HASH160 6810a14ccf3c6c0bce5ff3ab336c6d598d5b68cb OP_EQUALVERIFY OP_CHECKSIG", "type": "pubkeyhash"}, "value": 0.00074522, "n": 0}, {"scriptPubKey": {"reqSigs": 1, "hex": "76a9140388055046717909bceac4ac61e281891d52dcea88ac", "addresses": ["1KfyTsb6iXWKQB4WshxMxJjebLU5c9QiV"], "asm": "OP_DUP OP_HASH160 0388055046717909bceac4ac61e281891d52dcea OP_EQUALVERIFY OP_CHECKSIG", "type": "pubkeyhash"}, "value": 0.00468402, "n": 1}], "hex": "010000000148896ff44bf8ae9d5d6d6b6536fca5a52ddd84dd1884557efcdb9168756e7c5c010000006b4830450221008d93b5d4a45b5d63c0dff1cc51b8ab3021fe50ad7093ff70b44f3bc4a90928d202204ae2d5d9291737148ccda17e22ff319a591aca0b00ac743474c537df13d573eb012102954e5062d478ad998495709f70aac48b1a3cd6089c7631855297e71cb2c047d1ffffffff021a230100000000001976a9146810a14ccf3c6c0bce5ff3ab336c6d598d5b68cb88acb2250700000000001976a9140388055046717909bceac4ac61e281891d52dcea88ac00000000", "vin": [{"sequence": 4294967295, "scriptSig": {"hex": "4830450221008d93b5d4a45b5d63c0dff1cc51b8ab3021fe50ad7093ff70b44f3bc4a90928d202204ae2d5d9291737148ccda17e22ff319a591aca0b00ac743474c537df13d573eb012102954e5062d478ad998495709f70aac48b1a3cd6089c7631855297e71cb2c047d1", "asm": "30450221008d93b5d4a45b5d63c0dff1cc51b8ab3021fe50ad7093ff70b44f3bc4a90928d202204ae2d5d9291737148ccda17e22ff319a591aca0b00ac743474c537df13d573eb[ALL] 02954e5062d478ad998495709f70aac48b1a3cd6089c7631855297e71cb2c047d1"}, "vout": 1, "txid": "5c7c6e756891dbfc7e558418dd84dd2da5a5fc36656b6d5d9daef84bf46f8948"}], "txid": "0fac14416507d0cbe9f12904ea116d8550ffcd5a5783db6e970c13c7fce29e9b", "blocktime": 1537873282, "version": 1, "confirmations": 11484, "time": 1537873282, "locktime": 0, "vsize": 226, "size": 226}