{"hash": "0fb2518808b02e232c81d7d390d37c0b5797839d31d6cab430e17becab0c6ca0", "blockhash": "0000000000000000001f76057863aec43deb6fa401d9628bb513d65a8098bfab", "vout": [{"scriptPubKey": {"reqSigs": 1, "hex": "001412298aed22434a0c8412d4a8637da4485b365a7d", "addresses": ["bc1qzg5c4mfzgd9qepqj6j5xxldyfpdnvknad428pp"], "asm": "0 12298aed22434a0c8412d4a8637da4485b365a7d", "type": "witness_v0_keyhash"}, "value": 7.43e-05, "n": 0}, {"scriptPubKey": {"reqSigs": 1, "hex": "76a914fe883c64c509b8d289db4b94adb532beba30487c88ac", "addresses": ["1QCqqZbr8Be1t9k8bX3ZZZEcf34ouWZo1c"], "asm": "OP_DUP OP_HASH160 fe883c64c509b8d289db4b94adb532beba30487c OP_EQUALVERIFY OP_CHECKSIG", "type": "pubkeyhash"}, "value": 0.00457925, "n": 1}], "hex": "01000000013a86d61ad5ff171ddafc513f3d44874e472ca32255e6da15993863d00f7e7199000000006a47304402203b704a196e5c11581e18674c83d98b2cab7620cd5cda4fb34bc456e44dcee0a60220108740e8e08f8e18c96b4d7a5af214cdf91a12d50531f43202c8ec467736f6b10121035baec37365aad297a0d471ce1d0b4fa7f0fa6202a19f75f6d5b1019d30ab9315ffffffff02061d00000000000016001412298aed22434a0c8412d4a8637da4485b365a7dc5fc0600000000001976a914fe883c64c509b8d289db4b94adb532beba30487c88ac00000000", "vin": [{"sequence": 4294967295, "scriptSig": {"hex": "47304402203b704a196e5c11581e18674c83d98b2cab7620cd5cda4fb34bc456e44dcee0a60220108740e8e08f8e18c96b4d7a5af214cdf91a12d50531f43202c8ec467736f6b10121035baec37365aad297a0d471ce1d0b4fa7f0fa6202a19f75f6d5b1019d30ab9315", "asm": "304402203b704a196e5c11581e18674c83d98b2cab7620cd5cda4fb34bc456e44dcee0a60220108740e8e08f8e18c96b4d7a5af214cdf91a12d50531f43202c8ec467736f6b1[ALL] 035baec37365aad297a0d471ce1d0b4fa7f0fa6202a19f75f6d5b1019d30ab9315"}, "vout": 0, "txid": "99717e0fd063389915dae65522a32c474e87443d3f51fcda1d17ffd51ad6863a"}], "txid": "0fb2518808b02e232c81d7d390d37c0b5797839d31d6cab430e17becab0c6ca0", "blocktime": 1537873891, "version": 1, "confirmations": 11478, "time": 1537873891, "locktime": 0, "vsize": 222, "size": 222}