{"hash": "0fb348f5bc4f6f3c3a4984b8747532b27e9903e277341aac0e679e2ed8a9facd", "blockhash": "0000000000000000000e13cef7c366c0283d82e591d1acd082e914b08063cdf1", "vout": [{"scriptPubKey": {"reqSigs": 1, "hex": "a914c2d58bb9d692b49dc8e0437d34a8dee453ffbcdb87", "addresses": ["3KTCqBUhN5SdMRbQ2gKobaAvTJg3Ygduzo"], "asm": "OP_HASH160 c2d58bb9d692b49dc8e0437d34a8dee453ffbcdb OP_EQUAL", "type": "scripthash"}, "value": 0.16844201, "n": 0}, {"scriptPubKey": {"reqSigs": 1, "hex": "76a91484b6e01ac80f7dbaf5304cc5760edef756894c2b88ac", "addresses": ["1D6jGjDD3sBirgf2kKWNecxhJGNeyge8tg"], "asm": "OP_DUP OP_HASH160 84b6e01ac80f7dbaf5304cc5760edef756894c2b OP_EQUALVERIFY OP_CHECKSIG", "type": "pubkeyhash"}, "value": 0.18613096, "n": 1}], "hex": "0100000001fc5fa1dd87e3181eb9beeea5bcc25f39fa7c63fa81fa38f720ba9292be11f5ea010000006a47304402206ad21ea1a1eec1f210a514bd9dacef135cc928de7a3e1ee27e14d987f800f71702202291ee3119f2a824d424ceafcf6defbb05421a70ea56534058c1e06797b9270b0121023b1d7788b5620e3e80dbcb53e4b3e31adb000fd428ed37e751e3565810bc974fffffffff02a90501010000000017a914c2d58bb9d692b49dc8e0437d34a8dee453ffbcdb8768031c01000000001976a91484b6e01ac80f7dbaf5304cc5760edef756894c2b88ac00000000", "vin": [{"sequence": 4294967295, "scriptSig": {"hex": "47304402206ad21ea1a1eec1f210a514bd9dacef135cc928de7a3e1ee27e14d987f800f71702202291ee3119f2a824d424ceafcf6defbb05421a70ea56534058c1e06797b9270b0121023b1d7788b5620e3e80dbcb53e4b3e31adb000fd428ed37e751e3565810bc974f", "asm": "304402206ad21ea1a1eec1f210a514bd9dacef135cc928de7a3e1ee27e14d987f800f71702202291ee3119f2a824d424ceafcf6defbb05421a70ea56534058c1e06797b9270b[ALL] 023b1d7788b5620e3e80dbcb53e4b3e31adb000fd428ed37e751e3565810bc974f"}, "vout": 1, "txid": "eaf511be9292ba20f738fa81fa637cfa395fc2bca5eebeb91e18e387dda15ffc"}], "txid": "0fb348f5bc4f6f3c3a4984b8747532b27e9903e277341aac0e679e2ed8a9facd", "blocktime": 1537871767, "version": 1, "confirmations": 11493, "time": 1537871767, "locktime": 0, "vsize": 223, "size": 223}