{"hash": "0fb98ace37bd341eaf5eb94ece342e062790771f7023d039aa41d5394201887e", "blockhash": "00000000000000000018f53835495a110e01622372bf6ae95dc86f2b0ab887b0", "vout": [{"scriptPubKey": {"reqSigs": 1, "hex": "a914408d361a24869d31d6a6453ef1b4db2695f70a2e87", "addresses": ["37aLLMdjASxLeMhwiEeSGBDV5bpEdqqLNX"], "asm": "OP_HASH160 408d361a24869d31d6a6453ef1b4db2695f70a2e OP_EQUAL", "type": "scripthash"}, "value": 0.00063, "n": 0}, {"scriptPubKey": {"reqSigs": 1, "hex": "76a91443be513d9c6c801bcb0eda21d710acfa18a2b94b88ac", "addresses": ["17BCGLMXDdd74t7pCmsKU9qYAQu1KEdcdX"], "asm": "OP_DUP OP_HASH160 43be513d9c6c801bcb0eda21d710acfa18a2b94b OP_EQUALVERIFY OP_CHECKSIG", "type": "pubkeyhash"}, "value": 0.01373283, "n": 1}], "hex": "0100000001fa89ce6d0d235640f89c4de1c7c144584dada77fe21d6976e16fac3f4012a0c3010000006b483045022100ce4e7cc9fb08e5d01dcc53f5fffb6932e9344df7c0f232be7f6abb3afb72a9f002203307818a88cbba149ad9be24d1e29cc779cb67569014c3dd5c636064a8d1783b01210247959e7edcae1f2b7731659ac236b71193d27acd9560a4739c57dd2c782d332dffffffff0218f600000000000017a914408d361a24869d31d6a6453ef1b4db2695f70a2e8763f41400000000001976a91443be513d9c6c801bcb0eda21d710acfa18a2b94b88ac00000000", "vin": [{"sequence": 4294967295, "scriptSig": {"hex": "483045022100ce4e7cc9fb08e5d01dcc53f5fffb6932e9344df7c0f232be7f6abb3afb72a9f002203307818a88cbba149ad9be24d1e29cc779cb67569014c3dd5c636064a8d1783b01210247959e7edcae1f2b7731659ac236b71193d27acd9560a4739c57dd2c782d332d", "asm": "3045022100ce4e7cc9fb08e5d01dcc53f5fffb6932e9344df7c0f232be7f6abb3afb72a9f002203307818a88cbba149ad9be24d1e29cc779cb67569014c3dd5c636064a8d1783b[ALL] 0247959e7edcae1f2b7731659ac236b71193d27acd9560a4739c57dd2c782d332d"}, "vout": 1, "txid": "c3a012403fac6fe176691de27fa7ad4d5844c1c7e14d9cf84056230d6dce89fa"}], "txid": "0fb98ace37bd341eaf5eb94ece342e062790771f7023d039aa41d5394201887e", "blocktime": 1537870928, "version": 1, "confirmations": 11512, "time": 1537870928, "locktime": 0, "vsize": 224, "size": 224}