{"hash": "0fc5e0f6046300cd24cb33cadab0e7ce6054bfc3c511f7c393a77cfeb3428641", "blockhash": "0000000000000000001f76057863aec43deb6fa401d9628bb513d65a8098bfab", "vout": [{"scriptPubKey": {"reqSigs": 1, "hex": "a914774a91b35bb6d96948a8cdbdc427b908fc1875b387", "addresses": ["3CZmfXVH5ijnEwTRxw9sPhynbFEAMGPmxH"], "asm": "OP_HASH160 774a91b35bb6d96948a8cdbdc427b908fc1875b3 OP_EQUAL", "type": "scripthash"}, "value": 0.00385585, "n": 0}, {"scriptPubKey": {"reqSigs": 1, "hex": "76a914d6e3dd5d041893951dc14634627f60a0d25b9b3488ac", "addresses": ["1LbEaNPBmRqCQLyVWDu9MhXF78tDp1Nctq"], "asm": "OP_DUP OP_HASH160 d6e3dd5d041893951dc14634627f60a0d25b9b34 OP_EQUALVERIFY OP_CHECKSIG", "type": "pubkeyhash"}, "value": 8.86139732, "n": 1}], "hex": "010000000112293a29c3d65564c01eabafe30d5e788f80ae6907c939c91c282c795e5adce8000000006a47304402206b9fab19264e25cec310083e3e2f7db15bec3411e23e9966ce47582b96ef18c802200769b36f0f527f91e4327a081c7b985ce17a3935418690e4343144d0ac84e21901210262024d2232056055467c3df1ef7e0dea412850955e9ed4233ad8f4f98bf9cfdeffffffff0231e205000000000017a914774a91b35bb6d96948a8cdbdc427b908fc1875b387546bd134000000001976a914d6e3dd5d041893951dc14634627f60a0d25b9b3488ac00000000", "vin": [{"sequence": 4294967295, "scriptSig": {"hex": "47304402206b9fab19264e25cec310083e3e2f7db15bec3411e23e9966ce47582b96ef18c802200769b36f0f527f91e4327a081c7b985ce17a3935418690e4343144d0ac84e21901210262024d2232056055467c3df1ef7e0dea412850955e9ed4233ad8f4f98bf9cfde", "asm": "304402206b9fab19264e25cec310083e3e2f7db15bec3411e23e9966ce47582b96ef18c802200769b36f0f527f91e4327a081c7b985ce17a3935418690e4343144d0ac84e219[ALL] 0262024d2232056055467c3df1ef7e0dea412850955e9ed4233ad8f4f98bf9cfde"}, "vout": 0, "txid": "e8dc5a5e792c281cc939c90769ae808f785e0de3afab1ec06455d6c3293a2912"}], "txid": "0fc5e0f6046300cd24cb33cadab0e7ce6054bfc3c511f7c393a77cfeb3428641", "blocktime": 1537873891, "version": 1, "confirmations": 11474, "time": 1537873891, "locktime": 0, "vsize": 223, "size": 223}