{"hash": "0fc8f2142a4740b0c6e6e84d939e2b1688d22ab67fc5c9da5a893cf3b14bb891", "blockhash": "0000000000000000000dcc0f55137456b1a82d3642486a52398922ac4d620174", "vout": [{"scriptPubKey": {"reqSigs": 1, "hex": "76a914102d4252667ff8e1327fcd340b5a9f1b3ad62e6e88ac", "addresses": ["12UY2j2WpVPwUWJT9K6RxMWWugaBe3DNUK"], "asm": "OP_DUP OP_HASH160 102d4252667ff8e1327fcd340b5a9f1b3ad62e6e OP_EQUALVERIFY OP_CHECKSIG", "type": "pubkeyhash"}, "value": 0.0117, "n": 0}, {"scriptPubKey": {"reqSigs": 1, "hex": "76a9144df869e29f2e8be4c32bbcf2d01fe73f488238ea88ac", "addresses": ["187GcrPGkdTbB8rmZiUztkBpxFx5rdPuq8"], "asm": "OP_DUP OP_HASH160 4df869e29f2e8be4c32bbcf2d01fe73f488238ea OP_EQUALVERIFY OP_CHECKSIG", "type": "pubkeyhash"}, "value": 0.20448113, "n": 1}], "hex": "0100000001232b370adb7e3333692d13bc6b4f34b0efcd6815e578819f49193b69ed8d18f4010000006a47304402205f1bdde38b790c4a62be4680da2ff08ff9ccf22d96193ce50e546d8363ca6e4d02205aa61fd02f0781de469a7a5ceeb661530c0499042952e4aa85baf18e762b8edf012103bbfd1a6d03b547282e8f0fc3f8f0e68bf04b5560b1c8d8bc29e315bb72019794ffffffff0250da1100000000001976a914102d4252667ff8e1327fcd340b5a9f1b3ad62e6e88ac71033801000000001976a9144df869e29f2e8be4c32bbcf2d01fe73f488238ea88ac00000000", "vin": [{"sequence": 4294967295, "scriptSig": {"hex": "47304402205f1bdde38b790c4a62be4680da2ff08ff9ccf22d96193ce50e546d8363ca6e4d02205aa61fd02f0781de469a7a5ceeb661530c0499042952e4aa85baf18e762b8edf012103bbfd1a6d03b547282e8f0fc3f8f0e68bf04b5560b1c8d8bc29e315bb72019794", "asm": "304402205f1bdde38b790c4a62be4680da2ff08ff9ccf22d96193ce50e546d8363ca6e4d02205aa61fd02f0781de469a7a5ceeb661530c0499042952e4aa85baf18e762b8edf[ALL] 03bbfd1a6d03b547282e8f0fc3f8f0e68bf04b5560b1c8d8bc29e315bb72019794"}, "vout": 1, "txid": "f4188ded693b19499f8178e51568cdefb0344f6bbc132d6933337edb0a372b23"}], "txid": "0fc8f2142a4740b0c6e6e84d939e2b1688d22ab67fc5c9da5a893cf3b14bb891", "blocktime": 1537870268, "version": 1, "confirmations": 11518, "time": 1537870268, "locktime": 0, "vsize": 225, "size": 225}