{"hash": "aecc2aeec42c9021358f60b6f7809270e3f82ca75e2fdf822bee8db9679e1455", "blockhash": "0000000000000000000dcc0f55137456b1a82d3642486a52398922ac4d620174", "vout": [{"scriptPubKey": {"reqSigs": 1, "hex": "a914bf85d5827aba51993e2741fad73226a57da4ede987", "addresses": ["3K9hK8js9r63v9hZiX5RJRkafzs6RHDuWf"], "asm": "OP_HASH160 bf85d5827aba51993e2741fad73226a57da4ede9 OP_EQUAL", "type": "scripthash"}, "value": 0.01004072, "n": 0}, {"scriptPubKey": {"reqSigs": 1, "hex": "a914d33097e7b58d56eb8fe81ea01f87b5c2a93d43b087", "addresses": ["3LwgiM66si7FrtEdKzc2yLC4WmZQNshmVQ"], "asm": "OP_HASH160 d33097e7b58d56eb8fe81ea01f87b5c2a93d43b0 OP_EQUAL", "type": "scripthash"}, "value": 0.01423575, "n": 1}], "hex": "020000000001042803d26a649648778831fd55f93136b9a8c8a2720f84dd134ce113aad26c5a6b00000000171600142b7811d6b60e2d2b58fff15d888b92a7d5d95164feffffff309f9cc977fc89dfa3ee0be7a9218415e406d058c3277f1a91adfba05a9357f4cc000000171600143a0f593f6226527ec7425c2c1fccf9426b16c87bfeffffff5b014e4f5335d4820c712972cfb35055586aef3ca00c7123ad0924aa03585acd0300000017160014434edfa4defd5bec669e8269f2229ba2c326d5f4feffffff96439c3617a398ca8cbbb566239761249fa272fde2a8ac60c03b4a5dd50cbf8d0000000017160014551365822f52b6532d0b13cc0af3dd60af8248b7feffffff0228520f000000000017a914bf85d5827aba51993e2741fad73226a57da4ede987d7b815000000000017a914d33097e7b58d56eb8fe81ea01f87b5c2a93d43b087024830450221008756a8fabd46b9439a5c8562b6b3485f027c4523e45f4c4752d412496801c09b02200f10066cf91922fba0f6d1e8a5f402644dfbd96e990575248b1c81f14b675a00012103afa9693c7556d95d34a19fb5eabcb7ee4ba3d40a0bebf4da9e17fbf30511262c0247304402205208b9068875799543b80a53693a851a8a7f4b08eec33a802f430ef74b22266e02207249bc98a62338f259adce457bf4cf58ec8d7a9cd0a91a9a17ae802b1e9be22c0121023e7db690ac8c9f8f86b5e7cb2c67eae47c95f21f5d5b29048a96bc3315d02ee102483045022100a3442d564e64312fce0a72ef35837ca9c993cca00beed58a882e532f82a7e07102207e0fca56fac06374a0d987fbb4d4a821b3bf6ad24cd7daf7147883473e2d00c001210206c46d4551dfbcc1422fa0114e4d4ca2b7a9e532b4ec85880394d4c213f51a0a02483045022100fc9de9633ce1275a22848a71d5d721f064029356a25cd5a61cab5a478a94d3080220712b2e88a85639a27ad8be1d3ff444958b0af64deb6539c95e93ad3e4c6f7e06012103788d70263c14c90036c4ff64466fde0a1dd0559e7ead2b40f12f1223e01f1ba00c490800", "vin": [{"txinwitness": ["30450221008756a8fabd46b9439a5c8562b6b3485f027c4523e45f4c4752d412496801c09b02200f10066cf91922fba0f6d1e8a5f402644dfbd96e990575248b1c81f14b675a0001", "03afa9693c7556d95d34a19fb5eabcb7ee4ba3d40a0bebf4da9e17fbf30511262c"], "sequence": 4294967294, "scriptSig": {"hex": "1600142b7811d6b60e2d2b58fff15d888b92a7d5d95164", "asm": "00142b7811d6b60e2d2b58fff15d888b92a7d5d95164"}, "vout": 0, "txid": "6b5a6cd2aa13e14c13dd840f72a2c8a8b93631f955fd3188774896646ad20328"}, {"txinwitness": ["304402205208b9068875799543b80a53693a851a8a7f4b08eec33a802f430ef74b22266e02207249bc98a62338f259adce457bf4cf58ec8d7a9cd0a91a9a17ae802b1e9be22c01", "023e7db690ac8c9f8f86b5e7cb2c67eae47c95f21f5d5b29048a96bc3315d02ee1"], "sequence": 4294967294, "scriptSig": {"hex": "1600143a0f593f6226527ec7425c2c1fccf9426b16c87b", "asm": "00143a0f593f6226527ec7425c2c1fccf9426b16c87b"}, "vout": 204, "txid": "f457935aa0fbad911a7f27c358d006e4158421a9e70beea3df89fc77c99c9f30"}, {"txinwitness": ["3045022100a3442d564e64312fce0a72ef35837ca9c993cca00beed58a882e532f82a7e07102207e0fca56fac06374a0d987fbb4d4a821b3bf6ad24cd7daf7147883473e2d00c001", "0206c46d4551dfbcc1422fa0114e4d4ca2b7a9e532b4ec85880394d4c213f51a0a"], "sequence": 4294967294, "scriptSig": {"hex": "160014434edfa4defd5bec669e8269f2229ba2c326d5f4", "asm": "0014434edfa4defd5bec669e8269f2229ba2c326d5f4"}, "vout": 3, "txid": "cd5a5803aa2409ad23710ca03cef6a585550b3cf7229710c82d435534f4e015b"}, {"txinwitness": ["3045022100fc9de9633ce1275a22848a71d5d721f064029356a25cd5a61cab5a478a94d3080220712b2e88a85639a27ad8be1d3ff444958b0af64deb6539c95e93ad3e4c6f7e0601", "03788d70263c14c90036c4ff64466fde0a1dd0559e7ead2b40f12f1223e01f1ba0"], "sequence": 4294967294, "scriptSig": {"hex": "160014551365822f52b6532d0b13cc0af3dd60af8248b7", "asm": "0014551365822f52b6532d0b13cc0af3dd60af8248b7"}, "vout": 0, "txid": "8dbf0cd55d4a3bc060aca8e2fd72a29f2461972366b5bb8cca98a317369c4396"}], "txid": "0fd24ad23542c5f758a354848037b62fefd55e74c6536c1cfc970cd41c3f3273", "blocktime": 1537870268, "version": 2, "confirmations": 11519, "time": 1537870268, "locktime": 542988, "vsize": 439, "size": 763}