{"hash": "06d356d81b39950754c690a679569aac933d7d24fe27b4fef059d31efc47f2d6", "blockhash": "0000000000000000001f0ddff1eddb255c1121bcd4da4f1bc9a0da00cae72433", "vout": [{"scriptPubKey": {"reqSigs": 1, "hex": "a9146ca7a7102f15f68dcd7e9e2a337b7288033dcadb87", "addresses": ["3BbXjy5T1pERA1LjXY2S9HDQeyPLiD1YZb"], "asm": "OP_HASH160 6ca7a7102f15f68dcd7e9e2a337b7288033dcadb OP_EQUAL", "type": "scripthash"}, "value": 0.00046651, "n": 0}, {"scriptPubKey": {"reqSigs": 1, "hex": "76a9140a3195c50a139c1268b517078c4818eb7c3cee7288ac", "addresses": ["1vuA9XxA95fff3zonS6wemPTWBvQ16vN9"], "asm": "OP_DUP OP_HASH160 0a3195c50a139c1268b517078c4818eb7c3cee72 OP_EQUALVERIFY OP_CHECKSIG", "type": "pubkeyhash"}, "value": 0.00617395, "n": 1}], "hex": "0200000000010258768af8d3eb15ee063c58ae546da42e741da0f6d25ae9a65f26bc96e348e0c305000000171600148ca69b777701b7866748f008520bd17885b11789feffffff65d712a76815f022f1dc516a7d9c2b531797902432987260c9f3259cb48f0f841f00000017160014cac40272e5ef91f11ad8b78e0aac0299e163b5c7feffffff023bb600000000000017a9146ca7a7102f15f68dcd7e9e2a337b7288033dcadb87b36b0900000000001976a9140a3195c50a139c1268b517078c4818eb7c3cee7288ac0248304502210098bc826d68d5be80251ce6d14cb838c9fb8d8e4f02a2f1bfc9b6b6e34c2c8eac02207e9e4a0b7a70cadb9837a823434b4e94554f2626e50fe7288d4271278583630301210394c1dbe7e2de2d6b26c323ff6d2c2474b097deeb9a8812c52ae5d62406ca5aff02483045022100e90626a31607f8032181be18f0fd82ad9d40879be7ff3f83ccd83c50c38987870220175719d004166ce26709f9f065d37fa9a99c77b55cccc562cdfb9009a77b9eea012103b0b43b28bf292f2324b0d0e89f073b2db0a7a794dec978ede87617b67bcb33d811490800", "vin": [{"txinwitness": ["304502210098bc826d68d5be80251ce6d14cb838c9fb8d8e4f02a2f1bfc9b6b6e34c2c8eac02207e9e4a0b7a70cadb9837a823434b4e94554f2626e50fe7288d4271278583630301", "0394c1dbe7e2de2d6b26c323ff6d2c2474b097deeb9a8812c52ae5d62406ca5aff"], "sequence": 4294967294, "scriptSig": {"hex": "1600148ca69b777701b7866748f008520bd17885b11789", "asm": "00148ca69b777701b7866748f008520bd17885b11789"}, "vout": 5, "txid": "c3e048e396bc265fa6e95ad2f6a01d742ea46d54ae583c06ee15ebd3f88a7658"}, {"txinwitness": ["3045022100e90626a31607f8032181be18f0fd82ad9d40879be7ff3f83ccd83c50c38987870220175719d004166ce26709f9f065d37fa9a99c77b55cccc562cdfb9009a77b9eea01", "03b0b43b28bf292f2324b0d0e89f073b2db0a7a794dec978ede87617b67bcb33d8"], "sequence": 4294967294, "scriptSig": {"hex": "160014cac40272e5ef91f11ad8b78e0aac0299e163b5c7", "asm": "0014cac40272e5ef91f11ad8b78e0aac0299e163b5c7"}, "vout": 31, "txid": "840f8fb49c25f3c96072983224909717532b9c7d6a51dcf122f01568a712d765"}], "txid": "0fdee036cb999d67f48994a975407602c0504cdc6a8ac7044386b56a9889ed10", "blocktime": 1537872018, "version": 2, "confirmations": 11489, "time": 1537872018, "locktime": 542993, "vsize": 259, "size": 422}