{"hash": "0fde811277060014881d8b791f8312d2c0286c95887e56a851d12cc6e763b13b", "blockhash": "0000000000000000001cda96e906b7601b7a6fb1a3b62bca570a9e5d8f4b3de1", "vout": [{"scriptPubKey": {"type": "nulldata", "hex": "6a4c50000077bd0001e114dccca371221793029e86e5bf9ae76da98a211aaf6c953dd567cf27e7aabbd76bd997c85d7b94def4bd7c07605baa1258061338e3eb59029dbc9a9526289ac0f6612cd74e33776ee4", "asm": "OP_RETURN 000077bd0001e114dccca371221793029e86e5bf9ae76da98a211aaf6c953dd567cf27e7aabbd76bd997c85d7b94def4bd7c07605baa1258061338e3eb59029dbc9a9526289ac0f6612cd74e33776ee4"}, "value": 0.0, "n": 0}, {"scriptPubKey": {"reqSigs": 1, "hex": "76a914163917336f3c1a96871c014502272d0f76f8a3e788ac", "addresses": ["132WFwueTRvikSyqabwjbeeVp2JfQ6L6M2"], "asm": "OP_DUP OP_HASH160 163917336f3c1a96871c014502272d0f76f8a3e7 OP_EQUALVERIFY OP_CHECKSIG", "type": "pubkeyhash"}, "value": 0.00138204, "n": 1}], "hex": "0100000001a5aa7b9cbfc8d16c13f7bbe4128ec047dff3dac77051f745a4f32bd8e565bebc000000006b48304502210087329b6e264a40c36566f82ee4d069b183a4fd811f3b45056a55ff388d1a9ea2022070ea1784792a50c2768fd5de39d73ba2ba8787f30165183c3a40a0c4fe9900900121030bf16bb101e9384826d26e529d05824ee3793a7b0a14a99f3808568bdb772eecffffffff020000000000000000536a4c50000077bd0001e114dccca371221793029e86e5bf9ae76da98a211aaf6c953dd567cf27e7aabbd76bd997c85d7b94def4bd7c07605baa1258061338e3eb59029dbc9a9526289ac0f6612cd74e33776ee4dc1b0200000000001976a914163917336f3c1a96871c014502272d0f76f8a3e788ac00000000", "vin": [{"sequence": 4294967295, "scriptSig": {"hex": "48304502210087329b6e264a40c36566f82ee4d069b183a4fd811f3b45056a55ff388d1a9ea2022070ea1784792a50c2768fd5de39d73ba2ba8787f30165183c3a40a0c4fe9900900121030bf16bb101e9384826d26e529d05824ee3793a7b0a14a99f3808568bdb772eec", "asm": "304502210087329b6e264a40c36566f82ee4d069b183a4fd811f3b45056a55ff388d1a9ea2022070ea1784792a50c2768fd5de39d73ba2ba8787f30165183c3a40a0c4fe990090[ALL] 030bf16bb101e9384826d26e529d05824ee3793a7b0a14a99f3808568bdb772eec"}, "vout": 0, "txid": "bcbe65e5d82bf3a445f75170c7daf3df47c08e12e4bbf7136cd1c8bf9c7baaa5"}], "txid": "0fde811277060014881d8b791f8312d2c0286c95887e56a851d12cc6e763b13b", "blocktime": 1537873282, "version": 1, "confirmations": 11484, "time": 1537873282, "locktime": 0, "vsize": 284, "size": 284}