{"hash": "0feb471f7eb5f2bbedda1033f164edfa33b13fdd98a596cb0867d58b182f10df", "blockhash": "0000000000000000000dcc0f55137456b1a82d3642486a52398922ac4d620174", "vout": [{"scriptPubKey": {"reqSigs": 1, "hex": "76a914d243e6abb9a60fbff430b421d2df4b7d59ec186088ac", "addresses": ["1LAnF8h3qMGx3TSwNUHVneBZUEpwE4gu3D"], "asm": "OP_DUP OP_HASH160 d243e6abb9a60fbff430b421d2df4b7d59ec1860 OP_EQUALVERIFY OP_CHECKSIG", "type": "pubkeyhash"}, "value": 0.00076972, "n": 0}, {"scriptPubKey": {"reqSigs": 1, "hex": "76a9143851f34d13937b673a7d24a1950bb5b21ce94af388ac", "addresses": ["168o1kqNquEJeR9vosUB5fw4eAwcVAgh8P"], "asm": "OP_DUP OP_HASH160 3851f34d13937b673a7d24a1950bb5b21ce94af3 OP_EQUALVERIFY OP_CHECKSIG", "type": "pubkeyhash"}, "value": 5.46e-06, "n": 1}, {"scriptPubKey": {"type": "nulldata", "hex": "6a146f6d6e69000000000000001f00000043dc4d43e0", "asm": "OP_RETURN 6f6d6e69000000000000001f00000043dc4d43e0"}, "value": 0.0, "n": 2}], "hex": "010000000294285ed7e0b9164bbb9174a5ea66c4c25951c4988817047d37f8894d377a94d8010000006b483045022100df9c25f446d8ba28422f5a0df4f60a618e40ca837816615f3bad8a0d4e83358602204ba91284e27874fc5ddcd27507d8629544d0576ccd474076f932d60b29243b3801210366bc0e093aac3dc2adaa62f444e192ec9dd302f40c1f95f74bce3d0a35256040ffffffff5996fb432a5484d883092801d39108345ae604ad79bd76fd586cfdd5a5cae0d6000000006b48304502210094b10c08fd317aa3185b9f4eddea748502938c3db08b576c2693941f26178c02022060027e70f95349717ef544fc7c6c227ed0eb50dee90b4d61c6643f919db3b39001210271977291b74f1f5f5c42157e8aae804664eaaeccfd097918450d37f28fb94d77ffffffff03ac2c0100000000001976a914d243e6abb9a60fbff430b421d2df4b7d59ec186088ac22020000000000001976a9143851f34d13937b673a7d24a1950bb5b21ce94af388ac0000000000000000166a146f6d6e69000000000000001f00000043dc4d43e000000000", "vin": [{"sequence": 4294967295, "scriptSig": {"hex": "483045022100df9c25f446d8ba28422f5a0df4f60a618e40ca837816615f3bad8a0d4e83358602204ba91284e27874fc5ddcd27507d8629544d0576ccd474076f932d60b29243b3801210366bc0e093aac3dc2adaa62f444e192ec9dd302f40c1f95f74bce3d0a35256040", "asm": "3045022100df9c25f446d8ba28422f5a0df4f60a618e40ca837816615f3bad8a0d4e83358602204ba91284e27874fc5ddcd27507d8629544d0576ccd474076f932d60b29243b38[ALL] 0366bc0e093aac3dc2adaa62f444e192ec9dd302f40c1f95f74bce3d0a35256040"}, "vout": 1, "txid": "d8947a374d89f8377d04178898c45159c2c466eaa57491bb4b16b9e0d75e2894"}, {"sequence": 4294967295, "scriptSig": {"hex": "48304502210094b10c08fd317aa3185b9f4eddea748502938c3db08b576c2693941f26178c02022060027e70f95349717ef544fc7c6c227ed0eb50dee90b4d61c6643f919db3b39001210271977291b74f1f5f5c42157e8aae804664eaaeccfd097918450d37f28fb94d77", "asm": "304502210094b10c08fd317aa3185b9f4eddea748502938c3db08b576c2693941f26178c02022060027e70f95349717ef544fc7c6c227ed0eb50dee90b4d61c6643f919db3b390[ALL] 0271977291b74f1f5f5c42157e8aae804664eaaeccfd097918450d37f28fb94d77"}, "vout": 0, "txid": "d6e0caa5d5fd6c58fd76bd79ad04e65a340891d301280983d884542a43fb9659"}], "txid": "0feb471f7eb5f2bbedda1033f164edfa33b13fdd98a596cb0867d58b182f10df", "blocktime": 1537870268, "version": 1, "confirmations": 11516, "time": 1537870268, "locktime": 0, "vsize": 405, "size": 405}