{"hash": "0ff2139a6c97ccd6c891b4927cf7967d8a69abe519f6fc1fe5617f88027dcd8f", "blockhash": "0000000000000000000e13cef7c366c0283d82e591d1acd082e914b08063cdf1", "vout": [{"scriptPubKey": {"type": "nulldata", "hex": "6a146f6d6e69000000000000001f00000029ed022580", "asm": "OP_RETURN 6f6d6e69000000000000001f00000029ed022580"}, "value": 0.0, "n": 0}, {"scriptPubKey": {"reqSigs": 1, "hex": "76a914ae667d6f3933d1d3fad28273415c3fde03f3934b88ac", "addresses": ["1Gu9MWQfDjZo4Sqtg3MwqqLb33d3zZ4uPT"], "asm": "OP_DUP OP_HASH160 ae667d6f3933d1d3fad28273415c3fde03f3934b OP_EQUALVERIFY OP_CHECKSIG", "type": "pubkeyhash"}, "value": 0.00321171, "n": 1}, {"scriptPubKey": {"reqSigs": 1, "hex": "76a914a25dec4d0011064ef106a983c39c7a540699f22088ac", "addresses": ["1FoWyxwPXuj4C6abqwhjDWdz6D4PZgYRjA"], "asm": "OP_DUP OP_HASH160 a25dec4d0011064ef106a983c39c7a540699f220 OP_EQUALVERIFY OP_CHECKSIG", "type": "pubkeyhash"}, "value": 5.46e-06, "n": 2}], "hex": "0100000002e619dfdf73c3edf9152bc817d1a7e97c8a53c4936ce059ced8e1a0e74f6bb82e020000006b483045022100c23459e0ef0fd401712a1166ca55a36853fc449a4d4cfaa324f84d704a6e41780220743ea5a4a675f933aaeee4682cc62181e62222f42f23b8b51c855993927ff3da012102dee0cfa2b988513008977e31999d675a26c81468ad421e6a4716373430595773feffffffe538c8385c508afec85e019d6c02111b563c65be5720bb4d9a346403a28f3b5a020000006a4730440220654f1f29120d1ef2e2f5171867ff0d06c4728bea16d21225a784985284393c170220652f48bb32967fb5ef4875371417aab0e2ddc28e9fcc281c4bcd021f670fe634012102dee0cfa2b988513008977e31999d675a26c81468ad421e6a4716373430595773feffffff030000000000000000166a146f6d6e69000000000000001f00000029ed02258093e60400000000001976a914ae667d6f3933d1d3fad28273415c3fde03f3934b88ac22020000000000001976a914a25dec4d0011064ef106a983c39c7a540699f22088ac10490800", "vin": [{"sequence": 4294967294, "scriptSig": {"hex": "483045022100c23459e0ef0fd401712a1166ca55a36853fc449a4d4cfaa324f84d704a6e41780220743ea5a4a675f933aaeee4682cc62181e62222f42f23b8b51c855993927ff3da012102dee0cfa2b988513008977e31999d675a26c81468ad421e6a4716373430595773", "asm": "3045022100c23459e0ef0fd401712a1166ca55a36853fc449a4d4cfaa324f84d704a6e41780220743ea5a4a675f933aaeee4682cc62181e62222f42f23b8b51c855993927ff3da[ALL] 02dee0cfa2b988513008977e31999d675a26c81468ad421e6a4716373430595773"}, "vout": 2, "txid": "2eb86b4fe7a0e1d8ce59e06c93c4538a7ce9a7d117c82b15f9edc373dfdf19e6"}, {"sequence": 4294967294, "scriptSig": {"hex": "4730440220654f1f29120d1ef2e2f5171867ff0d06c4728bea16d21225a784985284393c170220652f48bb32967fb5ef4875371417aab0e2ddc28e9fcc281c4bcd021f670fe634012102dee0cfa2b988513008977e31999d675a26c81468ad421e6a4716373430595773", "asm": "30440220654f1f29120d1ef2e2f5171867ff0d06c4728bea16d21225a784985284393c170220652f48bb32967fb5ef4875371417aab0e2ddc28e9fcc281c4bcd021f670fe634[ALL] 02dee0cfa2b988513008977e31999d675a26c81468ad421e6a4716373430595773"}, "vout": 2, "txid": "5a3b8fa20364349a4dbb2057be653c561b11026c9d015ec8fe8a505c38c838e5"}], "txid": "0ff2139a6c97ccd6c891b4927cf7967d8a69abe519f6fc1fe5617f88027dcd8f", "blocktime": 1537871767, "version": 1, "confirmations": 11495, "time": 1537871767, "locktime": 542992, "vsize": 404, "size": 404}