{"hash": "0ff9c7c84dbb929bf71c0e8bfc264eca42eb472be361a54b254688b78f1ebd66", "blockhash": "00000000000000000024a2167bbff67b0be802c0b01cdd79e6331c2be6459f87", "vout": [{"scriptPubKey": {"reqSigs": 1, "hex": "76a91415db0823ceb8cc2f8768673e331889ee45d5456088ac", "addresses": ["12zZadDeuw7aA9PSVPMm3YxVZTq2xbZ8Kw"], "asm": "OP_DUP OP_HASH160 15db0823ceb8cc2f8768673e331889ee45d54560 OP_EQUALVERIFY OP_CHECKSIG", "type": "pubkeyhash"}, "value": 1.873e-05, "n": 0}, {"scriptPubKey": {"reqSigs": 1, "hex": "76a914b64dd4f019f90f519ee775c2e918585e446ac79088ac", "addresses": ["1HcwDm7ikAHMAW3YaSh7zDnKh9yvV6RSZY"], "asm": "OP_DUP OP_HASH160 b64dd4f019f90f519ee775c2e918585e446ac790 OP_EQUALVERIFY OP_CHECKSIG", "type": "pubkeyhash"}, "value": 0.00389985, "n": 1}], "hex": "01000000029ffd9d34addd4b39998908422e1e649fed9b9645b1227f12f1874acc6bda3a66000000006b483045022100b246ed806c70ab6ca9c6803afc82f963ae643ae4764d82c00547226c7be5108e0220109da4882bd3cb5219758a317253956e5dfe52e8e1bd4f09226cf7463e9ab68e012103bed42a606c1488e99bbf21e043769714b9af7514cd27637c9f25092298818ae6ffffffff68fd0926afea74d0487e90d0b2072dcb45ee113644db72c580eda7931175c5d2000000006a47304402203ae16b12e19fe938795480ae5a64160a92dd0130ad1c655c7d3f14f611eb2d5e022046ec16723c182f3324bea9c78ace7f06be9067f08c51cae655bf18d8a77dae260121029be6c786014e574c61517b8723d3a2598d892e7b1564788bb75293776d5c153bffffffff0251070000000000001976a91415db0823ceb8cc2f8768673e331889ee45d5456088ac61f30500000000001976a914b64dd4f019f90f519ee775c2e918585e446ac79088ac00000000", "vin": [{"sequence": 4294967295, "scriptSig": {"hex": "483045022100b246ed806c70ab6ca9c6803afc82f963ae643ae4764d82c00547226c7be5108e0220109da4882bd3cb5219758a317253956e5dfe52e8e1bd4f09226cf7463e9ab68e012103bed42a606c1488e99bbf21e043769714b9af7514cd27637c9f25092298818ae6", "asm": "3045022100b246ed806c70ab6ca9c6803afc82f963ae643ae4764d82c00547226c7be5108e0220109da4882bd3cb5219758a317253956e5dfe52e8e1bd4f09226cf7463e9ab68e[ALL] 03bed42a606c1488e99bbf21e043769714b9af7514cd27637c9f25092298818ae6"}, "vout": 0, "txid": "663ada6bcc4a87f1127f22b145969bed9f641e2e42088999394bddad349dfd9f"}, {"sequence": 4294967295, "scriptSig": {"hex": "47304402203ae16b12e19fe938795480ae5a64160a92dd0130ad1c655c7d3f14f611eb2d5e022046ec16723c182f3324bea9c78ace7f06be9067f08c51cae655bf18d8a77dae260121029be6c786014e574c61517b8723d3a2598d892e7b1564788bb75293776d5c153b", "asm": "304402203ae16b12e19fe938795480ae5a64160a92dd0130ad1c655c7d3f14f611eb2d5e022046ec16723c182f3324bea9c78ace7f06be9067f08c51cae655bf18d8a77dae26[ALL] 029be6c786014e574c61517b8723d3a2598d892e7b1564788bb75293776d5c153b"}, "vout": 0, "txid": "d2c5751193a7ed80c572db443611ee45cb2d07b2d0907e48d074eaaf2609fd68"}], "txid": "0ff9c7c84dbb929bf71c0e8bfc264eca42eb472be361a54b254688b78f1ebd66", "blocktime": 1537870564, "version": 1, "confirmations": 11515, "time": 1537870564, "locktime": 0, "vsize": 373, "size": 373}