{"hash": "2038674337197d5b3e981bb7e57165f1e2281e702beb77e94e39025d68d671de", "blockhash": "00000000000000000017f5eb5941039fbcee6240d03bc1f2f8e35350df66a1d8", "vout": [{"scriptPubKey": {"reqSigs": 1, "hex": "a914cfc05db0c3434e730ac164c39b7f205b1870123f87", "addresses": ["3LdWF5K4WqDsnDCbzhmNQGMs61CfK4TP5N"], "asm": "OP_HASH160 cfc05db0c3434e730ac164c39b7f205b1870123f OP_EQUAL", "type": "scripthash"}, "value": 0.07796718, "n": 0}, {"scriptPubKey": {"reqSigs": 1, "hex": "0014c4393c7ea4233907079e8973267fe3c31eaca1e6", "addresses": ["bc1qcsuncl4yyvuswpu739ejvllrcv02eg0xnajr5g"], "asm": "0 c4393c7ea4233907079e8973267fe3c31eaca1e6", "type": "witness_v0_keyhash"}, "value": 0.00476388, "n": 1}], "hex": "01000000000101fd86e0c7a61289cdf82231d5b419a075caaf1e8a29f0b423c6050207b22827290000000000ffffffff02eef776000000000017a914cfc05db0c3434e730ac164c39b7f205b1870123f87e444070000000000160014c4393c7ea4233907079e8973267fe3c31eaca1e602483045022100c917d18066e87872e7a2f293379599b1bfc67f8345d2de142436a1df99d6cf7c02200e21404f5b73fc7478b351f4ab39e170dc622537643894418f182b4483a1725e012102f068bda41f0e41b8c294d75bd74ec2bd4f0aa0bd4542ae3318f9b912334bf6be00000000", "vin": [{"txinwitness": ["3045022100c917d18066e87872e7a2f293379599b1bfc67f8345d2de142436a1df99d6cf7c02200e21404f5b73fc7478b351f4ab39e170dc622537643894418f182b4483a1725e01", "02f068bda41f0e41b8c294d75bd74ec2bd4f0aa0bd4542ae3318f9b912334bf6be"], "sequence": 4294967295, "scriptSig": {"hex": "", "asm": ""}, "vout": 0, "txid": "292728b2070205c623b4f0298a1eafca75a019b4d53122f8cd8912a6c7e086fd"}], "txid": "0ffa2966e80fd2dab85871381445746e41b4767e447ac7f28713ac3edf68e4ff", "blocktime": 1537874412, "version": 1, "confirmations": 11467, "time": 1537874412, "locktime": 0, "vsize": 142, "size": 224}