{"hash": "d411bb280578410e72eab8e2d71393170819d152a8213b6eed57d543eca41313", "blockhash": "0000000000000000001cda96e906b7601b7a6fb1a3b62bca570a9e5d8f4b3de1", "vout": [{"scriptPubKey": {"reqSigs": 1, "hex": "a914a9f36f00ba2143077a137fe16d302747522c8a9087", "addresses": ["3HBdk2VLm4ibW5cPWK3xakaSZxE6Cv9br2"], "asm": "OP_HASH160 a9f36f00ba2143077a137fe16d302747522c8a90 OP_EQUAL", "type": "scripthash"}, "value": 0.01000134, "n": 0}, {"scriptPubKey": {"reqSigs": 1, "hex": "76a9147dac1b11c1503d8ac2fdf828e549e8cbf8a380df88ac", "addresses": ["1CTVe6XNSG6Cb9cHfPUobmKWVAK1VD346T"], "asm": "OP_DUP OP_HASH160 7dac1b11c1503d8ac2fdf828e549e8cbf8a380df OP_EQUALVERIFY OP_CHECKSIG", "type": "pubkeyhash"}, "value": 0.0027526, "n": 1}], "hex": "020000000001029951da7c2d9efd135894cde2a89f80d8783702af3bcfaee3d701679b552dbb550000000017160014f4a26983f3f391b9bc1df825cb1af72390f9f3d8feffffffeb1931f24a8f68db6a1217a25e7ef18de1434ee6346f39331b2be7048be8159000000000171600144b65d9031de54572619751a64d8def69cd630493feffffff02c6420f000000000017a914a9f36f00ba2143077a137fe16d302747522c8a90873c330400000000001976a9147dac1b11c1503d8ac2fdf828e549e8cbf8a380df88ac02483045022100849db96fe923b35f40e9eafaf7bdb3b3d4194cf1084fe94dfcd6601c9752e7bc02207d15054bc42d19bd2bbda6f9b52e48aea40589649d08802d022b917e5afec6b30121033fd527e71ad873820efa4e65406d325177b2d480c4c989bf3a7995de32f61685024830450221009fde1bf27c6cc196f6bc1d885a420fe176e7b96dd7c2a4597756be85ae3ab07902200ede289ed1138e358ba1912145af23db67648c3c79eb612d4ba49ddc8d465df201210319339b2a10bf62ec06b411fb9fba6095d54ed8fb748f8e13655d7d2a6d9e5d0113490800", "vin": [{"txinwitness": ["3045022100849db96fe923b35f40e9eafaf7bdb3b3d4194cf1084fe94dfcd6601c9752e7bc02207d15054bc42d19bd2bbda6f9b52e48aea40589649d08802d022b917e5afec6b301", "033fd527e71ad873820efa4e65406d325177b2d480c4c989bf3a7995de32f61685"], "sequence": 4294967294, "scriptSig": {"hex": "160014f4a26983f3f391b9bc1df825cb1af72390f9f3d8", "asm": "0014f4a26983f3f391b9bc1df825cb1af72390f9f3d8"}, "vout": 0, "txid": "55bb2d559b6701d7e3aecf3baf023778d8809fa8e2cd945813fd9e2d7cda5199"}, {"txinwitness": ["30450221009fde1bf27c6cc196f6bc1d885a420fe176e7b96dd7c2a4597756be85ae3ab07902200ede289ed1138e358ba1912145af23db67648c3c79eb612d4ba49ddc8d465df201", "0319339b2a10bf62ec06b411fb9fba6095d54ed8fb748f8e13655d7d2a6d9e5d01"], "sequence": 4294967294, "scriptSig": {"hex": "1600144b65d9031de54572619751a64d8def69cd630493", "asm": "00144b65d9031de54572619751a64d8def69cd630493"}, "vout": 0, "txid": "9015e88b04e72b1b33396f34e64e43e18df17e5ea217126adb688f4af23119eb"}], "txid": "0ffe5e2c549fc0f82582c0f7219d37fcdce51dd1a6bf7a7125efdd3338549175", "blocktime": 1537873282, "version": 2, "confirmations": 11485, "time": 1537873282, "locktime": 542995, "vsize": 259, "size": 422}