{"hash": "11973ef3fa69de4c62608a1abbad585e853f027e7ea9e196b17af50bccbd4cc6", "blockhash": "00000000000000000004ffacab907a6b429b9a5745fa0b75af4234bf69dd7176", "vout": [{"scriptPubKey": {"reqSigs": 1, "hex": "a91461191ded5dd883be38588f10e1b296948d8518c187", "addresses": ["3AYRZJc2SsDQpSrtRkxjrEWUhRrsDkbaxE"], "asm": "OP_HASH160 61191ded5dd883be38588f10e1b296948d8518c1 OP_EQUAL", "type": "scripthash"}, "value": 40.23165325, "n": 0}, {"scriptPubKey": {"reqSigs": 1, "hex": "76a914c7b1a887ec4b4d4816702ffed2248dfaeedbf7d588ac", "addresses": ["1KCtJ6HA7o15QDvHK1FX7qeVtXZNQ8bZFN"], "asm": "OP_DUP OP_HASH160 c7b1a887ec4b4d4816702ffed2248dfaeedbf7d5 OP_EQUALVERIFY OP_CHECKSIG", "type": "pubkeyhash"}, "value": 0.01379646, "n": 1}], "hex": "0200000000010148adc1a012569b0800d945471f06605b718e03f97af638f5dd5b11be3736d78e0000000017160014de67b12329302756f1b298bb45b166ef762f98a8feffffff028da1ccef0000000017a91461191ded5dd883be38588f10e1b296948d8518c1873e0d1500000000001976a914c7b1a887ec4b4d4816702ffed2248dfaeedbf7d588ac02483045022100836be876014fe5fa59a37b999e17865a007e0fb006a4b6c9a79420c52281ffea022077e43a5e49bb3dfe697479f9e81b09c543662a2dcef99a76b82c7ba6bb01f830012102fab3c7b3621cb02a3258ea6db8f0eecd853ac7a71c247dc4e7d0e512dcd03fd816490800", "vin": [{"txinwitness": ["3045022100836be876014fe5fa59a37b999e17865a007e0fb006a4b6c9a79420c52281ffea022077e43a5e49bb3dfe697479f9e81b09c543662a2dcef99a76b82c7ba6bb01f83001", "02fab3c7b3621cb02a3258ea6db8f0eecd853ac7a71c247dc4e7d0e512dcd03fd8"], "sequence": 4294967294, "scriptSig": {"hex": "160014de67b12329302756f1b298bb45b166ef762f98a8", "asm": "0014de67b12329302756f1b298bb45b166ef762f98a8"}, "vout": 0, "txid": "8ed73637be115bddf538f67af9038e715b60061f4745d900089b5612a0c1ad48"}], "txid": "1002d8268191807f524ea2d41bfbd1ef9b0ae5b0777705001e0142479655032c", "blocktime": 1537875543, "version": 2, "confirmations": 11464, "time": 1537875543, "locktime": 542998, "vsize": 168, "size": 250}