{"hash": "10058dbbb7597d18f2968a620965bc31b2758c164edecd4dd7824afdd7cda747", "blockhash": "0000000000000000000dcc0f55137456b1a82d3642486a52398922ac4d620174", "vout": [{"scriptPubKey": {"reqSigs": 1, "hex": "a91445f7f73dfdacc4a705f8dde28f0294e996fc928587", "addresses": ["384ybkAyjQQHva3Mzp68dZUWQCdQaTG7uj"], "asm": "OP_HASH160 45f7f73dfdacc4a705f8dde28f0294e996fc9285 OP_EQUAL", "type": "scripthash"}, "value": 0.00236162, "n": 0}, {"scriptPubKey": {"reqSigs": 1, "hex": "76a914a5260feccd71b97858484942055e17e8d46e425288ac", "addresses": ["1G4E6G7RSWK2Vtg4Apgq4CcY1Tjnsadt4T"], "asm": "OP_DUP OP_HASH160 a5260feccd71b97858484942055e17e8d46e4252 OP_EQUALVERIFY OP_CHECKSIG", "type": "pubkeyhash"}, "value": 0.01351523, "n": 1}], "hex": "010000000141fac60e40ae39121272e17e880f1e95eb6478d12b9a4d735741bf2785d96f64010000006a47304402207667976e84c0e6dfc59d92768ff67d703e3b26646f7c12b0e47af5d2826e92cc022075f8e52b93b646cf95035d1fa749d946df6ca5f5217e132412aebfeccfd37b700121039370d33dc4016b254a152e6d484a72f3dabf24d3d3ca4a393ec12dfbeacc39b2ffffffff02829a03000000000017a91445f7f73dfdacc4a705f8dde28f0294e996fc928587639f1400000000001976a914a5260feccd71b97858484942055e17e8d46e425288ac00000000", "vin": [{"sequence": 4294967295, "scriptSig": {"hex": "47304402207667976e84c0e6dfc59d92768ff67d703e3b26646f7c12b0e47af5d2826e92cc022075f8e52b93b646cf95035d1fa749d946df6ca5f5217e132412aebfeccfd37b700121039370d33dc4016b254a152e6d484a72f3dabf24d3d3ca4a393ec12dfbeacc39b2", "asm": "304402207667976e84c0e6dfc59d92768ff67d703e3b26646f7c12b0e47af5d2826e92cc022075f8e52b93b646cf95035d1fa749d946df6ca5f5217e132412aebfeccfd37b70[ALL] 039370d33dc4016b254a152e6d484a72f3dabf24d3d3ca4a393ec12dfbeacc39b2"}, "vout": 1, "txid": "646fd98527bf4157734d9a2bd17864eb951e0f887ee172121239ae400ec6fa41"}], "txid": "10058dbbb7597d18f2968a620965bc31b2758c164edecd4dd7824afdd7cda747", "blocktime": 1537870268, "version": 1, "confirmations": 11516, "time": 1537870268, "locktime": 0, "vsize": 223, "size": 223}