{"hash": "100bb8f1924ba38c7ffed33261dca5a2d50416f0eb675eb7b7c18fc22d0881b3", "blockhash": "00000000000000000017f5eb5941039fbcee6240d03bc1f2f8e35350df66a1d8", "vout": [{"scriptPubKey": {"reqSigs": 1, "hex": "a9143f5c6d68414b71003663634ee07d7ed853f08db087", "addresses": ["37U3DbVQ65GqCh4v4hY1ymVb6SrhtDiDmk"], "asm": "OP_HASH160 3f5c6d68414b71003663634ee07d7ed853f08db0 OP_EQUAL", "type": "scripthash"}, "value": 0.0025, "n": 0}, {"scriptPubKey": {"reqSigs": 1, "hex": "76a914a9569152780c710e16428b75a0a98b07d987fd4e88ac", "addresses": ["1GSNuFGyAVDDs2w9fVfDuscQZa6TgBULV7"], "asm": "OP_DUP OP_HASH160 a9569152780c710e16428b75a0a98b07d987fd4e OP_EQUALVERIFY OP_CHECKSIG", "type": "pubkeyhash"}, "value": 0.08306325, "n": 1}], "hex": "0100000001772e65e3c51db8dcddc7ba71df21becd4f3eb6b5e4f5bd0ee4280bfd9f294570010000006a4730440220691a779b6280108375b8be7439d4f362b3213d34ef87d84d54ba003da2bb75a90220703a39feec7aaef7aca2dde7f3dd949b2df7c1b66d3fc00bdb76d20263fe45a70121039af58db4e777c19a4a5978ec1df27229b90d459e4f08491bc8616492ba51da90fdffffff0290d003000000000017a9143f5c6d68414b71003663634ee07d7ed853f08db08795be7e00000000001976a914a9569152780c710e16428b75a0a98b07d987fd4e88ac15490800", "vin": [{"sequence": 4294967293, "scriptSig": {"hex": "4730440220691a779b6280108375b8be7439d4f362b3213d34ef87d84d54ba003da2bb75a90220703a39feec7aaef7aca2dde7f3dd949b2df7c1b66d3fc00bdb76d20263fe45a70121039af58db4e777c19a4a5978ec1df27229b90d459e4f08491bc8616492ba51da90", "asm": "30440220691a779b6280108375b8be7439d4f362b3213d34ef87d84d54ba003da2bb75a90220703a39feec7aaef7aca2dde7f3dd949b2df7c1b66d3fc00bdb76d20263fe45a7[ALL] 039af58db4e777c19a4a5978ec1df27229b90d459e4f08491bc8616492ba51da90"}, "vout": 1, "txid": "7045299ffd0b28e40ebdf5e4b5b63e4fcdbe21df71bac7dddcb81dc5e3652e77"}], "txid": "100bb8f1924ba38c7ffed33261dca5a2d50416f0eb675eb7b7c18fc22d0881b3", "blocktime": 1537874412, "version": 1, "confirmations": 11467, "time": 1537874412, "locktime": 542997, "vsize": 223, "size": 223}