{"hash": "100d289060819b0347ed0d2ed59da6c8cce29b347ba3d29871bc35dd3b11c094", "blockhash": "0000000000000000001f76057863aec43deb6fa401d9628bb513d65a8098bfab", "vout": [{"scriptPubKey": {"reqSigs": 1, "hex": "a9145baf0f8fa80124c4fedc92821ccd51178012601287", "addresses": ["3A3o8SJB9yNBLESyw6Qk8rK53iS9edyWjj"], "asm": "OP_HASH160 5baf0f8fa80124c4fedc92821ccd511780126012 OP_EQUAL", "type": "scripthash"}, "value": 0.00372557, "n": 0}, {"scriptPubKey": {"reqSigs": 1, "hex": "76a91483a43ba7549ae1f655eae80713d0c9bc0e802ea388ac", "addresses": ["1D14GEw3myQtS8jUYkBiYjYW6uirPWpepH"], "asm": "OP_DUP OP_HASH160 83a43ba7549ae1f655eae80713d0c9bc0e802ea3 OP_EQUALVERIFY OP_CHECKSIG", "type": "pubkeyhash"}, "value": 0.00011165, "n": 1}], "hex": "0100000001c6da00d24b67dfce1be9ab51a32f3a2fd2bab1f263e1e8851796d3e735a5e855010000006b483045022100b2e3c1cc22521e312f6124a57527772649273d2c3f81aed6dfbbd8403cf1a843022001f1c0e2888f1d41d5c5c5d196be3db2d747232d5225d7620243d9724f4454df012103dbd9954c168af10e3f5471cc52eaefc391a41692a8c6e37b1320e6ea81213abaffffffff024daf05000000000017a9145baf0f8fa80124c4fedc92821ccd511780126012879d2b0000000000001976a91483a43ba7549ae1f655eae80713d0c9bc0e802ea388ac00000000", "vin": [{"sequence": 4294967295, "scriptSig": {"hex": "483045022100b2e3c1cc22521e312f6124a57527772649273d2c3f81aed6dfbbd8403cf1a843022001f1c0e2888f1d41d5c5c5d196be3db2d747232d5225d7620243d9724f4454df012103dbd9954c168af10e3f5471cc52eaefc391a41692a8c6e37b1320e6ea81213aba", "asm": "3045022100b2e3c1cc22521e312f6124a57527772649273d2c3f81aed6dfbbd8403cf1a843022001f1c0e2888f1d41d5c5c5d196be3db2d747232d5225d7620243d9724f4454df[ALL] 03dbd9954c168af10e3f5471cc52eaefc391a41692a8c6e37b1320e6ea81213aba"}, "vout": 1, "txid": "55e8a535e7d3961785e8e163f2b1bad22f3a2fa351abe91bcedf674bd200dac6"}], "txid": "100d289060819b0347ed0d2ed59da6c8cce29b347ba3d29871bc35dd3b11c094", "blocktime": 1537873891, "version": 1, "confirmations": 11475, "time": 1537873891, "locktime": 0, "vsize": 224, "size": 224}