{"hash": "9230b3b7f5e76d98b79871f9ac8a9164b7ebebe7167fddcfd6cd48b05aef3d73", "blockhash": "0000000000000000001e0dab787dd257d1dbfcb92a98c2207d5e1078be1f4165", "vout": [{"scriptPubKey": {"reqSigs": 1, "hex": "a914866036880d00a01e63c5f9ad41db46358316c4e687", "addresses": ["3DwXjFF9cUGmSvi7Skqq1ZngTQg17vk9Gr"], "asm": "OP_HASH160 866036880d00a01e63c5f9ad41db46358316c4e6 OP_EQUAL", "type": "scripthash"}, "value": 0.015217, "n": 0}, {"scriptPubKey": {"reqSigs": 1, "hex": "a914d7a45216f29c1d3eae7c0121cb6e17688220f46d87", "addresses": ["3MME3zCqBvaHYLp5BGiJuzARt3wuC3tzv3"], "asm": "OP_HASH160 d7a45216f29c1d3eae7c0121cb6e17688220f46d OP_EQUAL", "type": "scripthash"}, "value": 0.01010891, "n": 1}], "hex": "02000000000102052c2d319f251b23884c3089fb3d5cb064838235429e8a79ad075c4605f6224d030000001716001405dfebf61d37226342efa9b42823a00c87a102fafdffffff8349f675b0f4887b785fd33adbf33bc392c8555944291278f4cf69a979b987b20d000000171600140d6b0f46ea8863fd1b9891b03ed17df14f2a8590fdffffff02243817000000000017a914866036880d00a01e63c5f9ad41db46358316c4e687cb6c0f000000000017a914d7a45216f29c1d3eae7c0121cb6e17688220f46d870247304402202bc4e0307b4a59711c6bed8c4ca795ab0fd3a943238b8050f65711a24237e49002201212f91f3a1abc562cb4cab0cf0c5c6eae443b3b9f3e3b6af0bac8ba895c913c01210251e8a168f520343c5ecdd246ab4f7617fefe56c0304c198b88e3d3ff2d87e78f024830450221009a53b6b330b2192e546e262507fb0e798033d56014c17a271ac8b5d4b99671f702207fa347b1a54e32d07fc3e31919e4c3a392511820624639ecd70a6a938e662ce00121024f2594baf72359ee202294dc37eba4aa4d65a721f41e859a8a1ec0afe38e482800000000", "vin": [{"txinwitness": ["304402202bc4e0307b4a59711c6bed8c4ca795ab0fd3a943238b8050f65711a24237e49002201212f91f3a1abc562cb4cab0cf0c5c6eae443b3b9f3e3b6af0bac8ba895c913c01", "0251e8a168f520343c5ecdd246ab4f7617fefe56c0304c198b88e3d3ff2d87e78f"], "sequence": 4294967293, "scriptSig": {"hex": "16001405dfebf61d37226342efa9b42823a00c87a102fa", "asm": "001405dfebf61d37226342efa9b42823a00c87a102fa"}, "vout": 3, "txid": "4d22f605465c07ad798a9e4235828364b05c3dfb89304c88231b259f312d2c05"}, {"txinwitness": ["30450221009a53b6b330b2192e546e262507fb0e798033d56014c17a271ac8b5d4b99671f702207fa347b1a54e32d07fc3e31919e4c3a392511820624639ecd70a6a938e662ce001", "024f2594baf72359ee202294dc37eba4aa4d65a721f41e859a8a1ec0afe38e4828"], "sequence": 4294967293, "scriptSig": {"hex": "1600140d6b0f46ea8863fd1b9891b03ed17df14f2a8590", "asm": "00140d6b0f46ea8863fd1b9891b03ed17df14f2a8590"}, "vout": 13, "txid": "b287b979a969cff4781229445955c892c33bf3db3ad35f787b88f4b075f64983"}], "txid": "100e0df33556e6e64b62ffe723cf55518bd641f308282e86a08a7572506938a1", "blocktime": 1537872475, "version": 2, "confirmations": 11487, "time": 1537872475, "locktime": 0, "vsize": 257, "size": 419}