{"hash": "101549e2236efc1b84007e36ad541fdaaaef3724801c2655d4b3d705cc0a493f", "blockhash": "0000000000000000000dcc0f55137456b1a82d3642486a52398922ac4d620174", "vout": [{"scriptPubKey": {"type": "nulldata", "hex": "6a4c500000777100019fbb6c1945afd4bd7a07a7d486aeaeacb577c031fc3a016b46dc7dc7d096d57b0044fceeaf2ace887a27c80c775a5baa090606140e7084a7707dbc9a9526289ac0f6612cd74e33776ee4", "asm": "OP_RETURN 0000777100019fbb6c1945afd4bd7a07a7d486aeaeacb577c031fc3a016b46dc7dc7d096d57b0044fceeaf2ace887a27c80c775a5baa090606140e7084a7707dbc9a9526289ac0f6612cd74e33776ee4"}, "value": 0.0, "n": 0}, {"scriptPubKey": {"reqSigs": 1, "hex": "76a9143cc12391f82e9677cfc076fb99b232ca2d24756888ac", "addresses": ["16YEv3GPhbRUTLeSAnGXby7eMxz7gcUNR5"], "asm": "OP_DUP OP_HASH160 3cc12391f82e9677cfc076fb99b232ca2d247568 OP_EQUALVERIFY OP_CHECKSIG", "type": "pubkeyhash"}, "value": 0.00131844, "n": 1}], "hex": "0100000001e820107b1318b42439c2d245d7653f4a5586fd779016679901d8889ded135548000000006b48304502210082253e38c7235a5fa4499fcc7890491860d01c4b0f65429c44eff057854f81d302200d6a8ed58990f4b12b35927cfcc986e021ecb19b715019c0d90562c4473f79c10121035384ff65c187eb672bff5352a534191da41ba19f5c32225eb250e889950aef55ffffffff020000000000000000536a4c500000777100019fbb6c1945afd4bd7a07a7d486aeaeacb577c031fc3a016b46dc7dc7d096d57b0044fceeaf2ace887a27c80c775a5baa090606140e7084a7707dbc9a9526289ac0f6612cd74e33776ee404030200000000001976a9143cc12391f82e9677cfc076fb99b232ca2d24756888ac00000000", "vin": [{"sequence": 4294967295, "scriptSig": {"hex": "48304502210082253e38c7235a5fa4499fcc7890491860d01c4b0f65429c44eff057854f81d302200d6a8ed58990f4b12b35927cfcc986e021ecb19b715019c0d90562c4473f79c10121035384ff65c187eb672bff5352a534191da41ba19f5c32225eb250e889950aef55", "asm": "304502210082253e38c7235a5fa4499fcc7890491860d01c4b0f65429c44eff057854f81d302200d6a8ed58990f4b12b35927cfcc986e021ecb19b715019c0d90562c4473f79c1[ALL] 035384ff65c187eb672bff5352a534191da41ba19f5c32225eb250e889950aef55"}, "vout": 0, "txid": "485513ed9d88d8019967169077fd86554a3f65d745d2c23924b418137b1020e8"}], "txid": "101549e2236efc1b84007e36ad541fdaaaef3724801c2655d4b3d705cc0a493f", "blocktime": 1537870268, "version": 1, "confirmations": 11518, "time": 1537870268, "locktime": 0, "vsize": 284, "size": 284}