{"hash": "10187728311fd64a3ed7bff76af273bd5f36b19db846f66f8d7eaf525e01b12f", "blockhash": "000000000000000000205f8b0775d31398ef75b89a5e8ec8d2c57b4dc0ac4c20", "vout": [{"scriptPubKey": {"reqSigs": 1, "hex": "76a914d0a70c41876240e76ab8e1a4b6f78eb1da80f22c88ac", "addresses": ["1L2FfbFd6sv5wg6BFQvTF9vVSmgR78wJrL"], "asm": "OP_DUP OP_HASH160 d0a70c41876240e76ab8e1a4b6f78eb1da80f22c OP_EQUALVERIFY OP_CHECKSIG", "type": "pubkeyhash"}, "value": 0.00184749, "n": 0}, {"scriptPubKey": {"reqSigs": 1, "hex": "a9144868c9b4fa550400a1bc38ccbbbf7d0216b2078787", "addresses": ["38Ht79X9iorqx2Z1C9WNPTqDUUW5ZshLrg"], "asm": "OP_HASH160 4868c9b4fa550400a1bc38ccbbbf7d0216b20787 OP_EQUAL", "type": "scripthash"}, "value": 0.007, "n": 1}], "hex": "01000000023f7dc5b59592a24964b2c6ebdfeaafde798bb1b387e26680bb777fb07f5fc98d000000006a47304402204b2e970abe88ec09894ba3ffb47d3e44cfb87915e4581b5ec879f27d1a9ea6b802204b068308a41e522e322ea76a6a17db645b877d6b6a6d861838d5770403ea3ff90121034ea6eb60b9f571494984ea740d13ab0263195322dd20f30a77b6b02b2b9236fcffffffffdfcc7b54ee18afde14414cec422b53996054bb1a27551fc629bced7c68e5d398000000006a473044022005be9f5f6c53e781cadd67db698324d05347a62b6807ff7e34f5aee5620b9af4022058c7c433245b5ec19594b40051378240364962530ad5cde2421a2e006d9602f2012102466680967029b04c529d480540d39e311feb8c419fe7d019a495fcd1c6ff4f03ffffffff02add10200000000001976a914d0a70c41876240e76ab8e1a4b6f78eb1da80f22c88ac60ae0a000000000017a9144868c9b4fa550400a1bc38ccbbbf7d0216b207878700000000", "vin": [{"sequence": 4294967295, "scriptSig": {"hex": "47304402204b2e970abe88ec09894ba3ffb47d3e44cfb87915e4581b5ec879f27d1a9ea6b802204b068308a41e522e322ea76a6a17db645b877d6b6a6d861838d5770403ea3ff90121034ea6eb60b9f571494984ea740d13ab0263195322dd20f30a77b6b02b2b9236fc", "asm": "304402204b2e970abe88ec09894ba3ffb47d3e44cfb87915e4581b5ec879f27d1a9ea6b802204b068308a41e522e322ea76a6a17db645b877d6b6a6d861838d5770403ea3ff9[ALL] 034ea6eb60b9f571494984ea740d13ab0263195322dd20f30a77b6b02b2b9236fc"}, "vout": 0, "txid": "8dc95f7fb07f77bb8066e287b3b18b79deafeadfebc6b26449a29295b5c57d3f"}, {"sequence": 4294967295, "scriptSig": {"hex": "473044022005be9f5f6c53e781cadd67db698324d05347a62b6807ff7e34f5aee5620b9af4022058c7c433245b5ec19594b40051378240364962530ad5cde2421a2e006d9602f2012102466680967029b04c529d480540d39e311feb8c419fe7d019a495fcd1c6ff4f03", "asm": "3044022005be9f5f6c53e781cadd67db698324d05347a62b6807ff7e34f5aee5620b9af4022058c7c433245b5ec19594b40051378240364962530ad5cde2421a2e006d9602f2[ALL] 02466680967029b04c529d480540d39e311feb8c419fe7d019a495fcd1c6ff4f03"}, "vout": 0, "txid": "98d3e5687cedbc29c61f55271abb546099532b42ec4c4114deaf18ee547bccdf"}], "txid": "10187728311fd64a3ed7bff76af273bd5f36b19db846f66f8d7eaf525e01b12f", "blocktime": 1537871175, "version": 1, "confirmations": 11511, "time": 1537871175, "locktime": 0, "vsize": 370, "size": 370}