{"hash": "4f053a02db4a550914a05100b68586247de01065230d2ec28f9555953e8a4f83", "blockhash": "0000000000000000000baef3f32e3676a92c3b2e5da21b426e4f302fc371ce76", "vout": [{"scriptPubKey": {"reqSigs": 1, "hex": "a9147911c929f30b3e567f61a266604b598d8231552287", "addresses": ["3CjAzXvjCx3euZQ3D39EyiRkJzecwmfD3p"], "asm": "OP_HASH160 7911c929f30b3e567f61a266604b598d82315522 OP_EQUAL", "type": "scripthash"}, "value": 0.00221381, "n": 0}, {"scriptPubKey": {"reqSigs": 1, "hex": "a9147dcf4917c122bcbbf681cd11d4480c275c7e8a8287", "addresses": ["3DAEhyP3s3PvnnJoxaoKTyeWXyoJbToZ41"], "asm": "OP_HASH160 7dcf4917c122bcbbf681cd11d4480c275c7e8a82 OP_EQUAL", "type": "scripthash"}, "value": 0.01073576, "n": 1}], "hex": "020000000001024966cf1b7daec0784cb4e6fc9aa176b16082a11032c8dd47147af061cf2f1a160000000000feffffff9a22005efb02cfc4bd1bab5cc2a01d35fb07df563597d9156cfc292fdf8ee361000000001716001405c3b7a15bcb864568ccf1fc404abe9bd0db0c9cfeffffff02c56003000000000017a9147911c929f30b3e567f61a266604b598d8231552287a86110000000000017a9147dcf4917c122bcbbf681cd11d4480c275c7e8a828702483045022100d268dd9ff2e0f82266bdbb3aefd0c40c77bfb5291b69e57d14fd164c9695d1090220441af68a4b27a9fa270516fc1c472f8f29ed411d87e084f67cec9fe3265ff226012102b182a8d4d23442ec5e3359d118759e7eefa86c6006c88422e3e90d9a7093c84b02483045022100817b0c755109127e219bc86adf253ab4e893a7455ca470f11b371de65b9ac4040220171b87862577f51068979d711d3a0ea8969d2a87f1c214d5b77bebcc2499ef09012102211881879c880f94d2b414ed198b25a18054e009798f9ddefbe427277053d3a417490800", "vin": [{"txinwitness": ["3045022100d268dd9ff2e0f82266bdbb3aefd0c40c77bfb5291b69e57d14fd164c9695d1090220441af68a4b27a9fa270516fc1c472f8f29ed411d87e084f67cec9fe3265ff22601", "02b182a8d4d23442ec5e3359d118759e7eefa86c6006c88422e3e90d9a7093c84b"], "sequence": 4294967294, "scriptSig": {"hex": "", "asm": ""}, "vout": 0, "txid": "161a2fcf61f07a1447ddc83210a18260b176a19afce6b44c78c0ae7d1bcf6649"}, {"txinwitness": ["3045022100817b0c755109127e219bc86adf253ab4e893a7455ca470f11b371de65b9ac4040220171b87862577f51068979d711d3a0ea8969d2a87f1c214d5b77bebcc2499ef0901", "02211881879c880f94d2b414ed198b25a18054e009798f9ddefbe427277053d3a4"], "sequence": 4294967294, "scriptSig": {"hex": "16001405c3b7a15bcb864568ccf1fc404abe9bd0db0c9c", "asm": "001405c3b7a15bcb864568ccf1fc404abe9bd0db0c9c"}, "vout": 0, "txid": "61e38edf2f29fc6c15d9973556df07fb351da0c25cab1bbdc4cf02fb5e00229a"}], "txid": "101f31d3b289be6db13362e4ef81c3da03c0a9e14be8485b56389056d5a9b451", "blocktime": 1537876114, "version": 2, "confirmations": 11459, "time": 1537876114, "locktime": 542999, "vsize": 234, "size": 397}