{"hash": "10205ff1cafa8487cb9d24d2dd5c67bfb1e2497ee9cc06a780750b92eafe7bbe", "blockhash": "00000000000000000024a2167bbff67b0be802c0b01cdd79e6331c2be6459f87", "vout": [{"scriptPubKey": {"type": "nulldata", "hex": "6a146f6d6e69000000000000001f0000000088fd1f50", "asm": "OP_RETURN 6f6d6e69000000000000001f0000000088fd1f50"}, "value": 0.0, "n": 0}, {"scriptPubKey": {"reqSigs": 1, "hex": "76a9146e79a07d28301be4f8989553688da142598da18d88ac", "addresses": ["1B592tTVuguViEG8PjUpf3nMzmGu2vLRtT"], "asm": "OP_DUP OP_HASH160 6e79a07d28301be4f8989553688da142598da18d OP_EQUALVERIFY OP_CHECKSIG", "type": "pubkeyhash"}, "value": 0.03638817, "n": 1}, {"scriptPubKey": {"reqSigs": 1, "hex": "76a914c604cf4de66573d35bcdc30f7e2b8ab212e87d2b88ac", "addresses": ["1K42ZAyVAm2QHUgKetbyUE42nbXA4Lzpeq"], "asm": "OP_DUP OP_HASH160 c604cf4de66573d35bcdc30f7e2b8ab212e87d2b OP_EQUALVERIFY OP_CHECKSIG", "type": "pubkeyhash"}, "value": 5.46e-06, "n": 2}], "hex": "010000000176aa42aadb55b28dfa5992cc281691c05f36482b66a73b4c7319b213f23177e2010000006a47304402204d65bc44ce3550705e0293621a81b7b67e66244b2edcc2acb5e2e6ed11ab56810220529ce246fc51570d7aaa8c9d7edbff162430710467c0178347750837b292e63c012102bdc6a2f9b9f4d384622c9b963894a64269da33f54a8d4fdaa89efc3367156c0efeffffff030000000000000000166a146f6d6e69000000000000001f0000000088fd1f5021863700000000001976a9146e79a07d28301be4f8989553688da142598da18d88ac22020000000000001976a914c604cf4de66573d35bcdc30f7e2b8ab212e87d2b88ac0d490800", "vin": [{"sequence": 4294967294, "scriptSig": {"hex": "47304402204d65bc44ce3550705e0293621a81b7b67e66244b2edcc2acb5e2e6ed11ab56810220529ce246fc51570d7aaa8c9d7edbff162430710467c0178347750837b292e63c012102bdc6a2f9b9f4d384622c9b963894a64269da33f54a8d4fdaa89efc3367156c0e", "asm": "304402204d65bc44ce3550705e0293621a81b7b67e66244b2edcc2acb5e2e6ed11ab56810220529ce246fc51570d7aaa8c9d7edbff162430710467c0178347750837b292e63c[ALL] 02bdc6a2f9b9f4d384622c9b963894a64269da33f54a8d4fdaa89efc3367156c0e"}, "vout": 1, "txid": "e27731f213b219734c3ba7662b48365fc0911628cc9259fa8db255dbaa42aa76"}], "txid": "10205ff1cafa8487cb9d24d2dd5c67bfb1e2497ee9cc06a780750b92eafe7bbe", "blocktime": 1537870564, "version": 1, "confirmations": 11515, "time": 1537870564, "locktime": 542989, "vsize": 256, "size": 256}