{"hash": "102575d0883bb4bbf0b487f4526b6a5a4b008c42d441dabe95c325e2d16b56f8", "blockhash": "00000000000000000017f5eb5941039fbcee6240d03bc1f2f8e35350df66a1d8", "vout": [{"scriptPubKey": {"reqSigs": 1, "hex": "76a914d07aead30f29ad0e2cee8a43e4731654b12c9f8588ac", "addresses": ["1L1LoLun1vkWFDArBJgZFnpMjWzLsThoUD"], "asm": "OP_DUP OP_HASH160 d07aead30f29ad0e2cee8a43e4731654b12c9f85 OP_EQUALVERIFY OP_CHECKSIG", "type": "pubkeyhash"}, "value": 0.15348611, "n": 0}, {"scriptPubKey": {"reqSigs": 1, "hex": "a9143c2d822142cf9a154324361b1f2fd3e7984d5e7a87", "addresses": ["37BCz2XNhuVYgknHKp8B9QUbbzRBQY3c4g"], "asm": "OP_HASH160 3c2d822142cf9a154324361b1f2fd3e7984d5e7a OP_EQUAL", "type": "scripthash"}, "value": 0.15650822, "n": 1}], "hex": "0100000001e4413cb7a41fbf8e91a73ed0effede2fa2fc30acbef2be686a4db77948b4920a000000006a47304402207892856d6594e266208d27a31c246a7b7f96985091d24e30f0255d7b5c3e993e022024dc731110791b5dbfef003261c1373bbfcdc134474ca2685589b915a139e48a012103e8544301300fe1eea911c780c39aa3b512cd37b9ad22db854ca7cf782c6d90bbffffffff028333ea00000000001976a914d07aead30f29ad0e2cee8a43e4731654b12c9f8588ac06d0ee000000000017a9143c2d822142cf9a154324361b1f2fd3e7984d5e7a8700000000", "vin": [{"sequence": 4294967295, "scriptSig": {"hex": "47304402207892856d6594e266208d27a31c246a7b7f96985091d24e30f0255d7b5c3e993e022024dc731110791b5dbfef003261c1373bbfcdc134474ca2685589b915a139e48a012103e8544301300fe1eea911c780c39aa3b512cd37b9ad22db854ca7cf782c6d90bb", "asm": "304402207892856d6594e266208d27a31c246a7b7f96985091d24e30f0255d7b5c3e993e022024dc731110791b5dbfef003261c1373bbfcdc134474ca2685589b915a139e48a[ALL] 03e8544301300fe1eea911c780c39aa3b512cd37b9ad22db854ca7cf782c6d90bb"}, "vout": 0, "txid": "0a92b44879b74d6a68bef2beac30fca22fdefeefd03ea7918ebf1fa4b73c41e4"}], "txid": "102575d0883bb4bbf0b487f4526b6a5a4b008c42d441dabe95c325e2d16b56f8", "blocktime": 1537874412, "version": 1, "confirmations": 11468, "time": 1537874412, "locktime": 0, "vsize": 223, "size": 223}