{"hash": "102f9b154521a6d6acafa01ff3609467c3aa54641c0ee25d4ef2739a291e3426", "blockhash": "0000000000000000000baef3f32e3676a92c3b2e5da21b426e4f302fc371ce76", "vout": [{"scriptPubKey": {"reqSigs": 1, "hex": "76a914e9fdb3f26f7393c989f4f473fc60821b86d1e0ea88ac", "addresses": ["1NLENHVGMQikqw1vmmRS6B5YALF4eeDLFh"], "asm": "OP_DUP OP_HASH160 e9fdb3f26f7393c989f4f473fc60821b86d1e0ea OP_EQUALVERIFY OP_CHECKSIG", "type": "pubkeyhash"}, "value": 0.12849923, "n": 0}, {"scriptPubKey": {"reqSigs": 1, "hex": "76a9147711eab6ffcc99e4376ac39f4022de413e1ea2a988ac", "addresses": ["1BrasiLb2KMbdtuhb1chAVnS2FvcNGfV9J"], "asm": "OP_DUP OP_HASH160 7711eab6ffcc99e4376ac39f4022de413e1ea2a9 OP_EQUALVERIFY OP_CHECKSIG", "type": "pubkeyhash"}, "value": 0.05041417, "n": 1}], "hex": "0200000002340af49f827f4a3918474370fe9c19803b6876ce039830837bfd4042c9d7fab3010000008b483045022100b6cc205a2a36ca681c6991d04858264187461696a9447eb37ef15334cc05616e022058acf986ecb368627177e510fb54c431ec5061ad07336f7d2658e06f745da32901410470584e87f314924f00c5ca78dd0d7147a3d125135f0a9f89eaf5615fcd1899f0cec436790e08c3947b07b36039bb36e6e1283e39459242d48249c4e5fbc6de7effffffff2df2ce661ffeca8702f60dce39808432240fe88c0aba9e3f215b7ac62e982ca2010000008a47304402201b1867245c0e7cf307a1d75e0faf88cb86136a7cfd258d26c846f81f88c2931f022006b3e285b9ae5e892343ed563f34e0240817c405a3f069de7bb03f473281207701410470584e87f314924f00c5ca78dd0d7147a3d125135f0a9f89eaf5615fcd1899f0cec436790e08c3947b07b36039bb36e6e1283e39459242d48249c4e5fbc6de7effffffff020313c400000000001976a914e9fdb3f26f7393c989f4f473fc60821b86d1e0ea88ac09ed4c00000000001976a9147711eab6ffcc99e4376ac39f4022de413e1ea2a988ac00000000", "vin": [{"sequence": 4294967295, "scriptSig": {"hex": "483045022100b6cc205a2a36ca681c6991d04858264187461696a9447eb37ef15334cc05616e022058acf986ecb368627177e510fb54c431ec5061ad07336f7d2658e06f745da32901410470584e87f314924f00c5ca78dd0d7147a3d125135f0a9f89eaf5615fcd1899f0cec436790e08c3947b07b36039bb36e6e1283e39459242d48249c4e5fbc6de7e", "asm": "3045022100b6cc205a2a36ca681c6991d04858264187461696a9447eb37ef15334cc05616e022058acf986ecb368627177e510fb54c431ec5061ad07336f7d2658e06f745da329[ALL] 0470584e87f314924f00c5ca78dd0d7147a3d125135f0a9f89eaf5615fcd1899f0cec436790e08c3947b07b36039bb36e6e1283e39459242d48249c4e5fbc6de7e"}, "vout": 1, "txid": "b3fad7c94240fd7b83309803ce76683b80199cfe70434718394a7f829ff40a34"}, {"sequence": 4294967295, "scriptSig": {"hex": "47304402201b1867245c0e7cf307a1d75e0faf88cb86136a7cfd258d26c846f81f88c2931f022006b3e285b9ae5e892343ed563f34e0240817c405a3f069de7bb03f473281207701410470584e87f314924f00c5ca78dd0d7147a3d125135f0a9f89eaf5615fcd1899f0cec436790e08c3947b07b36039bb36e6e1283e39459242d48249c4e5fbc6de7e", "asm": "304402201b1867245c0e7cf307a1d75e0faf88cb86136a7cfd258d26c846f81f88c2931f022006b3e285b9ae5e892343ed563f34e0240817c405a3f069de7bb03f4732812077[ALL] 0470584e87f314924f00c5ca78dd0d7147a3d125135f0a9f89eaf5615fcd1899f0cec436790e08c3947b07b36039bb36e6e1283e39459242d48249c4e5fbc6de7e"}, "vout": 1, "txid": "a22c982ec67a5b213f9eba0a8ce80f2432848039ce0df60287cafe1f66cef22d"}], "txid": "102f9b154521a6d6acafa01ff3609467c3aa54641c0ee25d4ef2739a291e3426", "blocktime": 1537876114, "version": 2, "confirmations": 11460, "time": 1537876114, "locktime": 0, "vsize": 437, "size": 437}