{"hash": "d5ea836d66d663f4cea794a42a19dbb13c1aa80aa401c4e04089463513ff3a96", "blockhash": "0000000000000000000e13cef7c366c0283d82e591d1acd082e914b08063cdf1", "vout": [{"scriptPubKey": {"reqSigs": 1, "hex": "76a914e64f0ff97763d04edae4d3960408fddd28f3bb8188ac", "addresses": ["1Mzm8URkWf99mRQoQ4y6MosxkWR6VE4nuP"], "asm": "OP_DUP OP_HASH160 e64f0ff97763d04edae4d3960408fddd28f3bb81 OP_EQUALVERIFY OP_CHECKSIG", "type": "pubkeyhash"}, "value": 0.051, "n": 0}], "hex": "01000000000104350af92a54c0ea6b1896edd4108d2b6b6c5ae46433c3167e0e9f8f627ce46d530000000017160014ba14e360c9b1146d823de8983da03fef9462f16efdffffffc9010302f323316166cbcbb7076a6629fc909250f750b3216cf45b34b5930eec00000000171600149e594d01ba2b5ce8e4e467e40a75550f687f0d5afdffffffe864a68657e3f21a2bb39051eefd5d9cf107cff77a2a4dad40ce07ed151971f90100000017160014c7b7c86c0e77bfc6bc7f6a8ef29e2d38316fadb5fdffffff92ad726a3690e4cf202feb9ad465b98f54abb5d7140487d462c8614f1664f17c0000000017160014a5829e2aa17d8a0d0adfdcc9b1b0d4002aecde1ffdffffff01e0d14d00000000001976a914e64f0ff97763d04edae4d3960408fddd28f3bb8188ac02483045022100f593d5d5e4d2caf2c924a77475cceac6dbf686988e55325912eb0df91f2f36d302202adad7b27f945abfce237f5477ec4d9b107461490fb86a8c107e0f7324383f3b01210394a4d4ac6cf5df80985c8b7b1ff83416cf049a714348fc0cf9af9a41b609531d0248304502210087795606dc04104a0d0dd0ea9395adb8f2128ade7244b4987a822f0b3aef32790220401940dc1596aa16bfbbd7dd9562c74f5e53fe199619c58204040790c47e6b85012102d62a6ee20263ee4bdba50fc6c48617eb3157872e1c22ad3fe9d234f128097cbc024730440220432a6dc916ba8f7957004629b56add469133d31c0ae4b00d85e9df75df7b9bc8022042930127853f2b025ab2c690186c979263796aff55cb42344dba25d675747192012102cff5a7f1ceb6680a59df802cbef77ac60ee3a9a60f5b7887bd448a4087bf2f530247304402203613d54d3398c7f5e85589685feca17a6116f9a2dab570577857e61e2a899d85022010b1c3b2b05fdf166e08a152b0712e9010a4585b55cf428493a940772a41ea200121034c1acaa9e09c82a15d7e4875cab256bd52ffaee2798e10bffde59653a93876be10490800", "vin": [{"txinwitness": ["3045022100f593d5d5e4d2caf2c924a77475cceac6dbf686988e55325912eb0df91f2f36d302202adad7b27f945abfce237f5477ec4d9b107461490fb86a8c107e0f7324383f3b01", "0394a4d4ac6cf5df80985c8b7b1ff83416cf049a714348fc0cf9af9a41b609531d"], "sequence": 4294967293, "scriptSig": {"hex": "160014ba14e360c9b1146d823de8983da03fef9462f16e", "asm": "0014ba14e360c9b1146d823de8983da03fef9462f16e"}, "vout": 0, "txid": "536de47c628f9f0e7e16c33364e45a6c6b2b8d10d4ed96186beac0542af90a35"}, {"txinwitness": ["304502210087795606dc04104a0d0dd0ea9395adb8f2128ade7244b4987a822f0b3aef32790220401940dc1596aa16bfbbd7dd9562c74f5e53fe199619c58204040790c47e6b8501", "02d62a6ee20263ee4bdba50fc6c48617eb3157872e1c22ad3fe9d234f128097cbc"], "sequence": 4294967293, "scriptSig": {"hex": "1600149e594d01ba2b5ce8e4e467e40a75550f687f0d5a", "asm": "00149e594d01ba2b5ce8e4e467e40a75550f687f0d5a"}, "vout": 0, "txid": "ec0e93b5345bf46c21b350f7509290fc29666a07b7cbcb66613123f3020301c9"}, {"txinwitness": ["30440220432a6dc916ba8f7957004629b56add469133d31c0ae4b00d85e9df75df7b9bc8022042930127853f2b025ab2c690186c979263796aff55cb42344dba25d67574719201", "02cff5a7f1ceb6680a59df802cbef77ac60ee3a9a60f5b7887bd448a4087bf2f53"], "sequence": 4294967293, "scriptSig": {"hex": "160014c7b7c86c0e77bfc6bc7f6a8ef29e2d38316fadb5", "asm": "0014c7b7c86c0e77bfc6bc7f6a8ef29e2d38316fadb5"}, "vout": 1, "txid": "f9711915ed07ce40ad4d2a7af7cf07f19c5dfdee5190b32b1af2e35786a664e8"}, {"txinwitness": ["304402203613d54d3398c7f5e85589685feca17a6116f9a2dab570577857e61e2a899d85022010b1c3b2b05fdf166e08a152b0712e9010a4585b55cf428493a940772a41ea2001", "034c1acaa9e09c82a15d7e4875cab256bd52ffaee2798e10bffde59653a93876be"], "sequence": 4294967293, "scriptSig": {"hex": "160014a5829e2aa17d8a0d0adfdcc9b1b0d4002aecde1f", "asm": "0014a5829e2aa17d8a0d0adfdcc9b1b0d4002aecde1f"}, "vout": 0, "txid": "7cf164164f61c862d4870414d7b5ab548fb965d49aeb2f20cfe490366a72ad92"}], "txid": "10343f33dffb8ab73c9f1cb793fef270133945234b30091356a4f77995893560", "blocktime": 1537871767, "version": 1, "confirmations": 11495, "time": 1537871767, "locktime": 542992, "vsize": 408, "size": 732}