{"hash": "10371cadf7ea9cd9010e118402e51c8aeea868b0edb116ebbd46779c4780fc9b", "blockhash": "0000000000000000000e13cef7c366c0283d82e591d1acd082e914b08063cdf1", "vout": [{"scriptPubKey": {"reqSigs": 1, "hex": "a914f5993ddc5b4698960bc26f1f26dbe72bd0b063f687", "addresses": ["3Q5d3xXs7roarYH4QvcXNKjk5NmiVtUwEn"], "asm": "OP_HASH160 f5993ddc5b4698960bc26f1f26dbe72bd0b063f6 OP_EQUAL", "type": "scripthash"}, "value": 0.00438, "n": 0}, {"scriptPubKey": {"reqSigs": 1, "hex": "76a914f4980987786e661c1370344844f2da0f07aab16b88ac", "addresses": ["1PJJ1YDA56FFWkQKooXUPSFq5EyR9iS3Y9"], "asm": "OP_DUP OP_HASH160 f4980987786e661c1370344844f2da0f07aab16b OP_EQUALVERIFY OP_CHECKSIG", "type": "pubkeyhash"}, "value": 0.00205626, "n": 1}], "hex": "01000000012e534d51346c0dff4886f30b5bb3ea0a4fd2115c867967f11d31b24ef31955e6010000006a473044022044f064180bfa11fabf5b9e7f2989dc2e43df7ca0c0029cf224a8cb9865669ef8022072388bfe725924247a94b055b6adf3ee8500e9b78d9e5be74cffc7592cb2201301210370948e881e868b35262e44a3e2c47445c454c4bc8ada5c22648aba4d74791283ffffffff02f0ae06000000000017a914f5993ddc5b4698960bc26f1f26dbe72bd0b063f6873a230300000000001976a914f4980987786e661c1370344844f2da0f07aab16b88ac00000000", "vin": [{"sequence": 4294967295, "scriptSig": {"hex": "473044022044f064180bfa11fabf5b9e7f2989dc2e43df7ca0c0029cf224a8cb9865669ef8022072388bfe725924247a94b055b6adf3ee8500e9b78d9e5be74cffc7592cb2201301210370948e881e868b35262e44a3e2c47445c454c4bc8ada5c22648aba4d74791283", "asm": "3044022044f064180bfa11fabf5b9e7f2989dc2e43df7ca0c0029cf224a8cb9865669ef8022072388bfe725924247a94b055b6adf3ee8500e9b78d9e5be74cffc7592cb22013[ALL] 0370948e881e868b35262e44a3e2c47445c454c4bc8ada5c22648aba4d74791283"}, "vout": 1, "txid": "e65519f34eb2311df16779865c11d24f0aeab35b0bf38648ff0d6c34514d532e"}], "txid": "10371cadf7ea9cd9010e118402e51c8aeea868b0edb116ebbd46779c4780fc9b", "blocktime": 1537871767, "version": 1, "confirmations": 11495, "time": 1537871767, "locktime": 0, "vsize": 223, "size": 223}