{"hash": "103ec1b1380cc57f370187ce0b4dccc437fa9dd3e91aceb0cb92c7c302ca9df1", "blockhash": "0000000000000000001cda96e906b7601b7a6fb1a3b62bca570a9e5d8f4b3de1", "vout": [{"scriptPubKey": {"reqSigs": 1, "hex": "a9147f9b39b72d78ca250b046667fd4e675a8054092187", "addresses": ["3DKjhADKrkYTirRrz7xTKy1qvSNkh6NiFM"], "asm": "OP_HASH160 7f9b39b72d78ca250b046667fd4e675a80540921 OP_EQUAL", "type": "scripthash"}, "value": 0.0029596, "n": 0}, {"scriptPubKey": {"reqSigs": 1, "hex": "76a914766090dced8a5b940075649bc7664f0689342d3688ac", "addresses": ["1BnvR9ijt89Nzh5yeSBUPVj39mdvY5vpHJ"], "asm": "OP_DUP OP_HASH160 766090dced8a5b940075649bc7664f0689342d36 OP_EQUALVERIFY OP_CHECKSIG", "type": "pubkeyhash"}, "value": 0.08305375, "n": 1}], "hex": "010000000178d38a9f67206d6340a35327d423f580ab62bbd87af4c5bedab5735594f485d0010000006b483045022100afcbfee93336c8e2965b20ac41688073ab2f9ce0734c9fdcf2c9b3011533da7902207324832caaa9f572b0fdadc05dd1abbebd0a50c468572e8f60176c72cbc6ad3a0121036342e3e9b2011153c0912974d887aa5a02a4bc62fe8f77256ad58a7748252a33ffffffff02188404000000000017a9147f9b39b72d78ca250b046667fd4e675a8054092187dfba7e00000000001976a914766090dced8a5b940075649bc7664f0689342d3688ac00000000", "vin": [{"sequence": 4294967295, "scriptSig": {"hex": "483045022100afcbfee93336c8e2965b20ac41688073ab2f9ce0734c9fdcf2c9b3011533da7902207324832caaa9f572b0fdadc05dd1abbebd0a50c468572e8f60176c72cbc6ad3a0121036342e3e9b2011153c0912974d887aa5a02a4bc62fe8f77256ad58a7748252a33", "asm": "3045022100afcbfee93336c8e2965b20ac41688073ab2f9ce0734c9fdcf2c9b3011533da7902207324832caaa9f572b0fdadc05dd1abbebd0a50c468572e8f60176c72cbc6ad3a[ALL] 036342e3e9b2011153c0912974d887aa5a02a4bc62fe8f77256ad58a7748252a33"}, "vout": 1, "txid": "d085f4945573b5dabec5f47ad8bb62ab80f523d42753a340636d20679f8ad378"}], "txid": "103ec1b1380cc57f370187ce0b4dccc437fa9dd3e91aceb0cb92c7c302ca9df1", "blocktime": 1537873282, "version": 1, "confirmations": 11484, "time": 1537873282, "locktime": 0, "vsize": 224, "size": 224}