{"hash": "10404f862dcf8a1e4e79e78757ce7ce78a085755c9b83d07dfb7234bee46dda7", "blockhash": "0000000000000000000baef3f32e3676a92c3b2e5da21b426e4f302fc371ce76", "vout": [{"scriptPubKey": {"reqSigs": 1, "hex": "76a9144115b14149e6ab223b8423c30cb31ebaf53e903f88ac", "addresses": ["16w8ugeNqzmJfeVGK9ywdRkCJew8SF9yP2"], "asm": "OP_DUP OP_HASH160 4115b14149e6ab223b8423c30cb31ebaf53e903f OP_EQUALVERIFY OP_CHECKSIG", "type": "pubkeyhash"}, "value": 0.0067, "n": 0}, {"scriptPubKey": {"reqSigs": 1, "hex": "76a914c006c9f4a6f047b12dfa45a7d31680a15e42407488ac", "addresses": ["1JWLsXqnBxMrU9Gps6181k3YyumAcK5Mxj"], "asm": "OP_DUP OP_HASH160 c006c9f4a6f047b12dfa45a7d31680a15e424074 OP_EQUALVERIFY OP_CHECKSIG", "type": "pubkeyhash"}, "value": 0.50594485, "n": 1}], "hex": "010000000137ae38ac3a6ee055946fc253456d264025bb4e1b08ea52073d6585f46548c4f2010000006b483045022100c3907ac0e5c64c2750d29aa70b776318e138d4d31b5a8ee70a553c395478428302202159d859d8baaee8dbda6583f45d0cc103d8d849d14d1278ad1cae159804de3d012102a0800cc3845b275c6b065b802f597c3b31b63e97a49679a2882449740234eec4ffffffff0230390a00000000001976a9144115b14149e6ab223b8423c30cb31ebaf53e903f88acb5020403000000001976a914c006c9f4a6f047b12dfa45a7d31680a15e42407488ac00000000", "vin": [{"sequence": 4294967295, "scriptSig": {"hex": "483045022100c3907ac0e5c64c2750d29aa70b776318e138d4d31b5a8ee70a553c395478428302202159d859d8baaee8dbda6583f45d0cc103d8d849d14d1278ad1cae159804de3d012102a0800cc3845b275c6b065b802f597c3b31b63e97a49679a2882449740234eec4", "asm": "3045022100c3907ac0e5c64c2750d29aa70b776318e138d4d31b5a8ee70a553c395478428302202159d859d8baaee8dbda6583f45d0cc103d8d849d14d1278ad1cae159804de3d[ALL] 02a0800cc3845b275c6b065b802f597c3b31b63e97a49679a2882449740234eec4"}, "vout": 1, "txid": "f2c44865f485653d0752ea081b4ebb2540266d4553c26f9455e06e3aac38ae37"}], "txid": "10404f862dcf8a1e4e79e78757ce7ce78a085755c9b83d07dfb7234bee46dda7", "blocktime": 1537876114, "version": 1, "confirmations": 11460, "time": 1537876114, "locktime": 0, "vsize": 226, "size": 226}