{"hash": "1043f73526694d0429aae02b3384c042aeab76ef06a9bdac0ee78518a629e474", "blockhash": "0000000000000000001e0dab787dd257d1dbfcb92a98c2207d5e1078be1f4165", "vout": [{"scriptPubKey": {"reqSigs": 1, "hex": "76a914b447da6aa2e3bf681e0ab4a40ac9eeff467d145388ac", "addresses": ["1HSEhyeLMV3FLSqk5Hr9irZMUY8XN55QAq"], "asm": "OP_DUP OP_HASH160 b447da6aa2e3bf681e0ab4a40ac9eeff467d1453 OP_EQUALVERIFY OP_CHECKSIG", "type": "pubkeyhash"}, "value": 0.0015, "n": 0}], "hex": "0100000002abb1980d7372921d49b54aca2c552736dc8920a945a4324ef819fe56eff7a168010000006b483045022100b7cdb0c8b6f383cc25274e46f2b3985cdf8e4b3993ec3168da893e6ea171afc202205dd1c1299c63445c3e1e3dcc9db75921026a8fe4386937b63ba5da10247af3400121036e7ce23089e9cb990494bc965e1f06d8a1394844f50d0d5f8886b2c724f524cbffffffffaaeb1c270df8899b0538e251a55e476aef1d7108ac194eb5034bb95fff648534000000006b4830450221008a694782c2ba673c5afb7d2035ed0ae1e884518f8ea0547f0a294284ccb75fa9022039be7a5536c9803d716c5687e01a70d4322aaf69b65a14c8e63d56e2ece8eb22012103c94f077ecfbae8f50dd5215694445c5c63c47676efc2c9e8cb3e662a7f01c6c2ffffffff01f0490200000000001976a914b447da6aa2e3bf681e0ab4a40ac9eeff467d145388ac00000000", "vin": [{"sequence": 4294967295, "scriptSig": {"hex": "483045022100b7cdb0c8b6f383cc25274e46f2b3985cdf8e4b3993ec3168da893e6ea171afc202205dd1c1299c63445c3e1e3dcc9db75921026a8fe4386937b63ba5da10247af3400121036e7ce23089e9cb990494bc965e1f06d8a1394844f50d0d5f8886b2c724f524cb", "asm": "3045022100b7cdb0c8b6f383cc25274e46f2b3985cdf8e4b3993ec3168da893e6ea171afc202205dd1c1299c63445c3e1e3dcc9db75921026a8fe4386937b63ba5da10247af340[ALL] 036e7ce23089e9cb990494bc965e1f06d8a1394844f50d0d5f8886b2c724f524cb"}, "vout": 1, "txid": "68a1f7ef56fe19f84e32a445a92089dc3627552cca4ab5491d9272730d98b1ab"}, {"sequence": 4294967295, "scriptSig": {"hex": "4830450221008a694782c2ba673c5afb7d2035ed0ae1e884518f8ea0547f0a294284ccb75fa9022039be7a5536c9803d716c5687e01a70d4322aaf69b65a14c8e63d56e2ece8eb22012103c94f077ecfbae8f50dd5215694445c5c63c47676efc2c9e8cb3e662a7f01c6c2", "asm": "30450221008a694782c2ba673c5afb7d2035ed0ae1e884518f8ea0547f0a294284ccb75fa9022039be7a5536c9803d716c5687e01a70d4322aaf69b65a14c8e63d56e2ece8eb22[ALL] 03c94f077ecfbae8f50dd5215694445c5c63c47676efc2c9e8cb3e662a7f01c6c2"}, "vout": 0, "txid": "348564ff5fb94b03b54e19ac08711def6a475ea551e238059b89f80d271cebaa"}], "txid": "1043f73526694d0429aae02b3384c042aeab76ef06a9bdac0ee78518a629e474", "blocktime": 1537872475, "version": 1, "confirmations": 11486, "time": 1537872475, "locktime": 0, "vsize": 340, "size": 340}