{"hash": "0ad3a113330c1d7d91263040da9831ce9c17b33159aa4c0e7e2d9433cc2c3d12", "blockhash": "0000000000000000001cda96e906b7601b7a6fb1a3b62bca570a9e5d8f4b3de1", "vout": [{"scriptPubKey": {"reqSigs": 1, "hex": "a91427f2ced49644037c633a5ddd3e90c41d9d04873c87", "addresses": ["35LF9cgNicZvcvJVFAs19bMV3fmf5CodW2"], "asm": "OP_HASH160 27f2ced49644037c633a5ddd3e90c41d9d04873c OP_EQUAL", "type": "scripthash"}, "value": 0.81604439, "n": 0}], "hex": "01000000000101111c823a0f20ae7a4c728bd940c98a1a6a5b00b48e226e1a3d024c62eb7b73190000000017160014c35cfac5fe7914e115df89fe6a3dd9fce6da16bdffffffff01572fdd040000000017a91427f2ced49644037c633a5ddd3e90c41d9d04873c870247304402202e6d8a7631016e52cfe0faef7bdb290de185991c91f8e04de702e611226500e80220781a97ede5ac0a19e699ac5cdd0b2fe0750483c7559976d3596868f35636982b012103d5df249f19b09bb967c8357049e67c4215305c60c1d5e42c0fd6016aa6a1f16100000000", "vin": [{"txinwitness": ["304402202e6d8a7631016e52cfe0faef7bdb290de185991c91f8e04de702e611226500e80220781a97ede5ac0a19e699ac5cdd0b2fe0750483c7559976d3596868f35636982b01", "03d5df249f19b09bb967c8357049e67c4215305c60c1d5e42c0fd6016aa6a1f161"], "sequence": 4294967295, "scriptSig": {"hex": "160014c35cfac5fe7914e115df89fe6a3dd9fce6da16bd", "asm": "0014c35cfac5fe7914e115df89fe6a3dd9fce6da16bd"}, "vout": 0, "txid": "19737beb624c023d1a6e228eb4005b6a1a8ac940d98b724c7aae200f3a821c11"}], "txid": "1043f1e5134ee15f330195913df221f8a60950306064a488e2ceae2ab1c78bd7", "blocktime": 1537873282, "version": 1, "confirmations": 11481, "time": 1537873282, "locktime": 0, "vsize": 134, "size": 215}