{"hash": "104903964868b330308585b980ae1c0fa0b85aef0b7b144f807704f029bc3320", "blockhash": "0000000000000000001cda96e906b7601b7a6fb1a3b62bca570a9e5d8f4b3de1", "vout": [{"scriptPubKey": {"reqSigs": 1, "hex": "76a914c7770c8bc9728bc4393c923a2ee969737837a5a188ac", "addresses": ["1KBg5qyMsD9KeixoHQCAJyGiMEZHBqTcCa"], "asm": "OP_DUP OP_HASH160 c7770c8bc9728bc4393c923a2ee969737837a5a1 OP_EQUALVERIFY OP_CHECKSIG", "type": "pubkeyhash"}, "value": 0.149215, "n": 0}], "hex": "0100000001e8239a8fbf060598768244a2e6fd71bf7b99dbbcd6440cc82d72d9265633fbc2000000006b48304502210083bcf91f42a7f7f18a98f28590c40b739d2a4c45570cd1c91bcc2816b2fedf2c0220764d97cd54c404afb9e0c3cd89956506cc5d8679db4a89cd7621dbce4577066d01210318e7ff3d7c31660370ec6210c2da30f8e5eb3b697376ca8113fc15c0179a0e0dffffffff011cafe300000000001976a914c7770c8bc9728bc4393c923a2ee969737837a5a188ac00000000", "vin": [{"sequence": 4294967295, "scriptSig": {"hex": "48304502210083bcf91f42a7f7f18a98f28590c40b739d2a4c45570cd1c91bcc2816b2fedf2c0220764d97cd54c404afb9e0c3cd89956506cc5d8679db4a89cd7621dbce4577066d01210318e7ff3d7c31660370ec6210c2da30f8e5eb3b697376ca8113fc15c0179a0e0d", "asm": "304502210083bcf91f42a7f7f18a98f28590c40b739d2a4c45570cd1c91bcc2816b2fedf2c0220764d97cd54c404afb9e0c3cd89956506cc5d8679db4a89cd7621dbce4577066d[ALL] 0318e7ff3d7c31660370ec6210c2da30f8e5eb3b697376ca8113fc15c0179a0e0d"}, "vout": 0, "txid": "c2fb335626d9722dc80c44d6bcdb997bbf71fde6a2448276980506bf8f9a23e8"}], "txid": "104903964868b330308585b980ae1c0fa0b85aef0b7b144f807704f029bc3320", "blocktime": 1537873282, "version": 1, "confirmations": 11481, "time": 1537873282, "locktime": 0, "vsize": 192, "size": 192}