{"hash": "c440cfe228f6bac79998faa33a79059fafe94176730cd36a0e1edf3a620e396e", "blockhash": "00000000000000000017f5eb5941039fbcee6240d03bc1f2f8e35350df66a1d8", "vout": [{"scriptPubKey": {"reqSigs": 1, "hex": "00148d4f5c6415d0c12144180e3330947ec489600bfb", "addresses": ["bc1q3484ceq46rqjz3qcpcenp9r7cjykqzlm370mep"], "asm": "0 8d4f5c6415d0c12144180e3330947ec489600bfb", "type": "witness_v0_keyhash"}, "value": 0.11487874, "n": 0}, {"scriptPubKey": {"reqSigs": 1, "hex": "76a9144b0e85b703280c3b06df7017880fada2cf99029488ac", "addresses": ["17qs5R8X7oN8Hxu2Npi7opNthLJM5sP5Fp"], "asm": "OP_DUP OP_HASH160 4b0e85b703280c3b06df7017880fada2cf990294 OP_EQUALVERIFY OP_CHECKSIG", "type": "pubkeyhash"}, "value": 0.1, "n": 1}], "hex": "010000000001018cad43f6d6cee5f251afb5141fea5abc80ee732c88853151e46892a74faa37fb2200000017160014dd97c24c261d7bfa7a191f5f1ef3d49e67522f10ffffffff02824aaf00000000001600148d4f5c6415d0c12144180e3330947ec489600bfb80969800000000001976a9144b0e85b703280c3b06df7017880fada2cf99029488ac0247304402200a0b1dbc3b68cdc85846e276fdbd9cf9846605a0fce30bb6d6cd80e7d79af1af022025556dc8860cad98cfbe905035b76703ff2f0c57955fd2c92195ac7071c80acb012103ae5d6928f85c552bbe8ad77de832a5511c616ad4c6eeac28637d7159d846f2d800000000", "vin": [{"txinwitness": ["304402200a0b1dbc3b68cdc85846e276fdbd9cf9846605a0fce30bb6d6cd80e7d79af1af022025556dc8860cad98cfbe905035b76703ff2f0c57955fd2c92195ac7071c80acb01", "03ae5d6928f85c552bbe8ad77de832a5511c616ad4c6eeac28637d7159d846f2d8"], "sequence": 4294967295, "scriptSig": {"hex": "160014dd97c24c261d7bfa7a191f5f1ef3d49e67522f10", "asm": "0014dd97c24c261d7bfa7a191f5f1ef3d49e67522f10"}, "vout": 34, "txid": "fb37aa4fa79268e4513185882c73ee80bc5aea1f14b5af51f2e5ced6f643ad8c"}], "txid": "104abf9d6eedf9b968cc974c88b50fb7439e9b0813432d6c1fe31ceaad40ae5a", "blocktime": 1537874412, "version": 1, "confirmations": 11468, "time": 1537874412, "locktime": 0, "vsize": 167, "size": 248}