{"hash": "104ef65f46128c9d4b734f71b2363414d50fc808feb03d9d17131b59693a6c7e", "blockhash": "00000000000000000018f53835495a110e01622372bf6ae95dc86f2b0ab887b0", "vout": [{"scriptPubKey": {"reqSigs": 1, "hex": "a914a1aa7dcdf2ae3e0c21cfb2487e5d45564bd61e1687", "addresses": ["3GRpxP1QducZprWvyUCGks57TZUzEnm1p4"], "asm": "OP_HASH160 a1aa7dcdf2ae3e0c21cfb2487e5d45564bd61e16 OP_EQUAL", "type": "scripthash"}, "value": 0.072072, "n": 0}], "hex": "0100000001a7b43607f6526fa443a5f604dcb2fd0a2afe400145397b71f017a5592c337a71010000006a47304402203d592702aa33a255863296673d79bfb1c1b630a307e99e34fcd35ac7d69585a102207bbea17792271bedf24ecf0cc0d911f01b28308a965f60c9a8dec683d9d0a9ae012102fd9065b3d39287faf337d744b5f4398e1e45b783b53d340c7f15476b76f1e910ffffffff0120f96d000000000017a914a1aa7dcdf2ae3e0c21cfb2487e5d45564bd61e168700000000", "vin": [{"sequence": 4294967295, "scriptSig": {"hex": "47304402203d592702aa33a255863296673d79bfb1c1b630a307e99e34fcd35ac7d69585a102207bbea17792271bedf24ecf0cc0d911f01b28308a965f60c9a8dec683d9d0a9ae012102fd9065b3d39287faf337d744b5f4398e1e45b783b53d340c7f15476b76f1e910", "asm": "304402203d592702aa33a255863296673d79bfb1c1b630a307e99e34fcd35ac7d69585a102207bbea17792271bedf24ecf0cc0d911f01b28308a965f60c9a8dec683d9d0a9ae[ALL] 02fd9065b3d39287faf337d744b5f4398e1e45b783b53d340c7f15476b76f1e910"}, "vout": 1, "txid": "717a332c59a517f0717b39450140fe2a0afdb2dc04f6a543a46f52f60736b4a7"}], "txid": "104ef65f46128c9d4b734f71b2363414d50fc808feb03d9d17131b59693a6c7e", "blocktime": 1537870928, "version": 1, "confirmations": 11512, "time": 1537870928, "locktime": 0, "vsize": 189, "size": 189}