{"hash": "105194ab5201f38c1efc862fbc4199c49744cedd5d2009689b2f1a50874327c0", "blockhash": "0000000000000000001f0ddff1eddb255c1121bcd4da4f1bc9a0da00cae72433", "vout": [{"scriptPubKey": {"reqSigs": 1, "hex": "76a9142913c1fe6ffc30e96fc11b5e968acd1a2cdc89a088ac", "addresses": ["14kCNfJ9ZsMiwnSFbWEDworRjh8ZJdDK81"], "asm": "OP_DUP OP_HASH160 2913c1fe6ffc30e96fc11b5e968acd1a2cdc89a0 OP_EQUALVERIFY OP_CHECKSIG", "type": "pubkeyhash"}, "value": 0.001557, "n": 0}, {"scriptPubKey": {"reqSigs": 1, "hex": "76a9147705ec88c3fcfd2ad6f46f5bd310fe60d5bf8df788ac", "addresses": ["1BrLWS3wFZEjFZLBygzSWUNLLK4UH4VXY8"], "asm": "OP_DUP OP_HASH160 7705ec88c3fcfd2ad6f46f5bd310fe60d5bf8df7 OP_EQUALVERIFY OP_CHECKSIG", "type": "pubkeyhash"}, "value": 0.02805446, "n": 1}], "hex": "01000000018fa0efb07009a4dd662fe2896bb34dac4ab5ecb489044e00627e4decd5050657010000006b483045022100db7153d55c3f6760bfb18d712fb39042cb6f9cfc6be411e47cb21915cdaf2c2f0220550592c3fedd22d0e1fea4b221af2a7ab533dcab2001aa92f70d19e46ecd09410121024406e2637008ea390303d88cdb7f0f5229499d90f731893c63c846b33fdbf10effffffff0234600200000000001976a9142913c1fe6ffc30e96fc11b5e968acd1a2cdc89a088acc6ce2a00000000001976a9147705ec88c3fcfd2ad6f46f5bd310fe60d5bf8df788ac00000000", "vin": [{"sequence": 4294967295, "scriptSig": {"hex": "483045022100db7153d55c3f6760bfb18d712fb39042cb6f9cfc6be411e47cb21915cdaf2c2f0220550592c3fedd22d0e1fea4b221af2a7ab533dcab2001aa92f70d19e46ecd09410121024406e2637008ea390303d88cdb7f0f5229499d90f731893c63c846b33fdbf10e", "asm": "3045022100db7153d55c3f6760bfb18d712fb39042cb6f9cfc6be411e47cb21915cdaf2c2f0220550592c3fedd22d0e1fea4b221af2a7ab533dcab2001aa92f70d19e46ecd0941[ALL] 024406e2637008ea390303d88cdb7f0f5229499d90f731893c63c846b33fdbf10e"}, "vout": 1, "txid": "570605d5ec4d7e62004e0489b4ecb54aac4db36b89e22f66dda40970b0efa08f"}], "txid": "105194ab5201f38c1efc862fbc4199c49744cedd5d2009689b2f1a50874327c0", "blocktime": 1537872018, "version": 1, "confirmations": 11489, "time": 1537872018, "locktime": 0, "vsize": 226, "size": 226}