{"hash": "105b917331d491ec3a8ff46cfb2a3046800372c4562524a92475ba4b738e57dd", "blockhash": "00000000000000000018f53835495a110e01622372bf6ae95dc86f2b0ab887b0", "vout": [{"scriptPubKey": {"reqSigs": 1, "hex": "76a91465a9422e4b4a005b7bf1e6ebf3e9f80bcb179a5288ac", "addresses": ["1AGY1fT7uQ73hCSYLrKLy4bT2cPRA3pPjZ"], "asm": "OP_DUP OP_HASH160 65a9422e4b4a005b7bf1e6ebf3e9f80bcb179a52 OP_EQUALVERIFY OP_CHECKSIG", "type": "pubkeyhash"}, "value": 0.00027865, "n": 0}, {"scriptPubKey": {"reqSigs": 1, "hex": "a914710b49fa9b3d5432d96fc398c0a0c6b95a86e37f87", "addresses": ["3BzjobL3ubzKN9xysssKjnV1Wr3gfvEf6p"], "asm": "OP_HASH160 710b49fa9b3d5432d96fc398c0a0c6b95a86e37f OP_EQUAL", "type": "scripthash"}, "value": 0.004, "n": 1}], "hex": "01000000096deb91790975572fdcbbaffbb53b91d4a1bd280ee7aa8462774aac444e882162000000008a47304402203ad4f2317c5fd57148be5e6fe0958b4fd2d2310c78a1c0832e426bccbcde7b2d0220294588ac685a02358ce33bf991327e8b458eaa2d551754f35d7946847311260c0141040e5af0875c288a676195b19bc55c030081bd5af1ed0fe056cf303cf888312161177922565dce6b0d2360e6256003f54b7164dd7302e132aab68becbcd806aed5ffffffff2121edd491e5a64d7399744f92b57f768a63fa968353f46fb1d0271bb1852362010000008a47304402203fa3dd53df7e1c0069f9dc6ae3612b618e8641a9329c03cd97b205dfe08b714802206b67211e3c4c13b8c58bfb96472ab6a0cb8cecf375f50fd195aeb7a5ea7606910141040e5af0875c288a676195b19bc55c030081bd5af1ed0fe056cf303cf888312161177922565dce6b0d2360e6256003f54b7164dd7302e132aab68becbcd806aed5ffffffffc04b8a47a0a1b74a7ed6ff38c84d6b5c6ac2b7b1e6c334f04d84aec23a4eb56c000000008a47304402207a161a1f83f3ac1d676c800a50f10526a7de28ec30c890cd4f79d77e1401fb3f02204b47ac0856874a8b818e1cd73e6b5c928ab74628038dbf7ffca171a4f0229e200141040e5af0875c288a676195b19bc55c030081bd5af1ed0fe056cf303cf888312161177922565dce6b0d2360e6256003f54b7164dd7302e132aab68becbcd806aed5ffffffff8b13a07bf57b117d6ad255494564720f6872b0020717f999547d0c32e1b09279050000008a47304402201a6506e1ce8e886c6f5f9deb38f254d7f4a118f75e7e2c3e58aa1757301033950220361e61cb1398444a6081dccff0087a52a9fee164cca6e386e27a0439a169638a0141040e5af0875c288a676195b19bc55c030081bd5af1ed0fe056cf303cf888312161177922565dce6b0d2360e6256003f54b7164dd7302e132aab68becbcd806aed5ffffffff8292f60849140fc72872a5877db7f43e98469593ba00f05ac18e22ad92c802b8000000008a47304402206d0ca771a0d9a0dbc9f90ae23edd37bc218181eb557c8bbdaa8513f6ffcdb4d602206a3f7e537c8c31c38c427b7564f4b3fe74016305d93c9c289d0e80b1c2e6a3160141040e5af0875c288a676195b19bc55c030081bd5af1ed0fe056cf303cf888312161177922565dce6b0d2360e6256003f54b7164dd7302e132aab68becbcd806aed5ffffffff838b25ffad8e36ec31b233949470b7a5605e6d23e4e9b9405d6e57b64cc74eb9020000008b483045022100b313c73fdedb1f18eb83a71238fc381128df0bd8cb538b49d66bc4ed17b8b59e02203c6ebba88d95b8261a3e34ba0196ab47c194eb40aa4114d23ae08f8f63c35b910141040e5af0875c288a676195b19bc55c030081bd5af1ed0fe056cf303cf888312161177922565dce6b0d2360e6256003f54b7164dd7302e132aab68becbcd806aed5ffffffff0115a393c468c20fcc1a009072515c3159bb6d5a789fb3ed63d91360531f06c9000000008b483045022100dee5c27143cdf63e76aad17037992d01cb1eba0804576b7adf121e5b5b228d64022053fb3d05b5814945817aaa96ebb9e66b6414989c65647e2496d8f295c5aefb6c0141040e5af0875c288a676195b19bc55c030081bd5af1ed0fe056cf303cf888312161177922565dce6b0d2360e6256003f54b7164dd7302e132aab68becbcd806aed5ffffffff79277830f68146db6880b8f442da9153f94d55b0762ade5f9fe732e3ce6c31cf000000008b483045022100e17f79a28cb21fdcd5adf560105fd4da3ac884c209a06e57c5bb6c239d5d67a9022050f9357ea2fc8e51b4a833092091abf70044afd92561d461ab802c78b73010ad0141040e5af0875c288a676195b19bc55c030081bd5af1ed0fe056cf303cf888312161177922565dce6b0d2360e6256003f54b7164dd7302e132aab68becbcd806aed5ffffffffce930a23e986cb0e8a34abac0f84ffec091f4f9794a5c1f39fb329cfc78c29e3000000008b483045022100c870314fc9ae3c523daeca45ec6a233ca74d3d66beb48ceee43f1d7702559a28022056ef7af6240dc51f5bb1005b0cd05df3fc4b8e8c0d232b55de6ea378066dfc6f0141040e5af0875c288a676195b19bc55c030081bd5af1ed0fe056cf303cf888312161177922565dce6b0d2360e6256003f54b7164dd7302e132aab68becbcd806aed5ffffffff02d96c0000000000001976a91465a9422e4b4a005b7bf1e6ebf3e9f80bcb179a5288ac801a06000000000017a914710b49fa9b3d5432d96fc398c0a0c6b95a86e37f8700000000", "vin": [{"sequence": 4294967295, "scriptSig": {"hex": "47304402203ad4f2317c5fd57148be5e6fe0958b4fd2d2310c78a1c0832e426bccbcde7b2d0220294588ac685a02358ce33bf991327e8b458eaa2d551754f35d7946847311260c0141040e5af0875c288a676195b19bc55c030081bd5af1ed0fe056cf303cf888312161177922565dce6b0d2360e6256003f54b7164dd7302e132aab68becbcd806aed5", "asm": "304402203ad4f2317c5fd57148be5e6fe0958b4fd2d2310c78a1c0832e426bccbcde7b2d0220294588ac685a02358ce33bf991327e8b458eaa2d551754f35d7946847311260c[ALL] 040e5af0875c288a676195b19bc55c030081bd5af1ed0fe056cf303cf888312161177922565dce6b0d2360e6256003f54b7164dd7302e132aab68becbcd806aed5"}, "vout": 0, "txid": "6221884e44ac4a776284aae70e28bda1d4913bb5fbafbbdc2f5775097991eb6d"}, {"sequence": 4294967295, "scriptSig": {"hex": "47304402203fa3dd53df7e1c0069f9dc6ae3612b618e8641a9329c03cd97b205dfe08b714802206b67211e3c4c13b8c58bfb96472ab6a0cb8cecf375f50fd195aeb7a5ea7606910141040e5af0875c288a676195b19bc55c030081bd5af1ed0fe056cf303cf888312161177922565dce6b0d2360e6256003f54b7164dd7302e132aab68becbcd806aed5", "asm": "304402203fa3dd53df7e1c0069f9dc6ae3612b618e8641a9329c03cd97b205dfe08b714802206b67211e3c4c13b8c58bfb96472ab6a0cb8cecf375f50fd195aeb7a5ea760691[ALL] 040e5af0875c288a676195b19bc55c030081bd5af1ed0fe056cf303cf888312161177922565dce6b0d2360e6256003f54b7164dd7302e132aab68becbcd806aed5"}, "vout": 1, "txid": "622385b11b27d0b16ff4538396fa638a767fb5924f7499734da6e591d4ed2121"}, {"sequence": 4294967295, "scriptSig": {"hex": "47304402207a161a1f83f3ac1d676c800a50f10526a7de28ec30c890cd4f79d77e1401fb3f02204b47ac0856874a8b818e1cd73e6b5c928ab74628038dbf7ffca171a4f0229e200141040e5af0875c288a676195b19bc55c030081bd5af1ed0fe056cf303cf888312161177922565dce6b0d2360e6256003f54b7164dd7302e132aab68becbcd806aed5", "asm": "304402207a161a1f83f3ac1d676c800a50f10526a7de28ec30c890cd4f79d77e1401fb3f02204b47ac0856874a8b818e1cd73e6b5c928ab74628038dbf7ffca171a4f0229e20[ALL] 040e5af0875c288a676195b19bc55c030081bd5af1ed0fe056cf303cf888312161177922565dce6b0d2360e6256003f54b7164dd7302e132aab68becbcd806aed5"}, "vout": 0, "txid": "6cb54e3ac2ae844df034c3e6b1b7c26a5c6b4dc838ffd67e4ab7a1a0478a4bc0"}, {"sequence": 4294967295, "scriptSig": {"hex": "47304402201a6506e1ce8e886c6f5f9deb38f254d7f4a118f75e7e2c3e58aa1757301033950220361e61cb1398444a6081dccff0087a52a9fee164cca6e386e27a0439a169638a0141040e5af0875c288a676195b19bc55c030081bd5af1ed0fe056cf303cf888312161177922565dce6b0d2360e6256003f54b7164dd7302e132aab68becbcd806aed5", "asm": "304402201a6506e1ce8e886c6f5f9deb38f254d7f4a118f75e7e2c3e58aa1757301033950220361e61cb1398444a6081dccff0087a52a9fee164cca6e386e27a0439a169638a[ALL] 040e5af0875c288a676195b19bc55c030081bd5af1ed0fe056cf303cf888312161177922565dce6b0d2360e6256003f54b7164dd7302e132aab68becbcd806aed5"}, "vout": 5, "txid": "7992b0e1320c7d5499f9170702b072680f7264454955d26a7d117bf57ba0138b"}, {"sequence": 4294967295, "scriptSig": {"hex": "47304402206d0ca771a0d9a0dbc9f90ae23edd37bc218181eb557c8bbdaa8513f6ffcdb4d602206a3f7e537c8c31c38c427b7564f4b3fe74016305d93c9c289d0e80b1c2e6a3160141040e5af0875c288a676195b19bc55c030081bd5af1ed0fe056cf303cf888312161177922565dce6b0d2360e6256003f54b7164dd7302e132aab68becbcd806aed5", "asm": "304402206d0ca771a0d9a0dbc9f90ae23edd37bc218181eb557c8bbdaa8513f6ffcdb4d602206a3f7e537c8c31c38c427b7564f4b3fe74016305d93c9c289d0e80b1c2e6a316[ALL] 040e5af0875c288a676195b19bc55c030081bd5af1ed0fe056cf303cf888312161177922565dce6b0d2360e6256003f54b7164dd7302e132aab68becbcd806aed5"}, "vout": 0, "txid": "b802c892ad228ec15af000ba939546983ef4b77d87a57228c70f144908f69282"}, {"sequence": 4294967295, "scriptSig": {"hex": "483045022100b313c73fdedb1f18eb83a71238fc381128df0bd8cb538b49d66bc4ed17b8b59e02203c6ebba88d95b8261a3e34ba0196ab47c194eb40aa4114d23ae08f8f63c35b910141040e5af0875c288a676195b19bc55c030081bd5af1ed0fe056cf303cf888312161177922565dce6b0d2360e6256003f54b7164dd7302e132aab68becbcd806aed5", "asm": "3045022100b313c73fdedb1f18eb83a71238fc381128df0bd8cb538b49d66bc4ed17b8b59e02203c6ebba88d95b8261a3e34ba0196ab47c194eb40aa4114d23ae08f8f63c35b91[ALL] 040e5af0875c288a676195b19bc55c030081bd5af1ed0fe056cf303cf888312161177922565dce6b0d2360e6256003f54b7164dd7302e132aab68becbcd806aed5"}, "vout": 2, "txid": "b94ec74cb6576e5d40b9e9e4236d5e60a5b770949433b231ec368eadff258b83"}, {"sequence": 4294967295, "scriptSig": {"hex": "483045022100dee5c27143cdf63e76aad17037992d01cb1eba0804576b7adf121e5b5b228d64022053fb3d05b5814945817aaa96ebb9e66b6414989c65647e2496d8f295c5aefb6c0141040e5af0875c288a676195b19bc55c030081bd5af1ed0fe056cf303cf888312161177922565dce6b0d2360e6256003f54b7164dd7302e132aab68becbcd806aed5", "asm": "3045022100dee5c27143cdf63e76aad17037992d01cb1eba0804576b7adf121e5b5b228d64022053fb3d05b5814945817aaa96ebb9e66b6414989c65647e2496d8f295c5aefb6c[ALL] 040e5af0875c288a676195b19bc55c030081bd5af1ed0fe056cf303cf888312161177922565dce6b0d2360e6256003f54b7164dd7302e132aab68becbcd806aed5"}, "vout": 0, "txid": "c9061f536013d963edb39f785a6dbb59315c517290001acc0fc268c493a31501"}, {"sequence": 4294967295, "scriptSig": {"hex": "483045022100e17f79a28cb21fdcd5adf560105fd4da3ac884c209a06e57c5bb6c239d5d67a9022050f9357ea2fc8e51b4a833092091abf70044afd92561d461ab802c78b73010ad0141040e5af0875c288a676195b19bc55c030081bd5af1ed0fe056cf303cf888312161177922565dce6b0d2360e6256003f54b7164dd7302e132aab68becbcd806aed5", "asm": "3045022100e17f79a28cb21fdcd5adf560105fd4da3ac884c209a06e57c5bb6c239d5d67a9022050f9357ea2fc8e51b4a833092091abf70044afd92561d461ab802c78b73010ad[ALL] 040e5af0875c288a676195b19bc55c030081bd5af1ed0fe056cf303cf888312161177922565dce6b0d2360e6256003f54b7164dd7302e132aab68becbcd806aed5"}, "vout": 0, "txid": "cf316ccee332e79f5fde2a76b0554df95391da42f4b88068db4681f630782779"}, {"sequence": 4294967295, "scriptSig": {"hex": "483045022100c870314fc9ae3c523daeca45ec6a233ca74d3d66beb48ceee43f1d7702559a28022056ef7af6240dc51f5bb1005b0cd05df3fc4b8e8c0d232b55de6ea378066dfc6f0141040e5af0875c288a676195b19bc55c030081bd5af1ed0fe056cf303cf888312161177922565dce6b0d2360e6256003f54b7164dd7302e132aab68becbcd806aed5", "asm": "3045022100c870314fc9ae3c523daeca45ec6a233ca74d3d66beb48ceee43f1d7702559a28022056ef7af6240dc51f5bb1005b0cd05df3fc4b8e8c0d232b55de6ea378066dfc6f[ALL] 040e5af0875c288a676195b19bc55c030081bd5af1ed0fe056cf303cf888312161177922565dce6b0d2360e6256003f54b7164dd7302e132aab68becbcd806aed5"}, "vout": 0, "txid": "e3298cc7cf29b39ff3c1a594974f1f09ecff840facab348a0ecb86e9230a93ce"}], "txid": "105b917331d491ec3a8ff46cfb2a3046800372c4562524a92475ba4b738e57dd", "blocktime": 1537870928, "version": 1, "confirmations": 11514, "time": 1537870928, "locktime": 0, "vsize": 1691, "size": 1691}