{"hash": "3d2c219cf473b4d94020c98d22a0ff684ee478918745cf17327390f6be8b53c5", "blockhash": "0000000000000000000e13cef7c366c0283d82e591d1acd082e914b08063cdf1", "vout": [{"scriptPubKey": {"reqSigs": 1, "hex": "76a914ce81405b01ba9d36b5a62cf620bed7da093cf73588ac", "addresses": ["1Kpu34YAo57AnC9QwGePs5ip56rRA6yXXQ"], "asm": "OP_DUP OP_HASH160 ce81405b01ba9d36b5a62cf620bed7da093cf735 OP_EQUALVERIFY OP_CHECKSIG", "type": "pubkeyhash"}, "value": 0.0032296, "n": 0}, {"scriptPubKey": {"reqSigs": 1, "hex": "a914bf2c16745a06ff79a0ce0ee10e06c9ce811e7b6187", "addresses": ["3K7qoT8d1UVuDYr8kZdJgPghWuizvV3PwG"], "asm": "OP_HASH160 bf2c16745a06ff79a0ce0ee10e06c9ce811e7b61 OP_EQUAL", "type": "scripthash"}, "value": 0.01003675, "n": 1}], "hex": "02000000000102372a49aaf8d81a6a2bc18503a4f7a2ca6ede743a98a77d086e91f1635ccf3f150200000017160014aad9a612177d56ad8f8d6bba64fd058fd5e1f3f1feffffff67af1ece542ea8168f56c56d74bff067db32e7c2fe72ccb96baa8977d3df487400000000171600147fdc92266c40b46c1373b62a90018b700863a855feffffff0290ed0400000000001976a914ce81405b01ba9d36b5a62cf620bed7da093cf73588ac9b500f000000000017a914bf2c16745a06ff79a0ce0ee10e06c9ce811e7b6187024730440220471a6115960fe0696bb4d8b9f993ff065fcfb312bbd1d4a08e20d151aec18b14022031f4f390ab01a24e9677f9bf88513fcc3170d7aee38d912ae6b203b0f5f154610121030b8ebfed8e865e90accee96ea696fe552d47fa58126763660b51739b0f510c610248304502210091e070f52c5ad8c048e5a0aa9a58ac0312b254c19a28f5e003afeb01303f05a50220665cb750bd2f631017abdafd3523fd499aee804729dc3e0cd1096c5258fb44d5012102a9ab0df5a131a82300ba5511b102808e915a728f26562978667f9d4119c6da7410490800", "vin": [{"txinwitness": ["30440220471a6115960fe0696bb4d8b9f993ff065fcfb312bbd1d4a08e20d151aec18b14022031f4f390ab01a24e9677f9bf88513fcc3170d7aee38d912ae6b203b0f5f1546101", "030b8ebfed8e865e90accee96ea696fe552d47fa58126763660b51739b0f510c61"], "sequence": 4294967294, "scriptSig": {"hex": "160014aad9a612177d56ad8f8d6bba64fd058fd5e1f3f1", "asm": "0014aad9a612177d56ad8f8d6bba64fd058fd5e1f3f1"}, "vout": 2, "txid": "153fcf5c63f1916e087da7983a74de6ecaa2f7a40385c12b6a1ad8f8aa492a37"}, {"txinwitness": ["304502210091e070f52c5ad8c048e5a0aa9a58ac0312b254c19a28f5e003afeb01303f05a50220665cb750bd2f631017abdafd3523fd499aee804729dc3e0cd1096c5258fb44d501", "02a9ab0df5a131a82300ba5511b102808e915a728f26562978667f9d4119c6da74"], "sequence": 4294967294, "scriptSig": {"hex": "1600147fdc92266c40b46c1373b62a90018b700863a855", "asm": "00147fdc92266c40b46c1373b62a90018b700863a855"}, "vout": 0, "txid": "7448dfd37789aa6bb9cc72fec2e732db67f0bf746dc5568f16a82e54ce1eaf67"}], "txid": "105b0b03d7b22c317477a63fb3c48d6734cf5123040dcf5fd5003117f973572d", "blocktime": 1537871767, "version": 2, "confirmations": 11495, "time": 1537871767, "locktime": 542992, "vsize": 259, "size": 421}