{"hash": "105cee8fc9cd546243a15e6fe91fcbd14d470627b6b8bc4f4cc97499422a6ece", "blockhash": "000000000000000000205f8b0775d31398ef75b89a5e8ec8d2c57b4dc0ac4c20", "vout": [{"scriptPubKey": {"reqSigs": 1, "hex": "76a914a369ce0baa0c3eecf888ab556b6036e67b04837e88ac", "addresses": ["1Fu3tiihShP8NTjN5FiyXwA6LHy6csWzxR"], "asm": "OP_DUP OP_HASH160 a369ce0baa0c3eecf888ab556b6036e67b04837e OP_EQUALVERIFY OP_CHECKSIG", "type": "pubkeyhash"}, "value": 0.02616097, "n": 0}, {"scriptPubKey": {"reqSigs": 1, "hex": "76a91417d528a08430579b18c7a903ce3dedbf8df62cbe88ac", "addresses": ["13B1twR1cDrceQvjNr17TT7zUKPQyMvKsB"], "asm": "OP_DUP OP_HASH160 17d528a08430579b18c7a903ce3dedbf8df62cbe OP_EQUALVERIFY OP_CHECKSIG", "type": "pubkeyhash"}, "value": 0.05140123, "n": 1}], "hex": "02000000016d09e0cc6068a8665380dd070ea64367a398d593c6297e95c6827229055d6b7d010000006a47304402202d1dcf8610c442633e698ae02accc3a05a7e4e46c5f2f24116a8421de0793d8f02204c071e807053eef2665781cacb8946fed47b5bfc3711d48cc990f9417dd0509901210253105cacb74c96df44ab8c280e9fc5393328c7dc4a2032090f48ba4ec50aebd1feffffff0221eb2700000000001976a914a369ce0baa0c3eecf888ab556b6036e67b04837e88ac9b6e4e00000000001976a91417d528a08430579b18c7a903ce3dedbf8df62cbe88ac0f490800", "vin": [{"sequence": 4294967294, "scriptSig": {"hex": "47304402202d1dcf8610c442633e698ae02accc3a05a7e4e46c5f2f24116a8421de0793d8f02204c071e807053eef2665781cacb8946fed47b5bfc3711d48cc990f9417dd0509901210253105cacb74c96df44ab8c280e9fc5393328c7dc4a2032090f48ba4ec50aebd1", "asm": "304402202d1dcf8610c442633e698ae02accc3a05a7e4e46c5f2f24116a8421de0793d8f02204c071e807053eef2665781cacb8946fed47b5bfc3711d48cc990f9417dd05099[ALL] 0253105cacb74c96df44ab8c280e9fc5393328c7dc4a2032090f48ba4ec50aebd1"}, "vout": 1, "txid": "7d6b5d05297282c6957e29c693d598a36743a60e07dd805366a86860cce0096d"}], "txid": "105cee8fc9cd546243a15e6fe91fcbd14d470627b6b8bc4f4cc97499422a6ece", "blocktime": 1537871175, "version": 2, "confirmations": 11511, "time": 1537871175, "locktime": 542991, "vsize": 225, "size": 225}