{"hash": "1065c673b37cfd27e2b12f2249d454c05e405f37cffd78515116ffe4adeabf7a", "blockhash": "0000000000000000001f76057863aec43deb6fa401d9628bb513d65a8098bfab", "vout": [{"scriptPubKey": {"reqSigs": 1, "hex": "76a9140274620b79092c06551ff67843613403b60b0db188ac", "addresses": ["1DympJ1ZxGo1aUdGGSGAfeeiJouVMFYPn"], "asm": "OP_DUP OP_HASH160 0274620b79092c06551ff67843613403b60b0db1 OP_EQUALVERIFY OP_CHECKSIG", "type": "pubkeyhash"}, "value": 0.005, "n": 0}, {"scriptPubKey": {"reqSigs": 1, "hex": "76a91425d3aaaad85325b90aa3ebaedc985e1ec1ba2fb788ac", "addresses": ["14T1ZxS7xZVQ3jcCZSBvoz7oxnR9HMYhSq"], "asm": "OP_DUP OP_HASH160 25d3aaaad85325b90aa3ebaedc985e1ec1ba2fb7 OP_EQUALVERIFY OP_CHECKSIG", "type": "pubkeyhash"}, "value": 9.29173157, "n": 1}], "hex": "010000000117a0a7078d3310816878770ef5fd6e111f5d0e2eb822511cf919799110dc27ec000000006b483045022100b16ba9c1b8294e501b4a388f78c030d256ec6d58ca4fe73e065b50bd4dcfb34a02205b05b9e7894749ac7aa5d011da4ebc02631facaa456c22a3f3e0d35744043638012103becc336dfa05cf4fb96f87a2a9a21231561bc2cb901adf6fc7fa6a408c6847eaffffffff0220a10700000000001976a9140274620b79092c06551ff67843613403b60b0db188aca50e6237000000001976a91425d3aaaad85325b90aa3ebaedc985e1ec1ba2fb788ac00000000", "vin": [{"sequence": 4294967295, "scriptSig": {"hex": "483045022100b16ba9c1b8294e501b4a388f78c030d256ec6d58ca4fe73e065b50bd4dcfb34a02205b05b9e7894749ac7aa5d011da4ebc02631facaa456c22a3f3e0d35744043638012103becc336dfa05cf4fb96f87a2a9a21231561bc2cb901adf6fc7fa6a408c6847ea", "asm": "3045022100b16ba9c1b8294e501b4a388f78c030d256ec6d58ca4fe73e065b50bd4dcfb34a02205b05b9e7894749ac7aa5d011da4ebc02631facaa456c22a3f3e0d35744043638[ALL] 03becc336dfa05cf4fb96f87a2a9a21231561bc2cb901adf6fc7fa6a408c6847ea"}, "vout": 0, "txid": "ec27dc10917919f91c5122b82e0e5d1f116efdf50e7778688110338d07a7a017"}], "txid": "1065c673b37cfd27e2b12f2249d454c05e405f37cffd78515116ffe4adeabf7a", "blocktime": 1537873891, "version": 1, "confirmations": 11474, "time": 1537873891, "locktime": 0, "vsize": 226, "size": 226}