{"hash": "1068d503740b147f3749ecb56a9687dbdb3a064ab22b09aba03fb7c3a4aedeb7", "blockhash": "0000000000000000001f76057863aec43deb6fa401d9628bb513d65a8098bfab", "vout": [{"scriptPubKey": {"reqSigs": 1, "hex": "76a914aa5a5d004e02301cc6691d87953b2182a25a9ac788ac", "addresses": ["1GXk8AR8fMDbX9LtBWaetyqmWSYXxofdin"], "asm": "OP_DUP OP_HASH160 aa5a5d004e02301cc6691d87953b2182a25a9ac7 OP_EQUALVERIFY OP_CHECKSIG", "type": "pubkeyhash"}, "value": 0.00030769, "n": 0}, {"scriptPubKey": {"reqSigs": 1, "hex": "76a914d0a272f53c65422cee732164e188b8f5e6b4ecde88ac", "addresses": ["1L2AA4RBJwhjo1Z2T6HD3nTvyNz8NaJ3E2"], "asm": "OP_DUP OP_HASH160 d0a272f53c65422cee732164e188b8f5e6b4ecde OP_EQUALVERIFY OP_CHECKSIG", "type": "pubkeyhash"}, "value": 0.00268234, "n": 1}], "hex": "0200000001bc57cf80cbc85c55cf01372f2acc3694afca65387814d42fcaea03fdc9d33a5c010000006a4730440220300eba1abe816d7f7820a44963c993a78fd76b524b76b1a0732e1eecdb4eee900220759dc0e3e7bc01cc8f3e6348b4490698a8e5ccf1ff65d68b0b499dcbb2739739012103d99605a5841c30d04e62cc1293f9b04de43563cb546f33a2db7f8ed808c79aa6ffffffff0231780000000000001976a914aa5a5d004e02301cc6691d87953b2182a25a9ac788acca170400000000001976a914d0a272f53c65422cee732164e188b8f5e6b4ecde88ac00000000", "vin": [{"sequence": 4294967295, "scriptSig": {"hex": "4730440220300eba1abe816d7f7820a44963c993a78fd76b524b76b1a0732e1eecdb4eee900220759dc0e3e7bc01cc8f3e6348b4490698a8e5ccf1ff65d68b0b499dcbb2739739012103d99605a5841c30d04e62cc1293f9b04de43563cb546f33a2db7f8ed808c79aa6", "asm": "30440220300eba1abe816d7f7820a44963c993a78fd76b524b76b1a0732e1eecdb4eee900220759dc0e3e7bc01cc8f3e6348b4490698a8e5ccf1ff65d68b0b499dcbb2739739[ALL] 03d99605a5841c30d04e62cc1293f9b04de43563cb546f33a2db7f8ed808c79aa6"}, "vout": 1, "txid": "5c3ad3c9fd03eaca2fd414783865caaf9436cc2a2f3701cf555cc8cb80cf57bc"}], "txid": "1068d503740b147f3749ecb56a9687dbdb3a064ab22b09aba03fb7c3a4aedeb7", "blocktime": 1537873891, "version": 2, "confirmations": 11478, "time": 1537873891, "locktime": 0, "vsize": 225, "size": 225}