{"hash": "f4710d7b711e8e54b8b38210ea478f2036824083586a62af368b61688f5932f1", "blockhash": "0000000000000000001f0ddff1eddb255c1121bcd4da4f1bc9a0da00cae72433", "vout": [{"scriptPubKey": {"reqSigs": 1, "hex": "76a914f09f69ee03572f5a58a08ba0e77051bbcdc867cf88ac", "addresses": ["1NwJ9JbtNUaSicaxezUeAcgoxZCVF5p4ws"], "asm": "OP_DUP OP_HASH160 f09f69ee03572f5a58a08ba0e77051bbcdc867cf OP_EQUALVERIFY OP_CHECKSIG", "type": "pubkeyhash"}, "value": 0.0808216, "n": 0}, {"scriptPubKey": {"reqSigs": 1, "hex": "0014a1b17a344409181040ffe98277df652b608eab75", "addresses": ["bc1q5xch5dzypyvpqs8laxp80hm99dsga2m4xea6tv"], "asm": "0 a1b17a344409181040ffe98277df652b608eab75", "type": "witness_v0_keyhash"}, "value": 2.20939357, "n": 1}], "hex": "01000000000101705c616c785ea2ae8eed54536b3043ce93eb5fcb4d0f0f99408d36cbd725ddf20000000000ffffffff02f0527b00000000001976a914f09f69ee03572f5a58a08ba0e77051bbcdc867cf88ac5d442b0d00000000160014a1b17a344409181040ffe98277df652b608eab750247304402206c1374135058d72286bc06334d4b861dc0b71721f012cd4fd278f07d4876953d0220063b3d66e2c2e6e48899e18be6464106cbf80cd4ca99d6fe6f3b35fb0c8450aa012103b48186bc2672f3b10982c119de527a40d7ceb730fd2ebaab07379b642e0b95ba00000000", "vin": [{"txinwitness": ["304402206c1374135058d72286bc06334d4b861dc0b71721f012cd4fd278f07d4876953d0220063b3d66e2c2e6e48899e18be6464106cbf80cd4ca99d6fe6f3b35fb0c8450aa01", "03b48186bc2672f3b10982c119de527a40d7ceb730fd2ebaab07379b642e0b95ba"], "sequence": 4294967295, "scriptSig": {"hex": "", "asm": ""}, "vout": 0, "txid": "f2dd25d7cb368d40990f0f4dcb5feb93ce43306b5354ed8eaea25e786c615c70"}], "txid": "1077ae57361f3186c35e78ed22115334c35ad8bf92f0efa2619eee2443eb0018", "blocktime": 1537872018, "version": 1, "confirmations": 11489, "time": 1537872018, "locktime": 0, "vsize": 144, "size": 225}