{"hash": "10783ea7675fbf4af3c50b0344aea7307fa97f279c983ba4d21ca062c8fa752b", "blockhash": "00000000000000000017f5eb5941039fbcee6240d03bc1f2f8e35350df66a1d8", "vout": [{"scriptPubKey": {"reqSigs": 1, "hex": "76a914cb74d5fb49b7c157b709a0040343d94dcf7b90fc88ac", "addresses": ["1KYn8qiCaBo4rrEMdELmBVXj9DC7HgePf7"], "asm": "OP_DUP OP_HASH160 cb74d5fb49b7c157b709a0040343d94dcf7b90fc OP_EQUALVERIFY OP_CHECKSIG", "type": "pubkeyhash"}, "value": 0.06775986, "n": 0}, {"scriptPubKey": {"reqSigs": 1, "hex": "76a9147bd3c913b4c621bce7e48f1c833bd5b602c0512888ac", "addresses": ["1CHjphzDU1dd2w9ndm4yNBJ7E2e87ysW5o"], "asm": "OP_DUP OP_HASH160 7bd3c913b4c621bce7e48f1c833bd5b602c05128 OP_EQUALVERIFY OP_CHECKSIG", "type": "pubkeyhash"}, "value": 0.15556, "n": 1}], "hex": "01000000027a603ab585e31d276d30f71ee200bb9d7dcf4bda0f4b301300a3539f8b455072010000006a47304402202bff0506e7d15167f84849e4e0e57c901ef301ebda11e9e2ed6b113d22a62dcf0220773c20ec890ed371a59be92194b742586d9063039e93522d87ec3453f5daf266012102708c31f2da0b523797f801c868a3ab7dff07dcc55aeb5919ef4afa61c45ac4b0ffffffff823d9689a51e95dd67349cd4e495cf31629c718358f365d70a6063db8c0b00c7010000006a473044022054aa1ad8cb41e894e2651b9781c930b522644dc6a3d60c9d420d65ce6f69bab502204f4ca55a80ff57aff327f22f6a5f0b32743e05b65afaf44a8d364e617e741ebd012103b03e89086cef2721dad3f71ccc183216f13ef30d1d61d321b1ed627ea585cf42ffffffff02b2646700000000001976a914cb74d5fb49b7c157b709a0040343d94dcf7b90fc88aca05ded00000000001976a9147bd3c913b4c621bce7e48f1c833bd5b602c0512888ac00000000", "vin": [{"sequence": 4294967295, "scriptSig": {"hex": "47304402202bff0506e7d15167f84849e4e0e57c901ef301ebda11e9e2ed6b113d22a62dcf0220773c20ec890ed371a59be92194b742586d9063039e93522d87ec3453f5daf266012102708c31f2da0b523797f801c868a3ab7dff07dcc55aeb5919ef4afa61c45ac4b0", "asm": "304402202bff0506e7d15167f84849e4e0e57c901ef301ebda11e9e2ed6b113d22a62dcf0220773c20ec890ed371a59be92194b742586d9063039e93522d87ec3453f5daf266[ALL] 02708c31f2da0b523797f801c868a3ab7dff07dcc55aeb5919ef4afa61c45ac4b0"}, "vout": 1, "txid": "7250458b9f53a30013304b0fda4bcf7d9dbb00e21ef7306d271de385b53a607a"}, {"sequence": 4294967295, "scriptSig": {"hex": "473044022054aa1ad8cb41e894e2651b9781c930b522644dc6a3d60c9d420d65ce6f69bab502204f4ca55a80ff57aff327f22f6a5f0b32743e05b65afaf44a8d364e617e741ebd012103b03e89086cef2721dad3f71ccc183216f13ef30d1d61d321b1ed627ea585cf42", "asm": "3044022054aa1ad8cb41e894e2651b9781c930b522644dc6a3d60c9d420d65ce6f69bab502204f4ca55a80ff57aff327f22f6a5f0b32743e05b65afaf44a8d364e617e741ebd[ALL] 03b03e89086cef2721dad3f71ccc183216f13ef30d1d61d321b1ed627ea585cf42"}, "vout": 1, "txid": "c7000b8cdb63600ad765f35883719c6231cf95e4d49c3467dd951ea589963d82"}], "txid": "10783ea7675fbf4af3c50b0344aea7307fa97f279c983ba4d21ca062c8fa752b", "blocktime": 1537874412, "version": 1, "confirmations": 11468, "time": 1537874412, "locktime": 0, "vsize": 372, "size": 372}