{"hash": "46f1abd34ea97bdb14e268be915dd22e9462d97600c945e9568f654446f1d245", "blockhash": "0000000000000000001cda96e906b7601b7a6fb1a3b62bca570a9e5d8f4b3de1", "vout": [{"scriptPubKey": {"reqSigs": 1, "hex": "a914d22d3e09cd8ce717ec4dfad589515804c79f861387", "addresses": ["3LrL2KZXioJCKtfBnF74U1D1422H8DB8ZW"], "asm": "OP_HASH160 d22d3e09cd8ce717ec4dfad589515804c79f8613 OP_EQUAL", "type": "scripthash"}, "value": 0.00999549, "n": 0}, {"scriptPubKey": {"reqSigs": 1, "hex": "76a914bbaec083b5e6b2619a44122d11954d363152fd0488ac", "addresses": ["1J7NhraWXwxB5EzsPgHjvHxXqAAYgWV397"], "asm": "OP_DUP OP_HASH160 bbaec083b5e6b2619a44122d11954d363152fd04 OP_EQUALVERIFY OP_CHECKSIG", "type": "pubkeyhash"}, "value": 0.0052466, "n": 1}], "hex": "0200000000010289e9c99ed6f8f1ec6cc07d1b407a1628154a6d5cbf93ebafebd1def61a6b239601000000171600148c9d28ec5f2a72e46ded9beaebb71b23856c24edfefffffff31d38b371b36c76d8b935785b69b46eb93156be33ea287e5be24f5258b3785d00000000171600147f2c0fcbff9a2e23a02cc3273f1090980cc942b0feffffff027d400f000000000017a914d22d3e09cd8ce717ec4dfad589515804c79f86138774010800000000001976a914bbaec083b5e6b2619a44122d11954d363152fd0488ac024730440220321cfb5a2e8013b60ee177c4d75ee6fdc9903ee839a6162bee966a9bdda735a5022063d3cbc70cf09130034d00d983d663cf83844e7bac93a5a5eca8fe6b5e830d88012103d13e02dbd0590a81622b3032b72d3a0b3d5fc4b7755967f5cf08e8be8f964d2902483045022100e69cfb5e409c4703f2d40bcd49cadfc5f4c7fbab803bb92ff7bf61bdb3d9481d022079260aa34dd5bd84c11486bedd378f69ef559237c0359e7503868674959658fd012103a7e425f6e19263d827b3c6db65e9a1176a30700b1cbc0a3bd9a13da380fd20c913490800", "vin": [{"txinwitness": ["30440220321cfb5a2e8013b60ee177c4d75ee6fdc9903ee839a6162bee966a9bdda735a5022063d3cbc70cf09130034d00d983d663cf83844e7bac93a5a5eca8fe6b5e830d8801", "03d13e02dbd0590a81622b3032b72d3a0b3d5fc4b7755967f5cf08e8be8f964d29"], "sequence": 4294967294, "scriptSig": {"hex": "1600148c9d28ec5f2a72e46ded9beaebb71b23856c24ed", "asm": "00148c9d28ec5f2a72e46ded9beaebb71b23856c24ed"}, "vout": 1, "txid": "96236b1af6ded1ebafeb93bf5c6d4a1528167a401b7dc06cecf1f8d69ec9e989"}, {"txinwitness": ["3045022100e69cfb5e409c4703f2d40bcd49cadfc5f4c7fbab803bb92ff7bf61bdb3d9481d022079260aa34dd5bd84c11486bedd378f69ef559237c0359e7503868674959658fd01", "03a7e425f6e19263d827b3c6db65e9a1176a30700b1cbc0a3bd9a13da380fd20c9"], "sequence": 4294967294, "scriptSig": {"hex": "1600147f2c0fcbff9a2e23a02cc3273f1090980cc942b0", "asm": "00147f2c0fcbff9a2e23a02cc3273f1090980cc942b0"}, "vout": 0, "txid": "5d78b358524fe25b7e28ea33be5631b96eb4695b7835b9d8766cb371b3381df3"}], "txid": "10782aa7bb8a0bfc3c19e09add9dc224ee705d139cf592bbcf50bad0e11065e9", "blocktime": 1537873282, "version": 2, "confirmations": 11485, "time": 1537873282, "locktime": 542995, "vsize": 259, "size": 421}