{"hash": "10801df14439f34e4dbf5bbf56cdd418d5d0cf0742e59ea101e6e6bfabf21bcd", "blockhash": "00000000000000000004ffacab907a6b429b9a5745fa0b75af4234bf69dd7176", "vout": [{"scriptPubKey": {"reqSigs": 1, "hex": "a914fe78c801e58c8f4d29ece6cac97a6184b9d2886e87", "addresses": ["3QtYFJJJWmTdxCm5cFz1Xfuadpe8diRnyd"], "asm": "OP_HASH160 fe78c801e58c8f4d29ece6cac97a6184b9d2886e OP_EQUAL", "type": "scripthash"}, "value": 0.004366, "n": 0}, {"scriptPubKey": {"reqSigs": 1, "hex": "76a9149957b1adf9435d07f71e129fe89a137509db5fbb88ac", "addresses": ["1EyoSSXuoELRUGXTLugyXZDzHQ9YDysG32"], "asm": "OP_DUP OP_HASH160 9957b1adf9435d07f71e129fe89a137509db5fbb OP_EQUALVERIFY OP_CHECKSIG", "type": "pubkeyhash"}, "value": 0.01599, "n": 1}], "hex": "0100000001ddfb10debf19cbf20e985fbc523ee071c669014fc686c69cf995b26939b84b08010000006a47304402205c649832f35567cbcd2824aa27fb22b0229cf8308f827b805e4f37687499c1b0022027c4c6a09a1b9f2b3746563f7325e270fc8d98eb19dc02822fe2022563c3746001210210987e0d7f8b7f3f4e2947bea85f79b891931f21347daacc6487cbe06baff53bffffffff0278a906000000000017a914fe78c801e58c8f4d29ece6cac97a6184b9d2886e8718661800000000001976a9149957b1adf9435d07f71e129fe89a137509db5fbb88ac00000000", "vin": [{"sequence": 4294967295, "scriptSig": {"hex": "47304402205c649832f35567cbcd2824aa27fb22b0229cf8308f827b805e4f37687499c1b0022027c4c6a09a1b9f2b3746563f7325e270fc8d98eb19dc02822fe2022563c3746001210210987e0d7f8b7f3f4e2947bea85f79b891931f21347daacc6487cbe06baff53b", "asm": "304402205c649832f35567cbcd2824aa27fb22b0229cf8308f827b805e4f37687499c1b0022027c4c6a09a1b9f2b3746563f7325e270fc8d98eb19dc02822fe2022563c37460[ALL] 0210987e0d7f8b7f3f4e2947bea85f79b891931f21347daacc6487cbe06baff53b"}, "vout": 1, "txid": "084bb83969b295f99cc686c64f0169c671e03e52bc5f980ef2cb19bfde10fbdd"}], "txid": "10801df14439f34e4dbf5bbf56cdd418d5d0cf0742e59ea101e6e6bfabf21bcd", "blocktime": 1537875543, "version": 1, "confirmations": 11464, "time": 1537875543, "locktime": 0, "vsize": 223, "size": 223}