{"hash": "10821dd099fd45c5ce67ae8d2d626439129c51eb61bd0e7e327a94d91e85f27f", "blockhash": "0000000000000000000dcc0f55137456b1a82d3642486a52398922ac4d620174", "vout": [{"scriptPubKey": {"reqSigs": 1, "hex": "76a9145611e0e30c9e4c1a56758decc0f24aedeb7e6fdf88ac", "addresses": ["18r6XiTwuyqLr4GYtQCWToPhsBuYDPzNFv"], "asm": "OP_DUP OP_HASH160 5611e0e30c9e4c1a56758decc0f24aedeb7e6fdf OP_EQUALVERIFY OP_CHECKSIG", "type": "pubkeyhash"}, "value": 0.04166476, "n": 0}, {"scriptPubKey": {"reqSigs": 1, "hex": "a91447bf0c7af63a8c152780b637ba030f6363c39d1987", "addresses": ["38ENmTr2AD1avJrmmi9iM7PfS6nZVmuMKf"], "asm": "OP_HASH160 47bf0c7af63a8c152780b637ba030f6363c39d19 OP_EQUAL", "type": "scripthash"}, "value": 0.01197999, "n": 1}, {"scriptPubKey": {"reqSigs": 1, "hex": "a914f9bfc2dc29a20d5786006f1beda21fff23a3e6fd87", "addresses": ["3QTZu7J4Cd6aEPpdLMP6HY1V2xafLVaerX"], "asm": "OP_HASH160 f9bfc2dc29a20d5786006f1beda21fff23a3e6fd OP_EQUAL", "type": "scripthash"}, "value": 0.04297317, "n": 2}], "hex": "01000000028d5e1e6f262d5e1fb6aad3e8acf323954b9ab81b087627c440a1955af15db2b602000000fd5c010047304402201fd6b84609e94fd6295cee31ec77189c468fc7aecfc8a7469e8f66247cfd9dde0220798406d6c3df1e649c842f544fff3533b7f942c63ac525ccf3aafd9f5c42273f014730440220434f15d0746e18f996a75cd6e668072dea017f024463dcb6996668c6c2a71b2a022035af1d8b23ad173fff240b5e8bc15747ceb91455b3662550a8fbc56b92109fd5014cc9524104f357f15e64159b5991a60a5c19832b776f39c9ce24c8ecfebfdecf4dafb6a130929f7b0fdeeaee1f93626c51b49c08a95ff0b697e5b38b46df979d97fd9e1f8a4104dde3bd2882ff6bc054ac565ea4f3d534b89730615b27d9010fc74d4f226a55d88c6654efa485282260d3efc7cd7cd8af59d63aea603c45c35503936ec97a3b9e410400d9af0340caa4130a9d4b2a4a7d2010e67f2ce68422ff5bfb48a69cf5ff4424a5d6efbd66104af2b7f2e715907a09c49ae8af3b33f634b55d6fca0515f1619c53aeffffffffa62172d595b8aa23e7fb7ae374f6ee809c5f7b6b6bdcaa5b028f9ddeafa6cf1300000000fd5d010047304402206db83c0bf6647a4500b3e90e411286f66a7e891b3756d5435fd6fd69f5a1aae102204cb13b27efbe0d9c4f056f0b54d89cd35717ef49854418fb74e3f2e2e11d2b2701483045022100c358c6dc891c86f3ad7a02ee618864bd8dcb02ee113a70bab650589adb1d686502201891934efe0e750489db914ca083b5460b85af91dc379d3e0d64bb868f873e5b014cc9524104f357f15e64159b5991a60a5c19832b776f39c9ce24c8ecfebfdecf4dafb6a130929f7b0fdeeaee1f93626c51b49c08a95ff0b697e5b38b46df979d97fd9e1f8a4104dde3bd2882ff6bc054ac565ea4f3d534b89730615b27d9010fc74d4f226a55d88c6654efa485282260d3efc7cd7cd8af59d63aea603c45c35503936ec97a3b9e410400d9af0340caa4130a9d4b2a4a7d2010e67f2ce68422ff5bfb48a69cf5ff4424a5d6efbd66104af2b7f2e715907a09c49ae8af3b33f634b55d6fca0515f1619c53aeffffffff034c933f00000000001976a9145611e0e30c9e4c1a56758decc0f24aedeb7e6fdf88acaf4712000000000017a91447bf0c7af63a8c152780b637ba030f6363c39d1987659241000000000017a914f9bfc2dc29a20d5786006f1beda21fff23a3e6fd8700000000", "vin": [{"sequence": 4294967295, "scriptSig": {"hex": "0047304402201fd6b84609e94fd6295cee31ec77189c468fc7aecfc8a7469e8f66247cfd9dde0220798406d6c3df1e649c842f544fff3533b7f942c63ac525ccf3aafd9f5c42273f014730440220434f15d0746e18f996a75cd6e668072dea017f024463dcb6996668c6c2a71b2a022035af1d8b23ad173fff240b5e8bc15747ceb91455b3662550a8fbc56b92109fd5014cc9524104f357f15e64159b5991a60a5c19832b776f39c9ce24c8ecfebfdecf4dafb6a130929f7b0fdeeaee1f93626c51b49c08a95ff0b697e5b38b46df979d97fd9e1f8a4104dde3bd2882ff6bc054ac565ea4f3d534b89730615b27d9010fc74d4f226a55d88c6654efa485282260d3efc7cd7cd8af59d63aea603c45c35503936ec97a3b9e410400d9af0340caa4130a9d4b2a4a7d2010e67f2ce68422ff5bfb48a69cf5ff4424a5d6efbd66104af2b7f2e715907a09c49ae8af3b33f634b55d6fca0515f1619c53ae", "asm": "0 304402201fd6b84609e94fd6295cee31ec77189c468fc7aecfc8a7469e8f66247cfd9dde0220798406d6c3df1e649c842f544fff3533b7f942c63ac525ccf3aafd9f5c42273f[ALL] 30440220434f15d0746e18f996a75cd6e668072dea017f024463dcb6996668c6c2a71b2a022035af1d8b23ad173fff240b5e8bc15747ceb91455b3662550a8fbc56b92109fd5[ALL] 524104f357f15e64159b5991a60a5c19832b776f39c9ce24c8ecfebfdecf4dafb6a130929f7b0fdeeaee1f93626c51b49c08a95ff0b697e5b38b46df979d97fd9e1f8a4104dde3bd2882ff6bc054ac565ea4f3d534b89730615b27d9010fc74d4f226a55d88c6654efa485282260d3efc7cd7cd8af59d63aea603c45c35503936ec97a3b9e410400d9af0340caa4130a9d4b2a4a7d2010e67f2ce68422ff5bfb48a69cf5ff4424a5d6efbd66104af2b7f2e715907a09c49ae8af3b33f634b55d6fca0515f1619c53ae"}, "vout": 2, "txid": "b6b25df15a95a140c42776081bb89a4b9523f3ace8d3aab61f5e2d266f1e5e8d"}, {"sequence": 4294967295, "scriptSig": {"hex": "0047304402206db83c0bf6647a4500b3e90e411286f66a7e891b3756d5435fd6fd69f5a1aae102204cb13b27efbe0d9c4f056f0b54d89cd35717ef49854418fb74e3f2e2e11d2b2701483045022100c358c6dc891c86f3ad7a02ee618864bd8dcb02ee113a70bab650589adb1d686502201891934efe0e750489db914ca083b5460b85af91dc379d3e0d64bb868f873e5b014cc9524104f357f15e64159b5991a60a5c19832b776f39c9ce24c8ecfebfdecf4dafb6a130929f7b0fdeeaee1f93626c51b49c08a95ff0b697e5b38b46df979d97fd9e1f8a4104dde3bd2882ff6bc054ac565ea4f3d534b89730615b27d9010fc74d4f226a55d88c6654efa485282260d3efc7cd7cd8af59d63aea603c45c35503936ec97a3b9e410400d9af0340caa4130a9d4b2a4a7d2010e67f2ce68422ff5bfb48a69cf5ff4424a5d6efbd66104af2b7f2e715907a09c49ae8af3b33f634b55d6fca0515f1619c53ae", "asm": "0 304402206db83c0bf6647a4500b3e90e411286f66a7e891b3756d5435fd6fd69f5a1aae102204cb13b27efbe0d9c4f056f0b54d89cd35717ef49854418fb74e3f2e2e11d2b27[ALL] 3045022100c358c6dc891c86f3ad7a02ee618864bd8dcb02ee113a70bab650589adb1d686502201891934efe0e750489db914ca083b5460b85af91dc379d3e0d64bb868f873e5b[ALL] 524104f357f15e64159b5991a60a5c19832b776f39c9ce24c8ecfebfdecf4dafb6a130929f7b0fdeeaee1f93626c51b49c08a95ff0b697e5b38b46df979d97fd9e1f8a4104dde3bd2882ff6bc054ac565ea4f3d534b89730615b27d9010fc74d4f226a55d88c6654efa485282260d3efc7cd7cd8af59d63aea603c45c35503936ec97a3b9e410400d9af0340caa4130a9d4b2a4a7d2010e67f2ce68422ff5bfb48a69cf5ff4424a5d6efbd66104af2b7f2e715907a09c49ae8af3b33f634b55d6fca0515f1619c53ae"}, "vout": 0, "txid": "13cfa6afde9d8f025baadc6b6b7b5f9c80eef674e37afbe723aab895d57221a6"}], "txid": "10821dd099fd45c5ce67ae8d2d626439129c51eb61bd0e7e327a94d91e85f27f", "blocktime": 1537870268, "version": 1, "confirmations": 11516, "time": 1537870268, "locktime": 0, "vsize": 891, "size": 891}