{"hash": "e0d832325cac6da1997fdef490c244d60cd4534b52d1c4716e8fc1e0a0fcdbf4", "blockhash": "0000000000000000001e0dab787dd257d1dbfcb92a98c2207d5e1078be1f4165", "vout": [{"scriptPubKey": {"reqSigs": 1, "hex": "a91458405076b4213ed512182cde1d6cf78efd2406d387", "addresses": ["39jeS4XCev12EPLWWCRjwuftzxARKF7pdD"], "asm": "OP_HASH160 58405076b4213ed512182cde1d6cf78efd2406d3 OP_EQUAL", "type": "scripthash"}, "value": 0.0006628, "n": 0}, {"scriptPubKey": {"reqSigs": 1, "hex": "0014eab1983521ce35ed34c2823a012ca3472deb5527", "addresses": ["bc1qa2cesdfpec676dxzsgaqzt9rguk7k4f85qfh5l"], "asm": "0 eab1983521ce35ed34c2823a012ca3472deb5527", "type": "witness_v0_keyhash"}, "value": 1.072e-05, "n": 1}], "hex": "010000000001016a0dfb213ce6d00e08339e7b949ce539d7234fe3437ec13504e836c0a47767580100000000ffffffff02e80201000000000017a91458405076b4213ed512182cde1d6cf78efd2406d3873004000000000000160014eab1983521ce35ed34c2823a012ca3472deb552702473044022017aa1237fae7139d2fa76656335d78dd7f1fbbd6fa3b446aaba85bbd4f96562902207a38ff2b0a25a65108f18538b1798e9257cedd79da77d903c8482dd05d34c305012102a975beb9a6194f968b05da7ed0ab1faa734277dc424b5440009aa96beb308c8900000000", "vin": [{"txinwitness": ["3044022017aa1237fae7139d2fa76656335d78dd7f1fbbd6fa3b446aaba85bbd4f96562902207a38ff2b0a25a65108f18538b1798e9257cedd79da77d903c8482dd05d34c30501", "02a975beb9a6194f968b05da7ed0ab1faa734277dc424b5440009aa96beb308c89"], "sequence": 4294967295, "scriptSig": {"hex": "", "asm": ""}, "vout": 1, "txid": "586777a4c036e80435c17e43e34f23d739e59c947b9e33080ed0e63c21fb0d6a"}], "txid": "1088ae67da201d4f3e996efca6e0ff43c70ec868002d0186843c1eb600fe9f39", "blocktime": 1537872475, "version": 1, "confirmations": 11486, "time": 1537872475, "locktime": 0, "vsize": 142, "size": 223}