{"hash": "04bc9384b82fe2f97d7fb88940e29e7e5d25347de332af5c5c125f534ca61e2a", "blockhash": "0000000000000000001f0ddff1eddb255c1121bcd4da4f1bc9a0da00cae72433", "vout": [{"scriptPubKey": {"reqSigs": 1, "hex": "a914e2e1f621541e2373bad4420e57862edfefbdb29587", "addresses": ["3NNfKySbHuLvm5H44aEPMKTHQziPxXgQT3"], "asm": "OP_HASH160 e2e1f621541e2373bad4420e57862edfefbdb295 OP_EQUAL", "type": "scripthash"}, "value": 0.00998839, "n": 0}, {"scriptPubKey": {"reqSigs": 1, "hex": "76a914ddf67c281db319052e647b31247ce0708e0f391c88ac", "addresses": ["1MEdcUMh91PyHoPj91bKN3HqbsaKEpwLDm"], "asm": "OP_DUP OP_HASH160 ddf67c281db319052e647b31247ce0708e0f391c OP_EQUALVERIFY OP_CHECKSIG", "type": "pubkeyhash"}, "value": 1.56654, "n": 1}], "hex": "0200000000010336fe248c109268b3f6829c3eb73e7cabbec5aed8985f35fbd65a28ad39b11d410100000017160014abd2bd621a3afac293d9b3ed4744d45d2df714c3fdffffff4bbf1b78773b7c46840060f0ccb580deceaa8891aa4ade5b0ce0e531f6a76d6c010000001716001494a7fe30fe14e24449b5133879815730a925b461fdffffffcb60224335f8dc106ad65f7512765952e77c6b41fadf47eb5534590208a3fc2c0100000017160014116fae751fa0d3aa49c5c1e44c73c28dbffd3734fdffffff02b73d0f000000000017a914e2e1f621541e2373bad4420e57862edfefbdb29587b0595609000000001976a914ddf67c281db319052e647b31247ce0708e0f391c88ac0247304402203ca5bb96e768a10ded215168716a20c821a849becf6b62f3cf1776e4ca189dee022006f3a08b67e5acf28378da83aa290ac8701786e1923088f657f7e0cc8c58e4840121028641cda27dec9f37e6270dc5f9d89607de9c857d7a4da5d8a222753881a4588c02483045022100ef649af478955e53f51607204b6879991fbe4e802434d3d07fbe4e1b77434b1a0220786db2fce40f12258968809b3a32ce3d3effd3a6cce737551ca475ed1305dd59012102bc9e23263f4300daed9890c63b624fa8ce00053158cb8d06310f524e76cbe0ec02483045022100ebd8082b90aa4f64b2bcc2ffba8cb54079dd2b03ae2abb4aa18e6997fa6e3ff502202bdb533d717f7840a27d6014738cd5311c3e2e36f1361ab93f2078026b63cfb7012103d030a7489f620037f40f683dbcce39c7ef414e5c5249b54936fdb13878358c8e00000000", "vin": [{"txinwitness": ["304402203ca5bb96e768a10ded215168716a20c821a849becf6b62f3cf1776e4ca189dee022006f3a08b67e5acf28378da83aa290ac8701786e1923088f657f7e0cc8c58e48401", "028641cda27dec9f37e6270dc5f9d89607de9c857d7a4da5d8a222753881a4588c"], "sequence": 4294967293, "scriptSig": {"hex": "160014abd2bd621a3afac293d9b3ed4744d45d2df714c3", "asm": "0014abd2bd621a3afac293d9b3ed4744d45d2df714c3"}, "vout": 1, "txid": "411db139ad285ad6fb355f98d8aec5beab7c3eb73e9c82f6b36892108c24fe36"}, {"txinwitness": ["3045022100ef649af478955e53f51607204b6879991fbe4e802434d3d07fbe4e1b77434b1a0220786db2fce40f12258968809b3a32ce3d3effd3a6cce737551ca475ed1305dd5901", "02bc9e23263f4300daed9890c63b624fa8ce00053158cb8d06310f524e76cbe0ec"], "sequence": 4294967293, "scriptSig": {"hex": "16001494a7fe30fe14e24449b5133879815730a925b461", "asm": "001494a7fe30fe14e24449b5133879815730a925b461"}, "vout": 1, "txid": "6c6da7f631e5e00c5bde4aaa9188aacede80b5ccf0600084467c3b77781bbf4b"}, {"txinwitness": ["3045022100ebd8082b90aa4f64b2bcc2ffba8cb54079dd2b03ae2abb4aa18e6997fa6e3ff502202bdb533d717f7840a27d6014738cd5311c3e2e36f1361ab93f2078026b63cfb701", "03d030a7489f620037f40f683dbcce39c7ef414e5c5249b54936fdb13878358c8e"], "sequence": 4294967293, "scriptSig": {"hex": "160014116fae751fa0d3aa49c5c1e44c73c28dbffd3734", "asm": "0014116fae751fa0d3aa49c5c1e44c73c28dbffd3734"}, "vout": 1, "txid": "2cfca30802593455eb47dffa416b7ce752597612755fd66a10dcf835432260cb"}], "txid": "108a731d8fa4b6ad8e4d5649487e925dd7ad7d193493a2b43a63b15f413e41bb", "blocktime": 1537872018, "version": 2, "confirmations": 11489, "time": 1537872018, "locktime": 0, "vsize": 350, "size": 593}