{"hash": "1095d654a3dc9cbc20e872eb05e8fdf6a96e87c911258a069063aac505e94c79", "blockhash": "00000000000000000018f53835495a110e01622372bf6ae95dc86f2b0ab887b0", "vout": [{"scriptPubKey": {"type": "nulldata", "hex": "6a146f6d6e69000000000000001f00000001699f12c0", "asm": "OP_RETURN 6f6d6e69000000000000001f00000001699f12c0"}, "value": 0.0, "n": 0}, {"scriptPubKey": {"reqSigs": 1, "hex": "76a91403146122a64a68f0eab628da8156b1d1906c2fd488ac", "addresses": ["1HHSZgU5RuhffBFZzDY54TxRVNfxbs5xg"], "asm": "OP_DUP OP_HASH160 03146122a64a68f0eab628da8156b1d1906c2fd4 OP_EQUALVERIFY OP_CHECKSIG", "type": "pubkeyhash"}, "value": 6e-06, "n": 1}, {"scriptPubKey": {"reqSigs": 1, "hex": "76a9140e49b81f43f719255334d008a790ef674e2e72c288ac", "addresses": ["12JYmnfYU2ghzjwUAspzJsSnmJtK9bZPYR"], "asm": "OP_DUP OP_HASH160 0e49b81f43f719255334d008a790ef674e2e72c2 OP_EQUALVERIFY OP_CHECKSIG", "type": "pubkeyhash"}, "value": 0.08056578, "n": 2}, {"scriptPubKey": {"reqSigs": 1, "hex": "76a914b314d095b18e474e6a33db4f0db80115ae00466688ac", "addresses": ["1HKttaJcctpfnEfbcKYzcVFB218B1yXEeN"], "asm": "OP_DUP OP_HASH160 b314d095b18e474e6a33db4f0db80115ae004666 OP_EQUALVERIFY OP_CHECKSIG", "type": "pubkeyhash"}, "value": 6e-06, "n": 3}], "hex": "01000000021ac8d194966d6806dd989b17b02577898ce8d1d30bf234b5e0eb6aed117abf84010000006b4830450221009f3cf1299cd123aabf2a91355805a85bb2a92d299f5e02be6fbfbfd06dc7cfdd02206f169a5dd53fe6f76e8c7abc47595b227872e43b72c65218bcf78e03d4b5997e0121022cb4a041a24a00325d84f80aed14cad8f82bf484275f17df0c022e04d0b37437ffffffff4803e24ab94a1484b94687037f7685a08b63e01da82a44cde28aa482180f20c3020000006b483045022100f69d0b533a966ed477c2df4b68fb85ae598d87ab868649cb2a55f55b9dd00b35022052671f5089165920d8fb31b2a898432b2d52aa95199732c51808c9fbe9d5c44301210361f26bf6731f956d2e62ee98a7a9fc6f0d36efdc9e6916973e7986a5ba9d19c4ffffffff040000000000000000166a146f6d6e69000000000000001f00000001699f12c058020000000000001976a91403146122a64a68f0eab628da8156b1d1906c2fd488ac02ef7a00000000001976a9140e49b81f43f719255334d008a790ef674e2e72c288ac58020000000000001976a914b314d095b18e474e6a33db4f0db80115ae00466688ac00000000", "vin": [{"sequence": 4294967295, "scriptSig": {"hex": "4830450221009f3cf1299cd123aabf2a91355805a85bb2a92d299f5e02be6fbfbfd06dc7cfdd02206f169a5dd53fe6f76e8c7abc47595b227872e43b72c65218bcf78e03d4b5997e0121022cb4a041a24a00325d84f80aed14cad8f82bf484275f17df0c022e04d0b37437", "asm": "30450221009f3cf1299cd123aabf2a91355805a85bb2a92d299f5e02be6fbfbfd06dc7cfdd02206f169a5dd53fe6f76e8c7abc47595b227872e43b72c65218bcf78e03d4b5997e[ALL] 022cb4a041a24a00325d84f80aed14cad8f82bf484275f17df0c022e04d0b37437"}, "vout": 1, "txid": "84bf7a11ed6aebe0b534f20bd3d1e88c897725b0179b98dd06686d9694d1c81a"}, {"sequence": 4294967295, "scriptSig": {"hex": "483045022100f69d0b533a966ed477c2df4b68fb85ae598d87ab868649cb2a55f55b9dd00b35022052671f5089165920d8fb31b2a898432b2d52aa95199732c51808c9fbe9d5c44301210361f26bf6731f956d2e62ee98a7a9fc6f0d36efdc9e6916973e7986a5ba9d19c4", "asm": "3045022100f69d0b533a966ed477c2df4b68fb85ae598d87ab868649cb2a55f55b9dd00b35022052671f5089165920d8fb31b2a898432b2d52aa95199732c51808c9fbe9d5c443[ALL] 0361f26bf6731f956d2e62ee98a7a9fc6f0d36efdc9e6916973e7986a5ba9d19c4"}, "vout": 2, "txid": "c3200f1882a48ae2cd442aa81de0638ba085767f038746b984144ab94ae20348"}], "txid": "1095d654a3dc9cbc20e872eb05e8fdf6a96e87c911258a069063aac505e94c79", "blocktime": 1537870928, "version": 1, "confirmations": 11512, "time": 1537870928, "locktime": 0, "vsize": 439, "size": 439}