{"hash": "4365da951bf5f18710259eb8d3513e6e4305f0ed176b83221daac22370570d0f", "blockhash": "0000000000000000001f0ddff1eddb255c1121bcd4da4f1bc9a0da00cae72433", "vout": [{"scriptPubKey": {"reqSigs": 1, "hex": "a914fe56cb9f2addc361adb22764dab78e03de577cf487", "addresses": ["3QsqXvEVQHYzKmWNAt7TiHCaoMZXrN4qCH"], "asm": "OP_HASH160 fe56cb9f2addc361adb22764dab78e03de577cf4 OP_EQUAL", "type": "scripthash"}, "value": 0.00046547, "n": 0}, {"scriptPubKey": {"reqSigs": 1, "hex": "a914d0920f801bc61da83ef01faec67024bd9f8cbc0187", "addresses": ["3LhqSuhAU7K9XEreqbwpiy2ZqULwT5kYLp"], "asm": "OP_HASH160 d0920f801bc61da83ef01faec67024bd9f8cbc01 OP_EQUAL", "type": "scripthash"}, "value": 0.00133944, "n": 1}], "hex": "01000000000102a2abecb2191b68e15421352b6e9597035365fc84f1bc10ebcf708b7dffd99a4e0100000023220020555483237adf9e634ff424b6c2eaab71ea22f02c182f853d2229f15df50ee61fffffffff657ccd055d98f36f5fb68646c6614697aeebedcf0f6cd6375a6e3bac767d68e10100000023220020814db7aed5a592e2bf173970c77f7d167e68b0e8d35ad315800f290d2ea56811ffffffff02d3b500000000000017a914fe56cb9f2addc361adb22764dab78e03de577cf487380b02000000000017a914d0920f801bc61da83ef01faec67024bd9f8cbc0187040047304402204e1d6b54cd8392548b241db1e2b13f12a9f920f3e44026c9d6ed496906adfe79022047f7e417caac6348ee1705ffe6186a72d92f1e48badab073f711e1b0afde0e1c01483045022100f32b7d7adbb43f9f613de7d8525f8fa360f5ac74c4918794fbb62f5f5041d1f302202e222dccc9c774334b26809b19fa0e23cf44ef96149ca091b0031cc4bc5d32f901475221025add22d94a5abe640e2e1db3ea64929018c490bb105ece6228dd227e162d1a87210272b0cdfbf7f3dd59c0aa752a078c84dddd13062081b565fb3201c9d4eb3356b652ae0400473044022073478ace600cd90fc80606b1f8556d20a13faaa310928e9c973f8fb1d8a76b9902204df42c67fd433796d1a2dbeb025da9c79a372022e0ef684d0b84f1ae20faa77a01473044022072931540ff95cc41e04b38fe0027d2266a085367627eabea36e380842362f4a8022025a1665417fb42ad0bdad44341fa7e3267e50025640d20105c7da7219a3198de0147522102707d0f84d535c6e7c1abd62d5cf93310e58865f3c581965667d10d90225ef3fc210272b0cdfbf7f3dd59c0aa752a078c84dddd13062081b565fb3201c9d4eb3356b652ae00000000", "vin": [{"txinwitness": ["", "304402204e1d6b54cd8392548b241db1e2b13f12a9f920f3e44026c9d6ed496906adfe79022047f7e417caac6348ee1705ffe6186a72d92f1e48badab073f711e1b0afde0e1c01", "3045022100f32b7d7adbb43f9f613de7d8525f8fa360f5ac74c4918794fbb62f5f5041d1f302202e222dccc9c774334b26809b19fa0e23cf44ef96149ca091b0031cc4bc5d32f901", "5221025add22d94a5abe640e2e1db3ea64929018c490bb105ece6228dd227e162d1a87210272b0cdfbf7f3dd59c0aa752a078c84dddd13062081b565fb3201c9d4eb3356b652ae"], "sequence": 4294967295, "scriptSig": {"hex": "220020555483237adf9e634ff424b6c2eaab71ea22f02c182f853d2229f15df50ee61f", "asm": "0020555483237adf9e634ff424b6c2eaab71ea22f02c182f853d2229f15df50ee61f"}, "vout": 1, "txid": "4e9ad9ff7d8b70cfeb10bcf184fc65530397956e2b352154e1681b19b2ecaba2"}, {"txinwitness": ["", "3044022073478ace600cd90fc80606b1f8556d20a13faaa310928e9c973f8fb1d8a76b9902204df42c67fd433796d1a2dbeb025da9c79a372022e0ef684d0b84f1ae20faa77a01", "3044022072931540ff95cc41e04b38fe0027d2266a085367627eabea36e380842362f4a8022025a1665417fb42ad0bdad44341fa7e3267e50025640d20105c7da7219a3198de01", "522102707d0f84d535c6e7c1abd62d5cf93310e58865f3c581965667d10d90225ef3fc210272b0cdfbf7f3dd59c0aa752a078c84dddd13062081b565fb3201c9d4eb3356b652ae"], "sequence": 4294967295, "scriptSig": {"hex": "220020814db7aed5a592e2bf173970c77f7d167e68b0e8d35ad315800f290d2ea56811", "asm": "0020814db7aed5a592e2bf173970c77f7d167e68b0e8d35ad315800f290d2ea56811"}, "vout": 1, "txid": "e1687d76ac3b6e5a37d66c0fcfedebae974661c64686b65f6ff3985d05cd7c65"}], "txid": "10987d12c10c71c61327d509e852b466f7a2154af55927ec70aeeffc272a60b2", "blocktime": 1537872018, "version": 1, "confirmations": 11489, "time": 1537872018, "locktime": 0, "vsize": 336, "size": 665}