{"hash": "10993dbaa0d6cbbf49addb12e326be4df4fd34679dd01ba51527901b723a65c4", "blockhash": "00000000000000000018f53835495a110e01622372bf6ae95dc86f2b0ab887b0", "vout": [{"scriptPubKey": {"reqSigs": 1, "hex": "76a9147bf8bbd87dde24d7aa01713798279f0753f0d04888ac", "addresses": ["1CJW5vPw6GPWe6Q66eEUdPJ9GhU9btvMqg"], "asm": "OP_DUP OP_HASH160 7bf8bbd87dde24d7aa01713798279f0753f0d048 OP_EQUALVERIFY OP_CHECKSIG", "type": "pubkeyhash"}, "value": 0.00516012, "n": 0}, {"scriptPubKey": {"reqSigs": 1, "hex": "a914f646fc4cee453f4a5a37b7c4642819afb4c275fa87", "addresses": ["3Q9DBtwsh4bhPV9KDiwSjMw5XMNS5dpqWf"], "asm": "OP_HASH160 f646fc4cee453f4a5a37b7c4642819afb4c275fa OP_EQUAL", "type": "scripthash"}, "value": 0.00848455, "n": 1}], "hex": "0100000002190ccc5adea8a6b51e9e6d059df09f034a696c9a3ef4ecefb9c094eda5db9075010000006b483045022100d86cd871df3f692acd9d05b07eb805d8d986886de08ef40652b10fb0e41a162e02203b0c79daa63e5601cfc571816001abe2b668f6765ffbb7aad873425cb4959dd9012102169254914b81a02b1d871652cf64b53d4765e7da8dd7c8b33c5e4d01aa46bab2ffffffff5896dafd24182a80639b498faabc571c10439899039b909dcdb1ebd6240306a1010000006b48304502210084e87383adb5a8da3c4f69d3acd505310331244a3ae623804a57d57023e1682902201eacc20afd9748cff44ff5ffd9a95b1ebcbfcfc8d7c2733e00d7466af6d0fad801210208a751dff832d6f919b3aafbd7164043edc1cb7294cc3eacbe3bca03d6494d5fffffffff02acdf0700000000001976a9147bf8bbd87dde24d7aa01713798279f0753f0d04888ac47f20c000000000017a914f646fc4cee453f4a5a37b7c4642819afb4c275fa8700000000", "vin": [{"sequence": 4294967295, "scriptSig": {"hex": "483045022100d86cd871df3f692acd9d05b07eb805d8d986886de08ef40652b10fb0e41a162e02203b0c79daa63e5601cfc571816001abe2b668f6765ffbb7aad873425cb4959dd9012102169254914b81a02b1d871652cf64b53d4765e7da8dd7c8b33c5e4d01aa46bab2", "asm": "3045022100d86cd871df3f692acd9d05b07eb805d8d986886de08ef40652b10fb0e41a162e02203b0c79daa63e5601cfc571816001abe2b668f6765ffbb7aad873425cb4959dd9[ALL] 02169254914b81a02b1d871652cf64b53d4765e7da8dd7c8b33c5e4d01aa46bab2"}, "vout": 1, "txid": "7590dba5ed94c0b9efecf43e9a6c694a039ff09d056d9e1eb5a6a8de5acc0c19"}, {"sequence": 4294967295, "scriptSig": {"hex": "48304502210084e87383adb5a8da3c4f69d3acd505310331244a3ae623804a57d57023e1682902201eacc20afd9748cff44ff5ffd9a95b1ebcbfcfc8d7c2733e00d7466af6d0fad801210208a751dff832d6f919b3aafbd7164043edc1cb7294cc3eacbe3bca03d6494d5f", "asm": "304502210084e87383adb5a8da3c4f69d3acd505310331244a3ae623804a57d57023e1682902201eacc20afd9748cff44ff5ffd9a95b1ebcbfcfc8d7c2733e00d7466af6d0fad8[ALL] 0208a751dff832d6f919b3aafbd7164043edc1cb7294cc3eacbe3bca03d6494d5f"}, "vout": 1, "txid": "a1060324d6ebb1cd9d909b03999843101c57bcaa8f499b63802a1824fdda9658"}], "txid": "10993dbaa0d6cbbf49addb12e326be4df4fd34679dd01ba51527901b723a65c4", "blocktime": 1537870928, "version": 1, "confirmations": 11512, "time": 1537870928, "locktime": 0, "vsize": 372, "size": 372}