{"hash": "10994b314dbd30ecece7667d8ace708654a73ce8710874637a87a9b455fc294e", "blockhash": "0000000000000000000baef3f32e3676a92c3b2e5da21b426e4f302fc371ce76", "vout": [{"scriptPubKey": {"type": "nulldata", "hex": "6a4c5000007819000197fd862dc4bf3f27685f40b7019d6ddc0f1b8ff117702940d64fa54d8eb25f00d07763ba5ec78371f0f691f762325baa1c94061498864af1cf561d100759d4ba30d2c37bb011d97e02cf", "asm": "OP_RETURN 00007819000197fd862dc4bf3f27685f40b7019d6ddc0f1b8ff117702940d64fa54d8eb25f00d07763ba5ec78371f0f691f762325baa1c94061498864af1cf561d100759d4ba30d2c37bb011d97e02cf"}, "value": 0.0, "n": 0}, {"scriptPubKey": {"reqSigs": 1, "hex": "76a914fda59ae6f967823795e6bce6bc36e995b2858c3288ac", "addresses": ["1Q8ALyd7z7Pt4zJrXHgfkbnVGhe5KXuoUZ"], "asm": "OP_DUP OP_HASH160 fda59ae6f967823795e6bce6bc36e995b2858c32 OP_EQUALVERIFY OP_CHECKSIG", "type": "pubkeyhash"}, "value": 0.006331, "n": 1}], "hex": "0100000001934616fc29098006ca4a72fe3858c445484daa50a193dbc2e9dc14335f0471bd000000006a4730440220071c552dee8d6cfc12a56d138d419d3e0aaa157b5eb664ddb15dd06b93a59864022047d7a55cab349cb49c29aabd3ce38c9f8c4339ed4cb154b14ec5f5e789a2bf32012103e1af7b5adb94a973ba261aebc107895f365de925a1837f214ada4238b990393effffffff020000000000000000536a4c5000007819000197fd862dc4bf3f27685f40b7019d6ddc0f1b8ff117702940d64fa54d8eb25f00d07763ba5ec78371f0f691f762325baa1c94061498864af1cf561d100759d4ba30d2c37bb011d97e02cf0ca90900000000001976a914fda59ae6f967823795e6bce6bc36e995b2858c3288ac00000000", "vin": [{"sequence": 4294967295, "scriptSig": {"hex": "4730440220071c552dee8d6cfc12a56d138d419d3e0aaa157b5eb664ddb15dd06b93a59864022047d7a55cab349cb49c29aabd3ce38c9f8c4339ed4cb154b14ec5f5e789a2bf32012103e1af7b5adb94a973ba261aebc107895f365de925a1837f214ada4238b990393e", "asm": "30440220071c552dee8d6cfc12a56d138d419d3e0aaa157b5eb664ddb15dd06b93a59864022047d7a55cab349cb49c29aabd3ce38c9f8c4339ed4cb154b14ec5f5e789a2bf32[ALL] 03e1af7b5adb94a973ba261aebc107895f365de925a1837f214ada4238b990393e"}, "vout": 0, "txid": "bd71045f3314dce9c2db93a150aa4d4845c45838fe724aca06800929fc164693"}], "txid": "10994b314dbd30ecece7667d8ace708654a73ce8710874637a87a9b455fc294e", "blocktime": 1537876114, "version": 1, "confirmations": 11460, "time": 1537876114, "locktime": 0, "vsize": 283, "size": 283}