{"hash": "109d1a22466bce59448b6ba68589930be5795ed9e60d564b1c759e27930104a0", "blockhash": "0000000000000000001e0dab787dd257d1dbfcb92a98c2207d5e1078be1f4165", "vout": [{"scriptPubKey": {"reqSigs": 1, "hex": "76a91462480cd3363983022baf5cd949607c9ff2c66f0d88ac", "addresses": ["19xfXvpbeU6UMKP1G9zf9fA2Rw7GE7fEpw"], "asm": "OP_DUP OP_HASH160 62480cd3363983022baf5cd949607c9ff2c66f0d OP_EQUALVERIFY OP_CHECKSIG", "type": "pubkeyhash"}, "value": 0.01351889, "n": 0}, {"scriptPubKey": {"reqSigs": 1, "hex": "a9149dce55c0942c434fc5d98bda17507f889dc1994387", "addresses": ["3G5RC4npv7DSCWFCsTGUUr8mKmTYq1pBa4"], "asm": "OP_HASH160 9dce55c0942c434fc5d98bda17507f889dc19943 OP_EQUAL", "type": "scripthash"}, "value": 0.03061509, "n": 1}], "hex": "010000000173f0d4697c2b197571ddcb28fc552fd90feac244bae35efd89f76eb1df056d17010000006b483045022100adeb8c3d7ceb1590b6a381824e069bbc046c6dd14273ec86e0aafadb010ae7aa0220405dfd99336ebc49793bd4e19bc9e7ace4beb887ef8470e5bd745b8e9683a42b012102019733b793d6c91dfbba926c9548a4dbf8646f0fa723ac7595f661b1eb63ce90ffffffff02d1a01400000000001976a91462480cd3363983022baf5cd949607c9ff2c66f0d88ac05b72e000000000017a9149dce55c0942c434fc5d98bda17507f889dc199438700000000", "vin": [{"sequence": 4294967295, "scriptSig": {"hex": "483045022100adeb8c3d7ceb1590b6a381824e069bbc046c6dd14273ec86e0aafadb010ae7aa0220405dfd99336ebc49793bd4e19bc9e7ace4beb887ef8470e5bd745b8e9683a42b012102019733b793d6c91dfbba926c9548a4dbf8646f0fa723ac7595f661b1eb63ce90", "asm": "3045022100adeb8c3d7ceb1590b6a381824e069bbc046c6dd14273ec86e0aafadb010ae7aa0220405dfd99336ebc49793bd4e19bc9e7ace4beb887ef8470e5bd745b8e9683a42b[ALL] 02019733b793d6c91dfbba926c9548a4dbf8646f0fa723ac7595f661b1eb63ce90"}, "vout": 1, "txid": "176d05dfb16ef789fd5ee3ba44c2ea0fd92f55fc28cbdd7175192b7c69d4f073"}], "txid": "109d1a22466bce59448b6ba68589930be5795ed9e60d564b1c759e27930104a0", "blocktime": 1537872475, "version": 1, "confirmations": 11487, "time": 1537872475, "locktime": 0, "vsize": 224, "size": 224}