{"hash": "109f8f355092ff0afa17f778984f2ad5ee143de51a55146852a7e52c6f77eaab", "blockhash": "00000000000000000004ffacab907a6b429b9a5745fa0b75af4234bf69dd7176", "vout": [{"scriptPubKey": {"reqSigs": 1, "hex": "a914c56bbfa62876a584993562793b3bf0d83ebdf2fb87", "addresses": ["3Kgt7qhB4a1EL9vjrejfckqAdFmCiTjVvw"], "asm": "OP_HASH160 c56bbfa62876a584993562793b3bf0d83ebdf2fb OP_EQUAL", "type": "scripthash"}, "value": 0.0359, "n": 0}, {"scriptPubKey": {"reqSigs": 1, "hex": "76a9141b65b8fdf583e203304d2b3195d41dfbe19b23e388ac", "addresses": ["13Vs6zVobb5TnAsfBdaNawjyitdkbnAjEM"], "asm": "OP_DUP OP_HASH160 1b65b8fdf583e203304d2b3195d41dfbe19b23e3 OP_EQUALVERIFY OP_CHECKSIG", "type": "pubkeyhash"}, "value": 0.73217151, "n": 1}], "hex": "0100000001585ed935895b7f28385b9a81c5294278d174de3c97e3e35d876b55d2bcbf1f95010000006a473044022035b07f987cc20a60a3a05b83a2d9f59319ceb5808aa6ba5196ea93dddd81ab3202204b2a6822cadfcce5d9d41c8c2ce9385f3b1d3e48efce08d8e327e5a1c11c2e1601210380aafa614d5656d3cd84b85984f295823c3b91a9c10a22d1fc7450a7a8869b17ffffffff0270c736000000000017a914c56bbfa62876a584993562793b3bf0d83ebdf2fb877f345d04000000001976a9141b65b8fdf583e203304d2b3195d41dfbe19b23e388ac00000000", "vin": [{"sequence": 4294967295, "scriptSig": {"hex": "473044022035b07f987cc20a60a3a05b83a2d9f59319ceb5808aa6ba5196ea93dddd81ab3202204b2a6822cadfcce5d9d41c8c2ce9385f3b1d3e48efce08d8e327e5a1c11c2e1601210380aafa614d5656d3cd84b85984f295823c3b91a9c10a22d1fc7450a7a8869b17", "asm": "3044022035b07f987cc20a60a3a05b83a2d9f59319ceb5808aa6ba5196ea93dddd81ab3202204b2a6822cadfcce5d9d41c8c2ce9385f3b1d3e48efce08d8e327e5a1c11c2e16[ALL] 0380aafa614d5656d3cd84b85984f295823c3b91a9c10a22d1fc7450a7a8869b17"}, "vout": 1, "txid": "951fbfbcd2556b875de3e3973cde74d1784229c5819a5b38287f5b8935d95e58"}], "txid": "109f8f355092ff0afa17f778984f2ad5ee143de51a55146852a7e52c6f77eaab", "blocktime": 1537875543, "version": 1, "confirmations": 11464, "time": 1537875543, "locktime": 0, "vsize": 223, "size": 223}