{"hash": "10a3346323bdaa8e706fbbaac215bf374b1ccc1053cb1e8dd6f2c86f50d0efa0", "blockhash": "0000000000000000000baef3f32e3676a92c3b2e5da21b426e4f302fc371ce76", "vout": [{"scriptPubKey": {"reqSigs": 1, "hex": "76a9149dbb9c7c91633869ebcc71118cb3213e7bac544688ac", "addresses": ["1FP1qaVBRNCeFKUiZhQZy1YL4RvepiW7T3"], "asm": "OP_DUP OP_HASH160 9dbb9c7c91633869ebcc71118cb3213e7bac5446 OP_EQUALVERIFY OP_CHECKSIG", "type": "pubkeyhash"}, "value": 0.01607, "n": 0}, {"scriptPubKey": {"reqSigs": 1, "hex": "a914e370231feecbfc25e2e2423a5a79bf79bfdca59887", "addresses": ["3NRbeX3vD5VaVE4TDU9ivCDsEf7NPPte6J"], "asm": "OP_HASH160 e370231feecbfc25e2e2423a5a79bf79bfdca598 OP_EQUAL", "type": "scripthash"}, "value": 0.34518754, "n": 1}], "hex": "0100000001d2a649a056ecd43e4c52bef1596de8b331776bc18da2c700af3ee0eb04987fcc01000000da00473044022042e108b2899dc148e3f57ec8b11d5e674c1485f9ea44409577282b1131c44e4202200dd0f5e44045e3453291411835a2530bbf431731ee2645476c72381d5fc9cc1e01483045022100c96abd58dc7b574c04c5a7529b83a698b972772f3891b7e236683195e18719cf022016c4e45f98d76bac945aba31c96fb73587c8ad12c4014a8d6671081afbe11d67014752210327881b6abce6535553a3ce21fad12a7d74fd237ce7c4cd270a267162344e3082210256141f8eb687f5a68c5cc65054652dc25116fa285e44d72b44368827ffe77d9a52aeffffffff0258851800000000001976a9149dbb9c7c91633869ebcc71118cb3213e7bac544688ace2b60e020000000017a914e370231feecbfc25e2e2423a5a79bf79bfdca5988700000000", "vin": [{"sequence": 4294967295, "scriptSig": {"hex": "00473044022042e108b2899dc148e3f57ec8b11d5e674c1485f9ea44409577282b1131c44e4202200dd0f5e44045e3453291411835a2530bbf431731ee2645476c72381d5fc9cc1e01483045022100c96abd58dc7b574c04c5a7529b83a698b972772f3891b7e236683195e18719cf022016c4e45f98d76bac945aba31c96fb73587c8ad12c4014a8d6671081afbe11d67014752210327881b6abce6535553a3ce21fad12a7d74fd237ce7c4cd270a267162344e3082210256141f8eb687f5a68c5cc65054652dc25116fa285e44d72b44368827ffe77d9a52ae", "asm": "0 3044022042e108b2899dc148e3f57ec8b11d5e674c1485f9ea44409577282b1131c44e4202200dd0f5e44045e3453291411835a2530bbf431731ee2645476c72381d5fc9cc1e[ALL] 3045022100c96abd58dc7b574c04c5a7529b83a698b972772f3891b7e236683195e18719cf022016c4e45f98d76bac945aba31c96fb73587c8ad12c4014a8d6671081afbe11d67[ALL] 52210327881b6abce6535553a3ce21fad12a7d74fd237ce7c4cd270a267162344e3082210256141f8eb687f5a68c5cc65054652dc25116fa285e44d72b44368827ffe77d9a52ae"}, "vout": 1, "txid": "cc7f9804ebe03eaf00c7a28dc16b7731b3e86d59f1be524c3ed4ec56a049a6d2"}], "txid": "10a3346323bdaa8e706fbbaac215bf374b1ccc1053cb1e8dd6f2c86f50d0efa0", "blocktime": 1537876114, "version": 1, "confirmations": 11460, "time": 1537876114, "locktime": 0, "vsize": 335, "size": 335}