{"hash": "0b53ac2cda7b2c3bf0b8e0836a90415759e4632132b3098fb4e66ce0369fa679", "blockhash": "0000000000000000000e13cef7c366c0283d82e591d1acd082e914b08063cdf1", "vout": [{"scriptPubKey": {"reqSigs": 1, "hex": "00144b68e8f0c498912df623f7e7be7464c63b932992", "addresses": ["bc1qfd5w3uxynzgjma3r7lnmuaryccaex2vja7g84q"], "asm": "0 4b68e8f0c498912df623f7e7be7464c63b932992", "type": "witness_v0_keyhash"}, "value": 0.07660329, "n": 0}, {"scriptPubKey": {"reqSigs": 1, "hex": "76a914e04397d218847dbe187d578909ce5fa1f086bffd88ac", "addresses": ["1MSoLRDEte8w6NXdBqY327KgfQPXCJzAkU"], "asm": "OP_DUP OP_HASH160 e04397d218847dbe187d578909ce5fa1f086bffd OP_EQUALVERIFY OP_CHECKSIG", "type": "pubkeyhash"}, "value": 0.33308228, "n": 1}], "hex": "0100000000010116926d224ed1befa700ce9ba93ce4ff0fcfe3aba47c8eaee6bae9456ef0a64a50000000000ffffffff0229e37400000000001600144b68e8f0c498912df623f7e7be7464c63b932992443efc01000000001976a914e04397d218847dbe187d578909ce5fa1f086bffd88ac02483045022100b81da91950d4a9e96beda76c261dee8993ae6d0d283fdea72bf0b75ac153c6ff02206699edac71523366712858cde53c5446c8526e981f0e8a3615267aa32fb07ef10121021899f382b052f637ad7fe5354feea5744cb6fd1eb57c09f8c2f6e48270f3dca100000000", "vin": [{"txinwitness": ["3045022100b81da91950d4a9e96beda76c261dee8993ae6d0d283fdea72bf0b75ac153c6ff02206699edac71523366712858cde53c5446c8526e981f0e8a3615267aa32fb07ef101", "021899f382b052f637ad7fe5354feea5744cb6fd1eb57c09f8c2f6e48270f3dca1"], "sequence": 4294967295, "scriptSig": {"hex": "", "asm": ""}, "vout": 0, "txid": "a5640aef5694ae6beeeac847ba3afefcf04fce93bae90c70fabed14e226d9216"}], "txid": "10a8969273d9a34b5c0bda48dc83edd22813c275fbd0f35097b36ba8c321d94d", "blocktime": 1537871767, "version": 1, "confirmations": 11495, "time": 1537871767, "locktime": 0, "vsize": 144, "size": 226}