{"hash": "10ad6b42b05a60bf53b5b638f0ce3217575341ca3357787805746e7c01c356c0", "blockhash": "00000000000000000018f53835495a110e01622372bf6ae95dc86f2b0ab887b0", "vout": [{"scriptPubKey": {"reqSigs": 1, "hex": "76a91437ac93b7996f9d16681f4e032a010e75deecda8588ac", "addresses": ["165NuQupkWtMLwRDUamQQGf8UL6tLdTVEf"], "asm": "OP_DUP OP_HASH160 37ac93b7996f9d16681f4e032a010e75deecda85 OP_EQUALVERIFY OP_CHECKSIG", "type": "pubkeyhash"}, "value": 0.01561121, "n": 0}, {"scriptPubKey": {"reqSigs": 1, "hex": "76a9146b4f7d764ee0d0b459394f6da4d137bb515ec4d288ac", "addresses": ["1AnQXbSr511XiVR5hvaC4xc1ys2xTiZzz1"], "asm": "OP_DUP OP_HASH160 6b4f7d764ee0d0b459394f6da4d137bb515ec4d2 OP_EQUALVERIFY OP_CHECKSIG", "type": "pubkeyhash"}, "value": 0.02447543, "n": 1}], "hex": "0100000001b51ba62409eee643a281e6d30d5c18dffba0b2b975d716b83ca9457ae745c867000000006a47304402204fc9bd85a91185b7dd5e05c44ebdea8979d2e70bc24107dc7b6759008c438655022063797f624f2747358b1ee9b31b0b8c6cefac5fb52c85070a56f293d4f33acd9c01210353230198cd3ffeb78a592d669c04967880811d73240ff9dc4fd5685d535e79ceffffffff0221d21700000000001976a91437ac93b7996f9d16681f4e032a010e75deecda8588acb7582500000000001976a9146b4f7d764ee0d0b459394f6da4d137bb515ec4d288ac00000000", "vin": [{"sequence": 4294967295, "scriptSig": {"hex": "47304402204fc9bd85a91185b7dd5e05c44ebdea8979d2e70bc24107dc7b6759008c438655022063797f624f2747358b1ee9b31b0b8c6cefac5fb52c85070a56f293d4f33acd9c01210353230198cd3ffeb78a592d669c04967880811d73240ff9dc4fd5685d535e79ce", "asm": "304402204fc9bd85a91185b7dd5e05c44ebdea8979d2e70bc24107dc7b6759008c438655022063797f624f2747358b1ee9b31b0b8c6cefac5fb52c85070a56f293d4f33acd9c[ALL] 0353230198cd3ffeb78a592d669c04967880811d73240ff9dc4fd5685d535e79ce"}, "vout": 0, "txid": "67c845e77a45a93cb816d775b9b2a0fbdf185c0dd3e681a243e6ee0924a61bb5"}], "txid": "10ad6b42b05a60bf53b5b638f0ce3217575341ca3357787805746e7c01c356c0", "blocktime": 1537870928, "version": 1, "confirmations": 11514, "time": 1537870928, "locktime": 0, "vsize": 225, "size": 225}