{"hash": "10b464fe6bbbf162befff5eebc4be4395700f02d7f09ecb16a618212253d11f6", "blockhash": "00000000000000000024a2167bbff67b0be802c0b01cdd79e6331c2be6459f87", "vout": [{"scriptPubKey": {"reqSigs": 1, "hex": "a914dcca27f3e3d43c146cc0158812dc6d88e178383a87", "addresses": ["3MpSko8LXsGb2iFjSz5yLc6PpxG2ev1wMU"], "asm": "OP_HASH160 dcca27f3e3d43c146cc0158812dc6d88e178383a OP_EQUAL", "type": "scripthash"}, "value": 0.0047506, "n": 0}, {"scriptPubKey": {"reqSigs": 1, "hex": "76a91478979be52df443077a90c15b07b6c80d80e354d088ac", "addresses": ["1Bzdhzj4ufnvoVFGv7Sxhm47j2vQuKojxW"], "asm": "OP_DUP OP_HASH160 78979be52df443077a90c15b07b6c80d80e354d0 OP_EQUALVERIFY OP_CHECKSIG", "type": "pubkeyhash"}, "value": 0.12061274, "n": 1}], "hex": "01000000019d2756bdef70fa4bde23297a97facae88ea7720b7050eb33fd025effb3dbd97e010000006b483045022100d1ced92d713b30a5e330702d7820e2ab1789bc54fcb7ebe8c0f64e9a2db84037022068f18517eaea75248f9fef2201a2f6092bae1f841240c4a6585858206a04d97201210364e44fc21f6d10e98bd84325570a5c30a54abca3719fa0e725b922890f23391affffffff02b43f07000000000017a914dcca27f3e3d43c146cc0158812dc6d88e178383a875a0ab800000000001976a91478979be52df443077a90c15b07b6c80d80e354d088ac00000000", "vin": [{"sequence": 4294967295, "scriptSig": {"hex": "483045022100d1ced92d713b30a5e330702d7820e2ab1789bc54fcb7ebe8c0f64e9a2db84037022068f18517eaea75248f9fef2201a2f6092bae1f841240c4a6585858206a04d97201210364e44fc21f6d10e98bd84325570a5c30a54abca3719fa0e725b922890f23391a", "asm": "3045022100d1ced92d713b30a5e330702d7820e2ab1789bc54fcb7ebe8c0f64e9a2db84037022068f18517eaea75248f9fef2201a2f6092bae1f841240c4a6585858206a04d972[ALL] 0364e44fc21f6d10e98bd84325570a5c30a54abca3719fa0e725b922890f23391a"}, "vout": 1, "txid": "7ed9dbb3ff5e02fd33eb50700b72a78ee8cafa977a2923de4bfa70efbd56279d"}], "txid": "10b464fe6bbbf162befff5eebc4be4395700f02d7f09ecb16a618212253d11f6", "blocktime": 1537870564, "version": 1, "confirmations": 11515, "time": 1537870564, "locktime": 0, "vsize": 224, "size": 224}