{"hash": "10b7cac3054ce694a3d8cb4b1371e8eeffa98bc3796727314591079d681474e1", "blockhash": "0000000000000000001cda96e906b7601b7a6fb1a3b62bca570a9e5d8f4b3de1", "vout": [{"scriptPubKey": {"type": "nulldata", "hex": "6a4c50000077bf0001ce0740a7300269d72388dca3e5bf9ae76da98a211aaf6c953dd567cf27e712cbd8bf2efe34dde5d497539897bcc65baa12880612ceabd07c420cbc9a9526289ac0f6612cd74e33776ee4", "asm": "OP_RETURN 000077bf0001ce0740a7300269d72388dca3e5bf9ae76da98a211aaf6c953dd567cf27e712cbd8bf2efe34dde5d497539897bcc65baa12880612ceabd07c420cbc9a9526289ac0f6612cd74e33776ee4"}, "value": 0.0, "n": 0}, {"scriptPubKey": {"reqSigs": 1, "hex": "76a91486ecdb0b711e6273dfce29e28aab8b2414efa81d88ac", "addresses": ["1DJRHiz9ux8UHyZgkHBYhTYLtVfzpVQvuX"], "asm": "OP_DUP OP_HASH160 86ecdb0b711e6273dfce29e28aab8b2414efa81d OP_EQUALVERIFY OP_CHECKSIG", "type": "pubkeyhash"}, "value": 0.022247, "n": 1}], "hex": "0100000001d2a6684a5429fe2a4d5ef55a15d139d32f940de9bf87c0ec548ade05ea0fb532010000006a47304402203ba7f903a2d405f604dc9a1974047400cd9ce8cc58ef7e0815002fdcfbfade0b02203a513aae7f173f873f148fbdf9aac4acdbd30713dcc9ebe4eaf0636b27730719012102779e78a598eb4c498982bd4cc40192ed7c16bed3083a0174dab1711a27319d02ffffffff020000000000000000536a4c50000077bf0001ce0740a7300269d72388dca3e5bf9ae76da98a211aaf6c953dd567cf27e712cbd8bf2efe34dde5d497539897bcc65baa12880612ceabd07c420cbc9a9526289ac0f6612cd74e33776ee43cf22100000000001976a91486ecdb0b711e6273dfce29e28aab8b2414efa81d88ac00000000", "vin": [{"sequence": 4294967295, "scriptSig": {"hex": "47304402203ba7f903a2d405f604dc9a1974047400cd9ce8cc58ef7e0815002fdcfbfade0b02203a513aae7f173f873f148fbdf9aac4acdbd30713dcc9ebe4eaf0636b27730719012102779e78a598eb4c498982bd4cc40192ed7c16bed3083a0174dab1711a27319d02", "asm": "304402203ba7f903a2d405f604dc9a1974047400cd9ce8cc58ef7e0815002fdcfbfade0b02203a513aae7f173f873f148fbdf9aac4acdbd30713dcc9ebe4eaf0636b27730719[ALL] 02779e78a598eb4c498982bd4cc40192ed7c16bed3083a0174dab1711a27319d02"}, "vout": 1, "txid": "32b50fea05de8a54ecc087bfe90d942fd339d1155af55e4d2afe29544a68a6d2"}], "txid": "10b7cac3054ce694a3d8cb4b1371e8eeffa98bc3796727314591079d681474e1", "blocktime": 1537873282, "version": 1, "confirmations": 11484, "time": 1537873282, "locktime": 0, "vsize": 283, "size": 283}