{"hash": "10ba56cb373bfdd29b7d233fe439a023a719d86dad03d1c4d371a0e4acbb3574", "blockhash": "00000000000000000017f5eb5941039fbcee6240d03bc1f2f8e35350df66a1d8", "vout": [{"scriptPubKey": {"reqSigs": 1, "hex": "76a914311c95581ef75bb33162b61e4733b2b81f92a4b288ac", "addresses": ["15UgMQdhvVQsR8sxqzncg1RMNTu5Ptor6B"], "asm": "OP_DUP OP_HASH160 311c95581ef75bb33162b61e4733b2b81f92a4b2 OP_EQUALVERIFY OP_CHECKSIG", "type": "pubkeyhash"}, "value": 2.344e-05, "n": 0}, {"scriptPubKey": {"reqSigs": 1, "hex": "76a914798fc91789fe4c7237618f8dcdc15853d8f34c7588ac", "addresses": ["1C5m1c3ehMuKK6xippQAe18YeDJ54xgDvv"], "asm": "OP_DUP OP_HASH160 798fc91789fe4c7237618f8dcdc15853d8f34c75 OP_EQUALVERIFY OP_CHECKSIG", "type": "pubkeyhash"}, "value": 0.0002686, "n": 1}], "hex": "010000000127dff3b6b395a99b05756b5fe965016e91e391d2450179acf7c3365cedafea93000000006a4730440220560009f1a9c6c51d9e5c480a7ea2b2e2a827a5b3d69a23b77e649135a4b79d7c0220240fc44b0fc5eff6252c4c5e1f472f1c2bb63b4df599dbf3a155b9ddd0df684801210377e638238402ebdca70bf8dc1b3b9e6c552e05e69277458ee78f4a33058429ffffffffff0228090000000000001976a914311c95581ef75bb33162b61e4733b2b81f92a4b288acec680000000000001976a914798fc91789fe4c7237618f8dcdc15853d8f34c7588ac00000000", "vin": [{"sequence": 4294967295, "scriptSig": {"hex": "4730440220560009f1a9c6c51d9e5c480a7ea2b2e2a827a5b3d69a23b77e649135a4b79d7c0220240fc44b0fc5eff6252c4c5e1f472f1c2bb63b4df599dbf3a155b9ddd0df684801210377e638238402ebdca70bf8dc1b3b9e6c552e05e69277458ee78f4a33058429ff", "asm": "30440220560009f1a9c6c51d9e5c480a7ea2b2e2a827a5b3d69a23b77e649135a4b79d7c0220240fc44b0fc5eff6252c4c5e1f472f1c2bb63b4df599dbf3a155b9ddd0df6848[ALL] 0377e638238402ebdca70bf8dc1b3b9e6c552e05e69277458ee78f4a33058429ff"}, "vout": 0, "txid": "93eaafed5c36c3f7ac790145d291e3916e0165e95f6b75059ba995b3b6f3df27"}], "txid": "10ba56cb373bfdd29b7d233fe439a023a719d86dad03d1c4d371a0e4acbb3574", "blocktime": 1537874412, "version": 1, "confirmations": 11468, "time": 1537874412, "locktime": 0, "vsize": 225, "size": 225}