{"hash": "10bc0a53eeec0c37bc842a7710d6e250996eb8ef30373fa234694efb006d024d", "blockhash": "0000000000000000001cda96e906b7601b7a6fb1a3b62bca570a9e5d8f4b3de1", "vout": [{"scriptPubKey": {"reqSigs": 1, "hex": "76a914f6c47a2d2fb3d6bf4454a70595729d9a15169af588ac", "addresses": ["1PVnbfon8WkXJP4QXKgHw1mgVRxDUCZPyh"], "asm": "OP_DUP OP_HASH160 f6c47a2d2fb3d6bf4454a70595729d9a15169af5 OP_EQUALVERIFY OP_CHECKSIG", "type": "pubkeyhash"}, "value": 0.00892673, "n": 0}, {"scriptPubKey": {"reqSigs": 1, "hex": "76a9142af68a94c67ff46fe800ffc6695c4edd6f7055eb88ac", "addresses": ["14vAj3qmAesPbyGSy1UT7HvPvyieSPfL9u"], "asm": "OP_DUP OP_HASH160 2af68a94c67ff46fe800ffc6695c4edd6f7055eb OP_EQUALVERIFY OP_CHECKSIG", "type": "pubkeyhash"}, "value": 0.0013849, "n": 1}], "hex": "0100000001edfdbae6ff02cd558a9e0eb35ce76b0a73d6e529438ae09329d41194825b010c000000006b483045022100b06007bb041128b59e2331ba5e7f1ed476b7a0bb98265b1e73653c0f17aa3c1802207ee9863028121b3fe38892276088bff14d830ed885ebc283e788fb2df5ae98ed012103ee5f6b3a5c78e0dfa02ae47869b146c31b339f58528595fc834f42ede2e1d83bffffffff02019f0d00000000001976a914f6c47a2d2fb3d6bf4454a70595729d9a15169af588acfa1c0200000000001976a9142af68a94c67ff46fe800ffc6695c4edd6f7055eb88ac00000000", "vin": [{"sequence": 4294967295, "scriptSig": {"hex": "483045022100b06007bb041128b59e2331ba5e7f1ed476b7a0bb98265b1e73653c0f17aa3c1802207ee9863028121b3fe38892276088bff14d830ed885ebc283e788fb2df5ae98ed012103ee5f6b3a5c78e0dfa02ae47869b146c31b339f58528595fc834f42ede2e1d83b", "asm": "3045022100b06007bb041128b59e2331ba5e7f1ed476b7a0bb98265b1e73653c0f17aa3c1802207ee9863028121b3fe38892276088bff14d830ed885ebc283e788fb2df5ae98ed[ALL] 03ee5f6b3a5c78e0dfa02ae47869b146c31b339f58528595fc834f42ede2e1d83b"}, "vout": 0, "txid": "0c015b829411d42993e08a4329e5d6730a6be75cb30e9e8a55cd02ffe6bafded"}], "txid": "10bc0a53eeec0c37bc842a7710d6e250996eb8ef30373fa234694efb006d024d", "blocktime": 1537873282, "version": 1, "confirmations": 11485, "time": 1537873282, "locktime": 0, "vsize": 226, "size": 226}