{"hash": "10bda53a3f67c8234aa780c9518f64ce095cf7f6913dbd4e126c8f811413a723", "blockhash": "00000000000000000004ffacab907a6b429b9a5745fa0b75af4234bf69dd7176", "vout": [{"scriptPubKey": {"reqSigs": 1, "hex": "76a914a6f84b3b7f6f7ef274d37d7b7b62b3df1a46b8a188ac", "addresses": ["1GDrcc5geBtz4wLcfvZfALCKUhoaGKwqAq"], "asm": "OP_DUP OP_HASH160 a6f84b3b7f6f7ef274d37d7b7b62b3df1a46b8a1 OP_EQUALVERIFY OP_CHECKSIG", "type": "pubkeyhash"}, "value": 5.079e-05, "n": 0}, {"scriptPubKey": {"reqSigs": 1, "hex": "a9146263c6e301b41eecae3e94b17c8e3d91039e25c887", "addresses": ["3AfFfxrQDMi3pGY1KrY666xdf7H5uRG3ee"], "asm": "OP_HASH160 6263c6e301b41eecae3e94b17c8e3d91039e25c8 OP_EQUAL", "type": "scripthash"}, "value": 0.0052946, "n": 1}], "hex": "0100000003dce3f579a1edf81ed5df6c87ffd75277319107d7be98b7ff377a71c18dec342e000000006b483045022100b65b5e6558158656a973e908dbf3cbab6aafd6dbb5dc4e688ca961faa5c5d7c002202d8967b24ae1e9c1ebe3cc7a8fba28e4e19a109a16078e039776d06c92a3d715012103664c084cc05c48fed951d10b72ce33e14049e5be51ebd6920db1e20e0e28f90cffffffff6295bfa5066f472db654297b7a99a772cdd10edb964f8b0fbc3bd4c839060c7c000000006b483045022100ad851ce5733601bb95a3a7acfb3f7cce9ca1557d1e15844157c8cd8d70eb7ade02200da0f7c151467dcd111c8de7b5b7f3acbd860b8bd83615ff48d05f2ad0bad182012103ba962caa9d81e37cd14e2f7dac55054a5bb91e933302aafe10dccf8ac0f2ab43ffffffff339d5db47c0424a5e5e834d15405ae592bd38646dee0d422195eab2b7776f5d8000000006a4730440220151a52bf17b647825dd2a4d454d094cc0f98d590512a3d71b8dd8884f5b2fcb50220334eeceb641f29c0f96c069b09f0459b32a018723f1b5b7432021fb28b1ca7e8012103ba962caa9d81e37cd14e2f7dac55054a5bb91e933302aafe10dccf8ac0f2ab43ffffffff02d7130000000000001976a914a6f84b3b7f6f7ef274d37d7b7b62b3df1a46b8a188ac341408000000000017a9146263c6e301b41eecae3e94b17c8e3d91039e25c88700000000", "vin": [{"sequence": 4294967295, "scriptSig": {"hex": "483045022100b65b5e6558158656a973e908dbf3cbab6aafd6dbb5dc4e688ca961faa5c5d7c002202d8967b24ae1e9c1ebe3cc7a8fba28e4e19a109a16078e039776d06c92a3d715012103664c084cc05c48fed951d10b72ce33e14049e5be51ebd6920db1e20e0e28f90c", "asm": "3045022100b65b5e6558158656a973e908dbf3cbab6aafd6dbb5dc4e688ca961faa5c5d7c002202d8967b24ae1e9c1ebe3cc7a8fba28e4e19a109a16078e039776d06c92a3d715[ALL] 03664c084cc05c48fed951d10b72ce33e14049e5be51ebd6920db1e20e0e28f90c"}, "vout": 0, "txid": "2e34ec8dc1717a37ffb798bed70791317752d7ff876cdfd51ef8eda179f5e3dc"}, {"sequence": 4294967295, "scriptSig": {"hex": "483045022100ad851ce5733601bb95a3a7acfb3f7cce9ca1557d1e15844157c8cd8d70eb7ade02200da0f7c151467dcd111c8de7b5b7f3acbd860b8bd83615ff48d05f2ad0bad182012103ba962caa9d81e37cd14e2f7dac55054a5bb91e933302aafe10dccf8ac0f2ab43", "asm": "3045022100ad851ce5733601bb95a3a7acfb3f7cce9ca1557d1e15844157c8cd8d70eb7ade02200da0f7c151467dcd111c8de7b5b7f3acbd860b8bd83615ff48d05f2ad0bad182[ALL] 03ba962caa9d81e37cd14e2f7dac55054a5bb91e933302aafe10dccf8ac0f2ab43"}, "vout": 0, "txid": "7c0c0639c8d43bbc0f8b4f96db0ed1cd72a7997a7b2954b62d476f06a5bf9562"}, {"sequence": 4294967295, "scriptSig": {"hex": "4730440220151a52bf17b647825dd2a4d454d094cc0f98d590512a3d71b8dd8884f5b2fcb50220334eeceb641f29c0f96c069b09f0459b32a018723f1b5b7432021fb28b1ca7e8012103ba962caa9d81e37cd14e2f7dac55054a5bb91e933302aafe10dccf8ac0f2ab43", "asm": "30440220151a52bf17b647825dd2a4d454d094cc0f98d590512a3d71b8dd8884f5b2fcb50220334eeceb641f29c0f96c069b09f0459b32a018723f1b5b7432021fb28b1ca7e8[ALL] 03ba962caa9d81e37cd14e2f7dac55054a5bb91e933302aafe10dccf8ac0f2ab43"}, "vout": 0, "txid": "d8f576772bab5e1922d4e0de4686d32b59ae0554d134e8e5a524047cb45d9d33"}], "txid": "10bda53a3f67c8234aa780c9518f64ce095cf7f6913dbd4e126c8f811413a723", "blocktime": 1537875543, "version": 1, "confirmations": 11464, "time": 1537875543, "locktime": 0, "vsize": 519, "size": 519}