{"hash": "10c259156e9a2ceaf910b93743f6d408bd57eab32c93a3252cbed43f2d23b944", "blockhash": "0000000000000000000e13cef7c366c0283d82e591d1acd082e914b08063cdf1", "vout": [{"scriptPubKey": {"reqSigs": 1, "hex": "76a914ec95ff2dd0a99c58f125cc11d3bfa1a1539e7d7488ac", "addresses": ["1NZxAESxZ5kvNo9NyMjasB4mKTZLETNdf1"], "asm": "OP_DUP OP_HASH160 ec95ff2dd0a99c58f125cc11d3bfa1a1539e7d74 OP_EQUALVERIFY OP_CHECKSIG", "type": "pubkeyhash"}, "value": 0.00026026, "n": 0}, {"scriptPubKey": {"reqSigs": 1, "hex": "a914c58363c39bcc7bf28278de43df10aeff6bba274887", "addresses": ["3KhNST7PBn8b2EKSqigBf5qC8GpHYzSGVG"], "asm": "OP_HASH160 c58363c39bcc7bf28278de43df10aeff6bba2748 OP_EQUAL", "type": "scripthash"}, "value": 0.0008, "n": 1}], "hex": "01000000028efca217f6c76a0b1f80a1c0ecae38c12e39587721d79396af5d5649ae10c5b6130000006a4730440220386ee3212f94e8ca27ae247c7427cdea095d04c27cd6e2ca4be9dec8747d268c022034e607982938700584c4b58330f6ac2f832a9f0f4bcc46837f99b8d4dc9590970121020bad5b0c49bca65564e9ee7ccab3b1c83a1c67bb22ed0b4a71aa935cab07c473ffffffffb43ebf364f149045bf8dd68ec29f89b129e6c6b323eef64c22a23ebfd9761ec7000000006a473044022068271ed8d87ad9a51d5793fa16fb65d8dd427114490738b9bb993377346e6b4502205a63a5d85e8b5b94b1ecccafba7ea7729f9661e401e3089100694f81eb0104fa012102bb5e502b0b97e632008366c3665205b8a8c1caf161157561da7e400ae8eb0c09ffffffff02aa650000000000001976a914ec95ff2dd0a99c58f125cc11d3bfa1a1539e7d7488ac803801000000000017a914c58363c39bcc7bf28278de43df10aeff6bba27488700000000", "vin": [{"sequence": 4294967295, "scriptSig": {"hex": "4730440220386ee3212f94e8ca27ae247c7427cdea095d04c27cd6e2ca4be9dec8747d268c022034e607982938700584c4b58330f6ac2f832a9f0f4bcc46837f99b8d4dc9590970121020bad5b0c49bca65564e9ee7ccab3b1c83a1c67bb22ed0b4a71aa935cab07c473", "asm": "30440220386ee3212f94e8ca27ae247c7427cdea095d04c27cd6e2ca4be9dec8747d268c022034e607982938700584c4b58330f6ac2f832a9f0f4bcc46837f99b8d4dc959097[ALL] 020bad5b0c49bca65564e9ee7ccab3b1c83a1c67bb22ed0b4a71aa935cab07c473"}, "vout": 19, "txid": "b6c510ae49565daf9693d7217758392ec138aeecc0a1801f0b6ac7f617a2fc8e"}, {"sequence": 4294967295, "scriptSig": {"hex": "473044022068271ed8d87ad9a51d5793fa16fb65d8dd427114490738b9bb993377346e6b4502205a63a5d85e8b5b94b1ecccafba7ea7729f9661e401e3089100694f81eb0104fa012102bb5e502b0b97e632008366c3665205b8a8c1caf161157561da7e400ae8eb0c09", "asm": "3044022068271ed8d87ad9a51d5793fa16fb65d8dd427114490738b9bb993377346e6b4502205a63a5d85e8b5b94b1ecccafba7ea7729f9661e401e3089100694f81eb0104fa[ALL] 02bb5e502b0b97e632008366c3665205b8a8c1caf161157561da7e400ae8eb0c09"}, "vout": 0, "txid": "c71e76d9bf3ea2224cf6ee23b3c6e629b1899fc28ed68dbf4590144f36bf3eb4"}], "txid": "10c259156e9a2ceaf910b93743f6d408bd57eab32c93a3252cbed43f2d23b944", "blocktime": 1537871767, "version": 1, "confirmations": 11495, "time": 1537871767, "locktime": 0, "vsize": 370, "size": 370}