{"hash": "10c5c933fcf81cf57f7ba421ee2083696ce18b5a3a2e76dac55a8970e2f35a0f", "blockhash": "0000000000000000001cda96e906b7601b7a6fb1a3b62bca570a9e5d8f4b3de1", "vout": [{"scriptPubKey": {"reqSigs": 1, "hex": "a914fd2bd54e6c5262738413263ace0580b0fab16ba387", "addresses": ["3QmfPfQJeSNvecyvWGMAHvUUheb6gEAYJx"], "asm": "OP_HASH160 fd2bd54e6c5262738413263ace0580b0fab16ba3 OP_EQUAL", "type": "scripthash"}, "value": 0.02, "n": 0}, {"scriptPubKey": {"reqSigs": 1, "hex": "a914b6fd88c8cbc8a9153034053693d2ca308ccfc0fd87", "addresses": ["3JNadL5rpBTR1jDVEEQQzCkZxk2mHnRWHy"], "asm": "OP_HASH160 b6fd88c8cbc8a9153034053693d2ca308ccfc0fd OP_EQUAL", "type": "scripthash"}, "value": 1.6882153, "n": 1}], "hex": "0200000001113625463511ac4096e6f19826259ba7e7ef7977f3034bcf86713f99f4481da101000000fc0047304402202db2efed0e2458cd04565e6637cc745c340f94b8d88efb52605f6be5e6a2d951022057f7c443429a244689d92a50ce01592983d88f5781f37209cafa6035e19bef6c0147304402205c3fd31bc665474eff0564b5ff6eefd0f1a839aa574241439a0d0d28abbdfee9022027f9cbd952d64f658cd4d5e359a534a4626c1f681b586e8234a5fe051e23c7b7014c69522102e62d45f51d2302f22fdeb0d4d9065a3650af6ae2ee789469b90a88f6573326a9210230b45086b930b3b79d5b187cf52cd2fbef969bb08b8aaea5c8743a9865dff76b210245f5c890b67c50628f012d6f98352e71d52c2d991b21e8bb6303c5dc5f6c895753ae000000000280841e000000000017a914fd2bd54e6c5262738413263ace0580b0fab16ba3871a03100a0000000017a914b6fd88c8cbc8a9153034053693d2ca308ccfc0fd8700000000", "vin": [{"sequence": 0, "scriptSig": {"hex": "0047304402202db2efed0e2458cd04565e6637cc745c340f94b8d88efb52605f6be5e6a2d951022057f7c443429a244689d92a50ce01592983d88f5781f37209cafa6035e19bef6c0147304402205c3fd31bc665474eff0564b5ff6eefd0f1a839aa574241439a0d0d28abbdfee9022027f9cbd952d64f658cd4d5e359a534a4626c1f681b586e8234a5fe051e23c7b7014c69522102e62d45f51d2302f22fdeb0d4d9065a3650af6ae2ee789469b90a88f6573326a9210230b45086b930b3b79d5b187cf52cd2fbef969bb08b8aaea5c8743a9865dff76b210245f5c890b67c50628f012d6f98352e71d52c2d991b21e8bb6303c5dc5f6c895753ae", "asm": "0 304402202db2efed0e2458cd04565e6637cc745c340f94b8d88efb52605f6be5e6a2d951022057f7c443429a244689d92a50ce01592983d88f5781f37209cafa6035e19bef6c[ALL] 304402205c3fd31bc665474eff0564b5ff6eefd0f1a839aa574241439a0d0d28abbdfee9022027f9cbd952d64f658cd4d5e359a534a4626c1f681b586e8234a5fe051e23c7b7[ALL] 522102e62d45f51d2302f22fdeb0d4d9065a3650af6ae2ee789469b90a88f6573326a9210230b45086b930b3b79d5b187cf52cd2fbef969bb08b8aaea5c8743a9865dff76b210245f5c890b67c50628f012d6f98352e71d52c2d991b21e8bb6303c5dc5f6c895753ae"}, "vout": 1, "txid": "a11d48f4993f7186cf4b03f37779efe7a79b252698f1e69640ac113546253611"}], "txid": "10c5c933fcf81cf57f7ba421ee2083696ce18b5a3a2e76dac55a8970e2f35a0f", "blocktime": 1537873282, "version": 2, "confirmations": 11481, "time": 1537873282, "locktime": 0, "vsize": 367, "size": 367}