{"hash": "10d121adbabb16d316c583d46aee1ca27133b0bbd33edb2db41fb09d2f1a383a", "blockhash": "0000000000000000000e13cef7c366c0283d82e591d1acd082e914b08063cdf1", "vout": [{"scriptPubKey": {"reqSigs": 1, "hex": "76a914c7f5610cb5a83af22077ad3cd1d849660091439d88ac", "addresses": ["1KEHRQxRcccSPTcNuwkeSnQmYbr7Feemux"], "asm": "OP_DUP OP_HASH160 c7f5610cb5a83af22077ad3cd1d849660091439d OP_EQUALVERIFY OP_CHECKSIG", "type": "pubkeyhash"}, "value": 0.04708623, "n": 0}, {"scriptPubKey": {"reqSigs": 1, "hex": "76a9149c858e1ff4bcab846e44624c6b2736d863ac4e8e88ac", "addresses": ["1FGcQW732oAZpvZruqqEdXaFc62Bj49kKV"], "asm": "OP_DUP OP_HASH160 9c858e1ff4bcab846e44624c6b2736d863ac4e8e OP_EQUALVERIFY OP_CHECKSIG", "type": "pubkeyhash"}, "value": 0.54979363, "n": 1}], "hex": "02000000019f6a77ca8299474efcf1f0aa674bfa1586f188969aed5e1f826ca691783d6eb5000000006b4830450221009c77c21c9b1209d9a2ad4aab482af2273a36cf2c60763603d94d1868351fec1702204ddd0cdc8b5f3bb84bf4fcc9717a456713af55e90fec870e4fea1d6f66c4b142012102a6f322b10c28b60b67b5d8b4c8bd766745937a945f66db63841de95b8b873cb5feffffff020fd94700000000001976a914c7f5610cb5a83af22077ad3cd1d849660091439d88ac23eb4603000000001976a9149c858e1ff4bcab846e44624c6b2736d863ac4e8e88ac10490800", "vin": [{"sequence": 4294967294, "scriptSig": {"hex": "4830450221009c77c21c9b1209d9a2ad4aab482af2273a36cf2c60763603d94d1868351fec1702204ddd0cdc8b5f3bb84bf4fcc9717a456713af55e90fec870e4fea1d6f66c4b142012102a6f322b10c28b60b67b5d8b4c8bd766745937a945f66db63841de95b8b873cb5", "asm": "30450221009c77c21c9b1209d9a2ad4aab482af2273a36cf2c60763603d94d1868351fec1702204ddd0cdc8b5f3bb84bf4fcc9717a456713af55e90fec870e4fea1d6f66c4b142[ALL] 02a6f322b10c28b60b67b5d8b4c8bd766745937a945f66db63841de95b8b873cb5"}, "vout": 0, "txid": "b56e3d7891a66c821f5eed9a9688f18615fa4b67aaf0f1fc4e479982ca776a9f"}], "txid": "10d121adbabb16d316c583d46aee1ca27133b0bbd33edb2db41fb09d2f1a383a", "blocktime": 1537871767, "version": 2, "confirmations": 11490, "time": 1537871767, "locktime": 542992, "vsize": 226, "size": 226}