{"hash": "10dc57365f405cdf437527d62b9fd683d61a758191d395ca789b9cadb38e343d", "blockhash": "0000000000000000001e0dab787dd257d1dbfcb92a98c2207d5e1078be1f4165", "vout": [{"scriptPubKey": {"reqSigs": 1, "hex": "76a914bd0c921de6f2a4f1115ca7e91c4ec2a999e2f80188ac", "addresses": ["1JEbmgvMs6ousbh9TxHLUoHLy2wh6sUKSL"], "asm": "OP_DUP OP_HASH160 bd0c921de6f2a4f1115ca7e91c4ec2a999e2f801 OP_EQUALVERIFY OP_CHECKSIG", "type": "pubkeyhash"}, "value": 0.00028031, "n": 0}, {"scriptPubKey": {"reqSigs": 1, "hex": "76a914e618347720b9eaacefb0207f2aa0cde4630f9e6688ac", "addresses": ["1MydQumuraHS2XGTgxUyFx2fBUNtBM8FpU"], "asm": "OP_DUP OP_HASH160 e618347720b9eaacefb0207f2aa0cde4630f9e66 OP_EQUALVERIFY OP_CHECKSIG", "type": "pubkeyhash"}, "value": 0.0249936, "n": 1}], "hex": "010000000c012cbf7cc9118387a77fa8c06249f313074ee45fbea760c116d593bc279ba936000000006a4730440220582962fbb9e2ba387fbacd991189a6e14b4ed804135cbbd49948adc196e5741702206f0e34b7afde9ee0b79baa981ad94e81c380f515270f979fae4a3925beae8ccf01210239267677331daccf21d6d9473776046f28750b66ecc5e8f6203c42853473a7b5ffffffffea5f868df8f2e4e9fd58be299ab1fa39b3acb2954542d8c4c3e69bc5a4deb046000000006a47304402200c38e36612101ba3ec17cb3ef84ad9173ce0a8a60822c629e88843b9fbb7dfb502204f248728c616393cf3474ae7f94bac203f8ea2f712d4958b3a83fcd4e6dd7a100121025e661087c858e28b075d09f8bafdc8306da3f183e9d5cd83522669e3d47b3a90ffffffff8d8156e9b210967b00baaf7f410a487cdca90fda42583611d446c67db5f42c50000000006b483045022100e69c7d62104a76c925a7a362b4957683258b8c8d7ef131cafc75fd209b490e6402202db6c6cb9900d511d8c0330590801ec42ac5ab4623bf2fbda7bd4a1d63b29e4601210347b6f1397f5cf4767842dc88b546f5ba59ec5d1a8f43987464c91be9bd9615cfffffffff606782fd0ed1d4d90b2be46aec666fbb2d148276cd23581ecb5c115d1ac6c964000000006a473044022020a2e4d21f1fd2497ad7694160d6d830ae90dab0a06761eb7d080f7bf8584f2e022022c320dd804612a70da3b77fb6bec06dc7648394f7776af876b97e3f59acadaf01210239267677331daccf21d6d9473776046f28750b66ecc5e8f6203c42853473a7b5ffffffffbf1b047a91dd266fbae0ef5516c9c4bb636537d4aedc8ce32db551d74ca3ec6b000000006a473044022041b4741fe02e2816e9c93c8763bc6c6c7f8288545aa7d6ec82477c6639168b5e02203089d180d397cafb2d66279949b5e386e05b0681bb550d40776393edf5de95450121025e661087c858e28b075d09f8bafdc8306da3f183e9d5cd83522669e3d47b3a90ffffffff1b63ba1c39a44e3e9700eb201c988d6b4ba5dbcbc4cc45d295cbb45c3246a089000000006b483045022100c7547edc229b393a8712a654a72e295b41bc7ad027a97fc3d07c811e2e623e480220567eb011f8a417cf5307258cb90f517eef3b8a0363f23efcbc4ad3e9dc45a88c0121031181d89a0d7459700bae966b2d3695b7c37028b603e15afc57a75ace8ca72477ffffffffad0be3882c95689bf1d11dbac5b05d5e34ac393903ac1f71c48f2181adc62f92000000006b483045022100c2b7b3f7ef9e94f6cd15897d98499bb4725ac61d8cddd7d2a865be8f44efb06d022044145c1f8f56f6509124c86fac1c1c4f376fd55f283a77273e39fa4c2f6f03910121025e661087c858e28b075d09f8bafdc8306da3f183e9d5cd83522669e3d47b3a90ffffffff4334ec645d1f972216a731730334ed81633ff01b84f71a48b85d8283ca8710a8000000006b48304502210086538b678b970b3c07f9b07801095fd8c4b94d67acb1d0acde10a5bca6583c6d02206f236373d59d874a4e35f80c7ab2807e090bae64a70a2f2b0914ecec17c2d213012103267c24f38d1994427ab38c1f0423b1a9c3bbd2a0ee697b146418cbea0bf4e52affffffffaa41f584794ebbf259807112600a8e5cf6363d16636e9f149603a34465f7edb3000000006b483045022100b49a68cfeae50a14a93afb94f5f69b17fe03b70529d94469632f2ddba0bfbfbf0220184b7492a5b9b4505b1e476df0a2985b99411ede6a48d580d1b493065b220ea60121031181d89a0d7459700bae966b2d3695b7c37028b603e15afc57a75ace8ca72477ffffffff7c817e11cdfea46a9a1799d0267e128cad50fa9ee1a599c60fc7845f1d918ec4000000006b483045022100e5cb8a19d7c54bcf82b11e734f172281f9beb16f67f3ff820d21032da8792454022003b9315f34732f953d23915330fe1238110f41c0f8309bbea5a8681e71519e110121032ecdbdcf4baed5680c7d5d7486dfd6d03eb3f88038467f8716daec1b0529f456fffffffff922fac12cafeaba643496d699db5a6ca75b1c7b7d939a706e18ed87720bbfce000000006a47304402205149745e6f60659f87db911c1433b767331ed0229869f9b50a7c4ce489c46e70022015cdd0a977fa3625f1d24259b6fb70abda67624529afde1672f3df4cb6a5b9ea0121033696976429da1bdb26c6774296aa940a421d30c5204871c5d383f1ed8795d925ffffffffc70670e103a851ae94603d6251597ebad2052945697db6120ab4700d946e82f7000000006b4830450221009e632ad71c1db9f74d16994e30a58585fef50e7ae13e957f56f1ac8e072f164102203f7af8aa9a5cbed22568ee7563de37c7d909d4c2935dc0740ed0dbfe272423a10121032ecdbdcf4baed5680c7d5d7486dfd6d03eb3f88038467f8716daec1b0529f456ffffffff027f6d0000000000001976a914bd0c921de6f2a4f1115ca7e91c4ec2a999e2f80188ac20232600000000001976a914e618347720b9eaacefb0207f2aa0cde4630f9e6688ac00000000", "vin": [{"sequence": 4294967295, "scriptSig": {"hex": "4730440220582962fbb9e2ba387fbacd991189a6e14b4ed804135cbbd49948adc196e5741702206f0e34b7afde9ee0b79baa981ad94e81c380f515270f979fae4a3925beae8ccf01210239267677331daccf21d6d9473776046f28750b66ecc5e8f6203c42853473a7b5", "asm": "30440220582962fbb9e2ba387fbacd991189a6e14b4ed804135cbbd49948adc196e5741702206f0e34b7afde9ee0b79baa981ad94e81c380f515270f979fae4a3925beae8ccf[ALL] 0239267677331daccf21d6d9473776046f28750b66ecc5e8f6203c42853473a7b5"}, "vout": 0, "txid": "36a99b27bc93d516c160a7be5fe44e0713f34962c0a87fa7878311c97cbf2c01"}, {"sequence": 4294967295, "scriptSig": {"hex": "47304402200c38e36612101ba3ec17cb3ef84ad9173ce0a8a60822c629e88843b9fbb7dfb502204f248728c616393cf3474ae7f94bac203f8ea2f712d4958b3a83fcd4e6dd7a100121025e661087c858e28b075d09f8bafdc8306da3f183e9d5cd83522669e3d47b3a90", "asm": "304402200c38e36612101ba3ec17cb3ef84ad9173ce0a8a60822c629e88843b9fbb7dfb502204f248728c616393cf3474ae7f94bac203f8ea2f712d4958b3a83fcd4e6dd7a10[ALL] 025e661087c858e28b075d09f8bafdc8306da3f183e9d5cd83522669e3d47b3a90"}, "vout": 0, "txid": "46b0dea4c59be6c3c4d8424595b2acb339fab19a29be58fde9e4f2f88d865fea"}, {"sequence": 4294967295, "scriptSig": {"hex": "483045022100e69c7d62104a76c925a7a362b4957683258b8c8d7ef131cafc75fd209b490e6402202db6c6cb9900d511d8c0330590801ec42ac5ab4623bf2fbda7bd4a1d63b29e4601210347b6f1397f5cf4767842dc88b546f5ba59ec5d1a8f43987464c91be9bd9615cf", "asm": "3045022100e69c7d62104a76c925a7a362b4957683258b8c8d7ef131cafc75fd209b490e6402202db6c6cb9900d511d8c0330590801ec42ac5ab4623bf2fbda7bd4a1d63b29e46[ALL] 0347b6f1397f5cf4767842dc88b546f5ba59ec5d1a8f43987464c91be9bd9615cf"}, "vout": 0, "txid": "502cf4b57dc646d411365842da0fa9dc7c480a417fafba007b9610b2e956818d"}, {"sequence": 4294967295, "scriptSig": {"hex": "473044022020a2e4d21f1fd2497ad7694160d6d830ae90dab0a06761eb7d080f7bf8584f2e022022c320dd804612a70da3b77fb6bec06dc7648394f7776af876b97e3f59acadaf01210239267677331daccf21d6d9473776046f28750b66ecc5e8f6203c42853473a7b5", "asm": "3044022020a2e4d21f1fd2497ad7694160d6d830ae90dab0a06761eb7d080f7bf8584f2e022022c320dd804612a70da3b77fb6bec06dc7648394f7776af876b97e3f59acadaf[ALL] 0239267677331daccf21d6d9473776046f28750b66ecc5e8f6203c42853473a7b5"}, "vout": 0, "txid": "64c9c61a5d115ccb1e5823cd7682142dbb6f66ec6ae42b0bd9d4d10efd826760"}, {"sequence": 4294967295, "scriptSig": {"hex": "473044022041b4741fe02e2816e9c93c8763bc6c6c7f8288545aa7d6ec82477c6639168b5e02203089d180d397cafb2d66279949b5e386e05b0681bb550d40776393edf5de95450121025e661087c858e28b075d09f8bafdc8306da3f183e9d5cd83522669e3d47b3a90", "asm": "3044022041b4741fe02e2816e9c93c8763bc6c6c7f8288545aa7d6ec82477c6639168b5e02203089d180d397cafb2d66279949b5e386e05b0681bb550d40776393edf5de9545[ALL] 025e661087c858e28b075d09f8bafdc8306da3f183e9d5cd83522669e3d47b3a90"}, "vout": 0, "txid": "6beca34cd751b52de38cdcaed4376563bbc4c91655efe0ba6f26dd917a041bbf"}, {"sequence": 4294967295, "scriptSig": {"hex": "483045022100c7547edc229b393a8712a654a72e295b41bc7ad027a97fc3d07c811e2e623e480220567eb011f8a417cf5307258cb90f517eef3b8a0363f23efcbc4ad3e9dc45a88c0121031181d89a0d7459700bae966b2d3695b7c37028b603e15afc57a75ace8ca72477", "asm": "3045022100c7547edc229b393a8712a654a72e295b41bc7ad027a97fc3d07c811e2e623e480220567eb011f8a417cf5307258cb90f517eef3b8a0363f23efcbc4ad3e9dc45a88c[ALL] 031181d89a0d7459700bae966b2d3695b7c37028b603e15afc57a75ace8ca72477"}, "vout": 0, "txid": "89a046325cb4cb95d245ccc4cbdba54b6b8d981c20eb00973e4ea4391cba631b"}, {"sequence": 4294967295, "scriptSig": {"hex": "483045022100c2b7b3f7ef9e94f6cd15897d98499bb4725ac61d8cddd7d2a865be8f44efb06d022044145c1f8f56f6509124c86fac1c1c4f376fd55f283a77273e39fa4c2f6f03910121025e661087c858e28b075d09f8bafdc8306da3f183e9d5cd83522669e3d47b3a90", "asm": "3045022100c2b7b3f7ef9e94f6cd15897d98499bb4725ac61d8cddd7d2a865be8f44efb06d022044145c1f8f56f6509124c86fac1c1c4f376fd55f283a77273e39fa4c2f6f0391[ALL] 025e661087c858e28b075d09f8bafdc8306da3f183e9d5cd83522669e3d47b3a90"}, "vout": 0, "txid": "922fc6ad81218fc4711fac033939ac345e5db0c5ba1dd1f19b68952c88e30bad"}, {"sequence": 4294967295, "scriptSig": {"hex": "48304502210086538b678b970b3c07f9b07801095fd8c4b94d67acb1d0acde10a5bca6583c6d02206f236373d59d874a4e35f80c7ab2807e090bae64a70a2f2b0914ecec17c2d213012103267c24f38d1994427ab38c1f0423b1a9c3bbd2a0ee697b146418cbea0bf4e52a", "asm": "304502210086538b678b970b3c07f9b07801095fd8c4b94d67acb1d0acde10a5bca6583c6d02206f236373d59d874a4e35f80c7ab2807e090bae64a70a2f2b0914ecec17c2d213[ALL] 03267c24f38d1994427ab38c1f0423b1a9c3bbd2a0ee697b146418cbea0bf4e52a"}, "vout": 0, "txid": "a81087ca83825db8481af7841bf03f6381ed34037331a71622971f5d64ec3443"}, {"sequence": 4294967295, "scriptSig": {"hex": "483045022100b49a68cfeae50a14a93afb94f5f69b17fe03b70529d94469632f2ddba0bfbfbf0220184b7492a5b9b4505b1e476df0a2985b99411ede6a48d580d1b493065b220ea60121031181d89a0d7459700bae966b2d3695b7c37028b603e15afc57a75ace8ca72477", "asm": "3045022100b49a68cfeae50a14a93afb94f5f69b17fe03b70529d94469632f2ddba0bfbfbf0220184b7492a5b9b4505b1e476df0a2985b99411ede6a48d580d1b493065b220ea6[ALL] 031181d89a0d7459700bae966b2d3695b7c37028b603e15afc57a75ace8ca72477"}, "vout": 0, "txid": "b3edf76544a30396149f6e63163d36f65c8e0a6012718059f2bb4e7984f541aa"}, {"sequence": 4294967295, "scriptSig": {"hex": "483045022100e5cb8a19d7c54bcf82b11e734f172281f9beb16f67f3ff820d21032da8792454022003b9315f34732f953d23915330fe1238110f41c0f8309bbea5a8681e71519e110121032ecdbdcf4baed5680c7d5d7486dfd6d03eb3f88038467f8716daec1b0529f456", "asm": "3045022100e5cb8a19d7c54bcf82b11e734f172281f9beb16f67f3ff820d21032da8792454022003b9315f34732f953d23915330fe1238110f41c0f8309bbea5a8681e71519e11[ALL] 032ecdbdcf4baed5680c7d5d7486dfd6d03eb3f88038467f8716daec1b0529f456"}, "vout": 0, "txid": "c48e911d5f84c70fc699a5e19efa50ad8c127e26d099179a6aa4fecd117e817c"}, {"sequence": 4294967295, "scriptSig": {"hex": "47304402205149745e6f60659f87db911c1433b767331ed0229869f9b50a7c4ce489c46e70022015cdd0a977fa3625f1d24259b6fb70abda67624529afde1672f3df4cb6a5b9ea0121033696976429da1bdb26c6774296aa940a421d30c5204871c5d383f1ed8795d925", "asm": "304402205149745e6f60659f87db911c1433b767331ed0229869f9b50a7c4ce489c46e70022015cdd0a977fa3625f1d24259b6fb70abda67624529afde1672f3df4cb6a5b9ea[ALL] 033696976429da1bdb26c6774296aa940a421d30c5204871c5d383f1ed8795d925"}, "vout": 0, "txid": "cebf0b7287ed186e709a937d7b1c5ba76c5adb99d6963464baeaaf2cc1fa22f9"}, {"sequence": 4294967295, "scriptSig": {"hex": "4830450221009e632ad71c1db9f74d16994e30a58585fef50e7ae13e957f56f1ac8e072f164102203f7af8aa9a5cbed22568ee7563de37c7d909d4c2935dc0740ed0dbfe272423a10121032ecdbdcf4baed5680c7d5d7486dfd6d03eb3f88038467f8716daec1b0529f456", "asm": "30450221009e632ad71c1db9f74d16994e30a58585fef50e7ae13e957f56f1ac8e072f164102203f7af8aa9a5cbed22568ee7563de37c7d909d4c2935dc0740ed0dbfe272423a1[ALL] 032ecdbdcf4baed5680c7d5d7486dfd6d03eb3f88038467f8716daec1b0529f456"}, "vout": 0, "txid": "f7826e940d70b40a12b67d69452905d2ba7e5951623d6094ae51a803e17006c7"}], "txid": "10dc57365f405cdf437527d62b9fd683d61a758191d395ca789b9cadb38e343d", "blocktime": 1537872475, "version": 1, "confirmations": 11487, "time": 1537872475, "locktime": 0, "vsize": 1849, "size": 1849}