{"hash": "10e40893ecb6d0fd241e701267167f84ca2e5280c123edf31f67bacff261d1a0", "blockhash": "0000000000000000000baef3f32e3676a92c3b2e5da21b426e4f302fc371ce76", "vout": [{"scriptPubKey": {"reqSigs": 1, "hex": "a91486ed17bfa7bd80cf87cf7e80abd9289079b78c5b87", "addresses": ["3DzSVk4veMCkNbNT9CdETeE26uWxmNbBnD"], "asm": "OP_HASH160 86ed17bfa7bd80cf87cf7e80abd9289079b78c5b OP_EQUAL", "type": "scripthash"}, "value": 0.45467181, "n": 0}, {"scriptPubKey": {"reqSigs": 1, "hex": "76a914b4ac6ce3a679ac5a40928a8cab1bf941811a893288ac", "addresses": ["1HUKBrTatKufGsdaknHYhedMqiuLv2Hbku"], "asm": "OP_DUP OP_HASH160 b4ac6ce3a679ac5a40928a8cab1bf941811a8932 OP_EQUALVERIFY OP_CHECKSIG", "type": "pubkeyhash"}, "value": 0.03207, "n": 1}], "hex": "02000000019ad7ea6c03b96bd54dfceef7d440001dcc576f0d171c5bbef3e0dab755dccc4700000000db00483045022100ffe926c35f3b32ea5eefa957f5f154e8299a996c973f5b651ed40d2b491e72e70220792f89db75a00ab06e9d57a1f197282d1eba82e222a6256714c67838887f399401483045022100d0012f03b85aacb5d0f17fd39b16e4968306ec29d609b233f15ae9d9cfd007b802206bd3d0a4ea64a2f5c93a90adddd3d19510ff2c0352902db0d5793f7e3145289c01475221038934160de8ad1dd529329f5bf51e3086cc0f6d19e10fb4120385f23d871c0c1d21021659435e23e3891d39ec2b0266b3c14a68cb4e45adb8543f31508310c98722d952aeffffffff022dc6b5020000000017a91486ed17bfa7bd80cf87cf7e80abd9289079b78c5b8758ef3000000000001976a914b4ac6ce3a679ac5a40928a8cab1bf941811a893288ac00000000", "vin": [{"sequence": 4294967295, "scriptSig": {"hex": "00483045022100ffe926c35f3b32ea5eefa957f5f154e8299a996c973f5b651ed40d2b491e72e70220792f89db75a00ab06e9d57a1f197282d1eba82e222a6256714c67838887f399401483045022100d0012f03b85aacb5d0f17fd39b16e4968306ec29d609b233f15ae9d9cfd007b802206bd3d0a4ea64a2f5c93a90adddd3d19510ff2c0352902db0d5793f7e3145289c01475221038934160de8ad1dd529329f5bf51e3086cc0f6d19e10fb4120385f23d871c0c1d21021659435e23e3891d39ec2b0266b3c14a68cb4e45adb8543f31508310c98722d952ae", "asm": "0 3045022100ffe926c35f3b32ea5eefa957f5f154e8299a996c973f5b651ed40d2b491e72e70220792f89db75a00ab06e9d57a1f197282d1eba82e222a6256714c67838887f3994[ALL] 3045022100d0012f03b85aacb5d0f17fd39b16e4968306ec29d609b233f15ae9d9cfd007b802206bd3d0a4ea64a2f5c93a90adddd3d19510ff2c0352902db0d5793f7e3145289c[ALL] 5221038934160de8ad1dd529329f5bf51e3086cc0f6d19e10fb4120385f23d871c0c1d21021659435e23e3891d39ec2b0266b3c14a68cb4e45adb8543f31508310c98722d952ae"}, "vout": 0, "txid": "47ccdc55b7dae0f3be5b1c170d6f57cc1d0040d4f7eefc4dd56bb9036cead79a"}], "txid": "10e40893ecb6d0fd241e701267167f84ca2e5280c123edf31f67bacff261d1a0", "blocktime": 1537876114, "version": 2, "confirmations": 11460, "time": 1537876114, "locktime": 0, "vsize": 336, "size": 336}