{"hash": "10e5fffcceb2f81bb3e1fdc6befbe782f5333532ac3a5fb50b3ac25f66afb8f3", "blockhash": "000000000000000000022b45ed06c6f4ccd3cf7fb5ba4856ebd2e58215665228", "vout": [{"scriptPubKey": {"reqSigs": 1, "hex": "76a91449c3fd334b193238f2651ae743f281d09cca8c2f88ac", "addresses": ["17j37ZdJDrGY5ro3vsrYs8N5tCAsXckkSw"], "asm": "OP_DUP OP_HASH160 49c3fd334b193238f2651ae743f281d09cca8c2f OP_EQUALVERIFY OP_CHECKSIG", "type": "pubkeyhash"}, "value": 0.29998281, "n": 0}], "hex": "01000000016b4d6b51f83f2da3cc10ee4c633adb2467f4a6c4cc86e3b4961ba69edff0dc07000000006b483045022100cf057a5aba148436171adb5a9140892e879c7b7570e315041516f2a89dcdd577022011ea81e3050f45e86c3feb6c6500f20e5b3b8b43e0a28f5f31033f703561603701210241f1740fcf1e98d79ef913bbf32fe0101fc8b9d706e5fa3dffaf771d7b161ebfffffffff01c9bcc901000000001976a91449c3fd334b193238f2651ae743f281d09cca8c2f88ac00000000", "vin": [{"sequence": 4294967295, "scriptSig": {"hex": "483045022100cf057a5aba148436171adb5a9140892e879c7b7570e315041516f2a89dcdd577022011ea81e3050f45e86c3feb6c6500f20e5b3b8b43e0a28f5f31033f703561603701210241f1740fcf1e98d79ef913bbf32fe0101fc8b9d706e5fa3dffaf771d7b161ebf", "asm": "3045022100cf057a5aba148436171adb5a9140892e879c7b7570e315041516f2a89dcdd577022011ea81e3050f45e86c3feb6c6500f20e5b3b8b43e0a28f5f31033f7035616037[ALL] 0241f1740fcf1e98d79ef913bbf32fe0101fc8b9d706e5fa3dffaf771d7b161ebf"}, "vout": 0, "txid": "07dcf0df9ea61b96b4e386ccc4a6f46724db3a634cee10cca32d3ff8516b4d6b"}], "txid": "10e5fffcceb2f81bb3e1fdc6befbe782f5333532ac3a5fb50b3ac25f66afb8f3", "blocktime": 1537869901, "version": 1, "confirmations": 11524, "time": 1537869901, "locktime": 0, "vsize": 192, "size": 192}