{"hash": "10e6980b4172c1c1b4812d51c52332ac6073ae3f8d72f68971c2c6ec00fe1376", "blockhash": "0000000000000000000dcc0f55137456b1a82d3642486a52398922ac4d620174", "vout": [{"scriptPubKey": {"reqSigs": 1, "hex": "76a914f3f22b9c826f9f6a3b59a298600c68573260b14788ac", "addresses": ["1PEsJuZNP34q5JuZJGCyDVJK3w3RX5GZwt"], "asm": "OP_DUP OP_HASH160 f3f22b9c826f9f6a3b59a298600c68573260b147 OP_EQUALVERIFY OP_CHECKSIG", "type": "pubkeyhash"}, "value": 0.00013454, "n": 0}, {"scriptPubKey": {"reqSigs": 1, "hex": "76a9143dac26cdd4f5cf734320a7e95c752b3d5438a50d88ac", "addresses": ["16d6T1B7rS3LogQqXkbzg2q87fQHHXBtqz"], "asm": "OP_DUP OP_HASH160 3dac26cdd4f5cf734320a7e95c752b3d5438a50d OP_EQUALVERIFY OP_CHECKSIG", "type": "pubkeyhash"}, "value": 0.03, "n": 1}], "hex": "0100000002c2bdfe65a77665e13ea9007e5b908428f5bf5cca587bedb2da66f39558ba1e42330000006b4830450221008fb666a77f07cd6fff4345b314b6b1c565cf438241e009b8b526508844e7c62d02203224ef9051233dba984a21d1b14b3bcc16e7c4c0c5fc016591dd759e0cb1e3550121033eea01a2ab1cbd2de0a9d4481cf24f5db150c3b02febcc1cca44f394e28041bdffffffffdf38dc0a9d7dada1b9275481c0a0f32633db5c0df3319f508606cc063a4541f5010000006a47304402203101f82b85ea215ac871fba18392a7dc37bc81208ba389c7d420fc66412648870220599cdd4220b2d29a5c91ad6becd361dfe07f85957ecd83a3b424a7ec18a2dc09012102ddc64ec552eb165d43925e8c62b9f6c8e705efbe7f101be5dc48be8b0b847b7dffffffff028e340000000000001976a914f3f22b9c826f9f6a3b59a298600c68573260b14788acc0c62d00000000001976a9143dac26cdd4f5cf734320a7e95c752b3d5438a50d88ac00000000", "vin": [{"sequence": 4294967295, "scriptSig": {"hex": "4830450221008fb666a77f07cd6fff4345b314b6b1c565cf438241e009b8b526508844e7c62d02203224ef9051233dba984a21d1b14b3bcc16e7c4c0c5fc016591dd759e0cb1e3550121033eea01a2ab1cbd2de0a9d4481cf24f5db150c3b02febcc1cca44f394e28041bd", "asm": "30450221008fb666a77f07cd6fff4345b314b6b1c565cf438241e009b8b526508844e7c62d02203224ef9051233dba984a21d1b14b3bcc16e7c4c0c5fc016591dd759e0cb1e355[ALL] 033eea01a2ab1cbd2de0a9d4481cf24f5db150c3b02febcc1cca44f394e28041bd"}, "vout": 51, "txid": "421eba5895f366dab2ed7b58ca5cbff52884905b7e00a93ee16576a765febdc2"}, {"sequence": 4294967295, "scriptSig": {"hex": "47304402203101f82b85ea215ac871fba18392a7dc37bc81208ba389c7d420fc66412648870220599cdd4220b2d29a5c91ad6becd361dfe07f85957ecd83a3b424a7ec18a2dc09012102ddc64ec552eb165d43925e8c62b9f6c8e705efbe7f101be5dc48be8b0b847b7d", "asm": "304402203101f82b85ea215ac871fba18392a7dc37bc81208ba389c7d420fc66412648870220599cdd4220b2d29a5c91ad6becd361dfe07f85957ecd83a3b424a7ec18a2dc09[ALL] 02ddc64ec552eb165d43925e8c62b9f6c8e705efbe7f101be5dc48be8b0b847b7d"}, "vout": 1, "txid": "f541453a06cc0686509f31f30d5cdb3326f3a0c0815427b9a1ad7d9d0adc38df"}], "txid": "10e6980b4172c1c1b4812d51c52332ac6073ae3f8d72f68971c2c6ec00fe1376", "blocktime": 1537870268, "version": 1, "confirmations": 11516, "time": 1537870268, "locktime": 0, "vsize": 373, "size": 373}