{"hash": "86530d9851e10fbad6ccac6db4c77c07338c52c05b109bb5fe6e8e17ad396ed5", "blockhash": "00000000000000000024a2167bbff67b0be802c0b01cdd79e6331c2be6459f87", "vout": [{"scriptPubKey": {"reqSigs": 1, "hex": "76a9142cbce083b40fcbb7921acf98755d7b3ea42eec1488ac", "addresses": ["155Yzr2NoCzFv5fVjxJv5HfbxPpG5Wrgvu"], "asm": "OP_DUP OP_HASH160 2cbce083b40fcbb7921acf98755d7b3ea42eec14 OP_EQUALVERIFY OP_CHECKSIG", "type": "pubkeyhash"}, "value": 0.001092, "n": 0}, {"scriptPubKey": {"reqSigs": 1, "hex": "a914627aa52932456d89054bd84f86246af3b71b93a887", "addresses": ["3Afj4stdiLG9EktGrMbm252ySonnhYaz8v"], "asm": "OP_HASH160 627aa52932456d89054bd84f86246af3b71b93a8 OP_EQUAL", "type": "scripthash"}, "value": 0.51868159, "n": 1}], "hex": "0100000000010156b3809d6937f6ba6749a3a9813f3cba24881c68d57def7356ebad564c74a83c01000000232200205fdd641234b13964b223bd85ad2a4a667ca2099df3d42a1d3b45706a8d81abf0ffffffff0290aa0100000000001976a9142cbce083b40fcbb7921acf98755d7b3ea42eec1488acff7117030000000017a914627aa52932456d89054bd84f86246af3b71b93a887040048304502210090d5088415a5e82a31f0d52b52f218abbf7e2331b121e4e9cb36087e28a37ac902204af464796d2faa4b2a8d9d63faa452bf4a70673fb4800eeef681e49f55c8e362014830450221009d1e5354b6c6870a2f7dfa4e07917fdf9d21751d4f6deb2971d7b60ea6fccce002204641aa1ccf9b51dfe1b7abcadd0ebdad9ef01534bc30aac96ddb01b8d02eea9d0147522103dcde3832fa56def7b4e783faad1b8af85c3cdd74a5ff4f3c7c216b1075c18da12103c70ae8ded79be1afda73b9ce5ea14a3878908ee160d66a9a717e792bb6db276952ae00000000", "vin": [{"txinwitness": ["", "304502210090d5088415a5e82a31f0d52b52f218abbf7e2331b121e4e9cb36087e28a37ac902204af464796d2faa4b2a8d9d63faa452bf4a70673fb4800eeef681e49f55c8e36201", "30450221009d1e5354b6c6870a2f7dfa4e07917fdf9d21751d4f6deb2971d7b60ea6fccce002204641aa1ccf9b51dfe1b7abcadd0ebdad9ef01534bc30aac96ddb01b8d02eea9d01", "522103dcde3832fa56def7b4e783faad1b8af85c3cdd74a5ff4f3c7c216b1075c18da12103c70ae8ded79be1afda73b9ce5ea14a3878908ee160d66a9a717e792bb6db276952ae"], "sequence": 4294967295, "scriptSig": {"hex": "2200205fdd641234b13964b223bd85ad2a4a667ca2099df3d42a1d3b45706a8d81abf0", "asm": "00205fdd641234b13964b223bd85ad2a4a667ca2099df3d42a1d3b45706a8d81abf0"}, "vout": 1, "txid": "3ca8744c56adeb5673ef7dd5681c8824ba3c3f81a9a34967baf637699d80b356"}], "txid": "10e7fd7d5f972392d6e70646ddb9503d8dc3a1da84a3ff42593485c89f3dbe31", "blocktime": 1537870564, "version": 1, "confirmations": 11515, "time": 1537870564, "locktime": 0, "vsize": 208, "size": 374}