{"hash": "10eb9c526c80fd330fc6d8f51ae878f978fd388b7321fd1e3cc47ee88720eb37", "blockhash": "0000000000000000000baef3f32e3676a92c3b2e5da21b426e4f302fc371ce76", "vout": [{"scriptPubKey": {"reqSigs": 1, "hex": "76a914ffa604f0ba77ecbe289b27699012997f4a9b559f88ac", "addresses": ["1QJkC97NGeaca2jgBYuB43sV87tXUR1FSa"], "asm": "OP_DUP OP_HASH160 ffa604f0ba77ecbe289b27699012997f4a9b559f OP_EQUALVERIFY OP_CHECKSIG", "type": "pubkeyhash"}, "value": 0.15620232, "n": 0}], "hex": "0100000001b5efc825ac8610229673b85bc5a71387763f9e442fafdbead8d33398a9f30787000000006a47304402200f4b65dbc93035743e6426900d091a327fdb37b28054207939f8ef24a78acad602206abc7d1aed7b54e571d6fa7d0dc4b53dfa26dcb672e3944a9c4973b41f6be9730121025ff67cfb744f3027bee3358da41638d2412eb0db0c4034ec3a48aa5d50dd471fffffffff018858ee00000000001976a914ffa604f0ba77ecbe289b27699012997f4a9b559f88ac00000000", "vin": [{"sequence": 4294967295, "scriptSig": {"hex": "47304402200f4b65dbc93035743e6426900d091a327fdb37b28054207939f8ef24a78acad602206abc7d1aed7b54e571d6fa7d0dc4b53dfa26dcb672e3944a9c4973b41f6be9730121025ff67cfb744f3027bee3358da41638d2412eb0db0c4034ec3a48aa5d50dd471f", "asm": "304402200f4b65dbc93035743e6426900d091a327fdb37b28054207939f8ef24a78acad602206abc7d1aed7b54e571d6fa7d0dc4b53dfa26dcb672e3944a9c4973b41f6be973[ALL] 025ff67cfb744f3027bee3358da41638d2412eb0db0c4034ec3a48aa5d50dd471f"}, "vout": 0, "txid": "8707f3a99833d3d8eadbaf2f449e3f768713a7c55bb87396221086ac25c8efb5"}], "txid": "10eb9c526c80fd330fc6d8f51ae878f978fd388b7321fd1e3cc47ee88720eb37", "blocktime": 1537876114, "version": 1, "confirmations": 11460, "time": 1537876114, "locktime": 0, "vsize": 191, "size": 191}