{"hash": "10f03b3cf6906f1326f4552604982ccc0eb5699bbe6d57d022800fa15a728629", "blockhash": "0000000000000000000baef3f32e3676a92c3b2e5da21b426e4f302fc371ce76", "vout": [{"scriptPubKey": {"reqSigs": 1, "hex": "76a914f9bae97cdd45cf9bada32598b69c278c8f300f4b88ac", "addresses": ["1PmTAeKgbmiApBSL4QBmDNNjiBAqynrmhb"], "asm": "OP_DUP OP_HASH160 f9bae97cdd45cf9bada32598b69c278c8f300f4b OP_EQUALVERIFY OP_CHECKSIG", "type": "pubkeyhash"}, "value": 0.00526374, "n": 0}, {"scriptPubKey": {"reqSigs": 1, "hex": "76a91416d5569a40a77f88f8d6cea16f0ad0fb1bb6f1ae88ac", "addresses": ["135jSE2aXa54K2XYrst9L2wq9xMGMQHmYG"], "asm": "OP_DUP OP_HASH160 16d5569a40a77f88f8d6cea16f0ad0fb1bb6f1ae OP_EQUALVERIFY OP_CHECKSIG", "type": "pubkeyhash"}, "value": 89.09753608, "n": 1}], "hex": "0100000001dd44fffdb1b1466704ced660f695a7593f5f19398eaa5c38c6abe034a3979e50000000006b483045022100a4d0918648353b36edb3f1bc3a135b5bfeecdcb2ccf0829fe73d6bdf24f34cb102203073251487388945cf775a849443d91e8e1a9bf124cf289d71ff5aab285d119e012102922fb43d27bb4ef3823e9c3510b9a1ad5b270cc67f982f2f5948ce1d920e8b25ffffffff0226080800000000001976a914f9bae97cdd45cf9bada32598b69c278c8f300f4b88ac080d1013020000001976a91416d5569a40a77f88f8d6cea16f0ad0fb1bb6f1ae88ac00000000", "vin": [{"sequence": 4294967295, "scriptSig": {"hex": "483045022100a4d0918648353b36edb3f1bc3a135b5bfeecdcb2ccf0829fe73d6bdf24f34cb102203073251487388945cf775a849443d91e8e1a9bf124cf289d71ff5aab285d119e012102922fb43d27bb4ef3823e9c3510b9a1ad5b270cc67f982f2f5948ce1d920e8b25", "asm": "3045022100a4d0918648353b36edb3f1bc3a135b5bfeecdcb2ccf0829fe73d6bdf24f34cb102203073251487388945cf775a849443d91e8e1a9bf124cf289d71ff5aab285d119e[ALL] 02922fb43d27bb4ef3823e9c3510b9a1ad5b270cc67f982f2f5948ce1d920e8b25"}, "vout": 0, "txid": "509e97a334e0abc6385caa8e39195f3f59a795f660d6ce046746b1b1fdff44dd"}], "txid": "10f03b3cf6906f1326f4552604982ccc0eb5699bbe6d57d022800fa15a728629", "blocktime": 1537876114, "version": 1, "confirmations": 11459, "time": 1537876114, "locktime": 0, "vsize": 226, "size": 226}