{"hash": "10f1757ab77314f57dcb6e69682c3180a3f1ed5bd31b293f30727084de6df046", "blockhash": "00000000000000000018f53835495a110e01622372bf6ae95dc86f2b0ab887b0", "vout": [{"scriptPubKey": {"reqSigs": 1, "hex": "a9144238190ef1252cc4f4f472672437aa6ab8cec9cc87", "addresses": ["37j9ixH9FiQN1FxNE8TEboiQ1ZMEkRuQYW"], "asm": "OP_HASH160 4238190ef1252cc4f4f472672437aa6ab8cec9cc OP_EQUAL", "type": "scripthash"}, "value": 0.00643231, "n": 0}], "hex": "0100000008fd6579b5bdea49a7fd6621f7dbe32c6a2ab02e8399219096127083b5fa861807000000006b483045022100ce5e5a61dce556f1726f6270083cf38de2a2c64b601cb7afb4db7fd9320c728c0220110b016a634a8e1d8c52c03d047a2bca275293bb3f9b4c1b013786415d83d09a012103120e31f29c81e6603cde4bb84c5033a0610106e6eb960e9e1e9c411551ecab5affffffff4a7748000721889135ca976d2ab88480be8b34f67b33bed4663c568ccafd9f2d000000006b4830450221009ec0af2966105411897f7a0e318451b1ccfd7128f5ee96d996eeead742400efe02202ca5cf234ff326fd29632d2946af924459dc9b62e1bf9c70c95dbdf7c80300660121035b8134a6ad9a77bfec06d4f4c8f16f5ca1c733ac3bdb9db11e5c9b5b2ddc8080ffffffffa9bcaf99700b7229215e998379cb2327848578c09ebb9817c59deabde375b031000000006b483045022100d241416833afc9dd765aa72c1168bc7e7776730ae24f7fea9a3d665906a2bebe022063f51a95140649af2f442644608f1ac0d9cca1d2ea4fcad241003e2d976b2e2d0121026193ed802dd3e481ca7ed529a6f087deba4493c1bf10539c04acb65dbec90ce8ffffffffb2caede83eefba75ad1ac46ae1f1f17acf970a82996ec0840992647c07bfc03a000000006a47304402203614c03bd8bfb3e67df209c119d06e5742e8ee5b1455e104674601e1e422711302201881ba4feddddd057b7ac052b1f9d1268890e358a7bf1ea51657ff8b2bf0422101210210edbe7c3cc782c00fc85ad01eb1267f890465c222016f2cbd5d25e413cfe0c0ffffffff9d9054a5a0a6675b27cb7863c90ea36eb1dbe783c830e03ea424fe4fbef21d5c000000006a47304402206b47eaeb9c8248101e916597eae3261e529d2866f29511fecffa947998854b1b022079bed5a30f450db0537aa32f24e59007f28c9cff35f108722f49c54af4c10dcb0121037f6fa8275976ac013d16e52d9fdf2ade3ac982c25f8af77d803f4ccb18f9d33dffffffffe67ef24b74849abf752b55cc0e5e3b4fec14d50f021040171e6345e115894d7e070000006b483045022100c56ace7d544b1b1642f3577709a7aa27ea4cfb174c62f148211fce3e780a8b15022060c1fa374e03301955a20984b11838c6adb05159f58161fcb3c0b1568372bf1a012102583001b286732534c30fdecee8d0b891ef1577e2f550b183281f42cd71b10967ffffffff9b9de0b5da5d4a19a0ae147348228fa6e1fd5b65b69ddad6ae4bf21f1fe9c4f9000000006a473044022063be6509c131df5136d212a900bddf1466159056df6bb4a05c4616cea0e6760c02204dadcf32ecf7be72fca8e5eecb5ce75fec83e58f291c4cd00f0984a8e4e9347901210308bf7b2dca175c0d210b8ad18e7cbffd3c05251cd5281d9991c38fba57ee704fffffffff0f96002c5efbc7ebb2b4409bc88695ac4ea4fdfdd0fdcf1ab03027df1e72c9fe000000006a47304402202bc52a0046049f8911956f171c16cf6e57ef2ae5dad24d8bb9db294886f98dce022001859e650a6e9d0fcdca7fe0ac31cbb0530760111332450cce7e82eba1a9e82b0121031cc86c090c2ae45c079acf6bef9c769360d4f525370031f298a0cf47ba019ae1ffffffff019fd009000000000017a9144238190ef1252cc4f4f472672437aa6ab8cec9cc8700000000", "vin": [{"sequence": 4294967295, "scriptSig": {"hex": "483045022100ce5e5a61dce556f1726f6270083cf38de2a2c64b601cb7afb4db7fd9320c728c0220110b016a634a8e1d8c52c03d047a2bca275293bb3f9b4c1b013786415d83d09a012103120e31f29c81e6603cde4bb84c5033a0610106e6eb960e9e1e9c411551ecab5a", "asm": "3045022100ce5e5a61dce556f1726f6270083cf38de2a2c64b601cb7afb4db7fd9320c728c0220110b016a634a8e1d8c52c03d047a2bca275293bb3f9b4c1b013786415d83d09a[ALL] 03120e31f29c81e6603cde4bb84c5033a0610106e6eb960e9e1e9c411551ecab5a"}, "vout": 0, "txid": "071886fab583701296902199832eb02a6a2ce3dbf72166fda749eabdb57965fd"}, {"sequence": 4294967295, "scriptSig": {"hex": "4830450221009ec0af2966105411897f7a0e318451b1ccfd7128f5ee96d996eeead742400efe02202ca5cf234ff326fd29632d2946af924459dc9b62e1bf9c70c95dbdf7c80300660121035b8134a6ad9a77bfec06d4f4c8f16f5ca1c733ac3bdb9db11e5c9b5b2ddc8080", "asm": "30450221009ec0af2966105411897f7a0e318451b1ccfd7128f5ee96d996eeead742400efe02202ca5cf234ff326fd29632d2946af924459dc9b62e1bf9c70c95dbdf7c8030066[ALL] 035b8134a6ad9a77bfec06d4f4c8f16f5ca1c733ac3bdb9db11e5c9b5b2ddc8080"}, "vout": 0, "txid": "2d9ffdca8c563c66d4be337bf6348bbe8084b82a6d97ca35918821070048774a"}, {"sequence": 4294967295, "scriptSig": {"hex": "483045022100d241416833afc9dd765aa72c1168bc7e7776730ae24f7fea9a3d665906a2bebe022063f51a95140649af2f442644608f1ac0d9cca1d2ea4fcad241003e2d976b2e2d0121026193ed802dd3e481ca7ed529a6f087deba4493c1bf10539c04acb65dbec90ce8", "asm": "3045022100d241416833afc9dd765aa72c1168bc7e7776730ae24f7fea9a3d665906a2bebe022063f51a95140649af2f442644608f1ac0d9cca1d2ea4fcad241003e2d976b2e2d[ALL] 026193ed802dd3e481ca7ed529a6f087deba4493c1bf10539c04acb65dbec90ce8"}, "vout": 0, "txid": "31b075e3bdea9dc51798bb9ec07885842723cb7983995e2129720b7099afbca9"}, {"sequence": 4294967295, "scriptSig": {"hex": "47304402203614c03bd8bfb3e67df209c119d06e5742e8ee5b1455e104674601e1e422711302201881ba4feddddd057b7ac052b1f9d1268890e358a7bf1ea51657ff8b2bf0422101210210edbe7c3cc782c00fc85ad01eb1267f890465c222016f2cbd5d25e413cfe0c0", "asm": "304402203614c03bd8bfb3e67df209c119d06e5742e8ee5b1455e104674601e1e422711302201881ba4feddddd057b7ac052b1f9d1268890e358a7bf1ea51657ff8b2bf04221[ALL] 0210edbe7c3cc782c00fc85ad01eb1267f890465c222016f2cbd5d25e413cfe0c0"}, "vout": 0, "txid": "3ac0bf077c64920984c06e99820a97cf7af1f1e16ac41aad75baef3ee8edcab2"}, {"sequence": 4294967295, "scriptSig": {"hex": "47304402206b47eaeb9c8248101e916597eae3261e529d2866f29511fecffa947998854b1b022079bed5a30f450db0537aa32f24e59007f28c9cff35f108722f49c54af4c10dcb0121037f6fa8275976ac013d16e52d9fdf2ade3ac982c25f8af77d803f4ccb18f9d33d", "asm": "304402206b47eaeb9c8248101e916597eae3261e529d2866f29511fecffa947998854b1b022079bed5a30f450db0537aa32f24e59007f28c9cff35f108722f49c54af4c10dcb[ALL] 037f6fa8275976ac013d16e52d9fdf2ade3ac982c25f8af77d803f4ccb18f9d33d"}, "vout": 0, "txid": "5c1df2be4ffe24a43ee030c883e7dbb16ea30ec96378cb275b67a6a0a554909d"}, {"sequence": 4294967295, "scriptSig": {"hex": "483045022100c56ace7d544b1b1642f3577709a7aa27ea4cfb174c62f148211fce3e780a8b15022060c1fa374e03301955a20984b11838c6adb05159f58161fcb3c0b1568372bf1a012102583001b286732534c30fdecee8d0b891ef1577e2f550b183281f42cd71b10967", "asm": "3045022100c56ace7d544b1b1642f3577709a7aa27ea4cfb174c62f148211fce3e780a8b15022060c1fa374e03301955a20984b11838c6adb05159f58161fcb3c0b1568372bf1a[ALL] 02583001b286732534c30fdecee8d0b891ef1577e2f550b183281f42cd71b10967"}, "vout": 7, "txid": "7e4d8915e145631e174010020fd514ec4f3b5e0ecc552b75bf9a84744bf27ee6"}, {"sequence": 4294967295, "scriptSig": {"hex": "473044022063be6509c131df5136d212a900bddf1466159056df6bb4a05c4616cea0e6760c02204dadcf32ecf7be72fca8e5eecb5ce75fec83e58f291c4cd00f0984a8e4e9347901210308bf7b2dca175c0d210b8ad18e7cbffd3c05251cd5281d9991c38fba57ee704f", "asm": "3044022063be6509c131df5136d212a900bddf1466159056df6bb4a05c4616cea0e6760c02204dadcf32ecf7be72fca8e5eecb5ce75fec83e58f291c4cd00f0984a8e4e93479[ALL] 0308bf7b2dca175c0d210b8ad18e7cbffd3c05251cd5281d9991c38fba57ee704f"}, "vout": 0, "txid": "f9c4e91f1ff24baed6da9db6655bfde1a68f22487314aea0194a5ddab5e09d9b"}, {"sequence": 4294967295, "scriptSig": {"hex": "47304402202bc52a0046049f8911956f171c16cf6e57ef2ae5dad24d8bb9db294886f98dce022001859e650a6e9d0fcdca7fe0ac31cbb0530760111332450cce7e82eba1a9e82b0121031cc86c090c2ae45c079acf6bef9c769360d4f525370031f298a0cf47ba019ae1", "asm": "304402202bc52a0046049f8911956f171c16cf6e57ef2ae5dad24d8bb9db294886f98dce022001859e650a6e9d0fcdca7fe0ac31cbb0530760111332450cce7e82eba1a9e82b[ALL] 031cc86c090c2ae45c079acf6bef9c769360d4f525370031f298a0cf47ba019ae1"}, "vout": 0, "txid": "fec9721edf2730b01acffdd0fdfda44eac9586c89b40b4b2ebc7fb5e2c00960f"}], "txid": "10f1757ab77314f57dcb6e69682c3180a3f1ed5bd31b293f30727084de6df046", "blocktime": 1537870928, "version": 1, "confirmations": 11514, "time": 1537870928, "locktime": 0, "vsize": 1222, "size": 1222}