{"hash": "11015edf51dd89195be3530614ca870f340702151712b90192c5a9982add1fce", "blockhash": "0000000000000000001cda96e906b7601b7a6fb1a3b62bca570a9e5d8f4b3de1", "vout": [{"scriptPubKey": {"type": "nulldata", "hex": "6a146f6d6e69000000000000001f00000716942d7055", "asm": "OP_RETURN 6f6d6e69000000000000001f00000716942d7055"}, "value": 0.0, "n": 0}, {"scriptPubKey": {"reqSigs": 1, "hex": "76a914a25dec4d0011064ef106a983c39c7a540699f22088ac", "addresses": ["1FoWyxwPXuj4C6abqwhjDWdz6D4PZgYRjA"], "asm": "OP_DUP OP_HASH160 a25dec4d0011064ef106a983c39c7a540699f220 OP_EQUALVERIFY OP_CHECKSIG", "type": "pubkeyhash"}, "value": 0.01976027, "n": 1}, {"scriptPubKey": {"reqSigs": 1, "hex": "76a91406f4ce464ffc62a3bd4e05ecaee45d0efb38db1388ac", "addresses": ["1dnKZ6fh7A3kxGeHmFPs1jMUtD9uqgXrn"], "asm": "OP_DUP OP_HASH160 06f4ce464ffc62a3bd4e05ecaee45d0efb38db13 OP_EQUALVERIFY OP_CHECKSIG", "type": "pubkeyhash"}, "value": 5.46e-06, "n": 2}], "hex": "0100000001a37013cd493c9bd23b7f50888ae992ee26a9e747d16793143e5871a216fd2817020000006b483045022100cbe29add20bab4e9513151de696253cc2c57b2ec5ee58d9495a18f4ef865147602203abd39f955e5bf86dc888e13eb7c01cdb80ff358c0d7beedffc35eb25e01b2b9012103da5bac7b36d5aa38f531c6b9601e21bb598a4b6716ebed38b009a55dabde9440feffffff030000000000000000166a146f6d6e69000000000000001f00000716942d7055db261e00000000001976a914a25dec4d0011064ef106a983c39c7a540699f22088ac22020000000000001976a91406f4ce464ffc62a3bd4e05ecaee45d0efb38db1388ac13490800", "vin": [{"sequence": 4294967294, "scriptSig": {"hex": "483045022100cbe29add20bab4e9513151de696253cc2c57b2ec5ee58d9495a18f4ef865147602203abd39f955e5bf86dc888e13eb7c01cdb80ff358c0d7beedffc35eb25e01b2b9012103da5bac7b36d5aa38f531c6b9601e21bb598a4b6716ebed38b009a55dabde9440", "asm": "3045022100cbe29add20bab4e9513151de696253cc2c57b2ec5ee58d9495a18f4ef865147602203abd39f955e5bf86dc888e13eb7c01cdb80ff358c0d7beedffc35eb25e01b2b9[ALL] 03da5bac7b36d5aa38f531c6b9601e21bb598a4b6716ebed38b009a55dabde9440"}, "vout": 2, "txid": "1728fd16a271583e149367d147e7a926ee92e98a88507f3bd29b3c49cd1370a3"}], "txid": "11015edf51dd89195be3530614ca870f340702151712b90192c5a9982add1fce", "blocktime": 1537873282, "version": 1, "confirmations": 11481, "time": 1537873282, "locktime": 542995, "vsize": 257, "size": 257}