{"hash": "110319d1cc0f02984cd1f279d3a4c5d8dd940da8e122fce1fb848b26dcb96163", "blockhash": "00000000000000000017f5eb5941039fbcee6240d03bc1f2f8e35350df66a1d8", "vout": [{"scriptPubKey": {"reqSigs": 1, "hex": "76a9149bf878e70c79e613d0cf52ced68a26f84e2657db88ac", "addresses": ["1FDhPtdEBPRmKaCLfshdyECC62fW32j1v2"], "asm": "OP_DUP OP_HASH160 9bf878e70c79e613d0cf52ced68a26f84e2657db OP_EQUALVERIFY OP_CHECKSIG", "type": "pubkeyhash"}, "value": 0.00201282, "n": 0}, {"scriptPubKey": {"reqSigs": 1, "hex": "a914848d76cb2e93860aa5b791f15e960661dad7f1de87", "addresses": ["3DmtaxaSHCRE8gKW9Q5XyJj9CNPAhe4Vvp"], "asm": "OP_HASH160 848d76cb2e93860aa5b791f15e960661dad7f1de OP_EQUAL", "type": "scripthash"}, "value": 0.00374749, "n": 1}], "hex": "0100000001309f9cc977fc89dfa3ee0be7a9218415e406d058c3277f1a91adfba05a9357f4440000006a473044022009199e0437b9aa3faef959b1b128e14e136a200bb5e7aa22f6333968dd7f5ea3022027de6dfa561884cdc1e1194118d56bdcb9d95550f6a7dacbcbf0841a54ee481c01210325c67c0f0902212821369758808b666b56055a6a3baff94472012b60097d4b60ffffffff0242120300000000001976a9149bf878e70c79e613d0cf52ced68a26f84e2657db88acddb705000000000017a914848d76cb2e93860aa5b791f15e960661dad7f1de8700000000", "vin": [{"sequence": 4294967295, "scriptSig": {"hex": "473044022009199e0437b9aa3faef959b1b128e14e136a200bb5e7aa22f6333968dd7f5ea3022027de6dfa561884cdc1e1194118d56bdcb9d95550f6a7dacbcbf0841a54ee481c01210325c67c0f0902212821369758808b666b56055a6a3baff94472012b60097d4b60", "asm": "3044022009199e0437b9aa3faef959b1b128e14e136a200bb5e7aa22f6333968dd7f5ea3022027de6dfa561884cdc1e1194118d56bdcb9d95550f6a7dacbcbf0841a54ee481c[ALL] 0325c67c0f0902212821369758808b666b56055a6a3baff94472012b60097d4b60"}, "vout": 68, "txid": "f457935aa0fbad911a7f27c358d006e4158421a9e70beea3df89fc77c99c9f30"}], "txid": "110319d1cc0f02984cd1f279d3a4c5d8dd940da8e122fce1fb848b26dcb96163", "blocktime": 1537874412, "version": 1, "confirmations": 11466, "time": 1537874412, "locktime": 0, "vsize": 223, "size": 223}