{"hash": "110cbd8267cd6466db8a9e1fd85011bdd6c6859f35fa7add3bcdc9ac7d0caa29", "blockhash": "0000000000000000000baef3f32e3676a92c3b2e5da21b426e4f302fc371ce76", "vout": [{"scriptPubKey": {"reqSigs": 1, "hex": "76a914048f8495f56dddf978e4811aa8e7299ac8194b2988ac", "addresses": ["1R7dZsYDYpGMj3vYvbGGrHVUivyV5vuiz"], "asm": "OP_DUP OP_HASH160 048f8495f56dddf978e4811aa8e7299ac8194b29 OP_EQUALVERIFY OP_CHECKSIG", "type": "pubkeyhash"}, "value": 0.1265937, "n": 0}, {"scriptPubKey": {"reqSigs": 1, "hex": "a9144c65934a9d26b6ef2d8ad6e1e39ff603754f916387", "addresses": ["38exxhhBWXutDSNGNfybQjsNTiEG7zNXfi"], "asm": "OP_HASH160 4c65934a9d26b6ef2d8ad6e1e39ff603754f9163 OP_EQUAL", "type": "scripthash"}, "value": 0.28845342, "n": 1}], "hex": "0100000001f6cd1ef51232d96ea5c7a801bc0b7178f28ed32d43506902a994f15f6ca85b21020000006a47304402204d1926bc7972dbb19df95c34e458e884bc69f81fe0245933436f1a617df375da02203662230782be4db35f3760b2fc3106e9e7a01ab37aa8bd2c735855b77042ec75012103d4dac5b261564f7526306a55c0d12211aee1608ece6c4be37c6bc85638e8ed0effffffff02aa2ac100000000001976a914048f8495f56dddf978e4811aa8e7299ac8194b2988ac1e25b8010000000017a9144c65934a9d26b6ef2d8ad6e1e39ff603754f91638700000000", "vin": [{"sequence": 4294967295, "scriptSig": {"hex": "47304402204d1926bc7972dbb19df95c34e458e884bc69f81fe0245933436f1a617df375da02203662230782be4db35f3760b2fc3106e9e7a01ab37aa8bd2c735855b77042ec75012103d4dac5b261564f7526306a55c0d12211aee1608ece6c4be37c6bc85638e8ed0e", "asm": "304402204d1926bc7972dbb19df95c34e458e884bc69f81fe0245933436f1a617df375da02203662230782be4db35f3760b2fc3106e9e7a01ab37aa8bd2c735855b77042ec75[ALL] 03d4dac5b261564f7526306a55c0d12211aee1608ece6c4be37c6bc85638e8ed0e"}, "vout": 2, "txid": "215ba86c5ff194a9026950432dd38ef278710bbc01a8c7a56ed93212f51ecdf6"}], "txid": "110cbd8267cd6466db8a9e1fd85011bdd6c6859f35fa7add3bcdc9ac7d0caa29", "blocktime": 1537876114, "version": 1, "confirmations": 11460, "time": 1537876114, "locktime": 0, "vsize": 223, "size": 223}