{"hash": "12e3403a0fc2349eaf910804e598438ef75ab55575c352dd33210ba0c5835afa", "blockhash": "0000000000000000001f76057863aec43deb6fa401d9628bb513d65a8098bfab", "vout": [{"scriptPubKey": {"reqSigs": 1, "hex": "76a9148548e48303901fc90293b6bf1450fb00972774b488ac", "addresses": ["1D9kCBYSL7nDRch2dQ2VHgLRMppv1G9KE4"], "asm": "OP_DUP OP_HASH160 8548e48303901fc90293b6bf1450fb00972774b4 OP_EQUALVERIFY OP_CHECKSIG", "type": "pubkeyhash"}, "value": 0.05749889, "n": 0}, {"scriptPubKey": {"reqSigs": 1, "hex": "a914af6fb73729d59273d463e960fd81b8b785a27a1c87", "addresses": ["3Hge1FoP9GtvAWPoZrJZhc8jx9yf9uTNG5"], "asm": "OP_HASH160 af6fb73729d59273d463e960fd81b8b785a27a1c OP_EQUAL", "type": "scripthash"}, "value": 0.03296309, "n": 1}], "hex": "01000000000101f0e34ce33587178c9c8c7add6f80ce398e3bf16928c24d9b5992120f86560add010000002322002056ab59ad1ee963eab72d7ef7f628c5a9b807485ede77aa589c14f66d0c8e5fe8ffffffff0281bc5700000000001976a9148548e48303901fc90293b6bf1450fb00972774b488ac354c32000000000017a914af6fb73729d59273d463e960fd81b8b785a27a1c870400483045022100d3ccfcd3ba56d788c4b2a1f99ea9d45de5e4dfd138d5550a732bb520cd97e627022023a97b4ad981ea94a8fd0cd8be195e38b5aace34ce9a2a5d2d200b0aad3e6add0147304402207b54f85644e689f136f52f5bb90e3a9906170b9c7c4b88451be6d0f6d40ca49602203bea5159c894c52e6c7eb8bfab14b046b64b669fcacfdf271023a216348da06e0147522102ddd022a180b869b9a0e8c986c6125d6120337325df46a9f717081c9f473c8c1b21038407424ead2b88063db2d589e50c34e1572f6b82eb9e266dec536939ee0db9eb52ae00000000", "vin": [{"txinwitness": ["", "3045022100d3ccfcd3ba56d788c4b2a1f99ea9d45de5e4dfd138d5550a732bb520cd97e627022023a97b4ad981ea94a8fd0cd8be195e38b5aace34ce9a2a5d2d200b0aad3e6add01", "304402207b54f85644e689f136f52f5bb90e3a9906170b9c7c4b88451be6d0f6d40ca49602203bea5159c894c52e6c7eb8bfab14b046b64b669fcacfdf271023a216348da06e01", "522102ddd022a180b869b9a0e8c986c6125d6120337325df46a9f717081c9f473c8c1b21038407424ead2b88063db2d589e50c34e1572f6b82eb9e266dec536939ee0db9eb52ae"], "sequence": 4294967295, "scriptSig": {"hex": "22002056ab59ad1ee963eab72d7ef7f628c5a9b807485ede77aa589c14f66d0c8e5fe8", "asm": "002056ab59ad1ee963eab72d7ef7f628c5a9b807485ede77aa589c14f66d0c8e5fe8"}, "vout": 1, "txid": "dd0a56860f1292599b4dc22869f13b8e39ce806fdd7a8c9c8c178735e34ce3f0"}], "txid": "1110a6d8b506d41dba2b903b832bfbf7a4df79c604fa70e2dc8d2ccbc6c30e89", "blocktime": 1537873891, "version": 1, "confirmations": 11475, "time": 1537873891, "locktime": 0, "vsize": 208, "size": 373}