{"hash": "11110d974ad248bb0b49498ca266f2b8229fc762f78547c03870156484b49707", "blockhash": "00000000000000000004ffacab907a6b429b9a5745fa0b75af4234bf69dd7176", "vout": [{"scriptPubKey": {"reqSigs": 1, "hex": "a9141041002f0a63796347d70b4e3cbf9c14dad1106987", "addresses": ["33AxbwbST1kKAmJyEbYxp8N5bta3xYjetM"], "asm": "OP_HASH160 1041002f0a63796347d70b4e3cbf9c14dad11069 OP_EQUAL", "type": "scripthash"}, "value": 0.15751789, "n": 0}, {"scriptPubKey": {"reqSigs": 1, "hex": "a91486ed17bfa7bd80cf87cf7e80abd9289079b78c5b87", "addresses": ["3DzSVk4veMCkNbNT9CdETeE26uWxmNbBnD"], "asm": "OP_HASH160 86ed17bfa7bd80cf87cf7e80abd9289079b78c5b OP_EQUAL", "type": "scripthash"}, "value": 2.77923809, "n": 1}], "hex": "0200000001d0bb51a8c3d13f3c825a65ed1071c3d7042ba88181d27a9346f8871ad2dd670801000000da004730440220010cbdee2e44e713094c2c3b38fc7c07a883433320a8756b743ba51feee8de0302202772e70096fb955c73357c4e82fbe39ef7f9623f93da2a1e011146aa4844aa0a01483045022100a605c2a8b78c47d5f55c8f62ee3e085e1d666725baa789cb05ad00870a39047b02204017261b5be2b52ba97105ce5ea945f4819bdb33528f93844614508eca3e8f5201475221038934160de8ad1dd529329f5bf51e3086cc0f6d19e10fb4120385f23d871c0c1d21021659435e23e3891d39ec2b0266b3c14a68cb4e45adb8543f31508310c98722d952aeffffffff026d5af0000000000017a9141041002f0a63796347d70b4e3cbf9c14dad1106987e1c790100000000017a91486ed17bfa7bd80cf87cf7e80abd9289079b78c5b8700000000", "vin": [{"sequence": 4294967295, "scriptSig": {"hex": "004730440220010cbdee2e44e713094c2c3b38fc7c07a883433320a8756b743ba51feee8de0302202772e70096fb955c73357c4e82fbe39ef7f9623f93da2a1e011146aa4844aa0a01483045022100a605c2a8b78c47d5f55c8f62ee3e085e1d666725baa789cb05ad00870a39047b02204017261b5be2b52ba97105ce5ea945f4819bdb33528f93844614508eca3e8f5201475221038934160de8ad1dd529329f5bf51e3086cc0f6d19e10fb4120385f23d871c0c1d21021659435e23e3891d39ec2b0266b3c14a68cb4e45adb8543f31508310c98722d952ae", "asm": "0 30440220010cbdee2e44e713094c2c3b38fc7c07a883433320a8756b743ba51feee8de0302202772e70096fb955c73357c4e82fbe39ef7f9623f93da2a1e011146aa4844aa0a[ALL] 3045022100a605c2a8b78c47d5f55c8f62ee3e085e1d666725baa789cb05ad00870a39047b02204017261b5be2b52ba97105ce5ea945f4819bdb33528f93844614508eca3e8f52[ALL] 5221038934160de8ad1dd529329f5bf51e3086cc0f6d19e10fb4120385f23d871c0c1d21021659435e23e3891d39ec2b0266b3c14a68cb4e45adb8543f31508310c98722d952ae"}, "vout": 1, "txid": "0867ddd21a87f846937ad28181a82b04d7c37110ed655a823c3fd1c3a851bbd0"}], "txid": "11110d974ad248bb0b49498ca266f2b8229fc762f78547c03870156484b49707", "blocktime": 1537875543, "version": 2, "confirmations": 11464, "time": 1537875543, "locktime": 0, "vsize": 333, "size": 333}