{"hash": "1111fefa3d3cfae56147a76cb5118f76675355e25370fb150ad559767d2a1a1c", "blockhash": "0000000000000000000e13cef7c366c0283d82e591d1acd082e914b08063cdf1", "vout": [{"scriptPubKey": {"reqSigs": 1, "hex": "a91426dc1e016c54ae3a7bf6d02a811b2ec8a2419eaf87", "addresses": ["35EVHqyGHwmLvnJnsDbVZwSbNeBSgFLaPY"], "asm": "OP_HASH160 26dc1e016c54ae3a7bf6d02a811b2ec8a2419eaf OP_EQUAL", "type": "scripthash"}, "value": 0.02007279, "n": 0}], "hex": "010000000489926ad3c57e62349d0beb14dbb18411be838a5c27acb5e0d13506ed94d9f329000000006b483045022100d5dad7ab562e8d444c0a25ca23c90113c11cca1f72bcaa588a32b0849100bb4d02200bcb6acc5335539e6df27edd5fd702112c02e69e86b50a0516b10d6b33acb733012103d5434d0c51a391fbcbe5006d9aa32b2dd6d4b54957b61b611f79c66d2a54698fffffffff51c100ba2c8786fd86dfa7053b82574e9dd3cc9e8638502c87f377989a554e87000000006a47304402202017e09496b754b143441dbf37bb609a98ab8a99d67922c8394f09c3e1550c2e02203899c91d8a6e7801c4be3118f9304c412c5549755167ed3c0381585e0f54ce29012103d5434d0c51a391fbcbe5006d9aa32b2dd6d4b54957b61b611f79c66d2a54698fffffffff7f293b44e127da0f2eb56c31610bf909135b3bb3903913633a3a776cb6eec9da000000006b483045022100a9f69b13ecc342891655cde5c57dddfd9d79740896b66fc5490154fd101fae5b02203dfdc06569129b68e8d5482cf5afea1f563bc542b423625f11c4503e7ef32f8b012103d5434d0c51a391fbcbe5006d9aa32b2dd6d4b54957b61b611f79c66d2a54698fffffffffc9d3117831c3c2cf6dd7a47bbf6c56f3b046c8430865af76978b394940c7d3ed300000006a47304402205cb874e1e2bdf5905bcbe069ea522e384d99d955478df17444560ac82db1f0940220433a5bb7495baf252a442e2755a5cc1bc8a2e0f3b246c2f4072232d17f31f2b2012103d5434d0c51a391fbcbe5006d9aa32b2dd6d4b54957b61b611f79c66d2a54698fffffffff01efa01e000000000017a91426dc1e016c54ae3a7bf6d02a811b2ec8a2419eaf8700000000", "vin": [{"sequence": 4294967295, "scriptSig": {"hex": "483045022100d5dad7ab562e8d444c0a25ca23c90113c11cca1f72bcaa588a32b0849100bb4d02200bcb6acc5335539e6df27edd5fd702112c02e69e86b50a0516b10d6b33acb733012103d5434d0c51a391fbcbe5006d9aa32b2dd6d4b54957b61b611f79c66d2a54698f", "asm": "3045022100d5dad7ab562e8d444c0a25ca23c90113c11cca1f72bcaa588a32b0849100bb4d02200bcb6acc5335539e6df27edd5fd702112c02e69e86b50a0516b10d6b33acb733[ALL] 03d5434d0c51a391fbcbe5006d9aa32b2dd6d4b54957b61b611f79c66d2a54698f"}, "vout": 0, "txid": "29f3d994ed0635d1e0b5ac275c8a83be1184b1db14eb0b9d34627ec5d36a9289"}, {"sequence": 4294967295, "scriptSig": {"hex": "47304402202017e09496b754b143441dbf37bb609a98ab8a99d67922c8394f09c3e1550c2e02203899c91d8a6e7801c4be3118f9304c412c5549755167ed3c0381585e0f54ce29012103d5434d0c51a391fbcbe5006d9aa32b2dd6d4b54957b61b611f79c66d2a54698f", "asm": "304402202017e09496b754b143441dbf37bb609a98ab8a99d67922c8394f09c3e1550c2e02203899c91d8a6e7801c4be3118f9304c412c5549755167ed3c0381585e0f54ce29[ALL] 03d5434d0c51a391fbcbe5006d9aa32b2dd6d4b54957b61b611f79c66d2a54698f"}, "vout": 0, "txid": "874e559a9877f3872c5038869eccd39d4e57823b05a7df86fd86872cba00c151"}, {"sequence": 4294967295, "scriptSig": {"hex": "483045022100a9f69b13ecc342891655cde5c57dddfd9d79740896b66fc5490154fd101fae5b02203dfdc06569129b68e8d5482cf5afea1f563bc542b423625f11c4503e7ef32f8b012103d5434d0c51a391fbcbe5006d9aa32b2dd6d4b54957b61b611f79c66d2a54698f", "asm": "3045022100a9f69b13ecc342891655cde5c57dddfd9d79740896b66fc5490154fd101fae5b02203dfdc06569129b68e8d5482cf5afea1f563bc542b423625f11c4503e7ef32f8b[ALL] 03d5434d0c51a391fbcbe5006d9aa32b2dd6d4b54957b61b611f79c66d2a54698f"}, "vout": 0, "txid": "dac9eeb66c773a3a63133990b33b5b1309f90b61316cb52e0fda27e1443b297f"}, {"sequence": 4294967295, "scriptSig": {"hex": "47304402205cb874e1e2bdf5905bcbe069ea522e384d99d955478df17444560ac82db1f0940220433a5bb7495baf252a442e2755a5cc1bc8a2e0f3b246c2f4072232d17f31f2b2012103d5434d0c51a391fbcbe5006d9aa32b2dd6d4b54957b61b611f79c66d2a54698f", "asm": "304402205cb874e1e2bdf5905bcbe069ea522e384d99d955478df17444560ac82db1f0940220433a5bb7495baf252a442e2755a5cc1bc8a2e0f3b246c2f4072232d17f31f2b2[ALL] 03d5434d0c51a391fbcbe5006d9aa32b2dd6d4b54957b61b611f79c66d2a54698f"}, "vout": 48, "txid": "edd3c74049398b9776af650843c846b0f3566cbf7ba4d76dcfc2c3317811d3c9"}], "txid": "1111fefa3d3cfae56147a76cb5118f76675355e25370fb150ad559767d2a1a1c", "blocktime": 1537871767, "version": 1, "confirmations": 11491, "time": 1537871767, "locktime": 0, "vsize": 632, "size": 632}