{"hash": "1112ec3cf80f93057ac5760dd10d6fe9afcbe8ca76d311cde8f87d82e637e6c3", "blockhash": "0000000000000000001cda96e906b7601b7a6fb1a3b62bca570a9e5d8f4b3de1", "vout": [{"scriptPubKey": {"reqSigs": 1, "hex": "76a9147a0dd92c4c0ecc2fb72f1aef1ba43de34c0bfffa88ac", "addresses": ["1C8N2bw8jbw5owt4cF4bVXvfxJrtmj7PYQ"], "asm": "OP_DUP OP_HASH160 7a0dd92c4c0ecc2fb72f1aef1ba43de34c0bfffa OP_EQUALVERIFY OP_CHECKSIG", "type": "pubkeyhash"}, "value": 0.039, "n": 0}, {"scriptPubKey": {"reqSigs": 1, "hex": "76a914623b85dd8205864ff3d42b63019bdfc3b22e4a6888ac", "addresses": ["19xQXXNus2dDJeAntQCkAkc9N6R8yGGnBJ"], "asm": "OP_DUP OP_HASH160 623b85dd8205864ff3d42b63019bdfc3b22e4a68 OP_EQUALVERIFY OP_CHECKSIG", "type": "pubkeyhash"}, "value": 108.37785796, "n": 1}], "hex": "0100000001c2fccb086c5fddc7497b50324ca6a14bf11864ecb8f9e553bb83f1515ccee300010000006a473044022074627d847880a589833e241394d626208e25a865db938d2f7ec17ff191cfb986022030aa60410049729046d9f1910ba13b77288f3b70c6fd7a2bcd008c36a2997248012102caf852a02f8c3a0a7a788ae1247e65185da470f47615be778e83c25fafa6b779ffffffff0260823b00000000001976a9147a0dd92c4c0ecc2fb72f1aef1ba43de34c0bfffa88acc47cfb85020000001976a914623b85dd8205864ff3d42b63019bdfc3b22e4a6888ac00000000", "vin": [{"sequence": 4294967295, "scriptSig": {"hex": "473044022074627d847880a589833e241394d626208e25a865db938d2f7ec17ff191cfb986022030aa60410049729046d9f1910ba13b77288f3b70c6fd7a2bcd008c36a2997248012102caf852a02f8c3a0a7a788ae1247e65185da470f47615be778e83c25fafa6b779", "asm": "3044022074627d847880a589833e241394d626208e25a865db938d2f7ec17ff191cfb986022030aa60410049729046d9f1910ba13b77288f3b70c6fd7a2bcd008c36a2997248[ALL] 02caf852a02f8c3a0a7a788ae1247e65185da470f47615be778e83c25fafa6b779"}, "vout": 1, "txid": "00e3ce5c51f183bb53e5f9b8ec6418f14ba1a64c32507b49c7dd5f6c08cbfcc2"}], "txid": "1112ec3cf80f93057ac5760dd10d6fe9afcbe8ca76d311cde8f87d82e637e6c3", "blocktime": 1537873282, "version": 1, "confirmations": 11480, "time": 1537873282, "locktime": 0, "vsize": 225, "size": 225}