{"hash": "111a3a2d628df19cc048f8873e1130076aadd819dffb5f0a31ccc7f16287bfa5", "blockhash": "00000000000000000024a2167bbff67b0be802c0b01cdd79e6331c2be6459f87", "vout": [{"scriptPubKey": {"reqSigs": 1, "hex": "76a9145a19e04eff45681fe2545810033aa7e8f8a5c7b088ac", "addresses": ["19DQpB9jG42UL6Ff3sCBbupGkWXmWp3XAA"], "asm": "OP_DUP OP_HASH160 5a19e04eff45681fe2545810033aa7e8f8a5c7b0 OP_EQUALVERIFY OP_CHECKSIG", "type": "pubkeyhash"}, "value": 0.01795838, "n": 0}, {"scriptPubKey": {"reqSigs": 1, "hex": "76a914d35590fe1491a858db478a4e1de0e2f1afa6c9f288ac", "addresses": ["1LGS5jUWpu4SPPz6tLxZd37GGthrcddRZT"], "asm": "OP_DUP OP_HASH160 d35590fe1491a858db478a4e1de0e2f1afa6c9f2 OP_EQUALVERIFY OP_CHECKSIG", "type": "pubkeyhash"}, "value": 0.0631, "n": 1}], "hex": "0100000001cbaff23d75635ddb16d98380b6485fab30b0e615f7e8c496d7168ea1b9d03fe1000000006a473044022014ed052c0baf970b76536b55ce86eefd8478e6a9ecd8fe2823d3cf92393828410220610a4344d9103751970f506c163242fde000336482f99926b3369c892755942101210214ffc4eba0582c1c36c6c3e870f675cd94c7412a4b39ede0ad745038dcc6ee82ffffffff02fe661b00000000001976a9145a19e04eff45681fe2545810033aa7e8f8a5c7b088ac70486000000000001976a914d35590fe1491a858db478a4e1de0e2f1afa6c9f288ac00000000", "vin": [{"sequence": 4294967295, "scriptSig": {"hex": "473044022014ed052c0baf970b76536b55ce86eefd8478e6a9ecd8fe2823d3cf92393828410220610a4344d9103751970f506c163242fde000336482f99926b3369c892755942101210214ffc4eba0582c1c36c6c3e870f675cd94c7412a4b39ede0ad745038dcc6ee82", "asm": "3044022014ed052c0baf970b76536b55ce86eefd8478e6a9ecd8fe2823d3cf92393828410220610a4344d9103751970f506c163242fde000336482f99926b3369c8927559421[ALL] 0214ffc4eba0582c1c36c6c3e870f675cd94c7412a4b39ede0ad745038dcc6ee82"}, "vout": 0, "txid": "e13fd0b9a18e16d796c4e8f715e6b030ab5f48b68083d916db5d63753df2afcb"}], "txid": "111a3a2d628df19cc048f8873e1130076aadd819dffb5f0a31ccc7f16287bfa5", "blocktime": 1537870564, "version": 1, "confirmations": 11515, "time": 1537870564, "locktime": 0, "vsize": 225, "size": 225}