{"hash": "111a3e8a2a3bf5b26ad43d67f405dd5a374df529971e2dc11f59a72307d0fd6a", "blockhash": "0000000000000000001e0dab787dd257d1dbfcb92a98c2207d5e1078be1f4165", "vout": [{"scriptPubKey": {"reqSigs": 1, "hex": "a9144820546e3392bd9c54429cd5628d39a71da8dd1187", "addresses": ["38GPJfojsY9pYy16pf5qW6XrtxnovdCkDH"], "asm": "OP_HASH160 4820546e3392bd9c54429cd5628d39a71da8dd11 OP_EQUAL", "type": "scripthash"}, "value": 1.22297028, "n": 0}], "hex": "010000000305aebfbf10ab0cbfbe187123ce041898cc7ed4f511aae2ed8cd3ab7faf1b09be000000006b483045022100ae5a7a779982c7f347fb899cd39d705c5a61d7c4963a7e210c6d5cb21c11118f0220470e17880a4dfc961e0c9d131d6c2281cb3bbabce8189ab8fd3adc46855936fd01210367213adc5beb70000f80f6238351436a385efed974031c3c24d97888484b7ae0ffffffff05aebfbf10ab0cbfbe187123ce041898cc7ed4f511aae2ed8cd3ab7faf1b09be040000006a473044022015d1c038fcd3694b55d6faa94df7c18ac3951ad2ffda5a406b5b4c73004929200220172c61fa1b07a0b69af53dbd524bbad35fc6660459c7497e626d9396bdaa859301210367213adc5beb70000f80f6238351436a385efed974031c3c24d97888484b7ae0ffffffff7965cdd6440e0a498efbaec6546d78d51f01983b4ac66bc1925d6b7669b292463e0000006b483045022100b85646dceea416779a1249955d0489d80aff74aef3a1f5dba5ff2f1b7903487302202fbfdc4d87569e5353986bb3a7ffa3a4a76bc0f7f2c11c17804c34c06033e09901210367213adc5beb70000f80f6238351436a385efed974031c3c24d97888484b7ae0ffffffff01c41a4a070000000017a9144820546e3392bd9c54429cd5628d39a71da8dd118700000000", "vin": [{"sequence": 4294967295, "scriptSig": {"hex": "483045022100ae5a7a779982c7f347fb899cd39d705c5a61d7c4963a7e210c6d5cb21c11118f0220470e17880a4dfc961e0c9d131d6c2281cb3bbabce8189ab8fd3adc46855936fd01210367213adc5beb70000f80f6238351436a385efed974031c3c24d97888484b7ae0", "asm": "3045022100ae5a7a779982c7f347fb899cd39d705c5a61d7c4963a7e210c6d5cb21c11118f0220470e17880a4dfc961e0c9d131d6c2281cb3bbabce8189ab8fd3adc46855936fd[ALL] 0367213adc5beb70000f80f6238351436a385efed974031c3c24d97888484b7ae0"}, "vout": 0, "txid": "be091baf7fabd38cede2aa11f5d47ecc981804ce237118bebf0cab10bfbfae05"}, {"sequence": 4294967295, "scriptSig": {"hex": "473044022015d1c038fcd3694b55d6faa94df7c18ac3951ad2ffda5a406b5b4c73004929200220172c61fa1b07a0b69af53dbd524bbad35fc6660459c7497e626d9396bdaa859301210367213adc5beb70000f80f6238351436a385efed974031c3c24d97888484b7ae0", "asm": "3044022015d1c038fcd3694b55d6faa94df7c18ac3951ad2ffda5a406b5b4c73004929200220172c61fa1b07a0b69af53dbd524bbad35fc6660459c7497e626d9396bdaa8593[ALL] 0367213adc5beb70000f80f6238351436a385efed974031c3c24d97888484b7ae0"}, "vout": 4, "txid": "be091baf7fabd38cede2aa11f5d47ecc981804ce237118bebf0cab10bfbfae05"}, {"sequence": 4294967295, "scriptSig": {"hex": "483045022100b85646dceea416779a1249955d0489d80aff74aef3a1f5dba5ff2f1b7903487302202fbfdc4d87569e5353986bb3a7ffa3a4a76bc0f7f2c11c17804c34c06033e09901210367213adc5beb70000f80f6238351436a385efed974031c3c24d97888484b7ae0", "asm": "3045022100b85646dceea416779a1249955d0489d80aff74aef3a1f5dba5ff2f1b7903487302202fbfdc4d87569e5353986bb3a7ffa3a4a76bc0f7f2c11c17804c34c06033e099[ALL] 0367213adc5beb70000f80f6238351436a385efed974031c3c24d97888484b7ae0"}, "vout": 62, "txid": "4692b269766b5d92c16bc64a3b98011fd5786d54c6aefb8e490a0e44d6cd6579"}], "txid": "111a3e8a2a3bf5b26ad43d67f405dd5a374df529971e2dc11f59a72307d0fd6a", "blocktime": 1537872475, "version": 1, "confirmations": 11487, "time": 1537872475, "locktime": 0, "vsize": 485, "size": 485}