{"hash": "11284257c58ce6d5c31221f703aeb811c0d502f02930d44b3e3b829dce4e9968", "blockhash": "0000000000000000001f0ddff1eddb255c1121bcd4da4f1bc9a0da00cae72433", "vout": [{"scriptPubKey": {"reqSigs": 1, "hex": "a914b3f597d3f36c3336769e422c0dc4031a12ffc7b687", "addresses": ["3J6Z5zEYoqN7cB8PgEQ29WL7zF8jYhnL6Z"], "asm": "OP_HASH160 b3f597d3f36c3336769e422c0dc4031a12ffc7b6 OP_EQUAL", "type": "scripthash"}, "value": 0.00778125, "n": 0}, {"scriptPubKey": {"reqSigs": 1, "hex": "76a914b743d7df2b8e436e63f9eeb57a17a4984a1d13b888ac", "addresses": ["1Hi1vwKZBvJXhkS4hvsRyq5ha7x8dVdpZC"], "asm": "OP_DUP OP_HASH160 b743d7df2b8e436e63f9eeb57a17a4984a1d13b8 OP_EQUALVERIFY OP_CHECKSIG", "type": "pubkeyhash"}, "value": 0.01888034, "n": 1}], "hex": "010000000134db71e31b2470b7dc0d7d3d069f119a661b36467f1ceefeb325bdd999154d66010000006b483045022100ec28de429b41ef2825f5ea5f7f4bd0e3b67f54b567c416fa0b8cf291a1fac50a0220682f115cd4e350d5725e06c4e01086b51212533bba05b937cd35d63ed9c39e6201210260e97b251ad8755ac42a206632912937cf6cb57c26a70a0901a0f3c9cb594091ffffffff028ddf0b000000000017a914b3f597d3f36c3336769e422c0dc4031a12ffc7b68722cf1c00000000001976a914b743d7df2b8e436e63f9eeb57a17a4984a1d13b888ac00000000", "vin": [{"sequence": 4294967295, "scriptSig": {"hex": "483045022100ec28de429b41ef2825f5ea5f7f4bd0e3b67f54b567c416fa0b8cf291a1fac50a0220682f115cd4e350d5725e06c4e01086b51212533bba05b937cd35d63ed9c39e6201210260e97b251ad8755ac42a206632912937cf6cb57c26a70a0901a0f3c9cb594091", "asm": "3045022100ec28de429b41ef2825f5ea5f7f4bd0e3b67f54b567c416fa0b8cf291a1fac50a0220682f115cd4e350d5725e06c4e01086b51212533bba05b937cd35d63ed9c39e62[ALL] 0260e97b251ad8755ac42a206632912937cf6cb57c26a70a0901a0f3c9cb594091"}, "vout": 1, "txid": "664d1599d9bd25b3feee1c7f46361b669a119f063d7d0ddcb770241be371db34"}], "txid": "11284257c58ce6d5c31221f703aeb811c0d502f02930d44b3e3b829dce4e9968", "blocktime": 1537872018, "version": 1, "confirmations": 11489, "time": 1537872018, "locktime": 0, "vsize": 224, "size": 224}