{"hash": "112e945db3117d898565c70fcf41721d13a2fb4d702e87de3269b3012a1ff81b", "blockhash": "0000000000000000001cda96e906b7601b7a6fb1a3b62bca570a9e5d8f4b3de1", "vout": [{"scriptPubKey": {"type": "nulldata", "hex": "6a4c50000077d200012ce9c442b200aff379bfb7e25b23cc0f42c2fc38c5e5bf9ae76da98a211a673ac5ea5c8ec9686083e0aacbeee2815baa14c20613fff26d9e1817bc9a9526289ac0f6612cd74e33776ee4", "asm": "OP_RETURN 000077d200012ce9c442b200aff379bfb7e25b23cc0f42c2fc38c5e5bf9ae76da98a211a673ac5ea5c8ec9686083e0aacbeee2815baa14c20613fff26d9e1817bc9a9526289ac0f6612cd74e33776ee4"}, "value": 0.0, "n": 0}, {"scriptPubKey": {"reqSigs": 1, "hex": "76a9144eb768be813eb312cfc5cdcc46d40afbe396254c88ac", "addresses": ["18BDRTMc2vQLQVd9BxWZBZPQxV5tzRMQUd"], "asm": "OP_DUP OP_HASH160 4eb768be813eb312cfc5cdcc46d40afbe396254c OP_EQUALVERIFY OP_CHECKSIG", "type": "pubkeyhash"}, "value": 0.00133644, "n": 1}], "hex": "0100000001674bf27ea316a2201ec533cdbace39ce7a340c9aaf8843cc7b4e43e444a55d18010000006a47304402204825b5fa973593b4bc072a5e0ac03e232069633f0ab9f63c16f3a145d8b3f0b9022016ea5df8376b59fc653caf8f6521b097702494b0d6686ecb1424790e03b0ab320121020cb08245569d0a7122f401019084939417d0dc231d25b9355525939390e726c0ffffffff020000000000000000536a4c50000077d200012ce9c442b200aff379bfb7e25b23cc0f42c2fc38c5e5bf9ae76da98a211a673ac5ea5c8ec9686083e0aacbeee2815baa14c20613fff26d9e1817bc9a9526289ac0f6612cd74e33776ee40c0a0200000000001976a9144eb768be813eb312cfc5cdcc46d40afbe396254c88ac00000000", "vin": [{"sequence": 4294967295, "scriptSig": {"hex": "47304402204825b5fa973593b4bc072a5e0ac03e232069633f0ab9f63c16f3a145d8b3f0b9022016ea5df8376b59fc653caf8f6521b097702494b0d6686ecb1424790e03b0ab320121020cb08245569d0a7122f401019084939417d0dc231d25b9355525939390e726c0", "asm": "304402204825b5fa973593b4bc072a5e0ac03e232069633f0ab9f63c16f3a145d8b3f0b9022016ea5df8376b59fc653caf8f6521b097702494b0d6686ecb1424790e03b0ab32[ALL] 020cb08245569d0a7122f401019084939417d0dc231d25b9355525939390e726c0"}, "vout": 1, "txid": "185da544e4434e7bcc4388af9a0c347ace39cebacd33c51e20a216a37ef24b67"}], "txid": "112e945db3117d898565c70fcf41721d13a2fb4d702e87de3269b3012a1ff81b", "blocktime": 1537873282, "version": 1, "confirmations": 11484, "time": 1537873282, "locktime": 0, "vsize": 283, "size": 283}