{"hash": "112f88cec558e12fb8927695bed657116435c69d6d1cca385846e6ec8d7d0cfa", "blockhash": "0000000000000000001f76057863aec43deb6fa401d9628bb513d65a8098bfab", "vout": [{"scriptPubKey": {"reqSigs": 1, "hex": "76a91450f5a4c070f1f3b47eb576d1be363668bfcdb27688ac", "addresses": ["18P5KxhSM41JuEkv8aUc5mbMVL6m2sXwwx"], "asm": "OP_DUP OP_HASH160 50f5a4c070f1f3b47eb576d1be363668bfcdb276 OP_EQUALVERIFY OP_CHECKSIG", "type": "pubkeyhash"}, "value": 0.30129124, "n": 0}], "hex": "0100000003b206236411f829b11f9547a795e0b4af8e30a68ebfbeace65394dff65d7100bd000000006b483045022100f351f3053659e7d678c2637e00d8f66927aea8865fc5bec67ab94d65602a2bee02202cab7eb6ed8ddc07365d721c3b16cd5942473d09e13a1251a91b5ce927c32a0901210265e66ddd43d791ffd5459e481c1296d31eea97370fbc3a89fa8dd1e487cadff2ffffffffb2d6ea6f6634cd86434fee27d17620167df42cba3726ca6cba803839f28156bd010000006a47304402203d16dc0e00de47ecf1751342722a124af83992d18e387aab2d67f04728bdba4202207f2c78b4dd2c55ed80bfc0a8855da858e8f79210c0f18b39edc00accb258b5ad0121022ae0c01aabc9e426ab206c34e541bf2106fc8e39e8592088ee5f5bdbd3f1fa91ffffffff471d3c26b2ba16409f93c2c6c64337494dd7f2b88f9188a62c61ee82f3184ae5010000006a47304402207fb8b72d87852d707b3b695ede3cf6ed3f42fc7517fd7e4fb5ee8af5e254d657022002664c92f6674e962acf59d59f1c82b4b44a5db329177ef70ce2f18e3445eaf9012103f2fadd66322abedfd0bd01258b2146d05e195ee6060e26632cea031088cdd045ffffffff01e4bbcb01000000001976a91450f5a4c070f1f3b47eb576d1be363668bfcdb27688ac00000000", "vin": [{"sequence": 4294967295, "scriptSig": {"hex": "483045022100f351f3053659e7d678c2637e00d8f66927aea8865fc5bec67ab94d65602a2bee02202cab7eb6ed8ddc07365d721c3b16cd5942473d09e13a1251a91b5ce927c32a0901210265e66ddd43d791ffd5459e481c1296d31eea97370fbc3a89fa8dd1e487cadff2", "asm": "3045022100f351f3053659e7d678c2637e00d8f66927aea8865fc5bec67ab94d65602a2bee02202cab7eb6ed8ddc07365d721c3b16cd5942473d09e13a1251a91b5ce927c32a09[ALL] 0265e66ddd43d791ffd5459e481c1296d31eea97370fbc3a89fa8dd1e487cadff2"}, "vout": 0, "txid": "bd00715df6df9453e6acbebf8ea6308eafb4e095a747951fb129f811642306b2"}, {"sequence": 4294967295, "scriptSig": {"hex": "47304402203d16dc0e00de47ecf1751342722a124af83992d18e387aab2d67f04728bdba4202207f2c78b4dd2c55ed80bfc0a8855da858e8f79210c0f18b39edc00accb258b5ad0121022ae0c01aabc9e426ab206c34e541bf2106fc8e39e8592088ee5f5bdbd3f1fa91", "asm": "304402203d16dc0e00de47ecf1751342722a124af83992d18e387aab2d67f04728bdba4202207f2c78b4dd2c55ed80bfc0a8855da858e8f79210c0f18b39edc00accb258b5ad[ALL] 022ae0c01aabc9e426ab206c34e541bf2106fc8e39e8592088ee5f5bdbd3f1fa91"}, "vout": 1, "txid": "bd5681f2393880ba6cca2637ba2cf47d162076d127ee4f4386cd34666fead6b2"}, {"sequence": 4294967295, "scriptSig": {"hex": "47304402207fb8b72d87852d707b3b695ede3cf6ed3f42fc7517fd7e4fb5ee8af5e254d657022002664c92f6674e962acf59d59f1c82b4b44a5db329177ef70ce2f18e3445eaf9012103f2fadd66322abedfd0bd01258b2146d05e195ee6060e26632cea031088cdd045", "asm": "304402207fb8b72d87852d707b3b695ede3cf6ed3f42fc7517fd7e4fb5ee8af5e254d657022002664c92f6674e962acf59d59f1c82b4b44a5db329177ef70ce2f18e3445eaf9[ALL] 03f2fadd66322abedfd0bd01258b2146d05e195ee6060e26632cea031088cdd045"}, "vout": 1, "txid": "e54a18f382ee612ca688918fb8f2d74d493743c6c6c2939f4016bab2263c1d47"}], "txid": "112f88cec558e12fb8927695bed657116435c69d6d1cca385846e6ec8d7d0cfa", "blocktime": 1537873891, "version": 1, "confirmations": 11478, "time": 1537873891, "locktime": 0, "vsize": 486, "size": 486}