{"hash": "113b55211b077e725e1d17d145cadb0eb178f537a4e558e787f9403c4bcce32e", "blockhash": "00000000000000000018f53835495a110e01622372bf6ae95dc86f2b0ab887b0", "vout": [{"scriptPubKey": {"reqSigs": 1, "hex": "76a914ad853ac6250a8515c7747951934e477f992ade6b88ac", "addresses": ["1GpVW99umA7bJb4SNc9Q8oRvb2U12hKD7T"], "asm": "OP_DUP OP_HASH160 ad853ac6250a8515c7747951934e477f992ade6b OP_EQUALVERIFY OP_CHECKSIG", "type": "pubkeyhash"}, "value": 0.001569, "n": 0}, {"scriptPubKey": {"reqSigs": 1, "hex": "76a9142f33fcaed0c3f08b43ba09ef5a8955b6b2b1ef2e88ac", "addresses": ["15Jb394pM8Bpqw4pJhJF8dVTGkLGcyvQfA"], "asm": "OP_DUP OP_HASH160 2f33fcaed0c3f08b43ba09ef5a8955b6b2b1ef2e OP_EQUALVERIFY OP_CHECKSIG", "type": "pubkeyhash"}, "value": 0.00301, "n": 1}], "hex": "0100000001c25b75dff8bc86b3a4f6b81544db8b54821d9827c17d09b023378c5a944c4bd1000000006b483045022100df7b1624c7feae6fbd0eccac1c1b5f3cea041dad2a4d9fad44f0b2c9f42c186402206c1d08183078e624aab824a028e419497f6e5608074de9fd5dfd36047db4df1f012102f44ace6420d0accef1b8816111160feed83c8f77218316a2ac65380e3caf8f35feffffff02e4640200000000001976a914ad853ac6250a8515c7747951934e477f992ade6b88acc8970400000000001976a9142f33fcaed0c3f08b43ba09ef5a8955b6b2b1ef2e88ac0e490800", "vin": [{"sequence": 4294967294, "scriptSig": {"hex": "483045022100df7b1624c7feae6fbd0eccac1c1b5f3cea041dad2a4d9fad44f0b2c9f42c186402206c1d08183078e624aab824a028e419497f6e5608074de9fd5dfd36047db4df1f012102f44ace6420d0accef1b8816111160feed83c8f77218316a2ac65380e3caf8f35", "asm": "3045022100df7b1624c7feae6fbd0eccac1c1b5f3cea041dad2a4d9fad44f0b2c9f42c186402206c1d08183078e624aab824a028e419497f6e5608074de9fd5dfd36047db4df1f[ALL] 02f44ace6420d0accef1b8816111160feed83c8f77218316a2ac65380e3caf8f35"}, "vout": 0, "txid": "d14b4c945a8c3723b0097dc127981d82548bdb4415b8f6a4b386bcf8df755bc2"}], "txid": "113b55211b077e725e1d17d145cadb0eb178f537a4e558e787f9403c4bcce32e", "blocktime": 1537870928, "version": 1, "confirmations": 11512, "time": 1537870928, "locktime": 542990, "vsize": 226, "size": 226}