{"hash": "1146a9f3fb8e71d342bd9c74b34bb9807cfea4f2e089eac36f669d1acfa1ff9e", "blockhash": "00000000000000000024a2167bbff67b0be802c0b01cdd79e6331c2be6459f87", "vout": [{"scriptPubKey": {"reqSigs": 1, "hex": "76a91494c56f576a25ae4be2c0c86512e5c231f34ef85188ac", "addresses": ["1EZdXQnnxVghurbUZo831orjBLJq9ZXqAx"], "asm": "OP_DUP OP_HASH160 94c56f576a25ae4be2c0c86512e5c231f34ef851 OP_EQUALVERIFY OP_CHECKSIG", "type": "pubkeyhash"}, "value": 0.00015414, "n": 0}, {"scriptPubKey": {"reqSigs": 1, "hex": "76a914f6d65de3289b29de1b9feea4bc18a7c76d8b704d88ac", "addresses": ["1PWA2esjJoMFmvPCdWRKs1Kav82p9MjH8x"], "asm": "OP_DUP OP_HASH160 f6d65de3289b29de1b9feea4bc18a7c76d8b704d OP_EQUALVERIFY OP_CHECKSIG", "type": "pubkeyhash"}, "value": 0.0051255, "n": 1}], "hex": "01000000019b300a7ecd33e5fe55fde0ee706a75c4d356688a477cf421e1c1ec102aaa0dc8000000006b4830450221009ec9d4e5ca4386412acdfe79bbf7a985e054801dfd3f9fcd7849e7ed6fb5e1b102202a8e63e2df80731eddb57d1455eba051877258c22a3e216e6f5a7cbcb5c9cd9b012103ffc2ccc9566bc6835324007c00aee3f124e19abad390b2b8e022ed8116a5de5affffffff02363c0000000000001976a91494c56f576a25ae4be2c0c86512e5c231f34ef85188ac26d20700000000001976a914f6d65de3289b29de1b9feea4bc18a7c76d8b704d88ac00000000", "vin": [{"sequence": 4294967295, "scriptSig": {"hex": "4830450221009ec9d4e5ca4386412acdfe79bbf7a985e054801dfd3f9fcd7849e7ed6fb5e1b102202a8e63e2df80731eddb57d1455eba051877258c22a3e216e6f5a7cbcb5c9cd9b012103ffc2ccc9566bc6835324007c00aee3f124e19abad390b2b8e022ed8116a5de5a", "asm": "30450221009ec9d4e5ca4386412acdfe79bbf7a985e054801dfd3f9fcd7849e7ed6fb5e1b102202a8e63e2df80731eddb57d1455eba051877258c22a3e216e6f5a7cbcb5c9cd9b[ALL] 03ffc2ccc9566bc6835324007c00aee3f124e19abad390b2b8e022ed8116a5de5a"}, "vout": 0, "txid": "c80daa2a10ecc1e121f47c478a6856d3c4756a70eee0fd55fee533cd7e0a309b"}], "txid": "1146a9f3fb8e71d342bd9c74b34bb9807cfea4f2e089eac36f669d1acfa1ff9e", "blocktime": 1537870564, "version": 1, "confirmations": 11515, "time": 1537870564, "locktime": 0, "vsize": 226, "size": 226}