{"hash": "114fcbbc677ec50957059baff9d6922e12355290f887352a02657444c91e8720", "blockhash": "0000000000000000001cda96e906b7601b7a6fb1a3b62bca570a9e5d8f4b3de1", "vout": [{"scriptPubKey": {"reqSigs": 1, "hex": "76a91477e50b2ffca9412efb571cb098ce0128b537949d88ac", "addresses": ["1Bvwo4fU3Wbzpm8L2Ftk2QG4WfutfSVxPF"], "asm": "OP_DUP OP_HASH160 77e50b2ffca9412efb571cb098ce0128b537949d OP_EQUALVERIFY OP_CHECKSIG", "type": "pubkeyhash"}, "value": 0.00661657, "n": 0}, {"scriptPubKey": {"reqSigs": 1, "hex": "76a914b1a096b4ebcdc3f38dc1fc105ae1be1512c32e8988ac", "addresses": ["1HCCyrSH96SCoxqPqaiDsU3w2PnzoMdXkm"], "asm": "OP_DUP OP_HASH160 b1a096b4ebcdc3f38dc1fc105ae1be1512c32e89 OP_EQUALVERIFY OP_CHECKSIG", "type": "pubkeyhash"}, "value": 0.01564091, "n": 1}], "hex": "0100000002dad66b099e837c7cc9663a932a9df5a29b3654244d4f28a7112243d51c5382aa010000006b483045022100b33188248318c29e9a7bd4c0207917129d5213adf65123a09c8afd9cc1ef6fde022031e638cacfd42985d64fc342c4791cc5b53c0163ba1d7158c37c63861187947301210314819d7bd0f728b8fdf98c114599f192ef171e698bef3a7a3f4139ce6be9082bffffffff7a42871a35104d9712bda11522dd6a71b27f7508314c527f96866630eab3fb0e010000006a47304402201ec95d7cfa4bbf268f9424bc2a7ee7e096772f4ddb0b8984c41d4baba4fd56fa022018809d0f0a889ea3ccdfe55c418ffba484b165be8f0419d971808e446ec172d4012102d485271fc84102439f6592512a8c95f5ca8b155562c1c54ba9a2e7326760baa1ffffffff0299180a00000000001976a91477e50b2ffca9412efb571cb098ce0128b537949d88acbbdd1700000000001976a914b1a096b4ebcdc3f38dc1fc105ae1be1512c32e8988ac00000000", "vin": [{"sequence": 4294967295, "scriptSig": {"hex": "483045022100b33188248318c29e9a7bd4c0207917129d5213adf65123a09c8afd9cc1ef6fde022031e638cacfd42985d64fc342c4791cc5b53c0163ba1d7158c37c63861187947301210314819d7bd0f728b8fdf98c114599f192ef171e698bef3a7a3f4139ce6be9082b", "asm": "3045022100b33188248318c29e9a7bd4c0207917129d5213adf65123a09c8afd9cc1ef6fde022031e638cacfd42985d64fc342c4791cc5b53c0163ba1d7158c37c638611879473[ALL] 0314819d7bd0f728b8fdf98c114599f192ef171e698bef3a7a3f4139ce6be9082b"}, "vout": 1, "txid": "aa82531cd5432211a7284f4d2454369ba2f59d2a933a66c97c7c839e096bd6da"}, {"sequence": 4294967295, "scriptSig": {"hex": "47304402201ec95d7cfa4bbf268f9424bc2a7ee7e096772f4ddb0b8984c41d4baba4fd56fa022018809d0f0a889ea3ccdfe55c418ffba484b165be8f0419d971808e446ec172d4012102d485271fc84102439f6592512a8c95f5ca8b155562c1c54ba9a2e7326760baa1", "asm": "304402201ec95d7cfa4bbf268f9424bc2a7ee7e096772f4ddb0b8984c41d4baba4fd56fa022018809d0f0a889ea3ccdfe55c418ffba484b165be8f0419d971808e446ec172d4[ALL] 02d485271fc84102439f6592512a8c95f5ca8b155562c1c54ba9a2e7326760baa1"}, "vout": 1, "txid": "0efbb3ea306686967f524c3108757fb2716add2215a1bd12974d10351a87427a"}], "txid": "114fcbbc677ec50957059baff9d6922e12355290f887352a02657444c91e8720", "blocktime": 1537873282, "version": 1, "confirmations": 11481, "time": 1537873282, "locktime": 0, "vsize": 373, "size": 373}