{"hash": "1152b692c4d4e1eb23da886daf571f9501c2a068821659e7a51af8b4a6fdaabd", "blockhash": "0000000000000000000e13cef7c366c0283d82e591d1acd082e914b08063cdf1", "vout": [{"scriptPubKey": {"reqSigs": 1, "hex": "76a914adf16f2af554cec108a482443285c4223ccddf0988ac", "addresses": ["1Grj8LH9tPS3st7QAfT8PCexyXtKTN5HTw"], "asm": "OP_DUP OP_HASH160 adf16f2af554cec108a482443285c4223ccddf09 OP_EQUALVERIFY OP_CHECKSIG", "type": "pubkeyhash"}, "value": 0.02599297, "n": 0}, {"scriptPubKey": {"reqSigs": 1, "hex": "76a9149e028555dda17c46fdf44525bfcf01e37666aee888ac", "addresses": ["1FQUnThb8AtGrXjjdrDT9sRURYbJnAd43j"], "asm": "OP_DUP OP_HASH160 9e028555dda17c46fdf44525bfcf01e37666aee8 OP_EQUALVERIFY OP_CHECKSIG", "type": "pubkeyhash"}, "value": 0.04462435, "n": 1}], "hex": "0200000001f0e4febd19217e7f9f87c59a8991ed5bdfcdc848caddaa9e60da7b7028b09480000000006b483045022100fb7ea85f5c34811dec2b806cc969f00697380c99bfac843869189336483e945e02203f1358346f4f51e7c1d7c44cf33576d6aa3dba705743d3d6e80757148618dee001210279cc363d8f29d289f4301a3c45cf41eded7b6e3a0f5393656f84d7aaa844cb91feffffff0281a92700000000001976a914adf16f2af554cec108a482443285c4223ccddf0988ac63174400000000001976a9149e028555dda17c46fdf44525bfcf01e37666aee888ac10490800", "vin": [{"sequence": 4294967294, "scriptSig": {"hex": "483045022100fb7ea85f5c34811dec2b806cc969f00697380c99bfac843869189336483e945e02203f1358346f4f51e7c1d7c44cf33576d6aa3dba705743d3d6e80757148618dee001210279cc363d8f29d289f4301a3c45cf41eded7b6e3a0f5393656f84d7aaa844cb91", "asm": "3045022100fb7ea85f5c34811dec2b806cc969f00697380c99bfac843869189336483e945e02203f1358346f4f51e7c1d7c44cf33576d6aa3dba705743d3d6e80757148618dee0[ALL] 0279cc363d8f29d289f4301a3c45cf41eded7b6e3a0f5393656f84d7aaa844cb91"}, "vout": 0, "txid": "8094b028707bda609eaaddca48c8cddf5bed91899ac5879f7f7e2119bdfee4f0"}], "txid": "1152b692c4d4e1eb23da886daf571f9501c2a068821659e7a51af8b4a6fdaabd", "blocktime": 1537871767, "version": 2, "confirmations": 11490, "time": 1537871767, "locktime": 542992, "vsize": 226, "size": 226}