{"hash": "cc8f72ac02fb69966068cdf50561bc81a28591a8119ea12744426e1b09ad48b4", "blockhash": "0000000000000000001cda96e906b7601b7a6fb1a3b62bca570a9e5d8f4b3de1", "vout": [{"scriptPubKey": {"reqSigs": 1, "hex": "a914a0332d4319525b1e280f1301f77a0c757f5fd6c287", "addresses": ["3GJ5M4dTGgND2htY3MsCeicmAD2CwSAwCS"], "asm": "OP_HASH160 a0332d4319525b1e280f1301f77a0c757f5fd6c2 OP_EQUAL", "type": "scripthash"}, "value": 0.00053367, "n": 0}, {"scriptPubKey": {"reqSigs": 1, "hex": "76a9140b1f5c5fe7501de5da62da921260f866a389ce1088ac", "addresses": ["121p16mLCcnzk5KxsLRCGWg5hfuMNNgspk"], "asm": "OP_DUP OP_HASH160 0b1f5c5fe7501de5da62da921260f866a389ce10 OP_EQUALVERIFY OP_CHECKSIG", "type": "pubkeyhash"}, "value": 0.00017468, "n": 1}, {"scriptPubKey": {"reqSigs": 1, "hex": "a9147392b565eb589e44aca9a438580108ab9f34619087", "addresses": ["3CE7P6VegT4CbUJiCUezZ7wxLpb1wV14R2"], "asm": "OP_HASH160 7392b565eb589e44aca9a438580108ab9f346190 OP_EQUAL", "type": "scripthash"}, "value": 0.12, "n": 2}, {"scriptPubKey": {"reqSigs": 1, "hex": "a914bddce1db77593a7ac8d67f0d488c4311d5103ffa87", "addresses": ["3JzvEy64J63pDv7KjyKsVzupMgKcwdgQU4"], "asm": "OP_HASH160 bddce1db77593a7ac8d67f0d488c4311d5103ffa OP_EQUAL", "type": "scripthash"}, "value": 1.38314908, "n": 3}], "hex": "020000000001017d48815a2c1c3cc367ba19344bc4c2921dda734e7fd20a2b94bbdff3d182fc720100000017160014394c1d55120fea8442873d75d93263e22518f914ffffffff0477d000000000000017a914a0332d4319525b1e280f1301f77a0c757f5fd6c2873c440000000000001976a9140b1f5c5fe7501de5da62da921260f866a389ce1088ac001bb7000000000017a9147392b565eb589e44aca9a438580108ab9f346190879c843e080000000017a914bddce1db77593a7ac8d67f0d488c4311d5103ffa87024830450221008078b65869807c8ba0645aedc52819d8db70cddeaa97069c8fe3f26450c48f4f022073ec57808d07170fe4b9e57774bd3b443410546a847ebbd38f4f23aa77f65bbb012103e196163b6d30d0fef27eff5bae2754a7ccba75d466b78c87116b6535bacce31b00000000", "vin": [{"txinwitness": ["30450221008078b65869807c8ba0645aedc52819d8db70cddeaa97069c8fe3f26450c48f4f022073ec57808d07170fe4b9e57774bd3b443410546a847ebbd38f4f23aa77f65bbb01", "03e196163b6d30d0fef27eff5bae2754a7ccba75d466b78c87116b6535bacce31b"], "sequence": 4294967295, "scriptSig": {"hex": "160014394c1d55120fea8442873d75d93263e22518f914", "asm": "0014394c1d55120fea8442873d75d93263e22518f914"}, "vout": 1, "txid": "72fc82d1f3dfbb942b0ad27f4e73da1d92c2c44b3419ba67c33c1c2c5a81487d"}], "txid": "11536e83d4c994816b61e328f78888d371018eb77f444770be4278a9f6b12edf", "blocktime": 1537873282, "version": 2, "confirmations": 11481, "time": 1537873282, "locktime": 0, "vsize": 232, "size": 314}