{"hash": "5f2ec7ebe0640b7a56329197e846b159bf65e97710500c3781cb7efb6c0a5124", "blockhash": "0000000000000000000e13cef7c366c0283d82e591d1acd082e914b08063cdf1", "vout": [{"scriptPubKey": {"reqSigs": 1, "hex": "0014d0d0e747846d9f62863b7ed4e06362bcd76bd20d", "addresses": ["bc1q6rgww3uydk0k9p3m0m2wqcmzhntkh5sd5pye3g"], "asm": "0 d0d0e747846d9f62863b7ed4e06362bcd76bd20d", "type": "witness_v0_keyhash"}, "value": 1.092e-05, "n": 0}, {"scriptPubKey": {"reqSigs": 1, "hex": "76a9147e450d33820f1e3182e47cfd9bfdbf072dc5b21e88ac", "addresses": ["1CWerxYUetD3gtjqe47XtbDNh9oEH1KeRZ"], "asm": "OP_DUP OP_HASH160 7e450d33820f1e3182e47cfd9bfdbf072dc5b21e OP_EQUALVERIFY OP_CHECKSIG", "type": "pubkeyhash"}, "value": 0.00152814, "n": 1}], "hex": "010000000001010a88dd3d148d8031bc3076f597a396d1a257b049b08364a1781869de5df5308c00000000171600146b957439c6a3bcdd0f662c85f9f5a99e746fb661ffffffff024404000000000000160014d0d0e747846d9f62863b7ed4e06362bcd76bd20dee540200000000001976a9147e450d33820f1e3182e47cfd9bfdbf072dc5b21e88ac02483045022100c74e9f7ceb3b3fd1f14ffa99b1f8b43c362526d91e6f13f6abb8739854d48a5602207409d344c502e816994d70d89e2787160dd96ec94d83514347e27fb5fef12247012103437636f60e2ab4e852d9061ecb98977e8364141d4127feb190f89745f35b458e00000000", "vin": [{"txinwitness": ["3045022100c74e9f7ceb3b3fd1f14ffa99b1f8b43c362526d91e6f13f6abb8739854d48a5602207409d344c502e816994d70d89e2787160dd96ec94d83514347e27fb5fef1224701", "03437636f60e2ab4e852d9061ecb98977e8364141d4127feb190f89745f35b458e"], "sequence": 4294967295, "scriptSig": {"hex": "1600146b957439c6a3bcdd0f662c85f9f5a99e746fb661", "asm": "00146b957439c6a3bcdd0f662c85f9f5a99e746fb661"}, "vout": 0, "txid": "8c30f55dde691878a16483b049b057a2d196a397f57630bc31808d143ddd880a"}], "txid": "11554481a2355e09d9e5a223d98ebf4ec5bad5210795894f0b4c7ff437504f83", "blocktime": 1537871767, "version": 1, "confirmations": 11495, "time": 1537871767, "locktime": 0, "vsize": 167, "size": 249}