{"hash": "1156ea6837977096ef677e62b7df27e5fe295b3bdc76ac2e5cd0ee1529ec1ec8", "blockhash": "00000000000000000018f53835495a110e01622372bf6ae95dc86f2b0ab887b0", "vout": [{"scriptPubKey": {"reqSigs": 1, "hex": "76a9148753f115c7ceaa801a2e7228be93751f2ca3abc388ac", "addresses": ["1DLYnGjq94sk9ri6ffbFbYkgQFULqyM1Pf"], "asm": "OP_DUP OP_HASH160 8753f115c7ceaa801a2e7228be93751f2ca3abc3 OP_EQUALVERIFY OP_CHECKSIG", "type": "pubkeyhash"}, "value": 0.00291136, "n": 0}, {"scriptPubKey": {"reqSigs": 1, "hex": "76a914b165fda2bc5ca5bdbb42a5da84838dec892580db88ac", "addresses": ["1HAznPzvUhH9mZQA2wHveBi3xnxoPuEZM6"], "asm": "OP_DUP OP_HASH160 b165fda2bc5ca5bdbb42a5da84838dec892580db OP_EQUALVERIFY OP_CHECKSIG", "type": "pubkeyhash"}, "value": 0.00395, "n": 1}], "hex": "01000000026ab4a2542fdc5afd218f7376e4470b101243055f27ece546e72111c5de3c6914010000006a47304402204a32716d561ffd2d6a5b9007579d48728981c41862b430cd217575c80f0df236022021a3cbdebb5da5ef74cc639eebe10b544211c977079c7e3b43e24c550c146e82012103883b4ef847262e74f5462845fdf8a3a61aecaa14bf4eb3a573e85d9daa2adb28fdffffffbd2b8031c77b324808e000b7ce87f83d76196087264449d59e9ff27a78a1f027010000006a47304402202606db6a04498bf48975da425fc03a16c97357e0fff32a85fff295d36210ca0702204d23f5d4b1f909f099d61393bedff00a9aee1581ce53e7817fd2dc4da1be41f90121037c98548c6a347be5692a2da3a4efb707b6425dc3fa6dd1525e08fe7174ca0ca2fdffffff0240710400000000001976a9148753f115c7ceaa801a2e7228be93751f2ca3abc388acf8060600000000001976a914b165fda2bc5ca5bdbb42a5da84838dec892580db88ac0e490800", "vin": [{"sequence": 4294967293, "scriptSig": {"hex": "47304402204a32716d561ffd2d6a5b9007579d48728981c41862b430cd217575c80f0df236022021a3cbdebb5da5ef74cc639eebe10b544211c977079c7e3b43e24c550c146e82012103883b4ef847262e74f5462845fdf8a3a61aecaa14bf4eb3a573e85d9daa2adb28", "asm": "304402204a32716d561ffd2d6a5b9007579d48728981c41862b430cd217575c80f0df236022021a3cbdebb5da5ef74cc639eebe10b544211c977079c7e3b43e24c550c146e82[ALL] 03883b4ef847262e74f5462845fdf8a3a61aecaa14bf4eb3a573e85d9daa2adb28"}, "vout": 1, "txid": "14693cdec51121e746e5ec275f054312100b47e476738f21fd5adc2f54a2b46a"}, {"sequence": 4294967293, "scriptSig": {"hex": "47304402202606db6a04498bf48975da425fc03a16c97357e0fff32a85fff295d36210ca0702204d23f5d4b1f909f099d61393bedff00a9aee1581ce53e7817fd2dc4da1be41f90121037c98548c6a347be5692a2da3a4efb707b6425dc3fa6dd1525e08fe7174ca0ca2", "asm": "304402202606db6a04498bf48975da425fc03a16c97357e0fff32a85fff295d36210ca0702204d23f5d4b1f909f099d61393bedff00a9aee1581ce53e7817fd2dc4da1be41f9[ALL] 037c98548c6a347be5692a2da3a4efb707b6425dc3fa6dd1525e08fe7174ca0ca2"}, "vout": 1, "txid": "27f0a1787af29f9ed5494426876019763df887ceb700e00848327bc731802bbd"}], "txid": "1156ea6837977096ef677e62b7df27e5fe295b3bdc76ac2e5cd0ee1529ec1ec8", "blocktime": 1537870928, "version": 1, "confirmations": 11512, "time": 1537870928, "locktime": 542990, "vsize": 372, "size": 372}