{"hash": "cd37b0f826998be3a9f87f703df786599956544324f877c663bf9f484d6c45cf", "blockhash": "0000000000000000001f76057863aec43deb6fa401d9628bb513d65a8098bfab", "vout": [{"scriptPubKey": {"reqSigs": 1, "hex": "a9147fade414984b3dabfef7f0cf47deba2bb5e5e80f87", "addresses": ["3DL844Tk964hdDghZFt2iV1AkVUUTxvXa8"], "asm": "OP_HASH160 7fade414984b3dabfef7f0cf47deba2bb5e5e80f OP_EQUAL", "type": "scripthash"}, "value": 0.00999077, "n": 0}, {"scriptPubKey": {"reqSigs": 1, "hex": "76a914e2e935237afbbfe00bd99aaa81246024105058c788ac", "addresses": ["1Mgo5uCE8xnPyzaSukNvFp2KYQNQKmaVky"], "asm": "OP_DUP OP_HASH160 e2e935237afbbfe00bd99aaa81246024105058c7 OP_EQUALVERIFY OP_CHECKSIG", "type": "pubkeyhash"}, "value": 0.0101306, "n": 1}], "hex": "02000000000102e3434efe96d126e246873d6a2d4a0eb11013f7190da7b4d42a07ad6970c4b6c30000000017160014de5c98914f8d52b336c56d3f990bb77cadbb02e6fefffffffb94081c45f0be7a8a2847de69f6bc7b520494834422ecd847fd7172f2ecd74c000000001716001415248082997b54c5dbc527c95be9e47d74415b4afeffffff02a53e0f000000000017a9147fade414984b3dabfef7f0cf47deba2bb5e5e80f8744750f00000000001976a914e2e935237afbbfe00bd99aaa81246024105058c788ac02483045022100b71ad23dd21b09716a0cf3b50424b5606dd62a7b558b3c8b45c966187761187802205f015543d8e72cbce81c77bfbcdf48a91b9757747f8160f589df0428807399cc0121024ec7b3301bab6cce0fff39aa87fc6d5cfd4efd0080dc5be34e5fdf5076f7567e02473044022036bd749e9c6fb6288f2b46de908788f7fa31d82697edd3b13beda7d67ac1e64302203740bff692d5bc0d1a4bd0da7d74a25f480f5fba305bab9a846cd2c6ca604cff0121031f6d0528b09d166ebe8f8440c596be1a1803d0bb7b3178f4b811b96d84efc75714490800", "vin": [{"txinwitness": ["3045022100b71ad23dd21b09716a0cf3b50424b5606dd62a7b558b3c8b45c966187761187802205f015543d8e72cbce81c77bfbcdf48a91b9757747f8160f589df0428807399cc01", "024ec7b3301bab6cce0fff39aa87fc6d5cfd4efd0080dc5be34e5fdf5076f7567e"], "sequence": 4294967294, "scriptSig": {"hex": "160014de5c98914f8d52b336c56d3f990bb77cadbb02e6", "asm": "0014de5c98914f8d52b336c56d3f990bb77cadbb02e6"}, "vout": 0, "txid": "c3b6c47069ad072ad4b4a70d19f71310b10e4a2d6a3d8746e226d196fe4e43e3"}, {"txinwitness": ["3044022036bd749e9c6fb6288f2b46de908788f7fa31d82697edd3b13beda7d67ac1e64302203740bff692d5bc0d1a4bd0da7d74a25f480f5fba305bab9a846cd2c6ca604cff01", "031f6d0528b09d166ebe8f8440c596be1a1803d0bb7b3178f4b811b96d84efc757"], "sequence": 4294967294, "scriptSig": {"hex": "16001415248082997b54c5dbc527c95be9e47d74415b4a", "asm": "001415248082997b54c5dbc527c95be9e47d74415b4a"}, "vout": 0, "txid": "4cd7ecf27271fd47d8ec2244839404527bbcf669de47288a7abef0451c0894fb"}], "txid": "115a9150fa46c3aa72a0c073ea52294d87ce8b88d9664041585429273997419b", "blocktime": 1537873891, "version": 2, "confirmations": 11478, "time": 1537873891, "locktime": 542996, "vsize": 259, "size": 421}