{"hash": "ffc142b5a8f51660becfcac9acbf9e6654208327c7de48767065047ca4eb4ef5", "blockhash": "0000000000000000001f0ddff1eddb255c1121bcd4da4f1bc9a0da00cae72433", "vout": [{"scriptPubKey": {"reqSigs": 1, "hex": "a914746d490dde7ac725dfeb5a6a1b886652e0e385c987", "addresses": ["3CJdE5Pok6JCufc9fW99S3iEikbXJeQezZ"], "asm": "OP_HASH160 746d490dde7ac725dfeb5a6a1b886652e0e385c9 OP_EQUAL", "type": "scripthash"}, "value": 5.0, "n": 0}, {"scriptPubKey": {"reqSigs": 1, "hex": "a9146ad92385470bb057b2e296799b2533b03614829d87", "addresses": ["3BRyfwdoAYR7MqXDxHo32SYRe1XiK5EC8H"], "asm": "OP_HASH160 6ad92385470bb057b2e296799b2533b03614829d OP_EQUAL", "type": "scripthash"}, "value": 35.5997, "n": 1}], "hex": "01000000000101d814137d0f039c247b9164fd4e4d7b71e894c093d369ed51eaf278ed96d19c970100000017160014bf6277f1e6fdb8a6e8db7cc5d2b3bd714e6ae35dffffffff020065cd1d0000000017a914746d490dde7ac725dfeb5a6a1b886652e0e385c987d0d430d40000000017a9146ad92385470bb057b2e296799b2533b03614829d8702473044022038f2ea4508e36f9ad49cf230eff7a6a8997b346d0f0d8fd880f6c8ad65ee193e02204cf9402dd77bfb8c7550b69038ead62a51bde58f686f75424428420a56579cd50121020664e69d44e21f8f44059a62dd6f8aff0d8c7424351bfd9fdf58fe3625cef70500000000", "vin": [{"txinwitness": ["3044022038f2ea4508e36f9ad49cf230eff7a6a8997b346d0f0d8fd880f6c8ad65ee193e02204cf9402dd77bfb8c7550b69038ead62a51bde58f686f75424428420a56579cd501", "020664e69d44e21f8f44059a62dd6f8aff0d8c7424351bfd9fdf58fe3625cef705"], "sequence": 4294967295, "scriptSig": {"hex": "160014bf6277f1e6fdb8a6e8db7cc5d2b3bd714e6ae35d", "asm": "0014bf6277f1e6fdb8a6e8db7cc5d2b3bd714e6ae35d"}, "vout": 1, "txid": "979cd196ed78f2ea51ed69d393c094e8717b4d4efd64917b249c030f7d1314d8"}], "txid": "116457595e95d5038ed1a530b94991ffbb13890c6f81a51e3e7573257a2d4539", "blocktime": 1537872018, "version": 1, "confirmations": 11489, "time": 1537872018, "locktime": 0, "vsize": 166, "size": 247}