{"hash": "8cb795f7b708adb984bf3c8bf8e92b8bb8dba6c3747d34c71872952107e94991", "blockhash": "0000000000000000001f0ddff1eddb255c1121bcd4da4f1bc9a0da00cae72433", "vout": [{"scriptPubKey": {"reqSigs": 1, "hex": "a91404934a7a0b395fad721a721043e72fd8405c0e8e87", "addresses": ["327D5GG9UJTQWV6N3yZh67tEn2DNxmg9cd"], "asm": "OP_HASH160 04934a7a0b395fad721a721043e72fd8405c0e8e OP_EQUAL", "type": "scripthash"}, "value": 0.01003617, "n": 0}, {"scriptPubKey": {"reqSigs": 1, "hex": "a9148321bac2202c2b1e12fe11bf27bf5f01f34f5b0587", "addresses": ["3DeNrEzKoUdDa6m3FJvp4jPBk1JrUfuUHz"], "asm": "OP_HASH160 8321bac2202c2b1e12fe11bf27bf5f01f34f5b05 OP_EQUAL", "type": "scripthash"}, "value": 0.00346666, "n": 1}], "hex": "020000000001025e8de6414fd19cdbd5947a2de15446af0ec63cfd15e9c265c05808f61723a20a06000000171600144a31dc6f462c21de0f7f29d100bfb62ce95078f5feffffff6fbaeb1a522c1b4a3663ece3b4fc6fae114b2e622cb991e01a7df1310590ea2601000000171600144ec2b500ecb886441c498481e82c860d01c20059feffffff0261500f000000000017a91404934a7a0b395fad721a721043e72fd8405c0e8e872a4a05000000000017a9148321bac2202c2b1e12fe11bf27bf5f01f34f5b058702483045022100a0bc5b1e8cb2dc45e5c67013130f150ecd4c333586de8f35cbec7c8579a7b982022066b22fa049aa202009ec98c3a8377d929ba4041097d2d480850d18bebf97fc440121028124f4c8caf3958dac3f2df4552cfe124230dc9bdc2490bd06c5b55ddcb2331a02483045022100a83661827334abc9416a425221f8806a57a3218d04ef2d25cc6df7e2d314e83802202a76ea98da1193e575c756c77e5b95bc3b7bcb9dd7590e5618926a345bdbabaa012103081f72efd0e062d5b3e1101d6db6a2495148c0598e44018d1a036077bf803e9611490800", "vin": [{"txinwitness": ["3045022100a0bc5b1e8cb2dc45e5c67013130f150ecd4c333586de8f35cbec7c8579a7b982022066b22fa049aa202009ec98c3a8377d929ba4041097d2d480850d18bebf97fc4401", "028124f4c8caf3958dac3f2df4552cfe124230dc9bdc2490bd06c5b55ddcb2331a"], "sequence": 4294967294, "scriptSig": {"hex": "1600144a31dc6f462c21de0f7f29d100bfb62ce95078f5", "asm": "00144a31dc6f462c21de0f7f29d100bfb62ce95078f5"}, "vout": 6, "txid": "0aa22317f60858c065c2e915fd3cc60eaf4654e12d7a94d5db9cd14f41e68d5e"}, {"txinwitness": ["3045022100a83661827334abc9416a425221f8806a57a3218d04ef2d25cc6df7e2d314e83802202a76ea98da1193e575c756c77e5b95bc3b7bcb9dd7590e5618926a345bdbabaa01", "03081f72efd0e062d5b3e1101d6db6a2495148c0598e44018d1a036077bf803e96"], "sequence": 4294967294, "scriptSig": {"hex": "1600144ec2b500ecb886441c498481e82c860d01c20059", "asm": "00144ec2b500ecb886441c498481e82c860d01c20059"}, "vout": 1, "txid": "26ea900531f17d1ae091b92c622e4b11ae6ffcb4e3ec63364a1b2c521aebba6f"}], "txid": "1164acc3e9f0fa3262a7b0742c04a1114143e75921a663e0e61d6a0409372879", "blocktime": 1537872018, "version": 2, "confirmations": 11489, "time": 1537872018, "locktime": 542993, "vsize": 257, "size": 420}