{"hash": "116593f3fa55c74413b3c12a3726f183c58d4ca939a6c887c7bba5f18db6efb4", "blockhash": "0000000000000000001e0dab787dd257d1dbfcb92a98c2207d5e1078be1f4165", "vout": [{"scriptPubKey": {"reqSigs": 1, "hex": "76a914e0acbd908cc7253e89a6fb83b50fcc9b7d41bd6088ac", "addresses": ["1MUyJBzLPveHaynWz66HwRkivQTr35PCWk"], "asm": "OP_DUP OP_HASH160 e0acbd908cc7253e89a6fb83b50fcc9b7d41bd60 OP_EQUALVERIFY OP_CHECKSIG", "type": "pubkeyhash"}, "value": 0.00135051, "n": 0}, {"scriptPubKey": {"type": "nulldata", "hex": "6a146f6d6e69000000000000001f0000000005f5e100", "asm": "OP_RETURN 6f6d6e69000000000000001f0000000005f5e100"}, "value": 0.0, "n": 1}, {"scriptPubKey": {"reqSigs": 1, "hex": "76a914802c2301f3bc892a092d70e6c890cdf7b20ac33e88ac", "addresses": ["1CgiNEJWrh7oAKfa7qBnP8j3DciZMjGDTM"], "asm": "OP_DUP OP_HASH160 802c2301f3bc892a092d70e6c890cdf7b20ac33e OP_EQUALVERIFY OP_CHECKSIG", "type": "pubkeyhash"}, "value": 5.46e-06, "n": 2}], "hex": "0100000001d71ad0ab5bf5ab42bac46d03c3bdf4c831d515ba71bb2f6f9cb50c07ca5999f8000000006b483045022100eda4f67801306625f7796c273ee9dab95d26542c538c7515d5333ef35948a07902201414677ec6d85fe8d06d88675a8d8bc2ca9d0172508aca73dda4c497d086915b012102627a34f8ebabb979d1d75664d83bf22a41d990a407565d793280e0196c821d13ffffffff038b0f0200000000001976a914e0acbd908cc7253e89a6fb83b50fcc9b7d41bd6088ac0000000000000000166a146f6d6e69000000000000001f0000000005f5e10022020000000000001976a914802c2301f3bc892a092d70e6c890cdf7b20ac33e88ac00000000", "vin": [{"sequence": 4294967295, "scriptSig": {"hex": "483045022100eda4f67801306625f7796c273ee9dab95d26542c538c7515d5333ef35948a07902201414677ec6d85fe8d06d88675a8d8bc2ca9d0172508aca73dda4c497d086915b012102627a34f8ebabb979d1d75664d83bf22a41d990a407565d793280e0196c821d13", "asm": "3045022100eda4f67801306625f7796c273ee9dab95d26542c538c7515d5333ef35948a07902201414677ec6d85fe8d06d88675a8d8bc2ca9d0172508aca73dda4c497d086915b[ALL] 02627a34f8ebabb979d1d75664d83bf22a41d990a407565d793280e0196c821d13"}, "vout": 0, "txid": "f89959ca070cb59c6f2fbb71ba15d531c8f4bdc3036dc4ba42abf55babd01ad7"}], "txid": "116593f3fa55c74413b3c12a3726f183c58d4ca939a6c887c7bba5f18db6efb4", "blocktime": 1537872475, "version": 1, "confirmations": 11486, "time": 1537872475, "locktime": 0, "vsize": 257, "size": 257}