{"hash": "b4eb74f6f26ad23d80d739606120af5461f51eafbb8e93a275e64458cb12d7b2", "blockhash": "0000000000000000000e13cef7c366c0283d82e591d1acd082e914b08063cdf1", "vout": [{"scriptPubKey": {"reqSigs": 1, "hex": "00146f1d86ddfbec56ad44ea7c79bcd3ba5de7a3b086", "addresses": ["bc1qduwcdh0ma3t2638203ume5a6thn68vyxmjn5wv"], "asm": "0 6f1d86ddfbec56ad44ea7c79bcd3ba5de7a3b086", "type": "witness_v0_keyhash"}, "value": 0.00322272, "n": 0}, {"scriptPubKey": {"reqSigs": 1, "hex": "76a914e38c0dcdc5b828f26e898b49f4cf0d8969b0801988ac", "addresses": ["1MkAAfRnZizAKGunZhXppT9f4xFK2q6FeP"], "asm": "OP_DUP OP_HASH160 e38c0dcdc5b828f26e898b49f4cf0d8969b08019 OP_EQUALVERIFY OP_CHECKSIG", "type": "pubkeyhash"}, "value": 0.04701678, "n": 1}], "hex": "0100000000010198594f42bbecc7c740c28203fa8e0417ac4312ccd347f0fbefd3ebae60a7a31d0000000000ffffffff02e0ea0400000000001600146f1d86ddfbec56ad44ea7c79bcd3ba5de7a3b086eebd4700000000001976a914e38c0dcdc5b828f26e898b49f4cf0d8969b0801988ac02463043021f3acc7ff07b0a6dfa600d64ac681efbacf725d3b8516cccebbfa85ac05f36a00220081546c323cdc75576dea9fc2b69b7a80fd7e0e93f8f05fe1241cbe8a9efe0c60121039cec417bf4c533776d6a2ce50f43cf8dd094c70a53982b2025b7ca4c9dfd598700000000", "vin": [{"txinwitness": ["3043021f3acc7ff07b0a6dfa600d64ac681efbacf725d3b8516cccebbfa85ac05f36a00220081546c323cdc75576dea9fc2b69b7a80fd7e0e93f8f05fe1241cbe8a9efe0c601", "039cec417bf4c533776d6a2ce50f43cf8dd094c70a53982b2025b7ca4c9dfd5987"], "sequence": 4294967295, "scriptSig": {"hex": "", "asm": ""}, "vout": 0, "txid": "1da3a760aeebd3effbf047d3cc1243ac17048efa0382c240c7c7ecbb424f5998"}], "txid": "11675699cc8eba4a2a569b2184a6eebb04072191cccfcd89f1a90a8852bb57fc", "blocktime": 1537871767, "version": 1, "confirmations": 11495, "time": 1537871767, "locktime": 0, "vsize": 143, "size": 224}