{"hash": "116a92698a77ea6af3e7d6d18b78fff1dd7b564a8b3dfb21c16f8e3b3b65267c", "blockhash": "0000000000000000001cda96e906b7601b7a6fb1a3b62bca570a9e5d8f4b3de1", "vout": [{"scriptPubKey": {"reqSigs": 1, "hex": "a9142f3064a9e4a950941699d43e40e55580b7a5b27587", "addresses": ["35zXeymCdgn4oJsi5rxHkG8LvRFbEPSuLu"], "asm": "OP_HASH160 2f3064a9e4a950941699d43e40e55580b7a5b275 OP_EQUAL", "type": "scripthash"}, "value": 0.00070345, "n": 0}, {"scriptPubKey": {"reqSigs": 1, "hex": "76a914d5ba2eb2d52670fbe9522748bf642da754eb0d6f88ac", "addresses": ["1LV5y3NkVkmdWnF6xRCEXrAnUkRgge4KSq"], "asm": "OP_DUP OP_HASH160 d5ba2eb2d52670fbe9522748bf642da754eb0d6f OP_EQUALVERIFY OP_CHECKSIG", "type": "pubkeyhash"}, "value": 29.51299141, "n": 1}], "hex": "010000000193e39b13c871396fbfb48c23d99e9eb003de1a5e1aef17bf5379aec922a3ebb8010000006a473044022047add6b00976487b77f0d51e67405207335160f8b3090f573224553a5de111300220073c2fb3568e7325e7d8e1e0052c52d2f11179e1d589e7c87a26493ada68ddcd012102c19ebc0e7fe714e24c55adaeebc7dbab2dc9a208b511bd1b6e83db85506d4d19ffffffff02c91201000000000017a9142f3064a9e4a950941699d43e40e55580b7a5b275874540e9af000000001976a914d5ba2eb2d52670fbe9522748bf642da754eb0d6f88ac00000000", "vin": [{"sequence": 4294967295, "scriptSig": {"hex": "473044022047add6b00976487b77f0d51e67405207335160f8b3090f573224553a5de111300220073c2fb3568e7325e7d8e1e0052c52d2f11179e1d589e7c87a26493ada68ddcd012102c19ebc0e7fe714e24c55adaeebc7dbab2dc9a208b511bd1b6e83db85506d4d19", "asm": "3044022047add6b00976487b77f0d51e67405207335160f8b3090f573224553a5de111300220073c2fb3568e7325e7d8e1e0052c52d2f11179e1d589e7c87a26493ada68ddcd[ALL] 02c19ebc0e7fe714e24c55adaeebc7dbab2dc9a208b511bd1b6e83db85506d4d19"}, "vout": 1, "txid": "b8eba322c9ae7953bf17ef1a5e1ade03b09e9ed9238cb4bf6f3971c8139be393"}], "txid": "116a92698a77ea6af3e7d6d18b78fff1dd7b564a8b3dfb21c16f8e3b3b65267c", "blocktime": 1537873282, "version": 1, "confirmations": 11484, "time": 1537873282, "locktime": 0, "vsize": 223, "size": 223}