{"hash": "116c8e8a062217701f34873c9a32be99fb227b5f62698dfa31a3d04b0d8c22c6", "blockhash": "0000000000000000001cda96e906b7601b7a6fb1a3b62bca570a9e5d8f4b3de1", "vout": [{"scriptPubKey": {"reqSigs": 1, "hex": "76a9149698b3cd87af088b765a4eb59aeeac4e24297baf88ac", "addresses": ["1EjHHimhq9hStfGBEyN3dFLwkyoNk1h7eT"], "asm": "OP_DUP OP_HASH160 9698b3cd87af088b765a4eb59aeeac4e24297baf OP_EQUALVERIFY OP_CHECKSIG", "type": "pubkeyhash"}, "value": 0.01149153, "n": 0}, {"scriptPubKey": {"reqSigs": 1, "hex": "76a914de1b515aa59da1f4037618a03001698f50d6b4a288ac", "addresses": ["1MFPjfG26TKvrWnwcdJsHFZhFbXWK4aTu7"], "asm": "OP_DUP OP_HASH160 de1b515aa59da1f4037618a03001698f50d6b4a2 OP_EQUALVERIFY OP_CHECKSIG", "type": "pubkeyhash"}, "value": 0.07852887, "n": 1}], "hex": "010000000198bdcd5c49cac4c2be6914243cf2acc5f18630215ea5743eeb8409d0dfeb6cdf010000006a47304402204ca8b0662dbee00f6aa6bff6a72a9c1603db6dafaefeeaa723b5883a7e11d6c102200de77b78a47eea6947a1314074b7dc8f7badbaf27f2608e369cd583730cbcd61012102964b0f737580b74c20e89cef495eac028dedfcbe9b2505503dd809fdd5ef2f1cffffffff02e1881100000000001976a9149698b3cd87af088b765a4eb59aeeac4e24297baf88ac57d37700000000001976a914de1b515aa59da1f4037618a03001698f50d6b4a288ac00000000", "vin": [{"sequence": 4294967295, "scriptSig": {"hex": "47304402204ca8b0662dbee00f6aa6bff6a72a9c1603db6dafaefeeaa723b5883a7e11d6c102200de77b78a47eea6947a1314074b7dc8f7badbaf27f2608e369cd583730cbcd61012102964b0f737580b74c20e89cef495eac028dedfcbe9b2505503dd809fdd5ef2f1c", "asm": "304402204ca8b0662dbee00f6aa6bff6a72a9c1603db6dafaefeeaa723b5883a7e11d6c102200de77b78a47eea6947a1314074b7dc8f7badbaf27f2608e369cd583730cbcd61[ALL] 02964b0f737580b74c20e89cef495eac028dedfcbe9b2505503dd809fdd5ef2f1c"}, "vout": 1, "txid": "df6cebdfd00984eb3e74a55e213086f1c5acf23c241469bec2c4ca495ccdbd98"}], "txid": "116c8e8a062217701f34873c9a32be99fb227b5f62698dfa31a3d04b0d8c22c6", "blocktime": 1537873282, "version": 1, "confirmations": 11483, "time": 1537873282, "locktime": 0, "vsize": 225, "size": 225}