{"hash": "5a3832ac4db53f3b74f55c7e3d954a25082b0a2db16c38b7edfb87c164eed099", "blockhash": "0000000000000000001cda96e906b7601b7a6fb1a3b62bca570a9e5d8f4b3de1", "vout": [{"scriptPubKey": {"reqSigs": 1, "hex": "a914602ccc62fd538d851db1d6996508eb73352914c587", "addresses": ["3ATYTc6P3cxMbR2JLapvH2oexu8hNvuccK"], "asm": "OP_HASH160 602ccc62fd538d851db1d6996508eb73352914c5 OP_EQUAL", "type": "scripthash"}, "value": 0.00168068, "n": 0}, {"scriptPubKey": {"reqSigs": 1, "hex": "0014ed5fb3e9b0b9e5497de37157a238999a2862c6ee", "addresses": ["bc1qa40m86dsh8j5jl0rw9t6ywyeng5x93hwh6yhcq"], "asm": "0 ed5fb3e9b0b9e5497de37157a238999a2862c6ee", "type": "witness_v0_keyhash"}, "value": 2.331e-05, "n": 1}], "hex": "010000000001010618477cba7b5950aa68174a63ee849cfe7accb564a9d38dcf38439f82b619fa0100000000ffffffff02849002000000000017a914602ccc62fd538d851db1d6996508eb73352914c5871b09000000000000160014ed5fb3e9b0b9e5497de37157a238999a2862c6ee0247304402201116032328c69bc7b45dedb4c8b4a88af47fdeb8489c43fd365b16d8a4e4a91f022007be35c442450f533b90d3100a49326f93a8a84e4b580066fa87f18194d7ad9a0121031364d65fa8bb2577a1c3bf6c3adb65e9ef8c28824c912054277027ad1b80f3f300000000", "vin": [{"txinwitness": ["304402201116032328c69bc7b45dedb4c8b4a88af47fdeb8489c43fd365b16d8a4e4a91f022007be35c442450f533b90d3100a49326f93a8a84e4b580066fa87f18194d7ad9a01", "031364d65fa8bb2577a1c3bf6c3adb65e9ef8c28824c912054277027ad1b80f3f3"], "sequence": 4294967295, "scriptSig": {"hex": "", "asm": ""}, "vout": 1, "txid": "fa19b6829f4338cf8dd3a964b5cc7afe9c84ee634a1768aa50597bba7c471806"}], "txid": "1172fc374d4f188955756cf52657a2185ee55fdff7012a66be9945271ee995ad", "blocktime": 1537873282, "version": 1, "confirmations": 11484, "time": 1537873282, "locktime": 0, "vsize": 142, "size": 223}