{"hash": "117db30e6161668153e97b6f625569aaf6261d8c13303f46590185583b45e28f", "blockhash": "0000000000000000000e13cef7c366c0283d82e591d1acd082e914b08063cdf1", "vout": [{"scriptPubKey": {"reqSigs": 1, "hex": "a914902651769d848061ad3743b6a0417d9cd24c84e487", "addresses": ["3EqD8ZeSFzV9Ha8QHGtKv5YoouWbkMPqzu"], "asm": "OP_HASH160 902651769d848061ad3743b6a0417d9cd24c84e4 OP_EQUAL", "type": "scripthash"}, "value": 0.0062976, "n": 0}, {"scriptPubKey": {"reqSigs": 1, "hex": "76a914db27ba28519dc57b01dd4357c7ace2694b08901c88ac", "addresses": ["1LynaJcBMg9gwFrof9PnYWguwQeWj7G9CN"], "asm": "OP_DUP OP_HASH160 db27ba28519dc57b01dd4357c7ace2694b08901c OP_EQUALVERIFY OP_CHECKSIG", "type": "pubkeyhash"}, "value": 0.06061404, "n": 1}], "hex": "01000000010607b6b3636fc85d3e8431601fd62e7a55ddc393e543267094c11510c9eb9813010000006a47304402204cea70854c7b0e29993603bfafbf182f94033ff8aa3f81b90c6e4922cfa810bb022008e81f8b1b803b93ba0a54ce13d06135e25c7e300178d6ec89323107f9bf9ba0012103e58411b384b6edf35b388bb3a056444f999a93a01d87263e9117dca57e9b1c4affffffff02009c09000000000017a914902651769d848061ad3743b6a0417d9cd24c84e4875c7d5c00000000001976a914db27ba28519dc57b01dd4357c7ace2694b08901c88ac00000000", "vin": [{"sequence": 4294967295, "scriptSig": {"hex": "47304402204cea70854c7b0e29993603bfafbf182f94033ff8aa3f81b90c6e4922cfa810bb022008e81f8b1b803b93ba0a54ce13d06135e25c7e300178d6ec89323107f9bf9ba0012103e58411b384b6edf35b388bb3a056444f999a93a01d87263e9117dca57e9b1c4a", "asm": "304402204cea70854c7b0e29993603bfafbf182f94033ff8aa3f81b90c6e4922cfa810bb022008e81f8b1b803b93ba0a54ce13d06135e25c7e300178d6ec89323107f9bf9ba0[ALL] 03e58411b384b6edf35b388bb3a056444f999a93a01d87263e9117dca57e9b1c4a"}, "vout": 1, "txid": "1398ebc91015c194702643e593c3dd557a2ed61f6031843e5dc86f63b3b60706"}], "txid": "117db30e6161668153e97b6f625569aaf6261d8c13303f46590185583b45e28f", "blocktime": 1537871767, "version": 1, "confirmations": 11491, "time": 1537871767, "locktime": 0, "vsize": 223, "size": 223}