{"hash": "118d94ff162d9d346ba13c0e9d8405cd18940d560c91a78e4dc1c47fe683639c", "blockhash": "0000000000000000000e13cef7c366c0283d82e591d1acd082e914b08063cdf1", "vout": [{"scriptPubKey": {"reqSigs": 1, "hex": "76a91482d78a1cf8cf04b17bac943da84d6d1001a7895088ac", "addresses": ["1Cvq3tM5Te2FdF3XQMPU4H5XYgMDtFmhuf"], "asm": "OP_DUP OP_HASH160 82d78a1cf8cf04b17bac943da84d6d1001a78950 OP_EQUALVERIFY OP_CHECKSIG", "type": "pubkeyhash"}, "value": 0.02039017, "n": 0}, {"scriptPubKey": {"reqSigs": 1, "hex": "76a91438c6c902f1a3a18adc37d6d9e5510c4a05b0832188ac", "addresses": ["16BCyafXdo9Ga5xJULVKq52m228V2x4vkb"], "asm": "OP_DUP OP_HASH160 38c6c902f1a3a18adc37d6d9e5510c4a05b08321 OP_EQUALVERIFY OP_CHECKSIG", "type": "pubkeyhash"}, "value": 0.0301227, "n": 1}], "hex": "01000000013fe01ca38738fe6ede12def16c182cad959c88988171447df74c5bbdbfdd6848010000006a47304402203f661d1199353afd758be94f782760ad0caa7706939303477fb9ef6523b02aaa02203867501fd33817d88bec381125f9ef1acd882d5e3205ae186be2629368ef8b6d012103c94014a2c1ba9c82c26aeb102ea0aaaa3df7935db5bf43dffc2db13360046601ffffffff02e91c1f00000000001976a91482d78a1cf8cf04b17bac943da84d6d1001a7895088acaef62d00000000001976a91438c6c902f1a3a18adc37d6d9e5510c4a05b0832188ac00000000", "vin": [{"sequence": 4294967295, "scriptSig": {"hex": "47304402203f661d1199353afd758be94f782760ad0caa7706939303477fb9ef6523b02aaa02203867501fd33817d88bec381125f9ef1acd882d5e3205ae186be2629368ef8b6d012103c94014a2c1ba9c82c26aeb102ea0aaaa3df7935db5bf43dffc2db13360046601", "asm": "304402203f661d1199353afd758be94f782760ad0caa7706939303477fb9ef6523b02aaa02203867501fd33817d88bec381125f9ef1acd882d5e3205ae186be2629368ef8b6d[ALL] 03c94014a2c1ba9c82c26aeb102ea0aaaa3df7935db5bf43dffc2db13360046601"}, "vout": 1, "txid": "4868ddbfbd5b4cf77d44718198889c95ad2c186cf1de12de6efe3887a31ce03f"}], "txid": "118d94ff162d9d346ba13c0e9d8405cd18940d560c91a78e4dc1c47fe683639c", "blocktime": 1537871767, "version": 1, "confirmations": 11495, "time": 1537871767, "locktime": 0, "vsize": 225, "size": 225}