{"hash": "11921232fd1266719c582012a5ec9f3d4567fad74d7a38e5a0dc9bd750006a03", "blockhash": "0000000000000000001cda96e906b7601b7a6fb1a3b62bca570a9e5d8f4b3de1", "vout": [{"scriptPubKey": {"reqSigs": 1, "hex": "76a91408f141bcdb246a3096872c7c2d7b1aec2247c64288ac", "addresses": ["1pHRMJt6xVxu6T16hf6sVteEM9YKY8rxE"], "asm": "OP_DUP OP_HASH160 08f141bcdb246a3096872c7c2d7b1aec2247c642 OP_EQUALVERIFY OP_CHECKSIG", "type": "pubkeyhash"}, "value": 3.955e-05, "n": 0}, {"scriptPubKey": {"reqSigs": 1, "hex": "a914228354bb8eac6e37710f288449c199980fb77f4e87", "addresses": ["34qWE6vWc8t3EiPfCYqePciBkN48Yqxcup"], "asm": "OP_HASH160 228354bb8eac6e37710f288449c199980fb77f4e OP_EQUAL", "type": "scripthash"}, "value": 0.02166778, "n": 1}], "hex": "0100000001d10a520a34baa840792e63bc52ab24bf6cdbbf29a80cc9e42ca7b0b2cd553462010000006a473044022070cefe436bc376778627c21938dd9ebac44af9f17706054527b52853464d466f02200fd6c5863f5ee16fb687251eee189f041fbd2f3f509ead971db6cbe844586156012103227d784965291d731afb464f093092bc3360bb832b8faf4a8668cb999bc783bbffffffff02730f0000000000001976a91408f141bcdb246a3096872c7c2d7b1aec2247c64288acfa0f21000000000017a914228354bb8eac6e37710f288449c199980fb77f4e8700000000", "vin": [{"sequence": 4294967295, "scriptSig": {"hex": "473044022070cefe436bc376778627c21938dd9ebac44af9f17706054527b52853464d466f02200fd6c5863f5ee16fb687251eee189f041fbd2f3f509ead971db6cbe844586156012103227d784965291d731afb464f093092bc3360bb832b8faf4a8668cb999bc783bb", "asm": "3044022070cefe436bc376778627c21938dd9ebac44af9f17706054527b52853464d466f02200fd6c5863f5ee16fb687251eee189f041fbd2f3f509ead971db6cbe844586156[ALL] 03227d784965291d731afb464f093092bc3360bb832b8faf4a8668cb999bc783bb"}, "vout": 1, "txid": "623455cdb2b0a72ce4c90ca829bfdb6cbf24ab52bc632e7940a8ba340a520ad1"}], "txid": "11921232fd1266719c582012a5ec9f3d4567fad74d7a38e5a0dc9bd750006a03", "blocktime": 1537873282, "version": 1, "confirmations": 11485, "time": 1537873282, "locktime": 0, "vsize": 223, "size": 223}