{"hash": "119604d63f87f3a932252f929cee9f5801671a71c539d156ec11ad1f97767b4c", "blockhash": "000000000000000000022b45ed06c6f4ccd3cf7fb5ba4856ebd2e58215665228", "vout": [{"scriptPubKey": {"reqSigs": 1, "hex": "76a914b747be3169e16271a1d2b1d588f9c4b5d37c7e8188ac", "addresses": ["1Hi6btjTQXbXTmJARKnDEg6FKDF6D9S3QK"], "asm": "OP_DUP OP_HASH160 b747be3169e16271a1d2b1d588f9c4b5d37c7e81 OP_EQUALVERIFY OP_CHECKSIG", "type": "pubkeyhash"}, "value": 0.00075, "n": 0}, {"scriptPubKey": {"reqSigs": 1, "hex": "a9140dd9bc00c3ca7d360f570afbc0fd4ba1d9127b5887", "addresses": ["32xFYVFjTxDudKTEtTAHZiACjqetXLpF4C"], "asm": "OP_HASH160 0dd9bc00c3ca7d360f570afbc0fd4ba1d9127b58 OP_EQUAL", "type": "scripthash"}, "value": 0.00195, "n": 1}], "hex": "0200000001c4c18e1a56aabed2bedc9355a13419a2db2913689bbaa007229d049a87b769dd010000006b483045022100b2407487b0ed65f925a0f8a0e2cb2b73f0172bb0a553e791623c5a25bfb8150b0220111dc1ff7bad378aa85091e91752b73f17076d496d124c9f40bb522363638c4d012102f7b954f9ab9ce52bea6952a45e615d60cbcfac3e5bc15477453ee136836fc797ffffffff02f8240100000000001976a914b747be3169e16271a1d2b1d588f9c4b5d37c7e8188acb8f902000000000017a9140dd9bc00c3ca7d360f570afbc0fd4ba1d9127b588700000000", "vin": [{"sequence": 4294967295, "scriptSig": {"hex": "483045022100b2407487b0ed65f925a0f8a0e2cb2b73f0172bb0a553e791623c5a25bfb8150b0220111dc1ff7bad378aa85091e91752b73f17076d496d124c9f40bb522363638c4d012102f7b954f9ab9ce52bea6952a45e615d60cbcfac3e5bc15477453ee136836fc797", "asm": "3045022100b2407487b0ed65f925a0f8a0e2cb2b73f0172bb0a553e791623c5a25bfb8150b0220111dc1ff7bad378aa85091e91752b73f17076d496d124c9f40bb522363638c4d[ALL] 02f7b954f9ab9ce52bea6952a45e615d60cbcfac3e5bc15477453ee136836fc797"}, "vout": 1, "txid": "dd69b7879a049d2207a0ba9b681329dba21934a15593dcbed2beaa561a8ec1c4"}], "txid": "119604d63f87f3a932252f929cee9f5801671a71c539d156ec11ad1f97767b4c", "blocktime": 1537869901, "version": 2, "confirmations": 11522, "time": 1537869901, "locktime": 0, "vsize": 224, "size": 224}