{"hash": "119788770845ea16c0a7df6f54c042c435dea0ec7638af4454dd050a752c4fd5", "blockhash": "0000000000000000001cda96e906b7601b7a6fb1a3b62bca570a9e5d8f4b3de1", "vout": [{"scriptPubKey": {"reqSigs": 1, "hex": "76a91408e15b37e5abf0fc3c07245947d725447bd8198a88ac", "addresses": ["1oxNZrHwDNAVRvhfPFpiwKVYymhrkEoVE"], "asm": "OP_DUP OP_HASH160 08e15b37e5abf0fc3c07245947d725447bd8198a OP_EQUALVERIFY OP_CHECKSIG", "type": "pubkeyhash"}, "value": 0.00032578, "n": 0}, {"scriptPubKey": {"reqSigs": 1, "hex": "a914d2526de9744305f80522e94274a06f720579396e87", "addresses": ["3Ls6a7sgwZ7RBowi6vjiu6seBAcuu9soCK"], "asm": "OP_HASH160 d2526de9744305f80522e94274a06f720579396e OP_EQUAL", "type": "scripthash"}, "value": 0.0156306, "n": 1}], "hex": "0100000001d21993df2e70953586dfc51f300948ba2d0e2dba405d1741a81a126fd76e79cf010000006a47304402203d0cefc88e32296c6dde3282a33f8b95cf787dc16d0dada5e9a08ddd506f295402205814e41b3db4412df092a44fcbd6d73a57a12af1f35ffb18f171af4e803d18ff012103bda6ff30b3af25b97b01b4f2b35b658522090e4306d96d2706a57102af4d8809ffffffff02427f0000000000001976a91408e15b37e5abf0fc3c07245947d725447bd8198a88acb4d917000000000017a914d2526de9744305f80522e94274a06f720579396e8700000000", "vin": [{"sequence": 4294967295, "scriptSig": {"hex": "47304402203d0cefc88e32296c6dde3282a33f8b95cf787dc16d0dada5e9a08ddd506f295402205814e41b3db4412df092a44fcbd6d73a57a12af1f35ffb18f171af4e803d18ff012103bda6ff30b3af25b97b01b4f2b35b658522090e4306d96d2706a57102af4d8809", "asm": "304402203d0cefc88e32296c6dde3282a33f8b95cf787dc16d0dada5e9a08ddd506f295402205814e41b3db4412df092a44fcbd6d73a57a12af1f35ffb18f171af4e803d18ff[ALL] 03bda6ff30b3af25b97b01b4f2b35b658522090e4306d96d2706a57102af4d8809"}, "vout": 1, "txid": "cf796ed76f121aa841175d40ba2d0e2dba4809301fc5df863595702edf9319d2"}], "txid": "119788770845ea16c0a7df6f54c042c435dea0ec7638af4454dd050a752c4fd5", "blocktime": 1537873282, "version": 1, "confirmations": 11485, "time": 1537873282, "locktime": 0, "vsize": 223, "size": 223}