{"hash": "e44f854cc48ac89abf25d65c73e86334204ea264155d7c9c96c78f1ee690709b", "blockhash": "000000000000000000022b45ed06c6f4ccd3cf7fb5ba4856ebd2e58215665228", "vout": [{"scriptPubKey": {"reqSigs": 1, "hex": "a91437528189abf31f4c842cff0f340e2f7bed6a65f787", "addresses": ["36jXviGPtk8nVZfzXeRkWyZaj7SKThU7sE"], "asm": "OP_HASH160 37528189abf31f4c842cff0f340e2f7bed6a65f7 OP_EQUAL", "type": "scripthash"}, "value": 0.0197, "n": 0}, {"scriptPubKey": {"reqSigs": 1, "hex": "00149d16539f865fd5c6361aff203ca441119b9ad9b9", "addresses": ["bc1qn5t988uxtl2uvds6lusrefzpzxde4kdegvlfuf"], "asm": "0 9d16539f865fd5c6361aff203ca441119b9ad9b9", "type": "witness_v0_keyhash"}, "value": 0.00092242, "n": 1}], "hex": "0100000000010101978eb8989bfe533582c12c8d743365a3bb7675fa00dbf892304ec4b02f7d530400000017160014267ac5d7e4d5dc12276824a7ddff6c83e276dc0bffffffff02500f1e000000000017a91437528189abf31f4c842cff0f340e2f7bed6a65f78752680100000000001600149d16539f865fd5c6361aff203ca441119b9ad9b9024830450221008ad4310c814cc38a6ee2b4f1276865ea6aeff1b2877206985ada94046c22d72d02201dbfb73ada0c5170ff711c2f19b70737a972063c567ed60674c2670fde1f63ba01210327ee21ef5163890cbc9fbbf40972a2043bb3a0199987e023fd04cf2c9f93f57c00000000", "vin": [{"txinwitness": ["30450221008ad4310c814cc38a6ee2b4f1276865ea6aeff1b2877206985ada94046c22d72d02201dbfb73ada0c5170ff711c2f19b70737a972063c567ed60674c2670fde1f63ba01", "0327ee21ef5163890cbc9fbbf40972a2043bb3a0199987e023fd04cf2c9f93f57c"], "sequence": 4294967295, "scriptSig": {"hex": "160014267ac5d7e4d5dc12276824a7ddff6c83e276dc0b", "asm": "0014267ac5d7e4d5dc12276824a7ddff6c83e276dc0b"}, "vout": 4, "txid": "537d2fb0c44e3092f8db00fa7576bba36533748d2cc1823553fe9b98b88e9701"}], "txid": "119a12d8d214c5440024edf91058dfb1c477217596f37be4d2502e7a0d9c5b73", "blocktime": 1537869901, "version": 1, "confirmations": 11523, "time": 1537869901, "locktime": 0, "vsize": 165, "size": 247}