{"hash": "119e1011dbaf8491abcaaf7ceafeff5882d9f44770c1eadf8a646243d91acbd4", "blockhash": "0000000000000000001cda96e906b7601b7a6fb1a3b62bca570a9e5d8f4b3de1", "vout": [{"scriptPubKey": {"reqSigs": 1, "hex": "76a9143d5d896021734204e05378a29c393251fca8fdd788ac", "addresses": ["16bUGjvunVp7LqygLHrTvHyvbvfeuRCWAh"], "asm": "OP_DUP OP_HASH160 3d5d896021734204e05378a29c393251fca8fdd7 OP_EQUALVERIFY OP_CHECKSIG", "type": "pubkeyhash"}, "value": 0.01463687, "n": 0}, {"scriptPubKey": {"reqSigs": 1, "hex": "76a9140c5467b99797d610a1ea1b074dbc95ab516c512c88ac", "addresses": ["128CDsq9pboZcjDFaPNqB2EmQGzFFcNCft"], "asm": "OP_DUP OP_HASH160 0c5467b99797d610a1ea1b074dbc95ab516c512c OP_EQUALVERIFY OP_CHECKSIG", "type": "pubkeyhash"}, "value": 5.46e-06, "n": 1}, {"scriptPubKey": {"type": "nulldata", "hex": "6a146f6d6e69000000000000001f00000045d073e680", "asm": "OP_RETURN 6f6d6e69000000000000001f00000045d073e680"}, "value": 0.0, "n": 2}], "hex": "0100000001da6a1cbc72b2d1c6129c8867ed51843f3e1876274818129015cf108d0b814792000000006a47304402206f196e1a2027bead50512a120138d864082c83adeabb82ab1862fd825a46ac55022044640c36f8bf0638128feba56d8e2bda27e7219ab1776a2d15fbc7b9c2acecb3012103486fea7a6ac64066aad0880cdef75a12efb8ef02a17201aa5e09388afaa6c3bbffffffff0387551600000000001976a9143d5d896021734204e05378a29c393251fca8fdd788ac22020000000000001976a9140c5467b99797d610a1ea1b074dbc95ab516c512c88ac0000000000000000166a146f6d6e69000000000000001f00000045d073e68000000000", "vin": [{"sequence": 4294967295, "scriptSig": {"hex": "47304402206f196e1a2027bead50512a120138d864082c83adeabb82ab1862fd825a46ac55022044640c36f8bf0638128feba56d8e2bda27e7219ab1776a2d15fbc7b9c2acecb3012103486fea7a6ac64066aad0880cdef75a12efb8ef02a17201aa5e09388afaa6c3bb", "asm": "304402206f196e1a2027bead50512a120138d864082c83adeabb82ab1862fd825a46ac55022044640c36f8bf0638128feba56d8e2bda27e7219ab1776a2d15fbc7b9c2acecb3[ALL] 03486fea7a6ac64066aad0880cdef75a12efb8ef02a17201aa5e09388afaa6c3bb"}, "vout": 0, "txid": "9247810b8d10cf15901218482776183e3f8451ed67889c12c6d1b272bc1c6ada"}], "txid": "119e1011dbaf8491abcaaf7ceafeff5882d9f44770c1eadf8a646243d91acbd4", "blocktime": 1537873282, "version": 1, "confirmations": 11481, "time": 1537873282, "locktime": 0, "vsize": 256, "size": 256}