{"hash": "119fcfcccd8ad7e5950059d6f5ef60db572111ee356a8dfb7f80bc8e57a3d1a4", "blockhash": "0000000000000000001cda96e906b7601b7a6fb1a3b62bca570a9e5d8f4b3de1", "vout": [{"scriptPubKey": {"reqSigs": 1, "hex": "76a91488c2504a70fd79806469632e349135f67d31265e88ac", "addresses": ["1DU7gEkSBXjvtjFYFFj8XKMc5JFNmG2Gx4"], "asm": "OP_DUP OP_HASH160 88c2504a70fd79806469632e349135f67d31265e OP_EQUALVERIFY OP_CHECKSIG", "type": "pubkeyhash"}, "value": 2.899e-05, "n": 0}, {"scriptPubKey": {"reqSigs": 1, "hex": "a914187ea08129b7bb9fbaab852b6448ff33783e08ca87", "addresses": ["33vXqLu1PtMnS4Up32YioFyswnmsFDyAQ1"], "asm": "OP_HASH160 187ea08129b7bb9fbaab852b6448ff33783e08ca OP_EQUAL", "type": "scripthash"}, "value": 0.0037, "n": 1}], "hex": "01000000020ec924edfe60b9ca9c197302e2f793d0b9a9336873c29b63fc4a77edf3246a43600000006a47304402206870e4a33b2dc2abc967452d5be7edfb19109e469485ff4802eb507bf7fef34a02207aa6f297ff13e3ac7956c6d3dbbe74ac173b73c9b86812d24d7d51350d66b4de0121026c6a5c2bba523cc33d21857dcf4389abba8af606b000c3dfecc92b2328949e31ffffffff433d52562cde4a7c27541db6591dc3c01d18ea7a4806de6458acf2ce31b67eee2e0000006a47304402205805b5d619018a5a26c658c56bd0fb6c900132db9756c947cc577b5cb74761fb02203f8e7c505ee28c0baa36d9b603821afacb1ce88b13042d7f7ab52f34160d6cfd012103e7192506921eac6333a332b5837902994fb661deda5933e46837279bff5ffb0bffffffff02530b0000000000001976a91488c2504a70fd79806469632e349135f67d31265e88ac50a505000000000017a914187ea08129b7bb9fbaab852b6448ff33783e08ca8700000000", "vin": [{"sequence": 4294967295, "scriptSig": {"hex": "47304402206870e4a33b2dc2abc967452d5be7edfb19109e469485ff4802eb507bf7fef34a02207aa6f297ff13e3ac7956c6d3dbbe74ac173b73c9b86812d24d7d51350d66b4de0121026c6a5c2bba523cc33d21857dcf4389abba8af606b000c3dfecc92b2328949e31", "asm": "304402206870e4a33b2dc2abc967452d5be7edfb19109e469485ff4802eb507bf7fef34a02207aa6f297ff13e3ac7956c6d3dbbe74ac173b73c9b86812d24d7d51350d66b4de[ALL] 026c6a5c2bba523cc33d21857dcf4389abba8af606b000c3dfecc92b2328949e31"}, "vout": 96, "txid": "436a24f3ed774afc639bc2736833a9b9d093f7e20273199ccab960feed24c90e"}, {"sequence": 4294967295, "scriptSig": {"hex": "47304402205805b5d619018a5a26c658c56bd0fb6c900132db9756c947cc577b5cb74761fb02203f8e7c505ee28c0baa36d9b603821afacb1ce88b13042d7f7ab52f34160d6cfd012103e7192506921eac6333a332b5837902994fb661deda5933e46837279bff5ffb0b", "asm": "304402205805b5d619018a5a26c658c56bd0fb6c900132db9756c947cc577b5cb74761fb02203f8e7c505ee28c0baa36d9b603821afacb1ce88b13042d7f7ab52f34160d6cfd[ALL] 03e7192506921eac6333a332b5837902994fb661deda5933e46837279bff5ffb0b"}, "vout": 46, "txid": "ee7eb631cef2ac5864de06487aea181dc0c31d59b61d54277c4ade2c56523d43"}], "txid": "119fcfcccd8ad7e5950059d6f5ef60db572111ee356a8dfb7f80bc8e57a3d1a4", "blocktime": 1537873282, "version": 1, "confirmations": 11483, "time": 1537873282, "locktime": 0, "vsize": 370, "size": 370}