{"hash": "1cc8013ca58d2a7c4c605645303b74a3ce3976e7c3e6b9304ce534cccd3d6baa", "blockhash": "0000000000000000001f76057863aec43deb6fa401d9628bb513d65a8098bfab", "vout": [{"scriptPubKey": {"reqSigs": 1, "hex": "0014296ddda4164e2231acd1f13b03337e57cef3b6fa", "addresses": ["bc1q99kamfqkfc3rrtx37yasxvm72l808dh60mc3l0"], "asm": "0 296ddda4164e2231acd1f13b03337e57cef3b6fa", "type": "witness_v0_keyhash"}, "value": 0.00022062, "n": 0}, {"scriptPubKey": {"reqSigs": 1, "hex": "76a914612514008ee6b2020cace9c1b7ce167eb96ace2f88ac", "addresses": ["19rexqoaTx7dZoM3UJcixLFP3CDMArfhsM"], "asm": "OP_DUP OP_HASH160 612514008ee6b2020cace9c1b7ce167eb96ace2f OP_EQUALVERIFY OP_CHECKSIG", "type": "pubkeyhash"}, "value": 0.0035, "n": 1}], "hex": "010000000001020959180be2acd5fbd8bed08fc673dcc58dd68cee87d976f15fee77ac1b52dcd90000000000ffffffff0b2f12f4df8a1b40479b41777448c489ece008c5b9fda36a23071344e8c16ba40100000017160014c94cd27680323bade25ff1b8b0fd3e9fd52f7a40ffffffff022e56000000000000160014296ddda4164e2231acd1f13b03337e57cef3b6fa30570500000000001976a914612514008ee6b2020cace9c1b7ce167eb96ace2f88ac0247304402201fc28d95143265bfd4ef896e221e1ae104c58c32797bdca73b29deb6284dc4430220595e7c5a4ac6191e16ae7f2bfb29ff5226377ca6e24d3efb32e40d7a1049eaa5012102daa01dadc4e985cca7a7aeb0165ad34a148f5a438c70848c7c141c87f862a3db0247304402206ff92d4041c2e8e8613dedb48545f49195e52e333804ec015e23b3ceeebd387b022072e6fcb295c95529564a9f1aeee089abdf172df60138e681bfbd533cc287f697012102f15d0baa076855e882f6742036a97c01f2d50115ab56411550f6ddadebb796a200000000", "vin": [{"txinwitness": ["304402201fc28d95143265bfd4ef896e221e1ae104c58c32797bdca73b29deb6284dc4430220595e7c5a4ac6191e16ae7f2bfb29ff5226377ca6e24d3efb32e40d7a1049eaa501", "02daa01dadc4e985cca7a7aeb0165ad34a148f5a438c70848c7c141c87f862a3db"], "sequence": 4294967295, "scriptSig": {"hex": "", "asm": ""}, "vout": 0, "txid": "d9dc521bac77ee5ff176d987ee8cd68dc5dc73c68fd0bed8fbd5ace20b185909"}, {"txinwitness": ["304402206ff92d4041c2e8e8613dedb48545f49195e52e333804ec015e23b3ceeebd387b022072e6fcb295c95529564a9f1aeee089abdf172df60138e681bfbd533cc287f69701", "02f15d0baa076855e882f6742036a97c01f2d50115ab56411550f6ddadebb796a2"], "sequence": 4294967295, "scriptSig": {"hex": "160014c94cd27680323bade25ff1b8b0fd3e9fd52f7a40", "asm": "0014c94cd27680323bade25ff1b8b0fd3e9fd52f7a40"}, "vout": 1, "txid": "a46bc1e8441307236aa3fdb9c508e0ec89c4487477419b47401b8adff4122f0b"}], "txid": "11a1e18cc48ddd975cef980aabf3cf2a48bdd1aa1b8e126d9e7a3440f867aee0", "blocktime": 1537873891, "version": 1, "confirmations": 11479, "time": 1537873891, "locktime": 0, "vsize": 234, "size": 396}