{"hash": "11a2907f19a2c2825f68b659b32956aeb78843d73052bc3a4545e3bee6901013", "blockhash": "00000000000000000004ffacab907a6b429b9a5745fa0b75af4234bf69dd7176", "vout": [{"scriptPubKey": {"type": "nulldata", "hex": "6a146f6d6e69000000000000001f0000019f1a7e6f5c", "asm": "OP_RETURN 6f6d6e69000000000000001f0000019f1a7e6f5c"}, "value": 0.0, "n": 0}, {"scriptPubKey": {"reqSigs": 1, "hex": "76a9142be7527695ff8c27175bef0a5e75249243fe694188ac", "addresses": ["1519Anuep9P21E5M9FxfLoCgSE1AXZcnB3"], "asm": "OP_DUP OP_HASH160 2be7527695ff8c27175bef0a5e75249243fe6941 OP_EQUALVERIFY OP_CHECKSIG", "type": "pubkeyhash"}, "value": 5.46e-06, "n": 1}, {"scriptPubKey": {"reqSigs": 1, "hex": "76a914a25dec4d0011064ef106a983c39c7a540699f22088ac", "addresses": ["1FoWyxwPXuj4C6abqwhjDWdz6D4PZgYRjA"], "asm": "OP_DUP OP_HASH160 a25dec4d0011064ef106a983c39c7a540699f220 OP_EQUALVERIFY OP_CHECKSIG", "type": "pubkeyhash"}, "value": 0.01995188, "n": 2}], "hex": "0100000001a44813c76173a4fe9689194c29809e35be05f1741d9b5e1e9e8bd44070ac1fea910000006b483045022100e454392185989bfe0ca85fa5732ae66af6fbb10c0f07c17a3f8436268d5da04f0220341c54d51a6873b6ea1110795142b68ba90bf2fa2a10b92e0efa69b64007258a012103da5bac7b36d5aa38f531c6b9601e21bb598a4b6716ebed38b009a55dabde9440feffffff030000000000000000166a146f6d6e69000000000000001f0000019f1a7e6f5c22020000000000001976a9142be7527695ff8c27175bef0a5e75249243fe694188acb4711e00000000001976a914a25dec4d0011064ef106a983c39c7a540699f22088ac16490800", "vin": [{"sequence": 4294967294, "scriptSig": {"hex": "483045022100e454392185989bfe0ca85fa5732ae66af6fbb10c0f07c17a3f8436268d5da04f0220341c54d51a6873b6ea1110795142b68ba90bf2fa2a10b92e0efa69b64007258a012103da5bac7b36d5aa38f531c6b9601e21bb598a4b6716ebed38b009a55dabde9440", "asm": "3045022100e454392185989bfe0ca85fa5732ae66af6fbb10c0f07c17a3f8436268d5da04f0220341c54d51a6873b6ea1110795142b68ba90bf2fa2a10b92e0efa69b64007258a[ALL] 03da5bac7b36d5aa38f531c6b9601e21bb598a4b6716ebed38b009a55dabde9440"}, "vout": 145, "txid": "ea1fac7040d48b9e1e5e9b1d74f105be359e80294c198996fea47361c71348a4"}], "txid": "11a2907f19a2c2825f68b659b32956aeb78843d73052bc3a4545e3bee6901013", "blocktime": 1537875543, "version": 1, "confirmations": 11464, "time": 1537875543, "locktime": 542998, "vsize": 257, "size": 257}