{"hash": "11a555f68e648131464d41b9adf429aa939f504b4d9413491b17307f2268f19c", "blockhash": "0000000000000000001f0ddff1eddb255c1121bcd4da4f1bc9a0da00cae72433", "vout": [{"scriptPubKey": {"reqSigs": 1, "hex": "a914951942c7c3249267d7c1903b26eb4658ce1cd55b87", "addresses": ["3FHNsHJQY537Shwa2LtVMTS1edkuuct88M"], "asm": "OP_HASH160 951942c7c3249267d7c1903b26eb4658ce1cd55b OP_EQUAL", "type": "scripthash"}, "value": 0.0379631, "n": 0}], "hex": "01000000023edb65796f6ebc87da0caa0a2f5ab240d550591d3449f25b12a8db207a91b8370d0000006a473044022006631f74012dc2efa72f4fb2e3fceb3877404947104b0c99b93cd26d309602fa022055f0b29dd836f28f5b33ddda95f559d4bc051c1a77c3909d7fb6abef3867354b012102faac9e843be4776040d9768e08d97285fcf9748dbc6fad34dbe110b49760f894fdffffffea584cf80038820fe589fa00b2da82e9eba05c10980207f01733a32336567a950a0000006a47304402204a43a557444c7305c5909a80c5290d2c15e13fe73f612ccc737fda4086f7ff5a022050dd3b95fbf8efd6e415f25a8a107f5264e3be29b36379eeb2831871091bf632012102faac9e843be4776040d9768e08d97285fcf9748dbc6fad34dbe110b49760f894fdffffff0156ed39000000000017a914951942c7c3249267d7c1903b26eb4658ce1cd55b8711490800", "vin": [{"sequence": 4294967293, "scriptSig": {"hex": "473044022006631f74012dc2efa72f4fb2e3fceb3877404947104b0c99b93cd26d309602fa022055f0b29dd836f28f5b33ddda95f559d4bc051c1a77c3909d7fb6abef3867354b012102faac9e843be4776040d9768e08d97285fcf9748dbc6fad34dbe110b49760f894", "asm": "3044022006631f74012dc2efa72f4fb2e3fceb3877404947104b0c99b93cd26d309602fa022055f0b29dd836f28f5b33ddda95f559d4bc051c1a77c3909d7fb6abef3867354b[ALL] 02faac9e843be4776040d9768e08d97285fcf9748dbc6fad34dbe110b49760f894"}, "vout": 13, "txid": "37b8917a20dba8125bf249341d5950d540b25a2f0aaa0cda87bc6e6f7965db3e"}, {"sequence": 4294967293, "scriptSig": {"hex": "47304402204a43a557444c7305c5909a80c5290d2c15e13fe73f612ccc737fda4086f7ff5a022050dd3b95fbf8efd6e415f25a8a107f5264e3be29b36379eeb2831871091bf632012102faac9e843be4776040d9768e08d97285fcf9748dbc6fad34dbe110b49760f894", "asm": "304402204a43a557444c7305c5909a80c5290d2c15e13fe73f612ccc737fda4086f7ff5a022050dd3b95fbf8efd6e415f25a8a107f5264e3be29b36379eeb2831871091bf632[ALL] 02faac9e843be4776040d9768e08d97285fcf9748dbc6fad34dbe110b49760f894"}, "vout": 10, "txid": "957a563623a33317f0070298105ca0ebe982dab200fa89e50f823800f84c58ea"}], "txid": "11a555f68e648131464d41b9adf429aa939f504b4d9413491b17307f2268f19c", "blocktime": 1537872018, "version": 1, "confirmations": 11489, "time": 1537872018, "locktime": 542993, "vsize": 336, "size": 336}