{"hash": "11ae022dfb4a94674c1c40829bbd7d444dc4f7a8fda2ffccb593171c128ca917", "blockhash": "0000000000000000000dcc0f55137456b1a82d3642486a52398922ac4d620174", "vout": [{"scriptPubKey": {"reqSigs": 1, "hex": "76a91440daa67f7d895d5b9c812433620b0b17e913a61788ac", "addresses": ["16uvBNagmB6BJCqe2ySFag6Sr5eYZMJFX5"], "asm": "OP_DUP OP_HASH160 40daa67f7d895d5b9c812433620b0b17e913a617 OP_EQUALVERIFY OP_CHECKSIG", "type": "pubkeyhash"}, "value": 0.00121778, "n": 0}, {"scriptPubKey": {"reqSigs": 1, "hex": "76a9140eea5bcde31224fcd19162cf796b96244128a54588ac", "addresses": ["12MsDD2VnYHvgJHZEbTekyg4G63warHTCj"], "asm": "OP_DUP OP_HASH160 0eea5bcde31224fcd19162cf796b96244128a545 OP_EQUALVERIFY OP_CHECKSIG", "type": "pubkeyhash"}, "value": 5.46e-06, "n": 1}, {"scriptPubKey": {"type": "nulldata", "hex": "6a146f6d6e69000000000000001f0000022a2903d900", "asm": "OP_RETURN 6f6d6e69000000000000001f0000022a2903d900"}, "value": 0.0, "n": 2}], "hex": "0100000002dc48f1e84eda33db3831d9f3ed2e1b24916f23ce3be7b4640b0972e6e58b123f020000006b4830450221009612898927ef22949b11423d8be50e3a98ac9168a19375caa66eedc2f379f5cb0220587e4687e3158cbe91a1b36d658118420a1ba9bda83f74f850e280af4804f58e0121038a14607d389d426dab2a7e37582859fa771b78bb10c5c7a753da934d00633db4ffffffff362601516aa42048de0cd4f014408d3199bf5bce9c9020fb55c9b27f97f0b4a2000000006b483045022100813156fd0849d19cc13d879c699a998ff77fc114b1323ecadaaee21b57b9551b02206d3e47d3a077397ce3850ead6cea76219d00ef24a73cd255134783975339478e0121038a14607d389d426dab2a7e37582859fa771b78bb10c5c7a753da934d00633db4ffffffff03b2db0100000000001976a91440daa67f7d895d5b9c812433620b0b17e913a61788ac22020000000000001976a9140eea5bcde31224fcd19162cf796b96244128a54588ac0000000000000000166a146f6d6e69000000000000001f0000022a2903d90000000000", "vin": [{"sequence": 4294967295, "scriptSig": {"hex": "4830450221009612898927ef22949b11423d8be50e3a98ac9168a19375caa66eedc2f379f5cb0220587e4687e3158cbe91a1b36d658118420a1ba9bda83f74f850e280af4804f58e0121038a14607d389d426dab2a7e37582859fa771b78bb10c5c7a753da934d00633db4", "asm": "30450221009612898927ef22949b11423d8be50e3a98ac9168a19375caa66eedc2f379f5cb0220587e4687e3158cbe91a1b36d658118420a1ba9bda83f74f850e280af4804f58e[ALL] 038a14607d389d426dab2a7e37582859fa771b78bb10c5c7a753da934d00633db4"}, "vout": 2, "txid": "3f128be5e672090b64b4e73bce236f91241b2eedf3d93138db33da4ee8f148dc"}, {"sequence": 4294967295, "scriptSig": {"hex": "483045022100813156fd0849d19cc13d879c699a998ff77fc114b1323ecadaaee21b57b9551b02206d3e47d3a077397ce3850ead6cea76219d00ef24a73cd255134783975339478e0121038a14607d389d426dab2a7e37582859fa771b78bb10c5c7a753da934d00633db4", "asm": "3045022100813156fd0849d19cc13d879c699a998ff77fc114b1323ecadaaee21b57b9551b02206d3e47d3a077397ce3850ead6cea76219d00ef24a73cd255134783975339478e[ALL] 038a14607d389d426dab2a7e37582859fa771b78bb10c5c7a753da934d00633db4"}, "vout": 0, "txid": "a2b4f0977fb2c955fb20909cce5bbf99318d4014f0d40cde4820a46a51012636"}], "txid": "11ae022dfb4a94674c1c40829bbd7d444dc4f7a8fda2ffccb593171c128ca917", "blocktime": 1537870268, "version": 1, "confirmations": 11516, "time": 1537870268, "locktime": 0, "vsize": 405, "size": 405}