{"hash": "3edd36618f377bb43fc46e5943f271ce829d38a0cf2856e9799e4db86b046a4d", "blockhash": "0000000000000000000e13cef7c366c0283d82e591d1acd082e914b08063cdf1", "vout": [{"scriptPubKey": {"reqSigs": 1, "hex": "76a91434c80706001c5a996fff81c0cd1838455d2925db88ac", "addresses": ["15p5m8FdRZrEjfFX3xbVMPxHY3gPvQ5wRt"], "asm": "OP_DUP OP_HASH160 34c80706001c5a996fff81c0cd1838455d2925db OP_EQUALVERIFY OP_CHECKSIG", "type": "pubkeyhash"}, "value": 0.001, "n": 0}, {"scriptPubKey": {"reqSigs": 1, "hex": "001426a09a6fdb87a635f35194556f038b9304431637", "addresses": ["bc1qy6sf5m7ms7nrtu63j32k7qutjvzyx93h8sehhd"], "asm": "0 26a09a6fdb87a635f35194556f038b9304431637", "type": "witness_v0_keyhash"}, "value": 6.117e-05, "n": 1}], "hex": "010000000001012a90cddac3d3e939e03bf84e2ba4993a048d3961590e30e9aac06d407d09ddcc0000000000ffffffff02a0860100000000001976a91434c80706001c5a996fff81c0cd1838455d2925db88ace51700000000000016001426a09a6fdb87a635f35194556f038b930443163702483045022100d4d77e37a1c89cb278f97df23da4067006010ca7b852fe7e9f88451db02fcf3e0220556dc26fe8e7eea10e549e2bc815fc0deaf0bd44832dac68419439ef8efe1244012102958ef8ccc78967fac79607702a4526efe0fe9c3e830c64262f57d26b5d4259a700000000", "vin": [{"txinwitness": ["3045022100d4d77e37a1c89cb278f97df23da4067006010ca7b852fe7e9f88451db02fcf3e0220556dc26fe8e7eea10e549e2bc815fc0deaf0bd44832dac68419439ef8efe124401", "02958ef8ccc78967fac79607702a4526efe0fe9c3e830c64262f57d26b5d4259a7"], "sequence": 4294967295, "scriptSig": {"hex": "", "asm": ""}, "vout": 0, "txid": "ccdd097d406dc0aae9300e5961398d043a99a42b4ef83be039e9d3c3dacd902a"}], "txid": "11afb59eab70d609ea1db20159bfaf83c2c6e677a074ecabaa1d29c8a09d135c", "blocktime": 1537871767, "version": 1, "confirmations": 11495, "time": 1537871767, "locktime": 0, "vsize": 144, "size": 226}