{"hash": "11baede19d09f0570780c5b130262d82de549541b621a6f48d7752ca17ebbae0", "blockhash": "0000000000000000000e13cef7c366c0283d82e591d1acd082e914b08063cdf1", "vout": [{"scriptPubKey": {"type": "nulldata", "hex": "6a146f6d6e69000000000000001f000000358d117c00", "asm": "OP_RETURN 6f6d6e69000000000000001f000000358d117c00"}, "value": 0.0, "n": 0}, {"scriptPubKey": {"reqSigs": 1, "hex": "76a91423aebb646c086e208c6fcb563b00b9a158ddfd8688ac", "addresses": ["14FfyJmXBJVo8Rj6qQuUD6hqtw99ejt1o2"], "asm": "OP_DUP OP_HASH160 23aebb646c086e208c6fcb563b00b9a158ddfd86 OP_EQUALVERIFY OP_CHECKSIG", "type": "pubkeyhash"}, "value": 0.00493077, "n": 1}, {"scriptPubKey": {"reqSigs": 1, "hex": "76a914a25dec4d0011064ef106a983c39c7a540699f22088ac", "addresses": ["1FoWyxwPXuj4C6abqwhjDWdz6D4PZgYRjA"], "asm": "OP_DUP OP_HASH160 a25dec4d0011064ef106a983c39c7a540699f220 OP_EQUALVERIFY OP_CHECKSIG", "type": "pubkeyhash"}, "value": 5.46e-06, "n": 2}], "hex": "010000000539ff8d45c923436d1fefacfe7383f6f5a850c5f3048904d6f3c40ffdfcff874e010000006a47304402200376ccccd900d1dd07ee7476f7417ebfb992e329aca213f80caa1c2d5f86f50702206e05a6254d0fb583ce9a6ae819f21366a652051deccfb30aa1b6a147a9296405012103a767d52cbcc8b1930e9c96a8af01860c36676b22c9939203e3f37014d62e8f16feffffff46d3a2dadde5cd2ab98a0dcdf3b1299c5118ac6e169907a4ac58e9aa3350fa48020000006a4730440220549577ea82a252acc268283549ae3f6077852cff955261e67f0d4378242c7e52022078de5a804a19ffa8ce9e55a5339cec961552512004f18baa1b01817058399bda012103a767d52cbcc8b1930e9c96a8af01860c36676b22c9939203e3f37014d62e8f16feffffff91a4ab39c90a8f09df7e11be4194f7767ff5f4d6cd013e35827ade233b4d37ec010000006b483045022100d5707648ad7ac65f99c78d6009dac71e3b8476bbafc52ba3bab3e68c2bf7251f022022be5330f6edd621396d060a6f34bd711e96f2d4de8b507e7d051611b364a962012103a767d52cbcc8b1930e9c96a8af01860c36676b22c9939203e3f37014d62e8f16feffffffa1d9844ed14adef2315601f2c538f4f54a1a7508e926fb912fd2b4d30aa194a6010000006a47304402207b2abd39fc536c7b3f370effbfe724124d38a065158574ca47e4810f464bfb6702204a766156cd89fb82af7ba263ead08464f48460086d4d8f9002aaeb0ab699d02d012103a767d52cbcc8b1930e9c96a8af01860c36676b22c9939203e3f37014d62e8f16feffffff3f631a247a119f08b4f6ad70b9c1a6020c0a26f4905f806a734ec161a6919f2d020000006b483045022100f1177bbdae68b220c0df904527cc57dfde3c159dd9061bc3ecef2cdee844990f02200eb4ae2f8f8dad342f301c3fc3ada0416d59a72a511b20ea32003740a508e6c8012103a767d52cbcc8b1930e9c96a8af01860c36676b22c9939203e3f37014d62e8f16feffffff030000000000000000166a146f6d6e69000000000000001f000000358d117c0015860700000000001976a91423aebb646c086e208c6fcb563b00b9a158ddfd8688ac22020000000000001976a914a25dec4d0011064ef106a983c39c7a540699f22088ac10490800", "vin": [{"sequence": 4294967294, "scriptSig": {"hex": "47304402200376ccccd900d1dd07ee7476f7417ebfb992e329aca213f80caa1c2d5f86f50702206e05a6254d0fb583ce9a6ae819f21366a652051deccfb30aa1b6a147a9296405012103a767d52cbcc8b1930e9c96a8af01860c36676b22c9939203e3f37014d62e8f16", "asm": "304402200376ccccd900d1dd07ee7476f7417ebfb992e329aca213f80caa1c2d5f86f50702206e05a6254d0fb583ce9a6ae819f21366a652051deccfb30aa1b6a147a9296405[ALL] 03a767d52cbcc8b1930e9c96a8af01860c36676b22c9939203e3f37014d62e8f16"}, "vout": 1, "txid": "4e87fffcfd0fc4f3d6048904f3c550a8f5f68373feacef1f6d4323c9458dff39"}, {"sequence": 4294967294, "scriptSig": {"hex": "4730440220549577ea82a252acc268283549ae3f6077852cff955261e67f0d4378242c7e52022078de5a804a19ffa8ce9e55a5339cec961552512004f18baa1b01817058399bda012103a767d52cbcc8b1930e9c96a8af01860c36676b22c9939203e3f37014d62e8f16", "asm": "30440220549577ea82a252acc268283549ae3f6077852cff955261e67f0d4378242c7e52022078de5a804a19ffa8ce9e55a5339cec961552512004f18baa1b01817058399bda[ALL] 03a767d52cbcc8b1930e9c96a8af01860c36676b22c9939203e3f37014d62e8f16"}, "vout": 2, "txid": "48fa5033aae958aca40799166eac18519c29b1f3cd0d8ab92acde5dddaa2d346"}, {"sequence": 4294967294, "scriptSig": {"hex": "483045022100d5707648ad7ac65f99c78d6009dac71e3b8476bbafc52ba3bab3e68c2bf7251f022022be5330f6edd621396d060a6f34bd711e96f2d4de8b507e7d051611b364a962012103a767d52cbcc8b1930e9c96a8af01860c36676b22c9939203e3f37014d62e8f16", "asm": "3045022100d5707648ad7ac65f99c78d6009dac71e3b8476bbafc52ba3bab3e68c2bf7251f022022be5330f6edd621396d060a6f34bd711e96f2d4de8b507e7d051611b364a962[ALL] 03a767d52cbcc8b1930e9c96a8af01860c36676b22c9939203e3f37014d62e8f16"}, "vout": 1, "txid": "ec374d3b23de7a82353e01cdd6f4f57f76f79441be117edf098f0ac939aba491"}, {"sequence": 4294967294, "scriptSig": {"hex": "47304402207b2abd39fc536c7b3f370effbfe724124d38a065158574ca47e4810f464bfb6702204a766156cd89fb82af7ba263ead08464f48460086d4d8f9002aaeb0ab699d02d012103a767d52cbcc8b1930e9c96a8af01860c36676b22c9939203e3f37014d62e8f16", "asm": "304402207b2abd39fc536c7b3f370effbfe724124d38a065158574ca47e4810f464bfb6702204a766156cd89fb82af7ba263ead08464f48460086d4d8f9002aaeb0ab699d02d[ALL] 03a767d52cbcc8b1930e9c96a8af01860c36676b22c9939203e3f37014d62e8f16"}, "vout": 1, "txid": "a694a10ad3b4d22f91fb26e908751a4af5f438c5f2015631f2de4ad14e84d9a1"}, {"sequence": 4294967294, "scriptSig": {"hex": "483045022100f1177bbdae68b220c0df904527cc57dfde3c159dd9061bc3ecef2cdee844990f02200eb4ae2f8f8dad342f301c3fc3ada0416d59a72a511b20ea32003740a508e6c8012103a767d52cbcc8b1930e9c96a8af01860c36676b22c9939203e3f37014d62e8f16", "asm": "3045022100f1177bbdae68b220c0df904527cc57dfde3c159dd9061bc3ecef2cdee844990f02200eb4ae2f8f8dad342f301c3fc3ada0416d59a72a511b20ea32003740a508e6c8[ALL] 03a767d52cbcc8b1930e9c96a8af01860c36676b22c9939203e3f37014d62e8f16"}, "vout": 2, "txid": "2d9f91a661c14e736a805f90f4260a0c02a6c1b970adf6b4089f117a241a633f"}], "txid": "11baede19d09f0570780c5b130262d82de549541b621a6f48d7752ca17ebbae0", "blocktime": 1537871767, "version": 1, "confirmations": 11495, "time": 1537871767, "locktime": 542992, "vsize": 846, "size": 846}