{"hash": "11baf8a045705506a4c063d99e3416e0a2ffd7909a3d2eacf454d1c03b908b41", "blockhash": "0000000000000000000baef3f32e3676a92c3b2e5da21b426e4f302fc371ce76", "vout": [{"scriptPubKey": {"reqSigs": 1, "hex": "76a91442bb3b9564ea42cd504940d314d022ab4c9275bc88ac", "addresses": ["175qtpaFAWrBBojLoGA6fGjPZgr9R4rtBR"], "asm": "OP_DUP OP_HASH160 42bb3b9564ea42cd504940d314d022ab4c9275bc OP_EQUALVERIFY OP_CHECKSIG", "type": "pubkeyhash"}, "value": 0.00630654, "n": 0}, {"scriptPubKey": {"type": "nulldata", "hex": "6a4c500000781200019ea81852a3ac197c827451f0702940d64fa54d8eb2d19ed074892d00f8e88d9486b3bde175d74214236408f9cfe15baa1b9c0614b4f305b025301d100759d4ba30d2c37bb011d97e02cf", "asm": "OP_RETURN 0000781200019ea81852a3ac197c827451f0702940d64fa54d8eb2d19ed074892d00f8e88d9486b3bde175d74214236408f9cfe15baa1b9c0614b4f305b025301d100759d4ba30d2c37bb011d97e02cf"}, "value": 0.0, "n": 1}], "hex": "01000000017828255f4f74aa5836154aabbc71c0a44de3f55f82764f65f6cce1ae0535cb8c000000006a473044022076b3e9abbed4cede3f7826b6d392b3a3e3a077957f6d0168623d02311d738b20022020a95b9b766e49c9abf99c03e2d14c0c9e1dddd68da6d88d3b5ece409c6c1fae0121024981ddcf25f2c6232e0995d3759b2f7d48271d6f568f0cac77784aba17c3c2aaffffffff027e9f0900000000001976a91442bb3b9564ea42cd504940d314d022ab4c9275bc88ac0000000000000000536a4c500000781200019ea81852a3ac197c827451f0702940d64fa54d8eb2d19ed074892d00f8e88d9486b3bde175d74214236408f9cfe15baa1b9c0614b4f305b025301d100759d4ba30d2c37bb011d97e02cf00000000", "vin": [{"sequence": 4294967295, "scriptSig": {"hex": "473044022076b3e9abbed4cede3f7826b6d392b3a3e3a077957f6d0168623d02311d738b20022020a95b9b766e49c9abf99c03e2d14c0c9e1dddd68da6d88d3b5ece409c6c1fae0121024981ddcf25f2c6232e0995d3759b2f7d48271d6f568f0cac77784aba17c3c2aa", "asm": "3044022076b3e9abbed4cede3f7826b6d392b3a3e3a077957f6d0168623d02311d738b20022020a95b9b766e49c9abf99c03e2d14c0c9e1dddd68da6d88d3b5ece409c6c1fae[ALL] 024981ddcf25f2c6232e0995d3759b2f7d48271d6f568f0cac77784aba17c3c2aa"}, "vout": 0, "txid": "8ccb3505aee1ccf6654f76825ff5e34da4c071bcab4a153658aa744f5f252878"}], "txid": "11baf8a045705506a4c063d99e3416e0a2ffd7909a3d2eacf454d1c03b908b41", "blocktime": 1537876114, "version": 1, "confirmations": 11460, "time": 1537876114, "locktime": 0, "vsize": 283, "size": 283}