{"hash": "11bd4535cd9cd080eab0bfb2dbbf47434111aeabc7813d70a78f36eb849a36b4", "blockhash": "0000000000000000000dcc0f55137456b1a82d3642486a52398922ac4d620174", "vout": [{"scriptPubKey": {"reqSigs": 1, "hex": "76a9145df0e17d453a27059f2ce61eaa348dbacc8376f388ac", "addresses": ["19ZiQXuY5trF1yruEVZoT443WUqKKfoynb"], "asm": "OP_DUP OP_HASH160 5df0e17d453a27059f2ce61eaa348dbacc8376f3 OP_EQUALVERIFY OP_CHECKSIG", "type": "pubkeyhash"}, "value": 0.00646309, "n": 0}, {"scriptPubKey": {"type": "nulldata", "hex": "6a4c50000077720001a8d80c7dcecb5eb2c680378986aeaeacb577c031fc3a016b46dc7dc7d0967f080169445d6a745281f4863d1dda005baa090d0613e075cadb814c1d100759d4ba30d2c37bb011d97e02cf", "asm": "OP_RETURN 000077720001a8d80c7dcecb5eb2c680378986aeaeacb577c031fc3a016b46dc7dc7d0967f080169445d6a745281f4863d1dda005baa090d0613e075cadb814c1d100759d4ba30d2c37bb011d97e02cf"}, "value": 0.0, "n": 1}], "hex": "0100000001dd8caa90e4a8264968d8b8b4f2e715d92eafb661c20c415a2381766ef31901ae000000006b483045022100855f79a1775d9096a26a630fe18be8916a38d74ce9766620ee31c0bc9c5064dd0220755d9b74c0679690bc7464d7433bbdb77863135a0ae2f875dc900bc47d06585f012103f94b07defbb0e7cdaa1265e36436f9bf7784f9f3eb741ff374779f36dc4e26b7ffffffff02a5dc0900000000001976a9145df0e17d453a27059f2ce61eaa348dbacc8376f388ac0000000000000000536a4c50000077720001a8d80c7dcecb5eb2c680378986aeaeacb577c031fc3a016b46dc7dc7d0967f080169445d6a745281f4863d1dda005baa090d0613e075cadb814c1d100759d4ba30d2c37bb011d97e02cf00000000", "vin": [{"sequence": 4294967295, "scriptSig": {"hex": "483045022100855f79a1775d9096a26a630fe18be8916a38d74ce9766620ee31c0bc9c5064dd0220755d9b74c0679690bc7464d7433bbdb77863135a0ae2f875dc900bc47d06585f012103f94b07defbb0e7cdaa1265e36436f9bf7784f9f3eb741ff374779f36dc4e26b7", "asm": "3045022100855f79a1775d9096a26a630fe18be8916a38d74ce9766620ee31c0bc9c5064dd0220755d9b74c0679690bc7464d7433bbdb77863135a0ae2f875dc900bc47d06585f[ALL] 03f94b07defbb0e7cdaa1265e36436f9bf7784f9f3eb741ff374779f36dc4e26b7"}, "vout": 0, "txid": "ae0119f36e7681235a410cc261b6af2ed915e7f2b4b8d8684926a8e490aa8cdd"}], "txid": "11bd4535cd9cd080eab0bfb2dbbf47434111aeabc7813d70a78f36eb849a36b4", "blocktime": 1537870268, "version": 1, "confirmations": 11518, "time": 1537870268, "locktime": 0, "vsize": 284, "size": 284}