{"hash": "11c26a4375320655c998333f52bef05d645b525ad0b801a53e425bda6aed6b66", "blockhash": "00000000000000000004ffacab907a6b429b9a5745fa0b75af4234bf69dd7176", "vout": [{"scriptPubKey": {"reqSigs": 1, "hex": "76a914206456f14f28d79b0c919a80ea52f61f5f5111b788ac", "addresses": ["13xGprjrAvyNRQTpmc27XhGBGhVuzEpUcG"], "asm": "OP_DUP OP_HASH160 206456f14f28d79b0c919a80ea52f61f5f5111b7 OP_EQUALVERIFY OP_CHECKSIG", "type": "pubkeyhash"}, "value": 0.00625622, "n": 0}, {"scriptPubKey": {"reqSigs": 1, "hex": "76a914b520984c1c6d9448650bbbfe4d5a55e40c4cf19a88ac", "addresses": ["1HWiMTR8vxiGdCQp3LH67w7A7cohumFa8u"], "asm": "OP_DUP OP_HASH160 b520984c1c6d9448650bbbfe4d5a55e40c4cf19a OP_EQUALVERIFY OP_CHECKSIG", "type": "pubkeyhash"}, "value": 0.08269916, "n": 1}], "hex": "0200000001042cb05407da37cd597718fb4db8861079dcc9c5b6f7085d792232659afde000010000006a473044022036f09412185c8ebd63d1705397887f2ac3dab66f1ae59e0cdc9fdc1dc338895502202eca65676283a9450bdb5f0861a725fc493510b119b29cacf0de6c724f07bd3b012102db979748bb82aac24e3e82f688b9262d56fd7ae3c9442f309259e127f2db4a52ffffffff02d68b0900000000001976a914206456f14f28d79b0c919a80ea52f61f5f5111b788ac5c307e00000000001976a914b520984c1c6d9448650bbbfe4d5a55e40c4cf19a88ac00000000", "vin": [{"sequence": 4294967295, "scriptSig": {"hex": "473044022036f09412185c8ebd63d1705397887f2ac3dab66f1ae59e0cdc9fdc1dc338895502202eca65676283a9450bdb5f0861a725fc493510b119b29cacf0de6c724f07bd3b012102db979748bb82aac24e3e82f688b9262d56fd7ae3c9442f309259e127f2db4a52", "asm": "3044022036f09412185c8ebd63d1705397887f2ac3dab66f1ae59e0cdc9fdc1dc338895502202eca65676283a9450bdb5f0861a725fc493510b119b29cacf0de6c724f07bd3b[ALL] 02db979748bb82aac24e3e82f688b9262d56fd7ae3c9442f309259e127f2db4a52"}, "vout": 1, "txid": "00e0fd9a653222795d08f7b6c5c9dc791086b84dfb187759cd37da0754b02c04"}], "txid": "11c26a4375320655c998333f52bef05d645b525ad0b801a53e425bda6aed6b66", "blocktime": 1537875543, "version": 2, "confirmations": 11464, "time": 1537875543, "locktime": 0, "vsize": 225, "size": 225}