{"hash": "11c294a097525c39bd76fd2b970d869f011868529584361c626bc1e341f0dbbc", "blockhash": "0000000000000000000dcc0f55137456b1a82d3642486a52398922ac4d620174", "vout": [{"scriptPubKey": {"reqSigs": 1, "hex": "76a9148514b5c96eb898c3077ce9af85d51816eb8fdc7c88ac", "addresses": ["1D8fgUepL7uZCcWQX5xYDUtV5X5fWwhoT5"], "asm": "OP_DUP OP_HASH160 8514b5c96eb898c3077ce9af85d51816eb8fdc7c OP_EQUALVERIFY OP_CHECKSIG", "type": "pubkeyhash"}, "value": 0.18606, "n": 0}, {"scriptPubKey": {"reqSigs": 1, "hex": "76a914ff97a958c87e695f7678ba61e29d74aaa641a66388ac", "addresses": ["1QJSzYWakzMJti48nBby4CkioHTCncrWGD"], "asm": "OP_DUP OP_HASH160 ff97a958c87e695f7678ba61e29d74aaa641a663 OP_EQUALVERIFY OP_CHECKSIG", "type": "pubkeyhash"}, "value": 0.01095768, "n": 1}], "hex": "010000000353745fdcb9cd4f99804b2c52d32bb08663f61627d07d4ba45a804e5a02fa10aa240000006a4730440220212d419677922694df66fd25acb48fa272210374d971e5597c37762025b88f1302202ffb3aee169e777d0e7b8551f1446066f8f319abf0a60068dfa4ac360fe4aa9901210229e77f208e0f6d539aa070f4d49a362bb5e42552a8d42346cc4269a3bf83c138feffffff18bb2dacab32958cafcaa0bf7cfef6dfaa287a0efa39f8e30b2a9ca2dd345371010000006b483045022100d5ecda7b25e0ff297b7612bbdcc5a05b40c03de87d742b92bdcf67826a39858702207171b7882cfb6d091584b6bbd3798299c69b40cb933704b174e4b56054dbe091012103a7da8c5723292bd55aaf7521e2d9e841f4ef7f16be0b8e0a28051a90780eb279feffffffaef195b799819991b756f8c91b3233d105dcdb637486ee5612e44fba25be40df010000006b483045022100e491ee65d0fe0497645fc3e33806cde359658d1fb6aeb7138b8730c82f88aa8d022034eb59bee97d9b9c74d27a99c5f328e84777285cf12239e9ce45bc3ce055ca44012103c26145a6d6b104d27c7bc007f017bf5fae11babf722c3ce2ced75de2846d3c1efeffffff02b0e71b01000000001976a9148514b5c96eb898c3077ce9af85d51816eb8fdc7c88ac58b81000000000001976a914ff97a958c87e695f7678ba61e29d74aaa641a66388acf4480800", "vin": [{"sequence": 4294967294, "scriptSig": {"hex": "4730440220212d419677922694df66fd25acb48fa272210374d971e5597c37762025b88f1302202ffb3aee169e777d0e7b8551f1446066f8f319abf0a60068dfa4ac360fe4aa9901210229e77f208e0f6d539aa070f4d49a362bb5e42552a8d42346cc4269a3bf83c138", "asm": "30440220212d419677922694df66fd25acb48fa272210374d971e5597c37762025b88f1302202ffb3aee169e777d0e7b8551f1446066f8f319abf0a60068dfa4ac360fe4aa99[ALL] 0229e77f208e0f6d539aa070f4d49a362bb5e42552a8d42346cc4269a3bf83c138"}, "vout": 36, "txid": "aa10fa025a4e805aa44b7dd02716f66386b02bd3522c4b80994fcdb9dc5f7453"}, {"sequence": 4294967294, "scriptSig": {"hex": "483045022100d5ecda7b25e0ff297b7612bbdcc5a05b40c03de87d742b92bdcf67826a39858702207171b7882cfb6d091584b6bbd3798299c69b40cb933704b174e4b56054dbe091012103a7da8c5723292bd55aaf7521e2d9e841f4ef7f16be0b8e0a28051a90780eb279", "asm": "3045022100d5ecda7b25e0ff297b7612bbdcc5a05b40c03de87d742b92bdcf67826a39858702207171b7882cfb6d091584b6bbd3798299c69b40cb933704b174e4b56054dbe091[ALL] 03a7da8c5723292bd55aaf7521e2d9e841f4ef7f16be0b8e0a28051a90780eb279"}, "vout": 1, "txid": "715334dda29c2a0be3f839fa0e7a28aadff6fe7cbfa0caaf8c9532abac2dbb18"}, {"sequence": 4294967294, "scriptSig": {"hex": "483045022100e491ee65d0fe0497645fc3e33806cde359658d1fb6aeb7138b8730c82f88aa8d022034eb59bee97d9b9c74d27a99c5f328e84777285cf12239e9ce45bc3ce055ca44012103c26145a6d6b104d27c7bc007f017bf5fae11babf722c3ce2ced75de2846d3c1e", "asm": "3045022100e491ee65d0fe0497645fc3e33806cde359658d1fb6aeb7138b8730c82f88aa8d022034eb59bee97d9b9c74d27a99c5f328e84777285cf12239e9ce45bc3ce055ca44[ALL] 03c26145a6d6b104d27c7bc007f017bf5fae11babf722c3ce2ced75de2846d3c1e"}, "vout": 1, "txid": "df40be25ba4fe41256ee867463dbdc05d133321bc9f856b791998199b795f1ae"}], "txid": "11c294a097525c39bd76fd2b970d869f011868529584361c626bc1e341f0dbbc", "blocktime": 1537870268, "version": 1, "confirmations": 11516, "time": 1537870268, "locktime": 542964, "vsize": 521, "size": 521}