{"hash": "11cb6bb5a0a55a48235b11da9e5cb48ddec695988d001f1ad97aca81a7dc963c", "blockhash": "0000000000000000000dcc0f55137456b1a82d3642486a52398922ac4d620174", "vout": [{"scriptPubKey": {"reqSigs": 1, "hex": "76a9141f6f85030ea245305c080950da66c87c41e98fa188ac", "addresses": ["13sDYTr3mGE8M3B9SVBL3ULmMJVZPEZyvh"], "asm": "OP_DUP OP_HASH160 1f6f85030ea245305c080950da66c87c41e98fa1 OP_EQUALVERIFY OP_CHECKSIG", "type": "pubkeyhash"}, "value": 4.462e-05, "n": 0}, {"scriptPubKey": {"reqSigs": 1, "hex": "76a914309390b57608732f171ff2be0533c6d987eb330288ac", "addresses": ["15RrDDuTHkdMPg4So4v58F4q48hCfbpjR8"], "asm": "OP_DUP OP_HASH160 309390b57608732f171ff2be0533c6d987eb3302 OP_EQUALVERIFY OP_CHECKSIG", "type": "pubkeyhash"}, "value": 0.00327482, "n": 1}], "hex": "01000000011227dca0cc85172cdb2b64559ce5c2a08520ffcd935530bf1952bb673214e024010000006a4730440220061d95f62b36f068af17b71268bdc7db11dc99aa10ca2bdc52a50fb5732b78e002201afad72900859c3a4d6b8530059693185f6e79b65e415f79eaaf65a34ad38b64012103fd4e983b1da6086930fcd23fb489ea7c6e509281a77f435debaf70af9ef6b4cdffffffff026e110000000000001976a9141f6f85030ea245305c080950da66c87c41e98fa188ac3aff0400000000001976a914309390b57608732f171ff2be0533c6d987eb330288ac00000000", "vin": [{"sequence": 4294967295, "scriptSig": {"hex": "4730440220061d95f62b36f068af17b71268bdc7db11dc99aa10ca2bdc52a50fb5732b78e002201afad72900859c3a4d6b8530059693185f6e79b65e415f79eaaf65a34ad38b64012103fd4e983b1da6086930fcd23fb489ea7c6e509281a77f435debaf70af9ef6b4cd", "asm": "30440220061d95f62b36f068af17b71268bdc7db11dc99aa10ca2bdc52a50fb5732b78e002201afad72900859c3a4d6b8530059693185f6e79b65e415f79eaaf65a34ad38b64[ALL] 03fd4e983b1da6086930fcd23fb489ea7c6e509281a77f435debaf70af9ef6b4cd"}, "vout": 1, "txid": "24e0143267bb5219bf305593cdff2085a0c2e59c55642bdb2c1785cca0dc2712"}], "txid": "11cb6bb5a0a55a48235b11da9e5cb48ddec695988d001f1ad97aca81a7dc963c", "blocktime": 1537870268, "version": 1, "confirmations": 11518, "time": 1537870268, "locktime": 0, "vsize": 225, "size": 225}