{"hash": "11d07742aa66b6a326420dfdb0df82b0696b9921646bd1cc7b50e3adc4958b83", "blockhash": "00000000000000000017f5eb5941039fbcee6240d03bc1f2f8e35350df66a1d8", "vout": [{"scriptPubKey": {"reqSigs": 1, "hex": "76a91439f436b981d58b38c0fe44d0b0fb517f8e1fa4b588ac", "addresses": ["16HS5Crf55KjFHfTP7raTCmbmbE6H8JCEu"], "asm": "OP_DUP OP_HASH160 39f436b981d58b38c0fe44d0b0fb517f8e1fa4b5 OP_EQUALVERIFY OP_CHECKSIG", "type": "pubkeyhash"}, "value": 0.00093492, "n": 0}], "hex": "0100000001caa81b0584a74ae1fc69134037d62434fe3c3c4139fc3b756471ee7174c29689010000006b48304502210093a0f6ef87c5c5a10119743c9f96f377179423caeac3ba0b6c90c7942d492fc50220775772f651ad9fca4ff60ceba09da377945b89a2192ec04164cb764cbebb3a2c0121037706e67d385059d7a094f3ae17ca905e10e0da72afaacee652adc253bff2d090ffffffff01346d0100000000001976a91439f436b981d58b38c0fe44d0b0fb517f8e1fa4b588ac00000000", "vin": [{"sequence": 4294967295, "scriptSig": {"hex": "48304502210093a0f6ef87c5c5a10119743c9f96f377179423caeac3ba0b6c90c7942d492fc50220775772f651ad9fca4ff60ceba09da377945b89a2192ec04164cb764cbebb3a2c0121037706e67d385059d7a094f3ae17ca905e10e0da72afaacee652adc253bff2d090", "asm": "304502210093a0f6ef87c5c5a10119743c9f96f377179423caeac3ba0b6c90c7942d492fc50220775772f651ad9fca4ff60ceba09da377945b89a2192ec04164cb764cbebb3a2c[ALL] 037706e67d385059d7a094f3ae17ca905e10e0da72afaacee652adc253bff2d090"}, "vout": 1, "txid": "8996c27471ee7164753bfc39413c3cfe3424d637401369fce14aa784051ba8ca"}], "txid": "11d07742aa66b6a326420dfdb0df82b0696b9921646bd1cc7b50e3adc4958b83", "blocktime": 1537874412, "version": 1, "confirmations": 11467, "time": 1537874412, "locktime": 0, "vsize": 192, "size": 192}