{"hash": "11d9f8d888bdc57481fe96689e827d2e798688fd68958830d160eb0edc4800b5", "blockhash": "0000000000000000000e13cef7c366c0283d82e591d1acd082e914b08063cdf1", "vout": [{"scriptPubKey": {"reqSigs": 1, "hex": "76a914a487cec889de9a73e48753aeeddb442910ccbff488ac", "addresses": ["1FzxWYnAefXz3AcM4DDdsPumKFe6AjQigY"], "asm": "OP_DUP OP_HASH160 a487cec889de9a73e48753aeeddb442910ccbff4 OP_EQUALVERIFY OP_CHECKSIG", "type": "pubkeyhash"}, "value": 0.0010294, "n": 0}, {"scriptPubKey": {"type": "nulldata", "hex": "6a4c500000779900017c038179860f3e5d945bd11ae3ef3236678a625097bcbefa6b8351586b4ed902b191a16717d951b634efeebbfc6b5baa0d420614f81402a269edbc9a9526289ac0f6612cd74e33776ee4", "asm": "OP_RETURN 0000779900017c038179860f3e5d945bd11ae3ef3236678a625097bcbefa6b8351586b4ed902b191a16717d951b634efeebbfc6b5baa0d420614f81402a269edbc9a9526289ac0f6612cd74e33776ee4"}, "value": 0.0, "n": 1}], "hex": "010000000103cb46ca9d95275c9d9ad26fdbcccbca1bb03f219daec38553b44b559118ddd2010000006b483045022100d0b726f57c4cbd884bf99f07ff1168220361032f93a6c9ab44cc7f2e654018ed0220067c7b2383c4b02e3cd99984645b51716b1ac1bec777be64e08859f2b261a4a8012103c73cb6266157994d334b9f19f113d1a9edf948a1234ff638f98df25020a6e3dbffffffff021c920100000000001976a914a487cec889de9a73e48753aeeddb442910ccbff488ac0000000000000000536a4c500000779900017c038179860f3e5d945bd11ae3ef3236678a625097bcbefa6b8351586b4ed902b191a16717d951b634efeebbfc6b5baa0d420614f81402a269edbc9a9526289ac0f6612cd74e33776ee400000000", "vin": [{"sequence": 4294967295, "scriptSig": {"hex": "483045022100d0b726f57c4cbd884bf99f07ff1168220361032f93a6c9ab44cc7f2e654018ed0220067c7b2383c4b02e3cd99984645b51716b1ac1bec777be64e08859f2b261a4a8012103c73cb6266157994d334b9f19f113d1a9edf948a1234ff638f98df25020a6e3db", "asm": "3045022100d0b726f57c4cbd884bf99f07ff1168220361032f93a6c9ab44cc7f2e654018ed0220067c7b2383c4b02e3cd99984645b51716b1ac1bec777be64e08859f2b261a4a8[ALL] 03c73cb6266157994d334b9f19f113d1a9edf948a1234ff638f98df25020a6e3db"}, "vout": 1, "txid": "d2dd1891554bb45385c3ae9d213fb01bcacbccdb6fd29a9d5c27959dca46cb03"}], "txid": "11d9f8d888bdc57481fe96689e827d2e798688fd68958830d160eb0edc4800b5", "blocktime": 1537871767, "version": 1, "confirmations": 11493, "time": 1537871767, "locktime": 0, "vsize": 284, "size": 284}