{"hash": "11dbccf764557c03250be2ee573383489bd24eb29a94068fc875ed860bdad34b", "blockhash": "0000000000000000001f0ddff1eddb255c1121bcd4da4f1bc9a0da00cae72433", "vout": [{"scriptPubKey": {"reqSigs": 1, "hex": "76a9146c3b3e5ce5c8070e3bdd3567e8883e5687dcd0fe88ac", "addresses": ["1AsGx34WLrrV6NvdNkaqHEUp976AYdnBjh"], "asm": "OP_DUP OP_HASH160 6c3b3e5ce5c8070e3bdd3567e8883e5687dcd0fe OP_EQUALVERIFY OP_CHECKSIG", "type": "pubkeyhash"}, "value": 0.00547601, "n": 0}, {"scriptPubKey": {"reqSigs": 1, "hex": "a91472ad666d6ff814a3273c9dbfbf5c73179284164487", "addresses": ["3C9NgTp7qjDtLLzRPP7TsJ3hx6YdC713jZ"], "asm": "OP_HASH160 72ad666d6ff814a3273c9dbfbf5c731792841644 OP_EQUAL", "type": "scripthash"}, "value": 0.00693865, "n": 1}], "hex": "01000000013399da60c28c258cda0ab8e531af79e638cb3a285c521f2d6f2f0656b328aa3100000000fdfd0000483045022100d2d0cf74387f97561604bd910799e2c20e2623d9d140bcb241c88865b86babe502206c9f5857932dcd681688104512e03f782f3c8937683cc21357133059f060195101473044022029ef78fe87ae7c0440fdd3fbd7651905b6c641d20c33f454f2d1f4e6304b52a2022023188f64bab616036ba1663dae7bccc87af0a103670af258cabb3a1954f09e54014c6952210262d5d45cbb55141129a03c8d3d9f72d29b525c803db09bca73de359bb9db09df210297ac89db318bde3c7775a4f5b2758dc6acab1fb40abcea228f63a3c4c734de872102dcfc1465994d4f4c6ac3779c5812ccb9252679221e8f2e458ade82aa8082d96653aeffffffff02115b0800000000001976a9146c3b3e5ce5c8070e3bdd3567e8883e5687dcd0fe88ac69960a000000000017a91472ad666d6ff814a3273c9dbfbf5c7317928416448700000000", "vin": [{"sequence": 4294967295, "scriptSig": {"hex": "00483045022100d2d0cf74387f97561604bd910799e2c20e2623d9d140bcb241c88865b86babe502206c9f5857932dcd681688104512e03f782f3c8937683cc21357133059f060195101473044022029ef78fe87ae7c0440fdd3fbd7651905b6c641d20c33f454f2d1f4e6304b52a2022023188f64bab616036ba1663dae7bccc87af0a103670af258cabb3a1954f09e54014c6952210262d5d45cbb55141129a03c8d3d9f72d29b525c803db09bca73de359bb9db09df210297ac89db318bde3c7775a4f5b2758dc6acab1fb40abcea228f63a3c4c734de872102dcfc1465994d4f4c6ac3779c5812ccb9252679221e8f2e458ade82aa8082d96653ae", "asm": "0 3045022100d2d0cf74387f97561604bd910799e2c20e2623d9d140bcb241c88865b86babe502206c9f5857932dcd681688104512e03f782f3c8937683cc21357133059f0601951[ALL] 3044022029ef78fe87ae7c0440fdd3fbd7651905b6c641d20c33f454f2d1f4e6304b52a2022023188f64bab616036ba1663dae7bccc87af0a103670af258cabb3a1954f09e54[ALL] 52210262d5d45cbb55141129a03c8d3d9f72d29b525c803db09bca73de359bb9db09df210297ac89db318bde3c7775a4f5b2758dc6acab1fb40abcea228f63a3c4c734de872102dcfc1465994d4f4c6ac3779c5812ccb9252679221e8f2e458ade82aa8082d96653ae"}, "vout": 0, "txid": "31aa28b356062f6f2d1f525c283acb38e679af31e5b80ada8c258cc260da9933"}], "txid": "11dbccf764557c03250be2ee573383489bd24eb29a94068fc875ed860bdad34b", "blocktime": 1537872018, "version": 1, "confirmations": 11489, "time": 1537872018, "locktime": 0, "vsize": 372, "size": 372}