{"hash": "a07aab8fca5c3ff0067563fddd852f2cea101ea1f3489dc22cec23ad4ff47858", "blockhash": "00000000000000000004ffacab907a6b429b9a5745fa0b75af4234bf69dd7176", "vout": [{"scriptPubKey": {"reqSigs": 1, "hex": "76a914f474702b8a0d3cfd85656952767485571861a1b188ac", "addresses": ["1PHZN5BbG4jc2nZRzUmXqUMRDrEK5t7c1Y"], "asm": "OP_DUP OP_HASH160 f474702b8a0d3cfd85656952767485571861a1b1 OP_EQUALVERIFY OP_CHECKSIG", "type": "pubkeyhash"}, "value": 0.01, "n": 0}, {"scriptPubKey": {"reqSigs": 1, "hex": "a914fd06c3bdd09e4261948154e9616c55fe3ec7755087", "addresses": ["3Qktz6CrQj4Ve5iDyjraLNrgzKUVwg9mfh"], "asm": "OP_HASH160 fd06c3bdd09e4261948154e9616c55fe3ec77550 OP_EQUAL", "type": "scripthash"}, "value": 0.00030572, "n": 1}], "hex": "020000000001011033cd2fbf1097c043f7144f13a20083f4919981079d5450ed29df9e8cc54a3f0000000017160014349c39e59b01c6dcede835148c92fc85b30958eaffffffff0240420f00000000001976a914f474702b8a0d3cfd85656952767485571861a1b188ac6c7700000000000017a914fd06c3bdd09e4261948154e9616c55fe3ec775508702483045022100af897375ad675570089e751240fc189bc7a89c29bcaa053f88244a14fafe0e4b0220622cbd06c02afae6f68fa0197d7a61f47de934cc8b881bf313cbe0e84b2ac3c40121023fe12152675468c5b2b113a519452b662b0c87163f4b89ef49c3bdaf38d714d200000000", "vin": [{"txinwitness": ["3045022100af897375ad675570089e751240fc189bc7a89c29bcaa053f88244a14fafe0e4b0220622cbd06c02afae6f68fa0197d7a61f47de934cc8b881bf313cbe0e84b2ac3c401", "023fe12152675468c5b2b113a519452b662b0c87163f4b89ef49c3bdaf38d714d2"], "sequence": 4294967295, "scriptSig": {"hex": "160014349c39e59b01c6dcede835148c92fc85b30958ea", "asm": "0014349c39e59b01c6dcede835148c92fc85b30958ea"}, "vout": 0, "txid": "3f4ac58c9edf29ed50549d07819991f48300a2134f14f743c09710bf2fcd3310"}], "txid": "11de9a8cbd987243d70a8438ab6460c2a5c3a4e85e55b6bc9b9ff2fadfab2a17", "blocktime": 1537875543, "version": 2, "confirmations": 11464, "time": 1537875543, "locktime": 0, "vsize": 168, "size": 250}