{"hash": "e3ae1b81af908c9fae608ae8f7a10714d42cff220226fb9aed38c01eda2a25e9", "blockhash": "0000000000000000001f76057863aec43deb6fa401d9628bb513d65a8098bfab", "vout": [{"scriptPubKey": {"reqSigs": 1, "hex": "a9149effda782169f48e2134f111c56cca8110dcc00a87", "addresses": ["3GBjBrkN3Tws7MP5aQLz4gX746ZmHC8Euo"], "asm": "OP_HASH160 9effda782169f48e2134f111c56cca8110dcc00a OP_EQUAL", "type": "scripthash"}, "value": 0.01055598, "n": 0}, {"scriptPubKey": {"reqSigs": 1, "hex": "76a914db687c735f5afe789abe3185d785aafe7a2ef5f988ac", "addresses": ["1M189qRMYGETZW4koz32xYHGRNrLLdtCT9"], "asm": "OP_DUP OP_HASH160 db687c735f5afe789abe3185d785aafe7a2ef5f9 OP_EQUALVERIFY OP_CHECKSIG", "type": "pubkeyhash"}, "value": 0.0027406, "n": 1}], "hex": "02000000000102581f7e30a2eb4182a2ed3989377151cf9643df5832287d9e3adade65335ba8e00500000017160014a047cf970722f0721ba6e688426e41be545bb15efefffffff5bc6941eedb6e365d6c68dae4984bd8879d28cec3b7a4d22af0e9b1039c7dbd00000000171600146b4aa479277c733b2ff2315c1fde4175aa3b01d6feffffff026e1b10000000000017a9149effda782169f48e2134f111c56cca8110dcc00a878c2e0400000000001976a914db687c735f5afe789abe3185d785aafe7a2ef5f988ac0247304402200bd4028385ade7551b564c0dddd4e7c4fedd4fe99de1e886db4423300860955302203a3709192a6083e3e2ed172bb79f8e56d3116e29a00f08ee951927e0c6bdb1cc012103f25272f6ed4166704257941caa25faf6350fd6d32607bf4c93115028bb5b63ff02483045022100c5e6948e177d3930d70abb1d86b2b00f9cb6142069f067dc89c1e2a754bc08ba02207ae1723fadf1423ee88254cf27d54c3f4f5a32b018f27a3307acb707147bb05a012102285f9d26cddba591a12c3d57a5c3aca9caf5378f3f00e9c7e34673c864f2d92a14490800", "vin": [{"txinwitness": ["304402200bd4028385ade7551b564c0dddd4e7c4fedd4fe99de1e886db4423300860955302203a3709192a6083e3e2ed172bb79f8e56d3116e29a00f08ee951927e0c6bdb1cc01", "03f25272f6ed4166704257941caa25faf6350fd6d32607bf4c93115028bb5b63ff"], "sequence": 4294967294, "scriptSig": {"hex": "160014a047cf970722f0721ba6e688426e41be545bb15e", "asm": "0014a047cf970722f0721ba6e688426e41be545bb15e"}, "vout": 5, "txid": "e0a85b3365deda3a9e7d283258df4396cf5171378939eda28241eba2307e1f58"}, {"txinwitness": ["3045022100c5e6948e177d3930d70abb1d86b2b00f9cb6142069f067dc89c1e2a754bc08ba02207ae1723fadf1423ee88254cf27d54c3f4f5a32b018f27a3307acb707147bb05a01", "02285f9d26cddba591a12c3d57a5c3aca9caf5378f3f00e9c7e34673c864f2d92a"], "sequence": 4294967294, "scriptSig": {"hex": "1600146b4aa479277c733b2ff2315c1fde4175aa3b01d6", "asm": "00146b4aa479277c733b2ff2315c1fde4175aa3b01d6"}, "vout": 0, "txid": "bd7d9c03b1e9f02ad2a4b7c3ce289d87d84b98e4da686c5d366edbee4169bcf5"}], "txid": "11e7fde300d9dbdba4846ee846ac4920d046bbff1f61bb798b816a40381c3819", "blocktime": 1537873891, "version": 2, "confirmations": 11478, "time": 1537873891, "locktime": 542996, "vsize": 259, "size": 421}