{"hash": "11eaa1b3db4401cfef0f641952e6d27df651f3ab7438675d703b35f94eb03040", "blockhash": "000000000000000000022b45ed06c6f4ccd3cf7fb5ba4856ebd2e58215665228", "vout": [{"scriptPubKey": {"type": "nulldata", "hex": "6a146f6d6e69000000000000001f00000005d21dba00", "asm": "OP_RETURN 6f6d6e69000000000000001f00000005d21dba00"}, "value": 0.0, "n": 0}, {"scriptPubKey": {"reqSigs": 1, "hex": "76a914756172ae28d4e8a28abcb2ac83bcdeda9846408f88ac", "addresses": ["1BheoFNe9p35f3iPF6z4EpmZRK1VChb2h1"], "asm": "OP_DUP OP_HASH160 756172ae28d4e8a28abcb2ac83bcdeda9846408f OP_EQUALVERIFY OP_CHECKSIG", "type": "pubkeyhash"}, "value": 5.46e-06, "n": 1}, {"scriptPubKey": {"reqSigs": 1, "hex": "76a914284b1f894ca72430de8f19952125b6016a9dc7c688ac", "addresses": ["14g42KnXkRFfR8cUtS5tReprjeNvGQKW9v"], "asm": "OP_DUP OP_HASH160 284b1f894ca72430de8f19952125b6016a9dc7c6 OP_EQUALVERIFY OP_CHECKSIG", "type": "pubkeyhash"}, "value": 0.14493123, "n": 2}], "hex": "010000000160cca65427348a939fcc1592365a7d5e1b180163465955a374cd23af4543b666010000006b483045022100c3b6dc901e2a0c48b6beb8e0ae44eb91250c22d2af9a55bfa5070238b5323ca202202b6aec60fac7736cef14b26cb848cfc8c2684c49fa817c5bcf7f346d1bd857ef01210392260b2475e9dec1855e89404d00787579055270f3f1619ec29bd64ed6a6dd7dfeffffff030000000000000000166a146f6d6e69000000000000001f00000005d21dba0022020000000000001976a914756172ae28d4e8a28abcb2ac83bcdeda9846408f88acc325dd00000000001976a914284b1f894ca72430de8f19952125b6016a9dc7c688ac0b490800", "vin": [{"sequence": 4294967294, "scriptSig": {"hex": "483045022100c3b6dc901e2a0c48b6beb8e0ae44eb91250c22d2af9a55bfa5070238b5323ca202202b6aec60fac7736cef14b26cb848cfc8c2684c49fa817c5bcf7f346d1bd857ef01210392260b2475e9dec1855e89404d00787579055270f3f1619ec29bd64ed6a6dd7d", "asm": "3045022100c3b6dc901e2a0c48b6beb8e0ae44eb91250c22d2af9a55bfa5070238b5323ca202202b6aec60fac7736cef14b26cb848cfc8c2684c49fa817c5bcf7f346d1bd857ef[ALL] 0392260b2475e9dec1855e89404d00787579055270f3f1619ec29bd64ed6a6dd7d"}, "vout": 1, "txid": "66b64345af23cd74a35559466301181b5e7d5a369215cc9f938a342754a6cc60"}], "txid": "11eaa1b3db4401cfef0f641952e6d27df651f3ab7438675d703b35f94eb03040", "blocktime": 1537869901, "version": 1, "confirmations": 11522, "time": 1537869901, "locktime": 542987, "vsize": 257, "size": 257}