{"hash": "202475d588786da3e1a6d0cb7d03c129b550d93574675dac9ff97f0a413c22d1", "blockhash": "0000000000000000000e13cef7c366c0283d82e591d1acd082e914b08063cdf1", "vout": [{"scriptPubKey": {"reqSigs": 1, "hex": "76a9140c5f626236bee4d78070b9c39e442d24ccbb699c88ac", "addresses": ["128RNimNtZDrcAEoDnBnbdyWNrfsD7a5Gb"], "asm": "OP_DUP OP_HASH160 0c5f626236bee4d78070b9c39e442d24ccbb699c OP_EQUALVERIFY OP_CHECKSIG", "type": "pubkeyhash"}, "value": 0.004879, "n": 0}, {"scriptPubKey": {"reqSigs": 1, "hex": "a914e33ba8186cdf85e8c5cb0989a3aa4405e9b230d787", "addresses": ["3NQWn6zMDEyKnfzaoU7RWv86Vjm9XTn9AJ"], "asm": "OP_HASH160 e33ba8186cdf85e8c5cb0989a3aa4405e9b230d7 OP_EQUAL", "type": "scripthash"}, "value": 0.004, "n": 1}, {"scriptPubKey": {"reqSigs": 1, "hex": "a9141988a27e3c2df4ddee7fad5a2303d086179b2a3087", "addresses": ["3422VtS7UtCvXYxoXMVp6eZupR252z85oC"], "asm": "OP_HASH160 1988a27e3c2df4ddee7fad5a2303d086179b2a30 OP_EQUAL", "type": "scripthash"}, "value": 2.78682744, "n": 2}], "hex": "010000000001013c4920b3ec1bfc24b5fa6d4dc08176ff22c665e1b94119078c8693ad80a416a0000000002322002065d416c48a8072e0ac51c2d111eb194f009caef0332446c1bf2097316cf07fa9ffffffff03dc710700000000001976a9140c5f626236bee4d78070b9c39e442d24ccbb699c88ac801a06000000000017a914e33ba8186cdf85e8c5cb0989a3aa4405e9b230d787785c9c100000000017a9141988a27e3c2df4ddee7fad5a2303d086179b2a3087040047304402201641e983b0892b33a2e749af8aac82a55809be12f62b02482ddc0e5ded79b5ce02200a386cd50b890f38b74a608b146feabe025f97f2a5bdcf727d70c20ed31eb15001483045022100e6e949a4c6d382641c35cfbf23db730d9b3cbad6cb796e7dff8a334bd21d74a402203c1bcf1d6e8764d9f1f439b23fc640e0d63d028a81b085e5c043ae6e4632cabf0169522102f44abcf9e23c9a460da309ccca56c619c04eed3bde2c2cff5e7d78fbcd980b9c2103c9443cf3047bb6c2c82f1b0c44c36109cdc3d0d601d16d1189a1602bf8d1a0a02103bfe867059274412412e088af5572b92168c2ef495cfe6c9b7a753a009eb37c4853ae00000000", "vin": [{"txinwitness": ["", "304402201641e983b0892b33a2e749af8aac82a55809be12f62b02482ddc0e5ded79b5ce02200a386cd50b890f38b74a608b146feabe025f97f2a5bdcf727d70c20ed31eb15001", "3045022100e6e949a4c6d382641c35cfbf23db730d9b3cbad6cb796e7dff8a334bd21d74a402203c1bcf1d6e8764d9f1f439b23fc640e0d63d028a81b085e5c043ae6e4632cabf01", "522102f44abcf9e23c9a460da309ccca56c619c04eed3bde2c2cff5e7d78fbcd980b9c2103c9443cf3047bb6c2c82f1b0c44c36109cdc3d0d601d16d1189a1602bf8d1a0a02103bfe867059274412412e088af5572b92168c2ef495cfe6c9b7a753a009eb37c4853ae"], "sequence": 4294967295, "scriptSig": {"hex": "22002065d416c48a8072e0ac51c2d111eb194f009caef0332446c1bf2097316cf07fa9", "asm": "002065d416c48a8072e0ac51c2d111eb194f009caef0332446c1bf2097316cf07fa9"}, "vout": 0, "txid": "a016a480ad93868c071941b9e165c622ff7681c04d6dfab524fc1becb320493c"}], "txid": "11eda6ce376b1b22434d0a89d1bdd4958bdc40ec9aaa2058554f0c9a2908a36a", "blocktime": 1537871767, "version": 1, "confirmations": 11491, "time": 1537871767, "locktime": 0, "vsize": 248, "size": 439}