{"hash": "11eefd6f2a763456ac28103978def9c3be66bd5acf58a0a12cb927199175a6bc", "blockhash": "0000000000000000000dcc0f55137456b1a82d3642486a52398922ac4d620174", "vout": [{"scriptPubKey": {"reqSigs": 1, "hex": "a9143e6f15908582f42917ec31e39bf8722fc9d5db3f87", "addresses": ["37P8thrtDXb6Di5E7f4FL3bpzum3fhUvT7"], "asm": "OP_HASH160 3e6f15908582f42917ec31e39bf8722fc9d5db3f OP_EQUAL", "type": "scripthash"}, "value": 0.0002, "n": 0}, {"scriptPubKey": {"reqSigs": 1, "hex": "76a9141bd99f87dbf5c1bab319ffaa366b9b32d05814b488ac", "addresses": ["13YFwuKnG9qDZAzyve8xztGAgPxwZYwb5X"], "asm": "OP_DUP OP_HASH160 1bd99f87dbf5c1bab319ffaa366b9b32d05814b4 OP_EQUALVERIFY OP_CHECKSIG", "type": "pubkeyhash"}, "value": 0.00296448, "n": 1}], "hex": "01000000018d724ca4fdf28e3eb49fa959100c50d690b70e4d12674dc3fc4560b9317aae17000000006b483045022100ac7d7e1e6d896c54365778110e61ab47a629a904a930af3534c7fd18fa4a8f460220375f1d2db4a83ced559132f5c3b5fe983574674d6b675ec10049f3c278879b7e0121039b095d58736fad31085d70033a0e332ccfcccc840331c5d215474c55cfe658f4ffffffff02204e00000000000017a9143e6f15908582f42917ec31e39bf8722fc9d5db3f8700860400000000001976a9141bd99f87dbf5c1bab319ffaa366b9b32d05814b488ac00000000", "vin": [{"sequence": 4294967295, "scriptSig": {"hex": "483045022100ac7d7e1e6d896c54365778110e61ab47a629a904a930af3534c7fd18fa4a8f460220375f1d2db4a83ced559132f5c3b5fe983574674d6b675ec10049f3c278879b7e0121039b095d58736fad31085d70033a0e332ccfcccc840331c5d215474c55cfe658f4", "asm": "3045022100ac7d7e1e6d896c54365778110e61ab47a629a904a930af3534c7fd18fa4a8f460220375f1d2db4a83ced559132f5c3b5fe983574674d6b675ec10049f3c278879b7e[ALL] 039b095d58736fad31085d70033a0e332ccfcccc840331c5d215474c55cfe658f4"}, "vout": 0, "txid": "17ae7a31b96045fcc34d67124d0eb790d6500c1059a99fb43e8ef2fda44c728d"}], "txid": "11eefd6f2a763456ac28103978def9c3be66bd5acf58a0a12cb927199175a6bc", "blocktime": 1537870268, "version": 1, "confirmations": 11516, "time": 1537870268, "locktime": 0, "vsize": 224, "size": 224}