{"hash": "11f152c58619aa67fa3dad5c3d2db4e0f5569f72ab4158c106a59fc8924a4ba6", "blockhash": "00000000000000000017f5eb5941039fbcee6240d03bc1f2f8e35350df66a1d8", "vout": [{"scriptPubKey": {"reqSigs": 1, "hex": "76a914d926a73e959958355efc1203f7554f8586e65e0188ac", "addresses": ["1LoBwJidYy3s86BFdPEij7W4MNbVSsuGqC"], "asm": "OP_DUP OP_HASH160 d926a73e959958355efc1203f7554f8586e65e01 OP_EQUALVERIFY OP_CHECKSIG", "type": "pubkeyhash"}, "value": 0.0147492, "n": 0}, {"scriptPubKey": {"type": "nulldata", "hex": "6a4c50000077f00001cc976e396876d674d1a4089cd19ed074892d00f8e87af8e8e963c7cfd5b98853840b3e68e9720b96e4622d4ab07b5baa181b06137458153121bdbc9a9526289ac0f6612cd74e33776ee4", "asm": "OP_RETURN 000077f00001cc976e396876d674d1a4089cd19ed074892d00f8e87af8e8e963c7cfd5b98853840b3e68e9720b96e4622d4ab07b5baa181b06137458153121bdbc9a9526289ac0f6612cd74e33776ee4"}, "value": 0.0, "n": 1}], "hex": "0100000001518e69d161b3fddc6a1d20de0fd6f2dac075019012ff9a00eab6e4d06d1b0e1c000000006a473044022065b552f3e6eedad7ff0a303f4d4fc9c3d201bd7126b9885d3a8653f48728a13a02203593bd79324516266f857e8a62c23c6cc8283b215541413cdaff3bd355d2c5910121025436acbcd1baaf9a34baeaeab5c43d79977715b69dea03a23146ea7eeb0f37dbffffffff0268811600000000001976a914d926a73e959958355efc1203f7554f8586e65e0188ac0000000000000000536a4c50000077f00001cc976e396876d674d1a4089cd19ed074892d00f8e87af8e8e963c7cfd5b98853840b3e68e9720b96e4622d4ab07b5baa181b06137458153121bdbc9a9526289ac0f6612cd74e33776ee400000000", "vin": [{"sequence": 4294967295, "scriptSig": {"hex": "473044022065b552f3e6eedad7ff0a303f4d4fc9c3d201bd7126b9885d3a8653f48728a13a02203593bd79324516266f857e8a62c23c6cc8283b215541413cdaff3bd355d2c5910121025436acbcd1baaf9a34baeaeab5c43d79977715b69dea03a23146ea7eeb0f37db", "asm": "3044022065b552f3e6eedad7ff0a303f4d4fc9c3d201bd7126b9885d3a8653f48728a13a02203593bd79324516266f857e8a62c23c6cc8283b215541413cdaff3bd355d2c591[ALL] 025436acbcd1baaf9a34baeaeab5c43d79977715b69dea03a23146ea7eeb0f37db"}, "vout": 0, "txid": "1c0e1b6dd0e4b6ea009aff12900175c0daf2d60fde201d6adcfdb361d1698e51"}], "txid": "11f152c58619aa67fa3dad5c3d2db4e0f5569f72ab4158c106a59fc8924a4ba6", "blocktime": 1537874412, "version": 1, "confirmations": 11467, "time": 1537874412, "locktime": 0, "vsize": 283, "size": 283}