{"hash": "021f6a2482a3e8b88fc096ab579cabd2c46a11d1cda04e8d8f219aa478256fdf", "blockhash": "0000000000000000000e13cef7c366c0283d82e591d1acd082e914b08063cdf1", "vout": [{"scriptPubKey": {"reqSigs": 1, "hex": "76a914781ac71a43166402a5e3dff8b212c8ec686d94c288ac", "addresses": ["1Bx4Aa4KvFQa8ZzBAzHbfS6RLVGD1X8454"], "asm": "OP_DUP OP_HASH160 781ac71a43166402a5e3dff8b212c8ec686d94c2 OP_EQUALVERIFY OP_CHECKSIG", "type": "pubkeyhash"}, "value": 0.01139335, "n": 0}, {"scriptPubKey": {"reqSigs": 1, "hex": "a91409f4af8b65aa375907a8e7eff81419f001e183d087", "addresses": ["32bf8LDdJRGFuen16hRNrhcmr2KWDxeQte"], "asm": "OP_HASH160 09f4af8b65aa375907a8e7eff81419f001e183d0 OP_EQUAL", "type": "scripthash"}, "value": 0.10468512, "n": 1}], "hex": "0200000000010317bab0ad0ababb55d858ea56126f2cf395f4b0ab0c1729aafb5fed58a2491db10000000017160014a7fa43ba747561304cc26cce8850df1ce3a1f1cffeffffff3f6570e61e8a6023dc36b10a3c61cfdaf6f668f7659f7f8dc45ce197946a0993000000006b48304502210096fbe08337c52ac5ebd14600df5bb64df7f45900219e9158a5cc271e78eb156c022020fecb9bda09b2b5489696c9436060bd0a303ecad26be11ccf41711400cf04df0121023bc1acb7ff02563493538cba1562373258a290a24a223f4b127621dcb1956941feffffff5b4ca421b806d618ed5cdc5175c9d83240350028983a31532d8af6ab0a68dd7c010000006a47304402200accc2f70a728a13d66298df85548fff4341d87b2aaf6d0f8a1ab09f510a862d02201e34f858b8a7f5fcb996a4f0859fd62d89b4e75bbb914d142ac10c83457bd2160121034186f90b7ba3107eebdeb0180d25c9f0ce823639d28a33bc4a1a1ee9cf3a5237feffffff0287621100000000001976a914781ac71a43166402a5e3dff8b212c8ec686d94c288aca0bc9f000000000017a91409f4af8b65aa375907a8e7eff81419f001e183d08702473044022076798e67bd760bf515a8ef943d73ecf1297d56923b312ac04147bbee0bfcb00802206d8167061fd41ba87d25d4c747300742111d03d393887836836f659a369c816c012102b0157ea73f54c432822c8ddeda832e2048b95b688f471345f40d1f29e6330ec6000010490800", "vin": [{"txinwitness": ["3044022076798e67bd760bf515a8ef943d73ecf1297d56923b312ac04147bbee0bfcb00802206d8167061fd41ba87d25d4c747300742111d03d393887836836f659a369c816c01", "02b0157ea73f54c432822c8ddeda832e2048b95b688f471345f40d1f29e6330ec6"], "sequence": 4294967294, "scriptSig": {"hex": "160014a7fa43ba747561304cc26cce8850df1ce3a1f1cf", "asm": "0014a7fa43ba747561304cc26cce8850df1ce3a1f1cf"}, "vout": 0, "txid": "b11d49a258ed5ffbaa29170cabb0f495f32c6f1256ea58d855bbba0aadb0ba17"}, {"sequence": 4294967294, "scriptSig": {"hex": "48304502210096fbe08337c52ac5ebd14600df5bb64df7f45900219e9158a5cc271e78eb156c022020fecb9bda09b2b5489696c9436060bd0a303ecad26be11ccf41711400cf04df0121023bc1acb7ff02563493538cba1562373258a290a24a223f4b127621dcb1956941", "asm": "304502210096fbe08337c52ac5ebd14600df5bb64df7f45900219e9158a5cc271e78eb156c022020fecb9bda09b2b5489696c9436060bd0a303ecad26be11ccf41711400cf04df[ALL] 023bc1acb7ff02563493538cba1562373258a290a24a223f4b127621dcb1956941"}, "vout": 0, "txid": "93096a9497e15cc48d7f9f65f768f6f6dacf613c0ab136dc23608a1ee670653f"}, {"sequence": 4294967294, "scriptSig": {"hex": "47304402200accc2f70a728a13d66298df85548fff4341d87b2aaf6d0f8a1ab09f510a862d02201e34f858b8a7f5fcb996a4f0859fd62d89b4e75bbb914d142ac10c83457bd2160121034186f90b7ba3107eebdeb0180d25c9f0ce823639d28a33bc4a1a1ee9cf3a5237", "asm": "304402200accc2f70a728a13d66298df85548fff4341d87b2aaf6d0f8a1ab09f510a862d02201e34f858b8a7f5fcb996a4f0859fd62d89b4e75bbb914d142ac10c83457bd216[ALL] 034186f90b7ba3107eebdeb0180d25c9f0ce823639d28a33bc4a1a1ee9cf3a5237"}, "vout": 1, "txid": "7cdd680aabf68a2d53313a982800354032d8c97551dc5ced18d606b821a44c5b"}], "txid": "11f6b1d94271a102cd1963d0cdaeb3f7c59f72f07e4391c86cd04c6abc389c7b", "blocktime": 1537871767, "version": 2, "confirmations": 11495, "time": 1537871767, "locktime": 542992, "vsize": 463, "size": 546}