{"hash": "c0bc416ec8673070fa5872da61086b71ef2c001267d7b266f588d79c897c6286", "blockhash": "0000000000000000001f76057863aec43deb6fa401d9628bb513d65a8098bfab", "vout": [{"scriptPubKey": {"reqSigs": 1, "hex": "00208961ad9d86fb623a2644a5727f4e34583c30ded59957d02f542ad4f97fa2b56c", "addresses": ["bc1q39s6m8vxld3r5fjy54e87n35tq7rphk4n9taqt659t20jlazk4kqs5w8ln"], "asm": "0 8961ad9d86fb623a2644a5727f4e34583c30ded59957d02f542ad4f97fa2b56c", "type": "witness_v0_scripthash"}, "value": 0.002, "n": 0}, {"scriptPubKey": {"reqSigs": 1, "hex": "0014994f3291ab4425a63d845f318db96d623ef6482c", "addresses": ["bc1qn98n9ydtgsj6v0vytuccmwtdvgl0vjpvtvyr47"], "asm": "0 994f3291ab4425a63d845f318db96d623ef6482c", "type": "witness_v0_keyhash"}, "value": 0.00263656, "n": 1}], "hex": "010000000001018b08c4a6a671b2d0bfce15a92f52ec6a044af3fcd05e705c25ef78240d3dbab90000000000ffffffff02400d0300000000002200208961ad9d86fb623a2644a5727f4e34583c30ded59957d02f542ad4f97fa2b56ce805040000000000160014994f3291ab4425a63d845f318db96d623ef6482c0247304402200b7b0ec2a5daafe4d385217d6e807baf9124b6ffc765e6dd2fa424dc77ebcec502205f21fbb1253f1604ecfe30d12b0594ad52de72ce83cdc8e46709146a3f80ff0a012103cb0170f43f366a42a05a2f310f5e773b73ee579fe332d6f88e8c77da5c23645000000000", "vin": [{"txinwitness": ["304402200b7b0ec2a5daafe4d385217d6e807baf9124b6ffc765e6dd2fa424dc77ebcec502205f21fbb1253f1604ecfe30d12b0594ad52de72ce83cdc8e46709146a3f80ff0a01", "03cb0170f43f366a42a05a2f310f5e773b73ee579fe332d6f88e8c77da5c236450"], "sequence": 4294967295, "scriptSig": {"hex": "", "asm": ""}, "vout": 0, "txid": "b9ba3d0d2478ef255c705ed0fcf34a046aec522fa915cebfd0b271a6a6c4088b"}], "txid": "11f601462be2dbae4ab535f3645a5e7d736b3b33df4f0d1333a6fc39d3ec7a90", "blocktime": 1537873891, "version": 1, "confirmations": 11478, "time": 1537873891, "locktime": 0, "vsize": 153, "size": 234}