{"hash": "11f9e20ab8c5c92103d13c53dccb560a1282ddd25a35878bbe93b943b1e05130", "blockhash": "00000000000000000004ffacab907a6b429b9a5745fa0b75af4234bf69dd7176", "vout": [{"scriptPubKey": {"reqSigs": 1, "hex": "76a9141174e3547dc5569a013435eab1e1920fbda85e3788ac", "addresses": ["12bJWnNdWSo4DNrs2KW316SfLC6FNDLv5g"], "asm": "OP_DUP OP_HASH160 1174e3547dc5569a013435eab1e1920fbda85e37 OP_EQUALVERIFY OP_CHECKSIG", "type": "pubkeyhash"}, "value": 0.00017396, "n": 0}, {"scriptPubKey": {"reqSigs": 1, "hex": "a9146ef1eab21cfa6cc84ca6113ec51fd0796fc9abcb87", "addresses": ["3Boe4KNtybCkKsAX6mhrrCyA2sbdaL4FTG"], "asm": "OP_HASH160 6ef1eab21cfa6cc84ca6113ec51fd0796fc9abcb OP_EQUAL", "type": "scripthash"}, "value": 0.00017968, "n": 1}], "hex": "0100000001d3e1c8868478122dcb0b82bf6430ed3e197f457e1fb3ef9133fd85627dd80ae2000000006b483045022100ef5cecb005277226635afb96bfce592c245b4653979f93ed3250d4e49962806f0220338f873bfeffb7d8193d85f231db37c5d4bcc72dee87025bcf977dcf9be1ee7e01210273cd8a958e3167f50ea7991ab6d0c7eb641418d9525a90c033708ec615a23609ffffffff02f4430000000000001976a9141174e3547dc5569a013435eab1e1920fbda85e3788ac304600000000000017a9146ef1eab21cfa6cc84ca6113ec51fd0796fc9abcb8700000000", "vin": [{"sequence": 4294967295, "scriptSig": {"hex": "483045022100ef5cecb005277226635afb96bfce592c245b4653979f93ed3250d4e49962806f0220338f873bfeffb7d8193d85f231db37c5d4bcc72dee87025bcf977dcf9be1ee7e01210273cd8a958e3167f50ea7991ab6d0c7eb641418d9525a90c033708ec615a23609", "asm": "3045022100ef5cecb005277226635afb96bfce592c245b4653979f93ed3250d4e49962806f0220338f873bfeffb7d8193d85f231db37c5d4bcc72dee87025bcf977dcf9be1ee7e[ALL] 0273cd8a958e3167f50ea7991ab6d0c7eb641418d9525a90c033708ec615a23609"}, "vout": 0, "txid": "e20ad87d6285fd3391efb31f7e457f193eed3064bf820bcb2d12788486c8e1d3"}], "txid": "11f9e20ab8c5c92103d13c53dccb560a1282ddd25a35878bbe93b943b1e05130", "blocktime": 1537875543, "version": 1, "confirmations": 11464, "time": 1537875543, "locktime": 0, "vsize": 224, "size": 224}