{"hash": "11fcc7f88633a62bf3a2ffcce1958d4885a310ddc614b26bede1d6e343507887", "blockhash": "0000000000000000000e13cef7c366c0283d82e591d1acd082e914b08063cdf1", "vout": [{"scriptPubKey": {"reqSigs": 1, "hex": "76a914238ffd31cb06e23c96248a7647cd262d65c7e8f988ac", "addresses": ["14F39FPN1tqhKFrDetYvGT1VAsjqCxZV1f"], "asm": "OP_DUP OP_HASH160 238ffd31cb06e23c96248a7647cd262d65c7e8f9 OP_EQUALVERIFY OP_CHECKSIG", "type": "pubkeyhash"}, "value": 0.001743, "n": 0}, {"scriptPubKey": {"reqSigs": 1, "hex": "76a9140631e6a6d58e24ae8639fa5f8a94e07154f5863d88ac", "addresses": ["1ZkqLG7SP4Esogfkz12bXii9bwxRu9bR8"], "asm": "OP_DUP OP_HASH160 0631e6a6d58e24ae8639fa5f8a94e07154f5863d OP_EQUALVERIFY OP_CHECKSIG", "type": "pubkeyhash"}, "value": 6.421e-05, "n": 1}], "hex": "010000000182470550859df53044cadff9b527824ba8e4c0bba58bc1b4968142643b2d2214040000006b483045022100a9c2d5dddadb6c3a773b1a879a7ee0dd2bac61b495da72445dbd6d05a91e3e1d0220178a2438698085bf6cbc6a1b5a42a9439d307a90d8fda23023d687249bc4c844012103cb86049d8dd7cc656e74b613712ad9574f154ca24e9b517c938ceb96f3f63aa8ffffffff02dca80200000000001976a914238ffd31cb06e23c96248a7647cd262d65c7e8f988ac15190000000000001976a9140631e6a6d58e24ae8639fa5f8a94e07154f5863d88ac00000000", "vin": [{"sequence": 4294967295, "scriptSig": {"hex": "483045022100a9c2d5dddadb6c3a773b1a879a7ee0dd2bac61b495da72445dbd6d05a91e3e1d0220178a2438698085bf6cbc6a1b5a42a9439d307a90d8fda23023d687249bc4c844012103cb86049d8dd7cc656e74b613712ad9574f154ca24e9b517c938ceb96f3f63aa8", "asm": "3045022100a9c2d5dddadb6c3a773b1a879a7ee0dd2bac61b495da72445dbd6d05a91e3e1d0220178a2438698085bf6cbc6a1b5a42a9439d307a90d8fda23023d687249bc4c844[ALL] 03cb86049d8dd7cc656e74b613712ad9574f154ca24e9b517c938ceb96f3f63aa8"}, "vout": 4, "txid": "14222d3b64428196b4c18ba5bbc0e4a84b8227b5f9dfca4430f59d8550054782"}], "txid": "11fcc7f88633a62bf3a2ffcce1958d4885a310ddc614b26bede1d6e343507887", "blocktime": 1537871767, "version": 1, "confirmations": 11495, "time": 1537871767, "locktime": 0, "vsize": 226, "size": 226}