{"hash": "e0b255009e849d82cef5f1ad1e00cb1ba9a25220c1d8be50e1c40bcf38478488", "blockhash": "0000000000000000001cda96e906b7601b7a6fb1a3b62bca570a9e5d8f4b3de1", "vout": [{"scriptPubKey": {"reqSigs": 1, "hex": "76a914abad2a8c97cf4a71f8d56a63c0889720d5e89a7888ac", "addresses": ["1GejzbvJ9jd8E6QZgPt3Tp6GMnHQrLDdDX"], "asm": "OP_DUP OP_HASH160 abad2a8c97cf4a71f8d56a63c0889720d5e89a78 OP_EQUALVERIFY OP_CHECKSIG", "type": "pubkeyhash"}, "value": 0.01115689, "n": 0}, {"scriptPubKey": {"reqSigs": 1, "hex": "a914a5c679defd49547b8133a1367eeadbdeaecec3da87", "addresses": ["3GoZBZ6F8g4UiCt7moPNLDX7KKwgtGgLUT"], "asm": "OP_HASH160 a5c679defd49547b8133a1367eeadbdeaecec3da OP_EQUAL", "type": "scripthash"}, "value": 0.52659118, "n": 1}], "hex": "01000000000101d97381c296a5f053daffd5a6031ed2a40caa445d23de83b91337798a45ecdb0f01000000232200202d90cd274cea8141a030c0b79acc5b5c0b80b73d028692a1104913808bff6c09ffffffff0229061100000000001976a914abad2a8c97cf4a71f8d56a63c0889720d5e89a7888acae8323030000000017a914a5c679defd49547b8133a1367eeadbdeaecec3da870400473044022013edd20591d8773cf4fbafb109927203ea7a24998515d24e249869a001e8351d02200a02c253027d1dc8174415553d969048232d6d182a1a39ab764b9698c7b8c1530147304402203a9a8a55709836f62ae228b9817b09ae1ab23d5b67caf7be46fde29392bfc9fe022025288464e087b9dac88b26f5c28926c8cfc03d8efed65ebc4092da3a9dfe5c26014752210295d70c0f10033e6e119fdc61ddd495bfe23995150af6df4688db5bf235f2853b21023e4b58fb2a91970de56515d11487aabd364f0404f1099bef70493cc56002342352ae00000000", "vin": [{"txinwitness": ["", "3044022013edd20591d8773cf4fbafb109927203ea7a24998515d24e249869a001e8351d02200a02c253027d1dc8174415553d969048232d6d182a1a39ab764b9698c7b8c15301", "304402203a9a8a55709836f62ae228b9817b09ae1ab23d5b67caf7be46fde29392bfc9fe022025288464e087b9dac88b26f5c28926c8cfc03d8efed65ebc4092da3a9dfe5c2601", "52210295d70c0f10033e6e119fdc61ddd495bfe23995150af6df4688db5bf235f2853b21023e4b58fb2a91970de56515d11487aabd364f0404f1099bef70493cc56002342352ae"], "sequence": 4294967295, "scriptSig": {"hex": "2200202d90cd274cea8141a030c0b79acc5b5c0b80b73d028692a1104913808bff6c09", "asm": "00202d90cd274cea8141a030c0b79acc5b5c0b80b73d028692a1104913808bff6c09"}, "vout": 1, "txid": "0fdbec458a793713b983de235d44aa0ca4d21e03a6d5ffda53f0a596c28173d9"}], "txid": "1200fdbfc6d4dc993c7d79bb5be9d194b1f791dfae40580e2a862bff1babd552", "blocktime": 1537873282, "version": 1, "confirmations": 11484, "time": 1537873282, "locktime": 0, "vsize": 207, "size": 372}