{"hash": "5325e54ba6901ecb8a037f40ef21f9ac5615c23fd2caa53dfd9c626bc6853391", "blockhash": "0000000000000000001f76057863aec43deb6fa401d9628bb513d65a8098bfab", "vout": [{"scriptPubKey": {"reqSigs": 1, "hex": "76a914dffc534be42c6403a51c8e381d8a8045f06748f988ac", "addresses": ["1MRKxerjaFgweDAGWYMD4YVLv1Ks5XLPeE"], "asm": "OP_DUP OP_HASH160 dffc534be42c6403a51c8e381d8a8045f06748f9 OP_EQUALVERIFY OP_CHECKSIG", "type": "pubkeyhash"}, "value": 0.02863333, "n": 0}, {"scriptPubKey": {"reqSigs": 1, "hex": "00144e70bb4047c500e137632403668c5c83a0e4e123", "addresses": ["bc1qfectksz8c5qwzdmryspkdrzuswswfcfr3nfpe0"], "asm": "0 4e70bb4047c500e137632403668c5c83a0e4e123", "type": "witness_v0_keyhash"}, "value": 0.8661731, "n": 1}], "hex": "01000000000101bcdbf2a16687609d22af243b775f0f0f1ba13900ac34e114e70cf99449c44bd50000000000ffffffff02e5b02b00000000001976a914dffc534be42c6403a51c8e381d8a8045f06748f988acdeac2905000000001600144e70bb4047c500e137632403668c5c83a0e4e1230247304402200464554b10a8a70c5c343937ea042f2cd354590268a474c4ae95d7ea857ebda602202579cc26ea0c97b7088cc73917a8dd37167f60576fe36fb19bab64871705b04501210386c58bfdf6839d5ef85c13c796fa31876f9a44ab59cac8ab381eb44b427c5a2700000000", "vin": [{"txinwitness": ["304402200464554b10a8a70c5c343937ea042f2cd354590268a474c4ae95d7ea857ebda602202579cc26ea0c97b7088cc73917a8dd37167f60576fe36fb19bab64871705b04501", "0386c58bfdf6839d5ef85c13c796fa31876f9a44ab59cac8ab381eb44b427c5a27"], "sequence": 4294967295, "scriptSig": {"hex": "", "asm": ""}, "vout": 0, "txid": "d54bc44994f90ce714e134ac0039a11b0f0f5f773b24af229d608766a1f2dbbc"}], "txid": "1203f3b259a33a53217a38d13dc89dfb757abae395dd380c17e060e381657d84", "blocktime": 1537873891, "version": 1, "confirmations": 11478, "time": 1537873891, "locktime": 0, "vsize": 144, "size": 225}