{"hash": "1204222a53dceefe219341e5850e4333545d5d154dc574caf948bc8138c08e2a", "blockhash": "0000000000000000000e13cef7c366c0283d82e591d1acd082e914b08063cdf1", "vout": [{"scriptPubKey": {"reqSigs": 1, "hex": "76a914ac639ecbcc1ef83fd97f49598faebf4c0b447f2888ac", "addresses": ["1GiWZjbchk8pGJYa1vMoNRfoZurTxWGrdw"], "asm": "OP_DUP OP_HASH160 ac639ecbcc1ef83fd97f49598faebf4c0b447f28 OP_EQUALVERIFY OP_CHECKSIG", "type": "pubkeyhash"}, "value": 0.005206, "n": 0}], "hex": "0100000002bb272285384c24adb4e8485dad4012d4c8d32543e62ed50d05dbeaff257db20c000000006a47304402201a566191537b73a25f9895a8f44f5ac06c2e43a2a55b5fe0e8a089e512b5fb2302207932582424115e2f3c51ff2efc315ec9e956107164b116a9a23c56a4e63c72d3012102e17f1e2f10fc67e49709abac529862488b33dd9ca38fc4735f4a28e62776594effffffffa41c22ded14fc337ee55c9f3ecab6affe3a2c51c91207bc68f5e89042cc5728c000000006a473044022061a5d4cabbe97f2c57eee4b5ff733ebf13eb121c9ee2fd89c42121d74185b88002202fa197c06c03597fbbf5c7848179ef8797629e3511e4470c3f7da64cbb5ec0cc012102668b356e01bc3cf83489996a9b46da0e933b4a8af7d5f1a4a76b0685700eda16ffffffff0198f10700000000001976a914ac639ecbcc1ef83fd97f49598faebf4c0b447f2888ac00000000", "vin": [{"sequence": 4294967295, "scriptSig": {"hex": "47304402201a566191537b73a25f9895a8f44f5ac06c2e43a2a55b5fe0e8a089e512b5fb2302207932582424115e2f3c51ff2efc315ec9e956107164b116a9a23c56a4e63c72d3012102e17f1e2f10fc67e49709abac529862488b33dd9ca38fc4735f4a28e62776594e", "asm": "304402201a566191537b73a25f9895a8f44f5ac06c2e43a2a55b5fe0e8a089e512b5fb2302207932582424115e2f3c51ff2efc315ec9e956107164b116a9a23c56a4e63c72d3[ALL] 02e17f1e2f10fc67e49709abac529862488b33dd9ca38fc4735f4a28e62776594e"}, "vout": 0, "txid": "0cb27d25ffeadb050dd52ee64325d3c8d41240ad5d48e8b4ad244c38852227bb"}, {"sequence": 4294967295, "scriptSig": {"hex": "473044022061a5d4cabbe97f2c57eee4b5ff733ebf13eb121c9ee2fd89c42121d74185b88002202fa197c06c03597fbbf5c7848179ef8797629e3511e4470c3f7da64cbb5ec0cc012102668b356e01bc3cf83489996a9b46da0e933b4a8af7d5f1a4a76b0685700eda16", "asm": "3044022061a5d4cabbe97f2c57eee4b5ff733ebf13eb121c9ee2fd89c42121d74185b88002202fa197c06c03597fbbf5c7848179ef8797629e3511e4470c3f7da64cbb5ec0cc[ALL] 02668b356e01bc3cf83489996a9b46da0e933b4a8af7d5f1a4a76b0685700eda16"}, "vout": 0, "txid": "8c72c52c04895e8fc67b20911cc5a2e3ff6aabecf3c955ee37c34fd1de221ca4"}], "txid": "1204222a53dceefe219341e5850e4333545d5d154dc574caf948bc8138c08e2a", "blocktime": 1537871767, "version": 1, "confirmations": 11495, "time": 1537871767, "locktime": 0, "vsize": 338, "size": 338}