{"hash": "12063747c38a0ddcaac57fc3042f0b0602602b41b5d11fdab38f42d615eec078", "blockhash": "0000000000000000001f76057863aec43deb6fa401d9628bb513d65a8098bfab", "vout": [{"scriptPubKey": {"reqSigs": 1, "hex": "76a9148d5c95454bac5851366abac075c5f35004b3fdb988ac", "addresses": ["1DtTBqN7CwoF7ATkaFYyfydeBkEwF7FJ63"], "asm": "OP_DUP OP_HASH160 8d5c95454bac5851366abac075c5f35004b3fdb9 OP_EQUALVERIFY OP_CHECKSIG", "type": "pubkeyhash"}, "value": 8.8e-05, "n": 0}, {"scriptPubKey": {"type": "nulldata", "hex": "6a4c50000077d800010e0e7dff8cbfd771d8f827995b23cc0f42c2fc38c5e5bf9ae76da98a211a9b9a00f305af959bb1524a8c64273df45baa15970612b77f0da053e20117e706f8a4c9d02528a348b20ac714", "asm": "OP_RETURN 000077d800010e0e7dff8cbfd771d8f827995b23cc0f42c2fc38c5e5bf9ae76da98a211a9b9a00f305af959bb1524a8c64273df45baa15970612b77f0da053e20117e706f8a4c9d02528a348b20ac714"}, "value": 0.0, "n": 1}], "hex": "0100000001ca70d25a577a14d5b621ffb880ed1fd7b127bb70f98d6bf9872c2e482434672a010000006b483045022100b8a02b4a51fa64fa208d523d33a615a00561597abe9b054bd4ebda234b655f83022008133647756dd4f53790603d756ec5ce59d24d81a7ea10e8865a308b507b8fbc0121029a767114cd4be71d7a99fcea893e40a034bf6642257e7db1362c01ab9e6d7074ffffffff0260220000000000001976a9148d5c95454bac5851366abac075c5f35004b3fdb988ac0000000000000000536a4c50000077d800010e0e7dff8cbfd771d8f827995b23cc0f42c2fc38c5e5bf9ae76da98a211a9b9a00f305af959bb1524a8c64273df45baa15970612b77f0da053e20117e706f8a4c9d02528a348b20ac71400000000", "vin": [{"sequence": 4294967295, "scriptSig": {"hex": "483045022100b8a02b4a51fa64fa208d523d33a615a00561597abe9b054bd4ebda234b655f83022008133647756dd4f53790603d756ec5ce59d24d81a7ea10e8865a308b507b8fbc0121029a767114cd4be71d7a99fcea893e40a034bf6642257e7db1362c01ab9e6d7074", "asm": "3045022100b8a02b4a51fa64fa208d523d33a615a00561597abe9b054bd4ebda234b655f83022008133647756dd4f53790603d756ec5ce59d24d81a7ea10e8865a308b507b8fbc[ALL] 029a767114cd4be71d7a99fcea893e40a034bf6642257e7db1362c01ab9e6d7074"}, "vout": 1, "txid": "2a673424482e2c87f96b8df970bb27b1d71fed80b8ff21b6d5147a575ad270ca"}], "txid": "12063747c38a0ddcaac57fc3042f0b0602602b41b5d11fdab38f42d615eec078", "blocktime": 1537873891, "version": 1, "confirmations": 11477, "time": 1537873891, "locktime": 0, "vsize": 284, "size": 284}