{"hash": "76cd42ca23076a5fc056f7d4f704b9ce3d823a89e7b881e4d63d9813139580be", "blockhash": "0000000000000000000e13cef7c366c0283d82e591d1acd082e914b08063cdf1", "vout": [{"scriptPubKey": {"reqSigs": 1, "hex": "a91467f394e873e19d21da3315d39b08c9cd5d0b76f587", "addresses": ["3BAfKerpbi1XaLLN8KhiyoWSgv7tKNqzAU"], "asm": "OP_HASH160 67f394e873e19d21da3315d39b08c9cd5d0b76f5 OP_EQUAL", "type": "scripthash"}, "value": 0.04606916, "n": 0}, {"scriptPubKey": {"reqSigs": 1, "hex": "a914bcc2f78cc34d5addaa7795c1cd491b75ca6998d487", "addresses": ["3Ju6X9mNUMgDaoWNxMGZw1T2Ux89wgewe7"], "asm": "OP_HASH160 bcc2f78cc34d5addaa7795c1cd491b75ca6998d4 OP_EQUAL", "type": "scripthash"}, "value": 0.00044486, "n": 1}], "hex": "0100000000010158559052f9f86ef55fb182d0aa485b636fb739e41818f98ed6c716fb028aef8800000000171600145124618504a1b4c34e0eebb33cb8c19ce53aedaaffffffff02c44b46000000000017a91467f394e873e19d21da3315d39b08c9cd5d0b76f587c6ad00000000000017a914bcc2f78cc34d5addaa7795c1cd491b75ca6998d48702483045022100c3805709eb5d4465a04a3e76af07143dedadd39ca2d5f31aa4356f9b6140bf15022056626fb92e8aaf5935d11b9016993b363e85cf5f127c9d37c8a4e3f744d92ff2012102d67bc0f9611088b763a743702600550a04ad4f2ac6c6ddac851d761a1726367a00000000", "vin": [{"txinwitness": ["3045022100c3805709eb5d4465a04a3e76af07143dedadd39ca2d5f31aa4356f9b6140bf15022056626fb92e8aaf5935d11b9016993b363e85cf5f127c9d37c8a4e3f744d92ff201", "02d67bc0f9611088b763a743702600550a04ad4f2ac6c6ddac851d761a1726367a"], "sequence": 4294967295, "scriptSig": {"hex": "1600145124618504a1b4c34e0eebb33cb8c19ce53aedaa", "asm": "00145124618504a1b4c34e0eebb33cb8c19ce53aedaa"}, "vout": 0, "txid": "88ef8a02fb16c7d68ef91818e439b76f635b48aad082b15ff56ef8f952905558"}], "txid": "120973bb75f04285291f047ed65782f47eafb09efc77ddf6431b1b77f5f4f866", "blocktime": 1537871767, "version": 1, "confirmations": 11495, "time": 1537871767, "locktime": 0, "vsize": 166, "size": 248}