{"hash": "120e18835855b928ab6d9e5d38c0a7d92fb52330fcf6be89f130d3d75616ea70", "blockhash": "000000000000000000022b45ed06c6f4ccd3cf7fb5ba4856ebd2e58215665228", "vout": [{"scriptPubKey": {"reqSigs": 1, "hex": "76a914576d38e63aa5d31c37760f46e6acc28db1526fff88ac", "addresses": ["18yGdawMZcBFT5ALCmEQSNaEXb5nUcCLED"], "asm": "OP_DUP OP_HASH160 576d38e63aa5d31c37760f46e6acc28db1526fff OP_EQUALVERIFY OP_CHECKSIG", "type": "pubkeyhash"}, "value": 0.00577376, "n": 0}, {"scriptPubKey": {"reqSigs": 1, "hex": "76a91450f2cc0742f6d6ecbed8996db62c6c8f7cac99a688ac", "addresses": ["18P1vBFc3w2RRcKXSDHuugXxEZuY5NhLiq"], "asm": "OP_DUP OP_HASH160 50f2cc0742f6d6ecbed8996db62c6c8f7cac99a6 OP_EQUALVERIFY OP_CHECKSIG", "type": "pubkeyhash"}, "value": 0.00302801, "n": 1}], "hex": "0200000001875372798896b52e17862bef4e8365669122f93e86b621f2f5f889358280d654010000006a47304402204fe5c2aaa587006aecdfd667fddf2f14d9604553573b0d7587315382f187bab2022049afba3027cd7e8aea2ab3516e644d91db71ab3d93dd23f6bf640f5019293fad0121033b060a7e2bb88cb3e69f58c72178d03a873535a3e9a6212f2f7a9ab9172deb75feffffff0260cf0800000000001976a914576d38e63aa5d31c37760f46e6acc28db1526fff88acd19e0400000000001976a91450f2cc0742f6d6ecbed8996db62c6c8f7cac99a688ac0b490800", "vin": [{"sequence": 4294967294, "scriptSig": {"hex": "47304402204fe5c2aaa587006aecdfd667fddf2f14d9604553573b0d7587315382f187bab2022049afba3027cd7e8aea2ab3516e644d91db71ab3d93dd23f6bf640f5019293fad0121033b060a7e2bb88cb3e69f58c72178d03a873535a3e9a6212f2f7a9ab9172deb75", "asm": "304402204fe5c2aaa587006aecdfd667fddf2f14d9604553573b0d7587315382f187bab2022049afba3027cd7e8aea2ab3516e644d91db71ab3d93dd23f6bf640f5019293fad[ALL] 033b060a7e2bb88cb3e69f58c72178d03a873535a3e9a6212f2f7a9ab9172deb75"}, "vout": 1, "txid": "54d680823589f8f5f221b6863ef922916665834eef2b86172eb5968879725387"}], "txid": "120e18835855b928ab6d9e5d38c0a7d92fb52330fcf6be89f130d3d75616ea70", "blocktime": 1537869901, "version": 2, "confirmations": 11523, "time": 1537869901, "locktime": 542987, "vsize": 225, "size": 225}