{"hash": "120fcdc3f359354faa2ef4182411c23d1e9206e2045c8748977ac8c8885b226e", "blockhash": "0000000000000000001f76057863aec43deb6fa401d9628bb513d65a8098bfab", "vout": [{"scriptPubKey": {"reqSigs": 1, "hex": "a914fc69ea24305284dfef95b22aeb31b507ebd6594187", "addresses": ["3Qhf5xicRUpEzpGrRK2jqEAmMFQwGG4eqJ"], "asm": "OP_HASH160 fc69ea24305284dfef95b22aeb31b507ebd65941 OP_EQUAL", "type": "scripthash"}, "value": 0.05879506, "n": 0}, {"scriptPubKey": {"reqSigs": 1, "hex": "76a9140cbd1cff4fe3fb26000abc8a37d7a8ddd486b14188ac", "addresses": ["12AMf86fY3MGmcxcodVV4Z4boy2aXHaYKS"], "asm": "OP_DUP OP_HASH160 0cbd1cff4fe3fb26000abc8a37d7a8ddd486b141 OP_EQUALVERIFY OP_CHECKSIG", "type": "pubkeyhash"}, "value": 0.07127138, "n": 1}], "hex": "01000000014e0d418dd9fd529bf0051c37f925ad76439cedc24f988f069e9e89af525e4817000000006a4730440220610f6d8e4be167643e46c926b89f45d782e71335e8867df3a42d1caa3f470e30022070e7c306c8a8bf5d6eec8170fb48cd09f065c5b3b8f6f7f94e0e1d4f7b26aabc0121039a947b6b63d33567ec15f993f383d5a20392497ff602b62217ea12640f9e3843ffffffff02d2b659000000000017a914fc69ea24305284dfef95b22aeb31b507ebd659418762c06c00000000001976a9140cbd1cff4fe3fb26000abc8a37d7a8ddd486b14188ac00000000", "vin": [{"sequence": 4294967295, "scriptSig": {"hex": "4730440220610f6d8e4be167643e46c926b89f45d782e71335e8867df3a42d1caa3f470e30022070e7c306c8a8bf5d6eec8170fb48cd09f065c5b3b8f6f7f94e0e1d4f7b26aabc0121039a947b6b63d33567ec15f993f383d5a20392497ff602b62217ea12640f9e3843", "asm": "30440220610f6d8e4be167643e46c926b89f45d782e71335e8867df3a42d1caa3f470e30022070e7c306c8a8bf5d6eec8170fb48cd09f065c5b3b8f6f7f94e0e1d4f7b26aabc[ALL] 039a947b6b63d33567ec15f993f383d5a20392497ff602b62217ea12640f9e3843"}, "vout": 0, "txid": "17485e52af899e9e068f984fc2ed9c4376ad25f9371c05f09b52fdd98d410d4e"}], "txid": "120fcdc3f359354faa2ef4182411c23d1e9206e2045c8748977ac8c8885b226e", "blocktime": 1537873891, "version": 1, "confirmations": 11478, "time": 1537873891, "locktime": 0, "vsize": 223, "size": 223}