{"hash": "c496c830f4b3da54fd5f910dc6b616569f97adbc30efb4719e9bb3a939ab73be", "blockhash": "0000000000000000000e13cef7c366c0283d82e591d1acd082e914b08063cdf1", "vout": [{"scriptPubKey": {"reqSigs": 1, "hex": "0014294fe1cef0e13bedc643c087c07f00fdf7a0ad96", "addresses": ["bc1q9987rnhsuya7m3jrczruqlcqlhm6ptvkp8tcv0"], "asm": "0 294fe1cef0e13bedc643c087c07f00fdf7a0ad96", "type": "witness_v0_keyhash"}, "value": 0.05844031, "n": 0}, {"scriptPubKey": {"reqSigs": 1, "hex": "a914ef13aef75d08efd5b01546b743fb4e4a456e2e4387", "addresses": ["3PV912EizET2ygrtK6hTpVwyHHwpY91eKA"], "asm": "OP_HASH160 ef13aef75d08efd5b01546b743fb4e4a456e2e43 OP_EQUAL", "type": "scripthash"}, "value": 0.11000364, "n": 1}], "hex": "0100000000010171dbba8529de4a94ab8067839029770aa76c081a2cf2cbc6f4443eb321c917de0000000000ffffffff023f2c590000000000160014294fe1cef0e13bedc643c087c07f00fdf7a0ad962cdaa7000000000017a914ef13aef75d08efd5b01546b743fb4e4a456e2e438702473044022070997c201579264ca9ca482b3e498bb04de5761a48a45f0acba6e46936a242e302203bb621c702e0eb79c2444c06476fc245e2e60adb0e3fb0b855fb10a14ca708590121022ea771f67575c61af27d80038efff0cc6edb70a4e92bf7909aebf185e7333f3600000000", "vin": [{"txinwitness": ["3044022070997c201579264ca9ca482b3e498bb04de5761a48a45f0acba6e46936a242e302203bb621c702e0eb79c2444c06476fc245e2e60adb0e3fb0b855fb10a14ca7085901", "022ea771f67575c61af27d80038efff0cc6edb70a4e92bf7909aebf185e7333f36"], "sequence": 4294967295, "scriptSig": {"hex": "", "asm": ""}, "vout": 0, "txid": "de17c921b33e44f4c6cbf22c1a086ca70a772990836780ab944ade2985badb71"}], "txid": "12156677439f5af75d1d8b9d97f029c56cb5845c10227fe265239cfe1775fbc1", "blocktime": 1537871767, "version": 1, "confirmations": 11495, "time": 1537871767, "locktime": 0, "vsize": 142, "size": 223}