{"hash": "970695575251941b1fbdba1e067ad1e1e164ddfa6d7c4d40b4ad5b1f4f77a0b3", "blockhash": "00000000000000000017f5eb5941039fbcee6240d03bc1f2f8e35350df66a1d8", "vout": [{"scriptPubKey": {"reqSigs": 1, "hex": "a9145ca6ec6c0e69c42cabcef543913c59783c2e6ac087", "addresses": ["3A8v4Ez3zuDYM2m4yPTasHvvEfhBF2ASYQ"], "asm": "OP_HASH160 5ca6ec6c0e69c42cabcef543913c59783c2e6ac0 OP_EQUAL", "type": "scripthash"}, "value": 0.01171851, "n": 0}, {"scriptPubKey": {"reqSigs": 1, "hex": "76a9144e928238f0aaa705fbd2b09b6d4794816ce8f78b88ac", "addresses": ["18ATDZjge3cqCsocfZx5z6FgQFSqSTToD1"], "asm": "OP_DUP OP_HASH160 4e928238f0aaa705fbd2b09b6d4794816ce8f78b OP_EQUALVERIFY OP_CHECKSIG", "type": "pubkeyhash"}, "value": 0.0048227, "n": 1}, {"scriptPubKey": {"reqSigs": 1, "hex": "a914995113451e4fbe13276a04d9eaa629747e4d5ae587", "addresses": ["3FfgS6uGeP6hn5K6qCgnHm3FDJE9MXn5aU"], "asm": "OP_HASH160 995113451e4fbe13276a04d9eaa629747e4d5ae5 OP_EQUAL", "type": "scripthash"}, "value": 0.0099857, "n": 2}], "hex": "0200000000010543d7c3fffeaeb9a2d45e19cd523764adc889438aaa0b5f9e66e37ff9351962ca0100000017160014220bc96183983da74d050b080ec8793b7a327ab6feffffff984f5dfffb86bc425d189f58e4ae6c1c2fc4b61b3641bac200d0d294cfd22ab30900000017160014742e9aed201e59e012b5691f4f6e934a3759cc47feffffffbd0bfc33ea029adcd021f9f2fedfa9ac3c1c5c1b1086e9eb432c917ee590b2080200000017160014915b0740450a47972d24cfe8837067ea5c414061feffffffc2cf2fc63290bb434359b054c602af98414f93cabfd609f9e0ae6e1a67a26f1c01000000171600141e1a38c6467faeaa472e02f5a7fb6b8221272c34fefffffffa35414a20b62fac7171cdbf3424287706f725e00c1b8347fa63c81c49e89c2b01000000171600144b853c0abaaf774493b5cec720e31466ab0f4ec6feffffff038be111000000000017a9145ca6ec6c0e69c42cabcef543913c59783c2e6ac087de5b0700000000001976a9144e928238f0aaa705fbd2b09b6d4794816ce8f78b88acaa3c0f000000000017a914995113451e4fbe13276a04d9eaa629747e4d5ae58702483045022100d1044c2c6c262641a876261cdbbcad7dd831af520ee8e4c60c08f8b0aff36a9402206af18c4e4b1db4838f823c2e9e902d2d4b200a81b988294890e4a8b6c9d61fe10121023a673526dbc1c15660951a68025795498f9d43ffce1b29c747e5e0f8a0b9693a02473044022009e5ad0fee5722377ac8990bac9bc98cf4594877a94d9d558ef050ca7cd96c6002203bab028dc5b05e8ce941212611d1b114f768e245ebb1ab82b9d33378fb1151910121039a491c8971ca14e0a8750cfed21f12a56be9fafb5015f1fbc94f1505a8dbba79024830450221009d08ee450cc2d20174afe1da992665afaaf3a5e110f3f5172ac70e6de602ff780220522c8bc1959f66b6e6174eaad394c5a4f28397da70522f8ecfa47c3135de8d3d012103048e4385efd8b792108d70f2923906ea55d4a4cbaeda3cb6c7818f223b333c8b02483045022100973c3e5261e9933d395a002e98a8c559357d37ee2d369ec46d64e7e4c5575bd50220090c0551b826599427daac753a374106da60513b2ba3802d70c93ab571d4b1e9012103c437c77bd328f2d881e4367784c295f653465418c1a83c76733db44b894e6fa602483045022100eabd4737fa577179006ae8adf5e9382950f40752b9e1e726221bc1b44d1a92c5022007e1db6fdea75841d62f64d24a4a26f0be4a3e939ad35c56e4c5c8f78a187271012102b135c9607556ad6f4decdeab60442152dd7aebd14f707a8f75769f1dd498211815490800", "vin": [{"txinwitness": ["3045022100d1044c2c6c262641a876261cdbbcad7dd831af520ee8e4c60c08f8b0aff36a9402206af18c4e4b1db4838f823c2e9e902d2d4b200a81b988294890e4a8b6c9d61fe101", "023a673526dbc1c15660951a68025795498f9d43ffce1b29c747e5e0f8a0b9693a"], "sequence": 4294967294, "scriptSig": {"hex": "160014220bc96183983da74d050b080ec8793b7a327ab6", "asm": "0014220bc96183983da74d050b080ec8793b7a327ab6"}, "vout": 1, "txid": "ca621935f97fe3669e5f0baa8a4389c8ad643752cd195ed4a2b9aefeffc3d743"}, {"txinwitness": ["3044022009e5ad0fee5722377ac8990bac9bc98cf4594877a94d9d558ef050ca7cd96c6002203bab028dc5b05e8ce941212611d1b114f768e245ebb1ab82b9d33378fb11519101", "039a491c8971ca14e0a8750cfed21f12a56be9fafb5015f1fbc94f1505a8dbba79"], "sequence": 4294967294, "scriptSig": {"hex": "160014742e9aed201e59e012b5691f4f6e934a3759cc47", "asm": "0014742e9aed201e59e012b5691f4f6e934a3759cc47"}, "vout": 9, "txid": "b32ad2cf94d2d000c2ba41361bb6c42f1c6caee4589f185d42bc86fbff5d4f98"}, {"txinwitness": ["30450221009d08ee450cc2d20174afe1da992665afaaf3a5e110f3f5172ac70e6de602ff780220522c8bc1959f66b6e6174eaad394c5a4f28397da70522f8ecfa47c3135de8d3d01", "03048e4385efd8b792108d70f2923906ea55d4a4cbaeda3cb6c7818f223b333c8b"], "sequence": 4294967294, "scriptSig": {"hex": "160014915b0740450a47972d24cfe8837067ea5c414061", "asm": "0014915b0740450a47972d24cfe8837067ea5c414061"}, "vout": 2, "txid": "08b290e57e912c43ebe986101b5c1c3caca9dffef2f921d0dc9a02ea33fc0bbd"}, {"txinwitness": ["3045022100973c3e5261e9933d395a002e98a8c559357d37ee2d369ec46d64e7e4c5575bd50220090c0551b826599427daac753a374106da60513b2ba3802d70c93ab571d4b1e901", "03c437c77bd328f2d881e4367784c295f653465418c1a83c76733db44b894e6fa6"], "sequence": 4294967294, "scriptSig": {"hex": "1600141e1a38c6467faeaa472e02f5a7fb6b8221272c34", "asm": "00141e1a38c6467faeaa472e02f5a7fb6b8221272c34"}, "vout": 1, "txid": "1c6fa2671a6eaee0f909d6bfca934f4198af02c654b0594343bb9032c62fcfc2"}, {"txinwitness": ["3045022100eabd4737fa577179006ae8adf5e9382950f40752b9e1e726221bc1b44d1a92c5022007e1db6fdea75841d62f64d24a4a26f0be4a3e939ad35c56e4c5c8f78a18727101", "02b135c9607556ad6f4decdeab60442152dd7aebd14f707a8f75769f1dd4982118"], "sequence": 4294967294, "scriptSig": {"hex": "1600144b853c0abaaf774493b5cec720e31466ab0f4ec6", "asm": "00144b853c0abaaf774493b5cec720e31466ab0f4ec6"}, "vout": 1, "txid": "2b9ce8491cc863fa47831b0ce025f70677282434bfcd7171ac2fb6204a4135fa"}], "txid": "1219135b5b59611c562339ad7cd39d0f94095e470cb8714ea038957797f5deac", "blocktime": 1537874412, "version": 2, "confirmations": 11467, "time": 1537874412, "locktime": 542997, "vsize": 564, "size": 969}