{"hash": "1220a32ffa6beba13a7255e56a56f69cc6f217e574ac809ac481fb1888f75c66", "blockhash": "0000000000000000001e0dab787dd257d1dbfcb92a98c2207d5e1078be1f4165", "vout": [{"scriptPubKey": {"reqSigs": 1, "hex": "a9146d89538d0412a5a9b52759a3ef5c19400997044987", "addresses": ["3BgC64FDRQrsKrDL71rothNxWzP8qh7Vwp"], "asm": "OP_HASH160 6d89538d0412a5a9b52759a3ef5c194009970449 OP_EQUAL", "type": "scripthash"}, "value": 0.13580155, "n": 0}], "hex": "0100000001580842a474f98d960eeea3e18b67ebe59b2724e557cb8fd0a65e5ef1ea234d62050000006b483045022100a9ad7152914705b8d5c57a347f2bbc54338a9dd6c2ae4401e9286623b0d356bf022036fc4fc29fb939f5471ed959772d9469d717889ad42ed4a70a3200bc2e8abc82012102591df87a494b349b9be9b9bb2817676ac9ec2d4589ab1efc0e8f4cf634d160c4ffffffff017b37cf000000000017a9146d89538d0412a5a9b52759a3ef5c1940099704498700000000", "vin": [{"sequence": 4294967295, "scriptSig": {"hex": "483045022100a9ad7152914705b8d5c57a347f2bbc54338a9dd6c2ae4401e9286623b0d356bf022036fc4fc29fb939f5471ed959772d9469d717889ad42ed4a70a3200bc2e8abc82012102591df87a494b349b9be9b9bb2817676ac9ec2d4589ab1efc0e8f4cf634d160c4", "asm": "3045022100a9ad7152914705b8d5c57a347f2bbc54338a9dd6c2ae4401e9286623b0d356bf022036fc4fc29fb939f5471ed959772d9469d717889ad42ed4a70a3200bc2e8abc82[ALL] 02591df87a494b349b9be9b9bb2817676ac9ec2d4589ab1efc0e8f4cf634d160c4"}, "vout": 5, "txid": "624d23eaf15e5ea6d08fcb57e524279be5eb678be1a3ee0e968df974a4420858"}], "txid": "1220a32ffa6beba13a7255e56a56f69cc6f217e574ac809ac481fb1888f75c66", "blocktime": 1537872475, "version": 1, "confirmations": 11486, "time": 1537872475, "locktime": 0, "vsize": 190, "size": 190}