{"hash": "1220d7196621dcc3330c1c6be8bb5cd2807102d86cbb21c0e84984356552f8d1", "blockhash": "0000000000000000000baef3f32e3676a92c3b2e5da21b426e4f302fc371ce76", "vout": [{"scriptPubKey": {"reqSigs": 1, "hex": "76a914d2486d51cc989a7cc163b0b7c97483d66920788b88ac", "addresses": ["1LAsfbxCBLrcA4Yqr9BJr6Te6RLcbDFHPM"], "asm": "OP_DUP OP_HASH160 d2486d51cc989a7cc163b0b7c97483d66920788b OP_EQUALVERIFY OP_CHECKSIG", "type": "pubkeyhash"}, "value": 0.00321468, "n": 0}], "hex": "0100000002ddd9854e4a90a6e61e0da7c2a240598d8aa6884c9b5a1c89c9b9250e44bddacd010000006b483045022100a01be41c6253298bfa97724eda22442019cda33d96e78503222af891dd588dc1022034f243709e743a0d53be703bf698677526b15fa57dbd924231766fa1cc48abbb012103f87212098471dc4e8e69d17365b381fbaa9339c5536583b2b53c2c3bc771da99ffffffffef33eb01f89c43e7c9dcb29d2e8989641ee692e5371e857cb7301ea5b4b08a41010000006a473044022042555a550ad7475bab03ec67f4cfa7edd642ffb5d707e18d01afa4dae77d568602201e8b3f55908f1a9158f9e69a93d5faf58a52fba06fbedb523c30eb292053796801210381d69996a71897545b00e7f607a57ea5319b3fa2858c538f9acef1de055ad496ffffffff01bce70400000000001976a914d2486d51cc989a7cc163b0b7c97483d66920788b88ac00000000", "vin": [{"sequence": 4294967295, "scriptSig": {"hex": "483045022100a01be41c6253298bfa97724eda22442019cda33d96e78503222af891dd588dc1022034f243709e743a0d53be703bf698677526b15fa57dbd924231766fa1cc48abbb012103f87212098471dc4e8e69d17365b381fbaa9339c5536583b2b53c2c3bc771da99", "asm": "3045022100a01be41c6253298bfa97724eda22442019cda33d96e78503222af891dd588dc1022034f243709e743a0d53be703bf698677526b15fa57dbd924231766fa1cc48abbb[ALL] 03f87212098471dc4e8e69d17365b381fbaa9339c5536583b2b53c2c3bc771da99"}, "vout": 1, "txid": "cddabd440e25b9c9891c5a9b4c88a68a8d5940a2c2a70d1ee6a6904a4e85d9dd"}, {"sequence": 4294967295, "scriptSig": {"hex": "473044022042555a550ad7475bab03ec67f4cfa7edd642ffb5d707e18d01afa4dae77d568602201e8b3f55908f1a9158f9e69a93d5faf58a52fba06fbedb523c30eb292053796801210381d69996a71897545b00e7f607a57ea5319b3fa2858c538f9acef1de055ad496", "asm": "3044022042555a550ad7475bab03ec67f4cfa7edd642ffb5d707e18d01afa4dae77d568602201e8b3f55908f1a9158f9e69a93d5faf58a52fba06fbedb523c30eb2920537968[ALL] 0381d69996a71897545b00e7f607a57ea5319b3fa2858c538f9acef1de055ad496"}, "vout": 1, "txid": "418ab0b4a51e30b77c851e37e592e61e6489892e9db2dcc9e7439cf801eb33ef"}], "txid": "1220d7196621dcc3330c1c6be8bb5cd2807102d86cbb21c0e84984356552f8d1", "blocktime": 1537876114, "version": 1, "confirmations": 11459, "time": 1537876114, "locktime": 0, "vsize": 339, "size": 339}