{"hash": "4a6f3798a8be1443cde8ecdc9a2b547b2eee6654efdd2a3216f59a0d79e7137c", "blockhash": "0000000000000000000dcc0f55137456b1a82d3642486a52398922ac4d620174", "vout": [{"scriptPubKey": {"reqSigs": 1, "hex": "a9149302666116b8d36f92632eaab8d0564437a4682a87", "addresses": ["3F6L8VVjmh2R6qnpEjQy6CKcPS6hsVHM3d"], "asm": "OP_HASH160 9302666116b8d36f92632eaab8d0564437a4682a OP_EQUAL", "type": "scripthash"}, "value": 0.0099977, "n": 0}, {"scriptPubKey": {"reqSigs": 1, "hex": "a91486d0b25972bf68fe0565d8654bdc8d9a3e0d796487", "addresses": ["3DyrUkMpV5e5voD99Ljx1gRpv2XPVmELjj"], "asm": "OP_HASH160 86d0b25972bf68fe0565d8654bdc8d9a3e0d7964 OP_EQUAL", "type": "scripthash"}, "value": 0.0054276, "n": 1}], "hex": "0200000000010294e6d3d8e08045b4b5e01d62691c895d42887192f0db40dcc934268e372f5b9e0000000017160014aef11d5edfc5ae8ce96f130fe323eb421a585826feffffffbdfc43c3df4768c9270b5c361757962cf09425b01dc7aa0914fe84319025a7380200000017160014fc428f2c8d851b3168b5ededa965c93a46b4c632feffffff025a410f000000000017a9149302666116b8d36f92632eaab8d0564437a4682a87284808000000000017a91486d0b25972bf68fe0565d8654bdc8d9a3e0d7964870247304402206959571d9270114abc8e50bdab0aa7f250e023be5a8b706cdad5241d24fee015022037e693141321455c379cd747add132a70ddacabbc0bb96bb5fc5e036761965c90121020964e7f604028d341efec3bfd5703c6df774ab5068464f0a69971f8e0d89941a024830450221008d304b14e80b360ca94caded81367a3ae2481ec889da269a704088577e074f8b02202eada370fac87a4955d2ca051dbf2e99796f55f80a12cfbe1f5db73d54db9699012103f01c59f32d63b106fb0e8ef2353b7c8394b436b1374349666e61832eee26d3690b490800", "vin": [{"txinwitness": ["304402206959571d9270114abc8e50bdab0aa7f250e023be5a8b706cdad5241d24fee015022037e693141321455c379cd747add132a70ddacabbc0bb96bb5fc5e036761965c901", "020964e7f604028d341efec3bfd5703c6df774ab5068464f0a69971f8e0d89941a"], "sequence": 4294967294, "scriptSig": {"hex": "160014aef11d5edfc5ae8ce96f130fe323eb421a585826", "asm": "0014aef11d5edfc5ae8ce96f130fe323eb421a585826"}, "vout": 0, "txid": "9e5b2f378e2634c9dc40dbf0927188425d891c69621de0b5b44580e0d8d3e694"}, {"txinwitness": ["30450221008d304b14e80b360ca94caded81367a3ae2481ec889da269a704088577e074f8b02202eada370fac87a4955d2ca051dbf2e99796f55f80a12cfbe1f5db73d54db969901", "03f01c59f32d63b106fb0e8ef2353b7c8394b436b1374349666e61832eee26d369"], "sequence": 4294967294, "scriptSig": {"hex": "160014fc428f2c8d851b3168b5ededa965c93a46b4c632", "asm": "0014fc428f2c8d851b3168b5ededa965c93a46b4c632"}, "vout": 2, "txid": "38a725903184fe1409aac71db02594f02c965717365c0b27c96847dfc343fcbd"}], "txid": "12218d2268b9bd85d6c1f5d99da028fa3bfeebfb6cb24ab515265f3046515ffd", "blocktime": 1537870268, "version": 2, "confirmations": 11520, "time": 1537870268, "locktime": 542987, "vsize": 257, "size": 419}