{"hash": "936eed1de7630ecc5af2c893bc2e6d4beac15ccd363667b9e49caca7ea53ef68", "blockhash": "0000000000000000001cda96e906b7601b7a6fb1a3b62bca570a9e5d8f4b3de1", "vout": [{"scriptPubKey": {"reqSigs": 1, "hex": "a9141dd7ab9073d2bc7e59caec4c8e9ed4a33054e8bb87", "addresses": ["34Qot8gBuWbxUt2Cpqi9HTEAND5CWfRhTQ"], "asm": "OP_HASH160 1dd7ab9073d2bc7e59caec4c8e9ed4a33054e8bb OP_EQUAL", "type": "scripthash"}, "value": 0.00972056, "n": 0}], "hex": "010000000001021a45294190dd576e8548f86257d1b03eb225dfd7a8dfabf50d5c0ded6a36446800000000232200209c097660baae7d0184c7f78d428a787a5fcabcd492bbaca1519f8508185685b3ffffffffeef159a95a70c32493aa16a048895336815e151967f9f6173f5e5b4ed1cb239e00000000232200201b50fb75cd160e7e6450a7452fc76301ac7ed5f621614a2a695924e4887f0b3dffffffff0118d50e000000000017a9141dd7ab9073d2bc7e59caec4c8e9ed4a33054e8bb870400473044022054a2c894a8454ad5c172a57545800a00d03ca923268cca7f5bb74c564381327b02201e63eecb369aba31ded654138868afff4aefa514f4bfd6c1002b79b192103b360147304402204792c2547b718e6bf165890f18d2873d5fb9a26786490a940d545d1db532d5ed02206eac3d0195aa63c19d4a8e35fd6dc779d6d0950603928884c070da7d8444ae22016952210252c3f620c39fc3dc34e2dca3fa11269537bbd6ce8bfe1955ce6c747a0cef058c2102dba802352f567aa21658041f257de42d67ebe51cafc330bc3235faa240800fdd2103e13fe23650dc5619962e19176cadae38086d5502bcf2424d30ab3471ff7d9fb653ae04004830450221008a1666be4a0f333fbe537786e9def49d961073967df27a4367d95324e6136a28022043a6e5a3fee8745e50be9957c1d660e40f9fc35ff54a751af59e3a2a96c64d3301483045022100aae996e380f9a2cc68dc8c76bc66d56da595dab72faf1f624b55d605d9b04fdb02204293a459a3c887bd32fe368bbcb4b44be9b3de1652763ec94feb4ff45e1a44380169522103f990d8400e786d0da4f2fb9e84ba9b288b3d086d3fa366ca69953324d5801725210215a020c692ced11a8cca06629521522c694ffe5651ca69f56df5a3b5499c6f9121022d14fb1940ad0876a6f46a30d2140f380eb4c124ef86c1beb0515c56fcf767b953ae14490800", "vin": [{"txinwitness": ["", "3044022054a2c894a8454ad5c172a57545800a00d03ca923268cca7f5bb74c564381327b02201e63eecb369aba31ded654138868afff4aefa514f4bfd6c1002b79b192103b3601", "304402204792c2547b718e6bf165890f18d2873d5fb9a26786490a940d545d1db532d5ed02206eac3d0195aa63c19d4a8e35fd6dc779d6d0950603928884c070da7d8444ae2201", "52210252c3f620c39fc3dc34e2dca3fa11269537bbd6ce8bfe1955ce6c747a0cef058c2102dba802352f567aa21658041f257de42d67ebe51cafc330bc3235faa240800fdd2103e13fe23650dc5619962e19176cadae38086d5502bcf2424d30ab3471ff7d9fb653ae"], "sequence": 4294967295, "scriptSig": {"hex": "2200209c097660baae7d0184c7f78d428a787a5fcabcd492bbaca1519f8508185685b3", "asm": "00209c097660baae7d0184c7f78d428a787a5fcabcd492bbaca1519f8508185685b3"}, "vout": 0, "txid": "6844366aed0d5c0df5abdfa8d7df25b23eb0d15762f848856e57dd904129451a"}, {"txinwitness": ["", "30450221008a1666be4a0f333fbe537786e9def49d961073967df27a4367d95324e6136a28022043a6e5a3fee8745e50be9957c1d660e40f9fc35ff54a751af59e3a2a96c64d3301", "3045022100aae996e380f9a2cc68dc8c76bc66d56da595dab72faf1f624b55d605d9b04fdb02204293a459a3c887bd32fe368bbcb4b44be9b3de1652763ec94feb4ff45e1a443801", "522103f990d8400e786d0da4f2fb9e84ba9b288b3d086d3fa366ca69953324d5801725210215a020c692ced11a8cca06629521522c694ffe5651ca69f56df5a3b5499c6f9121022d14fb1940ad0876a6f46a30d2140f380eb4c124ef86c1beb0515c56fcf767b953ae"], "sequence": 4294967295, "scriptSig": {"hex": "2200201b50fb75cd160e7e6450a7452fc76301ac7ed5f621614a2a695924e4887f0b3d", "asm": "00201b50fb75cd160e7e6450a7452fc76301ac7ed5f621614a2a695924e4887f0b3d"}, "vout": 0, "txid": "9e23cbd14e5b5e3f17f6f96719155e8136538948a016aa9324c3705aa959f1ee"}], "txid": "1221d1e9c400355a7f11fa3f5cbad061c082f1cc1b6aca585755afc8936ad3bc", "blocktime": 1537873282, "version": 1, "confirmations": 11484, "time": 1537873282, "locktime": 542996, "vsize": 321, "size": 702}