{"hash": "e759615dc2f56a060eebb7462e411287e0c64e95ce22e1627e9330b539237111", "blockhash": "0000000000000000000baef3f32e3676a92c3b2e5da21b426e4f302fc371ce76", "vout": [{"scriptPubKey": {"reqSigs": 1, "hex": "76a91455c49d36e5799783041119273555a0867e6781fe88ac", "addresses": ["18pVyJ4DgL615PPj3tWswBWXZUnpwqNG2e"], "asm": "OP_DUP OP_HASH160 55c49d36e5799783041119273555a0867e6781fe OP_EQUALVERIFY OP_CHECKSIG", "type": "pubkeyhash"}, "value": 25.0, "n": 0}, {"scriptPubKey": {"reqSigs": 1, "hex": "a914adc109c196ec9f4d7ba74b53fd960c07b3fee51187", "addresses": ["3HXk5FermbmDyNhNiZ4moTB1ssgH95YjWs"], "asm": "OP_HASH160 adc109c196ec9f4d7ba74b53fd960c07b3fee511 OP_EQUAL", "type": "scripthash"}, "value": 0.73209913, "n": 1}], "hex": "010000000001022ec94b689b1b731f6fc450e2ada9d9213f5bf1e53defc45753c960ff9a7cdfde0100000017160014304ebb4e575cf5c43c368fde0b6f1133bf981841ffffffff21badcc92e9341b2637be5399ddb0f27401dd4f8e503e0948de35752913a8aba0000000017160014d50e11bb1ef6c48b1081bcd4ffdd4ffddd82bea5ffffffff0200f90295000000001976a91455c49d36e5799783041119273555a0867e6781fe88ac39185d040000000017a914adc109c196ec9f4d7ba74b53fd960c07b3fee5118702483045022100a9a202e6220d638931472e13a6237efc11b93d489b77de1574942cd5f827f4650220337a3edb91b4f03a2bf8c08922989f894544b119c7de7cb775569e9e6cc98543012103fbea0ee86164fdf5d184adcf5befc1247fc6ec67b565b35d15365012a2a2207802473044022000ac0c798429620e6b09e722a21f00a6789fb04c6fbb63219bcd0430e505576802200543147cb1a7bc7326f8100458cf8f18c0f3f417f0a19d5a4e39dc9c37b9ddf2012102c4b4c08c8203bb3fc415d67233ed97adf1706272da4512207226c36adc42354500000000", "vin": [{"txinwitness": ["3045022100a9a202e6220d638931472e13a6237efc11b93d489b77de1574942cd5f827f4650220337a3edb91b4f03a2bf8c08922989f894544b119c7de7cb775569e9e6cc9854301", "03fbea0ee86164fdf5d184adcf5befc1247fc6ec67b565b35d15365012a2a22078"], "sequence": 4294967295, "scriptSig": {"hex": "160014304ebb4e575cf5c43c368fde0b6f1133bf981841", "asm": "0014304ebb4e575cf5c43c368fde0b6f1133bf981841"}, "vout": 1, "txid": "dedf7c9aff60c95357c4ef3de5f15b3f21d9a9ade250c46f1f731b9b684bc92e"}, {"txinwitness": ["3044022000ac0c798429620e6b09e722a21f00a6789fb04c6fbb63219bcd0430e505576802200543147cb1a7bc7326f8100458cf8f18c0f3f417f0a19d5a4e39dc9c37b9ddf201", "02c4b4c08c8203bb3fc415d67233ed97adf1706272da4512207226c36adc423545"], "sequence": 4294967295, "scriptSig": {"hex": "160014d50e11bb1ef6c48b1081bcd4ffdd4ffddd82bea5", "asm": "0014d50e11bb1ef6c48b1081bcd4ffdd4ffddd82bea5"}, "vout": 0, "txid": "ba8a3a915257e38d94e003e5f8d41d40270fdb9d39e57b63b241932ec9dcba21"}], "txid": "122b11a40e666a2bc09d1ea37e83edfb42b29ba7a4effd93c4308b6a1057e36b", "blocktime": 1537876114, "version": 1, "confirmations": 11459, "time": 1537876114, "locktime": 0, "vsize": 259, "size": 421}