{"hash": "122b1ad28c1c03445f0f5f8dcef84ce715a9bc2ed7a71cf6a8288a974868f3e8", "blockhash": "0000000000000000001cda96e906b7601b7a6fb1a3b62bca570a9e5d8f4b3de1", "vout": [{"scriptPubKey": {"reqSigs": 1, "hex": "76a914eacb51dc7979abd92dcdcffbfc6488bc6d1828e188ac", "addresses": ["1NQUgo2mTGqtNwarLCkdfPc2KVz5JqWnv2"], "asm": "OP_DUP OP_HASH160 eacb51dc7979abd92dcdcffbfc6488bc6d1828e1 OP_EQUALVERIFY OP_CHECKSIG", "type": "pubkeyhash"}, "value": 0.00898426, "n": 0}, {"scriptPubKey": {"type": "nulldata", "hex": "6a146f6d6e69000000000000001f0000000d7dc486c0", "asm": "OP_RETURN 6f6d6e69000000000000001f0000000d7dc486c0"}, "value": 0.0, "n": 1}, {"scriptPubKey": {"reqSigs": 1, "hex": "76a914f78607522d0dd64fed2e356da114b378316ae45588ac", "addresses": ["1PZnTrSGFR4XBx1frxYFAaXG5AjKChrmMG"], "asm": "OP_DUP OP_HASH160 f78607522d0dd64fed2e356da114b378316ae455 OP_EQUALVERIFY OP_CHECKSIG", "type": "pubkeyhash"}, "value": 5.46e-06, "n": 2}], "hex": "01000000027d6516a15cfee0aa20e35bc559cdd6a02f4a48a24a90dae79557c8dc52877441020000006b4830450221009c77ba1515e88c3535d17ceca6e1df2032369fdc72671d026f4dc5ace277e668022041c4b4aefe7f52dfbc592456d549769d32d76e0cd9ac27017294efd0c09686190121039fa7fe5bbfe2545cbdd08462c2a9684a4204b47ce8bc73770f899da6e418e6ffffffffff7ef4966d049efd083448695c0aad818eb972e77e1987536501e780f49770bd55000000006b483045022100ac313fd2555adb1197a0d23143581f9dee646833fd7e50ab6029bcd3e26185c5022043f74397c37a57c4838fdc4b1d5e2f968fc042918b240e58ab6a9fa43db8841701210210067407be480c0bcb6d3227576f9a86da0dd16177247e8418d0bca743b283deffffffff037ab50d00000000001976a914eacb51dc7979abd92dcdcffbfc6488bc6d1828e188ac0000000000000000166a146f6d6e69000000000000001f0000000d7dc486c022020000000000001976a914f78607522d0dd64fed2e356da114b378316ae45588ac00000000", "vin": [{"sequence": 4294967295, "scriptSig": {"hex": "4830450221009c77ba1515e88c3535d17ceca6e1df2032369fdc72671d026f4dc5ace277e668022041c4b4aefe7f52dfbc592456d549769d32d76e0cd9ac27017294efd0c09686190121039fa7fe5bbfe2545cbdd08462c2a9684a4204b47ce8bc73770f899da6e418e6ff", "asm": "30450221009c77ba1515e88c3535d17ceca6e1df2032369fdc72671d026f4dc5ace277e668022041c4b4aefe7f52dfbc592456d549769d32d76e0cd9ac27017294efd0c0968619[ALL] 039fa7fe5bbfe2545cbdd08462c2a9684a4204b47ce8bc73770f899da6e418e6ff"}, "vout": 2, "txid": "41748752dcc85795e7da904aa2484a2fa0d6cd59c55be320aae0fe5ca116657d"}, {"sequence": 4294967295, "scriptSig": {"hex": "483045022100ac313fd2555adb1197a0d23143581f9dee646833fd7e50ab6029bcd3e26185c5022043f74397c37a57c4838fdc4b1d5e2f968fc042918b240e58ab6a9fa43db8841701210210067407be480c0bcb6d3227576f9a86da0dd16177247e8418d0bca743b283de", "asm": "3045022100ac313fd2555adb1197a0d23143581f9dee646833fd7e50ab6029bcd3e26185c5022043f74397c37a57c4838fdc4b1d5e2f968fc042918b240e58ab6a9fa43db88417[ALL] 0210067407be480c0bcb6d3227576f9a86da0dd16177247e8418d0bca743b283de"}, "vout": 0, "txid": "55bd7097f480e701655387197ee772b98e81ad0a5c69483408fd9e046d96f47e"}], "txid": "122b1ad28c1c03445f0f5f8dcef84ce715a9bc2ed7a71cf6a8288a974868f3e8", "blocktime": 1537873282, "version": 1, "confirmations": 11480, "time": 1537873282, "locktime": 0, "vsize": 405, "size": 405}