{"hash": "32e7b0b2143e922b777651a7a76695aed5b3486be93598dfb750bd16af3b79b8", "blockhash": "0000000000000000000dcc0f55137456b1a82d3642486a52398922ac4d620174", "vout": [{"scriptPubKey": {"reqSigs": 1, "hex": "a914ce7e977893f6f060b38085104c0d9238c1668c6d87", "addresses": ["3LWrmoewVS86Ja8fbNbw1xRVpyw4FxHWLL"], "asm": "OP_HASH160 ce7e977893f6f060b38085104c0d9238c1668c6d OP_EQUAL", "type": "scripthash"}, "value": 0.00998742, "n": 0}, {"scriptPubKey": {"reqSigs": 1, "hex": "a914a716244d75bb81b6d6fb3f9e940f20a5d0b292b687", "addresses": ["3GvVJ24gFdfu2t6vmTz9ZDFWEj1W2rJUUt"], "asm": "OP_HASH160 a716244d75bb81b6d6fb3f9e940f20a5d0b292b6 OP_EQUAL", "type": "scripthash"}, "value": 0.0106118, "n": 1}], "hex": "0200000000010110b807b3105b892d9714b81ba19a239238a4fb13110c55aade31c9291751cbfc2e0000001716001416674ee1703b0870c410fa2764b0b678081cceb2feffffff02563d0f000000000017a914ce7e977893f6f060b38085104c0d9238c1668c6d873c3110000000000017a914a716244d75bb81b6d6fb3f9e940f20a5d0b292b68702483045022100c8aa874eb6a7001a8c85a1a739dccd12bdee74983e7b6591edda4b1ddc61ebbf022062bd9eb561efaf4ce66a3a53b6b02075f6ff47eee6353ce2f1f151760742f68b012102029e23812f892cb996b3dc68336d650c57492e75212842d9be510d75408f98da0c490800", "vin": [{"txinwitness": ["3045022100c8aa874eb6a7001a8c85a1a739dccd12bdee74983e7b6591edda4b1ddc61ebbf022062bd9eb561efaf4ce66a3a53b6b02075f6ff47eee6353ce2f1f151760742f68b01", "02029e23812f892cb996b3dc68336d650c57492e75212842d9be510d75408f98da"], "sequence": 4294967294, "scriptSig": {"hex": "16001416674ee1703b0870c410fa2764b0b678081cceb2", "asm": "001416674ee1703b0870c410fa2764b0b678081cceb2"}, "vout": 46, "txid": "fccb511729c931deaa550c1113fba43892239aa11bb814972d895b10b307b810"}], "txid": "122da39e5bc0a3b9f5b10146fc09b3ae1d757d98ef3496cb34ce7ae91dc42c56", "blocktime": 1537870268, "version": 2, "confirmations": 11516, "time": 1537870268, "locktime": 542988, "vsize": 166, "size": 248}