{"hash": "dc9ee5a9369ce1b0541d01ec1f4cdd5f7c01e50445aab1d6fbfe1b2eae4bbb9a", "blockhash": "00000000000000000017f5eb5941039fbcee6240d03bc1f2f8e35350df66a1d8", "vout": [{"scriptPubKey": {"reqSigs": 1, "hex": "a914881a3f509fc5304bdc4b4d527d628f936a3a404087", "addresses": ["3E6fGL27GfhSLjuywAikGpoMzScCQwSzi8"], "asm": "OP_HASH160 881a3f509fc5304bdc4b4d527d628f936a3a4040 OP_EQUAL", "type": "scripthash"}, "value": 0.01, "n": 0}, {"scriptPubKey": {"reqSigs": 1, "hex": "a914554985190e207b9326858f871ad32454493ca9dd87", "addresses": ["39TyS6u2BpuaxbUbREfiLzkXKCqxCbN9AA"], "asm": "OP_HASH160 554985190e207b9326858f871ad32454493ca9dd OP_EQUAL", "type": "scripthash"}, "value": 5.46130597, "n": 1}], "hex": "02000000000101fa4fe0674b8706b13a35923a8e1a73e34c447cf234be9c90971e113009216d98010000001716001423d86e0b2884ef2294c8e2651a396fdf3e31368cfeffffff0240420f000000000017a914881a3f509fc5304bdc4b4d527d628f936a3a404087a54a8d200000000017a914554985190e207b9326858f871ad32454493ca9dd8702473044022024a9d145fb6c16919a995e7bca805dd1d061a1ff10274410475059d773f5146c022043f6841528a817fd0027f4cd47bc2c772f3c6c395a064fe61ac19080cdbedfd6012102d6268fbdd0931be957d2d157e3e642021c62b85f6b85610c8d705df1d622a60815490800", "vin": [{"txinwitness": ["3044022024a9d145fb6c16919a995e7bca805dd1d061a1ff10274410475059d773f5146c022043f6841528a817fd0027f4cd47bc2c772f3c6c395a064fe61ac19080cdbedfd601", "02d6268fbdd0931be957d2d157e3e642021c62b85f6b85610c8d705df1d622a608"], "sequence": 4294967294, "scriptSig": {"hex": "16001423d86e0b2884ef2294c8e2651a396fdf3e31368c", "asm": "001423d86e0b2884ef2294c8e2651a396fdf3e31368c"}, "vout": 1, "txid": "986d210930111e97909cbe34f27c444ce3731a8e3a92353ab106874b67e04ffa"}], "txid": "122e25f3cf82f293313ba16128fe23c4ac741be079cb7b7332f551930f8fddea", "blocktime": 1537874412, "version": 2, "confirmations": 11468, "time": 1537874412, "locktime": 542997, "vsize": 166, "size": 247}