{"hash": "122eb23ecef4f863af8ba50c7eccf373231838c3aad4cbf6414bad7c2b286e35", "blockhash": "00000000000000000004ffacab907a6b429b9a5745fa0b75af4234bf69dd7176", "vout": [{"scriptPubKey": {"reqSigs": 1, "hex": "76a91432aab7c802d7c05e8d314b1b3421e34392621ff588ac", "addresses": ["15cuJHB6KYQpAPUdJDEnvDimbSTw9i3DUa"], "asm": "OP_DUP OP_HASH160 32aab7c802d7c05e8d314b1b3421e34392621ff5 OP_EQUALVERIFY OP_CHECKSIG", "type": "pubkeyhash"}, "value": 1.2, "n": 0}, {"scriptPubKey": {"reqSigs": 1, "hex": "76a9148dfa4b481f5b5f98d1c04d6ac1377ffbd92dfe6d88ac", "addresses": ["1Dwi7nXQahCTzsmBY3wvJFknPFWQMkCywT"], "asm": "OP_DUP OP_HASH160 8dfa4b481f5b5f98d1c04d6ac1377ffbd92dfe6d OP_EQUALVERIFY OP_CHECKSIG", "type": "pubkeyhash"}, "value": 0.09372, "n": 1}], "hex": "0100000002f7f12ae84c060f4d532c173d776ca70f2ac9e6eb4b803b1912879ed0eee87853010000006b483045022100d00116b0a3486cb68aa46cee68189d3691b42a9b6a4f8422c85447d458e351750220347c69f53b5f457524f55355cace6d7a3fc0eee6e98c4c70ae54359f3fcea58e01210202d48262b00fc804e20b2ae6722eacc143208ae4642aa44254cf77cc1a6af94effffffffeb42f983df78eabdc896cd6a6349e76a31a1c9e0129b4c756304770efba8bdc2000000006a4730440220205c048d944af0d7a2e8a5bc2d4c7b9a1c3b23127011dd007c9771b859b1333c022053974d4d80f5a57c80ce1f67728cfdab6e48c359761e64e89d1e297f2b51642f012103c53c275b436c6fcaaf9b07c155a3264f7253ecc8c4e5a73aa5d6083912be000affffffff02000e2707000000001976a91432aab7c802d7c05e8d314b1b3421e34392621ff588ac60018f00000000001976a9148dfa4b481f5b5f98d1c04d6ac1377ffbd92dfe6d88ac00000000", "vin": [{"sequence": 4294967295, "scriptSig": {"hex": "483045022100d00116b0a3486cb68aa46cee68189d3691b42a9b6a4f8422c85447d458e351750220347c69f53b5f457524f55355cace6d7a3fc0eee6e98c4c70ae54359f3fcea58e01210202d48262b00fc804e20b2ae6722eacc143208ae4642aa44254cf77cc1a6af94e", "asm": "3045022100d00116b0a3486cb68aa46cee68189d3691b42a9b6a4f8422c85447d458e351750220347c69f53b5f457524f55355cace6d7a3fc0eee6e98c4c70ae54359f3fcea58e[ALL] 0202d48262b00fc804e20b2ae6722eacc143208ae4642aa44254cf77cc1a6af94e"}, "vout": 1, "txid": "5378e8eed09e8712193b804bebe6c92a0fa76c773d172c534d0f064ce82af1f7"}, {"sequence": 4294967295, "scriptSig": {"hex": "4730440220205c048d944af0d7a2e8a5bc2d4c7b9a1c3b23127011dd007c9771b859b1333c022053974d4d80f5a57c80ce1f67728cfdab6e48c359761e64e89d1e297f2b51642f012103c53c275b436c6fcaaf9b07c155a3264f7253ecc8c4e5a73aa5d6083912be000a", "asm": "30440220205c048d944af0d7a2e8a5bc2d4c7b9a1c3b23127011dd007c9771b859b1333c022053974d4d80f5a57c80ce1f67728cfdab6e48c359761e64e89d1e297f2b51642f[ALL] 03c53c275b436c6fcaaf9b07c155a3264f7253ecc8c4e5a73aa5d6083912be000a"}, "vout": 0, "txid": "c2bda8fb0e770463754c9b12e0c9a1316ae749636acd96c8bdea78df83f942eb"}], "txid": "122eb23ecef4f863af8ba50c7eccf373231838c3aad4cbf6414bad7c2b286e35", "blocktime": 1537875543, "version": 1, "confirmations": 11464, "time": 1537875543, "locktime": 0, "vsize": 373, "size": 373}