{"hash": "1231f27d9043689752ad948473bb4217474f027b264bb2c77602f87c6929f1cb", "blockhash": "00000000000000000004ffacab907a6b429b9a5745fa0b75af4234bf69dd7176", "vout": [{"scriptPubKey": {"reqSigs": 1, "hex": "76a91455ee2774904ab52a503e2abd24e85561f73f44f088ac", "addresses": ["18qMjYZMYHs6FiuGNp229f9N7ujHvDUqpZ"], "asm": "OP_DUP OP_HASH160 55ee2774904ab52a503e2abd24e85561f73f44f0 OP_EQUALVERIFY OP_CHECKSIG", "type": "pubkeyhash"}, "value": 0.001, "n": 0}, {"scriptPubKey": {"reqSigs": 1, "hex": "76a914e980406100f1b02d9023620d15858ca5a5fb144c88ac", "addresses": ["1NHe5mQK8w5uu6QxqnWsd6M8fPLPiYGWzA"], "asm": "OP_DUP OP_HASH160 e980406100f1b02d9023620d15858ca5a5fb144c OP_EQUALVERIFY OP_CHECKSIG", "type": "pubkeyhash"}, "value": 0.07357086, "n": 1}], "hex": "0100000001fed4a2d3338285e60d381ba1b2eb2648b89cbdce65b16ebc5f872ab2a15d4983010000006a47304402207fdb8ad72a853ad8e1bf5db17e84fe3c43cbcc7f76a1f152a42ad704d5c050c4022037d6e892a99323357c337ae458d20387bef0effcf80f1eff1f3a29da5385eb92012103ad603f5d3610dce0c476cc5ff31b70d340cb842f4285d362fdb63d990e4c8e16ffffffff02a0860100000000001976a91455ee2774904ab52a503e2abd24e85561f73f44f088ac9e427000000000001976a914e980406100f1b02d9023620d15858ca5a5fb144c88ac00000000", "vin": [{"sequence": 4294967295, "scriptSig": {"hex": "47304402207fdb8ad72a853ad8e1bf5db17e84fe3c43cbcc7f76a1f152a42ad704d5c050c4022037d6e892a99323357c337ae458d20387bef0effcf80f1eff1f3a29da5385eb92012103ad603f5d3610dce0c476cc5ff31b70d340cb842f4285d362fdb63d990e4c8e16", "asm": "304402207fdb8ad72a853ad8e1bf5db17e84fe3c43cbcc7f76a1f152a42ad704d5c050c4022037d6e892a99323357c337ae458d20387bef0effcf80f1eff1f3a29da5385eb92[ALL] 03ad603f5d3610dce0c476cc5ff31b70d340cb842f4285d362fdb63d990e4c8e16"}, "vout": 1, "txid": "83495da1b22a875fbc6eb165cebd9cb84826ebb2a11b380de6858233d3a2d4fe"}], "txid": "1231f27d9043689752ad948473bb4217474f027b264bb2c77602f87c6929f1cb", "blocktime": 1537875543, "version": 1, "confirmations": 11464, "time": 1537875543, "locktime": 0, "vsize": 225, "size": 225}