{"hash": "af4ad2618a6a3e69613334da5fea3c389024646483513dd78b27411229f17aa3", "blockhash": "0000000000000000001f76057863aec43deb6fa401d9628bb513d65a8098bfab", "vout": [{"scriptPubKey": {"reqSigs": 1, "hex": "a9149d5a9d3b4a7bc7a36faf51b0a6c92e0726a0579d87", "addresses": ["3G32ZeNXQ61rg33UdhMoyGsMg3ErvkMEZi"], "asm": "OP_HASH160 9d5a9d3b4a7bc7a36faf51b0a6c92e0726a0579d OP_EQUAL", "type": "scripthash"}, "value": 0.01184477, "n": 0}, {"scriptPubKey": {"reqSigs": 1, "hex": "a9142f430b396aa885189fc81524fb2552cd3ae5f7b587", "addresses": ["35zuzr8DaHAELgM6sEUuRk1GQFuAFgRyRu"], "asm": "OP_HASH160 2f430b396aa885189fc81524fb2552cd3ae5f7b5 OP_EQUAL", "type": "scripthash"}, "value": 0.0827984, "n": 1}, {"scriptPubKey": {"reqSigs": 1, "hex": "a914083bf8b36b1f5e06faa8b8321f819f4da6f6464487", "addresses": ["32SZAyEj1PSGeRZRxaH5kJ2urCr6TkgKmg"], "asm": "OP_HASH160 083bf8b36b1f5e06faa8b8321f819f4da6f64644 OP_EQUAL", "type": "scripthash"}, "value": 0.04306638, "n": 2}], "hex": "010000000001015c926ee9dd6e7f8ee299e9f936cdea2f411391085f0901ee5a369bed5dad82ca0100000023220020fe1f7f636e1a3e7bacce5ea6d1218283a7df3a8a93d5bcba30d48839d90f87a7ffffffff03dd1212000000000017a9149d5a9d3b4a7bc7a36faf51b0a6c92e0726a0579d8720577e000000000017a9142f430b396aa885189fc81524fb2552cd3ae5f7b587ceb641000000000017a914083bf8b36b1f5e06faa8b8321f819f4da6f6464487040047304402203b1f696dded85893629cfa0488c5559cc55b62caf51f6da2ef9cb06800e0f31e022071b0232c90e9816484b07d2dc054af65d04f733ff61af915b1063c7620cf6de1014730440220627dda8e150c3a6f2a9ecdc5f4c77dec0bd2262f293f8b46c32f9f0ea2c0b9de02203e5e0bc0d2ff75070da0a2edda80bcb6907975547c4309e8a229290523c5631701475221029ea2282105003c4754c1a26331f8cb5f70a671fafaf3aae9ac871094086a095821038407424ead2b88063db2d589e50c34e1572f6b82eb9e266dec536939ee0db9eb52ae00000000", "vin": [{"txinwitness": ["", "304402203b1f696dded85893629cfa0488c5559cc55b62caf51f6da2ef9cb06800e0f31e022071b0232c90e9816484b07d2dc054af65d04f733ff61af915b1063c7620cf6de101", "30440220627dda8e150c3a6f2a9ecdc5f4c77dec0bd2262f293f8b46c32f9f0ea2c0b9de02203e5e0bc0d2ff75070da0a2edda80bcb6907975547c4309e8a229290523c5631701", "5221029ea2282105003c4754c1a26331f8cb5f70a671fafaf3aae9ac871094086a095821038407424ead2b88063db2d589e50c34e1572f6b82eb9e266dec536939ee0db9eb52ae"], "sequence": 4294967295, "scriptSig": {"hex": "220020fe1f7f636e1a3e7bacce5ea6d1218283a7df3a8a93d5bcba30d48839d90f87a7", "asm": "0020fe1f7f636e1a3e7bacce5ea6d1218283a7df3a8a93d5bcba30d48839d90f87a7"}, "vout": 1, "txid": "ca82ad5ded9b365aee01095f089113412feacd36f9e999e28e7f6edde96e925c"}], "txid": "123dd6dca2319aeaf7b8c00b8b60d36a7830c6f7b0c9984cf84e1bf2d27039b0", "blocktime": 1537873891, "version": 1, "confirmations": 11475, "time": 1537873891, "locktime": 0, "vsize": 237, "size": 402}