{"hash": "124571a1c51025e47b6e011846fddca3a75aa400078d51377cb18f19725c767d", "blockhash": "0000000000000000001f76057863aec43deb6fa401d9628bb513d65a8098bfab", "vout": [{"scriptPubKey": {"reqSigs": 1, "hex": "76a9141f1250558d3ee62f4658f1ffb2d19659315cd36988ac", "addresses": ["13qHtQup9FkCb9ersdkampgsQJniM4U8Vo"], "asm": "OP_DUP OP_HASH160 1f1250558d3ee62f4658f1ffb2d19659315cd369 OP_EQUALVERIFY OP_CHECKSIG", "type": "pubkeyhash"}, "value": 0.00015638, "n": 0}, {"scriptPubKey": {"reqSigs": 1, "hex": "76a914e540e64f647743bda9b90b04dc497941653a4f2b88ac", "addresses": ["1MuBVEgKkguZYFToJokPJyp41HiUopiWj3"], "asm": "OP_DUP OP_HASH160 e540e64f647743bda9b90b04dc497941653a4f2b OP_EQUALVERIFY OP_CHECKSIG", "type": "pubkeyhash"}, "value": 0.20709162, "n": 1}], "hex": "0100000001481570ca1e71553f7ca92c8f56c39edb63f407d21b8b885abdea1cb16f99473a000000006b483045022100ecf92e6f505e2ce7a5b64b98d84d58b6bafa47a15202f116ae587e87b4771780022074f903092771c861aeca4ab9e632c7c559f791f1c4892dff229a8ce0a119631e012102763c7959efed8a4c4a8ca2d0b69ed10045c42a4a17c62b24295d1645d8647273ffffffff02163d0000000000001976a9141f1250558d3ee62f4658f1ffb2d19659315cd36988ac2aff3b01000000001976a914e540e64f647743bda9b90b04dc497941653a4f2b88ac00000000", "vin": [{"sequence": 4294967295, "scriptSig": {"hex": "483045022100ecf92e6f505e2ce7a5b64b98d84d58b6bafa47a15202f116ae587e87b4771780022074f903092771c861aeca4ab9e632c7c559f791f1c4892dff229a8ce0a119631e012102763c7959efed8a4c4a8ca2d0b69ed10045c42a4a17c62b24295d1645d8647273", "asm": "3045022100ecf92e6f505e2ce7a5b64b98d84d58b6bafa47a15202f116ae587e87b4771780022074f903092771c861aeca4ab9e632c7c559f791f1c4892dff229a8ce0a119631e[ALL] 02763c7959efed8a4c4a8ca2d0b69ed10045c42a4a17c62b24295d1645d8647273"}, "vout": 0, "txid": "3a47996fb11ceabd5a888b1bd207f463db9ec3568f2ca97c3f55711eca701548"}], "txid": "124571a1c51025e47b6e011846fddca3a75aa400078d51377cb18f19725c767d", "blocktime": 1537873891, "version": 1, "confirmations": 11474, "time": 1537873891, "locktime": 0, "vsize": 226, "size": 226}