{"hash": "9c67990a2b02b46fe6e09f2a7140f3dfe0c7974b2bdb886fb64275f80f7aac6f", "blockhash": "0000000000000000001f76057863aec43deb6fa401d9628bb513d65a8098bfab", "vout": [{"scriptPubKey": {"reqSigs": 1, "hex": "76a914f2c6a42dcb3e97103aed4e65f96c4ec0aa50624e88ac", "addresses": ["1P8gVGKRsJ2DDnFUi9iWuipHagSEEE3f7y"], "asm": "OP_DUP OP_HASH160 f2c6a42dcb3e97103aed4e65f96c4ec0aa50624e OP_EQUALVERIFY OP_CHECKSIG", "type": "pubkeyhash"}, "value": 0.01412071, "n": 0}, {"scriptPubKey": {"reqSigs": 1, "hex": "76a914e2ab91f68f2c7aebee05ba1ee4d7f3a4d301ee2688ac", "addresses": ["1MfXFFxoFfFJLAywUHKPBPwW9zkPSKL1N4"], "asm": "OP_DUP OP_HASH160 e2ab91f68f2c7aebee05ba1ee4d7f3a4d301ee26 OP_EQUALVERIFY OP_CHECKSIG", "type": "pubkeyhash"}, "value": 0.04848637, "n": 1}, {"scriptPubKey": {"reqSigs": 1, "hex": "a9143743ddd70008adaa1c03c5136c6d0f47a391f47987", "addresses": ["36jEPYcNd8miZyrZ53osuAx5y5ZUMdwNaZ"], "asm": "OP_HASH160 3743ddd70008adaa1c03c5136c6d0f47a391f479 OP_EQUAL", "type": "scripthash"}, "value": 0.12033727, "n": 2}, {"scriptPubKey": {"reqSigs": 1, "hex": "76a9142ec18c667efa8931480cfd2bef7411eea24d31d488ac", "addresses": ["15GDwoihEhNFqHPwmHq3JuCH2SPb2vngoE"], "asm": "OP_DUP OP_HASH160 2ec18c667efa8931480cfd2bef7411eea24d31d4 OP_EQUALVERIFY OP_CHECKSIG", "type": "pubkeyhash"}, "value": 0.00876218, "n": 3}, {"scriptPubKey": {"reqSigs": 1, "hex": "76a914940bb94936df16b6a9179e87d0538a7bcf4373cc88ac", "addresses": ["1EVo3yS33oEdFmh7kZr7SsgamXKgEQ8gAh"], "asm": "OP_DUP OP_HASH160 940bb94936df16b6a9179e87d0538a7bcf4373cc OP_EQUALVERIFY OP_CHECKSIG", "type": "pubkeyhash"}, "value": 0.0345925, "n": 4}, {"scriptPubKey": {"reqSigs": 1, "hex": "76a914ea5d789cea9c3325d553e036fe337f2c99aa9ff088ac", "addresses": ["1NND6NtBe4ZrpnsLGUq5MKuHony7eQzXeg"], "asm": "OP_DUP OP_HASH160 ea5d789cea9c3325d553e036fe337f2c99aa9ff0 OP_EQUALVERIFY OP_CHECKSIG", "type": "pubkeyhash"}, "value": 0.00049, "n": 5}, {"scriptPubKey": {"reqSigs": 1, "hex": "a91436e1c943837e3704e98b7d3ec65103759e172a0687", "addresses": ["36hCtoThXZSjT2is2XCNMnCUmGVTrfL2Pc"], "asm": "OP_HASH160 36e1c943837e3704e98b7d3ec65103759e172a06 OP_EQUAL", "type": "scripthash"}, "value": 0.00625631, "n": 6}, {"scriptPubKey": {"reqSigs": 1, "hex": "a9140bd287b3a98adf77f903c3ab7652edb3eadcf1d887", "addresses": ["32mXZYK16tB5LESGXBRdB9Ji2CFjbj9sdp"], "asm": "OP_HASH160 0bd287b3a98adf77f903c3ab7652edb3eadcf1d8 OP_EQUAL", "type": "scripthash"}, "value": 0.01353695, "n": 7}, {"scriptPubKey": {"reqSigs": 1, "hex": "a914f6a8819fb52db044dc649bf3c8f398e2cd56e42e87", "addresses": ["3QBE1m2xFhRKXnSJYSik8iwoD5SYufoaCB"], "asm": "OP_HASH160 f6a8819fb52db044dc649bf3c8f398e2cd56e42e OP_EQUAL", "type": "scripthash"}, "value": 0.00968803, "n": 8}, {"scriptPubKey": {"reqSigs": 1, "hex": "a9146ada41ae8941ee2c08b6d9652efa1f4fe5ae2df187", "addresses": ["3BS11cLZbDCDQvDfe1mcvrsBU7SZgNy6R9"], "asm": "OP_HASH160 6ada41ae8941ee2c08b6d9652efa1f4fe5ae2df1 OP_EQUAL", "type": "scripthash"}, "value": 0.0098221, "n": 9}, {"scriptPubKey": {"reqSigs": 1, "hex": "a9149b17fa2bd237ae4a65afcd75d32524286c1bb58187", "addresses": ["3Fq5PF9QoBShXNs5GdR3mevtXKkH9njzxu"], "asm": "OP_HASH160 9b17fa2bd237ae4a65afcd75d32524286c1bb581 OP_EQUAL", "type": "scripthash"}, "value": 0.00856448, "n": 10}, {"scriptPubKey": {"reqSigs": 1, "hex": "a914c7047caa1a38281433326c3fa50ea3fb7b9d45ec87", "addresses": ["3KqKmUgshuSFn2WbZ75knaz4fiYwv8DSMo"], "asm": "OP_HASH160 c7047caa1a38281433326c3fa50ea3fb7b9d45ec OP_EQUAL", "type": "scripthash"}, "value": 0.0361575, "n": 11}, {"scriptPubKey": {"reqSigs": 1, "hex": "76a914ab36ec37fa34fddf878a50dd18d7e9f77e31092588ac", "addresses": ["1GcJLuGP2NNBqSJcZz6pdSjMBZo5nd7i32"], "asm": "OP_DUP OP_HASH160 ab36ec37fa34fddf878a50dd18d7e9f77e310925 OP_EQUALVERIFY OP_CHECKSIG", "type": "pubkeyhash"}, "value": 0.01255442, "n": 12}, {"scriptPubKey": {"reqSigs": 1, "hex": "76a91487a7a8a1331720b7162b509f1c01cf2ec6d89d2888ac", "addresses": ["1DNH52eorKzNYx29KZPicegQZycBGsBssQ"], "asm": "OP_DUP OP_HASH160 87a7a8a1331720b7162b509f1c01cf2ec6d89d28 OP_EQUALVERIFY OP_CHECKSIG", "type": "pubkeyhash"}, "value": 0.05474, "n": 13}, {"scriptPubKey": {"reqSigs": 1, "hex": "a91416e94b74d74918dd794c4fe52412f77e008f669a87", "addresses": ["33nAGNGegdp3TmHCxsZwamwRTxFFTumMmo"], "asm": "OP_HASH160 16e94b74d74918dd794c4fe52412f77e008f669a OP_EQUAL", "type": "scripthash"}, "value": 0.04910922, "n": 14}, {"scriptPubKey": {"reqSigs": 1, "hex": "a91408a9e70dd1a4243092612b001c8c38480e32979e87", "addresses": ["32Ups7cbp4VC511dAa5tcmdvbdWsc6dEYB"], "asm": "OP_HASH160 08a9e70dd1a4243092612b001c8c38480e32979e OP_EQUAL", "type": "scripthash"}, "value": 0.01338352, "n": 15}, {"scriptPubKey": {"reqSigs": 1, "hex": "a914ff9f76a4efaef98fe989333635fb588d61e8557987", "addresses": ["3QzdGB8omMgd8zXBvUiTMCosXZ4vmGsHdR"], "asm": "OP_HASH160 ff9f76a4efaef98fe989333635fb588d61e85579 OP_EQUAL", "type": "scripthash"}, "value": 0.0126, "n": 16}, {"scriptPubKey": {"reqSigs": 1, "hex": "76a914633fa582cf5a2010a6906e70a186f55574e3b0b888ac", "addresses": ["1A3n9EJsr4xooXehv5V38UsWmDim8gSEXP"], "asm": "OP_DUP OP_HASH160 633fa582cf5a2010a6906e70a186f55574e3b0b8 OP_EQUALVERIFY OP_CHECKSIG", "type": "pubkeyhash"}, "value": 0.01071934, "n": 17}], "hex": "01000000000103116c4adb540fe5998857b7450a7287712ade9281d1818f4972bfbecc97a761d900000000fdfd0000483045022100961326cf6a678aae5031f6135880e8b47690482a800fe34d3f5588695d16d766022017323d4cd9d5237bf67640b42ddda6c0990275790c0f0aeb4144f7adcfd7572d01473044022078086b30bccdb04afc671c0f2f736ffbcf00dc05b99744465ca5bf008d6b45c80220175d3efd4d7918420704deb1264c73d19d9367b3803eb6517095c6081c8ceab1014c6952210343891d5830abd23117c83f4c9bb1414310d123c8f9b2de92a50648d3f1b5ed9b21027778dae32ea82a645a01c50afd1d54448869d732bee3d3b9cf38557fd06e489421036f591c3676d971b1724f08e9d1655eecf0b348192b9c4e6ae2f13e8a3cae0d3f53aeffffffff4af9064ce55ddf54b10abb3d3d26eabbfd132659d0bd9dce7428ff1cfaa836c90f00000023220020128c4f662fc514292e69d690712641d049d4844b4b73c0f90bfa4bb868f67b8effffffff33fbcce1d8061496731cb0cbbeb07e429a3d8888646d2ed96feabff4fffa483f01000000fc00473044022023e84365ef2c38d6fcacfeed612f11b7d7644430bebbf1676bc1d3b5bcd495860220709cbf3e0077a6257a0cdd6a2be538a1cf22cea4ab561fdc389caa3796bf0b2201473044022059c7b6f0e40e7cf31c7bf6804b46142339ec64624baab53fb7ea15c102020a05022031c35f35b18bee8924237a8bce4324b26ab8a1031fa0712f170d243af661576c014c695221035b2116ca7ccb63666a608c9ed14e98e54a3d45225299b527b8de01b355d10403210214e3661deb507427677db8d4b3da7b5f307c6292f693b37fa81b625e0a66f65d210290377f42ffcc6beb27db09570ef5d530f737dda8fc535d71698389dac2a82cf253aeffffffff12e78b1500000000001976a914f2c6a42dcb3e97103aed4e65f96c4ec0aa50624e88acfdfb4900000000001976a914e2ab91f68f2c7aebee05ba1ee4d7f3a4d301ee2688acbf9eb7000000000017a9143743ddd70008adaa1c03c5136c6d0f47a391f47987ba5e0d00000000001976a9142ec18c667efa8931480cfd2bef7411eea24d31d488acb2c83400000000001976a914940bb94936df16b6a9179e87d0538a7bcf4373cc88ac68bf0000000000001976a914ea5d789cea9c3325d553e036fe337f2c99aa9ff088acdf8b09000000000017a91436e1c943837e3704e98b7d3ec65103759e172a0687dfa714000000000017a9140bd287b3a98adf77f903c3ab7652edb3eadcf1d88763c80e000000000017a914f6a8819fb52db044dc649bf3c8f398e2cd56e42e87c2fc0e000000000017a9146ada41ae8941ee2c08b6d9652efa1f4fe5ae2df18780110d000000000017a9149b17fa2bd237ae4a65afcd75d32524286c1bb58187062c37000000000017a914c7047caa1a38281433326c3fa50ea3fb7b9d45ec8712281300000000001976a914ab36ec37fa34fddf878a50dd18d7e9f77e31092588acd0865300000000001976a91487a7a8a1331720b7162b509f1c01cf2ec6d89d2888ac4aef4a000000000017a91416e94b74d74918dd794c4fe52412f77e008f669a87f06b14000000000017a91408a9e70dd1a4243092612b001c8c38480e32979e87e03913000000000017a914ff9f76a4efaef98fe989333635fb588d61e85579873e5b1000000000001976a914633fa582cf5a2010a6906e70a186f55574e3b0b888ac000400473044022011c46a0055dfab112f5518c409e5e1201c1ddd378bdb8a7381042f4207993ec602203ad800184ce0173df1febedd06e91ccf22e5ad046e2ea77e92e0f855395bbe860147304402202f5df5f88ef3c13ba2a5b9f1159c09491622b96fefc5c2e30d8522f7ad85880c022073abe6223fdaa31cc2bc004a9a8b41f112ba37bb4ebde3e22331951c3a7a06f7016952210228fae1ea5656f181cac619336f53cd4ec37c0990053fff1686a265fb825f12b42102d472bea27330c93ccb388f9b124ab39023f19186718c7d5fa96d0d9374ff456a2102039c69d257503c3f2cdeafdebfc7c309da2a40735f745951ba5d0e30224ce51653ae0000000000", "vin": [{"sequence": 4294967295, "scriptSig": {"hex": "00483045022100961326cf6a678aae5031f6135880e8b47690482a800fe34d3f5588695d16d766022017323d4cd9d5237bf67640b42ddda6c0990275790c0f0aeb4144f7adcfd7572d01473044022078086b30bccdb04afc671c0f2f736ffbcf00dc05b99744465ca5bf008d6b45c80220175d3efd4d7918420704deb1264c73d19d9367b3803eb6517095c6081c8ceab1014c6952210343891d5830abd23117c83f4c9bb1414310d123c8f9b2de92a50648d3f1b5ed9b21027778dae32ea82a645a01c50afd1d54448869d732bee3d3b9cf38557fd06e489421036f591c3676d971b1724f08e9d1655eecf0b348192b9c4e6ae2f13e8a3cae0d3f53ae", "asm": "0 3045022100961326cf6a678aae5031f6135880e8b47690482a800fe34d3f5588695d16d766022017323d4cd9d5237bf67640b42ddda6c0990275790c0f0aeb4144f7adcfd7572d[ALL] 3044022078086b30bccdb04afc671c0f2f736ffbcf00dc05b99744465ca5bf008d6b45c80220175d3efd4d7918420704deb1264c73d19d9367b3803eb6517095c6081c8ceab1[ALL] 52210343891d5830abd23117c83f4c9bb1414310d123c8f9b2de92a50648d3f1b5ed9b21027778dae32ea82a645a01c50afd1d54448869d732bee3d3b9cf38557fd06e489421036f591c3676d971b1724f08e9d1655eecf0b348192b9c4e6ae2f13e8a3cae0d3f53ae"}, "vout": 0, "txid": "d961a797ccbebf72498f81d18192de2a7187720a45b7578899e50f54db4a6c11"}, {"txinwitness": ["", "3044022011c46a0055dfab112f5518c409e5e1201c1ddd378bdb8a7381042f4207993ec602203ad800184ce0173df1febedd06e91ccf22e5ad046e2ea77e92e0f855395bbe8601", "304402202f5df5f88ef3c13ba2a5b9f1159c09491622b96fefc5c2e30d8522f7ad85880c022073abe6223fdaa31cc2bc004a9a8b41f112ba37bb4ebde3e22331951c3a7a06f701", "52210228fae1ea5656f181cac619336f53cd4ec37c0990053fff1686a265fb825f12b42102d472bea27330c93ccb388f9b124ab39023f19186718c7d5fa96d0d9374ff456a2102039c69d257503c3f2cdeafdebfc7c309da2a40735f745951ba5d0e30224ce51653ae"], "sequence": 4294967295, "scriptSig": {"hex": "220020128c4f662fc514292e69d690712641d049d4844b4b73c0f90bfa4bb868f67b8e", "asm": "0020128c4f662fc514292e69d690712641d049d4844b4b73c0f90bfa4bb868f67b8e"}, "vout": 15, "txid": "c936a8fa1cff2874ce9dbdd0592613fdbbea263d3dbb0ab154df5de54c06f94a"}, {"sequence": 4294967295, "scriptSig": {"hex": "00473044022023e84365ef2c38d6fcacfeed612f11b7d7644430bebbf1676bc1d3b5bcd495860220709cbf3e0077a6257a0cdd6a2be538a1cf22cea4ab561fdc389caa3796bf0b2201473044022059c7b6f0e40e7cf31c7bf6804b46142339ec64624baab53fb7ea15c102020a05022031c35f35b18bee8924237a8bce4324b26ab8a1031fa0712f170d243af661576c014c695221035b2116ca7ccb63666a608c9ed14e98e54a3d45225299b527b8de01b355d10403210214e3661deb507427677db8d4b3da7b5f307c6292f693b37fa81b625e0a66f65d210290377f42ffcc6beb27db09570ef5d530f737dda8fc535d71698389dac2a82cf253ae", "asm": "0 3044022023e84365ef2c38d6fcacfeed612f11b7d7644430bebbf1676bc1d3b5bcd495860220709cbf3e0077a6257a0cdd6a2be538a1cf22cea4ab561fdc389caa3796bf0b22[ALL] 3044022059c7b6f0e40e7cf31c7bf6804b46142339ec64624baab53fb7ea15c102020a05022031c35f35b18bee8924237a8bce4324b26ab8a1031fa0712f170d243af661576c[ALL] 5221035b2116ca7ccb63666a608c9ed14e98e54a3d45225299b527b8de01b355d10403210214e3661deb507427677db8d4b3da7b5f307c6292f693b37fa81b625e0a66f65d210290377f42ffcc6beb27db09570ef5d530f737dda8fc535d71698389dac2a82cf253ae"}, "vout": 1, "txid": "3f48fafff4bfea6fd92e6d6488883d9a427eb0becbb01c73961406d8e1ccfb33"}], "txid": "1248f034220a0cf64ff224eb476b2a8d114f18a3dd888a27ae4f7ca1720c7764", "blocktime": 1537873891, "version": 1, "confirmations": 11478, "time": 1537873891, "locktime": 0, "vsize": 1331, "size": 1523}