{"hash": "863fbefeee88479e86591a7ba11b4f0d1d67e0b47d22b3dd7b2cd842516044fd", "blockhash": "00000000000000000017f5eb5941039fbcee6240d03bc1f2f8e35350df66a1d8", "vout": [{"scriptPubKey": {"reqSigs": 1, "hex": "a914b6757413988f00ee22929f7ce87b12880f28db6f87", "addresses": ["3JKmcGFsi3qJzRysD8bgvf1Yjp2FQKvajP"], "asm": "OP_HASH160 b6757413988f00ee22929f7ce87b12880f28db6f OP_EQUAL", "type": "scripthash"}, "value": 0.0528, "n": 0}, {"scriptPubKey": {"reqSigs": 1, "hex": "a914ea645e5e20987adfaa9d5fa4a915d008965f102387", "addresses": ["3P4NHAbib3uvj6QNYmPWqEJMZnx4HzszTp"], "asm": "OP_HASH160 ea645e5e20987adfaa9d5fa4a915d008965f1023 OP_EQUAL", "type": "scripthash"}, "value": 0.0100074, "n": 1}], "hex": "020000000001056126284a7fdaf5a300b556998ab1772a03f6e71275a385c096cbef033e1445e501000000171600142767162ab05c0b31357c7723c3b984f16c313c8cffffffff7c92a37511f570e2683938deee5c35d95a548991a6f1f08dd16a539d7d2251ef04000000171600142767162ab05c0b31357c7723c3b984f16c313c8cffffffff41be3cbd8cd16e15fd20428e631f3adbf8a43f8f690083e90b4300773e8e819206000000171600142767162ab05c0b31357c7723c3b984f16c313c8cffffffff0c26b59c948a4ce6edb048d8cc1cb6cefdb5cdf2cc5d4987393b3f7c8585cd92000000001716001454d7682a2717fdc091b664bb03ec80ba55c10802ffffffff0382d0fe1ff37148afc1d3b44f65906f84bafe22a3dbd07d0db5ae068f70356b02000000171600142767162ab05c0b31357c7723c3b984f16c313c8cffffffff02009150000000000017a914b6757413988f00ee22929f7ce87b12880f28db6f8724450f000000000017a914ea645e5e20987adfaa9d5fa4a915d008965f1023870248304502210088b903a86cb26f4feb8688f8fcd1460ab1d565c45c9e9d58b8dfadf3682eaa1502201af687f54be82c50a5d2156c30e864dd124958dd0b46456899b88bd06715e5cc01210292a5db6b22543b58a29942c318fcd206fb3492d3c303fc233b4908ab0a968115024730440220369919755fe41ad70afc4ba05cca27509af5f54c4b132579de472c953a9dab02022044e3b54fe70d5a5bccb4d20a8c8c20959aaa463d49dc6e3012aedbffddf6740f01210292a5db6b22543b58a29942c318fcd206fb3492d3c303fc233b4908ab0a96811502483045022100bbf8f94c45d9e8c49316b5dcfa186d48c9f70bd366c8ec0aafc5a942a85c9331022046f188dc245d5deeb0ecb3f8ad5971efbc71a3a1923d00cc28951c9e114ddfa301210292a5db6b22543b58a29942c318fcd206fb3492d3c303fc233b4908ab0a96811502483045022100ba41f65b60e0b23b4d934e1b6c363a584313a4b1b1fd55b1981d3bdbe2f120a402200eea027430e4d924a8a670cda3aaef1952db8ef50767a9c04875284da615b5790121037a1f2b74d7f000f9a6ba5dc1f02100418ef2de711c26007c5a7ecfadd5848b2402483045022100a2a90aaeb601ed7ab5ab33f6b5d53576981543caf6d655b70e7f274276b7a29d02206cf71271b00f94025b9b31436d4bbe05540f9490780597321e2379a129ee0cf001210292a5db6b22543b58a29942c318fcd206fb3492d3c303fc233b4908ab0a96811500000000", "vin": [{"txinwitness": ["304502210088b903a86cb26f4feb8688f8fcd1460ab1d565c45c9e9d58b8dfadf3682eaa1502201af687f54be82c50a5d2156c30e864dd124958dd0b46456899b88bd06715e5cc01", "0292a5db6b22543b58a29942c318fcd206fb3492d3c303fc233b4908ab0a968115"], "sequence": 4294967295, "scriptSig": {"hex": "1600142767162ab05c0b31357c7723c3b984f16c313c8c", "asm": "00142767162ab05c0b31357c7723c3b984f16c313c8c"}, "vout": 1, "txid": "e545143e03efcb96c085a37512e7f6032a77b18a9956b500a3f5da7f4a282661"}, {"txinwitness": ["30440220369919755fe41ad70afc4ba05cca27509af5f54c4b132579de472c953a9dab02022044e3b54fe70d5a5bccb4d20a8c8c20959aaa463d49dc6e3012aedbffddf6740f01", "0292a5db6b22543b58a29942c318fcd206fb3492d3c303fc233b4908ab0a968115"], "sequence": 4294967295, "scriptSig": {"hex": "1600142767162ab05c0b31357c7723c3b984f16c313c8c", "asm": "00142767162ab05c0b31357c7723c3b984f16c313c8c"}, "vout": 4, "txid": "ef51227d9d536ad18df0f1a69189545ad9355ceede383968e270f51175a3927c"}, {"txinwitness": ["3045022100bbf8f94c45d9e8c49316b5dcfa186d48c9f70bd366c8ec0aafc5a942a85c9331022046f188dc245d5deeb0ecb3f8ad5971efbc71a3a1923d00cc28951c9e114ddfa301", "0292a5db6b22543b58a29942c318fcd206fb3492d3c303fc233b4908ab0a968115"], "sequence": 4294967295, "scriptSig": {"hex": "1600142767162ab05c0b31357c7723c3b984f16c313c8c", "asm": "00142767162ab05c0b31357c7723c3b984f16c313c8c"}, "vout": 6, "txid": "92818e3e7700430be98300698f3fa4f8db3a1f638e4220fd156ed18cbd3cbe41"}, {"txinwitness": ["3045022100ba41f65b60e0b23b4d934e1b6c363a584313a4b1b1fd55b1981d3bdbe2f120a402200eea027430e4d924a8a670cda3aaef1952db8ef50767a9c04875284da615b57901", "037a1f2b74d7f000f9a6ba5dc1f02100418ef2de711c26007c5a7ecfadd5848b24"], "sequence": 4294967295, "scriptSig": {"hex": "16001454d7682a2717fdc091b664bb03ec80ba55c10802", "asm": "001454d7682a2717fdc091b664bb03ec80ba55c10802"}, "vout": 0, "txid": "92cd85857c3f3b3987495dccf2cdb5fdceb61cccd848b0ede64c8a949cb5260c"}, {"txinwitness": ["3045022100a2a90aaeb601ed7ab5ab33f6b5d53576981543caf6d655b70e7f274276b7a29d02206cf71271b00f94025b9b31436d4bbe05540f9490780597321e2379a129ee0cf001", "0292a5db6b22543b58a29942c318fcd206fb3492d3c303fc233b4908ab0a968115"], "sequence": 4294967295, "scriptSig": {"hex": "1600142767162ab05c0b31357c7723c3b984f16c313c8c", "asm": "00142767162ab05c0b31357c7723c3b984f16c313c8c"}, "vout": 2, "txid": "6b35708f06aeb50d7dd0dba322feba846f90654fb4d3c1af4871f31ffed08203"}], "txid": "124bc27fc69cc45a97d9cc6c914d5e66b846e89b68d1b8b09db3c5b6388f97be", "blocktime": 1537874412, "version": 2, "confirmations": 11466, "time": 1537874412, "locktime": 0, "vsize": 530, "size": 935}