{"hash": "12511d1a158c9baff5ef3effbea73a7e879b1aee1a5bf1d5f1c3fd467570ef2a", "blockhash": "00000000000000000018f53835495a110e01622372bf6ae95dc86f2b0ab887b0", "vout": [{"scriptPubKey": {"type": "nulldata", "hex": "6a146f6d6e69000000000000001f000000109fc58a00", "asm": "OP_RETURN 6f6d6e69000000000000001f000000109fc58a00"}, "value": 0.0, "n": 0}, {"scriptPubKey": {"reqSigs": 1, "hex": "76a9142b39879b0a1612375e2b07d7cb4c39bb73c9f89188ac", "addresses": ["14wYyV1ofaiPxyXf1XqsHhXFQGmbgYy5SG"], "asm": "OP_DUP OP_HASH160 2b39879b0a1612375e2b07d7cb4c39bb73c9f891 OP_EQUALVERIFY OP_CHECKSIG", "type": "pubkeyhash"}, "value": 5.46e-06, "n": 1}, {"scriptPubKey": {"reqSigs": 1, "hex": "76a914a25dec4d0011064ef106a983c39c7a540699f22088ac", "addresses": ["1FoWyxwPXuj4C6abqwhjDWdz6D4PZgYRjA"], "asm": "OP_DUP OP_HASH160 a25dec4d0011064ef106a983c39c7a540699f220 OP_EQUALVERIFY OP_CHECKSIG", "type": "pubkeyhash"}, "value": 0.01995204, "n": 2}], "hex": "0100000001a44813c76173a4fe9689194c29809e35be05f1741d9b5e1e9e8bd44070ac1fea6700000069463043021f02e728bd96aae97aad6cd10d8a4b6e20d4d79fdea0b5fab680ac339a4b2a1e022016feb6e66041aeafc435aa63781c433b2e65d332fba3bf46fe08fb1c511cb9f8012103da5bac7b36d5aa38f531c6b9601e21bb598a4b6716ebed38b009a55dabde9440feffffff030000000000000000166a146f6d6e69000000000000001f000000109fc58a0022020000000000001976a9142b39879b0a1612375e2b07d7cb4c39bb73c9f89188acc4711e00000000001976a914a25dec4d0011064ef106a983c39c7a540699f22088ac0e490800", "vin": [{"sequence": 4294967294, "scriptSig": {"hex": "463043021f02e728bd96aae97aad6cd10d8a4b6e20d4d79fdea0b5fab680ac339a4b2a1e022016feb6e66041aeafc435aa63781c433b2e65d332fba3bf46fe08fb1c511cb9f8012103da5bac7b36d5aa38f531c6b9601e21bb598a4b6716ebed38b009a55dabde9440", "asm": "3043021f02e728bd96aae97aad6cd10d8a4b6e20d4d79fdea0b5fab680ac339a4b2a1e022016feb6e66041aeafc435aa63781c433b2e65d332fba3bf46fe08fb1c511cb9f8[ALL] 03da5bac7b36d5aa38f531c6b9601e21bb598a4b6716ebed38b009a55dabde9440"}, "vout": 103, "txid": "ea1fac7040d48b9e1e5e9b1d74f105be359e80294c198996fea47361c71348a4"}], "txid": "12511d1a158c9baff5ef3effbea73a7e879b1aee1a5bf1d5f1c3fd467570ef2a", "blocktime": 1537870928, "version": 1, "confirmations": 11512, "time": 1537870928, "locktime": 542990, "vsize": 255, "size": 255}