{"hash": "7e667ca586eda563665531e4d5d21fc7bb3e7321ac61900d540cdc97953f0d02", "blockhash": "0000000000000000000e13cef7c366c0283d82e591d1acd082e914b08063cdf1", "vout": [{"scriptPubKey": {"reqSigs": 1, "hex": "a914f62928387aae7f19b0ae6daeb9f90877dbe2405a87", "addresses": ["3Q8bTP1aQ2S9gKDZnfV7CRrmEUUnpVhZVt"], "asm": "OP_HASH160 f62928387aae7f19b0ae6daeb9f90877dbe2405a OP_EQUAL", "type": "scripthash"}, "value": 0.00124853, "n": 0}, {"scriptPubKey": {"reqSigs": 1, "hex": "a914f5342287aaa57f5c05756dbd5ef14091cc70030f87", "addresses": ["3Q3XvwKWsx3ocmCXheK6pAo5ieooFx75hh"], "asm": "OP_HASH160 f5342287aaa57f5c05756dbd5ef14091cc70030f OP_EQUAL", "type": "scripthash"}, "value": 0.11266328, "n": 1}], "hex": "010000000001014617813e08b4e1e1656249e1728a9ff857912baec9e50d5d0d36668d3d18988901000000232200204fd7968ffe15cb453352a1e9ee2915eff8b6d6252d5a351f9092b82ca10eb12cffffffff02b5e701000000000017a914f62928387aae7f19b0ae6daeb9f90877dbe2405a8718e9ab000000000017a914f5342287aaa57f5c05756dbd5ef14091cc70030f870400483045022100da21c5bf6243e1ee9cc998cd4056a4d8c1f2f68966e9090afceec299aedce29f02207f0fd4d1d0709952b4ba5c3d7811e05f673c7bf0a7a35c5b0737a54b17c9a9960147304402200092931b2d9759b796094a0fff1281580fa2e81ebc6dbb731cec0d9e756ccd7202203826e0327a71c5693b629cb471a0fc5be88c569dd2f76d8949c5f2fd3cc623480147522103b70e79262cbb7310fe069dea7c473b53276b75c67fb841ff66279f152a3fe0172103871fc2ca08e6950b38867e8e6a0e94ee625223d3aa0df5c65f414c6d784467e252ae00000000", "vin": [{"txinwitness": ["", "3045022100da21c5bf6243e1ee9cc998cd4056a4d8c1f2f68966e9090afceec299aedce29f02207f0fd4d1d0709952b4ba5c3d7811e05f673c7bf0a7a35c5b0737a54b17c9a99601", "304402200092931b2d9759b796094a0fff1281580fa2e81ebc6dbb731cec0d9e756ccd7202203826e0327a71c5693b629cb471a0fc5be88c569dd2f76d8949c5f2fd3cc6234801", "522103b70e79262cbb7310fe069dea7c473b53276b75c67fb841ff66279f152a3fe0172103871fc2ca08e6950b38867e8e6a0e94ee625223d3aa0df5c65f414c6d784467e252ae"], "sequence": 4294967295, "scriptSig": {"hex": "2200204fd7968ffe15cb453352a1e9ee2915eff8b6d6252d5a351f9092b82ca10eb12c", "asm": "00204fd7968ffe15cb453352a1e9ee2915eff8b6d6252d5a351f9092b82ca10eb12c"}, "vout": 1, "txid": "8998183d8d66360d5d0de5c9ae2b9157f89f8a72e1496265e1e1b4083e811746"}], "txid": "12562e0c26d209a68c65221c6e3a913f7f46c9288de62e91e2be0ee22a4c2810", "blocktime": 1537871767, "version": 1, "confirmations": 11495, "time": 1537871767, "locktime": 0, "vsize": 206, "size": 371}