{"hash": "12626167449c4512907f25368cc985aa5a97f4949ff60b7ca11e6f0b74e2a14b", "blockhash": "0000000000000000001cda96e906b7601b7a6fb1a3b62bca570a9e5d8f4b3de1", "vout": [{"scriptPubKey": {"reqSigs": 1, "hex": "76a914ce6d370e4bbd8034ea18def4c46ae5835b56b5c088ac", "addresses": ["1KpV2uvzC7eRVp79RSkk2KMBb1MbZFSEEM"], "asm": "OP_DUP OP_HASH160 ce6d370e4bbd8034ea18def4c46ae5835b56b5c0 OP_EQUALVERIFY OP_CHECKSIG", "type": "pubkeyhash"}, "value": 0.00444982, "n": 0}, {"scriptPubKey": {"reqSigs": 1, "hex": "76a9146d4c08ceed25ef8a9bf62851a9ee7c88648db7a188ac", "addresses": ["1AxujscyGXrCCaGaaq6zKjYWudSBF5yUpv"], "asm": "OP_DUP OP_HASH160 6d4c08ceed25ef8a9bf62851a9ee7c88648db7a1 OP_EQUALVERIFY OP_CHECKSIG", "type": "pubkeyhash"}, "value": 0.02460874, "n": 1}], "hex": "0100000001cc17e0849c8d52eff581393e2b6eaf18255ad0b23289cf7d89d607f38b93c71c010000008a47304402205513dfc0db7fa31fdc231feacf2613e41b66bd745f83a05b4e4ab77661cb5d260220252ec5f4ce8a10caf759e3d2de6fdcf12153783f3daf22780d7754f64202ef94014104e9c88533d443c255dcb010977c937f429dfe936265ae060c14c9c1e86fee512cb17a22561a1d3efd11027c404ccc42b996c0dfc3662a02bf77a7e25c951c6101ffffffff0236ca0600000000001976a914ce6d370e4bbd8034ea18def4c46ae5835b56b5c088acca8c2500000000001976a9146d4c08ceed25ef8a9bf62851a9ee7c88648db7a188ac00000000", "vin": [{"sequence": 4294967295, "scriptSig": {"hex": "47304402205513dfc0db7fa31fdc231feacf2613e41b66bd745f83a05b4e4ab77661cb5d260220252ec5f4ce8a10caf759e3d2de6fdcf12153783f3daf22780d7754f64202ef94014104e9c88533d443c255dcb010977c937f429dfe936265ae060c14c9c1e86fee512cb17a22561a1d3efd11027c404ccc42b996c0dfc3662a02bf77a7e25c951c6101", "asm": "304402205513dfc0db7fa31fdc231feacf2613e41b66bd745f83a05b4e4ab77661cb5d260220252ec5f4ce8a10caf759e3d2de6fdcf12153783f3daf22780d7754f64202ef94[ALL] 04e9c88533d443c255dcb010977c937f429dfe936265ae060c14c9c1e86fee512cb17a22561a1d3efd11027c404ccc42b996c0dfc3662a02bf77a7e25c951c6101"}, "vout": 1, "txid": "1cc7938bf307d6897dcf8932b2d05a2518af6e2b3e3981f5ef528d9c84e017cc"}], "txid": "12626167449c4512907f25368cc985aa5a97f4949ff60b7ca11e6f0b74e2a14b", "blocktime": 1537873282, "version": 1, "confirmations": 11485, "time": 1537873282, "locktime": 0, "vsize": 257, "size": 257}