{"hash": "96a1d653fe87d8285362bd20a092d994fd2cd0b0d503e343e3c2f921d54cae15", "blockhash": "0000000000000000000baef3f32e3676a92c3b2e5da21b426e4f302fc371ce76", "vout": [{"scriptPubKey": {"reqSigs": 1, "hex": "a914fa427db942499fe2d90738603151432b6898862887", "addresses": ["3QWGWPFr1N8LrKnDhr6JjveGTTejLYWwKi"], "asm": "OP_HASH160 fa427db942499fe2d90738603151432b68988628 OP_EQUAL", "type": "scripthash"}, "value": 0.00134583, "n": 0}, {"scriptPubKey": {"reqSigs": 1, "hex": "76a9148c8675a7b20830452ce1bd99f2830d660999f0ce88ac", "addresses": ["1Dp2gGoDuLrDBRCZTPRQjcW2d9ppaoiN7R"], "asm": "OP_DUP OP_HASH160 8c8675a7b20830452ce1bd99f2830d660999f0ce OP_EQUALVERIFY OP_CHECKSIG", "type": "pubkeyhash"}, "value": 0.63, "n": 1}], "hex": "01000000000102093fe0f92277ea413dd9fb3c6346d2dac45d25d9e52bdb68c94f39f1032844e900000000fc004730440220613e4408a26cc79a3769ad04a4c2e7fa170b959decd3b44d582d1ac65ca911ba02205189ce04555f520adc0152c485f27b686e792effa485e79ecc38880ea7762bac0147304402201e1e722bd8f9c4a8a5e96271860332727b3815bffe556050b7a45409bfd7db3a02201e08aea854e8bcb78726e2723ba93076571f6ce5c90e36bd247a879169925652014c69522103124c3b0b44927500354b1388507bf31f9a8a23439da8447488cba4079a8eb189210313180527881ccc12c80319e633479a82613134eef6828beb5ed835bbdce281ab2103f6cda5b769131afb6b1b22ebc5a50ed20a7d79b4d568587bf6a29347f9e43dbc53aeffffffffda339b831448adbab95e4aa552b05ce9424e40fc3ebbe00fee5785281c2970b3010000002322002009a9d8bb096b5f0a2d1cc49bc910b850e28f97838c88c4f346bb3c7c12f7a73dffffffff02b70d02000000000017a914fa427db942499fe2d90738603151432b6898862887c04dc103000000001976a9148c8675a7b20830452ce1bd99f2830d660999f0ce88ac0004004830450221009ce9ac6436d52f085a5477786711cad80f463574abbfa1bb57df58b1e03af1ae02207daa570bd7f920d0cd05b733c627ab6076fbf33d2179bfdf7d3ee9036fa551af01473044022078a3d013298036c4454bc5224fce497a9b996a8d5e394c102035fef872e5aa1902206e20044913f44201cacbe9e200388c2b6f073b4ec5611d74b45579eaa0952b5a01695221027ce0e886f5abfadc3133ef91cb542ff3b909f954aaa99b2c7fb5c3b0ab1829c52102c1194fcafe8abcec1c2100a4bee562580808abbf1e9ece00ff3ecf5fe56b5ca321038578491d9ce48296fc809ad5d106319675cc296b087d263ae719e2086370789953ae00000000", "vin": [{"sequence": 4294967295, "scriptSig": {"hex": "004730440220613e4408a26cc79a3769ad04a4c2e7fa170b959decd3b44d582d1ac65ca911ba02205189ce04555f520adc0152c485f27b686e792effa485e79ecc38880ea7762bac0147304402201e1e722bd8f9c4a8a5e96271860332727b3815bffe556050b7a45409bfd7db3a02201e08aea854e8bcb78726e2723ba93076571f6ce5c90e36bd247a879169925652014c69522103124c3b0b44927500354b1388507bf31f9a8a23439da8447488cba4079a8eb189210313180527881ccc12c80319e633479a82613134eef6828beb5ed835bbdce281ab2103f6cda5b769131afb6b1b22ebc5a50ed20a7d79b4d568587bf6a29347f9e43dbc53ae", "asm": "0 30440220613e4408a26cc79a3769ad04a4c2e7fa170b959decd3b44d582d1ac65ca911ba02205189ce04555f520adc0152c485f27b686e792effa485e79ecc38880ea7762bac[ALL] 304402201e1e722bd8f9c4a8a5e96271860332727b3815bffe556050b7a45409bfd7db3a02201e08aea854e8bcb78726e2723ba93076571f6ce5c90e36bd247a879169925652[ALL] 522103124c3b0b44927500354b1388507bf31f9a8a23439da8447488cba4079a8eb189210313180527881ccc12c80319e633479a82613134eef6828beb5ed835bbdce281ab2103f6cda5b769131afb6b1b22ebc5a50ed20a7d79b4d568587bf6a29347f9e43dbc53ae"}, "vout": 0, "txid": "e9442803f1394fc968db2be5d9255dc4dad246633cfbd93d41ea7722f9e03f09"}, {"txinwitness": ["", "30450221009ce9ac6436d52f085a5477786711cad80f463574abbfa1bb57df58b1e03af1ae02207daa570bd7f920d0cd05b733c627ab6076fbf33d2179bfdf7d3ee9036fa551af01", "3044022078a3d013298036c4454bc5224fce497a9b996a8d5e394c102035fef872e5aa1902206e20044913f44201cacbe9e200388c2b6f073b4ec5611d74b45579eaa0952b5a01", "5221027ce0e886f5abfadc3133ef91cb542ff3b909f954aaa99b2c7fb5c3b0ab1829c52102c1194fcafe8abcec1c2100a4bee562580808abbf1e9ece00ff3ecf5fe56b5ca321038578491d9ce48296fc809ad5d106319675cc296b087d263ae719e2086370789953ae"], "sequence": 4294967295, "scriptSig": {"hex": "22002009a9d8bb096b5f0a2d1cc49bc910b850e28f97838c88c4f346bb3c7c12f7a73d", "asm": "002009a9d8bb096b5f0a2d1cc49bc910b850e28f97838c88c4f346bb3c7c12f7a73d"}, "vout": 1, "txid": "b370291c288557ee0fe0bb3efc404e42e95cb052a54a5eb9baad4814839b33da"}], "txid": "1263082b880af8474fc30d59d878005ff28c7a8f377e0c17799065f971698364", "blocktime": 1537876114, "version": 1, "confirmations": 11460, "time": 1537876114, "locktime": 0, "vsize": 509, "size": 701}