{"hash": "12647e0f71c485487ea764b5bf06d8037dad59632f806ad3e7efe22ab0f2f73a", "blockhash": "00000000000000000004ffacab907a6b429b9a5745fa0b75af4234bf69dd7176", "vout": [{"scriptPubKey": {"reqSigs": 1, "hex": "76a91401b18266cfff38d82b51822aa0bc874b55826ddf88ac", "addresses": ["19xKm5Bit2KVTUREGWoPqddxx3qxb5zQp"], "asm": "OP_DUP OP_HASH160 01b18266cfff38d82b51822aa0bc874b55826ddf OP_EQUALVERIFY OP_CHECKSIG", "type": "pubkeyhash"}, "value": 0.00234373, "n": 0}, {"scriptPubKey": {"reqSigs": 1, "hex": "76a914be9b2372fe97c55f4dc02febe31a7eb8d52a912988ac", "addresses": ["1JNqEfA8PdaD2kbJHdRiPmDY8716rgasyz"], "asm": "OP_DUP OP_HASH160 be9b2372fe97c55f4dc02febe31a7eb8d52a9129 OP_EQUALVERIFY OP_CHECKSIG", "type": "pubkeyhash"}, "value": 0.02596928, "n": 1}], "hex": "010000000138c2649bba4ca24d2eba3082ae3834685cb32db820990c91298d2cf8fd7d9792010000006a4730440220242b5d3d54589f7c534dbecf427e03d5be2677ef359abe035e164aa26fa3528e0220192671f9349befbbd750e9832d39cf51c2ba0d61798f1cdb25be4ba67563115b012102f8ca0ab660177be2a321b30587cd0ae3d7e961b503d6f27dbc6e5e003507825ffdffffff0285930300000000001976a91401b18266cfff38d82b51822aa0bc874b55826ddf88ac40a02700000000001976a914be9b2372fe97c55f4dc02febe31a7eb8d52a912988ac16490800", "vin": [{"sequence": 4294967293, "scriptSig": {"hex": "4730440220242b5d3d54589f7c534dbecf427e03d5be2677ef359abe035e164aa26fa3528e0220192671f9349befbbd750e9832d39cf51c2ba0d61798f1cdb25be4ba67563115b012102f8ca0ab660177be2a321b30587cd0ae3d7e961b503d6f27dbc6e5e003507825f", "asm": "30440220242b5d3d54589f7c534dbecf427e03d5be2677ef359abe035e164aa26fa3528e0220192671f9349befbbd750e9832d39cf51c2ba0d61798f1cdb25be4ba67563115b[ALL] 02f8ca0ab660177be2a321b30587cd0ae3d7e961b503d6f27dbc6e5e003507825f"}, "vout": 1, "txid": "92977dfdf82c8d29910c9920b82db35c683438ae8230ba2e4da24cba9b64c238"}], "txid": "12647e0f71c485487ea764b5bf06d8037dad59632f806ad3e7efe22ab0f2f73a", "blocktime": 1537875543, "version": 1, "confirmations": 11464, "time": 1537875543, "locktime": 542998, "vsize": 225, "size": 225}