{"hash": "773722e292db8e6a93ddac75c65be8dcb96757340a1ea23df86726cfa8dbb7b0", "blockhash": "0000000000000000001f76057863aec43deb6fa401d9628bb513d65a8098bfab", "vout": [{"scriptPubKey": {"reqSigs": 1, "hex": "a9145110ef0a217d52ac16ec0fed0f931e24b626f74987", "addresses": ["395ewfCjthwGo5WN38eKy3WNZFBYS4vtVZ"], "asm": "OP_HASH160 5110ef0a217d52ac16ec0fed0f931e24b626f749 OP_EQUAL", "type": "scripthash"}, "value": 0.00773322, "n": 0}, {"scriptPubKey": {"reqSigs": 1, "hex": "a9147952d128ddb15745b0ad9e983a464437fdd2097487", "addresses": ["3CkWtyzDyschdAQe7hmsh3EmcicQGiC2nK"], "asm": "OP_HASH160 7952d128ddb15745b0ad9e983a464437fdd20974 OP_EQUAL", "type": "scripthash"}, "value": 0.00084453, "n": 1}], "hex": "020000000001013d5b9bbaac49bd4e9055071b5a0df612aec0e01e04fe2a773891eaf7530a9881010000001716001486bc854a0528b4c163dbc935fd1b83a9f26242a4feffffff02cacc0b000000000017a9145110ef0a217d52ac16ec0fed0f931e24b626f74987e54901000000000017a9147952d128ddb15745b0ad9e983a464437fdd209748702473044022029b599c3c22ac1d267b2096763b873361d5662f25e6fc83095da4b91375c85c402201c8587fb72f65854d82539aa0ab56d97ecf5c3e279f3d046a2f1624be8ad01e2012103fb05d6a266560e110335d62b2830f1106975a03dedde604d4d9fd2f0943a835114490800", "vin": [{"txinwitness": ["3044022029b599c3c22ac1d267b2096763b873361d5662f25e6fc83095da4b91375c85c402201c8587fb72f65854d82539aa0ab56d97ecf5c3e279f3d046a2f1624be8ad01e201", "03fb05d6a266560e110335d62b2830f1106975a03dedde604d4d9fd2f0943a8351"], "sequence": 4294967294, "scriptSig": {"hex": "16001486bc854a0528b4c163dbc935fd1b83a9f26242a4", "asm": "001486bc854a0528b4c163dbc935fd1b83a9f26242a4"}, "vout": 1, "txid": "81980a53f7ea9138772afe041ee0c0ae12f60d5a1b0755904ebd49acba9b5b3d"}], "txid": "1271723104e1c7746511ea4e98929cdf12f364a9af3b90d985cb9b011ce0f31b", "blocktime": 1537873891, "version": 2, "confirmations": 11478, "time": 1537873891, "locktime": 542996, "vsize": 166, "size": 247}