{"hash": "ce7441ddb20471e88225d17a84dcb3bbcd9bd696e47c6b8493f1aee9c0739405", "blockhash": "0000000000000000000dcc0f55137456b1a82d3642486a52398922ac4d620174", "vout": [{"scriptPubKey": {"reqSigs": 1, "hex": "a9145875df71fa5b7974ec69b98baff761c9b1a1007487", "addresses": ["39kkbNaVSTSRBFYnJLV7icjfvY1VvCq3ny"], "asm": "OP_HASH160 5875df71fa5b7974ec69b98baff761c9b1a10074 OP_EQUAL", "type": "scripthash"}, "value": 0.00999606, "n": 0}, {"scriptPubKey": {"reqSigs": 1, "hex": "76a914be5a702a0fa1d8b19429425852a42c1c0eb88c3b88ac", "addresses": ["1JMVjCbuxpPf2CADSbtNKQ3iJ7s7Y67cug"], "asm": "OP_DUP OP_HASH160 be5a702a0fa1d8b19429425852a42c1c0eb88c3b OP_EQUALVERIFY OP_CHECKSIG", "type": "pubkeyhash"}, "value": 0.0041586, "n": 1}], "hex": "020000000001021f9d68ed5ae9e85972b9b5e0182e1e9d669e28df385d6d4c7c2dc233847140ab0000000017160014309a3b7ec01a5554d0e501e09e6ae5d1a3f8aed2feffffff2dc249f7e5520f11e65d995edfa54262c702edb49903b6522473a7cacc12a10c00000000171600142e90c75d7c7c56c5496b0607a6084c4e1637d280feffffff02b6400f000000000017a9145875df71fa5b7974ec69b98baff761c9b1a100748774580600000000001976a914be5a702a0fa1d8b19429425852a42c1c0eb88c3b88ac0247304402200a043137620f343891d9bb494485f5014483d49f99faa5d869d21344c0424b78022003c3102ebde50aec0eac3a96b089d224b6f535ac7ceb95aad5f1b2a598835570012103da422649a4883cf528a1a1c37d352b7e2b7eb0b34ee7f1e095a6dc12bf764bc802483045022100ea23c82c5bce1d7684a1fd8773b0f4fd3a503bdfb893d62dbc987d81eb9fee1d0220581c3e6bdcce0aefe6cd2cb8d50841cc0b0f17bca095aed1f22c4118cebf9e48012103229e2ee7c52fea18d05c4308f4bbe620b7601b35ec96efb460e6ba18b5445cd20c490800", "vin": [{"txinwitness": ["304402200a043137620f343891d9bb494485f5014483d49f99faa5d869d21344c0424b78022003c3102ebde50aec0eac3a96b089d224b6f535ac7ceb95aad5f1b2a59883557001", "03da422649a4883cf528a1a1c37d352b7e2b7eb0b34ee7f1e095a6dc12bf764bc8"], "sequence": 4294967294, "scriptSig": {"hex": "160014309a3b7ec01a5554d0e501e09e6ae5d1a3f8aed2", "asm": "0014309a3b7ec01a5554d0e501e09e6ae5d1a3f8aed2"}, "vout": 0, "txid": "ab40718433c22d7c4c6d5d38df289e669d1e2e18e0b5b97259e8e95aed689d1f"}, {"txinwitness": ["3045022100ea23c82c5bce1d7684a1fd8773b0f4fd3a503bdfb893d62dbc987d81eb9fee1d0220581c3e6bdcce0aefe6cd2cb8d50841cc0b0f17bca095aed1f22c4118cebf9e4801", "03229e2ee7c52fea18d05c4308f4bbe620b7601b35ec96efb460e6ba18b5445cd2"], "sequence": 4294967294, "scriptSig": {"hex": "1600142e90c75d7c7c56c5496b0607a6084c4e1637d280", "asm": "00142e90c75d7c7c56c5496b0607a6084c4e1637d280"}, "vout": 0, "txid": "0ca112cccaa7732452b60399b4ed02c76242a5df5e995de6110f52e5f749c22d"}], "txid": "1271730db12584f4bf52c090ba05c1516bb757f73f864b2132411bf54ca776b6", "blocktime": 1537870268, "version": 2, "confirmations": 11518, "time": 1537870268, "locktime": 542988, "vsize": 259, "size": 421}