{"hash": "127b4e5bc2511e709e4f095bf0e80b11250d10bf4f2212495892433d7b836d19", "blockhash": "0000000000000000000dcc0f55137456b1a82d3642486a52398922ac4d620174", "vout": [{"scriptPubKey": {"reqSigs": 1, "hex": "76a914284b1f894ca72430de8f19952125b6016a9dc7c688ac", "addresses": ["14g42KnXkRFfR8cUtS5tReprjeNvGQKW9v"], "asm": "OP_DUP OP_HASH160 284b1f894ca72430de8f19952125b6016a9dc7c6 OP_EQUALVERIFY OP_CHECKSIG", "type": "pubkeyhash"}, "value": 0.14452329, "n": 0}, {"scriptPubKey": {"type": "nulldata", "hex": "6a146f6d6e69000000000000001f00000004a817c800", "asm": "OP_RETURN 6f6d6e69000000000000001f00000004a817c800"}, "value": 0.0, "n": 1}, {"scriptPubKey": {"reqSigs": 1, "hex": "76a91413ab968ab92a226291e2d2565984d7db2d9eba3688ac", "addresses": ["12o1Pnvc132Lbvd1dZEAdnYzKAmN2zky7m"], "asm": "OP_DUP OP_HASH160 13ab968ab92a226291e2d2565984d7db2d9eba36 OP_EQUALVERIFY OP_CHECKSIG", "type": "pubkeyhash"}, "value": 5.46e-06, "n": 2}], "hex": "0100000001b804ef5d1963722076c41581d0f2ffb36d09550f3fc69030402c62f51266460c020000006a47304402200b4fb407c9f2f401da01118e8e9b84dd6722483b9266bfa4bfb9c5c71fa1c1cb02202362b5e75c4589b9d86831bec4a8845315533f9d0c7c66a2689acd621416ad2801210392260b2475e9dec1855e89404d00787579055270f3f1619ec29bd64ed6a6dd7dfeffffff036986dc00000000001976a914284b1f894ca72430de8f19952125b6016a9dc7c688ac0000000000000000166a146f6d6e69000000000000001f00000004a817c80022020000000000001976a91413ab968ab92a226291e2d2565984d7db2d9eba3688ac0c490800", "vin": [{"sequence": 4294967294, "scriptSig": {"hex": "47304402200b4fb407c9f2f401da01118e8e9b84dd6722483b9266bfa4bfb9c5c71fa1c1cb02202362b5e75c4589b9d86831bec4a8845315533f9d0c7c66a2689acd621416ad2801210392260b2475e9dec1855e89404d00787579055270f3f1619ec29bd64ed6a6dd7d", "asm": "304402200b4fb407c9f2f401da01118e8e9b84dd6722483b9266bfa4bfb9c5c71fa1c1cb02202362b5e75c4589b9d86831bec4a8845315533f9d0c7c66a2689acd621416ad28[ALL] 0392260b2475e9dec1855e89404d00787579055270f3f1619ec29bd64ed6a6dd7d"}, "vout": 2, "txid": "0c466612f5622c403090c63f0f55096db3fff2d08115c476207263195def04b8"}], "txid": "127b4e5bc2511e709e4f095bf0e80b11250d10bf4f2212495892433d7b836d19", "blocktime": 1537870268, "version": 1, "confirmations": 11516, "time": 1537870268, "locktime": 542988, "vsize": 256, "size": 256}