{"hash": "128303eab904b965c1fa38ba9b76ccf41c6eb0dd3fd7577fdb5b1d1211eaa5bd", "blockhash": "00000000000000000018f53835495a110e01622372bf6ae95dc86f2b0ab887b0", "vout": [{"scriptPubKey": {"reqSigs": 1, "hex": "76a9148b419879fdf22e8fcc6eca42244a93c2f4ab458b88ac", "addresses": ["1DhKWKzRDdDA6cGgNyHhhTfjTTeWd3o3XG"], "asm": "OP_DUP OP_HASH160 8b419879fdf22e8fcc6eca42244a93c2f4ab458b OP_EQUALVERIFY OP_CHECKSIG", "type": "pubkeyhash"}, "value": 0.62084347, "n": 0}, {"scriptPubKey": {"reqSigs": 1, "hex": "a914918a83261bd16bc16604acc759a308fe56733c4a87", "addresses": ["3ExZqMyir8KZt3vRHTxo2kzD73g6DeTgLr"], "asm": "OP_HASH160 918a83261bd16bc16604acc759a308fe56733c4a OP_EQUAL", "type": "scripthash"}, "value": 2.389449, "n": 1}], "hex": "01000000017f921c89965786e44b978d2985cca3d9120941506fb3dfdb39bb6c940cce4034000000006b483045022100a5c7bca71ea7de7f836509d34b34ff3d4ba1ad7602b392c7ded13d9a9c5367a802200212dda0d925708c336840ff64ee5862f18ec8cc9a126b20ddc93fffe254112d0121024b33d22de496f7e13106fb4d99c959186392008a774adee5c5a79de25b988bbaffffffff02fb54b303000000001976a9148b419879fdf22e8fcc6eca42244a93c2f4ab458b88ac84023e0e0000000017a914918a83261bd16bc16604acc759a308fe56733c4a8700000000", "vin": [{"sequence": 4294967295, "scriptSig": {"hex": "483045022100a5c7bca71ea7de7f836509d34b34ff3d4ba1ad7602b392c7ded13d9a9c5367a802200212dda0d925708c336840ff64ee5862f18ec8cc9a126b20ddc93fffe254112d0121024b33d22de496f7e13106fb4d99c959186392008a774adee5c5a79de25b988bba", "asm": "3045022100a5c7bca71ea7de7f836509d34b34ff3d4ba1ad7602b392c7ded13d9a9c5367a802200212dda0d925708c336840ff64ee5862f18ec8cc9a126b20ddc93fffe254112d[ALL] 024b33d22de496f7e13106fb4d99c959186392008a774adee5c5a79de25b988bba"}, "vout": 0, "txid": "3440ce0c946cbb39dbdfb36f50410912d9a3cc85298d974be4865796891c927f"}], "txid": "128303eab904b965c1fa38ba9b76ccf41c6eb0dd3fd7577fdb5b1d1211eaa5bd", "blocktime": 1537870928, "version": 1, "confirmations": 11512, "time": 1537870928, "locktime": 0, "vsize": 224, "size": 224}