{"hash": "128351951d261060b5c2902a713c3e1d0f2f759ff32c8f4995e20110e4e5db8c", "blockhash": "0000000000000000000dcc0f55137456b1a82d3642486a52398922ac4d620174", "vout": [{"scriptPubKey": {"reqSigs": 1, "hex": "76a914686bd13343d6549948818208cedeae54298cdbed88ac", "addresses": ["1AX8SDkv3aVPEBcSCsHsVh4nD8okxX1YCr"], "asm": "OP_DUP OP_HASH160 686bd13343d6549948818208cedeae54298cdbed OP_EQUALVERIFY OP_CHECKSIG", "type": "pubkeyhash"}, "value": 0.00750019, "n": 0}], "hex": "01000000018c683f03c0dacd8f1920818e5e0ce40a40ec0793aaed87dad23d7231b05f1dfa000000006a473044022047180e39a948f2974e24212f0e245909f5df489c1544ab6bc08609ab6b9f8827022036c68b607f899c657377cd6339b30fde8436f6b1df899ad09f6ec4a63c40a4f40121033fe03886d87b3367b1b1c70daca6a2631cf0f9afe1c2118510dd80309a9b07a4ffffffff01c3710b00000000001976a914686bd13343d6549948818208cedeae54298cdbed88ac00000000", "vin": [{"sequence": 4294967295, "scriptSig": {"hex": "473044022047180e39a948f2974e24212f0e245909f5df489c1544ab6bc08609ab6b9f8827022036c68b607f899c657377cd6339b30fde8436f6b1df899ad09f6ec4a63c40a4f40121033fe03886d87b3367b1b1c70daca6a2631cf0f9afe1c2118510dd80309a9b07a4", "asm": "3044022047180e39a948f2974e24212f0e245909f5df489c1544ab6bc08609ab6b9f8827022036c68b607f899c657377cd6339b30fde8436f6b1df899ad09f6ec4a63c40a4f4[ALL] 033fe03886d87b3367b1b1c70daca6a2631cf0f9afe1c2118510dd80309a9b07a4"}, "vout": 0, "txid": "fa1d5fb031723dd2da87edaa9307ec400ae40c5e8e8120198fcddac0033f688c"}], "txid": "128351951d261060b5c2902a713c3e1d0f2f759ff32c8f4995e20110e4e5db8c", "blocktime": 1537870268, "version": 1, "confirmations": 11516, "time": 1537870268, "locktime": 0, "vsize": 191, "size": 191}