{"hash": "12894a688525a404cfc83231c5d514fee63362fe4502a3891a4767a24719f4bb", "blockhash": "0000000000000000001f76057863aec43deb6fa401d9628bb513d65a8098bfab", "vout": [{"scriptPubKey": {"reqSigs": 1, "hex": "76a914d26fc0488e1d936ffb7a9571273512d1ad190fb588ac", "addresses": ["1LBgmtUKhERGAHPGs81rSqF8cg5Zjaarxd"], "asm": "OP_DUP OP_HASH160 d26fc0488e1d936ffb7a9571273512d1ad190fb5 OP_EQUALVERIFY OP_CHECKSIG", "type": "pubkeyhash"}, "value": 0.04997966, "n": 0}, {"scriptPubKey": {"reqSigs": 1, "hex": "a9140bf931ffc6e4b86b4b20530204a0b1fafa541a5987", "addresses": ["32nKt3i4g7sAzLzgeWWYf4266dmddHNW3C"], "asm": "OP_HASH160 0bf931ffc6e4b86b4b20530204a0b1fafa541a59 OP_EQUAL", "type": "scripthash"}, "value": 0.05, "n": 1}], "hex": "0100000001734c48123c668b0bdff47dd6fb612b4ee64b21a13100ffe98f44029fe819d6c8010000006a473044022079c35da19c6054628ee7e03c66d85befe94d66851556d5a46550a5ba048779ed022047c6daf018ecd0cf1065887131e56fb30e89b32a0c8ee92ab3511865656d997d012102839be695fb7f48503da39ff6ad40b625b492647c337a01e91dcba6b22004c591ffffffff024e434c00000000001976a914d26fc0488e1d936ffb7a9571273512d1ad190fb588ac404b4c000000000017a9140bf931ffc6e4b86b4b20530204a0b1fafa541a598700000000", "vin": [{"sequence": 4294967295, "scriptSig": {"hex": "473044022079c35da19c6054628ee7e03c66d85befe94d66851556d5a46550a5ba048779ed022047c6daf018ecd0cf1065887131e56fb30e89b32a0c8ee92ab3511865656d997d012102839be695fb7f48503da39ff6ad40b625b492647c337a01e91dcba6b22004c591", "asm": "3044022079c35da19c6054628ee7e03c66d85befe94d66851556d5a46550a5ba048779ed022047c6daf018ecd0cf1065887131e56fb30e89b32a0c8ee92ab3511865656d997d[ALL] 02839be695fb7f48503da39ff6ad40b625b492647c337a01e91dcba6b22004c591"}, "vout": 1, "txid": "c8d619e89f02448fe9ff0031a1214be64e2b61fbd67df4df0b8b663c12484c73"}], "txid": "12894a688525a404cfc83231c5d514fee63362fe4502a3891a4767a24719f4bb", "blocktime": 1537873891, "version": 1, "confirmations": 11478, "time": 1537873891, "locktime": 0, "vsize": 223, "size": 223}