{"hash": "128c92867801d135c6cc99ef3bf584f6775fb7543a9fed71f848aaac93e921b8", "blockhash": "0000000000000000000dcc0f55137456b1a82d3642486a52398922ac4d620174", "vout": [{"scriptPubKey": {"reqSigs": 1, "hex": "76a91418f2801132d581c6307e021d04b803aa91967ff488ac", "addresses": ["13GuipREro5uW2gCfJCQHNfHNLbseHRVnn"], "asm": "OP_DUP OP_HASH160 18f2801132d581c6307e021d04b803aa91967ff4 OP_EQUALVERIFY OP_CHECKSIG", "type": "pubkeyhash"}, "value": 0.23095238, "n": 0}, {"scriptPubKey": {"reqSigs": 1, "hex": "76a91474f45694d61d5e6ddb5ff6ffd3de59730e985bc788ac", "addresses": ["1BfQ6AnTTpCxRDznBjjd2YnRuTU6KCi454"], "asm": "OP_DUP OP_HASH160 74f45694d61d5e6ddb5ff6ffd3de59730e985bc7 OP_EQUALVERIFY OP_CHECKSIG", "type": "pubkeyhash"}, "value": 0.42550837, "n": 1}, {"scriptPubKey": {"reqSigs": 1, "hex": "a9142a4807e03f94b1b16dd5c73beb45f47deb86fea187", "addresses": ["35YabPLcqfMFwQJ7DTkg7ooqB95ry6aLaT"], "asm": "OP_HASH160 2a4807e03f94b1b16dd5c73beb45f47deb86fea1 OP_EQUAL", "type": "scripthash"}, "value": 0.09048861, "n": 2}, {"scriptPubKey": {"reqSigs": 1, "hex": "a914ef26aaa29c2a5c43454f1e0f78abc894e4b36bd087", "addresses": ["3PVXjzMsyKUk71s9Sss3aChfFA6Mq3vzCV"], "asm": "OP_HASH160 ef26aaa29c2a5c43454f1e0f78abc894e4b36bd0 OP_EQUAL", "type": "scripthash"}, "value": 1.0, "n": 3}], "hex": "0100000001168e46bf46535058e0249542647990833b6fb94deada391e01f4b2af7d7ba465030000006a4730440220074532a08c3a8f8d5cfde28330fea14220882ff69f6870d0dda104988b99c38f02202e59db3c60bf1d367d0bc342a30bfd310a6d57fb6d38037f0a65b5357740137a0121037fc087cb588a64e9e0b732e1db5639e275f7db8c57396b63cfb972d9190f90d3ffffffff04c6676001000000001976a91418f2801132d581c6307e021d04b803aa91967ff488ac35468902000000001976a91474f45694d61d5e6ddb5ff6ffd3de59730e985bc788ac1d138a000000000017a9142a4807e03f94b1b16dd5c73beb45f47deb86fea18700e1f5050000000017a914ef26aaa29c2a5c43454f1e0f78abc894e4b36bd08700000000", "vin": [{"sequence": 4294967295, "scriptSig": {"hex": "4730440220074532a08c3a8f8d5cfde28330fea14220882ff69f6870d0dda104988b99c38f02202e59db3c60bf1d367d0bc342a30bfd310a6d57fb6d38037f0a65b5357740137a0121037fc087cb588a64e9e0b732e1db5639e275f7db8c57396b63cfb972d9190f90d3", "asm": "30440220074532a08c3a8f8d5cfde28330fea14220882ff69f6870d0dda104988b99c38f02202e59db3c60bf1d367d0bc342a30bfd310a6d57fb6d38037f0a65b5357740137a[ALL] 037fc087cb588a64e9e0b732e1db5639e275f7db8c57396b63cfb972d9190f90d3"}, "vout": 3, "txid": "65a47b7dafb2f4011e39daea4db96f3b83907964429524e058505346bf468e16"}], "txid": "128c92867801d135c6cc99ef3bf584f6775fb7543a9fed71f848aaac93e921b8", "blocktime": 1537870268, "version": 1, "confirmations": 11516, "time": 1537870268, "locktime": 0, "vsize": 289, "size": 289}