{"hash": "128c60ba1cda5dd407fe632f6e3df25f8ceaf90e4063f42bd347f34ace0a71d5", "blockhash": "0000000000000000001cda96e906b7601b7a6fb1a3b62bca570a9e5d8f4b3de1", "vout": [{"scriptPubKey": {"reqSigs": 1, "hex": "76a9144a0f1e2f2b0d7daeec5265f10bbbbe08ed725e8988ac", "addresses": ["17kb7c9ndg7ioSuzMWEHWECdEVUegNkcGc"], "asm": "OP_DUP OP_HASH160 4a0f1e2f2b0d7daeec5265f10bbbbe08ed725e89 OP_EQUALVERIFY OP_CHECKSIG", "type": "pubkeyhash"}, "value": 0.00089261, "n": 0}], "hex": "01000000011d0b558401b1866ccec291af304f1b02d45592a8b90b3a4c62652636b01bb0b0000000006b483045022100b29494c9c0d2c20ac658cb0bdf6f41d5aab816c915fd744e0ccb1b8bbed6d31f022067a092fc88b04142c9eb324a4b990e163a0630ad3f092b96db69e65f06b8bfe9012102bbcb734c6d1048587cef0726e95f51575bd960f9826795dd99b1ade71565eaa0ffffffff01ad5c0100000000001976a9144a0f1e2f2b0d7daeec5265f10bbbbe08ed725e8988ac00000000", "vin": [{"sequence": 4294967295, "scriptSig": {"hex": "483045022100b29494c9c0d2c20ac658cb0bdf6f41d5aab816c915fd744e0ccb1b8bbed6d31f022067a092fc88b04142c9eb324a4b990e163a0630ad3f092b96db69e65f06b8bfe9012102bbcb734c6d1048587cef0726e95f51575bd960f9826795dd99b1ade71565eaa0", "asm": "3045022100b29494c9c0d2c20ac658cb0bdf6f41d5aab816c915fd744e0ccb1b8bbed6d31f022067a092fc88b04142c9eb324a4b990e163a0630ad3f092b96db69e65f06b8bfe9[ALL] 02bbcb734c6d1048587cef0726e95f51575bd960f9826795dd99b1ade71565eaa0"}, "vout": 0, "txid": "b0b01bb0362665624c3a0bb9a89255d4021b4f30af91c2ce6c86b10184550b1d"}], "txid": "128c60ba1cda5dd407fe632f6e3df25f8ceaf90e4063f42bd347f34ace0a71d5", "blocktime": 1537873282, "version": 1, "confirmations": 11482, "time": 1537873282, "locktime": 0, "vsize": 192, "size": 192}