{"hash": "129297d287f37aad199c42c5a113a502e6411a6145ee7219461034200b47e4a7", "blockhash": "0000000000000000000dcc0f55137456b1a82d3642486a52398922ac4d620174", "vout": [{"scriptPubKey": {"reqSigs": 1, "hex": "76a914d142b66ece0d2ef685ecb9d4bb58c300197a19be88ac", "addresses": ["1L5U9NJN2QZAY2FULYJpdv1WfS3sRMr4yL"], "asm": "OP_DUP OP_HASH160 d142b66ece0d2ef685ecb9d4bb58c300197a19be OP_EQUALVERIFY OP_CHECKSIG", "type": "pubkeyhash"}, "value": 0.001492, "n": 0}, {"scriptPubKey": {"type": "nulldata", "hex": "6a4c50000077760001289af6db5aa7155404994516bcbefa6b8351586b4e86aeaeacb577c031fc4be3474d14b6f32469216d99516ca4025baa09660614909024164bf4bc9a9526289ac0f6612cd74e33776ee4", "asm": "OP_RETURN 000077760001289af6db5aa7155404994516bcbefa6b8351586b4e86aeaeacb577c031fc4be3474d14b6f32469216d99516ca4025baa09660614909024164bf4bc9a9526289ac0f6612cd74e33776ee4"}, "value": 0.0, "n": 1}], "hex": "010000000147ed2d3d2dc3b1ab66b6cca814f9ed84bc92921b34180edf4d8566580473286e000000006b483045022100895870b010b2bf78e52c88beb54acdddc11a0b508f096067f2437264557251e802206020a2a976c0513beb51488b60795a92a412f63f571e5f0a909da15d579d68b7012102636d50cf6633f87c6b480a680019c7c4bdcb4ef64fd359123f56f9afce8ea7a2ffffffff02d0460200000000001976a914d142b66ece0d2ef685ecb9d4bb58c300197a19be88ac0000000000000000536a4c50000077760001289af6db5aa7155404994516bcbefa6b8351586b4e86aeaeacb577c031fc4be3474d14b6f32469216d99516ca4025baa09660614909024164bf4bc9a9526289ac0f6612cd74e33776ee400000000", "vin": [{"sequence": 4294967295, "scriptSig": {"hex": "483045022100895870b010b2bf78e52c88beb54acdddc11a0b508f096067f2437264557251e802206020a2a976c0513beb51488b60795a92a412f63f571e5f0a909da15d579d68b7012102636d50cf6633f87c6b480a680019c7c4bdcb4ef64fd359123f56f9afce8ea7a2", "asm": "3045022100895870b010b2bf78e52c88beb54acdddc11a0b508f096067f2437264557251e802206020a2a976c0513beb51488b60795a92a412f63f571e5f0a909da15d579d68b7[ALL] 02636d50cf6633f87c6b480a680019c7c4bdcb4ef64fd359123f56f9afce8ea7a2"}, "vout": 0, "txid": "6e2873045866854ddf0e18341b9292bc84edf914a8ccb666abb1c32d3d2ded47"}], "txid": "129297d287f37aad199c42c5a113a502e6411a6145ee7219461034200b47e4a7", "blocktime": 1537870268, "version": 1, "confirmations": 11518, "time": 1537870268, "locktime": 0, "vsize": 284, "size": 284}