{"hash": "1293099f6a1e3e4f8265ba28130af1f57a546ccad36e7836fcdf9c8d45c2dae5", "blockhash": "0000000000000000001cda96e906b7601b7a6fb1a3b62bca570a9e5d8f4b3de1", "vout": [{"scriptPubKey": {"reqSigs": 1, "hex": "76a914ad0f54297baf58dcd4d1115081cf231ed4db180988ac", "addresses": ["1Gn4GFMPKPUnvP5MPo98JqhwDe383jmGxL"], "asm": "OP_DUP OP_HASH160 ad0f54297baf58dcd4d1115081cf231ed4db1809 OP_EQUALVERIFY OP_CHECKSIG", "type": "pubkeyhash"}, "value": 0.01139017, "n": 0}, {"scriptPubKey": {"reqSigs": 1, "hex": "76a914bba5f79235e3dcef0faa72568cf632431de076af88ac", "addresses": ["1J7CBU5L6ws1HSLvbHgVc2V4W7mSoe995B"], "asm": "OP_DUP OP_HASH160 bba5f79235e3dcef0faa72568cf632431de076af OP_EQUALVERIFY OP_CHECKSIG", "type": "pubkeyhash"}, "value": 0.61319868, "n": 1}], "hex": "01000000011be7b699aef2e51f0740ecb36edc5c17fd4966ec2711284d66b9d735b4d35892010000006b483045022100cd0e67663c39d6aead9f42614fddab22efc2b9c10339f75d63ff51b20cd0dd25022039281012751d5704655e094a42e83e8c2bba475e040c599360b8feaf7f791c3c0121031e8db35f30ce7be2cc27cceaf731b7c5cb0468352a46a74b74528f65ce538cfdfdffffff0249611100000000001976a914ad0f54297baf58dcd4d1115081cf231ed4db180988acbcaaa703000000001976a914bba5f79235e3dcef0faa72568cf632431de076af88ac13490800", "vin": [{"sequence": 4294967293, "scriptSig": {"hex": "483045022100cd0e67663c39d6aead9f42614fddab22efc2b9c10339f75d63ff51b20cd0dd25022039281012751d5704655e094a42e83e8c2bba475e040c599360b8feaf7f791c3c0121031e8db35f30ce7be2cc27cceaf731b7c5cb0468352a46a74b74528f65ce538cfd", "asm": "3045022100cd0e67663c39d6aead9f42614fddab22efc2b9c10339f75d63ff51b20cd0dd25022039281012751d5704655e094a42e83e8c2bba475e040c599360b8feaf7f791c3c[ALL] 031e8db35f30ce7be2cc27cceaf731b7c5cb0468352a46a74b74528f65ce538cfd"}, "vout": 1, "txid": "9258d3b435d7b9664d281127ec6649fd175cdc6eb3ec40071fe5f2ae99b6e71b"}], "txid": "1293099f6a1e3e4f8265ba28130af1f57a546ccad36e7836fcdf9c8d45c2dae5", "blocktime": 1537873282, "version": 1, "confirmations": 11485, "time": 1537873282, "locktime": 542995, "vsize": 226, "size": 226}