{"hash": "12939b7089d067d3836e05de827b91ae788b3fb8520e898247618deb69ac2941", "blockhash": "000000000000000000022b45ed06c6f4ccd3cf7fb5ba4856ebd2e58215665228", "vout": [{"scriptPubKey": {"reqSigs": 1, "hex": "76a9145abf147197313cc6bb6885757b0055b8177bbb8788ac", "addresses": ["19Gpij7QNi2JbiXEf61rvhPPhe2HeZrQbC"], "asm": "OP_DUP OP_HASH160 5abf147197313cc6bb6885757b0055b8177bbb87 OP_EQUALVERIFY OP_CHECKSIG", "type": "pubkeyhash"}, "value": 0.049447, "n": 0}, {"scriptPubKey": {"reqSigs": 1, "hex": "76a9145a670d7e03324c2431e3030b8b2e2aeef7c96c8088ac", "addresses": ["19F1GVYZrf8iABLbtxN3eFTme5yKP4m3bS"], "asm": "OP_DUP OP_HASH160 5a670d7e03324c2431e3030b8b2e2aeef7c96c80 OP_EQUALVERIFY OP_CHECKSIG", "type": "pubkeyhash"}, "value": 16.60634034, "n": 1}], "hex": "0200000001ea9afe5464ca005c1b0132a0dad69098b5b67a2c25d53d6430c9fed9ae8e02ed010000006a473044022036b3b2518c9dd171f96859f5da97b4a3a0da15cc56b8234941d34439fc1ab0ee022006459c7a8cdba527ae9a2db93461b774519848bf2d6c5b9a9f66caeb34bc2ada01210392ad03d6a78a4fabc1db7459d171217701f1fc60e14cd6d431c16c8bf3092b7bffffffff023c734b00000000001976a9145abf147197313cc6bb6885757b0055b8177bbb8788acb243fb62000000001976a9145a670d7e03324c2431e3030b8b2e2aeef7c96c8088ac00000000", "vin": [{"sequence": 4294967295, "scriptSig": {"hex": "473044022036b3b2518c9dd171f96859f5da97b4a3a0da15cc56b8234941d34439fc1ab0ee022006459c7a8cdba527ae9a2db93461b774519848bf2d6c5b9a9f66caeb34bc2ada01210392ad03d6a78a4fabc1db7459d171217701f1fc60e14cd6d431c16c8bf3092b7b", "asm": "3044022036b3b2518c9dd171f96859f5da97b4a3a0da15cc56b8234941d34439fc1ab0ee022006459c7a8cdba527ae9a2db93461b774519848bf2d6c5b9a9f66caeb34bc2ada[ALL] 0392ad03d6a78a4fabc1db7459d171217701f1fc60e14cd6d431c16c8bf3092b7b"}, "vout": 1, "txid": "ed028eaed9fec930643dd5252c7ab6b59890d6daa032011b5c00ca6454fe9aea"}], "txid": "12939b7089d067d3836e05de827b91ae788b3fb8520e898247618deb69ac2941", "blocktime": 1537869901, "version": 2, "confirmations": 11524, "time": 1537869901, "locktime": 0, "vsize": 225, "size": 225}