{"hash": "394119a010996d49fabbe7ba1f92385a61041658091384f6b269cbdaff6af606", "blockhash": "0000000000000000001f0ddff1eddb255c1121bcd4da4f1bc9a0da00cae72433", "vout": [{"scriptPubKey": {"reqSigs": 1, "hex": "0014a40dc6b9d6469fdc0f5a262b7d7c1a795a73d607", "addresses": ["bc1q5sxudwwkg60acr66yc4h6lq609d884s8yx4ff6"], "asm": "0 a40dc6b9d6469fdc0f5a262b7d7c1a795a73d607", "type": "witness_v0_keyhash"}, "value": 7.654e-05, "n": 0}, {"scriptPubKey": {"reqSigs": 1, "hex": "76a914972fec99da565f4d80bf5bfa796d62bc4a7dc4d488ac", "addresses": ["1EnQSoPP1sFpmrodrqqkcLKqemmBR3jRj3"], "asm": "OP_DUP OP_HASH160 972fec99da565f4d80bf5bfa796d62bc4a7dc4d4 OP_EQUALVERIFY OP_CHECKSIG", "type": "pubkeyhash"}, "value": 0.01008954, "n": 1}], "hex": "01000000000101a2d178cb625e17e1140758ec09b7a126b5f81aafbb49f8dc0bb93818b68848fb040000001716001441b1c9e1fc3ce6ea081eeaa8a724bec13d43cb7affffffff02e61d000000000000160014a40dc6b9d6469fdc0f5a262b7d7c1a795a73d6073a650f00000000001976a914972fec99da565f4d80bf5bfa796d62bc4a7dc4d488ac02473044022016e4e06bdbd3f574ba5044af6c95b2342eaad15f3bebbc8d1bd60c554916141f0220122208263bb534dc7b7a0c1668d8f8629367f82ecf4c54fc437949ac12e80a7a012102492da6cbb6ecb7f802197c2a69b75e3d01f82f6b3d2cafdca11029f77b3e4f8b00000000", "vin": [{"txinwitness": ["3044022016e4e06bdbd3f574ba5044af6c95b2342eaad15f3bebbc8d1bd60c554916141f0220122208263bb534dc7b7a0c1668d8f8629367f82ecf4c54fc437949ac12e80a7a01", "02492da6cbb6ecb7f802197c2a69b75e3d01f82f6b3d2cafdca11029f77b3e4f8b"], "sequence": 4294967295, "scriptSig": {"hex": "16001441b1c9e1fc3ce6ea081eeaa8a724bec13d43cb7a", "asm": "001441b1c9e1fc3ce6ea081eeaa8a724bec13d43cb7a"}, "vout": 4, "txid": "fb4888b61838b90bdcf849bbaf1af8b526a1b709ec580714e1175e62cb78d1a2"}], "txid": "129680a33165b2ff1d52781f72147f5f23d25330021fb4a6dddeccfb3c7614c9", "blocktime": 1537872018, "version": 1, "confirmations": 11489, "time": 1537872018, "locktime": 0, "vsize": 167, "size": 248}