{"hash": "12996839e867e5b8987d2d72420b0318c5854f1c0a7fa276ef797d93d402ccb8", "blockhash": "000000000000000000022b45ed06c6f4ccd3cf7fb5ba4856ebd2e58215665228", "vout": [{"scriptPubKey": {"reqSigs": 1, "hex": "76a9147362fce3ef27fcbb6a47d709e83200801c4db99188ac", "addresses": ["1BX7HriHc9W33Vu77iEcWraexRf2FVLxny"], "asm": "OP_DUP OP_HASH160 7362fce3ef27fcbb6a47d709e83200801c4db991 OP_EQUALVERIFY OP_CHECKSIG", "type": "pubkeyhash"}, "value": 2.74825645, "n": 0}, {"scriptPubKey": {"reqSigs": 1, "hex": "76a91450bcf6a3560bf46ff75c92a83e4e9eac2cc82e2888ac", "addresses": ["18MuRkqDG5JY6yhsv3cWJtuWXs1JP71pL8"], "asm": "OP_DUP OP_HASH160 50bcf6a3560bf46ff75c92a83e4e9eac2cc82e28 OP_EQUALVERIFY OP_CHECKSIG", "type": "pubkeyhash"}, "value": 0.00531, "n": 1}], "hex": "01000000011658cb2a8afc01308cca595f66893605bece88067c6ced749977c180eee0023b010000006b483045022100a4052fae798e1853ec4c7ad6022d30246f4774c5668e5239126625642929125b02203c70924209e681918a22fb9280e360e64f99c69fcf7dd4b717a1cc789cb171bb01210281f74199b46a66363db13f8620ad668ea62a2110a0f3e071edfb04963705b731ffffffff02ad816110000000001976a9147362fce3ef27fcbb6a47d709e83200801c4db99188ac381a0800000000001976a91450bcf6a3560bf46ff75c92a83e4e9eac2cc82e2888ac00000000", "vin": [{"sequence": 4294967295, "scriptSig": {"hex": "483045022100a4052fae798e1853ec4c7ad6022d30246f4774c5668e5239126625642929125b02203c70924209e681918a22fb9280e360e64f99c69fcf7dd4b717a1cc789cb171bb01210281f74199b46a66363db13f8620ad668ea62a2110a0f3e071edfb04963705b731", "asm": "3045022100a4052fae798e1853ec4c7ad6022d30246f4774c5668e5239126625642929125b02203c70924209e681918a22fb9280e360e64f99c69fcf7dd4b717a1cc789cb171bb[ALL] 0281f74199b46a66363db13f8620ad668ea62a2110a0f3e071edfb04963705b731"}, "vout": 1, "txid": "3b02e0ee80c1779974ed6c7c0688cebe053689665f59ca8c3001fc8a2acb5816"}], "txid": "12996839e867e5b8987d2d72420b0318c5854f1c0a7fa276ef797d93d402ccb8", "blocktime": 1537869901, "version": 1, "confirmations": 11522, "time": 1537869901, "locktime": 0, "vsize": 226, "size": 226}