{"hash": "12a718cbb15415d95122fc985a3fe73c243d2f32f79c0f4998bd3834a2ed3c31", "blockhash": "0000000000000000000dcc0f55137456b1a82d3642486a52398922ac4d620174", "vout": [{"scriptPubKey": {"reqSigs": 1, "hex": "76a9148ce7d31002b79c5e5704e4a6d4741f0e411b0eef88ac", "addresses": ["1Dr3KJY426e1aYqRBb8zGtswQAVkuUVYuf"], "asm": "OP_DUP OP_HASH160 8ce7d31002b79c5e5704e4a6d4741f0e411b0eef OP_EQUALVERIFY OP_CHECKSIG", "type": "pubkeyhash"}, "value": 0.00951295, "n": 0}, {"scriptPubKey": {"reqSigs": 1, "hex": "76a9145601d6b3a590568f84e65ce00e26af44e06ea93688ac", "addresses": ["18qmKFZY7WWigZDqqUXWKan3EFUknpzamw"], "asm": "OP_DUP OP_HASH160 5601d6b3a590568f84e65ce00e26af44e06ea936 OP_EQUALVERIFY OP_CHECKSIG", "type": "pubkeyhash"}, "value": 0.14416327, "n": 1}], "hex": "0100000001002d3c5a4ed5d186ed06519e8ee21ec6c9ace7ab8103254fe5c49823a85c4c98010000006a47304402204541f3723e4666c5eb8224cf8c9489260788363a20cac4d25bd5c2a85b3702e9022075422a2bd63f8bb445ff905f67b1fc714b37f00252ccd275dc3d722378b4c054012102f41e333fb07e9c59279a3931ad5ffd3f2880cc92fa54119cbf61f7117ecd3633ffffffff02ff830e00000000001976a9148ce7d31002b79c5e5704e4a6d4741f0e411b0eef88acc7f9db00000000001976a9145601d6b3a590568f84e65ce00e26af44e06ea93688ac00000000", "vin": [{"sequence": 4294967295, "scriptSig": {"hex": "47304402204541f3723e4666c5eb8224cf8c9489260788363a20cac4d25bd5c2a85b3702e9022075422a2bd63f8bb445ff905f67b1fc714b37f00252ccd275dc3d722378b4c054012102f41e333fb07e9c59279a3931ad5ffd3f2880cc92fa54119cbf61f7117ecd3633", "asm": "304402204541f3723e4666c5eb8224cf8c9489260788363a20cac4d25bd5c2a85b3702e9022075422a2bd63f8bb445ff905f67b1fc714b37f00252ccd275dc3d722378b4c054[ALL] 02f41e333fb07e9c59279a3931ad5ffd3f2880cc92fa54119cbf61f7117ecd3633"}, "vout": 1, "txid": "984c5ca82398c4e54f250381abe7acc9c61ee28e9e5106ed86d1d54e5a3c2d00"}], "txid": "12a718cbb15415d95122fc985a3fe73c243d2f32f79c0f4998bd3834a2ed3c31", "blocktime": 1537870268, "version": 1, "confirmations": 11518, "time": 1537870268, "locktime": 0, "vsize": 225, "size": 225}