{"hash": "12a8f00c124cae130abadc5e6f31d696860b96c61ea2247deb756b87ed569b57", "blockhash": "0000000000000000000e13cef7c366c0283d82e591d1acd082e914b08063cdf1", "vout": [{"scriptPubKey": {"type": "nulldata", "hex": "6a146f6d6e69000000000000001f000002ba6a43c980", "asm": "OP_RETURN 6f6d6e69000000000000001f000002ba6a43c980"}, "value": 0.0, "n": 0}, {"scriptPubKey": {"reqSigs": 1, "hex": "76a91413a8c5c5786d5db87e80bd99b9ff14f9d70d52bd88ac", "addresses": ["12nx2Afvcgx4yv5hKxGkUY7J4FGTCJG1Gn"], "asm": "OP_DUP OP_HASH160 13a8c5c5786d5db87e80bd99b9ff14f9d70d52bd OP_EQUALVERIFY OP_CHECKSIG", "type": "pubkeyhash"}, "value": 5.46e-06, "n": 1}, {"scriptPubKey": {"reqSigs": 1, "hex": "76a914a25dec4d0011064ef106a983c39c7a540699f22088ac", "addresses": ["1FoWyxwPXuj4C6abqwhjDWdz6D4PZgYRjA"], "asm": "OP_DUP OP_HASH160 a25dec4d0011064ef106a983c39c7a540699f220 OP_EQUALVERIFY OP_CHECKSIG", "type": "pubkeyhash"}, "value": 0.01961614, "n": 2}], "hex": "01000000014fe98605c39cced46fdd75a11c4bec496e9bd4bb15e2b44cc9faa311fc2e217e010000006a47304402203a99a6a4c3b58f22da775dd6954050fe72836e279b754eee2717418761fdea3b02202ec6a490f1cfa02bf782777d7fdd9a0189eb848e8d291205bc2d22d240e0e5bd012103da5bac7b36d5aa38f531c6b9601e21bb598a4b6716ebed38b009a55dabde9440feffffff030000000000000000166a146f6d6e69000000000000001f000002ba6a43c98022020000000000001976a91413a8c5c5786d5db87e80bd99b9ff14f9d70d52bd88ac8eee1d00000000001976a914a25dec4d0011064ef106a983c39c7a540699f22088ac10490800", "vin": [{"sequence": 4294967294, "scriptSig": {"hex": "47304402203a99a6a4c3b58f22da775dd6954050fe72836e279b754eee2717418761fdea3b02202ec6a490f1cfa02bf782777d7fdd9a0189eb848e8d291205bc2d22d240e0e5bd012103da5bac7b36d5aa38f531c6b9601e21bb598a4b6716ebed38b009a55dabde9440", "asm": "304402203a99a6a4c3b58f22da775dd6954050fe72836e279b754eee2717418761fdea3b02202ec6a490f1cfa02bf782777d7fdd9a0189eb848e8d291205bc2d22d240e0e5bd[ALL] 03da5bac7b36d5aa38f531c6b9601e21bb598a4b6716ebed38b009a55dabde9440"}, "vout": 1, "txid": "7e212efc11a3fac94cb4e215bbd49b6e49ec4b1ca175dd6fd4ce9cc30586e94f"}], "txid": "12a8f00c124cae130abadc5e6f31d696860b96c61ea2247deb756b87ed569b57", "blocktime": 1537871767, "version": 1, "confirmations": 11490, "time": 1537871767, "locktime": 542992, "vsize": 256, "size": 256}