{"hash": "12aa73a699692f16fa095c3c2844829854fe4c04cbdc7b4f96fa4a770638c0f9", "blockhash": "00000000000000000004ffacab907a6b429b9a5745fa0b75af4234bf69dd7176", "vout": [{"scriptPubKey": {"reqSigs": 1, "hex": "a914043dc7aff54886614a1b1e96c0f5bdec435855c087", "addresses": ["325SdrzSi6PsVsPfbJQikwAZz45V45aWvG"], "asm": "OP_HASH160 043dc7aff54886614a1b1e96c0f5bdec435855c0 OP_EQUAL", "type": "scripthash"}, "value": 1.40613108, "n": 0}, {"scriptPubKey": {"reqSigs": 1, "hex": "a91469f375de1a3d269fa2cd1a37f7aea7de532aef0387", "addresses": ["3BMEXcUiYDzqLmfpFtcAT2svC5EsubV8aA"], "asm": "OP_HASH160 69f375de1a3d269fa2cd1a37f7aea7de532aef03 OP_EQUAL", "type": "scripthash"}, "value": 1.0, "n": 1}], "hex": "020000000158db427bc22c66165b1fe81267c01a6151ab44c26664c3e2e4ac09f82624abe801000000fdfd00004730440220338b96fcf77119987cd9fd2ee095e9c1716feadc2cf3798f90d7453d15858cd802207db542c969a1ae15b50716ed695fd4f87209559344b23431ff9d363c4a6d518d01483045022100aafc6d7593ddaf8687fe61332090d4897d1bd59dac125c374d76687f8a3d49ac022061dfa781966b5c97682dcf6ebb3679cff5552eef7a63d52113faca424a48010e014c69522103d5104c891a2cd6aae743a8dd07f7644dd29b42066ac579b7e5fe5664e3ea018c2102eca216c196ac9929ad809caafa77f1bb0aa704e4795b43e03b0448142cdbb405210361ff36fe3602c14ef921340b35aa8b09a39fa0715a5465059cd87164ef2a1f0653ae0000000002f49561080000000017a914043dc7aff54886614a1b1e96c0f5bdec435855c08700e1f5050000000017a91469f375de1a3d269fa2cd1a37f7aea7de532aef038700000000", "vin": [{"sequence": 0, "scriptSig": {"hex": "004730440220338b96fcf77119987cd9fd2ee095e9c1716feadc2cf3798f90d7453d15858cd802207db542c969a1ae15b50716ed695fd4f87209559344b23431ff9d363c4a6d518d01483045022100aafc6d7593ddaf8687fe61332090d4897d1bd59dac125c374d76687f8a3d49ac022061dfa781966b5c97682dcf6ebb3679cff5552eef7a63d52113faca424a48010e014c69522103d5104c891a2cd6aae743a8dd07f7644dd29b42066ac579b7e5fe5664e3ea018c2102eca216c196ac9929ad809caafa77f1bb0aa704e4795b43e03b0448142cdbb405210361ff36fe3602c14ef921340b35aa8b09a39fa0715a5465059cd87164ef2a1f0653ae", "asm": "0 30440220338b96fcf77119987cd9fd2ee095e9c1716feadc2cf3798f90d7453d15858cd802207db542c969a1ae15b50716ed695fd4f87209559344b23431ff9d363c4a6d518d[ALL] 3045022100aafc6d7593ddaf8687fe61332090d4897d1bd59dac125c374d76687f8a3d49ac022061dfa781966b5c97682dcf6ebb3679cff5552eef7a63d52113faca424a48010e[ALL] 522103d5104c891a2cd6aae743a8dd07f7644dd29b42066ac579b7e5fe5664e3ea018c2102eca216c196ac9929ad809caafa77f1bb0aa704e4795b43e03b0448142cdbb405210361ff36fe3602c14ef921340b35aa8b09a39fa0715a5465059cd87164ef2a1f0653ae"}, "vout": 1, "txid": "e8ab2426f809ace4e2c36466c244ab51611ac06712e81f5b16662cc27b42db58"}], "txid": "12aa73a699692f16fa095c3c2844829854fe4c04cbdc7b4f96fa4a770638c0f9", "blocktime": 1537875543, "version": 2, "confirmations": 11464, "time": 1537875543, "locktime": 0, "vsize": 370, "size": 370}