{"hash": "f9195c6ca0faabe08779a645a4704a3aad744b341407fbc48d463497a6ff17b1", "blockhash": "00000000000000000024a2167bbff67b0be802c0b01cdd79e6331c2be6459f87", "vout": [{"scriptPubKey": {"reqSigs": 1, "hex": "76a91400e3eca6fa872567af46d84bd054c1ea4c12eb7888ac", "addresses": ["115i3U4RTsC4pvs3jaVt4WqkdH88z6U6WD"], "asm": "OP_DUP OP_HASH160 00e3eca6fa872567af46d84bd054c1ea4c12eb78 OP_EQUALVERIFY OP_CHECKSIG", "type": "pubkeyhash"}, "value": 0.02261388, "n": 0}, {"scriptPubKey": {"reqSigs": 1, "hex": "00143ccfd8a4f7cac2fab16711a567dce1dc463fc198", "addresses": ["bc1q8n8a3f8hetp04vt8zxjk0h8pm3rrlsvc6av3av"], "asm": "0 3ccfd8a4f7cac2fab16711a567dce1dc463fc198", "type": "witness_v0_keyhash"}, "value": 0.00496304, "n": 1}], "hex": "0100000000010198455302720c0b7bf64fe1b075e17b816925a20d6b9b298188581e8e391002c30000000017160014b21e6b3be8aa5a1f3c511910383ff364a3ab64b0ffffffff028c812200000000001976a91400e3eca6fa872567af46d84bd054c1ea4c12eb7888acb0920700000000001600143ccfd8a4f7cac2fab16711a567dce1dc463fc19802483045022100e9d929a568a2da0063f248bf340adb614b10690656913eb7c675b163bf8471da022057c900233a5fe5020fdc306b6c32985ee1f884970bc650b1cbee270e6e0564930121039d0f2dbb428740b70c3e127338f37da55bf747b18119346f57b1dcd4f9b9181d00000000", "vin": [{"txinwitness": ["3045022100e9d929a568a2da0063f248bf340adb614b10690656913eb7c675b163bf8471da022057c900233a5fe5020fdc306b6c32985ee1f884970bc650b1cbee270e6e05649301", "039d0f2dbb428740b70c3e127338f37da55bf747b18119346f57b1dcd4f9b9181d"], "sequence": 4294967295, "scriptSig": {"hex": "160014b21e6b3be8aa5a1f3c511910383ff364a3ab64b0", "asm": "0014b21e6b3be8aa5a1f3c511910383ff364a3ab64b0"}, "vout": 0, "txid": "c30210398e1e588881299b6b0da22569817be175b0e14ff67b0b0c7202534598"}], "txid": "12add0d050186953da8b0a1fa22cb5f37cce619c0eb549d465e81513c412abb3", "blocktime": 1537870564, "version": 1, "confirmations": 11515, "time": 1537870564, "locktime": 0, "vsize": 167, "size": 249}