{"hash": "12b4204afd3e8c6657ac8eb3c602edcca193d2945682891a9838f3b0372ac071", "blockhash": "0000000000000000001e0dab787dd257d1dbfcb92a98c2207d5e1078be1f4165", "vout": [{"scriptPubKey": {"reqSigs": 1, "hex": "76a91490bba8e2ca4d293ca11de25f5e57d3e2ab09dac388ac", "addresses": ["1ECH7T2x115hNpRjzbTZHXuU8Nq41iQP2w"], "asm": "OP_DUP OP_HASH160 90bba8e2ca4d293ca11de25f5e57d3e2ab09dac3 OP_EQUALVERIFY OP_CHECKSIG", "type": "pubkeyhash"}, "value": 0.002376, "n": 0}, {"scriptPubKey": {"reqSigs": 1, "hex": "76a914d19b04a5c59fa79fb26de076ede847835b088b2388ac", "addresses": ["1L7HvwgS8bMsujpoBkKJ2TPUTMDnFQX9wE"], "asm": "OP_DUP OP_HASH160 d19b04a5c59fa79fb26de076ede847835b088b23 OP_EQUALVERIFY OP_CHECKSIG", "type": "pubkeyhash"}, "value": 0.00074749, "n": 1}], "hex": "0100000001d06cdaa1b7eaaf11e3bf115eacd6c6787bab6231369605455fd5f0fae1e06e7e100000006b483045022100d03a890702bb9d87d288d0fd01478c2ef542ee366793292f568a812c81d01bfd02202f7fb913e0168feedbffe10511ca23cb54b5b969b0019a527196f8e0a899ed6b0121023a70c67f96d63fee2ac7158a3caca2f9139fb91a5bae10d2079e63e26115fcc9ffffffff0220a00300000000001976a91490bba8e2ca4d293ca11de25f5e57d3e2ab09dac388acfd230100000000001976a914d19b04a5c59fa79fb26de076ede847835b088b2388ac00000000", "vin": [{"sequence": 4294967295, "scriptSig": {"hex": "483045022100d03a890702bb9d87d288d0fd01478c2ef542ee366793292f568a812c81d01bfd02202f7fb913e0168feedbffe10511ca23cb54b5b969b0019a527196f8e0a899ed6b0121023a70c67f96d63fee2ac7158a3caca2f9139fb91a5bae10d2079e63e26115fcc9", "asm": "3045022100d03a890702bb9d87d288d0fd01478c2ef542ee366793292f568a812c81d01bfd02202f7fb913e0168feedbffe10511ca23cb54b5b969b0019a527196f8e0a899ed6b[ALL] 023a70c67f96d63fee2ac7158a3caca2f9139fb91a5bae10d2079e63e26115fcc9"}, "vout": 16, "txid": "7e6ee0e1faf0d55f450596363162ab7b78c6d6ac5e11bfe311afeab7a1da6cd0"}], "txid": "12b4204afd3e8c6657ac8eb3c602edcca193d2945682891a9838f3b0372ac071", "blocktime": 1537872475, "version": 1, "confirmations": 11487, "time": 1537872475, "locktime": 0, "vsize": 226, "size": 226}