{"hash": "12b7814a855fa37ffcf099277e1c14a603ce9cce6850f8a0dab00e53c40977c5", "blockhash": "0000000000000000001cda96e906b7601b7a6fb1a3b62bca570a9e5d8f4b3de1", "vout": [{"scriptPubKey": {"reqSigs": 1, "hex": "a91469f3755df6034bf2eb018df63d3d758a762ef43d87", "addresses": ["3BMEXUbhVf4sxPnknQBcDV3AfPqtrg8fXQ"], "asm": "OP_HASH160 69f3755df6034bf2eb018df63d3d758a762ef43d OP_EQUAL", "type": "scripthash"}, "value": 0.10799, "n": 0}, {"scriptPubKey": {"reqSigs": 1, "hex": "a91486ed17bfa7bd80cf87cf7e80abd9289079b78c5b87", "addresses": ["3DzSVk4veMCkNbNT9CdETeE26uWxmNbBnD"], "asm": "OP_HASH160 86ed17bfa7bd80cf87cf7e80abd9289079b78c5b OP_EQUAL", "type": "scripthash"}, "value": 8.37770145, "n": 1}], "hex": "02000000013e6235677e9381671396eb50d22d0ff48b4eadb2786ab19f885727a1bafbd4a601000000d90047304402202afdf86a3291c6567cad814fc246ef1bd647afd16ca71d706d084375afb38706022020a1172cc26e03d8f4adb998532eaca575bcb32a2a009677051c8958e466acf401473044022038b6ba2d841cf0ea865b226c6583c27fc623bfda616de3b66bc75759455d1aba02202064c222da07233c0cded8fd0171ba393aaafe39d64533b064a0f88e3bd5916e01475221038934160de8ad1dd529329f5bf51e3086cc0f6d19e10fb4120385f23d871c0c1d21021659435e23e3891d39ec2b0266b3c14a68cb4e45adb8543f31508310c98722d952aeffffffff0298c7a4000000000017a91469f3755df6034bf2eb018df63d3d758a762ef43d87a15bef310000000017a91486ed17bfa7bd80cf87cf7e80abd9289079b78c5b8700000000", "vin": [{"sequence": 4294967295, "scriptSig": {"hex": "0047304402202afdf86a3291c6567cad814fc246ef1bd647afd16ca71d706d084375afb38706022020a1172cc26e03d8f4adb998532eaca575bcb32a2a009677051c8958e466acf401473044022038b6ba2d841cf0ea865b226c6583c27fc623bfda616de3b66bc75759455d1aba02202064c222da07233c0cded8fd0171ba393aaafe39d64533b064a0f88e3bd5916e01475221038934160de8ad1dd529329f5bf51e3086cc0f6d19e10fb4120385f23d871c0c1d21021659435e23e3891d39ec2b0266b3c14a68cb4e45adb8543f31508310c98722d952ae", "asm": "0 304402202afdf86a3291c6567cad814fc246ef1bd647afd16ca71d706d084375afb38706022020a1172cc26e03d8f4adb998532eaca575bcb32a2a009677051c8958e466acf4[ALL] 3044022038b6ba2d841cf0ea865b226c6583c27fc623bfda616de3b66bc75759455d1aba02202064c222da07233c0cded8fd0171ba393aaafe39d64533b064a0f88e3bd5916e[ALL] 5221038934160de8ad1dd529329f5bf51e3086cc0f6d19e10fb4120385f23d871c0c1d21021659435e23e3891d39ec2b0266b3c14a68cb4e45adb8543f31508310c98722d952ae"}, "vout": 1, "txid": "a6d4fbbaa12757889fb16a78b2ad4e8bf40f2dd250eb96136781937e6735623e"}], "txid": "12b7814a855fa37ffcf099277e1c14a603ce9cce6850f8a0dab00e53c40977c5", "blocktime": 1537873282, "version": 2, "confirmations": 11481, "time": 1537873282, "locktime": 0, "vsize": 332, "size": 332}