{"hash": "99e124173ac33113017540b856f3beced16e038df05aeaa3ed269f8bf2c417c0", "blockhash": "00000000000000000004ffacab907a6b429b9a5745fa0b75af4234bf69dd7176", "vout": [{"scriptPubKey": {"reqSigs": 1, "hex": "a9145aa8fd2c8f8c0774b0e8f543eb50115bd59c4bba87", "addresses": ["39xPBNG3jHUJz5BuQsXNjtcfHYrL6y23qw"], "asm": "OP_HASH160 5aa8fd2c8f8c0774b0e8f543eb50115bd59c4bba OP_EQUAL", "type": "scripthash"}, "value": 0.00998662, "n": 0}, {"scriptPubKey": {"reqSigs": 1, "hex": "a914772d9d9316440e0943c8e26f386415a4ccd1b1a387", "addresses": ["3CZAynznmxxGv6YKPJUGNJ9hahcgRQLa48"], "asm": "OP_HASH160 772d9d9316440e0943c8e26f386415a4ccd1b1a3 OP_EQUAL", "type": "scripthash"}, "value": 0.005731, "n": 1}], "hex": "02000000000101f12285088e82b4d99d5cd4b63578151b3d11bf7734af8708d433d9db9ab27faa01000000171600146b698bcd862b3dc3bc0e216f6cfde009d3a70a86feffffff02063d0f000000000017a9145aa8fd2c8f8c0774b0e8f543eb50115bd59c4bba87acbe08000000000017a914772d9d9316440e0943c8e26f386415a4ccd1b1a38702483045022100c3a95382048b0e57838cdb0de40452d1e25a59fdb8ad17e0468ce2b9c3f079e5022022ce1415fcbff2405c2da1b6b09e80a481b70b6da8b928a0ab33933dde7c14600121034cd824cfabe7b2009eccfb75b90ad2dfc295f63672740f545066485f4f8ef46516490800", "vin": [{"txinwitness": ["3045022100c3a95382048b0e57838cdb0de40452d1e25a59fdb8ad17e0468ce2b9c3f079e5022022ce1415fcbff2405c2da1b6b09e80a481b70b6da8b928a0ab33933dde7c146001", "034cd824cfabe7b2009eccfb75b90ad2dfc295f63672740f545066485f4f8ef465"], "sequence": 4294967294, "scriptSig": {"hex": "1600146b698bcd862b3dc3bc0e216f6cfde009d3a70a86", "asm": "00146b698bcd862b3dc3bc0e216f6cfde009d3a70a86"}, "vout": 1, "txid": "aa7fb29adbd933d40887af3477bf113d1b157835b6d45c9dd9b4828e088522f1"}], "txid": "12b8d84af2cfa23aec131c5cb3696f7a03cef80df58daf6e3e9aee78c26cc0ed", "blocktime": 1537875543, "version": 2, "confirmations": 11464, "time": 1537875543, "locktime": 542998, "vsize": 166, "size": 248}