{"hash": "12c3b9d621e470d3965b643a1063a214668e61cd4c7d8ec0ccbc7e44a6c5804b", "blockhash": "0000000000000000001f76057863aec43deb6fa401d9628bb513d65a8098bfab", "vout": [{"scriptPubKey": {"reqSigs": 1, "hex": "a91464ff7e88e6793922f43799f491a9a2aff7e74ad187", "addresses": ["3Au3ZnDJiQE2tWN6WEm7mk5uj59tVcjoiS"], "asm": "OP_HASH160 64ff7e88e6793922f43799f491a9a2aff7e74ad1 OP_EQUAL", "type": "scripthash"}, "value": 0.1538767, "n": 0}, {"scriptPubKey": {"reqSigs": 1, "hex": "76a914dd277eba6cf64a1fc49f2a44ec03f406289038e388ac", "addresses": ["1MAMeZLJpTT2CAJnxSFRKXziF4uixwHSKx"], "asm": "OP_DUP OP_HASH160 dd277eba6cf64a1fc49f2a44ec03f406289038e3 OP_EQUALVERIFY OP_CHECKSIG", "type": "pubkeyhash"}, "value": 9.223e-05, "n": 1}], "hex": "01000000050477f24a3392af3eada3669e5d9650d477f11689738fd663190bae132c55cbac2d000000da00483045022100925c45cc24090ca7937aeb489d4dd690998d38d8cdff8bb8a4626b9d6c55fc7802206d2a1787701e2002eb0f76ded426dcbb497c40bc04816c6122e4e539c58a75560147304402206760ba23728f9c6b21f8964925164437051337cb8dee0edf3d5738d7b0ddbb5e0220130005a4c9464419505652ecbe57c2072844552507b55e2dadbb2b43d06a2cb00147522102907a54bed8ad74b3f35638c60114ca240a308cb986f3f2f306178869a8880b612103c188a73b6d11dfe49ed96486625306a38822787049d6c33ba6fe32d9833e897752aefffffffff3791eafe665696122f9f61ed79789fb2a14a7d6c1b87d1dc0f40549b26b78011c000000db00483045022100fc5fce6aa524c0d7854b65000f6b556683045f6e580cad983131a8a3da64a68402206c7626f58937992529c4dbe75a37eaf810f9c88f905824cf05eeacba9f1631b70148304502210095d99e2fbde5bb6f0fa90acd05512b641c2bbd75ecf6edd4629a75d48ea23d7e02204b5dd309fdf5bf7672f6ca7159db51cd538ab8f093fa3d312940f030c745672d014752210246b8d375f7ffe67d3a95396501865a4279f96fc606f18e00d7d293d100ec77eb2102907a54bed8ad74b3f35638c60114ca240a308cb986f3f2f306178869a8880b6152aeffffffff8d48ae16f87a6e2f82e34650af7571cf0cbabf7d40f61a59bbf85c7087642df92a000000db00483045022100b12a2052fd3da068e30aedb850651d83373f7d6912f14cc5319508a2f8330cbf02206d4dc44e1a8e06c3da96a1acdaadae604ed3c76833622b7ad9d49b56a1646bcd014830450221008736919e92991b1fbfff33e160a798c1432e159dea84a478b2378e491d03b84302205333737fed43529b7585d30d5073e8c0a15571d573c4f70b35a06020c982b19c0147522102907a54bed8ad74b3f35638c60114ca240a308cb986f3f2f306178869a8880b612103315db264b03a41ff8a5405195c8b3780ba0a2a70496649de05766ebac8cb467252aeffffffff0af5affdb93e91be556b1cb3b93a91c0e0373d4c535e33416fe7c3356392d14106000000d90047304402204913ce24adb05745b3d4b43da231e8a873e811577dace4b1d6934eb753bfd3d402204154889a20d3efbbf4448e05744a021eaae2c1157afb5b42714391194591884b01473044022053ecaea1bc4fd16e21b983807ae0287ccdd69b32fc01d3eb3db2424d707a626402204f2fd72e789d4998357cc061110c77df957a634505fc15f1bb3fbcd7b9939cd80147522102907a54bed8ad74b3f35638c60114ca240a308cb986f3f2f306178869a8880b612103557a8c18e7156b869439cdfda325e981887fc0e03af03444a096213b134a464b52aeffffffff569665bc8fa6a54e2ce4ddc7869908a8dc8a0e7b411615482eb6170ad42d1189010000006a47304402205337c3ac1fb5f86a98d3b08b69a1d735bbafa2eeaee9869bc8d6049ebdee8c050220552d8d1f99316534e502d6b1799b75edfac5be4dfc44f14d50e1c4c2f463031901210319539bdbe2b98e2ba87c1cf6ee6f433fe15c81e77058a667bf96be0ab633241affffffff0216ccea000000000017a91464ff7e88e6793922f43799f491a9a2aff7e74ad18707240000000000001976a914dd277eba6cf64a1fc49f2a44ec03f406289038e388ac00000000", "vin": [{"sequence": 4294967295, "scriptSig": {"hex": "00483045022100925c45cc24090ca7937aeb489d4dd690998d38d8cdff8bb8a4626b9d6c55fc7802206d2a1787701e2002eb0f76ded426dcbb497c40bc04816c6122e4e539c58a75560147304402206760ba23728f9c6b21f8964925164437051337cb8dee0edf3d5738d7b0ddbb5e0220130005a4c9464419505652ecbe57c2072844552507b55e2dadbb2b43d06a2cb00147522102907a54bed8ad74b3f35638c60114ca240a308cb986f3f2f306178869a8880b612103c188a73b6d11dfe49ed96486625306a38822787049d6c33ba6fe32d9833e897752ae", "asm": "0 3045022100925c45cc24090ca7937aeb489d4dd690998d38d8cdff8bb8a4626b9d6c55fc7802206d2a1787701e2002eb0f76ded426dcbb497c40bc04816c6122e4e539c58a7556[ALL] 304402206760ba23728f9c6b21f8964925164437051337cb8dee0edf3d5738d7b0ddbb5e0220130005a4c9464419505652ecbe57c2072844552507b55e2dadbb2b43d06a2cb0[ALL] 522102907a54bed8ad74b3f35638c60114ca240a308cb986f3f2f306178869a8880b612103c188a73b6d11dfe49ed96486625306a38822787049d6c33ba6fe32d9833e897752ae"}, "vout": 45, "txid": "accb552c13ae0b1963d68f738916f177d450965d9e66a3ad3eaf92334af27704"}, {"sequence": 4294967295, "scriptSig": {"hex": "00483045022100fc5fce6aa524c0d7854b65000f6b556683045f6e580cad983131a8a3da64a68402206c7626f58937992529c4dbe75a37eaf810f9c88f905824cf05eeacba9f1631b70148304502210095d99e2fbde5bb6f0fa90acd05512b641c2bbd75ecf6edd4629a75d48ea23d7e02204b5dd309fdf5bf7672f6ca7159db51cd538ab8f093fa3d312940f030c745672d014752210246b8d375f7ffe67d3a95396501865a4279f96fc606f18e00d7d293d100ec77eb2102907a54bed8ad74b3f35638c60114ca240a308cb986f3f2f306178869a8880b6152ae", "asm": "0 3045022100fc5fce6aa524c0d7854b65000f6b556683045f6e580cad983131a8a3da64a68402206c7626f58937992529c4dbe75a37eaf810f9c88f905824cf05eeacba9f1631b7[ALL] 304502210095d99e2fbde5bb6f0fa90acd05512b641c2bbd75ecf6edd4629a75d48ea23d7e02204b5dd309fdf5bf7672f6ca7159db51cd538ab8f093fa3d312940f030c745672d[ALL] 52210246b8d375f7ffe67d3a95396501865a4279f96fc606f18e00d7d293d100ec77eb2102907a54bed8ad74b3f35638c60114ca240a308cb986f3f2f306178869a8880b6152ae"}, "vout": 28, "txid": "01786bb24905f4c01d7db8c1d6a7142afb8997d71ef6f922616965e6af1e79f3"}, {"sequence": 4294967295, "scriptSig": {"hex": "00483045022100b12a2052fd3da068e30aedb850651d83373f7d6912f14cc5319508a2f8330cbf02206d4dc44e1a8e06c3da96a1acdaadae604ed3c76833622b7ad9d49b56a1646bcd014830450221008736919e92991b1fbfff33e160a798c1432e159dea84a478b2378e491d03b84302205333737fed43529b7585d30d5073e8c0a15571d573c4f70b35a06020c982b19c0147522102907a54bed8ad74b3f35638c60114ca240a308cb986f3f2f306178869a8880b612103315db264b03a41ff8a5405195c8b3780ba0a2a70496649de05766ebac8cb467252ae", "asm": "0 3045022100b12a2052fd3da068e30aedb850651d83373f7d6912f14cc5319508a2f8330cbf02206d4dc44e1a8e06c3da96a1acdaadae604ed3c76833622b7ad9d49b56a1646bcd[ALL] 30450221008736919e92991b1fbfff33e160a798c1432e159dea84a478b2378e491d03b84302205333737fed43529b7585d30d5073e8c0a15571d573c4f70b35a06020c982b19c[ALL] 522102907a54bed8ad74b3f35638c60114ca240a308cb986f3f2f306178869a8880b612103315db264b03a41ff8a5405195c8b3780ba0a2a70496649de05766ebac8cb467252ae"}, "vout": 42, "txid": "f92d6487705cf8bb591af6407dbfba0ccf7175af5046e3822f6e7af816ae488d"}, {"sequence": 4294967295, "scriptSig": {"hex": "0047304402204913ce24adb05745b3d4b43da231e8a873e811577dace4b1d6934eb753bfd3d402204154889a20d3efbbf4448e05744a021eaae2c1157afb5b42714391194591884b01473044022053ecaea1bc4fd16e21b983807ae0287ccdd69b32fc01d3eb3db2424d707a626402204f2fd72e789d4998357cc061110c77df957a634505fc15f1bb3fbcd7b9939cd80147522102907a54bed8ad74b3f35638c60114ca240a308cb986f3f2f306178869a8880b612103557a8c18e7156b869439cdfda325e981887fc0e03af03444a096213b134a464b52ae", "asm": "0 304402204913ce24adb05745b3d4b43da231e8a873e811577dace4b1d6934eb753bfd3d402204154889a20d3efbbf4448e05744a021eaae2c1157afb5b42714391194591884b[ALL] 3044022053ecaea1bc4fd16e21b983807ae0287ccdd69b32fc01d3eb3db2424d707a626402204f2fd72e789d4998357cc061110c77df957a634505fc15f1bb3fbcd7b9939cd8[ALL] 522102907a54bed8ad74b3f35638c60114ca240a308cb986f3f2f306178869a8880b612103557a8c18e7156b869439cdfda325e981887fc0e03af03444a096213b134a464b52ae"}, "vout": 6, "txid": "41d1926335c3e76f41335e534c3d37e0c0913ab9b31c6b55be913eb9fdaff50a"}, {"sequence": 4294967295, "scriptSig": {"hex": "47304402205337c3ac1fb5f86a98d3b08b69a1d735bbafa2eeaee9869bc8d6049ebdee8c050220552d8d1f99316534e502d6b1799b75edfac5be4dfc44f14d50e1c4c2f463031901210319539bdbe2b98e2ba87c1cf6ee6f433fe15c81e77058a667bf96be0ab633241a", "asm": "304402205337c3ac1fb5f86a98d3b08b69a1d735bbafa2eeaee9869bc8d6049ebdee8c050220552d8d1f99316534e502d6b1799b75edfac5be4dfc44f14d50e1c4c2f4630319[ALL] 0319539bdbe2b98e2ba87c1cf6ee6f433fe15c81e77058a667bf96be0ab633241a"}, "vout": 1, "txid": "89112dd40a17b62e481516417b0e8adca8089986c7dde42c4ea5a68fbc659656"}], "txid": "12c3b9d621e470d3965b643a1063a214668e61cd4c7d8ec0ccbc7e44a6c5804b", "blocktime": 1537873891, "version": 1, "confirmations": 11478, "time": 1537873891, "locktime": 0, "vsize": 1260, "size": 1260}