{"hash": "12c3875ebe2912eb5328b6d7edf970b7b853dd9af6e5056eee20e1954f6a5ee5", "blockhash": "0000000000000000000e13cef7c366c0283d82e591d1acd082e914b08063cdf1", "vout": [{"scriptPubKey": {"reqSigs": 1, "hex": "76a91479c642aff362ea79c3b109b02739cfa03a090e9188ac", "addresses": ["1C6tGbMbysfkoYePdqSJSnTBXoXmzyBXK3"], "asm": "OP_DUP OP_HASH160 79c642aff362ea79c3b109b02739cfa03a090e91 OP_EQUALVERIFY OP_CHECKSIG", "type": "pubkeyhash"}, "value": 0.01536607, "n": 0}, {"scriptPubKey": {"reqSigs": 1, "hex": "76a914e2d972cdbbde62bab6ba35ccb23f52baf58225b888ac", "addresses": ["1MgUCwLyoemTdXcGWhMNUx6JNsNAHwB76W"], "asm": "OP_DUP OP_HASH160 e2d972cdbbde62bab6ba35ccb23f52baf58225b8 OP_EQUALVERIFY OP_CHECKSIG", "type": "pubkeyhash"}, "value": 0.00626271, "n": 1}], "hex": "0200000002ce608e8d6db548d5b4aad60f69105e3a79d1636bc15f785184dcc53abaea23d1000000006a47304402207f7befdc66b26a62f5ebc04d3ca7747faad26d5557c3bc35c8aed981b57dd00402203a93515bb597820a66891ecc04e0dfe2b6c1ca53f8c83b6c3db9f75d054a15a1012102079352754c948b72bbd529d73e9d8903e3ef9c53d9742d016b3cc021351fec01feffffffd225c6b969da95d787902eee6e13cdf35df1969cd72002b65e786f84fb4fff8a010000006b483045022100daa213d29ad9ae7c2ea8fb20613dfa7760c33059b79292933900a6d18a4a09d302203dd3eec91aaa1c9aed4a247e84a8e60382865ecd6a7f999ef4e81d43b317ff980121022688220db0f05e079675308abb98f920cd04e9b42672525e96e6bc6fe27044f1feffffff025f721700000000001976a91479c642aff362ea79c3b109b02739cfa03a090e9188ac5f8e0900000000001976a914e2d972cdbbde62bab6ba35ccb23f52baf58225b888ac0f490800", "vin": [{"sequence": 4294967294, "scriptSig": {"hex": "47304402207f7befdc66b26a62f5ebc04d3ca7747faad26d5557c3bc35c8aed981b57dd00402203a93515bb597820a66891ecc04e0dfe2b6c1ca53f8c83b6c3db9f75d054a15a1012102079352754c948b72bbd529d73e9d8903e3ef9c53d9742d016b3cc021351fec01", "asm": "304402207f7befdc66b26a62f5ebc04d3ca7747faad26d5557c3bc35c8aed981b57dd00402203a93515bb597820a66891ecc04e0dfe2b6c1ca53f8c83b6c3db9f75d054a15a1[ALL] 02079352754c948b72bbd529d73e9d8903e3ef9c53d9742d016b3cc021351fec01"}, "vout": 0, "txid": "d123eaba3ac5dc8451785fc16b63d1793a5e10690fd6aab4d548b56d8d8e60ce"}, {"sequence": 4294967294, "scriptSig": {"hex": "483045022100daa213d29ad9ae7c2ea8fb20613dfa7760c33059b79292933900a6d18a4a09d302203dd3eec91aaa1c9aed4a247e84a8e60382865ecd6a7f999ef4e81d43b317ff980121022688220db0f05e079675308abb98f920cd04e9b42672525e96e6bc6fe27044f1", "asm": "3045022100daa213d29ad9ae7c2ea8fb20613dfa7760c33059b79292933900a6d18a4a09d302203dd3eec91aaa1c9aed4a247e84a8e60382865ecd6a7f999ef4e81d43b317ff98[ALL] 022688220db0f05e079675308abb98f920cd04e9b42672525e96e6bc6fe27044f1"}, "vout": 1, "txid": "8aff4ffb846f785eb60220d79c96f15df3cd136eee2e9087d795da69b9c625d2"}], "txid": "12c3875ebe2912eb5328b6d7edf970b7b853dd9af6e5056eee20e1954f6a5ee5", "blocktime": 1537871767, "version": 2, "confirmations": 11490, "time": 1537871767, "locktime": 542991, "vsize": 373, "size": 373}