{"hash": "1af5885f935e17801f36d0249fdb0ca0c13ec5b977176e30d82d5976801d19f5", "blockhash": "00000000000000000017f5eb5941039fbcee6240d03bc1f2f8e35350df66a1d8", "vout": [{"scriptPubKey": {"reqSigs": 1, "hex": "a91467c5510cb6dffea3c818a559ecd43aec0eb472e587", "addresses": ["3B9hu6kj6Ctte6NjAK95k5aWir2T9eTTSc"], "asm": "OP_HASH160 67c5510cb6dffea3c818a559ecd43aec0eb472e5 OP_EQUAL", "type": "scripthash"}, "value": 0.00187, "n": 0}, {"scriptPubKey": {"reqSigs": 1, "hex": "a9142ba76b14fcf4912a13b9828ae249628d2beffc4387", "addresses": ["35fqYDfM2LRPgKZXnoApeZGdBZSuY3U8Pa"], "asm": "OP_HASH160 2ba76b14fcf4912a13b9828ae249628d2beffc43 OP_EQUAL", "type": "scripthash"}, "value": 0.00862502, "n": 1}], "hex": "01000000000101b6dbb996a612d5d5e428949166c375e85602a22a1e6c275f627a3b1bb96bdc0e2d000000171600149265681d0a315d9633e95b96dec356edb03394f3ffffffff0278da02000000000017a91467c5510cb6dffea3c818a559ecd43aec0eb472e58726290d000000000017a9142ba76b14fcf4912a13b9828ae249628d2beffc4387024730440220521fa9d02b94749159b5b24cf7f476d3035245df80b31d81705334122411616702201ce422ad43b338adb2ba810f979c638314da8f1d45e561ac03c51df4bf4d4f31012102084922ddb04e6fc0121bf0b27f4004c5c859079ce06285d76dd119b29fa835d800000000", "vin": [{"txinwitness": ["30440220521fa9d02b94749159b5b24cf7f476d3035245df80b31d81705334122411616702201ce422ad43b338adb2ba810f979c638314da8f1d45e561ac03c51df4bf4d4f3101", "02084922ddb04e6fc0121bf0b27f4004c5c859079ce06285d76dd119b29fa835d8"], "sequence": 4294967295, "scriptSig": {"hex": "1600149265681d0a315d9633e95b96dec356edb03394f3", "asm": "00149265681d0a315d9633e95b96dec356edb03394f3"}, "vout": 45, "txid": "0edc6bb91b3b7a625f276c1e2aa20256e875c366919428e4d5d512a696b9dbb6"}], "txid": "12cd40d4f508900d515714b276211ef47a53e6516a7385d192ce563521d0085e", "blocktime": 1537874412, "version": 1, "confirmations": 11468, "time": 1537874412, "locktime": 0, "vsize": 166, "size": 247}