{"hash": "12cec4399bbf2a1fac828272a8fe81b6cc3ae6e117d9b860ae0182005ea7c2ca", "blockhash": "0000000000000000001e0dab787dd257d1dbfcb92a98c2207d5e1078be1f4165", "vout": [{"scriptPubKey": {"reqSigs": 1, "hex": "a91446eabf83fda5f319dec1420ac4abb3832bc2f97887", "addresses": ["389zSZDq9v59qDSW1NuhVWrD1jrjdx6PAw"], "asm": "OP_HASH160 46eabf83fda5f319dec1420ac4abb3832bc2f978 OP_EQUAL", "type": "scripthash"}, "value": 0.03141518, "n": 0}, {"scriptPubKey": {"reqSigs": 1, "hex": "76a9140cf4d486053beeb4a7d37d5bf98e8aa6c64f905388ac", "addresses": ["12BWQQDwwmAegVw5tjLji5y7wYY6sPVsev"], "asm": "OP_DUP OP_HASH160 0cf4d486053beeb4a7d37d5bf98e8aa6c64f9053 OP_EQUALVERIFY OP_CHECKSIG", "type": "pubkeyhash"}, "value": 2.1418692, "n": 1}], "hex": "0100000001e1fd0608589fc3ba764e1389f8e8795171c13a983aa0bb14dc2707f033a53225010000006a4730440220090a9cf08b9dfb0fc34cc4462cd65f8a559956fb960fe970c0ade88ebf1266800220098b2bef9280986ae2c366fa0659fdd663a829757037cbc56d640fcecfdc3353012103f898f8d9463ca54b745462444a2d57fa4026e2615bc04030281ebc9b47330416ffffffff028eef2f000000000017a91446eabf83fda5f319dec1420ac4abb3832bc2f97887a83bc40c000000001976a9140cf4d486053beeb4a7d37d5bf98e8aa6c64f905388ac00000000", "vin": [{"sequence": 4294967295, "scriptSig": {"hex": "4730440220090a9cf08b9dfb0fc34cc4462cd65f8a559956fb960fe970c0ade88ebf1266800220098b2bef9280986ae2c366fa0659fdd663a829757037cbc56d640fcecfdc3353012103f898f8d9463ca54b745462444a2d57fa4026e2615bc04030281ebc9b47330416", "asm": "30440220090a9cf08b9dfb0fc34cc4462cd65f8a559956fb960fe970c0ade88ebf1266800220098b2bef9280986ae2c366fa0659fdd663a829757037cbc56d640fcecfdc3353[ALL] 03f898f8d9463ca54b745462444a2d57fa4026e2615bc04030281ebc9b47330416"}, "vout": 1, "txid": "2532a533f00727dc14bba03a983ac1715179e8f889134e76bac39f580806fde1"}], "txid": "12cec4399bbf2a1fac828272a8fe81b6cc3ae6e117d9b860ae0182005ea7c2ca", "blocktime": 1537872475, "version": 1, "confirmations": 11487, "time": 1537872475, "locktime": 0, "vsize": 223, "size": 223}