{"hash": "f24f714c98c36341e8312ff3fb9fbea178d563419452bc20621ddfd4a124cf27", "blockhash": "0000000000000000001cda96e906b7601b7a6fb1a3b62bca570a9e5d8f4b3de1", "vout": [{"scriptPubKey": {"reqSigs": 1, "hex": "76a91412b6f0028cfbae52fed7eb2815a5f9a8da8a47bf88ac", "addresses": ["12hxKBD1vemj1PL7wAGVekHiZiCK5QUS55"], "asm": "OP_DUP OP_HASH160 12b6f0028cfbae52fed7eb2815a5f9a8da8a47bf OP_EQUALVERIFY OP_CHECKSIG", "type": "pubkeyhash"}, "value": 0.01235946, "n": 0}, {"scriptPubKey": {"reqSigs": 1, "hex": "a9147ced05b88a3edf2cad0f909377334dae71b2d83787", "addresses": ["3D5Zew1tqWfBiPp9CCnnzv9dDaLuegU1oA"], "asm": "OP_HASH160 7ced05b88a3edf2cad0f909377334dae71b2d837 OP_EQUAL", "type": "scripthash"}, "value": 0.01001435, "n": 1}], "hex": "020000000001034d6d4dfe1eac03e8dfea0fccc91760dbd39b8298cd4e9c95eda447c50f76e18301000000171600144a294b0e96a36404741948baac036f25d001f82dfeffffff8694b8e8d52f6bcf58e0f53bf374e25ab744177c5aaa5d970eff875898fee4540000000017160014d73d2c54cc37cc3a793bbe94e6c16a89b606f6cbfeffffffd55b339072a866a7e9f3d6052d0a633839bae3d694809ff9428beee5443c73150100000017160014b137abdd889125d8e2e48f56c539f87e02ef35aefeffffff02eadb1200000000001976a91412b6f0028cfbae52fed7eb2815a5f9a8da8a47bf88acdb470f000000000017a9147ced05b88a3edf2cad0f909377334dae71b2d837870247304402204bc5bc4ad5f602b170d2cd633488ff7ba5df28e5f79ddb3388b533b519ff366c022069341ff664a51cbe827a20f8b8cfe96b70023abbaf88b3ba08a1288b881b0ac2012102b90212745afc438628bd2121e823aac7da32007912e24add12dc29f723d5cc2e02483045022100f32cb4062c24b98b1c11a0ae5cc8b6b9a47250d848f08be424db57b9dd4c4efc02200c3fe635fbbb61c7dac6d751331269a65ef4f5b87602ecd81f04e869278ebfe8012102bc66029d8ff748a669c929971e6c339641a80bb1aa605f7c26ee3b2050c34b2a024830450221008b054ee45e6337a44c504f1e65e658eeaee36cc017729a86c3ec1308fc4c4f5e0220277d31337ab18b3bb4807918c1e07adc07ae9dde88af176277f265e7b5d8ef3e0121023d34633c36ff29a104a512b7847d4377c34aaaf24577e1688bb6ca338a1de66313490800", "vin": [{"txinwitness": ["304402204bc5bc4ad5f602b170d2cd633488ff7ba5df28e5f79ddb3388b533b519ff366c022069341ff664a51cbe827a20f8b8cfe96b70023abbaf88b3ba08a1288b881b0ac201", "02b90212745afc438628bd2121e823aac7da32007912e24add12dc29f723d5cc2e"], "sequence": 4294967294, "scriptSig": {"hex": "1600144a294b0e96a36404741948baac036f25d001f82d", "asm": "00144a294b0e96a36404741948baac036f25d001f82d"}, "vout": 1, "txid": "83e1760fc547a4ed959c4ecd98829bd3db6017c9cc0feadfe803ac1efe4d6d4d"}, {"txinwitness": ["3045022100f32cb4062c24b98b1c11a0ae5cc8b6b9a47250d848f08be424db57b9dd4c4efc02200c3fe635fbbb61c7dac6d751331269a65ef4f5b87602ecd81f04e869278ebfe801", "02bc66029d8ff748a669c929971e6c339641a80bb1aa605f7c26ee3b2050c34b2a"], "sequence": 4294967294, "scriptSig": {"hex": "160014d73d2c54cc37cc3a793bbe94e6c16a89b606f6cb", "asm": "0014d73d2c54cc37cc3a793bbe94e6c16a89b606f6cb"}, "vout": 0, "txid": "54e4fe985887ff0e975daa5a7c1744b75ae274f33bf5e058cf6b2fd5e8b89486"}, {"txinwitness": ["30450221008b054ee45e6337a44c504f1e65e658eeaee36cc017729a86c3ec1308fc4c4f5e0220277d31337ab18b3bb4807918c1e07adc07ae9dde88af176277f265e7b5d8ef3e01", "023d34633c36ff29a104a512b7847d4377c34aaaf24577e1688bb6ca338a1de663"], "sequence": 4294967294, "scriptSig": {"hex": "160014b137abdd889125d8e2e48f56c539f87e02ef35ae", "asm": "0014b137abdd889125d8e2e48f56c539f87e02ef35ae"}, "vout": 1, "txid": "15733c44e5ee8b42f99f8094d6e3ba3938630a2d05d6f3e9a766a87290335bd5"}], "txid": "12d0440998bf0b447c7340b87bff37182b1a9eaaafd6f68f9ef16dff8731a934", "blocktime": 1537873282, "version": 2, "confirmations": 11481, "time": 1537873282, "locktime": 542995, "vsize": 350, "size": 593}