{"hash": "5ca2f2516ee8182391964d92b81568b0288b6467563bad1655925459e55f59d3", "blockhash": "0000000000000000001f76057863aec43deb6fa401d9628bb513d65a8098bfab", "vout": [{"scriptPubKey": {"reqSigs": 1, "hex": "76a914dcd64073ae3762cba4710f756586e468ceaa292c88ac", "addresses": ["1M8gKgE7b1cnhvMw6zPvuHeDiFZVoE7G5P"], "asm": "OP_DUP OP_HASH160 dcd64073ae3762cba4710f756586e468ceaa292c OP_EQUALVERIFY OP_CHECKSIG", "type": "pubkeyhash"}, "value": 0.01115275, "n": 0}, {"scriptPubKey": {"reqSigs": 1, "hex": "a9149649ad6d2730bb28020a268d9d80df10a9f74ad487", "addresses": ["3FPfYWwfMfKMGY7fuPHvz2b73RhTNGzsm3"], "asm": "OP_HASH160 9649ad6d2730bb28020a268d9d80df10a9f74ad4 OP_EQUAL", "type": "scripthash"}, "value": 13.82581736, "n": 1}], "hex": "010000000001011a0dd613ad33add8a0c587806cdb25e7aba599732b7104c8ec49990b7b6fcce001000000232200207768efcc1e5eb3d28410fac3f45831004c860cc24cddd940a616b34324823fceffffffff028b041100000000001976a914dcd64073ae3762cba4710f756586e468ceaa292c88ace88568520000000017a9149649ad6d2730bb28020a268d9d80df10a9f74ad48704004630430220754ee88b5cdbd2c748e0033e94113944ea6826d01b586ba695e4f7607893ebe5021f2ffbb829c9de1d74e95caeaecbd0c4147888d9606b894702b0ff1c803bd390014730440220434e51b51d7d24fbedbe83a81726e5da916e6d10d2c91c3533b99e1adbc730c002204f22e7dbaa2eb6a88d784ef4ff6788c8af39da661850dd492b046034183c9ce00147522102529d5d1f6733ab45d9d50e07db42c7f6b967ae321c38b726c2247f149959b8262103d0c936a5988dd8421c63240496b723b0ec42400c38b9350e32c2eb4f47d8796952ae00000000", "vin": [{"txinwitness": ["", "30430220754ee88b5cdbd2c748e0033e94113944ea6826d01b586ba695e4f7607893ebe5021f2ffbb829c9de1d74e95caeaecbd0c4147888d9606b894702b0ff1c803bd39001", "30440220434e51b51d7d24fbedbe83a81726e5da916e6d10d2c91c3533b99e1adbc730c002204f22e7dbaa2eb6a88d784ef4ff6788c8af39da661850dd492b046034183c9ce001", "522102529d5d1f6733ab45d9d50e07db42c7f6b967ae321c38b726c2247f149959b8262103d0c936a5988dd8421c63240496b723b0ec42400c38b9350e32c2eb4f47d8796952ae"], "sequence": 4294967295, "scriptSig": {"hex": "2200207768efcc1e5eb3d28410fac3f45831004c860cc24cddd940a616b34324823fce", "asm": "00207768efcc1e5eb3d28410fac3f45831004c860cc24cddd940a616b34324823fce"}, "vout": 1, "txid": "e0cc6f7b0b9949ecc804712b7399a5abe725db6c8087c5a0d8ad33ad13d60d1a"}], "txid": "12d42d1e5034ecb5dda5106b4273fd06965794f4585bbedf61dd8ad76ca3413e", "blocktime": 1537873891, "version": 1, "confirmations": 11478, "time": 1537873891, "locktime": 0, "vsize": 207, "size": 371}