{"hash": "12d947324b7092113d18280ae454768c92371443cf308398a63d8d840c5140f9", "blockhash": "0000000000000000001f76057863aec43deb6fa401d9628bb513d65a8098bfab", "vout": [{"scriptPubKey": {"reqSigs": 1, "hex": "76a914b912cd290a93a7e9f221876afd3fc7388396d27288ac", "addresses": ["1HsaXqLJ6QvYraUYrUWUwkWxfeTHsu6cpv"], "asm": "OP_DUP OP_HASH160 b912cd290a93a7e9f221876afd3fc7388396d272 OP_EQUALVERIFY OP_CHECKSIG", "type": "pubkeyhash"}, "value": 0.05345241, "n": 0}], "hex": "010000000218bbe2bd719261431e9c0a1e5b52b6afe83f1a4a4c2dddcf44551cb9e453a41e010000006a47304402203c08a188d6227f97e6fb4c703df1991d4a4bd72d085d7a4a7a0eba2077393f9702205f55f5ffc99b65f1ac05179401a409bb038ddbee6bbaf065e5856c1d65dc84b8012102feb37a45297874f7e20a8e2a49649e0f9cb18c0b0f09f68f3ec807f335b53843ffffffff01f159e83b025f924f27c95249754a4a6880289f2edabbc96987bf39d76eeb71000000006b483045022100d09e3c502d85a4820fdaa6a535dfaa9859b5ac51c51c4198a1fae5e2b007f44202205897759a2fb40e2cac8cf99f0b4cf600e60a6ecd211e205934bcba0b9b324825012103a3e0f0ff6a1f996477b773ad6324eca62a82ca0c17820be9fbd54bb9d6b12280ffffffff01d98f5100000000001976a914b912cd290a93a7e9f221876afd3fc7388396d27288ac00000000", "vin": [{"sequence": 4294967295, "scriptSig": {"hex": "47304402203c08a188d6227f97e6fb4c703df1991d4a4bd72d085d7a4a7a0eba2077393f9702205f55f5ffc99b65f1ac05179401a409bb038ddbee6bbaf065e5856c1d65dc84b8012102feb37a45297874f7e20a8e2a49649e0f9cb18c0b0f09f68f3ec807f335b53843", "asm": "304402203c08a188d6227f97e6fb4c703df1991d4a4bd72d085d7a4a7a0eba2077393f9702205f55f5ffc99b65f1ac05179401a409bb038ddbee6bbaf065e5856c1d65dc84b8[ALL] 02feb37a45297874f7e20a8e2a49649e0f9cb18c0b0f09f68f3ec807f335b53843"}, "vout": 1, "txid": "1ea453e4b91c5544cfdd2d4c4a1a3fe8afb6525b1e0a9c1e43619271bde2bb18"}, {"sequence": 4294967295, "scriptSig": {"hex": "483045022100d09e3c502d85a4820fdaa6a535dfaa9859b5ac51c51c4198a1fae5e2b007f44202205897759a2fb40e2cac8cf99f0b4cf600e60a6ecd211e205934bcba0b9b324825012103a3e0f0ff6a1f996477b773ad6324eca62a82ca0c17820be9fbd54bb9d6b12280", "asm": "3045022100d09e3c502d85a4820fdaa6a535dfaa9859b5ac51c51c4198a1fae5e2b007f44202205897759a2fb40e2cac8cf99f0b4cf600e60a6ecd211e205934bcba0b9b324825[ALL] 03a3e0f0ff6a1f996477b773ad6324eca62a82ca0c17820be9fbd54bb9d6b12280"}, "vout": 0, "txid": "71eb6ed739bf8769c9bbda2e9f2880684a4a754952c9274f925f023be859f101"}], "txid": "12d947324b7092113d18280ae454768c92371443cf308398a63d8d840c5140f9", "blocktime": 1537873891, "version": 1, "confirmations": 11478, "time": 1537873891, "locktime": 0, "vsize": 339, "size": 339}