{"hash": "a153c12b6ba806a0b266681695a7f87cee2efbd4da9db28eeea6255eadb4a081", "blockhash": "0000000000000000000dcc0f55137456b1a82d3642486a52398922ac4d620174", "vout": [{"scriptPubKey": {"reqSigs": 1, "hex": "a9147b8af7fa03888a059ecd80d59575545d3e8f877987", "addresses": ["3CxFWrHb3LgpKVPqAvXgA5M7ZYsuuS19Cy"], "asm": "OP_HASH160 7b8af7fa03888a059ecd80d59575545d3e8f8779 OP_EQUAL", "type": "scripthash"}, "value": 0.0056, "n": 0}, {"scriptPubKey": {"reqSigs": 1, "hex": "a914627aa52932456d89054bd84f86246af3b71b93a887", "addresses": ["3Afj4stdiLG9EktGrMbm252ySonnhYaz8v"], "asm": "OP_HASH160 627aa52932456d89054bd84f86246af3b71b93a8 OP_EQUAL", "type": "scripthash"}, "value": 0.65208324, "n": 1}], "hex": "01000000000101354c1ba04131ba63b25221768f228b8e5d70ce4a44aac7a6679b97acbd487d4001000000232200205fdd641234b13964b223bd85ad2a4a667ca2099df3d42a1d3b45706a8d81abf0ffffffff02808b08000000000017a9147b8af7fa03888a059ecd80d59575545d3e8f8779870400e3030000000017a914627aa52932456d89054bd84f86246af3b71b93a887040048304502210096b673f729c200f37f59259e8d48afd74c28e685d73d36f73f55ba90f1e001c802200eaa2107b00e5e94cb6c700679d26b9212f2dd8ee72d8e8af855c3acaa07904b01483045022100be6aabc472e39a166526693eaa74c54cce7bacb0e571d90f1955d3a26196e25302207068816b2b1f396e86aaddd72a99baf81a2b6747e602f3615583c76bda0c29f60147522103dcde3832fa56def7b4e783faad1b8af85c3cdd74a5ff4f3c7c216b1075c18da12103c70ae8ded79be1afda73b9ce5ea14a3878908ee160d66a9a717e792bb6db276952ae00000000", "vin": [{"txinwitness": ["", "304502210096b673f729c200f37f59259e8d48afd74c28e685d73d36f73f55ba90f1e001c802200eaa2107b00e5e94cb6c700679d26b9212f2dd8ee72d8e8af855c3acaa07904b01", "3045022100be6aabc472e39a166526693eaa74c54cce7bacb0e571d90f1955d3a26196e25302207068816b2b1f396e86aaddd72a99baf81a2b6747e602f3615583c76bda0c29f601", "522103dcde3832fa56def7b4e783faad1b8af85c3cdd74a5ff4f3c7c216b1075c18da12103c70ae8ded79be1afda73b9ce5ea14a3878908ee160d66a9a717e792bb6db276952ae"], "sequence": 4294967295, "scriptSig": {"hex": "2200205fdd641234b13964b223bd85ad2a4a667ca2099df3d42a1d3b45706a8d81abf0", "asm": "00205fdd641234b13964b223bd85ad2a4a667ca2099df3d42a1d3b45706a8d81abf0"}, "vout": 1, "txid": "407d48bdac979b67a6c7aa444ace705d8e8b228f762152b263ba3141a01b4c35"}], "txid": "12e6f2ccb54eb8b10c098fd673d31e0c0cf419b16bd1d4f4e12c6def7e0adeb0", "blocktime": 1537870268, "version": 1, "confirmations": 11518, "time": 1537870268, "locktime": 0, "vsize": 206, "size": 372}