{"hash": "12ea0322831267b45b606234654d861ae64d067132eab97ed6252e747bbe57b3", "blockhash": "0000000000000000001e0dab787dd257d1dbfcb92a98c2207d5e1078be1f4165", "vout": [{"scriptPubKey": {"reqSigs": 1, "hex": "76a914f56fb5e51067c778231ec004515205c54533e9a588ac", "addresses": ["1PNkNnMLMf4Wvmx5EiPFS7QvUtofTCvEx2"], "asm": "OP_DUP OP_HASH160 f56fb5e51067c778231ec004515205c54533e9a5 OP_EQUALVERIFY OP_CHECKSIG", "type": "pubkeyhash"}, "value": 2.644e-05, "n": 0}, {"scriptPubKey": {"reqSigs": 1, "hex": "76a914f548a94ebe226a74ab77e851d9de90c482c45d8988ac", "addresses": ["1PMwbbh1BpiXSdgdXrs9mjtbrJBcBe2VWD"], "asm": "OP_DUP OP_HASH160 f548a94ebe226a74ab77e851d9de90c482c45d89 OP_EQUALVERIFY OP_CHECKSIG", "type": "pubkeyhash"}, "value": 0.001, "n": 1}], "hex": "0100000005fde58892c0c17ad03ee0c4f6d20c5ab7e547fdf6cc7443b8799a4d7daa2d610a000000006b483045022100e4bc2f8954b0f0f1daa3d7707401b00e8decf713cee00cf9025e2ca747120d0a02203448c11bc439cffe646c437311a691309d1b80d302d637b7ee28637e91186c9e012102d593c55f8cadcdbe2eb140292d4265dc7f2514a39efa3743c95c2984392d1448ffffffff455fca6a38cd7680c11b9f09234be14b64537978c73ce4998e33dd308873e22e0a0000006b483045022100ec8806de680db975f04c1d5287ed2249e9610364f9dca4cc5c7d71f789986e300220234fa5e8f8ec6924738d6260c1fb20ceb4b809d9a563860802050584727e3df001210389bc7dc4a28fbf8d0e939f810ce755bb322eb092226bdb67e91ff12eb3760d12fffffffff73485678ad80e1a4259002cae4b8ab01390c332cafff545ef397449478bea69000000006b4830450221008a85ce3075e644ac8248124acf5725ec173ea782561a8bb208e658463a59a5df0220063b99099ff79f289047a8e21546eb386f06c2ede5dd2342b9f3be1aa31d9f12012102774565b7854576051464ae430157a1d11ab81d256d98c4e6264e95d4bb3b14d0ffffffffd1b0f843881509721635fd9238ecce0d071e49c273262c7b9ae8f5c9f72bc88a000000006b483045022100d2c6aaae53aefb147a6cf6a4c75f7d1268e37ff2cba812b4dde593262b641c73022010c391a4af9af558e154852dbf8e34708cce3e43f4ea09fbbaaca5de248f0cb9012102d33047dfe4e12cc4ad0048c4c70c23d85ce28e5a2c194f69f54d995ae9c1d0cfffffffffdc880802e135ca5e8c6d10d2841b78b9ab8189c04d3a53b3eed677afa9ec5fa8010000006b4830450221009c9024a91f94ed4ba02ee6af9713290be864395a8c2a9e06af03e08a36878adf02207e13c727ac50c8b7daf33b39b188b8f5a1b6cf8e19eeae6ec56a824f8c14ccb9012102aad92d4377d854a64a5c591ea3a9d4fc1910cad0fd3e5ce301040f3343697de8ffffffff02540a0000000000001976a914f56fb5e51067c778231ec004515205c54533e9a588aca0860100000000001976a914f548a94ebe226a74ab77e851d9de90c482c45d8988ac00000000", "vin": [{"sequence": 4294967295, "scriptSig": {"hex": "483045022100e4bc2f8954b0f0f1daa3d7707401b00e8decf713cee00cf9025e2ca747120d0a02203448c11bc439cffe646c437311a691309d1b80d302d637b7ee28637e91186c9e012102d593c55f8cadcdbe2eb140292d4265dc7f2514a39efa3743c95c2984392d1448", "asm": "3045022100e4bc2f8954b0f0f1daa3d7707401b00e8decf713cee00cf9025e2ca747120d0a02203448c11bc439cffe646c437311a691309d1b80d302d637b7ee28637e91186c9e[ALL] 02d593c55f8cadcdbe2eb140292d4265dc7f2514a39efa3743c95c2984392d1448"}, "vout": 0, "txid": "0a612daa7d4d9a79b84374ccf6fd47e5b75a0cd2f6c4e03ed07ac1c09288e5fd"}, {"sequence": 4294967295, "scriptSig": {"hex": "483045022100ec8806de680db975f04c1d5287ed2249e9610364f9dca4cc5c7d71f789986e300220234fa5e8f8ec6924738d6260c1fb20ceb4b809d9a563860802050584727e3df001210389bc7dc4a28fbf8d0e939f810ce755bb322eb092226bdb67e91ff12eb3760d12", "asm": "3045022100ec8806de680db975f04c1d5287ed2249e9610364f9dca4cc5c7d71f789986e300220234fa5e8f8ec6924738d6260c1fb20ceb4b809d9a563860802050584727e3df0[ALL] 0389bc7dc4a28fbf8d0e939f810ce755bb322eb092226bdb67e91ff12eb3760d12"}, "vout": 10, "txid": "2ee2738830dd338e99e43cc7787953644be14b23099f1bc18076cd386aca5f45"}, {"sequence": 4294967295, "scriptSig": {"hex": "4830450221008a85ce3075e644ac8248124acf5725ec173ea782561a8bb208e658463a59a5df0220063b99099ff79f289047a8e21546eb386f06c2ede5dd2342b9f3be1aa31d9f12012102774565b7854576051464ae430157a1d11ab81d256d98c4e6264e95d4bb3b14d0", "asm": "30450221008a85ce3075e644ac8248124acf5725ec173ea782561a8bb208e658463a59a5df0220063b99099ff79f289047a8e21546eb386f06c2ede5dd2342b9f3be1aa31d9f12[ALL] 02774565b7854576051464ae430157a1d11ab81d256d98c4e6264e95d4bb3b14d0"}, "vout": 0, "txid": "69ea8b47497439ef45f5ffca32c39013b08a4bae2c0059421a0ed88a678534f7"}, {"sequence": 4294967295, "scriptSig": {"hex": "483045022100d2c6aaae53aefb147a6cf6a4c75f7d1268e37ff2cba812b4dde593262b641c73022010c391a4af9af558e154852dbf8e34708cce3e43f4ea09fbbaaca5de248f0cb9012102d33047dfe4e12cc4ad0048c4c70c23d85ce28e5a2c194f69f54d995ae9c1d0cf", "asm": "3045022100d2c6aaae53aefb147a6cf6a4c75f7d1268e37ff2cba812b4dde593262b641c73022010c391a4af9af558e154852dbf8e34708cce3e43f4ea09fbbaaca5de248f0cb9[ALL] 02d33047dfe4e12cc4ad0048c4c70c23d85ce28e5a2c194f69f54d995ae9c1d0cf"}, "vout": 0, "txid": "8ac82bf7c9f5e89a7b2c2673c2491e070dceec3892fd35167209158843f8b0d1"}, {"sequence": 4294967295, "scriptSig": {"hex": "4830450221009c9024a91f94ed4ba02ee6af9713290be864395a8c2a9e06af03e08a36878adf02207e13c727ac50c8b7daf33b39b188b8f5a1b6cf8e19eeae6ec56a824f8c14ccb9012102aad92d4377d854a64a5c591ea3a9d4fc1910cad0fd3e5ce301040f3343697de8", "asm": "30450221009c9024a91f94ed4ba02ee6af9713290be864395a8c2a9e06af03e08a36878adf02207e13c727ac50c8b7daf33b39b188b8f5a1b6cf8e19eeae6ec56a824f8c14ccb9[ALL] 02aad92d4377d854a64a5c591ea3a9d4fc1910cad0fd3e5ce301040f3343697de8"}, "vout": 1, "txid": "a85feca9af77d6eeb3533a4dc08981abb9781b84d2106d8c5eca35e1020888dc"}], "txid": "12ea0322831267b45b606234654d861ae64d067132eab97ed6252e747bbe57b3", "blocktime": 1537872475, "version": 1, "confirmations": 11487, "time": 1537872475, "locktime": 0, "vsize": 818, "size": 818}