{"hash": "12ec49400b8f7e86c3b3c40bf0531cab076a7b3a503aaf1dce70ca7f537c162c", "blockhash": "0000000000000000001e0dab787dd257d1dbfcb92a98c2207d5e1078be1f4165", "vout": [{"scriptPubKey": {"reqSigs": 1, "hex": "76a91444501e78a5ccdf3095346f9bfd176671414bd64088ac", "addresses": ["17ECvp76SzgmvVtycYMRwrQ2uSTKshC3Ph"], "asm": "OP_DUP OP_HASH160 44501e78a5ccdf3095346f9bfd176671414bd640 OP_EQUALVERIFY OP_CHECKSIG", "type": "pubkeyhash"}, "value": 0.17646191, "n": 0}, {"scriptPubKey": {"reqSigs": 1, "hex": "a914142cc247c0d3f4a2ec8c7791ab3af9fa428f593f87", "addresses": ["33Xh4HQqt11bnquPfnUKhxGi8L5EdyFUPQ"], "asm": "OP_HASH160 142cc247c0d3f4a2ec8c7791ab3af9fa428f593f OP_EQUAL", "type": "scripthash"}, "value": 0.237, "n": 1}], "hex": "01000000012ed3e2080d68695fa7f22e9ea9196ff03e3bf8a3e187bebc3eee07fd5af477f0000000006b483045022100fc848fec0b88f0db6ade6c1c5eef464bf6ab337367aa4b592fed8daaed520c80022064f33d6f49d1a4df1adfa27a96544f5fa38f6e8a05cfeb50289793f2a4c50d3d012102bbfc3c2b8d0b95700a13a65f4086a40de724f4a08a59afb7a90365ac98f1a42cffffffff026f420d01000000001976a91444501e78a5ccdf3095346f9bfd176671414bd64088ac20a269010000000017a914142cc247c0d3f4a2ec8c7791ab3af9fa428f593f8700000000", "vin": [{"sequence": 4294967295, "scriptSig": {"hex": "483045022100fc848fec0b88f0db6ade6c1c5eef464bf6ab337367aa4b592fed8daaed520c80022064f33d6f49d1a4df1adfa27a96544f5fa38f6e8a05cfeb50289793f2a4c50d3d012102bbfc3c2b8d0b95700a13a65f4086a40de724f4a08a59afb7a90365ac98f1a42c", "asm": "3045022100fc848fec0b88f0db6ade6c1c5eef464bf6ab337367aa4b592fed8daaed520c80022064f33d6f49d1a4df1adfa27a96544f5fa38f6e8a05cfeb50289793f2a4c50d3d[ALL] 02bbfc3c2b8d0b95700a13a65f4086a40de724f4a08a59afb7a90365ac98f1a42c"}, "vout": 0, "txid": "f077f45afd07ee3ebcbe87e1a3f83b3ef06f19a99e2ef2a75f69680d08e2d32e"}], "txid": "12ec49400b8f7e86c3b3c40bf0531cab076a7b3a503aaf1dce70ca7f537c162c", "blocktime": 1537872475, "version": 1, "confirmations": 11486, "time": 1537872475, "locktime": 0, "vsize": 224, "size": 224}