{"hash": "12f201980a346700835fbe4ef4bb55a9fd5d8133cbefa2e1c3466d45a6c5328b", "blockhash": "0000000000000000000e13cef7c366c0283d82e591d1acd082e914b08063cdf1", "vout": [{"scriptPubKey": {"reqSigs": 1, "hex": "76a91424e25ffbf99979bccc3766a3c6385d7d073a40bc88ac", "addresses": ["14N2WiKRQAgPCo5xwqfP823sFLexEA71Nx"], "asm": "OP_DUP OP_HASH160 24e25ffbf99979bccc3766a3c6385d7d073a40bc OP_EQUALVERIFY OP_CHECKSIG", "type": "pubkeyhash"}, "value": 0.00506348, "n": 0}, {"scriptPubKey": {"reqSigs": 1, "hex": "76a9149d0547569cc0d6e5bf8e6ed39246d9d0c6cafb1388ac", "addresses": ["1FKFQtMjeQ6gDCJSuNL7mECEXaoPHqnbHf"], "asm": "OP_DUP OP_HASH160 9d0547569cc0d6e5bf8e6ed39246d9d0c6cafb13 OP_EQUALVERIFY OP_CHECKSIG", "type": "pubkeyhash"}, "value": 0.00502281, "n": 1}, {"scriptPubKey": {"reqSigs": 1, "hex": "76a9143362899c4a403b969db4387950b0c4e8006648cf88ac", "addresses": ["15ghWHvPA9xhrMEsrAjNvRo1LYEeGkWKaS"], "asm": "OP_DUP OP_HASH160 3362899c4a403b969db4387950b0c4e8006648cf OP_EQUALVERIFY OP_CHECKSIG", "type": "pubkeyhash"}, "value": 0.00517933, "n": 2}, {"scriptPubKey": {"reqSigs": 1, "hex": "a9145444dc0ffcda0e7c260e8f0c5cd240f1308789f387", "addresses": ["39NbB7CbMifYBGiK5a9JjTUqoxcAHur1AS"], "asm": "OP_HASH160 5444dc0ffcda0e7c260e8f0c5cd240f1308789f3 OP_EQUAL", "type": "scripthash"}, "value": 0.00510451, "n": 3}, {"scriptPubKey": {"reqSigs": 1, "hex": "76a9140bbde1ccbe4b12959f3f176c4a985c5a22dbdc4488ac", "addresses": ["1255uM1Et7NRfWbQT57MhH11KFvBJt9ARp"], "asm": "OP_DUP OP_HASH160 0bbde1ccbe4b12959f3f176c4a985c5a22dbdc44 OP_EQUALVERIFY OP_CHECKSIG", "type": "pubkeyhash"}, "value": 0.00479489, "n": 4}, {"scriptPubKey": {"reqSigs": 1, "hex": "76a914ef87f4f74b0808511ddb3b126de1b192e55eedcf88ac", "addresses": ["1NqXNJJk95DkXt6dm6JXkqub8FjCFBFFag"], "asm": "OP_DUP OP_HASH160 ef87f4f74b0808511ddb3b126de1b192e55eedcf OP_EQUALVERIFY OP_CHECKSIG", "type": "pubkeyhash"}, "value": 0.00482681, "n": 5}, {"scriptPubKey": {"reqSigs": 1, "hex": "a914694aae32c0560acdd614d9637b567be58178cdc287", "addresses": ["3BHkLaKviXos6zVkbJYiV4T1RWLDP8Q9Hn"], "asm": "OP_HASH160 694aae32c0560acdd614d9637b567be58178cdc2 OP_EQUAL", "type": "scripthash"}, "value": 0.00509094, "n": 6}, {"scriptPubKey": {"reqSigs": 1, "hex": "76a9149b74a19a7a71a29f46f1ac62523f95d5cfed10a388ac", "addresses": ["1FAyTR8JRuGJ7hNJqiNWDBeDQBie3Wz4fp"], "asm": "OP_DUP OP_HASH160 9b74a19a7a71a29f46f1ac62523f95d5cfed10a3 OP_EQUALVERIFY OP_CHECKSIG", "type": "pubkeyhash"}, "value": 0.00474152, "n": 7}, {"scriptPubKey": {"reqSigs": 1, "hex": "76a9143aba05893130128235e125cd25f262ffba83f29688ac", "addresses": ["16MX38qvudgukL6pDD9L3Wk854HM3hvJyv"], "asm": "OP_DUP OP_HASH160 3aba05893130128235e125cd25f262ffba83f296 OP_EQUALVERIFY OP_CHECKSIG", "type": "pubkeyhash"}, "value": 0.00499219, "n": 8}, {"scriptPubKey": {"reqSigs": 1, "hex": "a914aa6670242b567214dd556474a071b606e82f7ec487", "addresses": ["3HE1Wg8oVxJ4gpcde6Z1qsFGRGeED8mKWT"], "asm": "OP_HASH160 aa6670242b567214dd556474a071b606e82f7ec4 OP_EQUAL", "type": "scripthash"}, "value": 0.00504693, "n": 9}, {"scriptPubKey": {"reqSigs": 1, "hex": "76a914e481605ad7b94987e88b3d0e162e5cb8258a0efd88ac", "addresses": ["1MqE3y3RT9oBqYUHLJRSnCyqcFM61feEhq"], "asm": "OP_DUP OP_HASH160 e481605ad7b94987e88b3d0e162e5cb8258a0efd OP_EQUALVERIFY OP_CHECKSIG", "type": "pubkeyhash"}, "value": 0.00514491, "n": 10}, {"scriptPubKey": {"reqSigs": 1, "hex": "76a914cbbe507cdae8b5b6d2dc74a2cea22870c7ffc1cb88ac", "addresses": ["1KaJADfEt9Ld2AraGdkSC1sJm2T5cT5Nqs"], "asm": "OP_DUP OP_HASH160 cbbe507cdae8b5b6d2dc74a2cea22870c7ffc1cb OP_EQUALVERIFY OP_CHECKSIG", "type": "pubkeyhash"}, "value": 0.00506081, "n": 11}, {"scriptPubKey": {"reqSigs": 1, "hex": "76a914a0c1db6064d6e4b61176c62c8ead723d40a0538988ac", "addresses": ["1Ff1M7LEWnmcN5V9PfSodZP2m1ZxTd8P3K"], "asm": "OP_DUP OP_HASH160 a0c1db6064d6e4b61176c62c8ead723d40a05389 OP_EQUALVERIFY OP_CHECKSIG", "type": "pubkeyhash"}, "value": 0.0047857, "n": 12}, {"scriptPubKey": {"reqSigs": 1, "hex": "76a914be1527e641a6b9837c803efb9ea0b7bb0a3dca5388ac", "addresses": ["1JL4jPBkdTJfzqrJqcX21wvQqtJgbVqhT9"], "asm": "OP_DUP OP_HASH160 be1527e641a6b9837c803efb9ea0b7bb0a3dca53 OP_EQUALVERIFY OP_CHECKSIG", "type": "pubkeyhash"}, "value": 0.00502773, "n": 13}, {"scriptPubKey": {"reqSigs": 1, "hex": "a914d381631837ce1f85563188e01e33ecd072aa47f987", "addresses": ["3LyMVzWvjAeB6EAJH4ss4X6tuoTULsHCvr"], "asm": "OP_HASH160 d381631837ce1f85563188e01e33ecd072aa47f9 OP_EQUAL", "type": "scripthash"}, "value": 0.0050146, "n": 14}, {"scriptPubKey": {"reqSigs": 1, "hex": "a91421d8625d2b202afcf6f0f4e2c519aad358b2e7fe87", "addresses": ["34mySWnRm2CoZ3xcjaSfY5Q6XRKWEp2E9K"], "asm": "OP_HASH160 21d8625d2b202afcf6f0f4e2c519aad358b2e7fe OP_EQUAL", "type": "scripthash"}, "value": 0.00504517, "n": 15}, {"scriptPubKey": {"reqSigs": 1, "hex": "76a91433acb648e2075176dc841f89fad9c92305ca23bc88ac", "addresses": ["15iEN2ZccKyXnQSiWzgJFQQSiriWuSSoiW"], "asm": "OP_DUP OP_HASH160 33acb648e2075176dc841f89fad9c92305ca23bc OP_EQUALVERIFY OP_CHECKSIG", "type": "pubkeyhash"}, "value": 0.00488602, "n": 16}, {"scriptPubKey": {"reqSigs": 1, "hex": "76a914728067162e6821f82687c17c551e4b6842e585e588ac", "addresses": ["1BSRrSiiBzCdX6WF9VrcvayDhPtPSACz8t"], "asm": "OP_DUP OP_HASH160 728067162e6821f82687c17c551e4b6842e585e5 OP_EQUALVERIFY OP_CHECKSIG", "type": "pubkeyhash"}, "value": 0.00474671, "n": 17}, {"scriptPubKey": {"reqSigs": 1, "hex": "76a91447cef13cb74feccb5e8e00fe710736e31cce171e88ac", "addresses": ["17YgtE4wfsBTXebRT9CEGm51nDHfRq4ZJ2"], "asm": "OP_DUP OP_HASH160 47cef13cb74feccb5e8e00fe710736e31cce171e OP_EQUALVERIFY OP_CHECKSIG", "type": "pubkeyhash"}, "value": 0.0051104, "n": 18}, {"scriptPubKey": {"reqSigs": 1, "hex": "a914f17704f0db75e750088ea78cc0f03d8819409ac687", "addresses": ["3PhmMP3PjpjRQKzxST7WQnuzKgkVgXBfw5"], "asm": "OP_HASH160 f17704f0db75e750088ea78cc0f03d8819409ac6 OP_EQUAL", "type": "scripthash"}, "value": 0.00489942, "n": 19}, {"scriptPubKey": {"reqSigs": 1, "hex": "76a9145f430e63ab5234102817fc641faaa8310f7e151f88ac", "addresses": ["19ghXNWnwDXH4p11u98EUqgf8hpaj6kSLh"], "asm": "OP_DUP OP_HASH160 5f430e63ab5234102817fc641faaa8310f7e151f OP_EQUALVERIFY OP_CHECKSIG", "type": "pubkeyhash"}, "value": 0.00480151, "n": 20}, {"scriptPubKey": {"reqSigs": 1, "hex": "a9142911d290f87ebe9b6486b5b7a131030b0948b29b87", "addresses": ["35SAyjqzVsyFdSAURx1BsvyPoQd5AbHrQ5"], "asm": "OP_HASH160 2911d290f87ebe9b6486b5b7a131030b0948b29b OP_EQUAL", "type": "scripthash"}, "value": 0.00492419, "n": 21}, {"scriptPubKey": {"reqSigs": 1, "hex": "76a914dee5c4561407c0f431031de768f6438f5325faa688ac", "addresses": ["1MKaG5ExCrm4SdGWGvXpDxRBFGFKWAr6Bt"], "asm": "OP_DUP OP_HASH160 dee5c4561407c0f431031de768f6438f5325faa6 OP_EQUALVERIFY OP_CHECKSIG", "type": "pubkeyhash"}, "value": 0.00477272, "n": 22}, {"scriptPubKey": {"reqSigs": 1, "hex": "76a9144d73a6d85e0f19bbdf41aa98aa9a82cf21e87cd888ac", "addresses": ["184XaPtaT8wM18nK3GcLA6B6ko8z5bj89a"], "asm": "OP_DUP OP_HASH160 4d73a6d85e0f19bbdf41aa98aa9a82cf21e87cd8 OP_EQUALVERIFY OP_CHECKSIG", "type": "pubkeyhash"}, "value": 0.00514948, "n": 23}, {"scriptPubKey": {"reqSigs": 1, "hex": "a9149c855c8a2c4375e52e73c900ee9a19394b4c1ec687", "addresses": ["3Fxd6b2y87H8YwjCcZdNNWcwEympiVeXNJ"], "asm": "OP_HASH160 9c855c8a2c4375e52e73c900ee9a19394b4c1ec6 OP_EQUAL", "type": "scripthash"}, "value": 0.00472242, "n": 24}, {"scriptPubKey": {"reqSigs": 1, "hex": "a91469f376c8ece0bc59dc0ce048be7be33ac9299c0e87", "addresses": ["3BMEXrvDRN6WxJnVohmaL8dh7VdfzGmZEt"], "asm": "OP_HASH160 69f376c8ece0bc59dc0ce048be7be33ac9299c0e OP_EQUAL", "type": "scripthash"}, "value": 0.00516263, "n": 25}, {"scriptPubKey": {"reqSigs": 1, "hex": "76a914e92914c4d043c2940b89933467aab7d7c82ee85588ac", "addresses": ["1NFqf4fykhSf8rRNB3bXAVijBdVCd8oaA9"], "asm": "OP_DUP OP_HASH160 e92914c4d043c2940b89933467aab7d7c82ee855 OP_EQUALVERIFY OP_CHECKSIG", "type": "pubkeyhash"}, "value": 0.00475329, "n": 26}, {"scriptPubKey": {"reqSigs": 1, "hex": "76a914f34b2c881a3a1e1593562cc2cf3422114ea3062b88ac", "addresses": ["1PBRFny4qtAhzz1crgk8hXHSzQ4p8Nvt5V"], "asm": "OP_DUP OP_HASH160 f34b2c881a3a1e1593562cc2cf3422114ea3062b OP_EQUALVERIFY OP_CHECKSIG", "type": "pubkeyhash"}, "value": 0.00478698, "n": 27}, {"scriptPubKey": {"reqSigs": 1, "hex": "a9144de7ccd021331565cb5e9041319ebaabac20f86b87", "addresses": ["38nwe4hVnYZt5wHoVjsZ8dZmTwR8rYCYkv"], "asm": "OP_HASH160 4de7ccd021331565cb5e9041319ebaabac20f86b OP_EQUAL", "type": "scripthash"}, "value": 0.00503529, "n": 28}, {"scriptPubKey": {"reqSigs": 1, "hex": "76a91499ac81feb36e96e9196d89ab9a9002693a9951fb88ac", "addresses": ["1F1Z3QJ3h933Q26JsDgfbQiqtJuxgrtNp9"], "asm": "OP_DUP OP_HASH160 99ac81feb36e96e9196d89ab9a9002693a9951fb OP_EQUALVERIFY OP_CHECKSIG", "type": "pubkeyhash"}, "value": 0.00485614, "n": 29}, {"scriptPubKey": {"reqSigs": 1, "hex": "76a914e7f976750ffcc498ee5883f29f5d6f8928ede9f588ac", "addresses": ["1N9ZwHdbGKQqeTeuLoTxBWo6zrzc2Aw5tE"], "asm": "OP_DUP OP_HASH160 e7f976750ffcc498ee5883f29f5d6f8928ede9f5 OP_EQUALVERIFY OP_CHECKSIG", "type": "pubkeyhash"}, "value": 0.00502703, "n": 30}, {"scriptPubKey": {"reqSigs": 1, "hex": "76a9149de8907fafa8cebbf401e8e0ab1b87e4aba2df0488ac", "addresses": ["1FPwgykmybfrxyc2wjrEqYUm1LSBfrC356"], "asm": "OP_DUP OP_HASH160 9de8907fafa8cebbf401e8e0ab1b87e4aba2df04 OP_EQUALVERIFY OP_CHECKSIG", "type": "pubkeyhash"}, "value": 0.00521834, "n": 31}, {"scriptPubKey": {"reqSigs": 1, "hex": "a914732926a847d2110b3cc4c7154378a72229dd240087", "addresses": ["3CBvvpsff1cYFJTfyUPJYWdYKKZypa1xQB"], "asm": "OP_HASH160 732926a847d2110b3cc4c7154378a72229dd2400 OP_EQUAL", "type": "scripthash"}, "value": 0.00476384, "n": 32}, {"scriptPubKey": {"reqSigs": 1, "hex": "76a914d1a96abb0708e95d9aeeb2b88b7bbc8ca23f8f3788ac", "addresses": ["1L7bBPQQUbDqij56AWoJ3XP4AiEQpwgUNk"], "asm": "OP_DUP OP_HASH160 d1a96abb0708e95d9aeeb2b88b7bbc8ca23f8f37 OP_EQUALVERIFY OP_CHECKSIG", "type": "pubkeyhash"}, "value": 0.00520462, "n": 33}, {"scriptPubKey": {"reqSigs": 1, "hex": "76a914758ad9cfa8d3d47aed01bf60ca12ae0a6793540788ac", "addresses": ["1BiWPyBPLbKmvAkPDoDmHFVsX2gYfy7whd"], "asm": "OP_DUP OP_HASH160 758ad9cfa8d3d47aed01bf60ca12ae0a67935407 OP_EQUALVERIFY OP_CHECKSIG", "type": "pubkeyhash"}, "value": 0.00509687, "n": 34}, {"scriptPubKey": {"reqSigs": 1, "hex": "76a914666f0afe8f094e8f8bcfd19e5d44bb6611103dda88ac", "addresses": ["1ALcwy2JP56ihBWnPHnPBgkBJ85iiozrwF"], "asm": "OP_DUP OP_HASH160 666f0afe8f094e8f8bcfd19e5d44bb6611103dda OP_EQUALVERIFY OP_CHECKSIG", "type": "pubkeyhash"}, "value": 0.00519885, "n": 35}, {"scriptPubKey": {"reqSigs": 1, "hex": "a914ab45f7aa19430b4de7544f6657533a8889c35d3f87", "addresses": ["3HJdHmbPn3BpmihvpfUDQVagpc9soiQUwo"], "asm": "OP_HASH160 ab45f7aa19430b4de7544f6657533a8889c35d3f OP_EQUAL", "type": "scripthash"}, "value": 0.00518288, "n": 36}, {"scriptPubKey": {"reqSigs": 1, "hex": "76a914c109ad251250100650f667af9f57f05d6d217e5188ac", "addresses": ["1Jbh1MAU1Xd3n1xkZ2TNM5FqbapQJcYpQM"], "asm": "OP_DUP OP_HASH160 c109ad251250100650f667af9f57f05d6d217e51 OP_EQUALVERIFY OP_CHECKSIG", "type": "pubkeyhash"}, "value": 0.00502352, "n": 37}, {"scriptPubKey": {"reqSigs": 1, "hex": "a9146fc2e9d2195f17509672d9d71c835694099c037287", "addresses": ["3BsxRevqUNX6qfk48Xp83zGjDLwotw9mx5"], "asm": "OP_HASH160 6fc2e9d2195f17509672d9d71c835694099c0372 OP_EQUAL", "type": "scripthash"}, "value": 0.00513229, "n": 38}, {"scriptPubKey": {"reqSigs": 1, "hex": "76a9142b56d56a76ea06c8b8d33ca6f19d0514fdefe54188ac", "addresses": ["14xA5ZJMLrHmeKsFG3j3c6SDpxHtyqij5k"], "asm": "OP_DUP OP_HASH160 2b56d56a76ea06c8b8d33ca6f19d0514fdefe541 OP_EQUALVERIFY OP_CHECKSIG", "type": "pubkeyhash"}, "value": 0.00513136, "n": 39}, {"scriptPubKey": {"reqSigs": 1, "hex": "76a914269e5caff57745b41da8debb5e49a79756819e5f88ac", "addresses": ["14XCPUkGHSzx55csC1Yay6ynh8kcX4KT7D"], "asm": "OP_DUP OP_HASH160 269e5caff57745b41da8debb5e49a79756819e5f OP_EQUALVERIFY OP_CHECKSIG", "type": "pubkeyhash"}, "value": 0.00513111, "n": 40}, {"scriptPubKey": {"reqSigs": 1, "hex": "76a914ef30abfeb25ea51590e0a4ff65348d0f7ccabf7188ac", "addresses": ["1NoiodP53Q3zxWYUGMSbAY1iGu6ATVsUas"], "asm": "OP_DUP OP_HASH160 ef30abfeb25ea51590e0a4ff65348d0f7ccabf71 OP_EQUALVERIFY OP_CHECKSIG", "type": "pubkeyhash"}, "value": 0.00494324, "n": 41}, {"scriptPubKey": {"reqSigs": 1, "hex": "a914f405fcbfa3bedba488fe4e7308cb24272e235cba87", "addresses": ["3PwHyMZCjZyuvriseUgKWe94H1jPj3H1st"], "asm": "OP_HASH160 f405fcbfa3bedba488fe4e7308cb24272e235cba OP_EQUAL", "type": "scripthash"}, "value": 0.00508579, "n": 42}, {"scriptPubKey": {"reqSigs": 1, "hex": "76a914f001696b18a24d8945191fbdea34bed5aac535e288ac", "addresses": ["1Nt2s8fnKRCnJ8gP7ghpzEgHZTgSSSkhEh"], "asm": "OP_DUP OP_HASH160 f001696b18a24d8945191fbdea34bed5aac535e2 OP_EQUALVERIFY OP_CHECKSIG", "type": "pubkeyhash"}, "value": 0.00503676, "n": 43}, {"scriptPubKey": {"reqSigs": 1, "hex": "a9149ea60add4cdbbf29c0c4e66b7d3e40c5c7c3f9d487", "addresses": ["3G9sbgcsntGiLqfrRoLp2jKixLCiC2PJAJ"], "asm": "OP_HASH160 9ea60add4cdbbf29c0c4e66b7d3e40c5c7c3f9d4 OP_EQUAL", "type": "scripthash"}, "value": 0.00477344, "n": 44}, {"scriptPubKey": {"reqSigs": 1, "hex": "76a914cbece6a2e98023e1e6054a2df3364885a362f17f88ac", "addresses": ["1KbFy7AaSGCTJEnja5QT168XWPZozDcsGS"], "asm": "OP_DUP OP_HASH160 cbece6a2e98023e1e6054a2df3364885a362f17f OP_EQUALVERIFY OP_CHECKSIG", "type": "pubkeyhash"}, "value": 0.00476461, "n": 45}, {"scriptPubKey": {"reqSigs": 1, "hex": "76a9149af176227db8447ec79343810b971b498b5da1fb88ac", "addresses": ["1F8GKaZ7GVc5s6WxEmKYnux6Dz6veBX23q"], "asm": "OP_DUP OP_HASH160 9af176227db8447ec79343810b971b498b5da1fb OP_EQUALVERIFY OP_CHECKSIG", "type": "pubkeyhash"}, "value": 0.00476528, "n": 46}, {"scriptPubKey": {"reqSigs": 1, "hex": "76a914314679e2bdd9f18afd127583d0a5e6a5364008d288ac", "addresses": ["15VYYAdhCDKwwzK42zYL8gchfQGTKfgPka"], "asm": "OP_DUP OP_HASH160 314679e2bdd9f18afd127583d0a5e6a5364008d2 OP_EQUALVERIFY OP_CHECKSIG", "type": "pubkeyhash"}, "value": 0.00477765, "n": 47}, {"scriptPubKey": {"reqSigs": 1, "hex": "76a914c67e4762b6fee052db0406f230c345849fd38f3088ac", "addresses": ["1K6Y4zTrUYbMLnCtUsyYNhd6wV1QDtWr4U"], "asm": "OP_DUP OP_HASH160 c67e4762b6fee052db0406f230c345849fd38f30 OP_EQUALVERIFY OP_CHECKSIG", "type": "pubkeyhash"}, "value": 0.00510452, "n": 48}, {"scriptPubKey": {"reqSigs": 1, "hex": "76a9141c217a17b55f9810405afed3296e8416f6bc6b9488ac", "addresses": ["13Zk2PYgNbGvyh4FAbHgue87ejEtyEXBbh"], "asm": "OP_DUP OP_HASH160 1c217a17b55f9810405afed3296e8416f6bc6b94 OP_EQUALVERIFY OP_CHECKSIG", "type": "pubkeyhash"}, "value": 0.00518265, "n": 49}, {"scriptPubKey": {"reqSigs": 1, "hex": "76a914eed022f263f6fb8c931307470ffee4f2a3e410fd88ac", "addresses": ["1NmjAEa38LAJi3rjfyrd5yenuMZzCMKibH"], "asm": "OP_DUP OP_HASH160 eed022f263f6fb8c931307470ffee4f2a3e410fd OP_EQUALVERIFY OP_CHECKSIG", "type": "pubkeyhash"}, "value": 0.00500949, "n": 50}, {"scriptPubKey": {"reqSigs": 1, "hex": "a914aa534dce2e15797dfa17e6c9bfd2aa811da3f38087", "addresses": ["3HDcbDKgQGh2QsUeRchSPvbRSURhcENvT6"], "asm": "OP_HASH160 aa534dce2e15797dfa17e6c9bfd2aa811da3f380 OP_EQUAL", "type": "scripthash"}, "value": 0.00509983, "n": 51}, {"scriptPubKey": {"reqSigs": 1, "hex": "76a914d2bda7c3e4ddd6efbf25e648c3f8c71a1be7b18988ac", "addresses": ["1LDJ6mYKhEjPUhX2f4PLatBQcd91rK26Pc"], "asm": "OP_DUP OP_HASH160 d2bda7c3e4ddd6efbf25e648c3f8c71a1be7b189 OP_EQUALVERIFY OP_CHECKSIG", "type": "pubkeyhash"}, "value": 0.00478049, "n": 52}, {"scriptPubKey": {"reqSigs": 1, "hex": "76a914ce5d594e86ca6ed7529859dcac4d5ac3c771bf5c88ac", "addresses": ["1KpA2WXtXyCp7ThFV5WwVM1M8oLxscFws5"], "asm": "OP_DUP OP_HASH160 ce5d594e86ca6ed7529859dcac4d5ac3c771bf5c OP_EQUALVERIFY OP_CHECKSIG", "type": "pubkeyhash"}, "value": 0.00481402, "n": 53}, {"scriptPubKey": {"reqSigs": 1, "hex": "a9142a15ee6b3010f27904390b2b4cc4cd3964c4fdfa87", "addresses": ["35XYaR4aB3Fx4UvZzXeBPtKgtWcr3Dmty8"], "asm": "OP_HASH160 2a15ee6b3010f27904390b2b4cc4cd3964c4fdfa OP_EQUAL", "type": "scripthash"}, "value": 0.00506709, "n": 54}, {"scriptPubKey": {"reqSigs": 1, "hex": "76a91468193219946a1f78f0ec8964008efbc9c8cd504a88ac", "addresses": ["1AVRTaZ2Xyh2oPZCocMXrpjmh7iJANQLVa"], "asm": "OP_DUP OP_HASH160 68193219946a1f78f0ec8964008efbc9c8cd504a OP_EQUALVERIFY OP_CHECKSIG", "type": "pubkeyhash"}, "value": 0.00500855, "n": 55}, {"scriptPubKey": {"reqSigs": 1, "hex": "a91482c6237ba2e3060734a51e91ba55d83b581177b787", "addresses": ["3DcV8PmVkv2kNJuDiuGxAYq9V7ksPu15Zc"], "asm": "OP_HASH160 82c6237ba2e3060734a51e91ba55d83b581177b7 OP_EQUAL", "type": "scripthash"}, "value": 0.00506138, "n": 56}, {"scriptPubKey": {"reqSigs": 1, "hex": "a91423f7636136af51bcb020448a7f5ba41913a40e3287", "addresses": ["34yBw6Fs37qMeuMTt2TdXqz6amH1eD3CVU"], "asm": "OP_HASH160 23f7636136af51bcb020448a7f5ba41913a40e32 OP_EQUAL", "type": "scripthash"}, "value": 0.00520586, "n": 57}, {"scriptPubKey": {"reqSigs": 1, "hex": "76a91421df58bfbe21d1cfb492075861ecf67b881fa58c88ac", "addresses": ["1466rjK1ZPQirLMu61UdLpjn6wkRd7k1xN"], "asm": "OP_DUP OP_HASH160 21df58bfbe21d1cfb492075861ecf67b881fa58c OP_EQUALVERIFY OP_CHECKSIG", "type": "pubkeyhash"}, "value": 0.00474833, "n": 58}, {"scriptPubKey": {"reqSigs": 1, "hex": "76a91474641bd64543b312388e5a055338295b59e6fd2c88ac", "addresses": ["1BcRJvuWuKFbiSYnuMgC8s5NXLT43nqHss"], "asm": "OP_DUP OP_HASH160 74641bd64543b312388e5a055338295b59e6fd2c OP_EQUALVERIFY OP_CHECKSIG", "type": "pubkeyhash"}, "value": 0.00515067, "n": 59}, {"scriptPubKey": {"reqSigs": 1, "hex": "76a91448471c686d9a024b437f0a49c067e9fa79ac499d88ac", "addresses": ["17bAqgw75nmGAd7X2XhW7WGcTTFXLHkBmV"], "asm": "OP_DUP OP_HASH160 48471c686d9a024b437f0a49c067e9fa79ac499d OP_EQUALVERIFY OP_CHECKSIG", "type": "pubkeyhash"}, "value": 0.0050157, "n": 60}, {"scriptPubKey": {"reqSigs": 1, "hex": "a91437cae35e24ad20af2cc00b7368e8dc165709273b87", "addresses": ["36n291ZsuNYoWNVoJTuTf2uhhUZEt3LPUf"], "asm": "OP_HASH160 37cae35e24ad20af2cc00b7368e8dc165709273b OP_EQUAL", "type": "scripthash"}, "value": 0.00480141, "n": 61}, {"scriptPubKey": {"reqSigs": 1, "hex": "76a91468a91c0bd8de62005cdfb8a5e4f05a1b3e3a8d8188ac", "addresses": ["1AYPrtXCqxHdDNxxYm6xFSuKfGPrCM6QYr"], "asm": "OP_DUP OP_HASH160 68a91c0bd8de62005cdfb8a5e4f05a1b3e3a8d81 OP_EQUALVERIFY OP_CHECKSIG", "type": "pubkeyhash"}, "value": 0.00521925, "n": 62}, {"scriptPubKey": {"reqSigs": 1, "hex": "76a9141bd6c91b28b3b3ed992bd4e927240da9b3b1347f88ac", "addresses": ["13YCYk4mQ3ZrQ2J6xri8N3anLC6mk8s1tZ"], "asm": "OP_DUP OP_HASH160 1bd6c91b28b3b3ed992bd4e927240da9b3b1347f OP_EQUALVERIFY OP_CHECKSIG", "type": "pubkeyhash"}, "value": 0.00511466, "n": 63}, {"scriptPubKey": {"reqSigs": 1, "hex": "76a9140402e1a708ea150e3386e445775d5d775cbbcb6688ac", "addresses": ["1ND9yWdUd8c1DWe43NnDE4EL5YpVr6cuS"], "asm": "OP_DUP OP_HASH160 0402e1a708ea150e3386e445775d5d775cbbcb66 OP_EQUALVERIFY OP_CHECKSIG", "type": "pubkeyhash"}, "value": 0.00482303, "n": 64}, {"scriptPubKey": {"reqSigs": 1, "hex": "a9145d48c89e115163c6b278c314af15ab6d0edfe03887", "addresses": ["3ACFxUsvE8UP3BTFJvt1TkjXNFW51S7AnY"], "asm": "OP_HASH160 5d48c89e115163c6b278c314af15ab6d0edfe038 OP_EQUAL", "type": "scripthash"}, "value": 0.00491012, "n": 65}, {"scriptPubKey": {"reqSigs": 1, "hex": "76a9142a65ee24103d9e14e2e46a1bd5f1b8e79b53610c88ac", "addresses": ["14sBVJ3su58gnXbbAgX1Koeu2FmqHKyacH"], "asm": "OP_DUP OP_HASH160 2a65ee24103d9e14e2e46a1bd5f1b8e79b53610c OP_EQUALVERIFY OP_CHECKSIG", "type": "pubkeyhash"}, "value": 0.00503288, "n": 66}, {"scriptPubKey": {"reqSigs": 1, "hex": "76a914dc64746c1b591e1eeae47126b48d3c2dd4b8ef1f88ac", "addresses": ["1M6KzvXGx489gGkVZQmpkmNKtqiWadxoJv"], "asm": "OP_DUP OP_HASH160 dc64746c1b591e1eeae47126b48d3c2dd4b8ef1f OP_EQUALVERIFY OP_CHECKSIG", "type": "pubkeyhash"}, "value": 0.00522671, "n": 67}, {"scriptPubKey": {"reqSigs": 1, "hex": "76a914d2b8ec244d6da8a5d775be8bbca99e2a385f9ccb88ac", "addresses": ["1LDCRvMtRvQyk6ZHkFEejUSnpZDiVn9YoX"], "asm": "OP_DUP OP_HASH160 d2b8ec244d6da8a5d775be8bbca99e2a385f9ccb OP_EQUALVERIFY OP_CHECKSIG", "type": "pubkeyhash"}, "value": 0.00476176, "n": 68}, {"scriptPubKey": {"reqSigs": 1, "hex": "76a914aac470ccce37249fb8d3e03843bb932e4c44453988ac", "addresses": ["1GZwCYcfSs7yf7uYnqcpaR56ndGSZki8wM"], "asm": "OP_DUP OP_HASH160 aac470ccce37249fb8d3e03843bb932e4c444539 OP_EQUALVERIFY OP_CHECKSIG", "type": "pubkeyhash"}, "value": 0.00473953, "n": 69}, {"scriptPubKey": {"reqSigs": 1, "hex": "a914c6d5461a61b221cb913c9853f36b30adaa17c35c87", "addresses": ["3KpMD3zRersqJKaNY7vijDYW73pQq6pU1N"], "asm": "OP_HASH160 c6d5461a61b221cb913c9853f36b30adaa17c35c OP_EQUAL", "type": "scripthash"}, "value": 0.00481788, "n": 70}, {"scriptPubKey": {"reqSigs": 1, "hex": "76a9142104a1c34659e919df57203b0ba0bcc43b2eb07488ac", "addresses": ["141arAFVDGmu4GHZgdNuNwfC3Getpc8vto"], "asm": "OP_DUP OP_HASH160 2104a1c34659e919df57203b0ba0bcc43b2eb074 OP_EQUALVERIFY OP_CHECKSIG", "type": "pubkeyhash"}, "value": 0.00511193, "n": 71}, {"scriptPubKey": {"reqSigs": 1, "hex": "a914f87f98167d01d5ac18916e31c6e6bf1cbed132f687", "addresses": ["3QLxMWaHNVawfZHvpPusp5Y5cDTYGoEgNT"], "asm": "OP_HASH160 f87f98167d01d5ac18916e31c6e6bf1cbed132f6 OP_EQUAL", "type": "scripthash"}, "value": 0.00488483, "n": 72}, {"scriptPubKey": {"reqSigs": 1, "hex": "76a9142420f4a7707c569a1750de404f632dbcb9999ea388ac", "addresses": ["14J2ohzGZLFk38TkBv3i3RMxcgG4fjnDdC"], "asm": "OP_DUP OP_HASH160 2420f4a7707c569a1750de404f632dbcb9999ea3 OP_EQUALVERIFY OP_CHECKSIG", "type": "pubkeyhash"}, "value": 0.00476619, "n": 73}, {"scriptPubKey": {"reqSigs": 1, "hex": "76a914070861cd10d623646bf6b52af6167fcbde50c72688ac", "addresses": ["1eBmjjiYfsS7ZwpTZ6wqJCPye3EktrVik"], "asm": "OP_DUP OP_HASH160 070861cd10d623646bf6b52af6167fcbde50c726 OP_EQUALVERIFY OP_CHECKSIG", "type": "pubkeyhash"}, "value": 0.00520902, "n": 74}, {"scriptPubKey": {"reqSigs": 1, "hex": "76a9146686c75dfe8ff61f5c15243fcae22694151afe7f88ac", "addresses": ["1AM7PAJV6kEt8Ldc8eHs1EqBWXRzsZ2vNB"], "asm": "OP_DUP OP_HASH160 6686c75dfe8ff61f5c15243fcae22694151afe7f OP_EQUALVERIFY OP_CHECKSIG", "type": "pubkeyhash"}, "value": 0.0051284, "n": 75}, {"scriptPubKey": {"reqSigs": 1, "hex": "76a914aa5978eb1c2a7563d9554ff6bc8461c2e8f9cfa788ac", "addresses": ["1GXj4FyUCmMdhKVS1BRvgTM5xDdTTAjejq"], "asm": "OP_DUP OP_HASH160 aa5978eb1c2a7563d9554ff6bc8461c2e8f9cfa7 OP_EQUALVERIFY OP_CHECKSIG", "type": "pubkeyhash"}, "value": 0.00501383, "n": 76}, {"scriptPubKey": {"reqSigs": 1, "hex": "76a9148d700961a59c267568386fc5443f971fb3ebd2e388ac", "addresses": ["1DtrVVTr7bbKUuA5vuVRhSmF5N9PtH6KnD"], "asm": "OP_DUP OP_HASH160 8d700961a59c267568386fc5443f971fb3ebd2e3 OP_EQUALVERIFY OP_CHECKSIG", "type": "pubkeyhash"}, "value": 0.00523119, "n": 77}, {"scriptPubKey": {"reqSigs": 1, "hex": "76a9146c6e8b477de249d28ba092f07b92b600ae5634a388ac", "addresses": ["1AtLQTJuv3SfSLexVELL5USHagkx1C2RXh"], "asm": "OP_DUP OP_HASH160 6c6e8b477de249d28ba092f07b92b600ae5634a3 OP_EQUALVERIFY OP_CHECKSIG", "type": "pubkeyhash"}, "value": 0.00474856, "n": 78}, {"scriptPubKey": {"reqSigs": 1, "hex": "76a9141597045a8426a43a9a017ff6d93e810d6a55216688ac", "addresses": ["12yA6sh4rANVRLSvQtkgExj2H4xRCQVK4p"], "asm": "OP_DUP OP_HASH160 1597045a8426a43a9a017ff6d93e810d6a552166 OP_EQUALVERIFY OP_CHECKSIG", "type": "pubkeyhash"}, "value": 0.00472415, "n": 79}, {"scriptPubKey": {"reqSigs": 1, "hex": "a9141f5a2c43888d3bf3d70470c1471d35b30a14bc9487", "addresses": ["34Yntp9uMDKtHtJPYxnRbnggx381wLzsBF"], "asm": "OP_HASH160 1f5a2c43888d3bf3d70470c1471d35b30a14bc94 OP_EQUAL", "type": "scripthash"}, "value": 0.0050118, "n": 80}, {"scriptPubKey": {"reqSigs": 1, "hex": "76a9141c04c36000dbd63bd6c100c0abe8ff63ef392ee488ac", "addresses": ["13Z9dKjkbDuPgxvDze4zvkbUtfBNNv1vdp"], "asm": "OP_DUP OP_HASH160 1c04c36000dbd63bd6c100c0abe8ff63ef392ee4 OP_EQUALVERIFY OP_CHECKSIG", "type": "pubkeyhash"}, "value": 0.00476633, "n": 81}, {"scriptPubKey": {"reqSigs": 1, "hex": "76a9145f3e32b7844cec8f22e313bb67b9636e33c285f088ac", "addresses": ["19gbhpphw2z8rCvJRNvKq4nKq2nN1g3hgj"], "asm": "OP_DUP OP_HASH160 5f3e32b7844cec8f22e313bb67b9636e33c285f0 OP_EQUALVERIFY OP_CHECKSIG", "type": "pubkeyhash"}, "value": 6.68249017, "n": 82}, {"scriptPubKey": {"reqSigs": 1, "hex": "a91496949425fff4dbf6e59bcbfbf09251985f1bb98d87", "addresses": ["3FRDGkKYusgCY6iQESB9FxHGnSRniqCJX4"], "asm": "OP_HASH160 96949425fff4dbf6e59bcbfbf09251985f1bb98d OP_EQUAL", "type": "scripthash"}, "value": 0.00509143, "n": 83}, {"scriptPubKey": {"reqSigs": 1, "hex": "76a914d0a25e669e628b5e328e8b3b92f349a9648366f388ac", "addresses": ["1L2A4UozxfctSVzaGqgdDCPzK9s7jwavnm"], "asm": "OP_DUP OP_HASH160 d0a25e669e628b5e328e8b3b92f349a9648366f3 OP_EQUALVERIFY OP_CHECKSIG", "type": "pubkeyhash"}, "value": 0.00473833, "n": 84}, {"scriptPubKey": {"reqSigs": 1, "hex": "76a9140b66b8733dc196a25f7b86f5f6d2cccbcded76fe88ac", "addresses": ["123HVFroX3kxDcpW7YvssNsvPYx3SbRZ1L"], "asm": "OP_DUP OP_HASH160 0b66b8733dc196a25f7b86f5f6d2cccbcded76fe OP_EQUALVERIFY OP_CHECKSIG", "type": "pubkeyhash"}, "value": 0.00473016, "n": 85}, {"scriptPubKey": {"reqSigs": 1, "hex": "76a9145a717fce438681ca2ba1d321328c39134bf9540e88ac", "addresses": ["19FDnL9zmSDedkcZcb2V83GfHMvLQais4J"], "asm": "OP_DUP OP_HASH160 5a717fce438681ca2ba1d321328c39134bf9540e OP_EQUALVERIFY OP_CHECKSIG", "type": "pubkeyhash"}, "value": 0.00500729, "n": 86}, {"scriptPubKey": {"reqSigs": 1, "hex": "76a914c8a9d5c377c3d18c3660bbef7a8b3b43096e520088ac", "addresses": ["1KJ1biAVx5yQfv7W3jeJTFe12X1UUvvoC4"], "asm": "OP_DUP OP_HASH160 c8a9d5c377c3d18c3660bbef7a8b3b43096e5200 OP_EQUALVERIFY OP_CHECKSIG", "type": "pubkeyhash"}, "value": 0.00496344, "n": 87}, {"scriptPubKey": {"reqSigs": 1, "hex": "a914d53a2e855d2d24e4238f9aa0105b665c86ffa1b287", "addresses": ["3M8TYwWNJXf6DBhDn9bmo274VDdP4wgYot"], "asm": "OP_HASH160 d53a2e855d2d24e4238f9aa0105b665c86ffa1b2 OP_EQUAL", "type": "scripthash"}, "value": 0.00488003, "n": 88}, {"scriptPubKey": {"reqSigs": 1, "hex": "76a914af9551df47c58db517849274c210db869b72b95388ac", "addresses": ["1H1Q8VatQFgWcZKM6Pgfa94mdf2oM9vxLK"], "asm": "OP_DUP OP_HASH160 af9551df47c58db517849274c210db869b72b953 OP_EQUALVERIFY OP_CHECKSIG", "type": "pubkeyhash"}, "value": 0.00509007, "n": 89}, {"scriptPubKey": {"reqSigs": 1, "hex": "76a9147338a19695eae92ae308c7afb331897dd5a1e0ef88ac", "addresses": ["1BWEYsCf7gFVcHB4fTmz7Je1EY663YM7yK"], "asm": "OP_DUP OP_HASH160 7338a19695eae92ae308c7afb331897dd5a1e0ef OP_EQUALVERIFY OP_CHECKSIG", "type": "pubkeyhash"}, "value": 0.00498071, "n": 90}, {"scriptPubKey": {"reqSigs": 1, "hex": "76a9149299d5f1deae02e72cdf2c9d3d8d61b968d3d8c288ac", "addresses": ["1EN9whdmGqR6ffjb95nrQe1oT9LMwCy5we"], "asm": "OP_DUP OP_HASH160 9299d5f1deae02e72cdf2c9d3d8d61b968d3d8c2 OP_EQUALVERIFY OP_CHECKSIG", "type": "pubkeyhash"}, "value": 0.00521286, "n": 91}, {"scriptPubKey": {"reqSigs": 1, "hex": "76a914f5d0dcd481b2aaf8b24954bf504eb23d4cf89a7888ac", "addresses": ["1PQkm2bdeDoZ6EwC7gbLYi7kVXoHRVjQtX"], "asm": "OP_DUP OP_HASH160 f5d0dcd481b2aaf8b24954bf504eb23d4cf89a78 OP_EQUALVERIFY OP_CHECKSIG", "type": "pubkeyhash"}, "value": 0.00475905, "n": 92}, {"scriptPubKey": {"reqSigs": 1, "hex": "76a9144bd11ce5d2c08823e5ab1c955022b45815ff319f88ac", "addresses": ["17utBoh7i9XLT26gKApoJ2qrhGHcQvbEw9"], "asm": "OP_DUP OP_HASH160 4bd11ce5d2c08823e5ab1c955022b45815ff319f OP_EQUALVERIFY OP_CHECKSIG", "type": "pubkeyhash"}, "value": 0.00477775, "n": 93}, {"scriptPubKey": {"reqSigs": 1, "hex": "76a914d701df6d98753870773d7bcd664aed38fc545b8588ac", "addresses": ["1LbrXNCuAWCt5NRNL4JhAWbffwwspxQnan"], "asm": "OP_DUP OP_HASH160 d701df6d98753870773d7bcd664aed38fc545b85 OP_EQUALVERIFY OP_CHECKSIG", "type": "pubkeyhash"}, "value": 0.00520786, "n": 94}, {"scriptPubKey": {"reqSigs": 1, "hex": "a914c4c785626a0cbc07f716fae4fc819575d6cf6c6387", "addresses": ["3KdVP79vhWjnV4aLtkc651oa378fvLZqNL"], "asm": "OP_HASH160 c4c785626a0cbc07f716fae4fc819575d6cf6c63 OP_EQUAL", "type": "scripthash"}, "value": 0.00504268, "n": 95}, {"scriptPubKey": {"reqSigs": 1, "hex": "76a91475c164060963846f11907a267625b6d640cec7bd88ac", "addresses": ["1BjdjU59hcizFMpSxFuAHx797ACABSWRMZ"], "asm": "OP_DUP OP_HASH160 75c164060963846f11907a267625b6d640cec7bd OP_EQUALVERIFY OP_CHECKSIG", "type": "pubkeyhash"}, "value": 0.00472615, "n": 96}, {"scriptPubKey": {"reqSigs": 1, "hex": "76a914c9a5416dbb7b1116e9ca12b208551b02fae26f8b88ac", "addresses": ["1KPCniaq2rg75M6DDngnBJVt9YK4kxpiZB"], "asm": "OP_DUP OP_HASH160 c9a5416dbb7b1116e9ca12b208551b02fae26f8b OP_EQUALVERIFY OP_CHECKSIG", "type": "pubkeyhash"}, "value": 0.00474819, "n": 97}, {"scriptPubKey": {"reqSigs": 1, "hex": "76a91494d30dac840a091d015d98632941a9bee0d286d788ac", "addresses": ["1EZuqe59L9izSoVPyoFn5npL5qKWp3MV3C"], "asm": "OP_DUP OP_HASH160 94d30dac840a091d015d98632941a9bee0d286d7 OP_EQUALVERIFY OP_CHECKSIG", "type": "pubkeyhash"}, "value": 0.00522947, "n": 98}, {"scriptPubKey": {"reqSigs": 1, "hex": "a91433711cf4153e84428c2d7d784d015ce522a2ca7787", "addresses": ["36P1tZcJLM7vBqh3DAa9Zfzaf5A733Jvf3"], "asm": "OP_HASH160 33711cf4153e84428c2d7d784d015ce522a2ca77 OP_EQUAL", "type": "scripthash"}, "value": 0.00521757, "n": 99}, {"scriptPubKey": {"reqSigs": 1, "hex": "76a91480d1a7ecb8ebd87616127f58919bcc557543142288ac", "addresses": ["1Ck8ehvFdqzzf5VJZtLbAAKJaFR9NzbRMu"], "asm": "OP_DUP OP_HASH160 80d1a7ecb8ebd87616127f58919bcc5575431422 OP_EQUALVERIFY OP_CHECKSIG", "type": "pubkeyhash"}, "value": 0.00505664, "n": 100}], "hex": "02000000012f2d2c6a502112af60efeaa3547dad3b124962ce8b3480c1aeb5e8e7c9ff4eee2a0000006a473044022075a0f7e9e22eb903dcd6705f033212df7849c5b57be71cd61236e807eba25f38022062edf6d710064156b15b08c273a9786a2cd281de6c2f8ad04403e52a88c4b76c012103bb0423b7d2c6d25c37dbfe2c938abfd7789b39c1b7808fbd0a5305bfe10744d1feffffff65ecb90700000000001976a91424e25ffbf99979bccc3766a3c6385d7d073a40bc88ac09aa0700000000001976a9149d0547569cc0d6e5bf8e6ed39246d9d0c6cafb1388ac2de70700000000001976a9143362899c4a403b969db4387950b0c4e8006648cf88acf3c907000000000017a9145444dc0ffcda0e7c260e8f0c5cd240f1308789f38701510700000000001976a9140bbde1ccbe4b12959f3f176c4a985c5a22dbdc4488ac795d0700000000001976a914ef87f4f74b0808511ddb3b126de1b192e55eedcf88aca6c407000000000017a914694aae32c0560acdd614d9637b567be58178cdc287283c0700000000001976a9149b74a19a7a71a29f46f1ac62523f95d5cfed10a388ac139e0700000000001976a9143aba05893130128235e125cd25f262ffba83f29688ac75b307000000000017a914aa6670242b567214dd556474a071b606e82f7ec487bbd90700000000001976a914e481605ad7b94987e88b3d0e162e5cb8258a0efd88ace1b80700000000001976a914cbbe507cdae8b5b6d2dc74a2cea22870c7ffc1cb88ac6a4d0700000000001976a914a0c1db6064d6e4b61176c62c8ead723d40a0538988acf5ab0700000000001976a914be1527e641a6b9837c803efb9ea0b7bb0a3dca5388acd4a607000000000017a914d381631837ce1f85563188e01e33ecd072aa47f987c5b207000000000017a91421d8625d2b202afcf6f0f4e2c519aad358b2e7fe879a740700000000001976a91433acb648e2075176dc841f89fad9c92305ca23bc88ac2f3e0700000000001976a914728067162e6821f82687c17c551e4b6842e585e588ac40cc0700000000001976a91447cef13cb74feccb5e8e00fe710736e31cce171e88acd67907000000000017a914f17704f0db75e750088ea78cc0f03d8819409ac68797530700000000001976a9145f430e63ab5234102817fc641faaa8310f7e151f88ac838307000000000017a9142911d290f87ebe9b6486b5b7a131030b0948b29b8758480700000000001976a914dee5c4561407c0f431031de768f6438f5325faa688ac84db0700000000001976a9144d73a6d85e0f19bbdf41aa98aa9a82cf21e87cd888acb23407000000000017a9149c855c8a2c4375e52e73c900ee9a19394b4c1ec687a7e007000000000017a91469f376c8ece0bc59dc0ce048be7be33ac9299c0e87c1400700000000001976a914e92914c4d043c2940b89933467aab7d7c82ee85588acea4d0700000000001976a914f34b2c881a3a1e1593562cc2cf3422114ea3062b88ace9ae07000000000017a9144de7ccd021331565cb5e9041319ebaabac20f86b87ee680700000000001976a91499ac81feb36e96e9196d89ab9a9002693a9951fb88acafab0700000000001976a914e7f976750ffcc498ee5883f29f5d6f8928ede9f588ac6af60700000000001976a9149de8907fafa8cebbf401e8e0ab1b87e4aba2df0488ace04407000000000017a914732926a847d2110b3cc4c7154378a72229dd2400870ef10700000000001976a914d1a96abb0708e95d9aeeb2b88b7bbc8ca23f8f3788acf7c60700000000001976a914758ad9cfa8d3d47aed01bf60ca12ae0a6793540788accdee0700000000001976a914666f0afe8f094e8f8bcfd19e5d44bb6611103dda88ac90e807000000000017a914ab45f7aa19430b4de7544f6657533a8889c35d3f8750aa0700000000001976a914c109ad251250100650f667af9f57f05d6d217e5188accdd407000000000017a9146fc2e9d2195f17509672d9d71c835694099c03728770d40700000000001976a9142b56d56a76ea06c8b8d33ca6f19d0514fdefe54188ac57d40700000000001976a914269e5caff57745b41da8debb5e49a79756819e5f88acf48a0700000000001976a914ef30abfeb25ea51590e0a4ff65348d0f7ccabf7188aca3c207000000000017a914f405fcbfa3bedba488fe4e7308cb24272e235cba877caf0700000000001976a914f001696b18a24d8945191fbdea34bed5aac535e288aca04807000000000017a9149ea60add4cdbbf29c0c4e66b7d3e40c5c7c3f9d4872d450700000000001976a914cbece6a2e98023e1e6054a2df3364885a362f17f88ac70450700000000001976a9149af176227db8447ec79343810b971b498b5da1fb88ac454a0700000000001976a914314679e2bdd9f18afd127583d0a5e6a5364008d288acf4c90700000000001976a914c67e4762b6fee052db0406f230c345849fd38f3088ac79e80700000000001976a9141c217a17b55f9810405afed3296e8416f6bc6b9488acd5a40700000000001976a914eed022f263f6fb8c931307470ffee4f2a3e410fd88ac1fc807000000000017a914aa534dce2e15797dfa17e6c9bfd2aa811da3f38087614b0700000000001976a914d2bda7c3e4ddd6efbf25e648c3f8c71a1be7b18988ac7a580700000000001976a914ce5d594e86ca6ed7529859dcac4d5ac3c771bf5c88ac55bb07000000000017a9142a15ee6b3010f27904390b2b4cc4cd3964c4fdfa8777a40700000000001976a91468193219946a1f78f0ec8964008efbc9c8cd504a88ac1ab907000000000017a91482c6237ba2e3060734a51e91ba55d83b581177b7878af107000000000017a91423f7636136af51bcb020448a7f5ba41913a40e3287d13e0700000000001976a91421df58bfbe21d1cfb492075861ecf67b881fa58c88acfbdb0700000000001976a91474641bd64543b312388e5a055338295b59e6fd2c88ac42a70700000000001976a91448471c686d9a024b437f0a49c067e9fa79ac499d88ac8d5307000000000017a91437cae35e24ad20af2cc00b7368e8dc165709273b87c5f60700000000001976a91468a91c0bd8de62005cdfb8a5e4f05a1b3e3a8d8188aceacd0700000000001976a9141bd6c91b28b3b3ed992bd4e927240da9b3b1347f88acff5b0700000000001976a9140402e1a708ea150e3386e445775d5d775cbbcb6688ac047e07000000000017a9145d48c89e115163c6b278c314af15ab6d0edfe03887f8ad0700000000001976a9142a65ee24103d9e14e2e46a1bd5f1b8e79b53610c88acaff90700000000001976a914dc64746c1b591e1eeae47126b48d3c2dd4b8ef1f88ac10440700000000001976a914d2b8ec244d6da8a5d775be8bbca99e2a385f9ccb88ac613b0700000000001976a914aac470ccce37249fb8d3e03843bb932e4c44453988acfc5907000000000017a914c6d5461a61b221cb913c9853f36b30adaa17c35c87d9cc0700000000001976a9142104a1c34659e919df57203b0ba0bcc43b2eb07488ac237407000000000017a914f87f98167d01d5ac18916e31c6e6bf1cbed132f687cb450700000000001976a9142420f4a7707c569a1750de404f632dbcb9999ea388acc6f20700000000001976a914070861cd10d623646bf6b52af6167fcbde50c72688ac48d30700000000001976a9146686c75dfe8ff61f5c15243fcae22694151afe7f88ac87a60700000000001976a914aa5978eb1c2a7563d9554ff6bc8461c2e8f9cfa788ac6ffb0700000000001976a9148d700961a59c267568386fc5443f971fb3ebd2e388ace83e0700000000001976a9146c6e8b477de249d28ba092f07b92b600ae5634a388ac5f350700000000001976a9141597045a8426a43a9a017ff6d93e810d6a55216688acbca507000000000017a9141f5a2c43888d3bf3d70470c1471d35b30a14bc9487d9450700000000001976a9141c04c36000dbd63bd6c100c0abe8ff63ef392ee488acb9abd427000000001976a9145f3e32b7844cec8f22e313bb67b9636e33c285f088acd7c407000000000017a91496949425fff4dbf6e59bcbfbf09251985f1bb98d87e93a0700000000001976a914d0a25e669e628b5e328e8b3b92f349a9648366f388acb8370700000000001976a9140b66b8733dc196a25f7b86f5f6d2cccbcded76fe88acf9a30700000000001976a9145a717fce438681ca2ba1d321328c39134bf9540e88acd8920700000000001976a914c8a9d5c377c3d18c3660bbef7a8b3b43096e520088ac437207000000000017a914d53a2e855d2d24e4238f9aa0105b665c86ffa1b2874fc40700000000001976a914af9551df47c58db517849274c210db869b72b95388ac97990700000000001976a9147338a19695eae92ae308c7afb331897dd5a1e0ef88ac46f40700000000001976a9149299d5f1deae02e72cdf2c9d3d8d61b968d3d8c288ac01430700000000001976a914f5d0dcd481b2aaf8b24954bf504eb23d4cf89a7888ac4f4a0700000000001976a9144bd11ce5d2c08823e5ab1c955022b45815ff319f88ac52f20700000000001976a914d701df6d98753870773d7bcd664aed38fc545b8588acccb107000000000017a914c4c785626a0cbc07f716fae4fc819575d6cf6c638727360700000000001976a91475c164060963846f11907a267625b6d640cec7bd88acc33e0700000000001976a914c9a5416dbb7b1116e9ca12b208551b02fae26f8b88acc3fa0700000000001976a91494d30dac840a091d015d98632941a9bee0d286d788ac1df607000000000017a91433711cf4153e84428c2d7d784d015ce522a2ca778740b70700000000001976a91480d1a7ecb8ebd87616127f58919bcc557543142288ac10490800", "vin": [{"sequence": 4294967294, "scriptSig": {"hex": "473044022075a0f7e9e22eb903dcd6705f033212df7849c5b57be71cd61236e807eba25f38022062edf6d710064156b15b08c273a9786a2cd281de6c2f8ad04403e52a88c4b76c012103bb0423b7d2c6d25c37dbfe2c938abfd7789b39c1b7808fbd0a5305bfe10744d1", "asm": "3044022075a0f7e9e22eb903dcd6705f033212df7849c5b57be71cd61236e807eba25f38022062edf6d710064156b15b08c273a9786a2cd281de6c2f8ad04403e52a88c4b76c[ALL] 03bb0423b7d2c6d25c37dbfe2c938abfd7789b39c1b7808fbd0a5305bfe10744d1"}, "vout": 42, "txid": "ee4effc9e7e8b5aec180348bce6249123bad7d54a3eaef60af1221506a2c2d2f"}], "txid": "12f201980a346700835fbe4ef4bb55a9fd5d8133cbefa2e1c3466d45a6c5328b", "blocktime": 1537871767, "version": 2, "confirmations": 11495, "time": 1537871767, "locktime": 542992, "vsize": 3535, "size": 3535}