{"hash": "12fe366e4d40e5317cb7cdc4091997fb980ab65ded3d3161ffafadbb19d54dce", "blockhash": "00000000000000000017f5eb5941039fbcee6240d03bc1f2f8e35350df66a1d8", "vout": [{"scriptPubKey": {"reqSigs": 1, "hex": "a9149f2f536135a0f4308949437277460bf7fe87ccf187", "addresses": ["3GCi4HuGTTZVnAwfDfgSphCgsdmus47m1q"], "asm": "OP_HASH160 9f2f536135a0f4308949437277460bf7fe87ccf1 OP_EQUAL", "type": "scripthash"}, "value": 0.00236703, "n": 0}, {"scriptPubKey": {"reqSigs": 1, "hex": "76a9142dd2d2b4d410e6590737697c54f8a55e4075e9b188ac", "addresses": ["15BHxspWnkMQg8Tfzae6TzQF4urL97NAwq"], "asm": "OP_DUP OP_HASH160 2dd2d2b4d410e6590737697c54f8a55e4075e9b1 OP_EQUALVERIFY OP_CHECKSIG", "type": "pubkeyhash"}, "value": 0.0387027, "n": 1}], "hex": "0100000001b020f212484fdfbff64e41bb51cadbe0c73c38a6b399331ad0c4169e33a99f0d010000006a47304402207f8d4689ae30875b4765b80f6881fd137c75335a160b9d92bf9c6a6363df5c7002204956e06284ecb0ade613b286d9b670f42502dc6779cdda65ca10f63322e0d95a012102268e32b03f850369da1287cbc7062e076322e7befd86a40cdc7134500fdbb671ffffffff029f9c03000000000017a9149f2f536135a0f4308949437277460bf7fe87ccf1873e0e3b00000000001976a9142dd2d2b4d410e6590737697c54f8a55e4075e9b188ac00000000", "vin": [{"sequence": 4294967295, "scriptSig": {"hex": "47304402207f8d4689ae30875b4765b80f6881fd137c75335a160b9d92bf9c6a6363df5c7002204956e06284ecb0ade613b286d9b670f42502dc6779cdda65ca10f63322e0d95a012102268e32b03f850369da1287cbc7062e076322e7befd86a40cdc7134500fdbb671", "asm": "304402207f8d4689ae30875b4765b80f6881fd137c75335a160b9d92bf9c6a6363df5c7002204956e06284ecb0ade613b286d9b670f42502dc6779cdda65ca10f63322e0d95a[ALL] 02268e32b03f850369da1287cbc7062e076322e7befd86a40cdc7134500fdbb671"}, "vout": 1, "txid": "0d9fa9339e16c4d01a3399b3a6383cc7e0dbca51bb414ef6bfdf4f4812f220b0"}], "txid": "12fe366e4d40e5317cb7cdc4091997fb980ab65ded3d3161ffafadbb19d54dce", "blocktime": 1537874412, "version": 1, "confirmations": 11467, "time": 1537874412, "locktime": 0, "vsize": 223, "size": 223}