{"hash": "91961bab2aa3396fdf568e3d359f5fd08c21f5852e633982f83958410fb74c68", "blockhash": "0000000000000000001f76057863aec43deb6fa401d9628bb513d65a8098bfab", "vout": [{"scriptPubKey": {"reqSigs": 1, "hex": "a914b44337f216fcdcf0a5895a72e8c4169a68ef293e87", "addresses": ["3J8A5VuG2KUQmCweiwHBDfv67VqWTciCM2"], "asm": "OP_HASH160 b44337f216fcdcf0a5895a72e8c4169a68ef293e OP_EQUAL", "type": "scripthash"}, "value": 0.01544682, "n": 0}], "hex": "010000000001017db5cb0f78521028d57826e9f8b6e4a1e8d5425f86cd06535c9632cc9b41824f0000000017160014aff1b9c08342a65ddea96e14e851a389a6923f4cffffffff01ea9117000000000017a914b44337f216fcdcf0a5895a72e8c4169a68ef293e8702473044022100e2f56b2dee918a89bea86391bc909788a69e0a849d433507e651f5eb1c53b958021f1707dfe8abbb0e901d7fa81040f4c544f1d4338a382522e6446e7a5b7318dc012102912dbaf2c8d669ee6a32835ccd13c4fb9a13a15132eef489fb8d8d89a83c727100000000", "vin": [{"txinwitness": ["3044022100e2f56b2dee918a89bea86391bc909788a69e0a849d433507e651f5eb1c53b958021f1707dfe8abbb0e901d7fa81040f4c544f1d4338a382522e6446e7a5b7318dc01", "02912dbaf2c8d669ee6a32835ccd13c4fb9a13a15132eef489fb8d8d89a83c7271"], "sequence": 4294967295, "scriptSig": {"hex": "160014aff1b9c08342a65ddea96e14e851a389a6923f4c", "asm": "0014aff1b9c08342a65ddea96e14e851a389a6923f4c"}, "vout": 0, "txid": "4f82419bcc32965c5306cd865f42d5e8a1e4b6f8e92678d5281052780fcbb57d"}], "txid": "12fe2afa3b2e7ffb62127f97b911d9692fe47b78134b02f933bd0a512803aab1", "blocktime": 1537873891, "version": 1, "confirmations": 11478, "time": 1537873891, "locktime": 0, "vsize": 134, "size": 215}