{"hash": "b5fb0c19a4d9901e68b884ddfcdda8d88722d79e475287673ba238f7d1beb703", "blockhash": "00000000000000000017f5eb5941039fbcee6240d03bc1f2f8e35350df66a1d8", "vout": [{"scriptPubKey": {"reqSigs": 1, "hex": "002058c8797f181e000075cb9a18a9662013b795012e86acc04d56a2d229e7b8d7c4", "addresses": ["bc1qtry8jlccrcqqqawtngv2je3qzwme2qfws6kvqn2k5tfzneac6lzqpgummp"], "asm": "0 58c8797f181e000075cb9a18a9662013b795012e86acc04d56a2d229e7b8d7c4", "type": "witness_v0_scripthash"}, "value": 0.00099802, "n": 0}], "hex": "0100000000010135badc54b100eb4cffbbb9a1b0daf900f70badd038be3b6e930c805f8ff63f370000000017160014c13667fb647c2bce6ac53674f172a55a3107829affffffff01da8501000000000022002058c8797f181e000075cb9a18a9662013b795012e86acc04d56a2d229e7b8d7c4024830450221009140e68743c9e987caee7b29d9ad0e86dc9913819c330687be5a72a7537effc302206ac7f58ac025ddad30fa35e8a1de36e45331c2408fd630e88518b8bd821260e9012103b228a1d5b5b5d19fef7c5bcc02b04fc88866b7a0d8eda2eb58f85e95b969614600000000", "vin": [{"txinwitness": ["30450221009140e68743c9e987caee7b29d9ad0e86dc9913819c330687be5a72a7537effc302206ac7f58ac025ddad30fa35e8a1de36e45331c2408fd630e88518b8bd821260e901", "03b228a1d5b5b5d19fef7c5bcc02b04fc88866b7a0d8eda2eb58f85e95b9696146"], "sequence": 4294967295, "scriptSig": {"hex": "160014c13667fb647c2bce6ac53674f172a55a3107829a", "asm": "0014c13667fb647c2bce6ac53674f172a55a3107829a"}, "vout": 0, "txid": "373ff68f5f800c936e3bbe38d0ad0bf700f9dab0a1b9bbff4ceb00b154dcba35"}], "txid": "13026be02738f8ba348643bb9bd0cd904365b11e4502c04657259124e3251a64", "blocktime": 1537874412, "version": 1, "confirmations": 11468, "time": 1537874412, "locktime": 0, "vsize": 145, "size": 227}