{"hash": "13197555f94c12efb1ec16cdfc265fa50d4d8bb58cc6bb552c20b8a6b7f80cfc", "blockhash": "0000000000000000001cda96e906b7601b7a6fb1a3b62bca570a9e5d8f4b3de1", "vout": [{"scriptPubKey": {"reqSigs": 1, "hex": "76a914038224d79894499b18fe1feedb0bf6a536dfb7c088ac", "addresses": ["1KYw8j8awvtQzmtdePn8G3atNzjaVkJvg"], "asm": "OP_DUP OP_HASH160 038224d79894499b18fe1feedb0bf6a536dfb7c0 OP_EQUALVERIFY OP_CHECKSIG", "type": "pubkeyhash"}, "value": 0.00327348, "n": 0}, {"scriptPubKey": {"reqSigs": 1, "hex": "76a9142e0386f04acd146a7142d7249dfdada60c6f008a88ac", "addresses": ["15CJJtidgzu9QXwHAi4rMAU7Z71x64SVK8"], "asm": "OP_DUP OP_HASH160 2e0386f04acd146a7142d7249dfdada60c6f008a OP_EQUALVERIFY OP_CHECKSIG", "type": "pubkeyhash"}, "value": 0.00376353, "n": 1}], "hex": "01000000019d53b5acd8c30eddbc80bbe313b1b70b90f6c41d96e7a8970e73884177c7a228000000006b483045022100e4633eb31c2be88aa173aa170cf9f3271c9190b87dc8f5eea2c87f0338b6e1a702203cfb2a54361777e86a535cd4e855ea6022d01e9c1ce7f4ad3f64204baa46430d012102744cd792e0d7564248d4b62f17962dbc24b311804cb9775982dae598d10e75fdffffffff02b4fe0400000000001976a914038224d79894499b18fe1feedb0bf6a536dfb7c088ac21be0500000000001976a9142e0386f04acd146a7142d7249dfdada60c6f008a88ac00000000", "vin": [{"sequence": 4294967295, "scriptSig": {"hex": "483045022100e4633eb31c2be88aa173aa170cf9f3271c9190b87dc8f5eea2c87f0338b6e1a702203cfb2a54361777e86a535cd4e855ea6022d01e9c1ce7f4ad3f64204baa46430d012102744cd792e0d7564248d4b62f17962dbc24b311804cb9775982dae598d10e75fd", "asm": "3045022100e4633eb31c2be88aa173aa170cf9f3271c9190b87dc8f5eea2c87f0338b6e1a702203cfb2a54361777e86a535cd4e855ea6022d01e9c1ce7f4ad3f64204baa46430d[ALL] 02744cd792e0d7564248d4b62f17962dbc24b311804cb9775982dae598d10e75fd"}, "vout": 0, "txid": "28a2c7774188730e97a8e7961dc4f6900bb7b113e3bb80bcdd0ec3d8acb5539d"}], "txid": "13197555f94c12efb1ec16cdfc265fa50d4d8bb58cc6bb552c20b8a6b7f80cfc", "blocktime": 1537873282, "version": 1, "confirmations": 11485, "time": 1537873282, "locktime": 0, "vsize": 226, "size": 226}