{"hash": "131fbb3fb4cb6ab0be33b9ca73dabc36dd6fb58632a577103f0b5a47e7f11627", "blockhash": "0000000000000000000baef3f32e3676a92c3b2e5da21b426e4f302fc371ce76", "vout": [{"scriptPubKey": {"reqSigs": 1, "hex": "a914a5034171c447f210b130c90e77210369fbcbe7cf87", "addresses": ["3GjXKQFmWZucx22APs8GEsXcJJJyUKG3zd"], "asm": "OP_HASH160 a5034171c447f210b130c90e77210369fbcbe7cf OP_EQUAL", "type": "scripthash"}, "value": 0.00681401, "n": 0}], "hex": "01000000018a2ff89e3e7e3fd2b96246b930eb671221e062294d84e4a1c73e1ddc46049df8170000006b483045022100c3ef093e7bcf511fc27ac5e97d0e6a815562ee1a0a3531b2e551288b0e6b0efb022047964ac6f4e86a2b053ff334efa7b83024f0eb66a5fb3597147aa8dab98eabed012103ce96618b1be1784ec1f830545cbd93545baefb0d2607610536a113eee40c69d3fdffffff01b9650a000000000017a914a5034171c447f210b130c90e77210369fbcbe7cf8717490800", "vin": [{"sequence": 4294967293, "scriptSig": {"hex": "483045022100c3ef093e7bcf511fc27ac5e97d0e6a815562ee1a0a3531b2e551288b0e6b0efb022047964ac6f4e86a2b053ff334efa7b83024f0eb66a5fb3597147aa8dab98eabed012103ce96618b1be1784ec1f830545cbd93545baefb0d2607610536a113eee40c69d3", "asm": "3045022100c3ef093e7bcf511fc27ac5e97d0e6a815562ee1a0a3531b2e551288b0e6b0efb022047964ac6f4e86a2b053ff334efa7b83024f0eb66a5fb3597147aa8dab98eabed[ALL] 03ce96618b1be1784ec1f830545cbd93545baefb0d2607610536a113eee40c69d3"}, "vout": 23, "txid": "f89d0446dc1d3ec7a1e4844d2962e0211267eb30b94662b9d23f7e3e9ef82f8a"}], "txid": "131fbb3fb4cb6ab0be33b9ca73dabc36dd6fb58632a577103f0b5a47e7f11627", "blocktime": 1537876114, "version": 1, "confirmations": 11460, "time": 1537876114, "locktime": 542999, "vsize": 190, "size": 190}