{"hash": "13224046b9990f003ff999e36d1ae9a7b3f19bbfe8aa02577a6696b26d19ebe3", "blockhash": "0000000000000000001e0dab787dd257d1dbfcb92a98c2207d5e1078be1f4165", "vout": [{"scriptPubKey": {"reqSigs": 1, "hex": "76a9149ad908fcadc187a69630ef3da62263a777f48b8b88ac", "addresses": ["1F7m4QWixzyxt76vQ7BJvwL8hjkCrWweZs"], "asm": "OP_DUP OP_HASH160 9ad908fcadc187a69630ef3da62263a777f48b8b OP_EQUALVERIFY OP_CHECKSIG", "type": "pubkeyhash"}, "value": 0.0127223, "n": 0}, {"scriptPubKey": {"reqSigs": 1, "hex": "a9140ec66770821ee1571825cce6bf02b5d01b9e030587", "addresses": ["33394atnXfU1W81dv4cRQXRMHy6TCgw26D"], "asm": "OP_HASH160 0ec66770821ee1571825cce6bf02b5d01b9e0305 OP_EQUAL", "type": "scripthash"}, "value": 0.07325985, "n": 1}], "hex": "0100000001c2ad40f8bccf5b7203a58c7d49efa0369c3854b41fdd6a6f01117e163d4fa9ba010000006b483045022100c41f8f16f887f57819992773ccb7b121eec0a72ec98e125fa076df48b7ba999c02204dbff2153771fca59744fa04678317f90ec06446b9b83b9d46eeb35ddc3ebb4f01210371caf60035d7d352d55a8affb4d0e7c32b56f9034a05a6acd2be612fd0a85da5ffffffff02a6691300000000001976a9149ad908fcadc187a69630ef3da62263a777f48b8b88ac21c96f000000000017a9140ec66770821ee1571825cce6bf02b5d01b9e03058700000000", "vin": [{"sequence": 4294967295, "scriptSig": {"hex": "483045022100c41f8f16f887f57819992773ccb7b121eec0a72ec98e125fa076df48b7ba999c02204dbff2153771fca59744fa04678317f90ec06446b9b83b9d46eeb35ddc3ebb4f01210371caf60035d7d352d55a8affb4d0e7c32b56f9034a05a6acd2be612fd0a85da5", "asm": "3045022100c41f8f16f887f57819992773ccb7b121eec0a72ec98e125fa076df48b7ba999c02204dbff2153771fca59744fa04678317f90ec06446b9b83b9d46eeb35ddc3ebb4f[ALL] 0371caf60035d7d352d55a8affb4d0e7c32b56f9034a05a6acd2be612fd0a85da5"}, "vout": 1, "txid": "baa94f3d167e11016f6add1fb454389c36a0ef497d8ca503725bcfbcf840adc2"}], "txid": "13224046b9990f003ff999e36d1ae9a7b3f19bbfe8aa02577a6696b26d19ebe3", "blocktime": 1537872475, "version": 1, "confirmations": 11486, "time": 1537872475, "locktime": 0, "vsize": 224, "size": 224}