{"hash": "1322216f73ffc175d8a78db19d72979e6337803f72dd13f14e148927f4a9e518", "blockhash": "0000000000000000001cda96e906b7601b7a6fb1a3b62bca570a9e5d8f4b3de1", "vout": [{"scriptPubKey": {"reqSigs": 1, "hex": "76a914cee31e5744d25210a339de25f92b9aa28e6c732e88ac", "addresses": ["1KrvGzL4ZgKoRNr9iMwFTiaARFLB1tHWGZ"], "asm": "OP_DUP OP_HASH160 cee31e5744d25210a339de25f92b9aa28e6c732e OP_EQUALVERIFY OP_CHECKSIG", "type": "pubkeyhash"}, "value": 0.00778212, "n": 0}, {"scriptPubKey": {"reqSigs": 1, "hex": "a91478d0f70e0314a077687c08a593b0268fcfaa41e687", "addresses": ["3ChqLi9AgEiVmXwfLwMrskoLGWVgpoaF2C"], "asm": "OP_HASH160 78d0f70e0314a077687c08a593b0268fcfaa41e6 OP_EQUAL", "type": "scripthash"}, "value": 0.015, "n": 1}], "hex": "010000000126d7979d51aea402c72337bf3656b45276cb7f89c1f47776bb6405ed8aa4ca2e070000006a47304402202f7d9c1d4211761e2edc95d5cd696686efcf6cdf1a4da3a5109f857c8503821102202b65345f935430d2548beb825eb8471f7c85eb30e49b677102ecbb548da01f34012102c3b2b1cd717016b3785eb4434862b829e489b7c4a1b50046027da106d1753127ffffffff02e4df0b00000000001976a914cee31e5744d25210a339de25f92b9aa28e6c732e88ac60e316000000000017a91478d0f70e0314a077687c08a593b0268fcfaa41e68700000000", "vin": [{"sequence": 4294967295, "scriptSig": {"hex": "47304402202f7d9c1d4211761e2edc95d5cd696686efcf6cdf1a4da3a5109f857c8503821102202b65345f935430d2548beb825eb8471f7c85eb30e49b677102ecbb548da01f34012102c3b2b1cd717016b3785eb4434862b829e489b7c4a1b50046027da106d1753127", "asm": "304402202f7d9c1d4211761e2edc95d5cd696686efcf6cdf1a4da3a5109f857c8503821102202b65345f935430d2548beb825eb8471f7c85eb30e49b677102ecbb548da01f34[ALL] 02c3b2b1cd717016b3785eb4434862b829e489b7c4a1b50046027da106d1753127"}, "vout": 7, "txid": "2ecaa48aed0564bb7677f4c1897fcb7652b45636bf3723c702a4ae519d97d726"}], "txid": "1322216f73ffc175d8a78db19d72979e6337803f72dd13f14e148927f4a9e518", "blocktime": 1537873282, "version": 1, "confirmations": 11484, "time": 1537873282, "locktime": 0, "vsize": 223, "size": 223}