{"hash": "13273da357d538d6be8b382ab309012e1640390142ca73a03a3a8add37a84112", "blockhash": "0000000000000000001cda96e906b7601b7a6fb1a3b62bca570a9e5d8f4b3de1", "vout": [{"scriptPubKey": {"reqSigs": 1, "hex": "a91418bdbf90c970232a9fa1c6ca02636d45bd46c3e287", "addresses": ["33wqT6E4tBuxmJ9yCLe2oAfL8S9MQcFVJE"], "asm": "OP_HASH160 18bdbf90c970232a9fa1c6ca02636d45bd46c3e2 OP_EQUAL", "type": "scripthash"}, "value": 0.000125, "n": 0}], "hex": "010000000188d4e0aaddc33dd249e44f426a01124a1260f2b150a546a1ee3c1a775b808d3c000000006b4830450221008c173d72c7ce6b7de33f261ecef3f8855bc72cc2d4232dc47bb3fe5c0b5c2457022035630ddc640ddd9c930628107e8c376e5dc68b830e4ffa58af519d8d5915860a0121035e638535b479ed309013bf1ff86d79734fc306b91070b3ba9a6f0ef89ca56dddffffffff01d43000000000000017a91418bdbf90c970232a9fa1c6ca02636d45bd46c3e28700000000", "vin": [{"sequence": 4294967295, "scriptSig": {"hex": "4830450221008c173d72c7ce6b7de33f261ecef3f8855bc72cc2d4232dc47bb3fe5c0b5c2457022035630ddc640ddd9c930628107e8c376e5dc68b830e4ffa58af519d8d5915860a0121035e638535b479ed309013bf1ff86d79734fc306b91070b3ba9a6f0ef89ca56ddd", "asm": "30450221008c173d72c7ce6b7de33f261ecef3f8855bc72cc2d4232dc47bb3fe5c0b5c2457022035630ddc640ddd9c930628107e8c376e5dc68b830e4ffa58af519d8d5915860a[ALL] 035e638535b479ed309013bf1ff86d79734fc306b91070b3ba9a6f0ef89ca56ddd"}, "vout": 0, "txid": "3c8d805b771a3ceea146a550b1f260124a12016a424fe449d23dc3ddaae0d488"}], "txid": "13273da357d538d6be8b382ab309012e1640390142ca73a03a3a8add37a84112", "blocktime": 1537873282, "version": 1, "confirmations": 11484, "time": 1537873282, "locktime": 0, "vsize": 190, "size": 190}