{"hash": "6cf3cb10ed201c8a88f60a12059ef4578cf3de1d373b10c729cea52c6c4d871f", "blockhash": "0000000000000000001e0dab787dd257d1dbfcb92a98c2207d5e1078be1f4165", "vout": [{"scriptPubKey": {"reqSigs": 1, "hex": "a91427616886b6274d91a089c3fea015edbad5ed3c8387", "addresses": ["35HEy5BMdf7Whwckm8PAYHMHrk2ifgNkPw"], "asm": "OP_HASH160 27616886b6274d91a089c3fea015edbad5ed3c83 OP_EQUAL", "type": "scripthash"}, "value": 0.00020076, "n": 0}, {"scriptPubKey": {"reqSigs": 1, "hex": "a91408c364340a91e77e4376b26fdad3b5aedc5661f787", "addresses": ["32VMQ7Th4qGhbDYY68FZrfSF9hTbsPivgt"], "asm": "OP_HASH160 08c364340a91e77e4376b26fdad3b5aedc5661f7 OP_EQUAL", "type": "scripthash"}, "value": 0.03266108, "n": 1}], "hex": "01000000000101bc79ec074dc9a08ab6a4f9b4fd71c1abd095643f02619246c3e7f39ffdd74ea3010000002322002027561ef61439ff4994ea3793249bbb358319edb59fff63c1eeada48f299e81b5ffffffff026c4e00000000000017a91427616886b6274d91a089c3fea015edbad5ed3c83873cd631000000000017a91408c364340a91e77e4376b26fdad3b5aedc5661f78704004830450221009295abf585b9be09199837d3c55ce99d573d3810798c27e0b18447bb76eb9f6b02201bd8a430775a5f9b45269d008119485c6ceef583cce34081e6eb9588a4050acf0148304502210083fc03b278a6d644f994f88bf304d46d7c4839adfd3691d332cffcbe5e8fb64a02205cd854899bf100d1e27733e4d5c27c2e9da3bf3d69fd6606191c3f8f0ba966140147522102f484437eae67e7d1f9cf7235bd52510c99f379408a1f6fe737011d4bc259358a2103871fc2ca08e6950b38867e8e6a0e94ee625223d3aa0df5c65f414c6d784467e252ae00000000", "vin": [{"txinwitness": ["", "30450221009295abf585b9be09199837d3c55ce99d573d3810798c27e0b18447bb76eb9f6b02201bd8a430775a5f9b45269d008119485c6ceef583cce34081e6eb9588a4050acf01", "304502210083fc03b278a6d644f994f88bf304d46d7c4839adfd3691d332cffcbe5e8fb64a02205cd854899bf100d1e27733e4d5c27c2e9da3bf3d69fd6606191c3f8f0ba9661401", "522102f484437eae67e7d1f9cf7235bd52510c99f379408a1f6fe737011d4bc259358a2103871fc2ca08e6950b38867e8e6a0e94ee625223d3aa0df5c65f414c6d784467e252ae"], "sequence": 4294967295, "scriptSig": {"hex": "22002027561ef61439ff4994ea3793249bbb358319edb59fff63c1eeada48f299e81b5", "asm": "002027561ef61439ff4994ea3793249bbb358319edb59fff63c1eeada48f299e81b5"}, "vout": 1, "txid": "a34ed7fd9ff3e7c3469261023f6495d0abc171fdb4f9a4b68aa0c94d07ec79bc"}], "txid": "132af36f2b302a9a57404484866940cce5ea18c7d8a582d77faea52ad4cee89e", "blocktime": 1537872475, "version": 1, "confirmations": 11487, "time": 1537872475, "locktime": 0, "vsize": 206, "size": 372}