{"hash": "132b1f73b32988901f7d3650adc895b7e85b745058f15e37608d798b15e91eab", "blockhash": "00000000000000000004ffacab907a6b429b9a5745fa0b75af4234bf69dd7176", "vout": [{"scriptPubKey": {"reqSigs": 1, "hex": "76a914eb1d4822c3f94c9d9c78f7704e1dab6a592728cb88ac", "addresses": ["1NSAsccExsnoid9cBLAhef9Ezpi2MA7Kz2"], "asm": "OP_DUP OP_HASH160 eb1d4822c3f94c9d9c78f7704e1dab6a592728cb OP_EQUALVERIFY OP_CHECKSIG", "type": "pubkeyhash"}, "value": 0.04012778, "n": 0}, {"scriptPubKey": {"reqSigs": 1, "hex": "a914079d79a249954f7284278bc4a69a3011a464caed87", "addresses": ["32PHJT64FGB8iFk4fB6TbKsCAQnhQmfUbG"], "asm": "OP_HASH160 079d79a249954f7284278bc4a69a3011a464caed OP_EQUAL", "type": "scripthash"}, "value": 0.13785414, "n": 1}], "hex": "0100000001789f88c1d9399c07a48cdd3998498290d3a345b482d555d87671e9b1eb8c8edb070000006a47304402203e036fccb0065981b8dc3f09b29424e64b7bb566d23afebdd29924b738f5c50c0220027313f40548446d084a83e63ccd449ed2ddf9a890a761244bb5f3a658de38bf0121036b2c663c52c5a9dcef8cd1e8abc644d695cfc7a18bb79589c7a243afd41ff591ffffffff02ea3a3d00000000001976a914eb1d4822c3f94c9d9c78f7704e1dab6a592728cb88ac4659d2000000000017a914079d79a249954f7284278bc4a69a3011a464caed8700000000", "vin": [{"sequence": 4294967295, "scriptSig": {"hex": "47304402203e036fccb0065981b8dc3f09b29424e64b7bb566d23afebdd29924b738f5c50c0220027313f40548446d084a83e63ccd449ed2ddf9a890a761244bb5f3a658de38bf0121036b2c663c52c5a9dcef8cd1e8abc644d695cfc7a18bb79589c7a243afd41ff591", "asm": "304402203e036fccb0065981b8dc3f09b29424e64b7bb566d23afebdd29924b738f5c50c0220027313f40548446d084a83e63ccd449ed2ddf9a890a761244bb5f3a658de38bf[ALL] 036b2c663c52c5a9dcef8cd1e8abc644d695cfc7a18bb79589c7a243afd41ff591"}, "vout": 7, "txid": "db8e8cebb1e97176d855d582b445a3d39082499839dd8ca4079c39d9c1889f78"}], "txid": "132b1f73b32988901f7d3650adc895b7e85b745058f15e37608d798b15e91eab", "blocktime": 1537875543, "version": 1, "confirmations": 11464, "time": 1537875543, "locktime": 0, "vsize": 223, "size": 223}