{"hash": "dfa28a652dcb6343aa46a910e053c1df743aa547638fb34830a2b8ae645a9820", "blockhash": "0000000000000000001e0dab787dd257d1dbfcb92a98c2207d5e1078be1f4165", "vout": [{"scriptPubKey": {"reqSigs": 1, "hex": "a914343bdf9eafef4a5a793e01b837b0ff89a4ed25af87", "addresses": ["36TCnby6KrwvVqVvvbhuo3D4gfeoDzh5eY"], "asm": "OP_HASH160 343bdf9eafef4a5a793e01b837b0ff89a4ed25af OP_EQUAL", "type": "scripthash"}, "value": 0.02541559, "n": 0}, {"scriptPubKey": {"reqSigs": 1, "hex": "00149f2c027cf948be655eefbb154d54b8e301938626", "addresses": ["bc1qnukqyl8efzlx2hh0hv25649cuvqe8p3x99uy7s"], "asm": "0 9f2c027cf948be655eefbb154d54b8e301938626", "type": "witness_v0_keyhash"}, "value": 0.0004535, "n": 1}], "hex": "01000000000101459ecb03681fecda4975ca6ebe99046e0870c953e4be6364b4e0430059dd24210200000017160014cd9348b333653b7bd27267e9dd81e1590e11ffc9ffffffff02f7c726000000000017a914343bdf9eafef4a5a793e01b837b0ff89a4ed25af8726b10000000000001600149f2c027cf948be655eefbb154d54b8e301938626024730440220482f5fc3bc0a276bc7e8dc033f27592287d02085c5899b869f82697f934ebbb102203b6f883cfca231b9f4583618a56ab738f4916fee9490e8c9b35dbae8c34f3aa8012103a57a6c889c459e0422709721091d0788ffe24fac9666c3c0528751b6e927b50c00000000", "vin": [{"txinwitness": ["30440220482f5fc3bc0a276bc7e8dc033f27592287d02085c5899b869f82697f934ebbb102203b6f883cfca231b9f4583618a56ab738f4916fee9490e8c9b35dbae8c34f3aa801", "03a57a6c889c459e0422709721091d0788ffe24fac9666c3c0528751b6e927b50c"], "sequence": 4294967295, "scriptSig": {"hex": "160014cd9348b333653b7bd27267e9dd81e1590e11ffc9", "asm": "0014cd9348b333653b7bd27267e9dd81e1590e11ffc9"}, "vout": 2, "txid": "2124dd590043e0b46463bee453c970086e0499be6eca7549daec1f6803cb9e45"}], "txid": "133175530be4b29eb9a2135152a1550198a983d3b6367f9ac2bc094f43c5ede3", "blocktime": 1537872475, "version": 1, "confirmations": 11486, "time": 1537872475, "locktime": 0, "vsize": 165, "size": 246}