{"hash": "abd7c7b23954f9baa364c18c3c48f0a1917ef5a69ee2ab0b09ab23d71b7b63ec", "blockhash": "0000000000000000001cda96e906b7601b7a6fb1a3b62bca570a9e5d8f4b3de1", "vout": [{"scriptPubKey": {"reqSigs": 1, "hex": "a9141ac5cd562e59bbe80ca1be3972f83b814b001e5087", "addresses": ["348aT4YbfyBQUoHbW5JD2srEXsU2FehJW9"], "asm": "OP_HASH160 1ac5cd562e59bbe80ca1be3972f83b814b001e50 OP_EQUAL", "type": "scripthash"}, "value": 0.01183247, "n": 0}, {"scriptPubKey": {"reqSigs": 1, "hex": "76a914967c9ef7d75051c7d1349ec97065c229c31428d388ac", "addresses": ["1EihebJ9u699FgjGSGPeXPgq8V9Ka295EE"], "asm": "OP_DUP OP_HASH160 967c9ef7d75051c7d1349ec97065c229c31428d3 OP_EQUALVERIFY OP_CHECKSIG", "type": "pubkeyhash"}, "value": 1.18767045, "n": 1}], "hex": "020000000001081798b14c27b39aad0d8f7ff4e33783ebf3038f15cddd82ae2ba62c0bbb5365b50100000017160014efbbb1dcbd687d196db11d34949dc4cc4fa58ee2feffffff3d1611c2ba87b80cd116116112391811eeda70eb1a090cd5331da02f82542edb0100000017160014985bf91ebad873b56eb2eb4b228f65fdaa9b0b73feffffff59971e50b5b52119ff7e1ab8b036b3307afaf30548eee09dfc9da821d6405a5a010000006a47304402207fa6a1232f973f46e549613f0f936ab6addd267c8e50e7b1d85f6cebf992123102202d5334fbe3143a1d284191f69145488fe9bb24b90e25ce82efd151dad232cfe1012102238b0dda9d3cda67b0d4fe823f83dc9f8b2685b1915314989ac23c902afc6d11feffffff949af33dd221346aed08c2e7a2edad35092d4bac852c37ef426edea584e608f90100000017160014cd877c8f1516700e07c9e18b388130d71751d616feffffff9624f74b92a43fa294cee7afbad8e4c4f6cb4d73d3ec888bcde28c6bd6f94b8c01000000171600148f8d326088db74504030d6362867c85c28593872feffffffb861eb3a1dabc9666988efa53480b212bfccddaf25174f6233d8d7a5f4a1c16400000000171600143a5398f914a2ae700f4cbd44b51acbff5990901afeffffffd5fbbbafc8091d6959a7788304321d30122804372f08748c5b761cb7a703307001000000171600147c71d340d5adfdf502869ece7a68afa2077edc80feffffffec08332cc6fe030975f48ffb29cab2ed9e5ed4493d8bc248870b4312272d625e0a00000017160014121008a49f5caee185a88480e34de87b5deff75ffeffffff020f0e12000000000017a9141ac5cd562e59bbe80ca1be3972f83b814b001e5087c53d1407000000001976a914967c9ef7d75051c7d1349ec97065c229c31428d388ac02473044022062cffe89e1bbf4bce071695310089ea4541d77c9f5c90fa4dae43fca1f2c840302206584000599117118e3a9630b04ab878980367b0a0165393d8259392a4a13ef1c0121028139e488a1bfe206b8551dde53569b58d0a611a017f205875ad9a8d2caf332d102483045022100f0d5cdd7045624fed1a43b111da9f516f0ba0baa35679eb44125d4a7dc540b25022020c0833bf618055c6c110e026c09cfc57ef23e3cd691d61f5ce430b7b828307c01210281c71fd35ba718f68181d8a5a6839f7b745d128954051c71a996ebd5e1df13090002483045022100e927c343488ae5d6d0bf110bf8ae558e8afb312de3c3f86f9ebe138e3383170b0220448492f80b84e628a1a7180193624b189378248fc7aa9f7e09001e62ed447d530121021829379993cb7d3cc106fb04f6f2fd82337bfb7d2f02e6c8a7dffd7c28d4e6460247304402205894e1827af23fd8fc4f2885120902eb0993ff5c4ea2c89e868e3d2df454acbe02201e5988726d3a1b4f9ec29abeadfa95147d3237ebb1a5042d01d8ec060493df7d012103ee8b4eded1e5b89846ee6f34124b2b928cfedd5a97053ecb28892b39cfc8f7e702483045022100855c89c138b07c9b8c6c4c080079b833c0f577ae54dacbdf578ea8acf84f5b8602202a4b95327443fef4c1b63f15e8b8c2f867641e5ad6893bd5fde4b43a0ae94dda0121039372906ffd4432c4f081d2bb8c6a5d674043120d12ceb2312bda53a411bcd30e0247304402206fc76c8b292e81504485296199630be14345866b9eba298befb0fc5868876fc9022059b010e12f6d68fcf7097f2019526e86172016aab6649f0b4e5707b8305f893d0121020a9cab9583be311a45188d575d65e66773b9ef3f16fcf8aecb3007ff0708e0df024730440220535e18c8a84086f7460338acb12b4fd40a85e540c7aa08596fb8be0027a272f4022023dbd5daa9786a5d64b460be563b196ac147be5072b59be06c9b9a6cdccaac4601210338aca7883c929d78851701a73fccaa1eae5a0b5c6439a11a4efc84864e41938013490800", "vin": [{"txinwitness": ["3044022062cffe89e1bbf4bce071695310089ea4541d77c9f5c90fa4dae43fca1f2c840302206584000599117118e3a9630b04ab878980367b0a0165393d8259392a4a13ef1c01", "028139e488a1bfe206b8551dde53569b58d0a611a017f205875ad9a8d2caf332d1"], "sequence": 4294967294, "scriptSig": {"hex": "160014efbbb1dcbd687d196db11d34949dc4cc4fa58ee2", "asm": "0014efbbb1dcbd687d196db11d34949dc4cc4fa58ee2"}, "vout": 1, "txid": "b56553bb0b2ca62bae82ddcd158f03f3eb8337e3f47f8f0dad9ab3274cb19817"}, {"txinwitness": ["3045022100f0d5cdd7045624fed1a43b111da9f516f0ba0baa35679eb44125d4a7dc540b25022020c0833bf618055c6c110e026c09cfc57ef23e3cd691d61f5ce430b7b828307c01", "0281c71fd35ba718f68181d8a5a6839f7b745d128954051c71a996ebd5e1df1309"], "sequence": 4294967294, "scriptSig": {"hex": "160014985bf91ebad873b56eb2eb4b228f65fdaa9b0b73", "asm": "0014985bf91ebad873b56eb2eb4b228f65fdaa9b0b73"}, "vout": 1, "txid": "db2e54822fa01d33d50c091aeb70daee11183912611116d10cb887bac211163d"}, {"sequence": 4294967294, "scriptSig": {"hex": "47304402207fa6a1232f973f46e549613f0f936ab6addd267c8e50e7b1d85f6cebf992123102202d5334fbe3143a1d284191f69145488fe9bb24b90e25ce82efd151dad232cfe1012102238b0dda9d3cda67b0d4fe823f83dc9f8b2685b1915314989ac23c902afc6d11", "asm": "304402207fa6a1232f973f46e549613f0f936ab6addd267c8e50e7b1d85f6cebf992123102202d5334fbe3143a1d284191f69145488fe9bb24b90e25ce82efd151dad232cfe1[ALL] 02238b0dda9d3cda67b0d4fe823f83dc9f8b2685b1915314989ac23c902afc6d11"}, "vout": 1, "txid": "5a5a40d621a89dfc9de0ee4805f3fa7a30b336b0b81a7eff1921b5b5501e9759"}, {"txinwitness": ["3045022100e927c343488ae5d6d0bf110bf8ae558e8afb312de3c3f86f9ebe138e3383170b0220448492f80b84e628a1a7180193624b189378248fc7aa9f7e09001e62ed447d5301", "021829379993cb7d3cc106fb04f6f2fd82337bfb7d2f02e6c8a7dffd7c28d4e646"], "sequence": 4294967294, "scriptSig": {"hex": "160014cd877c8f1516700e07c9e18b388130d71751d616", "asm": "0014cd877c8f1516700e07c9e18b388130d71751d616"}, "vout": 1, "txid": "f908e684a5de6e42ef372c85ac4b2d0935adeda2e7c208ed6a3421d23df39a94"}, {"txinwitness": ["304402205894e1827af23fd8fc4f2885120902eb0993ff5c4ea2c89e868e3d2df454acbe02201e5988726d3a1b4f9ec29abeadfa95147d3237ebb1a5042d01d8ec060493df7d01", "03ee8b4eded1e5b89846ee6f34124b2b928cfedd5a97053ecb28892b39cfc8f7e7"], "sequence": 4294967294, "scriptSig": {"hex": "1600148f8d326088db74504030d6362867c85c28593872", "asm": "00148f8d326088db74504030d6362867c85c28593872"}, "vout": 1, "txid": "8c4bf9d66b8ce2cd8b88ecd3734dcbf6c4e4d8baafe7ce94a23fa4924bf72496"}, {"txinwitness": ["3045022100855c89c138b07c9b8c6c4c080079b833c0f577ae54dacbdf578ea8acf84f5b8602202a4b95327443fef4c1b63f15e8b8c2f867641e5ad6893bd5fde4b43a0ae94dda01", "039372906ffd4432c4f081d2bb8c6a5d674043120d12ceb2312bda53a411bcd30e"], "sequence": 4294967294, "scriptSig": {"hex": "1600143a5398f914a2ae700f4cbd44b51acbff5990901a", "asm": "00143a5398f914a2ae700f4cbd44b51acbff5990901a"}, "vout": 0, "txid": "64c1a1f4a5d7d833624f1725afddccbf12b28034a5ef886966c9ab1d3aeb61b8"}, {"txinwitness": ["304402206fc76c8b292e81504485296199630be14345866b9eba298befb0fc5868876fc9022059b010e12f6d68fcf7097f2019526e86172016aab6649f0b4e5707b8305f893d01", "020a9cab9583be311a45188d575d65e66773b9ef3f16fcf8aecb3007ff0708e0df"], "sequence": 4294967294, "scriptSig": {"hex": "1600147c71d340d5adfdf502869ece7a68afa2077edc80", "asm": "00147c71d340d5adfdf502869ece7a68afa2077edc80"}, "vout": 1, "txid": "703003a7b71c765b8c74082f37042812301d32048378a759691d09c8afbbfbd5"}, {"txinwitness": ["30440220535e18c8a84086f7460338acb12b4fd40a85e540c7aa08596fb8be0027a272f4022023dbd5daa9786a5d64b460be563b196ac147be5072b59be06c9b9a6cdccaac4601", "0338aca7883c929d78851701a73fccaa1eae5a0b5c6439a11a4efc84864e419380"], "sequence": 4294967294, "scriptSig": {"hex": "160014121008a49f5caee185a88480e34de87b5deff75f", "asm": "0014121008a49f5caee185a88480e34de87b5deff75f"}, "vout": 10, "txid": "5e622d2712430b8748c28b3d49d45e9eedb2ca29fb8ff4750903fec62c3308ec"}], "txid": "13337db9afb21cf842807b1d076b04efbba37aa5abf8f140ed1e20505a25a33f", "blocktime": 1537873282, "version": 2, "confirmations": 11481, "time": 1537873282, "locktime": 542995, "vsize": 860, "size": 1426}