{"hash": "1335ace1b748a130ec5c36acd3c7427b8215a525510213584bde81967e6c66b7", "blockhash": "0000000000000000001f76057863aec43deb6fa401d9628bb513d65a8098bfab", "vout": [{"scriptPubKey": {"reqSigs": 1, "hex": "a914412bfe9225ff27bb9037fa29100fc9a63ff1f40187", "addresses": ["37dcYoGF6s188cwbCoJAh1tCKyndnN7Y9P"], "asm": "OP_HASH160 412bfe9225ff27bb9037fa29100fc9a63ff1f401 OP_EQUAL", "type": "scripthash"}, "value": 0.0286005, "n": 0}, {"scriptPubKey": {"reqSigs": 1, "hex": "a91498d2b5c148e1c32fe73b2d576a0dc7a4be0520b987", "addresses": ["3Fd5464aq5V4uyBf4Kwrzs6GF7pL1Q4zxA"], "asm": "OP_HASH160 98d2b5c148e1c32fe73b2d576a0dc7a4be0520b9 OP_EQUAL", "type": "scripthash"}, "value": 0.01613657, "n": 1}, {"scriptPubKey": {"reqSigs": 1, "hex": "76a91413ac7a4797feb3753b046c5a353ebe4995d0be3788ac", "addresses": ["12o2TbwFuydMmaUh2NWbXmygKysoHWDWCS"], "asm": "OP_DUP OP_HASH160 13ac7a4797feb3753b046c5a353ebe4995d0be37 OP_EQUALVERIFY OP_CHECKSIG", "type": "pubkeyhash"}, "value": 0.00016137, "n": 2}], "hex": "010000000214eb32d9c72803abb8496d4fc613ba8eafa8d23178437bfa65d55e062d2649e200000000da00483045022100b40296a83c9a6a1c946468bccb03a7f8ce8cccc6718a5d46a2c6a37cd5262253022011bd582cf7b717b01c6ae1b1ecce96ee89a5ca9c216c0daa6aad2cdabdc9018c01473044022013fdd0fe6e726fae90c0a2e7efc0e78c061573bdf7cefad6686b91f1d2118ba702200336b30d18c1df887e3b050c5a1b75d9e12deb6a94f08671cd63d9dd8d39f9e90147522102907a54bed8ad74b3f35638c60114ca240a308cb986f3f2f306178869a8880b61210299f0c2d3a4b0c9c2072e125c9c45a65d0b65a2c2e78f761231d72f6d9d8decf752aeffffffffd840f32e784c5fa1de998982f0bd23bb1c95a8c10a09cff1b026276adbe41b56010000006a47304402205cdd15b4d65e64ee81989933e362064d2c0125c6038159090337336c41454941022059411030f3dc4ee44d7f515ba4181a77a105578fdd350ff3e1f0c571f1e314be0121035ae32f0f768dafe804125d4d6e9248b41d19b49f5895c354de39e299050102a1ffffffff0312a42b000000000017a914412bfe9225ff27bb9037fa29100fc9a63ff1f40187599f18000000000017a91498d2b5c148e1c32fe73b2d576a0dc7a4be0520b987093f0000000000001976a91413ac7a4797feb3753b046c5a353ebe4995d0be3788ac00000000", "vin": [{"sequence": 4294967295, "scriptSig": {"hex": "00483045022100b40296a83c9a6a1c946468bccb03a7f8ce8cccc6718a5d46a2c6a37cd5262253022011bd582cf7b717b01c6ae1b1ecce96ee89a5ca9c216c0daa6aad2cdabdc9018c01473044022013fdd0fe6e726fae90c0a2e7efc0e78c061573bdf7cefad6686b91f1d2118ba702200336b30d18c1df887e3b050c5a1b75d9e12deb6a94f08671cd63d9dd8d39f9e90147522102907a54bed8ad74b3f35638c60114ca240a308cb986f3f2f306178869a8880b61210299f0c2d3a4b0c9c2072e125c9c45a65d0b65a2c2e78f761231d72f6d9d8decf752ae", "asm": "0 3045022100b40296a83c9a6a1c946468bccb03a7f8ce8cccc6718a5d46a2c6a37cd5262253022011bd582cf7b717b01c6ae1b1ecce96ee89a5ca9c216c0daa6aad2cdabdc9018c[ALL] 3044022013fdd0fe6e726fae90c0a2e7efc0e78c061573bdf7cefad6686b91f1d2118ba702200336b30d18c1df887e3b050c5a1b75d9e12deb6a94f08671cd63d9dd8d39f9e9[ALL] 522102907a54bed8ad74b3f35638c60114ca240a308cb986f3f2f306178869a8880b61210299f0c2d3a4b0c9c2072e125c9c45a65d0b65a2c2e78f761231d72f6d9d8decf752ae"}, "vout": 0, "txid": "e249262d065ed565fa7b437831d2a8af8eba13c64f6d49b8ab0328c7d932eb14"}, {"sequence": 4294967295, "scriptSig": {"hex": "47304402205cdd15b4d65e64ee81989933e362064d2c0125c6038159090337336c41454941022059411030f3dc4ee44d7f515ba4181a77a105578fdd350ff3e1f0c571f1e314be0121035ae32f0f768dafe804125d4d6e9248b41d19b49f5895c354de39e299050102a1", "asm": "304402205cdd15b4d65e64ee81989933e362064d2c0125c6038159090337336c41454941022059411030f3dc4ee44d7f515ba4181a77a105578fdd350ff3e1f0c571f1e314be[ALL] 035ae32f0f768dafe804125d4d6e9248b41d19b49f5895c354de39e299050102a1"}, "vout": 1, "txid": "561be4db6a2726b0f1cf090ac1a8951cbb23bdf0828999dea15f4c782ef340d8"}], "txid": "1335ace1b748a130ec5c36acd3c7427b8215a525510213584bde81967e6c66b7", "blocktime": 1537873891, "version": 1, "confirmations": 11478, "time": 1537873891, "locktime": 0, "vsize": 514, "size": 514}