{"hash": "1337b1506803d764fd30069064e28c5e2729e6bec8c6846526f245b21eb780cd", "blockhash": "0000000000000000000e13cef7c366c0283d82e591d1acd082e914b08063cdf1", "vout": [{"scriptPubKey": {"reqSigs": 1, "hex": "a914499cd3aa97cf404dda80bc91c31b28e660e5e18187", "addresses": ["38QF84nDRNbiJ5pgioQQUnLfdQUupmeMJ2"], "asm": "OP_HASH160 499cd3aa97cf404dda80bc91c31b28e660e5e181 OP_EQUAL", "type": "scripthash"}, "value": 0.00014215, "n": 0}, {"scriptPubKey": {"reqSigs": 1, "hex": "76a91419c99cb299cecebdb80cea993dd7d91500ec12ca88ac", "addresses": ["13MMR3uRSa767BaLzC5jDYSNdQRiYkXQUf"], "asm": "OP_DUP OP_HASH160 19c99cb299cecebdb80cea993dd7d91500ec12ca OP_EQUALVERIFY OP_CHECKSIG", "type": "pubkeyhash"}, "value": 0.02267944, "n": 1}], "hex": "010000000142d983e296f746daa891485fc55b48057e2d9481072719bc2dbb83e4881bb726010000006a47304402204b2dcc13f6a33593710a36f0d4e03ba023f67c758a7f058b46cf62e02734095002205a85dfd04eb57fc254411ba384053e3b9a61b9de01f138fc902b467589560b190121036bed632c4dce6a55e2b7d3314b2fcd057252d903b09432893ebfac7cfd3d7764ffffffff02873700000000000017a914499cd3aa97cf404dda80bc91c31b28e660e5e18187289b2200000000001976a91419c99cb299cecebdb80cea993dd7d91500ec12ca88ac00000000", "vin": [{"sequence": 4294967295, "scriptSig": {"hex": "47304402204b2dcc13f6a33593710a36f0d4e03ba023f67c758a7f058b46cf62e02734095002205a85dfd04eb57fc254411ba384053e3b9a61b9de01f138fc902b467589560b190121036bed632c4dce6a55e2b7d3314b2fcd057252d903b09432893ebfac7cfd3d7764", "asm": "304402204b2dcc13f6a33593710a36f0d4e03ba023f67c758a7f058b46cf62e02734095002205a85dfd04eb57fc254411ba384053e3b9a61b9de01f138fc902b467589560b19[ALL] 036bed632c4dce6a55e2b7d3314b2fcd057252d903b09432893ebfac7cfd3d7764"}, "vout": 1, "txid": "26b71b88e483bb2dbc19270781942d7e05485bc55f4891a8da46f796e283d942"}], "txid": "1337b1506803d764fd30069064e28c5e2729e6bec8c6846526f245b21eb780cd", "blocktime": 1537871767, "version": 1, "confirmations": 11495, "time": 1537871767, "locktime": 0, "vsize": 223, "size": 223}