{"hash": "1338c065d9160d611948c4429469039af227a2ca7ed84828ad0e07ce4734982c", "blockhash": "00000000000000000018f53835495a110e01622372bf6ae95dc86f2b0ab887b0", "vout": [{"scriptPubKey": {"reqSigs": 1, "hex": "76a914a027e8755191d2a0eb6e625e63f3807dc3a345e988ac", "addresses": ["1FbpvZ2Hp9vEgJgPhewizKadKVYFKLDEWX"], "asm": "OP_DUP OP_HASH160 a027e8755191d2a0eb6e625e63f3807dc3a345e9 OP_EQUALVERIFY OP_CHECKSIG", "type": "pubkeyhash"}, "value": 0.07180824, "n": 0}, {"scriptPubKey": {"reqSigs": 1, "hex": "76a9149354d93d1c7abec1355a4123aa492d8ba600980c88ac", "addresses": ["1ES1yan6Mn2syR6DTzRSFMhYFdaDQJQxJ4"], "asm": "OP_DUP OP_HASH160 9354d93d1c7abec1355a4123aa492d8ba600980c OP_EQUALVERIFY OP_CHECKSIG", "type": "pubkeyhash"}, "value": 0.13098814, "n": 1}], "hex": "0100000004d03cd4fda3d5f9ce6e50e4e5d8d84d4b5ca0414bc84b522489bd9aece16f5b62010000006a4730440220131ac9365c399c55f6a98cef2d255f8cdd72df8387e4b52b0cbe373b7c72140c02204b69662e3b978fe257b9231e72f44facb8b28ea38c45c5efd9d5e327c830ac420121022a12009135b012cd6bb5629ac9ac4ec563c96eaba093fba68ee50ea06c33cbd2ffffffffa6d7addace61badc4e87d1e183181778c304198b7b3e07256f7b42511e3becd8010000006a4730440220009544be5c49645cd06c586fd8649cb0f0ee87631204369690510e0e732c9e460220591748a1aa87cae5fb33b9b45ac4b72ac950973b7b13cd139380d80eb17612f0012103ddbdd72de7500d8600a4dbb4578cfbc0304595d30c67655b7275a5cb36d188beffffffff69a5e3d0b5fef47ef918378fbd4f05d072a2de583ee98c8a0b4284dc215aec0c010000006b483045022100d5c9b09ab80efdecc3797bca19b16f9e3706c0aa86f3ed8a7e33723524cf62740220235ac48bb1819d71651c34412541ee7649a4219a35c26dc27b4e2b9dd38947e10121039d6f93970191285eb2c0c802ba66876f3bb52260ad2d00db234b7f02763406f0ffffffff579d2aec35a75bfd1e095d6d9fe6b6f50b3ff28cf4ced41bdbb6df7c5471ddc3010000006b483045022100f14b1ce001b193f6811329adfc6cfa34bd3594b322a4485a430eb4783b1554b502205f561fad3bf05e0e37afe4782bc0284179dbea0fa4090a23b050eb45210917950121033c0ccd193d5a009bd9e22ca5f44f66f734bbae242caf0347c8e421a1391dfe64ffffffff0218926d00000000001976a914a027e8755191d2a0eb6e625e63f3807dc3a345e988ac3edfc700000000001976a9149354d93d1c7abec1355a4123aa492d8ba600980c88ac00000000", "vin": [{"sequence": 4294967295, "scriptSig": {"hex": "4730440220131ac9365c399c55f6a98cef2d255f8cdd72df8387e4b52b0cbe373b7c72140c02204b69662e3b978fe257b9231e72f44facb8b28ea38c45c5efd9d5e327c830ac420121022a12009135b012cd6bb5629ac9ac4ec563c96eaba093fba68ee50ea06c33cbd2", "asm": "30440220131ac9365c399c55f6a98cef2d255f8cdd72df8387e4b52b0cbe373b7c72140c02204b69662e3b978fe257b9231e72f44facb8b28ea38c45c5efd9d5e327c830ac42[ALL] 022a12009135b012cd6bb5629ac9ac4ec563c96eaba093fba68ee50ea06c33cbd2"}, "vout": 1, "txid": "625b6fe1ec9abd8924524bc84b41a05c4b4dd8d8e5e4506ecef9d5a3fdd43cd0"}, {"sequence": 4294967295, "scriptSig": {"hex": "4730440220009544be5c49645cd06c586fd8649cb0f0ee87631204369690510e0e732c9e460220591748a1aa87cae5fb33b9b45ac4b72ac950973b7b13cd139380d80eb17612f0012103ddbdd72de7500d8600a4dbb4578cfbc0304595d30c67655b7275a5cb36d188be", "asm": "30440220009544be5c49645cd06c586fd8649cb0f0ee87631204369690510e0e732c9e460220591748a1aa87cae5fb33b9b45ac4b72ac950973b7b13cd139380d80eb17612f0[ALL] 03ddbdd72de7500d8600a4dbb4578cfbc0304595d30c67655b7275a5cb36d188be"}, "vout": 1, "txid": "d8ec3b1e51427b6f25073e7b8b1904c378171883e1d1874edcba61cedaadd7a6"}, {"sequence": 4294967295, "scriptSig": {"hex": "483045022100d5c9b09ab80efdecc3797bca19b16f9e3706c0aa86f3ed8a7e33723524cf62740220235ac48bb1819d71651c34412541ee7649a4219a35c26dc27b4e2b9dd38947e10121039d6f93970191285eb2c0c802ba66876f3bb52260ad2d00db234b7f02763406f0", "asm": "3045022100d5c9b09ab80efdecc3797bca19b16f9e3706c0aa86f3ed8a7e33723524cf62740220235ac48bb1819d71651c34412541ee7649a4219a35c26dc27b4e2b9dd38947e1[ALL] 039d6f93970191285eb2c0c802ba66876f3bb52260ad2d00db234b7f02763406f0"}, "vout": 1, "txid": "0cec5a21dc84420b8a8ce93e58dea272d0054fbd8f3718f97ef4feb5d0e3a569"}, {"sequence": 4294967295, "scriptSig": {"hex": "483045022100f14b1ce001b193f6811329adfc6cfa34bd3594b322a4485a430eb4783b1554b502205f561fad3bf05e0e37afe4782bc0284179dbea0fa4090a23b050eb45210917950121033c0ccd193d5a009bd9e22ca5f44f66f734bbae242caf0347c8e421a1391dfe64", "asm": "3045022100f14b1ce001b193f6811329adfc6cfa34bd3594b322a4485a430eb4783b1554b502205f561fad3bf05e0e37afe4782bc0284179dbea0fa4090a23b050eb4521091795[ALL] 033c0ccd193d5a009bd9e22ca5f44f66f734bbae242caf0347c8e421a1391dfe64"}, "vout": 1, "txid": "c3dd71547cdfb6db1bd4cef48cf23f0bf5b6e69f6d5d091efd5ba735ec2a9d57"}], "txid": "1338c065d9160d611948c4429469039af227a2ca7ed84828ad0e07ce4734982c", "blocktime": 1537870928, "version": 1, "confirmations": 11512, "time": 1537870928, "locktime": 0, "vsize": 668, "size": 668}