{"hash": "3f0257ca7c49334672291fbfb4434fc4920df1dbea92ca6ddb9b937746395c83", "blockhash": "00000000000000000018f53835495a110e01622372bf6ae95dc86f2b0ab887b0", "vout": [{"scriptPubKey": {"reqSigs": 1, "hex": "a91444c035291c582867a258c5d4837e5d38ce530d3787", "addresses": ["37xY8Qm48xph51zBqSF9ocSjpY5wf9G2rv"], "asm": "OP_HASH160 44c035291c582867a258c5d4837e5d38ce530d37 OP_EQUAL", "type": "scripthash"}, "value": 0.00816229, "n": 0}, {"scriptPubKey": {"reqSigs": 1, "hex": "a914a34e88d26d0312980dfd819076d84b76b077b6c787", "addresses": ["3GaW9Uv5n5jrAXV6xMqgvDDzAYWS9SdHPY"], "asm": "OP_HASH160 a34e88d26d0312980dfd819076d84b76b077b6c7 OP_EQUAL", "type": "scripthash"}, "value": 0.01233433, "n": 1}], "hex": "020000000001016aabd79ba16cfae246ca12ad135966353e1880caa813c071d18a3d288e47f419010000001716001412ee62b303b4d232217aec593a5790e767ab1cecfeffffff0265740c000000000017a91444c035291c582867a258c5d4837e5d38ce530d378719d212000000000017a914a34e88d26d0312980dfd819076d84b76b077b6c7870247304402201e0eef3bc42612d92d035770fd97dc9fd0a411079686fa17322c60c580b7917302204296d0a6d5b3575f444f433adebea40baa3fe0c8ce91ab91e52246a01cc47279012103c03ce8caa055a4ef4e1cdad477bf24c722d176eb1f282764af30cdf975116004c9480800", "vin": [{"txinwitness": ["304402201e0eef3bc42612d92d035770fd97dc9fd0a411079686fa17322c60c580b7917302204296d0a6d5b3575f444f433adebea40baa3fe0c8ce91ab91e52246a01cc4727901", "03c03ce8caa055a4ef4e1cdad477bf24c722d176eb1f282764af30cdf975116004"], "sequence": 4294967294, "scriptSig": {"hex": "16001412ee62b303b4d232217aec593a5790e767ab1cec", "asm": "001412ee62b303b4d232217aec593a5790e767ab1cec"}, "vout": 1, "txid": "19f4478e283d8ad171c013a8ca80183e35665913ad12ca46e2fa6ca19bd7ab6a"}], "txid": "133cdf16d825d9ea31041eb68d0fd709a16f16b3aadfb2574d5592fcea24bc96", "blocktime": 1537870928, "version": 2, "confirmations": 11514, "time": 1537870928, "locktime": 542921, "vsize": 166, "size": 247}