{"hash": "9ae9f4ea2956fc2923824a5a865e3803ced3f7a65876ae61dab457e2dd0c0344", "blockhash": "0000000000000000000e13cef7c366c0283d82e591d1acd082e914b08063cdf1", "vout": [{"scriptPubKey": {"reqSigs": 1, "hex": "76a914cd09983212006948fd24c52720a908bc87f0426688ac", "addresses": ["1Kh91xu5ULkhgirGqCE2fget8g3G4oBW8a"], "asm": "OP_DUP OP_HASH160 cd09983212006948fd24c52720a908bc87f04266 OP_EQUALVERIFY OP_CHECKSIG", "type": "pubkeyhash"}, "value": 0.00040999, "n": 0}, {"scriptPubKey": {"reqSigs": 1, "hex": "a91470966c4580a5e82ad8c84f224d7b3ed8beaa009087", "addresses": ["3BxKobcQi1W7sn8DiFzYnHRujxzY5N6Fvq"], "asm": "OP_HASH160 70966c4580a5e82ad8c84f224d7b3ed8beaa0090 OP_EQUAL", "type": "scripthash"}, "value": 0.00910039, "n": 1}, {"scriptPubKey": {"reqSigs": 1, "hex": "76a91449dd178d47a7adb654c9cad9bbf4ed56b978fedf88ac", "addresses": ["17jZBkDNNVZsJKj1wkwGXtd39H2ajryCR3"], "asm": "OP_DUP OP_HASH160 49dd178d47a7adb654c9cad9bbf4ed56b978fedf OP_EQUALVERIFY OP_CHECKSIG", "type": "pubkeyhash"}, "value": 0.00402347, "n": 2}, {"scriptPubKey": {"reqSigs": 1, "hex": "a914bddce1db77593a7ac8d67f0d488c4311d5103ffa87", "addresses": ["3JzvEy64J63pDv7KjyKsVzupMgKcwdgQU4"], "asm": "OP_HASH160 bddce1db77593a7ac8d67f0d488c4311d5103ffa OP_EQUAL", "type": "scripthash"}, "value": 0.04322007, "n": 3}], "hex": "02000000000101bf2de24ff2e583b3935aa874d28f1b561226a34fd694e4ee1ab7c091e85ace9b0200000017160014394c1d55120fea8442873d75d93263e22518f914ffffffff0427a00000000000001976a914cd09983212006948fd24c52720a908bc87f0426688acd7e20d000000000017a91470966c4580a5e82ad8c84f224d7b3ed8beaa009087ab230600000000001976a91449dd178d47a7adb654c9cad9bbf4ed56b978fedf88acd7f241000000000017a914bddce1db77593a7ac8d67f0d488c4311d5103ffa87024830450221009e05bfa072e8893bbb0babe703ca6a1359b7d0d50166b64083c24360a3e9fd260220219f945219e1fb83d6bd4a2cbe37a4cddea0f66bcf216ba0c2b361da09624f10012103e196163b6d30d0fef27eff5bae2754a7ccba75d466b78c87116b6535bacce31b00000000", "vin": [{"txinwitness": ["30450221009e05bfa072e8893bbb0babe703ca6a1359b7d0d50166b64083c24360a3e9fd260220219f945219e1fb83d6bd4a2cbe37a4cddea0f66bcf216ba0c2b361da09624f1001", "03e196163b6d30d0fef27eff5bae2754a7ccba75d466b78c87116b6535bacce31b"], "sequence": 4294967295, "scriptSig": {"hex": "160014394c1d55120fea8442873d75d93263e22518f914", "asm": "0014394c1d55120fea8442873d75d93263e22518f914"}, "vout": 2, "txid": "9bce5ae891c0b71aeee494d64fa32612561b8fd274a85a93b383e5f24fe22dbf"}], "txid": "1343715b2d5c8c06793b887f11cbca437f4e454894d2d667ac0f2a6245c8967f", "blocktime": 1537871767, "version": 2, "confirmations": 11491, "time": 1537871767, "locktime": 0, "vsize": 234, "size": 316}