{"hash": "1344dbd7687c7b33a350a575e930618898422ef3073d3d31ce31110b7d7515d3", "blockhash": "00000000000000000017f5eb5941039fbcee6240d03bc1f2f8e35350df66a1d8", "vout": [{"scriptPubKey": {"reqSigs": 1, "hex": "76a914304ab2e94245161e5f3d386a46800a3c9411acc788ac", "addresses": ["15QLvNqQfCwTzrwKY4D5j7ATEBJt9xELiq"], "asm": "OP_DUP OP_HASH160 304ab2e94245161e5f3d386a46800a3c9411acc7 OP_EQUALVERIFY OP_CHECKSIG", "type": "pubkeyhash"}, "value": 0.00562943, "n": 0}, {"scriptPubKey": {"reqSigs": 1, "hex": "76a91407280985183f4042f8f130056a57a091c1ef6b3688ac", "addresses": ["1eqhBArQvQWtHgCo6HCTGH71NPcbeosH4"], "asm": "OP_DUP OP_HASH160 07280985183f4042f8f130056a57a091c1ef6b36 OP_EQUALVERIFY OP_CHECKSIG", "type": "pubkeyhash"}, "value": 0.03429986, "n": 1}], "hex": "0200000001d845f07e97029200304f5dd773c1c7251a87d4e536e9abdb0a70ec174ef01bc6010000006b48304502210090ccb8ed4e598ad2d75b561e15e018b3619a0d5fda64c57777a1fea1a12ef0c7022073a6c6ce92ec44208f226ca83a026a60a6eaea0ae74bd90b757ab54b529c37cb012103577749d701c32713ec4ff9d767f3e6514175733619c5303d5b7d5e9b98f1e1a6ffffffff02ff960800000000001976a914304ab2e94245161e5f3d386a46800a3c9411acc788ac62563400000000001976a91407280985183f4042f8f130056a57a091c1ef6b3688ac00000000", "vin": [{"sequence": 4294967295, "scriptSig": {"hex": "48304502210090ccb8ed4e598ad2d75b561e15e018b3619a0d5fda64c57777a1fea1a12ef0c7022073a6c6ce92ec44208f226ca83a026a60a6eaea0ae74bd90b757ab54b529c37cb012103577749d701c32713ec4ff9d767f3e6514175733619c5303d5b7d5e9b98f1e1a6", "asm": "304502210090ccb8ed4e598ad2d75b561e15e018b3619a0d5fda64c57777a1fea1a12ef0c7022073a6c6ce92ec44208f226ca83a026a60a6eaea0ae74bd90b757ab54b529c37cb[ALL] 03577749d701c32713ec4ff9d767f3e6514175733619c5303d5b7d5e9b98f1e1a6"}, "vout": 1, "txid": "c61bf04e17ec700adbabe936e5d4871a25c7c173d75d4f30009202977ef045d8"}], "txid": "1344dbd7687c7b33a350a575e930618898422ef3073d3d31ce31110b7d7515d3", "blocktime": 1537874412, "version": 2, "confirmations": 11467, "time": 1537874412, "locktime": 0, "vsize": 226, "size": 226}