{"hash": "13443683784586d4170c234004c5a34dcec0f7249e69b5807827257470244cfa", "blockhash": "0000000000000000001f76057863aec43deb6fa401d9628bb513d65a8098bfab", "vout": [{"scriptPubKey": {"reqSigs": 1, "hex": "a91472de88a3da6ea0c8d3631ae252b3fdcf44d7570e87", "addresses": ["3CAPYL1ASq6XHPxGJbkBThzRtbkirzdtWc"], "asm": "OP_HASH160 72de88a3da6ea0c8d3631ae252b3fdcf44d7570e OP_EQUAL", "type": "scripthash"}, "value": 0.04834925, "n": 0}, {"scriptPubKey": {"reqSigs": 1, "hex": "a91480ffe31132569891f2869ff389f0179ca8c8e13687", "addresses": ["3DT6xSJxnN95wjxSebev3xUNphpsSbQwd9"], "asm": "OP_HASH160 80ffe31132569891f2869ff389f0179ca8c8e136 OP_EQUAL", "type": "scripthash"}, "value": 0.03077183, "n": 1}, {"scriptPubKey": {"reqSigs": 1, "hex": "76a91452c7dd43341a603778ff813883639507da8b993588ac", "addresses": ["18YhqYeKP1n4P83UiD6BYtXGNrdpSmY5sV"], "asm": "OP_DUP OP_HASH160 52c7dd43341a603778ff813883639507da8b9935 OP_EQUALVERIFY OP_CHECKSIG", "type": "pubkeyhash"}, "value": 9.464e-05, "n": 2}], "hex": "010000000329b9cb087d6723191e6a3ca0740d447f118c0c37ae2b62d2e9ca77f59c6fb3b900000000db00483045022100b4d287b0da0338d9fb7bbf625d27af5196435a3d8b70106aeb48e06430ac614f02207ccfb94f390a7e842fbe565aee4e882c812c6297a55365f83c94d6070e3bdb7701483045022100cae13b65ee3d0e6cedcab199a2a3e28baa5be2fee4f650d1a10c677b01f76e8802207ad8e6a428141610aa41e4940ed480966628258db5c0c6fd7b32e04bb47ae71701475221020cd02d91c50c0a27d3457398534ce4fa790b0e5633ef2170c5f4657950476cc72102907a54bed8ad74b3f35638c60114ca240a308cb986f3f2f306178869a8880b6152aeffffffffb95d2a1f095e9d2287315cf5e8639fc7894ccfb7c1f009b6823ab2ad24157fee00000000da004730440220329532ea2b9b8c447f2836cb9b2a806b9c0998cf423a5ab5bd7cae005fed28f802206525f7857984578da62956991f04968b2aeac88057cee9c2a7074594a79c3df001483045022100a84d20e3e8976751d9d3463c0a8c8e9ee0588fe2583355ea4d9265d7aa95f54e0220254028333c30e5442b0ccd6ea9809dcb0434e5806b557504938ea3a7875411ad0147522102907a54bed8ad74b3f35638c60114ca240a308cb986f3f2f306178869a8880b612103ed464f40d83adaff7e008b4efea710e7675f316b27cfa7c64a86af2f28f10f2a52aefffffffffb0d3476a41aee57d6a4f0429406b53fd50956a56feefdf262d757a26aa1c741010000006b483045022100ce46f48c49369e777746dcbc4afc4e569d11c0b3e0ae02d7b400c6cbf621146602201e41eb5e87136bb060cae9a320fe945d17499c62222777d80d693fba70cb1acb0121030b34c85c8c4285e0ca4a733ec895caacd5d7e0dc8f66c4473938771c3d6a16ccffffffff036dc649000000000017a91472de88a3da6ea0c8d3631ae252b3fdcf44d7570e873ff42e000000000017a91480ffe31132569891f2869ff389f0179ca8c8e13687f8240000000000001976a91452c7dd43341a603778ff813883639507da8b993588ac00000000", "vin": [{"sequence": 4294967295, "scriptSig": {"hex": "00483045022100b4d287b0da0338d9fb7bbf625d27af5196435a3d8b70106aeb48e06430ac614f02207ccfb94f390a7e842fbe565aee4e882c812c6297a55365f83c94d6070e3bdb7701483045022100cae13b65ee3d0e6cedcab199a2a3e28baa5be2fee4f650d1a10c677b01f76e8802207ad8e6a428141610aa41e4940ed480966628258db5c0c6fd7b32e04bb47ae71701475221020cd02d91c50c0a27d3457398534ce4fa790b0e5633ef2170c5f4657950476cc72102907a54bed8ad74b3f35638c60114ca240a308cb986f3f2f306178869a8880b6152ae", "asm": "0 3045022100b4d287b0da0338d9fb7bbf625d27af5196435a3d8b70106aeb48e06430ac614f02207ccfb94f390a7e842fbe565aee4e882c812c6297a55365f83c94d6070e3bdb77[ALL] 3045022100cae13b65ee3d0e6cedcab199a2a3e28baa5be2fee4f650d1a10c677b01f76e8802207ad8e6a428141610aa41e4940ed480966628258db5c0c6fd7b32e04bb47ae717[ALL] 5221020cd02d91c50c0a27d3457398534ce4fa790b0e5633ef2170c5f4657950476cc72102907a54bed8ad74b3f35638c60114ca240a308cb986f3f2f306178869a8880b6152ae"}, "vout": 0, "txid": "b9b36f9cf577cae9d2622bae370c8c117f440d74a03c6a1e1923677d08cbb929"}, {"sequence": 4294967295, "scriptSig": {"hex": "004730440220329532ea2b9b8c447f2836cb9b2a806b9c0998cf423a5ab5bd7cae005fed28f802206525f7857984578da62956991f04968b2aeac88057cee9c2a7074594a79c3df001483045022100a84d20e3e8976751d9d3463c0a8c8e9ee0588fe2583355ea4d9265d7aa95f54e0220254028333c30e5442b0ccd6ea9809dcb0434e5806b557504938ea3a7875411ad0147522102907a54bed8ad74b3f35638c60114ca240a308cb986f3f2f306178869a8880b612103ed464f40d83adaff7e008b4efea710e7675f316b27cfa7c64a86af2f28f10f2a52ae", "asm": "0 30440220329532ea2b9b8c447f2836cb9b2a806b9c0998cf423a5ab5bd7cae005fed28f802206525f7857984578da62956991f04968b2aeac88057cee9c2a7074594a79c3df0[ALL] 3045022100a84d20e3e8976751d9d3463c0a8c8e9ee0588fe2583355ea4d9265d7aa95f54e0220254028333c30e5442b0ccd6ea9809dcb0434e5806b557504938ea3a7875411ad[ALL] 522102907a54bed8ad74b3f35638c60114ca240a308cb986f3f2f306178869a8880b612103ed464f40d83adaff7e008b4efea710e7675f316b27cfa7c64a86af2f28f10f2a52ae"}, "vout": 0, "txid": "ee7f1524adb23a82b609f0c1b7cf4c89c79f63e8f55c3187229d5e091f2a5db9"}, {"sequence": 4294967295, "scriptSig": {"hex": "483045022100ce46f48c49369e777746dcbc4afc4e569d11c0b3e0ae02d7b400c6cbf621146602201e41eb5e87136bb060cae9a320fe945d17499c62222777d80d693fba70cb1acb0121030b34c85c8c4285e0ca4a733ec895caacd5d7e0dc8f66c4473938771c3d6a16cc", "asm": "3045022100ce46f48c49369e777746dcbc4afc4e569d11c0b3e0ae02d7b400c6cbf621146602201e41eb5e87136bb060cae9a320fe945d17499c62222777d80d693fba70cb1acb[ALL] 030b34c85c8c4285e0ca4a733ec895caacd5d7e0dc8f66c4473938771c3d6a16cc"}, "vout": 1, "txid": "41c7a16aa257d762f2fdee6fa55609d53fb5069442f0a4d657ee1aa476340dfb"}], "txid": "13443683784586d4170c234004c5a34dcec0f7249e69b5807827257470244cfa", "blocktime": 1537873891, "version": 1, "confirmations": 11478, "time": 1537873891, "locktime": 0, "vsize": 775, "size": 775}