{"hash": "7eecca46dd8b7b2c65b36a70ab0bc47c527134fb8d48c8a1a9c341a7e2c84b3d", "blockhash": "00000000000000000004ffacab907a6b429b9a5745fa0b75af4234bf69dd7176", "vout": [{"scriptPubKey": {"reqSigs": 1, "hex": "a91483299cfbb822ca6a685700d12422941c92ef40b387", "addresses": ["3DeYJ1ZUXVZDNWqb2EZj9SVLK61Jeaz4Gh"], "asm": "OP_HASH160 83299cfbb822ca6a685700d12422941c92ef40b3 OP_EQUAL", "type": "scripthash"}, "value": 0.42072834, "n": 0}, {"scriptPubKey": {"reqSigs": 1, "hex": "a9147934d32bdb2bf1d7d663a02cf092ba736d04a04b87", "addresses": ["3Cjty6LQuDrkbrnQwKR1iHHXFMBLd5eoLU"], "asm": "OP_HASH160 7934d32bdb2bf1d7d663a02cf092ba736d04a04b OP_EQUAL", "type": "scripthash"}, "value": 0.00785046, "n": 1}], "hex": "02000000000101c2aaa2ad8e2758ef1f8f14a9477a367ad8163a8e20924b24d32737f9bebe02f10200000017160014701ec7600ce8782e17502136af41bece9665d153feffffff0202fb81020000000017a91483299cfbb822ca6a685700d12422941c92ef40b38796fa0b000000000017a9147934d32bdb2bf1d7d663a02cf092ba736d04a04b8702473044022023747393421bd30d566923dc5387a5d3eab3d0f61dd595af241e723d22411aac02207fcdb5024bd4daea8a5c93ae8407d1e73a2fb1928b1bc685d947361c1fa1cc3701210290bb67ff9b73080d592d94d88a27c87ec37b2799b5e850f3c69523c33b2fe0ea16490800", "vin": [{"txinwitness": ["3044022023747393421bd30d566923dc5387a5d3eab3d0f61dd595af241e723d22411aac02207fcdb5024bd4daea8a5c93ae8407d1e73a2fb1928b1bc685d947361c1fa1cc3701", "0290bb67ff9b73080d592d94d88a27c87ec37b2799b5e850f3c69523c33b2fe0ea"], "sequence": 4294967294, "scriptSig": {"hex": "160014701ec7600ce8782e17502136af41bece9665d153", "asm": "0014701ec7600ce8782e17502136af41bece9665d153"}, "vout": 2, "txid": "f102bebef93727d3244b92208e3a16d87a367a47a9148f1fef58278eada2aac2"}], "txid": "1345b8aa3d9949c4046e2100aeeec08ad645a9f482535f0f9cfad7b10ba07aea", "blocktime": 1537875543, "version": 2, "confirmations": 11464, "time": 1537875543, "locktime": 542998, "vsize": 166, "size": 247}