{"hash": "1345dc60314171cfacc6b96c0169389d9ef564a2aef50d69ea7351ffc49c4db0", "blockhash": "0000000000000000000baef3f32e3676a92c3b2e5da21b426e4f302fc371ce76", "vout": [{"scriptPubKey": {"reqSigs": 1, "hex": "76a914bf25e0e62b4c318471c4bbe981d9829cc559e2ff88ac", "addresses": ["1JRhSV7mWpPPkpov3s8isQn2rE6TB2YomH"], "asm": "OP_DUP OP_HASH160 bf25e0e62b4c318471c4bbe981d9829cc559e2ff OP_EQUALVERIFY OP_CHECKSIG", "type": "pubkeyhash"}, "value": 3.736e-05, "n": 0}, {"scriptPubKey": {"reqSigs": 1, "hex": "76a9143a86bec71f4d2a0cd915bcb2e18cefcb253cbe4488ac", "addresses": ["16LTcPYDMoZXEvYiaQw76xwR4UjQp7VntX"], "asm": "OP_DUP OP_HASH160 3a86bec71f4d2a0cd915bcb2e18cefcb253cbe44 OP_EQUALVERIFY OP_CHECKSIG", "type": "pubkeyhash"}, "value": 0.0009, "n": 1}], "hex": "01000000017702a6ce4398d616308c981e27e8db1870adb2661476c043d4eb64966d13d1c5000000006a473044022013064f8f9fbdd98e14a6f91cac062b9221cce4da06e1d306171fe2b7555a253002204195d1709b462821b598a5ec5c7bf19cef570bb6108e2946d7bc60df9a0963fe012103376647e333102a4f1f8672d37099727900c490db806fe2fa78a7023641caa5f3fdffffff02980e0000000000001976a914bf25e0e62b4c318471c4bbe981d9829cc559e2ff88ac905f0100000000001976a9143a86bec71f4d2a0cd915bcb2e18cefcb253cbe4488ac16490800", "vin": [{"sequence": 4294967293, "scriptSig": {"hex": "473044022013064f8f9fbdd98e14a6f91cac062b9221cce4da06e1d306171fe2b7555a253002204195d1709b462821b598a5ec5c7bf19cef570bb6108e2946d7bc60df9a0963fe012103376647e333102a4f1f8672d37099727900c490db806fe2fa78a7023641caa5f3", "asm": "3044022013064f8f9fbdd98e14a6f91cac062b9221cce4da06e1d306171fe2b7555a253002204195d1709b462821b598a5ec5c7bf19cef570bb6108e2946d7bc60df9a0963fe[ALL] 03376647e333102a4f1f8672d37099727900c490db806fe2fa78a7023641caa5f3"}, "vout": 0, "txid": "c5d1136d9664ebd443c0761466b2ad7018dbe8271e988c3016d69843cea60277"}], "txid": "1345dc60314171cfacc6b96c0169389d9ef564a2aef50d69ea7351ffc49c4db0", "blocktime": 1537876114, "version": 1, "confirmations": 11461, "time": 1537876114, "locktime": 542998, "vsize": 225, "size": 225}