{"hash": "54d9023ba166b2ca7f0087d4ef4a72cd51cc5945619ad415020360dba0289f80", "blockhash": "0000000000000000001cda96e906b7601b7a6fb1a3b62bca570a9e5d8f4b3de1", "vout": [{"scriptPubKey": {"reqSigs": 1, "hex": "a914956ca9ed670eb4ae528cf8715d7cdf20a1cf3aec87", "addresses": ["3FK6nDcFxqvAMfYdfYxzwRs55BiyYiB5Qe"], "asm": "OP_HASH160 956ca9ed670eb4ae528cf8715d7cdf20a1cf3aec OP_EQUAL", "type": "scripthash"}, "value": 0.001844, "n": 0}, {"scriptPubKey": {"reqSigs": 1, "hex": "a914a2d3bb9e6248e2e09ed53864f99572d03b4e84f887", "addresses": ["3GXy35YGCYjyWUSy9Spb8d4KmESxUgR8a9"], "asm": "OP_HASH160 a2d3bb9e6248e2e09ed53864f99572d03b4e84f8 OP_EQUAL", "type": "scripthash"}, "value": 3.57629483, "n": 1}], "hex": "02000000000101a6267596d800625c0186e641d3256224fbb56fd188e3ef0a304738bbdb11f3320000000017160014f7be2bda548b87808b9e80d3b791b633be6c80eafeffffff0250d002000000000017a914956ca9ed670eb4ae528cf8715d7cdf20a1cf3aec872bfe50150000000017a914a2d3bb9e6248e2e09ed53864f99572d03b4e84f88702483045022100d794a14098a6335a575bce22d8bfdc3503a387373960f76b3dda293f7fbe5ead0220491f6b657cf10c41483268c8b1f6028cd369c88299b8d46d854572621e25b71c01210214de5ec0a452ee778290314cb45c230065076a57c0ffe2b3f772ed0a40e8408905490800", "vin": [{"txinwitness": ["3045022100d794a14098a6335a575bce22d8bfdc3503a387373960f76b3dda293f7fbe5ead0220491f6b657cf10c41483268c8b1f6028cd369c88299b8d46d854572621e25b71c01", "0214de5ec0a452ee778290314cb45c230065076a57c0ffe2b3f772ed0a40e84089"], "sequence": 4294967294, "scriptSig": {"hex": "160014f7be2bda548b87808b9e80d3b791b633be6c80ea", "asm": "0014f7be2bda548b87808b9e80d3b791b633be6c80ea"}, "vout": 0, "txid": "32f311dbbb3847300aefe388d16fb5fb246225d341e686015c6200d8967526a6"}], "txid": "134cc08b5db989a84df746ef14605c28ada9ef5acd2e27ebef9c7bfe4d553cfb", "blocktime": 1537873282, "version": 2, "confirmations": 11484, "time": 1537873282, "locktime": 542981, "vsize": 166, "size": 248}