{"hash": "1921551d06cc54f46eb7f30127e5ec6fb71d670f407052a4fc588f2aae3bfd9c", "blockhash": "00000000000000000017f5eb5941039fbcee6240d03bc1f2f8e35350df66a1d8", "vout": [{"scriptPubKey": {"reqSigs": 1, "hex": "a91422b197f78e5b014e9daa8583f030ea6e5f05e40f87", "addresses": ["34rTeVCtmybpreqz86oDnwLPGAj7RJycJH"], "asm": "OP_HASH160 22b197f78e5b014e9daa8583f030ea6e5f05e40f OP_EQUAL", "type": "scripthash"}, "value": 0.0305463, "n": 0}, {"scriptPubKey": {"reqSigs": 1, "hex": "76a91443caa7505dc99af97118bf8915f60481ab060f5b88ac", "addresses": ["17BT3UEWpWx26UJ4HJM1Q5JgmqiSwRJLes"], "asm": "OP_DUP OP_HASH160 43caa7505dc99af97118bf8915f60481ab060f5b OP_EQUALVERIFY OP_CHECKSIG", "type": "pubkeyhash"}, "value": 0.0064, "n": 1}, {"scriptPubKey": {"reqSigs": 1, "hex": "a9141988a27e3c2df4ddee7fad5a2303d086179b2a3087", "addresses": ["3422VtS7UtCvXYxoXMVp6eZupR252z85oC"], "asm": "OP_HASH160 1988a27e3c2df4ddee7fad5a2303d086179b2a30 OP_EQUAL", "type": "scripthash"}, "value": 1.17792346, "n": 2}], "hex": "0100000000010185cfba253f6395159b7fd4f2bc8a2b0cca807def4d0948cd9edb905afdc60bff01000000232200202035e78a6b34d583ad0a874b80ee41a0507b92cf0b671656108f594c7f75ca90ffffffff03269c2e000000000017a91422b197f78e5b014e9daa8583f030ea6e5f05e40f8700c40900000000001976a91443caa7505dc99af97118bf8915f60481ab060f5b88ac5a5e05070000000017a9141988a27e3c2df4ddee7fad5a2303d086179b2a30870400483045022100c1d61a183fb25ab0a40ba190a37d230e23ebc5793b153b242de0770b2c1011ff022023d8790ff1028f34e62e04ba047b1dae8a00fe3b356c1aec65373f362ede698201483045022100fcb086bf3b62c6a715985036170dec0edc5c098a9907545df9a32eac3b487b73022048e84d68f1e30d0ee03c008837d1e2390e5e33b8975e45d5be1e9bf3b960054e01695221029103d1dfbbee9ea5249ee0b03ca59e08291ce34a7467513edf8ea767b5aa26382103dce07bea5905a1c3e70f86c1f74f0e98e7cf3b6f5d02226a4c531c9e930c613b210268d8878afaf4b55118519d8520fe0db27f9596a812d4378f4bf4a96a5333694653ae00000000", "vin": [{"txinwitness": ["", "3045022100c1d61a183fb25ab0a40ba190a37d230e23ebc5793b153b242de0770b2c1011ff022023d8790ff1028f34e62e04ba047b1dae8a00fe3b356c1aec65373f362ede698201", "3045022100fcb086bf3b62c6a715985036170dec0edc5c098a9907545df9a32eac3b487b73022048e84d68f1e30d0ee03c008837d1e2390e5e33b8975e45d5be1e9bf3b960054e01", "5221029103d1dfbbee9ea5249ee0b03ca59e08291ce34a7467513edf8ea767b5aa26382103dce07bea5905a1c3e70f86c1f74f0e98e7cf3b6f5d02226a4c531c9e930c613b210268d8878afaf4b55118519d8520fe0db27f9596a812d4378f4bf4a96a5333694653ae"], "sequence": 4294967295, "scriptSig": {"hex": "2200202035e78a6b34d583ad0a874b80ee41a0507b92cf0b671656108f594c7f75ca90", "asm": "00202035e78a6b34d583ad0a874b80ee41a0507b92cf0b671656108f594c7f75ca90"}, "vout": 1, "txid": "ff0bc6fd5a90db9ecd48094def7d80ca0c2b8abcf2d47f9b1595633f25bacf85"}], "txid": "134e9c2153da709c3c184e32fa8521c18b79cf3ecfd3b71edd93989d313df6e1", "blocktime": 1537874412, "version": 1, "confirmations": 11467, "time": 1537874412, "locktime": 0, "vsize": 248, "size": 440}