{"hash": "928c2fd9aec33a0be44773befdfbe56e5c01db6d9fec4a47f6b5a9222d1b2070", "blockhash": "000000000000000000022b45ed06c6f4ccd3cf7fb5ba4856ebd2e58215665228", "vout": [{"scriptPubKey": {"reqSigs": 1, "hex": "a914cfaabfe8c271f99a4364b5197ba50c6cddb7adb987", "addresses": ["3Ld4M9RPwEG3VeQbHcC1PsKUndQL7VYLZP"], "asm": "OP_HASH160 cfaabfe8c271f99a4364b5197ba50c6cddb7adb9 OP_EQUAL", "type": "scripthash"}, "value": 1.32422796, "n": 0}, {"scriptPubKey": {"reqSigs": 1, "hex": "a91413038305f6ffe03f30acecb4e0ace468a2c6bb1687", "addresses": ["33RYyCAgxcjJAxLU8e4Gt4EWSHC1T7F1Xo"], "asm": "OP_HASH160 13038305f6ffe03f30acecb4e0ace468a2c6bb16 OP_EQUAL", "type": "scripthash"}, "value": 0.0488642, "n": 1}], "hex": "0100000000010a782df87850db0bb4b226a4f068e06ab2bd88c0c992868ddd3231540049e751cc000000002322002074f88c5d8cdfd210d10ed4869c1e3ccced4208dab3e51b1822093d13edac2dafffffffff6a70a7c0c83ca82e2d53a6d7ba5a56aee398e3b50da77a1800ee5f49ee9cdc81040000002322002034aaef9c9994598a1eb3295ab207ec12fdf8aea60cb6d92fcdc43beb11c9e124ffffffff0b21b64471402f9c8b69ac0dfb4960b4e58dc78f8919cae3b10198efd8a96b360000000023220020848e70bc41fa658f3f25c9de3f43a9424bb809a228486e0d5c83017f8f99aab3ffffffff96ef9639db45c1891fa44591efd730c2d5a6a031faaab201637bbdb1f41bb1950400000023220020525b58a1198374d94aeb74195fd25a94b1d7063c510f9894a46f895743580fbfffffffffd88e9bae5eeeec3c1f84a0e8996ba24db0ad1938f92d0af8b603fd2c84dc0e710100000023220020f212e0c80105f30c9ef813cd86c9596aafcb46586661264da9fc505e09e23362ffffffff6e9273864b1b6c3282a662fbd928154b02020264119fd519f48848264dbac06301000000232200200132db476c7e556cdfdee35d3929f9deb77ae8843b3a5dfc1b1200715b58935dffffffffa2bc4b7dbd4c5cf3075d42fe1a4e027d897953f80ff6520ef207fc54f4c3a2e6010000002322002080b302f942047e0093fc536eecfc421f46898dec637ed6bcbfb0246c0f3ae8a7ffffffff1c5156f787dc791b8288ac1f1c420d1117c99cadce164a4e88740d92167a902701000000232200200615bcdfc01510c9a6f3e4405d4662ca94443a8433f48faf4c8f70ad95435919ffffffff90c2139356d5ed33eca1b9cf48e31538697bf88cf71b5ec693ceb75da779cd860100000023220020ebd4338a7b049bb50be6ec68a29104c65d0c6363ee12b410435136ccf799655cffffffff0192bbeb821ead7986f0bbc56df65f20cd8672235f6630d1361b8ccf9528bc150100000023220020f33e1e27abe1f746adc4daeb500326026481c77e14a40af05bdfd386e5fdfa2affffffff028c9ce4070000000017a914cfaabfe8c271f99a4364b5197ba50c6cddb7adb987948f4a000000000017a91413038305f6ffe03f30acecb4e0ace468a2c6bb1687040047304402203225156565768eadb872665f39a35f8217fc2b0dadebb77b84f0dbc2de1f76bb022074f299cb2e0e79c1c49de2785e7e075863de78008eea2ac8a03373e0da9dffdc01483045022100d2a14f140b130586ee09e8513d94fa4806ba1a1739c363e2508de2f405b535da0220243cda8d59844bf73a7b4f7a706998098cfc082b082d4a198cd4196a83aba0ce01475221029a9c1172ea55bc29cd6ca94b94b1c48bcb90f2307aa1235d4757c43086ff1d3a21033e4af03ed09dbd8a417ba042650d5bd1db7f14f271a8f660974e3abf1fdfa4da52ae0400483045022100a0c560a12596eacdeff42b0bb145826fc1614036eb72127abf07f40157061a400220742d23a42bd0e97222527fd57af4e557563f15e5ff879e9b51211ba8cae3b1f401473044022062decad85d1253624fe6f0865ab019e47b406233d9ff3e0bb81d3b116033f80a022019c9685f73a4630eb4d8a6b61e9b2a6af34993f2f3e424ddba19daaf7398a2690147522102239839c9789766265eb619f6ccb59405051cae7af2f614caa7cec3e46a60dad621033e4af03ed09dbd8a417ba042650d5bd1db7f14f271a8f660974e3abf1fdfa4da52ae040047304402206347ce01ea7bbd01efb2d7cdc092f6c84ae74d67ee20c9c3f0f0e2bc098c3b10022021157102e45a32ee9f2801e2ba16d8977125ee29ffd81188facc331e55e8ba7a014830450221008b6b2f223bd8af5368dbb2631b1f6cfc9859b2936060141d81edc5d1794aab4e02207d68a0de12f9f1649917903f7f5ffc73088535ebafd9e132c950572e1e963eed01475221031ab96f160236351bea7ed062fe0fc1ccc550f1555beaba659f5e69bfc741bb9d21033e4af03ed09dbd8a417ba042650d5bd1db7f14f271a8f660974e3abf1fdfa4da52ae04004730440220470f601fcde1e6dc3928cf979a416cc669d0b14a84bdec16d0e4346e9bafd5c802205d4f5255c23dafa46cc1a24a30d563d7ff1905ad1aab61a1e9206accf93ad3f301483045022100aaf05f9a83cee553a64f2fd39f87ccfb8794585b5fc8481182aca6c1e030ea71022032468e1ef75cc80fefbea8d87f540a09ad12c8971f6814e8f04b527f854d2f6c0147522102aa6b80efc59f84780363835d93f467de8f4ea12613c326f34b850e999a9f347d21033e4af03ed09dbd8a417ba042650d5bd1db7f14f271a8f660974e3abf1fdfa4da52ae04004830450221008533891c2441ad9215ad156f74b9aaffb62739bc7b095e25052f2c916efcc30002203cecd2583aa87b2097a04764327ac00000df0f1bd52406d2ea77ca07f703411101483045022100de6a9b0bf9de6b5f9aeac0cd0e39b2609145b79bfdfbdf64b22605a40fec665a02203c7ed4594eab8210beda29e77ad30ce14720c4ec395cdb324b4b3f67f1d6e1ba0147522103289220731ccfff0094408674ce3484eb894dddecfab339961892535c0138cbe621033e4af03ed09dbd8a417ba042650d5bd1db7f14f271a8f660974e3abf1fdfa4da52ae0400483045022100f8dfc571ab3e01c7cd9db32c0d82b627620c85fdb12cfb65a210d3279935080e02200093d4624b1fcddf86e56416932a4e5010d0e99d64263c3e9c5cc6446c13b7fc01483045022100ca100d1055af5a7d455be329b034bbaff781ac41c3e50106c7032979b5bb1f5e022028cabf42a7c81eb9c4c5ca65437e87654db7ed86e3707a3ad76238f6a42517590147522103edf9ba024fbcec271ce88e52854af00ffbac496d8a457322d4f0076c41f8c8ef21033e4af03ed09dbd8a417ba042650d5bd1db7f14f271a8f660974e3abf1fdfa4da52ae0400483045022100924c1fb21288307149986d032fdc6592323a4a08bc84becfc94c3540197de57702201d774531d981f650c8e5485df79eb5b3d158be063cac12d7ed93365b9bc812dc01483045022100f8a32a0405f26945bc77120557a9c90859c46a2fa2f729ee710399b23717640802207f70103939dd19b98b933903866d0a1a470c9197bd7cade0ecdb6dd81ad12dea0147522103c347d860c1901b68ed65caa7bfbc1ac56368fd1fc2c30c4643f60eda6149817321033e4af03ed09dbd8a417ba042650d5bd1db7f14f271a8f660974e3abf1fdfa4da52ae0400483045022100d92515dc9d8fac82b9ffa0b21292ca1b388b61e73084c05ba66b3d5e46daa71a022020660b1ac4844baab3039082624f2a4a2bfe145b1398025c08060dca4e7d9f3f014730440220313bd4a84583fbe0cbab5c771a665afeeb1092c6e5b0f041690fa16cd6a22c20022012bb218a53baad7170856a56d7d9ffae08b78d5aeda7166c561b9ceb1a153bca0147522103b168da0c68cb3eb86ab0f7f3b3f8e5a8d6f6cc70b34e1e777a3c720103da618921033e4af03ed09dbd8a417ba042650d5bd1db7f14f271a8f660974e3abf1fdfa4da52ae0400483045022100f58f169c2b013b287ad568bcc0f557cb387888cfc1070f43b517a938ded8a93a022044cd96cb36f6da8d222b8b317be07f9a43630b283b805d677e566e971dfbc91a0147304402205cf2467864d8012105560c140dcabd5db0d5525180f2f9436903ebc6aac2006102202936e8eb619596f2d4d8bebb3f84bc31cc7734c2dd6e9af1a7c42322b819b2b201475221030cb464f752f4eaed5ecede362e6522ff704c007777393231b77480a069cc937921033e4af03ed09dbd8a417ba042650d5bd1db7f14f271a8f660974e3abf1fdfa4da52ae0400483045022100e6cdda1aa616fdbbd8f52f595a4197a714347e6f2edb3686d9ddeefb29a68164022061303ba7f0948e1d1e7939d934c7a4c20bf895922133bdacc63f90d01358926101483045022100b153b0eeb3f73caee7f472f77105d30f102b256af3ac04620a5b468ab7e15764022019485103689d4edcca477a3685e796556e09f5eccf4e938c53f02edc18ce79920147522102428952fa4396d19a3b997b4fec382509a49c47750c262fd9d4be01e438b8346e21033e4af03ed09dbd8a417ba042650d5bd1db7f14f271a8f660974e3abf1fdfa4da52ae00000000", "vin": [{"txinwitness": ["", "304402203225156565768eadb872665f39a35f8217fc2b0dadebb77b84f0dbc2de1f76bb022074f299cb2e0e79c1c49de2785e7e075863de78008eea2ac8a03373e0da9dffdc01", "3045022100d2a14f140b130586ee09e8513d94fa4806ba1a1739c363e2508de2f405b535da0220243cda8d59844bf73a7b4f7a706998098cfc082b082d4a198cd4196a83aba0ce01", "5221029a9c1172ea55bc29cd6ca94b94b1c48bcb90f2307aa1235d4757c43086ff1d3a21033e4af03ed09dbd8a417ba042650d5bd1db7f14f271a8f660974e3abf1fdfa4da52ae"], "sequence": 4294967295, "scriptSig": {"hex": "22002074f88c5d8cdfd210d10ed4869c1e3ccced4208dab3e51b1822093d13edac2daf", "asm": "002074f88c5d8cdfd210d10ed4869c1e3ccced4208dab3e51b1822093d13edac2daf"}, "vout": 0, "txid": "cc51e74900543132dd8d8692c9c088bdb26ae068f0a426b2b40bdb5078f82d78"}, {"txinwitness": ["", "3045022100a0c560a12596eacdeff42b0bb145826fc1614036eb72127abf07f40157061a400220742d23a42bd0e97222527fd57af4e557563f15e5ff879e9b51211ba8cae3b1f401", "3044022062decad85d1253624fe6f0865ab019e47b406233d9ff3e0bb81d3b116033f80a022019c9685f73a4630eb4d8a6b61e9b2a6af34993f2f3e424ddba19daaf7398a26901", "522102239839c9789766265eb619f6ccb59405051cae7af2f614caa7cec3e46a60dad621033e4af03ed09dbd8a417ba042650d5bd1db7f14f271a8f660974e3abf1fdfa4da52ae"], "sequence": 4294967295, "scriptSig": {"hex": "22002034aaef9c9994598a1eb3295ab207ec12fdf8aea60cb6d92fcdc43beb11c9e124", "asm": "002034aaef9c9994598a1eb3295ab207ec12fdf8aea60cb6d92fcdc43beb11c9e124"}, "vout": 4, "txid": "81dc9cee495fee00187aa70db5e398e3ae565abad7a6532d2ea83cc8c0a7706a"}, {"txinwitness": ["", "304402206347ce01ea7bbd01efb2d7cdc092f6c84ae74d67ee20c9c3f0f0e2bc098c3b10022021157102e45a32ee9f2801e2ba16d8977125ee29ffd81188facc331e55e8ba7a01", "30450221008b6b2f223bd8af5368dbb2631b1f6cfc9859b2936060141d81edc5d1794aab4e02207d68a0de12f9f1649917903f7f5ffc73088535ebafd9e132c950572e1e963eed01", "5221031ab96f160236351bea7ed062fe0fc1ccc550f1555beaba659f5e69bfc741bb9d21033e4af03ed09dbd8a417ba042650d5bd1db7f14f271a8f660974e3abf1fdfa4da52ae"], "sequence": 4294967295, "scriptSig": {"hex": "220020848e70bc41fa658f3f25c9de3f43a9424bb809a228486e0d5c83017f8f99aab3", "asm": "0020848e70bc41fa658f3f25c9de3f43a9424bb809a228486e0d5c83017f8f99aab3"}, "vout": 0, "txid": "366ba9d8ef9801b1e3ca19898fc78de5b46049fb0dac698b9c2f407144b6210b"}, {"txinwitness": ["", "30440220470f601fcde1e6dc3928cf979a416cc669d0b14a84bdec16d0e4346e9bafd5c802205d4f5255c23dafa46cc1a24a30d563d7ff1905ad1aab61a1e9206accf93ad3f301", "3045022100aaf05f9a83cee553a64f2fd39f87ccfb8794585b5fc8481182aca6c1e030ea71022032468e1ef75cc80fefbea8d87f540a09ad12c8971f6814e8f04b527f854d2f6c01", "522102aa6b80efc59f84780363835d93f467de8f4ea12613c326f34b850e999a9f347d21033e4af03ed09dbd8a417ba042650d5bd1db7f14f271a8f660974e3abf1fdfa4da52ae"], "sequence": 4294967295, "scriptSig": {"hex": "220020525b58a1198374d94aeb74195fd25a94b1d7063c510f9894a46f895743580fbf", "asm": "0020525b58a1198374d94aeb74195fd25a94b1d7063c510f9894a46f895743580fbf"}, "vout": 4, "txid": "95b11bf4b1bd7b6301b2aafa31a0a6d5c230d7ef9145a41f89c145db3996ef96"}, {"txinwitness": ["", "30450221008533891c2441ad9215ad156f74b9aaffb62739bc7b095e25052f2c916efcc30002203cecd2583aa87b2097a04764327ac00000df0f1bd52406d2ea77ca07f703411101", "3045022100de6a9b0bf9de6b5f9aeac0cd0e39b2609145b79bfdfbdf64b22605a40fec665a02203c7ed4594eab8210beda29e77ad30ce14720c4ec395cdb324b4b3f67f1d6e1ba01", "522103289220731ccfff0094408674ce3484eb894dddecfab339961892535c0138cbe621033e4af03ed09dbd8a417ba042650d5bd1db7f14f271a8f660974e3abf1fdfa4da52ae"], "sequence": 4294967295, "scriptSig": {"hex": "220020f212e0c80105f30c9ef813cd86c9596aafcb46586661264da9fc505e09e23362", "asm": "0020f212e0c80105f30c9ef813cd86c9596aafcb46586661264da9fc505e09e23362"}, "vout": 1, "txid": "710edc842cfd03b6f80a2df93819adb04da26b99e8a0841f3cecee5eae9b8ed8"}, {"txinwitness": ["", "3045022100f8dfc571ab3e01c7cd9db32c0d82b627620c85fdb12cfb65a210d3279935080e02200093d4624b1fcddf86e56416932a4e5010d0e99d64263c3e9c5cc6446c13b7fc01", "3045022100ca100d1055af5a7d455be329b034bbaff781ac41c3e50106c7032979b5bb1f5e022028cabf42a7c81eb9c4c5ca65437e87654db7ed86e3707a3ad76238f6a425175901", "522103edf9ba024fbcec271ce88e52854af00ffbac496d8a457322d4f0076c41f8c8ef21033e4af03ed09dbd8a417ba042650d5bd1db7f14f271a8f660974e3abf1fdfa4da52ae"], "sequence": 4294967295, "scriptSig": {"hex": "2200200132db476c7e556cdfdee35d3929f9deb77ae8843b3a5dfc1b1200715b58935d", "asm": "00200132db476c7e556cdfdee35d3929f9deb77ae8843b3a5dfc1b1200715b58935d"}, "vout": 1, "txid": "63c0ba4d264888f419d59f11640202024b1528d9fb62a682326c1b4b8673926e"}, {"txinwitness": ["", "3045022100924c1fb21288307149986d032fdc6592323a4a08bc84becfc94c3540197de57702201d774531d981f650c8e5485df79eb5b3d158be063cac12d7ed93365b9bc812dc01", "3045022100f8a32a0405f26945bc77120557a9c90859c46a2fa2f729ee710399b23717640802207f70103939dd19b98b933903866d0a1a470c9197bd7cade0ecdb6dd81ad12dea01", "522103c347d860c1901b68ed65caa7bfbc1ac56368fd1fc2c30c4643f60eda6149817321033e4af03ed09dbd8a417ba042650d5bd1db7f14f271a8f660974e3abf1fdfa4da52ae"], "sequence": 4294967295, "scriptSig": {"hex": "22002080b302f942047e0093fc536eecfc421f46898dec637ed6bcbfb0246c0f3ae8a7", "asm": "002080b302f942047e0093fc536eecfc421f46898dec637ed6bcbfb0246c0f3ae8a7"}, "vout": 1, "txid": "e6a2c3f454fc07f20e52f60ff85379897d024e1afe425d07f35c4cbd7d4bbca2"}, {"txinwitness": ["", "3045022100d92515dc9d8fac82b9ffa0b21292ca1b388b61e73084c05ba66b3d5e46daa71a022020660b1ac4844baab3039082624f2a4a2bfe145b1398025c08060dca4e7d9f3f01", "30440220313bd4a84583fbe0cbab5c771a665afeeb1092c6e5b0f041690fa16cd6a22c20022012bb218a53baad7170856a56d7d9ffae08b78d5aeda7166c561b9ceb1a153bca01", "522103b168da0c68cb3eb86ab0f7f3b3f8e5a8d6f6cc70b34e1e777a3c720103da618921033e4af03ed09dbd8a417ba042650d5bd1db7f14f271a8f660974e3abf1fdfa4da52ae"], "sequence": 4294967295, "scriptSig": {"hex": "2200200615bcdfc01510c9a6f3e4405d4662ca94443a8433f48faf4c8f70ad95435919", "asm": "00200615bcdfc01510c9a6f3e4405d4662ca94443a8433f48faf4c8f70ad95435919"}, "vout": 1, "txid": "27907a16920d74884e4a16cead9cc917110d421c1fac88821b79dc87f756511c"}, {"txinwitness": ["", "3045022100f58f169c2b013b287ad568bcc0f557cb387888cfc1070f43b517a938ded8a93a022044cd96cb36f6da8d222b8b317be07f9a43630b283b805d677e566e971dfbc91a01", "304402205cf2467864d8012105560c140dcabd5db0d5525180f2f9436903ebc6aac2006102202936e8eb619596f2d4d8bebb3f84bc31cc7734c2dd6e9af1a7c42322b819b2b201", "5221030cb464f752f4eaed5ecede362e6522ff704c007777393231b77480a069cc937921033e4af03ed09dbd8a417ba042650d5bd1db7f14f271a8f660974e3abf1fdfa4da52ae"], "sequence": 4294967295, "scriptSig": {"hex": "220020ebd4338a7b049bb50be6ec68a29104c65d0c6363ee12b410435136ccf799655c", "asm": "0020ebd4338a7b049bb50be6ec68a29104c65d0c6363ee12b410435136ccf799655c"}, "vout": 1, "txid": "86cd79a75db7ce93c65e1bf78cf87b693815e348cfb9a1ec33edd5569313c290"}, {"txinwitness": ["", "3045022100e6cdda1aa616fdbbd8f52f595a4197a714347e6f2edb3686d9ddeefb29a68164022061303ba7f0948e1d1e7939d934c7a4c20bf895922133bdacc63f90d01358926101", "3045022100b153b0eeb3f73caee7f472f77105d30f102b256af3ac04620a5b468ab7e15764022019485103689d4edcca477a3685e796556e09f5eccf4e938c53f02edc18ce799201", "522102428952fa4396d19a3b997b4fec382509a49c47750c262fd9d4be01e438b8346e21033e4af03ed09dbd8a417ba042650d5bd1db7f14f271a8f660974e3abf1fdfa4da52ae"], "sequence": 4294967295, "scriptSig": {"hex": "220020f33e1e27abe1f746adc4daeb500326026481c77e14a40af05bdfd386e5fdfa2a", "asm": "0020f33e1e27abe1f746adc4daeb500326026481c77e14a40af05bdfd386e5fdfa2a"}, "vout": 1, "txid": "15bc2895cf8c1b36d130665f237286cd205ff66dc5bbf08679ad1e82ebbb9201"}], "txid": "1353633e972111c7397d053946331a54206488c64f715c70aad8dee7b41e5486", "blocktime": 1537869901, "version": 1, "confirmations": 11524, "time": 1537869901, "locktime": 0, "vsize": 1383, "size": 3030}