{"hash": "87ddaa349c12fc29583fda855720ba887228346ca6b7cf39e4ad7dcd97c12d96", "blockhash": "0000000000000000000e13cef7c366c0283d82e591d1acd082e914b08063cdf1", "vout": [{"scriptPubKey": {"reqSigs": 1, "hex": "a9140e6aeaac4efd0026cf214371e739f2ba9c0c6ee187", "addresses": ["331FTvyL3xHi46CVtniKiWeELzN9QtvxfK"], "asm": "OP_HASH160 0e6aeaac4efd0026cf214371e739f2ba9c0c6ee1 OP_EQUAL", "type": "scripthash"}, "value": 0.00909507, "n": 0}, {"scriptPubKey": {"reqSigs": 1, "hex": "0014a4aa5bce296bee792e6be2f2df46cf90aa43ccbc", "addresses": ["bc1q5j49hn3fd0h8jtntuted73k0jz4y8n9urdezmq"], "asm": "0 a4aa5bce296bee792e6be2f2df46cf90aa43ccbc", "type": "witness_v0_keyhash"}, "value": 0.00258918, "n": 1}], "hex": "01000000000101be7b504974a6337225d8a590f8ee6d01f0215333f710e92fee178c3d3dbd129800000000171600142b53f70aec901748d64147221bbbe020eeb6f599ffffffff02c3e00d000000000017a9140e6aeaac4efd0026cf214371e739f2ba9c0c6ee18766f3030000000000160014a4aa5bce296bee792e6be2f2df46cf90aa43ccbc02483045022100f231704fca112141ff9cab68dadf999d83e446c9e75ab8357070dc1ccb61d275022016dbe84ed0eae02f6704d8f3abf589f5791b1b0f6955355c8916c34961d50609012102814caf41183eb17b7bb971f3c3cda02cfa5b2f63f2c7ab755cc75f2e670bd60f00000000", "vin": [{"txinwitness": ["3045022100f231704fca112141ff9cab68dadf999d83e446c9e75ab8357070dc1ccb61d275022016dbe84ed0eae02f6704d8f3abf589f5791b1b0f6955355c8916c34961d5060901", "02814caf41183eb17b7bb971f3c3cda02cfa5b2f63f2c7ab755cc75f2e670bd60f"], "sequence": 4294967295, "scriptSig": {"hex": "1600142b53f70aec901748d64147221bbbe020eeb6f599", "asm": "00142b53f70aec901748d64147221bbbe020eeb6f599"}, "vout": 0, "txid": "9812bd3d3d8c17ee2fe910f7335321f0016deef890a5d8257233a67449507bbe"}], "txid": "13595cc6ce47c659b5c4efe4af1fc9f6c444803a320935d0e1fdaa408bd35d8d", "blocktime": 1537871767, "version": 1, "confirmations": 11495, "time": 1537871767, "locktime": 0, "vsize": 165, "size": 247}