{"hash": "1364d01cc52acf5aa83c358e62f7a20751e2c302f83ea084d2f04a88e81acf4b", "blockhash": "00000000000000000024a2167bbff67b0be802c0b01cdd79e6331c2be6459f87", "vout": [{"scriptPubKey": {"reqSigs": 1, "hex": "76a9149393a77951d54f463fad02fe577723fdf569870488ac", "addresses": ["1ETKDPm1Nmna4NbnnaEDjxnbYtaw8DAbjk"], "asm": "OP_DUP OP_HASH160 9393a77951d54f463fad02fe577723fdf5698704 OP_EQUALVERIFY OP_CHECKSIG", "type": "pubkeyhash"}, "value": 0.0023435, "n": 0}, {"scriptPubKey": {"reqSigs": 1, "hex": "76a914ba978148392f0d793d8fbd4ac3b689e1a3197cd688ac", "addresses": ["1J1cBS7Yh3dKXK22tighB8p6RSFaAK8oWt"], "asm": "OP_DUP OP_HASH160 ba978148392f0d793d8fbd4ac3b689e1a3197cd6 OP_EQUALVERIFY OP_CHECKSIG", "type": "pubkeyhash"}, "value": 0.01764972, "n": 1}], "hex": "010000000155d18d926ed67b5adb5227ab5cb3e6b5c9a4e8ac540bdb8145759a9c73d42388110000006a473044022071a7085ac168d9243e13a254cc1cfbf9cc14ebb5cbee612455f78b3cd301a4f502205d68082ef1c253503e9aac7643c7dcc2038e5748376a913b1d7b68f93ed8d6aa012102c6460661eb53d062dc06de12ce8ff04edf50d5d361f5e68bb0f9c1f5e361c13effffffff026e930300000000001976a9149393a77951d54f463fad02fe577723fdf569870488ac6cee1a00000000001976a914ba978148392f0d793d8fbd4ac3b689e1a3197cd688ac00000000", "vin": [{"sequence": 4294967295, "scriptSig": {"hex": "473044022071a7085ac168d9243e13a254cc1cfbf9cc14ebb5cbee612455f78b3cd301a4f502205d68082ef1c253503e9aac7643c7dcc2038e5748376a913b1d7b68f93ed8d6aa012102c6460661eb53d062dc06de12ce8ff04edf50d5d361f5e68bb0f9c1f5e361c13e", "asm": "3044022071a7085ac168d9243e13a254cc1cfbf9cc14ebb5cbee612455f78b3cd301a4f502205d68082ef1c253503e9aac7643c7dcc2038e5748376a913b1d7b68f93ed8d6aa[ALL] 02c6460661eb53d062dc06de12ce8ff04edf50d5d361f5e68bb0f9c1f5e361c13e"}, "vout": 17, "txid": "8823d4739c9a754581db0b54ace8a4c9b5e6b35cab2752db5a7bd66e928dd155"}], "txid": "1364d01cc52acf5aa83c358e62f7a20751e2c302f83ea084d2f04a88e81acf4b", "blocktime": 1537870564, "version": 1, "confirmations": 11515, "time": 1537870564, "locktime": 0, "vsize": 225, "size": 225}