{"hash": "53b46279c333ea9497c2629a6620c1d55e92f246b1a495aaecf815648d4a487c", "blockhash": "00000000000000000018f53835495a110e01622372bf6ae95dc86f2b0ab887b0", "vout": [{"scriptPubKey": {"reqSigs": 1, "hex": "a9140268f0d27c0d6519b27df09dba54f41602ecec6187", "addresses": ["31ukzLSCUMphvftfrpqQ5qxUoysNL3QD7d"], "asm": "OP_HASH160 0268f0d27c0d6519b27df09dba54f41602ecec61 OP_EQUAL", "type": "scripthash"}, "value": 5.69898959, "n": 0}, {"scriptPubKey": {"reqSigs": 1, "hex": "76a9148e964555994c28467e55e56dce491927fff36b5c88ac", "addresses": ["1DzvyExs4Y9DbZ8bjmcqrGXYc9RR1gyTxE"], "asm": "OP_DUP OP_HASH160 8e964555994c28467e55e56dce491927fff36b5c OP_EQUALVERIFY OP_CHECKSIG", "type": "pubkeyhash"}, "value": 0.01, "n": 1}], "hex": "02000000000101e55a75e45684b12cb4e66d04f0f56b48b015de965dfedac485a99ae2d6a3df660000000017160014ca5d4c167cf12094510f0e8ef5d34ec816c72ce3feffffff02cff7f7210000000017a9140268f0d27c0d6519b27df09dba54f41602ecec618740420f00000000001976a9148e964555994c28467e55e56dce491927fff36b5c88ac0247304402202056a45b933778c6827bcd69e49a4722437920d847f1e584e7b9a68d2d4690dd02205e3b511a78e604ab6567dbbea33c5e4867d6231c0df2e48dafb46bc99563be8e0121031e67f423dcc0035452907289cd63d488f85af67268b2e3ad5fa9af4b4a3652de0e490800", "vin": [{"txinwitness": ["304402202056a45b933778c6827bcd69e49a4722437920d847f1e584e7b9a68d2d4690dd02205e3b511a78e604ab6567dbbea33c5e4867d6231c0df2e48dafb46bc99563be8e01", "031e67f423dcc0035452907289cd63d488f85af67268b2e3ad5fa9af4b4a3652de"], "sequence": 4294967294, "scriptSig": {"hex": "160014ca5d4c167cf12094510f0e8ef5d34ec816c72ce3", "asm": "0014ca5d4c167cf12094510f0e8ef5d34ec816c72ce3"}, "vout": 0, "txid": "66dfa3d6e29aa985c4dafe5d96de15b0486bf5f0046de6b42cb18456e4755ae5"}], "txid": "136764a2f34d2d3920e0c74f57677594bb4810f4ca4e5ca6f83eca124eb1325a", "blocktime": 1537870928, "version": 2, "confirmations": 11514, "time": 1537870928, "locktime": 542990, "vsize": 168, "size": 249}