{"hash": "1367d28825c6a262edee92d40a340d0ab084e05ee79b9dc2cd5d7269cc89882f", "blockhash": "0000000000000000000e13cef7c366c0283d82e591d1acd082e914b08063cdf1", "vout": [{"scriptPubKey": {"reqSigs": 1, "hex": "76a914ad7433ff5b369ff9660eb6c877d9a9793a99a45f88ac", "addresses": ["1Gp977zsQXYnTBFjLAQQn5DnZ5BRU4Tj3M"], "asm": "OP_DUP OP_HASH160 ad7433ff5b369ff9660eb6c877d9a9793a99a45f OP_EQUALVERIFY OP_CHECKSIG", "type": "pubkeyhash"}, "value": 0.00643794, "n": 0}, {"scriptPubKey": {"type": "nulldata", "hex": "6a4c50000077960001707e7f00412517504352f169e3ef3236678a625097bcbefa6b8351586b4e56323c2670eee68107faace4a0598c885baa0d140614cf6593aac1211d100759d4ba30d2c37bb011d97e02cf", "asm": "OP_RETURN 000077960001707e7f00412517504352f169e3ef3236678a625097bcbefa6b8351586b4e56323c2670eee68107faace4a0598c885baa0d140614cf6593aac1211d100759d4ba30d2c37bb011d97e02cf"}, "value": 0.0, "n": 1}], "hex": "0100000001409eeb95179d2684036bb32fd38bbf6873e1b8d5561a63d3e6d2b8da9195b86d000000006a473044022007acba1d223fb8dcb668023c03fa2196df3400dd4b06915c32801067fc4eaa8202205a2a8d4f8cccf012cb92eb4e79ccc74fa013684ff8ec09a46916d8a5330a29b901210346965c0e6058c4f706a89e30b6228ad919c684ac202dad59463b3618a02c9ff0ffffffff02d2d20900000000001976a914ad7433ff5b369ff9660eb6c877d9a9793a99a45f88ac0000000000000000536a4c50000077960001707e7f00412517504352f169e3ef3236678a625097bcbefa6b8351586b4e56323c2670eee68107faace4a0598c885baa0d140614cf6593aac1211d100759d4ba30d2c37bb011d97e02cf00000000", "vin": [{"sequence": 4294967295, "scriptSig": {"hex": "473044022007acba1d223fb8dcb668023c03fa2196df3400dd4b06915c32801067fc4eaa8202205a2a8d4f8cccf012cb92eb4e79ccc74fa013684ff8ec09a46916d8a5330a29b901210346965c0e6058c4f706a89e30b6228ad919c684ac202dad59463b3618a02c9ff0", "asm": "3044022007acba1d223fb8dcb668023c03fa2196df3400dd4b06915c32801067fc4eaa8202205a2a8d4f8cccf012cb92eb4e79ccc74fa013684ff8ec09a46916d8a5330a29b9[ALL] 0346965c0e6058c4f706a89e30b6228ad919c684ac202dad59463b3618a02c9ff0"}, "vout": 0, "txid": "6db89591dab8d2e6d3631a56d5b8e17368bf8bd32fb36b0384269d1795eb9e40"}], "txid": "1367d28825c6a262edee92d40a340d0ab084e05ee79b9dc2cd5d7269cc89882f", "blocktime": 1537871767, "version": 1, "confirmations": 11495, "time": 1537871767, "locktime": 0, "vsize": 283, "size": 283}