{"hash": "1368c438836ced4088aaa7c81736600c0e26d3f4def73089a7547439e6dfece1", "blockhash": "00000000000000000018f53835495a110e01622372bf6ae95dc86f2b0ab887b0", "vout": [{"scriptPubKey": {"reqSigs": 1, "hex": "76a914ee7b1b29157b26cab1b6e9c40520ff5998bb370d88ac", "addresses": ["1NjyJDbPXFmCaUnk3z89CWcTGwpqdMZCXX"], "asm": "OP_DUP OP_HASH160 ee7b1b29157b26cab1b6e9c40520ff5998bb370d OP_EQUALVERIFY OP_CHECKSIG", "type": "pubkeyhash"}, "value": 0.0161086, "n": 0}], "hex": "01000000018afb83d44ed8a27f50b517e5fe8fd8def2b0c59c0714d326489943c2859c3429010000006b48304502210088724fc76ca844c5d22eb56689b3323c445c1658216272237dab5ca9007feef602203b1dcb92359f97ea57334350e1d1b5ab4e9e2e30803efd42147bc490e2f0a69501210354abb8e08670edc4b6ac85ce0ef6218b6a889dbeb698131d01c09bf005debcf8ffffffff016c941800000000001976a914ee7b1b29157b26cab1b6e9c40520ff5998bb370d88ac00000000", "vin": [{"sequence": 4294967295, "scriptSig": {"hex": "48304502210088724fc76ca844c5d22eb56689b3323c445c1658216272237dab5ca9007feef602203b1dcb92359f97ea57334350e1d1b5ab4e9e2e30803efd42147bc490e2f0a69501210354abb8e08670edc4b6ac85ce0ef6218b6a889dbeb698131d01c09bf005debcf8", "asm": "304502210088724fc76ca844c5d22eb56689b3323c445c1658216272237dab5ca9007feef602203b1dcb92359f97ea57334350e1d1b5ab4e9e2e30803efd42147bc490e2f0a695[ALL] 0354abb8e08670edc4b6ac85ce0ef6218b6a889dbeb698131d01c09bf005debcf8"}, "vout": 1, "txid": "29349c85c243994826d314079cc5b0f2ded88ffee517b5507fa2d84ed483fb8a"}], "txid": "1368c438836ced4088aaa7c81736600c0e26d3f4def73089a7547439e6dfece1", "blocktime": 1537870928, "version": 1, "confirmations": 11512, "time": 1537870928, "locktime": 0, "vsize": 192, "size": 192}