{"hash": "b1ce1fd8bce7eb5c7c13c2f70846cb11f4c02b5497457ae5416d3136e4683d6a", "blockhash": "0000000000000000001cda96e906b7601b7a6fb1a3b62bca570a9e5d8f4b3de1", "vout": [{"scriptPubKey": {"reqSigs": 1, "hex": "a914fe56dc36260fd9ced4f50e3e0b566f1a434f9ffa87", "addresses": ["3QsqcRPPjMyeAZQrMBWZ3sP8EnjQQCXrNc"], "asm": "OP_HASH160 fe56dc36260fd9ced4f50e3e0b566f1a434f9ffa OP_EQUAL", "type": "scripthash"}, "value": 0.001245, "n": 0}, {"scriptPubKey": {"reqSigs": 1, "hex": "a9141c58afe60cca89be250d48f71a2d270167c2b52287", "addresses": ["34Gu618RP8o29haYsmAsfXcmi1QNFekr4L"], "asm": "OP_HASH160 1c58afe60cca89be250d48f71a2d270167c2b522 OP_EQUAL", "type": "scripthash"}, "value": 0.16094976, "n": 1}], "hex": "01000000000101be9304c4d18704c77b0b762ff54446d5347d74bd9ae042701f3a67ed634bde4a0000000023220020723b372570ee5b3bccebe490ea79df690f96d90871f208ded6ea07faabe34343ffffffff0254e601000000000017a914fe56dc36260fd9ced4f50e3e0b566f1a434f9ffa870097f5000000000017a9141c58afe60cca89be250d48f71a2d270167c2b52287040047304402201e7c82a8729b0fc60c1d842966ba2132385ae89658c764b582a4f1acffa4470402203ed94dde4fe90cdc59bbbe189bdc9f94d36e466f9e1df715dd571dbb3992f48c014830450221008341a49e378925725d2fcfb5d8db9f05f6cb0514223bc79c17772c9f59421595022073196b3851c38cac4de7a80cca8b31ad27c96b47eb07798145a47ac16b63245b016952210203c4df62672ffc7cdd8ba666dee1f1b5a2b0c5457756991c609cd8afc66d37052103179aebb7cb5b595b223d86e5f09bdecf22bcb8e7355f79191a1a4108790ca1be21031fa47733b7bbf75a565a52b0efffe1660848ad21a3a1b46c28d1e6a66f50336653ae00000000", "vin": [{"txinwitness": ["", "304402201e7c82a8729b0fc60c1d842966ba2132385ae89658c764b582a4f1acffa4470402203ed94dde4fe90cdc59bbbe189bdc9f94d36e466f9e1df715dd571dbb3992f48c01", "30450221008341a49e378925725d2fcfb5d8db9f05f6cb0514223bc79c17772c9f59421595022073196b3851c38cac4de7a80cca8b31ad27c96b47eb07798145a47ac16b63245b01", "52210203c4df62672ffc7cdd8ba666dee1f1b5a2b0c5457756991c609cd8afc66d37052103179aebb7cb5b595b223d86e5f09bdecf22bcb8e7355f79191a1a4108790ca1be21031fa47733b7bbf75a565a52b0efffe1660848ad21a3a1b46c28d1e6a66f50336653ae"], "sequence": 4294967295, "scriptSig": {"hex": "220020723b372570ee5b3bccebe490ea79df690f96d90871f208ded6ea07faabe34343", "asm": "0020723b372570ee5b3bccebe490ea79df690f96d90871f208ded6ea07faabe34343"}, "vout": 0, "txid": "4ade4b63ed673a1f7042e09abd747d34d54644f52f760b7bc70487d1c40493be"}], "txid": "136ba3b9e0e93e1f777f8b54f1f452efd8811e5ddf49b94d0b37499d4a7f31d0", "blocktime": 1537873282, "version": 1, "confirmations": 11485, "time": 1537873282, "locktime": 0, "vsize": 214, "size": 405}