{"hash": "a53cef4b8bad8779dd025ef4cc8470508cae59d955e7a18acdcd7d4fe4d28428", "blockhash": "0000000000000000000e13cef7c366c0283d82e591d1acd082e914b08063cdf1", "vout": [{"scriptPubKey": {"reqSigs": 1, "hex": "001433a3613929e07b8edc5c6ebc6fcc0dede0ecd447", "addresses": ["bc1qxw3kzwffupacahzud67xlnqdahswe4z8xcmln4"], "asm": "0 33a3613929e07b8edc5c6ebc6fcc0dede0ecd447", "type": "witness_v0_keyhash"}, "value": 0.46662571, "n": 0}, {"scriptPubKey": {"reqSigs": 1, "hex": "76a9147d673888288177657f7e8181b5df77a9dd78a5f488ac", "addresses": ["1CS57tV1b5Bj5r8JNb8rPwiKd59Yz1phkS"], "asm": "OP_DUP OP_HASH160 7d673888288177657f7e8181b5df77a9dd78a5f4 OP_EQUALVERIFY OP_CHECKSIG", "type": "pubkeyhash"}, "value": 0.08770122, "n": 1}], "hex": "010000000001016da182548f860838429cc62a41438caf54383e7ca8b50b5e6ae0b7112b7cbc810000000000ffffffff02ab03c8020000000016001433a3613929e07b8edc5c6ebc6fcc0dede0ecd4474ad28500000000001976a9147d673888288177657f7e8181b5df77a9dd78a5f488ac02483045022100e2eaad23dc480bac42a8ad6b4740219d9fb833b3011c42abd16f0a9e2719c5b7022026d2c8ef7b8afb9f666547e09c77ea79bbdc914f64a22523e5318bd0c83ba730012102bba0db07b349a9edb6082aa553a991a8ee487d679cd08fe2522e564704493e1700000000", "vin": [{"txinwitness": ["3045022100e2eaad23dc480bac42a8ad6b4740219d9fb833b3011c42abd16f0a9e2719c5b7022026d2c8ef7b8afb9f666547e09c77ea79bbdc914f64a22523e5318bd0c83ba73001", "02bba0db07b349a9edb6082aa553a991a8ee487d679cd08fe2522e564704493e17"], "sequence": 4294967295, "scriptSig": {"hex": "", "asm": ""}, "vout": 0, "txid": "81bc7c2b11b7e06a5e0bb5a87c3e3854af8c43412ac69c423808868f5482a16d"}], "txid": "137e64568b7a4e32bc7a9ed6e5ea4c37ec01dda62b73840206ec804e5a71f2de", "blocktime": 1537871767, "version": 1, "confirmations": 11495, "time": 1537871767, "locktime": 0, "vsize": 144, "size": 226}