{"hash": "138697a28acec14a10a9fa9a697927aea1191e14f8b7ba6ce4ef4a3dc8857c4c", "blockhash": "0000000000000000001cda96e906b7601b7a6fb1a3b62bca570a9e5d8f4b3de1", "vout": [{"scriptPubKey": {"reqSigs": 1, "hex": "76a914e43973c7f726bbe785cb9fe8cb86bd16d2b7ee8288ac", "addresses": ["1MojtbHFBPV1gYeVHEZBm3Q4JmzWWxCd88"], "asm": "OP_DUP OP_HASH160 e43973c7f726bbe785cb9fe8cb86bd16d2b7ee82 OP_EQUALVERIFY OP_CHECKSIG", "type": "pubkeyhash"}, "value": 0.00908812, "n": 0}, {"scriptPubKey": {"reqSigs": 1, "hex": "76a914e1c01fb9bca4d6ff5ffaed1b941402be1f00eb0e88ac", "addresses": ["1MafCAeh56kXedD4tCuF6SfShQ532xAZLH"], "asm": "OP_DUP OP_HASH160 e1c01fb9bca4d6ff5ffaed1b941402be1f00eb0e OP_EQUALVERIFY OP_CHECKSIG", "type": "pubkeyhash"}, "value": 0.01011046, "n": 1}], "hex": "0100000001ed24bf93b3a1fa87bd0a915faf7bd6d898c4cd9634f8c96ab41bf327cc33f0f63e0100006b483045022100c17670d03291a20d405fb7a8e8db243aa19144d2dc7edd311dd24004e04b0fd8022013efc4a443e1dcf78132e3471b083b1693865ebed3f8f37d68b409dca881e6900121028a0d2c68cd48d7da656413f8e46eabf61f2e56b92885f4811ba7069fdb4e56b5ffffffff020cde0d00000000001976a914e43973c7f726bbe785cb9fe8cb86bd16d2b7ee8288ac666d0f00000000001976a914e1c01fb9bca4d6ff5ffaed1b941402be1f00eb0e88ac00000000", "vin": [{"sequence": 4294967295, "scriptSig": {"hex": "483045022100c17670d03291a20d405fb7a8e8db243aa19144d2dc7edd311dd24004e04b0fd8022013efc4a443e1dcf78132e3471b083b1693865ebed3f8f37d68b409dca881e6900121028a0d2c68cd48d7da656413f8e46eabf61f2e56b92885f4811ba7069fdb4e56b5", "asm": "3045022100c17670d03291a20d405fb7a8e8db243aa19144d2dc7edd311dd24004e04b0fd8022013efc4a443e1dcf78132e3471b083b1693865ebed3f8f37d68b409dca881e690[ALL] 028a0d2c68cd48d7da656413f8e46eabf61f2e56b92885f4811ba7069fdb4e56b5"}, "vout": 318, "txid": "f6f033cc27f31bb46ac9f83496cdc498d8d67baf5f910abd87faa1b393bf24ed"}], "txid": "138697a28acec14a10a9fa9a697927aea1191e14f8b7ba6ce4ef4a3dc8857c4c", "blocktime": 1537873282, "version": 1, "confirmations": 11485, "time": 1537873282, "locktime": 0, "vsize": 226, "size": 226}