{"hash": "1387cebb6c6f20eeff326646022ea9c4d002b0772fdcfe53680b28738cf0b0b0", "blockhash": "0000000000000000000baef3f32e3676a92c3b2e5da21b426e4f302fc371ce76", "vout": [{"scriptPubKey": {"type": "nulldata", "hex": "6a4c500000782c0001fcfeadaa728f5215ef12a2dc27b7256b4774d339f6019d6ddc0f1b8ff1172c36cb050dad65be226da76cb408f2565baa1f120614ffc1f48162dd1d100759d4ba30d2c37bb011d97e02cf", "asm": "OP_RETURN 0000782c0001fcfeadaa728f5215ef12a2dc27b7256b4774d339f6019d6ddc0f1b8ff1172c36cb050dad65be226da76cb408f2565baa1f120614ffc1f48162dd1d100759d4ba30d2c37bb011d97e02cf"}, "value": 0.0, "n": 0}, {"scriptPubKey": {"reqSigs": 1, "hex": "76a914d14af7ef416a4dab7170bcc0df76458f6aa2610988ac", "addresses": ["1L5e2zhkobMDyjRfvpkBg65YAXHz2VejQ9"], "asm": "OP_DUP OP_HASH160 d14af7ef416a4dab7170bcc0df76458f6aa26109 OP_EQUALVERIFY OP_CHECKSIG", "type": "pubkeyhash"}, "value": 0.0063196, "n": 1}], "hex": "01000000014e29fc55b4a9877a63740871e83ca7548670ce8a7d66e7ecec30bd4d314b9910010000006a47304402203ec73016c9b9bb5a5c675be83a31e58213f9f49b0663e60e827afb64f1c0d1d20220773d65ff04cc686e3140a709389a8ff313b4ca63e9ebf8475662905638d29931012102979e775a5641527583cbe7aac5053fb884c970b272cad98743a94dee1e54f6fdffffffff020000000000000000536a4c500000782c0001fcfeadaa728f5215ef12a2dc27b7256b4774d339f6019d6ddc0f1b8ff1172c36cb050dad65be226da76cb408f2565baa1f120614ffc1f48162dd1d100759d4ba30d2c37bb011d97e02cf98a40900000000001976a914d14af7ef416a4dab7170bcc0df76458f6aa2610988ac00000000", "vin": [{"sequence": 4294967295, "scriptSig": {"hex": "47304402203ec73016c9b9bb5a5c675be83a31e58213f9f49b0663e60e827afb64f1c0d1d20220773d65ff04cc686e3140a709389a8ff313b4ca63e9ebf8475662905638d29931012102979e775a5641527583cbe7aac5053fb884c970b272cad98743a94dee1e54f6fd", "asm": "304402203ec73016c9b9bb5a5c675be83a31e58213f9f49b0663e60e827afb64f1c0d1d20220773d65ff04cc686e3140a709389a8ff313b4ca63e9ebf8475662905638d29931[ALL] 02979e775a5641527583cbe7aac5053fb884c970b272cad98743a94dee1e54f6fd"}, "vout": 1, "txid": "10994b314dbd30ecece7667d8ace708654a73ce8710874637a87a9b455fc294e"}], "txid": "1387cebb6c6f20eeff326646022ea9c4d002b0772fdcfe53680b28738cf0b0b0", "blocktime": 1537876114, "version": 1, "confirmations": 11460, "time": 1537876114, "locktime": 0, "vsize": 283, "size": 283}