{"hash": "7354a0ecd55b83ce595ed580f42b52dde198007ba0c9ec0763eaa9790c91cb4a", "blockhash": "0000000000000000000dcc0f55137456b1a82d3642486a52398922ac4d620174", "vout": [{"scriptPubKey": {"reqSigs": 1, "hex": "a914bd3049e5cb6bc1967cc924ffcfd0163f5eae7a4587", "addresses": ["3JwMUxLDBNvCg27eRXSy5eAHxciMuoDVhH"], "asm": "OP_HASH160 bd3049e5cb6bc1967cc924ffcfd0163f5eae7a45 OP_EQUAL", "type": "scripthash"}, "value": 0.03103872, "n": 0}, {"scriptPubKey": {"reqSigs": 1, "hex": "a914662808cf2df42ebe58e84e3e13b64386129d350287", "addresses": ["3B1AokTf27mLHuMMiykHJ8MynvNfKJaj8R"], "asm": "OP_HASH160 662808cf2df42ebe58e84e3e13b64386129d3502 OP_EQUAL", "type": "scripthash"}, "value": 0.00999423, "n": 1}], "hex": "02000000000106623b9973cfa00d47348c8820247bbd38ee04c324848ab324b9063cf75db90340000000001716001424861e1398b2980e2d1d4368cf000d7e37246ac2feffffff8945bbf5b4a9d0964320b6e5042ec6c2c5ecf846319e8a471d95d5b30901c19e0000000017160014f8c2a3d5c089ab7098f5d3a77ca34e24235a7c31feffffffa2943e76cc001b01c998ae78c336a746b4e6923f7837d2a63102a98eb936dfda0000000017160014a2274882a030e7c8bfe6804cd75264b2b149d6c3feffffffd21621324981e6505a17b2d13d555bf67982b998f2995aefe1ab9640d9483ea50000000017160014ec66b74ab4f320a4d5e77048e79850b8ebbf8fa6feffffffe2d64b997212789c01c0a3209a99be0e06f5fd261fa02bd22c428f774776ef8e0100000017160014742ac6e12024bd15d9086c72aff1ab1fd8768052fefffffff755fe894f21560752cae9819297f35840845f5bda6f3d094e451c99c1053ddf010000001716001451efe50dd0b5ce20c08686abb9c988773a85c7b9feffffff02805c2f000000000017a914bd3049e5cb6bc1967cc924ffcfd0163f5eae7a4587ff3f0f000000000017a914662808cf2df42ebe58e84e3e13b64386129d3502870247304402201a2d8034fbdc6d7da4a60acea654a423734bc049be3d94e41ad017620eaac7cc02207f1da83990ff80e1c5ac8051d7d2b1e5f22405537f62075deb764b4ab5ebb2fc012103cc652883adc4a0842e6c158b63e439e304045a64a3bb3323c385b28c7b200a8902483045022100c1e666c711fbe7aec4137890626e2dc6caeac5b2e85ced7de9201b55502016580220081bdd424c6d39c1d12cf31c14e3e832550385673d3b77aed7f738caee86a7120121038bcc5711ebde9c7f7294baf3fb60215220d9e47a8bc721ed5febf6de57497db402483045022100b19442385240139b6f001bfd6c87c4162383fc3d4185d802b2ca89f8d3d26fdc022060a31f5a1670cd83a8e2609fa142624cb9efb19a0f186d0c15a1d0b33b2d17fc012103855f206d8c50344c2c2e152c27208ef8242e18e85f623c0fec1bf7b8c515eb6f02483045022100c6655f47b36ebdd84efbdac55dc7e4c25600565bf9e6fdb2d6cebe17ca2a1f3d022023bc4208b0d888ddde41fe14f6da0f80b76d92a45c2a8a45de86f1458a41d2c6012103ae472998cfff9ee35e710d6fc07e5e07a997b36d3ea7c4ea5d475358579f1177024730440220492eaf089cbb26c78139a3ee4ea1b75f2e7a26211fd61e79797e5ef2139d6523022028ef039d7ae3c9902e794db2668e1223d9014956130343f7550cb3189790ee8d012102665e8c2d2d35f063dc0d3c9477f5d9d5eca66216f75138ce04483690eef9115602483045022100a5d0d57423687a4b96831876761eff73a79d3b6c982f4cd32d6ce715e0a6f04802203ab64dd6b22d23d6484fac2e599ee187f05e4c14faa1837b076bfec50be60c87012102e3b579958e8b8dd2f0764b641285e1f6c8ac205ea6380fbee086a7e459a35e9900000000", "vin": [{"txinwitness": ["304402201a2d8034fbdc6d7da4a60acea654a423734bc049be3d94e41ad017620eaac7cc02207f1da83990ff80e1c5ac8051d7d2b1e5f22405537f62075deb764b4ab5ebb2fc01", "03cc652883adc4a0842e6c158b63e439e304045a64a3bb3323c385b28c7b200a89"], "sequence": 4294967294, "scriptSig": {"hex": "16001424861e1398b2980e2d1d4368cf000d7e37246ac2", "asm": "001424861e1398b2980e2d1d4368cf000d7e37246ac2"}, "vout": 0, "txid": "4003b95df73c06b924b38a8424c304ee38bd7b2420888c34470da0cf73993b62"}, {"txinwitness": ["3045022100c1e666c711fbe7aec4137890626e2dc6caeac5b2e85ced7de9201b55502016580220081bdd424c6d39c1d12cf31c14e3e832550385673d3b77aed7f738caee86a71201", "038bcc5711ebde9c7f7294baf3fb60215220d9e47a8bc721ed5febf6de57497db4"], "sequence": 4294967294, "scriptSig": {"hex": "160014f8c2a3d5c089ab7098f5d3a77ca34e24235a7c31", "asm": "0014f8c2a3d5c089ab7098f5d3a77ca34e24235a7c31"}, "vout": 0, "txid": "9ec10109b3d5951d478a9e3146f8ecc5c2c62e04e5b6204396d0a9b4f5bb4589"}, {"txinwitness": ["3045022100b19442385240139b6f001bfd6c87c4162383fc3d4185d802b2ca89f8d3d26fdc022060a31f5a1670cd83a8e2609fa142624cb9efb19a0f186d0c15a1d0b33b2d17fc01", "03855f206d8c50344c2c2e152c27208ef8242e18e85f623c0fec1bf7b8c515eb6f"], "sequence": 4294967294, "scriptSig": {"hex": "160014a2274882a030e7c8bfe6804cd75264b2b149d6c3", "asm": "0014a2274882a030e7c8bfe6804cd75264b2b149d6c3"}, "vout": 0, "txid": "dadf36b98ea90231a6d237783f92e6b446a736c378ae98c9011b00cc763e94a2"}, {"txinwitness": ["3045022100c6655f47b36ebdd84efbdac55dc7e4c25600565bf9e6fdb2d6cebe17ca2a1f3d022023bc4208b0d888ddde41fe14f6da0f80b76d92a45c2a8a45de86f1458a41d2c601", "03ae472998cfff9ee35e710d6fc07e5e07a997b36d3ea7c4ea5d475358579f1177"], "sequence": 4294967294, "scriptSig": {"hex": "160014ec66b74ab4f320a4d5e77048e79850b8ebbf8fa6", "asm": "0014ec66b74ab4f320a4d5e77048e79850b8ebbf8fa6"}, "vout": 0, "txid": "a53e48d94096abe1ef5a99f298b98279f65b553dd1b2175a50e68149322116d2"}, {"txinwitness": ["30440220492eaf089cbb26c78139a3ee4ea1b75f2e7a26211fd61e79797e5ef2139d6523022028ef039d7ae3c9902e794db2668e1223d9014956130343f7550cb3189790ee8d01", "02665e8c2d2d35f063dc0d3c9477f5d9d5eca66216f75138ce04483690eef91156"], "sequence": 4294967294, "scriptSig": {"hex": "160014742ac6e12024bd15d9086c72aff1ab1fd8768052", "asm": "0014742ac6e12024bd15d9086c72aff1ab1fd8768052"}, "vout": 1, "txid": "8eef7647778f422cd22ba01f26fdf5060ebe999a20a3c0019c781272994bd6e2"}, {"txinwitness": ["3045022100a5d0d57423687a4b96831876761eff73a79d3b6c982f4cd32d6ce715e0a6f04802203ab64dd6b22d23d6484fac2e599ee187f05e4c14faa1837b076bfec50be60c8701", "02e3b579958e8b8dd2f0764b641285e1f6c8ac205ea6380fbee086a7e459a35e99"], "sequence": 4294967294, "scriptSig": {"hex": "16001451efe50dd0b5ce20c08686abb9c988773a85c7b9", "asm": "001451efe50dd0b5ce20c08686abb9c988773a85c7b9"}, "vout": 1, "txid": "df3d05c1991c454e093d6fda5b5f844058f3979281e9ca520756214f89fe55f7"}], "txid": "1387f39e5aef98e965b239c03c15674cb7fd10d182ca8a96cb2e4593ba399baa", "blocktime": 1537870268, "version": 2, "confirmations": 11518, "time": 1537870268, "locktime": 0, "vsize": 620, "size": 1106}