{"hash": "891bc7fb574325a2c9da3877d3188b0b866afa8bf8adadc1c0b2cfa2ebb6f3e9", "blockhash": "0000000000000000001cda96e906b7601b7a6fb1a3b62bca570a9e5d8f4b3de1", "vout": [{"scriptPubKey": {"reqSigs": 1, "hex": "76a9149a1be9c92071ae7db008cb41dbb3bb09ebfa33b788ac", "addresses": ["1F3rVzEW7ond8zNvXdL6q6C7awkD6z4vap"], "asm": "OP_DUP OP_HASH160 9a1be9c92071ae7db008cb41dbb3bb09ebfa33b7 OP_EQUALVERIFY OP_CHECKSIG", "type": "pubkeyhash"}, "value": 0.00265096, "n": 0}, {"scriptPubKey": {"reqSigs": 1, "hex": "a914c3103ed3f10dc05bb191738196268be874a0219087", "addresses": ["3KUR9hgz7KZ4Wgtyv9kLcjwZMfYkdDzW2t"], "asm": "OP_HASH160 c3103ed3f10dc05bb191738196268be874a02190 OP_EQUAL", "type": "scripthash"}, "value": 0.02120437, "n": 1}, {"scriptPubKey": {"reqSigs": 1, "hex": "a914c716b7a0b4142a85c24e909ab7bf1fa12f2f89a887", "addresses": ["3Kqhc9GeD8zZVB4NhUf7KhJZMYovVtZfnv"], "asm": "OP_HASH160 c716b7a0b4142a85c24e909ab7bf1fa12f2f89a8 OP_EQUAL", "type": "scripthash"}, "value": 0.00682916, "n": 2}, {"scriptPubKey": {"reqSigs": 1, "hex": "a9149dfcb6f584e894154d4535263d7f23620f4a9aba87", "addresses": ["3G6NkatqLvx8ZPgfpN2BMRiwiVqvhxGgoQ"], "asm": "OP_HASH160 9dfcb6f584e894154d4535263d7f23620f4a9aba OP_EQUAL", "type": "scripthash"}, "value": 0.00017104, "n": 3}, {"scriptPubKey": {"reqSigs": 1, "hex": "a914af652b9692151c1d810232cdd2b12ea6fa8a020687", "addresses": ["3HgRNYhkNNa8PSkr5gY5MKXGUCG7na9Mmo"], "asm": "OP_HASH160 af652b9692151c1d810232cdd2b12ea6fa8a0206 OP_EQUAL", "type": "scripthash"}, "value": 0.00243083, "n": 4}, {"scriptPubKey": {"reqSigs": 1, "hex": "a914fe99b37942d43bc8b2e999ab1cbf6da2a5967ec287", "addresses": ["3QuDgc7SUoiBKt8KvWC7NfNNYSP9WtgmKc"], "asm": "OP_HASH160 fe99b37942d43bc8b2e999ab1cbf6da2a5967ec2 OP_EQUAL", "type": "scripthash"}, "value": 0.0029636, "n": 5}, {"scriptPubKey": {"reqSigs": 1, "hex": "76a91442ba8f01b481acdf703e56d2bdd15aa9ba0db39788ac", "addresses": ["175q5ytvsu1NnxJPaLq6gtR8HAjps1UckP"], "asm": "OP_DUP OP_HASH160 42ba8f01b481acdf703e56d2bdd15aa9ba0db397 OP_EQUALVERIFY OP_CHECKSIG", "type": "pubkeyhash"}, "value": 0.01001906, "n": 6}, {"scriptPubKey": {"reqSigs": 1, "hex": "76a91496ddc1154c8c714a35944ea02ebe3f3d1968cec888ac", "addresses": ["1Eki1XfS6YMeUbzZEBg9j8c7kRaU9sxBhj"], "asm": "OP_DUP OP_HASH160 96ddc1154c8c714a35944ea02ebe3f3d1968cec8 OP_EQUALVERIFY OP_CHECKSIG", "type": "pubkeyhash"}, "value": 0.02307139, "n": 7}, {"scriptPubKey": {"reqSigs": 1, "hex": "a914b7ac251a1d4817f0233980a8ae2cc7b1efcf1bcc87", "addresses": ["3JSBoVGJnQFjgXsLJ8xwkx88M93k6n1WbL"], "asm": "OP_HASH160 b7ac251a1d4817f0233980a8ae2cc7b1efcf1bcc OP_EQUAL", "type": "scripthash"}, "value": 0.00503213, "n": 8}, {"scriptPubKey": {"reqSigs": 1, "hex": "a914238a4aa4702f409179c0580186d4dc25c6c65b1c87", "addresses": ["34vwEvaqBSRGKQHQjNjtwGEcHwe5tvPwoK"], "asm": "OP_HASH160 238a4aa4702f409179c0580186d4dc25c6c65b1c OP_EQUAL", "type": "scripthash"}, "value": 0.00280805, "n": 9}, {"scriptPubKey": {"reqSigs": 1, "hex": "76a9145a3d301aa71e4ab138995ddf550c5a3044f9aa3888ac", "addresses": ["19E97g9npvPkbrtpyWAjf2wTKmQJQWThoV"], "asm": "OP_DUP OP_HASH160 5a3d301aa71e4ab138995ddf550c5a3044f9aa38 OP_EQUALVERIFY OP_CHECKSIG", "type": "pubkeyhash"}, "value": 0.0391, "n": 10}, {"scriptPubKey": {"reqSigs": 1, "hex": "a9141301908f2a3b5cd46570af9feb33849cc43e61b387", "addresses": ["33RWduRj5fGo5buLFKwvnhS826fdpqsiWP"], "asm": "OP_HASH160 1301908f2a3b5cd46570af9feb33849cc43e61b3 OP_EQUAL", "type": "scripthash"}, "value": 0.00457965, "n": 11}, {"scriptPubKey": {"reqSigs": 1, "hex": "a9148de433847d343b373e37fba01ee65ef9daaa1ed287", "addresses": ["3EdGaHtX2nBGu3bJzQJRtXMr4fkstkvoZ5"], "asm": "OP_HASH160 8de433847d343b373e37fba01ee65ef9daaa1ed2 OP_EQUAL", "type": "scripthash"}, "value": 0.01082754, "n": 12}, {"scriptPubKey": {"reqSigs": 1, "hex": "a9140a8452960eb457af873fceb26ed709a79a7c31d287", "addresses": ["32edCQ1uoTuTS17juduRWqkWbPphLg6xBV"], "asm": "OP_HASH160 0a8452960eb457af873fceb26ed709a79a7c31d2 OP_EQUAL", "type": "scripthash"}, "value": 0.01190267, "n": 13}, {"scriptPubKey": {"reqSigs": 1, "hex": "a914cf8e2cd29f64c6d2181635a654b8aa8add580c3787", "addresses": ["3LcU7kWdpyj7hUJBmMeRGEsAqomUJL3GHk"], "asm": "OP_HASH160 cf8e2cd29f64c6d2181635a654b8aa8add580c37 OP_EQUAL", "type": "scripthash"}, "value": 0.00248358, "n": 14}, {"scriptPubKey": {"reqSigs": 1, "hex": "a9147ce84ffd3f532406c7d8da3a906363b9632b20fc87", "addresses": ["3D5U1gapf4mzwwQYf1FnUEqjLPBKjd7vQF"], "asm": "OP_HASH160 7ce84ffd3f532406c7d8da3a906363b9632b20fc OP_EQUAL", "type": "scripthash"}, "value": 0.00207125, "n": 15}, {"scriptPubKey": {"reqSigs": 1, "hex": "a9144e6f51ecd9dba7cf999d1a5b79675d7d1e0502d387", "addresses": ["38qjzA4rcmfDb8Jcu49rMfo7EMb14CV7mL"], "asm": "OP_HASH160 4e6f51ecd9dba7cf999d1a5b79675d7d1e0502d3 OP_EQUAL", "type": "scripthash"}, "value": 0.01355544, "n": 16}, {"scriptPubKey": {"reqSigs": 1, "hex": "a914a6dd75804aa9324a245cb2d3d68c7450c1a2912287", "addresses": ["3GuKPdNXALowJZa3ApDuR5ViS3t3ZuibT1"], "asm": "OP_HASH160 a6dd75804aa9324a245cb2d3d68c7450c1a29122 OP_EQUAL", "type": "scripthash"}, "value": 0.00764231, "n": 17}], "hex": "020000000001040193d6546e0b81e633b15c062b7b916ba90d806a1660455d478e965bbdb3e9c509000000171600144e24e7f47b81cde7feb4828cd03dfb95055b8d43feffffff193aaab734fab521cb4568c459811ef84d8400d7e5585169217f679aa2a052af070000001716001475e95f8df7d383390bf8523ec6e2cc1d7262e435feffffff65063695d02ac9495bd790b5c8857d961293ee41cc8d3f8610782fe61137b89b1600000017160014f95a8f07bca89ad91e1a123d429048153e0ffb9bfeffffffafdd7ddf0a9e05939a61a29c8bf54200da8fca4ef4c9b045db1cfaec8b44fcea0900000017160014337df2c17296b7e3f646fb2df2d1ea44a8884ed5feffffff12880b0400000000001976a9149a1be9c92071ae7db008cb41dbb3bb09ebfa33b788acf55a20000000000017a914c3103ed3f10dc05bb191738196268be874a0219087a46b0a000000000017a914c716b7a0b4142a85c24e909ab7bf1fa12f2f89a887d04200000000000017a9149dfcb6f584e894154d4535263d7f23620f4a9aba878bb503000000000017a914af652b9692151c1d810232cdd2b12ea6fa8a020687a88504000000000017a914fe99b37942d43bc8b2e999ab1cbf6da2a5967ec287b2490f00000000001976a91442ba8f01b481acdf703e56d2bdd15aa9ba0db39788ac43342300000000001976a91496ddc1154c8c714a35944ea02ebe3f3d1968cec888acadad07000000000017a914b7ac251a1d4817f0233980a8ae2cc7b1efcf1bcc87e54804000000000017a914238a4aa4702f409179c0580186d4dc25c6c65b1c8770a93b00000000001976a9145a3d301aa71e4ab138995ddf550c5a3044f9aa3888acedfc06000000000017a9141301908f2a3b5cd46570af9feb33849cc43e61b387828510000000000017a9148de433847d343b373e37fba01ee65ef9daaa1ed2877b2912000000000017a9140a8452960eb457af873fceb26ed709a79a7c31d28726ca03000000000017a914cf8e2cd29f64c6d2181635a654b8aa8add580c3787152903000000000017a9147ce84ffd3f532406c7d8da3a906363b9632b20fc8718af14000000000017a9144e6f51ecd9dba7cf999d1a5b79675d7d1e0502d38747a90b000000000017a914a6dd75804aa9324a245cb2d3d68c7450c1a29122870247304402203e745d7263b3950e0cfedadcea4be3a696e3eda4780eaf42067be4d59c23aed202205a5db7f2f2467cabd5e95215522139369c0395728012016668d64b9664c1a4420121021006a4bd38038e40865e3696e5984dc505539a9fc15743802ba7e924f181eaba0247304402206a48ab310d5805999cb9cc4e73aaf7bb3ce8c18acbffd3f07d5e691dd0cb23c30220509e8d02cb5fed71046b08ace8e33d866221e4007193c18464831603256ca552012102449ab04dfd3e99a4fe159efd80b826c3092a79babd5ef468e6ff24a32c843d0d0247304402202f77ee17697dc3a3e51cb901b6cb44d595d697349190e7e54ceb93af2a3ca08b02200a27891e90142b4b5b74e67f437ad858055d3f0a337ca25b6230b5593d6a1654012103e735e5b27655ac58c807e16897e684adad90dcba47c420466e903a8513d9bbb602483045022100854af6e5c545f8531bd1863ab2a3071846b025310bb4086cfb171e4486846d7c0220159f3c6e3d1c3df9ceddbfcb67c8a0f63624acacd2ce3f3444b801f67610930401210341cb6ca57a61e0a1975fb83fc2c522509231d72f7a17e6c26b3450532784fed713490800", "vin": [{"txinwitness": ["304402203e745d7263b3950e0cfedadcea4be3a696e3eda4780eaf42067be4d59c23aed202205a5db7f2f2467cabd5e95215522139369c0395728012016668d64b9664c1a44201", "021006a4bd38038e40865e3696e5984dc505539a9fc15743802ba7e924f181eaba"], "sequence": 4294967294, "scriptSig": {"hex": "1600144e24e7f47b81cde7feb4828cd03dfb95055b8d43", "asm": "00144e24e7f47b81cde7feb4828cd03dfb95055b8d43"}, "vout": 9, "txid": "c5e9b3bd5b968e475d4560166a800da96b917b2b065cb133e6810b6e54d69301"}, {"txinwitness": ["304402206a48ab310d5805999cb9cc4e73aaf7bb3ce8c18acbffd3f07d5e691dd0cb23c30220509e8d02cb5fed71046b08ace8e33d866221e4007193c18464831603256ca55201", "02449ab04dfd3e99a4fe159efd80b826c3092a79babd5ef468e6ff24a32c843d0d"], "sequence": 4294967294, "scriptSig": {"hex": "16001475e95f8df7d383390bf8523ec6e2cc1d7262e435", "asm": "001475e95f8df7d383390bf8523ec6e2cc1d7262e435"}, "vout": 7, "txid": "af52a0a29a677f21695158e5d700844df81e8159c46845cb21b5fa34b7aa3a19"}, {"txinwitness": ["304402202f77ee17697dc3a3e51cb901b6cb44d595d697349190e7e54ceb93af2a3ca08b02200a27891e90142b4b5b74e67f437ad858055d3f0a337ca25b6230b5593d6a165401", "03e735e5b27655ac58c807e16897e684adad90dcba47c420466e903a8513d9bbb6"], "sequence": 4294967294, "scriptSig": {"hex": "160014f95a8f07bca89ad91e1a123d429048153e0ffb9b", "asm": "0014f95a8f07bca89ad91e1a123d429048153e0ffb9b"}, "vout": 22, "txid": "9bb83711e62f7810863f8dcc41ee9312967d85c8b590d75b49c92ad095360665"}, {"txinwitness": ["3045022100854af6e5c545f8531bd1863ab2a3071846b025310bb4086cfb171e4486846d7c0220159f3c6e3d1c3df9ceddbfcb67c8a0f63624acacd2ce3f3444b801f67610930401", "0341cb6ca57a61e0a1975fb83fc2c522509231d72f7a17e6c26b3450532784fed7"], "sequence": 4294967294, "scriptSig": {"hex": "160014337df2c17296b7e3f646fb2df2d1ea44a8884ed5", "asm": "0014337df2c17296b7e3f646fb2df2d1ea44a8884ed5"}, "vout": 9, "txid": "eafc448becfa1cdb45b0c9f44eca8fda0042f58b9ca2619a93059e0adf7dddaf"}], "txid": "1387ab6cf824858daeb4bca6ea1c94c4c4159313ab0768cbbceec783f3b6610c", "blocktime": 1537873282, "version": 2, "confirmations": 11481, "time": 1537873282, "locktime": 542995, "vsize": 958, "size": 1281}