{"hash": "138b3e51bc870d3aec381c36ac249f2f8ac8faf581180bd7bf48e46554afb4cc", "blockhash": "00000000000000000024a2167bbff67b0be802c0b01cdd79e6331c2be6459f87", "vout": [{"scriptPubKey": {"reqSigs": 1, "hex": "76a9141fe01ae708b8316e320ae4c3670876d561dc1bb888ac", "addresses": ["13uYR3Pg6e9mqq1h44pUoHKG3uoaTKQuBN"], "asm": "OP_DUP OP_HASH160 1fe01ae708b8316e320ae4c3670876d561dc1bb8 OP_EQUALVERIFY OP_CHECKSIG", "type": "pubkeyhash"}, "value": 0.0663442, "n": 0}, {"scriptPubKey": {"reqSigs": 1, "hex": "76a914033053be322cacb0ddd706469668daf14f12ccde88ac", "addresses": ["1HrvQMkGaN57E47NEHBVsriZKSqfyhG8V"], "asm": "OP_DUP OP_HASH160 033053be322cacb0ddd706469668daf14f12ccde OP_EQUALVERIFY OP_CHECKSIG", "type": "pubkeyhash"}, "value": 10.8438567, "n": 1}], "hex": "02000000016a3dfb49b7dc75b76347a744f8833aadc0772e61189021e71367a90c10570596010000006a47304402202a50f965832b492ec44b16dd79e19d4fcde656d00be970053b2b8b34b5829a8c02207a3c875fa6d8e9e771547c103d226b7edf318ce59972a48064aab8807c1c4e620121022eb7baf1452a6a99ddc6a629464d251d61d9af2f310eba41861623dfc12004ddffffffff02b43b6500000000001976a9141fe01ae708b8316e320ae4c3670876d561dc1bb888ac8669a240000000001976a914033053be322cacb0ddd706469668daf14f12ccde88ac00000000", "vin": [{"sequence": 4294967295, "scriptSig": {"hex": "47304402202a50f965832b492ec44b16dd79e19d4fcde656d00be970053b2b8b34b5829a8c02207a3c875fa6d8e9e771547c103d226b7edf318ce59972a48064aab8807c1c4e620121022eb7baf1452a6a99ddc6a629464d251d61d9af2f310eba41861623dfc12004dd", "asm": "304402202a50f965832b492ec44b16dd79e19d4fcde656d00be970053b2b8b34b5829a8c02207a3c875fa6d8e9e771547c103d226b7edf318ce59972a48064aab8807c1c4e62[ALL] 022eb7baf1452a6a99ddc6a629464d251d61d9af2f310eba41861623dfc12004dd"}, "vout": 1, "txid": "960557100ca96713e7219018612e77c0ad3a83f844a74763b775dcb749fb3d6a"}], "txid": "138b3e51bc870d3aec381c36ac249f2f8ac8faf581180bd7bf48e46554afb4cc", "blocktime": 1537870564, "version": 2, "confirmations": 11515, "time": 1537870564, "locktime": 0, "vsize": 225, "size": 225}