{"hash": "138d39e22b7f988dccae7742026975df0e4c595a25605777b1d123772c29ebf5", "blockhash": "00000000000000000024a2167bbff67b0be802c0b01cdd79e6331c2be6459f87", "vout": [{"scriptPubKey": {"type": "nulldata", "hex": "6a146f6d6e69000000000000001f00000001bb254830", "asm": "OP_RETURN 6f6d6e69000000000000001f00000001bb254830"}, "value": 0.0, "n": 0}, {"scriptPubKey": {"reqSigs": 1, "hex": "76a914973d0713fe17883bc398b16170310b18294c015a88ac", "addresses": ["1Eng9F2KCWUW4qrKuEmHHKNfVhAzixQam1"], "asm": "OP_DUP OP_HASH160 973d0713fe17883bc398b16170310b18294c015a OP_EQUALVERIFY OP_CHECKSIG", "type": "pubkeyhash"}, "value": 0.00015929, "n": 1}, {"scriptPubKey": {"reqSigs": 1, "hex": "76a91468443d4a0055690bb57e7ce4ae9f47f062a7f07588ac", "addresses": ["1AWK2JrB6y5F7LcppaW6g36chjEwGZWVgE"], "asm": "OP_DUP OP_HASH160 68443d4a0055690bb57e7ce4ae9f47f062a7f075 OP_EQUALVERIFY OP_CHECKSIG", "type": "pubkeyhash"}, "value": 5.46e-06, "n": 2}], "hex": "01000000011225714f8f1d41c57cf7735114928b99c258b313743cccf813af224f6e7963bd010000006a473044022002fad3623ff217abfe42b6cf99a30a69dc412ecab29168bffb906fc7162528c602203608f1fa0479ae4c9b547c32fde122c3e5fdf033e3fb64194e62397a84e589a4012102a95abffaf8e884bdb41b23c1d41a14b44e13d48b6ebfe14e558c463ff2a595abfeffffff030000000000000000166a146f6d6e69000000000000001f00000001bb254830393e0000000000001976a914973d0713fe17883bc398b16170310b18294c015a88ac22020000000000001976a91468443d4a0055690bb57e7ce4ae9f47f062a7f07588ac0d490800", "vin": [{"sequence": 4294967294, "scriptSig": {"hex": "473044022002fad3623ff217abfe42b6cf99a30a69dc412ecab29168bffb906fc7162528c602203608f1fa0479ae4c9b547c32fde122c3e5fdf033e3fb64194e62397a84e589a4012102a95abffaf8e884bdb41b23c1d41a14b44e13d48b6ebfe14e558c463ff2a595ab", "asm": "3044022002fad3623ff217abfe42b6cf99a30a69dc412ecab29168bffb906fc7162528c602203608f1fa0479ae4c9b547c32fde122c3e5fdf033e3fb64194e62397a84e589a4[ALL] 02a95abffaf8e884bdb41b23c1d41a14b44e13d48b6ebfe14e558c463ff2a595ab"}, "vout": 1, "txid": "bd63796e4f22af13f8cc3c7413b358c2998b92145173f77cc5411d8f4f712512"}], "txid": "138d39e22b7f988dccae7742026975df0e4c595a25605777b1d123772c29ebf5", "blocktime": 1537870564, "version": 1, "confirmations": 11515, "time": 1537870564, "locktime": 542989, "vsize": 256, "size": 256}