{"hash": "1398ebc91015c194702643e593c3dd557a2ed61f6031843e5dc86f63b3b60706", "blockhash": "0000000000000000000e13cef7c366c0283d82e591d1acd082e914b08063cdf1", "vout": [{"scriptPubKey": {"reqSigs": 1, "hex": "76a914d78aa0b24cda2c5bd9cfd373996fe5bd7a0b007588ac", "addresses": ["1LegMGTGxMtBu8NbU1ErJ4JUj7hKzDuoTp"], "asm": "OP_DUP OP_HASH160 d78aa0b24cda2c5bd9cfd373996fe5bd7a0b0075 OP_EQUALVERIFY OP_CHECKSIG", "type": "pubkeyhash"}, "value": 0.00757423, "n": 0}, {"scriptPubKey": {"reqSigs": 1, "hex": "76a9140a7d75adda186724f1a16533c410409480b36eae88ac", "addresses": ["1xU41aYRPa77xi9nzZwoMTuQDnrSouqyN"], "asm": "OP_DUP OP_HASH160 0a7d75adda186724f1a16533c410409480b36eae OP_EQUALVERIFY OP_CHECKSIG", "type": "pubkeyhash"}, "value": 0.06693054, "n": 1}], "hex": "01000000011c42ae2f5fb025d2f0a0e2a11b424a7f4ddc5f46b2e84bb15abc837a9f4768fc010000006b483045022100dfbbe7c19968f768f158a99edec3214426737a47151d375022a0c952c49396ee02206e3d457c5cbc65110709ab0c28b6658896868b548004e4426bc2d34cfb6e2dbc01210380a960efeab86b98937ce1687be17e7e2c73ad015687e0f212a15a23c36d3207ffffffff02af8e0b00000000001976a914d78aa0b24cda2c5bd9cfd373996fe5bd7a0b007588acbe206600000000001976a9140a7d75adda186724f1a16533c410409480b36eae88ac00000000", "vin": [{"sequence": 4294967295, "scriptSig": {"hex": "483045022100dfbbe7c19968f768f158a99edec3214426737a47151d375022a0c952c49396ee02206e3d457c5cbc65110709ab0c28b6658896868b548004e4426bc2d34cfb6e2dbc01210380a960efeab86b98937ce1687be17e7e2c73ad015687e0f212a15a23c36d3207", "asm": "3045022100dfbbe7c19968f768f158a99edec3214426737a47151d375022a0c952c49396ee02206e3d457c5cbc65110709ab0c28b6658896868b548004e4426bc2d34cfb6e2dbc[ALL] 0380a960efeab86b98937ce1687be17e7e2c73ad015687e0f212a15a23c36d3207"}, "vout": 1, "txid": "fc68479f7a83bc5ab14be8b2465fdc4d7f4a421ba1e2a0f0d225b05f2fae421c"}], "txid": "1398ebc91015c194702643e593c3dd557a2ed61f6031843e5dc86f63b3b60706", "blocktime": 1537871767, "version": 1, "confirmations": 11491, "time": 1537871767, "locktime": 0, "vsize": 226, "size": 226}