{"hash": "d749cae8fe0d4a62a5a09b92831edbcead380c719596a716afe4e40f37564f69", "blockhash": "0000000000000000000baef3f32e3676a92c3b2e5da21b426e4f302fc371ce76", "vout": [{"scriptPubKey": {"reqSigs": 1, "hex": "a91430897cc6c9d69f6a2c2f1c651d51f22219f1a4f687", "addresses": ["367f4YWz1VCFaqBqwbTrzwi2b1h2U3w1AF"], "asm": "OP_HASH160 30897cc6c9d69f6a2c2f1c651d51f22219f1a4f6 OP_EQUAL", "type": "scripthash"}, "value": 1.18248982, "n": 0}, {"scriptPubKey": {"reqSigs": 1, "hex": "a91469f375e541bb07c5da169c09752da12ae6c6186987", "addresses": ["3BMEXcvETEZYofajBzzt65SygkQwTVeLPe"], "asm": "OP_HASH160 69f375e541bb07c5da169c09752da12ae6c61869 OP_EQUAL", "type": "scripthash"}, "value": 0.40871368, "n": 1}], "hex": "0100000000010100a1a75642dc3c073821cfac3531d33052737e7b287ec3ae619e080b80c2260e0000000023220020bcf9f822194145acea0f3235f4107b5bf1a91b6b9f8489f63bf79ec29b360913ffffffff0216560c070000000017a91430897cc6c9d69f6a2c2f1c651d51f22219f1a4f687c8a56f020000000017a91469f375e541bb07c5da169c09752da12ae6c61869870400483045022100e5e31b743d00e27021db7875b499e41eb4b641f4dba2de0db4d7e2c2ee71fef6022060961e57279cbbbb1dd5ddec34f65ee76e941bf128783aa1d33ff2c501cf6aee014730440220453186cc18290589709a837f0b75420d0c55ae838ec1b234ad44163b9ab5a5cd022025f82b2aba40ea831c2b75b422e721b85ca22dc80798c00862e5b387653da95b01695221026c8f72b9e63db63907115e65d4da86eaae595b22fdc85ec75301bb4adbf203582103806535be3e3920e5eedee92de5714188fd6a784f2bf7b04f87de0b9c3ae1ecdb21024b23bfdce2afcae7e28c42f7f79aa100f22931712c52d7414a526ba494d44a2553ae00000000", "vin": [{"txinwitness": ["", "3045022100e5e31b743d00e27021db7875b499e41eb4b641f4dba2de0db4d7e2c2ee71fef6022060961e57279cbbbb1dd5ddec34f65ee76e941bf128783aa1d33ff2c501cf6aee01", "30440220453186cc18290589709a837f0b75420d0c55ae838ec1b234ad44163b9ab5a5cd022025f82b2aba40ea831c2b75b422e721b85ca22dc80798c00862e5b387653da95b01", "5221026c8f72b9e63db63907115e65d4da86eaae595b22fdc85ec75301bb4adbf203582103806535be3e3920e5eedee92de5714188fd6a784f2bf7b04f87de0b9c3ae1ecdb21024b23bfdce2afcae7e28c42f7f79aa100f22931712c52d7414a526ba494d44a2553ae"], "sequence": 4294967295, "scriptSig": {"hex": "220020bcf9f822194145acea0f3235f4107b5bf1a91b6b9f8489f63bf79ec29b360913", "asm": "0020bcf9f822194145acea0f3235f4107b5bf1a91b6b9f8489f63bf79ec29b360913"}, "vout": 0, "txid": "0e26c2800b089e61aec37e287b7e735230d33135accf2138073cdc4256a7a100"}], "txid": "139e9270c231415cc237d0b553624fcb99ae33dc000ca095b95c592e080a4060", "blocktime": 1537876114, "version": 1, "confirmations": 11460, "time": 1537876114, "locktime": 0, "vsize": 214, "size": 405}