{"hash": "13a02f724feebcf0f14a9b8ed9d05cb6558781af53cf3b3cb375768ccbaccdd3", "blockhash": "0000000000000000000e13cef7c366c0283d82e591d1acd082e914b08063cdf1", "vout": [{"scriptPubKey": {"reqSigs": 1, "hex": "a914441fd795671324b39363b8b9326e0403d5d3ad0b87", "addresses": ["37uE21yxBswPWiiuXBS4b3QjScmXaL1DR4"], "asm": "OP_HASH160 441fd795671324b39363b8b9326e0403d5d3ad0b OP_EQUAL", "type": "scripthash"}, "value": 5.2e-05, "n": 0}, {"scriptPubKey": {"reqSigs": 1, "hex": "76a9145e8edb80872d9644c8a7dec685c9cd1f8b88dc2988ac", "addresses": ["19cyewYBbSQ8MCUp7n1pmmfFFc6dEBWxfQ"], "asm": "OP_DUP OP_HASH160 5e8edb80872d9644c8a7dec685c9cd1f8b88dc29 OP_EQUALVERIFY OP_CHECKSIG", "type": "pubkeyhash"}, "value": 3.444e-05, "n": 1}], "hex": "01000000010de23803a5e79b3af609a595f7e41d7a7c0186fb84466bd716d5bb03a1cabe67000000006b483045022100a77938267d90fbf1949837c0fbb58d1d78d7d3841f09b8432222f975671af69f022033dd5a0a9dba106148a67b428174ce16daae07a30ef9d490cb6e8eb9da5f327f012102e1ff29a26ad2a6b43628f66b94898832dda861c87f37a5f2ba4cdf4b9a7dade6ffffffff02501400000000000017a914441fd795671324b39363b8b9326e0403d5d3ad0b87740d0000000000001976a9145e8edb80872d9644c8a7dec685c9cd1f8b88dc2988ac00000000", "vin": [{"sequence": 4294967295, "scriptSig": {"hex": "483045022100a77938267d90fbf1949837c0fbb58d1d78d7d3841f09b8432222f975671af69f022033dd5a0a9dba106148a67b428174ce16daae07a30ef9d490cb6e8eb9da5f327f012102e1ff29a26ad2a6b43628f66b94898832dda861c87f37a5f2ba4cdf4b9a7dade6", "asm": "3045022100a77938267d90fbf1949837c0fbb58d1d78d7d3841f09b8432222f975671af69f022033dd5a0a9dba106148a67b428174ce16daae07a30ef9d490cb6e8eb9da5f327f[ALL] 02e1ff29a26ad2a6b43628f66b94898832dda861c87f37a5f2ba4cdf4b9a7dade6"}, "vout": 0, "txid": "67becaa103bbd516d76b4684fb86017c7a1de4f795a509f63a9be7a50338e20d"}], "txid": "13a02f724feebcf0f14a9b8ed9d05cb6558781af53cf3b3cb375768ccbaccdd3", "blocktime": 1537871767, "version": 1, "confirmations": 11492, "time": 1537871767, "locktime": 0, "vsize": 224, "size": 224}