{"hash": "f8fab9d2e08d1a3746996cb7e11b6b9048f356cd756f0ba8bf78410e1bf4fd60", "blockhash": "0000000000000000001f0ddff1eddb255c1121bcd4da4f1bc9a0da00cae72433", "vout": [{"scriptPubKey": {"reqSigs": 1, "hex": "76a914fabe4284240145ca3a52513f8d5a56046a4049cf88ac", "addresses": ["1ProrSemv7jpWFogcUQ8dswzWAdPsCF8k5"], "asm": "OP_DUP OP_HASH160 fabe4284240145ca3a52513f8d5a56046a4049cf OP_EQUALVERIFY OP_CHECKSIG", "type": "pubkeyhash"}, "value": 0.0016, "n": 0}, {"scriptPubKey": {"reqSigs": 1, "hex": "a914b91391fc48eb16ede4fa775c72544eabd03ee75987", "addresses": ["3JZcNoDMiZXptYQnnJu49awY9sRzxUMCqX"], "asm": "OP_HASH160 b91391fc48eb16ede4fa775c72544eabd03ee759 OP_EQUAL", "type": "scripthash"}, "value": 0.00412168, "n": 1}, {"scriptPubKey": {"reqSigs": 1, "hex": "76a9146ca30962f320c47f45461b58fdd7bf92e706f40d88ac", "addresses": ["1AuRHhpiTD9Shmo1rCGNm7JsfdRwnf4LkD"], "asm": "OP_DUP OP_HASH160 6ca30962f320c47f45461b58fdd7bf92e706f40d OP_EQUALVERIFY OP_CHECKSIG", "type": "pubkeyhash"}, "value": 0.00274503, "n": 2}, {"scriptPubKey": {"reqSigs": 1, "hex": "a914aa27aeef410933e735b2fe41616047b9967f8bb387", "addresses": ["3HCiLQFFDBypy3yZHyM6Rw8VFvjdggLcQH"], "asm": "OP_HASH160 aa27aeef410933e735b2fe41616047b9967f8bb3 OP_EQUAL", "type": "scripthash"}, "value": 0.00299755, "n": 3}, {"scriptPubKey": {"reqSigs": 1, "hex": "a914bfd44f15e2e8ea71744253142e668fbfde480df587", "addresses": ["3KBKKfbbLRDPYfh4yLYAjh2binNd4Xvy9J"], "asm": "OP_HASH160 bfd44f15e2e8ea71744253142e668fbfde480df5 OP_EQUAL", "type": "scripthash"}, "value": 0.00266159, "n": 4}, {"scriptPubKey": {"reqSigs": 1, "hex": "a914abfb195ed6aee70d474ae6cd89f1c6843ef2f0b687", "addresses": ["3HNNH21sq995AvRmNqn4dCWAb3kRgPdHkK"], "asm": "OP_HASH160 abfb195ed6aee70d474ae6cd89f1c6843ef2f0b6 OP_EQUAL", "type": "scripthash"}, "value": 0.00264767, "n": 5}, {"scriptPubKey": {"reqSigs": 1, "hex": "a91496522b9b64a0a86922ec000d4f2e43185e68198e87", "addresses": ["3FPqicYUTfatyeW5CirN3abdmWrSVNTidJ"], "asm": "OP_HASH160 96522b9b64a0a86922ec000d4f2e43185e68198e OP_EQUAL", "type": "scripthash"}, "value": 0.00015858, "n": 6}, {"scriptPubKey": {"reqSigs": 1, "hex": "a914b6d308e7c18a027a64b967d34cd2cebbfc74dc8987", "addresses": ["3JMhiQnXd59632CfYxVpqaSnqpJHZiiVSa"], "asm": "OP_HASH160 b6d308e7c18a027a64b967d34cd2cebbfc74dc89 OP_EQUAL", "type": "scripthash"}, "value": 0.00370451, "n": 7}, {"scriptPubKey": {"reqSigs": 1, "hex": "a914964635fdf7c7fdbd4886e5314dbc724c5dc7217c87", "addresses": ["3FPbPf6VmtpZ5QkndGdtut7A7SVaJ4ij7t"], "asm": "OP_HASH160 964635fdf7c7fdbd4886e5314dbc724c5dc7217c OP_EQUAL", "type": "scripthash"}, "value": 0.00186497, "n": 8}, {"scriptPubKey": {"reqSigs": 1, "hex": "a914f33b09c8bf6392f024a3986710a4525e36611a1f87", "addresses": ["3Ps6rCu3u6Rurcr56g4AaVEtPUdZfyJQyQ"], "asm": "OP_HASH160 f33b09c8bf6392f024a3986710a4525e36611a1f OP_EQUAL", "type": "scripthash"}, "value": 0.0019266, "n": 9}, {"scriptPubKey": {"reqSigs": 1, "hex": "a914884d1a967ea0114b7506f5519984394dc5135e7c87", "addresses": ["3E7iBuK1y6CrJVKkP36XMX1dUUUF1grqYG"], "asm": "OP_HASH160 884d1a967ea0114b7506f5519984394dc5135e7c OP_EQUAL", "type": "scripthash"}, "value": 0.0051646, "n": 10}, {"scriptPubKey": {"reqSigs": 1, "hex": "a91473a4ce6e66f7e17a6388e2638c9afc574555e20887", "addresses": ["3CEV4YxHfuopwxYymAQSCWrpmvyNSPEJJY"], "asm": "OP_HASH160 73a4ce6e66f7e17a6388e2638c9afc574555e208 OP_EQUAL", "type": "scripthash"}, "value": 0.0071336, "n": 11}, {"scriptPubKey": {"reqSigs": 1, "hex": "76a914a8d0613d1ab34797a9cf623f3dad70a3294994c188ac", "addresses": ["1GPc9iKvqMq1UNYvDj32hFd585m7HxZRmA"], "asm": "OP_DUP OP_HASH160 a8d0613d1ab34797a9cf623f3dad70a3294994c1 OP_EQUALVERIFY OP_CHECKSIG", "type": "pubkeyhash"}, "value": 0.00620752, "n": 12}, {"scriptPubKey": {"reqSigs": 1, "hex": "a91406577567c43247a46cfe931253e376c7f5de670387", "addresses": ["32GYkRegV2T8AKLwP7XCGXfEjxEaA22o6t"], "asm": "OP_HASH160 06577567c43247a46cfe931253e376c7f5de6703 OP_EQUAL", "type": "scripthash"}, "value": 0.0019266, "n": 13}, {"scriptPubKey": {"reqSigs": 1, "hex": "a914a2c567096c59142f8fa299525e714e193ba977b487", "addresses": ["3GXfsPKJsYG7yRPRvbTcgk1nKdzsLPpDb3"], "asm": "OP_HASH160 a2c567096c59142f8fa299525e714e193ba977b4 OP_EQUAL", "type": "scripthash"}, "value": 0.00159975, "n": 14}, {"scriptPubKey": {"reqSigs": 1, "hex": "a9145750b59f7f4bc0181b5ba4c6ed12df5d6f795feb87", "addresses": ["39ehQ2Q9VPWiJB65ZjrnugVi9knfxtRnih"], "asm": "OP_HASH160 5750b59f7f4bc0181b5ba4c6ed12df5d6f795feb OP_EQUAL", "type": "scripthash"}, "value": 0.0027826, "n": 15}, {"scriptPubKey": {"reqSigs": 1, "hex": "76a914ea9c831b52c211f357fb7c93f7c6a07475d7664888ac", "addresses": ["1NPWcYSnykbysrSwLrzjZewZHubocrJ9XZ"], "asm": "OP_DUP OP_HASH160 ea9c831b52c211f357fb7c93f7c6a07475d76648 OP_EQUALVERIFY OP_CHECKSIG", "type": "pubkeyhash"}, "value": 0.00286, "n": 16}, {"scriptPubKey": {"reqSigs": 1, "hex": "a914176209442754d1113876d6ed9cc13a4ad57454dd87", "addresses": ["33peudWBe7eXP6neNxaYGGMARyVgLSTWGg"], "asm": "OP_HASH160 176209442754d1113876d6ed9cc13a4ad57454dd OP_EQUAL", "type": "scripthash"}, "value": 0.0023535, "n": 17}, {"scriptPubKey": {"reqSigs": 1, "hex": "a914d8e5de9bfef0b0e7fd0d6adefacc3ef4deec673587", "addresses": ["3MTsFbZYQRSPPLwEWBcr3MPr7AigQhkp2K"], "asm": "OP_HASH160 d8e5de9bfef0b0e7fd0d6adefacc3ef4deec6735 OP_EQUAL", "type": "scripthash"}, "value": 5e-05, "n": 18}, {"scriptPubKey": {"reqSigs": 1, "hex": "a914925871b1226aa4f7c278b13dc1a215ef446e5bcd87", "addresses": ["3F2pXkmWpkDCTJq7LqeY7n2p5JfXDJhPkH"], "asm": "OP_HASH160 925871b1226aa4f7c278b13dc1a215ef446e5bcd OP_EQUAL", "type": "scripthash"}, "value": 0.0027826, "n": 19}, {"scriptPubKey": {"reqSigs": 1, "hex": "a9145dca8615acfbe05470f12f8ec18b3a49b41a9f2287", "addresses": ["3AEwNyv1dY3XF8H8ewa3GdLaTeZMVjaHh7"], "asm": "OP_HASH160 5dca8615acfbe05470f12f8ec18b3a49b41a9f22 OP_EQUAL", "type": "scripthash"}, "value": 0.0022, "n": 20}, {"scriptPubKey": {"reqSigs": 1, "hex": "a914417c275a92ba2e396dad0a608e5241dabe40f1aa87", "addresses": ["37fGaN7Y9Lxw2Z4syjzdFYn6rR2qpszeBv"], "asm": "OP_HASH160 417c275a92ba2e396dad0a608e5241dabe40f1aa OP_EQUAL", "type": "scripthash"}, "value": 0.89736989, "n": 21}], "hex": "020000000001012a3e2e15fe75724ae724232d90ac4c579fbba157861290a7acea01d99041a4fe14000000171600141253a862b3de72dd95d38dbbe6b6c16284286832feffffff1600710200000000001976a914fabe4284240145ca3a52513f8d5a56046a4049cf88ac084a06000000000017a914b91391fc48eb16ede4fa775c72544eabd03ee7598747300400000000001976a9146ca30962f320c47f45461b58fdd7bf92e706f40d88aceb9204000000000017a914aa27aeef410933e735b2fe41616047b9967f8bb387af0f04000000000017a914bfd44f15e2e8ea71744253142e668fbfde480df5873f0a04000000000017a914abfb195ed6aee70d474ae6cd89f1c6843ef2f0b687f23d00000000000017a91496522b9b64a0a86922ec000d4f2e43185e68198e8713a705000000000017a914b6d308e7c18a027a64b967d34cd2cebbfc74dc898781d802000000000017a914964635fdf7c7fdbd4886e5314dbc724c5dc7217c8794f002000000000017a914f33b09c8bf6392f024a3986710a4525e36611a1f876ce107000000000017a914884d1a967ea0114b7506f5519984394dc5135e7c8790e20a000000000017a91473a4ce6e66f7e17a6388e2638c9afc574555e20887d0780900000000001976a914a8d0613d1ab34797a9cf623f3dad70a3294994c188ac94f002000000000017a91406577567c43247a46cfe931253e376c7f5de670387e77002000000000017a914a2c567096c59142f8fa299525e714e193ba977b487f43e04000000000017a9145750b59f7f4bc0181b5ba4c6ed12df5d6f795feb87305d0400000000001976a914ea9c831b52c211f357fb7c93f7c6a07475d7664888ac569703000000000017a914176209442754d1113876d6ed9cc13a4ad57454dd87881300000000000017a914d8e5de9bfef0b0e7fd0d6adefacc3ef4deec673587f43e04000000000017a914925871b1226aa4f7c278b13dc1a215ef446e5bcd87605b03000000000017a9145dca8615acfbe05470f12f8ec18b3a49b41a9f22871d4759050000000017a914417c275a92ba2e396dad0a608e5241dabe40f1aa87024830450221008d7a61a8baf52d3544cdec0ca434b7815ef19b16369eaa9b504d58e6b7db92d10220273cfa2ea476bdb0cf0935c309aba850f5056b1dbbc1660ebee1f9cdb6cde7840121021efd4aadec8fc0a1276fc8db26bf9e65a0df2653f8866e813ff4f0c492c75f4511490800", "vin": [{"txinwitness": ["30450221008d7a61a8baf52d3544cdec0ca434b7815ef19b16369eaa9b504d58e6b7db92d10220273cfa2ea476bdb0cf0935c309aba850f5056b1dbbc1660ebee1f9cdb6cde78401", "021efd4aadec8fc0a1276fc8db26bf9e65a0df2653f8866e813ff4f0c492c75f45"], "sequence": 4294967294, "scriptSig": {"hex": "1600141253a862b3de72dd95d38dbbe6b6c16284286832", "asm": "00141253a862b3de72dd95d38dbbe6b6c16284286832"}, "vout": 20, "txid": "fea44190d901eaaca790128657a1bb9f574cac902d2324e74a7275fe152e3e2a"}], "txid": "13a2743a82554412b55a2f1931aabb26913472faf2c33adb5f83383c0d516d9b", "blocktime": 1537872018, "version": 2, "confirmations": 11489, "time": 1537872018, "locktime": 542993, "vsize": 814, "size": 896}