{"hash": "ac84d54a23df23d576811833e16471ae6deac3cff57ce082d2b9e72ec8057d9e", "blockhash": "00000000000000000018f53835495a110e01622372bf6ae95dc86f2b0ab887b0", "vout": [{"scriptPubKey": {"reqSigs": 1, "hex": "a914a614c34232d7b15d80a3e2af15d976ec7ad314e987", "addresses": ["3GqAy1No6pkVtNBog6xewCgPSr7oxBLCW8"], "asm": "OP_HASH160 a614c34232d7b15d80a3e2af15d976ec7ad314e9 OP_EQUAL", "type": "scripthash"}, "value": 0.00091699, "n": 0}, {"scriptPubKey": {"reqSigs": 1, "hex": "a9148712684761e670b84e1ebb9d8c890e1e70f9d8ad87", "addresses": ["3E1DCQTP5pTYnoExgY7GkgVB5X9k6rTPsB"], "asm": "OP_HASH160 8712684761e670b84e1ebb9d8c890e1e70f9d8ad OP_EQUAL", "type": "scripthash"}, "value": 11.56602991, "n": 1}], "hex": "0200000000010143d7c3fffeaeb9a2d45e19cd523764adc889438aaa0b5f9e66e37ff9351962ca00000000171600144f88b259c4222d9992e7ae3879408880fc7ffd0cfeffffff02336601000000000017a914a614c34232d7b15d80a3e2af15d976ec7ad314e9876f5cf0440000000017a9148712684761e670b84e1ebb9d8c890e1e70f9d8ad870247304402205ede2df80313c9cbef6101e280a9b71de9e0aeedf0f04867fa6d910babca7e9e02205a17b3af54deb0e26df57208e780c49cb728f299ca75e2ad3efb907a8762e6d3012103bf4cd3a42133208d7b28180d63f88137d8d6cf5ab53d4c0ee4f6d85b6b5c0a0f0e490800", "vin": [{"txinwitness": ["304402205ede2df80313c9cbef6101e280a9b71de9e0aeedf0f04867fa6d910babca7e9e02205a17b3af54deb0e26df57208e780c49cb728f299ca75e2ad3efb907a8762e6d301", "03bf4cd3a42133208d7b28180d63f88137d8d6cf5ab53d4c0ee4f6d85b6b5c0a0f"], "sequence": 4294967294, "scriptSig": {"hex": "1600144f88b259c4222d9992e7ae3879408880fc7ffd0c", "asm": "00144f88b259c4222d9992e7ae3879408880fc7ffd0c"}, "vout": 0, "txid": "ca621935f97fe3669e5f0baa8a4389c8ad643752cd195ed4a2b9aefeffc3d743"}], "txid": "13a3fb164e84d5c77235b3b9306d928b0710f4f044cb5fe49ee5a155c42b13e5", "blocktime": 1537870928, "version": 2, "confirmations": 11512, "time": 1537870928, "locktime": 542990, "vsize": 166, "size": 247}