{"hash": "3df295a03374a151eb61f1bca88185fc2f4f5b69930975526d6e38823d8e708c", "blockhash": "000000000000000000022b45ed06c6f4ccd3cf7fb5ba4856ebd2e58215665228", "vout": [{"scriptPubKey": {"reqSigs": 1, "hex": "a914329447a7cb479c6a6ceccf0d34d0148943ee508587", "addresses": ["36JTLoZfDTSwRApHsRCM9dWjgWyQtyHNyW"], "asm": "OP_HASH160 329447a7cb479c6a6ceccf0d34d0148943ee5085 OP_EQUAL", "type": "scripthash"}, "value": 0.00996441, "n": 0}, {"scriptPubKey": {"reqSigs": 1, "hex": "76a9141da5ddaf8262d9c2b9eece661bef7566c7c1263788ac", "addresses": ["13hmJ8exmKkcBgVQr3wtjgpPEhJ6mPKmGy"], "asm": "OP_DUP OP_HASH160 1da5ddaf8262d9c2b9eece661bef7566c7c12637 OP_EQUALVERIFY OP_CHECKSIG", "type": "pubkeyhash"}, "value": 0.08430812, "n": 1}], "hex": "020000000001060f8234d40f06c297951c218f1904c56857250310c90d3bd641163ebaeff6d31101000000171600142d3a25b090c69ef5ac12afc17586e156744c162cfeffffff23a7280f0ff2f8c626ba68c31949e09950096160fcf2b190d623db39315c8380010000006b483045022100ddaeb5cafa24098341394c86d46d5bba3e980c42452c2a9fc3a688c7a5fe0591022051d460e0d62685a8408ea1dada0482b74189670abcd2d73758a0a649535196c60121020b8722446956273456e3719d07ba3ab25801691a60e29f21f85722967f4db7f6feffffff2750163223eb145c8cb21a62de0f87d44c5f9c3def1f36a0f30c6178c2bca1fa6703000017160014203f92c464974db591438802c090ffd620aa0411feffffff38503bb0962383fe7aa07bc9e21cd791972f01882aa2cb02adb6937b438d25bb0200000017160014a414659ade2857a0f1050393eb87391459ed6219feffffff5431bc506ffc59d4f58154b779e7aa4d3520528fea1a19276752396a58666673010000001716001432a83637d84f9873fd3b4f454c43d67b22b62dccfeffffffa0c67648d27bf51ebe9e0631841782b29a32962c061377b44261a8a8ddd1561b00000000171600142606197566b14befaa35c809bd09a2d20067f5fcfeffffff0259340f000000000017a914329447a7cb479c6a6ceccf0d34d0148943ee508587dca48000000000001976a9141da5ddaf8262d9c2b9eece661bef7566c7c1263788ac0247304402204d965e7f028c7c1494afe6a4365c7f8987efb1db683f45183587295c5519bb2902203cd049796ec64445eb912cd5cc06e5664ef404a6a1cac5626592bece0cc5e480012102efdbcba84c927d370b12941c7bc81fd859e102c643746dc130af0abf61bd1ab0000247304402204cec69852a3f91739d602f184e93e9f570caa0d751273871199091a8c257b9b90220713f1c39b64b0f1c3c994603851439bbf83514f7bfbe689844dc2dabdfaa184901210331f192175edeaa83f7577852f0bf863f19001f16d6c63fe7be0997812e34adbc02473044022014937eb55039f166f203b37dd1f2274d1ff6ab6b8217c631b93bc2f97251cb2b02207f3fccdc054008b4b4dd2b0b3b03326eb9af7c3a0609d413b4f9950bc5085ea10121023f36e8010579c24c87281a839ed9d492601b47847932e1bdbf6ecaffb0d151d10247304402207acb17ab2181ff2ff051dece51214dd55c8a41c25c9a11c4a0a7d9af3550f4d502203c8a20966474f7e0aee70dd8045146eb7f63ed00c4c45b2a288f6a4cf1a05638012103f94b271bb0f76d8efa7cf21e557e5a6404afeef0cd808b1e0463af6dd70e2c3002483045022100fc04179e4cdd086fd2a856d28f4fa573be9a2bba8aa40b043cafe6ed2f1cfcab02205d2762366525ec53e8953e77812c55784343a9f3d398f424a4ee2fc864f8dc8501210265f55db42471a98c0b325cdc31f9c358701cafa34f5b004ce2f0f4254c0c43db0b490800", "vin": [{"txinwitness": ["304402204d965e7f028c7c1494afe6a4365c7f8987efb1db683f45183587295c5519bb2902203cd049796ec64445eb912cd5cc06e5664ef404a6a1cac5626592bece0cc5e48001", "02efdbcba84c927d370b12941c7bc81fd859e102c643746dc130af0abf61bd1ab0"], "sequence": 4294967294, "scriptSig": {"hex": "1600142d3a25b090c69ef5ac12afc17586e156744c162c", "asm": "00142d3a25b090c69ef5ac12afc17586e156744c162c"}, "vout": 1, "txid": "11d3f6efba3e1641d63b0dc91003255768c504198f211c9597c2060fd434820f"}, {"sequence": 4294967294, "scriptSig": {"hex": "483045022100ddaeb5cafa24098341394c86d46d5bba3e980c42452c2a9fc3a688c7a5fe0591022051d460e0d62685a8408ea1dada0482b74189670abcd2d73758a0a649535196c60121020b8722446956273456e3719d07ba3ab25801691a60e29f21f85722967f4db7f6", "asm": "3045022100ddaeb5cafa24098341394c86d46d5bba3e980c42452c2a9fc3a688c7a5fe0591022051d460e0d62685a8408ea1dada0482b74189670abcd2d73758a0a649535196c6[ALL] 020b8722446956273456e3719d07ba3ab25801691a60e29f21f85722967f4db7f6"}, "vout": 1, "txid": "80835c3139db23d690b1f2fc6061095099e04919c368ba26c6f8f20f0f28a723"}, {"txinwitness": ["304402204cec69852a3f91739d602f184e93e9f570caa0d751273871199091a8c257b9b90220713f1c39b64b0f1c3c994603851439bbf83514f7bfbe689844dc2dabdfaa184901", "0331f192175edeaa83f7577852f0bf863f19001f16d6c63fe7be0997812e34adbc"], "sequence": 4294967294, "scriptSig": {"hex": "160014203f92c464974db591438802c090ffd620aa0411", "asm": "0014203f92c464974db591438802c090ffd620aa0411"}, "vout": 871, "txid": "faa1bcc278610cf3a0361fef3d9c5f4cd4870fde621ab28c5c14eb2332165027"}, {"txinwitness": ["3044022014937eb55039f166f203b37dd1f2274d1ff6ab6b8217c631b93bc2f97251cb2b02207f3fccdc054008b4b4dd2b0b3b03326eb9af7c3a0609d413b4f9950bc5085ea101", "023f36e8010579c24c87281a839ed9d492601b47847932e1bdbf6ecaffb0d151d1"], "sequence": 4294967294, "scriptSig": {"hex": "160014a414659ade2857a0f1050393eb87391459ed6219", "asm": "0014a414659ade2857a0f1050393eb87391459ed6219"}, "vout": 2, "txid": "bb258d437b93b6ad02cba22a88012f9791d71ce2c97ba07afe832396b03b5038"}, {"txinwitness": ["304402207acb17ab2181ff2ff051dece51214dd55c8a41c25c9a11c4a0a7d9af3550f4d502203c8a20966474f7e0aee70dd8045146eb7f63ed00c4c45b2a288f6a4cf1a0563801", "03f94b271bb0f76d8efa7cf21e557e5a6404afeef0cd808b1e0463af6dd70e2c30"], "sequence": 4294967294, "scriptSig": {"hex": "16001432a83637d84f9873fd3b4f454c43d67b22b62dcc", "asm": "001432a83637d84f9873fd3b4f454c43d67b22b62dcc"}, "vout": 1, "txid": "736666586a39526727191aea8f5220354daae779b75481f5d459fc6f50bc3154"}, {"txinwitness": ["3045022100fc04179e4cdd086fd2a856d28f4fa573be9a2bba8aa40b043cafe6ed2f1cfcab02205d2762366525ec53e8953e77812c55784343a9f3d398f424a4ee2fc864f8dc8501", "0265f55db42471a98c0b325cdc31f9c358701cafa34f5b004ce2f0f4254c0c43db"], "sequence": 4294967294, "scriptSig": {"hex": "1600142606197566b14befaa35c809bd09a2d20067f5fc", "asm": "00142606197566b14befaa35c809bd09a2d20067f5fc"}, "vout": 0, "txid": "1b56d1dda8a86142b47713062c96329ab282178431069ebe1ef57bd24876c6a0"}], "txid": "13a7d66370271b2e968507862d18d082186740318d658813ec8ec77901693fdf", "blocktime": 1537869901, "version": 2, "confirmations": 11522, "time": 1537869901, "locktime": 542987, "vsize": 679, "size": 1083}