{"hash": "13ae15af7fb0e11d8041951cc0004f84194ffe8a71607a36445d472683f52780", "blockhash": "0000000000000000001e0dab787dd257d1dbfcb92a98c2207d5e1078be1f4165", "vout": [{"scriptPubKey": {"reqSigs": 1, "hex": "76a9144d40f520c20372acf848de26a2ea519b41d3db9988ac", "addresses": ["183Ur6m8r6VhCuuWArfMM5rRUhrt5zQqKg"], "asm": "OP_DUP OP_HASH160 4d40f520c20372acf848de26a2ea519b41d3db99 OP_EQUALVERIFY OP_CHECKSIG", "type": "pubkeyhash"}, "value": 0.01755623, "n": 0}, {"scriptPubKey": {"reqSigs": 1, "hex": "76a914ca6403bf1afa4d85bd6da313affa8a5cafb7fd5588ac", "addresses": ["1KT9JtXZnXcMmZ9UGZCVZVdDw6qMsqLLkY"], "asm": "OP_DUP OP_HASH160 ca6403bf1afa4d85bd6da313affa8a5cafb7fd55 OP_EQUALVERIFY OP_CHECKSIG", "type": "pubkeyhash"}, "value": 0.0002, "n": 1}], "hex": "01000000019df24264cf3be9847cafd1f8b520da340590279a6fce061fc4e005a3a80621f6010000006a473044022034613095dbe84be4a2be5302af8668bc2c7daa5b236e387555fb3484f2c4017a02205fe14b5e617a687a2d5a7a124a542c405ee6b643c8ef98c50c2a5a03f0f12c5d012102a020dedd9aaabb31a34fac63f7eda517c91a537045f8e56e097e6fae87c3dcb7feffffff02e7c91a00000000001976a9144d40f520c20372acf848de26a2ea519b41d3db9988ac204e0000000000001976a914ca6403bf1afa4d85bd6da313affa8a5cafb7fd5588ac12490800", "vin": [{"sequence": 4294967294, "scriptSig": {"hex": "473044022034613095dbe84be4a2be5302af8668bc2c7daa5b236e387555fb3484f2c4017a02205fe14b5e617a687a2d5a7a124a542c405ee6b643c8ef98c50c2a5a03f0f12c5d012102a020dedd9aaabb31a34fac63f7eda517c91a537045f8e56e097e6fae87c3dcb7", "asm": "3044022034613095dbe84be4a2be5302af8668bc2c7daa5b236e387555fb3484f2c4017a02205fe14b5e617a687a2d5a7a124a542c405ee6b643c8ef98c50c2a5a03f0f12c5d[ALL] 02a020dedd9aaabb31a34fac63f7eda517c91a537045f8e56e097e6fae87c3dcb7"}, "vout": 1, "txid": "f62106a8a305e0c41f06ce6f9a27900534da20b5f8d1af7c84e93bcf6442f29d"}], "txid": "13ae15af7fb0e11d8041951cc0004f84194ffe8a71607a36445d472683f52780", "blocktime": 1537872475, "version": 1, "confirmations": 11486, "time": 1537872475, "locktime": 542994, "vsize": 225, "size": 225}