{"hash": "39e2dbf22eea9c46d436331ca2a1aa9e072bf2bcf7da31f35265eb270ce26e42", "blockhash": "0000000000000000001cda96e906b7601b7a6fb1a3b62bca570a9e5d8f4b3de1", "vout": [{"scriptPubKey": {"reqSigs": 1, "hex": "76a91445b81f8c7a0cb32479ee02157d1472d23b5fdbfd88ac", "addresses": ["17MeCLuCFiX9d4x1ebC7LmNnFg9HDBtWn5"], "asm": "OP_DUP OP_HASH160 45b81f8c7a0cb32479ee02157d1472d23b5fdbfd OP_EQUALVERIFY OP_CHECKSIG", "type": "pubkeyhash"}, "value": 0.00442375, "n": 0}, {"scriptPubKey": {"reqSigs": 1, "hex": "00147be2c878662371f7715a862b7faedb989b8a2889", "addresses": ["bc1q003vs7rxydclwu26sc4hltkmnzdc52yfda54vd"], "asm": "0 7be2c878662371f7715a862b7faedb989b8a2889", "type": "witness_v0_keyhash"}, "value": 7.047e-05, "n": 1}], "hex": "01000000000101c1b370dacf04ffa78cd5dd9fe5616ea22da1233e1ae9cb705b59ac7015036af30100000000ffffffff0207c00600000000001976a91445b81f8c7a0cb32479ee02157d1472d23b5fdbfd88ac871b0000000000001600147be2c878662371f7715a862b7faedb989b8a2889024730440220394ea7057407ca584ec4e5410043605cad94d5a5ade554c382d311d848c6613002204ed6732e63928240779ebf970a50559597f878f136787d30b48bf899b2bdc2d20121039ccd18aac4cf6ed892ac37bf7179aa7bd3155662cbb5093896e43e8f4a0524c600000000", "vin": [{"txinwitness": ["30440220394ea7057407ca584ec4e5410043605cad94d5a5ade554c382d311d848c6613002204ed6732e63928240779ebf970a50559597f878f136787d30b48bf899b2bdc2d201", "039ccd18aac4cf6ed892ac37bf7179aa7bd3155662cbb5093896e43e8f4a0524c6"], "sequence": 4294967295, "scriptSig": {"hex": "", "asm": ""}, "vout": 1, "txid": "f36a031570ac595b70cbe91a3e23a12da26e61e59fddd58ca7ff04cfda70b3c1"}], "txid": "13b04bf13aa62274e988f30c42052177a20c8965cde80e68a9019bf363472cf9", "blocktime": 1537873282, "version": 1, "confirmations": 11484, "time": 1537873282, "locktime": 0, "vsize": 144, "size": 225}