{"hash": "192f0fe93b6af3ebe9fdad0bf8c4dbe6c175a4b3e1228e230906db4a76b16858", "blockhash": "0000000000000000001f76057863aec43deb6fa401d9628bb513d65a8098bfab", "vout": [{"scriptPubKey": {"reqSigs": 1, "hex": "76a9140a3195c50a139c1268b517078c4818eb7c3cee7288ac", "addresses": ["1vuA9XxA95fff3zonS6wemPTWBvQ16vN9"], "asm": "OP_DUP OP_HASH160 0a3195c50a139c1268b517078c4818eb7c3cee72 OP_EQUALVERIFY OP_CHECKSIG", "type": "pubkeyhash"}, "value": 0.0001476, "n": 0}, {"scriptPubKey": {"reqSigs": 1, "hex": "a9140521c9f29745102b3667a9e6b33cf4c9c216c48c87", "addresses": ["32A9nCCZrEz7jaDbGh2U8uN3L9pkr7gu1X"], "asm": "OP_HASH160 0521c9f29745102b3667a9e6b33cf4c9c216c48c OP_EQUAL", "type": "scripthash"}, "value": 0.01003254, "n": 1}], "hex": "02000000000101cb895d73a25184a6bd8fc02ee46cbf2c1de4e9d108a9efdcff5b498664c070060100000017160014c6ab2ac0434ef1fd981324ada57e00f84ba6cf38feffffff02a8390000000000001976a9140a3195c50a139c1268b517078c4818eb7c3cee7288acf64e0f000000000017a9140521c9f29745102b3667a9e6b33cf4c9c216c48c87024830450221009c23e64693f2511480b13566b46adfeeb969a737ec5e083605ce0ddb2c77203e02203f1a540397aa79bd723775524bc35429e88f683172c088bcb10f73460973c088012103dfa68a572ba7d6ecc74ee4036d8245cb18050862949471b7a11391e6b93de92b14490800", "vin": [{"txinwitness": ["30450221009c23e64693f2511480b13566b46adfeeb969a737ec5e083605ce0ddb2c77203e02203f1a540397aa79bd723775524bc35429e88f683172c088bcb10f73460973c08801", "03dfa68a572ba7d6ecc74ee4036d8245cb18050862949471b7a11391e6b93de92b"], "sequence": 4294967294, "scriptSig": {"hex": "160014c6ab2ac0434ef1fd981324ada57e00f84ba6cf38", "asm": "0014c6ab2ac0434ef1fd981324ada57e00f84ba6cf38"}, "vout": 1, "txid": "0670c06486495bffdcefa908d1e9e41d2cbf6ce42ec08fbda68451a2735d89cb"}], "txid": "13b0001161715e6bfe14953ad8f97748dcd866ca3d04e3204dbb272e4456a5d3", "blocktime": 1537873891, "version": 2, "confirmations": 11478, "time": 1537873891, "locktime": 542996, "vsize": 168, "size": 250}