{"hash": "13b4c3cd46c1193841e3e54283c0e18ddbdf415fd0a0e7b812aec56a127dc3d5", "blockhash": "0000000000000000001f76057863aec43deb6fa401d9628bb513d65a8098bfab", "vout": [{"scriptPubKey": {"reqSigs": 1, "hex": "a914dd4293b822c8cb0f3ea1bd9e02ce9661cfb1041d87", "addresses": ["3Mrw1nrDb1TekwfgF61ZeAuuCdnRR7Gs7w"], "asm": "OP_HASH160 dd4293b822c8cb0f3ea1bd9e02ce9661cfb1041d OP_EQUAL", "type": "scripthash"}, "value": 0.001688, "n": 0}, {"scriptPubKey": {"reqSigs": 1, "hex": "76a914f4b00db064754744950cab5991e0aa74a151440e88ac", "addresses": ["1PJnnDYqSG32MaESt7AFYW3xnUadangrh9"], "asm": "OP_DUP OP_HASH160 f4b00db064754744950cab5991e0aa74a151440e OP_EQUALVERIFY OP_CHECKSIG", "type": "pubkeyhash"}, "value": 0.4640777, "n": 1}], "hex": "01000000016f7429f257102277227c9600baed7f5edc31fe315d7ac0a98151279824de9de6010000006b483045022100f38afee84f1dc077dd37b006e020c5e570964bb797653760f670ab1b37bd6faa0220649c75db83bb1ddedef23fd818aad459b3822e2e1f3656e00e44ad9efbf107770121034e47d5123628d34eb24d843d40facb06512c818fb5fe6478a8e41c44a4697aa1ffffffff02609302000000000017a914dd4293b822c8cb0f3ea1bd9e02ce9661cfb1041d875a20c402000000001976a914f4b00db064754744950cab5991e0aa74a151440e88ac00000000", "vin": [{"sequence": 4294967295, "scriptSig": {"hex": "483045022100f38afee84f1dc077dd37b006e020c5e570964bb797653760f670ab1b37bd6faa0220649c75db83bb1ddedef23fd818aad459b3822e2e1f3656e00e44ad9efbf107770121034e47d5123628d34eb24d843d40facb06512c818fb5fe6478a8e41c44a4697aa1", "asm": "3045022100f38afee84f1dc077dd37b006e020c5e570964bb797653760f670ab1b37bd6faa0220649c75db83bb1ddedef23fd818aad459b3822e2e1f3656e00e44ad9efbf10777[ALL] 034e47d5123628d34eb24d843d40facb06512c818fb5fe6478a8e41c44a4697aa1"}, "vout": 1, "txid": "e69dde2498275181a9c07a5d31fe31dc5e7fedba00967c2277221057f229746f"}], "txid": "13b4c3cd46c1193841e3e54283c0e18ddbdf415fd0a0e7b812aec56a127dc3d5", "blocktime": 1537873891, "version": 1, "confirmations": 11475, "time": 1537873891, "locktime": 0, "vsize": 224, "size": 224}