{"hash": "13b91f0edaad78c31bf21a88d3d2df9e2e2d5c9325e68436660fe2fbc3eacc3d", "blockhash": "00000000000000000017f5eb5941039fbcee6240d03bc1f2f8e35350df66a1d8", "vout": [{"scriptPubKey": {"reqSigs": 1, "hex": "76a9143d8c4972d614afa706810c95be29c7610efa43b688ac", "addresses": ["16cSH1QME7zDqyHvPWYriAtK5UvyyyafEF"], "asm": "OP_DUP OP_HASH160 3d8c4972d614afa706810c95be29c7610efa43b6 OP_EQUALVERIFY OP_CHECKSIG", "type": "pubkeyhash"}, "value": 0.00056789, "n": 0}, {"scriptPubKey": {"reqSigs": 1, "hex": "76a914b9e7f54fc1817887365c872f722e47d75adfa05d88ac", "addresses": ["1HwytEMbVDm5zEWKYqrWnGh6qt9x9AqGq6"], "asm": "OP_DUP OP_HASH160 b9e7f54fc1817887365c872f722e47d75adfa05d OP_EQUALVERIFY OP_CHECKSIG", "type": "pubkeyhash"}, "value": 2.50078398, "n": 1}], "hex": "010000000139d49581537fde6a65ca92ce71fc8fe1f93b0217bd4a6955201a636498222075010000006b483045022100fada221b1187d8bd662012b54ec47d720f32c366164ccfd69f6230745793302a02205923c84cc65278d7a43b52b9b576571f1ef7d4b7afd6f907ff69f72fd69123ea0121035f7c1f1c4b507bc28ca4c5fd1eb571a480bd6b23bbcf7307e05a4519923b2b24ffffffff02d5dd0000000000001976a9143d8c4972d614afa706810c95be29c7610efa43b688acbee4e70e000000001976a914b9e7f54fc1817887365c872f722e47d75adfa05d88ac00000000", "vin": [{"sequence": 4294967295, "scriptSig": {"hex": "483045022100fada221b1187d8bd662012b54ec47d720f32c366164ccfd69f6230745793302a02205923c84cc65278d7a43b52b9b576571f1ef7d4b7afd6f907ff69f72fd69123ea0121035f7c1f1c4b507bc28ca4c5fd1eb571a480bd6b23bbcf7307e05a4519923b2b24", "asm": "3045022100fada221b1187d8bd662012b54ec47d720f32c366164ccfd69f6230745793302a02205923c84cc65278d7a43b52b9b576571f1ef7d4b7afd6f907ff69f72fd69123ea[ALL] 035f7c1f1c4b507bc28ca4c5fd1eb571a480bd6b23bbcf7307e05a4519923b2b24"}, "vout": 1, "txid": "7520229864631a2055694abd17023bf9e18ffc71ce92ca656ade7f538195d439"}], "txid": "13b91f0edaad78c31bf21a88d3d2df9e2e2d5c9325e68436660fe2fbc3eacc3d", "blocktime": 1537874412, "version": 1, "confirmations": 11467, "time": 1537874412, "locktime": 0, "vsize": 226, "size": 226}