{"hash": "13cbbd2e963fc119d87e8b731a640a35b1e7d561070ec66ba37c60b1dcdd3863", "blockhash": "0000000000000000001cda96e906b7601b7a6fb1a3b62bca570a9e5d8f4b3de1", "vout": [{"scriptPubKey": {"reqSigs": 1, "hex": "76a9149fcacf7cd192aa4d85dba1d8234c8eb4ba910f9888ac", "addresses": ["1FZuQ2FLFHNazMaQ4NwGncg8FwnPtg6hgt"], "asm": "OP_DUP OP_HASH160 9fcacf7cd192aa4d85dba1d8234c8eb4ba910f98 OP_EQUALVERIFY OP_CHECKSIG", "type": "pubkeyhash"}, "value": 0.0154569, "n": 0}, {"scriptPubKey": {"reqSigs": 1, "hex": "76a9144ee1e1ab809f54cbff71f3cffd02f82edef77c8f88ac", "addresses": ["18C6JVCPvVaA9cyZGixEoRPsTumSf6xhbR"], "asm": "OP_DUP OP_HASH160 4ee1e1ab809f54cbff71f3cffd02f82edef77c8f OP_EQUALVERIFY OP_CHECKSIG", "type": "pubkeyhash"}, "value": 0.30333168, "n": 1}], "hex": "0100000001f9bf9dd858094d176c555cd324b9d9b4b414395c36310c8ba8fb5ff9291f6904010000006a4730440220764a46b71a4233c05831d5d3b30f8c7a50919b9244fc1523ac3d181c28052eaa022012a85261a0333111a29e0dd4c7ea239a397d5159595f575882fede1c04b6e60401210305a730feafdad47f070e02cc5452ffd342f578061d17a488a1bdb8a5ccac575affffffff02da951700000000001976a9149fcacf7cd192aa4d85dba1d8234c8eb4ba910f9888acf0d8ce01000000001976a9144ee1e1ab809f54cbff71f3cffd02f82edef77c8f88ac00000000", "vin": [{"sequence": 4294967295, "scriptSig": {"hex": "4730440220764a46b71a4233c05831d5d3b30f8c7a50919b9244fc1523ac3d181c28052eaa022012a85261a0333111a29e0dd4c7ea239a397d5159595f575882fede1c04b6e60401210305a730feafdad47f070e02cc5452ffd342f578061d17a488a1bdb8a5ccac575a", "asm": "30440220764a46b71a4233c05831d5d3b30f8c7a50919b9244fc1523ac3d181c28052eaa022012a85261a0333111a29e0dd4c7ea239a397d5159595f575882fede1c04b6e604[ALL] 0305a730feafdad47f070e02cc5452ffd342f578061d17a488a1bdb8a5ccac575a"}, "vout": 1, "txid": "04691f29f95ffba88b0c31365c3914b4b4d9b924d35c556c174d0958d89dbff9"}], "txid": "13cbbd2e963fc119d87e8b731a640a35b1e7d561070ec66ba37c60b1dcdd3863", "blocktime": 1537873282, "version": 1, "confirmations": 11484, "time": 1537873282, "locktime": 0, "vsize": 225, "size": 225}