{"hash": "13cb3c84f2e73196e6e90d2ae489c518dd08a807a39b7cc14d1223cfce60752d", "blockhash": "0000000000000000001cda96e906b7601b7a6fb1a3b62bca570a9e5d8f4b3de1", "vout": [{"scriptPubKey": {"type": "nulldata", "hex": "6a4c50000077d200012ce9c442b200aff379bfb7e25b23cc0f42c2fc38c5e5bf9ae76da98a211a673ac5ea5c8ec9686083e0aacbeee2815baa14c20613fff26d9e18171d100759d4ba30d2c37bb011d97e02cf", "asm": "OP_RETURN 000077d200012ce9c442b200aff379bfb7e25b23cc0f42c2fc38c5e5bf9ae76da98a211a673ac5ea5c8ec9686083e0aacbeee2815baa14c20613fff26d9e18171d100759d4ba30d2c37bb011d97e02cf"}, "value": 0.0, "n": 0}, {"scriptPubKey": {"reqSigs": 1, "hex": "76a914207e1b8f4c93947a3f944789a7a9d5d20c3cb59c88ac", "addresses": ["13xohFcyvEr4xwB7WGE9XUuQKohTemMKUw"], "asm": "OP_DUP OP_HASH160 207e1b8f4c93947a3f944789a7a9d5d20c3cb59c OP_EQUALVERIFY OP_CHECKSIG", "type": "pubkeyhash"}, "value": 0.00636756, "n": 1}], "hex": "0100000001d316638933fdab5a3c444401389fd171466aedfff976caa51d33010f11e2eb62010000006b483045022100f6587517392bbe0126b8e4f61f370bc3b8a667f37ce2dc64b3d726094ce42c04022060fb3bb3f1b58985dc66e25bda7218a031abbc6aaff0e861123cbc216367479d0121030669c0c79266798acc28ae2d3d3b380a40518f27ff97d9c7408c2b6cdb084e2cffffffff020000000000000000536a4c50000077d200012ce9c442b200aff379bfb7e25b23cc0f42c2fc38c5e5bf9ae76da98a211a673ac5ea5c8ec9686083e0aacbeee2815baa14c20613fff26d9e18171d100759d4ba30d2c37bb011d97e02cf54b70900000000001976a914207e1b8f4c93947a3f944789a7a9d5d20c3cb59c88ac00000000", "vin": [{"sequence": 4294967295, "scriptSig": {"hex": "483045022100f6587517392bbe0126b8e4f61f370bc3b8a667f37ce2dc64b3d726094ce42c04022060fb3bb3f1b58985dc66e25bda7218a031abbc6aaff0e861123cbc216367479d0121030669c0c79266798acc28ae2d3d3b380a40518f27ff97d9c7408c2b6cdb084e2c", "asm": "3045022100f6587517392bbe0126b8e4f61f370bc3b8a667f37ce2dc64b3d726094ce42c04022060fb3bb3f1b58985dc66e25bda7218a031abbc6aaff0e861123cbc216367479d[ALL] 030669c0c79266798acc28ae2d3d3b380a40518f27ff97d9c7408c2b6cdb084e2c"}, "vout": 1, "txid": "62ebe2110f01331da5ca76f9ffed6a4671d19f380144443c5aabfd33896316d3"}], "txid": "13cb3c84f2e73196e6e90d2ae489c518dd08a807a39b7cc14d1223cfce60752d", "blocktime": 1537873282, "version": 1, "confirmations": 11484, "time": 1537873282, "locktime": 0, "vsize": 284, "size": 284}