{"hash": "13cd56c2e7ee7ad288a4aa71523fba39cd14e2b533e9b11f5ebbadc2578f4c3b", "blockhash": "000000000000000000022b45ed06c6f4ccd3cf7fb5ba4856ebd2e58215665228", "vout": [{"scriptPubKey": {"reqSigs": 1, "hex": "a9143f4eecba122ad73039d481c8d37f99cb4f887cd887", "addresses": ["37Tm3Qz8Zw2VJrheUUhArDAoq58S6YrS3g"], "asm": "OP_HASH160 3f4eecba122ad73039d481c8d37f99cb4f887cd8 OP_EQUAL", "type": "scripthash"}, "value": 1.0, "n": 0}, {"scriptPubKey": {"reqSigs": 1, "hex": "a91497fb25dc7076111c68be6b1f647816731a24dac987", "addresses": ["3FYcpa7oVE8kSE31zDJc6pjdJpynMMsBZ3"], "asm": "OP_HASH160 97fb25dc7076111c68be6b1f647816731a24dac9 OP_EQUAL", "type": "scripthash"}, "value": 13.26328846, "n": 1}], "hex": "0100000001d73f6f5020889b5bcb2fc097cc2deec8839f91aef20e66072f5440428116f7e301000000fdfe0000483045022100970ea5a14a90d45f8ab6df64936f1bc620afeb8fceb68bd4f9e304c930949c0302207dcc9324ec93c2ef8505d56d84e11805cf2856d61f6b7ea58c0c71c5c8bbce1101483045022100b7aae4067a898df9f6b6b0b0fd3b487101a96ae77cb18f7d2befa846e5cea749022049233810592144b8a57c93984368d019b71c4c6acff6c4ee196099848607253f014c695221032f50fd25d6b5364062baa274420905398db499d9b88c2811a2446608fe74b00621038167849297081a04bf622d3cff55bbd0a6b4094d4480a07499f30e87d8d33cba21029b6b072e06acbff5f7b28aae149a4a326d9b93538ebc1e2fda0773589af9a79453aeffffffff0200e1f5050000000017a9143f4eecba122ad73039d481c8d37f99cb4f887cd8870e2c0e4f0000000017a91497fb25dc7076111c68be6b1f647816731a24dac98700000000", "vin": [{"sequence": 4294967295, "scriptSig": {"hex": "00483045022100970ea5a14a90d45f8ab6df64936f1bc620afeb8fceb68bd4f9e304c930949c0302207dcc9324ec93c2ef8505d56d84e11805cf2856d61f6b7ea58c0c71c5c8bbce1101483045022100b7aae4067a898df9f6b6b0b0fd3b487101a96ae77cb18f7d2befa846e5cea749022049233810592144b8a57c93984368d019b71c4c6acff6c4ee196099848607253f014c695221032f50fd25d6b5364062baa274420905398db499d9b88c2811a2446608fe74b00621038167849297081a04bf622d3cff55bbd0a6b4094d4480a07499f30e87d8d33cba21029b6b072e06acbff5f7b28aae149a4a326d9b93538ebc1e2fda0773589af9a79453ae", "asm": "0 3045022100970ea5a14a90d45f8ab6df64936f1bc620afeb8fceb68bd4f9e304c930949c0302207dcc9324ec93c2ef8505d56d84e11805cf2856d61f6b7ea58c0c71c5c8bbce11[ALL] 3045022100b7aae4067a898df9f6b6b0b0fd3b487101a96ae77cb18f7d2befa846e5cea749022049233810592144b8a57c93984368d019b71c4c6acff6c4ee196099848607253f[ALL] 5221032f50fd25d6b5364062baa274420905398db499d9b88c2811a2446608fe74b00621038167849297081a04bf622d3cff55bbd0a6b4094d4480a07499f30e87d8d33cba21029b6b072e06acbff5f7b28aae149a4a326d9b93538ebc1e2fda0773589af9a79453ae"}, "vout": 1, "txid": "e3f716814240542f07660ef2ae919f83c8ee2dcc97c02fcb5b9b8820506f3fd7"}], "txid": "13cd56c2e7ee7ad288a4aa71523fba39cd14e2b533e9b11f5ebbadc2578f4c3b", "blocktime": 1537869901, "version": 1, "confirmations": 11522, "time": 1537869901, "locktime": 0, "vsize": 371, "size": 371}