{"hash": "13d24f5053872f1ca7479038dae796f020d285f3aa39630f24e172ef0edc2ca5", "blockhash": "0000000000000000001cda96e906b7601b7a6fb1a3b62bca570a9e5d8f4b3de1", "vout": [{"scriptPubKey": {"reqSigs": 1, "hex": "a91471b6670ff0b59b522195dc2811af30cd6649f9cd87", "addresses": ["3C4GnmsjCALSgDGivxGinqvEK4LMRWYLqE"], "asm": "OP_HASH160 71b6670ff0b59b522195dc2811af30cd6649f9cd OP_EQUAL", "type": "scripthash"}, "value": 0.02123404, "n": 0}, {"scriptPubKey": {"reqSigs": 1, "hex": "76a9145344d97932f95bf17e1287caca60f7908a11399e88ac", "addresses": ["18bHZfpzY98cYr7QQMzbB38ch9z7jifGJH"], "asm": "OP_DUP OP_HASH160 5344d97932f95bf17e1287caca60f7908a11399e OP_EQUALVERIFY OP_CHECKSIG", "type": "pubkeyhash"}, "value": 0.05079029, "n": 1}], "hex": "0100000001996b6d5f726280796791c4c03420a2a7909e3070d7b162befeba483966a0b01f000000006b483045022100853c16af6b69c3cfe5da0cde81d0945f1481638832952d7d6a39af945be657b30220030011ba4aa9b586ac4c3e0304638477d1951c8fd59c47823a30d13aace6ab75012103dc58fbeb6a9920f1d27dd40e19a5772490831c04038501987cccad2ed67d03c0ffffffff028c6620000000000017a91471b6670ff0b59b522195dc2811af30cd6649f9cd87f57f4d00000000001976a9145344d97932f95bf17e1287caca60f7908a11399e88ac00000000", "vin": [{"sequence": 4294967295, "scriptSig": {"hex": "483045022100853c16af6b69c3cfe5da0cde81d0945f1481638832952d7d6a39af945be657b30220030011ba4aa9b586ac4c3e0304638477d1951c8fd59c47823a30d13aace6ab75012103dc58fbeb6a9920f1d27dd40e19a5772490831c04038501987cccad2ed67d03c0", "asm": "3045022100853c16af6b69c3cfe5da0cde81d0945f1481638832952d7d6a39af945be657b30220030011ba4aa9b586ac4c3e0304638477d1951c8fd59c47823a30d13aace6ab75[ALL] 03dc58fbeb6a9920f1d27dd40e19a5772490831c04038501987cccad2ed67d03c0"}, "vout": 0, "txid": "1fb0a0663948bafebe62b1d770309e90a7a22034c0c49167798062725f6d6b99"}], "txid": "13d24f5053872f1ca7479038dae796f020d285f3aa39630f24e172ef0edc2ca5", "blocktime": 1537873282, "version": 1, "confirmations": 11485, "time": 1537873282, "locktime": 0, "vsize": 224, "size": 224}