{"hash": "13d6b9a0b7506b092c8da987467236a87d4588ef43215fc82185c3ce6762ee3b", "blockhash": "00000000000000000004ffacab907a6b429b9a5745fa0b75af4234bf69dd7176", "vout": [{"scriptPubKey": {"reqSigs": 1, "hex": "a914b89af2a4cc41316859f829d4561e096c45c2731b87", "addresses": ["3JX7sobyxXTtSV9yeUxsn5GTAGR64GmQrk"], "asm": "OP_HASH160 b89af2a4cc41316859f829d4561e096c45c2731b OP_EQUAL", "type": "scripthash"}, "value": 16.0, "n": 0}, {"scriptPubKey": {"reqSigs": 1, "hex": "76a9142b334d8efb835235204f49c7930f2f5346afdd9e88ac", "addresses": ["14wRWqnMUDFAHBeu1KgNhpm6B6yvxGi55R"], "asm": "OP_DUP OP_HASH160 2b334d8efb835235204f49c7930f2f5346afdd9e OP_EQUALVERIFY OP_CHECKSIG", "type": "pubkeyhash"}, "value": 2.00524746, "n": 1}], "hex": "01000000020790fbc4698ccbf24b38dfe72cc88f43d91a4a197e5f44926cfe33edd361a8c2010000006a47304402202dfd6e877cdeed57bce29d72b5015f83f7829c5b6173fb9fa8fe020ceed8d44c0220526187f9488a7d68d78b0c6108770381870efb0e99d51a313c8c97a766c81a710121036dc53f176a0415b957e4112c9a2ffe8f72b325c4bfd921f51fb8e688f5c5489bffffffff583951d1dc0b1b89a7014852192564727cb3698c4921925a3e0c91fbaec6149f000000006a47304402203d8219059d09649cf9d58c51125a97ae7862ad4a87370c464356fb3cb8b88356022075c6886ec4394e15e45e6b9ee967c3b63f91c7ff64678c52ac5c7911dd296d9701210328ce4d30d3197f5320e7082c3ab11b1f7444c78625c6e4530265a8c1f9e7e156ffffffff0200105e5f0000000017a914b89af2a4cc41316859f829d4561e096c45c2731b87cac3f30b000000001976a9142b334d8efb835235204f49c7930f2f5346afdd9e88ac00000000", "vin": [{"sequence": 4294967295, "scriptSig": {"hex": "47304402202dfd6e877cdeed57bce29d72b5015f83f7829c5b6173fb9fa8fe020ceed8d44c0220526187f9488a7d68d78b0c6108770381870efb0e99d51a313c8c97a766c81a710121036dc53f176a0415b957e4112c9a2ffe8f72b325c4bfd921f51fb8e688f5c5489b", "asm": "304402202dfd6e877cdeed57bce29d72b5015f83f7829c5b6173fb9fa8fe020ceed8d44c0220526187f9488a7d68d78b0c6108770381870efb0e99d51a313c8c97a766c81a71[ALL] 036dc53f176a0415b957e4112c9a2ffe8f72b325c4bfd921f51fb8e688f5c5489b"}, "vout": 1, "txid": "c2a861d3ed33fe6c92445f7e194a1ad9438fc82ce7df384bf2cb8c69c4fb9007"}, {"sequence": 4294967295, "scriptSig": {"hex": "47304402203d8219059d09649cf9d58c51125a97ae7862ad4a87370c464356fb3cb8b88356022075c6886ec4394e15e45e6b9ee967c3b63f91c7ff64678c52ac5c7911dd296d9701210328ce4d30d3197f5320e7082c3ab11b1f7444c78625c6e4530265a8c1f9e7e156", "asm": "304402203d8219059d09649cf9d58c51125a97ae7862ad4a87370c464356fb3cb8b88356022075c6886ec4394e15e45e6b9ee967c3b63f91c7ff64678c52ac5c7911dd296d97[ALL] 0328ce4d30d3197f5320e7082c3ab11b1f7444c78625c6e4530265a8c1f9e7e156"}, "vout": 0, "txid": "9f14c6aefb910c3e5a9221498c69b37c72642519524801a7891b0bdcd1513958"}], "txid": "13d6b9a0b7506b092c8da987467236a87d4588ef43215fc82185c3ce6762ee3b", "blocktime": 1537875543, "version": 1, "confirmations": 11464, "time": 1537875543, "locktime": 0, "vsize": 370, "size": 370}