{"hash": "efecbe69b5269332e94222df6bf932e2b189b6f8909f274332740e717469e52b", "blockhash": "00000000000000000018f53835495a110e01622372bf6ae95dc86f2b0ab887b0", "vout": [{"scriptPubKey": {"reqSigs": 1, "hex": "a9140469881126f5d578160c0d05a1135993d24b0f6587", "addresses": ["326M3mZMpEs9TeY7yKMSsimU6CpTHJvq8S"], "asm": "OP_HASH160 0469881126f5d578160c0d05a1135993d24b0f65 OP_EQUAL", "type": "scripthash"}, "value": 0.005, "n": 0}, {"scriptPubKey": {"reqSigs": 1, "hex": "a9147cd43250acc0d2c13e4bc265ae67e7b26c06ffe187", "addresses": ["3D53v1FDT7qaYWNTBdMpeQmoH4hH1GoKTp"], "asm": "OP_HASH160 7cd43250acc0d2c13e4bc265ae67e7b26c06ffe1 OP_EQUAL", "type": "scripthash"}, "value": 4e-05, "n": 1}, {"scriptPubKey": {"reqSigs": 1, "hex": "a914c2c5501bc13db6be2a439ceb1154f8b6e434f8a387", "addresses": ["3KSsPJREic5hJkANZ5a6Ujh8Qd4DVWypTw"], "asm": "OP_HASH160 c2c5501bc13db6be2a439ceb1154f8b6e434f8a3 OP_EQUAL", "type": "scripthash"}, "value": 0.0001, "n": 2}, {"scriptPubKey": {"reqSigs": 1, "hex": "76a91495cc60bc9b310723f6c97f29eee6fa1222200b2c88ac", "addresses": ["1Ef4X1PLR7Mi68pnjUZPYoAymXC7ddjMES"], "asm": "OP_DUP OP_HASH160 95cc60bc9b310723f6c97f29eee6fa1222200b2c OP_EQUALVERIFY OP_CHECKSIG", "type": "pubkeyhash"}, "value": 0.001, "n": 3}, {"scriptPubKey": {"reqSigs": 1, "hex": "a9147e8edb7bcd9dd156e056fa9084fb7beeceab459c87", "addresses": ["3DECCcmw7TrR6t4ZNq6bRsEt6UK8uFr68h"], "asm": "OP_HASH160 7e8edb7bcd9dd156e056fa9084fb7beeceab459c OP_EQUAL", "type": "scripthash"}, "value": 0.00065996, "n": 4}, {"scriptPubKey": {"reqSigs": 1, "hex": "a914ead8174d2a606e788c7a4d3ee4cf36c37792274987", "addresses": ["3P6kuhXBNS9FERu3jKaDvDXPz5yZyVA7EY"], "asm": "OP_HASH160 ead8174d2a606e788c7a4d3ee4cf36c377922749 OP_EQUAL", "type": "scripthash"}, "value": 0.00015211, "n": 5}, {"scriptPubKey": {"reqSigs": 1, "hex": "a9140cf3a9187c192b5056c738598bea52061c8f88dd87", "addresses": ["32sVvgAmN4Ks4ijJSDVD8xhfgNrk7bTf94"], "asm": "OP_HASH160 0cf3a9187c192b5056c738598bea52061c8f88dd OP_EQUAL", "type": "scripthash"}, "value": 5e-05, "n": 6}, {"scriptPubKey": {"reqSigs": 1, "hex": "a914341beeff9489858128209e9920797d0646e06e0c87", "addresses": ["36SYXNutzUpX3ynmUqp2FrKZrCiYyWSLad"], "asm": "OP_HASH160 341beeff9489858128209e9920797d0646e06e0c OP_EQUAL", "type": "scripthash"}, "value": 0.0012, "n": 7}, {"scriptPubKey": {"reqSigs": 1, "hex": "a914d0a38f074613de6b7156473dc72e98b8262c957387", "addresses": ["3LiCQhhWnyAFez5d1s65rKxyuPyfCd92uJ"], "asm": "OP_HASH160 d0a38f074613de6b7156473dc72e98b8262c9573 OP_EQUAL", "type": "scripthash"}, "value": 0.00030324, "n": 8}], "hex": "01000000000107d7b1e9b2a0ec18cb9f43aaeb049a5d6d5045bb69ad8d4018f91868d676fe51400a00000023220020d0cbee7a37b82fb1c3589fab4a0a3a3756a9fa6c9ce0f3f9a18d8ad826b3ab72ffffffffd7b1e9b2a0ec18cb9f43aaeb049a5d6d5045bb69ad8d4018f91868d676fe51400900000023220020182d917fc976be30172f3db805d10098c85297aa753edd6cef3e05bec88dcba8ffffffff9c698ea15ce6ee72ec322fd2f7d5e13345b25062506541f0c5defb3be5544e360e00000023220020a844534e5bd45eadbd4dfce202be74e9f77fdf4b68ba5cc2b427a5f06d8eee76ffffffffd7b1e9b2a0ec18cb9f43aaeb049a5d6d5045bb69ad8d4018f91868d676fe51400b000000fdfd00004830450221008ead0ecdd592d9321d092434d9ab78fc3c747f60b2f3e96ab0825c3a5710fee0022073c19571e0b553fa0d45d8f60eb3026a1615af1a4af40f5ba0f6bec404aa898c0147304402202ec9455f04e176b6d39ae731ea8cfe47d58b214b6b303f81f8b0b302d135c6b60220140e53e59868e2c8b5a5edb1bc949daaa1d094a23aacb62d5a81e625fc2a1c41014c69522102fdcac10f8c21d4032f9e64d8437e77a9610dbb4a1d3bf462162837f9f92b68a7210383e4bbf38e71510b6d78748fc4f7785d8ccd1d6c277ddb741a02cc8754b1cdf62102abb674787e3243f6ce7ec2150503e7ea1393d07a773ae2cf9c187c056fda785753aeffffffff6a3587fbcc1fb97d33df1ee473e5c7ea97b398fd12829267cc1273ee204bb06b01000000fdfd0000473044022033797bd54d00ce4ca1838d640e2ffff01834eca1ce2c13b4a1114a147b535efa02200e76fecf4ab2fdf19f33e70b01d4087b39fd1230bdfbc2d293a4625d9814427101483045022100fc81673cbaa36297b4bb3cebb1bed3218a6c0dda105b4245efd7897d64f567ec0220301ec74f6aa1142d54cb808cd7d3419b29601728ef6df0317cdf6470cf8eb61e014c69522103d7849dd5c1d94a5783284a6b8fd1153c721cacd513266e777112c82412c2ee3b2103e9eb875d18e8c7df9af5e519bd73d8292b21e2df91a32b591bf607cf0e71a03121022eeec8afc63b6dac3e647fcf5f0e1856fbd057d4ae407d5a361e290faffa432053aeffffffff6a3587fbcc1fb97d33df1ee473e5c7ea97b398fd12829267cc1273ee204bb06b0800000023220020a844534e5bd45eadbd4dfce202be74e9f77fdf4b68ba5cc2b427a5f06d8eee76ffffffff6a3587fbcc1fb97d33df1ee473e5c7ea97b398fd12829267cc1273ee204bb06b090000002322002089d7023292dc199ef951219f2a8e0cbc04b9fbc1d4885b48163a7f873b8b3e2dffffffff0920a107000000000017a9140469881126f5d578160c0d05a1135993d24b0f6587a00f00000000000017a9147cd43250acc0d2c13e4bc265ae67e7b26c06ffe187102700000000000017a914c2c5501bc13db6be2a439ceb1154f8b6e434f8a387a0860100000000001976a91495cc60bc9b310723f6c97f29eee6fa1222200b2c88accc0101000000000017a9147e8edb7bcd9dd156e056fa9084fb7beeceab459c876b3b00000000000017a914ead8174d2a606e788c7a4d3ee4cf36c37792274987881300000000000017a9140cf3a9187c192b5056c738598bea52061c8f88dd87c0d401000000000017a914341beeff9489858128209e9920797d0646e06e0c87747600000000000017a914d0a38f074613de6b7156473dc72e98b8262c9573870400483045022100891db30127280624fb148fc7783ab779d057064f80c1148ac7f171670b491409022040cd32043af0242ca00a6285578279e73f723efa60df8e41c136878295650acc01483045022100b9f0baa4db53fc6c36c510e6a07782ca33166294b857bbbcd549515eb475181d02201c3c65cb7a789e61116dc48a620429e124bb4b2c1bc8889ece44c520ec4d6a8c0169522103b917e0a589d52c0d283b4c6e22ad95a04ce931b4aa1d583c3bb51f503f3a2122210203ec38e015c8222347f183a97e6988c67ee113af54e4ab5991f037cbd75f99f22102875ff07d577f034cf4de99238cb8596b77b218c3313d96bd44c6bec1a93eafb053ae0400483045022100c660e7ee0c22e83258375e4e3a8f57896a693292312e39d616d2d7207912bff002206aa162b28474f2e437c7981a94ca6df2ae64f3ac5b3416ac8a5319df6c9210c90147304402200ceddfc451d74e4a51c5b9b4a96411b2ccac06badc57cb8274166652b1116e1902203ee15546524857147f4330c62f84a5be6c260a4994910b1295913c66598d7b050169522103222ed0096090ab3647eaa7ddb1fff3123918f0e6eaf040d5df75c4f0d23060b121035c88ad970cc6b2da798ccac766c0a043367ceda2e997a9e7d03a77e0753a3c1e2102b37c4d4d59a43ccc910edcba99433b34d94ade7d581b897f124f1f5a04d114ba53ae040047304402200e35689dfe2973eba782de16be01cad2cf87310c0e71244e3276221c3f26cb8e022046f8ad8f611fedd98da2acc3e74369f7005a3198dc448de567a0d5537019c2850147304402205db722c29f5f47edf6b6ab6ef863dab0dc26354df301e5a57aa1087f301d36cc022031ae98562bcf7179c75a9d12bbbf49bc8ed9d0ae2d345401fab78fc4f5606d7701695221029989009d2e33da6dbff1a1fb8d53f6c01bba00d3ff70a6c1d6a0c56d09f71b2f21029edf19e71e7b9ec5028e8bd34aff80ab26d2888f56c1795dfb3f9527de3fe03f2103f161dbfed91edfc35b712540b15b0a69963435018a08e9d0b6bf0891b868abf453ae000004004730440220131d700ffd7dcc23a8f5f9e27a71412a13c82334bcfb1c3b3eaba31cdd0a6fab02202dc25e1d6053b550e50f1a1b68d51b9a81e6a52951d071732d966cb9acb433de0147304402205e55f1815f0cae3b3bce7384b9428c06bab3cd14baf93f5444413913333ed783022073ae39f29162bd471f49e06045b23d356819bf4b020e0834ec3c5d0e7092b03001695221029989009d2e33da6dbff1a1fb8d53f6c01bba00d3ff70a6c1d6a0c56d09f71b2f21029edf19e71e7b9ec5028e8bd34aff80ab26d2888f56c1795dfb3f9527de3fe03f2103f161dbfed91edfc35b712540b15b0a69963435018a08e9d0b6bf0891b868abf453ae040047304402200ebba2a5cb8ea0f78f15af8f21dfc7a73fb2a678bd58ccf6c4fa17c5dcb78f72022055ead123b4927af2736cbeb14da65dbc7ea8afd2c622b97ebb607951ae334aaf01483045022100f16dc51ef72a379ec95d503a6de1183cdd8deacfcb9dcb8128dab71feed6f6ad022021cda72ba32660a016a641699a4e704df88e55a08c9470311b91d75554cd97600169522103d81c55e751513a814b35101dc3d12c6b60b010d48b36660199b8547a76c30a312102255cb0555e767d416599d0e9e26d2caea35e76c1d7b1c42c7ccc986428efebee2102490df14f06d3e248979fbfbd1c1220040e36a76add123807127346a252c9374f53ae00000000", "vin": [{"txinwitness": ["", "3045022100891db30127280624fb148fc7783ab779d057064f80c1148ac7f171670b491409022040cd32043af0242ca00a6285578279e73f723efa60df8e41c136878295650acc01", "3045022100b9f0baa4db53fc6c36c510e6a07782ca33166294b857bbbcd549515eb475181d02201c3c65cb7a789e61116dc48a620429e124bb4b2c1bc8889ece44c520ec4d6a8c01", "522103b917e0a589d52c0d283b4c6e22ad95a04ce931b4aa1d583c3bb51f503f3a2122210203ec38e015c8222347f183a97e6988c67ee113af54e4ab5991f037cbd75f99f22102875ff07d577f034cf4de99238cb8596b77b218c3313d96bd44c6bec1a93eafb053ae"], "sequence": 4294967295, "scriptSig": {"hex": "220020d0cbee7a37b82fb1c3589fab4a0a3a3756a9fa6c9ce0f3f9a18d8ad826b3ab72", "asm": "0020d0cbee7a37b82fb1c3589fab4a0a3a3756a9fa6c9ce0f3f9a18d8ad826b3ab72"}, "vout": 10, "txid": "4051fe76d66818f918408dad69bb45506d5d9a04ebaa439fcb18eca0b2e9b1d7"}, {"txinwitness": ["", "3045022100c660e7ee0c22e83258375e4e3a8f57896a693292312e39d616d2d7207912bff002206aa162b28474f2e437c7981a94ca6df2ae64f3ac5b3416ac8a5319df6c9210c901", "304402200ceddfc451d74e4a51c5b9b4a96411b2ccac06badc57cb8274166652b1116e1902203ee15546524857147f4330c62f84a5be6c260a4994910b1295913c66598d7b0501", "522103222ed0096090ab3647eaa7ddb1fff3123918f0e6eaf040d5df75c4f0d23060b121035c88ad970cc6b2da798ccac766c0a043367ceda2e997a9e7d03a77e0753a3c1e2102b37c4d4d59a43ccc910edcba99433b34d94ade7d581b897f124f1f5a04d114ba53ae"], "sequence": 4294967295, "scriptSig": {"hex": "220020182d917fc976be30172f3db805d10098c85297aa753edd6cef3e05bec88dcba8", "asm": "0020182d917fc976be30172f3db805d10098c85297aa753edd6cef3e05bec88dcba8"}, "vout": 9, "txid": "4051fe76d66818f918408dad69bb45506d5d9a04ebaa439fcb18eca0b2e9b1d7"}, {"txinwitness": ["", "304402200e35689dfe2973eba782de16be01cad2cf87310c0e71244e3276221c3f26cb8e022046f8ad8f611fedd98da2acc3e74369f7005a3198dc448de567a0d5537019c28501", "304402205db722c29f5f47edf6b6ab6ef863dab0dc26354df301e5a57aa1087f301d36cc022031ae98562bcf7179c75a9d12bbbf49bc8ed9d0ae2d345401fab78fc4f5606d7701", "5221029989009d2e33da6dbff1a1fb8d53f6c01bba00d3ff70a6c1d6a0c56d09f71b2f21029edf19e71e7b9ec5028e8bd34aff80ab26d2888f56c1795dfb3f9527de3fe03f2103f161dbfed91edfc35b712540b15b0a69963435018a08e9d0b6bf0891b868abf453ae"], "sequence": 4294967295, "scriptSig": {"hex": "220020a844534e5bd45eadbd4dfce202be74e9f77fdf4b68ba5cc2b427a5f06d8eee76", "asm": "0020a844534e5bd45eadbd4dfce202be74e9f77fdf4b68ba5cc2b427a5f06d8eee76"}, "vout": 14, "txid": "364e54e53bfbdec5f04165506250b24533e1d5f7d22f32ec72eee65ca18e699c"}, {"sequence": 4294967295, "scriptSig": {"hex": "004830450221008ead0ecdd592d9321d092434d9ab78fc3c747f60b2f3e96ab0825c3a5710fee0022073c19571e0b553fa0d45d8f60eb3026a1615af1a4af40f5ba0f6bec404aa898c0147304402202ec9455f04e176b6d39ae731ea8cfe47d58b214b6b303f81f8b0b302d135c6b60220140e53e59868e2c8b5a5edb1bc949daaa1d094a23aacb62d5a81e625fc2a1c41014c69522102fdcac10f8c21d4032f9e64d8437e77a9610dbb4a1d3bf462162837f9f92b68a7210383e4bbf38e71510b6d78748fc4f7785d8ccd1d6c277ddb741a02cc8754b1cdf62102abb674787e3243f6ce7ec2150503e7ea1393d07a773ae2cf9c187c056fda785753ae", "asm": "0 30450221008ead0ecdd592d9321d092434d9ab78fc3c747f60b2f3e96ab0825c3a5710fee0022073c19571e0b553fa0d45d8f60eb3026a1615af1a4af40f5ba0f6bec404aa898c[ALL] 304402202ec9455f04e176b6d39ae731ea8cfe47d58b214b6b303f81f8b0b302d135c6b60220140e53e59868e2c8b5a5edb1bc949daaa1d094a23aacb62d5a81e625fc2a1c41[ALL] 522102fdcac10f8c21d4032f9e64d8437e77a9610dbb4a1d3bf462162837f9f92b68a7210383e4bbf38e71510b6d78748fc4f7785d8ccd1d6c277ddb741a02cc8754b1cdf62102abb674787e3243f6ce7ec2150503e7ea1393d07a773ae2cf9c187c056fda785753ae"}, "vout": 11, "txid": "4051fe76d66818f918408dad69bb45506d5d9a04ebaa439fcb18eca0b2e9b1d7"}, {"sequence": 4294967295, "scriptSig": {"hex": "00473044022033797bd54d00ce4ca1838d640e2ffff01834eca1ce2c13b4a1114a147b535efa02200e76fecf4ab2fdf19f33e70b01d4087b39fd1230bdfbc2d293a4625d9814427101483045022100fc81673cbaa36297b4bb3cebb1bed3218a6c0dda105b4245efd7897d64f567ec0220301ec74f6aa1142d54cb808cd7d3419b29601728ef6df0317cdf6470cf8eb61e014c69522103d7849dd5c1d94a5783284a6b8fd1153c721cacd513266e777112c82412c2ee3b2103e9eb875d18e8c7df9af5e519bd73d8292b21e2df91a32b591bf607cf0e71a03121022eeec8afc63b6dac3e647fcf5f0e1856fbd057d4ae407d5a361e290faffa432053ae", "asm": "0 3044022033797bd54d00ce4ca1838d640e2ffff01834eca1ce2c13b4a1114a147b535efa02200e76fecf4ab2fdf19f33e70b01d4087b39fd1230bdfbc2d293a4625d98144271[ALL] 3045022100fc81673cbaa36297b4bb3cebb1bed3218a6c0dda105b4245efd7897d64f567ec0220301ec74f6aa1142d54cb808cd7d3419b29601728ef6df0317cdf6470cf8eb61e[ALL] 522103d7849dd5c1d94a5783284a6b8fd1153c721cacd513266e777112c82412c2ee3b2103e9eb875d18e8c7df9af5e519bd73d8292b21e2df91a32b591bf607cf0e71a03121022eeec8afc63b6dac3e647fcf5f0e1856fbd057d4ae407d5a361e290faffa432053ae"}, "vout": 1, "txid": "6bb04b20ee7312cc67928212fd98b397eac7e573e41edf337db91fccfb87356a"}, {"txinwitness": ["", "30440220131d700ffd7dcc23a8f5f9e27a71412a13c82334bcfb1c3b3eaba31cdd0a6fab02202dc25e1d6053b550e50f1a1b68d51b9a81e6a52951d071732d966cb9acb433de01", "304402205e55f1815f0cae3b3bce7384b9428c06bab3cd14baf93f5444413913333ed783022073ae39f29162bd471f49e06045b23d356819bf4b020e0834ec3c5d0e7092b03001", "5221029989009d2e33da6dbff1a1fb8d53f6c01bba00d3ff70a6c1d6a0c56d09f71b2f21029edf19e71e7b9ec5028e8bd34aff80ab26d2888f56c1795dfb3f9527de3fe03f2103f161dbfed91edfc35b712540b15b0a69963435018a08e9d0b6bf0891b868abf453ae"], "sequence": 4294967295, "scriptSig": {"hex": "220020a844534e5bd45eadbd4dfce202be74e9f77fdf4b68ba5cc2b427a5f06d8eee76", "asm": "0020a844534e5bd45eadbd4dfce202be74e9f77fdf4b68ba5cc2b427a5f06d8eee76"}, "vout": 8, "txid": "6bb04b20ee7312cc67928212fd98b397eac7e573e41edf337db91fccfb87356a"}, {"txinwitness": ["", "304402200ebba2a5cb8ea0f78f15af8f21dfc7a73fb2a678bd58ccf6c4fa17c5dcb78f72022055ead123b4927af2736cbeb14da65dbc7ea8afd2c622b97ebb607951ae334aaf01", "3045022100f16dc51ef72a379ec95d503a6de1183cdd8deacfcb9dcb8128dab71feed6f6ad022021cda72ba32660a016a641699a4e704df88e55a08c9470311b91d75554cd976001", "522103d81c55e751513a814b35101dc3d12c6b60b010d48b36660199b8547a76c30a312102255cb0555e767d416599d0e9e26d2caea35e76c1d7b1c42c7ccc986428efebee2102490df14f06d3e248979fbfbd1c1220040e36a76add123807127346a252c9374f53ae"], "sequence": 4294967295, "scriptSig": {"hex": "22002089d7023292dc199ef951219f2a8e0cbc04b9fbc1d4885b48163a7f873b8b3e2d", "asm": "002089d7023292dc199ef951219f2a8e0cbc04b9fbc1d4885b48163a7f873b8b3e2d"}, "vout": 9, "txid": "6bb04b20ee7312cc67928212fd98b397eac7e573e41edf337db91fccfb87356a"}], "txid": "13d6c595f44575573558176d4bec501bcccaa6a3ca7ce7b81d3903afc5a0bd84", "blocktime": 1537870928, "version": 1, "confirmations": 11514, "time": 1537870928, "locktime": 0, "vsize": 1589, "size": 2540}