{"hash": "13d77f2aa30e733a2861675a809a10d30331a50b0054838bf3528a330ba1efcb", "blockhash": "0000000000000000000e13cef7c366c0283d82e591d1acd082e914b08063cdf1", "vout": [{"scriptPubKey": {"reqSigs": 1, "hex": "76a9148ffcf1559f8ebe97d172be241922caf2ca6fdebc88ac", "addresses": ["1E8LeCaFQhvdkBQQ6k9YUyMC9NphvAsuuW"], "asm": "OP_DUP OP_HASH160 8ffcf1559f8ebe97d172be241922caf2ca6fdebc OP_EQUALVERIFY OP_CHECKSIG", "type": "pubkeyhash"}, "value": 0.03737922, "n": 0}, {"scriptPubKey": {"reqSigs": 1, "hex": "76a914bdc97e24fed1e26f9fb3545c4c8517dc41a2666088ac", "addresses": ["1JJW6DdfJko2hUky6DatLpz9KatNERPWtM"], "asm": "OP_DUP OP_HASH160 bdc97e24fed1e26f9fb3545c4c8517dc41a26660 OP_EQUALVERIFY OP_CHECKSIG", "type": "pubkeyhash"}, "value": 0.04977, "n": 1}], "hex": "0100000001800b081bee622111968aec6f11be68e698db60f581592fcf117edea92bf4128c0c0000006a4730440220435a94762d34a87fc523b2d2fa3542ca029f19ba4943d36893b3be37216c8b6702205deca2130331036458ced681326764d48e5980d134243724bda144b3d3a7f8af012103ff1a16826d030cea2f93d2f555b0be1935b5ff46e2f9475408b1dc1129b810cbffffffff0242093900000000001976a9148ffcf1559f8ebe97d172be241922caf2ca6fdebc88ac68f14b00000000001976a914bdc97e24fed1e26f9fb3545c4c8517dc41a2666088ac00000000", "vin": [{"sequence": 4294967295, "scriptSig": {"hex": "4730440220435a94762d34a87fc523b2d2fa3542ca029f19ba4943d36893b3be37216c8b6702205deca2130331036458ced681326764d48e5980d134243724bda144b3d3a7f8af012103ff1a16826d030cea2f93d2f555b0be1935b5ff46e2f9475408b1dc1129b810cb", "asm": "30440220435a94762d34a87fc523b2d2fa3542ca029f19ba4943d36893b3be37216c8b6702205deca2130331036458ced681326764d48e5980d134243724bda144b3d3a7f8af[ALL] 03ff1a16826d030cea2f93d2f555b0be1935b5ff46e2f9475408b1dc1129b810cb"}, "vout": 12, "txid": "8c12f42ba9de7e11cf2f5981f560db98e668be116fec8a96112162ee1b080b80"}], "txid": "13d77f2aa30e733a2861675a809a10d30331a50b0054838bf3528a330ba1efcb", "blocktime": 1537871767, "version": 1, "confirmations": 11495, "time": 1537871767, "locktime": 0, "vsize": 225, "size": 225}