{"hash": "13d90b900ec74f217bd8204c081a437aa94aec3166c15871ea3f03927fadd3df", "blockhash": "000000000000000000022b45ed06c6f4ccd3cf7fb5ba4856ebd2e58215665228", "vout": [{"scriptPubKey": {"reqSigs": 1, "hex": "76a91447b87f4a8a3210427e89f58e57266ffcb6c2c05d88ac", "addresses": ["17YDziKDpMMDh9qfTGuD1XRtM4BGRjYj2A"], "asm": "OP_DUP OP_HASH160 47b87f4a8a3210427e89f58e57266ffcb6c2c05d OP_EQUALVERIFY OP_CHECKSIG", "type": "pubkeyhash"}, "value": 0.00885586, "n": 0}, {"scriptPubKey": {"reqSigs": 1, "hex": "a914f5e805451a86b173a9c7a6a248fec6c4ca48928587", "addresses": ["3Q7FRcdXG2CCE8exDok5fokNLgN8UySvUg"], "asm": "OP_HASH160 f5e805451a86b173a9c7a6a248fec6c4ca489285 OP_EQUAL", "type": "scripthash"}, "value": 0.009988, "n": 1}], "hex": "0100000001ef52390d775e2dd889c728c721ceefd3e3bddf3f0d52e9922738df78d57fb4ea010000006a47304402205d3bf1bfd3b8ad834d6b8ec8185f327094c987a39e2ee1c27a1b9387b54413c10220448655bfe60016bcc162457777996c3105cffef6885077826390a23b1b3fc73c0121034118266f3ef4f067c85c4fd2046a43a8a3f791c48fed6d38bc08adc13a027951ffffffff0252830d00000000001976a91447b87f4a8a3210427e89f58e57266ffcb6c2c05d88ac903d0f000000000017a914f5e805451a86b173a9c7a6a248fec6c4ca4892858700000000", "vin": [{"sequence": 4294967295, "scriptSig": {"hex": "47304402205d3bf1bfd3b8ad834d6b8ec8185f327094c987a39e2ee1c27a1b9387b54413c10220448655bfe60016bcc162457777996c3105cffef6885077826390a23b1b3fc73c0121034118266f3ef4f067c85c4fd2046a43a8a3f791c48fed6d38bc08adc13a027951", "asm": "304402205d3bf1bfd3b8ad834d6b8ec8185f327094c987a39e2ee1c27a1b9387b54413c10220448655bfe60016bcc162457777996c3105cffef6885077826390a23b1b3fc73c[ALL] 034118266f3ef4f067c85c4fd2046a43a8a3f791c48fed6d38bc08adc13a027951"}, "vout": 1, "txid": "eab47fd578df382792e9520d3fdfbde3d3efce21c728c789d82d5e770d3952ef"}], "txid": "13d90b900ec74f217bd8204c081a437aa94aec3166c15871ea3f03927fadd3df", "blocktime": 1537869901, "version": 1, "confirmations": 11522, "time": 1537869901, "locktime": 0, "vsize": 223, "size": 223}