{"hash": "13dc62652b9960a9b3254314bcf324bc6c29f0d611a562177acdc97c7081d974", "blockhash": "0000000000000000000baef3f32e3676a92c3b2e5da21b426e4f302fc371ce76", "vout": [{"scriptPubKey": {"reqSigs": 1, "hex": "76a91470e2a55677628216000942da00cb4daa20cc17f588ac", "addresses": ["1BHtC7f8UtXX6jsQAL6epcEokNBBGoRMJU"], "asm": "OP_DUP OP_HASH160 70e2a55677628216000942da00cb4daa20cc17f5 OP_EQUALVERIFY OP_CHECKSIG", "type": "pubkeyhash"}, "value": 0.001862, "n": 0}], "hex": "0100000001b6fdaee7bae1ca33668b17884b926bbe56d028e9f1f7398d16d0a0084552c8be000000006b483045022100e97be9bcb206317c5c9b06bec9fb17d97a20693d20ff20063abc5443d98fead402200433c0e383591051665e5d24675281098d897e8d843c85d5ddf9f15ef0e5930e01210369ed02fe3ab9fe95b5c3636ca6d88d8cf22b3ecbac4d2a51f98cc7fff7f0b363f0ffffff0158d70200000000001976a91470e2a55677628216000942da00cb4daa20cc17f588ac00000000", "vin": [{"sequence": 4294967280, "scriptSig": {"hex": "483045022100e97be9bcb206317c5c9b06bec9fb17d97a20693d20ff20063abc5443d98fead402200433c0e383591051665e5d24675281098d897e8d843c85d5ddf9f15ef0e5930e01210369ed02fe3ab9fe95b5c3636ca6d88d8cf22b3ecbac4d2a51f98cc7fff7f0b363", "asm": "3045022100e97be9bcb206317c5c9b06bec9fb17d97a20693d20ff20063abc5443d98fead402200433c0e383591051665e5d24675281098d897e8d843c85d5ddf9f15ef0e5930e[ALL] 0369ed02fe3ab9fe95b5c3636ca6d88d8cf22b3ecbac4d2a51f98cc7fff7f0b363"}, "vout": 0, "txid": "bec8524508a0d0168d39f7f1e928d056be6b924b88178b6633cae1bae7aefdb6"}], "txid": "13dc62652b9960a9b3254314bcf324bc6c29f0d611a562177acdc97c7081d974", "blocktime": 1537876114, "version": 1, "confirmations": 11459, "time": 1537876114, "locktime": 0, "vsize": 192, "size": 192}