{"hash": "13de6b0dff5a15f7e227785738e09ebaf91fdcfb00e4d0111ae37e0b6058883b", "blockhash": "0000000000000000000e13cef7c366c0283d82e591d1acd082e914b08063cdf1", "vout": [{"scriptPubKey": {"reqSigs": 1, "hex": "76a9142450fa377ef7a9b4c39d8aeb8b0ceff1c1263a2488ac", "addresses": ["14K2LKGRoerbVDuZvNkQ6M8MfitZ5dwdJx"], "asm": "OP_DUP OP_HASH160 2450fa377ef7a9b4c39d8aeb8b0ceff1c1263a24 OP_EQUALVERIFY OP_CHECKSIG", "type": "pubkeyhash"}, "value": 0.00108111, "n": 0}, {"scriptPubKey": {"reqSigs": 1, "hex": "76a914d421ab91c03b83f29d7c430d9a724c93b3a83abd88ac", "addresses": ["1LLeb7cgAA6237yVBrWnpm8kqom3LCgtLS"], "asm": "OP_DUP OP_HASH160 d421ab91c03b83f29d7c430d9a724c93b3a83abd OP_EQUALVERIFY OP_CHECKSIG", "type": "pubkeyhash"}, "value": 0.00124957, "n": 1}], "hex": "010000000189a7baa6cf5f57e39e3b4fb4f847a34fdfa872e3a2ee8c604e45437c66d10153010000006b483045022100f6fcf947e09d8966569b398a7558d02b26e513ce00c4188909931ae88751024102202b2357aacdee25b2910ef98a6e0e511783207477cd93e3cfc514b6d8a8bed765012103b4603169f9b40d63e0f63ffd678056fe5978e4231a02f4a9adc2008b84c2c37effffffff024fa60100000000001976a9142450fa377ef7a9b4c39d8aeb8b0ceff1c1263a2488ac1de80100000000001976a914d421ab91c03b83f29d7c430d9a724c93b3a83abd88ac00000000", "vin": [{"sequence": 4294967295, "scriptSig": {"hex": "483045022100f6fcf947e09d8966569b398a7558d02b26e513ce00c4188909931ae88751024102202b2357aacdee25b2910ef98a6e0e511783207477cd93e3cfc514b6d8a8bed765012103b4603169f9b40d63e0f63ffd678056fe5978e4231a02f4a9adc2008b84c2c37e", "asm": "3045022100f6fcf947e09d8966569b398a7558d02b26e513ce00c4188909931ae88751024102202b2357aacdee25b2910ef98a6e0e511783207477cd93e3cfc514b6d8a8bed765[ALL] 03b4603169f9b40d63e0f63ffd678056fe5978e4231a02f4a9adc2008b84c2c37e"}, "vout": 1, "txid": "5301d1667c43454e608ceea2e372a8df4fa347f8b44f3b9ee3575fcfa6baa789"}], "txid": "13de6b0dff5a15f7e227785738e09ebaf91fdcfb00e4d0111ae37e0b6058883b", "blocktime": 1537871767, "version": 1, "confirmations": 11495, "time": 1537871767, "locktime": 0, "vsize": 226, "size": 226}