{"hash": "13e6e69b46254c1d8660ab5196d30cea0b5ee723c129f4e0e73208d2dd7af6c4", "blockhash": "0000000000000000001cda96e906b7601b7a6fb1a3b62bca570a9e5d8f4b3de1", "vout": [{"scriptPubKey": {"reqSigs": 1, "hex": "76a91411851d0e420070eef475cb4f69a5bbf4f4d2c55488ac", "addresses": ["12bdx9emYaTLB4kA3VicYiodjZwian8LFd"], "asm": "OP_DUP OP_HASH160 11851d0e420070eef475cb4f69a5bbf4f4d2c554 OP_EQUALVERIFY OP_CHECKSIG", "type": "pubkeyhash"}, "value": 0.00029223, "n": 0}, {"scriptPubKey": {"reqSigs": 1, "hex": "76a9143d78e8ce63d101c3ebbafa5b6cca54ac6597062f88ac", "addresses": ["16c34dmkvNT2MFxZNcAYYAEngk6eg4Df6E"], "asm": "OP_DUP OP_HASH160 3d78e8ce63d101c3ebbafa5b6cca54ac6597062f OP_EQUALVERIFY OP_CHECKSIG", "type": "pubkeyhash"}, "value": 0.01530074, "n": 1}], "hex": "01000000016640207d687ab9cb13aa396e9c210271283829453fa850425a55a3f9b48e94c7020000006b483045022100aab887af541b50c286e3d576729afee64527ef585af731ac09ab7cb6fd0bf06b02202afd3d9336fd9635d1200c7e7497adc4cb5e17f811339b1629f4ab7b54a594ce0121025f610dc7cc2cd4e8cdf69a680b819cb59e5573324a2b34724d9cbf75d26e5effffffffff0227720000000000001976a91411851d0e420070eef475cb4f69a5bbf4f4d2c55488acda581700000000001976a9143d78e8ce63d101c3ebbafa5b6cca54ac6597062f88ac00000000", "vin": [{"sequence": 4294967295, "scriptSig": {"hex": "483045022100aab887af541b50c286e3d576729afee64527ef585af731ac09ab7cb6fd0bf06b02202afd3d9336fd9635d1200c7e7497adc4cb5e17f811339b1629f4ab7b54a594ce0121025f610dc7cc2cd4e8cdf69a680b819cb59e5573324a2b34724d9cbf75d26e5eff", "asm": "3045022100aab887af541b50c286e3d576729afee64527ef585af731ac09ab7cb6fd0bf06b02202afd3d9336fd9635d1200c7e7497adc4cb5e17f811339b1629f4ab7b54a594ce[ALL] 025f610dc7cc2cd4e8cdf69a680b819cb59e5573324a2b34724d9cbf75d26e5eff"}, "vout": 2, "txid": "c7948eb4f9a3555a4250a83f452938287102219c6e39aa13cbb97a687d204066"}], "txid": "13e6e69b46254c1d8660ab5196d30cea0b5ee723c129f4e0e73208d2dd7af6c4", "blocktime": 1537873282, "version": 1, "confirmations": 11485, "time": 1537873282, "locktime": 0, "vsize": 226, "size": 226}