{"hash": "3f157e355c6c795805c9eecb4639e2187c3cf5f7e82965fb312f73c6755824c1", "blockhash": "000000000000000000022b45ed06c6f4ccd3cf7fb5ba4856ebd2e58215665228", "vout": [{"scriptPubKey": {"reqSigs": 1, "hex": "a914c3aac73b19a6df3a3a68ef69a8e9f79c8dff9a9c87", "addresses": ["3KXcGqASXznMituPhPnV7BkSc6CHZRLykC"], "asm": "OP_HASH160 c3aac73b19a6df3a3a68ef69a8e9f79c8dff9a9c OP_EQUAL", "type": "scripthash"}, "value": 0.025276, "n": 0}, {"scriptPubKey": {"reqSigs": 1, "hex": "a91411c2e4e62b43dda4b36d76d8bfa043e31ad310dc87", "addresses": ["33JvtHbSBG2wrVH3oKMhcyZ32s5yeEm6v5"], "asm": "OP_HASH160 11c2e4e62b43dda4b36d76d8bfa043e31ad310dc OP_EQUAL", "type": "scripthash"}, "value": 0.02469972, "n": 1}], "hex": "020000000001018e039b989ad0c0b96b61191dc7c78734eb8e7d621523f17ba7132e59aeb3b2a30700000017160014105f7aa9061a59e51724f36db41fab02d72b2b86ffffffff02709126000000000017a914c3aac73b19a6df3a3a68ef69a8e9f79c8dff9a9c8754b025000000000017a91411c2e4e62b43dda4b36d76d8bfa043e31ad310dc8702483045022100e252e6357cbf4706a99d0eace3014c7ba93f09cb20a1d0c45211acb8ddedb65202203bc204f25d5f1c38378d7625916d963579ff0cc4d5760d3a8a5b19e6892839510121022ad94eca8ff7093179255e461cd2c1338b3eb61eba58733f1d3836dbfac3723c00000000", "vin": [{"txinwitness": ["3045022100e252e6357cbf4706a99d0eace3014c7ba93f09cb20a1d0c45211acb8ddedb65202203bc204f25d5f1c38378d7625916d963579ff0cc4d5760d3a8a5b19e68928395101", "022ad94eca8ff7093179255e461cd2c1338b3eb61eba58733f1d3836dbfac3723c"], "sequence": 4294967295, "scriptSig": {"hex": "160014105f7aa9061a59e51724f36db41fab02d72b2b86", "asm": "0014105f7aa9061a59e51724f36db41fab02d72b2b86"}, "vout": 7, "txid": "a3b2b3ae592e13a77bf12315627d8eeb3487c7c71d19616bb9c0d09a989b038e"}], "txid": "13ed2e378900ee5ad37aa81628354759cbf03c8d8e6f47ef150ac1747e5567c5", "blocktime": 1537869901, "version": 2, "confirmations": 11522, "time": 1537869901, "locktime": 0, "vsize": 166, "size": 248}