{"hash": "7785b1a3c1259dce7c06708607dde5201f6fbffeca07c08cec1a7a5438c6c031", "blockhash": "00000000000000000017f5eb5941039fbcee6240d03bc1f2f8e35350df66a1d8", "vout": [{"scriptPubKey": {"reqSigs": 1, "hex": "0014ee875e68e532b1b20af34031bc6e372dc62cec49", "addresses": ["bc1qa6r4u689x2cmyzhngqcmcm3h9hrzemzfuarn9j"], "asm": "0 ee875e68e532b1b20af34031bc6e372dc62cec49", "type": "witness_v0_keyhash"}, "value": 0.45974864, "n": 0}, {"scriptPubKey": {"reqSigs": 1, "hex": "76a9147d894b31f2788d631591820b9d1cf9f7208fb99d88ac", "addresses": ["1CSmwKEqvJQcmSvsc8cqbbFHgdZAQpvW1v"], "asm": "OP_DUP OP_HASH160 7d894b31f2788d631591820b9d1cf9f7208fb99d OP_EQUALVERIFY OP_CHECKSIG", "type": "pubkeyhash"}, "value": 0.07092489, "n": 1}], "hex": "01000000000101b4f84899ef89fd3a2a2925a71c977724e244bd6ac978ca4e744d56c1fd75ced80000000000ffffffff025085bd0200000000160014ee875e68e532b1b20af34031bc6e372dc62cec4909396c00000000001976a9147d894b31f2788d631591820b9d1cf9f7208fb99d88ac02483045022100c3f911fdecd80ddf2a4030b90135d37fccf55f9b49b5492888f14c455e4ff36d022053a5f75debd99e7b89201c0167bc11c9efb446f39dac6bed155476c323c8f0790121028ca7a262813366eb4acc7b38806a10b4842c6b19553f10476e1c07b8d5903fa200000000", "vin": [{"txinwitness": ["3045022100c3f911fdecd80ddf2a4030b90135d37fccf55f9b49b5492888f14c455e4ff36d022053a5f75debd99e7b89201c0167bc11c9efb446f39dac6bed155476c323c8f07901", "028ca7a262813366eb4acc7b38806a10b4842c6b19553f10476e1c07b8d5903fa2"], "sequence": 4294967295, "scriptSig": {"hex": "", "asm": ""}, "vout": 0, "txid": "d8ce75fdc1564d744eca78c96abd44e22477971ca725292a3afd89ef9948f8b4"}], "txid": "13eeda5b7ad1a290977299ef0acb1eec8044567fa561bb25525ab1970879876a", "blocktime": 1537874412, "version": 1, "confirmations": 11467, "time": 1537874412, "locktime": 0, "vsize": 144, "size": 226}