{"hash": "13f248906621df9a40a9952d62c59989fbe76ea19dd617364a3149fc0eb7c1fd", "blockhash": "0000000000000000001f0ddff1eddb255c1121bcd4da4f1bc9a0da00cae72433", "vout": [{"scriptPubKey": {"reqSigs": 1, "hex": "76a914a1a465613a03d34330222adae9142633ec58ce2288ac", "addresses": ["1FjgjKZfdxKG4PNDYuUhGBLTQwxrYkeD55"], "asm": "OP_DUP OP_HASH160 a1a465613a03d34330222adae9142633ec58ce22 OP_EQUALVERIFY OP_CHECKSIG", "type": "pubkeyhash"}, "value": 0.00782185, "n": 0}], "hex": "0100000002311f99efeafe73f33d1e2ea4198f5eed6a55f26f5828a3f173fc62c160b37ae5000000006a473044022071a2e19fc10966704e03f4fc956585dcaacc2dcacf1a5b78b1adf1451fb602920220231cf94c0c457ff9877085dd66c4818eca6ed4f162a287fc9b55e9f043886d50012103438a1f257bd1d2df022ae8f852b7410c21692803d5a556bc01a7b394afb7ae73ffffffff4df26e017d7bcb28c43ca209676937f31428114eba12dfb7e7d5d9273d10a386010000006a47304402204071b77942469ed21280317e285b60afcea93f37b454ba252597938c4a5aa3a802204d2df2e51dec9ad7e58e3197bec4fba46cf07add9369972279c509929c0862b50121022f7d015c00da1266559d61e7263cfd78229354af7d177a53b9308878a9fe606cffffffff0169ef0b00000000001976a914a1a465613a03d34330222adae9142633ec58ce2288ac00000000", "vin": [{"sequence": 4294967295, "scriptSig": {"hex": "473044022071a2e19fc10966704e03f4fc956585dcaacc2dcacf1a5b78b1adf1451fb602920220231cf94c0c457ff9877085dd66c4818eca6ed4f162a287fc9b55e9f043886d50012103438a1f257bd1d2df022ae8f852b7410c21692803d5a556bc01a7b394afb7ae73", "asm": "3044022071a2e19fc10966704e03f4fc956585dcaacc2dcacf1a5b78b1adf1451fb602920220231cf94c0c457ff9877085dd66c4818eca6ed4f162a287fc9b55e9f043886d50[ALL] 03438a1f257bd1d2df022ae8f852b7410c21692803d5a556bc01a7b394afb7ae73"}, "vout": 0, "txid": "e57ab360c162fc73f1a328586ff2556aed5e8f19a42e1e3df373feeaef991f31"}, {"sequence": 4294967295, "scriptSig": {"hex": "47304402204071b77942469ed21280317e285b60afcea93f37b454ba252597938c4a5aa3a802204d2df2e51dec9ad7e58e3197bec4fba46cf07add9369972279c509929c0862b50121022f7d015c00da1266559d61e7263cfd78229354af7d177a53b9308878a9fe606c", "asm": "304402204071b77942469ed21280317e285b60afcea93f37b454ba252597938c4a5aa3a802204d2df2e51dec9ad7e58e3197bec4fba46cf07add9369972279c509929c0862b5[ALL] 022f7d015c00da1266559d61e7263cfd78229354af7d177a53b9308878a9fe606c"}, "vout": 1, "txid": "86a3103d27d9d5e7b7df12ba4e112814f337696709a23cc428cb7b7d016ef24d"}], "txid": "13f248906621df9a40a9952d62c59989fbe76ea19dd617364a3149fc0eb7c1fd", "blocktime": 1537872018, "version": 1, "confirmations": 11489, "time": 1537872018, "locktime": 0, "vsize": 338, "size": 338}