{"hash": "13f23443cdca02e1fdbe3d4041960577fb7d06b6e38fd103113e3ef73959e4df", "blockhash": "0000000000000000000baef3f32e3676a92c3b2e5da21b426e4f302fc371ce76", "vout": [{"scriptPubKey": {"reqSigs": 1, "hex": "76a9143ad9995a246054f85c8efdb70292b9d2112870cc88ac", "addresses": ["16NAsAyQyuPWd1co2N32nE1cspFq9Jhvbh"], "asm": "OP_DUP OP_HASH160 3ad9995a246054f85c8efdb70292b9d2112870cc OP_EQUALVERIFY OP_CHECKSIG", "type": "pubkeyhash"}, "value": 0.0012184, "n": 0}, {"scriptPubKey": {"type": "nulldata", "hex": "6a4c50000077fe0001a423e6d10f55c2ff27e7ee67d19ed074892d00f8e87af8e8e963c7cfd5b9471402dbd1898d20170305f05e061da35baa19a90613d4f52767aefdbc9a9526289ac0f6612cd74e33776ee4", "asm": "OP_RETURN 000077fe0001a423e6d10f55c2ff27e7ee67d19ed074892d00f8e87af8e8e963c7cfd5b9471402dbd1898d20170305f05e061da35baa19a90613d4f52767aefdbc9a9526289ac0f6612cd74e33776ee4"}, "value": 0.0, "n": 1}], "hex": "01000000013441f61fba9fb848320fd4d42dedee3bc29fef9feab04dcaf14902777d3a5ba8010000006b4830450221009db39222ce1386befd4ff874169aee697be3f010cc3f447a206f15e6fb8ebb75022060f42bfb61a01e80d51d03f2f6cc91f3d0841a91c5d2d9cc8ca3c8df2635931101210351efebbf0fe088f8ed8d0e308d60ffa26c2958c088a150b0c74472e1bc8f0946ffffffff02f0db0100000000001976a9143ad9995a246054f85c8efdb70292b9d2112870cc88ac0000000000000000536a4c50000077fe0001a423e6d10f55c2ff27e7ee67d19ed074892d00f8e87af8e8e963c7cfd5b9471402dbd1898d20170305f05e061da35baa19a90613d4f52767aefdbc9a9526289ac0f6612cd74e33776ee400000000", "vin": [{"sequence": 4294967295, "scriptSig": {"hex": "4830450221009db39222ce1386befd4ff874169aee697be3f010cc3f447a206f15e6fb8ebb75022060f42bfb61a01e80d51d03f2f6cc91f3d0841a91c5d2d9cc8ca3c8df2635931101210351efebbf0fe088f8ed8d0e308d60ffa26c2958c088a150b0c74472e1bc8f0946", "asm": "30450221009db39222ce1386befd4ff874169aee697be3f010cc3f447a206f15e6fb8ebb75022060f42bfb61a01e80d51d03f2f6cc91f3d0841a91c5d2d9cc8ca3c8df26359311[ALL] 0351efebbf0fe088f8ed8d0e308d60ffa26c2958c088a150b0c74472e1bc8f0946"}, "vout": 1, "txid": "a85b3a7d770249f1ca4db0ea9fef9fc23beeed2dd4d40f3248b89fba1ff64134"}], "txid": "13f23443cdca02e1fdbe3d4041960577fb7d06b6e38fd103113e3ef73959e4df", "blocktime": 1537876114, "version": 1, "confirmations": 11460, "time": 1537876114, "locktime": 0, "vsize": 284, "size": 284}