{"hash": "f91200070e8a2907df7beb95d4fced2aa0c7c6f59319317652e12d57e021050b", "blockhash": "0000000000000000001f0ddff1eddb255c1121bcd4da4f1bc9a0da00cae72433", "vout": [{"scriptPubKey": {"reqSigs": 1, "hex": "76a9146d150e6aebe96c789a269d020ca824f30b9810bf88ac", "addresses": ["1AwmsvqVV5q2RrdMG4R6pVuHVKqmqxtyUM"], "asm": "OP_DUP OP_HASH160 6d150e6aebe96c789a269d020ca824f30b9810bf OP_EQUALVERIFY OP_CHECKSIG", "type": "pubkeyhash"}, "value": 0.0027456, "n": 0}, {"scriptPubKey": {"reqSigs": 1, "hex": "a9148c7caa2cedd6cba818bb0f8d5e48ffe1a22179cb87", "addresses": ["3EVqsFx3vczF8euW8NpQ2RNDPNgKfdPDig"], "asm": "OP_HASH160 8c7caa2cedd6cba818bb0f8d5e48ffe1a22179cb OP_EQUAL", "type": "scripthash"}, "value": 0.010005, "n": 1}], "hex": "02000000000102093503a18869faa9353069952992d17c9a0dd59de53240af23d702a0c51ef5160900000017160014cc526943f258e6f49a0c80b6bcc4f43b34fcec02feffffffc28731ebe1f6b5958b9444e3acc7d21f23cd0a57607207f587f6fb78342e1aa70000000017160014bb1118a1f4f010ad6922650f9b42cc7a1fa2c418feffffff0280300400000000001976a9146d150e6aebe96c789a269d020ca824f30b9810bf88ac34440f000000000017a9148c7caa2cedd6cba818bb0f8d5e48ffe1a22179cb8702483045022100bf7d62ec7b752286888edbc85cd8c2220c14ec68418c40bc3afd45ae1d4b9e9602203749598dd696edd93fb3472ded3885c627c367be2446f87cbe296fe5191bb6ad012103f26e65af5e3876cc74cfc788b93280528c0a8287584c69edafe27fb7bec6f10302473044022029124d7e2e24dd475d946b0e1ce1495cf2d9c9a616b0de526cb0688b130d9b90022076f2198bd6e9a527ab317070f67f87a09d618a30725388c567ee309471138739012103f3de3cd160e04a624c0163555c7d2f5177f68f93075608307b49cab33ada2881cc480800", "vin": [{"txinwitness": ["3045022100bf7d62ec7b752286888edbc85cd8c2220c14ec68418c40bc3afd45ae1d4b9e9602203749598dd696edd93fb3472ded3885c627c367be2446f87cbe296fe5191bb6ad01", "03f26e65af5e3876cc74cfc788b93280528c0a8287584c69edafe27fb7bec6f103"], "sequence": 4294967294, "scriptSig": {"hex": "160014cc526943f258e6f49a0c80b6bcc4f43b34fcec02", "asm": "0014cc526943f258e6f49a0c80b6bcc4f43b34fcec02"}, "vout": 9, "txid": "16f51ec5a002d723af4032e59dd50d9a7cd1922995693035a9fa6988a1033509"}, {"txinwitness": ["3044022029124d7e2e24dd475d946b0e1ce1495cf2d9c9a616b0de526cb0688b130d9b90022076f2198bd6e9a527ab317070f67f87a09d618a30725388c567ee30947113873901", "03f3de3cd160e04a624c0163555c7d2f5177f68f93075608307b49cab33ada2881"], "sequence": 4294967294, "scriptSig": {"hex": "160014bb1118a1f4f010ad6922650f9b42cc7a1fa2c418", "asm": "0014bb1118a1f4f010ad6922650f9b42cc7a1fa2c418"}, "vout": 0, "txid": "a71a2e3478fbf687f5077260570acd231fd2c7ace344948b95b5f6e1eb3187c2"}], "txid": "13f2f15c381256f36c73f25d309e5658acec291f411ffdbb21c3566f8ae3231d", "blocktime": 1537872018, "version": 2, "confirmations": 11489, "time": 1537872018, "locktime": 542924, "vsize": 259, "size": 421}