{"hash": "c02e726804c97b151d211d7e7ff9d4d0fb6c85e280b22bc87b64d2e3e6c24fd1", "blockhash": "0000000000000000001e0dab787dd257d1dbfcb92a98c2207d5e1078be1f4165", "vout": [{"scriptPubKey": {"reqSigs": 1, "hex": "a9147292afa466f7862d66c04af736a22a142d4ce13287", "addresses": ["3C8pgLm24HqUYvGT9oGHMfi6dcRDAEavzt"], "asm": "OP_HASH160 7292afa466f7862d66c04af736a22a142d4ce132 OP_EQUAL", "type": "scripthash"}, "value": 0.00206599, "n": 0}, {"scriptPubKey": {"reqSigs": 1, "hex": "00141957585b8e24b88b4b970d0cb2af25db0606a6e5", "addresses": ["bc1qr9t4skuwyjugkjuhp5xt9te9mvrqdfh989duc2"], "asm": "0 1957585b8e24b88b4b970d0cb2af25db0606a6e5", "type": "witness_v0_keyhash"}, "value": 2.82e-05, "n": 1}], "hex": "01000000000101cfd9995d2ca0bf20ac688a7afc9885604cb6656b9c7ed38463fd5aed1c6a8d1a0000000017160014d435cb4a8b52aebf31b8809d9495f263956ec4deffffffff02072703000000000017a9147292afa466f7862d66c04af736a22a142d4ce13287040b0000000000001600141957585b8e24b88b4b970d0cb2af25db0606a6e50247304402200caf6ddb72e4f9f01a0b5b6d51f43f7f1698316b544e7570be64e3cc2328420402201261741334fea413f9b5d533953d0998c36762cb1b60739016c35aed005fc5c1012102f18d2c6226ea67985b2536cf57cc1c976c4ebccf73839a4c2d1d7ab94d65459700000000", "vin": [{"txinwitness": ["304402200caf6ddb72e4f9f01a0b5b6d51f43f7f1698316b544e7570be64e3cc2328420402201261741334fea413f9b5d533953d0998c36762cb1b60739016c35aed005fc5c101", "02f18d2c6226ea67985b2536cf57cc1c976c4ebccf73839a4c2d1d7ab94d654597"], "sequence": 4294967295, "scriptSig": {"hex": "160014d435cb4a8b52aebf31b8809d9495f263956ec4de", "asm": "0014d435cb4a8b52aebf31b8809d9495f263956ec4de"}, "vout": 0, "txid": "1a8d6a1ced5afd6384d37e9c6b65b64c608598fc7a8a68ac20bfa02c5d99d9cf"}], "txid": "13f7fea3c8214aaa13758d04a732104f4f57af7ee04e0470cd674e6cc902b9e8", "blocktime": 1537872475, "version": 1, "confirmations": 11486, "time": 1537872475, "locktime": 0, "vsize": 165, "size": 246}