{"hash": "13f8f87df9e9012a610ffdd57ed0a9a1a6604d79339e12d1f6cce2fa5353be4b", "blockhash": "0000000000000000000dcc0f55137456b1a82d3642486a52398922ac4d620174", "vout": [{"scriptPubKey": {"reqSigs": 1, "hex": "76a914f9398a684052026a68ba65165981fd3db5230fb688ac", "addresses": ["1PinBm7AFgMwynnmv5sT6GwKUG8QWhwxh8"], "asm": "OP_DUP OP_HASH160 f9398a684052026a68ba65165981fd3db5230fb6 OP_EQUALVERIFY OP_CHECKSIG", "type": "pubkeyhash"}, "value": 0.00015595, "n": 0}, {"scriptPubKey": {"reqSigs": 1, "hex": "76a9145d51ebd7b05acb394d531360939f45c6eecddc0388ac", "addresses": ["19WRyq6GwY8BKQYnN66N4EjNKxC3HtEYH2"], "asm": "OP_DUP OP_HASH160 5d51ebd7b05acb394d531360939f45c6eecddc03 OP_EQUALVERIFY OP_CHECKSIG", "type": "pubkeyhash"}, "value": 0.00074785, "n": 1}], "hex": "0100000001239994537e8526113fe1e7a6db89a4e87f22703fc2a6486f7e3f9dee6291faed010000006a473044022025eac19f4c4c0efea9f7a1180a4f89fe6a30c616b7c37ec575279dee060e4908022005f5d6131bc900326fd1982884f3cb76e979d9b218f4e4cadeeab90ba6a07b16012103f9cb7d4108e0786ee61669285d810ae245668ea374d23183862f3d162150c51cffffffff02eb3c0000000000001976a914f9398a684052026a68ba65165981fd3db5230fb688ac21240100000000001976a9145d51ebd7b05acb394d531360939f45c6eecddc0388ac00000000", "vin": [{"sequence": 4294967295, "scriptSig": {"hex": "473044022025eac19f4c4c0efea9f7a1180a4f89fe6a30c616b7c37ec575279dee060e4908022005f5d6131bc900326fd1982884f3cb76e979d9b218f4e4cadeeab90ba6a07b16012103f9cb7d4108e0786ee61669285d810ae245668ea374d23183862f3d162150c51c", "asm": "3044022025eac19f4c4c0efea9f7a1180a4f89fe6a30c616b7c37ec575279dee060e4908022005f5d6131bc900326fd1982884f3cb76e979d9b218f4e4cadeeab90ba6a07b16[ALL] 03f9cb7d4108e0786ee61669285d810ae245668ea374d23183862f3d162150c51c"}, "vout": 1, "txid": "edfa9162ee9d3f7e6f48a6c23f70227fe8a489dba6e7e13f1126857e53949923"}], "txid": "13f8f87df9e9012a610ffdd57ed0a9a1a6604d79339e12d1f6cce2fa5353be4b", "blocktime": 1537870268, "version": 1, "confirmations": 11518, "time": 1537870268, "locktime": 0, "vsize": 225, "size": 225}