{"hash": "13fc40bb2a1e607899d835aab0080d4832bd4973c56a5ac31ba30dca8a9fd927", "blockhash": "0000000000000000001f76057863aec43deb6fa401d9628bb513d65a8098bfab", "vout": [{"scriptPubKey": {"type": "nulldata", "hex": "6a146f6d6e69000000000000001f0000000000002710", "asm": "OP_RETURN 6f6d6e69000000000000001f0000000000002710"}, "value": 0.0, "n": 0}, {"scriptPubKey": {"reqSigs": 1, "hex": "76a9148b80b2920c044bdfb3ef56f0ded112c06d7ec9f288ac", "addresses": ["1Did6j8R1caPnxGHhLCsFgWZ6bQdWgx9Xm"], "asm": "OP_DUP OP_HASH160 8b80b2920c044bdfb3ef56f0ded112c06d7ec9f2 OP_EQUALVERIFY OP_CHECKSIG", "type": "pubkeyhash"}, "value": 5.46e-06, "n": 1}, {"scriptPubKey": {"reqSigs": 1, "hex": "76a914bbfc4c89ac947faad1b33988a99e9c8c8265c24388ac", "addresses": ["1J8ybuvU1FcztHdcxBAccaUPJruKKfX7xb"], "asm": "OP_DUP OP_HASH160 bbfc4c89ac947faad1b33988a99e9c8c8265c243 OP_EQUALVERIFY OP_CHECKSIG", "type": "pubkeyhash"}, "value": 0.00101775, "n": 2}], "hex": "01000000011fce58b41782efa3881e035d82ae8ec911ca93826fc1adc00eed423cd7e98717020000006a4730440220383b06aebbaf5c07b90093af594a90c3e94541482c10eef8f82e1de3c5827fba0220556ed47fcc64839715a348ca93a032217a5b189538b51304672fc4f45725599d012103ff140573bbd7eb60c2eba3819ea7c6b94094e9ceae01f4263b49069a2773c69efeffffff030000000000000000166a146f6d6e69000000000000001f000000000000271022020000000000001976a9148b80b2920c044bdfb3ef56f0ded112c06d7ec9f288ac8f8d0100000000001976a914bbfc4c89ac947faad1b33988a99e9c8c8265c24388ac14490800", "vin": [{"sequence": 4294967294, "scriptSig": {"hex": "4730440220383b06aebbaf5c07b90093af594a90c3e94541482c10eef8f82e1de3c5827fba0220556ed47fcc64839715a348ca93a032217a5b189538b51304672fc4f45725599d012103ff140573bbd7eb60c2eba3819ea7c6b94094e9ceae01f4263b49069a2773c69e", "asm": "30440220383b06aebbaf5c07b90093af594a90c3e94541482c10eef8f82e1de3c5827fba0220556ed47fcc64839715a348ca93a032217a5b189538b51304672fc4f45725599d[ALL] 03ff140573bbd7eb60c2eba3819ea7c6b94094e9ceae01f4263b49069a2773c69e"}, "vout": 2, "txid": "1787e9d73c42ed0ec0adc16f8293ca11c98eae825d031e88a3ef8217b458ce1f"}], "txid": "13fc40bb2a1e607899d835aab0080d4832bd4973c56a5ac31ba30dca8a9fd927", "blocktime": 1537873891, "version": 1, "confirmations": 11475, "time": 1537873891, "locktime": 542996, "vsize": 256, "size": 256}