{"hash": "13ff358877a3924668135c89033f2763ff4cec90fcfd7c6ecd15231b2b173e64", "blockhash": "0000000000000000001f0ddff1eddb255c1121bcd4da4f1bc9a0da00cae72433", "vout": [{"scriptPubKey": {"reqSigs": 1, "hex": "76a9147bf3b47de78e4404563805f5d221a10dbec48d5288ac", "addresses": ["1CJQ4X5aX8b54R8ReReiPxgwyyvDuZAAza"], "asm": "OP_DUP OP_HASH160 7bf3b47de78e4404563805f5d221a10dbec48d52 OP_EQUALVERIFY OP_CHECKSIG", "type": "pubkeyhash"}, "value": 0.00489215, "n": 0}, {"scriptPubKey": {"reqSigs": 1, "hex": "a914e75dd3de146d9249b0a7e04beb4007dd45c170e587", "addresses": ["3NnNR7WW2wExsfQ6yExH9DT7NwwKjJS9wb"], "asm": "OP_HASH160 e75dd3de146d9249b0a7e04beb4007dd45c170e5 OP_EQUAL", "type": "scripthash"}, "value": 0.00804378, "n": 1}], "hex": "0100000002bc50a45e5c5a331ab291287669fbe2671458fa58888b1be19778bb4a5b66c90c010000006a473044022002efa2236e5ae80f4001fcd00b3354e0d240aeb1cae5ab65556cbf0e9a4d8d31022056bcddeb8f4518b5446f3680805ba2f0bc5f7afc6e3be054c00406a8c9c8f7f20121028af0b60f2675905ca4dd3cfa262e5729b66376fc04339af1701c9328d4e5164cffffffffc3f05e8a3da7c47f5588a036102508d65d77bb2ed13b8ba63fcc471ceeda4958010000006b483045022100a3692bd1b6e35b8b2377cade5924b3d6909fd9cf06ea76d20cb4a94b753641a202204130c8a1c8e53b570e55027fc3e0566dab20d207d0aae32b98679a268febc07c01210213e16996c42c81ad4d426e41a2d6b2a6f1a7ffd65176aa6674c0a01062a58825ffffffff02ff760700000000001976a9147bf3b47de78e4404563805f5d221a10dbec48d5288ac1a460c000000000017a914e75dd3de146d9249b0a7e04beb4007dd45c170e58700000000", "vin": [{"sequence": 4294967295, "scriptSig": {"hex": "473044022002efa2236e5ae80f4001fcd00b3354e0d240aeb1cae5ab65556cbf0e9a4d8d31022056bcddeb8f4518b5446f3680805ba2f0bc5f7afc6e3be054c00406a8c9c8f7f20121028af0b60f2675905ca4dd3cfa262e5729b66376fc04339af1701c9328d4e5164c", "asm": "3044022002efa2236e5ae80f4001fcd00b3354e0d240aeb1cae5ab65556cbf0e9a4d8d31022056bcddeb8f4518b5446f3680805ba2f0bc5f7afc6e3be054c00406a8c9c8f7f2[ALL] 028af0b60f2675905ca4dd3cfa262e5729b66376fc04339af1701c9328d4e5164c"}, "vout": 1, "txid": "0cc9665b4abb7897e11b8b8858fa581467e2fb69762891b21a335a5c5ea450bc"}, {"sequence": 4294967295, "scriptSig": {"hex": "483045022100a3692bd1b6e35b8b2377cade5924b3d6909fd9cf06ea76d20cb4a94b753641a202204130c8a1c8e53b570e55027fc3e0566dab20d207d0aae32b98679a268febc07c01210213e16996c42c81ad4d426e41a2d6b2a6f1a7ffd65176aa6674c0a01062a58825", "asm": "3045022100a3692bd1b6e35b8b2377cade5924b3d6909fd9cf06ea76d20cb4a94b753641a202204130c8a1c8e53b570e55027fc3e0566dab20d207d0aae32b98679a268febc07c[ALL] 0213e16996c42c81ad4d426e41a2d6b2a6f1a7ffd65176aa6674c0a01062a58825"}, "vout": 1, "txid": "5849daee1c47cc3fa68b3bd12ebb775dd608251036a088557fc4a73d8a5ef0c3"}], "txid": "13ff358877a3924668135c89033f2763ff4cec90fcfd7c6ecd15231b2b173e64", "blocktime": 1537872018, "version": 1, "confirmations": 11489, "time": 1537872018, "locktime": 0, "vsize": 371, "size": 371}