{"hash": "14031cc52a2def36cde9adf7a1a865f250590e129645904c1900939bb4174a30", "blockhash": "0000000000000000001cda96e906b7601b7a6fb1a3b62bca570a9e5d8f4b3de1", "vout": [{"scriptPubKey": {"reqSigs": 1, "hex": "a91439d19afb007c0ccbdc559225a8dc99b056371e6a87", "addresses": ["36xjY7gjLqXYZ14ZruwqEjuu9HkuuidhG3"], "asm": "OP_HASH160 39d19afb007c0ccbdc559225a8dc99b056371e6a OP_EQUAL", "type": "scripthash"}, "value": 0.40995, "n": 0}], "hex": "01000000014ea3827c53f1fd98228be179b46c9dcae332c2e3052a80c8488a1d3950a2aec4060000006a4730440220574ce7733d51bae9aafcb1cc704089a6f0994b120ed3ff487eab0c5ec075eaba02200f01a6e9e4f3fd6be04fab590ece282a9344c6acf648e9064d8bfe5d821cbdb90121038731efb91b2b32063c90cf2c62d645d4f0a2573bf1b16ef64e71a55476eadc6dffffffff01b88871020000000017a91439d19afb007c0ccbdc559225a8dc99b056371e6a8700000000", "vin": [{"sequence": 4294967295, "scriptSig": {"hex": "4730440220574ce7733d51bae9aafcb1cc704089a6f0994b120ed3ff487eab0c5ec075eaba02200f01a6e9e4f3fd6be04fab590ece282a9344c6acf648e9064d8bfe5d821cbdb90121038731efb91b2b32063c90cf2c62d645d4f0a2573bf1b16ef64e71a55476eadc6d", "asm": "30440220574ce7733d51bae9aafcb1cc704089a6f0994b120ed3ff487eab0c5ec075eaba02200f01a6e9e4f3fd6be04fab590ece282a9344c6acf648e9064d8bfe5d821cbdb9[ALL] 038731efb91b2b32063c90cf2c62d645d4f0a2573bf1b16ef64e71a55476eadc6d"}, "vout": 6, "txid": "c4aea250391d8a48c8802a05e3c232e3ca9d6cb479e18b2298fdf1537c82a34e"}], "txid": "14031cc52a2def36cde9adf7a1a865f250590e129645904c1900939bb4174a30", "blocktime": 1537873282, "version": 1, "confirmations": 11480, "time": 1537873282, "locktime": 0, "vsize": 189, "size": 189}