{"hash": "1405168c5686d1da56633ebdf5cd76bed9bdaed0550b1c559e37c077a085f592", "blockhash": "0000000000000000000dcc0f55137456b1a82d3642486a52398922ac4d620174", "vout": [{"scriptPubKey": {"reqSigs": 1, "hex": "76a914d243e6abb9a60fbff430b421d2df4b7d59ec186088ac", "addresses": ["1LAnF8h3qMGx3TSwNUHVneBZUEpwE4gu3D"], "asm": "OP_DUP OP_HASH160 d243e6abb9a60fbff430b421d2df4b7d59ec1860 OP_EQUALVERIFY OP_CHECKSIG", "type": "pubkeyhash"}, "value": 0.00076972, "n": 0}, {"scriptPubKey": {"reqSigs": 1, "hex": "76a9143851f34d13937b673a7d24a1950bb5b21ce94af388ac", "addresses": ["168o1kqNquEJeR9vosUB5fw4eAwcVAgh8P"], "asm": "OP_DUP OP_HASH160 3851f34d13937b673a7d24a1950bb5b21ce94af3 OP_EQUALVERIFY OP_CHECKSIG", "type": "pubkeyhash"}, "value": 5.46e-06, "n": 1}, {"scriptPubKey": {"type": "nulldata", "hex": "6a146f6d6e69000000000000001f0000012a05f20000", "asm": "OP_RETURN 6f6d6e69000000000000001f0000012a05f20000"}, "value": 0.0, "n": 2}], "hex": "0100000002f01ce4e0fb4c29be4dbf8ecbcf6d038c37499e5dfdd00f8d6cf07b500e4a6b77000000006b483045022100985d373e03f06ed0fdcddeba35108a5f6e182d62ad1a41f21ffbf07995fe19c6022023b81c0ac4da931cfbacd16078466167cbd477c95639a9ebb4311faa04ee78410121029988cbb65eca54dbea871bd3566476afc4d87d6be318d12b498cc63ed7a8d76cffffffffb7b33edbba3f5c0305882aa107235f14daf622877b8446c087c9f41fc0c92a23000000006a47304402202aad6df8fab1bccd00977676e3e75063e6f65931cfdbddc8bec1bd2fa103e57a02205ee82c88ad4a6d3a0288a1ff480be6c87b625924181c708dda2b8ab50ae3a7ab01210271977291b74f1f5f5c42157e8aae804664eaaeccfd097918450d37f28fb94d77ffffffff03ac2c0100000000001976a914d243e6abb9a60fbff430b421d2df4b7d59ec186088ac22020000000000001976a9143851f34d13937b673a7d24a1950bb5b21ce94af388ac0000000000000000166a146f6d6e69000000000000001f0000012a05f2000000000000", "vin": [{"sequence": 4294967295, "scriptSig": {"hex": "483045022100985d373e03f06ed0fdcddeba35108a5f6e182d62ad1a41f21ffbf07995fe19c6022023b81c0ac4da931cfbacd16078466167cbd477c95639a9ebb4311faa04ee78410121029988cbb65eca54dbea871bd3566476afc4d87d6be318d12b498cc63ed7a8d76c", "asm": "3045022100985d373e03f06ed0fdcddeba35108a5f6e182d62ad1a41f21ffbf07995fe19c6022023b81c0ac4da931cfbacd16078466167cbd477c95639a9ebb4311faa04ee7841[ALL] 029988cbb65eca54dbea871bd3566476afc4d87d6be318d12b498cc63ed7a8d76c"}, "vout": 0, "txid": "776b4a0e507bf06c8d0fd0fd5d9e49378c036dcfcb8ebf4dbe294cfbe0e41cf0"}, {"sequence": 4294967295, "scriptSig": {"hex": "47304402202aad6df8fab1bccd00977676e3e75063e6f65931cfdbddc8bec1bd2fa103e57a02205ee82c88ad4a6d3a0288a1ff480be6c87b625924181c708dda2b8ab50ae3a7ab01210271977291b74f1f5f5c42157e8aae804664eaaeccfd097918450d37f28fb94d77", "asm": "304402202aad6df8fab1bccd00977676e3e75063e6f65931cfdbddc8bec1bd2fa103e57a02205ee82c88ad4a6d3a0288a1ff480be6c87b625924181c708dda2b8ab50ae3a7ab[ALL] 0271977291b74f1f5f5c42157e8aae804664eaaeccfd097918450d37f28fb94d77"}, "vout": 0, "txid": "232ac9c01ff4c987c046847b8722f6da145f2307a12a8805035c3fbadb3eb3b7"}], "txid": "1405168c5686d1da56633ebdf5cd76bed9bdaed0550b1c559e37c077a085f592", "blocktime": 1537870268, "version": 1, "confirmations": 11516, "time": 1537870268, "locktime": 0, "vsize": 404, "size": 404}