{"hash": "14080caa0058a61cbb859d60a297a2f858ad90feaec911094a0813391becd241", "blockhash": "0000000000000000000e13cef7c366c0283d82e591d1acd082e914b08063cdf1", "vout": [{"scriptPubKey": {"reqSigs": 1, "hex": "76a914519af8561a4426106e01f1c00f407e97b38ffd5488ac", "addresses": ["18SVP3jL2a7i3CvRU8RTB2zA8DDvQUjc7X"], "asm": "OP_DUP OP_HASH160 519af8561a4426106e01f1c00f407e97b38ffd54 OP_EQUALVERIFY OP_CHECKSIG", "type": "pubkeyhash"}, "value": 0.0223268, "n": 0}, {"scriptPubKey": {"type": "nulldata", "hex": "6a4c50000077a50001cbb205e5d82553f51ee4a0c3af6c953dd567cf27e7e3ef3236678a6250971726b13df038a3ece4a19bad472bfa265baa0efa0614574a5cb5650dbc9a9526289ac0f6612cd74e33776ee4", "asm": "OP_RETURN 000077a50001cbb205e5d82553f51ee4a0c3af6c953dd567cf27e7e3ef3236678a6250971726b13df038a3ece4a19bad472bfa265baa0efa0614574a5cb5650dbc9a9526289ac0f6612cd74e33776ee4"}, "value": 0.0, "n": 1}], "hex": "0100000001a0265a08fee4c3ab611595948c5d0f13353dbbd81baccac52906037d8393a470000000006a47304402202bb4fc2ff3970ab8484bc30045d13ccdf0eb641be8c0fc94571f5d84eaadb27802200fe14b9c6191aab481bd44c6bc8ec81c523efff90c657f1e7de351893c884e3c01210325d76523ab656dc947845a544fd965e8c5f1e86077721e588fe1264b4e3d5fceffffffff0268112200000000001976a914519af8561a4426106e01f1c00f407e97b38ffd5488ac0000000000000000536a4c50000077a50001cbb205e5d82553f51ee4a0c3af6c953dd567cf27e7e3ef3236678a6250971726b13df038a3ece4a19bad472bfa265baa0efa0614574a5cb5650dbc9a9526289ac0f6612cd74e33776ee400000000", "vin": [{"sequence": 4294967295, "scriptSig": {"hex": "47304402202bb4fc2ff3970ab8484bc30045d13ccdf0eb641be8c0fc94571f5d84eaadb27802200fe14b9c6191aab481bd44c6bc8ec81c523efff90c657f1e7de351893c884e3c01210325d76523ab656dc947845a544fd965e8c5f1e86077721e588fe1264b4e3d5fce", "asm": "304402202bb4fc2ff3970ab8484bc30045d13ccdf0eb641be8c0fc94571f5d84eaadb27802200fe14b9c6191aab481bd44c6bc8ec81c523efff90c657f1e7de351893c884e3c[ALL] 0325d76523ab656dc947845a544fd965e8c5f1e86077721e588fe1264b4e3d5fce"}, "vout": 0, "txid": "70a493837d030629c5caac1bd8bb3d35130f5d8c94951561abc3e4fe085a26a0"}], "txid": "14080caa0058a61cbb859d60a297a2f858ad90feaec911094a0813391becd241", "blocktime": 1537871767, "version": 1, "confirmations": 11493, "time": 1537871767, "locktime": 0, "vsize": 283, "size": 283}