{"hash": "5d257347e2993c2b099dd90e2ada4e1f6f48892652defd0c2edd692f06c20f4f", "blockhash": "0000000000000000000e13cef7c366c0283d82e591d1acd082e914b08063cdf1", "vout": [{"scriptPubKey": {"reqSigs": 1, "hex": "a91499f2e4d7bb9ce98e0c6bce3a7314d02cf59a022a87", "addresses": ["3Fj2HTaNyDZgVrCjV3oBYpMM2o3CvgAgL6"], "asm": "OP_HASH160 99f2e4d7bb9ce98e0c6bce3a7314d02cf59a022a OP_EQUAL", "type": "scripthash"}, "value": 0.00139235, "n": 0}, {"scriptPubKey": {"reqSigs": 1, "hex": "a91455b6b060ec5e574f4d5b2b7b22bae0deeb02743e87", "addresses": ["39WEDJUcEhawAGqqnT4VbzERcpZpQrwBvc"], "asm": "OP_HASH160 55b6b060ec5e574f4d5b2b7b22bae0deeb02743e OP_EQUAL", "type": "scripthash"}, "value": 3.754e-05, "n": 1}], "hex": "01000000000101840ea748a0601520486d6adead0b81d3c6901ec5695cbbd5866890f7b26b46a6000000001716001403db15cc49a01ee8492dc0db8b5f6e6f7eebfca0ffffffff02e31f02000000000017a91499f2e4d7bb9ce98e0c6bce3a7314d02cf59a022a87aa0e00000000000017a91455b6b060ec5e574f4d5b2b7b22bae0deeb02743e8702483045022100ec39749d2d46954109a845afdc1de6e3b921522b9082c9f0d338f4183087ce180220221d4c71f7b88c295bae655a77756dbb72575e39dc00577b11654b6d7939552101210351c16cf85b2ecbf6e717d8e3a2e92abb481c3d87357aa88c21378aec1739e48100000000", "vin": [{"txinwitness": ["3045022100ec39749d2d46954109a845afdc1de6e3b921522b9082c9f0d338f4183087ce180220221d4c71f7b88c295bae655a77756dbb72575e39dc00577b11654b6d7939552101", "0351c16cf85b2ecbf6e717d8e3a2e92abb481c3d87357aa88c21378aec1739e481"], "sequence": 4294967295, "scriptSig": {"hex": "16001403db15cc49a01ee8492dc0db8b5f6e6f7eebfca0", "asm": "001403db15cc49a01ee8492dc0db8b5f6e6f7eebfca0"}, "vout": 0, "txid": "a6466bb2f7906886d5bb5c69c51e90c6d3810badde6a6d48201560a048a70e84"}], "txid": "14083bcf7f8a71891add98237fe599f9fb22e20c599eae872c33ee81be7567d2", "blocktime": 1537871767, "version": 1, "confirmations": 11490, "time": 1537871767, "locktime": 0, "vsize": 166, "size": 248}