{"hash": "140ae16a513fdee42a4454bb47247ea2fb9e3c7981063db6468cd1f09a0d55f5", "blockhash": "0000000000000000001f0ddff1eddb255c1121bcd4da4f1bc9a0da00cae72433", "vout": [{"scriptPubKey": {"reqSigs": 1, "hex": "a914a1aa7dcdf2ae3e0c21cfb2487e5d45564bd61e1687", "addresses": ["3GRpxP1QducZprWvyUCGks57TZUzEnm1p4"], "asm": "OP_HASH160 a1aa7dcdf2ae3e0c21cfb2487e5d45564bd61e16 OP_EQUAL", "type": "scripthash"}, "value": 0.127215, "n": 0}], "hex": "0100000001046c3f2db696592a52ab85d08b35a62eba41e9b2319fb87a3ebb6ade54cea2f7010000006b483045022100dafa8d409e471f0019ffe015881ad04421cfdb0699ad3e97e9feb1bbea96737402200ba96e8e496b76d5f10a9add947044b43f651ff8aa1dd5f778b55499b308e3cf012103dfadd9a511f01a18b2f8e5cd1ec7b2e59b10ca62e3460fe11edd8609e98d76c2ffffffff015c1dc2000000000017a914a1aa7dcdf2ae3e0c21cfb2487e5d45564bd61e168700000000", "vin": [{"sequence": 4294967295, "scriptSig": {"hex": "483045022100dafa8d409e471f0019ffe015881ad04421cfdb0699ad3e97e9feb1bbea96737402200ba96e8e496b76d5f10a9add947044b43f651ff8aa1dd5f778b55499b308e3cf012103dfadd9a511f01a18b2f8e5cd1ec7b2e59b10ca62e3460fe11edd8609e98d76c2", "asm": "3045022100dafa8d409e471f0019ffe015881ad04421cfdb0699ad3e97e9feb1bbea96737402200ba96e8e496b76d5f10a9add947044b43f651ff8aa1dd5f778b55499b308e3cf[ALL] 03dfadd9a511f01a18b2f8e5cd1ec7b2e59b10ca62e3460fe11edd8609e98d76c2"}, "vout": 1, "txid": "f7a2ce54de6abb3e7ab89f31b2e941ba2ea6358bd085ab522a5996b62d3f6c04"}], "txid": "140ae16a513fdee42a4454bb47247ea2fb9e3c7981063db6468cd1f09a0d55f5", "blocktime": 1537872018, "version": 1, "confirmations": 11489, "time": 1537872018, "locktime": 0, "vsize": 190, "size": 190}