{"hash": "05d88eb4683b0f6abf34131203cecdb4e99052d13e8ff45a19e96fb0f8b96929", "blockhash": "0000000000000000000dcc0f55137456b1a82d3642486a52398922ac4d620174", "vout": [{"scriptPubKey": {"reqSigs": 1, "hex": "76a9148c7ab20d9dda380d2e95fa0cab3e8de1e9c77a0688ac", "addresses": ["1DonateWffyhwAjskoEwXt83pHZxhLTr8H"], "asm": "OP_DUP OP_HASH160 8c7ab20d9dda380d2e95fa0cab3e8de1e9c77a06 OP_EQUALVERIFY OP_CHECKSIG", "type": "pubkeyhash"}, "value": 7.83e-06, "n": 0}], "hex": "02000000000101841b51b6693c42a8f5f6d17be1aca3ac098ea9e844cc899abc2743229c791579000000001716001431171bb954928203111af748a918f859340e426effffffff010f030000000000001976a9148c7ab20d9dda380d2e95fa0cab3e8de1e9c77a0688ac02473044022027bebd61aa7c9781598f4ceeb3d8666a6691fbf71aae3f922982b074dfdbc72c02203b2ccc7165461a5fbedc1af3fedc6d0b5f645fd115146f884dee245c835cd458012103b5261490523463ef9889b2e15f03fa79e862d1f871e94abdba2bc5e32e3cffe100000000", "vin": [{"txinwitness": ["3044022027bebd61aa7c9781598f4ceeb3d8666a6691fbf71aae3f922982b074dfdbc72c02203b2ccc7165461a5fbedc1af3fedc6d0b5f645fd115146f884dee245c835cd45801", "03b5261490523463ef9889b2e15f03fa79e862d1f871e94abdba2bc5e32e3cffe1"], "sequence": 4294967295, "scriptSig": {"hex": "16001431171bb954928203111af748a918f859340e426e", "asm": "001431171bb954928203111af748a918f859340e426e"}, "vout": 0, "txid": "7915799c224327bc9a89cc44e8a98e09aca3ace17bd1f6f5a8423c69b6511b84"}], "txid": "141414ea823a358739f17a848e863eb12f023cd4a1633945fe23302583cb33dc", "blocktime": 1537870268, "version": 2, "confirmations": 11518, "time": 1537870268, "locktime": 0, "vsize": 136, "size": 217}