{"hash": "1415d98c26d137d1be4a29dc232b87ada1965c92b89c4b8edc1c14644f3ea8e5", "blockhash": "0000000000000000000e13cef7c366c0283d82e591d1acd082e914b08063cdf1", "vout": [{"scriptPubKey": {"reqSigs": 1, "hex": "76a91431c1177524c3570f851b956d9b5eaada7ace997088ac", "addresses": ["15Y5ReCmjTmq3CHiXetsKHeyfdgkcYjGkj"], "asm": "OP_DUP OP_HASH160 31c1177524c3570f851b956d9b5eaada7ace9970 OP_EQUALVERIFY OP_CHECKSIG", "type": "pubkeyhash"}, "value": 0.0224598, "n": 0}, {"scriptPubKey": {"reqSigs": 1, "hex": "76a91424facc3c3c21db7bcf09394a564326a40920ddd688ac", "addresses": ["14NXmeF72jbN8qtz1U54x5gMm9T8a9dTtZ"], "asm": "OP_DUP OP_HASH160 24facc3c3c21db7bcf09394a564326a40920ddd6 OP_EQUALVERIFY OP_CHECKSIG", "type": "pubkeyhash"}, "value": 0.02176992, "n": 1}], "hex": "01000000023ad485951ff684fa6eee578f488bab98f5aa2d5cd0bbea757853f700b6838f71000000006a4730440220065aaea1797a96b954e5b85588e2a57f86e02f5a54128074867a4df69322e45402205d9739af2cd3748bfba4aff34bb9c13daf9dbc64b2d2210c6b764c9f8c2fa6e20121037124d149d01e1ac815d39c7170f5db3fea4a5d752a2a449864a125a34583d4c5ffffffff20408d14047b03e4c6497fbf6dd680b3836c3f281c2702bdfbeb333a68beaf03010000006b483045022100b9e5ace66ece91f52f43f3b3f2d04cc664c30bf85bad27ae5a99244c880fbe780220326ce34dc23ccc3541e1c562af7e960a7afb28ae77a0a73eb5e1dbdc721cdb14012102e4d42967c319d99c60953e479da663715e02e93f187a79b9e90905b61d16a0c3ffffffff025c452200000000001976a91431c1177524c3570f851b956d9b5eaada7ace997088ace0372100000000001976a91424facc3c3c21db7bcf09394a564326a40920ddd688ac00000000", "vin": [{"sequence": 4294967295, "scriptSig": {"hex": "4730440220065aaea1797a96b954e5b85588e2a57f86e02f5a54128074867a4df69322e45402205d9739af2cd3748bfba4aff34bb9c13daf9dbc64b2d2210c6b764c9f8c2fa6e20121037124d149d01e1ac815d39c7170f5db3fea4a5d752a2a449864a125a34583d4c5", "asm": "30440220065aaea1797a96b954e5b85588e2a57f86e02f5a54128074867a4df69322e45402205d9739af2cd3748bfba4aff34bb9c13daf9dbc64b2d2210c6b764c9f8c2fa6e2[ALL] 037124d149d01e1ac815d39c7170f5db3fea4a5d752a2a449864a125a34583d4c5"}, "vout": 0, "txid": "718f83b600f7537875eabbd05c2daaf598ab8b488f57ee6efa84f61f9585d43a"}, {"sequence": 4294967295, "scriptSig": {"hex": "483045022100b9e5ace66ece91f52f43f3b3f2d04cc664c30bf85bad27ae5a99244c880fbe780220326ce34dc23ccc3541e1c562af7e960a7afb28ae77a0a73eb5e1dbdc721cdb14012102e4d42967c319d99c60953e479da663715e02e93f187a79b9e90905b61d16a0c3", "asm": "3045022100b9e5ace66ece91f52f43f3b3f2d04cc664c30bf85bad27ae5a99244c880fbe780220326ce34dc23ccc3541e1c562af7e960a7afb28ae77a0a73eb5e1dbdc721cdb14[ALL] 02e4d42967c319d99c60953e479da663715e02e93f187a79b9e90905b61d16a0c3"}, "vout": 1, "txid": "03afbe683a33ebfbbd02271c283f6c83b380d66dbf7f49c6e4037b04148d4020"}], "txid": "1415d98c26d137d1be4a29dc232b87ada1965c92b89c4b8edc1c14644f3ea8e5", "blocktime": 1537871767, "version": 1, "confirmations": 11490, "time": 1537871767, "locktime": 0, "vsize": 373, "size": 373}