{"hash": "141653bd5cc897fc4eb7cceebc6b75a2addf34aff6eaf0a376b151e112d8ed57", "blockhash": "00000000000000000017f5eb5941039fbcee6240d03bc1f2f8e35350df66a1d8", "vout": [{"scriptPubKey": {"reqSigs": 1, "hex": "a9145e7fe44bb10b5e1f625524fd82f05628987f7ac787", "addresses": ["3AJgeeoA53sBfsFpMHXvBV3ve3pZMmsi25"], "asm": "OP_HASH160 5e7fe44bb10b5e1f625524fd82f05628987f7ac7 OP_EQUAL", "type": "scripthash"}, "value": 0.00160145, "n": 0}, {"scriptPubKey": {"reqSigs": 1, "hex": "a9140cbb85a59f1d21e397cc2507efb833acadd6245f87", "addresses": ["32rLg79PFovVx2CjD8gnwV8RE5fRW7YpFu"], "asm": "OP_HASH160 0cbb85a59f1d21e397cc2507efb833acadd6245f OP_EQUAL", "type": "scripthash"}, "value": 0.004048, "n": 1}], "hex": "01000000013cee7d4197eedd87d65f660f54e468cd90ff6c08fdd77367cadbc65e10c18ea1db010000fdfd000047304402204099addbdc0fc7680337e25abf68015725a9d04f3d2dc66f938c9a5e62dcc6940220199567aef30bb26e2e2c88ad1a5691c38803b01fcf6aa6f8ab10fe152b5facbd0148304502210092bde8851668053c7700bd7dfc3c52e334e1c2cdb58d802a2d23fea2c423c9c8022030798620099c62a7dcc17a298f7d5298522eb15f63aa81116d0c6a082798e421014c695221028cf1ac56859bd5d0787ef9e961db0b2d182b790e4876e2fcfe39ee5f26ec59a32102b54337461cbdcb30608b06fb178feffc1e595b4ddffbeff6443919b6f76724642103dd30a0015d9fdc536896323ec6b406ce9d65d86526f498b7d7063c0131601d9c53aeffffffff02917102000000000017a9145e7fe44bb10b5e1f625524fd82f05628987f7ac787402d06000000000017a9140cbb85a59f1d21e397cc2507efb833acadd6245f8700000000", "vin": [{"sequence": 4294967295, "scriptSig": {"hex": "0047304402204099addbdc0fc7680337e25abf68015725a9d04f3d2dc66f938c9a5e62dcc6940220199567aef30bb26e2e2c88ad1a5691c38803b01fcf6aa6f8ab10fe152b5facbd0148304502210092bde8851668053c7700bd7dfc3c52e334e1c2cdb58d802a2d23fea2c423c9c8022030798620099c62a7dcc17a298f7d5298522eb15f63aa81116d0c6a082798e421014c695221028cf1ac56859bd5d0787ef9e961db0b2d182b790e4876e2fcfe39ee5f26ec59a32102b54337461cbdcb30608b06fb178feffc1e595b4ddffbeff6443919b6f76724642103dd30a0015d9fdc536896323ec6b406ce9d65d86526f498b7d7063c0131601d9c53ae", "asm": "0 304402204099addbdc0fc7680337e25abf68015725a9d04f3d2dc66f938c9a5e62dcc6940220199567aef30bb26e2e2c88ad1a5691c38803b01fcf6aa6f8ab10fe152b5facbd[ALL] 304502210092bde8851668053c7700bd7dfc3c52e334e1c2cdb58d802a2d23fea2c423c9c8022030798620099c62a7dcc17a298f7d5298522eb15f63aa81116d0c6a082798e421[ALL] 5221028cf1ac56859bd5d0787ef9e961db0b2d182b790e4876e2fcfe39ee5f26ec59a32102b54337461cbdcb30608b06fb178feffc1e595b4ddffbeff6443919b6f76724642103dd30a0015d9fdc536896323ec6b406ce9d65d86526f498b7d7063c0131601d9c53ae"}, "vout": 475, "txid": "a18ec1105ec6dbca6773d7fd086cff90cd68e4540f665fd687ddee97417dee3c"}], "txid": "141653bd5cc897fc4eb7cceebc6b75a2addf34aff6eaf0a376b151e112d8ed57", "blocktime": 1537874412, "version": 1, "confirmations": 11467, "time": 1537874412, "locktime": 0, "vsize": 370, "size": 370}