{"hash": "de09c142a9d2e318fb599fb85b6605ce781c0a15de3e4d60fc4f2278fed35fea", "blockhash": "0000000000000000001f0ddff1eddb255c1121bcd4da4f1bc9a0da00cae72433", "vout": [{"scriptPubKey": {"reqSigs": 1, "hex": "a9145c645d19afe6516c86bfdf34bd4f45ec8715d67287", "addresses": ["3A7YKajWUR1WGQkmUtcjLivuhUkbYWfRgS"], "asm": "OP_HASH160 5c645d19afe6516c86bfdf34bd4f45ec8715d672 OP_EQUAL", "type": "scripthash"}, "value": 0.01326323, "n": 0}, {"scriptPubKey": {"reqSigs": 1, "hex": "76a9146c1a9ecb6b8ec668b2bdc3f883f56669ccd5296488ac", "addresses": ["1ArbsL2G5nYPhrHiuRF6yhMgSsERZrxWYm"], "asm": "OP_DUP OP_HASH160 6c1a9ecb6b8ec668b2bdc3f883f56669ccd52964 OP_EQUALVERIFY OP_CHECKSIG", "type": "pubkeyhash"}, "value": 0.00143228, "n": 1}], "hex": "02000000000101acf23759ec0df0545af728693198f9fecbc25c727e856fc63abc608e429f9c800200000017160014b00a44849f9a02544b9eca552c733d7ec9889c25fdffffff02f33c14000000000017a9145c645d19afe6516c86bfdf34bd4f45ec8715d672877c2f0200000000001976a9146c1a9ecb6b8ec668b2bdc3f883f56669ccd5296488ac0248304502210099f5067e37cdd5654156f3ece51f2e8e6481b6e1a8e2b43c46e99a5e8c26c85602200c49a2cfa71ba4f4d0decaa1355459a1ac3befd7535afd37112812ec69bc10ce01210344268495ff17c15037a25d4108d3ac9bee666e651997ff1dc07881c59ebd31d411490800", "vin": [{"txinwitness": ["304502210099f5067e37cdd5654156f3ece51f2e8e6481b6e1a8e2b43c46e99a5e8c26c85602200c49a2cfa71ba4f4d0decaa1355459a1ac3befd7535afd37112812ec69bc10ce01", "0344268495ff17c15037a25d4108d3ac9bee666e651997ff1dc07881c59ebd31d4"], "sequence": 4294967293, "scriptSig": {"hex": "160014b00a44849f9a02544b9eca552c733d7ec9889c25", "asm": "0014b00a44849f9a02544b9eca552c733d7ec9889c25"}, "vout": 2, "txid": "809c9f428e60bc3ac66f857e725cc2cbfef998316928f75a54f00dec5937f2ac"}], "txid": "14173809aafe897968b5e796955d575109639d5ae1ea5b0b877cd10c6a4ee4c2", "blocktime": 1537872018, "version": 2, "confirmations": 11489, "time": 1537872018, "locktime": 542993, "vsize": 168, "size": 250}