{"hash": "141a4246ac7f85c067844d984c81bcbacbe51bc220d2a45e4d2e593359e8881c", "blockhash": "0000000000000000000e13cef7c366c0283d82e591d1acd082e914b08063cdf1", "vout": [{"scriptPubKey": {"reqSigs": 1, "hex": "a9146e17ef56e93ffced818dd4ce8152897670eb4cb287", "addresses": ["3Bj8vfxWY4GcHCDm4f7VkmE9gSCXhEmBk1"], "asm": "OP_HASH160 6e17ef56e93ffced818dd4ce8152897670eb4cb2 OP_EQUAL", "type": "scripthash"}, "value": 0.02837494, "n": 0}], "hex": "010000000497763d5e5f4741cf1d729920d87fdbebcfcb2a5dceca681936838a600728cf06010000006b483045022100b46c607342d4e791e5b88198dbd3e5a31e40c45db7ac7dcf591a269dc088686e022039011b391a0e96f6692ffb4f72e41209836685fb062f68ec552c400204b58db601210286bb85f590955dcb2a7fb0252d99e47955c0f69ac0ab22744f8480fa1e2dc265ffffffff3cbea6e77f8e84bde07559546c0cfabc72292cbef51269e6e0c6514603c26826000000006a473044022012e761f7f5d049508c44496bc59a62bbb18ec6a59be0dae02b6b52f7b892aa83022022283534400f811431ca0d65b86a9b05088f7f028bb2dd57e2b3389c324626c6012103bcb2bcfbb2dbdd61f4f643c7b2f5e099cd0fee8890bd4c711725cd109c623d5fffffffff3458342dfc4ea7468d78a01d39f4f39e06785c9aad7bc5350ccf6d099fe6f19e000000006a47304402206953fe34fff0c108db794efc07ace60c2d936e16bbc2cc32a023318ae87b0a56022029a5059823a154bf466e78e36a42a9910517603fafe3bc295d2a69d166663947012102d85dcdb3171b356b5e7063ba5b0b4feb179330237ba79899c56ae80e01367889ffffffff2682650d38fea45b9075fb42fefdb4a8c2e363d1b20b6e228368f58537a2e9db010000006a47304402204a9bafe5f4d883b56a3be3426c5a964e5542cf25a5cde21c878533e6e5bdba41022027d93a30c815ddcf260c3620e4f1caca85ddadc1c4ee5fe955d7861a96e2330a012102825e71a558e80b760e5346726f08582fd12e156cf0a298d8db81fe809328208bffffffff01f64b2b000000000017a9146e17ef56e93ffced818dd4ce8152897670eb4cb28700000000", "vin": [{"sequence": 4294967295, "scriptSig": {"hex": "483045022100b46c607342d4e791e5b88198dbd3e5a31e40c45db7ac7dcf591a269dc088686e022039011b391a0e96f6692ffb4f72e41209836685fb062f68ec552c400204b58db601210286bb85f590955dcb2a7fb0252d99e47955c0f69ac0ab22744f8480fa1e2dc265", "asm": "3045022100b46c607342d4e791e5b88198dbd3e5a31e40c45db7ac7dcf591a269dc088686e022039011b391a0e96f6692ffb4f72e41209836685fb062f68ec552c400204b58db6[ALL] 0286bb85f590955dcb2a7fb0252d99e47955c0f69ac0ab22744f8480fa1e2dc265"}, "vout": 1, "txid": "06cf2807608a83361968cace5d2acbcfebdb7fd82099721dcf41475f5e3d7697"}, {"sequence": 4294967295, "scriptSig": {"hex": "473044022012e761f7f5d049508c44496bc59a62bbb18ec6a59be0dae02b6b52f7b892aa83022022283534400f811431ca0d65b86a9b05088f7f028bb2dd57e2b3389c324626c6012103bcb2bcfbb2dbdd61f4f643c7b2f5e099cd0fee8890bd4c711725cd109c623d5f", "asm": "3044022012e761f7f5d049508c44496bc59a62bbb18ec6a59be0dae02b6b52f7b892aa83022022283534400f811431ca0d65b86a9b05088f7f028bb2dd57e2b3389c324626c6[ALL] 03bcb2bcfbb2dbdd61f4f643c7b2f5e099cd0fee8890bd4c711725cd109c623d5f"}, "vout": 0, "txid": "2668c2034651c6e0e66912f5be2c2972bcfa0c6c545975e0bd848e7fe7a6be3c"}, {"sequence": 4294967295, "scriptSig": {"hex": "47304402206953fe34fff0c108db794efc07ace60c2d936e16bbc2cc32a023318ae87b0a56022029a5059823a154bf466e78e36a42a9910517603fafe3bc295d2a69d166663947012102d85dcdb3171b356b5e7063ba5b0b4feb179330237ba79899c56ae80e01367889", "asm": "304402206953fe34fff0c108db794efc07ace60c2d936e16bbc2cc32a023318ae87b0a56022029a5059823a154bf466e78e36a42a9910517603fafe3bc295d2a69d166663947[ALL] 02d85dcdb3171b356b5e7063ba5b0b4feb179330237ba79899c56ae80e01367889"}, "vout": 0, "txid": "9ef1e69f096dcf0c35c57bad9a5c78069ef3f4391da0788d46a74efc2d345834"}, {"sequence": 4294967295, "scriptSig": {"hex": "47304402204a9bafe5f4d883b56a3be3426c5a964e5542cf25a5cde21c878533e6e5bdba41022027d93a30c815ddcf260c3620e4f1caca85ddadc1c4ee5fe955d7861a96e2330a012102825e71a558e80b760e5346726f08582fd12e156cf0a298d8db81fe809328208b", "asm": "304402204a9bafe5f4d883b56a3be3426c5a964e5542cf25a5cde21c878533e6e5bdba41022027d93a30c815ddcf260c3620e4f1caca85ddadc1c4ee5fe955d7861a96e2330a[ALL] 02825e71a558e80b760e5346726f08582fd12e156cf0a298d8db81fe809328208b"}, "vout": 1, "txid": "dbe9a23785f56883226e0bb2d163e3c2a8b4fdfe42fb75905ba4fe380d658226"}], "txid": "141a4246ac7f85c067844d984c81bcbacbe51bc220d2a45e4d2e593359e8881c", "blocktime": 1537871767, "version": 1, "confirmations": 11493, "time": 1537871767, "locktime": 0, "vsize": 631, "size": 631}