{"hash": "cc2461e197889eeeaa4fb4c1798e890d6711da30f3fd02a5e2c8fcfc57388128", "blockhash": "00000000000000000018f53835495a110e01622372bf6ae95dc86f2b0ab887b0", "vout": [{"scriptPubKey": {"reqSigs": 1, "hex": "76a9141bdaacd34949e3d2db7011f6f7ebf9ebf14f487b88ac", "addresses": ["13YHCzWxRikxymo9Z2T1ZMcBLQrKve5Zdq"], "asm": "OP_DUP OP_HASH160 1bdaacd34949e3d2db7011f6f7ebf9ebf14f487b OP_EQUALVERIFY OP_CHECKSIG", "type": "pubkeyhash"}, "value": 0.04, "n": 0}, {"scriptPubKey": {"reqSigs": 1, "hex": "76a914a0280cefb28937fe24a481cac7cde260350b974e88ac", "addresses": ["1Fbq6TFiQ82BcMpJDhDFBR9i84xJAeQy6W"], "asm": "OP_DUP OP_HASH160 a0280cefb28937fe24a481cac7cde260350b974e OP_EQUALVERIFY OP_CHECKSIG", "type": "pubkeyhash"}, "value": 0.0019, "n": 1}, {"scriptPubKey": {"reqSigs": 1, "hex": "76a91417631c2f10c18f68f5fe02a17d415c67f09add5f88ac", "addresses": ["138fGhircPGqEALtj79uaDxrMwwL6voeXk"], "asm": "OP_DUP OP_HASH160 17631c2f10c18f68f5fe02a17d415c67f09add5f OP_EQUALVERIFY OP_CHECKSIG", "type": "pubkeyhash"}, "value": 0.02, "n": 2}, {"scriptPubKey": {"reqSigs": 1, "hex": "a914d044330dd0cb391744344c2244c82fb98e325c0887", "addresses": ["3LgEB2Ligu97eYGiXY1XP2KLj14QqiTqMi"], "asm": "OP_HASH160 d044330dd0cb391744344c2244c82fb98e325c08 OP_EQUAL", "type": "scripthash"}, "value": 10.83099864, "n": 3}, {"scriptPubKey": {"reqSigs": 1, "hex": "76a914827a7b5ff20317af6fe1601fc090e96fd7d900fe88ac", "addresses": ["1Ctua8eVsXeiKNU64WjEaGCNHNmj5yJMQr"], "asm": "OP_DUP OP_HASH160 827a7b5ff20317af6fe1601fc090e96fd7d900fe OP_EQUALVERIFY OP_CHECKSIG", "type": "pubkeyhash"}, "value": 0.00181, "n": 4}, {"scriptPubKey": {"reqSigs": 1, "hex": "76a914f8ab2bf3e905bd18f05c68ed48b8a8452b70420588ac", "addresses": ["1PfqdnucuCEDcf8a5GZuyM2FoZ69EPnXFw"], "asm": "OP_DUP OP_HASH160 f8ab2bf3e905bd18f05c68ed48b8a8452b704205 OP_EQUALVERIFY OP_CHECKSIG", "type": "pubkeyhash"}, "value": 0.19, "n": 5}], "hex": "0200000000010156ecba38fe5ed5d6c8c09f4ea6f6dd1c77080456ea06075c51e0d866502b43ab020000001716001489a65d54b804ef1fd77f08cdc67104aa5d6364dbfdffffff0600093d00000000001976a9141bdaacd34949e3d2db7011f6f7ebf9ebf14f487b88ac30e60200000000001976a914a0280cefb28937fe24a481cac7cde260350b974e88ac80841e00000000001976a91417631c2f10c18f68f5fe02a17d415c67f09add5f88acd8ca8e400000000017a914d044330dd0cb391744344c2244c82fb98e325c088708c30200000000001976a914827a7b5ff20317af6fe1601fc090e96fd7d900fe88acc0ea2101000000001976a914f8ab2bf3e905bd18f05c68ed48b8a8452b70420588ac0247304402205f037119d57352a4e8e9a6ea7f7cf1b4f616723c195ae8b5191b01384786a4bb02201ff8d6ae5a328782681405ca4da406523d5e57cb2d7042e7c57cde092e30b881012102b4f34db3ba65f2ace77f4fb10383f5ca149a805155e84ebeb18129ebe81d206a0e490800", "vin": [{"txinwitness": ["304402205f037119d57352a4e8e9a6ea7f7cf1b4f616723c195ae8b5191b01384786a4bb02201ff8d6ae5a328782681405ca4da406523d5e57cb2d7042e7c57cde092e30b88101", "02b4f34db3ba65f2ace77f4fb10383f5ca149a805155e84ebeb18129ebe81d206a"], "sequence": 4294967293, "scriptSig": {"hex": "16001489a65d54b804ef1fd77f08cdc67104aa5d6364db", "asm": "001489a65d54b804ef1fd77f08cdc67104aa5d6364db"}, "vout": 2, "txid": "ab432b5066d8e0515c0706ea560408771cddf6a64e9fc0c8d6d55efe38baec56"}], "txid": "14222d3b64428196b4c18ba5bbc0e4a84b8227b5f9dfca4430f59d8550054782", "blocktime": 1537870928, "version": 2, "confirmations": 11514, "time": 1537870928, "locktime": 542990, "vsize": 304, "size": 385}