{"hash": "14288421c2ed6cc9b9998e6e8a688e2b685e4bcba89e8a3b00e1160cae1ac5bd", "blockhash": "0000000000000000000e13cef7c366c0283d82e591d1acd082e914b08063cdf1", "vout": [{"scriptPubKey": {"reqSigs": 1, "hex": "76a914eb29309be489baab9f33ac23e8dedfb0ad06de4c88ac", "addresses": ["1NSR91BR4Hf4H81UoLRdCcnUtCSaRZKzg9"], "asm": "OP_DUP OP_HASH160 eb29309be489baab9f33ac23e8dedfb0ad06de4c OP_EQUALVERIFY OP_CHECKSIG", "type": "pubkeyhash"}, "value": 0.00089427, "n": 0}, {"scriptPubKey": {"reqSigs": 1, "hex": "76a914a4c783083f85be0511215d32ef3427678c30fadf88ac", "addresses": ["1G2GpnbhB3TNYtXgLRn937ypEUc872oKbm"], "asm": "OP_DUP OP_HASH160 a4c783083f85be0511215d32ef3427678c30fadf OP_EQUALVERIFY OP_CHECKSIG", "type": "pubkeyhash"}, "value": 0.002, "n": 1}], "hex": "0100000001a13879d1f04d00f154f287b4baca59e23498f6d9c774bd3045d183c33677d3bf010000006b4830450221008e5033534cda4387cb4ab2113f9150cde9bf8fd2487a3341164207d65cabed610220545d8f8383b70fd0b2cc2b01f619d0fb2eb5f40b4d16219aeee2ed55596ad5820121035caef4d468a0d0bb827500dab0dab5bbd0ecbcc8bfb0b3bf4016ccacc1761e48ffffffff02535d0100000000001976a914eb29309be489baab9f33ac23e8dedfb0ad06de4c88ac400d0300000000001976a914a4c783083f85be0511215d32ef3427678c30fadf88ac00000000", "vin": [{"sequence": 4294967295, "scriptSig": {"hex": "4830450221008e5033534cda4387cb4ab2113f9150cde9bf8fd2487a3341164207d65cabed610220545d8f8383b70fd0b2cc2b01f619d0fb2eb5f40b4d16219aeee2ed55596ad5820121035caef4d468a0d0bb827500dab0dab5bbd0ecbcc8bfb0b3bf4016ccacc1761e48", "asm": "30450221008e5033534cda4387cb4ab2113f9150cde9bf8fd2487a3341164207d65cabed610220545d8f8383b70fd0b2cc2b01f619d0fb2eb5f40b4d16219aeee2ed55596ad582[ALL] 035caef4d468a0d0bb827500dab0dab5bbd0ecbcc8bfb0b3bf4016ccacc1761e48"}, "vout": 1, "txid": "bfd37736c383d14530bd74c7d9f69834e259cabab487f254f1004df0d17938a1"}], "txid": "14288421c2ed6cc9b9998e6e8a688e2b685e4bcba89e8a3b00e1160cae1ac5bd", "blocktime": 1537871767, "version": 1, "confirmations": 11495, "time": 1537871767, "locktime": 0, "vsize": 226, "size": 226}