{"hash": "bc8ba934df6df28cd25483397eaab4fc7ea2a60afbb29df730b25834c5b3995e", "blockhash": "0000000000000000000e13cef7c366c0283d82e591d1acd082e914b08063cdf1", "vout": [{"scriptPubKey": {"reqSigs": 1, "hex": "76a91479251f909e41ad7bcbc6b59ea73d3c10f14f1fcd88ac", "addresses": ["1C3ZEarHMwxgNmBZo1pfJRzQoFREiG45Ap"], "asm": "OP_DUP OP_HASH160 79251f909e41ad7bcbc6b59ea73d3c10f14f1fcd OP_EQUALVERIFY OP_CHECKSIG", "type": "pubkeyhash"}, "value": 0.0015796, "n": 0}, {"scriptPubKey": {"reqSigs": 1, "hex": "a914d09f838aac76eed82c0a5603ed5c56bf231c226b87", "addresses": ["3Li7ZfEZeAEZ3koVfuZJySftpkQAkSEfaY"], "asm": "OP_HASH160 d09f838aac76eed82c0a5603ed5c56bf231c226b OP_EQUAL", "type": "scripthash"}, "value": 0.01135368, "n": 1}], "hex": "01000000000101c3782600c917eafbcfd382aa0acf9a7b88b9389d91a4129f8aa9136f2fb59f1e0100000023220020b62c98bbc49977660109ca5811d9a706ca71fc13c46778d0a8cfd8ca23a961acffffffff0208690200000000001976a91479251f909e41ad7bcbc6b59ea73d3c10f14f1fcd88ac085311000000000017a914d09f838aac76eed82c0a5603ed5c56bf231c226b8704004730440220523150bbc598b14d7bd00c5be665f16bd3fb874061419eb49f4a6fc75e1940ca022070a5dfc08844c35ef028401db221b6ecbc7ae51999ce15cb36d7c9ae273d5afd01483045022100e21662e41bcb7bf91a06280979fcc1b34f6478e515079b3fe7b5d522f8b6c15f02207faa2727c521547bccd43fa39c6f0e9ac2a87b624ab63ef63d81607279f443b8014752210255990108210c55725aaae3dced19ab0692ece4c2101975ec559d55be0b837f4621035103ae7fde57e8b6bb3bb5f71f41a1a19d611723da7ff266c973839886408c4452ae00000000", "vin": [{"txinwitness": ["", "30440220523150bbc598b14d7bd00c5be665f16bd3fb874061419eb49f4a6fc75e1940ca022070a5dfc08844c35ef028401db221b6ecbc7ae51999ce15cb36d7c9ae273d5afd01", "3045022100e21662e41bcb7bf91a06280979fcc1b34f6478e515079b3fe7b5d522f8b6c15f02207faa2727c521547bccd43fa39c6f0e9ac2a87b624ab63ef63d81607279f443b801", "52210255990108210c55725aaae3dced19ab0692ece4c2101975ec559d55be0b837f4621035103ae7fde57e8b6bb3bb5f71f41a1a19d611723da7ff266c973839886408c4452ae"], "sequence": 4294967295, "scriptSig": {"hex": "220020b62c98bbc49977660109ca5811d9a706ca71fc13c46778d0a8cfd8ca23a961ac", "asm": "0020b62c98bbc49977660109ca5811d9a706ca71fc13c46778d0a8cfd8ca23a961ac"}, "vout": 1, "txid": "1e9fb52f6f13a98a9f12a4919d38b9887b9acf0aaa82d3cffbea17c9002678c3"}], "txid": "142de91636d94d6a869837c8d4102ebb7a958c72ccd1d8c47f93205939820c82", "blocktime": 1537871767, "version": 1, "confirmations": 11495, "time": 1537871767, "locktime": 0, "vsize": 208, "size": 373}