{"hash": "1433a9ae5ebeb945094e4844506f8bd75679c0073248202fe6c5c40919146db5", "blockhash": "0000000000000000001cda96e906b7601b7a6fb1a3b62bca570a9e5d8f4b3de1", "vout": [{"scriptPubKey": {"reqSigs": 1, "hex": "76a914e11ab5ceb4d1e8070aad7213fd420ee1fef10ba088ac", "addresses": ["1MXF323k9hoRucsTRdKES5GHgGZyCs95Df"], "asm": "OP_DUP OP_HASH160 e11ab5ceb4d1e8070aad7213fd420ee1fef10ba0 OP_EQUALVERIFY OP_CHECKSIG", "type": "pubkeyhash"}, "value": 0.00109293, "n": 0}, {"scriptPubKey": {"reqSigs": 1, "hex": "76a91412cc51ca1061fe395315974b7fcba897c31325a188ac", "addresses": ["12iPvpZLV6ujK2sLeZkH34q1CJVX8RPHRS"], "asm": "OP_DUP OP_HASH160 12cc51ca1061fe395315974b7fcba897c31325a1 OP_EQUALVERIFY OP_CHECKSIG", "type": "pubkeyhash"}, "value": 0.01344283, "n": 1}], "hex": "010000000143636df0f820b4092acbca555658b8bfc163d4d1e4f8cff3d9bfbf5f5e217331000000006b4830450221009d7eaf394bd79b949401f2b9d86c8da8c7d78e52c2986d762af8588b8c554a4302204a50e6b92b1db5c76dc82298898b1a5e83b1bb776726b755f545e356b9281d3801210223a59cf2038e63ccb3da3b408ce5f5e38c3fbf77943547d025b217315fb53c53ffffffff02edaa0100000000001976a914e11ab5ceb4d1e8070aad7213fd420ee1fef10ba088ac1b831400000000001976a91412cc51ca1061fe395315974b7fcba897c31325a188ac00000000", "vin": [{"sequence": 4294967295, "scriptSig": {"hex": "4830450221009d7eaf394bd79b949401f2b9d86c8da8c7d78e52c2986d762af8588b8c554a4302204a50e6b92b1db5c76dc82298898b1a5e83b1bb776726b755f545e356b9281d3801210223a59cf2038e63ccb3da3b408ce5f5e38c3fbf77943547d025b217315fb53c53", "asm": "30450221009d7eaf394bd79b949401f2b9d86c8da8c7d78e52c2986d762af8588b8c554a4302204a50e6b92b1db5c76dc82298898b1a5e83b1bb776726b755f545e356b9281d38[ALL] 0223a59cf2038e63ccb3da3b408ce5f5e38c3fbf77943547d025b217315fb53c53"}, "vout": 0, "txid": "3173215e5fbfbfd9f3cff8e4d1d463c1bfb8585655cacb2a09b420f8f06d6343"}], "txid": "1433a9ae5ebeb945094e4844506f8bd75679c0073248202fe6c5c40919146db5", "blocktime": 1537873282, "version": 1, "confirmations": 11485, "time": 1537873282, "locktime": 0, "vsize": 226, "size": 226}