{"hash": "f6ef27aecf93251cfac46010deae233d928f6392272024a8ecdb1d7106eb569f", "blockhash": "000000000000000000022b45ed06c6f4ccd3cf7fb5ba4856ebd2e58215665228", "vout": [{"scriptPubKey": {"reqSigs": 1, "hex": "76a914525133cc109ffaa05d8fca85f5dbc683428bc13e88ac", "addresses": ["18WFgmVReJxKgsiUrVpayKkXCXToWP6uLV"], "asm": "OP_DUP OP_HASH160 525133cc109ffaa05d8fca85f5dbc683428bc13e OP_EQUALVERIFY OP_CHECKSIG", "type": "pubkeyhash"}, "value": 0.33870689, "n": 0}, {"scriptPubKey": {"reqSigs": 1, "hex": "a9146f45adbdb9de56d442a67d75bd5a3b3dcc9c143587", "addresses": ["3BqNQCLNY1tGfsKZ7HuWuCQPFDxQNtSMkS"], "asm": "OP_HASH160 6f45adbdb9de56d442a67d75bd5a3b3dcc9c1435 OP_EQUAL", "type": "scripthash"}, "value": 0.49443481, "n": 1}], "hex": "01000000000101c7bb583631658570c3c93ba28d71195c97a06b7f655fb1b74440959dbb44fe46010000001716001497a2df485740b54f5820e4ea048806bb99c6a435fdffffff0261d30402000000001976a914525133cc109ffaa05d8fca85f5dbc683428bc13e88ac9972f2020000000017a9146f45adbdb9de56d442a67d75bd5a3b3dcc9c14358702473044022027e2e38506dc3b977cd37abab8c156771fcd1e3bdb312732683fbe2907ab0449022039c64ba59cbaa6b0d866c07baf4df46278bebfa012136df22d5e55eac35ffbcc012103e4a5a6bb4a3c5cfc8a7d417ca9a0f508559f8565c0a40403d3830d62998876ac0b490800", "vin": [{"txinwitness": ["3044022027e2e38506dc3b977cd37abab8c156771fcd1e3bdb312732683fbe2907ab0449022039c64ba59cbaa6b0d866c07baf4df46278bebfa012136df22d5e55eac35ffbcc01", "03e4a5a6bb4a3c5cfc8a7d417ca9a0f508559f8565c0a40403d3830d62998876ac"], "sequence": 4294967293, "scriptSig": {"hex": "16001497a2df485740b54f5820e4ea048806bb99c6a435", "asm": "001497a2df485740b54f5820e4ea048806bb99c6a435"}, "vout": 1, "txid": "46fe44bb9d954044b7b15f657f6ba0975c19718da23bc9c3708565313658bbc7"}], "txid": "14345e7c226f9454ae8e1f6772b0790e69e82c6af4c336c077b0306615794a57", "blocktime": 1537869901, "version": 1, "confirmations": 11522, "time": 1537869901, "locktime": 542987, "vsize": 168, "size": 249}