{"hash": "1438554372c7a48aafc1352a9f590452d513c52628558678f71a4b2776179c4a", "blockhash": "0000000000000000000e13cef7c366c0283d82e591d1acd082e914b08063cdf1", "vout": [{"scriptPubKey": {"reqSigs": 1, "hex": "76a914bff5d67b630bf97e182850750edfd18b2fca1ffa88ac", "addresses": ["1JVzZkYjSb194rsKLdveuUaqS7TUQU2oMu"], "asm": "OP_DUP OP_HASH160 bff5d67b630bf97e182850750edfd18b2fca1ffa OP_EQUALVERIFY OP_CHECKSIG", "type": "pubkeyhash"}, "value": 0.00013117, "n": 0}, {"scriptPubKey": {"reqSigs": 1, "hex": "a914e5fa7a78eadaa6a4f5f4be411d2e4dc731d5774887", "addresses": ["3Nf2j1z51T7ebedp1FyZS8JVCQUPHPENwS"], "asm": "OP_HASH160 e5fa7a78eadaa6a4f5f4be411d2e4dc731d57748 OP_EQUAL", "type": "scripthash"}, "value": 0.00015627, "n": 1}], "hex": "01000000028e620ad0aa28e6b5e0f6e3afce20e20b5cc7e9768a49874e9a8b85858f62df17000000006a47304402203100b5378201f9386a637d70b92787f8eebdcc8dbee61ec98d6b0095f2dc411b0220073edf765d62e0c75ea0a1320c4ce521ba1352e29fdf0a554164082d01d45aa1012103bdc08f409737bee4dc3f821deaa3ca9599bf7d89b09316d3bd250a41202184afffffffff9527ee865ce340e0b08787660cb51537ffb7086f8a2efb712b53f43d549a10a2000000006b48304502210099a4085c66e8eef3271bfe4074fb24083640563decfe128c85911fea46d9629a022037f9bfb181bf919cc541ef4203372409c1f717749189df23de64a11130b10376012103bdc08f409737bee4dc3f821deaa3ca9599bf7d89b09316d3bd250a41202184afffffffff023d330000000000001976a914bff5d67b630bf97e182850750edfd18b2fca1ffa88ac0b3d00000000000017a914e5fa7a78eadaa6a4f5f4be411d2e4dc731d577488700000000", "vin": [{"sequence": 4294967295, "scriptSig": {"hex": "47304402203100b5378201f9386a637d70b92787f8eebdcc8dbee61ec98d6b0095f2dc411b0220073edf765d62e0c75ea0a1320c4ce521ba1352e29fdf0a554164082d01d45aa1012103bdc08f409737bee4dc3f821deaa3ca9599bf7d89b09316d3bd250a41202184af", "asm": "304402203100b5378201f9386a637d70b92787f8eebdcc8dbee61ec98d6b0095f2dc411b0220073edf765d62e0c75ea0a1320c4ce521ba1352e29fdf0a554164082d01d45aa1[ALL] 03bdc08f409737bee4dc3f821deaa3ca9599bf7d89b09316d3bd250a41202184af"}, "vout": 0, "txid": "17df628f85858b9a4e87498a76e9c75c0be220ceafe3f6e0b5e628aad00a628e"}, {"sequence": 4294967295, "scriptSig": {"hex": "48304502210099a4085c66e8eef3271bfe4074fb24083640563decfe128c85911fea46d9629a022037f9bfb181bf919cc541ef4203372409c1f717749189df23de64a11130b10376012103bdc08f409737bee4dc3f821deaa3ca9599bf7d89b09316d3bd250a41202184af", "asm": "304502210099a4085c66e8eef3271bfe4074fb24083640563decfe128c85911fea46d9629a022037f9bfb181bf919cc541ef4203372409c1f717749189df23de64a11130b10376[ALL] 03bdc08f409737bee4dc3f821deaa3ca9599bf7d89b09316d3bd250a41202184af"}, "vout": 0, "txid": "a2109a543df4532b71fb2e8a6f08b7ff3715b50c668787b0e040e35c86ee2795"}], "txid": "1438554372c7a48aafc1352a9f590452d513c52628558678f71a4b2776179c4a", "blocktime": 1537871767, "version": 1, "confirmations": 11495, "time": 1537871767, "locktime": 0, "vsize": 371, "size": 371}