{"hash": "143b8d48ace1786889110c6f54fb56ae6669f5b6cefa041232d5be47a8c8916b", "blockhash": "0000000000000000001e0dab787dd257d1dbfcb92a98c2207d5e1078be1f4165", "vout": [{"scriptPubKey": {"reqSigs": 1, "hex": "76a914c49ea463884c6b8dc13c4ce2ea43724e50c4b80c88ac", "addresses": ["1JvdVFPmy8wr6imWmn9WFTxS9rFjFLTnx6"], "asm": "OP_DUP OP_HASH160 c49ea463884c6b8dc13c4ce2ea43724e50c4b80c OP_EQUALVERIFY OP_CHECKSIG", "type": "pubkeyhash"}, "value": 0.00038581, "n": 0}, {"scriptPubKey": {"reqSigs": 1, "hex": "76a9143971d18f07ae0426f6f2c62e8351fe291d8bb19788ac", "addresses": ["16EjsBwBHSm25GAK9ftb9MnX2EUpMHgrQv"], "asm": "OP_DUP OP_HASH160 3971d18f07ae0426f6f2c62e8351fe291d8bb197 OP_EQUALVERIFY OP_CHECKSIG", "type": "pubkeyhash"}, "value": 0.03905756, "n": 1}], "hex": "010000000339cacc92723424de19eb1f19b068dca992479f61b267b0b674fae4becf3dde33040000006b483045022100d14a54d12d794b215601baababa5a47b138432f6856f5884af4338726279f61c022031eb55956eede87d8185b05e51fafb56c3cfc56eae9f18642b507625d7453b69012103ad8b37f6a8440d01e69cc6180bcc0eb5b2ceca27715278715fb3ed86a1c068bfffffffff5ddf445637dc098f4cf727f96472c5cc33a0f36dae388d66867026163b7c108d010000006a473044022046f242898de33b8d94275cf67a40b436948208df765c78333d3d36d75d9a3834022058b01ff823dd177b027abb5ed68a09b978b9e4a15d641e3bb862691f3a963b21012102d9f43ffc9908d8848d1a1af936c4b1c8a3e5796d847432abfaa6e1a713ccbffbffffffff28a8ff4aa466de6c8b52488ce1df0bf4f54fc751f8efdb1f22e5f1fa12d66497000000006b4830450221009740113a2eb54f4bfa17867012e4311d746c8162505a54c66e5dba3e918730920220240406133e3ee15f89614f297626a65520172cb1941d94afa6c5e8c8126951e70121031d233a6d810289d59968036e2ae5fa4dcf5cf792d11eae6f45b8f150ce4bca60ffffffff02b5960000000000001976a914c49ea463884c6b8dc13c4ce2ea43724e50c4b80c88acdc983b00000000001976a9143971d18f07ae0426f6f2c62e8351fe291d8bb19788ac00000000", "vin": [{"sequence": 4294967295, "scriptSig": {"hex": "483045022100d14a54d12d794b215601baababa5a47b138432f6856f5884af4338726279f61c022031eb55956eede87d8185b05e51fafb56c3cfc56eae9f18642b507625d7453b69012103ad8b37f6a8440d01e69cc6180bcc0eb5b2ceca27715278715fb3ed86a1c068bf", "asm": "3045022100d14a54d12d794b215601baababa5a47b138432f6856f5884af4338726279f61c022031eb55956eede87d8185b05e51fafb56c3cfc56eae9f18642b507625d7453b69[ALL] 03ad8b37f6a8440d01e69cc6180bcc0eb5b2ceca27715278715fb3ed86a1c068bf"}, "vout": 4, "txid": "33de3dcfbee4fa74b6b067b2619f4792a9dc68b0191feb19de24347292ccca39"}, {"sequence": 4294967295, "scriptSig": {"hex": "473044022046f242898de33b8d94275cf67a40b436948208df765c78333d3d36d75d9a3834022058b01ff823dd177b027abb5ed68a09b978b9e4a15d641e3bb862691f3a963b21012102d9f43ffc9908d8848d1a1af936c4b1c8a3e5796d847432abfaa6e1a713ccbffb", "asm": "3044022046f242898de33b8d94275cf67a40b436948208df765c78333d3d36d75d9a3834022058b01ff823dd177b027abb5ed68a09b978b9e4a15d641e3bb862691f3a963b21[ALL] 02d9f43ffc9908d8848d1a1af936c4b1c8a3e5796d847432abfaa6e1a713ccbffb"}, "vout": 1, "txid": "8d107c3b16267086668d38ae6df3a033ccc57264f927f74c8f09dc375644df5d"}, {"sequence": 4294967295, "scriptSig": {"hex": "4830450221009740113a2eb54f4bfa17867012e4311d746c8162505a54c66e5dba3e918730920220240406133e3ee15f89614f297626a65520172cb1941d94afa6c5e8c8126951e70121031d233a6d810289d59968036e2ae5fa4dcf5cf792d11eae6f45b8f150ce4bca60", "asm": "30450221009740113a2eb54f4bfa17867012e4311d746c8162505a54c66e5dba3e918730920220240406133e3ee15f89614f297626a65520172cb1941d94afa6c5e8c8126951e7[ALL] 031d233a6d810289d59968036e2ae5fa4dcf5cf792d11eae6f45b8f150ce4bca60"}, "vout": 0, "txid": "9764d612faf1e5221fdbeff851c74ff5f40bdfe18c48528b6cde66a44affa828"}], "txid": "143b8d48ace1786889110c6f54fb56ae6669f5b6cefa041232d5be47a8c8916b", "blocktime": 1537872475, "version": 1, "confirmations": 11486, "time": 1537872475, "locktime": 0, "vsize": 521, "size": 521}