{"hash": "9bd5a7f973c9babccccfc5c331baef994090a1a690e53ef12d307033eea5653e", "blockhash": "0000000000000000000e13cef7c366c0283d82e591d1acd082e914b08063cdf1", "vout": [{"scriptPubKey": {"reqSigs": 1, "hex": "76a9149977010be7847e7515265c09a91d8fb53077634488ac", "addresses": ["1EzSwu9NE6i5wS7PkfuAvBSPgSFQPHHQXg"], "asm": "OP_DUP OP_HASH160 9977010be7847e7515265c09a91d8fb530776344 OP_EQUALVERIFY OP_CHECKSIG", "type": "pubkeyhash"}, "value": 0.02098672, "n": 0}, {"scriptPubKey": {"reqSigs": 1, "hex": "0014ea786509c6ca12efddbfa31d1ec04aa53814d194", "addresses": ["bc1qafux2zwxegfwlhdl5vw3asz255upf5v54ufuvr"], "asm": "0 ea786509c6ca12efddbfa31d1ec04aa53814d194", "type": "witness_v0_keyhash"}, "value": 2.22605363, "n": 1}], "hex": "020000000001018d5f450e33c49e000cf3e89cd01545f22187a7f7f1b706022c61690b4e4a6ee30000000000ffffffff02f0052000000000001976a9149977010be7847e7515265c09a91d8fb53077634488ac33b0440d00000000160014ea786509c6ca12efddbfa31d1ec04aa53814d19402473044022038790500e7eb181953482f3c84fa92be5664fbf3459a59f29eb514687644059c0220407152da06475049141ffabadc6ce7a905f84a574b6f3aa72a6e2c143cda289b0121038e1dfbfa0de76b13aafddc34d6ca1682c25856a45410b5d83ae9a6d7631c96fa00000000", "vin": [{"txinwitness": ["3044022038790500e7eb181953482f3c84fa92be5664fbf3459a59f29eb514687644059c0220407152da06475049141ffabadc6ce7a905f84a574b6f3aa72a6e2c143cda289b01", "038e1dfbfa0de76b13aafddc34d6ca1682c25856a45410b5d83ae9a6d7631c96fa"], "sequence": 4294967295, "scriptSig": {"hex": "", "asm": ""}, "vout": 0, "txid": "e36e4a4e0b69612c0206b7f1f7a78721f24515d09ce8f30c009ec4330e455f8d"}], "txid": "143e7eafc2011b8c1da983a384bcec3815216c91549a52a6af2fc7ceac1428ce", "blocktime": 1537871767, "version": 2, "confirmations": 11491, "time": 1537871767, "locktime": 0, "vsize": 144, "size": 225}