{"hash": "1441ef8cb38591fd4bafc2962efe0789e99bfb56f1b2120c65273036910ee07f", "blockhash": "0000000000000000001cda96e906b7601b7a6fb1a3b62bca570a9e5d8f4b3de1", "vout": [{"scriptPubKey": {"reqSigs": 1, "hex": "a914a9cb0c88d6d7fa3461293bb0108e100016c0cd2e87", "addresses": ["3HAoN3zSjjUmPTjXymopqNYVy2SfAYKSLn"], "asm": "OP_HASH160 a9cb0c88d6d7fa3461293bb0108e100016c0cd2e OP_EQUAL", "type": "scripthash"}, "value": 0.00218649, "n": 0}], "hex": "0100000001629c0c57580588e502fb75de65e3f9d7e64544bd8df51255c81425109e9f9574000000006b48304502210082a94534c541506e79a20701b61882013920e344e918aaaf6a5c8c0f38d6149d022020e549873d235da2c544e6b89a8275498bbed5b2163ae5fc28efc7a475156481012103d47594c88f88ebf9d9fecaff36b843341b65787018e7b01882aa14ba47ec2e91ffffffff01195603000000000017a914a9cb0c88d6d7fa3461293bb0108e100016c0cd2e8700000000", "vin": [{"sequence": 4294967295, "scriptSig": {"hex": "48304502210082a94534c541506e79a20701b61882013920e344e918aaaf6a5c8c0f38d6149d022020e549873d235da2c544e6b89a8275498bbed5b2163ae5fc28efc7a475156481012103d47594c88f88ebf9d9fecaff36b843341b65787018e7b01882aa14ba47ec2e91", "asm": "304502210082a94534c541506e79a20701b61882013920e344e918aaaf6a5c8c0f38d6149d022020e549873d235da2c544e6b89a8275498bbed5b2163ae5fc28efc7a475156481[ALL] 03d47594c88f88ebf9d9fecaff36b843341b65787018e7b01882aa14ba47ec2e91"}, "vout": 0, "txid": "74959f9e102514c85512f58dbd4445e6d7f9e365de75fb02e5880558570c9c62"}], "txid": "1441ef8cb38591fd4bafc2962efe0789e99bfb56f1b2120c65273036910ee07f", "blocktime": 1537873282, "version": 1, "confirmations": 11484, "time": 1537873282, "locktime": 0, "vsize": 190, "size": 190}