{"hash": "1446342be692be742174314aad25e4097e6b3abe1a779a431714535315115449", "blockhash": "0000000000000000000e13cef7c366c0283d82e591d1acd082e914b08063cdf1", "vout": [{"scriptPubKey": {"reqSigs": 1, "hex": "76a9146738f8fada21dcf521b8dce2de980448d021e08d88ac", "addresses": ["1AQnrHPmNkCGmFiJ2SDGPYhG69x3kYy2th"], "asm": "OP_DUP OP_HASH160 6738f8fada21dcf521b8dce2de980448d021e08d OP_EQUALVERIFY OP_CHECKSIG", "type": "pubkeyhash"}, "value": 0.0005277, "n": 0}, {"scriptPubKey": {"reqSigs": 1, "hex": "a914bbeea9decb7d957a240b89e07053f78b7d40778b87", "addresses": ["3JpiC3tX9aATRtAWPp5SNEJZcGHEHW2XzZ"], "asm": "OP_HASH160 bbeea9decb7d957a240b89e07053f78b7d40778b OP_EQUAL", "type": "scripthash"}, "value": 0.01718156, "n": 1}], "hex": "01000000013b4bbec63dc9dee846f7533e8c32941415877873f695bfaeeeefd6e2eb247e90010000006b483045022100f3167dd903d73b337f6dca5703eebae00374cff53ed68796c314c19678ca5d6002202d79d2e2e64055d4a2e6e0d7ed4a49b0937ac372e29b596460ba2742f72b704201210288f766d8a2d6f1bea572f2e5afee87c5ca09e209622638162d8816bcd4484843ffffffff0222ce0000000000001976a9146738f8fada21dcf521b8dce2de980448d021e08d88ac8c371a000000000017a914bbeea9decb7d957a240b89e07053f78b7d40778b8700000000", "vin": [{"sequence": 4294967295, "scriptSig": {"hex": "483045022100f3167dd903d73b337f6dca5703eebae00374cff53ed68796c314c19678ca5d6002202d79d2e2e64055d4a2e6e0d7ed4a49b0937ac372e29b596460ba2742f72b704201210288f766d8a2d6f1bea572f2e5afee87c5ca09e209622638162d8816bcd4484843", "asm": "3045022100f3167dd903d73b337f6dca5703eebae00374cff53ed68796c314c19678ca5d6002202d79d2e2e64055d4a2e6e0d7ed4a49b0937ac372e29b596460ba2742f72b7042[ALL] 0288f766d8a2d6f1bea572f2e5afee87c5ca09e209622638162d8816bcd4484843"}, "vout": 1, "txid": "907e24ebe2d6efeeaebf95f6737887151494328c3e53f746e8dec93dc6be4b3b"}], "txid": "1446342be692be742174314aad25e4097e6b3abe1a779a431714535315115449", "blocktime": 1537871767, "version": 1, "confirmations": 11495, "time": 1537871767, "locktime": 0, "vsize": 224, "size": 224}