{"hash": "5604fd7ba9cf4ff6174df2a0498f6033a71e752888579da0f51a2862776f1575", "blockhash": "0000000000000000001cda96e906b7601b7a6fb1a3b62bca570a9e5d8f4b3de1", "vout": [{"scriptPubKey": {"reqSigs": 1, "hex": "76a914c06f82903a6dae5e249cc98cf69756eef443f2b588ac", "addresses": ["1JYWKgcaYpSwGfvaBkeKWJCKrAsTaSLm2f"], "asm": "OP_DUP OP_HASH160 c06f82903a6dae5e249cc98cf69756eef443f2b5 OP_EQUALVERIFY OP_CHECKSIG", "type": "pubkeyhash"}, "value": 0.00459334, "n": 0}, {"scriptPubKey": {"reqSigs": 1, "hex": "76a9140a0efb6f9fd08cdaa6dcdc4ec84d6ee3a58cd44c88ac", "addresses": ["1vBhu5R8NtfRSQSY9TWBVVW9QLZ4a15B7"], "asm": "OP_DUP OP_HASH160 0a0efb6f9fd08cdaa6dcdc4ec84d6ee3a58cd44c OP_EQUALVERIFY OP_CHECKSIG", "type": "pubkeyhash"}, "value": 0.0003, "n": 1}, {"scriptPubKey": {"reqSigs": 1, "hex": "76a914b27d6e6a6080c9ca1063977cf6fc728a1ba3eb8b88ac", "addresses": ["1HGmYGS3vjuVDCf1U6Li8z7WvgJPBXTv1R"], "asm": "OP_DUP OP_HASH160 b27d6e6a6080c9ca1063977cf6fc728a1ba3eb8b OP_EQUALVERIFY OP_CHECKSIG", "type": "pubkeyhash"}, "value": 0.000782, "n": 2}, {"scriptPubKey": {"reqSigs": 1, "hex": "76a9141e75d089aa609aee78f615e51365f8bfcc7e6c7e88ac", "addresses": ["13n4Qf6iVv4TDk9zRieXn4CjL3cJzBuqEd"], "asm": "OP_DUP OP_HASH160 1e75d089aa609aee78f615e51365f8bfcc7e6c7e OP_EQUALVERIFY OP_CHECKSIG", "type": "pubkeyhash"}, "value": 0.00030381, "n": 3}, {"scriptPubKey": {"reqSigs": 1, "hex": "76a9145f436442eb68e2bf383dbd1e667bc0383643a6c988ac", "addresses": ["19ghvgJHFwmTKVZWtVbJ3k87kfbJZscsd2"], "asm": "OP_DUP OP_HASH160 5f436442eb68e2bf383dbd1e667bc0383643a6c9 OP_EQUALVERIFY OP_CHECKSIG", "type": "pubkeyhash"}, "value": 0.001, "n": 4}, {"scriptPubKey": {"reqSigs": 1, "hex": "76a91410ba0192ebb251fceabac544652b29d6306a2ee488ac", "addresses": ["12XSe1BBeVBHNsZyGJPJcGMeux7obwHQMM"], "asm": "OP_DUP OP_HASH160 10ba0192ebb251fceabac544652b29d6306a2ee4 OP_EQUALVERIFY OP_CHECKSIG", "type": "pubkeyhash"}, "value": 0.0003, "n": 5}, {"scriptPubKey": {"reqSigs": 1, "hex": "76a9144708c8e3bd9a6e8c9ddd248ab11da0800a3796a188ac", "addresses": ["17UbVzcenkifq4xoPrQ3SVYaCrnGSjdDND"], "asm": "OP_DUP OP_HASH160 4708c8e3bd9a6e8c9ddd248ab11da0800a3796a1 OP_EQUALVERIFY OP_CHECKSIG", "type": "pubkeyhash"}, "value": 0.00067453, "n": 6}, {"scriptPubKey": {"reqSigs": 1, "hex": "a914ee97b0f03497fcf7c7f923e4da63ee785a671bfb87", "addresses": ["3PSaTtMrt4iN5yojdptBWWTMUrNPtZz6Mn"], "asm": "OP_HASH160 ee97b0f03497fcf7c7f923e4da63ee785a671bfb OP_EQUAL", "type": "scripthash"}, "value": 0.0003, "n": 7}, {"scriptPubKey": {"reqSigs": 1, "hex": "76a914c172601492c0b4cb8fb57c23e55f67fba9542a3888ac", "addresses": ["1JdrRxeRkH9rUbxe9u4eJjfvkDeVeHBeg8"], "asm": "OP_DUP OP_HASH160 c172601492c0b4cb8fb57c23e55f67fba9542a38 OP_EQUALVERIFY OP_CHECKSIG", "type": "pubkeyhash"}, "value": 0.00035, "n": 8}, {"scriptPubKey": {"reqSigs": 1, "hex": "a914b883f1d9193cf952bec02fc7e0ba2a72f7a5857587", "addresses": ["3JWeKX8gURBH48krmEWPXNQXjKzhw5ZVR6"], "asm": "OP_HASH160 b883f1d9193cf952bec02fc7e0ba2a72f7a58575 OP_EQUAL", "type": "scripthash"}, "value": 0.0007, "n": 9}, {"scriptPubKey": {"reqSigs": 1, "hex": "a914fc2dbe181a6f57f7c5d2a9849371fe9f43b1529687", "addresses": ["3QgR18hH59NVFJsyAjAdLiJkKmcGWt7dnC"], "asm": "OP_HASH160 fc2dbe181a6f57f7c5d2a9849371fe9f43b15296 OP_EQUAL", "type": "scripthash"}, "value": 0.003, "n": 10}, {"scriptPubKey": {"reqSigs": 1, "hex": "76a91496a7b59e53b594ba4e1bfd22fb83cfce77cedc2b88ac", "addresses": ["1EjbGS1fy8DnrLqPebqNrrtSYvdNV8izhh"], "asm": "OP_DUP OP_HASH160 96a7b59e53b594ba4e1bfd22fb83cfce77cedc2b OP_EQUALVERIFY OP_CHECKSIG", "type": "pubkeyhash"}, "value": 0.001, "n": 11}, {"scriptPubKey": {"reqSigs": 1, "hex": "a914050e9b73041b548fc5c0102c08177fb3285ad59b87", "addresses": ["329koRvovTyNnd4ADrpR2uJHzXxfvKxta5"], "asm": "OP_HASH160 050e9b73041b548fc5c0102c08177fb3285ad59b OP_EQUAL", "type": "scripthash"}, "value": 48.21190712, "n": 12}], "hex": "02000000000101a6b0f66cb14fff5c8765f6885a0f7c794ae115d6cbb4dfd94d5afa8ad6268766040000001716001437de5da24ea7c8a3122ff93038f95492bd3834e5feffffff0d46020700000000001976a914c06f82903a6dae5e249cc98cf69756eef443f2b588ac30750000000000001976a9140a0efb6f9fd08cdaa6dcdc4ec84d6ee3a58cd44c88ac78310100000000001976a914b27d6e6a6080c9ca1063977cf6fc728a1ba3eb8b88acad760000000000001976a9141e75d089aa609aee78f615e51365f8bfcc7e6c7e88aca0860100000000001976a9145f436442eb68e2bf383dbd1e667bc0383643a6c988ac30750000000000001976a91410ba0192ebb251fceabac544652b29d6306a2ee488ac7d070100000000001976a9144708c8e3bd9a6e8c9ddd248ab11da0800a3796a188ac307500000000000017a914ee97b0f03497fcf7c7f923e4da63ee785a671bfb87b8880000000000001976a914c172601492c0b4cb8fb57c23e55f67fba9542a3888ac701101000000000017a914b883f1d9193cf952bec02fc7e0ba2a72f7a5857587e09304000000000017a914fc2dbe181a6f57f7c5d2a9849371fe9f43b1529687a0860100000000001976a91496a7b59e53b594ba4e1bfd22fb83cfce77cedc2b88ac38885d1f0100000017a914050e9b73041b548fc5c0102c08177fb3285ad59b87024730440220213260ebf05683782b39b36057c27a322064d0d8c97d2d3649a58610979e3e5702202b7b4368fe1a4c0717beac13ac2f2f10d98c6137a193b28ba4608dce781f879d0121036f4dd476664e417eab722cf99a991c471d38a6a7562275be1bc2dc9a606b468d13490800", "vin": [{"txinwitness": ["30440220213260ebf05683782b39b36057c27a322064d0d8c97d2d3649a58610979e3e5702202b7b4368fe1a4c0717beac13ac2f2f10d98c6137a193b28ba4608dce781f879d01", "036f4dd476664e417eab722cf99a991c471d38a6a7562275be1bc2dc9a606b468d"], "sequence": 4294967294, "scriptSig": {"hex": "16001437de5da24ea7c8a3122ff93038f95492bd3834e5", "asm": "001437de5da24ea7c8a3122ff93038f95492bd3834e5"}, "vout": 4, "txid": "668726d68afa5a4dd9dfb4cbd615e14a797c0f5a88f665875cff4fb16cf6b0a6"}], "txid": "14471153d3e1cf06f50f70864e631e4757b018cbe4de92c06a8c513ad80500f4", "blocktime": 1537873282, "version": 2, "confirmations": 11481, "time": 1537873282, "locktime": 542995, "vsize": 536, "size": 617}