{"hash": "a8491a5f6d0399f44cd2c07d71821e6af22f27071bcc31b38dd83f5e8f7c98a6", "blockhash": "0000000000000000000dcc0f55137456b1a82d3642486a52398922ac4d620174", "vout": [{"scriptPubKey": {"reqSigs": 1, "hex": "a9147141f4d56cee5fa82164011833123489249e23cd87", "addresses": ["3C1sHx59ktTMDf8Z2HRmT6BfTN9QmHqgTn"], "asm": "OP_HASH160 7141f4d56cee5fa82164011833123489249e23cd OP_EQUAL", "type": "scripthash"}, "value": 0.20533954, "n": 0}, {"scriptPubKey": {"reqSigs": 1, "hex": "a9146f7f25ada2209fb7a927b00d1c9c554dbcc4fa9f87", "addresses": ["3BrZFBGn8C5CWD3zX4z8y6rRGovqExJPkC"], "asm": "OP_HASH160 6f7f25ada2209fb7a927b00d1c9c554dbcc4fa9f OP_EQUAL", "type": "scripthash"}, "value": 0.03911906, "n": 1}], "hex": "01000000000101e9f09bff04126c35e7577e21e4420e9347a6d001d680d9bdeabf4a2aa56132170000000017160014178eedcd8935e016ae867860fe1373fb80575dc1ffffffff02c25239010000000017a9147141f4d56cee5fa82164011833123489249e23cd87e2b03b000000000017a9146f7f25ada2209fb7a927b00d1c9c554dbcc4fa9f87024830450221008dc3a6796f4f06f1383011877d9d64c0125cea3eb3bf8df7c9297798c612f9c902203b872f50f5e069c33f1f02a81a555ddb23dd73e2b7880eeb105625ad6a2b0dbb012102adad049bb33895393f4c3ca0990265709181bd807a585fc8defdb67c3e82532d00000000", "vin": [{"txinwitness": ["30450221008dc3a6796f4f06f1383011877d9d64c0125cea3eb3bf8df7c9297798c612f9c902203b872f50f5e069c33f1f02a81a555ddb23dd73e2b7880eeb105625ad6a2b0dbb01", "02adad049bb33895393f4c3ca0990265709181bd807a585fc8defdb67c3e82532d"], "sequence": 4294967295, "scriptSig": {"hex": "160014178eedcd8935e016ae867860fe1373fb80575dc1", "asm": "0014178eedcd8935e016ae867860fe1373fb80575dc1"}, "vout": 0, "txid": "173261a52a4abfeabdd980d601d0a647930e42e4217e57e7356c1204ff9bf0e9"}], "txid": "1447e5e52b89d1c8b593af93191a42d3064fb03aee9932eabe4efab61f80a5e6", "blocktime": 1537870268, "version": 1, "confirmations": 11516, "time": 1537870268, "locktime": 0, "vsize": 166, "size": 248}