{"hash": "d2f57b508cc2c2de9690c6e2741d15ffbbc8318d1b1ef4bd78fd3a1e8e7c40b3", "blockhash": "0000000000000000001e0dab787dd257d1dbfcb92a98c2207d5e1078be1f4165", "vout": [{"scriptPubKey": {"reqSigs": 1, "hex": "00145ddc453c6123e128226478b7089c126877de8d39", "addresses": ["bc1qthwy20rpy0sjsgny0zms38qjdpmaarfe4360zy"], "asm": "0 5ddc453c6123e128226478b7089c126877de8d39", "type": "witness_v0_keyhash"}, "value": 0.00041027, "n": 0}, {"scriptPubKey": {"reqSigs": 1, "hex": "a914ab148040255144c6136f803cca4a8e53efca81ae87", "addresses": ["3HHc2nBH3x6UtS7Wpd2xiSDAnyNEnskytT"], "asm": "OP_HASH160 ab148040255144c6136f803cca4a8e53efca81ae OP_EQUAL", "type": "scripthash"}, "value": 0.08195, "n": 1}], "hex": "0100000000010192fd2f7476f559a921b1c17c5409a779ca51d4340c7c98038384748bd9f7b52b0100000000ffffffff0243a00000000000001600145ddc453c6123e128226478b7089c126877de8d39b80b7d000000000017a914ab148040255144c6136f803cca4a8e53efca81ae870247304402201861a93e54c6f02894a1c09dd2e13839f894fb9410b84523a9fe50933064dbe4022051c439d2759df99b78df48d2bfd490312e4f136f3aa8cb74d741d48bb7a969a4012103d1d0285bc4b2ea7c750d56e56fa506ccb47b86f9a6dcd21b866834515edc93be00000000", "vin": [{"txinwitness": ["304402201861a93e54c6f02894a1c09dd2e13839f894fb9410b84523a9fe50933064dbe4022051c439d2759df99b78df48d2bfd490312e4f136f3aa8cb74d741d48bb7a969a401", "03d1d0285bc4b2ea7c750d56e56fa506ccb47b86f9a6dcd21b866834515edc93be"], "sequence": 4294967295, "scriptSig": {"hex": "", "asm": ""}, "vout": 1, "txid": "2bb5f7d98b74848303987c0c34d451ca79a709547cc1b121a959f576742ffd92"}], "txid": "144a038ff822f662350d3ccfb7bf2535243d4bbc97451e992262aa79515ffc14", "blocktime": 1537872475, "version": 1, "confirmations": 11486, "time": 1537872475, "locktime": 0, "vsize": 142, "size": 223}