{"hash": "144cd52cc880f723e478ae161dc4a2635a6f34f4072ab45fb907b2703631eedc", "blockhash": "0000000000000000001f76057863aec43deb6fa401d9628bb513d65a8098bfab", "vout": [{"scriptPubKey": {"reqSigs": 1, "hex": "a91464ed0c848daa8abe47026a462fb42d4712c6e67287", "addresses": ["3AtfUAz3pCA8u6DvS9nK7qcBJqpzj5BVW7"], "asm": "OP_HASH160 64ed0c848daa8abe47026a462fb42d4712c6e672 OP_EQUAL", "type": "scripthash"}, "value": 0.15183748, "n": 0}], "hex": "01000000018b775aa0b5e83773f6dd7c1e0aa705402519708fedec695c630097aaab1cd6b53a000000fdfe0000483045022100b0e10919c4986cec01f4f0c433c59a1f3eaacb236bd0ac0925043f4c04c2c10b02206c7ab76824146d4e01443dfc3f40414c6b3a679bad6a4a496053e418d2d4dfbe01483045022100c18cca625d45fa8bac9e62ca449196c3b18bb8e1f86536b5e41cba490007eb8a02204c47101f5bc891fd9ef344edfe5c54507c95382cd02e4a562864a38c01297266014c69522103cae7bc53e9f698100d92ec3b21f4b3cc4c8e9c1a60d6e3fb2046e904a41dc01421025394ca590fcfb386aaab8f38ccba9f81552ff2eb34878c9d9da6ce370119bb2f2103605472eab1fc977320a01f55efeda16cea1996338474a066e0031f1e6508fa9553aeffffffff0184afe7000000000017a91464ed0c848daa8abe47026a462fb42d4712c6e6728700000000", "vin": [{"sequence": 4294967295, "scriptSig": {"hex": "00483045022100b0e10919c4986cec01f4f0c433c59a1f3eaacb236bd0ac0925043f4c04c2c10b02206c7ab76824146d4e01443dfc3f40414c6b3a679bad6a4a496053e418d2d4dfbe01483045022100c18cca625d45fa8bac9e62ca449196c3b18bb8e1f86536b5e41cba490007eb8a02204c47101f5bc891fd9ef344edfe5c54507c95382cd02e4a562864a38c01297266014c69522103cae7bc53e9f698100d92ec3b21f4b3cc4c8e9c1a60d6e3fb2046e904a41dc01421025394ca590fcfb386aaab8f38ccba9f81552ff2eb34878c9d9da6ce370119bb2f2103605472eab1fc977320a01f55efeda16cea1996338474a066e0031f1e6508fa9553ae", "asm": "0 3045022100b0e10919c4986cec01f4f0c433c59a1f3eaacb236bd0ac0925043f4c04c2c10b02206c7ab76824146d4e01443dfc3f40414c6b3a679bad6a4a496053e418d2d4dfbe[ALL] 3045022100c18cca625d45fa8bac9e62ca449196c3b18bb8e1f86536b5e41cba490007eb8a02204c47101f5bc891fd9ef344edfe5c54507c95382cd02e4a562864a38c01297266[ALL] 522103cae7bc53e9f698100d92ec3b21f4b3cc4c8e9c1a60d6e3fb2046e904a41dc01421025394ca590fcfb386aaab8f38ccba9f81552ff2eb34878c9d9da6ce370119bb2f2103605472eab1fc977320a01f55efeda16cea1996338474a066e0031f1e6508fa9553ae"}, "vout": 58, "txid": "b5d61cabaa9700635c69eced8f7019254005a70a1e7cddf67337e8b5a05a778b"}], "txid": "144cd52cc880f723e478ae161dc4a2635a6f34f4072ab45fb907b2703631eedc", "blocktime": 1537873891, "version": 1, "confirmations": 11474, "time": 1537873891, "locktime": 0, "vsize": 339, "size": 339}