{"hash": "44f975bda541e05ba78a8adc4e5a63e3e3fe2560ef02cce2d50167cadab75332", "blockhash": "000000000000000000022b45ed06c6f4ccd3cf7fb5ba4856ebd2e58215665228", "vout": [{"scriptPubKey": {"reqSigs": 1, "hex": "a914c80a3d93a68844bd76d35e152a8140f5b38bbdb687", "addresses": ["3KvjLSAM1JeZ8B7QkdWNAtnxRYiReaYznb"], "asm": "OP_HASH160 c80a3d93a68844bd76d35e152a8140f5b38bbdb6 OP_EQUAL", "type": "scripthash"}, "value": 0.023135, "n": 0}, {"scriptPubKey": {"reqSigs": 1, "hex": "a9149fedd0435a5346d19e10dbf067501f04f6a02d3687", "addresses": ["3GGeFcpTvbKcU9so2Fz4C8o4V2C9Du9Ngp"], "asm": "OP_HASH160 9fedd0435a5346d19e10dbf067501f04f6a02d36 OP_EQUAL", "type": "scripthash"}, "value": 7.50500036, "n": 1}], "hex": "010000000001017890aed180b3ac49f747a1bff387edf918787e9c47f29b395ef190f06ba7a4f50100000023220020bdce0b87be1099509aee666bf280d91936d77265b9626a3811efa68c794ec6d9ffffffff021c4d23000000000017a914c80a3d93a68844bd76d35e152a8140f5b38bbdb687c4b8bb2c0000000017a9149fedd0435a5346d19e10dbf067501f04f6a02d3687040047304402201d2c27945cc77c19920bbe21a3de334b1ff84dbbfe8e09db31109082ccc5b7f80220282451007f1e218a46d62ed04d2e1375a83e47196b71a5eaf60a103187a9e2220147304402202789bdb94ddea667edead6c3b9bfcd8654c9c39692870c2dee4061495cefa59e02202da251a585602dd10b709cc00fcb82baa4ba6823ae4af654cbe39e7a771640430147522103eb143395e1f431f678a743f1647f1b19b73b3255e6eb16378dc614c75af6729821022a8a912ad76544ca20f666a2071879d22db3f19b68028bfb6e15e148dbbe91a252ae00000000", "vin": [{"txinwitness": ["", "304402201d2c27945cc77c19920bbe21a3de334b1ff84dbbfe8e09db31109082ccc5b7f80220282451007f1e218a46d62ed04d2e1375a83e47196b71a5eaf60a103187a9e22201", "304402202789bdb94ddea667edead6c3b9bfcd8654c9c39692870c2dee4061495cefa59e02202da251a585602dd10b709cc00fcb82baa4ba6823ae4af654cbe39e7a7716404301", "522103eb143395e1f431f678a743f1647f1b19b73b3255e6eb16378dc614c75af6729821022a8a912ad76544ca20f666a2071879d22db3f19b68028bfb6e15e148dbbe91a252ae"], "sequence": 4294967295, "scriptSig": {"hex": "220020bdce0b87be1099509aee666bf280d91936d77265b9626a3811efa68c794ec6d9", "asm": "0020bdce0b87be1099509aee666bf280d91936d77265b9626a3811efa68c794ec6d9"}, "vout": 1, "txid": "f5a4a76bf090f15e399bf2479c7e7818f9ed87f3bfa147f749acb380d1ae9078"}], "txid": "1451443264b16c3d1065b1677b0e35dda58f728570c96a13fdccf93e44742502", "blocktime": 1537869901, "version": 1, "confirmations": 11523, "time": 1537869901, "locktime": 0, "vsize": 205, "size": 370}