{"hash": "1451d958809772cdef24469b1496fc0929d499c63b1fce82fad2c9ea872d5fb4", "blockhash": "0000000000000000000baef3f32e3676a92c3b2e5da21b426e4f302fc371ce76", "vout": [{"scriptPubKey": {"reqSigs": 1, "hex": "76a914a520c86a08366941cd90d22e11ac1c7eefa2db3788ac", "addresses": ["1G47mSr3oANXMafVrR8UC4pzV7FEAzo3r9"], "asm": "OP_DUP OP_HASH160 a520c86a08366941cd90d22e11ac1c7eefa2db37 OP_EQUALVERIFY OP_CHECKSIG", "type": "pubkeyhash"}, "value": 0.40618714, "n": 0}, {"scriptPubKey": {"reqSigs": 1, "hex": "76a914a944de1322581bb75bdcbe886fe8f55f3eacf31488ac", "addresses": ["1GS1hR7RCLkTJTxEkkte8uYZeNAw2UFvNN"], "asm": "OP_DUP OP_HASH160 a944de1322581bb75bdcbe886fe8f55f3eacf314 OP_EQUALVERIFY OP_CHECKSIG", "type": "pubkeyhash"}, "value": 5.46e-06, "n": 1}, {"scriptPubKey": {"type": "nulldata", "hex": "6a146f6d6e69000000000000001f0000001323807600", "asm": "OP_RETURN 6f6d6e69000000000000001f0000001323807600"}, "value": 0.0, "n": 2}], "hex": "01000000018c4e30f4d90d75dd6f2a13c6db26c6d47736a5c5f3e1b385502ff7aaf3144c62020000006a4730440220336cacd71ab6e4e1b32c32e928d28165dc349fc992e816d22676c73ba77fd0d302204a4146f93e7012966bf4eb19c9679ceb0aaa89d143460d25f269ff4670451e79012103f3f44c9e80e2cedc1a2909631a3adea8866ee32187f74d0912387359b0ff36a2ffffffff03daca6b02000000001976a914a520c86a08366941cd90d22e11ac1c7eefa2db3788ac22020000000000001976a914a944de1322581bb75bdcbe886fe8f55f3eacf31488ac0000000000000000166a146f6d6e69000000000000001f000000132380760000000000", "vin": [{"sequence": 4294967295, "scriptSig": {"hex": "4730440220336cacd71ab6e4e1b32c32e928d28165dc349fc992e816d22676c73ba77fd0d302204a4146f93e7012966bf4eb19c9679ceb0aaa89d143460d25f269ff4670451e79012103f3f44c9e80e2cedc1a2909631a3adea8866ee32187f74d0912387359b0ff36a2", "asm": "30440220336cacd71ab6e4e1b32c32e928d28165dc349fc992e816d22676c73ba77fd0d302204a4146f93e7012966bf4eb19c9679ceb0aaa89d143460d25f269ff4670451e79[ALL] 03f3f44c9e80e2cedc1a2909631a3adea8866ee32187f74d0912387359b0ff36a2"}, "vout": 2, "txid": "624c14f3aaf72f5085b3e1f3c5a53677d4c626dbc6132a6fdd750dd9f4304e8c"}], "txid": "1451d958809772cdef24469b1496fc0929d499c63b1fce82fad2c9ea872d5fb4", "blocktime": 1537876114, "version": 1, "confirmations": 11460, "time": 1537876114, "locktime": 0, "vsize": 256, "size": 256}