{"hash": "aeef3ab75c246ebd8c8c272b7a738413edf32c776cc0402a393518fd26442da6", "blockhash": "0000000000000000001cda96e906b7601b7a6fb1a3b62bca570a9e5d8f4b3de1", "vout": [{"scriptPubKey": {"reqSigs": 1, "hex": "a914869841cd917b35aa27271966c9fdfe58ef0eb5ca87", "addresses": ["3DxgsFgAYMagdvgR7HYQsc73DnLfpu3PFn"], "asm": "OP_HASH160 869841cd917b35aa27271966c9fdfe58ef0eb5ca OP_EQUAL", "type": "scripthash"}, "value": 0.0030888, "n": 0}, {"scriptPubKey": {"reqSigs": 1, "hex": "0014b5392848e1cc9731ac75466677342d31fdb38c0f", "addresses": ["bc1qk5ujsj8pejtnrtr4gen8wdpdx87m8rq0snc9a9"], "asm": "0 b5392848e1cc9731ac75466677342d31fdb38c0f", "type": "witness_v0_keyhash"}, "value": 1.463e-05, "n": 1}], "hex": "010000000001014f783e77eb57e4044d0cc779f2adc23be36714ab33675e519176c336fdd1454e4b00000017160014888814e3e2155255a5d1c522ba54e5dbaa91b774ffffffff0290b604000000000017a914869841cd917b35aa27271966c9fdfe58ef0eb5ca87b705000000000000160014b5392848e1cc9731ac75466677342d31fdb38c0f0247304402202ddd139b3b5fae51e8fe21c4e8e9fdefa38a9e78fc7a87cb2c8d14abe72e05b702202643b16443990b2f6e101e1b6fbd24a393aa18b2b9e656bc4c6cf9440d8afb68012102dbe1850fc37babf9658f267574ae4618f632232e59b61b9a5231b4dd2956f23500000000", "vin": [{"txinwitness": ["304402202ddd139b3b5fae51e8fe21c4e8e9fdefa38a9e78fc7a87cb2c8d14abe72e05b702202643b16443990b2f6e101e1b6fbd24a393aa18b2b9e656bc4c6cf9440d8afb6801", "02dbe1850fc37babf9658f267574ae4618f632232e59b61b9a5231b4dd2956f235"], "sequence": 4294967295, "scriptSig": {"hex": "160014888814e3e2155255a5d1c522ba54e5dbaa91b774", "asm": "0014888814e3e2155255a5d1c522ba54e5dbaa91b774"}, "vout": 75, "txid": "4e45d1fd36c37691515e6733ab1467e33bc2adf279c70c4d04e457eb773e784f"}], "txid": "145961a0b63eb3028bfef04d8c47113494d3c33c1615f2510ebc3235d95802b0", "blocktime": 1537873282, "version": 1, "confirmations": 11484, "time": 1537873282, "locktime": 0, "vsize": 165, "size": 246}