{"hash": "667fe2fbf6c784d1fb9a531cd32952cbe4518db6b439395f9579fb9e45284ac6", "blockhash": "00000000000000000004ffacab907a6b429b9a5745fa0b75af4234bf69dd7176", "vout": [{"scriptPubKey": {"reqSigs": 1, "hex": "a914c20d4657dac70c9a487c7ca9b7b615a6cbb6972687", "addresses": ["3KP4v78sSL1nVBeHGXX16i57Vik54AwNhd"], "asm": "OP_HASH160 c20d4657dac70c9a487c7ca9b7b615a6cbb69726 OP_EQUAL", "type": "scripthash"}, "value": 0.55, "n": 0}, {"scriptPubKey": {"reqSigs": 1, "hex": "a9146bde66bbf983b8b96db42083b39d6888ab9a8e6587", "addresses": ["3BXNenP4i5sk2qzy1MDVrNAsizX33o8C7r"], "asm": "OP_HASH160 6bde66bbf983b8b96db42083b39d6888ab9a8e65 OP_EQUAL", "type": "scripthash"}, "value": 0.01001331, "n": 1}], "hex": "02000000000105433d52562cde4a7c27541db6591dc3c01d18ea7a4806de6458acf2ce31b67eee3900000017160014c535987be540a005ae1b6821103e6371fe51a003feffffff6f225e90002c734a8a4a843076435f83237697d73b72f918f8ebb6e38b68eb3d000000001716001431c51563b20976d342bbf4cc22af1a18d906c445feffffff7f803f7e022f5381cb54a48f56fb174bb943e9639b68b1fe02838007b741ee9ee80100006a473044022031a17f166aca6a17814c3b9547bfe53f2444bf621c6805531f131563f102b4f7022019479732406e7d27316202e673920c63a868d8447d3ea23a7f1320823259c873012102b69b964486a27c36157f88192d8b8a2fbdc50b156ae11a623c5e6a6ad59b4168feffffff94d7ff673777f042345617cfc7c3b505de1f6501f8a91b12f92406976a8f9742000000001716001432d4281a46a56f9f16299b8b6a44e0adb0fc359afefffffff3f92a9d0caa6e2443ed5cf5326798ac14255bf8c25e7ebb9e6c60222634f69900000000171600142268cce3d250f7ac5d51d11322c8171ae60511a6feffffff02c03b47030000000017a914c20d4657dac70c9a487c7ca9b7b615a6cbb697268773470f000000000017a9146bde66bbf983b8b96db42083b39d6888ab9a8e65870247304402207d26429c16ee71d7048260eebcee27f2dbc62350173a4cb933a960f2ed6c86c1022037024290b1007753a5f4289de743d0b947ef4c49bd650d1500f8c7a05621a60301210267423919fb852f3b206fbda9148eba264527695b27b79d122ad97e1a51226aa40248304502210094b4296d20affbe7542b215ef557009cd9281e70e18a3e97a76ad88867663764022042d3d3270e5ec40da8a4458ee322eb99282e7a8566756a2ce210056f0b9fa8270121028a44e79903fe75d052d0f11b29d646db71d07acdc2394408fbc5cc53e0aca9c1000247304402200276a1c9dc11a5b1c983d9e8e997b3a2b5a76fb1e0c9a8fd20fab45e8937a8e9022069c92510bba12fa4e964313523ed65a7ec597769ecc4e8ff8f957c3cba4bf5f5012103492176f9814d44adad5831c93c71a53e4093943002771ff7d27aa2fb76321e2e0247304402204ba31c82bb68a395759e5dda041398f92cbe6464f38065d3c92a02b1e3ba81c202206d3091c83a0a2295ca960a97392a7a7c13b85f9651007af26c0c1500cff3a1ca0121036ec12e2081446712c1bad1aea420fbc5597dc7560c3f997a47cc8bf86953df2e16490800", "vin": [{"txinwitness": ["304402207d26429c16ee71d7048260eebcee27f2dbc62350173a4cb933a960f2ed6c86c1022037024290b1007753a5f4289de743d0b947ef4c49bd650d1500f8c7a05621a60301", "0267423919fb852f3b206fbda9148eba264527695b27b79d122ad97e1a51226aa4"], "sequence": 4294967294, "scriptSig": {"hex": "160014c535987be540a005ae1b6821103e6371fe51a003", "asm": "0014c535987be540a005ae1b6821103e6371fe51a003"}, "vout": 57, "txid": "ee7eb631cef2ac5864de06487aea181dc0c31d59b61d54277c4ade2c56523d43"}, {"txinwitness": ["304502210094b4296d20affbe7542b215ef557009cd9281e70e18a3e97a76ad88867663764022042d3d3270e5ec40da8a4458ee322eb99282e7a8566756a2ce210056f0b9fa82701", "028a44e79903fe75d052d0f11b29d646db71d07acdc2394408fbc5cc53e0aca9c1"], "sequence": 4294967294, "scriptSig": {"hex": "16001431c51563b20976d342bbf4cc22af1a18d906c445", "asm": "001431c51563b20976d342bbf4cc22af1a18d906c445"}, "vout": 0, "txid": "3deb688be3b6ebf818f9723bd7977623835f437630844a8a4a732c00905e226f"}, {"sequence": 4294967294, "scriptSig": {"hex": "473044022031a17f166aca6a17814c3b9547bfe53f2444bf621c6805531f131563f102b4f7022019479732406e7d27316202e673920c63a868d8447d3ea23a7f1320823259c873012102b69b964486a27c36157f88192d8b8a2fbdc50b156ae11a623c5e6a6ad59b4168", "asm": "3044022031a17f166aca6a17814c3b9547bfe53f2444bf621c6805531f131563f102b4f7022019479732406e7d27316202e673920c63a868d8447d3ea23a7f1320823259c873[ALL] 02b69b964486a27c36157f88192d8b8a2fbdc50b156ae11a623c5e6a6ad59b4168"}, "vout": 488, "txid": "9eee41b707808302feb1689b63e943b94b17fb568fa454cb81532f027e3f807f"}, {"txinwitness": ["304402200276a1c9dc11a5b1c983d9e8e997b3a2b5a76fb1e0c9a8fd20fab45e8937a8e9022069c92510bba12fa4e964313523ed65a7ec597769ecc4e8ff8f957c3cba4bf5f501", "03492176f9814d44adad5831c93c71a53e4093943002771ff7d27aa2fb76321e2e"], "sequence": 4294967294, "scriptSig": {"hex": "16001432d4281a46a56f9f16299b8b6a44e0adb0fc359a", "asm": "001432d4281a46a56f9f16299b8b6a44e0adb0fc359a"}, "vout": 0, "txid": "42978f6a970624f9121ba9f801651fde05b5c3c7cf17563442f0773767ffd794"}, {"txinwitness": ["304402204ba31c82bb68a395759e5dda041398f92cbe6464f38065d3c92a02b1e3ba81c202206d3091c83a0a2295ca960a97392a7a7c13b85f9651007af26c0c1500cff3a1ca01", "036ec12e2081446712c1bad1aea420fbc5597dc7560c3f997a47cc8bf86953df2e"], "sequence": 4294967294, "scriptSig": {"hex": "1600142268cce3d250f7ac5d51d11322c8171ae60511a6", "asm": "00142268cce3d250f7ac5d51d11322c8171ae60511a6"}, "vout": 0, "txid": "99f6342622606c9ebb7e5ec2f85b2514ac986732f55ced43246eaa0c9d2af9f3"}], "txid": "145cdfb56695268740aecc7890fa5a267efef227733a78c2237ac5dba84a8327", "blocktime": 1537875543, "version": 2, "confirmations": 11464, "time": 1537875543, "locktime": 542998, "vsize": 585, "size": 909}