{"hash": "145dd248b5b2586f36ec398a142e3540cc7cf9accd9ffe134fb275a4dafe0233", "blockhash": "0000000000000000001f76057863aec43deb6fa401d9628bb513d65a8098bfab", "vout": [{"scriptPubKey": {"reqSigs": 1, "hex": "76a914b87c50be4da120452e37a22460c2229786cfbf1b88ac", "addresses": ["1HpUFtBfTGEvEaurfFNYzKHrKcwj57S93L"], "asm": "OP_DUP OP_HASH160 b87c50be4da120452e37a22460c2229786cfbf1b OP_EQUALVERIFY OP_CHECKSIG", "type": "pubkeyhash"}, "value": 0.00857239, "n": 0}, {"scriptPubKey": {"reqSigs": 1, "hex": "76a914e349bc52d6b8100b58d3fce45135a91c5c128a1d88ac", "addresses": ["1MiningDkXkhKaXBTMKXfLemnk1YY5rbkT"], "asm": "OP_DUP OP_HASH160 e349bc52d6b8100b58d3fce45135a91c5c128a1d OP_EQUALVERIFY OP_CHECKSIG", "type": "pubkeyhash"}, "value": 0.27004721, "n": 1}], "hex": "0200000001135d147eaddbd1fc71931057e558b21a31725b508a3acc18e49cbe7610bb3e02010000008a47304402202a1d2bf76d48b13b491600203b3b2c12a912381c52c545b1e3b36a50281b427202201a8749e715de76e7e4ea1fe6f35a038c1424f5e35281a38a186addf8cb37cb10014104ae414abde7876c34e01694b38b2341d10b9b4c8db18a66262bd8df26bcb57893885c9fe8b79aa25330d5f05bb5aa9ab636a908a72e27956572b44190b22809beffffffff0297140d00000000001976a914b87c50be4da120452e37a22460c2229786cfbf1b88ac310f9c01000000001976a914e349bc52d6b8100b58d3fce45135a91c5c128a1d88ac00000000", "vin": [{"sequence": 4294967295, "scriptSig": {"hex": "47304402202a1d2bf76d48b13b491600203b3b2c12a912381c52c545b1e3b36a50281b427202201a8749e715de76e7e4ea1fe6f35a038c1424f5e35281a38a186addf8cb37cb10014104ae414abde7876c34e01694b38b2341d10b9b4c8db18a66262bd8df26bcb57893885c9fe8b79aa25330d5f05bb5aa9ab636a908a72e27956572b44190b22809be", "asm": "304402202a1d2bf76d48b13b491600203b3b2c12a912381c52c545b1e3b36a50281b427202201a8749e715de76e7e4ea1fe6f35a038c1424f5e35281a38a186addf8cb37cb10[ALL] 04ae414abde7876c34e01694b38b2341d10b9b4c8db18a66262bd8df26bcb57893885c9fe8b79aa25330d5f05bb5aa9ab636a908a72e27956572b44190b22809be"}, "vout": 1, "txid": "023ebb1076be9ce418cc3a8a505b72311ab258e557109371fcd1dbad7e145d13"}], "txid": "145dd248b5b2586f36ec398a142e3540cc7cf9accd9ffe134fb275a4dafe0233", "blocktime": 1537873891, "version": 2, "confirmations": 11478, "time": 1537873891, "locktime": 0, "vsize": 257, "size": 257}