{"hash": "809dbc76685ff8acfe01ff187f2083b79dc399d99aba762d265facb20b2a47fb", "blockhash": "0000000000000000001f76057863aec43deb6fa401d9628bb513d65a8098bfab", "vout": [{"scriptPubKey": {"reqSigs": 1, "hex": "a914880af7e0e2900eb22e11da9b6ae5b9b4b39b28ab87", "addresses": ["3E6LxipSApmndsVnP7K6qe3CwRqaS8WR6g"], "asm": "OP_HASH160 880af7e0e2900eb22e11da9b6ae5b9b4b39b28ab OP_EQUAL", "type": "scripthash"}, "value": 0.01043639, "n": 0}, {"scriptPubKey": {"reqSigs": 1, "hex": "76a914e2e935237afbbfe00bd99aaa81246024105058c788ac", "addresses": ["1Mgo5uCE8xnPyzaSukNvFp2KYQNQKmaVky"], "asm": "OP_DUP OP_HASH160 e2e935237afbbfe00bd99aaa81246024105058c7 OP_EQUALVERIFY OP_CHECKSIG", "type": "pubkeyhash"}, "value": 0.00473738, "n": 1}], "hex": "02000000000102cab991a402f9f8afd1ed32fa1a4bcb967824ae81b2bbc7daa5a0f620b535f05e0100000017160014dc484b1e69bbd971a0fb70c7c207d48be2028094feffffffdd80978d72661f395620b3b12e96a934baaad40c1017a11234d7809cd170df860000000017160014e52a8c3777670cab1e5378d586eaf76be0d9fe1afeffffff02b7ec0f000000000017a914880af7e0e2900eb22e11da9b6ae5b9b4b39b28ab878a3a0700000000001976a914e2e935237afbbfe00bd99aaa81246024105058c788ac02473044022034fbccd41019c0636378e67f3374861b4105c1b7d0c973ebff0380562ec73a0b0220154e7840223758b92f096c1f3db2dac8443ef02013f0202444d7bee66b99bad20121027382f46c02ebe4141794bad3c9f442a16fe2e359ed57b652f6b2b1a41cdcb00402483045022100c8795279b8629c347c3f31af387c117601e849687ff51b900899c17aea3f015802203f2f142602774821fed5bfec39bb24d832e6526eb59f90143a572cb5927fcefd0121026073ecaa279cb6578b2c7f4a01049a2b230c0cf81ba7f1eb86a925df2dbe761614490800", "vin": [{"txinwitness": ["3044022034fbccd41019c0636378e67f3374861b4105c1b7d0c973ebff0380562ec73a0b0220154e7840223758b92f096c1f3db2dac8443ef02013f0202444d7bee66b99bad201", "027382f46c02ebe4141794bad3c9f442a16fe2e359ed57b652f6b2b1a41cdcb004"], "sequence": 4294967294, "scriptSig": {"hex": "160014dc484b1e69bbd971a0fb70c7c207d48be2028094", "asm": "0014dc484b1e69bbd971a0fb70c7c207d48be2028094"}, "vout": 1, "txid": "5ef035b520f6a0a5dac7bbb281ae247896cb4b1afa32edd1aff8f902a491b9ca"}, {"txinwitness": ["3045022100c8795279b8629c347c3f31af387c117601e849687ff51b900899c17aea3f015802203f2f142602774821fed5bfec39bb24d832e6526eb59f90143a572cb5927fcefd01", "026073ecaa279cb6578b2c7f4a01049a2b230c0cf81ba7f1eb86a925df2dbe7616"], "sequence": 4294967294, "scriptSig": {"hex": "160014e52a8c3777670cab1e5378d586eaf76be0d9fe1a", "asm": "0014e52a8c3777670cab1e5378d586eaf76be0d9fe1a"}, "vout": 0, "txid": "86df70d19c80d73412a117100cd4aaba34a9962eb1b32056391f66728d9780dd"}], "txid": "146053abf8eb65e1d7122263f40c9223a0d8580f687869955ea3aad35fc03fe3", "blocktime": 1537873891, "version": 2, "confirmations": 11478, "time": 1537873891, "locktime": 542996, "vsize": 259, "size": 421}