{"hash": "14632f9a6346a0e6b169d0c8d5a6b8d717d2cbb2d0a17e0c3796f4c0b1ca861b", "blockhash": "000000000000000000022b45ed06c6f4ccd3cf7fb5ba4856ebd2e58215665228", "vout": [{"scriptPubKey": {"reqSigs": 1, "hex": "76a914141e802e5d448ef0ad0d84459784315b1e940a4288ac", "addresses": ["12qP44eeZsyUHwhNq2iCZizCWPcPqUvDDT"], "asm": "OP_DUP OP_HASH160 141e802e5d448ef0ad0d84459784315b1e940a42 OP_EQUALVERIFY OP_CHECKSIG", "type": "pubkeyhash"}, "value": 0.077975, "n": 0}, {"scriptPubKey": {"reqSigs": 1, "hex": "76a914b80e4e81bf6fc3b5e797f18e60afb63f4a2a862188ac", "addresses": ["1HnCULohRfiaZYgTrJo1kaJmjw32K9ZdtQ"], "asm": "OP_DUP OP_HASH160 b80e4e81bf6fc3b5e797f18e60afb63f4a2a8621 OP_EQUALVERIFY OP_CHECKSIG", "type": "pubkeyhash"}, "value": 0.08072413, "n": 1}], "hex": "01000000017143b335e5dce3248d132ac216179b1310127db91e3101af4851bfc508449a99000000006b483045022100bc9ed6fd31e128187ad79c0cd01702e3475488559d5469e0fdcabe21d72ea830022040b69670ffdb3efae6c83e90cb2dfa56110e746c1bf25178ea44fb08cf394a17012102b0ae71e254815c6babf4068762685129f3ffbbcd44b7323d410ba5d62ce5915bffffffff02fcfa7600000000001976a914141e802e5d448ef0ad0d84459784315b1e940a4288acdd2c7b00000000001976a914b80e4e81bf6fc3b5e797f18e60afb63f4a2a862188ac00000000", "vin": [{"sequence": 4294967295, "scriptSig": {"hex": "483045022100bc9ed6fd31e128187ad79c0cd01702e3475488559d5469e0fdcabe21d72ea830022040b69670ffdb3efae6c83e90cb2dfa56110e746c1bf25178ea44fb08cf394a17012102b0ae71e254815c6babf4068762685129f3ffbbcd44b7323d410ba5d62ce5915b", "asm": "3045022100bc9ed6fd31e128187ad79c0cd01702e3475488559d5469e0fdcabe21d72ea830022040b69670ffdb3efae6c83e90cb2dfa56110e746c1bf25178ea44fb08cf394a17[ALL] 02b0ae71e254815c6babf4068762685129f3ffbbcd44b7323d410ba5d62ce5915b"}, "vout": 0, "txid": "999a4408c5bf5148af01311eb97d1210139b1716c22a138d24e3dce535b34371"}], "txid": "14632f9a6346a0e6b169d0c8d5a6b8d717d2cbb2d0a17e0c3796f4c0b1ca861b", "blocktime": 1537869901, "version": 1, "confirmations": 11524, "time": 1537869901, "locktime": 0, "vsize": 226, "size": 226}