{"hash": "14634c25e95d321ddf93dba9930e92094835a2fb34d5a53b120f453624080038", "blockhash": "0000000000000000000e13cef7c366c0283d82e591d1acd082e914b08063cdf1", "vout": [{"scriptPubKey": {"reqSigs": 1, "hex": "76a9146bad976eeb187da942ab2a892fe879ec40800c4088ac", "addresses": ["1ApMFst3Qd7dUREhF69WwW6CbPi9d6dQWp"], "asm": "OP_DUP OP_HASH160 6bad976eeb187da942ab2a892fe879ec40800c40 OP_EQUALVERIFY OP_CHECKSIG", "type": "pubkeyhash"}, "value": 0.28497113, "n": 0}, {"scriptPubKey": {"reqSigs": 1, "hex": "76a9147cab82558fdfa9e5b1abf9af49899520d909e41588ac", "addresses": ["1CNCFT4p4QYYvsVAM5zpsKzMF2YwYggtvN"], "asm": "OP_DUP OP_HASH160 7cab82558fdfa9e5b1abf9af49899520d909e415 OP_EQUALVERIFY OP_CHECKSIG", "type": "pubkeyhash"}, "value": 0.53800559, "n": 1}, {"scriptPubKey": {"reqSigs": 1, "hex": "76a914fa4632ffc7cc9df92a1423cdc3863ca129a5199988ac", "addresses": ["1PpL2V7CDdPBMLCAmNJK1M7cs8TUWLjY84"], "asm": "OP_DUP OP_HASH160 fa4632ffc7cc9df92a1423cdc3863ca129a51999 OP_EQUALVERIFY OP_CHECKSIG", "type": "pubkeyhash"}, "value": 1.96571696, "n": 2}, {"scriptPubKey": {"reqSigs": 1, "hex": "a914c9367137a14ca35566e917b714c8a9ef655c790387", "addresses": ["3L2vxpGqFTtFvn1D2eAZCVp43magDZLFwz"], "asm": "OP_HASH160 c9367137a14ca35566e917b714c8a9ef655c7903 OP_EQUAL", "type": "scripthash"}, "value": 0.54922068, "n": 3}, {"scriptPubKey": {"reqSigs": 1, "hex": "76a91488087e49b0e8ce16d79a46564b2642d9e58230f188ac", "addresses": ["1DQH5DSuFk1xRJZFSFwgoaiHsEgzQXZp11"], "asm": "OP_DUP OP_HASH160 88087e49b0e8ce16d79a46564b2642d9e58230f1 OP_EQUALVERIFY OP_CHECKSIG", "type": "pubkeyhash"}, "value": 0.22365756, "n": 4}, {"scriptPubKey": {"reqSigs": 1, "hex": "a914da70a45aad8d7ed346a2073cd939fc4752e0c23e87", "addresses": ["3Mc2AsE1bK5HbzXDXdrTVnAnK38JLaCaEM"], "asm": "OP_HASH160 da70a45aad8d7ed346a2073cd939fc4752e0c23e OP_EQUAL", "type": "scripthash"}, "value": 0.2424594, "n": 5}, {"scriptPubKey": {"reqSigs": 1, "hex": "76a9149b496088d6202f297fe8a853bbba4fc07b445e7a88ac", "addresses": ["1FA5e4fVTuGzZHkDoqjCJcxkEa1zHBQ9uH"], "asm": "OP_DUP OP_HASH160 9b496088d6202f297fe8a853bbba4fc07b445e7a OP_EQUALVERIFY OP_CHECKSIG", "type": "pubkeyhash"}, "value": 0.26719716, "n": 6}, {"scriptPubKey": {"reqSigs": 1, "hex": "a91475998fc4100d74baf088800b15e0bbb1699833a887", "addresses": ["3CQpwdim4JHqisaH47MvacwMnkPtasb3WY"], "asm": "OP_HASH160 75998fc4100d74baf088800b15e0bbb1699833a8 OP_EQUAL", "type": "scripthash"}, "value": 0.48241235, "n": 7}, {"scriptPubKey": {"reqSigs": 1, "hex": "a914d0d5f77c66f2f005bba1a746c36fad894129988587", "addresses": ["3LjEo7auWVozhk6kHdm8z7XQxUJeqqXCnx"], "asm": "OP_HASH160 d0d5f77c66f2f005bba1a746c36fad8941299885 OP_EQUAL", "type": "scripthash"}, "value": 1.35697558, "n": 8}, {"scriptPubKey": {"reqSigs": 1, "hex": "76a914ca197e3c7f36395ab89ba21c43c1d2f751e56a0588ac", "addresses": ["1KRc33ShfCeq5ywpmaEQMaGQJ8nfUtsWpb"], "asm": "OP_DUP OP_HASH160 ca197e3c7f36395ab89ba21c43c1d2f751e56a05 OP_EQUALVERIFY OP_CHECKSIG", "type": "pubkeyhash"}, "value": 0.23717401, "n": 9}, {"scriptPubKey": {"reqSigs": 1, "hex": "76a9141e005a3a84bf8cb3529b2f83696959aa2bd98b1988ac", "addresses": ["13jdhF9dXao7zA6vQBrJHvUfbJVMHkwW9t"], "asm": "OP_DUP OP_HASH160 1e005a3a84bf8cb3529b2f83696959aa2bd98b19 OP_EQUALVERIFY OP_CHECKSIG", "type": "pubkeyhash"}, "value": 0.40756733, "n": 10}, {"scriptPubKey": {"reqSigs": 1, "hex": "a91495a105e34b7b86a7cac4745adb5c0cc3ffa2823087", "addresses": ["3FLBWCbBEW4X79XUAByrvcB5ipYJEkQXo2"], "asm": "OP_HASH160 95a105e34b7b86a7cac4745adb5c0cc3ffa28230 OP_EQUAL", "type": "scripthash"}, "value": 0.52868127, "n": 11}, {"scriptPubKey": {"reqSigs": 1, "hex": "76a91485ea220a75f537ef4e7362830957799743e1f64388ac", "addresses": ["1DD5MMjmwtyk4tkZKEA5SDUy7xEx5L121M"], "asm": "OP_DUP OP_HASH160 85ea220a75f537ef4e7362830957799743e1f643 OP_EQUALVERIFY OP_CHECKSIG", "type": "pubkeyhash"}, "value": 0.33469242, "n": 12}, {"scriptPubKey": {"reqSigs": 1, "hex": "76a914ef4b742338212bfe8a097a6371f356c4653a160d88ac", "addresses": ["1NpGtTfuw9F2aKVEVCkcbxfCwontjbaMgu"], "asm": "OP_DUP OP_HASH160 ef4b742338212bfe8a097a6371f356c4653a160d OP_EQUALVERIFY OP_CHECKSIG", "type": "pubkeyhash"}, "value": 0.21802388, "n": 13}, {"scriptPubKey": {"reqSigs": 1, "hex": "76a914a80ad520e5b7c9e4bcd8d4d2112a3cae9917ed3f88ac", "addresses": ["1GKXVtLXLFi2o5AXvznD9Gsde1k8841RFE"], "asm": "OP_DUP OP_HASH160 a80ad520e5b7c9e4bcd8d4d2112a3cae9917ed3f OP_EQUALVERIFY OP_CHECKSIG", "type": "pubkeyhash"}, "value": 0.85779003, "n": 14}, {"scriptPubKey": {"reqSigs": 1, "hex": "76a9140dfaab61fac7ea11928b91d0c0774394e0aae35c88ac", "addresses": ["12Gv5KBYFeCWM1KK6bLgE7EMrvCqcfA3bj"], "asm": "OP_DUP OP_HASH160 0dfaab61fac7ea11928b91d0c0774394e0aae35c OP_EQUALVERIFY OP_CHECKSIG", "type": "pubkeyhash"}, "value": 0.68122143, "n": 15}, {"scriptPubKey": {"reqSigs": 1, "hex": "76a91439685185761cd4461b95ae1b2c236c99adb8beee88ac", "addresses": ["16EYV7CHRFitHQF4fEcZoW4qgCQdxwCa1U"], "asm": "OP_DUP OP_HASH160 39685185761cd4461b95ae1b2c236c99adb8beee OP_EQUALVERIFY OP_CHECKSIG", "type": "pubkeyhash"}, "value": 0.24088479, "n": 16}, {"scriptPubKey": {"reqSigs": 1, "hex": "a9146beac3c2d28d7aa85d7373218966b6cbd039090787", "addresses": ["3BXdToimxjGK8tdBMpNus2aAvJxEh3LbxS"], "asm": "OP_HASH160 6beac3c2d28d7aa85d7373218966b6cbd0390907 OP_EQUAL", "type": "scripthash"}, "value": 0.67517917, "n": 17}, {"scriptPubKey": {"reqSigs": 1, "hex": "76a9140ba3ec6c9e2c401d50312e1b154c96ea4d313b8388ac", "addresses": ["124YoiaSaUssbBeP5RukbSN9Evc3UJfwPj"], "asm": "OP_DUP OP_HASH160 0ba3ec6c9e2c401d50312e1b154c96ea4d313b83 OP_EQUALVERIFY OP_CHECKSIG", "type": "pubkeyhash"}, "value": 1.59695559, "n": 18}, {"scriptPubKey": {"reqSigs": 1, "hex": "76a91430d31eee257753c731f0113377489411f206b74688ac", "addresses": ["15TAM96v66oBpaCiwqsTLLVTaux4f4PAYg"], "asm": "OP_DUP OP_HASH160 30d31eee257753c731f0113377489411f206b746 OP_EQUALVERIFY OP_CHECKSIG", "type": "pubkeyhash"}, "value": 0.2162964, "n": 19}, {"scriptPubKey": {"reqSigs": 1, "hex": "76a91434a7ad19e7c132b5afe8ad57545e39833a9ef22888ac", "addresses": ["15oR1Ka4KwwqfirYXFUQgDX6pdcd6nzrHf"], "asm": "OP_DUP OP_HASH160 34a7ad19e7c132b5afe8ad57545e39833a9ef228 OP_EQUALVERIFY OP_CHECKSIG", "type": "pubkeyhash"}, "value": 0.41154741, "n": 20}, {"scriptPubKey": {"reqSigs": 1, "hex": "76a91458f45650526f2df1d81edac35a234ad705b2254788ac", "addresses": ["197MAj3D59zn8h5BduKsG4EwaFsJaH8nL2"], "asm": "OP_DUP OP_HASH160 58f45650526f2df1d81edac35a234ad705b22547 OP_EQUALVERIFY OP_CHECKSIG", "type": "pubkeyhash"}, "value": 0.33520756, "n": 21}, {"scriptPubKey": {"reqSigs": 1, "hex": "76a9148b0eaf5f19f3f907208b22d898104881058e886c88ac", "addresses": ["1DgGWzxRd1opFu1q3Etr1zTzebnDMX3XvR"], "asm": "OP_DUP OP_HASH160 8b0eaf5f19f3f907208b22d898104881058e886c OP_EQUALVERIFY OP_CHECKSIG", "type": "pubkeyhash"}, "value": 1.876876, "n": 22}, {"scriptPubKey": {"reqSigs": 1, "hex": "76a914c97c2f28f2c9fd0a536d312345d3aca36880c73988ac", "addresses": ["1KNMb2fWPAhEfzgNtLFsfbWACPuD63wApC"], "asm": "OP_DUP OP_HASH160 c97c2f28f2c9fd0a536d312345d3aca36880c739 OP_EQUALVERIFY OP_CHECKSIG", "type": "pubkeyhash"}, "value": 0.24163769, "n": 23}, {"scriptPubKey": {"reqSigs": 1, "hex": "76a9142d129be3abf076a9fa1a6aa0dae5dbc693c9239e88ac", "addresses": ["157Khc48QVQ4XBqbTQG2EqqkTW1ujs6Zwa"], "asm": "OP_DUP OP_HASH160 2d129be3abf076a9fa1a6aa0dae5dbc693c9239e OP_EQUALVERIFY OP_CHECKSIG", "type": "pubkeyhash"}, "value": 0.73219883, "n": 24}, {"scriptPubKey": {"reqSigs": 1, "hex": "76a91473b83e45dbeafe8002f1e2d586757ac99d94903088ac", "addresses": ["1BYsRWMmWCbZitnYXwHVBn1HhQ7hUdnuqW"], "asm": "OP_DUP OP_HASH160 73b83e45dbeafe8002f1e2d586757ac99d949030 OP_EQUALVERIFY OP_CHECKSIG", "type": "pubkeyhash"}, "value": 1.58796706, "n": 25}, {"scriptPubKey": {"reqSigs": 1, "hex": "76a9149de748747cbf058e250c31314f78f6601c2064bd88ac", "addresses": ["1FPv9wk6mSBd4uTCniJYx9gZLtFrKnTM1B"], "asm": "OP_DUP OP_HASH160 9de748747cbf058e250c31314f78f6601c2064bd OP_EQUALVERIFY OP_CHECKSIG", "type": "pubkeyhash"}, "value": 1.50190085, "n": 26}, {"scriptPubKey": {"reqSigs": 1, "hex": "76a9141f37d9ca3f1c2235a8f377a669e1e23f8ee1c25488ac", "addresses": ["13r4rXQudPYKoJi8UZTqZ426anMEQeaJ47"], "asm": "OP_DUP OP_HASH160 1f37d9ca3f1c2235a8f377a669e1e23f8ee1c254 OP_EQUALVERIFY OP_CHECKSIG", "type": "pubkeyhash"}, "value": 0.26671155, "n": 27}, {"scriptPubKey": {"reqSigs": 1, "hex": "76a9144a14dda24efed0ea79d3e1f79cbf436cc3b3856a88ac", "addresses": ["17khzyUcSVEt3yGR8Pp4AuNpBStouSKmzx"], "asm": "OP_DUP OP_HASH160 4a14dda24efed0ea79d3e1f79cbf436cc3b3856a OP_EQUALVERIFY OP_CHECKSIG", "type": "pubkeyhash"}, "value": 0.2583462, "n": 28}, {"scriptPubKey": {"reqSigs": 1, "hex": "a914f6c2012607a42cfb60051d2e4e8e1d3215fc77d387", "addresses": ["3QBkZQGqZRgF4VP32eEjssfduqBRUzh2rv"], "asm": "OP_HASH160 f6c2012607a42cfb60051d2e4e8e1d3215fc77d3 OP_EQUAL", "type": "scripthash"}, "value": 0.47772302, "n": 29}, {"scriptPubKey": {"reqSigs": 1, "hex": "76a914cc84c285f2576f43080f08b58d15cb574008ae7888ac", "addresses": ["1KePtT6bUZX1nsK5K27wz2q8So1shZ9s9D"], "asm": "OP_DUP OP_HASH160 cc84c285f2576f43080f08b58d15cb574008ae78 OP_EQUALVERIFY OP_CHECKSIG", "type": "pubkeyhash"}, "value": 0.24867193, "n": 30}, {"scriptPubKey": {"reqSigs": 1, "hex": "a914652be5224eccf3faeeb2b6ca83a3df11d254869a87", "addresses": ["3AuxkoP8Qtcjke1nqJxC4fuaJGHJS7BEo7"], "asm": "OP_HASH160 652be5224eccf3faeeb2b6ca83a3df11d254869a OP_EQUAL", "type": "scripthash"}, "value": 0.23617272, "n": 31}, {"scriptPubKey": {"reqSigs": 1, "hex": "76a914859642f85679c98ac210f5aca3abb8af523229d688ac", "addresses": ["1DBLsscLUDfQiigeRmtpQZZs1tL6fcKpZ5"], "asm": "OP_DUP OP_HASH160 859642f85679c98ac210f5aca3abb8af523229d6 OP_EQUALVERIFY OP_CHECKSIG", "type": "pubkeyhash"}, "value": 0.37917945, "n": 32}, {"scriptPubKey": {"reqSigs": 1, "hex": "76a9148162d76a4008e0119f8dbad423e2e9d223f0b2fe88ac", "addresses": ["1Co8aNYm1yGP4JYbAtgU6EvEDxCsEKFCxW"], "asm": "OP_DUP OP_HASH160 8162d76a4008e0119f8dbad423e2e9d223f0b2fe OP_EQUALVERIFY OP_CHECKSIG", "type": "pubkeyhash"}, "value": 0.75741691, "n": 33}, {"scriptPubKey": {"reqSigs": 1, "hex": "76a91462f4b6fb1f6ad8e2a6f52f5099a53af08bd5ceb088ac", "addresses": ["1A2ENt26x42LMHMstbMP2DF4ZkDkTTXPLC"], "asm": "OP_DUP OP_HASH160 62f4b6fb1f6ad8e2a6f52f5099a53af08bd5ceb0 OP_EQUALVERIFY OP_CHECKSIG", "type": "pubkeyhash"}, "value": 1.38195062, "n": 34}, {"scriptPubKey": {"reqSigs": 1, "hex": "76a914645ae38ed21cb0cafaae33d8df01a5ff20bf1ba188ac", "addresses": ["1A9dTFkkz9w3wzBSuh2xjmuzjBrgkF36k2"], "asm": "OP_DUP OP_HASH160 645ae38ed21cb0cafaae33d8df01a5ff20bf1ba1 OP_EQUALVERIFY OP_CHECKSIG", "type": "pubkeyhash"}, "value": 1.01512817, "n": 35}, {"scriptPubKey": {"reqSigs": 1, "hex": "76a914c24b6fc23d54dfe871722d92c37cbd95e61f708a88ac", "addresses": ["1JiLTe4e1or7pgi4WXyqTcb6NfGe61LxPZ"], "asm": "OP_DUP OP_HASH160 c24b6fc23d54dfe871722d92c37cbd95e61f708a OP_EQUALVERIFY OP_CHECKSIG", "type": "pubkeyhash"}, "value": 0.24152991, "n": 36}, {"scriptPubKey": {"reqSigs": 1, "hex": "76a914f6821970ed7791b6714cc7ffa61877da1528f71988ac", "addresses": ["1PUR5euq9TBHNjNtKyzS5g5K5EFEbXBPjB"], "asm": "OP_DUP OP_HASH160 f6821970ed7791b6714cc7ffa61877da1528f719 OP_EQUALVERIFY OP_CHECKSIG", "type": "pubkeyhash"}, "value": 1.42471444, "n": 37}, {"scriptPubKey": {"reqSigs": 1, "hex": "76a914b04fe58e2122c73e882f83daec2b903675225e2088ac", "addresses": ["1H5Fe5mV6MHfbNXqdqGcP331WhxWHEXPef"], "asm": "OP_DUP OP_HASH160 b04fe58e2122c73e882f83daec2b903675225e20 OP_EQUALVERIFY OP_CHECKSIG", "type": "pubkeyhash"}, "value": 0.60304016, "n": 38}, {"scriptPubKey": {"reqSigs": 1, "hex": "76a9141b34898a86e81e6e34ac7c3c39223fbcd0c351fb88ac", "addresses": ["13UrBXuoFPTckVb92y779PKHpJoUQDXkmk"], "asm": "OP_DUP OP_HASH160 1b34898a86e81e6e34ac7c3c39223fbcd0c351fb OP_EQUALVERIFY OP_CHECKSIG", "type": "pubkeyhash"}, "value": 1.57291902, "n": 39}, {"scriptPubKey": {"reqSigs": 1, "hex": "76a91454f17b2eacf827e5bbe7b6f1943063a1042f66a088ac", "addresses": ["18k93XBUHNe3JQZVfYE18SotD17rXPAHQb"], "asm": "OP_DUP OP_HASH160 54f17b2eacf827e5bbe7b6f1943063a1042f66a0 OP_EQUALVERIFY OP_CHECKSIG", "type": "pubkeyhash"}, "value": 1.25244682, "n": 40}, {"scriptPubKey": {"reqSigs": 1, "hex": "a914318bbb600d93a33617c902c5afaa9ce4053e0fd487", "addresses": ["36CzRgtCzCXrEEwT8DvccFjHstWHHZFmFR"], "asm": "OP_HASH160 318bbb600d93a33617c902c5afaa9ce4053e0fd4 OP_EQUAL", "type": "scripthash"}, "value": 0.43037873, "n": 41}, {"scriptPubKey": {"reqSigs": 1, "hex": "a914ff5d2d3a66a7f777550ee18c151318a42eea13ce87", "addresses": ["3QyFrVKwRoWXa1LoAyvaLjMmBvtWKAAmVV"], "asm": "OP_HASH160 ff5d2d3a66a7f777550ee18c151318a42eea13ce OP_EQUAL", "type": "scripthash"}, "value": 0.23162993, "n": 42}, {"scriptPubKey": {"reqSigs": 1, "hex": "76a9146d9f52641550f765549129d2e87b1c8c9f0accad88ac", "addresses": ["1AzdWnXkR5j5j2VdVZyDYBW7Fy1odrnnoC"], "asm": "OP_DUP OP_HASH160 6d9f52641550f765549129d2e87b1c8c9f0accad OP_EQUALVERIFY OP_CHECKSIG", "type": "pubkeyhash"}, "value": 1.20799098, "n": 43}, {"scriptPubKey": {"reqSigs": 1, "hex": "76a914c6e925b0113b70ab5daf2544db62c3428c370dd788ac", "addresses": ["1K8k6LSKDssE7kAdfq7h5yadXsDxkcnG52"], "asm": "OP_DUP OP_HASH160 c6e925b0113b70ab5daf2544db62c3428c370dd7 OP_EQUALVERIFY OP_CHECKSIG", "type": "pubkeyhash"}, "value": 186.63119986, "n": 44}, {"scriptPubKey": {"reqSigs": 1, "hex": "76a9143bc134800e75652c6aa661d01ade25793adbdfe088ac", "addresses": ["16SxKSee771JGzzbeZt1NCW8QbjQHa2pt4"], "asm": "OP_DUP OP_HASH160 3bc134800e75652c6aa661d01ade25793adbdfe0 OP_EQUALVERIFY OP_CHECKSIG", "type": "pubkeyhash"}, "value": 0.37213084, "n": 45}, {"scriptPubKey": {"reqSigs": 1, "hex": "a91434293dcd0c279e6d3d476168c20262951ab75c5287", "addresses": ["36SpU2FQSWi63XgqAUQoN4SKRTDeS8gjx4"], "asm": "OP_HASH160 34293dcd0c279e6d3d476168c20262951ab75c52 OP_EQUAL", "type": "scripthash"}, "value": 0.38174979, "n": 46}, {"scriptPubKey": {"reqSigs": 1, "hex": "76a914582d70a9e2d2750c4723fa9675bdbce2dde0904388ac", "addresses": ["193Eu7ccxBsZEdrokoBAiy2m7oMfdqhqRE"], "asm": "OP_DUP OP_HASH160 582d70a9e2d2750c4723fa9675bdbce2dde09043 OP_EQUALVERIFY OP_CHECKSIG", "type": "pubkeyhash"}, "value": 0.24122984, "n": 47}, {"scriptPubKey": {"reqSigs": 1, "hex": "76a9143fdb793f78c514266d9cadb3c5b17f914993d31d88ac", "addresses": ["16peVP3fXJK4dWfEjTi8RNs7HrhSUzEYvG"], "asm": "OP_DUP OP_HASH160 3fdb793f78c514266d9cadb3c5b17f914993d31d OP_EQUALVERIFY OP_CHECKSIG", "type": "pubkeyhash"}, "value": 16.90145053, "n": 48}, {"scriptPubKey": {"reqSigs": 1, "hex": "76a914507efac7a99dd6c1eb8f1bf4a60287388cfa47bc88ac", "addresses": ["18LdB3aBamdJJDLxpCa1UP5DbVS91YSYaw"], "asm": "OP_DUP OP_HASH160 507efac7a99dd6c1eb8f1bf4a60287388cfa47bc OP_EQUALVERIFY OP_CHECKSIG", "type": "pubkeyhash"}, "value": 2.80520242, "n": 49}, {"scriptPubKey": {"reqSigs": 1, "hex": "a914897e0075ba8d7b6b4410e8780dead3fdbe7abf1487", "addresses": ["3EE1Sakr6hbBiubqeaRjQk8AJJJkbQMPAe"], "asm": "OP_HASH160 897e0075ba8d7b6b4410e8780dead3fdbe7abf14 OP_EQUAL", "type": "scripthash"}, "value": 0.43857687, "n": 50}, {"scriptPubKey": {"reqSigs": 1, "hex": "a9142b786bfdddea362ca7c502db57d7e0748f741b2287", "addresses": ["35esErBUrg1ag4Xq68H6gQpM583ytnTi9c"], "asm": "OP_HASH160 2b786bfdddea362ca7c502db57d7e0748f741b22 OP_EQUAL", "type": "scripthash"}, "value": 1.37834579, "n": 51}, {"scriptPubKey": {"reqSigs": 1, "hex": "a914e85344fb3ca3765f64bd78b54d9f567e6eb2add187", "addresses": ["3NsSSiEphNDLuDsqbN8PhsxZHufY3rrhwj"], "asm": "OP_HASH160 e85344fb3ca3765f64bd78b54d9f567e6eb2add1 OP_EQUAL", "type": "scripthash"}, "value": 15.74261295, "n": 52}, {"scriptPubKey": {"reqSigs": 1, "hex": "76a91463867ce8e59ac5e5eb64622e2d787d06ade6902988ac", "addresses": ["1A5F1Npw3NXRmAjkHwWuv2cXp8PmgaZxaP"], "asm": "OP_DUP OP_HASH160 63867ce8e59ac5e5eb64622e2d787d06ade69029 OP_EQUALVERIFY OP_CHECKSIG", "type": "pubkeyhash"}, "value": 0.31970365, "n": 53}, {"scriptPubKey": {"reqSigs": 1, "hex": "a9148d8dbc9af65dec9fa7e0ca77c9095cfe967ccaf587", "addresses": ["3EbUzdgBa69tj5idZ3hiszvW1iN2pKCuzn"], "asm": "OP_HASH160 8d8dbc9af65dec9fa7e0ca77c9095cfe967ccaf5 OP_EQUAL", "type": "scripthash"}, "value": 0.24511908, "n": 54}, {"scriptPubKey": {"reqSigs": 1, "hex": "76a914fe0582066155fcf87ec4ec1e943b2541e09d14d388ac", "addresses": ["1QA9ERRxbJisUNKzyDKjoKfntQQKD6UrrH"], "asm": "OP_DUP OP_HASH160 fe0582066155fcf87ec4ec1e943b2541e09d14d3 OP_EQUALVERIFY OP_CHECKSIG", "type": "pubkeyhash"}, "value": 0.40215323, "n": 55}, {"scriptPubKey": {"reqSigs": 1, "hex": "a914886fa50c38e92f8c8711f1161e09281577affc8087", "addresses": ["3E8RZqtNPYVpLrJuVUe5cMUZ2Zw1xxj3Wu"], "asm": "OP_HASH160 886fa50c38e92f8c8711f1161e09281577affc80 OP_EQUAL", "type": "scripthash"}, "value": 0.78319514, "n": 56}, {"scriptPubKey": {"reqSigs": 1, "hex": "76a9149a99f6ea55746f54b0048aa9680dafec75d8fe1288ac", "addresses": ["1F6TWBfJhGMQitwuEWTJwBtm9nqjHD1RLt"], "asm": "OP_DUP OP_HASH160 9a99f6ea55746f54b0048aa9680dafec75d8fe12 OP_EQUALVERIFY OP_CHECKSIG", "type": "pubkeyhash"}, "value": 1.63321685, "n": 57}, {"scriptPubKey": {"reqSigs": 1, "hex": "76a914be39a1133e4026021582044d1682011b6157400988ac", "addresses": ["1JLpRbVrcqpioXeBpvRWdyBY7f6xUaSpKD"], "asm": "OP_DUP OP_HASH160 be39a1133e4026021582044d1682011b61574009 OP_EQUALVERIFY OP_CHECKSIG", "type": "pubkeyhash"}, "value": 0.26497062, "n": 58}, {"scriptPubKey": {"reqSigs": 1, "hex": "a914459d2bacec4f0160403ac3d27bc1081c5890564487", "addresses": ["3836qBhbg3vajdV4CXNzGenbrnpeXbEkJ5"], "asm": "OP_HASH160 459d2bacec4f0160403ac3d27bc1081c58905644 OP_EQUAL", "type": "scripthash"}, "value": 0.70895054, "n": 59}, {"scriptPubKey": {"reqSigs": 1, "hex": "76a914bd6edb940e528b0403a8aafdb8a571e2d05009bc88ac", "addresses": ["1JGdWnaq8xDrNAqgwoESLU4AtReZHWQhEi"], "asm": "OP_DUP OP_HASH160 bd6edb940e528b0403a8aafdb8a571e2d05009bc OP_EQUALVERIFY OP_CHECKSIG", "type": "pubkeyhash"}, "value": 0.23277502, "n": 60}, {"scriptPubKey": {"reqSigs": 1, "hex": "a914ee3e7bd1e8c34389f3ab7ee60a6521ae7b12706187", "addresses": ["3PQjbe8dKeQ7w5WheFJo1XXNUdvReZYkwK"], "asm": "OP_HASH160 ee3e7bd1e8c34389f3ab7ee60a6521ae7b127061 OP_EQUAL", "type": "scripthash"}, "value": 0.26190126, "n": 61}, {"scriptPubKey": {"reqSigs": 1, "hex": "76a9144565a8be414c2618c293014af8ecb95308b861fb88ac", "addresses": ["17KwQe1WjpUxiwsgVjgvdBtDbsQPyq7Gn2"], "asm": "OP_DUP OP_HASH160 4565a8be414c2618c293014af8ecb95308b861fb OP_EQUALVERIFY OP_CHECKSIG", "type": "pubkeyhash"}, "value": 2.47898143, "n": 62}, {"scriptPubKey": {"reqSigs": 1, "hex": "a914673efe16c2210f16982687e5dacc2e055f48e8a287", "addresses": ["3B6vz6mmomWSLTCEcnD423RKGefhuzxedP"], "asm": "OP_HASH160 673efe16c2210f16982687e5dacc2e055f48e8a2 OP_EQUAL", "type": "scripthash"}, "value": 1.51741023, "n": 63}, {"scriptPubKey": {"reqSigs": 1, "hex": "76a91465d6768b6e8165055ae5ecc8cf2facfa90191be688ac", "addresses": ["1AHUAXjUVf3BdRi7jJwHkkN1cBRtDVzLZf"], "asm": "OP_DUP OP_HASH160 65d6768b6e8165055ae5ecc8cf2facfa90191be6 OP_EQUALVERIFY OP_CHECKSIG", "type": "pubkeyhash"}, "value": 1.01445989, "n": 64}, {"scriptPubKey": {"reqSigs": 1, "hex": "a9144f924ee1cd6c449c057a806c9ae4a97dfe79230787", "addresses": ["38wkaNAJjxmBAcwH8V8tz1m59ZTkhyTgD3"], "asm": "OP_HASH160 4f924ee1cd6c449c057a806c9ae4a97dfe792307 OP_EQUAL", "type": "scripthash"}, "value": 0.2285717, "n": 65}, {"scriptPubKey": {"reqSigs": 1, "hex": "a914ecbeaa7422bea87ceb68e811b81581af7c812d3187", "addresses": ["3PGooWYTXoaYvBm3ogTD4LV3FuoitvttTt"], "asm": "OP_HASH160 ecbeaa7422bea87ceb68e811b81581af7c812d31 OP_EQUAL", "type": "scripthash"}, "value": 2.97551063, "n": 66}, {"scriptPubKey": {"reqSigs": 1, "hex": "76a9145132fdfe2cd88c5893f88c82c82c7d1d4474d22688ac", "addresses": ["18QLpY4ro7j4C8SgpxBzEsTzVkYwp5h4y2"], "asm": "OP_DUP OP_HASH160 5132fdfe2cd88c5893f88c82c82c7d1d4474d226 OP_EQUALVERIFY OP_CHECKSIG", "type": "pubkeyhash"}, "value": 0.53935855, "n": 67}, {"scriptPubKey": {"reqSigs": 1, "hex": "76a914a953e92ce6820d3ec061edfef0b6723707b0d22a88ac", "addresses": ["1GSKieWsVDpjefPwGXYN9PP19VunQAEM1N"], "asm": "OP_DUP OP_HASH160 a953e92ce6820d3ec061edfef0b6723707b0d22a OP_EQUALVERIFY OP_CHECKSIG", "type": "pubkeyhash"}, "value": 0.43958018, "n": 68}, {"scriptPubKey": {"reqSigs": 1, "hex": "a914c46d74774a24b3c2308375570c3986d9c51ad54687", "addresses": ["3KbdVCsLZ3tCgEASTTohB4NGFqqq64iJve"], "asm": "OP_HASH160 c46d74774a24b3c2308375570c3986d9c51ad546 OP_EQUAL", "type": "scripthash"}, "value": 0.44627136, "n": 69}, {"scriptPubKey": {"reqSigs": 1, "hex": "a9141921ff58cc745242e1fd2cef3a38278b7f709b1c87", "addresses": ["33yuYXKrW3KUUGnyTuzDb7vNBRPWh6KTh8"], "asm": "OP_HASH160 1921ff58cc745242e1fd2cef3a38278b7f709b1c OP_EQUAL", "type": "scripthash"}, "value": 0.69236097, "n": 70}, {"scriptPubKey": {"reqSigs": 1, "hex": "76a9141740f987a5600f9ab789a763a04e268ce9a5330388ac", "addresses": ["137xNwF3i2sqAzyAytm63sdo8FBWMbcyVV"], "asm": "OP_DUP OP_HASH160 1740f987a5600f9ab789a763a04e268ce9a53303 OP_EQUALVERIFY OP_CHECKSIG", "type": "pubkeyhash"}, "value": 0.34206901, "n": 71}, {"scriptPubKey": {"reqSigs": 1, "hex": "76a914e42ed265af2f7397053c7b0081f2637c743b017988ac", "addresses": ["1MoX9yhG4in4T8hHbswqPHdCXywMpfgshZ"], "asm": "OP_DUP OP_HASH160 e42ed265af2f7397053c7b0081f2637c743b0179 OP_EQUALVERIFY OP_CHECKSIG", "type": "pubkeyhash"}, "value": 0.30583191, "n": 72}, {"scriptPubKey": {"reqSigs": 1, "hex": "76a9146cb9c356550726a9327345d70fc65c628c6dd95d88ac", "addresses": ["1AutWm4f2ZYKv5GnwAM3WD4cooi5HP6nn2"], "asm": "OP_DUP OP_HASH160 6cb9c356550726a9327345d70fc65c628c6dd95d OP_EQUALVERIFY OP_CHECKSIG", "type": "pubkeyhash"}, "value": 0.96491483, "n": 73}, {"scriptPubKey": {"reqSigs": 1, "hex": "76a9147ab6300bb1fbbde52b1ba936881ddcafc84e7a3b88ac", "addresses": ["1CBqh2TYKoseVCegi3x4GQW714PV6iKvav"], "asm": "OP_DUP OP_HASH160 7ab6300bb1fbbde52b1ba936881ddcafc84e7a3b OP_EQUALVERIFY OP_CHECKSIG", "type": "pubkeyhash"}, "value": 0.22761815, "n": 74}, {"scriptPubKey": {"reqSigs": 1, "hex": "76a914cf60395be2cc31326f43d12ed06ffba72cfb9fd288ac", "addresses": ["1KuW9UUTHeqHrXtQVzY3Kz16kyJADA1H4A"], "asm": "OP_DUP OP_HASH160 cf60395be2cc31326f43d12ed06ffba72cfb9fd2 OP_EQUALVERIFY OP_CHECKSIG", "type": "pubkeyhash"}, "value": 0.34269933, "n": 75}, {"scriptPubKey": {"reqSigs": 1, "hex": "a91437223b278ab373e102cc533445caa1360d0092be87", "addresses": ["36iY6WbJXj2744Zg9VocGJ8nGfNbcvPfc4"], "asm": "OP_HASH160 37223b278ab373e102cc533445caa1360d0092be OP_EQUAL", "type": "scripthash"}, "value": 0.45445278, "n": 76}, {"scriptPubKey": {"reqSigs": 1, "hex": "76a914cba7a4e421123f50d34f29da5c0a5a236bf7438688ac", "addresses": ["1KZq14Nzv7PEg3RLqHPbUgcsLDjQqWFSaz"], "asm": "OP_DUP OP_HASH160 cba7a4e421123f50d34f29da5c0a5a236bf74386 OP_EQUALVERIFY OP_CHECKSIG", "type": "pubkeyhash"}, "value": 0.52809263, "n": 77}, {"scriptPubKey": {"reqSigs": 1, "hex": "a914a73d032b0548580dabaabd3d194ccf9f6a97b68387", "addresses": ["3GwHrnyrmv1bDHZVeg9wRtARFTiLiAWsyj"], "asm": "OP_HASH160 a73d032b0548580dabaabd3d194ccf9f6a97b683 OP_EQUAL", "type": "scripthash"}, "value": 0.25238983, "n": 78}, {"scriptPubKey": {"reqSigs": 1, "hex": "a91496b2eeb7bf2637c492a38d79f129e89d023593d387", "addresses": ["3FRqdmNHUZYSS1rvsShn3JGGgCcywYUj7z"], "asm": "OP_HASH160 96b2eeb7bf2637c492a38d79f129e89d023593d3 OP_EQUAL", "type": "scripthash"}, "value": 0.22321685, "n": 79}, {"scriptPubKey": {"reqSigs": 1, "hex": "76a914a717ff15c5e385d2db0d8ba9acaff0ecd2e38d1d88ac", "addresses": ["1GEWbLXH9F5tn8Kuw3WiARRVohHykoFFfi"], "asm": "OP_DUP OP_HASH160 a717ff15c5e385d2db0d8ba9acaff0ecd2e38d1d OP_EQUALVERIFY OP_CHECKSIG", "type": "pubkeyhash"}, "value": 0.30499708, "n": 80}, {"scriptPubKey": {"reqSigs": 1, "hex": "76a914720c43e0e59be1a05ec9c06121591159cc7f1eff88ac", "addresses": ["1BQ2j4qtj4hPuhGJMQqPVHyFHVvCDgwoEt"], "asm": "OP_DUP OP_HASH160 720c43e0e59be1a05ec9c06121591159cc7f1eff OP_EQUALVERIFY OP_CHECKSIG", "type": "pubkeyhash"}, "value": 0.42664141, "n": 81}, {"scriptPubKey": {"reqSigs": 1, "hex": "76a914ff3a28399d774171242b683b8ae57a7ed7e2fb9788ac", "addresses": ["1QGWykCwmEHFvmJhFKiXSFNGX8foQUaALp"], "asm": "OP_DUP OP_HASH160 ff3a28399d774171242b683b8ae57a7ed7e2fb97 OP_EQUALVERIFY OP_CHECKSIG", "type": "pubkeyhash"}, "value": 0.39780638, "n": 82}, {"scriptPubKey": {"reqSigs": 1, "hex": "76a91490150fe290f1f7f8137d5b3ad4e19cffb9ea25fd88ac", "addresses": ["1E8qY3MM2ThUGjQsHRkKppGMzwqd5f5tzD"], "asm": "OP_DUP OP_HASH160 90150fe290f1f7f8137d5b3ad4e19cffb9ea25fd OP_EQUALVERIFY OP_CHECKSIG", "type": "pubkeyhash"}, "value": 0.64368131, "n": 83}, {"scriptPubKey": {"reqSigs": 1, "hex": "a914479e2868b795d6a2b72f4f367276d5ed4dbf39d687", "addresses": ["38DhNASiNuNtLKoWV8Auc1i3VrjQTyKpzf"], "asm": "OP_HASH160 479e2868b795d6a2b72f4f367276d5ed4dbf39d6 OP_EQUAL", "type": "scripthash"}, "value": 1.01725532, "n": 84}, {"scriptPubKey": {"reqSigs": 1, "hex": "76a914d70a9581d2ca552c6bff13b8a22e56d67477292a88ac", "addresses": ["1Lc2xdkRxgWxkrL6TSciidsFk7wxf3mxiQ"], "asm": "OP_DUP OP_HASH160 d70a9581d2ca552c6bff13b8a22e56d67477292a OP_EQUALVERIFY OP_CHECKSIG", "type": "pubkeyhash"}, "value": 0.2985368, "n": 85}, {"scriptPubKey": {"reqSigs": 1, "hex": "76a914aa0cc26cbb8b8e9b7d082563610f42a48373b97788ac", "addresses": ["1GW9A9ykmNCQYTDjCeYhKs4bFUJnTM3NU9"], "asm": "OP_DUP OP_HASH160 aa0cc26cbb8b8e9b7d082563610f42a48373b977 OP_EQUALVERIFY OP_CHECKSIG", "type": "pubkeyhash"}, "value": 0.26679385, "n": 86}, {"scriptPubKey": {"reqSigs": 1, "hex": "a914281472bf7d353048cb43a5534ddb3712076f553587", "addresses": ["35LwSz6UkjV7aYqgVQmGctkvQZmuSX1x2d"], "asm": "OP_HASH160 281472bf7d353048cb43a5534ddb3712076f5535 OP_EQUAL", "type": "scripthash"}, "value": 0.22777047, "n": 87}, {"scriptPubKey": {"reqSigs": 1, "hex": "76a914aac64e81f08ce7562bf503be158e5f36c70b5ca388ac", "addresses": ["1GZySCcPCbqaNCxF3r1S1djEPioUDdzz87"], "asm": "OP_DUP OP_HASH160 aac64e81f08ce7562bf503be158e5f36c70b5ca3 OP_EQUALVERIFY OP_CHECKSIG", "type": "pubkeyhash"}, "value": 0.41856594, "n": 88}, {"scriptPubKey": {"reqSigs": 1, "hex": "a91461f853515aaa78999db5bc0539e9189173ed7ee687", "addresses": ["3Ad2x79NwfBpa4qNdjqMaQpyCDt2exHcpS"], "asm": "OP_HASH160 61f853515aaa78999db5bc0539e9189173ed7ee6 OP_EQUAL", "type": "scripthash"}, "value": 1.78099716, "n": 89}, {"scriptPubKey": {"reqSigs": 1, "hex": "76a914e4f74195c10c4abda85c98efc6bd3ca094268eee88ac", "addresses": ["1MsfGQ8BpLw1i3wnTsCxE1iYSVbSBCWqyR"], "asm": "OP_DUP OP_HASH160 e4f74195c10c4abda85c98efc6bd3ca094268eee OP_EQUALVERIFY OP_CHECKSIG", "type": "pubkeyhash"}, "value": 1.44768681, "n": 90}, {"scriptPubKey": {"reqSigs": 1, "hex": "76a914fa0dbfca26dc3c180a7e7ac1fef77ac93df8024588ac", "addresses": ["1PoAQGW5NcDyH1tumWkS9Shj7BkWimQv8C"], "asm": "OP_DUP OP_HASH160 fa0dbfca26dc3c180a7e7ac1fef77ac93df80245 OP_EQUALVERIFY OP_CHECKSIG", "type": "pubkeyhash"}, "value": 0.30390117, "n": 91}, {"scriptPubKey": {"reqSigs": 1, "hex": "76a91497affcecdde1a0db5499678f7c72c640f199616a88ac", "addresses": ["1Eq3rpvXyvfRnoP3qAgiimhoEoV6kBTeMD"], "asm": "OP_DUP OP_HASH160 97affcecdde1a0db5499678f7c72c640f199616a OP_EQUALVERIFY OP_CHECKSIG", "type": "pubkeyhash"}, "value": 0.25273396, "n": 92}, {"scriptPubKey": {"reqSigs": 1, "hex": "76a914c6cd26afd49bfaa323636089d93227829822883a88ac", "addresses": ["1K8AZ8fbvXtyK9S283odjJ3ZkfqWM27aee"], "asm": "OP_DUP OP_HASH160 c6cd26afd49bfaa323636089d93227829822883a OP_EQUALVERIFY OP_CHECKSIG", "type": "pubkeyhash"}, "value": 0.22862795, "n": 93}, {"scriptPubKey": {"reqSigs": 1, "hex": "76a91471f96fc7069845aed77f39736e82e8e509239cbc88ac", "addresses": ["1BPeAqbFzujPPHnCBbPLjBZyrYTNqoXGDT"], "asm": "OP_DUP OP_HASH160 71f96fc7069845aed77f39736e82e8e509239cbc OP_EQUALVERIFY OP_CHECKSIG", "type": "pubkeyhash"}, "value": 0.52215798, "n": 94}, {"scriptPubKey": {"reqSigs": 1, "hex": "76a914d2ca43407f1cc27406c7f98edc270f088877b40b88ac", "addresses": ["1LDZCk7fAu4uVof9sLng5jKqi9PskZjxgg"], "asm": "OP_DUP OP_HASH160 d2ca43407f1cc27406c7f98edc270f088877b40b OP_EQUALVERIFY OP_CHECKSIG", "type": "pubkeyhash"}, "value": 0.70609088, "n": 95}, {"scriptPubKey": {"reqSigs": 1, "hex": "76a9143e30b68a15c69725390dcd1bd793fd73c2910d5b88ac", "addresses": ["16fqFY3GEmC1ZTrWSsnMRr9Ay3ePxMVDsf"], "asm": "OP_DUP OP_HASH160 3e30b68a15c69725390dcd1bd793fd73c2910d5b OP_EQUALVERIFY OP_CHECKSIG", "type": "pubkeyhash"}, "value": 0.4901769, "n": 96}, {"scriptPubKey": {"reqSigs": 1, "hex": "a9143e8ad4ebf4c692682215440fc01923ae83a2fd7c87", "addresses": ["37Pi8dm9cz7NWyfc2N4hxKP8xUzo2EVTXJ"], "asm": "OP_HASH160 3e8ad4ebf4c692682215440fc01923ae83a2fd7c OP_EQUAL", "type": "scripthash"}, "value": 0.33015357, "n": 97}, {"scriptPubKey": {"reqSigs": 1, "hex": "a91418278cf67e12f6b46970fa741a63a512a8a38c7c87", "addresses": ["33tjXB3oAEXqAj65F4aoxu9ExdTSijLohD"], "asm": "OP_HASH160 18278cf67e12f6b46970fa741a63a512a8a38c7c OP_EQUAL", "type": "scripthash"}, "value": 0.45787917, "n": 98}, {"scriptPubKey": {"reqSigs": 1, "hex": "76a914bb9bed05166701deb2ca8e5f9124b9c45dba768988ac", "addresses": ["1J6z9nsa4JXY6XRpXd93Dnjax48PL9nC7X"], "asm": "OP_DUP OP_HASH160 bb9bed05166701deb2ca8e5f9124b9c45dba7689 OP_EQUALVERIFY OP_CHECKSIG", "type": "pubkeyhash"}, "value": 0.26274665, "n": 99}, {"scriptPubKey": {"reqSigs": 1, "hex": "76a914f5d2c17c2ace78f516c9b79c653688e74d6967de88ac", "addresses": ["1PQo2ZxV72iR19JwUXJ534muX8ApKeEXbF"], "asm": "OP_DUP OP_HASH160 f5d2c17c2ace78f516c9b79c653688e74d6967de OP_EQUALVERIFY OP_CHECKSIG", "type": "pubkeyhash"}, "value": 0.79616032, "n": 100}], "hex": "0200000001eee198b46ffd39038c9d1128becaced9b4360ab48a1b0a918ac58b0eb8ecf2650e0000006a47304402202e0a02e49bb9caa0600baa751298343f2e50950175d0245cd39270e0427da04f02203f413fa28c1c688b95d6f340a13f446bf0684b6d326bc394553bc95af7659aa40121026ce2c73abce664b785f36a188af6033ba3b1efee34fbdd01eec97d6171cd6972feffffff65d9d4b201000000001976a9146bad976eeb187da942ab2a892fe879ec40800c4088ac6fee3403000000001976a9147cab82558fdfa9e5b1abf9af49899520d909e41588ac3072b70b000000001976a914fa4632ffc7cc9df92a1423cdc3863ca129a5199988ac540b46030000000017a914c9367137a14ca35566e917b714c8a9ef655c7903873c465501000000001976a91488087e49b0e8ce16d79a46564b2642d9e58230f188acb4f671010000000017a914da70a45aad8d7ed346a2073cd939fc4752e0c23e87e4b59701000000001976a9149b496088d6202f297fe8a853bbba4fc07b445e7a88ac531ae0020000000017a91475998fc4100d74baf088800b15e0bbb1699833a887969416080000000017a914d0d5f77c66f2f005bba1a746c36fad89412998858719e66901000000001976a914ca197e3c7f36395ab89ba21c43c1d2f751e56a0588acfde56d02000000001976a9141e005a3a84bf8cb3529b2f83696959aa2bd98b1988ac1fb426030000000017a91495a105e34b7b86a7cac4745adb5c0cc3ffa28230873ab3fe01000000001976a91485ea220a75f537ef4e7362830957799743e1f64388ac94ad4c01000000001976a914ef4b742338212bfe8a097a6371f356c4653a160d88ac3be21c05000000001976a914a80ad520e5b7c9e4bcd8d4d2112a3cae9917ed3f88ac1f760f04000000001976a9140dfaab61fac7ea11928b91d0c0774394e0aae35c88ac9f8f6f01000000001976a91439685185761cd4461b95ae1b2c236c99adb8beee88acdd3d06040000000017a9146beac3c2d28d7aa85d7373218966b6cbd039090787c7c28409000000001976a9140ba3ec6c9e2c401d50312e1b154c96ea4d313b8388acc80a4a01000000001976a91430d31eee257753c731f0113377489411f206b74688acb5f87302000000001976a91434a7ad19e7c132b5afe8ad57545e39833a9ef22888ac747cff01000000001976a91458f45650526f2df1d81edac35a234ad705b2254788acb0e22f0b000000001976a9148b0eaf5f19f3f907208b22d898104881058e886c88acb9b57001000000001976a914c97c2f28f2c9fd0a536d312345d3aca36880c73988ac2b3f5d04000000001976a9142d129be3abf076a9fa1a6aa0dae5dbc693c9239e88aca20b7709000000001976a91473b83e45dbeafe8002f1e2d586757ac99d94903088ac05b8f308000000001976a9149de748747cbf058e250c31314f78f6601c2064bd88ac33f89601000000001976a9141f37d9ca3f1c2235a8f377a669e1e23f8ee1c25488ac7c348a01000000001976a9144a14dda24efed0ea79d3e1f79cbf436cc3b3856a88ac8ef2d8020000000017a914f6c2012607a42cfb60051d2e4e8e1d3215fc77d38779717b01000000001976a914cc84c285f2576f43080f08b58d15cb574008ae7888acf85e68010000000017a914652be5224eccf3faeeb2b6ca83a3df11d254869a87f9944202000000001976a914859642f85679c98ac210f5aca3abb8af523229d688acfbb98304000000001976a9148162d76a4008e0119f8dbad423e2e9d223f0b2fe88ac76b03c08000000001976a91462f4b6fb1f6ad8e2a6f52f5099a53af08bd5ceb088ac71f60c06000000001976a914645ae38ed21cb0cafaae33d8df01a5ff20bf1ba188ac9f8b7001000000001976a914c24b6fc23d54dfe871722d92c37cbd95e61f708a88ac14f17d08000000001976a914f6821970ed7791b6714cc7ffa61877da1528f71988ac902a9803000000001976a914b04fe58e2122c73e882f83daec2b903675225e2088ac7e156009000000001976a9141b34898a86e81e6e34ac7c3c39223fbcd0c351fb88ac0a157707000000001976a91454f17b2eacf827e5bbe7b6f1943063a1042f66a088acb1b490020000000017a914318bbb600d93a33617c902c5afaa9ce4053e0fd487717061010000000017a914ff5d2d3a66a7f777550ee18c151318a42eea13ce877a3f3307000000001976a9146d9f52641550f765549129d2e87b1c8c9f0accad88ac729c6858040000001976a914c6e925b0113b70ab5daf2544db62c3428c370dd788ac9cd33702000000001976a9143bc134800e75652c6aa661d01ade25793adbdfe088ac038146020000000017a91434293dcd0c279e6d3d476168c20262951ab75c528768167001000000001976a914582d70a9e2d2750c4723fa9675bdbce2dde0904388ac1d91bd64000000001976a9143fdb793f78c514266d9cadb3c5b17f914993d31d88ac3266b810000000001976a914507efac7a99dd6c1eb8f1bf4a60287388cfa47bc88ac17379d020000000017a914897e0075ba8d7b6b4410e8780dead3fdbe7abf1487533037080000000017a9142b786bfdddea362ca7c502db57d7e0748f741b22872f52d55d0000000017a914e85344fb3ca3765f64bd78b54d9f567e6eb2add1873dd4e701000000001976a91463867ce8e59ac5e5eb64622e2d787d06ade6902988aca40576010000000017a9148d8dbc9af65dec9fa7e0ca77c9095cfe967ccaf5871ba36502000000001976a914fe0582066155fcf87ec4ec1e943b2541e09d14d388ac9a0fab040000000017a914886fa50c38e92f8c8711f1161e09281577affc80875517bc09000000001976a9149a99f6ea55746f54b0048aa9680dafec75d8fe1288ac26509401000000001976a914be39a1133e4026021582044d1682011b6157400988accec539040000000017a914459d2bacec4f0160403ac3d27bc1081c5890564487be2f6301000000001976a914bd6edb940e528b0403a8aafdb8a571e2d05009bc88ac2ea18f010000000017a914ee3e7bd1e8c34389f3ab7ee60a6521ae7b127061871fa0c60e000000001976a9144565a8be414c2618c293014af8ecb95308b861fb88ac5f620b090000000017a914673efe16c2210f16982687e5dacc2e055f48e8a28765f10b06000000001976a91465d6768b6e8165055ae5ecc8cf2facfa90191be688acd2c55c010000000017a9144f924ee1cd6c449c057a806c9ae4a97dfe79230787d744bc110000000017a914ecbeaa7422bea87ceb68e811b81581af7c812d3187effe3603000000001976a9145132fdfe2cd88c5893f88c82c82c7d1d4474d22688ac02bf9e02000000001976a914a953e92ce6820d3ec061edfef0b6723707b0d22a88acc0f4a8020000000017a914c46d74774a24b3c2308375570c3986d9c51ad54687817520040000000017a9141921ff58cc745242e1fd2cef3a38278b7f709b1c87b5f40902000000001976a9141740f987a5600f9ab789a763a04e268ce9a5330388ac97a9d201000000001976a914e42ed265af2f7397053c7b0081f2637c743b017988acdb57c005000000001976a9146cb9c356550726a9327345d70fc65c628c6dd95d88ac57515b01000000001976a9147ab6300bb1fbbde52b1ba936881ddcafc84e7a3b88acedea0a02000000001976a914cf60395be2cc31326f43d12ed06ffba72cfb9fd288ac9e70b5020000000017a91437223b278ab373e102cc533445caa1360d0092be872fce2503000000001976a914cba7a4e421123f50d34f29da5c0a5a236bf7438688acc71d81010000000017a914a73d032b0548580dabaabd3d194ccf9f6a97b68387159a54010000000017a91496b2eeb7bf2637c492a38d79f129e89d023593d3877c63d101000000001976a914a717ff15c5e385d2db0d8ba9acaff0ecd2e38d1d88accd008b02000000001976a914720c43e0e59be1a05ec9c06121591159cc7f1eff88ac1e015f02000000001976a914ff3a28399d774171242b683b8ae57a7ed7e2fb9788ac032ed603000000001976a91490150fe290f1f7f8137d5b3ad4e19cffb9ea25fd88ac5c3510060000000017a914479e2868b795d6a2b72f4f367276d5ed4dbf39d687f087c701000000001976a914d70a9581d2ca552c6bff13b8a22e56d67477292a88ac59189701000000001976a914aa0cc26cbb8b8e9b7d082563610f42a48373b97788acd78c5b010000000017a914281472bf7d353048cb43a5534ddb3712076f55358752ae7e02000000001976a914aac64e81f08ce7562bf503be158e5f36c70b5ca388ac04969d0a0000000017a91461f853515aaa78999db5bc0539e9189173ed7ee687a9fea008000000001976a914e4f74195c10c4abda85c98efc6bd3ca094268eee88ac65b7cf01000000001976a914fa0dbfca26dc3c180a7e7ac1fef77ac93df8024588ac34a48101000000001976a91497affcecdde1a0db5499678f7c72c640f199616a88accbdb5c01000000001976a914c6cd26afd49bfaa323636089d93227829822883a88acf6bf1c03000000001976a91471f96fc7069845aed77f39736e82e8e509239cbc88acc0683504000000001976a914d2ca43407f1cc27406c7f98edc270f088877b40b88ac5af3eb02000000001976a9143e30b68a15c69725390dcd1bd793fd73c2910d5b88ac3dc6f7010000000017a9143e8ad4ebf4c692682215440fc01923ae83a2fd7c870dabba020000000017a91418278cf67e12f6b46970fa741a63a512a8a38c7c8769eb9001000000001976a914bb9bed05166701deb2ca8e5f9124b9c45dba768988ac20d8be04000000001976a914f5d2c17c2ace78f516c9b79c653688e74d6967de88acca480800", "vin": [{"sequence": 4294967294, "scriptSig": {"hex": "47304402202e0a02e49bb9caa0600baa751298343f2e50950175d0245cd39270e0427da04f02203f413fa28c1c688b95d6f340a13f446bf0684b6d326bc394553bc95af7659aa40121026ce2c73abce664b785f36a188af6033ba3b1efee34fbdd01eec97d6171cd6972", "asm": "304402202e0a02e49bb9caa0600baa751298343f2e50950175d0245cd39270e0427da04f02203f413fa28c1c688b95d6f340a13f446bf0684b6d326bc394553bc95af7659aa4[ALL] 026ce2c73abce664b785f36a188af6033ba3b1efee34fbdd01eec97d6171cd6972"}, "vout": 14, "txid": "65f2ecb80e8bc58a910a1b8ab40a36b4d9cecabe28119d8c0339fd6fb498e1ee"}], "txid": "14634c25e95d321ddf93dba9930e92094835a2fb34d5a53b120f453624080038", "blocktime": 1537871767, "version": 2, "confirmations": 11495, "time": 1537871767, "locktime": 542922, "vsize": 3529, "size": 3529}