{"hash": "146e619b126c11ea02b5d879111eb2037aafcd2595a54274ff7827a0be21038a", "blockhash": "00000000000000000024a2167bbff67b0be802c0b01cdd79e6331c2be6459f87", "vout": [{"scriptPubKey": {"reqSigs": 1, "hex": "76a914d243e6abb9a60fbff430b421d2df4b7d59ec186088ac", "addresses": ["1LAnF8h3qMGx3TSwNUHVneBZUEpwE4gu3D"], "asm": "OP_DUP OP_HASH160 d243e6abb9a60fbff430b421d2df4b7d59ec1860 OP_EQUALVERIFY OP_CHECKSIG", "type": "pubkeyhash"}, "value": 0.00088992, "n": 0}, {"scriptPubKey": {"reqSigs": 1, "hex": "76a9143851f34d13937b673a7d24a1950bb5b21ce94af388ac", "addresses": ["168o1kqNquEJeR9vosUB5fw4eAwcVAgh8P"], "asm": "OP_DUP OP_HASH160 3851f34d13937b673a7d24a1950bb5b21ce94af3 OP_EQUALVERIFY OP_CHECKSIG", "type": "pubkeyhash"}, "value": 5.46e-06, "n": 1}, {"scriptPubKey": {"type": "nulldata", "hex": "6a146f6d6e69000000000000001f000000131794b400", "asm": "OP_RETURN 6f6d6e69000000000000001f000000131794b400"}, "value": 0.0, "n": 2}], "hex": "0100000002e5f89c99474683d4a25320ce248b61f450561a17eb3b47602b7416ad555a80a8010000006a47304402205a6eae31fb47466e592bfa8282ba63901829aee7aeeaba8ad60d0565002b9f6b02206181f3f5a3dd9d6b19c6014dc901957be0e8581cef0e694431e81007ab9ceb83012102c4afa287734cf46881e0eb4872e287219428072d591917d42244d8771c951152ffffffff860ef1267fedae10574817e00f9fbef8618a67c3a4e527bde65363a5343d1aae010000006b4830450221008f9f23a92cce37c47f47b537367d8caef0bf49947d08ce7b5b3a4442336c5ec902205337e5f45fe44a0a2e0af040d79770592cb2550f23a58a2c2f6b2668a22c42a201210385a6d61270e34837dfa26feb1498b1b0e4beda69a617bec76237cb8924119d6bffffffff03a05b0100000000001976a914d243e6abb9a60fbff430b421d2df4b7d59ec186088ac22020000000000001976a9143851f34d13937b673a7d24a1950bb5b21ce94af388ac0000000000000000166a146f6d6e69000000000000001f000000131794b40000000000", "vin": [{"sequence": 4294967295, "scriptSig": {"hex": "47304402205a6eae31fb47466e592bfa8282ba63901829aee7aeeaba8ad60d0565002b9f6b02206181f3f5a3dd9d6b19c6014dc901957be0e8581cef0e694431e81007ab9ceb83012102c4afa287734cf46881e0eb4872e287219428072d591917d42244d8771c951152", "asm": "304402205a6eae31fb47466e592bfa8282ba63901829aee7aeeaba8ad60d0565002b9f6b02206181f3f5a3dd9d6b19c6014dc901957be0e8581cef0e694431e81007ab9ceb83[ALL] 02c4afa287734cf46881e0eb4872e287219428072d591917d42244d8771c951152"}, "vout": 1, "txid": "a8805a55ad16742b60473beb171a5650f4618b24ce2053a2d4834647999cf8e5"}, {"sequence": 4294967295, "scriptSig": {"hex": "4830450221008f9f23a92cce37c47f47b537367d8caef0bf49947d08ce7b5b3a4442336c5ec902205337e5f45fe44a0a2e0af040d79770592cb2550f23a58a2c2f6b2668a22c42a201210385a6d61270e34837dfa26feb1498b1b0e4beda69a617bec76237cb8924119d6b", "asm": "30450221008f9f23a92cce37c47f47b537367d8caef0bf49947d08ce7b5b3a4442336c5ec902205337e5f45fe44a0a2e0af040d79770592cb2550f23a58a2c2f6b2668a22c42a2[ALL] 0385a6d61270e34837dfa26feb1498b1b0e4beda69a617bec76237cb8924119d6b"}, "vout": 1, "txid": "ae1a3d34a56353e6bd27e5a4c3678a61f8be9f0fe017485710aeed7f26f10e86"}], "txid": "146e619b126c11ea02b5d879111eb2037aafcd2595a54274ff7827a0be21038a", "blocktime": 1537870564, "version": 1, "confirmations": 11515, "time": 1537870564, "locktime": 0, "vsize": 404, "size": 404}