{"hash": "147589b200360d681e3ae6d0e70e94ec2bfcacda6e8876cd43ffec3917525b2c", "blockhash": "00000000000000000024a2167bbff67b0be802c0b01cdd79e6331c2be6459f87", "vout": [{"scriptPubKey": {"reqSigs": 1, "hex": "0014dc80be21086179b7d75275ffc71a41870a712a59", "addresses": ["bc1qmjqtugggv9um046jwhluwxjpsu98z2jeu67yp8"], "asm": "0 dc80be21086179b7d75275ffc71a41870a712a59", "type": "witness_v0_keyhash"}, "value": 0.00021677, "n": 0}, {"scriptPubKey": {"reqSigs": 1, "hex": "76a91444f395bfe89e35b93472a8d93cea7415238d025d88ac", "addresses": ["17HakdChArbb4LiVb7NAXHd4HGD8fTUHco"], "asm": "OP_DUP OP_HASH160 44f395bfe89e35b93472a8d93cea7415238d025d OP_EQUALVERIFY OP_CHECKSIG", "type": "pubkeyhash"}, "value": 0.00467539, "n": 1}], "hex": "01000000015aa40bf0c80458c59c2c54709ee7b0536653fd4ad85cd7d678673a267d444a31000000006a47304402204712b241eb544d419404f4d691072cc6cad19fb84765044712f8dd1f9cb7e55c022006dadca459efd5f760be8512896642cefa80fa4323f96de14cf79bb338f5009d0121030d34a73a502e3e60f00074457f4c62cf6032ce033bf7306b50646f5fe5af17d7ffffffff02ad54000000000000160014dc80be21086179b7d75275ffc71a41870a712a5953220700000000001976a91444f395bfe89e35b93472a8d93cea7415238d025d88ac00000000", "vin": [{"sequence": 4294967295, "scriptSig": {"hex": "47304402204712b241eb544d419404f4d691072cc6cad19fb84765044712f8dd1f9cb7e55c022006dadca459efd5f760be8512896642cefa80fa4323f96de14cf79bb338f5009d0121030d34a73a502e3e60f00074457f4c62cf6032ce033bf7306b50646f5fe5af17d7", "asm": "304402204712b241eb544d419404f4d691072cc6cad19fb84765044712f8dd1f9cb7e55c022006dadca459efd5f760be8512896642cefa80fa4323f96de14cf79bb338f5009d[ALL] 030d34a73a502e3e60f00074457f4c62cf6032ce033bf7306b50646f5fe5af17d7"}, "vout": 0, "txid": "314a447d263a6778d6d75cd84afd536653b0e79e70542c9cc55804c8f00ba45a"}], "txid": "147589b200360d681e3ae6d0e70e94ec2bfcacda6e8876cd43ffec3917525b2c", "blocktime": 1537870564, "version": 1, "confirmations": 11515, "time": 1537870564, "locktime": 0, "vsize": 222, "size": 222}