{"hash": "147ac5003861b2443c89631b3c6859708dc1f709ed15f1de17036f8b37595656", "blockhash": "00000000000000000004ffacab907a6b429b9a5745fa0b75af4234bf69dd7176", "vout": [{"scriptPubKey": {"reqSigs": 1, "hex": "a91451e023cc0b5514bdffb1133baa98810455f0aeb287", "addresses": ["399wAbCyM7sSqnxF8i5NwUoCyVrPnMc8p5"], "asm": "OP_HASH160 51e023cc0b5514bdffb1133baa98810455f0aeb2 OP_EQUAL", "type": "scripthash"}, "value": 0.0027376, "n": 0}, {"scriptPubKey": {"reqSigs": 1, "hex": "76a91459700bd6e43071be8a1f1016a899ddcbbb27007b88ac", "addresses": ["199uNBbYS6U67xLeh57LbLxSfrZ5gt8yys"], "asm": "OP_DUP OP_HASH160 59700bd6e43071be8a1f1016a899ddcbbb27007b OP_EQUALVERIFY OP_CHECKSIG", "type": "pubkeyhash"}, "value": 0.06542737, "n": 1}], "hex": "01000000019ae3707eb89f053f8cbc35ae49f0d54006da5ff6ecda8d03981059ed50c84f1a010000006b483045022100afd128bdb8dd3d7a97ff1686ee120b80b7f91db4898d410c4108d61885c3aa2102203f1a74da7a7b21650bcdd82cb9a37e370d2315e54638c7de23ffe880a6b80d27012102b6382ecb3244cdcedf0b3146035eb2e5ad111e1c0007e956aba362c742a86308ffffffff02602d04000000000017a91451e023cc0b5514bdffb1133baa98810455f0aeb28791d56300000000001976a91459700bd6e43071be8a1f1016a899ddcbbb27007b88ac00000000", "vin": [{"sequence": 4294967295, "scriptSig": {"hex": "483045022100afd128bdb8dd3d7a97ff1686ee120b80b7f91db4898d410c4108d61885c3aa2102203f1a74da7a7b21650bcdd82cb9a37e370d2315e54638c7de23ffe880a6b80d27012102b6382ecb3244cdcedf0b3146035eb2e5ad111e1c0007e956aba362c742a86308", "asm": "3045022100afd128bdb8dd3d7a97ff1686ee120b80b7f91db4898d410c4108d61885c3aa2102203f1a74da7a7b21650bcdd82cb9a37e370d2315e54638c7de23ffe880a6b80d27[ALL] 02b6382ecb3244cdcedf0b3146035eb2e5ad111e1c0007e956aba362c742a86308"}, "vout": 1, "txid": "1a4fc850ed591098038ddaecf65fda0640d5f049ae35bc8c3f059fb87e70e39a"}], "txid": "147ac5003861b2443c89631b3c6859708dc1f709ed15f1de17036f8b37595656", "blocktime": 1537875543, "version": 1, "confirmations": 11464, "time": 1537875543, "locktime": 0, "vsize": 224, "size": 224}