{"hash": "ffbe7989582c0321c8048b32250ffd5037034259d57531bf6d516e42ef928410", "blockhash": "0000000000000000001cda96e906b7601b7a6fb1a3b62bca570a9e5d8f4b3de1", "vout": [{"scriptPubKey": {"reqSigs": 1, "hex": "a9141635edfdd3fa499441c52ae846754bc6145b254b87", "addresses": ["33iTPrxMVyNFCkerj9tBYr11zZZ6dqACkV"], "asm": "OP_HASH160 1635edfdd3fa499441c52ae846754bc6145b254b OP_EQUAL", "type": "scripthash"}, "value": 0.01001329, "n": 0}, {"scriptPubKey": {"reqSigs": 1, "hex": "76a914adc81356832723c826cae7ecc74b59f9d11419f188ac", "addresses": ["1GqsagNWtfmpHDttqXmENw2Xo1EQXT32TZ"], "asm": "OP_DUP OP_HASH160 adc81356832723c826cae7ecc74b59f9d11419f1 OP_EQUALVERIFY OP_CHECKSIG", "type": "pubkeyhash"}, "value": 0.0024646, "n": 1}], "hex": "02000000000102fd8698d0260801289ea1fbdb12418fefcc6beb864281932c026892cc3098d21a23000000171600145fc68ceb62104e6ac0015f6a2bedf55f21fd270cfefffffffe220c802d2397dcf7c62210780273b34489cdc393bf664975dfe8ca8e9d7d5f01000000171600142c782fb03a86b9f9219862d1c45e416655831011feffffff0271470f000000000017a9141635edfdd3fa499441c52ae846754bc6145b254b87bcc20300000000001976a914adc81356832723c826cae7ecc74b59f9d11419f188ac0248304502210080cac30a71bc3e1eeee15666e27ba3809335f4910fc09ba4fe0a13900e8b05d7022056d888237915598ac3076ecda60880f57a0c117be37eedf8994c62132a692c4f0121037e10f51d4fab47d5e126e77faca4335a7430c0607c6c8ddacebe88379ebdd05302483045022100d273dd605adec7247594e61bea348c7a22088641920345dceb5f1f19a91a089a02203da5e9c8bf477a1b152302f12cbb54772c5ebf1a9e6d0adb0f6d5b2d03ffd611012103b2de2a60de3ba52d3925e932ca764822c0bd9cf9d7bf84dab25b2ad5c25b8a0a13490800", "vin": [{"txinwitness": ["304502210080cac30a71bc3e1eeee15666e27ba3809335f4910fc09ba4fe0a13900e8b05d7022056d888237915598ac3076ecda60880f57a0c117be37eedf8994c62132a692c4f01", "037e10f51d4fab47d5e126e77faca4335a7430c0607c6c8ddacebe88379ebdd053"], "sequence": 4294967294, "scriptSig": {"hex": "1600145fc68ceb62104e6ac0015f6a2bedf55f21fd270c", "asm": "00145fc68ceb62104e6ac0015f6a2bedf55f21fd270c"}, "vout": 35, "txid": "1ad29830cc9268022c93814286eb6bccef8f4112dbfba19e28010826d09886fd"}, {"txinwitness": ["3045022100d273dd605adec7247594e61bea348c7a22088641920345dceb5f1f19a91a089a02203da5e9c8bf477a1b152302f12cbb54772c5ebf1a9e6d0adb0f6d5b2d03ffd61101", "03b2de2a60de3ba52d3925e932ca764822c0bd9cf9d7bf84dab25b2ad5c25b8a0a"], "sequence": 4294967294, "scriptSig": {"hex": "1600142c782fb03a86b9f9219862d1c45e416655831011", "asm": "00142c782fb03a86b9f9219862d1c45e416655831011"}, "vout": 1, "txid": "5f7d9d8ecae8df754966bf93c3cd8944b37302781022c6f7dc97232d800c22fe"}], "txid": "148225a1e8554ac7a47d0e3801b8760f565c947c769eb3d4babe9eec3c2e5a57", "blocktime": 1537873282, "version": 2, "confirmations": 11484, "time": 1537873282, "locktime": 542995, "vsize": 259, "size": 422}