{"hash": "1483bee2498293002f061306f1a2eba45f6349eb3a5a9d28dbfe8c17868ee5cb", "blockhash": "0000000000000000001cda96e906b7601b7a6fb1a3b62bca570a9e5d8f4b3de1", "vout": [{"scriptPubKey": {"reqSigs": 1, "hex": "a9146551d69f1567a794e4fc4e11a71b7a36ec469f2a87", "addresses": ["3AvkD9XpA8EPumA4s6TfwNvme9ZQ9gBri1"], "asm": "OP_HASH160 6551d69f1567a794e4fc4e11a71b7a36ec469f2a OP_EQUAL", "type": "scripthash"}, "value": 0.00100483, "n": 0}], "hex": "010000000298afec56ad627a54b42181c5ec771178967bfd1bfadd182d52581a0dd6628778000000006b4830450221009401e264cd2bdb9b2e1a6121559ddcb207e93b8b02de9bd82f966b1c358d306f02203029797e9e496c947ba4e520c4e20968539d55f34b987d850c7b199f43e344d3012102e7424e0aa25aa37f24d241abf4d9f3f622cfac67c1a97a339a0f0cb0e4a5a892fffffffffc6b12606dd7f497371b4b01d0adb12f82a465c7a75234070736cd3f9e2c45bf000000006b483045022100c5c8e6754bbfb4b995dd7470d9e05e5386a8576219c617791a715495958915800220734f2b003ff52fa8a38a9923d9cb3f73df41a4a012d8baaa6b9e93d1947b2f86012102272dc92523cb3f211fabfc2c8153dbea1d707feda9af2a575332053f6d30354cffffffff01838801000000000017a9146551d69f1567a794e4fc4e11a71b7a36ec469f2a8700000000", "vin": [{"sequence": 4294967295, "scriptSig": {"hex": "4830450221009401e264cd2bdb9b2e1a6121559ddcb207e93b8b02de9bd82f966b1c358d306f02203029797e9e496c947ba4e520c4e20968539d55f34b987d850c7b199f43e344d3012102e7424e0aa25aa37f24d241abf4d9f3f622cfac67c1a97a339a0f0cb0e4a5a892", "asm": "30450221009401e264cd2bdb9b2e1a6121559ddcb207e93b8b02de9bd82f966b1c358d306f02203029797e9e496c947ba4e520c4e20968539d55f34b987d850c7b199f43e344d3[ALL] 02e7424e0aa25aa37f24d241abf4d9f3f622cfac67c1a97a339a0f0cb0e4a5a892"}, "vout": 0, "txid": "788762d60d1a58522d18ddfa1bfd7b96781177ecc58121b4547a62ad56ecaf98"}, {"sequence": 4294967295, "scriptSig": {"hex": "483045022100c5c8e6754bbfb4b995dd7470d9e05e5386a8576219c617791a715495958915800220734f2b003ff52fa8a38a9923d9cb3f73df41a4a012d8baaa6b9e93d1947b2f86012102272dc92523cb3f211fabfc2c8153dbea1d707feda9af2a575332053f6d30354c", "asm": "3045022100c5c8e6754bbfb4b995dd7470d9e05e5386a8576219c617791a715495958915800220734f2b003ff52fa8a38a9923d9cb3f73df41a4a012d8baaa6b9e93d1947b2f86[ALL] 02272dc92523cb3f211fabfc2c8153dbea1d707feda9af2a575332053f6d30354c"}, "vout": 0, "txid": "bf452c9e3fcd3607073452a7c765a4822fb1add0014b1b3797f4d76d60126bfc"}], "txid": "1483bee2498293002f061306f1a2eba45f6349eb3a5a9d28dbfe8c17868ee5cb", "blocktime": 1537873282, "version": 1, "confirmations": 11481, "time": 1537873282, "locktime": 0, "vsize": 338, "size": 338}