{"hash": "05f287809fc28772172e4345b163f65165c5b948867d98c70bf969c334b3b436", "blockhash": "0000000000000000001cda96e906b7601b7a6fb1a3b62bca570a9e5d8f4b3de1", "vout": [{"scriptPubKey": {"reqSigs": 1, "hex": "a914045fabd71f9220a853c6b3ab5595c49148ee91c187", "addresses": ["3269EfbBUWabeEDFP3ff5VG38bS1AkA6W9"], "asm": "OP_HASH160 045fabd71f9220a853c6b3ab5595c49148ee91c1 OP_EQUAL", "type": "scripthash"}, "value": 0.10146017, "n": 0}, {"scriptPubKey": {"reqSigs": 1, "hex": "a914e075e6c8565c5fa8e0a8768c2aa4a8c0573dec1487", "addresses": ["3N9rXTEs37oZuk3zVG1gvMagGrbkPSorPL"], "asm": "OP_HASH160 e075e6c8565c5fa8e0a8768c2aa4a8c0573dec14 OP_EQUAL", "type": "scripthash"}, "value": 0.00759204, "n": 1}], "hex": "0200000000010524ac9b392ccba50bf487a7ee4fb4952f9ecf4f54d102850e2d39fdd3839ad6ff0100000017160014f1965ab229bb2cb06cebe6251b487f0082f72127feffffff33234a24c435e76272a6abd9fe146fe53fb4726e1b7eea0cbbc817467785eb6f0100000017160014f8ebd755794049865523e83c9c4462eb2c3f06b0feffffff3d3e42b904bffacb8a23e1f91087e4999cb6286b8beea66d99440660ab14c6260000000017160014299dc9cbd6664befca18f503b89ad5efb6ed014dfeffffffdced91ca7c0eb73633316ce44468be5204c945ec6bcc39edaa13821f9758feb80000000017160014af7083c346da4e705ff2efce35e1e7019fb27f0bfefffffffe9b3354143c06f77b7139550a8e7ec9285c8b33f72f156ae25d9576c648e430000000001716001446148f54b730ce6d570f134b2c07a5f7cb7201defeffffff02e1d09a000000000017a914045fabd71f9220a853c6b3ab5595c49148ee91c187a4950b000000000017a914e075e6c8565c5fa8e0a8768c2aa4a8c0573dec1487024730440220462bd7793219a30b4b799f7188968d9b292cd5494adcc003132a6e086346a55c02201cc6153b38e29ac49b07c62e42b96a4b350beccc98a3672e1d2978ac920354f4012102b33089bc0ce13e23854ce866e450f201acae4297acbc2e35506c5897a1b39f10024730440220472c8c8261736572cf429428f8e9d52398ef25dbf335de549a14174e664984a802202055a5fe7a6cf9bde87f91ae660ebcdfd4e7985cc5ff600c33cbc1e5e8d08508012103f00604c87542eb909fc2a601536cdd9bf0113c634daac7c42bfc37136460deb802483045022100e7ec037c795b4f26c738ad2b05236283ecab0e1a8ae5c20265c8afd152f7bcff0220762b66bf524d82843e04de3df2046b33b763bb51a31d3ced76756f9627873c5101210295f8253a43bcf0f934d39808557f4bee277dc0b9a4e808acf039edb9900a9c8b02483045022100ccf92b470f38e4d6c7035229482e3b7d6883b643cb7663a59f5f9e2ed9672dcb0220553382a47a09a84053d56adff5834a0413783d915450d42fa888b6747ecefa9301210228c73d097965a04505e2fad91eeaf1acc52836386167dd3ed60c0eaf548c811002483045022100dc3ab0df354730f26004ba67adb93cf91e833415720fd6c413f2859bed91c65802200c2922090732a0df706a0ddd29261f8132e72b2b3b02543b2d0b3a868a4b42bb01210354802abde33e08220ad74d208106e7c8dacdd6f67af6f69867406e3af1635f5813490800", "vin": [{"txinwitness": ["30440220462bd7793219a30b4b799f7188968d9b292cd5494adcc003132a6e086346a55c02201cc6153b38e29ac49b07c62e42b96a4b350beccc98a3672e1d2978ac920354f401", "02b33089bc0ce13e23854ce866e450f201acae4297acbc2e35506c5897a1b39f10"], "sequence": 4294967294, "scriptSig": {"hex": "160014f1965ab229bb2cb06cebe6251b487f0082f72127", "asm": "0014f1965ab229bb2cb06cebe6251b487f0082f72127"}, "vout": 1, "txid": "ffd69a83d3fd392d0e8502d1544fcf9e2f95b44feea787f40ba5cb2c399bac24"}, {"txinwitness": ["30440220472c8c8261736572cf429428f8e9d52398ef25dbf335de549a14174e664984a802202055a5fe7a6cf9bde87f91ae660ebcdfd4e7985cc5ff600c33cbc1e5e8d0850801", "03f00604c87542eb909fc2a601536cdd9bf0113c634daac7c42bfc37136460deb8"], "sequence": 4294967294, "scriptSig": {"hex": "160014f8ebd755794049865523e83c9c4462eb2c3f06b0", "asm": "0014f8ebd755794049865523e83c9c4462eb2c3f06b0"}, "vout": 1, "txid": "6feb85774617c8bb0cea7e1b6e72b43fe56f14fed9aba67262e735c4244a2333"}, {"txinwitness": ["3045022100e7ec037c795b4f26c738ad2b05236283ecab0e1a8ae5c20265c8afd152f7bcff0220762b66bf524d82843e04de3df2046b33b763bb51a31d3ced76756f9627873c5101", "0295f8253a43bcf0f934d39808557f4bee277dc0b9a4e808acf039edb9900a9c8b"], "sequence": 4294967294, "scriptSig": {"hex": "160014299dc9cbd6664befca18f503b89ad5efb6ed014d", "asm": "0014299dc9cbd6664befca18f503b89ad5efb6ed014d"}, "vout": 0, "txid": "26c614ab600644996da6ee8b6b28b69c99e48710f9e1238acbfabf04b9423e3d"}, {"txinwitness": ["3045022100ccf92b470f38e4d6c7035229482e3b7d6883b643cb7663a59f5f9e2ed9672dcb0220553382a47a09a84053d56adff5834a0413783d915450d42fa888b6747ecefa9301", "0228c73d097965a04505e2fad91eeaf1acc52836386167dd3ed60c0eaf548c8110"], "sequence": 4294967294, "scriptSig": {"hex": "160014af7083c346da4e705ff2efce35e1e7019fb27f0b", "asm": "0014af7083c346da4e705ff2efce35e1e7019fb27f0b"}, "vout": 0, "txid": "b8fe58971f8213aaed39cc6bec45c90452be6844e46c313336b70e7cca91eddc"}, {"txinwitness": ["3045022100dc3ab0df354730f26004ba67adb93cf91e833415720fd6c413f2859bed91c65802200c2922090732a0df706a0ddd29261f8132e72b2b3b02543b2d0b3a868a4b42bb01", "0354802abde33e08220ad74d208106e7c8dacdd6f67af6f69867406e3af1635f58"], "sequence": 4294967294, "scriptSig": {"hex": "16001446148f54b730ce6d570f134b2c07a5f7cb7201de", "asm": "001446148f54b730ce6d570f134b2c07a5f7cb7201de"}, "vout": 0, "txid": "30e448c676955de26a152ff7338b5c28c97e8e0a5539717bf7063c1454339bfe"}], "txid": "1483ff321eaf78a160aeb3a740a0453057fbd679903713c1e4cb06fb6db13eeb", "blocktime": 1537873282, "version": 2, "confirmations": 11480, "time": 1537873282, "locktime": 542995, "vsize": 529, "size": 934}