{"hash": "1486d8d6c35263c081c38dd931639121344c376d714c10fa624307a280484e91", "blockhash": "0000000000000000001cda96e906b7601b7a6fb1a3b62bca570a9e5d8f4b3de1", "vout": [{"scriptPubKey": {"reqSigs": 1, "hex": "76a914292110cfdb2e303f201ddd7fd2739c014c8a312d88ac", "addresses": ["14kUKJskQgPMjk1EB8HfzBDKbF61k1mDZR"], "asm": "OP_DUP OP_HASH160 292110cfdb2e303f201ddd7fd2739c014c8a312d OP_EQUALVERIFY OP_CHECKSIG", "type": "pubkeyhash"}, "value": 0.004115, "n": 0}, {"scriptPubKey": {"reqSigs": 1, "hex": "76a914cc3412b05c7f86543f3b322c469765961b28038788ac", "addresses": ["1KcjEEHmYFai2KZvfkWw5Am5Ym3LzLLgY6"], "asm": "OP_DUP OP_HASH160 cc3412b05c7f86543f3b322c469765961b280387 OP_EQUALVERIFY OP_CHECKSIG", "type": "pubkeyhash"}, "value": 0.00485884, "n": 1}], "hex": "0100000001060e793950fd04ef76f271cdcc24a94d56fb2ebf6e88ad0625f2a6d21e08f2a7010000006a473044022044f62f96372f78bdc97db6241be02b9d822e79ee2fbc31da97422747aa8a9ab3022002c3030cb2774ee65361110d72c7ae90d9bc2cfdc52718f61e1a07f29b8358620121020a2764887811f8d9310a6eba1964e2a86acddf73ce4d8b830c0a8098fe56c5c0ffffffff026c470600000000001976a914292110cfdb2e303f201ddd7fd2739c014c8a312d88acfc690700000000001976a914cc3412b05c7f86543f3b322c469765961b28038788ac00000000", "vin": [{"sequence": 4294967295, "scriptSig": {"hex": "473044022044f62f96372f78bdc97db6241be02b9d822e79ee2fbc31da97422747aa8a9ab3022002c3030cb2774ee65361110d72c7ae90d9bc2cfdc52718f61e1a07f29b8358620121020a2764887811f8d9310a6eba1964e2a86acddf73ce4d8b830c0a8098fe56c5c0", "asm": "3044022044f62f96372f78bdc97db6241be02b9d822e79ee2fbc31da97422747aa8a9ab3022002c3030cb2774ee65361110d72c7ae90d9bc2cfdc52718f61e1a07f29b835862[ALL] 020a2764887811f8d9310a6eba1964e2a86acddf73ce4d8b830c0a8098fe56c5c0"}, "vout": 1, "txid": "a7f2081ed2a6f22506ad886ebf2efb564da924cccd71f276ef04fd5039790e06"}], "txid": "1486d8d6c35263c081c38dd931639121344c376d714c10fa624307a280484e91", "blocktime": 1537873282, "version": 1, "confirmations": 11484, "time": 1537873282, "locktime": 0, "vsize": 225, "size": 225}