{"hash": "1491bc6361d48af8c3a1ef0ed863bfecf1f8ff730a2c7b8007f33fecc21ef6ff", "blockhash": "0000000000000000000dcc0f55137456b1a82d3642486a52398922ac4d620174", "vout": [{"scriptPubKey": {"reqSigs": 1, "hex": "76a91499d7f7cab99d37d27150429d04363166c901e1cb88ac", "addresses": ["1F2T74nyZyo1NZpjeieD16nquf1SMeoKgn"], "asm": "OP_DUP OP_HASH160 99d7f7cab99d37d27150429d04363166c901e1cb OP_EQUALVERIFY OP_CHECKSIG", "type": "pubkeyhash"}, "value": 0.0042703, "n": 0}, {"scriptPubKey": {"reqSigs": 1, "hex": "76a91417e15dd09c205d6ec3439613636d3c785ad0088f88ac", "addresses": ["13BGX9cm4ZcCtRJrzcnZCqZcy5tg9qv6rw"], "asm": "OP_DUP OP_HASH160 17e15dd09c205d6ec3439613636d3c785ad0088f OP_EQUALVERIFY OP_CHECKSIG", "type": "pubkeyhash"}, "value": 0.00643443, "n": 1}], "hex": "01000000024b7bf21e13145ca53db4379dc79229703f9efd18478df0499e9dd36856b2f56b000000006b483045022100ffce67b0b239111069c7a3892d3b0d5310154ded6550e5aea49cfcf0d37be847022033224878c260424608a153056495d5b78e069ac5d1dcd3d41dc4a0ef07a7e01f012103277896dc03f9cb20944f873a17e405340e59c9f7ec1c7a5feee6bb73afff71cfffffffff4260b9b44c84ec1357c4e63de2a1a39b3a929ff9cd2e467ce100f3da01ceafef000000006a47304402206d1cb59dc74d3782307f145c79df94373d23c6e7bd6c3eaa3a3a59d972097bb802203c7c7b29a634952dbe0db1004135025353c42a6417f9b1df0a4a9c08f4d3e7ec01210340a61005296e3b192200cca0c7cea958f4f453bb3e82e373d416aa78e43c9f60ffffffff0216840600000000001976a91499d7f7cab99d37d27150429d04363166c901e1cb88ac73d10900000000001976a91417e15dd09c205d6ec3439613636d3c785ad0088f88ac00000000", "vin": [{"sequence": 4294967295, "scriptSig": {"hex": "483045022100ffce67b0b239111069c7a3892d3b0d5310154ded6550e5aea49cfcf0d37be847022033224878c260424608a153056495d5b78e069ac5d1dcd3d41dc4a0ef07a7e01f012103277896dc03f9cb20944f873a17e405340e59c9f7ec1c7a5feee6bb73afff71cf", "asm": "3045022100ffce67b0b239111069c7a3892d3b0d5310154ded6550e5aea49cfcf0d37be847022033224878c260424608a153056495d5b78e069ac5d1dcd3d41dc4a0ef07a7e01f[ALL] 03277896dc03f9cb20944f873a17e405340e59c9f7ec1c7a5feee6bb73afff71cf"}, "vout": 0, "txid": "6bf5b25668d39d9e49f08d4718fd9e3f702992c79d37b43da55c14131ef27b4b"}, {"sequence": 4294967295, "scriptSig": {"hex": "47304402206d1cb59dc74d3782307f145c79df94373d23c6e7bd6c3eaa3a3a59d972097bb802203c7c7b29a634952dbe0db1004135025353c42a6417f9b1df0a4a9c08f4d3e7ec01210340a61005296e3b192200cca0c7cea958f4f453bb3e82e373d416aa78e43c9f60", "asm": "304402206d1cb59dc74d3782307f145c79df94373d23c6e7bd6c3eaa3a3a59d972097bb802203c7c7b29a634952dbe0db1004135025353c42a6417f9b1df0a4a9c08f4d3e7ec[ALL] 0340a61005296e3b192200cca0c7cea958f4f453bb3e82e373d416aa78e43c9f60"}, "vout": 0, "txid": "efafce01daf300e17c462ecdf99f923a9ba3a1e23de6c45713ec844cb4b96042"}], "txid": "1491bc6361d48af8c3a1ef0ed863bfecf1f8ff730a2c7b8007f33fecc21ef6ff", "blocktime": 1537870268, "version": 1, "confirmations": 11518, "time": 1537870268, "locktime": 0, "vsize": 373, "size": 373}