{"hash": "d38956a63d97abffe5282b0240c15a60639912703499a3b896521929d4ccee0f", "blockhash": "0000000000000000000dcc0f55137456b1a82d3642486a52398922ac4d620174", "vout": [{"scriptPubKey": {"reqSigs": 1, "hex": "76a91428257641d50a213f2249db3f1413ae22230029c188ac", "addresses": ["14fGuaKtVnXFdLohXbf2wYPKByvKWA81Xc"], "asm": "OP_DUP OP_HASH160 28257641d50a213f2249db3f1413ae22230029c1 OP_EQUALVERIFY OP_CHECKSIG", "type": "pubkeyhash"}, "value": 0.03507856, "n": 0}, {"scriptPubKey": {"reqSigs": 1, "hex": "a914627aa52932456d89054bd84f86246af3b71b93a887", "addresses": ["3Afj4stdiLG9EktGrMbm252ySonnhYaz8v"], "asm": "OP_HASH160 627aa52932456d89054bd84f86246af3b71b93a8 OP_EQUAL", "type": "scripthash"}, "value": 0.67169152, "n": 1}], "hex": "01000000000101aaf227e40b0ddbe2cc8cfd49d386adc91146130b46e3be4a0670d688380e041801000000232200205fdd641234b13964b223bd85ad2a4a667ca2099df3d42a1d3b45706a8d81abf0ffffffff0290863500000000001976a91428257641d50a213f2249db3f1413ae22230029c188ac80eb00040000000017a914627aa52932456d89054bd84f86246af3b71b93a8870400483045022100e2586c7f0192357b96110a212c42f2c8f1c6651e7013596e1b8ae1fea14346ec02207d2047a383bbc7edd91dd8a0e6af5c8dfdc9b65c6a1a825c771b0415bfbd6b3d014730440220741141f374ca4d128036e1cfff217a6df1ba89cd0407427b2ddb42a6bdfb6d45022013fd1d4cbe017c7930d9b50c25ba2c0fe2c4391bc4b76f5cb3eed964a729d50b0147522103dcde3832fa56def7b4e783faad1b8af85c3cdd74a5ff4f3c7c216b1075c18da12103c70ae8ded79be1afda73b9ce5ea14a3878908ee160d66a9a717e792bb6db276952ae00000000", "vin": [{"txinwitness": ["", "3045022100e2586c7f0192357b96110a212c42f2c8f1c6651e7013596e1b8ae1fea14346ec02207d2047a383bbc7edd91dd8a0e6af5c8dfdc9b65c6a1a825c771b0415bfbd6b3d01", "30440220741141f374ca4d128036e1cfff217a6df1ba89cd0407427b2ddb42a6bdfb6d45022013fd1d4cbe017c7930d9b50c25ba2c0fe2c4391bc4b76f5cb3eed964a729d50b01", "522103dcde3832fa56def7b4e783faad1b8af85c3cdd74a5ff4f3c7c216b1075c18da12103c70ae8ded79be1afda73b9ce5ea14a3878908ee160d66a9a717e792bb6db276952ae"], "sequence": 4294967295, "scriptSig": {"hex": "2200205fdd641234b13964b223bd85ad2a4a667ca2099df3d42a1d3b45706a8d81abf0", "asm": "00205fdd641234b13964b223bd85ad2a4a667ca2099df3d42a1d3b45706a8d81abf0"}, "vout": 1, "txid": "18040e3888d670064abee3460b134611c9ad86d349fd8ccce2db0d0be427f2aa"}], "txid": "149906bf4f25803d01892b33c491101b922a9a4838b4a54bf4f6fdd7832bca20", "blocktime": 1537870268, "version": 1, "confirmations": 11518, "time": 1537870268, "locktime": 0, "vsize": 208, "size": 373}