{"hash": "f42c58f84fd4ead396445a3c2233a174549aced1573f99b2bc2427418ff0e14e", "blockhash": "00000000000000000004ffacab907a6b429b9a5745fa0b75af4234bf69dd7176", "vout": [{"scriptPubKey": {"reqSigs": 1, "hex": "76a9140274b2b808be914b52adb577c1cbe71ff4c3ff2188ac", "addresses": ["1Dz9iFamTNWDiMtfDnyYoGCMrwUD6EPFa"], "asm": "OP_DUP OP_HASH160 0274b2b808be914b52adb577c1cbe71ff4c3ff21 OP_EQUALVERIFY OP_CHECKSIG", "type": "pubkeyhash"}, "value": 0.003135, "n": 0}, {"scriptPubKey": {"reqSigs": 1, "hex": "a9147e395165e6e98a4714b0a423b768b82c1c4248ed87", "addresses": ["3DCRjEeeXet2DaYEPvcj7WSJ9M9bgziC8E"], "asm": "OP_HASH160 7e395165e6e98a4714b0a423b768b82c1c4248ed OP_EQUAL", "type": "scripthash"}, "value": 0.00158551, "n": 1}, {"scriptPubKey": {"reqSigs": 1, "hex": "a9141988a27e3c2df4ddee7fad5a2303d086179b2a3087", "addresses": ["3422VtS7UtCvXYxoXMVp6eZupR252z85oC"], "asm": "OP_HASH160 1988a27e3c2df4ddee7fad5a2303d086179b2a30 OP_EQUAL", "type": "scripthash"}, "value": 2.88392989, "n": 2}], "hex": "01000000000101c5af78c945020649f216d5b2a8cf8224b40d82d5cc800d252b8283c1b48a0f55010000002322002065d416c48a8072e0ac51c2d111eb194f009caef0332446c1bf2097316cf07fa9ffffffff039cc80400000000001976a9140274b2b808be914b52adb577c1cbe71ff4c3ff2188ac576b02000000000017a9147e395165e6e98a4714b0a423b768b82c1c4248ed871d8730110000000017a9141988a27e3c2df4ddee7fad5a2303d086179b2a30870400473044022016d53f37abdfd0362d75df291ad9b0b8a37214450da9bb8fd750eca053a06ba1022063c465b39a0d6aeaf2da0db78cf6106add51afedf0de55e4a79158c366efd0540147304402201f27e75b30211c1c394e4b1b1fccf29c188ca38e9ca9bef93ce156153c8b6d8402204dfe39dbfbbc767a41013ba97c0cbed11cbc8ac4a3f0803268025203392218e10169522102f44abcf9e23c9a460da309ccca56c619c04eed3bde2c2cff5e7d78fbcd980b9c2103c9443cf3047bb6c2c82f1b0c44c36109cdc3d0d601d16d1189a1602bf8d1a0a02103bfe867059274412412e088af5572b92168c2ef495cfe6c9b7a753a009eb37c4853ae00000000", "vin": [{"txinwitness": ["", "3044022016d53f37abdfd0362d75df291ad9b0b8a37214450da9bb8fd750eca053a06ba1022063c465b39a0d6aeaf2da0db78cf6106add51afedf0de55e4a79158c366efd05401", "304402201f27e75b30211c1c394e4b1b1fccf29c188ca38e9ca9bef93ce156153c8b6d8402204dfe39dbfbbc767a41013ba97c0cbed11cbc8ac4a3f0803268025203392218e101", "522102f44abcf9e23c9a460da309ccca56c619c04eed3bde2c2cff5e7d78fbcd980b9c2103c9443cf3047bb6c2c82f1b0c44c36109cdc3d0d601d16d1189a1602bf8d1a0a02103bfe867059274412412e088af5572b92168c2ef495cfe6c9b7a753a009eb37c4853ae"], "sequence": 4294967295, "scriptSig": {"hex": "22002065d416c48a8072e0ac51c2d111eb194f009caef0332446c1bf2097316cf07fa9", "asm": "002065d416c48a8072e0ac51c2d111eb194f009caef0332446c1bf2097316cf07fa9"}, "vout": 1, "txid": "550f8ab4c183822b250d80ccd5820db42482cfa8b2d516f249060245c978afc5"}], "txid": "1499970dbe5ed4b0851ee0f2f5ee4d3ae7b9e3064b2fcd156694735ba63b93f9", "blocktime": 1537875543, "version": 1, "confirmations": 11464, "time": 1537875543, "locktime": 0, "vsize": 248, "size": 438}