{"hash": "f43cef9b15efc7a506fa83ac3b1163be01048722a333018a0bd9e80f6d0b2537", "blockhash": "000000000000000000022b45ed06c6f4ccd3cf7fb5ba4856ebd2e58215665228", "vout": [{"scriptPubKey": {"reqSigs": 1, "hex": "0014edf706cd5e6adb0c2003f6ec405a53035d110c2d", "addresses": ["bc1qahmsdn27dtdscgqr7mkyqkjnqdw3zrpdu7dtfv"], "asm": "0 edf706cd5e6adb0c2003f6ec405a53035d110c2d", "type": "witness_v0_keyhash"}, "value": 0.00083113, "n": 0}, {"scriptPubKey": {"reqSigs": 1, "hex": "a914e88ff4728fd7053d0cf386d641cd31453222d9a287", "addresses": ["3Nth9D37hYPnzSjBEJTUXPVxW2KTQdyjFD"], "asm": "OP_HASH160 e88ff4728fd7053d0cf386d641cd31453222d9a2 OP_EQUAL", "type": "scripthash"}, "value": 0.03716272, "n": 1}], "hex": "010000000001015aab0adef682994219d5badf3249bffb314231bf2c9c3f310eea6badf3a4add900000000232200204995a4c8654ce71ef15cfeeffffdcb7c280f3d8948a57289ee71e64403a6a1a6ffffffff02a944010000000000160014edf706cd5e6adb0c2003f6ec405a53035d110c2db0b438000000000017a914e88ff4728fd7053d0cf386d641cd31453222d9a287040047304402201e1b2ff04cc9e4adb2a05555036321830ad462b4222d7e8a6520ae697c6b3a9c02204601243f0899109c95e6e703d8ed18a9ad3f06e887bee2690f2e3fc5c6331c540147304402202974e2133593f3d29aabfb19cb4555b2cc270ce45313245fad652f5b3e4a886502203b95d30c1594a63375a25fe10ba5e0af8d79e2b14b533ed199abe9f3eb78c0280147522103fbe9855c9bd1f254f54b8c5930559257f6fdbd99f9ba22bfd4f0e0a93913e78a2103871fc2ca08e6950b38867e8e6a0e94ee625223d3aa0df5c65f414c6d784467e252ae00000000", "vin": [{"txinwitness": ["", "304402201e1b2ff04cc9e4adb2a05555036321830ad462b4222d7e8a6520ae697c6b3a9c02204601243f0899109c95e6e703d8ed18a9ad3f06e887bee2690f2e3fc5c6331c5401", "304402202974e2133593f3d29aabfb19cb4555b2cc270ce45313245fad652f5b3e4a886502203b95d30c1594a63375a25fe10ba5e0af8d79e2b14b533ed199abe9f3eb78c02801", "522103fbe9855c9bd1f254f54b8c5930559257f6fdbd99f9ba22bfd4f0e0a93913e78a2103871fc2ca08e6950b38867e8e6a0e94ee625223d3aa0df5c65f414c6d784467e252ae"], "sequence": 4294967295, "scriptSig": {"hex": "2200204995a4c8654ce71ef15cfeeffffdcb7c280f3d8948a57289ee71e64403a6a1a6", "asm": "00204995a4c8654ce71ef15cfeeffffdcb7c280f3d8948a57289ee71e64403a6a1a6"}, "vout": 0, "txid": "d9ada4f3ad6bea0e313f9c2cbf314231fbbf4932dfbad519429982f6de0aab5a"}], "txid": "149af6d41546a869cacbbb1363bc219131ef6bf6f5bdb97a0c2a645127221530", "blocktime": 1537869901, "version": 1, "confirmations": 11523, "time": 1537869901, "locktime": 0, "vsize": 204, "size": 369}