{"hash": "14a14844e941ac1b4f79445f773999de9da12259bd2a4d193cea2c886bf82886", "blockhash": "00000000000000000017f5eb5941039fbcee6240d03bc1f2f8e35350df66a1d8", "vout": [{"scriptPubKey": {"reqSigs": 1, "hex": "76a91479f638878e898187b280ebe6013821f7e7d8ee1f88ac", "addresses": ["1C7siwAX4z2o3Ca1LZ82Zp8XkHJZMnFA3A"], "asm": "OP_DUP OP_HASH160 79f638878e898187b280ebe6013821f7e7d8ee1f OP_EQUALVERIFY OP_CHECKSIG", "type": "pubkeyhash"}, "value": 0.00486045, "n": 0}, {"scriptPubKey": {"type": "nulldata", "hex": "6a146f6d6e69000000000000001f0000015d3ef79800", "asm": "OP_RETURN 6f6d6e69000000000000001f0000015d3ef79800"}, "value": 0.0, "n": 1}, {"scriptPubKey": {"reqSigs": 1, "hex": "76a914a25dec4d0011064ef106a983c39c7a540699f22088ac", "addresses": ["1FoWyxwPXuj4C6abqwhjDWdz6D4PZgYRjA"], "asm": "OP_DUP OP_HASH160 a25dec4d0011064ef106a983c39c7a540699f220 OP_EQUALVERIFY OP_CHECKSIG", "type": "pubkeyhash"}, "value": 5.46e-06, "n": 2}], "hex": "01000000012601fed784651c87911862f9c1d4f5285a9b6e6e1fce9a321e0f2ed55205e989000000006b483045022100b1689ba4ea2ca6ed23216d4a4223c284f8121d24170a687cd3144e157489217402203d4b55b92d20366638bd80fde6997e9126c7fc0d21027693eff4bca60dfa14b4012103605f1a479214d7ce72ba8d120099c97db7fd549599c26b02599b201cb9268d0ffeffffff039d6a0700000000001976a91479f638878e898187b280ebe6013821f7e7d8ee1f88ac0000000000000000166a146f6d6e69000000000000001f0000015d3ef7980022020000000000001976a914a25dec4d0011064ef106a983c39c7a540699f22088ac15490800", "vin": [{"sequence": 4294967294, "scriptSig": {"hex": "483045022100b1689ba4ea2ca6ed23216d4a4223c284f8121d24170a687cd3144e157489217402203d4b55b92d20366638bd80fde6997e9126c7fc0d21027693eff4bca60dfa14b4012103605f1a479214d7ce72ba8d120099c97db7fd549599c26b02599b201cb9268d0f", "asm": "3045022100b1689ba4ea2ca6ed23216d4a4223c284f8121d24170a687cd3144e157489217402203d4b55b92d20366638bd80fde6997e9126c7fc0d21027693eff4bca60dfa14b4[ALL] 03605f1a479214d7ce72ba8d120099c97db7fd549599c26b02599b201cb9268d0f"}, "vout": 0, "txid": "89e90552d52e0f1e329ace1f6e6e9b5a28f5d4c1f9621891871c6584d7fe0126"}], "txid": "14a14844e941ac1b4f79445f773999de9da12259bd2a4d193cea2c886bf82886", "blocktime": 1537874412, "version": 1, "confirmations": 11468, "time": 1537874412, "locktime": 542997, "vsize": 257, "size": 257}