{"hash": "14a77f2b2e221c009a55a44ff8ff220a1b0b4d2f3ea9aad473c4b84c1e5e794b", "blockhash": "00000000000000000018f53835495a110e01622372bf6ae95dc86f2b0ab887b0", "vout": [{"scriptPubKey": {"reqSigs": 1, "hex": "76a914399eaed8e3cd5086b559687f5d023ea708d583f988ac", "addresses": ["16FfcRVTkZ5yAbnjnacGG5oks6ZtRf25MV"], "asm": "OP_DUP OP_HASH160 399eaed8e3cd5086b559687f5d023ea708d583f9 OP_EQUALVERIFY OP_CHECKSIG", "type": "pubkeyhash"}, "value": 0.00029866, "n": 0}, {"scriptPubKey": {"reqSigs": 1, "hex": "76a914af9adffe539629575be8838dfa7dc1037c130d5d88ac", "addresses": ["1H1WnUPUzG7MFekovBWWnkB4o2f2PUQRme"], "asm": "OP_DUP OP_HASH160 af9adffe539629575be8838dfa7dc1037c130d5d OP_EQUALVERIFY OP_CHECKSIG", "type": "pubkeyhash"}, "value": 0.0034364, "n": 1}], "hex": "0100000001cf96e75ed448fdbcaef1ba12ad6113342d11edc3b766d18b2aa3aa0d772204da000000006b48304502210082aeb0f189cf2511a8c478467c9f76859cafeb5bd48466b2ccf5418515ff6423022001b8d08a96708d3eade5c7b63ebf51dd14156fc144eead3896b50f324a970476012103fe68c6a22497180ea63d189ed0e04b3f7e44d51baba2e45ff2aa7ff10e951ba8ffffffff02aa740000000000001976a914399eaed8e3cd5086b559687f5d023ea708d583f988ac583e0500000000001976a914af9adffe539629575be8838dfa7dc1037c130d5d88ac00000000", "vin": [{"sequence": 4294967295, "scriptSig": {"hex": "48304502210082aeb0f189cf2511a8c478467c9f76859cafeb5bd48466b2ccf5418515ff6423022001b8d08a96708d3eade5c7b63ebf51dd14156fc144eead3896b50f324a970476012103fe68c6a22497180ea63d189ed0e04b3f7e44d51baba2e45ff2aa7ff10e951ba8", "asm": "304502210082aeb0f189cf2511a8c478467c9f76859cafeb5bd48466b2ccf5418515ff6423022001b8d08a96708d3eade5c7b63ebf51dd14156fc144eead3896b50f324a970476[ALL] 03fe68c6a22497180ea63d189ed0e04b3f7e44d51baba2e45ff2aa7ff10e951ba8"}, "vout": 0, "txid": "da0422770daaa32a8bd166b7c3ed112d341361ad12baf1aebcfd48d45ee796cf"}], "txid": "14a77f2b2e221c009a55a44ff8ff220a1b0b4d2f3ea9aad473c4b84c1e5e794b", "blocktime": 1537870928, "version": 1, "confirmations": 11514, "time": 1537870928, "locktime": 0, "vsize": 226, "size": 226}