{"hash": "084a072bcb9bf80c055852000d6923bdd89f26bc7eef0f12bf5e57a0af914fe8", "blockhash": "0000000000000000001f0ddff1eddb255c1121bcd4da4f1bc9a0da00cae72433", "vout": [{"scriptPubKey": {"reqSigs": 1, "hex": "a9149ad18c88b8c3be5d71c11f5445e998a54001335087", "addresses": ["3Fod1oWaS4GiiyoBQ2V5L7Rkji568y5QLe"], "asm": "OP_HASH160 9ad18c88b8c3be5d71c11f5445e998a540013350 OP_EQUAL", "type": "scripthash"}, "value": 0.03, "n": 0}, {"scriptPubKey": {"reqSigs": 1, "hex": "a9140e6ba5044d69fbdc07f9f71a72a4a177f229c44d87", "addresses": ["331GLWN7YjkSp5sq9cckEWgveKxjiViuXG"], "asm": "OP_HASH160 0e6ba5044d69fbdc07f9f71a72a4a177f229c44d OP_EQUAL", "type": "scripthash"}, "value": 0.06789004, "n": 1}], "hex": "01000000000101695e371222c993a77f1a7dcd914deec475ca4e8b0ce333f172cbb61d38727a600100000017160014edc291b4c1bc0b5a4de66ecf4ae35abcac05bc44ffffffff02c0c62d000000000017a9149ad18c88b8c3be5d71c11f5445e998a540013350878c9767000000000017a9140e6ba5044d69fbdc07f9f71a72a4a177f229c44d8702473044022046e552d523db55d80c3146daa924ddf79905560ce2f50884a5b14322623ea5c70220370985f507c65ed8b831cf9d559b5abbf0607c604e1891c39a193adfa5eb487e0121023cb06563ba095f106b84b6ea26d35964b1dd37bd589c2644d1fc357e9df7a86500000000", "vin": [{"txinwitness": ["3044022046e552d523db55d80c3146daa924ddf79905560ce2f50884a5b14322623ea5c70220370985f507c65ed8b831cf9d559b5abbf0607c604e1891c39a193adfa5eb487e01", "023cb06563ba095f106b84b6ea26d35964b1dd37bd589c2644d1fc357e9df7a865"], "sequence": 4294967295, "scriptSig": {"hex": "160014edc291b4c1bc0b5a4de66ecf4ae35abcac05bc44", "asm": "0014edc291b4c1bc0b5a4de66ecf4ae35abcac05bc44"}, "vout": 1, "txid": "607a72381db6cb72f133e30c8b4eca75c4ee4d91cd7d1a7fa793c92212375e69"}], "txid": "14a898c7e8e9e47cf04146126611eb51142b70412588dd7156d0a67dd415af04", "blocktime": 1537872018, "version": 1, "confirmations": 11489, "time": 1537872018, "locktime": 0, "vsize": 166, "size": 247}