{"hash": "14ac76fcc21c3f61d30d4c91efb1064d7d9f5426bcc01e0adbcce5ed15bd9ce5", "blockhash": "0000000000000000000e13cef7c366c0283d82e591d1acd082e914b08063cdf1", "vout": [{"scriptPubKey": {"reqSigs": 1, "hex": "76a9144f7e50d9686f6f14badf7678ab6229dd24c2c43b88ac", "addresses": ["18FKhjRdM9JtEuSRepCtVRvHqU64XyvFKa"], "asm": "OP_DUP OP_HASH160 4f7e50d9686f6f14badf7678ab6229dd24c2c43b OP_EQUALVERIFY OP_CHECKSIG", "type": "pubkeyhash"}, "value": 0.00050005, "n": 0}, {"scriptPubKey": {"reqSigs": 1, "hex": "76a914208ff390e6e86ac403e73344164baf4e7e28b7bc88ac", "addresses": ["13yB54SMKWmXVTvNpLETLfLibR7FCYnNm8"], "asm": "OP_DUP OP_HASH160 208ff390e6e86ac403e73344164baf4e7e28b7bc OP_EQUALVERIFY OP_CHECKSIG", "type": "pubkeyhash"}, "value": 0.00098066, "n": 1}], "hex": "0100000001f3915d28f5b8bfc97788e48b55897f2c7359dd8d7d1405e46396dd97087fe305010000006b483045022100f017dc54c00313fced3c095ad4141f8dcaa9d397c2664f434ac50fee87fcdae90220303968ac598b19b098cb432b6a854475a2f68bb679f822d32fc00461b12269f90121038868f99ca564d6140357d792a81bff2fecb869d450899ad1be70f18234f8b4a5ffffffff0255c30000000000001976a9144f7e50d9686f6f14badf7678ab6229dd24c2c43b88ac127f0100000000001976a914208ff390e6e86ac403e73344164baf4e7e28b7bc88ac00000000", "vin": [{"sequence": 4294967295, "scriptSig": {"hex": "483045022100f017dc54c00313fced3c095ad4141f8dcaa9d397c2664f434ac50fee87fcdae90220303968ac598b19b098cb432b6a854475a2f68bb679f822d32fc00461b12269f90121038868f99ca564d6140357d792a81bff2fecb869d450899ad1be70f18234f8b4a5", "asm": "3045022100f017dc54c00313fced3c095ad4141f8dcaa9d397c2664f434ac50fee87fcdae90220303968ac598b19b098cb432b6a854475a2f68bb679f822d32fc00461b12269f9[ALL] 038868f99ca564d6140357d792a81bff2fecb869d450899ad1be70f18234f8b4a5"}, "vout": 1, "txid": "05e37f0897dd9663e405147d8ddd59732c7f89558be48877c9bfb8f5285d91f3"}], "txid": "14ac76fcc21c3f61d30d4c91efb1064d7d9f5426bcc01e0adbcce5ed15bd9ce5", "blocktime": 1537871767, "version": 1, "confirmations": 11495, "time": 1537871767, "locktime": 0, "vsize": 226, "size": 226}