{"hash": "e14c001bf86a38141e542369642177c0382e342751fb40b7a51683ac5b0e38f9", "blockhash": "0000000000000000000e13cef7c366c0283d82e591d1acd082e914b08063cdf1", "vout": [{"scriptPubKey": {"reqSigs": 1, "hex": "0014ffdb750d22a33983b5f890d3b30b4b64a1d725eb", "addresses": ["bc1qlldh2rfz5vuc8d0cjrfmxz6tvjsawf0tt2lm0n"], "asm": "0 ffdb750d22a33983b5f890d3b30b4b64a1d725eb", "type": "witness_v0_keyhash"}, "value": 2.308e-05, "n": 0}, {"scriptPubKey": {"reqSigs": 1, "hex": "a914abd40347ce953a3da689e4df39112990f373174187", "addresses": ["3HMZTFmG4aHUMfH2PyzaumHZGUB8hPfazd"], "asm": "OP_HASH160 abd40347ce953a3da689e4df39112990f3731741 OP_EQUAL", "type": "scripthash"}, "value": 0.0022, "n": 1}], "hex": "01000000000101508707604ed1264b4b829b2f3eb88a64640ab9db56c07590170d8e5e7b6c85803a000000171600144d19c66fb673cd432d44c82e1c1b84f1dbded862ffffffff020409000000000000160014ffdb750d22a33983b5f890d3b30b4b64a1d725eb605b03000000000017a914abd40347ce953a3da689e4df39112990f3731741870247304402203e3f52004012159d74ade1524192d60aa4cec70f8fa8b1db35eb3044fef746ba0220708e0f85a52e1ca8d06b0a425e1b06c847a338a77fd53936ae1dea06760082a0012102b5bff0762a04293c5ac89984b90b636ee0852aa568f540684754c23101acd17d00000000", "vin": [{"txinwitness": ["304402203e3f52004012159d74ade1524192d60aa4cec70f8fa8b1db35eb3044fef746ba0220708e0f85a52e1ca8d06b0a425e1b06c847a338a77fd53936ae1dea06760082a001", "02b5bff0762a04293c5ac89984b90b636ee0852aa568f540684754c23101acd17d"], "sequence": 4294967295, "scriptSig": {"hex": "1600144d19c66fb673cd432d44c82e1c1b84f1dbded862", "asm": "00144d19c66fb673cd432d44c82e1c1b84f1dbded862"}, "vout": 58, "txid": "80856c7b5e8e0d179075c056dbb90a64648ab83e2f9b824b4b26d14e60078750"}], "txid": "14b1f949a8195c8167101f2201c60d1a622e0bfe5a6dc59567c2ff8803abe81e", "blocktime": 1537871767, "version": 1, "confirmations": 11495, "time": 1537871767, "locktime": 0, "vsize": 165, "size": 246}