{"hash": "14b29c9653f9442c23f721251e88df773d2a534b74c1efbb874cdaaaa2fa09fc", "blockhash": "00000000000000000017f5eb5941039fbcee6240d03bc1f2f8e35350df66a1d8", "vout": [{"scriptPubKey": {"reqSigs": 1, "hex": "76a9148b383d097cf22a34e5530bc052ff5639b2c2166188ac", "addresses": ["1Dh8JBNPZMLmCBhw2kkdPBwkaKKAr35xTu"], "asm": "OP_DUP OP_HASH160 8b383d097cf22a34e5530bc052ff5639b2c21661 OP_EQUALVERIFY OP_CHECKSIG", "type": "pubkeyhash"}, "value": 0.00018127, "n": 0}, {"scriptPubKey": {"reqSigs": 1, "hex": "a914c02075bcedae4e85d78abb586540533b5416d94e87", "addresses": ["3KCtYjGW93Z71gH2sR5NbvNcCb3z9Xzqvo"], "asm": "OP_HASH160 c02075bcedae4e85d78abb586540533b5416d94e OP_EQUAL", "type": "scripthash"}, "value": 0.0025126, "n": 1}], "hex": "01000000023a5bf561cc90f8c2491fff028f145b327e0dbecd3224874f3ef6e1d723b35f7f000000006a47304402206eccc971f46533b07fce82f34b3f4eb24a8c762743e0e5cdd6981f497a2f59f7022071f3252b0f7d96c938472e2eca93aa8f1de2e98b4bc70fc584061775a61d9910012102f9782598a28b9973ed1d29d2279bef8a166e1f97f7c54b4cfdfa10dc03fde39effffffff06d172c23fe9c23689197f96e2043c890eadb2597239a8ee5a89001846bbaaeb000000006b483045022100f8a6e24afce36a31bd31eb9a9d34583a94bb23f619fea2149903a27a306398d5022066c02a181a55916287f5d953dcab93527bfee8f95a49bf970def8ab82245ae3e012103a7900c39abb924d2b368b5bdbd86c2fe0a7a4d32ccaf8696cc02bb3b961749bfffffffff02cf460000000000001976a9148b383d097cf22a34e5530bc052ff5639b2c2166188ac7cd503000000000017a914c02075bcedae4e85d78abb586540533b5416d94e8700000000", "vin": [{"sequence": 4294967295, "scriptSig": {"hex": "47304402206eccc971f46533b07fce82f34b3f4eb24a8c762743e0e5cdd6981f497a2f59f7022071f3252b0f7d96c938472e2eca93aa8f1de2e98b4bc70fc584061775a61d9910012102f9782598a28b9973ed1d29d2279bef8a166e1f97f7c54b4cfdfa10dc03fde39e", "asm": "304402206eccc971f46533b07fce82f34b3f4eb24a8c762743e0e5cdd6981f497a2f59f7022071f3252b0f7d96c938472e2eca93aa8f1de2e98b4bc70fc584061775a61d9910[ALL] 02f9782598a28b9973ed1d29d2279bef8a166e1f97f7c54b4cfdfa10dc03fde39e"}, "vout": 0, "txid": "7f5fb323d7e1f63e4f872432cdbe0d7e325b148f02ff1f49c2f890cc61f55b3a"}, {"sequence": 4294967295, "scriptSig": {"hex": "483045022100f8a6e24afce36a31bd31eb9a9d34583a94bb23f619fea2149903a27a306398d5022066c02a181a55916287f5d953dcab93527bfee8f95a49bf970def8ab82245ae3e012103a7900c39abb924d2b368b5bdbd86c2fe0a7a4d32ccaf8696cc02bb3b961749bf", "asm": "3045022100f8a6e24afce36a31bd31eb9a9d34583a94bb23f619fea2149903a27a306398d5022066c02a181a55916287f5d953dcab93527bfee8f95a49bf970def8ab82245ae3e[ALL] 03a7900c39abb924d2b368b5bdbd86c2fe0a7a4d32ccaf8696cc02bb3b961749bf"}, "vout": 0, "txid": "ebaabb461800895aeea8397259b2ad0e893c04e2967f198936c2e93fc272d106"}], "txid": "14b29c9653f9442c23f721251e88df773d2a534b74c1efbb874cdaaaa2fa09fc", "blocktime": 1537874412, "version": 1, "confirmations": 11468, "time": 1537874412, "locktime": 0, "vsize": 371, "size": 371}