{"hash": "14b2494a46279e7b5468207c1a6c528f065746ec0ffeb2833dab40e661af820a", "blockhash": "0000000000000000000e13cef7c366c0283d82e591d1acd082e914b08063cdf1", "vout": [{"scriptPubKey": {"reqSigs": 1, "hex": "76a914c1115a48c3e7c2efb8933030bc853e9632e5504788ac", "addresses": ["1JbrCi56iDvWKPYaCzvgfXDFsgVDbRE5L3"], "asm": "OP_DUP OP_HASH160 c1115a48c3e7c2efb8933030bc853e9632e55047 OP_EQUALVERIFY OP_CHECKSIG", "type": "pubkeyhash"}, "value": 0.00312711, "n": 0}, {"scriptPubKey": {"reqSigs": 1, "hex": "76a9149d24236cca7b6675c334b8b88d1345dec9b2d35b88ac", "addresses": ["1FKtP4FDz7JKj6NnmMqHdww4H6qzmU1x5H"], "asm": "OP_DUP OP_HASH160 9d24236cca7b6675c334b8b88d1345dec9b2d35b OP_EQUALVERIFY OP_CHECKSIG", "type": "pubkeyhash"}, "value": 0.00396139, "n": 1}], "hex": "0100000001968ac6d22d5b7f14ffe00976a812437ce7850c3d11835b9b6d854276066165ac000000006b483045022100b549ab266338de6aae54f7743e5ee0f7811b2b847a6c7ff7146ada97c81ff0ef022011bfc2694dbb2bf8c3dfd8fd750080c4f17d7de956ed90e8a4a78ca5a1604cce0121030738b0fb33b7a0405b1b2b9d6f1092bdc2c501e1496a9c887593291da1048346ffffffff0287c50400000000001976a914c1115a48c3e7c2efb8933030bc853e9632e5504788ac6b0b0600000000001976a9149d24236cca7b6675c334b8b88d1345dec9b2d35b88ac00000000", "vin": [{"sequence": 4294967295, "scriptSig": {"hex": "483045022100b549ab266338de6aae54f7743e5ee0f7811b2b847a6c7ff7146ada97c81ff0ef022011bfc2694dbb2bf8c3dfd8fd750080c4f17d7de956ed90e8a4a78ca5a1604cce0121030738b0fb33b7a0405b1b2b9d6f1092bdc2c501e1496a9c887593291da1048346", "asm": "3045022100b549ab266338de6aae54f7743e5ee0f7811b2b847a6c7ff7146ada97c81ff0ef022011bfc2694dbb2bf8c3dfd8fd750080c4f17d7de956ed90e8a4a78ca5a1604cce[ALL] 030738b0fb33b7a0405b1b2b9d6f1092bdc2c501e1496a9c887593291da1048346"}, "vout": 0, "txid": "ac6561067642856d9b5b83113d0c85e77c4312a87609e0ff147f5b2dd2c68a96"}], "txid": "14b2494a46279e7b5468207c1a6c528f065746ec0ffeb2833dab40e661af820a", "blocktime": 1537871767, "version": 1, "confirmations": 11493, "time": 1537871767, "locktime": 0, "vsize": 226, "size": 226}