{"hash": "14b4b542da22be863e4ca82be8ccdd53e4d6db9d8465b86266572aefdb9b8a67", "blockhash": "00000000000000000018f53835495a110e01622372bf6ae95dc86f2b0ab887b0", "vout": [{"scriptPubKey": {"reqSigs": 1, "hex": "a914b4c85757326f73abdc9a5fbde443314c5cc3ab7c87", "addresses": ["3JAuZ2ES2cqsJ3ftJbMPXjRJsePHvrPZ9x"], "asm": "OP_HASH160 b4c85757326f73abdc9a5fbde443314c5cc3ab7c OP_EQUAL", "type": "scripthash"}, "value": 0.01523966, "n": 0}, {"scriptPubKey": {"reqSigs": 1, "hex": "76a914bb9193689e511596d8c5746396a8eaf6dc4382d188ac", "addresses": ["1J6mkf7yXqoZBRwSMKBiFhQtfAVPuUcH2j"], "asm": "OP_DUP OP_HASH160 bb9193689e511596d8c5746396a8eaf6dc4382d1 OP_EQUALVERIFY OP_CHECKSIG", "type": "pubkeyhash"}, "value": 0.00010389, "n": 1}], "hex": "010000000273a985a96472cf39f981412410e33a27f20b126a73b57ce6dd77870d903bf7da01000000da0047304402203022d975467393ca08a763b6501a3d5e18596c3fab61b895610c90ad851bb4c602207ce4202b63308604394eb5b3bcfc3d30287c4bdfbab26f5600c4e47262f90b9f01483045022100ef165093ab0d153f8548c6925f64c6dbab160f7e71c3d448e483d4446a699b7e02205e5a915ebd231ea6cc250d04ce23f109a22fbc53e43c33373b33cd3939cec8910147522102907a54bed8ad74b3f35638c60114ca240a308cb986f3f2f306178869a8880b612103e7c936bc0eb50524ff752e6730481decd44d739c2400c2ab33bd0522faa5dbb152aeffffffffce976dae40a321dd7f2ffd55086f55bda67dee58df97a808db9da0f0352bfa9301000000da004730440220469eb14f0d34c9f0d1948d37aa303c05c45dcd48882b82801a383072286e125702205262551facce3f4eeffe9b8c481a7d915ee8cd4b75a09968fa5233ea207528fa01483045022100e21d181a38eb0c3e208041d29ad8b31ae69529db6fea8618ca417b0e24a2677702203255c9417e665b8e92d4d24a79153cf8a0757ec24b752b5e5b6e0e2cd76f4ffa0147522102907a54bed8ad74b3f35638c60114ca240a308cb986f3f2f306178869a8880b612103b57add62f9cdf51c1dd878ce7bef7bf252228b8f25ef1724e7e3a14d25c66a8552aeffffffff02fe4017000000000017a914b4c85757326f73abdc9a5fbde443314c5cc3ab7c8795280000000000001976a914bb9193689e511596d8c5746396a8eaf6dc4382d188ac00000000", "vin": [{"sequence": 4294967295, "scriptSig": {"hex": "0047304402203022d975467393ca08a763b6501a3d5e18596c3fab61b895610c90ad851bb4c602207ce4202b63308604394eb5b3bcfc3d30287c4bdfbab26f5600c4e47262f90b9f01483045022100ef165093ab0d153f8548c6925f64c6dbab160f7e71c3d448e483d4446a699b7e02205e5a915ebd231ea6cc250d04ce23f109a22fbc53e43c33373b33cd3939cec8910147522102907a54bed8ad74b3f35638c60114ca240a308cb986f3f2f306178869a8880b612103e7c936bc0eb50524ff752e6730481decd44d739c2400c2ab33bd0522faa5dbb152ae", "asm": "0 304402203022d975467393ca08a763b6501a3d5e18596c3fab61b895610c90ad851bb4c602207ce4202b63308604394eb5b3bcfc3d30287c4bdfbab26f5600c4e47262f90b9f[ALL] 3045022100ef165093ab0d153f8548c6925f64c6dbab160f7e71c3d448e483d4446a699b7e02205e5a915ebd231ea6cc250d04ce23f109a22fbc53e43c33373b33cd3939cec891[ALL] 522102907a54bed8ad74b3f35638c60114ca240a308cb986f3f2f306178869a8880b612103e7c936bc0eb50524ff752e6730481decd44d739c2400c2ab33bd0522faa5dbb152ae"}, "vout": 1, "txid": "daf73b900d8777dde67cb5736a120bf2273ae310244181f939cf7264a985a973"}, {"sequence": 4294967295, "scriptSig": {"hex": "004730440220469eb14f0d34c9f0d1948d37aa303c05c45dcd48882b82801a383072286e125702205262551facce3f4eeffe9b8c481a7d915ee8cd4b75a09968fa5233ea207528fa01483045022100e21d181a38eb0c3e208041d29ad8b31ae69529db6fea8618ca417b0e24a2677702203255c9417e665b8e92d4d24a79153cf8a0757ec24b752b5e5b6e0e2cd76f4ffa0147522102907a54bed8ad74b3f35638c60114ca240a308cb986f3f2f306178869a8880b612103b57add62f9cdf51c1dd878ce7bef7bf252228b8f25ef1724e7e3a14d25c66a8552ae", "asm": "0 30440220469eb14f0d34c9f0d1948d37aa303c05c45dcd48882b82801a383072286e125702205262551facce3f4eeffe9b8c481a7d915ee8cd4b75a09968fa5233ea207528fa[ALL] 3045022100e21d181a38eb0c3e208041d29ad8b31ae69529db6fea8618ca417b0e24a2677702203255c9417e665b8e92d4d24a79153cf8a0757ec24b752b5e5b6e0e2cd76f4ffa[ALL] 522102907a54bed8ad74b3f35638c60114ca240a308cb986f3f2f306178869a8880b612103b57add62f9cdf51c1dd878ce7bef7bf252228b8f25ef1724e7e3a14d25c66a8552ae"}, "vout": 1, "txid": "93fa2b35f0a09ddb08a897df58ee7da6bd556f0855fd2f7fdd21a340ae6d97ce"}], "txid": "14b4b542da22be863e4ca82be8ccdd53e4d6db9d8465b86266572aefdb9b8a67", "blocktime": 1537870928, "version": 1, "confirmations": 11512, "time": 1537870928, "locktime": 0, "vsize": 594, "size": 594}