{"hash": "8012fa634f13ea3a67e329a4937b9f70e98a58cca1b7edf62cc9c9743fd3a551", "blockhash": "0000000000000000000e13cef7c366c0283d82e591d1acd082e914b08063cdf1", "vout": [{"scriptPubKey": {"reqSigs": 1, "hex": "0014e2e49d3fe0096decd074eff1bbb49d55bafef316", "addresses": ["bc1qutjf60lqp9k7e5r5alcmhdya2ka0auckped3us"], "asm": "0 e2e49d3fe0096decd074eff1bbb49d55bafef316", "type": "witness_v0_keyhash"}, "value": 3.819e-05, "n": 0}, {"scriptPubKey": {"reqSigs": 1, "hex": "a914519d474914f9a0edd09764e4d935523beb9b102b87", "addresses": ["398Z4yr52Tm1c8TEt8fipSthuS99vLHBSA"], "asm": "OP_HASH160 519d474914f9a0edd09764e4d935523beb9b102b OP_EQUAL", "type": "scripthash"}, "value": 0.00344198, "n": 1}], "hex": "0100000000010166fa9bdd6355c85533b07d8930d61fb15ed0b065e09bf2080ade93d7b31bc2800100000000ffffffff02eb0e000000000000160014e2e49d3fe0096decd074eff1bbb49d55bafef316864005000000000017a914519d474914f9a0edd09764e4d935523beb9b102b87024730440220086aa80c26cb34e5995f63e6c80329e2bf79df7e0c4f6a90ef041e8e0742a1c902203936e085ff0a2bc52be2776a3bd548f27f0896786b29d5ecdf17f74ac57e8ece012103d2bda7cc434f672ca9af1fbed266ffe22ade7a06fa2b1face473a522fa7d6d2900000000", "vin": [{"txinwitness": ["30440220086aa80c26cb34e5995f63e6c80329e2bf79df7e0c4f6a90ef041e8e0742a1c902203936e085ff0a2bc52be2776a3bd548f27f0896786b29d5ecdf17f74ac57e8ece01", "03d2bda7cc434f672ca9af1fbed266ffe22ade7a06fa2b1face473a522fa7d6d29"], "sequence": 4294967295, "scriptSig": {"hex": "", "asm": ""}, "vout": 1, "txid": "80c21bb3d793de0a08f29be065b0d05eb11fd630897db03355c85563dd9bfa66"}], "txid": "14b603f77975ae457ef6ca6a5df124d27fc3dec3b0ad2faaf2701a614ea30d6d", "blocktime": 1537871767, "version": 1, "confirmations": 11495, "time": 1537871767, "locktime": 0, "vsize": 142, "size": 223}