{"hash": "14b9cd974044f2d125eb2a782fb1d0f3555f0ef0754d7e1fb31edf65109d9029", "blockhash": "0000000000000000001f0ddff1eddb255c1121bcd4da4f1bc9a0da00cae72433", "vout": [{"scriptPubKey": {"reqSigs": 1, "hex": "76a91487d0a410ff6d597de9b739f07d03f7040fc880b188ac", "addresses": ["1DP8AX9voAdDuNjbRKGSJnT1baXQF9QkFf"], "asm": "OP_DUP OP_HASH160 87d0a410ff6d597de9b739f07d03f7040fc880b1 OP_EQUALVERIFY OP_CHECKSIG", "type": "pubkeyhash"}, "value": 0.0142, "n": 0}, {"scriptPubKey": {"reqSigs": 1, "hex": "a914e370231feecbfc25e2e2423a5a79bf79bfdca59887", "addresses": ["3NRbeX3vD5VaVE4TDU9ivCDsEf7NPPte6J"], "asm": "OP_HASH160 e370231feecbfc25e2e2423a5a79bf79bfdca598 OP_EQUAL", "type": "scripthash"}, "value": 11.61298682, "n": 1}], "hex": "010000000173c5345f90e37b6f0115e55d6d46f884c78c99a6bd5a88708b087d8e2b398b9601000000d900473044022020840a7ea7065551af100045d457dfad0849bee6d4abec43efa8510e483b7f4302202530e39613f873c3210dc78244bd89cb7e66b44f77f05592037baa8a9c3bd91101473044022022c6ede9c3710450eeb54ed070aa7798b7b2507b1f06818497be6392094493cb02204311f0ca7d31d4e3057a8d6bd45df5d3e7752d80612cbce582f368af8d60c15f014752210327881b6abce6535553a3ce21fad12a7d74fd237ce7c4cd270a267162344e3082210256141f8eb687f5a68c5cc65054652dc25116fa285e44d72b44368827ffe77d9a52aeffffffff02e0aa1500000000001976a91487d0a410ff6d597de9b739f07d03f7040fc880b188acfa0238450000000017a914e370231feecbfc25e2e2423a5a79bf79bfdca5988700000000", "vin": [{"sequence": 4294967295, "scriptSig": {"hex": "00473044022020840a7ea7065551af100045d457dfad0849bee6d4abec43efa8510e483b7f4302202530e39613f873c3210dc78244bd89cb7e66b44f77f05592037baa8a9c3bd91101473044022022c6ede9c3710450eeb54ed070aa7798b7b2507b1f06818497be6392094493cb02204311f0ca7d31d4e3057a8d6bd45df5d3e7752d80612cbce582f368af8d60c15f014752210327881b6abce6535553a3ce21fad12a7d74fd237ce7c4cd270a267162344e3082210256141f8eb687f5a68c5cc65054652dc25116fa285e44d72b44368827ffe77d9a52ae", "asm": "0 3044022020840a7ea7065551af100045d457dfad0849bee6d4abec43efa8510e483b7f4302202530e39613f873c3210dc78244bd89cb7e66b44f77f05592037baa8a9c3bd911[ALL] 3044022022c6ede9c3710450eeb54ed070aa7798b7b2507b1f06818497be6392094493cb02204311f0ca7d31d4e3057a8d6bd45df5d3e7752d80612cbce582f368af8d60c15f[ALL] 52210327881b6abce6535553a3ce21fad12a7d74fd237ce7c4cd270a267162344e3082210256141f8eb687f5a68c5cc65054652dc25116fa285e44d72b44368827ffe77d9a52ae"}, "vout": 1, "txid": "968b392b8e7d088b70885abda6998cc784f8466d5de515016f7be3905f34c573"}], "txid": "14b9cd974044f2d125eb2a782fb1d0f3555f0ef0754d7e1fb31edf65109d9029", "blocktime": 1537872018, "version": 1, "confirmations": 11489, "time": 1537872018, "locktime": 0, "vsize": 334, "size": 334}