{"hash": "966246e00d8b55ef757d903bb9c8437a91a32d2307ffdcd7f1e66ee443966752", "blockhash": "0000000000000000001e0dab787dd257d1dbfcb92a98c2207d5e1078be1f4165", "vout": [{"scriptPubKey": {"reqSigs": 1, "hex": "0014aea527da29f6a315e0474fd0e78f7d03e8e04e79", "addresses": ["bc1q46jj0k3f7633tcz8flgw0rmaq05wqnneh33ue6"], "asm": "0 aea527da29f6a315e0474fd0e78f7d03e8e04e79", "type": "witness_v0_keyhash"}, "value": 0.00092868, "n": 0}, {"scriptPubKey": {"reqSigs": 1, "hex": "76a914383a019827ab4d503ed2ff13d4a69e7c775e020b88ac", "addresses": ["168JL5ytrr3JWnSRgFjdw7Xb8BqhYhnZP3"], "asm": "OP_DUP OP_HASH160 383a019827ab4d503ed2ff13d4a69e7c775e020b OP_EQUALVERIFY OP_CHECKSIG", "type": "pubkeyhash"}, "value": 5.46e-06, "n": 1}], "hex": "0100000000010118f634e75be7497ace38b5287a9ad8888bd801da3f082b96b3fa2a9ca45d21720000000017160014f876fdff50ca0bc9823b8040f94eaeeb12788931ffffffff02c46a010000000000160014aea527da29f6a315e0474fd0e78f7d03e8e04e7922020000000000001976a914383a019827ab4d503ed2ff13d4a69e7c775e020b88ac02473044022078df74e2fbe8e588f3ac01c47c0af32991aef07d0b711a1f62cb29c54831889c022036414863b9b8cdb996f122f8b5662a16907580fb0b1ab39fd1e576cd71347120012103d86226841ba2058a041f8b95cd838dc3fe0953e6fc46f64c02aee25a0ec8bf9c00000000", "vin": [{"txinwitness": ["3044022078df74e2fbe8e588f3ac01c47c0af32991aef07d0b711a1f62cb29c54831889c022036414863b9b8cdb996f122f8b5662a16907580fb0b1ab39fd1e576cd7134712001", "03d86226841ba2058a041f8b95cd838dc3fe0953e6fc46f64c02aee25a0ec8bf9c"], "sequence": 4294967295, "scriptSig": {"hex": "160014f876fdff50ca0bc9823b8040f94eaeeb12788931", "asm": "0014f876fdff50ca0bc9823b8040f94eaeeb12788931"}, "vout": 0, "txid": "72215da49c2afab3962b083fda01d88b88d89a7a28b538ce7a49e75be734f618"}], "txid": "14c00a8b17ce5a167ced55d41f3ccebcc7baeeeb01c677fbc247b81fe15a226f", "blocktime": 1537872475, "version": 1, "confirmations": 11487, "time": 1537872475, "locktime": 0, "vsize": 167, "size": 248}