{"hash": "14c143f35d9dc9aec20d8318e4c10afa50291bfd6e08784e959363e80cb4ee23", "blockhash": "0000000000000000000e13cef7c366c0283d82e591d1acd082e914b08063cdf1", "vout": [{"scriptPubKey": {"reqSigs": 1, "hex": "76a91437ee42fe77f65d79f64c60c113599a7dfdd7dd5d88ac", "addresses": ["166jbGHPRr7wLqTmbjXY9DZpg2k7jJ75UW"], "asm": "OP_DUP OP_HASH160 37ee42fe77f65d79f64c60c113599a7dfdd7dd5d OP_EQUALVERIFY OP_CHECKSIG", "type": "pubkeyhash"}, "value": 0.0323, "n": 0}], "hex": "01000000037f95c5321c5f66b23bba884d40d4f3a8b94ffccf8b39800ef1f9b8f3a7afcf19000000006a47304402207a15c2c1a2ae155ec77ccd4059d62946f4a2938f0bc3ac12cb398a9a9f96012002207783d25d5c2fe60899f148929dadda275652777b77d2ac8d5183fd0b5b17b5bd012103a826cb37a3e2099ee8832dc0b8da6b75c099e8083d38ee2b686869238a0b4a70ffffffffd2e74b2c994b8054cd5e6730e10e52462bd183e886d6e6b31b79e467cef00686000000006b483045022100e8d985bd022aaeb259f4c37107c84164c053a5c37089e94d7b97381906c08261022005da695a25c6c2173fca3c48a43186211c6f680f3e672256cc99edb10e30fce90121024432a797f74bfd96ee91e86f6576d5f4c0e3d57693e3d0081cb4a423723fa225ffffffff611bfceeef2ada4a52734ac4a914bf75f767c9dd6d9b42eedf3be72eb554b4cd000000006a47304402207080be9dd9ca56b53b0efdb38c06a2f266b7d9bebe4bf314e330e2f600bf0ef5022030a437002d86c6afed82d375559ddc3bfc7538051709262a9fee225234119b510121025bb09a611da801b5da4c21a2bcc72567cb7c4bb61b4df510edf825dddfd912a8ffffffff0130493100000000001976a91437ee42fe77f65d79f64c60c113599a7dfdd7dd5d88ac00000000", "vin": [{"sequence": 4294967295, "scriptSig": {"hex": "47304402207a15c2c1a2ae155ec77ccd4059d62946f4a2938f0bc3ac12cb398a9a9f96012002207783d25d5c2fe60899f148929dadda275652777b77d2ac8d5183fd0b5b17b5bd012103a826cb37a3e2099ee8832dc0b8da6b75c099e8083d38ee2b686869238a0b4a70", "asm": "304402207a15c2c1a2ae155ec77ccd4059d62946f4a2938f0bc3ac12cb398a9a9f96012002207783d25d5c2fe60899f148929dadda275652777b77d2ac8d5183fd0b5b17b5bd[ALL] 03a826cb37a3e2099ee8832dc0b8da6b75c099e8083d38ee2b686869238a0b4a70"}, "vout": 0, "txid": "19cfafa7f3b8f9f10e80398bcffc4fb9a8f3d4404d88ba3bb2665f1c32c5957f"}, {"sequence": 4294967295, "scriptSig": {"hex": "483045022100e8d985bd022aaeb259f4c37107c84164c053a5c37089e94d7b97381906c08261022005da695a25c6c2173fca3c48a43186211c6f680f3e672256cc99edb10e30fce90121024432a797f74bfd96ee91e86f6576d5f4c0e3d57693e3d0081cb4a423723fa225", "asm": "3045022100e8d985bd022aaeb259f4c37107c84164c053a5c37089e94d7b97381906c08261022005da695a25c6c2173fca3c48a43186211c6f680f3e672256cc99edb10e30fce9[ALL] 024432a797f74bfd96ee91e86f6576d5f4c0e3d57693e3d0081cb4a423723fa225"}, "vout": 0, "txid": "8606f0ce67e4791bb3e6d686e883d12b46520ee130675ecd54804b992c4be7d2"}, {"sequence": 4294967295, "scriptSig": {"hex": "47304402207080be9dd9ca56b53b0efdb38c06a2f266b7d9bebe4bf314e330e2f600bf0ef5022030a437002d86c6afed82d375559ddc3bfc7538051709262a9fee225234119b510121025bb09a611da801b5da4c21a2bcc72567cb7c4bb61b4df510edf825dddfd912a8", "asm": "304402207080be9dd9ca56b53b0efdb38c06a2f266b7d9bebe4bf314e330e2f600bf0ef5022030a437002d86c6afed82d375559ddc3bfc7538051709262a9fee225234119b51[ALL] 025bb09a611da801b5da4c21a2bcc72567cb7c4bb61b4df510edf825dddfd912a8"}, "vout": 0, "txid": "cdb454b52ee73bdfee429b6dddc967f775bf14a9c44a73524ada2aefeefc1b61"}], "txid": "14c143f35d9dc9aec20d8318e4c10afa50291bfd6e08784e959363e80cb4ee23", "blocktime": 1537871767, "version": 1, "confirmations": 11491, "time": 1537871767, "locktime": 0, "vsize": 486, "size": 486}