{"hash": "14c6666a91e3c7777f5176669d0340357643e79b2fbfdd89e65c5ec2ba2763cf", "blockhash": "0000000000000000000e13cef7c366c0283d82e591d1acd082e914b08063cdf1", "vout": [{"scriptPubKey": {"reqSigs": 1, "hex": "76a914aed15681aa8c68b19ab1efa1aa2ea277c259c7b288ac", "addresses": ["1GwMMS3tKV5EvWqS7hpmHYSNea1uWd7B5y"], "asm": "OP_DUP OP_HASH160 aed15681aa8c68b19ab1efa1aa2ea277c259c7b2 OP_EQUALVERIFY OP_CHECKSIG", "type": "pubkeyhash"}, "value": 0.02111267, "n": 0}], "hex": "010000000159aba7c084a15645dfb3bc537c8d10e21dede0a746455b5cf9c2f732e15b7ef7010000006b483045022100ac2d7f9edfe926ef016810e8b4178afdc7c951162b7e3fd9577cedd22e234f0402204180544d0a6be06d042905ccf43a93fde340f2fcecc4bbe311a3d3870c6db59901210284d7024b9e9dbdd5148a5ef61cc7223cbc487bbe68bd9a47dfdb25b8dab4c5eeffffffff0123372000000000001976a914aed15681aa8c68b19ab1efa1aa2ea277c259c7b288ac00000000", "vin": [{"sequence": 4294967295, "scriptSig": {"hex": "483045022100ac2d7f9edfe926ef016810e8b4178afdc7c951162b7e3fd9577cedd22e234f0402204180544d0a6be06d042905ccf43a93fde340f2fcecc4bbe311a3d3870c6db59901210284d7024b9e9dbdd5148a5ef61cc7223cbc487bbe68bd9a47dfdb25b8dab4c5ee", "asm": "3045022100ac2d7f9edfe926ef016810e8b4178afdc7c951162b7e3fd9577cedd22e234f0402204180544d0a6be06d042905ccf43a93fde340f2fcecc4bbe311a3d3870c6db599[ALL] 0284d7024b9e9dbdd5148a5ef61cc7223cbc487bbe68bd9a47dfdb25b8dab4c5ee"}, "vout": 1, "txid": "f77e5be132f7c2f95c5b4546a7e0ed1de2108d7c53bcb3df4556a184c0a7ab59"}], "txid": "14c6666a91e3c7777f5176669d0340357643e79b2fbfdd89e65c5ec2ba2763cf", "blocktime": 1537871767, "version": 1, "confirmations": 11495, "time": 1537871767, "locktime": 0, "vsize": 192, "size": 192}