{"hash": "d52f45734000bfb44c189831f2f1269486949ebd25948d1fb7fa1f4afb8058fb", "blockhash": "0000000000000000000dcc0f55137456b1a82d3642486a52398922ac4d620174", "vout": [{"scriptPubKey": {"reqSigs": 1, "hex": "a914f80e1ec00d23a409957455a488fb60201fad677c87", "addresses": ["3QJcRCbPUBBGHqkSzc6jpZQBvTPm41knWr"], "asm": "OP_HASH160 f80e1ec00d23a409957455a488fb60201fad677c OP_EQUAL", "type": "scripthash"}, "value": 0.00132967, "n": 0}, {"scriptPubKey": {"reqSigs": 1, "hex": "a914414cec0fc72a9410f6836edaf08de1aa3b2a321c87", "addresses": ["37eHzewnAFRR2SVZu8rZM3nBsmuE2XBU7D"], "asm": "OP_HASH160 414cec0fc72a9410f6836edaf08de1aa3b2a321c OP_EQUAL", "type": "scripthash"}, "value": 0.31217383, "n": 1}], "hex": "01000000000101727d83077d067280129f9dc824e73e234a58f768ae01970c17f8dfd3cf561c2a0100000023220020ce74cde37cfb8dd71d0179287e12fc721ee236ce3c89c2745bcd365b39807eb3ffffffff02670702000000000017a914f80e1ec00d23a409957455a488fb60201fad677c87e756dc010000000017a914414cec0fc72a9410f6836edaf08de1aa3b2a321c870400483045022100b4e21398ca72a4749e10456a0f087212d3e022a517d10e53bd45a584f50a851402203b185ecde5d427d149805022b3b1d55b24d89d3a4611265d3c0c69bd195d0fe90147304402200e2b6ef2f70c66ec7287fa3672a199fb97256c9d74b7178e863ae64fb4652289022051dd7a289f2e1093fcdff82157c44be34f622a5be300f391b3eb6238b8bb69870147522103ada901d90d5a76319a60f228e0b1bbc84b1d9a87238550bae5d5d190067b66712103871fc2ca08e6950b38867e8e6a0e94ee625223d3aa0df5c65f414c6d784467e252ae00000000", "vin": [{"txinwitness": ["", "3045022100b4e21398ca72a4749e10456a0f087212d3e022a517d10e53bd45a584f50a851402203b185ecde5d427d149805022b3b1d55b24d89d3a4611265d3c0c69bd195d0fe901", "304402200e2b6ef2f70c66ec7287fa3672a199fb97256c9d74b7178e863ae64fb4652289022051dd7a289f2e1093fcdff82157c44be34f622a5be300f391b3eb6238b8bb698701", "522103ada901d90d5a76319a60f228e0b1bbc84b1d9a87238550bae5d5d190067b66712103871fc2ca08e6950b38867e8e6a0e94ee625223d3aa0df5c65f414c6d784467e252ae"], "sequence": 4294967295, "scriptSig": {"hex": "220020ce74cde37cfb8dd71d0179287e12fc721ee236ce3c89c2745bcd365b39807eb3", "asm": "0020ce74cde37cfb8dd71d0179287e12fc721ee236ce3c89c2745bcd365b39807eb3"}, "vout": 1, "txid": "2a1c56cfd3dff8170c9701ae68f7584a233ee724c89d9f128072067d07837d72"}], "txid": "14c8637effb331bc41cf878e20e4f925b172af64c216615496939c51ce63068c", "blocktime": 1537870268, "version": 1, "confirmations": 11518, "time": 1537870268, "locktime": 0, "vsize": 206, "size": 371}