{"hash": "8c35083500bf94d4ffb24743934a353e82bd72b1c58c18ea3cfd77beecaf0710", "blockhash": "00000000000000000004ffacab907a6b429b9a5745fa0b75af4234bf69dd7176", "vout": [{"scriptPubKey": {"reqSigs": 1, "hex": "a914ad2b214ff45c648b0271e6dd418c85f70a6e2b6b87", "addresses": ["3HUeVTsa3pw1dNcqY4Tv3Lr9RMdA1WQfxa"], "asm": "OP_HASH160 ad2b214ff45c648b0271e6dd418c85f70a6e2b6b OP_EQUAL", "type": "scripthash"}, "value": 0.0002, "n": 0}, {"scriptPubKey": {"reqSigs": 1, "hex": "a914319ed58f2c2cd29bcdec815c8312c74ab2445e8987", "addresses": ["36DPJwNVE2aRKpggEgrUCLDU7PHDCacACx"], "asm": "OP_HASH160 319ed58f2c2cd29bcdec815c8312c74ab2445e89 OP_EQUAL", "type": "scripthash"}, "value": 0.0024266, "n": 1}, {"scriptPubKey": {"reqSigs": 1, "hex": "a9143f5c6d68414b71003663634ee07d7ed853f08db087", "addresses": ["37U3DbVQ65GqCh4v4hY1ymVb6SrhtDiDmk"], "asm": "OP_HASH160 3f5c6d68414b71003663634ee07d7ed853f08db0 OP_EQUAL", "type": "scripthash"}, "value": 0.00026477, "n": 2}], "hex": "01000000000102fe19335a01129ee0d2fa2a21ea9a8b67fa7d22036713bc69ebb8a7a9f8cc08f40200000017160014089cdf8aca0e37eb50c9155226f24933082e3939fdffffffb381082dc28fc1b7b75e67ebf01604d5a2a5dc6132d3fe7f8ca34b92f1b80b100000000017160014089cdf8aca0e37eb50c9155226f24933082e3939fdffffff03204e00000000000017a914ad2b214ff45c648b0271e6dd418c85f70a6e2b6b87e4b303000000000017a914319ed58f2c2cd29bcdec815c8312c74ab2445e89876d6700000000000017a9143f5c6d68414b71003663634ee07d7ed853f08db087024730440220211c9672799957cf4badb82b7738250af89e8234f5ee252643c7ca162f2d8b21022034784cf653f003721178fc242b63ebb09b540c2f3fe7cb440ed3069961d52122012102ac1256168702e3e6bd3a2431fba5c5c832a90e20f047874cd6bc3b7544ff22c30247304402204f925bb02b853c8e2635a98083cb0b73dbab97366faed9b9f65957a30f4df7da02200962d0ba0df2e963056c494c58137967f1ed42e7ef9c8d9b2e4475b441841527012102ac1256168702e3e6bd3a2431fba5c5c832a90e20f047874cd6bc3b7544ff22c300000000", "vin": [{"txinwitness": ["30440220211c9672799957cf4badb82b7738250af89e8234f5ee252643c7ca162f2d8b21022034784cf653f003721178fc242b63ebb09b540c2f3fe7cb440ed3069961d5212201", "02ac1256168702e3e6bd3a2431fba5c5c832a90e20f047874cd6bc3b7544ff22c3"], "sequence": 4294967293, "scriptSig": {"hex": "160014089cdf8aca0e37eb50c9155226f24933082e3939", "asm": "0014089cdf8aca0e37eb50c9155226f24933082e3939"}, "vout": 2, "txid": "f408ccf8a9a7b8eb69bc136703227dfa678b9aea212afad2e09e12015a3319fe"}, {"txinwitness": ["304402204f925bb02b853c8e2635a98083cb0b73dbab97366faed9b9f65957a30f4df7da02200962d0ba0df2e963056c494c58137967f1ed42e7ef9c8d9b2e4475b44184152701", "02ac1256168702e3e6bd3a2431fba5c5c832a90e20f047874cd6bc3b7544ff22c3"], "sequence": 4294967293, "scriptSig": {"hex": "160014089cdf8aca0e37eb50c9155226f24933082e3939", "asm": "0014089cdf8aca0e37eb50c9155226f24933082e3939"}, "vout": 0, "txid": "100bb8f1924ba38c7ffed33261dca5a2d50416f0eb675eb7b7c18fc22d0881b3"}], "txid": "14cc995e13de1f4ada6e49c63021af184dd8a9b13d0699c2a539fb428ba56ba4", "blocktime": 1537875543, "version": 1, "confirmations": 11464, "time": 1537875543, "locktime": 0, "vsize": 288, "size": 450}