{"hash": "14d69ff56a2ac62c38e89e70f4480013ca52c444bd7de914e585a3e7cf56beb0", "blockhash": "0000000000000000001cda96e906b7601b7a6fb1a3b62bca570a9e5d8f4b3de1", "vout": [{"scriptPubKey": {"reqSigs": 1, "hex": "76a9149d8ff15575eb50a2f276b4ebcf614befdef81c4688ac", "addresses": ["1FN7XS4zSMfycsEDhbCBivAEQ1y6YKz6uR"], "asm": "OP_DUP OP_HASH160 9d8ff15575eb50a2f276b4ebcf614befdef81c46 OP_EQUALVERIFY OP_CHECKSIG", "type": "pubkeyhash"}, "value": 0.0001, "n": 0}, {"scriptPubKey": {"reqSigs": 1, "hex": "76a91435def1c0ffaa464607e68fc46679f55fcf2fc20788ac", "addresses": ["15uqtcW6cMvbZHA8CWruHxexnVmkXaKNfw"], "asm": "OP_DUP OP_HASH160 35def1c0ffaa464607e68fc46679f55fcf2fc207 OP_EQUALVERIFY OP_CHECKSIG", "type": "pubkeyhash"}, "value": 0.0011, "n": 1}], "hex": "0100000001f0d8df7047f6a606621975bb65067a227f8a5223ba90055dd58cade0f0bab1a3010000006a47304402200b3a7c9ce7ac4dc2316f2c95d0cafe11e84b344ef9834f2513cf16ec3fb2c39302203fb8ed47f3f347d4ba5c1d404c215e918b07a0b6382677689f0d14095a6070750121038b026e2fd3220a77ebf8f463f90f8cf634712a923d018bf0900629757ae131adffffffff0210270000000000001976a9149d8ff15575eb50a2f276b4ebcf614befdef81c4688acb0ad0100000000001976a91435def1c0ffaa464607e68fc46679f55fcf2fc20788ac00000000", "vin": [{"sequence": 4294967295, "scriptSig": {"hex": "47304402200b3a7c9ce7ac4dc2316f2c95d0cafe11e84b344ef9834f2513cf16ec3fb2c39302203fb8ed47f3f347d4ba5c1d404c215e918b07a0b6382677689f0d14095a6070750121038b026e2fd3220a77ebf8f463f90f8cf634712a923d018bf0900629757ae131ad", "asm": "304402200b3a7c9ce7ac4dc2316f2c95d0cafe11e84b344ef9834f2513cf16ec3fb2c39302203fb8ed47f3f347d4ba5c1d404c215e918b07a0b6382677689f0d14095a607075[ALL] 038b026e2fd3220a77ebf8f463f90f8cf634712a923d018bf0900629757ae131ad"}, "vout": 1, "txid": "a3b1baf0e0ad8cd55d0590ba23528a7f227a0665bb75196206a6f64770dfd8f0"}], "txid": "14d69ff56a2ac62c38e89e70f4480013ca52c444bd7de914e585a3e7cf56beb0", "blocktime": 1537873282, "version": 1, "confirmations": 11480, "time": 1537873282, "locktime": 0, "vsize": 225, "size": 225}