{"hash": "14d814ecf8bc731013369fa99ce32355391e2fab447428330a204701896aa2cc", "blockhash": "00000000000000000004ffacab907a6b429b9a5745fa0b75af4234bf69dd7176", "vout": [{"scriptPubKey": {"reqSigs": 1, "hex": "76a914f9b3d4c261b7498975087df51d25ec17b3fef3cf88ac", "addresses": ["1PmJgeeLPgqKFEzm9aG51YLjSvuDjSVhwd"], "asm": "OP_DUP OP_HASH160 f9b3d4c261b7498975087df51d25ec17b3fef3cf OP_EQUALVERIFY OP_CHECKSIG", "type": "pubkeyhash"}, "value": 0.00039049, "n": 0}, {"scriptPubKey": {"reqSigs": 1, "hex": "a9148e4c96c5aac8bf6781379901135ce2158db98b2087", "addresses": ["3EfRdH3eZt5hsE3zipT1LFVmgCTyx4LRsd"], "asm": "OP_HASH160 8e4c96c5aac8bf6781379901135ce2158db98b20 OP_EQUAL", "type": "scripthash"}, "value": 0.01177311, "n": 1}], "hex": "01000000016a9318fa754817106eaa11e77e4befc2eadd2e736d3561836241cf73bee44693010000006b483045022100ed53b99f84751c330c3e595e8b958155fc56ad4c7c9342380d4d9f4070c5ad8d02202a34c99125cf1e9c944b2b3f2a13015a7f578a39bb1cd240ef005fc4ef3719d0012102bc0f41b285efe189394f69f4ccee1b1f072dadad0039ebbad227d9a1603a96f1ffffffff0289980000000000001976a914f9b3d4c261b7498975087df51d25ec17b3fef3cf88acdff611000000000017a9148e4c96c5aac8bf6781379901135ce2158db98b208700000000", "vin": [{"sequence": 4294967295, "scriptSig": {"hex": "483045022100ed53b99f84751c330c3e595e8b958155fc56ad4c7c9342380d4d9f4070c5ad8d02202a34c99125cf1e9c944b2b3f2a13015a7f578a39bb1cd240ef005fc4ef3719d0012102bc0f41b285efe189394f69f4ccee1b1f072dadad0039ebbad227d9a1603a96f1", "asm": "3045022100ed53b99f84751c330c3e595e8b958155fc56ad4c7c9342380d4d9f4070c5ad8d02202a34c99125cf1e9c944b2b3f2a13015a7f578a39bb1cd240ef005fc4ef3719d0[ALL] 02bc0f41b285efe189394f69f4ccee1b1f072dadad0039ebbad227d9a1603a96f1"}, "vout": 1, "txid": "9346e4be73cf41628361356d732eddeac2ef4b7ee711aa6e10174875fa18936a"}], "txid": "14d814ecf8bc731013369fa99ce32355391e2fab447428330a204701896aa2cc", "blocktime": 1537875543, "version": 1, "confirmations": 11464, "time": 1537875543, "locktime": 0, "vsize": 224, "size": 224}