{"hash": "14dc013905c770a9131516505207f23c9abdfc9a6bf131d1351caac8d8d2035a", "blockhash": "0000000000000000000baef3f32e3676a92c3b2e5da21b426e4f302fc371ce76", "vout": [{"scriptPubKey": {"reqSigs": 1, "hex": "76a914cea6b8d38f43f9b2ad0ab1029e4f0326c74a0a5288ac", "addresses": ["1KqfvZfa6dfabwQNWJsC66JNBoPGNAZLUK"], "asm": "OP_DUP OP_HASH160 cea6b8d38f43f9b2ad0ab1029e4f0326c74a0a52 OP_EQUALVERIFY OP_CHECKSIG", "type": "pubkeyhash"}, "value": 0.00066, "n": 0}, {"scriptPubKey": {"reqSigs": 1, "hex": "76a9140b5390eace1fd41b89db833dd50120babb7f04cd88ac", "addresses": ["122tYPEdPw4KcmB7RwMGwRGPXEQZXeJTAy"], "asm": "OP_DUP OP_HASH160 0b5390eace1fd41b89db833dd50120babb7f04cd OP_EQUALVERIFY OP_CHECKSIG", "type": "pubkeyhash"}, "value": 0.1497396, "n": 1}], "hex": "010000000155c0961dc2703788d40780b5a7bc53eb4c545cad5265cf1a45d8f7c4b71d6299000000006a47304402203eb975ad349b8b7fe2d521e8ccfd4531ce94b529bcb1b233ce6e527242c0ae23022032cba267dec5e3e8593f0e8fb45f072a94993103aba56d6872d3aa6016b83d85012103112fcd330192385e0722cabecbc3640ece22f51b8671f9650093fc7c625ac00ffeffffff02d0010100000000001976a914cea6b8d38f43f9b2ad0ab1029e4f0326c74a0a5288ac087ce400000000001976a9140b5390eace1fd41b89db833dd50120babb7f04cd88ac17490800", "vin": [{"sequence": 4294967294, "scriptSig": {"hex": "47304402203eb975ad349b8b7fe2d521e8ccfd4531ce94b529bcb1b233ce6e527242c0ae23022032cba267dec5e3e8593f0e8fb45f072a94993103aba56d6872d3aa6016b83d85012103112fcd330192385e0722cabecbc3640ece22f51b8671f9650093fc7c625ac00f", "asm": "304402203eb975ad349b8b7fe2d521e8ccfd4531ce94b529bcb1b233ce6e527242c0ae23022032cba267dec5e3e8593f0e8fb45f072a94993103aba56d6872d3aa6016b83d85[ALL] 03112fcd330192385e0722cabecbc3640ece22f51b8671f9650093fc7c625ac00f"}, "vout": 0, "txid": "99621db7c4f7d8451acf6552ad5c544ceb53bca7b58007d4883770c21d96c055"}], "txid": "14dc013905c770a9131516505207f23c9abdfc9a6bf131d1351caac8d8d2035a", "blocktime": 1537876114, "version": 1, "confirmations": 11459, "time": 1537876114, "locktime": 542999, "vsize": 225, "size": 225}