{"hash": "14e290a54c176408aba61acf54627e8d0dd3d90b167b1736aedab0a6d83e17a7", "blockhash": "00000000000000000004ffacab907a6b429b9a5745fa0b75af4234bf69dd7176", "vout": [{"scriptPubKey": {"reqSigs": 1, "hex": "a914e320bbb91aee19b5fe08b954263ab660353b081d87", "addresses": ["3NPxXSNqz5vndsky2QQLTknKjqREnehZn9"], "asm": "OP_HASH160 e320bbb91aee19b5fe08b954263ab660353b081d OP_EQUAL", "type": "scripthash"}, "value": 0.0039, "n": 0}, {"scriptPubKey": {"reqSigs": 1, "hex": "76a914df95d50468f719866763551ebbc826a94643b60288ac", "addresses": ["1MPDBJ73JpuvyDZmhdzY1DutBUcdLaZmf5"], "asm": "OP_DUP OP_HASH160 df95d50468f719866763551ebbc826a94643b602 OP_EQUALVERIFY OP_CHECKSIG", "type": "pubkeyhash"}, "value": 6.545e-05, "n": 1}], "hex": "010000000293e39d00b8345ef031b52a7dff6e9837d663ea665ddcb40704bc8fcbf8baddb5020000006b4830450221009e9b9feccc76d64ab2f11174a5e0c7623ca172e220ab0e21540764fab7c5503e0220369e55f24ba02b01ccc5348644962687982640b2caa997cdfd0b3a5d6463e38b01210303b9ec3887f691376cd11158f215a57cae7ec6b7c303110d918b8ac4e8b2392effffffff0adf490f58e5ccbbc5d7d9e2a9de56d16566974e30cb2851322464fd623752d7010000006b483045022100df56724c9cad0bf10d7a461116beb1c3d0623fc718bcb1b6a02e1e2658a33cd302204d20d38620dd32f639280049ead7ee3db0d9a708b6b93fadfb3dff3ede8b3041012103f19235b748fe4b3366894f94a47bd99fa5a96697601af83fe9a5f758310a9e70ffffffff0270f305000000000017a914e320bbb91aee19b5fe08b954263ab660353b081d8791190000000000001976a914df95d50468f719866763551ebbc826a94643b60288ac00000000", "vin": [{"sequence": 4294967295, "scriptSig": {"hex": "4830450221009e9b9feccc76d64ab2f11174a5e0c7623ca172e220ab0e21540764fab7c5503e0220369e55f24ba02b01ccc5348644962687982640b2caa997cdfd0b3a5d6463e38b01210303b9ec3887f691376cd11158f215a57cae7ec6b7c303110d918b8ac4e8b2392e", "asm": "30450221009e9b9feccc76d64ab2f11174a5e0c7623ca172e220ab0e21540764fab7c5503e0220369e55f24ba02b01ccc5348644962687982640b2caa997cdfd0b3a5d6463e38b[ALL] 0303b9ec3887f691376cd11158f215a57cae7ec6b7c303110d918b8ac4e8b2392e"}, "vout": 2, "txid": "b5ddbaf8cb8fbc0407b4dc5d66ea63d637986eff7d2ab531f05e34b8009de393"}, {"sequence": 4294967295, "scriptSig": {"hex": "483045022100df56724c9cad0bf10d7a461116beb1c3d0623fc718bcb1b6a02e1e2658a33cd302204d20d38620dd32f639280049ead7ee3db0d9a708b6b93fadfb3dff3ede8b3041012103f19235b748fe4b3366894f94a47bd99fa5a96697601af83fe9a5f758310a9e70", "asm": "3045022100df56724c9cad0bf10d7a461116beb1c3d0623fc718bcb1b6a02e1e2658a33cd302204d20d38620dd32f639280049ead7ee3db0d9a708b6b93fadfb3dff3ede8b3041[ALL] 03f19235b748fe4b3366894f94a47bd99fa5a96697601af83fe9a5f758310a9e70"}, "vout": 1, "txid": "d7523762fd6424325128cb304e976665d156dea9e2d9d7c5bbcce5580f49df0a"}], "txid": "14e290a54c176408aba61acf54627e8d0dd3d90b167b1736aedab0a6d83e17a7", "blocktime": 1537875543, "version": 1, "confirmations": 11464, "time": 1537875543, "locktime": 0, "vsize": 372, "size": 372}