{"hash": "fde658fb7a3c883b285a1156a201cc802ce4e7caa00659bacba67a89f484ea96", "blockhash": "0000000000000000000e13cef7c366c0283d82e591d1acd082e914b08063cdf1", "vout": [{"scriptPubKey": {"reqSigs": 1, "hex": "76a9143367d90d8e81c2fcda8cf820af6a25f4971d20f488ac", "addresses": ["15gosG3YN1sMNiAr1SAeaUAhRdzEZQ1KHo"], "asm": "OP_DUP OP_HASH160 3367d90d8e81c2fcda8cf820af6a25f4971d20f4 OP_EQUALVERIFY OP_CHECKSIG", "type": "pubkeyhash"}, "value": 0.062289, "n": 0}, {"scriptPubKey": {"reqSigs": 1, "hex": "a9149fedd0435a5346d19e10dbf067501f04f6a02d3687", "addresses": ["3GGeFcpTvbKcU9so2Fz4C8o4V2C9Du9Ngp"], "asm": "OP_HASH160 9fedd0435a5346d19e10dbf067501f04f6a02d36 OP_EQUAL", "type": "scripthash"}, "value": 6.50615028, "n": 1}], "hex": "010000000001016631c0716eec4702cff462000bf7916c3ab4dc576c13f85375d0bbe8725563a10100000023220020bdce0b87be1099509aee666bf280d91936d77265b9626a3811efa68c794ec6d9ffffffff02a40b5f00000000001976a9143367d90d8e81c2fcda8cf820af6a25f4971d20f488acf498c7260000000017a9149fedd0435a5346d19e10dbf067501f04f6a02d36870400483045022100c80aeb72f151e8ab9cd4fbde50009ef42da73116c7245f24f0ba7ff654cbcc62022009c6bc7954ef38ebf7a2a1b8443d46d1dd859651d03e9333502f577e9976443c01483045022100b651828c64eec0470eafe69402b3d7bbd4fa442d0fbca7b22acacf2ced9dbfb6022039f5553f0f510a48be5258686377397537f02f5113379e74d680a0bfafc8a17c0147522103eb143395e1f431f678a743f1647f1b19b73b3255e6eb16378dc614c75af6729821022a8a912ad76544ca20f666a2071879d22db3f19b68028bfb6e15e148dbbe91a252ae00000000", "vin": [{"txinwitness": ["", "3045022100c80aeb72f151e8ab9cd4fbde50009ef42da73116c7245f24f0ba7ff654cbcc62022009c6bc7954ef38ebf7a2a1b8443d46d1dd859651d03e9333502f577e9976443c01", "3045022100b651828c64eec0470eafe69402b3d7bbd4fa442d0fbca7b22acacf2ced9dbfb6022039f5553f0f510a48be5258686377397537f02f5113379e74d680a0bfafc8a17c01", "522103eb143395e1f431f678a743f1647f1b19b73b3255e6eb16378dc614c75af6729821022a8a912ad76544ca20f666a2071879d22db3f19b68028bfb6e15e148dbbe91a252ae"], "sequence": 4294967295, "scriptSig": {"hex": "220020bdce0b87be1099509aee666bf280d91936d77265b9626a3811efa68c794ec6d9", "asm": "0020bdce0b87be1099509aee666bf280d91936d77265b9626a3811efa68c794ec6d9"}, "vout": 1, "txid": "a1635572e8bbd07553f8136c57dcb43a6c91f70b0062f4cf0247ec6e71c03166"}], "txid": "14e4acf012cee854e5c10cae0425f95dd5e6fb546dbf56acb095f44587d20f26", "blocktime": 1537871767, "version": 1, "confirmations": 11495, "time": 1537871767, "locktime": 0, "vsize": 208, "size": 374}