{"hash": "818171b2b32e8e6dca706096835314c84c9486828a7b1b16abce43e21246f55c", "blockhash": "0000000000000000000e13cef7c366c0283d82e591d1acd082e914b08063cdf1", "vout": [{"scriptPubKey": {"reqSigs": 1, "hex": "76a91496d9be9e038ab5b2ed0ed2b27038b3461819e04088ac", "addresses": ["1EkdCwCgGSDeUapLfwVSK54GJE4RbLwsKW"], "asm": "OP_DUP OP_HASH160 96d9be9e038ab5b2ed0ed2b27038b3461819e040 OP_EQUALVERIFY OP_CHECKSIG", "type": "pubkeyhash"}, "value": 0.02139458, "n": 0}, {"scriptPubKey": {"reqSigs": 1, "hex": "001497afefc3eda70952fcfd5cedd678e1275fd6fe5b", "addresses": ["bc1qj7h7lsld5uy49l8atnkav78pya0adljmn9jmh9"], "asm": "0 97afefc3eda70952fcfd5cedd678e1275fd6fe5b", "type": "witness_v0_keyhash"}, "value": 0.00211994, "n": 1}], "hex": "01000000000101afcd37a5d46b9c90763ec2ebc45d79982a662ce0568b88f9e178c6437200ae210000000000ffffffff0242a52000000000001976a91496d9be9e038ab5b2ed0ed2b27038b3461819e04088ac1a3c03000000000016001497afefc3eda70952fcfd5cedd678e1275fd6fe5b02483045022100d683fb9ced75de44654d6350c495d42a4599cd2596d44ea3f8f6595d0804e3560220765748d98674c6f26f6ad434e553dc6990bf2b19494d6ade9b29958cfc99df72012102a4d70c7c43bf7e2f51b42aeb18238fd4e6840ab0b0f0d0010426f86b87a2e00500000000", "vin": [{"txinwitness": ["3045022100d683fb9ced75de44654d6350c495d42a4599cd2596d44ea3f8f6595d0804e3560220765748d98674c6f26f6ad434e553dc6990bf2b19494d6ade9b29958cfc99df7201", "02a4d70c7c43bf7e2f51b42aeb18238fd4e6840ab0b0f0d0010426f86b87a2e005"], "sequence": 4294967295, "scriptSig": {"hex": "", "asm": ""}, "vout": 0, "txid": "21ae007243c678e1f9888b56e02c662a98795dc4ebc23e76909c6bd4a537cdaf"}], "txid": "14e53496843998d1e09c0e36ae9b1c656a4d6d287c6e02beee13085b30188f14", "blocktime": 1537871767, "version": 1, "confirmations": 11495, "time": 1537871767, "locktime": 0, "vsize": 144, "size": 226}