{"hash": "b75c836a6a1dabb2e382794d5446d322501485b70dcdf4525182f70f106aca39", "blockhash": "0000000000000000001f76057863aec43deb6fa401d9628bb513d65a8098bfab", "vout": [{"scriptPubKey": {"reqSigs": 1, "hex": "a9143df0e59825fdcc532d9dd779369c263af5e25c9687", "addresses": ["37LXj3ynPbaBRc1i8MYQpmMTg55ZWLG8DX"], "asm": "OP_HASH160 3df0e59825fdcc532d9dd779369c263af5e25c96 OP_EQUAL", "type": "scripthash"}, "value": 0.00018, "n": 0}, {"scriptPubKey": {"reqSigs": 1, "hex": "0014b9fed21f68783bd731ed15da87133df6b17ab187", "addresses": ["bc1qh8ldy8mg0qaawv0dzhdgwyea76ch4vv8ce9y4m"], "asm": "0 b9fed21f68783bd731ed15da87133df6b17ab187", "type": "witness_v0_keyhash"}, "value": 1.048e-05, "n": 1}], "hex": "010000000001019aa3955ce700c1de8c924585452da20c92b455613598313597d91f80a6cf1bac0000000000ffffffff02504600000000000017a9143df0e59825fdcc532d9dd779369c263af5e25c96871804000000000000160014b9fed21f68783bd731ed15da87133df6b17ab18702473044022058783df065777c8b6abef03e1caffcc8b22d4902fdcbb911475c64754609159702203813304104cce2b857c7eb14d208153b0104ee2e791f1abf5fc233ca333f223f0121020d108caed82d0db8416de45595090c0e6e0cb1ff63c84840c4c41b45b5d0b5bd00000000", "vin": [{"txinwitness": ["3044022058783df065777c8b6abef03e1caffcc8b22d4902fdcbb911475c64754609159702203813304104cce2b857c7eb14d208153b0104ee2e791f1abf5fc233ca333f223f01", "020d108caed82d0db8416de45595090c0e6e0cb1ff63c84840c4c41b45b5d0b5bd"], "sequence": 4294967295, "scriptSig": {"hex": "", "asm": ""}, "vout": 0, "txid": "ac1bcfa6801fd997353198356155b4920ca22d458545928cdec100e75c95a39a"}], "txid": "14f315c066f591219260da3f7915f0b66e33dfe7e13a1129068cdc057572358d", "blocktime": 1537873891, "version": 1, "confirmations": 11478, "time": 1537873891, "locktime": 0, "vsize": 142, "size": 223}