{"hash": "c7beb5750c408c57f993740acbd33b7af217213ba2985fad6c035167121d3eaa", "blockhash": "0000000000000000001f0ddff1eddb255c1121bcd4da4f1bc9a0da00cae72433", "vout": [{"scriptPubKey": {"reqSigs": 1, "hex": "76a914a9fe6a270995b7a90c7b76306e07a17d2f93509588ac", "addresses": ["1GVqyTfPwJju6kphWzMCGxDkzACUPEAk1a"], "asm": "OP_DUP OP_HASH160 a9fe6a270995b7a90c7b76306e07a17d2f935095 OP_EQUALVERIFY OP_CHECKSIG", "type": "pubkeyhash"}, "value": 0.0073336, "n": 0}, {"scriptPubKey": {"reqSigs": 1, "hex": "a914a812044a7a30821dd45d88522dbc3546286f8cff87", "addresses": ["3H1h2bdEaQ6LD2XTsUg9M9XztKkZEfb4iJ"], "asm": "OP_HASH160 a812044a7a30821dd45d88522dbc3546286f8cff OP_EQUAL", "type": "scripthash"}, "value": 0.00998964, "n": 1}], "hex": "020000000001023877a772c9eece8bff0774020bdeaa6407ca8760ab2e0938cfee801bc163285d0800000017160014b40a4c97fc6d8549a9260735efcf81d21d24778ffefffffff699226f4a310adbf72087bb51c345e2e62ccad54b33baaf9c910306d25790aa01000000171600141f293fcde4f2ed38425203460d100866efceb550feffffff02b0300b00000000001976a914a9fe6a270995b7a90c7b76306e07a17d2f93509588ac343e0f000000000017a914a812044a7a30821dd45d88522dbc3546286f8cff8702483045022100c8e3c717d24699f5c22ce783b817dfb37cd624bdff26b87bcd64e8858f391c300220380e796dcd5aca08efcef7cbf4d465e6084e9a34b7feb8696746efabddf4a2b9012103bcb7c7cea4deebae7e207a2b750d32d3b413e3e72032d84dae716e08cb220ccf02483045022100fa0c4e58548d971b2a22ce1a5cb849a6114d475efc4589804096b7887f4ceca3022078aa6730975e75a8b2882a1b54b1844398fdff9be9b4fdbed5174d8d6445889a01210239a509f3ee6b00f642f42767ecdcd07e8c9d71e93948558230adfc3c3059b765bb480800", "vin": [{"txinwitness": ["3045022100c8e3c717d24699f5c22ce783b817dfb37cd624bdff26b87bcd64e8858f391c300220380e796dcd5aca08efcef7cbf4d465e6084e9a34b7feb8696746efabddf4a2b901", "03bcb7c7cea4deebae7e207a2b750d32d3b413e3e72032d84dae716e08cb220ccf"], "sequence": 4294967294, "scriptSig": {"hex": "160014b40a4c97fc6d8549a9260735efcf81d21d24778f", "asm": "0014b40a4c97fc6d8549a9260735efcf81d21d24778f"}, "vout": 8, "txid": "5d2863c11b80eecf38092eab6087ca0764aade0b027407ff8bceeec972a77738"}, {"txinwitness": ["3045022100fa0c4e58548d971b2a22ce1a5cb849a6114d475efc4589804096b7887f4ceca3022078aa6730975e75a8b2882a1b54b1844398fdff9be9b4fdbed5174d8d6445889a01", "0239a509f3ee6b00f642f42767ecdcd07e8c9d71e93948558230adfc3c3059b765"], "sequence": 4294967294, "scriptSig": {"hex": "1600141f293fcde4f2ed38425203460d100866efceb550", "asm": "00141f293fcde4f2ed38425203460d100866efceb550"}, "vout": 1, "txid": "aa9057d20603919cafba334bd5ca2ce6e245c351bb8720f7db0a314a6f2299f6"}], "txid": "14f5583bcd3bae6532dc2a8df5eb91cd1d7eca2570f979990cd504927c9a7637", "blocktime": 1537872018, "version": 2, "confirmations": 11489, "time": 1537872018, "locktime": 542907, "vsize": 259, "size": 422}