{"hash": "3669f895229cf7bed46b9a48e8ce3ce68f1cbc2d5c468f1927167a75d6e52865", "blockhash": "0000000000000000000e13cef7c366c0283d82e591d1acd082e914b08063cdf1", "vout": [{"scriptPubKey": {"reqSigs": 1, "hex": "0014bb41c42179d72f3d1436f07d2ced0e698b76e30b", "addresses": ["bc1qhdquggte6uhn69pk7p7jemgwdx9hdcct3wh4ut"], "asm": "0 bb41c42179d72f3d1436f07d2ced0e698b76e30b", "type": "witness_v0_keyhash"}, "value": 1.21e-05, "n": 0}, {"scriptPubKey": {"reqSigs": 1, "hex": "a9149025b1a80de53ca222e5f80db6154101ac1d144687", "addresses": ["3EqCPBzVwu7Js1DSCN5HfEDKhcfVpS3pNN"], "asm": "OP_HASH160 9025b1a80de53ca222e5f80db6154101ac1d1446 OP_EQUAL", "type": "scripthash"}, "value": 0.000936, "n": 1}], "hex": "0100000000010185270e594f4d627a9779e42fee3387c22c3acb0e85513db657bae5ed4b64ddc20000000017160014819b6a46704b1c2825d307c347e87dbbf498febeffffffff02ba04000000000000160014bb41c42179d72f3d1436f07d2ced0e698b76e30ba06d01000000000017a9149025b1a80de53ca222e5f80db6154101ac1d144687024730440220534947cacc75d5ef31e8ad2da6f46565ec62879d58fdf3493c45de3b9d3e50d102204fbede32268ca47be2cbf7eb2ae8d74862f1ed42bd4bf462b22e335ce5e487390121028b423ee3c47df14327db8a72c11a0776aa09c427ade53bb329d7a4b9051a7a1400000000", "vin": [{"txinwitness": ["30440220534947cacc75d5ef31e8ad2da6f46565ec62879d58fdf3493c45de3b9d3e50d102204fbede32268ca47be2cbf7eb2ae8d74862f1ed42bd4bf462b22e335ce5e4873901", "028b423ee3c47df14327db8a72c11a0776aa09c427ade53bb329d7a4b9051a7a14"], "sequence": 4294967295, "scriptSig": {"hex": "160014819b6a46704b1c2825d307c347e87dbbf498febe", "asm": "0014819b6a46704b1c2825d307c347e87dbbf498febe"}, "vout": 0, "txid": "c2dd644bede5ba57b63d51850ecb3a2cc28733ee2fe479977a624d4f590e2785"}], "txid": "14faa70d32ed62fc4483828ec33765bb1eeff81c338f6d5e4e8ffae2bf535f44", "blocktime": 1537871767, "version": 1, "confirmations": 11495, "time": 1537871767, "locktime": 0, "vsize": 165, "size": 246}