{"hash": "14fba2530858b00a766fa2d18658a8f7553ec02030d293df6309684a8be1ebb7", "blockhash": "0000000000000000001f0ddff1eddb255c1121bcd4da4f1bc9a0da00cae72433", "vout": [{"scriptPubKey": {"reqSigs": 1, "hex": "76a914d243e6abb9a60fbff430b421d2df4b7d59ec186088ac", "addresses": ["1LAnF8h3qMGx3TSwNUHVneBZUEpwE4gu3D"], "asm": "OP_DUP OP_HASH160 d243e6abb9a60fbff430b421d2df4b7d59ec1860 OP_EQUALVERIFY OP_CHECKSIG", "type": "pubkeyhash"}, "value": 0.00076972, "n": 0}, {"scriptPubKey": {"reqSigs": 1, "hex": "76a9143851f34d13937b673a7d24a1950bb5b21ce94af388ac", "addresses": ["168o1kqNquEJeR9vosUB5fw4eAwcVAgh8P"], "asm": "OP_DUP OP_HASH160 3851f34d13937b673a7d24a1950bb5b21ce94af3 OP_EQUALVERIFY OP_CHECKSIG", "type": "pubkeyhash"}, "value": 5.46e-06, "n": 1}, {"scriptPubKey": {"type": "nulldata", "hex": "6a146f6d6e69000000000000001f00000022cee4f700", "asm": "OP_RETURN 6f6d6e69000000000000001f00000022cee4f700"}, "value": 0.0, "n": 2}], "hex": "01000000022b95a319062225660db423ba40055039f557fdc49ee15d1fb26e7eef81282056010000006a473044022041e38c88592bf4ae823bc46494d64617cd5ceac6bde928a8252cdc0da2b090fa02200241a103b83693d83582d332a369085b5f7cec5b6c88be0803a1307afea4d3d1012103da62e277e028734e0eb3a8086605548f50498e933fa12dcace59ad2f752e0f07ffffffff9441166e3f2f27a98e9af739a31f31f741ab048516bb08c1bc1da3f816b00242000000006b483045022100cff4079e8e00128f390244440aa7a4f4badc9cc09a9bf7306f11dd5b2a52449b02200ffa47487bfc2f82702e648143e818ffa127de92323eaf817a78e9a3de8aa5d101210271977291b74f1f5f5c42157e8aae804664eaaeccfd097918450d37f28fb94d77ffffffff03ac2c0100000000001976a914d243e6abb9a60fbff430b421d2df4b7d59ec186088ac22020000000000001976a9143851f34d13937b673a7d24a1950bb5b21ce94af388ac0000000000000000166a146f6d6e69000000000000001f00000022cee4f70000000000", "vin": [{"sequence": 4294967295, "scriptSig": {"hex": "473044022041e38c88592bf4ae823bc46494d64617cd5ceac6bde928a8252cdc0da2b090fa02200241a103b83693d83582d332a369085b5f7cec5b6c88be0803a1307afea4d3d1012103da62e277e028734e0eb3a8086605548f50498e933fa12dcace59ad2f752e0f07", "asm": "3044022041e38c88592bf4ae823bc46494d64617cd5ceac6bde928a8252cdc0da2b090fa02200241a103b83693d83582d332a369085b5f7cec5b6c88be0803a1307afea4d3d1[ALL] 03da62e277e028734e0eb3a8086605548f50498e933fa12dcace59ad2f752e0f07"}, "vout": 1, "txid": "56202881ef7e6eb21f5de19ec4fd57f539500540ba23b40d6625220619a3952b"}, {"sequence": 4294967295, "scriptSig": {"hex": "483045022100cff4079e8e00128f390244440aa7a4f4badc9cc09a9bf7306f11dd5b2a52449b02200ffa47487bfc2f82702e648143e818ffa127de92323eaf817a78e9a3de8aa5d101210271977291b74f1f5f5c42157e8aae804664eaaeccfd097918450d37f28fb94d77", "asm": "3045022100cff4079e8e00128f390244440aa7a4f4badc9cc09a9bf7306f11dd5b2a52449b02200ffa47487bfc2f82702e648143e818ffa127de92323eaf817a78e9a3de8aa5d1[ALL] 0271977291b74f1f5f5c42157e8aae804664eaaeccfd097918450d37f28fb94d77"}, "vout": 0, "txid": "4202b016f8a31dbcc108bb168504ab41f7311fa339f79a8ea9272f3f6e164194"}], "txid": "14fba2530858b00a766fa2d18658a8f7553ec02030d293df6309684a8be1ebb7", "blocktime": 1537872018, "version": 1, "confirmations": 11489, "time": 1537872018, "locktime": 0, "vsize": 404, "size": 404}