{"hash": "c9246d153393e65415af0d17656e7ce1a0ed5d758e918ee12f6d65c631a419a0", "blockhash": "0000000000000000000dcc0f55137456b1a82d3642486a52398922ac4d620174", "vout": [{"scriptPubKey": {"reqSigs": 1, "hex": "76a9140b401bd65c415262f916f2ff5bf57845b4983bfb88ac", "addresses": ["122VETt4Tzk5MmxDVpTPPu56y8C8QdQnrx"], "asm": "OP_DUP OP_HASH160 0b401bd65c415262f916f2ff5bf57845b4983bfb OP_EQUALVERIFY OP_CHECKSIG", "type": "pubkeyhash"}, "value": 0.01941872, "n": 0}, {"scriptPubKey": {"reqSigs": 1, "hex": "a9141988a27e3c2df4ddee7fad5a2303d086179b2a3087", "addresses": ["3422VtS7UtCvXYxoXMVp6eZupR252z85oC"], "asm": "OP_HASH160 1988a27e3c2df4ddee7fad5a2303d086179b2a30 OP_EQUAL", "type": "scripthash"}, "value": 2.84553991, "n": 1}], "hex": "0100000000010161dae1cdf122e664a2eb29a2d61d055178654f67b0ec98a4555a4e3b1de0519a010000002322002065d416c48a8072e0ac51c2d111eb194f009caef0332446c1bf2097316cf07fa9ffffffff0270a11d00000000001976a9140b401bd65c415262f916f2ff5bf57845b4983bfb88ac07f3f5100000000017a9141988a27e3c2df4ddee7fad5a2303d086179b2a3087040047304402203d7131a80aab724194750684835a17282f9b0470c61bcec2f26da68b7b83491502207ef45d2d7e099a6db802ac8277ff38e609f5ed8ac509e927dcf5980dc544d9e401483045022100fca39c1f5190ec000874fde7c027d0bf8f8d98983467274445028f1c3419472b022014db68dbbe07f208dfe7765a92339879139b4139163e4c5b294aee62c93d62b00169522102f44abcf9e23c9a460da309ccca56c619c04eed3bde2c2cff5e7d78fbcd980b9c2103c9443cf3047bb6c2c82f1b0c44c36109cdc3d0d601d16d1189a1602bf8d1a0a02103bfe867059274412412e088af5572b92168c2ef495cfe6c9b7a753a009eb37c4853ae00000000", "vin": [{"txinwitness": ["", "304402203d7131a80aab724194750684835a17282f9b0470c61bcec2f26da68b7b83491502207ef45d2d7e099a6db802ac8277ff38e609f5ed8ac509e927dcf5980dc544d9e401", "3045022100fca39c1f5190ec000874fde7c027d0bf8f8d98983467274445028f1c3419472b022014db68dbbe07f208dfe7765a92339879139b4139163e4c5b294aee62c93d62b001", "522102f44abcf9e23c9a460da309ccca56c619c04eed3bde2c2cff5e7d78fbcd980b9c2103c9443cf3047bb6c2c82f1b0c44c36109cdc3d0d601d16d1189a1602bf8d1a0a02103bfe867059274412412e088af5572b92168c2ef495cfe6c9b7a753a009eb37c4853ae"], "sequence": 4294967295, "scriptSig": {"hex": "22002065d416c48a8072e0ac51c2d111eb194f009caef0332446c1bf2097316cf07fa9", "asm": "002065d416c48a8072e0ac51c2d111eb194f009caef0332446c1bf2097316cf07fa9"}, "vout": 1, "txid": "9a51e01d3b4e5a55a498ecb0674f657851051dd6a229eba264e622f1cde1da61"}], "txid": "14fe33c002a819497a678bc2cbd8265f919932d5e09c265f08139180f000ded4", "blocktime": 1537870268, "version": 1, "confirmations": 11516, "time": 1537870268, "locktime": 0, "vsize": 216, "size": 407}