{"hash": "15005a879f901ffc5e0499800525ec70dbfbfdbaaeafd8c75cb6a7137f77c234", "blockhash": "00000000000000000018f53835495a110e01622372bf6ae95dc86f2b0ab887b0", "vout": [{"scriptPubKey": {"reqSigs": 1, "hex": "a91487e63264656366c22a4b7eff9597d1bdef8944e887", "addresses": ["3E5auoEm9QcDZ46f26WrUzqM2vugbJ2TUZ"], "asm": "OP_HASH160 87e63264656366c22a4b7eff9597d1bdef8944e8 OP_EQUAL", "type": "scripthash"}, "value": 0.00318468, "n": 0}, {"scriptPubKey": {"reqSigs": 1, "hex": "76a914345afc8008a500895bed5b792e2b68282d97ffef88ac", "addresses": ["15mq8pLSo1KYsPppoeSUGCEFSwPtMhLGct"], "asm": "OP_DUP OP_HASH160 345afc8008a500895bed5b792e2b68282d97ffef OP_EQUALVERIFY OP_CHECKSIG", "type": "pubkeyhash"}, "value": 0.00430146, "n": 1}], "hex": "0100000001efb793a0a65d02fe64207a449c36d58bc386353b7dd616ce8c4649500908fcfc010000006b483045022100b972fcd49ed050e24bd43ea8e42aa364c4676a5b4d53698fdac89f19bcbb547002205f7ebc7e2706df79293af9390fe8749e623cf2163d7888a74ec12baaed467d1b012102b5ca0884f8478746e53abff2a45d23de5d53a29ea22541ddb72e4545c31fd70effffffff0204dc04000000000017a91487e63264656366c22a4b7eff9597d1bdef8944e88742900600000000001976a914345afc8008a500895bed5b792e2b68282d97ffef88ac00000000", "vin": [{"sequence": 4294967295, "scriptSig": {"hex": "483045022100b972fcd49ed050e24bd43ea8e42aa364c4676a5b4d53698fdac89f19bcbb547002205f7ebc7e2706df79293af9390fe8749e623cf2163d7888a74ec12baaed467d1b012102b5ca0884f8478746e53abff2a45d23de5d53a29ea22541ddb72e4545c31fd70e", "asm": "3045022100b972fcd49ed050e24bd43ea8e42aa364c4676a5b4d53698fdac89f19bcbb547002205f7ebc7e2706df79293af9390fe8749e623cf2163d7888a74ec12baaed467d1b[ALL] 02b5ca0884f8478746e53abff2a45d23de5d53a29ea22541ddb72e4545c31fd70e"}, "vout": 1, "txid": "fcfc08095049468cce16d67d3b3586c38bd5369c447a2064fe025da6a093b7ef"}], "txid": "15005a879f901ffc5e0499800525ec70dbfbfdbaaeafd8c75cb6a7137f77c234", "blocktime": 1537870928, "version": 1, "confirmations": 11512, "time": 1537870928, "locktime": 0, "vsize": 224, "size": 224}