{"hash": "b477cd801fc65ab652d863b9f19776c82523234d68f8288dd3f2acdcc8563886", "blockhash": "00000000000000000004ffacab907a6b429b9a5745fa0b75af4234bf69dd7176", "vout": [{"scriptPubKey": {"reqSigs": 1, "hex": "a914efe5a1a6e93d1a4d194896c0badee3931a96f5bb87", "addresses": ["3PZUWTt9fge4du1EVgdbv6ersZh3g55woD"], "asm": "OP_HASH160 efe5a1a6e93d1a4d194896c0badee3931a96f5bb OP_EQUAL", "type": "scripthash"}, "value": 0.00996635, "n": 0}, {"scriptPubKey": {"reqSigs": 1, "hex": "a914aca622d0ed24d282cf5cf7e934e48d7b7e4a187787", "addresses": ["3HRuAsRq4otbZfKjXvow2rbc2ibm3XgHSq"], "asm": "OP_HASH160 aca622d0ed24d282cf5cf7e934e48d7b7e4a1877 OP_EQUAL", "type": "scripthash"}, "value": 0.00480044, "n": 1}], "hex": "020000000001036b691c1ccb0e77695de8f1268aa5308e9cae7db313e6976cbe8be0a31efc63150000000017160014593d4d03171f44d65c67a10773c7a09fe75e6235feffffff7e06346e8e98ce58876798ff66d98def492732cb29fd93a873967ecd46d3b44a0100000017160014f8315410157b18fc9092853e1cbb2c438dac7e4afeffffff80c0b5f9cf1b19010d5dcf3d5b9826ac34fd70ef8fdde93e64293b5e091f751f0100000017160014976042c0f952b00d258c3e581935618fccfe0f48feffffff021b350f000000000017a914efe5a1a6e93d1a4d194896c0badee3931a96f5bb872c5307000000000017a914aca622d0ed24d282cf5cf7e934e48d7b7e4a187787024830450221008767d64b57764e9d87a52cae9ad5166444dbcc9b254efbc29444199e1158456e0220117c77bfeda73624931b23032bc8c8d94b23a4bf75672cce8181df4d3c992ef301210327b34c998be8ee64b17bba6d1e4687a47f4d2df179d49e99f34ffe8b5dc5250e0247304402206a91027e73b7c354f4ea682aec403ad0c31f4e36863e57df54e051b8fc34324102205a1534b4a88bddb93d0c81ec5e6935094b81e60dbf7323d1f203ebc10c194c54012102b7400f33fc0462b98663671af58eaead7dac0a9dd2263c73c86f84ad600a713e0247304402203d1bac0332d3f80bcb4c60b5c8bec9aaa8e6d488d120e1ac3165fcc7f6c27f9a02202f6439b9eafa9708dc51738a80141bd15037054b7cea09e965df3805745b4ae5012102f0eb858e8184c4502b29a9bf3193eb82d076b6515ffeaea1a92e7c82da3552d816490800", "vin": [{"txinwitness": ["30450221008767d64b57764e9d87a52cae9ad5166444dbcc9b254efbc29444199e1158456e0220117c77bfeda73624931b23032bc8c8d94b23a4bf75672cce8181df4d3c992ef301", "0327b34c998be8ee64b17bba6d1e4687a47f4d2df179d49e99f34ffe8b5dc5250e"], "sequence": 4294967294, "scriptSig": {"hex": "160014593d4d03171f44d65c67a10773c7a09fe75e6235", "asm": "0014593d4d03171f44d65c67a10773c7a09fe75e6235"}, "vout": 0, "txid": "1563fc1ea3e08bbe6c97e613b37dae9c8e30a58a26f1e85d69770ecb1c1c696b"}, {"txinwitness": ["304402206a91027e73b7c354f4ea682aec403ad0c31f4e36863e57df54e051b8fc34324102205a1534b4a88bddb93d0c81ec5e6935094b81e60dbf7323d1f203ebc10c194c5401", "02b7400f33fc0462b98663671af58eaead7dac0a9dd2263c73c86f84ad600a713e"], "sequence": 4294967294, "scriptSig": {"hex": "160014f8315410157b18fc9092853e1cbb2c438dac7e4a", "asm": "0014f8315410157b18fc9092853e1cbb2c438dac7e4a"}, "vout": 1, "txid": "4ab4d346cd7e9673a893fd29cb322749ef8dd966ff98678758ce988e6e34067e"}, {"txinwitness": ["304402203d1bac0332d3f80bcb4c60b5c8bec9aaa8e6d488d120e1ac3165fcc7f6c27f9a02202f6439b9eafa9708dc51738a80141bd15037054b7cea09e965df3805745b4ae501", "02f0eb858e8184c4502b29a9bf3193eb82d076b6515ffeaea1a92e7c82da3552d8"], "sequence": 4294967294, "scriptSig": {"hex": "160014976042c0f952b00d258c3e581935618fccfe0f48", "asm": "0014976042c0f952b00d258c3e581935618fccfe0f48"}, "vout": 1, "txid": "1f751f095e3b29643ee9dd8fef70fd34ac26985b3dcf5d0d01191bcff9b5c080"}], "txid": "1502b7792a9545ec7e57cdd0c1cde560ff8a88213d51ec613df8afae4319051b", "blocktime": 1537875543, "version": 2, "confirmations": 11464, "time": 1537875543, "locktime": 542998, "vsize": 347, "size": 590}