{"hash": "2b70b10ada88b7da1cca543539a1aae9e7edf826b70ada20b3b054f1eeaa6326", "blockhash": "00000000000000000018f53835495a110e01622372bf6ae95dc86f2b0ab887b0", "vout": [{"scriptPubKey": {"reqSigs": 1, "hex": "76a91494ab104381c8955727e7759257b63f6ebcc8202b88ac", "addresses": ["1EZ5w6R19ut5cHnb2B1AnFV3gFcQ6iuGJz"], "asm": "OP_DUP OP_HASH160 94ab104381c8955727e7759257b63f6ebcc8202b OP_EQUALVERIFY OP_CHECKSIG", "type": "pubkeyhash"}, "value": 0.0012368, "n": 0}, {"scriptPubKey": {"reqSigs": 1, "hex": "0014d5b2e788f5050458d415ee9c6d09c9ed02b7d872", "addresses": ["bc1q6kew0z84q5z934q4a6wx6zwfa5pt0krjl8s939"], "asm": "0 d5b2e788f5050458d415ee9c6d09c9ed02b7d872", "type": "witness_v0_keyhash"}, "value": 1.105e-05, "n": 1}], "hex": "01000000000101c8deca19e9761b47203b3362ad6b2157314154fa78536d52d2899451da05aab40d01000017160014d752abc9353edadbba5f77e5a977ce995ff44578ffffffff0220e30100000000001976a91494ab104381c8955727e7759257b63f6ebcc8202b88ac5104000000000000160014d5b2e788f5050458d415ee9c6d09c9ed02b7d87202483045022100f5aaefe1da71046c5b66c722d6350ec6e3d3c1097f2c0dd095ce5dfde937746202201f41ea9891b5c280956c4c64d9454d436511af09db556e41c120d147f65f0b8701210347db5579329e6b6eaad738d7408aa82a4881c5bfb8f4aee5c497cfabc3dbdb3b00000000", "vin": [{"txinwitness": ["3045022100f5aaefe1da71046c5b66c722d6350ec6e3d3c1097f2c0dd095ce5dfde937746202201f41ea9891b5c280956c4c64d9454d436511af09db556e41c120d147f65f0b8701", "0347db5579329e6b6eaad738d7408aa82a4881c5bfb8f4aee5c497cfabc3dbdb3b"], "sequence": 4294967295, "scriptSig": {"hex": "160014d752abc9353edadbba5f77e5a977ce995ff44578", "asm": "0014d752abc9353edadbba5f77e5a977ce995ff44578"}, "vout": 269, "txid": "b4aa05da519489d2526d5378fa54413157216bad62333b20471b76e919cadec8"}], "txid": "15022b9cbdebba0cd6f116972d50e935dfb382edb4e7a542f3c433558d1b1d4d", "blocktime": 1537870928, "version": 1, "confirmations": 11514, "time": 1537870928, "locktime": 0, "vsize": 167, "size": 249}