{"hash": "b1999a84e03e94e642b744065b2a2db3c18dcf1fde00a89c8dc7f85c3ead8207", "blockhash": "0000000000000000000dcc0f55137456b1a82d3642486a52398922ac4d620174", "vout": [{"scriptPubKey": {"reqSigs": 1, "hex": "001424f2eb1bb85a4f85ceea8bb5b0932874bb385cdd", "addresses": ["bc1qynewkxactf8ctnh23w6mpyegwjanshxahvq7s8"], "asm": "0 24f2eb1bb85a4f85ceea8bb5b0932874bb385cdd", "type": "witness_v0_keyhash"}, "value": 0.00032126, "n": 0}, {"scriptPubKey": {"reqSigs": 1, "hex": "00202f3f978635df7613be673e0eddd22d41da72694fd201d7ef946e03e459c615f8", "addresses": ["bc1q9ule0p34mamp80n88c8dm53dg8d8y6206gqa0mu5dcp7gkwxzhuq2elqr9"], "asm": "0 2f3f978635df7613be673e0eddd22d41da72694fd201d7ef946e03e459c615f8", "type": "witness_v0_scripthash"}, "value": 0.03487625, "n": 1}], "hex": "0100000000010a4a3277843dd983498c0158f4a35ce3a9577e92a40297a985d353680b543349070000000000ffffffff29294a7800710e0060a142ef0460485e25698f54f53438bf996e7ec350cf536f0000000000ffffffff21c42b475dcdaf6b09f5e090d14abde7d9abb36e375eaa66badc2918c4e2caa40000000000ffffffff1f67485b52d050d93a8044be1c57134aeb1a193e5d30bbe356599dad367033be0000000000ffffffff41b4ace9b80ebbf127bb90a7c5cff3168f6debaf134383e7a2c126723b7bd6c00000000000ffffffff2d7ec5fe7185ef6f71c1b0c61e8d472d1997e88473da92db4dfc66236cbdf2c50000000000ffffffff210657a99d4240b72e4e68e8df0ce7e27d3dfbe4fa952172d383630e812be4d80100000000ffffffff25cea2ecdc8aea5e519669f035cebd20dc8925b1d5a1bfd4eaffccb244f813de0000000000fffffffffa94c69ae3e380d564c915532ec02075318622f8b8a08f8b8ce2a15ea34847ed0000000000ffffffff256bf705e6c5f4b312d75171a6bf0a5fc8964476cfa1d2faeb89d2f6fa9450ed0000000000ffffffff027e7d00000000000016001424f2eb1bb85a4f85ceea8bb5b0932874bb385cdd89373500000000002200202f3f978635df7613be673e0eddd22d41da72694fd201d7ef946e03e459c615f802483045022100c2aceee8068c0ec9da4c3094ad491a7c56f8dad2f4a36210860db41ea18d638d0220059ccd0d5871139a9b3e7cbc2839baf9f261e73cca8c823191ab2052600fb1e5012102447f022dcbafefc5694a6591acaccd45156a737e8c40aaac0649316c88e1300c02483045022100b9dfd133194f2deac2e999279b81c52373d1199da6fca086e5373d7ec6e0dbe70220363749c1b1ec87edf98e6a58e42bbcd3564e551d46a21bd3726a03f4be10da02012103a0431e501bca96babd5e1389921d4d42bc81d0ae4d6e6d4ad54d780e5659276902473044022074f209514b41437d853aab03cd33c9a054496bbca70a556deda652be8c3a749802200af2792c6b01bd5890ef560f44d093ef4d90c9f187ec2990c6968aca679920b0012103936ee98651112df7ebcba76d3acb82b170671622c61f28d434dba8a3a78e39a90247304402201087d4d7c99e51fd5a5049313aa6aea016c2183bee1986de7d25cb3b002e9fb702206619f0adaf30beae4f970292285760749df609e33a82783c4f66f2e9ab63ab7c0121030cc20345bcc68ff0778e93d5dded7b189b39f17b8889096a57f2c0e58346049702483045022100bf3a66ee9930872e275d8eba4f1e73538899ee83745a744af4f39f9c1af07a8b02200fb8ba2283e985aa757f059ff83c105ec997f9a1cc8e9178d5bbab9adac0654d012102ef8c6b01b77b8711100a78af6e7e5ede5cc08a872a91301d34af315bb78b39e502483045022100a5f0fac5804e088c6d5bdcb1e5e76864388d702d3c83a35d7c4e9e5eb41589c702204b275827312488e2bc2a4a20d4a64c8acf3626ec2d976d5281d5ee26b7fb85e3012102ae8dc8dffb524a68a2a036cad391f0db6992c22497380621d54e519e3f2977ce02483045022100b0e807bbc1b0a6a9fb0dfeee1b1d98709f97de63b8bcfa150a283a81f7257441022035c56693bb03eb6e116d31ccba82f9a480a184f811f9a0f8d355245db677b38e0121032f581e61d960b07a3d36e2dd160f371723962563763f1e6622ef1935daf833e002483045022100be96551ff1f5f23cb8727a705521ddc5558767c8232c65333a55947dc7bd468d02200371212b205150a197a55dcfbf14bbe361795e612e4c1231b104f3077f2aff8f012103650ceae1a7911ab84e4940f683936f9f8fafa729038d037a4b5e72c3510ccfb7024730440220197378afaa0d180ca18eea90eb59187fd1ccb84d57a5953e28c2e2528682daf7022063789b5eef6b8cafe1647c0121b3794be211df1b5aafad379db4f82d047c8650012102ff5ed83f8da318b1ada988c6dbd1bc81d0cdc7f895d053fecc22ce65a57f0da702483045022100b2a43df7bd682961cc44d845cc5460b7e5d6b1ca4770d418cdaf57f7b206267d02202d51649fd9d84bd5c02e2e4a6ef21e0eea2f883a0bfc5da4a32bc979a2e9c98c012102dc2142bf5eba70b852edb3f87438c90025d215ddf54ec36ecd1877b4afdf3b2600000000", "vin": [{"txinwitness": ["3045022100c2aceee8068c0ec9da4c3094ad491a7c56f8dad2f4a36210860db41ea18d638d0220059ccd0d5871139a9b3e7cbc2839baf9f261e73cca8c823191ab2052600fb1e501", "02447f022dcbafefc5694a6591acaccd45156a737e8c40aaac0649316c88e1300c"], "sequence": 4294967295, "scriptSig": {"hex": "", "asm": ""}, "vout": 0, "txid": "074933540b6853d385a99702a4927e57a9e35ca3f458018c4983d93d8477324a"}, {"txinwitness": ["3045022100b9dfd133194f2deac2e999279b81c52373d1199da6fca086e5373d7ec6e0dbe70220363749c1b1ec87edf98e6a58e42bbcd3564e551d46a21bd3726a03f4be10da0201", "03a0431e501bca96babd5e1389921d4d42bc81d0ae4d6e6d4ad54d780e56592769"], "sequence": 4294967295, "scriptSig": {"hex": "", "asm": ""}, "vout": 0, "txid": "6f53cf50c37e6e99bf3834f5548f69255e486004ef42a160000e7100784a2929"}, {"txinwitness": ["3044022074f209514b41437d853aab03cd33c9a054496bbca70a556deda652be8c3a749802200af2792c6b01bd5890ef560f44d093ef4d90c9f187ec2990c6968aca679920b001", "03936ee98651112df7ebcba76d3acb82b170671622c61f28d434dba8a3a78e39a9"], "sequence": 4294967295, "scriptSig": {"hex": "", "asm": ""}, "vout": 0, "txid": "a4cae2c41829dcba66aa5e376eb3abd9e7bd4ad190e0f5096bafcd5d472bc421"}, {"txinwitness": ["304402201087d4d7c99e51fd5a5049313aa6aea016c2183bee1986de7d25cb3b002e9fb702206619f0adaf30beae4f970292285760749df609e33a82783c4f66f2e9ab63ab7c01", "030cc20345bcc68ff0778e93d5dded7b189b39f17b8889096a57f2c0e583460497"], "sequence": 4294967295, "scriptSig": {"hex": "", "asm": ""}, "vout": 0, "txid": "be337036ad9d5956e3bb305d3e191aeb4a13571cbe44803ad950d0525b48671f"}, {"txinwitness": ["3045022100bf3a66ee9930872e275d8eba4f1e73538899ee83745a744af4f39f9c1af07a8b02200fb8ba2283e985aa757f059ff83c105ec997f9a1cc8e9178d5bbab9adac0654d01", "02ef8c6b01b77b8711100a78af6e7e5ede5cc08a872a91301d34af315bb78b39e5"], "sequence": 4294967295, "scriptSig": {"hex": "", "asm": ""}, "vout": 0, "txid": "c0d67b3b7226c1a2e7834313afeb6d8f16f3cfc5a790bb27f1bb0eb8e9acb441"}, {"txinwitness": ["3045022100a5f0fac5804e088c6d5bdcb1e5e76864388d702d3c83a35d7c4e9e5eb41589c702204b275827312488e2bc2a4a20d4a64c8acf3626ec2d976d5281d5ee26b7fb85e301", "02ae8dc8dffb524a68a2a036cad391f0db6992c22497380621d54e519e3f2977ce"], "sequence": 4294967295, "scriptSig": {"hex": "", "asm": ""}, "vout": 0, "txid": "c5f2bd6c2366fc4ddb92da7384e897192d478d1ec6b0c1716fef8571fec57e2d"}, {"txinwitness": ["3045022100b0e807bbc1b0a6a9fb0dfeee1b1d98709f97de63b8bcfa150a283a81f7257441022035c56693bb03eb6e116d31ccba82f9a480a184f811f9a0f8d355245db677b38e01", "032f581e61d960b07a3d36e2dd160f371723962563763f1e6622ef1935daf833e0"], "sequence": 4294967295, "scriptSig": {"hex": "", "asm": ""}, "vout": 1, "txid": "d8e42b810e6383d3722195fae4fb3d7de2e70cdfe8684e2eb740429da9570621"}, {"txinwitness": ["3045022100be96551ff1f5f23cb8727a705521ddc5558767c8232c65333a55947dc7bd468d02200371212b205150a197a55dcfbf14bbe361795e612e4c1231b104f3077f2aff8f01", "03650ceae1a7911ab84e4940f683936f9f8fafa729038d037a4b5e72c3510ccfb7"], "sequence": 4294967295, "scriptSig": {"hex": "", "asm": ""}, "vout": 0, "txid": "de13f844b2ccffead4bfa1d5b12589dc20bdce35f06996515eea8adceca2ce25"}, {"txinwitness": ["30440220197378afaa0d180ca18eea90eb59187fd1ccb84d57a5953e28c2e2528682daf7022063789b5eef6b8cafe1647c0121b3794be211df1b5aafad379db4f82d047c865001", "02ff5ed83f8da318b1ada988c6dbd1bc81d0cdc7f895d053fecc22ce65a57f0da7"], "sequence": 4294967295, "scriptSig": {"hex": "", "asm": ""}, "vout": 0, "txid": "ed4748a35ea1e28c8b8fa0b8f82286317520c02e5315c964d580e3e39ac694fa"}, {"txinwitness": ["3045022100b2a43df7bd682961cc44d845cc5460b7e5d6b1ca4770d418cdaf57f7b206267d02202d51649fd9d84bd5c02e2e4a6ef21e0eea2f883a0bfc5da4a32bc979a2e9c98c01", "02dc2142bf5eba70b852edb3f87438c90025d215ddf54ec36ecd1877b4afdf3b26"], "sequence": 4294967295, "scriptSig": {"hex": "", "asm": ""}, "vout": 0, "txid": "ed5094faf6d289ebfad2a1cf764496c85f0abfa67151d712b3f4c5e605f76b25"}], "txid": "15044f8eebb6d52d4a2382c5fffef16a9a0f4ea84e56ebb583841ac2ad007dda", "blocktime": 1537870268, "version": 1, "confirmations": 11518, "time": 1537870268, "locktime": 0, "vsize": 764, "size": 1573}