{"hash": "15063913d748f762726d17c7da0ef0c9cb96152094c44a8c3bee6246124b1814", "blockhash": "0000000000000000001f76057863aec43deb6fa401d9628bb513d65a8098bfab", "vout": [{"scriptPubKey": {"reqSigs": 1, "hex": "76a9141a932083553c152d73ca9a10c96604d2153bf3e888ac", "addresses": ["13RWpYxhjqbeTc83jJH99PhQJrc3jraxzC"], "asm": "OP_DUP OP_HASH160 1a932083553c152d73ca9a10c96604d2153bf3e8 OP_EQUALVERIFY OP_CHECKSIG", "type": "pubkeyhash"}, "value": 9.433e-05, "n": 0}, {"scriptPubKey": {"reqSigs": 1, "hex": "a914fb08e0ec91927da9b464a94b23ba64acb8ad5b8987", "addresses": ["3QaNAbANae2NQMdWSa37M4NeodhJKqXfV2"], "asm": "OP_HASH160 fb08e0ec91927da9b464a94b23ba64acb8ad5b89 OP_EQUAL", "type": "scripthash"}, "value": 0.0001, "n": 1}], "hex": "0100000001b429bb24fee886bb4f41b46433caf58ad32c16c0e7ea660cd9c2c73b3d8bf971000000006b4830450221008c7e200f76f08a5a7a66b9c38b513e7b5e77e5f7bb450969f8f4f2e9f2d9d21f022051152740800c0efae65170c752e7a862b876bfc78d27d5168c88028bfa649566012103759197a7a1d18fa14d007f300cb1a22a50fbfd9f35b9cdf864a4e352c34615abffffffff02d9240000000000001976a9141a932083553c152d73ca9a10c96604d2153bf3e888ac102700000000000017a914fb08e0ec91927da9b464a94b23ba64acb8ad5b898700000000", "vin": [{"sequence": 4294967295, "scriptSig": {"hex": "4830450221008c7e200f76f08a5a7a66b9c38b513e7b5e77e5f7bb450969f8f4f2e9f2d9d21f022051152740800c0efae65170c752e7a862b876bfc78d27d5168c88028bfa649566012103759197a7a1d18fa14d007f300cb1a22a50fbfd9f35b9cdf864a4e352c34615ab", "asm": "30450221008c7e200f76f08a5a7a66b9c38b513e7b5e77e5f7bb450969f8f4f2e9f2d9d21f022051152740800c0efae65170c752e7a862b876bfc78d27d5168c88028bfa649566[ALL] 03759197a7a1d18fa14d007f300cb1a22a50fbfd9f35b9cdf864a4e352c34615ab"}, "vout": 0, "txid": "71f98b3d3bc7c2d90c66eae7c0162cd38af5ca3364b4414fbb86e8fe24bb29b4"}], "txid": "15063913d748f762726d17c7da0ef0c9cb96152094c44a8c3bee6246124b1814", "blocktime": 1537873891, "version": 1, "confirmations": 11478, "time": 1537873891, "locktime": 0, "vsize": 224, "size": 224}