{"hash": "15094edd08526d353d08be5a9c241b95eb3efcb0266c71b38dd7b0efa1200142", "blockhash": "00000000000000000004ffacab907a6b429b9a5745fa0b75af4234bf69dd7176", "vout": [{"scriptPubKey": {"reqSigs": 1, "hex": "a914bbd2a550b1e7033f314bb448f751288b7571815687", "addresses": ["3Jp8dLgif4xMVTBsAp7mtgg6ZXG5wt4ceC"], "asm": "OP_HASH160 bbd2a550b1e7033f314bb448f751288b75718156 OP_EQUAL", "type": "scripthash"}, "value": 0.0028679, "n": 0}, {"scriptPubKey": {"reqSigs": 1, "hex": "76a914cb9107404a7aeace32c1e62c35f9aa526a6d76f288ac", "addresses": ["1KZMugoVubx3N12eewnkHBDS88jwdHprVN"], "asm": "OP_DUP OP_HASH160 cb9107404a7aeace32c1e62c35f9aa526a6d76f2 OP_EQUALVERIFY OP_CHECKSIG", "type": "pubkeyhash"}, "value": 0.07209975, "n": 1}], "hex": "0100000001a0e67a8dca468e4bb789e922b4c63056eca0a0b1a94bdd1c1a5422272cd509b6010000006a473044022066904b4d572b3c594e4cf3ddcbb1ae86095c37d84b99990f2b304af04fb7318d022016c575e5296f3a87523bfc612555cfe1b4700381f6dbfe0f9e493935b5378ce70121029bf5ad333faaabb405cd6941568a368550f9e06fc4f204f848da18a3ff4623e0ffffffff02466004000000000017a914bbd2a550b1e7033f314bb448f751288b7571815687f7036e00000000001976a914cb9107404a7aeace32c1e62c35f9aa526a6d76f288ac00000000", "vin": [{"sequence": 4294967295, "scriptSig": {"hex": "473044022066904b4d572b3c594e4cf3ddcbb1ae86095c37d84b99990f2b304af04fb7318d022016c575e5296f3a87523bfc612555cfe1b4700381f6dbfe0f9e493935b5378ce70121029bf5ad333faaabb405cd6941568a368550f9e06fc4f204f848da18a3ff4623e0", "asm": "3044022066904b4d572b3c594e4cf3ddcbb1ae86095c37d84b99990f2b304af04fb7318d022016c575e5296f3a87523bfc612555cfe1b4700381f6dbfe0f9e493935b5378ce7[ALL] 029bf5ad333faaabb405cd6941568a368550f9e06fc4f204f848da18a3ff4623e0"}, "vout": 1, "txid": "b609d52c2722541a1cdd4ba9b1a0a0ec5630c6b422e989b74b8e46ca8d7ae6a0"}], "txid": "15094edd08526d353d08be5a9c241b95eb3efcb0266c71b38dd7b0efa1200142", "blocktime": 1537875543, "version": 1, "confirmations": 11464, "time": 1537875543, "locktime": 0, "vsize": 223, "size": 223}