{"hash": "150a8b644d9bbdfc6903085cd8d0f898e5c12abdcdbcd4fdf897ee7abf0ad6eb", "blockhash": "00000000000000000017f5eb5941039fbcee6240d03bc1f2f8e35350df66a1d8", "vout": [{"scriptPubKey": {"reqSigs": 1, "hex": "76a9141e313e956758e7c43b59213e0c730682ce5fded488ac", "addresses": ["13keGKb6KCE2Lty8SMzm4kzdZ1Z5Brxs2S"], "asm": "OP_DUP OP_HASH160 1e313e956758e7c43b59213e0c730682ce5fded4 OP_EQUALVERIFY OP_CHECKSIG", "type": "pubkeyhash"}, "value": 1.209e-05, "n": 0}, {"scriptPubKey": {"reqSigs": 1, "hex": "76a914ea18dc80f76af9c85ae088c58573c7711de643c888ac", "addresses": ["1NLnuHWkDXcHFD3y8CS9VceQnneWEspeor"], "asm": "OP_DUP OP_HASH160 ea18dc80f76af9c85ae088c58573c7711de643c8 OP_EQUALVERIFY OP_CHECKSIG", "type": "pubkeyhash"}, "value": 0.00578315, "n": 1}], "hex": "0100000010a9306cd48821612d2318ff013cdf87321520c952a053b1bec9f0aa80d4af7d14000000006b4830450221008308eee87a4f880bdc2c927d9a814a14f793d69df7da6e3e6402d10af06d0466022045a9c9d0763e29f2c229e55577fd813cc30fb0b578ce036704052ab0292370340121030db5d7e4214c5d6ce569f8fcf1ef0ee6ca2579e5d872961b78d18ebef45cd65cffffffff7aa7e28b82eba2d8f443a0459505ef0a3c9152fee46f7811f3d3ea452527a427000000006b483045022100b7e3779fc83b1c3daa28746e9e59470bf9f9755df76947a49e47ecd7eed39ab902204f5c6b1faf09ae848bceadbbb2f86b76fc4dfa6ed72a8703952d9e980ebe8ec20121030db5d7e4214c5d6ce569f8fcf1ef0ee6ca2579e5d872961b78d18ebef45cd65cffffffff73b9d0afde077d52f487fb4933281b0171346b92bcc52a6cc08f9afc13deaa37000000006b483045022100ebab8e619398385d535ed33cae1390e1779cae59041023307567b96f39d4ba91022041310722b3ae414e92fc79138c7ab54f22f74136db5f6bd219a28c1276fef9240121030db5d7e4214c5d6ce569f8fcf1ef0ee6ca2579e5d872961b78d18ebef45cd65cffffffffcbcfccec776f98623e5b26fe36c4d85fbaa8bd81bc997736b7ac66ae1e19fb46000000006a47304402205c3d5106473fcff3301b4c60a545e52bc018d9207427353366079a6796f605fb022002aa5c01275d46a7a25906256eb5ec58fd6cd536efd0b03c76065cf22d379d0a0121030db5d7e4214c5d6ce569f8fcf1ef0ee6ca2579e5d872961b78d18ebef45cd65cffffffff5bafa3b067c2938fc1b2b0da7fff66866686dae441863a027c71a02ab4333b4d000000006b483045022100f0b15e62334f90e197a6714b4703c9e2223874564073cc8e6d9865769bb19790022053915a3fe4cf3105b95f5b19486f3b8db8f2263f90d92a2bc4b87ec8a470ba5e012102a111851b563ff5ec8d6da280a5fc86a8b52e78c533c62839c5f8ca32cc0e62feffffffff9861852855e77f79d7f13f982b550dcf7f983d170f2a79a56146b2e6cca54c5b000000006b483045022100bab956b926c1f1a8ee9a0f24a4686d744d85cd3beec5138144b97e78ba59d2e5022048bdfa76662ded7c787e84135940c65dd796d2aa97598f865df4500a0f8971040121030db5d7e4214c5d6ce569f8fcf1ef0ee6ca2579e5d872961b78d18ebef45cd65cffffffff7a5e487c854ff8d88e7ade3e26c659adaa20e98b19d52eda7607be147f794e64000000006a47304402205ccd1448e8f17792fbdcaa5a9a85048b4553c4396b0d886a13e7a2c22589fbb702200bfbf85977f366dbf40f11adf15197c78c58fb8deb19cbcce79062ff40cde8450121030db5d7e4214c5d6ce569f8fcf1ef0ee6ca2579e5d872961b78d18ebef45cd65cffffffff66f6268274263c119650384b01e7617c974747cd78ffb9c265c94b34329c216c000000006a473044022079ab3859545dee61660893ce3fcc93d7a5ba541befdd318b7470cacf788c8d1c02200fa8e902b18e4252ea1d2e669624668dd087626ddfea7b8a29670c8e66db58770121030db5d7e4214c5d6ce569f8fcf1ef0ee6ca2579e5d872961b78d18ebef45cd65cffffffffc569810494d5ed3f7e51d6f50a3f56c612f95bbdb20dc0a08a91d976f7ea8787000000006a473044022040e2d86b34c24fb824e754fa4c24c047ac4a4ee19b3f77ad08c420e54fe678e702206a22a4318681f5543cdb9bc2e6cc611ab6b3dd8406133858328c0ec646e26aae0121030db5d7e4214c5d6ce569f8fcf1ef0ee6ca2579e5d872961b78d18ebef45cd65cffffffff3063fc1e982334744f16a2b7501523a25777b77edc741fe5bbec5e277ccf90a5000000006b4830450221008f40e2867f89f8f6778695b88a7f15551f2d9627ad322c714c1be64c2ff70659022038b741848e686ebfba40c3c319607368fbfc8c774d1a54706f520ae7a8751a190121030db5d7e4214c5d6ce569f8fcf1ef0ee6ca2579e5d872961b78d18ebef45cd65cffffffff310c42c0d81ada5a4d9d7a0696648a4f43fa101ec5cde81dfb0d7a6989c094b1000000006b483045022100e359987a571483a43c9bff93c835bfa6e1de336abcfc644243552a2fd57d4b4b022025d4e1b43c7c50ce73479914288af440f57828c3fffef9d3c529c867930001570121030db5d7e4214c5d6ce569f8fcf1ef0ee6ca2579e5d872961b78d18ebef45cd65cffffffff77577026570686c6a4c6be9d91804083d358596c11aba72aafc1ac34f9b504b9000000006b48304502210083fdb84ff76fb71d3117e50e5872b3390ef789e51d70c7b6c589e4b3098d1e2c022025f081e5b074e23f689ff10e5098e31b5f70ac5576f004a9529a07317416e3d90121030db5d7e4214c5d6ce569f8fcf1ef0ee6ca2579e5d872961b78d18ebef45cd65cffffffffeeefa96fce49d47c7cd4ea18d9de2df131afe98ab2933bf3503ed6b9933c78c0000000006b4830450221008f5515d8d350f2321cac3449dc61af4d72cccdb0678220a694e242fa4a7bdb41022035507ae6d28ac66ab84ca6c0159672ca81e3d569720deed1dd7f65dfdb2c5a2b0121030db5d7e4214c5d6ce569f8fcf1ef0ee6ca2579e5d872961b78d18ebef45cd65cffffffff5df226c562bbb668ecd140f68770ca4b5b961a1b668bde8604432a8b10e3b6ca000000006a47304402207bb9b888ce408a38112c3e692978db2a4eb67c944d2d68d5aa6c8206a14f0f5802205b18229f5a5dcaae06af5bf1bda89ae5add4f821305f79c3a0c786af7dd89f7b0121030db5d7e4214c5d6ce569f8fcf1ef0ee6ca2579e5d872961b78d18ebef45cd65cffffffff3a47271c16eb8f6986cc921eee6131d4e52b4a1d68219509d1dcdcf7d47474d0000000006a4730440220220cb490d63ffc1651395b2732e384c27cdd18f7d813423a55acaa4706b62d8f022026112f116e2e0c792fcdb1afd63d119da559ef01f40a72e276e41961dc2ac7a50121030db5d7e4214c5d6ce569f8fcf1ef0ee6ca2579e5d872961b78d18ebef45cd65cffffffff8887df4343fcff3d274aa8a6e43d3dfbfa5155ee00ed1edf21fa85e07fabb6f4000000006b483045022100b7de63cbc9aca6de9bfd024ee13e65e111fddc1d7cb08bc43a3f9b9454994632022039db93d0638c046d6237429a39571d74b583b5051f4b5ab80565a40fecdd81800121030db5d7e4214c5d6ce569f8fcf1ef0ee6ca2579e5d872961b78d18ebef45cd65cffffffff02b9040000000000001976a9141e313e956758e7c43b59213e0c730682ce5fded488ac0bd30800000000001976a914ea18dc80f76af9c85ae088c58573c7711de643c888ac00000000", "vin": [{"sequence": 4294967295, "scriptSig": {"hex": "4830450221008308eee87a4f880bdc2c927d9a814a14f793d69df7da6e3e6402d10af06d0466022045a9c9d0763e29f2c229e55577fd813cc30fb0b578ce036704052ab0292370340121030db5d7e4214c5d6ce569f8fcf1ef0ee6ca2579e5d872961b78d18ebef45cd65c", "asm": "30450221008308eee87a4f880bdc2c927d9a814a14f793d69df7da6e3e6402d10af06d0466022045a9c9d0763e29f2c229e55577fd813cc30fb0b578ce036704052ab029237034[ALL] 030db5d7e4214c5d6ce569f8fcf1ef0ee6ca2579e5d872961b78d18ebef45cd65c"}, "vout": 0, "txid": "147dafd480aaf0c9beb153a052c920153287df3c01ff18232d612188d46c30a9"}, {"sequence": 4294967295, "scriptSig": {"hex": "483045022100b7e3779fc83b1c3daa28746e9e59470bf9f9755df76947a49e47ecd7eed39ab902204f5c6b1faf09ae848bceadbbb2f86b76fc4dfa6ed72a8703952d9e980ebe8ec20121030db5d7e4214c5d6ce569f8fcf1ef0ee6ca2579e5d872961b78d18ebef45cd65c", "asm": "3045022100b7e3779fc83b1c3daa28746e9e59470bf9f9755df76947a49e47ecd7eed39ab902204f5c6b1faf09ae848bceadbbb2f86b76fc4dfa6ed72a8703952d9e980ebe8ec2[ALL] 030db5d7e4214c5d6ce569f8fcf1ef0ee6ca2579e5d872961b78d18ebef45cd65c"}, "vout": 0, "txid": "27a4272545ead3f311786fe4fe52913c0aef059545a043f4d8a2eb828be2a77a"}, {"sequence": 4294967295, "scriptSig": {"hex": "483045022100ebab8e619398385d535ed33cae1390e1779cae59041023307567b96f39d4ba91022041310722b3ae414e92fc79138c7ab54f22f74136db5f6bd219a28c1276fef9240121030db5d7e4214c5d6ce569f8fcf1ef0ee6ca2579e5d872961b78d18ebef45cd65c", "asm": "3045022100ebab8e619398385d535ed33cae1390e1779cae59041023307567b96f39d4ba91022041310722b3ae414e92fc79138c7ab54f22f74136db5f6bd219a28c1276fef924[ALL] 030db5d7e4214c5d6ce569f8fcf1ef0ee6ca2579e5d872961b78d18ebef45cd65c"}, "vout": 0, "txid": "37aade13fc9a8fc06c2ac5bc926b3471011b283349fb87f4527d07deafd0b973"}, {"sequence": 4294967295, "scriptSig": {"hex": "47304402205c3d5106473fcff3301b4c60a545e52bc018d9207427353366079a6796f605fb022002aa5c01275d46a7a25906256eb5ec58fd6cd536efd0b03c76065cf22d379d0a0121030db5d7e4214c5d6ce569f8fcf1ef0ee6ca2579e5d872961b78d18ebef45cd65c", "asm": "304402205c3d5106473fcff3301b4c60a545e52bc018d9207427353366079a6796f605fb022002aa5c01275d46a7a25906256eb5ec58fd6cd536efd0b03c76065cf22d379d0a[ALL] 030db5d7e4214c5d6ce569f8fcf1ef0ee6ca2579e5d872961b78d18ebef45cd65c"}, "vout": 0, "txid": "46fb191eae66acb7367799bc81bda8ba5fd8c436fe265b3e62986f77eccccfcb"}, {"sequence": 4294967295, "scriptSig": {"hex": "483045022100f0b15e62334f90e197a6714b4703c9e2223874564073cc8e6d9865769bb19790022053915a3fe4cf3105b95f5b19486f3b8db8f2263f90d92a2bc4b87ec8a470ba5e012102a111851b563ff5ec8d6da280a5fc86a8b52e78c533c62839c5f8ca32cc0e62fe", "asm": "3045022100f0b15e62334f90e197a6714b4703c9e2223874564073cc8e6d9865769bb19790022053915a3fe4cf3105b95f5b19486f3b8db8f2263f90d92a2bc4b87ec8a470ba5e[ALL] 02a111851b563ff5ec8d6da280a5fc86a8b52e78c533c62839c5f8ca32cc0e62fe"}, "vout": 0, "txid": "4d3b33b42aa0717c023a8641e4da86668666ff7fdab0b2c18f93c267b0a3af5b"}, {"sequence": 4294967295, "scriptSig": {"hex": "483045022100bab956b926c1f1a8ee9a0f24a4686d744d85cd3beec5138144b97e78ba59d2e5022048bdfa76662ded7c787e84135940c65dd796d2aa97598f865df4500a0f8971040121030db5d7e4214c5d6ce569f8fcf1ef0ee6ca2579e5d872961b78d18ebef45cd65c", "asm": "3045022100bab956b926c1f1a8ee9a0f24a4686d744d85cd3beec5138144b97e78ba59d2e5022048bdfa76662ded7c787e84135940c65dd796d2aa97598f865df4500a0f897104[ALL] 030db5d7e4214c5d6ce569f8fcf1ef0ee6ca2579e5d872961b78d18ebef45cd65c"}, "vout": 0, "txid": "5b4ca5cce6b24661a5792a0f173d987fcf0d552b983ff1d7797fe75528856198"}, {"sequence": 4294967295, "scriptSig": {"hex": "47304402205ccd1448e8f17792fbdcaa5a9a85048b4553c4396b0d886a13e7a2c22589fbb702200bfbf85977f366dbf40f11adf15197c78c58fb8deb19cbcce79062ff40cde8450121030db5d7e4214c5d6ce569f8fcf1ef0ee6ca2579e5d872961b78d18ebef45cd65c", "asm": "304402205ccd1448e8f17792fbdcaa5a9a85048b4553c4396b0d886a13e7a2c22589fbb702200bfbf85977f366dbf40f11adf15197c78c58fb8deb19cbcce79062ff40cde845[ALL] 030db5d7e4214c5d6ce569f8fcf1ef0ee6ca2579e5d872961b78d18ebef45cd65c"}, "vout": 0, "txid": "644e797f14be0776da2ed5198be920aaad59c6263ede7a8ed8f84f857c485e7a"}, {"sequence": 4294967295, "scriptSig": {"hex": "473044022079ab3859545dee61660893ce3fcc93d7a5ba541befdd318b7470cacf788c8d1c02200fa8e902b18e4252ea1d2e669624668dd087626ddfea7b8a29670c8e66db58770121030db5d7e4214c5d6ce569f8fcf1ef0ee6ca2579e5d872961b78d18ebef45cd65c", "asm": "3044022079ab3859545dee61660893ce3fcc93d7a5ba541befdd318b7470cacf788c8d1c02200fa8e902b18e4252ea1d2e669624668dd087626ddfea7b8a29670c8e66db5877[ALL] 030db5d7e4214c5d6ce569f8fcf1ef0ee6ca2579e5d872961b78d18ebef45cd65c"}, "vout": 0, "txid": "6c219c32344bc965c2b9ff78cd4747977c61e7014b385096113c26748226f666"}, {"sequence": 4294967295, "scriptSig": {"hex": "473044022040e2d86b34c24fb824e754fa4c24c047ac4a4ee19b3f77ad08c420e54fe678e702206a22a4318681f5543cdb9bc2e6cc611ab6b3dd8406133858328c0ec646e26aae0121030db5d7e4214c5d6ce569f8fcf1ef0ee6ca2579e5d872961b78d18ebef45cd65c", "asm": "3044022040e2d86b34c24fb824e754fa4c24c047ac4a4ee19b3f77ad08c420e54fe678e702206a22a4318681f5543cdb9bc2e6cc611ab6b3dd8406133858328c0ec646e26aae[ALL] 030db5d7e4214c5d6ce569f8fcf1ef0ee6ca2579e5d872961b78d18ebef45cd65c"}, "vout": 0, "txid": "8787eaf776d9918aa0c00db2bd5bf912c6563f0af5d6517e3fedd594048169c5"}, {"sequence": 4294967295, "scriptSig": {"hex": "4830450221008f40e2867f89f8f6778695b88a7f15551f2d9627ad322c714c1be64c2ff70659022038b741848e686ebfba40c3c319607368fbfc8c774d1a54706f520ae7a8751a190121030db5d7e4214c5d6ce569f8fcf1ef0ee6ca2579e5d872961b78d18ebef45cd65c", "asm": "30450221008f40e2867f89f8f6778695b88a7f15551f2d9627ad322c714c1be64c2ff70659022038b741848e686ebfba40c3c319607368fbfc8c774d1a54706f520ae7a8751a19[ALL] 030db5d7e4214c5d6ce569f8fcf1ef0ee6ca2579e5d872961b78d18ebef45cd65c"}, "vout": 0, "txid": "a590cf7c275eecbbe51f74dc7eb77757a2231550b7a2164f743423981efc6330"}, {"sequence": 4294967295, "scriptSig": {"hex": "483045022100e359987a571483a43c9bff93c835bfa6e1de336abcfc644243552a2fd57d4b4b022025d4e1b43c7c50ce73479914288af440f57828c3fffef9d3c529c867930001570121030db5d7e4214c5d6ce569f8fcf1ef0ee6ca2579e5d872961b78d18ebef45cd65c", "asm": "3045022100e359987a571483a43c9bff93c835bfa6e1de336abcfc644243552a2fd57d4b4b022025d4e1b43c7c50ce73479914288af440f57828c3fffef9d3c529c86793000157[ALL] 030db5d7e4214c5d6ce569f8fcf1ef0ee6ca2579e5d872961b78d18ebef45cd65c"}, "vout": 0, "txid": "b194c089697a0dfb1de8cdc51e10fa434f8a6496067a9d4d5ada1ad8c0420c31"}, {"sequence": 4294967295, "scriptSig": {"hex": "48304502210083fdb84ff76fb71d3117e50e5872b3390ef789e51d70c7b6c589e4b3098d1e2c022025f081e5b074e23f689ff10e5098e31b5f70ac5576f004a9529a07317416e3d90121030db5d7e4214c5d6ce569f8fcf1ef0ee6ca2579e5d872961b78d18ebef45cd65c", "asm": "304502210083fdb84ff76fb71d3117e50e5872b3390ef789e51d70c7b6c589e4b3098d1e2c022025f081e5b074e23f689ff10e5098e31b5f70ac5576f004a9529a07317416e3d9[ALL] 030db5d7e4214c5d6ce569f8fcf1ef0ee6ca2579e5d872961b78d18ebef45cd65c"}, "vout": 0, "txid": "b904b5f934acc1af2aa7ab116c5958d3834080919dbec6a4c686065726705777"}, {"sequence": 4294967295, "scriptSig": {"hex": "4830450221008f5515d8d350f2321cac3449dc61af4d72cccdb0678220a694e242fa4a7bdb41022035507ae6d28ac66ab84ca6c0159672ca81e3d569720deed1dd7f65dfdb2c5a2b0121030db5d7e4214c5d6ce569f8fcf1ef0ee6ca2579e5d872961b78d18ebef45cd65c", "asm": "30450221008f5515d8d350f2321cac3449dc61af4d72cccdb0678220a694e242fa4a7bdb41022035507ae6d28ac66ab84ca6c0159672ca81e3d569720deed1dd7f65dfdb2c5a2b[ALL] 030db5d7e4214c5d6ce569f8fcf1ef0ee6ca2579e5d872961b78d18ebef45cd65c"}, "vout": 0, "txid": "c0783c93b9d63e50f33b93b28ae9af31f12dded918ead47c7cd449ce6fa9efee"}, {"sequence": 4294967295, "scriptSig": {"hex": "47304402207bb9b888ce408a38112c3e692978db2a4eb67c944d2d68d5aa6c8206a14f0f5802205b18229f5a5dcaae06af5bf1bda89ae5add4f821305f79c3a0c786af7dd89f7b0121030db5d7e4214c5d6ce569f8fcf1ef0ee6ca2579e5d872961b78d18ebef45cd65c", "asm": "304402207bb9b888ce408a38112c3e692978db2a4eb67c944d2d68d5aa6c8206a14f0f5802205b18229f5a5dcaae06af5bf1bda89ae5add4f821305f79c3a0c786af7dd89f7b[ALL] 030db5d7e4214c5d6ce569f8fcf1ef0ee6ca2579e5d872961b78d18ebef45cd65c"}, "vout": 0, "txid": "cab6e3108b2a430486de8b661b1a965b4bca7087f640d1ec68b6bb62c526f25d"}, {"sequence": 4294967295, "scriptSig": {"hex": "4730440220220cb490d63ffc1651395b2732e384c27cdd18f7d813423a55acaa4706b62d8f022026112f116e2e0c792fcdb1afd63d119da559ef01f40a72e276e41961dc2ac7a50121030db5d7e4214c5d6ce569f8fcf1ef0ee6ca2579e5d872961b78d18ebef45cd65c", "asm": "30440220220cb490d63ffc1651395b2732e384c27cdd18f7d813423a55acaa4706b62d8f022026112f116e2e0c792fcdb1afd63d119da559ef01f40a72e276e41961dc2ac7a5[ALL] 030db5d7e4214c5d6ce569f8fcf1ef0ee6ca2579e5d872961b78d18ebef45cd65c"}, "vout": 0, "txid": "d07474d4f7dcdcd1099521681d4a2be5d43161ee1e92cc86698feb161c27473a"}, {"sequence": 4294967295, "scriptSig": {"hex": "483045022100b7de63cbc9aca6de9bfd024ee13e65e111fddc1d7cb08bc43a3f9b9454994632022039db93d0638c046d6237429a39571d74b583b5051f4b5ab80565a40fecdd81800121030db5d7e4214c5d6ce569f8fcf1ef0ee6ca2579e5d872961b78d18ebef45cd65c", "asm": "3045022100b7de63cbc9aca6de9bfd024ee13e65e111fddc1d7cb08bc43a3f9b9454994632022039db93d0638c046d6237429a39571d74b583b5051f4b5ab80565a40fecdd8180[ALL] 030db5d7e4214c5d6ce569f8fcf1ef0ee6ca2579e5d872961b78d18ebef45cd65c"}, "vout": 0, "txid": "f4b6ab7fe085fa21df1eed00ee5551fafb3d3de4a6a84a273dfffc4343df8788"}], "txid": "150a8b644d9bbdfc6903085cd8d0f898e5c12abdcdbcd4fdf897ee7abf0ad6eb", "blocktime": 1537874412, "version": 1, "confirmations": 11468, "time": 1537874412, "locktime": 0, "vsize": 2440, "size": 2440}