{"hash": "1511e3f45c994dc876dcc5d59978fa65c82ff341bf335634ee24a91b42590dfa", "blockhash": "00000000000000000024a2167bbff67b0be802c0b01cdd79e6331c2be6459f87", "vout": [{"scriptPubKey": {"reqSigs": 1, "hex": "a914d002aa417120806df6fc2f595e557478f356317b87", "addresses": ["3Lesfch3qgoXbQSSizKQE887XdeEWwSeSH"], "asm": "OP_HASH160 d002aa417120806df6fc2f595e557478f356317b OP_EQUAL", "type": "scripthash"}, "value": 0.93738, "n": 0}, {"scriptPubKey": {"reqSigs": 1, "hex": "76a9144113fc9d558404b472281c9c44f419a7015befe788ac", "addresses": ["16w6sB828SwRQYdzjiQpAd5xkFKQhbgVkr"], "asm": "OP_DUP OP_HASH160 4113fc9d558404b472281c9c44f419a7015befe7 OP_EQUALVERIFY OP_CHECKSIG", "type": "pubkeyhash"}, "value": 2.12627526, "n": 1}], "hex": "010000000172d85911222776493760840bd5366aa9fa3ecc9777a8e8cd8a000244ff3242bc010000006b483045022100b2ac226c32e1cb9341559c0f129a66746ce506a1847502032baa34fae4e58e6f0220360def2941a179b23fa217d1b129779970b70a129ef250a3a1e598c1f5043462012102159fd50d770f88c6f205f42c05c2754d358d7739c0e6276be5d0a37e6987b0d5ffffffff02105496050000000017a914d002aa417120806df6fc2f595e557478f356317b874670ac0c000000001976a9144113fc9d558404b472281c9c44f419a7015befe788ac00000000", "vin": [{"sequence": 4294967295, "scriptSig": {"hex": "483045022100b2ac226c32e1cb9341559c0f129a66746ce506a1847502032baa34fae4e58e6f0220360def2941a179b23fa217d1b129779970b70a129ef250a3a1e598c1f5043462012102159fd50d770f88c6f205f42c05c2754d358d7739c0e6276be5d0a37e6987b0d5", "asm": "3045022100b2ac226c32e1cb9341559c0f129a66746ce506a1847502032baa34fae4e58e6f0220360def2941a179b23fa217d1b129779970b70a129ef250a3a1e598c1f5043462[ALL] 02159fd50d770f88c6f205f42c05c2754d358d7739c0e6276be5d0a37e6987b0d5"}, "vout": 1, "txid": "bc4232ff4402008acde8a87797cc3efaa96a36d50b846037497627221159d872"}], "txid": "1511e3f45c994dc876dcc5d59978fa65c82ff341bf335634ee24a91b42590dfa", "blocktime": 1537870564, "version": 1, "confirmations": 11515, "time": 1537870564, "locktime": 0, "vsize": 224, "size": 224}