{"hash": "151135ca7bb8d749f059a3e4969981271222080d7e3cc32b834a3420b082b7cd", "blockhash": "00000000000000000004ffacab907a6b429b9a5745fa0b75af4234bf69dd7176", "vout": [{"scriptPubKey": {"reqSigs": 1, "hex": "76a91476aba0a260b5e4e54504a37d572cabff8ebe150688ac", "addresses": ["1BpULXHfpfCwH5rKWHbcMV7H64poeAWMW4"], "asm": "OP_DUP OP_HASH160 76aba0a260b5e4e54504a37d572cabff8ebe1506 OP_EQUALVERIFY OP_CHECKSIG", "type": "pubkeyhash"}, "value": 3.817, "n": 0}, {"scriptPubKey": {"reqSigs": 1, "hex": "76a9146c5cf83631ab34e57d0a24c01bc1562034138bb788ac", "addresses": ["1AsyMMiQVWWR9NLTr9zMZvJnpj1mpPmhe5"], "asm": "OP_DUP OP_HASH160 6c5cf83631ab34e57d0a24c01bc1562034138bb7 OP_EQUALVERIFY OP_CHECKSIG", "type": "pubkeyhash"}, "value": 0.16502733, "n": 1}], "hex": "010000000140db77adec3902910955b257a9765eb14353ff46a099f36ad1adb7af407d36a5000000006b483045022100c2ed6800d0d3c94885bf0976c60d69c211f0f18c6be600cce491997e99b8e50302203e5f2485b53882c4601dfcd01dd101a6f32c5fcbdce9f107fa631043cc5a59390121026785c825dadd989cabbf6704a5badfe4136bc7db9a0531bade3201c830fd0eceffffffff02a047c016000000001976a91476aba0a260b5e4e54504a37d572cabff8ebe150688accdcffb00000000001976a9146c5cf83631ab34e57d0a24c01bc1562034138bb788ac00000000", "vin": [{"sequence": 4294967295, "scriptSig": {"hex": "483045022100c2ed6800d0d3c94885bf0976c60d69c211f0f18c6be600cce491997e99b8e50302203e5f2485b53882c4601dfcd01dd101a6f32c5fcbdce9f107fa631043cc5a59390121026785c825dadd989cabbf6704a5badfe4136bc7db9a0531bade3201c830fd0ece", "asm": "3045022100c2ed6800d0d3c94885bf0976c60d69c211f0f18c6be600cce491997e99b8e50302203e5f2485b53882c4601dfcd01dd101a6f32c5fcbdce9f107fa631043cc5a5939[ALL] 026785c825dadd989cabbf6704a5badfe4136bc7db9a0531bade3201c830fd0ece"}, "vout": 0, "txid": "a5367d40afb7add16af399a046ff5343b15e76a957b25509910239ecad77db40"}], "txid": "151135ca7bb8d749f059a3e4969981271222080d7e3cc32b834a3420b082b7cd", "blocktime": 1537875543, "version": 1, "confirmations": 11464, "time": 1537875543, "locktime": 0, "vsize": 226, "size": 226}