{"hash": "1511c67acd19a5b8ce2dd5dfcddb329439c82e32abff27cbfa3a92ffbf69a24a", "blockhash": "00000000000000000017f5eb5941039fbcee6240d03bc1f2f8e35350df66a1d8", "vout": [{"scriptPubKey": {"reqSigs": 1, "hex": "76a9140621d64b41b0400ffc7935baa941b1314149580988ac", "addresses": ["1ZRbCBzRcmGXrL6smwihkcGFohBwLJW3f"], "asm": "OP_DUP OP_HASH160 0621d64b41b0400ffc7935baa941b13141495809 OP_EQUALVERIFY OP_CHECKSIG", "type": "pubkeyhash"}, "value": 0.00202481, "n": 0}, {"scriptPubKey": {"reqSigs": 1, "hex": "76a91452804b6d13f22510e2877b498e78879bb56c9e6988ac", "addresses": ["18XE6oFiqBU6qSH5nNomgCqAActdqWL8sX"], "asm": "OP_DUP OP_HASH160 52804b6d13f22510e2877b498e78879bb56c9e69 OP_EQUALVERIFY OP_CHECKSIG", "type": "pubkeyhash"}, "value": 0.00342, "n": 1}], "hex": "0100000001d271129a25d22ce845480cb542a04a66a4610d663b5b79259ce96594c3eeb098000000006a47304402206dc96750c47c1e3679421ced39f9395aef2dc1f706f2b7bfa1001b91bd63502b02202d2daec7e0dc93bf06091613819ecd847e13b2c6b47edfedd973a4f1e357bdd001210388fd13336bf9a66825d383bd0c069d410aea5f3eca5898f1577887b65f61e4a7ffffffff02f1160300000000001976a9140621d64b41b0400ffc7935baa941b1314149580988acf0370500000000001976a91452804b6d13f22510e2877b498e78879bb56c9e6988ac00000000", "vin": [{"sequence": 4294967295, "scriptSig": {"hex": "47304402206dc96750c47c1e3679421ced39f9395aef2dc1f706f2b7bfa1001b91bd63502b02202d2daec7e0dc93bf06091613819ecd847e13b2c6b47edfedd973a4f1e357bdd001210388fd13336bf9a66825d383bd0c069d410aea5f3eca5898f1577887b65f61e4a7", "asm": "304402206dc96750c47c1e3679421ced39f9395aef2dc1f706f2b7bfa1001b91bd63502b02202d2daec7e0dc93bf06091613819ecd847e13b2c6b47edfedd973a4f1e357bdd0[ALL] 0388fd13336bf9a66825d383bd0c069d410aea5f3eca5898f1577887b65f61e4a7"}, "vout": 0, "txid": "98b0eec39465e99c25795b3b660d61a4664aa042b50c4845e82cd2259a1271d2"}], "txid": "1511c67acd19a5b8ce2dd5dfcddb329439c82e32abff27cbfa3a92ffbf69a24a", "blocktime": 1537874412, "version": 1, "confirmations": 11468, "time": 1537874412, "locktime": 0, "vsize": 225, "size": 225}