{"hash": "e96d8204bc218711e9750a1044933bf10bc84183cd4413dd7478ef4ab1a388f5", "blockhash": "0000000000000000000baef3f32e3676a92c3b2e5da21b426e4f302fc371ce76", "vout": [{"scriptPubKey": {"reqSigs": 1, "hex": "a9144fd24f0a99f2f591a1fe668ec8c72a2cec43a0d687", "addresses": ["38y5FCx9QzCn6PumKTzXfu3sfNCxm42pyR"], "asm": "OP_HASH160 4fd24f0a99f2f591a1fe668ec8c72a2cec43a0d6 OP_EQUAL", "type": "scripthash"}, "value": 0.06059384, "n": 0}, {"scriptPubKey": {"reqSigs": 1, "hex": "a91422fc70b3f90688ec56336b2258aa143b58543c5687", "addresses": ["34t1JvR9B8pxJKAusex439gdcYQkFKCxvE"], "asm": "OP_HASH160 22fc70b3f90688ec56336b2258aa143b58543c56 OP_EQUAL", "type": "scripthash"}, "value": 0.01136868, "n": 1}], "hex": "02000000000102054b0ed5fffa1492ed93255c6bf3785f71e9da79c6acb3acb13d65ff261b3d0914000000171600141409ad01a88cccc3aef6bdc6083725a23b536a01feffffff2491f0e648a6c1c685f44528a0de1a207aad932e1ed47b0ded03d265897c7a880100000017160014320bfb1ab73aed7c9d74602262a4b3b306e6ca7bfeffffff0278755c000000000017a9144fd24f0a99f2f591a1fe668ec8c72a2cec43a0d687e45811000000000017a91422fc70b3f90688ec56336b2258aa143b58543c5687024730440220345d9de318af29f4638760b27220f54ab0150e0df583e437a77713e9ddf9c8aa02202691b80698f7a6458d34584de3a5b939ae7461a2d981b857f607c87987028728012103e40a94de9028990c2f0e407322657b7b92e71c7d55c07f36c610dc4db5087a9002473044022053aa444d245d88d4338d3a4ff78ece43e0a2408dd9a11c1ade047a44cbddea7202200d92d3926929411502d9479303e89f177e63002e5fcfacfb3c90e50769a50d830121031a9816042e3e2661b5444481bcf0ff27fa2f6cc49d817aaa4b9df2b76dc8406616490800", "vin": [{"txinwitness": ["30440220345d9de318af29f4638760b27220f54ab0150e0df583e437a77713e9ddf9c8aa02202691b80698f7a6458d34584de3a5b939ae7461a2d981b857f607c8798702872801", "03e40a94de9028990c2f0e407322657b7b92e71c7d55c07f36c610dc4db5087a90"], "sequence": 4294967294, "scriptSig": {"hex": "1600141409ad01a88cccc3aef6bdc6083725a23b536a01", "asm": "00141409ad01a88cccc3aef6bdc6083725a23b536a01"}, "vout": 20, "txid": "093d1b26ff653db1acb3acc679dae9715f78f36b5c2593ed9214faffd50e4b05"}, {"txinwitness": ["3044022053aa444d245d88d4338d3a4ff78ece43e0a2408dd9a11c1ade047a44cbddea7202200d92d3926929411502d9479303e89f177e63002e5fcfacfb3c90e50769a50d8301", "031a9816042e3e2661b5444481bcf0ff27fa2f6cc49d817aaa4b9df2b76dc84066"], "sequence": 4294967294, "scriptSig": {"hex": "160014320bfb1ab73aed7c9d74602262a4b3b306e6ca7b", "asm": "0014320bfb1ab73aed7c9d74602262a4b3b306e6ca7b"}, "vout": 1, "txid": "887a7c8965d203ed0d7bd41e2e93ad7a201adea02845f485c6c1a648e6f09124"}], "txid": "15129da6dd11a97197116de4852cca4f0b6ad1eb32d933002cdf050d32cc308d", "blocktime": 1537876114, "version": 2, "confirmations": 11460, "time": 1537876114, "locktime": 542998, "vsize": 256, "size": 418}