{"hash": "1517f2a6a87049b6e33ef557aa10a5a1117c67abde71c78e8ed768f54e6801fa", "blockhash": "0000000000000000001cda96e906b7601b7a6fb1a3b62bca570a9e5d8f4b3de1", "vout": [{"scriptPubKey": {"reqSigs": 1, "hex": "a914a1aa7dcdf2ae3e0c21cfb2487e5d45564bd61e1687", "addresses": ["3GRpxP1QducZprWvyUCGks57TZUzEnm1p4"], "asm": "OP_HASH160 a1aa7dcdf2ae3e0c21cfb2487e5d45564bd61e16 OP_EQUAL", "type": "scripthash"}, "value": 0.042398, "n": 0}], "hex": "0100000001556a39a7c56a471272f4a29896fb9f5dda5a4b6651b8aa664a915d1cbe57fc35010000006b483045022100d4367b01e23dbb9f6561c53eaaf933e24125c820eaeb66767e0169dfb67865790220524701b12349caf72088d2c519b7023527e51afd7ff2e45c7d35c5a1b5173ddf0121030cc5dfd5bf007dfd4f95f53c49c4b0ba5e495bb498bbc0e10998fa20a84d900affffffff01b8b140000000000017a914a1aa7dcdf2ae3e0c21cfb2487e5d45564bd61e168700000000", "vin": [{"sequence": 4294967295, "scriptSig": {"hex": "483045022100d4367b01e23dbb9f6561c53eaaf933e24125c820eaeb66767e0169dfb67865790220524701b12349caf72088d2c519b7023527e51afd7ff2e45c7d35c5a1b5173ddf0121030cc5dfd5bf007dfd4f95f53c49c4b0ba5e495bb498bbc0e10998fa20a84d900a", "asm": "3045022100d4367b01e23dbb9f6561c53eaaf933e24125c820eaeb66767e0169dfb67865790220524701b12349caf72088d2c519b7023527e51afd7ff2e45c7d35c5a1b5173ddf[ALL] 030cc5dfd5bf007dfd4f95f53c49c4b0ba5e495bb498bbc0e10998fa20a84d900a"}, "vout": 1, "txid": "35fc57be1c5d914a66aab851664b5ada5d9ffb9698a2f47212476ac5a7396a55"}], "txid": "1517f2a6a87049b6e33ef557aa10a5a1117c67abde71c78e8ed768f54e6801fa", "blocktime": 1537873282, "version": 1, "confirmations": 11480, "time": 1537873282, "locktime": 0, "vsize": 190, "size": 190}