{"hash": "239aef5d8134f7d7819f02615a98a34ee56a26450f9dbe0eb6becf45eff0e63a", "blockhash": "00000000000000000024a2167bbff67b0be802c0b01cdd79e6331c2be6459f87", "vout": [{"scriptPubKey": {"reqSigs": 1, "hex": "76a914811cbb54b26841c07cfd3604c5fd3e09dbbc286288ac", "addresses": ["1Cmgb4hufzX69SqjB3EpZpkGphps6ugtY6"], "asm": "OP_DUP OP_HASH160 811cbb54b26841c07cfd3604c5fd3e09dbbc2862 OP_EQUALVERIFY OP_CHECKSIG", "type": "pubkeyhash"}, "value": 0.000156, "n": 0}, {"scriptPubKey": {"reqSigs": 1, "hex": "0014ac4e0656c942440943329936c018c95be13e14a7", "addresses": ["bc1q438qv4kfgfzqjsejnymvqxxft0snu9984njxfu"], "asm": "0 ac4e0656c942440943329936c018c95be13e14a7", "type": "witness_v0_keyhash"}, "value": 1.061e-05, "n": 1}], "hex": "010000000001012328e9d9631f16184d75f4bcf4ca1bbd996b4d75932dc17e6c2ee43b20fdf7c30000000000ffffffff02f03c0000000000001976a914811cbb54b26841c07cfd3604c5fd3e09dbbc286288ac2504000000000000160014ac4e0656c942440943329936c018c95be13e14a7024830450221008b6eb056347e7ea7f1b88c18aa78013d5664715df62718f14c44ea078ed1bc990220123d6f398b14252e5a9c9552fe4d42036e82961d157b6119806d1934cde64bd80121034062ef8f2f2af2e2cfaafc0986c33dc8e0a4ec9cf9943a729767664c56fa407800000000", "vin": [{"txinwitness": ["30450221008b6eb056347e7ea7f1b88c18aa78013d5664715df62718f14c44ea078ed1bc990220123d6f398b14252e5a9c9552fe4d42036e82961d157b6119806d1934cde64bd801", "034062ef8f2f2af2e2cfaafc0986c33dc8e0a4ec9cf9943a729767664c56fa4078"], "sequence": 4294967295, "scriptSig": {"hex": "", "asm": ""}, "vout": 0, "txid": "c3f7fd203be42e6c7ec12d93754d6b99bd1bcaf4bcf4754d18161f63d9e92823"}], "txid": "151921b31f6498d7dc15ac7df915e483c56a81e7053993d55526c159d32679ea", "blocktime": 1537870564, "version": 1, "confirmations": 11515, "time": 1537870564, "locktime": 0, "vsize": 144, "size": 226}