{"hash": "151dca86d0926a1de7d4bff6191519978fa9e066a95f171dfff5087a4eff3564", "blockhash": "0000000000000000001cda96e906b7601b7a6fb1a3b62bca570a9e5d8f4b3de1", "vout": [{"scriptPubKey": {"reqSigs": 1, "hex": "76a91400e3054ee5a26b8ef8994a0382eae4d51724854f88ac", "addresses": ["115gxgH8Je1cD6QE6hxTxzx2aNnViPx3dw"], "asm": "OP_DUP OP_HASH160 00e3054ee5a26b8ef8994a0382eae4d51724854f OP_EQUALVERIFY OP_CHECKSIG", "type": "pubkeyhash"}, "value": 0.00015527, "n": 0}, {"scriptPubKey": {"reqSigs": 1, "hex": "76a91403a9f3941482ec10c1c4775c462651df799f9ba688ac", "addresses": ["1LNd1ejfXLVw2bEZJHo98bqysQeS2wfqf"], "asm": "OP_DUP OP_HASH160 03a9f3941482ec10c1c4775c462651df799f9ba6 OP_EQUALVERIFY OP_CHECKSIG", "type": "pubkeyhash"}, "value": 0.00243293, "n": 1}], "hex": "01000000011273ecb39876ccb791747c0143d481d16e650a298c05c02ce88092c606727e61010000006a47304402201693aed93aaf25f6d1140b29b8c465651247270bc9e657c1027038a649e7c506022031a21409d3c90fa456c9699fe06224593c6981bc881f321c3c0238cf1ac9ca7d012102d7d18f0621259ec53e04371aca1a794a95f3fb104ae3cb20caa07c26a5a00c69fdffffff02a73c0000000000001976a91400e3054ee5a26b8ef8994a0382eae4d51724854f88ac5db60300000000001976a91403a9f3941482ec10c1c4775c462651df799f9ba688ac00000000", "vin": [{"sequence": 4294967293, "scriptSig": {"hex": "47304402201693aed93aaf25f6d1140b29b8c465651247270bc9e657c1027038a649e7c506022031a21409d3c90fa456c9699fe06224593c6981bc881f321c3c0238cf1ac9ca7d012102d7d18f0621259ec53e04371aca1a794a95f3fb104ae3cb20caa07c26a5a00c69", "asm": "304402201693aed93aaf25f6d1140b29b8c465651247270bc9e657c1027038a649e7c506022031a21409d3c90fa456c9699fe06224593c6981bc881f321c3c0238cf1ac9ca7d[ALL] 02d7d18f0621259ec53e04371aca1a794a95f3fb104ae3cb20caa07c26a5a00c69"}, "vout": 1, "txid": "617e7206c69280e82cc0058c290a656ed181d443017c7491b7cc7698b3ec7312"}], "txid": "151dca86d0926a1de7d4bff6191519978fa9e066a95f171dfff5087a4eff3564", "blocktime": 1537873282, "version": 1, "confirmations": 11485, "time": 1537873282, "locktime": 0, "vsize": 225, "size": 225}