{"hash": "151f173f087245f6ac226914f693c6014d378187fabbe0d53811c45942058326", "blockhash": "0000000000000000001e0dab787dd257d1dbfcb92a98c2207d5e1078be1f4165", "vout": [{"scriptPubKey": {"reqSigs": 1, "hex": "76a914efee4640b6eb2ea6a58f8374cb6dc8589bdadb0d88ac", "addresses": ["1NsdwSoAEV7Efi7kHsXofQYRCDh4tDygGw"], "asm": "OP_DUP OP_HASH160 efee4640b6eb2ea6a58f8374cb6dc8589bdadb0d OP_EQUALVERIFY OP_CHECKSIG", "type": "pubkeyhash"}, "value": 0.00642999, "n": 0}, {"scriptPubKey": {"type": "nulldata", "hex": "6a4c50000077af000133d242bfa6513a9aee3b9501af6c953dd567cf27e7e3ef3236678a62509767e2578ffb078e13fec09074c7521b0a5baa11320612075735e6fe331d100759d4ba30d2c37bb011d97e02cf", "asm": "OP_RETURN 000077af000133d242bfa6513a9aee3b9501af6c953dd567cf27e7e3ef3236678a62509767e2578ffb078e13fec09074c7521b0a5baa11320612075735e6fe331d100759d4ba30d2c37bb011d97e02cf"}, "value": 0.0, "n": 1}], "hex": "010000000176c72e687f6652ae7975f3b760c1624541e32cf2610134e1bb05e73c9392ad1f000000006b483045022100abb85400b714930fbe628ed6ae2ea9d685894cc203c8d90e3944fa08a81d0ee702206f5dc36b0e2288e6cc129d692d0ab16307356b0e4104c472bf71bec1e9231f3701210249261078232175e31fb2b8c22a219e8ae70364cbf14c179b6fb02a517eb65f3dffffffff02b7cf0900000000001976a914efee4640b6eb2ea6a58f8374cb6dc8589bdadb0d88ac0000000000000000536a4c50000077af000133d242bfa6513a9aee3b9501af6c953dd567cf27e7e3ef3236678a62509767e2578ffb078e13fec09074c7521b0a5baa11320612075735e6fe331d100759d4ba30d2c37bb011d97e02cf00000000", "vin": [{"sequence": 4294967295, "scriptSig": {"hex": "483045022100abb85400b714930fbe628ed6ae2ea9d685894cc203c8d90e3944fa08a81d0ee702206f5dc36b0e2288e6cc129d692d0ab16307356b0e4104c472bf71bec1e9231f3701210249261078232175e31fb2b8c22a219e8ae70364cbf14c179b6fb02a517eb65f3d", "asm": "3045022100abb85400b714930fbe628ed6ae2ea9d685894cc203c8d90e3944fa08a81d0ee702206f5dc36b0e2288e6cc129d692d0ab16307356b0e4104c472bf71bec1e9231f37[ALL] 0249261078232175e31fb2b8c22a219e8ae70364cbf14c179b6fb02a517eb65f3d"}, "vout": 0, "txid": "1fad92933ce705bbe1340161f22ce3414562c160b7f37579ae52667f682ec776"}], "txid": "151f173f087245f6ac226914f693c6014d378187fabbe0d53811c45942058326", "blocktime": 1537872475, "version": 1, "confirmations": 11486, "time": 1537872475, "locktime": 0, "vsize": 284, "size": 284}