{"hash": "15206f83c87d034a6b577a2553735df5cccdf6d5ccd605fbebcf6934cc77c701", "blockhash": "00000000000000000017f5eb5941039fbcee6240d03bc1f2f8e35350df66a1d8", "vout": [{"scriptPubKey": {"reqSigs": 1, "hex": "76a9149a2a11b02b8cc4d213356e1aa48f85c6d334bc3688ac", "addresses": ["1F49TZ81NByJNJEjvjni4KkmJBiUFGcGeK"], "asm": "OP_DUP OP_HASH160 9a2a11b02b8cc4d213356e1aa48f85c6d334bc36 OP_EQUALVERIFY OP_CHECKSIG", "type": "pubkeyhash"}, "value": 0.00441302, "n": 0}, {"scriptPubKey": {"type": "nulldata", "hex": "6a146f6d6e69000000000000001f000000399ac90080", "asm": "OP_RETURN 6f6d6e69000000000000001f000000399ac90080"}, "value": 0.0, "n": 1}, {"scriptPubKey": {"reqSigs": 1, "hex": "76a914a25dec4d0011064ef106a983c39c7a540699f22088ac", "addresses": ["1FoWyxwPXuj4C6abqwhjDWdz6D4PZgYRjA"], "asm": "OP_DUP OP_HASH160 a25dec4d0011064ef106a983c39c7a540699f220 OP_EQUALVERIFY OP_CHECKSIG", "type": "pubkeyhash"}, "value": 5.46e-06, "n": 2}], "hex": "010000000100b8a9eadcd6da80ff883cfc975c9a405b3c87eb92d31ad03bed455d94cbad61020000006b4830450221008a0533a190526e7dd0d6b7ec81b0a966f8ec4571fdafbb107a7c99658bb0ebef022063dbb6cca72f3df5281e8d1e3c445a117091dcedf2a8ae5cf83807fed8ee0249012103ac32586739811ab4172f9382c9012ec2cb08c3a1c3245838a656ff65056a6fe6feffffff03d6bb0600000000001976a9149a2a11b02b8cc4d213356e1aa48f85c6d334bc3688ac0000000000000000166a146f6d6e69000000000000001f000000399ac9008022020000000000001976a914a25dec4d0011064ef106a983c39c7a540699f22088ac15490800", "vin": [{"sequence": 4294967294, "scriptSig": {"hex": "4830450221008a0533a190526e7dd0d6b7ec81b0a966f8ec4571fdafbb107a7c99658bb0ebef022063dbb6cca72f3df5281e8d1e3c445a117091dcedf2a8ae5cf83807fed8ee0249012103ac32586739811ab4172f9382c9012ec2cb08c3a1c3245838a656ff65056a6fe6", "asm": "30450221008a0533a190526e7dd0d6b7ec81b0a966f8ec4571fdafbb107a7c99658bb0ebef022063dbb6cca72f3df5281e8d1e3c445a117091dcedf2a8ae5cf83807fed8ee0249[ALL] 03ac32586739811ab4172f9382c9012ec2cb08c3a1c3245838a656ff65056a6fe6"}, "vout": 2, "txid": "61adcb945d45ed3bd01ad392eb873c5b409a5c97fc3c88ff80dad6dceaa9b800"}], "txid": "15206f83c87d034a6b577a2553735df5cccdf6d5ccd605fbebcf6934cc77c701", "blocktime": 1537874412, "version": 1, "confirmations": 11468, "time": 1537874412, "locktime": 542997, "vsize": 257, "size": 257}