{"hash": "1523325d6f79622b62de5031f1982941e3da97adb4dac983718537b27ad19313", "blockhash": "00000000000000000024a2167bbff67b0be802c0b01cdd79e6331c2be6459f87", "vout": [{"scriptPubKey": {"reqSigs": 1, "hex": "a914a1aa7dcdf2ae3e0c21cfb2487e5d45564bd61e1687", "addresses": ["3GRpxP1QducZprWvyUCGks57TZUzEnm1p4"], "asm": "OP_HASH160 a1aa7dcdf2ae3e0c21cfb2487e5d45564bd61e16 OP_EQUAL", "type": "scripthash"}, "value": 0.023311, "n": 0}], "hex": "0100000001ad8cbd8c624f3cb8740d9d3ac41e7fc5ec9c97e311c9bd85f62db3479bb1f1b1010000006a473044022027a830e47e477cf368768dac4dcfcb701abf5a41b7125e3d0622c247687d4f2002202ce6b4430420d686a02be666397d7d41a74680e444128af91812586033947b6d012103169eef2fd509f47fbff79457a0dcc29e4acb5f714dd2ba0614ea8a8472cd8c24ffffffff01dc9123000000000017a914a1aa7dcdf2ae3e0c21cfb2487e5d45564bd61e168700000000", "vin": [{"sequence": 4294967295, "scriptSig": {"hex": "473044022027a830e47e477cf368768dac4dcfcb701abf5a41b7125e3d0622c247687d4f2002202ce6b4430420d686a02be666397d7d41a74680e444128af91812586033947b6d012103169eef2fd509f47fbff79457a0dcc29e4acb5f714dd2ba0614ea8a8472cd8c24", "asm": "3044022027a830e47e477cf368768dac4dcfcb701abf5a41b7125e3d0622c247687d4f2002202ce6b4430420d686a02be666397d7d41a74680e444128af91812586033947b6d[ALL] 03169eef2fd509f47fbff79457a0dcc29e4acb5f714dd2ba0614ea8a8472cd8c24"}, "vout": 1, "txid": "b1f1b19b47b32df685bdc911e3979cecc57f1ec43a9d0d74b83c4f628cbd8cad"}], "txid": "1523325d6f79622b62de5031f1982941e3da97adb4dac983718537b27ad19313", "blocktime": 1537870564, "version": 1, "confirmations": 11515, "time": 1537870564, "locktime": 0, "vsize": 189, "size": 189}