{"hash": "152788bff4d1eeefef735380459a42d96e9d4e57a5b8c4e6657224b8c3853f51", "blockhash": "0000000000000000001f0ddff1eddb255c1121bcd4da4f1bc9a0da00cae72433", "vout": [{"scriptPubKey": {"reqSigs": 1, "hex": "76a914f982cba98e3b2432fe5d601afe025f4f34c71ce088ac", "addresses": ["1PkHwbpVGXvRrgyqv9K6MjaypvnJTVAZkJ"], "asm": "OP_DUP OP_HASH160 f982cba98e3b2432fe5d601afe025f4f34c71ce0 OP_EQUALVERIFY OP_CHECKSIG", "type": "pubkeyhash"}, "value": 0.3899541, "n": 0}, {"scriptPubKey": {"reqSigs": 1, "hex": "a914822bc547bedf0c9c8e656746a93c18492620239287", "addresses": ["3DZJCic1Muynqsuwa2tSzuokCUiQLdYF8E"], "asm": "OP_HASH160 822bc547bedf0c9c8e656746a93c184926202392 OP_EQUAL", "type": "scripthash"}, "value": 0.0206, "n": 1}], "hex": "0200000001893b2ef3add55c602433fbfd69fddac2e682c8c3397f0b73e107dae168fe6d6a010000006a473044022059bb52aa591b23b1343400321caf5e5b4c26dd9fc16fa4a1a8556f55eaec9e9e022034103d357e9736b03f9dc97e26b0b9a828500e014aafd5f31309094c1c9fa1540121025c620a01c961c15fc0502c6fd6b75ab7e840f7bfd43541244b5419d44cb5dee7feffffff02d2055302000000001976a914f982cba98e3b2432fe5d601afe025f4f34c71ce088ace06e1f000000000017a914822bc547bedf0c9c8e656746a93c1849262023928711490800", "vin": [{"sequence": 4294967294, "scriptSig": {"hex": "473044022059bb52aa591b23b1343400321caf5e5b4c26dd9fc16fa4a1a8556f55eaec9e9e022034103d357e9736b03f9dc97e26b0b9a828500e014aafd5f31309094c1c9fa1540121025c620a01c961c15fc0502c6fd6b75ab7e840f7bfd43541244b5419d44cb5dee7", "asm": "3044022059bb52aa591b23b1343400321caf5e5b4c26dd9fc16fa4a1a8556f55eaec9e9e022034103d357e9736b03f9dc97e26b0b9a828500e014aafd5f31309094c1c9fa154[ALL] 025c620a01c961c15fc0502c6fd6b75ab7e840f7bfd43541244b5419d44cb5dee7"}, "vout": 1, "txid": "6a6dfe68e1da07e1730b7f39c3c882e6c2dafd69fdfb3324605cd5adf32e3b89"}], "txid": "152788bff4d1eeefef735380459a42d96e9d4e57a5b8c4e6657224b8c3853f51", "blocktime": 1537872018, "version": 2, "confirmations": 11489, "time": 1537872018, "locktime": 542993, "vsize": 223, "size": 223}