{"hash": "1539eed11297a11944b1b4c844b8587f8ddcb8fdce1704dde43bbdca3e8270bd", "blockhash": "0000000000000000000dcc0f55137456b1a82d3642486a52398922ac4d620174", "vout": [{"scriptPubKey": {"reqSigs": 1, "hex": "76a914b360d13c3336775bb3bf441a7ed9847f82b8c0d888ac", "addresses": ["1HMTwKkbwACpXBrQqo1M7Vyv58bSecZxPN"], "asm": "OP_DUP OP_HASH160 b360d13c3336775bb3bf441a7ed9847f82b8c0d8 OP_EQUALVERIFY OP_CHECKSIG", "type": "pubkeyhash"}, "value": 0.00020777, "n": 0}, {"scriptPubKey": {"reqSigs": 1, "hex": "76a9140e34b493e6953963ea97ef8e542ec9337cc8c44988ac", "addresses": ["12J7bikFH2TXm4c1pkHBrXuohBAaU1fw3k"], "asm": "OP_DUP OP_HASH160 0e34b493e6953963ea97ef8e542ec9337cc8c449 OP_EQUALVERIFY OP_CHECKSIG", "type": "pubkeyhash"}, "value": 0.01246821, "n": 1}], "hex": "0100000004ae556828ce031b3aef4b07840f7682be8b2d06d23696c889c1b97dba3183602c000000006a47304402206400a043bca359d69d40980bb8cb53cc1cd42aeee224548783d6b79716422be602207f2a923715617e4e197da1fc08a38e408efc407b22ac53e4a28c041f27395d69012102dfcca06443e2c1094f234e6de1beacfc5e37ff943a34e3e0ac320ddf3b15cac0ffffffff0fb866fb6d245ed2af085c91b70500b3faaff1402ed82a7696b08ea50c1e9343040000006a47304402202677ef9ec37851a2d54b2e97769740020089619519eb120d1760c4cf046e1e4202200828f146c3f04a2bc9fe71c4111215fde59db3433c92c023b7215206f26e8a8f01210286e0e057091d4592df23b83c1b0555c71b9feea824754a01a60aee4d35937e67ffffffffc4c57830ad1e513ebce618890303eb08d965a1f659d6ed7ce6319964daa50d44000000006a473044022074b88f6b7810df1498eb45a1dfc9e855312f13df0a4aa763ac80facbf500447e022039150dc63250ad1d8f18f86dd1b99a3c88b5397963dae6c83e8cf4181ad96c54012103926b355acd26bfbb30453eebfce2c066302a8434adc0e0434771e21918747a0dffffffff5ae80e51607f531af8ada9f9f2b1caa5c6bb3cdc6f64216f3a1be6f0e0e70294000000006b483045022100fdf07bc6cb455ac2b4a8d056127489698386f83662d31131856413d4b2a7fda90220776a88ae753103506cb1b92329faa8daef15d65383dc2461d1379550a3e9aba00121037a33066b38b8f3658b67de05ded84c16c23a64d2889cebaf05b09558b0e5d50bffffffff0229510000000000001976a914b360d13c3336775bb3bf441a7ed9847f82b8c0d888ac65061300000000001976a9140e34b493e6953963ea97ef8e542ec9337cc8c44988ac00000000", "vin": [{"sequence": 4294967295, "scriptSig": {"hex": "47304402206400a043bca359d69d40980bb8cb53cc1cd42aeee224548783d6b79716422be602207f2a923715617e4e197da1fc08a38e408efc407b22ac53e4a28c041f27395d69012102dfcca06443e2c1094f234e6de1beacfc5e37ff943a34e3e0ac320ddf3b15cac0", "asm": "304402206400a043bca359d69d40980bb8cb53cc1cd42aeee224548783d6b79716422be602207f2a923715617e4e197da1fc08a38e408efc407b22ac53e4a28c041f27395d69[ALL] 02dfcca06443e2c1094f234e6de1beacfc5e37ff943a34e3e0ac320ddf3b15cac0"}, "vout": 0, "txid": "2c608331ba7db9c189c89636d2062d8bbe82760f84074bef3a1b03ce286855ae"}, {"sequence": 4294967295, "scriptSig": {"hex": "47304402202677ef9ec37851a2d54b2e97769740020089619519eb120d1760c4cf046e1e4202200828f146c3f04a2bc9fe71c4111215fde59db3433c92c023b7215206f26e8a8f01210286e0e057091d4592df23b83c1b0555c71b9feea824754a01a60aee4d35937e67", "asm": "304402202677ef9ec37851a2d54b2e97769740020089619519eb120d1760c4cf046e1e4202200828f146c3f04a2bc9fe71c4111215fde59db3433c92c023b7215206f26e8a8f[ALL] 0286e0e057091d4592df23b83c1b0555c71b9feea824754a01a60aee4d35937e67"}, "vout": 4, "txid": "43931e0ca58eb096762ad82e40f1affab30005b7915c08afd25e246dfb66b80f"}, {"sequence": 4294967295, "scriptSig": {"hex": "473044022074b88f6b7810df1498eb45a1dfc9e855312f13df0a4aa763ac80facbf500447e022039150dc63250ad1d8f18f86dd1b99a3c88b5397963dae6c83e8cf4181ad96c54012103926b355acd26bfbb30453eebfce2c066302a8434adc0e0434771e21918747a0d", "asm": "3044022074b88f6b7810df1498eb45a1dfc9e855312f13df0a4aa763ac80facbf500447e022039150dc63250ad1d8f18f86dd1b99a3c88b5397963dae6c83e8cf4181ad96c54[ALL] 03926b355acd26bfbb30453eebfce2c066302a8434adc0e0434771e21918747a0d"}, "vout": 0, "txid": "440da5da649931e67cedd659f6a165d908eb03038918e6bc3e511ead3078c5c4"}, {"sequence": 4294967295, "scriptSig": {"hex": "483045022100fdf07bc6cb455ac2b4a8d056127489698386f83662d31131856413d4b2a7fda90220776a88ae753103506cb1b92329faa8daef15d65383dc2461d1379550a3e9aba00121037a33066b38b8f3658b67de05ded84c16c23a64d2889cebaf05b09558b0e5d50b", "asm": "3045022100fdf07bc6cb455ac2b4a8d056127489698386f83662d31131856413d4b2a7fda90220776a88ae753103506cb1b92329faa8daef15d65383dc2461d1379550a3e9aba0[ALL] 037a33066b38b8f3658b67de05ded84c16c23a64d2889cebaf05b09558b0e5d50b"}, "vout": 0, "txid": "9402e7e0f0e61b3a6f21646fdc3cbbc6a5cab1f2f9a9adf81a537f60510ee85a"}], "txid": "1539eed11297a11944b1b4c844b8587f8ddcb8fdce1704dde43bbdca3e8270bd", "blocktime": 1537870268, "version": 1, "confirmations": 11518, "time": 1537870268, "locktime": 0, "vsize": 667, "size": 667}