{"hash": "15420e6c4ba44b3c726429f982eb38fa34216dcc24e1fdb32b4307c6099e1a1b", "blockhash": "0000000000000000001cda96e906b7601b7a6fb1a3b62bca570a9e5d8f4b3de1", "vout": [{"scriptPubKey": {"reqSigs": 1, "hex": "76a914ea98142468c44aa16d33f5e6d5da2969d35e745788ac", "addresses": ["1NPRJW1yLLvTMWhaAHhPb4hptLREeXe4UN"], "asm": "OP_DUP OP_HASH160 ea98142468c44aa16d33f5e6d5da2969d35e7457 OP_EQUALVERIFY OP_CHECKSIG", "type": "pubkeyhash"}, "value": 0.0016, "n": 0}, {"scriptPubKey": {"reqSigs": 1, "hex": "76a914bac38a852745df17fd8ded6272ee060a948985cb88ac", "addresses": ["1J2Ww7c54t4w6x9k38XpHCUDRBFwoC58xx"], "asm": "OP_DUP OP_HASH160 bac38a852745df17fd8ded6272ee060a948985cb OP_EQUALVERIFY OP_CHECKSIG", "type": "pubkeyhash"}, "value": 0.07578325, "n": 1}], "hex": "0100000001cd56f2cf5cfd7131932f6e193b932323077073433937bcd808eff6947a112f4b010000006a4730440220425da3faa237203adbbf3c140adede1c90aad6db9b9cedeb95e6b28521cd26eb0220503f966f03fc921a7f16df8873755a155fc85208c3857899c4c23e7b6b47a06d012102487a485c7957413eb97d9df9401477b33dfdcde046a6c7315e4e8eca5dfdc026ffffffff0200710200000000001976a914ea98142468c44aa16d33f5e6d5da2969d35e745788acd5a27300000000001976a914bac38a852745df17fd8ded6272ee060a948985cb88ac00000000", "vin": [{"sequence": 4294967295, "scriptSig": {"hex": "4730440220425da3faa237203adbbf3c140adede1c90aad6db9b9cedeb95e6b28521cd26eb0220503f966f03fc921a7f16df8873755a155fc85208c3857899c4c23e7b6b47a06d012102487a485c7957413eb97d9df9401477b33dfdcde046a6c7315e4e8eca5dfdc026", "asm": "30440220425da3faa237203adbbf3c140adede1c90aad6db9b9cedeb95e6b28521cd26eb0220503f966f03fc921a7f16df8873755a155fc85208c3857899c4c23e7b6b47a06d[ALL] 02487a485c7957413eb97d9df9401477b33dfdcde046a6c7315e4e8eca5dfdc026"}, "vout": 1, "txid": "4b2f117a94f6ef08d8bc3739437370072323933b196e2f933171fd5ccff256cd"}], "txid": "15420e6c4ba44b3c726429f982eb38fa34216dcc24e1fdb32b4307c6099e1a1b", "blocktime": 1537873282, "version": 1, "confirmations": 11485, "time": 1537873282, "locktime": 0, "vsize": 225, "size": 225}