{"hash": "8b23f0ca7026ff2c49ca85d7763feca451440d6c93669aac8734bf9b042ed837", "blockhash": "0000000000000000000e13cef7c366c0283d82e591d1acd082e914b08063cdf1", "vout": [{"scriptPubKey": {"reqSigs": 1, "hex": "0014ad6d3613b5275c5c4753ffd30927d889f989a70f", "addresses": ["bc1q44knvya4yaw9c36nllfsjf7c38ucnfc02phx6x"], "asm": "0 ad6d3613b5275c5c4753ffd30927d889f989a70f", "type": "witness_v0_keyhash"}, "value": 0.01033953, "n": 0}, {"scriptPubKey": {"reqSigs": 1, "hex": "00144fee9834c235075a453e3eb61f2670481b684319", "addresses": ["bc1qflhfsdxzx5r453f786mp7fnsfqdkssce29dn79"], "asm": "0 4fee9834c235075a453e3eb61f2670481b684319", "type": "witness_v0_keyhash"}, "value": 1.38867144, "n": 1}], "hex": "02000000000101125710793b889b6d472267256cb58d6317cad423eed04464c2a3f121ea2cf70b01000000171600141cdc5dc4065b3543071863a0d138ca374e870930fdffffff02e1c60f0000000000160014ad6d3613b5275c5c4753ffd30927d889f989a70fc8f14608000000001600144fee9834c235075a453e3eb61f2670481b6843190248304502210085c618110a885ef9cc43889fe2297c7d8de75e9843d4480d7dcb4bf9cc172d05022043f14555b05f0ea65ace7cca906e614e6a5973b2a87151566a8f0af91108552e0121029cb421d2448b4c02d887aa9b5295f7ae48451be8236a4a7e417baa3f017f6b4010490800", "vin": [{"txinwitness": ["304502210085c618110a885ef9cc43889fe2297c7d8de75e9843d4480d7dcb4bf9cc172d05022043f14555b05f0ea65ace7cca906e614e6a5973b2a87151566a8f0af91108552e01", "029cb421d2448b4c02d887aa9b5295f7ae48451be8236a4a7e417baa3f017f6b40"], "sequence": 4294967293, "scriptSig": {"hex": "1600141cdc5dc4065b3543071863a0d138ca374e870930", "asm": "00141cdc5dc4065b3543071863a0d138ca374e870930"}, "vout": 1, "txid": "0bf72cea21f1a3c26444d0ee23d4ca17638db56c256722476d9b883b79105712"}], "txid": "154ab603b542642899b12e425921b8030dc6d2a5947d312d3dbe5021d5261db6", "blocktime": 1537871767, "version": 2, "confirmations": 11493, "time": 1537871767, "locktime": 542992, "vsize": 164, "size": 246}