{"hash": "154dd13b855a9d4457922d368b47f536be311f4bb2fb7f491a0799122fcf5374", "blockhash": "000000000000000000022b45ed06c6f4ccd3cf7fb5ba4856ebd2e58215665228", "vout": [{"scriptPubKey": {"type": "nulldata", "hex": "6a146f6d6e69000000000000001f0000015d3ef79800", "asm": "OP_RETURN 6f6d6e69000000000000001f0000015d3ef79800"}, "value": 0.0, "n": 0}, {"scriptPubKey": {"reqSigs": 1, "hex": "76a914b8cf56c6b9fd88d5ca83e35d5ff55cc8873582e088ac", "addresses": ["1HrBiTjjHvergwnrpPUAgLd4ptc8ZK9S9B"], "asm": "OP_DUP OP_HASH160 b8cf56c6b9fd88d5ca83e35d5ff55cc8873582e0 OP_EQUALVERIFY OP_CHECKSIG", "type": "pubkeyhash"}, "value": 0.00476126, "n": 1}, {"scriptPubKey": {"reqSigs": 1, "hex": "76a914a25dec4d0011064ef106a983c39c7a540699f22088ac", "addresses": ["1FoWyxwPXuj4C6abqwhjDWdz6D4PZgYRjA"], "asm": "OP_DUP OP_HASH160 a25dec4d0011064ef106a983c39c7a540699f220 OP_EQUALVERIFY OP_CHECKSIG", "type": "pubkeyhash"}, "value": 5.46e-06, "n": 2}], "hex": "010000000e19f001e30a5776ef057417d67558b30623a20958daff53ed9a70266e0fc0720b020000006a47304402205a2af4e5db7b3f3d751aa6780916be78f6b040a05f4a74ad1f2be72305f48160022060feaac3d3f68f90f055310c0526ac5c08632e9093250b3bd2517b77f7c158d301210298045ab235e559546ee33f0949785eb32dd19b5fe884113ff527b87a96209297feffffff24514091726e6b618b532e17820cb22a6fd7575fc29743f0a2495acbf82723ea0200000069463043021f05342945925ad844dbd2c7024542fb87f70bb84ceb4006ef435a1c17b9efc502203a3412a51347d70071f56de49e9cc03c736d6cd95318d7c51d9db2975379eeb501210298045ab235e559546ee33f0949785eb32dd19b5fe884113ff527b87a96209297feffffff59cb1e012f02a83f54e344f627b83e566a792cbdbfa7f8b0d21fcc3e0ff128b2020000006b4830450221009fcaf480038962682a7b5a8394e92d977c91033849d1cbaf8327d8eb5a8216ed0220075db9eb35ee29906e302fc876bc00fc603a306b42f4e74cb4927b4480d6213c01210298045ab235e559546ee33f0949785eb32dd19b5fe884113ff527b87a96209297feffffff6a69c228c8dea37209a475e3061b97e2ecc2bb66264990262367f2ba4c91fbec020000006b483045022100f5cdbe834e965950d4912fc5e50265bef441f8c32e98e15e0b3d0edc0a9ccf3802204c8beec127cb0e08f6a85132cf71d51920fd55f0b153c97181141d1e903ede3e01210298045ab235e559546ee33f0949785eb32dd19b5fe884113ff527b87a96209297feffffff996104c2e535e18c49ce0eb1091d5827a4a9378792732cd0ebd164e36f6752f5020000006a473044022040f2d4dbc1fd98dabd0082b469edbd443a23d37c1f7c0f602f9232b4ffdf52be022047662821f6ee50c6744487547dbf3277e20276ab099ef3ff7de594bc0934394e01210298045ab235e559546ee33f0949785eb32dd19b5fe884113ff527b87a96209297feffffffa342b5724da1ac170b0b059f9e0f6b1f7a1516b3713c3672dd31e210c3e81fae020000006a47304402206802a419b0526d4b929510cb534b78157dcb9e701936e492c05a2081f69f05ec022042da0a377474131c1d2748fdf74cf0e038ca762097cfbd649c2027bd09d1bb6b01210298045ab235e559546ee33f0949785eb32dd19b5fe884113ff527b87a96209297feffffffae1f81af8e79dafca8d06b564df2bb75b9bf43120d99f29e45a7192b6463b4e9020000006b483045022100dad943da3da8609a4c80c88509504aa29a3ee852990447e7068611776db641a202200aeb77b0dd5a4cdc52dc7a73090350d550ec3d446b6e5424f1546df72d00f45601210298045ab235e559546ee33f0949785eb32dd19b5fe884113ff527b87a96209297feffffffaf4141f4d71debafffb885f8b34799d8c03111a05dcb2409f6a08112b1bc9f76010000006b4830450221008264782d78001e4fcbc5c829af7c9226241194d673ac95350f02940fa7bf9e2d02206a24d7b31e4ec268b1d15dc6600179225ee3734538044a0e987b335b1ad045a101210298045ab235e559546ee33f0949785eb32dd19b5fe884113ff527b87a96209297feffffffb051c0f2b8b82847a0396be42bf0c9a195abe3335f13c319724e874dda139e4e020000006a473044022072d4290a5fce90f364dbb5e5ff48b21dc575c7a2fe7e7fc73a20871129d219b002200e3f8355e59c82630eb50bfb10f64aaa32319e58378fc1c5609aca4384f9409401210298045ab235e559546ee33f0949785eb32dd19b5fe884113ff527b87a96209297feffffffb09425c670a06d4d365ad20a81cfa0557fe8a713ea7c187f9fcdd082a4504926020000006a47304402206d633ba26284c1f5a91961a993613ee718741aa859a762999d11afc2693c609c02205bdadf865283e0cedd3843fd636296602b9782128b6dd44c0989e0c527da9c7d01210298045ab235e559546ee33f0949785eb32dd19b5fe884113ff527b87a96209297feffffffd23830f7f7789bf36f1ee6d53a88de490c2fe3d1d0d9310886494b00a972cccd020000006b483045022100d41478bc3ab7823906284472a8218036d7e660a0e89143203b3c24e7fb43176e022045f84a7a2d993c0c7bef7c7f51295d86700c489063477a591eb205c9ce070c9d01210298045ab235e559546ee33f0949785eb32dd19b5fe884113ff527b87a96209297feffffffb618210af442780829ad8015ce4cec887253e0df2bbdd6799abc021f6166cd5a020000006b483045022100c59bb8a2e0cef0018915ece65a3631e6732da3abffd57c93960cb9dcddc965ca02200b59f26cbcc76dd3e7d4c9947688fcb8b176bf452860d4cf6c11af56686ba6f001210298045ab235e559546ee33f0949785eb32dd19b5fe884113ff527b87a96209297feffffff7a7274c2708471141bdcc47d53af22b5b78d005ecd73bb80893d092a5f625703010000006b483045022100e4143cb913073742875754a71dff48e9371fca04eb47aeca6190a019079402e9022057e989680ffb565230ac01385208f3d03297ca68afc6a8bf25c1c9a02595f0a901210298045ab235e559546ee33f0949785eb32dd19b5fe884113ff527b87a96209297feffffffe8fa78df77f857ff1d57e0c67420429cb32ebc8c8b3156e605a1ff844f79e1e5000000006a47304402202ba958a9020d0163b35d7395d05ab90368eaac5f755c98d5d383d65c8a05b4f302207e4b886ac7513dddbac83d2f6f47e653c098b30ea45f6a5fa4fbf88c98aabcd001210298045ab235e559546ee33f0949785eb32dd19b5fe884113ff527b87a96209297feffffff030000000000000000166a146f6d6e69000000000000001f0000015d3ef79800de430700000000001976a914b8cf56c6b9fd88d5ca83e35d5ff55cc8873582e088ac22020000000000001976a914a25dec4d0011064ef106a983c39c7a540699f22088ac0b490800", "vin": [{"sequence": 4294967294, "scriptSig": {"hex": "47304402205a2af4e5db7b3f3d751aa6780916be78f6b040a05f4a74ad1f2be72305f48160022060feaac3d3f68f90f055310c0526ac5c08632e9093250b3bd2517b77f7c158d301210298045ab235e559546ee33f0949785eb32dd19b5fe884113ff527b87a96209297", "asm": "304402205a2af4e5db7b3f3d751aa6780916be78f6b040a05f4a74ad1f2be72305f48160022060feaac3d3f68f90f055310c0526ac5c08632e9093250b3bd2517b77f7c158d3[ALL] 0298045ab235e559546ee33f0949785eb32dd19b5fe884113ff527b87a96209297"}, "vout": 2, "txid": "0b72c00f6e26709aed53ffda5809a22306b35875d6177405ef76570ae301f019"}, {"sequence": 4294967294, "scriptSig": {"hex": "463043021f05342945925ad844dbd2c7024542fb87f70bb84ceb4006ef435a1c17b9efc502203a3412a51347d70071f56de49e9cc03c736d6cd95318d7c51d9db2975379eeb501210298045ab235e559546ee33f0949785eb32dd19b5fe884113ff527b87a96209297", "asm": "3043021f05342945925ad844dbd2c7024542fb87f70bb84ceb4006ef435a1c17b9efc502203a3412a51347d70071f56de49e9cc03c736d6cd95318d7c51d9db2975379eeb5[ALL] 0298045ab235e559546ee33f0949785eb32dd19b5fe884113ff527b87a96209297"}, "vout": 2, "txid": "ea2327f8cb5a49a2f04397c25f57d76f2ab20c82172e538b616b6e7291405124"}, {"sequence": 4294967294, "scriptSig": {"hex": "4830450221009fcaf480038962682a7b5a8394e92d977c91033849d1cbaf8327d8eb5a8216ed0220075db9eb35ee29906e302fc876bc00fc603a306b42f4e74cb4927b4480d6213c01210298045ab235e559546ee33f0949785eb32dd19b5fe884113ff527b87a96209297", "asm": "30450221009fcaf480038962682a7b5a8394e92d977c91033849d1cbaf8327d8eb5a8216ed0220075db9eb35ee29906e302fc876bc00fc603a306b42f4e74cb4927b4480d6213c[ALL] 0298045ab235e559546ee33f0949785eb32dd19b5fe884113ff527b87a96209297"}, "vout": 2, "txid": "b228f10f3ecc1fd2b0f8a7bfbd2c796a563eb827f644e3543fa8022f011ecb59"}, {"sequence": 4294967294, "scriptSig": {"hex": "483045022100f5cdbe834e965950d4912fc5e50265bef441f8c32e98e15e0b3d0edc0a9ccf3802204c8beec127cb0e08f6a85132cf71d51920fd55f0b153c97181141d1e903ede3e01210298045ab235e559546ee33f0949785eb32dd19b5fe884113ff527b87a96209297", "asm": "3045022100f5cdbe834e965950d4912fc5e50265bef441f8c32e98e15e0b3d0edc0a9ccf3802204c8beec127cb0e08f6a85132cf71d51920fd55f0b153c97181141d1e903ede3e[ALL] 0298045ab235e559546ee33f0949785eb32dd19b5fe884113ff527b87a96209297"}, "vout": 2, "txid": "ecfb914cbaf267232690492666bbc2ece2971b06e375a40972a3dec828c2696a"}, {"sequence": 4294967294, "scriptSig": {"hex": "473044022040f2d4dbc1fd98dabd0082b469edbd443a23d37c1f7c0f602f9232b4ffdf52be022047662821f6ee50c6744487547dbf3277e20276ab099ef3ff7de594bc0934394e01210298045ab235e559546ee33f0949785eb32dd19b5fe884113ff527b87a96209297", "asm": "3044022040f2d4dbc1fd98dabd0082b469edbd443a23d37c1f7c0f602f9232b4ffdf52be022047662821f6ee50c6744487547dbf3277e20276ab099ef3ff7de594bc0934394e[ALL] 0298045ab235e559546ee33f0949785eb32dd19b5fe884113ff527b87a96209297"}, "vout": 2, "txid": "f552676fe364d1ebd02c73928737a9a427581d09b10ece498ce135e5c2046199"}, {"sequence": 4294967294, "scriptSig": {"hex": "47304402206802a419b0526d4b929510cb534b78157dcb9e701936e492c05a2081f69f05ec022042da0a377474131c1d2748fdf74cf0e038ca762097cfbd649c2027bd09d1bb6b01210298045ab235e559546ee33f0949785eb32dd19b5fe884113ff527b87a96209297", "asm": "304402206802a419b0526d4b929510cb534b78157dcb9e701936e492c05a2081f69f05ec022042da0a377474131c1d2748fdf74cf0e038ca762097cfbd649c2027bd09d1bb6b[ALL] 0298045ab235e559546ee33f0949785eb32dd19b5fe884113ff527b87a96209297"}, "vout": 2, "txid": "ae1fe8c310e231dd72363c71b316157a1f6b0f9e9f050b0b17aca14d72b542a3"}, {"sequence": 4294967294, "scriptSig": {"hex": "483045022100dad943da3da8609a4c80c88509504aa29a3ee852990447e7068611776db641a202200aeb77b0dd5a4cdc52dc7a73090350d550ec3d446b6e5424f1546df72d00f45601210298045ab235e559546ee33f0949785eb32dd19b5fe884113ff527b87a96209297", "asm": "3045022100dad943da3da8609a4c80c88509504aa29a3ee852990447e7068611776db641a202200aeb77b0dd5a4cdc52dc7a73090350d550ec3d446b6e5424f1546df72d00f456[ALL] 0298045ab235e559546ee33f0949785eb32dd19b5fe884113ff527b87a96209297"}, "vout": 2, "txid": "e9b463642b19a7459ef2990d1243bfb975bbf24d566bd0a8fcda798eaf811fae"}, {"sequence": 4294967294, "scriptSig": {"hex": "4830450221008264782d78001e4fcbc5c829af7c9226241194d673ac95350f02940fa7bf9e2d02206a24d7b31e4ec268b1d15dc6600179225ee3734538044a0e987b335b1ad045a101210298045ab235e559546ee33f0949785eb32dd19b5fe884113ff527b87a96209297", "asm": "30450221008264782d78001e4fcbc5c829af7c9226241194d673ac95350f02940fa7bf9e2d02206a24d7b31e4ec268b1d15dc6600179225ee3734538044a0e987b335b1ad045a1[ALL] 0298045ab235e559546ee33f0949785eb32dd19b5fe884113ff527b87a96209297"}, "vout": 1, "txid": "769fbcb11281a0f60924cb5da01131c0d89947b3f885b8ffafeb1dd7f44141af"}, {"sequence": 4294967294, "scriptSig": {"hex": "473044022072d4290a5fce90f364dbb5e5ff48b21dc575c7a2fe7e7fc73a20871129d219b002200e3f8355e59c82630eb50bfb10f64aaa32319e58378fc1c5609aca4384f9409401210298045ab235e559546ee33f0949785eb32dd19b5fe884113ff527b87a96209297", "asm": "3044022072d4290a5fce90f364dbb5e5ff48b21dc575c7a2fe7e7fc73a20871129d219b002200e3f8355e59c82630eb50bfb10f64aaa32319e58378fc1c5609aca4384f94094[ALL] 0298045ab235e559546ee33f0949785eb32dd19b5fe884113ff527b87a96209297"}, "vout": 2, "txid": "4e9e13da4d874e7219c3135f33e3ab95a1c9f02be46b39a04728b8b8f2c051b0"}, {"sequence": 4294967294, "scriptSig": {"hex": "47304402206d633ba26284c1f5a91961a993613ee718741aa859a762999d11afc2693c609c02205bdadf865283e0cedd3843fd636296602b9782128b6dd44c0989e0c527da9c7d01210298045ab235e559546ee33f0949785eb32dd19b5fe884113ff527b87a96209297", "asm": "304402206d633ba26284c1f5a91961a993613ee718741aa859a762999d11afc2693c609c02205bdadf865283e0cedd3843fd636296602b9782128b6dd44c0989e0c527da9c7d[ALL] 0298045ab235e559546ee33f0949785eb32dd19b5fe884113ff527b87a96209297"}, "vout": 2, "txid": "264950a482d0cd9f7f187cea13a7e87f55a0cf810ad25a364d6da070c62594b0"}, {"sequence": 4294967294, "scriptSig": {"hex": "483045022100d41478bc3ab7823906284472a8218036d7e660a0e89143203b3c24e7fb43176e022045f84a7a2d993c0c7bef7c7f51295d86700c489063477a591eb205c9ce070c9d01210298045ab235e559546ee33f0949785eb32dd19b5fe884113ff527b87a96209297", "asm": "3045022100d41478bc3ab7823906284472a8218036d7e660a0e89143203b3c24e7fb43176e022045f84a7a2d993c0c7bef7c7f51295d86700c489063477a591eb205c9ce070c9d[ALL] 0298045ab235e559546ee33f0949785eb32dd19b5fe884113ff527b87a96209297"}, "vout": 2, "txid": "cdcc72a9004b49860831d9d0d1e32f0c49de883ad5e61e6ff39b78f7f73038d2"}, {"sequence": 4294967294, "scriptSig": {"hex": "483045022100c59bb8a2e0cef0018915ece65a3631e6732da3abffd57c93960cb9dcddc965ca02200b59f26cbcc76dd3e7d4c9947688fcb8b176bf452860d4cf6c11af56686ba6f001210298045ab235e559546ee33f0949785eb32dd19b5fe884113ff527b87a96209297", "asm": "3045022100c59bb8a2e0cef0018915ece65a3631e6732da3abffd57c93960cb9dcddc965ca02200b59f26cbcc76dd3e7d4c9947688fcb8b176bf452860d4cf6c11af56686ba6f0[ALL] 0298045ab235e559546ee33f0949785eb32dd19b5fe884113ff527b87a96209297"}, "vout": 2, "txid": "5acd66611f02bc9a79d6bd2bdfe0537288ec4cce1580ad29087842f40a2118b6"}, {"sequence": 4294967294, "scriptSig": {"hex": "483045022100e4143cb913073742875754a71dff48e9371fca04eb47aeca6190a019079402e9022057e989680ffb565230ac01385208f3d03297ca68afc6a8bf25c1c9a02595f0a901210298045ab235e559546ee33f0949785eb32dd19b5fe884113ff527b87a96209297", "asm": "3045022100e4143cb913073742875754a71dff48e9371fca04eb47aeca6190a019079402e9022057e989680ffb565230ac01385208f3d03297ca68afc6a8bf25c1c9a02595f0a9[ALL] 0298045ab235e559546ee33f0949785eb32dd19b5fe884113ff527b87a96209297"}, "vout": 1, "txid": "0357625f2a093d8980bb73cd5e008db7b522af537dc4dc1b14718470c274727a"}, {"sequence": 4294967294, "scriptSig": {"hex": "47304402202ba958a9020d0163b35d7395d05ab90368eaac5f755c98d5d383d65c8a05b4f302207e4b886ac7513dddbac83d2f6f47e653c098b30ea45f6a5fa4fbf88c98aabcd001210298045ab235e559546ee33f0949785eb32dd19b5fe884113ff527b87a96209297", "asm": "304402202ba958a9020d0163b35d7395d05ab90368eaac5f755c98d5d383d65c8a05b4f302207e4b886ac7513dddbac83d2f6f47e653c098b30ea45f6a5fa4fbf88c98aabcd0[ALL] 0298045ab235e559546ee33f0949785eb32dd19b5fe884113ff527b87a96209297"}, "vout": 0, "txid": "e5e1794f84ffa105e656318b8cbc2eb39c422074c6e0571dff57f877df78fae8"}], "txid": "154dd13b855a9d4457922d368b47f536be311f4bb2fb7f491a0799122fcf5374", "blocktime": 1537869901, "version": 1, "confirmations": 11524, "time": 1537869901, "locktime": 542987, "vsize": 2173, "size": 2173}