{"hash": "15508e69ae878f82179e22bb6f8f97b37136f4cd8ff1f255c28801574a5b4b03", "blockhash": "0000000000000000001f76057863aec43deb6fa401d9628bb513d65a8098bfab", "vout": [{"scriptPubKey": {"reqSigs": 1, "hex": "76a91461df7e9220f95e74704ea3c4f0387287fa04e17888ac", "addresses": ["19vWHGmfMJykZAjXZqK7MbKonxfZ6FmRdZ"], "asm": "OP_DUP OP_HASH160 61df7e9220f95e74704ea3c4f0387287fa04e178 OP_EQUALVERIFY OP_CHECKSIG", "type": "pubkeyhash"}, "value": 0.001501, "n": 0}, {"scriptPubKey": {"reqSigs": 1, "hex": "76a914662775c600a1e847cce8f2e850b5c940ef24596488ac", "addresses": ["1AK9CJMa545o8PSDVbnSQegdQFM6QEAgVJ"], "asm": "OP_DUP OP_HASH160 662775c600a1e847cce8f2e850b5c940ef245964 OP_EQUALVERIFY OP_CHECKSIG", "type": "pubkeyhash"}, "value": 0.0764743, "n": 1}], "hex": "0100000001fcaa8802c5d7e3d648514fbf13b6f722239caad385ef51ccb0ea18b7ae38db0c010000006a47304402206588c4657897658b33ccded587ecaefb8f2313fac738d4f2099149cefde5325302202b3cd7fd8074423662ce364fb4832f6e73c115722a7a817c421fb0fe5afa154d01210321d56924d2d3a1ec45d22975ba2c78d8ad0dda8fc2c29905d31800c2b5b90da4ffffffff02544a0200000000001976a91461df7e9220f95e74704ea3c4f0387287fa04e17888acc6b07400000000001976a914662775c600a1e847cce8f2e850b5c940ef24596488ac00000000", "vin": [{"sequence": 4294967295, "scriptSig": {"hex": "47304402206588c4657897658b33ccded587ecaefb8f2313fac738d4f2099149cefde5325302202b3cd7fd8074423662ce364fb4832f6e73c115722a7a817c421fb0fe5afa154d01210321d56924d2d3a1ec45d22975ba2c78d8ad0dda8fc2c29905d31800c2b5b90da4", "asm": "304402206588c4657897658b33ccded587ecaefb8f2313fac738d4f2099149cefde5325302202b3cd7fd8074423662ce364fb4832f6e73c115722a7a817c421fb0fe5afa154d[ALL] 0321d56924d2d3a1ec45d22975ba2c78d8ad0dda8fc2c29905d31800c2b5b90da4"}, "vout": 1, "txid": "0cdb38aeb718eab0cc51ef85d3aa9c2322f7b613bf4f5148d6e3d7c50288aafc"}], "txid": "15508e69ae878f82179e22bb6f8f97b37136f4cd8ff1f255c28801574a5b4b03", "blocktime": 1537873891, "version": 1, "confirmations": 11478, "time": 1537873891, "locktime": 0, "vsize": 225, "size": 225}