{"hash": "e11ab5eacbd04bab98784cef7c5b490c00b92ae935f8d88316851b9324def5a7", "blockhash": "0000000000000000000dcc0f55137456b1a82d3642486a52398922ac4d620174", "vout": [{"scriptPubKey": {"reqSigs": 1, "hex": "76a914d61c05fd0d22f351b5144fea602b32a929019e5d88ac", "addresses": ["1LX7B9mVNWBK5xF2CXFKXw83YVZzxbbmRg"], "asm": "OP_DUP OP_HASH160 d61c05fd0d22f351b5144fea602b32a929019e5d OP_EQUALVERIFY OP_CHECKSIG", "type": "pubkeyhash"}, "value": 0.007, "n": 0}, {"scriptPubKey": {"reqSigs": 1, "hex": "a914627aa52932456d89054bd84f86246af3b71b93a887", "addresses": ["3Afj4stdiLG9EktGrMbm252ySonnhYaz8v"], "asm": "OP_HASH160 627aa52932456d89054bd84f86246af3b71b93a8 OP_EQUAL", "type": "scripthash"}, "value": 0.59870424, "n": 1}], "hex": "01000000000101fe9806bf9b52431a5e85744c80aeec8feb25376b373e7c5dae6e491bf8ff2dd301000000232200205fdd641234b13964b223bd85ad2a4a667ca2099df3d42a1d3b45706a8d81abf0ffffffff0260ae0a00000000001976a914d61c05fd0d22f351b5144fea602b32a929019e5d88acd88c91030000000017a914627aa52932456d89054bd84f86246af3b71b93a8870400483045022100b62c13adfd12f5474f3f83d2c13634ae940ce56eea774dee54637c39934e3f7502205988c3865c40d54bed2af11ecb1557125900bcce185c973ae3775e5bc35545ee01473044022023d0c8eae02eeae712baea1ab2046a7cb37ad10921cd0616fd4323e1b777f44c02206855e72444f43ad22342d92b39660751bf737cd1fffa0847fa5c61bc0d19757f0147522103dcde3832fa56def7b4e783faad1b8af85c3cdd74a5ff4f3c7c216b1075c18da12103c70ae8ded79be1afda73b9ce5ea14a3878908ee160d66a9a717e792bb6db276952ae00000000", "vin": [{"txinwitness": ["", "3045022100b62c13adfd12f5474f3f83d2c13634ae940ce56eea774dee54637c39934e3f7502205988c3865c40d54bed2af11ecb1557125900bcce185c973ae3775e5bc35545ee01", "3044022023d0c8eae02eeae712baea1ab2046a7cb37ad10921cd0616fd4323e1b777f44c02206855e72444f43ad22342d92b39660751bf737cd1fffa0847fa5c61bc0d19757f01", "522103dcde3832fa56def7b4e783faad1b8af85c3cdd74a5ff4f3c7c216b1075c18da12103c70ae8ded79be1afda73b9ce5ea14a3878908ee160d66a9a717e792bb6db276952ae"], "sequence": 4294967295, "scriptSig": {"hex": "2200205fdd641234b13964b223bd85ad2a4a667ca2099df3d42a1d3b45706a8d81abf0", "asm": "00205fdd641234b13964b223bd85ad2a4a667ca2099df3d42a1d3b45706a8d81abf0"}, "vout": 1, "txid": "d32dfff81b496eae5d7c3e376b3725eb8fecae804c74855e1a43529bbf0698fe"}], "txid": "1551786c6d163372c675cf2dc47e59e4b48a6bdaed991f44a17520cf71ab448f", "blocktime": 1537870268, "version": 1, "confirmations": 11518, "time": 1537870268, "locktime": 0, "vsize": 208, "size": 373}