{"hash": "155a12b3bea6dc35f4c3bc77e743c5f2bb8a190c80896ef9c61ee15b903923cd", "blockhash": "000000000000000000022b45ed06c6f4ccd3cf7fb5ba4856ebd2e58215665228", "vout": [{"scriptPubKey": {"reqSigs": 1, "hex": "76a914c4904bc098d21323ba944211b3ac6d231c6ac31688ac", "addresses": ["1JvLJTLsg7KfTUJKsQeQqGne9168b3qq5X"], "asm": "OP_DUP OP_HASH160 c4904bc098d21323ba944211b3ac6d231c6ac316 OP_EQUALVERIFY OP_CHECKSIG", "type": "pubkeyhash"}, "value": 0.0043322, "n": 0}, {"scriptPubKey": {"reqSigs": 1, "hex": "76a91432ef949da815fe8b5fb1a4d1e17704995eda92ec88ac", "addresses": ["15eKnwSX8HZXwfHowMQY9J9AEWgsmBMekt"], "asm": "OP_DUP OP_HASH160 32ef949da815fe8b5fb1a4d1e17704995eda92ec OP_EQUALVERIFY OP_CHECKSIG", "type": "pubkeyhash"}, "value": 0.01759185, "n": 1}], "hex": "01000000034fa59eeee113f84d8a0cc5b09c930d343f87730ad755ef2a15ee78dd51c36206000000006a47304402202d58fca74bbf9db870d36b12ce6907d437d5f131058f27808e01ba90e465786402206c900707790299cbf16375f268712fc90377833c6e8b770ef6678569621a47480121021eca53cb727d9a3842849b91d97dedc4a41794900cff7ecc2831f3e69232a763ffffffffb5f394b3c796ffcb9e37c64de6a808651beb458a8fb1d92daf1e9211e4b9c727000000006b483045022100c495e38e40005bfc93f397bd1728634e03be5a99f1a6cb553948258e93240a5d02200b705734ab31e32a2baa3da966cb8ee1b6c08b6c55b05bd6f032ab51eb11e78c012103c1f586ccacbf2bc98f3e85d535743df1c113968e18761b431ebcec2c3e67ea56ffffffff800dcb8c7e17158af318bed50779fcfc356933adde0a69df87fb6cd988e8f9cd010000006a473044022062c22eb8308715170c73210040aebbb7b88b5ecdcf71d652769d56784b904e5f02206a9ef95d23d8b950405900613bca4f3dedcb70f97b336fb977f6bca000010f01012103fa5db7f5004e87b08bde08b64ee414319a528414593358540ff39cb344368c81ffffffff02449c0600000000001976a914c4904bc098d21323ba944211b3ac6d231c6ac31688acd1d71a00000000001976a91432ef949da815fe8b5fb1a4d1e17704995eda92ec88ac00000000", "vin": [{"sequence": 4294967295, "scriptSig": {"hex": "47304402202d58fca74bbf9db870d36b12ce6907d437d5f131058f27808e01ba90e465786402206c900707790299cbf16375f268712fc90377833c6e8b770ef6678569621a47480121021eca53cb727d9a3842849b91d97dedc4a41794900cff7ecc2831f3e69232a763", "asm": "304402202d58fca74bbf9db870d36b12ce6907d437d5f131058f27808e01ba90e465786402206c900707790299cbf16375f268712fc90377833c6e8b770ef6678569621a4748[ALL] 021eca53cb727d9a3842849b91d97dedc4a41794900cff7ecc2831f3e69232a763"}, "vout": 0, "txid": "0662c351dd78ee152aef55d70a73873f340d939cb0c50c8a4df813e1ee9ea54f"}, {"sequence": 4294967295, "scriptSig": {"hex": "483045022100c495e38e40005bfc93f397bd1728634e03be5a99f1a6cb553948258e93240a5d02200b705734ab31e32a2baa3da966cb8ee1b6c08b6c55b05bd6f032ab51eb11e78c012103c1f586ccacbf2bc98f3e85d535743df1c113968e18761b431ebcec2c3e67ea56", "asm": "3045022100c495e38e40005bfc93f397bd1728634e03be5a99f1a6cb553948258e93240a5d02200b705734ab31e32a2baa3da966cb8ee1b6c08b6c55b05bd6f032ab51eb11e78c[ALL] 03c1f586ccacbf2bc98f3e85d535743df1c113968e18761b431ebcec2c3e67ea56"}, "vout": 0, "txid": "27c7b9e411921eaf2dd9b18f8a45eb1b6508a8e64dc6379ecbff96c7b394f3b5"}, {"sequence": 4294967295, "scriptSig": {"hex": "473044022062c22eb8308715170c73210040aebbb7b88b5ecdcf71d652769d56784b904e5f02206a9ef95d23d8b950405900613bca4f3dedcb70f97b336fb977f6bca000010f01012103fa5db7f5004e87b08bde08b64ee414319a528414593358540ff39cb344368c81", "asm": "3044022062c22eb8308715170c73210040aebbb7b88b5ecdcf71d652769d56784b904e5f02206a9ef95d23d8b950405900613bca4f3dedcb70f97b336fb977f6bca000010f01[ALL] 03fa5db7f5004e87b08bde08b64ee414319a528414593358540ff39cb344368c81"}, "vout": 1, "txid": "cdf9e888d96cfb87df690adead336935fcfc7907d5be18f38a15177e8ccb0d80"}], "txid": "155a12b3bea6dc35f4c3bc77e743c5f2bb8a190c80896ef9c61ee15b903923cd", "blocktime": 1537869901, "version": 1, "confirmations": 11522, "time": 1537869901, "locktime": 0, "vsize": 520, "size": 520}