{"hash": "155df1fbdf32ba4b6d8079ed28cd652a7e97c5145a8c54d2f02ae96dae3a516c", "blockhash": "000000000000000000022b45ed06c6f4ccd3cf7fb5ba4856ebd2e58215665228", "vout": [{"scriptPubKey": {"reqSigs": 1, "hex": "76a914a7ecf330f2884184ae8849725ec6f7b5b160974488ac", "addresses": ["1GJuhcG33QmAJo46vPJZCC3SdjucrbfxXG"], "asm": "OP_DUP OP_HASH160 a7ecf330f2884184ae8849725ec6f7b5b1609744 OP_EQUALVERIFY OP_CHECKSIG", "type": "pubkeyhash"}, "value": 0.005, "n": 0}, {"scriptPubKey": {"reqSigs": 1, "hex": "76a91488d924f51033b74a895863a5fb57fd545529df7d88ac", "addresses": ["1DUb2YYbQA1jjaNYzVXLZ7ZioEhLXtbUru"], "asm": "OP_DUP OP_HASH160 88d924f51033b74a895863a5fb57fd545529df7d OP_EQUALVERIFY OP_CHECKSIG", "type": "pubkeyhash"}, "value": 1.05368507, "n": 1}], "hex": "0100000001fe430f5f0bb3c765f755659b52f54069b737c131266057bd7be4a503f78fa54f010000006b483045022100d0fe8091019f4e2a70b9afe1a92b47149e736d2b1c317a5dc330d5b7af19f46e022074b990e63d60b61098606dce9ed522b99cb28851be3ce89eece4cd518bc1f34e0121030888863fcb4cdf5b7d33b40e613af35df8f39d576e7972238b0d396cd3fcc3f2ffffffff0220a10700000000001976a914a7ecf330f2884184ae8849725ec6f7b5b160974488acbbcb4706000000001976a91488d924f51033b74a895863a5fb57fd545529df7d88ac00000000", "vin": [{"sequence": 4294967295, "scriptSig": {"hex": "483045022100d0fe8091019f4e2a70b9afe1a92b47149e736d2b1c317a5dc330d5b7af19f46e022074b990e63d60b61098606dce9ed522b99cb28851be3ce89eece4cd518bc1f34e0121030888863fcb4cdf5b7d33b40e613af35df8f39d576e7972238b0d396cd3fcc3f2", "asm": "3045022100d0fe8091019f4e2a70b9afe1a92b47149e736d2b1c317a5dc330d5b7af19f46e022074b990e63d60b61098606dce9ed522b99cb28851be3ce89eece4cd518bc1f34e[ALL] 030888863fcb4cdf5b7d33b40e613af35df8f39d576e7972238b0d396cd3fcc3f2"}, "vout": 1, "txid": "4fa58ff703a5e47bbd57602631c137b76940f5529b6555f765c7b30b5f0f43fe"}], "txid": "155df1fbdf32ba4b6d8079ed28cd652a7e97c5145a8c54d2f02ae96dae3a516c", "blocktime": 1537869901, "version": 1, "confirmations": 11522, "time": 1537869901, "locktime": 0, "vsize": 226, "size": 226}