{"hash": "1563055e6e9e2e80c8406ca04c4443c81c57382d112b3935319468a015ea7db1", "blockhash": "00000000000000000004ffacab907a6b429b9a5745fa0b75af4234bf69dd7176", "vout": [{"scriptPubKey": {"reqSigs": 1, "hex": "76a91417c8ad2265a721c8c7fce2477c2d9cd7c4c382c288ac", "addresses": ["13AkweV7ohu1LDu7u9anSBZxHFsQaRbkqZ"], "asm": "OP_DUP OP_HASH160 17c8ad2265a721c8c7fce2477c2d9cd7c4c382c2 OP_EQUALVERIFY OP_CHECKSIG", "type": "pubkeyhash"}, "value": 0.04838549, "n": 0}], "hex": "0100000001af1f745ea7ecfe40a17aa1a7919937f642277f779f8c1c1529856b8248a621b8000000006a473044022029250f9b0f10481f1324ea5f4439336413289017d17e1dbfd26d4bb7a5e7d22002204867c035539c248eb1ca65fcf93b64587cb9e69679b147d93486644f160c876201210206d89386d68f2091c699b24379abab4df5d8777da4648a6116655b993e3f6f2dffffffff0195d44900000000001976a91417c8ad2265a721c8c7fce2477c2d9cd7c4c382c288ac00000000", "vin": [{"sequence": 4294967295, "scriptSig": {"hex": "473044022029250f9b0f10481f1324ea5f4439336413289017d17e1dbfd26d4bb7a5e7d22002204867c035539c248eb1ca65fcf93b64587cb9e69679b147d93486644f160c876201210206d89386d68f2091c699b24379abab4df5d8777da4648a6116655b993e3f6f2d", "asm": "3044022029250f9b0f10481f1324ea5f4439336413289017d17e1dbfd26d4bb7a5e7d22002204867c035539c248eb1ca65fcf93b64587cb9e69679b147d93486644f160c8762[ALL] 0206d89386d68f2091c699b24379abab4df5d8777da4648a6116655b993e3f6f2d"}, "vout": 0, "txid": "b821a648826b8529151c8c9f777f2742f6379991a7a17aa140feeca75e741faf"}], "txid": "1563055e6e9e2e80c8406ca04c4443c81c57382d112b3935319468a015ea7db1", "blocktime": 1537875543, "version": 1, "confirmations": 11464, "time": 1537875543, "locktime": 0, "vsize": 191, "size": 191}