{"hash": "3ebaf8f471d1545a277dbc1ed3e9b40ff69cb5c760dc7400aa50df85d95ca58d", "blockhash": "00000000000000000017f5eb5941039fbcee6240d03bc1f2f8e35350df66a1d8", "vout": [{"scriptPubKey": {"reqSigs": 1, "hex": "a914a7b459cb5ed7392e8782de037b1a33e212973a8c87", "addresses": ["3Gykpa1LbFeNHmfDynLiCszwBxWvsHcwqZ"], "asm": "OP_HASH160 a7b459cb5ed7392e8782de037b1a33e212973a8c OP_EQUAL", "type": "scripthash"}, "value": 0.00243, "n": 0}, {"scriptPubKey": {"reqSigs": 1, "hex": "a9149649ad6d2730bb28020a268d9d80df10a9f74ad487", "addresses": ["3FPfYWwfMfKMGY7fuPHvz2b73RhTNGzsm3"], "asm": "OP_HASH160 9649ad6d2730bb28020a268d9d80df10a9f74ad4 OP_EQUAL", "type": "scripthash"}, "value": 13.80941258, "n": 1}], "hex": "01000000000101c5058beba0e66c5b6de9ea1f04ab528a11cc0ff2685645cf856b08f64906f96f01000000232200207768efcc1e5eb3d28410fac3f45831004c860cc24cddd940a616b34324823fceffffffff0238b503000000000017a914a7b459cb5ed7392e8782de037b1a33e212973a8c87ca7d4f520000000017a9149649ad6d2730bb28020a268d9d80df10a9f74ad4870400483045022100b22782da837aa2972d3b1b126d088ff5dac37cb90c1b92fce2138273fd8fee47022043c33746ce40e521a5a1d1469d4d7133af4bcb5d4dc93dff787f654e72843859014730440220614bdb7addd98301de21c90a2c4440a5a382b0ab56fc5829825cded245f3e3c9022077390e047fef70fe5393709932a8626d940f8847423185785ff23985819066f70147522102529d5d1f6733ab45d9d50e07db42c7f6b967ae321c38b726c2247f149959b8262103d0c936a5988dd8421c63240496b723b0ec42400c38b9350e32c2eb4f47d8796952ae00000000", "vin": [{"txinwitness": ["", "3045022100b22782da837aa2972d3b1b126d088ff5dac37cb90c1b92fce2138273fd8fee47022043c33746ce40e521a5a1d1469d4d7133af4bcb5d4dc93dff787f654e7284385901", "30440220614bdb7addd98301de21c90a2c4440a5a382b0ab56fc5829825cded245f3e3c9022077390e047fef70fe5393709932a8626d940f8847423185785ff23985819066f701", "522102529d5d1f6733ab45d9d50e07db42c7f6b967ae321c38b726c2247f149959b8262103d0c936a5988dd8421c63240496b723b0ec42400c38b9350e32c2eb4f47d8796952ae"], "sequence": 4294967295, "scriptSig": {"hex": "2200207768efcc1e5eb3d28410fac3f45831004c860cc24cddd940a616b34324823fce", "asm": "00207768efcc1e5eb3d28410fac3f45831004c860cc24cddd940a616b34324823fce"}, "vout": 1, "txid": "6ff90649f6086b85cf455668f20fcc118a52ab041feae96d5b6ce6a0eb8b05c5"}], "txid": "15639e81b7c550d85933d239816639775a6245565219f58335aa89c5bdb6170a", "blocktime": 1537874412, "version": 1, "confirmations": 11468, "time": 1537874412, "locktime": 0, "vsize": 206, "size": 371}