{"hash": "1569839ac8a7391c4782ea91a5bf6eef4e625a71a87fbcca28be608b614e9fea", "blockhash": "0000000000000000000baef3f32e3676a92c3b2e5da21b426e4f302fc371ce76", "vout": [{"scriptPubKey": {"reqSigs": 1, "hex": "a914985b0a2552cdb778ac09e0b6de661511e4190abc87", "addresses": ["3FabhFFVXwyrw52qWtkZLZ4RRTWQ8XXxYz"], "asm": "OP_HASH160 985b0a2552cdb778ac09e0b6de661511e4190abc OP_EQUAL", "type": "scripthash"}, "value": 0.005356, "n": 0}, {"scriptPubKey": {"reqSigs": 1, "hex": "a914062b5509e2eca513bf4761665571b9bc56aa676187", "addresses": ["32FdtU52duxkwGGSRJ5NuLqYUi2qJfqot1"], "asm": "OP_HASH160 062b5509e2eca513bf4761665571b9bc56aa6761 OP_EQUAL", "type": "scripthash"}, "value": 0.1052161, "n": 1}], "hex": "01000000013387b39387ed6058dc7ede83c0fb297fce93b6dc98f7a5f0ea577fb5dc05d3f401000000da00473044022037efcffb1571f05eb27d41dfe247441e6164c9835399e3ef0858ee334b0b614e0220213c250f5b71f21836af2c6b841ed657746f7ab693d93697d5509c63b461905101483045022100c6eb1d11f424f6dc34b512e275144ddc62c036f0b3971f755a531c2792c997b602205b62defdbff27d6351923509361b116c36a2c6ba46197828724626bfa0aaa21f0147522103abc8a801f5fbb4fd5f6510ba530d534b0efb584b4298cea1e6e2d45cd1000aef2102a29577404fa42d6d12e0d867249d4ee805afecc9e10879ed668da9958dc7b65052aeffffffff02302c08000000000017a914985b0a2552cdb778ac09e0b6de661511e4190abc870a8ca0000000000017a914062b5509e2eca513bf4761665571b9bc56aa67618700000000", "vin": [{"sequence": 4294967295, "scriptSig": {"hex": "00473044022037efcffb1571f05eb27d41dfe247441e6164c9835399e3ef0858ee334b0b614e0220213c250f5b71f21836af2c6b841ed657746f7ab693d93697d5509c63b461905101483045022100c6eb1d11f424f6dc34b512e275144ddc62c036f0b3971f755a531c2792c997b602205b62defdbff27d6351923509361b116c36a2c6ba46197828724626bfa0aaa21f0147522103abc8a801f5fbb4fd5f6510ba530d534b0efb584b4298cea1e6e2d45cd1000aef2102a29577404fa42d6d12e0d867249d4ee805afecc9e10879ed668da9958dc7b65052ae", "asm": "0 3044022037efcffb1571f05eb27d41dfe247441e6164c9835399e3ef0858ee334b0b614e0220213c250f5b71f21836af2c6b841ed657746f7ab693d93697d5509c63b4619051[ALL] 3045022100c6eb1d11f424f6dc34b512e275144ddc62c036f0b3971f755a531c2792c997b602205b62defdbff27d6351923509361b116c36a2c6ba46197828724626bfa0aaa21f[ALL] 522103abc8a801f5fbb4fd5f6510ba530d534b0efb584b4298cea1e6e2d45cd1000aef2102a29577404fa42d6d12e0d867249d4ee805afecc9e10879ed668da9958dc7b65052ae"}, "vout": 1, "txid": "f4d305dcb57f57eaf0a5f798dcb693ce7f29fbc083de7edc5860ed8793b38733"}], "txid": "1569839ac8a7391c4782ea91a5bf6eef4e625a71a87fbcca28be608b614e9fea", "blocktime": 1537876114, "version": 1, "confirmations": 11460, "time": 1537876114, "locktime": 0, "vsize": 333, "size": 333}