{"hash": "b0b87f766a63e35d9a5d6810fd194f4e83fdd1d4b8638ddfcc8b37574a9e4460", "blockhash": "00000000000000000018f53835495a110e01622372bf6ae95dc86f2b0ab887b0", "vout": [{"scriptPubKey": {"reqSigs": 1, "hex": "76a9148bc79e2a0f356340e0bc42723f421bece61bb3e388ac", "addresses": ["1Dk64MZ4aQMPWW2FWviotp574MxLbiZYSx"], "asm": "OP_DUP OP_HASH160 8bc79e2a0f356340e0bc42723f421bece61bb3e3 OP_EQUALVERIFY OP_CHECKSIG", "type": "pubkeyhash"}, "value": 1.0, "n": 0}, {"scriptPubKey": {"reqSigs": 1, "hex": "a914aa4653d0da8a1aba3154d6dad2acd5ab8ac20a7f87", "addresses": ["3HDM3b6kEHy4e7aA52fMXcGZoAsuLGE8d9"], "asm": "OP_HASH160 aa4653d0da8a1aba3154d6dad2acd5ab8ac20a7f OP_EQUAL", "type": "scripthash"}, "value": 0.15794449, "n": 1}, {"scriptPubKey": {"reqSigs": 1, "hex": "a914399ae06793140c2db070ec4f3364b7a3404abeb587", "addresses": ["36wbyVTphiMYEP7mT3DkXfdZ8zaNNkqzhW"], "asm": "OP_HASH160 399ae06793140c2db070ec4f3364b7a3404abeb5 OP_EQUAL", "type": "scripthash"}, "value": 0.02088271, "n": 2}, {"scriptPubKey": {"reqSigs": 1, "hex": "a9148fa5a6d9ce8ac5ae0909b178e5e076161d58f5c987", "addresses": ["3EnYzfKzSEsbg48gckV25wJvZpTorCTMyT"], "asm": "OP_HASH160 8fa5a6d9ce8ac5ae0909b178e5e076161d58f5c9 OP_EQUAL", "type": "scripthash"}, "value": 0.00976284, "n": 3}], "hex": "020000000001051d9815443f97cb9319662086f178d18daf89ba2bddca6856b91da869f348ef081a0000001716001423f13f393c096be6393402c9b1e34d2815031583feffffff29509a9d15fca94c82dc998ac8243d9f3bd44f293f5dd391846454c8779ff44f0600000017160014a3992f8b863b0533f2c45e961fd295a97a6f5a70feffffff728a6dff036480533a34f27481034cdbcfdb505b390233475afc1e91141781b20000000017160014288f9de30744c0017f61f86cb77ecbb1887d2bc2feffffffc94e8c74799a572d24733441d7acd5866318465b896cb2281c09bcbeded89f05f40000001716001462fa2d6d2dbad833436ff09545cdca4d0436a6e9feffffffcb3f67d2d78323691f378ce8c4be1c39c6925681734ea3c20e5a38169a024c560100000017160014b1faa8ef50ca59d063d4e852fb2a9d05d2efe415feffffff0400e1f505000000001976a9148bc79e2a0f356340e0bc42723f421bece61bb3e388ac1101f1000000000017a914aa4653d0da8a1aba3154d6dad2acd5ab8ac20a7f874fdd1f000000000017a914399ae06793140c2db070ec4f3364b7a3404abeb5879ce50e000000000017a9148fa5a6d9ce8ac5ae0909b178e5e076161d58f5c98702473044022024e635fbc6c57a5848f35d6bcfb44e2f88797f6b525425be2f866501f160ef0f02206fa889e3d52332c1af47f8e85cc40fd873a2edb6dcfb9a25487272f87deeea92012103e64dd11add70cb4ea54ca03f3003b76ff872d22efd908c8fd330cda0a550753e0247304402203d52dd1c300e2b5b25be13f6c5455b1173fc2fc65700968c3d27cb5058c2f1680220697d6ccb78718b1023a236123762604cc58e82cd7a5e7f067a39aa37b1abe8f0012103457e1f1b9f4b075b0fe47cceeea4a26750eb198cda037a2d9b5715accfd1a83002483045022100e5f638b2008fa3aaafcb3699d7281b2f374c2a1c677556157aa07b5eb246dc5402207b7dd34bc14c4aee09c6730d71da6b47d8fb5f986076222c3b81595e0331c0680121035e3b54a49511723a4e19d0c368c1b1df67e212bcb2be7466775f44f579b30f580247304402200e8dabdc2e5fc85015e7f8e161d4eb527bd8f711f099dbd0ce00a248475377d502200631bdaac55dfb27d1fb1a1d398efdf230af4ae45cff9d7f1ea1825f6bb06cbd012103a70415897049d15a4791bfb472f5edfae1a2b9b17f5848de2991f19f1d5433a0024830450221008f2a18b55a3fbead0cffc4ef79c66f78c3f54274fce9d5fc1ea1f01ce1831ef60220103bfc4a63d33220c72ac6a468c5376824e9e63a7b5baaaa1f1725517c656feb01210362b488c1685302a2b9262a1e5e2dda1ac241e52b1273ff68848f3df779c5083d0e490800", "vin": [{"txinwitness": ["3044022024e635fbc6c57a5848f35d6bcfb44e2f88797f6b525425be2f866501f160ef0f02206fa889e3d52332c1af47f8e85cc40fd873a2edb6dcfb9a25487272f87deeea9201", "03e64dd11add70cb4ea54ca03f3003b76ff872d22efd908c8fd330cda0a550753e"], "sequence": 4294967294, "scriptSig": {"hex": "16001423f13f393c096be6393402c9b1e34d2815031583", "asm": "001423f13f393c096be6393402c9b1e34d2815031583"}, "vout": 26, "txid": "08ef48f369a81db95668cadd2bba89af8dd178f18620661993cb973f4415981d"}, {"txinwitness": ["304402203d52dd1c300e2b5b25be13f6c5455b1173fc2fc65700968c3d27cb5058c2f1680220697d6ccb78718b1023a236123762604cc58e82cd7a5e7f067a39aa37b1abe8f001", "03457e1f1b9f4b075b0fe47cceeea4a26750eb198cda037a2d9b5715accfd1a830"], "sequence": 4294967294, "scriptSig": {"hex": "160014a3992f8b863b0533f2c45e961fd295a97a6f5a70", "asm": "0014a3992f8b863b0533f2c45e961fd295a97a6f5a70"}, "vout": 6, "txid": "4ff49f77c854648491d35d3f294fd43b9f3d24c88a99dc824ca9fc159d9a5029"}, {"txinwitness": ["3045022100e5f638b2008fa3aaafcb3699d7281b2f374c2a1c677556157aa07b5eb246dc5402207b7dd34bc14c4aee09c6730d71da6b47d8fb5f986076222c3b81595e0331c06801", "035e3b54a49511723a4e19d0c368c1b1df67e212bcb2be7466775f44f579b30f58"], "sequence": 4294967294, "scriptSig": {"hex": "160014288f9de30744c0017f61f86cb77ecbb1887d2bc2", "asm": "0014288f9de30744c0017f61f86cb77ecbb1887d2bc2"}, "vout": 0, "txid": "b2811714911efc5a473302395b50dbcfdb4c038174f2343a53806403ff6d8a72"}, {"txinwitness": ["304402200e8dabdc2e5fc85015e7f8e161d4eb527bd8f711f099dbd0ce00a248475377d502200631bdaac55dfb27d1fb1a1d398efdf230af4ae45cff9d7f1ea1825f6bb06cbd01", "03a70415897049d15a4791bfb472f5edfae1a2b9b17f5848de2991f19f1d5433a0"], "sequence": 4294967294, "scriptSig": {"hex": "16001462fa2d6d2dbad833436ff09545cdca4d0436a6e9", "asm": "001462fa2d6d2dbad833436ff09545cdca4d0436a6e9"}, "vout": 244, "txid": "059fd8debebc091c28b26c895b46186386d5acd7413473242d579a79748c4ec9"}, {"txinwitness": ["30450221008f2a18b55a3fbead0cffc4ef79c66f78c3f54274fce9d5fc1ea1f01ce1831ef60220103bfc4a63d33220c72ac6a468c5376824e9e63a7b5baaaa1f1725517c656feb01", "0362b488c1685302a2b9262a1e5e2dda1ac241e52b1273ff68848f3df779c5083d"], "sequence": 4294967294, "scriptSig": {"hex": "160014b1faa8ef50ca59d063d4e852fb2a9d05d2efe415", "asm": "0014b1faa8ef50ca59d063d4e852fb2a9d05d2efe415"}, "vout": 1, "txid": "564c029a16385a0ec2a34e73815692c6391cbec4e88c371f692383d7d2673fcb"}], "txid": "157021510e3471eee397c3f21edd53ac4fcae6f225d09874dc8729694da76e3d", "blocktime": 1537870928, "version": 2, "confirmations": 11512, "time": 1537870928, "locktime": 542990, "vsize": 595, "size": 999}