{"hash": "5f9a958835c1b5cc9890aeeaec5ed5bcf744533b733e1ddd43aa5cb4f9a7aa5e", "blockhash": "0000000000000000000dcc0f55137456b1a82d3642486a52398922ac4d620174", "vout": [{"scriptPubKey": {"reqSigs": 1, "hex": "0014372c0fd97ea326765032910ab6ec733f449ed60e", "addresses": ["bc1qxukqlkt75vn8v5pjjy9tdmrn8azfa4swtwa530"], "asm": "0 372c0fd97ea326765032910ab6ec733f449ed60e", "type": "witness_v0_keyhash"}, "value": 1.251e-05, "n": 0}, {"scriptPubKey": {"reqSigs": 1, "hex": "a914542dcaae537560624b99ba18ccc37955866010a187", "addresses": ["39N7YKe2J7hY1ZYg9XEMpJyhEu5FF5N5DP"], "asm": "OP_HASH160 542dcaae537560624b99ba18ccc37955866010a1 OP_EQUAL", "type": "scripthash"}, "value": 0.002, "n": 1}], "hex": "010000000001013dda44183c0987216d259df7db687890d5ff80b8c27938c8e821815ce2a886150000000000ffffffff02e304000000000000160014372c0fd97ea326765032910ab6ec733f449ed60e400d03000000000017a914542dcaae537560624b99ba18ccc37955866010a18702483045022100cc6e32ee2e454c107f3f05447e8c701a998980c83c1fad403ae4c1fb6f6616be02202b8bea72f0fbaf4b0eee07c53c27c077e725e6370fd703270d869336053c79f201210295ddea8c2721e44f2f0cff462a34a82c45904cd8cfca8d713dc4059d908a7ef700000000", "vin": [{"txinwitness": ["3045022100cc6e32ee2e454c107f3f05447e8c701a998980c83c1fad403ae4c1fb6f6616be02202b8bea72f0fbaf4b0eee07c53c27c077e725e6370fd703270d869336053c79f201", "0295ddea8c2721e44f2f0cff462a34a82c45904cd8cfca8d713dc4059d908a7ef7"], "sequence": 4294967295, "scriptSig": {"hex": "", "asm": ""}, "vout": 0, "txid": "1586a8e25c8121e8c83879c2b880ffd5907868dbf79d256d2187093c1844da3d"}], "txid": "15733c44e5ee8b42f99f8094d6e3ba3938630a2d05d6f3e9a766a87290335bd5", "blocktime": 1537870268, "version": 1, "confirmations": 11518, "time": 1537870268, "locktime": 0, "vsize": 142, "size": 224}