{"hash": "4328f047a9e7e258871ac3135edb0da1e4a855aae2579acaddc031e12b518d25", "blockhash": "00000000000000000017f5eb5941039fbcee6240d03bc1f2f8e35350df66a1d8", "vout": [{"scriptPubKey": {"reqSigs": 1, "hex": "0014a58fd1bb0250cd65d4327b850a2a2e9066cad7d9", "addresses": ["bc1q5k8arwcz2rxkt4pj0wzs523wjpnv447eh7zy27"], "asm": "0 a58fd1bb0250cd65d4327b850a2a2e9066cad7d9", "type": "witness_v0_keyhash"}, "value": 0.32937997, "n": 0}, {"scriptPubKey": {"reqSigs": 1, "hex": "a9141c1bfad2b9c56826b908fb10eb757f574434e33487", "addresses": ["34FeMz2d1zGHHnfaoR2XhZpEt7W2cfktRE"], "asm": "OP_HASH160 1c1bfad2b9c56826b908fb10eb757f574434e334 OP_EQUAL", "type": "scripthash"}, "value": 0.01952913, "n": 1}], "hex": "0100000000010119316caa0fdd4e6657e6bb1d9f61b6a508032fa47b93b81643092fe5bb2c630d00000000171600145830a237c9356d9c910537bf9b866f9da46836a4ffffffff020d98f60100000000160014a58fd1bb0250cd65d4327b850a2a2e9066cad7d991cc1d000000000017a9141c1bfad2b9c56826b908fb10eb757f574434e3348702483045022100971b7976f8353a440351b06a45ac395885ab34b24d41a8c40c5de94c001bd81002200fc6544cbfb4dd57d938b0d6c6eac7477a760b9fa88ea37f64e546294ac1f4b2012102d979cafc5176126340fbedc07012a29f4c7633205c1d58a1d896aa6adccbfe8700000000", "vin": [{"txinwitness": ["3045022100971b7976f8353a440351b06a45ac395885ab34b24d41a8c40c5de94c001bd81002200fc6544cbfb4dd57d938b0d6c6eac7477a760b9fa88ea37f64e546294ac1f4b201", "02d979cafc5176126340fbedc07012a29f4c7633205c1d58a1d896aa6adccbfe87"], "sequence": 4294967295, "scriptSig": {"hex": "1600145830a237c9356d9c910537bf9b866f9da46836a4", "asm": "00145830a237c9356d9c910537bf9b866f9da46836a4"}, "vout": 0, "txid": "0d632cbbe52f094316b8937ba42f0308a5b6619f1dbbe657664edd0faa6c3119"}], "txid": "157356dd2e9af65b21b80c667b3ada544c413502f3661a736fd3efe45d2fbf8b", "blocktime": 1537874412, "version": 1, "confirmations": 11468, "time": 1537874412, "locktime": 0, "vsize": 165, "size": 247}