{"hash": "87a66ac2277378e2681e97ce5f82683477593fa6ffbae8e7f9ea4bd09d9596de", "blockhash": "0000000000000000000e13cef7c366c0283d82e591d1acd082e914b08063cdf1", "vout": [{"scriptPubKey": {"reqSigs": 1, "hex": "a9146160c4a97f752dc1c9a902a1049ddc1cba730d8d87", "addresses": ["3AZuPiyUJycz4DybXHAPvhkQ1XFAk4PL8s"], "asm": "OP_HASH160 6160c4a97f752dc1c9a902a1049ddc1cba730d8d OP_EQUAL", "type": "scripthash"}, "value": 0.00046933, "n": 0}], "hex": "010000000001013286a991f802853e6ac857b61d83fef11c7be409083409a80f73a8b9a80dae5a0000000000ffffffff0155b700000000000017a9146160c4a97f752dc1c9a902a1049ddc1cba730d8d8702483045022100a483ca6ffdec3b3ef269858c1555ada03296eed04ea3638e6fb94f1f0f970876022043e20b452ad4f408328820cf39274028286fe149fe37ef3b5ae3d4b8638262300121034de786ffa07682d026fb0f2c23087a5364432c917a4f1bff8bbb99cde542be3b00000000", "vin": [{"txinwitness": ["3045022100a483ca6ffdec3b3ef269858c1555ada03296eed04ea3638e6fb94f1f0f970876022043e20b452ad4f408328820cf39274028286fe149fe37ef3b5ae3d4b86382623001", "034de786ffa07682d026fb0f2c23087a5364432c917a4f1bff8bbb99cde542be3b"], "sequence": 4294967295, "scriptSig": {"hex": "", "asm": ""}, "vout": 0, "txid": "5aae0da8b9a8730fa809340809e47b1cf1fe831db657c86a3e8502f891a98632"}], "txid": "1573f7d591e6b1f0ee425c0baa2fff3a10834c873314fda30c069e536c58e738", "blocktime": 1537871767, "version": 1, "confirmations": 11495, "time": 1537871767, "locktime": 0, "vsize": 111, "size": 193}