{"hash": "15749f6c866ea55ee5424e2928c869567ba8938e4c6b38c6298e9c9b17ff851e", "blockhash": "0000000000000000000e13cef7c366c0283d82e591d1acd082e914b08063cdf1", "vout": [{"scriptPubKey": {"reqSigs": 1, "hex": "a914013c1daa71e67275dcafa24ed3469df84b9b1f9687", "addresses": ["31oYcfFUztdEtHSDKo3FUSKt5zW1Hks11z"], "asm": "OP_HASH160 013c1daa71e67275dcafa24ed3469df84b9b1f96 OP_EQUAL", "type": "scripthash"}, "value": 0.00625177, "n": 0}, {"scriptPubKey": {"reqSigs": 1, "hex": "76a91443c26118229002ea0db823ef1f06da0209d51e2688ac", "addresses": ["17BH8ZZZRioc9Px5Gue3tkPuUZvhmpKK3Z"], "asm": "OP_DUP OP_HASH160 43c26118229002ea0db823ef1f06da0209d51e26 OP_EQUALVERIFY OP_CHECKSIG", "type": "pubkeyhash"}, "value": 0.44082206, "n": 1}], "hex": "01000000019b227ca018540d8c128f20ad8bc27a9fc6bece17e241fef870991c92bc4d13a0010000006b483045022100b49c73ccb80bdcaf2b986c5eaffe78efc25bb9e85be94f6e33c4c6f66c7f1ebf0220366550444d200fa6d5d65e180e50cadea17e548cf1885f975fd12dd0b73626da012103d415730685d81a7ef3ae15502f0525cee2777e2787f2ce34eacf498d0b50dc53ffffffff02198a09000000000017a914013c1daa71e67275dcafa24ed3469df84b9b1f96871ea4a002000000001976a91443c26118229002ea0db823ef1f06da0209d51e2688ac00000000", "vin": [{"sequence": 4294967295, "scriptSig": {"hex": "483045022100b49c73ccb80bdcaf2b986c5eaffe78efc25bb9e85be94f6e33c4c6f66c7f1ebf0220366550444d200fa6d5d65e180e50cadea17e548cf1885f975fd12dd0b73626da012103d415730685d81a7ef3ae15502f0525cee2777e2787f2ce34eacf498d0b50dc53", "asm": "3045022100b49c73ccb80bdcaf2b986c5eaffe78efc25bb9e85be94f6e33c4c6f66c7f1ebf0220366550444d200fa6d5d65e180e50cadea17e548cf1885f975fd12dd0b73626da[ALL] 03d415730685d81a7ef3ae15502f0525cee2777e2787f2ce34eacf498d0b50dc53"}, "vout": 1, "txid": "a0134dbc921c9970f8fe41e217cebec69f7ac28bad208f128c0d5418a07c229b"}], "txid": "15749f6c866ea55ee5424e2928c869567ba8938e4c6b38c6298e9c9b17ff851e", "blocktime": 1537871767, "version": 1, "confirmations": 11495, "time": 1537871767, "locktime": 0, "vsize": 224, "size": 224}