{"hash": "15801c969268d0f842cb02e4e0db3aa3e01f3e68cf93674ed7b9dea72354fba0", "blockhash": "0000000000000000001f76057863aec43deb6fa401d9628bb513d65a8098bfab", "vout": [{"scriptPubKey": {"reqSigs": 1, "hex": "76a9142a8c40461ee91c6400df79899c478da357cf9af588ac", "addresses": ["14syPsabfQGxwrkykacT9XwKaP4b8V6hNc"], "asm": "OP_DUP OP_HASH160 2a8c40461ee91c6400df79899c478da357cf9af5 OP_EQUALVERIFY OP_CHECKSIG", "type": "pubkeyhash"}, "value": 0.00998076, "n": 0}, {"scriptPubKey": {"reqSigs": 1, "hex": "76a914e45eb28c38782bc962b743e7c157be47c765556088ac", "addresses": ["1MpWWS36V47XSh9kSwySqGM27gWmDd1ivt"], "asm": "OP_DUP OP_HASH160 e45eb28c38782bc962b743e7c157be47c7655560 OP_EQUALVERIFY OP_CHECKSIG", "type": "pubkeyhash"}, "value": 0.02, "n": 1}], "hex": "01000000014020f61dcf436409d50d03617f997890d1bc021a5b6301a6df3901bc1017fe4a000000006b483045022100f87d175802d975d9bfae7a5424fe6c9e1d8d8648a90c62c5012a89ce061ee6c602202788c433b60a485b6d6539583983a703e34ec45b31d37ff4a9c8234a52c36bd3012103c97990fe702d2578c6e7958451e184c806a49ddf82a4149a48470ced5e5fa494ffffffff02bc3a0f00000000001976a9142a8c40461ee91c6400df79899c478da357cf9af588ac80841e00000000001976a914e45eb28c38782bc962b743e7c157be47c765556088ac00000000", "vin": [{"sequence": 4294967295, "scriptSig": {"hex": "483045022100f87d175802d975d9bfae7a5424fe6c9e1d8d8648a90c62c5012a89ce061ee6c602202788c433b60a485b6d6539583983a703e34ec45b31d37ff4a9c8234a52c36bd3012103c97990fe702d2578c6e7958451e184c806a49ddf82a4149a48470ced5e5fa494", "asm": "3045022100f87d175802d975d9bfae7a5424fe6c9e1d8d8648a90c62c5012a89ce061ee6c602202788c433b60a485b6d6539583983a703e34ec45b31d37ff4a9c8234a52c36bd3[ALL] 03c97990fe702d2578c6e7958451e184c806a49ddf82a4149a48470ced5e5fa494"}, "vout": 0, "txid": "4afe1710bc0139dfa601635b1a02bcd19078997f61030dd5096443cf1df62040"}], "txid": "15801c969268d0f842cb02e4e0db3aa3e01f3e68cf93674ed7b9dea72354fba0", "blocktime": 1537873891, "version": 1, "confirmations": 11478, "time": 1537873891, "locktime": 0, "vsize": 226, "size": 226}