{"hash": "158a0d8636a885f32798d8c50c95c34dd276f700016b78b74a89400f3c493ff5", "blockhash": "0000000000000000000baef3f32e3676a92c3b2e5da21b426e4f302fc371ce76", "vout": [{"scriptPubKey": {"reqSigs": 1, "hex": "a9143211a6d53cf879a6be13521f46c39d453adb60b287", "addresses": ["36FkrbY9w8kcrnLQcEQmYwEbvGhmcqtCas"], "asm": "OP_HASH160 3211a6d53cf879a6be13521f46c39d453adb60b2 OP_EQUAL", "type": "scripthash"}, "value": 0.01252308, "n": 0}, {"scriptPubKey": {"reqSigs": 1, "hex": "76a914a18b61b24c6b0f3b927dc0c22f95852c9f0913fd88ac", "addresses": ["1FjAmHpGCzvNPmph7sVJ3STGr75otQWfJg"], "asm": "OP_DUP OP_HASH160 a18b61b24c6b0f3b927dc0c22f95852c9f0913fd OP_EQUALVERIFY OP_CHECKSIG", "type": "pubkeyhash"}, "value": 0.03478713, "n": 1}], "hex": "01000000012947a1eea9d439a4092d4cb5ed3d7dfd2e913f084e27ad73d5f787d8de28d2e60b0000006a4730440220050edef8735821572586602ddc9a2090ac517d8c440d8bdc87f412f059e039e20220155d49b428d1be8fa69452153362ea0e1dc82e7f610761158351dca8bde797450121039dc9190a60381c4d2099574404f656986f472708883ef99b8d63064f1979a56cffffffff02d41b13000000000017a9143211a6d53cf879a6be13521f46c39d453adb60b287b9143500000000001976a914a18b61b24c6b0f3b927dc0c22f95852c9f0913fd88ac00000000", "vin": [{"sequence": 4294967295, "scriptSig": {"hex": "4730440220050edef8735821572586602ddc9a2090ac517d8c440d8bdc87f412f059e039e20220155d49b428d1be8fa69452153362ea0e1dc82e7f610761158351dca8bde797450121039dc9190a60381c4d2099574404f656986f472708883ef99b8d63064f1979a56c", "asm": "30440220050edef8735821572586602ddc9a2090ac517d8c440d8bdc87f412f059e039e20220155d49b428d1be8fa69452153362ea0e1dc82e7f610761158351dca8bde79745[ALL] 039dc9190a60381c4d2099574404f656986f472708883ef99b8d63064f1979a56c"}, "vout": 11, "txid": "e6d228ded887f7d573ad274e083f912efd7d3dedb54c2d09a439d4a9eea14729"}], "txid": "158a0d8636a885f32798d8c50c95c34dd276f700016b78b74a89400f3c493ff5", "blocktime": 1537876114, "version": 1, "confirmations": 11460, "time": 1537876114, "locktime": 0, "vsize": 223, "size": 223}