{"hash": "15a33fdd97f6184a7580cc4efb64562faf1e29eacf0d357ca0b525122f59eeae", "blockhash": "00000000000000000024a2167bbff67b0be802c0b01cdd79e6331c2be6459f87", "vout": [{"scriptPubKey": {"reqSigs": 1, "hex": "76a91400c679031f5b4cc2076e513ebbb13730384469b488ac", "addresses": ["1156m8GFfTtceMxf3ZLVgnBhg7G8Wsekj7"], "asm": "OP_DUP OP_HASH160 00c679031f5b4cc2076e513ebbb13730384469b4 OP_EQUALVERIFY OP_CHECKSIG", "type": "pubkeyhash"}, "value": 0.00646375, "n": 0}, {"scriptPubKey": {"type": "nulldata", "hex": "6a4c500000777e00011c24fedbdf501dd506080eb1bcbefa6b8351586b4e86aeaeacb577c031fce4db30e176335d260975fa9f55f60db25baa0a8f0613b1fc6a4d01231d100759d4ba30d2c37bb011d97e02cf", "asm": "OP_RETURN 0000777e00011c24fedbdf501dd506080eb1bcbefa6b8351586b4e86aeaeacb577c031fce4db30e176335d260975fa9f55f60db25baa0a8f0613b1fc6a4d01231d100759d4ba30d2c37bb011d97e02cf"}, "value": 0.0, "n": 1}], "hex": "0100000001bb280877b287ffd7e0e79b83ef455f358140e03e4c975199a0b14f94f1b50d2d010000006b4830450221009aa0e280e9fe3a6bc42f2cf1cd7c23e11ebad8f1a00e53d65a7352ff6a4fd1440220391d6d7571fbeca69d698f0fdf9d29b1067f6122bd5609af09d278a78782ca790121031d143c1b5584cf1dbb48ad8c0b4d63b2e823d2ab2b3dd289d19556a7e799282dffffffff02e7dc0900000000001976a91400c679031f5b4cc2076e513ebbb13730384469b488ac0000000000000000536a4c500000777e00011c24fedbdf501dd506080eb1bcbefa6b8351586b4e86aeaeacb577c031fce4db30e176335d260975fa9f55f60db25baa0a8f0613b1fc6a4d01231d100759d4ba30d2c37bb011d97e02cf00000000", "vin": [{"sequence": 4294967295, "scriptSig": {"hex": "4830450221009aa0e280e9fe3a6bc42f2cf1cd7c23e11ebad8f1a00e53d65a7352ff6a4fd1440220391d6d7571fbeca69d698f0fdf9d29b1067f6122bd5609af09d278a78782ca790121031d143c1b5584cf1dbb48ad8c0b4d63b2e823d2ab2b3dd289d19556a7e799282d", "asm": "30450221009aa0e280e9fe3a6bc42f2cf1cd7c23e11ebad8f1a00e53d65a7352ff6a4fd1440220391d6d7571fbeca69d698f0fdf9d29b1067f6122bd5609af09d278a78782ca79[ALL] 031d143c1b5584cf1dbb48ad8c0b4d63b2e823d2ab2b3dd289d19556a7e799282d"}, "vout": 1, "txid": "2d0db5f1944fb1a09951974c3ee04081355f45ef839be7e0d7ff87b2770828bb"}], "txid": "15a33fdd97f6184a7580cc4efb64562faf1e29eacf0d357ca0b525122f59eeae", "blocktime": 1537870564, "version": 1, "confirmations": 11515, "time": 1537870564, "locktime": 0, "vsize": 284, "size": 284}