{"hash": "15a5ea76541747d6ce4b1b8734cbea655811dd423dea44a191497ccaafe0e4ad", "blockhash": "00000000000000000024a2167bbff67b0be802c0b01cdd79e6331c2be6459f87", "vout": [{"scriptPubKey": {"reqSigs": 1, "hex": "76a914854754cb7bc744b60cf99c390a95c41e0cfc4e5888ac", "addresses": ["1D9iKhGFNDkL2cq7r1jRmbxoQEAiT3YjZN"], "asm": "OP_DUP OP_HASH160 854754cb7bc744b60cf99c390a95c41e0cfc4e58 OP_EQUALVERIFY OP_CHECKSIG", "type": "pubkeyhash"}, "value": 0.002607, "n": 0}, {"scriptPubKey": {"reqSigs": 1, "hex": "76a9140f2ec8faedd1178054b1e9caf4d85604c9c8ab6b88ac", "addresses": ["12PHBZaeDtWUd6cqUkRKZHogVRXAwydvYu"], "asm": "OP_DUP OP_HASH160 0f2ec8faedd1178054b1e9caf4d85604c9c8ab6b OP_EQUALVERIFY OP_CHECKSIG", "type": "pubkeyhash"}, "value": 0.14095939, "n": 1}], "hex": "010000000165e99aec9f3a77b0a8015a12af9f58a0661e902dd52b5bcb9b777bbc829d92b3010000006a4730440220610357b15c172c8f6539e99c43fc66f5bc56703a067508b13d4f76f745a07d2e022006a38c8f47cd4c056583c47ad8ad356810f6d8aef45d9ef3bfbb56c029a1d8d601210391b56fb068f847ce8504803b141f6e81976f9e370d4f42c4418bde6b69b9c485ffffffff025cfa0300000000001976a914854754cb7bc744b60cf99c390a95c41e0cfc4e5888ac4316d700000000001976a9140f2ec8faedd1178054b1e9caf4d85604c9c8ab6b88ac00000000", "vin": [{"sequence": 4294967295, "scriptSig": {"hex": "4730440220610357b15c172c8f6539e99c43fc66f5bc56703a067508b13d4f76f745a07d2e022006a38c8f47cd4c056583c47ad8ad356810f6d8aef45d9ef3bfbb56c029a1d8d601210391b56fb068f847ce8504803b141f6e81976f9e370d4f42c4418bde6b69b9c485", "asm": "30440220610357b15c172c8f6539e99c43fc66f5bc56703a067508b13d4f76f745a07d2e022006a38c8f47cd4c056583c47ad8ad356810f6d8aef45d9ef3bfbb56c029a1d8d6[ALL] 0391b56fb068f847ce8504803b141f6e81976f9e370d4f42c4418bde6b69b9c485"}, "vout": 1, "txid": "b3929d82bc7b779bcb5b2bd52d901e66a0589faf125a01a8b0773a9fec9ae965"}], "txid": "15a5ea76541747d6ce4b1b8734cbea655811dd423dea44a191497ccaafe0e4ad", "blocktime": 1537870564, "version": 1, "confirmations": 11515, "time": 1537870564, "locktime": 0, "vsize": 225, "size": 225}