{"hash": "15a6250397b46f6f0926c7bd1b345be662d05f5bd555a269a6c0ec9b27581cc1", "blockhash": "00000000000000000017f5eb5941039fbcee6240d03bc1f2f8e35350df66a1d8", "vout": [{"scriptPubKey": {"type": "nulldata", "hex": "6a146f6d6e69000000000000001f00000246139ca800", "asm": "OP_RETURN 6f6d6e69000000000000001f00000246139ca800"}, "value": 0.0, "n": 0}, {"scriptPubKey": {"reqSigs": 1, "hex": "a9142bcb3f8bc8cc1295d005595493585b866a68c0da87", "addresses": ["35gaTj7JDQYxvVFvxXyF4qqBLQH6fAqfn7"], "asm": "OP_HASH160 2bcb3f8bc8cc1295d005595493585b866a68c0da OP_EQUAL", "type": "scripthash"}, "value": 5.4e-06, "n": 1}, {"scriptPubKey": {"reqSigs": 1, "hex": "76a914cb71a5b80cfc05f2920248186c8d6a4a8f49ee8e88ac", "addresses": ["1KYiKJEfdJtap9QX2v9BXJMpz2SfU4pgZw"], "asm": "OP_DUP OP_HASH160 cb71a5b80cfc05f2920248186c8d6a4a8f49ee8e OP_EQUALVERIFY OP_CHECKSIG", "type": "pubkeyhash"}, "value": 0.26168192, "n": 2}], "hex": "010000000161f594c0c54ae2e2b2d969de41d845361551fe6aa591babcdd6ad07cb9494314010000006a47304402202859843007ed1f2cef0a1b81ddfd51ff9acc99d81c4149cc37efed1a062cceab02204cda3669093b36097dfc922ee01fb99648ed23f71358f14553c44e999d04b19101210364e7d27a8abe0408b754ee0c88a6d1be37bbd9416ad1621013c6381301c65e8efeffffff030000000000000000166a146f6d6e69000000000000001f00000246139ca8001c0200000000000017a9142bcb3f8bc8cc1295d005595493585b866a68c0da87804b8f01000000001976a914cb71a5b80cfc05f2920248186c8d6a4a8f49ee8e88ac15490800", "vin": [{"sequence": 4294967294, "scriptSig": {"hex": "47304402202859843007ed1f2cef0a1b81ddfd51ff9acc99d81c4149cc37efed1a062cceab02204cda3669093b36097dfc922ee01fb99648ed23f71358f14553c44e999d04b19101210364e7d27a8abe0408b754ee0c88a6d1be37bbd9416ad1621013c6381301c65e8e", "asm": "304402202859843007ed1f2cef0a1b81ddfd51ff9acc99d81c4149cc37efed1a062cceab02204cda3669093b36097dfc922ee01fb99648ed23f71358f14553c44e999d04b191[ALL] 0364e7d27a8abe0408b754ee0c88a6d1be37bbd9416ad1621013c6381301c65e8e"}, "vout": 1, "txid": "144349b97cd06addbcba91a56afe51153645d841de69d9b2e2e24ac5c094f561"}], "txid": "15a6250397b46f6f0926c7bd1b345be662d05f5bd555a269a6c0ec9b27581cc1", "blocktime": 1537874412, "version": 1, "confirmations": 11466, "time": 1537874412, "locktime": 542997, "vsize": 254, "size": 254}