{"hash": "15a770e76efd6f177f21bc037b0afffdf6a0ad351b574477817acea5eb26f30f", "blockhash": "0000000000000000000baef3f32e3676a92c3b2e5da21b426e4f302fc371ce76", "vout": [{"scriptPubKey": {"reqSigs": 1, "hex": "76a914b5670ad48f4d3ca48159ad75d39be2138ef5654a88ac", "addresses": ["1HYAkE847qgEqLDrEEaXru8Cg3Rj7xcMQ5"], "asm": "OP_DUP OP_HASH160 b5670ad48f4d3ca48159ad75d39be2138ef5654a OP_EQUALVERIFY OP_CHECKSIG", "type": "pubkeyhash"}, "value": 0.0029592, "n": 0}, {"scriptPubKey": {"reqSigs": 1, "hex": "76a914313741982df1f00b0cddb09bd9380d57a00929e588ac", "addresses": ["15VEJfr1bh1Eeei1eef1dTDVuUw2EXi1Y9"], "asm": "OP_DUP OP_HASH160 313741982df1f00b0cddb09bd9380d57a00929e5 OP_EQUALVERIFY OP_CHECKSIG", "type": "pubkeyhash"}, "value": 0.016, "n": 1}], "hex": "01000000014cd8975ac9a1bbfce4248a43118631f41b5649ce5b1edcb5bf013cc6143ddd3e000000006a47304402205934b8665fcfa23a042ddaa1fa60c6d4191d43f3b4e61c3269d848ec5d3e68dd02202af04fd5876e37346cb679fc51ee1f353d031e847016239503d528c9a395808c0121032fdb086f1a00e4406acc5c1fe2412c535d2860f9b25885300985f747079213befdffffff02f0830400000000001976a914b5670ad48f4d3ca48159ad75d39be2138ef5654a88ac006a1800000000001976a914313741982df1f00b0cddb09bd9380d57a00929e588ac17490800", "vin": [{"sequence": 4294967293, "scriptSig": {"hex": "47304402205934b8665fcfa23a042ddaa1fa60c6d4191d43f3b4e61c3269d848ec5d3e68dd02202af04fd5876e37346cb679fc51ee1f353d031e847016239503d528c9a395808c0121032fdb086f1a00e4406acc5c1fe2412c535d2860f9b25885300985f747079213be", "asm": "304402205934b8665fcfa23a042ddaa1fa60c6d4191d43f3b4e61c3269d848ec5d3e68dd02202af04fd5876e37346cb679fc51ee1f353d031e847016239503d528c9a395808c[ALL] 032fdb086f1a00e4406acc5c1fe2412c535d2860f9b25885300985f747079213be"}, "vout": 0, "txid": "3edd3d14c63c01bfb5dc1e5bce49561bf4318611438a24e4fcbba1c95a97d84c"}], "txid": "15a770e76efd6f177f21bc037b0afffdf6a0ad351b574477817acea5eb26f30f", "blocktime": 1537876114, "version": 1, "confirmations": 11460, "time": 1537876114, "locktime": 542999, "vsize": 225, "size": 225}