{"hash": "15a8c936b02523fd34c349c8bc1ad339ef0230c7c1223485497de8c2c895781b", "blockhash": "0000000000000000001cda96e906b7601b7a6fb1a3b62bca570a9e5d8f4b3de1", "vout": [{"scriptPubKey": {"reqSigs": 1, "hex": "76a9144a0814f970682eedb81d4d59f0a0d3d06541b98588ac", "addresses": ["17kSgjoCVpNaBwjd8AEpu6adE3GzQ46M3j"], "asm": "OP_DUP OP_HASH160 4a0814f970682eedb81d4d59f0a0d3d06541b985 OP_EQUALVERIFY OP_CHECKSIG", "type": "pubkeyhash"}, "value": 0.05367613, "n": 0}, {"scriptPubKey": {"reqSigs": 1, "hex": "76a914e8b9f44a7117efee25a9626fbf5fd0021114b1ef88ac", "addresses": ["1NDYXqKvnhmzSLdWEYnMkmjBNKvawaTe8N"], "asm": "OP_DUP OP_HASH160 e8b9f44a7117efee25a9626fbf5fd0021114b1ef OP_EQUALVERIFY OP_CHECKSIG", "type": "pubkeyhash"}, "value": 0.01373994, "n": 1}, {"scriptPubKey": {"reqSigs": 1, "hex": "76a914da7960eb3b9c9033abfb195a0436fe5fb0e346a488ac", "addresses": ["1LvBiMNg6tF7iBRGvamK33bCYnK6omorXg"], "asm": "OP_DUP OP_HASH160 da7960eb3b9c9033abfb195a0436fe5fb0e346a4 OP_EQUALVERIFY OP_CHECKSIG", "type": "pubkeyhash"}, "value": 0.00999875, "n": 2}, {"scriptPubKey": {"reqSigs": 1, "hex": "76a9149d8e4212219758fd01533c150dfc5bba4f11b7d788ac", "addresses": ["1FN5WPCP77wwdx2P7wxGKDh7RvcaQzYqMy"], "asm": "OP_DUP OP_HASH160 9d8e4212219758fd01533c150dfc5bba4f11b7d7 OP_EQUALVERIFY OP_CHECKSIG", "type": "pubkeyhash"}, "value": 0.00892249, "n": 3}, {"scriptPubKey": {"reqSigs": 1, "hex": "76a9147e1f006ceed311381b38637572c4c78542fbe12d88ac", "addresses": ["1CVsHCpsFUAUaeSYiuwGaxMAwECDDg6RZC"], "asm": "OP_DUP OP_HASH160 7e1f006ceed311381b38637572c4c78542fbe12d OP_EQUALVERIFY OP_CHECKSIG", "type": "pubkeyhash"}, "value": 0.02598301, "n": 4}, {"scriptPubKey": {"reqSigs": 1, "hex": "76a91464088f284784374d4e2eb37e0b3aca736e1d614088ac", "addresses": ["1A7vptTm3atEYnZjbNKHnhJV1pmx5rm1XZ"], "asm": "OP_DUP OP_HASH160 64088f284784374d4e2eb37e0b3aca736e1d6140 OP_EQUALVERIFY OP_CHECKSIG", "type": "pubkeyhash"}, "value": 0.00997338, "n": 5}], "hex": "020000000312c612872295e1286bee278926653a04ad4e43ef98d9bf02a5d36777866d7add010000006b483045022100b9722a177764e489d2a97f9bb86090e10321d50ec809c7b50dc340b23aa223f1022020cf76390e4e4323b6fb6dab221eb712934fe4dc534bdb1687930b10103f8434012103723cb2d715a5d8b679728a8dd133e0b465aea419ffb46ff06287a884c16be431feffffff2a6217fb59af0e0eb2d612b452cd3a00e468fc3afbf218c35e51c8827cd0ae08000000006b483045022100d381c86261c7cdd522f16d9ccfd109f3b5890a886165f7193d1b6b8bc594c8b2022046849ea6c9ab1cc3eb22b909726cfba09db6d6ea94978c60ba3c64a935601a720121028b20e644a57c98e8b59b8b05929e748fa99cbb0d0452bbe59b4014847632ba07feffffff7047ab81171fefd979c026249132db14c0cb92cd6643ed8ed179cdb1c86eadd3000000006a47304402207e5e5fc7eb1a7d76fc8cb9f0c78d87b0d5b2e1896a2b0cf6270cc9a9efec5f3202200bb78ca2fa157c9e073d71171543c216931daf7634828b33dd41e8351fedc8f40121027aac728ef458542b2b12b138833a00a951b723bd3a0d547e12d129ea581d1bdefeffffff063de75100000000001976a9144a0814f970682eedb81d4d59f0a0d3d06541b98588ac2af71400000000001976a914e8b9f44a7117efee25a9626fbf5fd0021114b1ef88acc3410f00000000001976a914da7960eb3b9c9033abfb195a0436fe5fb0e346a488ac599d0d00000000001976a9149d8e4212219758fd01533c150dfc5bba4f11b7d788ac9da52700000000001976a9147e1f006ceed311381b38637572c4c78542fbe12d88acda370f00000000001976a91464088f284784374d4e2eb37e0b3aca736e1d614088ac00000000", "vin": [{"sequence": 4294967294, "scriptSig": {"hex": "483045022100b9722a177764e489d2a97f9bb86090e10321d50ec809c7b50dc340b23aa223f1022020cf76390e4e4323b6fb6dab221eb712934fe4dc534bdb1687930b10103f8434012103723cb2d715a5d8b679728a8dd133e0b465aea419ffb46ff06287a884c16be431", "asm": "3045022100b9722a177764e489d2a97f9bb86090e10321d50ec809c7b50dc340b23aa223f1022020cf76390e4e4323b6fb6dab221eb712934fe4dc534bdb1687930b10103f8434[ALL] 03723cb2d715a5d8b679728a8dd133e0b465aea419ffb46ff06287a884c16be431"}, "vout": 1, "txid": "dd7a6d867767d3a502bfd998ef434ead043a65268927ee6b28e195228712c612"}, {"sequence": 4294967294, "scriptSig": {"hex": "483045022100d381c86261c7cdd522f16d9ccfd109f3b5890a886165f7193d1b6b8bc594c8b2022046849ea6c9ab1cc3eb22b909726cfba09db6d6ea94978c60ba3c64a935601a720121028b20e644a57c98e8b59b8b05929e748fa99cbb0d0452bbe59b4014847632ba07", "asm": "3045022100d381c86261c7cdd522f16d9ccfd109f3b5890a886165f7193d1b6b8bc594c8b2022046849ea6c9ab1cc3eb22b909726cfba09db6d6ea94978c60ba3c64a935601a72[ALL] 028b20e644a57c98e8b59b8b05929e748fa99cbb0d0452bbe59b4014847632ba07"}, "vout": 0, "txid": "08aed07c82c8515ec318f2fb3afc68e4003acd52b412d6b20e0eaf59fb17622a"}, {"sequence": 4294967294, "scriptSig": {"hex": "47304402207e5e5fc7eb1a7d76fc8cb9f0c78d87b0d5b2e1896a2b0cf6270cc9a9efec5f3202200bb78ca2fa157c9e073d71171543c216931daf7634828b33dd41e8351fedc8f40121027aac728ef458542b2b12b138833a00a951b723bd3a0d547e12d129ea581d1bde", "asm": "304402207e5e5fc7eb1a7d76fc8cb9f0c78d87b0d5b2e1896a2b0cf6270cc9a9efec5f3202200bb78ca2fa157c9e073d71171543c216931daf7634828b33dd41e8351fedc8f4[ALL] 027aac728ef458542b2b12b138833a00a951b723bd3a0d547e12d129ea581d1bde"}, "vout": 0, "txid": "d3ad6ec8b1cd79d18eed4366cd92cbc014db32912426c079d9ef1f1781ab4770"}], "txid": "15a8c936b02523fd34c349c8bc1ad339ef0230c7c1223485497de8c2c895781b", "blocktime": 1537873282, "version": 2, "confirmations": 11484, "time": 1537873282, "locktime": 0, "vsize": 657, "size": 657}