{"hash": "2edbf60705435a4c427578fcaa8e614863eb6424767fcf039753e41345ef8b6c", "blockhash": "00000000000000000018f53835495a110e01622372bf6ae95dc86f2b0ab887b0", "vout": [{"scriptPubKey": {"reqSigs": 1, "hex": "76a914d391aa92ba9fd7092fd1c4c2e7d00539075577dc88ac", "addresses": ["1LHg5YoPxNzyrWMjtJMcWR4M7jJBC9bakc"], "asm": "OP_DUP OP_HASH160 d391aa92ba9fd7092fd1c4c2e7d00539075577dc OP_EQUALVERIFY OP_CHECKSIG", "type": "pubkeyhash"}, "value": 0.08998944, "n": 0}, {"scriptPubKey": {"reqSigs": 1, "hex": "76a91497b551ed03a0f3d2d0a21ae48dba2efbb1796dba88ac", "addresses": ["1EqAFJYQtopMiWB9NEvVQCPx4UjF5F6rbm"], "asm": "OP_DUP OP_HASH160 97b551ed03a0f3d2d0a21ae48dba2efbb1796dba OP_EQUALVERIFY OP_CHECKSIG", "type": "pubkeyhash"}, "value": 0.05716728, "n": 1}, {"scriptPubKey": {"reqSigs": 1, "hex": "a914d6acaa97aa031e50885dbf61fe90195f8f7e904087", "addresses": ["3MG7NfZU4ArJ5qQJsynzxrbnfFi1frGZhF"], "asm": "OP_HASH160 d6acaa97aa031e50885dbf61fe90195f8f7e9040 OP_EQUAL", "type": "scripthash"}, "value": 0.01010225, "n": 2}], "hex": "020000000001013c9c3177ca6cab893480a2695930a035344b160c155c5655a96413c96c93bd260100000017160014232258ed5555ae4dc8e2e0f39602ebb6343b8ffaffffffff0320508900000000001976a914d391aa92ba9fd7092fd1c4c2e7d00539075577dc88acf83a5700000000001976a91497b551ed03a0f3d2d0a21ae48dba2efbb1796dba88ac316a0f000000000017a914d6acaa97aa031e50885dbf61fe90195f8f7e90408702483045022100ad797bba8fd6a6b0e80d24d329ecfa7a9424b643f386d1c0537e5ddddff3039f0220400359ab3b342eac28c072a0295f784263db3275f966f08051bb63a0b59aacd9012103906649322607db352d984391da064ef385c2387ea5b9f76393cb44cc64ad3ddc00000000", "vin": [{"txinwitness": ["3045022100ad797bba8fd6a6b0e80d24d329ecfa7a9424b643f386d1c0537e5ddddff3039f0220400359ab3b342eac28c072a0295f784263db3275f966f08051bb63a0b59aacd901", "03906649322607db352d984391da064ef385c2387ea5b9f76393cb44cc64ad3ddc"], "sequence": 4294967295, "scriptSig": {"hex": "160014232258ed5555ae4dc8e2e0f39602ebb6343b8ffa", "asm": "0014232258ed5555ae4dc8e2e0f39602ebb6343b8ffa"}, "vout": 1, "txid": "26bd936cc91364a955565c150c164b3435a0305969a2803489ab6cca77319c3c"}], "txid": "15b0971b61223cbb7a3f3cf0d01bbafffba34df580e7957ec5f92b3073a33cd1", "blocktime": 1537870928, "version": 2, "confirmations": 11512, "time": 1537870928, "locktime": 0, "vsize": 202, "size": 284}