{"hash": "15b38f63f2e15afc80a26ac0172803d66b3037364cd878cd61264b2ebf735b03", "blockhash": "00000000000000000024a2167bbff67b0be802c0b01cdd79e6331c2be6459f87", "vout": [{"scriptPubKey": {"reqSigs": 1, "hex": "76a9143bd2e601a4bd1b07f0b9a39286c74a6306683ae988ac", "addresses": ["16TKWoQRmNHQPZQcCZnDonH247U9ZjGyWv"], "asm": "OP_DUP OP_HASH160 3bd2e601a4bd1b07f0b9a39286c74a6306683ae9 OP_EQUALVERIFY OP_CHECKSIG", "type": "pubkeyhash"}, "value": 0.01461068, "n": 0}, {"scriptPubKey": {"reqSigs": 1, "hex": "a914020646e0f91f58351b20279849397844cf37d00c87", "addresses": ["31sio3yDT7KhMT4JQXZm6ztSpWaNQsXc1j"], "asm": "OP_HASH160 020646e0f91f58351b20279849397844cf37d00c OP_EQUAL", "type": "scripthash"}, "value": 0.023124, "n": 1}], "hex": "0100000001dfebea29b871005ebce2cd2227b4ed65a84761539605e3c00ea99ff16fcf9f8a000000006b483045022100dcf2a37a5d99505a2b28a0d56b61aed1735bca444713e5bc14d29af318e724c102205bfa691765bbcc50e3b8f9dc67ea17b98574bacbedf989358b3ad547a7b926d5012102695682d960e8055578766accb8124f4b62e0ab12c3b656e25e06a81d095b93aeffffffff024c4b1600000000001976a9143bd2e601a4bd1b07f0b9a39286c74a6306683ae988acd04823000000000017a914020646e0f91f58351b20279849397844cf37d00c8700000000", "vin": [{"sequence": 4294967295, "scriptSig": {"hex": "483045022100dcf2a37a5d99505a2b28a0d56b61aed1735bca444713e5bc14d29af318e724c102205bfa691765bbcc50e3b8f9dc67ea17b98574bacbedf989358b3ad547a7b926d5012102695682d960e8055578766accb8124f4b62e0ab12c3b656e25e06a81d095b93ae", "asm": "3045022100dcf2a37a5d99505a2b28a0d56b61aed1735bca444713e5bc14d29af318e724c102205bfa691765bbcc50e3b8f9dc67ea17b98574bacbedf989358b3ad547a7b926d5[ALL] 02695682d960e8055578766accb8124f4b62e0ab12c3b656e25e06a81d095b93ae"}, "vout": 0, "txid": "8a9fcf6ff19fa90ec0e30596536147a865edb42722cde2bc5e0071b829eaebdf"}], "txid": "15b38f63f2e15afc80a26ac0172803d66b3037364cd878cd61264b2ebf735b03", "blocktime": 1537870564, "version": 1, "confirmations": 11515, "time": 1537870564, "locktime": 0, "vsize": 224, "size": 224}