{"hash": "f4405cb1ee30978b5ec240bf9c22ae7a07f5e46e1d0ef5b724e7eddcd14cc013", "blockhash": "000000000000000000022b45ed06c6f4ccd3cf7fb5ba4856ebd2e58215665228", "vout": [{"scriptPubKey": {"reqSigs": 1, "hex": "a914cfaabfe8c271f99a4364b5197ba50c6cddb7adb987", "addresses": ["3Ld4M9RPwEG3VeQbHcC1PsKUndQL7VYLZP"], "asm": "OP_HASH160 cfaabfe8c271f99a4364b5197ba50c6cddb7adb9 OP_EQUAL", "type": "scripthash"}, "value": 0.09776399, "n": 0}, {"scriptPubKey": {"reqSigs": 1, "hex": "a91413038305f6ffe03f30acecb4e0ace468a2c6bb1687", "addresses": ["33RYyCAgxcjJAxLU8e4Gt4EWSHC1T7F1Xo"], "asm": "OP_HASH160 13038305f6ffe03f30acecb4e0ace468a2c6bb16 OP_EQUAL", "type": "scripthash"}, "value": 0.21462049, "n": 1}], "hex": "01000000000101dbe91ba64c2ea1272e672221a64bf21b3d9290ce628c4dffe02bbbf6de7df94e0100000023220020f33e1e27abe1f746adc4daeb500326026481c77e14a40af05bdfd386e5fdfa2affffffff020f2d95000000000017a914cfaabfe8c271f99a4364b5197ba50c6cddb7adb987217c47010000000017a91413038305f6ffe03f30acecb4e0ace468a2c6bb1687040047304402203fba4f6551df93a66768f829cfd4a003e00d2e765073e75ec500f25e738b3c6702205379a4496437eaaa60fc698d96a45a5a7d53be03195c11eb1098330f8f62060b01483045022100891a1d61fd2534216136cc9a1d1d4360b50688f6ac242ee436ba219bec61e34202207f4eecdaafcb99bfb7f48243b5027904fc41b3159564a150a1b371921648a8de0147522102428952fa4396d19a3b997b4fec382509a49c47750c262fd9d4be01e438b8346e21033e4af03ed09dbd8a417ba042650d5bd1db7f14f271a8f660974e3abf1fdfa4da52ae00000000", "vin": [{"txinwitness": ["", "304402203fba4f6551df93a66768f829cfd4a003e00d2e765073e75ec500f25e738b3c6702205379a4496437eaaa60fc698d96a45a5a7d53be03195c11eb1098330f8f62060b01", "3045022100891a1d61fd2534216136cc9a1d1d4360b50688f6ac242ee436ba219bec61e34202207f4eecdaafcb99bfb7f48243b5027904fc41b3159564a150a1b371921648a8de01", "522102428952fa4396d19a3b997b4fec382509a49c47750c262fd9d4be01e438b8346e21033e4af03ed09dbd8a417ba042650d5bd1db7f14f271a8f660974e3abf1fdfa4da52ae"], "sequence": 4294967295, "scriptSig": {"hex": "220020f33e1e27abe1f746adc4daeb500326026481c77e14a40af05bdfd386e5fdfa2a", "asm": "0020f33e1e27abe1f746adc4daeb500326026481c77e14a40af05bdfd386e5fdfa2a"}, "vout": 1, "txid": "4ef97ddef6bb2be0ff4d8c62ce90923d1bf24ba62122672e27a12e4ca61be9db"}], "txid": "15bc2895cf8c1b36d130665f237286cd205ff66dc5bbf08679ad1e82ebbb9201", "blocktime": 1537869901, "version": 1, "confirmations": 11524, "time": 1537869901, "locktime": 0, "vsize": 206, "size": 371}