{"hash": "15bee2d2f7f4e4c8be90bc0e1e7360d20d06a21863cf42841974167fa4e43f3b", "blockhash": "00000000000000000017f5eb5941039fbcee6240d03bc1f2f8e35350df66a1d8", "vout": [{"scriptPubKey": {"reqSigs": 1, "hex": "76a914d243e6abb9a60fbff430b421d2df4b7d59ec186088ac", "addresses": ["1LAnF8h3qMGx3TSwNUHVneBZUEpwE4gu3D"], "asm": "OP_DUP OP_HASH160 d243e6abb9a60fbff430b421d2df4b7d59ec1860 OP_EQUALVERIFY OP_CHECKSIG", "type": "pubkeyhash"}, "value": 0.00077314, "n": 0}, {"scriptPubKey": {"reqSigs": 1, "hex": "76a914e31d460d8350e041c83860179a6c3d80dbfeb0e188ac", "addresses": ["1MhsTWorHU5MDCgr9ZA8cYL1zbfjM6QoC5"], "asm": "OP_DUP OP_HASH160 e31d460d8350e041c83860179a6c3d80dbfeb0e1 OP_EQUALVERIFY OP_CHECKSIG", "type": "pubkeyhash"}, "value": 5.46e-06, "n": 1}, {"scriptPubKey": {"type": "nulldata", "hex": "6a146f6d6e69000000000000001f0000004d802acb50", "asm": "OP_RETURN 6f6d6e69000000000000001f0000004d802acb50"}, "value": 0.0, "n": 2}], "hex": "01000000010be90e47adca7c9a92d417b76e6aa296b5294bb13b1c38f3a0185ede04ee3633000000006a473044022060dbbfc489aa3f87e419ae214b9b418e7584f5329e7ead902349164196fcd2590220188dfb1d19f1fc1b514a29cff8b647669fd4f6357b7b6456222cd363a746e1ca01210271977291b74f1f5f5c42157e8aae804664eaaeccfd097918450d37f28fb94d77ffffffff03022e0100000000001976a914d243e6abb9a60fbff430b421d2df4b7d59ec186088ac22020000000000001976a914e31d460d8350e041c83860179a6c3d80dbfeb0e188ac0000000000000000166a146f6d6e69000000000000001f0000004d802acb5000000000", "vin": [{"sequence": 4294967295, "scriptSig": {"hex": "473044022060dbbfc489aa3f87e419ae214b9b418e7584f5329e7ead902349164196fcd2590220188dfb1d19f1fc1b514a29cff8b647669fd4f6357b7b6456222cd363a746e1ca01210271977291b74f1f5f5c42157e8aae804664eaaeccfd097918450d37f28fb94d77", "asm": "3044022060dbbfc489aa3f87e419ae214b9b418e7584f5329e7ead902349164196fcd2590220188dfb1d19f1fc1b514a29cff8b647669fd4f6357b7b6456222cd363a746e1ca[ALL] 0271977291b74f1f5f5c42157e8aae804664eaaeccfd097918450d37f28fb94d77"}, "vout": 0, "txid": "3336ee04de5e18a0f3381c3bb14b29b596a26a6eb717d4929a7ccaad470ee90b"}], "txid": "15bee2d2f7f4e4c8be90bc0e1e7360d20d06a21863cf42841974167fa4e43f3b", "blocktime": 1537874412, "version": 1, "confirmations": 11467, "time": 1537874412, "locktime": 0, "vsize": 256, "size": 256}