{"hash": "94a63ef253d3f8d46f59167cc21cf8d42e1b9d04c69c8c9712362e114f862c31", "blockhash": "0000000000000000000e13cef7c366c0283d82e591d1acd082e914b08063cdf1", "vout": [{"scriptPubKey": {"reqSigs": 1, "hex": "a91430897cc6c9d69f6a2c2f1c651d51f22219f1a4f687", "addresses": ["367f4YWz1VCFaqBqwbTrzwi2b1h2U3w1AF"], "asm": "OP_HASH160 30897cc6c9d69f6a2c2f1c651d51f22219f1a4f6 OP_EQUAL", "type": "scripthash"}, "value": 0.23634891, "n": 0}, {"scriptPubKey": {"reqSigs": 1, "hex": "76a9141b40f88d313729616aaea39b8d6432e3dd33040588ac", "addresses": ["13V75SM57dYAJBgbnVFTtpvrdZd7a1rEWM"], "asm": "OP_DUP OP_HASH160 1b40f88d313729616aaea39b8d6432e3dd330405 OP_EQUALVERIFY OP_CHECKSIG", "type": "pubkeyhash"}, "value": 0.06785345, "n": 1}], "hex": "010000000001014b69a64b53a618d73b2fcc99d17fd901713edc992609a3b712a77cd1599fb21d0000000023220020bcf9f822194145acea0f3235f4107b5bf1a91b6b9f8489f63bf79ec29b360913ffffffff02cba368010000000017a91430897cc6c9d69f6a2c2f1c651d51f22219f1a4f68741896700000000001976a9141b40f88d313729616aaea39b8d6432e3dd33040588ac0400483045022100cd329c08d56290113c736ec81f3e99546737be42ab279d78bf77c888d24050820220681bfe7b1531e6ce8a00f3ec77a2bdb0ddac4f46b54b9de87056514d097839f801473044022023517fa933ab15f5f2d431fe40ef54c6997fbb970dc077e53a278f023d037d5502207b93cc79acd15895bb737bdda73447bd1de9b48d065ab7da465496b16ccdcc8301695221026c8f72b9e63db63907115e65d4da86eaae595b22fdc85ec75301bb4adbf203582103806535be3e3920e5eedee92de5714188fd6a784f2bf7b04f87de0b9c3ae1ecdb21024b23bfdce2afcae7e28c42f7f79aa100f22931712c52d7414a526ba494d44a2553ae00000000", "vin": [{"txinwitness": ["", "3045022100cd329c08d56290113c736ec81f3e99546737be42ab279d78bf77c888d24050820220681bfe7b1531e6ce8a00f3ec77a2bdb0ddac4f46b54b9de87056514d097839f801", "3044022023517fa933ab15f5f2d431fe40ef54c6997fbb970dc077e53a278f023d037d5502207b93cc79acd15895bb737bdda73447bd1de9b48d065ab7da465496b16ccdcc8301", "5221026c8f72b9e63db63907115e65d4da86eaae595b22fdc85ec75301bb4adbf203582103806535be3e3920e5eedee92de5714188fd6a784f2bf7b04f87de0b9c3ae1ecdb21024b23bfdce2afcae7e28c42f7f79aa100f22931712c52d7414a526ba494d44a2553ae"], "sequence": 4294967295, "scriptSig": {"hex": "220020bcf9f822194145acea0f3235f4107b5bf1a91b6b9f8489f63bf79ec29b360913", "asm": "0020bcf9f822194145acea0f3235f4107b5bf1a91b6b9f8489f63bf79ec29b360913"}, "vout": 0, "txid": "1db29f59d17ca712b7a3092699dc3e7101d97fd199cc2f3bd718a6534ba6694b"}], "txid": "15c6f089f046c83f3002a27bfaf571d3753433b8bf7373598baec89603a051a5", "blocktime": 1537871767, "version": 1, "confirmations": 11493, "time": 1537871767, "locktime": 0, "vsize": 216, "size": 407}