{"hash": "15c7f32bd8b8805fcc50f3e9f4fb2fb7bb6269ded0184ef391e8c63252d83e57", "blockhash": "00000000000000000017f5eb5941039fbcee6240d03bc1f2f8e35350df66a1d8", "vout": [{"scriptPubKey": {"reqSigs": 1, "hex": "76a9146fbef55e448c2e5b21f7f0f93a1e36c6d54c0c6b88ac", "addresses": ["1BBrmKaLAsHM4DgdkQ8HuRjFEs67tQFumQ"], "asm": "OP_DUP OP_HASH160 6fbef55e448c2e5b21f7f0f93a1e36c6d54c0c6b OP_EQUALVERIFY OP_CHECKSIG", "type": "pubkeyhash"}, "value": 0.01784849, "n": 0}], "hex": "0200000001592bff1e8fe203696d3fb8a6631d3b4871a4194f15f235d8bcbdb3adb2efdbfb000000008a4730440220695adb5f1386c620b777f223b3046c9c1715e7eb78c9274639f02387fd7eab3002204853e581ddead6cc389f4a0d558ee2832e312cf94de35a68a55cb775f1527cea0141043ebfd3984141bcb2c94fdd23adc0e3ebf4628a59466785177d2d486e33c3bfbb1f5a971a85718c0b4ba9ae59cb0bd0974d97037762012ee8d66999b25abe4b97ffffffff01113c1b00000000001976a9146fbef55e448c2e5b21f7f0f93a1e36c6d54c0c6b88ac00000000", "vin": [{"sequence": 4294967295, "scriptSig": {"hex": "4730440220695adb5f1386c620b777f223b3046c9c1715e7eb78c9274639f02387fd7eab3002204853e581ddead6cc389f4a0d558ee2832e312cf94de35a68a55cb775f1527cea0141043ebfd3984141bcb2c94fdd23adc0e3ebf4628a59466785177d2d486e33c3bfbb1f5a971a85718c0b4ba9ae59cb0bd0974d97037762012ee8d66999b25abe4b97", "asm": "30440220695adb5f1386c620b777f223b3046c9c1715e7eb78c9274639f02387fd7eab3002204853e581ddead6cc389f4a0d558ee2832e312cf94de35a68a55cb775f1527cea[ALL] 043ebfd3984141bcb2c94fdd23adc0e3ebf4628a59466785177d2d486e33c3bfbb1f5a971a85718c0b4ba9ae59cb0bd0974d97037762012ee8d66999b25abe4b97"}, "vout": 0, "txid": "fbdbefb2adb3bdbcd835f2154f19a471483b1d63a6b83f6d6903e28f1eff2b59"}], "txid": "15c7f32bd8b8805fcc50f3e9f4fb2fb7bb6269ded0184ef391e8c63252d83e57", "blocktime": 1537874412, "version": 2, "confirmations": 11467, "time": 1537874412, "locktime": 0, "vsize": 223, "size": 223}