{"hash": "15c940e457eaa6568dd4d57ce8bd372b396237dd8854ceb4e64d46c70e0b7df9", "blockhash": "0000000000000000001e0dab787dd257d1dbfcb92a98c2207d5e1078be1f4165", "vout": [{"scriptPubKey": {"reqSigs": 1, "hex": "76a914964d1a8fd3f251af1bebe62ca69986dd532d698188ac", "addresses": ["1Ehij3BFCA7c244nqBabgZPTxSeS8knPiV"], "asm": "OP_DUP OP_HASH160 964d1a8fd3f251af1bebe62ca69986dd532d6981 OP_EQUALVERIFY OP_CHECKSIG", "type": "pubkeyhash"}, "value": 3.292e-05, "n": 0}, {"scriptPubKey": {"type": "nulldata", "hex": "6a146f6d6e69000000000000001f0000000005f5e100", "asm": "OP_RETURN 6f6d6e69000000000000001f0000000005f5e100"}, "value": 0.0, "n": 1}, {"scriptPubKey": {"reqSigs": 1, "hex": "76a914964d1a8fd3f251af1bebe62ca69986dd532d698188ac", "addresses": ["1Ehij3BFCA7c244nqBabgZPTxSeS8knPiV"], "asm": "OP_DUP OP_HASH160 964d1a8fd3f251af1bebe62ca69986dd532d6981 OP_EQUALVERIFY OP_CHECKSIG", "type": "pubkeyhash"}, "value": 5.46e-06, "n": 2}], "hex": "0100000001eb30e82ae033c41246549afb99282e6c48f67ed169aa004ef9a0dabbea22b446020000006a47304402200c37ea96563f22965a75cce90fe718e73c20ff9fc3ab55d8fecbf97f76a40ee102201f426d9fb2e0efb20a02284fcf47a588ddce5e26b472cc083e9b1e2f706e98df012103e69291c6312075f4ec208d9461557178cf680f009abc681c01c2099699a5888e0000000003dc0c0000000000001976a914964d1a8fd3f251af1bebe62ca69986dd532d698188ac0000000000000000166a146f6d6e69000000000000001f0000000005f5e10022020000000000001976a914964d1a8fd3f251af1bebe62ca69986dd532d698188ac00000000", "vin": [{"sequence": 0, "scriptSig": {"hex": "47304402200c37ea96563f22965a75cce90fe718e73c20ff9fc3ab55d8fecbf97f76a40ee102201f426d9fb2e0efb20a02284fcf47a588ddce5e26b472cc083e9b1e2f706e98df012103e69291c6312075f4ec208d9461557178cf680f009abc681c01c2099699a5888e", "asm": "304402200c37ea96563f22965a75cce90fe718e73c20ff9fc3ab55d8fecbf97f76a40ee102201f426d9fb2e0efb20a02284fcf47a588ddce5e26b472cc083e9b1e2f706e98df[ALL] 03e69291c6312075f4ec208d9461557178cf680f009abc681c01c2099699a5888e"}, "vout": 2, "txid": "46b422eabbdaa0f94e00aa69d17ef6486c2e2899fb9a544612c433e02ae830eb"}], "txid": "15c940e457eaa6568dd4d57ce8bd372b396237dd8854ceb4e64d46c70e0b7df9", "blocktime": 1537872475, "version": 1, "confirmations": 11486, "time": 1537872475, "locktime": 0, "vsize": 256, "size": 256}