{"hash": "15ca57438ab48dee9b6b3c15a78b125a828bb855192b7cd38d48e268e1a47df0", "blockhash": "0000000000000000000baef3f32e3676a92c3b2e5da21b426e4f302fc371ce76", "vout": [{"scriptPubKey": {"reqSigs": 1, "hex": "76a9144fa825b86a0b686e20c7ba14c42a1299ee5012db88ac", "addresses": ["18GBpEk9iVLww5ib3Wg2N77g9VXShEUx58"], "asm": "OP_DUP OP_HASH160 4fa825b86a0b686e20c7ba14c42a1299ee5012db OP_EQUALVERIFY OP_CHECKSIG", "type": "pubkeyhash"}, "value": 0.01376944, "n": 0}, {"scriptPubKey": {"type": "nulldata", "hex": "6a4c50000078170001531c8e40a2822957b3f09510019d6ddc0f1b8ff117702940d64fa54d8eb2031b266e538dfbecd6ca0bb3b5322d665baa1c1b0615bbafbaed871fbc9a9526289ac0f6612cd74e33776ee4", "asm": "OP_RETURN 000078170001531c8e40a2822957b3f09510019d6ddc0f1b8ff117702940d64fa54d8eb2031b266e538dfbecd6ca0bb3b5322d665baa1c1b0615bbafbaed871fbc9a9526289ac0f6612cd74e33776ee4"}, "value": 0.0, "n": 1}], "hex": "01000000013bc5d74046a3878c7cf16411a69e4bb1c14e524ecb303b96218532f2d5b54caf000000006a473044022038ab23d623d093ec7c9eeb4dc072931f2afbe24f1bd87bcddaeffbec7e72ecc4022077cb22281e4527a48f951724f6633489cf86e968291da06b447d5d828894e3060121033899a89e3ccde215520bfa9c29e4cb45da6b750f99c5b81296ea326b9c9a30f7ffffffff02b0021500000000001976a9144fa825b86a0b686e20c7ba14c42a1299ee5012db88ac0000000000000000536a4c50000078170001531c8e40a2822957b3f09510019d6ddc0f1b8ff117702940d64fa54d8eb2031b266e538dfbecd6ca0bb3b5322d665baa1c1b0615bbafbaed871fbc9a9526289ac0f6612cd74e33776ee400000000", "vin": [{"sequence": 4294967295, "scriptSig": {"hex": "473044022038ab23d623d093ec7c9eeb4dc072931f2afbe24f1bd87bcddaeffbec7e72ecc4022077cb22281e4527a48f951724f6633489cf86e968291da06b447d5d828894e3060121033899a89e3ccde215520bfa9c29e4cb45da6b750f99c5b81296ea326b9c9a30f7", "asm": "3044022038ab23d623d093ec7c9eeb4dc072931f2afbe24f1bd87bcddaeffbec7e72ecc4022077cb22281e4527a48f951724f6633489cf86e968291da06b447d5d828894e306[ALL] 033899a89e3ccde215520bfa9c29e4cb45da6b750f99c5b81296ea326b9c9a30f7"}, "vout": 0, "txid": "af4cb5d5f2328521963b30cb4e524ec1b14b9ea61164f17c8c87a34640d7c53b"}], "txid": "15ca57438ab48dee9b6b3c15a78b125a828bb855192b7cd38d48e268e1a47df0", "blocktime": 1537876114, "version": 1, "confirmations": 11460, "time": 1537876114, "locktime": 0, "vsize": 283, "size": 283}