{"hash": "15d0290eb70e92a6fffeb97a186e61218cd522a9f22fabbe6db70cb8e42099e8", "blockhash": "0000000000000000000baef3f32e3676a92c3b2e5da21b426e4f302fc371ce76", "vout": [{"scriptPubKey": {"reqSigs": 1, "hex": "a91430897cc6c9d69f6a2c2f1c651d51f22219f1a4f687", "addresses": ["367f4YWz1VCFaqBqwbTrzwi2b1h2U3w1AF"], "asm": "OP_HASH160 30897cc6c9d69f6a2c2f1c651d51f22219f1a4f6 OP_EQUAL", "type": "scripthash"}, "value": 0.00796064, "n": 0}, {"scriptPubKey": {"reqSigs": 1, "hex": "a91469f374c8579b7a7dc4560ff2aba0fe3c1c60ac3487", "addresses": ["3BMEXKQ5iT1j5gjADJJKJaZvqqXbE3fFtF"], "asm": "OP_HASH160 69f374c8579b7a7dc4560ff2aba0fe3c1c60ac34 OP_EQUAL", "type": "scripthash"}, "value": 0.03176724, "n": 1}], "hex": "0100000001463b7f4d46d185553a39c2103a39cfef2703defa31717b71ab98fad58f6a29c1010000006a473044022054b500ddfced37475466d1a7fd435b4639da8c344632666975d9ba01d39b5218022035975872caba32570dc7b6c520313216f15b210b77e3a0cfb30dfc973a57de0b0121029b466cc951d94da68a56fe83459f22b0a759413ddaf95b227a5f23cda7b46fa1ffffffff02a0250c000000000017a91430897cc6c9d69f6a2c2f1c651d51f22219f1a4f687147930000000000017a91469f374c8579b7a7dc4560ff2aba0fe3c1c60ac348700000000", "vin": [{"sequence": 4294967295, "scriptSig": {"hex": "473044022054b500ddfced37475466d1a7fd435b4639da8c344632666975d9ba01d39b5218022035975872caba32570dc7b6c520313216f15b210b77e3a0cfb30dfc973a57de0b0121029b466cc951d94da68a56fe83459f22b0a759413ddaf95b227a5f23cda7b46fa1", "asm": "3044022054b500ddfced37475466d1a7fd435b4639da8c344632666975d9ba01d39b5218022035975872caba32570dc7b6c520313216f15b210b77e3a0cfb30dfc973a57de0b[ALL] 029b466cc951d94da68a56fe83459f22b0a759413ddaf95b227a5f23cda7b46fa1"}, "vout": 1, "txid": "c1296a8fd5fa98ab717b7131fade0327efcf393a10c2393a5585d1464d7f3b46"}], "txid": "15d0290eb70e92a6fffeb97a186e61218cd522a9f22fabbe6db70cb8e42099e8", "blocktime": 1537876114, "version": 1, "confirmations": 11460, "time": 1537876114, "locktime": 0, "vsize": 221, "size": 221}