{"hash": "15d5c6a63512a1bf71ef84dc10596fee853ed5a43daaa95ee96f005733bdc1bb", "blockhash": "00000000000000000024a2167bbff67b0be802c0b01cdd79e6331c2be6459f87", "vout": [{"scriptPubKey": {"reqSigs": 1, "hex": "a91437cce16885483f94ccef87510ef4b61ed98b3b2887", "addresses": ["36n4XSYUJH8xpEyLiFkz22qtPUqeeooi59"], "asm": "OP_HASH160 37cce16885483f94ccef87510ef4b61ed98b3b28 OP_EQUAL", "type": "scripthash"}, "value": 1e-05, "n": 0}], "hex": "0100000001f4a14d535f65c9bfbc60d03933ffae255ac81e54b9925f933bd95b1e87ebebda000000006b483045022100a15d09da9fcdbf093c927e41246a60673b341a36a927e021995d7f1b3b29c01402203bbe149b12d4bbb5e23d91458049c9d55a887dfa4ee976fd4faf5b75a35823de0121034a8e5402a42aac53f53281de11e27bc8b6d8a7b68eb894231984770ac5ae0105ffffffff01e80300000000000017a91437cce16885483f94ccef87510ef4b61ed98b3b288700000000", "vin": [{"sequence": 4294967295, "scriptSig": {"hex": "483045022100a15d09da9fcdbf093c927e41246a60673b341a36a927e021995d7f1b3b29c01402203bbe149b12d4bbb5e23d91458049c9d55a887dfa4ee976fd4faf5b75a35823de0121034a8e5402a42aac53f53281de11e27bc8b6d8a7b68eb894231984770ac5ae0105", "asm": "3045022100a15d09da9fcdbf093c927e41246a60673b341a36a927e021995d7f1b3b29c01402203bbe149b12d4bbb5e23d91458049c9d55a887dfa4ee976fd4faf5b75a35823de[ALL] 034a8e5402a42aac53f53281de11e27bc8b6d8a7b68eb894231984770ac5ae0105"}, "vout": 0, "txid": "daebeb871e5bd93b935f92b9541ec85a25aeff3339d060bcbfc9655f534da1f4"}], "txid": "15d5c6a63512a1bf71ef84dc10596fee853ed5a43daaa95ee96f005733bdc1bb", "blocktime": 1537870564, "version": 1, "confirmations": 11515, "time": 1537870564, "locktime": 0, "vsize": 190, "size": 190}