{"hash": "15d50f1331466fc5638bf49af9b70137da8d16b5bcaf8e40e70f9e56217bbfe7", "blockhash": "0000000000000000001cda96e906b7601b7a6fb1a3b62bca570a9e5d8f4b3de1", "vout": [{"scriptPubKey": {"reqSigs": 1, "hex": "76a9141cde5dbbdf2cb563ddba8215c5399d12893cb8ed88ac", "addresses": ["13deJeEw3VncdqdC2g8j4vfUVAisCAxv2D"], "asm": "OP_DUP OP_HASH160 1cde5dbbdf2cb563ddba8215c5399d12893cb8ed OP_EQUALVERIFY OP_CHECKSIG", "type": "pubkeyhash"}, "value": 0.00638316, "n": 0}, {"scriptPubKey": {"reqSigs": 1, "hex": "76a914ef8c80840de51912402c955529e542c96796882b88ac", "addresses": ["1Nqcp6ik4GS7ZKvbQZHDB6V9fbFmLd8wcQ"], "asm": "OP_DUP OP_HASH160 ef8c80840de51912402c955529e542c96796882b OP_EQUALVERIFY OP_CHECKSIG", "type": "pubkeyhash"}, "value": 0.00875048, "n": 1}], "hex": "01000000015aa1eb358aa615dfd76fdab2bd8e50713ac8c1051279694cd22638000937270c000000006a473044022058efdd898a976ea3a56f23119fda6e83f742504a6ad28fd076d7b49b3b671fb4022038b405e2f692a39c7406beef980aadd5f24e635c9abaed02ff5476231c3510a2012102fb8b522f3fc0b05f0ffa600841d19aa910682a3c269794c78ed979452ab2a429ffffffff026cbd0900000000001976a9141cde5dbbdf2cb563ddba8215c5399d12893cb8ed88ac285a0d00000000001976a914ef8c80840de51912402c955529e542c96796882b88ac00000000", "vin": [{"sequence": 4294967295, "scriptSig": {"hex": "473044022058efdd898a976ea3a56f23119fda6e83f742504a6ad28fd076d7b49b3b671fb4022038b405e2f692a39c7406beef980aadd5f24e635c9abaed02ff5476231c3510a2012102fb8b522f3fc0b05f0ffa600841d19aa910682a3c269794c78ed979452ab2a429", "asm": "3044022058efdd898a976ea3a56f23119fda6e83f742504a6ad28fd076d7b49b3b671fb4022038b405e2f692a39c7406beef980aadd5f24e635c9abaed02ff5476231c3510a2[ALL] 02fb8b522f3fc0b05f0ffa600841d19aa910682a3c269794c78ed979452ab2a429"}, "vout": 0, "txid": "0c273709003826d24c69791205c1c83a71508ebdb2da6fd7df15a68a35eba15a"}], "txid": "15d50f1331466fc5638bf49af9b70137da8d16b5bcaf8e40e70f9e56217bbfe7", "blocktime": 1537873282, "version": 1, "confirmations": 11480, "time": 1537873282, "locktime": 0, "vsize": 225, "size": 225}