{"hash": "15da11e1674139b7daf357e20b52261ef89395301cda749b0b18db31ba0a4cb8", "blockhash": "0000000000000000000dcc0f55137456b1a82d3642486a52398922ac4d620174", "vout": [{"scriptPubKey": {"reqSigs": 1, "hex": "76a914d08726f992814d8183f9c100be9e98e25392d81888ac", "addresses": ["1L1bTSiYVdJkBtVuP2sEQXcf4CRsa1fEy8"], "asm": "OP_DUP OP_HASH160 d08726f992814d8183f9c100be9e98e25392d818 OP_EQUALVERIFY OP_CHECKSIG", "type": "pubkeyhash"}, "value": 0.01562, "n": 0}, {"scriptPubKey": {"reqSigs": 1, "hex": "76a9148896d9cc5db1d4e88c543c704b84d90198ca41cc88ac", "addresses": ["1DTDcPJV4J5L2eVvt1Ht3kcbBDBoMEA2Kj"], "asm": "OP_DUP OP_HASH160 8896d9cc5db1d4e88c543c704b84d90198ca41cc OP_EQUALVERIFY OP_CHECKSIG", "type": "pubkeyhash"}, "value": 0.00505127, "n": 1}], "hex": "01000000015439419adde16dae8e549223b29e7d89e6d8ff862eb459a33c9e99e80cf163b4010000006a47304402207bb2328cfd10a1e5cf38705a1d91adbe7ea775e08e9644b6fc8fbca4370b3e8502205313b9639a9d8d0549810d9f46498eefa72214ba6e1a883cf148ad09be20157b012102224a1455feed710765811a5be593cd6761d5ca507a8f39e383c30e412c249ce2ffffffff0290d51700000000001976a914d08726f992814d8183f9c100be9e98e25392d81888ac27b50700000000001976a9148896d9cc5db1d4e88c543c704b84d90198ca41cc88ac00000000", "vin": [{"sequence": 4294967295, "scriptSig": {"hex": "47304402207bb2328cfd10a1e5cf38705a1d91adbe7ea775e08e9644b6fc8fbca4370b3e8502205313b9639a9d8d0549810d9f46498eefa72214ba6e1a883cf148ad09be20157b012102224a1455feed710765811a5be593cd6761d5ca507a8f39e383c30e412c249ce2", "asm": "304402207bb2328cfd10a1e5cf38705a1d91adbe7ea775e08e9644b6fc8fbca4370b3e8502205313b9639a9d8d0549810d9f46498eefa72214ba6e1a883cf148ad09be20157b[ALL] 02224a1455feed710765811a5be593cd6761d5ca507a8f39e383c30e412c249ce2"}, "vout": 1, "txid": "b463f10ce8999e3ca359b42e86ffd8e6897d9eb22392548eae6de1dd9a413954"}], "txid": "15da11e1674139b7daf357e20b52261ef89395301cda749b0b18db31ba0a4cb8", "blocktime": 1537870268, "version": 1, "confirmations": 11518, "time": 1537870268, "locktime": 0, "vsize": 225, "size": 225}