{"hash": "15dc9d7502ad14ac8ed90b417f95dd534f39dea1e5b46e3514794cf538f2347a", "blockhash": "0000000000000000000dcc0f55137456b1a82d3642486a52398922ac4d620174", "vout": [{"scriptPubKey": {"reqSigs": 1, "hex": "a914a7ab887fc76496749b465f2dde9eff69125a031887", "addresses": ["3GyaFv2dgWEkR8Eii34RXnfz8oZoQdCi3h"], "asm": "OP_HASH160 a7ab887fc76496749b465f2dde9eff69125a0318 OP_EQUAL", "type": "scripthash"}, "value": 0.00731, "n": 0}, {"scriptPubKey": {"reqSigs": 1, "hex": "a9147e87809def6a9239c586a87fea51eaf7c19ca03187", "addresses": ["3DE3PazX4FPBCWVRLKEowYYUCKziXrhGj4"], "asm": "OP_HASH160 7e87809def6a9239c586a87fea51eaf7c19ca031 OP_EQUAL", "type": "scripthash"}, "value": 0.04571, "n": 1}, {"scriptPubKey": {"reqSigs": 1, "hex": "a9142c63f0d3530067e988f146e195ad1d7593e7719f87", "addresses": ["35jjNzESYoh1uvNGEoBgU2NoF3rKzizjFB"], "asm": "OP_HASH160 2c63f0d3530067e988f146e195ad1d7593e7719f OP_EQUAL", "type": "scripthash"}, "value": 1.81961957, "n": 2}], "hex": "0100000001624f9fed759747e8ce57f80799dc15fa208117ba1d643d14f43953cc4d97ff8a02000000fdfe0000483045022100ef572eaabf9aaaa05f601abf84883ab724ee75faf978823329585b1ea3c13c690220702b77c24802273ae8e73ea674455e70f8a5e301db2fb8f7a5823aaa72d495f301483045022100dfc418a00aadf1c8cc2e069a6d20d89adc1576b679d460c0bea23a0b1f3a046402207cb32c7767813a42b833ede963b1866b66f77454f40e3a2ec779f3e0edbde705014c6952210263ad8843af61fc93259c1eb28a3e8ed0b081f6bcb59fe03421f3c6cc780ea2c2210271c5018c5c09a8ed174a51f72707c57b8e0c68f812d2502392f5ae9c5542c27f2103c9d7eb159daa9d8cf5ad7eee1ec1997163cd1928aeccfd330937381a1a3926dd53aefdffffff0378270b000000000017a914a7ab887fc76496749b465f2dde9eff69125a03188778bf45000000000017a9147e87809def6a9239c586a87fea51eaf7c19ca03187e584d80a0000000017a9142c63f0d3530067e988f146e195ad1d7593e7719f870c490800", "vin": [{"sequence": 4294967293, "scriptSig": {"hex": "00483045022100ef572eaabf9aaaa05f601abf84883ab724ee75faf978823329585b1ea3c13c690220702b77c24802273ae8e73ea674455e70f8a5e301db2fb8f7a5823aaa72d495f301483045022100dfc418a00aadf1c8cc2e069a6d20d89adc1576b679d460c0bea23a0b1f3a046402207cb32c7767813a42b833ede963b1866b66f77454f40e3a2ec779f3e0edbde705014c6952210263ad8843af61fc93259c1eb28a3e8ed0b081f6bcb59fe03421f3c6cc780ea2c2210271c5018c5c09a8ed174a51f72707c57b8e0c68f812d2502392f5ae9c5542c27f2103c9d7eb159daa9d8cf5ad7eee1ec1997163cd1928aeccfd330937381a1a3926dd53ae", "asm": "0 3045022100ef572eaabf9aaaa05f601abf84883ab724ee75faf978823329585b1ea3c13c690220702b77c24802273ae8e73ea674455e70f8a5e301db2fb8f7a5823aaa72d495f3[ALL] 3045022100dfc418a00aadf1c8cc2e069a6d20d89adc1576b679d460c0bea23a0b1f3a046402207cb32c7767813a42b833ede963b1866b66f77454f40e3a2ec779f3e0edbde705[ALL] 52210263ad8843af61fc93259c1eb28a3e8ed0b081f6bcb59fe03421f3c6cc780ea2c2210271c5018c5c09a8ed174a51f72707c57b8e0c68f812d2502392f5ae9c5542c27f2103c9d7eb159daa9d8cf5ad7eee1ec1997163cd1928aeccfd330937381a1a3926dd53ae"}, "vout": 2, "txid": "8aff974dcc5339f4143d641dba178120fa15dc9907f857cee8479775ed9f4f62"}], "txid": "15dc9d7502ad14ac8ed90b417f95dd534f39dea1e5b46e3514794cf538f2347a", "blocktime": 1537870268, "version": 1, "confirmations": 11520, "time": 1537870268, "locktime": 542988, "vsize": 403, "size": 403}