{"hash": "31057692b474c76cb98422e2aa67d3a3f5fb90816402c7c6d222bcd850dfad55", "blockhash": "0000000000000000001f76057863aec43deb6fa401d9628bb513d65a8098bfab", "vout": [{"scriptPubKey": {"reqSigs": 1, "hex": "00141a7ed1154b6503bd763d8b338922093d2dbe1247", "addresses": ["bc1qrfldz92tv5pm6a3a3vecjgsf85kmuyj8apadd4"], "asm": "0 1a7ed1154b6503bd763d8b338922093d2dbe1247", "type": "witness_v0_keyhash"}, "value": 0.75931039, "n": 0}, {"scriptPubKey": {"reqSigs": 1, "hex": "a914f2411948b13f1cb1c8ce1a9c35bc405e4854b8be87", "addresses": ["3PmwS7EMY7RsRmnJz968ssRLfLVhCz9xBL"], "asm": "OP_HASH160 f2411948b13f1cb1c8ce1a9c35bc405e4854b8be OP_EQUAL", "type": "scripthash"}, "value": 0.02184, "n": 1}], "hex": "01000000000101fdb51ef2b9c65283c3f3b71e8bc5459a78ce67f5c86715462cb3924e3e8ef35001000000171600141f8a6534cb64ae39b07a7358f15123b29752ef72ffffffff029f9d8604000000001600141a7ed1154b6503bd763d8b338922093d2dbe1247405321000000000017a914f2411948b13f1cb1c8ce1a9c35bc405e4854b8be8702473044022051f56a2aeb394c2f1036b14f491c8ccd66e8cb4c56b4ae730c4946bb1a249f2b0220725aaa3692c76852f32fa0ccfba495576f2397431db1440f0347faba8ceb2df10121028193001f27cf4357e969b53b8630fab8b6037541c200630f26c233951406834d00000000", "vin": [{"txinwitness": ["3044022051f56a2aeb394c2f1036b14f491c8ccd66e8cb4c56b4ae730c4946bb1a249f2b0220725aaa3692c76852f32fa0ccfba495576f2397431db1440f0347faba8ceb2df101", "028193001f27cf4357e969b53b8630fab8b6037541c200630f26c233951406834d"], "sequence": 4294967295, "scriptSig": {"hex": "1600141f8a6534cb64ae39b07a7358f15123b29752ef72", "asm": "00141f8a6534cb64ae39b07a7358f15123b29752ef72"}, "vout": 1, "txid": "50f38e3e4e92b32c461567c8f567ce789a45c58b1eb7f3c38352c6b9f21eb5fd"}], "txid": "15df98ea87d24edd1f77f64c81457053b03ceb815dab79590735919f3e165f6d", "blocktime": 1537873891, "version": 1, "confirmations": 11478, "time": 1537873891, "locktime": 0, "vsize": 165, "size": 246}