{"hash": "15e117b59736eb9a74000b4e7a214d6d16f943abc5a9d6e3630f8675c143ea34", "blockhash": "00000000000000000004ffacab907a6b429b9a5745fa0b75af4234bf69dd7176", "vout": [{"scriptPubKey": {"reqSigs": 1, "hex": "a91496e30fffebc857cdfede58f038047d2d929fb06787", "addresses": ["3FSqHtzpb7kgbB3f49NiaLeibV8BgWfRvv"], "asm": "OP_HASH160 96e30fffebc857cdfede58f038047d2d929fb067 OP_EQUAL", "type": "scripthash"}, "value": 0.0007818, "n": 0}, {"scriptPubKey": {"reqSigs": 1, "hex": "76a914a5f0b2f4a44327e7ba6b929ec6c486673cdea92288ac", "addresses": ["1G8QqiTtM2HWmZZqaCJWCxbVM7zUf8epD2"], "asm": "OP_DUP OP_HASH160 a5f0b2f4a44327e7ba6b929ec6c486673cdea922 OP_EQUALVERIFY OP_CHECKSIG", "type": "pubkeyhash"}, "value": 0.01046029, "n": 1}], "hex": "0100000001264bc28ae7ee06836c0f9e4403588e44bce05811b1354174916b7a75cb71cbef010000006a47304402206b7ebb0369090c2c43a4df8e7c768c707a71f8c6e153a7a3fc5dfbf9a47d49f9022001b8dfa8e4289e61af7831d46f145b4739bf68fd212fe8990d0c0b45710a8cda012102b5427ee4ecc410cfa3a430ddad173a8f8fde678f2b03e06fe00f39ab1c58a039ffffffff02643101000000000017a91496e30fffebc857cdfede58f038047d2d929fb067870df60f00000000001976a914a5f0b2f4a44327e7ba6b929ec6c486673cdea92288ac00000000", "vin": [{"sequence": 4294967295, "scriptSig": {"hex": "47304402206b7ebb0369090c2c43a4df8e7c768c707a71f8c6e153a7a3fc5dfbf9a47d49f9022001b8dfa8e4289e61af7831d46f145b4739bf68fd212fe8990d0c0b45710a8cda012102b5427ee4ecc410cfa3a430ddad173a8f8fde678f2b03e06fe00f39ab1c58a039", "asm": "304402206b7ebb0369090c2c43a4df8e7c768c707a71f8c6e153a7a3fc5dfbf9a47d49f9022001b8dfa8e4289e61af7831d46f145b4739bf68fd212fe8990d0c0b45710a8cda[ALL] 02b5427ee4ecc410cfa3a430ddad173a8f8fde678f2b03e06fe00f39ab1c58a039"}, "vout": 1, "txid": "efcb71cb757a6b91744135b11158e0bc448e5803449e0f6c8306eee78ac24b26"}], "txid": "15e117b59736eb9a74000b4e7a214d6d16f943abc5a9d6e3630f8675c143ea34", "blocktime": 1537875543, "version": 1, "confirmations": 11464, "time": 1537875543, "locktime": 0, "vsize": 223, "size": 223}