{"hash": "15e70359c4593a3e88eba5748d43ffc69024ade72d75fce907609c4f2c61ab17", "blockhash": "00000000000000000018f53835495a110e01622372bf6ae95dc86f2b0ab887b0", "vout": [{"scriptPubKey": {"type": "nulldata", "hex": "6a4c500000778b0001ff92ec952c90c61a89457c40e3ef3236678a625097bcbefa6b8351586b4ef91c4b25dab5f9ade75bb888c7948e425baa0bed06142d45a2d56b27bc9a9526289ac0f6612cd74e33776ee4", "asm": "OP_RETURN 0000778b0001ff92ec952c90c61a89457c40e3ef3236678a625097bcbefa6b8351586b4ef91c4b25dab5f9ade75bb888c7948e425baa0bed06142d45a2d56b27bc9a9526289ac0f6612cd74e33776ee4"}, "value": 0.0, "n": 0}, {"scriptPubKey": {"reqSigs": 1, "hex": "76a914795c63dd20827aa19d6c2e6c54b06188e985c3e788ac", "addresses": ["1C4hSb5w7fe9WuCFmDLywYcjFV7aFNuK2B"], "asm": "OP_DUP OP_HASH160 795c63dd20827aa19d6c2e6c54b06188e985c3e7 OP_EQUALVERIFY OP_CHECKSIG", "type": "pubkeyhash"}, "value": 0.0224066, "n": 1}], "hex": "010000000197e016a4f1677826026ffe51cd2466283d5aab87cb5000688d789111ba3f9f95000000006a47304402207528cd829a878f02a7928e977ae61a78e6f4c256db7ea689ae1df316ef15d556022061633e9b8eb0769c043c03117103d03e2945c52f4a37d7ec58c0d67202dae9b9012102cb6ba676ba09b56ab2f708337bc2e8d89599fb46527b1dd46199b5018138050effffffff020000000000000000536a4c500000778b0001ff92ec952c90c61a89457c40e3ef3236678a625097bcbefa6b8351586b4ef91c4b25dab5f9ade75bb888c7948e425baa0bed06142d45a2d56b27bc9a9526289ac0f6612cd74e33776ee494302200000000001976a914795c63dd20827aa19d6c2e6c54b06188e985c3e788ac00000000", "vin": [{"sequence": 4294967295, "scriptSig": {"hex": "47304402207528cd829a878f02a7928e977ae61a78e6f4c256db7ea689ae1df316ef15d556022061633e9b8eb0769c043c03117103d03e2945c52f4a37d7ec58c0d67202dae9b9012102cb6ba676ba09b56ab2f708337bc2e8d89599fb46527b1dd46199b5018138050e", "asm": "304402207528cd829a878f02a7928e977ae61a78e6f4c256db7ea689ae1df316ef15d556022061633e9b8eb0769c043c03117103d03e2945c52f4a37d7ec58c0d67202dae9b9[ALL] 02cb6ba676ba09b56ab2f708337bc2e8d89599fb46527b1dd46199b5018138050e"}, "vout": 0, "txid": "959f3fba1191788d680050cb87ab5a3d286624cd51fe6f02267867f1a416e097"}], "txid": "15e70359c4593a3e88eba5748d43ffc69024ade72d75fce907609c4f2c61ab17", "blocktime": 1537870928, "version": 1, "confirmations": 11512, "time": 1537870928, "locktime": 0, "vsize": 283, "size": 283}