{"hash": "65076019e2781c0825cdebd7e9cf1ac0c4ed22d029d870b8281a153acb90406f", "blockhash": "0000000000000000000e13cef7c366c0283d82e591d1acd082e914b08063cdf1", "vout": [{"scriptPubKey": {"reqSigs": 1, "hex": "76a9142c2f33d1ed940a36a08247388ca4991858fd0e8788ac", "addresses": ["152dH86UEPzCpp1HZLTj3MkRbrKY8zvBxN"], "asm": "OP_DUP OP_HASH160 2c2f33d1ed940a36a08247388ca4991858fd0e87 OP_EQUALVERIFY OP_CHECKSIG", "type": "pubkeyhash"}, "value": 0.0027536, "n": 0}, {"scriptPubKey": {"reqSigs": 1, "hex": "a914de04557db34bf6dde43b5e280a4d1e18a8be323887", "addresses": ["3Mvw8Fvn9rLmnrz1AjxYEkA9tVekjejqnQ"], "asm": "OP_HASH160 de04557db34bf6dde43b5e280a4d1e18a8be3238 OP_EQUAL", "type": "scripthash"}, "value": 0.00999371, "n": 1}], "hex": "020000000001021c478073c2115646339a3db6c902c74820f99ab2d64cbb6375cc2ff3b7cc57ad00000000171600147fa8d9310fe2190108c2d62749153b8c1c1579fefeffffff79d0f544500d90d70e8c74948b2cae05cbddf7ccb3ff029f55cd3be724c67da10000000017160014c0a46410e20043534b140410416b3559c5478cf5feffffff02a0330400000000001976a9142c2f33d1ed940a36a08247388ca4991858fd0e8788accb3f0f000000000017a914de04557db34bf6dde43b5e280a4d1e18a8be323887024830450221008cf41af80d84ffaf566fe233d4ffc040f87bbf33f7df04688f6c84a60af3c90f02201514b5af2ed545011c7d4b4ba3d1c7eeb1a84b2fea13fd2354b07267af528deb012103455520d524b1db22fb3d506433485d78d61c27c6b5647e2a45e861debccc0fa602483045022100d6d3cffc5f485e60d4f8ec64d0a4e99fa9d1af5b2b8dfc4459f0932f16b0553402207e4f7558d75ae8428e42a1016dce7e1aca569426000ee459c1e85c6458d4d1d8012102ae2d114cb475c1d5daa5433ae77db41d69005b97ef78f2b1d16b1e8c37cf55dc10490800", "vin": [{"txinwitness": ["30450221008cf41af80d84ffaf566fe233d4ffc040f87bbf33f7df04688f6c84a60af3c90f02201514b5af2ed545011c7d4b4ba3d1c7eeb1a84b2fea13fd2354b07267af528deb01", "03455520d524b1db22fb3d506433485d78d61c27c6b5647e2a45e861debccc0fa6"], "sequence": 4294967294, "scriptSig": {"hex": "1600147fa8d9310fe2190108c2d62749153b8c1c1579fe", "asm": "00147fa8d9310fe2190108c2d62749153b8c1c1579fe"}, "vout": 0, "txid": "ad57ccb7f32fcc7563bb4cd6b29af92048c702c9b63d9a33465611c27380471c"}, {"txinwitness": ["3045022100d6d3cffc5f485e60d4f8ec64d0a4e99fa9d1af5b2b8dfc4459f0932f16b0553402207e4f7558d75ae8428e42a1016dce7e1aca569426000ee459c1e85c6458d4d1d801", "02ae2d114cb475c1d5daa5433ae77db41d69005b97ef78f2b1d16b1e8c37cf55dc"], "sequence": 4294967294, "scriptSig": {"hex": "160014c0a46410e20043534b140410416b3559c5478cf5", "asm": "0014c0a46410e20043534b140410416b3559c5478cf5"}, "vout": 0, "txid": "a17dc624e73bcd559f02ffb3ccf7ddcb05ae2c8b94748c0ed7900d5044f5d079"}], "txid": "15e8fca68fe5fb8e506e03263238393143ead5a70823f1e0cdafac722ddfadaa", "blocktime": 1537871767, "version": 2, "confirmations": 11495, "time": 1537871767, "locktime": 542992, "vsize": 259, "size": 422}