{"hash": "15f0227457313478284673cdc714e8cf4c567ea7e882dc9c024bbb10d1f37a16", "blockhash": "0000000000000000001e0dab787dd257d1dbfcb92a98c2207d5e1078be1f4165", "vout": [{"scriptPubKey": {"reqSigs": 1, "hex": "76a9141da92ddf25f4d1da977050f6c4f3420cbd3995ea88ac", "addresses": ["13hqGLfT5nFUQfqQ11KkmhPLDXXVeMhQou"], "asm": "OP_DUP OP_HASH160 1da92ddf25f4d1da977050f6c4f3420cbd3995ea OP_EQUALVERIFY OP_CHECKSIG", "type": "pubkeyhash"}, "value": 0.03414086, "n": 0}, {"scriptPubKey": {"reqSigs": 1, "hex": "a914a964fee948f57e0b8628fb5d191f7548cccc45a987", "addresses": ["3H8h7GeeTJAP7ZXGdF2f5gVipeGjUWdyak"], "asm": "OP_HASH160 a964fee948f57e0b8628fb5d191f7548cccc45a9 OP_EQUAL", "type": "scripthash"}, "value": 0.1, "n": 1}], "hex": "01000000018db275055003a184fcaf7804e2d45a59c9ffcfd7c96962a0e1bc7e60cd92f659010000006b48304502210088f3ece4ca2bb24bd08e3c67314dd3309531e1f35941fb1e04b8ac5eb4ae4e2a02200af39500998f5c68a1dee5bd36b7aed9fb877f71d22db051399ca4286841becb0121031a53f50c83a248ef5db9fcfed253252f48656b2fa5c54ae74ad2703c23e65a24ffffffff0246183400000000001976a9141da92ddf25f4d1da977050f6c4f3420cbd3995ea88ac809698000000000017a914a964fee948f57e0b8628fb5d191f7548cccc45a98700000000", "vin": [{"sequence": 4294967295, "scriptSig": {"hex": "48304502210088f3ece4ca2bb24bd08e3c67314dd3309531e1f35941fb1e04b8ac5eb4ae4e2a02200af39500998f5c68a1dee5bd36b7aed9fb877f71d22db051399ca4286841becb0121031a53f50c83a248ef5db9fcfed253252f48656b2fa5c54ae74ad2703c23e65a24", "asm": "304502210088f3ece4ca2bb24bd08e3c67314dd3309531e1f35941fb1e04b8ac5eb4ae4e2a02200af39500998f5c68a1dee5bd36b7aed9fb877f71d22db051399ca4286841becb[ALL] 031a53f50c83a248ef5db9fcfed253252f48656b2fa5c54ae74ad2703c23e65a24"}, "vout": 1, "txid": "59f692cd607ebce1a06269c9d7cfffc9595ad4e20478affc84a103500575b28d"}], "txid": "15f0227457313478284673cdc714e8cf4c567ea7e882dc9c024bbb10d1f37a16", "blocktime": 1537872475, "version": 1, "confirmations": 11486, "time": 1537872475, "locktime": 0, "vsize": 224, "size": 224}