{"hash": "15f562789472b11cf6446f2afd9f64b1c00dc6556fe3a12859fd91d0d483c61a", "blockhash": "00000000000000000018f53835495a110e01622372bf6ae95dc86f2b0ab887b0", "vout": [{"scriptPubKey": {"reqSigs": 1, "hex": "76a9146d311db7e6cbe028550e4e26c20419ae3b44ab7e88ac", "addresses": ["1AxMVZCLQxciWv74ZRhJVfHUChDvmFx9zQ"], "asm": "OP_DUP OP_HASH160 6d311db7e6cbe028550e4e26c20419ae3b44ab7e OP_EQUALVERIFY OP_CHECKSIG", "type": "pubkeyhash"}, "value": 0.00017221, "n": 0}, {"scriptPubKey": {"reqSigs": 1, "hex": "76a9144eab0d84bd441d6f035533c1f473615afd56a9ae88ac", "addresses": ["18AxcvNM9eiSRryQVkVH7pnKrfX8PqFdeS"], "asm": "OP_DUP OP_HASH160 4eab0d84bd441d6f035533c1f473615afd56a9ae OP_EQUALVERIFY OP_CHECKSIG", "type": "pubkeyhash"}, "value": 0.003825, "n": 1}], "hex": "0100000001b61fded397de19a621a314700857d2a57e30c62616882380aeeb39cef1b8cfe5020000006a4730440220167cc31189ee3cfd7a15df5b56b1d14fed7dc5db6150c1077b9de486c638389802206bc9dacfe2ce93f3cf4b4a27cd372dba6b0862c6e076008ee1ed7540a3489658012102d4121ba47661600db9fc23c2db7d1808660411a04e59d8455967a2954ff39b45ffffffff0245430000000000001976a9146d311db7e6cbe028550e4e26c20419ae3b44ab7e88ac24d60500000000001976a9144eab0d84bd441d6f035533c1f473615afd56a9ae88ac00000000", "vin": [{"sequence": 4294967295, "scriptSig": {"hex": "4730440220167cc31189ee3cfd7a15df5b56b1d14fed7dc5db6150c1077b9de486c638389802206bc9dacfe2ce93f3cf4b4a27cd372dba6b0862c6e076008ee1ed7540a3489658012102d4121ba47661600db9fc23c2db7d1808660411a04e59d8455967a2954ff39b45", "asm": "30440220167cc31189ee3cfd7a15df5b56b1d14fed7dc5db6150c1077b9de486c638389802206bc9dacfe2ce93f3cf4b4a27cd372dba6b0862c6e076008ee1ed7540a3489658[ALL] 02d4121ba47661600db9fc23c2db7d1808660411a04e59d8455967a2954ff39b45"}, "vout": 2, "txid": "e5cfb8f1ce39ebae8023881626c6307ea5d257087014a321a619de97d3de1fb6"}], "txid": "15f562789472b11cf6446f2afd9f64b1c00dc6556fe3a12859fd91d0d483c61a", "blocktime": 1537870928, "version": 1, "confirmations": 11514, "time": 1537870928, "locktime": 0, "vsize": 225, "size": 225}