{"hash": "82eddfe395e24895c901b4add639be20d00bc65e965c487f8eb7cdc86bf886aa", "blockhash": "0000000000000000001f76057863aec43deb6fa401d9628bb513d65a8098bfab", "vout": [{"scriptPubKey": {"reqSigs": 1, "hex": "0014ffd4567e4f38ccf033dea13d928f36fd38abd647", "addresses": ["bc1qll29vlj08rx0qv775y7e9rekl5u2h4j8l85hn4"], "asm": "0 ffd4567e4f38ccf033dea13d928f36fd38abd647", "type": "witness_v0_keyhash"}, "value": 0.00016715, "n": 0}, {"scriptPubKey": {"reqSigs": 1, "hex": "a91480ad896c1cb546e8c6c3250051756a4b57cc773287", "addresses": ["3DRQJeTmbvQPLaGQPsSoQ4fZjLS4UHC6BJ"], "asm": "OP_HASH160 80ad896c1cb546e8c6c3250051756a4b57cc7732 OP_EQUAL", "type": "scripthash"}, "value": 0.04382697, "n": 1}], "hex": "01000000000101651b55065c5184abcf8256b091b115e330a2cb32826644091272934dc3051f780100000000ffffffff024b41000000000000160014ffd4567e4f38ccf033dea13d928f36fd38abd647e9df42000000000017a91480ad896c1cb546e8c6c3250051756a4b57cc7732870248304502210087b03378c8c7609ac2c72a5b527f867711140d0f2a0f372aa3889d4ba565c023022033fae2e9eb2cb6ead6cc33e4ce4e55a9db55858ff169af8826e54963b324029b012102404f183f91bd058b45bcc4ee540b5165f5f1bcaab172596049890e4b5f22265800000000", "vin": [{"txinwitness": ["304502210087b03378c8c7609ac2c72a5b527f867711140d0f2a0f372aa3889d4ba565c023022033fae2e9eb2cb6ead6cc33e4ce4e55a9db55858ff169af8826e54963b324029b01", "02404f183f91bd058b45bcc4ee540b5165f5f1bcaab172596049890e4b5f222658"], "sequence": 4294967295, "scriptSig": {"hex": "", "asm": ""}, "vout": 1, "txid": "781f05c34d9372120944668232cba230e315b191b05682cfab84515c06551b65"}], "txid": "15f97c1992c8fa3aa8add2dcc285bb089df17612fdd657b30b115ff6ae95b3aa", "blocktime": 1537873891, "version": 1, "confirmations": 11478, "time": 1537873891, "locktime": 0, "vsize": 142, "size": 224}