{"hash": "15fe431cd0abd67b4be60ec99855404a523f08bc01592edb1e2c6c07f2ee4149", "blockhash": "0000000000000000001cda96e906b7601b7a6fb1a3b62bca570a9e5d8f4b3de1", "vout": [{"scriptPubKey": {"reqSigs": 1, "hex": "76a914ffdcc8f69d2757011266f81c48a011fc9109f4d788ac", "addresses": ["1QKsoL3jLubKZTH2NMtigoQfupScAcSD89"], "asm": "OP_DUP OP_HASH160 ffdcc8f69d2757011266f81c48a011fc9109f4d7 OP_EQUALVERIFY OP_CHECKSIG", "type": "pubkeyhash"}, "value": 0.02137798, "n": 0}, {"scriptPubKey": {"reqSigs": 1, "hex": "76a9141a550791de05c1594072c0c1e02c0494411e219388ac", "addresses": ["13QERwrBQJgdDxjz5u4iei5vQwNAcLSR3P"], "asm": "OP_DUP OP_HASH160 1a550791de05c1594072c0c1e02c0494411e2193 OP_EQUALVERIFY OP_CHECKSIG", "type": "pubkeyhash"}, "value": 0.0309, "n": 1}, {"scriptPubKey": {"reqSigs": 1, "hex": "76a914d5727f30c2e05e6301d381ff0a8b09421b7a07b988ac", "addresses": ["1LTc6Eu8s9fy2zpsJRUjRHBF12th43N9je"], "asm": "OP_DUP OP_HASH160 d5727f30c2e05e6301d381ff0a8b09421b7a07b9 OP_EQUALVERIFY OP_CHECKSIG", "type": "pubkeyhash"}, "value": 0.21609172, "n": 2}, {"scriptPubKey": {"reqSigs": 1, "hex": "76a914080905c2c14e22ffc0da7aa6bf752be286a1b1ec88ac", "addresses": ["1jVDRtdSa3X3G5CFG546QmFfDJTxW26mJ"], "asm": "OP_DUP OP_HASH160 080905c2c14e22ffc0da7aa6bf752be286a1b1ec OP_EQUALVERIFY OP_CHECKSIG", "type": "pubkeyhash"}, "value": 11.12545959, "n": 3}], "hex": "02000000012ed6201c6ab892346e0e84ccdcaae4e8efd27a93b82c549c97cc6668a096ccd9010000006a47304402203b92a7219020fc63def4b0070bf2f692544415e3100446ec03dcfa6125052585022031c4f29fef9c96e4fdd9aa1d8b958b16c0a2c3239bb1267ebcf7256dceb28036012102c76818b2b78306e5a58baee040651041d608aaea36b1df412980eaf766c5a3b0feffffff04c69e2000000000001976a914ffdcc8f69d2757011266f81c48a011fc9109f4d788ac50262f00000000001976a9141a550791de05c1594072c0c1e02c0494411e219388acd4ba4901000000001976a914d5727f30c2e05e6301d381ff0a8b09421b7a07b988aca71a5042000000001976a914080905c2c14e22ffc0da7aa6bf752be286a1b1ec88ac13490800", "vin": [{"sequence": 4294967294, "scriptSig": {"hex": "47304402203b92a7219020fc63def4b0070bf2f692544415e3100446ec03dcfa6125052585022031c4f29fef9c96e4fdd9aa1d8b958b16c0a2c3239bb1267ebcf7256dceb28036012102c76818b2b78306e5a58baee040651041d608aaea36b1df412980eaf766c5a3b0", "asm": "304402203b92a7219020fc63def4b0070bf2f692544415e3100446ec03dcfa6125052585022031c4f29fef9c96e4fdd9aa1d8b958b16c0a2c3239bb1267ebcf7256dceb28036[ALL] 02c76818b2b78306e5a58baee040651041d608aaea36b1df412980eaf766c5a3b0"}, "vout": 1, "txid": "d9cc96a06866cc979c542cb8937ad2efe8e4aadccc840e6e3492b86a1c20d62e"}], "txid": "15fe431cd0abd67b4be60ec99855404a523f08bc01592edb1e2c6c07f2ee4149", "blocktime": 1537873282, "version": 2, "confirmations": 11480, "time": 1537873282, "locktime": 542995, "vsize": 293, "size": 293}