{"hash": "828b3c9db4a22d2da979c03d99919fff66921d13cc52434e614799a976c10f2a", "blockhash": "0000000000000000000dcc0f55137456b1a82d3642486a52398922ac4d620174", "vout": [{"scriptPubKey": {"reqSigs": 1, "hex": "a9149b46081d79ebbccf839f7b68a546abdc39f07e3887", "addresses": ["3Fr2ZAYEYpvWqF6tEgBUCZ7jjHurxDyrDF"], "asm": "OP_HASH160 9b46081d79ebbccf839f7b68a546abdc39f07e38 OP_EQUAL", "type": "scripthash"}, "value": 0.00046176, "n": 0}, {"scriptPubKey": {"reqSigs": 1, "hex": "00141f5a20fa4251c561199db12519fccb4f069f994c", "addresses": ["bc1qradzp7jz28zkzxvakyj3nlxtfurflx2vx5k7lc"], "asm": "0 1f5a20fa4251c561199db12519fccb4f069f994c", "type": "witness_v0_keyhash"}, "value": 2.821e-05, "n": 1}], "hex": "01000000000101d8bc11c0a0f13575e4fa85c894d67e963362135b68a9e2752c49a77e28dc358b0c0000001716001476e5fe63c39ea5d344860bda1af76be146a5b6deffffffff0260b400000000000017a9149b46081d79ebbccf839f7b68a546abdc39f07e3887050b0000000000001600141f5a20fa4251c561199db12519fccb4f069f994c02483045022100ab2a797af957107cd61c7583d1085166c132ad38225e1dcd22a8f813c307a49e0220790f0a4d2f52cffd062bdb036af43ba42ead951657809bf391133d8d91830b650121022ceac99c223217fc332471078b41df17afd8087ae9f1d46020e88d00fead47ac00000000", "vin": [{"txinwitness": ["3045022100ab2a797af957107cd61c7583d1085166c132ad38225e1dcd22a8f813c307a49e0220790f0a4d2f52cffd062bdb036af43ba42ead951657809bf391133d8d91830b6501", "022ceac99c223217fc332471078b41df17afd8087ae9f1d46020e88d00fead47ac"], "sequence": 4294967295, "scriptSig": {"hex": "16001476e5fe63c39ea5d344860bda1af76be146a5b6de", "asm": "001476e5fe63c39ea5d344860bda1af76be146a5b6de"}, "vout": 12, "txid": "8b35dc287ea7492c75e2a9685b136233967ed694c885fae47535f1a0c011bcd8"}], "txid": "1607b098fb3b36a538e9dc0711c764af53db04757bcb0fed77d58b1dc0e6eea2", "blocktime": 1537870268, "version": 1, "confirmations": 11518, "time": 1537870268, "locktime": 0, "vsize": 165, "size": 247}