{"hash": "160a4d08dcc1841123dcbc21496c0ea0b9cbe1b6a72db0396a7a2f790bbbc9ee", "blockhash": "0000000000000000000e13cef7c366c0283d82e591d1acd082e914b08063cdf1", "vout": [{"scriptPubKey": {"reqSigs": 1, "hex": "76a914eabaada226f4f81ee8acc146e8fb68b8977ccf4388ac", "addresses": ["1NQ8kXDJwXxqWyxXEprF363JLtHFF5BBfH"], "asm": "OP_DUP OP_HASH160 eabaada226f4f81ee8acc146e8fb68b8977ccf43 OP_EQUALVERIFY OP_CHECKSIG", "type": "pubkeyhash"}, "value": 0.00268127, "n": 0}], "hex": "0100000001a830797c598836f93242b99abebf28998631b817c47ac4bfcaf88c10aeeb8772070000006a47304402200bb64a0b2c3dce0a406681710187f988fd88d9987a9c9f748d6eb870b9c120b4022007268a49a2c7e7206a770070b3519d1464f14e34a28428b36a139f2a73b7e0eb012102b630ffe7cba79240b2099373c371544e4adbe53c7521435fe1c7d7a791f517f6ffffffff015f170400000000001976a914eabaada226f4f81ee8acc146e8fb68b8977ccf4388ac00000000", "vin": [{"sequence": 4294967295, "scriptSig": {"hex": "47304402200bb64a0b2c3dce0a406681710187f988fd88d9987a9c9f748d6eb870b9c120b4022007268a49a2c7e7206a770070b3519d1464f14e34a28428b36a139f2a73b7e0eb012102b630ffe7cba79240b2099373c371544e4adbe53c7521435fe1c7d7a791f517f6", "asm": "304402200bb64a0b2c3dce0a406681710187f988fd88d9987a9c9f748d6eb870b9c120b4022007268a49a2c7e7206a770070b3519d1464f14e34a28428b36a139f2a73b7e0eb[ALL] 02b630ffe7cba79240b2099373c371544e4adbe53c7521435fe1c7d7a791f517f6"}, "vout": 7, "txid": "7287ebae108cf8cabfc47ac417b831869928bfbe9ab94232f93688597c7930a8"}], "txid": "160a4d08dcc1841123dcbc21496c0ea0b9cbe1b6a72db0396a7a2f790bbbc9ee", "blocktime": 1537871767, "version": 1, "confirmations": 11495, "time": 1537871767, "locktime": 0, "vsize": 191, "size": 191}