{"hash": "160dd2365695cd367c0cbfeb41aaecc47a2716cb9ac20f365a02c96e3b6593d4", "blockhash": "00000000000000000018f53835495a110e01622372bf6ae95dc86f2b0ab887b0", "vout": [{"scriptPubKey": {"reqSigs": 1, "hex": "76a914c6dae00cc6bcc1b50220f53451a94c1011740bf988ac", "addresses": ["1K8SzhTejQe8thACXBTXU9Q7diDQds5tLm"], "asm": "OP_DUP OP_HASH160 c6dae00cc6bcc1b50220f53451a94c1011740bf9 OP_EQUALVERIFY OP_CHECKSIG", "type": "pubkeyhash"}, "value": 0.00023575, "n": 0}, {"scriptPubKey": {"type": "nulldata", "hex": "6a4c500000778a00018c2006064182e1e4eaecdd68e3ef3236678a625097bcbefa6b8351586b4e7a7ca6b3f273977974e72d62a9b05e015baa0bda0613db55cc9388544bbf23acfcfaac8058b692fe6808c31d", "asm": "OP_RETURN 0000778a00018c2006064182e1e4eaecdd68e3ef3236678a625097bcbefa6b8351586b4e7a7ca6b3f273977974e72d62a9b05e015baa0bda0613db55cc9388544bbf23acfcfaac8058b692fe6808c31d"}, "value": 0.0, "n": 1}], "hex": "01000000011c5428cfaf093e4b9832f87c00a232cfd90e7690095947290efdc54f393c592f000000006b483045022100a7daba42a978b1e76ceeb10a17edf90fbf2e36d29bc02c40efab5abb1f689431022043fadd81661d1e8b3991fdd6794d3378830b2ce7ead187a8172218129dd6ecf20121030a19bd23f83615adea8d16a405684bfa215944846bbee7582dadcbc987f9e41bffffffff02175c0000000000001976a914c6dae00cc6bcc1b50220f53451a94c1011740bf988ac0000000000000000536a4c500000778a00018c2006064182e1e4eaecdd68e3ef3236678a625097bcbefa6b8351586b4e7a7ca6b3f273977974e72d62a9b05e015baa0bda0613db55cc9388544bbf23acfcfaac8058b692fe6808c31d00000000", "vin": [{"sequence": 4294967295, "scriptSig": {"hex": "483045022100a7daba42a978b1e76ceeb10a17edf90fbf2e36d29bc02c40efab5abb1f689431022043fadd81661d1e8b3991fdd6794d3378830b2ce7ead187a8172218129dd6ecf20121030a19bd23f83615adea8d16a405684bfa215944846bbee7582dadcbc987f9e41b", "asm": "3045022100a7daba42a978b1e76ceeb10a17edf90fbf2e36d29bc02c40efab5abb1f689431022043fadd81661d1e8b3991fdd6794d3378830b2ce7ead187a8172218129dd6ecf2[ALL] 030a19bd23f83615adea8d16a405684bfa215944846bbee7582dadcbc987f9e41b"}, "vout": 0, "txid": "2f593c394fc5fd0e2947590990760ed9cf32a2007cf832984b3e09afcf28541c"}], "txid": "160dd2365695cd367c0cbfeb41aaecc47a2716cb9ac20f365a02c96e3b6593d4", "blocktime": 1537870928, "version": 1, "confirmations": 11513, "time": 1537870928, "locktime": 0, "vsize": 284, "size": 284}