{"hash": "a0fdb0f4433fb17a79567d938adcca05fe7613aa2dea180a8e8a8af55d74eb15", "blockhash": "0000000000000000001cda96e906b7601b7a6fb1a3b62bca570a9e5d8f4b3de1", "vout": [{"scriptPubKey": {"reqSigs": 1, "hex": "a914d90504a56c44602776b03fbec24abc9f2d21477887", "addresses": ["3MUWZqZXHdR3to2B11doH5BBsr9xkHeabC"], "asm": "OP_HASH160 d90504a56c44602776b03fbec24abc9f2d214778 OP_EQUAL", "type": "scripthash"}, "value": 0.01147602, "n": 0}, {"scriptPubKey": {"reqSigs": 1, "hex": "76a914809ef0f0b0e6469eeb1749992cafa98ef11ad43488ac", "addresses": ["1Cj5tysek52iD1sKC69tcoA8bp6o3HBTY2"], "asm": "OP_DUP OP_HASH160 809ef0f0b0e6469eeb1749992cafa98ef11ad434 OP_EQUALVERIFY OP_CHECKSIG", "type": "pubkeyhash"}, "value": 0.007357, "n": 1}], "hex": "02000000000103287dfd65798709d9848fa480d26b008fa57d4713b949efcf7a7ff0df7a6d2cac0000000017160014688b8614adffca86b96d93086ceed75b2f75c85afeffffffca9c27f3a0f84e0302c148ccb6861208623aa4a06cb53ffb252667e6c806748d01000000171600140f08398dfa0a3f212e82848991679593074846e8feffffffd461a7f3b2e143ec766410cecf73ba01b923f94688744ea582cf2aafc243883400000000171600144c3ef46bc4490b6d6ca7f684e4bff9465e316e7cfeffffff02d28211000000000017a914d90504a56c44602776b03fbec24abc9f2d21477887d4390b00000000001976a914809ef0f0b0e6469eeb1749992cafa98ef11ad43488ac02483045022100debbea2a214c61b01216c905fcb298b5408fba69b9e0e76b4abc00353aafdfa80220756a086e5834a35c03204a7e97e0bbb06576e85a520762ba3ba83792392307d50121038f17fbb9b1495f6825bb8a479c27803702483fff3f8eacd3e03d9daf9ca80d5b024730440220447472060756d09b1ad46ae26709b1f71364c264f6ad45cc9f63cf00f600a476022041298e7bb2c2b4eb2f8227ee3269446c894c402437d4dad75207f86b45e860480121037b3146537a1413ff2459c3688e58496b5596a0121004d25a0e8f0a5f011aa3c302483045022100e267303183b6f4f5b9179093e893d2ba14d1cf9e572d5af450cd4a9b7cc2b22c022002fc7bcf10734e84a4dae12145dba0219b603c051282072ff18872dc852c6d4e012103ef0b4eff9873d1dd7a7197213085e6bcfa38610b96e87a9905951a7502a2b54913490800", "vin": [{"txinwitness": ["3045022100debbea2a214c61b01216c905fcb298b5408fba69b9e0e76b4abc00353aafdfa80220756a086e5834a35c03204a7e97e0bbb06576e85a520762ba3ba83792392307d501", "038f17fbb9b1495f6825bb8a479c27803702483fff3f8eacd3e03d9daf9ca80d5b"], "sequence": 4294967294, "scriptSig": {"hex": "160014688b8614adffca86b96d93086ceed75b2f75c85a", "asm": "0014688b8614adffca86b96d93086ceed75b2f75c85a"}, "vout": 0, "txid": "ac2c6d7adff07f7acfef49b913477da58f006bd280a48f84d909877965fd7d28"}, {"txinwitness": ["30440220447472060756d09b1ad46ae26709b1f71364c264f6ad45cc9f63cf00f600a476022041298e7bb2c2b4eb2f8227ee3269446c894c402437d4dad75207f86b45e8604801", "037b3146537a1413ff2459c3688e58496b5596a0121004d25a0e8f0a5f011aa3c3"], "sequence": 4294967294, "scriptSig": {"hex": "1600140f08398dfa0a3f212e82848991679593074846e8", "asm": "00140f08398dfa0a3f212e82848991679593074846e8"}, "vout": 1, "txid": "8d7406c8e6672625fb3fb56ca0a43a62081286b6cc48c102034ef8a0f3279cca"}, {"txinwitness": ["3045022100e267303183b6f4f5b9179093e893d2ba14d1cf9e572d5af450cd4a9b7cc2b22c022002fc7bcf10734e84a4dae12145dba0219b603c051282072ff18872dc852c6d4e01", "03ef0b4eff9873d1dd7a7197213085e6bcfa38610b96e87a9905951a7502a2b549"], "sequence": 4294967294, "scriptSig": {"hex": "1600144c3ef46bc4490b6d6ca7f684e4bff9465e316e7c", "asm": "00144c3ef46bc4490b6d6ca7f684e4bff9465e316e7c"}, "vout": 0, "txid": "348843c2af2acf82a54e748846f923b901ba73cfce106476ec43e1b2f3a761d4"}], "txid": "161189e7bc25711ccee1c8aaf29ec038bd4446cb7b47e5fd95ad27bb798ac226", "blocktime": 1537873282, "version": 2, "confirmations": 11484, "time": 1537873282, "locktime": 542995, "vsize": 350, "size": 593}