{"hash": "f6775d1475ba62cfb8699135a4028d05062545d382c337cd70e3129ec2458417", "blockhash": "00000000000000000004ffacab907a6b429b9a5745fa0b75af4234bf69dd7176", "vout": [{"scriptPubKey": {"reqSigs": 1, "hex": "a914347ee3819f5ceb941f1b62492b81af2a84b82e0787", "addresses": ["36Ub4uAKcpJy6b9sEegJ3vAWLQQNvHSz7c"], "asm": "OP_HASH160 347ee3819f5ceb941f1b62492b81af2a84b82e07 OP_EQUAL", "type": "scripthash"}, "value": 0.00998221, "n": 0}, {"scriptPubKey": {"reqSigs": 1, "hex": "76a914dcf86f81514e64c297cdebbe0883e7c6ebe58bb988ac", "addresses": ["1M9PGotoWpzetAqpqrRFJM4V1FfMCtFNLq"], "asm": "OP_DUP OP_HASH160 dcf86f81514e64c297cdebbe0883e7c6ebe58bb9 OP_EQUALVERIFY OP_CHECKSIG", "type": "pubkeyhash"}, "value": 0.0187856, "n": 1}], "hex": "020000000001012c84521acaae44bb08cd15bb8a7145183acded246a3ee4c13cdd75fa9d4dfc4c0100000017160014593fdaa97c455655b2e4461cdf911937b714f980feffffff024d3b0f000000000017a914347ee3819f5ceb941f1b62492b81af2a84b82e078720aa1c00000000001976a914dcf86f81514e64c297cdebbe0883e7c6ebe58bb988ac02483045022100cb3210a4b1756e59d54198fb5b71237cd4ead2c7465f16930db292e941c32c97022004a6aaa83d26eafedca8b3e3853f67eae2d94ef6d65270ed1fafb4dfc1330583012102a436b0a03d33cf5d26f8aa0e4482a0c7d2d25bb760d8c203ebcaebd46ec4bad215490800", "vin": [{"txinwitness": ["3045022100cb3210a4b1756e59d54198fb5b71237cd4ead2c7465f16930db292e941c32c97022004a6aaa83d26eafedca8b3e3853f67eae2d94ef6d65270ed1fafb4dfc133058301", "02a436b0a03d33cf5d26f8aa0e4482a0c7d2d25bb760d8c203ebcaebd46ec4bad2"], "sequence": 4294967294, "scriptSig": {"hex": "160014593fdaa97c455655b2e4461cdf911937b714f980", "asm": "0014593fdaa97c455655b2e4461cdf911937b714f980"}, "vout": 1, "txid": "4cfc4d9dfa75dd3cc1e43e6a24edcd3a1845718abb15cd08bb44aeca1a52842c"}], "txid": "1622a9e39e46a5ed65047603211228aab3496178d956d51dbdf75b9c64328327", "blocktime": 1537875543, "version": 2, "confirmations": 11464, "time": 1537875543, "locktime": 542997, "vsize": 168, "size": 250}