{"hash": "162694092e66a1373a9b1d4af38e4425d537e30677b5a17d53fb70a66254240e", "blockhash": "0000000000000000001f76057863aec43deb6fa401d9628bb513d65a8098bfab", "vout": [{"scriptPubKey": {"reqSigs": 1, "hex": "76a9140fca655b28f76b57023c5209926173a4b6fc348288ac", "addresses": ["12SVbbNjx9c432urYDVxqAt2cADzd7xtwk"], "asm": "OP_DUP OP_HASH160 0fca655b28f76b57023c5209926173a4b6fc3482 OP_EQUALVERIFY OP_CHECKSIG", "type": "pubkeyhash"}, "value": 0.0005962, "n": 0}, {"scriptPubKey": {"type": "nulldata", "hex": "6a4c50000077e10001641c419f27e126dedfaea5697af8e8e963c7cfd5b95b23cc0f42c2fc38c5c2c16449240a893a75963896c982b8645baa16a606127c767211c769bc9a9526289ac0f6612cd74e33776ee4", "asm": "OP_RETURN 000077e10001641c419f27e126dedfaea5697af8e8e963c7cfd5b95b23cc0f42c2fc38c5c2c16449240a893a75963896c982b8645baa16a606127c767211c769bc9a9526289ac0f6612cd74e33776ee4"}, "value": 0.0, "n": 1}], "hex": "01000000010df11ac4702dd74752a761d953d72618491fe27b16b5c6348d83cdf2532d57f5000000006b48304502210097856dabad17f0c8909255da66d0d6e48410e02286dacb77f6f0c4803f715497022017c6fa86fe181957af4d9ce8d68012c3a58d2b9831c1af50f343831e568407cc01210384f7688854fb818b726ba60294710ffd0433283ce36e1a59598fe97cf4f8e675ffffffff02e4e80000000000001976a9140fca655b28f76b57023c5209926173a4b6fc348288ac0000000000000000536a4c50000077e10001641c419f27e126dedfaea5697af8e8e963c7cfd5b95b23cc0f42c2fc38c5c2c16449240a893a75963896c982b8645baa16a606127c767211c769bc9a9526289ac0f6612cd74e33776ee400000000", "vin": [{"sequence": 4294967295, "scriptSig": {"hex": "48304502210097856dabad17f0c8909255da66d0d6e48410e02286dacb77f6f0c4803f715497022017c6fa86fe181957af4d9ce8d68012c3a58d2b9831c1af50f343831e568407cc01210384f7688854fb818b726ba60294710ffd0433283ce36e1a59598fe97cf4f8e675", "asm": "304502210097856dabad17f0c8909255da66d0d6e48410e02286dacb77f6f0c4803f715497022017c6fa86fe181957af4d9ce8d68012c3a58d2b9831c1af50f343831e568407cc[ALL] 0384f7688854fb818b726ba60294710ffd0433283ce36e1a59598fe97cf4f8e675"}, "vout": 0, "txid": "f5572d53f2cd838d34c6b5167be21f491826d753d961a75247d72d70c41af10d"}], "txid": "162694092e66a1373a9b1d4af38e4425d537e30677b5a17d53fb70a66254240e", "blocktime": 1537873891, "version": 1, "confirmations": 11478, "time": 1537873891, "locktime": 0, "vsize": 284, "size": 284}