{"hash": "b9502d1e7c9afb59bac2428ecdd030d8f5df16a8e5406301e6922cd05be7d9a8", "blockhash": "000000000000000000022b45ed06c6f4ccd3cf7fb5ba4856ebd2e58215665228", "vout": [{"scriptPubKey": {"reqSigs": 1, "hex": "a914f35960b0abf97b1e4b5915e54d553ca8367b181787", "addresses": ["3PsjCEH2iWCmNXiQKkZ73Xcqz6R7iJt1PP"], "asm": "OP_HASH160 f35960b0abf97b1e4b5915e54d553ca8367b1817 OP_EQUAL", "type": "scripthash"}, "value": 0.02600637, "n": 0}, {"scriptPubKey": {"reqSigs": 1, "hex": "a9141eae6459aec404299ad73598234066661733491d87", "addresses": ["34VF7GRkkWvnH1jxZLyWK9Yj7w4Psnyhj4"], "asm": "OP_HASH160 1eae6459aec404299ad73598234066661733491d OP_EQUAL", "type": "scripthash"}, "value": 0.35191877, "n": 1}], "hex": "0200000000010121af8dd779525d2af9cedc07c22de2e8c1b12e027a4c09b1f5ee29ae1a1deb490100000017160014c4ead37acab1ec24156f5a69e0eb2bdda8ea2cedfeffffff02bdae27000000000017a914f35960b0abf97b1e4b5915e54d553ca8367b18178745fc18020000000017a9141eae6459aec404299ad73598234066661733491d8702473044022038f1fc24f76f7399f7e56e64bd2cd0966e76cc78793f8a22e218a5e3ca65c61902201684422e043354a38df50109ce505a1a1d7f760efeb8a60b82f855137d560838012103a452417cf0530a85c99a172067a31e7577d36c73e8ce8dd11a5310c20c262fb30b490800", "vin": [{"txinwitness": ["3044022038f1fc24f76f7399f7e56e64bd2cd0966e76cc78793f8a22e218a5e3ca65c61902201684422e043354a38df50109ce505a1a1d7f760efeb8a60b82f855137d56083801", "03a452417cf0530a85c99a172067a31e7577d36c73e8ce8dd11a5310c20c262fb3"], "sequence": 4294967294, "scriptSig": {"hex": "160014c4ead37acab1ec24156f5a69e0eb2bdda8ea2ced", "asm": "0014c4ead37acab1ec24156f5a69e0eb2bdda8ea2ced"}, "vout": 1, "txid": "49eb1d1aae29eef5b1094c7a022eb1c1e8e22dc207dccef92a5d5279d78daf21"}], "txid": "162a15912ad8451f145cd0073046b68aaead2260d942a5a788c167e7cb173a71", "blocktime": 1537869901, "version": 2, "confirmations": 11523, "time": 1537869901, "locktime": 542987, "vsize": 166, "size": 247}