{"hash": "162cec96e895bbac004941b9b65d1ff59aec44cb3ddc5d736a3e2a8a02b0af87", "blockhash": "0000000000000000001f76057863aec43deb6fa401d9628bb513d65a8098bfab", "vout": [{"scriptPubKey": {"reqSigs": 1, "hex": "76a914a03e6086632d70877590cc57194e032b9fef559f88ac", "addresses": ["1FcHqj8MHvboJLrkGUYLeKGXrS8gY62VDt"], "asm": "OP_DUP OP_HASH160 a03e6086632d70877590cc57194e032b9fef559f OP_EQUALVERIFY OP_CHECKSIG", "type": "pubkeyhash"}, "value": 0.0035, "n": 0}, {"scriptPubKey": {"reqSigs": 1, "hex": "76a91457fb02bed431935069ef4c870e24d2290ea8c7ff88ac", "addresses": ["192CVDmW4JjeMjHPH11E7hd5aQsZA1jCHy"], "asm": "OP_DUP OP_HASH160 57fb02bed431935069ef4c870e24d2290ea8c7ff OP_EQUALVERIFY OP_CHECKSIG", "type": "pubkeyhash"}, "value": 0.09769156, "n": 1}], "hex": "0100000001cbd52c548c30b70bf387ba437b5b9877d20662e9723d29b28fb4e82948d04ee3010000006b483045022100efa971da118e514c61c1d300b14d30787fd6adca94c213ac4ba6eff76932a21d02207f75edea76f4502d719cded253af0a19ea64caa3e0b1915e943a2a00e0df95130121020a762c461476c4b1ccab38e7ebc6e33093e50761784159505c5874817bf14d5affffffff0230570500000000001976a914a03e6086632d70877590cc57194e032b9fef559f88acc4109500000000001976a91457fb02bed431935069ef4c870e24d2290ea8c7ff88ac00000000", "vin": [{"sequence": 4294967295, "scriptSig": {"hex": "483045022100efa971da118e514c61c1d300b14d30787fd6adca94c213ac4ba6eff76932a21d02207f75edea76f4502d719cded253af0a19ea64caa3e0b1915e943a2a00e0df95130121020a762c461476c4b1ccab38e7ebc6e33093e50761784159505c5874817bf14d5a", "asm": "3045022100efa971da118e514c61c1d300b14d30787fd6adca94c213ac4ba6eff76932a21d02207f75edea76f4502d719cded253af0a19ea64caa3e0b1915e943a2a00e0df9513[ALL] 020a762c461476c4b1ccab38e7ebc6e33093e50761784159505c5874817bf14d5a"}, "vout": 1, "txid": "e34ed04829e8b48fb2293d72e96206d277985b7b43ba87f30bb7308c542cd5cb"}], "txid": "162cec96e895bbac004941b9b65d1ff59aec44cb3ddc5d736a3e2a8a02b0af87", "blocktime": 1537873891, "version": 1, "confirmations": 11475, "time": 1537873891, "locktime": 0, "vsize": 226, "size": 226}