{"hash": "1632068ae7aa2f3aa98ff2877138e09274355e1bdd72cee66c82fc9c89b9aa72", "blockhash": "0000000000000000000dcc0f55137456b1a82d3642486a52398922ac4d620174", "vout": [{"scriptPubKey": {"reqSigs": 1, "hex": "a914806a8dab22c70b30bd2fa925093715561709885087", "addresses": ["3DQ24ZHsLeT4Kzo1H7Gr9VmNAg7emp8paH"], "asm": "OP_HASH160 806a8dab22c70b30bd2fa9250937155617098850 OP_EQUAL", "type": "scripthash"}, "value": 0.00419, "n": 0}, {"scriptPubKey": {"reqSigs": 1, "hex": "76a914b7888cc82fdecaf88856880550ac43fe948b8cae88ac", "addresses": ["1HjSEm71Kqt31Va9JhJk2SvztwotZkQJFN"], "asm": "OP_DUP OP_HASH160 b7888cc82fdecaf88856880550ac43fe948b8cae OP_EQUALVERIFY OP_CHECKSIG", "type": "pubkeyhash"}, "value": 0.00518838, "n": 1}], "hex": "020000000125d8a431179a812ca224b0d57c771f451859b439ae737406e0222ff06a3cfd89120000006a4730440220053055b488065d8f22dfd5724c8ba5a78652340536cc00ed7355db643f7692c0022047a5ff4b1ac786cce5d20a943bf773a3ef883eec04091c812fbcd71098af8719012102e087b9f820684f8b429620ae185bad213501409fc253b7dadb66a96a8bee09dfffffffff02b86406000000000017a914806a8dab22c70b30bd2fa925093715561709885087b6ea0700000000001976a914b7888cc82fdecaf88856880550ac43fe948b8cae88ac00000000", "vin": [{"sequence": 4294967295, "scriptSig": {"hex": "4730440220053055b488065d8f22dfd5724c8ba5a78652340536cc00ed7355db643f7692c0022047a5ff4b1ac786cce5d20a943bf773a3ef883eec04091c812fbcd71098af8719012102e087b9f820684f8b429620ae185bad213501409fc253b7dadb66a96a8bee09df", "asm": "30440220053055b488065d8f22dfd5724c8ba5a78652340536cc00ed7355db643f7692c0022047a5ff4b1ac786cce5d20a943bf773a3ef883eec04091c812fbcd71098af8719[ALL] 02e087b9f820684f8b429620ae185bad213501409fc253b7dadb66a96a8bee09df"}, "vout": 18, "txid": "89fd3c6af02f22e0067473ae39b45918451f777cd5b024a22c819a1731a4d825"}], "txid": "1632068ae7aa2f3aa98ff2877138e09274355e1bdd72cee66c82fc9c89b9aa72", "blocktime": 1537870268, "version": 2, "confirmations": 11516, "time": 1537870268, "locktime": 0, "vsize": 223, "size": 223}