{"hash": "7b575bcb271020d3e88a02674ac18907f834ce3c0078461ced0a927bc671b7c6", "blockhash": "0000000000000000001e0dab787dd257d1dbfcb92a98c2207d5e1078be1f4165", "vout": [{"scriptPubKey": {"reqSigs": 1, "hex": "0014dd87b714b7608f4eeae01d837da54aaa710781e2", "addresses": ["bc1qmkrmw99hvz85a6hqrkphmf224fcs0q0z7jjfkz"], "asm": "0 dd87b714b7608f4eeae01d837da54aaa710781e2", "type": "witness_v0_keyhash"}, "value": 0.03269901, "n": 0}, {"scriptPubKey": {"reqSigs": 1, "hex": "76a9141633b816992bab903441cd80aed10ce9f80aa77f88ac", "addresses": ["132Ppj7BcdpKiwkXdriPeZBceB8mp86pFo"], "asm": "OP_DUP OP_HASH160 1633b816992bab903441cd80aed10ce9f80aa77f OP_EQUALVERIFY OP_CHECKSIG", "type": "pubkeyhash"}, "value": 0.06249238, "n": 1}], "hex": "0100000000010165b44249277b75af4b25c3f6e47c7dc546f5e21b211641593b45d142d6c32ea00100000017160014e4a558df8f6dd51e55c68fd69b2a85bf75d99d39ffffffff020de5310000000000160014dd87b714b7608f4eeae01d837da54aaa710781e2165b5f00000000001976a9141633b816992bab903441cd80aed10ce9f80aa77f88ac02483045022100afe228affd0fda7b56d587378033c438fdd9fc2bad6938bdbf8015c445c4c97902201684d6a3001d4c3e78e49b3d5416c5aefe68c2a9c20736afe76119860d1325ce012102473f8927dc142671d5469b8b1836683d5d0d0b0b134a1074fe19e402e2b8755e00000000", "vin": [{"txinwitness": ["3045022100afe228affd0fda7b56d587378033c438fdd9fc2bad6938bdbf8015c445c4c97902201684d6a3001d4c3e78e49b3d5416c5aefe68c2a9c20736afe76119860d1325ce01", "02473f8927dc142671d5469b8b1836683d5d0d0b0b134a1074fe19e402e2b8755e"], "sequence": 4294967295, "scriptSig": {"hex": "160014e4a558df8f6dd51e55c68fd69b2a85bf75d99d39", "asm": "0014e4a558df8f6dd51e55c68fd69b2a85bf75d99d39"}, "vout": 1, "txid": "a02ec3d642d1453b594116211be2f546c57d7ce4f6c3254baf757b274942b465"}], "txid": "163345b405e6dcc6b4f188e9bc4df8643a2e20b225c75922f7772566f9e84b9c", "blocktime": 1537872475, "version": 1, "confirmations": 11487, "time": 1537872475, "locktime": 0, "vsize": 167, "size": 249}