{"hash": "f8b11dda68aa0de25f2cc6e1f7c0c1333fd2b0492997da21a5cc25e0d44b2117", "blockhash": "0000000000000000001cda96e906b7601b7a6fb1a3b62bca570a9e5d8f4b3de1", "vout": [{"scriptPubKey": {"reqSigs": 1, "hex": "a9147dc190649a1ad76a049d482dbcfabf24aa2d301c87", "addresses": ["3D9xGb2a6iLU5Vgz5UiJSeMjas8cHMZpcX"], "asm": "OP_HASH160 7dc190649a1ad76a049d482dbcfabf24aa2d301c OP_EQUAL", "type": "scripthash"}, "value": 0.00011762, "n": 0}, {"scriptPubKey": {"reqSigs": 1, "hex": "a9140be7846be16b05bea00dbec2fcd7e045a793cb1787", "addresses": ["32mxhko5mJHfkbkDPpz7SfdJwEJi21P1WK"], "asm": "OP_HASH160 0be7846be16b05bea00dbec2fcd7e045a793cb17 OP_EQUAL", "type": "scripthash"}, "value": 0.1920418, "n": 1}], "hex": "01000000000101c793cb19dc7c3048659e7722b9bcba86cd9049f457cb4583dc03a2f4cc1fcac501000000232200202c66ece6da72bcbfeadf83a91236f4891c13e14d8ecebdcaa81666fc1aa73a31ffffffff02f22d00000000000017a9147dc190649a1ad76a049d482dbcfabf24aa2d301c87540825010000000017a9140be7846be16b05bea00dbec2fcd7e045a793cb17870400483045022100cae361eced57597d8ef88f3245384bd20de022368e7bf6d59d7e2ef1a2d1f8520220195f09ce276660cbf635731bfca65956b1a3643d31b86d86bd73faad4611d1300147304402207fe62d02547ac4128f37b9e7948a47983e64bf4f6ac38250ddc3d579b810dbab02204d3f9326369144a2abae5468966c8d3d0daa336f91d866df7923dfd21aaaeecf01475221029e6fbb942d34a473faaa5557c1bfe08d72102f0b9754ad140fd369d7a3ba3cdc2103871fc2ca08e6950b38867e8e6a0e94ee625223d3aa0df5c65f414c6d784467e252ae00000000", "vin": [{"txinwitness": ["", "3045022100cae361eced57597d8ef88f3245384bd20de022368e7bf6d59d7e2ef1a2d1f8520220195f09ce276660cbf635731bfca65956b1a3643d31b86d86bd73faad4611d13001", "304402207fe62d02547ac4128f37b9e7948a47983e64bf4f6ac38250ddc3d579b810dbab02204d3f9326369144a2abae5468966c8d3d0daa336f91d866df7923dfd21aaaeecf01", "5221029e6fbb942d34a473faaa5557c1bfe08d72102f0b9754ad140fd369d7a3ba3cdc2103871fc2ca08e6950b38867e8e6a0e94ee625223d3aa0df5c65f414c6d784467e252ae"], "sequence": 4294967295, "scriptSig": {"hex": "2200202c66ece6da72bcbfeadf83a91236f4891c13e14d8ecebdcaa81666fc1aa73a31", "asm": "00202c66ece6da72bcbfeadf83a91236f4891c13e14d8ecebdcaa81666fc1aa73a31"}, "vout": 1, "txid": "c5ca1fccf4a203dc8345cb57f44990cd86babcb922779e6548307cdc19cb93c7"}], "txid": "16344cba7e939162229d9ede775f19ed9389bb0a2786f03affc1469e6dd86920", "blocktime": 1537873282, "version": 1, "confirmations": 11484, "time": 1537873282, "locktime": 0, "vsize": 206, "size": 371}