{"hash": "7958d1db9fe126f95d5329dc7d99158a7489dc2ff905f920a42bf7a1c212bcbb", "blockhash": "0000000000000000000dcc0f55137456b1a82d3642486a52398922ac4d620174", "vout": [{"scriptPubKey": {"reqSigs": 1, "hex": "a914411778417f4e34569aa3cf48de2bc8722690572687", "addresses": ["37dBxiggMN1GKpXPiF7kBKr277c544AXda"], "asm": "OP_HASH160 411778417f4e34569aa3cf48de2bc87226905726 OP_EQUAL", "type": "scripthash"}, "value": 0.01807506, "n": 0}, {"scriptPubKey": {"reqSigs": 1, "hex": "76a914c210381bcc32f2b4f1577eeb77d7611dee3887dc88ac", "addresses": ["1Jh7X9JKJD2EjNHwdBtpsJ4p75ELm6WmGR"], "asm": "OP_DUP OP_HASH160 c210381bcc32f2b4f1577eeb77d7611dee3887dc OP_EQUALVERIFY OP_CHECKSIG", "type": "pubkeyhash"}, "value": 0.00219858, "n": 1}], "hex": "0200000000010216b04714fdf0ccc2d390437c103b44ce6c64a071b4dffa85adc466cd5059a8760100000017160014013f194e0b34331c3e7f8ccf09900ee30b95bbfffeffffff8fc44b5afd087fa013dd7766260822eadacf2fe1bb14f23c3360464b8a20dc1900000000171600148a435a57b4630ced12eb435d2195750d26a3916afeffffff0292941b000000000017a914411778417f4e34569aa3cf48de2bc8722690572687d25a0300000000001976a914c210381bcc32f2b4f1577eeb77d7611dee3887dc88ac02483045022100d7ab2795fc25d24a8bc512d28cd556c64e3d1fd7342f815f54df5203bc9d179c02201726a9bf58bfa75d076abc488e814520f37362917d2ae3f0c509564e64eb5964012102b6608a6536016dfad1fad5be0b8825a0b7c9bdbea4efa8e3136ee6e7a8f498b902483045022100d8cd79c82d09eb122da2ddb50cb9e97e08e41c5844afe8f01c93bf50b94f5174022039113307571f607ea32aac0dff43cc8659c3296265d00aed947fdb96764066d1012102438f4c642eaaf4fbbac6c075306c357d9e7068c078be7d858c790a93f763b6d60c490800", "vin": [{"txinwitness": ["3045022100d7ab2795fc25d24a8bc512d28cd556c64e3d1fd7342f815f54df5203bc9d179c02201726a9bf58bfa75d076abc488e814520f37362917d2ae3f0c509564e64eb596401", "02b6608a6536016dfad1fad5be0b8825a0b7c9bdbea4efa8e3136ee6e7a8f498b9"], "sequence": 4294967294, "scriptSig": {"hex": "160014013f194e0b34331c3e7f8ccf09900ee30b95bbff", "asm": "0014013f194e0b34331c3e7f8ccf09900ee30b95bbff"}, "vout": 1, "txid": "76a85950cd66c4ad85fadfb471a0646cce443b107c4390d3c2ccf0fd1447b016"}, {"txinwitness": ["3045022100d8cd79c82d09eb122da2ddb50cb9e97e08e41c5844afe8f01c93bf50b94f5174022039113307571f607ea32aac0dff43cc8659c3296265d00aed947fdb96764066d101", "02438f4c642eaaf4fbbac6c075306c357d9e7068c078be7d858c790a93f763b6d6"], "sequence": 4294967294, "scriptSig": {"hex": "1600148a435a57b4630ced12eb435d2195750d26a3916a", "asm": "00148a435a57b4630ced12eb435d2195750d26a3916a"}, "vout": 0, "txid": "19dc208a4b4660333cf214bbe12fcfdaea2208266677dd13a07f08fd5a4bc48f"}], "txid": "163a80626481b5695334dcbcdc2af7d4ec98f14277024e304562793f18feceba", "blocktime": 1537870268, "version": 2, "confirmations": 11518, "time": 1537870268, "locktime": 542988, "vsize": 259, "size": 422}