{"hash": "163ae8934e85946eb50d86879b7f459ed277ab043212350d1a16c296abb5e52a", "blockhash": "00000000000000000018f53835495a110e01622372bf6ae95dc86f2b0ab887b0", "vout": [{"scriptPubKey": {"reqSigs": 1, "hex": "a914ec49e24cd0b8b47daf07bf76b50f4152b3bf4ee187", "addresses": ["3PEPuN83kr84LwpBcoF1WAYMDPpz8sCH5D"], "asm": "OP_HASH160 ec49e24cd0b8b47daf07bf76b50f4152b3bf4ee1 OP_EQUAL", "type": "scripthash"}, "value": 0.0023786, "n": 0}, {"scriptPubKey": {"reqSigs": 1, "hex": "76a9147136b4ab5d869183ab1be02dab6e65efd12686df88ac", "addresses": ["1BKcthW1E3pVkD16ipXYhitGDBb8uyPnzd"], "asm": "OP_DUP OP_HASH160 7136b4ab5d869183ab1be02dab6e65efd12686df OP_EQUALVERIFY OP_CHECKSIG", "type": "pubkeyhash"}, "value": 0.02774734, "n": 1}], "hex": "0100000001f083f92aa4aee4d1279bbdc91fd63ab3b89288423eee595cfe2a584e3873babb010000006a47304402200fa6b310f795a113a35de7ba33f7436ffc50080fb4fac541fb9495a4490456d70220676981f3eb4d1787ca8e206ca35d0baf909eb0d81a034f36474231cda57a09c1012102bdf941f5fb5089b8dbd3bfb58e52cb4acf614593510922060d85af74a1ab36dcffffffff0224a103000000000017a914ec49e24cd0b8b47daf07bf76b50f4152b3bf4ee187ce562a00000000001976a9147136b4ab5d869183ab1be02dab6e65efd12686df88ac00000000", "vin": [{"sequence": 4294967295, "scriptSig": {"hex": "47304402200fa6b310f795a113a35de7ba33f7436ffc50080fb4fac541fb9495a4490456d70220676981f3eb4d1787ca8e206ca35d0baf909eb0d81a034f36474231cda57a09c1012102bdf941f5fb5089b8dbd3bfb58e52cb4acf614593510922060d85af74a1ab36dc", "asm": "304402200fa6b310f795a113a35de7ba33f7436ffc50080fb4fac541fb9495a4490456d70220676981f3eb4d1787ca8e206ca35d0baf909eb0d81a034f36474231cda57a09c1[ALL] 02bdf941f5fb5089b8dbd3bfb58e52cb4acf614593510922060d85af74a1ab36dc"}, "vout": 1, "txid": "bbba73384e582afe5c59ee3e428892b8b33ad61fc9bd9b27d1e4aea42af983f0"}], "txid": "163ae8934e85946eb50d86879b7f459ed277ab043212350d1a16c296abb5e52a", "blocktime": 1537870928, "version": 1, "confirmations": 11514, "time": 1537870928, "locktime": 0, "vsize": 223, "size": 223}