{"hash": "16400411c953f2cd2ad8ca6b36841d503e3ef853448dd522e1eba59403b5f018", "blockhash": "0000000000000000001f76057863aec43deb6fa401d9628bb513d65a8098bfab", "vout": [{"scriptPubKey": {"reqSigs": 1, "hex": "a914cd60dccf2a8215c6b836f4f4939123f8963a723287", "addresses": ["3LQxUzikM2rWBhUFrLFNiuWPbPLLJn84DB"], "asm": "OP_HASH160 cd60dccf2a8215c6b836f4f4939123f8963a7232 OP_EQUAL", "type": "scripthash"}, "value": 0.002874, "n": 0}], "hex": "010000000101ba074a491893464e430f4da2c26524e672311b78adf33bb32549423599071c0c0000008a473044022041f2268b2ba1cbd2721645243715943953af195da60e2a4aee0fb8d8b57aba2b02202f96931cfa2a9171d914c197b6ef21a3a43edfec4a7cc45968f71fd9a9f1d9060141041b3f99b16a6c480c7871a952806ed8897289c1e0322e32d97e0bc496e8572c773faa3b319423b39ff3317f8f4a96a881cc96cb3ab6069dac94ac39afc3fd911dffffffff01a86204000000000017a914cd60dccf2a8215c6b836f4f4939123f8963a72328700000000", "vin": [{"sequence": 4294967295, "scriptSig": {"hex": "473044022041f2268b2ba1cbd2721645243715943953af195da60e2a4aee0fb8d8b57aba2b02202f96931cfa2a9171d914c197b6ef21a3a43edfec4a7cc45968f71fd9a9f1d9060141041b3f99b16a6c480c7871a952806ed8897289c1e0322e32d97e0bc496e8572c773faa3b319423b39ff3317f8f4a96a881cc96cb3ab6069dac94ac39afc3fd911d", "asm": "3044022041f2268b2ba1cbd2721645243715943953af195da60e2a4aee0fb8d8b57aba2b02202f96931cfa2a9171d914c197b6ef21a3a43edfec4a7cc45968f71fd9a9f1d906[ALL] 041b3f99b16a6c480c7871a952806ed8897289c1e0322e32d97e0bc496e8572c773faa3b319423b39ff3317f8f4a96a881cc96cb3ab6069dac94ac39afc3fd911d"}, "vout": 12, "txid": "1c079935424925b33bf3ad781b3172e62465c2a24d0f434e469318494a07ba01"}], "txid": "16400411c953f2cd2ad8ca6b36841d503e3ef853448dd522e1eba59403b5f018", "blocktime": 1537873891, "version": 1, "confirmations": 11475, "time": 1537873891, "locktime": 0, "vsize": 221, "size": 221}