{"hash": "1642e203e4b0fa554f5076ac9e10cf34fae2efaf08f89bfd3783d2a157f3772e", "blockhash": "0000000000000000001f76057863aec43deb6fa401d9628bb513d65a8098bfab", "vout": [{"scriptPubKey": {"reqSigs": 1, "hex": "76a9149d29b828fbd88ad2421b3d902517948fa0212ef488ac", "addresses": ["1FL14qASph8GMzrq9Hn3Gd6Bj8wr5yKign"], "asm": "OP_DUP OP_HASH160 9d29b828fbd88ad2421b3d902517948fa0212ef4 OP_EQUALVERIFY OP_CHECKSIG", "type": "pubkeyhash"}, "value": 0.00998255, "n": 0}, {"scriptPubKey": {"reqSigs": 1, "hex": "a9142fd084e8de6e593307313dc56dfeff9e49b92b9c87", "addresses": ["363qUj5UpHHwwC2fjinYdtYVKGSWwfhRUF"], "asm": "OP_HASH160 2fd084e8de6e593307313dc56dfeff9e49b92b9c OP_EQUAL", "type": "scripthash"}, "value": 0.16161342, "n": 1}], "hex": "0200000004d88d5b0e019e0d13d32651bc310ae1a6a46002ed5e2dabc0e9caa3c5db61d42e010000006b483045022100f7fe6f5c2fac5069999176f3f6d58029b0a50f5c306b9213ffdcecf4cb3bd3600220693eb4e5a7f0435095becd46dd3c50ea7f6b125235dd7fe9d83ac5980f65dd710121020fa7f670837fb0796d38c49fcef543eafe12c3a9c2506d39c0b7bf080db1aeadfeffffffa5f86d7f00d401cfb167890c2bfae0ec6371e72e904420b9308c005d35718b38050000006a47304402206587af1a8d07cc7d2c0525ec4107241e92844302fb8110439e30cf32f6a9373b02207ce0c870a9a4727ea86ddaf974b8e50c43f034db744c3bc1093504212bf9f3110121036fd4bda3303adbb2708f0c4d678c4c63627634a11e2a49e03e627599939a0781feffffffee13e87af9a4149ed3d2d6f8bd14f8bc297fcf7586b1ddb60d4382715896d42b190000006a47304402205d8933c84d3742bed3fa778bedf2a228167bdb9bd27bb19dcccae4709bd9fda2022010039ed29f8120d1beef57325976566e8fe8c73361636d4de7135146b8744f580121020ef17c4007c86d415a39d4fc4c25aaa90e2f2d0bb1d24445a790d264c2bc9908feffffff6087cde6acb92aab7926d7f54f57d824a0f4c72b2971b4b728ff0608e5fc5356200000006a4730440220088b48008a3a8dc679a860e05145bd656afa3a1674efee4da58e53f1eaf904e5022055b65cd84159eba805bf26e9b60627c249f65ebd6c953319ea5c69edbe9ead1d012103467a062909eede0f72b6df7c136ebd4fadc91fb72f914222a16afd56b2324b51feffffff026f3b0f00000000001976a9149d29b828fbd88ad2421b3d902517948fa0212ef488ac3e9af6000000000017a9142fd084e8de6e593307313dc56dfeff9e49b92b9c8713490800", "vin": [{"sequence": 4294967294, "scriptSig": {"hex": "483045022100f7fe6f5c2fac5069999176f3f6d58029b0a50f5c306b9213ffdcecf4cb3bd3600220693eb4e5a7f0435095becd46dd3c50ea7f6b125235dd7fe9d83ac5980f65dd710121020fa7f670837fb0796d38c49fcef543eafe12c3a9c2506d39c0b7bf080db1aead", "asm": "3045022100f7fe6f5c2fac5069999176f3f6d58029b0a50f5c306b9213ffdcecf4cb3bd3600220693eb4e5a7f0435095becd46dd3c50ea7f6b125235dd7fe9d83ac5980f65dd71[ALL] 020fa7f670837fb0796d38c49fcef543eafe12c3a9c2506d39c0b7bf080db1aead"}, "vout": 1, "txid": "2ed461dbc5a3cae9c0ab2d5eed0260a4a6e10a31bc5126d3130d9e010e5b8dd8"}, {"sequence": 4294967294, "scriptSig": {"hex": "47304402206587af1a8d07cc7d2c0525ec4107241e92844302fb8110439e30cf32f6a9373b02207ce0c870a9a4727ea86ddaf974b8e50c43f034db744c3bc1093504212bf9f3110121036fd4bda3303adbb2708f0c4d678c4c63627634a11e2a49e03e627599939a0781", "asm": "304402206587af1a8d07cc7d2c0525ec4107241e92844302fb8110439e30cf32f6a9373b02207ce0c870a9a4727ea86ddaf974b8e50c43f034db744c3bc1093504212bf9f311[ALL] 036fd4bda3303adbb2708f0c4d678c4c63627634a11e2a49e03e627599939a0781"}, "vout": 5, "txid": "388b71355d008c30b92044902ee77163ece0fa2b0c8967b1cf01d4007f6df8a5"}, {"sequence": 4294967294, "scriptSig": {"hex": "47304402205d8933c84d3742bed3fa778bedf2a228167bdb9bd27bb19dcccae4709bd9fda2022010039ed29f8120d1beef57325976566e8fe8c73361636d4de7135146b8744f580121020ef17c4007c86d415a39d4fc4c25aaa90e2f2d0bb1d24445a790d264c2bc9908", "asm": "304402205d8933c84d3742bed3fa778bedf2a228167bdb9bd27bb19dcccae4709bd9fda2022010039ed29f8120d1beef57325976566e8fe8c73361636d4de7135146b8744f58[ALL] 020ef17c4007c86d415a39d4fc4c25aaa90e2f2d0bb1d24445a790d264c2bc9908"}, "vout": 25, "txid": "2bd496587182430db6ddb18675cf7f29bcf814bdf8d6d2d39e14a4f97ae813ee"}, {"sequence": 4294967294, "scriptSig": {"hex": "4730440220088b48008a3a8dc679a860e05145bd656afa3a1674efee4da58e53f1eaf904e5022055b65cd84159eba805bf26e9b60627c249f65ebd6c953319ea5c69edbe9ead1d012103467a062909eede0f72b6df7c136ebd4fadc91fb72f914222a16afd56b2324b51", "asm": "30440220088b48008a3a8dc679a860e05145bd656afa3a1674efee4da58e53f1eaf904e5022055b65cd84159eba805bf26e9b60627c249f65ebd6c953319ea5c69edbe9ead1d[ALL] 03467a062909eede0f72b6df7c136ebd4fadc91fb72f914222a16afd56b2324b51"}, "vout": 32, "txid": "5653fce50806ff28b7b471292bc7f4a024d8574ff5d72679ab2ab9ace6cd8760"}], "txid": "1642e203e4b0fa554f5076ac9e10cf34fae2efaf08f89bfd3783d2a157f3772e", "blocktime": 1537873891, "version": 2, "confirmations": 11478, "time": 1537873891, "locktime": 542995, "vsize": 665, "size": 665}