{"hash": "1648f790ffc136770efafdec6551d7c2e6ceaacb3a54ebe4836093555fd97978", "blockhash": "0000000000000000000e13cef7c366c0283d82e591d1acd082e914b08063cdf1", "vout": [{"scriptPubKey": {"reqSigs": 1, "hex": "76a914f1c978f2f29183b1e5ebc80be614860dfc66f3f188ac", "addresses": ["1P3TCnQYUnVUYkeVLjRZ9cgVS8brToriHU"], "asm": "OP_DUP OP_HASH160 f1c978f2f29183b1e5ebc80be614860dfc66f3f1 OP_EQUALVERIFY OP_CHECKSIG", "type": "pubkeyhash"}, "value": 0.095984, "n": 0}, {"scriptPubKey": {"reqSigs": 1, "hex": "76a91498270631de4fa0bd6d7a728506a5773ecdd2727888ac", "addresses": ["1EsWTcDAoUb54nZPWBVLBfnvzHqPpkKmYo"], "asm": "OP_DUP OP_HASH160 98270631de4fa0bd6d7a728506a5773ecdd27278 OP_EQUALVERIFY OP_CHECKSIG", "type": "pubkeyhash"}, "value": 0.00537733, "n": 1}], "hex": "01000000029229c98478c0f94933a6117b647c2765338f9f97e71423050a3024d37286b2a10f0000006b483045022100e25aaeddccf174bf1de3b664b3dd1f3dea30cedc4a05bcfa44d47e8e73c4c1d602200097390ec599fdd1cd6f43ec342ce05adcf5af6fe2c47fb483b03cdcd1731cd9012102513b577254cd9a3db861b86094922b6bff85fde0c185154ead65407f45acacc8ffffffff449609fbd3e3a97571a637c713d5a1f9e2876b66ee24b3a0ef040ab02c4b5400000000006a4730440220615df614e29a606bf8186f206feddec01a0be04a418b7ba6d09b6b619f1036ee02201cb96dbd442ca56947bded97f13fff3325a28b9cc78a7af8f389135a5f4f37880121030881e363e39adb0ac34356a9c35f5d775fdba802b4170210f349a691c3935ae1ffffffff02c0759200000000001976a914f1c978f2f29183b1e5ebc80be614860dfc66f3f188ac85340800000000001976a91498270631de4fa0bd6d7a728506a5773ecdd2727888ac00000000", "vin": [{"sequence": 4294967295, "scriptSig": {"hex": "483045022100e25aaeddccf174bf1de3b664b3dd1f3dea30cedc4a05bcfa44d47e8e73c4c1d602200097390ec599fdd1cd6f43ec342ce05adcf5af6fe2c47fb483b03cdcd1731cd9012102513b577254cd9a3db861b86094922b6bff85fde0c185154ead65407f45acacc8", "asm": "3045022100e25aaeddccf174bf1de3b664b3dd1f3dea30cedc4a05bcfa44d47e8e73c4c1d602200097390ec599fdd1cd6f43ec342ce05adcf5af6fe2c47fb483b03cdcd1731cd9[ALL] 02513b577254cd9a3db861b86094922b6bff85fde0c185154ead65407f45acacc8"}, "vout": 15, "txid": "a1b28672d324300a052314e7979f8f3365277c647b11a63349f9c07884c92992"}, {"sequence": 4294967295, "scriptSig": {"hex": "4730440220615df614e29a606bf8186f206feddec01a0be04a418b7ba6d09b6b619f1036ee02201cb96dbd442ca56947bded97f13fff3325a28b9cc78a7af8f389135a5f4f37880121030881e363e39adb0ac34356a9c35f5d775fdba802b4170210f349a691c3935ae1", "asm": "30440220615df614e29a606bf8186f206feddec01a0be04a418b7ba6d09b6b619f1036ee02201cb96dbd442ca56947bded97f13fff3325a28b9cc78a7af8f389135a5f4f3788[ALL] 030881e363e39adb0ac34356a9c35f5d775fdba802b4170210f349a691c3935ae1"}, "vout": 0, "txid": "00544b2cb00a04efa0b324ee666b87e2f9a1d513c737a67175a9e3d3fb099644"}], "txid": "1648f790ffc136770efafdec6551d7c2e6ceaacb3a54ebe4836093555fd97978", "blocktime": 1537871767, "version": 1, "confirmations": 11490, "time": 1537871767, "locktime": 0, "vsize": 373, "size": 373}