{"hash": "1649950d2345691b637476d9181a443356da266167b12cc84e9b82301fce0ef9", "blockhash": "0000000000000000000e13cef7c366c0283d82e591d1acd082e914b08063cdf1", "vout": [{"scriptPubKey": {"reqSigs": 1, "hex": "76a9140dd7bfbd1cf7adb86f871e1e750f920ced2f66c888ac", "addresses": ["12GCEzkUzHCa8rn4C3B6rZS8hN1V1xSbvd"], "asm": "OP_DUP OP_HASH160 0dd7bfbd1cf7adb86f871e1e750f920ced2f66c8 OP_EQUALVERIFY OP_CHECKSIG", "type": "pubkeyhash"}, "value": 0.15622266, "n": 0}, {"scriptPubKey": {"reqSigs": 1, "hex": "76a914e96806ad90c2eb25c718cdc851df8e09f327b09b88ac", "addresses": ["1NH94ZECmknN2yHrvUDiH5ZokoWKgWEBWe"], "asm": "OP_DUP OP_HASH160 e96806ad90c2eb25c718cdc851df8e09f327b09b OP_EQUALVERIFY OP_CHECKSIG", "type": "pubkeyhash"}, "value": 0.57115002, "n": 1}], "hex": "0100000001b5efc825ac8610229673b85bc5a71387763f9e442fafdbead8d33398a9f30787010000006b483045022100b0c761183fefc9bb4acadfd8ba634bfe0416a95ef16105ca8255fb57be911ddf02203e3e9cd22615f08ccc6e1fb627cbad2949b5ec44e0cec5a64012a3b93e7daf7d012102e860ef63f828595dfff0f240d83cb2bdd2706e2827b9dd8c20412a99ab889910ffffffff027a60ee00000000001976a9140dd7bfbd1cf7adb86f871e1e750f920ced2f66c888ac7a816703000000001976a914e96806ad90c2eb25c718cdc851df8e09f327b09b88ac00000000", "vin": [{"sequence": 4294967295, "scriptSig": {"hex": "483045022100b0c761183fefc9bb4acadfd8ba634bfe0416a95ef16105ca8255fb57be911ddf02203e3e9cd22615f08ccc6e1fb627cbad2949b5ec44e0cec5a64012a3b93e7daf7d012102e860ef63f828595dfff0f240d83cb2bdd2706e2827b9dd8c20412a99ab889910", "asm": "3045022100b0c761183fefc9bb4acadfd8ba634bfe0416a95ef16105ca8255fb57be911ddf02203e3e9cd22615f08ccc6e1fb627cbad2949b5ec44e0cec5a64012a3b93e7daf7d[ALL] 02e860ef63f828595dfff0f240d83cb2bdd2706e2827b9dd8c20412a99ab889910"}, "vout": 1, "txid": "8707f3a99833d3d8eadbaf2f449e3f768713a7c55bb87396221086ac25c8efb5"}], "txid": "1649950d2345691b637476d9181a443356da266167b12cc84e9b82301fce0ef9", "blocktime": 1537871767, "version": 1, "confirmations": 11493, "time": 1537871767, "locktime": 0, "vsize": 226, "size": 226}