{"hash": "164ea6470d8a643c21ce006d0043ca0a66ec75415436c38d1843dfdfa6e69019", "blockhash": "00000000000000000018f53835495a110e01622372bf6ae95dc86f2b0ab887b0", "vout": [{"scriptPubKey": {"reqSigs": 1, "hex": "a914a4d26a1581c5903da3787104f04462f5e367a35787", "addresses": ["3GiWorNkSv4QgQqKeUhBn5ddNgKNTrPW7h"], "asm": "OP_HASH160 a4d26a1581c5903da3787104f04462f5e367a357 OP_EQUAL", "type": "scripthash"}, "value": 0.0005, "n": 0}, {"scriptPubKey": {"reqSigs": 1, "hex": "76a914e349bc52d6b8100b58d3fce45135a91c5c128a1d88ac", "addresses": ["1MiningDkXkhKaXBTMKXfLemnk1YY5rbkT"], "asm": "OP_DUP OP_HASH160 e349bc52d6b8100b58d3fce45135a91c5c128a1d OP_EQUALVERIFY OP_CHECKSIG", "type": "pubkeyhash"}, "value": 0.01932865, "n": 1}], "hex": "020000000138adab877bb039e47ff1bd757ff781af59b0dfecf815d02335b3ec2f1f634db2010000008a47304402202db70ff6ff19c9391cc8867d5c7f758236f9c131583df6363845451b37a43a6f02201190c6164c15b5e76b7c40cc98314f529a6c7ca5262aab4607f595e13a17334e014104ae414abde7876c34e01694b38b2341d10b9b4c8db18a66262bd8df26bcb57893885c9fe8b79aa25330d5f05bb5aa9ab636a908a72e27956572b44190b22809beffffffff0250c300000000000017a914a4d26a1581c5903da3787104f04462f5e367a35787417e1d00000000001976a914e349bc52d6b8100b58d3fce45135a91c5c128a1d88ac00000000", "vin": [{"sequence": 4294967295, "scriptSig": {"hex": "47304402202db70ff6ff19c9391cc8867d5c7f758236f9c131583df6363845451b37a43a6f02201190c6164c15b5e76b7c40cc98314f529a6c7ca5262aab4607f595e13a17334e014104ae414abde7876c34e01694b38b2341d10b9b4c8db18a66262bd8df26bcb57893885c9fe8b79aa25330d5f05bb5aa9ab636a908a72e27956572b44190b22809be", "asm": "304402202db70ff6ff19c9391cc8867d5c7f758236f9c131583df6363845451b37a43a6f02201190c6164c15b5e76b7c40cc98314f529a6c7ca5262aab4607f595e13a17334e[ALL] 04ae414abde7876c34e01694b38b2341d10b9b4c8db18a66262bd8df26bcb57893885c9fe8b79aa25330d5f05bb5aa9ab636a908a72e27956572b44190b22809be"}, "vout": 1, "txid": "b24d631f2fecb33523d015f8ecdfb059af81f77f75bdf17fe439b07b87abad38"}], "txid": "164ea6470d8a643c21ce006d0043ca0a66ec75415436c38d1843dfdfa6e69019", "blocktime": 1537870928, "version": 2, "confirmations": 11514, "time": 1537870928, "locktime": 0, "vsize": 255, "size": 255}