{"hash": "1650d22ecd3bf1d5ae1df06e4872bc682fe23b1634965db2231df22656f86151", "blockhash": "000000000000000000022b45ed06c6f4ccd3cf7fb5ba4856ebd2e58215665228", "vout": [{"scriptPubKey": {"reqSigs": 1, "hex": "a914b8642f81577dc235641aca6c6e174efaf458395587", "addresses": ["3JVzGrbBXFafBNcR6DVGyZgnYWdfqyTyUv"], "asm": "OP_HASH160 b8642f81577dc235641aca6c6e174efaf4583955 OP_EQUAL", "type": "scripthash"}, "value": 0.00255484, "n": 0}, {"scriptPubKey": {"reqSigs": 1, "hex": "76a914ec09c997443e880e410a61df1db9b621c6db719788ac", "addresses": ["1NX4CKP9J7Npcqwh8mZoATGdAy2U5pjt6H"], "asm": "OP_DUP OP_HASH160 ec09c997443e880e410a61df1db9b621c6db7197 OP_EQUALVERIFY OP_CHECKSIG", "type": "pubkeyhash"}, "value": 0.00502213, "n": 1}, {"scriptPubKey": {"reqSigs": 1, "hex": "76a914edfceda23c9f326ae29c5bfdbe2f5cfb75927b2d88ac", "addresses": ["1NhN9EBEWEE2Uv8nnYii68LskaBohcUZMA"], "asm": "OP_DUP OP_HASH160 edfceda23c9f326ae29c5bfdbe2f5cfb75927b2d OP_EQUALVERIFY OP_CHECKSIG", "type": "pubkeyhash"}, "value": 0.00026685, "n": 2}], "hex": "0100000001227db98d6d2a7d6a538ca53eb018dd98f5cddada925cf3b46e3eee32b67210b9000000006b483045022100bc3ca139d6d841adf1d154876cee7a9ccf97764012269cb24a55972fa5efcb8a02206a7abe64bb137ad16ba15d38ce8ef42196fb8651b26a813ffbeecc5cc60befa401210239688fdca09e620bc874058d44c326b426eb70515c21f20207c4bd7593b2d0e0ffffffff03fce503000000000017a914b8642f81577dc235641aca6c6e174efaf458395587c5a90700000000001976a914ec09c997443e880e410a61df1db9b621c6db719788ac3d680000000000001976a914edfceda23c9f326ae29c5bfdbe2f5cfb75927b2d88ac00000000", "vin": [{"sequence": 4294967295, "scriptSig": {"hex": "483045022100bc3ca139d6d841adf1d154876cee7a9ccf97764012269cb24a55972fa5efcb8a02206a7abe64bb137ad16ba15d38ce8ef42196fb8651b26a813ffbeecc5cc60befa401210239688fdca09e620bc874058d44c326b426eb70515c21f20207c4bd7593b2d0e0", "asm": "3045022100bc3ca139d6d841adf1d154876cee7a9ccf97764012269cb24a55972fa5efcb8a02206a7abe64bb137ad16ba15d38ce8ef42196fb8651b26a813ffbeecc5cc60befa4[ALL] 0239688fdca09e620bc874058d44c326b426eb70515c21f20207c4bd7593b2d0e0"}, "vout": 0, "txid": "b91072b632ee3e6eb4f35c92dadacdf598dd18b03ea58c536a7d2a6d8db97d22"}], "txid": "1650d22ecd3bf1d5ae1df06e4872bc682fe23b1634965db2231df22656f86151", "blocktime": 1537869901, "version": 1, "confirmations": 11523, "time": 1537869901, "locktime": 0, "vsize": 258, "size": 258}