{"hash": "1650f1ffb598286865b27b2bbd145f8bd7ea26d5ade6a38d43424c4f9c5040e1", "blockhash": "00000000000000000018f53835495a110e01622372bf6ae95dc86f2b0ab887b0", "vout": [{"scriptPubKey": {"reqSigs": 1, "hex": "a91427c7cb4f70e6b23904f9e3315d8bc3c1472a4d8887", "addresses": ["35KMcy7Gd19cEbfkFDvLFRsopq1bxF8awf"], "asm": "OP_HASH160 27c7cb4f70e6b23904f9e3315d8bc3c1472a4d88 OP_EQUAL", "type": "scripthash"}, "value": 0.00390824, "n": 0}, {"scriptPubKey": {"reqSigs": 1, "hex": "76a9142ef59a3bb8ebdd425ecf7c9204b2b500b6beef9e88ac", "addresses": ["15HJJaq2pvY2kXNzHyJxmR4ekD7vhc83HK"], "asm": "OP_DUP OP_HASH160 2ef59a3bb8ebdd425ecf7c9204b2b500b6beef9e OP_EQUALVERIFY OP_CHECKSIG", "type": "pubkeyhash"}, "value": 0.00021358, "n": 1}], "hex": "010000000122908e432f80fc2c1d24064a0f312b0a006af6b867619d0cac141e614e6af313010000006b483045022100dc59afd9b2912f8586720b0b2d8f9a3e971cd77041e7285e2bffc7721d3b475e02201c8baa37d51129ab640427a59b57f997573b6c7c6776c4abb13d1bf312b750bb012102bca414471b994928e70ca3ce6e9823db9aa989de98d553cffa886df0e9394f61ffffffff02a8f605000000000017a91427c7cb4f70e6b23904f9e3315d8bc3c1472a4d88876e530000000000001976a9142ef59a3bb8ebdd425ecf7c9204b2b500b6beef9e88ac00000000", "vin": [{"sequence": 4294967295, "scriptSig": {"hex": "483045022100dc59afd9b2912f8586720b0b2d8f9a3e971cd77041e7285e2bffc7721d3b475e02201c8baa37d51129ab640427a59b57f997573b6c7c6776c4abb13d1bf312b750bb012102bca414471b994928e70ca3ce6e9823db9aa989de98d553cffa886df0e9394f61", "asm": "3045022100dc59afd9b2912f8586720b0b2d8f9a3e971cd77041e7285e2bffc7721d3b475e02201c8baa37d51129ab640427a59b57f997573b6c7c6776c4abb13d1bf312b750bb[ALL] 02bca414471b994928e70ca3ce6e9823db9aa989de98d553cffa886df0e9394f61"}, "vout": 1, "txid": "13f36a4e611e14ac0c9d6167b8f66a000a2b310f4a06241d2cfc802f438e9022"}], "txid": "1650f1ffb598286865b27b2bbd145f8bd7ea26d5ade6a38d43424c4f9c5040e1", "blocktime": 1537870928, "version": 1, "confirmations": 11512, "time": 1537870928, "locktime": 0, "vsize": 224, "size": 224}