{"hash": "1656d2d70be2a0d94b579f7c8c628f65092ae0ef25fda3009db2fa1685fe9920", "blockhash": "0000000000000000000e13cef7c366c0283d82e591d1acd082e914b08063cdf1", "vout": [{"scriptPubKey": {"reqSigs": 1, "hex": "76a91461f2f8f8828a162900310fed7394a786fa29e1fc88ac", "addresses": ["19vucdsb9pGAFDHSVdEh9nfkbJBNzQHVRr"], "asm": "OP_DUP OP_HASH160 61f2f8f8828a162900310fed7394a786fa29e1fc OP_EQUALVERIFY OP_CHECKSIG", "type": "pubkeyhash"}, "value": 3.304e-05, "n": 0}, {"scriptPubKey": {"reqSigs": 1, "hex": "a914c96d47cca65363366b20a1c94f78b46de491115b87", "addresses": ["3L44f3NAWehES99QAMkxFEnn5dqCi8L1XU"], "asm": "OP_HASH160 c96d47cca65363366b20a1c94f78b46de491115b OP_EQUAL", "type": "scripthash"}, "value": 0.00093738, "n": 1}], "hex": "01000000024576fadc82894d15db495d6e288dd32c1e750ffd3ccbb2dca0ebf446ef19d502000000006b483045022100da8cfd7ea6829e52ddc11f901e77ac42c601b212aed518554bce3f0f2a2a6f43022018e1f08f9475e2fe8c538c0e1d70c79985d9e07090e61c6466e748cd74bf221701210210c862814e0b4ea1765cf49a5409e8bf8e944c6d552c4eabf2fa6a69bcea5978fffffffff94fc3b6eba3ed85b2ecf66883e6551c75764ad4e7c30aa7cc7ce58e2e2ff27b000000006b483045022100df424c17030d29f778b3368ef8aa0618a9c9b1dc49a377ce16e3231c846f0204022014057e9f28749dc20557aa21a21a00c3a1df167fa3df927427356296d6d7053d01210210c862814e0b4ea1765cf49a5409e8bf8e944c6d552c4eabf2fa6a69bcea5978ffffffff02e80c0000000000001976a91461f2f8f8828a162900310fed7394a786fa29e1fc88ac2a6e01000000000017a914c96d47cca65363366b20a1c94f78b46de491115b8700000000", "vin": [{"sequence": 4294967295, "scriptSig": {"hex": "483045022100da8cfd7ea6829e52ddc11f901e77ac42c601b212aed518554bce3f0f2a2a6f43022018e1f08f9475e2fe8c538c0e1d70c79985d9e07090e61c6466e748cd74bf221701210210c862814e0b4ea1765cf49a5409e8bf8e944c6d552c4eabf2fa6a69bcea5978", "asm": "3045022100da8cfd7ea6829e52ddc11f901e77ac42c601b212aed518554bce3f0f2a2a6f43022018e1f08f9475e2fe8c538c0e1d70c79985d9e07090e61c6466e748cd74bf2217[ALL] 0210c862814e0b4ea1765cf49a5409e8bf8e944c6d552c4eabf2fa6a69bcea5978"}, "vout": 0, "txid": "02d519ef46f4eba0dcb2cb3cfd0f751e2cd38d286e5d49db154d8982dcfa7645"}, {"sequence": 4294967295, "scriptSig": {"hex": "483045022100df424c17030d29f778b3368ef8aa0618a9c9b1dc49a377ce16e3231c846f0204022014057e9f28749dc20557aa21a21a00c3a1df167fa3df927427356296d6d7053d01210210c862814e0b4ea1765cf49a5409e8bf8e944c6d552c4eabf2fa6a69bcea5978", "asm": "3045022100df424c17030d29f778b3368ef8aa0618a9c9b1dc49a377ce16e3231c846f0204022014057e9f28749dc20557aa21a21a00c3a1df167fa3df927427356296d6d7053d[ALL] 0210c862814e0b4ea1765cf49a5409e8bf8e944c6d552c4eabf2fa6a69bcea5978"}, "vout": 0, "txid": "7bf22f2e8ee57ccca70ac3e7d44a76751c55e68368f6ecb285eda3ebb6c34ff9"}], "txid": "1656d2d70be2a0d94b579f7c8c628f65092ae0ef25fda3009db2fa1685fe9920", "blocktime": 1537871767, "version": 1, "confirmations": 11495, "time": 1537871767, "locktime": 0, "vsize": 372, "size": 372}