{"hash": "16607b65ec03a4b666893c3e74936e770da7035087f8d0e116a73049aaf2e8f4", "blockhash": "000000000000000000022b45ed06c6f4ccd3cf7fb5ba4856ebd2e58215665228", "vout": [{"scriptPubKey": {"reqSigs": 1, "hex": "a9147492d22a0e44aba7049996332d21c5a5651faa1c87", "addresses": ["3CKQC6TEeurN5zcL1UUsMvb5zyjCoHJz8K"], "asm": "OP_HASH160 7492d22a0e44aba7049996332d21c5a5651faa1c OP_EQUAL", "type": "scripthash"}, "value": 0.01703771, "n": 0}], "hex": "0100000001f6372047e5c3c4a18db2558715d07d99fead35ac260d0270bb13d2e6118781b00d0000006b483045022100aca7d1a9d8f1d860897ff3c35fba40df5fc41af06845f0581653e34e737c82150220052e5223b18165efe3a98b3a7a2241fba6225cd5ff859003732cd778bf5d1e37012102153803b985a3cd29bf6b852364e67bd82da69fd67f71e33f77d3e4922e509548ffffffff015bff19000000000017a9147492d22a0e44aba7049996332d21c5a5651faa1c8700000000", "vin": [{"sequence": 4294967295, "scriptSig": {"hex": "483045022100aca7d1a9d8f1d860897ff3c35fba40df5fc41af06845f0581653e34e737c82150220052e5223b18165efe3a98b3a7a2241fba6225cd5ff859003732cd778bf5d1e37012102153803b985a3cd29bf6b852364e67bd82da69fd67f71e33f77d3e4922e509548", "asm": "3045022100aca7d1a9d8f1d860897ff3c35fba40df5fc41af06845f0581653e34e737c82150220052e5223b18165efe3a98b3a7a2241fba6225cd5ff859003732cd778bf5d1e37[ALL] 02153803b985a3cd29bf6b852364e67bd82da69fd67f71e33f77d3e4922e509548"}, "vout": 13, "txid": "b0818711e6d213bb70020d26ac35adfe997dd0158755b28da1c4c3e5472037f6"}], "txid": "16607b65ec03a4b666893c3e74936e770da7035087f8d0e116a73049aaf2e8f4", "blocktime": 1537869901, "version": 1, "confirmations": 11522, "time": 1537869901, "locktime": 0, "vsize": 190, "size": 190}