{"hash": "1661a18a5b6fdac3fa9b216d5693a1a3a49ce85d31d603859274afc0d97d5b0e", "blockhash": "0000000000000000001f76057863aec43deb6fa401d9628bb513d65a8098bfab", "vout": [{"scriptPubKey": {"reqSigs": 1, "hex": "a9147497e416f864fb0047c71a6ebe9016a4f6909a1787", "addresses": ["3CKWGNBjc6uaeoehXFBvznHVnEFhCB1QUF"], "asm": "OP_HASH160 7497e416f864fb0047c71a6ebe9016a4f6909a17 OP_EQUAL", "type": "scripthash"}, "value": 0.03077748, "n": 0}, {"scriptPubKey": {"reqSigs": 1, "hex": "76a914f61d092200f90de8ea46b6544f2a52bb8e13b9be88ac", "addresses": ["1PSL1dDLfpJavnXm5iHTGK4vNuMBGZp2wN"], "asm": "OP_DUP OP_HASH160 f61d092200f90de8ea46b6544f2a52bb8e13b9be OP_EQUALVERIFY OP_CHECKSIG", "type": "pubkeyhash"}, "value": 0.00037556, "n": 1}], "hex": "0100000001217c7c3057a98bff2fc4520f1af43f50de416a515458572b6278355043ddf02e01000000da0047304402207e433eea1f7d8d50ce86127894b00d7620654281b38ac60cbecba0edb032f2ad0220259904f43b523c898e8e494f43b3d6d3a90c6a72b8fb98eed4268337c3881be8014830450221008b83d8df5dc7d757ef29a95c493bbe49f74f96e11f6b3ce98bd12aef7bbd3442022031dda224e59e53199092466a74a4d230b720431300e6c023df6e730dc9ae59d80147522102907a54bed8ad74b3f35638c60114ca240a308cb986f3f2f306178869a8880b612102aa0d552d93c2c53adb940cc21b7477396d268ce30d01239056e2503380980aa052aeffffffff0274f62e000000000017a9147497e416f864fb0047c71a6ebe9016a4f6909a1787b4920000000000001976a914f61d092200f90de8ea46b6544f2a52bb8e13b9be88ac00000000", "vin": [{"sequence": 4294967295, "scriptSig": {"hex": "0047304402207e433eea1f7d8d50ce86127894b00d7620654281b38ac60cbecba0edb032f2ad0220259904f43b523c898e8e494f43b3d6d3a90c6a72b8fb98eed4268337c3881be8014830450221008b83d8df5dc7d757ef29a95c493bbe49f74f96e11f6b3ce98bd12aef7bbd3442022031dda224e59e53199092466a74a4d230b720431300e6c023df6e730dc9ae59d80147522102907a54bed8ad74b3f35638c60114ca240a308cb986f3f2f306178869a8880b612102aa0d552d93c2c53adb940cc21b7477396d268ce30d01239056e2503380980aa052ae", "asm": "0 304402207e433eea1f7d8d50ce86127894b00d7620654281b38ac60cbecba0edb032f2ad0220259904f43b523c898e8e494f43b3d6d3a90c6a72b8fb98eed4268337c3881be8[ALL] 30450221008b83d8df5dc7d757ef29a95c493bbe49f74f96e11f6b3ce98bd12aef7bbd3442022031dda224e59e53199092466a74a4d230b720431300e6c023df6e730dc9ae59d8[ALL] 522102907a54bed8ad74b3f35638c60114ca240a308cb986f3f2f306178869a8880b612102aa0d552d93c2c53adb940cc21b7477396d268ce30d01239056e2503380980aa052ae"}, "vout": 1, "txid": "2ef0dd43503578622b575854516a41de503ff41a0f52c42fff8ba957307c7c21"}], "txid": "1661a18a5b6fdac3fa9b216d5693a1a3a49ce85d31d603859274afc0d97d5b0e", "blocktime": 1537873891, "version": 1, "confirmations": 11478, "time": 1537873891, "locktime": 0, "vsize": 335, "size": 335}