{"hash": "1662793812279c4898475b28ce858ba5ed05473c57f1b6dbe548dbfa8f0f4fae", "blockhash": "0000000000000000001cda96e906b7601b7a6fb1a3b62bca570a9e5d8f4b3de1", "vout": [{"scriptPubKey": {"reqSigs": 1, "hex": "76a914a25dec4d0011064ef106a983c39c7a540699f22088ac", "addresses": ["1FoWyxwPXuj4C6abqwhjDWdz6D4PZgYRjA"], "asm": "OP_DUP OP_HASH160 a25dec4d0011064ef106a983c39c7a540699f220 OP_EQUALVERIFY OP_CHECKSIG", "type": "pubkeyhash"}, "value": 0.01976034, "n": 0}, {"scriptPubKey": {"type": "nulldata", "hex": "6a146f6d6e69000000000000001f000000ed30db6742", "asm": "OP_RETURN 6f6d6e69000000000000001f000000ed30db6742"}, "value": 0.0, "n": 1}, {"scriptPubKey": {"reqSigs": 1, "hex": "76a914e069c67114634e73ccc8abcdb7637c5588be31be88ac", "addresses": ["1MTb5MiZ4JryWeDWjnqeJwcawHAZ1jRhgC"], "asm": "OP_DUP OP_HASH160 e069c67114634e73ccc8abcdb7637c5588be31be OP_EQUALVERIFY OP_CHECKSIG", "type": "pubkeyhash"}, "value": 5.46e-06, "n": 2}], "hex": "010000000141bd522f34ec3c4e168583162f11f72cfa52bc005983e76372289673ee0a0095010000006a473044022053c4de4adebea138d92ca5bb107a7f569347dee5dfa597a846ccb0db5d149142022019b3d79e49cc4c1ed9eb7759965a46a54123997fc06afd4c10e91fe7f67e254a012103da5bac7b36d5aa38f531c6b9601e21bb598a4b6716ebed38b009a55dabde9440feffffff03e2261e00000000001976a914a25dec4d0011064ef106a983c39c7a540699f22088ac0000000000000000166a146f6d6e69000000000000001f000000ed30db674222020000000000001976a914e069c67114634e73ccc8abcdb7637c5588be31be88ac12490800", "vin": [{"sequence": 4294967294, "scriptSig": {"hex": "473044022053c4de4adebea138d92ca5bb107a7f569347dee5dfa597a846ccb0db5d149142022019b3d79e49cc4c1ed9eb7759965a46a54123997fc06afd4c10e91fe7f67e254a012103da5bac7b36d5aa38f531c6b9601e21bb598a4b6716ebed38b009a55dabde9440", "asm": "3044022053c4de4adebea138d92ca5bb107a7f569347dee5dfa597a846ccb0db5d149142022019b3d79e49cc4c1ed9eb7759965a46a54123997fc06afd4c10e91fe7f67e254a[ALL] 03da5bac7b36d5aa38f531c6b9601e21bb598a4b6716ebed38b009a55dabde9440"}, "vout": 1, "txid": "95000aee7396287263e7835900bc52fa2cf7112f168385164e3cec342f52bd41"}], "txid": "1662793812279c4898475b28ce858ba5ed05473c57f1b6dbe548dbfa8f0f4fae", "blocktime": 1537873282, "version": 1, "confirmations": 11481, "time": 1537873282, "locktime": 542994, "vsize": 256, "size": 256}