{"hash": "1664691016b7b56bffe723be6f9a89fc55a7af032ac8d18344602e625cabe3da", "blockhash": "00000000000000000024a2167bbff67b0be802c0b01cdd79e6331c2be6459f87", "vout": [{"scriptPubKey": {"type": "nulldata", "hex": "6a4c500000778000011c022e0c415768e7d361314ebcbefa6b8351586b4e86aeaeacb577c031fc76cb8f02c9cfe207060681f0f855d8e45baa0aa706144a1441cdbcb04bbf23acfcfaac8058b692fe6808c31d", "asm": "OP_RETURN 0000778000011c022e0c415768e7d361314ebcbefa6b8351586b4e86aeaeacb577c031fc76cb8f02c9cfe207060681f0f855d8e45baa0aa706144a1441cdbcb04bbf23acfcfaac8058b692fe6808c31d"}, "value": 0.0, "n": 0}, {"scriptPubKey": {"reqSigs": 1, "hex": "76a914a91c56471778daf98e26491a88cdac1dc435800f88ac", "addresses": ["1GRB9JzPzobpHxbkbTPhqMbR1nz4ZKiKrH"], "asm": "OP_DUP OP_HASH160 a91c56471778daf98e26491a88cdac1dc435800f OP_EQUALVERIFY OP_CHECKSIG", "type": "pubkeyhash"}, "value": 0.00032169, "n": 1}], "hex": "0100000001af67682b886126502ed34801b8d31a994aa3bdabc3deb71944351a007a2e1962000000006b483045022100ff82d87e7090b9e2d510183f0535a6f58e22e09868eb480c107a2187df3e92b30220227d1501a3b45593463728c8a10a3d9d07a704669d7a1a2f6ec927118f1960e301210218f80faf376ed47f0f9b3d5d6320dc1794e0784832c37a802c76a2547895439bffffffff020000000000000000536a4c500000778000011c022e0c415768e7d361314ebcbefa6b8351586b4e86aeaeacb577c031fc76cb8f02c9cfe207060681f0f855d8e45baa0aa706144a1441cdbcb04bbf23acfcfaac8058b692fe6808c31da97d0000000000001976a914a91c56471778daf98e26491a88cdac1dc435800f88ac00000000", "vin": [{"sequence": 4294967295, "scriptSig": {"hex": "483045022100ff82d87e7090b9e2d510183f0535a6f58e22e09868eb480c107a2187df3e92b30220227d1501a3b45593463728c8a10a3d9d07a704669d7a1a2f6ec927118f1960e301210218f80faf376ed47f0f9b3d5d6320dc1794e0784832c37a802c76a2547895439b", "asm": "3045022100ff82d87e7090b9e2d510183f0535a6f58e22e09868eb480c107a2187df3e92b30220227d1501a3b45593463728c8a10a3d9d07a704669d7a1a2f6ec927118f1960e3[ALL] 0218f80faf376ed47f0f9b3d5d6320dc1794e0784832c37a802c76a2547895439b"}, "vout": 0, "txid": "62192e7a001a354419b7dec3abbda34a991ad3b80148d32e502661882b6867af"}], "txid": "1664691016b7b56bffe723be6f9a89fc55a7af032ac8d18344602e625cabe3da", "blocktime": 1537870564, "version": 1, "confirmations": 11515, "time": 1537870564, "locktime": 0, "vsize": 284, "size": 284}