{"hash": "166b01819bebaee746a9b5815a49798da24bbd3821d5cb1299f1c9ab5094d731", "blockhash": "0000000000000000000baef3f32e3676a92c3b2e5da21b426e4f302fc371ce76", "vout": [{"scriptPubKey": {"reqSigs": 1, "hex": "76a914160c2e09f19d1f604b0e2d3ac4fbeca96157e4e288ac", "addresses": ["131aTVSVFsdvYkqEEHLffixyN5PxgnW4Tj"], "asm": "OP_DUP OP_HASH160 160c2e09f19d1f604b0e2d3ac4fbeca96157e4e2 OP_EQUALVERIFY OP_CHECKSIG", "type": "pubkeyhash"}, "value": 0.01075379, "n": 0}, {"scriptPubKey": {"reqSigs": 1, "hex": "76a91496d3d4ce06a85f51d77bc546d098d9d18285b93f88ac", "addresses": ["1EkW851bPa8yrn1QCHBZAo5R6eGZkmtwVG"], "asm": "OP_DUP OP_HASH160 96d3d4ce06a85f51d77bc546d098d9d18285b93f OP_EQUALVERIFY OP_CHECKSIG", "type": "pubkeyhash"}, "value": 0.01298566, "n": 1}], "hex": "0100000001b312eb9db153e8a1e0a3d9d0c94f65aa43dc0926a65ddd662879572d0363ab79010000006a473044022026a83cf377569e669bebf1dbf42e285b21829f0c7aafeaa134a156165edbafcc02207fe159e7c0c59e74f29a237b5f198a55d4a7e237dd765789180390bcf07934c2012103dcf0f1b39bd014d1b11d29f7821a20531553125f7bdcb5adadb9b4c6c39da7cffdffffff02b3681000000000001976a914160c2e09f19d1f604b0e2d3ac4fbeca96157e4e288ac86d01300000000001976a91496d3d4ce06a85f51d77bc546d098d9d18285b93f88ac00000000", "vin": [{"sequence": 4294967293, "scriptSig": {"hex": "473044022026a83cf377569e669bebf1dbf42e285b21829f0c7aafeaa134a156165edbafcc02207fe159e7c0c59e74f29a237b5f198a55d4a7e237dd765789180390bcf07934c2012103dcf0f1b39bd014d1b11d29f7821a20531553125f7bdcb5adadb9b4c6c39da7cf", "asm": "3044022026a83cf377569e669bebf1dbf42e285b21829f0c7aafeaa134a156165edbafcc02207fe159e7c0c59e74f29a237b5f198a55d4a7e237dd765789180390bcf07934c2[ALL] 03dcf0f1b39bd014d1b11d29f7821a20531553125f7bdcb5adadb9b4c6c39da7cf"}, "vout": 1, "txid": "79ab63032d57792866dd5da62609dc43aa654fc9d0d9a3e0a1e853b19deb12b3"}], "txid": "166b01819bebaee746a9b5815a49798da24bbd3821d5cb1299f1c9ab5094d731", "blocktime": 1537876114, "version": 1, "confirmations": 11460, "time": 1537876114, "locktime": 0, "vsize": 225, "size": 225}