{"hash": "1670092a021067963015362d1b8fab82ed7d137b2cc97bf5c3e5a08992a42961", "blockhash": "0000000000000000000dcc0f55137456b1a82d3642486a52398922ac4d620174", "vout": [{"scriptPubKey": {"reqSigs": 1, "hex": "76a91462e1faf2e334429feccc5907690d072297f96a1788ac", "addresses": ["1A1qwBf1RTUgLFr8VjQt7fE23ed3Gr4rRA"], "asm": "OP_DUP OP_HASH160 62e1faf2e334429feccc5907690d072297f96a17 OP_EQUALVERIFY OP_CHECKSIG", "type": "pubkeyhash"}, "value": 0.62357, "n": 0}, {"scriptPubKey": {"reqSigs": 1, "hex": "76a91412718cf8879f9468e9a555da4e28bc5de45a807488ac", "addresses": ["12gXC6KDsy8my7xUtCYgNH6oUj1JAJ9LZn"], "asm": "OP_DUP OP_HASH160 12718cf8879f9468e9a555da4e28bc5de45a8074 OP_EQUALVERIFY OP_CHECKSIG", "type": "pubkeyhash"}, "value": 1.316114, "n": 1}], "hex": "0100000001380817e407db28a15ba17c6a675c7a97c5868762b770ac244b4bf0097ad6e566010000006b483045022100c79136c660a1e33833d5c6b39d26740a95e90349023f9e3e81cd7c43bed2852e02207c975e5fa7f699bb927cada023cad0bedadfdb940a4d39dc5c4ad3a85845d429012102b26dd063f6fb6f748072ca9d47e7643e5de07f17f9de6e77c5f46cdc849bd254ffffffff02087eb703000000001976a91462e1faf2e334429feccc5907690d072297f96a1788ac083bd807000000001976a91412718cf8879f9468e9a555da4e28bc5de45a807488ac00000000", "vin": [{"sequence": 4294967295, "scriptSig": {"hex": "483045022100c79136c660a1e33833d5c6b39d26740a95e90349023f9e3e81cd7c43bed2852e02207c975e5fa7f699bb927cada023cad0bedadfdb940a4d39dc5c4ad3a85845d429012102b26dd063f6fb6f748072ca9d47e7643e5de07f17f9de6e77c5f46cdc849bd254", "asm": "3045022100c79136c660a1e33833d5c6b39d26740a95e90349023f9e3e81cd7c43bed2852e02207c975e5fa7f699bb927cada023cad0bedadfdb940a4d39dc5c4ad3a85845d429[ALL] 02b26dd063f6fb6f748072ca9d47e7643e5de07f17f9de6e77c5f46cdc849bd254"}, "vout": 1, "txid": "66e5d67a09f04b4b24ac70b7628786c5977a5c676a7ca15ba128db07e4170838"}], "txid": "1670092a021067963015362d1b8fab82ed7d137b2cc97bf5c3e5a08992a42961", "blocktime": 1537870268, "version": 1, "confirmations": 11516, "time": 1537870268, "locktime": 0, "vsize": 226, "size": 226}