{"hash": "1670a78035084e81a6ef02562b87f9dc0d8348f030df8527eccf746a06a086d2", "blockhash": "0000000000000000001cda96e906b7601b7a6fb1a3b62bca570a9e5d8f4b3de1", "vout": [{"scriptPubKey": {"reqSigs": 1, "hex": "76a914f93722906a473f7971b5b40703b0d2105e5962f888ac", "addresses": ["1PijJcbzyRGCJeossYMmtT9VJWU4AbpgHU"], "asm": "OP_DUP OP_HASH160 f93722906a473f7971b5b40703b0d2105e5962f8 OP_EQUALVERIFY OP_CHECKSIG", "type": "pubkeyhash"}, "value": 0.022805, "n": 0}, {"scriptPubKey": {"reqSigs": 1, "hex": "76a914c4565afe7cf6aa20c580d24ea3c95e31129fa91f88ac", "addresses": ["1Ju8tgTawdQGFkCtrCr28x16NKUydkGQ7h"], "asm": "OP_DUP OP_HASH160 c4565afe7cf6aa20c580d24ea3c95e31129fa91f OP_EQUALVERIFY OP_CHECKSIG", "type": "pubkeyhash"}, "value": 10.66748004, "n": 1}], "hex": "0100000001426e2c91d81ca693aa7c52b9ed8f394635e7b943aa6a12729f68017312a02ca4010000006b483045022100f12bead02c38921a428ffc1cec8d7fcbf292a2340848034f77438434faa09593022056a471b7b549bea7ddc10e15bfb88099e458bb4c84f0b133251b435680aaddfd0121024dd496d0cee66e22a59b7328e22d84a8fd94ca0bbaae1173219ba81c0dd7c673ffffffff0234cc2200000000001976a914f93722906a473f7971b5b40703b0d2105e5962f888ac6448953f000000001976a914c4565afe7cf6aa20c580d24ea3c95e31129fa91f88ac00000000", "vin": [{"sequence": 4294967295, "scriptSig": {"hex": "483045022100f12bead02c38921a428ffc1cec8d7fcbf292a2340848034f77438434faa09593022056a471b7b549bea7ddc10e15bfb88099e458bb4c84f0b133251b435680aaddfd0121024dd496d0cee66e22a59b7328e22d84a8fd94ca0bbaae1173219ba81c0dd7c673", "asm": "3045022100f12bead02c38921a428ffc1cec8d7fcbf292a2340848034f77438434faa09593022056a471b7b549bea7ddc10e15bfb88099e458bb4c84f0b133251b435680aaddfd[ALL] 024dd496d0cee66e22a59b7328e22d84a8fd94ca0bbaae1173219ba81c0dd7c673"}, "vout": 1, "txid": "a42ca0127301689f72126aaa43b9e73546398fedb9527caa93a61cd8912c6e42"}], "txid": "1670a78035084e81a6ef02562b87f9dc0d8348f030df8527eccf746a06a086d2", "blocktime": 1537873282, "version": 1, "confirmations": 11484, "time": 1537873282, "locktime": 0, "vsize": 226, "size": 226}