{"hash": "27b13d37154fbd09b3d46a143920e682b0426f5c1193ef809d2fd16768575157", "blockhash": "0000000000000000001cda96e906b7601b7a6fb1a3b62bca570a9e5d8f4b3de1", "vout": [{"scriptPubKey": {"reqSigs": 1, "hex": "a91450c404dc181b5a7a1c52e0c1b3724664979224e587", "addresses": ["3944oXaBEUwL4hfJWm4cPrNDcDCL6LDUGx"], "asm": "OP_HASH160 50c404dc181b5a7a1c52e0c1b3724664979224e5 OP_EQUAL", "type": "scripthash"}, "value": 0.02280081, "n": 0}, {"scriptPubKey": {"reqSigs": 1, "hex": "a914b54819db1962d509a7e0841d6a876ac3174340ee87", "addresses": ["3JDYbvusS2wTpX2xCbJrKbCozaucKikjX2"], "asm": "OP_HASH160 b54819db1962d509a7e0841d6a876ac3174340ee OP_EQUAL", "type": "scripthash"}, "value": 0.02944889, "n": 1}], "hex": "02000000000101cb124965fa287527eebf4a09acf828316bd7484b51c91e990adb6a3205524b900000000017160014620faf20273312e69cfc40151acdffcc02ad0af7feffffff0291ca22000000000017a91450c404dc181b5a7a1c52e0c1b3724664979224e58779ef2c000000000017a914b54819db1962d509a7e0841d6a876ac3174340ee87024830450221008670dc2d5163ad633c3617984a3922f1bd0903d38efee1fe7e1fa677df7a345002206edbe8d43d6dbedf0c04470d1242ecb37d5501ff33b39fef1863ad7f480141550121023d4c351b8efc30c2bf02efefa56ec00ae73e1475b6f905568c325ec865bf767f13490800", "vin": [{"txinwitness": ["30450221008670dc2d5163ad633c3617984a3922f1bd0903d38efee1fe7e1fa677df7a345002206edbe8d43d6dbedf0c04470d1242ecb37d5501ff33b39fef1863ad7f4801415501", "023d4c351b8efc30c2bf02efefa56ec00ae73e1475b6f905568c325ec865bf767f"], "sequence": 4294967294, "scriptSig": {"hex": "160014620faf20273312e69cfc40151acdffcc02ad0af7", "asm": "0014620faf20273312e69cfc40151acdffcc02ad0af7"}, "vout": 0, "txid": "904b5205326adb0a991ec9514b48d76b3128f8ac094abfee277528fa654912cb"}], "txid": "1671d5f87bfd0ac0f96cac804eb9286a12ef742a9eab578d59eca9b4fc03a9dc", "blocktime": 1537873282, "version": 2, "confirmations": 11485, "time": 1537873282, "locktime": 542995, "vsize": 166, "size": 248}