{"hash": "1674f590e8c1025dbad71f7657d29bd37f97740119de8c2e5bc99dbb1d92f0d0", "blockhash": "0000000000000000001e0dab787dd257d1dbfcb92a98c2207d5e1078be1f4165", "vout": [{"scriptPubKey": {"reqSigs": 1, "hex": "a914d68cd56b0387cf44d3502e198c0207269cca9ccd87", "addresses": ["3MFTEtaCfVbcmeJhPEUVZjV4oc4ZoAQtwU"], "asm": "OP_HASH160 d68cd56b0387cf44d3502e198c0207269cca9ccd OP_EQUAL", "type": "scripthash"}, "value": 0.02031827, "n": 0}, {"scriptPubKey": {"reqSigs": 1, "hex": "76a914e31279b999cd3b60d217aafcaab4807b6553df8688ac", "addresses": ["1MheXFCy5U9ZpEQA9DxuW8xBrS9zz1szck"], "asm": "OP_DUP OP_HASH160 e31279b999cd3b60d217aafcaab4807b6553df86 OP_EQUALVERIFY OP_CHECKSIG", "type": "pubkeyhash"}, "value": 2.22738499, "n": 1}], "hex": "01000000018c7508449ea3b4f21758fe10b9837fce543901bc4ca6e44a17d8c84c7a8fc929010000006a473044022044f4d7977579f2840e972f2b354e4778d1d222f5e19f4f58b3568a8550c6ff0c02200b805f19ecd3111c25ebe496de03c8a3b23edfc01f709af9f934de47b95ad6410121025c3093b75e17e57353a96d6dabbadba35dfdb2806367b8730d556249f326bbd8ffffffff02d3001f000000000017a914d68cd56b0387cf44d3502e198c0207269cca9ccd8743b8460d000000001976a914e31279b999cd3b60d217aafcaab4807b6553df8688ac00000000", "vin": [{"sequence": 4294967295, "scriptSig": {"hex": "473044022044f4d7977579f2840e972f2b354e4778d1d222f5e19f4f58b3568a8550c6ff0c02200b805f19ecd3111c25ebe496de03c8a3b23edfc01f709af9f934de47b95ad6410121025c3093b75e17e57353a96d6dabbadba35dfdb2806367b8730d556249f326bbd8", "asm": "3044022044f4d7977579f2840e972f2b354e4778d1d222f5e19f4f58b3568a8550c6ff0c02200b805f19ecd3111c25ebe496de03c8a3b23edfc01f709af9f934de47b95ad641[ALL] 025c3093b75e17e57353a96d6dabbadba35dfdb2806367b8730d556249f326bbd8"}, "vout": 1, "txid": "29c98f7a4cc8d8174ae4a64cbc013954ce7f83b910fe5817f2b4a39e4408758c"}], "txid": "1674f590e8c1025dbad71f7657d29bd37f97740119de8c2e5bc99dbb1d92f0d0", "blocktime": 1537872475, "version": 1, "confirmations": 11487, "time": 1537872475, "locktime": 0, "vsize": 223, "size": 223}