{"hash": "e5cdd77b400e7607d94934f3782525ecce3118836ac468cfbb14ef204a8e41d2", "blockhash": "0000000000000000001cda96e906b7601b7a6fb1a3b62bca570a9e5d8f4b3de1", "vout": [{"scriptPubKey": {"reqSigs": 1, "hex": "a914633a7b6f45457d0f27b9df7e9d557d223a13c9ae87", "addresses": ["3AjgswtRY59r3pWnR2MWs6iS7KEaJ5DxtZ"], "asm": "OP_HASH160 633a7b6f45457d0f27b9df7e9d557d223a13c9ae OP_EQUAL", "type": "scripthash"}, "value": 0.00107948, "n": 0}, {"scriptPubKey": {"reqSigs": 1, "hex": "a914755261031a079b134b00105e205516b3dcaafd0987", "addresses": ["3CPMfn5HUv9kV1GserZpQk9WWCGDUo5CkT"], "asm": "OP_HASH160 755261031a079b134b00105e205516b3dcaafd09 OP_EQUAL", "type": "scripthash"}, "value": 0.01379986, "n": 1}], "hex": "01000000000101a817756205d92f88a8bb014a7ece6fc4dfacab252a005fb38c5b5245a3489b08000000001716001496d04437c3a999656afe4382a8f3851376be9638fdffffff02aca501000000000017a914633a7b6f45457d0f27b9df7e9d557d223a13c9ae87920e15000000000017a914755261031a079b134b00105e205516b3dcaafd09870247304402200fc94af4266976398bbea073d1e785100dd9f40d219ac189def2e03c745db3fc02203b2350bd1f1932888cdfe79ce7df70c944cee46d82a8f4d0297dba66ab5d6a800121028e54508c6f4c4d4c87136210d3c272f88f567902738720ab3dcdd84a91b1d05013490800", "vin": [{"txinwitness": ["304402200fc94af4266976398bbea073d1e785100dd9f40d219ac189def2e03c745db3fc02203b2350bd1f1932888cdfe79ce7df70c944cee46d82a8f4d0297dba66ab5d6a8001", "028e54508c6f4c4d4c87136210d3c272f88f567902738720ab3dcdd84a91b1d050"], "sequence": 4294967293, "scriptSig": {"hex": "16001496d04437c3a999656afe4382a8f3851376be9638", "asm": "001496d04437c3a999656afe4382a8f3851376be9638"}, "vout": 0, "txid": "089b48a345525b8cb35f002a25abacdfc46fce7e4a01bba8882fd905627517a8"}], "txid": "1675545c57713a212c3ec3252a515eb678e96b1d626dbed86c8baaa0b0f3f96e", "blocktime": 1537873282, "version": 1, "confirmations": 11485, "time": 1537873282, "locktime": 542995, "vsize": 166, "size": 247}