{"hash": "16767ff1bba5abc5fd0cbd0a6436b4e327ea739a204b7772192708cd0ae1406d", "blockhash": "0000000000000000001cda96e906b7601b7a6fb1a3b62bca570a9e5d8f4b3de1", "vout": [{"scriptPubKey": {"reqSigs": 1, "hex": "76a91421be7e0861ce83e197f537714a8957dac1688cf888ac", "addresses": ["145RVyB5jgn2Nd26exFd1wcGSVkAdT9FP9"], "asm": "OP_DUP OP_HASH160 21be7e0861ce83e197f537714a8957dac1688cf8 OP_EQUALVERIFY OP_CHECKSIG", "type": "pubkeyhash"}, "value": 0.00786291, "n": 0}, {"scriptPubKey": {"reqSigs": 1, "hex": "76a914556557ee5b42642c92ee0c576b831f0ad0f65d6288ac", "addresses": ["18nXqmtzSHYhJcK2KbZMKi89s2ZLZJipKi"], "asm": "OP_DUP OP_HASH160 556557ee5b42642c92ee0c576b831f0ad0f65d62 OP_EQUALVERIFY OP_CHECKSIG", "type": "pubkeyhash"}, "value": 0.06166481, "n": 1}], "hex": "0100000001c7f84b5bacb8f8e2f5c11316d29075066ff865e2a42c3e91e179d39d0d66385c010000006b483045022100b95553eab0171507e76e440831be13452659ce419204fc1654db27ab062158a50220257b0ac03d076bc1af2837e7b619eea21947fb688916e4efaa096dd39a4bc0d60121021a34102ce0681855e89ed90c0cecab4875700da756485fe89926267baa610d2bffffffff0273ff0b00000000001976a91421be7e0861ce83e197f537714a8957dac1688cf888acd1175e00000000001976a914556557ee5b42642c92ee0c576b831f0ad0f65d6288ac00000000", "vin": [{"sequence": 4294967295, "scriptSig": {"hex": "483045022100b95553eab0171507e76e440831be13452659ce419204fc1654db27ab062158a50220257b0ac03d076bc1af2837e7b619eea21947fb688916e4efaa096dd39a4bc0d60121021a34102ce0681855e89ed90c0cecab4875700da756485fe89926267baa610d2b", "asm": "3045022100b95553eab0171507e76e440831be13452659ce419204fc1654db27ab062158a50220257b0ac03d076bc1af2837e7b619eea21947fb688916e4efaa096dd39a4bc0d6[ALL] 021a34102ce0681855e89ed90c0cecab4875700da756485fe89926267baa610d2b"}, "vout": 1, "txid": "5c38660d9dd379e1913e2ca4e265f86f067590d21613c1f5e2f8b8ac5b4bf8c7"}], "txid": "16767ff1bba5abc5fd0cbd0a6436b4e327ea739a204b7772192708cd0ae1406d", "blocktime": 1537873282, "version": 1, "confirmations": 11485, "time": 1537873282, "locktime": 0, "vsize": 226, "size": 226}