{"hash": "16799c998596db320d31a70e232cbcc0c531a0d0324dfa50996304bafd29d70f", "blockhash": "0000000000000000001e0dab787dd257d1dbfcb92a98c2207d5e1078be1f4165", "vout": [{"scriptPubKey": {"reqSigs": 1, "hex": "76a9148c932d039fb16a6e4e7e45ec03bde34f8c7e052c88ac", "addresses": ["1DpHup8mjPQ3Ww5rAfaRvcSK5jjJBC4ah8"], "asm": "OP_DUP OP_HASH160 8c932d039fb16a6e4e7e45ec03bde34f8c7e052c OP_EQUALVERIFY OP_CHECKSIG", "type": "pubkeyhash"}, "value": 0.0001479, "n": 0}, {"scriptPubKey": {"reqSigs": 1, "hex": "76a9140a9d87dc80cd23c0296d167ee829d628250e078088ac", "addresses": ["1y8ULwZvwLctBFeBnrZ79LJZ8FgiS49ua"], "asm": "OP_DUP OP_HASH160 0a9d87dc80cd23c0296d167ee829d628250e0780 OP_EQUALVERIFY OP_CHECKSIG", "type": "pubkeyhash"}, "value": 0.00765528, "n": 1}], "hex": "0100000001053d467159c9943c088b28e81e903c101e8b86d27880f8d7fd7ec90baaf2d681000000006b483045022100809440b494972120db835bb6017eb39ea385be0706943fba16757f4be3a58d98022045adce7aa9c5f5ab6f904239ea68b5a3dafd2c12fc050ed43b15e94f1d98eea9012103d15f7aa6300cf6c2cfa4b186629219a08c2647913497e34d024801f26dfb257fffffffff02c6390000000000001976a9148c932d039fb16a6e4e7e45ec03bde34f8c7e052c88ac58ae0b00000000001976a9140a9d87dc80cd23c0296d167ee829d628250e078088ac00000000", "vin": [{"sequence": 4294967295, "scriptSig": {"hex": "483045022100809440b494972120db835bb6017eb39ea385be0706943fba16757f4be3a58d98022045adce7aa9c5f5ab6f904239ea68b5a3dafd2c12fc050ed43b15e94f1d98eea9012103d15f7aa6300cf6c2cfa4b186629219a08c2647913497e34d024801f26dfb257f", "asm": "3045022100809440b494972120db835bb6017eb39ea385be0706943fba16757f4be3a58d98022045adce7aa9c5f5ab6f904239ea68b5a3dafd2c12fc050ed43b15e94f1d98eea9[ALL] 03d15f7aa6300cf6c2cfa4b186629219a08c2647913497e34d024801f26dfb257f"}, "vout": 0, "txid": "81d6f2aa0bc97efdd7f88078d2868b1e103c901ee8288b083c94c95971463d05"}], "txid": "16799c998596db320d31a70e232cbcc0c531a0d0324dfa50996304bafd29d70f", "blocktime": 1537872475, "version": 1, "confirmations": 11487, "time": 1537872475, "locktime": 0, "vsize": 226, "size": 226}