{"hash": "dfd88b6d1ede27d2d9555f84761e6d8cd27de4bc3a138108b7959d027ca70866", "blockhash": "0000000000000000001cda96e906b7601b7a6fb1a3b62bca570a9e5d8f4b3de1", "vout": [{"scriptPubKey": {"reqSigs": 1, "hex": "a914d576d80774c816fb4e942fbbf69755ac04f1749587", "addresses": ["3M9iDpWuKH9hH21aRmi6KPVLSuZmswPp6i"], "asm": "OP_HASH160 d576d80774c816fb4e942fbbf69755ac04f17495 OP_EQUAL", "type": "scripthash"}, "value": 0.01518, "n": 0}, {"scriptPubKey": {"reqSigs": 1, "hex": "a9149916ba72551a2cb99f62960a9b217b622226ab8687", "addresses": ["3FeUY5qjUXnGguvqeqcM18cqqxPtqgVSov"], "asm": "OP_HASH160 9916ba72551a2cb99f62960a9b217b622226ab86 OP_EQUAL", "type": "scripthash"}, "value": 0.00228144, "n": 1}], "hex": "020000000001018e7b5a94634a4fd3a96ebe0a88047ec990580c6a0730c0d7a7c114722f28b15001000000171600149fb9643f19f182f035156f6b7f26fb8f4375a537ffffffff02b02917000000000017a914d576d80774c816fb4e942fbbf69755ac04f1749587307b03000000000017a9149916ba72551a2cb99f62960a9b217b622226ab86870247304402200cf97529dc1208f13ea1eb8dcda6fe960ae4157a23572b4c76bbc3789e0db92202202e31377e88a8c261dc280d03cc9a4b7aa3e256dad9788149e020314d94549565012102dd0148f6c1aaaa6f3b2d017116d220d7c7a01edca9290404b0951364ba1787b000000000", "vin": [{"txinwitness": ["304402200cf97529dc1208f13ea1eb8dcda6fe960ae4157a23572b4c76bbc3789e0db92202202e31377e88a8c261dc280d03cc9a4b7aa3e256dad9788149e020314d9454956501", "02dd0148f6c1aaaa6f3b2d017116d220d7c7a01edca9290404b0951364ba1787b0"], "sequence": 4294967295, "scriptSig": {"hex": "1600149fb9643f19f182f035156f6b7f26fb8f4375a537", "asm": "00149fb9643f19f182f035156f6b7f26fb8f4375a537"}, "vout": 1, "txid": "50b1282f7214c1a7d7c030076a0c5890c97e04880abe6ea9d34f4a63945a7b8e"}], "txid": "167a2a2bd226a71954e71497b7e9202aea036b898a82a6aa0e68d6526c7aacfc", "blocktime": 1537873282, "version": 2, "confirmations": 11481, "time": 1537873282, "locktime": 0, "vsize": 166, "size": 247}