{"hash": "c98df950c4efdb500622ff4660b06cda6b965aad90e9fce584b539fb144e68d4", "blockhash": "0000000000000000001e0dab787dd257d1dbfcb92a98c2207d5e1078be1f4165", "vout": [{"scriptPubKey": {"reqSigs": 1, "hex": "76a9145c98f1c339345854eb33e5d6a4a367b3baa2a0fd88ac", "addresses": ["19ScPQpBRx7djWrAMB3BmER8VPCgSWDN1s"], "asm": "OP_DUP OP_HASH160 5c98f1c339345854eb33e5d6a4a367b3baa2a0fd OP_EQUALVERIFY OP_CHECKSIG", "type": "pubkeyhash"}, "value": 0.0002282, "n": 0}, {"scriptPubKey": {"reqSigs": 1, "hex": "a914f5342287aaa57f5c05756dbd5ef14091cc70030f87", "addresses": ["3Q3XvwKWsx3ocmCXheK6pAo5ieooFx75hh"], "asm": "OP_HASH160 f5342287aaa57f5c05756dbd5ef14091cc70030f OP_EQUAL", "type": "scripthash"}, "value": 0.10464502, "n": 1}], "hex": "01000000000101ce50f7a9f02f4079532a0462ad62ae708efbc943c038d6417bab98ba44bdfa8501000000232200204fd7968ffe15cb453352a1e9ee2915eff8b6d6252d5a351f9092b82ca10eb12cffffffff0224590000000000001976a9145c98f1c339345854eb33e5d6a4a367b3baa2a0fd88acf6ac9f000000000017a914f5342287aaa57f5c05756dbd5ef14091cc70030f870400483045022100c5c862d1c826dd8a0e36e28697f31a85618fe0dd935bc718dc0a648f63ccf285022063f81c21eeb132df6d1888f7b4f2a9fb95e64c1afcf38e01b12a3ad51050b8e70147304402205b23a5de9a914f5fe93f993d805c5ba9ae6e8736845bf40a5e1e68a437a03fb8022068be307c82dfefc5a18a76d032f0dc89ca7cf8578c24948c78f1b4d4c17f8cca0147522103b70e79262cbb7310fe069dea7c473b53276b75c67fb841ff66279f152a3fe0172103871fc2ca08e6950b38867e8e6a0e94ee625223d3aa0df5c65f414c6d784467e252ae00000000", "vin": [{"txinwitness": ["", "3045022100c5c862d1c826dd8a0e36e28697f31a85618fe0dd935bc718dc0a648f63ccf285022063f81c21eeb132df6d1888f7b4f2a9fb95e64c1afcf38e01b12a3ad51050b8e701", "304402205b23a5de9a914f5fe93f993d805c5ba9ae6e8736845bf40a5e1e68a437a03fb8022068be307c82dfefc5a18a76d032f0dc89ca7cf8578c24948c78f1b4d4c17f8cca01", "522103b70e79262cbb7310fe069dea7c473b53276b75c67fb841ff66279f152a3fe0172103871fc2ca08e6950b38867e8e6a0e94ee625223d3aa0df5c65f414c6d784467e252ae"], "sequence": 4294967295, "scriptSig": {"hex": "2200204fd7968ffe15cb453352a1e9ee2915eff8b6d6252d5a351f9092b82ca10eb12c", "asm": "00204fd7968ffe15cb453352a1e9ee2915eff8b6d6252d5a351f9092b82ca10eb12c"}, "vout": 1, "txid": "85fabd44ba98ab7b41d638c043c9fb8e70ae62ad62042a5379402ff0a9f750ce"}], "txid": "167e02ba67e70fe1ded21b83071ee3d13f2c47373c6ae5ca52c290047a7a41a7", "blocktime": 1537872475, "version": 1, "confirmations": 11487, "time": 1537872475, "locktime": 0, "vsize": 208, "size": 373}