{"hash": "624b545c94d3c43185a0773b4dc751db330e476a59c35af651cdd5fb38a28915", "blockhash": "0000000000000000000e13cef7c366c0283d82e591d1acd082e914b08063cdf1", "vout": [{"scriptPubKey": {"reqSigs": 1, "hex": "a9145bf4a713aa42dcc2719935e6ae38eda5a837a37687", "addresses": ["3A5EVmGReAK7x86M3uFzkCjJQwbYGZ8vWh"], "asm": "OP_HASH160 5bf4a713aa42dcc2719935e6ae38eda5a837a376 OP_EQUAL", "type": "scripthash"}, "value": 0.01008477, "n": 0}, {"scriptPubKey": {"reqSigs": 1, "hex": "76a9146bf5d825fdc826a564706de3e597daf6a5aaf14b88ac", "addresses": ["1Aqqp6BYo68MNUBoX7myFDEicK2Xk7yxRH"], "asm": "OP_DUP OP_HASH160 6bf5d825fdc826a564706de3e597daf6a5aaf14b OP_EQUALVERIFY OP_CHECKSIG", "type": "pubkeyhash"}, "value": 0.0036936, "n": 1}], "hex": "0200000000010230416f06848c9adce9895b14bcda54a05cb7a0f16755f26dd3cf53513a45141f0000000017160014cf22dd0e3340e6ee5cf1fb13b524b8a0c865e656feffffff85270e594f4d627a9779e42fee3387c22c3acb0e85513db657bae5ed4b64ddc20200000017160014b738e3c0d02e533ba2c2c8fb213d016b7fc1d3ecfeffffff025d630f000000000017a9145bf4a713aa42dcc2719935e6ae38eda5a837a37687d0a20500000000001976a9146bf5d825fdc826a564706de3e597daf6a5aaf14b88ac02483045022100f31c811e3725111d9bb1e8df3ee0dc2239933e2d44232960bc18f5ecb0a9c1ef0220519a4b5b8a92cebed46332c2c8a58534816836d5e25680d1d924aaccee32b014012102ce8504df299bc2da344df5dc5d96fc63876aaec573f9f80ee455516463d7ba4d0248304502210097aa06905effca23e84d7041b29beeb7a0b264aadf3cf4a04b774b561959bd1f0220522882f75d591e09f760532747f8015a61f65f7323824417e159c6678aaaa4560121036f553c48c87d9c9f9a8559e4a5d4664562159d9eb9cd1c296c2a7052238e733110490800", "vin": [{"txinwitness": ["3045022100f31c811e3725111d9bb1e8df3ee0dc2239933e2d44232960bc18f5ecb0a9c1ef0220519a4b5b8a92cebed46332c2c8a58534816836d5e25680d1d924aaccee32b01401", "02ce8504df299bc2da344df5dc5d96fc63876aaec573f9f80ee455516463d7ba4d"], "sequence": 4294967294, "scriptSig": {"hex": "160014cf22dd0e3340e6ee5cf1fb13b524b8a0c865e656", "asm": "0014cf22dd0e3340e6ee5cf1fb13b524b8a0c865e656"}, "vout": 0, "txid": "1f14453a5153cfd36df25567f1a0b75ca054dabc145b89e9dc9a8c84066f4130"}, {"txinwitness": ["304502210097aa06905effca23e84d7041b29beeb7a0b264aadf3cf4a04b774b561959bd1f0220522882f75d591e09f760532747f8015a61f65f7323824417e159c6678aaaa45601", "036f553c48c87d9c9f9a8559e4a5d4664562159d9eb9cd1c296c2a7052238e7331"], "sequence": 4294967294, "scriptSig": {"hex": "160014b738e3c0d02e533ba2c2c8fb213d016b7fc1d3ec", "asm": "0014b738e3c0d02e533ba2c2c8fb213d016b7fc1d3ec"}, "vout": 2, "txid": "c2dd644bede5ba57b63d51850ecb3a2cc28733ee2fe479977a624d4f590e2785"}], "txid": "168307ded20d1939aaffa5d34588c1c3ba7e48328e581106e7165b738eeb8dc6", "blocktime": 1537871767, "version": 2, "confirmations": 11495, "time": 1537871767, "locktime": 542992, "vsize": 259, "size": 422}