{"hash": "1a2e46bef44a00277b6d9e110888ee3592dc170ff25fc2af41a09ac9cf9cccf1", "blockhash": "0000000000000000001cda96e906b7601b7a6fb1a3b62bca570a9e5d8f4b3de1", "vout": [{"scriptPubKey": {"reqSigs": 1, "hex": "76a9142081c0072832754aafb11fcf41c76715ed162a9288ac", "addresses": ["13xt4LPH2Hox2bKSBaXheWNu5r8mQTXTVm"], "asm": "OP_DUP OP_HASH160 2081c0072832754aafb11fcf41c76715ed162a92 OP_EQUALVERIFY OP_CHECKSIG", "type": "pubkeyhash"}, "value": 0.00206908, "n": 0}, {"scriptPubKey": {"reqSigs": 1, "hex": "76a91475ccc15cfd51166e2a8903640162a32b2fab0e7b88ac", "addresses": ["1BjsM6RjsAsEtQiePRahQ2H46yiaN8UBCN"], "asm": "OP_DUP OP_HASH160 75ccc15cfd51166e2a8903640162a32b2fab0e7b OP_EQUALVERIFY OP_CHECKSIG", "type": "pubkeyhash"}, "value": 0.00189247, "n": 1}, {"scriptPubKey": {"reqSigs": 1, "hex": "a9149d8a2502183f3ad239313db3dd5c637d568b2d1b87", "addresses": ["3G41W7YatwK55FJaWKfQPYwDZquTzxwBDN"], "asm": "OP_HASH160 9d8a2502183f3ad239313db3dd5c637d568b2d1b OP_EQUAL", "type": "scripthash"}, "value": 0.00147617, "n": 2}, {"scriptPubKey": {"reqSigs": 1, "hex": "a9146d918a9e280573579cd511667c61839e852af5dd87", "addresses": ["3BgMvrPMPczs3js12nfVyXGMnRdGW2TaAz"], "asm": "OP_HASH160 6d918a9e280573579cd511667c61839e852af5dd OP_EQUAL", "type": "scripthash"}, "value": 0.10677004, "n": 3}, {"scriptPubKey": {"reqSigs": 1, "hex": "76a9145014dfa9a8bca07a529a0e9d52e0582ae90f2d5988ac", "addresses": ["18JS4gAnYkBQiiyRAn3mScLZYBT8RqkDWk"], "asm": "OP_DUP OP_HASH160 5014dfa9a8bca07a529a0e9d52e0582ae90f2d59 OP_EQUALVERIFY OP_CHECKSIG", "type": "pubkeyhash"}, "value": 0.00139786, "n": 4}, {"scriptPubKey": {"reqSigs": 1, "hex": "76a914010b0802f254fd844780a57c693ed6ccdb16e18188ac", "addresses": ["16WtfG2xjQqtpgXi4N5osFfDGPTd8aM77"], "asm": "OP_DUP OP_HASH160 010b0802f254fd844780a57c693ed6ccdb16e181 OP_EQUALVERIFY OP_CHECKSIG", "type": "pubkeyhash"}, "value": 0.00109077, "n": 5}, {"scriptPubKey": {"reqSigs": 1, "hex": "76a914265ccf662ede8cfb0205653dbc4ed2482c16e36088ac", "addresses": ["14VqrrREtPcpGqW3nxzheBFa63aT6eX3zK"], "asm": "OP_DUP OP_HASH160 265ccf662ede8cfb0205653dbc4ed2482c16e360 OP_EQUALVERIFY OP_CHECKSIG", "type": "pubkeyhash"}, "value": 0.00108123, "n": 6}], "hex": "0200000000010155416af610768ba8819d2883fb046c148037ecab8969e4a8e561e12261b5fea40400000017160014aa5ef7dc29c9608132b12384e42368a8aef49871fdffffff073c280300000000001976a9142081c0072832754aafb11fcf41c76715ed162a9288ac3fe30200000000001976a91475ccc15cfd51166e2a8903640162a32b2fab0e7b88aca14002000000000017a9149d8a2502183f3ad239313db3dd5c637d568b2d1b870ceba2000000000017a9146d918a9e280573579cd511667c61839e852af5dd870a220200000000001976a9145014dfa9a8bca07a529a0e9d52e0582ae90f2d5988ac15aa0100000000001976a914010b0802f254fd844780a57c693ed6ccdb16e18188ac5ba60100000000001976a914265ccf662ede8cfb0205653dbc4ed2482c16e36088ac0247304402200a489b5e4bfc9d1f177becd9e9b63ed287ab0dec0f92125fe6c6c6289da9510f022037ce4cf40723e9a5427c3a85a891c35019856f775123befc4111221e177c7766012103a9e3d1c81ba9bf5c48a4dc03647cfd040d31c358ff6dff9aeb9497482de0b4ab92480800", "vin": [{"txinwitness": ["304402200a489b5e4bfc9d1f177becd9e9b63ed287ab0dec0f92125fe6c6c6289da9510f022037ce4cf40723e9a5427c3a85a891c35019856f775123befc4111221e177c776601", "03a9e3d1c81ba9bf5c48a4dc03647cfd040d31c358ff6dff9aeb9497482de0b4ab"], "sequence": 4294967293, "scriptSig": {"hex": "160014aa5ef7dc29c9608132b12384e42368a8aef49871", "asm": "0014aa5ef7dc29c9608132b12384e42368a8aef49871"}, "vout": 4, "txid": "a4feb56122e161e5a8e46989abec3780146c04fb83289d81a88b7610f66a4155"}], "txid": "1683da0ac592d1656514225db399664fbfe701a64ef468c5547127bb5695097d", "blocktime": 1537873282, "version": 2, "confirmations": 11485, "time": 1537873282, "locktime": 542866, "vsize": 336, "size": 417}