{"hash": "16841cf3c42168a465aa1d56c9096a4c376e6273a736236eb17b43ac4388cc80", "blockhash": "0000000000000000000dcc0f55137456b1a82d3642486a52398922ac4d620174", "vout": [{"scriptPubKey": {"reqSigs": 1, "hex": "76a9148ccc3b318b17fda2b2a0bf8329bfe58a0d6c9a3588ac", "addresses": ["1DqUG6FXJNtQziygsMmhLf2qJG6maL1hTF"], "asm": "OP_DUP OP_HASH160 8ccc3b318b17fda2b2a0bf8329bfe58a0d6c9a35 OP_EQUALVERIFY OP_CHECKSIG", "type": "pubkeyhash"}, "value": 0.001, "n": 0}, {"scriptPubKey": {"reqSigs": 1, "hex": "76a9143b546224a845e092bcbe9fbdd1118d713ba48ba088ac", "addresses": ["16QhxNtmPL4XLyf6P6wy9GnEyUPvDjNMeq"], "asm": "OP_DUP OP_HASH160 3b546224a845e092bcbe9fbdd1118d713ba48ba0 OP_EQUALVERIFY OP_CHECKSIG", "type": "pubkeyhash"}, "value": 0.00103877, "n": 1}], "hex": "010000000251ffe42f39c94eef2f39874512b7bc02472eb87a28ce8be79e6b7a1c88357b68970000006b483045022100d33ad393345932171c73899839ce39abf7debe7bca7cea46a78dce9dd80f17c102202e13fb99dac8afc701f3bbaf0dec2d6aaa98e61929b1048ac0a248003dfd6d0f012103a7de09473b6d92c6c39a770e1cadae029aeccd5cc98730778db1bd5bb048aeffffffffff06ad02ebadfd5b3ceee0b1f8d9c9661fe922373b902035be84b3ec15386ab07d000000006a4730440220214fca3c63a61ad22e74f57f88f681653d480f157f67271e6a1c6fb20ebaaa8c022060228cf14eeb9d50c96c7052a1d2db4b9c4de5f541752a08e6b572cf25501e27012102e5f9ae56006d7a3ccc638f09f77029d8847b9ee83993d8a40ed64fa294439e34ffffffff02a0860100000000001976a9148ccc3b318b17fda2b2a0bf8329bfe58a0d6c9a3588acc5950100000000001976a9143b546224a845e092bcbe9fbdd1118d713ba48ba088ac00000000", "vin": [{"sequence": 4294967295, "scriptSig": {"hex": "483045022100d33ad393345932171c73899839ce39abf7debe7bca7cea46a78dce9dd80f17c102202e13fb99dac8afc701f3bbaf0dec2d6aaa98e61929b1048ac0a248003dfd6d0f012103a7de09473b6d92c6c39a770e1cadae029aeccd5cc98730778db1bd5bb048aeff", "asm": "3045022100d33ad393345932171c73899839ce39abf7debe7bca7cea46a78dce9dd80f17c102202e13fb99dac8afc701f3bbaf0dec2d6aaa98e61929b1048ac0a248003dfd6d0f[ALL] 03a7de09473b6d92c6c39a770e1cadae029aeccd5cc98730778db1bd5bb048aeff"}, "vout": 151, "txid": "687b35881c7a6b9ee78bce287ab82e4702bcb7124587392fef4ec9392fe4ff51"}, {"sequence": 4294967295, "scriptSig": {"hex": "4730440220214fca3c63a61ad22e74f57f88f681653d480f157f67271e6a1c6fb20ebaaa8c022060228cf14eeb9d50c96c7052a1d2db4b9c4de5f541752a08e6b572cf25501e27012102e5f9ae56006d7a3ccc638f09f77029d8847b9ee83993d8a40ed64fa294439e34", "asm": "30440220214fca3c63a61ad22e74f57f88f681653d480f157f67271e6a1c6fb20ebaaa8c022060228cf14eeb9d50c96c7052a1d2db4b9c4de5f541752a08e6b572cf25501e27[ALL] 02e5f9ae56006d7a3ccc638f09f77029d8847b9ee83993d8a40ed64fa294439e34"}, "vout": 0, "txid": "7db06a3815ecb384be3520903b3722e91f66c9d9f8b1e0ee3c5bfdadeb02ad06"}], "txid": "16841cf3c42168a465aa1d56c9096a4c376e6273a736236eb17b43ac4388cc80", "blocktime": 1537870268, "version": 1, "confirmations": 11518, "time": 1537870268, "locktime": 0, "vsize": 373, "size": 373}