{"hash": "1685b62868cce0bf87fe550a7300232df7731ca0fe5de59994d8f6fec80d3388", "blockhash": "0000000000000000000dcc0f55137456b1a82d3642486a52398922ac4d620174", "vout": [{"scriptPubKey": {"reqSigs": 1, "hex": "76a914e3dfbbd9655367c46e56a7f92f5eecd3c29c7eb988ac", "addresses": ["1MmtQqojt6RZMK4kQUmbs3ePkw5GEoNxbw"], "asm": "OP_DUP OP_HASH160 e3dfbbd9655367c46e56a7f92f5eecd3c29c7eb9 OP_EQUALVERIFY OP_CHECKSIG", "type": "pubkeyhash"}, "value": 0.00721827, "n": 0}, {"scriptPubKey": {"reqSigs": 1, "hex": "76a9146586ced214191eaee684bf8787713d2671eff5aa88ac", "addresses": ["1AFpjzWNNtmMamjbbSSNLiVdktzrYMspCQ"], "asm": "OP_DUP OP_HASH160 6586ced214191eaee684bf8787713d2671eff5aa OP_EQUALVERIFY OP_CHECKSIG", "type": "pubkeyhash"}, "value": 0.14084472, "n": 1}], "hex": "0200000001017dde3ad1b95b30cb811254535839bd2f70ea561edcfbe8da1af3a813c65d38020000006a473044022070b88b749cfe23599cd162852464bc757a8e893bb9c5152ba2ca4d5d3cd7d82502207ed092aa3934152af746471d671bb93c6ce15ce4492fc7a8b392304d72d8dd0a012103c95b87f50cb73f676572687680650cb2fbaac363daac32cc8ad511d0442d01aaffffffff02a3030b00000000001976a914e3dfbbd9655367c46e56a7f92f5eecd3c29c7eb988ac78e9d600000000001976a9146586ced214191eaee684bf8787713d2671eff5aa88ac00000000", "vin": [{"sequence": 4294967295, "scriptSig": {"hex": "473044022070b88b749cfe23599cd162852464bc757a8e893bb9c5152ba2ca4d5d3cd7d82502207ed092aa3934152af746471d671bb93c6ce15ce4492fc7a8b392304d72d8dd0a012103c95b87f50cb73f676572687680650cb2fbaac363daac32cc8ad511d0442d01aa", "asm": "3044022070b88b749cfe23599cd162852464bc757a8e893bb9c5152ba2ca4d5d3cd7d82502207ed092aa3934152af746471d671bb93c6ce15ce4492fc7a8b392304d72d8dd0a[ALL] 03c95b87f50cb73f676572687680650cb2fbaac363daac32cc8ad511d0442d01aa"}, "vout": 2, "txid": "385dc613a8f31adae8fbdc1e56ea702fbd395853541281cb305bb9d13ade7d01"}], "txid": "1685b62868cce0bf87fe550a7300232df7731ca0fe5de59994d8f6fec80d3388", "blocktime": 1537870268, "version": 2, "confirmations": 11516, "time": 1537870268, "locktime": 0, "vsize": 225, "size": 225}