{"hash": "a4578f8a0f883c103157bfce1016c3d627c98398b243e9da56b34d3f44bdce41", "blockhash": "0000000000000000000dcc0f55137456b1a82d3642486a52398922ac4d620174", "vout": [{"scriptPubKey": {"reqSigs": 1, "hex": "0014c7fe7bb21bc285d3ce89d0790a767342f7a39167", "addresses": ["bc1qcll8hvsmc2za8n5f6pus5anngtm68yt8a9jwqu"], "asm": "0 c7fe7bb21bc285d3ce89d0790a767342f7a39167", "type": "witness_v0_keyhash"}, "value": 1.186e-05, "n": 0}, {"scriptPubKey": {"reqSigs": 1, "hex": "76a91480feaf4bb2d6e6bf557a894e435c41abb227481388ac", "addresses": ["1Cm4bMvy4dUqX93bSVkb5AtCYRRT4jcEyS"], "asm": "OP_DUP OP_HASH160 80feaf4bb2d6e6bf557a894e435c41abb2274813 OP_EQUALVERIFY OP_CHECKSIG", "type": "pubkeyhash"}, "value": 0.00075, "n": 1}], "hex": "0100000000010112f11bb09b43040aa8a5035eccbe56622daea59116a70db227fdd37de2cea05f010000001716001459dfd20fa70b45591d2182e66f407246162000d1ffffffff02a204000000000000160014c7fe7bb21bc285d3ce89d0790a767342f7a39167f8240100000000001976a91480feaf4bb2d6e6bf557a894e435c41abb227481388ac024730440220702294b5c4888cd7c159b73f1780cef76d5495d5e6c5bd0932f976866be0f6c602206781269e1c8b99a1ccd2bc5a029233218b77a4cd3c7790f161d2c5eccc46b841012103dd2fcfb4c4862e9a07059e5d3fa2b9ff6c11e8a386a0d92e49418e5795277ed100000000", "vin": [{"txinwitness": ["30440220702294b5c4888cd7c159b73f1780cef76d5495d5e6c5bd0932f976866be0f6c602206781269e1c8b99a1ccd2bc5a029233218b77a4cd3c7790f161d2c5eccc46b84101", "03dd2fcfb4c4862e9a07059e5d3fa2b9ff6c11e8a386a0d92e49418e5795277ed1"], "sequence": 4294967295, "scriptSig": {"hex": "16001459dfd20fa70b45591d2182e66f407246162000d1", "asm": "001459dfd20fa70b45591d2182e66f407246162000d1"}, "vout": 1, "txid": "5fa0cee27dd3fd27b20da71691a5ae2d6256becc5e03a5a80a04439bb01bf112"}], "txid": "16911699855ef0ea5eed82b6ab3c88400cbb449146c53265e3f27e5842d84de9", "blocktime": 1537870268, "version": 1, "confirmations": 11518, "time": 1537870268, "locktime": 0, "vsize": 167, "size": 248}