{"hash": "1693ef3efa21fb898bc524647fe99ef011a8062273235984af9bb98b2feb0524", "blockhash": "0000000000000000000dcc0f55137456b1a82d3642486a52398922ac4d620174", "vout": [{"scriptPubKey": {"reqSigs": 1, "hex": "76a914ad70e854aa9290fa100cafa6fefb99c181c5e48788ac", "addresses": ["1Gp5A98emM9jZQzEmgcVW2HCfE3UqxVoEe"], "asm": "OP_DUP OP_HASH160 ad70e854aa9290fa100cafa6fefb99c181c5e487 OP_EQUALVERIFY OP_CHECKSIG", "type": "pubkeyhash"}, "value": 0.00919808, "n": 0}], "hex": "01000000016b335d1c9ffd60bc2bdf2abf2d8ca96586b1c46f5b9d9c9e99bbe2751877a0b3000000006b4830450221008fe51e082ffc6b3847261749f70608090a6ee2280ac11a7d5b78d4ee1702dffa0220267a18503d2f571937709d7947981ccd6424c5a35818f13a27c7294ff453b0550121037f13b3002df094da94128046b5428a075898cddc56657740b867e0ea1cf29f3efdffffff0100090e00000000001976a914ad70e854aa9290fa100cafa6fefb99c181c5e48788ac0c490800", "vin": [{"sequence": 4294967293, "scriptSig": {"hex": "4830450221008fe51e082ffc6b3847261749f70608090a6ee2280ac11a7d5b78d4ee1702dffa0220267a18503d2f571937709d7947981ccd6424c5a35818f13a27c7294ff453b0550121037f13b3002df094da94128046b5428a075898cddc56657740b867e0ea1cf29f3e", "asm": "30450221008fe51e082ffc6b3847261749f70608090a6ee2280ac11a7d5b78d4ee1702dffa0220267a18503d2f571937709d7947981ccd6424c5a35818f13a27c7294ff453b055[ALL] 037f13b3002df094da94128046b5428a075898cddc56657740b867e0ea1cf29f3e"}, "vout": 0, "txid": "b3a0771875e2bb999e9c9d5b6fc4b18665a98c2dbf2adf2bbc60fd9f1c5d336b"}], "txid": "1693ef3efa21fb898bc524647fe99ef011a8062273235984af9bb98b2feb0524", "blocktime": 1537870268, "version": 1, "confirmations": 11519, "time": 1537870268, "locktime": 542988, "vsize": 192, "size": 192}