{"hash": "1694079e82ee93de21e1d9b2c9eca321735954f45c12d21268cc6fe8ad2cf8e2", "blockhash": "000000000000000000022b45ed06c6f4ccd3cf7fb5ba4856ebd2e58215665228", "vout": [{"scriptPubKey": {"reqSigs": 1, "hex": "76a91428ccffdad1b928bc1cd3c3fd1978f7854dc0159788ac", "addresses": ["14ijcHSiNJLcZbsw4s2HfRYi6h7CZrVaFF"], "asm": "OP_DUP OP_HASH160 28ccffdad1b928bc1cd3c3fd1978f7854dc01597 OP_EQUALVERIFY OP_CHECKSIG", "type": "pubkeyhash"}, "value": 0.04718204, "n": 0}, {"scriptPubKey": {"reqSigs": 1, "hex": "a914bdf828b7df7e0b5f75f1bd405b7faaa30b7bcd5887", "addresses": ["3K1UvCA5gDJd2r3MAwHKntYo4vKUSZbhe8"], "asm": "OP_HASH160 bdf828b7df7e0b5f75f1bd405b7faaa30b7bcd58 OP_EQUAL", "type": "scripthash"}, "value": 0.18319, "n": 1}], "hex": "0100000003f345786b18909dc7d8dae7c33de23351cdeaf59607af51ae6cfcadbbd9b9923c010000006a47304402201f11226f9f96759195ace3d4f0ab6a501ed552b1f79cec714bee0c65add17c7f02204e0f63bb8d2ae334ea9e0b25c7dcadd024d2797fe6e2ea0210cfac648accde7f012102acd721d3cef8b2dd81a21d55cc7ffea05d35e07e72c049b09f2a71c840033e2dffffffff5ad670de9b9f0378db65bc61932881f15eac1d587e45917a4265f32878fa8feb010000006b483045022100a93212d08d382115dbd0cf684e235a3a3e920804a5f88749b4bd7d5a8fef238b0220755a12a93e333e240b145fdebe7c1b5e94d90d42427951f0cda80e9981fb9c3d0121029b05d07f0c0999799d43b35ead0cc0ffc38eda576503942158d0cae4fea32a98ffffffffd93ccf3a4198e6267706bb1bbe8337fa2148ed3895679019dc0f0ea37fc217ec010000006a473044022032640c0aad00e30241a9ed33f99a76c6a26485b78e23bae82c86ea17c6be060e022009f1d9375dc7d0eb5825dd568a3bbb334a857170b6bf465461cae89f8b775d8e0121031ce6b511abb19102266697178c05261c96dca2211a3b872d4f8d71b0e1f584adffffffff027cfe4700000000001976a91428ccffdad1b928bc1cd3c3fd1978f7854dc0159788ac988617010000000017a914bdf828b7df7e0b5f75f1bd405b7faaa30b7bcd588700000000", "vin": [{"sequence": 4294967295, "scriptSig": {"hex": "47304402201f11226f9f96759195ace3d4f0ab6a501ed552b1f79cec714bee0c65add17c7f02204e0f63bb8d2ae334ea9e0b25c7dcadd024d2797fe6e2ea0210cfac648accde7f012102acd721d3cef8b2dd81a21d55cc7ffea05d35e07e72c049b09f2a71c840033e2d", "asm": "304402201f11226f9f96759195ace3d4f0ab6a501ed552b1f79cec714bee0c65add17c7f02204e0f63bb8d2ae334ea9e0b25c7dcadd024d2797fe6e2ea0210cfac648accde7f[ALL] 02acd721d3cef8b2dd81a21d55cc7ffea05d35e07e72c049b09f2a71c840033e2d"}, "vout": 1, "txid": "3c92b9d9bbadfc6cae51af0796f5eacd5133e23dc3e7dad8c79d90186b7845f3"}, {"sequence": 4294967295, "scriptSig": {"hex": "483045022100a93212d08d382115dbd0cf684e235a3a3e920804a5f88749b4bd7d5a8fef238b0220755a12a93e333e240b145fdebe7c1b5e94d90d42427951f0cda80e9981fb9c3d0121029b05d07f0c0999799d43b35ead0cc0ffc38eda576503942158d0cae4fea32a98", "asm": "3045022100a93212d08d382115dbd0cf684e235a3a3e920804a5f88749b4bd7d5a8fef238b0220755a12a93e333e240b145fdebe7c1b5e94d90d42427951f0cda80e9981fb9c3d[ALL] 029b05d07f0c0999799d43b35ead0cc0ffc38eda576503942158d0cae4fea32a98"}, "vout": 1, "txid": "eb8ffa7828f365427a91457e581dac5ef181289361bc65db78039f9bde70d65a"}, {"sequence": 4294967295, "scriptSig": {"hex": "473044022032640c0aad00e30241a9ed33f99a76c6a26485b78e23bae82c86ea17c6be060e022009f1d9375dc7d0eb5825dd568a3bbb334a857170b6bf465461cae89f8b775d8e0121031ce6b511abb19102266697178c05261c96dca2211a3b872d4f8d71b0e1f584ad", "asm": "3044022032640c0aad00e30241a9ed33f99a76c6a26485b78e23bae82c86ea17c6be060e022009f1d9375dc7d0eb5825dd568a3bbb334a857170b6bf465461cae89f8b775d8e[ALL] 031ce6b511abb19102266697178c05261c96dca2211a3b872d4f8d71b0e1f584ad"}, "vout": 1, "txid": "ec17c27fa30e0fdc1990679538ed4821fa3783be1bbb067726e698413acf3cd9"}], "txid": "1694079e82ee93de21e1d9b2c9eca321735954f45c12d21268cc6fe8ad2cf8e2", "blocktime": 1537869901, "version": 1, "confirmations": 11524, "time": 1537869901, "locktime": 0, "vsize": 518, "size": 518}