{"hash": "6c08f6ee85a06eeb40582ac1618e53c5f4d75a0c490a1e35e76c71c18e2cc27a", "blockhash": "0000000000000000001cda96e906b7601b7a6fb1a3b62bca570a9e5d8f4b3de1", "vout": [{"scriptPubKey": {"reqSigs": 1, "hex": "a91421e1922d9c739d3b0a1e4d531ceebaaca93d58a187", "addresses": ["34nASpfT7vjtn656gdk2Vj8pMB6pQ1vbZR"], "asm": "OP_HASH160 21e1922d9c739d3b0a1e4d531ceebaaca93d58a1 OP_EQUAL", "type": "scripthash"}, "value": 0.29674844, "n": 0}, {"scriptPubKey": {"reqSigs": 1, "hex": "76a914a1004c93c9d3ff4a6d561ac205764ae1f0e41ed688ac", "addresses": ["1FgJ9fnEetaaeMmPcE1hYfpoDHiTxvqF2K"], "asm": "OP_DUP OP_HASH160 a1004c93c9d3ff4a6d561ac205764ae1f0e41ed6 OP_EQUALVERIFY OP_CHECKSIG", "type": "pubkeyhash"}, "value": 0.15975458, "n": 1}, {"scriptPubKey": {"reqSigs": 1, "hex": "a9145fe3ee480ee2bc80e60cbdf67c4e4c135cd5ccd287", "addresses": ["3AS3AgBYgSroPU97wfJYCabCaJ3EKe29tv"], "asm": "OP_HASH160 5fe3ee480ee2bc80e60cbdf67c4e4c135cd5ccd2 OP_EQUAL", "type": "scripthash"}, "value": 4.65290613, "n": 2}, {"scriptPubKey": {"reqSigs": 1, "hex": "76a91459fb4a035639d46b136bdc41c767c92da9199aac88ac", "addresses": ["19CnAwuMwtbhCpEdSWCmiSSeUKwVhuGrsf"], "asm": "OP_DUP OP_HASH160 59fb4a035639d46b136bdc41c767c92da9199aac OP_EQUALVERIFY OP_CHECKSIG", "type": "pubkeyhash"}, "value": 0.2005, "n": 3}], "hex": "020000000001010e9f8791adcdcce2d0595cef93830e531601a689e22fbe5262d5138d69fffced0200000017160014ba9860fa4b58a663f554dcbf6532d64d98a911b3fdffffff045ccdc4010000000017a91421e1922d9c739d3b0a1e4d531ceebaaca93d58a18722c4f300000000001976a914a1004c93c9d3ff4a6d561ac205764ae1f0e41ed688ac75c5bb1b0000000017a9145fe3ee480ee2bc80e60cbdf67c4e4c135cd5ccd28750f03101000000001976a91459fb4a035639d46b136bdc41c767c92da9199aac88ac02483045022100b0934921a6ca177b02616f8aad04d950801bdd3788b8898bf553c5682b795d9d02201b8830aa70f52644785c42c97c3c7944d2a091bb9692e87afa240e365ddfff1d0121024a1c20e0100c616fc245ef87cf17f0c9e37cba4b174e02ef2b4329b33e25b09a0d490800", "vin": [{"txinwitness": ["3045022100b0934921a6ca177b02616f8aad04d950801bdd3788b8898bf553c5682b795d9d02201b8830aa70f52644785c42c97c3c7944d2a091bb9692e87afa240e365ddfff1d01", "024a1c20e0100c616fc245ef87cf17f0c9e37cba4b174e02ef2b4329b33e25b09a"], "sequence": 4294967293, "scriptSig": {"hex": "160014ba9860fa4b58a663f554dcbf6532d64d98a911b3", "asm": "0014ba9860fa4b58a663f554dcbf6532d64d98a911b3"}, "vout": 2, "txid": "edfcff698d13d56252be2fe289a60116530e8393ef5c59d0e2cccdad91879f0e"}], "txid": "1694d7a26278ce7010d90caab445676abc6469f11ea2e0d5876fb06aae49a1dd", "blocktime": 1537873282, "version": 2, "confirmations": 11484, "time": 1537873282, "locktime": 542989, "vsize": 234, "size": 316}