{"hash": "16a85cf93d6ca8a594e416bc3316a1178dd0e1d0f19afbfc823c597882b04bb1", "blockhash": "00000000000000000024a2167bbff67b0be802c0b01cdd79e6331c2be6459f87", "vout": [{"scriptPubKey": {"reqSigs": 1, "hex": "76a914a3e628221f04c1843c78ef5567c36537971b0a8888ac", "addresses": ["1FwcrqnaMjE3JdHoDqndZ4CpuVJq9oaSoE"], "asm": "OP_DUP OP_HASH160 a3e628221f04c1843c78ef5567c36537971b0a88 OP_EQUALVERIFY OP_CHECKSIG", "type": "pubkeyhash"}, "value": 0.00785083, "n": 0}, {"scriptPubKey": {"reqSigs": 1, "hex": "76a914e8cea30989bd15530f819b766684b00dc7ba7cfa88ac", "addresses": ["1NDyJtNTjmwk5xPNhjgAMu4HDHigtobu1s"], "asm": "OP_DUP OP_HASH160 e8cea30989bd15530f819b766684b00dc7ba7cfa OP_EQUALVERIFY OP_CHECKSIG", "type": "pubkeyhash"}, "value": 2.08690082, "n": 1}], "hex": "020000000e19d0a579863e9a0c6ad87cde26b0d88a397f1b8dda542e64165736a2ea1b0eef040000006a4730440220172e1304d16d50973967ccea6652ce0179a55f30ec411f4d3ce74c6ad672877a02206d642116f41c31f559199355a6fad364ce7eee0b32fd94a4c9686a36151c9d110121026345744b836780dbef942b819674f7106889b179c583d2c33778af4fc6e04fa2feffffff1ca673b1ba1dd2de513cf47b41da20d66c18dc7fe6b3c30e23d955e1c428bcd6140700006a473044022078b772b263bb93d3c6285c08472f88d995599e6f769a4e9cf5c34e310f3c17a60220166c59eeb593298ea6fae5e8cb3ae6f25c72545b1d39f27c98dd908464bcab6601210250a2b827d1e14692fe0a3ecadc3293323017a92090f4604b8166035e13ddaeeafeffffff32a828565aa517d8d0d59c450ad132144e56e3e1b2764be57ab98a7a29e5aafd000000006b483045022100a42e3d14aee8e9e5f529246ca4357e1eeae44bff6fab20125e3a6cb07dca6d6002205b026d9f3ce04098543a6d92b7e4903df2226cff36d085a65abb512b68526dca0121036e3b4e4f835443e339413896c42908c6e2d3c803b9d6a0103a6490e8c805fe0bfeffffff3341a0154b963cb797cbefe92bae725686c6c46423b5d95dcd9f596fde1c3ba2060000006b483045022100df6bd6df7ee5eff379340f017179c40f158848f1446c004fbbc74e696794570202201370637849dece1b44191261bd5411830bac9b014ea7899ae79b3d0ffc16369501210334ae1fff52c3eef027c8518be38c821443a4c606340be9dc59e2b8d4f7d4b239feffffff885d5685057d194c75e1d3b6d979523c8c5a5ca84c5d9739f967c2b0df7f8409030000006b483045022100b8029793693c9c1b36c55de3fd573297b4aa006b69576902e528564bb0dcb660022044f27514b48f7a9b5486ed052232fdd1b9400ef25c69958b5bcfbb7029801ad1012103e1b51c01bf66bc3300caae8a1b3e090fc1fea4872daead45a91376f0f9fd2598feffffff99753a504a934efc777f74f93577d97c2325036faeb1ea39fb3139d5d089e10b010000006b4830450221009b0ceeca84e315fb97017800123f2e39bc974558d3a28e35fcf3c2009465389402203cb755bb0e1d07ab21fe48a2674820753c2836bd6a0cc2fc238b27dcf17b937001210391ea00f4f0742f067a3fdde924e4659867fba783f5dd242494da752510205687feffffffa61684b0786e6b0e758027909f3d4643617ef19c60fad0dcaad1017ea1f4b256000000006b483045022100ba9f971e86cd6604fce123ca8d7aade7168b43bee31d9f46f231331cf31c18060220149190d12f55eb5deb1e467bcec4f713229e543cbb4c629f60aed3dafd1f8bb10121029ed076e8a24a22825b672fc1c6f1c83aa8a507d3b5102050fc55e56e654edf53feffffffaae38c85037749d721796153093625cda344710126798cd6ac771f4b8d502963010000006b483045022100dbd298dbfd2b7c0ced8a3215b0d1a1238e5091f18db8e24d48fd1d2a628c078f022034b83c205fe175f3094ded243962bd962f3660bdda0d51985f74ddf705c9402e01210362de7e38c14eadbc14633126c0ebda25134588114a7924521426c67a3c6097a4feffffffb662435d2adf766b16c17b2d0f92626be5d0a223a608ecb5ac7096db0460c156280000006b4830450221008d03670ea2954fbf5783932ca30177aff9edd3a8207ef247910eb6f556f3ee98022039dd762b8a790a24a80f58d7443009d83e7b685886690132aa9e3f2eb6e0aabd01210233d961bb1e40791f2d7772e034e0695baec2b06a9a1236c28e71c4331b5a3a57feffffffb6f05bca105f15774e2ad8ff9884866e7bcf2912d6aee81692247fc9022c864f030000006a473044022003384aff19c0517868f8ada3ef631ae4eae98865038bb5282001c7b2b8abe79a02205f4e980af99366ed5ab71b6f992ff83a6dff64e60a112cca37a5a1dd8b8c6cf80121033bbbc78682c7382af30428832131481e3baeabd2df6a2b4ad9e36bfc3e36e7ddfeffffffb7ad33cc3ba552348136d3154dd19d51a8c7bd3390da380e3cafd1fa797b7385670400006b483045022100ad3dc8645daac0df30a192dace051809c6dd74559066b2d1ae5683939b17524b02206b5a70c32723dad5c7cbb4ca102b28fef288ea7b1d37191391833849e8dbc2780121021d95e38ea4142e7434c2ac7aac2a597ae556174d1eca6e00757f9c56b3879393feffffffc94e8c74799a572d24733441d7acd5866318465b896cb2281c09bcbeded89f05c80000006a47304402206968cddf3e6f81f0eb05da8387d1cff812743f8625514a59e6d6f330dc1b4d9902206b9102c68638c26eac25096d543156435340606c9a3e5f04db342e157d18bdba0121036718cddbf3f39e6aa91973176779831cb5737b9427f12995fdc9b69c2954aa8ffefffffff1b1fe8f2479d38af5268be826d31a32c35f7980350f18be9286e96d3bf0e97b000000006b483045022100bf45629cf611e9590a57505bc8f3d661f8c11c4a0a48838440d8988952a3e5c6022070b51e22d8ec321ded371cdc8dd679e1c5de8b44e02234aae6d742fc7d56a988012102b1d41af27063a28dac507cb2676c12c30828591f840a74c566193520fffae769fefffffff6f21a9754649f41fa2beffc88853ae3bde4b984dad0a7b841c5e1173c0393ff010000006a473044022043c357566d6938564148bb0c9d60797386b469b6d7d841225f9104f9c6d34c5c02204fe2893077e70643dc5b7b5d6e7fb0cf6deb397f81eaed0e6b38b4ee66c1aecf0121029b114eeb84299f514bb6d9dcf87a4a7c75061cec12d773abae2487267074f67afeffffff02bbfa0b00000000001976a914a3e628221f04c1843c78ef5567c36537971b0a8888aca25b700c000000001976a914e8cea30989bd15530f819b766684b00dc7ba7cfa88ac0d490800", "vin": [{"sequence": 4294967294, "scriptSig": {"hex": "4730440220172e1304d16d50973967ccea6652ce0179a55f30ec411f4d3ce74c6ad672877a02206d642116f41c31f559199355a6fad364ce7eee0b32fd94a4c9686a36151c9d110121026345744b836780dbef942b819674f7106889b179c583d2c33778af4fc6e04fa2", "asm": "30440220172e1304d16d50973967ccea6652ce0179a55f30ec411f4d3ce74c6ad672877a02206d642116f41c31f559199355a6fad364ce7eee0b32fd94a4c9686a36151c9d11[ALL] 026345744b836780dbef942b819674f7106889b179c583d2c33778af4fc6e04fa2"}, "vout": 4, "txid": "ef0e1beaa2365716642e54da8d1b7f398ad8b026de7cd86a0c9a3e8679a5d019"}, {"sequence": 4294967294, "scriptSig": {"hex": "473044022078b772b263bb93d3c6285c08472f88d995599e6f769a4e9cf5c34e310f3c17a60220166c59eeb593298ea6fae5e8cb3ae6f25c72545b1d39f27c98dd908464bcab6601210250a2b827d1e14692fe0a3ecadc3293323017a92090f4604b8166035e13ddaeea", "asm": "3044022078b772b263bb93d3c6285c08472f88d995599e6f769a4e9cf5c34e310f3c17a60220166c59eeb593298ea6fae5e8cb3ae6f25c72545b1d39f27c98dd908464bcab66[ALL] 0250a2b827d1e14692fe0a3ecadc3293323017a92090f4604b8166035e13ddaeea"}, "vout": 1812, "txid": "d6bc28c4e155d9230ec3b3e67fdc186cd620da417bf43c51ded21dbab173a61c"}, {"sequence": 4294967294, "scriptSig": {"hex": "483045022100a42e3d14aee8e9e5f529246ca4357e1eeae44bff6fab20125e3a6cb07dca6d6002205b026d9f3ce04098543a6d92b7e4903df2226cff36d085a65abb512b68526dca0121036e3b4e4f835443e339413896c42908c6e2d3c803b9d6a0103a6490e8c805fe0b", "asm": "3045022100a42e3d14aee8e9e5f529246ca4357e1eeae44bff6fab20125e3a6cb07dca6d6002205b026d9f3ce04098543a6d92b7e4903df2226cff36d085a65abb512b68526dca[ALL] 036e3b4e4f835443e339413896c42908c6e2d3c803b9d6a0103a6490e8c805fe0b"}, "vout": 0, "txid": "fdaae5297a8ab97ae54b76b2e1e3564e1432d10a459cd5d0d817a55a5628a832"}, {"sequence": 4294967294, "scriptSig": {"hex": "483045022100df6bd6df7ee5eff379340f017179c40f158848f1446c004fbbc74e696794570202201370637849dece1b44191261bd5411830bac9b014ea7899ae79b3d0ffc16369501210334ae1fff52c3eef027c8518be38c821443a4c606340be9dc59e2b8d4f7d4b239", "asm": "3045022100df6bd6df7ee5eff379340f017179c40f158848f1446c004fbbc74e696794570202201370637849dece1b44191261bd5411830bac9b014ea7899ae79b3d0ffc163695[ALL] 0334ae1fff52c3eef027c8518be38c821443a4c606340be9dc59e2b8d4f7d4b239"}, "vout": 6, "txid": "a23b1cde6f599fcd5dd9b52364c4c6865672ae2be9efcb97b73c964b15a04133"}, {"sequence": 4294967294, "scriptSig": {"hex": "483045022100b8029793693c9c1b36c55de3fd573297b4aa006b69576902e528564bb0dcb660022044f27514b48f7a9b5486ed052232fdd1b9400ef25c69958b5bcfbb7029801ad1012103e1b51c01bf66bc3300caae8a1b3e090fc1fea4872daead45a91376f0f9fd2598", "asm": "3045022100b8029793693c9c1b36c55de3fd573297b4aa006b69576902e528564bb0dcb660022044f27514b48f7a9b5486ed052232fdd1b9400ef25c69958b5bcfbb7029801ad1[ALL] 03e1b51c01bf66bc3300caae8a1b3e090fc1fea4872daead45a91376f0f9fd2598"}, "vout": 3, "txid": "09847fdfb0c267f939975d4ca85c5a8c3c5279d9b6d3e1754c197d0585565d88"}, {"sequence": 4294967294, "scriptSig": {"hex": "4830450221009b0ceeca84e315fb97017800123f2e39bc974558d3a28e35fcf3c2009465389402203cb755bb0e1d07ab21fe48a2674820753c2836bd6a0cc2fc238b27dcf17b937001210391ea00f4f0742f067a3fdde924e4659867fba783f5dd242494da752510205687", "asm": "30450221009b0ceeca84e315fb97017800123f2e39bc974558d3a28e35fcf3c2009465389402203cb755bb0e1d07ab21fe48a2674820753c2836bd6a0cc2fc238b27dcf17b9370[ALL] 0391ea00f4f0742f067a3fdde924e4659867fba783f5dd242494da752510205687"}, "vout": 1, "txid": "0be189d0d53931fb39eab1ae6f0325237cd97735f9747f77fc4e934a503a7599"}, {"sequence": 4294967294, "scriptSig": {"hex": "483045022100ba9f971e86cd6604fce123ca8d7aade7168b43bee31d9f46f231331cf31c18060220149190d12f55eb5deb1e467bcec4f713229e543cbb4c629f60aed3dafd1f8bb10121029ed076e8a24a22825b672fc1c6f1c83aa8a507d3b5102050fc55e56e654edf53", "asm": "3045022100ba9f971e86cd6604fce123ca8d7aade7168b43bee31d9f46f231331cf31c18060220149190d12f55eb5deb1e467bcec4f713229e543cbb4c629f60aed3dafd1f8bb1[ALL] 029ed076e8a24a22825b672fc1c6f1c83aa8a507d3b5102050fc55e56e654edf53"}, "vout": 0, "txid": "56b2f4a17e01d1aadcd0fa609cf17e6143463d9f902780750e6b6e78b08416a6"}, {"sequence": 4294967294, "scriptSig": {"hex": "483045022100dbd298dbfd2b7c0ced8a3215b0d1a1238e5091f18db8e24d48fd1d2a628c078f022034b83c205fe175f3094ded243962bd962f3660bdda0d51985f74ddf705c9402e01210362de7e38c14eadbc14633126c0ebda25134588114a7924521426c67a3c6097a4", "asm": "3045022100dbd298dbfd2b7c0ced8a3215b0d1a1238e5091f18db8e24d48fd1d2a628c078f022034b83c205fe175f3094ded243962bd962f3660bdda0d51985f74ddf705c9402e[ALL] 0362de7e38c14eadbc14633126c0ebda25134588114a7924521426c67a3c6097a4"}, "vout": 1, "txid": "6329508d4b1f77acd68c7926017144a3cd25360953617921d7497703858ce3aa"}, {"sequence": 4294967294, "scriptSig": {"hex": "4830450221008d03670ea2954fbf5783932ca30177aff9edd3a8207ef247910eb6f556f3ee98022039dd762b8a790a24a80f58d7443009d83e7b685886690132aa9e3f2eb6e0aabd01210233d961bb1e40791f2d7772e034e0695baec2b06a9a1236c28e71c4331b5a3a57", "asm": "30450221008d03670ea2954fbf5783932ca30177aff9edd3a8207ef247910eb6f556f3ee98022039dd762b8a790a24a80f58d7443009d83e7b685886690132aa9e3f2eb6e0aabd[ALL] 0233d961bb1e40791f2d7772e034e0695baec2b06a9a1236c28e71c4331b5a3a57"}, "vout": 40, "txid": "56c16004db9670acb5ec08a623a2d0e56b62920f2d7bc1166b76df2a5d4362b6"}, {"sequence": 4294967294, "scriptSig": {"hex": "473044022003384aff19c0517868f8ada3ef631ae4eae98865038bb5282001c7b2b8abe79a02205f4e980af99366ed5ab71b6f992ff83a6dff64e60a112cca37a5a1dd8b8c6cf80121033bbbc78682c7382af30428832131481e3baeabd2df6a2b4ad9e36bfc3e36e7dd", "asm": "3044022003384aff19c0517868f8ada3ef631ae4eae98865038bb5282001c7b2b8abe79a02205f4e980af99366ed5ab71b6f992ff83a6dff64e60a112cca37a5a1dd8b8c6cf8[ALL] 033bbbc78682c7382af30428832131481e3baeabd2df6a2b4ad9e36bfc3e36e7dd"}, "vout": 3, "txid": "4f862c02c97f249216e8aed61229cf7b6e868498ffd82a4e77155f10ca5bf0b6"}, {"sequence": 4294967294, "scriptSig": {"hex": "483045022100ad3dc8645daac0df30a192dace051809c6dd74559066b2d1ae5683939b17524b02206b5a70c32723dad5c7cbb4ca102b28fef288ea7b1d37191391833849e8dbc2780121021d95e38ea4142e7434c2ac7aac2a597ae556174d1eca6e00757f9c56b3879393", "asm": "3045022100ad3dc8645daac0df30a192dace051809c6dd74559066b2d1ae5683939b17524b02206b5a70c32723dad5c7cbb4ca102b28fef288ea7b1d37191391833849e8dbc278[ALL] 021d95e38ea4142e7434c2ac7aac2a597ae556174d1eca6e00757f9c56b3879393"}, "vout": 1127, "txid": "85737b79fad1af3c0e38da9033bdc7a8519dd14d15d336813452a53bcc33adb7"}, {"sequence": 4294967294, "scriptSig": {"hex": "47304402206968cddf3e6f81f0eb05da8387d1cff812743f8625514a59e6d6f330dc1b4d9902206b9102c68638c26eac25096d543156435340606c9a3e5f04db342e157d18bdba0121036718cddbf3f39e6aa91973176779831cb5737b9427f12995fdc9b69c2954aa8f", "asm": "304402206968cddf3e6f81f0eb05da8387d1cff812743f8625514a59e6d6f330dc1b4d9902206b9102c68638c26eac25096d543156435340606c9a3e5f04db342e157d18bdba[ALL] 036718cddbf3f39e6aa91973176779831cb5737b9427f12995fdc9b69c2954aa8f"}, "vout": 200, "txid": "059fd8debebc091c28b26c895b46186386d5acd7413473242d579a79748c4ec9"}, {"sequence": 4294967294, "scriptSig": {"hex": "483045022100bf45629cf611e9590a57505bc8f3d661f8c11c4a0a48838440d8988952a3e5c6022070b51e22d8ec321ded371cdc8dd679e1c5de8b44e02234aae6d742fc7d56a988012102b1d41af27063a28dac507cb2676c12c30828591f840a74c566193520fffae769", "asm": "3045022100bf45629cf611e9590a57505bc8f3d661f8c11c4a0a48838440d8988952a3e5c6022070b51e22d8ec321ded371cdc8dd679e1c5de8b44e02234aae6d742fc7d56a988[ALL] 02b1d41af27063a28dac507cb2676c12c30828591f840a74c566193520fffae769"}, "vout": 0, "txid": "7be9f03b6de98692be180f3580795fc3321ad326e88b26f58ad379248ffeb1f1"}, {"sequence": 4294967294, "scriptSig": {"hex": "473044022043c357566d6938564148bb0c9d60797386b469b6d7d841225f9104f9c6d34c5c02204fe2893077e70643dc5b7b5d6e7fb0cf6deb397f81eaed0e6b38b4ee66c1aecf0121029b114eeb84299f514bb6d9dcf87a4a7c75061cec12d773abae2487267074f67a", "asm": "3044022043c357566d6938564148bb0c9d60797386b469b6d7d841225f9104f9c6d34c5c02204fe2893077e70643dc5b7b5d6e7fb0cf6deb397f81eaed0e6b38b4ee66c1aecf[ALL] 029b114eeb84299f514bb6d9dcf87a4a7c75061cec12d773abae2487267074f67a"}, "vout": 1, "txid": "ff93033c17e1c541b8a7d0da84b9e4bde33a8588fcef2bfa419f6454971af2f6"}], "txid": "16a85cf93d6ca8a594e416bc3316a1178dd0e1d0f19afbfc823c597882b04bb1", "blocktime": 1537870564, "version": 2, "confirmations": 11515, "time": 1537870564, "locktime": 542989, "vsize": 2145, "size": 2145}