{"hash": "16b5323ffba4c07f3c5251c494e32e45febca91eeb3825b0159eecfc8add7089", "blockhash": "00000000000000000004ffacab907a6b429b9a5745fa0b75af4234bf69dd7176", "vout": [{"scriptPubKey": {"reqSigs": 1, "hex": "76a914f7f2a2eae5d09c651555abd37a8297ec89a76d6188ac", "addresses": ["1Pc2a4AP417otVPRm89cMerqEYG7AkeoNT"], "asm": "OP_DUP OP_HASH160 f7f2a2eae5d09c651555abd37a8297ec89a76d61 OP_EQUALVERIFY OP_CHECKSIG", "type": "pubkeyhash"}, "value": 75.7050368, "n": 0}, {"scriptPubKey": {"reqSigs": 1, "hex": "76a91427f927d239c0750f654534034d6dd4f0651b9a4a88ac", "addresses": ["14eMq7XniBWm7iVdEwS9PnxvzyLZc8vL1J"], "asm": "OP_DUP OP_HASH160 27f927d239c0750f654534034d6dd4f0651b9a4a OP_EQUALVERIFY OP_CHECKSIG", "type": "pubkeyhash"}, "value": 0.077612, "n": 1}], "hex": "0100000001141caed364e46858a25f6b56f507b9bca85ccee90a4e0cea4783a21fb9cb547a010000006a47304402201c110efd01fbcdcc9b2c53af9a3fb4347c7da844649fb9f8e3f61758160073a302200a8ae525d6f09412f3f7aa830891e0f3c1922f7b9b337495953be6f465605ced01210308344c095c81f8d4cdc3f4a376c4470e852218823c4f7067f2208e1b9442e4edffffffff0200b83cc3010000001976a914f7f2a2eae5d09c651555abd37a8297ec89a76d6188ac306d7600000000001976a91427f927d239c0750f654534034d6dd4f0651b9a4a88ac00000000", "vin": [{"sequence": 4294967295, "scriptSig": {"hex": "47304402201c110efd01fbcdcc9b2c53af9a3fb4347c7da844649fb9f8e3f61758160073a302200a8ae525d6f09412f3f7aa830891e0f3c1922f7b9b337495953be6f465605ced01210308344c095c81f8d4cdc3f4a376c4470e852218823c4f7067f2208e1b9442e4ed", "asm": "304402201c110efd01fbcdcc9b2c53af9a3fb4347c7da844649fb9f8e3f61758160073a302200a8ae525d6f09412f3f7aa830891e0f3c1922f7b9b337495953be6f465605ced[ALL] 0308344c095c81f8d4cdc3f4a376c4470e852218823c4f7067f2208e1b9442e4ed"}, "vout": 1, "txid": "7a54cbb91fa28347ea0c4e0ae9ce5ca8bcb907f5566b5fa25868e464d3ae1c14"}], "txid": "16b5323ffba4c07f3c5251c494e32e45febca91eeb3825b0159eecfc8add7089", "blocktime": 1537875543, "version": 1, "confirmations": 11464, "time": 1537875543, "locktime": 0, "vsize": 225, "size": 225}