{"hash": "16b53da056b7f070ba159855e5ff0d96e3ba3b8236fc06fa27e501f26796f204", "blockhash": "0000000000000000000baef3f32e3676a92c3b2e5da21b426e4f302fc371ce76", "vout": [{"scriptPubKey": {"reqSigs": 1, "hex": "76a9147afbd8007cea6fbf95cc4d78640392611d48472288ac", "addresses": ["1CDH8pETjFiE9qJ3me3syqdZbSZHSyCX58"], "asm": "OP_DUP OP_HASH160 7afbd8007cea6fbf95cc4d78640392611d484722 OP_EQUALVERIFY OP_CHECKSIG", "type": "pubkeyhash"}, "value": 0.00951, "n": 0}, {"scriptPubKey": {"reqSigs": 1, "hex": "a914e370231feecbfc25e2e2423a5a79bf79bfdca59887", "addresses": ["3NRbeX3vD5VaVE4TDU9ivCDsEf7NPPte6J"], "asm": "OP_HASH160 e370231feecbfc25e2e2423a5a79bf79bfdca598 OP_EQUAL", "type": "scripthash"}, "value": 8.96688752, "n": 1}], "hex": "01000000018e987c34b3ae3106f2ad87ecc3b18647106824a4ad6246dda69f196f9529dcba01000000da00473044022077a1c6c98fbe4fd513021f938f4d3eef96b88c6642f36db587d1c2cf4b2787fc0220465e2656109d64d79d627bccd5b362441af1c5caeb70d57b989770482ac3963301483045022100d0f4fab03165f3690ddead9d97cfde4b8c770d1528cc013348cea11b3963ca7502201e513615ca59002262cb8aee90e296b180d5e130a2de76967a4e3a91e4a2db83014752210327881b6abce6535553a3ce21fad12a7d74fd237ce7c4cd270a267162344e3082210256141f8eb687f5a68c5cc65054652dc25116fa285e44d72b44368827ffe77d9a52aeffffffff02d8820e00000000001976a9147afbd8007cea6fbf95cc4d78640392611d48472288ac706272350000000017a914e370231feecbfc25e2e2423a5a79bf79bfdca5988700000000", "vin": [{"sequence": 4294967295, "scriptSig": {"hex": "00473044022077a1c6c98fbe4fd513021f938f4d3eef96b88c6642f36db587d1c2cf4b2787fc0220465e2656109d64d79d627bccd5b362441af1c5caeb70d57b989770482ac3963301483045022100d0f4fab03165f3690ddead9d97cfde4b8c770d1528cc013348cea11b3963ca7502201e513615ca59002262cb8aee90e296b180d5e130a2de76967a4e3a91e4a2db83014752210327881b6abce6535553a3ce21fad12a7d74fd237ce7c4cd270a267162344e3082210256141f8eb687f5a68c5cc65054652dc25116fa285e44d72b44368827ffe77d9a52ae", "asm": "0 3044022077a1c6c98fbe4fd513021f938f4d3eef96b88c6642f36db587d1c2cf4b2787fc0220465e2656109d64d79d627bccd5b362441af1c5caeb70d57b989770482ac39633[ALL] 3045022100d0f4fab03165f3690ddead9d97cfde4b8c770d1528cc013348cea11b3963ca7502201e513615ca59002262cb8aee90e296b180d5e130a2de76967a4e3a91e4a2db83[ALL] 52210327881b6abce6535553a3ce21fad12a7d74fd237ce7c4cd270a267162344e3082210256141f8eb687f5a68c5cc65054652dc25116fa285e44d72b44368827ffe77d9a52ae"}, "vout": 1, "txid": "badc29956f199fa6dd4662ada42468104786b1c3ec87adf20631aeb3347c988e"}], "txid": "16b53da056b7f070ba159855e5ff0d96e3ba3b8236fc06fa27e501f26796f204", "blocktime": 1537876114, "version": 1, "confirmations": 11460, "time": 1537876114, "locktime": 0, "vsize": 335, "size": 335}