{"hash": "16bd9eaa7f1b2cdd63d9730408d283c9dc4610f999d5bfadce90c7b0c411bbc7", "blockhash": "0000000000000000001cda96e906b7601b7a6fb1a3b62bca570a9e5d8f4b3de1", "vout": [{"scriptPubKey": {"reqSigs": 1, "hex": "76a9146fe94459e3d496b22f643fccf78995aec69a81df88ac", "addresses": ["1BCjSyAAQFyoHt73DqtXGYhb7FjF6d685Q"], "asm": "OP_DUP OP_HASH160 6fe94459e3d496b22f643fccf78995aec69a81df OP_EQUALVERIFY OP_CHECKSIG", "type": "pubkeyhash"}, "value": 0.00141349, "n": 0}, {"scriptPubKey": {"reqSigs": 1, "hex": "76a914a5ae7a92c048a936e9709b3bad04f7c312f8e80888ac", "addresses": ["1G73WeoJVboDeeSAqXXYEXJe5HT4jkvuia"], "asm": "OP_DUP OP_HASH160 a5ae7a92c048a936e9709b3bad04f7c312f8e808 OP_EQUALVERIFY OP_CHECKSIG", "type": "pubkeyhash"}, "value": 0.07123095, "n": 1}], "hex": "010000000786497b61c92956f411669063007ced09c1cec3edc3e2b78f3144316a3cd2421d000000006a4730440220288a436c6be5b95533842e1903f555907f5534ba7c4cbf6cbded4897312880090220766fd8144ac0b33a87369e7786732ca51eee980e46bae7fe3e2dfc207d3744cc012102b43414e7c66caa5025ef56a90478f3d670b03de026e8d5c579b45e5c76d1dc6bffffffff7beb2628d124f5437623c607f97bad68e42a2f0b6ea21119dd47a9cc65496d5e010000006b483045022100f761699ae2ffc2d22935ec7119eef97550c8112d5ae82eb6561fce4a61335736022001c7137fa82b1c14ae3555214f0902cc50e89c08701627e35f34c97632b7894b012103174d405188c0122c0e97427726b97ecc12d761216c3cbc6884aa158d2bf222cfffffffff5375bbf8398dbb909071be224ee5942dc7b3a180afc44d8371d985bd8f3ba06b010000006a473044022003feb61003b46ddfaf00fc3a037b69cb22b4998a9894a41e6a6471042c8abc3c02203a5c167d7e52759ae2181f3b54082978d4d15e8bc489d98d7625f74e58ed18cd0121039672e87cc8249405486b9cbebec2f0e97912e95c413bf69a7670cd08b50ade81ffffffffdb77c7dd3be999dc6a704d5ee72fcbcabcc8d85ef2801367ef49f17897fa6184010000006a47304402203020fae440b247583af2425da0c5abdb22362e49cf5e994af39be8ff4ba109b602202b11f951236104b6f5533f432b6ea6530d8a45e2f7b79fd95cbf9819505b784c0121035ba1e75c1d5907d265dce7729129f93991a77ac227c56f009269f6da96dd8417ffffffff7b66bb8917dea2c941e597e612d12f384e208a61a674e487f1e6fe83c82820ee000000006b483045022100fa25ab1f5d12d9d2a6b4b599c0209cbf5da82cd9e5e90f032335cd882201f31d022040516a5a16a2ae921ca4179a5f440ae4682d56a7c53c7c26f81855d3d41a16b30121024e6347bb7cebdb8723d3a8ca34fd318b7f417051af0a12455f704f12d204013bffffffff697cf967f778150d64809d6b0f4fc40fe4402e99be6c21101e855688aa85cef0000000006a4730440220796624fa0236f6cb504e60c5f176decb7fbf4f175c5d01eb942eafb6c594ed5902207239b6d97d5f2cf59f161a3be7ad50d6b179779f3c489f9ab57c54de9e61704c0121038683a374b48fd53c42ca9a8a4ce7a6fae43bedd7e2c6cd73d05fba0ffd28b3d5ffffffff8ecbe5758a4908a96a5b1faa252b23895b4cadd910aa276ea66a9697b0a1e2fc000000006a47304402207d1b0646ab5ae30336c6d0f24f4239ad3aaf3a8a6a369e1f6d5c228b0063bc3d0220212b652a30bb6dddcd37868eb3e4dbb1a00270350b6f1d08e8681b19e87b6f0d0121035f7de95e3edb4b67bbef193d2e720f7c752467dce03e26ac775378aa1561c302ffffffff0225280200000000001976a9146fe94459e3d496b22f643fccf78995aec69a81df88ac97b06c00000000001976a914a5ae7a92c048a936e9709b3bad04f7c312f8e80888ac00000000", "vin": [{"sequence": 4294967295, "scriptSig": {"hex": "4730440220288a436c6be5b95533842e1903f555907f5534ba7c4cbf6cbded4897312880090220766fd8144ac0b33a87369e7786732ca51eee980e46bae7fe3e2dfc207d3744cc012102b43414e7c66caa5025ef56a90478f3d670b03de026e8d5c579b45e5c76d1dc6b", "asm": "30440220288a436c6be5b95533842e1903f555907f5534ba7c4cbf6cbded4897312880090220766fd8144ac0b33a87369e7786732ca51eee980e46bae7fe3e2dfc207d3744cc[ALL] 02b43414e7c66caa5025ef56a90478f3d670b03de026e8d5c579b45e5c76d1dc6b"}, "vout": 0, "txid": "1d42d23c6a3144318fb7e2c3edc3cec109ed7c0063906611f45629c9617b4986"}, {"sequence": 4294967295, "scriptSig": {"hex": "483045022100f761699ae2ffc2d22935ec7119eef97550c8112d5ae82eb6561fce4a61335736022001c7137fa82b1c14ae3555214f0902cc50e89c08701627e35f34c97632b7894b012103174d405188c0122c0e97427726b97ecc12d761216c3cbc6884aa158d2bf222cf", "asm": "3045022100f761699ae2ffc2d22935ec7119eef97550c8112d5ae82eb6561fce4a61335736022001c7137fa82b1c14ae3555214f0902cc50e89c08701627e35f34c97632b7894b[ALL] 03174d405188c0122c0e97427726b97ecc12d761216c3cbc6884aa158d2bf222cf"}, "vout": 1, "txid": "5e6d4965cca947dd1911a26e0b2f2ae468ad7bf907c6237643f524d12826eb7b"}, {"sequence": 4294967295, "scriptSig": {"hex": "473044022003feb61003b46ddfaf00fc3a037b69cb22b4998a9894a41e6a6471042c8abc3c02203a5c167d7e52759ae2181f3b54082978d4d15e8bc489d98d7625f74e58ed18cd0121039672e87cc8249405486b9cbebec2f0e97912e95c413bf69a7670cd08b50ade81", "asm": "3044022003feb61003b46ddfaf00fc3a037b69cb22b4998a9894a41e6a6471042c8abc3c02203a5c167d7e52759ae2181f3b54082978d4d15e8bc489d98d7625f74e58ed18cd[ALL] 039672e87cc8249405486b9cbebec2f0e97912e95c413bf69a7670cd08b50ade81"}, "vout": 1, "txid": "6ba03b8fbd85d971834dc4af80a1b3c72d94e54e22be719090bb8d39f8bb7553"}, {"sequence": 4294967295, "scriptSig": {"hex": "47304402203020fae440b247583af2425da0c5abdb22362e49cf5e994af39be8ff4ba109b602202b11f951236104b6f5533f432b6ea6530d8a45e2f7b79fd95cbf9819505b784c0121035ba1e75c1d5907d265dce7729129f93991a77ac227c56f009269f6da96dd8417", "asm": "304402203020fae440b247583af2425da0c5abdb22362e49cf5e994af39be8ff4ba109b602202b11f951236104b6f5533f432b6ea6530d8a45e2f7b79fd95cbf9819505b784c[ALL] 035ba1e75c1d5907d265dce7729129f93991a77ac227c56f009269f6da96dd8417"}, "vout": 1, "txid": "8461fa9778f149ef671380f25ed8c8bccacb2fe75e4d706adc99e93bddc777db"}, {"sequence": 4294967295, "scriptSig": {"hex": "483045022100fa25ab1f5d12d9d2a6b4b599c0209cbf5da82cd9e5e90f032335cd882201f31d022040516a5a16a2ae921ca4179a5f440ae4682d56a7c53c7c26f81855d3d41a16b30121024e6347bb7cebdb8723d3a8ca34fd318b7f417051af0a12455f704f12d204013b", "asm": "3045022100fa25ab1f5d12d9d2a6b4b599c0209cbf5da82cd9e5e90f032335cd882201f31d022040516a5a16a2ae921ca4179a5f440ae4682d56a7c53c7c26f81855d3d41a16b3[ALL] 024e6347bb7cebdb8723d3a8ca34fd318b7f417051af0a12455f704f12d204013b"}, "vout": 0, "txid": "ee2028c883fee6f187e474a6618a204e382fd112e697e541c9a2de1789bb667b"}, {"sequence": 4294967295, "scriptSig": {"hex": "4730440220796624fa0236f6cb504e60c5f176decb7fbf4f175c5d01eb942eafb6c594ed5902207239b6d97d5f2cf59f161a3be7ad50d6b179779f3c489f9ab57c54de9e61704c0121038683a374b48fd53c42ca9a8a4ce7a6fae43bedd7e2c6cd73d05fba0ffd28b3d5", "asm": "30440220796624fa0236f6cb504e60c5f176decb7fbf4f175c5d01eb942eafb6c594ed5902207239b6d97d5f2cf59f161a3be7ad50d6b179779f3c489f9ab57c54de9e61704c[ALL] 038683a374b48fd53c42ca9a8a4ce7a6fae43bedd7e2c6cd73d05fba0ffd28b3d5"}, "vout": 0, "txid": "f0ce85aa8856851e10216cbe992e40e40fc44f0f6b9d80640d1578f767f97c69"}, {"sequence": 4294967295, "scriptSig": {"hex": "47304402207d1b0646ab5ae30336c6d0f24f4239ad3aaf3a8a6a369e1f6d5c228b0063bc3d0220212b652a30bb6dddcd37868eb3e4dbb1a00270350b6f1d08e8681b19e87b6f0d0121035f7de95e3edb4b67bbef193d2e720f7c752467dce03e26ac775378aa1561c302", "asm": "304402207d1b0646ab5ae30336c6d0f24f4239ad3aaf3a8a6a369e1f6d5c228b0063bc3d0220212b652a30bb6dddcd37868eb3e4dbb1a00270350b6f1d08e8681b19e87b6f0d[ALL] 035f7de95e3edb4b67bbef193d2e720f7c752467dce03e26ac775378aa1561c302"}, "vout": 0, "txid": "fce2a1b097966aa66e27aa10d9ad4c5b89232b25aa1f5b6aa908498a75e5cb8e"}], "txid": "16bd9eaa7f1b2cdd63d9730408d283c9dc4610f999d5bfadce90c7b0c411bbc7", "blocktime": 1537873282, "version": 1, "confirmations": 11485, "time": 1537873282, "locktime": 0, "vsize": 1109, "size": 1109}