{"hash": "3b1f45ce86ca2ca68890c8ac1c395bd0d92067428c90c8bd3adf191c5170b39f", "blockhash": "0000000000000000001f0ddff1eddb255c1121bcd4da4f1bc9a0da00cae72433", "vout": [{"scriptPubKey": {"reqSigs": 1, "hex": "76a914828f8f39a5d5a5b6625d975511bc1a057451f0a888ac", "addresses": ["1CuLpdFcWpytZuaQbVzDWXsaWv2PpZRjsF"], "asm": "OP_DUP OP_HASH160 828f8f39a5d5a5b6625d975511bc1a057451f0a8 OP_EQUALVERIFY OP_CHECKSIG", "type": "pubkeyhash"}, "value": 0.114, "n": 0}, {"scriptPubKey": {"reqSigs": 1, "hex": "a914772dd5e99ac3b3fde7517b789634f117c2f034df87", "addresses": ["3CZBF5rr6J3Web32ymUccEN8oREkHZJ68W"], "asm": "OP_HASH160 772dd5e99ac3b3fde7517b789634f117c2f034df OP_EQUAL", "type": "scripthash"}, "value": 0.19840628, "n": 1}], "hex": "01000000000101f01817cfd06b827696b4be41d96c039cab298e6b9b6c26e2b57b8f26f2fcaf8301000000171600146a065711eb322c39b38bab54fea1f92f3f902afbfdffffff0240f3ad00000000001976a914828f8f39a5d5a5b6625d975511bc1a057451f0a888ac74be2e010000000017a914772dd5e99ac3b3fde7517b789634f117c2f034df87024730440220587fc048576e08e1258d92eab907ee65d419d9ffffcfa21d015724e3e192f87d02201915b8e3211475995d3d5e54b25a7f2a267e9ffe6884131ff2be4f0bdd0e6c350121026440d2071e90934b8e560274b8c5c65451e1f59d3fb3b6f62f37c4502b131de200000000", "vin": [{"txinwitness": ["30440220587fc048576e08e1258d92eab907ee65d419d9ffffcfa21d015724e3e192f87d02201915b8e3211475995d3d5e54b25a7f2a267e9ffe6884131ff2be4f0bdd0e6c3501", "026440d2071e90934b8e560274b8c5c65451e1f59d3fb3b6f62f37c4502b131de2"], "sequence": 4294967293, "scriptSig": {"hex": "1600146a065711eb322c39b38bab54fea1f92f3f902afb", "asm": "00146a065711eb322c39b38bab54fea1f92f3f902afb"}, "vout": 1, "txid": "83affcf2268f7bb5e2266c9b6b8e29ab9c036cd941beb49676826bd0cf1718f0"}], "txid": "16c235f700e9760e1d618ee76bf206a014736c2d94cf06b631817b1f05a95d70", "blocktime": 1537872018, "version": 1, "confirmations": 11489, "time": 1537872018, "locktime": 0, "vsize": 168, "size": 249}