{"hash": "16c3ede123428a3f008feb61df2c0e90dbe196d913c707bab6c7271d372b9e7d", "blockhash": "0000000000000000000e13cef7c366c0283d82e591d1acd082e914b08063cdf1", "vout": [{"scriptPubKey": {"reqSigs": 1, "hex": "76a9148b2bc19e13dc0335ad516b922a88d06645f0b52988ac", "addresses": ["1DgsLubDp1LkbyV6PAoLs2pg2R87smiiYz"], "asm": "OP_DUP OP_HASH160 8b2bc19e13dc0335ad516b922a88d06645f0b529 OP_EQUALVERIFY OP_CHECKSIG", "type": "pubkeyhash"}, "value": 0.00071357, "n": 0}, {"scriptPubKey": {"reqSigs": 1, "hex": "76a9149ef19302734c1c9dc2736f346842567fa702e18e88ac", "addresses": ["1FVRABbss6VV1Y4Q2DGN5M9aRAb7cpieu7"], "asm": "OP_DUP OP_HASH160 9ef19302734c1c9dc2736f346842567fa702e18e OP_EQUALVERIFY OP_CHECKSIG", "type": "pubkeyhash"}, "value": 0.015639, "n": 1}], "hex": "0100000003c8b1958020c7e574384469918055ad59d81b34f24e1e59f0e275eac10c0b9420010000006b483045022100c3f05a09150b3a74173dcafaf71b6e28813feab255edbd24600e825d22d106f80220267712fd58569a7830efd1677f89249012514044a8e73cbba4f0343ab14dcb360121021cfeaebd0d0a3bc4a3c89aa4d097b717306f49c1adb6afd315d9e66684e6d213ffffffff6c5478369c452adffd64a16b99b8f3fc26b4bec303995fcb6affc7c64d528139000000006a473044022026f9b6f3ea9bcc15ed73e32cf37ca3b67f8868c07a5aaa8d2633db9cc4cab31e0220602fdd2e122436fee8457a08a75de2510712378a37a3e9850422dac20c0aeaea012103e5fa36e21b619c63c2ae979eb1d5c848ee33decaa1497835866189e025c70dccffffffff016b018f50f146ba8899852396b8f465d33072c596dce9efcc83815d6535558a010000006a4730440220291c32a07145a42a7802c1dab3b5bb8e1cb11cc18d13b984dd2670267e1b55a40220079f450a84ef956d0151f75daf825442c9d26cb4e27868de30ad59294b0c05a10121021cfeaebd0d0a3bc4a3c89aa4d097b717306f49c1adb6afd315d9e66684e6d213ffffffff02bd160100000000001976a9148b2bc19e13dc0335ad516b922a88d06645f0b52988acfcdc1700000000001976a9149ef19302734c1c9dc2736f346842567fa702e18e88ac00000000", "vin": [{"sequence": 4294967295, "scriptSig": {"hex": "483045022100c3f05a09150b3a74173dcafaf71b6e28813feab255edbd24600e825d22d106f80220267712fd58569a7830efd1677f89249012514044a8e73cbba4f0343ab14dcb360121021cfeaebd0d0a3bc4a3c89aa4d097b717306f49c1adb6afd315d9e66684e6d213", "asm": "3045022100c3f05a09150b3a74173dcafaf71b6e28813feab255edbd24600e825d22d106f80220267712fd58569a7830efd1677f89249012514044a8e73cbba4f0343ab14dcb36[ALL] 021cfeaebd0d0a3bc4a3c89aa4d097b717306f49c1adb6afd315d9e66684e6d213"}, "vout": 1, "txid": "20940b0cc1ea75e2f0591e4ef2341bd859ad55809169443874e5c7208095b1c8"}, {"sequence": 4294967295, "scriptSig": {"hex": "473044022026f9b6f3ea9bcc15ed73e32cf37ca3b67f8868c07a5aaa8d2633db9cc4cab31e0220602fdd2e122436fee8457a08a75de2510712378a37a3e9850422dac20c0aeaea012103e5fa36e21b619c63c2ae979eb1d5c848ee33decaa1497835866189e025c70dcc", "asm": "3044022026f9b6f3ea9bcc15ed73e32cf37ca3b67f8868c07a5aaa8d2633db9cc4cab31e0220602fdd2e122436fee8457a08a75de2510712378a37a3e9850422dac20c0aeaea[ALL] 03e5fa36e21b619c63c2ae979eb1d5c848ee33decaa1497835866189e025c70dcc"}, "vout": 0, "txid": "3981524dc6c7ff6acb5f9903c3beb426fcf3b8996ba164fddf2a459c3678546c"}, {"sequence": 4294967295, "scriptSig": {"hex": "4730440220291c32a07145a42a7802c1dab3b5bb8e1cb11cc18d13b984dd2670267e1b55a40220079f450a84ef956d0151f75daf825442c9d26cb4e27868de30ad59294b0c05a10121021cfeaebd0d0a3bc4a3c89aa4d097b717306f49c1adb6afd315d9e66684e6d213", "asm": "30440220291c32a07145a42a7802c1dab3b5bb8e1cb11cc18d13b984dd2670267e1b55a40220079f450a84ef956d0151f75daf825442c9d26cb4e27868de30ad59294b0c05a1[ALL] 021cfeaebd0d0a3bc4a3c89aa4d097b717306f49c1adb6afd315d9e66684e6d213"}, "vout": 1, "txid": "8a5535655d8183ccefe9dc96c57230d365f4b89623859988ba46f1508f016b01"}], "txid": "16c3ede123428a3f008feb61df2c0e90dbe196d913c707bab6c7271d372b9e7d", "blocktime": 1537871767, "version": 1, "confirmations": 11495, "time": 1537871767, "locktime": 0, "vsize": 520, "size": 520}