{"hash": "2bf69c8fbfe9f192b84815202d486d09aafaa19b4ef69270bc01f654e082e363", "blockhash": "0000000000000000000e13cef7c366c0283d82e591d1acd082e914b08063cdf1", "vout": [{"scriptPubKey": {"reqSigs": 1, "hex": "a9149f40aaba6c32e83814d31dd6681bd706f672086687", "addresses": ["3GD4qBQfTc5dHSYfhU38s6VqGu1vszJQmN"], "asm": "OP_HASH160 9f40aaba6c32e83814d31dd6681bd706f6720866 OP_EQUAL", "type": "scripthash"}, "value": 0.01000983, "n": 0}, {"scriptPubKey": {"reqSigs": 1, "hex": "76a914809ef0f0b0e6469eeb1749992cafa98ef11ad43488ac", "addresses": ["1Cj5tysek52iD1sKC69tcoA8bp6o3HBTY2"], "asm": "OP_DUP OP_HASH160 809ef0f0b0e6469eeb1749992cafa98ef11ad434 OP_EQUALVERIFY OP_CHECKSIG", "type": "pubkeyhash"}, "value": 0.0110246, "n": 1}], "hex": "0200000000010236e77ab5b715037a3be2a787ac440e8be8d4133b9054ccddd32e3db1672f9aa50100000017160014c162ae26ca9f92b9346c7c0bcfdeeef26298af71feffffff4ba4f2596dc96482b7775ebb1d73d5aca11510ec7de1a75c28d4d786f1d4ca470e00000017160014827e7c3670818c6b50779758c816474524dca26dfeffffff0217460f000000000017a9149f40aaba6c32e83814d31dd6681bd706f6720866877cd21000000000001976a914809ef0f0b0e6469eeb1749992cafa98ef11ad43488ac02483045022100be0f594faf154d8058db66df3f2d1786fd452542ea628222c30f09ef32eea6fe02206654ec89cadc4321fd314a5f9632cf42b5dc57c2386f6c8f8a4a04a8eda42dc7012103ed61ddaf9896c084129578de62de668497eb321049f2fb846377ae62247df6d8024830450221009ad67d411ed71c2cade10a805f1e560c9608b963eb3fc531059d9a9b8b36e5cc022012f33829d0faf87d004c34c5be42929c78e8bdd174915d1a6bbe522c2e65e35c01210398e2381aeeb0abd33e6332169777b79a58224fc4033e65d6805f9f53df30ae7510490800", "vin": [{"txinwitness": ["3045022100be0f594faf154d8058db66df3f2d1786fd452542ea628222c30f09ef32eea6fe02206654ec89cadc4321fd314a5f9632cf42b5dc57c2386f6c8f8a4a04a8eda42dc701", "03ed61ddaf9896c084129578de62de668497eb321049f2fb846377ae62247df6d8"], "sequence": 4294967294, "scriptSig": {"hex": "160014c162ae26ca9f92b9346c7c0bcfdeeef26298af71", "asm": "0014c162ae26ca9f92b9346c7c0bcfdeeef26298af71"}, "vout": 1, "txid": "a59a2f67b13d2ed3ddcc54903b13d4e88b0e44ac87a7e23b7a0315b7b57ae736"}, {"txinwitness": ["30450221009ad67d411ed71c2cade10a805f1e560c9608b963eb3fc531059d9a9b8b36e5cc022012f33829d0faf87d004c34c5be42929c78e8bdd174915d1a6bbe522c2e65e35c01", "0398e2381aeeb0abd33e6332169777b79a58224fc4033e65d6805f9f53df30ae75"], "sequence": 4294967294, "scriptSig": {"hex": "160014827e7c3670818c6b50779758c816474524dca26d", "asm": "0014827e7c3670818c6b50779758c816474524dca26d"}, "vout": 14, "txid": "47cad4f186d7d4285ca7e17dec1015a1acd5731dbb5e77b78264c96d59f2a44b"}], "txid": "16c534e86698307c98fb9544682c147f65b98c5d41454f602927c1058ccf2b84", "blocktime": 1537871767, "version": 2, "confirmations": 11495, "time": 1537871767, "locktime": 542992, "vsize": 259, "size": 422}