{"hash": "db08e52cbbbda4f31cdcdff1b11d4608fb75b00abcf012ff64e4d8e7686df676", "blockhash": "0000000000000000001cda96e906b7601b7a6fb1a3b62bca570a9e5d8f4b3de1", "vout": [{"scriptPubKey": {"reqSigs": 1, "hex": "76a914b1e6d02403c7d3a7ac7ae57da647d1f586d0c35a88ac", "addresses": ["1HDf78JFPwsNHHEassLrJsDbaRDdF17uR8"], "asm": "OP_DUP OP_HASH160 b1e6d02403c7d3a7ac7ae57da647d1f586d0c35a OP_EQUALVERIFY OP_CHECKSIG", "type": "pubkeyhash"}, "value": 0.035, "n": 0}, {"scriptPubKey": {"reqSigs": 1, "hex": "a91461252550fc7bec90ad5d5bfe430e9b048e26121187", "addresses": ["3AYfy5rKRq6rYL91kWBzpprt78VCfCWqaq"], "asm": "OP_HASH160 61252550fc7bec90ad5d5bfe430e9b048e261211 OP_EQUAL", "type": "scripthash"}, "value": 96.74157077, "n": 1}], "hex": "020000000001010affaa6b4d5d1c7b18a6df014d2989432d668634023519fa12e08e215f1aa2e800000000171600147368cc575d6aab8b01d16e7cb13de03dddb27bbffeffffff02e0673500000000001976a914b1e6d02403c7d3a7ac7ae57da647d1f586d0c35a88ac15ec9f400200000017a91461252550fc7bec90ad5d5bfe430e9b048e261211870247304402203468b7c14e6d7cf9ceeee8667dacdf64dd3c512bd312df2be1e20b40eee6203b02202f6edf3eb341771944447a747948d1f483f5c00150d9f1d3ddd280d5f47c8052012103d64a74bb783de795c7aead9d38313e953d71eee36060a0338b52a0f794794b8413490800", "vin": [{"txinwitness": ["304402203468b7c14e6d7cf9ceeee8667dacdf64dd3c512bd312df2be1e20b40eee6203b02202f6edf3eb341771944447a747948d1f483f5c00150d9f1d3ddd280d5f47c805201", "03d64a74bb783de795c7aead9d38313e953d71eee36060a0338b52a0f794794b84"], "sequence": 4294967294, "scriptSig": {"hex": "1600147368cc575d6aab8b01d16e7cb13de03dddb27bbf", "asm": "00147368cc575d6aab8b01d16e7cb13de03dddb27bbf"}, "vout": 0, "txid": "e8a21a5f218ee012fa1935023486662d4389294d01dfa6187b1c5d4d6baaff0a"}], "txid": "16d083bebf411848a212ec416d7f70ee6540838169555eb6902b4c530c57d14e", "blocktime": 1537873282, "version": 2, "confirmations": 11483, "time": 1537873282, "locktime": 542995, "vsize": 168, "size": 249}