{"hash": "16d8f38c6fc135bb66848706816f01fe58a179865822ac914f8dc0e3010b47a3", "blockhash": "00000000000000000018f53835495a110e01622372bf6ae95dc86f2b0ab887b0", "vout": [{"scriptPubKey": {"reqSigs": 1, "hex": "76a9144597b8541dc84de64c077e792d3b34d6a8c9834a88ac", "addresses": ["17LyNvtH2SAvqBM79GoSLAUiP8EAqnfbBp"], "asm": "OP_DUP OP_HASH160 4597b8541dc84de64c077e792d3b34d6a8c9834a OP_EQUALVERIFY OP_CHECKSIG", "type": "pubkeyhash"}, "value": 0.00090615, "n": 0}, {"scriptPubKey": {"reqSigs": 1, "hex": "76a9141f3d535a7d113c1a550e581b69160f6b3a876db588ac", "addresses": ["13rBQvbfCimHYPCd1eADHZE1N3kDae1mRm"], "asm": "OP_DUP OP_HASH160 1f3d535a7d113c1a550e581b69160f6b3a876db5 OP_EQUALVERIFY OP_CHECKSIG", "type": "pubkeyhash"}, "value": 0.292156, "n": 1}], "hex": "01000000033f901a2f025ac13aeffdadf2860ff1173cce0744d6b3902a6c6f9de29edf3317000000006b483045022100a7fe4e8a772b126c274494106948911133559fa92aca1fdd5b57d4fa333585ed0220576d00036b13bc7fcad1334e22e8098e880342e50d1f3712f4cee816fc594ee90121039f973d72d743cf570f39c683952f6cea69df4465fc45a58577b4529cf7cbf951fffffffff8038ef49662eb359d51b9d82338f2da50bccb31037f9b640c424da261f9a767000000006b483045022100cdab6ac67d48011bf611ac8927f9780e00480ac65917e59137dca39f900190e902200a79579eb77fa65851330338123df645b64231fbbf719a8742d11777760f17d7012102b80d83ef054948962497dc73150db22b124b96704f927b9c8e3c0645ff576511ffffffff86cef4f64f3957da8f2ba5ff445b36e3058858a5fd9217b541c339508dbd589b000000006a473044022051ebfab3d9e06b77688d8937020ccb1703b8d80305953db3085bb30a905fe23a0220417b5dcfee21614fa5f92bcbba70c10e9d19c96fde2f361e039e60e6ca61468c012102ef244d0231df1c1bf9a9fb8ecb780008cf272dcaa00e8364f86465938141d8c1ffffffff02f7610100000000001976a9144597b8541dc84de64c077e792d3b34d6a8c9834a88ac70cbbd01000000001976a9141f3d535a7d113c1a550e581b69160f6b3a876db588ac00000000", "vin": [{"sequence": 4294967295, "scriptSig": {"hex": "483045022100a7fe4e8a772b126c274494106948911133559fa92aca1fdd5b57d4fa333585ed0220576d00036b13bc7fcad1334e22e8098e880342e50d1f3712f4cee816fc594ee90121039f973d72d743cf570f39c683952f6cea69df4465fc45a58577b4529cf7cbf951", "asm": "3045022100a7fe4e8a772b126c274494106948911133559fa92aca1fdd5b57d4fa333585ed0220576d00036b13bc7fcad1334e22e8098e880342e50d1f3712f4cee816fc594ee9[ALL] 039f973d72d743cf570f39c683952f6cea69df4465fc45a58577b4529cf7cbf951"}, "vout": 0, "txid": "1733df9ee29d6f6c2a90b3d64407ce3c17f10f86f2adfdef3ac15a022f1a903f"}, {"sequence": 4294967295, "scriptSig": {"hex": "483045022100cdab6ac67d48011bf611ac8927f9780e00480ac65917e59137dca39f900190e902200a79579eb77fa65851330338123df645b64231fbbf719a8742d11777760f17d7012102b80d83ef054948962497dc73150db22b124b96704f927b9c8e3c0645ff576511", "asm": "3045022100cdab6ac67d48011bf611ac8927f9780e00480ac65917e59137dca39f900190e902200a79579eb77fa65851330338123df645b64231fbbf719a8742d11777760f17d7[ALL] 02b80d83ef054948962497dc73150db22b124b96704f927b9c8e3c0645ff576511"}, "vout": 0, "txid": "67a7f961a24d420c649b7f0331cbbc50daf23823d8b9519d35eb6296f48e03f8"}, {"sequence": 4294967295, "scriptSig": {"hex": "473044022051ebfab3d9e06b77688d8937020ccb1703b8d80305953db3085bb30a905fe23a0220417b5dcfee21614fa5f92bcbba70c10e9d19c96fde2f361e039e60e6ca61468c012102ef244d0231df1c1bf9a9fb8ecb780008cf272dcaa00e8364f86465938141d8c1", "asm": "3044022051ebfab3d9e06b77688d8937020ccb1703b8d80305953db3085bb30a905fe23a0220417b5dcfee21614fa5f92bcbba70c10e9d19c96fde2f361e039e60e6ca61468c[ALL] 02ef244d0231df1c1bf9a9fb8ecb780008cf272dcaa00e8364f86465938141d8c1"}, "vout": 0, "txid": "9b58bd8d5039c341b51792fda5588805e3365b44ffa52b8fda57394ff6f4ce86"}], "txid": "16d8f38c6fc135bb66848706816f01fe58a179865822ac914f8dc0e3010b47a3", "blocktime": 1537870928, "version": 1, "confirmations": 11514, "time": 1537870928, "locktime": 0, "vsize": 521, "size": 521}