{"hash": "16dadb3e49b75de3c7a0ceb523b0bb4aabbcca25420c5bcf0ccfaad697904ced", "blockhash": "000000000000000000022b45ed06c6f4ccd3cf7fb5ba4856ebd2e58215665228", "vout": [{"scriptPubKey": {"reqSigs": 1, "hex": "76a914dfa3dd50df892dc33f10e9ec0133b24cd2a89cca88ac", "addresses": ["1MPVzHVQaemcn5jGUVsTmMRvyKYuFaHppB"], "asm": "OP_DUP OP_HASH160 dfa3dd50df892dc33f10e9ec0133b24cd2a89cca OP_EQUALVERIFY OP_CHECKSIG", "type": "pubkeyhash"}, "value": 0.00283934, "n": 0}], "hex": "0100000002f96a6b9d1a0e9b213964a955b3623478467ff3088cad6735f908d7ef2916a311000000006a473044022017d9a73ed1795ee6f09c1f4ed3970ce063be536f7990cd06c1f85935569f459c0220415fef48091d0b463eb266e01015572aa9cb91cf50a48b6ddc992402014bd7f8012103b9c79e918b5e19203e0515af87b89a92b6b611b9484134fa197cb5ce9cfeb327fdffffff1b8287e9b92b11d68f21d1504c97bdd8dcd30ad11a8387485d1b08a8cdfe7ab7000000006b483045022100ac420b1025087d856530a16f7a260c3b3d5bda5be926374279eb064824dda2ae02206cd9f4c5bb418f9a778343835834e93c50a3fe781c175324e60044202991593a012103b9c79e918b5e19203e0515af87b89a92b6b611b9484134fa197cb5ce9cfeb327fdffffff011e550400000000001976a914dfa3dd50df892dc33f10e9ec0133b24cd2a89cca88ac0b490800", "vin": [{"sequence": 4294967293, "scriptSig": {"hex": "473044022017d9a73ed1795ee6f09c1f4ed3970ce063be536f7990cd06c1f85935569f459c0220415fef48091d0b463eb266e01015572aa9cb91cf50a48b6ddc992402014bd7f8012103b9c79e918b5e19203e0515af87b89a92b6b611b9484134fa197cb5ce9cfeb327", "asm": "3044022017d9a73ed1795ee6f09c1f4ed3970ce063be536f7990cd06c1f85935569f459c0220415fef48091d0b463eb266e01015572aa9cb91cf50a48b6ddc992402014bd7f8[ALL] 03b9c79e918b5e19203e0515af87b89a92b6b611b9484134fa197cb5ce9cfeb327"}, "vout": 0, "txid": "11a31629efd708f93567ad8c08f37f46783462b355a96439219b0e1a9d6b6af9"}, {"sequence": 4294967293, "scriptSig": {"hex": "483045022100ac420b1025087d856530a16f7a260c3b3d5bda5be926374279eb064824dda2ae02206cd9f4c5bb418f9a778343835834e93c50a3fe781c175324e60044202991593a012103b9c79e918b5e19203e0515af87b89a92b6b611b9484134fa197cb5ce9cfeb327", "asm": "3045022100ac420b1025087d856530a16f7a260c3b3d5bda5be926374279eb064824dda2ae02206cd9f4c5bb418f9a778343835834e93c50a3fe781c175324e60044202991593a[ALL] 03b9c79e918b5e19203e0515af87b89a92b6b611b9484134fa197cb5ce9cfeb327"}, "vout": 0, "txid": "b77afecda8081b5d4887831ad10ad3dcd8bd974c50d1218fd6112bb9e987821b"}], "txid": "16dadb3e49b75de3c7a0ceb523b0bb4aabbcca25420c5bcf0ccfaad697904ced", "blocktime": 1537869901, "version": 1, "confirmations": 11522, "time": 1537869901, "locktime": 542987, "vsize": 339, "size": 339}