{"hash": "4119546f80162d42be7316735fa7a4e8c263715c97bd5aa87e8e94757b110390", "blockhash": "0000000000000000000e13cef7c366c0283d82e591d1acd082e914b08063cdf1", "vout": [{"scriptPubKey": {"reqSigs": 1, "hex": "0014cf09b0a370f5c1cf9466bd589483d32e6b8f989c", "addresses": ["bc1qeuympgms7hqul9rxh4vffq7n9e4clxyu4l87en"], "asm": "0 cf09b0a370f5c1cf9466bd589483d32e6b8f989c", "type": "witness_v0_keyhash"}, "value": 0.5924777, "n": 0}, {"scriptPubKey": {"reqSigs": 1, "hex": "76a914e12fd29b88e838092d97c444b4c270c9c307045a88ac", "addresses": ["1MXgKwYBcnpeFgkg52Tb9Ph1xqudHUamUP"], "asm": "OP_DUP OP_HASH160 e12fd29b88e838092d97c444b4c270c9c307045a OP_EQUALVERIFY OP_CHECKSIG", "type": "pubkeyhash"}, "value": 0.00951238, "n": 1}], "hex": "0100000000010138bd4d4e8da4def610eccd1e15b46516481ea108b5045fdfbb852e8e0b614de50000000000ffffffff029a0c880300000000160014cf09b0a370f5c1cf9466bd589483d32e6b8f989cc6830e00000000001976a914e12fd29b88e838092d97c444b4c270c9c307045a88ac02483045022100a1bbcb3f81e41e7474bb5b1e8ff6c7b707a9b51cfd7ba0e23ae10a93bfcc1597022061b7112b90332206446180cb773f0e34fa3693cabff34c68f820bf8a73b298c8012103312204653bb46fa7d0eea1759c41507e1034c60211e7f0a9dc7940da980c6eb500000000", "vin": [{"txinwitness": ["3045022100a1bbcb3f81e41e7474bb5b1e8ff6c7b707a9b51cfd7ba0e23ae10a93bfcc1597022061b7112b90332206446180cb773f0e34fa3693cabff34c68f820bf8a73b298c801", "03312204653bb46fa7d0eea1759c41507e1034c60211e7f0a9dc7940da980c6eb5"], "sequence": 4294967295, "scriptSig": {"hex": "", "asm": ""}, "vout": 0, "txid": "e54d610b8e2e85bbdf5f04b508a11e481665b4151ecdec10f6dea48d4e4dbd38"}], "txid": "16db1e9e5b15545546290f277a2b9ae36875dc1b3575f838c0414e6048b7f088", "blocktime": 1537871767, "version": 1, "confirmations": 11495, "time": 1537871767, "locktime": 0, "vsize": 144, "size": 226}