{"hash": "d0e2761ba261a8572af0c0de02e51dfb6c0403c301ad77e75a8ef6844af0f2a2", "blockhash": "0000000000000000000e13cef7c366c0283d82e591d1acd082e914b08063cdf1", "vout": [{"scriptPubKey": {"reqSigs": 1, "hex": "76a914f8abf02c0d59cc9fa0fb25341a0ceea1e533014888ac", "addresses": ["1PfrZ3m52WiGMPp6KnBwxPcYEysY1FR1VC"], "asm": "OP_DUP OP_HASH160 f8abf02c0d59cc9fa0fb25341a0ceea1e5330148 OP_EQUALVERIFY OP_CHECKSIG", "type": "pubkeyhash"}, "value": 0.068943, "n": 0}, {"scriptPubKey": {"reqSigs": 1, "hex": "a914dee0a1cc9f055700143e0f4ecee53180ab3530dc87", "addresses": ["3N1V2qWA5hpScEmS72pMooYRmXUiLmwPQQ"], "asm": "OP_HASH160 dee0a1cc9f055700143e0f4ecee53180ab3530dc OP_EQUAL", "type": "scripthash"}, "value": 0.29035311, "n": 1}], "hex": "0200000000010110b3a0bf58c2b8ba1e1d459aa03118b7470aa09685f4a9d3e627d3a62dd925f30100000017160014cb5dbe423de4d42b6425c6921084c6197a5d2937ffffffff02dc326900000000001976a914f8abf02c0d59cc9fa0fb25341a0ceea1e533014888ac2f0bbb010000000017a914dee0a1cc9f055700143e0f4ecee53180ab3530dc8702483045022100fdd0e381119b908a973ac468a6357162e4bd54ad787f3f9109dc19e561f147970220230011b22f0957ffa8f6d7e4ee4fcb6986fefc221952903c727612e6f791e986012102acecad485eda786cbe0422823b7594aea6854abb5ec85e267f1c4b87f3f758f700000000", "vin": [{"txinwitness": ["3045022100fdd0e381119b908a973ac468a6357162e4bd54ad787f3f9109dc19e561f147970220230011b22f0957ffa8f6d7e4ee4fcb6986fefc221952903c727612e6f791e98601", "02acecad485eda786cbe0422823b7594aea6854abb5ec85e267f1c4b87f3f758f7"], "sequence": 4294967295, "scriptSig": {"hex": "160014cb5dbe423de4d42b6425c6921084c6197a5d2937", "asm": "0014cb5dbe423de4d42b6425c6921084c6197a5d2937"}, "vout": 1, "txid": "f325d92da6d327e6d3a9f48596a00a47b71831a09a451d1ebab8c258bfa0b310"}], "txid": "16e0ebe8d69a3661833b6f8cf067b0f7da6cb5937b6b92bef48eac0f12e86f45", "blocktime": 1537871767, "version": 2, "confirmations": 11490, "time": 1537871767, "locktime": 0, "vsize": 168, "size": 250}