{"hash": "16e6815fba57045b56ba772c25872f8c73e44e9cb2068defee95b6a54a33e979", "blockhash": "0000000000000000000e13cef7c366c0283d82e591d1acd082e914b08063cdf1", "vout": [{"scriptPubKey": {"reqSigs": 1, "hex": "76a9144dde3b4eedf2ce94898f6d8228234fc145c18c0088ac", "addresses": ["186jFhW3QpP28FdWWSjcbnxi8XEjvNxBJZ"], "asm": "OP_DUP OP_HASH160 4dde3b4eedf2ce94898f6d8228234fc145c18c00 OP_EQUALVERIFY OP_CHECKSIG", "type": "pubkeyhash"}, "value": 0.00046847, "n": 0}, {"scriptPubKey": {"reqSigs": 1, "hex": "76a914c96598d93ff074308aed42dd97ead9c22166941b88ac", "addresses": ["1KMtXeTH73kLrMGF9uBoyep2vuNMFeqqLR"], "asm": "OP_DUP OP_HASH160 c96598d93ff074308aed42dd97ead9c22166941b OP_EQUALVERIFY OP_CHECKSIG", "type": "pubkeyhash"}, "value": 0.03125176, "n": 1}], "hex": "0100000006175b599064a087922e410c0803b20b33bae8c0221f5a5903358e6f2c3e391d19010000006a47304402204887d913db9f020473ac7413fc94d26e83c9d6842bd646724eba2811a6555ea402203933bbaee3bf1463fddfa761394a7780e6ecd2834824e588e1253fbc24cb4c2c012102371680575a83050395b9feb31246abc9fcc7257f47c923b7bef7ec501d678b1dffffffff5ab73b1eecdcaa0ff63c724102768b7541ae8f7fe12134d6c0cb5a1113b36027010000006b48304502210081da00153d60453a4d849151a58f05d99a0e1ab18c24f6e5bd5bb2befafb99d9022027ee24cd641ed93e3288cf0eae149204d20ec355566b409a06a417ee93b7fd680121038504c33275ec75d3b393bff84ffc2c1651a192489baebf53f78fcc309c4a5768ffffffff9a8f91889a252eb5b5cc76589aba634a9edba32a74a24b61d1ad8f2c93990c2b010000006a473044022075165db1f88f1cc26e7c64b2ea579bdc4eb66648e486a0fe36db152ae99d1e9902200d16f4120d351738789a60417e90740967083a4b61da5f79112c911a4dc33638012102331726891ecb59051188c6001ca742d9957e7711401602d144b982a2efdd8815ffffffffd4d08d420bf929521b77593dd2db1140f36e63d2a431edec33530c6384fd6f5e010000006b483045022100deb7558e41f636194ec75633341834a250a8cc72fe7e8a97ca2706cd02bbcdba022025714d24b6953db7d5bd9c46ef3c2008f645469420cadeca2a111bc0c61cf4aa012102b2226f0ebf575dcaebb0e62b2d80d14996095cd7df8466e3fcf5e968e9ca08b1ffffffff09c74fea1b02ecbb1c16b4056a4d07436ec1d8c21c2c1bfdb43c953c2ad2d666000000006a47304402207bebcb29761b88a284ea67f53cf9741bb927c04c0f54e4927914d1d6c65eddaa022022857d7262dea916e6e9ef6e28d3e3959c82990377bac50e03571c4fdbb485e3012102371680575a83050395b9feb31246abc9fcc7257f47c923b7bef7ec501d678b1dffffffff7971a1276c931c76d43b5d4d3e34f5fb47d99df0e5622835d16e9d52d28b43de010000006b483045022100a786283022641bd4310d4561b71b151fd0421995e9efbabc96949d99021be008022034e5870f010b099350a479f32e8eac35020502a8645e93908d84bea36dd54a5f0121038504c33275ec75d3b393bff84ffc2c1651a192489baebf53f78fcc309c4a5768ffffffff02ffb60000000000001976a9144dde3b4eedf2ce94898f6d8228234fc145c18c0088acb8af2f00000000001976a914c96598d93ff074308aed42dd97ead9c22166941b88ac00000000", "vin": [{"sequence": 4294967295, "scriptSig": {"hex": "47304402204887d913db9f020473ac7413fc94d26e83c9d6842bd646724eba2811a6555ea402203933bbaee3bf1463fddfa761394a7780e6ecd2834824e588e1253fbc24cb4c2c012102371680575a83050395b9feb31246abc9fcc7257f47c923b7bef7ec501d678b1d", "asm": "304402204887d913db9f020473ac7413fc94d26e83c9d6842bd646724eba2811a6555ea402203933bbaee3bf1463fddfa761394a7780e6ecd2834824e588e1253fbc24cb4c2c[ALL] 02371680575a83050395b9feb31246abc9fcc7257f47c923b7bef7ec501d678b1d"}, "vout": 1, "txid": "191d393e2c6f8e3503595a1f22c0e8ba330bb203080c412e9287a06490595b17"}, {"sequence": 4294967295, "scriptSig": {"hex": "48304502210081da00153d60453a4d849151a58f05d99a0e1ab18c24f6e5bd5bb2befafb99d9022027ee24cd641ed93e3288cf0eae149204d20ec355566b409a06a417ee93b7fd680121038504c33275ec75d3b393bff84ffc2c1651a192489baebf53f78fcc309c4a5768", "asm": "304502210081da00153d60453a4d849151a58f05d99a0e1ab18c24f6e5bd5bb2befafb99d9022027ee24cd641ed93e3288cf0eae149204d20ec355566b409a06a417ee93b7fd68[ALL] 038504c33275ec75d3b393bff84ffc2c1651a192489baebf53f78fcc309c4a5768"}, "vout": 1, "txid": "2760b313115acbc0d63421e17f8fae41758b760241723cf60faadcec1e3bb75a"}, {"sequence": 4294967295, "scriptSig": {"hex": "473044022075165db1f88f1cc26e7c64b2ea579bdc4eb66648e486a0fe36db152ae99d1e9902200d16f4120d351738789a60417e90740967083a4b61da5f79112c911a4dc33638012102331726891ecb59051188c6001ca742d9957e7711401602d144b982a2efdd8815", "asm": "3044022075165db1f88f1cc26e7c64b2ea579bdc4eb66648e486a0fe36db152ae99d1e9902200d16f4120d351738789a60417e90740967083a4b61da5f79112c911a4dc33638[ALL] 02331726891ecb59051188c6001ca742d9957e7711401602d144b982a2efdd8815"}, "vout": 1, "txid": "2b0c99932c8fadd1614ba2742aa3db9e4a63ba9a5876ccb5b52e259a88918f9a"}, {"sequence": 4294967295, "scriptSig": {"hex": "483045022100deb7558e41f636194ec75633341834a250a8cc72fe7e8a97ca2706cd02bbcdba022025714d24b6953db7d5bd9c46ef3c2008f645469420cadeca2a111bc0c61cf4aa012102b2226f0ebf575dcaebb0e62b2d80d14996095cd7df8466e3fcf5e968e9ca08b1", "asm": "3045022100deb7558e41f636194ec75633341834a250a8cc72fe7e8a97ca2706cd02bbcdba022025714d24b6953db7d5bd9c46ef3c2008f645469420cadeca2a111bc0c61cf4aa[ALL] 02b2226f0ebf575dcaebb0e62b2d80d14996095cd7df8466e3fcf5e968e9ca08b1"}, "vout": 1, "txid": "5e6ffd84630c5333eced31a4d2636ef34011dbd23d59771b5229f90b428dd0d4"}, {"sequence": 4294967295, "scriptSig": {"hex": "47304402207bebcb29761b88a284ea67f53cf9741bb927c04c0f54e4927914d1d6c65eddaa022022857d7262dea916e6e9ef6e28d3e3959c82990377bac50e03571c4fdbb485e3012102371680575a83050395b9feb31246abc9fcc7257f47c923b7bef7ec501d678b1d", "asm": "304402207bebcb29761b88a284ea67f53cf9741bb927c04c0f54e4927914d1d6c65eddaa022022857d7262dea916e6e9ef6e28d3e3959c82990377bac50e03571c4fdbb485e3[ALL] 02371680575a83050395b9feb31246abc9fcc7257f47c923b7bef7ec501d678b1d"}, "vout": 0, "txid": "66d6d22a3c953cb4fd1b2c1cc2d8c16e43074d6a05b4161cbbec021bea4fc709"}, {"sequence": 4294967295, "scriptSig": {"hex": "483045022100a786283022641bd4310d4561b71b151fd0421995e9efbabc96949d99021be008022034e5870f010b099350a479f32e8eac35020502a8645e93908d84bea36dd54a5f0121038504c33275ec75d3b393bff84ffc2c1651a192489baebf53f78fcc309c4a5768", "asm": "3045022100a786283022641bd4310d4561b71b151fd0421995e9efbabc96949d99021be008022034e5870f010b099350a479f32e8eac35020502a8645e93908d84bea36dd54a5f[ALL] 038504c33275ec75d3b393bff84ffc2c1651a192489baebf53f78fcc309c4a5768"}, "vout": 1, "txid": "de438bd2529d6ed1352862e5f09dd947fbf5343e4d5d3bd4761c936c27a17179"}], "txid": "16e6815fba57045b56ba772c25872f8c73e44e9cb2068defee95b6a54a33e979", "blocktime": 1537871767, "version": 1, "confirmations": 11495, "time": 1537871767, "locktime": 0, "vsize": 963, "size": 963}