{"hash": "4e6cc5867c11ceec2e1921fe8fac51f8099ca8dfdb0fa7d47519c722fe9bc769", "blockhash": "0000000000000000000dcc0f55137456b1a82d3642486a52398922ac4d620174", "vout": [{"scriptPubKey": {"reqSigs": 1, "hex": "76a914fd71e19ecfaede1e5c41c092f837bcc90caf328788ac", "addresses": ["1Q76P9W8Awoo1mc4U8bVVS9hoQbFaPAC5m"], "asm": "OP_DUP OP_HASH160 fd71e19ecfaede1e5c41c092f837bcc90caf3287 OP_EQUALVERIFY OP_CHECKSIG", "type": "pubkeyhash"}, "value": 0.00144, "n": 0}, {"scriptPubKey": {"reqSigs": 1, "hex": "a914b44569319c543b6827f79697773b19ea96b243d987", "addresses": ["3J8ChpykL7j55qmtRQW7GCD1TAKAtQoBke"], "asm": "OP_HASH160 b44569319c543b6827f79697773b19ea96b243d9 OP_EQUAL", "type": "scripthash"}, "value": 0.01037086, "n": 1}], "hex": "020000000001025468d6e23ed77c279f3d494620ee3a76f21154d9e57d02728beb20b0c9e693b8000000001716001422db3a3a854c63939ed36773b49e0fa64b020efefeffffff7b0426df68d5822d4463effbac6ef57f64b95e80b685d690cfbde1b8ce68a0100100000017160014c2c042d91d54fd7fd868fe2bba00e17dd362e231feffffff0280320200000000001976a914fd71e19ecfaede1e5c41c092f837bcc90caf328788ac1ed30f000000000017a914b44569319c543b6827f79697773b19ea96b243d98702483045022100e397a5f97da32f46e104b8aa199f14fd532f0c7415f12f79de8e267f2a0cabd6022070e471374623c48c7295aa0d772f74635ee5cc0eaaa6a7c0f001115e420d2001012102223fd3d91db8da5141b20a4984ab783dfdfc1b441ac0f19b3c5e534dc9cc697602483045022100c26fb4ee0b260fb1611645db7aecb9ec7371522f16cdb9269b08ec091d4a251302200d6402ea22011ca586ea9e41d81b4a0ed41c5da957e38f4fbc3902ead82725070121022dceb49419ea8f93e8cb7fda5837daa925d3a03fcd79a535b1712b937f5d819e00000000", "vin": [{"txinwitness": ["3045022100e397a5f97da32f46e104b8aa199f14fd532f0c7415f12f79de8e267f2a0cabd6022070e471374623c48c7295aa0d772f74635ee5cc0eaaa6a7c0f001115e420d200101", "02223fd3d91db8da5141b20a4984ab783dfdfc1b441ac0f19b3c5e534dc9cc6976"], "sequence": 4294967294, "scriptSig": {"hex": "16001422db3a3a854c63939ed36773b49e0fa64b020efe", "asm": "001422db3a3a854c63939ed36773b49e0fa64b020efe"}, "vout": 0, "txid": "b893e6c9b020eb8b72027de5d95411f2763aee2046493d9f277cd73ee2d66854"}, {"txinwitness": ["3045022100c26fb4ee0b260fb1611645db7aecb9ec7371522f16cdb9269b08ec091d4a251302200d6402ea22011ca586ea9e41d81b4a0ed41c5da957e38f4fbc3902ead827250701", "022dceb49419ea8f93e8cb7fda5837daa925d3a03fcd79a535b1712b937f5d819e"], "sequence": 4294967294, "scriptSig": {"hex": "160014c2c042d91d54fd7fd868fe2bba00e17dd362e231", "asm": "0014c2c042d91d54fd7fd868fe2bba00e17dd362e231"}, "vout": 1, "txid": "10a068ceb8e1bdcf90d685b6805eb9647ff56eacfbef63442d82d568df26047b"}], "txid": "16e9703b979cd75daf32694c71604653b923bc05f235d388d9620e9d13787b95", "blocktime": 1537870268, "version": 2, "confirmations": 11518, "time": 1537870268, "locktime": 0, "vsize": 259, "size": 422}