{"hash": "16ecb9cfbc2e7aeba9b4b8f4d1a23a8ad6043f595ad0506c21f8b0ee20f70141", "blockhash": "0000000000000000001e0dab787dd257d1dbfcb92a98c2207d5e1078be1f4165", "vout": [{"scriptPubKey": {"reqSigs": 1, "hex": "76a9141df3f3aa2e3deafce2c19bee644291414d091b7588ac", "addresses": ["13jNqdgKVyAHRkFG5SmxxSwi8mHuzHTK86"], "asm": "OP_DUP OP_HASH160 1df3f3aa2e3deafce2c19bee644291414d091b75 OP_EQUALVERIFY OP_CHECKSIG", "type": "pubkeyhash"}, "value": 0.00200036, "n": 0}, {"scriptPubKey": {"reqSigs": 1, "hex": "76a91490c8f81adf6e9ca50f9908a6492e91df678b5dbc88ac", "addresses": ["1ECZ4CvhdaA3JkSRckEYHxT86gSqpnDiLY"], "asm": "OP_DUP OP_HASH160 90c8f81adf6e9ca50f9908a6492e91df678b5dbc OP_EQUALVERIFY OP_CHECKSIG", "type": "pubkeyhash"}, "value": 0.0046836, "n": 1}], "hex": "010000000122a496a70ab9a00b007c2b88b001e1e789a173557c9a44cd0f45d56e02fbfb30000000006b483045022100b5c768ab1af9245a4532efb61cb3587908deabf3d0a67db251dc00e66835256a022031679d52eed039225c9e7ab77ae5174f7e43d8bd8a7afd04cf51d994d5c9a8b10121030599f2fc8d094f9a556b40cc0b2140100c3257a84331ca5ad45cd4729180e657ffffffff02640d0300000000001976a9141df3f3aa2e3deafce2c19bee644291414d091b7588ac88250700000000001976a91490c8f81adf6e9ca50f9908a6492e91df678b5dbc88ac00000000", "vin": [{"sequence": 4294967295, "scriptSig": {"hex": "483045022100b5c768ab1af9245a4532efb61cb3587908deabf3d0a67db251dc00e66835256a022031679d52eed039225c9e7ab77ae5174f7e43d8bd8a7afd04cf51d994d5c9a8b10121030599f2fc8d094f9a556b40cc0b2140100c3257a84331ca5ad45cd4729180e657", "asm": "3045022100b5c768ab1af9245a4532efb61cb3587908deabf3d0a67db251dc00e66835256a022031679d52eed039225c9e7ab77ae5174f7e43d8bd8a7afd04cf51d994d5c9a8b1[ALL] 030599f2fc8d094f9a556b40cc0b2140100c3257a84331ca5ad45cd4729180e657"}, "vout": 0, "txid": "30fbfb026ed5450fcd449a7c5573a189e7e101b0882b7c000ba0b90aa796a422"}], "txid": "16ecb9cfbc2e7aeba9b4b8f4d1a23a8ad6043f595ad0506c21f8b0ee20f70141", "blocktime": 1537872475, "version": 1, "confirmations": 11487, "time": 1537872475, "locktime": 0, "vsize": 226, "size": 226}