{"hash": "16efebae0442d0cdddbcbb11be6a4a6030dc7c107d53b21cba0a01487303e7aa", "blockhash": "00000000000000000024a2167bbff67b0be802c0b01cdd79e6331c2be6459f87", "vout": [{"scriptPubKey": {"reqSigs": 1, "hex": "0014aca0602dfd266c19ba6ea30731da1c80fbf31a3a", "addresses": ["bc1q4jsxqt0ayekpnwnw5vrnrksusralxx36h0x5sl"], "asm": "0 aca0602dfd266c19ba6ea30731da1c80fbf31a3a", "type": "witness_v0_keyhash"}, "value": 1.047e-05, "n": 0}, {"scriptPubKey": {"reqSigs": 1, "hex": "a914b01de48e05119f34593f949c02882b257d8ed4f887", "addresses": ["3HkEfHydF7QdofxS13QhENP5rzRHbFPqsz"], "asm": "OP_HASH160 b01de48e05119f34593f949c02882b257d8ed4f8 OP_EQUAL", "type": "scripthash"}, "value": 0.000282, "n": 1}], "hex": "0100000001025efef4db1929e0b58a6bae9e41a3602445c2c695681075d2c2cd296b63125f140000006b4830450221009e5acba1b6fcada910ab2b234d1f326c0a841a1713f6f0a81550b1017d97e5b002204af99e3ec48ffc9aa28f509ce137a63776f068e5e162f4558429ac970e4f40d8012103c01e2a49e92890962d5306da7c55e4b6c94aaf831bbea26dd260a8b3711c7209ffffffff021704000000000000160014aca0602dfd266c19ba6ea30731da1c80fbf31a3a286e00000000000017a914b01de48e05119f34593f949c02882b257d8ed4f88700000000", "vin": [{"sequence": 4294967295, "scriptSig": {"hex": "4830450221009e5acba1b6fcada910ab2b234d1f326c0a841a1713f6f0a81550b1017d97e5b002204af99e3ec48ffc9aa28f509ce137a63776f068e5e162f4558429ac970e4f40d8012103c01e2a49e92890962d5306da7c55e4b6c94aaf831bbea26dd260a8b3711c7209", "asm": "30450221009e5acba1b6fcada910ab2b234d1f326c0a841a1713f6f0a81550b1017d97e5b002204af99e3ec48ffc9aa28f509ce137a63776f068e5e162f4558429ac970e4f40d8[ALL] 03c01e2a49e92890962d5306da7c55e4b6c94aaf831bbea26dd260a8b3711c7209"}, "vout": 20, "txid": "5f12636b29cdc2d275106895c6c2452460a3419eae6b8ab5e02919dbf4fe5e02"}], "txid": "16efebae0442d0cdddbcbb11be6a4a6030dc7c107d53b21cba0a01487303e7aa", "blocktime": 1537870564, "version": 1, "confirmations": 11515, "time": 1537870564, "locktime": 0, "vsize": 221, "size": 221}