{"hash": "e8ada15be5f6ba50b2beb733a87e832df4a086b8b576c34f0c0a950b26d8f2e9", "blockhash": "0000000000000000001cda96e906b7601b7a6fb1a3b62bca570a9e5d8f4b3de1", "vout": [{"scriptPubKey": {"reqSigs": 1, "hex": "a91453dfd18efedbf874ff96155f2136a9bc8c61de0b87", "addresses": ["39LW8esh8WAtQMBup5hxENrDWdqNFo9cP7"], "asm": "OP_HASH160 53dfd18efedbf874ff96155f2136a9bc8c61de0b OP_EQUAL", "type": "scripthash"}, "value": 0.05175093, "n": 0}, {"scriptPubKey": {"reqSigs": 1, "hex": "a914eebe761bc519bb9e79fa3abe1ad35e66d3de80a487", "addresses": ["3PTNugnYueyaphjj5aEC4hJyXB8N69jio9"], "asm": "OP_HASH160 eebe761bc519bb9e79fa3abe1ad35e66d3de80a4 OP_EQUAL", "type": "scripthash"}, "value": 0.00999096, "n": 1}], "hex": "0200000000010163c6c9cb9b8755e4d7b15b898e25b05147cac2b82bc96bfd46fde2203c25b800000000001716001486b97f9a2a7a686b01655a0dcedf928569129b86feffffff0235f74e000000000017a91453dfd18efedbf874ff96155f2136a9bc8c61de0b87b83e0f000000000017a914eebe761bc519bb9e79fa3abe1ad35e66d3de80a487024730440220670065b2ad80e589778e3c28fe161a95cef8c9958eb0bb60af4b989a20a48f4602201817177283a88bfa6f0939dd51778dce8aacbcf2c979c5e85966cf08b847e4260121030c0425aab95242897af6142a412e6b839504f5dc4961783d3ee2e9ea0b06343a13490800", "vin": [{"txinwitness": ["30440220670065b2ad80e589778e3c28fe161a95cef8c9958eb0bb60af4b989a20a48f4602201817177283a88bfa6f0939dd51778dce8aacbcf2c979c5e85966cf08b847e42601", "030c0425aab95242897af6142a412e6b839504f5dc4961783d3ee2e9ea0b06343a"], "sequence": 4294967294, "scriptSig": {"hex": "16001486b97f9a2a7a686b01655a0dcedf928569129b86", "asm": "001486b97f9a2a7a686b01655a0dcedf928569129b86"}, "vout": 0, "txid": "00b8253c20e2fd46fd6bc92bb8c2ca4751b0258e895bb1d7e455879bcbc9c663"}], "txid": "16f036c5a06ed50e8e3d9f86f05fc8428a65aa3d7e559e0ce7587a3f5931eae3", "blocktime": 1537873282, "version": 2, "confirmations": 11484, "time": 1537873282, "locktime": 542995, "vsize": 166, "size": 247}