{"hash": "16f2d407c8a962b166023eb4ec971ef1cfe637aa6543d991d57ab3fc48a18fea", "blockhash": "0000000000000000000dcc0f55137456b1a82d3642486a52398922ac4d620174", "vout": [{"scriptPubKey": {"reqSigs": 1, "hex": "a914bb95248aa2739baa3e61c5c5200a824f57ef8b9a87", "addresses": ["3Jnrx313pgJU3v9AppFjiMvFE6tNErriz5"], "asm": "OP_HASH160 bb95248aa2739baa3e61c5c5200a824f57ef8b9a OP_EQUAL", "type": "scripthash"}, "value": 0.00171738, "n": 0}, {"scriptPubKey": {"reqSigs": 1, "hex": "76a9149fe7d4cdbab61d8a0d962f095fc73653bde6089288ac", "addresses": ["1FaWARLkF7PmqsnrxemGARaFvnims7TH6M"], "asm": "OP_DUP OP_HASH160 9fe7d4cdbab61d8a0d962f095fc73653bde60892 OP_EQUALVERIFY OP_CHECKSIG", "type": "pubkeyhash"}, "value": 0.02691035, "n": 1}], "hex": "0100000002a9b2dd8e668c47b6fb52503685103697201698a949797a4382bf258f26d4455f010000006b483045022100d72dd47900ceb76dc77ab896960da30dad7d4993ac6d1d6c673afece2223aa44022070558930389aed6530210ac7c0359f78b2013a941c106392b3d148cc2b4535050121035668cd2a102218b19f59e5527d9b9d1d50bec4ffb4ea0b467dba42db5a80f9abffffffff929a6c7e8c60cac79649e85763937dd4ae5a484358db71d5150d7a4c3ddb907f000000006a47304402204cacfb8ba1a89e1e70f83ccc6499d6b5f26afc5ce4f4ed33ba6c0c2ac94eb58f0220120cd8f54cb020a371f1286e156dcb61fde0034d4e1f6c0602da629075dc8b6c0121035668cd2a102218b19f59e5527d9b9d1d50bec4ffb4ea0b467dba42db5a80f9abffffffff02da9e02000000000017a914bb95248aa2739baa3e61c5c5200a824f57ef8b9a87db0f2900000000001976a9149fe7d4cdbab61d8a0d962f095fc73653bde6089288ac00000000", "vin": [{"sequence": 4294967295, "scriptSig": {"hex": "483045022100d72dd47900ceb76dc77ab896960da30dad7d4993ac6d1d6c673afece2223aa44022070558930389aed6530210ac7c0359f78b2013a941c106392b3d148cc2b4535050121035668cd2a102218b19f59e5527d9b9d1d50bec4ffb4ea0b467dba42db5a80f9ab", "asm": "3045022100d72dd47900ceb76dc77ab896960da30dad7d4993ac6d1d6c673afece2223aa44022070558930389aed6530210ac7c0359f78b2013a941c106392b3d148cc2b453505[ALL] 035668cd2a102218b19f59e5527d9b9d1d50bec4ffb4ea0b467dba42db5a80f9ab"}, "vout": 1, "txid": "5f45d4268f25bf82437a7949a998162097361085365052fbb6478c668eddb2a9"}, {"sequence": 4294967295, "scriptSig": {"hex": "47304402204cacfb8ba1a89e1e70f83ccc6499d6b5f26afc5ce4f4ed33ba6c0c2ac94eb58f0220120cd8f54cb020a371f1286e156dcb61fde0034d4e1f6c0602da629075dc8b6c0121035668cd2a102218b19f59e5527d9b9d1d50bec4ffb4ea0b467dba42db5a80f9ab", "asm": "304402204cacfb8ba1a89e1e70f83ccc6499d6b5f26afc5ce4f4ed33ba6c0c2ac94eb58f0220120cd8f54cb020a371f1286e156dcb61fde0034d4e1f6c0602da629075dc8b6c[ALL] 035668cd2a102218b19f59e5527d9b9d1d50bec4ffb4ea0b467dba42db5a80f9ab"}, "vout": 0, "txid": "7f90db3d4c7a0d15d571db5843485aaed47d936357e84996c7ca608c7e6c9a92"}], "txid": "16f2d407c8a962b166023eb4ec971ef1cfe637aa6543d991d57ab3fc48a18fea", "blocktime": 1537870268, "version": 1, "confirmations": 11516, "time": 1537870268, "locktime": 0, "vsize": 371, "size": 371}