{"hash": "6e1c9f90df93df811c5730042fe09847a4811c3750f15a281ee3bd63813e0608", "blockhash": "0000000000000000001cda96e906b7601b7a6fb1a3b62bca570a9e5d8f4b3de1", "vout": [{"scriptPubKey": {"reqSigs": 1, "hex": "a914fb06ce1cab612ec8844797bf397b1b419f30f95d87", "addresses": ["3QaKgXCnQNyALFJjbCyUhib3KyUTvs4HJr"], "asm": "OP_HASH160 fb06ce1cab612ec8844797bf397b1b419f30f95d OP_EQUAL", "type": "scripthash"}, "value": 0.01635835, "n": 0}, {"scriptPubKey": {"reqSigs": 1, "hex": "76a9148d3ea1a917d300e0b527fa1e7ad4fc2222d9f33288ac", "addresses": ["1DsqJm5puCeVDWDfNDptpGHkVQrtG5a3aQ"], "asm": "OP_DUP OP_HASH160 8d3ea1a917d300e0b527fa1e7ad4fc2222d9f332 OP_EQUALVERIFY OP_CHECKSIG", "type": "pubkeyhash"}, "value": 0.0037631, "n": 1}], "hex": "0200000000010279283709046a1de6e063a62159e7434111a1042c74b0a76232faf0e9c3ac6411000000001716001447480e7669ab87691a695a62cd875917a204aa29feffffff9d435d13c694bae93962f091aa460faf6c74ad62bf38203d5fa0433cfdb5c4cc0000000017160014734e20185e0641f600e50d30ecffe25c02526674feffffff02fbf518000000000017a914fb06ce1cab612ec8844797bf397b1b419f30f95d87f6bd0500000000001976a9148d3ea1a917d300e0b527fa1e7ad4fc2222d9f33288ac02473044022049fc4b538195bb096eea865633234d36f2196c3569631cf74f94cf5d265d8d5b0220354f1d7b04bf6abe9cf7182ef9c8533c0093be4340bd521199d550c5f06d103e012102ff3bc8970516cdb4de5bf0b6b6ea761946bc7cd386d53732a0cce138c9c86c3702483045022100f66011ed37a437528e438e97d951fd665d3cfba3e84043edc5cf44a0c85e1b3e02207a56848b364e036277c81da6578325557802f8e14dc4396d3a466d811250a5390121036e9bca40b25b3986a02be4d22a739dcc030cbfbc4d308f4b0fc3d40478a5eedd13490800", "vin": [{"txinwitness": ["3044022049fc4b538195bb096eea865633234d36f2196c3569631cf74f94cf5d265d8d5b0220354f1d7b04bf6abe9cf7182ef9c8533c0093be4340bd521199d550c5f06d103e01", "02ff3bc8970516cdb4de5bf0b6b6ea761946bc7cd386d53732a0cce138c9c86c37"], "sequence": 4294967294, "scriptSig": {"hex": "16001447480e7669ab87691a695a62cd875917a204aa29", "asm": "001447480e7669ab87691a695a62cd875917a204aa29"}, "vout": 0, "txid": "1164acc3e9f0fa3262a7b0742c04a1114143e75921a663e0e61d6a0409372879"}, {"txinwitness": ["3045022100f66011ed37a437528e438e97d951fd665d3cfba3e84043edc5cf44a0c85e1b3e02207a56848b364e036277c81da6578325557802f8e14dc4396d3a466d811250a53901", "036e9bca40b25b3986a02be4d22a739dcc030cbfbc4d308f4b0fc3d40478a5eedd"], "sequence": 4294967294, "scriptSig": {"hex": "160014734e20185e0641f600e50d30ecffe25c02526674", "asm": "0014734e20185e0641f600e50d30ecffe25c02526674"}, "vout": 0, "txid": "ccc4b5fd3c43a05f3d2038bf62ad746caf0f46aa91f06239e9ba94c6135d439d"}], "txid": "16f35a85913dc0523a810c77e086299dc344706a518725a1ee93d726fcc623a9", "blocktime": 1537873282, "version": 2, "confirmations": 11485, "time": 1537873282, "locktime": 542995, "vsize": 259, "size": 421}