{"hash": "7806671b5014cfce381d5493d84db7e124a8c59ee51c4bc4358c4ec951c1932e", "blockhash": "000000000000000000022b45ed06c6f4ccd3cf7fb5ba4856ebd2e58215665228", "vout": [{"scriptPubKey": {"reqSigs": 1, "hex": "a9146b564f1bc02f4cafd5c25c1253d750292eb5659c87", "addresses": ["3BUZcvcp3eKP2q3jovqGhWGweHzd9vPw12"], "asm": "OP_HASH160 6b564f1bc02f4cafd5c25c1253d750292eb5659c OP_EQUAL", "type": "scripthash"}, "value": 0.00306292, "n": 0}, {"scriptPubKey": {"reqSigs": 1, "hex": "76a914da96d143d094fa5e2bc46119aaa28b17bd8cfdcd88ac", "addresses": ["1LvnyoKJDvvEKCvxYscSXyacsoA83ABxKf"], "asm": "OP_DUP OP_HASH160 da96d143d094fa5e2bc46119aaa28b17bd8cfdcd OP_EQUALVERIFY OP_CHECKSIG", "type": "pubkeyhash"}, "value": 0.0022, "n": 1}, {"scriptPubKey": {"reqSigs": 1, "hex": "a914cc8646ca9d2b36f1b8746057b4a8661bed7a228987", "addresses": ["3LLSdNeGh3JdhWsqHDKpYqdzBNUbzC64Jo"], "asm": "OP_HASH160 cc8646ca9d2b36f1b8746057b4a8661bed7a2289 OP_EQUAL", "type": "scripthash"}, "value": 0.00171399, "n": 2}, {"scriptPubKey": {"reqSigs": 1, "hex": "a914a0b82500665ece1f9d8c8e0c08d118eddff6efd187", "addresses": ["3GLpdpi73EYdiAqMt5U7h6TBZ8YYshbp65"], "asm": "OP_HASH160 a0b82500665ece1f9d8c8e0c08d118eddff6efd1 OP_EQUAL", "type": "scripthash"}, "value": 0.00275, "n": 3}, {"scriptPubKey": {"reqSigs": 1, "hex": "a91414772f035c7b8586e74cef3ab0bc57aba5b2e7fe87", "addresses": ["33ZEDQTLBcmcYrwmjhnC9PZ2V3U7EfB24q"], "asm": "OP_HASH160 14772f035c7b8586e74cef3ab0bc57aba5b2e7fe OP_EQUAL", "type": "scripthash"}, "value": 0.0032106, "n": 4}, {"scriptPubKey": {"reqSigs": 1, "hex": "a914eaf12ba860a5a052929a511cdfc47392ee1f6a3987", "addresses": ["3P7GxFjTk7MdK6dTdfScCqnej6d5Ccj2Qz"], "asm": "OP_HASH160 eaf12ba860a5a052929a511cdfc47392ee1f6a39 OP_EQUAL", "type": "scripthash"}, "value": 0.0035666, "n": 5}, {"scriptPubKey": {"reqSigs": 1, "hex": "a9149f429cf4ab4c7d8d57c7e1b4b6694639238b38f287", "addresses": ["3GD7AQRfQhoADo7tgi6kh5TbrLmeSK8GPi"], "asm": "OP_HASH160 9f429cf4ab4c7d8d57c7e1b4b6694639238b38f2 OP_EQUAL", "type": "scripthash"}, "value": 0.0047346, "n": 6}, {"scriptPubKey": {"reqSigs": 1, "hex": "a914b5ab32dce25de83451ccb933de1bfbed966bf57887", "addresses": ["3JFbKMirES66ayGoSa9RjqFbQo2QfXvQQh"], "asm": "OP_HASH160 b5ab32dce25de83451ccb933de1bfbed966bf578 OP_EQUAL", "type": "scripthash"}, "value": 0.00285539, "n": 7}, {"scriptPubKey": {"reqSigs": 1, "hex": "a91442255f28059f7c6fcdb0d5ab0b8d722a7e87f2ac87", "addresses": ["37imHqSvKQvUN4LKHhbXjjSVQd4Z7Baovf"], "asm": "OP_HASH160 42255f28059f7c6fcdb0d5ab0b8d722a7e87f2ac OP_EQUAL", "type": "scripthash"}, "value": 0.0027296, "n": 8}, {"scriptPubKey": {"reqSigs": 1, "hex": "a914f4327d04efa1313ba740502a5b4dce3255dbc5c387", "addresses": ["3PxDHLqja8UKPveEWiiCo6B24A2NNnMcbj"], "asm": "OP_HASH160 f4327d04efa1313ba740502a5b4dce3255dbc5c3 OP_EQUAL", "type": "scripthash"}, "value": 0.0026636, "n": 9}, {"scriptPubKey": {"reqSigs": 1, "hex": "a9145c33e34120bdbdf037e05dc29c0fb006f7c959fb87", "addresses": ["3A6YFQwgKxgVv3TUpHth9jwDf8PJZLTbmV"], "asm": "OP_HASH160 5c33e34120bdbdf037e05dc29c0fb006f7c959fb OP_EQUAL", "type": "scripthash"}, "value": 0.0030916, "n": 10}, {"scriptPubKey": {"reqSigs": 1, "hex": "a914f75891b97a1eae30fec21e6c39e408a227e5681587", "addresses": ["3QErvpmC5ddqFx2rQJy8b58L1nGtUsZBqB"], "asm": "OP_HASH160 f75891b97a1eae30fec21e6c39e408a227e56815 OP_EQUAL", "type": "scripthash"}, "value": 0.00193812, "n": 11}, {"scriptPubKey": {"reqSigs": 1, "hex": "a91476896cac1fcc0b41737d7d249f674610109b864487", "addresses": ["3CVnHbqgmzLgnuz89KLSRDqxB8rwSXg828"], "asm": "OP_HASH160 76896cac1fcc0b41737d7d249f674610109b8644 OP_EQUAL", "type": "scripthash"}, "value": 0.0008, "n": 12}, {"scriptPubKey": {"reqSigs": 1, "hex": "a914eb6f7d16171a6a91b0f41cc3d6b166f71db0531487", "addresses": ["3P9tGzJw8TaRQwsN7QpYAnwpAWNTp5bu4n"], "asm": "OP_HASH160 eb6f7d16171a6a91b0f41cc3d6b166f71db05314 OP_EQUAL", "type": "scripthash"}, "value": 0.0033296, "n": 13}, {"scriptPubKey": {"reqSigs": 1, "hex": "a91434a427168170810db6b84a5bb560685e2e55cdfd87", "addresses": ["36VMi3iMP1JJA1fMdZm56ag6pJ2mqeqgh6"], "asm": "OP_HASH160 34a427168170810db6b84a5bb560685e2e55cdfd OP_EQUAL", "type": "scripthash"}, "value": 1.24768983, "n": 14}, {"scriptPubKey": {"reqSigs": 1, "hex": "a914396181ddabda1d4421bfa9a472d6de30cf85d33487", "addresses": ["36vRFQLt3B9KE41PXh84um35xmj2MLPUoa"], "asm": "OP_HASH160 396181ddabda1d4421bfa9a472d6de30cf85d334 OP_EQUAL", "type": "scripthash"}, "value": 0.0026136, "n": 15}, {"scriptPubKey": {"reqSigs": 1, "hex": "76a914a2445dade395fc58af62bfe8892b70c0c10544a588ac", "addresses": ["1FnzNE3hEnUaWuQNGVWsLHkbEE3dpBj9XS"], "asm": "OP_DUP OP_HASH160 a2445dade395fc58af62bfe8892b70c0c10544a5 OP_EQUALVERIFY OP_CHECKSIG", "type": "pubkeyhash"}, "value": 0.0043, "n": 16}, {"scriptPubKey": {"reqSigs": 1, "hex": "a91434c28d43bb7639d6c0514952b4afb2f7bf60d5d987", "addresses": ["36Vz8DUu7W9MPbgdtH2hyhUs7e5F2A85oN"], "asm": "OP_HASH160 34c28d43bb7639d6c0514952b4afb2f7bf60d5d9 OP_EQUAL", "type": "scripthash"}, "value": 0.0047606, "n": 17}, {"scriptPubKey": {"reqSigs": 1, "hex": "a914784a9f63b4cf583e99425e84d1a29482e3d3acb987", "addresses": ["3Cf4QS6tWTYUt9PRUgEGxkwinKek33bxYN"], "asm": "OP_HASH160 784a9f63b4cf583e99425e84d1a29482e3d3acb9 OP_EQUAL", "type": "scripthash"}, "value": 0.0023696, "n": 18}], "hex": "02000000000101bf34756785a2065b9e0699a6d8e5f414d86e0ca5aaa726de9ad19818c62581e814000000171600145839453f7be5a7bc1b55a8a2c89589e08c8c1c6dfeffffff1374ac04000000000017a9146b564f1bc02f4cafd5c25c1253d750292eb5659c87605b0300000000001976a914da96d143d094fa5e2bc46119aaa28b17bd8cfdcd88ac879d02000000000017a914cc8646ca9d2b36f1b8746057b4a8661bed7a228987383204000000000017a914a0b82500665ece1f9d8c8e0c08d118eddff6efd18724e604000000000017a91414772f035c7b8586e74cef3ab0bc57aba5b2e7fe87347105000000000017a914eaf12ba860a5a052929a511cdfc47392ee1f6a3987743907000000000017a9149f429cf4ab4c7d8d57c7e1b4b6694639238b38f287635b04000000000017a914b5ab32dce25de83451ccb933de1bfbed966bf57887402a04000000000017a91442255f28059f7c6fcdb0d5ab0b8d722a7e87f2ac87781004000000000017a914f4327d04efa1313ba740502a5b4dce3255dbc5c387a8b704000000000017a9145c33e34120bdbdf037e05dc29c0fb006f7c959fb8714f502000000000017a914f75891b97a1eae30fec21e6c39e408a227e5681587803801000000000017a91476896cac1fcc0b41737d7d249f674610109b864487a01405000000000017a914eb6f7d16171a6a91b0f41cc3d6b166f71db0531487d7d26f070000000017a91434a427168170810db6b84a5bb560685e2e55cdfd87f0fc03000000000017a914396181ddabda1d4421bfa9a472d6de30cf85d33487b08f0600000000001976a914a2445dade395fc58af62bfe8892b70c0c10544a588ac9c4307000000000017a91434c28d43bb7639d6c0514952b4afb2f7bf60d5d987a09d03000000000017a914784a9f63b4cf583e99425e84d1a29482e3d3acb98702473044022029fdb6688d2e5a842ececccdc5706db78eee6e91f6df55988a86f84c00208e8302200e3f2e5d6b01a3a1816c78821dc11870e945f273cedc5224a152a78e7707d54c0121022959f20855cd8e65251edae7c6cce6470e08126c7bfe3fb7cc5e961098af76c50b490800", "vin": [{"txinwitness": ["3044022029fdb6688d2e5a842ececccdc5706db78eee6e91f6df55988a86f84c00208e8302200e3f2e5d6b01a3a1816c78821dc11870e945f273cedc5224a152a78e7707d54c01", "022959f20855cd8e65251edae7c6cce6470e08126c7bfe3fb7cc5e961098af76c5"], "sequence": 4294967294, "scriptSig": {"hex": "1600145839453f7be5a7bc1b55a8a2c89589e08c8c1c6d", "asm": "00145839453f7be5a7bc1b55a8a2c89589e08c8c1c6d"}, "vout": 20, "txid": "e88125c61898d19ade26a7aaa50c6ed814f4e5d8a699069e5b06a285677534bf"}], "txid": "16f51ec5a002d723af4032e59dd50d9a7cd1922995693035a9fa6988a1033509", "blocktime": 1537869901, "version": 2, "confirmations": 11522, "time": 1537869901, "locktime": 542987, "vsize": 714, "size": 795}