{"hash": "88a5bdc27bc86930ad58e51710aad8567ebad193dbb6cbad4be479fd1071f218", "blockhash": "0000000000000000001f76057863aec43deb6fa401d9628bb513d65a8098bfab", "vout": [{"scriptPubKey": {"reqSigs": 1, "hex": "76a91479ad626527c715964aa9053a6ac405b77d84447a88ac", "addresses": ["1C6NUAjFqT6FkuFGe9BdyLyZL79Pu2kGhL"], "asm": "OP_DUP OP_HASH160 79ad626527c715964aa9053a6ac405b77d84447a OP_EQUALVERIFY OP_CHECKSIG", "type": "pubkeyhash"}, "value": 0.00159908, "n": 0}, {"scriptPubKey": {"reqSigs": 1, "hex": "a91480873f1bb8a0406281cf3cbb7707a25ee4e61bde87", "addresses": ["3DQcSC21jHW6oJPcHE5seo9sSanZZAYxqJ"], "asm": "OP_HASH160 80873f1bb8a0406281cf3cbb7707a25ee4e61bde OP_EQUAL", "type": "scripthash"}, "value": 0.41304184, "n": 1}], "hex": "02000000000101d5d8ce2c990caffa3e140247f932bd87d6a54b6f1838b5485d1721774aa9a4770000000017160014cac4bc8caf13f35791a23e907a6afbf600adfb18feffffff02a4700200000000001976a91479ad626527c715964aa9053a6ac405b77d84447a88ac784076020000000017a91480873f1bb8a0406281cf3cbb7707a25ee4e61bde870247304402204d9743752c915a0fe66f8a3ce76fc7ba697b9922571ecfac85fc49773fbacc4a02206cc9040614ec3a2f4940f12dbc6f771d604331417650387b27f8a31ca3b6a9a4012102fd422d55abe77b815eff8a298067c93a0bb8abfaf53eaa750e678b4de7070f8a14490800", "vin": [{"txinwitness": ["304402204d9743752c915a0fe66f8a3ce76fc7ba697b9922571ecfac85fc49773fbacc4a02206cc9040614ec3a2f4940f12dbc6f771d604331417650387b27f8a31ca3b6a9a401", "02fd422d55abe77b815eff8a298067c93a0bb8abfaf53eaa750e678b4de7070f8a"], "sequence": 4294967294, "scriptSig": {"hex": "160014cac4bc8caf13f35791a23e907a6afbf600adfb18", "asm": "0014cac4bc8caf13f35791a23e907a6afbf600adfb18"}, "vout": 0, "txid": "77a4a94a7721175d48b538186f4ba5d687bd32f94702143efaaf0c992cced8d5"}], "txid": "16fb7b02ac4df813e8802e746e3d9962bf0e1b87ef1ca75474b79a5d3dfc99bd", "blocktime": 1537873891, "version": 2, "confirmations": 11476, "time": 1537873891, "locktime": 542996, "vsize": 168, "size": 249}