{"hash": "181d41f715cbd777093d9d4498de77282506c7c205db0c7de4f56b67258e9069", "blockhash": "0000000000000000001cda96e906b7601b7a6fb1a3b62bca570a9e5d8f4b3de1", "vout": [{"scriptPubKey": {"reqSigs": 1, "hex": "0014f2982bc514c2cf08a7043311edabba273234af9d", "addresses": ["bc1q72vzh3g5ct8s3fcyxvg7m2a6yuerftua8gy796"], "asm": "0 f2982bc514c2cf08a7043311edabba273234af9d", "type": "witness_v0_keyhash"}, "value": 2.096e-05, "n": 0}, {"scriptPubKey": {"reqSigs": 1, "hex": "76a914701b1ce704754c29b1ff98dc0254f96f8359c83488ac", "addresses": ["1BDmAKhK5TFJh2pZemNQqJdYpYjYrLkneK"], "asm": "OP_DUP OP_HASH160 701b1ce704754c29b1ff98dc0254f96f8359c834 OP_EQUALVERIFY OP_CHECKSIG", "type": "pubkeyhash"}, "value": 0.00215076, "n": 1}], "hex": "01000000000101a167843a7270d75597af3c2f181a955f0c254fb6a207c52eaef6fbb64c9bd7f00100000000ffffffff023008000000000000160014f2982bc514c2cf08a7043311edabba273234af9d24480300000000001976a914701b1ce704754c29b1ff98dc0254f96f8359c83488ac024730440220118d9652a95364902ca399984950f27ca37b8ce0970a521c9fd3f84a93eac52702204d903b8b61281e82eed2d64ab60d7f5b2e6fd8d6982edf1ab35493bb36f2a46801210281c7ff7430bef3868c27520180d4e394bbba6921073fa1443eb6853dcb2dc11e00000000", "vin": [{"txinwitness": ["30440220118d9652a95364902ca399984950f27ca37b8ce0970a521c9fd3f84a93eac52702204d903b8b61281e82eed2d64ab60d7f5b2e6fd8d6982edf1ab35493bb36f2a46801", "0281c7ff7430bef3868c27520180d4e394bbba6921073fa1443eb6853dcb2dc11e"], "sequence": 4294967295, "scriptSig": {"hex": "", "asm": ""}, "vout": 1, "txid": "f0d79b4cb6fbf6ae2ec507a2b64f250c5f951a182f3caf9755d770723a8467a1"}], "txid": "16fcc7ce54441a408d159eb4c458a6b687dbc4d2ba0d2aa583dc265cefbadcf0", "blocktime": 1537873282, "version": 1, "confirmations": 11484, "time": 1537873282, "locktime": 0, "vsize": 144, "size": 225}