{"hash": "16fcf386895dafe32bb838b3ae099f4af7acb6eff4f0fe053aa2a43b0450dc25", "blockhash": "0000000000000000001e0dab787dd257d1dbfcb92a98c2207d5e1078be1f4165", "vout": [{"scriptPubKey": {"type": "nulldata", "hex": "6a146f6d6e69000000000000001f0000000c0f854600", "asm": "OP_RETURN 6f6d6e69000000000000001f0000000c0f854600"}, "value": 0.0, "n": 0}, {"scriptPubKey": {"reqSigs": 1, "hex": "76a914eb894abecac9634245af3c60ce1c75167c209a1588ac", "addresses": ["1NUQGJ355hXPtoZmAQVzGkDRCcBwG2EP8B"], "asm": "OP_DUP OP_HASH160 eb894abecac9634245af3c60ce1c75167c209a15 OP_EQUALVERIFY OP_CHECKSIG", "type": "pubkeyhash"}, "value": 5.46e-06, "n": 1}, {"scriptPubKey": {"reqSigs": 1, "hex": "76a914a25dec4d0011064ef106a983c39c7a540699f22088ac", "addresses": ["1FoWyxwPXuj4C6abqwhjDWdz6D4PZgYRjA"], "asm": "OP_DUP OP_HASH160 a25dec4d0011064ef106a983c39c7a540699f220 OP_EQUALVERIFY OP_CHECKSIG", "type": "pubkeyhash"}, "value": 0.01971183, "n": 2}], "hex": "010000000112a087561783b193ee473f5ea5a606dbf3d14506ff92fe6d01585d1f735874a1000000006a473044022032fc3be0e68f048189c794258c35f3eda0f66a6d7c530dcbc3af7bd41c3c830c022079d9e5fefb9bef597baf3adb1da81bacd3f81503bf39bd1deacff73468da4e7a012103da5bac7b36d5aa38f531c6b9601e21bb598a4b6716ebed38b009a55dabde9440feffffff030000000000000000166a146f6d6e69000000000000001f0000000c0f85460022020000000000001976a914eb894abecac9634245af3c60ce1c75167c209a1588acef131e00000000001976a914a25dec4d0011064ef106a983c39c7a540699f22088ac12490800", "vin": [{"sequence": 4294967294, "scriptSig": {"hex": "473044022032fc3be0e68f048189c794258c35f3eda0f66a6d7c530dcbc3af7bd41c3c830c022079d9e5fefb9bef597baf3adb1da81bacd3f81503bf39bd1deacff73468da4e7a012103da5bac7b36d5aa38f531c6b9601e21bb598a4b6716ebed38b009a55dabde9440", "asm": "3044022032fc3be0e68f048189c794258c35f3eda0f66a6d7c530dcbc3af7bd41c3c830c022079d9e5fefb9bef597baf3adb1da81bacd3f81503bf39bd1deacff73468da4e7a[ALL] 03da5bac7b36d5aa38f531c6b9601e21bb598a4b6716ebed38b009a55dabde9440"}, "vout": 0, "txid": "a17458731f5d58016dfe92ff0645d1f3db06a6a55e3f47ee93b183175687a012"}], "txid": "16fcf386895dafe32bb838b3ae099f4af7acb6eff4f0fe053aa2a43b0450dc25", "blocktime": 1537872475, "version": 1, "confirmations": 11486, "time": 1537872475, "locktime": 542994, "vsize": 256, "size": 256}