{"hash": "16fc6a26c79d0631780f506a0aa206ae984a46fc022a8f37403d435fb0c9ac76", "blockhash": "0000000000000000001f76057863aec43deb6fa401d9628bb513d65a8098bfab", "vout": [{"scriptPubKey": {"reqSigs": 1, "hex": "a914fb68fc52d4a6205ade7e7e74c171ae6145baa0c287", "addresses": ["3QcMJDuJckbSDbNeWQWYMQkmN58yRAYRt2"], "asm": "OP_HASH160 fb68fc52d4a6205ade7e7e74c171ae6145baa0c2 OP_EQUAL", "type": "scripthash"}, "value": 0.127003, "n": 0}], "hex": "0100000001ae5d256a6708b906064bec85d668a5c397a89971465ccf5cbd2737f769b170e6000000006a473044022022e3e0edbb94d22be8fcfdcfbe36763682ffd6e8137b45a4209d4ac080f2370e0220451373d55704d76e97ae5a8024b2211771108bc14d892bc6ec676e3983a11baa0121033e5efa48ee593acbad6a86a25a86d243054c6f65b561538c8a61330ab8e6b420ffffffff018ccac1000000000017a914fb68fc52d4a6205ade7e7e74c171ae6145baa0c28700000000", "vin": [{"sequence": 4294967295, "scriptSig": {"hex": "473044022022e3e0edbb94d22be8fcfdcfbe36763682ffd6e8137b45a4209d4ac080f2370e0220451373d55704d76e97ae5a8024b2211771108bc14d892bc6ec676e3983a11baa0121033e5efa48ee593acbad6a86a25a86d243054c6f65b561538c8a61330ab8e6b420", "asm": "3044022022e3e0edbb94d22be8fcfdcfbe36763682ffd6e8137b45a4209d4ac080f2370e0220451373d55704d76e97ae5a8024b2211771108bc14d892bc6ec676e3983a11baa[ALL] 033e5efa48ee593acbad6a86a25a86d243054c6f65b561538c8a61330ab8e6b420"}, "vout": 0, "txid": "e670b169f73727bd5ccf5c467199a897c3a568d685ec4b0606b908676a255dae"}], "txid": "16fc6a26c79d0631780f506a0aa206ae984a46fc022a8f37403d435fb0c9ac76", "blocktime": 1537873891, "version": 1, "confirmations": 11474, "time": 1537873891, "locktime": 0, "vsize": 189, "size": 189}