{"hash": "d1af9ef02ad4d7981b9690fdf456c9f283671c443b00f81113a4ace933e33256", "blockhash": "0000000000000000000e13cef7c366c0283d82e591d1acd082e914b08063cdf1", "vout": [{"scriptPubKey": {"reqSigs": 1, "hex": "a914b9b5c7f2796d0fa26e05e5697c88b39f276595b487", "addresses": ["3JcxhQCGMXFax5iRbEaH3Mcw1HeB25Wbpm"], "asm": "OP_HASH160 b9b5c7f2796d0fa26e05e5697c88b39f276595b4 OP_EQUAL", "type": "scripthash"}, "value": 0.00737, "n": 0}, {"scriptPubKey": {"reqSigs": 1, "hex": "a914c26e83ece7f65beff0e252ecd2fd5403e10ca99587", "addresses": ["3KR5QVtQB6sCqdUacdb3vb8QTkauyqsbut"], "asm": "OP_HASH160 c26e83ece7f65beff0e252ecd2fd5403e10ca995 OP_EQUAL", "type": "scripthash"}, "value": 0.05738174, "n": 1}], "hex": "01000000000101d492f9f5be35848721d3646eb9f24593f3700998868d011cfd840ae9bb6493b9010000002322002061b7e0679c39feb972a76917fed8b59a2af28b216dde6dcf6b3205156948ce58ffffffff02e83e0b000000000017a914b9b5c7f2796d0fa26e05e5697c88b39f276595b487be8e57000000000017a914c26e83ece7f65beff0e252ecd2fd5403e10ca9958704004830450221009631f67eed1c5a30a0b2bc5d4d5f36d1b76e4da898f224359bae97545e8b1ec102206b714610db78efad36f0e1b1daa1cb99eb63bb8ca8f96ab548072913f0c8e95501483045022100a87f6272367731232a3976b3ae6e22b12abf940bc8f2a7f492167acf4252033f0220689f4cad07f5be4d488975aee4bddec0c002d4747dc6bfc3e895cee3fe85e88e014752210334016f8ee34d545e41a39e49929d1d9d91db6b3d60e6e69635ba210692b768a42102dd2332c0512dee4ea813748993f8056f254166d97719c8c2e4e8f542e54e1af152ae00000000", "vin": [{"txinwitness": ["", "30450221009631f67eed1c5a30a0b2bc5d4d5f36d1b76e4da898f224359bae97545e8b1ec102206b714610db78efad36f0e1b1daa1cb99eb63bb8ca8f96ab548072913f0c8e95501", "3045022100a87f6272367731232a3976b3ae6e22b12abf940bc8f2a7f492167acf4252033f0220689f4cad07f5be4d488975aee4bddec0c002d4747dc6bfc3e895cee3fe85e88e01", "52210334016f8ee34d545e41a39e49929d1d9d91db6b3d60e6e69635ba210692b768a42102dd2332c0512dee4ea813748993f8056f254166d97719c8c2e4e8f542e54e1af152ae"], "sequence": 4294967295, "scriptSig": {"hex": "22002061b7e0679c39feb972a76917fed8b59a2af28b216dde6dcf6b3205156948ce58", "asm": "002061b7e0679c39feb972a76917fed8b59a2af28b216dde6dcf6b3205156948ce58"}, "vout": 1, "txid": "b99364bbe90a84fd1c018d86980970f39345f2b96e64d321878435bef5f992d4"}], "txid": "1700054b192838f164927f8e402a4204897189a711e121c48d67c5d5ade4af94", "blocktime": 1537871767, "version": 1, "confirmations": 11495, "time": 1537871767, "locktime": 0, "vsize": 206, "size": 372}