{"hash": "1705d743b95cea9d76664dd036e8b69ecc9bf7a9ae200b9d309e1d69aada7c54", "blockhash": "00000000000000000024a2167bbff67b0be802c0b01cdd79e6331c2be6459f87", "vout": [{"scriptPubKey": {"reqSigs": 1, "hex": "76a914b98c17cd554be1d251cc975007e458b03bcc834f88ac", "addresses": ["1Hv5qKX9fMp4ybqYa72Zvbz34QK31nVxCB"], "asm": "OP_DUP OP_HASH160 b98c17cd554be1d251cc975007e458b03bcc834f OP_EQUALVERIFY OP_CHECKSIG", "type": "pubkeyhash"}, "value": 1.08177965, "n": 0}, {"scriptPubKey": {"reqSigs": 1, "hex": "76a9140657e28dd88ff5066e0a86f9b39b84eac4c9d25688ac", "addresses": ["1aYLWMxLr1i5pVU1eetut6bcRTqjs5qoh"], "asm": "OP_DUP OP_HASH160 0657e28dd88ff5066e0a86f9b39b84eac4c9d256 OP_EQUALVERIFY OP_CHECKSIG", "type": "pubkeyhash"}, "value": 0.01872943, "n": 1}], "hex": "0200000001923cca08ed09aa39cb972a12af048c4c3287e57bb3c98a30e1812765dcaa43bc000000006a47304402206feedffc98449e77e57cf3849c175b34ea02ecf9875f6da38f4a98fc97ea1e13022051c100c8fa050fd32e13c7ca4a6c7767fd82f0ee3a5ace918bbc3e6d51eb8bf8012102b5395efb6b8c7daa106ece6b00f7e9452a458d1444405b969f392b0e322b0497feffffff022daa7206000000001976a914b98c17cd554be1d251cc975007e458b03bcc834f88ac2f941c00000000001976a9140657e28dd88ff5066e0a86f9b39b84eac4c9d25688ac0d490800", "vin": [{"sequence": 4294967294, "scriptSig": {"hex": "47304402206feedffc98449e77e57cf3849c175b34ea02ecf9875f6da38f4a98fc97ea1e13022051c100c8fa050fd32e13c7ca4a6c7767fd82f0ee3a5ace918bbc3e6d51eb8bf8012102b5395efb6b8c7daa106ece6b00f7e9452a458d1444405b969f392b0e322b0497", "asm": "304402206feedffc98449e77e57cf3849c175b34ea02ecf9875f6da38f4a98fc97ea1e13022051c100c8fa050fd32e13c7ca4a6c7767fd82f0ee3a5ace918bbc3e6d51eb8bf8[ALL] 02b5395efb6b8c7daa106ece6b00f7e9452a458d1444405b969f392b0e322b0497"}, "vout": 0, "txid": "bc43aadc652781e1308ac9b37be587324c8c04af122a97cb39aa09ed08ca3c92"}], "txid": "1705d743b95cea9d76664dd036e8b69ecc9bf7a9ae200b9d309e1d69aada7c54", "blocktime": 1537870564, "version": 2, "confirmations": 11515, "time": 1537870564, "locktime": 542989, "vsize": 225, "size": 225}