{"hash": "2a054584aa1e91de02db609d601a24fa3dfd129fa2c24a1c5fbedf8eecf36007", "blockhash": "0000000000000000000dcc0f55137456b1a82d3642486a52398922ac4d620174", "vout": [{"scriptPubKey": {"reqSigs": 1, "hex": "a914ec14049f718f6567a6b1128eb568023d4b26072c87", "addresses": ["3PDHNhFVh3vWsoe9epuNFHAev8JQfica5g"], "asm": "OP_HASH160 ec14049f718f6567a6b1128eb568023d4b26072c OP_EQUAL", "type": "scripthash"}, "value": 0.01361478, "n": 0}, {"scriptPubKey": {"reqSigs": 1, "hex": "a9149608f9a697bece9bf25ee2027e7c3822f5e29ba887", "addresses": ["3FNL2vfQ3zCifLzx7QDr94ebDrVQb1j5QG"], "asm": "OP_HASH160 9608f9a697bece9bf25ee2027e7c3822f5e29ba8 OP_EQUAL", "type": "scripthash"}, "value": 0.00165213, "n": 1}], "hex": "0200000000010159f179af96940e5cfe9d018deba99e7d75ca4f638b1bf87e7c49295c5e5257c60000000017160014ac1200c5f4235d7affad877c47372fcc5129b1cdfeffffff0246c614000000000017a914ec14049f718f6567a6b1128eb568023d4b26072c875d8502000000000017a9149608f9a697bece9bf25ee2027e7c3822f5e29ba88702483045022100b2c164cac98ffcb8ae4b5f1b9ca2d24fd74e1f4c27ca1e658d41516d6f096a6102205d32802e2335024fe538e90b781ab83615f6ef67df44953ce9ed065fecdd39fd012102ef42bcfb51480dffa488648a1d196785e41b2ece2208930f46ae63b2de3154490c490800", "vin": [{"txinwitness": ["3045022100b2c164cac98ffcb8ae4b5f1b9ca2d24fd74e1f4c27ca1e658d41516d6f096a6102205d32802e2335024fe538e90b781ab83615f6ef67df44953ce9ed065fecdd39fd01", "02ef42bcfb51480dffa488648a1d196785e41b2ece2208930f46ae63b2de315449"], "sequence": 4294967294, "scriptSig": {"hex": "160014ac1200c5f4235d7affad877c47372fcc5129b1cd", "asm": "0014ac1200c5f4235d7affad877c47372fcc5129b1cd"}, "vout": 0, "txid": "c657525e5c29497c7ef81b8b634fca757d9ea9eb8d019dfe5c0e9496af79f159"}], "txid": "170bc04908b1d31d96f98aaf1cbead5b78c629bf2be7b1d709c9ce4d0fe16af9", "blocktime": 1537870268, "version": 2, "confirmations": 11519, "time": 1537870268, "locktime": 542988, "vsize": 166, "size": 248}