{"hash": "170f772c93675a16ab582b185358a77a7d6748a8ca10f985233074ed5941030a", "blockhash": "0000000000000000001f76057863aec43deb6fa401d9628bb513d65a8098bfab", "vout": [{"scriptPubKey": {"reqSigs": 1, "hex": "76a91421fa25b728a512eb77ff554d98437710de5a29ba88ac", "addresses": ["146exsY7Zmz3DcGTVGHLhUUfomptjZUQDX"], "asm": "OP_DUP OP_HASH160 21fa25b728a512eb77ff554d98437710de5a29ba OP_EQUALVERIFY OP_CHECKSIG", "type": "pubkeyhash"}, "value": 0.01872797, "n": 0}, {"scriptPubKey": {"reqSigs": 1, "hex": "76a914b63c947df0c71c34936a433186ffd86d0106975588ac", "addresses": ["1HcaZ68xdryLN15MnEFvbH45gFvFQmXZ2h"], "asm": "OP_DUP OP_HASH160 b63c947df0c71c34936a433186ffd86d01069755 OP_EQUALVERIFY OP_CHECKSIG", "type": "pubkeyhash"}, "value": 0.03252117, "n": 1}], "hex": "01000000016363b967f4adc203fb87e9432083d8430e66e6bf58237b9f5fde1093a34f38a5010000006b483045022100f45c0064588e07e804af5b1a3b7e7dc353e62a67ca02c90674cd6fa301ad0c7d02203b2d73750a3404d919c3d3b7aeb8b5ea5829af92aa4ffa05c853d6b87bdacaab01210335d72222431f585e671859daed004abae0065c5fb8f2e766360aaf9e2caa3a1dffffffff029d931c00000000001976a91421fa25b728a512eb77ff554d98437710de5a29ba88ac959f3100000000001976a914b63c947df0c71c34936a433186ffd86d0106975588ac00000000", "vin": [{"sequence": 4294967295, "scriptSig": {"hex": "483045022100f45c0064588e07e804af5b1a3b7e7dc353e62a67ca02c90674cd6fa301ad0c7d02203b2d73750a3404d919c3d3b7aeb8b5ea5829af92aa4ffa05c853d6b87bdacaab01210335d72222431f585e671859daed004abae0065c5fb8f2e766360aaf9e2caa3a1d", "asm": "3045022100f45c0064588e07e804af5b1a3b7e7dc353e62a67ca02c90674cd6fa301ad0c7d02203b2d73750a3404d919c3d3b7aeb8b5ea5829af92aa4ffa05c853d6b87bdacaab[ALL] 0335d72222431f585e671859daed004abae0065c5fb8f2e766360aaf9e2caa3a1d"}, "vout": 1, "txid": "a5384fa39310de5f9f7b2358bfe6660e43d8832043e987fb03c2adf467b96363"}], "txid": "170f772c93675a16ab582b185358a77a7d6748a8ca10f985233074ed5941030a", "blocktime": 1537873891, "version": 1, "confirmations": 11478, "time": 1537873891, "locktime": 0, "vsize": 226, "size": 226}