{"hash": "17159e98bd7dedb5b051090171e7e2c07f3ec9b80843dd5d274230a53ca8701f", "blockhash": "00000000000000000024a2167bbff67b0be802c0b01cdd79e6331c2be6459f87", "vout": [{"scriptPubKey": {"reqSigs": 1, "hex": "76a9140eeec8dbd8b4b363f5aa7be29651a5180d94c01188ac", "addresses": ["12MxWjPTUVvtJPcbMnvQtWQ3QtCvrprEJW"], "asm": "OP_DUP OP_HASH160 0eeec8dbd8b4b363f5aa7be29651a5180d94c011 OP_EQUALVERIFY OP_CHECKSIG", "type": "pubkeyhash"}, "value": 0.16876511, "n": 0}], "hex": "020000000a174db4dda4ca6d21a0420ce40234d14856e6b3157a84907af1fc83b73b56c177020000006a4730440220177a34355085cf358b5c2284773e25ec9dacd83bcc10c3cea09efc6cde81b0bc022078ba23703c867764f73d3864e17d13bac40efc4abcabc87fa0a36619ee5ba198012103b83d9be39e00b3fbfefb4870101a8c302cd113c04fd1e3c4ece76c552a5c542fffffffff537704a513ebe314df10dfdfa738de90d11d6368a0ec87dafb740fb5e0661d3b0d0000006a47304402206edc1360bc81535d0f67b20daf3e7182ed2bc76d275a7544e2412012f6e30ba80220557235adad548112f01b59314a65b92c213419eee342a17d273cf5c0d5e784320121028412c1cd1c3176169c4746058b90ab55a105b522abde5483935fc067e4d83c49ffffffff55ca4df574f4a7045aace5d0951d60279051de11072075048bf36211d277db91000000006a473044022100ab4dbc68b41f1a498d6252bd5aad24d64c37b472e4f873f89a23e5ec9c3dcd9a021f49b6206ea15376b09a1e5d8dae916f02f5e9d525178f37e952cde2794d0459012102984dad3423040526cfbf910c20ae05131652940c02606670db9d4d685369cf69ffffffff85270e594f4d627a9779e42fee3387c22c3acb0e85513db657bae5ed4b64ddc2150000006b483045022100e8bff4eb8e05e88f462c0e44fd54af48e9f34f725d6fa90f4d7f574523e4500c0220477e1748e429167f3f12f739197a412a2c0f5edd67adaea2a6a14ee1a44050530121020f5258cb00f3f4c83930795a79090c53762fd30e4d9de92c9b3a5e978725c6a2ffffffffade17c714c17cd9f8afa2d231d2c1e517f61e77af81ccf54397448cbc5791467000000006a473044022065b6dc48dfe48ae4430955192063d8c3b9bf98cc787bb41e650bc047747a78a20220650b2c74d97951da95c9a0ab63d7dd0fa36323a46c5dcbcf40583d032c9d8515012103f5aec294a3fee25de46f110a513bdb0b4164f15a2ea26f172597342c2b67a2ddffffffffbceb09467790c78cfb367300b0daa1b6f56bbfc9a5e2d58c880707e3e6f3bdb3000000006a4730440220055ed38cc0e4bac2c422febc7cabe837a896ba74ef44a78e6ea96a05152d8e29022047decfb1e137718cb35ff7f6c5e99096700046d2886335d244006b53cbbadd510121024a604a591e015353392e46d2c2cd9caa292995eca5e3b6174b9f9f666de78e51ffffffffc68fe06885b54bca189de8addc8773402f357af9b01238e3032e968737c958f3000000006a47304402201f2abf98a77c0c3bcfac4154a2e119d9dd191c785ff14c5762394d6eb22dcea102202d271f14661c55efe12e4b9cf0bdfe80e90c0a3305cedd65c54a1696951b6dd6012103bbba9cb133c546c15c2500efa25d2dedd2e13f430375d4e7e0d4ebf4e6b2ef11ffffffffce7975ab7cc6000a331b28304cdda4d41fe7cc40c00ee8f7394e6eda87fc1950000000006b48304502210093be16c0b3c1bb7849d3909b56c067f618de2606ad184026154fc57ac3a7e25f02206f3de3de400e3ad2623da60db8191191cbbf209872b278c23807ac1da20fbdbb0121035736ee99cc1cd2c6498612e8e1d9eb8980e16c754e9f6670c48181832b00c087ffffffffdd41564815d5b885cd0e644354b64c6a7f5bfce7e3dfb85fb17101007c816dd8010000006a4730440220702066b9f5b946127b7e0a82a02432ff09a39e9a87dcff776f3680413e6cd49e02204199f80be035c636ebe3cda6e6fbf54a710e30490e9704865457be314923f55d012103a5692beb8ebbcd080bffc6da12587d2bfdcd7c72af0fe5aa12300aabe1d1cb5affffffffe2e8c2de09b6ee04b9bb6079f257f3a7f21632b0080ac55435a0854728eb095b060000006b4830450221009b3a02216ecc42b69b325860779334d6b80da530789190d9b0f9667e6c050c2d022038367a522510f0e8f29f7f3e4af6e763be4341a6f081fce46ea890116a2428d501210269d9a19648527fc91fbf6c775e82474739242ffb34a5cfce4a9fc4bf34e5687affffffff01df830101000000001976a9140eeec8dbd8b4b363f5aa7be29651a5180d94c01188ac00000000", "vin": [{"sequence": 4294967295, "scriptSig": {"hex": "4730440220177a34355085cf358b5c2284773e25ec9dacd83bcc10c3cea09efc6cde81b0bc022078ba23703c867764f73d3864e17d13bac40efc4abcabc87fa0a36619ee5ba198012103b83d9be39e00b3fbfefb4870101a8c302cd113c04fd1e3c4ece76c552a5c542f", "asm": "30440220177a34355085cf358b5c2284773e25ec9dacd83bcc10c3cea09efc6cde81b0bc022078ba23703c867764f73d3864e17d13bac40efc4abcabc87fa0a36619ee5ba198[ALL] 03b83d9be39e00b3fbfefb4870101a8c302cd113c04fd1e3c4ece76c552a5c542f"}, "vout": 2, "txid": "77c1563bb783fcf17a90847a15b3e65648d13402e40c42a0216dcaa4ddb44d17"}, {"sequence": 4294967295, "scriptSig": {"hex": "47304402206edc1360bc81535d0f67b20daf3e7182ed2bc76d275a7544e2412012f6e30ba80220557235adad548112f01b59314a65b92c213419eee342a17d273cf5c0d5e784320121028412c1cd1c3176169c4746058b90ab55a105b522abde5483935fc067e4d83c49", "asm": "304402206edc1360bc81535d0f67b20daf3e7182ed2bc76d275a7544e2412012f6e30ba80220557235adad548112f01b59314a65b92c213419eee342a17d273cf5c0d5e78432[ALL] 028412c1cd1c3176169c4746058b90ab55a105b522abde5483935fc067e4d83c49"}, "vout": 13, "txid": "3b1d66e0b50f74fbda87eca068631dd190de38a7dfdf10df14e3eb13a5047753"}, {"sequence": 4294967295, "scriptSig": {"hex": "473044022100ab4dbc68b41f1a498d6252bd5aad24d64c37b472e4f873f89a23e5ec9c3dcd9a021f49b6206ea15376b09a1e5d8dae916f02f5e9d525178f37e952cde2794d0459012102984dad3423040526cfbf910c20ae05131652940c02606670db9d4d685369cf69", "asm": "3044022100ab4dbc68b41f1a498d6252bd5aad24d64c37b472e4f873f89a23e5ec9c3dcd9a021f49b6206ea15376b09a1e5d8dae916f02f5e9d525178f37e952cde2794d0459[ALL] 02984dad3423040526cfbf910c20ae05131652940c02606670db9d4d685369cf69"}, "vout": 0, "txid": "91db77d21162f38b0475200711de519027601d95d0e5ac5a04a7f474f54dca55"}, {"sequence": 4294967295, "scriptSig": {"hex": "483045022100e8bff4eb8e05e88f462c0e44fd54af48e9f34f725d6fa90f4d7f574523e4500c0220477e1748e429167f3f12f739197a412a2c0f5edd67adaea2a6a14ee1a44050530121020f5258cb00f3f4c83930795a79090c53762fd30e4d9de92c9b3a5e978725c6a2", "asm": "3045022100e8bff4eb8e05e88f462c0e44fd54af48e9f34f725d6fa90f4d7f574523e4500c0220477e1748e429167f3f12f739197a412a2c0f5edd67adaea2a6a14ee1a4405053[ALL] 020f5258cb00f3f4c83930795a79090c53762fd30e4d9de92c9b3a5e978725c6a2"}, "vout": 21, "txid": "c2dd644bede5ba57b63d51850ecb3a2cc28733ee2fe479977a624d4f590e2785"}, {"sequence": 4294967295, "scriptSig": {"hex": "473044022065b6dc48dfe48ae4430955192063d8c3b9bf98cc787bb41e650bc047747a78a20220650b2c74d97951da95c9a0ab63d7dd0fa36323a46c5dcbcf40583d032c9d8515012103f5aec294a3fee25de46f110a513bdb0b4164f15a2ea26f172597342c2b67a2dd", "asm": "3044022065b6dc48dfe48ae4430955192063d8c3b9bf98cc787bb41e650bc047747a78a20220650b2c74d97951da95c9a0ab63d7dd0fa36323a46c5dcbcf40583d032c9d8515[ALL] 03f5aec294a3fee25de46f110a513bdb0b4164f15a2ea26f172597342c2b67a2dd"}, "vout": 0, "txid": "671479c5cb48743954cf1cf87ae7617f511e2c1d232dfa8a9fcd174c717ce1ad"}, {"sequence": 4294967295, "scriptSig": {"hex": "4730440220055ed38cc0e4bac2c422febc7cabe837a896ba74ef44a78e6ea96a05152d8e29022047decfb1e137718cb35ff7f6c5e99096700046d2886335d244006b53cbbadd510121024a604a591e015353392e46d2c2cd9caa292995eca5e3b6174b9f9f666de78e51", "asm": "30440220055ed38cc0e4bac2c422febc7cabe837a896ba74ef44a78e6ea96a05152d8e29022047decfb1e137718cb35ff7f6c5e99096700046d2886335d244006b53cbbadd51[ALL] 024a604a591e015353392e46d2c2cd9caa292995eca5e3b6174b9f9f666de78e51"}, "vout": 0, "txid": "b3bdf3e6e30707888cd5e2a5c9bf6bf5b6a1dab0007336fb8cc790774609ebbc"}, {"sequence": 4294967295, "scriptSig": {"hex": "47304402201f2abf98a77c0c3bcfac4154a2e119d9dd191c785ff14c5762394d6eb22dcea102202d271f14661c55efe12e4b9cf0bdfe80e90c0a3305cedd65c54a1696951b6dd6012103bbba9cb133c546c15c2500efa25d2dedd2e13f430375d4e7e0d4ebf4e6b2ef11", "asm": "304402201f2abf98a77c0c3bcfac4154a2e119d9dd191c785ff14c5762394d6eb22dcea102202d271f14661c55efe12e4b9cf0bdfe80e90c0a3305cedd65c54a1696951b6dd6[ALL] 03bbba9cb133c546c15c2500efa25d2dedd2e13f430375d4e7e0d4ebf4e6b2ef11"}, "vout": 0, "txid": "f358c93787962e03e33812b0f97a352f407387dcade89d18ca4bb58568e08fc6"}, {"sequence": 4294967295, "scriptSig": {"hex": "48304502210093be16c0b3c1bb7849d3909b56c067f618de2606ad184026154fc57ac3a7e25f02206f3de3de400e3ad2623da60db8191191cbbf209872b278c23807ac1da20fbdbb0121035736ee99cc1cd2c6498612e8e1d9eb8980e16c754e9f6670c48181832b00c087", "asm": "304502210093be16c0b3c1bb7849d3909b56c067f618de2606ad184026154fc57ac3a7e25f02206f3de3de400e3ad2623da60db8191191cbbf209872b278c23807ac1da20fbdbb[ALL] 035736ee99cc1cd2c6498612e8e1d9eb8980e16c754e9f6670c48181832b00c087"}, "vout": 0, "txid": "5019fc87da6e4e39f7e80ec040cce71fd4a4dd4c30281b330a00c67cab7579ce"}, {"sequence": 4294967295, "scriptSig": {"hex": "4730440220702066b9f5b946127b7e0a82a02432ff09a39e9a87dcff776f3680413e6cd49e02204199f80be035c636ebe3cda6e6fbf54a710e30490e9704865457be314923f55d012103a5692beb8ebbcd080bffc6da12587d2bfdcd7c72af0fe5aa12300aabe1d1cb5a", "asm": "30440220702066b9f5b946127b7e0a82a02432ff09a39e9a87dcff776f3680413e6cd49e02204199f80be035c636ebe3cda6e6fbf54a710e30490e9704865457be314923f55d[ALL] 03a5692beb8ebbcd080bffc6da12587d2bfdcd7c72af0fe5aa12300aabe1d1cb5a"}, "vout": 1, "txid": "d86d817c000171b15fb8dfe3e7fc5b7f6a4cb65443640ecd85b8d515485641dd"}, {"sequence": 4294967295, "scriptSig": {"hex": "4830450221009b3a02216ecc42b69b325860779334d6b80da530789190d9b0f9667e6c050c2d022038367a522510f0e8f29f7f3e4af6e763be4341a6f081fce46ea890116a2428d501210269d9a19648527fc91fbf6c775e82474739242ffb34a5cfce4a9fc4bf34e5687a", "asm": "30450221009b3a02216ecc42b69b325860779334d6b80da530789190d9b0f9667e6c050c2d022038367a522510f0e8f29f7f3e4af6e763be4341a6f081fce46ea890116a2428d5[ALL] 0269d9a19648527fc91fbf6c775e82474739242ffb34a5cfce4a9fc4bf34e5687a"}, "vout": 6, "txid": "5b09eb284785a03554c50a08b03216f2a7f357f27960bbb904eeb609dec2e8e2"}], "txid": "17159e98bd7dedb5b051090171e7e2c07f3ec9b80843dd5d274230a53ca8701f", "blocktime": 1537870564, "version": 2, "confirmations": 11515, "time": 1537870564, "locktime": 0, "vsize": 1517, "size": 1517}