{"hash": "746903493890b418a6de8ce4a66ff9b79b88435c4ce893e078bfaa72d6f25851", "blockhash": "0000000000000000000baef3f32e3676a92c3b2e5da21b426e4f302fc371ce76", "vout": [{"scriptPubKey": {"reqSigs": 1, "hex": "a91459ec44635ca9dcc1763830bcd0c59f93ffde7f5787", "addresses": ["39tV6kBrQcpDPSxd2UgAubU5o7sj5SPSf2"], "asm": "OP_HASH160 59ec44635ca9dcc1763830bcd0c59f93ffde7f57 OP_EQUAL", "type": "scripthash"}, "value": 0.07833373, "n": 0}, {"scriptPubKey": {"reqSigs": 1, "hex": "a914c6227920a77307f9266627ba0ef9be04bceb8c4e87", "addresses": ["3Kkf1mCo8ZvyfDfQHjKFU458tarJaJgMKb"], "asm": "OP_HASH160 c6227920a77307f9266627ba0ef9be04bceb8c4e OP_EQUAL", "type": "scripthash"}, "value": 0.11, "n": 1}], "hex": "02000000000101c897fa2a2b15766c703a3d3fd0c3e3fcaf3eea6a6d42ffd5d2ca29bf29e8c9c401000000171600141eab14e867b46e9fe42a4a36e2a80c6cb1f4f8bbfdffffff021d8777000000000017a91459ec44635ca9dcc1763830bcd0c59f93ffde7f5787c0d8a7000000000017a914c6227920a77307f9266627ba0ef9be04bceb8c4e8702473044022047b20612c056fafc60424319b745d1d0c7a5c19fa48c42c0063dff52d7a9619f02202e37bc0caecb7d15dbc62d1b63252a6a4a709a6476574592739c9b3da870f56001210263553acee3af9d3fcb0bb1383f4dcf2bc36d02457bd6b102c2ad8568fef086e516490800", "vin": [{"txinwitness": ["3044022047b20612c056fafc60424319b745d1d0c7a5c19fa48c42c0063dff52d7a9619f02202e37bc0caecb7d15dbc62d1b63252a6a4a709a6476574592739c9b3da870f56001", "0263553acee3af9d3fcb0bb1383f4dcf2bc36d02457bd6b102c2ad8568fef086e5"], "sequence": 4294967293, "scriptSig": {"hex": "1600141eab14e867b46e9fe42a4a36e2a80c6cb1f4f8bb", "asm": "00141eab14e867b46e9fe42a4a36e2a80c6cb1f4f8bb"}, "vout": 1, "txid": "c4c9e829bf29cad2d5ff426d6aea3eaffce3c3d03f3d3a706c76152b2afa97c8"}], "txid": "171db2e51b8a805c9cbbd4149436f6c909288a4f8969d98762d5e866eed9f6b4", "blocktime": 1537876114, "version": 2, "confirmations": 11460, "time": 1537876114, "locktime": 542998, "vsize": 166, "size": 247}