{"hash": "c2c0358eb588715bcfce1cfa13163afb4469b8178a18b09358153a5b9610601a", "blockhash": "00000000000000000004ffacab907a6b429b9a5745fa0b75af4234bf69dd7176", "vout": [{"scriptPubKey": {"reqSigs": 1, "hex": "a914ac49af6d202c18755b27bf2a54553eb94c15a74c87", "addresses": ["3HPzRHCbworF26swTrxeJ3pBgzG8B4Zb8K"], "asm": "OP_HASH160 ac49af6d202c18755b27bf2a54553eb94c15a74c OP_EQUAL", "type": "scripthash"}, "value": 0.022888, "n": 0}, {"scriptPubKey": {"reqSigs": 1, "hex": "76a914eb3257daa592b3f5165eb06509ca4f9f3829e8ae88ac", "addresses": ["1NSc6zAdG2NGbjPLQwAjAuqjHSoq5KECT7"], "asm": "OP_DUP OP_HASH160 eb3257daa592b3f5165eb06509ca4f9f3829e8ae OP_EQUALVERIFY OP_CHECKSIG", "type": "pubkeyhash"}, "value": 1.99, "n": 1}], "hex": "02000000000102620af3a9f59994359798477a8c3d9a8adb2ba0a588f09f645d962464629ae1020100000017160014ca6507444c12a11e932c36d1871e74b46e43c0e4feffffffeb895eac3be1500673cd656986550e9a230361b24825a4031503b8eb94c4c9fa000000006b483045022100eec7ac7a6b610be30cea35f2ac6b6bd3f67bb00c17f2e9cb19a44c7826fda737022076148a938351090229c588b715f363cf0cd342eb44b24a64438a6789b87aa4040121030ccb5a35c5245927d49f69570cb664d5e5fea11f255ef4ca15eb10a585fbeebffeffffff02a0ec22000000000017a914ac49af6d202c18755b27bf2a54553eb94c15a74c87c07fdc0b000000001976a914eb3257daa592b3f5165eb06509ca4f9f3829e8ae88ac0247304402204e4ee83351702a8a14d3b140fe2c2c1a128d062bf4a223a4c3affaa1b7044c4702206112daa2c38a45267324a9b6e260ea2eccee88640446ef98f46ed9519207a2d60121021c0a6e9e87ab3efc9e70b072c0f90e9f990312d96267e113a3c586094e8710050016490800", "vin": [{"txinwitness": ["304402204e4ee83351702a8a14d3b140fe2c2c1a128d062bf4a223a4c3affaa1b7044c4702206112daa2c38a45267324a9b6e260ea2eccee88640446ef98f46ed9519207a2d601", "021c0a6e9e87ab3efc9e70b072c0f90e9f990312d96267e113a3c586094e871005"], "sequence": 4294967294, "scriptSig": {"hex": "160014ca6507444c12a11e932c36d1871e74b46e43c0e4", "asm": "0014ca6507444c12a11e932c36d1871e74b46e43c0e4"}, "vout": 1, "txid": "02e19a626424965d649ff088a5a02bdb8a9a3d8c7a479897359499f5a9f30a62"}, {"sequence": 4294967294, "scriptSig": {"hex": "483045022100eec7ac7a6b610be30cea35f2ac6b6bd3f67bb00c17f2e9cb19a44c7826fda737022076148a938351090229c588b715f363cf0cd342eb44b24a64438a6789b87aa4040121030ccb5a35c5245927d49f69570cb664d5e5fea11f255ef4ca15eb10a585fbeebf", "asm": "3045022100eec7ac7a6b610be30cea35f2ac6b6bd3f67bb00c17f2e9cb19a44c7826fda737022076148a938351090229c588b715f363cf0cd342eb44b24a64438a6789b87aa404[ALL] 030ccb5a35c5245927d49f69570cb664d5e5fea11f255ef4ca15eb10a585fbeebf"}, "vout": 0, "txid": "fac9c494ebb8031503a42548b26103239a0e55866965cd730650e13bac5e89eb"}], "txid": "1721926897a936d82825208a521187d46d95181f19a4ad335620273da80d00d2", "blocktime": 1537875543, "version": 2, "confirmations": 11464, "time": 1537875543, "locktime": 542998, "vsize": 316, "size": 398}