{"hash": "1723d80c6920cef4976ae5fec5114d2c2a2e224be633a43685ea41dd7030f116", "blockhash": "0000000000000000001cda96e906b7601b7a6fb1a3b62bca570a9e5d8f4b3de1", "vout": [{"scriptPubKey": {"reqSigs": 1, "hex": "76a9147e3922ba24a4543c4ed73169d932b021d6e4941488ac", "addresses": ["1CWQb2UQJMGepZnXYd4ajMQS2aPxAsiuHg"], "asm": "OP_DUP OP_HASH160 7e3922ba24a4543c4ed73169d932b021d6e49414 OP_EQUALVERIFY OP_CHECKSIG", "type": "pubkeyhash"}, "value": 0.000847, "n": 0}, {"scriptPubKey": {"type": "nulldata", "hex": "6a4c50000077d600013d397e1442baadab1ee11fa75b23cc0f42c2fc38c5e5bf9ae76da98a211ac24e26e5571bd9ae408f4f8470e7d7ab5baa15540612fa0ec1b9dc0fbc9a9526289ac0f6612cd74e33776ee4", "asm": "OP_RETURN 000077d600013d397e1442baadab1ee11fa75b23cc0f42c2fc38c5e5bf9ae76da98a211ac24e26e5571bd9ae408f4f8470e7d7ab5baa15540612fa0ec1b9dc0fbc9a9526289ac0f6612cd74e33776ee4"}, "value": 0.0, "n": 1}], "hex": "0100000001251a7ecef3dcc3019c772b37a155eecedf9747bafa19bdc85fb7d27f8766e85a010000006a473044022057c636fe048e365e13d56337dfafd27406628ed52c6c2248c31e01bf962a9c97022068264091434e9abc77b2b516f1d624ecf194055d85f89a8ac986afc9f2fb6fed01210397e12837af5136a6ed666d700cbb283e716bc7cc87083d7e64f155e765c54b8dffffffff02dc4a0100000000001976a9147e3922ba24a4543c4ed73169d932b021d6e4941488ac0000000000000000536a4c50000077d600013d397e1442baadab1ee11fa75b23cc0f42c2fc38c5e5bf9ae76da98a211ac24e26e5571bd9ae408f4f8470e7d7ab5baa15540612fa0ec1b9dc0fbc9a9526289ac0f6612cd74e33776ee400000000", "vin": [{"sequence": 4294967295, "scriptSig": {"hex": "473044022057c636fe048e365e13d56337dfafd27406628ed52c6c2248c31e01bf962a9c97022068264091434e9abc77b2b516f1d624ecf194055d85f89a8ac986afc9f2fb6fed01210397e12837af5136a6ed666d700cbb283e716bc7cc87083d7e64f155e765c54b8d", "asm": "3044022057c636fe048e365e13d56337dfafd27406628ed52c6c2248c31e01bf962a9c97022068264091434e9abc77b2b516f1d624ecf194055d85f89a8ac986afc9f2fb6fed[ALL] 0397e12837af5136a6ed666d700cbb283e716bc7cc87083d7e64f155e765c54b8d"}, "vout": 1, "txid": "5ae866877fd2b75fc8bd19faba4797dfceee55a1372b779c01c3dcf3ce7e1a25"}], "txid": "1723d80c6920cef4976ae5fec5114d2c2a2e224be633a43685ea41dd7030f116", "blocktime": 1537873282, "version": 1, "confirmations": 11484, "time": 1537873282, "locktime": 0, "vsize": 283, "size": 283}