{"hash": "17272258d488d4d169c058ecad54d9a4a80a8ffc65aa26ecadc7f045f7ab4380", "blockhash": "00000000000000000018f53835495a110e01622372bf6ae95dc86f2b0ab887b0", "vout": [{"scriptPubKey": {"reqSigs": 1, "hex": "76a914d0a9487d1a7bd0f07b00e9f2007dc2d0d402f0ef88ac", "addresses": ["1L2JLuFL5zenofErS5wLyuJbq6NsQEDRsW"], "asm": "OP_DUP OP_HASH160 d0a9487d1a7bd0f07b00e9f2007dc2d0d402f0ef OP_EQUALVERIFY OP_CHECKSIG", "type": "pubkeyhash"}, "value": 0.00251436, "n": 0}, {"scriptPubKey": {"reqSigs": 1, "hex": "a9145fe1ef5703c0f62437295db8180a536f8855dae787", "addresses": ["3ARzn12HFJhaVJdBe51yH2WosWEBMhKpHu"], "asm": "OP_HASH160 5fe1ef5703c0f62437295db8180a536f8855dae7 OP_EQUAL", "type": "scripthash"}, "value": 0.0073, "n": 1}], "hex": "01000000015b6d0643f6fadff2537d675b4b01f25971e0279041c22e190e760b00fbaebabc000000006a47304402206869417a65f41f65783b2a17703f3f3d7e57ad638df574d5248c8d8a9a2e888c022002b2d2ccdf3c9b04d20126a7cbade22014871401f94dc29ff8aae6b84f1e55850121026d2f4cb981526bc28d2f6e08ec42e225f42c522053f8fec92f9e8a3c249aa200ffffffff022cd60300000000001976a914d0a9487d1a7bd0f07b00e9f2007dc2d0d402f0ef88ac90230b000000000017a9145fe1ef5703c0f62437295db8180a536f8855dae78700000000", "vin": [{"sequence": 4294967295, "scriptSig": {"hex": "47304402206869417a65f41f65783b2a17703f3f3d7e57ad638df574d5248c8d8a9a2e888c022002b2d2ccdf3c9b04d20126a7cbade22014871401f94dc29ff8aae6b84f1e55850121026d2f4cb981526bc28d2f6e08ec42e225f42c522053f8fec92f9e8a3c249aa200", "asm": "304402206869417a65f41f65783b2a17703f3f3d7e57ad638df574d5248c8d8a9a2e888c022002b2d2ccdf3c9b04d20126a7cbade22014871401f94dc29ff8aae6b84f1e5585[ALL] 026d2f4cb981526bc28d2f6e08ec42e225f42c522053f8fec92f9e8a3c249aa200"}, "vout": 0, "txid": "bcbaaefb000b760e192ec2419027e07159f2014b5b677d53f2dffaf643066d5b"}], "txid": "17272258d488d4d169c058ecad54d9a4a80a8ffc65aa26ecadc7f045f7ab4380", "blocktime": 1537870928, "version": 1, "confirmations": 11512, "time": 1537870928, "locktime": 0, "vsize": 223, "size": 223}