{"hash": "1728fd16a271583e149367d147e7a926ee92e98a88507f3bd29b3c49cd1370a3", "blockhash": "0000000000000000001cda96e906b7601b7a6fb1a3b62bca570a9e5d8f4b3de1", "vout": [{"scriptPubKey": {"type": "nulldata", "hex": "6a146f6d6e69000000000000001f0000002e90edd000", "asm": "OP_RETURN 6f6d6e69000000000000001f0000002e90edd000"}, "value": 0.0, "n": 0}, {"scriptPubKey": {"reqSigs": 1, "hex": "76a914457d9ed19cc792914b026d473f84d6f18765e1d788ac", "addresses": ["17LS7VdufwdniWzkj653vZR3ZqbCR3k2jV"], "asm": "OP_DUP OP_HASH160 457d9ed19cc792914b026d473f84d6f18765e1d7 OP_EQUALVERIFY OP_CHECKSIG", "type": "pubkeyhash"}, "value": 5.46e-06, "n": 1}, {"scriptPubKey": {"reqSigs": 1, "hex": "76a914a25dec4d0011064ef106a983c39c7a540699f22088ac", "addresses": ["1FoWyxwPXuj4C6abqwhjDWdz6D4PZgYRjA"], "asm": "OP_DUP OP_HASH160 a25dec4d0011064ef106a983c39c7a540699f220 OP_EQUALVERIFY OP_CHECKSIG", "type": "pubkeyhash"}, "value": 0.01980839, "n": 2}], "hex": "01000000011d0bceb8b791731b822620968462448cf1d1afb0784f01d9d4250f6d2d403f72010000006a473044022022b09a70a13b590f4f325ad438165883f64a57d65906ebd53e963d550f1e5d1002206e9f242af7fc4592ff8b52565d9ef89878773cda7c2f0ef7faa604ab00b5db3e012103da5bac7b36d5aa38f531c6b9601e21bb598a4b6716ebed38b009a55dabde9440feffffff030000000000000000166a146f6d6e69000000000000001f0000002e90edd00022020000000000001976a914457d9ed19cc792914b026d473f84d6f18765e1d788aca7391e00000000001976a914a25dec4d0011064ef106a983c39c7a540699f22088ac13490800", "vin": [{"sequence": 4294967294, "scriptSig": {"hex": "473044022022b09a70a13b590f4f325ad438165883f64a57d65906ebd53e963d550f1e5d1002206e9f242af7fc4592ff8b52565d9ef89878773cda7c2f0ef7faa604ab00b5db3e012103da5bac7b36d5aa38f531c6b9601e21bb598a4b6716ebed38b009a55dabde9440", "asm": "3044022022b09a70a13b590f4f325ad438165883f64a57d65906ebd53e963d550f1e5d1002206e9f242af7fc4592ff8b52565d9ef89878773cda7c2f0ef7faa604ab00b5db3e[ALL] 03da5bac7b36d5aa38f531c6b9601e21bb598a4b6716ebed38b009a55dabde9440"}, "vout": 1, "txid": "723f402d6d0f25d4d9014f78b0afd1f18c446284962026821b7391b7b8ce0b1d"}], "txid": "1728fd16a271583e149367d147e7a926ee92e98a88507f3bd29b3c49cd1370a3", "blocktime": 1537873282, "version": 1, "confirmations": 11481, "time": 1537873282, "locktime": 542995, "vsize": 256, "size": 256}