{"hash": "b8b0d1de02718744b71a38cbec985e6e3faf6c6c9001603b9efdd03c7cecb9ec", "blockhash": "0000000000000000001f76057863aec43deb6fa401d9628bb513d65a8098bfab", "vout": [{"scriptPubKey": {"reqSigs": 1, "hex": "a91478354eae2d7ade3e0c05dc416a0adfbf9e51167287", "addresses": ["3CecsRUAU8uC4e5P2RXSzt6vcxcx3vtzsr"], "asm": "OP_HASH160 78354eae2d7ade3e0c05dc416a0adfbf9e511672 OP_EQUAL", "type": "scripthash"}, "value": 0.11838016, "n": 0}, {"scriptPubKey": {"reqSigs": 1, "hex": "a91458837d6f7ec6e57ec74ca599d32f83a6d337b27887", "addresses": ["39m2uWUURUxr9tqGRE1q3Rq7AxomYZpAqX"], "asm": "OP_HASH160 58837d6f7ec6e57ec74ca599d32f83a6d337b278 OP_EQUAL", "type": "scripthash"}, "value": 0.6542055, "n": 1}], "hex": "01000000000101b58830996207789261486b99bfde5b3b2165f5782f2481d06313517d8472ce9b0100000017160014338a5cbe61d529e4df3c513febb3e7c222eabdc1ffffffff0240a2b4000000000017a91478354eae2d7ade3e0c05dc416a0adfbf9e51167287063de6030000000017a91458837d6f7ec6e57ec74ca599d32f83a6d337b27887024730440220409e4d557aa0fde4aa2203af85cfb0f7fc16e5cfda6d73f962b95a19963fcfbf022013ca7b73c1763a6782dd050e47b7a628b7f4e2ec675dab5286fb1602b607b39c0121021e477dc6ec1ebdcaf3885f28b1f62310efad236ccd845509daac2486ada0155500000000", "vin": [{"txinwitness": ["30440220409e4d557aa0fde4aa2203af85cfb0f7fc16e5cfda6d73f962b95a19963fcfbf022013ca7b73c1763a6782dd050e47b7a628b7f4e2ec675dab5286fb1602b607b39c01", "021e477dc6ec1ebdcaf3885f28b1f62310efad236ccd845509daac2486ada01555"], "sequence": 4294967295, "scriptSig": {"hex": "160014338a5cbe61d529e4df3c513febb3e7c222eabdc1", "asm": "0014338a5cbe61d529e4df3c513febb3e7c222eabdc1"}, "vout": 1, "txid": "9bce72847d511363d081242f78f565213b5bdebf996b486192780762993088b5"}], "txid": "172dd543e8f277430dea58b903723187df4d62b22650011d5892abdc2e4a5131", "blocktime": 1537873891, "version": 1, "confirmations": 11478, "time": 1537873891, "locktime": 0, "vsize": 166, "size": 247}