{"hash": "59033425d5d5ef72386398eec7f73820487192cca4b450c4779dcae07ecd53e6", "blockhash": "00000000000000000017f5eb5941039fbcee6240d03bc1f2f8e35350df66a1d8", "vout": [{"scriptPubKey": {"reqSigs": 1, "hex": "76a914ff3c6cb161f62b1ad3876ba292f396ad8deceaf088ac", "addresses": ["1QGZhHqYUUwYMc9HFngoQmu2cxnqUg88K9"], "asm": "OP_DUP OP_HASH160 ff3c6cb161f62b1ad3876ba292f396ad8deceaf0 OP_EQUALVERIFY OP_CHECKSIG", "type": "pubkeyhash"}, "value": 0.00566, "n": 0}, {"scriptPubKey": {"reqSigs": 1, "hex": "76a91420836de3c9407c100c3e1bf1e132011fa41c8e5f88ac", "addresses": ["13xv51CaUYu5rFW57jFo6xUhUF9h1L82zF"], "asm": "OP_DUP OP_HASH160 20836de3c9407c100c3e1bf1e132011fa41c8e5f OP_EQUALVERIFY OP_CHECKSIG", "type": "pubkeyhash"}, "value": 0.00283, "n": 1}, {"scriptPubKey": {"reqSigs": 1, "hex": "a914eb3f02510ff02d2c7b96d8878b77fd55b2d51a9087", "addresses": ["3P8tCZyjcyyHH9HLH2z6BdWgPvENnwP6RH"], "asm": "OP_HASH160 eb3f02510ff02d2c7b96d8878b77fd55b2d51a90 OP_EQUAL", "type": "scripthash"}, "value": 0.00015312, "n": 2}, {"scriptPubKey": {"reqSigs": 1, "hex": "a9148ca28e3c42448a98238b897b6eed27de597b828187", "addresses": ["3EWdFxj3rWiip5qEVaRpNcZ72MBQ9KcKXN"], "asm": "OP_HASH160 8ca28e3c42448a98238b897b6eed27de597b8281 OP_EQUAL", "type": "scripthash"}, "value": 0.00015323, "n": 3}, {"scriptPubKey": {"reqSigs": 1, "hex": "76a914fdf49be0330a99668f51e80d063e2c57dfade05388ac", "addresses": ["1Q9nzFtaZEeocqjHjbPsV4fMu7kbms3L4i"], "asm": "OP_DUP OP_HASH160 fdf49be0330a99668f51e80d063e2c57dfade053 OP_EQUALVERIFY OP_CHECKSIG", "type": "pubkeyhash"}, "value": 0.0004, "n": 4}, {"scriptPubKey": {"reqSigs": 1, "hex": "a91415529eafed7dc9d3d0194ca8f5ad10c6ba2af6f787", "addresses": ["33dm66qp4dSJU6XyECNjD67bfuYrCf7j2G"], "asm": "OP_HASH160 15529eafed7dc9d3d0194ca8f5ad10c6ba2af6f7 OP_EQUAL", "type": "scripthash"}, "value": 0.00066, "n": 5}, {"scriptPubKey": {"reqSigs": 1, "hex": "a914c57fd05f4921c54ae32eea5b2e16195b94068c0d87", "addresses": ["3KhJA1ADJJ96E4J5s9LHxg8XDPBbbJ9VzB"], "asm": "OP_HASH160 c57fd05f4921c54ae32eea5b2e16195b94068c0d OP_EQUAL", "type": "scripthash"}, "value": 3.234e-05, "n": 6}, {"scriptPubKey": {"reqSigs": 1, "hex": "a914526823d410860191314eb612f8c144ee0673ccf587", "addresses": ["39Ck63YmzvcurhpPnee3NGcpfWLpV8NoUy"], "asm": "OP_HASH160 526823d410860191314eb612f8c144ee0673ccf5 OP_EQUAL", "type": "scripthash"}, "value": 8.547e-05, "n": 7}], "hex": "01000000000107ee983af1869c07e33b513ad1616cd0df70ccbc10c31f136c48c1e1f2cf6190610800000023220020a1451050d5abe4acf1a7e16796803f22f86fbb7c407174d0dc9be193523fe47dffffffffd7d06a30a18568bf711f5b849095976543fd830078377fb89e668d6fb0553bc00000000023220020f0d97cba9a68498fc722a6a05ff768789f09104b782920b7db710c44b06e7518ffffffff54c81bc7b76a5d9eac47f8df74d878b4855cf4e042b35388224eac323f1399cd7d010000232200209691251d741b9352e505a5698380fb344f2a57f04ea43a7b9714e5f9198914e5ffffffff8e7c30f7e601c0f1281d252856bd7236d4ce4141b9bb94da59401850db3462fc0000000023220020f89dd7d7961367c5d08e87da6a93bafdd9075c3cb0c79c7c44400c0bfae81013ffffffff764dad15dfc90d25510520ef49b0f279ceec53aea2ffcf494bf9150364efa9260000000023220020ca6192435ee880c6af314bdb44448968bde35b2e6c459cd529989e9513f9b3b1ffffffffa980368dcd1ebe94eee04138f594a31c427f32a621e08dd354cec0fbed8515ad00000000232200201d16a22cf54ab8a39d996c2aba1991fadf996f8b3d308b92b671d571ac913f7bffffffff958e82e1229c3e3ec1dac9ff72a585f57410b3b25391fffd9e1112ece54826d80000000023220020fc388cd28f0b8e9c6430c19c3950c6e75598217b98376f5151123afb6e18aa24ffffffff08f0a20800000000001976a914ff3c6cb161f62b1ad3876ba292f396ad8deceaf088ac78510400000000001976a91420836de3c9407c100c3e1bf1e132011fa41c8e5f88acd03b00000000000017a914eb3f02510ff02d2c7b96d8878b77fd55b2d51a9087db3b00000000000017a9148ca28e3c42448a98238b897b6eed27de597b828187409c0000000000001976a914fdf49be0330a99668f51e80d063e2c57dfade05388acd00101000000000017a91415529eafed7dc9d3d0194ca8f5ad10c6ba2af6f787a20c00000000000017a914c57fd05f4921c54ae32eea5b2e16195b94068c0d87632100000000000017a914526823d410860191314eb612f8c144ee0673ccf5870400483045022100c30bbe6360d20fc158b1406bfb406f1923fb16d58a010bbc81c7843f22847fce022036e474c5bb5ac25dd80965b4a732d6f82589c85c98603e5c6b49ed0d128d063f01483045022100b29461190d608f1043da0f95147a9ce1e44623ecdba3455c87ed2835e4ffbc9c02204683492a4eba96043c29a0873d6532776504ff5b7f9e55a8a67a5ffd8bdd26690169522102d726350b34c62c12998885320cabb85714c24fab02d8be261a10c47d9f0954fb210288f805c4eb29d968dbf29fbee78eb9d9659efd01b0311e13bc4eca008703157a21036f2ba9d7d7adc98774c69fb23f82a6afbed98ad69f96778fc1d8eeabe1abe9e753ae0400483045022100e55b3a6a81a46163e413d328721ac81d77d7f892f93d5719860d72cdc899f88802207b4935efd7f631c03ea3e68d4d515bf20a1331f1e12acc74ce0a7bdb0d9b0e6201473044022076998e4dd49a87ec1434b117ad748e70259e589177bc79b39f4ee9d36bd14d8b022009245dae2e62823f5dd26c18a88243361c6fab67eb83e0fa8803516fbe9ab19e0169522102f9c7ebaec57dddce6a78e36c7877f796249c952752471267101ee0ed17cca3762102f7e0d29f64b6c8e990199b993fc9bf76a3cf44ee1a580d0ce70ba05bf78979e32103b862db83632abc8b9205a127289861734f9625b0dd01d6e962bdf1c9cb6e6d4c53ae0400473044022056be7a639c1b556374c8fae373fa21eb14dc137e2c968fe84103b41521c3e5e5022030284a228eeaaaf422ced4bfaa2d7acbabf598a1c5326ef8fef1c6ea37e06c0b01483045022100a2824548ee3c9b546fc80e99acb8a50f3ca4149da0fcb51b74d73d97b3dce7f102204a42537bc6d4baf71131aa8590d0466bad50765572258febe9cd5d60caa8c6f901695221031a3b6797877be49ceeec39cb328ad4ebe2ea6ce9df41ed6dca61284461cbbe572103bbf0fc658410edf8f8f4a2861be56c0e539795b20d3aea655a2dd35782d5165d2102f0cd3f2ac53efd4599ca667cf38c8d703945861aa224871111203a6c4d8ae57553ae040048304502210090f516675a3e60759a986ecdf1baa937aee711b53ab619c72656ab75ba5e7907022038b9b360f1df5ad21342eeb0a061ce28f050287fe9b4d8052dc7ee09d9639f5501483045022100b59671b2841a8837a8f8d2c86e027dfa153123593fec8f4fefc4e69ca500c1ca022065d1c38fb001daa9d450e0b9c1fe2e686fe7428a21b43325c191cf0458ad22bd0169522102241a4260171d697942532bbed6fbb4e2f208de5cdeca10e45a747012fe1bde542103acba9cd52e0aaebd6816c7fe918b036460644f7d7f9a1c89e5d861659b17ea47210398f2a724195c7d39a49c8fb8a7ffc333666107f4e4f8dc75397dc0a89fd9f75853ae04004830450221008fd33ee5503bc4aa60c35c09ba4c0137c172cedcebffede99edb96784aeb665b02207b898ed9d2083c1dcaf18f350d560158e830e36cee2d173826658096da3d3941014830450221009c2591fed70a4f2f50332d8e7fa0936ef58a2d255e1130d3428ec33410d6feca02207aa8c1f944777611f71e0699d417612f932634f9bb183fd0cd0404ce3fb32f0c01695221027bc6e75a526f996ba7e6b834e8b5b8d3139e6d6294c62205255a79f8e7843bf12103cdad9d67bf6f97862688061b1e4003ebd9f8abdf00d1077317cf9c2d8875bcc0210345b9a39c9044e6b176a697477e6b4af0001bb6cb5108065d782c59bdddce2df253ae0400483045022100f1866013b63504631d40757cd330283ef04d2a7fc26a1ec0adda7ac7d3885c550220596b7b5f53b8f6cba17df88e7211007693917acea631ee1ff30b78f22edb066f01473044022017abaa26bfee6201e3b4387f5751b8e0fdd773d01e59de3139ca58a757649cb702203b2b7d5a979c38b3d44597aae3754b03d0ffb882f5f4ce3c94030bc97011ceaa016952210373ca67e3c97b9c920608cb0a1d819b05455100407beb7f3575693c2124d062f121035551835bf374ff26fe6e6f518ff48a94ed4694276be1b494b1db5ebb32b6c4772102b8627aea388495d76bb303b75cb993b53ad7325465929991b096d996076778cf53ae040048304502210093355051e23de22837f0194fee8671dea4e8030dc41ac508b77117198872f48902205b312d66dbedef1a7848961e3a50d72312fd0b9705518e1f79ccad4ef4ae831401483045022100f778afe4b8e418cf6e16133be589bd9eb29c37b03d8bb1da3556e22af5fe08a80220201dda1af89cd041cf84c698ff9ae23c1e653eade39c70119d8a85b07d2672ff0169522103c082fbd07c09c078967a46405489a4b5b2c1d4d6963066eb4eba97b89edfa4d42103dcaefd3b11d01ab9d66c76b9824475e7a20ff17f6720dcfd1a50fb12d612564a2102de3faff89f369c943d0f5947a2c3244feb619311a63e8464c46822b744553f9953ae00000000", "vin": [{"txinwitness": ["", "3045022100c30bbe6360d20fc158b1406bfb406f1923fb16d58a010bbc81c7843f22847fce022036e474c5bb5ac25dd80965b4a732d6f82589c85c98603e5c6b49ed0d128d063f01", "3045022100b29461190d608f1043da0f95147a9ce1e44623ecdba3455c87ed2835e4ffbc9c02204683492a4eba96043c29a0873d6532776504ff5b7f9e55a8a67a5ffd8bdd266901", "522102d726350b34c62c12998885320cabb85714c24fab02d8be261a10c47d9f0954fb210288f805c4eb29d968dbf29fbee78eb9d9659efd01b0311e13bc4eca008703157a21036f2ba9d7d7adc98774c69fb23f82a6afbed98ad69f96778fc1d8eeabe1abe9e753ae"], "sequence": 4294967295, "scriptSig": {"hex": "220020a1451050d5abe4acf1a7e16796803f22f86fbb7c407174d0dc9be193523fe47d", "asm": "0020a1451050d5abe4acf1a7e16796803f22f86fbb7c407174d0dc9be193523fe47d"}, "vout": 8, "txid": "619061cff2e1c1486c131fc310bccc70dfd06c61d13a513be3079c86f13a98ee"}, {"txinwitness": ["", "3045022100e55b3a6a81a46163e413d328721ac81d77d7f892f93d5719860d72cdc899f88802207b4935efd7f631c03ea3e68d4d515bf20a1331f1e12acc74ce0a7bdb0d9b0e6201", "3044022076998e4dd49a87ec1434b117ad748e70259e589177bc79b39f4ee9d36bd14d8b022009245dae2e62823f5dd26c18a88243361c6fab67eb83e0fa8803516fbe9ab19e01", "522102f9c7ebaec57dddce6a78e36c7877f796249c952752471267101ee0ed17cca3762102f7e0d29f64b6c8e990199b993fc9bf76a3cf44ee1a580d0ce70ba05bf78979e32103b862db83632abc8b9205a127289861734f9625b0dd01d6e962bdf1c9cb6e6d4c53ae"], "sequence": 4294967295, "scriptSig": {"hex": "220020f0d97cba9a68498fc722a6a05ff768789f09104b782920b7db710c44b06e7518", "asm": "0020f0d97cba9a68498fc722a6a05ff768789f09104b782920b7db710c44b06e7518"}, "vout": 0, "txid": "c03b55b06f8d669eb87f37780083fd4365979590845b1f71bf6885a1306ad0d7"}, {"txinwitness": ["", "3044022056be7a639c1b556374c8fae373fa21eb14dc137e2c968fe84103b41521c3e5e5022030284a228eeaaaf422ced4bfaa2d7acbabf598a1c5326ef8fef1c6ea37e06c0b01", "3045022100a2824548ee3c9b546fc80e99acb8a50f3ca4149da0fcb51b74d73d97b3dce7f102204a42537bc6d4baf71131aa8590d0466bad50765572258febe9cd5d60caa8c6f901", "5221031a3b6797877be49ceeec39cb328ad4ebe2ea6ce9df41ed6dca61284461cbbe572103bbf0fc658410edf8f8f4a2861be56c0e539795b20d3aea655a2dd35782d5165d2102f0cd3f2ac53efd4599ca667cf38c8d703945861aa224871111203a6c4d8ae57553ae"], "sequence": 4294967295, "scriptSig": {"hex": "2200209691251d741b9352e505a5698380fb344f2a57f04ea43a7b9714e5f9198914e5", "asm": "00209691251d741b9352e505a5698380fb344f2a57f04ea43a7b9714e5f9198914e5"}, "vout": 381, "txid": "cd99133f32ac4e228853b342e0f45c85b478d874dff847ac9e5d6ab7c71bc854"}, {"txinwitness": ["", "304502210090f516675a3e60759a986ecdf1baa937aee711b53ab619c72656ab75ba5e7907022038b9b360f1df5ad21342eeb0a061ce28f050287fe9b4d8052dc7ee09d9639f5501", "3045022100b59671b2841a8837a8f8d2c86e027dfa153123593fec8f4fefc4e69ca500c1ca022065d1c38fb001daa9d450e0b9c1fe2e686fe7428a21b43325c191cf0458ad22bd01", "522102241a4260171d697942532bbed6fbb4e2f208de5cdeca10e45a747012fe1bde542103acba9cd52e0aaebd6816c7fe918b036460644f7d7f9a1c89e5d861659b17ea47210398f2a724195c7d39a49c8fb8a7ffc333666107f4e4f8dc75397dc0a89fd9f75853ae"], "sequence": 4294967295, "scriptSig": {"hex": "220020f89dd7d7961367c5d08e87da6a93bafdd9075c3cb0c79c7c44400c0bfae81013", "asm": "0020f89dd7d7961367c5d08e87da6a93bafdd9075c3cb0c79c7c44400c0bfae81013"}, "vout": 0, "txid": "fc6234db50184059da94bbb94141ced43672bd5628251d28f1c001e6f7307c8e"}, {"txinwitness": ["", "30450221008fd33ee5503bc4aa60c35c09ba4c0137c172cedcebffede99edb96784aeb665b02207b898ed9d2083c1dcaf18f350d560158e830e36cee2d173826658096da3d394101", "30450221009c2591fed70a4f2f50332d8e7fa0936ef58a2d255e1130d3428ec33410d6feca02207aa8c1f944777611f71e0699d417612f932634f9bb183fd0cd0404ce3fb32f0c01", "5221027bc6e75a526f996ba7e6b834e8b5b8d3139e6d6294c62205255a79f8e7843bf12103cdad9d67bf6f97862688061b1e4003ebd9f8abdf00d1077317cf9c2d8875bcc0210345b9a39c9044e6b176a697477e6b4af0001bb6cb5108065d782c59bdddce2df253ae"], "sequence": 4294967295, "scriptSig": {"hex": "220020ca6192435ee880c6af314bdb44448968bde35b2e6c459cd529989e9513f9b3b1", "asm": "0020ca6192435ee880c6af314bdb44448968bde35b2e6c459cd529989e9513f9b3b1"}, "vout": 0, "txid": "26a9ef640315f94b49cfffa2ae53ecce79f2b049ef200551250dc9df15ad4d76"}, {"txinwitness": ["", "3045022100f1866013b63504631d40757cd330283ef04d2a7fc26a1ec0adda7ac7d3885c550220596b7b5f53b8f6cba17df88e7211007693917acea631ee1ff30b78f22edb066f01", "3044022017abaa26bfee6201e3b4387f5751b8e0fdd773d01e59de3139ca58a757649cb702203b2b7d5a979c38b3d44597aae3754b03d0ffb882f5f4ce3c94030bc97011ceaa01", "52210373ca67e3c97b9c920608cb0a1d819b05455100407beb7f3575693c2124d062f121035551835bf374ff26fe6e6f518ff48a94ed4694276be1b494b1db5ebb32b6c4772102b8627aea388495d76bb303b75cb993b53ad7325465929991b096d996076778cf53ae"], "sequence": 4294967295, "scriptSig": {"hex": "2200201d16a22cf54ab8a39d996c2aba1991fadf996f8b3d308b92b671d571ac913f7b", "asm": "00201d16a22cf54ab8a39d996c2aba1991fadf996f8b3d308b92b671d571ac913f7b"}, "vout": 0, "txid": "ad1585edfbc0ce54d38de021a6327f421ca394f53841e0ee94be1ecd8d3680a9"}, {"txinwitness": ["", "304502210093355051e23de22837f0194fee8671dea4e8030dc41ac508b77117198872f48902205b312d66dbedef1a7848961e3a50d72312fd0b9705518e1f79ccad4ef4ae831401", "3045022100f778afe4b8e418cf6e16133be589bd9eb29c37b03d8bb1da3556e22af5fe08a80220201dda1af89cd041cf84c698ff9ae23c1e653eade39c70119d8a85b07d2672ff01", "522103c082fbd07c09c078967a46405489a4b5b2c1d4d6963066eb4eba97b89edfa4d42103dcaefd3b11d01ab9d66c76b9824475e7a20ff17f6720dcfd1a50fb12d612564a2102de3faff89f369c943d0f5947a2c3244feb619311a63e8464c46822b744553f9953ae"], "sequence": 4294967295, "scriptSig": {"hex": "220020fc388cd28f0b8e9c6430c19c3950c6e75598217b98376f5151123afb6e18aa24", "asm": "0020fc388cd28f0b8e9c6430c19c3950c6e75598217b98376f5151123afb6e18aa24"}, "vout": 0, "txid": "d82648e5ec12119efdff9153b2b31074f585a572ffc9dac13e3e9c22e1828e95"}], "txid": "172f6b075806155f03bf691aeee65cb20ae7391f5ae6596031db5e2490b9ca59", "blocktime": 1537874412, "version": 1, "confirmations": 11468, "time": 1537874412, "locktime": 0, "vsize": 1249, "size": 2581}