{"hash": "d75b9d075306b65d6106d8bef08cf503c9ccc947eb41f5f1670433649229eaae", "blockhash": "0000000000000000001e0dab787dd257d1dbfcb92a98c2207d5e1078be1f4165", "vout": [{"scriptPubKey": {"reqSigs": 1, "hex": "76a91444c54e13c5174c8f732485a0ba1993b24019d57788ac", "addresses": ["17GdK34FooDJQCzfQ2aNgUd8Q6WiQVXxpH"], "asm": "OP_DUP OP_HASH160 44c54e13c5174c8f732485a0ba1993b24019d577 OP_EQUALVERIFY OP_CHECKSIG", "type": "pubkeyhash"}, "value": 0.01097, "n": 0}], "hex": "02000000000101c4a7e19f4cecdb60808bf6cbb7d335a8e969191d7b27b2368118c9b1fbafe8e601000000171600140672ba29f37e3c4e3d76b020d968b807b1e1f6e3ffffffff0128bd1000000000001976a91444c54e13c5174c8f732485a0ba1993b24019d57788ac02483045022100ba69bd04eff2ec2500b75ad037f7b0c277d28f2caeb60405d8e26892f58656c8022042a95e22f50e8270e621279a73d3534adc1f33765085a310db7c1e326b8a241b012102e40138502e3162c2f0dffb8c1fc474c53885e1cb4f452e2d7233cd877d6e10ba00000000", "vin": [{"txinwitness": ["3045022100ba69bd04eff2ec2500b75ad037f7b0c277d28f2caeb60405d8e26892f58656c8022042a95e22f50e8270e621279a73d3534adc1f33765085a310db7c1e326b8a241b01", "02e40138502e3162c2f0dffb8c1fc474c53885e1cb4f452e2d7233cd877d6e10ba"], "sequence": 4294967295, "scriptSig": {"hex": "1600140672ba29f37e3c4e3d76b020d968b807b1e1f6e3", "asm": "00140672ba29f37e3c4e3d76b020d968b807b1e1f6e3"}, "vout": 1, "txid": "e6e8affbb1c9188136b2277b1d1969e9a835d3b7cbf68b8060dbec4c9fe1a7c4"}], "txid": "17327d77c8bbda36c86689a1c0cad66efeaaebb8e90922c14a3ed15a86fbc960", "blocktime": 1537872475, "version": 2, "confirmations": 11486, "time": 1537872475, "locktime": 0, "vsize": 136, "size": 218}