{"hash": "015b0f000fb59a624ab78b95cd5c03f2391cd5c39c1fa4f152d893b9d9f919b0", "blockhash": "000000000000000000022b45ed06c6f4ccd3cf7fb5ba4856ebd2e58215665228", "vout": [{"scriptPubKey": {"reqSigs": 1, "hex": "76a9140a8934a6e93d24456fac6e16765b339e780effaa88ac", "addresses": ["1xi88rsLTGQVDxPTDZpcGxKdzt3aYoXjn"], "asm": "OP_DUP OP_HASH160 0a8934a6e93d24456fac6e16765b339e780effaa OP_EQUALVERIFY OP_CHECKSIG", "type": "pubkeyhash"}, "value": 0.0950778, "n": 0}, {"scriptPubKey": {"reqSigs": 1, "hex": "a9144d0c0760908b098e7e7c8be788ad5ef98fe8d32a87", "addresses": ["38iQN6GHfeQmrJWQAWqciTR1kvhvV5Tm3n"], "asm": "OP_HASH160 4d0c0760908b098e7e7c8be788ad5ef98fe8d32a OP_EQUAL", "type": "scripthash"}, "value": 0.05554063, "n": 1}], "hex": "01000000000104fd7c2489368a0aa3c052281f0167a41806a72cfb384e0ff6c349e21633fd80b9010000002322002097cad03fd68d6a360393a1aa16d6556c457cd5ffe63d31e73b1102d957cf485effffffff6e341150c875701f98199fb2b87bd38b975899b7061a7ef8fb3bcae7cd0d3aa80100000023220020dca05cdf4b6ee3e96462d416bb8fc835189c1d4ca3047bdd51e3878710fa1d1bffffffff66894dc71c85eff9f0463559d898cf58e5da4ec5d45c9d2c384c28803cbe46dd01000000232200204a9e66345592d5d329ccf194718849a915a47d41d82a989fbc544041651a816affffffff7a71d00764bfc3c818b21be95766d2702348fc2df2acd78e37087131162fce5a010000002322002032775831919222784f82be1d33502bd3dd237156fc4904241ed50e74bc2cf941ffffffff02c4139100000000001976a9140a8934a6e93d24456fac6e16765b339e780effaa88ac8fbf54000000000017a9144d0c0760908b098e7e7c8be788ad5ef98fe8d32a87040047304402204297ecdcfa3f0dd6ec13fb52563fda89714411e626847fc5d5fe64e0b347307302206fae7a8748d6682f7b0ea5882cb79d9decb001a7d4f37fe4ce5d88cd8c18715701473044022073c57e8d82781cbce91e4f9ef4b10646516b2c46c1a76dbdac685ddcf5fc4eb402206472cdd4ed437bcd67109a015b1273d57ef37612eeecbf320c7e4e5bb07672020147522102c1aa4562b3f7eaafd1533e2a848600515768069f83a51d5daf78ecd227e48de92103871fc2ca08e6950b38867e8e6a0e94ee625223d3aa0df5c65f414c6d784467e252ae0400473044022016aafdf0db93e0889d50be48c3e3a8012233a272485796d0e54a912c0dba87170220747cba6289343604c7a7e3f86e9a181258aa33152017c41bdd8a28f06bfff62001473044022040da946b94f51eb46914c6956e835fa7734708ee84a6647b0eec8a905d05f48d0220557757b4d20486c67cd657ba54ff005d8771ffc61874c6342d404e2b520fd8520147522102ba2a66e9e2492682c80b32323cfb14bb578dcde69a6e4d580aca9f725598be682103871fc2ca08e6950b38867e8e6a0e94ee625223d3aa0df5c65f414c6d784467e252ae0400483045022100fa88b38e8f01fd365ac5b9c3703c79be7a035728cf7adec1d482a292848648e2022068c1137550b282d5376ab46d2b2c745240e964469210452299f4c174ef12dcf201483045022100eeec7e265025ad5cfa4eb2069b72b3724af400464523fde36301e63a292c8b7602200d288c9b0a2ab715743eaadef0a1c66b414249a463828f8d903f1cc05d150d120147522103e87baaeb42541d3676a8b6c9919b3541b2f2f75deeb9e628d8755f6d24f951092103871fc2ca08e6950b38867e8e6a0e94ee625223d3aa0df5c65f414c6d784467e252ae0400483045022100990c8202b26afec5c0695f95d4e1fb0c920b1a4dfd96e4b7a1272f6e3d816ac402207b23555525dbf2a5582a823ad410ed75f982402b0c2644a289068bbd9d1cff1201483045022100834ff348fc12c769e0ef27884f99b23a16aa2381b482839ebb3568c73311d46f022012388fdf2649865528ab61f17c2fd19a36f2751c8894a689b65f061173ecf6050147522102a93e56e27a53918fbfa623e88a2dc39ac282efcfb40edff0816fb9f1a14456ad2103871fc2ca08e6950b38867e8e6a0e94ee625223d3aa0df5c65f414c6d784467e252ae00000000", "vin": [{"txinwitness": ["", "304402204297ecdcfa3f0dd6ec13fb52563fda89714411e626847fc5d5fe64e0b347307302206fae7a8748d6682f7b0ea5882cb79d9decb001a7d4f37fe4ce5d88cd8c18715701", "3044022073c57e8d82781cbce91e4f9ef4b10646516b2c46c1a76dbdac685ddcf5fc4eb402206472cdd4ed437bcd67109a015b1273d57ef37612eeecbf320c7e4e5bb076720201", "522102c1aa4562b3f7eaafd1533e2a848600515768069f83a51d5daf78ecd227e48de92103871fc2ca08e6950b38867e8e6a0e94ee625223d3aa0df5c65f414c6d784467e252ae"], "sequence": 4294967295, "scriptSig": {"hex": "22002097cad03fd68d6a360393a1aa16d6556c457cd5ffe63d31e73b1102d957cf485e", "asm": "002097cad03fd68d6a360393a1aa16d6556c457cd5ffe63d31e73b1102d957cf485e"}, "vout": 1, "txid": "b980fd3316e249c3f60f4e38fb2ca70618a467011f2852c0a30a8a3689247cfd"}, {"txinwitness": ["", "3044022016aafdf0db93e0889d50be48c3e3a8012233a272485796d0e54a912c0dba87170220747cba6289343604c7a7e3f86e9a181258aa33152017c41bdd8a28f06bfff62001", "3044022040da946b94f51eb46914c6956e835fa7734708ee84a6647b0eec8a905d05f48d0220557757b4d20486c67cd657ba54ff005d8771ffc61874c6342d404e2b520fd85201", "522102ba2a66e9e2492682c80b32323cfb14bb578dcde69a6e4d580aca9f725598be682103871fc2ca08e6950b38867e8e6a0e94ee625223d3aa0df5c65f414c6d784467e252ae"], "sequence": 4294967295, "scriptSig": {"hex": "220020dca05cdf4b6ee3e96462d416bb8fc835189c1d4ca3047bdd51e3878710fa1d1b", "asm": "0020dca05cdf4b6ee3e96462d416bb8fc835189c1d4ca3047bdd51e3878710fa1d1b"}, "vout": 1, "txid": "a83a0dcde7ca3bfbf87e1a06b79958978bd37bb8b29f19981f7075c85011346e"}, {"txinwitness": ["", "3045022100fa88b38e8f01fd365ac5b9c3703c79be7a035728cf7adec1d482a292848648e2022068c1137550b282d5376ab46d2b2c745240e964469210452299f4c174ef12dcf201", "3045022100eeec7e265025ad5cfa4eb2069b72b3724af400464523fde36301e63a292c8b7602200d288c9b0a2ab715743eaadef0a1c66b414249a463828f8d903f1cc05d150d1201", "522103e87baaeb42541d3676a8b6c9919b3541b2f2f75deeb9e628d8755f6d24f951092103871fc2ca08e6950b38867e8e6a0e94ee625223d3aa0df5c65f414c6d784467e252ae"], "sequence": 4294967295, "scriptSig": {"hex": "2200204a9e66345592d5d329ccf194718849a915a47d41d82a989fbc544041651a816a", "asm": "00204a9e66345592d5d329ccf194718849a915a47d41d82a989fbc544041651a816a"}, "vout": 1, "txid": "dd46be3c80284c382c9d5cd4c54edae558cf98d8593546f0f9ef851cc74d8966"}, {"txinwitness": ["", "3045022100990c8202b26afec5c0695f95d4e1fb0c920b1a4dfd96e4b7a1272f6e3d816ac402207b23555525dbf2a5582a823ad410ed75f982402b0c2644a289068bbd9d1cff1201", "3045022100834ff348fc12c769e0ef27884f99b23a16aa2381b482839ebb3568c73311d46f022012388fdf2649865528ab61f17c2fd19a36f2751c8894a689b65f061173ecf60501", "522102a93e56e27a53918fbfa623e88a2dc39ac282efcfb40edff0816fb9f1a14456ad2103871fc2ca08e6950b38867e8e6a0e94ee625223d3aa0df5c65f414c6d784467e252ae"], "sequence": 4294967295, "scriptSig": {"hex": "22002032775831919222784f82be1d33502bd3dd237156fc4904241ed50e74bc2cf941", "asm": "002032775831919222784f82be1d33502bd3dd237156fc4904241ed50e74bc2cf941"}, "vout": 1, "txid": "5ace2f16317108378ed7acf22dfc482370d26657e91bb218c8c3bf6407d0717a"}], "txid": "1733df9ee29d6f6c2a90b3d64407ce3c17f10f86f2adfdef3ac15a022f1a903f", "blocktime": 1537869901, "version": 1, "confirmations": 11524, "time": 1537869901, "locktime": 0, "vsize": 600, "size": 1258}