{"hash": "724ad4bbdd6272d94e5cc872f62df1a621533ed6e5f6a2d59bf733e3cb6c7108", "blockhash": "0000000000000000001f76057863aec43deb6fa401d9628bb513d65a8098bfab", "vout": [{"scriptPubKey": {"reqSigs": 1, "hex": "76a9149a1b8f9b1fa2d2297863adb1cb11c71df455684888ac", "addresses": ["1F3r5We2zwNiSzG6GQUTTWnnPMCz2HJbJu"], "asm": "OP_DUP OP_HASH160 9a1b8f9b1fa2d2297863adb1cb11c71df4556848 OP_EQUALVERIFY OP_CHECKSIG", "type": "pubkeyhash"}, "value": 2.699e-05, "n": 0}, {"scriptPubKey": {"reqSigs": 1, "hex": "a914e8db75c900cf08f06518e96d167331f2a4abfb3387", "addresses": ["3NvFbQMAkkqEFj4i1sYPPLkSWzxTFUchjA"], "asm": "OP_HASH160 e8db75c900cf08f06518e96d167331f2a4abfb33 OP_EQUAL", "type": "scripthash"}, "value": 5.416e-05, "n": 1}], "hex": "01000000000101ad246e5c1f67f10f6d2c7d078c17bf89b9687e8bf633d95a1b3060c3f0432c0d0100000023220020941cfaff8837763dc1f69ff82b6d6553fdea17a41cfc29a04403293eedd8ccc7ffffffff028b0a0000000000001976a9149a1b8f9b1fa2d2297863adb1cb11c71df455684888ac281500000000000017a914e8db75c900cf08f06518e96d167331f2a4abfb3387040048304502210085085d2b013c42cd7960bff9944c26f09b3ac385a97c2107985b55b46372d68a022061439046dfa297e4eb988ed9657bd2323eaa32bb9ae1db095de391c8f804f3990147304402203fd7acf092e3291e28c68c2e2da4d870a40e8e5d6e9639829b05a8e83638e2110220015aebdbc75ef90aea3da162bdbea49c6858d0b3b0bb39295669e9e83e5624ce0147522102531db3a5883f29bab4241dd0cd726936667bcda445d89bdd22244e828b6993342103148c80a5bdfddb05ff5bcffc397c8ca748d8b435ec6a175bc9d7bfc7fc6f853752ae00000000", "vin": [{"txinwitness": ["", "304502210085085d2b013c42cd7960bff9944c26f09b3ac385a97c2107985b55b46372d68a022061439046dfa297e4eb988ed9657bd2323eaa32bb9ae1db095de391c8f804f39901", "304402203fd7acf092e3291e28c68c2e2da4d870a40e8e5d6e9639829b05a8e83638e2110220015aebdbc75ef90aea3da162bdbea49c6858d0b3b0bb39295669e9e83e5624ce01", "522102531db3a5883f29bab4241dd0cd726936667bcda445d89bdd22244e828b6993342103148c80a5bdfddb05ff5bcffc397c8ca748d8b435ec6a175bc9d7bfc7fc6f853752ae"], "sequence": 4294967295, "scriptSig": {"hex": "220020941cfaff8837763dc1f69ff82b6d6553fdea17a41cfc29a04403293eedd8ccc7", "asm": "0020941cfaff8837763dc1f69ff82b6d6553fdea17a41cfc29a04403293eedd8ccc7"}, "vout": 1, "txid": "0d2c43f0c360301b5ad933f68b7e68b989bf178c077d2c6d0ff1671f5c6e24ad"}], "txid": "1738370c5be2a27dea00201e501151ec8e9c14b8b4f73ed3e85bdcefe3f1e63c", "blocktime": 1537873891, "version": 1, "confirmations": 11478, "time": 1537873891, "locktime": 0, "vsize": 208, "size": 373}