{"hash": "173917c4207e4bce4f9eac7b3802e43975dd6dce93c393cfff1c98cdfc555d0e", "blockhash": "0000000000000000000e13cef7c366c0283d82e591d1acd082e914b08063cdf1", "vout": [{"scriptPubKey": {"reqSigs": 1, "hex": "a9149e5eeda24dc63341b1ba75e60af363c034a0c2ff87", "addresses": ["3G8QQape551FVcnxxKZYM4R1SMF2BCWY2J"], "asm": "OP_HASH160 9e5eeda24dc63341b1ba75e60af363c034a0c2ff OP_EQUAL", "type": "scripthash"}, "value": 0.02197176, "n": 0}, {"scriptPubKey": {"reqSigs": 1, "hex": "76a914a7d8fd6db4516f0b5b874b93dd9d95f2cbd352b588ac", "addresses": ["1GJVnmCe4TswknfJEZkCXzQ2EWby1PASem"], "asm": "OP_DUP OP_HASH160 a7d8fd6db4516f0b5b874b93dd9d95f2cbd352b5 OP_EQUALVERIFY OP_CHECKSIG", "type": "pubkeyhash"}, "value": 0.0058279, "n": 1}], "hex": "0100000001bf6c368d6099e0aab1ce386f25ad101b14fcdc1f9a459109b17b777cb778c0b201000000da004830450221009ed3710bfdd687cd2b336acd12f6946fc7b3cedb57b657edcd68fe20f057b968022020f844b2aa7b01522faa803a5e99dd8175df3f3dec60a72e25228f8489f5dd6601473044022018eeb881d48d9c7ca871f1f91c7417f9a62ed922d06d34caa95668beb505c0af02200908f7f8804ea9f9d4736c2457849262c5e536bf69f78cc6e40a4b2cf37706b1014752210289923c36dc3aa190d9a112ef5bf5e9d7bad752b228a962ba55218af9cc4f49ec2102907a54bed8ad74b3f35638c60114ca240a308cb986f3f2f306178869a8880b6152aeffffffff02b88621000000000017a9149e5eeda24dc63341b1ba75e60af363c034a0c2ff8786e40800000000001976a914a7d8fd6db4516f0b5b874b93dd9d95f2cbd352b588ac00000000", "vin": [{"sequence": 4294967295, "scriptSig": {"hex": "004830450221009ed3710bfdd687cd2b336acd12f6946fc7b3cedb57b657edcd68fe20f057b968022020f844b2aa7b01522faa803a5e99dd8175df3f3dec60a72e25228f8489f5dd6601473044022018eeb881d48d9c7ca871f1f91c7417f9a62ed922d06d34caa95668beb505c0af02200908f7f8804ea9f9d4736c2457849262c5e536bf69f78cc6e40a4b2cf37706b1014752210289923c36dc3aa190d9a112ef5bf5e9d7bad752b228a962ba55218af9cc4f49ec2102907a54bed8ad74b3f35638c60114ca240a308cb986f3f2f306178869a8880b6152ae", "asm": "0 30450221009ed3710bfdd687cd2b336acd12f6946fc7b3cedb57b657edcd68fe20f057b968022020f844b2aa7b01522faa803a5e99dd8175df3f3dec60a72e25228f8489f5dd66[ALL] 3044022018eeb881d48d9c7ca871f1f91c7417f9a62ed922d06d34caa95668beb505c0af02200908f7f8804ea9f9d4736c2457849262c5e536bf69f78cc6e40a4b2cf37706b1[ALL] 52210289923c36dc3aa190d9a112ef5bf5e9d7bad752b228a962ba55218af9cc4f49ec2102907a54bed8ad74b3f35638c60114ca240a308cb986f3f2f306178869a8880b6152ae"}, "vout": 1, "txid": "b2c078b77c777bb10991459a1fdcfc141b10ad256f38ceb1aae099608d366cbf"}], "txid": "173917c4207e4bce4f9eac7b3802e43975dd6dce93c393cfff1c98cdfc555d0e", "blocktime": 1537871767, "version": 1, "confirmations": 11495, "time": 1537871767, "locktime": 0, "vsize": 335, "size": 335}