{"hash": "f199da7b918bf2efb8bd5af89c74654772c19d76c9d6356736cd40b9bc83603e", "blockhash": "0000000000000000001cda96e906b7601b7a6fb1a3b62bca570a9e5d8f4b3de1", "vout": [{"scriptPubKey": {"reqSigs": 1, "hex": "76a914ab17241131710f7715c4c0324b0911cfacbdf49c88ac", "addresses": ["1GbeGfHPA35cUKWHE7TCAvmZwBS2AU98qM"], "asm": "OP_DUP OP_HASH160 ab17241131710f7715c4c0324b0911cfacbdf49c OP_EQUALVERIFY OP_CHECKSIG", "type": "pubkeyhash"}, "value": 1.17621082, "n": 0}], "hex": "01000000000102020458f53864c80d5dadc9d1a9062c5683090465197921b32777c7569d62b01200000000171600146d21bc83f11155a5bdf1a988b98fbd864f2f2db1ffffffff79f1153ed5a3ae39ad100fe48ecb8ebfb00d5c9b64ba7d205847a8d2a9725bdc00000000171600146d21bc83f11155a5bdf1a988b98fbd864f2f2db1ffffffff015ac10207000000001976a914ab17241131710f7715c4c0324b0911cfacbdf49c88ac0247304402201165c743f3b57f56d3e0a1def57c154ef0a2072a80db00d14a748678c82270e5022002f67e48739cff1f335e04a8a64553363908b1bb6b353c9f8ddffb116880cfa80121038d7a448403c5f7801a2983a48f84854249b0be506ab2508c3028fb35307a378a024730440220712279c68fafeb0a4ccdd75df22ff633d9a56317f3e61cdc918542181c6d9d8e02201218dcc34c1bdedc451283876d5c0d34f52856eb3a54f134dc99888071daea900121038d7a448403c5f7801a2983a48f84854249b0be506ab2508c3028fb35307a378a00000000", "vin": [{"txinwitness": ["304402201165c743f3b57f56d3e0a1def57c154ef0a2072a80db00d14a748678c82270e5022002f67e48739cff1f335e04a8a64553363908b1bb6b353c9f8ddffb116880cfa801", "038d7a448403c5f7801a2983a48f84854249b0be506ab2508c3028fb35307a378a"], "sequence": 4294967295, "scriptSig": {"hex": "1600146d21bc83f11155a5bdf1a988b98fbd864f2f2db1", "asm": "00146d21bc83f11155a5bdf1a988b98fbd864f2f2db1"}, "vout": 0, "txid": "12b0629d56c77727b321791965040983562c06a9d1c9ad5d0dc86438f5580402"}, {"txinwitness": ["30440220712279c68fafeb0a4ccdd75df22ff633d9a56317f3e61cdc918542181c6d9d8e02201218dcc34c1bdedc451283876d5c0d34f52856eb3a54f134dc99888071daea9001", "038d7a448403c5f7801a2983a48f84854249b0be506ab2508c3028fb35307a378a"], "sequence": 4294967295, "scriptSig": {"hex": "1600146d21bc83f11155a5bdf1a988b98fbd864f2f2db1", "asm": "00146d21bc83f11155a5bdf1a988b98fbd864f2f2db1"}, "vout": 0, "txid": "dc5b72a9d2a84758207dba649b5c0db0bf8ecb8ee40f10ad39aea3d53e15f179"}], "txid": "173a561f0fd3ed5c893feb79d392810e5ed883c77f6b142460b0eccff94c5f19", "blocktime": 1537873282, "version": 1, "confirmations": 11484, "time": 1537873282, "locktime": 0, "vsize": 226, "size": 388}