{"hash": "173b7212c552da35fa198dc897e9048da96e7b4edeca2db77863abc0f50173e4", "blockhash": "0000000000000000000e13cef7c366c0283d82e591d1acd082e914b08063cdf1", "vout": [{"scriptPubKey": {"reqSigs": 1, "hex": "a9141a916070857cb69b2504dc321a0172462db050ad87", "addresses": ["347VeUx7zbKNViF4PkdZ8nVTLcfPHGUnZf"], "asm": "OP_HASH160 1a916070857cb69b2504dc321a0172462db050ad OP_EQUAL", "type": "scripthash"}, "value": 0.01593, "n": 0}, {"scriptPubKey": {"reqSigs": 1, "hex": "76a914534d69080e1a4b19fcbbdf60377176fe65716b9d88ac", "addresses": ["18bTpUyqediK78NFdUTCQtKeR2Bbur4zm9"], "asm": "OP_DUP OP_HASH160 534d69080e1a4b19fcbbdf60377176fe65716b9d OP_EQUALVERIFY OP_CHECKSIG", "type": "pubkeyhash"}, "value": 0.33222202, "n": 1}], "hex": "0100000001ea0fe724dc23d7bf8ca4ff8610e4926da7342e7a948b8b3b4ea9186451bfba04010000006a473044022047cb74beaf0de2916ea2c3c6f39f4af83e74f26d00053b63c9941eaabc58718402201059547a63d7abfca2764f1017ff10e0c4101a329dd7ef4edc3f5db5dbdf5aba0121026cbb407dc796e8b41ac785943c0faa58431f030300a94cb1d79725bcd1110bd1ffffffff02a84e18000000000017a9141a916070857cb69b2504dc321a0172462db050ad873aeefa01000000001976a914534d69080e1a4b19fcbbdf60377176fe65716b9d88ac00000000", "vin": [{"sequence": 4294967295, "scriptSig": {"hex": "473044022047cb74beaf0de2916ea2c3c6f39f4af83e74f26d00053b63c9941eaabc58718402201059547a63d7abfca2764f1017ff10e0c4101a329dd7ef4edc3f5db5dbdf5aba0121026cbb407dc796e8b41ac785943c0faa58431f030300a94cb1d79725bcd1110bd1", "asm": "3044022047cb74beaf0de2916ea2c3c6f39f4af83e74f26d00053b63c9941eaabc58718402201059547a63d7abfca2764f1017ff10e0c4101a329dd7ef4edc3f5db5dbdf5aba[ALL] 026cbb407dc796e8b41ac785943c0faa58431f030300a94cb1d79725bcd1110bd1"}, "vout": 1, "txid": "04babf516418a94e3b8b8b947a2e34a76d92e41086ffa48cbfd723dc24e70fea"}], "txid": "173b7212c552da35fa198dc897e9048da96e7b4edeca2db77863abc0f50173e4", "blocktime": 1537871767, "version": 1, "confirmations": 11492, "time": 1537871767, "locktime": 0, "vsize": 223, "size": 223}