{"hash": "173b81b42e86c8ddb89998cda95c75b67a0352e844ff20ae31680c17d28b36b1", "blockhash": "0000000000000000001cda96e906b7601b7a6fb1a3b62bca570a9e5d8f4b3de1", "vout": [{"scriptPubKey": {"reqSigs": 1, "hex": "76a9146fbd0823039229734e9f5bb97cee4be47dd6a00188ac", "addresses": ["1BBpTTCsa1rBLAqw4rxnsH3KcVt1iQFYYW"], "asm": "OP_DUP OP_HASH160 6fbd0823039229734e9f5bb97cee4be47dd6a001 OP_EQUALVERIFY OP_CHECKSIG", "type": "pubkeyhash"}, "value": 89.16466367, "n": 0}, {"scriptPubKey": {"reqSigs": 1, "hex": "a9148003e30dc02e19fc5a19926e96b72f2aa4c290e987", "addresses": ["3DMu5AcdF4asiGbkLCK5YKrPKALM3gthLL"], "asm": "OP_HASH160 8003e30dc02e19fc5a19926e96b72f2aa4c290e9 OP_EQUAL", "type": "scripthash"}, "value": 0.00454111, "n": 1}], "hex": "010000000111d4a6b39f12072f1ad19bd10d9983c33a048d86cc6863c7b29376c2dad52405010000006a4730440220330092425088d2aa750107ebaf4d3e0a869936462bbc49d952954794aaf8a03202205d8f51981d0e5985268b56abf38173f6d348f53acbc6d1cf35a5ddb46b36c5a0012102c19d741955829aaaf33b48edbde408a499a26f69edae51bcf8ed7a0c62e14ca2ffffffff02bf7a7613020000001976a9146fbd0823039229734e9f5bb97cee4be47dd6a00188acdfed06000000000017a9148003e30dc02e19fc5a19926e96b72f2aa4c290e98700000000", "vin": [{"sequence": 4294967295, "scriptSig": {"hex": "4730440220330092425088d2aa750107ebaf4d3e0a869936462bbc49d952954794aaf8a03202205d8f51981d0e5985268b56abf38173f6d348f53acbc6d1cf35a5ddb46b36c5a0012102c19d741955829aaaf33b48edbde408a499a26f69edae51bcf8ed7a0c62e14ca2", "asm": "30440220330092425088d2aa750107ebaf4d3e0a869936462bbc49d952954794aaf8a03202205d8f51981d0e5985268b56abf38173f6d348f53acbc6d1cf35a5ddb46b36c5a0[ALL] 02c19d741955829aaaf33b48edbde408a499a26f69edae51bcf8ed7a0c62e14ca2"}, "vout": 1, "txid": "0524d5dac27693b2c76368cc868d043ac383990dd19bd11a2f07129fb3a6d411"}], "txid": "173b81b42e86c8ddb89998cda95c75b67a0352e844ff20ae31680c17d28b36b1", "blocktime": 1537873282, "version": 1, "confirmations": 11480, "time": 1537873282, "locktime": 0, "vsize": 223, "size": 223}