{"hash": "d2c36aaaa369703fd09e90a5735819fa2680e7a7937dc99b824f6fa6f2ad07c1", "blockhash": "0000000000000000001f76057863aec43deb6fa401d9628bb513d65a8098bfab", "vout": [{"scriptPubKey": {"reqSigs": 1, "hex": "a914c4dd48834af6338a860f504a44b38b716a62e1dc87", "addresses": ["3KdwTAxYyVN6RNqPjKe7hFeY22TDR4sa5x"], "asm": "OP_HASH160 c4dd48834af6338a860f504a44b38b716a62e1dc OP_EQUAL", "type": "scripthash"}, "value": 0.01458486, "n": 0}, {"scriptPubKey": {"reqSigs": 1, "hex": "a91400628d0e25cbce778b63133fca459dc683bf133c87", "addresses": ["31j3yzCnPkUXkZ74AoQ6Bwq4dtaFumnmbq"], "asm": "OP_HASH160 00628d0e25cbce778b63133fca459dc683bf133c OP_EQUAL", "type": "scripthash"}, "value": 0.05488249, "n": 1}, {"scriptPubKey": {"reqSigs": 1, "hex": "76a9141f8133dd1013b0e2d5578962433b42f5798427f588ac", "addresses": ["13saj6p6rFSi5Xx4Sma8DGSQBoXh1xmEs8"], "asm": "OP_DUP OP_HASH160 1f8133dd1013b0e2d5578962433b42f5798427f5 OP_EQUALVERIFY OP_CHECKSIG", "type": "pubkeyhash"}, "value": 0.00624987, "n": 2}, {"scriptPubKey": {"reqSigs": 1, "hex": "76a914954bbf740a006bbc54e23c5aa79bd8124dffb86188ac", "addresses": ["1EcQRdvaTWv57sPhtcoBAQFiM5joNJKp9V"], "asm": "OP_DUP OP_HASH160 954bbf740a006bbc54e23c5aa79bd8124dffb861 OP_EQUALVERIFY OP_CHECKSIG", "type": "pubkeyhash"}, "value": 0.00233937, "n": 3}], "hex": "020000000001013665cc7282401f9010b1d71091c44cca7f2d080cef7b4e4387a1f5ebd4bebb06010000001716001452e96f9171c2b7f6588a82dc343d11f84e4331d5feffffff04364116000000000017a914c4dd48834af6338a860f504a44b38b716a62e1dc8779be53000000000017a91400628d0e25cbce778b63133fca459dc683bf133c875b890900000000001976a9141f8133dd1013b0e2d5578962433b42f5798427f588acd1910300000000001976a914954bbf740a006bbc54e23c5aa79bd8124dffb86188ac0247304402206f5aae262395351f4b4f23c0fe35755cab585d867b81440760edf9bcf9f0a9cf022051e8b8f610b612d37136f94c3afc42ae58bf764093ff3d0bf58cb03531bfdecc012102f43a56ad85f37679151bf8109640d9222033bf2e5b9822e3e9fb2f7d11fd794f14490800", "vin": [{"txinwitness": ["304402206f5aae262395351f4b4f23c0fe35755cab585d867b81440760edf9bcf9f0a9cf022051e8b8f610b612d37136f94c3afc42ae58bf764093ff3d0bf58cb03531bfdecc01", "02f43a56ad85f37679151bf8109640d9222033bf2e5b9822e3e9fb2f7d11fd794f"], "sequence": 4294967294, "scriptSig": {"hex": "16001452e96f9171c2b7f6588a82dc343d11f84e4331d5", "asm": "001452e96f9171c2b7f6588a82dc343d11f84e4331d5"}, "vout": 1, "txid": "06bbbed4ebf5a187434e7bef0c082d7fca4cc49110d7b110901f408272cc6536"}], "txid": "173e0567a157328623ec3feed539068417673bde34f58f810abb90a03f9e81b2", "blocktime": 1537873891, "version": 2, "confirmations": 11478, "time": 1537873891, "locktime": 542996, "vsize": 234, "size": 315}