{"hash": "17463fdd5d8e120906cb0911c1665ea9caf009c02edadc16f00ad0b2e453f8c0", "blockhash": "00000000000000000018f53835495a110e01622372bf6ae95dc86f2b0ab887b0", "vout": [{"scriptPubKey": {"reqSigs": 1, "hex": "76a91497b774a99934b18898896841005e3b323c1853d788ac", "addresses": ["1EqCohBYMGS4PfdLVHgbmK5RQMua47sMML"], "asm": "OP_DUP OP_HASH160 97b774a99934b18898896841005e3b323c1853d7 OP_EQUALVERIFY OP_CHECKSIG", "type": "pubkeyhash"}, "value": 0.1995, "n": 0}, {"scriptPubKey": {"reqSigs": 1, "hex": "76a914b08f46e4d21cd0547a8a1e2e43e5440284f710a488ac", "addresses": ["1H6ZZpRmMnrw8ytepV3BYwMjYYnEkWDqVP"], "asm": "OP_DUP OP_HASH160 b08f46e4d21cd0547a8a1e2e43e5440284f710a4 OP_EQUALVERIFY OP_CHECKSIG", "type": "pubkeyhash"}, "value": 0.62008197, "n": 1}], "hex": "010000000162bc4e11cac2646f5fe9c2f209ebd72ea91e9d3dec263a26c0cffabb2e7af6de010000006b483045022100c2fb333d3263d702a001e880b903f5c04170688a781ba72be909f091d8ed157002204a1e74893a91489bc9e6bbd136f7804a2cbeea3c45bb170fa16e843311075859012102227cedfab55d1b7642d47a5ac92638ed8822a23c3ddadf88defea45a37f5935effffffff02b0693001000000001976a91497b774a99934b18898896841005e3b323c1853d788ac852bb203000000001976a914b08f46e4d21cd0547a8a1e2e43e5440284f710a488ac00000000", "vin": [{"sequence": 4294967295, "scriptSig": {"hex": "483045022100c2fb333d3263d702a001e880b903f5c04170688a781ba72be909f091d8ed157002204a1e74893a91489bc9e6bbd136f7804a2cbeea3c45bb170fa16e843311075859012102227cedfab55d1b7642d47a5ac92638ed8822a23c3ddadf88defea45a37f5935e", "asm": "3045022100c2fb333d3263d702a001e880b903f5c04170688a781ba72be909f091d8ed157002204a1e74893a91489bc9e6bbd136f7804a2cbeea3c45bb170fa16e843311075859[ALL] 02227cedfab55d1b7642d47a5ac92638ed8822a23c3ddadf88defea45a37f5935e"}, "vout": 1, "txid": "def67a2ebbfacfc0263a26ec3d9d1ea92ed7eb09f2c2e95f6f64c2ca114ebc62"}], "txid": "17463fdd5d8e120906cb0911c1665ea9caf009c02edadc16f00ad0b2e453f8c0", "blocktime": 1537870928, "version": 1, "confirmations": 11512, "time": 1537870928, "locktime": 0, "vsize": 226, "size": 226}