{"hash": "1748b12bcbe23ff6c1c727993c081ec6c51908ce1c2f3e7c9d4856c2195ebf80", "blockhash": "0000000000000000000e13cef7c366c0283d82e591d1acd082e914b08063cdf1", "vout": [{"scriptPubKey": {"reqSigs": 1, "hex": "a91426d2e71135f8d9827e356dc3a0278ef3f89d0e8f87", "addresses": ["35EJFbwkKnx3xEEcS43kdXFCQzKomB517P"], "asm": "OP_HASH160 26d2e71135f8d9827e356dc3a0278ef3f89d0e8f OP_EQUAL", "type": "scripthash"}, "value": 0.03080411, "n": 0}, {"scriptPubKey": {"reqSigs": 1, "hex": "76a914d1ba656c3fdab3ec8c16104567f44d30fccd6bd088ac", "addresses": ["1L7wX8LD7dZH8A3U235NhBMZFgyxTvEi3i"], "asm": "OP_DUP OP_HASH160 d1ba656c3fdab3ec8c16104567f44d30fccd6bd0 OP_EQUALVERIFY OP_CHECKSIG", "type": "pubkeyhash"}, "value": 9.885e-05, "n": 1}], "hex": "0100000002e72e6d0322e68645b034ed1ca0286f03f11ff1b9e7b059771525ade0f835f4eb00000000da00483045022100ea4e4ea0d81b7fc2c6409bbca0ff1564bbe22b828abd75e0d5a9bb19770a7229022063920688ed94f604121d958aa71b20365960f6f2d80d3ada408d96ce55d16fe50147304402206ccc39f014f1227ad438be693146c17818227bd1507252bbdc8b760609e8ae5d0220732976e25be841d5ffc39daee244096c85f5ba9a58085bbb008e891ea2d2d61401475221024af632767b724d02525526a9a545d0198ec12ea987515ea976a209e4bd8ddc032102907a54bed8ad74b3f35638c60114ca240a308cb986f3f2f306178869a8880b6152aeffffffff19a30c253f4d4b03154e7935e7c66c98c1e1d59d7106e5fecc1436d22fb0aed3010000006a47304402204159924f5ee5c504c1dbdcb10c7985da82a76d326e4203514a3024eee07765c702200efae7e711bb19845ec1b2337dc8a5034f64b618738a7b40a2f74f29685e36c80121037ae8b0676b508aa42b7997d8df1fa693be0c66f6e8eaf9e791253a7c24e30394ffffffff02db002f000000000017a91426d2e71135f8d9827e356dc3a0278ef3f89d0e8f879d260000000000001976a914d1ba656c3fdab3ec8c16104567f44d30fccd6bd088ac00000000", "vin": [{"sequence": 4294967295, "scriptSig": {"hex": "00483045022100ea4e4ea0d81b7fc2c6409bbca0ff1564bbe22b828abd75e0d5a9bb19770a7229022063920688ed94f604121d958aa71b20365960f6f2d80d3ada408d96ce55d16fe50147304402206ccc39f014f1227ad438be693146c17818227bd1507252bbdc8b760609e8ae5d0220732976e25be841d5ffc39daee244096c85f5ba9a58085bbb008e891ea2d2d61401475221024af632767b724d02525526a9a545d0198ec12ea987515ea976a209e4bd8ddc032102907a54bed8ad74b3f35638c60114ca240a308cb986f3f2f306178869a8880b6152ae", "asm": "0 3045022100ea4e4ea0d81b7fc2c6409bbca0ff1564bbe22b828abd75e0d5a9bb19770a7229022063920688ed94f604121d958aa71b20365960f6f2d80d3ada408d96ce55d16fe5[ALL] 304402206ccc39f014f1227ad438be693146c17818227bd1507252bbdc8b760609e8ae5d0220732976e25be841d5ffc39daee244096c85f5ba9a58085bbb008e891ea2d2d614[ALL] 5221024af632767b724d02525526a9a545d0198ec12ea987515ea976a209e4bd8ddc032102907a54bed8ad74b3f35638c60114ca240a308cb986f3f2f306178869a8880b6152ae"}, "vout": 0, "txid": "ebf435f8e0ad25157759b0e7b9f11ff1036f28a01ced34b04586e622036d2ee7"}, {"sequence": 4294967295, "scriptSig": {"hex": "47304402204159924f5ee5c504c1dbdcb10c7985da82a76d326e4203514a3024eee07765c702200efae7e711bb19845ec1b2337dc8a5034f64b618738a7b40a2f74f29685e36c80121037ae8b0676b508aa42b7997d8df1fa693be0c66f6e8eaf9e791253a7c24e30394", "asm": "304402204159924f5ee5c504c1dbdcb10c7985da82a76d326e4203514a3024eee07765c702200efae7e711bb19845ec1b2337dc8a5034f64b618738a7b40a2f74f29685e36c8[ALL] 037ae8b0676b508aa42b7997d8df1fa693be0c66f6e8eaf9e791253a7c24e30394"}, "vout": 1, "txid": "d3aeb02fd23614ccfee506719dd5e1c1986cc6e735794e15034b4d3f250ca319"}], "txid": "1748b12bcbe23ff6c1c727993c081ec6c51908ce1c2f3e7c9d4856c2195ebf80", "blocktime": 1537871767, "version": 1, "confirmations": 11495, "time": 1537871767, "locktime": 0, "vsize": 482, "size": 482}