{"hash": "174bf06e3f759098b984e319ea3cb628711b639ab92a0247fd0bb4614d9f0a30", "blockhash": "0000000000000000000baef3f32e3676a92c3b2e5da21b426e4f302fc371ce76", "vout": [{"scriptPubKey": {"type": "nulldata", "hex": "6a4c500000782d0001d441b1e9d59bc691606cacc227b7256b4774d339f6019d6ddc0f1b8ff11799af0a8885b55c678f7e3453e4d972a95baa1f3d0613af1ad49593921d100759d4ba30d2c37bb011d97e02cf", "asm": "OP_RETURN 0000782d0001d441b1e9d59bc691606cacc227b7256b4774d339f6019d6ddc0f1b8ff11799af0a8885b55c678f7e3453e4d972a95baa1f3d0613af1ad49593921d100759d4ba30d2c37bb011d97e02cf"}, "value": 0.0, "n": 0}, {"scriptPubKey": {"reqSigs": 1, "hex": "76a91457c977091fedbf5cab31be807b56840dee49b66d88ac", "addresses": ["191B8irgiavt8zbrmG6K7Tn5AbjhLDv2FV"], "asm": "OP_DUP OP_HASH160 57c977091fedbf5cab31be807b56840dee49b66d OP_EQUALVERIFY OP_CHECKSIG", "type": "pubkeyhash"}, "value": 0.00628649, "n": 1}], "hex": "010000000146c22fa6767c1dbf7dccf206d3a766966a779e8a3fe810dcbf548ded0230ace0010000006b4830450221009c9632557459712bfe73c48a7e45db6ef75020329d0905f24470d5cd100267c202206359a0ed8c1f5ee9c304a8d60770569c0a6945b2bcff987215c91812e2252555012102a5d8e3e06c8e1c0a2a6a4e50d6b5427e1cbe4b4469bce637f1699db38711d03affffffff020000000000000000536a4c500000782d0001d441b1e9d59bc691606cacc227b7256b4774d339f6019d6ddc0f1b8ff11799af0a8885b55c678f7e3453e4d972a95baa1f3d0613af1ad49593921d100759d4ba30d2c37bb011d97e02cfa9970900000000001976a91457c977091fedbf5cab31be807b56840dee49b66d88ac00000000", "vin": [{"sequence": 4294967295, "scriptSig": {"hex": "4830450221009c9632557459712bfe73c48a7e45db6ef75020329d0905f24470d5cd100267c202206359a0ed8c1f5ee9c304a8d60770569c0a6945b2bcff987215c91812e2252555012102a5d8e3e06c8e1c0a2a6a4e50d6b5427e1cbe4b4469bce637f1699db38711d03a", "asm": "30450221009c9632557459712bfe73c48a7e45db6ef75020329d0905f24470d5cd100267c202206359a0ed8c1f5ee9c304a8d60770569c0a6945b2bcff987215c91812e2252555[ALL] 02a5d8e3e06c8e1c0a2a6a4e50d6b5427e1cbe4b4469bce637f1699db38711d03a"}, "vout": 1, "txid": "e0ac3002ed8d54bfdc10e83f8a9e776a9666a7d306f2cc7dbf1d7c76a62fc246"}], "txid": "174bf06e3f759098b984e319ea3cb628711b639ab92a0247fd0bb4614d9f0a30", "blocktime": 1537876114, "version": 1, "confirmations": 11460, "time": 1537876114, "locktime": 0, "vsize": 284, "size": 284}