{"hash": "174dd14deae30a1ca3366bbcb0cb6fb7a83a42fc3e9182199405b4464e59f66f", "blockhash": "00000000000000000024a2167bbff67b0be802c0b01cdd79e6331c2be6459f87", "vout": [{"scriptPubKey": {"reqSigs": 1, "hex": "76a914d7711d7a1a1baa8d9953813c629f788dc840121588ac", "addresses": ["1Le9nd3uzaTcBNfFx62Yg9aHFVsjYAXEU1"], "asm": "OP_DUP OP_HASH160 d7711d7a1a1baa8d9953813c629f788dc8401215 OP_EQUALVERIFY OP_CHECKSIG", "type": "pubkeyhash"}, "value": 1.34329462, "n": 0}, {"scriptPubKey": {"reqSigs": 1, "hex": "76a914e8cea30989bd15530f819b766684b00dc7ba7cfa88ac", "addresses": ["1NDyJtNTjmwk5xPNhjgAMu4HDHigtobu1s"], "asm": "OP_DUP OP_HASH160 e8cea30989bd15530f819b766684b00dc7ba7cfa OP_EQUALVERIFY OP_CHECKSIG", "type": "pubkeyhash"}, "value": 4.65647938, "n": 1}], "hex": "0200000001ada9874a1d372e9e54bde40bd64c5a9eafece1670b42369bfedc6eba875b0175040000006a47304402200c35a00be2350906f3e50c6497898e819f965c37c2f4d69aae68a5bba20ffd52022018fcbd8bd61c58e8046cf125efc2d5ab627d178784e7e8454abc514d0b94346901210250aa0bf7b7ff0ec9f986a5aa31976d69858c061f49e1bd9a18de503e8b0ec7a7feffffff0276b40108000000001976a914d7711d7a1a1baa8d9953813c629f788dc840121588ac4239c11b000000001976a914e8cea30989bd15530f819b766684b00dc7ba7cfa88ac0d490800", "vin": [{"sequence": 4294967294, "scriptSig": {"hex": "47304402200c35a00be2350906f3e50c6497898e819f965c37c2f4d69aae68a5bba20ffd52022018fcbd8bd61c58e8046cf125efc2d5ab627d178784e7e8454abc514d0b94346901210250aa0bf7b7ff0ec9f986a5aa31976d69858c061f49e1bd9a18de503e8b0ec7a7", "asm": "304402200c35a00be2350906f3e50c6497898e819f965c37c2f4d69aae68a5bba20ffd52022018fcbd8bd61c58e8046cf125efc2d5ab627d178784e7e8454abc514d0b943469[ALL] 0250aa0bf7b7ff0ec9f986a5aa31976d69858c061f49e1bd9a18de503e8b0ec7a7"}, "vout": 4, "txid": "75015b87ba6edcfe9b36420b67e1ecaf9e5a4cd60be4bd549e2e371d4a87a9ad"}], "txid": "174dd14deae30a1ca3366bbcb0cb6fb7a83a42fc3e9182199405b4464e59f66f", "blocktime": 1537870564, "version": 2, "confirmations": 11515, "time": 1537870564, "locktime": 542989, "vsize": 225, "size": 225}