{"hash": "174fa563b673f53f344b0de16f13dd0531523b57c11ac52aa8084f8e5d980583", "blockhash": "00000000000000000004ffacab907a6b429b9a5745fa0b75af4234bf69dd7176", "vout": [{"scriptPubKey": {"reqSigs": 1, "hex": "76a9148acca895b114568f96779d60ee709188c31f213f88ac", "addresses": ["1DeuRQ1yHSEs2RCbiMfgthbje4t9LaSGRM"], "asm": "OP_DUP OP_HASH160 8acca895b114568f96779d60ee709188c31f213f OP_EQUALVERIFY OP_CHECKSIG", "type": "pubkeyhash"}, "value": 0.01562654, "n": 0}, {"scriptPubKey": {"reqSigs": 1, "hex": "76a914f4dfa7b7ae2dd95ec2496a7fdbac27ba1ab4c57f88ac", "addresses": ["1PKmoe3MnWPCSfQU7tWDbVHBtv7rHUNeHp"], "asm": "OP_DUP OP_HASH160 f4dfa7b7ae2dd95ec2496a7fdbac27ba1ab4c57f OP_EQUALVERIFY OP_CHECKSIG", "type": "pubkeyhash"}, "value": 0.02055709, "n": 1}], "hex": "0100000001cc68c5176d19a0d93807012100d0fe8f64b4ee8d853579bd79627f944f0aa1fb010000006b483045022100fef901c89ad7dd5915089b50f4380e95aba0e813e28231b889c6ced30af535a50220718cab296f55849afcaad617c755799dc0a7a305aa0d4506bdd2fecd490e419e0121026c1ca6ddb7edfc09b8616cc3a7937a5d1a9e3634a31285c04dd4f75ea50e88baffffffff021ed81700000000001976a9148acca895b114568f96779d60ee709188c31f213f88ac1d5e1f00000000001976a914f4dfa7b7ae2dd95ec2496a7fdbac27ba1ab4c57f88ac00000000", "vin": [{"sequence": 4294967295, "scriptSig": {"hex": "483045022100fef901c89ad7dd5915089b50f4380e95aba0e813e28231b889c6ced30af535a50220718cab296f55849afcaad617c755799dc0a7a305aa0d4506bdd2fecd490e419e0121026c1ca6ddb7edfc09b8616cc3a7937a5d1a9e3634a31285c04dd4f75ea50e88ba", "asm": "3045022100fef901c89ad7dd5915089b50f4380e95aba0e813e28231b889c6ced30af535a50220718cab296f55849afcaad617c755799dc0a7a305aa0d4506bdd2fecd490e419e[ALL] 026c1ca6ddb7edfc09b8616cc3a7937a5d1a9e3634a31285c04dd4f75ea50e88ba"}, "vout": 1, "txid": "fba10a4f947f6279bd7935858deeb4648ffed00021010738d9a0196d17c568cc"}], "txid": "174fa563b673f53f344b0de16f13dd0531523b57c11ac52aa8084f8e5d980583", "blocktime": 1537875543, "version": 1, "confirmations": 11464, "time": 1537875543, "locktime": 0, "vsize": 226, "size": 226}