{"hash": "625107e50ddb6101ea1325600b2b1e168cb69cd0bf8fa7928a09ea1a1ce458e1", "blockhash": "00000000000000000024a2167bbff67b0be802c0b01cdd79e6331c2be6459f87", "vout": [{"scriptPubKey": {"reqSigs": 1, "hex": "a914b1d346f0d6d348bdbf614dafd210fc3a6aadabb387", "addresses": ["3HuGdHhzDvX9mpGK3TH8c1VpVjP1UeR5L4"], "asm": "OP_HASH160 b1d346f0d6d348bdbf614dafd210fc3a6aadabb3 OP_EQUAL", "type": "scripthash"}, "value": 0.0065, "n": 0}, {"scriptPubKey": {"reqSigs": 1, "hex": "a9148c4799fe031188777c4c813ff42178a65db6811587", "addresses": ["3EUkJMvxcVpKsCsoRzLy6W8RkyZCnbBoSa"], "asm": "OP_HASH160 8c4799fe031188777c4c813ff42178a65db68115 OP_EQUAL", "type": "scripthash"}, "value": 0.01004763, "n": 1}], "hex": "02000000000103abe1d5eb354e739db1c1742a3a7cfd830a6e3d63d1b93078d544e64f0c4b28c01000000017160014b856ae331cf5cd7ecb9ab8c44eb4a74e44f2d8ccfeffffffd1b2600a17491f080f355b1fb8b51e5ad4106def4a8cb80e37679faa70a20470460000006b4830450221009d3f742da9046c17217eb31e3ac8ea67f3c8c7b0be637defe441e6011bef420b02203296a6f4773dc67b38f75c52f4bf591623d34cdb572bac189cc3865c9298e486012102d45720120c9f811ec2ff9703d76fce8007f9778a9945200dc1a86153b3cccfcafeffffffed24bf93b3a1fa87bd0a915faf7bd6d898c4cd9634f8c96ab41bf327cc33f0f6850100006b48304502210089a1a6c5cbb14a3f5dbe340610f373635ca752133dd1ea4a4ac0c21975f9c9fc022039afbf7e202e18192031d37d433551c8d86f2f29155b48358e9f3fa14d7d1dd7012103d2d4d839817e59788af954e4d39cbd8192d6f9a148efa8547db11574ce662dd9feffffff0210eb09000000000017a914b1d346f0d6d348bdbf614dafd210fc3a6aadabb387db540f000000000017a9148c4799fe031188777c4c813ff42178a65db681158702483045022100f4c3b869eaa1c40a085e0f300cd21a84690218b1ea8e51e8d08423998061c86d02203060e3245a8bdbcff54be448bc1a32b7f5a00ae0f7d79e9f0bf574eba665c8ae012102cfa978bb24b72e844e1a4596585a16ab6120746b24ff642d6aa8648a445d396100000d490800", "vin": [{"txinwitness": ["3045022100f4c3b869eaa1c40a085e0f300cd21a84690218b1ea8e51e8d08423998061c86d02203060e3245a8bdbcff54be448bc1a32b7f5a00ae0f7d79e9f0bf574eba665c8ae01", "02cfa978bb24b72e844e1a4596585a16ab6120746b24ff642d6aa8648a445d3961"], "sequence": 4294967294, "scriptSig": {"hex": "160014b856ae331cf5cd7ecb9ab8c44eb4a74e44f2d8cc", "asm": "0014b856ae331cf5cd7ecb9ab8c44eb4a74e44f2d8cc"}, "vout": 16, "txid": "c0284b0c4fe644d57830b9d1633d6e0a83fd7c3a2a74c1b19d734e35ebd5e1ab"}, {"sequence": 4294967294, "scriptSig": {"hex": "4830450221009d3f742da9046c17217eb31e3ac8ea67f3c8c7b0be637defe441e6011bef420b02203296a6f4773dc67b38f75c52f4bf591623d34cdb572bac189cc3865c9298e486012102d45720120c9f811ec2ff9703d76fce8007f9778a9945200dc1a86153b3cccfca", "asm": "30450221009d3f742da9046c17217eb31e3ac8ea67f3c8c7b0be637defe441e6011bef420b02203296a6f4773dc67b38f75c52f4bf591623d34cdb572bac189cc3865c9298e486[ALL] 02d45720120c9f811ec2ff9703d76fce8007f9778a9945200dc1a86153b3cccfca"}, "vout": 70, "txid": "7004a270aa9f67370eb88c4aef6d10d45a1eb5b81f5b350f081f49170a60b2d1"}, {"sequence": 4294967294, "scriptSig": {"hex": "48304502210089a1a6c5cbb14a3f5dbe340610f373635ca752133dd1ea4a4ac0c21975f9c9fc022039afbf7e202e18192031d37d433551c8d86f2f29155b48358e9f3fa14d7d1dd7012103d2d4d839817e59788af954e4d39cbd8192d6f9a148efa8547db11574ce662dd9", "asm": "304502210089a1a6c5cbb14a3f5dbe340610f373635ca752133dd1ea4a4ac0c21975f9c9fc022039afbf7e202e18192031d37d433551c8d86f2f29155b48358e9f3fa14d7d1dd7[ALL] 03d2d4d839817e59788af954e4d39cbd8192d6f9a148efa8547db11574ce662dd9"}, "vout": 389, "txid": "f6f033cc27f31bb46ac9f83496cdc498d8d67baf5f910abd87faa1b393bf24ed"}], "txid": "175872437374e10c705a10328812d0e4e8fb1f290adc575438ed4418d5ea9e10", "blocktime": 1537870564, "version": 2, "confirmations": 11515, "time": 1537870564, "locktime": 542989, "vsize": 462, "size": 546}