{"hash": "24c646e9dae9ee05ed43cf885015ea6d3ae5b5ec7e795f563f94d11d0d099bd8", "blockhash": "0000000000000000000e13cef7c366c0283d82e591d1acd082e914b08063cdf1", "vout": [{"scriptPubKey": {"reqSigs": 1, "hex": "76a914bbc38b9e69f6f1113a8a086caea21b5f12c0f8b788ac", "addresses": ["1J7occ2WMk858SX9cUGthK33iDmeteFJCJ"], "asm": "OP_DUP OP_HASH160 bbc38b9e69f6f1113a8a086caea21b5f12c0f8b7 OP_EQUALVERIFY OP_CHECKSIG", "type": "pubkeyhash"}, "value": 0.04495328, "n": 0}, {"scriptPubKey": {"reqSigs": 1, "hex": "00144e0fd2383cf85fd662ebbd2dd0c88338f4dc1ca7", "addresses": ["bc1qfc8aywpulp0avchth5kapjyr8r6dc898pedwjz"], "asm": "0 4e0fd2383cf85fd662ebbd2dd0c88338f4dc1ca7", "type": "witness_v0_keyhash"}, "value": 1.73391218, "n": 1}], "hex": "010000000001011aa40d8e8668340a25f45f3bddc7dc043b75fe6da6259d400770f0deb6ecc5d40000000000ffffffff02e0974400000000001976a914bbc38b9e69f6f1113a8a086caea21b5f12c0f8b788ac72bd550a000000001600144e0fd2383cf85fd662ebbd2dd0c88338f4dc1ca70247304402205ef5d3b5b2c9d7104097ba6c88623686520da43864cc4fdb50fa2f1d08c872dd02207a6a5ee1c7ce40f46d424519f332f45273878ed1a01da0e400f16c53abc15d51012102f0642d459b4e9067f074a40bcc0297ce99188dd90cb4e0fe71e58e0c2b26331300000000", "vin": [{"txinwitness": ["304402205ef5d3b5b2c9d7104097ba6c88623686520da43864cc4fdb50fa2f1d08c872dd02207a6a5ee1c7ce40f46d424519f332f45273878ed1a01da0e400f16c53abc15d5101", "02f0642d459b4e9067f074a40bcc0297ce99188dd90cb4e0fe71e58e0c2b263313"], "sequence": 4294967295, "scriptSig": {"hex": "", "asm": ""}, "vout": 0, "txid": "d4c5ecb6def07007409d25a66dfe753b04dcc7dd3b5ff4250a3468868e0da41a"}], "txid": "175ca3eb25cc1e39257fe496cbf4a93e73c3eda9cea8db22dcbe6230e5350667", "blocktime": 1537871767, "version": 1, "confirmations": 11495, "time": 1537871767, "locktime": 0, "vsize": 144, "size": 225}