{"hash": "0aa1590d5b3fdca2ba25c4076a31be4a66fe7d6c174b7031ea03699e51fcce55", "blockhash": "0000000000000000000baef3f32e3676a92c3b2e5da21b426e4f302fc371ce76", "vout": [{"scriptPubKey": {"type": "nulldata", "hex": "6a146f6d6e69000000000000001f0000002b29ce9c40", "asm": "OP_RETURN 6f6d6e69000000000000001f0000002b29ce9c40"}, "value": 0.0, "n": 0}, {"scriptPubKey": {"reqSigs": 1, "hex": "76a914f4c365e98832adfd11396dbc78fc6f0e355bff6d88ac", "addresses": ["1PKBxJeWAvJ5jbBDeSyw5gT7XfKgTW6Zvw"], "asm": "OP_DUP OP_HASH160 f4c365e98832adfd11396dbc78fc6f0e355bff6d OP_EQUALVERIFY OP_CHECKSIG", "type": "pubkeyhash"}, "value": 2.73e-05, "n": 1}, {"scriptPubKey": {"reqSigs": 1, "hex": "a914e818e90b8e6b38dba66f74b35cb708bbc73e2ea787", "addresses": ["3NrEXrB9qAxXYfRt6jKtBD8QzoU2qtNWDR"], "asm": "OP_HASH160 e818e90b8e6b38dba66f74b35cb708bbc73e2ea7 OP_EQUAL", "type": "scripthash"}, "value": 0.10679712, "n": 2}], "hex": "01000000000102c77b24fc8cdcfbad7c94b349e78a47c8e90f2d6ea93953ed18337b99a50f38570100000017160014000b814f2c1a19852357ed615a08ec572a781ed1ffffffffcf1e1150f1106ba85634cc897606ff40bb0e8aee7674582bc63231f24ecea3dc0200000017160014000b814f2c1a19852357ed615a08ec572a781ed1ffffffff030000000000000000166a146f6d6e69000000000000001f0000002b29ce9c40aa0a0000000000001976a914f4c365e98832adfd11396dbc78fc6f0e355bff6d88aca0f5a2000000000017a914e818e90b8e6b38dba66f74b35cb708bbc73e2ea7870247304402204d6e1d16af87081366d17b8d85750b5d814d3a970e6e1703b023b51679c93c3a02204ffef11547134801459dc622f5a23788677a5ae77815068ed0e395d16d4b7755012102aad79950b2c2af3689e8644c89e9d10dff06c2d8926200496b92e9f7ccb0304c02483045022100d5fb57aa611600bd0c1c508fbbd5e4832b5005786e43d3c91c3bfc973260486b02207d5660a7f12d3f22dec53cea2fcb390d21973516d5f809a1fa9c6d784b4fa752012102aad79950b2c2af3689e8644c89e9d10dff06c2d8926200496b92e9f7ccb0304c00000000", "vin": [{"txinwitness": ["304402204d6e1d16af87081366d17b8d85750b5d814d3a970e6e1703b023b51679c93c3a02204ffef11547134801459dc622f5a23788677a5ae77815068ed0e395d16d4b775501", "02aad79950b2c2af3689e8644c89e9d10dff06c2d8926200496b92e9f7ccb0304c"], "sequence": 4294967295, "scriptSig": {"hex": "160014000b814f2c1a19852357ed615a08ec572a781ed1", "asm": "0014000b814f2c1a19852357ed615a08ec572a781ed1"}, "vout": 1, "txid": "57380fa5997b3318ed5339a96e2d0fe9c8478ae749b3947cadfbdc8cfc247bc7"}, {"txinwitness": ["3045022100d5fb57aa611600bd0c1c508fbbd5e4832b5005786e43d3c91c3bfc973260486b02207d5660a7f12d3f22dec53cea2fcb390d21973516d5f809a1fa9c6d784b4fa75201", "02aad79950b2c2af3689e8644c89e9d10dff06c2d8926200496b92e9f7ccb0304c"], "sequence": 4294967295, "scriptSig": {"hex": "160014000b814f2c1a19852357ed615a08ec572a781ed1", "asm": "0014000b814f2c1a19852357ed615a08ec572a781ed1"}, "vout": 2, "txid": "dca3ce4ef23132c62b587476ee8a0ebb40ff067689cc3456a86b10f150111ecf"}], "txid": "175cf5cd7cdcf01280d7b64ff228de103deb9b7926ad419ef36cc18f8323a3e3", "blocktime": 1537876114, "version": 1, "confirmations": 11460, "time": 1537876114, "locktime": 0, "vsize": 290, "size": 452}