{"hash": "1767646e1a64e1e59f74beb13d6917681f68cc3e308619f14e7a4c40554438a3", "blockhash": "0000000000000000001cda96e906b7601b7a6fb1a3b62bca570a9e5d8f4b3de1", "vout": [{"scriptPubKey": {"type": "nulldata", "hex": "6a146f6d6e69000000000000001f0000001734cb8180", "asm": "OP_RETURN 6f6d6e69000000000000001f0000001734cb8180"}, "value": 0.0, "n": 0}, {"scriptPubKey": {"reqSigs": 1, "hex": "76a914a970f9ff6e83361fb540ee68e44e44d4af05b6c788ac", "addresses": ["1GSvYAjsUVqs77Cu8oBDaHgsZUY1wZs1s3"], "asm": "OP_DUP OP_HASH160 a970f9ff6e83361fb540ee68e44e44d4af05b6c7 OP_EQUALVERIFY OP_CHECKSIG", "type": "pubkeyhash"}, "value": 5.46e-06, "n": 1}, {"scriptPubKey": {"reqSigs": 1, "hex": "76a914a25dec4d0011064ef106a983c39c7a540699f22088ac", "addresses": ["1FoWyxwPXuj4C6abqwhjDWdz6D4PZgYRjA"], "asm": "OP_DUP OP_HASH160 a25dec4d0011064ef106a983c39c7a540699f220 OP_EQUALVERIFY OP_CHECKSIG", "type": "pubkeyhash"}, "value": 0.01995188, "n": 2}], "hex": "0100000001a44813c76173a4fe9689194c29809e35be05f1741d9b5e1e9e8bd44070ac1fea7b0000006a4730440220286ea2332ea0db5ca839343c1a9b0f600d853b494450160efb2130ceac07b63302200a2d466e17734cd434bf56e76e7c81b51a99788cab56c7901cafff5aec884d45012103da5bac7b36d5aa38f531c6b9601e21bb598a4b6716ebed38b009a55dabde9440feffffff030000000000000000166a146f6d6e69000000000000001f0000001734cb818022020000000000001976a914a970f9ff6e83361fb540ee68e44e44d4af05b6c788acb4711e00000000001976a914a25dec4d0011064ef106a983c39c7a540699f22088ac13490800", "vin": [{"sequence": 4294967294, "scriptSig": {"hex": "4730440220286ea2332ea0db5ca839343c1a9b0f600d853b494450160efb2130ceac07b63302200a2d466e17734cd434bf56e76e7c81b51a99788cab56c7901cafff5aec884d45012103da5bac7b36d5aa38f531c6b9601e21bb598a4b6716ebed38b009a55dabde9440", "asm": "30440220286ea2332ea0db5ca839343c1a9b0f600d853b494450160efb2130ceac07b63302200a2d466e17734cd434bf56e76e7c81b51a99788cab56c7901cafff5aec884d45[ALL] 03da5bac7b36d5aa38f531c6b9601e21bb598a4b6716ebed38b009a55dabde9440"}, "vout": 123, "txid": "ea1fac7040d48b9e1e5e9b1d74f105be359e80294c198996fea47361c71348a4"}], "txid": "1767646e1a64e1e59f74beb13d6917681f68cc3e308619f14e7a4c40554438a3", "blocktime": 1537873282, "version": 1, "confirmations": 11481, "time": 1537873282, "locktime": 542995, "vsize": 256, "size": 256}