{"hash": "1768e04ceb1bbef8ce779e6aa38264a76981d8aae2d16ecfc6066f2077bd208a", "blockhash": "0000000000000000001f0ddff1eddb255c1121bcd4da4f1bc9a0da00cae72433", "vout": [{"scriptPubKey": {"type": "nulldata", "hex": "6a4c50000077a70001bce166cdd5c3a8a548e45712af6c953dd567cf27e7e3ef3236678a62509738897a2b0c6b1d23b3efafcc8f3883695baa0f96061395acacf5c719bc9a9526289ac0f6612cd74e33776ee4", "asm": "OP_RETURN 000077a70001bce166cdd5c3a8a548e45712af6c953dd567cf27e7e3ef3236678a62509738897a2b0c6b1d23b3efafcc8f3883695baa0f96061395acacf5c719bc9a9526289ac0f6612cd74e33776ee4"}, "value": 0.0, "n": 0}, {"scriptPubKey": {"reqSigs": 1, "hex": "76a91439c810728e6f8a7f947374feb3219dd7760ed5b688ac", "addresses": ["16GXBeEd2x88gdQc1rkE8UsRPGg4XvBGPT"], "asm": "OP_DUP OP_HASH160 39c810728e6f8a7f947374feb3219dd7760ed5b6 OP_EQUALVERIFY OP_CHECKSIG", "type": "pubkeyhash"}, "value": 0.00142764, "n": 1}], "hex": "01000000016ea1fc653a938adc1f301bf64b11aa0b6c8ac7ac6cee7216f182b439466be7e6000000006b483045022100d073cd0ae798574e1121be808580793866f0897a0090da9c3b6812323d2e68ae02201d67df4c34d9e7ce875e94c74c3d3b1d4dd012ad5199669e993faad6fc9f3b52012103e89542433e19de9cf7350c3a2581682c8caab5a29b59f3a1dd41b9ab639767afffffffff020000000000000000536a4c50000077a70001bce166cdd5c3a8a548e45712af6c953dd567cf27e7e3ef3236678a62509738897a2b0c6b1d23b3efafcc8f3883695baa0f96061395acacf5c719bc9a9526289ac0f6612cd74e33776ee4ac2d0200000000001976a91439c810728e6f8a7f947374feb3219dd7760ed5b688ac00000000", "vin": [{"sequence": 4294967295, "scriptSig": {"hex": "483045022100d073cd0ae798574e1121be808580793866f0897a0090da9c3b6812323d2e68ae02201d67df4c34d9e7ce875e94c74c3d3b1d4dd012ad5199669e993faad6fc9f3b52012103e89542433e19de9cf7350c3a2581682c8caab5a29b59f3a1dd41b9ab639767af", "asm": "3045022100d073cd0ae798574e1121be808580793866f0897a0090da9c3b6812323d2e68ae02201d67df4c34d9e7ce875e94c74c3d3b1d4dd012ad5199669e993faad6fc9f3b52[ALL] 03e89542433e19de9cf7350c3a2581682c8caab5a29b59f3a1dd41b9ab639767af"}, "vout": 0, "txid": "e6e76b4639b482f11672ee6cacc78a6c0baa114bf61b301fdc8a933a65fca16e"}], "txid": "1768e04ceb1bbef8ce779e6aa38264a76981d8aae2d16ecfc6066f2077bd208a", "blocktime": 1537872018, "version": 1, "confirmations": 11489, "time": 1537872018, "locktime": 0, "vsize": 284, "size": 284}