{"hash": "1772915213ed2ae4d5488ebfcc3b106166d9c648a558d1e05c5b475f8e0b1f3e", "blockhash": "0000000000000000001e0dab787dd257d1dbfcb92a98c2207d5e1078be1f4165", "vout": [{"scriptPubKey": {"reqSigs": 1, "hex": "76a9144db8b16e43867a2c915798290174eebf8751ffcd88ac", "addresses": ["185xHUMsKS6wRi5p3b8TVpHQuT2f2ZDxpW"], "asm": "OP_DUP OP_HASH160 4db8b16e43867a2c915798290174eebf8751ffcd OP_EQUALVERIFY OP_CHECKSIG", "type": "pubkeyhash"}, "value": 0.043, "n": 0}, {"scriptPubKey": {"reqSigs": 1, "hex": "76a914c10f0034056a90739a419c01c012ca703b68df3c88ac", "addresses": ["1JboPJD5mrr5NNQPtfaC2uXTNL21kxLMK4"], "asm": "OP_DUP OP_HASH160 c10f0034056a90739a419c01c012ca703b68df3c OP_EQUALVERIFY OP_CHECKSIG", "type": "pubkeyhash"}, "value": 0.00717971, "n": 1}], "hex": "01000000024ec2ef4841e6e9f2f040d742642f560999ba7075b3e06625992386aa4e1780b4010000006a473044022017462ef217a94a1d813eee06027851c6b39502ddc074c4de2a55ca4f7ac154cb022041f41e51f3aa1914e78b2f69d1c298d982e6124f3d039c317fc70dd0a664235c0121027b3582214d3524f43dcbab7ded928d329abfdbea33daa7b462deec5e5427c758fffffffff4a01f5390dfa96666325f00d1ce5aa6b689c20e157050ae9b3abde4dd3c3948170000006a473044022078cca0de3571545296291d4229a53e9c71a43a6e0d5d6d7367acd8a0942a4e100220405e88ac4f2a0e24baebeaeb9c3a8cb0449debc1e4c5c6ec5f66eefdede2f6e0012102582789b0725d3c4b7513eaaa92692ee10d9ba6e66b82b3b800512ba83043cf6affffffff02e09c4100000000001976a9144db8b16e43867a2c915798290174eebf8751ffcd88ac93f40a00000000001976a914c10f0034056a90739a419c01c012ca703b68df3c88ac00000000", "vin": [{"sequence": 4294967295, "scriptSig": {"hex": "473044022017462ef217a94a1d813eee06027851c6b39502ddc074c4de2a55ca4f7ac154cb022041f41e51f3aa1914e78b2f69d1c298d982e6124f3d039c317fc70dd0a664235c0121027b3582214d3524f43dcbab7ded928d329abfdbea33daa7b462deec5e5427c758", "asm": "3044022017462ef217a94a1d813eee06027851c6b39502ddc074c4de2a55ca4f7ac154cb022041f41e51f3aa1914e78b2f69d1c298d982e6124f3d039c317fc70dd0a664235c[ALL] 027b3582214d3524f43dcbab7ded928d329abfdbea33daa7b462deec5e5427c758"}, "vout": 1, "txid": "b480174eaa8623992566e0b37570ba9909562f6442d740f0f2e9e64148efc24e"}, {"sequence": 4294967295, "scriptSig": {"hex": "473044022078cca0de3571545296291d4229a53e9c71a43a6e0d5d6d7367acd8a0942a4e100220405e88ac4f2a0e24baebeaeb9c3a8cb0449debc1e4c5c6ec5f66eefdede2f6e0012102582789b0725d3c4b7513eaaa92692ee10d9ba6e66b82b3b800512ba83043cf6a", "asm": "3044022078cca0de3571545296291d4229a53e9c71a43a6e0d5d6d7367acd8a0942a4e100220405e88ac4f2a0e24baebeaeb9c3a8cb0449debc1e4c5c6ec5f66eefdede2f6e0[ALL] 02582789b0725d3c4b7513eaaa92692ee10d9ba6e66b82b3b800512ba83043cf6a"}, "vout": 23, "txid": "48393cdde4bd3a9bae5070150ec289b6a65aced1005f326666a9df90531fa0f4"}], "txid": "1772915213ed2ae4d5488ebfcc3b106166d9c648a558d1e05c5b475f8e0b1f3e", "blocktime": 1537872475, "version": 1, "confirmations": 11487, "time": 1537872475, "locktime": 0, "vsize": 372, "size": 372}