{"hash": "1773a26b94b2c2185ee1d25561fb6bed5e5a34d68e887e696e7ab004ec270e41", "blockhash": "000000000000000000022b45ed06c6f4ccd3cf7fb5ba4856ebd2e58215665228", "vout": [{"scriptPubKey": {"reqSigs": 1, "hex": "76a914b952e96224b6a4303c064bca91c8c6d6935525c388ac", "addresses": ["1HtuLHu2T4eAcgMDg95e9NxsP15BxMWVDD"], "asm": "OP_DUP OP_HASH160 b952e96224b6a4303c064bca91c8c6d6935525c3 OP_EQUALVERIFY OP_CHECKSIG", "type": "pubkeyhash"}, "value": 0.0004, "n": 0}, {"scriptPubKey": {"reqSigs": 1, "hex": "76a9145abb4fd04821aa1e2253ee6eab29fe2af6b7a43088ac", "addresses": ["19GkCv4RQEPn9GBu134pzHsdrforCgcVSz"], "asm": "OP_DUP OP_HASH160 5abb4fd04821aa1e2253ee6eab29fe2af6b7a430 OP_EQUALVERIFY OP_CHECKSIG", "type": "pubkeyhash"}, "value": 0.00109112, "n": 1}], "hex": "01000000013a50323784caf6bb7201d626c372a1ca3ae593942401d9a8fae3845d890d5187010000006a47304402203a8819fdd3f5b3a030aa37053ef22a218d1db458013d125acf5f02e5e343999402203e8cd991b5cfd3e4b139fdca52764685a4ac8c6f4ec83235153900a32bf273a2012102186afb1e1d15f4b98c0fbac527e496b243195280d8c60efa2d14b0c25ebba093ffffffff02409c0000000000001976a914b952e96224b6a4303c064bca91c8c6d6935525c388ac38aa0100000000001976a9145abb4fd04821aa1e2253ee6eab29fe2af6b7a43088ac00000000", "vin": [{"sequence": 4294967295, "scriptSig": {"hex": "47304402203a8819fdd3f5b3a030aa37053ef22a218d1db458013d125acf5f02e5e343999402203e8cd991b5cfd3e4b139fdca52764685a4ac8c6f4ec83235153900a32bf273a2012102186afb1e1d15f4b98c0fbac527e496b243195280d8c60efa2d14b0c25ebba093", "asm": "304402203a8819fdd3f5b3a030aa37053ef22a218d1db458013d125acf5f02e5e343999402203e8cd991b5cfd3e4b139fdca52764685a4ac8c6f4ec83235153900a32bf273a2[ALL] 02186afb1e1d15f4b98c0fbac527e496b243195280d8c60efa2d14b0c25ebba093"}, "vout": 1, "txid": "87510d895d84e3faa8d901249493e53acaa172c326d60172bbf6ca843732503a"}], "txid": "1773a26b94b2c2185ee1d25561fb6bed5e5a34d68e887e696e7ab004ec270e41", "blocktime": 1537869901, "version": 1, "confirmations": 11523, "time": 1537869901, "locktime": 0, "vsize": 225, "size": 225}