{"hash": "17809de61e7e6819a460d9eb2fe397f34d05127a94d0cb13b759e6abbb177d6e", "blockhash": "0000000000000000000e13cef7c366c0283d82e591d1acd082e914b08063cdf1", "vout": [{"scriptPubKey": {"reqSigs": 1, "hex": "76a914ab842f07314cde5d57219a35ca349c2a1846c93f88ac", "addresses": ["1Gdtu668cryGhBLyeCYcw6RUPRT3Kjx4vv"], "asm": "OP_DUP OP_HASH160 ab842f07314cde5d57219a35ca349c2a1846c93f OP_EQUALVERIFY OP_CHECKSIG", "type": "pubkeyhash"}, "value": 0.0021638, "n": 0}, {"scriptPubKey": {"reqSigs": 1, "hex": "a91471a048d06885d94a8c0fdabade959c6e8ddf359587", "addresses": ["3C3pHygMTvnt8TGKNEHhgouqHDPgkeu3X1"], "asm": "OP_HASH160 71a048d06885d94a8c0fdabade959c6e8ddf3595 OP_EQUAL", "type": "scripthash"}, "value": 0.01407, "n": 1}], "hex": "0100000001bd1230b0188709174dde1fe2e3da366e830e4dc9ed8465610555b29c058b0c320100000069463043022044ba17622f11adb811635319a72829d0e2289dde9c2ba9144bef5fc010d8db8e021f618dae30eecb68f2cba3e25c0bfe185851b925e5e80ee2ef20ac0c4afcdc29012103c16a95d1b6d18eb62d6da9213a5a25ddc374fff08bb5a5d134e44d70d330ff73ffffffff023c4d0300000000001976a914ab842f07314cde5d57219a35ca349c2a1846c93f88ac187815000000000017a91471a048d06885d94a8c0fdabade959c6e8ddf35958700000000", "vin": [{"sequence": 4294967295, "scriptSig": {"hex": "463043022044ba17622f11adb811635319a72829d0e2289dde9c2ba9144bef5fc010d8db8e021f618dae30eecb68f2cba3e25c0bfe185851b925e5e80ee2ef20ac0c4afcdc29012103c16a95d1b6d18eb62d6da9213a5a25ddc374fff08bb5a5d134e44d70d330ff73", "asm": "3043022044ba17622f11adb811635319a72829d0e2289dde9c2ba9144bef5fc010d8db8e021f618dae30eecb68f2cba3e25c0bfe185851b925e5e80ee2ef20ac0c4afcdc29[ALL] 03c16a95d1b6d18eb62d6da9213a5a25ddc374fff08bb5a5d134e44d70d330ff73"}, "vout": 1, "txid": "320c8b059cb25505616584edc94d0e836e36dae3e21fde4d17098718b03012bd"}], "txid": "17809de61e7e6819a460d9eb2fe397f34d05127a94d0cb13b759e6abbb177d6e", "blocktime": 1537871767, "version": 1, "confirmations": 11495, "time": 1537871767, "locktime": 0, "vsize": 222, "size": 222}