{"hash": "178182ff6fd3676ea9274f925887ad4948e6f72946f31cc64a7b1f0545abe4ad", "blockhash": "00000000000000000017f5eb5941039fbcee6240d03bc1f2f8e35350df66a1d8", "vout": [{"scriptPubKey": {"reqSigs": 1, "hex": "76a914851bc7b90e2c504599771508908a73cf0530ffa388ac", "addresses": ["1D8p9iNcMxvHtY5XKadeiFowgVAn1TC6e2"], "asm": "OP_DUP OP_HASH160 851bc7b90e2c504599771508908a73cf0530ffa3 OP_EQUALVERIFY OP_CHECKSIG", "type": "pubkeyhash"}, "value": 0.0182881, "n": 0}, {"scriptPubKey": {"reqSigs": 1, "hex": "76a914e8cea30989bd15530f819b766684b00dc7ba7cfa88ac", "addresses": ["1NDyJtNTjmwk5xPNhjgAMu4HDHigtobu1s"], "asm": "OP_DUP OP_HASH160 e8cea30989bd15530f819b766684b00dc7ba7cfa OP_EQUALVERIFY OP_CHECKSIG", "type": "pubkeyhash"}, "value": 11.08117209, "n": 1}], "hex": "0200000008109b6746806fad2c546dbbb8af12d03922d18c7169947d309bbc3fb362e4e453180000006a47304402203c2095b51424e47145b11f61ea71b7b2ed7c8d8c383521796f62bcf0c8bb965302203de22b44504dbd2b5bcd8f9a95f619b9345576295621770da12234326f89ef700121032d54a0504b1f8a2b7d1eecc0abbf1b36b15e9da374975586cd5ff1bf7d4207d8feffffff328bcff311540b427d4ee3c39d21edba1646962e78af63eb2f3d99a773b2e5a5570000006a473044022050c1743bd91ab7d75c0eb5ee2face4e02ff21a0da0ac20d61c59059671b278d7022074515ced54f096fc113b2474392225811c28f3a6bdc45291f8ca6da9c145fc7a0121025999bddc42882a1dcded725948c402c7ac305d335a365a14ed617ea8a92afb98feffffff70b4cfc09d251129d9e5c3a6aa9a108adb149369a4c43a3e1030634a0db8a3b11f0000006a47304402206983c0b71bfe5eedb25cc08a46205a3736e329d6bc44fe48e801c2a326c20a6b02207400ac2cf6b3ca5d28739f35a67a1881966b5884de41bc76b13d449b2b1a6efe0121036b5092d4ed8fe4c22fd7a6b751b76e523d8727418b5c69e14699c8c487c21b8dfeffffff81bf879e9160fd1cee83474af93e8719829fa7bafa8e22fa4d76267fb544bcf8010000006b483045022100aa9dc9c44fba5d5d85bced69c13c1d38757596746042d7612bae310beae83889022021551635ffacc9b87b61d20ae6ceef6ccb3b0ce8906efb50cde3d331a0542b4b012103a925a869ac5d73cdecaeeb943f6b58613bafdd60e326561f28757e9bb73162b8feffffff8b065f5a1670be7fa110893c371c8fc1cc823a51bdb97b316990ea7aca181549000000006a4730440220556e087cf22b5dcf2cc1c68e3fa8c3e59ea121557d8e29b4be85e327368e242d02207769c20d6f8b09e1c78d100e7dfeeeb6790a72c763bfbf6b0c9c01704652ea56012103b0eb160369389faad0a62c33cad59ceb962d62fa74ce5653b8574e350db2badffeffffffc396cac639beb0c6ae7d73673f2a56c46eca2817c844d7820c14b9e569326865000000006a473044022008c8b05a6d67a5dddb96c8ea52682670276d050dd78f3c5a95af3b07cf7aa2cf022066b1a1fc068b8ffd437238f4be59475786383ee3f891c3ae7affccc7029eee1501210205d4678e2323c585b5434add18be6e02020bd3ad22f318b1c24fade7779680a7feffffffcdcbd2a21fd76e3906b6fa381db78e7050daa53b5938704d2e2b3bc10087ad45000000006b483045022100d1201d9a4db366184143b0acd6b28546df9f9a3d951dca728f7d2f416c42af8a02205b2db32c10c3be22b921dae4bd95315f9f2afc3ad773cc759295ad19703b26c4012103d4776b14f6b829f68563a5f69460ffae3262cf02636abe9536f8da16ab5ab470feffffffe678a63bc7bfd9252faace55d72bbbdb96201dad33879918d09b7a4d57524f53000000006a4730440220477f3fb3c4b9fc743d08e3271a798e40eaa1c4b3b72291af24646df662c884b702207d43758044d21eaacccfc70e3e6350754796e9e5863df33a6d84da96342d917d012103677710200af9897ee6c2895d76a1c455cf560e33bc994372eaa255d3d60cb1effeffffff02cae71b00000000001976a914851bc7b90e2c504599771508908a73cf0530ffa388acd9860c42000000001976a914e8cea30989bd15530f819b766684b00dc7ba7cfa88acb7480800", "vin": [{"sequence": 4294967294, "scriptSig": {"hex": "47304402203c2095b51424e47145b11f61ea71b7b2ed7c8d8c383521796f62bcf0c8bb965302203de22b44504dbd2b5bcd8f9a95f619b9345576295621770da12234326f89ef700121032d54a0504b1f8a2b7d1eecc0abbf1b36b15e9da374975586cd5ff1bf7d4207d8", "asm": "304402203c2095b51424e47145b11f61ea71b7b2ed7c8d8c383521796f62bcf0c8bb965302203de22b44504dbd2b5bcd8f9a95f619b9345576295621770da12234326f89ef70[ALL] 032d54a0504b1f8a2b7d1eecc0abbf1b36b15e9da374975586cd5ff1bf7d4207d8"}, "vout": 24, "txid": "53e4e462b33fbc9b307d9469718cd12239d012afb8bb6d542cad6f8046679b10"}, {"sequence": 4294967294, "scriptSig": {"hex": "473044022050c1743bd91ab7d75c0eb5ee2face4e02ff21a0da0ac20d61c59059671b278d7022074515ced54f096fc113b2474392225811c28f3a6bdc45291f8ca6da9c145fc7a0121025999bddc42882a1dcded725948c402c7ac305d335a365a14ed617ea8a92afb98", "asm": "3044022050c1743bd91ab7d75c0eb5ee2face4e02ff21a0da0ac20d61c59059671b278d7022074515ced54f096fc113b2474392225811c28f3a6bdc45291f8ca6da9c145fc7a[ALL] 025999bddc42882a1dcded725948c402c7ac305d335a365a14ed617ea8a92afb98"}, "vout": 87, "txid": "a5e5b273a7993d2feb63af782e964616baed219dc3e34e7d420b5411f3cf8b32"}, {"sequence": 4294967294, "scriptSig": {"hex": "47304402206983c0b71bfe5eedb25cc08a46205a3736e329d6bc44fe48e801c2a326c20a6b02207400ac2cf6b3ca5d28739f35a67a1881966b5884de41bc76b13d449b2b1a6efe0121036b5092d4ed8fe4c22fd7a6b751b76e523d8727418b5c69e14699c8c487c21b8d", "asm": "304402206983c0b71bfe5eedb25cc08a46205a3736e329d6bc44fe48e801c2a326c20a6b02207400ac2cf6b3ca5d28739f35a67a1881966b5884de41bc76b13d449b2b1a6efe[ALL] 036b5092d4ed8fe4c22fd7a6b751b76e523d8727418b5c69e14699c8c487c21b8d"}, "vout": 31, "txid": "b1a3b80d4a6330103e3ac4a4699314db8a109aaaa6c3e5d92911259dc0cfb470"}, {"sequence": 4294967294, "scriptSig": {"hex": "483045022100aa9dc9c44fba5d5d85bced69c13c1d38757596746042d7612bae310beae83889022021551635ffacc9b87b61d20ae6ceef6ccb3b0ce8906efb50cde3d331a0542b4b012103a925a869ac5d73cdecaeeb943f6b58613bafdd60e326561f28757e9bb73162b8", "asm": "3045022100aa9dc9c44fba5d5d85bced69c13c1d38757596746042d7612bae310beae83889022021551635ffacc9b87b61d20ae6ceef6ccb3b0ce8906efb50cde3d331a0542b4b[ALL] 03a925a869ac5d73cdecaeeb943f6b58613bafdd60e326561f28757e9bb73162b8"}, "vout": 1, "txid": "f8bc44b57f26764dfa228efabaa79f8219873ef94a4783ee1cfd60919e87bf81"}, {"sequence": 4294967294, "scriptSig": {"hex": "4730440220556e087cf22b5dcf2cc1c68e3fa8c3e59ea121557d8e29b4be85e327368e242d02207769c20d6f8b09e1c78d100e7dfeeeb6790a72c763bfbf6b0c9c01704652ea56012103b0eb160369389faad0a62c33cad59ceb962d62fa74ce5653b8574e350db2badf", "asm": "30440220556e087cf22b5dcf2cc1c68e3fa8c3e59ea121557d8e29b4be85e327368e242d02207769c20d6f8b09e1c78d100e7dfeeeb6790a72c763bfbf6b0c9c01704652ea56[ALL] 03b0eb160369389faad0a62c33cad59ceb962d62fa74ce5653b8574e350db2badf"}, "vout": 0, "txid": "491518ca7aea9069317bb9bd513a82ccc18f1c373c8910a17fbe70165a5f068b"}, {"sequence": 4294967294, "scriptSig": {"hex": "473044022008c8b05a6d67a5dddb96c8ea52682670276d050dd78f3c5a95af3b07cf7aa2cf022066b1a1fc068b8ffd437238f4be59475786383ee3f891c3ae7affccc7029eee1501210205d4678e2323c585b5434add18be6e02020bd3ad22f318b1c24fade7779680a7", "asm": "3044022008c8b05a6d67a5dddb96c8ea52682670276d050dd78f3c5a95af3b07cf7aa2cf022066b1a1fc068b8ffd437238f4be59475786383ee3f891c3ae7affccc7029eee15[ALL] 0205d4678e2323c585b5434add18be6e02020bd3ad22f318b1c24fade7779680a7"}, "vout": 0, "txid": "65683269e5b9140c82d744c81728ca6ec4562a3f67737daec6b0be39c6ca96c3"}, {"sequence": 4294967294, "scriptSig": {"hex": "483045022100d1201d9a4db366184143b0acd6b28546df9f9a3d951dca728f7d2f416c42af8a02205b2db32c10c3be22b921dae4bd95315f9f2afc3ad773cc759295ad19703b26c4012103d4776b14f6b829f68563a5f69460ffae3262cf02636abe9536f8da16ab5ab470", "asm": "3045022100d1201d9a4db366184143b0acd6b28546df9f9a3d951dca728f7d2f416c42af8a02205b2db32c10c3be22b921dae4bd95315f9f2afc3ad773cc759295ad19703b26c4[ALL] 03d4776b14f6b829f68563a5f69460ffae3262cf02636abe9536f8da16ab5ab470"}, "vout": 0, "txid": "45ad8700c13b2b2e4d7038593ba5da50708eb71d38fab606396ed71fa2d2cbcd"}, {"sequence": 4294967294, "scriptSig": {"hex": "4730440220477f3fb3c4b9fc743d08e3271a798e40eaa1c4b3b72291af24646df662c884b702207d43758044d21eaacccfc70e3e6350754796e9e5863df33a6d84da96342d917d012103677710200af9897ee6c2895d76a1c455cf560e33bc994372eaa255d3d60cb1ef", "asm": "30440220477f3fb3c4b9fc743d08e3271a798e40eaa1c4b3b72291af24646df662c884b702207d43758044d21eaacccfc70e3e6350754796e9e5863df33a6d84da96342d917d[ALL] 03677710200af9897ee6c2895d76a1c455cf560e33bc994372eaa255d3d60cb1ef"}, "vout": 0, "txid": "534f52574d7a9bd018998733ad1d2096dbbb2bd755ceaa2f25d9bfc73ba678e6"}], "txid": "178182ff6fd3676ea9274f925887ad4948e6f72946f31cc64a7b1f0545abe4ad", "blocktime": 1537874412, "version": 2, "confirmations": 11466, "time": 1537874412, "locktime": 542903, "vsize": 1256, "size": 1256}