{"hash": "1784af036ffc022a3fff7e5ebc3f1b3bc5bf611556c8e4184dfc8a7ed12c4133", "blockhash": "0000000000000000000e13cef7c366c0283d82e591d1acd082e914b08063cdf1", "vout": [{"scriptPubKey": {"reqSigs": 1, "hex": "76a914243062dbd0928078b011b78724a0f06b4818fd8988ac", "addresses": ["14JMHqUG4CKnrNxT2hPv1F1vf45yc6fp42"], "asm": "OP_DUP OP_HASH160 243062dbd0928078b011b78724a0f06b4818fd89 OP_EQUALVERIFY OP_CHECKSIG", "type": "pubkeyhash"}, "value": 0.00600175, "n": 0}, {"scriptPubKey": {"type": "nulldata", "hex": "6a4c5000007798000158d0f16aa42697e1ba380a06e3ef3236678a625097bcbefa6b8351586b4ebdb19dcdfa57b04aa43cecf495a62b4d5baa0d3b0614f93116de97841d100759d4ba30d2c37bb011d97e02cf", "asm": "OP_RETURN 00007798000158d0f16aa42697e1ba380a06e3ef3236678a625097bcbefa6b8351586b4ebdb19dcdfa57b04aa43cecf495a62b4d5baa0d3b0614f93116de97841d100759d4ba30d2c37bb011d97e02cf"}, "value": 0.0, "n": 1}], "hex": "01000000014f5851bc552b6730e3cf11ef6a28df65e821fd0a751f84922638ca49bcb824e5010000006b4830450221008ce4a5c214d12c3f8612e22615bb5e4a569873862a81d957c8ebaf56081c78130220772fc8808dfab0b60b9263009102cb913a2fbc9501affc9c37d7203c96e56b350121037f7c74919567d8c483a6652ec41235e8072cc0716974a0f5c7326181d7eca4b5ffffffff026f280900000000001976a914243062dbd0928078b011b78724a0f06b4818fd8988ac0000000000000000536a4c5000007798000158d0f16aa42697e1ba380a06e3ef3236678a625097bcbefa6b8351586b4ebdb19dcdfa57b04aa43cecf495a62b4d5baa0d3b0614f93116de97841d100759d4ba30d2c37bb011d97e02cf00000000", "vin": [{"sequence": 4294967295, "scriptSig": {"hex": "4830450221008ce4a5c214d12c3f8612e22615bb5e4a569873862a81d957c8ebaf56081c78130220772fc8808dfab0b60b9263009102cb913a2fbc9501affc9c37d7203c96e56b350121037f7c74919567d8c483a6652ec41235e8072cc0716974a0f5c7326181d7eca4b5", "asm": "30450221008ce4a5c214d12c3f8612e22615bb5e4a569873862a81d957c8ebaf56081c78130220772fc8808dfab0b60b9263009102cb913a2fbc9501affc9c37d7203c96e56b35[ALL] 037f7c74919567d8c483a6652ec41235e8072cc0716974a0f5c7326181d7eca4b5"}, "vout": 1, "txid": "e524b8bc49ca382692841f750afd21e865df286aef11cfe330672b55bc51584f"}], "txid": "1784af036ffc022a3fff7e5ebc3f1b3bc5bf611556c8e4184dfc8a7ed12c4133", "blocktime": 1537871767, "version": 1, "confirmations": 11493, "time": 1537871767, "locktime": 0, "vsize": 284, "size": 284}