{"hash": "a8bbfe30c882611b13cd9006190eb0e5b9cfbf07e0cc817859ac4e569e7986d0", "blockhash": "0000000000000000000e13cef7c366c0283d82e591d1acd082e914b08063cdf1", "vout": [{"scriptPubKey": {"reqSigs": 1, "hex": "76a9142a83b83eb7b33cc2880a7219453c1e32db57211988ac", "addresses": ["14soB6x2oeVYSuLcz1c3Rn5SNmgHLDKgpo"], "asm": "OP_DUP OP_HASH160 2a83b83eb7b33cc2880a7219453c1e32db572119 OP_EQUALVERIFY OP_CHECKSIG", "type": "pubkeyhash"}, "value": 9.9e-05, "n": 0}, {"scriptPubKey": {"reqSigs": 1, "hex": "a9141ef8828e72d72a8314b0fdbc8ce10f0401d6c02387", "addresses": ["34Wmu5KFTd5pDR1V8Av7UaatVTurdjpoPU"], "asm": "OP_HASH160 1ef8828e72d72a8314b0fdbc8ce10f0401d6c023 OP_EQUAL", "type": "scripthash"}, "value": 0.00108184, "n": 1}], "hex": "010000000001011d0b558401b1866ccec291af304f1b02d45592a8b90b3a4c62652636b01bb0b00100000023220020e0b6457c89caa8596820c62381c2009d628f3a36c52eadf413267f9bc6e1a31affffffff02ac260000000000001976a9142a83b83eb7b33cc2880a7219453c1e32db57211988ac98a601000000000017a9141ef8828e72d72a8314b0fdbc8ce10f0401d6c02387040047304402203f59d7d42fc240b536e486b2972585b8d46c82d95c68110636d1ac99e3c7172f02205f14023cf0b9e0e9d5da99a0291818a0b813a424896137609fdb1766d6ee46b1014830450221009c3fbd320300422db7a27ef87791d5caa5589c7b78c3ef21b6b84da7d6d5efba0220230510828d59c5dc39a0d4b34c19190c4136f3fd2847b5ed99057058c2beff440147522102662df3c75a4f151bb0d69b086cd19ab6764e52eeb055398aa45f450439053f512103871fc2ca08e6950b38867e8e6a0e94ee625223d3aa0df5c65f414c6d784467e252ae00000000", "vin": [{"txinwitness": ["", "304402203f59d7d42fc240b536e486b2972585b8d46c82d95c68110636d1ac99e3c7172f02205f14023cf0b9e0e9d5da99a0291818a0b813a424896137609fdb1766d6ee46b101", "30450221009c3fbd320300422db7a27ef87791d5caa5589c7b78c3ef21b6b84da7d6d5efba0220230510828d59c5dc39a0d4b34c19190c4136f3fd2847b5ed99057058c2beff4401", "522102662df3c75a4f151bb0d69b086cd19ab6764e52eeb055398aa45f450439053f512103871fc2ca08e6950b38867e8e6a0e94ee625223d3aa0df5c65f414c6d784467e252ae"], "sequence": 4294967295, "scriptSig": {"hex": "220020e0b6457c89caa8596820c62381c2009d628f3a36c52eadf413267f9bc6e1a31a", "asm": "0020e0b6457c89caa8596820c62381c2009d628f3a36c52eadf413267f9bc6e1a31a"}, "vout": 1, "txid": "b0b01bb0362665624c3a0bb9a89255d4021b4f30af91c2ce6c86b10184550b1d"}], "txid": "1784827d35d5cabf8a911d49d9ce7c38e946fc5c56665c54c596deeb74fd85e0", "blocktime": 1537871767, "version": 1, "confirmations": 11495, "time": 1537871767, "locktime": 0, "vsize": 208, "size": 373}