{"hash": "1787e9d73c42ed0ec0adc16f8293ca11c98eae825d031e88a3ef8217b458ce1f", "blockhash": "0000000000000000001f76057863aec43deb6fa401d9628bb513d65a8098bfab", "vout": [{"scriptPubKey": {"type": "nulldata", "hex": "6a146f6d6e69000000000000001f0000000000002710", "asm": "OP_RETURN 6f6d6e69000000000000001f0000000000002710"}, "value": 0.0, "n": 0}, {"scriptPubKey": {"reqSigs": 1, "hex": "76a9148b80b2920c044bdfb3ef56f0ded112c06d7ec9f288ac", "addresses": ["1Did6j8R1caPnxGHhLCsFgWZ6bQdWgx9Xm"], "asm": "OP_DUP OP_HASH160 8b80b2920c044bdfb3ef56f0ded112c06d7ec9f2 OP_EQUALVERIFY OP_CHECKSIG", "type": "pubkeyhash"}, "value": 5.46e-06, "n": 1}, {"scriptPubKey": {"reqSigs": 1, "hex": "76a914bbfc4c89ac947faad1b33988a99e9c8c8265c24388ac", "addresses": ["1J8ybuvU1FcztHdcxBAccaUPJruKKfX7xb"], "asm": "OP_DUP OP_HASH160 bbfc4c89ac947faad1b33988a99e9c8c8265c243 OP_EQUALVERIFY OP_CHECKSIG", "type": "pubkeyhash"}, "value": 0.00105848, "n": 2}], "hex": "0100000001d1e8328970bfa363c46b60f63e126064c2238e417670d3c3839014ec8e2ea242020000006a473044022061691d9268c88f18947b96fdc8e87f1f054c6444d92fb7d9482bec80a36add450220118a15ea1bf68003a92e72db72c2947c811fa9b0c79a10e588be45d8bdd8d9c5012103ff140573bbd7eb60c2eba3819ea7c6b94094e9ceae01f4263b49069a2773c69efeffffff030000000000000000166a146f6d6e69000000000000001f000000000000271022020000000000001976a9148b80b2920c044bdfb3ef56f0ded112c06d7ec9f288ac789d0100000000001976a914bbfc4c89ac947faad1b33988a99e9c8c8265c24388ac14490800", "vin": [{"sequence": 4294967294, "scriptSig": {"hex": "473044022061691d9268c88f18947b96fdc8e87f1f054c6444d92fb7d9482bec80a36add450220118a15ea1bf68003a92e72db72c2947c811fa9b0c79a10e588be45d8bdd8d9c5012103ff140573bbd7eb60c2eba3819ea7c6b94094e9ceae01f4263b49069a2773c69e", "asm": "3044022061691d9268c88f18947b96fdc8e87f1f054c6444d92fb7d9482bec80a36add450220118a15ea1bf68003a92e72db72c2947c811fa9b0c79a10e588be45d8bdd8d9c5[ALL] 03ff140573bbd7eb60c2eba3819ea7c6b94094e9ceae01f4263b49069a2773c69e"}, "vout": 2, "txid": "42a22e8eec149083c3d37076418e23c26460123ef6606bc463a3bf708932e8d1"}], "txid": "1787e9d73c42ed0ec0adc16f8293ca11c98eae825d031e88a3ef8217b458ce1f", "blocktime": 1537873891, "version": 1, "confirmations": 11475, "time": 1537873891, "locktime": 542996, "vsize": 256, "size": 256}