{"hash": "178962a5f7b302ac965b18e2bb9c60072e2db1a4fa99a72c9b8d6bfe39ac5aa0", "blockhash": "0000000000000000000dcc0f55137456b1a82d3642486a52398922ac4d620174", "vout": [{"scriptPubKey": {"reqSigs": 1, "hex": "76a914789443d4ef145e841696bab6309110a40a5b99d088ac", "addresses": ["1BzZheiLBgc96KgaxMCoNDe5r7SNkErq5u"], "asm": "OP_DUP OP_HASH160 789443d4ef145e841696bab6309110a40a5b99d0 OP_EQUALVERIFY OP_CHECKSIG", "type": "pubkeyhash"}, "value": 0.0021707, "n": 0}, {"scriptPubKey": {"reqSigs": 1, "hex": "a914062b5509e2eca513bf4761665571b9bc56aa676187", "addresses": ["32FdtU52duxkwGGSRJ5NuLqYUi2qJfqot1"], "asm": "OP_HASH160 062b5509e2eca513bf4761665571b9bc56aa6761 OP_EQUAL", "type": "scripthash"}, "value": 0.12818586, "n": 1}], "hex": "01000000018a00dbc0a35e112907b1f92f3f60ca87ddcd4980c1cfa56206990dd7e8819e9d01000000d9004730440220782ef5193e64a6ff4353c8e689c98282dad2c753d42a9b80a779191bf73cbae40220575fe2ef080c122e483d58df555f1859b6abbacc766812af43856e8f6b09f3ee0147304402201adb5f01697781add9c112500cb79bbadc7e0c09d1e72bf8ebb03c64566d9f4202200569dcc1b0db94d70c01c2b630f7ba41299e0a4dbdfaeea7f10e458119835f950147522103abc8a801f5fbb4fd5f6510ba530d534b0efb584b4298cea1e6e2d45cd1000aef2102a29577404fa42d6d12e0d867249d4ee805afecc9e10879ed668da9958dc7b65052aeffffffff02ee4f0300000000001976a914789443d4ef145e841696bab6309110a40a5b99d088ac9a98c3000000000017a914062b5509e2eca513bf4761665571b9bc56aa67618700000000", "vin": [{"sequence": 4294967295, "scriptSig": {"hex": "004730440220782ef5193e64a6ff4353c8e689c98282dad2c753d42a9b80a779191bf73cbae40220575fe2ef080c122e483d58df555f1859b6abbacc766812af43856e8f6b09f3ee0147304402201adb5f01697781add9c112500cb79bbadc7e0c09d1e72bf8ebb03c64566d9f4202200569dcc1b0db94d70c01c2b630f7ba41299e0a4dbdfaeea7f10e458119835f950147522103abc8a801f5fbb4fd5f6510ba530d534b0efb584b4298cea1e6e2d45cd1000aef2102a29577404fa42d6d12e0d867249d4ee805afecc9e10879ed668da9958dc7b65052ae", "asm": "0 30440220782ef5193e64a6ff4353c8e689c98282dad2c753d42a9b80a779191bf73cbae40220575fe2ef080c122e483d58df555f1859b6abbacc766812af43856e8f6b09f3ee[ALL] 304402201adb5f01697781add9c112500cb79bbadc7e0c09d1e72bf8ebb03c64566d9f4202200569dcc1b0db94d70c01c2b630f7ba41299e0a4dbdfaeea7f10e458119835f95[ALL] 522103abc8a801f5fbb4fd5f6510ba530d534b0efb584b4298cea1e6e2d45cd1000aef2102a29577404fa42d6d12e0d867249d4ee805afecc9e10879ed668da9958dc7b65052ae"}, "vout": 1, "txid": "9d9e81e8d70d990662a5cfc18049cddd87ca603f2ff9b10729115ea3c0db008a"}], "txid": "178962a5f7b302ac965b18e2bb9c60072e2db1a4fa99a72c9b8d6bfe39ac5aa0", "blocktime": 1537870268, "version": 1, "confirmations": 11518, "time": 1537870268, "locktime": 0, "vsize": 334, "size": 334}