{"hash": "1794abd42830c53355563fe92ebe7f616efaab4af3b4208c31b85ef5907d74c9", "blockhash": "0000000000000000001cda96e906b7601b7a6fb1a3b62bca570a9e5d8f4b3de1", "vout": [{"scriptPubKey": {"reqSigs": 1, "hex": "76a91407a257449624909c4d346623891eb913d938e02a88ac", "addresses": ["1hNCzAcYcvwQY5pH6ZJHUvFiq39d6zSh8"], "asm": "OP_DUP OP_HASH160 07a257449624909c4d346623891eb913d938e02a OP_EQUALVERIFY OP_CHECKSIG", "type": "pubkeyhash"}, "value": 0.02326, "n": 0}, {"scriptPubKey": {"reqSigs": 1, "hex": "76a914e349bc52d6b8100b58d3fce45135a91c5c128a1d88ac", "addresses": ["1MiningDkXkhKaXBTMKXfLemnk1YY5rbkT"], "asm": "OP_DUP OP_HASH160 e349bc52d6b8100b58d3fce45135a91c5c128a1d OP_EQUALVERIFY OP_CHECKSIG", "type": "pubkeyhash"}, "value": 0.00936231, "n": 1}], "hex": "02000000016986905021b2ffa4e1bad2ccd0619dbdbcd7811bf90a8245ae15242b0e2bb060010000008b483045022100b9bab6b71456b8ce1e07c26711a4dbde843cc049eb44907e93cd62378645a12c022071a698161c348ab34bb7624fb7391b90459f513dd386d4d8db1adab02b89df8a014104ae414abde7876c34e01694b38b2341d10b9b4c8db18a66262bd8df26bcb57893885c9fe8b79aa25330d5f05bb5aa9ab636a908a72e27956572b44190b22809beffffffff02f07d2300000000001976a91407a257449624909c4d346623891eb913d938e02a88ac27490e00000000001976a914e349bc52d6b8100b58d3fce45135a91c5c128a1d88ac00000000", "vin": [{"sequence": 4294967295, "scriptSig": {"hex": "483045022100b9bab6b71456b8ce1e07c26711a4dbde843cc049eb44907e93cd62378645a12c022071a698161c348ab34bb7624fb7391b90459f513dd386d4d8db1adab02b89df8a014104ae414abde7876c34e01694b38b2341d10b9b4c8db18a66262bd8df26bcb57893885c9fe8b79aa25330d5f05bb5aa9ab636a908a72e27956572b44190b22809be", "asm": "3045022100b9bab6b71456b8ce1e07c26711a4dbde843cc049eb44907e93cd62378645a12c022071a698161c348ab34bb7624fb7391b90459f513dd386d4d8db1adab02b89df8a[ALL] 04ae414abde7876c34e01694b38b2341d10b9b4c8db18a66262bd8df26bcb57893885c9fe8b79aa25330d5f05bb5aa9ab636a908a72e27956572b44190b22809be"}, "vout": 1, "txid": "60b02b0e2b2415ae45820af91b81d7bcbd9d61d0ccd2bae1a4ffb22150908669"}], "txid": "1794abd42830c53355563fe92ebe7f616efaab4af3b4208c31b85ef5907d74c9", "blocktime": 1537873282, "version": 2, "confirmations": 11484, "time": 1537873282, "locktime": 0, "vsize": 258, "size": 258}