{"hash": "179ebf87346f8658ce6ce970a13b644ce5d402993d362bde66adcb693435228b", "blockhash": "0000000000000000000baef3f32e3676a92c3b2e5da21b426e4f302fc371ce76", "vout": [{"scriptPubKey": {"reqSigs": 1, "hex": "76a91475f914022aec751a3f682c7a13695bc2e94a01aa88ac", "addresses": ["1BknShV1Wo6UzUXDWzdFoLefd7FNhBKvey"], "asm": "OP_DUP OP_HASH160 75f914022aec751a3f682c7a13695bc2e94a01aa OP_EQUALVERIFY OP_CHECKSIG", "type": "pubkeyhash"}, "value": 0.0007672, "n": 0}, {"scriptPubKey": {"type": "nulldata", "hex": "6a4c500000781d0001ad42223ae4f35bb39ba81a5c019d6ddc0f1b8ff117702940d64fa54d8eb2e23c00c15bb4cc6028b3d7279f80780a5baa1cff0614a1619937fb38bc9a9526289ac0f6612cd74e33776ee4", "asm": "OP_RETURN 0000781d0001ad42223ae4f35bb39ba81a5c019d6ddc0f1b8ff117702940d64fa54d8eb2e23c00c15bb4cc6028b3d7279f80780a5baa1cff0614a1619937fb38bc9a9526289ac0f6612cd74e33776ee4"}, "value": 0.0, "n": 1}], "hex": "0100000001789c72d4e44120880393a07778014889470a6a4a44dd8d993c70e82d104de46d010000006b483045022100ef6a627eed8585a743b1817334422a7bc602f5992ffa9b6d4c1b9a8e9a217ff3022048dd750e50c22e83c9667d69194e230e229e5768c39bea89fa7bd108c14f62dd012102e945ef1669f0960d8922cfc1b109c283645fdab0fe3dc9e7091a0f58c1d9678bffffffff02b02b0100000000001976a91475f914022aec751a3f682c7a13695bc2e94a01aa88ac0000000000000000536a4c500000781d0001ad42223ae4f35bb39ba81a5c019d6ddc0f1b8ff117702940d64fa54d8eb2e23c00c15bb4cc6028b3d7279f80780a5baa1cff0614a1619937fb38bc9a9526289ac0f6612cd74e33776ee400000000", "vin": [{"sequence": 4294967295, "scriptSig": {"hex": "483045022100ef6a627eed8585a743b1817334422a7bc602f5992ffa9b6d4c1b9a8e9a217ff3022048dd750e50c22e83c9667d69194e230e229e5768c39bea89fa7bd108c14f62dd012102e945ef1669f0960d8922cfc1b109c283645fdab0fe3dc9e7091a0f58c1d9678b", "asm": "3045022100ef6a627eed8585a743b1817334422a7bc602f5992ffa9b6d4c1b9a8e9a217ff3022048dd750e50c22e83c9667d69194e230e229e5768c39bea89fa7bd108c14f62dd[ALL] 02e945ef1669f0960d8922cfc1b109c283645fdab0fe3dc9e7091a0f58c1d9678b"}, "vout": 1, "txid": "6de44d102de8703c998ddd444a6a0a478948017877a09303882041e4d4729c78"}], "txid": "179ebf87346f8658ce6ce970a13b644ce5d402993d362bde66adcb693435228b", "blocktime": 1537876114, "version": 1, "confirmations": 11461, "time": 1537876114, "locktime": 0, "vsize": 284, "size": 284}