{"hash": "179f337aa9206764682d87382ecfaea6e3b45ce8aed7d939b11b1f5dfe8698a9", "blockhash": "0000000000000000001cda96e906b7601b7a6fb1a3b62bca570a9e5d8f4b3de1", "vout": [{"scriptPubKey": {"reqSigs": 1, "hex": "76a914db5c6e83a0c6450ca95971a4da65074eb852d39188ac", "addresses": ["1LzsiH79R4V5L11vzcFoUogwMMZabMdEZA"], "asm": "OP_DUP OP_HASH160 db5c6e83a0c6450ca95971a4da65074eb852d391 OP_EQUALVERIFY OP_CHECKSIG", "type": "pubkeyhash"}, "value": 2.61e-05, "n": 0}, {"scriptPubKey": {"reqSigs": 1, "hex": "76a914bba72cd9cdc11950fcb384ca83947f053592653088ac", "addresses": ["1J7DdQhtzZE7pcxsCyasibyytduZQsT9Wc"], "asm": "OP_DUP OP_HASH160 bba72cd9cdc11950fcb384ca83947f0535926530 OP_EQUALVERIFY OP_CHECKSIG", "type": "pubkeyhash"}, "value": 0.00407299, "n": 1}], "hex": "01000000017342d4e097b8e497f22582dbf88c9defd5bba1961137c25d7a03fb30debe8e45000000006a47304402204b3ad91e75970601a28feb7b9451c148249da2486fc9eb6d3837507c99ac6c010220494ff34e57bd56aec5d438f2c8cf7f7cb98828c3a9fac1aae8e3ed2af11752c701210236ee2e5f0ebc3e6e4f10249a4993db0b8414ee11bff5a6fe33f001ece1d6a78affffffff02320a0000000000001976a914db5c6e83a0c6450ca95971a4da65074eb852d39188ac03370600000000001976a914bba72cd9cdc11950fcb384ca83947f053592653088ac00000000", "vin": [{"sequence": 4294967295, "scriptSig": {"hex": "47304402204b3ad91e75970601a28feb7b9451c148249da2486fc9eb6d3837507c99ac6c010220494ff34e57bd56aec5d438f2c8cf7f7cb98828c3a9fac1aae8e3ed2af11752c701210236ee2e5f0ebc3e6e4f10249a4993db0b8414ee11bff5a6fe33f001ece1d6a78a", "asm": "304402204b3ad91e75970601a28feb7b9451c148249da2486fc9eb6d3837507c99ac6c010220494ff34e57bd56aec5d438f2c8cf7f7cb98828c3a9fac1aae8e3ed2af11752c7[ALL] 0236ee2e5f0ebc3e6e4f10249a4993db0b8414ee11bff5a6fe33f001ece1d6a78a"}, "vout": 0, "txid": "458ebede30fb037a5dc2371196a1bbd5ef9d8cf8db8225f297e4b897e0d44273"}], "txid": "179f337aa9206764682d87382ecfaea6e3b45ce8aed7d939b11b1f5dfe8698a9", "blocktime": 1537873282, "version": 1, "confirmations": 11485, "time": 1537873282, "locktime": 0, "vsize": 225, "size": 225}