{"hash": "17a0337b0e33a8eb06e2c908f3f05bbedf5384091afa787913ffa5c817b2c12e", "blockhash": "0000000000000000001f0ddff1eddb255c1121bcd4da4f1bc9a0da00cae72433", "vout": [{"scriptPubKey": {"reqSigs": 1, "hex": "76a914cefaa20c05ad41de051c51e3ca52384291a211ba88ac", "addresses": ["1KsQSoa1rNLhBQpt3P2uf952t1816yobXc"], "asm": "OP_DUP OP_HASH160 cefaa20c05ad41de051c51e3ca52384291a211ba OP_EQUALVERIFY OP_CHECKSIG", "type": "pubkeyhash"}, "value": 0.001, "n": 0}, {"scriptPubKey": {"reqSigs": 1, "hex": "76a9140b27bd4c6c0184675c006738e75ee936f980c75988ac", "addresses": ["121z3FoyVAzTVHoMqPjHjiZtqMZ1X8nJ3c"], "asm": "OP_DUP OP_HASH160 0b27bd4c6c0184675c006738e75ee936f980c759 OP_EQUALVERIFY OP_CHECKSIG", "type": "pubkeyhash"}, "value": 0.00288731, "n": 1}], "hex": "0100000001ea0608a7893da3082d9276fdab89a02b32fd83dc0743aec9e8607db770dbc125010000006a473044022054fbfda581a4a792c7d7eafff689abd893e986e211ee18406fa0148bf1e72b4702207e708795ca148a0f00f259a3c5253f1782f71440767b9ce60cc74cb568e9f52e0121029ccf3094217c4dabf4d9196c2a156e6c81266ad06e19bd437040c4ab24929e15fdffffff02a0860100000000001976a914cefaa20c05ad41de051c51e3ca52384291a211ba88acdb670400000000001976a9140b27bd4c6c0184675c006738e75ee936f980c75988ac0f490800", "vin": [{"sequence": 4294967293, "scriptSig": {"hex": "473044022054fbfda581a4a792c7d7eafff689abd893e986e211ee18406fa0148bf1e72b4702207e708795ca148a0f00f259a3c5253f1782f71440767b9ce60cc74cb568e9f52e0121029ccf3094217c4dabf4d9196c2a156e6c81266ad06e19bd437040c4ab24929e15", "asm": "3044022054fbfda581a4a792c7d7eafff689abd893e986e211ee18406fa0148bf1e72b4702207e708795ca148a0f00f259a3c5253f1782f71440767b9ce60cc74cb568e9f52e[ALL] 029ccf3094217c4dabf4d9196c2a156e6c81266ad06e19bd437040c4ab24929e15"}, "vout": 1, "txid": "25c1db70b77d60e8c9ae4307dc83fd322ba089abfd76922d08a33d89a70806ea"}], "txid": "17a0337b0e33a8eb06e2c908f3f05bbedf5384091afa787913ffa5c817b2c12e", "blocktime": 1537872018, "version": 1, "confirmations": 11489, "time": 1537872018, "locktime": 542991, "vsize": 225, "size": 225}