{"hash": "17a116aeeadfb9205ad469b07d651e8eb964ae4dda73f7b223362bd85d681758", "blockhash": "00000000000000000024a2167bbff67b0be802c0b01cdd79e6331c2be6459f87", "vout": [{"scriptPubKey": {"type": "nulldata", "hex": "6a4c500000777c0001b5e35f1de28bd9246c8a4ea5bcbefa6b8351586b4e86aeaeacb577c031fc188e23a49bea01f4b5f926be4d26c66a5baa0a0d0614ac97a78d2db7bc9a9526289ac0f6612cd74e33776ee4", "asm": "OP_RETURN 0000777c0001b5e35f1de28bd9246c8a4ea5bcbefa6b8351586b4e86aeaeacb577c031fc188e23a49bea01f4b5f926be4d26c66a5baa0a0d0614ac97a78d2db7bc9a9526289ac0f6612cd74e33776ee4"}, "value": 0.0, "n": 0}, {"scriptPubKey": {"reqSigs": 1, "hex": "76a91479a18754001e874f469d56ffbcd16bada9a4b05788ac", "addresses": ["1C68GRCFHE1iQMBxF4MCJVa2SQmWdA7Dkf"], "asm": "OP_DUP OP_HASH160 79a18754001e874f469d56ffbcd16bada9a4b057 OP_EQUALVERIFY OP_CHECKSIG", "type": "pubkeyhash"}, "value": 0.00129564, "n": 1}], "hex": "01000000013f8eb22e0cf5a444b7ee008df6f6d9dcd9c2f3e6261ff04cdd773133d687998a010000006a47304402203eff062be021bfbf1763707b6f63ba2761db52e929653e77b40159477f9fabc502203330ad5c8a187a3d958470c129400b5aea46a7cf10668760a5b4041e5bcc015701210242f2dcfcbf1bd3a23a94a6b6972841059f55f051ec0eb4e7c8f9f0e2ed2c47ceffffffff020000000000000000536a4c500000777c0001b5e35f1de28bd9246c8a4ea5bcbefa6b8351586b4e86aeaeacb577c031fc188e23a49bea01f4b5f926be4d26c66a5baa0a0d0614ac97a78d2db7bc9a9526289ac0f6612cd74e33776ee41cfa0100000000001976a91479a18754001e874f469d56ffbcd16bada9a4b05788ac00000000", "vin": [{"sequence": 4294967295, "scriptSig": {"hex": "47304402203eff062be021bfbf1763707b6f63ba2761db52e929653e77b40159477f9fabc502203330ad5c8a187a3d958470c129400b5aea46a7cf10668760a5b4041e5bcc015701210242f2dcfcbf1bd3a23a94a6b6972841059f55f051ec0eb4e7c8f9f0e2ed2c47ce", "asm": "304402203eff062be021bfbf1763707b6f63ba2761db52e929653e77b40159477f9fabc502203330ad5c8a187a3d958470c129400b5aea46a7cf10668760a5b4041e5bcc0157[ALL] 0242f2dcfcbf1bd3a23a94a6b6972841059f55f051ec0eb4e7c8f9f0e2ed2c47ce"}, "vout": 1, "txid": "8a9987d6333177dd4cf01f26e6f3c2d9dcd9f6f68d00eeb744a4f50c2eb28e3f"}], "txid": "17a116aeeadfb9205ad469b07d651e8eb964ae4dda73f7b223362bd85d681758", "blocktime": 1537870564, "version": 1, "confirmations": 11515, "time": 1537870564, "locktime": 0, "vsize": 283, "size": 283}