{"hash": "17a653439e68c5cd5e663631191ad003799d2e4b68ceea4b85b2077ce69b507a", "blockhash": "00000000000000000017f5eb5941039fbcee6240d03bc1f2f8e35350df66a1d8", "vout": [{"scriptPubKey": {"reqSigs": 1, "hex": "76a914cfd547d1bb7bfe3c54dd6f01f96880d2230c68d088ac", "addresses": ["1KwvNhenthsjrERKrNmNPWLQ5KapD1zgGX"], "asm": "OP_DUP OP_HASH160 cfd547d1bb7bfe3c54dd6f01f96880d2230c68d0 OP_EQUALVERIFY OP_CHECKSIG", "type": "pubkeyhash"}, "value": 0.045, "n": 0}, {"scriptPubKey": {"reqSigs": 1, "hex": "76a91411d1cccd98b56602f8727f92b9015be4f629a68b88ac", "addresses": ["12dDpRSyuNd39nfabJQm9mci3JC3nokR4L"], "asm": "OP_DUP OP_HASH160 11d1cccd98b56602f8727f92b9015be4f629a68b OP_EQUALVERIFY OP_CHECKSIG", "type": "pubkeyhash"}, "value": 0.04498992, "n": 1}], "hex": "01000000010b7a24a9f58276fa2cece97cf4b9df3e63008ed2070d1e920f9448b62e08ada5000000006a473044022063c28deee027251b45d9c67d9d7a75cd8e05bb3ce58341aea94f969f24c9856702201f117c4ae5d7d037fc7d9e5ecca5efa74adde28a2bf7d347ed27a318e71ff64201210387e1fc20cb56cd090b0de756b44230d3d966afc0568d8f254d962506e24ccf46ffffffff0220aa4400000000001976a914cfd547d1bb7bfe3c54dd6f01f96880d2230c68d088ac30a64400000000001976a91411d1cccd98b56602f8727f92b9015be4f629a68b88ac00000000", "vin": [{"sequence": 4294967295, "scriptSig": {"hex": "473044022063c28deee027251b45d9c67d9d7a75cd8e05bb3ce58341aea94f969f24c9856702201f117c4ae5d7d037fc7d9e5ecca5efa74adde28a2bf7d347ed27a318e71ff64201210387e1fc20cb56cd090b0de756b44230d3d966afc0568d8f254d962506e24ccf46", "asm": "3044022063c28deee027251b45d9c67d9d7a75cd8e05bb3ce58341aea94f969f24c9856702201f117c4ae5d7d037fc7d9e5ecca5efa74adde28a2bf7d347ed27a318e71ff642[ALL] 0387e1fc20cb56cd090b0de756b44230d3d966afc0568d8f254d962506e24ccf46"}, "vout": 0, "txid": "a5ad082eb648940f921e0d07d28e00633edfb9f47ce9ec2cfa7682f5a9247a0b"}], "txid": "17a653439e68c5cd5e663631191ad003799d2e4b68ceea4b85b2077ce69b507a", "blocktime": 1537874412, "version": 1, "confirmations": 11467, "time": 1537874412, "locktime": 0, "vsize": 225, "size": 225}