{"hash": "b221142209d1d3adc2f1f516826c7654680b8577f57b301f30982298ed072eb2", "blockhash": "0000000000000000001f76057863aec43deb6fa401d9628bb513d65a8098bfab", "vout": [{"scriptPubKey": {"reqSigs": 1, "hex": "76a9140b6ed865664850ba3ab035b9f1b3b3875e6d2e5888ac", "addresses": ["123TDn2q5KP7aKqxWCMGBh6HqQWbgahYtt"], "asm": "OP_DUP OP_HASH160 0b6ed865664850ba3ab035b9f1b3b3875e6d2e58 OP_EQUALVERIFY OP_CHECKSIG", "type": "pubkeyhash"}, "value": 0.00590929, "n": 0}, {"scriptPubKey": {"reqSigs": 1, "hex": "0014fa0e1e82947218883aaf0e1451dd76b80ae4c16f", "addresses": ["bc1qlg8paq55wgvgsw40pc29rhtkhq9wfst09ahhpt"], "asm": "0 fa0e1e82947218883aaf0e1451dd76b80ae4c16f", "type": "witness_v0_keyhash"}, "value": 0.00011126, "n": 1}], "hex": "01000000000101f2d401dae13a9a891586a7831b6598541002b9c69b043a59c085c88ffbf5df990100000000ffffffff0251040900000000001976a9140b6ed865664850ba3ab035b9f1b3b3875e6d2e5888ac762b000000000000160014fa0e1e82947218883aaf0e1451dd76b80ae4c16f0247304402202b354a7386c33369155eb0b9ccb989f0040d278c9a3c808f8810c863a655bbb702205f2fe8db303af3304e67a7a5c7f4b022f2a5997a5c314750e2f74d917650af07012103083ffb3a722d96523e996771fce81ca2844bcfefdcafde983a5273a138bab10600000000", "vin": [{"txinwitness": ["304402202b354a7386c33369155eb0b9ccb989f0040d278c9a3c808f8810c863a655bbb702205f2fe8db303af3304e67a7a5c7f4b022f2a5997a5c314750e2f74d917650af0701", "03083ffb3a722d96523e996771fce81ca2844bcfefdcafde983a5273a138bab106"], "sequence": 4294967295, "scriptSig": {"hex": "", "asm": ""}, "vout": 1, "txid": "99dff5fb8fc885c0593a049bc6b902105498651b83a78615899a3ae1da01d4f2"}], "txid": "17aa37e6c9b8990f766ca397de7079362546b3fc40dd8a1a5a415f4b0f4e5f94", "blocktime": 1537873891, "version": 1, "confirmations": 11478, "time": 1537873891, "locktime": 0, "vsize": 144, "size": 225}