{"hash": "17acc75fdce10976925b73c70411b1bafe8197dcc78e45ea8c5a391d3fa5af60", "blockhash": "0000000000000000001cda96e906b7601b7a6fb1a3b62bca570a9e5d8f4b3de1", "vout": [{"scriptPubKey": {"reqSigs": 1, "hex": "76a914e2a31f080598c520929c1920cf04443c611b222b88ac", "addresses": ["1MfM8DSUW9C4RQPWB61ioxBPdKsBtF2HEf"], "asm": "OP_DUP OP_HASH160 e2a31f080598c520929c1920cf04443c611b222b OP_EQUALVERIFY OP_CHECKSIG", "type": "pubkeyhash"}, "value": 0.0147606, "n": 0}, {"scriptPubKey": {"type": "nulldata", "hex": "6a4c50000077c2000127bf8044c92b98c2e7e936e2e5bf9ae76da98a211aaf6c953dd567cf27e798c5eb9fa6bbd974d69c74e697ce49a45baa12ca061327b08babefeabc9a9526289ac0f6612cd74e33776ee4", "asm": "OP_RETURN 000077c2000127bf8044c92b98c2e7e936e2e5bf9ae76da98a211aaf6c953dd567cf27e798c5eb9fa6bbd974d69c74e697ce49a45baa12ca061327b08babefeabc9a9526289ac0f6612cd74e33776ee4"}, "value": 0.0, "n": 1}], "hex": "0100000001f9bcb095c7075d4eba2b2cc7fe9f1a3c765619f6e140e8317ede874a354068e1000000006a47304402201ed1546f274028d88133a2e604cd80929f8177dd61618be16aa4d913e4dd91cd02205154b66120324255cfced835316acdad96c2ddfe4ced87235b290498ed15de9e01210392ca1ffd8806a8aae55f975bfd1b338b51f93faa67d4ce3b60da23ff71e82919ffffffff02dc851600000000001976a914e2a31f080598c520929c1920cf04443c611b222b88ac0000000000000000536a4c50000077c2000127bf8044c92b98c2e7e936e2e5bf9ae76da98a211aaf6c953dd567cf27e798c5eb9fa6bbd974d69c74e697ce49a45baa12ca061327b08babefeabc9a9526289ac0f6612cd74e33776ee400000000", "vin": [{"sequence": 4294967295, "scriptSig": {"hex": "47304402201ed1546f274028d88133a2e604cd80929f8177dd61618be16aa4d913e4dd91cd02205154b66120324255cfced835316acdad96c2ddfe4ced87235b290498ed15de9e01210392ca1ffd8806a8aae55f975bfd1b338b51f93faa67d4ce3b60da23ff71e82919", "asm": "304402201ed1546f274028d88133a2e604cd80929f8177dd61618be16aa4d913e4dd91cd02205154b66120324255cfced835316acdad96c2ddfe4ced87235b290498ed15de9e[ALL] 0392ca1ffd8806a8aae55f975bfd1b338b51f93faa67d4ce3b60da23ff71e82919"}, "vout": 0, "txid": "e16840354a87de7e31e840e1f61956763c1a9ffec72c2bba4e5d07c795b0bcf9"}], "txid": "17acc75fdce10976925b73c70411b1bafe8197dcc78e45ea8c5a391d3fa5af60", "blocktime": 1537873282, "version": 1, "confirmations": 11484, "time": 1537873282, "locktime": 0, "vsize": 283, "size": 283}