{"hash": "17ad361cd7dd62663adb3522f6e09d48ebcf3d59844d1063bf5a55ac929ba6b9", "blockhash": "0000000000000000001f0ddff1eddb255c1121bcd4da4f1bc9a0da00cae72433", "vout": [{"scriptPubKey": {"reqSigs": 1, "hex": "76a9148330db3826b981eb48637544b4542adbc9a49ef688ac", "addresses": ["1Cxg3j9wXJa1sw2HFiPewimXNKUerKizoJ"], "asm": "OP_DUP OP_HASH160 8330db3826b981eb48637544b4542adbc9a49ef6 OP_EQUALVERIFY OP_CHECKSIG", "type": "pubkeyhash"}, "value": 0.15506005, "n": 0}], "hex": "0100000002ac651770fdece68b26a0a289fd288148a72bf54cdf072bf5df6b9e2dae7f9040000000006a47304402204a29a9c2877e1eab0140cbe3d4854b11e1ade20a26f5233497240997446c6a0b022053659585f8ec2a258241c19e3e0be122b5e2a13d2c806292184b2d52441f965d012102189ae4e9608ab12f3ba9fc9e997bb1c3dd5f251dad8d15888f694ccab779792cffffffff043a04384fd50813378e791292a8044230e462e8ca1e106c3ad705202c835280000000006b48304502210094a5f6f1adb80c2f4781de3c7a941bd95b86458e845eadaedc048e22316df65002201441b1d2e9f82785a362d218962466a301b1e988efaade76d8e9d7a2031df8a1012103a0b35533c6e5145165ba3a51ed9041fcec4a0c941c0b4b33b9333f2c36debb65ffffffff01559aec00000000001976a9148330db3826b981eb48637544b4542adbc9a49ef688ac00000000", "vin": [{"sequence": 4294967295, "scriptSig": {"hex": "47304402204a29a9c2877e1eab0140cbe3d4854b11e1ade20a26f5233497240997446c6a0b022053659585f8ec2a258241c19e3e0be122b5e2a13d2c806292184b2d52441f965d012102189ae4e9608ab12f3ba9fc9e997bb1c3dd5f251dad8d15888f694ccab779792c", "asm": "304402204a29a9c2877e1eab0140cbe3d4854b11e1ade20a26f5233497240997446c6a0b022053659585f8ec2a258241c19e3e0be122b5e2a13d2c806292184b2d52441f965d[ALL] 02189ae4e9608ab12f3ba9fc9e997bb1c3dd5f251dad8d15888f694ccab779792c"}, "vout": 0, "txid": "40907fae2d9e6bdff52b07df4cf52ba7488128fd89a2a0268be6ecfd701765ac"}, {"sequence": 4294967295, "scriptSig": {"hex": "48304502210094a5f6f1adb80c2f4781de3c7a941bd95b86458e845eadaedc048e22316df65002201441b1d2e9f82785a362d218962466a301b1e988efaade76d8e9d7a2031df8a1012103a0b35533c6e5145165ba3a51ed9041fcec4a0c941c0b4b33b9333f2c36debb65", "asm": "304502210094a5f6f1adb80c2f4781de3c7a941bd95b86458e845eadaedc048e22316df65002201441b1d2e9f82785a362d218962466a301b1e988efaade76d8e9d7a2031df8a1[ALL] 03a0b35533c6e5145165ba3a51ed9041fcec4a0c941c0b4b33b9333f2c36debb65"}, "vout": 0, "txid": "8052832c2005d73a6c101ecae862e4304204a89212798e371308d54f38043a04"}], "txid": "17ad361cd7dd62663adb3522f6e09d48ebcf3d59844d1063bf5a55ac929ba6b9", "blocktime": 1537872018, "version": 1, "confirmations": 11489, "time": 1537872018, "locktime": 0, "vsize": 339, "size": 339}