{"hash": "17b034f866251b881ea3c72594be6dc1723ff730598ae535ba892a93f03c546e", "blockhash": "00000000000000000004ffacab907a6b429b9a5745fa0b75af4234bf69dd7176", "vout": [{"scriptPubKey": {"reqSigs": 1, "hex": "76a914f2f56987c501c2d926f3341be31929b39d36f2e488ac", "addresses": ["1P9eWxtBnPAxbfGd53pjpyx7nrCvTNntDA"], "asm": "OP_DUP OP_HASH160 f2f56987c501c2d926f3341be31929b39d36f2e4 OP_EQUALVERIFY OP_CHECKSIG", "type": "pubkeyhash"}, "value": 0.00116497, "n": 0}, {"scriptPubKey": {"reqSigs": 1, "hex": "76a914e163d073e054266d0f5e025eebd6100b0c946b5b88ac", "addresses": ["1MYkcNyCtPmxivKoMy5v5VBkv6LuBrgrAy"], "asm": "OP_DUP OP_HASH160 e163d073e054266d0f5e025eebd6100b0c946b5b OP_EQUALVERIFY OP_CHECKSIG", "type": "pubkeyhash"}, "value": 0.07823823, "n": 1}], "hex": "0100000001d520e058ffad7ff5c5f2ab6aba84c20c5e9b9a66792e962096d6932b3f4f18a8010000006a47304402205b6957dadc0fd301120035b2a65aabcca399fd824c37a08832dc1fcc43d58f0c02205fa3d40895c6dc23c1ea537a0996b2d512857504280c007bc988f2662b23fba00121033387315522fd785dc6a3184e4f2acbd937f90409a105c06583c94e6554220085ffffffff0211c70100000000001976a914f2f56987c501c2d926f3341be31929b39d36f2e488accf617700000000001976a914e163d073e054266d0f5e025eebd6100b0c946b5b88ac00000000", "vin": [{"sequence": 4294967295, "scriptSig": {"hex": "47304402205b6957dadc0fd301120035b2a65aabcca399fd824c37a08832dc1fcc43d58f0c02205fa3d40895c6dc23c1ea537a0996b2d512857504280c007bc988f2662b23fba00121033387315522fd785dc6a3184e4f2acbd937f90409a105c06583c94e6554220085", "asm": "304402205b6957dadc0fd301120035b2a65aabcca399fd824c37a08832dc1fcc43d58f0c02205fa3d40895c6dc23c1ea537a0996b2d512857504280c007bc988f2662b23fba0[ALL] 033387315522fd785dc6a3184e4f2acbd937f90409a105c06583c94e6554220085"}, "vout": 1, "txid": "a8184f3f2b93d69620962e79669a9b5e0cc284ba6aabf2c5f57fadff58e020d5"}], "txid": "17b034f866251b881ea3c72594be6dc1723ff730598ae535ba892a93f03c546e", "blocktime": 1537875543, "version": 1, "confirmations": 11464, "time": 1537875543, "locktime": 0, "vsize": 225, "size": 225}