{"hash": "17b0e77d46e40935eda5430f06e273233ad72d11c8216c63613eb3e07b4ca875", "blockhash": "0000000000000000001cda96e906b7601b7a6fb1a3b62bca570a9e5d8f4b3de1", "vout": [{"scriptPubKey": {"reqSigs": 1, "hex": "a914ff88dfb1919208a6fa9c4f219056543b1722cb7487", "addresses": ["3QzACcrrK4rwWCvpqfHWk9wD42rkvVP6pU"], "asm": "OP_HASH160 ff88dfb1919208a6fa9c4f219056543b1722cb74 OP_EQUAL", "type": "scripthash"}, "value": 0.07617856, "n": 0}, {"scriptPubKey": {"reqSigs": 1, "hex": "76a91406ffd3529aed55232fe4dd58eb75173546a2e78a88ac", "addresses": ["1e1XDadvLVx6RqZFAnGGi5FdpJJedibQ3"], "asm": "OP_DUP OP_HASH160 06ffd3529aed55232fe4dd58eb75173546a2e78a OP_EQUALVERIFY OP_CHECKSIG", "type": "pubkeyhash"}, "value": 0.03784514, "n": 1}, {"scriptPubKey": {"reqSigs": 1, "hex": "76a914194636552c46b434fb7c8d691cf7619dc8611c2988ac", "addresses": ["13Je1ECP9bmmwXGs4fnoLBTV4taayQe225"], "asm": "OP_DUP OP_HASH160 194636552c46b434fb7c8d691cf7619dc8611c29 OP_EQUALVERIFY OP_CHECKSIG", "type": "pubkeyhash"}, "value": 0.23003599, "n": 2}], "hex": "0200000001eeef9a888c419ca38fe6f55352a5922441e245acdc8c8a8b35a887bbd047057e010000006b4830450221009b4e5f098b3d95f1b7f49547747a941021d6f5ae484d1e3c292bac58764e6a630220402d270ef0fe54dd2cc3ce1e6581eceddf1951abf89d95cf9d2e756b5a6332a001210227931848148f75c2338968c231c9108019afb144097672dd39d23b038884bf42ffffffff03403d74000000000017a914ff88dfb1919208a6fa9c4f219056543b1722cb748742bf3900000000001976a91406ffd3529aed55232fe4dd58eb75173546a2e78a88accf015f01000000001976a914194636552c46b434fb7c8d691cf7619dc8611c2988ac00000000", "vin": [{"sequence": 4294967295, "scriptSig": {"hex": "4830450221009b4e5f098b3d95f1b7f49547747a941021d6f5ae484d1e3c292bac58764e6a630220402d270ef0fe54dd2cc3ce1e6581eceddf1951abf89d95cf9d2e756b5a6332a001210227931848148f75c2338968c231c9108019afb144097672dd39d23b038884bf42", "asm": "30450221009b4e5f098b3d95f1b7f49547747a941021d6f5ae484d1e3c292bac58764e6a630220402d270ef0fe54dd2cc3ce1e6581eceddf1951abf89d95cf9d2e756b5a6332a0[ALL] 0227931848148f75c2338968c231c9108019afb144097672dd39d23b038884bf42"}, "vout": 1, "txid": "7e0547d0bb87a8358b8a8cdcac45e2412492a55253f5e68fa39c418c889aefee"}], "txid": "17b0e77d46e40935eda5430f06e273233ad72d11c8216c63613eb3e07b4ca875", "blocktime": 1537873282, "version": 2, "confirmations": 11481, "time": 1537873282, "locktime": 0, "vsize": 258, "size": 258}