{"hash": "17b0735b8a53ec3456de8df0c801c3d7e448af3653fab2db774accf67caf99c7", "blockhash": "0000000000000000001f76057863aec43deb6fa401d9628bb513d65a8098bfab", "vout": [{"scriptPubKey": {"reqSigs": 1, "hex": "a914d523b56064cd4e2edbeb70187f196f9750468c1e87", "addresses": ["3M7zdUSJWxUXzpVbHcB2DxD3xmPG2H2mnh"], "asm": "OP_HASH160 d523b56064cd4e2edbeb70187f196f9750468c1e OP_EQUAL", "type": "scripthash"}, "value": 0.01461672, "n": 0}, {"scriptPubKey": {"reqSigs": 1, "hex": "a91463c503d9e905b7caba00a65ea7849c4146e6752487", "addresses": ["3AnYqP1DGf9mon1G1UTzMzRf58Bp5zZXeZ"], "asm": "OP_HASH160 63c503d9e905b7caba00a65ea7849c4146e67524 OP_EQUAL", "type": "scripthash"}, "value": 0.0099613, "n": 1}, {"scriptPubKey": {"reqSigs": 1, "hex": "76a914ded01bd1e71e8ffed7ef9ff04edaf21e9c2e9ae988ac", "addresses": ["1MK8KEMuKfavZVQbmefPRVwAqghPCjiVDz"], "asm": "OP_DUP OP_HASH160 ded01bd1e71e8ffed7ef9ff04edaf21e9c2e9ae9 OP_EQUALVERIFY OP_CHECKSIG", "type": "pubkeyhash"}, "value": 0.00013862, "n": 2}], "hex": "0100000001553b3588cf3fd9b406fdc932052329f81a7656444077fe926af3a05846fa1a6000000000da00483045022100d810ad414810af4b83579c5da06e5637e7b2f57618c28bdb95b46e7ad7a1157d02206ed42e62007b1cb5b76260620a2d730de0e32706e8313504ca0f63eee45b7ee40147304402207d2dc2320779f854ef8d2422e8d2fd8c5d3e18765613405c9b53052d9ac951d002202b7e40f93462ff62a41ad054f808aad94a9b1693e3bf54e20786bf3bff0b161401475221026a484a015028db553e655f3c36e160010fe5df73d64ad38e669cd5fc845ec4e02102907a54bed8ad74b3f35638c60114ca240a308cb986f3f2f306178869a8880b6152aeffffffff03a84d16000000000017a914d523b56064cd4e2edbeb70187f196f9750468c1e8722330f000000000017a91463c503d9e905b7caba00a65ea7849c4146e675248726360000000000001976a914ded01bd1e71e8ffed7ef9ff04edaf21e9c2e9ae988ac00000000", "vin": [{"sequence": 4294967295, "scriptSig": {"hex": "00483045022100d810ad414810af4b83579c5da06e5637e7b2f57618c28bdb95b46e7ad7a1157d02206ed42e62007b1cb5b76260620a2d730de0e32706e8313504ca0f63eee45b7ee40147304402207d2dc2320779f854ef8d2422e8d2fd8c5d3e18765613405c9b53052d9ac951d002202b7e40f93462ff62a41ad054f808aad94a9b1693e3bf54e20786bf3bff0b161401475221026a484a015028db553e655f3c36e160010fe5df73d64ad38e669cd5fc845ec4e02102907a54bed8ad74b3f35638c60114ca240a308cb986f3f2f306178869a8880b6152ae", "asm": "0 3045022100d810ad414810af4b83579c5da06e5637e7b2f57618c28bdb95b46e7ad7a1157d02206ed42e62007b1cb5b76260620a2d730de0e32706e8313504ca0f63eee45b7ee4[ALL] 304402207d2dc2320779f854ef8d2422e8d2fd8c5d3e18765613405c9b53052d9ac951d002202b7e40f93462ff62a41ad054f808aad94a9b1693e3bf54e20786bf3bff0b1614[ALL] 5221026a484a015028db553e655f3c36e160010fe5df73d64ad38e669cd5fc845ec4e02102907a54bed8ad74b3f35638c60114ca240a308cb986f3f2f306178869a8880b6152ae"}, "vout": 0, "txid": "601afa4658a0f36a92fe77404456761af829230532c9fd06b4d93fcf88353b55"}], "txid": "17b0735b8a53ec3456de8df0c801c3d7e448af3653fab2db774accf67caf99c7", "blocktime": 1537873891, "version": 1, "confirmations": 11478, "time": 1537873891, "locktime": 0, "vsize": 367, "size": 367}