{"hash": "17b2c0ed71123e027cf3c2002c838038709d98a2084365314f45184b00f60756", "blockhash": "0000000000000000000baef3f32e3676a92c3b2e5da21b426e4f302fc371ce76", "vout": [{"scriptPubKey": {"reqSigs": 1, "hex": "76a91475fdddd187335c6e7e785ddab1a0e18d6688bdaf88ac", "addresses": ["1BktBPzBmERAZJqjSf8TvJdSjRB1UaDAzD"], "asm": "OP_DUP OP_HASH160 75fdddd187335c6e7e785ddab1a0e18d6688bdaf OP_EQUALVERIFY OP_CHECKSIG", "type": "pubkeyhash"}, "value": 0.00058, "n": 0}, {"scriptPubKey": {"reqSigs": 1, "hex": "76a914e349bc52d6b8100b58d3fce45135a91c5c128a1d88ac", "addresses": ["1MiningDkXkhKaXBTMKXfLemnk1YY5rbkT"], "asm": "OP_DUP OP_HASH160 e349bc52d6b8100b58d3fce45135a91c5c128a1d OP_EQUALVERIFY OP_CHECKSIG", "type": "pubkeyhash"}, "value": 0.03431357, "n": 1}], "hex": "02000000016360851f10ac0b709962d6cb740c27c3c24eea678744da2a948e6e2142561f44010000008b483045022100c458d64e1371bcb813d59c1df0d8b996419cfd441ae3ec69d5c49ed0ce864beb022012ac8606c11e52eb0f63372ee774f5c0f8009f867c394c5ed57ab43d4c7274c2014104ae414abde7876c34e01694b38b2341d10b9b4c8db18a66262bd8df26bcb57893885c9fe8b79aa25330d5f05bb5aa9ab636a908a72e27956572b44190b22809beffffffff0290e20000000000001976a91475fdddd187335c6e7e785ddab1a0e18d6688bdaf88acbd5b3400000000001976a914e349bc52d6b8100b58d3fce45135a91c5c128a1d88ac00000000", "vin": [{"sequence": 4294967295, "scriptSig": {"hex": "483045022100c458d64e1371bcb813d59c1df0d8b996419cfd441ae3ec69d5c49ed0ce864beb022012ac8606c11e52eb0f63372ee774f5c0f8009f867c394c5ed57ab43d4c7274c2014104ae414abde7876c34e01694b38b2341d10b9b4c8db18a66262bd8df26bcb57893885c9fe8b79aa25330d5f05bb5aa9ab636a908a72e27956572b44190b22809be", "asm": "3045022100c458d64e1371bcb813d59c1df0d8b996419cfd441ae3ec69d5c49ed0ce864beb022012ac8606c11e52eb0f63372ee774f5c0f8009f867c394c5ed57ab43d4c7274c2[ALL] 04ae414abde7876c34e01694b38b2341d10b9b4c8db18a66262bd8df26bcb57893885c9fe8b79aa25330d5f05bb5aa9ab636a908a72e27956572b44190b22809be"}, "vout": 1, "txid": "441f5642216e8e942ada448767ea4ec2c3270c74cbd66299700bac101f856063"}], "txid": "17b2c0ed71123e027cf3c2002c838038709d98a2084365314f45184b00f60756", "blocktime": 1537876114, "version": 2, "confirmations": 11460, "time": 1537876114, "locktime": 0, "vsize": 258, "size": 258}