{"hash": "17b6963c6d630ceb3ad9bebb9f4aea69dbf148bb53fba8906e8a1a0bd0d7e102", "blockhash": "0000000000000000001e0dab787dd257d1dbfcb92a98c2207d5e1078be1f4165", "vout": [{"scriptPubKey": {"type": "nulldata", "hex": "6a146f6d6e69000000000000001f0000002bf20d2730", "asm": "OP_RETURN 6f6d6e69000000000000001f0000002bf20d2730"}, "value": 0.0, "n": 0}, {"scriptPubKey": {"reqSigs": 1, "hex": "76a914a25dec4d0011064ef106a983c39c7a540699f22088ac", "addresses": ["1FoWyxwPXuj4C6abqwhjDWdz6D4PZgYRjA"], "asm": "OP_DUP OP_HASH160 a25dec4d0011064ef106a983c39c7a540699f220 OP_EQUALVERIFY OP_CHECKSIG", "type": "pubkeyhash"}, "value": 5.46e-06, "n": 1}, {"scriptPubKey": {"reqSigs": 1, "hex": "76a91438d80f8a8eae70ebd33a3d271433ff01277c013188ac", "addresses": ["16BZfuQxdVBUbfJesFGyEHghjTpgNPZ6eV"], "asm": "OP_DUP OP_HASH160 38d80f8a8eae70ebd33a3d271433ff01277c0131 OP_EQUALVERIFY OP_CHECKSIG", "type": "pubkeyhash"}, "value": 0.00498387, "n": 2}], "hex": "0100000003beec85a15c70524462744c32e0a9104afbd8378555704e90bba5a73fa843eb72010000006b48304502210094892bed2f25295ef2952634d71347d68d505f1d04978ea1ab64dd74d33dd7ee0220783affdbc95fb0831b65c0531c5c6bd2467700c150ff65e1524d3c247e0c43630121039718d1cb88da1a93e242d26cbaa6c6f70337dcfdc7d694d3dec1bec3b817fc8bfeffffffefcc182210edb7c48e7928703ec56825b00466ba98cb52c4e677011677723a38000000006b483045022100fa4e77c76ef01a7640617ca4e91073a422023e07552d400d37d6e19796d1ae2e022008ccbed374b2407527294fb2148a484b08b33ca4c08102caca3d89cb28d557500121039718d1cb88da1a93e242d26cbaa6c6f70337dcfdc7d694d3dec1bec3b817fc8bfeffffff95ed7374d4ca34c91d9b00ceb9a104a32a55905f4afe3ec9da5d90fbe871cab6010000006a47304402203bef88b4879636b13358f0cef251b91b93291f23d1ec06c7a4c136c14daadb0202205a3c0be95bff6111e7156966ebc8e9f63c0157b0530a8eed4cd6f9e25d4f28600121039718d1cb88da1a93e242d26cbaa6c6f70337dcfdc7d694d3dec1bec3b817fc8bfeffffff030000000000000000166a146f6d6e69000000000000001f0000002bf20d273022020000000000001976a914a25dec4d0011064ef106a983c39c7a540699f22088acd39a0700000000001976a91438d80f8a8eae70ebd33a3d271433ff01277c013188ac12490800", "vin": [{"sequence": 4294967294, "scriptSig": {"hex": "48304502210094892bed2f25295ef2952634d71347d68d505f1d04978ea1ab64dd74d33dd7ee0220783affdbc95fb0831b65c0531c5c6bd2467700c150ff65e1524d3c247e0c43630121039718d1cb88da1a93e242d26cbaa6c6f70337dcfdc7d694d3dec1bec3b817fc8b", "asm": "304502210094892bed2f25295ef2952634d71347d68d505f1d04978ea1ab64dd74d33dd7ee0220783affdbc95fb0831b65c0531c5c6bd2467700c150ff65e1524d3c247e0c4363[ALL] 039718d1cb88da1a93e242d26cbaa6c6f70337dcfdc7d694d3dec1bec3b817fc8b"}, "vout": 1, "txid": "72eb43a83fa7a5bb904e70558537d8fb4a10a9e0324c74624452705ca185ecbe"}, {"sequence": 4294967294, "scriptSig": {"hex": "483045022100fa4e77c76ef01a7640617ca4e91073a422023e07552d400d37d6e19796d1ae2e022008ccbed374b2407527294fb2148a484b08b33ca4c08102caca3d89cb28d557500121039718d1cb88da1a93e242d26cbaa6c6f70337dcfdc7d694d3dec1bec3b817fc8b", "asm": "3045022100fa4e77c76ef01a7640617ca4e91073a422023e07552d400d37d6e19796d1ae2e022008ccbed374b2407527294fb2148a484b08b33ca4c08102caca3d89cb28d55750[ALL] 039718d1cb88da1a93e242d26cbaa6c6f70337dcfdc7d694d3dec1bec3b817fc8b"}, "vout": 0, "txid": "383a7277160177e6c452cb98ba6604b02568c53e7028798ec4b7ed102218ccef"}, {"sequence": 4294967294, "scriptSig": {"hex": "47304402203bef88b4879636b13358f0cef251b91b93291f23d1ec06c7a4c136c14daadb0202205a3c0be95bff6111e7156966ebc8e9f63c0157b0530a8eed4cd6f9e25d4f28600121039718d1cb88da1a93e242d26cbaa6c6f70337dcfdc7d694d3dec1bec3b817fc8b", "asm": "304402203bef88b4879636b13358f0cef251b91b93291f23d1ec06c7a4c136c14daadb0202205a3c0be95bff6111e7156966ebc8e9f63c0157b0530a8eed4cd6f9e25d4f2860[ALL] 039718d1cb88da1a93e242d26cbaa6c6f70337dcfdc7d694d3dec1bec3b817fc8b"}, "vout": 1, "txid": "b6ca71e8fb905ddac93efe4a5f90552aa304a1b9ce009b1dc934cad47473ed95"}], "txid": "17b6963c6d630ceb3ad9bebb9f4aea69dbf148bb53fba8906e8a1a0bd0d7e102", "blocktime": 1537872475, "version": 1, "confirmations": 11487, "time": 1537872475, "locktime": 542994, "vsize": 552, "size": 552}