{"hash": "0e1b0745a41d3f599d6358288c0ebc5495ec29b09e27bf87dfccabc1b9c3af25", "blockhash": "0000000000000000001e0dab787dd257d1dbfcb92a98c2207d5e1078be1f4165", "vout": [{"scriptPubKey": {"reqSigs": 1, "hex": "a91412706532bc8f0ec90440dd97433cd6a1b14d07a587", "addresses": ["33NWjMoNjcoSkd12AH8hbcyaPW51WPRsee"], "asm": "OP_HASH160 12706532bc8f0ec90440dd97433cd6a1b14d07a5 OP_EQUAL", "type": "scripthash"}, "value": 0.01, "n": 0}, {"scriptPubKey": {"reqSigs": 1, "hex": "a9145dc08fe5a48dd7023a5e390330d668d05a76752287", "addresses": ["3AEjSqGnsATZjmbhCeV1NvpkG1Zqy5gpAB"], "asm": "OP_HASH160 5dc08fe5a48dd7023a5e390330d668d05a767522 OP_EQUAL", "type": "scripthash"}, "value": 0.00999033, "n": 1}], "hex": "020000000001024e9332e58ffb2cc7293bf0bc871522825a624e93b372af3fcbd497f5d9090ebe0100000017160014a08c688cd39c9ffbb43abd9d775b3f7d2f5cb394feffffff64c3dfb1804a867dc9fd5d1550fb81e6937ce14e524c0a636c421eac56804a3a0000000017160014576f0977faf093be024d6ed8842cdcfa0116bb99feffffff0240420f000000000017a91412706532bc8f0ec90440dd97433cd6a1b14d07a587793e0f000000000017a9145dc08fe5a48dd7023a5e390330d668d05a7675228702473044022010e0a496ec46bcab45d3afe2855d37de2c6b0587d8dfb72d4f1453b40b088d4d022066be758bddbbd1368540c0bde5ddfc77e24b644d665f9dc02af613888022b54a01210328176d275c73829b87e41a3ff00b73747c494393dd7b0c4203d932ece65025cf0247304402201969cbb35c2998b0d891fd85561b59e924f4ddd5f7cdeb153a60e95a46b6791202205b1ff9f9d4cb2b6ddb059e342cde4a5b2675613ec369cb423a53a973ba87dc47012102d39ab6523c8d127833f7e695a6a770639e70af329ca51aed47ccfe587979c3df12490800", "vin": [{"txinwitness": ["3044022010e0a496ec46bcab45d3afe2855d37de2c6b0587d8dfb72d4f1453b40b088d4d022066be758bddbbd1368540c0bde5ddfc77e24b644d665f9dc02af613888022b54a01", "0328176d275c73829b87e41a3ff00b73747c494393dd7b0c4203d932ece65025cf"], "sequence": 4294967294, "scriptSig": {"hex": "160014a08c688cd39c9ffbb43abd9d775b3f7d2f5cb394", "asm": "0014a08c688cd39c9ffbb43abd9d775b3f7d2f5cb394"}, "vout": 1, "txid": "be0e09d9f597d4cb3faf72b3934e625a82221587bcf03b29c72cfb8fe532934e"}, {"txinwitness": ["304402201969cbb35c2998b0d891fd85561b59e924f4ddd5f7cdeb153a60e95a46b6791202205b1ff9f9d4cb2b6ddb059e342cde4a5b2675613ec369cb423a53a973ba87dc4701", "02d39ab6523c8d127833f7e695a6a770639e70af329ca51aed47ccfe587979c3df"], "sequence": 4294967294, "scriptSig": {"hex": "160014576f0977faf093be024d6ed8842cdcfa0116bb99", "asm": "0014576f0977faf093be024d6ed8842cdcfa0116bb99"}, "vout": 0, "txid": "3a4a8056ac1e426c630a4c524ee17c93e681fb50155dfdc97d864a80b1dfc364"}], "txid": "17b7a6dcb1c5e1ba32d439855017c66db4774b6c1c13699927aa4949e9b9d72f", "blocktime": 1537872475, "version": 2, "confirmations": 11486, "time": 1537872475, "locktime": 542994, "vsize": 256, "size": 418}