{"hash": "17b993e26988460bf59168073c6530e9ae90acb5c33ba80cfe4e3c5c4e8ddbd3", "blockhash": "00000000000000000018f53835495a110e01622372bf6ae95dc86f2b0ab887b0", "vout": [{"scriptPubKey": {"type": "nulldata", "hex": "6a146f6d6e69000000000000001f0000069426730a80", "asm": "OP_RETURN 6f6d6e69000000000000001f0000069426730a80"}, "value": 0.0, "n": 0}, {"scriptPubKey": {"reqSigs": 1, "hex": "76a914a25dec4d0011064ef106a983c39c7a540699f22088ac", "addresses": ["1FoWyxwPXuj4C6abqwhjDWdz6D4PZgYRjA"], "asm": "OP_DUP OP_HASH160 a25dec4d0011064ef106a983c39c7a540699f220 OP_EQUALVERIFY OP_CHECKSIG", "type": "pubkeyhash"}, "value": 0.01990392, "n": 1}, {"scriptPubKey": {"reqSigs": 1, "hex": "76a9147e6cf63a08ebc7c90ac60fe12a11b337a52690ce88ac", "addresses": ["1CXUfyJrBnsxLceztgZGFNcBEUEh9Lg1H5"], "asm": "OP_DUP OP_HASH160 7e6cf63a08ebc7c90ac60fe12a11b337a52690ce OP_EQUALVERIFY OP_CHECKSIG", "type": "pubkeyhash"}, "value": 5.46e-06, "n": 2}], "hex": "01000000012aef707546fdc3f1d5f15b1aee1a9b877e3aa7beff3eeff5af9b8c151a1d5112020000006b483045022100d908f26df46bad26c6cce41ac1165ea3226c5213445b2d9998cac2ee945b9ebe022014fd832fe7540893d9fec11314cfbc3d9052a9813b179cd6047d2c18b931b0cd012103da5bac7b36d5aa38f531c6b9601e21bb598a4b6716ebed38b009a55dabde9440feffffff030000000000000000166a146f6d6e69000000000000001f0000069426730a80f85e1e00000000001976a914a25dec4d0011064ef106a983c39c7a540699f22088ac22020000000000001976a9147e6cf63a08ebc7c90ac60fe12a11b337a52690ce88ac0e490800", "vin": [{"sequence": 4294967294, "scriptSig": {"hex": "483045022100d908f26df46bad26c6cce41ac1165ea3226c5213445b2d9998cac2ee945b9ebe022014fd832fe7540893d9fec11314cfbc3d9052a9813b179cd6047d2c18b931b0cd012103da5bac7b36d5aa38f531c6b9601e21bb598a4b6716ebed38b009a55dabde9440", "asm": "3045022100d908f26df46bad26c6cce41ac1165ea3226c5213445b2d9998cac2ee945b9ebe022014fd832fe7540893d9fec11314cfbc3d9052a9813b179cd6047d2c18b931b0cd[ALL] 03da5bac7b36d5aa38f531c6b9601e21bb598a4b6716ebed38b009a55dabde9440"}, "vout": 2, "txid": "12511d1a158c9baff5ef3effbea73a7e879b1aee1a5bf1d5f1c3fd467570ef2a"}], "txid": "17b993e26988460bf59168073c6530e9ae90acb5c33ba80cfe4e3c5c4e8ddbd3", "blocktime": 1537870928, "version": 1, "confirmations": 11512, "time": 1537870928, "locktime": 542990, "vsize": 257, "size": 257}