{"hash": "17bd1bc3a5d17f78d1d693980111360cab8bd0f0f12ef636f6bfd1b77c1fa49a", "blockhash": "0000000000000000000e13cef7c366c0283d82e591d1acd082e914b08063cdf1", "vout": [{"scriptPubKey": {"reqSigs": 1, "hex": "76a9144a4dc939fb57970fef21434befc2a9d21ab0064188ac", "addresses": ["17mtBs8buJM4x7rmu5KriTZh3qwc3GUGqL"], "asm": "OP_DUP OP_HASH160 4a4dc939fb57970fef21434befc2a9d21ab00641 OP_EQUALVERIFY OP_CHECKSIG", "type": "pubkeyhash"}, "value": 0.00039427, "n": 0}, {"scriptPubKey": {"reqSigs": 1, "hex": "76a9141aec65b0c805c2c9b9f090d64caf425f996d293e88ac", "addresses": ["13TMm9zQMY1C5ZfCYT8UargVecrgYgu1Rg"], "asm": "OP_DUP OP_HASH160 1aec65b0c805c2c9b9f090d64caf425f996d293e OP_EQUALVERIFY OP_CHECKSIG", "type": "pubkeyhash"}, "value": 0.01, "n": 1}], "hex": "0100000001c0e140d6ea0dc6b6a57ac93ede41aea547a6b29940e25548b26492c6c0b5e7b6000000006a473044022064715d5768e73ef5898f033ced25efa0689bffcabe1a9bc2852e1b63930363b302204e3f33b066079149463984882372f9003313a8353b7218138749826c66a397db012102b82b22078919b310a388c6175bd7b9ca7608cbf637adb7c5c922fc8e304ad06dffffffff02039a0000000000001976a9144a4dc939fb57970fef21434befc2a9d21ab0064188ac40420f00000000001976a9141aec65b0c805c2c9b9f090d64caf425f996d293e88ac00000000", "vin": [{"sequence": 4294967295, "scriptSig": {"hex": "473044022064715d5768e73ef5898f033ced25efa0689bffcabe1a9bc2852e1b63930363b302204e3f33b066079149463984882372f9003313a8353b7218138749826c66a397db012102b82b22078919b310a388c6175bd7b9ca7608cbf637adb7c5c922fc8e304ad06d", "asm": "3044022064715d5768e73ef5898f033ced25efa0689bffcabe1a9bc2852e1b63930363b302204e3f33b066079149463984882372f9003313a8353b7218138749826c66a397db[ALL] 02b82b22078919b310a388c6175bd7b9ca7608cbf637adb7c5c922fc8e304ad06d"}, "vout": 0, "txid": "b6e7b5c0c69264b24855e24099b2a647a5ae41de3ec97aa5b6c60dead640e1c0"}], "txid": "17bd1bc3a5d17f78d1d693980111360cab8bd0f0f12ef636f6bfd1b77c1fa49a", "blocktime": 1537871767, "version": 1, "confirmations": 11495, "time": 1537871767, "locktime": 0, "vsize": 225, "size": 225}