{"hash": "17c99847d156f7289459fa82339f7ba559f87cb7c8e72e19445d644a3267523a", "blockhash": "00000000000000000024a2167bbff67b0be802c0b01cdd79e6331c2be6459f87", "vout": [{"scriptPubKey": {"reqSigs": 1, "hex": "a91458140b02e3e0ff4960ac70335ac9454cd8b5098c87", "addresses": ["39ijQ39LYTdr1Km4nzuufQawtjho5QLLQn"], "asm": "OP_HASH160 58140b02e3e0ff4960ac70335ac9454cd8b5098c OP_EQUAL", "type": "scripthash"}, "value": 0.00476329, "n": 0}, {"scriptPubKey": {"reqSigs": 1, "hex": "76a914e4f1b8531057c2ccbcf5d30668e85b9f098bcba288ac", "addresses": ["1MsYdjqbhaXVk7ji3r4BHQveVNmjbkY4qd"], "asm": "OP_DUP OP_HASH160 e4f1b8531057c2ccbcf5d30668e85b9f098bcba2 OP_EQUALVERIFY OP_CHECKSIG", "type": "pubkeyhash"}, "value": 0.08387221, "n": 1}], "hex": "0100000001627cf0ef77628011b122419c31715a83305c5b6b407b6c3a8bacfcae3aed3eda010000006b4830450221008dd24f3412f4a814b975937aaeccc088cfb28fc372c48360b3ab1353463fcd490220153527d6d69567ec87aa43d997d5f3077cbee2f04c82b669227ae8223eadb5c001210272e759c770f5804784878616f2bdec497a0476f255b496d7f08659efaf382e84ffffffff02a94407000000000017a91458140b02e3e0ff4960ac70335ac9454cd8b5098c8795fa7f00000000001976a914e4f1b8531057c2ccbcf5d30668e85b9f098bcba288ac00000000", "vin": [{"sequence": 4294967295, "scriptSig": {"hex": "4830450221008dd24f3412f4a814b975937aaeccc088cfb28fc372c48360b3ab1353463fcd490220153527d6d69567ec87aa43d997d5f3077cbee2f04c82b669227ae8223eadb5c001210272e759c770f5804784878616f2bdec497a0476f255b496d7f08659efaf382e84", "asm": "30450221008dd24f3412f4a814b975937aaeccc088cfb28fc372c48360b3ab1353463fcd490220153527d6d69567ec87aa43d997d5f3077cbee2f04c82b669227ae8223eadb5c0[ALL] 0272e759c770f5804784878616f2bdec497a0476f255b496d7f08659efaf382e84"}, "vout": 1, "txid": "da3eed3aaefcac8b3a6c7b406b5b5c30835a71319c4122b111806277eff07c62"}], "txid": "17c99847d156f7289459fa82339f7ba559f87cb7c8e72e19445d644a3267523a", "blocktime": 1537870564, "version": 1, "confirmations": 11515, "time": 1537870564, "locktime": 0, "vsize": 224, "size": 224}