{"hash": "17c96c1c7714c6d640639e74046b328982dd4b42762316781e60d75344982c4e", "blockhash": "0000000000000000001cda96e906b7601b7a6fb1a3b62bca570a9e5d8f4b3de1", "vout": [{"scriptPubKey": {"reqSigs": 1, "hex": "76a914beb21dd60e3356e0bd4cf1c4fb3bc15a686f2ef888ac", "addresses": ["1JPJmCk5Nr1kQJjtivm9gGoc3dYr1ChHBs"], "asm": "OP_DUP OP_HASH160 beb21dd60e3356e0bd4cf1c4fb3bc15a686f2ef8 OP_EQUALVERIFY OP_CHECKSIG", "type": "pubkeyhash"}, "value": 0.99998434, "n": 0}, {"scriptPubKey": {"reqSigs": 1, "hex": "76a91448f35b07b26f1c2d88db5ff26d552e1e4a8ddb9488ac", "addresses": ["17ejBTMRfnd7nfisUuBzNMFxmP5nhaAWtL"], "asm": "OP_DUP OP_HASH160 48f35b07b26f1c2d88db5ff26d552e1e4a8ddb94 OP_EQUALVERIFY OP_CHECKSIG", "type": "pubkeyhash"}, "value": 4.0, "n": 1}], "hex": "010000000365033884b90239a4e15c04356006a3a666e5eb92741d241a17b2fa9ae020ff49000000006b4830450221008c2fc01f1cb7b0a849fb0eafe620614298c37ff366d04ac12ee4dbf7dd7428ee02202a327d3b1b7e8bad65c6fbe25be71da1c894f48bfb62884b5baa41127ae713ef0121038266c726cb190fc93e26945d6ffabc8ac310b88303869c4d699c10372e3871fffffffffffea202176ea5a88293273a842e07e735cd6a51dd288dc69c632afbca87a08452000000006b483045022100e1d6627f6f5972968eb1987829872ee9ceb31c9a44cb7e3bee583ccb445cd3d60220604f0ee10289437bbc8f6912a63cae3b3e7910410622a55996e2d9cea98b11520121030008ed9d22553a48270f74815fe17bb9f37fda3c6cd094521deb96ea55a5c836ffffffff5dea6b725b8a14ef1e029192a7560adf569fa4f2b80c106ac005b7549655885b060000006b483045022100ce8f973a3760f6d5cc159390d6ce1166576fc1fbe612447d9a9db1dfe65156b60220196a1a71b7dd529c0f16f716fc824e92bb36953812a212b5d060f8a7d14840360121030008ed9d22553a48270f74815fe17bb9f37fda3c6cd094521deb96ea55a5c836ffffffff02e2daf505000000001976a914beb21dd60e3356e0bd4cf1c4fb3bc15a686f2ef888ac0084d717000000001976a91448f35b07b26f1c2d88db5ff26d552e1e4a8ddb9488ac00000000", "vin": [{"sequence": 4294967295, "scriptSig": {"hex": "4830450221008c2fc01f1cb7b0a849fb0eafe620614298c37ff366d04ac12ee4dbf7dd7428ee02202a327d3b1b7e8bad65c6fbe25be71da1c894f48bfb62884b5baa41127ae713ef0121038266c726cb190fc93e26945d6ffabc8ac310b88303869c4d699c10372e3871ff", "asm": "30450221008c2fc01f1cb7b0a849fb0eafe620614298c37ff366d04ac12ee4dbf7dd7428ee02202a327d3b1b7e8bad65c6fbe25be71da1c894f48bfb62884b5baa41127ae713ef[ALL] 038266c726cb190fc93e26945d6ffabc8ac310b88303869c4d699c10372e3871ff"}, "vout": 0, "txid": "49ff20e09afab2171a241d7492ebe566a6a3066035045ce1a43902b984380365"}, {"sequence": 4294967295, "scriptSig": {"hex": "483045022100e1d6627f6f5972968eb1987829872ee9ceb31c9a44cb7e3bee583ccb445cd3d60220604f0ee10289437bbc8f6912a63cae3b3e7910410622a55996e2d9cea98b11520121030008ed9d22553a48270f74815fe17bb9f37fda3c6cd094521deb96ea55a5c836", "asm": "3045022100e1d6627f6f5972968eb1987829872ee9ceb31c9a44cb7e3bee583ccb445cd3d60220604f0ee10289437bbc8f6912a63cae3b3e7910410622a55996e2d9cea98b1152[ALL] 030008ed9d22553a48270f74815fe17bb9f37fda3c6cd094521deb96ea55a5c836"}, "vout": 0, "txid": "5284a087cafb2a639cc68d28dd516acd35e7072e843a279382a8a56e1702a2fe"}, {"sequence": 4294967295, "scriptSig": {"hex": "483045022100ce8f973a3760f6d5cc159390d6ce1166576fc1fbe612447d9a9db1dfe65156b60220196a1a71b7dd529c0f16f716fc824e92bb36953812a212b5d060f8a7d14840360121030008ed9d22553a48270f74815fe17bb9f37fda3c6cd094521deb96ea55a5c836", "asm": "3045022100ce8f973a3760f6d5cc159390d6ce1166576fc1fbe612447d9a9db1dfe65156b60220196a1a71b7dd529c0f16f716fc824e92bb36953812a212b5d060f8a7d1484036[ALL] 030008ed9d22553a48270f74815fe17bb9f37fda3c6cd094521deb96ea55a5c836"}, "vout": 6, "txid": "5b88559654b705c06a100cb8f2a49f56df0a56a79291021eef148a5b726bea5d"}], "txid": "17c96c1c7714c6d640639e74046b328982dd4b42762316781e60d75344982c4e", "blocktime": 1537873282, "version": 1, "confirmations": 11485, "time": 1537873282, "locktime": 0, "vsize": 522, "size": 522}