{"hash": "774d6f6883259a4bd71b28a652aa407c3de9303d713eda71be2d0103f2064aa8", "blockhash": "00000000000000000004ffacab907a6b429b9a5745fa0b75af4234bf69dd7176", "vout": [{"scriptPubKey": {"reqSigs": 1, "hex": "a9149b765444a7de9ad65becf1b81d97a2fe2ee6036287", "addresses": ["3Fs2Qw3Eqt3q11bRv696A1LUrZ2NWWq4iQ"], "asm": "OP_HASH160 9b765444a7de9ad65becf1b81d97a2fe2ee60362 OP_EQUAL", "type": "scripthash"}, "value": 0.00782, "n": 0}, {"scriptPubKey": {"reqSigs": 1, "hex": "76a914578410e3804ce9bdfce77610e7676202f078e86388ac", "addresses": ["18yjzo3NEAj3vDPejKxEDW27V63H2XAmMH"], "asm": "OP_DUP OP_HASH160 578410e3804ce9bdfce77610e7676202f078e863 OP_EQUALVERIFY OP_CHECKSIG", "type": "pubkeyhash"}, "value": 0.05429833, "n": 1}, {"scriptPubKey": {"reqSigs": 1, "hex": "a9141988a27e3c2df4ddee7fad5a2303d086179b2a3087", "addresses": ["3422VtS7UtCvXYxoXMVp6eZupR252z85oC"], "asm": "OP_HASH160 1988a27e3c2df4ddee7fad5a2303d086179b2a30 OP_EQUAL", "type": "scripthash"}, "value": 1.83085699, "n": 2}], "hex": "01000000000101362daee3ccc6f860dd77af8e2017ec1d196b25792b2fef23f294f3c22eb72fb8010000002322002065d416c48a8072e0ac51c2d111eb194f009caef0332446c1bf2097316cf07fa9ffffffff03b0ee0b000000000017a9149b765444a7de9ad65becf1b81d97a2fe2ee603628749da5200000000001976a914578410e3804ce9bdfce77610e7676202f078e86388ac83aae90a0000000017a9141988a27e3c2df4ddee7fad5a2303d086179b2a30870400483045022100db136504e7331b2516fd51c542695cccf2cae8db55ce1852bdfa5ca6920c00bc02201da70fad8b604d54826735cb2fdf0215db3e094929a9202cb528b5bc090378610147304402203531aadcae40c9aebaff771262edd687ae54d76c5a11feee2b370c32dc022a3702203ca85b96835bb1c654f991c75b4bca8d5f2edb91f7668986b3a8320336f6215c0169522102f44abcf9e23c9a460da309ccca56c619c04eed3bde2c2cff5e7d78fbcd980b9c2103c9443cf3047bb6c2c82f1b0c44c36109cdc3d0d601d16d1189a1602bf8d1a0a02103bfe867059274412412e088af5572b92168c2ef495cfe6c9b7a753a009eb37c4853ae00000000", "vin": [{"txinwitness": ["", "3045022100db136504e7331b2516fd51c542695cccf2cae8db55ce1852bdfa5ca6920c00bc02201da70fad8b604d54826735cb2fdf0215db3e094929a9202cb528b5bc0903786101", "304402203531aadcae40c9aebaff771262edd687ae54d76c5a11feee2b370c32dc022a3702203ca85b96835bb1c654f991c75b4bca8d5f2edb91f7668986b3a8320336f6215c01", "522102f44abcf9e23c9a460da309ccca56c619c04eed3bde2c2cff5e7d78fbcd980b9c2103c9443cf3047bb6c2c82f1b0c44c36109cdc3d0d601d16d1189a1602bf8d1a0a02103bfe867059274412412e088af5572b92168c2ef495cfe6c9b7a753a009eb37c4853ae"], "sequence": 4294967295, "scriptSig": {"hex": "22002065d416c48a8072e0ac51c2d111eb194f009caef0332446c1bf2097316cf07fa9", "asm": "002065d416c48a8072e0ac51c2d111eb194f009caef0332446c1bf2097316cf07fa9"}, "vout": 1, "txid": "b82fb72ec2f394f223ef2f2b79256b191dec17208eaf77dd60f8c6cce3ae2d36"}], "txid": "17d8a812ab29c8c3f88376c75c65225dfe320b38830f5dee18bc91846748c63c", "blocktime": 1537875543, "version": 1, "confirmations": 11464, "time": 1537875543, "locktime": 0, "vsize": 248, "size": 439}