{"hash": "5834b9c1ee0e216a6628662a9f825d8f877af2fa6cb8cc45be458f6fff870aaf", "blockhash": "0000000000000000001cda96e906b7601b7a6fb1a3b62bca570a9e5d8f4b3de1", "vout": [{"scriptPubKey": {"reqSigs": 1, "hex": "00144bf9ea09e6510b82bd7dc51728f09900e84e2006", "addresses": ["bc1qf0u75z0x2y9c90tac5tj3uyeqr5yugqx3pndsv"], "asm": "0 4bf9ea09e6510b82bd7dc51728f09900e84e2006", "type": "witness_v0_keyhash"}, "value": 0.44359086, "n": 0}, {"scriptPubKey": {"reqSigs": 1, "hex": "76a9146ded7fb3ce0806200a56be0a535716f82144433188ac", "addresses": ["1B2FAcr3xsW5h7SwpeCGxgVsVJjZ63cDVU"], "asm": "OP_DUP OP_HASH160 6ded7fb3ce0806200a56be0a535716f821444331 OP_EQUALVERIFY OP_CHECKSIG", "type": "pubkeyhash"}, "value": 0.18276137, "n": 1}], "hex": "01000000000101640547becf05c5129c1e3034fff5d2945e132672515f2f8bc677330880f415c60100000000ffffffff02aedda402000000001600144bf9ea09e6510b82bd7dc51728f09900e84e200629df1601000000001976a9146ded7fb3ce0806200a56be0a535716f82144433188ac02483045022100a77685f84b32a5b131fe7b4242aaecec34e2d1b170739ef425eb92323a54e44402201bc25ab421ca2e0090ae5646f1cec66a38ac9deba6cc40a4c100fa14f95060b60121031bcdfd1d546ba29788934e67a7ebff55cb88d4c8f149553cd97bac25189a18bb00000000", "vin": [{"txinwitness": ["3045022100a77685f84b32a5b131fe7b4242aaecec34e2d1b170739ef425eb92323a54e44402201bc25ab421ca2e0090ae5646f1cec66a38ac9deba6cc40a4c100fa14f95060b601", "031bcdfd1d546ba29788934e67a7ebff55cb88d4c8f149553cd97bac25189a18bb"], "sequence": 4294967295, "scriptSig": {"hex": "", "asm": ""}, "vout": 1, "txid": "c615f480083377c68b2f5f517226135e94d2f5ff34301e9c12c505cfbe470564"}], "txid": "17daed6034f4fab6eff523d98e82f742bf982cd6e8c575dcf64f4373bdb9c457", "blocktime": 1537873282, "version": 1, "confirmations": 11484, "time": 1537873282, "locktime": 0, "vsize": 144, "size": 226}