{"hash": "168632092c9c9f9d4a78c110f25551500f3ed4e4e70cbf36716e77a57d4f49ff", "blockhash": "0000000000000000000e13cef7c366c0283d82e591d1acd082e914b08063cdf1", "vout": [{"scriptPubKey": {"reqSigs": 1, "hex": "76a9140a3195c50a139c1268b517078c4818eb7c3cee7288ac", "addresses": ["1vuA9XxA95fff3zonS6wemPTWBvQ16vN9"], "asm": "OP_DUP OP_HASH160 0a3195c50a139c1268b517078c4818eb7c3cee72 OP_EQUALVERIFY OP_CHECKSIG", "type": "pubkeyhash"}, "value": 0.00275396, "n": 0}, {"scriptPubKey": {"reqSigs": 1, "hex": "a914cf4d80bfcbfc19551c98c782ecc5ec9b0add11dd87", "addresses": ["3Lb8eFUanX2Rm1XRmuqjPB1ZPowWJKhS6V"], "asm": "OP_HASH160 cf4d80bfcbfc19551c98c782ecc5ec9b0add11dd OP_EQUAL", "type": "scripthash"}, "value": 9.211e-05, "n": 1}], "hex": "02000000000101d0681b559ee94683941e6fda049f0aad0287b7f1dd7b40b770a0bcf7289a256e0000000017160014b72ea21700f127d7a39452affbc42700f0769c97feffffff02c4330400000000001976a9140a3195c50a139c1268b517078c4818eb7c3cee7288acfb2300000000000017a914cf4d80bfcbfc19551c98c782ecc5ec9b0add11dd8702473044022054d6c7eb48259c5e338cffea2426e398d93f0592e41b769926b035d3a04bbc9b02205eee938779abf5197955f8509c29f3dde102ec62658c8a29a4a574bda06765fd01210263df23fa6156ef898a06d4c00d78059ccf32554877f5c553f9fdf89b96d5da3f10490800", "vin": [{"txinwitness": ["3044022054d6c7eb48259c5e338cffea2426e398d93f0592e41b769926b035d3a04bbc9b02205eee938779abf5197955f8509c29f3dde102ec62658c8a29a4a574bda06765fd01", "0263df23fa6156ef898a06d4c00d78059ccf32554877f5c553f9fdf89b96d5da3f"], "sequence": 4294967294, "scriptSig": {"hex": "160014b72ea21700f127d7a39452affbc42700f0769c97", "asm": "0014b72ea21700f127d7a39452affbc42700f0769c97"}, "vout": 0, "txid": "6e259a28f7bca070b7407bddf1b78702ad0a9f04da6f1e948346e99e551b68d0"}], "txid": "17e031e9dac502079cce32aa26acf9f5be31cf14c6d1256ded8e22f67906fc7b", "blocktime": 1537871767, "version": 2, "confirmations": 11495, "time": 1537871767, "locktime": 542992, "vsize": 168, "size": 249}