{"hash": "48ecf76dd9f3001276a1fa3718f1a0c778a60299794a2f4b5c96fca0d6083800", "blockhash": "000000000000000000022b45ed06c6f4ccd3cf7fb5ba4856ebd2e58215665228", "vout": [{"scriptPubKey": {"reqSigs": 1, "hex": "76a91497b1af4a0c98512821f1a4beb74742fa25666ca688ac", "addresses": ["1Eq5ticRrLhjgbaUWjb2XVRrhrX8j1beEf"], "asm": "OP_DUP OP_HASH160 97b1af4a0c98512821f1a4beb74742fa25666ca6 OP_EQUALVERIFY OP_CHECKSIG", "type": "pubkeyhash"}, "value": 0.01215128, "n": 0}, {"scriptPubKey": {"reqSigs": 1, "hex": "0014768a27ccb3b6d0920c782c649920d2deffa2f418", "addresses": ["bc1qw69z0n9nkmgfyrrc93jfjgxjmml69aqctuk7p0"], "asm": "0 768a27ccb3b6d0920c782c649920d2deffa2f418", "type": "witness_v0_keyhash"}, "value": 0.00014518, "n": 1}], "hex": "01000000000101ff3c10e929ada72f32aed0894465937979e76690f46ef4e78f85ccb38eed023b0000000017160014d2037fe5ac3b1c8dda5231973f02f3010bf28b68ffffffff02988a1200000000001976a91497b1af4a0c98512821f1a4beb74742fa25666ca688acb638000000000000160014768a27ccb3b6d0920c782c649920d2deffa2f41802473044022048a429341c68f8b129e53cc5660ee670206b0c4651f85ac36d466a945867758902202ffcbdff8f855e0dc07e58308e5b89549135bb8bd1554dde7456f003778abac5012102c5492b634b0fe05fd3670b1590591a6337cde10229c8bd1aa78c78543291164600000000", "vin": [{"txinwitness": ["3044022048a429341c68f8b129e53cc5660ee670206b0c4651f85ac36d466a945867758902202ffcbdff8f855e0dc07e58308e5b89549135bb8bd1554dde7456f003778abac501", "02c5492b634b0fe05fd3670b1590591a6337cde10229c8bd1aa78c785432911646"], "sequence": 4294967295, "scriptSig": {"hex": "160014d2037fe5ac3b1c8dda5231973f02f3010bf28b68", "asm": "0014d2037fe5ac3b1c8dda5231973f02f3010bf28b68"}, "vout": 0, "txid": "3b02ed8eb3cc858fe7f46ef49066e7797993654489d0ae322fa7ad29e9103cff"}], "txid": "17e55254e4bbdf473d23ca65b48d839766f2f5fd653153e47bb88d5cc0cfce90", "blocktime": 1537869901, "version": 1, "confirmations": 11523, "time": 1537869901, "locktime": 0, "vsize": 167, "size": 248}