{"hash": "17ee1947d8d8244aa64ebf41d0b6d8d354efc006bd729614432ebb0b4e2d7546", "blockhash": "000000000000000000022b45ed06c6f4ccd3cf7fb5ba4856ebd2e58215665228", "vout": [{"scriptPubKey": {"type": "nulldata", "hex": "6a146f6d6e69000000000000001f00000006b20e85e0", "asm": "OP_RETURN 6f6d6e69000000000000001f00000006b20e85e0"}, "value": 0.0, "n": 0}, {"scriptPubKey": {"reqSigs": 1, "hex": "76a914f659454f6d2bfac1508619df6e9a6a417d92d41588ac", "addresses": ["1PTaAq9zn6GxyQzkL36RgEA2gKDkGjVAg8"], "asm": "OP_DUP OP_HASH160 f659454f6d2bfac1508619df6e9a6a417d92d415 OP_EQUALVERIFY OP_CHECKSIG", "type": "pubkeyhash"}, "value": 0.00496071, "n": 1}, {"scriptPubKey": {"reqSigs": 1, "hex": "76a914a25dec4d0011064ef106a983c39c7a540699f22088ac", "addresses": ["1FoWyxwPXuj4C6abqwhjDWdz6D4PZgYRjA"], "asm": "OP_DUP OP_HASH160 a25dec4d0011064ef106a983c39c7a540699f220 OP_EQUALVERIFY OP_CHECKSIG", "type": "pubkeyhash"}, "value": 5.46e-06, "n": 2}], "hex": "0100000001abeede53ff30c1b55766ecc22d801cce27303875cd5998887b484b5953cdd343000000006b483045022100dc3a4eaa166102c82cefd9614f0e0c3c68a4dd2daa9bea7edcb4df33b0527fdb022042e0bbfa667b7f46641858c15302abe9f05bf394acbedb008bdd802c3a5b3c37012102406e50718db0ffb28f863fe801c315ca3dcf57308914c0b04d9a0fbe6e17df5bfeffffff030000000000000000166a146f6d6e69000000000000001f00000006b20e85e0c7910700000000001976a914f659454f6d2bfac1508619df6e9a6a417d92d41588ac22020000000000001976a914a25dec4d0011064ef106a983c39c7a540699f22088ac0b490800", "vin": [{"sequence": 4294967294, "scriptSig": {"hex": "483045022100dc3a4eaa166102c82cefd9614f0e0c3c68a4dd2daa9bea7edcb4df33b0527fdb022042e0bbfa667b7f46641858c15302abe9f05bf394acbedb008bdd802c3a5b3c37012102406e50718db0ffb28f863fe801c315ca3dcf57308914c0b04d9a0fbe6e17df5b", "asm": "3045022100dc3a4eaa166102c82cefd9614f0e0c3c68a4dd2daa9bea7edcb4df33b0527fdb022042e0bbfa667b7f46641858c15302abe9f05bf394acbedb008bdd802c3a5b3c37[ALL] 02406e50718db0ffb28f863fe801c315ca3dcf57308914c0b04d9a0fbe6e17df5b"}, "vout": 0, "txid": "43d3cd53594b487b889859cd75383027ce1c802dc2ec6657b5c130ff53deeeab"}], "txid": "17ee1947d8d8244aa64ebf41d0b6d8d354efc006bd729614432ebb0b4e2d7546", "blocktime": 1537869901, "version": 1, "confirmations": 11524, "time": 1537869901, "locktime": 542987, "vsize": 257, "size": 257}