{"hash": "17f3cfdfdcb467aecc785e31fe4ccafdf215b12c06546fe156a8762702ca3d89", "blockhash": "0000000000000000001f76057863aec43deb6fa401d9628bb513d65a8098bfab", "vout": [{"scriptPubKey": {"reqSigs": 1, "hex": "76a91478d92671ab48dbc9237b2021c981b3f37a16573c88ac", "addresses": ["1C1zDsvwvszFYdaMbvVnvXqnmRX9P5s1Sw"], "asm": "OP_DUP OP_HASH160 78d92671ab48dbc9237b2021c981b3f37a16573c OP_EQUALVERIFY OP_CHECKSIG", "type": "pubkeyhash"}, "value": 0.00046625, "n": 0}, {"scriptPubKey": {"reqSigs": 1, "hex": "a914bc008105ec12f1db90f3cfda5a099fed70cdd71487", "addresses": ["3Jq5ZdGhDYHJy124A15GGX5n3uTt2vVPoE"], "asm": "OP_HASH160 bc008105ec12f1db90f3cfda5a099fed70cdd714 OP_EQUAL", "type": "scripthash"}, "value": 0.0220164, "n": 1}], "hex": "0100000005cde16ec382b5fabfc6ea67fa28b56ceb3dc47e174e4700138075209b1b15472c000000006b483045022100de6fc3651532b5e1010c57fb6ced94e9fe101b1c795d4629c81ccc3ca3e5c94602205d4d0bc0c3b8238324bedc4a2d8a46cb0bb5377e4aba7c0ca379fa69b834d2e2012103ee551fa233981016b3bc907b3151c63da7583ef698333dfe7a63b8334759189bffffffff13be9deeab4b77521c9a84c2e763bc1fe06dc98c19ff2d039887143f4b129431000000006b4830450221008ae2a9e0c5e44f9cc8e21b402f5af992e2998733cb2a7cd69a884cbc3f98e2720220291f7eafc8d36945861d111e1aee9a43adfa3985faba530d7722714922144e7c01210293e3e18db44f0ff6bbc708804ec3b32ac2d82751a918c76769521c18a127d1e4ffffffff0dd492e2b3dbccc861da7dee0858322374abf7e98e3f4b2143968a0281067b4d000000006b48304502210085f96d5f4a3f798b76436f121c0c8be526558d6b56cabb5449343aebab2e967f022000ae5b7da676391bffcf82cbd3d350e41faa13bea7efbc2fd90a47716a3c4e75012102ab7dfd9436dccfc61c3d87172fe7c072e1edb5bad9685e79f66cac746462a9dcffffffff96256b3c00f2915b3dbce3e37938ac3b9d31d52711b7b50396e2e60c2f48bdc9000000006b483045022100bf9a6ad451cf0ee1547d7ffe4b4167d42322e3f0bd40d0b749f30ab7c9bc37c002202baf6ddb4b34dabaea890a2fd3b9e6cb6ffc199a01d3289d1a4aa7d087b4e7790121025b5bd3093c59e618b0295f73aed7cd0b33494e68d7455ed99ee4e18c496e616cffffffff395f0dda35b6eb0aa187e4d677c55dff6a1e14cf0447430b9cd7ec6d1503bccb120000006b483045022100da42144780a0d3f15e8f9f02a3905dd380b2943b8128bab989c5d090260263b602200acfc2220f313c2d5d701b8099501fe320711fbbc213c335e110c79c1625bbe401210374167830db0a10590fdd80914762810e0660482a7c6916388329825f17032504ffffffff0221b60000000000001976a91478d92671ab48dbc9237b2021c981b3f37a16573c88ac289821000000000017a914bc008105ec12f1db90f3cfda5a099fed70cdd7148700000000", "vin": [{"sequence": 4294967295, "scriptSig": {"hex": "483045022100de6fc3651532b5e1010c57fb6ced94e9fe101b1c795d4629c81ccc3ca3e5c94602205d4d0bc0c3b8238324bedc4a2d8a46cb0bb5377e4aba7c0ca379fa69b834d2e2012103ee551fa233981016b3bc907b3151c63da7583ef698333dfe7a63b8334759189b", "asm": "3045022100de6fc3651532b5e1010c57fb6ced94e9fe101b1c795d4629c81ccc3ca3e5c94602205d4d0bc0c3b8238324bedc4a2d8a46cb0bb5377e4aba7c0ca379fa69b834d2e2[ALL] 03ee551fa233981016b3bc907b3151c63da7583ef698333dfe7a63b8334759189b"}, "vout": 0, "txid": "2c47151b9b2075801300474e177ec43deb6cb528fa67eac6bffab582c36ee1cd"}, {"sequence": 4294967295, "scriptSig": {"hex": "4830450221008ae2a9e0c5e44f9cc8e21b402f5af992e2998733cb2a7cd69a884cbc3f98e2720220291f7eafc8d36945861d111e1aee9a43adfa3985faba530d7722714922144e7c01210293e3e18db44f0ff6bbc708804ec3b32ac2d82751a918c76769521c18a127d1e4", "asm": "30450221008ae2a9e0c5e44f9cc8e21b402f5af992e2998733cb2a7cd69a884cbc3f98e2720220291f7eafc8d36945861d111e1aee9a43adfa3985faba530d7722714922144e7c[ALL] 0293e3e18db44f0ff6bbc708804ec3b32ac2d82751a918c76769521c18a127d1e4"}, "vout": 0, "txid": "3194124b3f148798032dff198cc96de01fbc63e7c2849a1c52774babee9dbe13"}, {"sequence": 4294967295, "scriptSig": {"hex": "48304502210085f96d5f4a3f798b76436f121c0c8be526558d6b56cabb5449343aebab2e967f022000ae5b7da676391bffcf82cbd3d350e41faa13bea7efbc2fd90a47716a3c4e75012102ab7dfd9436dccfc61c3d87172fe7c072e1edb5bad9685e79f66cac746462a9dc", "asm": "304502210085f96d5f4a3f798b76436f121c0c8be526558d6b56cabb5449343aebab2e967f022000ae5b7da676391bffcf82cbd3d350e41faa13bea7efbc2fd90a47716a3c4e75[ALL] 02ab7dfd9436dccfc61c3d87172fe7c072e1edb5bad9685e79f66cac746462a9dc"}, "vout": 0, "txid": "4d7b0681028a9643214b3f8ee9f7ab7423325808ee7dda61c8ccdbb3e292d40d"}, {"sequence": 4294967295, "scriptSig": {"hex": "483045022100bf9a6ad451cf0ee1547d7ffe4b4167d42322e3f0bd40d0b749f30ab7c9bc37c002202baf6ddb4b34dabaea890a2fd3b9e6cb6ffc199a01d3289d1a4aa7d087b4e7790121025b5bd3093c59e618b0295f73aed7cd0b33494e68d7455ed99ee4e18c496e616c", "asm": "3045022100bf9a6ad451cf0ee1547d7ffe4b4167d42322e3f0bd40d0b749f30ab7c9bc37c002202baf6ddb4b34dabaea890a2fd3b9e6cb6ffc199a01d3289d1a4aa7d087b4e779[ALL] 025b5bd3093c59e618b0295f73aed7cd0b33494e68d7455ed99ee4e18c496e616c"}, "vout": 0, "txid": "c9bd482f0ce6e29603b5b71127d5319d3bac3879e3e3bc3d5b91f2003c6b2596"}, {"sequence": 4294967295, "scriptSig": {"hex": "483045022100da42144780a0d3f15e8f9f02a3905dd380b2943b8128bab989c5d090260263b602200acfc2220f313c2d5d701b8099501fe320711fbbc213c335e110c79c1625bbe401210374167830db0a10590fdd80914762810e0660482a7c6916388329825f17032504", "asm": "3045022100da42144780a0d3f15e8f9f02a3905dd380b2943b8128bab989c5d090260263b602200acfc2220f313c2d5d701b8099501fe320711fbbc213c335e110c79c1625bbe4[ALL] 0374167830db0a10590fdd80914762810e0660482a7c6916388329825f17032504"}, "vout": 18, "txid": "cbbc03156decd79c0b434704cf141e6aff5dc577d6e487a10aebb635da0d5f39"}], "txid": "17f3cfdfdcb467aecc785e31fe4ccafdf215b12c06546fe156a8762702ca3d89", "blocktime": 1537873891, "version": 1, "confirmations": 11478, "time": 1537873891, "locktime": 0, "vsize": 816, "size": 816}