{"hash": "17f829dfe10d68171c9bc5e83ec2ff469bc52b47d69825dbd3748fab96c5b114", "blockhash": "0000000000000000001e0dab787dd257d1dbfcb92a98c2207d5e1078be1f4165", "vout": [{"scriptPubKey": {"reqSigs": 1, "hex": "76a9147c2358eb0fd9e2b8f5208a65246d915c1cefb6f288ac", "addresses": ["1CKP8mFgnGcKZZvsmnFshbedDEqZDWcdnr"], "asm": "OP_DUP OP_HASH160 7c2358eb0fd9e2b8f5208a65246d915c1cefb6f2 OP_EQUALVERIFY OP_CHECKSIG", "type": "pubkeyhash"}, "value": 1.010578, "n": 0}, {"scriptPubKey": {"reqSigs": 1, "hex": "76a91409e98d81042bf81a59e8193320f5f67dc1bc456588ac", "addresses": ["1uQsFrGDngqkMC3XRqSpcyNxRZpxUzEDg"], "asm": "OP_DUP OP_HASH160 09e98d81042bf81a59e8193320f5f67dc1bc4565 OP_EQUALVERIFY OP_CHECKSIG", "type": "pubkeyhash"}, "value": 0.11541921, "n": 1}], "hex": "0100000001168e46bf46535058e0249542647990833b6fb94deada391e01f4b2af7d7ba465040000006b483045022100f47030969ab9063da6f8ce2392ec3bf6d4fa93d36df2524c0c1a5bfc4543f25102207c3ad151dcef391d198aa7b4b1f59f2e9b94c8a44c0d26869dba1e14530216f0012102a05102350602280bca2a6267913e08a078e6d7817e87389efdc510338db4f971ffffffff0208050606000000001976a9147c2358eb0fd9e2b8f5208a65246d915c1cefb6f288aca11db000000000001976a91409e98d81042bf81a59e8193320f5f67dc1bc456588ac00000000", "vin": [{"sequence": 4294967295, "scriptSig": {"hex": "483045022100f47030969ab9063da6f8ce2392ec3bf6d4fa93d36df2524c0c1a5bfc4543f25102207c3ad151dcef391d198aa7b4b1f59f2e9b94c8a44c0d26869dba1e14530216f0012102a05102350602280bca2a6267913e08a078e6d7817e87389efdc510338db4f971", "asm": "3045022100f47030969ab9063da6f8ce2392ec3bf6d4fa93d36df2524c0c1a5bfc4543f25102207c3ad151dcef391d198aa7b4b1f59f2e9b94c8a44c0d26869dba1e14530216f0[ALL] 02a05102350602280bca2a6267913e08a078e6d7817e87389efdc510338db4f971"}, "vout": 4, "txid": "65a47b7dafb2f4011e39daea4db96f3b83907964429524e058505346bf468e16"}], "txid": "17f829dfe10d68171c9bc5e83ec2ff469bc52b47d69825dbd3748fab96c5b114", "blocktime": 1537872475, "version": 1, "confirmations": 11487, "time": 1537872475, "locktime": 0, "vsize": 226, "size": 226}