{"hash": "17f9986fe522c847d065fb0c2f2d1054e36b6b51fb83f1c8067989ab542666fd", "blockhash": "0000000000000000000baef3f32e3676a92c3b2e5da21b426e4f302fc371ce76", "vout": [{"scriptPubKey": {"reqSigs": 1, "hex": "76a914b99eb675fe1e29a27f240c3f1df49d8f8890515388ac", "addresses": ["1HvU93VbprTRDd5Wg6QrzjmraWwZaVmdoB"], "asm": "OP_DUP OP_HASH160 b99eb675fe1e29a27f240c3f1df49d8f88905153 OP_EQUALVERIFY OP_CHECKSIG", "type": "pubkeyhash"}, "value": 0.0132, "n": 0}, {"scriptPubKey": {"reqSigs": 1, "hex": "76a9142b6a2cdf5536fa7021abd0f2039cb7661779efdd88ac", "addresses": ["14xZFSL1t1DkZjXp5vm8mhEYeQQWfGJpsY"], "asm": "OP_DUP OP_HASH160 2b6a2cdf5536fa7021abd0f2039cb7661779efdd OP_EQUALVERIFY OP_CHECKSIG", "type": "pubkeyhash"}, "value": 0.06357514, "n": 1}], "hex": "01000000010a3afd218361b05462a9e8b8cf1fd565cd9e359bfdd3abe7f1ffefd4ee5efb6d010000006b4830450221008a1467d8aa7e7e3e03671c9f60d7a63e260eea17fd39c6f6d62b0f4d421ddcfa02203d3f7bb19a41741879792092aa55c4858353b3ef7df32a537b16d85bd6e975130121038214a4b059cc572a9470a58c4c96bf3bafc1f1fef602604fc7c9a57876d3aca3ffffffff0240241400000000001976a914b99eb675fe1e29a27f240c3f1df49d8f8890515388ac0a026100000000001976a9142b6a2cdf5536fa7021abd0f2039cb7661779efdd88ac00000000", "vin": [{"sequence": 4294967295, "scriptSig": {"hex": "4830450221008a1467d8aa7e7e3e03671c9f60d7a63e260eea17fd39c6f6d62b0f4d421ddcfa02203d3f7bb19a41741879792092aa55c4858353b3ef7df32a537b16d85bd6e975130121038214a4b059cc572a9470a58c4c96bf3bafc1f1fef602604fc7c9a57876d3aca3", "asm": "30450221008a1467d8aa7e7e3e03671c9f60d7a63e260eea17fd39c6f6d62b0f4d421ddcfa02203d3f7bb19a41741879792092aa55c4858353b3ef7df32a537b16d85bd6e97513[ALL] 038214a4b059cc572a9470a58c4c96bf3bafc1f1fef602604fc7c9a57876d3aca3"}, "vout": 1, "txid": "6dfb5eeed4effff1e7abd3fd9b359ecd65d51fcfb8e8a96254b0618321fd3a0a"}], "txid": "17f9986fe522c847d065fb0c2f2d1054e36b6b51fb83f1c8067989ab542666fd", "blocktime": 1537876114, "version": 1, "confirmations": 11460, "time": 1537876114, "locktime": 0, "vsize": 226, "size": 226}