{"hash": "180049362c256139e981f6dff6190d342a51508e285108c442ccb7ea8b03880a", "blockhash": "0000000000000000001f76057863aec43deb6fa401d9628bb513d65a8098bfab", "vout": [{"scriptPubKey": {"reqSigs": 1, "hex": "76a914585e94c1340bcdf49365225979a06efd9b7e936888ac", "addresses": ["194FmVNofedGRYsqEkgKwmRtCeh2Cqj4xh"], "asm": "OP_DUP OP_HASH160 585e94c1340bcdf49365225979a06efd9b7e9368 OP_EQUALVERIFY OP_CHECKSIG", "type": "pubkeyhash"}, "value": 0.00170566, "n": 0}, {"scriptPubKey": {"reqSigs": 1, "hex": "76a9144e184787f59ff3c237e3461fa8a05c3945ec3efa88ac", "addresses": ["187vnvjBbWnjr7p5znaBCFdzMvGBcRVMJd"], "asm": "OP_DUP OP_HASH160 4e184787f59ff3c237e3461fa8a05c3945ec3efa OP_EQUALVERIFY OP_CHECKSIG", "type": "pubkeyhash"}, "value": 0.02207525, "n": 1}], "hex": "0100000001a3ea2fb37da63ca75051896505ef8afcbb3bd55884d8fb51dddc3233a2e7c3a2010000006a47304402203883f706096579f8b9aca02664c9ef475d1948c0a22d734f580737e08581bce502203b5a17193837f7bd73fc4092bd507bcfe67d1bf4632a4e5308bbad8f5a58cfc8012102084ffee1d02b309e040ee57c8a71ac03154564c1a198bf466b6f3708fe1a4fe5ffffffff02469a0200000000001976a914585e94c1340bcdf49365225979a06efd9b7e936888ac25af2100000000001976a9144e184787f59ff3c237e3461fa8a05c3945ec3efa88ac00000000", "vin": [{"sequence": 4294967295, "scriptSig": {"hex": "47304402203883f706096579f8b9aca02664c9ef475d1948c0a22d734f580737e08581bce502203b5a17193837f7bd73fc4092bd507bcfe67d1bf4632a4e5308bbad8f5a58cfc8012102084ffee1d02b309e040ee57c8a71ac03154564c1a198bf466b6f3708fe1a4fe5", "asm": "304402203883f706096579f8b9aca02664c9ef475d1948c0a22d734f580737e08581bce502203b5a17193837f7bd73fc4092bd507bcfe67d1bf4632a4e5308bbad8f5a58cfc8[ALL] 02084ffee1d02b309e040ee57c8a71ac03154564c1a198bf466b6f3708fe1a4fe5"}, "vout": 1, "txid": "a2c3e7a23332dcdd51fbd88458d53bbbfc8aef0565895150a73ca67db32feaa3"}], "txid": "180049362c256139e981f6dff6190d342a51508e285108c442ccb7ea8b03880a", "blocktime": 1537873891, "version": 1, "confirmations": 11479, "time": 1537873891, "locktime": 0, "vsize": 225, "size": 225}