{"hash": "1803054b255f86c408550b28b2ed4fa832653e100be19e255ce2beb25ee07fa4", "blockhash": "00000000000000000024a2167bbff67b0be802c0b01cdd79e6331c2be6459f87", "vout": [{"scriptPubKey": {"reqSigs": 1, "hex": "76a91446ae444c0410ce7c51daf9f39272df61d03bf66888ac", "addresses": ["17Sj4hQRNAjTDXh1wgANTAbvZRR7cd2NJN"], "asm": "OP_DUP OP_HASH160 46ae444c0410ce7c51daf9f39272df61d03bf668 OP_EQUALVERIFY OP_CHECKSIG", "type": "pubkeyhash"}, "value": 0.0034735, "n": 0}, {"scriptPubKey": {"type": "nulldata", "hex": "6a146f6d6e69000000000000001f0000000a14e19100", "asm": "OP_RETURN 6f6d6e69000000000000001f0000000a14e19100"}, "value": 0.0, "n": 1}, {"scriptPubKey": {"reqSigs": 1, "hex": "76a914e004004a401e9e445e38eeae243c3f54bee3a51088ac", "addresses": ["1MRV9yUDLdUaBb4wz95RUEVomKu7YokNUy"], "asm": "OP_DUP OP_HASH160 e004004a401e9e445e38eeae243c3f54bee3a510 OP_EQUALVERIFY OP_CHECKSIG", "type": "pubkeyhash"}, "value": 5.46e-06, "n": 2}], "hex": "0100000002e1dccf45dce3691aeee5340a56ab79fe40432fdb254ce93927e5912337d00727010000006a47304402201b6d1d333f783aa1846486640a81448b28fe0bebe10dcafa6914b9538b20a2b2022029c3f4bcebd10fd8c7c84717ac670d3c4cc655548e260289b67eae589899857b0121027a11f0a6a3d8ccdece8d01a518953c743a9f5f09950f61e90d7182d33a4f8426ffffffff2398728cfd56947da6933a4f55e989a1d02f7d87a0e2dceb11cca7899771d235000000006b483045022100b545c281ffe0b89ac8e4d92a2d256f9c5ed4ec24d188387a9c8e034b8000bc1d02203a3968a6311ecefac944580d6dbcdb38093a2296024bf2585c23b2f710b2af1c0121023b6d8cd84467cfe6fe831bbdf44cb20cb3180001523862a359bd0bb5ada5b7ecffffffff03d64c0500000000001976a91446ae444c0410ce7c51daf9f39272df61d03bf66888ac0000000000000000166a146f6d6e69000000000000001f0000000a14e1910022020000000000001976a914e004004a401e9e445e38eeae243c3f54bee3a51088ac00000000", "vin": [{"sequence": 4294967295, "scriptSig": {"hex": "47304402201b6d1d333f783aa1846486640a81448b28fe0bebe10dcafa6914b9538b20a2b2022029c3f4bcebd10fd8c7c84717ac670d3c4cc655548e260289b67eae589899857b0121027a11f0a6a3d8ccdece8d01a518953c743a9f5f09950f61e90d7182d33a4f8426", "asm": "304402201b6d1d333f783aa1846486640a81448b28fe0bebe10dcafa6914b9538b20a2b2022029c3f4bcebd10fd8c7c84717ac670d3c4cc655548e260289b67eae589899857b[ALL] 027a11f0a6a3d8ccdece8d01a518953c743a9f5f09950f61e90d7182d33a4f8426"}, "vout": 1, "txid": "2707d0372391e52739e94c25db2f4340fe79ab560a34e5ee1a69e3dc45cfdce1"}, {"sequence": 4294967295, "scriptSig": {"hex": "483045022100b545c281ffe0b89ac8e4d92a2d256f9c5ed4ec24d188387a9c8e034b8000bc1d02203a3968a6311ecefac944580d6dbcdb38093a2296024bf2585c23b2f710b2af1c0121023b6d8cd84467cfe6fe831bbdf44cb20cb3180001523862a359bd0bb5ada5b7ec", "asm": "3045022100b545c281ffe0b89ac8e4d92a2d256f9c5ed4ec24d188387a9c8e034b8000bc1d02203a3968a6311ecefac944580d6dbcdb38093a2296024bf2585c23b2f710b2af1c[ALL] 023b6d8cd84467cfe6fe831bbdf44cb20cb3180001523862a359bd0bb5ada5b7ec"}, "vout": 0, "txid": "35d2719789a7cc11ebdce2a0877d2fd0a189e9554f3a93a67d9456fd8c729823"}], "txid": "1803054b255f86c408550b28b2ed4fa832653e100be19e255ce2beb25ee07fa4", "blocktime": 1537870564, "version": 1, "confirmations": 11515, "time": 1537870564, "locktime": 0, "vsize": 404, "size": 404}