{"hash": "7c1dbefeaf7689d7a148358a9abc2fec60976b1af5336514d487f01b345c9ab6", "blockhash": "0000000000000000000dcc0f55137456b1a82d3642486a52398922ac4d620174", "vout": [{"scriptPubKey": {"reqSigs": 1, "hex": "a91466226561d1367c3959cbae03fe05c6f2618036f387", "addresses": ["3B143zGBiJ7iK7dMESJvjYa537NUP1F7Bq"], "asm": "OP_HASH160 66226561d1367c3959cbae03fe05c6f2618036f3 OP_EQUAL", "type": "scripthash"}, "value": 0.014, "n": 0}, {"scriptPubKey": {"reqSigs": 1, "hex": "a914627aa52932456d89054bd84f86246af3b71b93a887", "addresses": ["3Afj4stdiLG9EktGrMbm252ySonnhYaz8v"], "asm": "OP_HASH160 627aa52932456d89054bd84f86246af3b71b93a8 OP_EQUAL", "type": "scripthash"}, "value": 0.70677424, "n": 1}], "hex": "010000000001019a4e72729dd68e48cd54be3857ecf8df7e6a7a1f95a4909672d1dfe9991aeb8301000000232200205fdd641234b13964b223bd85ad2a4a667ca2099df3d42a1d3b45706a8d81abf0ffffffff02c05c15000000000017a91466226561d1367c3959cbae03fe05c6f2618036f387b07336040000000017a914627aa52932456d89054bd84f86246af3b71b93a88704004830450221009ab7e8ee81a83cb802bc481b46c7fdc490514d0db593710ad388e99120bbe7f702206f368a8125c5ea5ee3e4112bd9d0f48718fd83690cb0e5c60a5561e5f610780c01483045022100ac872609ed788b09c1c645bc1a11aef8ea3345f25e56b214d33e6b39e3dba1e90220304253d7dd8d2a2e8bbadd1a0eb2dfa56ed189fc43b9f1067de711262f9a92ce0147522103dcde3832fa56def7b4e783faad1b8af85c3cdd74a5ff4f3c7c216b1075c18da12103c70ae8ded79be1afda73b9ce5ea14a3878908ee160d66a9a717e792bb6db276952ae00000000", "vin": [{"txinwitness": ["", "30450221009ab7e8ee81a83cb802bc481b46c7fdc490514d0db593710ad388e99120bbe7f702206f368a8125c5ea5ee3e4112bd9d0f48718fd83690cb0e5c60a5561e5f610780c01", "3045022100ac872609ed788b09c1c645bc1a11aef8ea3345f25e56b214d33e6b39e3dba1e90220304253d7dd8d2a2e8bbadd1a0eb2dfa56ed189fc43b9f1067de711262f9a92ce01", "522103dcde3832fa56def7b4e783faad1b8af85c3cdd74a5ff4f3c7c216b1075c18da12103c70ae8ded79be1afda73b9ce5ea14a3878908ee160d66a9a717e792bb6db276952ae"], "sequence": 4294967295, "scriptSig": {"hex": "2200205fdd641234b13964b223bd85ad2a4a667ca2099df3d42a1d3b45706a8d81abf0", "asm": "00205fdd641234b13964b223bd85ad2a4a667ca2099df3d42a1d3b45706a8d81abf0"}, "vout": 1, "txid": "83eb1a99e9dfd1729690a4951f7a6a7edff8ec5738be54cd488ed69d72724e9a"}], "txid": "18040e3888d670064abee3460b134611c9ad86d349fd8ccce2db0d0be427f2aa", "blocktime": 1537870268, "version": 1, "confirmations": 11518, "time": 1537870268, "locktime": 0, "vsize": 206, "size": 372}