{"hash": "18099f67633fdda2dc80d72b3536d69a16eeacec589fb8938e7e4ca838e805d1", "blockhash": "00000000000000000018f53835495a110e01622372bf6ae95dc86f2b0ab887b0", "vout": [{"scriptPubKey": {"reqSigs": 1, "hex": "76a914b8e000d60d3409cbbda2c23cb2dc0fc9b867771088ac", "addresses": ["1HrXgKMzku81KfqB4x7v5g9HTrbqZsDJ9q"], "asm": "OP_DUP OP_HASH160 b8e000d60d3409cbbda2c23cb2dc0fc9b8677710 OP_EQUALVERIFY OP_CHECKSIG", "type": "pubkeyhash"}, "value": 0.0037333, "n": 0}, {"scriptPubKey": {"reqSigs": 1, "hex": "76a914b4913807f0ded51ae0bed4c31f2075b298eb9b6188ac", "addresses": ["1HTkbWnXaE62GfMCrpwfeDQYwELhDjhYwm"], "asm": "OP_DUP OP_HASH160 b4913807f0ded51ae0bed4c31f2075b298eb9b61 OP_EQUALVERIFY OP_CHECKSIG", "type": "pubkeyhash"}, "value": 0.01378435, "n": 1}], "hex": "0100000001839bf5a33a45b62985b62efca3c966d735ae64859a5186d52ac0a9da486ebe05010000006b483045022100a7451a226f8173eac3ff7a401e89537621309ac24bcdb241b4c52d9ca19ec72b0220273dba35a3cdbdb0f48e8878b74635512f0982f383b61415070c69f501f1e5b201210298fdb41460e39a010118b8983083b520db3ca5e64dddc991f9211a3e3fe26570ffffffff0252b20500000000001976a914b8e000d60d3409cbbda2c23cb2dc0fc9b867771088ac83081500000000001976a914b4913807f0ded51ae0bed4c31f2075b298eb9b6188ac00000000", "vin": [{"sequence": 4294967295, "scriptSig": {"hex": "483045022100a7451a226f8173eac3ff7a401e89537621309ac24bcdb241b4c52d9ca19ec72b0220273dba35a3cdbdb0f48e8878b74635512f0982f383b61415070c69f501f1e5b201210298fdb41460e39a010118b8983083b520db3ca5e64dddc991f9211a3e3fe26570", "asm": "3045022100a7451a226f8173eac3ff7a401e89537621309ac24bcdb241b4c52d9ca19ec72b0220273dba35a3cdbdb0f48e8878b74635512f0982f383b61415070c69f501f1e5b2[ALL] 0298fdb41460e39a010118b8983083b520db3ca5e64dddc991f9211a3e3fe26570"}, "vout": 1, "txid": "05be6e48daa9c02ad586519a8564ae35d766c9a3fc2eb68529b6453aa3f59b83"}], "txid": "18099f67633fdda2dc80d72b3536d69a16eeacec589fb8938e7e4ca838e805d1", "blocktime": 1537870928, "version": 1, "confirmations": 11512, "time": 1537870928, "locktime": 0, "vsize": 226, "size": 226}