{"hash": "ae3f22a40ca25675c73b285f1535fd8db4f8353398622d8db6d8d4f51a4010a6", "blockhash": "0000000000000000000e13cef7c366c0283d82e591d1acd082e914b08063cdf1", "vout": [{"scriptPubKey": {"reqSigs": 1, "hex": "a914bf096fee2afed15d2bc61ce2dbf226885e41824a87", "addresses": ["3K78HtmqHFUbYyT3W6w8JoggdDvHdnQ3mP"], "asm": "OP_HASH160 bf096fee2afed15d2bc61ce2dbf226885e41824a OP_EQUAL", "type": "scripthash"}, "value": 0.01404, "n": 0}, {"scriptPubKey": {"reqSigs": 1, "hex": "0014ea779ca7692a4b53374ab0229ef477fe121c03c9", "addresses": ["bc1qafmeefmf9f94xd62kq3faarhlcfpcq7fw69sw8"], "asm": "0 ea779ca7692a4b53374ab0229ef477fe121c03c9", "type": "witness_v0_keyhash"}, "value": 1.65120838, "n": 1}], "hex": "0100000000010100b5f95e3e101760fafb60a1a950b3294b17ac9e026d3e6cf18bf8c5880a0b000000000000ffffffff02606c15000000000017a914bf096fee2afed15d2bc61ce2dbf226885e41824a87468bd70900000000160014ea779ca7692a4b53374ab0229ef477fe121c03c9024730440220529f348c0f10bffaa7056089a986d713f67d9bc4c3d84c06ec43a67bc41e3373022042df8f5963361596ae1e361885e2db0057fd262ab7b5a201da9d1f0333add0b0012102752f1023630c21934bf6761a0d4bfa460d716382e45893f4d31aabe9f9aefe3f00000000", "vin": [{"txinwitness": ["30440220529f348c0f10bffaa7056089a986d713f67d9bc4c3d84c06ec43a67bc41e3373022042df8f5963361596ae1e361885e2db0057fd262ab7b5a201da9d1f0333add0b001", "02752f1023630c21934bf6761a0d4bfa460d716382e45893f4d31aabe9f9aefe3f"], "sequence": 4294967295, "scriptSig": {"hex": "", "asm": ""}, "vout": 0, "txid": "000b0a88c5f88bf16c3e6d029eac174b29b350a9a160fbfa6017103e5ef9b500"}], "txid": "180bcb7551f8f169e6a979282219abd227863d3c82e553fdb23617ef70cba2e4", "blocktime": 1537871767, "version": 1, "confirmations": 11495, "time": 1537871767, "locktime": 0, "vsize": 142, "size": 223}