{"hash": "180d97bf88ad81407d7a165d7e66e2cd34495c88c5e8f3dacf39cac29f5085e5", "blockhash": "00000000000000000017f5eb5941039fbcee6240d03bc1f2f8e35350df66a1d8", "vout": [{"scriptPubKey": {"reqSigs": 1, "hex": "76a914c73f3cc51be556814bb98b74642744679439d1d388ac", "addresses": ["1KAXDz7HoA2n48jx2cuKuf1zZ372nzY79h"], "asm": "OP_DUP OP_HASH160 c73f3cc51be556814bb98b74642744679439d1d3 OP_EQUALVERIFY OP_CHECKSIG", "type": "pubkeyhash"}, "value": 0.00032478, "n": 0}, {"scriptPubKey": {"reqSigs": 1, "hex": "76a91434e25652f7c403b58481c7c0e030906895fe201588ac", "addresses": ["15pdHAGVkbWKiwLBFGfTvfnvSEJo2rfpvj"], "asm": "OP_DUP OP_HASH160 34e25652f7c403b58481c7c0e030906895fe2015 OP_EQUALVERIFY OP_CHECKSIG", "type": "pubkeyhash"}, "value": 0.000923, "n": 1}], "hex": "0100000001087fd32c60efd598fb8592aa145738c5cacb44bebc6a6edefa8f164156841901000000006a47304402203e3b593fa2276cc590222ac23ddab808c854f5a4eecc18111a5cd72f43e619b502206c51068ce8ae18aab75c5491c078f3b7a328bd660f9e8c07c1b8e1120dff51d8012103a40ee84dfee27e2965408bdaf86ef6a5d4bb635ff6ab808398594d4b52506ef7ffffffff02de7e0000000000001976a914c73f3cc51be556814bb98b74642744679439d1d388ac8c680100000000001976a91434e25652f7c403b58481c7c0e030906895fe201588ac00000000", "vin": [{"sequence": 4294967295, "scriptSig": {"hex": "47304402203e3b593fa2276cc590222ac23ddab808c854f5a4eecc18111a5cd72f43e619b502206c51068ce8ae18aab75c5491c078f3b7a328bd660f9e8c07c1b8e1120dff51d8012103a40ee84dfee27e2965408bdaf86ef6a5d4bb635ff6ab808398594d4b52506ef7", "asm": "304402203e3b593fa2276cc590222ac23ddab808c854f5a4eecc18111a5cd72f43e619b502206c51068ce8ae18aab75c5491c078f3b7a328bd660f9e8c07c1b8e1120dff51d8[ALL] 03a40ee84dfee27e2965408bdaf86ef6a5d4bb635ff6ab808398594d4b52506ef7"}, "vout": 0, "txid": "0119845641168ffade6e6abcbe44cbcac5385714aa9285fb98d5ef602cd37f08"}], "txid": "180d97bf88ad81407d7a165d7e66e2cd34495c88c5e8f3dacf39cac29f5085e5", "blocktime": 1537874412, "version": 1, "confirmations": 11468, "time": 1537874412, "locktime": 0, "vsize": 225, "size": 225}