{"hash": "181e17aa733296ac7ad47f2a35fcf078966ed1461a1d50839db05d490f04588c", "blockhash": "0000000000000000001e0dab787dd257d1dbfcb92a98c2207d5e1078be1f4165", "vout": [{"scriptPubKey": {"reqSigs": 1, "hex": "76a9144d3427bafe0b13339feb75b74e7df9623f663e0888ac", "addresses": ["183DWaVv9bZx5Ws7AzaEr9sBgQgAAQ98fp"], "asm": "OP_DUP OP_HASH160 4d3427bafe0b13339feb75b74e7df9623f663e08 OP_EQUALVERIFY OP_CHECKSIG", "type": "pubkeyhash"}, "value": 0.03873775, "n": 0}, {"scriptPubKey": {"reqSigs": 1, "hex": "76a914b2c0ade6538bbb6ec264b0468b558f7a5b18450188ac", "addresses": ["1HJA6joaV6s5j2yArYa9byJXyn35v6bySx"], "asm": "OP_DUP OP_HASH160 b2c0ade6538bbb6ec264b0468b558f7a5b184501 OP_EQUALVERIFY OP_CHECKSIG", "type": "pubkeyhash"}, "value": 0.03919779, "n": 1}], "hex": "0100000001269074af1496bb1d69782f422a4cd5b5ed7825a678e40a1148cff3a56c6e6a4f010000006a473044022056c8444fbcb9cdff2db30a0ce02bc8cd0d4031035a5eeb36a5f2e36775dcea5c02206ce5b570b9effd4adc8bc5c6a96de6411981867b2d460d380add47c29d02eae9012102b29c6f4cd970862337ef0a72f1235f8785a495bcc424fad01e22c2269cee3abeffffffff02ef1b3b00000000001976a9144d3427bafe0b13339feb75b74e7df9623f663e0888aca3cf3b00000000001976a914b2c0ade6538bbb6ec264b0468b558f7a5b18450188ac00000000", "vin": [{"sequence": 4294967295, "scriptSig": {"hex": "473044022056c8444fbcb9cdff2db30a0ce02bc8cd0d4031035a5eeb36a5f2e36775dcea5c02206ce5b570b9effd4adc8bc5c6a96de6411981867b2d460d380add47c29d02eae9012102b29c6f4cd970862337ef0a72f1235f8785a495bcc424fad01e22c2269cee3abe", "asm": "3044022056c8444fbcb9cdff2db30a0ce02bc8cd0d4031035a5eeb36a5f2e36775dcea5c02206ce5b570b9effd4adc8bc5c6a96de6411981867b2d460d380add47c29d02eae9[ALL] 02b29c6f4cd970862337ef0a72f1235f8785a495bcc424fad01e22c2269cee3abe"}, "vout": 1, "txid": "4f6a6e6ca5f3cf48110ae478a62578edb5d54c2a422f78691dbb9614af749026"}], "txid": "181e17aa733296ac7ad47f2a35fcf078966ed1461a1d50839db05d490f04588c", "blocktime": 1537872475, "version": 1, "confirmations": 11486, "time": 1537872475, "locktime": 0, "vsize": 225, "size": 225}