{"hash": "ab84e5869b662784c7a83f08b61f2aff034082e3dae5dabd8252e3ebe4fe1ed4", "blockhash": "0000000000000000000dcc0f55137456b1a82d3642486a52398922ac4d620174", "vout": [{"scriptPubKey": {"reqSigs": 1, "hex": "76a9148d3ea1a917d300e0b527fa1e7ad4fc2222d9f33288ac", "addresses": ["1DsqJm5puCeVDWDfNDptpGHkVQrtG5a3aQ"], "asm": "OP_DUP OP_HASH160 8d3ea1a917d300e0b527fa1e7ad4fc2222d9f332 OP_EQUALVERIFY OP_CHECKSIG", "type": "pubkeyhash"}, "value": 0.0031796, "n": 0}, {"scriptPubKey": {"reqSigs": 1, "hex": "a914d890d6cb636bacaf7d059389f82869d3e69b9ad987", "addresses": ["3MS7Pa8rYnVwcPd6XFTN7E1a4SbPRgXRan"], "asm": "OP_HASH160 d890d6cb636bacaf7d059389f82869d3e69b9ad9 OP_EQUAL", "type": "scripthash"}, "value": 0.0100208, "n": 1}], "hex": "0200000000010230d7bc6f5aaaeb97f9fd653653eb811286576a14acef1129ada74cfa462139ef00000000171600144c03116e6a6b2ada2a91b38cb62333d4a7eb2c6ffeffffffe1352b3c93f2761b1ff26378af0224120bacd31e486c9eff64284f41fd3e6a2701000000171600140287b4a6d670510f82d674a7e1f42a2ebbe69a23feffffff0208da0400000000001976a9148d3ea1a917d300e0b527fa1e7ad4fc2222d9f33288ac604a0f000000000017a914d890d6cb636bacaf7d059389f82869d3e69b9ad98702483045022100c6963792f878594e73f62f1325b2d6d7bed2eb443a02d5cfa808ccc64f3839f502200fa19b5cfcb519f237c54265462ce093dff956bc000ee7d746b77781159e254b012103233754856570b8674755e0c63d2dc5f28154671410309344b78576dd90df7dd80247304402201f9d497144b7f4005a0775da921378510d2619ae1a852865d8bd2b001b9628380220680e7bb811c7321855d1f7635b50ab8d0e9b2d9a64df85cb72eb6372fca00693012102ee54c907ef706bfff7a36b293b2abc866c33b040301018a7f5c8e7d4e5fbece00b490800", "vin": [{"txinwitness": ["3045022100c6963792f878594e73f62f1325b2d6d7bed2eb443a02d5cfa808ccc64f3839f502200fa19b5cfcb519f237c54265462ce093dff956bc000ee7d746b77781159e254b01", "03233754856570b8674755e0c63d2dc5f28154671410309344b78576dd90df7dd8"], "sequence": 4294967294, "scriptSig": {"hex": "1600144c03116e6a6b2ada2a91b38cb62333d4a7eb2c6f", "asm": "00144c03116e6a6b2ada2a91b38cb62333d4a7eb2c6f"}, "vout": 0, "txid": "ef392146fa4ca7ad2911efac146a57861281eb533665fdf997ebaa5a6fbcd730"}, {"txinwitness": ["304402201f9d497144b7f4005a0775da921378510d2619ae1a852865d8bd2b001b9628380220680e7bb811c7321855d1f7635b50ab8d0e9b2d9a64df85cb72eb6372fca0069301", "02ee54c907ef706bfff7a36b293b2abc866c33b040301018a7f5c8e7d4e5fbece0"], "sequence": 4294967294, "scriptSig": {"hex": "1600140287b4a6d670510f82d674a7e1f42a2ebbe69a23", "asm": "00140287b4a6d670510f82d674a7e1f42a2ebbe69a23"}, "vout": 1, "txid": "276a3efd414f2864ff9e6c481ed3ac0b122402af7863f21f1b76f2933c2b35e1"}], "txid": "1820f46a4a9c8fc1a0977d131984eea8bf8f129dee79b6ecfc52a6cc0e6eecce", "blocktime": 1537870268, "version": 2, "confirmations": 11520, "time": 1537870268, "locktime": 542987, "vsize": 259, "size": 421}