{"hash": "951b51da2ed674ab0d374fe472fca031f3c0d5aa74f4e469b54c396dacb6f384", "blockhash": "000000000000000000022b45ed06c6f4ccd3cf7fb5ba4856ebd2e58215665228", "vout": [{"scriptPubKey": {"reqSigs": 1, "hex": "a9140685936f740c9813968d2754b444c15d28303a9a87", "addresses": ["32HVziGWQJpyQVcPVuxxFZYoQTV7LrGSJF"], "asm": "OP_HASH160 0685936f740c9813968d2754b444c15d28303a9a OP_EQUAL", "type": "scripthash"}, "value": 0.00999756, "n": 0}, {"scriptPubKey": {"reqSigs": 1, "hex": "76a9142cb445e4631870c4877e299a8dc74e82bdb3260988ac", "addresses": ["155Nh2hXkoK5oPuZ9dmDoWEwFvJ7CYcYua"], "asm": "OP_DUP OP_HASH160 2cb445e4631870c4877e299a8dc74e82bdb32609 OP_EQUALVERIFY OP_CHECKSIG", "type": "pubkeyhash"}, "value": 0.0051056, "n": 1}], "hex": "0200000000010225b304dd025c68ed88f0e69724a19a2535254c38e396d31723dd5d2c176bb5cc0000000017160014fb79761f2315b217366712a00c00a947d3417e67feffffffb8e7d0ad8ffb8d2d0b4b249f8c7b07c47ab3f64f77eef39428c04f2f512694730000000017160014e038c2cd2ef54178406e498b8e7fa6aefb3fd451feffffff024c410f000000000017a9140685936f740c9813968d2754b444c15d28303a9a8760ca0700000000001976a9142cb445e4631870c4877e299a8dc74e82bdb3260988ac0247304402200363a7d791e4ea41ecdd1c63ac3b299b9f107dfa57e7654ba603f260cc754a97022060711ad7775ec0ac5ae6bd76a0f4754ed8585cd287e90e08b552fd0e1ce6d4d001210225de8476b26120aec3783ea27d270ba5e23c55c0a2c84b775a6be0cb1ca4e9440248304502210091930515d7b7a2a4e4c4594ba85f7cbea7babb6fff406ee0cd1e267c61f9cc6c02204ac6df2cb188008082d239262a59cada52c326a258bc20b43bc25f093217292d012102b9bf9b7a978b76ee584e29ef31b2a22ce74f3cd2ae7507c7330661e847a8962a0b490800", "vin": [{"txinwitness": ["304402200363a7d791e4ea41ecdd1c63ac3b299b9f107dfa57e7654ba603f260cc754a97022060711ad7775ec0ac5ae6bd76a0f4754ed8585cd287e90e08b552fd0e1ce6d4d001", "0225de8476b26120aec3783ea27d270ba5e23c55c0a2c84b775a6be0cb1ca4e944"], "sequence": 4294967294, "scriptSig": {"hex": "160014fb79761f2315b217366712a00c00a947d3417e67", "asm": "0014fb79761f2315b217366712a00c00a947d3417e67"}, "vout": 0, "txid": "ccb56b172c5ddd2317d396e3384c2535259aa12497e6f088ed685c02dd04b325"}, {"txinwitness": ["304502210091930515d7b7a2a4e4c4594ba85f7cbea7babb6fff406ee0cd1e267c61f9cc6c02204ac6df2cb188008082d239262a59cada52c326a258bc20b43bc25f093217292d01", "02b9bf9b7a978b76ee584e29ef31b2a22ce74f3cd2ae7507c7330661e847a8962a"], "sequence": 4294967294, "scriptSig": {"hex": "160014e038c2cd2ef54178406e498b8e7fa6aefb3fd451", "asm": "0014e038c2cd2ef54178406e498b8e7fa6aefb3fd451"}, "vout": 0, "txid": "739426512f4fc02894f3ee774ff6b37ac4077b8c9f244b0b2d8dfb8fadd0e7b8"}], "txid": "18236f1b08d8c9b206dd65cf01271d8f57b688113bdf03e7353caea5e16472c0", "blocktime": 1537869901, "version": 2, "confirmations": 11524, "time": 1537869901, "locktime": 542987, "vsize": 259, "size": 421}