{"hash": "c9af79f87657d701547855773b95aaecd6cb71a1c0c5cdda326b9ae79e371abb", "blockhash": "000000000000000000022b45ed06c6f4ccd3cf7fb5ba4856ebd2e58215665228", "vout": [{"scriptPubKey": {"reqSigs": 1, "hex": "a914b51295f25b4b951feefe788964c2ba734df4d04a87", "addresses": ["3JCSVd9y5VhDK4ARHkGv6CNmNX5tMQ91up"], "asm": "OP_HASH160 b51295f25b4b951feefe788964c2ba734df4d04a OP_EQUAL", "type": "scripthash"}, "value": 0.01, "n": 0}, {"scriptPubKey": {"reqSigs": 1, "hex": "a9143da8142c4a9686b6c71d9c489b680ab18510e70f87", "addresses": ["37K2VZjg2HZd6oZwABoSWPqbanmtVBoEFu"], "asm": "OP_HASH160 3da8142c4a9686b6c71d9c489b680ab18510e70f OP_EQUAL", "type": "scripthash"}, "value": 5.78733984, "n": 1}], "hex": "020000000001010e2f0495fe6d716f2848f6c49f5cd1910567ba5e548be7402cb577ebf622c73c0100000017160014bba3f255537641ddfdbbfa39206f95bffa988a56feffffff0240420f000000000017a914b51295f25b4b951feefe788964c2ba734df4d04a87a0c77e220000000017a9143da8142c4a9686b6c71d9c489b680ab18510e70f8702483045022100a4a072c9944c99566a93d5393a844e01045e1957f6009ffbbbb68e56f841101302201ab06237fb0355d96500cad853b5c543337a5e3096620151b251faf2d0c86d070121033013308eed31ae30cfaff48cf8fa2fe67b1a45b07c0d2ea11b7d302c8105da100b490800", "vin": [{"txinwitness": ["3045022100a4a072c9944c99566a93d5393a844e01045e1957f6009ffbbbb68e56f841101302201ab06237fb0355d96500cad853b5c543337a5e3096620151b251faf2d0c86d0701", "033013308eed31ae30cfaff48cf8fa2fe67b1a45b07c0d2ea11b7d302c8105da10"], "sequence": 4294967294, "scriptSig": {"hex": "160014bba3f255537641ddfdbbfa39206f95bffa988a56", "asm": "0014bba3f255537641ddfdbbfa39206f95bffa988a56"}, "vout": 1, "txid": "3cc722f6eb77b52c40e78b545eba670591d15c9fc4f648286f716dfe95042f0e"}], "txid": "1825462236d73dd9076eb80d5f0dee349622f9ae1b5e0101a9501bc4c656ef94", "blocktime": 1537869901, "version": 2, "confirmations": 11524, "time": 1537869901, "locktime": 542987, "vsize": 166, "size": 248}