{"hash": "1825cbd4c56c232791bc2d38dbd98e7af1ea89104e09f774ba6d31255136a283", "blockhash": "0000000000000000000e13cef7c366c0283d82e591d1acd082e914b08063cdf1", "vout": [{"scriptPubKey": {"reqSigs": 1, "hex": "76a9144c08ec77f4449f8f43bc29207a0cf3fb8cfb296e88ac", "addresses": ["17w33cKn2kv7q2cwTqbx53jTcUQCiavP4S"], "asm": "OP_DUP OP_HASH160 4c08ec77f4449f8f43bc29207a0cf3fb8cfb296e OP_EQUALVERIFY OP_CHECKSIG", "type": "pubkeyhash"}, "value": 0.01252, "n": 0}, {"scriptPubKey": {"reqSigs": 1, "hex": "76a914d233ede227a37a7428070d44828c63bca0291ddf88ac", "addresses": ["1LAT7PfH4Fg5dbzNjkbf9dt4hCtWvv4TjG"], "asm": "OP_DUP OP_HASH160 d233ede227a37a7428070d44828c63bca0291ddf OP_EQUALVERIFY OP_CHECKSIG", "type": "pubkeyhash"}, "value": 0.00104942, "n": 1}], "hex": "010000000161de369ff2aa31d06ce6d3075238120e2503417c82bc9277df1e2f7f2178e24f010000006a473044022047dbdebc7a2aeca0be379e78284c41fda0e40a8055bf9db31b4e95b82e4c1c5c02206c8306e039c9e3d525658ea9c76c730506d79dda78c4ff489ba00c8c78ce2a5b0121039d01c0d2079645ea7b9dd0f4b0825202ebd65f9e87d4b592a02ab27c7d09367affffffff02a01a1300000000001976a9144c08ec77f4449f8f43bc29207a0cf3fb8cfb296e88acee990100000000001976a914d233ede227a37a7428070d44828c63bca0291ddf88ac00000000", "vin": [{"sequence": 4294967295, "scriptSig": {"hex": "473044022047dbdebc7a2aeca0be379e78284c41fda0e40a8055bf9db31b4e95b82e4c1c5c02206c8306e039c9e3d525658ea9c76c730506d79dda78c4ff489ba00c8c78ce2a5b0121039d01c0d2079645ea7b9dd0f4b0825202ebd65f9e87d4b592a02ab27c7d09367a", "asm": "3044022047dbdebc7a2aeca0be379e78284c41fda0e40a8055bf9db31b4e95b82e4c1c5c02206c8306e039c9e3d525658ea9c76c730506d79dda78c4ff489ba00c8c78ce2a5b[ALL] 039d01c0d2079645ea7b9dd0f4b0825202ebd65f9e87d4b592a02ab27c7d09367a"}, "vout": 1, "txid": "4fe278217f2f1edf7792bc827c4103250e12385207d3e66cd031aaf29f36de61"}], "txid": "1825cbd4c56c232791bc2d38dbd98e7af1ea89104e09f774ba6d31255136a283", "blocktime": 1537871767, "version": 1, "confirmations": 11495, "time": 1537871767, "locktime": 0, "vsize": 225, "size": 225}