{"hash": "1826b5e2c80bd7f36de40d6e4248bc16bde79760f3c074491351bdbd878fc6e2", "blockhash": "00000000000000000024a2167bbff67b0be802c0b01cdd79e6331c2be6459f87", "vout": [{"scriptPubKey": {"reqSigs": 1, "hex": "76a91487fee03f937fc19b254e67b125e3f0a77dc5b76188ac", "addresses": ["1DQ5YzRG3zUoPY5dkzrhpYY8BdqkLzt6bW"], "asm": "OP_DUP OP_HASH160 87fee03f937fc19b254e67b125e3f0a77dc5b761 OP_EQUALVERIFY OP_CHECKSIG", "type": "pubkeyhash"}, "value": 0.00166677, "n": 0}, {"scriptPubKey": {"reqSigs": 1, "hex": "76a91415a31c6d1da4f361bc022847214a36737903b8e088ac", "addresses": ["12yQbBZrU1oDqrWyYzdz98Mtes7UUcebzC"], "asm": "OP_DUP OP_HASH160 15a31c6d1da4f361bc022847214a36737903b8e0 OP_EQUALVERIFY OP_CHECKSIG", "type": "pubkeyhash"}, "value": 0.0233939, "n": 1}], "hex": "010000000d00ba05417a24bd917b58fd216780c20c1fd9b101d16b32ab41cb13bcc1301b13000000006a47304402200dd0583ab190fb43b2fbbc72cb39e777a8cc15834453bf2fada8b927ab01aee502201e425765c95ccdc8450f111add4ea9b9df6c239753bbeaca5f512c98fe930e0f0121024bed1c2ea1f7cbf7cbf391c300bf4a3f27a55001b73c74b5b4c8d723259dea51ffffffffbccf40fae0a9affb96b76c644831df62f698d31b55fd382b2792ae841cbf411e000000006a47304402202900d563ab1076314840d70c7c68b3eb36609055d8e1c8079bde81d7f880d0b9022015a67e6961d4ab16155411bd3b17646a2c8035dcb958fdae094ebd8be5638d500121024bed1c2ea1f7cbf7cbf391c300bf4a3f27a55001b73c74b5b4c8d723259dea51ffffffffac1d5de399b8ba2edf43617213880089a563f437ea8740f5e552736095a19d26000000006a47304402200f3cff500f271f8c071c6bf3e6e78bbd7fe4eed88716b252aeb27333d44fea5a02204478e5018b3259e31bc7ce6a159f6a67a57c4ffad5e39e5e746a8928b0b36de40121024bed1c2ea1f7cbf7cbf391c300bf4a3f27a55001b73c74b5b4c8d723259dea51ffffffffa9c595a67908660bdc8ed9a3d0d5b692c0e44079d38966e365ab3a6f669f2f29000000006b483045022100a5387918052b03cec100769f11585941047f000324a7f7a8b1f69352e89f1f9a02205eeb8969cf99ba0fcfb622bd363baf5056d5ffdc765a1d017aafcc7bc4a719cc0121024bed1c2ea1f7cbf7cbf391c300bf4a3f27a55001b73c74b5b4c8d723259dea51ffffffff2b208180c38cbaadf085b9a045744888a87fa982c82f39f47df5780f80b27c38000000006b483045022100c39a607ffe94cde98d425fccf698f1f3423dca0eea15b7b4792a88568d682f3e02207afd362f45d3e4a46b714f850bd4713d32e12a46f6a4aea9fa12456ab8af97080121024bed1c2ea1f7cbf7cbf391c300bf4a3f27a55001b73c74b5b4c8d723259dea51ffffffff64c2b69340ae289c4a152bcd8e6fbddd0a181ef3757aac88583cd44552bd8538000000006b483045022100d78aada22a7288041b96a214271772409cb1236a305c54cfcf46412fcc5301f902202d788241ae3b78bc88701375ff6d13dcee909828e1098695c7f085ead97a69030121024bed1c2ea1f7cbf7cbf391c300bf4a3f27a55001b73c74b5b4c8d723259dea51ffffffff84d46b5b8e238390ad80375550950ab9f2a9aaf527420ee5e582e24b96ec8a3b000000006a473044022052e2c602e53ad30317b952262f7ea01f5d9e826ccd8e5f7837e415e16f5622b702207b2a4126ede4b472fd09feb09e9fb1a773823b30641e8a55aa21ef47d938bb0f0121024bed1c2ea1f7cbf7cbf391c300bf4a3f27a55001b73c74b5b4c8d723259dea51ffffffff9cfbf01474c11a7351e67dd228552e658dffd630977ad4b5759455289a22e942000000006b483045022100f101e800208aa36ea35677e298ca71fc047dfcf8e22f819277f2f9980771626e02202342e76b00297a9ca811b0ebe6e3fac585c0fa4dd3404254d6498fd964b65df80121024bed1c2ea1f7cbf7cbf391c300bf4a3f27a55001b73c74b5b4c8d723259dea51ffffffff008415e53b2badfb439c772609bfc7bea85756bf9920c5d4cd563284a6bdc66a000000006a47304402206c6ab9f7afae642748ded11e10deae95900b95f0daa4ae26ccb4581393cad74d02207246d0f462d9c66eb9dc82c30e77502bef87fddac961969b09c0091bb5311b320121024bed1c2ea1f7cbf7cbf391c300bf4a3f27a55001b73c74b5b4c8d723259dea51ffffffff4df461b186835328fda42248caa6c5b807829d6885959454225a3b7dc808926e000000006b483045022100eb485732d54a0d27e3f17052a42b8e747088f57c81d6d052959f70d8b514234702204345eebb9f081d8ecca34925646c8a9479249cc5614453149acb953398d9967d0121024bed1c2ea1f7cbf7cbf391c300bf4a3f27a55001b73c74b5b4c8d723259dea51ffffffff8d475a5e05887bd8ba88319ad81a36d4c500176a0ce452cbcd49355678578376000000006b483045022100fc91fb1f48b71577c355db9cb05442cc4f98c2544533d4f3b103e133430cc35202203913537c8a8ca8435f29a8f9080c4eeaa7a007e71f3fb4c33bc32e452cd36333012103c651afb2954ac876f9c85d3794d72d2aee71c42776af2bd5594a64c1b7b2dc32ffffffff168c7481c8b49a564b916e63b3b05dd94d13931edfe648f750c80c08584fce76000000006a473044022076d82c242ebc553314d5fd5ce349775d93d3da969596321d5178377b5bffa3db02205f890c23d635e1fd98af3e1bcce4410aebd9743efcd5215840a13cdd6b8841f00121024bed1c2ea1f7cbf7cbf391c300bf4a3f27a55001b73c74b5b4c8d723259dea51ffffffffa13e05d6896fb6698b7161a8e7a9fb0ccd082dfa4d0c279947409ce0c7c7fdd5000000006a47304402202fa123783dbe7aee3ab7fe24cd021184d680f8e121d7044bda2e22255e46311402207cee74f8834c4aec10928aa8563388d06ef9ff7b538db10fd0715f0c84e5d44c0121024bed1c2ea1f7cbf7cbf391c300bf4a3f27a55001b73c74b5b4c8d723259dea51ffffffff02158b0200000000001976a91487fee03f937fc19b254e67b125e3f0a77dc5b76188ac3eb22300000000001976a91415a31c6d1da4f361bc022847214a36737903b8e088ac00000000", "vin": [{"sequence": 4294967295, "scriptSig": {"hex": "47304402200dd0583ab190fb43b2fbbc72cb39e777a8cc15834453bf2fada8b927ab01aee502201e425765c95ccdc8450f111add4ea9b9df6c239753bbeaca5f512c98fe930e0f0121024bed1c2ea1f7cbf7cbf391c300bf4a3f27a55001b73c74b5b4c8d723259dea51", "asm": "304402200dd0583ab190fb43b2fbbc72cb39e777a8cc15834453bf2fada8b927ab01aee502201e425765c95ccdc8450f111add4ea9b9df6c239753bbeaca5f512c98fe930e0f[ALL] 024bed1c2ea1f7cbf7cbf391c300bf4a3f27a55001b73c74b5b4c8d723259dea51"}, "vout": 0, "txid": "131b30c1bc13cb41ab326bd101b1d91f0cc2806721fd587b91bd247a4105ba00"}, {"sequence": 4294967295, "scriptSig": {"hex": "47304402202900d563ab1076314840d70c7c68b3eb36609055d8e1c8079bde81d7f880d0b9022015a67e6961d4ab16155411bd3b17646a2c8035dcb958fdae094ebd8be5638d500121024bed1c2ea1f7cbf7cbf391c300bf4a3f27a55001b73c74b5b4c8d723259dea51", "asm": "304402202900d563ab1076314840d70c7c68b3eb36609055d8e1c8079bde81d7f880d0b9022015a67e6961d4ab16155411bd3b17646a2c8035dcb958fdae094ebd8be5638d50[ALL] 024bed1c2ea1f7cbf7cbf391c300bf4a3f27a55001b73c74b5b4c8d723259dea51"}, "vout": 0, "txid": "1e41bf1c84ae92272b38fd551bd398f662df3148646cb796fbafa9e0fa40cfbc"}, {"sequence": 4294967295, "scriptSig": {"hex": "47304402200f3cff500f271f8c071c6bf3e6e78bbd7fe4eed88716b252aeb27333d44fea5a02204478e5018b3259e31bc7ce6a159f6a67a57c4ffad5e39e5e746a8928b0b36de40121024bed1c2ea1f7cbf7cbf391c300bf4a3f27a55001b73c74b5b4c8d723259dea51", "asm": "304402200f3cff500f271f8c071c6bf3e6e78bbd7fe4eed88716b252aeb27333d44fea5a02204478e5018b3259e31bc7ce6a159f6a67a57c4ffad5e39e5e746a8928b0b36de4[ALL] 024bed1c2ea1f7cbf7cbf391c300bf4a3f27a55001b73c74b5b4c8d723259dea51"}, "vout": 0, "txid": "269da195607352e5f54087ea37f463a589008813726143df2ebab899e35d1dac"}, {"sequence": 4294967295, "scriptSig": {"hex": "483045022100a5387918052b03cec100769f11585941047f000324a7f7a8b1f69352e89f1f9a02205eeb8969cf99ba0fcfb622bd363baf5056d5ffdc765a1d017aafcc7bc4a719cc0121024bed1c2ea1f7cbf7cbf391c300bf4a3f27a55001b73c74b5b4c8d723259dea51", "asm": "3045022100a5387918052b03cec100769f11585941047f000324a7f7a8b1f69352e89f1f9a02205eeb8969cf99ba0fcfb622bd363baf5056d5ffdc765a1d017aafcc7bc4a719cc[ALL] 024bed1c2ea1f7cbf7cbf391c300bf4a3f27a55001b73c74b5b4c8d723259dea51"}, "vout": 0, "txid": "292f9f666f3aab65e36689d37940e4c092b6d5d0a3d98edc0b660879a695c5a9"}, {"sequence": 4294967295, "scriptSig": {"hex": "483045022100c39a607ffe94cde98d425fccf698f1f3423dca0eea15b7b4792a88568d682f3e02207afd362f45d3e4a46b714f850bd4713d32e12a46f6a4aea9fa12456ab8af97080121024bed1c2ea1f7cbf7cbf391c300bf4a3f27a55001b73c74b5b4c8d723259dea51", "asm": "3045022100c39a607ffe94cde98d425fccf698f1f3423dca0eea15b7b4792a88568d682f3e02207afd362f45d3e4a46b714f850bd4713d32e12a46f6a4aea9fa12456ab8af9708[ALL] 024bed1c2ea1f7cbf7cbf391c300bf4a3f27a55001b73c74b5b4c8d723259dea51"}, "vout": 0, "txid": "387cb2800f78f57df4392fc882a97fa888487445a0b985f0adba8cc38081202b"}, {"sequence": 4294967295, "scriptSig": {"hex": "483045022100d78aada22a7288041b96a214271772409cb1236a305c54cfcf46412fcc5301f902202d788241ae3b78bc88701375ff6d13dcee909828e1098695c7f085ead97a69030121024bed1c2ea1f7cbf7cbf391c300bf4a3f27a55001b73c74b5b4c8d723259dea51", "asm": "3045022100d78aada22a7288041b96a214271772409cb1236a305c54cfcf46412fcc5301f902202d788241ae3b78bc88701375ff6d13dcee909828e1098695c7f085ead97a6903[ALL] 024bed1c2ea1f7cbf7cbf391c300bf4a3f27a55001b73c74b5b4c8d723259dea51"}, "vout": 0, "txid": "3885bd5245d43c5888ac7a75f31e180addbd6f8ecd2b154a9c28ae4093b6c264"}, {"sequence": 4294967295, "scriptSig": {"hex": "473044022052e2c602e53ad30317b952262f7ea01f5d9e826ccd8e5f7837e415e16f5622b702207b2a4126ede4b472fd09feb09e9fb1a773823b30641e8a55aa21ef47d938bb0f0121024bed1c2ea1f7cbf7cbf391c300bf4a3f27a55001b73c74b5b4c8d723259dea51", "asm": "3044022052e2c602e53ad30317b952262f7ea01f5d9e826ccd8e5f7837e415e16f5622b702207b2a4126ede4b472fd09feb09e9fb1a773823b30641e8a55aa21ef47d938bb0f[ALL] 024bed1c2ea1f7cbf7cbf391c300bf4a3f27a55001b73c74b5b4c8d723259dea51"}, "vout": 0, "txid": "3b8aec964be282e5e50e4227f5aaa9f2b90a9550553780ad9083238e5b6bd484"}, {"sequence": 4294967295, "scriptSig": {"hex": "483045022100f101e800208aa36ea35677e298ca71fc047dfcf8e22f819277f2f9980771626e02202342e76b00297a9ca811b0ebe6e3fac585c0fa4dd3404254d6498fd964b65df80121024bed1c2ea1f7cbf7cbf391c300bf4a3f27a55001b73c74b5b4c8d723259dea51", "asm": "3045022100f101e800208aa36ea35677e298ca71fc047dfcf8e22f819277f2f9980771626e02202342e76b00297a9ca811b0ebe6e3fac585c0fa4dd3404254d6498fd964b65df8[ALL] 024bed1c2ea1f7cbf7cbf391c300bf4a3f27a55001b73c74b5b4c8d723259dea51"}, "vout": 0, "txid": "42e9229a28559475b5d47a9730d6ff8d652e5528d27de651731ac17414f0fb9c"}, {"sequence": 4294967295, "scriptSig": {"hex": "47304402206c6ab9f7afae642748ded11e10deae95900b95f0daa4ae26ccb4581393cad74d02207246d0f462d9c66eb9dc82c30e77502bef87fddac961969b09c0091bb5311b320121024bed1c2ea1f7cbf7cbf391c300bf4a3f27a55001b73c74b5b4c8d723259dea51", "asm": "304402206c6ab9f7afae642748ded11e10deae95900b95f0daa4ae26ccb4581393cad74d02207246d0f462d9c66eb9dc82c30e77502bef87fddac961969b09c0091bb5311b32[ALL] 024bed1c2ea1f7cbf7cbf391c300bf4a3f27a55001b73c74b5b4c8d723259dea51"}, "vout": 0, "txid": "6ac6bda6843256cdd4c52099bf5657a8bec7bf0926779c43fbad2b3be5158400"}, {"sequence": 4294967295, "scriptSig": {"hex": "483045022100eb485732d54a0d27e3f17052a42b8e747088f57c81d6d052959f70d8b514234702204345eebb9f081d8ecca34925646c8a9479249cc5614453149acb953398d9967d0121024bed1c2ea1f7cbf7cbf391c300bf4a3f27a55001b73c74b5b4c8d723259dea51", "asm": "3045022100eb485732d54a0d27e3f17052a42b8e747088f57c81d6d052959f70d8b514234702204345eebb9f081d8ecca34925646c8a9479249cc5614453149acb953398d9967d[ALL] 024bed1c2ea1f7cbf7cbf391c300bf4a3f27a55001b73c74b5b4c8d723259dea51"}, "vout": 0, "txid": "6e9208c87d3b5a2254949585689d8207b8c5a6ca4822a4fd28538386b161f44d"}, {"sequence": 4294967295, "scriptSig": {"hex": "483045022100fc91fb1f48b71577c355db9cb05442cc4f98c2544533d4f3b103e133430cc35202203913537c8a8ca8435f29a8f9080c4eeaa7a007e71f3fb4c33bc32e452cd36333012103c651afb2954ac876f9c85d3794d72d2aee71c42776af2bd5594a64c1b7b2dc32", "asm": "3045022100fc91fb1f48b71577c355db9cb05442cc4f98c2544533d4f3b103e133430cc35202203913537c8a8ca8435f29a8f9080c4eeaa7a007e71f3fb4c33bc32e452cd36333[ALL] 03c651afb2954ac876f9c85d3794d72d2aee71c42776af2bd5594a64c1b7b2dc32"}, "vout": 0, "txid": "76835778563549cdcb52e40c6a1700c5d4361ad89a3188bad87b88055e5a478d"}, {"sequence": 4294967295, "scriptSig": {"hex": "473044022076d82c242ebc553314d5fd5ce349775d93d3da969596321d5178377b5bffa3db02205f890c23d635e1fd98af3e1bcce4410aebd9743efcd5215840a13cdd6b8841f00121024bed1c2ea1f7cbf7cbf391c300bf4a3f27a55001b73c74b5b4c8d723259dea51", "asm": "3044022076d82c242ebc553314d5fd5ce349775d93d3da969596321d5178377b5bffa3db02205f890c23d635e1fd98af3e1bcce4410aebd9743efcd5215840a13cdd6b8841f0[ALL] 024bed1c2ea1f7cbf7cbf391c300bf4a3f27a55001b73c74b5b4c8d723259dea51"}, "vout": 0, "txid": "76ce4f58080cc850f748e6df1e93134dd95db0b3636e914b569ab4c881748c16"}, {"sequence": 4294967295, "scriptSig": {"hex": "47304402202fa123783dbe7aee3ab7fe24cd021184d680f8e121d7044bda2e22255e46311402207cee74f8834c4aec10928aa8563388d06ef9ff7b538db10fd0715f0c84e5d44c0121024bed1c2ea1f7cbf7cbf391c300bf4a3f27a55001b73c74b5b4c8d723259dea51", "asm": "304402202fa123783dbe7aee3ab7fe24cd021184d680f8e121d7044bda2e22255e46311402207cee74f8834c4aec10928aa8563388d06ef9ff7b538db10fd0715f0c84e5d44c[ALL] 024bed1c2ea1f7cbf7cbf391c300bf4a3f27a55001b73c74b5b4c8d723259dea51"}, "vout": 0, "txid": "d5fdc7c7e09c404799270c4dfa2d08cd0cfba9e7a861718b69b66f89d6053ea1"}], "txid": "1826b5e2c80bd7f36de40d6e4248bc16bde79760f3c074491351bdbd878fc6e2", "blocktime": 1537870564, "version": 1, "confirmations": 11515, "time": 1537870564, "locktime": 0, "vsize": 1995, "size": 1995}