{"hash": "c4eb561f92ea86d5987771dad2f067420192cae99bdf800c7d08c05b7ca51a2e", "blockhash": "0000000000000000000baef3f32e3676a92c3b2e5da21b426e4f302fc371ce76", "vout": [{"scriptPubKey": {"reqSigs": 1, "hex": "a91490e99e8d26d05ead3c05430c292a887bbff695f587", "addresses": ["3EuF6KjJawxTiUsea3Sc8hsLUGmVEf7Xg5"], "asm": "OP_HASH160 90e99e8d26d05ead3c05430c292a887bbff695f5 OP_EQUAL", "type": "scripthash"}, "value": 0.0010766, "n": 0}, {"scriptPubKey": {"type": "nulldata", "hex": "6a146f6d6e69000000000000001f0000000005f5e100", "asm": "OP_RETURN 6f6d6e69000000000000001f0000000005f5e100"}, "value": 0.0, "n": 1}, {"scriptPubKey": {"reqSigs": 1, "hex": "a91490e99e8d26d05ead3c05430c292a887bbff695f587", "addresses": ["3EuF6KjJawxTiUsea3Sc8hsLUGmVEf7Xg5"], "asm": "OP_HASH160 90e99e8d26d05ead3c05430c292a887bbff695f5 OP_EQUAL", "type": "scripthash"}, "value": 5.4e-06, "n": 2}], "hex": "01000000000102b2ed54ae06321bc226f5b7a20a5cfbfbc4f11527ce4e0ee1be5d513f33eab0450000000017160014f6e1792e7852ebd5ae795c2a25d579acdfadec2dffffffffb2ed54ae06321bc226f5b7a20a5cfbfbc4f11527ce4e0ee1be5d513f33eab0450200000017160014f6e1792e7852ebd5ae795c2a25d579acdfadec2dffffffff038ca401000000000017a91490e99e8d26d05ead3c05430c292a887bbff695f5870000000000000000166a146f6d6e69000000000000001f0000000005f5e1001c0200000000000017a91490e99e8d26d05ead3c05430c292a887bbff695f58702483045022100978f5cda67cd243ec2ed52713effbadf43871523f55d178d6f78972ed592f74c0220015a212c77ac3444cdc3222980e1af42c1213861f48407aaf291374d662af18c012103f1cf988013a33e053d1e9bd54c4798c1a6dc362a5b2798b5344049fca40e2db002473044022030b498afce91487723e914c3a495be8cad4bcab8e97d0674f6d338149ddc8cd802205d64b3f5fed5a86b8660ef110d3ca3a278eb59cf392ab9e4f1b4c2d6928b6494012103f1cf988013a33e053d1e9bd54c4798c1a6dc362a5b2798b5344049fca40e2db000000000", "vin": [{"txinwitness": ["3045022100978f5cda67cd243ec2ed52713effbadf43871523f55d178d6f78972ed592f74c0220015a212c77ac3444cdc3222980e1af42c1213861f48407aaf291374d662af18c01", "03f1cf988013a33e053d1e9bd54c4798c1a6dc362a5b2798b5344049fca40e2db0"], "sequence": 4294967295, "scriptSig": {"hex": "160014f6e1792e7852ebd5ae795c2a25d579acdfadec2d", "asm": "0014f6e1792e7852ebd5ae795c2a25d579acdfadec2d"}, "vout": 0, "txid": "45b0ea333f515dbee10e4ece2715f1c4fbfb5c0aa2b7f526c21b3206ae54edb2"}, {"txinwitness": ["3044022030b498afce91487723e914c3a495be8cad4bcab8e97d0674f6d338149ddc8cd802205d64b3f5fed5a86b8660ef110d3ca3a278eb59cf392ab9e4f1b4c2d6928b649401", "03f1cf988013a33e053d1e9bd54c4798c1a6dc362a5b2798b5344049fca40e2db0"], "sequence": 4294967295, "scriptSig": {"hex": "160014f6e1792e7852ebd5ae795c2a25d579acdfadec2d", "asm": "0014f6e1792e7852ebd5ae795c2a25d579acdfadec2d"}, "vout": 2, "txid": "45b0ea333f515dbee10e4ece2715f1c4fbfb5c0aa2b7f526c21b3206ae54edb2"}], "txid": "182a1a9e26cd69361017cbe9421b83f0a9d9a5bfbfe97d68ac3d04f4806cf483", "blocktime": 1537876114, "version": 1, "confirmations": 11460, "time": 1537876114, "locktime": 0, "vsize": 288, "size": 450}