{"hash": "71827cae6ab92e41d6bf10c0ca53a3f02018e5d7f036fd5dc89722beb7e3cce9", "blockhash": "0000000000000000001cda96e906b7601b7a6fb1a3b62bca570a9e5d8f4b3de1", "vout": [{"scriptPubKey": {"reqSigs": 1, "hex": "00141607c27e7fcf64b4e4774380508aeabc4b1f7bb0", "addresses": ["bc1qzcruylnleajtferhgwq9pzh2h39377asc44vye"], "asm": "0 1607c27e7fcf64b4e4774380508aeabc4b1f7bb0", "type": "witness_v0_keyhash"}, "value": 0.00029103, "n": 0}, {"scriptPubKey": {"reqSigs": 1, "hex": "76a914ea93f784afcd1a11f9afdb877a782ca3896af82a88ac", "addresses": ["1NPLNonJaF1cFm2Qy5syGMBjY5uj3W7k2g"], "asm": "OP_DUP OP_HASH160 ea93f784afcd1a11f9afdb877a782ca3896af82a OP_EQUALVERIFY OP_CHECKSIG", "type": "pubkeyhash"}, "value": 0.012714, "n": 1}], "hex": "01000000000101727430b31c6637e7744b8c0343abf787209a1bf89311974bc37d9c03cd6f366f410000001716001410c22b6323cf1869bae432f49cadddb1127bada6ffffffff02af710000000000001600141607c27e7fcf64b4e4774380508aeabc4b1f7bb068661300000000001976a914ea93f784afcd1a11f9afdb877a782ca3896af82a88ac02483045022100e362451d699ea84e9eeb2a105f8609d7c1884391e8fdfc2def937ccf21c31c020220398e43d568863bee44dd7e0973655c6617550e167a11dccf6e0ba207f155ac63012102b19d2d7e7b34c982b48294c23891045c6185dcc111cde454e4946b8ae833634b00000000", "vin": [{"txinwitness": ["3045022100e362451d699ea84e9eeb2a105f8609d7c1884391e8fdfc2def937ccf21c31c020220398e43d568863bee44dd7e0973655c6617550e167a11dccf6e0ba207f155ac6301", "02b19d2d7e7b34c982b48294c23891045c6185dcc111cde454e4946b8ae833634b"], "sequence": 4294967295, "scriptSig": {"hex": "16001410c22b6323cf1869bae432f49cadddb1127bada6", "asm": "001410c22b6323cf1869bae432f49cadddb1127bada6"}, "vout": 65, "txid": "6f366fcd039c7dc34b971193f81b9a2087f7ab43038c4b74e737661cb3307472"}], "txid": "182d3b156e439a610dabf862ac72ed6c72ef1f81075eb4a4fe58aed9352448b2", "blocktime": 1537873282, "version": 1, "confirmations": 11484, "time": 1537873282, "locktime": 0, "vsize": 167, "size": 249}