{"hash": "1831b0e32945c547441ac7700375da209b5a695ad52e70e69059a023b9db5448", "blockhash": "0000000000000000000dcc0f55137456b1a82d3642486a52398922ac4d620174", "vout": [{"scriptPubKey": {"reqSigs": 1, "hex": "76a9146c6acde7fdb60acdbbc7958d2fe6bedb79e297ec88ac", "addresses": ["1AtFvcVpfsQh6S2SXPFemU7PvvQbEUZZZF"], "asm": "OP_DUP OP_HASH160 6c6acde7fdb60acdbbc7958d2fe6bedb79e297ec OP_EQUALVERIFY OP_CHECKSIG", "type": "pubkeyhash"}, "value": 0.0022, "n": 0}, {"scriptPubKey": {"reqSigs": 1, "hex": "00142cc2c1fb6966f19a59e12180b4058c235a29fe69", "addresses": ["bc1q9npvr7mfvmce5k0pyxqtgpvvyddznlnfkmrzka"], "asm": "0 2cc2c1fb6966f19a59e12180b4058c235a29fe69", "type": "witness_v0_keyhash"}, "value": 0.01373074, "n": 1}], "hex": "01000000018d088eaba51fdefbec66e2afc2ff2599076da220c7ee884cdd1c2459c97a8f5a000000006a473044022010e5fbfa29ce802440957c1139294c40643d2ceb0d6ccd3ea8043aaa6a7ac2d6022026b7e6e7eb1eb1c55906216e5090d62c8547959f251be58f54bcc38cace02dd80121034f32ebbd683fc74c7279a7b6c253aa2b0ac5c26bc9a50c43f327fad84aeffc9affffffff02605b0300000000001976a9146c6acde7fdb60acdbbc7958d2fe6bedb79e297ec88ac92f31400000000001600142cc2c1fb6966f19a59e12180b4058c235a29fe6900000000", "vin": [{"sequence": 4294967295, "scriptSig": {"hex": "473044022010e5fbfa29ce802440957c1139294c40643d2ceb0d6ccd3ea8043aaa6a7ac2d6022026b7e6e7eb1eb1c55906216e5090d62c8547959f251be58f54bcc38cace02dd80121034f32ebbd683fc74c7279a7b6c253aa2b0ac5c26bc9a50c43f327fad84aeffc9a", "asm": "3044022010e5fbfa29ce802440957c1139294c40643d2ceb0d6ccd3ea8043aaa6a7ac2d6022026b7e6e7eb1eb1c55906216e5090d62c8547959f251be58f54bcc38cace02dd8[ALL] 034f32ebbd683fc74c7279a7b6c253aa2b0ac5c26bc9a50c43f327fad84aeffc9a"}, "vout": 0, "txid": "5a8f7ac959241cdd4c88eec720a26d079925ffc2afe266ecfbde1fa5ab8e088d"}], "txid": "1831b0e32945c547441ac7700375da209b5a695ad52e70e69059a023b9db5448", "blocktime": 1537870268, "version": 1, "confirmations": 11518, "time": 1537870268, "locktime": 0, "vsize": 222, "size": 222}