{"hash": "e93f237da4e8f2c84eaaf0422d8cde10ed6f58423ec2c88097de82913cb74e97", "blockhash": "00000000000000000024a2167bbff67b0be802c0b01cdd79e6331c2be6459f87", "vout": [{"scriptPubKey": {"reqSigs": 1, "hex": "76a9148413f3d52794c2a1b1e4d1943798d55a8c8f737c88ac", "addresses": ["1D3N6eL94fyDn16Pn71Dho8qJVM6CZQDbc"], "asm": "OP_DUP OP_HASH160 8413f3d52794c2a1b1e4d1943798d55a8c8f737c OP_EQUALVERIFY OP_CHECKSIG", "type": "pubkeyhash"}, "value": 0.01373447, "n": 0}, {"scriptPubKey": {"reqSigs": 1, "hex": "76a9147d0985628510f4a69d7594d2927900a61d052c8a88ac", "addresses": ["1CQ8sWgxvEZ8jHX6z5n9vZ83ZkmFi2nxER"], "asm": "OP_DUP OP_HASH160 7d0985628510f4a69d7594d2927900a61d052c8a OP_EQUALVERIFY OP_CHECKSIG", "type": "pubkeyhash"}, "value": 0.04243084, "n": 1}, {"scriptPubKey": {"reqSigs": 1, "hex": "a9142df55b633fd577c30f7e9b3e60a3df0d1e29148a87", "addresses": ["35t2FstT7K5xYU2yewqHkRareMfM7vkNMx"], "asm": "OP_HASH160 2df55b633fd577c30f7e9b3e60a3df0d1e29148a OP_EQUAL", "type": "scripthash"}, "value": 0.05160257, "n": 2}, {"scriptPubKey": {"reqSigs": 1, "hex": "a9143cf8bfb947b249c634ce452e2080b67c4ab2e12887", "addresses": ["37FQTRzACeC2Se7pgXN1WJH7YA75QsHNXJ"], "asm": "OP_HASH160 3cf8bfb947b249c634ce452e2080b67c4ab2e128 OP_EQUAL", "type": "scripthash"}, "value": 0.00118472, "n": 3}], "hex": "02000000000101477eebd6cfa6e780624b176e4e412b246b40b4c3d7df8916132e8464a088d4160100000017160014878967064400a27edaddbe9e4cab21bfe10bfc7efdffffff0407f51400000000001976a9148413f3d52794c2a1b1e4d1943798d55a8c8f737c88ac8cbe4000000000001976a9147d0985628510f4a69d7594d2927900a61d052c8a88ac41bd4e000000000017a9142df55b633fd577c30f7e9b3e60a3df0d1e29148a87c8ce01000000000017a9143cf8bfb947b249c634ce452e2080b67c4ab2e12887024730440220213cdae5719f8712520983f57d8f4709f53147d21f522d9185f4f7f58861086e02206f7ceb06d7f4bf0859bb3279e6bda4ce6a2aa57a1a655105100187a1a29566a1012102b9a13404284547721bfaf67a5a33e7b180383f3d2083cab4e2df5a29c30b13f101000000", "vin": [{"txinwitness": ["30440220213cdae5719f8712520983f57d8f4709f53147d21f522d9185f4f7f58861086e02206f7ceb06d7f4bf0859bb3279e6bda4ce6a2aa57a1a655105100187a1a29566a101", "02b9a13404284547721bfaf67a5a33e7b180383f3d2083cab4e2df5a29c30b13f1"], "sequence": 4294967293, "scriptSig": {"hex": "160014878967064400a27edaddbe9e4cab21bfe10bfc7e", "asm": "0014878967064400a27edaddbe9e4cab21bfe10bfc7e"}, "vout": 1, "txid": "16d488a064842e131689dfd7c3b4406b242b414e6e174b6280e7a6cfd6eb7e47"}], "txid": "1847be32ef7dd4042dea80c9aff8e01662c55f41910e3a75057f58ae78fced59", "blocktime": 1537870564, "version": 2, "confirmations": 11515, "time": 1537870564, "locktime": 1, "vsize": 234, "size": 315}