{"hash": "18483736f34fbe6f6196a972e5243583288899ea33f5a643dff6a1df1496b8c4", "blockhash": "0000000000000000001e0dab787dd257d1dbfcb92a98c2207d5e1078be1f4165", "vout": [{"scriptPubKey": {"reqSigs": 1, "hex": "76a91465599213546740034dc44a54c9927b3d5e042de488ac", "addresses": ["1AEtYrHfoYptNQsPoDZYMPC5Xz7k6mB4WH"], "asm": "OP_DUP OP_HASH160 65599213546740034dc44a54c9927b3d5e042de4 OP_EQUALVERIFY OP_CHECKSIG", "type": "pubkeyhash"}, "value": 0.00743479, "n": 0}, {"scriptPubKey": {"reqSigs": 1, "hex": "76a91403abf42308f7391aa0e4ef48825c5c278ebbb9ee88ac", "addresses": ["1LR28GDpT4nqXDdLw5LHgFW5Fyne7w79W"], "asm": "OP_DUP OP_HASH160 03abf42308f7391aa0e4ef48825c5c278ebbb9ee OP_EQUALVERIFY OP_CHECKSIG", "type": "pubkeyhash"}, "value": 0.15623023, "n": 1}], "hex": "0100000001a5c22248e03695c6d21ec9d3b1f7ec697e7e659fa849e750fcf7721b5b4bd432010000006b48304502210080b1a4a2e7f94c0b3bf4d2193a8118705aca69000f48267186d76c043c3b88000220196268f9bb2ec7beb835040a88692b042b9273e863d091e26bc59bd766195b48012102a0a795604878efd7b5dd0002a92986e8f396087a46e65a73926c13b9af1240ceffffffff0237580b00000000001976a91465599213546740034dc44a54c9927b3d5e042de488ac6f63ee00000000001976a91403abf42308f7391aa0e4ef48825c5c278ebbb9ee88ac00000000", "vin": [{"sequence": 4294967295, "scriptSig": {"hex": "48304502210080b1a4a2e7f94c0b3bf4d2193a8118705aca69000f48267186d76c043c3b88000220196268f9bb2ec7beb835040a88692b042b9273e863d091e26bc59bd766195b48012102a0a795604878efd7b5dd0002a92986e8f396087a46e65a73926c13b9af1240ce", "asm": "304502210080b1a4a2e7f94c0b3bf4d2193a8118705aca69000f48267186d76c043c3b88000220196268f9bb2ec7beb835040a88692b042b9273e863d091e26bc59bd766195b48[ALL] 02a0a795604878efd7b5dd0002a92986e8f396087a46e65a73926c13b9af1240ce"}, "vout": 1, "txid": "32d44b5b1b72f7fc50e749a89f657e7e69ecf7b1d3c91ed2c69536e04822c2a5"}], "txid": "18483736f34fbe6f6196a972e5243583288899ea33f5a643dff6a1df1496b8c4", "blocktime": 1537872475, "version": 1, "confirmations": 11487, "time": 1537872475, "locktime": 0, "vsize": 226, "size": 226}