{"hash": "18486eda3306be825795b741c00d23a1717997413155d61cb40046c6e097a227", "blockhash": "0000000000000000001f76057863aec43deb6fa401d9628bb513d65a8098bfab", "vout": [{"scriptPubKey": {"type": "nulldata", "hex": "6a146f6d6e69000000000000001f0000005acdcfbc00", "asm": "OP_RETURN 6f6d6e69000000000000001f0000005acdcfbc00"}, "value": 0.0, "n": 0}, {"scriptPubKey": {"reqSigs": 1, "hex": "76a9145198ec5b6694b4a50ee65e76a76baf56e87a7e3688ac", "addresses": ["18SSvqLGbffnGuzFx4gugrjXXykXQLPgy7"], "asm": "OP_DUP OP_HASH160 5198ec5b6694b4a50ee65e76a76baf56e87a7e36 OP_EQUALVERIFY OP_CHECKSIG", "type": "pubkeyhash"}, "value": 0.00498774, "n": 1}, {"scriptPubKey": {"reqSigs": 1, "hex": "76a914a25dec4d0011064ef106a983c39c7a540699f22088ac", "addresses": ["1FoWyxwPXuj4C6abqwhjDWdz6D4PZgYRjA"], "asm": "OP_DUP OP_HASH160 a25dec4d0011064ef106a983c39c7a540699f220 OP_EQUALVERIFY OP_CHECKSIG", "type": "pubkeyhash"}, "value": 5.46e-06, "n": 2}], "hex": "01000000034286146890b44a3bf68756a08bbd25d889588d75bdb066427133b5d0d6b3ca51020000006a47304402207325f20d97774034d789fda0bbba0df0e2ac45155f07ee8d42a3abfe361b6b80022007079d1806de3035ba4e62b0ce27f0f3e80c6db3824ad47697096aa4aaa6fbd3012103bc997030ea2f74c957d04fe50123905da1333058fa8bc2677bc8b567cfaa71c8feffffffb5589947902db0805a740fcc07d45199dc072293e168821803dd7582aa81c4e7010000006a47304402207bdf7a0b515fd56bcb17f08ec771535dd8189c855e36df3dabe15b9c177f033e02205e05837b5ef51f33eddf6731f2df009160a8373deee6de04ad56434cd3cfa1f1012103bc997030ea2f74c957d04fe50123905da1333058fa8bc2677bc8b567cfaa71c8feffffffc406482716a874973c830fc7fe4d9328b109abd5b823a1e8ebbe15e4b059d0f9010000006a473044022026def2d5b7322694224cbc2b206398b99c059da310039856bbd1d68cd9a8fb6e022029015fc71823968652ffec2d6374954b50f2815938fc3865a2833bdeac7deb47012103bc997030ea2f74c957d04fe50123905da1333058fa8bc2677bc8b567cfaa71c8feffffff030000000000000000166a146f6d6e69000000000000001f0000005acdcfbc00569c0700000000001976a9145198ec5b6694b4a50ee65e76a76baf56e87a7e3688ac22020000000000001976a914a25dec4d0011064ef106a983c39c7a540699f22088acfd480800", "vin": [{"sequence": 4294967294, "scriptSig": {"hex": "47304402207325f20d97774034d789fda0bbba0df0e2ac45155f07ee8d42a3abfe361b6b80022007079d1806de3035ba4e62b0ce27f0f3e80c6db3824ad47697096aa4aaa6fbd3012103bc997030ea2f74c957d04fe50123905da1333058fa8bc2677bc8b567cfaa71c8", "asm": "304402207325f20d97774034d789fda0bbba0df0e2ac45155f07ee8d42a3abfe361b6b80022007079d1806de3035ba4e62b0ce27f0f3e80c6db3824ad47697096aa4aaa6fbd3[ALL] 03bc997030ea2f74c957d04fe50123905da1333058fa8bc2677bc8b567cfaa71c8"}, "vout": 2, "txid": "51cab3d6d0b533714266b0bd758d5889d825bd8ba05687f63b4ab49068148642"}, {"sequence": 4294967294, "scriptSig": {"hex": "47304402207bdf7a0b515fd56bcb17f08ec771535dd8189c855e36df3dabe15b9c177f033e02205e05837b5ef51f33eddf6731f2df009160a8373deee6de04ad56434cd3cfa1f1012103bc997030ea2f74c957d04fe50123905da1333058fa8bc2677bc8b567cfaa71c8", "asm": "304402207bdf7a0b515fd56bcb17f08ec771535dd8189c855e36df3dabe15b9c177f033e02205e05837b5ef51f33eddf6731f2df009160a8373deee6de04ad56434cd3cfa1f1[ALL] 03bc997030ea2f74c957d04fe50123905da1333058fa8bc2677bc8b567cfaa71c8"}, "vout": 1, "txid": "e7c481aa8275dd03188268e1932207dc9951d407cc0f745a80b02d90479958b5"}, {"sequence": 4294967294, "scriptSig": {"hex": "473044022026def2d5b7322694224cbc2b206398b99c059da310039856bbd1d68cd9a8fb6e022029015fc71823968652ffec2d6374954b50f2815938fc3865a2833bdeac7deb47012103bc997030ea2f74c957d04fe50123905da1333058fa8bc2677bc8b567cfaa71c8", "asm": "3044022026def2d5b7322694224cbc2b206398b99c059da310039856bbd1d68cd9a8fb6e022029015fc71823968652ffec2d6374954b50f2815938fc3865a2833bdeac7deb47[ALL] 03bc997030ea2f74c957d04fe50123905da1333058fa8bc2677bc8b567cfaa71c8"}, "vout": 1, "txid": "f9d059b0e415beebe8a123b8d5ab09b128934dfec70f833c9774a816274806c4"}], "txid": "18486eda3306be825795b741c00d23a1717997413155d61cb40046c6e097a227", "blocktime": 1537873891, "version": 1, "confirmations": 11478, "time": 1537873891, "locktime": 542973, "vsize": 550, "size": 550}