{"hash": "184ce5a7554239aa28392285bd342db00f2c8aeb7c35ac8246fb0afa7ff2d17f", "blockhash": "00000000000000000024a2167bbff67b0be802c0b01cdd79e6331c2be6459f87", "vout": [{"scriptPubKey": {"reqSigs": 1, "hex": "a91422b197f78e5b014e9daa8583f030ea6e5f05e40f87", "addresses": ["34rTeVCtmybpreqz86oDnwLPGAj7RJycJH"], "asm": "OP_HASH160 22b197f78e5b014e9daa8583f030ea6e5f05e40f OP_EQUAL", "type": "scripthash"}, "value": 0.00748605, "n": 0}], "hex": "010000000311413a40611fb1a68722ce3049c52c6676acf5b216a43d0a8e42e5c6e9a4ae0c010000006a47304402206f616a5f9d2c2746d0a4557183926944203f96e36ab4099068952179a3616b40022033e0829afdb4909b3b674b3f20facbecbccfc53ba14b908dd291e126b7d6b39c012102007c7c36baa5ac7c42fd3c14a7d0e359fb52f71a8c9ae5640a58b2125d93a539ffffffff6b8c0294a04ece07438aa4de1c2e445fabe65ff0e97743a55800c0d50a972197010000006b4830450221008908a9d2fc9b3b8d50598764ccbd212c8d7a8702c9c4608691dfab2def8cd36802201a2c0352cbd0f5647efcb8c95c6f1778e872dadfc0669698ded8fdf45ee0d5fc012102007c7c36baa5ac7c42fd3c14a7d0e359fb52f71a8c9ae5640a58b2125d93a539ffffffffa8dd47778cc120a92a0e40e91d8c6d65ff9e5196cbd41ba40c6f2ec8e8a057fa000000006a473044022061e52f24b941a2405bb40f1e477905aa86b03c306e19e0f058df48232ac795410220011c88298f952f684aae3331f0d9659fa09ba4a0f4d26bccd4af2def3f6beb970121023808ec261aa2b7316654ea457d67e423058cf92dd073f74d69960007327be9b2ffffffff013d6c0b000000000017a91422b197f78e5b014e9daa8583f030ea6e5f05e40f8700000000", "vin": [{"sequence": 4294967295, "scriptSig": {"hex": "47304402206f616a5f9d2c2746d0a4557183926944203f96e36ab4099068952179a3616b40022033e0829afdb4909b3b674b3f20facbecbccfc53ba14b908dd291e126b7d6b39c012102007c7c36baa5ac7c42fd3c14a7d0e359fb52f71a8c9ae5640a58b2125d93a539", "asm": "304402206f616a5f9d2c2746d0a4557183926944203f96e36ab4099068952179a3616b40022033e0829afdb4909b3b674b3f20facbecbccfc53ba14b908dd291e126b7d6b39c[ALL] 02007c7c36baa5ac7c42fd3c14a7d0e359fb52f71a8c9ae5640a58b2125d93a539"}, "vout": 1, "txid": "0caea4e9c6e5428e0a3da416b2f5ac76662cc54930ce2287a6b11f61403a4111"}, {"sequence": 4294967295, "scriptSig": {"hex": "4830450221008908a9d2fc9b3b8d50598764ccbd212c8d7a8702c9c4608691dfab2def8cd36802201a2c0352cbd0f5647efcb8c95c6f1778e872dadfc0669698ded8fdf45ee0d5fc012102007c7c36baa5ac7c42fd3c14a7d0e359fb52f71a8c9ae5640a58b2125d93a539", "asm": "30450221008908a9d2fc9b3b8d50598764ccbd212c8d7a8702c9c4608691dfab2def8cd36802201a2c0352cbd0f5647efcb8c95c6f1778e872dadfc0669698ded8fdf45ee0d5fc[ALL] 02007c7c36baa5ac7c42fd3c14a7d0e359fb52f71a8c9ae5640a58b2125d93a539"}, "vout": 1, "txid": "9721970ad5c00058a54377e9f05fe6ab5f442e1cdea48a4307ce4ea094028c6b"}, {"sequence": 4294967295, "scriptSig": {"hex": "473044022061e52f24b941a2405bb40f1e477905aa86b03c306e19e0f058df48232ac795410220011c88298f952f684aae3331f0d9659fa09ba4a0f4d26bccd4af2def3f6beb970121023808ec261aa2b7316654ea457d67e423058cf92dd073f74d69960007327be9b2", "asm": "3044022061e52f24b941a2405bb40f1e477905aa86b03c306e19e0f058df48232ac795410220011c88298f952f684aae3331f0d9659fa09ba4a0f4d26bccd4af2def3f6beb97[ALL] 023808ec261aa2b7316654ea457d67e423058cf92dd073f74d69960007327be9b2"}, "vout": 0, "txid": "fa57a0e8c82e6f0ca41bd4cb96519eff656d8c1de9400e2aa920c18c7747dda8"}], "txid": "184ce5a7554239aa28392285bd342db00f2c8aeb7c35ac8246fb0afa7ff2d17f", "blocktime": 1537870564, "version": 1, "confirmations": 11515, "time": 1537870564, "locktime": 0, "vsize": 484, "size": 484}