{"hash": "1853dada53a2b0d886990d01a8ba3aeaf6763c1fb14eab115f8b9dc8df0e0064", "blockhash": "0000000000000000001e0dab787dd257d1dbfcb92a98c2207d5e1078be1f4165", "vout": [{"scriptPubKey": {"type": "nulldata", "hex": "6a4c50000077b00001f2289f724a7e0bbbfb737760af6c953dd567cf27e7e3ef3236678a6250979402b35ca0835fc3b2e4fcfe24b3cddc5baa11790611b99a0107d7ec1d100759d4ba30d2c37bb011d97e02cf", "asm": "OP_RETURN 000077b00001f2289f724a7e0bbbfb737760af6c953dd567cf27e7e3ef3236678a6250979402b35ca0835fc3b2e4fcfe24b3cddc5baa11790611b99a0107d7ec1d100759d4ba30d2c37bb011d97e02cf"}, "value": 0.0, "n": 0}, {"scriptPubKey": {"reqSigs": 1, "hex": "76a91435723d588a059f315142a19f53047f03593b6f8588ac", "addresses": ["15sbfgCSbAd2VksAkkKRdfX8rJR3v8SBBk"], "asm": "OP_DUP OP_HASH160 35723d588a059f315142a19f53047f03593b6f85 OP_EQUALVERIFY OP_CHECKSIG", "type": "pubkeyhash"}, "value": 0.00643332, "n": 1}], "hex": "01000000019a8be9af58b71e6bafd34273eedadea78d81dea0a197acc877fb9baba90306e0000000006a47304402207166b321733341d49e85a505bf26ea6bc428d093a52b36a9612fdaa463cf0bb50220156870bc9f2bb98cab1f1d7d06e1c68db25b06e25e7e78fc92b4d7f39a664c63012102e54d3d4549096f12fafe5ad72247ca6316869e6dc408501158e2631fc0d5e757ffffffff020000000000000000536a4c50000077b00001f2289f724a7e0bbbfb737760af6c953dd567cf27e7e3ef3236678a6250979402b35ca0835fc3b2e4fcfe24b3cddc5baa11790611b99a0107d7ec1d100759d4ba30d2c37bb011d97e02cf04d10900000000001976a91435723d588a059f315142a19f53047f03593b6f8588ac00000000", "vin": [{"sequence": 4294967295, "scriptSig": {"hex": "47304402207166b321733341d49e85a505bf26ea6bc428d093a52b36a9612fdaa463cf0bb50220156870bc9f2bb98cab1f1d7d06e1c68db25b06e25e7e78fc92b4d7f39a664c63012102e54d3d4549096f12fafe5ad72247ca6316869e6dc408501158e2631fc0d5e757", "asm": "304402207166b321733341d49e85a505bf26ea6bc428d093a52b36a9612fdaa463cf0bb50220156870bc9f2bb98cab1f1d7d06e1c68db25b06e25e7e78fc92b4d7f39a664c63[ALL] 02e54d3d4549096f12fafe5ad72247ca6316869e6dc408501158e2631fc0d5e757"}, "vout": 0, "txid": "e00603a9ab9bfb77c8ac97a1a0de818da7dedaee7342d3af6b1eb758afe98b9a"}], "txid": "1853dada53a2b0d886990d01a8ba3aeaf6763c1fb14eab115f8b9dc8df0e0064", "blocktime": 1537872475, "version": 1, "confirmations": 11486, "time": 1537872475, "locktime": 0, "vsize": 283, "size": 283}