{"hash": "185664aa635667d266e1bca8578c408437bcc568a45c87ee3eae39a0fd55bf41", "blockhash": "0000000000000000001e0dab787dd257d1dbfcb92a98c2207d5e1078be1f4165", "vout": [{"scriptPubKey": {"reqSigs": 1, "hex": "76a914fef4f8c98730426f07afe353d6c373e32aea0fd288ac", "addresses": ["1QF66fcWtjFa6aNdjfbBwLj1NWofrhNENp"], "asm": "OP_DUP OP_HASH160 fef4f8c98730426f07afe353d6c373e32aea0fd2 OP_EQUALVERIFY OP_CHECKSIG", "type": "pubkeyhash"}, "value": 0.0081402, "n": 0}, {"scriptPubKey": {"reqSigs": 1, "hex": "76a9144a0f1e2f2b0d7daeec5265f10bbbbe08ed725e8988ac", "addresses": ["17kb7c9ndg7ioSuzMWEHWECdEVUegNkcGc"], "asm": "OP_DUP OP_HASH160 4a0f1e2f2b0d7daeec5265f10bbbbe08ed725e89 OP_EQUALVERIFY OP_CHECKSIG", "type": "pubkeyhash"}, "value": 0.0005581, "n": 1}], "hex": "010000000159c0a156098dfc4d72f17da6c2aa2e99037c4d9c6bce63e2346d28520d130a27000000006a473044022011692626e9058f489c62d72b1148f3c6cfe3442588c2a232fe00541acd9eaef6022047e22e61702bc2b59c43083739ccca3b348f96f56cbac606bf51f6bec0370cb301210363e1776495149c5a4e92acf453a3caa19000fc804e4ba2024b600ba25e09c943ffffffff02c46b0c00000000001976a914fef4f8c98730426f07afe353d6c373e32aea0fd288ac02da0000000000001976a9144a0f1e2f2b0d7daeec5265f10bbbbe08ed725e8988ac00000000", "vin": [{"sequence": 4294967295, "scriptSig": {"hex": "473044022011692626e9058f489c62d72b1148f3c6cfe3442588c2a232fe00541acd9eaef6022047e22e61702bc2b59c43083739ccca3b348f96f56cbac606bf51f6bec0370cb301210363e1776495149c5a4e92acf453a3caa19000fc804e4ba2024b600ba25e09c943", "asm": "3044022011692626e9058f489c62d72b1148f3c6cfe3442588c2a232fe00541acd9eaef6022047e22e61702bc2b59c43083739ccca3b348f96f56cbac606bf51f6bec0370cb3[ALL] 0363e1776495149c5a4e92acf453a3caa19000fc804e4ba2024b600ba25e09c943"}, "vout": 0, "txid": "270a130d52286d34e263ce6b9c4d7c03992eaac2a67df1724dfc8d0956a1c059"}], "txid": "185664aa635667d266e1bca8578c408437bcc568a45c87ee3eae39a0fd55bf41", "blocktime": 1537872475, "version": 1, "confirmations": 11486, "time": 1537872475, "locktime": 0, "vsize": 225, "size": 225}