{"hash": "ebcc343c3255957020d9f451590efd34efc69b7520d4d1146f96b62565cf1007", "blockhash": "0000000000000000001f76057863aec43deb6fa401d9628bb513d65a8098bfab", "vout": [{"scriptPubKey": {"reqSigs": 1, "hex": "a914e8db75c900cf08f06518e96d167331f2a4abfb3387", "addresses": ["3NvFbQMAkkqEFj4i1sYPPLkSWzxTFUchjA"], "asm": "OP_HASH160 e8db75c900cf08f06518e96d167331f2a4abfb33 OP_EQUAL", "type": "scripthash"}, "value": 0.00049574, "n": 0}], "hex": "01000000000101bfe2544f0f0b3c8f7db02cad1ca5a1b56b79f7d7f474c2bb484410834ea315060a0000001716001402a3e1716cafda44a09c31412d3cce803f06ba84ffffffff01a6c100000000000017a914e8db75c900cf08f06518e96d167331f2a4abfb33870247304402207a009eb538c995a5723ee9953035302ada26f8db29b511b81d13c10031f5ed2402200da7fd36d0d3dbd7a404437c078f383067b9cf855804fd73e83c4bb82ed9779c0121039d2e26cecbe082ae907dec2577b88ecd36ead89ea27cd3edcbd14d82a945e70000000000", "vin": [{"txinwitness": ["304402207a009eb538c995a5723ee9953035302ada26f8db29b511b81d13c10031f5ed2402200da7fd36d0d3dbd7a404437c078f383067b9cf855804fd73e83c4bb82ed9779c01", "039d2e26cecbe082ae907dec2577b88ecd36ead89ea27cd3edcbd14d82a945e700"], "sequence": 4294967295, "scriptSig": {"hex": "16001402a3e1716cafda44a09c31412d3cce803f06ba84", "asm": "001402a3e1716cafda44a09c31412d3cce803f06ba84"}, "vout": 10, "txid": "0615a34e83104448bbc274f4d7f7796bb5a1a51cad2cb07d8f3c0b0f4f54e2bf"}], "txid": "18573374618ae5f7868ce49dd2bc0d15f3c377bc6d800cd19ab4f4bcb98a33c0", "blocktime": 1537873891, "version": 1, "confirmations": 11478, "time": 1537873891, "locktime": 0, "vsize": 134, "size": 215}