{"hash": "185da544e4434e7bcc4388af9a0c347ace39cebacd33c51e20a216a37ef24b67", "blockhash": "0000000000000000001cda96e906b7601b7a6fb1a3b62bca570a9e5d8f4b3de1", "vout": [{"scriptPubKey": {"type": "nulldata", "hex": "6a4c50000077d100018db13301a1b9b350ec67fd425b23cc0f42c2fc38c5e5bf9ae76da98a211a3cc616770e89ddbb7fc9a7f4c6f763565baa14480613be1a3ec7129ebc9a9526289ac0f6612cd74e33776ee4", "asm": "OP_RETURN 000077d100018db13301a1b9b350ec67fd425b23cc0f42c2fc38c5e5bf9ae76da98a211a3cc616770e89ddbb7fc9a7f4c6f763565baa14480613be1a3ec7129ebc9a9526289ac0f6612cd74e33776ee4"}, "value": 0.0, "n": 0}, {"scriptPubKey": {"reqSigs": 1, "hex": "76a91478194a9681959c8b74b86beabe65e2da0b05b96d88ac", "addresses": ["1Bx2PJ4JFzbVAXoLCJsyt1c5SKephcfV5N"], "asm": "OP_DUP OP_HASH160 78194a9681959c8b74b86beabe65e2da0b05b96d OP_EQUALVERIFY OP_CHECKSIG", "type": "pubkeyhash"}, "value": 0.00134784, "n": 1}], "hex": "01000000013af9863df2eeede0a9c6257761c0b715e7054bb3127fc67f6a053389c8f562cf000000006a47304402207d044650449aeb732b05a8bdee97378b5c1fbfe614d7284e5711f4d9c952c82202202470f019e55c8ed8202c32efce49364fe07ba6a678b18bacbb9f5637f03bd4c1012103e82b201e40afad45d9ceb43e0fba9d8d9d32d59403f3aadff0ca95b571230445ffffffff020000000000000000536a4c50000077d100018db13301a1b9b350ec67fd425b23cc0f42c2fc38c5e5bf9ae76da98a211a3cc616770e89ddbb7fc9a7f4c6f763565baa14480613be1a3ec7129ebc9a9526289ac0f6612cd74e33776ee4800e0200000000001976a91478194a9681959c8b74b86beabe65e2da0b05b96d88ac00000000", "vin": [{"sequence": 4294967295, "scriptSig": {"hex": "47304402207d044650449aeb732b05a8bdee97378b5c1fbfe614d7284e5711f4d9c952c82202202470f019e55c8ed8202c32efce49364fe07ba6a678b18bacbb9f5637f03bd4c1012103e82b201e40afad45d9ceb43e0fba9d8d9d32d59403f3aadff0ca95b571230445", "asm": "304402207d044650449aeb732b05a8bdee97378b5c1fbfe614d7284e5711f4d9c952c82202202470f019e55c8ed8202c32efce49364fe07ba6a678b18bacbb9f5637f03bd4c1[ALL] 03e82b201e40afad45d9ceb43e0fba9d8d9d32d59403f3aadff0ca95b571230445"}, "vout": 0, "txid": "cf62f5c88933056a7fc67f12b34b05e715b7c0617725c6a9e0edeef23d86f93a"}], "txid": "185da544e4434e7bcc4388af9a0c347ace39cebacd33c51e20a216a37ef24b67", "blocktime": 1537873282, "version": 1, "confirmations": 11484, "time": 1537873282, "locktime": 0, "vsize": 283, "size": 283}