{"hash": "ea51157db9f14deb1eb20f407087dfe01d39802b8dcd1766dc98da5ab5b04ba6", "blockhash": "0000000000000000000e13cef7c366c0283d82e591d1acd082e914b08063cdf1", "vout": [{"scriptPubKey": {"reqSigs": 1, "hex": "a91459ac68534ac1c8af5e4cd24afc3de013592b01c687", "addresses": ["39sAbhdAigkF2UqbUk1w4KaPQU1WZXYqTK"], "asm": "OP_HASH160 59ac68534ac1c8af5e4cd24afc3de013592b01c6 OP_EQUAL", "type": "scripthash"}, "value": 0.01577, "n": 0}, {"scriptPubKey": {"reqSigs": 1, "hex": "a91420946d750f72b5ecd00c3b78900437a419fc06f387", "addresses": ["34fHMcN1keeXghhCV1G8XCpF938jjNtYt3"], "asm": "OP_HASH160 20946d750f72b5ecd00c3b78900437a419fc06f3 OP_EQUAL", "type": "scripthash"}, "value": 4.76833082, "n": 1}], "hex": "02000000000101607156b1a2d7b7fd6536bfe0a0dc0544d0a17f4fcec3bf0af3c8852b979ee46b00000000171600143a60505b4a025050bad761a2337e60bc9f5f00fefeffffff02281018000000000017a91459ac68534ac1c8af5e4cd24afc3de013592b01c6873ae56b1c0000000017a91420946d750f72b5ecd00c3b78900437a419fc06f387024730440220413dc3448a65a7312630e0907ae9450828aa11f81f43106cb58cb512a17dfb9a0220547dc9238b84a3343eda9d85e1ab5b68d8a6b1718a93f1ba090967a4b4aff428012102162f0b295248b120970848e6112f22a756862c2b1bc9f741b0f3f0bc9b21dd150e490800", "vin": [{"txinwitness": ["30440220413dc3448a65a7312630e0907ae9450828aa11f81f43106cb58cb512a17dfb9a0220547dc9238b84a3343eda9d85e1ab5b68d8a6b1718a93f1ba090967a4b4aff42801", "02162f0b295248b120970848e6112f22a756862c2b1bc9f741b0f3f0bc9b21dd15"], "sequence": 4294967294, "scriptSig": {"hex": "1600143a60505b4a025050bad761a2337e60bc9f5f00fe", "asm": "00143a60505b4a025050bad761a2337e60bc9f5f00fe"}, "vout": 0, "txid": "6be49e972b85c8f30abfc3ce4f7fa1d04405dca0e0bf3665fdb7d7a2b1567160"}], "txid": "185e66457fe6ec18122bbcbc451d991aff88e641dbc903f4301e818950df8978", "blocktime": 1537871767, "version": 2, "confirmations": 11495, "time": 1537871767, "locktime": 542990, "vsize": 166, "size": 247}