{"hash": "959d25ca1c9d3f083654dc763e4c0d283b86d73ae87c28fe1637ddf776232979", "blockhash": "00000000000000000017f5eb5941039fbcee6240d03bc1f2f8e35350df66a1d8", "vout": [{"scriptPubKey": {"reqSigs": 1, "hex": "76a9145f89ade9a68e7e44997dec709d313541e52ae61488ac", "addresses": ["19iA8MT7F6dKyQnBY4aaPjs5nHMeNFrxif"], "asm": "OP_DUP OP_HASH160 5f89ade9a68e7e44997dec709d313541e52ae614 OP_EQUALVERIFY OP_CHECKSIG", "type": "pubkeyhash"}, "value": 0.022348, "n": 0}, {"scriptPubKey": {"reqSigs": 1, "hex": "a9145ace3220cf96e7169c4e3f876251e7a78a61113887", "addresses": ["39y9kYYoiqGDLPT6LA4G5uVvuomeavPb6L"], "asm": "OP_HASH160 5ace3220cf96e7169c4e3f876251e7a78a611138 OP_EQUAL", "type": "scripthash"}, "value": 0.10049124, "n": 1}], "hex": "02000000000101c03b2e5b63e8cf1c0f44659a47d25ec6d6e6cb3f30c02ce1c75ec38db24189a100000000171600148931664b25bdfb926bc1951203b75614d150d149feffffff02b0192200000000001976a9145f89ade9a68e7e44997dec709d313541e52ae61488ac645699000000000017a9145ace3220cf96e7169c4e3f876251e7a78a6111388702483045022100eb9afc3c7397b51ff707ab3bdb907c482e576b8daacdf53e15bfeed69f4b6ef4022053587ac88ca4cb6d1447a2e7cbfca92de2076ae77e98af6606693891a5b7b3d701210339a45c3ac083a86c96dd9b3c43b2f4ec6890785b64049ca2f31297beac52495515490800", "vin": [{"txinwitness": ["3045022100eb9afc3c7397b51ff707ab3bdb907c482e576b8daacdf53e15bfeed69f4b6ef4022053587ac88ca4cb6d1447a2e7cbfca92de2076ae77e98af6606693891a5b7b3d701", "0339a45c3ac083a86c96dd9b3c43b2f4ec6890785b64049ca2f31297beac524955"], "sequence": 4294967294, "scriptSig": {"hex": "1600148931664b25bdfb926bc1951203b75614d150d149", "asm": "00148931664b25bdfb926bc1951203b75614d150d149"}, "vout": 0, "txid": "a18941b28dc35ec7e12cc0303fcbe6d6c65ed2479a65440f1ccfe8635b2e3bc0"}], "txid": "1868f83fd36d41c0128abcea50011c463cc597bcf3b6f7a9d3e0d6aed0fa5c81", "blocktime": 1537874412, "version": 2, "confirmations": 11467, "time": 1537874412, "locktime": 542997, "vsize": 168, "size": 250}