{"hash": "8b6302b1ce207b551376e1b053b63a2f516c7f3b8c0fb4f4cac3cf250cd4dff9", "blockhash": "0000000000000000001cda96e906b7601b7a6fb1a3b62bca570a9e5d8f4b3de1", "vout": [{"scriptPubKey": {"reqSigs": 1, "hex": "a91469f375cf5c62e268ec09056adbe1dfccbe519d3887", "addresses": ["3BMEXba98C4uu5KHRmPp7Fe46WRLkFMZr2"], "asm": "OP_HASH160 69f375cf5c62e268ec09056adbe1dfccbe519d38 OP_EQUAL", "type": "scripthash"}, "value": 0.9996, "n": 0}, {"scriptPubKey": {"reqSigs": 1, "hex": "a914d5615c55cd570ec49938c9c5d035a316ca57631487", "addresses": ["3M9GV9DrLggXEfybcq5PsK3RiPtSe5zLHN"], "asm": "OP_HASH160 d5615c55cd570ec49938c9c5d035a316ca576314 OP_EQUAL", "type": "scripthash"}, "value": 0.00415, "n": 1}, {"scriptPubKey": {"reqSigs": 1, "hex": "76a914cebb2851a9c7cfe2582c12ecaf7f3ff4383d1dc088ac", "addresses": ["1Kr6QSydW9bFQG1mXiPNNu6WpJGmUa9i1g"], "asm": "OP_DUP OP_HASH160 cebb2851a9c7cfe2582c12ecaf7f3ff4383d1dc0 OP_EQUALVERIFY OP_CHECKSIG", "type": "pubkeyhash"}, "value": 0.22457809, "n": 2}], "hex": "02000000000105c08d918ede882de9993339d1902eeee230f9506d47e1be6137de1f6c4f6d5a01010000006a47304402200b3eb230b55baaa3e6fce675c4b4a581a11d375250a4603e1dbe86e44fcfccb802205280a586664fd459dfbda9e3f8a2cc844dcd8c51a6a23dc07b1f5bb4a8d2ab9a01210311b5d8301dcf6c20a6175333b67ed696477c258a73e7f60689e14a3fb274dbf3ffffffffd67980be0f8cd375205b2d82037cc8b4a0d97440788d374b9dfb907563871d61000000006b483045022100b8b68466285236151a83c6eecb1979af530ba00d1ad49100a687f3128962860d02200c67cd76bcc23840d3c70129eca706fe9f9bc7285f1b32cec1457b96a5ec2ab2012102f0f07e23ac2f6d22a8db20ca29e9f0b7646d009882e0607eb5f74db51f69cd75ffffffff3800082436450f123ba5d534fba2354809920e93a9db93df1d325de9254c63141b0000006b48304502210089f25b3949d394f7966a7821c919a2765435b7811f547d4b849b976ac2781e5502204276c61d85e9fca90be923e9585bd75f93a395e198f085a702cef4feb3c2ba5f012103f4fe846af732e15c961df582551118ce3b706dda399e74041ac7e0be1a3d08a8ffffffff95de084b407f5981539c03e14e757e9967bf698ac210b0bd633f053a24f9c7f30100000017160014329bc61e3246a295322ffa01b6dbb0c3fa1e21a9ffffffff6e2277552fad27a62638b2c238346b698d1077cc1752dd04577f4070a78a50d3240000006b483045022100c03a2de008fea2214be166644f154e2f3e7293f32eaac1123d350c72c42890b2022035868cd272db2a2a598366b63d2202104ab7895621a310620a8259d9793d103d012103a343d6a2f2c1a4bb630d0df2ac212ca48e50e9f1c0502114c9520d42b26d9bf8ffffffff03c044f5050000000017a91469f375cf5c62e268ec09056adbe1dfccbe519d3887185506000000000017a914d5615c55cd570ec49938c9c5d035a316ca57631487d1ad5601000000001976a914cebb2851a9c7cfe2582c12ecaf7f3ff4383d1dc088ac00000002483045022100a5ffc02ff6033fa550ad10f9f0a9369e1da809ff802c17b3cda37dea0e6c41b502203bd604317288643a91b4fb64676caffaf591bf0989f63f56c1101f28a7ac00250121038ac26ddb1bc1bf23c32201cfd9e1f8d548137cdb865531cccb82b06c13619b0c0000000000", "vin": [{"sequence": 4294967295, "scriptSig": {"hex": "47304402200b3eb230b55baaa3e6fce675c4b4a581a11d375250a4603e1dbe86e44fcfccb802205280a586664fd459dfbda9e3f8a2cc844dcd8c51a6a23dc07b1f5bb4a8d2ab9a01210311b5d8301dcf6c20a6175333b67ed696477c258a73e7f60689e14a3fb274dbf3", "asm": "304402200b3eb230b55baaa3e6fce675c4b4a581a11d375250a4603e1dbe86e44fcfccb802205280a586664fd459dfbda9e3f8a2cc844dcd8c51a6a23dc07b1f5bb4a8d2ab9a[ALL] 0311b5d8301dcf6c20a6175333b67ed696477c258a73e7f60689e14a3fb274dbf3"}, "vout": 1, "txid": "015a6d4f6c1fde3761bee1476d50f930e2ee2e90d1393399e92d88de8e918dc0"}, {"sequence": 4294967295, "scriptSig": {"hex": "483045022100b8b68466285236151a83c6eecb1979af530ba00d1ad49100a687f3128962860d02200c67cd76bcc23840d3c70129eca706fe9f9bc7285f1b32cec1457b96a5ec2ab2012102f0f07e23ac2f6d22a8db20ca29e9f0b7646d009882e0607eb5f74db51f69cd75", "asm": "3045022100b8b68466285236151a83c6eecb1979af530ba00d1ad49100a687f3128962860d02200c67cd76bcc23840d3c70129eca706fe9f9bc7285f1b32cec1457b96a5ec2ab2[ALL] 02f0f07e23ac2f6d22a8db20ca29e9f0b7646d009882e0607eb5f74db51f69cd75"}, "vout": 0, "txid": "611d87637590fb9d4b378d784074d9a0b4c87c03822d5b2075d38c0fbe8079d6"}, {"sequence": 4294967295, "scriptSig": {"hex": "48304502210089f25b3949d394f7966a7821c919a2765435b7811f547d4b849b976ac2781e5502204276c61d85e9fca90be923e9585bd75f93a395e198f085a702cef4feb3c2ba5f012103f4fe846af732e15c961df582551118ce3b706dda399e74041ac7e0be1a3d08a8", "asm": "304502210089f25b3949d394f7966a7821c919a2765435b7811f547d4b849b976ac2781e5502204276c61d85e9fca90be923e9585bd75f93a395e198f085a702cef4feb3c2ba5f[ALL] 03f4fe846af732e15c961df582551118ce3b706dda399e74041ac7e0be1a3d08a8"}, "vout": 27, "txid": "14634c25e95d321ddf93dba9930e92094835a2fb34d5a53b120f453624080038"}, {"txinwitness": ["3045022100a5ffc02ff6033fa550ad10f9f0a9369e1da809ff802c17b3cda37dea0e6c41b502203bd604317288643a91b4fb64676caffaf591bf0989f63f56c1101f28a7ac002501", "038ac26ddb1bc1bf23c32201cfd9e1f8d548137cdb865531cccb82b06c13619b0c"], "sequence": 4294967295, "scriptSig": {"hex": "160014329bc61e3246a295322ffa01b6dbb0c3fa1e21a9", "asm": "0014329bc61e3246a295322ffa01b6dbb0c3fa1e21a9"}, "vout": 1, "txid": "f3c7f9243a053f63bdb010c28a69bf67997e754ee1039c5381597f404b08de95"}, {"sequence": 4294967295, "scriptSig": {"hex": "483045022100c03a2de008fea2214be166644f154e2f3e7293f32eaac1123d350c72c42890b2022035868cd272db2a2a598366b63d2202104ab7895621a310620a8259d9793d103d012103a343d6a2f2c1a4bb630d0df2ac212ca48e50e9f1c0502114c9520d42b26d9bf8", "asm": "3045022100c03a2de008fea2214be166644f154e2f3e7293f32eaac1123d350c72c42890b2022035868cd272db2a2a598366b63d2202104ab7895621a310620a8259d9793d103d[ALL] 03a343d6a2f2c1a4bb630d0df2ac212ca48e50e9f1c0502114c9520d42b26d9bf8"}, "vout": 36, "txid": "d3508aa770407f5704dd5217cc77108d696b3438c2b23826a627ad2f5577226e"}], "txid": "186d8adf995d2d09f23061961c6af298a5481d82022a8fee875b86a67f45065b", "blocktime": 1537873282, "version": 2, "confirmations": 11481, "time": 1537873282, "locktime": 0, "vsize": 792, "size": 877}