{"hash": "1871748f7a008c3a72afcaf96a8218514905c77e47af4e0e7fba97aaa354bc1f", "blockhash": "000000000000000000022b45ed06c6f4ccd3cf7fb5ba4856ebd2e58215665228", "vout": [{"scriptPubKey": {"reqSigs": 1, "hex": "76a914001f3de80995d1caedcfd41e1508a3b7a118440088ac", "addresses": ["11eRikY4NcgzL5TtTqdavEr6eKSWXhh6K"], "asm": "OP_DUP OP_HASH160 001f3de80995d1caedcfd41e1508a3b7a1184400 OP_EQUALVERIFY OP_CHECKSIG", "type": "pubkeyhash"}, "value": 0.00189808, "n": 0}, {"scriptPubKey": {"reqSigs": 1, "hex": "a91405e72d7bfa9e7d5862ae74b9d92b5f97c3b0b1c687", "addresses": ["32EEF1VGxzpiypJ1Fc7r5g1YGtvTGHfaud"], "asm": "OP_HASH160 05e72d7bfa9e7d5862ae74b9d92b5f97c3b0b1c6 OP_EQUAL", "type": "scripthash"}, "value": 0.00220114, "n": 1}], "hex": "010000000244c88417fcd9a6e81b1475e3a519b798f5cab24fd10679599c8c512d4bdf5411010000006a47304402201c30145e2ebd4a52917549681d3b8da92918fb32bd64f9951875d2f582eb1bde022015d3da7d1bfc4d152407223f50a2b52c1b4c5493a6df4e773e2bdba34adb68420121030518063c27e68ec16e5ed8254c1f586c8f9da8afe02a2275f8a09f5774d4e5dcffffffffefcd2dfd02c360a8e0981c4b0cbc8d47464e78b9b5b28e36e3e02801466d78c5000000006a47304402201796e4c9f2fa6f72a30ee510fbf71ec50e4893868935a181b1c1fd3e98a1bd0d02202ddd778e762e6da8d925d8c22f87900124162a88fe218950fd417c429f8c57f1012103124fd9dff6222ad1dc35c88b7ed55d78bcf1adcc730645a01a0517efababee81ffffffff0270e50200000000001976a914001f3de80995d1caedcfd41e1508a3b7a118440088acd25b03000000000017a91405e72d7bfa9e7d5862ae74b9d92b5f97c3b0b1c68700000000", "vin": [{"sequence": 4294967295, "scriptSig": {"hex": "47304402201c30145e2ebd4a52917549681d3b8da92918fb32bd64f9951875d2f582eb1bde022015d3da7d1bfc4d152407223f50a2b52c1b4c5493a6df4e773e2bdba34adb68420121030518063c27e68ec16e5ed8254c1f586c8f9da8afe02a2275f8a09f5774d4e5dc", "asm": "304402201c30145e2ebd4a52917549681d3b8da92918fb32bd64f9951875d2f582eb1bde022015d3da7d1bfc4d152407223f50a2b52c1b4c5493a6df4e773e2bdba34adb6842[ALL] 030518063c27e68ec16e5ed8254c1f586c8f9da8afe02a2275f8a09f5774d4e5dc"}, "vout": 1, "txid": "1154df4b2d518c9c597906d14fb2caf598b719a5e375141be8a6d9fc1784c844"}, {"sequence": 4294967295, "scriptSig": {"hex": "47304402201796e4c9f2fa6f72a30ee510fbf71ec50e4893868935a181b1c1fd3e98a1bd0d02202ddd778e762e6da8d925d8c22f87900124162a88fe218950fd417c429f8c57f1012103124fd9dff6222ad1dc35c88b7ed55d78bcf1adcc730645a01a0517efababee81", "asm": "304402201796e4c9f2fa6f72a30ee510fbf71ec50e4893868935a181b1c1fd3e98a1bd0d02202ddd778e762e6da8d925d8c22f87900124162a88fe218950fd417c429f8c57f1[ALL] 03124fd9dff6222ad1dc35c88b7ed55d78bcf1adcc730645a01a0517efababee81"}, "vout": 0, "txid": "c5786d460128e0e3368eb2b5b9784e46478dbc0c4b1c98e0a860c302fd2dcdef"}], "txid": "1871748f7a008c3a72afcaf96a8218514905c77e47af4e0e7fba97aaa354bc1f", "blocktime": 1537869901, "version": 1, "confirmations": 11522, "time": 1537869901, "locktime": 0, "vsize": 370, "size": 370}