{"hash": "1876a0c24baed047d3fabfbda6a012d0178ab6954228d188ed1a3ca7767696d1", "blockhash": "0000000000000000000baef3f32e3676a92c3b2e5da21b426e4f302fc371ce76", "vout": [{"scriptPubKey": {"reqSigs": 1, "hex": "76a914fb755c21465b21d67fe0285c4e182482799723da88ac", "addresses": ["1PvbCTWVS4B67suvQHv1eJZj6E5E4ZFZKQ"], "asm": "OP_DUP OP_HASH160 fb755c21465b21d67fe0285c4e182482799723da OP_EQUALVERIFY OP_CHECKSIG", "type": "pubkeyhash"}, "value": 0.01158704, "n": 0}, {"scriptPubKey": {"reqSigs": 1, "hex": "a914283bea2f46d868d18ac3316865cc56ec00c6949587", "addresses": ["35MkjAmECsYdjZoqGM75ub6kZkQ4jdbwoq"], "asm": "OP_HASH160 283bea2f46d868d18ac3316865cc56ec00c69495 OP_EQUAL", "type": "scripthash"}, "value": 0.03826421, "n": 1}], "hex": "0100000001726cfcd3b8f422a149ebdbe43ca13cc84b1e8a3909ec02caa85fd5f1d2b6c7db000000006a4730440220396f33378b2a29ae582eaa6a157f07154cbeed3c8fd6b538b640042cf764b2c302203d6b6d1c6988aa7687cb3adfd9710b15ceaa927d6fc2d5075107cf600f4b71cf01210261ce44664ecbf7375ffc4db16fcc223d85a51089a8e555286fdad7ffda4c3e5bffffffff0230ae1100000000001976a914fb755c21465b21d67fe0285c4e182482799723da88acf5623a000000000017a914283bea2f46d868d18ac3316865cc56ec00c694958700000000", "vin": [{"sequence": 4294967295, "scriptSig": {"hex": "4730440220396f33378b2a29ae582eaa6a157f07154cbeed3c8fd6b538b640042cf764b2c302203d6b6d1c6988aa7687cb3adfd9710b15ceaa927d6fc2d5075107cf600f4b71cf01210261ce44664ecbf7375ffc4db16fcc223d85a51089a8e555286fdad7ffda4c3e5b", "asm": "30440220396f33378b2a29ae582eaa6a157f07154cbeed3c8fd6b538b640042cf764b2c302203d6b6d1c6988aa7687cb3adfd9710b15ceaa927d6fc2d5075107cf600f4b71cf[ALL] 0261ce44664ecbf7375ffc4db16fcc223d85a51089a8e555286fdad7ffda4c3e5b"}, "vout": 0, "txid": "dbc7b6d2f1d55fa8ca02ec09398a1e4bc83ca13ce4dbeb49a122f4b8d3fc6c72"}], "txid": "1876a0c24baed047d3fabfbda6a012d0178ab6954228d188ed1a3ca7767696d1", "blocktime": 1537876114, "version": 1, "confirmations": 11459, "time": 1537876114, "locktime": 0, "vsize": 223, "size": 223}