{"hash": "908c9a86f28d1b337fa4741d9332df93daea7f0325e7534287ff7649d30ba982", "blockhash": "0000000000000000001f76057863aec43deb6fa401d9628bb513d65a8098bfab", "vout": [{"scriptPubKey": {"reqSigs": 1, "hex": "a914963e1d54032e665ee038264395b861885e48671487", "addresses": ["3FPRh7ZAjeiQfqVb78xLPSKQqb6yeraRqq"], "asm": "OP_HASH160 963e1d54032e665ee038264395b861885e486714 OP_EQUAL", "type": "scripthash"}, "value": 0.01347418, "n": 0}, {"scriptPubKey": {"type": "nulldata", "hex": "6a200935b3321ead60f9c8038dad25d7fe5970c2ce5b40e28191363f65a93b532ec7", "asm": "OP_RETURN 0935b3321ead60f9c8038dad25d7fe5970c2ce5b40e28191363f65a93b532ec7"}, "value": 0.0, "n": 1}], "hex": "01000000000101a22ba5e9caedb2612de95bceeaddf49bc6d928a351d7262c62edc0331e2d93170000000017160014c8adfdcd69f2d6582d24d4a51ca5442e1dd07558fdffffff025a8f14000000000017a914963e1d54032e665ee038264395b861885e486714870000000000000000226a200935b3321ead60f9c8038dad25d7fe5970c2ce5b40e28191363f65a93b532ec70247304402206a3998953fb15ac4c9f7c28096c7c8893e42c2d2df517a181f99ad22c23229ad0220249ee4b8ca811f45190cb3b19ff6a19e7137f1771dd7b2ccc493873f9a05eef50121021b0e811fb960075721b42411de1cb04429c056fb15c0511ba624a6473441e43414490800", "vin": [{"txinwitness": ["304402206a3998953fb15ac4c9f7c28096c7c8893e42c2d2df517a181f99ad22c23229ad0220249ee4b8ca811f45190cb3b19ff6a19e7137f1771dd7b2ccc493873f9a05eef501", "021b0e811fb960075721b42411de1cb04429c056fb15c0511ba624a6473441e434"], "sequence": 4294967293, "scriptSig": {"hex": "160014c8adfdcd69f2d6582d24d4a51ca5442e1dd07558", "asm": "0014c8adfdcd69f2d6582d24d4a51ca5442e1dd07558"}, "vout": 0, "txid": "17932d1e33c0ed622c26d751a328d9c69bf4ddeace5be92d61b2edcae9a52ba2"}], "txid": "1886a9db664d9ec1bdb756ad2547b774ae58f55e0129e7793938bcbf22d86541", "blocktime": 1537873891, "version": 1, "confirmations": 11479, "time": 1537873891, "locktime": 542996, "vsize": 177, "size": 258}