{"hash": "18888bf5245b3882eace384fbe4e0476f43176e910020393cb4f70fc9f02a6a6", "blockhash": "000000000000000000022b45ed06c6f4ccd3cf7fb5ba4856ebd2e58215665228", "vout": [{"scriptPubKey": {"reqSigs": 1, "hex": "0014d27df75186610e986a274cc12e28cd03941ab389", "addresses": ["bc1q6f7lw5vxvy8fs638fnqju2xdqw2p4vufu3wcky"], "asm": "0 d27df75186610e986a274cc12e28cd03941ab389", "type": "witness_v0_keyhash"}, "value": 0.00306278, "n": 0}, {"scriptPubKey": {"reqSigs": 1, "hex": "a914c72753b8acc696ba42450bdf8fcc626888e2d7e787", "addresses": ["3Kr3WD3NdQbRiXyqmQXDA88nczszex7dn6"], "asm": "OP_HASH160 c72753b8acc696ba42450bdf8fcc626888e2d7e7 OP_EQUAL", "type": "scripthash"}, "value": 0.08208, "n": 1}], "hex": "010000000142925044d05a22bd5bc5ae586760bff68b0aeb2dd40b5a14e8fff63285dc3dec010000006b483045022100ebff70814aca7c7f38931730a5862f995e3a594f38ba8807795e1935af4c0bf90220786722f9cb83c101c6417656ad35ec087baf9b174c91d4ec9be7853ab95f9233012102bad80b7722ce33de4c734db39120b74d04d37f509e04b52c982981413c83ee7fffffffff0266ac040000000000160014d27df75186610e986a274cc12e28cd03941ab389803e7d000000000017a914c72753b8acc696ba42450bdf8fcc626888e2d7e78700000000", "vin": [{"sequence": 4294967295, "scriptSig": {"hex": "483045022100ebff70814aca7c7f38931730a5862f995e3a594f38ba8807795e1935af4c0bf90220786722f9cb83c101c6417656ad35ec087baf9b174c91d4ec9be7853ab95f9233012102bad80b7722ce33de4c734db39120b74d04d37f509e04b52c982981413c83ee7f", "asm": "3045022100ebff70814aca7c7f38931730a5862f995e3a594f38ba8807795e1935af4c0bf90220786722f9cb83c101c6417656ad35ec087baf9b174c91d4ec9be7853ab95f9233[ALL] 02bad80b7722ce33de4c734db39120b74d04d37f509e04b52c982981413c83ee7f"}, "vout": 1, "txid": "ec3ddc8532f6ffe8145a0bd42deb0a8bf6bf606758aec55bbd225ad044509242"}], "txid": "18888bf5245b3882eace384fbe4e0476f43176e910020393cb4f70fc9f02a6a6", "blocktime": 1537869901, "version": 1, "confirmations": 11523, "time": 1537869901, "locktime": 0, "vsize": 221, "size": 221}