{"hash": "188a7be989acd9fac9866d5c8f58553446480f864df2455b5c3610b5fb2f4387", "blockhash": "00000000000000000017f5eb5941039fbcee6240d03bc1f2f8e35350df66a1d8", "vout": [{"scriptPubKey": {"reqSigs": 1, "hex": "76a9143b74edb5bdeb006d1ad808a1d3ee0f9afcd9025a88ac", "addresses": ["16RNwf55UuUwLgbdh8m8emVSBZxo7XDjZW"], "asm": "OP_DUP OP_HASH160 3b74edb5bdeb006d1ad808a1d3ee0f9afcd9025a OP_EQUALVERIFY OP_CHECKSIG", "type": "pubkeyhash"}, "value": 0.0002404, "n": 0}, {"scriptPubKey": {"reqSigs": 1, "hex": "76a914d54c53a392c08e86c628595382bf9cd80c4c9bc688ac", "addresses": ["1LSpN8iNYdvZMztL2bRGDVjFwtzZ7ZgK6B"], "asm": "OP_DUP OP_HASH160 d54c53a392c08e86c628595382bf9cd80c4c9bc6 OP_EQUALVERIFY OP_CHECKSIG", "type": "pubkeyhash"}, "value": 0.00391327, "n": 1}], "hex": "01000000012cb923bc136738646cca000aaf6ced0b089272fcc054a67f358abded1ea696d2000000006a473044022044fd47f3aacbecc6d65d8989c10aed1de1002c7a22ad1877788b2466a049a7ca022003d96e9322454d643b044cfdf7db1d45280a1a44432faea90cd33f21c5660c5f012103ebcbb7e8ff0431400f91a767b9a31d68c8f7e336c42862bdcb98a4a3d392953dffffffff02e85d0000000000001976a9143b74edb5bdeb006d1ad808a1d3ee0f9afcd9025a88ac9ff80500000000001976a914d54c53a392c08e86c628595382bf9cd80c4c9bc688ac00000000", "vin": [{"sequence": 4294967295, "scriptSig": {"hex": "473044022044fd47f3aacbecc6d65d8989c10aed1de1002c7a22ad1877788b2466a049a7ca022003d96e9322454d643b044cfdf7db1d45280a1a44432faea90cd33f21c5660c5f012103ebcbb7e8ff0431400f91a767b9a31d68c8f7e336c42862bdcb98a4a3d392953d", "asm": "3044022044fd47f3aacbecc6d65d8989c10aed1de1002c7a22ad1877788b2466a049a7ca022003d96e9322454d643b044cfdf7db1d45280a1a44432faea90cd33f21c5660c5f[ALL] 03ebcbb7e8ff0431400f91a767b9a31d68c8f7e336c42862bdcb98a4a3d392953d"}, "vout": 0, "txid": "d296a61eedbd8a357fa654c0fc7292080bed6caf0a00ca6c64386713bc23b92c"}], "txid": "188a7be989acd9fac9866d5c8f58553446480f864df2455b5c3610b5fb2f4387", "blocktime": 1537874412, "version": 1, "confirmations": 11468, "time": 1537874412, "locktime": 0, "vsize": 225, "size": 225}