{"hash": "189134c01d457d7c8e70ea1d9dce56c77f6eb676e1e8b0fbb73f8968a4af92b1", "blockhash": "00000000000000000004ffacab907a6b429b9a5745fa0b75af4234bf69dd7176", "vout": [{"scriptPubKey": {"reqSigs": 1, "hex": "76a9140e1edbd9eddd589c79828a1b17d9b861bfda345588ac", "addresses": ["12HfRnx47gQnnYn9Q3Zpiuzzv6yzXTKMEJ"], "asm": "OP_DUP OP_HASH160 0e1edbd9eddd589c79828a1b17d9b861bfda3455 OP_EQUALVERIFY OP_CHECKSIG", "type": "pubkeyhash"}, "value": 0.01829923, "n": 0}, {"scriptPubKey": {"reqSigs": 1, "hex": "76a914164d74fb7a7d6c60d2a4ebef2cdfb75ac086d84d88ac", "addresses": ["132vf2QwBzYNtthmhSuJySfUp4ajvL1brT"], "asm": "OP_DUP OP_HASH160 164d74fb7a7d6c60d2a4ebef2cdfb75ac086d84d OP_EQUALVERIFY OP_CHECKSIG", "type": "pubkeyhash"}, "value": 0.06567086, "n": 1}], "hex": "0100000001b7dc77c487eaf78ef4c07cee9e58dee73d449b7403e23390503ab4b58c8cd62d000000008a473044022050581e03667cb9801989af243b665031213dfc92e3b0329ce6eb4d5e462f5245022070ca40a0152ee111c6a428cc7ff8fa2e8d913896937cd38c796625eae730c6220141041cf91de01c9497a22e506a4770d3997d2db29cf5a6f6f3239a7f84e2b11f5f1bc741398b872f79a96a883f0820b4b69e9d736e98748e67334675f5c5fd3365e8ffffffff0223ec1b00000000001976a9140e1edbd9eddd589c79828a1b17d9b861bfda345588acae346400000000001976a914164d74fb7a7d6c60d2a4ebef2cdfb75ac086d84d88ac00000000", "vin": [{"sequence": 4294967295, "scriptSig": {"hex": "473044022050581e03667cb9801989af243b665031213dfc92e3b0329ce6eb4d5e462f5245022070ca40a0152ee111c6a428cc7ff8fa2e8d913896937cd38c796625eae730c6220141041cf91de01c9497a22e506a4770d3997d2db29cf5a6f6f3239a7f84e2b11f5f1bc741398b872f79a96a883f0820b4b69e9d736e98748e67334675f5c5fd3365e8", "asm": "3044022050581e03667cb9801989af243b665031213dfc92e3b0329ce6eb4d5e462f5245022070ca40a0152ee111c6a428cc7ff8fa2e8d913896937cd38c796625eae730c622[ALL] 041cf91de01c9497a22e506a4770d3997d2db29cf5a6f6f3239a7f84e2b11f5f1bc741398b872f79a96a883f0820b4b69e9d736e98748e67334675f5c5fd3365e8"}, "vout": 0, "txid": "2dd68c8cb5b43a509033e203749b443de7de589eee7cc0f48ef7ea87c477dcb7"}], "txid": "189134c01d457d7c8e70ea1d9dce56c77f6eb676e1e8b0fbb73f8968a4af92b1", "blocktime": 1537875543, "version": 1, "confirmations": 11464, "time": 1537875543, "locktime": 0, "vsize": 257, "size": 257}