{"hash": "698d6326ef0809b3ae3183b83371aa54da03cacf89ea7dea8abf3471e48ba41a", "blockhash": "00000000000000000017f5eb5941039fbcee6240d03bc1f2f8e35350df66a1d8", "vout": [{"scriptPubKey": {"reqSigs": 1, "hex": "a914692b062091646cadbe204990290f2c6e87b383c887", "addresses": ["3BH6R3MFirjwqxWzAvaMwg5XNTTmRZbVWj"], "asm": "OP_HASH160 692b062091646cadbe204990290f2c6e87b383c8 OP_EQUAL", "type": "scripthash"}, "value": 0.00030707, "n": 0}, {"scriptPubKey": {"reqSigs": 1, "hex": "0014616075f101264f6582c9ac6ffaafca19e6d9bc50", "addresses": ["bc1qv9s8tugpye8ktqkf43hl4t72r8ndn0zsft2avm"], "asm": "0 616075f101264f6582c9ac6ffaafca19e6d9bc50", "type": "witness_v0_keyhash"}, "value": 9.71e-06, "n": 1}], "hex": "01000000000101614aa99a6c655b8a96d2c8755399a1bc1a51539484877bb0117a4d654c0fccc20100000000ffffffff02f37700000000000017a914692b062091646cadbe204990290f2c6e87b383c887cb03000000000000160014616075f101264f6582c9ac6ffaafca19e6d9bc5002483045022100a91dcbdc595a4b88f86528c626bba806edcba0d1453fbb66c91f7e88e7ef620402204a833da2b7d172993b79fea9dd2a4b472149e587a72a7dfcba27804a063c0487012102954b03eb0f8397bebfbba288bf4df9060773097889b82ca2ace0ad8a7187defa00000000", "vin": [{"txinwitness": ["3045022100a91dcbdc595a4b88f86528c626bba806edcba0d1453fbb66c91f7e88e7ef620402204a833da2b7d172993b79fea9dd2a4b472149e587a72a7dfcba27804a063c048701", "02954b03eb0f8397bebfbba288bf4df9060773097889b82ca2ace0ad8a7187defa"], "sequence": 4294967295, "scriptSig": {"hex": "", "asm": ""}, "vout": 1, "txid": "c2cc0f4c654d7a11b07b87849453511abca1995375c8d2968a5b656c9aa94a61"}], "txid": "189b8ba8ee76e297858e26bd2d961b939b8b472425982f6de147ca318e2ff9e5", "blocktime": 1537874412, "version": 1, "confirmations": 11467, "time": 1537874412, "locktime": 0, "vsize": 142, "size": 224}