{"hash": "18ace8e2f8b65d9f3dfb9ca13841224084dd970a13d904bf47c8413a992b88e3", "blockhash": "0000000000000000001f76057863aec43deb6fa401d9628bb513d65a8098bfab", "vout": [{"scriptPubKey": {"reqSigs": 1, "hex": "76a9149ae2d6726d943bf2fcff3e1fbffcdc87ce400ff088ac", "addresses": ["1F7xoW2VmJFPtTxC8DghgyXfJeJxkXxz9J"], "asm": "OP_DUP OP_HASH160 9ae2d6726d943bf2fcff3e1fbffcdc87ce400ff0 OP_EQUALVERIFY OP_CHECKSIG", "type": "pubkeyhash"}, "value": 0.035, "n": 0}, {"scriptPubKey": {"reqSigs": 1, "hex": "a914f7f47555406ddaeb411135531b23d529b231511187", "addresses": ["3QJ5gBtYXDkxamZravjRc7WmDAqdDJjf49"], "asm": "OP_HASH160 f7f47555406ddaeb411135531b23d529b2315111 OP_EQUAL", "type": "scripthash"}, "value": 3.85606306, "n": 1}, {"scriptPubKey": {"reqSigs": 1, "hex": "a914b103d9226da072d78e50f4826c3b6fcfca4a3bee87", "addresses": ["3Hpz8sefXRT9W6bMwkR8nzzebAuU6kiA6G"], "asm": "OP_HASH160 b103d9226da072d78e50f4826c3b6fcfca4a3bee OP_EQUAL", "type": "scripthash"}, "value": 0.1035745, "n": 2}], "hex": "02000000000101f251fad31c30f1838a5e78900f999f59b444dbbc873984f4e5299c8913f1859a00000000171600140f80070687bb819cb4e23c3d89328a220216672dfeffffff03e0673500000000001976a9149ae2d6726d943bf2fcff3e1fbffcdc87ce400ff088aca2e2fb160000000017a914f7f47555406ddaeb411135531b23d529b231511187ca0a9e000000000017a914b103d9226da072d78e50f4826c3b6fcfca4a3bee8702473044022009e069a8b33b5f6834c57f6cd08f6e2a17bb95fc99096bb93c53e21a2dd9377602204e316c59a2d2192ad3d4b906a7cc211d333731391f998cf39c2511478c907d870121026627e65260b4ac763ba44e279668b01aa88f88d7a8915d48861ef92a98fb732614490800", "vin": [{"txinwitness": ["3044022009e069a8b33b5f6834c57f6cd08f6e2a17bb95fc99096bb93c53e21a2dd9377602204e316c59a2d2192ad3d4b906a7cc211d333731391f998cf39c2511478c907d8701", "026627e65260b4ac763ba44e279668b01aa88f88d7a8915d48861ef92a98fb7326"], "sequence": 4294967294, "scriptSig": {"hex": "1600140f80070687bb819cb4e23c3d89328a220216672d", "asm": "00140f80070687bb819cb4e23c3d89328a220216672d"}, "vout": 0, "txid": "9a85f113899c29e5f4843987bcdb44b4599f990f90785e8a83f1301cd3fa51f2"}], "txid": "18a0e120d15fe0ee19f4794c66c856371176dd4a3da80b3c9f65889bd0b03a70", "blocktime": 1537873891, "version": 2, "confirmations": 11475, "time": 1537873891, "locktime": 542996, "vsize": 200, "size": 281}