{"hash": "b37cbb65b88c8228dab9331400d0a89913a6ce1b4041fee5af49134fcfa56292", "blockhash": "0000000000000000000e13cef7c366c0283d82e591d1acd082e914b08063cdf1", "vout": [{"scriptPubKey": {"reqSigs": 1, "hex": "a914dc2b01b515600807ac0b090ed72b9cce31caec1087", "addresses": ["3MmA6uHKWMFa2tYfXGuSJxeheZcCuPS83L"], "asm": "OP_HASH160 dc2b01b515600807ac0b090ed72b9cce31caec10 OP_EQUAL", "type": "scripthash"}, "value": 1.17723406, "n": 0}, {"scriptPubKey": {"reqSigs": 1, "hex": "a9142f9f3beded7ca0cb082192bdb7ac56b11cc87c8687", "addresses": ["362pSLcWm4VnoebjYqpe8ThZbHzGcg1yea"], "asm": "OP_HASH160 2f9f3beded7ca0cb082192bdb7ac56b11cc87c86 OP_EQUAL", "type": "scripthash"}, "value": 0.00371351, "n": 1}], "hex": "0200000000010124531740eccf9f33c519862ec46ebc1ea0d24cb19b454d8eabf221735fcd0e1e00000000171600140100c1de078e891b2d65d9ff1a87f2c84c2f90d5feffffff020e5104070000000017a914dc2b01b515600807ac0b090ed72b9cce31caec108797aa05000000000017a9142f9f3beded7ca0cb082192bdb7ac56b11cc87c868702483045022100a697de1510d472abe8b21f2a1a7a43b27ec290b49745396d4e9ee4f602dc3933022003469e45200becebb3a6223b53367a1b4c030c1260d10271efdf3c5edccde9ab012102ff2f25f4fb81aeec6db5253b58a98ec2e7b9779f8e1d39957f75882605ecbff610490800", "vin": [{"txinwitness": ["3045022100a697de1510d472abe8b21f2a1a7a43b27ec290b49745396d4e9ee4f602dc3933022003469e45200becebb3a6223b53367a1b4c030c1260d10271efdf3c5edccde9ab01", "02ff2f25f4fb81aeec6db5253b58a98ec2e7b9779f8e1d39957f75882605ecbff6"], "sequence": 4294967294, "scriptSig": {"hex": "1600140100c1de078e891b2d65d9ff1a87f2c84c2f90d5", "asm": "00140100c1de078e891b2d65d9ff1a87f2c84c2f90d5"}, "vout": 0, "txid": "1e0ecd5f7321f2ab8e4d459bb14cd2a01ebc6ec42e8619c5339fcfec40175324"}], "txid": "18a3fd6ab3fb6f6b3a51342dce29ec387a7fa25299984d7d449bd4264a797342", "blocktime": 1537871767, "version": 2, "confirmations": 11495, "time": 1537871767, "locktime": 542992, "vsize": 166, "size": 248}