{"hash": "18a32aee8425e0e9e274cda5e1a1d579a3be910f96e75cb9ebb015a42099ced3", "blockhash": "00000000000000000017f5eb5941039fbcee6240d03bc1f2f8e35350df66a1d8", "vout": [{"scriptPubKey": {"reqSigs": 1, "hex": "76a914386404e815f9f7970d06f58066e4f888896dd3a688ac", "addresses": ["169AfCNPbKadphZirZA8NsqfV2UFV2uYbX"], "asm": "OP_DUP OP_HASH160 386404e815f9f7970d06f58066e4f888896dd3a6 OP_EQUALVERIFY OP_CHECKSIG", "type": "pubkeyhash"}, "value": 0.06237057, "n": 0}, {"scriptPubKey": {"reqSigs": 1, "hex": "76a914268bfa431af71c7de644eb85478fe8d50498e77a88ac", "addresses": ["14WpN6xi7QLZHipbfQQyctJnDbSuMriB8D"], "asm": "OP_DUP OP_HASH160 268bfa431af71c7de644eb85478fe8d50498e77a OP_EQUALVERIFY OP_CHECKSIG", "type": "pubkeyhash"}, "value": 0.06252, "n": 1}], "hex": "01000000014d626a868ea05417e64fcc337cbd9ce15f0384ad08f4cd486329e11514dae4ed010000006a473044022074238160f94312c645b9490dbd86219636878932e3ebb7e062d8ba4be3232f8b02206593582273d3cf7db2a4445e0728c6535949e9474247c2162c7588da04bf8709012102fbeb6d765d8ecdd332b49c3c52b9987f31dfabe843410c39051104558d6b6a7cffffffff02812b5f00000000001976a914386404e815f9f7970d06f58066e4f888896dd3a688ace0655f00000000001976a914268bfa431af71c7de644eb85478fe8d50498e77a88ac00000000", "vin": [{"sequence": 4294967295, "scriptSig": {"hex": "473044022074238160f94312c645b9490dbd86219636878932e3ebb7e062d8ba4be3232f8b02206593582273d3cf7db2a4445e0728c6535949e9474247c2162c7588da04bf8709012102fbeb6d765d8ecdd332b49c3c52b9987f31dfabe843410c39051104558d6b6a7c", "asm": "3044022074238160f94312c645b9490dbd86219636878932e3ebb7e062d8ba4be3232f8b02206593582273d3cf7db2a4445e0728c6535949e9474247c2162c7588da04bf8709[ALL] 02fbeb6d765d8ecdd332b49c3c52b9987f31dfabe843410c39051104558d6b6a7c"}, "vout": 1, "txid": "ede4da1415e1296348cdf408ad84035fe19cbd7c33cc4fe61754a08e866a624d"}], "txid": "18a32aee8425e0e9e274cda5e1a1d579a3be910f96e75cb9ebb015a42099ced3", "blocktime": 1537874412, "version": 1, "confirmations": 11468, "time": 1537874412, "locktime": 0, "vsize": 225, "size": 225}