{"hash": "0486ea74e6f6e2f90606f73282d834c28b45aabce0dfbbb21ce8a7d904432cef", "blockhash": "000000000000000000022b45ed06c6f4ccd3cf7fb5ba4856ebd2e58215665228", "vout": [{"scriptPubKey": {"reqSigs": 1, "hex": "76a914a645b33c7f1567d77f9b2e425b9c6becdc32607c88ac", "addresses": ["1GAAfhHf3nsgEtcrXNM6xjfD9hg8cg8zTH"], "asm": "OP_DUP OP_HASH160 a645b33c7f1567d77f9b2e425b9c6becdc32607c OP_EQUALVERIFY OP_CHECKSIG", "type": "pubkeyhash"}, "value": 0.0028576, "n": 0}, {"scriptPubKey": {"reqSigs": 1, "hex": "a9145a4ec17c395a9a2a108912195677ec8a2a931aec87", "addresses": ["39vX5rgyu1thgp92mjdADrwk2VzHwA5pQf"], "asm": "OP_HASH160 5a4ec17c395a9a2a108912195677ec8a2a931aec OP_EQUAL", "type": "scripthash"}, "value": 0.01023393, "n": 1}], "hex": "020000000001023adb112e537454bea2e6d7dcfa63d7f178964dcc7ef81d6065d690d3c8a32cc80100000017160014494bfd075d531e2d5bcaa13a2dea79f93d58b7d1feffffff4debeb79fcdeb61671a824f5c7b7b8c53d4529c10686dc3fa5623ce3f66d02f906000000171600146a7bfcece74e646890eb462fc7bb0cffa9eba2a9feffffff02405c0400000000001976a914a645b33c7f1567d77f9b2e425b9c6becdc32607c88aca19d0f000000000017a9145a4ec17c395a9a2a108912195677ec8a2a931aec870247304402200a383ca969fb2e5169ef59e6f68ba66b91260b5789019063b0023320bfe364bc02206b0b68fbce154c56390e41e6dbeff2ddbd9e358e996ce5ddcfa60c51b37867ee012103fb9cd11cedd8973e817964fe51f2167c2dcfaded332b7f3813c7df6a0addf6ce02473044022003cb95bb01ca2720811a76b93102748e68f7d32b338f6e122e3988167baf01fb02203d09d9668111d09437081ced0d93d85d4b33bbb2364e309c685b92979ad22428012103079cc165c3b0ee9fefe7ea2a4e3a873c89be9bbe8a4984d0056a5edb10a062200b490800", "vin": [{"txinwitness": ["304402200a383ca969fb2e5169ef59e6f68ba66b91260b5789019063b0023320bfe364bc02206b0b68fbce154c56390e41e6dbeff2ddbd9e358e996ce5ddcfa60c51b37867ee01", "03fb9cd11cedd8973e817964fe51f2167c2dcfaded332b7f3813c7df6a0addf6ce"], "sequence": 4294967294, "scriptSig": {"hex": "160014494bfd075d531e2d5bcaa13a2dea79f93d58b7d1", "asm": "0014494bfd075d531e2d5bcaa13a2dea79f93d58b7d1"}, "vout": 1, "txid": "c82ca3c8d390d665601df87ecc4d9678f1d763fadcd7e6a2be5474532e11db3a"}, {"txinwitness": ["3044022003cb95bb01ca2720811a76b93102748e68f7d32b338f6e122e3988167baf01fb02203d09d9668111d09437081ced0d93d85d4b33bbb2364e309c685b92979ad2242801", "03079cc165c3b0ee9fefe7ea2a4e3a873c89be9bbe8a4984d0056a5edb10a06220"], "sequence": 4294967294, "scriptSig": {"hex": "1600146a7bfcece74e646890eb462fc7bb0cffa9eba2a9", "asm": "00146a7bfcece74e646890eb462fc7bb0cffa9eba2a9"}, "vout": 6, "txid": "f9026df6e33c62a53fdc8606c129453dc5b8b7c7f524a87116b6defc79ebeb4d"}], "txid": "18a40673ad7dd210427818d5310bb0535fd2aeeb38e72278aaedbbfc0ef381da", "blocktime": 1537869901, "version": 2, "confirmations": 11524, "time": 1537869901, "locktime": 542987, "vsize": 258, "size": 420}