{"hash": "18a4e5134f9fd7fc7cc741b6dea6331d3d9572ff93a8d82015958ffc658b0a92", "blockhash": "0000000000000000001cda96e906b7601b7a6fb1a3b62bca570a9e5d8f4b3de1", "vout": [{"scriptPubKey": {"reqSigs": 1, "hex": "76a914a58aaafac0743b7f04f0a455d84c4e203106e44888ac", "addresses": ["1G6JcU24iZ3qhBoXnrPbau8fyBSXfCdXkJ"], "asm": "OP_DUP OP_HASH160 a58aaafac0743b7f04f0a455d84c4e203106e448 OP_EQUALVERIFY OP_CHECKSIG", "type": "pubkeyhash"}, "value": 0.00051664, "n": 0}, {"scriptPubKey": {"reqSigs": 1, "hex": "a9149975c87a264994f4807b9b06dffab1c403ad576a87", "addresses": ["3FgSQcDfNALPH4Szk9pQxTrEAyGrK3c4ir"], "asm": "OP_HASH160 9975c87a264994f4807b9b06dffab1c403ad576a OP_EQUAL", "type": "scripthash"}, "value": 0.01735, "n": 1}], "hex": "01000000012d3678016ad0cd48cca65800a5498c81013190812d5126a846de07531f53df64040000006a473044022020b5c7dae5b5b9095b160f3279e1c28c9c850aeffe29e642d953c81a193bc752022061669bd156a0bcb05e73444103191e9e0f19f6393ebc075de41ed88f4482e7ed012102388773ba261304412bc7ff80d5d1bc853f92c07885322c50bad35b8ce66f7306fdffffff02d0c90000000000001976a914a58aaafac0743b7f04f0a455d84c4e203106e44888ac58791a000000000017a9149975c87a264994f4807b9b06dffab1c403ad576a8713490800", "vin": [{"sequence": 4294967293, "scriptSig": {"hex": "473044022020b5c7dae5b5b9095b160f3279e1c28c9c850aeffe29e642d953c81a193bc752022061669bd156a0bcb05e73444103191e9e0f19f6393ebc075de41ed88f4482e7ed012102388773ba261304412bc7ff80d5d1bc853f92c07885322c50bad35b8ce66f7306", "asm": "3044022020b5c7dae5b5b9095b160f3279e1c28c9c850aeffe29e642d953c81a193bc752022061669bd156a0bcb05e73444103191e9e0f19f6393ebc075de41ed88f4482e7ed[ALL] 02388773ba261304412bc7ff80d5d1bc853f92c07885322c50bad35b8ce66f7306"}, "vout": 4, "txid": "64df531f5307de46a826512d81903101818c49a50058a6cc48cdd06a0178362d"}], "txid": "18a4e5134f9fd7fc7cc741b6dea6331d3d9572ff93a8d82015958ffc658b0a92", "blocktime": 1537873282, "version": 1, "confirmations": 11485, "time": 1537873282, "locktime": 542995, "vsize": 223, "size": 223}