{"hash": "18ade4c6c486c1d8d4fe57b39d52214981038a77462fb854b2085a4445c41ca5", "blockhash": "0000000000000000001cda96e906b7601b7a6fb1a3b62bca570a9e5d8f4b3de1", "vout": [{"scriptPubKey": {"reqSigs": 1, "hex": "76a9144d67b92fe5d1394675da832c31c5ecd2847399ee88ac", "addresses": ["184HHbhRUsJMG6xTWkbVorV412DAfd3vkt"], "asm": "OP_DUP OP_HASH160 4d67b92fe5d1394675da832c31c5ecd2847399ee OP_EQUALVERIFY OP_CHECKSIG", "type": "pubkeyhash"}, "value": 0.20493507, "n": 0}, {"scriptPubKey": {"reqSigs": 1, "hex": "76a914a38862da8eaeda30fb7614e5eecdba06a859c2c588ac", "addresses": ["1FugXYZ4ATCXAmwss7EiwPHmxxTNsziZUs"], "asm": "OP_DUP OP_HASH160 a38862da8eaeda30fb7614e5eecdba06a859c2c5 OP_EQUALVERIFY OP_CHECKSIG", "type": "pubkeyhash"}, "value": 0.078167, "n": 1}], "hex": "0100000001f5ee41b7c8d576011a0f3195668d791469f0e98a5e80da1fbd28e62c75eb5359050000006a47304402204c531d1590b0984a0b6bbebc6e99633a0b41a0696c1cea804c8d409d87e877ff02203ca29296d5a8fe0100b44c4ed174ecccb3470dbec62cd43cbdec713f30c56e76012102a6f3332f432a2fb2bd8df68ef3dcf7dca47c83ed694300fe89d7147a1941f8d4ffffffff02c3b43801000000001976a9144d67b92fe5d1394675da832c31c5ecd2847399ee88acfc457700000000001976a914a38862da8eaeda30fb7614e5eecdba06a859c2c588ac00000000", "vin": [{"sequence": 4294967295, "scriptSig": {"hex": "47304402204c531d1590b0984a0b6bbebc6e99633a0b41a0696c1cea804c8d409d87e877ff02203ca29296d5a8fe0100b44c4ed174ecccb3470dbec62cd43cbdec713f30c56e76012102a6f3332f432a2fb2bd8df68ef3dcf7dca47c83ed694300fe89d7147a1941f8d4", "asm": "304402204c531d1590b0984a0b6bbebc6e99633a0b41a0696c1cea804c8d409d87e877ff02203ca29296d5a8fe0100b44c4ed174ecccb3470dbec62cd43cbdec713f30c56e76[ALL] 02a6f3332f432a2fb2bd8df68ef3dcf7dca47c83ed694300fe89d7147a1941f8d4"}, "vout": 5, "txid": "5953eb752ce628bd1fda805e8ae9f06914798d6695310f1a0176d5c8b741eef5"}], "txid": "18ade4c6c486c1d8d4fe57b39d52214981038a77462fb854b2085a4445c41ca5", "blocktime": 1537873282, "version": 1, "confirmations": 11485, "time": 1537873282, "locktime": 0, "vsize": 225, "size": 225}