{"hash": "18aee5896fe7fd060fa032fd9e6f62d78dac5b8006f08f3792f06a2200646676", "blockhash": "00000000000000000004ffacab907a6b429b9a5745fa0b75af4234bf69dd7176", "vout": [{"scriptPubKey": {"reqSigs": 1, "hex": "76a914df0643d06f4edceb878de94c1af8f66f4718ae4988ac", "addresses": ["1MLFC57tJmJr4NE9ZSFmRNkaaTRGpxZRUd"], "asm": "OP_DUP OP_HASH160 df0643d06f4edceb878de94c1af8f66f4718ae49 OP_EQUALVERIFY OP_CHECKSIG", "type": "pubkeyhash"}, "value": 0.00233, "n": 0}, {"scriptPubKey": {"reqSigs": 1, "hex": "76a914fae314317f745654c4687855b3aed0475f51d0fd88ac", "addresses": ["1PsZxg94FKV1jUkeEryfBPdXK5DG1pJdaa"], "asm": "OP_DUP OP_HASH160 fae314317f745654c4687855b3aed0475f51d0fd OP_EQUALVERIFY OP_CHECKSIG", "type": "pubkeyhash"}, "value": 0.00672115, "n": 1}], "hex": "0100000001f50ab60899ed8de73797cf72ae95f94e7772317dd3112e84d64cc6e03a2bf3ca010000006a473044022065272ec50e1d0c71efe4146f6678cea78a484fb2e06052a35d5c6f5d92a23c5d0220224c4cba677a2c5c9abdd80031aee85a262baa40fca2bf2564f99c237c693cce0121037f66d679029a5df1c7da981e4917f51b6eca59ce86177a356063ac2aa9578c99ffffffff02288e0300000000001976a914df0643d06f4edceb878de94c1af8f66f4718ae4988ac73410a00000000001976a914fae314317f745654c4687855b3aed0475f51d0fd88ac00000000", "vin": [{"sequence": 4294967295, "scriptSig": {"hex": "473044022065272ec50e1d0c71efe4146f6678cea78a484fb2e06052a35d5c6f5d92a23c5d0220224c4cba677a2c5c9abdd80031aee85a262baa40fca2bf2564f99c237c693cce0121037f66d679029a5df1c7da981e4917f51b6eca59ce86177a356063ac2aa9578c99", "asm": "3044022065272ec50e1d0c71efe4146f6678cea78a484fb2e06052a35d5c6f5d92a23c5d0220224c4cba677a2c5c9abdd80031aee85a262baa40fca2bf2564f99c237c693cce[ALL] 037f66d679029a5df1c7da981e4917f51b6eca59ce86177a356063ac2aa9578c99"}, "vout": 1, "txid": "caf32b3ae0c64cd6842e11d37d3172774ef995ae72cf9737e78ded9908b60af5"}], "txid": "18aee5896fe7fd060fa032fd9e6f62d78dac5b8006f08f3792f06a2200646676", "blocktime": 1537875543, "version": 1, "confirmations": 11464, "time": 1537875543, "locktime": 0, "vsize": 225, "size": 225}