{"hash": "18b14b09140d11e000f79b8e0d998931f0200ec1bd7ccc5790c22b787a43ab74", "blockhash": "0000000000000000000baef3f32e3676a92c3b2e5da21b426e4f302fc371ce76", "vout": [{"scriptPubKey": {"type": "nulldata", "hex": "6a4c500000783400010a53450cfc10e8d6c32ccfec27b7256b4774d339f6019d6ddc0f1b8ff11780309731b4121d73dcd1c4c53523ba425baa1f680614324c36cb570ebc9a9526289ac0f6612cd74e33776ee4", "asm": "OP_RETURN 0000783400010a53450cfc10e8d6c32ccfec27b7256b4774d339f6019d6ddc0f1b8ff11780309731b4121d73dcd1c4c53523ba425baa1f680614324c36cb570ebc9a9526289ac0f6612cd74e33776ee4"}, "value": 0.0, "n": 0}, {"scriptPubKey": {"reqSigs": 1, "hex": "76a9148b13cd97be64b6b47541d54ed878c4196c32840488ac", "addresses": ["1DgNecFKye34XzmvU8BCuXEDfGHCVJXMX9"], "asm": "OP_DUP OP_HASH160 8b13cd97be64b6b47541d54ed878c4196c328404 OP_EQUALVERIFY OP_CHECKSIG", "type": "pubkeyhash"}, "value": 0.00109704, "n": 1}], "hex": "01000000012755bf4faebf20824025c9cec4b5209433af894c54f0c624ded33608da644eb5000000006b483045022100d08202b74d08b5c1847b31d56ae2d4f547e689b1c7b4e35591cef02ab6571f4302204515be119f06859ccef6e562792c8cceb9d7b147c4cb777bd7de987f374773ae012103715bcde83b8102922a4c9889355bbd3c79ce8a2821d08daf36b0acaafeb89baeffffffff020000000000000000536a4c500000783400010a53450cfc10e8d6c32ccfec27b7256b4774d339f6019d6ddc0f1b8ff11780309731b4121d73dcd1c4c53523ba425baa1f680614324c36cb570ebc9a9526289ac0f6612cd74e33776ee488ac0100000000001976a9148b13cd97be64b6b47541d54ed878c4196c32840488ac00000000", "vin": [{"sequence": 4294967295, "scriptSig": {"hex": "483045022100d08202b74d08b5c1847b31d56ae2d4f547e689b1c7b4e35591cef02ab6571f4302204515be119f06859ccef6e562792c8cceb9d7b147c4cb777bd7de987f374773ae012103715bcde83b8102922a4c9889355bbd3c79ce8a2821d08daf36b0acaafeb89bae", "asm": "3045022100d08202b74d08b5c1847b31d56ae2d4f547e689b1c7b4e35591cef02ab6571f4302204515be119f06859ccef6e562792c8cceb9d7b147c4cb777bd7de987f374773ae[ALL] 03715bcde83b8102922a4c9889355bbd3c79ce8a2821d08daf36b0acaafeb89bae"}, "vout": 0, "txid": "b54e64da0836d3de24c6f0544c89af339420b5c4cec925408220bfae4fbf5527"}], "txid": "18b14b09140d11e000f79b8e0d998931f0200ec1bd7ccc5790c22b787a43ab74", "blocktime": 1537876114, "version": 1, "confirmations": 11462, "time": 1537876114, "locktime": 0, "vsize": 284, "size": 284}