{"hash": "18b62ad2a28a3efc26fb1baffd3af16f79c6cd254211b05c9bd226c34a5e0ad3", "blockhash": "0000000000000000001e0dab787dd257d1dbfcb92a98c2207d5e1078be1f4165", "vout": [{"scriptPubKey": {"reqSigs": 1, "hex": "76a914c5b9d520df5b862e82c112eb405bedcc6d4690a088ac", "addresses": ["1K2UjfMjPqpsGhjzNA2tQTqLtoVu2YvLh4"], "asm": "OP_DUP OP_HASH160 c5b9d520df5b862e82c112eb405bedcc6d4690a0 OP_EQUALVERIFY OP_CHECKSIG", "type": "pubkeyhash"}, "value": 0.00016477, "n": 0}, {"scriptPubKey": {"reqSigs": 1, "hex": "a914a3747a687b9800985a2b6b5ad4403d55f3e44b4e87", "addresses": ["3GbHbrcw893rxuJ2eZukEYmbFQErEx43C7"], "asm": "OP_HASH160 a3747a687b9800985a2b6b5ad4403d55f3e44b4e OP_EQUAL", "type": "scripthash"}, "value": 0.0065616, "n": 1}], "hex": "01000000026429d73f3ebb811e3de4a9199439d0bcb6e365f30afbaaa7597d591c03832c34000000006b483045022100e2a33793d1ce9aaf779780073ffca76daeecd4751c91d8c63d2ab59356dd6cd402205c8354eb3a5dbc185d38150d546c12bd10801f685ace99be5c17a1b643907fff0121025dfe35c60b7bc127e93b1fd9cc36ef5a003628426530f1804801983fb443ae13ffffffffda320faad85b892d50c2786bfef0f0ac1753529b831a12be0f19aaa279f571cb010000006b483045022100f917e401287cdc3e731ca93697244f12378359d666368147b4671b48748947a102205033ca28962a8499ef5702dd84394177e151aba3ea9ecc40c4010643c7d44306012102bd0b211d3361c52bea5bb448fd24942c74376d3a057497f4385d89890ad2cd3affffffff025d400000000000001976a914c5b9d520df5b862e82c112eb405bedcc6d4690a088ac20030a000000000017a914a3747a687b9800985a2b6b5ad4403d55f3e44b4e8700000000", "vin": [{"sequence": 4294967295, "scriptSig": {"hex": "483045022100e2a33793d1ce9aaf779780073ffca76daeecd4751c91d8c63d2ab59356dd6cd402205c8354eb3a5dbc185d38150d546c12bd10801f685ace99be5c17a1b643907fff0121025dfe35c60b7bc127e93b1fd9cc36ef5a003628426530f1804801983fb443ae13", "asm": "3045022100e2a33793d1ce9aaf779780073ffca76daeecd4751c91d8c63d2ab59356dd6cd402205c8354eb3a5dbc185d38150d546c12bd10801f685ace99be5c17a1b643907fff[ALL] 025dfe35c60b7bc127e93b1fd9cc36ef5a003628426530f1804801983fb443ae13"}, "vout": 0, "txid": "342c83031c597d59a7aafb0af365e3b6bcd0399419a9e43d1e81bb3e3fd72964"}, {"sequence": 4294967295, "scriptSig": {"hex": "483045022100f917e401287cdc3e731ca93697244f12378359d666368147b4671b48748947a102205033ca28962a8499ef5702dd84394177e151aba3ea9ecc40c4010643c7d44306012102bd0b211d3361c52bea5bb448fd24942c74376d3a057497f4385d89890ad2cd3a", "asm": "3045022100f917e401287cdc3e731ca93697244f12378359d666368147b4671b48748947a102205033ca28962a8499ef5702dd84394177e151aba3ea9ecc40c4010643c7d44306[ALL] 02bd0b211d3361c52bea5bb448fd24942c74376d3a057497f4385d89890ad2cd3a"}, "vout": 1, "txid": "cb71f579a2aa190fbe121a839b525317acf0f0fe6b78c2502d895bd8aa0f32da"}], "txid": "18b62ad2a28a3efc26fb1baffd3af16f79c6cd254211b05c9bd226c34a5e0ad3", "blocktime": 1537872475, "version": 1, "confirmations": 11487, "time": 1537872475, "locktime": 0, "vsize": 372, "size": 372}