{"hash": "da6c13e0b552b15a451b06f5005d11401c33202818946d07fbb21dde173808f1", "blockhash": "000000000000000000022b45ed06c6f4ccd3cf7fb5ba4856ebd2e58215665228", "vout": [{"scriptPubKey": {"reqSigs": 1, "hex": "001476335aa1e55b450c2b4af09ac3f8dda79fecb01b", "addresses": ["bc1qwce44g09tdzsc2627zdv87xa5707evqmnt7jdr"], "asm": "0 76335aa1e55b450c2b4af09ac3f8dda79fecb01b", "type": "witness_v0_keyhash"}, "value": 0.00019786, "n": 0}, {"scriptPubKey": {"reqSigs": 1, "hex": "0020dfa01133ceaf9780f599b3cdf8b4bc39f5abf4b4b9a35a7106bae7c0e213a75b", "addresses": ["bc1qm7spzv7w47tcpavek0xl3d9u8866ha95hx345ugxhtnupcsn5adslpjw2m"], "asm": "0 dfa01133ceaf9780f599b3cdf8b4bc39f5abf4b4b9a35a7106bae7c0e213a75b", "type": "witness_v0_scripthash"}, "value": 0.00531627, "n": 1}], "hex": "0100000000010193e11b5739335a0f8d8a02de7248b2e8c34f4d3eec52b2d310c9725b61afca8c0000000000ffffffff024a4d00000000000016001476335aa1e55b450c2b4af09ac3f8dda79fecb01bab1c080000000000220020dfa01133ceaf9780f599b3cdf8b4bc39f5abf4b4b9a35a7106bae7c0e213a75b02483045022100c167859acb58d50fe2c4240d50f205290ccbe33c2632709e8a16a1e393a98b4802204d64613d0fdc11b96b1035ed5c41fb49086be8f47cb121d2b31aa246a531f1bf01210326f043140e7bce569fe1975b7e49ff6e7cdaf9e17694c5cf0605fc33b3ea677e00000000", "vin": [{"txinwitness": ["3045022100c167859acb58d50fe2c4240d50f205290ccbe33c2632709e8a16a1e393a98b4802204d64613d0fdc11b96b1035ed5c41fb49086be8f47cb121d2b31aa246a531f1bf01", "0326f043140e7bce569fe1975b7e49ff6e7cdaf9e17694c5cf0605fc33b3ea677e"], "sequence": 4294967295, "scriptSig": {"hex": "", "asm": ""}, "vout": 0, "txid": "8ccaaf615b72c910d3b252ec3e4d4fc3e8b24872de028a8d0f5a3339571be193"}], "txid": "18bc3bdb5e06ea0781817b091a15b40425627d348d37c31fbfb55407079c2337", "blocktime": 1537869901, "version": 1, "confirmations": 11523, "time": 1537869901, "locktime": 0, "vsize": 153, "size": 235}