{"hash": "8dce5e05cdf15b60e86f6f797d7fd174130b1416c398ee89be0510c3fc43547f", "blockhash": "0000000000000000000e13cef7c366c0283d82e591d1acd082e914b08063cdf1", "vout": [{"scriptPubKey": {"reqSigs": 1, "hex": "76a914248443e565f1a70cf8357a7f5c706e71c1998bb988ac", "addresses": ["14L5mrZJAR6KvogUoMaij4a5h3EBjHfJZ4"], "asm": "OP_DUP OP_HASH160 248443e565f1a70cf8357a7f5c706e71c1998bb9 OP_EQUALVERIFY OP_CHECKSIG", "type": "pubkeyhash"}, "value": 0.00328067, "n": 0}, {"scriptPubKey": {"reqSigs": 1, "hex": "a9141988a27e3c2df4ddee7fad5a2303d086179b2a3087", "addresses": ["3422VtS7UtCvXYxoXMVp6eZupR252z85oC"], "asm": "OP_HASH160 1988a27e3c2df4ddee7fad5a2303d086179b2a30 OP_EQUAL", "type": "scripthash"}, "value": 2.98460125, "n": 1}], "hex": "01000000000101a15addfe57c432f1e9a4467325e6c929f0fc537776364c6ba22bdd850f9c4889010000002322002065d416c48a8072e0ac51c2d111eb194f009caef0332446c1bf2097316cf07fa9ffffffff0283010500000000001976a914248443e565f1a70cf8357a7f5c706e71c1998bb988acdd23ca110000000017a9141988a27e3c2df4ddee7fad5a2303d086179b2a3087040047304402204409fee435811a39c3da19fa804f4e5e4fceaca5acc7918ba2574361b120512a022073b8c289e0f573a943152859436dd4a4284ff8a1d081b82ed960b552dccab4140147304402202bd5cd5507955dad6ab559e84def4f8e8fcfac1b8a158e2ab5ce3337be5782a3022025aaa53ed428ead93fa4f69aea14be0b7a69d79b36ebfebbc30deb9b3a0929b50169522102f44abcf9e23c9a460da309ccca56c619c04eed3bde2c2cff5e7d78fbcd980b9c2103c9443cf3047bb6c2c82f1b0c44c36109cdc3d0d601d16d1189a1602bf8d1a0a02103bfe867059274412412e088af5572b92168c2ef495cfe6c9b7a753a009eb37c4853ae00000000", "vin": [{"txinwitness": ["", "304402204409fee435811a39c3da19fa804f4e5e4fceaca5acc7918ba2574361b120512a022073b8c289e0f573a943152859436dd4a4284ff8a1d081b82ed960b552dccab41401", "304402202bd5cd5507955dad6ab559e84def4f8e8fcfac1b8a158e2ab5ce3337be5782a3022025aaa53ed428ead93fa4f69aea14be0b7a69d79b36ebfebbc30deb9b3a0929b501", "522102f44abcf9e23c9a460da309ccca56c619c04eed3bde2c2cff5e7d78fbcd980b9c2103c9443cf3047bb6c2c82f1b0c44c36109cdc3d0d601d16d1189a1602bf8d1a0a02103bfe867059274412412e088af5572b92168c2ef495cfe6c9b7a753a009eb37c4853ae"], "sequence": 4294967295, "scriptSig": {"hex": "22002065d416c48a8072e0ac51c2d111eb194f009caef0332446c1bf2097316cf07fa9", "asm": "002065d416c48a8072e0ac51c2d111eb194f009caef0332446c1bf2097316cf07fa9"}, "vout": 1, "txid": "89489c0f85dd2ba26b4c36767753fcf029c9e6257346a4e9f132c457fedd5aa1"}], "txid": "18be0dd99679516be24f6ebde645fdea55cfef53f909408805e346054b60ace2", "blocktime": 1537871767, "version": 1, "confirmations": 11491, "time": 1537871767, "locktime": 0, "vsize": 216, "size": 406}