{"hash": "18c3c797217779f28766ad23b9be30b9a940d0f7f88ec3f83743fe2f058ccbcb", "blockhash": "00000000000000000018f53835495a110e01622372bf6ae95dc86f2b0ab887b0", "vout": [{"scriptPubKey": {"type": "nulldata", "hex": "6a4c50000077880001b8a47c9880c65efa6e67733fbcbefa6b8351586b4e86aeaeacb577c031fc802d33e46e26b0999c6db454cec3cc255baa0bc006141f93731ddc6820599f7cb8fbacf7bab7719c405f2d9a", "asm": "OP_RETURN 000077880001b8a47c9880c65efa6e67733fbcbefa6b8351586b4e86aeaeacb577c031fc802d33e46e26b0999c6db454cec3cc255baa0bc006141f93731ddc6820599f7cb8fbacf7bab7719c405f2d9a"}, "value": 0.0, "n": 0}, {"scriptPubKey": {"reqSigs": 1, "hex": "76a914ae9360e48d1a4b024595332decd6a13fdf4091d688ac", "addresses": ["1Gv58R68ckmN6KgiwfRXfto9j4v54J4Eix"], "asm": "OP_DUP OP_HASH160 ae9360e48d1a4b024595332decd6a13fdf4091d6 OP_EQUALVERIFY OP_CHECKSIG", "type": "pubkeyhash"}, "value": 0.00064003, "n": 1}], "hex": "01000000015c90c5ed7b5b9014533de7441d837cdef02da6d3084463c96b731345ce79dddb000000006a47304402201b9ba3d509a82345a5509309df479c140da288416d96abd69fdab96ec0a4ee2f02204fec20e6ac76f694304f61e96fb3d5a7c66eb6a43d14dc8776c4354fe6fe18df012103d9977fc613d1a922ea450625351ad8af04aa0d11ad3e95b38be2d59dbe3d1afaffffffff020000000000000000536a4c50000077880001b8a47c9880c65efa6e67733fbcbefa6b8351586b4e86aeaeacb577c031fc802d33e46e26b0999c6db454cec3cc255baa0bc006141f93731ddc6820599f7cb8fbacf7bab7719c405f2d9a03fa0000000000001976a914ae9360e48d1a4b024595332decd6a13fdf4091d688ac00000000", "vin": [{"sequence": 4294967295, "scriptSig": {"hex": "47304402201b9ba3d509a82345a5509309df479c140da288416d96abd69fdab96ec0a4ee2f02204fec20e6ac76f694304f61e96fb3d5a7c66eb6a43d14dc8776c4354fe6fe18df012103d9977fc613d1a922ea450625351ad8af04aa0d11ad3e95b38be2d59dbe3d1afa", "asm": "304402201b9ba3d509a82345a5509309df479c140da288416d96abd69fdab96ec0a4ee2f02204fec20e6ac76f694304f61e96fb3d5a7c66eb6a43d14dc8776c4354fe6fe18df[ALL] 03d9977fc613d1a922ea450625351ad8af04aa0d11ad3e95b38be2d59dbe3d1afa"}, "vout": 0, "txid": "dbdd79ce4513736bc9634408d3a62df0de7c831d44e73d5314905b7bedc5905c"}], "txid": "18c3c797217779f28766ad23b9be30b9a940d0f7f88ec3f83743fe2f058ccbcb", "blocktime": 1537870928, "version": 1, "confirmations": 11512, "time": 1537870928, "locktime": 0, "vsize": 283, "size": 283}