{"hash": "4a309fd73224bc305909ed6edcfe1be1da49f69a8e51bbc81bb138fbc83bd7a1", "blockhash": "000000000000000000022b45ed06c6f4ccd3cf7fb5ba4856ebd2e58215665228", "vout": [{"scriptPubKey": {"reqSigs": 1, "hex": "a914320b31accd67b4bdb2e06f20e3ba02cf76c3be1f87", "addresses": ["36Fd7unvDfuzFQVjRzZkhU1iQJ1NiAdohL"], "asm": "OP_HASH160 320b31accd67b4bdb2e06f20e3ba02cf76c3be1f OP_EQUAL", "type": "scripthash"}, "value": 0.0116705, "n": 0}, {"scriptPubKey": {"reqSigs": 1, "hex": "76a914eb3257daa592b3f5165eb06509ca4f9f3829e8ae88ac", "addresses": ["1NSc6zAdG2NGbjPLQwAjAuqjHSoq5KECT7"], "asm": "OP_DUP OP_HASH160 eb3257daa592b3f5165eb06509ca4f9f3829e8ae OP_EQUALVERIFY OP_CHECKSIG", "type": "pubkeyhash"}, "value": 1.99, "n": 1}], "hex": "020000000001024088fc035f54223a8680277347524880cde5365dc20a3e0470c7f5369c3bd8cc0100000017160014f28c3eeda1135046e5fc68205e2273a333b9b872feffffffa7177d5a33a20d591ae3e71d6b18376dac245c82e061f186616a8b2b544dc658010000006b483045022100b292bbbac7c36fd5ee4023dcfa9dd1ea141d52fafea4d976c9c03b1e1cd17e8d02205e164182b54ce56781b5bca7a758a746e47322d9ef5d14d473780959e725d93b0121030ccb5a35c5245927d49f69570cb664d5e5fea11f255ef4ca15eb10a585fbeebffeffffff02cace11000000000017a914320b31accd67b4bdb2e06f20e3ba02cf76c3be1f87c07fdc0b000000001976a914eb3257daa592b3f5165eb06509ca4f9f3829e8ae88ac02483045022100eb2e2e1fad1aab8a1d3923fce989e25d68358d303cb559882f6c85ca65e9122f0220009ba58bfd4acf2a7c028cfd0bd9f6a2782eba626fa423e92e498c1a470d300b012102410a7cc00e25989a3359afbbcff038d74b31439bb471c9fb06740b92cd84ff69000b490800", "vin": [{"txinwitness": ["3045022100eb2e2e1fad1aab8a1d3923fce989e25d68358d303cb559882f6c85ca65e9122f0220009ba58bfd4acf2a7c028cfd0bd9f6a2782eba626fa423e92e498c1a470d300b01", "02410a7cc00e25989a3359afbbcff038d74b31439bb471c9fb06740b92cd84ff69"], "sequence": 4294967294, "scriptSig": {"hex": "160014f28c3eeda1135046e5fc68205e2273a333b9b872", "asm": "0014f28c3eeda1135046e5fc68205e2273a333b9b872"}, "vout": 1, "txid": "ccd83b9c36f5c770043e0ac25d36e5cd80485247732780863a22545f03fc8840"}, {"sequence": 4294967294, "scriptSig": {"hex": "483045022100b292bbbac7c36fd5ee4023dcfa9dd1ea141d52fafea4d976c9c03b1e1cd17e8d02205e164182b54ce56781b5bca7a758a746e47322d9ef5d14d473780959e725d93b0121030ccb5a35c5245927d49f69570cb664d5e5fea11f255ef4ca15eb10a585fbeebf", "asm": "3045022100b292bbbac7c36fd5ee4023dcfa9dd1ea141d52fafea4d976c9c03b1e1cd17e8d02205e164182b54ce56781b5bca7a758a746e47322d9ef5d14d473780959e725d93b[ALL] 030ccb5a35c5245927d49f69570cb664d5e5fea11f255ef4ca15eb10a585fbeebf"}, "vout": 1, "txid": "58c64d542b8b6a6186f161e0825c24ac6d37186b1de7e31a590da2335a7d17a7"}], "txid": "18c708c344ff3170f594b35a071b5283301e4d8adb6e7ba16d6ec0a3e03a3e93", "blocktime": 1537869901, "version": 2, "confirmations": 11522, "time": 1537869901, "locktime": 542987, "vsize": 316, "size": 399}