{"hash": "18c7058a87eae547afc5daa85d9f03caa4b968f77b64517b6b9c79f87339d16d", "blockhash": "0000000000000000001f76057863aec43deb6fa401d9628bb513d65a8098bfab", "vout": [{"scriptPubKey": {"reqSigs": 1, "hex": "a9149cdb726dfe04346025e6c1b7d0d244e8502ed5be87", "addresses": ["3FzQDuwN9Kcu2adCH2jHogtAVqgtzCXg6f"], "asm": "OP_HASH160 9cdb726dfe04346025e6c1b7d0d244e8502ed5be OP_EQUAL", "type": "scripthash"}, "value": 0.01760476, "n": 0}, {"scriptPubKey": {"reqSigs": 1, "hex": "76a91483b09c58c2e95efece81b5ce67790578771de13488ac", "addresses": ["1D1K6FzE4vWgTipYXDD8tFVZAWb8jQQTEk"], "asm": "OP_DUP OP_HASH160 83b09c58c2e95efece81b5ce67790578771de134 OP_EQUALVERIFY OP_CHECKSIG", "type": "pubkeyhash"}, "value": 0.00998782, "n": 1}], "hex": "0200000003e491602cdb29ef921e93e3e2d1c0a0c06b55fcf98ca493bb3ff91d9c2112646f000000006b483045022100b273201ef16c4329d5c9bf4d7c3faad4aece18b569e87b436e2f00bea1f25a5c0220606f8617eb8049e9bdbadad4f4bb96bc258eef7b07e495b0e45c1d534e816e1c012103adbe56aefa79765906a7c889df8a4bb7a677a4301d6dd4437d5274ee7120b340feffffff95c63f5b6a70a61db8c325924785f7285c1aab107904f81ae344899401788de0010000006a47304402205bae04d5043c47904d2db8c1cd12bfe71c5ae3d0a13e3e69145a15b1160adf0702207a275e318d5b6c96b01709f3ea9f6f3825586d912e5badcb597d47131a826cb901210282290138ed0c47cb59bf40e8e0628ef82c32bf231fb1526284b603673a13bdbbfeffffff8c0655b90dd222de7346ea97ab856a9771370e7fce9975da48cff9e832974228000000006a473044022006163f54365a8091bf714ced08cda9b39536f243bc39a37de57e4258264e6769022025aa9fdf7c5cc89531f30f1671b1a92d3e0549659d5c2a7ab0662c657be1d06b012102863a7b7f502262a6ecfbfa186648ff21fcd95fa0b611631397d0e78afa90464afeffffff02dcdc1a000000000017a9149cdb726dfe04346025e6c1b7d0d244e8502ed5be877e3d0f00000000001976a91483b09c58c2e95efece81b5ce67790578771de13488ac13490800", "vin": [{"sequence": 4294967294, "scriptSig": {"hex": "483045022100b273201ef16c4329d5c9bf4d7c3faad4aece18b569e87b436e2f00bea1f25a5c0220606f8617eb8049e9bdbadad4f4bb96bc258eef7b07e495b0e45c1d534e816e1c012103adbe56aefa79765906a7c889df8a4bb7a677a4301d6dd4437d5274ee7120b340", "asm": "3045022100b273201ef16c4329d5c9bf4d7c3faad4aece18b569e87b436e2f00bea1f25a5c0220606f8617eb8049e9bdbadad4f4bb96bc258eef7b07e495b0e45c1d534e816e1c[ALL] 03adbe56aefa79765906a7c889df8a4bb7a677a4301d6dd4437d5274ee7120b340"}, "vout": 0, "txid": "6f6412219c1df93fbb93a48cf9fc556bc0a0c0d1e2e3931e92ef29db2c6091e4"}, {"sequence": 4294967294, "scriptSig": {"hex": "47304402205bae04d5043c47904d2db8c1cd12bfe71c5ae3d0a13e3e69145a15b1160adf0702207a275e318d5b6c96b01709f3ea9f6f3825586d912e5badcb597d47131a826cb901210282290138ed0c47cb59bf40e8e0628ef82c32bf231fb1526284b603673a13bdbb", "asm": "304402205bae04d5043c47904d2db8c1cd12bfe71c5ae3d0a13e3e69145a15b1160adf0702207a275e318d5b6c96b01709f3ea9f6f3825586d912e5badcb597d47131a826cb9[ALL] 0282290138ed0c47cb59bf40e8e0628ef82c32bf231fb1526284b603673a13bdbb"}, "vout": 1, "txid": "e08d7801948944e31af8047910ab1a5c28f785479225c3b81da6706a5b3fc695"}, {"sequence": 4294967294, "scriptSig": {"hex": "473044022006163f54365a8091bf714ced08cda9b39536f243bc39a37de57e4258264e6769022025aa9fdf7c5cc89531f30f1671b1a92d3e0549659d5c2a7ab0662c657be1d06b012102863a7b7f502262a6ecfbfa186648ff21fcd95fa0b611631397d0e78afa90464a", "asm": "3044022006163f54365a8091bf714ced08cda9b39536f243bc39a37de57e4258264e6769022025aa9fdf7c5cc89531f30f1671b1a92d3e0549659d5c2a7ab0662c657be1d06b[ALL] 02863a7b7f502262a6ecfbfa186648ff21fcd95fa0b611631397d0e78afa90464a"}, "vout": 0, "txid": "28429732e8f9cf48da7599ce7f0e3771976a85ab97ea4673de22d20db955068c"}], "txid": "18c7058a87eae547afc5daa85d9f03caa4b968f77b64517b6b9c79f87339d16d", "blocktime": 1537873891, "version": 2, "confirmations": 11478, "time": 1537873891, "locktime": 542995, "vsize": 518, "size": 518}