{"hash": "b64e3f2ad5e9212f3aba44a0ea0ce8449d22398cabf7251188955beb2c545950", "blockhash": "0000000000000000001cda96e906b7601b7a6fb1a3b62bca570a9e5d8f4b3de1", "vout": [{"scriptPubKey": {"reqSigs": 1, "hex": "a91460ee294c4e8ee5b491bb697b9754a9d8d02a077687", "addresses": ["3AXY6hSmM1C4ccZHbmtwzi6YvQKcQxXgLM"], "asm": "OP_HASH160 60ee294c4e8ee5b491bb697b9754a9d8d02a0776 OP_EQUAL", "type": "scripthash"}, "value": 0.97541933, "n": 0}, {"scriptPubKey": {"reqSigs": 1, "hex": "76a91485acc8c540a69fefdc72bed35557ddb90fd3c7ff88ac", "addresses": ["1DBormuhPoWvmCMcybEjwJrM3S8Dd8tSdH"], "asm": "OP_DUP OP_HASH160 85acc8c540a69fefdc72bed35557ddb90fd3c7ff OP_EQUALVERIFY OP_CHECKSIG", "type": "pubkeyhash"}, "value": 0.01493723, "n": 1}], "hex": "020000000001011a5dd662adc961547482151ef539e3767fb68ab43ee29858beee48be9b16d4d7010000001716001423dccdf93d84453ced8e241d9d4ccc671313a244fdffffff022d5fd0050000000017a91460ee294c4e8ee5b491bb697b9754a9d8d02a077687dbca1600000000001976a91485acc8c540a69fefdc72bed35557ddb90fd3c7ff88ac024730440220153c7d8274a3476a1ea66537c820bffbb2e54671b925d59d79bfd9b41b2c61e302201328cca5fc44b0cb7d657a5b9fa3b3041f54009603848c6ad2dd6a4a98e3a06e012103d41b61c60d8af7ca56e8b50ab2b8ce6237ea981801c6d5eb4319ee5c41fbc98513490800", "vin": [{"txinwitness": ["30440220153c7d8274a3476a1ea66537c820bffbb2e54671b925d59d79bfd9b41b2c61e302201328cca5fc44b0cb7d657a5b9fa3b3041f54009603848c6ad2dd6a4a98e3a06e01", "03d41b61c60d8af7ca56e8b50ab2b8ce6237ea981801c6d5eb4319ee5c41fbc985"], "sequence": 4294967293, "scriptSig": {"hex": "16001423dccdf93d84453ced8e241d9d4ccc671313a244", "asm": "001423dccdf93d84453ced8e241d9d4ccc671313a244"}, "vout": 1, "txid": "d7d4169bbe48eebe5898e23eb48ab67f76e339f51e1582745461c9ad62d65d1a"}], "txid": "18d0f0ca14824b27ecbf1c6cc1e2d5dbf2895b28c013f90a0ec59ffe6dcf3084", "blocktime": 1537873282, "version": 2, "confirmations": 11484, "time": 1537873282, "locktime": 542995, "vsize": 168, "size": 249}