{"hash": "18d407322ab39d36a257e9838618873a3ace71d05ae96b6fccf070126eb2cf75", "blockhash": "00000000000000000024a2167bbff67b0be802c0b01cdd79e6331c2be6459f87", "vout": [{"scriptPubKey": {"reqSigs": 1, "hex": "76a914173614e7cd86c059944ffac59f0a533f807a9c9688ac", "addresses": ["137jL5AiXYUGZkmbJWfNnXkUtjVCM3DxvW"], "asm": "OP_DUP OP_HASH160 173614e7cd86c059944ffac59f0a533f807a9c96 OP_EQUALVERIFY OP_CHECKSIG", "type": "pubkeyhash"}, "value": 0.05069373, "n": 0}, {"scriptPubKey": {"reqSigs": 1, "hex": "a9144ebcd27cc9ca471fe4f6317a1bd0eb0456df582787", "addresses": ["38sLq6zaT2BTpSpSXdZQZXcVcDW7ZWRnsF"], "asm": "OP_HASH160 4ebcd27cc9ca471fe4f6317a1bd0eb0456df5827 OP_EQUAL", "type": "scripthash"}, "value": 0.139, "n": 1}], "hex": "010000000114aba0b313b22e3eeaa3e69ce0b4307dc6e185ef252117a6721aab2a15095d35010000006b483045022100b20a265a9b719f0d0053fd1bc9ca13aa7427e0c53c6a7d2c9ea2fc33632080fd0220371feec1c29af8d7c849fb9d7d08858f52a2a23ae92562f40b3a78dd9b5d04bd012103fc015cc3a424af10250a3dd8076c6383f11c91ec02341d03ed8cfa2dded54717fdffffff023d5a4d00000000001976a914173614e7cd86c059944ffac59f0a533f807a9c9688ace018d4000000000017a9144ebcd27cc9ca471fe4f6317a1bd0eb0456df5827870c490800", "vin": [{"sequence": 4294967293, "scriptSig": {"hex": "483045022100b20a265a9b719f0d0053fd1bc9ca13aa7427e0c53c6a7d2c9ea2fc33632080fd0220371feec1c29af8d7c849fb9d7d08858f52a2a23ae92562f40b3a78dd9b5d04bd012103fc015cc3a424af10250a3dd8076c6383f11c91ec02341d03ed8cfa2dded54717", "asm": "3045022100b20a265a9b719f0d0053fd1bc9ca13aa7427e0c53c6a7d2c9ea2fc33632080fd0220371feec1c29af8d7c849fb9d7d08858f52a2a23ae92562f40b3a78dd9b5d04bd[ALL] 03fc015cc3a424af10250a3dd8076c6383f11c91ec02341d03ed8cfa2dded54717"}, "vout": 1, "txid": "355d09152aab1a72a6172125ef85e1c67d30b4e09ce6a3ea3e2eb213b3a0ab14"}], "txid": "18d407322ab39d36a257e9838618873a3ace71d05ae96b6fccf070126eb2cf75", "blocktime": 1537870564, "version": 1, "confirmations": 11515, "time": 1537870564, "locktime": 542988, "vsize": 224, "size": 224}