{"hash": "18d72b432757bf357c3a67bdff7e3964eacb52ef1b7d34d97b901e9b0d0f4609", "blockhash": "00000000000000000004ffacab907a6b429b9a5745fa0b75af4234bf69dd7176", "vout": [{"scriptPubKey": {"reqSigs": 1, "hex": "a914d6081a276a8e763fb9c0da908359b860a03be66887", "addresses": ["3MCiEYVCrFCQ5UQA4PXKA9WJecwKCRk7NG"], "asm": "OP_HASH160 d6081a276a8e763fb9c0da908359b860a03be668 OP_EQUAL", "type": "scripthash"}, "value": 0.01834023, "n": 0}, {"scriptPubKey": {"reqSigs": 1, "hex": "76a914a865634e85ca054ff311f60a175c58ada37aaebf88ac", "addresses": ["1GMPynScii45fyegx8Jxw2v2Wrm98GPMor"], "asm": "OP_DUP OP_HASH160 a865634e85ca054ff311f60a175c58ada37aaebf OP_EQUALVERIFY OP_CHECKSIG", "type": "pubkeyhash"}, "value": 0.23011431, "n": 1}], "hex": "01000000012dc5b7c1813a0ec32402a774a8f19187ad2651ea3f002fad0d22dc671760a07a01000000fdfd0000483045022100f8ad6d2e97858cd4f4f231d08307e052dd0807fe8eefc83d0fcbb3bfe10be57d022062afdb4c5f7b56ead91dae13d900a99ce9966a351d8b36f907e4c52a79901e3401473044022032fe19f4f2a8a79ada7d098bfa40e713bc36dcd3ee5267fd7337a17b8b5d712a02200d0e546ccb0e95cb5087003b35fd769a1c8785f001b578c75e525c374a3142fd014c69522102880ca49b25ab1f290ba1de66cdfcffd1209a05330aaa1385ab1a79df8af95cb82102bae40495b1e7ff6dae43d37ebfcf3920cada03c8cecbdec819774cd304103bf72102d24beb2bef8686398d34fb9c140a0c652fd1c9394c7eb1d7c7ff20f0ff8749f453aeffffffff0227fc1b000000000017a914d6081a276a8e763fb9c0da908359b860a03be6688767205f01000000001976a914a865634e85ca054ff311f60a175c58ada37aaebf88ac00000000", "vin": [{"sequence": 4294967295, "scriptSig": {"hex": "00483045022100f8ad6d2e97858cd4f4f231d08307e052dd0807fe8eefc83d0fcbb3bfe10be57d022062afdb4c5f7b56ead91dae13d900a99ce9966a351d8b36f907e4c52a79901e3401473044022032fe19f4f2a8a79ada7d098bfa40e713bc36dcd3ee5267fd7337a17b8b5d712a02200d0e546ccb0e95cb5087003b35fd769a1c8785f001b578c75e525c374a3142fd014c69522102880ca49b25ab1f290ba1de66cdfcffd1209a05330aaa1385ab1a79df8af95cb82102bae40495b1e7ff6dae43d37ebfcf3920cada03c8cecbdec819774cd304103bf72102d24beb2bef8686398d34fb9c140a0c652fd1c9394c7eb1d7c7ff20f0ff8749f453ae", "asm": "0 3045022100f8ad6d2e97858cd4f4f231d08307e052dd0807fe8eefc83d0fcbb3bfe10be57d022062afdb4c5f7b56ead91dae13d900a99ce9966a351d8b36f907e4c52a79901e34[ALL] 3044022032fe19f4f2a8a79ada7d098bfa40e713bc36dcd3ee5267fd7337a17b8b5d712a02200d0e546ccb0e95cb5087003b35fd769a1c8785f001b578c75e525c374a3142fd[ALL] 522102880ca49b25ab1f290ba1de66cdfcffd1209a05330aaa1385ab1a79df8af95cb82102bae40495b1e7ff6dae43d37ebfcf3920cada03c8cecbdec819774cd304103bf72102d24beb2bef8686398d34fb9c140a0c652fd1c9394c7eb1d7c7ff20f0ff8749f453ae"}, "vout": 1, "txid": "7aa0601767dc220dad2f003fea5126ad8791f1a874a70224c30e3a81c1b7c52d"}], "txid": "18d72b432757bf357c3a67bdff7e3964eacb52ef1b7d34d97b901e9b0d0f4609", "blocktime": 1537875543, "version": 1, "confirmations": 11464, "time": 1537875543, "locktime": 0, "vsize": 372, "size": 372}