{"hash": "18d7936f1bc088c62356a4b3adb37be9e9b901c30e08c6383739368e08ad6d46", "blockhash": "00000000000000000017f5eb5941039fbcee6240d03bc1f2f8e35350df66a1d8", "vout": [{"scriptPubKey": {"reqSigs": 1, "hex": "76a914c054dc282b11c4c11c1ad7c2492cead2fd454dc588ac", "addresses": ["1JXxQ1PmXhtcPE4ZZDhhrNs7uvj25EhMo6"], "asm": "OP_DUP OP_HASH160 c054dc282b11c4c11c1ad7c2492cead2fd454dc5 OP_EQUALVERIFY OP_CHECKSIG", "type": "pubkeyhash"}, "value": 0.12788516, "n": 0}, {"scriptPubKey": {"reqSigs": 1, "hex": "76a914492f305f58b7469202526bff3200a9f2a446fb4988ac", "addresses": ["17fxrkUwdiTMBRkMkM5Wq47Eeqru9JBW53"], "asm": "OP_DUP OP_HASH160 492f305f58b7469202526bff3200a9f2a446fb49 OP_EQUALVERIFY OP_CHECKSIG", "type": "pubkeyhash"}, "value": 45.0, "n": 1}], "hex": "0100000002c74a8e50efcf13532a310cd9348ccf3118e5c3426b569c2fec67b79fb3f2db6c010000006b48304502210094917e2e2e118049a17bf8569f7a185df0cb1a861ad593508f5e0428d2914fa502207c6c47f89f7e56af1e9b346912ed91b7e06f7ab1b5dc8d6f3bf78a455155b0df0121033cb32305253cb618277925154acc6b6b3a5217d5503b198d07ac2cac0ed91d47ffffffffae27f6ae53693ffc5437116627f7d4488b419c392ff8e237fc81bb9171440d91000000006b483045022100f30e6275d6b9e369bc7adfacfd685c044971ef37648974a4513ce16184a89a9c022078040003b7c8dbf28f2141c17bfeb993ad0c30894cfc9467a6d40d52163507b00121028ab3b139eaa3342fce050ddd929d5df16ec307be70c31d20464f92ff2274489effffffff022423c300000000001976a914c054dc282b11c4c11c1ad7c2492cead2fd454dc588ac008d380c010000001976a914492f305f58b7469202526bff3200a9f2a446fb4988ac00000000", "vin": [{"sequence": 4294967295, "scriptSig": {"hex": "48304502210094917e2e2e118049a17bf8569f7a185df0cb1a861ad593508f5e0428d2914fa502207c6c47f89f7e56af1e9b346912ed91b7e06f7ab1b5dc8d6f3bf78a455155b0df0121033cb32305253cb618277925154acc6b6b3a5217d5503b198d07ac2cac0ed91d47", "asm": "304502210094917e2e2e118049a17bf8569f7a185df0cb1a861ad593508f5e0428d2914fa502207c6c47f89f7e56af1e9b346912ed91b7e06f7ab1b5dc8d6f3bf78a455155b0df[ALL] 033cb32305253cb618277925154acc6b6b3a5217d5503b198d07ac2cac0ed91d47"}, "vout": 1, "txid": "6cdbf2b39fb767ec2f9c566b42c3e51831cf8c34d90c312a5313cfef508e4ac7"}, {"sequence": 4294967295, "scriptSig": {"hex": "483045022100f30e6275d6b9e369bc7adfacfd685c044971ef37648974a4513ce16184a89a9c022078040003b7c8dbf28f2141c17bfeb993ad0c30894cfc9467a6d40d52163507b00121028ab3b139eaa3342fce050ddd929d5df16ec307be70c31d20464f92ff2274489e", "asm": "3045022100f30e6275d6b9e369bc7adfacfd685c044971ef37648974a4513ce16184a89a9c022078040003b7c8dbf28f2141c17bfeb993ad0c30894cfc9467a6d40d52163507b0[ALL] 028ab3b139eaa3342fce050ddd929d5df16ec307be70c31d20464f92ff2274489e"}, "vout": 0, "txid": "910d447191bb81fc37e2f82f399c418b48d4f72766113754fc3f6953aef627ae"}], "txid": "18d7936f1bc088c62356a4b3adb37be9e9b901c30e08c6383739368e08ad6d46", "blocktime": 1537874412, "version": 1, "confirmations": 11467, "time": 1537874412, "locktime": 0, "vsize": 374, "size": 374}