{"hash": "e86209fc4661abbd4bded5e0265c68b2314bb5856ea5b7d6b4be3a60bdbe1f05", "blockhash": "0000000000000000001cda96e906b7601b7a6fb1a3b62bca570a9e5d8f4b3de1", "vout": [{"scriptPubKey": {"reqSigs": 1, "hex": "76a914f5cd54d4e972490166d3abae4398fec8f751f9b788ac", "addresses": ["1PQgXg118qihW5hrpFWuK3pdaAqrWyXh8Z"], "asm": "OP_DUP OP_HASH160 f5cd54d4e972490166d3abae4398fec8f751f9b7 OP_EQUALVERIFY OP_CHECKSIG", "type": "pubkeyhash"}, "value": 0.0008, "n": 0}, {"scriptPubKey": {"reqSigs": 1, "hex": "0014af19fcbb21b881efc95c640bc4280a194122f191", "addresses": ["bc1q4uvlewephzq7lj2uvs9ug2q2r9qj9uv3mf4teh"], "asm": "0 af19fcbb21b881efc95c640bc4280a194122f191", "type": "witness_v0_keyhash"}, "value": 1.152e-05, "n": 1}], "hex": "010000000001018958e1f95db26ec60e0d0f62dd0f3582b65b09a5630ac728ba64fbe8bf6155600000000000ffffffff0280380100000000001976a914f5cd54d4e972490166d3abae4398fec8f751f9b788ac8004000000000000160014af19fcbb21b881efc95c640bc4280a194122f19102483045022100b94125b262370f39fdb80356b3dc7907eeb5aa7024b11ccc859fe38ddf360b610220302aa8e9228de08b146813189d69b661abc86ae0664bfb6c016ae547f529cf4c012102855cf400cc548f80fc2369254f945f0e463e5d7eb456a5d57655ecdfa69237ed00000000", "vin": [{"txinwitness": ["3045022100b94125b262370f39fdb80356b3dc7907eeb5aa7024b11ccc859fe38ddf360b610220302aa8e9228de08b146813189d69b661abc86ae0664bfb6c016ae547f529cf4c01", "02855cf400cc548f80fc2369254f945f0e463e5d7eb456a5d57655ecdfa69237ed"], "sequence": 4294967295, "scriptSig": {"hex": "", "asm": ""}, "vout": 0, "txid": "605561bfe8fb64ba28c70a63a5095bb682350fdd620f0d0ec66eb25df9e15889"}], "txid": "18d9ae960d91ac9fe20a66610f2ce602e857d397355e0193e9a32ed8a52f8f0e", "blocktime": 1537873282, "version": 1, "confirmations": 11484, "time": 1537873282, "locktime": 0, "vsize": 144, "size": 226}