{"hash": "18ddfe7ade43b1655abc249b2d91af1eb4039a26372dfa68ed94222ee5f0c5ca", "blockhash": "00000000000000000004ffacab907a6b429b9a5745fa0b75af4234bf69dd7176", "vout": [{"scriptPubKey": {"reqSigs": 1, "hex": "76a9147dce859dd8ccde905d85e20ce41b9ac20f06e88d88ac", "addresses": ["1CUCsNjdcAsNqXD44fQY8HuFtqnSsHrNRz"], "asm": "OP_DUP OP_HASH160 7dce859dd8ccde905d85e20ce41b9ac20f06e88d OP_EQUALVERIFY OP_CHECKSIG", "type": "pubkeyhash"}, "value": 0.00168166, "n": 0}, {"scriptPubKey": {"reqSigs": 1, "hex": "a914a10a7ffa2b290f2ce940aca5257bea77737ed4c087", "addresses": ["3GNXHyWMLYpE4AHg5ApmGM7V5yRUVGS8md"], "asm": "OP_HASH160 a10a7ffa2b290f2ce940aca5257bea77737ed4c0 OP_EQUAL", "type": "scripthash"}, "value": 0.00921417, "n": 1}], "hex": "0100000001bc3164a680ebe02250fda4323750a239bc8b9f3f3f61daf8c3c30914bc76032b010000006b483045022100e15bbdbf30079e2164389c0c6f1736805f13e1bf62996cf0fe0bcdea58ff2bc302206fccdcff9894bddeed0d75cb787990554ae7d2df839b3bb3a04c55f0a57305890121028c50cc3eb55219aebdfec61eda7ad844308a1a3e290a7ac6ac735488f0ac6c3dffffffff02e6900200000000001976a9147dce859dd8ccde905d85e20ce41b9ac20f06e88d88ac490f0e000000000017a914a10a7ffa2b290f2ce940aca5257bea77737ed4c08700000000", "vin": [{"sequence": 4294967295, "scriptSig": {"hex": "483045022100e15bbdbf30079e2164389c0c6f1736805f13e1bf62996cf0fe0bcdea58ff2bc302206fccdcff9894bddeed0d75cb787990554ae7d2df839b3bb3a04c55f0a57305890121028c50cc3eb55219aebdfec61eda7ad844308a1a3e290a7ac6ac735488f0ac6c3d", "asm": "3045022100e15bbdbf30079e2164389c0c6f1736805f13e1bf62996cf0fe0bcdea58ff2bc302206fccdcff9894bddeed0d75cb787990554ae7d2df839b3bb3a04c55f0a5730589[ALL] 028c50cc3eb55219aebdfec61eda7ad844308a1a3e290a7ac6ac735488f0ac6c3d"}, "vout": 1, "txid": "2b0376bc1409c3c3f8da613f3f9f8bbc39a2503732a4fd5022e0eb80a66431bc"}], "txid": "18ddfe7ade43b1655abc249b2d91af1eb4039a26372dfa68ed94222ee5f0c5ca", "blocktime": 1537875543, "version": 1, "confirmations": 11464, "time": 1537875543, "locktime": 0, "vsize": 224, "size": 224}