{"hash": "18e4ce5f690f992a8c1b43da9483fb17f675303641be3b43b03f3b833efe2a0b", "blockhash": "0000000000000000000e13cef7c366c0283d82e591d1acd082e914b08063cdf1", "vout": [{"scriptPubKey": {"reqSigs": 1, "hex": "76a91497379fe01856bcdc49248154fba32005d5478b5088ac", "addresses": ["1EnZfpsPbhM3gsSmQTSDRcbh8PogRsAC76"], "asm": "OP_DUP OP_HASH160 97379fe01856bcdc49248154fba32005d5478b50 OP_EQUALVERIFY OP_CHECKSIG", "type": "pubkeyhash"}, "value": 0.05236962, "n": 0}], "hex": "0100000001cd63d11d7860cbdfc8d46cd30e1518ec36f8c3c46a7f60e55d809c908349c49f040000006a473044022006bdc7eca65756ade944819996dcfc245cbdf7e3f8dc427af751530218f54e790220388f542e94c8b1d8936f4c0519d1f7b60ae376f7eefc942da9afa33f588287ed01210326a717ab81d774af124f7f54b7038cb5e39b20f4e26fb285b80b8969fac7893affffffff01e2e84f00000000001976a91497379fe01856bcdc49248154fba32005d5478b5088ac00000000", "vin": [{"sequence": 4294967295, "scriptSig": {"hex": "473044022006bdc7eca65756ade944819996dcfc245cbdf7e3f8dc427af751530218f54e790220388f542e94c8b1d8936f4c0519d1f7b60ae376f7eefc942da9afa33f588287ed01210326a717ab81d774af124f7f54b7038cb5e39b20f4e26fb285b80b8969fac7893a", "asm": "3044022006bdc7eca65756ade944819996dcfc245cbdf7e3f8dc427af751530218f54e790220388f542e94c8b1d8936f4c0519d1f7b60ae376f7eefc942da9afa33f588287ed[ALL] 0326a717ab81d774af124f7f54b7038cb5e39b20f4e26fb285b80b8969fac7893a"}, "vout": 4, "txid": "9fc44983909c805de5607f6ac4c3f836ec18150ed36cd4c8dfcb60781dd163cd"}], "txid": "18e4ce5f690f992a8c1b43da9483fb17f675303641be3b43b03f3b833efe2a0b", "blocktime": 1537871767, "version": 1, "confirmations": 11493, "time": 1537871767, "locktime": 0, "vsize": 191, "size": 191}