{"hash": "227535350ee7e91bd8b8a29545cf7f64f1fc8fa29da801fa0f2779a2ef3aab49", "blockhash": "00000000000000000004ffacab907a6b429b9a5745fa0b75af4234bf69dd7176", "vout": [{"scriptPubKey": {"reqSigs": 1, "hex": "a914f05cfcd4f3ca293828c89d7ff370cc2a3449cefd87", "addresses": ["3PbwVUb5bmyqZwQ5pU9et51qv8DxHEXm98"], "asm": "OP_HASH160 f05cfcd4f3ca293828c89d7ff370cc2a3449cefd OP_EQUAL", "type": "scripthash"}, "value": 0.01578702, "n": 0}, {"scriptPubKey": {"reqSigs": 1, "hex": "76a91449cc520c1a1cc94fff732aae73ff68d7c8f40ae288ac", "addresses": ["17jD6SZKsgNW3okWwzYpsvo2H12GzGFT2t"], "asm": "OP_DUP OP_HASH160 49cc520c1a1cc94fff732aae73ff68d7c8f40ae2 OP_EQUALVERIFY OP_CHECKSIG", "type": "pubkeyhash"}, "value": 0.0023353, "n": 1}, {"scriptPubKey": {"reqSigs": 1, "hex": "a9145ef9a6d492392b4c187afdc035c0b3454ea637d187", "addresses": ["3AMCWgKSZHdjkgfec2ByHHSkcWUsW1HHgz"], "asm": "OP_HASH160 5ef9a6d492392b4c187afdc035c0b3454ea637d1 OP_EQUAL", "type": "scripthash"}, "value": 0.04299388, "n": 2}, {"scriptPubKey": {"reqSigs": 1, "hex": "a914bddce1db77593a7ac8d67f0d488c4311d5103ffa87", "addresses": ["3JzvEy64J63pDv7KjyKsVzupMgKcwdgQU4"], "asm": "OP_HASH160 bddce1db77593a7ac8d67f0d488c4311d5103ffa OP_EQUAL", "type": "scripthash"}, "value": 1.28100768, "n": 3}], "hex": "020000000001015aee938e3633f24c2f1136a82a2b917568546be02a2a6e53423964d4e4667f210200000017160014394c1d55120fea8442873d75d93263e22518f914ffffffff04ce1618000000000017a914f05cfcd4f3ca293828c89d7ff370cc2a3449cefd873a900300000000001976a91449cc520c1a1cc94fff732aae73ff68d7c8f40ae288ac7c9a41000000000017a9145ef9a6d492392b4c187afdc035c0b3454ea637d187a0a9a2070000000017a914bddce1db77593a7ac8d67f0d488c4311d5103ffa87024730440220136f396f323a23265882715a8ab707c13f782699e301bc2dc19e8db77128890702202c446a2b4dabb6578d1fd8f4fa8ea505d1fda30cd87408a4b1c6a01493531d70012103e196163b6d30d0fef27eff5bae2754a7ccba75d466b78c87116b6535bacce31b00000000", "vin": [{"txinwitness": ["30440220136f396f323a23265882715a8ab707c13f782699e301bc2dc19e8db77128890702202c446a2b4dabb6578d1fd8f4fa8ea505d1fda30cd87408a4b1c6a01493531d7001", "03e196163b6d30d0fef27eff5bae2754a7ccba75d466b78c87116b6535bacce31b"], "sequence": 4294967295, "scriptSig": {"hex": "160014394c1d55120fea8442873d75d93263e22518f914", "asm": "0014394c1d55120fea8442873d75d93263e22518f914"}, "vout": 2, "txid": "217f66e4d4643942536e2a2ae06b546875912b2aa836112f4cf233368e93ee5a"}], "txid": "18e48041ec2c5f01cc28baa23db646dc472ca8c215a0f07f7fd1ca4ad894836f", "blocktime": 1537875543, "version": 2, "confirmations": 11464, "time": 1537875543, "locktime": 0, "vsize": 232, "size": 313}