{"hash": "18eb167661dbfaaace65e5e9c546dfaa2f3e0f3247625db9a0b18d79306be140", "blockhash": "000000000000000000022b45ed06c6f4ccd3cf7fb5ba4856ebd2e58215665228", "vout": [{"scriptPubKey": {"type": "nulldata", "hex": "6a146f6d6e69000000000000001f000000346e8c7c40", "asm": "OP_RETURN 6f6d6e69000000000000001f000000346e8c7c40"}, "value": 0.0, "n": 0}, {"scriptPubKey": {"reqSigs": 1, "hex": "76a914a25dec4d0011064ef106a983c39c7a540699f22088ac", "addresses": ["1FoWyxwPXuj4C6abqwhjDWdz6D4PZgYRjA"], "asm": "OP_DUP OP_HASH160 a25dec4d0011064ef106a983c39c7a540699f220 OP_EQUALVERIFY OP_CHECKSIG", "type": "pubkeyhash"}, "value": 5.46e-06, "n": 1}, {"scriptPubKey": {"reqSigs": 1, "hex": "76a9147892c9f0c423483611eb383b596d497df451778588ac", "addresses": ["1BzXw61Xdb6829Z15Zj2KCDFzf8yUS9su6"], "asm": "OP_DUP OP_HASH160 7892c9f0c423483611eb383b596d497df4517785 OP_EQUALVERIFY OP_CHECKSIG", "type": "pubkeyhash"}, "value": 0.00457694, "n": 2}], "hex": "010000000203a6a34ba1af51e89bed82d1036659bb9e8b866f3bfa6938dce2e00681e5e941010000006b483045022100a7deccd4e758cf4a4f58b6358f07194a02413a13503314e733398d6075fe4bdb02200a427294bb7bbf1776d3b63ed971e3619197470401f67d4b7e69b8e9e801c0d50121025ba4e0e9e9b98a7efd30e9ad962eb34079adb28a9c78301eb45bb3ea743925bafeffffff09cb19599071b90aabcbe63a9c5d282da08003b512713fa560b5326849c5af5a010000006a473044022019a6aa9933d38b5ae57079e9089f5aecfc38eb7c2594e9fb2d4123edaa9292ef0220090a5ca19d8ac4a2d2d29ad0492ebe1afe01c1842701d6e7e981d26990a169000121025ba4e0e9e9b98a7efd30e9ad962eb34079adb28a9c78301eb45bb3ea743925bafeffffff030000000000000000166a146f6d6e69000000000000001f000000346e8c7c4022020000000000001976a914a25dec4d0011064ef106a983c39c7a540699f22088acdefb0600000000001976a9147892c9f0c423483611eb383b596d497df451778588ac0b490800", "vin": [{"sequence": 4294967294, "scriptSig": {"hex": "483045022100a7deccd4e758cf4a4f58b6358f07194a02413a13503314e733398d6075fe4bdb02200a427294bb7bbf1776d3b63ed971e3619197470401f67d4b7e69b8e9e801c0d50121025ba4e0e9e9b98a7efd30e9ad962eb34079adb28a9c78301eb45bb3ea743925ba", "asm": "3045022100a7deccd4e758cf4a4f58b6358f07194a02413a13503314e733398d6075fe4bdb02200a427294bb7bbf1776d3b63ed971e3619197470401f67d4b7e69b8e9e801c0d5[ALL] 025ba4e0e9e9b98a7efd30e9ad962eb34079adb28a9c78301eb45bb3ea743925ba"}, "vout": 1, "txid": "41e9e58106e0e2dc3869fa3b6f868b9ebb596603d182ed9be851afa14ba3a603"}, {"sequence": 4294967294, "scriptSig": {"hex": "473044022019a6aa9933d38b5ae57079e9089f5aecfc38eb7c2594e9fb2d4123edaa9292ef0220090a5ca19d8ac4a2d2d29ad0492ebe1afe01c1842701d6e7e981d26990a169000121025ba4e0e9e9b98a7efd30e9ad962eb34079adb28a9c78301eb45bb3ea743925ba", "asm": "3044022019a6aa9933d38b5ae57079e9089f5aecfc38eb7c2594e9fb2d4123edaa9292ef0220090a5ca19d8ac4a2d2d29ad0492ebe1afe01c1842701d6e7e981d26990a16900[ALL] 025ba4e0e9e9b98a7efd30e9ad962eb34079adb28a9c78301eb45bb3ea743925ba"}, "vout": 1, "txid": "5aafc5496832b560a53f7112b50380a02d285d9c3ae6cbab0ab971905919cb09"}], "txid": "18eb167661dbfaaace65e5e9c546dfaa2f3e0f3247625db9a0b18d79306be140", "blocktime": 1537869901, "version": 1, "confirmations": 11524, "time": 1537869901, "locktime": 542987, "vsize": 404, "size": 404}