{"hash": "18edd6039f5279372949834078884f4a0c0b5261b6ec6d926ea1c84f7a37f732", "blockhash": "0000000000000000001f76057863aec43deb6fa401d9628bb513d65a8098bfab", "vout": [{"scriptPubKey": {"reqSigs": 1, "hex": "76a91491b92dca7fcc3a8c8dde46bd5ab041d8256c3c0f88ac", "addresses": ["1EHWpGbioEh439WVLhQzzydMNVSPQ1ur7o"], "asm": "OP_DUP OP_HASH160 91b92dca7fcc3a8c8dde46bd5ab041d8256c3c0f OP_EQUALVERIFY OP_CHECKSIG", "type": "pubkeyhash"}, "value": 0.0121893, "n": 0}, {"scriptPubKey": {"reqSigs": 1, "hex": "a914736fab0939377f3ccbf83c49477ca5b06a0d82e787", "addresses": ["3CDPQSWAaUsFw9ySKLczEu9EDsAvA7zRvK"], "asm": "OP_HASH160 736fab0939377f3ccbf83c49477ca5b06a0d82e7 OP_EQUAL", "type": "scripthash"}, "value": 0.0156, "n": 1}], "hex": "0100000001dab7db458c9c2a3046fb7bcf8608d87b9283dcbe868c33502aa5dfc0c029fc14040000006a4730440220132b58db7e8c5a8e7c98cd8e4ff6fd81dee78d8d80d07a8ff9390557551712fc02203895cfd3214b3a6c3f4df3b6f91c0b4e929d61f853a0903b146d53445b0638ac012102d35c50b1156b85e4f1d1562c87890687382745d69220aa3c8063f0de3a719636ffffffff0272991200000000001976a91491b92dca7fcc3a8c8dde46bd5ab041d8256c3c0f88acc0cd17000000000017a914736fab0939377f3ccbf83c49477ca5b06a0d82e78700000000", "vin": [{"sequence": 4294967295, "scriptSig": {"hex": "4730440220132b58db7e8c5a8e7c98cd8e4ff6fd81dee78d8d80d07a8ff9390557551712fc02203895cfd3214b3a6c3f4df3b6f91c0b4e929d61f853a0903b146d53445b0638ac012102d35c50b1156b85e4f1d1562c87890687382745d69220aa3c8063f0de3a719636", "asm": "30440220132b58db7e8c5a8e7c98cd8e4ff6fd81dee78d8d80d07a8ff9390557551712fc02203895cfd3214b3a6c3f4df3b6f91c0b4e929d61f853a0903b146d53445b0638ac[ALL] 02d35c50b1156b85e4f1d1562c87890687382745d69220aa3c8063f0de3a719636"}, "vout": 4, "txid": "14fc29c0c0dfa52a50338c86bedc83927bd80886cf7bfb46302a9c8c45dbb7da"}], "txid": "18edd6039f5279372949834078884f4a0c0b5261b6ec6d926ea1c84f7a37f732", "blocktime": 1537873891, "version": 1, "confirmations": 11478, "time": 1537873891, "locktime": 0, "vsize": 223, "size": 223}