{"hash": "18eeb6861f5b5a7975852b8b4be241c68c9b5698e9c6049972a8d8eba92b544e", "blockhash": "0000000000000000001f76057863aec43deb6fa401d9628bb513d65a8098bfab", "vout": [{"scriptPubKey": {"type": "nulldata", "hex": "6a4c50000077de0001155b8995ebefad543411f0c47af8e8e963c7cfd5b95b23cc0f42c2fc38c5574d483270019df53b84351e4f62941b5baa16610612d44248fb6dcd1d100759d4ba30d2c37bb011d97e02cf", "asm": "OP_RETURN 000077de0001155b8995ebefad543411f0c47af8e8e963c7cfd5b95b23cc0f42c2fc38c5574d483270019df53b84351e4f62941b5baa16610612d44248fb6dcd1d100759d4ba30d2c37bb011d97e02cf"}, "value": 0.0, "n": 0}, {"scriptPubKey": {"reqSigs": 1, "hex": "76a914a0fa2af2929db5f8b86aa1b1800ae7a3900f7a3688ac", "addresses": ["1FgAoevUTHrcwvVHhuhAwet5nfEaUiZtWq"], "asm": "OP_DUP OP_HASH160 a0fa2af2929db5f8b86aa1b1800ae7a3900f7a36 OP_EQUALVERIFY OP_CHECKSIG", "type": "pubkeyhash"}, "value": 0.00637999, "n": 1}], "hex": "0100000001e401ae4538074722505071157c445b1501d7905535464e35e892d04692151c1b000000006b483045022100ee889f5a7b1f21b8943fb9d2e18363b952d7381b262151858295d63c2e5a2766022019d9387c51e3f42287cd51b176c7036df6a12f4ee84b75af5a68c2e184237eb4012102f6d1a74bccbc650ea529fc2a4429342ed117b81259b60c71dda02020c1292569ffffffff020000000000000000536a4c50000077de0001155b8995ebefad543411f0c47af8e8e963c7cfd5b95b23cc0f42c2fc38c5574d483270019df53b84351e4f62941b5baa16610612d44248fb6dcd1d100759d4ba30d2c37bb011d97e02cf2fbc0900000000001976a914a0fa2af2929db5f8b86aa1b1800ae7a3900f7a3688ac00000000", "vin": [{"sequence": 4294967295, "scriptSig": {"hex": "483045022100ee889f5a7b1f21b8943fb9d2e18363b952d7381b262151858295d63c2e5a2766022019d9387c51e3f42287cd51b176c7036df6a12f4ee84b75af5a68c2e184237eb4012102f6d1a74bccbc650ea529fc2a4429342ed117b81259b60c71dda02020c1292569", "asm": "3045022100ee889f5a7b1f21b8943fb9d2e18363b952d7381b262151858295d63c2e5a2766022019d9387c51e3f42287cd51b176c7036df6a12f4ee84b75af5a68c2e184237eb4[ALL] 02f6d1a74bccbc650ea529fc2a4429342ed117b81259b60c71dda02020c1292569"}, "vout": 0, "txid": "1b1c159246d092e8354e46355590d701155b447c157150502247073845ae01e4"}], "txid": "18eeb6861f5b5a7975852b8b4be241c68c9b5698e9c6049972a8d8eba92b544e", "blocktime": 1537873891, "version": 1, "confirmations": 11478, "time": 1537873891, "locktime": 0, "vsize": 284, "size": 284}