{"hash": "18f2fd6673430e2b20ec9e0620a4bd00480dd936efc30a8c2ef3582be1569aa9", "blockhash": "0000000000000000000e13cef7c366c0283d82e591d1acd082e914b08063cdf1", "vout": [{"scriptPubKey": {"reqSigs": 1, "hex": "76a914806728a8b05bdbb5261369a0f0664e747888078f88ac", "addresses": ["1Chw59zZLofqeVDEF3KrysDVsxHUGsWUE3"], "asm": "OP_DUP OP_HASH160 806728a8b05bdbb5261369a0f0664e747888078f OP_EQUALVERIFY OP_CHECKSIG", "type": "pubkeyhash"}, "value": 4.744e-05, "n": 0}, {"scriptPubKey": {"reqSigs": 1, "hex": "a914550ae43fdf8eb87d19972a58f21673dc6fe43cb187", "addresses": ["39SgQcPV4aAj5gJKkQRRhbrfh9q659fmAp"], "asm": "OP_HASH160 550ae43fdf8eb87d19972a58f21673dc6fe43cb1 OP_EQUAL", "type": "scripthash"}, "value": 0.01343876, "n": 1}], "hex": "0100000001bc13bb4923bf7bb09db7b795e6d5cf9229fbcbbb55da9a594d05da8e383ad11e000000006b483045022100e33df95861be4b87ee99f72152df6c43b64cc5c3c1c28bc43260c72afaa8fc420220322d2530a7727016f4270cd279a7712375fe8893aa869c7038ba1ab21ad82656012102315796c81ff6b52a32c07cf86938f9d545d8d39e273431e83a86d0b1bd1b30ecffffffff0288120000000000001976a914806728a8b05bdbb5261369a0f0664e747888078f88ac848114000000000017a914550ae43fdf8eb87d19972a58f21673dc6fe43cb18700000000", "vin": [{"sequence": 4294967295, "scriptSig": {"hex": "483045022100e33df95861be4b87ee99f72152df6c43b64cc5c3c1c28bc43260c72afaa8fc420220322d2530a7727016f4270cd279a7712375fe8893aa869c7038ba1ab21ad82656012102315796c81ff6b52a32c07cf86938f9d545d8d39e273431e83a86d0b1bd1b30ec", "asm": "3045022100e33df95861be4b87ee99f72152df6c43b64cc5c3c1c28bc43260c72afaa8fc420220322d2530a7727016f4270cd279a7712375fe8893aa869c7038ba1ab21ad82656[ALL] 02315796c81ff6b52a32c07cf86938f9d545d8d39e273431e83a86d0b1bd1b30ec"}, "vout": 0, "txid": "1ed13a388eda054d599ada55bbcbfb2992cfd5e695b7b79db07bbf2349bb13bc"}], "txid": "18f2fd6673430e2b20ec9e0620a4bd00480dd936efc30a8c2ef3582be1569aa9", "blocktime": 1537871767, "version": 1, "confirmations": 11495, "time": 1537871767, "locktime": 0, "vsize": 224, "size": 224}