{"hash": "18f43521a4e04cd6a00df2dfb2a0a028adf8362534a462a2a66bb992965f94ca", "blockhash": "0000000000000000001cda96e906b7601b7a6fb1a3b62bca570a9e5d8f4b3de1", "vout": [{"scriptPubKey": {"reqSigs": 1, "hex": "76a914874e103fb366d0fc23920b84aa906d2bbfdef9f488ac", "addresses": ["1DLRjqrG1gxSAKx7WUr5zm2wuqHPpyQtSb"], "asm": "OP_DUP OP_HASH160 874e103fb366d0fc23920b84aa906d2bbfdef9f4 OP_EQUALVERIFY OP_CHECKSIG", "type": "pubkeyhash"}, "value": 0.000249, "n": 0}, {"scriptPubKey": {"reqSigs": 1, "hex": "76a9146337aefd82e6c1f83ab505b78c3bcc413b49364088ac", "addresses": ["1A3cbxFC4zrfgxEb6GhAe97m2rSEyvUetp"], "asm": "OP_DUP OP_HASH160 6337aefd82e6c1f83ab505b78c3bcc413b493640 OP_EQUALVERIFY OP_CHECKSIG", "type": "pubkeyhash"}, "value": 0.3268, "n": 1}], "hex": "01000000017d41eeecf17771d499b8ecf44a42608f166462b8667397c7c1ab0582c4f930da000000006b483045022100ef43d2c86d156b1639729b47f3631202b4e3504abac5809d8f414578d36bec07022052740ae7c473d9e6bef80a8b78b86e35bfb3295864ac1117425ec760512b0a82012103f6f9968316d66ffb84d76ac978c46da6bd55441c8e142bbb9cbfef96a91096afffffffff0244610000000000001976a914874e103fb366d0fc23920b84aa906d2bbfdef9f488ac40a8f201000000001976a9146337aefd82e6c1f83ab505b78c3bcc413b49364088ac00000000", "vin": [{"sequence": 4294967295, "scriptSig": {"hex": "483045022100ef43d2c86d156b1639729b47f3631202b4e3504abac5809d8f414578d36bec07022052740ae7c473d9e6bef80a8b78b86e35bfb3295864ac1117425ec760512b0a82012103f6f9968316d66ffb84d76ac978c46da6bd55441c8e142bbb9cbfef96a91096af", "asm": "3045022100ef43d2c86d156b1639729b47f3631202b4e3504abac5809d8f414578d36bec07022052740ae7c473d9e6bef80a8b78b86e35bfb3295864ac1117425ec760512b0a82[ALL] 03f6f9968316d66ffb84d76ac978c46da6bd55441c8e142bbb9cbfef96a91096af"}, "vout": 0, "txid": "da30f9c48205abc1c7977366b86264168f60424af4ecb899d47177f1ecee417d"}], "txid": "18f43521a4e04cd6a00df2dfb2a0a028adf8362534a462a2a66bb992965f94ca", "blocktime": 1537873282, "version": 1, "confirmations": 11484, "time": 1537873282, "locktime": 0, "vsize": 226, "size": 226}