{"hash": "f43e51c4a9d185b5fe34f821b1a1060c500c4ac293820f4b8ba36956432f1233", "blockhash": "000000000000000000022b45ed06c6f4ccd3cf7fb5ba4856ebd2e58215665228", "vout": [{"scriptPubKey": {"reqSigs": 1, "hex": "76a9142e1b944fe7ffbe969fc1df8d662fd7b5d6303c9b88ac", "addresses": ["15Co856cRnFRCKwSSzECoyT3ozVhuFoJZ6"], "asm": "OP_DUP OP_HASH160 2e1b944fe7ffbe969fc1df8d662fd7b5d6303c9b OP_EQUALVERIFY OP_CHECKSIG", "type": "pubkeyhash"}, "value": 0.0028546, "n": 0}, {"scriptPubKey": {"reqSigs": 1, "hex": "a91424c1d8711d2fb2f61cb155e8b097aca1c7926a8d87", "addresses": ["353NU4yrRXUpAL2JQFZMMRM84n5XpcCkKS"], "asm": "OP_HASH160 24c1d8711d2fb2f61cb155e8b097aca1c7926a8d OP_EQUAL", "type": "scripthash"}, "value": 0.00999925, "n": 1}], "hex": "020000000001024400855c90fd046a346acb5e1b059560ec9e245e9af8750b61c6f8ba1469a4e40100000017160014a35f1dad1aecf81564f346df5a30f5b80210c029feffffff8e28c87366af44a03f8427ae3d0190cf3588d13014867ea1bccae4fb9e3b4dae0100000017160014e7b918fa1fc139754aa0a7be0a8ac2db66322501feffffff02145b0400000000001976a9142e1b944fe7ffbe969fc1df8d662fd7b5d6303c9b88acf5410f000000000017a91424c1d8711d2fb2f61cb155e8b097aca1c7926a8d8702483045022100d8804b551a1c64b60f544a812a6548fd0392f578aa96d5e106f42ac10f4d0ee902204caf5d81321f5da5e2b1baedb33f907fedecf84617c4c323e3137a2164df78c10121020bbd2c58b9dd730a472c85ccce4cc7921ecb47f0202440e67d835186fff7435902483045022100c14f7e3b3a8e7786b23ac7f2f55b8bce9c6ead591cfc506c5cb16fbeacc979d6022067d3388c19517bdaadf1a215154de5f4a3d651cb45340fc0e3c14fab266996fe01210210854c8791613e94714c3a5cbe846ab02c2bbb2157c54cafa43ac2b5aea192590b490800", "vin": [{"txinwitness": ["3045022100d8804b551a1c64b60f544a812a6548fd0392f578aa96d5e106f42ac10f4d0ee902204caf5d81321f5da5e2b1baedb33f907fedecf84617c4c323e3137a2164df78c101", "020bbd2c58b9dd730a472c85ccce4cc7921ecb47f0202440e67d835186fff74359"], "sequence": 4294967294, "scriptSig": {"hex": "160014a35f1dad1aecf81564f346df5a30f5b80210c029", "asm": "0014a35f1dad1aecf81564f346df5a30f5b80210c029"}, "vout": 1, "txid": "e4a46914baf8c6610b75f89a5e249eec6095051b5ecb6a346a04fd905c850044"}, {"txinwitness": ["3045022100c14f7e3b3a8e7786b23ac7f2f55b8bce9c6ead591cfc506c5cb16fbeacc979d6022067d3388c19517bdaadf1a215154de5f4a3d651cb45340fc0e3c14fab266996fe01", "0210854c8791613e94714c3a5cbe846ab02c2bbb2157c54cafa43ac2b5aea19259"], "sequence": 4294967294, "scriptSig": {"hex": "160014e7b918fa1fc139754aa0a7be0a8ac2db66322501", "asm": "0014e7b918fa1fc139754aa0a7be0a8ac2db66322501"}, "vout": 1, "txid": "ae4d3b9efbe4cabca17e861430d18835cf90013dae27843fa044af6673c8288e"}], "txid": "18fb932686ea03a044ee6b3ebfe095afbf836c804c4b506b480b666a67b9de42", "blocktime": 1537869901, "version": 2, "confirmations": 11524, "time": 1537869901, "locktime": 542987, "vsize": 259, "size": 422}