{"hash": "18ff01ccde9cc1bd275bca6c12825c488837b57f5432ced86c961ee1f17360c6", "blockhash": "0000000000000000001f0ddff1eddb255c1121bcd4da4f1bc9a0da00cae72433", "vout": [{"scriptPubKey": {"reqSigs": 1, "hex": "76a914028002046f0b6a2e223f1dcb53b95f6a74547f5e88ac", "addresses": ["1EDhXaAHpG9FZHppJUtP2ZL1XDph7FzNP"], "asm": "OP_DUP OP_HASH160 028002046f0b6a2e223f1dcb53b95f6a74547f5e OP_EQUALVERIFY OP_CHECKSIG", "type": "pubkeyhash"}, "value": 3.75613605, "n": 0}, {"scriptPubKey": {"reqSigs": 1, "hex": "76a9141ba9141169424edc4e38988fb6483f7beeac717188ac", "addresses": ["13XFnxDPMPH3cM7Wq1GdqZuxVYwR43z1T7"], "asm": "OP_DUP OP_HASH160 1ba9141169424edc4e38988fb6483f7beeac7171 OP_EQUALVERIFY OP_CHECKSIG", "type": "pubkeyhash"}, "value": 0.00989895, "n": 1}], "hex": "02000000072675bef9b2c86e76a65aff13570155eceab81e85959165ac2a11aa5356b2cc67010000006b483045022100a362aef49e67335bced6aa09c49d51a1dafc0693b291648486060274531a965502206af8f49fee0af57353d0ce09c209066c55c4b5e47ecb8b64053cf81b66a02464012103afe24179237bd05a95a8138878257e49ffb90c66b9c38e98536792644777632efeffffff62f7414c5e8a1aec81e317b4632d73935fda260a884d96b4fb5eb09bcd960596010000006a473044022074ae484dee23d65137334c2ec10968c62b389a8c51e02cbc4c8ac5f12bde7e9c022027c25efc139690b64f11602b307688c206b4e9397dd18241ab792b550947ec0d0121030a4ec73586c1d2122afbd077b3406d9eca5d100e78dbb6978aabb33a56017ce8feffffff6bc6a17d5f1e52ba8a4697cc23886f18fa0f1edd30b60b2904db211dc84d7419010000006a4730440220616d4bc006de91082bb7eb9b69f928c4685e61a7c326767fcb94dccc753664a1022031ab93db9e32d81c0153e294337f68e32dc93a5030ef34f7c05554368a6f2bde012103ceb5b2712a08b7fdbbf10045385f7e4dded6fdc8f3a91c3b360166af8c4efb31feffffff6ccd15e1fb56dc7e284480dd974a369d6a935c13f4bb6edac755085495920480010000006b483045022100c23957e1ba06cf4d687557c19335170b94064fb36b8e95e9b682cb7c5ef9621f02203544998c29d2a600843e46704633b7bb00de8a22d01b43f7d48ed3aa05ddebe7012102152cb77fb481bda508de395b4e3724ae4b7d2260c4f11e9c54c02955f1c7a886feffffff97596323afdc9fb55ff1c004086b0d6e206b054ff8c214db5b3a0eeda23fbc21010000006b483045022100de98a6aa2e757953c61d7be47b8b283f5d2b4239046084dd1a9744f8306f5ebd02201c8930ab06f42336ba90ad3dee99797c8f53512904aa07611dbaac80fdc511d101210342807cd43c90542034c49b34f657ed2e1e0826cad37fa7cc3bcc79f867e3ff64feffffffa831ccf246f7978d713bcd297de306296e62396f8a863923bbcd5dfc6634d201000000006a473044022008d0598c3b1ab488f8143e94b954089941c08eb6e39f3422adbcd639dba1c51e02205fa577e6629892cdb8d30c3b2834613802c190e23c0ef849f5bc58fee17b1cad012102c8e10346004d5a746bda68f04e823049a95ddf3459073bed266f2f33d295b6d3feffffffe0b260179570e8129593b126e31977e436fde039196367b3fe8edfd51c8f62a5000000006a47304402204b513074a6f573dc08ac0bf7ab90846040221dd43e1ff9cec715c44997a76daf022073f340bcfa9db092c13238ed84f0a6778bdf8a6a7182d30fc571fbe9eff3115601210297583b02dbdf8ab6e64ddba7a32fc65d3b1d30076794843254063004f54b20f9feffffff02a5686316000000001976a914028002046f0b6a2e223f1dcb53b95f6a74547f5e88acc71a0f00000000001976a9141ba9141169424edc4e38988fb6483f7beeac717188ac11490800", "vin": [{"sequence": 4294967294, "scriptSig": {"hex": "483045022100a362aef49e67335bced6aa09c49d51a1dafc0693b291648486060274531a965502206af8f49fee0af57353d0ce09c209066c55c4b5e47ecb8b64053cf81b66a02464012103afe24179237bd05a95a8138878257e49ffb90c66b9c38e98536792644777632e", "asm": "3045022100a362aef49e67335bced6aa09c49d51a1dafc0693b291648486060274531a965502206af8f49fee0af57353d0ce09c209066c55c4b5e47ecb8b64053cf81b66a02464[ALL] 03afe24179237bd05a95a8138878257e49ffb90c66b9c38e98536792644777632e"}, "vout": 1, "txid": "67ccb25653aa112aac659195851eb8eaec55015713ff5aa6766ec8b2f9be7526"}, {"sequence": 4294967294, "scriptSig": {"hex": "473044022074ae484dee23d65137334c2ec10968c62b389a8c51e02cbc4c8ac5f12bde7e9c022027c25efc139690b64f11602b307688c206b4e9397dd18241ab792b550947ec0d0121030a4ec73586c1d2122afbd077b3406d9eca5d100e78dbb6978aabb33a56017ce8", "asm": "3044022074ae484dee23d65137334c2ec10968c62b389a8c51e02cbc4c8ac5f12bde7e9c022027c25efc139690b64f11602b307688c206b4e9397dd18241ab792b550947ec0d[ALL] 030a4ec73586c1d2122afbd077b3406d9eca5d100e78dbb6978aabb33a56017ce8"}, "vout": 1, "txid": "960596cd9bb05efbb4964d880a26da5f93732d63b417e381ec1a8a5e4c41f762"}, {"sequence": 4294967294, "scriptSig": {"hex": "4730440220616d4bc006de91082bb7eb9b69f928c4685e61a7c326767fcb94dccc753664a1022031ab93db9e32d81c0153e294337f68e32dc93a5030ef34f7c05554368a6f2bde012103ceb5b2712a08b7fdbbf10045385f7e4dded6fdc8f3a91c3b360166af8c4efb31", "asm": "30440220616d4bc006de91082bb7eb9b69f928c4685e61a7c326767fcb94dccc753664a1022031ab93db9e32d81c0153e294337f68e32dc93a5030ef34f7c05554368a6f2bde[ALL] 03ceb5b2712a08b7fdbbf10045385f7e4dded6fdc8f3a91c3b360166af8c4efb31"}, "vout": 1, "txid": "19744dc81d21db04290bb630dd1e0ffa186f8823cc97468aba521e5f7da1c66b"}, {"sequence": 4294967294, "scriptSig": {"hex": "483045022100c23957e1ba06cf4d687557c19335170b94064fb36b8e95e9b682cb7c5ef9621f02203544998c29d2a600843e46704633b7bb00de8a22d01b43f7d48ed3aa05ddebe7012102152cb77fb481bda508de395b4e3724ae4b7d2260c4f11e9c54c02955f1c7a886", "asm": "3045022100c23957e1ba06cf4d687557c19335170b94064fb36b8e95e9b682cb7c5ef9621f02203544998c29d2a600843e46704633b7bb00de8a22d01b43f7d48ed3aa05ddebe7[ALL] 02152cb77fb481bda508de395b4e3724ae4b7d2260c4f11e9c54c02955f1c7a886"}, "vout": 1, "txid": "80049295540855c7da6ebbf4135c936a9d364a97dd8044287edc56fbe115cd6c"}, {"sequence": 4294967294, "scriptSig": {"hex": "483045022100de98a6aa2e757953c61d7be47b8b283f5d2b4239046084dd1a9744f8306f5ebd02201c8930ab06f42336ba90ad3dee99797c8f53512904aa07611dbaac80fdc511d101210342807cd43c90542034c49b34f657ed2e1e0826cad37fa7cc3bcc79f867e3ff64", "asm": "3045022100de98a6aa2e757953c61d7be47b8b283f5d2b4239046084dd1a9744f8306f5ebd02201c8930ab06f42336ba90ad3dee99797c8f53512904aa07611dbaac80fdc511d1[ALL] 0342807cd43c90542034c49b34f657ed2e1e0826cad37fa7cc3bcc79f867e3ff64"}, "vout": 1, "txid": "21bc3fa2ed0e3a5bdb14c2f84f056b206e0d6b0804c0f15fb59fdcaf23635997"}, {"sequence": 4294967294, "scriptSig": {"hex": "473044022008d0598c3b1ab488f8143e94b954089941c08eb6e39f3422adbcd639dba1c51e02205fa577e6629892cdb8d30c3b2834613802c190e23c0ef849f5bc58fee17b1cad012102c8e10346004d5a746bda68f04e823049a95ddf3459073bed266f2f33d295b6d3", "asm": "3044022008d0598c3b1ab488f8143e94b954089941c08eb6e39f3422adbcd639dba1c51e02205fa577e6629892cdb8d30c3b2834613802c190e23c0ef849f5bc58fee17b1cad[ALL] 02c8e10346004d5a746bda68f04e823049a95ddf3459073bed266f2f33d295b6d3"}, "vout": 0, "txid": "01d23466fc5dcdbb2339868a6f39626e2906e37d29cd3b718d97f746f2cc31a8"}, {"sequence": 4294967294, "scriptSig": {"hex": "47304402204b513074a6f573dc08ac0bf7ab90846040221dd43e1ff9cec715c44997a76daf022073f340bcfa9db092c13238ed84f0a6778bdf8a6a7182d30fc571fbe9eff3115601210297583b02dbdf8ab6e64ddba7a32fc65d3b1d30076794843254063004f54b20f9", "asm": "304402204b513074a6f573dc08ac0bf7ab90846040221dd43e1ff9cec715c44997a76daf022073f340bcfa9db092c13238ed84f0a6778bdf8a6a7182d30fc571fbe9eff31156[ALL] 0297583b02dbdf8ab6e64ddba7a32fc65d3b1d30076794843254063004f54b20f9"}, "vout": 0, "txid": "a5628f1cd5df8efeb367631939e0fd36e47719e326b1939512e870951760b2e0"}], "txid": "18ff01ccde9cc1bd275bca6c12825c488837b57f5432ced86c961ee1f17360c6", "blocktime": 1537872018, "version": 2, "confirmations": 11489, "time": 1537872018, "locktime": 542993, "vsize": 1110, "size": 1110}