{"hash": "1905c34ebc5cc9fac51bb527625f94213a0a5fa6f453950bb38ab4d01ddb360d", "blockhash": "0000000000000000001e0dab787dd257d1dbfcb92a98c2207d5e1078be1f4165", "vout": [{"scriptPubKey": {"reqSigs": 1, "hex": "76a914249be1fa58419437ad85d3ff7688e091b8ae6af088ac", "addresses": ["14La4q11uMSPt2fbHLJ6mHYBuigQ4hAWXM"], "asm": "OP_DUP OP_HASH160 249be1fa58419437ad85d3ff7688e091b8ae6af0 OP_EQUALVERIFY OP_CHECKSIG", "type": "pubkeyhash"}, "value": 0.05979481, "n": 0}], "hex": "02000000011c8299bac660b503ffb95ae42eaaf72d00e41fa78c4baf292a7448c3954da870000000006b483045022100c3841f42a436d7138b47919a1e8e69ab1681a39db150d0b6e03aae15d0acc8690220760ca95148c151b7ee62f0c810ea292101e59aa36c8caa429338b0d619011ea10121023d4fa3c80ac3b394f1e1624243917ae0e3dfda62322b5f22afca1f1447527866feffffff01593d5b00000000001976a914249be1fa58419437ad85d3ff7688e091b8ae6af088ac12490800", "vin": [{"sequence": 4294967294, "scriptSig": {"hex": "483045022100c3841f42a436d7138b47919a1e8e69ab1681a39db150d0b6e03aae15d0acc8690220760ca95148c151b7ee62f0c810ea292101e59aa36c8caa429338b0d619011ea10121023d4fa3c80ac3b394f1e1624243917ae0e3dfda62322b5f22afca1f1447527866", "asm": "3045022100c3841f42a436d7138b47919a1e8e69ab1681a39db150d0b6e03aae15d0acc8690220760ca95148c151b7ee62f0c810ea292101e59aa36c8caa429338b0d619011ea1[ALL] 023d4fa3c80ac3b394f1e1624243917ae0e3dfda62322b5f22afca1f1447527866"}, "vout": 0, "txid": "70a84d95c348742a29af4b8ca71fe4002df7aa2ee45ab9ff03b560c6ba99821c"}], "txid": "1905c34ebc5cc9fac51bb527625f94213a0a5fa6f453950bb38ab4d01ddb360d", "blocktime": 1537872475, "version": 2, "confirmations": 11487, "time": 1537872475, "locktime": 542994, "vsize": 192, "size": 192}