{"hash": "190ac021d434a9438dd25381ebe8a1ff9dac58223c8c2ccbdef14065c39aba64", "blockhash": "000000000000000000022b45ed06c6f4ccd3cf7fb5ba4856ebd2e58215665228", "vout": [{"scriptPubKey": {"reqSigs": 1, "hex": "76a914de4cbe7fea3602ebcb45716e442a2617fc42147d88ac", "addresses": ["1MGQws2uNMZiTDWf9N5vwgM6tNiqRiuZog"], "asm": "OP_DUP OP_HASH160 de4cbe7fea3602ebcb45716e442a2617fc42147d OP_EQUALVERIFY OP_CHECKSIG", "type": "pubkeyhash"}, "value": 0.0001026, "n": 0}, {"scriptPubKey": {"reqSigs": 1, "hex": "a9145ef1e9088ce5769fbd1e1ac8ec21e82a4186a6b487", "addresses": ["3AM3EoC3QTJTFU1vamDGLS75jkp9pxn7ew"], "asm": "OP_HASH160 5ef1e9088ce5769fbd1e1ac8ec21e82a4186a6b4 OP_EQUAL", "type": "scripthash"}, "value": 0.00469, "n": 1}], "hex": "0100000001537badd53c74f7d723fa5d390917a9f2ecbd10651f2689cfd2ce766f70086564010000006b483045022100fd8605e2c7b7e873bcb5d45616a32c025b77950d3bc3a897dbae390c79d33abf022059645a8e05be451c6798f6bda74e7d6d995d594f6fca5f3809e4593c5d5b67f90121028e09e8370a64f8ce0f0071b04d74a5dcccb101c48c49bc214f1fb425edbd65edffffffff0214280000000000001976a914de4cbe7fea3602ebcb45716e442a2617fc42147d88ac082807000000000017a9145ef1e9088ce5769fbd1e1ac8ec21e82a4186a6b48700000000", "vin": [{"sequence": 4294967295, "scriptSig": {"hex": "483045022100fd8605e2c7b7e873bcb5d45616a32c025b77950d3bc3a897dbae390c79d33abf022059645a8e05be451c6798f6bda74e7d6d995d594f6fca5f3809e4593c5d5b67f90121028e09e8370a64f8ce0f0071b04d74a5dcccb101c48c49bc214f1fb425edbd65ed", "asm": "3045022100fd8605e2c7b7e873bcb5d45616a32c025b77950d3bc3a897dbae390c79d33abf022059645a8e05be451c6798f6bda74e7d6d995d594f6fca5f3809e4593c5d5b67f9[ALL] 028e09e8370a64f8ce0f0071b04d74a5dcccb101c48c49bc214f1fb425edbd65ed"}, "vout": 1, "txid": "646508706f76ced2cf89261f6510bdecf2a91709395dfa23d7f7743cd5ad7b53"}], "txid": "190ac021d434a9438dd25381ebe8a1ff9dac58223c8c2ccbdef14065c39aba64", "blocktime": 1537869901, "version": 1, "confirmations": 11524, "time": 1537869901, "locktime": 0, "vsize": 224, "size": 224}