{"hash": "2aaba9fd25c7a59861db9e69f15129fd232f99dc2d8a6bc075f83e0969882ced", "blockhash": "00000000000000000024a2167bbff67b0be802c0b01cdd79e6331c2be6459f87", "vout": [{"scriptPubKey": {"reqSigs": 1, "hex": "76a9144086694259ab0e72f1cb272f8d1dc75ba6b191a688ac", "addresses": ["16tBGL5KfoQTM7EsQS31y5yDdCWASyVveM"], "asm": "OP_DUP OP_HASH160 4086694259ab0e72f1cb272f8d1dc75ba6b191a6 OP_EQUALVERIFY OP_CHECKSIG", "type": "pubkeyhash"}, "value": 0.00012067, "n": 0}, {"scriptPubKey": {"reqSigs": 1, "hex": "a914414cec0fc72a9410f6836edaf08de1aa3b2a321c87", "addresses": ["37eHzewnAFRR2SVZu8rZM3nBsmuE2XBU7D"], "asm": "OP_HASH160 414cec0fc72a9410f6836edaf08de1aa3b2a321c OP_EQUAL", "type": "scripthash"}, "value": 0.31070102, "n": 1}], "hex": "01000000000101009c5c3c9d75dc164729f304eece9dedc832ea64557b25fa4d2914721e70bb3b0100000023220020ce74cde37cfb8dd71d0179287e12fc721ee236ce3c89c2745bcd365b39807eb3ffffffff02232f0000000000001976a9144086694259ab0e72f1cb272f8d1dc75ba6b191a688ac9617da010000000017a914414cec0fc72a9410f6836edaf08de1aa3b2a321c870400473044022058b96c18b616c1eec8294a28448bfd1d583ec0c0bc69a30990160e7a283ac145022021e5c38419d5fd15cd56d96bcb76fb62b633bc60c4d7b19b7c88dc90e801a0f801473044022005485131206aae5d4e6d0928456e8730442b71aeabd91b926ddac041ba65eaf1022077ece92a046cdf10554a7b113754f4e08efb0e6054cab6291b7f6d2cc7ab91180147522103ada901d90d5a76319a60f228e0b1bbc84b1d9a87238550bae5d5d190067b66712103871fc2ca08e6950b38867e8e6a0e94ee625223d3aa0df5c65f414c6d784467e252ae00000000", "vin": [{"txinwitness": ["", "3044022058b96c18b616c1eec8294a28448bfd1d583ec0c0bc69a30990160e7a283ac145022021e5c38419d5fd15cd56d96bcb76fb62b633bc60c4d7b19b7c88dc90e801a0f801", "3044022005485131206aae5d4e6d0928456e8730442b71aeabd91b926ddac041ba65eaf1022077ece92a046cdf10554a7b113754f4e08efb0e6054cab6291b7f6d2cc7ab911801", "522103ada901d90d5a76319a60f228e0b1bbc84b1d9a87238550bae5d5d190067b66712103871fc2ca08e6950b38867e8e6a0e94ee625223d3aa0df5c65f414c6d784467e252ae"], "sequence": 4294967295, "scriptSig": {"hex": "220020ce74cde37cfb8dd71d0179287e12fc721ee236ce3c89c2745bcd365b39807eb3", "asm": "0020ce74cde37cfb8dd71d0179287e12fc721ee236ce3c89c2745bcd365b39807eb3"}, "vout": 1, "txid": "3bbb701e7214294dfa257b5564ea32c8ed9dceee04f3294716dc759d3c5c9c00"}], "txid": "190bec775a24219c1ea8cde33c66957d7240450edc32acce324213edc2cff537", "blocktime": 1537870564, "version": 1, "confirmations": 11515, "time": 1537870564, "locktime": 0, "vsize": 207, "size": 372}