{"hash": "190c4e15afa4dc445a8cf368bdcf02db4058b0b4e9275638df0f780896400823", "blockhash": "0000000000000000001f0ddff1eddb255c1121bcd4da4f1bc9a0da00cae72433", "vout": [{"scriptPubKey": {"reqSigs": 1, "hex": "a914a1aa7dcdf2ae3e0c21cfb2487e5d45564bd61e1687", "addresses": ["3GRpxP1QducZprWvyUCGks57TZUzEnm1p4"], "asm": "OP_HASH160 a1aa7dcdf2ae3e0c21cfb2487e5d45564bd61e16 OP_EQUAL", "type": "scripthash"}, "value": 0.127302, "n": 0}], "hex": "0100000001018b81322741c85b106e922e4c77613cd48dc6b66f5477d7a10a1f155ee8762c010000006a47304402207a2493f8d79d5c7743fcf9e540e0aec2fdb2e558843d401a7da29b18ab99ea47022053dd530e22d4624366f8f4ca0402d1c1315df0dece3d9d4dc24ee75d58c609220121024c5ef3b73b4cded021a9db05a8e657a60ee799aa8404769512862a049f9f1a8effffffff01583fc2000000000017a914a1aa7dcdf2ae3e0c21cfb2487e5d45564bd61e168700000000", "vin": [{"sequence": 4294967295, "scriptSig": {"hex": "47304402207a2493f8d79d5c7743fcf9e540e0aec2fdb2e558843d401a7da29b18ab99ea47022053dd530e22d4624366f8f4ca0402d1c1315df0dece3d9d4dc24ee75d58c609220121024c5ef3b73b4cded021a9db05a8e657a60ee799aa8404769512862a049f9f1a8e", "asm": "304402207a2493f8d79d5c7743fcf9e540e0aec2fdb2e558843d401a7da29b18ab99ea47022053dd530e22d4624366f8f4ca0402d1c1315df0dece3d9d4dc24ee75d58c60922[ALL] 024c5ef3b73b4cded021a9db05a8e657a60ee799aa8404769512862a049f9f1a8e"}, "vout": 1, "txid": "2c76e85e151f0aa1d777546fb6c68dd43c61774c2e926e105bc8412732818b01"}], "txid": "190c4e15afa4dc445a8cf368bdcf02db4058b0b4e9275638df0f780896400823", "blocktime": 1537872018, "version": 1, "confirmations": 11489, "time": 1537872018, "locktime": 0, "vsize": 189, "size": 189}