{"hash": "be5aa7878462abebec96dd15f86e34f7d477f6b50d7f01215f3e46418b01fdfd", "blockhash": "0000000000000000000baef3f32e3676a92c3b2e5da21b426e4f302fc371ce76", "vout": [{"scriptPubKey": {"reqSigs": 1, "hex": "76a91430a042016390c107cb5513c13a9962c091f7782288ac", "addresses": ["15S7R7on2PfbQCvWqog5G95ukcpMFaoLpR"], "asm": "OP_DUP OP_HASH160 30a042016390c107cb5513c13a9962c091f77822 OP_EQUALVERIFY OP_CHECKSIG", "type": "pubkeyhash"}, "value": 0.01412, "n": 0}, {"scriptPubKey": {"reqSigs": 1, "hex": "a914604deeef1eba3a2879e9a235857f59775e56853b87", "addresses": ["3AUE9rz3bGGh1Ed2Z8oHgVYCfpUFHTRNj4"], "asm": "OP_HASH160 604deeef1eba3a2879e9a235857f59775e56853b OP_EQUAL", "type": "scripthash"}, "value": 15.33148791, "n": 1}], "hex": "02000000000101078a4c9e2ea821a048c18a77a8b549c7f39e59f92446b02aceb95fef3f6a79d00100000017160014cdee80e465b99460dfcab50f862b3436ab9a433dfdffffff02a08b1500000000001976a91430a042016390c107cb5513c13a9962c091f7782288ac77fe615b0000000017a914604deeef1eba3a2879e9a235857f59775e56853b8702483045022100bc6d52c7a1e772e366989c4af71eda414b68a4c2aeb904d18491f7bacfc602f8022057eb0d3d60c6599332da9de781a033d9ffca95bf4630c0fe13cabd178a55cf36012103d528e8fa097dd27aaa8542bfba7eab063263fd0e188a28b75d8aa87e0facbb1d17490800", "vin": [{"txinwitness": ["3045022100bc6d52c7a1e772e366989c4af71eda414b68a4c2aeb904d18491f7bacfc602f8022057eb0d3d60c6599332da9de781a033d9ffca95bf4630c0fe13cabd178a55cf3601", "03d528e8fa097dd27aaa8542bfba7eab063263fd0e188a28b75d8aa87e0facbb1d"], "sequence": 4294967293, "scriptSig": {"hex": "160014cdee80e465b99460dfcab50f862b3436ab9a433d", "asm": "0014cdee80e465b99460dfcab50f862b3436ab9a433d"}, "vout": 1, "txid": "d0796a3fef5fb9ce2ab04624f9599ef3c749b5a8778ac148a021a82e9e4c8a07"}], "txid": "190fc71090ffdc967f6b4ec922b7d9560747fcdb0fde0d88567f441eddcf5c1c", "blocktime": 1537876114, "version": 2, "confirmations": 11460, "time": 1537876114, "locktime": 542999, "vsize": 168, "size": 250}