{"hash": "e075585292f54fd7228a00b73c6e0f3e9841c108424430f0fdf58f5d78ccdac3", "blockhash": "0000000000000000001cda96e906b7601b7a6fb1a3b62bca570a9e5d8f4b3de1", "vout": [{"scriptPubKey": {"reqSigs": 1, "hex": "00147f43cac92cad83b6abd5c956ebaadfca7531ce6e", "addresses": ["bc1q0apu4jfv4kpmd274e9twh2klef6nrnnw3ve0jl"], "asm": "0 7f43cac92cad83b6abd5c956ebaadfca7531ce6e", "type": "witness_v0_keyhash"}, "value": 0.00135852, "n": 0}, {"scriptPubKey": {"reqSigs": 1, "hex": "a9142a87b4c90f3a797854298169e4e6285c442bc27887", "addresses": ["35Ztsdd2wmHtyu1cuaHySFiV4W7zR36HGS"], "asm": "OP_HASH160 2a87b4c90f3a797854298169e4e6285c442bc278 OP_EQUAL", "type": "scripthash"}, "value": 0.01126, "n": 1}], "hex": "01000000000101c3fedd85895faae84ad848c344be438c75df48f2824fd617e4f774685cd93d460000000000ffffffff02ac120200000000001600147f43cac92cad83b6abd5c956ebaadfca7531ce6e702e11000000000017a9142a87b4c90f3a797854298169e4e6285c442bc2788702483045022100bd1e46304bd8ca16b2e219ab5fd9cc6e391ae0d5d28b9e3742b0801cea9c4f990220711c18c06f519f21f1b93042ed1868db4a087ccb4b2831438f7fbaea71388d79012103fb59d1f99e4dd3c52f4eea3fe83d5ba494d829486f2d41ec834efc3893f159b300000000", "vin": [{"txinwitness": ["3045022100bd1e46304bd8ca16b2e219ab5fd9cc6e391ae0d5d28b9e3742b0801cea9c4f990220711c18c06f519f21f1b93042ed1868db4a087ccb4b2831438f7fbaea71388d7901", "03fb59d1f99e4dd3c52f4eea3fe83d5ba494d829486f2d41ec834efc3893f159b3"], "sequence": 4294967295, "scriptSig": {"hex": "", "asm": ""}, "vout": 0, "txid": "463dd95c6874f7e417d64f82f248df758c43be44c348d84ae8aa5f8985ddfec3"}], "txid": "191489236369113f7e55214d66bb7d05576c9f9c668d6ea9af5b98492a3f99de", "blocktime": 1537873282, "version": 1, "confirmations": 11484, "time": 1537873282, "locktime": 0, "vsize": 142, "size": 224}