{"hash": "191b1c741d86c9d0fb79a0b0af6d55577f045b01e2684ef00f723056356ffb88", "blockhash": "0000000000000000001e0dab787dd257d1dbfcb92a98c2207d5e1078be1f4165", "vout": [{"scriptPubKey": {"reqSigs": 1, "hex": "76a91477b19118f9db0191266e1aaf982228b18c318a1088ac", "addresses": ["1But8PJT1WefywEmrRf6zEcJuVqtGXrKHg"], "asm": "OP_DUP OP_HASH160 77b19118f9db0191266e1aaf982228b18c318a10 OP_EQUALVERIFY OP_CHECKSIG", "type": "pubkeyhash"}, "value": 0.053, "n": 0}, {"scriptPubKey": {"reqSigs": 1, "hex": "76a9149c47e15c27f631bff3d02c2eab36d743ee12c59488ac", "addresses": ["1FFLXFvFpqPRoS3i3V1GHFFpaVGutFZML1"], "asm": "OP_DUP OP_HASH160 9c47e15c27f631bff3d02c2eab36d743ee12c594 OP_EQUALVERIFY OP_CHECKSIG", "type": "pubkeyhash"}, "value": 0.003, "n": 1}], "hex": "0100000001851fc1742397a4cfee5d580c38899fb7903f083f5982e6ba96b4acef823ad04700000000fdfd0000473044022041cdc61d68033dcb43f74073ec3c89b9042d57c0915825d6a0beeeb830a57f1e02204bc8013b8776afec18c3b755e01261358fabcca19247b8fc0cc7b267604f42fe014830450221008d4d3f81d3e79092ba94dc22dbea596e6e343c2415040f48bbec2d4dd06671340220194f527d405664be69f38009a8087650860b833d9b5fdd5373fd13b8241edf5a014c69522102551ecd379bac7fe3374df7b50478301a26d34dfd4094d909ec6f9b0a40217d1c21029957e3f9811b7a135d002fc5db6b809a005e27275f77fe0627e02bb6b0e78f252102803ebec89d213736a44ea76899581002694fce1728bb0406278b420cb03ebf2953aeffffffff0220df5000000000001976a91477b19118f9db0191266e1aaf982228b18c318a1088ace0930400000000001976a9149c47e15c27f631bff3d02c2eab36d743ee12c59488ac00000000", "vin": [{"sequence": 4294967295, "scriptSig": {"hex": "00473044022041cdc61d68033dcb43f74073ec3c89b9042d57c0915825d6a0beeeb830a57f1e02204bc8013b8776afec18c3b755e01261358fabcca19247b8fc0cc7b267604f42fe014830450221008d4d3f81d3e79092ba94dc22dbea596e6e343c2415040f48bbec2d4dd06671340220194f527d405664be69f38009a8087650860b833d9b5fdd5373fd13b8241edf5a014c69522102551ecd379bac7fe3374df7b50478301a26d34dfd4094d909ec6f9b0a40217d1c21029957e3f9811b7a135d002fc5db6b809a005e27275f77fe0627e02bb6b0e78f252102803ebec89d213736a44ea76899581002694fce1728bb0406278b420cb03ebf2953ae", "asm": "0 3044022041cdc61d68033dcb43f74073ec3c89b9042d57c0915825d6a0beeeb830a57f1e02204bc8013b8776afec18c3b755e01261358fabcca19247b8fc0cc7b267604f42fe[ALL] 30450221008d4d3f81d3e79092ba94dc22dbea596e6e343c2415040f48bbec2d4dd06671340220194f527d405664be69f38009a8087650860b833d9b5fdd5373fd13b8241edf5a[ALL] 522102551ecd379bac7fe3374df7b50478301a26d34dfd4094d909ec6f9b0a40217d1c21029957e3f9811b7a135d002fc5db6b809a005e27275f77fe0627e02bb6b0e78f252102803ebec89d213736a44ea76899581002694fce1728bb0406278b420cb03ebf2953ae"}, "vout": 0, "txid": "47d03a82efacb496bae682593f083f90b79f89380c585deecfa4972374c11f85"}], "txid": "191b1c741d86c9d0fb79a0b0af6d55577f045b01e2684ef00f723056356ffb88", "blocktime": 1537872475, "version": 1, "confirmations": 11486, "time": 1537872475, "locktime": 0, "vsize": 374, "size": 374}