{"hash": "7ea32b848651f1e64d05f4234934a4d79ae1ca84a23c39d64e620385e801d5f2", "blockhash": "00000000000000000017f5eb5941039fbcee6240d03bc1f2f8e35350df66a1d8", "vout": [{"scriptPubKey": {"reqSigs": 1, "hex": "76a9149aa8ed1aaf13f8c2a0f57a33cebfc8f8d0544d2888ac", "addresses": ["1F6mRjskBg9gVdkpdZPyaQsqsY4i5Gp66q"], "asm": "OP_DUP OP_HASH160 9aa8ed1aaf13f8c2a0f57a33cebfc8f8d0544d28 OP_EQUALVERIFY OP_CHECKSIG", "type": "pubkeyhash"}, "value": 0.01527007, "n": 0}, {"scriptPubKey": {"reqSigs": 1, "hex": "a914a96d91b0b5fa797c193353462ac339b2e5e98db587", "addresses": ["3H8sNxWL7NSgou95aQzvRwAAcYPCmhcigr"], "asm": "OP_HASH160 a96d91b0b5fa797c193353462ac339b2e5e98db5 OP_EQUAL", "type": "scripthash"}, "value": 5.49862386, "n": 1}], "hex": "0200000000010101af6b53cc51c6d35ec2cdb5a1a27785c313be88814c214776fce47fc08db07a0100000017160014c4ce6710088ba89ae8c30b71575886d06cb5c89efeffffff02df4c1700000000001976a9149aa8ed1aaf13f8c2a0f57a33cebfc8f8d0544d2888acf23bc6200000000017a914a96d91b0b5fa797c193353462ac339b2e5e98db58702483045022100ff8394758b67761a3b4e8ea11f429a1f4022c34ad2f677a3773119a830f4a2d9022054e5d511830b5a1f6336f57265c0485b93b843d8b5d78314605e5aff08649f56012102fd15a05d54436133704fbf4a70bca1a252f2a2c3716b665faacb36163f02aa7acf480800", "vin": [{"txinwitness": ["3045022100ff8394758b67761a3b4e8ea11f429a1f4022c34ad2f677a3773119a830f4a2d9022054e5d511830b5a1f6336f57265c0485b93b843d8b5d78314605e5aff08649f5601", "02fd15a05d54436133704fbf4a70bca1a252f2a2c3716b665faacb36163f02aa7a"], "sequence": 4294967294, "scriptSig": {"hex": "160014c4ce6710088ba89ae8c30b71575886d06cb5c89e", "asm": "0014c4ce6710088ba89ae8c30b71575886d06cb5c89e"}, "vout": 1, "txid": "7ab08dc07fe4fc7647214c8188be13c38577a2a1b5cdc25ed3c651cc536baf01"}], "txid": "191cc4a3ead756788468d5df42cf391f7dfbb53e9638ec99a0302f6b034a3001", "blocktime": 1537874412, "version": 2, "confirmations": 11468, "time": 1537874412, "locktime": 542927, "vsize": 168, "size": 250}