{"hash": "192d06c6234da3aca11756dba6754e6d7da7031dfc266ceae8c2fae957deb578", "blockhash": "0000000000000000001f76057863aec43deb6fa401d9628bb513d65a8098bfab", "vout": [{"scriptPubKey": {"reqSigs": 1, "hex": "00140ff3099080177cf88c2d8f59762fca3f6c6dec7c", "addresses": ["bc1qplesnyyqza703rpd3avhvt728akxmmrukmq9rn"], "asm": "0 0ff3099080177cf88c2d8f59762fca3f6c6dec7c", "type": "witness_v0_keyhash"}, "value": 1.055e-05, "n": 0}, {"scriptPubKey": {"reqSigs": 1, "hex": "76a9144213c5eb785da6530fad9f94fda8985b4c70833288ac", "addresses": ["172PHXFYeLKooS5xxXVpAUZuWfSR6qzsfj"], "asm": "OP_DUP OP_HASH160 4213c5eb785da6530fad9f94fda8985b4c708332 OP_EQUALVERIFY OP_CHECKSIG", "type": "pubkeyhash"}, "value": 0.00535832, "n": 1}], "hex": "0100000001efdc1e10c966b73b32a57a0bc2ab33f8978488f8c4cc73ce72e6fc56ef846bbe860100006a47304402206d0242237942e2ff1a905d37a970aad46251b3f1570a894384953f7aed3172ee0220038a7301cd926b29c7948aa7f2f7752a87e4bef455665ed4d11bc4b24d6d4e28012102bcdbc24dbe0838cbd665428ecc03f6e9e5138ed3bd6badf69d02db594e5e2846ffffffff021f040000000000001600140ff3099080177cf88c2d8f59762fca3f6c6dec7c182d0800000000001976a9144213c5eb785da6530fad9f94fda8985b4c70833288ac00000000", "vin": [{"sequence": 4294967295, "scriptSig": {"hex": "47304402206d0242237942e2ff1a905d37a970aad46251b3f1570a894384953f7aed3172ee0220038a7301cd926b29c7948aa7f2f7752a87e4bef455665ed4d11bc4b24d6d4e28012102bcdbc24dbe0838cbd665428ecc03f6e9e5138ed3bd6badf69d02db594e5e2846", "asm": "304402206d0242237942e2ff1a905d37a970aad46251b3f1570a894384953f7aed3172ee0220038a7301cd926b29c7948aa7f2f7752a87e4bef455665ed4d11bc4b24d6d4e28[ALL] 02bcdbc24dbe0838cbd665428ecc03f6e9e5138ed3bd6badf69d02db594e5e2846"}, "vout": 390, "txid": "be6b84ef56fce672ce73ccc4f8888497f833abc20b7aa5323bb766c9101edcef"}], "txid": "192d06c6234da3aca11756dba6754e6d7da7031dfc266ceae8c2fae957deb578", "blocktime": 1537873891, "version": 1, "confirmations": 11478, "time": 1537873891, "locktime": 0, "vsize": 222, "size": 222}