{"hash": "713428362947dca69068d36f890177ce4496baee52ce4850334f516a42c15099", "blockhash": "0000000000000000001cda96e906b7601b7a6fb1a3b62bca570a9e5d8f4b3de1", "vout": [{"scriptPubKey": {"reqSigs": 1, "hex": "a914804a43718fdb84a1a3e0676f7f7b3ddac57e6fa887", "addresses": ["3DPMP1iPtJvuVk8QAenyoHMPp4FFQRuLDn"], "asm": "OP_HASH160 804a43718fdb84a1a3e0676f7f7b3ddac57e6fa8 OP_EQUAL", "type": "scripthash"}, "value": 0.0108, "n": 0}, {"scriptPubKey": {"reqSigs": 1, "hex": "76a9147e7b3506c4cd357f36f837265145de09a5ed7f1988ac", "addresses": ["1CXmjke8eTovQLJkY3gviyY22idDQFpwLq"], "asm": "OP_DUP OP_HASH160 7e7b3506c4cd357f36f837265145de09a5ed7f19 OP_EQUALVERIFY OP_CHECKSIG", "type": "pubkeyhash"}, "value": 0.35, "n": 1}, {"scriptPubKey": {"reqSigs": 1, "hex": "a9147b759b19f063925ef1feb1ca74b24f60c81a9ae487", "addresses": ["3CwovY8oUHmv1crr8uWhM4TzL4yoeSsqAz"], "asm": "OP_HASH160 7b759b19f063925ef1feb1ca74b24f60c81a9ae4 OP_EQUAL", "type": "scripthash"}, "value": 22.00827175, "n": 2}], "hex": "010000000001018a5df8fead573f65906ea77a6975a151b4253e9db8ba4e630588a743cf786d090100000017160014f86ab39884f82e684126e1e87aef50ebac1dd49bffffffff03c07a10000000000017a914804a43718fdb84a1a3e0676f7f7b3ddac57e6fa887c00e1602000000001976a9147e7b3506c4cd357f36f837265145de09a5ed7f1988ac27f52d830000000017a9147b759b19f063925ef1feb1ca74b24f60c81a9ae4870247304402206686d6d30754d28266b98dd5837117ec31ab0b4faf0ee2529ffb27cab9339304022076beb323ba2b18b30c20181bc79f62118b29859f7384c69fa6319aa934210a7a012103d22381018772b2fd8d3e3cd570790cba07f50716d9ea91593c1a2868c5e5cc3e00000000", "vin": [{"txinwitness": ["304402206686d6d30754d28266b98dd5837117ec31ab0b4faf0ee2529ffb27cab9339304022076beb323ba2b18b30c20181bc79f62118b29859f7384c69fa6319aa934210a7a01", "03d22381018772b2fd8d3e3cd570790cba07f50716d9ea91593c1a2868c5e5cc3e"], "sequence": 4294967295, "scriptSig": {"hex": "160014f86ab39884f82e684126e1e87aef50ebac1dd49b", "asm": "0014f86ab39884f82e684126e1e87aef50ebac1dd49b"}, "vout": 1, "txid": "096d78cf43a78805634ebab89d3e25b451a175697aa76e90653f57adfef85d8a"}], "txid": "192ef91b08f171fb18a74f71bd54fc4b2a39caab6465c5e9a91aa913d3aad4d0", "blocktime": 1537873282, "version": 1, "confirmations": 11484, "time": 1537873282, "locktime": 0, "vsize": 200, "size": 281}