{"hash": "1937b2ec9da319f2a7bda6ee562caf0aac0ffe4e7e34ae41e171c707acb38ab5", "blockhash": "00000000000000000024a2167bbff67b0be802c0b01cdd79e6331c2be6459f87", "vout": [{"scriptPubKey": {"reqSigs": 1, "hex": "a9140b00b6a6f80e319605fa3f5e9edd916639eb84bf87", "addresses": ["32hCDEAH4ELyb4U6qS27AyrcVYokt4JmuW"], "asm": "OP_HASH160 0b00b6a6f80e319605fa3f5e9edd916639eb84bf OP_EQUAL", "type": "scripthash"}, "value": 0.271995, "n": 0}], "hex": "010000000265e964efb9d7eb40f5ebb91143a4e2bee02cda946af2a05b369b72c057d93ba6010000006b483045022100b98f165c759812020c2d280fd0df6ebc980cb9d9699788886016b7f6ce01724a02207931a41cd130c1ae41581a277ed52958fd68c1a51d117eb13cef003b73fe3e3101210383caaf6c0b588a66482e67e91f1d1f28e280769d930ea57b71ac9e5548c0d2c8feffffffdb8a4af0de846c08c8d1502983d07d579ed1855ff32dbad73793e84a036fcadd010000006b483045022100ce6c3dabd0d184fff8271e71ee71d6c4562d4edaa8db1138ab6339200bc731b702201e610cc22b7a048cd0525c5f8e06dff7a337840c12265aeba513ed9143c57e5c0121030cc3b5d50c0f9e7cb0a0bf8d55d9edf42e8a416252a2b207ed2f916329083e7efeffffff010c089f010000000017a9140b00b6a6f80e319605fa3f5e9edd916639eb84bf8700000000", "vin": [{"sequence": 4294967294, "scriptSig": {"hex": "483045022100b98f165c759812020c2d280fd0df6ebc980cb9d9699788886016b7f6ce01724a02207931a41cd130c1ae41581a277ed52958fd68c1a51d117eb13cef003b73fe3e3101210383caaf6c0b588a66482e67e91f1d1f28e280769d930ea57b71ac9e5548c0d2c8", "asm": "3045022100b98f165c759812020c2d280fd0df6ebc980cb9d9699788886016b7f6ce01724a02207931a41cd130c1ae41581a277ed52958fd68c1a51d117eb13cef003b73fe3e31[ALL] 0383caaf6c0b588a66482e67e91f1d1f28e280769d930ea57b71ac9e5548c0d2c8"}, "vout": 1, "txid": "a63bd957c0729b365ba0f26a94da2ce0bee2a44311b9ebf540ebd7b9ef64e965"}, {"sequence": 4294967294, "scriptSig": {"hex": "483045022100ce6c3dabd0d184fff8271e71ee71d6c4562d4edaa8db1138ab6339200bc731b702201e610cc22b7a048cd0525c5f8e06dff7a337840c12265aeba513ed9143c57e5c0121030cc3b5d50c0f9e7cb0a0bf8d55d9edf42e8a416252a2b207ed2f916329083e7e", "asm": "3045022100ce6c3dabd0d184fff8271e71ee71d6c4562d4edaa8db1138ab6339200bc731b702201e610cc22b7a048cd0525c5f8e06dff7a337840c12265aeba513ed9143c57e5c[ALL] 030cc3b5d50c0f9e7cb0a0bf8d55d9edf42e8a416252a2b207ed2f916329083e7e"}, "vout": 1, "txid": "ddca6f034ae89337d7ba2df35f85d19e577dd0832950d1c8086c84def04a8adb"}], "txid": "1937b2ec9da319f2a7bda6ee562caf0aac0ffe4e7e34ae41e171c707acb38ab5", "blocktime": 1537870564, "version": 1, "confirmations": 11515, "time": 1537870564, "locktime": 0, "vsize": 338, "size": 338}