{"hash": "79b3511c7cfb96dac504fe973dcaf81b797becf76e9bb4c1eab433b1bc8cb91d", "blockhash": "0000000000000000001f76057863aec43deb6fa401d9628bb513d65a8098bfab", "vout": [{"scriptPubKey": {"reqSigs": 1, "hex": "76a914e6fa544d7499249503f0df2da96e7f0c9cf6244e88ac", "addresses": ["1N4JJJkvkL7FRVEbf125NUQCwEfB4m3Bz3"], "asm": "OP_DUP OP_HASH160 e6fa544d7499249503f0df2da96e7f0c9cf6244e OP_EQUALVERIFY OP_CHECKSIG", "type": "pubkeyhash"}, "value": 0.001025, "n": 0}, {"scriptPubKey": {"reqSigs": 1, "hex": "0014a006ac34a11c4894b4d4c18df3e00f97cb9254b1", "addresses": ["bc1q5qr2cd9pr3yffdx5cxxl8cq0jl9ey493cwgf3h"], "asm": "0 a006ac34a11c4894b4d4c18df3e00f97cb9254b1", "type": "witness_v0_keyhash"}, "value": 3.785e-05, "n": 1}], "hex": "010000000001017957d9705b759c9aeb7f61fdc31d9a52a68c548e15421e1651b02f405ed622b70000000017160014be15daf79b38340c2574d43bebe1fb30d823919bffffffff0264900100000000001976a914e6fa544d7499249503f0df2da96e7f0c9cf6244e88acc90e000000000000160014a006ac34a11c4894b4d4c18df3e00f97cb9254b102483045022100e070668d529e5b0d7b2adcb4c5cab069b440bb6436a270fd40f1d974bdc26c7b0220407e2e969e866eb41f2925f29aaee3485726f2cd0182ec7b2d260b863d9c667d01210308b523c7f2c5376080bdcd2896e66631a0f1530df8cb77035b773c38d720b53f00000000", "vin": [{"txinwitness": ["3045022100e070668d529e5b0d7b2adcb4c5cab069b440bb6436a270fd40f1d974bdc26c7b0220407e2e969e866eb41f2925f29aaee3485726f2cd0182ec7b2d260b863d9c667d01", "0308b523c7f2c5376080bdcd2896e66631a0f1530df8cb77035b773c38d720b53f"], "sequence": 4294967295, "scriptSig": {"hex": "160014be15daf79b38340c2574d43bebe1fb30d823919b", "asm": "0014be15daf79b38340c2574d43bebe1fb30d823919b"}, "vout": 0, "txid": "b722d65e402fb051161e42158e548ca6529a1dc3fd617feb9a9c755b70d95779"}], "txid": "19371a50afffbe9f91904fd6b738d571e6387f92392fdf18904bfaf719a466d8", "blocktime": 1537873891, "version": 1, "confirmations": 11478, "time": 1537873891, "locktime": 0, "vsize": 167, "size": 249}