{"hash": "193b98d509e63da123b44227d789ea2953101c477c25562a0f4b5b26751c6e12", "blockhash": "00000000000000000018f53835495a110e01622372bf6ae95dc86f2b0ab887b0", "vout": [{"scriptPubKey": {"reqSigs": 1, "hex": "76a914106b52e413a23cf4af08d2dd15e6854d3fb74ff988ac", "addresses": ["12VpP4KC3KiPQB2a9Mskifu8fJd3PrUCYf"], "asm": "OP_DUP OP_HASH160 106b52e413a23cf4af08d2dd15e6854d3fb74ff9 OP_EQUALVERIFY OP_CHECKSIG", "type": "pubkeyhash"}, "value": 0.29495867, "n": 0}], "hex": "010000000527380cbd578accd9a1651760b7227070d4d359a675fcf8da619192632abe7c37180000006a4730440220368bcbac7b9c87a89df3090a5ba40d9a517aa1343a183cf66168abc122e05f6f02201a8f38ec629d355ebd01d7e9b3e1b3e81da6473780f302d4b6d5d2b249d203b5012103b550b4a444752dc69b349055582bcb14f1fabea3a2d926ee72d9cdd0917daf29feffffffd2c20be013034f9962e7e01ad7a8fccbcd92cf01e377a33e4e7dedd3b0f67044180000006b483045022100d099a8a7b0eaff0912a954adfd8ea96e61b2f6afbae9de375e6e87bc2e1bc934022030a858ab5351a6dfd2dc986b03307354a4a80a34498e485d92abf438565814c1012103ec3e27a4344238a728ce264463130c8d15eb82b8243ca0125edd95e532d84a7efeffffffed9d938e245d40b2d01f6e98490fa196a47ffd5d692a8fca885b317cdc6cb26a050000006b48304502210092ebcfc8e0923c0cd343767506f3954aa239619ca11eaa1081dea9b4f86bf92702204bd04c7d870b94e6b4e2cbae43b52651c46e5a82d2a34ebb73b0ddcfa28f1aee01210390716c7fab17eec2313659c66e2044956f274bda131a2936e53d8256e488352ffeffffff65c283ea2a5314f0a66a19686baa4dfd0d9267881e786ec2b5d73441e653d1d5180000006a473044022027d9fa84db875bd20beafe86e877d2b2399a286e31a3728921aaf5357ba08e8202201fde3472f09e12263312b67ec924bc24cdb6e05dce9ff8e3c194cda8a05624bb012102082109531490691ff399a083c766f5cd2ed3bc320e1e2b9c1efdf6821867839bfeffffff9b352a0727afff4740d82488e384631970ce905980ead3a8f8390c4b8bb54af0070000006a473044022020beaa1bd366aeba5d3c669ff5a5306b0c7ddd88bb63d089147098ff36ca86b502207938bfc61c9a6a341175d37142a316c1b4073d859f9d17f5d7e87dac33bd9f1b01210234e3934871f94862ac85b5695f6674e7e87906ed40e9b087273f86a2af522e14feffffff013b12c201000000001976a914106b52e413a23cf4af08d2dd15e6854d3fb74ff988ac0e490800", "vin": [{"sequence": 4294967294, "scriptSig": {"hex": "4730440220368bcbac7b9c87a89df3090a5ba40d9a517aa1343a183cf66168abc122e05f6f02201a8f38ec629d355ebd01d7e9b3e1b3e81da6473780f302d4b6d5d2b249d203b5012103b550b4a444752dc69b349055582bcb14f1fabea3a2d926ee72d9cdd0917daf29", "asm": "30440220368bcbac7b9c87a89df3090a5ba40d9a517aa1343a183cf66168abc122e05f6f02201a8f38ec629d355ebd01d7e9b3e1b3e81da6473780f302d4b6d5d2b249d203b5[ALL] 03b550b4a444752dc69b349055582bcb14f1fabea3a2d926ee72d9cdd0917daf29"}, "vout": 24, "txid": "377cbe2a63929161daf8fc75a659d3d4707022b7601765a1d9cc8a57bd0c3827"}, {"sequence": 4294967294, "scriptSig": {"hex": "483045022100d099a8a7b0eaff0912a954adfd8ea96e61b2f6afbae9de375e6e87bc2e1bc934022030a858ab5351a6dfd2dc986b03307354a4a80a34498e485d92abf438565814c1012103ec3e27a4344238a728ce264463130c8d15eb82b8243ca0125edd95e532d84a7e", "asm": "3045022100d099a8a7b0eaff0912a954adfd8ea96e61b2f6afbae9de375e6e87bc2e1bc934022030a858ab5351a6dfd2dc986b03307354a4a80a34498e485d92abf438565814c1[ALL] 03ec3e27a4344238a728ce264463130c8d15eb82b8243ca0125edd95e532d84a7e"}, "vout": 24, "txid": "4470f6b0d3ed7d4e3ea377e301cf92cdcbfca8d71ae0e762994f0313e00bc2d2"}, {"sequence": 4294967294, "scriptSig": {"hex": "48304502210092ebcfc8e0923c0cd343767506f3954aa239619ca11eaa1081dea9b4f86bf92702204bd04c7d870b94e6b4e2cbae43b52651c46e5a82d2a34ebb73b0ddcfa28f1aee01210390716c7fab17eec2313659c66e2044956f274bda131a2936e53d8256e488352f", "asm": "304502210092ebcfc8e0923c0cd343767506f3954aa239619ca11eaa1081dea9b4f86bf92702204bd04c7d870b94e6b4e2cbae43b52651c46e5a82d2a34ebb73b0ddcfa28f1aee[ALL] 0390716c7fab17eec2313659c66e2044956f274bda131a2936e53d8256e488352f"}, "vout": 5, "txid": "6ab26cdc7c315b88ca8f2a695dfd7fa496a10f49986e1fd0b2405d248e939ded"}, {"sequence": 4294967294, "scriptSig": {"hex": "473044022027d9fa84db875bd20beafe86e877d2b2399a286e31a3728921aaf5357ba08e8202201fde3472f09e12263312b67ec924bc24cdb6e05dce9ff8e3c194cda8a05624bb012102082109531490691ff399a083c766f5cd2ed3bc320e1e2b9c1efdf6821867839b", "asm": "3044022027d9fa84db875bd20beafe86e877d2b2399a286e31a3728921aaf5357ba08e8202201fde3472f09e12263312b67ec924bc24cdb6e05dce9ff8e3c194cda8a05624bb[ALL] 02082109531490691ff399a083c766f5cd2ed3bc320e1e2b9c1efdf6821867839b"}, "vout": 24, "txid": "d5d153e64134d7b5c26e781e8867920dfd4daa6b68196aa6f014532aea83c265"}, {"sequence": 4294967294, "scriptSig": {"hex": "473044022020beaa1bd366aeba5d3c669ff5a5306b0c7ddd88bb63d089147098ff36ca86b502207938bfc61c9a6a341175d37142a316c1b4073d859f9d17f5d7e87dac33bd9f1b01210234e3934871f94862ac85b5695f6674e7e87906ed40e9b087273f86a2af522e14", "asm": "3044022020beaa1bd366aeba5d3c669ff5a5306b0c7ddd88bb63d089147098ff36ca86b502207938bfc61c9a6a341175d37142a316c1b4073d859f9d17f5d7e87dac33bd9f1b[ALL] 0234e3934871f94862ac85b5695f6674e7e87906ed40e9b087273f86a2af522e14"}, "vout": 7, "txid": "f04ab58b4b0c39f8a8d3ea805990ce70196384e38824d84047ffaf27072a359b"}], "txid": "193b98d509e63da123b44227d789ea2953101c477c25562a0f4b5b26751c6e12", "blocktime": 1537870928, "version": 1, "confirmations": 11512, "time": 1537870928, "locktime": 542990, "vsize": 781, "size": 781}