{"hash": "193f4e2fc9d53d671158db996998f6cf8209db89d6b5ab4ef69788512b6ff5a5", "blockhash": "0000000000000000000e13cef7c366c0283d82e591d1acd082e914b08063cdf1", "vout": [{"scriptPubKey": {"reqSigs": 1, "hex": "76a91428ce94b4584b68c7369059595f4a9ca29a3e7ead88ac", "addresses": ["14imWAXHETJh2MXwK6Er1HkT7tCfNBEZt2"], "asm": "OP_DUP OP_HASH160 28ce94b4584b68c7369059595f4a9ca29a3e7ead OP_EQUALVERIFY OP_CHECKSIG", "type": "pubkeyhash"}, "value": 0.00570801, "n": 0}], "hex": "0100000004b035c1fc4f28c89e48141359e5082e2e7af7ca5f921957019027ee785720901a000000006b483045022100e61c9b16599c644492a30ab1aab0cf1ceaf58ae29b6db29e9048299af389eed20220108860cc87bd5b0c05dfdfa545e8194beaf003c210caa99d4be6fd6436da00230121039f3d7506ab04182e67ecf66b81d655bdcf643e7ecda2bbeb73494747e97f3dcbffffffff344227e29fee60cd8eb7c71ad870562814a9ef3f827b53e84c36a8e61c36fc1c000000006b483045022100b8aaa84c17445f2bb9487de28249f4020ed614fc23dc6a48750747211dbc9cda022050e061c36a1ff53008b075393e36f80cc88cf368864f7656341d45962eeedd400121038b3a1257376f58ac141d11a2d62f51bc57542ac54c7bd76d1af2be273f3e841effffffff3abc91853e26b7038059e420fc5db7a4b0edc49d7e0155d3d37e93cc62631a1e000000006b483045022100a90e35429801354575819f856f2eb8b2ff98d6837bd8856474b5aa75de1126f30220406db45e4449ecdf98116575e95aaa0d69a0b0015270e198b4a0df7e7844e402012103529985a14f23ddc6bee92f186ec64d84ed06ca8abe857092a664ac5bb9d3610affffffff4b3c65169a1322723cd060030c4e053b1c3dda74f096c0d1771a1f4a427b8a20000000006b483045022100d80ab1d7e56d392e1aa6aa376611c98a8f85f6fc46357b7cda7c722940e33e4c0220788287640318177e146affedbecef9365389f4f0e99f0b0ed434d84280c4f3620121039343ef80e40d5f2d3f6a24066b9a2705fdaf7f1cb66bddd24d51be2c1603de81ffffffff01b1b50800000000001976a91428ce94b4584b68c7369059595f4a9ca29a3e7ead88ac00000000", "vin": [{"sequence": 4294967295, "scriptSig": {"hex": "483045022100e61c9b16599c644492a30ab1aab0cf1ceaf58ae29b6db29e9048299af389eed20220108860cc87bd5b0c05dfdfa545e8194beaf003c210caa99d4be6fd6436da00230121039f3d7506ab04182e67ecf66b81d655bdcf643e7ecda2bbeb73494747e97f3dcb", "asm": "3045022100e61c9b16599c644492a30ab1aab0cf1ceaf58ae29b6db29e9048299af389eed20220108860cc87bd5b0c05dfdfa545e8194beaf003c210caa99d4be6fd6436da0023[ALL] 039f3d7506ab04182e67ecf66b81d655bdcf643e7ecda2bbeb73494747e97f3dcb"}, "vout": 0, "txid": "1a90205778ee2790015719925fcaf77a2e2e08e5591314489ec8284ffcc135b0"}, {"sequence": 4294967295, "scriptSig": {"hex": "483045022100b8aaa84c17445f2bb9487de28249f4020ed614fc23dc6a48750747211dbc9cda022050e061c36a1ff53008b075393e36f80cc88cf368864f7656341d45962eeedd400121038b3a1257376f58ac141d11a2d62f51bc57542ac54c7bd76d1af2be273f3e841e", "asm": "3045022100b8aaa84c17445f2bb9487de28249f4020ed614fc23dc6a48750747211dbc9cda022050e061c36a1ff53008b075393e36f80cc88cf368864f7656341d45962eeedd40[ALL] 038b3a1257376f58ac141d11a2d62f51bc57542ac54c7bd76d1af2be273f3e841e"}, "vout": 0, "txid": "1cfc361ce6a8364ce8537b823fefa914285670d81ac7b78ecd60ee9fe2274234"}, {"sequence": 4294967295, "scriptSig": {"hex": "483045022100a90e35429801354575819f856f2eb8b2ff98d6837bd8856474b5aa75de1126f30220406db45e4449ecdf98116575e95aaa0d69a0b0015270e198b4a0df7e7844e402012103529985a14f23ddc6bee92f186ec64d84ed06ca8abe857092a664ac5bb9d3610a", "asm": "3045022100a90e35429801354575819f856f2eb8b2ff98d6837bd8856474b5aa75de1126f30220406db45e4449ecdf98116575e95aaa0d69a0b0015270e198b4a0df7e7844e402[ALL] 03529985a14f23ddc6bee92f186ec64d84ed06ca8abe857092a664ac5bb9d3610a"}, "vout": 0, "txid": "1e1a6362cc937ed3d355017e9dc4edb0a4b75dfc20e4598003b7263e8591bc3a"}, {"sequence": 4294967295, "scriptSig": {"hex": "483045022100d80ab1d7e56d392e1aa6aa376611c98a8f85f6fc46357b7cda7c722940e33e4c0220788287640318177e146affedbecef9365389f4f0e99f0b0ed434d84280c4f3620121039343ef80e40d5f2d3f6a24066b9a2705fdaf7f1cb66bddd24d51be2c1603de81", "asm": "3045022100d80ab1d7e56d392e1aa6aa376611c98a8f85f6fc46357b7cda7c722940e33e4c0220788287640318177e146affedbecef9365389f4f0e99f0b0ed434d84280c4f362[ALL] 039343ef80e40d5f2d3f6a24066b9a2705fdaf7f1cb66bddd24d51be2c1603de81"}, "vout": 0, "txid": "208a7b424a1f1a77d1c096f074da3d1c3b054e0c0360d03c7222139a16653c4b"}], "txid": "193f4e2fc9d53d671158db996998f6cf8209db89d6b5ab4ef69788512b6ff5a5", "blocktime": 1537871767, "version": 1, "confirmations": 11491, "time": 1537871767, "locktime": 0, "vsize": 636, "size": 636}