{"hash": "194761e17e4478385bae40ae47764959590e2662452d0f9572a7f44959c0a1c4", "blockhash": "0000000000000000001f0ddff1eddb255c1121bcd4da4f1bc9a0da00cae72433", "vout": [{"scriptPubKey": {"reqSigs": 1, "hex": "a9141e22e09c78d93862b8a5cfdebf10357d0ced234c87", "addresses": ["34SMyd2ntKtisW4wUL55aTHyhqLFHPiNLM"], "asm": "OP_HASH160 1e22e09c78d93862b8a5cfdebf10357d0ced234c OP_EQUAL", "type": "scripthash"}, "value": 0.0005, "n": 0}, {"scriptPubKey": {"reqSigs": 1, "hex": "76a914b03081512f1748f1d6bdecc66593cf33721c059388ac", "addresses": ["1H4c2xc7Tvc2CWjX5Z3p2wTtMDmHDs9Bkk"], "asm": "OP_DUP OP_HASH160 b03081512f1748f1d6bdecc66593cf33721c0593 OP_EQUALVERIFY OP_CHECKSIG", "type": "pubkeyhash"}, "value": 0.0118, "n": 1}], "hex": "0100000001b2cb663d04d8e20dd9c906e9095f0b864b88181074ffd192c9a7111ad5c5e8ac020000009200483045022100a1e4e9b2f1f5afa164ace77f745132a715a6d7fe3fa4692cddef6840e37ab07f0220183e97537ebc85a69723deaef50c46a8c4eb6be8a99b58e37832523f84db0bf90147512102b479654800c6ef5129da3acfd460c102d32e6d2554fd460198eda6ce5abab6f921023c8c4f501e86e6d9ddd71b1d85eac4378692f1d6acf866c6ee38e08cf4106de852aeffffffff0250c300000000000017a9141e22e09c78d93862b8a5cfdebf10357d0ced234c8760011200000000001976a914b03081512f1748f1d6bdecc66593cf33721c059388ac00000000", "vin": [{"sequence": 4294967295, "scriptSig": {"hex": "00483045022100a1e4e9b2f1f5afa164ace77f745132a715a6d7fe3fa4692cddef6840e37ab07f0220183e97537ebc85a69723deaef50c46a8c4eb6be8a99b58e37832523f84db0bf90147512102b479654800c6ef5129da3acfd460c102d32e6d2554fd460198eda6ce5abab6f921023c8c4f501e86e6d9ddd71b1d85eac4378692f1d6acf866c6ee38e08cf4106de852ae", "asm": "0 3045022100a1e4e9b2f1f5afa164ace77f745132a715a6d7fe3fa4692cddef6840e37ab07f0220183e97537ebc85a69723deaef50c46a8c4eb6be8a99b58e37832523f84db0bf9[ALL] 512102b479654800c6ef5129da3acfd460c102d32e6d2554fd460198eda6ce5abab6f921023c8c4f501e86e6d9ddd71b1d85eac4378692f1d6acf866c6ee38e08cf4106de852ae"}, "vout": 2, "txid": "ace8c5d51a11a7c992d1ff741018884b860b5f09e906c9d90de2d8043d66cbb2"}], "txid": "194761e17e4478385bae40ae47764959590e2662452d0f9572a7f44959c0a1c4", "blocktime": 1537872018, "version": 1, "confirmations": 11489, "time": 1537872018, "locktime": 0, "vsize": 263, "size": 263}