{"hash": "5666ac389b64a4a17b5114587215b224df073c586ec5f57505da4194c7cb9f57", "blockhash": "0000000000000000001f0ddff1eddb255c1121bcd4da4f1bc9a0da00cae72433", "vout": [{"scriptPubKey": {"reqSigs": 1, "hex": "a914f9e42a98a05ea4c84fa43a36d9d5ce7c67c0e47787", "addresses": ["3QUKWb5PiSRTRWrc9FVuUxb9KEf3rdUDvL"], "asm": "OP_HASH160 f9e42a98a05ea4c84fa43a36d9d5ce7c67c0e477 OP_EQUAL", "type": "scripthash"}, "value": 0.04949448, "n": 0}, {"scriptPubKey": {"reqSigs": 1, "hex": "a914cf1a2fac9c889407671684da60418a57fc7f336687", "addresses": ["3La5AhmJSE7wVVFqw2bH2BiV8JNxXiAyYG"], "asm": "OP_HASH160 cf1a2fac9c889407671684da60418a57fc7f3366 OP_EQUAL", "type": "scripthash"}, "value": 0.21537484, "n": 1}], "hex": "020000000001018dd8971f9a92175a2da1d5dc1f29189ae806723368162f8782b02561a963d3f2000000001716001458b69ebe0fc132ede7e68c4997193efba022b359feffffff02c8854b000000000017a914f9e42a98a05ea4c84fa43a36d9d5ce7c67c0e47787cca248010000000017a914cf1a2fac9c889407671684da60418a57fc7f3366870247304402201798da61204eb317e715d977b73ae12cf33b3d357918bf79fec2d8ea96849838022022ef9d68e6ab1a0b71bb4fb7803da905203d5b339cf08176575b70030ea78b22012103e33a609f5ffafc29f570eb084cee5f90dee2e9578acc7a50ccc476ff525ee9af11490800", "vin": [{"txinwitness": ["304402201798da61204eb317e715d977b73ae12cf33b3d357918bf79fec2d8ea96849838022022ef9d68e6ab1a0b71bb4fb7803da905203d5b339cf08176575b70030ea78b2201", "03e33a609f5ffafc29f570eb084cee5f90dee2e9578acc7a50ccc476ff525ee9af"], "sequence": 4294967294, "scriptSig": {"hex": "16001458b69ebe0fc132ede7e68c4997193efba022b359", "asm": "001458b69ebe0fc132ede7e68c4997193efba022b359"}, "vout": 0, "txid": "f2d363a96125b082872f1668337206e89a18291fdcd5a12d5a17929a1f97d88d"}], "txid": "1949064d6cb6447857a125d2969f64f86f3c3014b56638d982c78cef418ca581", "blocktime": 1537872018, "version": 2, "confirmations": 11489, "time": 1537872018, "locktime": 542993, "vsize": 166, "size": 247}