{"hash": "194fd3ec68b1fbabfcfb01311fa6ce84b9e7b1c4eda82dffd81c5a2ee6f6d772", "blockhash": "000000000000000000022b45ed06c6f4ccd3cf7fb5ba4856ebd2e58215665228", "vout": [{"scriptPubKey": {"reqSigs": 1, "hex": "76a9140a28e28bfea0b1e7395cae1b5a3f1f21503d2a5088ac", "addresses": ["1vijexC9aZuR5kzP8nSkMn9MyptnF89w3"], "asm": "OP_DUP OP_HASH160 0a28e28bfea0b1e7395cae1b5a3f1f21503d2a50 OP_EQUALVERIFY OP_CHECKSIG", "type": "pubkeyhash"}, "value": 0.00304, "n": 0}, {"scriptPubKey": {"reqSigs": 1, "hex": "76a914989672101fa625d655b7a7a5b64b067a119e98f388ac", "addresses": ["1EuowJLTGUEDC62KxcykAgZ41kQnCyq13L"], "asm": "OP_DUP OP_HASH160 989672101fa625d655b7a7a5b64b067a119e98f3 OP_EQUALVERIFY OP_CHECKSIG", "type": "pubkeyhash"}, "value": 0.01236585, "n": 1}], "hex": "01000000016b268d8ae507ae46049c8b841c2f96061fcf35857ac39d7463bac8676d224d53010000006a473044022014d0e9264bae55e9feff37fa203bf01136294aab3db89c27a0338013ac169d160220539f1ca6169e0f218c884c720182b4d92536b32802a4ff9ec65495e9e400ae84012103c4cc45fcdafde670e40a18c67aef2399c3885c51fc722f368e98a839fba4ce02ffffffff0280a30400000000001976a9140a28e28bfea0b1e7395cae1b5a3f1f21503d2a5088ac69de1200000000001976a914989672101fa625d655b7a7a5b64b067a119e98f388ac00000000", "vin": [{"sequence": 4294967295, "scriptSig": {"hex": "473044022014d0e9264bae55e9feff37fa203bf01136294aab3db89c27a0338013ac169d160220539f1ca6169e0f218c884c720182b4d92536b32802a4ff9ec65495e9e400ae84012103c4cc45fcdafde670e40a18c67aef2399c3885c51fc722f368e98a839fba4ce02", "asm": "3044022014d0e9264bae55e9feff37fa203bf01136294aab3db89c27a0338013ac169d160220539f1ca6169e0f218c884c720182b4d92536b32802a4ff9ec65495e9e400ae84[ALL] 03c4cc45fcdafde670e40a18c67aef2399c3885c51fc722f368e98a839fba4ce02"}, "vout": 1, "txid": "534d226d67c8ba63749dc37a8535cf1f06962f1c848b9c0446ae07e58a8d266b"}], "txid": "194fd3ec68b1fbabfcfb01311fa6ce84b9e7b1c4eda82dffd81c5a2ee6f6d772", "blocktime": 1537869901, "version": 1, "confirmations": 11524, "time": 1537869901, "locktime": 0, "vsize": 225, "size": 225}