{"hash": "43e6de133f5e6b4e63472b868c69ecd0769ad9d9201e932a45d3ddb3598f2b4c", "blockhash": "0000000000000000001f76057863aec43deb6fa401d9628bb513d65a8098bfab", "vout": [{"scriptPubKey": {"reqSigs": 1, "hex": "76a914087949df961694b5d6b42d0015cc0ad88e33007388ac", "addresses": ["1mohp6qrherjkuz6PHuAukVVF3EKdigfL"], "asm": "OP_DUP OP_HASH160 087949df961694b5d6b42d0015cc0ad88e330073 OP_EQUALVERIFY OP_CHECKSIG", "type": "pubkeyhash"}, "value": 2.194e-05, "n": 0}, {"scriptPubKey": {"reqSigs": 1, "hex": "a91476a576bf1e18001f5d34efd41da66f86e44d0ac187", "addresses": ["3CWMsovaztEeoXuxptEXcJUpCpfBzz9g5N"], "asm": "OP_HASH160 76a576bf1e18001f5d34efd41da66f86e44d0ac1 OP_EQUAL", "type": "scripthash"}, "value": 0.01030988, "n": 1}], "hex": "02000000000101b31205940dd26269e521b00527beade94012bfe2f40405724f2ce107c8d420a300000000171600141417a0f2fecf119e2042941822568bfed6689134feffffff0292080000000000001976a914087949df961694b5d6b42d0015cc0ad88e33007388ac4cbb0f000000000017a91476a576bf1e18001f5d34efd41da66f86e44d0ac18702483045022100e6b08f403d5e178503065e9b8c6a88891f81a0db78f94f06f340d7ec8a0a77eb022050d93679f0d615d7577a89a3c2505534ee9a902cb01c6b4a88cc708dcb76c03401210332bc2dc438c8d48f64f3a019625e3d8562b39562e913af93b8cb9fbd506366d114490800", "vin": [{"txinwitness": ["3045022100e6b08f403d5e178503065e9b8c6a88891f81a0db78f94f06f340d7ec8a0a77eb022050d93679f0d615d7577a89a3c2505534ee9a902cb01c6b4a88cc708dcb76c03401", "0332bc2dc438c8d48f64f3a019625e3d8562b39562e913af93b8cb9fbd506366d1"], "sequence": 4294967294, "scriptSig": {"hex": "1600141417a0f2fecf119e2042941822568bfed6689134", "asm": "00141417a0f2fecf119e2042941822568bfed6689134"}, "vout": 0, "txid": "a320d4c807e12c4f720504f4e2bf1240e9adbe2705b021e56962d20d940512b3"}], "txid": "194fa3037e9a03d66b378693fbf23857a157fc4ad6631c5685e024e5d3955bbc", "blocktime": 1537873891, "version": 2, "confirmations": 11479, "time": 1537873891, "locktime": 542996, "vsize": 168, "size": 250}