{"hash": "f84b86d0076b474b0eb53400c55fe2564e76d4a8b445a4ad945161965f4c11a6", "blockhash": "00000000000000000017f5eb5941039fbcee6240d03bc1f2f8e35350df66a1d8", "vout": [{"scriptPubKey": {"reqSigs": 1, "hex": "76a914ee30721367f90687e61acf6e3254ec09502dad4c88ac", "addresses": ["1NiRriW4vxinDoZT4EhFs57j2jMrEmmQQx"], "asm": "OP_DUP OP_HASH160 ee30721367f90687e61acf6e3254ec09502dad4c OP_EQUALVERIFY OP_CHECKSIG", "type": "pubkeyhash"}, "value": 0.00013858, "n": 0}, {"scriptPubKey": {"reqSigs": 1, "hex": "a91427982cde8f4e7ca8286459f8dbe7c9edceeeb90087", "addresses": ["35JNaMA3Kuf1cjoKQqo1TERi7y4tHeGDfh"], "asm": "OP_HASH160 27982cde8f4e7ca8286459f8dbe7c9edceeeb900 OP_EQUAL", "type": "scripthash"}, "value": 0.00998988, "n": 1}], "hex": "0200000000010301ba074a491893464e430f4da2c26524e672311b78adf33bb32549423599071c160000001716001484d6fef54b64f6e4fe33097746d42f8c38d605c2feffffff211858cbcd5fd86546ded204f71acbf4fee0ffa8d722e13cb5bdd297e80e1e3a2300000017160014cb008f115467a052e5cb3e2ea31978572256073efefffffffaf40f892bee529df19fa9f3e95c2a2130002178415a473cf8e47641055e617e00000000171600145142b2ef6fd580f09007b7785e1e043405671c5ffeffffff0222360000000000001976a914ee30721367f90687e61acf6e3254ec09502dad4c88ac4c3e0f000000000017a91427982cde8f4e7ca8286459f8dbe7c9edceeeb9008702483045022100fd8da46a732ff7f3cda6333293252c9653775eafcf017d725bd0fd2716bceafb022035c75b06abdc7599b785f3de40e9bbcd759937ccd32ce66d36d9219c50ceb1df0121021c18233f44bf5fa6ed95b0d3335f08148925de849b3831427137aea756055fb102483045022100d55bd08f1c414eaa26b7159990d96658d4c9866d6ee2f40c13a0ddcee54c991c022022a6f473b1f888b3469cfe0263e4f3d9e233912632bb63e92b326b3cbbf6a08e012103f884d1d3c1d8b0f11d15c15fd02d4470cee7d25aaa14867df67d71151622fa2c02483045022100ed9464665f3f055cec5fc9160dd92ab88c9197547dd8f4cf11a1d1dca038865202204528ac40f9f87cc0ea082db410e96d600e64587702a0dbe525a319db29dee53801210327547d76bd3f7b31d97e8137c41ec9bc36db39792b7cdce982a1a5e558f1b09e15490800", "vin": [{"txinwitness": ["3045022100fd8da46a732ff7f3cda6333293252c9653775eafcf017d725bd0fd2716bceafb022035c75b06abdc7599b785f3de40e9bbcd759937ccd32ce66d36d9219c50ceb1df01", "021c18233f44bf5fa6ed95b0d3335f08148925de849b3831427137aea756055fb1"], "sequence": 4294967294, "scriptSig": {"hex": "16001484d6fef54b64f6e4fe33097746d42f8c38d605c2", "asm": "001484d6fef54b64f6e4fe33097746d42f8c38d605c2"}, "vout": 22, "txid": "1c079935424925b33bf3ad781b3172e62465c2a24d0f434e469318494a07ba01"}, {"txinwitness": ["3045022100d55bd08f1c414eaa26b7159990d96658d4c9866d6ee2f40c13a0ddcee54c991c022022a6f473b1f888b3469cfe0263e4f3d9e233912632bb63e92b326b3cbbf6a08e01", "03f884d1d3c1d8b0f11d15c15fd02d4470cee7d25aaa14867df67d71151622fa2c"], "sequence": 4294967294, "scriptSig": {"hex": "160014cb008f115467a052e5cb3e2ea31978572256073e", "asm": "0014cb008f115467a052e5cb3e2ea31978572256073e"}, "vout": 35, "txid": "3a1e0ee897d2bdb53ce122d7a8ffe0fef4cb1af704d2de4665d85fcdcb581821"}, {"txinwitness": ["3045022100ed9464665f3f055cec5fc9160dd92ab88c9197547dd8f4cf11a1d1dca038865202204528ac40f9f87cc0ea082db410e96d600e64587702a0dbe525a319db29dee53801", "0327547d76bd3f7b31d97e8137c41ec9bc36db39792b7cdce982a1a5e558f1b09e"], "sequence": 4294967294, "scriptSig": {"hex": "1600145142b2ef6fd580f09007b7785e1e043405671c5f", "asm": "00145142b2ef6fd580f09007b7785e1e043405671c5f"}, "vout": 0, "txid": "7e615e054176e4f83c475a4178210030212a5ce9f3a99ff19d52ee2b890ff4fa"}], "txid": "195c9f9a2d68fb67f3ae3ffc45e771bb0a23783683dff2a6fc6d6da52213a062", "blocktime": 1537874412, "version": 2, "confirmations": 11468, "time": 1537874412, "locktime": 542997, "vsize": 350, "size": 594}