{"hash": "195d7172f16237edc37426c72d898f98d0cc9ee0d8bf5f7ce590a2722eb652bb", "blockhash": "0000000000000000001e0dab787dd257d1dbfcb92a98c2207d5e1078be1f4165", "vout": [{"scriptPubKey": {"reqSigs": 1, "hex": "a91498e85ccc85819a9a060b0479eab8ced3890d308387", "addresses": ["3FdWzXmH6W93SvYjZb6DB8D7jo8DBMgidF"], "asm": "OP_HASH160 98e85ccc85819a9a060b0479eab8ced3890d3083 OP_EQUAL", "type": "scripthash"}, "value": 0.0004, "n": 0}, {"scriptPubKey": {"reqSigs": 1, "hex": "76a9146890bee7eac9957acf9608151932070575ceb8a688ac", "addresses": ["1AXtg4Txds2VjS1ExcajkGfYZBgbe9QW7D"], "asm": "OP_DUP OP_HASH160 6890bee7eac9957acf9608151932070575ceb8a6 OP_EQUALVERIFY OP_CHECKSIG", "type": "pubkeyhash"}, "value": 0.00036658, "n": 1}], "hex": "0100000001bf8a2be2e622f9e0ad835230e3be7adeed337697c0e2991ce58f8fca8c915a7c000000006a47304402207f83bd2455b46af5e111fb0684b0bbd53b9c7919edc64b41a8b450c9dff8ea720220332aaee6d07dc355916296a2d181c3d4c421148820b119522e32fcd05c06bd9a012102eecd1e800552c3f0d477da3bd63ca9fbfe2c1f6fd7a64b88a2bcc8d9d7173df8ffffffff02409c00000000000017a91498e85ccc85819a9a060b0479eab8ced3890d308387328f0000000000001976a9146890bee7eac9957acf9608151932070575ceb8a688ac00000000", "vin": [{"sequence": 4294967295, "scriptSig": {"hex": "47304402207f83bd2455b46af5e111fb0684b0bbd53b9c7919edc64b41a8b450c9dff8ea720220332aaee6d07dc355916296a2d181c3d4c421148820b119522e32fcd05c06bd9a012102eecd1e800552c3f0d477da3bd63ca9fbfe2c1f6fd7a64b88a2bcc8d9d7173df8", "asm": "304402207f83bd2455b46af5e111fb0684b0bbd53b9c7919edc64b41a8b450c9dff8ea720220332aaee6d07dc355916296a2d181c3d4c421148820b119522e32fcd05c06bd9a[ALL] 02eecd1e800552c3f0d477da3bd63ca9fbfe2c1f6fd7a64b88a2bcc8d9d7173df8"}, "vout": 0, "txid": "7c5a918cca8f8fe51c99e2c0977633edde7abee3305283ade0f922e6e22b8abf"}], "txid": "195d7172f16237edc37426c72d898f98d0cc9ee0d8bf5f7ce590a2722eb652bb", "blocktime": 1537872475, "version": 1, "confirmations": 11486, "time": 1537872475, "locktime": 0, "vsize": 223, "size": 223}