{"hash": "195e37fe113a5e9c2e5accc6dbcea05e58c3f3ded40fdc630c230dfa2dbd8433", "blockhash": "0000000000000000000e13cef7c366c0283d82e591d1acd082e914b08063cdf1", "vout": [{"scriptPubKey": {"reqSigs": 1, "hex": "76a91476173daff5dcb0b9ade9cf3ee411ca4de695370488ac", "addresses": ["1BmQaSuTtsX5d5Y5DgPXfcZxNdNAhG6qgj"], "asm": "OP_DUP OP_HASH160 76173daff5dcb0b9ade9cf3ee411ca4de6953704 OP_EQUALVERIFY OP_CHECKSIG", "type": "pubkeyhash"}, "value": 0.00030395, "n": 0}, {"scriptPubKey": {"type": "nulldata", "hex": "6a146f6d6e69000000000000001f0000015d3ef79800", "asm": "OP_RETURN 6f6d6e69000000000000001f0000015d3ef79800"}, "value": 0.0, "n": 1}, {"scriptPubKey": {"reqSigs": 1, "hex": "76a914a25dec4d0011064ef106a983c39c7a540699f22088ac", "addresses": ["1FoWyxwPXuj4C6abqwhjDWdz6D4PZgYRjA"], "asm": "OP_DUP OP_HASH160 a25dec4d0011064ef106a983c39c7a540699f220 OP_EQUALVERIFY OP_CHECKSIG", "type": "pubkeyhash"}, "value": 5.46e-06, "n": 2}], "hex": "010000000116a103702d51b19a3ec3c3ffe990b50aead1e25e08e1af929a3a5bdab2d88685020000006b483045022100ac41d859b4bb382e0d185554b62459c094e628469ef82c7a3efdd5073e5000ca02205a803e9e5ce176e02e245d4269c1389948e6072b26a46a4e92277e59f8ff8cc8012102249c8963a498389b1f56cbe52d55a7e1368500d3659f2caed21f1bbf1b6450bbfeffffff03bb760000000000001976a91476173daff5dcb0b9ade9cf3ee411ca4de695370488ac0000000000000000166a146f6d6e69000000000000001f0000015d3ef7980022020000000000001976a914a25dec4d0011064ef106a983c39c7a540699f22088acf7480800", "vin": [{"sequence": 4294967294, "scriptSig": {"hex": "483045022100ac41d859b4bb382e0d185554b62459c094e628469ef82c7a3efdd5073e5000ca02205a803e9e5ce176e02e245d4269c1389948e6072b26a46a4e92277e59f8ff8cc8012102249c8963a498389b1f56cbe52d55a7e1368500d3659f2caed21f1bbf1b6450bb", "asm": "3045022100ac41d859b4bb382e0d185554b62459c094e628469ef82c7a3efdd5073e5000ca02205a803e9e5ce176e02e245d4269c1389948e6072b26a46a4e92277e59f8ff8cc8[ALL] 02249c8963a498389b1f56cbe52d55a7e1368500d3659f2caed21f1bbf1b6450bb"}, "vout": 2, "txid": "8586d8b2da5b3a9a92afe1085ee2d1ea0ab590e9ffc3c33e9ab1512d7003a116"}], "txid": "195e37fe113a5e9c2e5accc6dbcea05e58c3f3ded40fdc630c230dfa2dbd8433", "blocktime": 1537871767, "version": 1, "confirmations": 11495, "time": 1537871767, "locktime": 542967, "vsize": 257, "size": 257}