{"hash": "1960cbc23ac68e3b80142d55e44aa4c1fe54f2fd059618b13a568a32d837b1aa", "blockhash": "0000000000000000000baef3f32e3676a92c3b2e5da21b426e4f302fc371ce76", "vout": [{"scriptPubKey": {"reqSigs": 1, "hex": "a914ce910e56957d347d0e4129af6cd63d2056d0cfcc87", "addresses": ["3LXEtjEazptRCExeip531HrzLenqrt9r1a"], "asm": "OP_HASH160 ce910e56957d347d0e4129af6cd63d2056d0cfcc OP_EQUAL", "type": "scripthash"}, "value": 0.02674, "n": 0}, {"scriptPubKey": {"reqSigs": 1, "hex": "a914e370231feecbfc25e2e2423a5a79bf79bfdca59887", "addresses": ["3NRbeX3vD5VaVE4TDU9ivCDsEf7NPPte6J"], "asm": "OP_HASH160 e370231feecbfc25e2e2423a5a79bf79bfdca598 OP_EQUAL", "type": "scripthash"}, "value": 10.17133614, "n": 1}], "hex": "0100000001cb58a863ea6cf3cf5cf2fbd142e415b82496136f5f88ef3133ab44062dd4b39901000000da00483045022100f5417b79b92f7ba953df9aff190e46491ab118bb356636051ee6d9c463ee130b0220597fc3a23bc86b88497d06d363d046b18a998ae2011f8e44b9f52f2f14e62aa601473044022054e87978a7a4bc4e576d3f2c6428c8aac02b9bb2dc39fea7056717e417d96b3202206fd31533c26b4ca5c6055c88ff6a74ce711eb6093700cb8b9902fc8c11f8db58014752210327881b6abce6535553a3ce21fad12a7d74fd237ce7c4cd270a267162344e3082210256141f8eb687f5a68c5cc65054652dc25116fa285e44d72b44368827ffe77d9a52aeffffffff0250cd28000000000017a914ce910e56957d347d0e4129af6cd63d2056d0cfcc872e3aa03c0000000017a914e370231feecbfc25e2e2423a5a79bf79bfdca5988700000000", "vin": [{"sequence": 4294967295, "scriptSig": {"hex": "00483045022100f5417b79b92f7ba953df9aff190e46491ab118bb356636051ee6d9c463ee130b0220597fc3a23bc86b88497d06d363d046b18a998ae2011f8e44b9f52f2f14e62aa601473044022054e87978a7a4bc4e576d3f2c6428c8aac02b9bb2dc39fea7056717e417d96b3202206fd31533c26b4ca5c6055c88ff6a74ce711eb6093700cb8b9902fc8c11f8db58014752210327881b6abce6535553a3ce21fad12a7d74fd237ce7c4cd270a267162344e3082210256141f8eb687f5a68c5cc65054652dc25116fa285e44d72b44368827ffe77d9a52ae", "asm": "0 3045022100f5417b79b92f7ba953df9aff190e46491ab118bb356636051ee6d9c463ee130b0220597fc3a23bc86b88497d06d363d046b18a998ae2011f8e44b9f52f2f14e62aa6[ALL] 3044022054e87978a7a4bc4e576d3f2c6428c8aac02b9bb2dc39fea7056717e417d96b3202206fd31533c26b4ca5c6055c88ff6a74ce711eb6093700cb8b9902fc8c11f8db58[ALL] 52210327881b6abce6535553a3ce21fad12a7d74fd237ce7c4cd270a267162344e3082210256141f8eb687f5a68c5cc65054652dc25116fa285e44d72b44368827ffe77d9a52ae"}, "vout": 1, "txid": "99b3d42d0644ab3331ef885f6f139624b815e442d1fbf25ccff36cea63a858cb"}], "txid": "1960cbc23ac68e3b80142d55e44aa4c1fe54f2fd059618b13a568a32d837b1aa", "blocktime": 1537876114, "version": 1, "confirmations": 11460, "time": 1537876114, "locktime": 0, "vsize": 333, "size": 333}