{"hash": "196105dbaf4e1d8212440ecc61541317fc00c24278c29c32f55dadb7fb2aac80", "blockhash": "0000000000000000001f76057863aec43deb6fa401d9628bb513d65a8098bfab", "vout": [{"scriptPubKey": {"reqSigs": 1, "hex": "a914f4c564bba354b7428cf2d658181ba567bd79d77f87", "addresses": ["3Q1FGVPsVuo6gqtkdp7qHBJi26QJNEt5FW"], "asm": "OP_HASH160 f4c564bba354b7428cf2d658181ba567bd79d77f OP_EQUAL", "type": "scripthash"}, "value": 0.0022664, "n": 0}, {"scriptPubKey": {"reqSigs": 1, "hex": "76a91459fd4e41bb674230cb1adcab831a0ae2c53ded7988ac", "addresses": ["19Cpb4Xdu5uyKMcsbdJyieAcRg5Fdcd84M"], "asm": "OP_DUP OP_HASH160 59fd4e41bb674230cb1adcab831a0ae2c53ded79 OP_EQUALVERIFY OP_CHECKSIG", "type": "pubkeyhash"}, "value": 0.00048567, "n": 1}], "hex": "0100000001efdc1e10c966b73b32a57a0bc2ab33f8978488f8c4cc73ce72e6fc56ef846bbe450200006b483045022100f72884a2db9e4e97665021c7eb7095913e83c6e705b74f84ffe62cedc77a823c0220180552db58a1c414e0339afe1fdd90d9c2a99014f5780007734fcf7128249140012103b753dfc81d5e05d517d3acb9d25193285604a5ca853a7675d79d5f069411b150ffffffff02507503000000000017a914f4c564bba354b7428cf2d658181ba567bd79d77f87b7bd0000000000001976a91459fd4e41bb674230cb1adcab831a0ae2c53ded7988ac00000000", "vin": [{"sequence": 4294967295, "scriptSig": {"hex": "483045022100f72884a2db9e4e97665021c7eb7095913e83c6e705b74f84ffe62cedc77a823c0220180552db58a1c414e0339afe1fdd90d9c2a99014f5780007734fcf7128249140012103b753dfc81d5e05d517d3acb9d25193285604a5ca853a7675d79d5f069411b150", "asm": "3045022100f72884a2db9e4e97665021c7eb7095913e83c6e705b74f84ffe62cedc77a823c0220180552db58a1c414e0339afe1fdd90d9c2a99014f5780007734fcf7128249140[ALL] 03b753dfc81d5e05d517d3acb9d25193285604a5ca853a7675d79d5f069411b150"}, "vout": 581, "txid": "be6b84ef56fce672ce73ccc4f8888497f833abc20b7aa5323bb766c9101edcef"}], "txid": "196105dbaf4e1d8212440ecc61541317fc00c24278c29c32f55dadb7fb2aac80", "blocktime": 1537873891, "version": 1, "confirmations": 11478, "time": 1537873891, "locktime": 0, "vsize": 224, "size": 224}