{"hash": "5b1e31187a6e3d14d75fec873f832ff9dc36ffa5945f210f2824741ca0bbc482", "blockhash": "0000000000000000001e0dab787dd257d1dbfcb92a98c2207d5e1078be1f4165", "vout": [{"scriptPubKey": {"reqSigs": 1, "hex": "a9141988a27e3c2df4ddee7fad5a2303d086179b2a3087", "addresses": ["3422VtS7UtCvXYxoXMVp6eZupR252z85oC"], "asm": "OP_HASH160 1988a27e3c2df4ddee7fad5a2303d086179b2a30 OP_EQUAL", "type": "scripthash"}, "value": 3.46136356, "n": 0}, {"scriptPubKey": {"reqSigs": 1, "hex": "76a9142f979a731a6b8d5721df630dab7e8e5ab2d0dec588ac", "addresses": ["15LeNbm1PHcHrXcjUxJEvXMrxgLZbGfAAC"], "asm": "OP_DUP OP_HASH160 2f979a731a6b8d5721df630dab7e8e5ab2d0dec5 OP_EQUALVERIFY OP_CHECKSIG", "type": "pubkeyhash"}, "value": 0.0002, "n": 1}], "hex": "01000000000101c1a9b3f162c8ec2b2b1dd25a092a86a79d8998094ef7278681d7b0f754608413010000002322002065d416c48a8072e0ac51c2d111eb194f009caef0332446c1bf2097316cf07fa9ffffffff02249fa1140000000017a9141988a27e3c2df4ddee7fad5a2303d086179b2a3087204e0000000000001976a9142f979a731a6b8d5721df630dab7e8e5ab2d0dec588ac0400483045022100aa9ead83d74c531d7d57abdf8deabfbf8a14dcbf453431d86789c1e8ade360fe022017f0787e97db19db4071740392cde5c7d42f0d38cbe7b9dee7a010eabceea2b801473044022020306d6db5d03327dd30862a07b97933cd1a8531a67217bab90d3a844af545f1022003bfcd3778e467380b584d57259c7e3ecbc9ab43adb09c67b1da67d1532a02460169522102f44abcf9e23c9a460da309ccca56c619c04eed3bde2c2cff5e7d78fbcd980b9c2103c9443cf3047bb6c2c82f1b0c44c36109cdc3d0d601d16d1189a1602bf8d1a0a02103bfe867059274412412e088af5572b92168c2ef495cfe6c9b7a753a009eb37c4853ae00000000", "vin": [{"txinwitness": ["", "3045022100aa9ead83d74c531d7d57abdf8deabfbf8a14dcbf453431d86789c1e8ade360fe022017f0787e97db19db4071740392cde5c7d42f0d38cbe7b9dee7a010eabceea2b801", "3044022020306d6db5d03327dd30862a07b97933cd1a8531a67217bab90d3a844af545f1022003bfcd3778e467380b584d57259c7e3ecbc9ab43adb09c67b1da67d1532a024601", "522102f44abcf9e23c9a460da309ccca56c619c04eed3bde2c2cff5e7d78fbcd980b9c2103c9443cf3047bb6c2c82f1b0c44c36109cdc3d0d601d16d1189a1602bf8d1a0a02103bfe867059274412412e088af5572b92168c2ef495cfe6c9b7a753a009eb37c4853ae"], "sequence": 4294967295, "scriptSig": {"hex": "22002065d416c48a8072e0ac51c2d111eb194f009caef0332446c1bf2097316cf07fa9", "asm": "002065d416c48a8072e0ac51c2d111eb194f009caef0332446c1bf2097316cf07fa9"}, "vout": 1, "txid": "13846054f7b0d7818627f74e0998899da7862a095ad21d2b2becc862f1b3a9c1"}], "txid": "196262001b8e46021c3f2ce5fbdc81749f3686b44e8b1cdbf486a1016f8268f5", "blocktime": 1537872475, "version": 1, "confirmations": 11486, "time": 1537872475, "locktime": 0, "vsize": 216, "size": 407}