{"hash": "196ae47a5e3f90dbb17ec2631f817a381d94cf37be0a5e7d669f2f73dc1865c9", "blockhash": "00000000000000000004ffacab907a6b429b9a5745fa0b75af4234bf69dd7176", "vout": [{"scriptPubKey": {"reqSigs": 1, "hex": "76a914371da19083a87c01029cf60ed58bf3615700b8ed88ac", "addresses": ["162RfMfsmgo2EFn8CSMHMA5mDaLdvSMWEY"], "asm": "OP_DUP OP_HASH160 371da19083a87c01029cf60ed58bf3615700b8ed OP_EQUALVERIFY OP_CHECKSIG", "type": "pubkeyhash"}, "value": 0.03851148, "n": 0}, {"scriptPubKey": {"reqSigs": 1, "hex": "76a9145ac5cdf64d7f4716424dbfc7a83d517ccd859d2188ac", "addresses": ["19GxmxyZBaaD4Fbt9796Gf3K79ybT6x4Ms"], "asm": "OP_DUP OP_HASH160 5ac5cdf64d7f4716424dbfc7a83d517ccd859d21 OP_EQUALVERIFY OP_CHECKSIG", "type": "pubkeyhash"}, "value": 0.00089747, "n": 1}], "hex": "0100000001676d20f5284336f753d3929a37e99703c41f5fb3b6ef4c1b28b36f15e363b1fd010000006b483045022100e69c36b95afc0305cea3f13a73fe0215ae1ebe2ee183279d878de3e8b51b770f02203a0dd1ff09607739420cff8533aa00e2897b5e55436245b18c0012f59c2212200121022a473c8a0bcbecaec4c2fa541766af3d8d677231c05a09a9bb5871c2fb69b6b3ffffffff028cc33a00000000001976a914371da19083a87c01029cf60ed58bf3615700b8ed88ac935e0100000000001976a9145ac5cdf64d7f4716424dbfc7a83d517ccd859d2188ac00000000", "vin": [{"sequence": 4294967295, "scriptSig": {"hex": "483045022100e69c36b95afc0305cea3f13a73fe0215ae1ebe2ee183279d878de3e8b51b770f02203a0dd1ff09607739420cff8533aa00e2897b5e55436245b18c0012f59c2212200121022a473c8a0bcbecaec4c2fa541766af3d8d677231c05a09a9bb5871c2fb69b6b3", "asm": "3045022100e69c36b95afc0305cea3f13a73fe0215ae1ebe2ee183279d878de3e8b51b770f02203a0dd1ff09607739420cff8533aa00e2897b5e55436245b18c0012f59c221220[ALL] 022a473c8a0bcbecaec4c2fa541766af3d8d677231c05a09a9bb5871c2fb69b6b3"}, "vout": 1, "txid": "fdb163e3156fb3281b4cefb6b35f1fc40397e9379a92d353f7364328f5206d67"}], "txid": "196ae47a5e3f90dbb17ec2631f817a381d94cf37be0a5e7d669f2f73dc1865c9", "blocktime": 1537875543, "version": 1, "confirmations": 11464, "time": 1537875543, "locktime": 0, "vsize": 226, "size": 226}