{"hash": "196f5176bcbb2d164357b017297d47fc7b5af631f3b37a40af8b658cd523d7e0", "blockhash": "00000000000000000018f53835495a110e01622372bf6ae95dc86f2b0ab887b0", "vout": [{"scriptPubKey": {"reqSigs": 1, "hex": "a914db551700d8a1827cbea9453be69fe45590e3b96b87", "addresses": ["3Mgjqhe7QcVxYer46afs3VnvFF39yycSkm"], "asm": "OP_HASH160 db551700d8a1827cbea9453be69fe45590e3b96b OP_EQUAL", "type": "scripthash"}, "value": 0.02971859, "n": 0}], "hex": "01000000010f37d22382d4ece67ca3fec16c2c554af19ec69f9a70d073f58c1be24ae7ef2b010000006b4830450221009eec3bef0a99f897f062c3bfdb7286bc798a6de17a38e4fb6d19b5cc41c572bf02207178756aee7f20a3d91e869e5d2fa8d1814f82beaa5a12d15e8126bfa59b424d012102c7263d8d97dda05736d0ffe0042e2ea0906bc89ae2d94f9f62fcc975dea6eb9effffffff01d3582d000000000017a914db551700d8a1827cbea9453be69fe45590e3b96b8700000000", "vin": [{"sequence": 4294967295, "scriptSig": {"hex": "4830450221009eec3bef0a99f897f062c3bfdb7286bc798a6de17a38e4fb6d19b5cc41c572bf02207178756aee7f20a3d91e869e5d2fa8d1814f82beaa5a12d15e8126bfa59b424d012102c7263d8d97dda05736d0ffe0042e2ea0906bc89ae2d94f9f62fcc975dea6eb9e", "asm": "30450221009eec3bef0a99f897f062c3bfdb7286bc798a6de17a38e4fb6d19b5cc41c572bf02207178756aee7f20a3d91e869e5d2fa8d1814f82beaa5a12d15e8126bfa59b424d[ALL] 02c7263d8d97dda05736d0ffe0042e2ea0906bc89ae2d94f9f62fcc975dea6eb9e"}, "vout": 1, "txid": "2befe74ae21b8cf573d0709a9fc69ef14a552c6cc1fea37ce6ecd48223d2370f"}], "txid": "196f5176bcbb2d164357b017297d47fc7b5af631f3b37a40af8b658cd523d7e0", "blocktime": 1537870928, "version": 1, "confirmations": 11512, "time": 1537870928, "locktime": 0, "vsize": 190, "size": 190}