{"hash": "9cc19a6e86a36cb9d3e16b3092223ae0f78a15e607d7904e13fe6830865fe6a7", "blockhash": "0000000000000000001e0dab787dd257d1dbfcb92a98c2207d5e1078be1f4165", "vout": [{"scriptPubKey": {"reqSigs": 1, "hex": "a9143d11fb80c3f01aed7438df10280df3f96a633e8587", "addresses": ["37FvggndyX5ufd43xBxji9oE1xmS84YFyM"], "asm": "OP_HASH160 3d11fb80c3f01aed7438df10280df3f96a633e85 OP_EQUAL", "type": "scripthash"}, "value": 0.81605396, "n": 0}, {"scriptPubKey": {"reqSigs": 1, "hex": "76a91425b7856ed7bd20fda4315d583f0541050e1cd76688ac", "addresses": ["14SRrNoF28bmMCDXkvryrjHxK8Y6Qp9o8o"], "asm": "OP_DUP OP_HASH160 25b7856ed7bd20fda4315d583f0541050e1cd766 OP_EQUALVERIFY OP_CHECKSIG", "type": "pubkeyhash"}, "value": 0.21540158, "n": 1}, {"scriptPubKey": {"reqSigs": 1, "hex": "76a914cebb2851a9c7cfe2582c12ecaf7f3ff4383d1dc088ac", "addresses": ["1Kr6QSydW9bFQG1mXiPNNu6WpJGmUa9i1g"], "asm": "OP_DUP OP_HASH160 cebb2851a9c7cfe2582c12ecaf7f3ff4383d1dc0 OP_EQUALVERIFY OP_CHECKSIG", "type": "pubkeyhash"}, "value": 202.89784854, "n": 2}], "hex": "02000000000109fcfc4157389e88448a812f5f62dbec590854a9401ae6ade7b9acb60e1d4004e7640000006b483045022100a9b5e0c9f998ef32b018093f78dc72146b0808d9a306d6daf1e530509a58ffe10220520c6f9f2e8798689405d37791cc8832d6d560893c0e0965626752c1523da7b101210391df6789ebe65621f4107073e454c59ded9c5173190b3c313848e9de8d2d3cebffffffff23ad0732d510d12e1f1b7c06a82274d3aba6cac08e045bbf59466b08bd729d1e000000006a47304402207902b7a5394d81505b2691a628dedeadf7c5bb2fb0e3f8cfd634bdda4706727c02203947185c076b5125947f0866b69d99538bb4bf4a2fc27a464450ddecd5ac2b79012103361c9d106c0a6a5f77558fbc5bdc8e58e107471e29c05d55274553b751f6362affffffff028593080687be1b6d51ce1c165aed7545b9f9a793d52e5fa63afa43c361b9fb190000006b483045022100e86d39dcd5b805fc5eae620eee7153ac95b8c9a49027b9518795e9f60941124f022011c497683bfc3632acd6b808a94af4b3211d0bacb4059ad8dc0772b513ed8957012103f4fe846af732e15c961df582551118ce3b706dda399e74041ac7e0be1a3d08a8ffffffff028593080687be1b6d51ce1c165aed7545b9f9a793d52e5fa63afa43c361b9fb210000006a4730440220180d8b89fec5f676ea2cc414aec5c43accddb4112207579f52046ea6f8dceae5022077bfe9311e8f511c9965db4ef8612a47a235140222a58300e835fbc705218cbb012103a343d6a2f2c1a4bb630d0df2ac212ca48e50e9f1c0502114c9520d42b26d9bf8ffffffffe4320b26ccbb169214574a590b21a6f313ba07cc28f6ee419b27d7d2025fed97000000006b483045022100f8a1668b15f4fd14d067d7ab8391eac2af173bb748d76ecbc4c31af5b8c219890220382d1702ccaed160ee7a523cc53a77841f018a11ef514755fa6b6e0e730fb83a012102e9ee6399810b16612ed706c19fcc97b6e595d9595647645c07090782f63b5dc8ffffffffac41959401adbb60996b338d69de5719001882a018c1b46892eea0b9082870e1420000006a47304402201a352d23fd4040ef366514a93871a86b946f38964c46f58baae382d4dd8c56f902200fd2e4f661f31f94a49f7bbf8e1a3daa76b732f014b46cecbc3aa4bd6de42388012102892762fee0b62bf7801c0313e5991fb7b0459fa999f32b5aa7be8627b6a7d963ffffffff5f06b88e6acd92174c2dbe9bc2005a94b50af54816d831c057b0a4a2880176961b000000171600143db8c454e63684dccda0678e7245487decdc847bffffffff9f0905014e62c4213e65d1aa4d9f6cc911ecba4fbb47f0356a60ee216ff86561320000006a4730440220665c6c11b2fecb28e4ac7ac0fb69c67905d473dde1072b009353f6128e1c810602204d05290eb4038e78adebbe64812259c49e912dcbb36c6978e90b7d6fa6f36f3b0121029be0bad5bda7e6b13fb481dab1752f52cc72052188e31fa66e5d91ec3d6f39e4ffffffff5ffbcb3fa5eab027b00d6e4e8729dbe29044309da97145c84344a0080d97cbbe080000006b4830450221008710726d54a295ce0271ae05c36ac4a9bc5a7d25686463c0bd8e8897e1108601022036703ce8975d363bd686ce9c223cbc9f44bc3e075f8992ff123ece4a641e4f71012103786af4b32017ec640dba2d2a7e1fd5aa4a231a658e4cbc114d51c031576e19bcffffffff031433dd040000000017a9143d11fb80c3f01aed7438df10280df3f96a633e85873ead4801000000001976a91425b7856ed7bd20fda4315d583f0541050e1cd76688ac168c5db9040000001976a914cebb2851a9c7cfe2582c12ecaf7f3ff4383d1dc088ac00000000000002483045022100cd1bc3fbbd84e94efc3f267c3052f9a39cc8f122d08b93a2aef273e28ba456300220096cbbf10bf8ed3554f450e5198d42055ec299659859832ceac5cb90f6d77875012102fd9db4f7d6813bc702e7120632e60f3ddd944830154c1cc418b1f5c62250b94c000000000000", "vin": [{"sequence": 4294967295, "scriptSig": {"hex": "483045022100a9b5e0c9f998ef32b018093f78dc72146b0808d9a306d6daf1e530509a58ffe10220520c6f9f2e8798689405d37791cc8832d6d560893c0e0965626752c1523da7b101210391df6789ebe65621f4107073e454c59ded9c5173190b3c313848e9de8d2d3ceb", "asm": "3045022100a9b5e0c9f998ef32b018093f78dc72146b0808d9a306d6daf1e530509a58ffe10220520c6f9f2e8798689405d37791cc8832d6d560893c0e0965626752c1523da7b1[ALL] 0391df6789ebe65621f4107073e454c59ded9c5173190b3c313848e9de8d2d3ceb"}, "vout": 100, "txid": "e704401d0eb6acb9e7ade61a40a9540859ecdb625f2f818a44889e385741fcfc"}, {"sequence": 4294967295, "scriptSig": {"hex": "47304402207902b7a5394d81505b2691a628dedeadf7c5bb2fb0e3f8cfd634bdda4706727c02203947185c076b5125947f0866b69d99538bb4bf4a2fc27a464450ddecd5ac2b79012103361c9d106c0a6a5f77558fbc5bdc8e58e107471e29c05d55274553b751f6362a", "asm": "304402207902b7a5394d81505b2691a628dedeadf7c5bb2fb0e3f8cfd634bdda4706727c02203947185c076b5125947f0866b69d99538bb4bf4a2fc27a464450ddecd5ac2b79[ALL] 03361c9d106c0a6a5f77558fbc5bdc8e58e107471e29c05d55274553b751f6362a"}, "vout": 0, "txid": "1e9d72bd086b4659bf5b048ec0caa6abd37422a8067c1b1f2ed110d53207ad23"}, {"sequence": 4294967295, "scriptSig": {"hex": "483045022100e86d39dcd5b805fc5eae620eee7153ac95b8c9a49027b9518795e9f60941124f022011c497683bfc3632acd6b808a94af4b3211d0bacb4059ad8dc0772b513ed8957012103f4fe846af732e15c961df582551118ce3b706dda399e74041ac7e0be1a3d08a8", "asm": "3045022100e86d39dcd5b805fc5eae620eee7153ac95b8c9a49027b9518795e9f60941124f022011c497683bfc3632acd6b808a94af4b3211d0bacb4059ad8dc0772b513ed8957[ALL] 03f4fe846af732e15c961df582551118ce3b706dda399e74041ac7e0be1a3d08a8"}, "vout": 25, "txid": "fbb961c343fa3aa65f2ed593a7f9b94575ed5a161cce516d1bbe870608938502"}, {"sequence": 4294967295, "scriptSig": {"hex": "4730440220180d8b89fec5f676ea2cc414aec5c43accddb4112207579f52046ea6f8dceae5022077bfe9311e8f511c9965db4ef8612a47a235140222a58300e835fbc705218cbb012103a343d6a2f2c1a4bb630d0df2ac212ca48e50e9f1c0502114c9520d42b26d9bf8", "asm": "30440220180d8b89fec5f676ea2cc414aec5c43accddb4112207579f52046ea6f8dceae5022077bfe9311e8f511c9965db4ef8612a47a235140222a58300e835fbc705218cbb[ALL] 03a343d6a2f2c1a4bb630d0df2ac212ca48e50e9f1c0502114c9520d42b26d9bf8"}, "vout": 33, "txid": "fbb961c343fa3aa65f2ed593a7f9b94575ed5a161cce516d1bbe870608938502"}, {"sequence": 4294967295, "scriptSig": {"hex": "483045022100f8a1668b15f4fd14d067d7ab8391eac2af173bb748d76ecbc4c31af5b8c219890220382d1702ccaed160ee7a523cc53a77841f018a11ef514755fa6b6e0e730fb83a012102e9ee6399810b16612ed706c19fcc97b6e595d9595647645c07090782f63b5dc8", "asm": "3045022100f8a1668b15f4fd14d067d7ab8391eac2af173bb748d76ecbc4c31af5b8c219890220382d1702ccaed160ee7a523cc53a77841f018a11ef514755fa6b6e0e730fb83a[ALL] 02e9ee6399810b16612ed706c19fcc97b6e595d9595647645c07090782f63b5dc8"}, "vout": 0, "txid": "97ed5f02d2d7279b41eef628cc07ba13f3a6210b594a57149216bbcc260b32e4"}, {"sequence": 4294967295, "scriptSig": {"hex": "47304402201a352d23fd4040ef366514a93871a86b946f38964c46f58baae382d4dd8c56f902200fd2e4f661f31f94a49f7bbf8e1a3daa76b732f014b46cecbc3aa4bd6de42388012102892762fee0b62bf7801c0313e5991fb7b0459fa999f32b5aa7be8627b6a7d963", "asm": "304402201a352d23fd4040ef366514a93871a86b946f38964c46f58baae382d4dd8c56f902200fd2e4f661f31f94a49f7bbf8e1a3daa76b732f014b46cecbc3aa4bd6de42388[ALL] 02892762fee0b62bf7801c0313e5991fb7b0459fa999f32b5aa7be8627b6a7d963"}, "vout": 66, "txid": "e1702808b9a0ee9268b4c118a08218001957de698d336b9960bbad01949541ac"}, {"txinwitness": ["3045022100cd1bc3fbbd84e94efc3f267c3052f9a39cc8f122d08b93a2aef273e28ba456300220096cbbf10bf8ed3554f450e5198d42055ec299659859832ceac5cb90f6d7787501", "02fd9db4f7d6813bc702e7120632e60f3ddd944830154c1cc418b1f5c62250b94c"], "sequence": 4294967295, "scriptSig": {"hex": "1600143db8c454e63684dccda0678e7245487decdc847b", "asm": "00143db8c454e63684dccda0678e7245487decdc847b"}, "vout": 27, "txid": "96760188a2a4b057c031d81648f50ab5945a00c29bbe2d4c1792cd6a8eb8065f"}, {"sequence": 4294967295, "scriptSig": {"hex": "4730440220665c6c11b2fecb28e4ac7ac0fb69c67905d473dde1072b009353f6128e1c810602204d05290eb4038e78adebbe64812259c49e912dcbb36c6978e90b7d6fa6f36f3b0121029be0bad5bda7e6b13fb481dab1752f52cc72052188e31fa66e5d91ec3d6f39e4", "asm": "30440220665c6c11b2fecb28e4ac7ac0fb69c67905d473dde1072b009353f6128e1c810602204d05290eb4038e78adebbe64812259c49e912dcbb36c6978e90b7d6fa6f36f3b[ALL] 029be0bad5bda7e6b13fb481dab1752f52cc72052188e31fa66e5d91ec3d6f39e4"}, "vout": 50, "txid": "6165f86f21ee606a35f047bb4fbaec11c96c9f4daad1653e21c4624e0105099f"}, {"sequence": 4294967295, "scriptSig": {"hex": "4830450221008710726d54a295ce0271ae05c36ac4a9bc5a7d25686463c0bd8e8897e1108601022036703ce8975d363bd686ce9c223cbc9f44bc3e075f8992ff123ece4a641e4f71012103786af4b32017ec640dba2d2a7e1fd5aa4a231a658e4cbc114d51c031576e19bc", "asm": "30450221008710726d54a295ce0271ae05c36ac4a9bc5a7d25686463c0bd8e8897e1108601022036703ce8975d363bd686ce9c223cbc9f44bc3e075f8992ff123ece4a641e4f71[ALL] 03786af4b32017ec640dba2d2a7e1fd5aa4a231a658e4cbc114d51c031576e19bc"}, "vout": 8, "txid": "becb970d08a04443c84571a99d304490e2db29874e6e0db027b0eaa53fcbfb5f"}], "txid": "19737beb624c023d1a6e228eb4005b6a1a8ac940d98b724c7aae200f3a821c11", "blocktime": 1537872475, "version": 2, "confirmations": 11486, "time": 1537872475, "locktime": 0, "vsize": 1384, "size": 1472}