{"hash": "1975b091f2f1101b123163045eddc80cfbbb1431460448896942df76746c2147", "blockhash": "0000000000000000001f76057863aec43deb6fa401d9628bb513d65a8098bfab", "vout": [{"scriptPubKey": {"reqSigs": 1, "hex": "76a914f60910b4a946703dff318530183a9f197e2cebc088ac", "addresses": ["1PRv64DEDUgYTnX2WzcQD6ssJSUer1DvML"], "asm": "OP_DUP OP_HASH160 f60910b4a946703dff318530183a9f197e2cebc0 OP_EQUALVERIFY OP_CHECKSIG", "type": "pubkeyhash"}, "value": 0.94426009, "n": 0}], "hex": "01000000019d24ad6889280d3be766ab21e4ad5723b955bb54a3385143a4f3b61cdd0b0885010000006a47304402205b1f894aab17e38129f37e91274c416d6a73df6f98a21a91dce07d7389fe65a00220218dc5e57c2fe55f3b293461e759640878a6e1a74b02f60e82783c2d48f14994012103845c018bbd8f03977d7603603d98cc71f21a724c042d21ffcae267bdb7955052ffffffff0199d3a005000000001976a914f60910b4a946703dff318530183a9f197e2cebc088ac00000000", "vin": [{"sequence": 4294967295, "scriptSig": {"hex": "47304402205b1f894aab17e38129f37e91274c416d6a73df6f98a21a91dce07d7389fe65a00220218dc5e57c2fe55f3b293461e759640878a6e1a74b02f60e82783c2d48f14994012103845c018bbd8f03977d7603603d98cc71f21a724c042d21ffcae267bdb7955052", "asm": "304402205b1f894aab17e38129f37e91274c416d6a73df6f98a21a91dce07d7389fe65a00220218dc5e57c2fe55f3b293461e759640878a6e1a74b02f60e82783c2d48f14994[ALL] 03845c018bbd8f03977d7603603d98cc71f21a724c042d21ffcae267bdb7955052"}, "vout": 1, "txid": "85080bdd1cb6f3a4435138a354bb55b92357ade421ab66e73b0d288968ad249d"}], "txid": "1975b091f2f1101b123163045eddc80cfbbb1431460448896942df76746c2147", "blocktime": 1537873891, "version": 1, "confirmations": 11478, "time": 1537873891, "locktime": 0, "vsize": 191, "size": 191}