{"hash": "19870aebe7ad522e0bc91a0ff12fdb25c743687709d7fd74c04dbb896c32c2d1", "blockhash": "0000000000000000000baef3f32e3676a92c3b2e5da21b426e4f302fc371ce76", "vout": [{"scriptPubKey": {"reqSigs": 1, "hex": "76a914f22c3a35be48f0ec5ade9de1c799e777b14ea0bd88ac", "addresses": ["1P5VWPw3JnBmFuoAoZNPjG179bUd2tchjf"], "asm": "OP_DUP OP_HASH160 f22c3a35be48f0ec5ade9de1c799e777b14ea0bd OP_EQUALVERIFY OP_CHECKSIG", "type": "pubkeyhash"}, "value": 0.00291838, "n": 0}, {"scriptPubKey": {"reqSigs": 1, "hex": "a914066ff8919e091fe6c15e9366fd46c39ecfd71d3587", "addresses": ["32H47aG4BF6Aq26BK7JgAwHqH9PTWSLXQo"], "asm": "OP_HASH160 066ff8919e091fe6c15e9366fd46c39ecfd71d35 OP_EQUAL", "type": "scripthash"}, "value": 0.00381, "n": 1}], "hex": "0100000001ada000acf7a67e4a8030e6b7fcc96f0da293ca127283e034bdb94b87d17d132a010000006a473044022002a2485b1af68f681070357f9b3f6bc97ebace75206d339bc51e03bf6badbc6502206ee2a84dcb361030996beee3a42c9fb9a8c9e0d9ae6cd71e80e3eeebe979c53d012103d04a644509713d565b3122fa566546bca498e4d8023a8fcf65fa6ce4d808e0d2ffffffff02fe730400000000001976a914f22c3a35be48f0ec5ade9de1c799e777b14ea0bd88ac48d005000000000017a914066ff8919e091fe6c15e9366fd46c39ecfd71d358700000000", "vin": [{"sequence": 4294967295, "scriptSig": {"hex": "473044022002a2485b1af68f681070357f9b3f6bc97ebace75206d339bc51e03bf6badbc6502206ee2a84dcb361030996beee3a42c9fb9a8c9e0d9ae6cd71e80e3eeebe979c53d012103d04a644509713d565b3122fa566546bca498e4d8023a8fcf65fa6ce4d808e0d2", "asm": "3044022002a2485b1af68f681070357f9b3f6bc97ebace75206d339bc51e03bf6badbc6502206ee2a84dcb361030996beee3a42c9fb9a8c9e0d9ae6cd71e80e3eeebe979c53d[ALL] 03d04a644509713d565b3122fa566546bca498e4d8023a8fcf65fa6ce4d808e0d2"}, "vout": 1, "txid": "2a137dd1874bb9bd34e0837212ca93a20d6fc9fcb7e630804a7ea6f7ac00a0ad"}], "txid": "19870aebe7ad522e0bc91a0ff12fdb25c743687709d7fd74c04dbb896c32c2d1", "blocktime": 1537876114, "version": 1, "confirmations": 11460, "time": 1537876114, "locktime": 0, "vsize": 223, "size": 223}