{"hash": "1989716f99be42c58ba242d21e711bad05d3c6dc5fdc30f10ad08a1111ee60a2", "blockhash": "0000000000000000001e0dab787dd257d1dbfcb92a98c2207d5e1078be1f4165", "vout": [{"scriptPubKey": {"reqSigs": 1, "hex": "76a914bd90a552967bae2a0c4648f5cdf088c21fee499488ac", "addresses": ["1JHKzRThYo2qb61VBtLNZ3Apug9gRVoqXj"], "asm": "OP_DUP OP_HASH160 bd90a552967bae2a0c4648f5cdf088c21fee4994 OP_EQUALVERIFY OP_CHECKSIG", "type": "pubkeyhash"}, "value": 6.79e-06, "n": 0}, {"scriptPubKey": {"reqSigs": 1, "hex": "76a914bcd2d503f5d4e26c891bb54562ec381322e72eae88ac", "addresses": ["1JDQbwDCX8XaqWJH6k7AXjVAZpEtazhBLR"], "asm": "OP_DUP OP_HASH160 bcd2d503f5d4e26c891bb54562ec381322e72eae OP_EQUALVERIFY OP_CHECKSIG", "type": "pubkeyhash"}, "value": 0.00088994, "n": 1}], "hex": "010000000205ebf8d7cb3b696371ce3f090e18de970d2f7e471255c5d78acfe16fbd67c54c010000006a47304402203e471113661c3a44540b4d52735ca6b9c8d8e13e8c3442df6b45c8f3efa9a1c40220324af63367f0be820b7734914171f18433478844974b60b79611bb0de5445e6c01210398d31638853efcc3a1f82b563d9a255849f4b9773b08467b353f069c0125685cffffffffa5f6c0ac3345ee6106242a147eba621c74e8fa6f9f2c41d0ae2537ffcb5da9bc000000006a4730440220442ab5fc3973bd9047843916b680387174f82f25a5db2b94c0156a2e9e9c378e022035d01c6ec96568c389fa1a48356b822aa96be8f14ce0417e4317595bba26b69501210223b798bedd699258a65c187ec93dbcbffee94689250e56abf79d8dec4c9fc2d3ffffffff02a7020000000000001976a914bd90a552967bae2a0c4648f5cdf088c21fee499488aca25b0100000000001976a914bcd2d503f5d4e26c891bb54562ec381322e72eae88ac00000000", "vin": [{"sequence": 4294967295, "scriptSig": {"hex": "47304402203e471113661c3a44540b4d52735ca6b9c8d8e13e8c3442df6b45c8f3efa9a1c40220324af63367f0be820b7734914171f18433478844974b60b79611bb0de5445e6c01210398d31638853efcc3a1f82b563d9a255849f4b9773b08467b353f069c0125685c", "asm": "304402203e471113661c3a44540b4d52735ca6b9c8d8e13e8c3442df6b45c8f3efa9a1c40220324af63367f0be820b7734914171f18433478844974b60b79611bb0de5445e6c[ALL] 0398d31638853efcc3a1f82b563d9a255849f4b9773b08467b353f069c0125685c"}, "vout": 1, "txid": "4cc567bd6fe1cf8ad7c55512477e2f0d97de180e093fce7163693bcbd7f8eb05"}, {"sequence": 4294967295, "scriptSig": {"hex": "4730440220442ab5fc3973bd9047843916b680387174f82f25a5db2b94c0156a2e9e9c378e022035d01c6ec96568c389fa1a48356b822aa96be8f14ce0417e4317595bba26b69501210223b798bedd699258a65c187ec93dbcbffee94689250e56abf79d8dec4c9fc2d3", "asm": "30440220442ab5fc3973bd9047843916b680387174f82f25a5db2b94c0156a2e9e9c378e022035d01c6ec96568c389fa1a48356b822aa96be8f14ce0417e4317595bba26b695[ALL] 0223b798bedd699258a65c187ec93dbcbffee94689250e56abf79d8dec4c9fc2d3"}, "vout": 0, "txid": "bca95dcbff3725aed0412c9f6ffae8741c62ba7e142a240661ee4533acc0f6a5"}], "txid": "1989716f99be42c58ba242d21e711bad05d3c6dc5fdc30f10ad08a1111ee60a2", "blocktime": 1537872475, "version": 1, "confirmations": 11487, "time": 1537872475, "locktime": 0, "vsize": 372, "size": 372}