{"hash": "a650aefc39050d58fd1c4bec5d6770220c8d7d31f129c8af36da2332b2adf598", "blockhash": "00000000000000000004ffacab907a6b429b9a5745fa0b75af4234bf69dd7176", "vout": [{"scriptPubKey": {"reqSigs": 1, "hex": "76a914d704acac6b582ee0b59bd6e0755139eff071e1da88ac", "addresses": ["1Lbut2y4EZXaHAGphSTrC1k6jFXztiKRyh"], "asm": "OP_DUP OP_HASH160 d704acac6b582ee0b59bd6e0755139eff071e1da OP_EQUALVERIFY OP_CHECKSIG", "type": "pubkeyhash"}, "value": 0.01141982, "n": 0}, {"scriptPubKey": {"reqSigs": 1, "hex": "76a914d6f575833a3a06e89e8561baff7f133c0756511e88ac", "addresses": ["1LbbeqyR5SRv8arDa9UbmqzjStmN8gbzw9"], "asm": "OP_DUP OP_HASH160 d6f575833a3a06e89e8561baff7f133c0756511e OP_EQUALVERIFY OP_CHECKSIG", "type": "pubkeyhash"}, "value": 0.00136969, "n": 1}], "hex": "02000000000101f8b7dcfba3c9321dfa9ed9596b0610b492acd713639f9489b6ea050d5ee9e5740100000017160014e2182eb387f929c02cd66e8d6820ada4df9deca7feffffff02de6c1100000000001976a914d704acac6b582ee0b59bd6e0755139eff071e1da88ac09170200000000001976a914d6f575833a3a06e89e8561baff7f133c0756511e88ac0248304502210091c3e4669ab7e0efe92b6a260a41e47fef0df710f2d68e069b39ffb4dce28cb102205b34422887a8b7204f6961e80293bb805b3307bd407c0e8651c1e7caccaf7421012102e978c25d01e24f2eb821cf614cc24575955d62127fe0d81d9a96e2f777f0a77e16490800", "vin": [{"txinwitness": ["304502210091c3e4669ab7e0efe92b6a260a41e47fef0df710f2d68e069b39ffb4dce28cb102205b34422887a8b7204f6961e80293bb805b3307bd407c0e8651c1e7caccaf742101", "02e978c25d01e24f2eb821cf614cc24575955d62127fe0d81d9a96e2f777f0a77e"], "sequence": 4294967294, "scriptSig": {"hex": "160014e2182eb387f929c02cd66e8d6820ada4df9deca7", "asm": "0014e2182eb387f929c02cd66e8d6820ada4df9deca7"}, "vout": 1, "txid": "74e5e95e0d05eab689949f6313d7ac92b410066b59d99efa1d32c9a3fbdcb7f8"}], "txid": "198c4e6b805910073f0b68d043dc168f0dd0b9269c929e31e9df83df6d4e41a8", "blocktime": 1537875543, "version": 2, "confirmations": 11464, "time": 1537875543, "locktime": 542998, "vsize": 170, "size": 252}