{"hash": "198f0aba84392ba793ee69183b7ff87c213e8f4efa00a44741ff4084328cb9e8", "blockhash": "0000000000000000001e0dab787dd257d1dbfcb92a98c2207d5e1078be1f4165", "vout": [{"scriptPubKey": {"reqSigs": 1, "hex": "a9145ac52b8180f1ced44fb28fd73aa1b8f6898baf9b87", "addresses": ["39xxwR77jhRTtYDmdnGCcrdN4aSwdnPqX7"], "asm": "OP_HASH160 5ac52b8180f1ced44fb28fd73aa1b8f6898baf9b OP_EQUAL", "type": "scripthash"}, "value": 0.00253151, "n": 0}, {"scriptPubKey": {"reqSigs": 1, "hex": "76a914721c813bf51bfedabddefec37ca5665cd1a2592f88ac", "addresses": ["1BQNBRGNHnqvmw8KfjLFoYt9VBHhDPLQTf"], "asm": "OP_DUP OP_HASH160 721c813bf51bfedabddefec37ca5665cd1a2592f OP_EQUALVERIFY OP_CHECKSIG", "type": "pubkeyhash"}, "value": 0.01383091, "n": 1}], "hex": "0100000001b3220c5e77f3136658b0327a1b3e9427f3051281a7e9001427aee8e652a005d4010000006a47304402206af0b472cda1c030eaf3d88b4e187938c981bb86626702c0d701423085e2abff0220094e39d17001644b3468377cd054057e99de31f9733f14bf0649f065b9c42b930121034669c06a26cc66168ee50a21a024eda0911726deda27aed173d2fc35b47837a3ffffffff02dfdc03000000000017a9145ac52b8180f1ced44fb28fd73aa1b8f6898baf9b87b31a1500000000001976a914721c813bf51bfedabddefec37ca5665cd1a2592f88ac00000000", "vin": [{"sequence": 4294967295, "scriptSig": {"hex": "47304402206af0b472cda1c030eaf3d88b4e187938c981bb86626702c0d701423085e2abff0220094e39d17001644b3468377cd054057e99de31f9733f14bf0649f065b9c42b930121034669c06a26cc66168ee50a21a024eda0911726deda27aed173d2fc35b47837a3", "asm": "304402206af0b472cda1c030eaf3d88b4e187938c981bb86626702c0d701423085e2abff0220094e39d17001644b3468377cd054057e99de31f9733f14bf0649f065b9c42b93[ALL] 034669c06a26cc66168ee50a21a024eda0911726deda27aed173d2fc35b47837a3"}, "vout": 1, "txid": "d405a052e6e8ae271400e9a7811205f327943e1b7a32b0586613f3775e0c22b3"}], "txid": "198f0aba84392ba793ee69183b7ff87c213e8f4efa00a44741ff4084328cb9e8", "blocktime": 1537872475, "version": 1, "confirmations": 11486, "time": 1537872475, "locktime": 0, "vsize": 223, "size": 223}