{"hash": "1990bacb8ef089d28a3251da35d96d325d1182a68fa60f41a2010a77255c62f3", "blockhash": "0000000000000000000baef3f32e3676a92c3b2e5da21b426e4f302fc371ce76", "vout": [{"scriptPubKey": {"reqSigs": 1, "hex": "76a9145571685a6425867c72dedae56b07330922bdd99288ac", "addresses": ["18nnJ1LY2wwi3DwNY9EddF6TzonNwnUwX5"], "asm": "OP_DUP OP_HASH160 5571685a6425867c72dedae56b07330922bdd992 OP_EQUALVERIFY OP_CHECKSIG", "type": "pubkeyhash"}, "value": 0.0015672, "n": 0}, {"scriptPubKey": {"reqSigs": 1, "hex": "76a9142f0b19a5e87505d600ff2a57643e08bf80b51dbc88ac", "addresses": ["15Hk4GhJCmMWbZBRPu9gb6ABKgrCqfxEfV"], "asm": "OP_DUP OP_HASH160 2f0b19a5e87505d600ff2a57643e08bf80b51dbc OP_EQUALVERIFY OP_CHECKSIG", "type": "pubkeyhash"}, "value": 0.03148825, "n": 1}], "hex": "01000000011d3d9b1898f6f50236802447fd6164532adb507fe8badf56b4bf1724fbd3cd96010000006a47304402206ffda522bf5534a907e4efed1be05fa2c90371dbd119312bb4beb8aedd00f3a9022022b4790121453430280abef978e868c4c9f0ba57c0c3e5c865f2e763e51715ed0121021fd9f30c643a4539baf217f79274a19bbd0fdd5709310ed5c84fe5dc179c026cffffffff0230640200000000001976a9145571685a6425867c72dedae56b07330922bdd99288ac190c3000000000001976a9142f0b19a5e87505d600ff2a57643e08bf80b51dbc88ac00000000", "vin": [{"sequence": 4294967295, "scriptSig": {"hex": "47304402206ffda522bf5534a907e4efed1be05fa2c90371dbd119312bb4beb8aedd00f3a9022022b4790121453430280abef978e868c4c9f0ba57c0c3e5c865f2e763e51715ed0121021fd9f30c643a4539baf217f79274a19bbd0fdd5709310ed5c84fe5dc179c026c", "asm": "304402206ffda522bf5534a907e4efed1be05fa2c90371dbd119312bb4beb8aedd00f3a9022022b4790121453430280abef978e868c4c9f0ba57c0c3e5c865f2e763e51715ed[ALL] 021fd9f30c643a4539baf217f79274a19bbd0fdd5709310ed5c84fe5dc179c026c"}, "vout": 1, "txid": "96cdd3fb2417bfb456dfbae87f50db2a536461fd4724803602f5f698189b3d1d"}], "txid": "1990bacb8ef089d28a3251da35d96d325d1182a68fa60f41a2010a77255c62f3", "blocktime": 1537876114, "version": 1, "confirmations": 11460, "time": 1537876114, "locktime": 0, "vsize": 225, "size": 225}