{"hash": "1996b9b898b28cbac8d79cc15d13f3c4bc48c573eebe84c492eb6c4b04b9b1f9", "blockhash": "00000000000000000017f5eb5941039fbcee6240d03bc1f2f8e35350df66a1d8", "vout": [{"scriptPubKey": {"reqSigs": 1, "hex": "0014c7e6c23d2762193de260d00c42173bfc476e996b", "addresses": ["bc1qclnvy0f8vgvnmcnq6qxyy9eml3rkaxttnn8p8e"], "asm": "0 c7e6c23d2762193de260d00c42173bfc476e996b", "type": "witness_v0_keyhash"}, "value": 0.11138726, "n": 0}, {"scriptPubKey": {"reqSigs": 1, "hex": "76a914e5fd369bfdfd27755e19572be002449b8ae1bf3588ac", "addresses": ["1My55VwNAwSHVFipakYkqBiUzejo5AYc9h"], "asm": "OP_DUP OP_HASH160 e5fd369bfdfd27755e19572be002449b8ae1bf35 OP_EQUALVERIFY OP_CHECKSIG", "type": "pubkeyhash"}, "value": 0.16816134, "n": 1}], "hex": "01000000010f4d5768f13d9b6286a8b04c1bf083d974b5f7a4efb05b92708042d4211f5737090000006b483045022100d316928e9cd25c12ee58db2822525ced742c6521cbdfa199883bf007f7504175022000e6bd5dc34cdbca869fd88e57a822346dba93c002442a7ac23e2fa6d2e5a37d0121031b575e8472076df9be3731697ea8dbddcebaf6bad507c22d67012e503f84db14ffffffff02a6f6a90000000000160014c7e6c23d2762193de260d00c42173bfc476e996b06980001000000001976a914e5fd369bfdfd27755e19572be002449b8ae1bf3588ac00000000", "vin": [{"sequence": 4294967295, "scriptSig": {"hex": "483045022100d316928e9cd25c12ee58db2822525ced742c6521cbdfa199883bf007f7504175022000e6bd5dc34cdbca869fd88e57a822346dba93c002442a7ac23e2fa6d2e5a37d0121031b575e8472076df9be3731697ea8dbddcebaf6bad507c22d67012e503f84db14", "asm": "3045022100d316928e9cd25c12ee58db2822525ced742c6521cbdfa199883bf007f7504175022000e6bd5dc34cdbca869fd88e57a822346dba93c002442a7ac23e2fa6d2e5a37d[ALL] 031b575e8472076df9be3731697ea8dbddcebaf6bad507c22d67012e503f84db14"}, "vout": 9, "txid": "37571f21d4428070925bb0efa4f7b574d983f01b4cb0a886629b3df168574d0f"}], "txid": "1996b9b898b28cbac8d79cc15d13f3c4bc48c573eebe84c492eb6c4b04b9b1f9", "blocktime": 1537874412, "version": 1, "confirmations": 11468, "time": 1537874412, "locktime": 0, "vsize": 223, "size": 223}