{"hash": "97bb60901733a8e744151304b97ea7044047d280eef1d697cd212f94a385c753", "blockhash": "0000000000000000000baef3f32e3676a92c3b2e5da21b426e4f302fc371ce76", "vout": [{"scriptPubKey": {"reqSigs": 1, "hex": "a9146350426b0e4663b9d350c3086993b40c39cf0a1d87", "addresses": ["3Ak8y4NrwW4KzmdmuHLa3MJFMDdVVy8HHr"], "asm": "OP_HASH160 6350426b0e4663b9d350c3086993b40c39cf0a1d OP_EQUAL", "type": "scripthash"}, "value": 0.00090824, "n": 0}, {"scriptPubKey": {"reqSigs": 1, "hex": "a9140136c10502ae5684e49b302f1af10f145f74b6b787", "addresses": ["31oSC7GvQMTZoouyNLBEHVRDhXEFbVhSmh"], "asm": "OP_HASH160 0136c10502ae5684e49b302f1af10f145f74b6b7 OP_EQUAL", "type": "scripthash"}, "value": 0.03741061, "n": 1}], "hex": "01000000000101ebe4b70783a3d19d45e3da3df6557a94f76678e64d0f5c8f24d74945f4bdfdc80100000023220020efd02f10cc1074c68ec89b458572a71ce6bfc8a17595d8fde80232e47279444bffffffff02c86201000000000017a9146350426b0e4663b9d350c3086993b40c39cf0a1d87851539000000000017a9140136c10502ae5684e49b302f1af10f145f74b6b787040047304402200a71fb93eeb7151f5f2efc396d0db3bb401dbd9a8a724da057dd6676578fcc4102203c09d978679e2ea6de74360f7a86d6e6c5e2f525153b09999a3b2e4cff3583250147304402201b4556dd57b0711dca1d6bde5e266a388424c305ed776258569282b4ea4e1f27022022f1e3d065e89ebfb1182eb17942e1e34bcb9c6cee0b10e8a7609e35f2325a310147522103f985ea61f461801f3abc09ebed98ce7e20804639a64616f639f492883ea4e8d62103871fc2ca08e6950b38867e8e6a0e94ee625223d3aa0df5c65f414c6d784467e252ae00000000", "vin": [{"txinwitness": ["", "304402200a71fb93eeb7151f5f2efc396d0db3bb401dbd9a8a724da057dd6676578fcc4102203c09d978679e2ea6de74360f7a86d6e6c5e2f525153b09999a3b2e4cff35832501", "304402201b4556dd57b0711dca1d6bde5e266a388424c305ed776258569282b4ea4e1f27022022f1e3d065e89ebfb1182eb17942e1e34bcb9c6cee0b10e8a7609e35f2325a3101", "522103f985ea61f461801f3abc09ebed98ce7e20804639a64616f639f492883ea4e8d62103871fc2ca08e6950b38867e8e6a0e94ee625223d3aa0df5c65f414c6d784467e252ae"], "sequence": 4294967295, "scriptSig": {"hex": "220020efd02f10cc1074c68ec89b458572a71ce6bfc8a17595d8fde80232e47279444b", "asm": "0020efd02f10cc1074c68ec89b458572a71ce6bfc8a17595d8fde80232e47279444b"}, "vout": 1, "txid": "c8fdbdf44549d7248f5c0f4de67866f7947a55f63ddae3459dd1a38307b7e4eb"}], "txid": "1999e2a615540bc05804b8527112dfe4c146699b3eb563aa7a2b3c555d6e5848", "blocktime": 1537876114, "version": 1, "confirmations": 11460, "time": 1537876114, "locktime": 0, "vsize": 205, "size": 370}