{"hash": "b30ec9ef92687dad7273521d98332d7bee4571dbcc5c3af1f22ee2791801473d", "blockhash": "0000000000000000001f76057863aec43deb6fa401d9628bb513d65a8098bfab", "vout": [{"scriptPubKey": {"reqSigs": 1, "hex": "a9148bbf12bd01ec76b9e11345fe533a8343c1ea7b9487", "addresses": ["3ERvkCwKpiSHBMG3E4yD8z5tySE3uwAdhm"], "asm": "OP_HASH160 8bbf12bd01ec76b9e11345fe533a8343c1ea7b94 OP_EQUAL", "type": "scripthash"}, "value": 0.27894254, "n": 0}, {"scriptPubKey": {"reqSigs": 1, "hex": "a9141b388ff60aa9b8e5723a0b4c7e2a07ae41d9101087", "addresses": ["34Awvk77zE2w69jD1hG3gVkY38EsDFSKk5"], "asm": "OP_HASH160 1b388ff60aa9b8e5723a0b4c7e2a07ae41d91010 OP_EQUAL", "type": "scripthash"}, "value": 0.32, "n": 1}], "hex": "0100000000010297f56cf71f0069642210c4fe5c41a349eb46bb6bba88fdc1ebba845a86ad52a10000000017160014ffaff142838b9ffb32d1189bd8f62e9bf5d4bfc8ffffffff04e82dcbc43e4047f742c03b55f0bcc21263c04a3fbd99ceb014f21147432cef0000000017160014d5fc0dd5039208badb6ea3358e62d3f72761321cffffffff02eea1a9010000000017a9148bbf12bd01ec76b9e11345fe533a8343c1ea7b94870048e8010000000017a9141b388ff60aa9b8e5723a0b4c7e2a07ae41d910108702483045022100bb59fa328105b2a603b6feff8ebaee293b0a19ef4d1c20d816e9b24340a74a0f02207313074197d6ff4ec130c2f54195d01dba08f6c5615c516de8ce6d5087c95d81012102ccad68e4b7331b7b215246ac7c329fa6d06c364eb6871a77cb477360149726fc0247304402200224d59f181deccbadef1197ef584f8c111b0dbdf8391b8981e813f4aba83cbd0220344c772a1075391c1f75b02fe081da08edf4bf527fec6d900604d15100196f90012102ace0f551c51ee3ae3910e15a10d1588a90a245ddc4bcae367744f67975d1670500000000", "vin": [{"txinwitness": ["3045022100bb59fa328105b2a603b6feff8ebaee293b0a19ef4d1c20d816e9b24340a74a0f02207313074197d6ff4ec130c2f54195d01dba08f6c5615c516de8ce6d5087c95d8101", "02ccad68e4b7331b7b215246ac7c329fa6d06c364eb6871a77cb477360149726fc"], "sequence": 4294967295, "scriptSig": {"hex": "160014ffaff142838b9ffb32d1189bd8f62e9bf5d4bfc8", "asm": "0014ffaff142838b9ffb32d1189bd8f62e9bf5d4bfc8"}, "vout": 0, "txid": "a152ad865a84baebc1fd88ba6bbb46eb49a3415cfec410226469001ff76cf597"}, {"txinwitness": ["304402200224d59f181deccbadef1197ef584f8c111b0dbdf8391b8981e813f4aba83cbd0220344c772a1075391c1f75b02fe081da08edf4bf527fec6d900604d15100196f9001", "02ace0f551c51ee3ae3910e15a10d1588a90a245ddc4bcae367744f67975d16705"], "sequence": 4294967295, "scriptSig": {"hex": "160014d5fc0dd5039208badb6ea3358e62d3f72761321c", "asm": "0014d5fc0dd5039208badb6ea3358e62d3f72761321c"}, "vout": 0, "txid": "ef2c434711f214b0ce99bd3f4ac06312c2bcf0553bc042f747403ec4cb2de804"}], "txid": "19a6098d6bd701c71c53968afd430042524ceaee354a73dc042e94adcf284aea", "blocktime": 1537873891, "version": 1, "confirmations": 11478, "time": 1537873891, "locktime": 0, "vsize": 257, "size": 419}