{"hash": "24a9f4bc30f911b4490cc08174ca78fc4f3b3fc3122e57a9c19e83ba6bf72984", "blockhash": "000000000000000000022b45ed06c6f4ccd3cf7fb5ba4856ebd2e58215665228", "vout": [{"scriptPubKey": {"reqSigs": 1, "hex": "76a9145765d151ed725076ca70edb9a867a436b6c7233a88ac", "addresses": ["18y7m72yCMavcJEG7DPQstZkUSUV5vt2hB"], "asm": "OP_DUP OP_HASH160 5765d151ed725076ca70edb9a867a436b6c7233a OP_EQUALVERIFY OP_CHECKSIG", "type": "pubkeyhash"}, "value": 0.0026726, "n": 0}, {"scriptPubKey": {"reqSigs": 1, "hex": "a9144ff5cfd49e32cea5d8ba7becddfbb2925b5d60fc87", "addresses": ["38yon1CfcjKyoSGgheJ5JamW8xkFBrTN5D"], "asm": "OP_HASH160 4ff5cfd49e32cea5d8ba7becddfbb2925b5d60fc OP_EQUAL", "type": "scripthash"}, "value": 0.01032906, "n": 1}], "hex": "0200000000010275ef1083a3a1be9b327b74f09055d8e231f78da2fd28c5811ab9f70bdf8fb9990700000017160014ec548d48465891aff81e0dd544f1e0bbdca6c52afeffffff956f1ae289db22161e0f1c64e2fbca4ab1240296489831241087e41dbc733a0300000000171600145e0ca22fabfd1c482a8a2eff024704bcd3fa0cbdfeffffff02fc130400000000001976a9145765d151ed725076ca70edb9a867a436b6c7233a88accac20f000000000017a9144ff5cfd49e32cea5d8ba7becddfbb2925b5d60fc87024730440220141759a90e617fc379c90f42c429ef28a81b3827acbe4c2e33ee10694f14146c022063671b4338e2660b1ad9d08af33b0a0c59562b5c8d8cbb2540affd451fbff124012102d5d39b5e16b5ee8104e9146b472dbd9a0115ad1d29b56aa44fde2b3514c4aa430248304502210098f469c0a6daaf3a834690640751fd594df8c7feab656300f119e7ea38e5142f02205144131cf0f15f0be67574d837b97fafee25f84b876787a35f23fada24c3478a0121034fbeda3c470c939e9f6d6565297a39f1a2baf1cb4521df9d259865928679e6ea0b490800", "vin": [{"txinwitness": ["30440220141759a90e617fc379c90f42c429ef28a81b3827acbe4c2e33ee10694f14146c022063671b4338e2660b1ad9d08af33b0a0c59562b5c8d8cbb2540affd451fbff12401", "02d5d39b5e16b5ee8104e9146b472dbd9a0115ad1d29b56aa44fde2b3514c4aa43"], "sequence": 4294967294, "scriptSig": {"hex": "160014ec548d48465891aff81e0dd544f1e0bbdca6c52a", "asm": "0014ec548d48465891aff81e0dd544f1e0bbdca6c52a"}, "vout": 7, "txid": "99b98fdf0bf7b91a81c528fda28df731e2d85590f0747b329bbea1a38310ef75"}, {"txinwitness": ["304502210098f469c0a6daaf3a834690640751fd594df8c7feab656300f119e7ea38e5142f02205144131cf0f15f0be67574d837b97fafee25f84b876787a35f23fada24c3478a01", "034fbeda3c470c939e9f6d6565297a39f1a2baf1cb4521df9d259865928679e6ea"], "sequence": 4294967294, "scriptSig": {"hex": "1600145e0ca22fabfd1c482a8a2eff024704bcd3fa0cbd", "asm": "00145e0ca22fabfd1c482a8a2eff024704bcd3fa0cbd"}, "vout": 0, "txid": "033a73bc1de4871024319848960224b14acafbe2641c0f1e1622db89e21a6f95"}], "txid": "19abd95127e7636302dcfacd9e5db3969a82d5b0e2eefe5ccbd5e0ce61490261", "blocktime": 1537869901, "version": 2, "confirmations": 11524, "time": 1537869901, "locktime": 542987, "vsize": 259, "size": 421}