{"hash": "19b016da717cfe24f77f66a3eb658962a84b172d03f3569fac2e36bcd6878c6f", "blockhash": "0000000000000000001f76057863aec43deb6fa401d9628bb513d65a8098bfab", "vout": [{"scriptPubKey": {"reqSigs": 1, "hex": "76a914e0c2868907bb8511265cfead1cb9945d02b24de688ac", "addresses": ["1MVRPqm3FTL5G9jzwfvhDV9EYGxtP8aJdN"], "asm": "OP_DUP OP_HASH160 e0c2868907bb8511265cfead1cb9945d02b24de6 OP_EQUALVERIFY OP_CHECKSIG", "type": "pubkeyhash"}, "value": 0.00044772, "n": 0}, {"scriptPubKey": {"reqSigs": 1, "hex": "76a9140555131f4611f439364abb0d92a7c2209baaaffd88ac", "addresses": ["1VCJ448dohSThWwTTa4GNXHXN4nbXzusQ"], "asm": "OP_DUP OP_HASH160 0555131f4611f439364abb0d92a7c2209baaaffd OP_EQUALVERIFY OP_CHECKSIG", "type": "pubkeyhash"}, "value": 0.04751889, "n": 1}], "hex": "01000000035e5ee01f7bfd36600de66c18f10866486e168134f83f9a92312f1a4d4814c74c000000006b4830450221008ba33876cede18e66bb19d371d0eb4c1eaa94b91ebc04a5a6e5e21b72ed2e00402207fdf9581e68c00c1a0736de2b0759c3e12b4bcbf87e47f1653987ef4857088920121022c455744b68bb84d773053d1458fd83fdd11e94be65adf51dbeafb1820a26c02ffffffff9db68b8dd7875bdc4754b054af249d5f586bf0f7d2db263455ac8d1ef42dc78865000000694630430220526691fa5b137d317268b68afa5a9439744a621361c1cb8d5d38cae7c80ce2cc021f35d4ebc66e979fd669e58d299e93fcc66c1d1eb8ba455bc1ed33df136330ad012102c64d8cd5a3a703bd194011400db6620af1f3f07d9b35e838f2073d331b46329bffffffffa13775445eb22e1851d4c892cdbdc204ccec6a384e2baa9d502d657a3ebe178e080000006b483045022100d3a333e7d25c16295a45ba3f586aaa53c85c89c1b52720edcec8bd90067cddee02201e8b0bc0025c377ab8ee088b8bdae40826b24d161b32b65401711cbd1c16460701210292a46f916d39913cb980631a80f911df247d85011f99ce6b73540ed4f49fcbd2ffffffff02e4ae0000000000001976a914e0c2868907bb8511265cfead1cb9945d02b24de688ac11824800000000001976a9140555131f4611f439364abb0d92a7c2209baaaffd88ac00000000", "vin": [{"sequence": 4294967295, "scriptSig": {"hex": "4830450221008ba33876cede18e66bb19d371d0eb4c1eaa94b91ebc04a5a6e5e21b72ed2e00402207fdf9581e68c00c1a0736de2b0759c3e12b4bcbf87e47f1653987ef4857088920121022c455744b68bb84d773053d1458fd83fdd11e94be65adf51dbeafb1820a26c02", "asm": "30450221008ba33876cede18e66bb19d371d0eb4c1eaa94b91ebc04a5a6e5e21b72ed2e00402207fdf9581e68c00c1a0736de2b0759c3e12b4bcbf87e47f1653987ef485708892[ALL] 022c455744b68bb84d773053d1458fd83fdd11e94be65adf51dbeafb1820a26c02"}, "vout": 0, "txid": "4cc714484d1a2f31929a3ff83481166e486608f1186ce60d6036fd7b1fe05e5e"}, {"sequence": 4294967295, "scriptSig": {"hex": "4630430220526691fa5b137d317268b68afa5a9439744a621361c1cb8d5d38cae7c80ce2cc021f35d4ebc66e979fd669e58d299e93fcc66c1d1eb8ba455bc1ed33df136330ad012102c64d8cd5a3a703bd194011400db6620af1f3f07d9b35e838f2073d331b46329b", "asm": "30430220526691fa5b137d317268b68afa5a9439744a621361c1cb8d5d38cae7c80ce2cc021f35d4ebc66e979fd669e58d299e93fcc66c1d1eb8ba455bc1ed33df136330ad[ALL] 02c64d8cd5a3a703bd194011400db6620af1f3f07d9b35e838f2073d331b46329b"}, "vout": 101, "txid": "88c72df41e8dac553426dbd2f7f06b585f9d24af54b05447dc5b87d78d8bb69d"}, {"sequence": 4294967295, "scriptSig": {"hex": "483045022100d3a333e7d25c16295a45ba3f586aaa53c85c89c1b52720edcec8bd90067cddee02201e8b0bc0025c377ab8ee088b8bdae40826b24d161b32b65401711cbd1c16460701210292a46f916d39913cb980631a80f911df247d85011f99ce6b73540ed4f49fcbd2", "asm": "3045022100d3a333e7d25c16295a45ba3f586aaa53c85c89c1b52720edcec8bd90067cddee02201e8b0bc0025c377ab8ee088b8bdae40826b24d161b32b65401711cbd1c164607[ALL] 0292a46f916d39913cb980631a80f911df247d85011f99ce6b73540ed4f49fcbd2"}, "vout": 8, "txid": "8e17be3e7a652d509daa2b4e386aeccc04c2bdcd92c8d451182eb25e447537a1"}], "txid": "19b016da717cfe24f77f66a3eb658962a84b172d03f3569fac2e36bcd6878c6f", "blocktime": 1537873891, "version": 1, "confirmations": 11478, "time": 1537873891, "locktime": 0, "vsize": 520, "size": 520}