{"hash": "c248d48917129c133e50644e59900eceedc5a9f3477341fa4826ccebe4fd78b5", "blockhash": "0000000000000000000baef3f32e3676a92c3b2e5da21b426e4f302fc371ce76", "vout": [{"scriptPubKey": {"reqSigs": 1, "hex": "a91415f79c13789ebab05e23067deba04d41abca395c87", "addresses": ["33hAjnzfdY6JS2BxnXhts7S2DfhZei3Ex8"], "asm": "OP_HASH160 15f79c13789ebab05e23067deba04d41abca395c OP_EQUAL", "type": "scripthash"}, "value": 0.01028458, "n": 0}, {"scriptPubKey": {"reqSigs": 1, "hex": "76a914c28d0785e5cdbfb11068688028ad32ec82389ec088ac", "addresses": ["1Jjh37Jd9HP3vrVqcAk4gxjJwRbEGvzSHE"], "asm": "OP_DUP OP_HASH160 c28d0785e5cdbfb11068688028ad32ec82389ec0 OP_EQUALVERIFY OP_CHECKSIG", "type": "pubkeyhash"}, "value": 0.003239, "n": 1}], "hex": "020000000001023357f084bded41483583cd57bb6331a02d60554818e7fd2b15207519e37eadc60000000017160014f01aadc0a5b1724f5705b9762d8a986979a70302feffffffb228eb68bdb8be8888ff967c7edcac7d34ed39a9f1d33e4d04180f91406b1309000000001716001472f66192e4be13b8fdc79aa4d3ecd124ebff1695feffffff026ab10f000000000017a91415f79c13789ebab05e23067deba04d41abca395c873cf10400000000001976a914c28d0785e5cdbfb11068688028ad32ec82389ec088ac02473044022042b32a75aec4269acf4ced4ab69986f237de88720fddb43bc529306ac096f9900220453f1095591e9fcc9a8cafb454ac38103ab996895e38c0ea1c156f4f926b80cb0121039a5a93fd333bac103946d00c0fec9104e1bd503ff81f8e2114e97ef3fda7a62102483045022100968771d359fd35128875779ae3beb631a6246234b9b581242c4396897c9f501902203ad5e9279cff98548eef2d3cf0ce0f1445e2b9b4a105db944d69643394a34e5c0121035397f24549c31a42b9e46554b420bbada1009e449ba91cd5bcdc6d66178a4df117490800", "vin": [{"txinwitness": ["3044022042b32a75aec4269acf4ced4ab69986f237de88720fddb43bc529306ac096f9900220453f1095591e9fcc9a8cafb454ac38103ab996895e38c0ea1c156f4f926b80cb01", "039a5a93fd333bac103946d00c0fec9104e1bd503ff81f8e2114e97ef3fda7a621"], "sequence": 4294967294, "scriptSig": {"hex": "160014f01aadc0a5b1724f5705b9762d8a986979a70302", "asm": "0014f01aadc0a5b1724f5705b9762d8a986979a70302"}, "vout": 0, "txid": "c6ad7ee3197520152bfde7184855602da03163bb57cd83354841edbd84f05733"}, {"txinwitness": ["3045022100968771d359fd35128875779ae3beb631a6246234b9b581242c4396897c9f501902203ad5e9279cff98548eef2d3cf0ce0f1445e2b9b4a105db944d69643394a34e5c01", "035397f24549c31a42b9e46554b420bbada1009e449ba91cd5bcdc6d66178a4df1"], "sequence": 4294967294, "scriptSig": {"hex": "16001472f66192e4be13b8fdc79aa4d3ecd124ebff1695", "asm": "001472f66192e4be13b8fdc79aa4d3ecd124ebff1695"}, "vout": 0, "txid": "09136b40910f18044d3ed3f1a939ed347dacdc7e7c96ff8888beb8bd68eb28b2"}], "txid": "19b1fb6c945d35d2db0cf062d8a3c715aedc7ae4f363bd2f00f02b2451f2004e", "blocktime": 1537876114, "version": 2, "confirmations": 11462, "time": 1537876114, "locktime": 542999, "vsize": 259, "size": 421}