{"hash": "19b3ef01fe2a10c061ed2f459f0600698ae8497bf091576082d86b8d5410d2ba", "blockhash": "0000000000000000001e0dab787dd257d1dbfcb92a98c2207d5e1078be1f4165", "vout": [{"scriptPubKey": {"reqSigs": 1, "hex": "76a91478a9c7be4c4e129ea66f162757c6359f6c21b41688ac", "addresses": ["1C11UZNHaEGNwr8XUVfw5RExu7ajmjA4VP"], "asm": "OP_DUP OP_HASH160 78a9c7be4c4e129ea66f162757c6359f6c21b416 OP_EQUALVERIFY OP_CHECKSIG", "type": "pubkeyhash"}, "value": 0.40224759, "n": 0}], "hex": "010000000406b51e39ba8eb2d0dc2cc64b759306f549b09841523e632c95982ab4d7bf0504010000006b483045022100ae31f65c88dc66babeee9617cd366187fb943b04a5591e16bad7d957eb564a590220627dcccb98c8e2a0d499f21ad288556ebf67831ef0d838a9c04ec567a67b374501210369d4ea6996448858903da8a70c13999d8d52500890b225d17d34ffa3d3389c06feffffffcb586ee62cc4cce462b2a7398ae350e1cf1655d8f7a279e7406f28c099d3497d010000006b483045022100ff54dab895a7f053eb8c5de79766478066450e663b3d4b13d1aca911ffd3b9600220345868f1ce1410600afe99c1a22f3cf4e85a120f1ad219b6af28d16b73ec47d0012102e24789bdbb471b937aed2d1937ff4d4ac5dede91005b6980b388cf4cebc82c7cfeffffff09f9d377c6aa4e557695f2fe2cee5684ade48b18244b405a8d94fadfa027a8b8000000006b483045022100ea8a654032a1b710c8d7601f57a8a3d37e0be0a807e0bc4a05f06b71c74e79cc022074a8e9418bec5f889bc241d45c80868e0e66d1d59f0d97d3ace9214ad111cf16012102c8eb7ec94b87194cd658dd64e5a67139910ca614fc20b08b6cc13c592aa5e059feffffff5547950a03066db9fa2db92cecd6c2fb47cc55f3c8955d607b493ce4662a55ca010000006b483045022100c2d24ca0a2dcc92dbe684fc8badc1a3a319de780955becfac58cf072134d08fa0220682e4fdfa55510a8a86c6dd590b5dfd3f7140e8a2430bcdc0762b8b60a627b8a01210367622d38219f7fd204a2c08c85a40f5b53d9e08b8008e56aff3cf541c6525502feffffff01f7c76502000000001976a91478a9c7be4c4e129ea66f162757c6359f6c21b41688ac12490800", "vin": [{"sequence": 4294967294, "scriptSig": {"hex": "483045022100ae31f65c88dc66babeee9617cd366187fb943b04a5591e16bad7d957eb564a590220627dcccb98c8e2a0d499f21ad288556ebf67831ef0d838a9c04ec567a67b374501210369d4ea6996448858903da8a70c13999d8d52500890b225d17d34ffa3d3389c06", "asm": "3045022100ae31f65c88dc66babeee9617cd366187fb943b04a5591e16bad7d957eb564a590220627dcccb98c8e2a0d499f21ad288556ebf67831ef0d838a9c04ec567a67b3745[ALL] 0369d4ea6996448858903da8a70c13999d8d52500890b225d17d34ffa3d3389c06"}, "vout": 1, "txid": "0405bfd7b42a98952c633e524198b049f50693754bc62cdcd0b28eba391eb506"}, {"sequence": 4294967294, "scriptSig": {"hex": "483045022100ff54dab895a7f053eb8c5de79766478066450e663b3d4b13d1aca911ffd3b9600220345868f1ce1410600afe99c1a22f3cf4e85a120f1ad219b6af28d16b73ec47d0012102e24789bdbb471b937aed2d1937ff4d4ac5dede91005b6980b388cf4cebc82c7c", "asm": "3045022100ff54dab895a7f053eb8c5de79766478066450e663b3d4b13d1aca911ffd3b9600220345868f1ce1410600afe99c1a22f3cf4e85a120f1ad219b6af28d16b73ec47d0[ALL] 02e24789bdbb471b937aed2d1937ff4d4ac5dede91005b6980b388cf4cebc82c7c"}, "vout": 1, "txid": "7d49d399c0286f40e779a2f7d85516cfe150e38a39a7b262e4ccc42ce66e58cb"}, {"sequence": 4294967294, "scriptSig": {"hex": "483045022100ea8a654032a1b710c8d7601f57a8a3d37e0be0a807e0bc4a05f06b71c74e79cc022074a8e9418bec5f889bc241d45c80868e0e66d1d59f0d97d3ace9214ad111cf16012102c8eb7ec94b87194cd658dd64e5a67139910ca614fc20b08b6cc13c592aa5e059", "asm": "3045022100ea8a654032a1b710c8d7601f57a8a3d37e0be0a807e0bc4a05f06b71c74e79cc022074a8e9418bec5f889bc241d45c80868e0e66d1d59f0d97d3ace9214ad111cf16[ALL] 02c8eb7ec94b87194cd658dd64e5a67139910ca614fc20b08b6cc13c592aa5e059"}, "vout": 0, "txid": "b8a827a0dffa948d5a404b24188be4ad8456ee2cfef29576554eaac677d3f909"}, {"sequence": 4294967294, "scriptSig": {"hex": "483045022100c2d24ca0a2dcc92dbe684fc8badc1a3a319de780955becfac58cf072134d08fa0220682e4fdfa55510a8a86c6dd590b5dfd3f7140e8a2430bcdc0762b8b60a627b8a01210367622d38219f7fd204a2c08c85a40f5b53d9e08b8008e56aff3cf541c6525502", "asm": "3045022100c2d24ca0a2dcc92dbe684fc8badc1a3a319de780955becfac58cf072134d08fa0220682e4fdfa55510a8a86c6dd590b5dfd3f7140e8a2430bcdc0762b8b60a627b8a[ALL] 0367622d38219f7fd204a2c08c85a40f5b53d9e08b8008e56aff3cf541c6525502"}, "vout": 1, "txid": "ca552a66e43c497b605d95c8f355cc47fbc2d6ec2cb92dfab96d06030a954755"}], "txid": "19b3ef01fe2a10c061ed2f459f0600698ae8497bf091576082d86b8d5410d2ba", "blocktime": 1537872475, "version": 1, "confirmations": 11486, "time": 1537872475, "locktime": 542994, "vsize": 636, "size": 636}