{"hash": "40c6c4cbb309906b64ca8feb84dd59eda016be3a76c4c6a0bde6cca81b37df68", "blockhash": "0000000000000000001cda96e906b7601b7a6fb1a3b62bca570a9e5d8f4b3de1", "vout": [{"scriptPubKey": {"reqSigs": 1, "hex": "76a914e688a53bcb7a42e33a48a5bbd99180df67771fdc88ac", "addresses": ["1N1x7QwtM91srRhBaoyD3pS9Sq7usEgh8L"], "asm": "OP_DUP OP_HASH160 e688a53bcb7a42e33a48a5bbd99180df67771fdc OP_EQUALVERIFY OP_CHECKSIG", "type": "pubkeyhash"}, "value": 0.2, "n": 0}, {"scriptPubKey": {"reqSigs": 1, "hex": "a914b395ec2526ca199feccd28fd939c6679cb4ee5b887", "addresses": ["3J4aUg7tsXMZguLJxe5ehhaQ1dPYSvnXeb"], "asm": "OP_HASH160 b395ec2526ca199feccd28fd939c6679cb4ee5b8 OP_EQUAL", "type": "scripthash"}, "value": 0.0245862, "n": 1}], "hex": "0200000000010110444dc5ec836018901b73c539d1c3a504e5f0226063bb82e9982b04676037a90b00000017160014cbd37ef53eb56ce4ff613dd9a422f490017a2b6efdffffff02002d3101000000001976a914e688a53bcb7a42e33a48a5bbd99180df67771fdc88acfc8325000000000017a914b395ec2526ca199feccd28fd939c6679cb4ee5b88702483045022100daea3fd7cab3d80f31c0fd591fa20c366137a170be6b46075517e27562aaf51102205a7f2acb0fdcf8ee3adbe3f0f2480b89365a0e8c1f9ddfb5d22abb92463182d2012103d6cbfe7fae9821583fbb0f1d5631e46cfe8b35661e1870648e810313d18725ea13490800", "vin": [{"txinwitness": ["3045022100daea3fd7cab3d80f31c0fd591fa20c366137a170be6b46075517e27562aaf51102205a7f2acb0fdcf8ee3adbe3f0f2480b89365a0e8c1f9ddfb5d22abb92463182d201", "03d6cbfe7fae9821583fbb0f1d5631e46cfe8b35661e1870648e810313d18725ea"], "sequence": 4294967293, "scriptSig": {"hex": "160014cbd37ef53eb56ce4ff613dd9a422f490017a2b6e", "asm": "0014cbd37ef53eb56ce4ff613dd9a422f490017a2b6e"}, "vout": 11, "txid": "a9376067042b98e982bb636022f0e504a5c3d139c5731b90186083ecc54d4410"}], "txid": "19b5a7dedbbd0283318696ce1911966fb955caf8064a4e17f2f499e3ba8e5279", "blocktime": 1537873282, "version": 2, "confirmations": 11480, "time": 1537873282, "locktime": 542995, "vsize": 168, "size": 250}