{"hash": "d2d40ce463f6c0cce0a44c2197bcd0407655e2479e820addea79040fcb99c9e4", "blockhash": "0000000000000000000dcc0f55137456b1a82d3642486a52398922ac4d620174", "vout": [{"scriptPubKey": {"reqSigs": 1, "hex": "a9145278db3db55c2dc7305e6262eacb02ad43f376f087", "addresses": ["39D67XNWgb2voMWA61UxNsgbKvEj3CQiCz"], "asm": "OP_HASH160 5278db3db55c2dc7305e6262eacb02ad43f376f0 OP_EQUAL", "type": "scripthash"}, "value": 0.01106778, "n": 0}, {"scriptPubKey": {"reqSigs": 1, "hex": "76a914d65065065efcb33e07add1f2f197d2ee64dfb90788ac", "addresses": ["1LYBuyAmzMMZTW1SFPRJQLMtez5CkRUi3C"], "asm": "OP_DUP OP_HASH160 d65065065efcb33e07add1f2f197d2ee64dfb907 OP_EQUALVERIFY OP_CHECKSIG", "type": "pubkeyhash"}, "value": 0.0183106, "n": 1}], "hex": "020000000001043be96685308477d53acb1a5fa1553762fc052dd825324c5ea49005e7f373060f0000000017160014391e73d90f6f51c4b3ba555499820612494d6f86fdffffff4dfda835743b41b87c6bf94b2e17afc99aed05bd67f1ac2d98dbbfd397ad0fec0000000017160014ec7c0dce11b9583671d8808f4ebae9bb89180f22fdffffff6072ab2deb1c749744048fa176d4334d15f2e931eb583463739f6c108e12ae330000000017160014de6353f0850cbc14a12e6766b55b970b190d8a79fdffffffb23bd11283a046cbe1b974d06f53483f049f4916ce994e1049eb4a78ceb7185a010000001716001404b9fbb420201628caa23730f854b711e9a1c8fffdffffff025ae310000000000017a9145278db3db55c2dc7305e6262eacb02ad43f376f08794f01b00000000001976a914d65065065efcb33e07add1f2f197d2ee64dfb90788ac024730440220216b67bd4b6cc2018d3fb94977bba1682a6b30dda52934c124d61d5367a24f9602206d51a97c6c6897a2d06c9d5f6a22b20c817a7de94251de4d8411bef17c9ea902012103a5bcd112ef58c2df1907f552bf4d2e9985d81b548c65e8b2fd5dcbeb0c638c7b02483045022100f954df4ac0f976fda0ce73f0d32535c717a9f93c2915e00256eac30443f4cd2902200c1bf64b4ad3839573b3589abc42b60e4d0357135e4cd072cab5827b5210ecd00121036429d97fec67f3abba3e3776ab48c8ad8b2a371787dd710b762283ac4a327b7302483045022100b8baffe47ef92889010fa97b479e04a937b07508732323402d11daaab4d125f402202d534730f86e431ce64894291f6891e354a8792a97eae377549371e3f28a0a84012102059919d594097fca10f9ec4427e0a78acbadecc1d10001a7e15f10c275429bea02473044022037f07d4f5b43856bc70af8f7d75ec6063b52f1792dfbccf33e1df9d243aae2f3022052e102cb139e6e73ec9a1d4dd17bbc213923f98842ed5df8155955ee4125118d012102484dab2235dcbd38c0c2eb46e578707e842f087c51122f0ad15a5b07bae163370c490800", "vin": [{"txinwitness": ["30440220216b67bd4b6cc2018d3fb94977bba1682a6b30dda52934c124d61d5367a24f9602206d51a97c6c6897a2d06c9d5f6a22b20c817a7de94251de4d8411bef17c9ea90201", "03a5bcd112ef58c2df1907f552bf4d2e9985d81b548c65e8b2fd5dcbeb0c638c7b"], "sequence": 4294967293, "scriptSig": {"hex": "160014391e73d90f6f51c4b3ba555499820612494d6f86", "asm": "0014391e73d90f6f51c4b3ba555499820612494d6f86"}, "vout": 0, "txid": "0f0673f3e70590a45e4c3225d82d05fc623755a15f1acb3ad57784308566e93b"}, {"txinwitness": ["3045022100f954df4ac0f976fda0ce73f0d32535c717a9f93c2915e00256eac30443f4cd2902200c1bf64b4ad3839573b3589abc42b60e4d0357135e4cd072cab5827b5210ecd001", "036429d97fec67f3abba3e3776ab48c8ad8b2a371787dd710b762283ac4a327b73"], "sequence": 4294967293, "scriptSig": {"hex": "160014ec7c0dce11b9583671d8808f4ebae9bb89180f22", "asm": "0014ec7c0dce11b9583671d8808f4ebae9bb89180f22"}, "vout": 0, "txid": "ec0fad97d3bfdb982dacf167bd05ed9ac9af172e4bf96b7cb8413b7435a8fd4d"}, {"txinwitness": ["3045022100b8baffe47ef92889010fa97b479e04a937b07508732323402d11daaab4d125f402202d534730f86e431ce64894291f6891e354a8792a97eae377549371e3f28a0a8401", "02059919d594097fca10f9ec4427e0a78acbadecc1d10001a7e15f10c275429bea"], "sequence": 4294967293, "scriptSig": {"hex": "160014de6353f0850cbc14a12e6766b55b970b190d8a79", "asm": "0014de6353f0850cbc14a12e6766b55b970b190d8a79"}, "vout": 0, "txid": "33ae128e106c9f73633458eb31e9f2154d33d476a18f044497741ceb2dab7260"}, {"txinwitness": ["3044022037f07d4f5b43856bc70af8f7d75ec6063b52f1792dfbccf33e1df9d243aae2f3022052e102cb139e6e73ec9a1d4dd17bbc213923f98842ed5df8155955ee4125118d01", "02484dab2235dcbd38c0c2eb46e578707e842f087c51122f0ad15a5b07bae16337"], "sequence": 4294967293, "scriptSig": {"hex": "16001404b9fbb420201628caa23730f854b711e9a1c8ff", "asm": "001404b9fbb420201628caa23730f854b711e9a1c8ff"}, "vout": 1, "txid": "5a18b7ce784aeb49104e99ce16499f043f48536fd074b9e1cb46a08312d13bb2"}], "txid": "19b8e1bf2dae1dff8c489d856e4bf80be749adec1a485e87b342d6c0ca368722", "blocktime": 1537870268, "version": 2, "confirmations": 11516, "time": 1537870268, "locktime": 542988, "vsize": 440, "size": 764}