{"hash": "54d273bae64e1718a10da19e18f595c9bdba6cb2cb9aaa3c2faddb4692cbb155", "blockhash": "0000000000000000001f0ddff1eddb255c1121bcd4da4f1bc9a0da00cae72433", "vout": [{"scriptPubKey": {"reqSigs": 1, "hex": "76a91433f953e05c66906bd07c38ca470608b338d60d4c88ac", "addresses": ["15jp9NZBgQTnPgpvP1MDzUbt2B5iDQMDmq"], "asm": "OP_DUP OP_HASH160 33f953e05c66906bd07c38ca470608b338d60d4c OP_EQUALVERIFY OP_CHECKSIG", "type": "pubkeyhash"}, "value": 0.00789931, "n": 0}, {"scriptPubKey": {"reqSigs": 1, "hex": "a91492fcb39459951f3b02e7c10841fbeba3c638527087", "addresses": ["3F6DJZJhvs8fvyei4p77PQzqxLJyELfXDu"], "asm": "OP_HASH160 92fcb39459951f3b02e7c10841fbeba3c6385270 OP_EQUAL", "type": "scripthash"}, "value": 5.63708386, "n": 1}], "hex": "02000000000101323d8bc1c60e04b57d460b0248946a6f28a90d90bdc7b10cc8cab947b0edc6b50100000017160014a4c195fb7a4c3b56710ff395a314cee3eb2b9c58feffffff02ab0d0c00000000001976a91433f953e05c66906bd07c38ca470608b338d60d4c88ace28199210000000017a91492fcb39459951f3b02e7c10841fbeba3c638527087024730440220143bf4bc098c269be8d32d04c5bd146a0f354c4a1db1060804bd00b66bac5b8c022076a4454ec060ef55f8f6b0b8a414269db87c2721604d1c47e2196ac3b49afe8b0121038d43ebc02fb30995ce4f5eec53a9522e65511a92e21af68141f48e1c683b179010490800", "vin": [{"txinwitness": ["30440220143bf4bc098c269be8d32d04c5bd146a0f354c4a1db1060804bd00b66bac5b8c022076a4454ec060ef55f8f6b0b8a414269db87c2721604d1c47e2196ac3b49afe8b01", "038d43ebc02fb30995ce4f5eec53a9522e65511a92e21af68141f48e1c683b1790"], "sequence": 4294967294, "scriptSig": {"hex": "160014a4c195fb7a4c3b56710ff395a314cee3eb2b9c58", "asm": "0014a4c195fb7a4c3b56710ff395a314cee3eb2b9c58"}, "vout": 1, "txid": "b5c6edb047b9cac80cb1c7bd900da9286f6a9448020b467db5040ec6c18b3d32"}], "txid": "19bb7d1078696ab261bdaec38e7265343f837c3b8f0c70197c2d9ab0d2b12cd6", "blocktime": 1537872018, "version": 2, "confirmations": 11489, "time": 1537872018, "locktime": 542992, "vsize": 168, "size": 249}