{"hash": "19c200a95f258cfa9c14b20fb9060b67a602c4fba5a8a540df91cba7061c7fb9", "blockhash": "00000000000000000017f5eb5941039fbcee6240d03bc1f2f8e35350df66a1d8", "vout": [{"scriptPubKey": {"reqSigs": 1, "hex": "76a91488a091102072bf0e6fd7fbfb5f8c50cba7b37c9b88ac", "addresses": ["1DTRFTRPMy2DBQ4ktg1NdPUNw9K81Biwa8"], "asm": "OP_DUP OP_HASH160 88a091102072bf0e6fd7fbfb5f8c50cba7b37c9b OP_EQUALVERIFY OP_CHECKSIG", "type": "pubkeyhash"}, "value": 0.00023462, "n": 0}, {"scriptPubKey": {"reqSigs": 1, "hex": "76a9143059ae7a579cd21fb9f2463a1105df9b90a403e388ac", "addresses": ["15QesPhytMCJ8JAeaoijx5NV2thmtJoPqt"], "asm": "OP_DUP OP_HASH160 3059ae7a579cd21fb9f2463a1105df9b90a403e3 OP_EQUALVERIFY OP_CHECKSIG", "type": "pubkeyhash"}, "value": 0.00468657, "n": 1}], "hex": "0100000001a18039e4faf66651f7dd92f42eb6cf5e4869124ad7ec2a5a1fa734c3375e8319080000006a4730440220313b1ccd7d339876e5b281987a473ec3703f51e410d960932d56c2166814412d02207cdca6a6b1f98d079c7722f59b17e83101984eba4095903af536806b4dc844d3012102dfcceeddb6651f70188e0f9525b563e164d9eb746dbaf5748b22258d3d69f14effffffff02a65b0000000000001976a91488a091102072bf0e6fd7fbfb5f8c50cba7b37c9b88acb1260700000000001976a9143059ae7a579cd21fb9f2463a1105df9b90a403e388ac00000000", "vin": [{"sequence": 4294967295, "scriptSig": {"hex": "4730440220313b1ccd7d339876e5b281987a473ec3703f51e410d960932d56c2166814412d02207cdca6a6b1f98d079c7722f59b17e83101984eba4095903af536806b4dc844d3012102dfcceeddb6651f70188e0f9525b563e164d9eb746dbaf5748b22258d3d69f14e", "asm": "30440220313b1ccd7d339876e5b281987a473ec3703f51e410d960932d56c2166814412d02207cdca6a6b1f98d079c7722f59b17e83101984eba4095903af536806b4dc844d3[ALL] 02dfcceeddb6651f70188e0f9525b563e164d9eb746dbaf5748b22258d3d69f14e"}, "vout": 8, "txid": "19835e37c334a71f5a2aecd74a1269485ecfb62ef492ddf75166f6fae43980a1"}], "txid": "19c200a95f258cfa9c14b20fb9060b67a602c4fba5a8a540df91cba7061c7fb9", "blocktime": 1537874412, "version": 1, "confirmations": 11468, "time": 1537874412, "locktime": 0, "vsize": 225, "size": 225}