{"hash": "52592d88952fdd20e0ac047f14b74a4f6ad09a7c3dd91d0777fe76d50afcdc9d", "blockhash": "000000000000000000022b45ed06c6f4ccd3cf7fb5ba4856ebd2e58215665228", "vout": [{"scriptPubKey": {"reqSigs": 1, "hex": "76a9140874f545f2780dd8225331f89bf35c9ab30f4d9c88ac", "addresses": ["1miWvhNzXdGdhDi4f1saxfyRANUxpqLV3"], "asm": "OP_DUP OP_HASH160 0874f545f2780dd8225331f89bf35c9ab30f4d9c OP_EQUALVERIFY OP_CHECKSIG", "type": "pubkeyhash"}, "value": 0.00436, "n": 0}, {"scriptPubKey": {"reqSigs": 1, "hex": "001496c15c6e53e5ec588a0a0ffa4883bd3ed94862b5", "addresses": ["bc1qjmq4cmjnuhk93zs2play3qaa8mv5sc44ruhmwt"], "asm": "0 96c15c6e53e5ec588a0a0ffa4883bd3ed94862b5", "type": "witness_v0_keyhash"}, "value": 0.00030741, "n": 1}], "hex": "01000000000101ab1ed5a3cc0bd4ff8304c745d0c07ee020fbe51484580ac514f2f3e0df7cd2520000000017160014202641de76da5478e1a7537eadf01c008cef8e0fffffffff0220a70600000000001976a9140874f545f2780dd8225331f89bf35c9ab30f4d9c88ac157800000000000016001496c15c6e53e5ec588a0a0ffa4883bd3ed94862b5024730440220366a8843d6c150b86a953ade66ad73dd85497a2ec927778f763815edd5f0db880220736863008cbd5a11ed2c05f5767086da87989d1fffef47d13d04c8c9ac542e41012102dd6fc9fdd7cd4382b47326d63642af3a7908d3e483582cd26e2e78e513f468e300000000", "vin": [{"txinwitness": ["30440220366a8843d6c150b86a953ade66ad73dd85497a2ec927778f763815edd5f0db880220736863008cbd5a11ed2c05f5767086da87989d1fffef47d13d04c8c9ac542e4101", "02dd6fc9fdd7cd4382b47326d63642af3a7908d3e483582cd26e2e78e513f468e3"], "sequence": 4294967295, "scriptSig": {"hex": "160014202641de76da5478e1a7537eadf01c008cef8e0f", "asm": "0014202641de76da5478e1a7537eadf01c008cef8e0f"}, "vout": 0, "txid": "52d27cdfe0f3f214c50a588414e5fb20e07ec0d045c70483ffd40bcca3d51eab"}], "txid": "19c5864b4977d9c1b2192927a619df367e49ebf6a7c493de9250b121388bede7", "blocktime": 1537869901, "version": 1, "confirmations": 11523, "time": 1537869901, "locktime": 0, "vsize": 167, "size": 248}