{"hash": "19c7dd8d17c503b39ce011ecb5c2bda57a616a1ea371a34c6ff3ed83b7d88420", "blockhash": "0000000000000000001f0ddff1eddb255c1121bcd4da4f1bc9a0da00cae72433", "vout": [{"scriptPubKey": {"reqSigs": 1, "hex": "76a914971895761433c55b387de1e3e07073762585669088ac", "addresses": ["1EmvV5hfmzJNujXP5jVWJEBLuWV3pBnYEN"], "asm": "OP_DUP OP_HASH160 971895761433c55b387de1e3e070737625856690 OP_EQUALVERIFY OP_CHECKSIG", "type": "pubkeyhash"}, "value": 6.66e-06, "n": 0}, {"scriptPubKey": {"reqSigs": 1, "hex": "a914442cf4b57c02e2fd9f855180c4bc1054b45701e087", "addresses": ["37uVjBJmrAjFZ78SSEEP5ABm8rY4rcZ7Tp"], "asm": "OP_HASH160 442cf4b57c02e2fd9f855180c4bc1054b45701e0 OP_EQUAL", "type": "scripthash"}, "value": 0.0081, "n": 1}], "hex": "010000000100fe75667c8d7af442e76b25bd556ddb931d70f4dd9b4d41df4db7aee9195f4e000000006a473044022011d80de1aa13a04e8a1782ce9418dddbbb80d43d647cbcd6372aeda0855abc8e0220332914ff297b87fce1e38a2b7d2ec2b419e834358d1eab248f5bf314767702c2012102ab12b3c643f07570a992b323e2108b041239a1de4a28c97588b10e8d3e17bcc7ffffffff029a020000000000001976a914971895761433c55b387de1e3e07073762585669088ac105c0c000000000017a914442cf4b57c02e2fd9f855180c4bc1054b45701e08700000000", "vin": [{"sequence": 4294967295, "scriptSig": {"hex": "473044022011d80de1aa13a04e8a1782ce9418dddbbb80d43d647cbcd6372aeda0855abc8e0220332914ff297b87fce1e38a2b7d2ec2b419e834358d1eab248f5bf314767702c2012102ab12b3c643f07570a992b323e2108b041239a1de4a28c97588b10e8d3e17bcc7", "asm": "3044022011d80de1aa13a04e8a1782ce9418dddbbb80d43d647cbcd6372aeda0855abc8e0220332914ff297b87fce1e38a2b7d2ec2b419e834358d1eab248f5bf314767702c2[ALL] 02ab12b3c643f07570a992b323e2108b041239a1de4a28c97588b10e8d3e17bcc7"}, "vout": 0, "txid": "4e5f19e9aeb74ddf414d9bddf4701d93db6d55bd256be742f47a8d7c6675fe00"}], "txid": "19c7dd8d17c503b39ce011ecb5c2bda57a616a1ea371a34c6ff3ed83b7d88420", "blocktime": 1537872018, "version": 1, "confirmations": 11489, "time": 1537872018, "locktime": 0, "vsize": 223, "size": 223}