{"hash": "3899de05ade21fb177c48e219ff21916016d010355b32e3ba998f35c4ee87dd7", "blockhash": "0000000000000000001f0ddff1eddb255c1121bcd4da4f1bc9a0da00cae72433", "vout": [{"scriptPubKey": {"reqSigs": 1, "hex": "76a9142693c4e2167abd04825703e7a3367d6b12288aeb88ac", "addresses": ["14WyhTxppffkA8xV3PdhAcnBYW2wSPoUDP"], "asm": "OP_DUP OP_HASH160 2693c4e2167abd04825703e7a3367d6b12288aeb OP_EQUALVERIFY OP_CHECKSIG", "type": "pubkeyhash"}, "value": 0.142835, "n": 0}, {"scriptPubKey": {"reqSigs": 1, "hex": "a9146286f0f19ff4595f5303f0f939cf2e66505d910187", "addresses": ["3AfyoDnGnke2qhtXCc9UmCE5nwZJnsPqC3"], "asm": "OP_HASH160 6286f0f19ff4595f5303f0f939cf2e66505d9101 OP_EQUAL", "type": "scripthash"}, "value": 0.00999698, "n": 1}], "hex": "02000000000103714436e997189117c7f4152fb6f49244f5dc65e37fdc7bfd7f9d4d82fc47b7791200000017160014d0ff4556d888477f8d47bb1296197435a4e4a24afeffffffbefbf5ca272467da108e5d140b65fa36c3cfb0587acc8c4302f218820d3e7c860000000017160014c5290134bf1ba79d384ce4526d4e7682c5ba6fb9feffffffd2851513181c0f85f80c1cab3571c6f28b901952ac1dc20a774ca8da20a29dea000000001716001487b4ebcdfc1a0489c2634ba6884b9224f0519d80feffffff02ecf2d900000000001976a9142693c4e2167abd04825703e7a3367d6b12288aeb88ac12410f000000000017a9146286f0f19ff4595f5303f0f939cf2e66505d91018702483045022100c9e73bcd960401288ed6b3dec28006d12babd47681e99a4bf67b22c05d65f6df0220420144ce2e6b3a2e4243774b8299ec9b1b9ff7ec8173987bd061657693ccac940121037eab165e6ab375692bac63dccae5620186e911aa4cc7516942f617292a1ac41302473044022063f20572c777591bfb8b4915bffb9614fd5c7e845f13a9e7eb6d33ebe9f0ef4302205869048070d25a2c159ee4e1b8581d6620ae81974569e4f2bae2d0cce5502f250121027086624a53706fba16521500b78466cfd8fe2ac0b38e4aab44a5e4d683b54fe502483045022100d2601f34001f05dd538c2ca683968d6772b950118ef651b79a2d8122254c9a5e02204d31391551f40fa64f9ddccb3f07ef98193c7bf08be9f9554a7d3a03b365b151012102faef0e29b502578b81e792a0fe5c268473ef851b0169e7ad6f876070e704b5b211490800", "vin": [{"txinwitness": ["3045022100c9e73bcd960401288ed6b3dec28006d12babd47681e99a4bf67b22c05d65f6df0220420144ce2e6b3a2e4243774b8299ec9b1b9ff7ec8173987bd061657693ccac9401", "037eab165e6ab375692bac63dccae5620186e911aa4cc7516942f617292a1ac413"], "sequence": 4294967294, "scriptSig": {"hex": "160014d0ff4556d888477f8d47bb1296197435a4e4a24a", "asm": "0014d0ff4556d888477f8d47bb1296197435a4e4a24a"}, "vout": 18, "txid": "79b747fc824d9d7ffd7bdc7fe365dcf54492f4b62f15f4c717911897e9364471"}, {"txinwitness": ["3044022063f20572c777591bfb8b4915bffb9614fd5c7e845f13a9e7eb6d33ebe9f0ef4302205869048070d25a2c159ee4e1b8581d6620ae81974569e4f2bae2d0cce5502f2501", "027086624a53706fba16521500b78466cfd8fe2ac0b38e4aab44a5e4d683b54fe5"], "sequence": 4294967294, "scriptSig": {"hex": "160014c5290134bf1ba79d384ce4526d4e7682c5ba6fb9", "asm": "0014c5290134bf1ba79d384ce4526d4e7682c5ba6fb9"}, "vout": 0, "txid": "867c3e0d8218f202438ccc7a58b0cfc336fa650b145d8e10da672427caf5fbbe"}, {"txinwitness": ["3045022100d2601f34001f05dd538c2ca683968d6772b950118ef651b79a2d8122254c9a5e02204d31391551f40fa64f9ddccb3f07ef98193c7bf08be9f9554a7d3a03b365b15101", "02faef0e29b502578b81e792a0fe5c268473ef851b0169e7ad6f876070e704b5b2"], "sequence": 4294967294, "scriptSig": {"hex": "16001487b4ebcdfc1a0489c2634ba6884b9224f0519d80", "asm": "001487b4ebcdfc1a0489c2634ba6884b9224f0519d80"}, "vout": 0, "txid": "ea9da220daa84c770ac21dac5219908bf2c67135ab1c0cf8850f1c18131585d2"}], "txid": "19cb803f1b6cba5d54360f6b7a4f60cce7f838810f49941fe519994ff5979533", "blocktime": 1537872018, "version": 2, "confirmations": 11489, "time": 1537872018, "locktime": 542993, "vsize": 350, "size": 593}