{"hash": "28f4335e3a74f23642d6b1150fc1dc3e4668ef1a96bcbfe382fe45ba3d602077", "blockhash": "0000000000000000001f76057863aec43deb6fa401d9628bb513d65a8098bfab", "vout": [{"scriptPubKey": {"reqSigs": 1, "hex": "a91449c0244769fd23121461272c3f9dab719f3b4fa687", "addresses": ["38QyRneGRxotL1yE4NTHXVyuYZk7TSCYtD"], "asm": "OP_HASH160 49c0244769fd23121461272c3f9dab719f3b4fa6 OP_EQUAL", "type": "scripthash"}, "value": 0.11511431, "n": 0}, {"scriptPubKey": {"reqSigs": 1, "hex": "a914e5c37ebd86b6a7092f7192ddf9cd055ecfacad0987", "addresses": ["3Ndtri5u9ijpAt3UFQT8d815FCWMPX8PbD"], "asm": "OP_HASH160 e5c37ebd86b6a7092f7192ddf9cd055ecfacad09 OP_EQUAL", "type": "scripthash"}, "value": 1.99345534, "n": 1}], "hex": "020000000001012cac34ec85917452d0548051a8599c60b9f93f47ac6b63d4979aa339ae5eb3c7010000001716001446c3acb604df5dabaa5fd67b3c02b799e873ff23feffffff0287a6af000000000017a91449c0244769fd23121461272c3f9dab719f3b4fa6877ec5e10b0000000017a914e5c37ebd86b6a7092f7192ddf9cd055ecfacad0987024730440220276da618ddb58e3d0548b7666fd2aa1e77dca0b26dd01c3c7af78a37e4172aad02205d72352d6477def02b1276367e3b10906e9f34a6ca2694b4f1fe3118831de4b401210373963bc2708f77488f7fdded26af6b87b52363c3e7c53cc3b855b9d4befa119114490800", "vin": [{"txinwitness": ["30440220276da618ddb58e3d0548b7666fd2aa1e77dca0b26dd01c3c7af78a37e4172aad02205d72352d6477def02b1276367e3b10906e9f34a6ca2694b4f1fe3118831de4b401", "0373963bc2708f77488f7fdded26af6b87b52363c3e7c53cc3b855b9d4befa1191"], "sequence": 4294967294, "scriptSig": {"hex": "16001446c3acb604df5dabaa5fd67b3c02b799e873ff23", "asm": "001446c3acb604df5dabaa5fd67b3c02b799e873ff23"}, "vout": 1, "txid": "c7b35eae39a39a97d4636bac473ff9b9609c59a8518054d052749185ec34ac2c"}], "txid": "19cd9961179cb984e15c9a1aeca496fd64594087f0557a2d60b49cc33faf5f24", "blocktime": 1537873891, "version": 2, "confirmations": 11478, "time": 1537873891, "locktime": 542996, "vsize": 166, "size": 247}