{"hash": "3bdf8e715b09ed6d4777452262609299fcaa665e606259761f35baa98159b68b", "blockhash": "0000000000000000001f76057863aec43deb6fa401d9628bb513d65a8098bfab", "vout": [{"scriptPubKey": {"reqSigs": 1, "hex": "76a9149c2c8643d3d5b0588e19776dba626aea34e25a3088ac", "addresses": ["1FEmkYKzGdDAEqMKuu8WMuzajQKGwrZw27"], "asm": "OP_DUP OP_HASH160 9c2c8643d3d5b0588e19776dba626aea34e25a30 OP_EQUALVERIFY OP_CHECKSIG", "type": "pubkeyhash"}, "value": 0.01837689, "n": 0}, {"scriptPubKey": {"reqSigs": 1, "hex": "0014c313be6210ce932fd50a596d4d506ff81a460f26", "addresses": ["bc1qcvfmucsse6fjl4g2t9k565r0lqdyvrex6622z3"], "asm": "0 c313be6210ce932fd50a596d4d506ff81a460f26", "type": "witness_v0_keyhash"}, "value": 0.00829466, "n": 1}], "hex": "01000000000101514d9a91f9e77d93bc8ac885301e11359364b9ca6b244310435a0f28b89afc9a0000000000ffffffff02790a1c00000000001976a9149c2c8643d3d5b0588e19776dba626aea34e25a3088ac1aa80c0000000000160014c313be6210ce932fd50a596d4d506ff81a460f2602473044022071fbf364f3935b0b3d7b35dc616a566b3a8acc3296e0cfc89e26fcbd67fc54fe022039623c38ffc7812d96bd781fb758b84b51bd5f412353f199e5037baa8edcecff01210303ea4948a3fcbed0d4fce4c89972431ef18b406b67d4d2c28ba0b528443743b000000000", "vin": [{"txinwitness": ["3044022071fbf364f3935b0b3d7b35dc616a566b3a8acc3296e0cfc89e26fcbd67fc54fe022039623c38ffc7812d96bd781fb758b84b51bd5f412353f199e5037baa8edcecff01", "0303ea4948a3fcbed0d4fce4c89972431ef18b406b67d4d2c28ba0b528443743b0"], "sequence": 4294967295, "scriptSig": {"hex": "", "asm": ""}, "vout": 0, "txid": "9afc9ab8280f5a431043246bcab9649335111e3085c88abc937de7f9919a4d51"}], "txid": "19d13aaaa4754c64eb48352ae8173ca963623c5351ca403653143d8de6323a15", "blocktime": 1537873891, "version": 1, "confirmations": 11478, "time": 1537873891, "locktime": 0, "vsize": 144, "size": 225}