{"hash": "19d239e0f0313574d627383def9d75a6cd898c74c9624da733779fa88bb5795c", "blockhash": "00000000000000000004ffacab907a6b429b9a5745fa0b75af4234bf69dd7176", "vout": [{"scriptPubKey": {"reqSigs": 1, "hex": "76a9144154f6a089bb93a8df08d8553b9c53139824ca6b88ac", "addresses": ["16xShq4S9xfB5wg9ygsjGdWCNdNn3M5TB7"], "asm": "OP_DUP OP_HASH160 4154f6a089bb93a8df08d8553b9c53139824ca6b OP_EQUALVERIFY OP_CHECKSIG", "type": "pubkeyhash"}, "value": 0.18069018, "n": 0}, {"scriptPubKey": {"type": "nulldata", "hex": "6a146f6d6e69000000000000001f0000000182d58a80", "asm": "OP_RETURN 6f6d6e69000000000000001f0000000182d58a80"}, "value": 0.0, "n": 1}, {"scriptPubKey": {"reqSigs": 1, "hex": "a914c5d612cd990b518cd5617588f3574bd0ff1399f487", "addresses": ["3Kj5VRDiaCG2Jm4C49ehVrKXBZTKd1gkzZ"], "asm": "OP_HASH160 c5d612cd990b518cd5617588f3574bd0ff1399f4 OP_EQUAL", "type": "scripthash"}, "value": 5.4e-06, "n": 2}], "hex": "0100000001e7c73a8d883a0e96cd304aba7788b74e95432dea02cc57a27ac02ceb4232f4f6000000006b483045022100874a04a4b1f82077fb65bc55e51d63ec9784b7fde43b0339743a784ae44db82e0220275f1a8365fd2d89b7b1c349439aa28c27e8fe0876beb4cb1e35ce4897c603560121037b4dfd3443e4416545224a9948974ff3503705964d5e2885f50b7b251275fe1fffffffff031ab61301000000001976a9144154f6a089bb93a8df08d8553b9c53139824ca6b88ac0000000000000000166a146f6d6e69000000000000001f0000000182d58a801c0200000000000017a914c5d612cd990b518cd5617588f3574bd0ff1399f48700000000", "vin": [{"sequence": 4294967295, "scriptSig": {"hex": "483045022100874a04a4b1f82077fb65bc55e51d63ec9784b7fde43b0339743a784ae44db82e0220275f1a8365fd2d89b7b1c349439aa28c27e8fe0876beb4cb1e35ce4897c603560121037b4dfd3443e4416545224a9948974ff3503705964d5e2885f50b7b251275fe1f", "asm": "3045022100874a04a4b1f82077fb65bc55e51d63ec9784b7fde43b0339743a784ae44db82e0220275f1a8365fd2d89b7b1c349439aa28c27e8fe0876beb4cb1e35ce4897c60356[ALL] 037b4dfd3443e4416545224a9948974ff3503705964d5e2885f50b7b251275fe1f"}, "vout": 0, "txid": "f6f43242eb2cc07aa257cc02ea2d43954eb78877ba4a30cd960e3a888d3ac7e7"}], "txid": "19d239e0f0313574d627383def9d75a6cd898c74c9624da733779fa88bb5795c", "blocktime": 1537875543, "version": 1, "confirmations": 11464, "time": 1537875543, "locktime": 0, "vsize": 255, "size": 255}