{"hash": "19d822d0217b208a0ebd5637d1fec71092f1aefb1bffbe49e65f4623c6b3a62f", "blockhash": "00000000000000000017f5eb5941039fbcee6240d03bc1f2f8e35350df66a1d8", "vout": [{"scriptPubKey": {"reqSigs": 1, "hex": "0014595ee09243f0c441f476cf0ab4dad5a05c4b9676", "addresses": ["bc1qt90wpyjr7rzyrarkeu9tfkk45pwyh9nk55kjh6"], "asm": "0 595ee09243f0c441f476cf0ab4dad5a05c4b9676", "type": "witness_v0_keyhash"}, "value": 0.00013147, "n": 0}, {"scriptPubKey": {"reqSigs": 1, "hex": "a914c8e933874350c16093e4de0b90a401468b6927b987", "addresses": ["3L1LS24EYDMsLXmsZYWwijqnLHU64EqGy4"], "asm": "OP_HASH160 c8e933874350c16093e4de0b90a401468b6927b9 OP_EQUAL", "type": "scripthash"}, "value": 0.00558686, "n": 1}], "hex": "0100000001d25b90341e09880cc43211cc30d6a41f2ba9bb792981216779eb0540a4e5f0fe620000006a473044022069f863eabb759770887894d25f812a8b9e7d338a5e968dfa677bb406393fa30a022063e877ac416f30d598815822f403043641ad7ab48d8625ac3434d98de12def0001210374074fbdf53e7ecb84fe15908cbf24fc0413ed315e9e4ecfb404434963b23e73ffffffff025b33000000000000160014595ee09243f0c441f476cf0ab4dad5a05c4b96765e8608000000000017a914c8e933874350c16093e4de0b90a401468b6927b98700000000", "vin": [{"sequence": 4294967295, "scriptSig": {"hex": "473044022069f863eabb759770887894d25f812a8b9e7d338a5e968dfa677bb406393fa30a022063e877ac416f30d598815822f403043641ad7ab48d8625ac3434d98de12def0001210374074fbdf53e7ecb84fe15908cbf24fc0413ed315e9e4ecfb404434963b23e73", "asm": "3044022069f863eabb759770887894d25f812a8b9e7d338a5e968dfa677bb406393fa30a022063e877ac416f30d598815822f403043641ad7ab48d8625ac3434d98de12def00[ALL] 0374074fbdf53e7ecb84fe15908cbf24fc0413ed315e9e4ecfb404434963b23e73"}, "vout": 98, "txid": "fef0e5a44005eb796721812979bba92b1fa4d630cc1132c40c88091e34905bd2"}], "txid": "19d822d0217b208a0ebd5637d1fec71092f1aefb1bffbe49e65f4623c6b3a62f", "blocktime": 1537874412, "version": 1, "confirmations": 11467, "time": 1537874412, "locktime": 0, "vsize": 220, "size": 220}