{"hash": "53645837620b477b0136f3cb34e483df60d9f22b0a637057322063fca3a57cf3", "blockhash": "00000000000000000024a2167bbff67b0be802c0b01cdd79e6331c2be6459f87", "vout": [{"scriptPubKey": {"reqSigs": 1, "hex": "76a914557830b67cc5f2894e2e2241025d44eda42b76b288ac", "addresses": ["18nvRGqEJF9iKdGkgYBJ6qFgRZ3e1U4b4s"], "asm": "OP_DUP OP_HASH160 557830b67cc5f2894e2e2241025d44eda42b76b2 OP_EQUALVERIFY OP_CHECKSIG", "type": "pubkeyhash"}, "value": 0.29606148, "n": 0}, {"scriptPubKey": {"reqSigs": 1, "hex": "0014873d1ce451323efff005ab4b148757b41e56f888", "addresses": ["bc1qsu73eez3xgl0luq94d93fp6hks09d7yg3stazy"], "asm": "0 873d1ce451323efff005ab4b148757b41e56f888", "type": "witness_v0_keyhash"}, "value": 0.07122775, "n": 1}], "hex": "01000000000101cf841838acb9f4d9528b728f124084c6613aff3ff35011cec1969883055a597a1f000000171600140e3abda88d8b8c1fbcdb7b89c4001bb0317d872affffffff0204c1c301000000001976a914557830b67cc5f2894e2e2241025d44eda42b76b288ac57af6c0000000000160014873d1ce451323efff005ab4b148757b41e56f8880247304402207d78cd873072d156ebdfa45477929d9a21c7a103fe3e6efd14ca24543f9ab24102203ed76f59fae81b89cc3d2dda8339a8f703ec61f7077dbb0f43dda761fd3076de0121033c67140d3a136e59795ad0a7e58eb3cd1f72ba0d0206467886d7c8e5d60a13cd00000000", "vin": [{"txinwitness": ["304402207d78cd873072d156ebdfa45477929d9a21c7a103fe3e6efd14ca24543f9ab24102203ed76f59fae81b89cc3d2dda8339a8f703ec61f7077dbb0f43dda761fd3076de01", "033c67140d3a136e59795ad0a7e58eb3cd1f72ba0d0206467886d7c8e5d60a13cd"], "sequence": 4294967295, "scriptSig": {"hex": "1600140e3abda88d8b8c1fbcdb7b89c4001bb0317d872a", "asm": "00140e3abda88d8b8c1fbcdb7b89c4001bb0317d872a"}, "vout": 31, "txid": "7a595a05839896c1ce1150f33fff3a61c68440128f728b52d9f4b9ac381884cf"}], "txid": "19db082530275cce2716c333ee8c1c6b047b3f6571c72f40be68ad3de29ae3f5", "blocktime": 1537870564, "version": 1, "confirmations": 11515, "time": 1537870564, "locktime": 0, "vsize": 167, "size": 248}