{"hash": "19dcf20251b378c83dea6e4c295567c869b168011b2861df1207ca413f7ab15e", "blockhash": "0000000000000000000e13cef7c366c0283d82e591d1acd082e914b08063cdf1", "vout": [{"scriptPubKey": {"reqSigs": 1, "hex": "76a91405799889395a621a49eda94ddda8e7e14917911088ac", "addresses": ["1Vx3b1ywoaFXzWPxDkZRxTjZhTJzhS5Vb"], "asm": "OP_DUP OP_HASH160 05799889395a621a49eda94ddda8e7e149179110 OP_EQUALVERIFY OP_CHECKSIG", "type": "pubkeyhash"}, "value": 0.00312417, "n": 0}, {"scriptPubKey": {"reqSigs": 1, "hex": "76a91441a9e3508ddf22572eb19cbd9d312ef24e1c634188ac", "addresses": ["16zCSVTAYPGtVLtALUJrqAc5UEe7rvHP36"], "asm": "OP_DUP OP_HASH160 41a9e3508ddf22572eb19cbd9d312ef24e1c6341 OP_EQUALVERIFY OP_CHECKSIG", "type": "pubkeyhash"}, "value": 0.05117449, "n": 1}], "hex": "0100000001e8fbe856335654f3161fbc25ef70f7d90898352d8c0e27d18a3d24a773cb547e010000006b483045022100cf65b684fa130a3e193fd0c3416495559abc2b6c8731a4ee32f8c1e591e596d702204e414deb9f91688bfcdb6567e0884cb356cf1f31824c2d2d142daded63b1314e0121039c46a79e26503324ce913d1397615d11dfc870e52251465f0b24e37aaa36b7c5ffffffff0261c40400000000001976a91405799889395a621a49eda94ddda8e7e14917911088ac09164e00000000001976a91441a9e3508ddf22572eb19cbd9d312ef24e1c634188ac00000000", "vin": [{"sequence": 4294967295, "scriptSig": {"hex": "483045022100cf65b684fa130a3e193fd0c3416495559abc2b6c8731a4ee32f8c1e591e596d702204e414deb9f91688bfcdb6567e0884cb356cf1f31824c2d2d142daded63b1314e0121039c46a79e26503324ce913d1397615d11dfc870e52251465f0b24e37aaa36b7c5", "asm": "3045022100cf65b684fa130a3e193fd0c3416495559abc2b6c8731a4ee32f8c1e591e596d702204e414deb9f91688bfcdb6567e0884cb356cf1f31824c2d2d142daded63b1314e[ALL] 039c46a79e26503324ce913d1397615d11dfc870e52251465f0b24e37aaa36b7c5"}, "vout": 1, "txid": "7e54cb73a7243d8ad1270e8c2d359808d9f770ef25bc1f16f354563356e8fbe8"}], "txid": "19dcf20251b378c83dea6e4c295567c869b168011b2861df1207ca413f7ab15e", "blocktime": 1537871767, "version": 1, "confirmations": 11495, "time": 1537871767, "locktime": 0, "vsize": 226, "size": 226}