{"hash": "19e5c4b64a378622b4e3fe7c8fd2c28170d88445a726abe7c598e5e088702329", "blockhash": "0000000000000000000e13cef7c366c0283d82e591d1acd082e914b08063cdf1", "vout": [{"scriptPubKey": {"reqSigs": 1, "hex": "76a91464f35584b09d00a2713b399ff04630d2b4abaff688ac", "addresses": ["1ACn5L7woSaJRwfUUxtyNWkmUym7HTx5x6"], "asm": "OP_DUP OP_HASH160 64f35584b09d00a2713b399ff04630d2b4abaff6 OP_EQUALVERIFY OP_CHECKSIG", "type": "pubkeyhash"}, "value": 0.699, "n": 0}, {"scriptPubKey": {"reqSigs": 1, "hex": "76a914bec39cfb7a1e663142a0437848e441df5555720088ac", "addresses": ["1JPfitjpgEBzTR3tWgvTGqaahNVKWJKSeb"], "asm": "OP_DUP OP_HASH160 bec39cfb7a1e663142a0437848e441df55557200 OP_EQUALVERIFY OP_CHECKSIG", "type": "pubkeyhash"}, "value": 0.01086693, "n": 1}], "hex": "0200000004c03c0ee33e54582ed4b11e84ca76caaec87f9852e050155a874c954807e806ff090000006b483045022100b717ff5fc4dbfa3f0fa1e49327bfebe7f0e035d0de8204812df5e9871753c15c0220217a672153138037a6f328e3fdf23c1f48f8c7fadb9853425378cf5ed960334201210339adbc785c0a52c0ba452ed089d6cf56fb47e0e4f597834842eb087bafcdfaddfeffffff05376b7bb92b18a9097f7c655b98573c4d829b7ca6890b3d67ef7616a5ba80410b0000006a47304402206f02200d4d76b272b9380fa2f0bf30e5f3ea11b20f586576930f6394ee21a6bf022032f855cbeb21cf6aee2a25d4d3c16238d815b6ac57893361dded192242c8e8d2012103095d2726c7cedcb6c008235217ea1f1601c7b433aca5fb2421e30eeb73ada086feffffffc71c1e277b0fe13df30b8648d0c81254950b112bd198d64cfba618ccbf60e9d5000000006a473044022051152b73348e7aa6ae2090001c2e7a85fd081d30650ce869987681c26b2022af02202d199f6447c2e3c2fa09de2b230bc07ebd1681042126997ed8983f89c569fdfe0121024f5d4dbda35be716b9747d9b962474fda9de5e95af2d3a780c8deb5b85890ee2feffffffa6a4df2e07af33462eca188e7965fb781fd019716902344f5555a35480da317e000000006b48304502210087f664f798ec2dbaf58ad4e7a2daddd27d93985ba3ca9dd62897d37a663e34750220289887458e1e22b178cce2ac6f9004088d8edad7ca1275f17011eb14e8dd1b00012102eaf66206530e718e1f6d395eee0eb8ce65f9fdbf03dbd5ae274d4701e8ad7ef5feffffff02e0962a04000000001976a91464f35584b09d00a2713b399ff04630d2b4abaff688ace5941000000000001976a914bec39cfb7a1e663142a0437848e441df5555720088ac0f490800", "vin": [{"sequence": 4294967294, "scriptSig": {"hex": "483045022100b717ff5fc4dbfa3f0fa1e49327bfebe7f0e035d0de8204812df5e9871753c15c0220217a672153138037a6f328e3fdf23c1f48f8c7fadb9853425378cf5ed960334201210339adbc785c0a52c0ba452ed089d6cf56fb47e0e4f597834842eb087bafcdfadd", "asm": "3045022100b717ff5fc4dbfa3f0fa1e49327bfebe7f0e035d0de8204812df5e9871753c15c0220217a672153138037a6f328e3fdf23c1f48f8c7fadb9853425378cf5ed9603342[ALL] 0339adbc785c0a52c0ba452ed089d6cf56fb47e0e4f597834842eb087bafcdfadd"}, "vout": 9, "txid": "ff06e80748954c875a1550e052987fc8aeca76ca841eb1d42e58543ee30e3cc0"}, {"sequence": 4294967294, "scriptSig": {"hex": "47304402206f02200d4d76b272b9380fa2f0bf30e5f3ea11b20f586576930f6394ee21a6bf022032f855cbeb21cf6aee2a25d4d3c16238d815b6ac57893361dded192242c8e8d2012103095d2726c7cedcb6c008235217ea1f1601c7b433aca5fb2421e30eeb73ada086", "asm": "304402206f02200d4d76b272b9380fa2f0bf30e5f3ea11b20f586576930f6394ee21a6bf022032f855cbeb21cf6aee2a25d4d3c16238d815b6ac57893361dded192242c8e8d2[ALL] 03095d2726c7cedcb6c008235217ea1f1601c7b433aca5fb2421e30eeb73ada086"}, "vout": 11, "txid": "4180baa51676ef673d0b89a67c9b824d3c57985b657c7f09a9182bb97b6b3705"}, {"sequence": 4294967294, "scriptSig": {"hex": "473044022051152b73348e7aa6ae2090001c2e7a85fd081d30650ce869987681c26b2022af02202d199f6447c2e3c2fa09de2b230bc07ebd1681042126997ed8983f89c569fdfe0121024f5d4dbda35be716b9747d9b962474fda9de5e95af2d3a780c8deb5b85890ee2", "asm": "3044022051152b73348e7aa6ae2090001c2e7a85fd081d30650ce869987681c26b2022af02202d199f6447c2e3c2fa09de2b230bc07ebd1681042126997ed8983f89c569fdfe[ALL] 024f5d4dbda35be716b9747d9b962474fda9de5e95af2d3a780c8deb5b85890ee2"}, "vout": 0, "txid": "d5e960bfcc18a6fb4cd698d12b110b955412c8d048860bf33de10f7b271e1cc7"}, {"sequence": 4294967294, "scriptSig": {"hex": "48304502210087f664f798ec2dbaf58ad4e7a2daddd27d93985ba3ca9dd62897d37a663e34750220289887458e1e22b178cce2ac6f9004088d8edad7ca1275f17011eb14e8dd1b00012102eaf66206530e718e1f6d395eee0eb8ce65f9fdbf03dbd5ae274d4701e8ad7ef5", "asm": "304502210087f664f798ec2dbaf58ad4e7a2daddd27d93985ba3ca9dd62897d37a663e34750220289887458e1e22b178cce2ac6f9004088d8edad7ca1275f17011eb14e8dd1b00[ALL] 02eaf66206530e718e1f6d395eee0eb8ce65f9fdbf03dbd5ae274d4701e8ad7ef5"}, "vout": 0, "txid": "7e31da8054a355554f3402697119d01f78fb65798e18ca2e4633af072edfa4a6"}], "txid": "19e5c4b64a378622b4e3fe7c8fd2c28170d88445a726abe7c598e5e088702329", "blocktime": 1537871767, "version": 2, "confirmations": 11490, "time": 1537871767, "locktime": 542991, "vsize": 668, "size": 668}