{"hash": "59e3393ec2b5bf281eb8897b84cc6f622e40e56f119b87727b4eeb49e42f40c0", "blockhash": "0000000000000000001e0dab787dd257d1dbfcb92a98c2207d5e1078be1f4165", "vout": [{"scriptPubKey": {"reqSigs": 1, "hex": "76a9147148b98519df6b20860e0d69ef87d9192393002688ac", "addresses": ["1BKzUgFPKMLsVvQ7DzmjYsivt9Xrryi4YS"], "asm": "OP_DUP OP_HASH160 7148b98519df6b20860e0d69ef87d91923930026 OP_EQUALVERIFY OP_CHECKSIG", "type": "pubkeyhash"}, "value": 0.002, "n": 0}, {"scriptPubKey": {"reqSigs": 1, "hex": "a9147020d4091bbcdf0241e416f3c853eaa5a876e48387", "addresses": ["3ButvybJP1FjKMnr2iajkrvDqEzRPVYapV"], "asm": "OP_HASH160 7020d4091bbcdf0241e416f3c853eaa5a876e483 OP_EQUAL", "type": "scripthash"}, "value": 0.2591, "n": 1}, {"scriptPubKey": {"reqSigs": 1, "hex": "a914aeca0ee20f17bf5974e1a397eb611c90a36f374c87", "addresses": ["3HdDZAgUGKYBb6u1HrDSNBmozSHtTd1Mfy"], "asm": "OP_HASH160 aeca0ee20f17bf5974e1a397eb611c90a36f374c OP_EQUAL", "type": "scripthash"}, "value": 0.46229395, "n": 2}], "hex": "010000000001011dd5bf73dd003753b3082d98cac309098d62eadde03e772e770625aed5f7f4ab0600000023220020d0797fee70447ecc373efc1b4fb02c048321aacdbb6344fc09b0d336ea6ec16affffffff03400d0300000000001976a9147148b98519df6b20860e0d69ef87d9192393002688acf05a8b010000000017a9147020d4091bbcdf0241e416f3c853eaa5a876e483879367c1020000000017a914aeca0ee20f17bf5974e1a397eb611c90a36f374c870400483045022100f5eaafad3a6be1bc9b1a3f1a51049c4087346a2e6af374130e6e472a0a1b8a1a022074ebfe977e746b3f4d64930ec39d69f697814572598f3fd24c0e768dcf7bb43d0147304402201457edb17cf49a943ea5ad600c04d463cc255f820ba253b99f0d61987353f0b502200d52d75f1c9ef13e45cbbdfa1f6a1e8f36dfdea50ddcf5bbd66ce382fb85cedd016952210360a2e20d63816eec284f3b092ecd071d0a89abfa791ad0cf2e8bfb0c7803e8c22103638a33d0cbb362d70c3fcb1cc54df6a306a89d811aed625de2cd69e5deb56c8b210379b7de8005e45a7a94dc0482597d3dd617d32420e66090af9aaa11a84efdcdd753ae00000000", "vin": [{"txinwitness": ["", "3045022100f5eaafad3a6be1bc9b1a3f1a51049c4087346a2e6af374130e6e472a0a1b8a1a022074ebfe977e746b3f4d64930ec39d69f697814572598f3fd24c0e768dcf7bb43d01", "304402201457edb17cf49a943ea5ad600c04d463cc255f820ba253b99f0d61987353f0b502200d52d75f1c9ef13e45cbbdfa1f6a1e8f36dfdea50ddcf5bbd66ce382fb85cedd01", "52210360a2e20d63816eec284f3b092ecd071d0a89abfa791ad0cf2e8bfb0c7803e8c22103638a33d0cbb362d70c3fcb1cc54df6a306a89d811aed625de2cd69e5deb56c8b210379b7de8005e45a7a94dc0482597d3dd617d32420e66090af9aaa11a84efdcdd753ae"], "sequence": 4294967295, "scriptSig": {"hex": "220020d0797fee70447ecc373efc1b4fb02c048321aacdbb6344fc09b0d336ea6ec16a", "asm": "0020d0797fee70447ecc373efc1b4fb02c048321aacdbb6344fc09b0d336ea6ec16a"}, "vout": 6, "txid": "abf4f7d5ae2506772e773ee0ddea628d0909c3ca982d08b3533700dd73bfd51d"}], "txid": "19e65d358109e8b45452427578dc6b0a504a902fedbfd01243eab735ab877e09", "blocktime": 1537872475, "version": 1, "confirmations": 11487, "time": 1537872475, "locktime": 0, "vsize": 248, "size": 439}