{"hash": "19e7d53cb700fb8cbaf484524d08fa6d4b643bae89a45bdfcf622f03cda72f3e", "blockhash": "00000000000000000018f53835495a110e01622372bf6ae95dc86f2b0ab887b0", "vout": [{"scriptPubKey": {"reqSigs": 1, "hex": "76a914300c834d9d80a7398a3703db093d4a79026e150388ac", "addresses": ["15P4RcwMjqr5PWqXDvCM3GVVW4asxMEgpC"], "asm": "OP_DUP OP_HASH160 300c834d9d80a7398a3703db093d4a79026e1503 OP_EQUALVERIFY OP_CHECKSIG", "type": "pubkeyhash"}, "value": 0.0001, "n": 0}, {"scriptPubKey": {"reqSigs": 1, "hex": "76a91404aea18ed121a7e4c909c40a9ae0964fe42833fe88ac", "addresses": ["1RkuMBBokDBhBzwZyMNt2qe3Nz9Lo2hMd"], "asm": "OP_DUP OP_HASH160 04aea18ed121a7e4c909c40a9ae0964fe42833fe OP_EQUALVERIFY OP_CHECKSIG", "type": "pubkeyhash"}, "value": 1.59989427, "n": 1}], "hex": "0100000001783f0487e4e62a11c04ba22dd808d4dcaf834ea4099ea576b2a39efb0ae7d4be010000006b483045022100ac7b3a0b73825668ac10fada36c84bf17ccce722b09e40414198545ee4fbb8ce0220670d006ba829c427fa8c71c68ade90615d0d76af3ff102ec1a294ec2678835e9012102fe0647de4e0ac2ee4aa42b93705164b0c4c0e600beb69d77b6f0bc666f526f0bffffffff0210270000000000001976a914300c834d9d80a7398a3703db093d4a79026e150388acb33e8909000000001976a91404aea18ed121a7e4c909c40a9ae0964fe42833fe88ac00000000", "vin": [{"sequence": 4294967295, "scriptSig": {"hex": "483045022100ac7b3a0b73825668ac10fada36c84bf17ccce722b09e40414198545ee4fbb8ce0220670d006ba829c427fa8c71c68ade90615d0d76af3ff102ec1a294ec2678835e9012102fe0647de4e0ac2ee4aa42b93705164b0c4c0e600beb69d77b6f0bc666f526f0b", "asm": "3045022100ac7b3a0b73825668ac10fada36c84bf17ccce722b09e40414198545ee4fbb8ce0220670d006ba829c427fa8c71c68ade90615d0d76af3ff102ec1a294ec2678835e9[ALL] 02fe0647de4e0ac2ee4aa42b93705164b0c4c0e600beb69d77b6f0bc666f526f0b"}, "vout": 1, "txid": "bed4e70afb9ea3b276a59e09a44e83afdcd408d82da24bc0112ae6e487043f78"}], "txid": "19e7d53cb700fb8cbaf484524d08fa6d4b643bae89a45bdfcf622f03cda72f3e", "blocktime": 1537870928, "version": 1, "confirmations": 11514, "time": 1537870928, "locktime": 0, "vsize": 226, "size": 226}