{"hash": "19eaf9f58228cdbfe4146ba9237a2ef0e5564ca88ab67cab3c22013d3fd666b8", "blockhash": "0000000000000000001cda96e906b7601b7a6fb1a3b62bca570a9e5d8f4b3de1", "vout": [{"scriptPubKey": {"reqSigs": 1, "hex": "a914328bcf0550fcadb0791e3b9d6ca92e88c5636a7887", "addresses": ["36JHCDGSj1XLGSJzZ67jvSqsAPAg5nfTHW"], "asm": "OP_HASH160 328bcf0550fcadb0791e3b9d6ca92e88c5636a78 OP_EQUAL", "type": "scripthash"}, "value": 0.0483091, "n": 0}, {"scriptPubKey": {"reqSigs": 1, "hex": "76a914234abdba65700b2bf904a2b7ced561f4fb77d1be88ac", "addresses": ["14DcBpUSLkk1AJ3M19pKHybqb8vfqo5b1c"], "asm": "OP_DUP OP_HASH160 234abdba65700b2bf904a2b7ced561f4fb77d1be OP_EQUALVERIFY OP_CHECKSIG", "type": "pubkeyhash"}, "value": 0.00072769, "n": 1}], "hex": "01000000016a1660cf57a59ffc9de00c1d5ff3236b72184d05c43cc63b6ac2f3a131176836010000006a473044022069e31b5762f750eea6f6472f75194f7fd20f75e1b4eebd1a91494e585f6e19eb0220548a4f73fde9ae13b2ba94d808c8d65b06553aeb0bf1548887db5397028068d90121026655d79587574384078887716c74599ebb11acaff588cde0ab6312628b7352c1ffffffff02beb649000000000017a914328bcf0550fcadb0791e3b9d6ca92e88c5636a7887411c0100000000001976a914234abdba65700b2bf904a2b7ced561f4fb77d1be88ac00000000", "vin": [{"sequence": 4294967295, "scriptSig": {"hex": "473044022069e31b5762f750eea6f6472f75194f7fd20f75e1b4eebd1a91494e585f6e19eb0220548a4f73fde9ae13b2ba94d808c8d65b06553aeb0bf1548887db5397028068d90121026655d79587574384078887716c74599ebb11acaff588cde0ab6312628b7352c1", "asm": "3044022069e31b5762f750eea6f6472f75194f7fd20f75e1b4eebd1a91494e585f6e19eb0220548a4f73fde9ae13b2ba94d808c8d65b06553aeb0bf1548887db5397028068d9[ALL] 026655d79587574384078887716c74599ebb11acaff588cde0ab6312628b7352c1"}, "vout": 1, "txid": "36681731a1f3c26a3bc63cc4054d18726b23f35f1d0ce09dfc9fa557cf60166a"}], "txid": "19eaf9f58228cdbfe4146ba9237a2ef0e5564ca88ab67cab3c22013d3fd666b8", "blocktime": 1537873282, "version": 1, "confirmations": 11484, "time": 1537873282, "locktime": 0, "vsize": 223, "size": 223}