{"hash": "19ed442940263eaf8501b621ed0486fa205f94583e8e5c04aed0d5b41a5151d5", "blockhash": "000000000000000000022b45ed06c6f4ccd3cf7fb5ba4856ebd2e58215665228", "vout": [{"scriptPubKey": {"reqSigs": 1, "hex": "76a9140f52f65e67c9b87ac427571e1b6276e863ec5def88ac", "addresses": ["12Q2XCs4SGfpPSdEeoxnVXtxpbyFF9w9gP"], "asm": "OP_DUP OP_HASH160 0f52f65e67c9b87ac427571e1b6276e863ec5def OP_EQUALVERIFY OP_CHECKSIG", "type": "pubkeyhash"}, "value": 5.4121, "n": 0}, {"scriptPubKey": {"reqSigs": 1, "hex": "76a9146ca16451537e8425a0c1ab89e4bc5ae46189a41488ac", "addresses": ["1AuPKRRebb8gxwbVBNRAwHFtiP8A1thuUT"], "asm": "OP_DUP OP_HASH160 6ca16451537e8425a0c1ab89e4bc5ae46189a414 OP_EQUALVERIFY OP_CHECKSIG", "type": "pubkeyhash"}, "value": 1.246e-05, "n": 1}], "hex": "0100000004e335fd67a0093942504eb40704d48cd88dc732a1477597d2981b01e699012aa9000000006b4830450221009adf8f19ea3973f97c64a03583c09a15b73bc947832d74adcfdf6ac987826c8d0220073e96e3faca29abe297f11f6b9e00ed4695ebf0080ea95ce0e04276b4a3a7a3012103b49f06919f2ada7dd627aa7aceec0586e41f814de38a5913f495bddcb791703effffffffc94e8c74799a572d24733441d7acd5866318465b896cb2281c09bcbeded89f05470000006b483045022100d341e94cb481df6d479520b94a03edbffe2ee0a1ecec8a4c836db558bfb33c65022072b6808220403ad18833cf498d93e4301f5098e50aa6aa7662a2025bcc64ea34012103b49f06919f2ada7dd627aa7aceec0586e41f814de38a5913f495bddcb791703effffffff2d1c2f58dd08564ad2033a39e74e45be6cca31ce076e7294e15b641ed1bd4cef000000006b483045022100f62c1e790e3b4573a7d7b77d151adaa09d6962956462e30343e9e48c39646ca602200267e068241a25ec1ec2c5c714e24b6ca36d5df4454b7e30f82ce681ce67f463012103b49f06919f2ada7dd627aa7aceec0586e41f814de38a5913f495bddcb791703effffffff0be1c5e682ea2971c6139e8be90633943c61f7aa1b4c3e189e85936f1fd505a35b0000006b483045022100f3861041d64fccb0bd3f2a4eefa8ddf452b8dde89f9cba1790d0c716602ecdcf02202ab498f72a311e55017ee46b4f93c6498ab1fc487b9d68560c218d0a51ff356a012102e3fe211a575d71209977db92b79d1b93f6b7beaa2129dfae44a3c75386e54296ffffffff0290354220000000001976a9140f52f65e67c9b87ac427571e1b6276e863ec5def88acde040000000000001976a9146ca16451537e8425a0c1ab89e4bc5ae46189a41488ac00000000", "vin": [{"sequence": 4294967295, "scriptSig": {"hex": "4830450221009adf8f19ea3973f97c64a03583c09a15b73bc947832d74adcfdf6ac987826c8d0220073e96e3faca29abe297f11f6b9e00ed4695ebf0080ea95ce0e04276b4a3a7a3012103b49f06919f2ada7dd627aa7aceec0586e41f814de38a5913f495bddcb791703e", "asm": "30450221009adf8f19ea3973f97c64a03583c09a15b73bc947832d74adcfdf6ac987826c8d0220073e96e3faca29abe297f11f6b9e00ed4695ebf0080ea95ce0e04276b4a3a7a3[ALL] 03b49f06919f2ada7dd627aa7aceec0586e41f814de38a5913f495bddcb791703e"}, "vout": 0, "txid": "a92a0199e6011b98d2977547a132c78dd88cd40407b44e50423909a067fd35e3"}, {"sequence": 4294967295, "scriptSig": {"hex": "483045022100d341e94cb481df6d479520b94a03edbffe2ee0a1ecec8a4c836db558bfb33c65022072b6808220403ad18833cf498d93e4301f5098e50aa6aa7662a2025bcc64ea34012103b49f06919f2ada7dd627aa7aceec0586e41f814de38a5913f495bddcb791703e", "asm": "3045022100d341e94cb481df6d479520b94a03edbffe2ee0a1ecec8a4c836db558bfb33c65022072b6808220403ad18833cf498d93e4301f5098e50aa6aa7662a2025bcc64ea34[ALL] 03b49f06919f2ada7dd627aa7aceec0586e41f814de38a5913f495bddcb791703e"}, "vout": 71, "txid": "059fd8debebc091c28b26c895b46186386d5acd7413473242d579a79748c4ec9"}, {"sequence": 4294967295, "scriptSig": {"hex": "483045022100f62c1e790e3b4573a7d7b77d151adaa09d6962956462e30343e9e48c39646ca602200267e068241a25ec1ec2c5c714e24b6ca36d5df4454b7e30f82ce681ce67f463012103b49f06919f2ada7dd627aa7aceec0586e41f814de38a5913f495bddcb791703e", "asm": "3045022100f62c1e790e3b4573a7d7b77d151adaa09d6962956462e30343e9e48c39646ca602200267e068241a25ec1ec2c5c714e24b6ca36d5df4454b7e30f82ce681ce67f463[ALL] 03b49f06919f2ada7dd627aa7aceec0586e41f814de38a5913f495bddcb791703e"}, "vout": 0, "txid": "ef4cbdd11e645be194726e07ce31ca6cbe454ee7393a03d24a5608dd582f1c2d"}, {"sequence": 4294967295, "scriptSig": {"hex": "483045022100f3861041d64fccb0bd3f2a4eefa8ddf452b8dde89f9cba1790d0c716602ecdcf02202ab498f72a311e55017ee46b4f93c6498ab1fc487b9d68560c218d0a51ff356a012102e3fe211a575d71209977db92b79d1b93f6b7beaa2129dfae44a3c75386e54296", "asm": "3045022100f3861041d64fccb0bd3f2a4eefa8ddf452b8dde89f9cba1790d0c716602ecdcf02202ab498f72a311e55017ee46b4f93c6498ab1fc487b9d68560c218d0a51ff356a[ALL] 02e3fe211a575d71209977db92b79d1b93f6b7beaa2129dfae44a3c75386e54296"}, "vout": 91, "txid": "a305d51f6f93859e183e4c1baaf7613c943306e98b9e13c67129ea82e6c5e10b"}], "txid": "19ed442940263eaf8501b621ed0486fa205f94583e8e5c04aed0d5b41a5151d5", "blocktime": 1537869901, "version": 1, "confirmations": 11522, "time": 1537869901, "locktime": 0, "vsize": 670, "size": 670}