{"hash": "7bc214dd964227ba0efbf6aacb2d9c2eead4c0dc3b7b61a687068500f1a10e8a", "blockhash": "00000000000000000024a2167bbff67b0be802c0b01cdd79e6331c2be6459f87", "vout": [{"scriptPubKey": {"reqSigs": 1, "hex": "76a9147153f3d2669f71fd69d637e1b572c94330d2dcd788ac", "addresses": ["1BLDvo3ccfdq1umEha6dPbLj5JZWg5TCFQ"], "asm": "OP_DUP OP_HASH160 7153f3d2669f71fd69d637e1b572c94330d2dcd7 OP_EQUALVERIFY OP_CHECKSIG", "type": "pubkeyhash"}, "value": 0.002, "n": 0}, {"scriptPubKey": {"reqSigs": 1, "hex": "a9143e0c71f86ee630746a3a33523fb53ff51dbaec2d87", "addresses": ["37M6j9LzK9SmruwMQm4kSNLvitttBpcYkw"], "asm": "OP_HASH160 3e0c71f86ee630746a3a33523fb53ff51dbaec2d OP_EQUAL", "type": "scripthash"}, "value": 0.02050245, "n": 1}], "hex": "02000000000101f6235178891927765a9d265c905c55aec93d53f871cb2e6055904b669a50a6a800000000171600140a8b9fb3a9430cd3d7510c513f20fe646ac8df15feffffff02400d0300000000001976a9147153f3d2669f71fd69d637e1b572c94330d2dcd788acc5481f000000000017a9143e0c71f86ee630746a3a33523fb53ff51dbaec2d870247304402200b2a9caa092ea75485f7d964d923f4dcf78be7ceabae8e0ec8fa3d3fd7f238af02204369e347fd58c6aea1550dda15245ef35f80c5bbd2f7e2da2e594e78cf73039201210368465ef312b0ceb854e783cd302455550a250639280e85c23952c112e17d29100d490800", "vin": [{"txinwitness": ["304402200b2a9caa092ea75485f7d964d923f4dcf78be7ceabae8e0ec8fa3d3fd7f238af02204369e347fd58c6aea1550dda15245ef35f80c5bbd2f7e2da2e594e78cf73039201", "0368465ef312b0ceb854e783cd302455550a250639280e85c23952c112e17d2910"], "sequence": 4294967294, "scriptSig": {"hex": "1600140a8b9fb3a9430cd3d7510c513f20fe646ac8df15", "asm": "00140a8b9fb3a9430cd3d7510c513f20fe646ac8df15"}, "vout": 0, "txid": "a8a6509a664b9055602ecb71f8533dc9ae555c905c269d5a76271989785123f6"}], "txid": "19f4478e283d8ad171c013a8ca80183e35665913ad12ca46e2fa6ca19bd7ab6a", "blocktime": 1537870564, "version": 2, "confirmations": 11515, "time": 1537870564, "locktime": 542989, "vsize": 168, "size": 249}