{"hash": "49b0f056d6f350015e23148fedac79afd730fd5706a42607c4c26f245c0b9e00", "blockhash": "0000000000000000000baef3f32e3676a92c3b2e5da21b426e4f302fc371ce76", "vout": [{"scriptPubKey": {"reqSigs": 1, "hex": "a914e6dc9cb61f147a9159e7db326790c7275f57590387", "addresses": ["3Njhd4n3kXnDAJ5XoYA3aCcPCutkaAPdJD"], "asm": "OP_HASH160 e6dc9cb61f147a9159e7db326790c7275f575903 OP_EQUAL", "type": "scripthash"}, "value": 0.87599782, "n": 0}, {"scriptPubKey": {"reqSigs": 1, "hex": "a91420ef516efc12d9bc95d114f17a482456b8b4884087", "addresses": ["34hAEo61Eyvix9Z9VrJ2BpiN6gBsa8RByV"], "asm": "OP_HASH160 20ef516efc12d9bc95d114f17a482456b8b48840 OP_EQUAL", "type": "scripthash"}, "value": 0.015, "n": 1}], "hex": "020000000001010e827ae2d7093ff3379f2e094476efe0dc63e8b63145854137b0ef44844c8b210000000017160014747539a63b9bd844037625820010d351aa453ecefdffffff02a6aa38050000000017a914e6dc9cb61f147a9159e7db326790c7275f5759038760e316000000000017a91420ef516efc12d9bc95d114f17a482456b8b488408702483045022100c0176519783f2ff973533d0426445c63d456af5376b7d7a90e39048546721185022053eaee24af0874995a1ce8c9c1f36d5233d4820a046251e2c3f8d7e9bf693cc2012103d160c35688271dfa7ea504f79da94e58aca162218fa78f2decf8e89bb2da9bc615490800", "vin": [{"txinwitness": ["3045022100c0176519783f2ff973533d0426445c63d456af5376b7d7a90e39048546721185022053eaee24af0874995a1ce8c9c1f36d5233d4820a046251e2c3f8d7e9bf693cc201", "03d160c35688271dfa7ea504f79da94e58aca162218fa78f2decf8e89bb2da9bc6"], "sequence": 4294967293, "scriptSig": {"hex": "160014747539a63b9bd844037625820010d351aa453ece", "asm": "0014747539a63b9bd844037625820010d351aa453ece"}, "vout": 0, "txid": "218b4c8444efb03741854531b6e863dce0ef7644092e9f37f33f09d7e27a820e"}], "txid": "19f78176c3b9be2ee36eba2b1be1c099f811521efc4d6013a067da9ab2438ea9", "blocktime": 1537876114, "version": 2, "confirmations": 11460, "time": 1537876114, "locktime": 542997, "vsize": 166, "size": 248}