{"hash": "19f8772c2b6f3ae0da592dd6db030e14676aaa508f37f8d3d9ee9638d0afb7af", "blockhash": "000000000000000000022b45ed06c6f4ccd3cf7fb5ba4856ebd2e58215665228", "vout": [{"scriptPubKey": {"reqSigs": 1, "hex": "76a914a039f5a63cad5e30b7ae66a2299731a61985879488ac", "addresses": ["1FcCYo4pf5YdySVTBRd2GiTYd2abmKQ3q8"], "asm": "OP_DUP OP_HASH160 a039f5a63cad5e30b7ae66a2299731a619858794 OP_EQUALVERIFY OP_CHECKSIG", "type": "pubkeyhash"}, "value": 3.189e-05, "n": 0}, {"scriptPubKey": {"reqSigs": 1, "hex": "76a9141ece9a0812ee85fc7ccce70b071dcd166c5d96f588ac", "addresses": ["13otmh7rn4uCFFTmx7Wpdcx4fyfoxi32jz"], "asm": "OP_DUP OP_HASH160 1ece9a0812ee85fc7ccce70b071dcd166c5d96f5 OP_EQUALVERIFY OP_CHECKSIG", "type": "pubkeyhash"}, "value": 0.056142, "n": 1}], "hex": "01000000036cf2a81f7209841c953b2d2b01fc75a81ab7199c3db100f42f7fcf6d021b7518010000006a473044022045a213ec7baeebe7846d1dbf670801d918f9e80acd33d114b759bb8bf8e73fbe02203a751c4413db31f4a73d6dbf3de8b09d7fa6283bbfaccaa21ceb95d41a688f110121026ac20cf3d0938a52b2210f3a9a5d271f0408e574e0a53c8db56e02e1e270296effffffff304ac480608cf2c32303e15a7bae050a55732c1deb18d03674e0dd177573a1ae010000006b483045022100c5cde57982aa2bd746a70d22df073b17809b48b9caa664510517253ab667071302203b7d9291d86bdfb9a49e98ab263b40c191e0bea6eb557748cab419597793b3b0012102a59c920be7911e89e2c84c657a366e61baa7976b48cd456ad8a3d0e12504eeadffffffffb7d4acf0576073d9524374414733eeab96c64a0daf3f8a882c7028c999d1fbd2010000006b483045022100968d9bfdf8a8f276d43d8b5dd490cfdd753195411c560e353be54c5ccc8fb12102206291f46ebf87881993c27cb47b6eee445381b38cff6e6a5265d2be93cfdf9d640121028b8be2bb586a34ee4c39c3b687e4178fcada1d5e55ab7cd5b956f3f3c266eb52ffffffff02750c0000000000001976a914a039f5a63cad5e30b7ae66a2299731a61985879488ac78aa5500000000001976a9141ece9a0812ee85fc7ccce70b071dcd166c5d96f588ac00000000", "vin": [{"sequence": 4294967295, "scriptSig": {"hex": "473044022045a213ec7baeebe7846d1dbf670801d918f9e80acd33d114b759bb8bf8e73fbe02203a751c4413db31f4a73d6dbf3de8b09d7fa6283bbfaccaa21ceb95d41a688f110121026ac20cf3d0938a52b2210f3a9a5d271f0408e574e0a53c8db56e02e1e270296e", "asm": "3044022045a213ec7baeebe7846d1dbf670801d918f9e80acd33d114b759bb8bf8e73fbe02203a751c4413db31f4a73d6dbf3de8b09d7fa6283bbfaccaa21ceb95d41a688f11[ALL] 026ac20cf3d0938a52b2210f3a9a5d271f0408e574e0a53c8db56e02e1e270296e"}, "vout": 1, "txid": "18751b026dcf7f2ff400b13d9c19b71aa875fc012b2d3b951c8409721fa8f26c"}, {"sequence": 4294967295, "scriptSig": {"hex": "483045022100c5cde57982aa2bd746a70d22df073b17809b48b9caa664510517253ab667071302203b7d9291d86bdfb9a49e98ab263b40c191e0bea6eb557748cab419597793b3b0012102a59c920be7911e89e2c84c657a366e61baa7976b48cd456ad8a3d0e12504eead", "asm": "3045022100c5cde57982aa2bd746a70d22df073b17809b48b9caa664510517253ab667071302203b7d9291d86bdfb9a49e98ab263b40c191e0bea6eb557748cab419597793b3b0[ALL] 02a59c920be7911e89e2c84c657a366e61baa7976b48cd456ad8a3d0e12504eead"}, "vout": 1, "txid": "aea1737517dde07436d018eb1d2c73550a05ae7b5ae10323c3f28c6080c44a30"}, {"sequence": 4294967295, "scriptSig": {"hex": "483045022100968d9bfdf8a8f276d43d8b5dd490cfdd753195411c560e353be54c5ccc8fb12102206291f46ebf87881993c27cb47b6eee445381b38cff6e6a5265d2be93cfdf9d640121028b8be2bb586a34ee4c39c3b687e4178fcada1d5e55ab7cd5b956f3f3c266eb52", "asm": "3045022100968d9bfdf8a8f276d43d8b5dd490cfdd753195411c560e353be54c5ccc8fb12102206291f46ebf87881993c27cb47b6eee445381b38cff6e6a5265d2be93cfdf9d64[ALL] 028b8be2bb586a34ee4c39c3b687e4178fcada1d5e55ab7cd5b956f3f3c266eb52"}, "vout": 1, "txid": "d2fbd199c928702c888a3faf0d4ac696abee334741744352d9736057f0acd4b7"}], "txid": "19f8772c2b6f3ae0da592dd6db030e14676aaa508f37f8d3d9ee9638d0afb7af", "blocktime": 1537869901, "version": 1, "confirmations": 11524, "time": 1537869901, "locktime": 0, "vsize": 521, "size": 521}