{"hash": "19f9062f74d4487c7c5b552d38127440821e96e54a204d04d27bc9e08a938efc", "blockhash": "0000000000000000001f76057863aec43deb6fa401d9628bb513d65a8098bfab", "vout": [{"scriptPubKey": {"type": "nulldata", "hex": "6a4c50000077d90001e2f44b7af8e8e963c7cfd5b95b23cc0f42c2fc38c5e5bf9ae76da98a211a07db48f46fdb9c29dca5443a9ed423bd5baa15920612ad038fbbd7ea1d100759d4ba30d2c37bb011d97e02cf", "asm": "OP_RETURN 000077d90001e2f44b7af8e8e963c7cfd5b95b23cc0f42c2fc38c5e5bf9ae76da98a211a07db48f46fdb9c29dca5443a9ed423bd5baa15920612ad038fbbd7ea1d100759d4ba30d2c37bb011d97e02cf"}, "value": 0.0, "n": 0}, {"scriptPubKey": {"reqSigs": 1, "hex": "76a914d7f20b5d2752221976589d6771e1be9f440f5fbc88ac", "addresses": ["1LgpEnPfdQ1J3t3RtJo1LrjAHVrgWzz6rf"], "asm": "OP_DUP OP_HASH160 d7f20b5d2752221976589d6771e1be9f440f5fbc OP_EQUALVERIFY OP_CHECKSIG", "type": "pubkeyhash"}, "value": 0.00636341, "n": 1}], "hex": "01000000014584263a79142abf101c6e2f15aae4437461d73b800f796e0c169bcc7c3d42f5000000006a4730440220702ca428030f0b91c49111a5ba38b11ce4af4d2ea230eb2f7b030b9c2a36547002201c16d03bc7b38e33ec9a8b4a68852b9848a060b78b42ca038b5ba99ea3922eb60121024bed76cb14145dec6569cd36a53f9558b6bc6c3d18ea92427348acbb5ae3c4aaffffffff020000000000000000536a4c50000077d90001e2f44b7af8e8e963c7cfd5b95b23cc0f42c2fc38c5e5bf9ae76da98a211a07db48f46fdb9c29dca5443a9ed423bd5baa15920612ad038fbbd7ea1d100759d4ba30d2c37bb011d97e02cfb5b50900000000001976a914d7f20b5d2752221976589d6771e1be9f440f5fbc88ac00000000", "vin": [{"sequence": 4294967295, "scriptSig": {"hex": "4730440220702ca428030f0b91c49111a5ba38b11ce4af4d2ea230eb2f7b030b9c2a36547002201c16d03bc7b38e33ec9a8b4a68852b9848a060b78b42ca038b5ba99ea3922eb60121024bed76cb14145dec6569cd36a53f9558b6bc6c3d18ea92427348acbb5ae3c4aa", "asm": "30440220702ca428030f0b91c49111a5ba38b11ce4af4d2ea230eb2f7b030b9c2a36547002201c16d03bc7b38e33ec9a8b4a68852b9848a060b78b42ca038b5ba99ea3922eb6[ALL] 024bed76cb14145dec6569cd36a53f9558b6bc6c3d18ea92427348acbb5ae3c4aa"}, "vout": 0, "txid": "f5423d7ccc9b160c6e790f803bd7617443e4aa152f6e1c10bf2a14793a268445"}], "txid": "19f9062f74d4487c7c5b552d38127440821e96e54a204d04d27bc9e08a938efc", "blocktime": 1537873891, "version": 1, "confirmations": 11478, "time": 1537873891, "locktime": 0, "vsize": 283, "size": 283}