{"hash": "2cc75e2ed81891bbbadddf990d65004bb7b0db02a2b9cfa796454f8073c0bc86", "blockhash": "00000000000000000004ffacab907a6b429b9a5745fa0b75af4234bf69dd7176", "vout": [{"scriptPubKey": {"reqSigs": 1, "hex": "76a91432e7e3fe47d6861a6eef4bdcbbd3926ca2200fa388ac", "addresses": ["15eAadhhBJnhUeGHXrDMqBDbo33AvJngUv"], "asm": "OP_DUP OP_HASH160 32e7e3fe47d6861a6eef4bdcbbd3926ca2200fa3 OP_EQUALVERIFY OP_CHECKSIG", "type": "pubkeyhash"}, "value": 0.038667, "n": 0}, {"scriptPubKey": {"reqSigs": 1, "hex": "a914dee0a1cc9f055700143e0f4ecee53180ab3530dc87", "addresses": ["3N1V2qWA5hpScEmS72pMooYRmXUiLmwPQQ"], "asm": "OP_HASH160 dee0a1cc9f055700143e0f4ecee53180ab3530dc OP_EQUAL", "type": "scripthash"}, "value": 0.33315827, "n": 1}], "hex": "020000000001015a8d537af3262bdaf06d5d87759765fec80e43019a63f3f2a41d9097028d00380100000017160014cb5dbe423de4d42b6425c6921084c6197a5d2937ffffffff024c003b00000000001976a91432e7e3fe47d6861a6eef4bdcbbd3926ca2200fa388acf35bfc010000000017a914dee0a1cc9f055700143e0f4ecee53180ab3530dc8702473044022069ce67706249a8c7070924d94e8fbf316556c30ee739e160b70c51a4eb32aa1702202748c66828f764b696cfa026232d634103c54375e4a13225da027883c2ebe731012102acecad485eda786cbe0422823b7594aea6854abb5ec85e267f1c4b87f3f758f700000000", "vin": [{"txinwitness": ["3044022069ce67706249a8c7070924d94e8fbf316556c30ee739e160b70c51a4eb32aa1702202748c66828f764b696cfa026232d634103c54375e4a13225da027883c2ebe73101", "02acecad485eda786cbe0422823b7594aea6854abb5ec85e267f1c4b87f3f758f7"], "sequence": 4294967295, "scriptSig": {"hex": "160014cb5dbe423de4d42b6425c6921084c6197a5d2937", "asm": "0014cb5dbe423de4d42b6425c6921084c6197a5d2937"}, "vout": 1, "txid": "38008d0297901da4f2f3639a01430ec8fe659775875d6df0da2b26f37a538d5a"}], "txid": "19ff07687960fa06a51f17919a0192b2bf7e6976476edfa79b059071a25b41c6", "blocktime": 1537875543, "version": 2, "confirmations": 11464, "time": 1537875543, "locktime": 0, "vsize": 168, "size": 249}