{"hash": "1a001f8d1b60a0428a0d7a21d1f8a1040e1ea70d0677608834ed9f2934170854", "blockhash": "00000000000000000004ffacab907a6b429b9a5745fa0b75af4234bf69dd7176", "vout": [{"scriptPubKey": {"reqSigs": 1, "hex": "76a9148db928dd738f0f5091d13e78cbf77a704f0999f688ac", "addresses": ["1DvN6AYup4wzCnjxaKhgwFYkbpP7X5sJzS"], "asm": "OP_DUP OP_HASH160 8db928dd738f0f5091d13e78cbf77a704f0999f6 OP_EQUALVERIFY OP_CHECKSIG", "type": "pubkeyhash"}, "value": 0.00361322, "n": 0}, {"scriptPubKey": {"reqSigs": 1, "hex": "76a9145a6238878a08b86508b65bb1cad668c64636169288ac", "addresses": ["19EuUmUbq7stjbdpgv4aj5pUYY2mTJ8mMP"], "asm": "OP_DUP OP_HASH160 5a6238878a08b86508b65bb1cad668c646361692 OP_EQUALVERIFY OP_CHECKSIG", "type": "pubkeyhash"}, "value": 0.03914, "n": 1}], "hex": "01000000026695ddf3b20bacbeb6e45e0c0060668f68bc28f451cfdf1dc0391d377bf51b83010000006a473044022004d8669512117e3221425caffa0455b0ed442cd1ffeef595a51184ed02220ca8022004c7e320e61edc14386363c19a62506c21eea79679da93f5c20b62746e06c224012102859abb248d330b2f405c288c250e609a8d0e9d9f61aa3fbd61889fe1da3048dbfffffffff321f84a5efaaff18b5cb3e16da96ae4120ab4ee49659d0477f52d227e34eed5010000006b483045022100aaba28c59b83f749e1fef3223b84a1f94d3837068bbb9e00f6e28dcb0ebb8291022044271c542e88c55a98a8a5158de5b840d2040e27836aa53ca135a068515ec3610121039761854c4133561dc7ce40e98af716c935536eaa65c9070acdf292b702079ac6ffffffff026a830500000000001976a9148db928dd738f0f5091d13e78cbf77a704f0999f688ac10b93b00000000001976a9145a6238878a08b86508b65bb1cad668c64636169288ac00000000", "vin": [{"sequence": 4294967295, "scriptSig": {"hex": "473044022004d8669512117e3221425caffa0455b0ed442cd1ffeef595a51184ed02220ca8022004c7e320e61edc14386363c19a62506c21eea79679da93f5c20b62746e06c224012102859abb248d330b2f405c288c250e609a8d0e9d9f61aa3fbd61889fe1da3048db", "asm": "3044022004d8669512117e3221425caffa0455b0ed442cd1ffeef595a51184ed02220ca8022004c7e320e61edc14386363c19a62506c21eea79679da93f5c20b62746e06c224[ALL] 02859abb248d330b2f405c288c250e609a8d0e9d9f61aa3fbd61889fe1da3048db"}, "vout": 1, "txid": "831bf57b371d39c01ddfcf51f428bc688f6660000c5ee4b6beac0bb2f3dd9566"}, {"sequence": 4294967295, "scriptSig": {"hex": "483045022100aaba28c59b83f749e1fef3223b84a1f94d3837068bbb9e00f6e28dcb0ebb8291022044271c542e88c55a98a8a5158de5b840d2040e27836aa53ca135a068515ec3610121039761854c4133561dc7ce40e98af716c935536eaa65c9070acdf292b702079ac6", "asm": "3045022100aaba28c59b83f749e1fef3223b84a1f94d3837068bbb9e00f6e28dcb0ebb8291022044271c542e88c55a98a8a5158de5b840d2040e27836aa53ca135a068515ec361[ALL] 039761854c4133561dc7ce40e98af716c935536eaa65c9070acdf292b702079ac6"}, "vout": 1, "txid": "d5ee347e222df577049d6549eeb40a12e46aa96de1b35c8bf1affa5e4af821f3"}], "txid": "1a001f8d1b60a0428a0d7a21d1f8a1040e1ea70d0677608834ed9f2934170854", "blocktime": 1537875543, "version": 1, "confirmations": 11464, "time": 1537875543, "locktime": 0, "vsize": 373, "size": 373}