{"hash": "50003baef103f28929c40c554cec564afd97058e6c76c1102bbbce9568227b44", "blockhash": "00000000000000000017f5eb5941039fbcee6240d03bc1f2f8e35350df66a1d8", "vout": [{"scriptPubKey": {"reqSigs": 1, "hex": "a914b44337f216fcdcf0a5895a72e8c4169a68ef293e87", "addresses": ["3J8A5VuG2KUQmCweiwHBDfv67VqWTciCM2"], "asm": "OP_HASH160 b44337f216fcdcf0a5895a72e8c4169a68ef293e OP_EQUAL", "type": "scripthash"}, "value": 0.01563396, "n": 0}], "hex": "0100000000010120708f012aff0aa8bee78e47e362a9587dae21b94f9641e9b10b125184c107a4010000001716001459dd43254a37f310f3b20c96092227a95c6d06bdffffffff0104db17000000000017a914b44337f216fcdcf0a5895a72e8c4169a68ef293e8702473044022059f490d0087379bd9c994e397f927e70f097075510e6ff8753851ae730175b4302206c50134d39f2f07b643eb96f2f7734795dde91c3d1fc1811be81ad93ee6bf66301210307da22c1c3073c2e650d13a12a720af4433e7341aea707939b3c4e796b67ffcb00000000", "vin": [{"txinwitness": ["3044022059f490d0087379bd9c994e397f927e70f097075510e6ff8753851ae730175b4302206c50134d39f2f07b643eb96f2f7734795dde91c3d1fc1811be81ad93ee6bf66301", "0307da22c1c3073c2e650d13a12a720af4433e7341aea707939b3c4e796b67ffcb"], "sequence": 4294967295, "scriptSig": {"hex": "16001459dd43254a37f310f3b20c96092227a95c6d06bd", "asm": "001459dd43254a37f310f3b20c96092227a95c6d06bd"}, "vout": 1, "txid": "a407c18451120bb1e941964fb921ae7d58a962e3478ee7bea80aff2a018f7020"}], "txid": "1a00602157afabea6ff72dc54365cddff1e78a7fb850abcb9bb940d691c837d8", "blocktime": 1537874412, "version": 1, "confirmations": 11468, "time": 1537874412, "locktime": 0, "vsize": 134, "size": 215}