{"hash": "b9ee25d60c7f95319d5d787f38fae2b53f790357e0925c98ff5ac6231132ca40", "blockhash": "0000000000000000000baef3f32e3676a92c3b2e5da21b426e4f302fc371ce76", "vout": [{"scriptPubKey": {"reqSigs": 1, "hex": "a9146c18303b729586a764a210e9f7d4b7cee6883f3687", "addresses": ["3BYZsuEf4XFM6XkxzToyzYsUACXMz7cip3"], "asm": "OP_HASH160 6c18303b729586a764a210e9f7d4b7cee6883f36 OP_EQUAL", "type": "scripthash"}, "value": 0.00284558, "n": 0}, {"scriptPubKey": {"reqSigs": 1, "hex": "a9149649ad6d2730bb28020a268d9d80df10a9f74ad487", "addresses": ["3FPfYWwfMfKMGY7fuPHvz2b73RhTNGzsm3"], "asm": "OP_HASH160 9649ad6d2730bb28020a268d9d80df10a9f74ad4 OP_EQUAL", "type": "scripthash"}, "value": 13.78580117, "n": 1}], "hex": "010000000001012072897d80a9bea824eed9fe68da379c0b2dee83356c8b7959dbf52a3ea035c801000000232200207768efcc1e5eb3d28410fac3f45831004c860cc24cddd940a616b34324823fceffffffff028e5704000000000017a9146c18303b729586a764a210e9f7d4b7cee6883f368795762b520000000017a9149649ad6d2730bb28020a268d9d80df10a9f74ad48704004730440220444358c0c2f8b43037d7cb93ed8ad5033eb96c5f1a74c27f12efdc212727336e02205c69186b2c434e0fd38509fbd3a974ed0da2dc4468b9bc71975e6e4621bdd30a0147304402201e85f4ac08a5074ffd7176c0695350f9bdfbb587d600aa5ea2402ee21725a63a022041ec82b56427c0edd2a0823ab990d9e0357e041407998ecec90ab559a201d9220147522102529d5d1f6733ab45d9d50e07db42c7f6b967ae321c38b726c2247f149959b8262103d0c936a5988dd8421c63240496b723b0ec42400c38b9350e32c2eb4f47d8796952ae00000000", "vin": [{"txinwitness": ["", "30440220444358c0c2f8b43037d7cb93ed8ad5033eb96c5f1a74c27f12efdc212727336e02205c69186b2c434e0fd38509fbd3a974ed0da2dc4468b9bc71975e6e4621bdd30a01", "304402201e85f4ac08a5074ffd7176c0695350f9bdfbb587d600aa5ea2402ee21725a63a022041ec82b56427c0edd2a0823ab990d9e0357e041407998ecec90ab559a201d92201", "522102529d5d1f6733ab45d9d50e07db42c7f6b967ae321c38b726c2247f149959b8262103d0c936a5988dd8421c63240496b723b0ec42400c38b9350e32c2eb4f47d8796952ae"], "sequence": 4294967295, "scriptSig": {"hex": "2200207768efcc1e5eb3d28410fac3f45831004c860cc24cddd940a616b34324823fce", "asm": "00207768efcc1e5eb3d28410fac3f45831004c860cc24cddd940a616b34324823fce"}, "vout": 1, "txid": "c835a03e2af5db59798b6c3583ee2d0b9c37da68fed9ee24a8bea9807d897220"}], "txid": "1a04f29e0ada383d77a12341f701faf396fdea81c1c982e638d3a55e27bce2ba", "blocktime": 1537876114, "version": 1, "confirmations": 11462, "time": 1537876114, "locktime": 0, "vsize": 205, "size": 370}