{"hash": "1a059329c950710cac322e6d96017bd0f2265727920991b2d110cc5d4b6f8a7e", "blockhash": "00000000000000000017f5eb5941039fbcee6240d03bc1f2f8e35350df66a1d8", "vout": [{"scriptPubKey": {"reqSigs": 1, "hex": "76a914ec24f2c975d1f64d6cfcf60d07e7d494687b731d88ac", "addresses": ["1NXcjVUKzthktcVTjTqnBDJfiTR3h97W51"], "asm": "OP_DUP OP_HASH160 ec24f2c975d1f64d6cfcf60d07e7d494687b731d OP_EQUALVERIFY OP_CHECKSIG", "type": "pubkeyhash"}, "value": 0.0063352, "n": 0}, {"scriptPubKey": {"type": "nulldata", "hex": "6a4c50000077f9000173c6785583fdcd5810d7b003d19ed074892d00f8e87af8e8e963c7cfd5b91c6ec5b79404a56ae471711b4400952f5baa18ec061413bf410ec9cc1d100759d4ba30d2c37bb011d97e02cf", "asm": "OP_RETURN 000077f9000173c6785583fdcd5810d7b003d19ed074892d00f8e87af8e8e963c7cfd5b91c6ec5b79404a56ae471711b4400952f5baa18ec061413bf410ec9cc1d100759d4ba30d2c37bb011d97e02cf"}, "value": 0.0, "n": 1}], "hex": "010000000166151674025e5251e05089b69d93bc041e5741eb9aad747a484132bd9f7fe02f010000006b483045022100cb44975be912aa8e7d48f6fd5ef4df2fbfdd357489354b50eac121ac0655a34d02204347d9cc8fd35ac5a3050fadd7ba03df5f75a64229e54404ee4b52ac8b1bf7d4012103670e467c8924b2dcf0616155be39ad2659208a726e3df9da552fc80319f96c50ffffffff02b0aa0900000000001976a914ec24f2c975d1f64d6cfcf60d07e7d494687b731d88ac0000000000000000536a4c50000077f9000173c6785583fdcd5810d7b003d19ed074892d00f8e87af8e8e963c7cfd5b91c6ec5b79404a56ae471711b4400952f5baa18ec061413bf410ec9cc1d100759d4ba30d2c37bb011d97e02cf00000000", "vin": [{"sequence": 4294967295, "scriptSig": {"hex": "483045022100cb44975be912aa8e7d48f6fd5ef4df2fbfdd357489354b50eac121ac0655a34d02204347d9cc8fd35ac5a3050fadd7ba03df5f75a64229e54404ee4b52ac8b1bf7d4012103670e467c8924b2dcf0616155be39ad2659208a726e3df9da552fc80319f96c50", "asm": "3045022100cb44975be912aa8e7d48f6fd5ef4df2fbfdd357489354b50eac121ac0655a34d02204347d9cc8fd35ac5a3050fadd7ba03df5f75a64229e54404ee4b52ac8b1bf7d4[ALL] 03670e467c8924b2dcf0616155be39ad2659208a726e3df9da552fc80319f96c50"}, "vout": 1, "txid": "2fe07f9fbd3241487a74ad9aeb41571e04bc939db68950e051525e0274161566"}], "txid": "1a059329c950710cac322e6d96017bd0f2265727920991b2d110cc5d4b6f8a7e", "blocktime": 1537874412, "version": 1, "confirmations": 11467, "time": 1537874412, "locktime": 0, "vsize": 284, "size": 284}