{"hash": "7a4e9eb479a179a16991749b340ae0b77846a584a61a8f82e71d8f7f83aba7d2", "blockhash": "0000000000000000000e13cef7c366c0283d82e591d1acd082e914b08063cdf1", "vout": [{"scriptPubKey": {"reqSigs": 1, "hex": "00143ac4bad21191cddd0fb3ec3d13325a5624d3a371", "addresses": ["bc1q8tzt45s3j8xa6ranas73xvj62cjd8gm3d69qs8"], "asm": "0 3ac4bad21191cddd0fb3ec3d13325a5624d3a371", "type": "witness_v0_keyhash"}, "value": 0.01749551, "n": 0}, {"scriptPubKey": {"reqSigs": 1, "hex": "76a9145016a8344c9a6a369a3e54cdc5089c47452d33d488ac", "addresses": ["18JUCayPevcWXnq1m9Ed3eesoSoSsMmoS6"], "asm": "OP_DUP OP_HASH160 5016a8344c9a6a369a3e54cdc5089c47452d33d4 OP_EQUALVERIFY OP_CHECKSIG", "type": "pubkeyhash"}, "value": 0.00886186, "n": 1}], "hex": "010000000001019c82459be0e301d6171cedf29c65276521febb2d5e6cae9d0f7711717a691c440000000000ffffffff022fb21a00000000001600143ac4bad21191cddd0fb3ec3d13325a5624d3a371aa850d00000000001976a9145016a8344c9a6a369a3e54cdc5089c47452d33d488ac02483045022100aca1c05311718f1de8ccaeefd40ce4b090dc4b2b3c45aa0e4043c4c67ca4710702207107eabf64a0cc42fcdaeba3e53fb33323c59bccfc3e88a12a9028d81dc0a6ba01210344522f7d593cb87bf648a6af8713de73f70bccc0727a50e2f0490fe74e9fb39500000000", "vin": [{"txinwitness": ["3045022100aca1c05311718f1de8ccaeefd40ce4b090dc4b2b3c45aa0e4043c4c67ca4710702207107eabf64a0cc42fcdaeba3e53fb33323c59bccfc3e88a12a9028d81dc0a6ba01", "0344522f7d593cb87bf648a6af8713de73f70bccc0727a50e2f0490fe74e9fb395"], "sequence": 4294967295, "scriptSig": {"hex": "", "asm": ""}, "vout": 0, "txid": "441c697a7111770f9dae6c5e2dbbfe216527659cf2ed1c17d601e3e09b45829c"}], "txid": "1a0f5bc963431da6ce64c0b849e53e625f05a31d4adf8e8ef3c9324470ed90e1", "blocktime": 1537871767, "version": 1, "confirmations": 11495, "time": 1537871767, "locktime": 0, "vsize": 144, "size": 226}