{"hash": "1a16319a2f9582a636da7d39fd751c841c2b45886d3a9551db252691be3c66a5", "blockhash": "00000000000000000018f53835495a110e01622372bf6ae95dc86f2b0ab887b0", "vout": [{"scriptPubKey": {"reqSigs": 1, "hex": "a91465a435507104518b35182704fd44904ed0571d0c87", "addresses": ["3AxStJquuBD6tX53dx6JrHAvWToM9AufT4"], "asm": "OP_HASH160 65a435507104518b35182704fd44904ed0571d0c OP_EQUAL", "type": "scripthash"}, "value": 0.00235, "n": 0}, {"scriptPubKey": {"reqSigs": 1, "hex": "76a914a35d018af5ce6a0a500d934acea2680447c6728588ac", "addresses": ["1FtnZSYRqw7Q1AtdfR9bKhTdoJ7X4oCH35"], "asm": "OP_DUP OP_HASH160 a35d018af5ce6a0a500d934acea2680447c67285 OP_EQUALVERIFY OP_CHECKSIG", "type": "pubkeyhash"}, "value": 0.16789713, "n": 1}], "hex": "0100000001fa99d78f5bfdce3eb7fd7a7ef4a88a66512f54745d8118af93752bbd109d8270010000006b483045022100be570ec9d45590bad3a22efd06acdd7d555857da2eedc9df3c02b74a63dd132302203c76eb957d55fd823aceab63af813bc458a03847d823c150b4b7eac6d5aa988f0121037fc40fc759b92f56f2b12932db226157678cc7e7ce84f9204cbd0545bbc02bb1ffffffff02f89503000000000017a91465a435507104518b35182704fd44904ed0571d0c87d1300001000000001976a914a35d018af5ce6a0a500d934acea2680447c6728588ac00000000", "vin": [{"sequence": 4294967295, "scriptSig": {"hex": "483045022100be570ec9d45590bad3a22efd06acdd7d555857da2eedc9df3c02b74a63dd132302203c76eb957d55fd823aceab63af813bc458a03847d823c150b4b7eac6d5aa988f0121037fc40fc759b92f56f2b12932db226157678cc7e7ce84f9204cbd0545bbc02bb1", "asm": "3045022100be570ec9d45590bad3a22efd06acdd7d555857da2eedc9df3c02b74a63dd132302203c76eb957d55fd823aceab63af813bc458a03847d823c150b4b7eac6d5aa988f[ALL] 037fc40fc759b92f56f2b12932db226157678cc7e7ce84f9204cbd0545bbc02bb1"}, "vout": 1, "txid": "70829d10bd2b7593af18815d74542f51668aa8f47e7afdb73ecefd5b8fd799fa"}], "txid": "1a16319a2f9582a636da7d39fd751c841c2b45886d3a9551db252691be3c66a5", "blocktime": 1537870928, "version": 1, "confirmations": 11514, "time": 1537870928, "locktime": 0, "vsize": 224, "size": 224}