{"hash": "1a1b39e4bb0d703d6a935ae22dd1e4b79267c2978301876887d9d2b0456c6409", "blockhash": "0000000000000000000baef3f32e3676a92c3b2e5da21b426e4f302fc371ce76", "vout": [{"scriptPubKey": {"reqSigs": 1, "hex": "76a91496381fd40483be4d4b7b451dc14d965f3fcade1888ac", "addresses": ["1EhHbMxQaq7WfR57JBn5oHHjLhJVqX2hp4"], "asm": "OP_DUP OP_HASH160 96381fd40483be4d4b7b451dc14d965f3fcade18 OP_EQUALVERIFY OP_CHECKSIG", "type": "pubkeyhash"}, "value": 0.07423871, "n": 0}, {"scriptPubKey": {"reqSigs": 1, "hex": "76a9145f2915f7aa299c12f9d5e1598f02db0e14e2441688ac", "addresses": ["19gAQv8YizsqruRPkBfoVpdL8jccnGauq8"], "asm": "OP_DUP OP_HASH160 5f2915f7aa299c12f9d5e1598f02db0e14e24416 OP_EQUALVERIFY OP_CHECKSIG", "type": "pubkeyhash"}, "value": 0.34435464, "n": 1}], "hex": "010000000158d5cd168aa730c424c54686fe38d695a62768e6e0c850dc284cee0119b11aa4010000006a47304402203719ab0610f6dee69952ba9c9e64efc362631f27582509ce2db0a227d644146502202f7121c6a7bd4bdd5d44c3119dd595ed90c29862be38f97c97898304f0fc325a0121027707efdba2bbabd38d96a6cc57cffd1f8b80088124c63af9805f6b871050e319feffffff027f477100000000001976a91496381fd40483be4d4b7b451dc14d965f3fcade1888ac88710d02000000001976a9145f2915f7aa299c12f9d5e1598f02db0e14e2441688ac16490800", "vin": [{"sequence": 4294967294, "scriptSig": {"hex": "47304402203719ab0610f6dee69952ba9c9e64efc362631f27582509ce2db0a227d644146502202f7121c6a7bd4bdd5d44c3119dd595ed90c29862be38f97c97898304f0fc325a0121027707efdba2bbabd38d96a6cc57cffd1f8b80088124c63af9805f6b871050e319", "asm": "304402203719ab0610f6dee69952ba9c9e64efc362631f27582509ce2db0a227d644146502202f7121c6a7bd4bdd5d44c3119dd595ed90c29862be38f97c97898304f0fc325a[ALL] 027707efdba2bbabd38d96a6cc57cffd1f8b80088124c63af9805f6b871050e319"}, "vout": 1, "txid": "a41ab11901ee4c28dc50c8e0e66827a695d638fe8646c524c430a78a16cdd558"}], "txid": "1a1b39e4bb0d703d6a935ae22dd1e4b79267c2978301876887d9d2b0456c6409", "blocktime": 1537876114, "version": 1, "confirmations": 11460, "time": 1537876114, "locktime": 542998, "vsize": 225, "size": 225}