{"hash": "1a21d8abdf1c75b5d209aa44e546f039e61853a6189ed3e112ba4dc2f374037b", "blockhash": "00000000000000000004ffacab907a6b429b9a5745fa0b75af4234bf69dd7176", "vout": [{"scriptPubKey": {"reqSigs": 1, "hex": "76a914d243e6abb9a60fbff430b421d2df4b7d59ec186088ac", "addresses": ["1LAnF8h3qMGx3TSwNUHVneBZUEpwE4gu3D"], "asm": "OP_DUP OP_HASH160 d243e6abb9a60fbff430b421d2df4b7d59ec1860 OP_EQUALVERIFY OP_CHECKSIG", "type": "pubkeyhash"}, "value": 0.00076972, "n": 0}, {"scriptPubKey": {"reqSigs": 1, "hex": "76a9143851f34d13937b673a7d24a1950bb5b21ce94af388ac", "addresses": ["168o1kqNquEJeR9vosUB5fw4eAwcVAgh8P"], "asm": "OP_DUP OP_HASH160 3851f34d13937b673a7d24a1950bb5b21ce94af3 OP_EQUALVERIFY OP_CHECKSIG", "type": "pubkeyhash"}, "value": 5.46e-06, "n": 1}, {"scriptPubKey": {"type": "nulldata", "hex": "6a146f6d6e69000000000000001f000000905ac74760", "asm": "OP_RETURN 6f6d6e69000000000000001f000000905ac74760"}, "value": 0.0, "n": 2}], "hex": "0100000002ef4210be6c0953bbf5cc2ce3054a6273adcfa5bb89a41913918089f562f53376000000006a47304402201c48ef0049209ea27e97272f0a100e9c48c02eff58e6d6c1efb7baa0b27de57d022030ec1c05da912e86a551e9213530d8b4571df4f661e628e5318c76ff3e9217fe01210291295ae320bef9879cbd7d18149eed82a415b09bea1efd6dad4d897370c0e8f7ffffffffd1bd645c6b3db148811b7b504e519b792bd440424b71307d3cfa80326575932a000000006a47304402201a5593365ce555b2ea81efa6a9cb45d0d22227019705233ebf05e857e9b6fa190220798b88d205c39caf6d4151430e244ee1f224930cfed480869bc1fa8208485efc01210271977291b74f1f5f5c42157e8aae804664eaaeccfd097918450d37f28fb94d77ffffffff03ac2c0100000000001976a914d243e6abb9a60fbff430b421d2df4b7d59ec186088ac22020000000000001976a9143851f34d13937b673a7d24a1950bb5b21ce94af388ac0000000000000000166a146f6d6e69000000000000001f000000905ac7476000000000", "vin": [{"sequence": 4294967295, "scriptSig": {"hex": "47304402201c48ef0049209ea27e97272f0a100e9c48c02eff58e6d6c1efb7baa0b27de57d022030ec1c05da912e86a551e9213530d8b4571df4f661e628e5318c76ff3e9217fe01210291295ae320bef9879cbd7d18149eed82a415b09bea1efd6dad4d897370c0e8f7", "asm": "304402201c48ef0049209ea27e97272f0a100e9c48c02eff58e6d6c1efb7baa0b27de57d022030ec1c05da912e86a551e9213530d8b4571df4f661e628e5318c76ff3e9217fe[ALL] 0291295ae320bef9879cbd7d18149eed82a415b09bea1efd6dad4d897370c0e8f7"}, "vout": 0, "txid": "7633f562f58980911319a489bba5cfad73624a05e32cccf5bb53096cbe1042ef"}, {"sequence": 4294967295, "scriptSig": {"hex": "47304402201a5593365ce555b2ea81efa6a9cb45d0d22227019705233ebf05e857e9b6fa190220798b88d205c39caf6d4151430e244ee1f224930cfed480869bc1fa8208485efc01210271977291b74f1f5f5c42157e8aae804664eaaeccfd097918450d37f28fb94d77", "asm": "304402201a5593365ce555b2ea81efa6a9cb45d0d22227019705233ebf05e857e9b6fa190220798b88d205c39caf6d4151430e244ee1f224930cfed480869bc1fa8208485efc[ALL] 0271977291b74f1f5f5c42157e8aae804664eaaeccfd097918450d37f28fb94d77"}, "vout": 0, "txid": "2a9375653280fa3c7d30714b4240d42b799b514e507b1b8148b13d6b5c64bdd1"}], "txid": "1a21d8abdf1c75b5d209aa44e546f039e61853a6189ed3e112ba4dc2f374037b", "blocktime": 1537875543, "version": 1, "confirmations": 11464, "time": 1537875543, "locktime": 0, "vsize": 403, "size": 403}