{"hash": "1a22ee6c4bc1cea4a3fa5b2addf95474e51acc939c26baab6169614388841c68", "blockhash": "0000000000000000001e0dab787dd257d1dbfcb92a98c2207d5e1078be1f4165", "vout": [{"scriptPubKey": {"type": "nulldata", "hex": "6a4c50000077af000133d242bfa6513a9aee3b9501af6c953dd567cf27e7e3ef3236678a62509767e2578ffb078e13fec09074c7521b0a5baa11320612075735e6fe331d100759d4ba30d2c37bb011d97e02cf", "asm": "OP_RETURN 000077af000133d242bfa6513a9aee3b9501af6c953dd567cf27e7e3ef3236678a62509767e2578ffb078e13fec09074c7521b0a5baa11320612075735e6fe331d100759d4ba30d2c37bb011d97e02cf"}, "value": 0.0, "n": 0}, {"scriptPubKey": {"reqSigs": 1, "hex": "76a9144ce348f916593ef4b27b2277b78a048339c43fbd88ac", "addresses": ["181Ydd32dQGEV5DN7MYgkv7BT5f9As4cYp"], "asm": "OP_DUP OP_HASH160 4ce348f916593ef4b27b2277b78a048339c43fbd OP_EQUALVERIFY OP_CHECKSIG", "type": "pubkeyhash"}, "value": 0.00642916, "n": 1}], "hex": "0100000001a35fedffd3c6ab63652c14586dad3b227fc94a0d544172af9fce489b805d5f1d010000006a4730440220015cdc980b69ead86ee6d84df3a5c93675cea55b10aab449aaf02a778c7a48e302201604d2a5bf98fa752a31267a3f84939be8e541c3652bc0023a2f12c255a485760121032dc536f399cb98cc0f1704784ec6b0918843237c138f0583c2f465090f666a48ffffffff020000000000000000536a4c50000077af000133d242bfa6513a9aee3b9501af6c953dd567cf27e7e3ef3236678a62509767e2578ffb078e13fec09074c7521b0a5baa11320612075735e6fe331d100759d4ba30d2c37bb011d97e02cf64cf0900000000001976a9144ce348f916593ef4b27b2277b78a048339c43fbd88ac00000000", "vin": [{"sequence": 4294967295, "scriptSig": {"hex": "4730440220015cdc980b69ead86ee6d84df3a5c93675cea55b10aab449aaf02a778c7a48e302201604d2a5bf98fa752a31267a3f84939be8e541c3652bc0023a2f12c255a485760121032dc536f399cb98cc0f1704784ec6b0918843237c138f0583c2f465090f666a48", "asm": "30440220015cdc980b69ead86ee6d84df3a5c93675cea55b10aab449aaf02a778c7a48e302201604d2a5bf98fa752a31267a3f84939be8e541c3652bc0023a2f12c255a48576[ALL] 032dc536f399cb98cc0f1704784ec6b0918843237c138f0583c2f465090f666a48"}, "vout": 1, "txid": "1d5f5d809b48ce9faf7241540d4ac97f223bad6d58142c6563abc6d3ffed5fa3"}], "txid": "1a22ee6c4bc1cea4a3fa5b2addf95474e51acc939c26baab6169614388841c68", "blocktime": 1537872475, "version": 1, "confirmations": 11486, "time": 1537872475, "locktime": 0, "vsize": 283, "size": 283}