{"hash": "2081a817064372b7a0831bc4409429e8e8c044332ba3f11671d95e04b23082ce", "blockhash": "000000000000000000022b45ed06c6f4ccd3cf7fb5ba4856ebd2e58215665228", "vout": [{"scriptPubKey": {"reqSigs": 1, "hex": "76a9142e1b944fe7ffbe969fc1df8d662fd7b5d6303c9b88ac", "addresses": ["15Co856cRnFRCKwSSzECoyT3ozVhuFoJZ6"], "asm": "OP_DUP OP_HASH160 2e1b944fe7ffbe969fc1df8d662fd7b5d6303c9b OP_EQUALVERIFY OP_CHECKSIG", "type": "pubkeyhash"}, "value": 0.0038776, "n": 0}, {"scriptPubKey": {"reqSigs": 1, "hex": "a914f7b1a47fedcc2013ec0b4dd567b64aa81625578b87", "addresses": ["3QGhdkNDrLgPNR62zL4RkErW5SHXBqWCvU"], "asm": "OP_HASH160 f7b1a47fedcc2013ec0b4dd567b64aa81625578b OP_EQUAL", "type": "scripthash"}, "value": 0.01021726, "n": 1}], "hex": "02000000000102661d1edfc3845c60f07b4d01203ab64ea5479dfbd0ce66e82289cad2895e72a3000000001716001465bdd54ef850a5fdbb51e055979539fe4c2fcd7cfeffffff85eec5e7102d2a5a0ca0489a132f809ee28da3f7b2479a8a8d6ef746cfbdc5840100000017160014f03863c14ea794f5f0a36103c97d4e9780c17887feffffff02b0ea0500000000001976a9142e1b944fe7ffbe969fc1df8d662fd7b5d6303c9b88ac1e970f000000000017a914f7b1a47fedcc2013ec0b4dd567b64aa81625578b8702473044022058ed5c0b57c4cfff3c693043df98c801c4f18f2c1e378a5add1272a662d8f66b02201fe195d2e2f026a13ea4058b2d08c5a4a5b60ab5bfe61ea79640f7a23cadd45c012103ac2557070246458aa921b92a7e07e5262757e14cc5c560eddd0b83bfd3ef1e2802483045022100c18a2c1fdd4eeba9059d6a0cd60b0e4d9c9ce4446226c5ad520322364419c530022068157ef47849ddaebee06c26d7ec856d3915b630a93c8c88113f9b1c44c33d69012103b7b08f3be387071ca3fcc3f171eb6d5cf8a7ba4df2d032bd01ac69593af78a300b490800", "vin": [{"txinwitness": ["3044022058ed5c0b57c4cfff3c693043df98c801c4f18f2c1e378a5add1272a662d8f66b02201fe195d2e2f026a13ea4058b2d08c5a4a5b60ab5bfe61ea79640f7a23cadd45c01", "03ac2557070246458aa921b92a7e07e5262757e14cc5c560eddd0b83bfd3ef1e28"], "sequence": 4294967294, "scriptSig": {"hex": "16001465bdd54ef850a5fdbb51e055979539fe4c2fcd7c", "asm": "001465bdd54ef850a5fdbb51e055979539fe4c2fcd7c"}, "vout": 0, "txid": "a3725e89d2ca8922e866ced0fb9d47a54eb63a20014d7bf0605c84c3df1e1d66"}, {"txinwitness": ["3045022100c18a2c1fdd4eeba9059d6a0cd60b0e4d9c9ce4446226c5ad520322364419c530022068157ef47849ddaebee06c26d7ec856d3915b630a93c8c88113f9b1c44c33d6901", "03b7b08f3be387071ca3fcc3f171eb6d5cf8a7ba4df2d032bd01ac69593af78a30"], "sequence": 4294967294, "scriptSig": {"hex": "160014f03863c14ea794f5f0a36103c97d4e9780c17887", "asm": "0014f03863c14ea794f5f0a36103c97d4e9780c17887"}, "vout": 1, "txid": "84c5bdcf46f76e8d8a9a47b2f7a38de29e802f139a48a00c5a2a2d10e7c5ee85"}], "txid": "1a296bab8775dd839be3116b422825a5c1ab054b444250338a5dce54da2e2ec2", "blocktime": 1537869901, "version": 2, "confirmations": 11524, "time": 1537869901, "locktime": 542987, "vsize": 259, "size": 421}