{"hash": "2a418ef8a5df39455a979fe02cc88ebf4f5af6f407edb9ebcdd51be599ebd4e2", "blockhash": "00000000000000000017f5eb5941039fbcee6240d03bc1f2f8e35350df66a1d8", "vout": [{"scriptPubKey": {"reqSigs": 1, "hex": "a914e520893c3b668ff8e3744188cb5c1ea4b9a5994c87", "addresses": ["3NaXe7rndEJeSHWxpYJMkaJ4jZ3mVxTcW7"], "asm": "OP_HASH160 e520893c3b668ff8e3744188cb5c1ea4b9a5994c OP_EQUAL", "type": "scripthash"}, "value": 0.01447655, "n": 0}, {"scriptPubKey": {"reqSigs": 1, "hex": "001445a6617ce7fadaea8d631b364c1c02b36bfba06d", "addresses": ["bc1qgknxzl88ltdw4rtrrvmyc8qzkd4lhgrdx2qz2y"], "asm": "0 45a6617ce7fadaea8d631b364c1c02b36bfba06d", "type": "witness_v0_keyhash"}, "value": 0.00010334, "n": 1}], "hex": "01000000000101b2819e3fa090bb0a818ff534de3b6717840639d5ee3fec23863257a167053e170000000017160014d1b41e2bcc3540b549746af7d0d1a05d04701aa3ffffffff02e71616000000000017a914e520893c3b668ff8e3744188cb5c1ea4b9a5994c875e2800000000000016001445a6617ce7fadaea8d631b364c1c02b36bfba06d0247304402200373227fb00df733689f7fa71c149a797dd2733a5468e883d1fec729005f6bd702201d4f8149b02d0f720f8ac67f81ef8b43bcf43016bfc383e7b2c94ea1ba59e63e01210306c6aacb00041004f25b1486a074880e4b291ce8af16fbca267f3b350c8cf44d00000000", "vin": [{"txinwitness": ["304402200373227fb00df733689f7fa71c149a797dd2733a5468e883d1fec729005f6bd702201d4f8149b02d0f720f8ac67f81ef8b43bcf43016bfc383e7b2c94ea1ba59e63e01", "0306c6aacb00041004f25b1486a074880e4b291ce8af16fbca267f3b350c8cf44d"], "sequence": 4294967295, "scriptSig": {"hex": "160014d1b41e2bcc3540b549746af7d0d1a05d04701aa3", "asm": "0014d1b41e2bcc3540b549746af7d0d1a05d04701aa3"}, "vout": 0, "txid": "173e0567a157328623ec3feed539068417673bde34f58f810abb90a03f9e81b2"}], "txid": "1a2b79208d1ec6943f10b37d5ea0e1578ea8639514e2a62165b228fb505875e5", "blocktime": 1537874412, "version": 1, "confirmations": 11468, "time": 1537874412, "locktime": 0, "vsize": 165, "size": 246}