{"hash": "1a59a273a8a9f0a9b3f513968e973e884b9904e9c54bb02145584db0d7973de1", "blockhash": "00000000000000000024a2167bbff67b0be802c0b01cdd79e6331c2be6459f87", "vout": [{"scriptPubKey": {"reqSigs": 1, "hex": "76a91462c3ca6bd182f477bfb21553182acd64e3a8376588ac", "addresses": ["1A1DmaRUWAj6fk3rhWYNLYo3DJJcWtbYgL"], "asm": "OP_DUP OP_HASH160 62c3ca6bd182f477bfb21553182acd64e3a83765 OP_EQUALVERIFY OP_CHECKSIG", "type": "pubkeyhash"}, "value": 0.01655183, "n": 0}, {"scriptPubKey": {"reqSigs": 1, "hex": "a91448409a95988bfa9e1ac76ee29d173bb1831fde1387", "addresses": ["38H3y7JGariCHqYH97TMKK1W8M1YDftxaV"], "asm": "OP_HASH160 48409a95988bfa9e1ac76ee29d173bb1831fde13 OP_EQUAL", "type": "scripthash"}, "value": 0.0318989, "n": 1}], "hex": "02000000000101e95ba5bf1ac242eb7b651d677012eda91a1e9a2a4c256bb70db6c0d7f45f01fe05000000171600142ba6b238b1a286ac337a69e5374ec7a5835c2b5bfeffffff028f411900000000001976a91462c3ca6bd182f477bfb21553182acd64e3a8376588ac82ac30000000000017a91448409a95988bfa9e1ac76ee29d173bb1831fde138702483045022100f6d522b8c94179e1ce2d190f26cc41b213bbc415461196551a190e29e9712b4e022062848682d757feb53bb6e27fbbac2fd1aadfbc7c5fbf2723946daefb2be146fa01210249f118e84b12f9416bd61a838a1ad8ad4aa5f8cf0175bcad9974c31a11df383a0d490800", "vin": [{"txinwitness": ["3045022100f6d522b8c94179e1ce2d190f26cc41b213bbc415461196551a190e29e9712b4e022062848682d757feb53bb6e27fbbac2fd1aadfbc7c5fbf2723946daefb2be146fa01", "0249f118e84b12f9416bd61a838a1ad8ad4aa5f8cf0175bcad9974c31a11df383a"], "sequence": 4294967294, "scriptSig": {"hex": "1600142ba6b238b1a286ac337a69e5374ec7a5835c2b5b", "asm": "00142ba6b238b1a286ac337a69e5374ec7a5835c2b5b"}, "vout": 5, "txid": "fe015ff4d7c0b60db76b254c2a9a1e1aa9ed1270671d657beb42c21abfa55be9"}], "txid": "1a2c05a1230803355bbac2ea762f3ad0a90a530d33dd933b9e827b1f390f5ba8", "blocktime": 1537870564, "version": 2, "confirmations": 11515, "time": 1537870564, "locktime": 542989, "vsize": 168, "size": 250}