{"hash": "7e3257493afacb1bb7c2c0115f383cb79276194ae5b774881437762e7ff2d0e3", "blockhash": "00000000000000000004ffacab907a6b429b9a5745fa0b75af4234bf69dd7176", "vout": [{"scriptPubKey": {"reqSigs": 1, "hex": "76a9140429f269a3d2245ee4064173ee288ebb95e9579188ac", "addresses": ["1P1xHs1FYZ8sTuUdzMB4DYWauEfaFjvfi"], "asm": "OP_DUP OP_HASH160 0429f269a3d2245ee4064173ee288ebb95e95791 OP_EQUALVERIFY OP_CHECKSIG", "type": "pubkeyhash"}, "value": 0.01139772, "n": 0}, {"scriptPubKey": {"reqSigs": 1, "hex": "76a9149661a2c230865b5e57ee18a255a4c24cca1ddfc188ac", "addresses": ["1Ei9KdNqRE7H562sWehHFuDjSU491sj6Gb"], "asm": "OP_DUP OP_HASH160 9661a2c230865b5e57ee18a255a4c24cca1ddfc1 OP_EQUALVERIFY OP_CHECKSIG", "type": "pubkeyhash"}, "value": 0.039091, "n": 1}, {"scriptPubKey": {"reqSigs": 1, "hex": "76a9142551b353ad2bf6ab78d2b841ad7769bc62e0af4f88ac", "addresses": ["14QKskNBKnnzEKB4XnivKagvy3UpgywHsj"], "asm": "OP_DUP OP_HASH160 2551b353ad2bf6ab78d2b841ad7769bc62e0af4f OP_EQUALVERIFY OP_CHECKSIG", "type": "pubkeyhash"}, "value": 0.01985101, "n": 2}, {"scriptPubKey": {"reqSigs": 1, "hex": "76a914f23d02e778a2a543e5fa333c51d703fcdd26810588ac", "addresses": ["1P5qcZoKP2nDAn1Rco5Wk8cusuAGJm9SS4"], "asm": "OP_DUP OP_HASH160 f23d02e778a2a543e5fa333c51d703fcdd268105 OP_EQUALVERIFY OP_CHECKSIG", "type": "pubkeyhash"}, "value": 0.03888281, "n": 3}, {"scriptPubKey": {"reqSigs": 1, "hex": "76a914e23530fbdced025834734afb9f7e1104daaa1c7f88ac", "addresses": ["1Md5S9seZoKDB5mCrFusG2BXybVo4rB2oE"], "asm": "OP_DUP OP_HASH160 e23530fbdced025834734afb9f7e1104daaa1c7f OP_EQUALVERIFY OP_CHECKSIG", "type": "pubkeyhash"}, "value": 0.02230044, "n": 4}, {"scriptPubKey": {"reqSigs": 1, "hex": "76a914e6229bdc745516950d71941336c1267784b9342c88ac", "addresses": ["1MyqsnXDMtAjMez44seiYDiymVoV8ZWx76"], "asm": "OP_DUP OP_HASH160 e6229bdc745516950d71941336c1267784b9342c OP_EQUALVERIFY OP_CHECKSIG", "type": "pubkeyhash"}, "value": 0.18214901, "n": 5}, {"scriptPubKey": {"reqSigs": 1, "hex": "76a91408a635f936e27594b6953ba7cb25b3c89bf9cb9f88ac", "addresses": ["1njX4pWPi5VabJJwjmrjEArXTkY1RmWGn"], "asm": "OP_DUP OP_HASH160 08a635f936e27594b6953ba7cb25b3c89bf9cb9f OP_EQUALVERIFY OP_CHECKSIG", "type": "pubkeyhash"}, "value": 0.02790414, "n": 6}, {"scriptPubKey": {"reqSigs": 1, "hex": "76a9143e8ad3e5fe06aecc0d7f8ecfd6d7b4b054a83dc288ac", "addresses": ["16hhCpAQraqhGNEoTsTYR8roQWEvorQZXY"], "asm": "OP_DUP OP_HASH160 3e8ad3e5fe06aecc0d7f8ecfd6d7b4b054a83dc2 OP_EQUALVERIFY OP_CHECKSIG", "type": "pubkeyhash"}, "value": 0.02058502, "n": 7}, {"scriptPubKey": {"reqSigs": 1, "hex": "76a914f5d32949054724026180d875233ea4ad43f76aef88ac", "addresses": ["1PQoWjxqgbx1tLMRyhJRg8kddqPuMRSuDc"], "asm": "OP_DUP OP_HASH160 f5d32949054724026180d875233ea4ad43f76aef OP_EQUALVERIFY OP_CHECKSIG", "type": "pubkeyhash"}, "value": 0.01589621, "n": 8}, {"scriptPubKey": {"reqSigs": 1, "hex": "a9143cf8bfb947b249c634ce452e2080b67c4ab2e12887", "addresses": ["37FQTRzACeC2Se7pgXN1WJH7YA75QsHNXJ"], "asm": "OP_HASH160 3cf8bfb947b249c634ce452e2080b67c4ab2e128 OP_EQUAL", "type": "scripthash"}, "value": 0.05685444, "n": 9}], "hex": "0200000000010113071f8dfed79d1a853feef1236f74161ec390a73c723d70b914a5727fee8eff01000000171600149d14abbeced2ace943cc4bc5d060cbba66b63087fdffffff0a3c641100000000001976a9140429f269a3d2245ee4064173ee288ebb95e9579188aceca53b00000000001976a9149661a2c230865b5e57ee18a255a4c24cca1ddfc188ac4d4a1e00000000001976a9142551b353ad2bf6ab78d2b841ad7769bc62e0af4f88ac99543b00000000001976a914f23d02e778a2a543e5fa333c51d703fcdd26810588ac1c072200000000001976a914e23530fbdced025834734afb9f7e1104daaa1c7f88acf5ef1501000000001976a914e6229bdc745516950d71941336c1267784b9342c88ac0e942a00000000001976a91408a635f936e27594b6953ba7cb25b3c89bf9cb9f88ac06691f00000000001976a9143e8ad3e5fe06aecc0d7f8ecfd6d7b4b054a83dc288ac75411800000000001976a914f5d32949054724026180d875233ea4ad43f76aef88acc4c056000000000017a9143cf8bfb947b249c634ce452e2080b67c4ab2e12887024730440220754a4bd5c43d92a0acf10239923fedd640d79323b0a71018740e7ffec46893f702205683411d214acc36b58f232003af477d7061d7bd47b19be3b0470d3904a6c128012103348c861c2e0ddabfa9fa3b4d9bdd6ad9d25a5b368293d2f2705c7ff7efaca06001000000", "vin": [{"txinwitness": ["30440220754a4bd5c43d92a0acf10239923fedd640d79323b0a71018740e7ffec46893f702205683411d214acc36b58f232003af477d7061d7bd47b19be3b0470d3904a6c12801", "03348c861c2e0ddabfa9fa3b4d9bdd6ad9d25a5b368293d2f2705c7ff7efaca060"], "sequence": 4294967293, "scriptSig": {"hex": "1600149d14abbeced2ace943cc4bc5d060cbba66b63087", "asm": "00149d14abbeced2ace943cc4bc5d060cbba66b63087"}, "vout": 1, "txid": "ff8eee7f72a514b9703d723ca790c31e16746f23f1ee3f851a9dd7fe8d1f0713"}], "txid": "1a2f659eba27f67720683a8eeaf018f5cd9e530631709862ca1f85f95e6dab73", "blocktime": 1537875543, "version": 2, "confirmations": 11464, "time": 1537875543, "locktime": 1, "vsize": 440, "size": 521}