{"hash": "650b6639da6f9c686f210128b4d39baa7659fe3c9fa4243f94bcbdd91c8c6288", "blockhash": "0000000000000000001f0ddff1eddb255c1121bcd4da4f1bc9a0da00cae72433", "vout": [{"scriptPubKey": {"reqSigs": 1, "hex": "a91463066ae31074514da8bc4dd0593f26215b76641b87", "addresses": ["3AicWS3S4MuDpMqVDKAnrrDYSQzmAPmYtf"], "asm": "OP_HASH160 63066ae31074514da8bc4dd0593f26215b76641b OP_EQUAL", "type": "scripthash"}, "value": 3.85140448, "n": 0}, {"scriptPubKey": {"reqSigs": 1, "hex": "76a9145d9e8f6c05140aac444326aaa644f7721af4a63988ac", "addresses": ["19Y1noLnHV2TooKhZv22tXpcH2bwCFKmed"], "asm": "OP_DUP OP_HASH160 5d9e8f6c05140aac444326aaa644f7721af4a639 OP_EQUALVERIFY OP_CHECKSIG", "type": "pubkeyhash"}, "value": 0.151266, "n": 1}], "hex": "020000000001019ff3a9f7da0a3f19600d79dbce2528910e979e38cadcf180d2311701180b30520000000017160014269338489a334c9baeb8dc9c13e6c58960083813feffffff02e0c6f4160000000017a91463066ae31074514da8bc4dd0593f26215b76641b8748d0e600000000001976a9145d9e8f6c05140aac444326aaa644f7721af4a63988ac02483045022100aa150f60b6fa95f93eddecf533391b4bc04abaa4506b378e2ad318b45386335202200483e5976300fab6732fcdce8adbc8830787c14f097718d16c6a641df50761a3012103fb6685886403170f64a24de556831c378a38d752b995777518e98eecbc7c946207490800", "vin": [{"txinwitness": ["3045022100aa150f60b6fa95f93eddecf533391b4bc04abaa4506b378e2ad318b45386335202200483e5976300fab6732fcdce8adbc8830787c14f097718d16c6a641df50761a301", "03fb6685886403170f64a24de556831c378a38d752b995777518e98eecbc7c9462"], "sequence": 4294967294, "scriptSig": {"hex": "160014269338489a334c9baeb8dc9c13e6c58960083813", "asm": "0014269338489a334c9baeb8dc9c13e6c58960083813"}, "vout": 0, "txid": "52300b18011731d280f1dcca389e970e912825cedb790d60193f0adaf7a9f39f"}], "txid": "1a3081025e80f2ceea383d8dc4d71c53a325f6da50628e483ad4e399e07ec99f", "blocktime": 1537872018, "version": 2, "confirmations": 11489, "time": 1537872018, "locktime": 542983, "vsize": 168, "size": 250}