{"hash": "089fa32e230d02873e618341f26f38aef66867dd89503f9baaa8fe4dd9878b82", "blockhash": "0000000000000000001e0dab787dd257d1dbfcb92a98c2207d5e1078be1f4165", "vout": [{"scriptPubKey": {"reqSigs": 1, "hex": "76a914052bbb772bb6b4cac8290d7909652a08c022272a88ac", "addresses": ["1ULmXqkWuRWHA8wAvKp2pNijRuf644dQ8"], "asm": "OP_DUP OP_HASH160 052bbb772bb6b4cac8290d7909652a08c022272a OP_EQUALVERIFY OP_CHECKSIG", "type": "pubkeyhash"}, "value": 0.00401638, "n": 0}, {"scriptPubKey": {"reqSigs": 1, "hex": "0014cb45e6540e9d418219baf5f1f28e936eed7ec1d2", "addresses": ["bc1qedz7v4qwn4qcyxd67hcl9r5ndmkhaswj7e7p45"], "asm": "0 cb45e6540e9d418219baf5f1f28e936eed7ec1d2", "type": "witness_v0_keyhash"}, "value": 7.808e-05, "n": 1}], "hex": "0100000000010170928c216a5b6301eb71793c31a1005060e7155dab0c1d04bdd79ff1db52d9c02e000000171600148e8112661510e488c092e62f54a814822362d843ffffffff02e6200600000000001976a914052bbb772bb6b4cac8290d7909652a08c022272a88ac801e000000000000160014cb45e6540e9d418219baf5f1f28e936eed7ec1d202473044022011767f511e9042fb16445e2af8196883a0514e92a771a5eda52529526aa15d2302205491a5404852c0a56f9eca05b8d16ae584b5b616d139a95e3dc60e6209594c8501210371af930daee0d53c4bf3bf242339f725ffc7b2f781d89d9f05b8a0ffac55ad9d00000000", "vin": [{"txinwitness": ["3044022011767f511e9042fb16445e2af8196883a0514e92a771a5eda52529526aa15d2302205491a5404852c0a56f9eca05b8d16ae584b5b616d139a95e3dc60e6209594c8501", "0371af930daee0d53c4bf3bf242339f725ffc7b2f781d89d9f05b8a0ffac55ad9d"], "sequence": 4294967295, "scriptSig": {"hex": "1600148e8112661510e488c092e62f54a814822362d843", "asm": "00148e8112661510e488c092e62f54a814822362d843"}, "vout": 46, "txid": "c0d952dbf19fd7bd041d0cab5d15e7605000a1313c7971eb01635b6a218c9270"}], "txid": "1a398d8a95cca52cede3545276201f462ddcb3aef9a30fba9ad9f0495185693e", "blocktime": 1537872475, "version": 1, "confirmations": 11487, "time": 1537872475, "locktime": 0, "vsize": 167, "size": 248}