{"hash": "88d7da4303aedb2157019e85df3ad1576df5562b545cad2f16ab9094dad75251", "blockhash": "0000000000000000000baef3f32e3676a92c3b2e5da21b426e4f302fc371ce76", "vout": [{"scriptPubKey": {"reqSigs": 1, "hex": "a914b379977cb382fb04ffa2735bfe80fc1b3e5ec67d87", "addresses": ["3J3zYDwz3JbRfXHz49Mc6xebsdhR9b46NA"], "asm": "OP_HASH160 b379977cb382fb04ffa2735bfe80fc1b3e5ec67d OP_EQUAL", "type": "scripthash"}, "value": 0.07809021, "n": 0}], "hex": "0100000000010185cc8f68c58ef3554b9c5e7084c148469b0a0a97da755c05a9e984ec8e2311ad000000001716001434e2f2f70633e7e6b506e87582e630cb748d90caffffffff01fd2777000000000017a914b379977cb382fb04ffa2735bfe80fc1b3e5ec67d870247304402202cd257ef4f4793afc1aadb66c5a033f24a6c7c37401a85e36965eb82daa25e990220280c99e83d2289ebe9ba3875230c4ccd9db01285bd490fe39d562919b8721b30012103b2827ac7e4306e0a9e14eb22e3a3694cb606ed5689665e53cb71680fe4ff4cf200000000", "vin": [{"txinwitness": ["304402202cd257ef4f4793afc1aadb66c5a033f24a6c7c37401a85e36965eb82daa25e990220280c99e83d2289ebe9ba3875230c4ccd9db01285bd490fe39d562919b8721b3001", "03b2827ac7e4306e0a9e14eb22e3a3694cb606ed5689665e53cb71680fe4ff4cf2"], "sequence": 4294967295, "scriptSig": {"hex": "16001434e2f2f70633e7e6b506e87582e630cb748d90ca", "asm": "001434e2f2f70633e7e6b506e87582e630cb748d90ca"}, "vout": 0, "txid": "ad11238eec84e9a9055c75da970a0a9b4648c184705e9c4b55f38ec5688fcc85"}], "txid": "1a39db433b882e994e65ffaf8ae5a9a825bf6d571b30a8e765b0cddee8a24e92", "blocktime": 1537876114, "version": 1, "confirmations": 11460, "time": 1537876114, "locktime": 0, "vsize": 134, "size": 215}