{"hash": "8239a3e0dba229768968215ff13948ea9a6b0077de1a2adc043f59ce0dde5961", "blockhash": "0000000000000000000dcc0f55137456b1a82d3642486a52398922ac4d620174", "vout": [{"scriptPubKey": {"reqSigs": 1, "hex": "76a914f08a369690078ca9300f8ff18e017c018dcd0c0b88ac", "addresses": ["1NvrkGGTv2yssgivSDLRUGJMZXxBHUSSv3"], "asm": "OP_DUP OP_HASH160 f08a369690078ca9300f8ff18e017c018dcd0c0b OP_EQUALVERIFY OP_CHECKSIG", "type": "pubkeyhash"}, "value": 0.03537457, "n": 0}, {"scriptPubKey": {"reqSigs": 1, "hex": "001437a56fdb56d6ca71e79bb97e6fe158fcf0edb364", "addresses": ["bc1qx7jklk6k6m98reumh9lxlc2clncwmvmylnexuc"], "asm": "0 37a56fdb56d6ca71e79bb97e6fe158fcf0edb364", "type": "witness_v0_keyhash"}, "value": 0.00141448, "n": 1}], "hex": "010000000001017860357168a9a5a3000bc8a1f6256c285add621b9bc1a46374369b50b70e7e600000000000ffffffff0231fa3500000000001976a914f08a369690078ca9300f8ff18e017c018dcd0c0b88ac882802000000000016001437a56fdb56d6ca71e79bb97e6fe158fcf0edb364024730440220240b8022703dc41f59c0df85a95da853dcfc8148e049bb37bf83f571f29cfab202207430cf94a19c080f63dadcc3b2758a92bcb6ae64e14287c9ec011181d2f07523012103fa413955a17244386010b6f7986f769b4f16a12653045364748947efd1f31cfe00000000", "vin": [{"txinwitness": ["30440220240b8022703dc41f59c0df85a95da853dcfc8148e049bb37bf83f571f29cfab202207430cf94a19c080f63dadcc3b2758a92bcb6ae64e14287c9ec011181d2f0752301", "03fa413955a17244386010b6f7986f769b4f16a12653045364748947efd1f31cfe"], "sequence": 4294967295, "scriptSig": {"hex": "", "asm": ""}, "vout": 0, "txid": "607e0eb7509b367463a4c19b1b62dd5a286c25f6a1c80b00a3a5a96871356078"}], "txid": "1a3f5f748b5d952cb897a9b6c8ec36ad570e5138ef78e801c2f98c93963651d7", "blocktime": 1537870268, "version": 1, "confirmations": 11518, "time": 1537870268, "locktime": 0, "vsize": 144, "size": 225}