{"hash": "1a40e28cce7266a81f05722d60f1ab20ca9ebb630a43273ea0e26973fffa50a9", "blockhash": "00000000000000000024a2167bbff67b0be802c0b01cdd79e6331c2be6459f87", "vout": [{"scriptPubKey": {"reqSigs": 1, "hex": "76a914cf1c554c565c1b55859a7d108933c671c1a7bc0588ac", "addresses": ["1Kt6pLN9PvyaQkeJNFnoL6c6LNA6CjM6uz"], "asm": "OP_DUP OP_HASH160 cf1c554c565c1b55859a7d108933c671c1a7bc05 OP_EQUALVERIFY OP_CHECKSIG", "type": "pubkeyhash"}, "value": 0.02942202, "n": 0}, {"scriptPubKey": {"reqSigs": 1, "hex": "76a9143e0447b9fd8a9dd45589a698356d85d90dff3fb988ac", "addresses": ["16ev2HaBjUkQGZnVKAp3bzh6Xrnaosw4S5"], "asm": "OP_DUP OP_HASH160 3e0447b9fd8a9dd45589a698356d85d90dff3fb9 OP_EQUALVERIFY OP_CHECKSIG", "type": "pubkeyhash"}, "value": 0.0455884, "n": 1}], "hex": "0100000001e52f0935bb13b2ea81086deaa0f7012eb9626f85a22523b303e7ad86843df963010000006a47304402207385ac9f310c3321b0a209d47ba8f8c20be6287aa15ff9104bbce359398ab3dc022021a0367d9c4b3c46538a24a989f10772613c3accc98e97ab73a2112f242b9dbb012103c9a9ca90971e8fa00e206bdefba0ee47995889d700faaa629e92a7d6a212d81dffffffff02fae42c00000000001976a914cf1c554c565c1b55859a7d108933c671c1a7bc0588acf88f4500000000001976a9143e0447b9fd8a9dd45589a698356d85d90dff3fb988ac00000000", "vin": [{"sequence": 4294967295, "scriptSig": {"hex": "47304402207385ac9f310c3321b0a209d47ba8f8c20be6287aa15ff9104bbce359398ab3dc022021a0367d9c4b3c46538a24a989f10772613c3accc98e97ab73a2112f242b9dbb012103c9a9ca90971e8fa00e206bdefba0ee47995889d700faaa629e92a7d6a212d81d", "asm": "304402207385ac9f310c3321b0a209d47ba8f8c20be6287aa15ff9104bbce359398ab3dc022021a0367d9c4b3c46538a24a989f10772613c3accc98e97ab73a2112f242b9dbb[ALL] 03c9a9ca90971e8fa00e206bdefba0ee47995889d700faaa629e92a7d6a212d81d"}, "vout": 1, "txid": "63f93d8486ade703b32325a2856f62b92e01f7a0ea6d0881eab213bb35092fe5"}], "txid": "1a40e28cce7266a81f05722d60f1ab20ca9ebb630a43273ea0e26973fffa50a9", "blocktime": 1537870564, "version": 1, "confirmations": 11515, "time": 1537870564, "locktime": 0, "vsize": 225, "size": 225}