{"hash": "1a414a174fb124424056754eaf8a27fd68ae41e18eacf9fbc9465021b87b71cd", "blockhash": "00000000000000000018f53835495a110e01622372bf6ae95dc86f2b0ab887b0", "vout": [{"scriptPubKey": {"reqSigs": 1, "hex": "76a914b7cb94dc77ef0cf2e2da5b263bc3e44a8e68507688ac", "addresses": ["1HkpYCJLSSAtpba6uw2D79u8a6cevotNmj"], "asm": "OP_DUP OP_HASH160 b7cb94dc77ef0cf2e2da5b263bc3e44a8e685076 OP_EQUALVERIFY OP_CHECKSIG", "type": "pubkeyhash"}, "value": 0.0064782, "n": 0}, {"scriptPubKey": {"type": "nulldata", "hex": "6a4c50000077890001786b03e3ef3236678a625097bcbefa6b8351586b4e86aeaeacb577c031fc6e355a38d6d7ccd420ecbba183b6bda85baa0bd90613cc1eef3c38b11d100759d4ba30d2c37bb011d97e02cf", "asm": "OP_RETURN 000077890001786b03e3ef3236678a625097bcbefa6b8351586b4e86aeaeacb577c031fc6e355a38d6d7ccd420ecbba183b6bda85baa0bd90613cc1eef3c38b11d100759d4ba30d2c37bb011d97e02cf"}, "value": 0.0, "n": 1}], "hex": "0100000001de4740b48b07cbee8bd0412eb83e4dec3a08951abc9ef5611cf787ad4b108cf1000000006b483045022100fa6b0750f8e0d5e9758de82639fc625f9837047a3b86a798f16cb422d9fe24720220278ae68207ead362bfdfeae4f4216d4080617b4c2ec34b5954d0065c426a2ed10121023965c6b28a1f49fba01219ae790ce745f3f220745af87bcbcb3a3540eccfdf1dffffffff028ce20900000000001976a914b7cb94dc77ef0cf2e2da5b263bc3e44a8e68507688ac0000000000000000536a4c50000077890001786b03e3ef3236678a625097bcbefa6b8351586b4e86aeaeacb577c031fc6e355a38d6d7ccd420ecbba183b6bda85baa0bd90613cc1eef3c38b11d100759d4ba30d2c37bb011d97e02cf00000000", "vin": [{"sequence": 4294967295, "scriptSig": {"hex": "483045022100fa6b0750f8e0d5e9758de82639fc625f9837047a3b86a798f16cb422d9fe24720220278ae68207ead362bfdfeae4f4216d4080617b4c2ec34b5954d0065c426a2ed10121023965c6b28a1f49fba01219ae790ce745f3f220745af87bcbcb3a3540eccfdf1d", "asm": "3045022100fa6b0750f8e0d5e9758de82639fc625f9837047a3b86a798f16cb422d9fe24720220278ae68207ead362bfdfeae4f4216d4080617b4c2ec34b5954d0065c426a2ed1[ALL] 023965c6b28a1f49fba01219ae790ce745f3f220745af87bcbcb3a3540eccfdf1d"}, "vout": 0, "txid": "f18c104bad87f71c61f59ebc1a95083aec4d3eb82e41d08beecb078bb44047de"}], "txid": "1a414a174fb124424056754eaf8a27fd68ae41e18eacf9fbc9465021b87b71cd", "blocktime": 1537870928, "version": 1, "confirmations": 11513, "time": 1537870928, "locktime": 0, "vsize": 284, "size": 284}