{"hash": "1a45be35c93151b89f15a94ec9fdec32b74bd4c3867da8294b6cde745e3e46fe", "blockhash": "0000000000000000001f76057863aec43deb6fa401d9628bb513d65a8098bfab", "vout": [{"scriptPubKey": {"reqSigs": 1, "hex": "a9143c847ade94e0c3a43a496350365028b8349305e987", "addresses": ["37D1AvTWbLRuAg5Tf4tbRWFQ2BDRnyGXB4"], "asm": "OP_HASH160 3c847ade94e0c3a43a496350365028b8349305e9 OP_EQUAL", "type": "scripthash"}, "value": 0.00254, "n": 0}, {"scriptPubKey": {"reqSigs": 1, "hex": "76a91498a73b7938636a7242bda1d2dd44a64503faad9288ac", "addresses": ["1EvA3fUiYttBM892nYciKxKpoLNrEXqf6Z"], "asm": "OP_DUP OP_HASH160 98a73b7938636a7242bda1d2dd44a64503faad92 OP_EQUALVERIFY OP_CHECKSIG", "type": "pubkeyhash"}, "value": 0.06088, "n": 1}], "hex": "01000000017041701b514050bab16d3a58f7c5479a0b7703442dad1165cc15f3c2d2f19682000000009100473044022000b3db0fb6f6d28702091ce94f42bc7422da6c3758191a501b259251daa98eae022019bf15f44d3c960a1dd55d3e81e54593336b37aa561305596d90077085b06e6f014751210340389f68c53d764f2b6cbc53e446bb76b5ba9d1113cb6025d1f1d59afef194d8210337e113c651dc40596d2f8f3b407061c41aac69833d3541fa1830a681c372559452aeffffffff0230e003000000000017a9143c847ade94e0c3a43a496350365028b8349305e98740e55c00000000001976a91498a73b7938636a7242bda1d2dd44a64503faad9288ac00000000", "vin": [{"sequence": 4294967295, "scriptSig": {"hex": "00473044022000b3db0fb6f6d28702091ce94f42bc7422da6c3758191a501b259251daa98eae022019bf15f44d3c960a1dd55d3e81e54593336b37aa561305596d90077085b06e6f014751210340389f68c53d764f2b6cbc53e446bb76b5ba9d1113cb6025d1f1d59afef194d8210337e113c651dc40596d2f8f3b407061c41aac69833d3541fa1830a681c372559452ae", "asm": "0 3044022000b3db0fb6f6d28702091ce94f42bc7422da6c3758191a501b259251daa98eae022019bf15f44d3c960a1dd55d3e81e54593336b37aa561305596d90077085b06e6f[ALL] 51210340389f68c53d764f2b6cbc53e446bb76b5ba9d1113cb6025d1f1d59afef194d8210337e113c651dc40596d2f8f3b407061c41aac69833d3541fa1830a681c372559452ae"}, "vout": 0, "txid": "8296f1d2c2f315cc6511ad2d4403770b9a47c5f7583a6db1ba5040511b704170"}], "txid": "1a45be35c93151b89f15a94ec9fdec32b74bd4c3867da8294b6cde745e3e46fe", "blocktime": 1537873891, "version": 1, "confirmations": 11478, "time": 1537873891, "locktime": 0, "vsize": 262, "size": 262}