{"hash": "b20153fd4c9df18f9741082cab0820d4fa02da8c264462227f5a2333b712e6a1", "blockhash": "00000000000000000018f53835495a110e01622372bf6ae95dc86f2b0ab887b0", "vout": [{"scriptPubKey": {"reqSigs": 1, "hex": "0014b6f996dbd2f74e602d3ba0fa9a59916f36e4868c", "addresses": ["bc1qkmuedk7j7a8xqtfm5raf5kv3dumwfp5vly0e44"], "asm": "0 b6f996dbd2f74e602d3ba0fa9a59916f36e4868c", "type": "witness_v0_keyhash"}, "value": 5.903e-05, "n": 0}, {"scriptPubKey": {"reqSigs": 1, "hex": "a914bea338e2efbd3d40ef07abb2b5a8a5cb5481316f87", "addresses": ["3K51qsPupCdbRE1TkbGwJATghjq3Qp3PfC"], "asm": "OP_HASH160 bea338e2efbd3d40ef07abb2b5a8a5cb5481316f OP_EQUAL", "type": "scripthash"}, "value": 0.004836, "n": 1}], "hex": "0100000000010183a26ddb79b5bd2883ecb6878dafaf6406d7305271dc8b61b9438dd04df7cd1e0000000000ffffffff020f17000000000000160014b6f996dbd2f74e602d3ba0fa9a59916f36e4868c106107000000000017a914bea338e2efbd3d40ef07abb2b5a8a5cb5481316f870247304402206657433db25fbea3313d4b28755eff4409c01199e0bf035093b5aac3a001444702200ccc1ee4cd1d59566db7d5db4c0b91ebac4aba15507f7f2c10d92b1e7181df33012102c5b4cae2ad9083c53dd5d1c869c3e1d4c84420516d372198719993e430272bcd00000000", "vin": [{"txinwitness": ["304402206657433db25fbea3313d4b28755eff4409c01199e0bf035093b5aac3a001444702200ccc1ee4cd1d59566db7d5db4c0b91ebac4aba15507f7f2c10d92b1e7181df3301", "02c5b4cae2ad9083c53dd5d1c869c3e1d4c84420516d372198719993e430272bcd"], "sequence": 4294967295, "scriptSig": {"hex": "", "asm": ""}, "vout": 0, "txid": "1ecdf74dd08d43b9618bdc715230d70664afaf8d87b6ec8328bdb579db6da283"}], "txid": "1a4d8ed0ef8d91748970cf7bce5e2be4013f58dfa30a84d2da813a0a651a5bcd", "blocktime": 1537870928, "version": 1, "confirmations": 11513, "time": 1537870928, "locktime": 0, "vsize": 142, "size": 223}