{"hash": "1a4fc850ed591098038ddaecf65fda0640d5f049ae35bc8c3f059fb87e70e39a", "blockhash": "00000000000000000017f5eb5941039fbcee6240d03bc1f2f8e35350df66a1d8", "vout": [{"scriptPubKey": {"reqSigs": 1, "hex": "a9148c56d3cbcfbcc37fd895b50667cfe1b21d01824087", "addresses": ["3EV4YGXjCLNbs5psg4yyBYX9wNzALfkWMT"], "asm": "OP_HASH160 8c56d3cbcfbcc37fd895b50667cfe1b21d018240 OP_EQUAL", "type": "scripthash"}, "value": 0.0031916, "n": 0}, {"scriptPubKey": {"reqSigs": 1, "hex": "76a914c8e39ee34fb86e0c81e39393af4ae224ac67299888ac", "addresses": ["1KKCpj92eNSvg5LmCPBmxMduWZ4qHd1q5p"], "asm": "OP_DUP OP_HASH160 c8e39ee34fb86e0c81e39393af4ae224ac672998 OP_EQUALVERIFY OP_CHECKSIG", "type": "pubkeyhash"}, "value": 0.0681782, "n": 1}], "hex": "0100000001189a77c4238b0ec474b7a2dd9c19c7cdb5d2fdb5cf17a882cb0e5da69bf01742010000006a473044022039c86936723df1e72b680e4298fe9291c235679cd61a3a8f946ed2625c1d46e1022064c925ff64f8870e8e26e3719a6cb680ccd1f82a04dfb13ac3f66df779d7b6c20121022437453d4e0858ff37fc2e627cef976c7198e775fe551535279cc8c7ca87c43bffffffff02b8de04000000000017a9148c56d3cbcfbcc37fd895b50667cfe1b21d018240871c086800000000001976a914c8e39ee34fb86e0c81e39393af4ae224ac67299888ac00000000", "vin": [{"sequence": 4294967295, "scriptSig": {"hex": "473044022039c86936723df1e72b680e4298fe9291c235679cd61a3a8f946ed2625c1d46e1022064c925ff64f8870e8e26e3719a6cb680ccd1f82a04dfb13ac3f66df779d7b6c20121022437453d4e0858ff37fc2e627cef976c7198e775fe551535279cc8c7ca87c43b", "asm": "3044022039c86936723df1e72b680e4298fe9291c235679cd61a3a8f946ed2625c1d46e1022064c925ff64f8870e8e26e3719a6cb680ccd1f82a04dfb13ac3f66df779d7b6c2[ALL] 022437453d4e0858ff37fc2e627cef976c7198e775fe551535279cc8c7ca87c43b"}, "vout": 1, "txid": "4217f09ba65d0ecb82a817cfb5fdd2b5cdc7199cdda2b774c40e8b23c4779a18"}], "txid": "1a4fc850ed591098038ddaecf65fda0640d5f049ae35bc8c3f059fb87e70e39a", "blocktime": 1537874412, "version": 1, "confirmations": 11467, "time": 1537874412, "locktime": 0, "vsize": 223, "size": 223}