{"hash": "1a506d5bc0698732b4a67b1e1d48d84ff52effa3aefb321523b89815f7a734f6", "blockhash": "00000000000000000017f5eb5941039fbcee6240d03bc1f2f8e35350df66a1d8", "vout": [{"scriptPubKey": {"reqSigs": 1, "hex": "76a91446024eac69ec357592a834fcfb68e40e4b2234ba88ac", "addresses": ["17PB4k7rbvhnBFh2JzqyHgzqK3vqGFeXVB"], "asm": "OP_DUP OP_HASH160 46024eac69ec357592a834fcfb68e40e4b2234ba OP_EQUALVERIFY OP_CHECKSIG", "type": "pubkeyhash"}, "value": 0.03518594, "n": 0}, {"scriptPubKey": {"reqSigs": 1, "hex": "76a914317a842566ed04eb333e9e4f43e49f380a20163488ac", "addresses": ["15WcsyWDt8kMcvPdniqBeRoJUUPMEJkCQc"], "asm": "OP_DUP OP_HASH160 317a842566ed04eb333e9e4f43e49f380a201634 OP_EQUALVERIFY OP_CHECKSIG", "type": "pubkeyhash"}, "value": 0.00420745, "n": 1}], "hex": "0100000001a2d29a2fd9f947420ee565cbdd6ff7aec429a75d08d0e70273de34254d38334100000000da00483045022100ef4e19b312afe8774b7c5eeb4c0c8595e4bf953b7286352fadd02dedaaaa1de1022071284a9db742536a36fdefb909f3eb7064f1c200f88a02c03e4af2ad8d254a05014730440220648e9124d598f04ee50581c8a73bbfcb6cb9f451d029273823a65b35bd82004f022000dcf14870ab483d587b271d0b7d08174a2adaee54fb918909bbed79e6e317fb0147522102907a54bed8ad74b3f35638c60114ca240a308cb986f3f2f306178869a8880b612103db98d47f7fb2bdc37258c7eebb36b21b9d7d2c30003b83819c97b17df57c945352aeffffffff0282b03500000000001976a91446024eac69ec357592a834fcfb68e40e4b2234ba88ac896b0600000000001976a914317a842566ed04eb333e9e4f43e49f380a20163488ac00000000", "vin": [{"sequence": 4294967295, "scriptSig": {"hex": "00483045022100ef4e19b312afe8774b7c5eeb4c0c8595e4bf953b7286352fadd02dedaaaa1de1022071284a9db742536a36fdefb909f3eb7064f1c200f88a02c03e4af2ad8d254a05014730440220648e9124d598f04ee50581c8a73bbfcb6cb9f451d029273823a65b35bd82004f022000dcf14870ab483d587b271d0b7d08174a2adaee54fb918909bbed79e6e317fb0147522102907a54bed8ad74b3f35638c60114ca240a308cb986f3f2f306178869a8880b612103db98d47f7fb2bdc37258c7eebb36b21b9d7d2c30003b83819c97b17df57c945352ae", "asm": "0 3045022100ef4e19b312afe8774b7c5eeb4c0c8595e4bf953b7286352fadd02dedaaaa1de1022071284a9db742536a36fdefb909f3eb7064f1c200f88a02c03e4af2ad8d254a05[ALL] 30440220648e9124d598f04ee50581c8a73bbfcb6cb9f451d029273823a65b35bd82004f022000dcf14870ab483d587b271d0b7d08174a2adaee54fb918909bbed79e6e317fb[ALL] 522102907a54bed8ad74b3f35638c60114ca240a308cb986f3f2f306178869a8880b612103db98d47f7fb2bdc37258c7eebb36b21b9d7d2c30003b83819c97b17df57c945352ae"}, "vout": 0, "txid": "4133384d2534de7302e7d0085da729c4aef76fddcb65e50e4247f9d92f9ad2a2"}], "txid": "1a506d5bc0698732b4a67b1e1d48d84ff52effa3aefb321523b89815f7a734f6", "blocktime": 1537874412, "version": 1, "confirmations": 11467, "time": 1537874412, "locktime": 0, "vsize": 337, "size": 337}