{"hash": "47c413b799931cd806dec2ef1c5e8f9d165d3ea461fd219b637d0e9a0b144a00", "blockhash": "00000000000000000018f53835495a110e01622372bf6ae95dc86f2b0ab887b0", "vout": [{"scriptPubKey": {"reqSigs": 1, "hex": "a914215cd733aa1886a27828c5fa9b97b0d13588b99e87", "addresses": ["34jRSZ78YVthwPCoMaYM5MNewVcJVNguaZ"], "asm": "OP_HASH160 215cd733aa1886a27828c5fa9b97b0d13588b99e OP_EQUAL", "type": "scripthash"}, "value": 0.0008559, "n": 0}, {"scriptPubKey": {"reqSigs": 1, "hex": "a914a5cb6d8c4286a5de7fe0921dde3267adc77ff9ed87", "addresses": ["3Gof7cexUxQWMSB5e4adGtarBJDNNv4Vjy"], "asm": "OP_HASH160 a5cb6d8c4286a5de7fe0921dde3267adc77ff9ed OP_EQUAL", "type": "scripthash"}, "value": 0.01064792, "n": 1}], "hex": "010000000001017ba660abc6faa9b1f40f6a5da2c87127e38f5deb3fd0763bfc6a8b889cbbab960000000023220020b3338f9571dda5ad799834148ea1ed19d1123924bdbb356e0c8c610b69cfd906ffffffff02564e01000000000017a914215cd733aa1886a27828c5fa9b97b0d13588b99e87583f10000000000017a914a5cb6d8c4286a5de7fe0921dde3267adc77ff9ed870400483045022100ce28680788922924f66f2ec7775264667f758ebee0ea247d97544efa5a47e870022063ff9bdadc8d7079a44e22838d46c9c15631372ee8d5e611e03bc08c7eb42d1a0147304402207eaaf13da07e65ac5f71ac97a2aa64b2e3fb8c8c58de32506e068f046f2d6e19022024073f78be798b13923f73dc9b928fa66c2f9860822f22ee0e0b8befa97cfe7901475221030c187397a5b8dfedda9f5fedc3a23f7c20923351690c4b0247f9bce94499c4202103871fc2ca08e6950b38867e8e6a0e94ee625223d3aa0df5c65f414c6d784467e252ae00000000", "vin": [{"txinwitness": ["", "3045022100ce28680788922924f66f2ec7775264667f758ebee0ea247d97544efa5a47e870022063ff9bdadc8d7079a44e22838d46c9c15631372ee8d5e611e03bc08c7eb42d1a01", "304402207eaaf13da07e65ac5f71ac97a2aa64b2e3fb8c8c58de32506e068f046f2d6e19022024073f78be798b13923f73dc9b928fa66c2f9860822f22ee0e0b8befa97cfe7901", "5221030c187397a5b8dfedda9f5fedc3a23f7c20923351690c4b0247f9bce94499c4202103871fc2ca08e6950b38867e8e6a0e94ee625223d3aa0df5c65f414c6d784467e252ae"], "sequence": 4294967295, "scriptSig": {"hex": "220020b3338f9571dda5ad799834148ea1ed19d1123924bdbb356e0c8c610b69cfd906", "asm": "0020b3338f9571dda5ad799834148ea1ed19d1123924bdbb356e0c8c610b69cfd906"}, "vout": 0, "txid": "96abbb9c888b6afc3b76d03feb5d8fe32771c8a25d6a0ff4b1a9fac6ab60a67b"}], "txid": "1a523387b3b6c7f8bc7ca77d47e0efb916cd199ab7e7ee074f4b8917303985cc", "blocktime": 1537870928, "version": 1, "confirmations": 11514, "time": 1537870928, "locktime": 0, "vsize": 206, "size": 371}