{"hash": "54cedeb0a8760414bceaa4947a383a3925ec8bdbcdaf3778bebf0bc0796a674b", "blockhash": "00000000000000000018f53835495a110e01622372bf6ae95dc86f2b0ab887b0", "vout": [{"scriptPubKey": {"reqSigs": 1, "hex": "76a914b1765c3af65924740e5cab377b404a8b0d06f09a88ac", "addresses": ["1HBLPmfRf9yjLrnX2Qp2MgWCWP4jsMg6d3"], "asm": "OP_DUP OP_HASH160 b1765c3af65924740e5cab377b404a8b0d06f09a OP_EQUALVERIFY OP_CHECKSIG", "type": "pubkeyhash"}, "value": 0.02, "n": 0}, {"scriptPubKey": {"reqSigs": 1, "hex": "00142f68a33af37d1e2d74a88e995d90f17520574941", "addresses": ["bc1q9a52xwhn050z6a9g36v4my83w5s9wj2pgypufy"], "asm": "0 2f68a33af37d1e2d74a88e995d90f17520574941", "type": "witness_v0_keyhash"}, "value": 0.00198905, "n": 1}], "hex": "01000000000101cd54e96cbf05b2ed3f4ded0ddc1596ce6861ae6f18676b5b27f8e4135300385f0000000000ffffffff0280841e00000000001976a914b1765c3af65924740e5cab377b404a8b0d06f09a88acf9080300000000001600142f68a33af37d1e2d74a88e995d90f175205749410247304402205087aee40a603f14ef2d0255aa62a9273e4dbb1cb44397736f7a27f7119f06f1022078e3e5d9d38a0d3090110aa418033bc0f9a6bc6e70dda4988a3cdc48129a711b012103bd8574f28c639b6a1bd5c7ec063a66c2b381d0d29f5cf73e5e53483514ff01e600000000", "vin": [{"txinwitness": ["304402205087aee40a603f14ef2d0255aa62a9273e4dbb1cb44397736f7a27f7119f06f1022078e3e5d9d38a0d3090110aa418033bc0f9a6bc6e70dda4988a3cdc48129a711b01", "03bd8574f28c639b6a1bd5c7ec063a66c2b381d0d29f5cf73e5e53483514ff01e6"], "sequence": 4294967295, "scriptSig": {"hex": "", "asm": ""}, "vout": 0, "txid": "5f38005313e4f8275b6b67186fae6168ce9615dc0ded4d3fedb205bf6ce954cd"}], "txid": "1a5a0280cc4eaccf70e0b705b51bc2b5cd309ac67bbe6df03126c1266167842a", "blocktime": 1537870928, "version": 1, "confirmations": 11512, "time": 1537870928, "locktime": 0, "vsize": 144, "size": 225}