{"hash": "1a5b8a734d69bc3bd296bfb31766aa9e8634c982a6977c3225e0ec3285b9942c", "blockhash": "0000000000000000000dcc0f55137456b1a82d3642486a52398922ac4d620174", "vout": [{"scriptPubKey": {"reqSigs": 1, "hex": "76a914d649d0ba4a40bf269e555f5f3f8e757688bd642a88ac", "addresses": ["1LY42qEauurAh61FYiVwNF4vsaQ4UQYFAH"], "asm": "OP_DUP OP_HASH160 d649d0ba4a40bf269e555f5f3f8e757688bd642a OP_EQUALVERIFY OP_CHECKSIG", "type": "pubkeyhash"}, "value": 0.02942202, "n": 0}, {"scriptPubKey": {"reqSigs": 1, "hex": "76a914d65563860c7f95991054ece367439da99c4fb24c88ac", "addresses": ["1LYHty6B8rVbSRdYsFU9Cj26N4PvC3MPSp"], "asm": "OP_DUP OP_HASH160 d65563860c7f95991054ece367439da99c4fb24c OP_EQUALVERIFY OP_CHECKSIG", "type": "pubkeyhash"}, "value": 0.1927324, "n": 1}], "hex": "0100000001329d7b04dc9fa3d7295e7b85f7c973011487af4ba7b8ddbdcd959aacff80881d010000006b483045022100ef4eb6762de6b4234512e99cc0bae6cb5058e537612541940fe1a72ee32cd45002206d38c9c0deb31a24bcfbd685bbf57aec45dc50e9c3e7ff15bf77e7f94a6b2dca012102e5b20b1917a9ca5d8f0160779b11ab3dd1fc7cdee221a31b2a0c6a33687997a2ffffffff02fae42c00000000001976a914d649d0ba4a40bf269e555f5f3f8e757688bd642a88ac18162601000000001976a914d65563860c7f95991054ece367439da99c4fb24c88ac00000000", "vin": [{"sequence": 4294967295, "scriptSig": {"hex": "483045022100ef4eb6762de6b4234512e99cc0bae6cb5058e537612541940fe1a72ee32cd45002206d38c9c0deb31a24bcfbd685bbf57aec45dc50e9c3e7ff15bf77e7f94a6b2dca012102e5b20b1917a9ca5d8f0160779b11ab3dd1fc7cdee221a31b2a0c6a33687997a2", "asm": "3045022100ef4eb6762de6b4234512e99cc0bae6cb5058e537612541940fe1a72ee32cd45002206d38c9c0deb31a24bcfbd685bbf57aec45dc50e9c3e7ff15bf77e7f94a6b2dca[ALL] 02e5b20b1917a9ca5d8f0160779b11ab3dd1fc7cdee221a31b2a0c6a33687997a2"}, "vout": 1, "txid": "1d8880ffac9a95cdbdddb8a74baf87140173c9f7857b5e29d7a39fdc047b9d32"}], "txid": "1a5b8a734d69bc3bd296bfb31766aa9e8634c982a6977c3225e0ec3285b9942c", "blocktime": 1537870268, "version": 1, "confirmations": 11518, "time": 1537870268, "locktime": 0, "vsize": 226, "size": 226}