{"hash": "1a624815c2b28ee048a79786b8a8a10dda0073f787a1c7ede6d968f61b45121c", "blockhash": "000000000000000000022b45ed06c6f4ccd3cf7fb5ba4856ebd2e58215665228", "vout": [{"scriptPubKey": {"reqSigs": 1, "hex": "a9142f725cd5d7c3d3d4ba6b8820444058a81780caf087", "addresses": ["361tgcdhYL9WUjsaALXFf49Xvx9nmwQBeo"], "asm": "OP_HASH160 2f725cd5d7c3d3d4ba6b8820444058a81780caf0 OP_EQUAL", "type": "scripthash"}, "value": 0.015, "n": 0}, {"scriptPubKey": {"reqSigs": 1, "hex": "76a914551b1dc9d91913d04f8d0d1748ffeeebee6f82e388ac", "addresses": ["18kzvPEjTftPVo5BgxG822RVLr6GVjG8wm"], "asm": "OP_DUP OP_HASH160 551b1dc9d91913d04f8d0d1748ffeeebee6f82e3 OP_EQUALVERIFY OP_CHECKSIG", "type": "pubkeyhash"}, "value": 0.004587, "n": 1}], "hex": "0100000002149702abc517bac622c9eec590795c3fd63d77fb32320889c137b1f03218b67b010000006b483045022100960291d173b01d0f96155fcc31b370ee8c7e0d3d6edb4d37195c7e3da779077c022001b22e2b0989f81c170ee069e3099b45b50f5e8785c8b07fcb7d524bd4d3c2f80121020fd22d46560a1eba032a27cc487ec38fdb0fd4c3f8fd1a2184b09a4adc35f5e3ffffffffebfca0f33409598226b4d7cab9a04f5e0f8413d70c954e01b088b461f218433e000000006b4830450221008e5491dc646ed57091ff994d57c17284868b12157e924e6d0744b4a75ec836f20220625c2c34d2d79eb69639e23d84adc6fada5bfad5acccb8db6126736e996215f90121039418373ae638367a3bc097965172f0a80483b2b554bcf9fe888830e327737048ffffffff0260e316000000000017a9142f725cd5d7c3d3d4ba6b8820444058a81780caf087ccff0600000000001976a914551b1dc9d91913d04f8d0d1748ffeeebee6f82e388ac00000000", "vin": [{"sequence": 4294967295, "scriptSig": {"hex": "483045022100960291d173b01d0f96155fcc31b370ee8c7e0d3d6edb4d37195c7e3da779077c022001b22e2b0989f81c170ee069e3099b45b50f5e8785c8b07fcb7d524bd4d3c2f80121020fd22d46560a1eba032a27cc487ec38fdb0fd4c3f8fd1a2184b09a4adc35f5e3", "asm": "3045022100960291d173b01d0f96155fcc31b370ee8c7e0d3d6edb4d37195c7e3da779077c022001b22e2b0989f81c170ee069e3099b45b50f5e8785c8b07fcb7d524bd4d3c2f8[ALL] 020fd22d46560a1eba032a27cc487ec38fdb0fd4c3f8fd1a2184b09a4adc35f5e3"}, "vout": 1, "txid": "7bb61832f0b137c189083232fb773dd63f5c7990c5eec922c6ba17c5ab029714"}, {"sequence": 4294967295, "scriptSig": {"hex": "4830450221008e5491dc646ed57091ff994d57c17284868b12157e924e6d0744b4a75ec836f20220625c2c34d2d79eb69639e23d84adc6fada5bfad5acccb8db6126736e996215f90121039418373ae638367a3bc097965172f0a80483b2b554bcf9fe888830e327737048", "asm": "30450221008e5491dc646ed57091ff994d57c17284868b12157e924e6d0744b4a75ec836f20220625c2c34d2d79eb69639e23d84adc6fada5bfad5acccb8db6126736e996215f9[ALL] 039418373ae638367a3bc097965172f0a80483b2b554bcf9fe888830e327737048"}, "vout": 0, "txid": "3e4318f261b488b0014e950cd713840f5e4fa0b9cad7b42682590934f3a0fceb"}], "txid": "1a624815c2b28ee048a79786b8a8a10dda0073f787a1c7ede6d968f61b45121c", "blocktime": 1537869901, "version": 1, "confirmations": 11524, "time": 1537869901, "locktime": 0, "vsize": 372, "size": 372}