{"hash": "bd8c86d0209108f00d0c8a897498bbb187360ed1c7c33ee0dd31b47b73fcc101", "blockhash": "00000000000000000017f5eb5941039fbcee6240d03bc1f2f8e35350df66a1d8", "vout": [{"scriptPubKey": {"reqSigs": 1, "hex": "a91453bc7d5f73e9c91e95a43e92ff8b2ecb1c94e11387", "addresses": ["39KmoxmGyiGVppdhF9hnX7MeCLbVchWeoc"], "asm": "OP_HASH160 53bc7d5f73e9c91e95a43e92ff8b2ecb1c94e113 OP_EQUAL", "type": "scripthash"}, "value": 0.01434186, "n": 0}, {"scriptPubKey": {"reqSigs": 1, "hex": "76a9148f8c51c7703803ba08ab1e55a5488d658dad347c88ac", "addresses": ["1E61iztLMN8yGsjorSzGpjjwnzsWrYnDLJ"], "asm": "OP_DUP OP_HASH160 8f8c51c7703803ba08ab1e55a5488d658dad347c OP_EQUALVERIFY OP_CHECKSIG", "type": "pubkeyhash"}, "value": 0.00292954, "n": 1}], "hex": "02000000000101e2914ec31b235e1b1fcc0634be0bbf48f362add79e46ff9eeeebef843e44154e010000001716001461068b6dc4ac30f16821f1afe7bbd0a0c1e31670feffffff024ae215000000000017a91453bc7d5f73e9c91e95a43e92ff8b2ecb1c94e113875a780400000000001976a9148f8c51c7703803ba08ab1e55a5488d658dad347c88ac02473044022027c62e936753b057924c04ecb1e3cc27180af6b9eeab23f9ab37ce01b505630b02204146b5bbca02b47944f2f7b146dd0637bd2446681fabe8d06fa561902d077c55012103a36bf6f6728ca3510480dce607b49e3acf41bb5c7ed9600f09edb0d6e47c2dcc15490800", "vin": [{"txinwitness": ["3044022027c62e936753b057924c04ecb1e3cc27180af6b9eeab23f9ab37ce01b505630b02204146b5bbca02b47944f2f7b146dd0637bd2446681fabe8d06fa561902d077c5501", "03a36bf6f6728ca3510480dce607b49e3acf41bb5c7ed9600f09edb0d6e47c2dcc"], "sequence": 4294967294, "scriptSig": {"hex": "16001461068b6dc4ac30f16821f1afe7bbd0a0c1e31670", "asm": "001461068b6dc4ac30f16821f1afe7bbd0a0c1e31670"}, "vout": 1, "txid": "4e15443e84efebee9eff469ed7ad62f348bf0bbe3406cc1f1b5e231bc34e91e2"}], "txid": "1a6488a94455a310b9cfd3be6afd761f79935bd490ff3e1351cfc56dd15d45dc", "blocktime": 1537874412, "version": 2, "confirmations": 11468, "time": 1537874412, "locktime": 542997, "vsize": 168, "size": 249}