{"hash": "470a219dc3045c7da6a96d0f7b9a99806cc1c6cafae2566a840bd622605921d0", "blockhash": "0000000000000000001f0ddff1eddb255c1121bcd4da4f1bc9a0da00cae72433", "vout": [{"scriptPubKey": {"reqSigs": 1, "hex": "76a914776b878b416e3129310d3878d5e2941dc740b4a888ac", "addresses": ["1BtSE7AXX5RuRRcnbhiM3qBwMhEYwxqBsm"], "asm": "OP_DUP OP_HASH160 776b878b416e3129310d3878d5e2941dc740b4a8 OP_EQUALVERIFY OP_CHECKSIG", "type": "pubkeyhash"}, "value": 0.21052748, "n": 0}, {"scriptPubKey": {"reqSigs": 1, "hex": "a9149bf3c613a667228a55acd5088f81fdc8159c205a87", "addresses": ["3FucgyRhfJRrfS1s9k94pUG3UNxf2xrgQx"], "asm": "OP_HASH160 9bf3c613a667228a55acd5088f81fdc8159c205a OP_EQUAL", "type": "scripthash"}, "value": 0.05109347, "n": 1}], "hex": "020000000001013c11865d6dfb9b51115b167972c43442708308cb11cb11c05243b96397bfe78301000000171600140f78fe4cd55296c1dda61d92e1f02b3e8d17ff92fdffffff024c3d4101000000001976a914776b878b416e3129310d3878d5e2941dc740b4a888ac63f64d000000000017a9149bf3c613a667228a55acd5088f81fdc8159c205a8702473044022050f3baac0de441b2ac0835bc8b6a55afd049b28738f5ea9407bfc7929a4509e402202ecbea19623f72d5031454c3fe018120b9d188e3264370e00f81aa688a14f5c30121024a7f039d3b63be6439e6a6cac40b5aeec7144b4959ef8112609b1f45655fc1c211490800", "vin": [{"txinwitness": ["3044022050f3baac0de441b2ac0835bc8b6a55afd049b28738f5ea9407bfc7929a4509e402202ecbea19623f72d5031454c3fe018120b9d188e3264370e00f81aa688a14f5c301", "024a7f039d3b63be6439e6a6cac40b5aeec7144b4959ef8112609b1f45655fc1c2"], "sequence": 4294967293, "scriptSig": {"hex": "1600140f78fe4cd55296c1dda61d92e1f02b3e8d17ff92", "asm": "00140f78fe4cd55296c1dda61d92e1f02b3e8d17ff92"}, "vout": 1, "txid": "83e7bf9763b94352c011cb11cb0883704234c47279165b11519bfb6d5d86113c"}], "txid": "1a6f427b2e1a30cc7a539d68a20a904b3f3788f0d70a56cfe245b10d63c4d513", "blocktime": 1537872018, "version": 2, "confirmations": 11489, "time": 1537872018, "locktime": 542993, "vsize": 168, "size": 249}