{"hash": "f2c9217098502e99ca185f471f084f9299f28d17db8a89bcc30de061311d88ca", "blockhash": "0000000000000000001f0ddff1eddb255c1121bcd4da4f1bc9a0da00cae72433", "vout": [{"scriptPubKey": {"reqSigs": 1, "hex": "76a914eb3f9b1d3bf22f320486d0619b614aee38a4969688ac", "addresses": ["1NSszVoXN2zoBhQJ6p4ze24sYEWRvSTVtt"], "asm": "OP_DUP OP_HASH160 eb3f9b1d3bf22f320486d0619b614aee38a49696 OP_EQUALVERIFY OP_CHECKSIG", "type": "pubkeyhash"}, "value": 0.0003897, "n": 0}, {"scriptPubKey": {"reqSigs": 1, "hex": "a9140859b86cdd16866ebb6e78fa103cac60aa76181687", "addresses": ["32TAoxjv4BmnwhgYck52ECSawxwGXQ4bUA"], "asm": "OP_HASH160 0859b86cdd16866ebb6e78fa103cac60aa761816 OP_EQUAL", "type": "scripthash"}, "value": 0.00341421, "n": 1}, {"scriptPubKey": {"reqSigs": 1, "hex": "a91469f3758757ca6ee1e4d4e8eed596b254a5604dca87", "addresses": ["3BMEXX9HfViMNDnRQJsf7qJW6SEse9Deg2"], "asm": "OP_HASH160 69f3758757ca6ee1e4d4e8eed596b254a5604dca OP_EQUAL", "type": "scripthash"}, "value": 0.0738576, "n": 2}, {"scriptPubKey": {"reqSigs": 1, "hex": "a91490a55c1e642aedf2be090631bc7f794da006f6cc87", "addresses": ["3EsqKa2vE3bjEj21e6aP8ZQ5qq9NjBLsnD"], "asm": "OP_HASH160 90a55c1e642aedf2be090631bc7f794da006f6cc OP_EQUAL", "type": "scripthash"}, "value": 0.0059706, "n": 3}, {"scriptPubKey": {"reqSigs": 1, "hex": "a91427f84e899e6cc5f9e03d2b191adb22eb4078099c87", "addresses": ["35LMjgaVpZQSzQaJrGWmRLQxzTBQw32obu"], "asm": "OP_HASH160 27f84e899e6cc5f9e03d2b191adb22eb4078099c OP_EQUAL", "type": "scripthash"}, "value": 0.00016091, "n": 4}, {"scriptPubKey": {"reqSigs": 1, "hex": "a914cb2dd885f5a3021fc72810f031d00fc342c55eed87", "addresses": ["3LDL1uZDQfNbqUzCqhkeuK3ZvJoGZ2GsJA"], "asm": "OP_HASH160 cb2dd885f5a3021fc72810f031d00fc342c55eed OP_EQUAL", "type": "scripthash"}, "value": 0.0027116, "n": 5}, {"scriptPubKey": {"reqSigs": 1, "hex": "a914566d2334d3fe627a1c9b921b9ad21b4dc793170087", "addresses": ["39Zzn3pDWtwdjvEtUrCg257yf9Jy53gHp8"], "asm": "OP_HASH160 566d2334d3fe627a1c9b921b9ad21b4dc7931700 OP_EQUAL", "type": "scripthash"}, "value": 0.0027116, "n": 6}, {"scriptPubKey": {"reqSigs": 1, "hex": "a9145f965ced461e8ec8aac8d81486baa4059c9686f987", "addresses": ["3AQSFAuwgzvzBa4p7Uar6tMRrnJY2di4yQ"], "asm": "OP_HASH160 5f965ced461e8ec8aac8d81486baa4059c9686f9 OP_EQUAL", "type": "scripthash"}, "value": 0.00706427, "n": 7}, {"scriptPubKey": {"reqSigs": 1, "hex": "76a9145b2c07e92afd2440a3da5951b5639fcc01f23ebe88ac", "addresses": ["19K5En5ewEc1aSN4SNYTViiNoSR1xxVSSK"], "asm": "OP_DUP OP_HASH160 5b2c07e92afd2440a3da5951b5639fcc01f23ebe OP_EQUALVERIFY OP_CHECKSIG", "type": "pubkeyhash"}, "value": 0.0216631, "n": 8}, {"scriptPubKey": {"reqSigs": 1, "hex": "76a914a1ce5ec0f90910c585dcbf9a42e56540c715dba288ac", "addresses": ["1FkZ1jWJSFAj7DEhu8PqmKgP4ND9BgUAc7"], "asm": "OP_DUP OP_HASH160 a1ce5ec0f90910c585dcbf9a42e56540c715dba2 OP_EQUALVERIFY OP_CHECKSIG", "type": "pubkeyhash"}, "value": 0.00453415, "n": 9}, {"scriptPubKey": {"reqSigs": 1, "hex": "76a914f8c0ff8b837c22be096ac763bbfcedfce732647d88ac", "addresses": ["1PgHnKt721dREi1GZomwy44UAxebVzwTzu"], "asm": "OP_DUP OP_HASH160 f8c0ff8b837c22be096ac763bbfcedfce732647d OP_EQUALVERIFY OP_CHECKSIG", "type": "pubkeyhash"}, "value": 0.007889, "n": 10}, {"scriptPubKey": {"reqSigs": 1, "hex": "a91461b948898902145af66acfe9c1fa6057c558606f87", "addresses": ["3AbjRs4wk4efW1NcKpYKG4SCLdhML4SYkr"], "asm": "OP_HASH160 61b948898902145af66acfe9c1fa6057c558606f OP_EQUAL", "type": "scripthash"}, "value": 0.0022, "n": 11}, {"scriptPubKey": {"reqSigs": 1, "hex": "76a914a1cb1f98d7ddc682665420fe64fa7437e0a6890f88ac", "addresses": ["1FkV89a3kNTeZ2cRHSzq31pRuUPGLWJoZL"], "asm": "OP_DUP OP_HASH160 a1cb1f98d7ddc682665420fe64fa7437e0a6890f OP_EQUALVERIFY OP_CHECKSIG", "type": "pubkeyhash"}, "value": 0.00078175, "n": 12}, {"scriptPubKey": {"reqSigs": 1, "hex": "76a9141f59cc056f0a8807ca6806386f93edd4ca2a503f88ac", "addresses": ["13rmX9dRjMNM45aFbAN1qPxWRvGdQ1ySqE"], "asm": "OP_DUP OP_HASH160 1f59cc056f0a8807ca6806386f93edd4ca2a503f OP_EQUALVERIFY OP_CHECKSIG", "type": "pubkeyhash"}, "value": 0.007864, "n": 13}, {"scriptPubKey": {"reqSigs": 1, "hex": "a91444571b28a7fb4a3b69ce4e6631d9e6d55879859b87", "addresses": ["37vNDpptV4PPjp9ZgXQtKxrnHpS2xiFoY7"], "asm": "OP_HASH160 44571b28a7fb4a3b69ce4e6631d9e6d55879859b OP_EQUAL", "type": "scripthash"}, "value": 0.00259977, "n": 14}, {"scriptPubKey": {"reqSigs": 1, "hex": "a91426ac90b140d7a174359f7d2d7e4287116e6228b187", "addresses": ["35DWKse9rAQSzPJBECquHWYqp8QgWdT81H"], "asm": "OP_HASH160 26ac90b140d7a174359f7d2d7e4287116e6228b1 OP_EQUAL", "type": "scripthash"}, "value": 0.0033266, "n": 15}, {"scriptPubKey": {"reqSigs": 1, "hex": "a9143befd7faa8358159c40a8a669676b1e92c0bf94687", "addresses": ["379w7VVHmpmtwzbRdYXgWe4fziDcGXbqEd"], "asm": "OP_HASH160 3befd7faa8358159c40a8a669676b1e92c0bf946 OP_EQUAL", "type": "scripthash"}, "value": 0.01083, "n": 16}, {"scriptPubKey": {"reqSigs": 1, "hex": "a914b5db5dbc2971565fa2e248fce33177fa1479ca8887", "addresses": ["3JGb26KY7NaFLqLkvqsTYTCeSPjDG46YoZ"], "asm": "OP_HASH160 b5db5dbc2971565fa2e248fce33177fa1479ca88 OP_EQUAL", "type": "scripthash"}, "value": 0.00438957, "n": 17}, {"scriptPubKey": {"reqSigs": 1, "hex": "76a9144f1d58dcb1cdef22aa8be6a92f3197bcfd1c364a88ac", "addresses": ["18DKYEEFUyMhdqW17neoHZMFQ3taaaPUXr"], "asm": "OP_DUP OP_HASH160 4f1d58dcb1cdef22aa8be6a92f3197bcfd1c364a OP_EQUALVERIFY OP_CHECKSIG", "type": "pubkeyhash"}, "value": 0.01401258, "n": 18}, {"scriptPubKey": {"reqSigs": 1, "hex": "a91444bb6b3aadc5589b11a258bf4d9fb6ed1a7462cd87", "addresses": ["37xSPgM4X5esUmrDKtEUBACM87p3mDDRiw"], "asm": "OP_HASH160 44bb6b3aadc5589b11a258bf4d9fb6ed1a7462cd OP_EQUAL", "type": "scripthash"}, "value": 0.00433232, "n": 19}, {"scriptPubKey": {"reqSigs": 1, "hex": "a91469437935d3def37eabcf2ba2eb56965aaff50e1987", "addresses": ["3BHbhppmFAKUGAtBFbrECEWvxGBwNJUZhF"], "asm": "OP_HASH160 69437935d3def37eabcf2ba2eb56965aaff50e19 OP_EQUAL", "type": "scripthash"}, "value": 0.01157407, "n": 20}, {"scriptPubKey": {"reqSigs": 1, "hex": "a914f934907133614678169f89abe4be471f2f34c51887", "addresses": ["3QQh9Y3bDVcAAeat7mYEic7au9uGEPLyeN"], "asm": "OP_HASH160 f934907133614678169f89abe4be471f2f34c518 OP_EQUAL", "type": "scripthash"}, "value": 0.0027, "n": 21}, {"scriptPubKey": {"reqSigs": 1, "hex": "76a914b70de3e4eb4cd0e61ddb55bc63e838fcbfd45e4988ac", "addresses": ["1HguJDQE5bHuuHThgb7X7PWcwfTMwJ2jLD"], "asm": "OP_DUP OP_HASH160 b70de3e4eb4cd0e61ddb55bc63e838fcbfd45e49 OP_EQUALVERIFY OP_CHECKSIG", "type": "pubkeyhash"}, "value": 0.00994957, "n": 22}, {"scriptPubKey": {"reqSigs": 1, "hex": "a9141de654e3e9c86d3da796516bb62d111b92aa7fe287", "addresses": ["34R7SpvoNacKc2PzvPvWqpLQMkwouzsnab"], "asm": "OP_HASH160 1de654e3e9c86d3da796516bb62d111b92aa7fe2 OP_EQUAL", "type": "scripthash"}, "value": 0.0020216, "n": 23}, {"scriptPubKey": {"reqSigs": 1, "hex": "a9146defc625b8f9a754b4fa1620c3b0c1d6e186cf8387", "addresses": ["3BiJpF6HEg7CkyfQU3JBC6hWNhoUboQd2w"], "asm": "OP_HASH160 6defc625b8f9a754b4fa1620c3b0c1d6e186cf83 OP_EQUAL", "type": "scripthash"}, "value": 0.00456586, "n": 24}, {"scriptPubKey": {"reqSigs": 1, "hex": "76a914d7ceb11da51c352bfdb83ffb46d8a5c29bb7c24688ac", "addresses": ["1Lg5tSr9Yd3E3ciCJB4GNx1KWvyNoRyoSs"], "asm": "OP_DUP OP_HASH160 d7ceb11da51c352bfdb83ffb46d8a5c29bb7c246 OP_EQUALVERIFY OP_CHECKSIG", "type": "pubkeyhash"}, "value": 0.00198459, "n": 25}, {"scriptPubKey": {"reqSigs": 1, "hex": "a914ed3851ac69898d4b98a617b1ef1b88c900fabfd787", "addresses": ["3PKKY85YxRA91tbWpLhZwch9sWswWD5Es2"], "asm": "OP_HASH160 ed3851ac69898d4b98a617b1ef1b88c900fabfd7 OP_EQUAL", "type": "scripthash"}, "value": 0.00216701, "n": 26}, {"scriptPubKey": {"reqSigs": 1, "hex": "a91419976c6c820e97771c7ca6b8e486afc5b491b2ab87", "addresses": ["342LDRwiT8brqkumZJSkEJvU32KKZcH4om"], "asm": "OP_HASH160 19976c6c820e97771c7ca6b8e486afc5b491b2ab OP_EQUAL", "type": "scripthash"}, "value": 0.0050746, "n": 27}, {"scriptPubKey": {"reqSigs": 1, "hex": "76a9148f1995d1546ca6f58a23fbf7386e1325a98d7e0588ac", "addresses": ["1E3eH8DPoP4TWqwf6jy8SWnDYW7KLGk2dN"], "asm": "OP_DUP OP_HASH160 8f1995d1546ca6f58a23fbf7386e1325a98d7e05 OP_EQUALVERIFY OP_CHECKSIG", "type": "pubkeyhash"}, "value": 0.02054956, "n": 28}, {"scriptPubKey": {"reqSigs": 1, "hex": "a91402ac820cd7dba933aa00b431fa8b3ed66b852a1187", "addresses": ["31w9vzbyjuk6peBR13AE7Eq7AbGGS3XuiR"], "asm": "OP_HASH160 02ac820cd7dba933aa00b431fa8b3ed66b852a11 OP_EQUAL", "type": "scripthash"}, "value": 0.00338681, "n": 29}, {"scriptPubKey": {"reqSigs": 1, "hex": "a91486cebaf9340fff4c403312eeba539f290197527f87", "addresses": ["3Dyp88JAZLTbWF3o4mZVSPFAkzGHGqU1Wm"], "asm": "OP_HASH160 86cebaf9340fff4c403312eeba539f290197527f OP_EQUAL", "type": "scripthash"}, "value": 3.01087372, "n": 30}, {"scriptPubKey": {"reqSigs": 1, "hex": "a914c3d07b39f577037fcd2732f048b1c61bc849107b87", "addresses": ["3KYPSVKR91rNNvvm1puBUfjwD2WypZL8Gn"], "asm": "OP_HASH160 c3d07b39f577037fcd2732f048b1c61bc849107b OP_EQUAL", "type": "scripthash"}, "value": 0.00191424, "n": 31}, {"scriptPubKey": {"reqSigs": 1, "hex": "a914a7fd4b4b7bbddcb177d6c816e51b6c6f186e293987", "addresses": ["3H1GCmEYTpBTniALrcWdrEWRH9Vz7PuD1v"], "asm": "OP_HASH160 a7fd4b4b7bbddcb177d6c816e51b6c6f186e2939 OP_EQUAL", "type": "scripthash"}, "value": 0.01128787, "n": 32}, {"scriptPubKey": {"reqSigs": 1, "hex": "76a9145b76ad3273ac032f7f89e1274d1c4ecbe87065f788ac", "addresses": ["19LcfFNvUPqjkyWyKNUpUiUxTxL9VA2S9k"], "asm": "OP_DUP OP_HASH160 5b76ad3273ac032f7f89e1274d1c4ecbe87065f7 OP_EQUALVERIFY OP_CHECKSIG", "type": "pubkeyhash"}, "value": 0.00685131, "n": 33}, {"scriptPubKey": {"reqSigs": 1, "hex": "a9148cc938fa94223b7e08c55783a45e504805be61bd87", "addresses": ["3EXRab9RdMRqaBwYamNPcEbut1DWhoEWhL"], "asm": "OP_HASH160 8cc938fa94223b7e08c55783a45e504805be61bd OP_EQUAL", "type": "scripthash"}, "value": 0.00221437, "n": 34}, {"scriptPubKey": {"reqSigs": 1, "hex": "a91458b0cc06b6d4cd7b0278666dbd7c5bee3df952a587", "addresses": ["39myBVcfkabp1ELZWrJGGSriEyAQanwQY3"], "asm": "OP_HASH160 58b0cc06b6d4cd7b0278666dbd7c5bee3df952a5 OP_EQUAL", "type": "scripthash"}, "value": 0.00371792, "n": 35}], "hex": "02000000000101fb143f4c53dbb6c13b2bbf8d86e8d0928685ab218331602b3538249a367858390600000017160014c03fe8542ed45823b886f4aa948c718bd1ec45d2feffffff243a980000000000001976a914eb3f9b1d3bf22f320486d0619b614aee38a4969688acad3505000000000017a9140859b86cdd16866ebb6e78fa103cac60aa76181687a0b270000000000017a91469f3758757ca6ee1e4d4e8eed596b254a5604dca87441c09000000000017a91490a55c1e642aedf2be090631bc7f794da006f6cc87db3e00000000000017a91427f84e899e6cc5f9e03d2b191adb22eb4078099c87382304000000000017a914cb2dd885f5a3021fc72810f031d00fc342c55eed87382304000000000017a914566d2334d3fe627a1c9b921b9ad21b4dc7931700877bc70a000000000017a9145f965ced461e8ec8aac8d81486baa4059c9686f987260e2100000000001976a9145b2c07e92afd2440a3da5951b5639fcc01f23ebe88ac27eb0600000000001976a914a1ce5ec0f90910c585dcbf9a42e56540c715dba288aca4090c00000000001976a914f8c0ff8b837c22be096ac763bbfcedfce732647d88ac605b03000000000017a91461b948898902145af66acfe9c1fa6057c558606f875f310100000000001976a914a1cb1f98d7ddc682665420fe64fa7437e0a6890f88ace0ff0b00000000001976a9141f59cc056f0a8807ca6806386f93edd4ca2a503f88ac89f703000000000017a91444571b28a7fb4a3b69ce4e6631d9e6d55879859b87741305000000000017a91426ac90b140d7a174359f7d2d7e4287116e6228b187788610000000000017a9143befd7faa8358159c40a8a669676b1e92c0bf94687adb206000000000017a914b5db5dbc2971565fa2e248fce33177fa1479ca8887aa611500000000001976a9144f1d58dcb1cdef22aa8be6a92f3197bcfd1c364a88ac509c06000000000017a91444bb6b3aadc5589b11a258bf4d9fb6ed1a7462cd871fa911000000000017a91469437935d3def37eabcf2ba2eb56965aaff50e1987b01e04000000000017a914f934907133614678169f89abe4be471f2f34c518878d2e0f00000000001976a914b70de3e4eb4cd0e61ddb55bc63e838fcbfd45e4988acb01503000000000017a9141de654e3e9c86d3da796516bb62d111b92aa7fe2878af706000000000017a9146defc625b8f9a754b4fa1620c3b0c1d6e186cf83873b070300000000001976a914d7ceb11da51c352bfdb83ffb46d8a5c29bb7c24688ac7d4e03000000000017a914ed3851ac69898d4b98a617b1ef1b88c900fabfd78744be07000000000017a91419976c6c820e97771c7ca6b8e486afc5b491b2ab872c5b1f00000000001976a9148f1995d1546ca6f58a23fbf7386e1325a98d7e0588acf92a05000000000017a91402ac820cd7dba933aa00b431fa8b3ed66b852a11878c3af2110000000017a91486cebaf9340fff4c403312eeba539f290197527f87c0eb02000000000017a914c3d07b39f577037fcd2732f048b1c61bc849107b87533911000000000017a914a7fd4b4b7bbddcb177d6c816e51b6c6f186e2939874b740a00000000001976a9145b76ad3273ac032f7f89e1274d1c4ecbe87065f788acfd6003000000000017a9148cc938fa94223b7e08c55783a45e504805be61bd8750ac05000000000017a91458b0cc06b6d4cd7b0278666dbd7c5bee3df952a58702483045022100e99b799eba28e1ada11e63129810d9ba76a69d3efe762433751edc195f17c832022002658cc196d530a5f9615e91fbd85c6c0af6a35c33d191c1eed7ec1df1b4e6fa01210285a98aca8ad27e1d985e50e1464d34c2876122e758671efd8d229f9ba3d0f05911490800", "vin": [{"txinwitness": ["3045022100e99b799eba28e1ada11e63129810d9ba76a69d3efe762433751edc195f17c832022002658cc196d530a5f9615e91fbd85c6c0af6a35c33d191c1eed7ec1df1b4e6fa01", "0285a98aca8ad27e1d985e50e1464d34c2876122e758671efd8d229f9ba3d0f059"], "sequence": 4294967294, "scriptSig": {"hex": "160014c03fe8542ed45823b886f4aa948c718bd1ec45d2", "asm": "0014c03fe8542ed45823b886f4aa948c718bd1ec45d2"}, "vout": 6, "txid": "395878369a2438352b60318321ab858692d0e8868dbf2b3bc1b6db534c3f14fb"}], "txid": "1a77532b1a5a2182c596707b613109cc8bba7b15d187b4a8f576f10208a14bb1", "blocktime": 1537872018, "version": 2, "confirmations": 11489, "time": 1537872018, "locktime": 542993, "vsize": 1276, "size": 1358}