{"hash": "5bc0d950ebc02abfaedd46a29609d1cc7cd33a441526dd8deb074edb48e8538c", "blockhash": "0000000000000000001cda96e906b7601b7a6fb1a3b62bca570a9e5d8f4b3de1", "vout": [{"scriptPubKey": {"reqSigs": 1, "hex": "a914b65834c35df21f450102c91b435883ef98696ed587", "addresses": ["3JKAa8BM9TcZvXE8pSjxHSh2eVHwSrwtJ6"], "asm": "OP_HASH160 b65834c35df21f450102c91b435883ef98696ed5 OP_EQUAL", "type": "scripthash"}, "value": 0.0003, "n": 0}, {"scriptPubKey": {"reqSigs": 1, "hex": "a914e06861b3116759e966057b791403d3219e25d92487", "addresses": ["3N9aL5RqNGNdU4X5jHbwHyUsQ5pKemfRK2"], "asm": "OP_HASH160 e06861b3116759e966057b791403d3219e25d924 OP_EQUAL", "type": "scripthash"}, "value": 0.00964261, "n": 1}], "hex": "0100000000010190b3192188f877476175aa7f5225e761c8188f2d71b6df7613af4a3541ba990b0500000023220020c2c5a8f8c7aebfc5a5be00f4fc314cad836d6d75f331a70d2026ec584c9f600fffffffff02307500000000000017a914b65834c35df21f450102c91b435883ef98696ed587a5b60e000000000017a914e06861b3116759e966057b791403d3219e25d92487040047304402205a622e136453db64adf05ba68e5a7d4ab8ef2a8a7cc11d646d546ade19e214da022074f81965bb33eff34847ae7bdb8d2da5a25e3653199a5049d5ef6ee1ac2b673301483045022100b7ab4e9f0a8c6ab2060b4d6c665c00d4c509acc343a40bccb8f43850e0fa599e0220623235f62152a719fa54e05dc6420b71655ac221a8d52ff1cef804fa61154901016952210268a2f9df907e513f16248065d92e8e7c376b009aaacbf3ffcb3feb484bec22fb21039366005423bdb05b429572a9d42ecb501b5681f788cd8bd374495585dc2fc7542103cfdc2440dc10c543d87e218c0b5eae856e3d36986581167334ae6da1c44fb4d453ae00000000", "vin": [{"txinwitness": ["", "304402205a622e136453db64adf05ba68e5a7d4ab8ef2a8a7cc11d646d546ade19e214da022074f81965bb33eff34847ae7bdb8d2da5a25e3653199a5049d5ef6ee1ac2b673301", "3045022100b7ab4e9f0a8c6ab2060b4d6c665c00d4c509acc343a40bccb8f43850e0fa599e0220623235f62152a719fa54e05dc6420b71655ac221a8d52ff1cef804fa6115490101", "52210268a2f9df907e513f16248065d92e8e7c376b009aaacbf3ffcb3feb484bec22fb21039366005423bdb05b429572a9d42ecb501b5681f788cd8bd374495585dc2fc7542103cfdc2440dc10c543d87e218c0b5eae856e3d36986581167334ae6da1c44fb4d453ae"], "sequence": 4294967295, "scriptSig": {"hex": "220020c2c5a8f8c7aebfc5a5be00f4fc314cad836d6d75f331a70d2026ec584c9f600f", "asm": "0020c2c5a8f8c7aebfc5a5be00f4fc314cad836d6d75f331a70d2026ec584c9f600f"}, "vout": 5, "txid": "0b99ba41354aaf1376dfb6712d8f18c861e725527faa75614777f8882119b390"}], "txid": "1a78b20b2fb030a98d00ad9c07f520bff74fb62f1e8bebf86b2b0f3219e4bc12", "blocktime": 1537873282, "version": 1, "confirmations": 11484, "time": 1537873282, "locktime": 0, "vsize": 214, "size": 405}