{"hash": "83826baed1719851cf5f0375cae7c9ccd7af5f49d87f1f8827f2e05d5b3add06", "blockhash": "0000000000000000000e13cef7c366c0283d82e591d1acd082e914b08063cdf1", "vout": [{"scriptPubKey": {"reqSigs": 1, "hex": "76a91478fb7838ee372ace25bd67ce2eaf05ede72f0bb088ac", "addresses": ["1C2hLSEaBqXhi4W5Sv54yU51P8kV2eyYFk"], "asm": "OP_DUP OP_HASH160 78fb7838ee372ace25bd67ce2eaf05ede72f0bb0 OP_EQUALVERIFY OP_CHECKSIG", "type": "pubkeyhash"}, "value": 0.00609084, "n": 0}, {"scriptPubKey": {"reqSigs": 1, "hex": "a9141988a27e3c2df4ddee7fad5a2303d086179b2a3087", "addresses": ["3422VtS7UtCvXYxoXMVp6eZupR252z85oC"], "asm": "OP_HASH160 1988a27e3c2df4ddee7fad5a2303d086179b2a30 OP_EQUAL", "type": "scripthash"}, "value": 2.80415167, "n": 1}], "hex": "01000000000101dc5edbe12220e4e9368b834767a0c2c97359c568cee5b5a1bd9c792d8935e0e9000000002322002065d416c48a8072e0ac51c2d111eb194f009caef0332446c1bf2097316cf07fa9ffffffff023c4b0900000000001976a91478fb7838ee372ace25bd67ce2eaf05ede72f0bb088acbfcbb6100000000017a9141988a27e3c2df4ddee7fad5a2303d086179b2a30870400483045022100d49c07948596f870b0b2950aaa8ab2f13bafd07813bdafdb9f741a53cc55540f022014aeec295b0fc22b1084f211ea34e7ce11c4b6ec7518aa68fbcd721cca3a257e01483045022100acd27d80beee33dbe26bb63a33fb0c7205689caad835e825a3bc032765474ebf022066627c1262afbd40a46507d13187ca44eec2e5ab10696658ef72844e9e5ec5a40169522102f44abcf9e23c9a460da309ccca56c619c04eed3bde2c2cff5e7d78fbcd980b9c2103c9443cf3047bb6c2c82f1b0c44c36109cdc3d0d601d16d1189a1602bf8d1a0a02103bfe867059274412412e088af5572b92168c2ef495cfe6c9b7a753a009eb37c4853ae00000000", "vin": [{"txinwitness": ["", "3045022100d49c07948596f870b0b2950aaa8ab2f13bafd07813bdafdb9f741a53cc55540f022014aeec295b0fc22b1084f211ea34e7ce11c4b6ec7518aa68fbcd721cca3a257e01", "3045022100acd27d80beee33dbe26bb63a33fb0c7205689caad835e825a3bc032765474ebf022066627c1262afbd40a46507d13187ca44eec2e5ab10696658ef72844e9e5ec5a401", "522102f44abcf9e23c9a460da309ccca56c619c04eed3bde2c2cff5e7d78fbcd980b9c2103c9443cf3047bb6c2c82f1b0c44c36109cdc3d0d601d16d1189a1602bf8d1a0a02103bfe867059274412412e088af5572b92168c2ef495cfe6c9b7a753a009eb37c4853ae"], "sequence": 4294967295, "scriptSig": {"hex": "22002065d416c48a8072e0ac51c2d111eb194f009caef0332446c1bf2097316cf07fa9", "asm": "002065d416c48a8072e0ac51c2d111eb194f009caef0332446c1bf2097316cf07fa9"}, "vout": 0, "txid": "e9e035892d799cbda1b5e5ce68c55973c9c2a06747838b36e9e42022e1db5edc"}], "txid": "1a78b4acf9b754efd7fc6ca385c80167b3767b29ee06a4b94fba743282217921", "blocktime": 1537871767, "version": 1, "confirmations": 11491, "time": 1537871767, "locktime": 0, "vsize": 216, "size": 408}