{"hash": "e7c45107ea1801ebc77902f86a38da4c940bea61b7b43d3507eb4e8446c02795", "blockhash": "00000000000000000017f5eb5941039fbcee6240d03bc1f2f8e35350df66a1d8", "vout": [{"scriptPubKey": {"reqSigs": 1, "hex": "a91405b4ce6e0d2346b916593b387b912e95097c3cb887", "addresses": ["32DBu9dC1VpLadhaX9eHayzHPQs2aqT8Mv"], "asm": "OP_HASH160 05b4ce6e0d2346b916593b387b912e95097c3cb8 OP_EQUAL", "type": "scripthash"}, "value": 0.01125, "n": 0}, {"scriptPubKey": {"reqSigs": 1, "hex": "a91499e2ed0f906b9ff75cd918ddc0a4f9b353b5322987", "addresses": ["3Fih9zNdg7eAGhzWh58T3pcmQrGNGd9z8i"], "asm": "OP_HASH160 99e2ed0f906b9ff75cd918ddc0a4f9b353b53229 OP_EQUAL", "type": "scripthash"}, "value": 0.48873669, "n": 1}], "hex": "010000000001014ca9b50318c4d3986dd7effd5f07564c70a75af04944961827d8ded5b095d79d0100000017160014df37e3cb659ff445975fa84a7ac945eac13aa5edffffffff02882a11000000000017a91405b4ce6e0d2346b916593b387b912e95097c3cb887c5c0e9020000000017a91499e2ed0f906b9ff75cd918ddc0a4f9b353b53229870247304402207764245dfe3228de96d2f4787f8ca980a9d7ce0c0daa376cd6ea4d1b70457f27022031697609b044e4adb119686d8d03b187948a9b62f5b4232ac863aaa91c34c12e01210212a1541ee83d2414f2ea4ffb1f951b371d12867886dcbbd83f077a52f224e9b400000000", "vin": [{"txinwitness": ["304402207764245dfe3228de96d2f4787f8ca980a9d7ce0c0daa376cd6ea4d1b70457f27022031697609b044e4adb119686d8d03b187948a9b62f5b4232ac863aaa91c34c12e01", "0212a1541ee83d2414f2ea4ffb1f951b371d12867886dcbbd83f077a52f224e9b4"], "sequence": 4294967295, "scriptSig": {"hex": "160014df37e3cb659ff445975fa84a7ac945eac13aa5ed", "asm": "0014df37e3cb659ff445975fa84a7ac945eac13aa5ed"}, "vout": 1, "txid": "9dd795b0d5ded82718964449f05aa7704c56075ffdefd76d98d3c41803b5a94c"}], "txid": "1a79d8b4b65ee9bf87493af563181d7308048baceda5395ab308274f63ce8aac", "blocktime": 1537874412, "version": 1, "confirmations": 11468, "time": 1537874412, "locktime": 0, "vsize": 166, "size": 247}