{"hash": "41ad9cd7e03a0f48f26b30ca9331e36ce4d188ba22933d043b5e3c1e7413a615", "blockhash": "0000000000000000001f0ddff1eddb255c1121bcd4da4f1bc9a0da00cae72433", "vout": [{"scriptPubKey": {"reqSigs": 1, "hex": "a914afa2282bf0f0f0fe49850723570392a35c5fd1b387", "addresses": ["3HhgRyUFTPM7n4b5m6monCY22LR8xtupHd"], "asm": "OP_HASH160 afa2282bf0f0f0fe49850723570392a35c5fd1b3 OP_EQUAL", "type": "scripthash"}, "value": 0.02028, "n": 0}, {"scriptPubKey": {"reqSigs": 1, "hex": "a91406408c7432b345cfbb01c8552506b1489c9f163287", "addresses": ["32G5JcXprP2WjNB9C9NVXwitXHk2Lx2wB5"], "asm": "OP_HASH160 06408c7432b345cfbb01c8552506b1489c9f1632 OP_EQUAL", "type": "scripthash"}, "value": 0.00032985, "n": 1}], "hex": "010000000001010b92d13308d7c83a44ea9de4c69ee2d851275fb085033b491ad50ab3f241fdeb0a0000001716001411105707b4859ae440289fe2cea2c48c0d44e495ffffffff02e0f11e000000000017a914afa2282bf0f0f0fe49850723570392a35c5fd1b387d98000000000000017a91406408c7432b345cfbb01c8552506b1489c9f1632870247304402201b024ce4b3c531b894ed3ed41508a5d1509e806939584079a12f202f0a5efb5302201017ec590c2f4a9f8bd60cf996763bb32cc775fe214e13bcc98b5551093ad2c70121024f37907a96c472144d2c81fc5a15eb8b97b2f8ccea0bcd8ba1ecf66f92e52af300000000", "vin": [{"txinwitness": ["304402201b024ce4b3c531b894ed3ed41508a5d1509e806939584079a12f202f0a5efb5302201017ec590c2f4a9f8bd60cf996763bb32cc775fe214e13bcc98b5551093ad2c701", "024f37907a96c472144d2c81fc5a15eb8b97b2f8ccea0bcd8ba1ecf66f92e52af3"], "sequence": 4294967295, "scriptSig": {"hex": "16001411105707b4859ae440289fe2cea2c48c0d44e495", "asm": "001411105707b4859ae440289fe2cea2c48c0d44e495"}, "vout": 10, "txid": "ebfd41f2b30ad51a493b0385b05f2751d8e29ec6e49dea443ac8d70833d1920b"}], "txid": "1a7d7d0a817a9f8d647c61862c9bdba07465d149a717145eec1ee475ae68fb40", "blocktime": 1537872018, "version": 1, "confirmations": 11489, "time": 1537872018, "locktime": 0, "vsize": 166, "size": 247}