{"hash": "13e6cf516dc971132f1c28f7adc57fcef2f0f66a887407369cc67d09aa6a4133", "blockhash": "0000000000000000001cda96e906b7601b7a6fb1a3b62bca570a9e5d8f4b3de1", "vout": [{"scriptPubKey": {"reqSigs": 1, "hex": "76a9143ffe3142c16b0b4f155a70aeb5339fb9e33186d588ac", "addresses": ["16qN5gi5QdmaSw5PpAtUx14ei3nALcD3en"], "asm": "OP_DUP OP_HASH160 3ffe3142c16b0b4f155a70aeb5339fb9e33186d5 OP_EQUALVERIFY OP_CHECKSIG", "type": "pubkeyhash"}, "value": 0.01394031, "n": 0}, {"scriptPubKey": {"reqSigs": 1, "hex": "a91443f62a3d4933e05622cd51c77017b970eed9a05b87", "addresses": ["37tN6EtYzsorm6zBcpfWz8w5xRNy3mab33"], "asm": "OP_HASH160 43f62a3d4933e05622cd51c77017b970eed9a05b OP_EQUAL", "type": "scripthash"}, "value": 0.28297691, "n": 1}], "hex": "010000000001019de6932ce7740e2e35ddb9fcd844f1c6eae9d49e9ee8205a032b8d7e49f5ec0001000000232200201dd6ce43abdc84f34fdcc73ab17bc29ae9c934e26a45e54e686de9b71cb3af4affffffff026f451500000000001976a9143ffe3142c16b0b4f155a70aeb5339fb9e33186d588acdbc9af010000000017a91443f62a3d4933e05622cd51c77017b970eed9a05b87040047304402203d501f738b0b26725f402b08775106e71afa14d549ce61e605d17c4834952ee802204b3921d0286d2261da7d9990d572657283cc6cef67e49d2ceccabc623b5dc10701483045022100fccaeb2432268996e97ec21df63944f6c5a87961b6acaadf082d88099f3b308702207a224d3293df1f8e70db4232aabd502c0cf5754e5ef913dcf1a28f6b5ff1b59501475221023d094ce44231935102dd1c672bc70808e5831d5d55d4082df3b1d9c342a4f7b92103c86ff487c5c7bef620008af5c952420bf509584280226750bb54cc3b293fd7ec52ae00000000", "vin": [{"txinwitness": ["", "304402203d501f738b0b26725f402b08775106e71afa14d549ce61e605d17c4834952ee802204b3921d0286d2261da7d9990d572657283cc6cef67e49d2ceccabc623b5dc10701", "3045022100fccaeb2432268996e97ec21df63944f6c5a87961b6acaadf082d88099f3b308702207a224d3293df1f8e70db4232aabd502c0cf5754e5ef913dcf1a28f6b5ff1b59501", "5221023d094ce44231935102dd1c672bc70808e5831d5d55d4082df3b1d9c342a4f7b92103c86ff487c5c7bef620008af5c952420bf509584280226750bb54cc3b293fd7ec52ae"], "sequence": 4294967295, "scriptSig": {"hex": "2200201dd6ce43abdc84f34fdcc73ab17bc29ae9c934e26a45e54e686de9b71cb3af4a", "asm": "00201dd6ce43abdc84f34fdcc73ab17bc29ae9c934e26a45e54e686de9b71cb3af4a"}, "vout": 1, "txid": "00ecf5497e8d2b035a20e89e9ed4e9eac6f144d8fcb9dd352e0e74e72c93e69d"}], "txid": "1a7e760d71b3d6f839965ba563e3256a7fe68aad4eda151247cd971ad2b1c120", "blocktime": 1537873282, "version": 1, "confirmations": 11484, "time": 1537873282, "locktime": 0, "vsize": 208, "size": 373}