{"hash": "1a81b7b447c089f40e43c822c5a2c4467f85dbf79fb8230c0e3d44fa50ba7e19", "blockhash": "0000000000000000001e0dab787dd257d1dbfcb92a98c2207d5e1078be1f4165", "vout": [{"scriptPubKey": {"reqSigs": 1, "hex": "76a9141d879529e596a0ab42bfbab2dcf27efbaa06578188ac", "addresses": ["13h921hz65JvA5h9Xt3KuKyLbtNwjwK1zF"], "asm": "OP_DUP OP_HASH160 1d879529e596a0ab42bfbab2dcf27efbaa065781 OP_EQUALVERIFY OP_CHECKSIG", "type": "pubkeyhash"}, "value": 0.00587077, "n": 0}, {"scriptPubKey": {"reqSigs": 1, "hex": "a914c402abebc7f01c1e9788c3c4e95e1dd4ed9bf4a287", "addresses": ["3KZRZmPnKZ54c9YFRcnjAUXGYS8vj6bXs7"], "asm": "OP_HASH160 c402abebc7f01c1e9788c3c4e95e1dd4ed9bf4a2 OP_EQUAL", "type": "scripthash"}, "value": 0.03672615, "n": 1}], "hex": "0100000001efaad75a2ee68fc51c135ef22c31a25796fb49b4b787f6d22f35baf2b87e7b29000000006a47304402203528bf6d14422470f6a6a637dcb5534b68c744c71d9e2cbf0e3c3e90d28d3ea002207db31cf98e7f72d05651c3c230244753b0d9b2194d9b169decf4c3815635e9ca0121026654ad8db6bd7cb7550d22eeb4814597f6b17f7f6316dac54c9cb1a2274c5683ffffffff0245f50800000000001976a9141d879529e596a0ab42bfbab2dcf27efbaa06578188ac270a38000000000017a914c402abebc7f01c1e9788c3c4e95e1dd4ed9bf4a28700000000", "vin": [{"sequence": 4294967295, "scriptSig": {"hex": "47304402203528bf6d14422470f6a6a637dcb5534b68c744c71d9e2cbf0e3c3e90d28d3ea002207db31cf98e7f72d05651c3c230244753b0d9b2194d9b169decf4c3815635e9ca0121026654ad8db6bd7cb7550d22eeb4814597f6b17f7f6316dac54c9cb1a2274c5683", "asm": "304402203528bf6d14422470f6a6a637dcb5534b68c744c71d9e2cbf0e3c3e90d28d3ea002207db31cf98e7f72d05651c3c230244753b0d9b2194d9b169decf4c3815635e9ca[ALL] 026654ad8db6bd7cb7550d22eeb4814597f6b17f7f6316dac54c9cb1a2274c5683"}, "vout": 0, "txid": "297b7eb8f2ba352fd2f687b7b449fb9657a2312cf25e131cc58fe62e5ad7aaef"}], "txid": "1a81b7b447c089f40e43c822c5a2c4467f85dbf79fb8230c0e3d44fa50ba7e19", "blocktime": 1537872475, "version": 1, "confirmations": 11486, "time": 1537872475, "locktime": 0, "vsize": 223, "size": 223}