{"hash": "1a89a3312c82ee860b374bc27bd9049c01770bf832451680053b55884cd79a76", "blockhash": "0000000000000000001f76057863aec43deb6fa401d9628bb513d65a8098bfab", "vout": [{"scriptPubKey": {"reqSigs": 1, "hex": "a91427fdc177de0d493abb789a8ae1114f68fc82d4bc87", "addresses": ["35LUGHMLYdnXqjNAMhEyyUtQ5hif7QuZCw"], "asm": "OP_HASH160 27fdc177de0d493abb789a8ae1114f68fc82d4bc OP_EQUAL", "type": "scripthash"}, "value": 0.00013489, "n": 0}], "hex": "010000000580c792625adb487a57f325ec7d686d9a22f7c0ff9b291ccbf1631ea3d44a3a46000000006b483045022100c8f8b409b384069a342f127596f3e5da48720e494015f8c59802c23e07c857d70220585518294ee5efc47a36cc771476d6aca3e6f8923e94eee720f25a58411725550121025854bf5a2bf4775ab4ac359de63bb72232532844fc51867a2da7ab67b28d76e1ffffffff6843a3775cbddab6cccd3bd37ac9ddd7ec182f195357adadf8d4d8a7de49af94000000006a47304402206b200f81b2077495530631c7eae56e6c228442f03cda992da3a50e1c75ed075b022002b27c2286bb0f236f52226fc4300564ebcaa48d3d327fe1458c050861d87492012103c84aa4e7b542418f0aa1dcf6550095f21700a5b47f3a502ec6fe95ecc997ebfcffffffff0af0438615c7d971c6b05f2bdc3eaaac8b99964d4e8bce096ac61efd9e8f04a2000000006b483045022100f2c78e99f227561bc5616bd2a2a09d3222859e66174b959ea2df7fdc1f3c585602204db8d16e48270e1df63a232a0d6712f056b2e60a2bbf880e9e66f83ed799e431012102e70c7400c5a55bb04af35b13059e35f106b5611640cfb5347c0d72195c5dda81ffffffffebcc3b2f0bc09c9ca1e0472cfc098bfc789b933e1f275b792c10dfba212f15dc000000006a47304402202917f09369a2c3c813fdf8e563b168e0744bee061e0b47becc8481f701f574c5022049315d706a250f46129382b778874c04d4535f61af168ef4729b75925cdd36ac012102405b34fccda77155e6adced985cd85899f2a1a12bdfffea521cf0ce522477f03ffffffff4ff6bcf78e47f1188a1d867dfd68e83dd965938bccf03c4ebf13e9c0a3e079ea000000006b483045022100e09e1902628945d66881db4b8e0c1d636abab88afed02f59d3580a035153633f0220174d0c71905f2aaa4db2b3905531774e6582119656284ca0a5e3322b199a04a8012102c8a92b599fdb41a30102344ccecdb722fdbdede9726c0f735e3a4c5da67f3182ffffffff01b13400000000000017a91427fdc177de0d493abb789a8ae1114f68fc82d4bc8700000000", "vin": [{"sequence": 4294967295, "scriptSig": {"hex": "483045022100c8f8b409b384069a342f127596f3e5da48720e494015f8c59802c23e07c857d70220585518294ee5efc47a36cc771476d6aca3e6f8923e94eee720f25a58411725550121025854bf5a2bf4775ab4ac359de63bb72232532844fc51867a2da7ab67b28d76e1", "asm": "3045022100c8f8b409b384069a342f127596f3e5da48720e494015f8c59802c23e07c857d70220585518294ee5efc47a36cc771476d6aca3e6f8923e94eee720f25a5841172555[ALL] 025854bf5a2bf4775ab4ac359de63bb72232532844fc51867a2da7ab67b28d76e1"}, "vout": 0, "txid": "463a4ad4a31e63f1cb1c299bffc0f7229a6d687dec25f3577a48db5a6292c780"}, {"sequence": 4294967295, "scriptSig": {"hex": "47304402206b200f81b2077495530631c7eae56e6c228442f03cda992da3a50e1c75ed075b022002b27c2286bb0f236f52226fc4300564ebcaa48d3d327fe1458c050861d87492012103c84aa4e7b542418f0aa1dcf6550095f21700a5b47f3a502ec6fe95ecc997ebfc", "asm": "304402206b200f81b2077495530631c7eae56e6c228442f03cda992da3a50e1c75ed075b022002b27c2286bb0f236f52226fc4300564ebcaa48d3d327fe1458c050861d87492[ALL] 03c84aa4e7b542418f0aa1dcf6550095f21700a5b47f3a502ec6fe95ecc997ebfc"}, "vout": 0, "txid": "94af49dea7d8d4f8adad5753192f18ecd7ddc97ad33bcdccb6dabd5c77a34368"}, {"sequence": 4294967295, "scriptSig": {"hex": "483045022100f2c78e99f227561bc5616bd2a2a09d3222859e66174b959ea2df7fdc1f3c585602204db8d16e48270e1df63a232a0d6712f056b2e60a2bbf880e9e66f83ed799e431012102e70c7400c5a55bb04af35b13059e35f106b5611640cfb5347c0d72195c5dda81", "asm": "3045022100f2c78e99f227561bc5616bd2a2a09d3222859e66174b959ea2df7fdc1f3c585602204db8d16e48270e1df63a232a0d6712f056b2e60a2bbf880e9e66f83ed799e431[ALL] 02e70c7400c5a55bb04af35b13059e35f106b5611640cfb5347c0d72195c5dda81"}, "vout": 0, "txid": "a2048f9efd1ec66a09ce8b4e4d96998bacaa3edc2b5fb0c671d9c7158643f00a"}, {"sequence": 4294967295, "scriptSig": {"hex": "47304402202917f09369a2c3c813fdf8e563b168e0744bee061e0b47becc8481f701f574c5022049315d706a250f46129382b778874c04d4535f61af168ef4729b75925cdd36ac012102405b34fccda77155e6adced985cd85899f2a1a12bdfffea521cf0ce522477f03", "asm": "304402202917f09369a2c3c813fdf8e563b168e0744bee061e0b47becc8481f701f574c5022049315d706a250f46129382b778874c04d4535f61af168ef4729b75925cdd36ac[ALL] 02405b34fccda77155e6adced985cd85899f2a1a12bdfffea521cf0ce522477f03"}, "vout": 0, "txid": "dc152f21badf102c795b271f3e939b78fc8b09fc2c47e0a19c9cc00b2f3bcceb"}, {"sequence": 4294967295, "scriptSig": {"hex": "483045022100e09e1902628945d66881db4b8e0c1d636abab88afed02f59d3580a035153633f0220174d0c71905f2aaa4db2b3905531774e6582119656284ca0a5e3322b199a04a8012102c8a92b599fdb41a30102344ccecdb722fdbdede9726c0f735e3a4c5da67f3182", "asm": "3045022100e09e1902628945d66881db4b8e0c1d636abab88afed02f59d3580a035153633f0220174d0c71905f2aaa4db2b3905531774e6582119656284ca0a5e3322b199a04a8[ALL] 02c8a92b599fdb41a30102344ccecdb722fdbdede9726c0f735e3a4c5da67f3182"}, "vout": 0, "txid": "ea79e0a3c0e913bf4e3cf0cc8b9365d93de868fd7d861d8a18f1478ef7bcf64f"}], "txid": "1a89a3312c82ee860b374bc27bd9049c01770bf832451680053b55884cd79a76", "blocktime": 1537873891, "version": 1, "confirmations": 11478, "time": 1537873891, "locktime": 0, "vsize": 780, "size": 780}