{"hash": "68964d19bedaa56d2909a428c57558551f080ca55dbdeef3d95728cdd9e0654e", "blockhash": "0000000000000000000dcc0f55137456b1a82d3642486a52398922ac4d620174", "vout": [{"scriptPubKey": {"reqSigs": 1, "hex": "a91448c6dfbd3bdf5206574ef308ed868147ea20e76f87", "addresses": ["38KppMx3LEUREsm4tfkef417S116NNFGk4"], "asm": "OP_HASH160 48c6dfbd3bdf5206574ef308ed868147ea20e76f OP_EQUAL", "type": "scripthash"}, "value": 0.0021, "n": 0}, {"scriptPubKey": {"reqSigs": 1, "hex": "a914627aa52932456d89054bd84f86246af3b71b93a887", "addresses": ["3Afj4stdiLG9EktGrMbm252ySonnhYaz8v"], "asm": "OP_HASH160 627aa52932456d89054bd84f86246af3b71b93a8 OP_EQUAL", "type": "scripthash"}, "value": 0.58246405, "n": 1}], "hex": "010000000001017440b95e96ff82db88ed0feb830b3ef22ce7b2d5b2ac1387a11297c4cb94d45c01000000232200205fdd641234b13964b223bd85ad2a4a667ca2099df3d42a1d3b45706a8d81abf0ffffffff02503403000000000017a91448c6dfbd3bdf5206574ef308ed868147ea20e76f8705c578030000000017a914627aa52932456d89054bd84f86246af3b71b93a887040047304402203a6c065b8606c93189e21c307980bcf28df4294a58fd999c842a76ff5511de0e02207b31925a1492d5c43e4dce2df99ababd21b4a80d3be8cd6c92bc3f80cc888eb9014830450221009bcd57be869cd00f4d58f1eb6e2a08845ca5a10b0101aa7b4811d5292e1bdabb02206927e8573a2abc877af5e37615046b8353ad35bc061a814046b648d857e9d5810147522103dcde3832fa56def7b4e783faad1b8af85c3cdd74a5ff4f3c7c216b1075c18da12103c70ae8ded79be1afda73b9ce5ea14a3878908ee160d66a9a717e792bb6db276952ae00000000", "vin": [{"txinwitness": ["", "304402203a6c065b8606c93189e21c307980bcf28df4294a58fd999c842a76ff5511de0e02207b31925a1492d5c43e4dce2df99ababd21b4a80d3be8cd6c92bc3f80cc888eb901", "30450221009bcd57be869cd00f4d58f1eb6e2a08845ca5a10b0101aa7b4811d5292e1bdabb02206927e8573a2abc877af5e37615046b8353ad35bc061a814046b648d857e9d58101", "522103dcde3832fa56def7b4e783faad1b8af85c3cdd74a5ff4f3c7c216b1075c18da12103c70ae8ded79be1afda73b9ce5ea14a3878908ee160d66a9a717e792bb6db276952ae"], "sequence": 4294967295, "scriptSig": {"hex": "2200205fdd641234b13964b223bd85ad2a4a667ca2099df3d42a1d3b45706a8d81abf0", "asm": "00205fdd641234b13964b223bd85ad2a4a667ca2099df3d42a1d3b45706a8d81abf0"}, "vout": 1, "txid": "5cd494cbc49712a18713acb2d5b2e72cf23e0b83eb0fed88db82ff965eb94074"}], "txid": "1a8d6a1ced5afd6384d37e9c6b65b64c608598fc7a8a68ac20bfa02c5d99d9cf", "blocktime": 1537870268, "version": 1, "confirmations": 11518, "time": 1537870268, "locktime": 0, "vsize": 206, "size": 371}