{"hash": "1a9201e154252259ae8eb337e405574c319753f0f3c1c7292825fa353516a494", "blockhash": "000000000000000000022b45ed06c6f4ccd3cf7fb5ba4856ebd2e58215665228", "vout": [{"scriptPubKey": {"reqSigs": 1, "hex": "76a91469dfa09a0e9c0ef79726385c211f1148be2f618f88ac", "addresses": ["1Aeor3VPDyEgTgZVufU8D7kciyc177KctJ"], "asm": "OP_DUP OP_HASH160 69dfa09a0e9c0ef79726385c211f1148be2f618f OP_EQUALVERIFY OP_CHECKSIG", "type": "pubkeyhash"}, "value": 0.00625, "n": 0}, {"scriptPubKey": {"reqSigs": 1, "hex": "76a9142d08cf9beeaceedd12a6d930f8b7592f8fc64df688ac", "addresses": ["1577xq7UfnpZdqMsPgwMHmhrCh5kSxE8rw"], "asm": "OP_DUP OP_HASH160 2d08cf9beeaceedd12a6d930f8b7592f8fc64df6 OP_EQUALVERIFY OP_CHECKSIG", "type": "pubkeyhash"}, "value": 0.01574721, "n": 1}], "hex": "010000000194fcda7235d0ada589a40fc09d158555ab18a4934fc7f082c466b633f011cb7f150000006b483045022100d36ab2e586ee0b1d035c47505de8d9992c723a4022a80c7110a69bc0c0e70adc022004643dec136438beafc83af2121883ed8efcf9927506314d4398ddbc0c792ada012103f9c871bd1efab8a9c8a6b1edbe4cd98aa998d37b8808bd8c7c95c2e99c1f0d2dffffffff0268890900000000001976a91469dfa09a0e9c0ef79726385c211f1148be2f618f88ac41071800000000001976a9142d08cf9beeaceedd12a6d930f8b7592f8fc64df688ac00000000", "vin": [{"sequence": 4294967295, "scriptSig": {"hex": "483045022100d36ab2e586ee0b1d035c47505de8d9992c723a4022a80c7110a69bc0c0e70adc022004643dec136438beafc83af2121883ed8efcf9927506314d4398ddbc0c792ada012103f9c871bd1efab8a9c8a6b1edbe4cd98aa998d37b8808bd8c7c95c2e99c1f0d2d", "asm": "3045022100d36ab2e586ee0b1d035c47505de8d9992c723a4022a80c7110a69bc0c0e70adc022004643dec136438beafc83af2121883ed8efcf9927506314d4398ddbc0c792ada[ALL] 03f9c871bd1efab8a9c8a6b1edbe4cd98aa998d37b8808bd8c7c95c2e99c1f0d2d"}, "vout": 21, "txid": "7fcb11f033b666c482f0c74f93a418ab5585159dc00fa489a5add03572dafc94"}], "txid": "1a9201e154252259ae8eb337e405574c319753f0f3c1c7292825fa353516a494", "blocktime": 1537869901, "version": 1, "confirmations": 11524, "time": 1537869901, "locktime": 0, "vsize": 226, "size": 226}