{"hash": "1a921c4599e9a61a403a76f31e9673dc5f9080cd4c181b3ac34e9c7f2d4803f0", "blockhash": "00000000000000000017f5eb5941039fbcee6240d03bc1f2f8e35350df66a1d8", "vout": [{"scriptPubKey": {"reqSigs": 1, "hex": "76a9145e88165990fc78df714bedd88c99939a36232d2988ac", "addresses": ["19cqYYY5Ez33fX2PFMiTmPJS387QQrCvYA"], "asm": "OP_DUP OP_HASH160 5e88165990fc78df714bedd88c99939a36232d29 OP_EQUALVERIFY OP_CHECKSIG", "type": "pubkeyhash"}, "value": 15.661011, "n": 0}, {"scriptPubKey": {"reqSigs": 1, "hex": "76a914629aa91d18a549a9e8c20df306e595f7bed0d1e288ac", "addresses": ["19zNVomJtwtbrJaPeo5eRwDwskxmuY6pUa"], "asm": "OP_DUP OP_HASH160 629aa91d18a549a9e8c20df306e595f7bed0d1e2 OP_EQUALVERIFY OP_CHECKSIG", "type": "pubkeyhash"}, "value": 0.01895558, "n": 1}], "hex": "0100000001a3321d9e1c64db5e377ea96a0dbfb33b2cb0ab8eaf40443fd20a13b3c193c9ad010000006a473044022025c004d08615821cc279b5bbdaf31a7a3ba6279858116e1f8cc3a85e49850d1f02205f07b0f457197448d4b345069f7152b2c6f0b9472b62387e681c4c53c7081d2c01210251efb2ad073dfb87c30198fb8852ed1cd2b5ad6f5d150e56728b5af1f5587e4bffffffff026cce585d000000001976a9145e88165990fc78df714bedd88c99939a36232d2988ac86ec1c00000000001976a914629aa91d18a549a9e8c20df306e595f7bed0d1e288ac00000000", "vin": [{"sequence": 4294967295, "scriptSig": {"hex": "473044022025c004d08615821cc279b5bbdaf31a7a3ba6279858116e1f8cc3a85e49850d1f02205f07b0f457197448d4b345069f7152b2c6f0b9472b62387e681c4c53c7081d2c01210251efb2ad073dfb87c30198fb8852ed1cd2b5ad6f5d150e56728b5af1f5587e4b", "asm": "3044022025c004d08615821cc279b5bbdaf31a7a3ba6279858116e1f8cc3a85e49850d1f02205f07b0f457197448d4b345069f7152b2c6f0b9472b62387e681c4c53c7081d2c[ALL] 0251efb2ad073dfb87c30198fb8852ed1cd2b5ad6f5d150e56728b5af1f5587e4b"}, "vout": 1, "txid": "adc993c1b3130ad23f4440af8eabb02c3bb3bf0d6aa97e375edb641c9e1d32a3"}], "txid": "1a921c4599e9a61a403a76f31e9673dc5f9080cd4c181b3ac34e9c7f2d4803f0", "blocktime": 1537874412, "version": 1, "confirmations": 11467, "time": 1537874412, "locktime": 0, "vsize": 225, "size": 225}