{"hash": "1a97af3e5db0013c1f830b46e3a4d595c450e0985d8310ac5a34b01a4c89bc60", "blockhash": "0000000000000000001f76057863aec43deb6fa401d9628bb513d65a8098bfab", "vout": [{"scriptPubKey": {"reqSigs": 1, "hex": "76a914a827f1ae5232d832ad14d771dcd535b951774a4388ac", "addresses": ["1GL8NbDNSYv8hCLc3zZSSaMzDoiFXdEXGM"], "asm": "OP_DUP OP_HASH160 a827f1ae5232d832ad14d771dcd535b951774a43 OP_EQUALVERIFY OP_CHECKSIG", "type": "pubkeyhash"}, "value": 2.911e-05, "n": 0}, {"scriptPubKey": {"reqSigs": 1, "hex": "a914e57ad4d6f8266ec0f7b23ffa71c98e72dfa9e7ec87", "addresses": ["3NcPowyFB3TrVmcWsishJysS6pseq9YPoC"], "asm": "OP_HASH160 e57ad4d6f8266ec0f7b23ffa71c98e72dfa9e7ec OP_EQUAL", "type": "scripthash"}, "value": 0.06485, "n": 1}], "hex": "01000000022ac2940d2e66e9a2cd3eb57add995e05c774c7249a8a92eb1f44407a95fca11d000000006b483045022100d6e1cc36efcf0bcd0f8da686a0fdacd80e65e56edb025ce462212b43ddbcbb590220010ec699d39d0e013b28cf053eb8ed2bc6250438b81338ee6dcc938767a9a64f012102b74012c090820d5a4df7707bf128710acb3c5dd295354d9c620fb753cc8a1f97ffffffff0d388b9c5738df0d7081773a18d10d649184305888c8ef3cc2748505fa7b8973000000006a4730440220631b3e8bef5730c6757705dc34773a9e39a4c69b3aa5348868ee184d325ec65702204f03a99996b696d6348296717b1131ccd142013ddbb1378fad669dae67d1b0b4012102f218d1dcfbbc3a36301633510827c0c74075281d746d8cfaa600f2f0914820c2ffffffff025f0b0000000000001976a914a827f1ae5232d832ad14d771dcd535b951774a4388ac08f462000000000017a914e57ad4d6f8266ec0f7b23ffa71c98e72dfa9e7ec8700000000", "vin": [{"sequence": 4294967295, "scriptSig": {"hex": "483045022100d6e1cc36efcf0bcd0f8da686a0fdacd80e65e56edb025ce462212b43ddbcbb590220010ec699d39d0e013b28cf053eb8ed2bc6250438b81338ee6dcc938767a9a64f012102b74012c090820d5a4df7707bf128710acb3c5dd295354d9c620fb753cc8a1f97", "asm": "3045022100d6e1cc36efcf0bcd0f8da686a0fdacd80e65e56edb025ce462212b43ddbcbb590220010ec699d39d0e013b28cf053eb8ed2bc6250438b81338ee6dcc938767a9a64f[ALL] 02b74012c090820d5a4df7707bf128710acb3c5dd295354d9c620fb753cc8a1f97"}, "vout": 0, "txid": "1da1fc957a40441feb928a9a24c774c7055e99dd7ab53ecda2e9662e0d94c22a"}, {"sequence": 4294967295, "scriptSig": {"hex": "4730440220631b3e8bef5730c6757705dc34773a9e39a4c69b3aa5348868ee184d325ec65702204f03a99996b696d6348296717b1131ccd142013ddbb1378fad669dae67d1b0b4012102f218d1dcfbbc3a36301633510827c0c74075281d746d8cfaa600f2f0914820c2", "asm": "30440220631b3e8bef5730c6757705dc34773a9e39a4c69b3aa5348868ee184d325ec65702204f03a99996b696d6348296717b1131ccd142013ddbb1378fad669dae67d1b0b4[ALL] 02f218d1dcfbbc3a36301633510827c0c74075281d746d8cfaa600f2f0914820c2"}, "vout": 0, "txid": "73897bfa058574c23cefc88858308491640dd1183a7781700ddf38579c8b380d"}], "txid": "1a97af3e5db0013c1f830b46e3a4d595c450e0985d8310ac5a34b01a4c89bc60", "blocktime": 1537873891, "version": 1, "confirmations": 11478, "time": 1537873891, "locktime": 0, "vsize": 371, "size": 371}