{"hash": "1a99e666dfd94418d59ce239ce26fde5d03e454fb877868dc35f653779e1ae08", "blockhash": "0000000000000000001e0dab787dd257d1dbfcb92a98c2207d5e1078be1f4165", "vout": [{"scriptPubKey": {"reqSigs": 1, "hex": "76a914e8cea30989bd15530f819b766684b00dc7ba7cfa88ac", "addresses": ["1NDyJtNTjmwk5xPNhjgAMu4HDHigtobu1s"], "asm": "OP_DUP OP_HASH160 e8cea30989bd15530f819b766684b00dc7ba7cfa OP_EQUALVERIFY OP_CHECKSIG", "type": "pubkeyhash"}, "value": 9.96383671, "n": 0}, {"scriptPubKey": {"reqSigs": 1, "hex": "76a9145463cfef1cdb3c38ac3a6a8abd6545ace19198d588ac", "addresses": ["18hDLC1vxiHYHEV7GzqZG9HavQDz7Cg22a"], "asm": "OP_DUP OP_HASH160 5463cfef1cdb3c38ac3a6a8abd6545ace19198d5 OP_EQUALVERIFY OP_CHECKSIG", "type": "pubkeyhash"}, "value": 0.01000022, "n": 1}], "hex": "020000002303b7bc66cee4167176bdcd78ec08dd84875d63bc09a6589f3c8671d450b0f0cc010000006b483045022100a827e1889532ee63e18f84f48234d6bed1e521fda97408bb0a86e803ca70ac080220648ef0f97e91b18d425f3d09c05a6148ecc3e3f0de08644a2db3ef069c299bff0121022eb7b1a9d45b1ec1c9ae5929f4d7c25f2732eccdf7f78ba5d07c33dfc9577250feffffff053e41073282688c3b85b22bad448e37dfde7c29d6bd103c1f766c5aa83c1a0b010000006a473044022045fc74c4300be90892e2a4678acba479c8c7367d873a290aeae073ab8352599502201967532c210334bba9645e826b5b5584c7d79ebb921a98d033deae022d223c3f012102e16a1dfc5e3c32f89727fbf306faa62088e588096528a0eb303cf81b9b097e6cfeffffff0a05f3d41c75a8cf98408a068ead1f79ee7ac7fdb663c29a03736310ca0cabd5010000006b48304502210098173068d2165d70b7c5778d9b75e5c50ab9b8bcb4593f04034ba7528aa4627002207765fad48a40b7d9ddeee20384780c2c0dae5ac4da12d6dd3073fa5ee47d655a0121038a32bb7598a7d302ac24b7ba5ac89db635999acd95ccefbe94212b4e9c604739feffffff16ed11460a0e94ffd788483bdfa359fc3c06b5471b44ae88f7736456add8bb50030000006b483045022100efdaf3e7f8b7ec1f6b672a43f0203eb5bf663b9d2d1bb8a97f2e03c96c8e2c600220148a3caf45e3237acb72127c70755f6c3b7aaf8e56353e9ba1c48bdca2d45c0a012102a1cb117b90b0b18b97b6a549389d3d22bd3f1548ed5a5d6f515fd64cd7805e36feffffff1e90b3bcf4c5e5caff96b19e877e921781163416d05601e1771564b2dd4b175f000000006b48304502210098e7956473c327a1bf5d7f6049f7b53d558d2d46712c0d9f3c9e684bf36886660220234bac7a2ca80b9d440c63b0a64b54df0136f533b6ba663836bf71ef6dd2ad4e012102afedeb8696661e3d6b078d40c5b824c58609cea8b7d0041b8b4568cf4c01a0e6feffffff251e271ca2925a361d9e44f478fdf14058213bacd9575b886a5fb9273e92d2b6000000006a4730440220735ad63a838f25efcf1efd7837d416e845d221b0183b7328903cd8beb8d05d8e0220577756b6806db9bee289e139b3fcbb3ca72fd726d99cd721f54875d8eebc04390121034ec47f62a04de7821cc052985014c1460384f76555b50ead68eff6604ef92bcafeffffff2bf03647701c8d3724aa30dc5f9e8c99de3a042636686047c263862010fe10eb680500006b483045022100fa7ce1f75bad45e40f0030ba78568b022bd5d7d68d6b2a51ec5d801fa3637699022044ef31a32191a8c8ad0d8fcee4cfd4365c1ee012c6eae67a30e510fb7d0529c3012102090e581c84e97c1faeaa7d97a15e6debd5ecacee19dcf7b5945f36ce3dce0a24feffffff2dffd4395d4e5af2b2d4a88a8fac691e49a7b9343717a56976456c661c8ae970010000006b483045022100e81360175207c8fa4daf11a74f96ee3beda4a9216a0c2e44b80c55d3d3fcd4bf0220444ea5e7d2d4570daae547a61c158d43a80af89496a959148ddb06f83981c6c1012102e14c98d7a725838cb081eb74f68dead67cefe6fe2071a9187d6212b80c407960feffffff344ad69214a6661d8801f0733e06b5221cc74afbcae8e0c4b466e7c1effd324e010000006a4730440220213b845afe36b7828bcad6ff9b8bf4b6f40e2bde52c155523a5682e89f235d7e0220269fe58d393e930d73b7cef5eee92d3f6780f661bbd94aceb203bb830e70a509012102b9fb93109ead674b6b51bc430035940fede0a5dbc78b924010d9f86707b41cd1feffffff3905ef4870c04ac5698bd4673d9b9244ee0e29746e54fe7324115fedb25f722e000000006a4730440220596d4c69c4da3dbb2ea32d60536ff581c728cc76b7882920a5037c516f0c3635022016c116b465003e8a9d6c65bc68066b25d14a8fe2e3b087d8ba735215b7fb17ef012102682c8e91eefcaf162e547548e3aaecc95597fdc2724573333e2c9b1d6f62054bfeffffff491b646b208feb207f1c48a4ad34e5f83940e60047da1c8f014418db9ae89ed14a0000006b483045022100a742db2702f8ccb83544d6f6d4aec804b6a381fac3385ba2114ecfd2d7aed462022003fc8e232ea5dc5d212c6a9b4a757e1c2f4589d65eb72d687e518d76a902232f012103414af8e0977b6298e306fcbde06396dbe8dd4f67e52a22382ee93bde13e33d2bfeffffff4d6359bf5bf0990d4fc552a2f0dd965f2b79f1b837e6717eb8808ed66da6a487010000006b483045022100beb65b42d8c00b9394e9b932453b01af5d609a6b0f5fa019061f61267aef1c7f02204868810422752bcdd4b02dea35d0648b0c9768d629821b0184ed0f1cd621db5001210217e4ff2081c28f18d7abf6f505a76090ed10f29d103919311b52897995affe0efeffffff5a316eb5f757b4340e293cf3b8bb3624b87b0f5480467d7c013ab9de46ffb2f6000000006a473044022045d14180ab0be24e9f307790ad561c3d3be410f2fc85bbcb53b62a830520a5ba022048525688d20d03837684e963ae4cdbbdd28464b833fd82f9f0815413f3011e12012102b3ec1f2bed942f16363e9368368fe4f5d4333e2e6c5a233ca0a2ce44aa7c7300feffffff6128cb9ecf7e1abb1390385e2eefa03afedf81262a16b30b4d34df14faecbcc1010000006b483045022100f13a14a7ca0f443209ca4e8d09e3f2cfc12938793c2709478605792d7cc33d3602201626c3a23c7410b002e57a826aa5006b39663b0d23a1bdbc169cccc0a63a424c012103701cd10c3be331371ec5d2a292488faf7828409ccce65df709033332fdbc6817feffffff868f3c6099f839936aed5dceea242482c4a96c3dcbf8f58775adb0f8fc762252000000006b483045022100d3e727d43319f350442bf58940a6d395c33a739634edbfd5ac822a3db08ab1e002207a4555289ed9e0db67892be8e9802da1fad14fb5ffa2a63bbdfc3c3e609a0c52012103ffff6e11a7939741fd95f771b3f184bd3768609bd06e52e7e846ee27eedf60a5feffffff8a9626329fc7499cb308693b4e7365a9f670bbab1b7d4aed8f3d0a0223e6506c020000006b4830450221009b1d0b2838747d7057c1641114caeeead895032493fd047495dd89d8ba7c2e0202204e7aaa04b1ddad731b1f98f1198c256f042c8eb23c7df0ac38a66eb137187f5e0121030ed29c634eb77e77c9a1ab2491e0def48c1563f58d8d40e1b47cf440c0a9ef7ffeffffff8dfcb1518428abd8a5de8a42e0fc1fbf0e5b7851646fcd4be7c8f0a45dcc204c000000006b483045022100f8344d7ec5af616994d460c98dd14a232442ac709778df30c247f9b75a2368c602206e80d487e282eb99e60e0d2dfc8b55b0b0f7f549f90df75e5fc821e930952a43012102f7a7b5a038fdf9169756b0eefb9cc516213089e6a83c2e238f22736109a825dafeffffff91a198c03105da43cafbd272cdd905f3c3235670bd1133bdc524385bcf5b4db4420000006b4830450221008aac170d460c6c7ac330c4c78c3cb906ca9ec6ffe868074ee427d7543f2798f90220313bf0f931a48a3621cf232867c39c669746dda28aed0fa613ee3ee9a25b0ac3012102829c4d8c9be1d00c824c511b2bcebeaec133c715fea830d6087990f97ce8d2c4feffffffa0cac1865ec325fed716c80ecc835c67ebf712f2e368e685e111f059de2daaf7010000006a47304402200ff86646ee083b961f1dc786790390e85f2cd59fa107b6a4b027c7161647f7cc022013ccc3bdb35c9a42b28e3c4b2d71565e78c38b20a7db6d4d570c6d9b6923c1530121028393baf0a6995fa53cb52702aa40c4240257a51afa7fa5d3f088593b3c82b62afeffffffa371a42d649823d74c4057b93ae864fb02fe09d5948c24a1c1a221cd26481bf4000000006a473044022000e5b998a979411798ad39f692edc4d7a79e9d87d81b4a3bd6de3be481666d7e022031d662a0e4c529cfb3f871c066baae7bece9d805a0377091e2d99b1cf424f65301210311155216ccbfdb66f4b9746966498c3ccaf1a46fabed95cf39d20ce8be8a3a3ffeffffffa59b20850d5a861f20b5da09adca968b95240b48e0f1065d5cc9ca736e649723010000006a473044022007159e725f226f6829697baeaf04de21d54cc846d60be426d86656c0b2dd758502207c5d594bd1bf99e6fa941322a179c87fdcbc3a5f4f45b9722a049f23994f15280121022ee2cf118558ece1f7f757ecd90d2c17cc7c3fd3d9d0895eafbec0fbb6528a02feffffffad23524bfc0d8040c8f1b6fe10b5fabdf5eaf993d49b4bdc02a790d39e78b58c010000006b48304502210080ba4a29ca944640530e86e4b4bc883aa090ea2248ed284afba273310c37b45902207f130b5df2bb00f10545d1f68b2230ef394c782c2fe0c076d958fcf6a476d72901210368d4974c84ed83a095d2b11956c777da59e382039b6ee21e3e730ff8d898ae51feffffffb033901f27a041180ca3a0ba39fe59ef8f066754df104c72efc3188a0f4110b8000000006a473044022032652dc2b980d40fa44c65bc5216a944cfdfd2a2512af6f2a92c0183a2c9d67702200b7179cde478766f308cca976ceebd6dfc17a2d08bbed1f4fbdfe8bdc2e0588c012102db61d30117b8780236d476ac6b60cbd589670de0201ac331eb58d5d02e758068feffffffb3817fa8d09012acd1debafeb5374ca3799998521716f413fad0b5172733f5a1080000006a473044022016119d15fec0c52e6c6c36dfc7262b973f30f0c96c053565d8e5929656b99a0002202e78d24bf245536c3124c553306a9d62b5916bf44d7a24b0f8d29baee2e72575012103cf30f82d390ab57dbf85d94858311bb025abe1a52f94443a356e244f92d0381afeffffffc0ffe871618f097d6ab6a25e524768eda604752123a3d4d5c350203265c05169340100006b483045022100a1a81269ddb3c8eca9d8886bd084212c9b7539aeb5aff544dbedb339efaca19f02201241cc12dce4b241f6d72cb85d0720156e002dc2e6c4cbee6031bd2ac19c7f870121021c919cf40cf7b88260fa99aa04806c253c3def1b58544fbf00ae5703b14998a0feffffffc0ffe871618f097d6ab6a25e524768eda604752123a3d4d5c350203265c05169550100006b483045022100c33588270a644b04136744701113b3d0342700b1464d845258e2a7d78bff1657022025e2902ad6c6d61cedbfe9818fe76f9f70abfd6a08e77ff8dfa4ff81511ee65f01210345098c73d0a7739698691f937559762a671cb4fcca201d03f81c359a4928353bfeffffffc8deca19e9761b47203b3362ad6b2157314154fa78536d52d2899451da05aab4e70000006a4730440220680e8746297684610880a6a64f4b0048368cbf48bdf8f94b2e9e70fd3cbbf516022004ab96300a5843662e2cc17945f57c5e89c791cc76bf60a51e776c9601ed04a501210332cf61a0c6926d0d19b6fcf907047a3448f15258235080b3ebe28235a8ecf906feffffffcd5ce16bffddfcf8442237bb06faa98def74699a3b217415d43e8fb0a9cf01cf010000006a47304402200d8d3ae145979f1ed88debba8bcd2001871542976b44fee498496fa59dba4fa9022040858783de26669f7a78d8788232a7f40d10b313a9a926c202086938984daad00121020f666d82135e2aa43735caa05814254d99cd51070b06ef93eda1969dd9d06bbafeffffffde527480c0fc8d80b948a490dbf36d0e0ce39f5a0d7bd3f350f1aeb4580af12c010000006a47304402202ba04bb0d643cfc5f8fd76120d4ff9ee65c3e28f7de7b61ce73f83666ac27df9022074c9ec8bcf283faed24d4200fe35c9338a1901a58e413aa5696ab586ceeb8baf012102dd753b84b6511595cbbc2c7cfa1f95f2003176fd44dd351bcd686b89df31b542feffffffe1f8b12f21a2e79ab9a8b67d0ba9d5f6dd62d50877b424624ee02ae39b342fb7010000006b483045022100c2872bfcd590ce31d4b8e6687ea8f9ee51b42627b0bc98465219917d6bec929102205fa58dc637c2b8bdb2d8e74137c6a7a805213dd7a90dc64b2dbdb9e5c0ae0674012103dbf1bf6a94a3091078022c1ea67da2bee0dfa8ba8ab61805aa7f58267ae294b4feffffffe5dca7a3317db4ff0b30d2ee4cee01c3e73d03e5f1967879b4fcb9a90b704955000000006a47304402202f488697f58311c6aa80bf78b4afcb6c855a4c0c3d950071d002ce6b783281a902205cadc98d779d341129d9a7197b9505824c1eb8909e86a6642ab86aec07d5ec86012103aa93b0fd8feb31a8fa1ad00330d2f78df715852677bd814ae9933aa9ee4cbe40fefffffff25ad0d4c715e383966adb00abb7c13854e38b7ceb1642f62871389a74078a15000000006b483045022100ea67a5b9de5a118da72bf2a10d83fdb5fca19ec12ba1518acdc9bd8d62bbf47f022043452aaf7db69e8435af5e02d9bba0e8534ea475fd281701749dbfd587c64edb0121029e77606709961f667602a4a094b50a5b4faba6e8bc7a8f56dd86d4ca9be39e3dfefffffff823d7b2dd70684f2ebb9a192907a463cfe4348d2fe8c1270c594491cf64d517010000006a47304402200f48bf7cad77abed6af80a5532d2e1e6c4eaa01560cc2e4fd83d4c3a34ded32002207567a51c8cd9914abd07c781dbcd2e9b7b569fde3b341bd631a8f00d746ba941012102879748a6d4392b37d93116e14d091b107517cbdcecc523f4123e68bb5a660ed8fefffffff86a2b406a7867c5a1e3f7bdb2096f7d3314ec1d99ec86ebeaab6d0262a2bf69010000006b483045022100b59f95068f4c5fca548fda1a68762b2526501999a86631e7958230db53703c5a02201e7d7de30d194f560a1e8cbcde40be1dfe573daacb832042e91f285129ddf4be0121029c374e395512e3991c2713b02bc7b94add81b8fceb5df052ff7ac9b1275d3711fefffffffc171515bc729cb25f4fbd4d09c023020481c84f2e6a6f9a570e676a69c0f686010000006a47304402201498d3cfecc68ffc688450b3b8337b60d35c4dd68a5775f30a84a358a8cd5c7a0220074aa75b4bdfe0ba888a75d09da193c3ee5237baac10c73dcb3175e85be56b85012103962ae74780c1a8d82c55727e214abda35d1ba69a7dc91bcc779bc4c6f372055dfeffffff02b79b633b000000001976a914e8cea30989bd15530f819b766684b00dc7ba7cfa88ac56420f00000000001976a9145463cfef1cdb3c38ac3a6a8abd6545ace19198d588ac12490800", "vin": [{"sequence": 4294967294, "scriptSig": {"hex": "483045022100a827e1889532ee63e18f84f48234d6bed1e521fda97408bb0a86e803ca70ac080220648ef0f97e91b18d425f3d09c05a6148ecc3e3f0de08644a2db3ef069c299bff0121022eb7b1a9d45b1ec1c9ae5929f4d7c25f2732eccdf7f78ba5d07c33dfc9577250", "asm": "3045022100a827e1889532ee63e18f84f48234d6bed1e521fda97408bb0a86e803ca70ac080220648ef0f97e91b18d425f3d09c05a6148ecc3e3f0de08644a2db3ef069c299bff[ALL] 022eb7b1a9d45b1ec1c9ae5929f4d7c25f2732eccdf7f78ba5d07c33dfc9577250"}, "vout": 1, "txid": "ccf0b050d471863c9f58a609bc635d8784dd08ec78cdbd767116e4ce66bcb703"}, {"sequence": 4294967294, "scriptSig": {"hex": "473044022045fc74c4300be90892e2a4678acba479c8c7367d873a290aeae073ab8352599502201967532c210334bba9645e826b5b5584c7d79ebb921a98d033deae022d223c3f012102e16a1dfc5e3c32f89727fbf306faa62088e588096528a0eb303cf81b9b097e6c", "asm": "3044022045fc74c4300be90892e2a4678acba479c8c7367d873a290aeae073ab8352599502201967532c210334bba9645e826b5b5584c7d79ebb921a98d033deae022d223c3f[ALL] 02e16a1dfc5e3c32f89727fbf306faa62088e588096528a0eb303cf81b9b097e6c"}, "vout": 1, "txid": "0b1a3ca85a6c761f3c10bdd6297cdedf378e44ad2bb2853b8c68823207413e05"}, {"sequence": 4294967294, "scriptSig": {"hex": "48304502210098173068d2165d70b7c5778d9b75e5c50ab9b8bcb4593f04034ba7528aa4627002207765fad48a40b7d9ddeee20384780c2c0dae5ac4da12d6dd3073fa5ee47d655a0121038a32bb7598a7d302ac24b7ba5ac89db635999acd95ccefbe94212b4e9c604739", "asm": "304502210098173068d2165d70b7c5778d9b75e5c50ab9b8bcb4593f04034ba7528aa4627002207765fad48a40b7d9ddeee20384780c2c0dae5ac4da12d6dd3073fa5ee47d655a[ALL] 038a32bb7598a7d302ac24b7ba5ac89db635999acd95ccefbe94212b4e9c604739"}, "vout": 1, "txid": "d5ab0cca106373039ac263b6fdc77aee791fad8e068a4098cfa8751cd4f3050a"}, {"sequence": 4294967294, "scriptSig": {"hex": "483045022100efdaf3e7f8b7ec1f6b672a43f0203eb5bf663b9d2d1bb8a97f2e03c96c8e2c600220148a3caf45e3237acb72127c70755f6c3b7aaf8e56353e9ba1c48bdca2d45c0a012102a1cb117b90b0b18b97b6a549389d3d22bd3f1548ed5a5d6f515fd64cd7805e36", "asm": "3045022100efdaf3e7f8b7ec1f6b672a43f0203eb5bf663b9d2d1bb8a97f2e03c96c8e2c600220148a3caf45e3237acb72127c70755f6c3b7aaf8e56353e9ba1c48bdca2d45c0a[ALL] 02a1cb117b90b0b18b97b6a549389d3d22bd3f1548ed5a5d6f515fd64cd7805e36"}, "vout": 3, "txid": "50bbd8ad566473f788ae441b47b5063cfc59a3df3b4888d7ff940e0a4611ed16"}, {"sequence": 4294967294, "scriptSig": {"hex": "48304502210098e7956473c327a1bf5d7f6049f7b53d558d2d46712c0d9f3c9e684bf36886660220234bac7a2ca80b9d440c63b0a64b54df0136f533b6ba663836bf71ef6dd2ad4e012102afedeb8696661e3d6b078d40c5b824c58609cea8b7d0041b8b4568cf4c01a0e6", "asm": "304502210098e7956473c327a1bf5d7f6049f7b53d558d2d46712c0d9f3c9e684bf36886660220234bac7a2ca80b9d440c63b0a64b54df0136f533b6ba663836bf71ef6dd2ad4e[ALL] 02afedeb8696661e3d6b078d40c5b824c58609cea8b7d0041b8b4568cf4c01a0e6"}, "vout": 0, "txid": "5f174bddb2641577e10156d01634168117927e879eb196ffcae5c5f4bcb3901e"}, {"sequence": 4294967294, "scriptSig": {"hex": "4730440220735ad63a838f25efcf1efd7837d416e845d221b0183b7328903cd8beb8d05d8e0220577756b6806db9bee289e139b3fcbb3ca72fd726d99cd721f54875d8eebc04390121034ec47f62a04de7821cc052985014c1460384f76555b50ead68eff6604ef92bca", "asm": "30440220735ad63a838f25efcf1efd7837d416e845d221b0183b7328903cd8beb8d05d8e0220577756b6806db9bee289e139b3fcbb3ca72fd726d99cd721f54875d8eebc0439[ALL] 034ec47f62a04de7821cc052985014c1460384f76555b50ead68eff6604ef92bca"}, "vout": 0, "txid": "b6d2923e27b95f6a885b57d9ac3b215840f1fd78f4449e1d365a92a21c271e25"}, {"sequence": 4294967294, "scriptSig": {"hex": "483045022100fa7ce1f75bad45e40f0030ba78568b022bd5d7d68d6b2a51ec5d801fa3637699022044ef31a32191a8c8ad0d8fcee4cfd4365c1ee012c6eae67a30e510fb7d0529c3012102090e581c84e97c1faeaa7d97a15e6debd5ecacee19dcf7b5945f36ce3dce0a24", "asm": "3045022100fa7ce1f75bad45e40f0030ba78568b022bd5d7d68d6b2a51ec5d801fa3637699022044ef31a32191a8c8ad0d8fcee4cfd4365c1ee012c6eae67a30e510fb7d0529c3[ALL] 02090e581c84e97c1faeaa7d97a15e6debd5ecacee19dcf7b5945f36ce3dce0a24"}, "vout": 1384, "txid": "eb10fe10208663c24760683626043ade998c9e5fdc30aa24378d1c704736f02b"}, {"sequence": 4294967294, "scriptSig": {"hex": "483045022100e81360175207c8fa4daf11a74f96ee3beda4a9216a0c2e44b80c55d3d3fcd4bf0220444ea5e7d2d4570daae547a61c158d43a80af89496a959148ddb06f83981c6c1012102e14c98d7a725838cb081eb74f68dead67cefe6fe2071a9187d6212b80c407960", "asm": "3045022100e81360175207c8fa4daf11a74f96ee3beda4a9216a0c2e44b80c55d3d3fcd4bf0220444ea5e7d2d4570daae547a61c158d43a80af89496a959148ddb06f83981c6c1[ALL] 02e14c98d7a725838cb081eb74f68dead67cefe6fe2071a9187d6212b80c407960"}, "vout": 1, "txid": "70e98a1c666c457669a5173734b9a7491e69ac8f8aa8d4b2f25a4e5d39d4ff2d"}, {"sequence": 4294967294, "scriptSig": {"hex": "4730440220213b845afe36b7828bcad6ff9b8bf4b6f40e2bde52c155523a5682e89f235d7e0220269fe58d393e930d73b7cef5eee92d3f6780f661bbd94aceb203bb830e70a509012102b9fb93109ead674b6b51bc430035940fede0a5dbc78b924010d9f86707b41cd1", "asm": "30440220213b845afe36b7828bcad6ff9b8bf4b6f40e2bde52c155523a5682e89f235d7e0220269fe58d393e930d73b7cef5eee92d3f6780f661bbd94aceb203bb830e70a509[ALL] 02b9fb93109ead674b6b51bc430035940fede0a5dbc78b924010d9f86707b41cd1"}, "vout": 1, "txid": "4e32fdefc1e766b4c4e0e8cafb4ac71c22b5063e73f001881d66a61492d64a34"}, {"sequence": 4294967294, "scriptSig": {"hex": "4730440220596d4c69c4da3dbb2ea32d60536ff581c728cc76b7882920a5037c516f0c3635022016c116b465003e8a9d6c65bc68066b25d14a8fe2e3b087d8ba735215b7fb17ef012102682c8e91eefcaf162e547548e3aaecc95597fdc2724573333e2c9b1d6f62054b", "asm": "30440220596d4c69c4da3dbb2ea32d60536ff581c728cc76b7882920a5037c516f0c3635022016c116b465003e8a9d6c65bc68066b25d14a8fe2e3b087d8ba735215b7fb17ef[ALL] 02682c8e91eefcaf162e547548e3aaecc95597fdc2724573333e2c9b1d6f62054b"}, "vout": 0, "txid": "2e725fb2ed5f112473fe546e74290eee44929b3d67d48b69c54ac07048ef0539"}, {"sequence": 4294967294, "scriptSig": {"hex": "483045022100a742db2702f8ccb83544d6f6d4aec804b6a381fac3385ba2114ecfd2d7aed462022003fc8e232ea5dc5d212c6a9b4a757e1c2f4589d65eb72d687e518d76a902232f012103414af8e0977b6298e306fcbde06396dbe8dd4f67e52a22382ee93bde13e33d2b", "asm": "3045022100a742db2702f8ccb83544d6f6d4aec804b6a381fac3385ba2114ecfd2d7aed462022003fc8e232ea5dc5d212c6a9b4a757e1c2f4589d65eb72d687e518d76a902232f[ALL] 03414af8e0977b6298e306fcbde06396dbe8dd4f67e52a22382ee93bde13e33d2b"}, "vout": 74, "txid": "d19ee89adb1844018f1cda4700e64039f8e534ada4481c7f20eb8f206b641b49"}, {"sequence": 4294967294, "scriptSig": {"hex": "483045022100beb65b42d8c00b9394e9b932453b01af5d609a6b0f5fa019061f61267aef1c7f02204868810422752bcdd4b02dea35d0648b0c9768d629821b0184ed0f1cd621db5001210217e4ff2081c28f18d7abf6f505a76090ed10f29d103919311b52897995affe0e", "asm": "3045022100beb65b42d8c00b9394e9b932453b01af5d609a6b0f5fa019061f61267aef1c7f02204868810422752bcdd4b02dea35d0648b0c9768d629821b0184ed0f1cd621db50[ALL] 0217e4ff2081c28f18d7abf6f505a76090ed10f29d103919311b52897995affe0e"}, "vout": 1, "txid": "87a4a66dd68e80b87e71e637b8f1792b5f96ddf0a252c54f0d99f05bbf59634d"}, {"sequence": 4294967294, "scriptSig": {"hex": "473044022045d14180ab0be24e9f307790ad561c3d3be410f2fc85bbcb53b62a830520a5ba022048525688d20d03837684e963ae4cdbbdd28464b833fd82f9f0815413f3011e12012102b3ec1f2bed942f16363e9368368fe4f5d4333e2e6c5a233ca0a2ce44aa7c7300", "asm": "3044022045d14180ab0be24e9f307790ad561c3d3be410f2fc85bbcb53b62a830520a5ba022048525688d20d03837684e963ae4cdbbdd28464b833fd82f9f0815413f3011e12[ALL] 02b3ec1f2bed942f16363e9368368fe4f5d4333e2e6c5a233ca0a2ce44aa7c7300"}, "vout": 0, "txid": "f6b2ff46deb93a017c7d4680540f7bb82436bbb8f33c290e34b457f7b56e315a"}, {"sequence": 4294967294, "scriptSig": {"hex": "483045022100f13a14a7ca0f443209ca4e8d09e3f2cfc12938793c2709478605792d7cc33d3602201626c3a23c7410b002e57a826aa5006b39663b0d23a1bdbc169cccc0a63a424c012103701cd10c3be331371ec5d2a292488faf7828409ccce65df709033332fdbc6817", "asm": "3045022100f13a14a7ca0f443209ca4e8d09e3f2cfc12938793c2709478605792d7cc33d3602201626c3a23c7410b002e57a826aa5006b39663b0d23a1bdbc169cccc0a63a424c[ALL] 03701cd10c3be331371ec5d2a292488faf7828409ccce65df709033332fdbc6817"}, "vout": 1, "txid": "c1bcecfa14df344d0bb3162a2681dffe3aa0ef2e5e389013bb1a7ecf9ecb2861"}, {"sequence": 4294967294, "scriptSig": {"hex": "483045022100d3e727d43319f350442bf58940a6d395c33a739634edbfd5ac822a3db08ab1e002207a4555289ed9e0db67892be8e9802da1fad14fb5ffa2a63bbdfc3c3e609a0c52012103ffff6e11a7939741fd95f771b3f184bd3768609bd06e52e7e846ee27eedf60a5", "asm": "3045022100d3e727d43319f350442bf58940a6d395c33a739634edbfd5ac822a3db08ab1e002207a4555289ed9e0db67892be8e9802da1fad14fb5ffa2a63bbdfc3c3e609a0c52[ALL] 03ffff6e11a7939741fd95f771b3f184bd3768609bd06e52e7e846ee27eedf60a5"}, "vout": 0, "txid": "522276fcf8b0ad7587f5f8cb3d6ca9c4822424eace5ded6a9339f899603c8f86"}, {"sequence": 4294967294, "scriptSig": {"hex": "4830450221009b1d0b2838747d7057c1641114caeeead895032493fd047495dd89d8ba7c2e0202204e7aaa04b1ddad731b1f98f1198c256f042c8eb23c7df0ac38a66eb137187f5e0121030ed29c634eb77e77c9a1ab2491e0def48c1563f58d8d40e1b47cf440c0a9ef7f", "asm": "30450221009b1d0b2838747d7057c1641114caeeead895032493fd047495dd89d8ba7c2e0202204e7aaa04b1ddad731b1f98f1198c256f042c8eb23c7df0ac38a66eb137187f5e[ALL] 030ed29c634eb77e77c9a1ab2491e0def48c1563f58d8d40e1b47cf440c0a9ef7f"}, "vout": 2, "txid": "6c50e623020a3d8fed4a7d1babbb70f6a965734e3b6908b39c49c79f3226968a"}, {"sequence": 4294967294, "scriptSig": {"hex": "483045022100f8344d7ec5af616994d460c98dd14a232442ac709778df30c247f9b75a2368c602206e80d487e282eb99e60e0d2dfc8b55b0b0f7f549f90df75e5fc821e930952a43012102f7a7b5a038fdf9169756b0eefb9cc516213089e6a83c2e238f22736109a825da", "asm": "3045022100f8344d7ec5af616994d460c98dd14a232442ac709778df30c247f9b75a2368c602206e80d487e282eb99e60e0d2dfc8b55b0b0f7f549f90df75e5fc821e930952a43[ALL] 02f7a7b5a038fdf9169756b0eefb9cc516213089e6a83c2e238f22736109a825da"}, "vout": 0, "txid": "4c20cc5da4f0c8e74bcd6f6451785b0ebf1ffce0428adea5d8ab288451b1fc8d"}, {"sequence": 4294967294, "scriptSig": {"hex": "4830450221008aac170d460c6c7ac330c4c78c3cb906ca9ec6ffe868074ee427d7543f2798f90220313bf0f931a48a3621cf232867c39c669746dda28aed0fa613ee3ee9a25b0ac3012102829c4d8c9be1d00c824c511b2bcebeaec133c715fea830d6087990f97ce8d2c4", "asm": "30450221008aac170d460c6c7ac330c4c78c3cb906ca9ec6ffe868074ee427d7543f2798f90220313bf0f931a48a3621cf232867c39c669746dda28aed0fa613ee3ee9a25b0ac3[ALL] 02829c4d8c9be1d00c824c511b2bcebeaec133c715fea830d6087990f97ce8d2c4"}, "vout": 66, "txid": "b44d5bcf5b3824c5bd3311bd705623c3f305d9cd72d2fbca43da0531c098a191"}, {"sequence": 4294967294, "scriptSig": {"hex": "47304402200ff86646ee083b961f1dc786790390e85f2cd59fa107b6a4b027c7161647f7cc022013ccc3bdb35c9a42b28e3c4b2d71565e78c38b20a7db6d4d570c6d9b6923c1530121028393baf0a6995fa53cb52702aa40c4240257a51afa7fa5d3f088593b3c82b62a", "asm": "304402200ff86646ee083b961f1dc786790390e85f2cd59fa107b6a4b027c7161647f7cc022013ccc3bdb35c9a42b28e3c4b2d71565e78c38b20a7db6d4d570c6d9b6923c153[ALL] 028393baf0a6995fa53cb52702aa40c4240257a51afa7fa5d3f088593b3c82b62a"}, "vout": 1, "txid": "f7aa2dde59f011e185e668e3f212f7eb675c83cc0ec816d7fe25c35e86c1caa0"}, {"sequence": 4294967294, "scriptSig": {"hex": "473044022000e5b998a979411798ad39f692edc4d7a79e9d87d81b4a3bd6de3be481666d7e022031d662a0e4c529cfb3f871c066baae7bece9d805a0377091e2d99b1cf424f65301210311155216ccbfdb66f4b9746966498c3ccaf1a46fabed95cf39d20ce8be8a3a3f", "asm": "3044022000e5b998a979411798ad39f692edc4d7a79e9d87d81b4a3bd6de3be481666d7e022031d662a0e4c529cfb3f871c066baae7bece9d805a0377091e2d99b1cf424f653[ALL] 0311155216ccbfdb66f4b9746966498c3ccaf1a46fabed95cf39d20ce8be8a3a3f"}, "vout": 0, "txid": "f41b4826cd21a2c1a1248c94d509fe02fb64e83ab957404cd72398642da471a3"}, {"sequence": 4294967294, "scriptSig": {"hex": "473044022007159e725f226f6829697baeaf04de21d54cc846d60be426d86656c0b2dd758502207c5d594bd1bf99e6fa941322a179c87fdcbc3a5f4f45b9722a049f23994f15280121022ee2cf118558ece1f7f757ecd90d2c17cc7c3fd3d9d0895eafbec0fbb6528a02", "asm": "3044022007159e725f226f6829697baeaf04de21d54cc846d60be426d86656c0b2dd758502207c5d594bd1bf99e6fa941322a179c87fdcbc3a5f4f45b9722a049f23994f1528[ALL] 022ee2cf118558ece1f7f757ecd90d2c17cc7c3fd3d9d0895eafbec0fbb6528a02"}, "vout": 1, "txid": "2397646e73cac95c5d06f1e0480b24958b96caad09dab5201f865a0d85209ba5"}, {"sequence": 4294967294, "scriptSig": {"hex": "48304502210080ba4a29ca944640530e86e4b4bc883aa090ea2248ed284afba273310c37b45902207f130b5df2bb00f10545d1f68b2230ef394c782c2fe0c076d958fcf6a476d72901210368d4974c84ed83a095d2b11956c777da59e382039b6ee21e3e730ff8d898ae51", "asm": "304502210080ba4a29ca944640530e86e4b4bc883aa090ea2248ed284afba273310c37b45902207f130b5df2bb00f10545d1f68b2230ef394c782c2fe0c076d958fcf6a476d729[ALL] 0368d4974c84ed83a095d2b11956c777da59e382039b6ee21e3e730ff8d898ae51"}, "vout": 1, "txid": "8cb5789ed390a702dc4b9bd493f9eaf5bdfab510feb6f1c840800dfc4b5223ad"}, {"sequence": 4294967294, "scriptSig": {"hex": "473044022032652dc2b980d40fa44c65bc5216a944cfdfd2a2512af6f2a92c0183a2c9d67702200b7179cde478766f308cca976ceebd6dfc17a2d08bbed1f4fbdfe8bdc2e0588c012102db61d30117b8780236d476ac6b60cbd589670de0201ac331eb58d5d02e758068", "asm": "3044022032652dc2b980d40fa44c65bc5216a944cfdfd2a2512af6f2a92c0183a2c9d67702200b7179cde478766f308cca976ceebd6dfc17a2d08bbed1f4fbdfe8bdc2e0588c[ALL] 02db61d30117b8780236d476ac6b60cbd589670de0201ac331eb58d5d02e758068"}, "vout": 0, "txid": "b810410f8a18c3ef724c10df5467068fef59fe39baa0a30c1841a0271f9033b0"}, {"sequence": 4294967294, "scriptSig": {"hex": "473044022016119d15fec0c52e6c6c36dfc7262b973f30f0c96c053565d8e5929656b99a0002202e78d24bf245536c3124c553306a9d62b5916bf44d7a24b0f8d29baee2e72575012103cf30f82d390ab57dbf85d94858311bb025abe1a52f94443a356e244f92d0381a", "asm": "3044022016119d15fec0c52e6c6c36dfc7262b973f30f0c96c053565d8e5929656b99a0002202e78d24bf245536c3124c553306a9d62b5916bf44d7a24b0f8d29baee2e72575[ALL] 03cf30f82d390ab57dbf85d94858311bb025abe1a52f94443a356e244f92d0381a"}, "vout": 8, "txid": "a1f5332717b5d0fa13f4161752989979a34c37b5febaded1ac1290d0a87f81b3"}, {"sequence": 4294967294, "scriptSig": {"hex": "483045022100a1a81269ddb3c8eca9d8886bd084212c9b7539aeb5aff544dbedb339efaca19f02201241cc12dce4b241f6d72cb85d0720156e002dc2e6c4cbee6031bd2ac19c7f870121021c919cf40cf7b88260fa99aa04806c253c3def1b58544fbf00ae5703b14998a0", "asm": "3045022100a1a81269ddb3c8eca9d8886bd084212c9b7539aeb5aff544dbedb339efaca19f02201241cc12dce4b241f6d72cb85d0720156e002dc2e6c4cbee6031bd2ac19c7f87[ALL] 021c919cf40cf7b88260fa99aa04806c253c3def1b58544fbf00ae5703b14998a0"}, "vout": 308, "txid": "6951c065322050c3d5d4a323217504a6ed6847525ea2b66a7d098f6171e8ffc0"}, {"sequence": 4294967294, "scriptSig": {"hex": "483045022100c33588270a644b04136744701113b3d0342700b1464d845258e2a7d78bff1657022025e2902ad6c6d61cedbfe9818fe76f9f70abfd6a08e77ff8dfa4ff81511ee65f01210345098c73d0a7739698691f937559762a671cb4fcca201d03f81c359a4928353b", "asm": "3045022100c33588270a644b04136744701113b3d0342700b1464d845258e2a7d78bff1657022025e2902ad6c6d61cedbfe9818fe76f9f70abfd6a08e77ff8dfa4ff81511ee65f[ALL] 0345098c73d0a7739698691f937559762a671cb4fcca201d03f81c359a4928353b"}, "vout": 341, "txid": "6951c065322050c3d5d4a323217504a6ed6847525ea2b66a7d098f6171e8ffc0"}, {"sequence": 4294967294, "scriptSig": {"hex": "4730440220680e8746297684610880a6a64f4b0048368cbf48bdf8f94b2e9e70fd3cbbf516022004ab96300a5843662e2cc17945f57c5e89c791cc76bf60a51e776c9601ed04a501210332cf61a0c6926d0d19b6fcf907047a3448f15258235080b3ebe28235a8ecf906", "asm": "30440220680e8746297684610880a6a64f4b0048368cbf48bdf8f94b2e9e70fd3cbbf516022004ab96300a5843662e2cc17945f57c5e89c791cc76bf60a51e776c9601ed04a5[ALL] 0332cf61a0c6926d0d19b6fcf907047a3448f15258235080b3ebe28235a8ecf906"}, "vout": 231, "txid": "b4aa05da519489d2526d5378fa54413157216bad62333b20471b76e919cadec8"}, {"sequence": 4294967294, "scriptSig": {"hex": "47304402200d8d3ae145979f1ed88debba8bcd2001871542976b44fee498496fa59dba4fa9022040858783de26669f7a78d8788232a7f40d10b313a9a926c202086938984daad00121020f666d82135e2aa43735caa05814254d99cd51070b06ef93eda1969dd9d06bba", "asm": "304402200d8d3ae145979f1ed88debba8bcd2001871542976b44fee498496fa59dba4fa9022040858783de26669f7a78d8788232a7f40d10b313a9a926c202086938984daad0[ALL] 020f666d82135e2aa43735caa05814254d99cd51070b06ef93eda1969dd9d06bba"}, "vout": 1, "txid": "cf01cfa9b08f3ed41574213b9a6974ef8da9fa06bb372244f8fcddff6be15ccd"}, {"sequence": 4294967294, "scriptSig": {"hex": "47304402202ba04bb0d643cfc5f8fd76120d4ff9ee65c3e28f7de7b61ce73f83666ac27df9022074c9ec8bcf283faed24d4200fe35c9338a1901a58e413aa5696ab586ceeb8baf012102dd753b84b6511595cbbc2c7cfa1f95f2003176fd44dd351bcd686b89df31b542", "asm": "304402202ba04bb0d643cfc5f8fd76120d4ff9ee65c3e28f7de7b61ce73f83666ac27df9022074c9ec8bcf283faed24d4200fe35c9338a1901a58e413aa5696ab586ceeb8baf[ALL] 02dd753b84b6511595cbbc2c7cfa1f95f2003176fd44dd351bcd686b89df31b542"}, "vout": 1, "txid": "2cf10a58b4aef150f3d37b0d5a9fe30c0e6df3db90a448b9808dfcc0807452de"}, {"sequence": 4294967294, "scriptSig": {"hex": "483045022100c2872bfcd590ce31d4b8e6687ea8f9ee51b42627b0bc98465219917d6bec929102205fa58dc637c2b8bdb2d8e74137c6a7a805213dd7a90dc64b2dbdb9e5c0ae0674012103dbf1bf6a94a3091078022c1ea67da2bee0dfa8ba8ab61805aa7f58267ae294b4", "asm": "3045022100c2872bfcd590ce31d4b8e6687ea8f9ee51b42627b0bc98465219917d6bec929102205fa58dc637c2b8bdb2d8e74137c6a7a805213dd7a90dc64b2dbdb9e5c0ae0674[ALL] 03dbf1bf6a94a3091078022c1ea67da2bee0dfa8ba8ab61805aa7f58267ae294b4"}, "vout": 1, "txid": "b72f349be32ae04e6224b47708d562ddf6d5a90b7db6a8b99ae7a2212fb1f8e1"}, {"sequence": 4294967294, "scriptSig": {"hex": "47304402202f488697f58311c6aa80bf78b4afcb6c855a4c0c3d950071d002ce6b783281a902205cadc98d779d341129d9a7197b9505824c1eb8909e86a6642ab86aec07d5ec86012103aa93b0fd8feb31a8fa1ad00330d2f78df715852677bd814ae9933aa9ee4cbe40", "asm": "304402202f488697f58311c6aa80bf78b4afcb6c855a4c0c3d950071d002ce6b783281a902205cadc98d779d341129d9a7197b9505824c1eb8909e86a6642ab86aec07d5ec86[ALL] 03aa93b0fd8feb31a8fa1ad00330d2f78df715852677bd814ae9933aa9ee4cbe40"}, "vout": 0, "txid": "5549700ba9b9fcb4797896f1e5033de7c301ee4ceed2300bffb47d31a3a7dce5"}, {"sequence": 4294967294, "scriptSig": {"hex": "483045022100ea67a5b9de5a118da72bf2a10d83fdb5fca19ec12ba1518acdc9bd8d62bbf47f022043452aaf7db69e8435af5e02d9bba0e8534ea475fd281701749dbfd587c64edb0121029e77606709961f667602a4a094b50a5b4faba6e8bc7a8f56dd86d4ca9be39e3d", "asm": "3045022100ea67a5b9de5a118da72bf2a10d83fdb5fca19ec12ba1518acdc9bd8d62bbf47f022043452aaf7db69e8435af5e02d9bba0e8534ea475fd281701749dbfd587c64edb[ALL] 029e77606709961f667602a4a094b50a5b4faba6e8bc7a8f56dd86d4ca9be39e3d"}, "vout": 0, "txid": "158a07749a387128f64216eb7c8be35438c1b7ab00db6a9683e315c7d4d05af2"}, {"sequence": 4294967294, "scriptSig": {"hex": "47304402200f48bf7cad77abed6af80a5532d2e1e6c4eaa01560cc2e4fd83d4c3a34ded32002207567a51c8cd9914abd07c781dbcd2e9b7b569fde3b341bd631a8f00d746ba941012102879748a6d4392b37d93116e14d091b107517cbdcecc523f4123e68bb5a660ed8", "asm": "304402200f48bf7cad77abed6af80a5532d2e1e6c4eaa01560cc2e4fd83d4c3a34ded32002207567a51c8cd9914abd07c781dbcd2e9b7b569fde3b341bd631a8f00d746ba941[ALL] 02879748a6d4392b37d93116e14d091b107517cbdcecc523f4123e68bb5a660ed8"}, "vout": 1, "txid": "17d564cf9144590c27c1e82f8d34e4cf63a40729199abb2e4f6870ddb2d723f8"}, {"sequence": 4294967294, "scriptSig": {"hex": "483045022100b59f95068f4c5fca548fda1a68762b2526501999a86631e7958230db53703c5a02201e7d7de30d194f560a1e8cbcde40be1dfe573daacb832042e91f285129ddf4be0121029c374e395512e3991c2713b02bc7b94add81b8fceb5df052ff7ac9b1275d3711", "asm": "3045022100b59f95068f4c5fca548fda1a68762b2526501999a86631e7958230db53703c5a02201e7d7de30d194f560a1e8cbcde40be1dfe573daacb832042e91f285129ddf4be[ALL] 029c374e395512e3991c2713b02bc7b94add81b8fceb5df052ff7ac9b1275d3711"}, "vout": 1, "txid": "69bfa262026dabeaeb86ec991dec14337d6f09b2bdf7e3a1c567786a402b6af8"}, {"sequence": 4294967294, "scriptSig": {"hex": "47304402201498d3cfecc68ffc688450b3b8337b60d35c4dd68a5775f30a84a358a8cd5c7a0220074aa75b4bdfe0ba888a75d09da193c3ee5237baac10c73dcb3175e85be56b85012103962ae74780c1a8d82c55727e214abda35d1ba69a7dc91bcc779bc4c6f372055d", "asm": "304402201498d3cfecc68ffc688450b3b8337b60d35c4dd68a5775f30a84a358a8cd5c7a0220074aa75b4bdfe0ba888a75d09da193c3ee5237baac10c73dcb3175e85be56b85[ALL] 03962ae74780c1a8d82c55727e214abda35d1ba69a7dc91bcc779bc4c6f372055d"}, "vout": 1, "txid": "86f6c0696a670e579a6f6a2e4fc881040223c0094dbd4f5fb29c72bc151517fc"}], "txid": "1a99e666dfd94418d59ce239ce26fde5d03e454fb877868dc35f653779e1ae08", "blocktime": 1537872475, "version": 2, "confirmations": 11486, "time": 1537872475, "locktime": 542994, "vsize": 5242, "size": 5242}