{"hash": "ec05441ae9a1526f4e322089ee77326fd094735d1997f0b83fe684e04274bc9a", "blockhash": "00000000000000000024a2167bbff67b0be802c0b01cdd79e6331c2be6459f87", "vout": [{"scriptPubKey": {"reqSigs": 1, "hex": "76a914b55649c194881389dbf1b54b81a544272554d14d88ac", "addresses": ["1HXpg8D9AMGFVZ9FEU2tkZYvAZ8xBhVudo"], "asm": "OP_DUP OP_HASH160 b55649c194881389dbf1b54b81a544272554d14d OP_EQUALVERIFY OP_CHECKSIG", "type": "pubkeyhash"}, "value": 0.01171753, "n": 0}, {"scriptPubKey": {"reqSigs": 1, "hex": "a9143c011c62f74a98026c882966f63c8eaba68ac8c187", "addresses": ["37AHoEq26hbRv4Qzd2dHMyRuUqPddwHKow"], "asm": "OP_HASH160 3c011c62f74a98026c882966f63c8eaba68ac8c1 OP_EQUAL", "type": "scripthash"}, "value": 0.0099939, "n": 1}], "hex": "020000000001030be040bc16d2c62532b2b59e39b9c2a898ab6e7d0487269bd147d3af15f341fd0000000017160014e589e240b88f6aeedd24955677177726601e7f5afeffffff548ba10610988be73bc018e964fc42dcca55e88cae5a3420647dd22fd2d433f70000000017160014b421947e716fd3a3330af479d954e218888d5184feffffff5a394e68b50e671ba03359f247717f50f290ba2fe4164a8dd751d7df90c3495101000000171600148a4809ed55349da01b9bba9dc4f0c2cb319e111ffeffffff0229e11100000000001976a914b55649c194881389dbf1b54b81a544272554d14d88acde3f0f000000000017a9143c011c62f74a98026c882966f63c8eaba68ac8c18702473044022079c3e13de5af12db314951c96acd8be74eecbf8d0f2e4f5b7b22db154b8acb0402201b035721c899689f8777a19ce5704a220432fd11267f99d9571b337f81ea3eaa0121028f623f204f98e08bcff95b7b1de8111acd89b2b635bb12c6e11bf7159e7f460d02483045022100ed9547a388d9946c0e66cbb27786741345cc52572a48884ab42750fa2c44b27802206624158233ea1c7643facfc76ce0283211c99311ba425b5364d74f2fe39b96710121020ec63d6e41cbe85f2815d68d5d3fd13faaa4e2a02bc66ec49899c64cdd6b487f024730440220559258837dc82f92d0776416dd64dd849af408aa50aff86b0430c59c8c4eee7c0220068a7648815a22f942b1d8e800b24672f19f2f554a5b8c6454e7bc7accb5e10c0121023f62b7ac5805a0da2ad68f85e4f570fc7b36ee0ec9244c4841aa997ef90d99660d490800", "vin": [{"txinwitness": ["3044022079c3e13de5af12db314951c96acd8be74eecbf8d0f2e4f5b7b22db154b8acb0402201b035721c899689f8777a19ce5704a220432fd11267f99d9571b337f81ea3eaa01", "028f623f204f98e08bcff95b7b1de8111acd89b2b635bb12c6e11bf7159e7f460d"], "sequence": 4294967294, "scriptSig": {"hex": "160014e589e240b88f6aeedd24955677177726601e7f5a", "asm": "0014e589e240b88f6aeedd24955677177726601e7f5a"}, "vout": 0, "txid": "fd41f315afd347d19b2687047d6eab98a8c2b9399eb5b23225c6d216bc40e00b"}, {"txinwitness": ["3045022100ed9547a388d9946c0e66cbb27786741345cc52572a48884ab42750fa2c44b27802206624158233ea1c7643facfc76ce0283211c99311ba425b5364d74f2fe39b967101", "020ec63d6e41cbe85f2815d68d5d3fd13faaa4e2a02bc66ec49899c64cdd6b487f"], "sequence": 4294967294, "scriptSig": {"hex": "160014b421947e716fd3a3330af479d954e218888d5184", "asm": "0014b421947e716fd3a3330af479d954e218888d5184"}, "vout": 0, "txid": "f733d4d22fd27d6420345aae8ce855cadc42fc64e918c03be78b981006a18b54"}, {"txinwitness": ["30440220559258837dc82f92d0776416dd64dd849af408aa50aff86b0430c59c8c4eee7c0220068a7648815a22f942b1d8e800b24672f19f2f554a5b8c6454e7bc7accb5e10c01", "023f62b7ac5805a0da2ad68f85e4f570fc7b36ee0ec9244c4841aa997ef90d9966"], "sequence": 4294967294, "scriptSig": {"hex": "1600148a4809ed55349da01b9bba9dc4f0c2cb319e111f", "asm": "00148a4809ed55349da01b9bba9dc4f0c2cb319e111f"}, "vout": 1, "txid": "5149c390dfd751d78d4a16e42fba90f2507f7147f25933a01b670eb5684e395a"}], "txid": "1a9d4273c47ffbd2cbe8b5c34e851d3ab96132331f5060d10662967c7801e8f0", "blocktime": 1537870564, "version": 2, "confirmations": 11515, "time": 1537870564, "locktime": 542989, "vsize": 349, "size": 592}