{"hash": "1aa723722f3d4936ac4c78ad6248aa5c9df10503337f285565153ee67ab03f86", "blockhash": "0000000000000000001cda96e906b7601b7a6fb1a3b62bca570a9e5d8f4b3de1", "vout": [{"scriptPubKey": {"reqSigs": 1, "hex": "a91432290f9d2b55a4f29aaed2c5d22135df1221578487", "addresses": ["36GEu6vnaqQA8Rc4uR6L6HRfGvf7GLQses"], "asm": "OP_HASH160 32290f9d2b55a4f29aaed2c5d22135df12215784 OP_EQUAL", "type": "scripthash"}, "value": 0.03801345, "n": 0}], "hex": "01000000038c2e25d913cc6df345389b25903048f038c9c917de520ab9d385d12b3e9db420000000006a47304402200cf7b19e569c8a6323ae5cd14b71d642d18519c758577f611f7c81da9f9a41b50220046b0c1bb45f307ac8fc49975e24465585264d46e8010c7ab833407ec45ffcba01210215e1d4122cb6257cdddaa0ff70cdeb68f5c1cc8f7b321e3017b64519ebd4fb0bffffffff42a2f61ee93745bdaacb23e7929edce925697952a024bcd51f05513ad86e4b75000000006b483045022100a16b262d540cef24c64b0ebf2990877741ba0fd11fae34a0e9701746b9d4bc9f02200408387be575d95e90e0d8dca21d545af7935ff7b2abd8ac68aee16d49a61d3301210209c5f3df81684c31b8f1b321d773676835c8e31ffc841b79d018dfa4d0162eaeffffffff63ca56cc83114d42f96608b97ab8ccf096802aba1a17c03ec9b03fe133cf25cf000000006b483045022100e53d9d8e012a6642f33ea249dba80026476b2fd5e881934bb3af3b8994cf487c0220473e524e1cb13a739bcc06bc15ffa27644f4081e4a75a64108315804b7d6a12b01210209c5f3df81684c31b8f1b321d773676835c8e31ffc841b79d018dfa4d0162eaeffffffff0101013a000000000017a91432290f9d2b55a4f29aaed2c5d22135df122157848700000000", "vin": [{"sequence": 4294967295, "scriptSig": {"hex": "47304402200cf7b19e569c8a6323ae5cd14b71d642d18519c758577f611f7c81da9f9a41b50220046b0c1bb45f307ac8fc49975e24465585264d46e8010c7ab833407ec45ffcba01210215e1d4122cb6257cdddaa0ff70cdeb68f5c1cc8f7b321e3017b64519ebd4fb0b", "asm": "304402200cf7b19e569c8a6323ae5cd14b71d642d18519c758577f611f7c81da9f9a41b50220046b0c1bb45f307ac8fc49975e24465585264d46e8010c7ab833407ec45ffcba[ALL] 0215e1d4122cb6257cdddaa0ff70cdeb68f5c1cc8f7b321e3017b64519ebd4fb0b"}, "vout": 0, "txid": "20b49d3e2bd185d3b90a52de17c9c938f0483090259b3845f36dcc13d9252e8c"}, {"sequence": 4294967295, "scriptSig": {"hex": "483045022100a16b262d540cef24c64b0ebf2990877741ba0fd11fae34a0e9701746b9d4bc9f02200408387be575d95e90e0d8dca21d545af7935ff7b2abd8ac68aee16d49a61d3301210209c5f3df81684c31b8f1b321d773676835c8e31ffc841b79d018dfa4d0162eae", "asm": "3045022100a16b262d540cef24c64b0ebf2990877741ba0fd11fae34a0e9701746b9d4bc9f02200408387be575d95e90e0d8dca21d545af7935ff7b2abd8ac68aee16d49a61d33[ALL] 0209c5f3df81684c31b8f1b321d773676835c8e31ffc841b79d018dfa4d0162eae"}, "vout": 0, "txid": "754b6ed83a51051fd5bc24a052796925e9dc9e92e723cbaabd4537e91ef6a242"}, {"sequence": 4294967295, "scriptSig": {"hex": "483045022100e53d9d8e012a6642f33ea249dba80026476b2fd5e881934bb3af3b8994cf487c0220473e524e1cb13a739bcc06bc15ffa27644f4081e4a75a64108315804b7d6a12b01210209c5f3df81684c31b8f1b321d773676835c8e31ffc841b79d018dfa4d0162eae", "asm": "3045022100e53d9d8e012a6642f33ea249dba80026476b2fd5e881934bb3af3b8994cf487c0220473e524e1cb13a739bcc06bc15ffa27644f4081e4a75a64108315804b7d6a12b[ALL] 0209c5f3df81684c31b8f1b321d773676835c8e31ffc841b79d018dfa4d0162eae"}, "vout": 0, "txid": "cf25cf33e13fb0c93ec0171aba2a8096f0ccb87ab90866f9424d1183cc56ca63"}], "txid": "1aa723722f3d4936ac4c78ad6248aa5c9df10503337f285565153ee67ab03f86", "blocktime": 1537873282, "version": 1, "confirmations": 11485, "time": 1537873282, "locktime": 0, "vsize": 485, "size": 485}