{"hash": "1aa8f7c2351f465f1cefa2acc9e01a88987e2426238835401d2570ca47e9d8cf", "blockhash": "0000000000000000000e13cef7c366c0283d82e591d1acd082e914b08063cdf1", "vout": [{"scriptPubKey": {"reqSigs": 1, "hex": "76a914ccb6869ccdc5ec60072f693ac802658fc18581f188ac", "addresses": ["1KfRWFXQ9eMU5C3qKmqMQpkYHnbu8B7KuF"], "asm": "OP_DUP OP_HASH160 ccb6869ccdc5ec60072f693ac802658fc18581f1 OP_EQUALVERIFY OP_CHECKSIG", "type": "pubkeyhash"}, "value": 0.027, "n": 0}], "hex": "01000000023b33cc42f2c5a213aa4386c4771eba7e47336051898a9d73970d419fe6fe8b4b010000006a47304402201f5b654fb103be33bb13ef2a0a58700a56342c8e3fda7d8d19994779ba7fe1ce022007bacd53d4d4821492f17e4b540e584b6ceb5414d60b898261f8c17d95f0782e012103cf4a6ac7179562a5b678af58530f130b3ed1b116e3a6dceafb7a318793e69fb8ffffffff0aaf2f58a5a584bd90fbc1c96a97dde0eb7dd49e10842909ac52ff0c3ebb9a91000000006a473044022015e70c9d0772f42482154af602f7ff1c1131a107c4f4046e52e62d62c7a5d6c902204c9d8be6373967039f3d004c5a46934159b0a05fa5acbf7d6bf5677d3c2ad89c012103c9f0cfda5f447d6a306159737558de885f732f91c356e199495d8179f8dc88bbffffffff01e0322900000000001976a914ccb6869ccdc5ec60072f693ac802658fc18581f188ac00000000", "vin": [{"sequence": 4294967295, "scriptSig": {"hex": "47304402201f5b654fb103be33bb13ef2a0a58700a56342c8e3fda7d8d19994779ba7fe1ce022007bacd53d4d4821492f17e4b540e584b6ceb5414d60b898261f8c17d95f0782e012103cf4a6ac7179562a5b678af58530f130b3ed1b116e3a6dceafb7a318793e69fb8", "asm": "304402201f5b654fb103be33bb13ef2a0a58700a56342c8e3fda7d8d19994779ba7fe1ce022007bacd53d4d4821492f17e4b540e584b6ceb5414d60b898261f8c17d95f0782e[ALL] 03cf4a6ac7179562a5b678af58530f130b3ed1b116e3a6dceafb7a318793e69fb8"}, "vout": 1, "txid": "4b8bfee69f410d97739d8a89516033477eba1e77c48643aa13a2c5f242cc333b"}, {"sequence": 4294967295, "scriptSig": {"hex": "473044022015e70c9d0772f42482154af602f7ff1c1131a107c4f4046e52e62d62c7a5d6c902204c9d8be6373967039f3d004c5a46934159b0a05fa5acbf7d6bf5677d3c2ad89c012103c9f0cfda5f447d6a306159737558de885f732f91c356e199495d8179f8dc88bb", "asm": "3044022015e70c9d0772f42482154af602f7ff1c1131a107c4f4046e52e62d62c7a5d6c902204c9d8be6373967039f3d004c5a46934159b0a05fa5acbf7d6bf5677d3c2ad89c[ALL] 03c9f0cfda5f447d6a306159737558de885f732f91c356e199495d8179f8dc88bb"}, "vout": 0, "txid": "919abb3e0cff52ac092984109ed47debe0dd976ac9c1fb90bd84a5a5582faf0a"}], "txid": "1aa8f7c2351f465f1cefa2acc9e01a88987e2426238835401d2570ca47e9d8cf", "blocktime": 1537871767, "version": 1, "confirmations": 11491, "time": 1537871767, "locktime": 0, "vsize": 338, "size": 338}