{"hash": "25b1c2b6d5cfbde6d00b5f693af6c91a671a30fcd085ab1df67cf63c534f76fc", "blockhash": "0000000000000000000baef3f32e3676a92c3b2e5da21b426e4f302fc371ce76", "vout": [{"scriptPubKey": {"reqSigs": 1, "hex": "76a9142e1b944fe7ffbe969fc1df8d662fd7b5d6303c9b88ac", "addresses": ["15Co856cRnFRCKwSSzECoyT3ozVhuFoJZ6"], "asm": "OP_DUP OP_HASH160 2e1b944fe7ffbe969fc1df8d662fd7b5d6303c9b OP_EQUALVERIFY OP_CHECKSIG", "type": "pubkeyhash"}, "value": 0.0033226, "n": 0}, {"scriptPubKey": {"reqSigs": 1, "hex": "a91490435d19e62f79933893454b7bf32dba1c59767e87", "addresses": ["3EqovgFo3AzVCZzZhi1GuZ5vArJGFcsxC4"], "asm": "OP_HASH160 90435d19e62f79933893454b7bf32dba1c59767e OP_EQUAL", "type": "scripthash"}, "value": 0.01074424, "n": 1}], "hex": "02000000000102455fca6a38cd7680c11b9f09234be14b64537978c73ce4998e33dd308873e22e0700000017160014d99c23e92a1445c8de343eb9c6cf0fc743edb59afeffffff9b6d510d3c38835fdb3ac3f2fa72349126bbaa31192f5ab5124455823a74a2130f000000171600141265ede7e225f2429f51da54ea7323438624209ffeffffff02e4110500000000001976a9142e1b944fe7ffbe969fc1df8d662fd7b5d6303c9b88acf86410000000000017a91490435d19e62f79933893454b7bf32dba1c59767e8702473044022077bf4d71678d5939839621b8cd1876c85f79048b2231c707a1007050ad7a322f0220701e4675131ed2278358a1212750e2b87f1e7be5cbd87b4eac60315bf0b0c573012103409e9d34612854cc3134bb35b9a06ac94145e0c76be710da93b62291cdefe19002473044022006f1bc9f3baeeef4e10232b0559b05a988213f52b10149ec70a4ba9bac1fd8cc02205275cde2d282c3ed82b1da3afa2337220e2a4bb2a1b8af87b4bc5e467ddec14901210350f4b7a785d16e9e92d896a06ef51bb20f1cdc2958c61e96f605a4f904b3edb017490800", "vin": [{"txinwitness": ["3044022077bf4d71678d5939839621b8cd1876c85f79048b2231c707a1007050ad7a322f0220701e4675131ed2278358a1212750e2b87f1e7be5cbd87b4eac60315bf0b0c57301", "03409e9d34612854cc3134bb35b9a06ac94145e0c76be710da93b62291cdefe190"], "sequence": 4294967294, "scriptSig": {"hex": "160014d99c23e92a1445c8de343eb9c6cf0fc743edb59a", "asm": "0014d99c23e92a1445c8de343eb9c6cf0fc743edb59a"}, "vout": 7, "txid": "2ee2738830dd338e99e43cc7787953644be14b23099f1bc18076cd386aca5f45"}, {"txinwitness": ["3044022006f1bc9f3baeeef4e10232b0559b05a988213f52b10149ec70a4ba9bac1fd8cc02205275cde2d282c3ed82b1da3afa2337220e2a4bb2a1b8af87b4bc5e467ddec14901", "0350f4b7a785d16e9e92d896a06ef51bb20f1cdc2958c61e96f605a4f904b3edb0"], "sequence": 4294967294, "scriptSig": {"hex": "1600141265ede7e225f2429f51da54ea7323438624209f", "asm": "00141265ede7e225f2429f51da54ea7323438624209f"}, "vout": 15, "txid": "13a2743a82554412b55a2f1931aabb26913472faf2c33adb5f83383c0d516d9b"}], "txid": "1aac0b8b36124fe4fd189c9220e95d5689feedfff4c47ebacb063f86cf35bc81", "blocktime": 1537876114, "version": 2, "confirmations": 11461, "time": 1537876114, "locktime": 542999, "vsize": 258, "size": 420}