{"hash": "1aae99dc296a6731eef1efa6bceb711fd8bf9038c005ab922e2cb12626319ce8", "blockhash": "0000000000000000000e13cef7c366c0283d82e591d1acd082e914b08063cdf1", "vout": [{"scriptPubKey": {"reqSigs": 1, "hex": "a91433d670ddf2631fbf36093a09dd9d12348a94749087", "addresses": ["36R7GwYApj5XEgnsm1WFXRnL47GmG3unVc"], "asm": "OP_HASH160 33d670ddf2631fbf36093a09dd9d12348a947490 OP_EQUAL", "type": "scripthash"}, "value": 0.0038, "n": 0}, {"scriptPubKey": {"reqSigs": 1, "hex": "a9144aab36aa0a2bc499680c442146ae08dd19c855f987", "addresses": ["38Vq2s4eEbmsN4nYNwQdzBuAhSLEPX8ksA"], "asm": "OP_HASH160 4aab36aa0a2bc499680c442146ae08dd19c855f9 OP_EQUAL", "type": "scripthash"}, "value": 1.1907289, "n": 1}], "hex": "020000000110f290c6448952056ae8104ea881a4fd026ef1eaf21e60b1b245f077ea4782f702000000fc00473044022006040196039294e725c243641f8ee06f5cc1a81fadc7eefedfdd1858f3be4c83022025405b9e8762dc42401a0f2c0f92be9986dd8be1aefa89cd0ba6e0e9ad5aef6b0147304402202b8f003e6b679ec7df2f2bc01381971a3bd59dbe4b51406b76798c15ea11588e022013ccb4e6e17f49d0addb5efe6b604e24d6d71ac9d6f0555ef759db8b29809520014c695221027f38f2238cfb948eeca8fe694f5e74e22698c31e531f2a3ab81f752c3479f40d2102edda96636ca2756c321ccf0c2774f3c693e5b26451882bdee6b2602bbe7e5262210220fb932e8f29aebf7e2fa0206ca2848a7ab516c955ce6cb2397e84e590c36b3053ae000000000260cc05000000000017a91433d670ddf2631fbf36093a09dd9d12348a947490877ae818070000000017a9144aab36aa0a2bc499680c442146ae08dd19c855f98700000000", "vin": [{"sequence": 0, "scriptSig": {"hex": "00473044022006040196039294e725c243641f8ee06f5cc1a81fadc7eefedfdd1858f3be4c83022025405b9e8762dc42401a0f2c0f92be9986dd8be1aefa89cd0ba6e0e9ad5aef6b0147304402202b8f003e6b679ec7df2f2bc01381971a3bd59dbe4b51406b76798c15ea11588e022013ccb4e6e17f49d0addb5efe6b604e24d6d71ac9d6f0555ef759db8b29809520014c695221027f38f2238cfb948eeca8fe694f5e74e22698c31e531f2a3ab81f752c3479f40d2102edda96636ca2756c321ccf0c2774f3c693e5b26451882bdee6b2602bbe7e5262210220fb932e8f29aebf7e2fa0206ca2848a7ab516c955ce6cb2397e84e590c36b3053ae", "asm": "0 3044022006040196039294e725c243641f8ee06f5cc1a81fadc7eefedfdd1858f3be4c83022025405b9e8762dc42401a0f2c0f92be9986dd8be1aefa89cd0ba6e0e9ad5aef6b[ALL] 304402202b8f003e6b679ec7df2f2bc01381971a3bd59dbe4b51406b76798c15ea11588e022013ccb4e6e17f49d0addb5efe6b604e24d6d71ac9d6f0555ef759db8b29809520[ALL] 5221027f38f2238cfb948eeca8fe694f5e74e22698c31e531f2a3ab81f752c3479f40d2102edda96636ca2756c321ccf0c2774f3c693e5b26451882bdee6b2602bbe7e5262210220fb932e8f29aebf7e2fa0206ca2848a7ab516c955ce6cb2397e84e590c36b3053ae"}, "vout": 2, "txid": "f78247ea77f045b2b1601ef2eaf16e02fda481a84e10e86a05528944c690f210"}], "txid": "1aae99dc296a6731eef1efa6bceb711fd8bf9038c005ab922e2cb12626319ce8", "blocktime": 1537871767, "version": 2, "confirmations": 11491, "time": 1537871767, "locktime": 0, "vsize": 367, "size": 367}