{"hash": "21885bbb9a7d658cbe3806a3422fcd6c9d3679c0d7dab4f1e6ca7945b6552cf7", "blockhash": "0000000000000000001cda96e906b7601b7a6fb1a3b62bca570a9e5d8f4b3de1", "vout": [{"scriptPubKey": {"reqSigs": 1, "hex": "0014870c089a1807a8c9150d4a3a0f4c09155bbc812c", "addresses": ["bc1qsuxq3xscq75vj9gdfgaq7nqfz4dmeqfvz0cx3e"], "asm": "0 870c089a1807a8c9150d4a3a0f4c09155bbc812c", "type": "witness_v0_keyhash"}, "value": 0.60692236, "n": 0}, {"scriptPubKey": {"reqSigs": 1, "hex": "76a91491ed8252adaaccf5964c8d8630308dcd88e8217d88ac", "addresses": ["1EJbWEeAGNNR5DQDM9rkUZQUKiq2G1UWhW"], "asm": "OP_DUP OP_HASH160 91ed8252adaaccf5964c8d8630308dcd88e8217d OP_EQUALVERIFY OP_CHECKSIG", "type": "pubkeyhash"}, "value": 0.01522, "n": 1}], "hex": "0100000000010190a8a57a15b6b604c685956245a74cc79f6bf6be153b7ebd4f1ffbb557043ef10100000000ffffffff020c179e0300000000160014870c089a1807a8c9150d4a3a0f4c09155bbc812c50391700000000001976a91491ed8252adaaccf5964c8d8630308dcd88e8217d88ac02473044022049e45fda3f4cff4544b0ce2df21f8c2ed1b3e842e11677e3d0bf1b1f73a46e2502200c6c021da4eb1f404845bda05d1982e499be64e405d83509974bd46910704fff0121032a800d6423afc1ee26e0177bb5fb05d4ba327825c32aeb3321a8c759879aa3bb00000000", "vin": [{"txinwitness": ["3044022049e45fda3f4cff4544b0ce2df21f8c2ed1b3e842e11677e3d0bf1b1f73a46e2502200c6c021da4eb1f404845bda05d1982e499be64e405d83509974bd46910704fff01", "032a800d6423afc1ee26e0177bb5fb05d4ba327825c32aeb3321a8c759879aa3bb"], "sequence": 4294967295, "scriptSig": {"hex": "", "asm": ""}, "vout": 1, "txid": "f13e0457b5fb1f4fbd7e3b15bef66b9fc74ca745629585c604b6b6157aa5a890"}], "txid": "1ab051c9b34e79b38c11b113f00340030530cd4ee4f464db965fb0ed5030254f", "blocktime": 1537873282, "version": 1, "confirmations": 11484, "time": 1537873282, "locktime": 0, "vsize": 144, "size": 225}