{"hash": "1ab12ccf448f0e59fbf098659220fae802d05509ad23699ec2a978daca752930", "blockhash": "000000000000000000022b45ed06c6f4ccd3cf7fb5ba4856ebd2e58215665228", "vout": [{"scriptPubKey": {"type": "nulldata", "hex": "6a4c500000775b0001a9e71dbfbef22a481e62ef5b3a016b46dc7dc7d0968d120d670c1906f999566d65c4d41d9faf1aabdcd89cb4ce7f5baa06f80612a03d5b6b33471d100759d4ba30d2c37bb011d97e02cf", "asm": "OP_RETURN 0000775b0001a9e71dbfbef22a481e62ef5b3a016b46dc7dc7d0968d120d670c1906f999566d65c4d41d9faf1aabdcd89cb4ce7f5baa06f80612a03d5b6b33471d100759d4ba30d2c37bb011d97e02cf"}, "value": 0.0, "n": 0}, {"scriptPubKey": {"reqSigs": 1, "hex": "76a914d1bb68ec91947b4a2ad8ec7759e2ad24592ff5aa88ac", "addresses": ["1L7xjZMkyvXBRwH9vpc3zK2GVb9Zv3WdxZ"], "asm": "OP_DUP OP_HASH160 d1bb68ec91947b4a2ad8ec7759e2ad24592ff5aa OP_EQUALVERIFY OP_CHECKSIG", "type": "pubkeyhash"}, "value": 0.00652332, "n": 1}], "hex": "0100000001a525516f462fa4e7a3a37772e7dc24947256eebdbdd39663e511b771e55b65fd010000006b483045022100a7a94c184c2a6b84f56c90d0bc4a9d818fa7b62ec31a83cfd516f45e8142e5d50220776fd32ec58f493d33e0129c51fe6750fd07cdc01d5ab786d24efb3fb72dcef4012103a1eccf341154a4efc59d6d1adbcff6df1feb56e67213f5b588f417b7b843da69ffffffff020000000000000000536a4c500000775b0001a9e71dbfbef22a481e62ef5b3a016b46dc7dc7d0968d120d670c1906f999566d65c4d41d9faf1aabdcd89cb4ce7f5baa06f80612a03d5b6b33471d100759d4ba30d2c37bb011d97e02cf2cf40900000000001976a914d1bb68ec91947b4a2ad8ec7759e2ad24592ff5aa88ac00000000", "vin": [{"sequence": 4294967295, "scriptSig": {"hex": "483045022100a7a94c184c2a6b84f56c90d0bc4a9d818fa7b62ec31a83cfd516f45e8142e5d50220776fd32ec58f493d33e0129c51fe6750fd07cdc01d5ab786d24efb3fb72dcef4012103a1eccf341154a4efc59d6d1adbcff6df1feb56e67213f5b588f417b7b843da69", "asm": "3045022100a7a94c184c2a6b84f56c90d0bc4a9d818fa7b62ec31a83cfd516f45e8142e5d50220776fd32ec58f493d33e0129c51fe6750fd07cdc01d5ab786d24efb3fb72dcef4[ALL] 03a1eccf341154a4efc59d6d1adbcff6df1feb56e67213f5b588f417b7b843da69"}, "vout": 1, "txid": "fd655be571b711e56396d3bdbdee56729424dce77277a3a3e7a42f466f5125a5"}], "txid": "1ab12ccf448f0e59fbf098659220fae802d05509ad23699ec2a978daca752930", "blocktime": 1537869901, "version": 1, "confirmations": 11523, "time": 1537869901, "locktime": 0, "vsize": 284, "size": 284}