{"hash": "fe7c2ae57aa23a70e0cbc3b248928ac9975626b16cbaf60caed2daa8a82a8014", "blockhash": "0000000000000000000e13cef7c366c0283d82e591d1acd082e914b08063cdf1", "vout": [{"scriptPubKey": {"reqSigs": 1, "hex": "a91444b0c37a788728b1ec3c4af5e80df647b4a5850787", "addresses": ["37xDdLXvekHpF9fLp85mjeuxTfooaHkRYh"], "asm": "OP_HASH160 44b0c37a788728b1ec3c4af5e80df647b4a58507 OP_EQUAL", "type": "scripthash"}, "value": 0.00018748, "n": 0}, {"scriptPubKey": {"reqSigs": 1, "hex": "a9146a0dd522ce57b1d5d33b5362717e13f378828d6a87", "addresses": ["3BMn7yrY8sUEPWjLQg5GJeiJCsYHsNHVEu"], "asm": "OP_HASH160 6a0dd522ce57b1d5d33b5362717e13f378828d6a OP_EQUAL", "type": "scripthash"}, "value": 0.1334297, "n": 1}], "hex": "01000000000101cf28a60259c0f3f11595209393030aeb4dd7e4d7cd5fd2fbe959c2f08dd60419010000002322002065b823a63cb00d2a6e32c5db071644d34a5450980ce6a1e0999531a6bc39aefcffffffff023c4900000000000017a91444b0c37a788728b1ec3c4af5e80df647b4a5850787fa98cb000000000017a9146a0dd522ce57b1d5d33b5362717e13f378828d6a870400473044022065b02ca1e3ada49d847b3e7c1af85a9846f86cce271c120fb941ff932e66754a02203f70e43d24379989ec6d213f6b5b3bd807dd55efe23bfb06ae86edcc6b7b174b01473044022008b24ca65d0ae75121dd5121cb212fd73018839b08e22a0fe00336364d19c2a70220487cc2ee5286fe84039e5f992719ec55a93447493da3ed8897c9113c3e5690f10147522103b9b56c8b28165f7106ec2ef0da29d9f5355a3a9a25957cd5c72a8cd33976a56921030580d373ab00643a581abb399b43fa66d7b6fc29624eb75b2d5ec8d99faa163f52ae00000000", "vin": [{"txinwitness": ["", "3044022065b02ca1e3ada49d847b3e7c1af85a9846f86cce271c120fb941ff932e66754a02203f70e43d24379989ec6d213f6b5b3bd807dd55efe23bfb06ae86edcc6b7b174b01", "3044022008b24ca65d0ae75121dd5121cb212fd73018839b08e22a0fe00336364d19c2a70220487cc2ee5286fe84039e5f992719ec55a93447493da3ed8897c9113c3e5690f101", "522103b9b56c8b28165f7106ec2ef0da29d9f5355a3a9a25957cd5c72a8cd33976a56921030580d373ab00643a581abb399b43fa66d7b6fc29624eb75b2d5ec8d99faa163f52ae"], "sequence": 4294967295, "scriptSig": {"hex": "22002065b823a63cb00d2a6e32c5db071644d34a5450980ce6a1e0999531a6bc39aefc", "asm": "002065b823a63cb00d2a6e32c5db071644d34a5450980ce6a1e0999531a6bc39aefc"}, "vout": 1, "txid": "1904d68df0c259e9fbd25fcdd7e4d74deb0a039393209515f1f3c05902a628cf"}], "txid": "1ac029f81dbd3eaea31ddcec2447b0f697b8dff111d95776069da3b58622eaa3", "blocktime": 1537871767, "version": 1, "confirmations": 11495, "time": 1537871767, "locktime": 0, "vsize": 205, "size": 370}