{"hash": "1ac02c65653ed844f14ae082a60b1daf36926aac91b75491f7de49f073b08c4d", "blockhash": "000000000000000000022b45ed06c6f4ccd3cf7fb5ba4856ebd2e58215665228", "vout": [{"scriptPubKey": {"reqSigs": 1, "hex": "a9142e3ad0f64401145e934aa60f2120b04005d6a58387", "addresses": ["35uTTzZKVJGiae4eFpLVBDvQD7W1HgZkjc"], "asm": "OP_HASH160 2e3ad0f64401145e934aa60f2120b04005d6a583 OP_EQUAL", "type": "scripthash"}, "value": 0.03543387, "n": 0}, {"scriptPubKey": {"reqSigs": 1, "hex": "76a9147727825f6106e66dec687d6b69c7f59f568846bd88ac", "addresses": ["1Bs2jyqJo4YjsCyN169UKz4RxeJTURDhp5"], "asm": "OP_DUP OP_HASH160 7727825f6106e66dec687d6b69c7f59f568846bd OP_EQUALVERIFY OP_CHECKSIG", "type": "pubkeyhash"}, "value": 0.07115979, "n": 1}], "hex": "01000000011d6735e1a5887373083891b48c1fbaa6e46605967d5d45531eb23b2dbede35f3010000006a473044022012866917290e3191bb5d7176f7fa4b4e60a97f23a0053479a52443c23bb4306002205e87da86af1a7e10b670ea861e61c5d260d6f5442e79cc855a88b440621a88240121024fbdd8d923270b481cb6324cfffc592bd40220b51662b55861282732b5d0abaafdffffff025b1136000000000017a9142e3ad0f64401145e934aa60f2120b04005d6a58387cb946c00000000001976a9147727825f6106e66dec687d6b69c7f59f568846bd88ac0b490800", "vin": [{"sequence": 4294967293, "scriptSig": {"hex": "473044022012866917290e3191bb5d7176f7fa4b4e60a97f23a0053479a52443c23bb4306002205e87da86af1a7e10b670ea861e61c5d260d6f5442e79cc855a88b440621a88240121024fbdd8d923270b481cb6324cfffc592bd40220b51662b55861282732b5d0abaa", "asm": "3044022012866917290e3191bb5d7176f7fa4b4e60a97f23a0053479a52443c23bb4306002205e87da86af1a7e10b670ea861e61c5d260d6f5442e79cc855a88b440621a8824[ALL] 024fbdd8d923270b481cb6324cfffc592bd40220b51662b55861282732b5d0abaa"}, "vout": 1, "txid": "f335debe2d3bb21e53455d7d960566e4a6ba1f8cb4913808737388a5e135671d"}], "txid": "1ac02c65653ed844f14ae082a60b1daf36926aac91b75491f7de49f073b08c4d", "blocktime": 1537869901, "version": 1, "confirmations": 11522, "time": 1537869901, "locktime": 542987, "vsize": 223, "size": 223}