{"hash": "e80e5712ec638c90fb188e07ffe7cef6a03d8120990c3791448c0d3657155234", "blockhash": "0000000000000000001cda96e906b7601b7a6fb1a3b62bca570a9e5d8f4b3de1", "vout": [{"scriptPubKey": {"reqSigs": 1, "hex": "a9146f17b3427a354dfec9a026cd23a96b2121f9aa6687", "addresses": ["3BpRKZKMQ2rHZcX8JeCLJKBrtr5zRpT17j"], "asm": "OP_HASH160 6f17b3427a354dfec9a026cd23a96b2121f9aa66 OP_EQUAL", "type": "scripthash"}, "value": 0.0107113, "n": 0}, {"scriptPubKey": {"reqSigs": 1, "hex": "a914a5c679defd49547b8133a1367eeadbdeaecec3da87", "addresses": ["3GoZBZ6F8g4UiCt7moPNLDX7KKwgtGgLUT"], "asm": "OP_HASH160 a5c679defd49547b8133a1367eeadbdeaecec3da OP_EQUAL", "type": "scripthash"}, "value": 0.50763788, "n": 1}], "hex": "010000000001014723bc791350aa5af1fec31029eb6803ab65909b2a2c7ebee1f90acb19101b0701000000232200202d90cd274cea8141a030c0b79acc5b5c0b80b73d028692a1104913808bff6c09ffffffff021a5810000000000017a9146f17b3427a354dfec9a026cd23a96b2121f9aa66870c9806030000000017a914a5c679defd49547b8133a1367eeadbdeaecec3da87040047304402205dee3899944995e81d39931c564c2bfe11b3fa1febead3d04314fb8de8f3a5460220262840861f87896bf64aa17b3cc22de66d3d85f73ac992012d0709c9be51d60a0147304402202124f658d91867da2eb93aa64d8762309530ebb38be0c2b3915cd136265a9c0302206fb0438e2f3cd5a6b6d4e6b6bfdf016d5498aaea389e3f8096742c449dca0850014752210295d70c0f10033e6e119fdc61ddd495bfe23995150af6df4688db5bf235f2853b21023e4b58fb2a91970de56515d11487aabd364f0404f1099bef70493cc56002342352ae00000000", "vin": [{"txinwitness": ["", "304402205dee3899944995e81d39931c564c2bfe11b3fa1febead3d04314fb8de8f3a5460220262840861f87896bf64aa17b3cc22de66d3d85f73ac992012d0709c9be51d60a01", "304402202124f658d91867da2eb93aa64d8762309530ebb38be0c2b3915cd136265a9c0302206fb0438e2f3cd5a6b6d4e6b6bfdf016d5498aaea389e3f8096742c449dca085001", "52210295d70c0f10033e6e119fdc61ddd495bfe23995150af6df4688db5bf235f2853b21023e4b58fb2a91970de56515d11487aabd364f0404f1099bef70493cc56002342352ae"], "sequence": 4294967295, "scriptSig": {"hex": "2200202d90cd274cea8141a030c0b79acc5b5c0b80b73d028692a1104913808bff6c09", "asm": "00202d90cd274cea8141a030c0b79acc5b5c0b80b73d028692a1104913808bff6c09"}, "vout": 1, "txid": "071b1019cb0af9e1be7e2c2a9b9065ab0368eb2910c3fef15aaa501379bc2347"}], "txid": "1ac175a20d8b63c7a94cbc4e2657372e05bf241937870aa523913105c24d41f7", "blocktime": 1537873282, "version": 1, "confirmations": 11484, "time": 1537873282, "locktime": 0, "vsize": 205, "size": 370}