{"hash": "1ac387a73338c56e7a62cd91451523e0a1d7107b2813255766f8381841c21327", "blockhash": "0000000000000000000dcc0f55137456b1a82d3642486a52398922ac4d620174", "vout": [{"scriptPubKey": {"reqSigs": 1, "hex": "76a914a74ecb3cc6adda17faed1a8b416987d5cb3cf2f988ac", "addresses": ["1GFeEjRyCZP33AUbhCkbv3Cshb9NPew5e5"], "asm": "OP_DUP OP_HASH160 a74ecb3cc6adda17faed1a8b416987d5cb3cf2f9 OP_EQUALVERIFY OP_CHECKSIG", "type": "pubkeyhash"}, "value": 3.98, "n": 0}, {"scriptPubKey": {"reqSigs": 1, "hex": "76a914a32055e6095232e132b6ce70bafdb1514e3c448f88ac", "addresses": ["1FsXsyucZxZ7HGvd6GAyHcZVaYqmR5NXC8"], "asm": "OP_DUP OP_HASH160 a32055e6095232e132b6ce70bafdb1514e3c448f OP_EQUALVERIFY OP_CHECKSIG", "type": "pubkeyhash"}, "value": 2.92142, "n": 1}], "hex": "01000000022fc3e50a096289ed9960bf4fc781ff9bb51d0a00dba559887dba7dbb03da7c77010000006a473044022038776206c82d4cb61c395246653680cda40f1090a3af3b0f6289241f81c54460022052c700c9cbb4d498dc172fca23fe23ac775bf8aaec613f9e644dd4d71fc4df9d0121024d02383516ca5cdfd7e1c069987cba7efd87c6fdcf523d952b765c5e7f2abf95ffffffff2fc3e50a096289ed9960bf4fc781ff9bb51d0a00dba559887dba7dbb03da7c77000000006b483045022100e5d7f3b2994dd38dc847dd6551a33441f01bdfb961b8b498f3579155ece242d8022079160fe0560bf6a444aa5b03ceede7d448271612aeb0e316d4c851bb004f89620121033e4ad57cf25e05d61ec19658a104c30c7df38b1b7ad752c55233537e6bebfeeeffffffff0280ffb817000000001976a914a74ecb3cc6adda17faed1a8b416987d5cb3cf2f988acb0bb6911000000001976a914a32055e6095232e132b6ce70bafdb1514e3c448f88ac00000000", "vin": [{"sequence": 4294967295, "scriptSig": {"hex": "473044022038776206c82d4cb61c395246653680cda40f1090a3af3b0f6289241f81c54460022052c700c9cbb4d498dc172fca23fe23ac775bf8aaec613f9e644dd4d71fc4df9d0121024d02383516ca5cdfd7e1c069987cba7efd87c6fdcf523d952b765c5e7f2abf95", "asm": "3044022038776206c82d4cb61c395246653680cda40f1090a3af3b0f6289241f81c54460022052c700c9cbb4d498dc172fca23fe23ac775bf8aaec613f9e644dd4d71fc4df9d[ALL] 024d02383516ca5cdfd7e1c069987cba7efd87c6fdcf523d952b765c5e7f2abf95"}, "vout": 1, "txid": "777cda03bb7dba7d8859a5db000a1db59bff81c74fbf6099ed8962090ae5c32f"}, {"sequence": 4294967295, "scriptSig": {"hex": "483045022100e5d7f3b2994dd38dc847dd6551a33441f01bdfb961b8b498f3579155ece242d8022079160fe0560bf6a444aa5b03ceede7d448271612aeb0e316d4c851bb004f89620121033e4ad57cf25e05d61ec19658a104c30c7df38b1b7ad752c55233537e6bebfeee", "asm": "3045022100e5d7f3b2994dd38dc847dd6551a33441f01bdfb961b8b498f3579155ece242d8022079160fe0560bf6a444aa5b03ceede7d448271612aeb0e316d4c851bb004f8962[ALL] 033e4ad57cf25e05d61ec19658a104c30c7df38b1b7ad752c55233537e6bebfeee"}, "vout": 0, "txid": "777cda03bb7dba7d8859a5db000a1db59bff81c74fbf6099ed8962090ae5c32f"}], "txid": "1ac387a73338c56e7a62cd91451523e0a1d7107b2813255766f8381841c21327", "blocktime": 1537870268, "version": 1, "confirmations": 11516, "time": 1537870268, "locktime": 0, "vsize": 373, "size": 373}