{"hash": "1ac94520e800d2206b37ffef4f9a440ac7b84cfb658a12ed24693594c54c85fa", "blockhash": "0000000000000000000e13cef7c366c0283d82e591d1acd082e914b08063cdf1", "vout": [{"scriptPubKey": {"reqSigs": 1, "hex": "76a914a25dec4d0011064ef106a983c39c7a540699f22088ac", "addresses": ["1FoWyxwPXuj4C6abqwhjDWdz6D4PZgYRjA"], "asm": "OP_DUP OP_HASH160 a25dec4d0011064ef106a983c39c7a540699f220 OP_EQUALVERIFY OP_CHECKSIG", "type": "pubkeyhash"}, "value": 0.01966403, "n": 0}, {"scriptPubKey": {"type": "nulldata", "hex": "6a146f6d6e69000000000000001f000000b5e92c660b", "asm": "OP_RETURN 6f6d6e69000000000000001f000000b5e92c660b"}, "value": 0.0, "n": 1}, {"scriptPubKey": {"reqSigs": 1, "hex": "76a914b74ba646a52d0b9355245ee46ae37df9e037dbe688ac", "addresses": ["1HiBHKsoxB1qdh7CknDeq971cxa1Dzu8mQ"], "asm": "OP_DUP OP_HASH160 b74ba646a52d0b9355245ee46ae37df9e037dbe6 OP_EQUALVERIFY OP_CHECKSIG", "type": "pubkeyhash"}, "value": 5.46e-06, "n": 2}], "hex": "01000000018c9122dccf1b206dc8c29337a36e77a0a27fd99734589c140b58b42f9a74bd9d020000006b483045022100ab7743b9689378cb028a9ac7f28837bdbf646cd048b08b7bc57d7fe61168e8e6022053c1039d9125589374b9e62e5266f182ac92c983e2c46afeec3c299d859781ff012103da5bac7b36d5aa38f531c6b9601e21bb598a4b6716ebed38b009a55dabde9440feffffff0343011e00000000001976a914a25dec4d0011064ef106a983c39c7a540699f22088ac0000000000000000166a146f6d6e69000000000000001f000000b5e92c660b22020000000000001976a914b74ba646a52d0b9355245ee46ae37df9e037dbe688ac10490800", "vin": [{"sequence": 4294967294, "scriptSig": {"hex": "483045022100ab7743b9689378cb028a9ac7f28837bdbf646cd048b08b7bc57d7fe61168e8e6022053c1039d9125589374b9e62e5266f182ac92c983e2c46afeec3c299d859781ff012103da5bac7b36d5aa38f531c6b9601e21bb598a4b6716ebed38b009a55dabde9440", "asm": "3045022100ab7743b9689378cb028a9ac7f28837bdbf646cd048b08b7bc57d7fe61168e8e6022053c1039d9125589374b9e62e5266f182ac92c983e2c46afeec3c299d859781ff[ALL] 03da5bac7b36d5aa38f531c6b9601e21bb598a4b6716ebed38b009a55dabde9440"}, "vout": 2, "txid": "9dbd749a2fb4580b149c583497d97fa2a0776ea33793c2c86d201bcfdc22918c"}], "txid": "1ac94520e800d2206b37ffef4f9a440ac7b84cfb658a12ed24693594c54c85fa", "blocktime": 1537871767, "version": 1, "confirmations": 11490, "time": 1537871767, "locktime": 542992, "vsize": 257, "size": 257}