{"hash": "1acb427716d098c30dbe1fb4883f84e06342ad8210c7fb9ce0e70048bbcb17a5", "blockhash": "0000000000000000000dcc0f55137456b1a82d3642486a52398922ac4d620174", "vout": [{"scriptPubKey": {"type": "nulldata", "hex": "6a4c500000776c0001ab806348ac0458a304e2218a86aeaeacb577c031fc3a016b46dc7dc7d096c53662e1a68b38bd2bb20a9e62968ad45baa0878061399fb5ed936ab1d100759d4ba30d2c37bb011d97e02cf", "asm": "OP_RETURN 0000776c0001ab806348ac0458a304e2218a86aeaeacb577c031fc3a016b46dc7dc7d096c53662e1a68b38bd2bb20a9e62968ad45baa0878061399fb5ed936ab1d100759d4ba30d2c37bb011d97e02cf"}, "value": 0.0, "n": 0}, {"scriptPubKey": {"reqSigs": 1, "hex": "76a914b4549a32e214125b9e6d2afae5182acdd1af8d0388ac", "addresses": ["1HSVyoaR37EF3VPJNfBA38emCaDMKYXq7V"], "asm": "OP_DUP OP_HASH160 b4549a32e214125b9e6d2afae5182acdd1af8d03 OP_EQUALVERIFY OP_CHECKSIG", "type": "pubkeyhash"}, "value": 0.00649916, "n": 1}], "hex": "0100000001089b34898065961ee10bd808052141f12fe5335a641505437877f40d1ce4f2bf010000006b4830450221008fb19cbbafa8e43d01494cc5605c88e14ac9a70752513151d959eebc54e0c58602205827c52690b1903fb07a750a643d5ba315c453b7f476ee9eefd0e96254bd56ae0121024edb9800cb7aa7758484ea21810e81e2ae8ac7430fcdf60431eb73e1cf9d7fb3ffffffff020000000000000000536a4c500000776c0001ab806348ac0458a304e2218a86aeaeacb577c031fc3a016b46dc7dc7d096c53662e1a68b38bd2bb20a9e62968ad45baa0878061399fb5ed936ab1d100759d4ba30d2c37bb011d97e02cfbcea0900000000001976a914b4549a32e214125b9e6d2afae5182acdd1af8d0388ac00000000", "vin": [{"sequence": 4294967295, "scriptSig": {"hex": "4830450221008fb19cbbafa8e43d01494cc5605c88e14ac9a70752513151d959eebc54e0c58602205827c52690b1903fb07a750a643d5ba315c453b7f476ee9eefd0e96254bd56ae0121024edb9800cb7aa7758484ea21810e81e2ae8ac7430fcdf60431eb73e1cf9d7fb3", "asm": "30450221008fb19cbbafa8e43d01494cc5605c88e14ac9a70752513151d959eebc54e0c58602205827c52690b1903fb07a750a643d5ba315c453b7f476ee9eefd0e96254bd56ae[ALL] 024edb9800cb7aa7758484ea21810e81e2ae8ac7430fcdf60431eb73e1cf9d7fb3"}, "vout": 1, "txid": "bff2e41c0df47778430515645a33e52ff141210508d80be11e96658089349b08"}], "txid": "1acb427716d098c30dbe1fb4883f84e06342ad8210c7fb9ce0e70048bbcb17a5", "blocktime": 1537870268, "version": 1, "confirmations": 11518, "time": 1537870268, "locktime": 0, "vsize": 284, "size": 284}