{"hash": "9e51ab9ff0698919809ad41bbee1de36531cd76c61929c5c7c90d4daa2a67dab", "blockhash": "0000000000000000001cda96e906b7601b7a6fb1a3b62bca570a9e5d8f4b3de1", "vout": [{"scriptPubKey": {"reqSigs": 1, "hex": "a914830b08011c4ce598c9682dbab37f74376a4be54787", "addresses": ["3Dduf93Ctzb7EktdjgWVth9jBnmKGqVSrS"], "asm": "OP_HASH160 830b08011c4ce598c9682dbab37f74376a4be547 OP_EQUAL", "type": "scripthash"}, "value": 0.04179094, "n": 0}, {"scriptPubKey": {"reqSigs": 1, "hex": "a914119b7997e3a2c9fd7a3849a6646ed46158ebd85187", "addresses": ["33J7fPtWccWB9jcwE8XKcDqhrU6Ci6EFdp"], "asm": "OP_HASH160 119b7997e3a2c9fd7a3849a6646ed46158ebd851 OP_EQUAL", "type": "scripthash"}, "value": 7.51680252, "n": 1}], "hex": "020000000001013958e6608e5ddbb8679b88a274c1e5b9da986738b57b756f731e9478c9fa737a030000001716001435926faff85c33f377adc5f0e093e392512fa244feffffff0296c43f000000000017a914830b08011c4ce598c9682dbab37f74376a4be54787fcbacd2c0000000017a914119b7997e3a2c9fd7a3849a6646ed46158ebd85187024730440220517edf2079b44ab5e7305608efaf41f3d18fe8506f5701cdcd87b86ccf60fe9802200d7e9f26b488c6347d27292b187c89c03b5dbd3961bf2d12fc1074bfc8df3458012102afc1aa12b2c1fdb39638ba114bc07a718d193a994448359c7934073cd76e52e813490800", "vin": [{"txinwitness": ["30440220517edf2079b44ab5e7305608efaf41f3d18fe8506f5701cdcd87b86ccf60fe9802200d7e9f26b488c6347d27292b187c89c03b5dbd3961bf2d12fc1074bfc8df345801", "02afc1aa12b2c1fdb39638ba114bc07a718d193a994448359c7934073cd76e52e8"], "sequence": 4294967294, "scriptSig": {"hex": "16001435926faff85c33f377adc5f0e093e392512fa244", "asm": "001435926faff85c33f377adc5f0e093e392512fa244"}, "vout": 3, "txid": "7a73fac978941e736f757bb5386798dab9e5c174a2889b67b8db5d8e60e65839"}], "txid": "1ad4c5c7910a6ac499bf3064a1d415f09101e52dfa6066b130824ccd1ba7f8e5", "blocktime": 1537873282, "version": 2, "confirmations": 11480, "time": 1537873282, "locktime": 542995, "vsize": 166, "size": 247}