{"hash": "1adf918a23fb773152dd75be91fd2e01169835d4f5293111ef66f77b03e29e56", "blockhash": "0000000000000000000e13cef7c366c0283d82e591d1acd082e914b08063cdf1", "vout": [{"scriptPubKey": {"reqSigs": 1, "hex": "76a91476bdc06718f40c55ea996b232de438bf5b9d58ae88ac", "addresses": ["1Bpr3ompHwKEhtrBBMCXeTZD6zFYCuPsZh"], "asm": "OP_DUP OP_HASH160 76bdc06718f40c55ea996b232de438bf5b9d58ae OP_EQUALVERIFY OP_CHECKSIG", "type": "pubkeyhash"}, "value": 0.0156523, "n": 0}, {"scriptPubKey": {"reqSigs": 1, "hex": "76a914b0a678371f95879593e18884c6800dee3abbda3c88ac", "addresses": ["1H73MGnQi5whE2tg5VpMn1a6qT99rSqVL7"], "asm": "OP_DUP OP_HASH160 b0a678371f95879593e18884c6800dee3abbda3c OP_EQUALVERIFY OP_CHECKSIG", "type": "pubkeyhash"}, "value": 0.06857521, "n": 1}], "hex": "0100000001411f1c8b4db26abe0a8ea26184305fe933296eb7e2339cb28082548f1550a184010000006b4830450221009980e268e62fa07ea268394cafe9fbfd7f59773245e62f065a85592c7041245602203548f08afc73a71e79e3d15292ceab5be542625f0603c8a7b977efa623353c3c012102d0e864a6aa7b987f633a4e7e3a28e2bcb36ef6b9a82aba883be4ffdc9966405effffffff022ee21700000000001976a91476bdc06718f40c55ea996b232de438bf5b9d58ae88ac31a36800000000001976a914b0a678371f95879593e18884c6800dee3abbda3c88ac00000000", "vin": [{"sequence": 4294967295, "scriptSig": {"hex": "4830450221009980e268e62fa07ea268394cafe9fbfd7f59773245e62f065a85592c7041245602203548f08afc73a71e79e3d15292ceab5be542625f0603c8a7b977efa623353c3c012102d0e864a6aa7b987f633a4e7e3a28e2bcb36ef6b9a82aba883be4ffdc9966405e", "asm": "30450221009980e268e62fa07ea268394cafe9fbfd7f59773245e62f065a85592c7041245602203548f08afc73a71e79e3d15292ceab5be542625f0603c8a7b977efa623353c3c[ALL] 02d0e864a6aa7b987f633a4e7e3a28e2bcb36ef6b9a82aba883be4ffdc9966405e"}, "vout": 1, "txid": "84a150158f548280b29c33e2b76e2933e95f308461a28e0abe6ab24d8b1c1f41"}], "txid": "1adf918a23fb773152dd75be91fd2e01169835d4f5293111ef66f77b03e29e56", "blocktime": 1537871767, "version": 1, "confirmations": 11495, "time": 1537871767, "locktime": 0, "vsize": 226, "size": 226}