{"hash": "8d49742c8116f04959939c396cbf0be62937f2572542cfa383e5997b3ef0376f", "blockhash": "0000000000000000001cda96e906b7601b7a6fb1a3b62bca570a9e5d8f4b3de1", "vout": [{"scriptPubKey": {"reqSigs": 1, "hex": "a91496d9085d4ff4172bbf6c0f1dcbc1d28e4ff922d087", "addresses": ["3FSdH1hWhHDUoQnJ5ZrqPHHwWTBicof7n3"], "asm": "OP_HASH160 96d9085d4ff4172bbf6c0f1dcbc1d28e4ff922d0 OP_EQUAL", "type": "scripthash"}, "value": 0.018, "n": 0}, {"scriptPubKey": {"reqSigs": 1, "hex": "a914bbba37f40cb545bcad4ce84c10733be66d166e0487", "addresses": ["3JodN7GmkHdPgKj9G7HCkn9NDLhrcWCjVN"], "asm": "OP_HASH160 bbba37f40cb545bcad4ce84c10733be66d166e04 OP_EQUAL", "type": "scripthash"}, "value": 0.00011353, "n": 1}], "hex": "02000000000101150d2917336974afb024b54725892cdb8e9de9c291115a113bf137406a71b6a000000000171600145e47ed0fbdfff6edff023672a4c9429dd4bf3be4ffffffff0240771b000000000017a91496d9085d4ff4172bbf6c0f1dcbc1d28e4ff922d087592c00000000000017a914bbba37f40cb545bcad4ce84c10733be66d166e0487024630430220532f2b06fa74576b61ab1f4f61825babe083480960bd88c99d69d966f21e7206021f3c3f8334f974f7a8d36847c286604410683e94d4bcdba90a9c4852e4fa4a8601210325300563b31ea859f2b8bffbcc157d4e41d4fa72585878c5f4c4f05b1c76ed5d00000000", "vin": [{"txinwitness": ["30430220532f2b06fa74576b61ab1f4f61825babe083480960bd88c99d69d966f21e7206021f3c3f8334f974f7a8d36847c286604410683e94d4bcdba90a9c4852e4fa4a8601", "0325300563b31ea859f2b8bffbcc157d4e41d4fa72585878c5f4c4f05b1c76ed5d"], "sequence": 4294967295, "scriptSig": {"hex": "1600145e47ed0fbdfff6edff023672a4c9429dd4bf3be4", "asm": "00145e47ed0fbdfff6edff023672a4c9429dd4bf3be4"}, "vout": 0, "txid": "a0b6716a4037f13b115a1191c2e99d8edb2c892547b524b0af74693317290d15"}], "txid": "1ae822346d94873e290b774175f59772fb1dd303b08e458b7f3e4cdefb510701", "blocktime": 1537873282, "version": 2, "confirmations": 11480, "time": 1537873282, "locktime": 0, "vsize": 165, "size": 246}