{"hash": "79aa889fc82e28d097d70a4e48356d8e24954e920b3556b716ae8b194c164b82", "blockhash": "00000000000000000024a2167bbff67b0be802c0b01cdd79e6331c2be6459f87", "vout": [{"scriptPubKey": {"reqSigs": 1, "hex": "a914e9c678ff7e1d27e469e912efd9a532bf6c36ef4387", "addresses": ["3P178MvjUSC4tPT4eQRKNMo6BE3hYpEYPs"], "asm": "OP_HASH160 e9c678ff7e1d27e469e912efd9a532bf6c36ef43 OP_EQUAL", "type": "scripthash"}, "value": 0.051808, "n": 0}, {"scriptPubKey": {"reqSigs": 1, "hex": "a9145b826b75b9c97949966f5a09300c6529e274996f87", "addresses": ["3A2seiyMGt8LKariBaEyqBUHGPJ9k7HoXp"], "asm": "OP_HASH160 5b826b75b9c97949966f5a09300c6529e274996f OP_EQUAL", "type": "scripthash"}, "value": 0.05, "n": 1}], "hex": "0100000000010188b7033ecdae9e5993abb4308556575bc89124791f32576a0d1c615fb8166d4c010000002322002072b9e60b035a74c6532b41bf1f7f41b252b0af2a3f970e438b4cc46d4be3fc2affffffff02800d4f000000000017a914e9c678ff7e1d27e469e912efd9a532bf6c36ef4387404b4c000000000017a9145b826b75b9c97949966f5a09300c6529e274996f87040047304402205f5ce279943f001b7e34e8f43e2f595686b42477071f0c73df650771810b130b022011fba7e9681cc49dd9b8f1817b1cdfadee87f2520b23664202225f3eaa1976c601483045022100e117c6c4ba461c39b420643c6acf2333943a3e1b48c205b1e8e461c23aac202f02205d52dd4c2717210078f1ed67007058e44a79a187e074c0738daac7a724ef68ab0169522103202ad0304083e48235f834e4fcd7b770dacdcb2e7b2f69ead21d37e402b34fcb21038d8caddde41444af012baf4fb30654642b6b947810572bbb12f7ebb7c5cbf11021034557811c7caf723a5417673da65a8a11bd7b578d672f690a6f2c19ae6781194053ae00000000", "vin": [{"txinwitness": ["", "304402205f5ce279943f001b7e34e8f43e2f595686b42477071f0c73df650771810b130b022011fba7e9681cc49dd9b8f1817b1cdfadee87f2520b23664202225f3eaa1976c601", "3045022100e117c6c4ba461c39b420643c6acf2333943a3e1b48c205b1e8e461c23aac202f02205d52dd4c2717210078f1ed67007058e44a79a187e074c0738daac7a724ef68ab01", "522103202ad0304083e48235f834e4fcd7b770dacdcb2e7b2f69ead21d37e402b34fcb21038d8caddde41444af012baf4fb30654642b6b947810572bbb12f7ebb7c5cbf11021034557811c7caf723a5417673da65a8a11bd7b578d672f690a6f2c19ae6781194053ae"], "sequence": 4294967295, "scriptSig": {"hex": "22002072b9e60b035a74c6532b41bf1f7f41b252b0af2a3f970e438b4cc46d4be3fc2a", "asm": "002072b9e60b035a74c6532b41bf1f7f41b252b0af2a3f970e438b4cc46d4be3fc2a"}, "vout": 1, "txid": "4c6d16b85f611c0d6a57321f792491c85b57568530b4ab93599eaecd3e03b788"}], "txid": "1aeb5e5f17ab7aa83f9587b58186578a94f894fc80eb0e19b063bc805e4a33fc", "blocktime": 1537870564, "version": 1, "confirmations": 11515, "time": 1537870564, "locktime": 0, "vsize": 214, "size": 405}