{"hash": "1aeee01b38618ac5371b59669e89ec44fed97e1dcf2303125aeb620c1b3d372c", "blockhash": "00000000000000000018f53835495a110e01622372bf6ae95dc86f2b0ab887b0", "vout": [{"scriptPubKey": {"reqSigs": 1, "hex": "76a9145aa64b6f945a2e5dbbe81b2d589854e6d239575788ac", "addresses": ["19GK2d2FjPgSfrLujwCy1kfgEF4sZ7nnPg"], "asm": "OP_DUP OP_HASH160 5aa64b6f945a2e5dbbe81b2d589854e6d2395757 OP_EQUALVERIFY OP_CHECKSIG", "type": "pubkeyhash"}, "value": 0.01011165, "n": 0}, {"scriptPubKey": {"reqSigs": 1, "hex": "a914996758e149a6bc4408830f286f8b3e291342edf387", "addresses": ["3Fg97aj5M49fMNhdi9wdozo2BWbvcNa6C5"], "asm": "OP_HASH160 996758e149a6bc4408830f286f8b3e291342edf3 OP_EQUAL", "type": "scripthash"}, "value": 0.00121, "n": 1}], "hex": "0200000001cb3434505cb6c451fb9ab5f509f35863d0fec6922ac7712f28ca53ff9d62d7a9010000006a4730440220293c038226edd534ecfeb4dea0b689086ab6e76e583cf2e62d5072853b2d4e19022069a7b4d4d1e3982e58a44ef416130e3d180dbaef16c364eb16f1a8c5020a11360121028f59a3e501a42ba142c5fc17818d745656567d474fc1a1269af771d03a613410feffffff02dd6d0f00000000001976a9145aa64b6f945a2e5dbbe81b2d589854e6d239575788aca8d801000000000017a914996758e149a6bc4408830f286f8b3e291342edf3870e490800", "vin": [{"sequence": 4294967294, "scriptSig": {"hex": "4730440220293c038226edd534ecfeb4dea0b689086ab6e76e583cf2e62d5072853b2d4e19022069a7b4d4d1e3982e58a44ef416130e3d180dbaef16c364eb16f1a8c5020a11360121028f59a3e501a42ba142c5fc17818d745656567d474fc1a1269af771d03a613410", "asm": "30440220293c038226edd534ecfeb4dea0b689086ab6e76e583cf2e62d5072853b2d4e19022069a7b4d4d1e3982e58a44ef416130e3d180dbaef16c364eb16f1a8c5020a1136[ALL] 028f59a3e501a42ba142c5fc17818d745656567d474fc1a1269af771d03a613410"}, "vout": 1, "txid": "a9d7629dff53ca282f71c72a92c6fed06358f309f5b59afb51c4b65c503434cb"}], "txid": "1aeee01b38618ac5371b59669e89ec44fed97e1dcf2303125aeb620c1b3d372c", "blocktime": 1537870928, "version": 2, "confirmations": 11514, "time": 1537870928, "locktime": 542990, "vsize": 223, "size": 223}