{"hash": "2b4702284daba79c8615477fbfc7cd4e7b6cd34e69865929f4d6aa1bce951415", "blockhash": "0000000000000000000dcc0f55137456b1a82d3642486a52398922ac4d620174", "vout": [{"scriptPubKey": {"reqSigs": 1, "hex": "a914371291eb884220a40b6156d415d34ef28924173d87", "addresses": ["36iDLMsWhy8cLiiP5XTajoMT2QaU5emkgE"], "asm": "OP_HASH160 371291eb884220a40b6156d415d34ef28924173d OP_EQUAL", "type": "scripthash"}, "value": 4.58671156, "n": 0}, {"scriptPubKey": {"reqSigs": 1, "hex": "0020701a8d401c84fb13e6baf169d59684e17abd9fa216c8cc5b9fc63d622ff8c58d", "addresses": ["bc1qwqdg6squsna38e46795at95yu9atm8azzmyvckulcc7kytlcckxswvvzej"], "asm": "0 701a8d401c84fb13e6baf169d59684e17abd9fa216c8cc5b9fc63d622ff8c58d", "type": "witness_v0_scripthash"}, "value": 0.40549844, "n": 1}], "hex": "010000000001015530ed7937ea0b7fbcb5fa970faae8d233f6b2634925a314354f6c9a9654ebaa0a00000000ffffffff0234c4561b0000000017a914371291eb884220a40b6156d415d34ef28924173d87d4bd6a0200000000220020701a8d401c84fb13e6baf169d59684e17abd9fa216c8cc5b9fc63d622ff8c58d0400483045022100a8135c5f39242ed2f803beee964dd13dccf0dccbe71c8000c49c3c6f0f2b2bd302205129ac18370eb68a73db342344a8f5c339ca9df65efedec64930c090ed396ab4014830450221009a96030e6d1749f9844eb7bcf788850be2696ac786b36c6fde18d696602764a1022075813b4578ca6321e3411d7b33d989c1c8a5cd6377d218022ce253863e57dedb01695221026478f7934428a4333a6c182beea581e7a2d23eb0f9bf7bb43799bece4686a92d2102c46c32c07b2034300e577114b10d5516349e092dd413c750a0781edb83ab95ff2103c96d495bfdd5ba4145e3e046fee45e84a8a48ad05bd8dbb395c011a32cf9f88053ae00000000", "vin": [{"txinwitness": ["", "3045022100a8135c5f39242ed2f803beee964dd13dccf0dccbe71c8000c49c3c6f0f2b2bd302205129ac18370eb68a73db342344a8f5c339ca9df65efedec64930c090ed396ab401", "30450221009a96030e6d1749f9844eb7bcf788850be2696ac786b36c6fde18d696602764a1022075813b4578ca6321e3411d7b33d989c1c8a5cd6377d218022ce253863e57dedb01", "5221026478f7934428a4333a6c182beea581e7a2d23eb0f9bf7bb43799bece4686a92d2102c46c32c07b2034300e577114b10d5516349e092dd413c750a0781edb83ab95ff2103c96d495bfdd5ba4145e3e046fee45e84a8a48ad05bd8dbb395c011a32cf9f88053ae"], "sequence": 4294967295, "scriptSig": {"hex": "", "asm": ""}, "vout": 10, "txid": "aaeb54969a6c4f3514a3254963b2f633d2e8aa0f97fab5bc7f0bea3779ed3055"}], "txid": "1b00834d255c623b5829ada96bd09b6820f12480d4fb6dee5edf59a1f80b5b3e", "blocktime": 1537870268, "version": 1, "confirmations": 11516, "time": 1537870268, "locktime": 0, "vsize": 190, "size": 382}