{"hash": "1b0993e6f3eae0bc7f5a1130fafd4767e0dd7b8aaa0f6f9544ed89e5e428b156", "blockhash": "000000000000000000022b45ed06c6f4ccd3cf7fb5ba4856ebd2e58215665228", "vout": [{"scriptPubKey": {"type": "nulldata", "hex": "6a146f6d6e69000000000000001f000000a148232f00", "asm": "OP_RETURN 6f6d6e69000000000000001f000000a148232f00"}, "value": 0.0, "n": 0}, {"scriptPubKey": {"reqSigs": 1, "hex": "76a9145b250adec16b1c556a3144b0e7544a8069d9acd888ac", "addresses": ["19JvsDHsiyB9RLsUZFXYyVzxswpKpaVjPD"], "asm": "OP_DUP OP_HASH160 5b250adec16b1c556a3144b0e7544a8069d9acd8 OP_EQUALVERIFY OP_CHECKSIG", "type": "pubkeyhash"}, "value": 0.00495943, "n": 1}, {"scriptPubKey": {"reqSigs": 1, "hex": "76a91488d924f51033b74a895863a5fb57fd545529df7d88ac", "addresses": ["1DUb2YYbQA1jjaNYzVXLZ7ZioEhLXtbUru"], "asm": "OP_DUP OP_HASH160 88d924f51033b74a895863a5fb57fd545529df7d OP_EQUALVERIFY OP_CHECKSIG", "type": "pubkeyhash"}, "value": 5.46e-06, "n": 2}], "hex": "0100000001f37d3a0e9d899ba8a81466db000d0e1d38a4414f62c8d2674f77d62b07b62d6b000000006a473044022015c60a6e6eec812fe5ddfb55df876bf69292a17a70b89cabad29784f542a5940022070a87f8f575991f81ed19a61dbff5fe72a8f927dc982315de1185508452440b2012102ddab958e790dbe9c07ff31836143f02c2f99d784c5229ec795386ab34ffc7012feffffff030000000000000000166a146f6d6e69000000000000001f000000a148232f0047910700000000001976a9145b250adec16b1c556a3144b0e7544a8069d9acd888ac22020000000000001976a91488d924f51033b74a895863a5fb57fd545529df7d88ac0b490800", "vin": [{"sequence": 4294967294, "scriptSig": {"hex": "473044022015c60a6e6eec812fe5ddfb55df876bf69292a17a70b89cabad29784f542a5940022070a87f8f575991f81ed19a61dbff5fe72a8f927dc982315de1185508452440b2012102ddab958e790dbe9c07ff31836143f02c2f99d784c5229ec795386ab34ffc7012", "asm": "3044022015c60a6e6eec812fe5ddfb55df876bf69292a17a70b89cabad29784f542a5940022070a87f8f575991f81ed19a61dbff5fe72a8f927dc982315de1185508452440b2[ALL] 02ddab958e790dbe9c07ff31836143f02c2f99d784c5229ec795386ab34ffc7012"}, "vout": 0, "txid": "6b2db6072bd6774f67d2c8624f41a4381d0e0d00db6614a8a89b899d0e3a7df3"}], "txid": "1b0993e6f3eae0bc7f5a1130fafd4767e0dd7b8aaa0f6f9544ed89e5e428b156", "blocktime": 1537869901, "version": 1, "confirmations": 11522, "time": 1537869901, "locktime": 542987, "vsize": 256, "size": 256}