{"hash": "1b0bdf22ad6ae3bbece110f2ac462744e797a8bd23977152feeb8e91635f6435", "blockhash": "0000000000000000000e13cef7c366c0283d82e591d1acd082e914b08063cdf1", "vout": [{"scriptPubKey": {"reqSigs": 1, "hex": "76a914628a073fe8ce7a239e56a9158ebd5d291a8bc0d988ac", "addresses": ["19z2aBA5FYQm9bK1Q5UW5u7bJWHbZZ4Z5E"], "asm": "OP_DUP OP_HASH160 628a073fe8ce7a239e56a9158ebd5d291a8bc0d9 OP_EQUALVERIFY OP_CHECKSIG", "type": "pubkeyhash"}, "value": 0.04, "n": 0}], "hex": "010000000e9bce74682b6719e82cf3938323b8155d82e7bc387d099e20b8ea549c3593c2df010000006b483045022100a40370efd334235c00c20d370730f5b97b980baf15587a4cadeea9e3144a551a022023768e206ed9d26509834f05a30ecab3eca6ac0be69e12d5efda1042395c71ed0121033b4624458ae82eba784560041754a8736518e0f3c45f14dc8aefd11016c36649feffffff476ff1943eebff3cf7902ac0f490a0969fa4d30384b4e33d96ac71754c82f455000000006a47304402201cfc747468a36b2241b0985f9cccfc43919d8887e698698a57d86ae4e9cd970d02200d4303b0f722885caa0678ed12d0d7c66e483f955d65c9eea17273cd65b40d100121030e1d088aa4ccd576a34dc090fb01f19d7d26dd085050977cee468ad46dec929cfeffffff5704ce5089b9d224dea091eb6ea7d6703f4004c90ef08f204acd20b767fdb6f3020000006b483045022100bb6e99656bf520b8a0a97fcd38cf21d99f22d9519c92ab145641158add55c03d0220241862d451f756d42c166b29dbc48c31e1a7b124543d7819510e8ce578530711012102dab55e05c4fc1f90fd5e83f8e623f8cee7aae9fcf4a341eedb8234a388e85bd0feffffff786050d46b9d3209439225d5582849c2705ac6866a946090b36590c67e00fa28000000006b483045022100943c88866be9dbe8ad710ae34f56cb3489a7d6c5dfa68a712261637a60ee0535022020076665db6860fba54d57a57318af21324abcb0dd546bef70a37cfb8864508001210204ea582b2eeb67fcae78042bea30654a624fea8a135a6f67b9e8e7148fee4b61feffffffd72444bab09aceb402c81bf890f8dd48c0ad49911a33cbbad85e30d6a853929d020000006b483045022100f0e9982a31fd5b9892c7be6a0c618566834738b25b867448824ef5f687cee6c902203ef39581860bc65ecd4cac5476e7f68a6eb6051b8ef6607fae535054d9c88566012102c3d1dcccd00276ca635f16af61f8c0a3120338ac9380343f7f8c806f0bbe2d65fefffffff1aaac4abb4f14285cc3f7a1fd1df0f3690ee807f583593047030f9bcc2978e6010000006b4830450221009591a70ea51d2550bc832fe6e41cff5990ba2ae43b04fa80ce39bcb835e26e95022064eb36f21eb71557f7650f576f1967bdf0c3635f484b4f3b9f203f505bd7074f0121026dd999b83bd7f4bb64705a04d4ee95ae5119755c77392154d8a36447f93b85c3feffffff4e26f9abe40b842a3f4990039fb7f376c13ed473f9dbdf2dae8d236482c81cd3010000006a47304402204944df24e7bdad9aac298cd28d8d12f4e45b7b96f8c32714c90b182cb1276fbc022054c920e5f9a60f5c819b2c30d5bc883f585027b66bb5ab9ac138c69ce6db5a4e012103d5cee625398f8a02f12a28fdbef8b4ec703b1eea256272a5ef0fd8098e6509a7feffffff2fe691387ccc8d98aaf040560e6fcd42b3795501a626de13534af347d9d90d40010000006b483045022100b3d2b6ee92eadd984c9bd59d8e2a803584ae214189c25afc400b3e097df7df51022020b7bcf9539af9de79a9126392ea1c0547014510be788aab655194a8ac7f3a5501210371b0cca91121e4448cbe994a9bb5a1df6c136219d074b426d9797a49661e6e51feffffff96cd2a275b18b82ce634103276955ad913977e14c7d8661ed9422937ea11beb8010000006b483045022100aa7852693170903e8c1c539de8f3a2157d86d69a967788b8c59dc04b816a538f0220782e61dc5dedf4b9d548ff28508a9c77ec587c5fb80088e7a9ed591ed9a24115012103e2c8bec60177efc2c94baf4fa8791bb74836110c3bdea962afc960bfac696dbffeffffffcd76a32008b265bd73aa531e5b14c4f46b83b74f844ec25b8f87972c1a5b35bb010000006a473044022074831b50953822ab7fcb6b39ec7e20dc4b2816ecf33dab0ffcf7fe2ce91f89ae0220435c349d2528ba0fa51aebcf75f87693689da0b665fb1bdeb0c5941fb0aac86c012102eff3f37bd4cd8d3aac49315db56c25d6d097499b7317b80495830e0066875a43feffffff070cc69ae71f2b35b90916fc265d58c2fdcf15f0069e3c1ec5201f5d6594dad9010000006b483045022100c1ef59275bd1c4b8f7212d93f35ae79e36753afe5debf323cd06d003fc891f2702204fe4f383f8c62a357b6171301b51b33a661e80a7fc4ab5ed9910642f9e7c62ac0121028da8cabf5fc968194cce582b93db6cd8418f9125fce7f80d7b177e8784a2e264feffffff0274e2a84a6c3d753fa85a2776c7e1931638b2ff98de1efbeab54bbaa0c705cb000000006a47304402202bcb5e5a57be4751f2743370dc8f0ba7e33e195de7a3e54ee9d5c738dd5867ac022075749ca47d170403e9357da8e8d4d95a5bf9071767b613fa45060634361b4e3701210320ca9d3f94dae7ee99fde240639bc0baf675debb427215e67279cfd33171eba7feffffffbb8f73d22fbf8e07611a633b6146a80083de048745d1b073f80b22c00bdce9bd010000006b483045022100841acfa57777aa496abc267ae615c733743004e00dfd947bd2b80c7fff7cea780220117f192fb60af1cdca4cd33009ba4298eed1fce37c1bb63af380f59fe61df21801210290c17a2b0d240107e84a1112d07806e6177726df09ba00592e124e2f50d92229feffffffec46a354d4b93f1e36d3908fd78b1e834b984a6065afedda084e55205072252f020000006b483045022100f482c439166825a3223355d3e56685d33d8c5ca1fe7e5dc9ec7d1fa5c2e1de3d02200ea783c692c25716b13e08ccb9d739c14461f74be2008e8c96bdd79c14284984012103cff838e32d8936f7d1d0cd47fc66dba4d96710fdc08d0ee795c9f76233b0ebcffeffffff0100093d00000000001976a914628a073fe8ce7a239e56a9158ebd5d291a8bc0d988ac10490800", "vin": [{"sequence": 4294967294, "scriptSig": {"hex": "483045022100a40370efd334235c00c20d370730f5b97b980baf15587a4cadeea9e3144a551a022023768e206ed9d26509834f05a30ecab3eca6ac0be69e12d5efda1042395c71ed0121033b4624458ae82eba784560041754a8736518e0f3c45f14dc8aefd11016c36649", "asm": "3045022100a40370efd334235c00c20d370730f5b97b980baf15587a4cadeea9e3144a551a022023768e206ed9d26509834f05a30ecab3eca6ac0be69e12d5efda1042395c71ed[ALL] 033b4624458ae82eba784560041754a8736518e0f3c45f14dc8aefd11016c36649"}, "vout": 1, "txid": "dfc293359c54eab8209e097d38bce7825d15b8238393f32ce819672b6874ce9b"}, {"sequence": 4294967294, "scriptSig": {"hex": "47304402201cfc747468a36b2241b0985f9cccfc43919d8887e698698a57d86ae4e9cd970d02200d4303b0f722885caa0678ed12d0d7c66e483f955d65c9eea17273cd65b40d100121030e1d088aa4ccd576a34dc090fb01f19d7d26dd085050977cee468ad46dec929c", "asm": "304402201cfc747468a36b2241b0985f9cccfc43919d8887e698698a57d86ae4e9cd970d02200d4303b0f722885caa0678ed12d0d7c66e483f955d65c9eea17273cd65b40d10[ALL] 030e1d088aa4ccd576a34dc090fb01f19d7d26dd085050977cee468ad46dec929c"}, "vout": 0, "txid": "55f4824c7571ac963de3b48403d3a49f96a090f4c02a90f73cffeb3e94f16f47"}, {"sequence": 4294967294, "scriptSig": {"hex": "483045022100bb6e99656bf520b8a0a97fcd38cf21d99f22d9519c92ab145641158add55c03d0220241862d451f756d42c166b29dbc48c31e1a7b124543d7819510e8ce578530711012102dab55e05c4fc1f90fd5e83f8e623f8cee7aae9fcf4a341eedb8234a388e85bd0", "asm": "3045022100bb6e99656bf520b8a0a97fcd38cf21d99f22d9519c92ab145641158add55c03d0220241862d451f756d42c166b29dbc48c31e1a7b124543d7819510e8ce578530711[ALL] 02dab55e05c4fc1f90fd5e83f8e623f8cee7aae9fcf4a341eedb8234a388e85bd0"}, "vout": 2, "txid": "f3b6fd67b720cd4a208ff00ec904403f70d6a76eeb91a0de24d2b98950ce0457"}, {"sequence": 4294967294, "scriptSig": {"hex": "483045022100943c88866be9dbe8ad710ae34f56cb3489a7d6c5dfa68a712261637a60ee0535022020076665db6860fba54d57a57318af21324abcb0dd546bef70a37cfb8864508001210204ea582b2eeb67fcae78042bea30654a624fea8a135a6f67b9e8e7148fee4b61", "asm": "3045022100943c88866be9dbe8ad710ae34f56cb3489a7d6c5dfa68a712261637a60ee0535022020076665db6860fba54d57a57318af21324abcb0dd546bef70a37cfb88645080[ALL] 0204ea582b2eeb67fcae78042bea30654a624fea8a135a6f67b9e8e7148fee4b61"}, "vout": 0, "txid": "28fa007ec69065b39060946a86c65a70c2492858d525924309329d6bd4506078"}, {"sequence": 4294967294, "scriptSig": {"hex": "483045022100f0e9982a31fd5b9892c7be6a0c618566834738b25b867448824ef5f687cee6c902203ef39581860bc65ecd4cac5476e7f68a6eb6051b8ef6607fae535054d9c88566012102c3d1dcccd00276ca635f16af61f8c0a3120338ac9380343f7f8c806f0bbe2d65", "asm": "3045022100f0e9982a31fd5b9892c7be6a0c618566834738b25b867448824ef5f687cee6c902203ef39581860bc65ecd4cac5476e7f68a6eb6051b8ef6607fae535054d9c88566[ALL] 02c3d1dcccd00276ca635f16af61f8c0a3120338ac9380343f7f8c806f0bbe2d65"}, "vout": 2, "txid": "9d9253a8d6305ed8bacb331a9149adc048ddf890f81bc802b4ce9ab0ba4424d7"}, {"sequence": 4294967294, "scriptSig": {"hex": "4830450221009591a70ea51d2550bc832fe6e41cff5990ba2ae43b04fa80ce39bcb835e26e95022064eb36f21eb71557f7650f576f1967bdf0c3635f484b4f3b9f203f505bd7074f0121026dd999b83bd7f4bb64705a04d4ee95ae5119755c77392154d8a36447f93b85c3", "asm": "30450221009591a70ea51d2550bc832fe6e41cff5990ba2ae43b04fa80ce39bcb835e26e95022064eb36f21eb71557f7650f576f1967bdf0c3635f484b4f3b9f203f505bd7074f[ALL] 026dd999b83bd7f4bb64705a04d4ee95ae5119755c77392154d8a36447f93b85c3"}, "vout": 1, "txid": "e67829cc9b0f0347305983f507e80e69f3f01dfda1f7c35c28144fbb4aacaaf1"}, {"sequence": 4294967294, "scriptSig": {"hex": "47304402204944df24e7bdad9aac298cd28d8d12f4e45b7b96f8c32714c90b182cb1276fbc022054c920e5f9a60f5c819b2c30d5bc883f585027b66bb5ab9ac138c69ce6db5a4e012103d5cee625398f8a02f12a28fdbef8b4ec703b1eea256272a5ef0fd8098e6509a7", "asm": "304402204944df24e7bdad9aac298cd28d8d12f4e45b7b96f8c32714c90b182cb1276fbc022054c920e5f9a60f5c819b2c30d5bc883f585027b66bb5ab9ac138c69ce6db5a4e[ALL] 03d5cee625398f8a02f12a28fdbef8b4ec703b1eea256272a5ef0fd8098e6509a7"}, "vout": 1, "txid": "d31cc88264238dae2ddfdbf973d43ec176f3b79f0390493f2a840be4abf9264e"}, {"sequence": 4294967294, "scriptSig": {"hex": "483045022100b3d2b6ee92eadd984c9bd59d8e2a803584ae214189c25afc400b3e097df7df51022020b7bcf9539af9de79a9126392ea1c0547014510be788aab655194a8ac7f3a5501210371b0cca91121e4448cbe994a9bb5a1df6c136219d074b426d9797a49661e6e51", "asm": "3045022100b3d2b6ee92eadd984c9bd59d8e2a803584ae214189c25afc400b3e097df7df51022020b7bcf9539af9de79a9126392ea1c0547014510be788aab655194a8ac7f3a55[ALL] 0371b0cca91121e4448cbe994a9bb5a1df6c136219d074b426d9797a49661e6e51"}, "vout": 1, "txid": "400dd9d947f34a5313de26a6015579b342cd6f0e5640f0aa988dcc7c3891e62f"}, {"sequence": 4294967294, "scriptSig": {"hex": "483045022100aa7852693170903e8c1c539de8f3a2157d86d69a967788b8c59dc04b816a538f0220782e61dc5dedf4b9d548ff28508a9c77ec587c5fb80088e7a9ed591ed9a24115012103e2c8bec60177efc2c94baf4fa8791bb74836110c3bdea962afc960bfac696dbf", "asm": "3045022100aa7852693170903e8c1c539de8f3a2157d86d69a967788b8c59dc04b816a538f0220782e61dc5dedf4b9d548ff28508a9c77ec587c5fb80088e7a9ed591ed9a24115[ALL] 03e2c8bec60177efc2c94baf4fa8791bb74836110c3bdea962afc960bfac696dbf"}, "vout": 1, "txid": "b8be11ea372942d91e66d8c7147e9713d95a9576321034e62cb8185b272acd96"}, {"sequence": 4294967294, "scriptSig": {"hex": "473044022074831b50953822ab7fcb6b39ec7e20dc4b2816ecf33dab0ffcf7fe2ce91f89ae0220435c349d2528ba0fa51aebcf75f87693689da0b665fb1bdeb0c5941fb0aac86c012102eff3f37bd4cd8d3aac49315db56c25d6d097499b7317b80495830e0066875a43", "asm": "3044022074831b50953822ab7fcb6b39ec7e20dc4b2816ecf33dab0ffcf7fe2ce91f89ae0220435c349d2528ba0fa51aebcf75f87693689da0b665fb1bdeb0c5941fb0aac86c[ALL] 02eff3f37bd4cd8d3aac49315db56c25d6d097499b7317b80495830e0066875a43"}, "vout": 1, "txid": "bb355b1a2c97878f5bc24e844fb7836bf4c4145b1e53aa73bd65b20820a376cd"}, {"sequence": 4294967294, "scriptSig": {"hex": "483045022100c1ef59275bd1c4b8f7212d93f35ae79e36753afe5debf323cd06d003fc891f2702204fe4f383f8c62a357b6171301b51b33a661e80a7fc4ab5ed9910642f9e7c62ac0121028da8cabf5fc968194cce582b93db6cd8418f9125fce7f80d7b177e8784a2e264", "asm": "3045022100c1ef59275bd1c4b8f7212d93f35ae79e36753afe5debf323cd06d003fc891f2702204fe4f383f8c62a357b6171301b51b33a661e80a7fc4ab5ed9910642f9e7c62ac[ALL] 028da8cabf5fc968194cce582b93db6cd8418f9125fce7f80d7b177e8784a2e264"}, "vout": 1, "txid": "d9da94655d1f20c51e3c9e06f015cffdc2585d26fc1609b9352b1fe79ac60c07"}, {"sequence": 4294967294, "scriptSig": {"hex": "47304402202bcb5e5a57be4751f2743370dc8f0ba7e33e195de7a3e54ee9d5c738dd5867ac022075749ca47d170403e9357da8e8d4d95a5bf9071767b613fa45060634361b4e3701210320ca9d3f94dae7ee99fde240639bc0baf675debb427215e67279cfd33171eba7", "asm": "304402202bcb5e5a57be4751f2743370dc8f0ba7e33e195de7a3e54ee9d5c738dd5867ac022075749ca47d170403e9357da8e8d4d95a5bf9071767b613fa45060634361b4e37[ALL] 0320ca9d3f94dae7ee99fde240639bc0baf675debb427215e67279cfd33171eba7"}, "vout": 0, "txid": "cb05c7a0ba4bb5eafb1ede98ffb2381693e1c776275aa83f753d6c4aa8e27402"}, {"sequence": 4294967294, "scriptSig": {"hex": "483045022100841acfa57777aa496abc267ae615c733743004e00dfd947bd2b80c7fff7cea780220117f192fb60af1cdca4cd33009ba4298eed1fce37c1bb63af380f59fe61df21801210290c17a2b0d240107e84a1112d07806e6177726df09ba00592e124e2f50d92229", "asm": "3045022100841acfa57777aa496abc267ae615c733743004e00dfd947bd2b80c7fff7cea780220117f192fb60af1cdca4cd33009ba4298eed1fce37c1bb63af380f59fe61df218[ALL] 0290c17a2b0d240107e84a1112d07806e6177726df09ba00592e124e2f50d92229"}, "vout": 1, "txid": "bde9dc0bc0220bf873b0d1458704de8300a846613b631a61078ebf2fd2738fbb"}, {"sequence": 4294967294, "scriptSig": {"hex": "483045022100f482c439166825a3223355d3e56685d33d8c5ca1fe7e5dc9ec7d1fa5c2e1de3d02200ea783c692c25716b13e08ccb9d739c14461f74be2008e8c96bdd79c14284984012103cff838e32d8936f7d1d0cd47fc66dba4d96710fdc08d0ee795c9f76233b0ebcf", "asm": "3045022100f482c439166825a3223355d3e56685d33d8c5ca1fe7e5dc9ec7d1fa5c2e1de3d02200ea783c692c25716b13e08ccb9d739c14461f74be2008e8c96bdd79c14284984[ALL] 03cff838e32d8936f7d1d0cd47fc66dba4d96710fdc08d0ee795c9f76233b0ebcf"}, "vout": 2, "txid": "2f25725020554e08daedaf65604a984b831e8bd78f90d3361e3fb9d454a346ec"}], "txid": "1b0bdf22ad6ae3bbece110f2ac462744e797a8bd23977152feeb8e91635f6435", "blocktime": 1537871767, "version": 1, "confirmations": 11495, "time": 1537871767, "locktime": 542992, "vsize": 2112, "size": 2112}