{"hash": "1b0ce2ebb38ad56fb3c8e5d94f47ca369db151cfe1e3c0aa8f26f35cc796b8ad", "blockhash": "0000000000000000001cda96e906b7601b7a6fb1a3b62bca570a9e5d8f4b3de1", "vout": [{"scriptPubKey": {"reqSigs": 1, "hex": "76a91435bc7427b94d46d64c007cf334bb072daebe805788ac", "addresses": ["15u8aAPK4jJ5N8wpWJ5gutAyyeHtKX5i18"], "asm": "OP_DUP OP_HASH160 35bc7427b94d46d64c007cf334bb072daebe8057 OP_EQUALVERIFY OP_CHECKSIG", "type": "pubkeyhash"}, "value": 7e-05, "n": 0}], "hex": "0100000001953176b60d679179fac7ee4691dc5777e39841ed7378b3aabe59f427880890f0010000006a4730440220296be74760e28c4bc51137e9a7e0c3cfff1ad027ee5218d308bb8cedf29fdfe702202722a5c70bf1ef49b9328dc5106311b0929529dea7e80f238f9fe25867bd53490121032a8cddb256a9e4a50b4b75ca4050be0760f7e64b523fec220fe3519e235fd850ffffffff01581b0000000000001976a91435bc7427b94d46d64c007cf334bb072daebe805788ac00000000", "vin": [{"sequence": 4294967295, "scriptSig": {"hex": "4730440220296be74760e28c4bc51137e9a7e0c3cfff1ad027ee5218d308bb8cedf29fdfe702202722a5c70bf1ef49b9328dc5106311b0929529dea7e80f238f9fe25867bd53490121032a8cddb256a9e4a50b4b75ca4050be0760f7e64b523fec220fe3519e235fd850", "asm": "30440220296be74760e28c4bc51137e9a7e0c3cfff1ad027ee5218d308bb8cedf29fdfe702202722a5c70bf1ef49b9328dc5106311b0929529dea7e80f238f9fe25867bd5349[ALL] 032a8cddb256a9e4a50b4b75ca4050be0760f7e64b523fec220fe3519e235fd850"}, "vout": 1, "txid": "f090088827f459beaab37873ed4198e37757dc9146eec7fa7991670db6763195"}], "txid": "1b0ce2ebb38ad56fb3c8e5d94f47ca369db151cfe1e3c0aa8f26f35cc796b8ad", "blocktime": 1537873282, "version": 1, "confirmations": 11482, "time": 1537873282, "locktime": 0, "vsize": 191, "size": 191}