{"hash": "1f2ef8e53cd260c05ab949d16d42c25a410a789f8ceb8a43207cea902fa25a77", "blockhash": "00000000000000000017f5eb5941039fbcee6240d03bc1f2f8e35350df66a1d8", "vout": [{"scriptPubKey": {"reqSigs": 1, "hex": "76a9145c5226ee5900bb18f450db81f4a4fdd44133d97d88ac", "addresses": ["19R9ag8LoFQt7rTw7D8urxYdxRqQMvQZ2n"], "asm": "OP_DUP OP_HASH160 5c5226ee5900bb18f450db81f4a4fdd44133d97d OP_EQUALVERIFY OP_CHECKSIG", "type": "pubkeyhash"}, "value": 0.001, "n": 0}, {"scriptPubKey": {"reqSigs": 1, "hex": "a9142fdcae653de372f51631c7f8d05f3fbeeb3dd8fe87", "addresses": ["36463m4xhi7WZbNuXJtRgwyhUhq9aaAvTD"], "asm": "OP_HASH160 2fdcae653de372f51631c7f8d05f3fbeeb3dd8fe OP_EQUAL", "type": "scripthash"}, "value": 0.00293934, "n": 1}], "hex": "01000000000101e0fc712e32fa2fd9d1dce90144cdadb4badc9be369d92e6cd13512ca6127759f000000002322002044d4023023e3e42d54d2ff800c09f62db12edcd056f86b71ffbc1357dabd192bffffffff02a0860100000000001976a9145c5226ee5900bb18f450db81f4a4fdd44133d97d88ac2e7c04000000000017a9142fdcae653de372f51631c7f8d05f3fbeeb3dd8fe87040047304402203d2e4875b5ff256e8c16fbe2fad7d6e1e1f1c70adccacfa544e073e60c6833aa02203a3c5fd636b0a9ea782e0fcc05c098b781ce1916e3aa6ceff3f4a066d1bc6c4f01483045022100dcaa799320e04fa710691f39fc60f67d5244fb33ebde3f91a126fb5cb1306a90022002848d8feeeebfde3deb7aaeceb088ad6225868db1fb07adcb8f50a0b4987bd80169522103205f4f6761abed982929e01759695ede87351252faf0b33e609d0778c9819eec21032b07eafcf9b8cd1cc21444fd8d4884104cf5deb9f03e10011901422842f0835d2103b3b0d42446b7922b5c31f053bb01f054cd3374de428af5c0a83413db9500b4d853ae00000000", "vin": [{"txinwitness": ["", "304402203d2e4875b5ff256e8c16fbe2fad7d6e1e1f1c70adccacfa544e073e60c6833aa02203a3c5fd636b0a9ea782e0fcc05c098b781ce1916e3aa6ceff3f4a066d1bc6c4f01", "3045022100dcaa799320e04fa710691f39fc60f67d5244fb33ebde3f91a126fb5cb1306a90022002848d8feeeebfde3deb7aaeceb088ad6225868db1fb07adcb8f50a0b4987bd801", "522103205f4f6761abed982929e01759695ede87351252faf0b33e609d0778c9819eec21032b07eafcf9b8cd1cc21444fd8d4884104cf5deb9f03e10011901422842f0835d2103b3b0d42446b7922b5c31f053bb01f054cd3374de428af5c0a83413db9500b4d853ae"], "sequence": 4294967295, "scriptSig": {"hex": "22002044d4023023e3e42d54d2ff800c09f62db12edcd056f86b71ffbc1357dabd192b", "asm": "002044d4023023e3e42d54d2ff800c09f62db12edcd056f86b71ffbc1357dabd192b"}, "vout": 0, "txid": "9f752761ca1235d16c2ed969e39bdcbab4adcd4401e9dcd1d92ffa322e71fce0"}], "txid": "1b10bf4f5b5031d83369c7c6b534293e5755da6665c868c2588ffa425efd0703", "blocktime": 1537874412, "version": 1, "confirmations": 11467, "time": 1537874412, "locktime": 0, "vsize": 216, "size": 407}