{"hash": "1f03717287d006d34c8619c4c3b5938b88c337693c945f69e94eb95a6cb98dc2", "blockhash": "00000000000000000017f5eb5941039fbcee6240d03bc1f2f8e35350df66a1d8", "vout": [{"scriptPubKey": {"reqSigs": 1, "hex": "a914c8948f84ab8bc2187580e4fb86ecf2a0a06e11cf87", "addresses": ["3Kyb35jwJ7YCiAF7JRfW5VZdpyywKap5YB"], "asm": "OP_HASH160 c8948f84ab8bc2187580e4fb86ecf2a0a06e11cf OP_EQUAL", "type": "scripthash"}, "value": 4.059e-05, "n": 0}, {"scriptPubKey": {"reqSigs": 1, "hex": "a9141d7370ccde4590204155e4074f69743a8e4fac0287", "addresses": ["34Njp4ZKtmCDfqqps26wHBYQQGUo2pGkLi"], "asm": "OP_HASH160 1d7370ccde4590204155e4074f69743a8e4fac02 OP_EQUAL", "type": "scripthash"}, "value": 0.00094897, "n": 1}], "hex": "01000000000101609a4d81352e6618099b41491c82c74954d3c1031185091ef5efe1485d4f2b720000000023220020f63dfc12340f6360d0251c22746d6b56093e3243e96ca012a65484a5d9cf0ec0ffffffff02db0f00000000000017a914c8948f84ab8bc2187580e4fb86ecf2a0a06e11cf87b17201000000000017a9141d7370ccde4590204155e4074f69743a8e4fac02870400483045022100ec661d5087a7410f430ce18cdf9fb6a42a9353edddb488ce95070cf12d33ad5d022015b951de295e0f267a46e22ed14375393514823d8bac7510ba2a2fe1f38b763801483045022100d0716183e64b5ebf56599fe6ef4cbfbe4ef7bc4a1806a0451fde21f44b42dc4d02203aee5783595604c9a8391d0c1539d7bcac507d98e64bcfdc34cbbfcec580c20a0147522102097067a6a0cc130a9a6f6577b47bf369b840a79de31cd7457187994266b1bb7c2103338f346cab6ba87fe940591a03ac234be06520c5ab386d4b6632e8eef0d0db7652ae00000000", "vin": [{"txinwitness": ["", "3045022100ec661d5087a7410f430ce18cdf9fb6a42a9353edddb488ce95070cf12d33ad5d022015b951de295e0f267a46e22ed14375393514823d8bac7510ba2a2fe1f38b763801", "3045022100d0716183e64b5ebf56599fe6ef4cbfbe4ef7bc4a1806a0451fde21f44b42dc4d02203aee5783595604c9a8391d0c1539d7bcac507d98e64bcfdc34cbbfcec580c20a01", "522102097067a6a0cc130a9a6f6577b47bf369b840a79de31cd7457187994266b1bb7c2103338f346cab6ba87fe940591a03ac234be06520c5ab386d4b6632e8eef0d0db7652ae"], "sequence": 4294967295, "scriptSig": {"hex": "220020f63dfc12340f6360d0251c22746d6b56093e3243e96ca012a65484a5d9cf0ec0", "asm": "0020f63dfc12340f6360d0251c22746d6b56093e3243e96ca012a65484a5d9cf0ec0"}, "vout": 0, "txid": "722b4f5d48e1eff51e09851103c1d35449c7821c49419b0918662e35814d9a60"}], "txid": "1b116bce599cfe43d056115ecd4d8f3a878ae1980a81a31e3f3317314fe55278", "blocktime": 1537874412, "version": 1, "confirmations": 11468, "time": 1537874412, "locktime": 0, "vsize": 206, "size": 372}