{"hash": "1b189005bb2a2c705c359b0d119fc39d05c715887c3dc756e22018bf45b0fedc", "blockhash": "00000000000000000017f5eb5941039fbcee6240d03bc1f2f8e35350df66a1d8", "vout": [{"scriptPubKey": {"type": "nulldata", "hex": "6a146f6d6e69000000000000001f000003b540230200", "asm": "OP_RETURN 6f6d6e69000000000000001f000003b540230200"}, "value": 0.0, "n": 0}, {"scriptPubKey": {"reqSigs": 1, "hex": "76a914a25dec4d0011064ef106a983c39c7a540699f22088ac", "addresses": ["1FoWyxwPXuj4C6abqwhjDWdz6D4PZgYRjA"], "asm": "OP_DUP OP_HASH160 a25dec4d0011064ef106a983c39c7a540699f220 OP_EQUALVERIFY OP_CHECKSIG", "type": "pubkeyhash"}, "value": 5.46e-06, "n": 1}, {"scriptPubKey": {"reqSigs": 1, "hex": "76a91489586d13d7d3b6a9b6bd5d0522415d67f118f75a88ac", "addresses": ["1DXDWEW8RuPajCenvrzCQKEvNDqtboTZiv"], "asm": "OP_DUP OP_HASH160 89586d13d7d3b6a9b6bd5d0522415d67f118f75a OP_EQUALVERIFY OP_CHECKSIG", "type": "pubkeyhash"}, "value": 0.00455013, "n": 2}], "hex": "0100000011137abb9c7cdf863e37f5336f4456d65ac111d92db00d89f4cd89bfbf19f43ffc020000006a47304402201a97b57d70b5f43079b7303a6a29577ca217097743950dbfafbb535c4b4d4ea602200ec65b61538a04b3ba30dc11b3168a252cf9952ea98768fd80fb7cdde5194e9101210231ee5a5f7c0374820176d90ba35d600f5c96f853b43a6e2259f8e8b0f0917a6afeffffff150ce0700817d1259665f462e636e4ab80a12068f2f2cce85953c699b955e0bd020000006a47304402207ca7bc2240b70343772f708844b75f1db9c4e333de69fdc3d3f08d8ebbf3768902205a656f92a4067f851304eea138091c6c61af7c2d68de032bd89687c7a72162dd01210231ee5a5f7c0374820176d90ba35d600f5c96f853b43a6e2259f8e8b0f0917a6afeffffff1780b344a3e228b83e0a614272ea16250fa4907aff0e37e551ff1ea145598db6020000006a47304402204ed8307fd553007a155d2329f1df0ee992a825d8773961c048956e7dfe472abd02203c179e0207f465aecfb54e442b12438f8718240038dca6ad8c229f4b5047da7601210231ee5a5f7c0374820176d90ba35d600f5c96f853b43a6e2259f8e8b0f0917a6afeffffff186f1e0c8790152d1bdff8f31eed84c887590f7d15133d74cba16719c94cf6b2010000006b483045022100d91e6ff8478ceb16690dbe23cc6c0bfedc71525c98ee00b0b6bbd015bdd8811f02204ae9a861802c18d96bb945858c246b9cf6b01d9e97b9a04b9546dbd017e36a4b01210231ee5a5f7c0374820176d90ba35d600f5c96f853b43a6e2259f8e8b0f0917a6afeffffff1f204ce2f5899b72f2daef3a16a9345aa05ed686fe92560043f37ff1ac77243e020000006b483045022100d871d552b0c49bdbeb1018fcbddd3edbf8a266fa0f222f4662c012abafaefaa1022071e5d8f93d4d30ff2b796462b060a4cafeb2d9ca612209f84679b809b550d1ee01210231ee5a5f7c0374820176d90ba35d600f5c96f853b43a6e2259f8e8b0f0917a6afeffffff29bd4fc055b634961eb0b73c3adfee11a98f0d7e09416f57c8e12a248a59d155020000006a4730440220141c0e56c4bd2564524e1d4d68c859626d9fe8b65b2d4cccd7e99f2a6dd0bb9902204fe9ef28919471a37984ba8c9787c948981dabd0c1b6aadd8794a4c503a1add301210231ee5a5f7c0374820176d90ba35d600f5c96f853b43a6e2259f8e8b0f0917a6afeffffff2a566fa90bd8591cc23f295b40a5b5693b29834fa9778ac423119c1959f523ec020000006a473044022005cb365eee21914076343387dd15260844d3002420d332be6dbea20a0039553102202689805b33c316660d83bf2134d4126e349524e95139ec010a6a03fe5f8c6c0d01210231ee5a5f7c0374820176d90ba35d600f5c96f853b43a6e2259f8e8b0f0917a6afeffffff2ecdaf661384e932d729b23610e629eb43a98a60a665891823de23cc3c7734de020000006a4730440220791387b9326158e6322594834b7e1aa2ebb69d3f7a25eeb07328680ed4e64ae902203508109208b926b257a693906da5c8b88c262f40c79790e55ebb7d123c3b613a01210231ee5a5f7c0374820176d90ba35d600f5c96f853b43a6e2259f8e8b0f0917a6afeffffff4a4cd626072e7dfb5641e7f1627846e5c375132a5ee3894f2d8d6f99ac81bf7e020000006a47304402201d73482dbe374bb390c4c70151bfa88500d2312e72e21f06b80c475b2ae65d40022043231c73853d12ac8c8dc004b706a271368c0fe485bda4ed27fa6f259b4b81dc01210231ee5a5f7c0374820176d90ba35d600f5c96f853b43a6e2259f8e8b0f0917a6afeffffff4c5dc22c5f529c6649bd80fea6cf2f5cf141b312f349fddb053fa56e9fd45a0c010000006b4830450221009181b81fa241ad7ac859d515795ec760aed743702c290fdc6b40ec96a9ea8ef6022074b6520929eda46d99bb2b228e7df6c2cc95d46d374cf427fb05db02f04526e801210231ee5a5f7c0374820176d90ba35d600f5c96f853b43a6e2259f8e8b0f0917a6afeffffff525daa377d470ba153c29963f00c38bd24d58e6608848570e9cb6c59cf668316020000006a473044022067ff5c96684661b5a760d6ccf213cea1c45b4e9eb786d2830060eadde03636780220504497f527216d915148cfd799d94d9e1c4974a153b39eadfc6fc4fcb80dfa0201210231ee5a5f7c0374820176d90ba35d600f5c96f853b43a6e2259f8e8b0f0917a6afeffffff6f51fcb79cf5971e29700e68009ceef712260740db40dbc86a48d1b98347d272020000006b483045022100a4fcf7a5517b664d7594a176a54944e14e0301d85a7ae8f552f1d36851bb6a8d02205012b11ec13576a8a300485b30d92344439116eab0b14a7004b95b4acfdfb0b501210231ee5a5f7c0374820176d90ba35d600f5c96f853b43a6e2259f8e8b0f0917a6afeffffff7102f570e299e80161b6aac52da8c9d9aadc7c7f519b9c83fd0758729cb21b6e020000006b483045022100e6ea1659d1afa3d2719ad7e8caee7bb1e7935385b233f776a742f518da01b9ba02202c22cdb2eef4ae04a077fb08828325d1c5a202af82026459b8b87f5c1c12698a01210231ee5a5f7c0374820176d90ba35d600f5c96f853b43a6e2259f8e8b0f0917a6afeffffff7b3b3cfb496f7a58fadfbf34f03e8ffc73bd02b1b4e67d5cde6d05fc545647f5010000006b4830450221008417483a33674a9cb904414b273f1552a2164a8ab073e571c857f310b566b5b6022057458da34a52a08633eef8a60e946d92b5277f8791caf4e30e24b7fcbdb1248f01210231ee5a5f7c0374820176d90ba35d600f5c96f853b43a6e2259f8e8b0f0917a6afeffffff8547d5f5ed9afc347fbe8ddd2c732b08a7ccf73dac688b2ee0e430accc3ff405020000006a47304402200c215444c9553f209d18b08dc7e2f527ca0eee7a5de8c1b59345f61f765480530220144c59d47e44247f2f056dccb5e9e9ec4db8885b1e68a0ef4bca9702ba020d5201210231ee5a5f7c0374820176d90ba35d600f5c96f853b43a6e2259f8e8b0f0917a6afeffffff85a5292a749c97ebab8641e68136059f93f5f62e6138e1649184391be69ca735000000006b483045022100f47a536ae4a8931f8b322ec83037b1dd76db13932d4f4d938daa2a4ecb219e1902205b240bb4cde88e481346802329db180228ca3eff791d0004ed04f6f7a4ccc8eb01210231ee5a5f7c0374820176d90ba35d600f5c96f853b43a6e2259f8e8b0f0917a6afeffffff1a85d61a6ebf65b4eaecc9564e34c217b681bcc7ccc5970cc8f3e97c9fdfb26f010000006a47304402202516f558a402267d83c34535568a6c23afa07fcf905319146313fd688d9f29a00220347cbd181e7369e5c13f8140bf19437f5eec828b15913f9916ac8b4aff41a0b101210231ee5a5f7c0374820176d90ba35d600f5c96f853b43a6e2259f8e8b0f0917a6afeffffff030000000000000000166a146f6d6e69000000000000001f000003b54023020022020000000000001976a914a25dec4d0011064ef106a983c39c7a540699f22088ac65f10600000000001976a91489586d13d7d3b6a9b6bd5d0522415d67f118f75a88accb480800", "vin": [{"sequence": 4294967294, "scriptSig": {"hex": "47304402201a97b57d70b5f43079b7303a6a29577ca217097743950dbfafbb535c4b4d4ea602200ec65b61538a04b3ba30dc11b3168a252cf9952ea98768fd80fb7cdde5194e9101210231ee5a5f7c0374820176d90ba35d600f5c96f853b43a6e2259f8e8b0f0917a6a", "asm": "304402201a97b57d70b5f43079b7303a6a29577ca217097743950dbfafbb535c4b4d4ea602200ec65b61538a04b3ba30dc11b3168a252cf9952ea98768fd80fb7cdde5194e91[ALL] 0231ee5a5f7c0374820176d90ba35d600f5c96f853b43a6e2259f8e8b0f0917a6a"}, "vout": 2, "txid": "fc3ff419bfbf89cdf4890db02dd911c15ad656446f33f5373e86df7c9cbb7a13"}, {"sequence": 4294967294, "scriptSig": {"hex": "47304402207ca7bc2240b70343772f708844b75f1db9c4e333de69fdc3d3f08d8ebbf3768902205a656f92a4067f851304eea138091c6c61af7c2d68de032bd89687c7a72162dd01210231ee5a5f7c0374820176d90ba35d600f5c96f853b43a6e2259f8e8b0f0917a6a", "asm": "304402207ca7bc2240b70343772f708844b75f1db9c4e333de69fdc3d3f08d8ebbf3768902205a656f92a4067f851304eea138091c6c61af7c2d68de032bd89687c7a72162dd[ALL] 0231ee5a5f7c0374820176d90ba35d600f5c96f853b43a6e2259f8e8b0f0917a6a"}, "vout": 2, "txid": "bde055b999c65359e8ccf2f26820a180abe436e662f4659625d1170870e00c15"}, {"sequence": 4294967294, "scriptSig": {"hex": "47304402204ed8307fd553007a155d2329f1df0ee992a825d8773961c048956e7dfe472abd02203c179e0207f465aecfb54e442b12438f8718240038dca6ad8c229f4b5047da7601210231ee5a5f7c0374820176d90ba35d600f5c96f853b43a6e2259f8e8b0f0917a6a", "asm": "304402204ed8307fd553007a155d2329f1df0ee992a825d8773961c048956e7dfe472abd02203c179e0207f465aecfb54e442b12438f8718240038dca6ad8c229f4b5047da76[ALL] 0231ee5a5f7c0374820176d90ba35d600f5c96f853b43a6e2259f8e8b0f0917a6a"}, "vout": 2, "txid": "b68d5945a11eff51e5370eff7a90a40f2516ea7242610a3eb828e2a344b38017"}, {"sequence": 4294967294, "scriptSig": {"hex": "483045022100d91e6ff8478ceb16690dbe23cc6c0bfedc71525c98ee00b0b6bbd015bdd8811f02204ae9a861802c18d96bb945858c246b9cf6b01d9e97b9a04b9546dbd017e36a4b01210231ee5a5f7c0374820176d90ba35d600f5c96f853b43a6e2259f8e8b0f0917a6a", "asm": "3045022100d91e6ff8478ceb16690dbe23cc6c0bfedc71525c98ee00b0b6bbd015bdd8811f02204ae9a861802c18d96bb945858c246b9cf6b01d9e97b9a04b9546dbd017e36a4b[ALL] 0231ee5a5f7c0374820176d90ba35d600f5c96f853b43a6e2259f8e8b0f0917a6a"}, "vout": 1, "txid": "b2f64cc91967a1cb743d13157d0f5987c884ed1ef3f8df1b2d1590870c1e6f18"}, {"sequence": 4294967294, "scriptSig": {"hex": "483045022100d871d552b0c49bdbeb1018fcbddd3edbf8a266fa0f222f4662c012abafaefaa1022071e5d8f93d4d30ff2b796462b060a4cafeb2d9ca612209f84679b809b550d1ee01210231ee5a5f7c0374820176d90ba35d600f5c96f853b43a6e2259f8e8b0f0917a6a", "asm": "3045022100d871d552b0c49bdbeb1018fcbddd3edbf8a266fa0f222f4662c012abafaefaa1022071e5d8f93d4d30ff2b796462b060a4cafeb2d9ca612209f84679b809b550d1ee[ALL] 0231ee5a5f7c0374820176d90ba35d600f5c96f853b43a6e2259f8e8b0f0917a6a"}, "vout": 2, "txid": "3e2477acf17ff343005692fe86d65ea05a34a9163aefdaf2729b89f5e24c201f"}, {"sequence": 4294967294, "scriptSig": {"hex": "4730440220141c0e56c4bd2564524e1d4d68c859626d9fe8b65b2d4cccd7e99f2a6dd0bb9902204fe9ef28919471a37984ba8c9787c948981dabd0c1b6aadd8794a4c503a1add301210231ee5a5f7c0374820176d90ba35d600f5c96f853b43a6e2259f8e8b0f0917a6a", "asm": "30440220141c0e56c4bd2564524e1d4d68c859626d9fe8b65b2d4cccd7e99f2a6dd0bb9902204fe9ef28919471a37984ba8c9787c948981dabd0c1b6aadd8794a4c503a1add3[ALL] 0231ee5a5f7c0374820176d90ba35d600f5c96f853b43a6e2259f8e8b0f0917a6a"}, "vout": 2, "txid": "55d1598a242ae1c8576f41097e0d8fa911eedf3a3cb7b01e9634b655c04fbd29"}, {"sequence": 4294967294, "scriptSig": {"hex": "473044022005cb365eee21914076343387dd15260844d3002420d332be6dbea20a0039553102202689805b33c316660d83bf2134d4126e349524e95139ec010a6a03fe5f8c6c0d01210231ee5a5f7c0374820176d90ba35d600f5c96f853b43a6e2259f8e8b0f0917a6a", "asm": "3044022005cb365eee21914076343387dd15260844d3002420d332be6dbea20a0039553102202689805b33c316660d83bf2134d4126e349524e95139ec010a6a03fe5f8c6c0d[ALL] 0231ee5a5f7c0374820176d90ba35d600f5c96f853b43a6e2259f8e8b0f0917a6a"}, "vout": 2, "txid": "ec23f559199c1123c48a77a94f83293b69b5a5405b293fc21c59d80ba96f562a"}, {"sequence": 4294967294, "scriptSig": {"hex": "4730440220791387b9326158e6322594834b7e1aa2ebb69d3f7a25eeb07328680ed4e64ae902203508109208b926b257a693906da5c8b88c262f40c79790e55ebb7d123c3b613a01210231ee5a5f7c0374820176d90ba35d600f5c96f853b43a6e2259f8e8b0f0917a6a", "asm": "30440220791387b9326158e6322594834b7e1aa2ebb69d3f7a25eeb07328680ed4e64ae902203508109208b926b257a693906da5c8b88c262f40c79790e55ebb7d123c3b613a[ALL] 0231ee5a5f7c0374820176d90ba35d600f5c96f853b43a6e2259f8e8b0f0917a6a"}, "vout": 2, "txid": "de34773ccc23de23188965a6608aa943eb29e61036b229d732e9841366afcd2e"}, {"sequence": 4294967294, "scriptSig": {"hex": "47304402201d73482dbe374bb390c4c70151bfa88500d2312e72e21f06b80c475b2ae65d40022043231c73853d12ac8c8dc004b706a271368c0fe485bda4ed27fa6f259b4b81dc01210231ee5a5f7c0374820176d90ba35d600f5c96f853b43a6e2259f8e8b0f0917a6a", "asm": "304402201d73482dbe374bb390c4c70151bfa88500d2312e72e21f06b80c475b2ae65d40022043231c73853d12ac8c8dc004b706a271368c0fe485bda4ed27fa6f259b4b81dc[ALL] 0231ee5a5f7c0374820176d90ba35d600f5c96f853b43a6e2259f8e8b0f0917a6a"}, "vout": 2, "txid": "7ebf81ac996f8d2d4f89e35e2a1375c3e5467862f1e74156fb7d2e0726d64c4a"}, {"sequence": 4294967294, "scriptSig": {"hex": "4830450221009181b81fa241ad7ac859d515795ec760aed743702c290fdc6b40ec96a9ea8ef6022074b6520929eda46d99bb2b228e7df6c2cc95d46d374cf427fb05db02f04526e801210231ee5a5f7c0374820176d90ba35d600f5c96f853b43a6e2259f8e8b0f0917a6a", "asm": "30450221009181b81fa241ad7ac859d515795ec760aed743702c290fdc6b40ec96a9ea8ef6022074b6520929eda46d99bb2b228e7df6c2cc95d46d374cf427fb05db02f04526e8[ALL] 0231ee5a5f7c0374820176d90ba35d600f5c96f853b43a6e2259f8e8b0f0917a6a"}, "vout": 1, "txid": "0c5ad49f6ea53f05dbfd49f312b341f15c2fcfa6fe80bd49669c525f2cc25d4c"}, {"sequence": 4294967294, "scriptSig": {"hex": "473044022067ff5c96684661b5a760d6ccf213cea1c45b4e9eb786d2830060eadde03636780220504497f527216d915148cfd799d94d9e1c4974a153b39eadfc6fc4fcb80dfa0201210231ee5a5f7c0374820176d90ba35d600f5c96f853b43a6e2259f8e8b0f0917a6a", "asm": "3044022067ff5c96684661b5a760d6ccf213cea1c45b4e9eb786d2830060eadde03636780220504497f527216d915148cfd799d94d9e1c4974a153b39eadfc6fc4fcb80dfa02[ALL] 0231ee5a5f7c0374820176d90ba35d600f5c96f853b43a6e2259f8e8b0f0917a6a"}, "vout": 2, "txid": "168366cf596ccbe970858408668ed524bd380cf06399c253a10b477d37aa5d52"}, {"sequence": 4294967294, "scriptSig": {"hex": "483045022100a4fcf7a5517b664d7594a176a54944e14e0301d85a7ae8f552f1d36851bb6a8d02205012b11ec13576a8a300485b30d92344439116eab0b14a7004b95b4acfdfb0b501210231ee5a5f7c0374820176d90ba35d600f5c96f853b43a6e2259f8e8b0f0917a6a", "asm": "3045022100a4fcf7a5517b664d7594a176a54944e14e0301d85a7ae8f552f1d36851bb6a8d02205012b11ec13576a8a300485b30d92344439116eab0b14a7004b95b4acfdfb0b5[ALL] 0231ee5a5f7c0374820176d90ba35d600f5c96f853b43a6e2259f8e8b0f0917a6a"}, "vout": 2, "txid": "72d24783b9d1486ac8db40db40072612f7ee9c00680e70291e97f59cb7fc516f"}, {"sequence": 4294967294, "scriptSig": {"hex": "483045022100e6ea1659d1afa3d2719ad7e8caee7bb1e7935385b233f776a742f518da01b9ba02202c22cdb2eef4ae04a077fb08828325d1c5a202af82026459b8b87f5c1c12698a01210231ee5a5f7c0374820176d90ba35d600f5c96f853b43a6e2259f8e8b0f0917a6a", "asm": "3045022100e6ea1659d1afa3d2719ad7e8caee7bb1e7935385b233f776a742f518da01b9ba02202c22cdb2eef4ae04a077fb08828325d1c5a202af82026459b8b87f5c1c12698a[ALL] 0231ee5a5f7c0374820176d90ba35d600f5c96f853b43a6e2259f8e8b0f0917a6a"}, "vout": 2, "txid": "6e1bb29c725807fd839c9b517f7cdcaad9c9a82dc5aab66101e899e270f50271"}, {"sequence": 4294967294, "scriptSig": {"hex": "4830450221008417483a33674a9cb904414b273f1552a2164a8ab073e571c857f310b566b5b6022057458da34a52a08633eef8a60e946d92b5277f8791caf4e30e24b7fcbdb1248f01210231ee5a5f7c0374820176d90ba35d600f5c96f853b43a6e2259f8e8b0f0917a6a", "asm": "30450221008417483a33674a9cb904414b273f1552a2164a8ab073e571c857f310b566b5b6022057458da34a52a08633eef8a60e946d92b5277f8791caf4e30e24b7fcbdb1248f[ALL] 0231ee5a5f7c0374820176d90ba35d600f5c96f853b43a6e2259f8e8b0f0917a6a"}, "vout": 1, "txid": "f5475654fc056dde5c7de6b4b102bd73fc8f3ef034bfdffa587a6f49fb3c3b7b"}, {"sequence": 4294967294, "scriptSig": {"hex": "47304402200c215444c9553f209d18b08dc7e2f527ca0eee7a5de8c1b59345f61f765480530220144c59d47e44247f2f056dccb5e9e9ec4db8885b1e68a0ef4bca9702ba020d5201210231ee5a5f7c0374820176d90ba35d600f5c96f853b43a6e2259f8e8b0f0917a6a", "asm": "304402200c215444c9553f209d18b08dc7e2f527ca0eee7a5de8c1b59345f61f765480530220144c59d47e44247f2f056dccb5e9e9ec4db8885b1e68a0ef4bca9702ba020d52[ALL] 0231ee5a5f7c0374820176d90ba35d600f5c96f853b43a6e2259f8e8b0f0917a6a"}, "vout": 2, "txid": "05f43fccac30e4e02e8b68ac3df7cca7082b732cdd8dbe7f34fc9aedf5d54785"}, {"sequence": 4294967294, "scriptSig": {"hex": "483045022100f47a536ae4a8931f8b322ec83037b1dd76db13932d4f4d938daa2a4ecb219e1902205b240bb4cde88e481346802329db180228ca3eff791d0004ed04f6f7a4ccc8eb01210231ee5a5f7c0374820176d90ba35d600f5c96f853b43a6e2259f8e8b0f0917a6a", "asm": "3045022100f47a536ae4a8931f8b322ec83037b1dd76db13932d4f4d938daa2a4ecb219e1902205b240bb4cde88e481346802329db180228ca3eff791d0004ed04f6f7a4ccc8eb[ALL] 0231ee5a5f7c0374820176d90ba35d600f5c96f853b43a6e2259f8e8b0f0917a6a"}, "vout": 0, "txid": "35a79ce61b39849164e138612ef6f5939f053681e64186abeb979c742a29a585"}, {"sequence": 4294967294, "scriptSig": {"hex": "47304402202516f558a402267d83c34535568a6c23afa07fcf905319146313fd688d9f29a00220347cbd181e7369e5c13f8140bf19437f5eec828b15913f9916ac8b4aff41a0b101210231ee5a5f7c0374820176d90ba35d600f5c96f853b43a6e2259f8e8b0f0917a6a", "asm": "304402202516f558a402267d83c34535568a6c23afa07fcf905319146313fd688d9f29a00220347cbd181e7369e5c13f8140bf19437f5eec828b15913f9916ac8b4aff41a0b1[ALL] 0231ee5a5f7c0374820176d90ba35d600f5c96f853b43a6e2259f8e8b0f0917a6a"}, "vout": 1, "txid": "6fb2df9f7ce9f3c80c97c5ccc7bc81b617c2344e56c9eceab465bf6e1ad6851a"}], "txid": "1b189005bb2a2c705c359b0d119fc39d05c715887c3dc756e22018bf45b0fedc", "blocktime": 1537874412, "version": 1, "confirmations": 11468, "time": 1537874412, "locktime": 542923, "vsize": 2615, "size": 2615}