{"hash": "61ddd73c14743890ca5b0cee9f8d270a47948b95b2f9bf13b425f252803acc3c", "blockhash": "0000000000000000001f76057863aec43deb6fa401d9628bb513d65a8098bfab", "vout": [{"scriptPubKey": {"reqSigs": 1, "hex": "a914751a22f9e0c1c25f7f60b1a7c4b773bad63b83e387", "addresses": ["3CNCHzWx16BHdYAxCmgg3Ffx8sSz1si17r"], "asm": "OP_HASH160 751a22f9e0c1c25f7f60b1a7c4b773bad63b83e3 OP_EQUAL", "type": "scripthash"}, "value": 0.002115, "n": 0}, {"scriptPubKey": {"reqSigs": 1, "hex": "a914e949bed2e5481e888ee90edb590506b0f8ad10fd87", "addresses": ["3NxXiAHLRxiDW1GWht29KzkdW6xGFpjpHu"], "asm": "OP_HASH160 e949bed2e5481e888ee90edb590506b0f8ad10fd OP_EQUAL", "type": "scripthash"}, "value": 0.01001, "n": 1}], "hex": "020000000001027f803f7e022f5381cb54a48f56fb174bb943e9639b68b1fe02838007b741ee9ead0300006b483045022100dfd12eb733fd85b3d85ae8b6301880bfd8c7bef09d52a79d99638aae0f691937022004d06ccfae49183b5b3746bef315f8889e6f7d2fdddd2d4905008fb43c004b8d0121027cb819fd2f9aef09d7f88ebd268af8920b261a8b5d4ca0e0d9d300100945a009feffffff7fc6b1b49c277e188343c593fe5ee80a6ea71c759a3b9493e11e52d49a1c61b003000000171600140f1300e5c340e9eb68b7be1893619dac8c7693ccfeffffff022c3a03000000000017a914751a22f9e0c1c25f7f60b1a7c4b773bad63b83e38728460f000000000017a914e949bed2e5481e888ee90edb590506b0f8ad10fd870002483045022100ad5c902cb82b07a543ca324d6c8a9a477fd4a5a64da86f39623a4d1dae182a80022030fc03e73e3e4af561fcba17192657fc7fa6cd4fb00d634d449110c20dde204b0121030c5892dfbe84b22e29c646b3bcaafb41347b8537a2e697d16ed36d02db784e2c14490800", "vin": [{"sequence": 4294967294, "scriptSig": {"hex": "483045022100dfd12eb733fd85b3d85ae8b6301880bfd8c7bef09d52a79d99638aae0f691937022004d06ccfae49183b5b3746bef315f8889e6f7d2fdddd2d4905008fb43c004b8d0121027cb819fd2f9aef09d7f88ebd268af8920b261a8b5d4ca0e0d9d300100945a009", "asm": "3045022100dfd12eb733fd85b3d85ae8b6301880bfd8c7bef09d52a79d99638aae0f691937022004d06ccfae49183b5b3746bef315f8889e6f7d2fdddd2d4905008fb43c004b8d[ALL] 027cb819fd2f9aef09d7f88ebd268af8920b261a8b5d4ca0e0d9d300100945a009"}, "vout": 941, "txid": "9eee41b707808302feb1689b63e943b94b17fb568fa454cb81532f027e3f807f"}, {"txinwitness": ["3045022100ad5c902cb82b07a543ca324d6c8a9a477fd4a5a64da86f39623a4d1dae182a80022030fc03e73e3e4af561fcba17192657fc7fa6cd4fb00d634d449110c20dde204b01", "030c5892dfbe84b22e29c646b3bcaafb41347b8537a2e697d16ed36d02db784e2c"], "sequence": 4294967294, "scriptSig": {"hex": "1600140f1300e5c340e9eb68b7be1893619dac8c7693cc", "asm": "00140f1300e5c340e9eb68b7be1893619dac8c7693cc"}, "vout": 3, "txid": "b0611c9ad4521ee193943b9a751ca76e0ae85efe93c54383187e279cb4b1c67f"}], "txid": "1b1836a6216b48f297b390886bcd55332096ee77c6442cbb0d8434d72f1763d2", "blocktime": 1537873891, "version": 2, "confirmations": 11478, "time": 1537873891, "locktime": 542996, "vsize": 314, "size": 397}