{"hash": "1b1c159246d092e8354e46355590d701155b447c157150502247073845ae01e4", "blockhash": "0000000000000000001cda96e906b7601b7a6fb1a3b62bca570a9e5d8f4b3de1", "vout": [{"scriptPubKey": {"reqSigs": 1, "hex": "76a9148f78442fc35a7509c61d122c36de068fb90ed92b88ac", "addresses": ["1E5bhghgd5vHVmA8mirf27jUzjPiXtYrLH"], "asm": "OP_DUP OP_HASH160 8f78442fc35a7509c61d122c36de068fb90ed92b OP_EQUALVERIFY OP_CHECKSIG", "type": "pubkeyhash"}, "value": 0.00638999, "n": 0}, {"scriptPubKey": {"type": "nulldata", "hex": "6a4c50000077d500017b7451d3863b8d420c7093555b23cc0f42c2fc38c5e5bf9ae76da98a211a5bd994bab65537662fb9fa51cd26c93f5baa151f0612d711973bc7821d100759d4ba30d2c37bb011d97e02cf", "asm": "OP_RETURN 000077d500017b7451d3863b8d420c7093555b23cc0f42c2fc38c5e5bf9ae76da98a211a5bd994bab65537662fb9fa51cd26c93f5baa151f0612d711973bc7821d100759d4ba30d2c37bb011d97e02cf"}, "value": 0.0, "n": 1}], "hex": "0100000001ce12c5cbc7b8d2420b9a5499baf2362f54de0f0a3315b7410514a4e3620e989e010000006b48304502210084545ebb1af83abbe50fe075f6db92c1295ed7014ff663bfc1f13e9ae6a211df02200b20dccfff7229e63cdecc11dec3f774d05228fbe52b32a787f51c059c13d56d012102b676541c4b6701f69eabd1323c14fe829a6ffe295609ffd9a906ca596ee2dbedffffffff0217c00900000000001976a9148f78442fc35a7509c61d122c36de068fb90ed92b88ac0000000000000000536a4c50000077d500017b7451d3863b8d420c7093555b23cc0f42c2fc38c5e5bf9ae76da98a211a5bd994bab65537662fb9fa51cd26c93f5baa151f0612d711973bc7821d100759d4ba30d2c37bb011d97e02cf00000000", "vin": [{"sequence": 4294967295, "scriptSig": {"hex": "48304502210084545ebb1af83abbe50fe075f6db92c1295ed7014ff663bfc1f13e9ae6a211df02200b20dccfff7229e63cdecc11dec3f774d05228fbe52b32a787f51c059c13d56d012102b676541c4b6701f69eabd1323c14fe829a6ffe295609ffd9a906ca596ee2dbed", "asm": "304502210084545ebb1af83abbe50fe075f6db92c1295ed7014ff663bfc1f13e9ae6a211df02200b20dccfff7229e63cdecc11dec3f774d05228fbe52b32a787f51c059c13d56d[ALL] 02b676541c4b6701f69eabd1323c14fe829a6ffe295609ffd9a906ca596ee2dbed"}, "vout": 1, "txid": "9e980e62e3a4140541b715330a0fde542f36f2ba99549a0b42d2b8c7cbc512ce"}], "txid": "1b1c159246d092e8354e46355590d701155b447c157150502247073845ae01e4", "blocktime": 1537873282, "version": 1, "confirmations": 11484, "time": 1537873282, "locktime": 0, "vsize": 284, "size": 284}