{"hash": "1b20f1c8e0d42d2f3b00761867040f689114a8b572ebe14b2cd5cb3788250e9c", "blockhash": "00000000000000000017f5eb5941039fbcee6240d03bc1f2f8e35350df66a1d8", "vout": [{"scriptPubKey": {"reqSigs": 1, "hex": "76a9143eab031cf961eb4652e123f13dac1c9738a800d988ac", "addresses": ["16iMm2YvRMPscGBK2MitGeQLWy6VB8fnZp"], "asm": "OP_DUP OP_HASH160 3eab031cf961eb4652e123f13dac1c9738a800d9 OP_EQUALVERIFY OP_CHECKSIG", "type": "pubkeyhash"}, "value": 0.04138252, "n": 0}, {"scriptPubKey": {"reqSigs": 1, "hex": "76a9145940878b7d8cdd181ee80ff6869f5fd32223146988ac", "addresses": ["198vSfEgP9iCLAc1ddfPp6TdwXmaUPiPts"], "asm": "OP_DUP OP_HASH160 5940878b7d8cdd181ee80ff6869f5fd322231469 OP_EQUALVERIFY OP_CHECKSIG", "type": "pubkeyhash"}, "value": 0.04692595, "n": 1}], "hex": "010000000220b430173af86c9ed0a86b5fd917c7ad621717b16ffd7ecbe65bf9448944920c010000006b4830450221009cca1bf3ce84cc091515badbd3a4ed61bfc513d4a09e80086879c414d92d81190220747fada0f75875cc4c0fe6019d974a8bb690d5cbeadfc3cdc14d47d78600be44012102f3fb7e845230e5e85235529a430a4dc8394ba1b985c5dd36c288acfbf4859659ffffffff5676ece5a10803ccc2ef7a3128fafa2a39b1b2b7ef15d7f09fac43a135e909fa010000006b483045022100ac13e30f7b7f4584e7a46796f1f1eb179dae95217c99b24182f547e027b26aad02204b24fa7380eb6746ed325cf20e87adaf6db8a7528cc3d9e399e2285e939e84b0012102c7609bdbac48bf0cb5fe7691c7297a303e7760685a0c9f05c688a4a13456da68ffffffff020c253f00000000001976a9143eab031cf961eb4652e123f13dac1c9738a800d988ac739a4700000000001976a9145940878b7d8cdd181ee80ff6869f5fd32223146988ac00000000", "vin": [{"sequence": 4294967295, "scriptSig": {"hex": "4830450221009cca1bf3ce84cc091515badbd3a4ed61bfc513d4a09e80086879c414d92d81190220747fada0f75875cc4c0fe6019d974a8bb690d5cbeadfc3cdc14d47d78600be44012102f3fb7e845230e5e85235529a430a4dc8394ba1b985c5dd36c288acfbf4859659", "asm": "30450221009cca1bf3ce84cc091515badbd3a4ed61bfc513d4a09e80086879c414d92d81190220747fada0f75875cc4c0fe6019d974a8bb690d5cbeadfc3cdc14d47d78600be44[ALL] 02f3fb7e845230e5e85235529a430a4dc8394ba1b985c5dd36c288acfbf4859659"}, "vout": 1, "txid": "0c92448944f95be6cb7efd6fb1171762adc717d95f6ba8d09e6cf83a1730b420"}, {"sequence": 4294967295, "scriptSig": {"hex": "483045022100ac13e30f7b7f4584e7a46796f1f1eb179dae95217c99b24182f547e027b26aad02204b24fa7380eb6746ed325cf20e87adaf6db8a7528cc3d9e399e2285e939e84b0012102c7609bdbac48bf0cb5fe7691c7297a303e7760685a0c9f05c688a4a13456da68", "asm": "3045022100ac13e30f7b7f4584e7a46796f1f1eb179dae95217c99b24182f547e027b26aad02204b24fa7380eb6746ed325cf20e87adaf6db8a7528cc3d9e399e2285e939e84b0[ALL] 02c7609bdbac48bf0cb5fe7691c7297a303e7760685a0c9f05c688a4a13456da68"}, "vout": 1, "txid": "fa09e935a143ac9ff0d715efb7b2b1392afafa28317aefc2cc0308a1e5ec7656"}], "txid": "1b20f1c8e0d42d2f3b00761867040f689114a8b572ebe14b2cd5cb3788250e9c", "blocktime": 1537874412, "version": 1, "confirmations": 11468, "time": 1537874412, "locktime": 0, "vsize": 374, "size": 374}