{"hash": "1b281789e9c014aeb3cd21df744ce4102719c7fdd250e4d798d724fe7336738b", "blockhash": "0000000000000000001cda96e906b7601b7a6fb1a3b62bca570a9e5d8f4b3de1", "vout": [{"scriptPubKey": {"reqSigs": 1, "hex": "76a914e4b92b6aefc678ca24304fc803eeba12b529d42f88ac", "addresses": ["1MrNtYiCTa4wowMq8HQHkjPRqNJHpWya5s"], "asm": "OP_DUP OP_HASH160 e4b92b6aefc678ca24304fc803eeba12b529d42f OP_EQUALVERIFY OP_CHECKSIG", "type": "pubkeyhash"}, "value": 0.00332204, "n": 0}, {"scriptPubKey": {"reqSigs": 1, "hex": "76a9146205803cdea24428369a7b0c8196ce0ed0c80a6088ac", "addresses": ["19wHp1ci2pqaF39vNJW5izrp5AnjgEiS4o"], "asm": "OP_DUP OP_HASH160 6205803cdea24428369a7b0c8196ce0ed0c80a60 OP_EQUALVERIFY OP_CHECKSIG", "type": "pubkeyhash"}, "value": 0.11240779, "n": 1}], "hex": "0100000002ef81af6594958c8fa394be44781b97d4b84fc288020706c763007dbe0b58825a000000006b483045022100e58b1ba0bee6b744b6c59b60feed159369234f53b5158a636babf0101d7b0cd5022076037e213d8ca910eae42799e7b281e81f031747eb9ee2d6eae44fa415c2170401210236a55b7e0dd35decdbc9bec78f2c5d7686eeed9e46eac162758492a17829ce86ffffffffc65c69332c7c39fa6788b02e409c6d82dc18512b026b5f327a8f69721f96d583230000006b48304502210087f77e6b61f5007eaa5388866a4c3a721784640de6eec773c59408b76a3d0e6802200af5353ebca49c952e520184af649f7a78bc8dc1716c170cb5cbaa9fcdc59e120121028bb5f1aca782caee6d78832a08341994ebce74bc12cd3542975d243ccfde1dc6ffffffff02ac110500000000001976a914e4b92b6aefc678ca24304fc803eeba12b529d42f88ac4b85ab00000000001976a9146205803cdea24428369a7b0c8196ce0ed0c80a6088ac00000000", "vin": [{"sequence": 4294967295, "scriptSig": {"hex": "483045022100e58b1ba0bee6b744b6c59b60feed159369234f53b5158a636babf0101d7b0cd5022076037e213d8ca910eae42799e7b281e81f031747eb9ee2d6eae44fa415c2170401210236a55b7e0dd35decdbc9bec78f2c5d7686eeed9e46eac162758492a17829ce86", "asm": "3045022100e58b1ba0bee6b744b6c59b60feed159369234f53b5158a636babf0101d7b0cd5022076037e213d8ca910eae42799e7b281e81f031747eb9ee2d6eae44fa415c21704[ALL] 0236a55b7e0dd35decdbc9bec78f2c5d7686eeed9e46eac162758492a17829ce86"}, "vout": 0, "txid": "5a82580bbe7d0063c706070288c24fb8d4971b7844be94a38f8c959465af81ef"}, {"sequence": 4294967295, "scriptSig": {"hex": "48304502210087f77e6b61f5007eaa5388866a4c3a721784640de6eec773c59408b76a3d0e6802200af5353ebca49c952e520184af649f7a78bc8dc1716c170cb5cbaa9fcdc59e120121028bb5f1aca782caee6d78832a08341994ebce74bc12cd3542975d243ccfde1dc6", "asm": "304502210087f77e6b61f5007eaa5388866a4c3a721784640de6eec773c59408b76a3d0e6802200af5353ebca49c952e520184af649f7a78bc8dc1716c170cb5cbaa9fcdc59e12[ALL] 028bb5f1aca782caee6d78832a08341994ebce74bc12cd3542975d243ccfde1dc6"}, "vout": 35, "txid": "83d5961f72698f7a325f6b022b5118dc826d9c402eb08867fa397c2c33695cc6"}], "txid": "1b281789e9c014aeb3cd21df744ce4102719c7fdd250e4d798d724fe7336738b", "blocktime": 1537873282, "version": 1, "confirmations": 11485, "time": 1537873282, "locktime": 0, "vsize": 374, "size": 374}