{"hash": "1b29a90f95a8e586605b3fc5081275098b62a60597742fca82a0be053505b740", "blockhash": "0000000000000000001cda96e906b7601b7a6fb1a3b62bca570a9e5d8f4b3de1", "vout": [{"scriptPubKey": {"reqSigs": 1, "hex": "76a914a52740ba57d751064f31107abda3c96b5cc7384088ac", "addresses": ["1G4FWzGaeFQTXVfdbNXDqShPY4iReBqNeL"], "asm": "OP_DUP OP_HASH160 a52740ba57d751064f31107abda3c96b5cc73840 OP_EQUALVERIFY OP_CHECKSIG", "type": "pubkeyhash"}, "value": 0.0001054, "n": 0}, {"scriptPubKey": {"reqSigs": 1, "hex": "a91424feec7b8afb17966af18b64b49fb5d7fe427fcc87", "addresses": ["354dds1TShRYQq579iVkx57cRxCsBYAoAa"], "asm": "OP_HASH160 24feec7b8afb17966af18b64b49fb5d7fe427fcc OP_EQUAL", "type": "scripthash"}, "value": 0.000804, "n": 1}], "hex": "010000000353f4bb3f6a61d934c361f7d0f133b973cb814ee0875b1b5a20cf16af95ab161c090000006a473044022025a8284c0736a760e338a880bd12c6e64e7d554900c528470a1a0b949516c7f802201a9f99836a50c59067753621d770c49ba2dcc0f30db4a99c169a90ff94db5f100121020bad5b0c49bca65564e9ee7ccab3b1c83a1c67bb22ed0b4a71aa935cab07c473ffffffff72a3b180dbe0a84c4c9e483e4e1f7f93eb398b60cc5ca7934c4314574725f739000000006b483045022100f5d760b455eac23555b6944a277910e20eae9675f1e179f41e296c2545b1522e02200518c46fcb6104c4c6b9da3ba1a4e6fd2fcefb96eeb3b876766a2fd51bc7c01701210263d496ad34cbd38c13c9a68efbae9ea49e5268671a8ec204dddd522065bc5d19ffffffffbcd010cb02906b4f72446f7cc40194c6868e31f2dcd686e00205351fa670c2d7000000006a47304402204ee213102cc189f60004e517e8cd5e0424d62db9107e300be85012674cd6bf040220033696bc2f6e181199ca3ca0dbed6d3b7fb6cf3156a931f800ca09dec8c3881c01210325bff67604fe729c017f401999129a76b9eaaed3743ae0d96e1450072acf5578ffffffff022c290000000000001976a914a52740ba57d751064f31107abda3c96b5cc7384088ac103a01000000000017a91424feec7b8afb17966af18b64b49fb5d7fe427fcc8700000000", "vin": [{"sequence": 4294967295, "scriptSig": {"hex": "473044022025a8284c0736a760e338a880bd12c6e64e7d554900c528470a1a0b949516c7f802201a9f99836a50c59067753621d770c49ba2dcc0f30db4a99c169a90ff94db5f100121020bad5b0c49bca65564e9ee7ccab3b1c83a1c67bb22ed0b4a71aa935cab07c473", "asm": "3044022025a8284c0736a760e338a880bd12c6e64e7d554900c528470a1a0b949516c7f802201a9f99836a50c59067753621d770c49ba2dcc0f30db4a99c169a90ff94db5f10[ALL] 020bad5b0c49bca65564e9ee7ccab3b1c83a1c67bb22ed0b4a71aa935cab07c473"}, "vout": 9, "txid": "1c16ab95af16cf205a1b5b87e04e81cb73b933f1d0f761c334d9616a3fbbf453"}, {"sequence": 4294967295, "scriptSig": {"hex": "483045022100f5d760b455eac23555b6944a277910e20eae9675f1e179f41e296c2545b1522e02200518c46fcb6104c4c6b9da3ba1a4e6fd2fcefb96eeb3b876766a2fd51bc7c01701210263d496ad34cbd38c13c9a68efbae9ea49e5268671a8ec204dddd522065bc5d19", "asm": "3045022100f5d760b455eac23555b6944a277910e20eae9675f1e179f41e296c2545b1522e02200518c46fcb6104c4c6b9da3ba1a4e6fd2fcefb96eeb3b876766a2fd51bc7c017[ALL] 0263d496ad34cbd38c13c9a68efbae9ea49e5268671a8ec204dddd522065bc5d19"}, "vout": 0, "txid": "39f725475714434c93a75ccc608b39eb937f1f4e3e489e4c4ca8e0db80b1a372"}, {"sequence": 4294967295, "scriptSig": {"hex": "47304402204ee213102cc189f60004e517e8cd5e0424d62db9107e300be85012674cd6bf040220033696bc2f6e181199ca3ca0dbed6d3b7fb6cf3156a931f800ca09dec8c3881c01210325bff67604fe729c017f401999129a76b9eaaed3743ae0d96e1450072acf5578", "asm": "304402204ee213102cc189f60004e517e8cd5e0424d62db9107e300be85012674cd6bf040220033696bc2f6e181199ca3ca0dbed6d3b7fb6cf3156a931f800ca09dec8c3881c[ALL] 0325bff67604fe729c017f401999129a76b9eaaed3743ae0d96e1450072acf5578"}, "vout": 0, "txid": "d7c270a61f350502e086d6dcf2318e86c69401c47c6f44724f6b9002cb10d0bc"}], "txid": "1b29a90f95a8e586605b3fc5081275098b62a60597742fca82a0be053505b740", "blocktime": 1537873282, "version": 1, "confirmations": 11484, "time": 1537873282, "locktime": 0, "vsize": 518, "size": 518}