{"hash": "1b2b3415bd241354cb8f079befe42ea73c18f4277faa28657bc7efc50074b9be", "blockhash": "00000000000000000004ffacab907a6b429b9a5745fa0b75af4234bf69dd7176", "vout": [{"scriptPubKey": {"reqSigs": 1, "hex": "a91465371d21bfc90c3cc647426bd2788ee4342b6a6187", "addresses": ["3AvCCHud1SgqUupw9bdpBhWaB3YweBKJFv"], "asm": "OP_HASH160 65371d21bfc90c3cc647426bd2788ee4342b6a61 OP_EQUAL", "type": "scripthash"}, "value": 2.0, "n": 0}, {"scriptPubKey": {"reqSigs": 1, "hex": "76a9142d68aad0f638fab926cc74def05127d2495cb96388ac", "addresses": ["1596o3M7j3kUKWa6eyvcTnwsnVAFw4bPDf"], "asm": "OP_DUP OP_HASH160 2d68aad0f638fab926cc74def05127d2495cb963 OP_EQUALVERIFY OP_CHECKSIG", "type": "pubkeyhash"}, "value": 0.00522746, "n": 1}], "hex": "01000000013bee6267cec38521c85f2143ef88457da836724687a98d2c096b50b7a0b9d613010000006a47304402202bcd8579772dffbc842b264d09cbf9e840cfbaea709d1be31caaf33176501b6902203f90ff6f2e0270e5a505ed9fad018f4714e9445671f1863dd82fd2ff7e1862520121027fdc957c11ef711d44f1e8cb8a06a6b6eac3ce7302cf3f50200ffd211417e1bcffffffff0200c2eb0b0000000017a91465371d21bfc90c3cc647426bd2788ee4342b6a6187faf90700000000001976a9142d68aad0f638fab926cc74def05127d2495cb96388ac00000000", "vin": [{"sequence": 4294967295, "scriptSig": {"hex": "47304402202bcd8579772dffbc842b264d09cbf9e840cfbaea709d1be31caaf33176501b6902203f90ff6f2e0270e5a505ed9fad018f4714e9445671f1863dd82fd2ff7e1862520121027fdc957c11ef711d44f1e8cb8a06a6b6eac3ce7302cf3f50200ffd211417e1bc", "asm": "304402202bcd8579772dffbc842b264d09cbf9e840cfbaea709d1be31caaf33176501b6902203f90ff6f2e0270e5a505ed9fad018f4714e9445671f1863dd82fd2ff7e186252[ALL] 027fdc957c11ef711d44f1e8cb8a06a6b6eac3ce7302cf3f50200ffd211417e1bc"}, "vout": 1, "txid": "13d6b9a0b7506b092c8da987467236a87d4588ef43215fc82185c3ce6762ee3b"}], "txid": "1b2b3415bd241354cb8f079befe42ea73c18f4277faa28657bc7efc50074b9be", "blocktime": 1537875543, "version": 1, "confirmations": 11464, "time": 1537875543, "locktime": 0, "vsize": 223, "size": 223}