{"hash": "1b2d09f75abd9106205ba4eed1450193481675d505242ee3a57dfc27647765b1", "blockhash": "0000000000000000001cda96e906b7601b7a6fb1a3b62bca570a9e5d8f4b3de1", "vout": [{"scriptPubKey": {"reqSigs": 1, "hex": "a9143d0dd7a2c8f8d23b9bda5d11666d1a74ab84d98b87", "addresses": ["37Fqj2XjuCZ5vG9LXt6hM9Zn7V7mizoU4z"], "asm": "OP_HASH160 3d0dd7a2c8f8d23b9bda5d11666d1a74ab84d98b OP_EQUAL", "type": "scripthash"}, "value": 0.05489432, "n": 0}, {"scriptPubKey": {"reqSigs": 1, "hex": "76a9143499397bfd105478d2572a8b80f2906c7315667488ac", "addresses": ["15o7hCoLV6L1YEpvNApSy29Je5HEVoMVJH"], "asm": "OP_DUP OP_HASH160 3499397bfd105478d2572a8b80f2906c73156674 OP_EQUALVERIFY OP_CHECKSIG", "type": "pubkeyhash"}, "value": 0.08444211, "n": 1}], "hex": "0100000001b36ab52e4e0b032583dafded8129e3a9d8cfcc57da8a54f990b137519aa5f2fc010000006a473044022026fce4a8b305d67176b72a83e0bdec6149d1228c08a0bc48ca44d2b1891ea57f022053d4cf5d6692ce09546fe85f867c62677d55c38eb6aecf03af6138a01ee57ac7012103ae870e4c6ecf87ea53653262987f95f70fce4da5d530182bfee229c87959e474fdffffff0218c353000000000017a9143d0dd7a2c8f8d23b9bda5d11666d1a74ab84d98b8733d98000000000001976a9143499397bfd105478d2572a8b80f2906c7315667488ac13490800", "vin": [{"sequence": 4294967293, "scriptSig": {"hex": "473044022026fce4a8b305d67176b72a83e0bdec6149d1228c08a0bc48ca44d2b1891ea57f022053d4cf5d6692ce09546fe85f867c62677d55c38eb6aecf03af6138a01ee57ac7012103ae870e4c6ecf87ea53653262987f95f70fce4da5d530182bfee229c87959e474", "asm": "3044022026fce4a8b305d67176b72a83e0bdec6149d1228c08a0bc48ca44d2b1891ea57f022053d4cf5d6692ce09546fe85f867c62677d55c38eb6aecf03af6138a01ee57ac7[ALL] 03ae870e4c6ecf87ea53653262987f95f70fce4da5d530182bfee229c87959e474"}, "vout": 1, "txid": "fcf2a59a5137b190f9548ada57cccfd8a9e32981edfdda8325030b4e2eb56ab3"}], "txid": "1b2d09f75abd9106205ba4eed1450193481675d505242ee3a57dfc27647765b1", "blocktime": 1537873282, "version": 1, "confirmations": 11480, "time": 1537873282, "locktime": 542995, "vsize": 223, "size": 223}