{"hash": "01432bca8299d245cfe6aeef3daae32a39da8122febb77775a4ba11509fbdc56", "blockhash": "000000000000000000022b45ed06c6f4ccd3cf7fb5ba4856ebd2e58215665228", "vout": [{"scriptPubKey": {"reqSigs": 1, "hex": "76a9147dda121435f371f99b4f6d1c534f50a1c16e07e988ac", "addresses": ["1CUShntVyi8JMrUtWRpfkvAQDGpNXSpmqg"], "asm": "OP_DUP OP_HASH160 7dda121435f371f99b4f6d1c534f50a1c16e07e9 OP_EQUALVERIFY OP_CHECKSIG", "type": "pubkeyhash"}, "value": 0.0022676, "n": 0}, {"scriptPubKey": {"reqSigs": 1, "hex": "a91426fba304e12cc03f71e2efcf86d4d77645e21e4787", "addresses": ["35F93s5Uqt1j2v38dWfaSKoABiMswYKvb3"], "asm": "OP_HASH160 26fba304e12cc03f71e2efcf86d4d77645e21e47 OP_EQUAL", "type": "scripthash"}, "value": 0.01035432, "n": 1}], "hex": "02000000000102829990c39260a2a5307537235787519172dbf13de5db6c054dd1c93ba165d9450400000017160014e5073d1f4089b4ab432de7008fe0fac448755f87feffffffb395ee9bf808031bf3e00cd8aafd436a18b9e684f2161c5989910662e2950254010000001716001473ba828680bb5760c4ce608619e66a105bf3126efeffffff02c8750300000000001976a9147dda121435f371f99b4f6d1c534f50a1c16e07e988aca8cc0f000000000017a91426fba304e12cc03f71e2efcf86d4d77645e21e478702483045022100eeef51e57d444dc76a9fb5ba151c76e4533290cf0925e5c19ee02063742fc9f2022027047f4b2dec2cf46b362a6223f1236e370c7f02bbbe5886726d08e2fe13d8480121038bb128400d6eb584b2857514f2968b000c8466294c9246f82e2c4547cf11aa7302483045022100eb376fb6f34715cda2a411367be3a09094fbc3f759c7ded15a92e1905dd5761f022041231561bb7228f6881f5c8cee05bda2be605b8f63fb67ba735de34ad64e3ffd01210310aad0feecf261db7a9b7b788861a333c2b94bb0e217a7281acb47516479c8280b490800", "vin": [{"txinwitness": ["3045022100eeef51e57d444dc76a9fb5ba151c76e4533290cf0925e5c19ee02063742fc9f2022027047f4b2dec2cf46b362a6223f1236e370c7f02bbbe5886726d08e2fe13d84801", "038bb128400d6eb584b2857514f2968b000c8466294c9246f82e2c4547cf11aa73"], "sequence": 4294967294, "scriptSig": {"hex": "160014e5073d1f4089b4ab432de7008fe0fac448755f87", "asm": "0014e5073d1f4089b4ab432de7008fe0fac448755f87"}, "vout": 4, "txid": "45d965a13bc9d14d056cdbe53df1db729151875723377530a5a26092c3909982"}, {"txinwitness": ["3045022100eb376fb6f34715cda2a411367be3a09094fbc3f759c7ded15a92e1905dd5761f022041231561bb7228f6881f5c8cee05bda2be605b8f63fb67ba735de34ad64e3ffd01", "0310aad0feecf261db7a9b7b788861a333c2b94bb0e217a7281acb47516479c828"], "sequence": 4294967294, "scriptSig": {"hex": "16001473ba828680bb5760c4ce608619e66a105bf3126e", "asm": "001473ba828680bb5760c4ce608619e66a105bf3126e"}, "vout": 1, "txid": "540295e262069189591c16f284e6b9186a43fdaad80ce0f31b0308f89bee95b3"}], "txid": "1b2d94d16ac28ce2ba0bc2761dcfb964c389e517c1cf1695cafe04eb6e253fb0", "blocktime": 1537869901, "version": 2, "confirmations": 11524, "time": 1537869901, "locktime": 542987, "vsize": 259, "size": 422}