{"hash": "1b2ecf477d39f89091c8c47076e3970b68da2231363050a326c1e8739a46f604", "blockhash": "0000000000000000001cda96e906b7601b7a6fb1a3b62bca570a9e5d8f4b3de1", "vout": [{"scriptPubKey": {"reqSigs": 1, "hex": "76a914ca482ed7acaaf0ea1c73450075a6c8b05ea9b54688ac", "addresses": ["1KSZy7SSeknGm9n9DpTKs5qbzjeQsWseyy"], "asm": "OP_DUP OP_HASH160 ca482ed7acaaf0ea1c73450075a6c8b05ea9b546 OP_EQUALVERIFY OP_CHECKSIG", "type": "pubkeyhash"}, "value": 0.00417836, "n": 0}, {"scriptPubKey": {"reqSigs": 1, "hex": "a9144bec4742301220232158aee0df199d2844ac79d187", "addresses": ["38cTeqcAsajwR9Zj88Y4BCqm2MaHznaBHT"], "asm": "OP_HASH160 4bec4742301220232158aee0df199d2844ac79d1 OP_EQUAL", "type": "scripthash"}, "value": 0.01171514, "n": 1}], "hex": "01000000011cc5542d4097b48d822308a63b819f5582d9339e176f8ce32762e6d6da17c227000000006b483045022100ea302d9bbd6abdc7604ddfe330e9c0548edc00ef330e035c7b6b16244905defe0220204a255974814df85da8fbac8da52c0ee727dea27e4b72d00eae876dc86f65b30121036ce11a7f34f90fc2fb1708b4aca9b3cf1c98a46863ecf856f24384e7012efb36ffffffff022c600600000000001976a914ca482ed7acaaf0ea1c73450075a6c8b05ea9b54688ac3ae011000000000017a9144bec4742301220232158aee0df199d2844ac79d18700000000", "vin": [{"sequence": 4294967295, "scriptSig": {"hex": "483045022100ea302d9bbd6abdc7604ddfe330e9c0548edc00ef330e035c7b6b16244905defe0220204a255974814df85da8fbac8da52c0ee727dea27e4b72d00eae876dc86f65b30121036ce11a7f34f90fc2fb1708b4aca9b3cf1c98a46863ecf856f24384e7012efb36", "asm": "3045022100ea302d9bbd6abdc7604ddfe330e9c0548edc00ef330e035c7b6b16244905defe0220204a255974814df85da8fbac8da52c0ee727dea27e4b72d00eae876dc86f65b3[ALL] 036ce11a7f34f90fc2fb1708b4aca9b3cf1c98a46863ecf856f24384e7012efb36"}, "vout": 0, "txid": "27c217dad6e66227e38c6f179e33d982559f813ba60823828db497402d54c51c"}], "txid": "1b2ecf477d39f89091c8c47076e3970b68da2231363050a326c1e8739a46f604", "blocktime": 1537873282, "version": 1, "confirmations": 11483, "time": 1537873282, "locktime": 0, "vsize": 224, "size": 224}