{"hash": "1b35dbf0d91866e5347a93a2e7494554b9ca6b199724d3500720e926b4683a6f", "blockhash": "0000000000000000000baef3f32e3676a92c3b2e5da21b426e4f302fc371ce76", "vout": [{"scriptPubKey": {"reqSigs": 1, "hex": "76a9140ea2c16f9786cdfea33384770c72f226ae93ef3f88ac", "addresses": ["12LPS9L3BtpHJxCw7CBABQHFsKc7wFRjAR"], "asm": "OP_DUP OP_HASH160 0ea2c16f9786cdfea33384770c72f226ae93ef3f OP_EQUALVERIFY OP_CHECKSIG", "type": "pubkeyhash"}, "value": 0.36165511, "n": 0}, {"scriptPubKey": {"type": "nulldata", "hex": "6a146f6d6e69000000000000001f0000000148907510", "asm": "OP_RETURN 6f6d6e69000000000000001f0000000148907510"}, "value": 0.0, "n": 1}, {"scriptPubKey": {"reqSigs": 1, "hex": "76a9143f560df7504898125fd157566f34345e5de62ec788ac", "addresses": ["16mtfG7iThv1GNPNFABJZCPxt7BTCGt1cK"], "asm": "OP_DUP OP_HASH160 3f560df7504898125fd157566f34345e5de62ec7 OP_EQUALVERIFY OP_CHECKSIG", "type": "pubkeyhash"}, "value": 5.46e-06, "n": 2}], "hex": "010000000195ed7374d4ca34c91d9b00ceb9a104a32a55905f4afe3ec9da5d90fbe871cab6020000006b483045022100dabc267a098b12ba685f19f64510fe1389aac593ebd7be723ad89fe5b973289202206a7f28f167ae74c41996d0b10d56096853d3ed17517fa13a5b1c0dca05ec7a3801210242604bdd2261b6188326b9f490e074dda990f5bb746eb9716e491b86b498f4c5feffffff0387d72702000000001976a9140ea2c16f9786cdfea33384770c72f226ae93ef3f88ac0000000000000000166a146f6d6e69000000000000001f000000014890751022020000000000001976a9143f560df7504898125fd157566f34345e5de62ec788ac16490800", "vin": [{"sequence": 4294967294, "scriptSig": {"hex": "483045022100dabc267a098b12ba685f19f64510fe1389aac593ebd7be723ad89fe5b973289202206a7f28f167ae74c41996d0b10d56096853d3ed17517fa13a5b1c0dca05ec7a3801210242604bdd2261b6188326b9f490e074dda990f5bb746eb9716e491b86b498f4c5", "asm": "3045022100dabc267a098b12ba685f19f64510fe1389aac593ebd7be723ad89fe5b973289202206a7f28f167ae74c41996d0b10d56096853d3ed17517fa13a5b1c0dca05ec7a38[ALL] 0242604bdd2261b6188326b9f490e074dda990f5bb746eb9716e491b86b498f4c5"}, "vout": 2, "txid": "b6ca71e8fb905ddac93efe4a5f90552aa304a1b9ce009b1dc934cad47473ed95"}], "txid": "1b35dbf0d91866e5347a93a2e7494554b9ca6b199724d3500720e926b4683a6f", "blocktime": 1537876114, "version": 1, "confirmations": 11460, "time": 1537876114, "locktime": 542998, "vsize": 257, "size": 257}