{"hash": "1b36127812c48bb87de73a2304ba6a244794d177e8fdd32781da09c43c2b5fb4", "blockhash": "0000000000000000001f0ddff1eddb255c1121bcd4da4f1bc9a0da00cae72433", "vout": [{"scriptPubKey": {"reqSigs": 1, "hex": "a914af9ff6893bb8dcc66ee970b56b6c1d632573968887", "addresses": ["3HhdoYJ1ZRWDz1Jeue2UDQu6vuUTRc5Zuk"], "asm": "OP_HASH160 af9ff6893bb8dcc66ee970b56b6c1d6325739688 OP_EQUAL", "type": "scripthash"}, "value": 0.01999427, "n": 0}], "hex": "010000000115aa63ed20d661a6a59ddab84d2e2d22937cca43d47000487946b8bbec478288000000006b483045022100f0043a1fa784d24972f8bc3de2aa00010c2e70361a0e0aa2130135b5c606434102207d81fe1a3d15427ecdea06e8220fc43d6e8899d291e0e934c661f0f5aa506c14012102c7a4f547d82ebac0351fb6d16a7bcb68ccf4f26f3ac200244543424a7668bcafffffffff0143821e000000000017a914af9ff6893bb8dcc66ee970b56b6c1d63257396888700000000", "vin": [{"sequence": 4294967295, "scriptSig": {"hex": "483045022100f0043a1fa784d24972f8bc3de2aa00010c2e70361a0e0aa2130135b5c606434102207d81fe1a3d15427ecdea06e8220fc43d6e8899d291e0e934c661f0f5aa506c14012102c7a4f547d82ebac0351fb6d16a7bcb68ccf4f26f3ac200244543424a7668bcaf", "asm": "3045022100f0043a1fa784d24972f8bc3de2aa00010c2e70361a0e0aa2130135b5c606434102207d81fe1a3d15427ecdea06e8220fc43d6e8899d291e0e934c661f0f5aa506c14[ALL] 02c7a4f547d82ebac0351fb6d16a7bcb68ccf4f26f3ac200244543424a7668bcaf"}, "vout": 0, "txid": "888247ecbbb84679480070d443ca7c93222d2e4db8da9da5a661d620ed63aa15"}], "txid": "1b36127812c48bb87de73a2304ba6a244794d177e8fdd32781da09c43c2b5fb4", "blocktime": 1537872018, "version": 1, "confirmations": 11489, "time": 1537872018, "locktime": 0, "vsize": 190, "size": 190}