{"hash": "1b3815f5dff6e4bec8a4337698666cdd7aa9eec3a64d0f67269de5fee1c1cce2", "blockhash": "0000000000000000000baef3f32e3676a92c3b2e5da21b426e4f302fc371ce76", "vout": [{"scriptPubKey": {"reqSigs": 1, "hex": "a914e76d40cfea7270b2c698b93b162767c24911810187", "addresses": ["3NngtuA9pdmY6bYa9pFeNYRSmt9VfYV3BS"], "asm": "OP_HASH160 e76d40cfea7270b2c698b93b162767c249118101 OP_EQUAL", "type": "scripthash"}, "value": 0.18399999, "n": 0}, {"scriptPubKey": {"reqSigs": 1, "hex": "76a914a520c86a08366941cd90d22e11ac1c7eefa2db3788ac", "addresses": ["1G47mSr3oANXMafVrR8UC4pzV7FEAzo3r9"], "asm": "OP_DUP OP_HASH160 a520c86a08366941cd90d22e11ac1c7eefa2db37 OP_EQUALVERIFY OP_CHECKSIG", "type": "pubkeyhash"}, "value": 0.03638435, "n": 1}], "hex": "01000000010649a2c012dc60df3242c95541878e25c6c1d62fd1df4d1e74b80e2b241c10dd000000006b483045022100881f9942058045fffe96b81c4636f0d7560b3d17cd18aeed13c19311b194827f0220556c03b17ead2460878e47460b0fd1def5a253843cb7b5e7ec291a996a23a63e012103f3f44c9e80e2cedc1a2909631a3adea8866ee32187f74d0912387359b0ff36a2ffffffff02ffc218010000000017a914e76d40cfea7270b2c698b93b162767c24911810187a3843700000000001976a914a520c86a08366941cd90d22e11ac1c7eefa2db3788ac00000000", "vin": [{"sequence": 4294967295, "scriptSig": {"hex": "483045022100881f9942058045fffe96b81c4636f0d7560b3d17cd18aeed13c19311b194827f0220556c03b17ead2460878e47460b0fd1def5a253843cb7b5e7ec291a996a23a63e012103f3f44c9e80e2cedc1a2909631a3adea8866ee32187f74d0912387359b0ff36a2", "asm": "3045022100881f9942058045fffe96b81c4636f0d7560b3d17cd18aeed13c19311b194827f0220556c03b17ead2460878e47460b0fd1def5a253843cb7b5e7ec291a996a23a63e[ALL] 03f3f44c9e80e2cedc1a2909631a3adea8866ee32187f74d0912387359b0ff36a2"}, "vout": 0, "txid": "dd101c242b0eb8741e4ddfd12fd6c1c6258e874155c94232df60dc12c0a24906"}], "txid": "1b3815f5dff6e4bec8a4337698666cdd7aa9eec3a64d0f67269de5fee1c1cce2", "blocktime": 1537876114, "version": 1, "confirmations": 11460, "time": 1537876114, "locktime": 0, "vsize": 224, "size": 224}