{"hash": "1b3ce5f0c1c5d9a5b190dee1a298c29e6c07e3aead4046a53fb0f1ec811a9c2e", "blockhash": "00000000000000000024a2167bbff67b0be802c0b01cdd79e6331c2be6459f87", "vout": [{"scriptPubKey": {"reqSigs": 1, "hex": "76a91497396627658db8a0f00783f5591794542f0264b188ac", "addresses": ["1Enbo83n943FM8xsC3iGKsjakijJ6KvygZ"], "asm": "OP_DUP OP_HASH160 97396627658db8a0f00783f5591794542f0264b1 OP_EQUALVERIFY OP_CHECKSIG", "type": "pubkeyhash"}, "value": 1.001e-05, "n": 0}, {"scriptPubKey": {"reqSigs": 1, "hex": "76a914018b837637c83058bfeee09b596bc7ed7e02044c88ac", "addresses": ["19AomA5uBamRNZTYvznKdoq4e6iCs1LaL"], "asm": "OP_DUP OP_HASH160 018b837637c83058bfeee09b596bc7ed7e02044c OP_EQUALVERIFY OP_CHECKSIG", "type": "pubkeyhash"}, "value": 0.00502696, "n": 1}], "hex": "0100000001258079cb9a5b93e58eba6352d7860c215c8e07813cb6cc6c86ffba28e80e1e42010000006a4730440220616bfd639316d60448fe098ee57aa0bf329b6c661f42bf5fdb0f570fb3af0242022057054bc865f6d848078831c62638022a8d1438ad2d342fe807c94b8a5b32f8ef01210217079125f91d16abdec7603158261c4140a482206a1026bd5cc7d4749d122644ffffffff02e9030000000000001976a91497396627658db8a0f00783f5591794542f0264b188aca8ab0700000000001976a914018b837637c83058bfeee09b596bc7ed7e02044c88ac00000000", "vin": [{"sequence": 4294967295, "scriptSig": {"hex": "4730440220616bfd639316d60448fe098ee57aa0bf329b6c661f42bf5fdb0f570fb3af0242022057054bc865f6d848078831c62638022a8d1438ad2d342fe807c94b8a5b32f8ef01210217079125f91d16abdec7603158261c4140a482206a1026bd5cc7d4749d122644", "asm": "30440220616bfd639316d60448fe098ee57aa0bf329b6c661f42bf5fdb0f570fb3af0242022057054bc865f6d848078831c62638022a8d1438ad2d342fe807c94b8a5b32f8ef[ALL] 0217079125f91d16abdec7603158261c4140a482206a1026bd5cc7d4749d122644"}, "vout": 1, "txid": "421e0ee828baff866cccb63c81078e5c210c86d75263ba8ee5935b9acb798025"}], "txid": "1b3ce5f0c1c5d9a5b190dee1a298c29e6c07e3aead4046a53fb0f1ec811a9c2e", "blocktime": 1537870564, "version": 1, "confirmations": 11515, "time": 1537870564, "locktime": 0, "vsize": 225, "size": 225}