{"hash": "1b3f69d5c418a05ff578f5639179a34e90cabaf33dff977b66eb82c91b58125d", "blockhash": "0000000000000000000baef3f32e3676a92c3b2e5da21b426e4f302fc371ce76", "vout": [{"scriptPubKey": {"reqSigs": 1, "hex": "76a914f862899db9271a69a80b29a49cb718ba086f985888ac", "addresses": ["1PeLd5s3kD3UBNjHn5dLLrxnPtKYUeaEr9"], "asm": "OP_DUP OP_HASH160 f862899db9271a69a80b29a49cb718ba086f9858 OP_EQUALVERIFY OP_CHECKSIG", "type": "pubkeyhash"}, "value": 0.12938349, "n": 0}, {"scriptPubKey": {"reqSigs": 1, "hex": "a914d732e45a9a70c64ecc25d67605c313c6ea46faec87", "addresses": ["3MJtAproVnpT4HM1y5eaPwKXZHN7KSNVbR"], "asm": "OP_HASH160 d732e45a9a70c64ecc25d67605c313c6ea46faec OP_EQUAL", "type": "scripthash"}, "value": 0.46912237, "n": 1}], "hex": "01000000020849d18a07a6311b2713941a2904b02379e0e016b5a109b3cff2a44fa5230a3a010000006a473044022017b46952f689deba162b269e36e527cf4174f642ddf5c66637a1a8a3a1e27a1d02200a97e4b70e928838681ee47eea8833593d2134168ed2e4daf7651145e22367b70121020f721931de1c3662f8d63c5f12ae79f5e007da490780434180082d2ab7df7f8bffffffff38252356a08753fd2f5ad05c965238195105d2fd52fd01bd3a829956e0c4ef45010000006a47304402204e591c6e50adc350076f95a7521efed4fe78f545518bea85935f9e92ae4b7c2d02205f0558876309e886b0ac49772a71496d58d50a8d35e566008bc61be8d059669f0121030d7191c2775fb98a0553546ab4b881188ee9b0a093e4bbbbdc72a2cddae80330ffffffff026d6cc500000000001976a914f862899db9271a69a80b29a49cb718ba086f985888acedd2cb020000000017a914d732e45a9a70c64ecc25d67605c313c6ea46faec8700000000", "vin": [{"sequence": 4294967295, "scriptSig": {"hex": "473044022017b46952f689deba162b269e36e527cf4174f642ddf5c66637a1a8a3a1e27a1d02200a97e4b70e928838681ee47eea8833593d2134168ed2e4daf7651145e22367b70121020f721931de1c3662f8d63c5f12ae79f5e007da490780434180082d2ab7df7f8b", "asm": "3044022017b46952f689deba162b269e36e527cf4174f642ddf5c66637a1a8a3a1e27a1d02200a97e4b70e928838681ee47eea8833593d2134168ed2e4daf7651145e22367b7[ALL] 020f721931de1c3662f8d63c5f12ae79f5e007da490780434180082d2ab7df7f8b"}, "vout": 1, "txid": "3a0a23a54fa4f2cfb309a1b516e0e07923b004291a9413271b31a6078ad14908"}, {"sequence": 4294967295, "scriptSig": {"hex": "47304402204e591c6e50adc350076f95a7521efed4fe78f545518bea85935f9e92ae4b7c2d02205f0558876309e886b0ac49772a71496d58d50a8d35e566008bc61be8d059669f0121030d7191c2775fb98a0553546ab4b881188ee9b0a093e4bbbbdc72a2cddae80330", "asm": "304402204e591c6e50adc350076f95a7521efed4fe78f545518bea85935f9e92ae4b7c2d02205f0558876309e886b0ac49772a71496d58d50a8d35e566008bc61be8d059669f[ALL] 030d7191c2775fb98a0553546ab4b881188ee9b0a093e4bbbbdc72a2cddae80330"}, "vout": 1, "txid": "45efc4e05699823abd01fd52fdd20551193852965cd05a2ffd5387a056232538"}], "txid": "1b3f69d5c418a05ff578f5639179a34e90cabaf33dff977b66eb82c91b58125d", "blocktime": 1537876114, "version": 1, "confirmations": 11459, "time": 1537876114, "locktime": 0, "vsize": 370, "size": 370}