{"hash": "1cc01986cf4877516d2edce029442ee5481ea4cbb4d8131967f928d26ac35ebd", "blockhash": "0000000000000000000baef3f32e3676a92c3b2e5da21b426e4f302fc371ce76", "vout": [{"scriptPubKey": {"reqSigs": 1, "hex": "76a91424d4e14918ba495160f37ab104f17573acba3c3e88ac", "addresses": ["14MkM51Tv31W9xMi2y89tcCnQrcCdTn7rt"], "asm": "OP_DUP OP_HASH160 24d4e14918ba495160f37ab104f17573acba3c3e OP_EQUALVERIFY OP_CHECKSIG", "type": "pubkeyhash"}, "value": 0.5702354, "n": 0}, {"scriptPubKey": {"reqSigs": 1, "hex": "a9140cb8bfc69e04682631165e374f1ce9b3145fa05f87", "addresses": ["32rHMSU9zH7Xdv3HTjcdHq1aziVUV5sui4"], "asm": "OP_HASH160 0cb8bfc69e04682631165e374f1ce9b3145fa05f OP_EQUAL", "type": "scripthash"}, "value": 2.53174472, "n": 1}], "hex": "02000000000101dd5356c2680324052306e620d7f639a0aaff608b342d2b273ff2b6f25582ea6302000000171600142ad1f0513f938a4dc183e13412bd7ece89fafb56ffffffff02341c6603000000001976a91424d4e14918ba495160f37ab104f17573acba3c3e88acc822170f0000000017a9140cb8bfc69e04682631165e374f1ce9b3145fa05f87024730440220648dca21308cd8bb9fc37b2dcb9086cf5198a3504efdc67421db5ae559d3db0c022029cb19169abc7f8f317dba2431e279555257472888e052464d5b0b32fc0c45fc0121030c40b2e2ee10d63af80c5b912c070106a5c1f45dcabfdee965c429c8451a1cc300000000", "vin": [{"txinwitness": ["30440220648dca21308cd8bb9fc37b2dcb9086cf5198a3504efdc67421db5ae559d3db0c022029cb19169abc7f8f317dba2431e279555257472888e052464d5b0b32fc0c45fc01", "030c40b2e2ee10d63af80c5b912c070106a5c1f45dcabfdee965c429c8451a1cc3"], "sequence": 4294967295, "scriptSig": {"hex": "1600142ad1f0513f938a4dc183e13412bd7ece89fafb56", "asm": "00142ad1f0513f938a4dc183e13412bd7ece89fafb56"}, "vout": 2, "txid": "63ea8255f2b6f23f272b2d348b60ffaaa039f6d720e6062305240368c25653dd"}], "txid": "1b425dac42d14a98c6c3193152feb961bec319ee407368a67513a145d83047bb", "blocktime": 1537876114, "version": 2, "confirmations": 11460, "time": 1537876114, "locktime": 0, "vsize": 168, "size": 249}