{"hash": "1b43d4afbd850164c38654bf49e3d4ff8d4da40e210d46061ba5fdc3086397a4", "blockhash": "0000000000000000001e0dab787dd257d1dbfcb92a98c2207d5e1078be1f4165", "vout": [{"scriptPubKey": {"reqSigs": 1, "hex": "a914a40f9f594997d9ff06ceafaef6c1e2d17942a81487", "addresses": ["3GeVTUHTekTRgqzyXvfKbwcVFZG8F1h6s9"], "asm": "OP_HASH160 a40f9f594997d9ff06ceafaef6c1e2d17942a814 OP_EQUAL", "type": "scripthash"}, "value": 0.01115616, "n": 0}, {"scriptPubKey": {"reqSigs": 1, "hex": "76a914dbfbe65a6faebd2ac46a3e22e32c5f4d60a59c2288ac", "addresses": ["1M4AkKPSH53BwYbq94D1j4XGPs5YF3AK6t"], "asm": "OP_DUP OP_HASH160 dbfbe65a6faebd2ac46a3e22e32c5f4d60a59c22 OP_EQUALVERIFY OP_CHECKSIG", "type": "pubkeyhash"}, "value": 0.09571023, "n": 1}], "hex": "010000000123deea0c72533ef713d49ef4fa6b5bff6bc04444d2de995b92f018c0cca5049f020000006a47304402207848a43999041d6858da8f52ad9701c744388a1b3d0019cedf9d8657c7d2f67d022002dcc6e6b75fa80a4be7e26142c031093a2abc1d7dcdd301d00a848b2e5cc0d1012102d53840fc555cbf3411347a38bbfb729588078a88678292ff2f6b0bc0f6e94e7bffffffff02e00511000000000017a914a40f9f594997d9ff06ceafaef6c1e2d17942a81487cf0a9200000000001976a914dbfbe65a6faebd2ac46a3e22e32c5f4d60a59c2288ac00000000", "vin": [{"sequence": 4294967295, "scriptSig": {"hex": "47304402207848a43999041d6858da8f52ad9701c744388a1b3d0019cedf9d8657c7d2f67d022002dcc6e6b75fa80a4be7e26142c031093a2abc1d7dcdd301d00a848b2e5cc0d1012102d53840fc555cbf3411347a38bbfb729588078a88678292ff2f6b0bc0f6e94e7b", "asm": "304402207848a43999041d6858da8f52ad9701c744388a1b3d0019cedf9d8657c7d2f67d022002dcc6e6b75fa80a4be7e26142c031093a2abc1d7dcdd301d00a848b2e5cc0d1[ALL] 02d53840fc555cbf3411347a38bbfb729588078a88678292ff2f6b0bc0f6e94e7b"}, "vout": 2, "txid": "9f04a5ccc018f0925b99ded24444c06bff5b6bfaf49ed413f73e53720ceade23"}], "txid": "1b43d4afbd850164c38654bf49e3d4ff8d4da40e210d46061ba5fdc3086397a4", "blocktime": 1537872475, "version": 1, "confirmations": 11486, "time": 1537872475, "locktime": 0, "vsize": 223, "size": 223}