{"hash": "1b451e84e42112af15a56e8f2148c7497496e00b2950e85d68bc5e3d97e44976", "blockhash": "0000000000000000000baef3f32e3676a92c3b2e5da21b426e4f302fc371ce76", "vout": [{"scriptPubKey": {"reqSigs": 1, "hex": "76a914916475a8f2e92489796e6d682c167374a52ef1c888ac", "addresses": ["1EFmKsYUsSChHNwMddsKgx4s5Yjbm13JUz"], "asm": "OP_DUP OP_HASH160 916475a8f2e92489796e6d682c167374a52ef1c8 OP_EQUALVERIFY OP_CHECKSIG", "type": "pubkeyhash"}, "value": 0.005, "n": 0}, {"scriptPubKey": {"reqSigs": 1, "hex": "76a91488d924f51033b74a895863a5fb57fd545529df7d88ac", "addresses": ["1DUb2YYbQA1jjaNYzVXLZ7ZioEhLXtbUru"], "asm": "OP_DUP OP_HASH160 88d924f51033b74a895863a5fb57fd545529df7d OP_EQUALVERIFY OP_CHECKSIG", "type": "pubkeyhash"}, "value": 0.36339918, "n": 1}], "hex": "0100000001af51eb74b80c5fb6e25af5417fc4af8ec4540feb6881db55bcbf04590b836bba010000006a47304402206af4dd69c10d0a97ed7636794045f353537ebf386d28babacf714859692f9527022079d89b9bc19a39e6c7129e26dc91808af8cbdd5be54740f4a5c4336cb8d088040121030888863fcb4cdf5b7d33b40e613af35df8f39d576e7972238b0d396cd3fcc3f2ffffffff0220a10700000000001976a914916475a8f2e92489796e6d682c167374a52ef1c888acce802a02000000001976a91488d924f51033b74a895863a5fb57fd545529df7d88ac00000000", "vin": [{"sequence": 4294967295, "scriptSig": {"hex": "47304402206af4dd69c10d0a97ed7636794045f353537ebf386d28babacf714859692f9527022079d89b9bc19a39e6c7129e26dc91808af8cbdd5be54740f4a5c4336cb8d088040121030888863fcb4cdf5b7d33b40e613af35df8f39d576e7972238b0d396cd3fcc3f2", "asm": "304402206af4dd69c10d0a97ed7636794045f353537ebf386d28babacf714859692f9527022079d89b9bc19a39e6c7129e26dc91808af8cbdd5be54740f4a5c4336cb8d08804[ALL] 030888863fcb4cdf5b7d33b40e613af35df8f39d576e7972238b0d396cd3fcc3f2"}, "vout": 1, "txid": "ba6b830b5904bfbc55db8168eb0f54c48eafc47f41f55ae2b65f0cb874eb51af"}], "txid": "1b451e84e42112af15a56e8f2148c7497496e00b2950e85d68bc5e3d97e44976", "blocktime": 1537876114, "version": 1, "confirmations": 11459, "time": 1537876114, "locktime": 0, "vsize": 225, "size": 225}