{"hash": "1b4a27d264f1dfa547cd6b7ae29ba365b4e71314531a3495f62391004a29d3db", "blockhash": "0000000000000000000dcc0f55137456b1a82d3642486a52398922ac4d620174", "vout": [{"scriptPubKey": {"reqSigs": 1, "hex": "76a914588221d2f79ab2309f32fb28647963a03275514488ac", "addresses": ["194zMcwXswZtkMdpoX9BYDc4T4iGqW1G61"], "asm": "OP_DUP OP_HASH160 588221d2f79ab2309f32fb28647963a032755144 OP_EQUALVERIFY OP_CHECKSIG", "type": "pubkeyhash"}, "value": 0.00028948, "n": 0}], "hex": "010000000173a5947cc24eab5ca967ede391cf7d34c5d1f828c51190d0a43c989cee5de7a60b0000006a47304402206aa09d6cf9e50b7827c09d549faec006bc69efe770369354db47dda1c62e7ca90220717c74141bda0b2eae8784ae873099c5e626ccebea2d6a1c91a9e6a3a246c0790121027404723c71914c26fc6ed3c0174699086bbbbaaf77b72cfc0344a3b45bc787d7ffffffff0114710000000000001976a914588221d2f79ab2309f32fb28647963a03275514488ac00000000", "vin": [{"sequence": 4294967295, "scriptSig": {"hex": "47304402206aa09d6cf9e50b7827c09d549faec006bc69efe770369354db47dda1c62e7ca90220717c74141bda0b2eae8784ae873099c5e626ccebea2d6a1c91a9e6a3a246c0790121027404723c71914c26fc6ed3c0174699086bbbbaaf77b72cfc0344a3b45bc787d7", "asm": "304402206aa09d6cf9e50b7827c09d549faec006bc69efe770369354db47dda1c62e7ca90220717c74141bda0b2eae8784ae873099c5e626ccebea2d6a1c91a9e6a3a246c079[ALL] 027404723c71914c26fc6ed3c0174699086bbbbaaf77b72cfc0344a3b45bc787d7"}, "vout": 11, "txid": "a6e75dee9c983ca4d09011c528f8d1c5347dcf91e3ed67a95cab4ec27c94a573"}], "txid": "1b4a27d264f1dfa547cd6b7ae29ba365b4e71314531a3495f62391004a29d3db", "blocktime": 1537870268, "version": 1, "confirmations": 11518, "time": 1537870268, "locktime": 0, "vsize": 191, "size": 191}