{"hash": "1b4e7ade57c684e98d88b1e3341391836d8f648ef37477c99bdf1d2b076300a0", "blockhash": "0000000000000000001cda96e906b7601b7a6fb1a3b62bca570a9e5d8f4b3de1", "vout": [{"scriptPubKey": {"reqSigs": 1, "hex": "76a91416ebc3a308d43a798f87b04f21c501cfa41c254788ac", "addresses": ["136CJQTnpR72obVX43uF5YsVGoB6uYrFp9"], "asm": "OP_DUP OP_HASH160 16ebc3a308d43a798f87b04f21c501cfa41c2547 OP_EQUALVERIFY OP_CHECKSIG", "type": "pubkeyhash"}, "value": 0.04996, "n": 0}], "hex": "0100000001fbdf7a4623a6d888b31713ed04832ba86a4fc98d04fb98c10972f2520e16a0a5000000006a47304402205ad3efa67f26eb4285579a188c64f04c1f2f51d811fefeb9abd11b0a659cfcad022042331bcfde3dcf9bb7207e013cec10c1b959e75cce5fe503c9569a6ebb55e4d5012102b0f6c87c8c5d76643d682778f674f3bdac57d27a8a4f8a6df6428dadda894fb1ffffffff01a03b4c00000000001976a91416ebc3a308d43a798f87b04f21c501cfa41c254788ac00000000", "vin": [{"sequence": 4294967295, "scriptSig": {"hex": "47304402205ad3efa67f26eb4285579a188c64f04c1f2f51d811fefeb9abd11b0a659cfcad022042331bcfde3dcf9bb7207e013cec10c1b959e75cce5fe503c9569a6ebb55e4d5012102b0f6c87c8c5d76643d682778f674f3bdac57d27a8a4f8a6df6428dadda894fb1", "asm": "304402205ad3efa67f26eb4285579a188c64f04c1f2f51d811fefeb9abd11b0a659cfcad022042331bcfde3dcf9bb7207e013cec10c1b959e75cce5fe503c9569a6ebb55e4d5[ALL] 02b0f6c87c8c5d76643d682778f674f3bdac57d27a8a4f8a6df6428dadda894fb1"}, "vout": 0, "txid": "a5a0160e52f27209c198fb048dc94f6aa82b8304ed1317b388d8a623467adffb"}], "txid": "1b4e7ade57c684e98d88b1e3341391836d8f648ef37477c99bdf1d2b076300a0", "blocktime": 1537873282, "version": 1, "confirmations": 11480, "time": 1537873282, "locktime": 0, "vsize": 191, "size": 191}