{"hash": "1b555872df9ac7df887447381145ce6654ee4c59ace1b89d4bfdfef766c170da", "blockhash": "0000000000000000000e13cef7c366c0283d82e591d1acd082e914b08063cdf1", "vout": [{"scriptPubKey": {"reqSigs": 1, "hex": "76a914188ddecfe02a629bff290854c8c3b2a19e72376288ac", "addresses": ["13EqAvuDHJ4ba9LaZ1zioDPqvtkrU4dzc2"], "asm": "OP_DUP OP_HASH160 188ddecfe02a629bff290854c8c3b2a19e723762 OP_EQUALVERIFY OP_CHECKSIG", "type": "pubkeyhash"}, "value": 0.001018, "n": 0}, {"scriptPubKey": {"type": "nulldata", "hex": "6a4c500000779c000114a898f23fe1bc665f662dbfe3ef3236678a625097bcbefa6b8351586b4eba21a813ee8def98f42073a9709d8c795baa0d99061567b421566cf6bc9a9526289ac0f6612cd74e33776ee4", "asm": "OP_RETURN 0000779c000114a898f23fe1bc665f662dbfe3ef3236678a625097bcbefa6b8351586b4eba21a813ee8def98f42073a9709d8c795baa0d99061567b421566cf6bc9a9526289ac0f6612cd74e33776ee4"}, "value": 0.0, "n": 1}], "hex": "0100000001b50048dc0eeb60d130889568fd8886792e7d829e6896fe8174c5bd88d8f8d911000000006a4730440220033edecb787d62f26486a8cee37735719e948e9678872c9f0e39b8ce29b30e1502202f5511db3809485de045abf1b852239e11d915010edce4933866972a4259ecfc012103eaffea05dc06f707215e472835a62c0f6b78663778094e8ba671f5d50154a627ffffffff02a88d0100000000001976a914188ddecfe02a629bff290854c8c3b2a19e72376288ac0000000000000000536a4c500000779c000114a898f23fe1bc665f662dbfe3ef3236678a625097bcbefa6b8351586b4eba21a813ee8def98f42073a9709d8c795baa0d99061567b421566cf6bc9a9526289ac0f6612cd74e33776ee400000000", "vin": [{"sequence": 4294967295, "scriptSig": {"hex": "4730440220033edecb787d62f26486a8cee37735719e948e9678872c9f0e39b8ce29b30e1502202f5511db3809485de045abf1b852239e11d915010edce4933866972a4259ecfc012103eaffea05dc06f707215e472835a62c0f6b78663778094e8ba671f5d50154a627", "asm": "30440220033edecb787d62f26486a8cee37735719e948e9678872c9f0e39b8ce29b30e1502202f5511db3809485de045abf1b852239e11d915010edce4933866972a4259ecfc[ALL] 03eaffea05dc06f707215e472835a62c0f6b78663778094e8ba671f5d50154a627"}, "vout": 0, "txid": "11d9f8d888bdc57481fe96689e827d2e798688fd68958830d160eb0edc4800b5"}], "txid": "1b555872df9ac7df887447381145ce6654ee4c59ace1b89d4bfdfef766c170da", "blocktime": 1537871767, "version": 1, "confirmations": 11493, "time": 1537871767, "locktime": 0, "vsize": 283, "size": 283}