{"hash": "1b62f573cec7e18756f320240b2d83c462f3be5ba2213c22daa40a571e272333", "blockhash": "00000000000000000017f5eb5941039fbcee6240d03bc1f2f8e35350df66a1d8", "vout": [{"scriptPubKey": {"type": "nulldata", "hex": "6a146f6d6e69000000000000001f00000129f2469980", "asm": "OP_RETURN 6f6d6e69000000000000001f00000129f2469980"}, "value": 0.0, "n": 0}, {"scriptPubKey": {"reqSigs": 1, "hex": "a914efb192e0a32c4afc8c8dc14ea61088452fd5756987", "addresses": ["3PYQ9Rx7bpXoo3UCRftSxo8bN8vRQ24sMm"], "asm": "OP_HASH160 efb192e0a32c4afc8c8dc14ea61088452fd57569 OP_EQUAL", "type": "scripthash"}, "value": 5.4e-06, "n": 1}, {"scriptPubKey": {"reqSigs": 1, "hex": "76a914a25dec4d0011064ef106a983c39c7a540699f22088ac", "addresses": ["1FoWyxwPXuj4C6abqwhjDWdz6D4PZgYRjA"], "asm": "OP_DUP OP_HASH160 a25dec4d0011064ef106a983c39c7a540699f220 OP_EQUALVERIFY OP_CHECKSIG", "type": "pubkeyhash"}, "value": 0.01995227, "n": 2}], "hex": "0100000001a44813c76173a4fe9689194c29809e35be05f1741d9b5e1e9e8bd44070ac1fea870000006b483045022100eb7279a396d959da4d48f017f61f305daba6e635286449c0320b7facdfd3907d022026db0909410bafc803e64c813d6c0cbaa1df6ba2c3c641cb0925a493ce3f55d6012103da5bac7b36d5aa38f531c6b9601e21bb598a4b6716ebed38b009a55dabde9440feffffff030000000000000000166a146f6d6e69000000000000001f00000129f24699801c0200000000000017a914efb192e0a32c4afc8c8dc14ea61088452fd5756987db711e00000000001976a914a25dec4d0011064ef106a983c39c7a540699f22088ac15490800", "vin": [{"sequence": 4294967294, "scriptSig": {"hex": "483045022100eb7279a396d959da4d48f017f61f305daba6e635286449c0320b7facdfd3907d022026db0909410bafc803e64c813d6c0cbaa1df6ba2c3c641cb0925a493ce3f55d6012103da5bac7b36d5aa38f531c6b9601e21bb598a4b6716ebed38b009a55dabde9440", "asm": "3045022100eb7279a396d959da4d48f017f61f305daba6e635286449c0320b7facdfd3907d022026db0909410bafc803e64c813d6c0cbaa1df6ba2c3c641cb0925a493ce3f55d6[ALL] 03da5bac7b36d5aa38f531c6b9601e21bb598a4b6716ebed38b009a55dabde9440"}, "vout": 135, "txid": "ea1fac7040d48b9e1e5e9b1d74f105be359e80294c198996fea47361c71348a4"}], "txid": "1b62f573cec7e18756f320240b2d83c462f3be5ba2213c22daa40a571e272333", "blocktime": 1537874412, "version": 1, "confirmations": 11467, "time": 1537874412, "locktime": 542997, "vsize": 255, "size": 255}