{"hash": "1b6d5cc738d405de77f9426ed40d1a834136453fa0787fe86b97f5b9f76d1484", "blockhash": "0000000000000000001cda96e906b7601b7a6fb1a3b62bca570a9e5d8f4b3de1", "vout": [{"scriptPubKey": {"reqSigs": 1, "hex": "76a9144c1432fcf12e6c89c040f557323eb894cc4c4ae488ac", "addresses": ["17wGZ3SwNxTsz2D9rMynkSna1wEcpfhRMt"], "asm": "OP_DUP OP_HASH160 4c1432fcf12e6c89c040f557323eb894cc4c4ae4 OP_EQUALVERIFY OP_CHECKSIG", "type": "pubkeyhash"}, "value": 7.82857803, "n": 0}, {"scriptPubKey": {"reqSigs": 1, "hex": "76a914af0477a7893ff2c2f0dd9b2b05002bb83934429088ac", "addresses": ["1GxQbyJXaBC9E3ftV2Dz4mzEHqs9zJcUq4"], "asm": "OP_DUP OP_HASH160 af0477a7893ff2c2f0dd9b2b05002bb839344290 OP_EQUALVERIFY OP_CHECKSIG", "type": "pubkeyhash"}, "value": 25.0, "n": 1}], "hex": "01000000011285661b6e3e284ce88ddf5f36ed175055379cb62c95f95ff82267f71f97a5ac010000006b4830450221008d4c2efac32465b9e8e4f681654f6cbf98c53dc8ec50088a81668f1b2e0f2dd702200ac01cbfacbcaf10bd27cf310c77d463ceb0577ea9b69b96ec3fbf8dfdcbde1501210399485dd50c9519fe56128ea9f3505cb2a7e531114a5091fbdce7a7f692edbe8dffffffff024b76a92e000000001976a9144c1432fcf12e6c89c040f557323eb894cc4c4ae488ac00f90295000000001976a914af0477a7893ff2c2f0dd9b2b05002bb83934429088ac00000000", "vin": [{"sequence": 4294967295, "scriptSig": {"hex": "4830450221008d4c2efac32465b9e8e4f681654f6cbf98c53dc8ec50088a81668f1b2e0f2dd702200ac01cbfacbcaf10bd27cf310c77d463ceb0577ea9b69b96ec3fbf8dfdcbde1501210399485dd50c9519fe56128ea9f3505cb2a7e531114a5091fbdce7a7f692edbe8d", "asm": "30450221008d4c2efac32465b9e8e4f681654f6cbf98c53dc8ec50088a81668f1b2e0f2dd702200ac01cbfacbcaf10bd27cf310c77d463ceb0577ea9b69b96ec3fbf8dfdcbde15[ALL] 0399485dd50c9519fe56128ea9f3505cb2a7e531114a5091fbdce7a7f692edbe8d"}, "vout": 1, "txid": "aca5971ff76722f85ff9952cb69c37555017ed365fdf8de84c283e6e1b668512"}], "txid": "1b6d5cc738d405de77f9426ed40d1a834136453fa0787fe86b97f5b9f76d1484", "blocktime": 1537873282, "version": 1, "confirmations": 11485, "time": 1537873282, "locktime": 0, "vsize": 226, "size": 226}