{"hash": "1b6f44e2a87e5ee61e2634acc805f2a35bb3494150c16365a9b0f0343dc1d645", "blockhash": "0000000000000000001f76057863aec43deb6fa401d9628bb513d65a8098bfab", "vout": [{"scriptPubKey": {"reqSigs": 1, "hex": "76a91452f4f24596afaabcdc6e005c5af7d7b40345505a88ac", "addresses": ["18ZdquMBFQV53kqwjw7DFkKymNCPeA9TXE"], "asm": "OP_DUP OP_HASH160 52f4f24596afaabcdc6e005c5af7d7b40345505a OP_EQUALVERIFY OP_CHECKSIG", "type": "pubkeyhash"}, "value": 0.03699, "n": 0}], "hex": "0100000001605c7de5f5d814bbeb6d5258f86ee80fb42b096f1fc62978966e6f02acf2c9a7000000006a47304402203a333c724f5b4c48c37bd47e540706f4ae3bd72e4ab430ec0a2bc8c482db833102200771a9f8177ce29138624c36d722bafc26facb39e424f96ca68b126c5eff5406012103463c5413326d293072f73ea68ba7ed773f47a419e7a4feb4370f8a7528705c7effffffff0138713800000000001976a91452f4f24596afaabcdc6e005c5af7d7b40345505a88ac00000000", "vin": [{"sequence": 4294967295, "scriptSig": {"hex": "47304402203a333c724f5b4c48c37bd47e540706f4ae3bd72e4ab430ec0a2bc8c482db833102200771a9f8177ce29138624c36d722bafc26facb39e424f96ca68b126c5eff5406012103463c5413326d293072f73ea68ba7ed773f47a419e7a4feb4370f8a7528705c7e", "asm": "304402203a333c724f5b4c48c37bd47e540706f4ae3bd72e4ab430ec0a2bc8c482db833102200771a9f8177ce29138624c36d722bafc26facb39e424f96ca68b126c5eff5406[ALL] 03463c5413326d293072f73ea68ba7ed773f47a419e7a4feb4370f8a7528705c7e"}, "vout": 0, "txid": "a7c9f2ac026f6e967829c61f6f092bb40fe86ef858526debbb14d8f5e57d5c60"}], "txid": "1b6f44e2a87e5ee61e2634acc805f2a35bb3494150c16365a9b0f0343dc1d645", "blocktime": 1537873891, "version": 1, "confirmations": 11477, "time": 1537873891, "locktime": 0, "vsize": 191, "size": 191}