{"hash": "1b70901317657375157a644ea6da49c0b76801a3f940165b4c2d71353a4623a9", "blockhash": "0000000000000000001f76057863aec43deb6fa401d9628bb513d65a8098bfab", "vout": [{"scriptPubKey": {"reqSigs": 1, "hex": "76a91471664f6bf053687dc3a047fcb9b694ba0c7331b188ac", "addresses": ["1BLbvKPMHFBDTQV8g9yVkwS8Dnxb6NBKxS"], "asm": "OP_DUP OP_HASH160 71664f6bf053687dc3a047fcb9b694ba0c7331b1 OP_EQUALVERIFY OP_CHECKSIG", "type": "pubkeyhash"}, "value": 0.07444643, "n": 0}, {"scriptPubKey": {"reqSigs": 1, "hex": "a914925391abac58d6e7df4a7d4ecbeb265657f4efd187", "addresses": ["3F2ih2coSaYuRGfBrbajrjoVFcTLJDRncw"], "asm": "OP_HASH160 925391abac58d6e7df4a7d4ecbeb265657f4efd1 OP_EQUAL", "type": "scripthash"}, "value": 0.075, "n": 1}], "hex": "01000000018005be5cdc6373feaa8f8acfeae7a08f67ba137760853d534deed711657b3ce1010000006a4730440220629e9530fdd6ec9b2ec6e06413eb4c178fb24083fa86fa8165f02a6310d34c38022038bcd8f656c222db6ad0e71fa1d46995fcc7099c3913932273e0fb1c11bfff4d012102f166290dd549f94e3aa532a3797e841dd0dfb7543a5be26fbf5a3fc5b5ae7f0bfeffffff02a3987100000000001976a91471664f6bf053687dc3a047fcb9b694ba0c7331b188ace07072000000000017a914925391abac58d6e7df4a7d4ecbeb265657f4efd18714490800", "vin": [{"sequence": 4294967294, "scriptSig": {"hex": "4730440220629e9530fdd6ec9b2ec6e06413eb4c178fb24083fa86fa8165f02a6310d34c38022038bcd8f656c222db6ad0e71fa1d46995fcc7099c3913932273e0fb1c11bfff4d012102f166290dd549f94e3aa532a3797e841dd0dfb7543a5be26fbf5a3fc5b5ae7f0b", "asm": "30440220629e9530fdd6ec9b2ec6e06413eb4c178fb24083fa86fa8165f02a6310d34c38022038bcd8f656c222db6ad0e71fa1d46995fcc7099c3913932273e0fb1c11bfff4d[ALL] 02f166290dd549f94e3aa532a3797e841dd0dfb7543a5be26fbf5a3fc5b5ae7f0b"}, "vout": 1, "txid": "e13c7b6511d7ee4d533d85607713ba678fa0e7eacf8a8faafe7363dc5cbe0580"}], "txid": "1b70901317657375157a644ea6da49c0b76801a3f940165b4c2d71353a4623a9", "blocktime": 1537873891, "version": 1, "confirmations": 11478, "time": 1537873891, "locktime": 542996, "vsize": 223, "size": 223}