{"hash": "1b7af1f257f5e640824ab608231799c2fc24db04ef4f59e83922b06146178f1f", "blockhash": "00000000000000000017f5eb5941039fbcee6240d03bc1f2f8e35350df66a1d8", "vout": [{"scriptPubKey": {"type": "nulldata", "hex": "6a4c50000077fb0001ad94c442498fb31b8879f8e9d19ed074892d00f8e87af8e8e963c7cfd5b918f65a97f0b75e2091fc33d1d8c176d15baa195706140ff80b1625e11d100759d4ba30d2c37bb011d97e02cf", "asm": "OP_RETURN 000077fb0001ad94c442498fb31b8879f8e9d19ed074892d00f8e87af8e8e963c7cfd5b918f65a97f0b75e2091fc33d1d8c176d15baa195706140ff80b1625e11d100759d4ba30d2c37bb011d97e02cf"}, "value": 0.0, "n": 0}, {"scriptPubKey": {"reqSigs": 1, "hex": "76a9147353afd087d3854565facab30d8d6ce5a225765088ac", "addresses": ["1BWnxijmXfPLqaHPq4d2bMosem1vp3pE8e"], "asm": "OP_DUP OP_HASH160 7353afd087d3854565facab30d8d6ce5a2257650 OP_EQUALVERIFY OP_CHECKSIG", "type": "pubkeyhash"}, "value": 0.00634916, "n": 1}], "hex": "01000000018c18f81f201f76f9ed844962b25d45b4d9f38b03044fab4c0fda1f1a1b859b80010000006a473044022045824428e92f8974683178159d504399d6146bbc60e13fd5e12dc4ec8b4d71950220218a92dbde1ca538987b971608abea7a211b71b0b78871edd7912b658337ea58012102196c4835d465fdeaa1083791d4659dd42ffeae08f945bebd10169b2313ba020effffffff020000000000000000536a4c50000077fb0001ad94c442498fb31b8879f8e9d19ed074892d00f8e87af8e8e963c7cfd5b918f65a97f0b75e2091fc33d1d8c176d15baa195706140ff80b1625e11d100759d4ba30d2c37bb011d97e02cf24b00900000000001976a9147353afd087d3854565facab30d8d6ce5a225765088ac00000000", "vin": [{"sequence": 4294967295, "scriptSig": {"hex": "473044022045824428e92f8974683178159d504399d6146bbc60e13fd5e12dc4ec8b4d71950220218a92dbde1ca538987b971608abea7a211b71b0b78871edd7912b658337ea58012102196c4835d465fdeaa1083791d4659dd42ffeae08f945bebd10169b2313ba020e", "asm": "3044022045824428e92f8974683178159d504399d6146bbc60e13fd5e12dc4ec8b4d71950220218a92dbde1ca538987b971608abea7a211b71b0b78871edd7912b658337ea58[ALL] 02196c4835d465fdeaa1083791d4659dd42ffeae08f945bebd10169b2313ba020e"}, "vout": 1, "txid": "809b851b1a1fda0f4cab4f04038bf3d9b4455db2624984edf9761f201ff8188c"}], "txid": "1b7af1f257f5e640824ab608231799c2fc24db04ef4f59e83922b06146178f1f", "blocktime": 1537874412, "version": 1, "confirmations": 11467, "time": 1537874412, "locktime": 0, "vsize": 283, "size": 283}