{"hash": "1b7a4ec9cbc021bec414a13e8072712942ea9be5e44c580348b3026a60620019", "blockhash": "000000000000000000022b45ed06c6f4ccd3cf7fb5ba4856ebd2e58215665228", "vout": [{"scriptPubKey": {"reqSigs": 1, "hex": "76a9141cae5f464623c27b606e868d86730803795fe87888ac", "addresses": ["13ceoxnKoq5MGXcgmrtqxakmiXbBbcfNbP"], "asm": "OP_DUP OP_HASH160 1cae5f464623c27b606e868d86730803795fe878 OP_EQUALVERIFY OP_CHECKSIG", "type": "pubkeyhash"}, "value": 0.0808804, "n": 0}, {"scriptPubKey": {"reqSigs": 1, "hex": "76a9144b7f2d591b346e598b56be115314c7ce7fa47b6188ac", "addresses": ["17tC2oyes8Do6ZPnjZhNVgkiU718iz593b"], "asm": "OP_DUP OP_HASH160 4b7f2d591b346e598b56be115314c7ce7fa47b61 OP_EQUALVERIFY OP_CHECKSIG", "type": "pubkeyhash"}, "value": 5e-05, "n": 1}], "hex": "0100000001660a6a5bf911a1d7cb6ffd6a36a2ecf1c11cc312d52963c678957cc55131c602010000006a4730440220027f5e9ff5dcf07f26e08f2ba7e3eb60d5b6c07f839c4f6e6f7433ce6d3f7dfb02204385a524cc77292c016188424a67b99ca3923940b836ff2f4ac5c28eed4caaea012103fddc0c677f395d4805411b002342f5486ec0288de1acd5b86c77af4fedf1e850feffffff02e8697b00000000001976a9141cae5f464623c27b606e868d86730803795fe87888ac88130000000000001976a9144b7f2d591b346e598b56be115314c7ce7fa47b6188ac0b490800", "vin": [{"sequence": 4294967294, "scriptSig": {"hex": "4730440220027f5e9ff5dcf07f26e08f2ba7e3eb60d5b6c07f839c4f6e6f7433ce6d3f7dfb02204385a524cc77292c016188424a67b99ca3923940b836ff2f4ac5c28eed4caaea012103fddc0c677f395d4805411b002342f5486ec0288de1acd5b86c77af4fedf1e850", "asm": "30440220027f5e9ff5dcf07f26e08f2ba7e3eb60d5b6c07f839c4f6e6f7433ce6d3f7dfb02204385a524cc77292c016188424a67b99ca3923940b836ff2f4ac5c28eed4caaea[ALL] 03fddc0c677f395d4805411b002342f5486ec0288de1acd5b86c77af4fedf1e850"}, "vout": 1, "txid": "02c63151c57c9578c66329d512c31cc1f1eca2366afd6fcbd7a111f95b6a0a66"}], "txid": "1b7a4ec9cbc021bec414a13e8072712942ea9be5e44c580348b3026a60620019", "blocktime": 1537869901, "version": 1, "confirmations": 11522, "time": 1537869901, "locktime": 542987, "vsize": 225, "size": 225}