{"hash": "1b7ccefb928dbe9a4b8ea221d7e5d22872f0e71b8af8ebb5ef9981fe67afb5aa", "blockhash": "00000000000000000017f5eb5941039fbcee6240d03bc1f2f8e35350df66a1d8", "vout": [{"scriptPubKey": {"reqSigs": 1, "hex": "a914ddad8ed9b5503f89ec42b4d7b65155292e8ae4eb87", "addresses": ["3Mu9AxeJt2ZVjAjA1vRcDwYPjqW6YvCifM"], "asm": "OP_HASH160 ddad8ed9b5503f89ec42b4d7b65155292e8ae4eb OP_EQUAL", "type": "scripthash"}, "value": 0.003094, "n": 0}, {"scriptPubKey": {"reqSigs": 1, "hex": "76a91406194b8f66440fddf220539ea53a4223b18a587088ac", "addresses": ["1ZFMgynCxmyStMHMS6cGTMbJdjhD8j4wW"], "asm": "OP_DUP OP_HASH160 06194b8f66440fddf220539ea53a4223b18a5870 OP_EQUALVERIFY OP_CHECKSIG", "type": "pubkeyhash"}, "value": 0.00561505, "n": 1}], "hex": "01000000019a675bbf7677bda24ad5d9f871c8428c20aa0ff8e72f9c8b2d3cbace5610c6a9010000006b483045022100ea3b234b0d3cc69356188d589a355bacae2ca3d5e4bb3c1a72815278bd6052220220024cc67cd012940b58bf658cd888c41598e4d36159f58430c9b9532a7000609d0121033926d33f4dab023d482cc5d3d3923438f5a092eea5c0e1ab61ce037fd255688fffffffff0298b804000000000017a914ddad8ed9b5503f89ec42b4d7b65155292e8ae4eb8761910800000000001976a91406194b8f66440fddf220539ea53a4223b18a587088ac00000000", "vin": [{"sequence": 4294967295, "scriptSig": {"hex": "483045022100ea3b234b0d3cc69356188d589a355bacae2ca3d5e4bb3c1a72815278bd6052220220024cc67cd012940b58bf658cd888c41598e4d36159f58430c9b9532a7000609d0121033926d33f4dab023d482cc5d3d3923438f5a092eea5c0e1ab61ce037fd255688f", "asm": "3045022100ea3b234b0d3cc69356188d589a355bacae2ca3d5e4bb3c1a72815278bd6052220220024cc67cd012940b58bf658cd888c41598e4d36159f58430c9b9532a7000609d[ALL] 033926d33f4dab023d482cc5d3d3923438f5a092eea5c0e1ab61ce037fd255688f"}, "vout": 1, "txid": "a9c61056ceba3c2d8b9c2fe7f80faa208c42c871f8d9d54aa2bd7776bf5b679a"}], "txid": "1b7ccefb928dbe9a4b8ea221d7e5d22872f0e71b8af8ebb5ef9981fe67afb5aa", "blocktime": 1537874412, "version": 1, "confirmations": 11467, "time": 1537874412, "locktime": 0, "vsize": 224, "size": 224}