{"hash": "1b81e3f2fa4b9031bbe93f1e03f3ee67f58602df875aaaf7dab434b80c7ae1c6", "blockhash": "00000000000000000004ffacab907a6b429b9a5745fa0b75af4234bf69dd7176", "vout": [{"scriptPubKey": {"reqSigs": 1, "hex": "a9144cb80a4d2277bc74c9b266f93bc729040d3aa79187", "addresses": ["38gfkToPVDduMwZdUdzEdmt8vBmjirujSW"], "asm": "OP_HASH160 4cb80a4d2277bc74c9b266f93bc729040d3aa791 OP_EQUAL", "type": "scripthash"}, "value": 0.00119, "n": 0}, {"scriptPubKey": {"reqSigs": 1, "hex": "76a91494fdd9836aeeec829388f97fccdf0b014de298ea88ac", "addresses": ["1Eao7B8LmoaA2wXQFXGe9PvP8egWHa3XRd"], "asm": "OP_DUP OP_HASH160 94fdd9836aeeec829388f97fccdf0b014de298ea OP_EQUALVERIFY OP_CHECKSIG", "type": "pubkeyhash"}, "value": 0.01423612, "n": 1}], "hex": "01000000018877fe21d36a32ff0dc58236901a5ac5d83030ea1436a9a58cfdde7e6f48288a010000006b483045022100d6073bb7c3d103174fb5e99f04ce286dfa6ffde27e68f8e13d7ac442d99b96e0022003b1ea14ec0a4904e75cacce216e44ecb617b75ba8d7bc21b746ec4d2660b27a0121027dfdc6da647c36ff7dc4d2f51b283f46590f69e421d824ebb0a95fe97342ee51ffffffff02d8d001000000000017a9144cb80a4d2277bc74c9b266f93bc729040d3aa79187fcb81500000000001976a91494fdd9836aeeec829388f97fccdf0b014de298ea88ac00000000", "vin": [{"sequence": 4294967295, "scriptSig": {"hex": "483045022100d6073bb7c3d103174fb5e99f04ce286dfa6ffde27e68f8e13d7ac442d99b96e0022003b1ea14ec0a4904e75cacce216e44ecb617b75ba8d7bc21b746ec4d2660b27a0121027dfdc6da647c36ff7dc4d2f51b283f46590f69e421d824ebb0a95fe97342ee51", "asm": "3045022100d6073bb7c3d103174fb5e99f04ce286dfa6ffde27e68f8e13d7ac442d99b96e0022003b1ea14ec0a4904e75cacce216e44ecb617b75ba8d7bc21b746ec4d2660b27a[ALL] 027dfdc6da647c36ff7dc4d2f51b283f46590f69e421d824ebb0a95fe97342ee51"}, "vout": 1, "txid": "8a28486f7edefd8ca5a93614ea3030d8c55a1a903682c50dff326ad321fe7788"}], "txid": "1b81e3f2fa4b9031bbe93f1e03f3ee67f58602df875aaaf7dab434b80c7ae1c6", "blocktime": 1537875543, "version": 1, "confirmations": 11464, "time": 1537875543, "locktime": 0, "vsize": 224, "size": 224}