{"hash": "1b842102c093b7dce5b38b8b037d977cf012b7e2e205f46236ea94249556818f", "blockhash": "0000000000000000000e13cef7c366c0283d82e591d1acd082e914b08063cdf1", "vout": [{"scriptPubKey": {"reqSigs": 1, "hex": "76a914142a871a072ab8e40d586fd4a14de86759b8be7688ac", "addresses": ["12qdTiX7jirnWk7nndMyhDTRHKcUJHFLFn"], "asm": "OP_DUP OP_HASH160 142a871a072ab8e40d586fd4a14de86759b8be76 OP_EQUALVERIFY OP_CHECKSIG", "type": "pubkeyhash"}, "value": 0.00643587, "n": 0}, {"scriptPubKey": {"type": "nulldata", "hex": "6a4c50000077950001150e348d29002203bd591c78e3ef3236678a625097bcbefa6b8351586b4e45122b622407314aa32800f435de17b75baa0cee0614b295312136091d100759d4ba30d2c37bb011d97e02cf", "asm": "OP_RETURN 000077950001150e348d29002203bd591c78e3ef3236678a625097bcbefa6b8351586b4e45122b622407314aa32800f435de17b75baa0cee0614b295312136091d100759d4ba30d2c37bb011d97e02cf"}, "value": 0.0, "n": 1}], "hex": "0100000001238a1ff2437bf09ad2f503e87df2e9860b720456319cbdd79829c1b3efe05ef6000000006b483045022100e6cc2cfb90bc6a3bac9ab145785928940432cca29e71da0f749f981f2ccb763002206b149330cf24d6bf6d3b95b5340f130b893334d772d449ac5a2d13c1a98a9bf3012102600600e1a30138f478e55e6d2ddacdcc9cae13240bf3c9f9669a781da69856c7ffffffff0203d20900000000001976a914142a871a072ab8e40d586fd4a14de86759b8be7688ac0000000000000000536a4c50000077950001150e348d29002203bd591c78e3ef3236678a625097bcbefa6b8351586b4e45122b622407314aa32800f435de17b75baa0cee0614b295312136091d100759d4ba30d2c37bb011d97e02cf00000000", "vin": [{"sequence": 4294967295, "scriptSig": {"hex": "483045022100e6cc2cfb90bc6a3bac9ab145785928940432cca29e71da0f749f981f2ccb763002206b149330cf24d6bf6d3b95b5340f130b893334d772d449ac5a2d13c1a98a9bf3012102600600e1a30138f478e55e6d2ddacdcc9cae13240bf3c9f9669a781da69856c7", "asm": "3045022100e6cc2cfb90bc6a3bac9ab145785928940432cca29e71da0f749f981f2ccb763002206b149330cf24d6bf6d3b95b5340f130b893334d772d449ac5a2d13c1a98a9bf3[ALL] 02600600e1a30138f478e55e6d2ddacdcc9cae13240bf3c9f9669a781da69856c7"}, "vout": 0, "txid": "f65ee0efb3c12998d7bd9c315604720b86e9f27de803f5d29af07b43f21f8a23"}], "txid": "1b842102c093b7dce5b38b8b037d977cf012b7e2e205f46236ea94249556818f", "blocktime": 1537871767, "version": 1, "confirmations": 11495, "time": 1537871767, "locktime": 0, "vsize": 284, "size": 284}