{"hash": "1b85850ea17217b2af7e3920e9bca592317775717e65f6abd5911bd870cbc419", "blockhash": "0000000000000000001f76057863aec43deb6fa401d9628bb513d65a8098bfab", "vout": [{"scriptPubKey": {"reqSigs": 1, "hex": "a914c4871696edf084e63a6382bc81b9f68e1521407887", "addresses": ["3KcACEkwJsAsAZ3vqyEdJBV8pXoc44LTzQ"], "asm": "OP_HASH160 c4871696edf084e63a6382bc81b9f68e15214078 OP_EQUAL", "type": "scripthash"}, "value": 0.01957571, "n": 0}], "hex": "0100000001ed24bf93b3a1fa87bd0a915faf7bd6d898c4cd9634f8c96ab41bf327cc33f0f61c0000006b483045022100c1b2b8ad7aa7b37957710e7b2c9483fe69c367aaf65f7622ebc196fff0695368022001adf36b3feccb010548e8275daf1ced041c02b5e55536ebecf8cd400102bf670121038824550632e74296b06d1b0afa0301b7be371399dba90e7a2fb9279339c58e58ffffffff01c3de1d000000000017a914c4871696edf084e63a6382bc81b9f68e152140788700000000", "vin": [{"sequence": 4294967295, "scriptSig": {"hex": "483045022100c1b2b8ad7aa7b37957710e7b2c9483fe69c367aaf65f7622ebc196fff0695368022001adf36b3feccb010548e8275daf1ced041c02b5e55536ebecf8cd400102bf670121038824550632e74296b06d1b0afa0301b7be371399dba90e7a2fb9279339c58e58", "asm": "3045022100c1b2b8ad7aa7b37957710e7b2c9483fe69c367aaf65f7622ebc196fff0695368022001adf36b3feccb010548e8275daf1ced041c02b5e55536ebecf8cd400102bf67[ALL] 038824550632e74296b06d1b0afa0301b7be371399dba90e7a2fb9279339c58e58"}, "vout": 28, "txid": "f6f033cc27f31bb46ac9f83496cdc498d8d67baf5f910abd87faa1b393bf24ed"}], "txid": "1b85850ea17217b2af7e3920e9bca592317775717e65f6abd5911bd870cbc419", "blocktime": 1537873891, "version": 1, "confirmations": 11478, "time": 1537873891, "locktime": 0, "vsize": 190, "size": 190}