{"hash": "1b89891f5dc607a48e9772460272de587cd0e5d907c1e9143b36ca1156e396a9", "blockhash": "0000000000000000000baef3f32e3676a92c3b2e5da21b426e4f302fc371ce76", "vout": [{"scriptPubKey": {"type": "nulldata", "hex": "6a4c500000783200016bdc16db5ed6bde5cde210b227b7256b4774d339f6019d6ddc0f1b8ff117119dabc52cdcdc58877e3ad9ccbc02935baa1fa20614115bf0312004bc9a9526289ac0f6612cd74e33776ee4", "asm": "OP_RETURN 0000783200016bdc16db5ed6bde5cde210b227b7256b4774d339f6019d6ddc0f1b8ff117119dabc52cdcdc58877e3ad9ccbc02935baa1fa20614115bf0312004bc9a9526289ac0f6612cd74e33776ee4"}, "value": 0.0, "n": 0}, {"scriptPubKey": {"reqSigs": 1, "hex": "76a914cd4477ec8dba0f99e41cd9d1e2788c9ecd521e0688ac", "addresses": ["1KiMYbcXySC6ySeRXosTrinLs37Us1PigJ"], "asm": "OP_DUP OP_HASH160 cd4477ec8dba0f99e41cd9d1e2788c9ecd521e06 OP_EQUALVERIFY OP_CHECKSIG", "type": "pubkeyhash"}, "value": 0.0004024, "n": 1}], "hex": "01000000014cf420fd5fbae13385dc4db57259f758499780c5ba844087a061f67155846a5b010000006a47304402206fba4dfdc7f3515b5395576c03d0aa3066677c7207cf04caa9d84ef43e27b4f00220608a541a3528f4d55b18442e73ba9b66544e04f6bc45471526d75aef276764380121035296bd3fbd4f1bb03a465b0362c10f9ab1b0432eb146fdf5b69444dcc4e13ca3ffffffff020000000000000000536a4c500000783200016bdc16db5ed6bde5cde210b227b7256b4774d339f6019d6ddc0f1b8ff117119dabc52cdcdc58877e3ad9ccbc02935baa1fa20614115bf0312004bc9a9526289ac0f6612cd74e33776ee4309d0000000000001976a914cd4477ec8dba0f99e41cd9d1e2788c9ecd521e0688ac00000000", "vin": [{"sequence": 4294967295, "scriptSig": {"hex": "47304402206fba4dfdc7f3515b5395576c03d0aa3066677c7207cf04caa9d84ef43e27b4f00220608a541a3528f4d55b18442e73ba9b66544e04f6bc45471526d75aef276764380121035296bd3fbd4f1bb03a465b0362c10f9ab1b0432eb146fdf5b69444dcc4e13ca3", "asm": "304402206fba4dfdc7f3515b5395576c03d0aa3066677c7207cf04caa9d84ef43e27b4f00220608a541a3528f4d55b18442e73ba9b66544e04f6bc45471526d75aef27676438[ALL] 035296bd3fbd4f1bb03a465b0362c10f9ab1b0432eb146fdf5b69444dcc4e13ca3"}, "vout": 1, "txid": "5b6a845571f661a0874084bac580974958f75972b54ddc8533e1ba5ffd20f44c"}], "txid": "1b89891f5dc607a48e9772460272de587cd0e5d907c1e9143b36ca1156e396a9", "blocktime": 1537876114, "version": 1, "confirmations": 11460, "time": 1537876114, "locktime": 0, "vsize": 283, "size": 283}