{"hash": "1ba0f6cdd893b9b09954ee0a17053c9d0e5aff7f348418ab0ef20b7b94259210", "blockhash": "0000000000000000001cda96e906b7601b7a6fb1a3b62bca570a9e5d8f4b3de1", "vout": [{"scriptPubKey": {"reqSigs": 1, "hex": "76a914dab47c12cbf9e34f49da5c3009ad93040bc43e1388ac", "addresses": ["1LwQX7ZjtgufkAUZjtrvpgC4botSMKRAUe"], "asm": "OP_DUP OP_HASH160 dab47c12cbf9e34f49da5c3009ad93040bc43e13 OP_EQUALVERIFY OP_CHECKSIG", "type": "pubkeyhash"}, "value": 0.000667, "n": 0}, {"scriptPubKey": {"reqSigs": 1, "hex": "a9141dea1e3a8468153ff40b7d76de3210b3415a1afa87", "addresses": ["34RByv6Uoo2wH636rh8L1McnY6iWCTgkqP"], "asm": "OP_HASH160 1dea1e3a8468153ff40b7d76de3210b3415a1afa OP_EQUAL", "type": "scripthash"}, "value": 0.0059, "n": 1}], "hex": "01000000032108b66342359167d2a2de77df2bb31399a4e6ab4b8df442425a686b57017115000000006a473044022001300d150170e4f17f74e263799459dd84d3cf9683eedab4b2d39321d1dc88c802206fde0d9f0765c6bf5835004327fadb03671024a3b8a2dd22454f132caa0f082d012103971715fcec02f4ac4c51e51aa001d1bfabd025adba4562b7ba6dec9849982dc0ffffffff3283effe51ee8407fea69a39feecd151aab982ecfc4fee52e0c9432c229e39a0000000006b483045022100dbfe60a856bd67db5a77dda13f795edb1a60d4f69401f22252b606a87e838458022051cd9074740a8818e08874c9ca0ed97152201c2ce5ec035e31afeed68109b100012102ab7023e7a2e3fc3546774174f988d1d52f4bf55584ef2069331285237c7b9aabffffffffc9df4c7fcf4c34162f12ffb817a06a40803d7ff2189d27dfb6553cbec5210ba7000000006b4830450221008d44a74c6dfd7306dc30d1bba8ced5affc56c80e5c84b7effba5ec76ed1c222102201d7fdc432374b6e8c9906874bb24e729530eb7ae40ef8b324e398a2e76b8cbbb01210231a68381376c9e255fb198edca54e4f091b050ef57119817c85a45371c8440b9ffffffff028c040100000000001976a914dab47c12cbf9e34f49da5c3009ad93040bc43e1388acb00009000000000017a9141dea1e3a8468153ff40b7d76de3210b3415a1afa8700000000", "vin": [{"sequence": 4294967295, "scriptSig": {"hex": "473044022001300d150170e4f17f74e263799459dd84d3cf9683eedab4b2d39321d1dc88c802206fde0d9f0765c6bf5835004327fadb03671024a3b8a2dd22454f132caa0f082d012103971715fcec02f4ac4c51e51aa001d1bfabd025adba4562b7ba6dec9849982dc0", "asm": "3044022001300d150170e4f17f74e263799459dd84d3cf9683eedab4b2d39321d1dc88c802206fde0d9f0765c6bf5835004327fadb03671024a3b8a2dd22454f132caa0f082d[ALL] 03971715fcec02f4ac4c51e51aa001d1bfabd025adba4562b7ba6dec9849982dc0"}, "vout": 0, "txid": "157101576b685a4242f48d4babe6a49913b32bdf77dea2d26791354263b60821"}, {"sequence": 4294967295, "scriptSig": {"hex": "483045022100dbfe60a856bd67db5a77dda13f795edb1a60d4f69401f22252b606a87e838458022051cd9074740a8818e08874c9ca0ed97152201c2ce5ec035e31afeed68109b100012102ab7023e7a2e3fc3546774174f988d1d52f4bf55584ef2069331285237c7b9aab", "asm": "3045022100dbfe60a856bd67db5a77dda13f795edb1a60d4f69401f22252b606a87e838458022051cd9074740a8818e08874c9ca0ed97152201c2ce5ec035e31afeed68109b100[ALL] 02ab7023e7a2e3fc3546774174f988d1d52f4bf55584ef2069331285237c7b9aab"}, "vout": 0, "txid": "a0399e222c43c9e052ee4ffcec82b9aa51d1ecfe399aa6fe0784ee51feef8332"}, {"sequence": 4294967295, "scriptSig": {"hex": "4830450221008d44a74c6dfd7306dc30d1bba8ced5affc56c80e5c84b7effba5ec76ed1c222102201d7fdc432374b6e8c9906874bb24e729530eb7ae40ef8b324e398a2e76b8cbbb01210231a68381376c9e255fb198edca54e4f091b050ef57119817c85a45371c8440b9", "asm": "30450221008d44a74c6dfd7306dc30d1bba8ced5affc56c80e5c84b7effba5ec76ed1c222102201d7fdc432374b6e8c9906874bb24e729530eb7ae40ef8b324e398a2e76b8cbbb[ALL] 0231a68381376c9e255fb198edca54e4f091b050ef57119817c85a45371c8440b9"}, "vout": 0, "txid": "a70b21c5be3c55b6df279d18f27f3d80406aa017b8ff122f16344ccf7f4cdfc9"}], "txid": "1ba0f6cdd893b9b09954ee0a17053c9d0e5aff7f348418ab0ef20b7b94259210", "blocktime": 1537873282, "version": 1, "confirmations": 11485, "time": 1537873282, "locktime": 0, "vsize": 519, "size": 519}