{"hash": "c77c43431cfa022255a5b1f386a8031a18101a2358e915f2f1fa036069eec50e", "blockhash": "0000000000000000001f76057863aec43deb6fa401d9628bb513d65a8098bfab", "vout": [{"scriptPubKey": {"reqSigs": 1, "hex": "76a914b36bcd8c05101d0af41e7e02ecf4e3e059dec37488ac", "addresses": ["1HMh6ciAjPAnKAuCBiXzQkDdfeKB27KWe5"], "asm": "OP_DUP OP_HASH160 b36bcd8c05101d0af41e7e02ecf4e3e059dec374 OP_EQUALVERIFY OP_CHECKSIG", "type": "pubkeyhash"}, "value": 0.018111, "n": 0}, {"scriptPubKey": {"reqSigs": 1, "hex": "a914431a2b447156b2b93d03053c2a87759a34638d8b87", "addresses": ["37opYejDomZjKu9QJ2MmBFmDbhx5SskyUo"], "asm": "OP_HASH160 431a2b447156b2b93d03053c2a87759a34638d8b OP_EQUAL", "type": "scripthash"}, "value": 0.0109125, "n": 1}], "hex": "020000000001027eddb249c081158cc5f376a4535a48bc287374b3ddff49a802e649311fff20c4000000001716001432f1acf78d65961f25847a8b3f83a9d3d36db874fdffffffb4e00df9ef6a501253b6a0c617d18ad461204ace1881b358d33a89435780c3df0000000017160014b65ac5edd91c5ce41b9a8b69a7af56757e61308ffdffffff029ca21b00000000001976a914b36bcd8c05101d0af41e7e02ecf4e3e059dec37488acb2a610000000000017a914431a2b447156b2b93d03053c2a87759a34638d8b8702483045022100ab0c45d7f53a2b6ade2f6350d18ba789853357499ed871eb1d526d01a83d258802205de0d3f55f21e613288652cfe887c512b7c45e24f28d04436fd1ba6d590f149701210214f24832feb213b1cbdeb4d5946211e60d651966e54c0dab38d00f73b949ecf7024730440220797f31d81b43211a46a9bb88802c4350dc23c33504bf57fa85192c411a6de6b30220636bd17a2c35966ec0a6ecc81a99948bf3c6bb3831cd3905c848f38cde802dbb012103bcf6c77730ffa47048f293c1698e00e962275193d64a9e7618d9d4e4e9c3493a13490800", "vin": [{"txinwitness": ["3045022100ab0c45d7f53a2b6ade2f6350d18ba789853357499ed871eb1d526d01a83d258802205de0d3f55f21e613288652cfe887c512b7c45e24f28d04436fd1ba6d590f149701", "0214f24832feb213b1cbdeb4d5946211e60d651966e54c0dab38d00f73b949ecf7"], "sequence": 4294967293, "scriptSig": {"hex": "16001432f1acf78d65961f25847a8b3f83a9d3d36db874", "asm": "001432f1acf78d65961f25847a8b3f83a9d3d36db874"}, "vout": 0, "txid": "c420ff1f3149e602a849ffddb3747328bc485a53a476f3c58c1581c049b2dd7e"}, {"txinwitness": ["30440220797f31d81b43211a46a9bb88802c4350dc23c33504bf57fa85192c411a6de6b30220636bd17a2c35966ec0a6ecc81a99948bf3c6bb3831cd3905c848f38cde802dbb01", "03bcf6c77730ffa47048f293c1698e00e962275193d64a9e7618d9d4e4e9c3493a"], "sequence": 4294967293, "scriptSig": {"hex": "160014b65ac5edd91c5ce41b9a8b69a7af56757e61308f", "asm": "0014b65ac5edd91c5ce41b9a8b69a7af56757e61308f"}, "vout": 0, "txid": "dfc3805743893ad358b38118ce4a2061d48ad117c6a0b65312506aeff90de0b4"}], "txid": "1ba6dc08f320ad24bcbf38f0011f929f3a00bd433ece230136fea075049acfe2", "blocktime": 1537873891, "version": 2, "confirmations": 11474, "time": 1537873891, "locktime": 542995, "vsize": 259, "size": 421}