{"hash": "1ba7c593330cc98285e659dc4e19f47a88e7fc8009e12e7ac255b02766533387", "blockhash": "0000000000000000000dcc0f55137456b1a82d3642486a52398922ac4d620174", "vout": [{"scriptPubKey": {"reqSigs": 1, "hex": "76a9148fdc776af144858dba1dabae6362163d6b77ed1788ac", "addresses": ["1E7fjiEsSvRmTQh3aRhBDucyfeVMbuv6Qd"], "asm": "OP_DUP OP_HASH160 8fdc776af144858dba1dabae6362163d6b77ed17 OP_EQUALVERIFY OP_CHECKSIG", "type": "pubkeyhash"}, "value": 0.018555, "n": 0}, {"scriptPubKey": {"reqSigs": 1, "hex": "76a9141b41b05c318cbafdf935e373d0c86c4aa9d932fe88ac", "addresses": ["13V7wKqDaDzimVTUscqUhvTUxXLsV2aGi9"], "asm": "OP_DUP OP_HASH160 1b41b05c318cbafdf935e373d0c86c4aa9d932fe OP_EQUALVERIFY OP_CHECKSIG", "type": "pubkeyhash"}, "value": 0.001775, "n": 1}], "hex": "01000000029e648a4fcb639fed232301f5b5885ce81edcab4442a8060b57a3968e240ea418010000006a47304402207df9c5594256326fb8b09ec9e70f54c1072df2b720032901d46a5bf272fe05d6022001917631d65d40b6020e44a791b83f365cbb742c53aae2682c1e25110d7030ab012103dee785464d1bb76d6df51423a43fd7424c97e8e16b52685699d883e9bd903d82ffffffffd677cf433d27f5b97b1b4e63dfae891274861dee2c7b5cf9eab7a83c87a9f1eb000000006b483045022100d53a41db151b1fe38f4262c0116e98507b777772efaf44ada86cf0cf57fd4538022005e9a67e62c9f70167b1582bec2943436514634513b33e2268d711e54b095688012103f1495643835de5189b73fe8e63b9ad2ce87b847f6f4364685804c6e8ad2611ebffffffff020c501c00000000001976a9148fdc776af144858dba1dabae6362163d6b77ed1788ac5cb50200000000001976a9141b41b05c318cbafdf935e373d0c86c4aa9d932fe88ac00000000", "vin": [{"sequence": 4294967295, "scriptSig": {"hex": "47304402207df9c5594256326fb8b09ec9e70f54c1072df2b720032901d46a5bf272fe05d6022001917631d65d40b6020e44a791b83f365cbb742c53aae2682c1e25110d7030ab012103dee785464d1bb76d6df51423a43fd7424c97e8e16b52685699d883e9bd903d82", "asm": "304402207df9c5594256326fb8b09ec9e70f54c1072df2b720032901d46a5bf272fe05d6022001917631d65d40b6020e44a791b83f365cbb742c53aae2682c1e25110d7030ab[ALL] 03dee785464d1bb76d6df51423a43fd7424c97e8e16b52685699d883e9bd903d82"}, "vout": 1, "txid": "18a40e248e96a3570b06a84244abdc1ee85c88b5f5012323ed9f63cb4f8a649e"}, {"sequence": 4294967295, "scriptSig": {"hex": "483045022100d53a41db151b1fe38f4262c0116e98507b777772efaf44ada86cf0cf57fd4538022005e9a67e62c9f70167b1582bec2943436514634513b33e2268d711e54b095688012103f1495643835de5189b73fe8e63b9ad2ce87b847f6f4364685804c6e8ad2611eb", "asm": "3045022100d53a41db151b1fe38f4262c0116e98507b777772efaf44ada86cf0cf57fd4538022005e9a67e62c9f70167b1582bec2943436514634513b33e2268d711e54b095688[ALL] 03f1495643835de5189b73fe8e63b9ad2ce87b847f6f4364685804c6e8ad2611eb"}, "vout": 0, "txid": "ebf1a9873ca8b7eaf95c7b2cee1d86741289aedf634e1b7bb9f5273d43cf77d6"}], "txid": "1ba7c593330cc98285e659dc4e19f47a88e7fc8009e12e7ac255b02766533387", "blocktime": 1537870268, "version": 1, "confirmations": 11518, "time": 1537870268, "locktime": 0, "vsize": 373, "size": 373}