{"hash": "1ba9d34dfb5a08be17b3c29b0f4268468a414871af42d165840d46d393abba17", "blockhash": "0000000000000000001f76057863aec43deb6fa401d9628bb513d65a8098bfab", "vout": [{"scriptPubKey": {"reqSigs": 1, "hex": "a914f29f63b006ae7f16fcc9829a6e5fafad8a95b2de87", "addresses": ["3PotPY5j1sNWvhqrJuJcmGpx1tZA5ekK4X"], "asm": "OP_HASH160 f29f63b006ae7f16fcc9829a6e5fafad8a95b2de OP_EQUAL", "type": "scripthash"}, "value": 0.01014883, "n": 0}, {"scriptPubKey": {"reqSigs": 1, "hex": "76a9140f6cfad4e4bac3c87e6e733ab5f44f23de03133488ac", "addresses": ["12QZgvo1nBtRoTd2WdnSdDCHmbYL5tra2h"], "asm": "OP_DUP OP_HASH160 0f6cfad4e4bac3c87e6e733ab5f44f23de031334 OP_EQUALVERIFY OP_CHECKSIG", "type": "pubkeyhash"}, "value": 0.01002955, "n": 1}], "hex": "0200000002935d6f4d3bfe408392fd7fcc1703efbd8fed04ae92934872cd268ed41f0e338b000000006a47304402207ffad82e288b5f6568421c53ebeffd797f42f50e2fe7bf12a4abf0978afe518702204a5fe5e613305d76f62dcec5ec8c26e111015107056059720d9cb11bd17abb370121032a562699f391e63c7797ac29c6e177545b2993832d483639ff423f268e3c4a8ffeffffffa395e4893e179bccc7898fa85d11792f342e748c20248b9ef37fd2c75b1625b6000000006b483045022100800aa279e2288b53f68a9d8c4dbc47694852e942d1177cd0b92550f66f424b0b02206ce2833109f2ee59439fb67563df275d604665efbfe3119bf81668448c42b0e80121024ca7a27e3b88377f0b75f88f5d5a99fb0612c53f5b6d667e25495a4d6e1aae2cfeffffff02637c0f000000000017a914f29f63b006ae7f16fcc9829a6e5fafad8a95b2de87cb4d0f00000000001976a9140f6cfad4e4bac3c87e6e733ab5f44f23de03133488ac13490800", "vin": [{"sequence": 4294967294, "scriptSig": {"hex": "47304402207ffad82e288b5f6568421c53ebeffd797f42f50e2fe7bf12a4abf0978afe518702204a5fe5e613305d76f62dcec5ec8c26e111015107056059720d9cb11bd17abb370121032a562699f391e63c7797ac29c6e177545b2993832d483639ff423f268e3c4a8f", "asm": "304402207ffad82e288b5f6568421c53ebeffd797f42f50e2fe7bf12a4abf0978afe518702204a5fe5e613305d76f62dcec5ec8c26e111015107056059720d9cb11bd17abb37[ALL] 032a562699f391e63c7797ac29c6e177545b2993832d483639ff423f268e3c4a8f"}, "vout": 0, "txid": "8b330e1fd48e26cd72489392ae04ed8fbdef0317cc7ffd928340fe3b4d6f5d93"}, {"sequence": 4294967294, "scriptSig": {"hex": "483045022100800aa279e2288b53f68a9d8c4dbc47694852e942d1177cd0b92550f66f424b0b02206ce2833109f2ee59439fb67563df275d604665efbfe3119bf81668448c42b0e80121024ca7a27e3b88377f0b75f88f5d5a99fb0612c53f5b6d667e25495a4d6e1aae2c", "asm": "3045022100800aa279e2288b53f68a9d8c4dbc47694852e942d1177cd0b92550f66f424b0b02206ce2833109f2ee59439fb67563df275d604665efbfe3119bf81668448c42b0e8[ALL] 024ca7a27e3b88377f0b75f88f5d5a99fb0612c53f5b6d667e25495a4d6e1aae2c"}, "vout": 0, "txid": "b625165bc7d27ff39e8b24208c742e342f79115da88f89c7cc9b173e89e495a3"}], "txid": "1ba9d34dfb5a08be17b3c29b0f4268468a414871af42d165840d46d393abba17", "blocktime": 1537873891, "version": 2, "confirmations": 11478, "time": 1537873891, "locktime": 542995, "vsize": 371, "size": 371}