{"hash": "1bab0804f4818a16463b7b0c19f16e3ee2ae09a33e6f7882673ba5291fef0c32", "blockhash": "00000000000000000018f53835495a110e01622372bf6ae95dc86f2b0ab887b0", "vout": [{"scriptPubKey": {"reqSigs": 1, "hex": "76a91479a527bd0bf191d4afcc3566e5d63444b6cbe5f388ac", "addresses": ["1C6CcQ5cHwXTrCRs34TR3EMTZkExi8NRvu"], "asm": "OP_DUP OP_HASH160 79a527bd0bf191d4afcc3566e5d63444b6cbe5f3 OP_EQUALVERIFY OP_CHECKSIG", "type": "pubkeyhash"}, "value": 8.85e-06, "n": 0}, {"scriptPubKey": {"reqSigs": 1, "hex": "a91406fd0c8176086e1d4ce52d87b349abe058f0903187", "addresses": ["32Ky7qWFjnwK6f3oZmDqxRSSP4HaBzikEA"], "asm": "OP_HASH160 06fd0c8176086e1d4ce52d87b349abe058f09031 OP_EQUAL", "type": "scripthash"}, "value": 0.00596348, "n": 1}], "hex": "0100000001b2c65d09715ac35cce57d724a285251e05f0d5f8cbdbec01f3c7a6c798dbe7c9000000006a47304402201c347802dcf64dedb89ed71b4c8def890319ecdf8d7bd5cdffebebba68c9e214022027946612e75ccddc875d05b9e0595771c69c1727991403cca51584038d687d2e012103b0ca3651f134b616b6e494addaae9497287d86b5da4ee7809d5aa02d7c5d625dffffffff0275030000000000001976a91479a527bd0bf191d4afcc3566e5d63444b6cbe5f388ac7c1909000000000017a91406fd0c8176086e1d4ce52d87b349abe058f090318700000000", "vin": [{"sequence": 4294967295, "scriptSig": {"hex": "47304402201c347802dcf64dedb89ed71b4c8def890319ecdf8d7bd5cdffebebba68c9e214022027946612e75ccddc875d05b9e0595771c69c1727991403cca51584038d687d2e012103b0ca3651f134b616b6e494addaae9497287d86b5da4ee7809d5aa02d7c5d625d", "asm": "304402201c347802dcf64dedb89ed71b4c8def890319ecdf8d7bd5cdffebebba68c9e214022027946612e75ccddc875d05b9e0595771c69c1727991403cca51584038d687d2e[ALL] 03b0ca3651f134b616b6e494addaae9497287d86b5da4ee7809d5aa02d7c5d625d"}, "vout": 0, "txid": "c9e7db98c7a6c7f301ecdbcbf8d5f0051e2585a224d757ce5cc35a71095dc6b2"}], "txid": "1bab0804f4818a16463b7b0c19f16e3ee2ae09a33e6f7882673ba5291fef0c32", "blocktime": 1537870928, "version": 1, "confirmations": 11514, "time": 1537870928, "locktime": 0, "vsize": 223, "size": 223}