{"hash": "1b225b1c6ff589eda4f52d8e0da43878b4f534e52d2e4f67275f84ad09e855d2", "blockhash": "0000000000000000001cda96e906b7601b7a6fb1a3b62bca570a9e5d8f4b3de1", "vout": [{"scriptPubKey": {"reqSigs": 1, "hex": "76a91484e81305e92697c94e2cfff13ad7aa37c469ad8d88ac", "addresses": ["1D7kD8PCJicMr3fWSUbaHBR6p7tyaYDZCt"], "asm": "OP_DUP OP_HASH160 84e81305e92697c94e2cfff13ad7aa37c469ad8d OP_EQUALVERIFY OP_CHECKSIG", "type": "pubkeyhash"}, "value": 5.03e-05, "n": 0}], "hex": "010000000001015e2817870c5779d1ad6c8ac707e1db3d1943d9dd103f8552dcb92ccd2ce163dc0000000000ffffffff01a6130000000000001976a91484e81305e92697c94e2cfff13ad7aa37c469ad8d88ac02483045022100c812fafcc627c573c131764772e8b303a121b84a1ed18ff4fcaa8401e7f647660220468f11f492d17864224e55951ce5c81da1f8dc9c11e58ad421cd299e9152f08b012103ae9f550674590c83bbf8eff3e6bf10ac2dbfd5b1d29bfc821bd347798b6db28b00000000", "vin": [{"txinwitness": ["3045022100c812fafcc627c573c131764772e8b303a121b84a1ed18ff4fcaa8401e7f647660220468f11f492d17864224e55951ce5c81da1f8dc9c11e58ad421cd299e9152f08b01", "03ae9f550674590c83bbf8eff3e6bf10ac2dbfd5b1d29bfc821bd347798b6db28b"], "sequence": 4294967295, "scriptSig": {"hex": "", "asm": ""}, "vout": 0, "txid": "dc63e12ccd2cb9dc52853f10ddd943193ddbe107c78a6cadd179570c8717285e"}], "txid": "1badf7c3f356137ac5584bed3ad337ad5382d6407c2ce670fa978a73eda0ee84", "blocktime": 1537873282, "version": 1, "confirmations": 11485, "time": 1537873282, "locktime": 0, "vsize": 113, "size": 195}