{"hash": "1bafc3d6cb41cf265845f8560c604db0e7d1eafa49467789309c1caa6148632b", "blockhash": "0000000000000000000dcc0f55137456b1a82d3642486a52398922ac4d620174", "vout": [{"scriptPubKey": {"type": "nulldata", "hex": "6a146f6d6e69000000000000001f0000000dedcbebc0", "asm": "OP_RETURN 6f6d6e69000000000000001f0000000dedcbebc0"}, "value": 0.0, "n": 0}, {"scriptPubKey": {"reqSigs": 1, "hex": "76a914388256b4fb33f6155727017f7d5cce7e0d2a65f388ac", "addresses": ["169nyqNqauSUMcS3rAExS3rhhrwz9mVA4i"], "asm": "OP_DUP OP_HASH160 388256b4fb33f6155727017f7d5cce7e0d2a65f3 OP_EQUALVERIFY OP_CHECKSIG", "type": "pubkeyhash"}, "value": 0.00166276, "n": 1}, {"scriptPubKey": {"reqSigs": 1, "hex": "76a91493eb4da8af3da64a7cfc6cf5a41d094165a4578b88ac", "addresses": ["1EV8DN3VQs5hQtUGmwP2H5t4tgQJiQ9c4q"], "asm": "OP_DUP OP_HASH160 93eb4da8af3da64a7cfc6cf5a41d094165a4578b OP_EQUALVERIFY OP_CHECKSIG", "type": "pubkeyhash"}, "value": 5.46e-06, "n": 2}], "hex": "010000000157501916e7fec43be487096a3f53c636478028dcdb336aa401293a1d7609860f000000006b48304502210096433d55cec3721ed76673ed1a0eab182c66573f2cca1e2246313b1c261ef7ba02207963810ce38c4b592cf1b4a72daa88238875c1232aea6921b6ab4022a71c0229012102cca43b3082ae7d70499eba1e028fba08cb647209c0be3dee55eeb6b51b623f1ffeffffff030000000000000000166a146f6d6e69000000000000001f0000000dedcbebc084890200000000001976a914388256b4fb33f6155727017f7d5cce7e0d2a65f388ac22020000000000001976a91493eb4da8af3da64a7cfc6cf5a41d094165a4578b88ac0c490800", "vin": [{"sequence": 4294967294, "scriptSig": {"hex": "48304502210096433d55cec3721ed76673ed1a0eab182c66573f2cca1e2246313b1c261ef7ba02207963810ce38c4b592cf1b4a72daa88238875c1232aea6921b6ab4022a71c0229012102cca43b3082ae7d70499eba1e028fba08cb647209c0be3dee55eeb6b51b623f1f", "asm": "304502210096433d55cec3721ed76673ed1a0eab182c66573f2cca1e2246313b1c261ef7ba02207963810ce38c4b592cf1b4a72daa88238875c1232aea6921b6ab4022a71c0229[ALL] 02cca43b3082ae7d70499eba1e028fba08cb647209c0be3dee55eeb6b51b623f1f"}, "vout": 0, "txid": "0f8609761d3a2901a46a33dbdc28804736c6533f6a0987e43bc4fee716195057"}], "txid": "1bafc3d6cb41cf265845f8560c604db0e7d1eafa49467789309c1caa6148632b", "blocktime": 1537870268, "version": 1, "confirmations": 11519, "time": 1537870268, "locktime": 542988, "vsize": 257, "size": 257}