{"hash": "2e193f78e84f91e73fe9aeec3e76490cb4a0b539154ea0fb3cee664ef9759f75", "blockhash": "00000000000000000018f53835495a110e01622372bf6ae95dc86f2b0ab887b0", "vout": [{"scriptPubKey": {"reqSigs": 1, "hex": "0014a5e6d8e92189efd87fa2481f9062c6e873351d2f", "addresses": ["bc1q5hnd36fp38haslazfq0eqckxapen28f08g4ey6"], "asm": "0 a5e6d8e92189efd87fa2481f9062c6e873351d2f", "type": "witness_v0_keyhash"}, "value": 1.213e-05, "n": 0}, {"scriptPubKey": {"reqSigs": 1, "hex": "a9141af72489b2554c69aa38e3afba4e9a56f516221587", "addresses": ["349bZJsiC2UDYQGVd6D5LMU2bd5hsgvcMQ"], "asm": "OP_HASH160 1af72489b2554c69aa38e3afba4e9a56f5162215 OP_EQUAL", "type": "scripthash"}, "value": 0.00242986, "n": 1}], "hex": "01000000000101097334c312e49facb7dee48be111555c258d87b11b9c1cfaef390b9fb9897aec0100000000ffffffff02bd04000000000000160014a5e6d8e92189efd87fa2481f9062c6e873351d2f2ab503000000000017a9141af72489b2554c69aa38e3afba4e9a56f516221587024730440220254adf82e00ff7ce34218e6dd1009763a0f38d79bdf851897b05778b4328138f0220627411cdf497e94356a295e315e4b8d8629a1513429bb39cffde444191a1e2f5012102ccd987939b9c31c28cdec45cb39abd0cd811acda49813836331d73834a16fc1800000000", "vin": [{"txinwitness": ["30440220254adf82e00ff7ce34218e6dd1009763a0f38d79bdf851897b05778b4328138f0220627411cdf497e94356a295e315e4b8d8629a1513429bb39cffde444191a1e2f501", "02ccd987939b9c31c28cdec45cb39abd0cd811acda49813836331d73834a16fc18"], "sequence": 4294967295, "scriptSig": {"hex": "", "asm": ""}, "vout": 1, "txid": "ec7a89b99f0b39effa1c9c1bb1878d255c5511e18be4deb7ac9fe412c3347309"}], "txid": "1bb1560ee52e99b6987882f5534917745e9e08e4decdde6ea98c6dfddae99c68", "blocktime": 1537870928, "version": 1, "confirmations": 11513, "time": 1537870928, "locktime": 0, "vsize": 142, "size": 223}