{"hash": "17eca9c053a939f5f6c71bdb51be88c33c7465fd9df6f4db7eacf81868c62b55", "blockhash": "00000000000000000018f53835495a110e01622372bf6ae95dc86f2b0ab887b0", "vout": [{"scriptPubKey": {"reqSigs": 1, "hex": "a914bb35dbfaa1df6b4cf11b66487a7654ead6e9b6f587", "addresses": ["3JktodDsR4GNuhSV7JzCMStyFvvoEyfYfG"], "asm": "OP_HASH160 bb35dbfaa1df6b4cf11b66487a7654ead6e9b6f5 OP_EQUAL", "type": "scripthash"}, "value": 0.01791354, "n": 0}, {"scriptPubKey": {"reqSigs": 1, "hex": "a91411c77161f69ad929df2c47e258782a238d74f1e387", "addresses": ["33K2LLhwuhanawVFGEmkFQZGKTRab1FYFE"], "asm": "OP_HASH160 11c77161f69ad929df2c47e258782a238d74f1e3 OP_EQUAL", "type": "scripthash"}, "value": 0.68207905, "n": 1}], "hex": "020000000001016885fc909b88ab155b153287a531ecfbf49a340a2ecaf1c50ebee9d115396032010000001716001402fa34f11584aa6f9c2114a7f5feb5bed1daf342ffffffff027a551b000000000017a914bb35dbfaa1df6b4cf11b66487a7654ead6e9b6f58721c510040000000017a91411c77161f69ad929df2c47e258782a238d74f1e38702463043021f63a81c59dca9b0e6e9bce503c5e358300c0919c532abac37565320aa5067a002205c63be954eac80d78d15dde3800108330147ddbd7f527821059f7dc057d6593c01210308ae9868d24069ef34215ca894ad42676412ff6005ee6b3b22157a21c20b22fd00000000", "vin": [{"txinwitness": ["3043021f63a81c59dca9b0e6e9bce503c5e358300c0919c532abac37565320aa5067a002205c63be954eac80d78d15dde3800108330147ddbd7f527821059f7dc057d6593c01", "0308ae9868d24069ef34215ca894ad42676412ff6005ee6b3b22157a21c20b22fd"], "sequence": 4294967295, "scriptSig": {"hex": "16001402fa34f11584aa6f9c2114a7f5feb5bed1daf342", "asm": "001402fa34f11584aa6f9c2114a7f5feb5bed1daf342"}, "vout": 1, "txid": "32603915d1e9be0ec5f1ca2e0a349af4fbec31a58732155b15ab889b90fc8568"}], "txid": "1bd1d59cc000b2a041c02e07d80485e5836e8e933b6ce05ddf6305bc60acf455", "blocktime": 1537870928, "version": 2, "confirmations": 11512, "time": 1537870928, "locktime": 0, "vsize": 165, "size": 246}