{"hash": "1bd171ff6e1e0da4c06a5cbd303c48305b7ab92f43a81016c72e46a99d55e660", "blockhash": "0000000000000000000dcc0f55137456b1a82d3642486a52398922ac4d620174", "vout": [{"scriptPubKey": {"reqSigs": 1, "hex": "76a91438ce5195fc77c5f5eca8d8d7968c4d1da01c8b4288ac", "addresses": ["16BN11yJV68eXUDFbWN9jDhY6vZJkdJyCh"], "asm": "OP_DUP OP_HASH160 38ce5195fc77c5f5eca8d8d7968c4d1da01c8b42 OP_EQUALVERIFY OP_CHECKSIG", "type": "pubkeyhash"}, "value": 6.6e-05, "n": 0}, {"scriptPubKey": {"reqSigs": 1, "hex": "76a91473623006e4750ddd56e8351c0c62b91bac89ea5088ac", "addresses": ["1BX6LFnWL5cEXZWXw1gSBZMv4ZW7n2ZN9Z"], "asm": "OP_DUP OP_HASH160 73623006e4750ddd56e8351c0c62b91bac89ea50 OP_EQUALVERIFY OP_CHECKSIG", "type": "pubkeyhash"}, "value": 0.00335249, "n": 1}], "hex": "010000000133b5c7579d03d3fb24edd8eff2da4183ae823478f0156269583e71c6b6cb77190b0000008a4730440220225501650641a26b03a31f956ad777b96d0a6d1aad825c5693d3361055529828022012ab041b26ea6956177977ada21985d5a571345dbda781cdbbb823784cb863b4014104d2ba077618648729173247b68aaa2b6c7522eff5c7d012c1281a3405555d1cb7e0d15295c4b1c690e685ebe7a8bc4a1a1f0abe435a3e15f6136d241ff901ecb1ffffffff02c8190000000000001976a91438ce5195fc77c5f5eca8d8d7968c4d1da01c8b4288ac911d0500000000001976a91473623006e4750ddd56e8351c0c62b91bac89ea5088ac00000000", "vin": [{"sequence": 4294967295, "scriptSig": {"hex": "4730440220225501650641a26b03a31f956ad777b96d0a6d1aad825c5693d3361055529828022012ab041b26ea6956177977ada21985d5a571345dbda781cdbbb823784cb863b4014104d2ba077618648729173247b68aaa2b6c7522eff5c7d012c1281a3405555d1cb7e0d15295c4b1c690e685ebe7a8bc4a1a1f0abe435a3e15f6136d241ff901ecb1", "asm": "30440220225501650641a26b03a31f956ad777b96d0a6d1aad825c5693d3361055529828022012ab041b26ea6956177977ada21985d5a571345dbda781cdbbb823784cb863b4[ALL] 04d2ba077618648729173247b68aaa2b6c7522eff5c7d012c1281a3405555d1cb7e0d15295c4b1c690e685ebe7a8bc4a1a1f0abe435a3e15f6136d241ff901ecb1"}, "vout": 11, "txid": "1977cbb6c6713e58696215f0783482ae8341daf2efd8ed24fbd3039d57c7b533"}], "txid": "1bd171ff6e1e0da4c06a5cbd303c48305b7ab92f43a81016c72e46a99d55e660", "blocktime": 1537870268, "version": 1, "confirmations": 11518, "time": 1537870268, "locktime": 0, "vsize": 257, "size": 257}