{"hash": "1be205f31f9c5f04f8eef5ef95fdc0a71b3ef44bd462b52eb59c7f03154ea24d", "blockhash": "0000000000000000001f0ddff1eddb255c1121bcd4da4f1bc9a0da00cae72433", "vout": [{"scriptPubKey": {"reqSigs": 1, "hex": "a9140d8d5a75edd32d7d197ef1e7435b1f52389e9a5687", "addresses": ["32vg3SYrD8XxZh19i7wpgTGGRDZjRuhcts"], "asm": "OP_HASH160 0d8d5a75edd32d7d197ef1e7435b1f52389e9a56 OP_EQUAL", "type": "scripthash"}, "value": 0.00250176, "n": 0}, {"scriptPubKey": {"reqSigs": 1, "hex": "76a914e4da30eae49c9acabbefc268f7edcc8b390a8ce288ac", "addresses": ["1Ms4SvLfuhTbueGX2yJg8nCf9MFvetvPdK"], "asm": "OP_DUP OP_HASH160 e4da30eae49c9acabbefc268f7edcc8b390a8ce2 OP_EQUALVERIFY OP_CHECKSIG", "type": "pubkeyhash"}, "value": 0.23233729, "n": 1}], "hex": "01000000010b3ab171bb647578cea3cc21806911abb063abd82ea40e02339ea0cac893fbb0010000006b483045022100d95e67b9e594048d42cc30e74c301f4078e4f0aee73ddc21229da026451f6d5b0220418f4b1177a56269f5c113e74f5ad1bb4baa3aa2d3fdfa0278f748279fb36daf012103c7dfcf75aae33a23e349c9a91074d62f1dc23fcb63aefa1a524d7056d8e60ddaffffffff0240d103000000000017a9140d8d5a75edd32d7d197ef1e7435b1f52389e9a5687c1846201000000001976a914e4da30eae49c9acabbefc268f7edcc8b390a8ce288ac00000000", "vin": [{"sequence": 4294967295, "scriptSig": {"hex": "483045022100d95e67b9e594048d42cc30e74c301f4078e4f0aee73ddc21229da026451f6d5b0220418f4b1177a56269f5c113e74f5ad1bb4baa3aa2d3fdfa0278f748279fb36daf012103c7dfcf75aae33a23e349c9a91074d62f1dc23fcb63aefa1a524d7056d8e60dda", "asm": "3045022100d95e67b9e594048d42cc30e74c301f4078e4f0aee73ddc21229da026451f6d5b0220418f4b1177a56269f5c113e74f5ad1bb4baa3aa2d3fdfa0278f748279fb36daf[ALL] 03c7dfcf75aae33a23e349c9a91074d62f1dc23fcb63aefa1a524d7056d8e60dda"}, "vout": 1, "txid": "b0fb93c8caa09e33020ea42ed8ab63b0ab11698021cca3ce787564bb71b13a0b"}], "txid": "1be205f31f9c5f04f8eef5ef95fdc0a71b3ef44bd462b52eb59c7f03154ea24d", "blocktime": 1537872018, "version": 1, "confirmations": 11489, "time": 1537872018, "locktime": 0, "vsize": 224, "size": 224}