{"hash": "1be77c27d4d36d84c2f48783ad20ae835164b2979fd8201aef92b4d28feaf4d5", "blockhash": "0000000000000000000baef3f32e3676a92c3b2e5da21b426e4f302fc371ce76", "vout": [{"scriptPubKey": {"reqSigs": 1, "hex": "76a9145141c41f783b5200ebd534a393fd381df645bada88ac", "addresses": ["18QeX3kKmwJeZyqi32JPXyuFRFFCyEWgFf"], "asm": "OP_DUP OP_HASH160 5141c41f783b5200ebd534a393fd381df645bada OP_EQUALVERIFY OP_CHECKSIG", "type": "pubkeyhash"}, "value": 0.00173429, "n": 0}], "hex": "01000000031365ea6b8a714e371c7f8b4bc1e7b41ccdd144be274e54e1b5fe78fd0d456a4a000000006b483045022100c5384208a04c87449bf88ec10280cbe63823926161a23a3d04edaa604a687228022027bfb6ebf335d44963645e5ab0728946624f0ba19773883459d9014a303c71a30121023ca826fd1a18cf2e78eafedce9dc9328e0d1b51c83b0a7a1718f97fde9fa3056ffffffff87918741ed3e58932d276445f2c131b6e56d43277c1d4d6c5110762c4c8b0065000000006a47304402206c00f2769e42f3893d8fa22e2a6fb825659976bae66275f219d05da7a64bacc202206a05aadd37dcf7dc1ec149b26fb4219409abf3f38faedc5ae8d230887e8dc483012102bfc773c35326187ba9f949e615a1baa40504ec5252c6d606445a0250cd3aa5d4ffffffffe6c312fd7b66ef8ef7d7e7b3872e7201828f732b7759cc1a7b45ad4a9d06a1ae000000006a47304402202e16754517848252fb7aa96e16822eff4eb27b09b7dae54ea6a35deb5c1b357102202e6cb9f9b6f25de88d8cbb12e98eec6a3353217be88d9f6d89c9e20d1be22aa4012103953154e5a8e6dcde342ff4404bbf3bfd7a4aa41295a45af46314dea44364c4b4ffffffff0175a50200000000001976a9145141c41f783b5200ebd534a393fd381df645bada88ac00000000", "vin": [{"sequence": 4294967295, "scriptSig": {"hex": "483045022100c5384208a04c87449bf88ec10280cbe63823926161a23a3d04edaa604a687228022027bfb6ebf335d44963645e5ab0728946624f0ba19773883459d9014a303c71a30121023ca826fd1a18cf2e78eafedce9dc9328e0d1b51c83b0a7a1718f97fde9fa3056", "asm": "3045022100c5384208a04c87449bf88ec10280cbe63823926161a23a3d04edaa604a687228022027bfb6ebf335d44963645e5ab0728946624f0ba19773883459d9014a303c71a3[ALL] 023ca826fd1a18cf2e78eafedce9dc9328e0d1b51c83b0a7a1718f97fde9fa3056"}, "vout": 0, "txid": "4a6a450dfd78feb5e1544e27be44d1cd1cb4e7c14b8b7f1c374e718a6bea6513"}, {"sequence": 4294967295, "scriptSig": {"hex": "47304402206c00f2769e42f3893d8fa22e2a6fb825659976bae66275f219d05da7a64bacc202206a05aadd37dcf7dc1ec149b26fb4219409abf3f38faedc5ae8d230887e8dc483012102bfc773c35326187ba9f949e615a1baa40504ec5252c6d606445a0250cd3aa5d4", "asm": "304402206c00f2769e42f3893d8fa22e2a6fb825659976bae66275f219d05da7a64bacc202206a05aadd37dcf7dc1ec149b26fb4219409abf3f38faedc5ae8d230887e8dc483[ALL] 02bfc773c35326187ba9f949e615a1baa40504ec5252c6d606445a0250cd3aa5d4"}, "vout": 0, "txid": "65008b4c2c7610516c4d1d7c27436de5b631c1f24564272d93583eed41879187"}, {"sequence": 4294967295, "scriptSig": {"hex": "47304402202e16754517848252fb7aa96e16822eff4eb27b09b7dae54ea6a35deb5c1b357102202e6cb9f9b6f25de88d8cbb12e98eec6a3353217be88d9f6d89c9e20d1be22aa4012103953154e5a8e6dcde342ff4404bbf3bfd7a4aa41295a45af46314dea44364c4b4", "asm": "304402202e16754517848252fb7aa96e16822eff4eb27b09b7dae54ea6a35deb5c1b357102202e6cb9f9b6f25de88d8cbb12e98eec6a3353217be88d9f6d89c9e20d1be22aa4[ALL] 03953154e5a8e6dcde342ff4404bbf3bfd7a4aa41295a45af46314dea44364c4b4"}, "vout": 0, "txid": "aea1069d4aad457b1acc59772b738f8201722e87b3e7d7f78eef667bfd12c3e6"}], "txid": "1be77c27d4d36d84c2f48783ad20ae835164b2979fd8201aef92b4d28feaf4d5", "blocktime": 1537876114, "version": 1, "confirmations": 11462, "time": 1537876114, "locktime": 0, "vsize": 486, "size": 486}