{"hash": "1bedb6571201a0fdf1e28070d966a27abeff509b76ad69757a5b78d1b547c85e", "blockhash": "0000000000000000000baef3f32e3676a92c3b2e5da21b426e4f302fc371ce76", "vout": [{"scriptPubKey": {"reqSigs": 1, "hex": "76a914c3d095a264318d698d9d29337555b9653c6f711488ac", "addresses": ["1JrNe7Y8QrVqL9AiZKmgkNawJpLGP6sWAD"], "asm": "OP_DUP OP_HASH160 c3d095a264318d698d9d29337555b9653c6f7114 OP_EQUALVERIFY OP_CHECKSIG", "type": "pubkeyhash"}, "value": 0.00155434, "n": 0}, {"scriptPubKey": {"reqSigs": 1, "hex": "76a914e980406100f1b02d9023620d15858ca5a5fb144c88ac", "addresses": ["1NHe5mQK8w5uu6QxqnWsd6M8fPLPiYGWzA"], "asm": "OP_DUP OP_HASH160 e980406100f1b02d9023620d15858ca5a5fb144c OP_EQUALVERIFY OP_CHECKSIG", "type": "pubkeyhash"}, "value": 0.06815904, "n": 1}], "hex": "01000000015e572a193163dead5fdefc4ff1de2835543754d5c5f3eb6f3bb5e3d835ba7197010000006b483045022100c8d1268b8f9204badb4ab553c6226790bf7ee1281bd105f80f812aded4355d0702201526beee31da85293029dd6fc48aae211e6622950ec97693ac4432cf8a5eb10f012103ad603f5d3610dce0c476cc5ff31b70d340cb842f4285d362fdb63d990e4c8e16ffffffff022a5f0200000000001976a914c3d095a264318d698d9d29337555b9653c6f711488aca0006800000000001976a914e980406100f1b02d9023620d15858ca5a5fb144c88ac00000000", "vin": [{"sequence": 4294967295, "scriptSig": {"hex": "483045022100c8d1268b8f9204badb4ab553c6226790bf7ee1281bd105f80f812aded4355d0702201526beee31da85293029dd6fc48aae211e6622950ec97693ac4432cf8a5eb10f012103ad603f5d3610dce0c476cc5ff31b70d340cb842f4285d362fdb63d990e4c8e16", "asm": "3045022100c8d1268b8f9204badb4ab553c6226790bf7ee1281bd105f80f812aded4355d0702201526beee31da85293029dd6fc48aae211e6622950ec97693ac4432cf8a5eb10f[ALL] 03ad603f5d3610dce0c476cc5ff31b70d340cb842f4285d362fdb63d990e4c8e16"}, "vout": 1, "txid": "9771ba35d8e3b53b6febf3c5d55437543528def14ffcde5fadde6331192a575e"}], "txid": "1bedb6571201a0fdf1e28070d966a27abeff509b76ad69757a5b78d1b547c85e", "blocktime": 1537876114, "version": 1, "confirmations": 11459, "time": 1537876114, "locktime": 0, "vsize": 226, "size": 226}