{"hash": "1bee6bd62ad56ed5c87328bfaadc4537ae6146018fd5c35575494c06171e2c5c", "blockhash": "0000000000000000001e0dab787dd257d1dbfcb92a98c2207d5e1078be1f4165", "vout": [{"scriptPubKey": {"reqSigs": 1, "hex": "a914e2ac2cd76ad5bc31a018e60127d7bddec170b14a87", "addresses": ["3NMYtqXJGhif9KMPYZumd2oyauc5vHcfDY"], "asm": "OP_HASH160 e2ac2cd76ad5bc31a018e60127d7bddec170b14a OP_EQUAL", "type": "scripthash"}, "value": 0.0024981, "n": 0}], "hex": "010000000185cfe7725a1efac8aec59931f8ed67de68698142ac14701c9ff277fecdf30cce000000006b483045022100a42692dcfc9cbfd588e93b5244034936965a4aff99788f50e6fb5f0acb5a776002203b2fb8bc5dcb1301e28754b62640ea04f90605e778cbf41ecc986f36af51032001210240d50477c60625a3be7f704bf6556b841ed5b17b41daf0d10d29a3e5aa27e1b2fdffffff01d2cf03000000000017a914e2ac2cd76ad5bc31a018e60127d7bddec170b14a8712490800", "vin": [{"sequence": 4294967293, "scriptSig": {"hex": "483045022100a42692dcfc9cbfd588e93b5244034936965a4aff99788f50e6fb5f0acb5a776002203b2fb8bc5dcb1301e28754b62640ea04f90605e778cbf41ecc986f36af51032001210240d50477c60625a3be7f704bf6556b841ed5b17b41daf0d10d29a3e5aa27e1b2", "asm": "3045022100a42692dcfc9cbfd588e93b5244034936965a4aff99788f50e6fb5f0acb5a776002203b2fb8bc5dcb1301e28754b62640ea04f90605e778cbf41ecc986f36af510320[ALL] 0240d50477c60625a3be7f704bf6556b841ed5b17b41daf0d10d29a3e5aa27e1b2"}, "vout": 0, "txid": "ce0cf3cdfe77f29f1c7014ac42816968de67edf83199c5aec8fa1e5a72e7cf85"}], "txid": "1bee6bd62ad56ed5c87328bfaadc4537ae6146018fd5c35575494c06171e2c5c", "blocktime": 1537872475, "version": 1, "confirmations": 11488, "time": 1537872475, "locktime": 542994, "vsize": 190, "size": 190}