{"hash": "540e3aa81de0abc069a31bbac9d875049a2d5ec3b728ca5bad8d11b904465f1c", "blockhash": "0000000000000000001e0dab787dd257d1dbfcb92a98c2207d5e1078be1f4165", "vout": [{"scriptPubKey": {"reqSigs": 1, "hex": "76a9148f0ef35d5a4bfb5a28d766193c19eefdcd22cd7088ac", "addresses": ["1E3RYDoGbnBubPaCkgYVVEtYccEffskKFm"], "asm": "OP_DUP OP_HASH160 8f0ef35d5a4bfb5a28d766193c19eefdcd22cd70 OP_EQUALVERIFY OP_CHECKSIG", "type": "pubkeyhash"}, "value": 0.0032266, "n": 0}, {"scriptPubKey": {"reqSigs": 1, "hex": "a91478e4c0b462483328191bc0707cbbdea95238117887", "addresses": ["3CiF3anRUpNo68LUQ2cpo7J83vbvuEF9uE"], "asm": "OP_HASH160 78e4c0b462483328191bc0707cbbdea952381178 OP_EQUAL", "type": "scripthash"}, "value": 0.00999559, "n": 1}], "hex": "020000000001021a74a0243121e0bf80a77274a43106ab670e32777a4ffc9f7719c43ef9fb2fe10100000017160014503e986ec8d98459a4deb4b7e43b57b4c6c2b740feffffffbf34756785a2065b9e0699a6d8e5f414d86e0ca5aaa726de9ad19818c62581e80b0000001716001426cf68b36349d0910913c921f1a1ebb49e37ff29feffffff0264ec0400000000001976a9148f0ef35d5a4bfb5a28d766193c19eefdcd22cd7088ac87400f000000000017a91478e4c0b462483328191bc0707cbbdea9523811788702473044022012f7fd88bb1702415da5546603102e673fbb426f9f98e2f5f8171579245299e302200611a13585e2e50b840b0aabe3702447277f2dfcab354341db211658c5b578020121028e44471f8b757f44229922201920c7a99fa2df61a013c050c870c26fb9030dba024830450221008114fe99264d3ea4014538bb99479a268916287b11908dd245366c596102938602203c96893b533dc94e3665d02c5e67b31bdeba713f3c856c34bc1848a8a4643a0701210235ebbafa868a057d99c12df0a8dfbe41da5a8fad4e36dbc77bd852b97ff8ba4112490800", "vin": [{"txinwitness": ["3044022012f7fd88bb1702415da5546603102e673fbb426f9f98e2f5f8171579245299e302200611a13585e2e50b840b0aabe3702447277f2dfcab354341db211658c5b5780201", "028e44471f8b757f44229922201920c7a99fa2df61a013c050c870c26fb9030dba"], "sequence": 4294967294, "scriptSig": {"hex": "160014503e986ec8d98459a4deb4b7e43b57b4c6c2b740", "asm": "0014503e986ec8d98459a4deb4b7e43b57b4c6c2b740"}, "vout": 1, "txid": "e12ffbf93ec419779ffc4f7a77320e67ab0631a47472a780bfe0213124a0741a"}, {"txinwitness": ["30450221008114fe99264d3ea4014538bb99479a268916287b11908dd245366c596102938602203c96893b533dc94e3665d02c5e67b31bdeba713f3c856c34bc1848a8a4643a0701", "0235ebbafa868a057d99c12df0a8dfbe41da5a8fad4e36dbc77bd852b97ff8ba41"], "sequence": 4294967294, "scriptSig": {"hex": "16001426cf68b36349d0910913c921f1a1ebb49e37ff29", "asm": "001426cf68b36349d0910913c921f1a1ebb49e37ff29"}, "vout": 11, "txid": "e88125c61898d19ade26a7aaa50c6ed814f4e5d8a699069e5b06a285677534bf"}], "txid": "1bee1a613f7317253b8f6acc54bf3ddf00e137d383a9b6c4a223e13204743ebb", "blocktime": 1537872475, "version": 2, "confirmations": 11487, "time": 1537872475, "locktime": 542994, "vsize": 259, "size": 421}