{"hash": "5238c7d20f34bb7e809c9ad0f4bde7eb26a210c3884fe9aa283ecd109bbd22a3", "blockhash": "000000000000000000022b45ed06c6f4ccd3cf7fb5ba4856ebd2e58215665228", "vout": [{"scriptPubKey": {"reqSigs": 1, "hex": "a9146bed552059c4befb150f2951a4448540ad4cb62487", "addresses": ["3BXgYDrqo4V8sMtM56cozDCpp4NxGCTLFT"], "asm": "OP_HASH160 6bed552059c4befb150f2951a4448540ad4cb624 OP_EQUAL", "type": "scripthash"}, "value": 0.024129, "n": 0}, {"scriptPubKey": {"reqSigs": 1, "hex": "a914dd9dc6a441b75c3a3cf7d52601fba93d55728ce687", "addresses": ["3MtpGQL5k6tYHku7eJBRa35C5DZGaJGvFy"], "asm": "OP_HASH160 dd9dc6a441b75c3a3cf7d52601fba93d55728ce6 OP_EQUAL", "type": "scripthash"}, "value": 0.22978892, "n": 1}, {"scriptPubKey": {"reqSigs": 1, "hex": "a9146185a2de15f92073c7ab10c7dd20f1d21a9945e787", "addresses": ["3AafZMgNgQkwskqrMPAHKV3yv3xm3jSemY"], "asm": "OP_HASH160 6185a2de15f92073c7ab10c7dd20f1d21a9945e7 OP_EQUAL", "type": "scripthash"}, "value": 0.0486806, "n": 2}, {"scriptPubKey": {"reqSigs": 1, "hex": "a91400b6a24abc9c2df3921bc775d36d38b3036b5a3f87", "addresses": ["31kniB17iv9G6ybGwu3ztbvzWysswmjGHH"], "asm": "OP_HASH160 00b6a24abc9c2df3921bc775d36d38b3036b5a3f OP_EQUAL", "type": "scripthash"}, "value": 0.06433443, "n": 3}], "hex": "0100000000010407453bcc5cf4c37e4c2f3d02582a847a5dfbc708c2fa4e62d1d32a1e37ae5c130000000023220020cdacb0eb835371f9b6dab47b1299b6aa8e0ae5561952b40217e589e9094f9da9ffffffffe7fb4a7b7d7c61f25180d3d801c6b6b01582f582d2e69560266402408958626f000000002322002086d44894fec4e5b5e35bb66f1968aeca2e4befe1dcde3a601cc417e274ed0778ffffffff1bafe98cae9ab130fd1d3ba9d756e8981a09669ab8c1b4e61e8a16f6486456920000000023220020bc6da757c15c296eb627ccb9bb7334932ced2baf5943606376fa74985a0b0ca3ffffffff0b87003310c207ec05be8415374ca9ff1f671f9e7677d37f69ddb4c6b0076e1d0200000023220020d5519dc7f2b9df146208a186ffe2999d8c34a75ebeafd3f800e5ebaf59ec1ddbffffffff0464d124000000000017a9146bed552059c4befb150f2951a4448540ad4cb624874ca15e010000000017a914dd9dc6a441b75c3a3cf7d52601fba93d55728ce687dc474a000000000017a9146185a2de15f92073c7ab10c7dd20f1d21a9945e787a32a62000000000017a91400b6a24abc9c2df3921bc775d36d38b3036b5a3f87040047304402200b89a4f7ef845a8377f476c441c8fefb460d42c74dffcc9cdd0d99b90e794dcc02201bae0451e65fe1a46e5dac7494d68d0c9efeed47dc74ee707c976435fe90a84801473044022005d2dd04e60f949c3bc5eb040367ca307fc8ffff0f7af4b323376a8def4688c10220450ba3ca2909d54ba096930794cbe214a3dec67e054cda0c2ff4c993fd89a5680147522103524209d2c9dcac020983a7b44834c9a4a62f285f6f63590100ccc12325ba016221038407424ead2b88063db2d589e50c34e1572f6b82eb9e266dec536939ee0db9eb52ae0400483045022100cb3843e9692575b8c6a3ce4368671fb0689eae036344d6d3f8ca0bd269d2251902205d63a0fd6a70668749b42d4e7ec2382f74c35e7f1c4c3727c5bc20119dc36f3001483045022100aff79ed4f952ea1154df0f0eaa46cf22166e0722e66aeaa5bf944d009a171275022078eb2a25138f73cac07a71529ee5199961ab9e15e29103dd7bf7887b935f09bb0147522102338012d59156fb05f730d385349ae0af3bb12e8ab9630bde2a170676f3bc06f321038407424ead2b88063db2d589e50c34e1572f6b82eb9e266dec536939ee0db9eb52ae0400483045022100e249127358da99676ef6a5edb20cbc4ae7d22aeabe224a3003e0deaa193e74710220762a6668f4b19a7a2c3f205db4268fb47502d945b19dea383e2f038f02e2dc760147304402203908c2d680bc21039cd50816af2a56e00b72f64c8c18f1e85b090b158bc5292f02201032efb51b0e28ca03b7b0966bf541852c996de62ec4d76b6cb46c58381d775401475221029d412e0fbbb802788ba26f095e4978599e1c3448b92e23a7d1eabc071ec586a921038407424ead2b88063db2d589e50c34e1572f6b82eb9e266dec536939ee0db9eb52ae0400483045022100eef08a0cc25b33d2911ec9647edf782797d88e1bdc2b12aeb2a6c513056f45d702206d96e3e5cb647f1630d9d90bd8dc24e7daa3ea412fd6f4bdc21c69b22c043ab701483045022100a42f4fb0a04c8f3e02a6eee4af5eba510dc2635f120af8cd5fcbe5ffa6b813a902201c032ebc6b28f2cdf01d6417704baf269f62d77bc43d3e0b482450549ca1a3a801475221020ec34362aa0b78436ff431fdd5cb3870614005c9169bba6207cbd62c81aca17b21038407424ead2b88063db2d589e50c34e1572f6b82eb9e266dec536939ee0db9eb52ae00000000", "vin": [{"txinwitness": ["", "304402200b89a4f7ef845a8377f476c441c8fefb460d42c74dffcc9cdd0d99b90e794dcc02201bae0451e65fe1a46e5dac7494d68d0c9efeed47dc74ee707c976435fe90a84801", "3044022005d2dd04e60f949c3bc5eb040367ca307fc8ffff0f7af4b323376a8def4688c10220450ba3ca2909d54ba096930794cbe214a3dec67e054cda0c2ff4c993fd89a56801", "522103524209d2c9dcac020983a7b44834c9a4a62f285f6f63590100ccc12325ba016221038407424ead2b88063db2d589e50c34e1572f6b82eb9e266dec536939ee0db9eb52ae"], "sequence": 4294967295, "scriptSig": {"hex": "220020cdacb0eb835371f9b6dab47b1299b6aa8e0ae5561952b40217e589e9094f9da9", "asm": "0020cdacb0eb835371f9b6dab47b1299b6aa8e0ae5561952b40217e589e9094f9da9"}, "vout": 0, "txid": "135cae371e2ad3d1624efac208c7fb5d7a842a58023d2f4c7ec3f45ccc3b4507"}, {"txinwitness": ["", "3045022100cb3843e9692575b8c6a3ce4368671fb0689eae036344d6d3f8ca0bd269d2251902205d63a0fd6a70668749b42d4e7ec2382f74c35e7f1c4c3727c5bc20119dc36f3001", "3045022100aff79ed4f952ea1154df0f0eaa46cf22166e0722e66aeaa5bf944d009a171275022078eb2a25138f73cac07a71529ee5199961ab9e15e29103dd7bf7887b935f09bb01", "522102338012d59156fb05f730d385349ae0af3bb12e8ab9630bde2a170676f3bc06f321038407424ead2b88063db2d589e50c34e1572f6b82eb9e266dec536939ee0db9eb52ae"], "sequence": 4294967295, "scriptSig": {"hex": "22002086d44894fec4e5b5e35bb66f1968aeca2e4befe1dcde3a601cc417e274ed0778", "asm": "002086d44894fec4e5b5e35bb66f1968aeca2e4befe1dcde3a601cc417e274ed0778"}, "vout": 0, "txid": "6f625889400264266095e6d282f58215b0b6c601d8d38051f2617c7d7b4afbe7"}, {"txinwitness": ["", "3045022100e249127358da99676ef6a5edb20cbc4ae7d22aeabe224a3003e0deaa193e74710220762a6668f4b19a7a2c3f205db4268fb47502d945b19dea383e2f038f02e2dc7601", "304402203908c2d680bc21039cd50816af2a56e00b72f64c8c18f1e85b090b158bc5292f02201032efb51b0e28ca03b7b0966bf541852c996de62ec4d76b6cb46c58381d775401", "5221029d412e0fbbb802788ba26f095e4978599e1c3448b92e23a7d1eabc071ec586a921038407424ead2b88063db2d589e50c34e1572f6b82eb9e266dec536939ee0db9eb52ae"], "sequence": 4294967295, "scriptSig": {"hex": "220020bc6da757c15c296eb627ccb9bb7334932ced2baf5943606376fa74985a0b0ca3", "asm": "0020bc6da757c15c296eb627ccb9bb7334932ced2baf5943606376fa74985a0b0ca3"}, "vout": 0, "txid": "92566448f6168a1ee6b4c1b89a66091a98e856d7a93b1dfd30b19aae8ce9af1b"}, {"txinwitness": ["", "3045022100eef08a0cc25b33d2911ec9647edf782797d88e1bdc2b12aeb2a6c513056f45d702206d96e3e5cb647f1630d9d90bd8dc24e7daa3ea412fd6f4bdc21c69b22c043ab701", "3045022100a42f4fb0a04c8f3e02a6eee4af5eba510dc2635f120af8cd5fcbe5ffa6b813a902201c032ebc6b28f2cdf01d6417704baf269f62d77bc43d3e0b482450549ca1a3a801", "5221020ec34362aa0b78436ff431fdd5cb3870614005c9169bba6207cbd62c81aca17b21038407424ead2b88063db2d589e50c34e1572f6b82eb9e266dec536939ee0db9eb52ae"], "sequence": 4294967295, "scriptSig": {"hex": "220020d5519dc7f2b9df146208a186ffe2999d8c34a75ebeafd3f800e5ebaf59ec1ddb", "asm": "0020d5519dc7f2b9df146208a186ffe2999d8c34a75ebeafd3f800e5ebaf59ec1ddb"}, "vout": 2, "txid": "1d6e07b0c6b4dd697fd377769e1f671fffa94c371584be05ec07c2103300870b"}], "txid": "1bf47759e12962bf02511899b75c84aba1fe6433c7f827e37bee957a495843aa", "blocktime": 1537869901, "version": 1, "confirmations": 11522, "time": 1537869901, "locktime": 0, "vsize": 662, "size": 1321}