{"hash": "1bfcedceb348a061540f277fa4721ecbc0998d83f55bf593e8ea76c21cd2efb1", "blockhash": "00000000000000000018f53835495a110e01622372bf6ae95dc86f2b0ab887b0", "vout": [{"scriptPubKey": {"reqSigs": 1, "hex": "76a914f7e322f44a8f14582358653547a8e6dfa3f27acc88ac", "addresses": ["1Pbi178D7RcwVzECMZGaywS1gmtjpgDCGZ"], "asm": "OP_DUP OP_HASH160 f7e322f44a8f14582358653547a8e6dfa3f27acc OP_EQUALVERIFY OP_CHECKSIG", "type": "pubkeyhash"}, "value": 0.01420687, "n": 0}, {"scriptPubKey": {"reqSigs": 1, "hex": "76a914d5ba2eb2d52670fbe9522748bf642da754eb0d6f88ac", "addresses": ["1LV5y3NkVkmdWnF6xRCEXrAnUkRgge4KSq"], "asm": "OP_DUP OP_HASH160 d5ba2eb2d52670fbe9522748bf642da754eb0d6f OP_EQUALVERIFY OP_CHECKSIG", "type": "pubkeyhash"}, "value": 12.00143028, "n": 1}], "hex": "0100000001320d710009c78c3f90bf596dfd4523a65c4b48fd1652f80d283ce5fbf71d625b010000006a473044022015ba6b823d35892720efb3c8cc9add58a9e886a8cb42e511cfa00b1118fa0e4102201ceb34ec17b4e79edb835918993bafb5ccc881cea7058d00bff5fdc8f2e1a42a012102c19ebc0e7fe714e24c55adaeebc7dbab2dc9a208b511bd1b6e83db85506d4d19ffffffff028fad1500000000001976a914f7e322f44a8f14582358653547a8e6dfa3f27acc88acb4ba8847000000001976a914d5ba2eb2d52670fbe9522748bf642da754eb0d6f88ac00000000", "vin": [{"sequence": 4294967295, "scriptSig": {"hex": "473044022015ba6b823d35892720efb3c8cc9add58a9e886a8cb42e511cfa00b1118fa0e4102201ceb34ec17b4e79edb835918993bafb5ccc881cea7058d00bff5fdc8f2e1a42a012102c19ebc0e7fe714e24c55adaeebc7dbab2dc9a208b511bd1b6e83db85506d4d19", "asm": "3044022015ba6b823d35892720efb3c8cc9add58a9e886a8cb42e511cfa00b1118fa0e4102201ceb34ec17b4e79edb835918993bafb5ccc881cea7058d00bff5fdc8f2e1a42a[ALL] 02c19ebc0e7fe714e24c55adaeebc7dbab2dc9a208b511bd1b6e83db85506d4d19"}, "vout": 1, "txid": "5b621df7fbe53c280df85216fd484b5ca62345fd6d59bf903f8cc70900710d32"}], "txid": "1bfcedceb348a061540f277fa4721ecbc0998d83f55bf593e8ea76c21cd2efb1", "blocktime": 1537870928, "version": 1, "confirmations": 11512, "time": 1537870928, "locktime": 0, "vsize": 225, "size": 225}