{"hash": "1c01fb8b6b71321e51a472431db9603c36d323f6ff930354b912be16e1d068ea", "blockhash": "0000000000000000001f0ddff1eddb255c1121bcd4da4f1bc9a0da00cae72433", "vout": [{"scriptPubKey": {"reqSigs": 1, "hex": "76a91430bd6e97e95c5f7cc671c3d4104eedb165749b3588ac", "addresses": ["15SiNB7W2AdTacR2sBTqN7JzmwNV2RBH8T"], "asm": "OP_DUP OP_HASH160 30bd6e97e95c5f7cc671c3d4104eedb165749b35 OP_EQUALVERIFY OP_CHECKSIG", "type": "pubkeyhash"}, "value": 0.022649, "n": 0}, {"scriptPubKey": {"reqSigs": 1, "hex": "76a914b71c48d8dd93bd28766e77472b23685afab1434e88ac", "addresses": ["1HhCYMLNdrCibtcP5skCub5iUPqu6i3aSi"], "asm": "OP_DUP OP_HASH160 b71c48d8dd93bd28766e77472b23685afab1434e OP_EQUALVERIFY OP_CHECKSIG", "type": "pubkeyhash"}, "value": 1.15695721, "n": 1}], "hex": "0100000001df07270ee751112cd5f65312d9cb739c03f4f98b79ca4ed458f5d1526a0c2096010000006a4730440220216cd149736159d624b59352d07e780463ecacb028b31c3f4dccab2c922a21cd022045f3160c508167fe674d925cbd2f7b2acc294061c00874cab7cabc0679c14cd7012102f03d871e2ebd00ae6899669375662771d16d54441e55ae96729155a6dc9f1727ffffffff02448f2200000000001976a91430bd6e97e95c5f7cc671c3d4104eedb165749b3588ac6960e506000000001976a914b71c48d8dd93bd28766e77472b23685afab1434e88ac00000000", "vin": [{"sequence": 4294967295, "scriptSig": {"hex": "4730440220216cd149736159d624b59352d07e780463ecacb028b31c3f4dccab2c922a21cd022045f3160c508167fe674d925cbd2f7b2acc294061c00874cab7cabc0679c14cd7012102f03d871e2ebd00ae6899669375662771d16d54441e55ae96729155a6dc9f1727", "asm": "30440220216cd149736159d624b59352d07e780463ecacb028b31c3f4dccab2c922a21cd022045f3160c508167fe674d925cbd2f7b2acc294061c00874cab7cabc0679c14cd7[ALL] 02f03d871e2ebd00ae6899669375662771d16d54441e55ae96729155a6dc9f1727"}, "vout": 1, "txid": "96200c6a52d1f558d44eca798bf9f4039c73cbd91253f6d52c1151e70e2707df"}], "txid": "1c01fb8b6b71321e51a472431db9603c36d323f6ff930354b912be16e1d068ea", "blocktime": 1537872018, "version": 1, "confirmations": 11489, "time": 1537872018, "locktime": 0, "vsize": 225, "size": 225}