{"hash": "1c031f1d009e2cf96ca7686d299e1036f87ffe74ea66b31680c02414a3c6993c", "blockhash": "0000000000000000000dcc0f55137456b1a82d3642486a52398922ac4d620174", "vout": [{"scriptPubKey": {"reqSigs": 1, "hex": "76a9146a3dfca3d208f62ad341abb19346b6705f77ead688ac", "addresses": ["1AgktFwWmXQQwyhEMhASXvoPgkb5qF6PPB"], "asm": "OP_DUP OP_HASH160 6a3dfca3d208f62ad341abb19346b6705f77ead6 OP_EQUALVERIFY OP_CHECKSIG", "type": "pubkeyhash"}, "value": 0.00416047, "n": 0}, {"scriptPubKey": {"reqSigs": 1, "hex": "76a914a266802fe4b28551cf7b0478dbbc84dc1b69969588ac", "addresses": ["1FohFxE4YJ5k7t8yYYrQX2YTAzBiZdzkBa"], "asm": "OP_DUP OP_HASH160 a266802fe4b28551cf7b0478dbbc84dc1b699695 OP_EQUALVERIFY OP_CHECKSIG", "type": "pubkeyhash"}, "value": 0.054, "n": 1}], "hex": "0100000004c2df316d0ad1460b651e6d96f493d83142ebe14f1e1e132c9aa90b2068a777521200000069463043021f6081e6c0a1463682e40d0315640d564920dea58850eb9135c587ba08820fe502207ab93ed5aac075afbae0587524deed0b9bc606827dfc522e460dbb35b2b603510121029f99f05d5365934394d6e7f7ff78c0f34a6a668419352c0dfb98c2ed6bbbd698ffffffff992605fbd7b407b6d76de59f0da69b908b89f1f53571b2c12a5b2d826d936ac4000000006a47304402204dc0ed9b7bb1c9d281b46ca0df79e6a87d0d0681c9eb0e6c1cdce0cf334bb2010220046ab43e827027b052500fd606102fb553bcff547da2f38e83a4e9bdc975c98f0121032723208b7586a2bfb907d342fd5b2729929bbe563b11c17a5eaa7bf887c24526fffffffffe38770533b230b84110c0603f44ba9fd0523ac6d776d2077c835bc54870f5ee180000006a4730440220590cc3b9553c7c2ec6466619cc6fd5d707666cae838f1d9d247e0b91f8c8f34702204fd263c2e98b63a42acc31f5e7642aaa0ee2017dc02f13d3c3e092a523cce4fc0121029f99f05d5365934394d6e7f7ff78c0f34a6a668419352c0dfb98c2ed6bbbd698fffffffff4d77400fec84f905f1bbab8a4f8799619842784c2502b593c147ccf00177afc000000006a47304402201ff613485214c2bc1121fb80d0e4ba64e7a34a7758a4ba2639046e740021070d02207148470db84fb3a5779fe6155da3176b3d511a2135a905f2cd2a1fd9743e1bff01210332572f0e52f6b6eb0fc547f1f99f1d51e0aee902cc2f818fc8b793c4c8505afbffffffff022f590600000000001976a9146a3dfca3d208f62ad341abb19346b6705f77ead688acc0655200000000001976a914a266802fe4b28551cf7b0478dbbc84dc1b69969588ac00000000", "vin": [{"sequence": 4294967295, "scriptSig": {"hex": "463043021f6081e6c0a1463682e40d0315640d564920dea58850eb9135c587ba08820fe502207ab93ed5aac075afbae0587524deed0b9bc606827dfc522e460dbb35b2b603510121029f99f05d5365934394d6e7f7ff78c0f34a6a668419352c0dfb98c2ed6bbbd698", "asm": "3043021f6081e6c0a1463682e40d0315640d564920dea58850eb9135c587ba08820fe502207ab93ed5aac075afbae0587524deed0b9bc606827dfc522e460dbb35b2b60351[ALL] 029f99f05d5365934394d6e7f7ff78c0f34a6a668419352c0dfb98c2ed6bbbd698"}, "vout": 18, "txid": "5277a768200ba99a2c131e1e4fe1eb4231d893f4966d1e650b46d10a6d31dfc2"}, {"sequence": 4294967295, "scriptSig": {"hex": "47304402204dc0ed9b7bb1c9d281b46ca0df79e6a87d0d0681c9eb0e6c1cdce0cf334bb2010220046ab43e827027b052500fd606102fb553bcff547da2f38e83a4e9bdc975c98f0121032723208b7586a2bfb907d342fd5b2729929bbe563b11c17a5eaa7bf887c24526", "asm": "304402204dc0ed9b7bb1c9d281b46ca0df79e6a87d0d0681c9eb0e6c1cdce0cf334bb2010220046ab43e827027b052500fd606102fb553bcff547da2f38e83a4e9bdc975c98f[ALL] 032723208b7586a2bfb907d342fd5b2729929bbe563b11c17a5eaa7bf887c24526"}, "vout": 0, "txid": "c46a936d822d5b2ac1b27135f5f1898b909ba60d9fe56dd7b607b4d7fb052699"}, {"sequence": 4294967295, "scriptSig": {"hex": "4730440220590cc3b9553c7c2ec6466619cc6fd5d707666cae838f1d9d247e0b91f8c8f34702204fd263c2e98b63a42acc31f5e7642aaa0ee2017dc02f13d3c3e092a523cce4fc0121029f99f05d5365934394d6e7f7ff78c0f34a6a668419352c0dfb98c2ed6bbbd698", "asm": "30440220590cc3b9553c7c2ec6466619cc6fd5d707666cae838f1d9d247e0b91f8c8f34702204fd263c2e98b63a42acc31f5e7642aaa0ee2017dc02f13d3c3e092a523cce4fc[ALL] 029f99f05d5365934394d6e7f7ff78c0f34a6a668419352c0dfb98c2ed6bbbd698"}, "vout": 24, "txid": "eef57048c55b837c07d276d7c63a52d09fba443f60c01041b830b233057738fe"}, {"sequence": 4294967295, "scriptSig": {"hex": "47304402201ff613485214c2bc1121fb80d0e4ba64e7a34a7758a4ba2639046e740021070d02207148470db84fb3a5779fe6155da3176b3d511a2135a905f2cd2a1fd9743e1bff01210332572f0e52f6b6eb0fc547f1f99f1d51e0aee902cc2f818fc8b793c4c8505afb", "asm": "304402201ff613485214c2bc1121fb80d0e4ba64e7a34a7758a4ba2639046e740021070d02207148470db84fb3a5779fe6155da3176b3d511a2135a905f2cd2a1fd9743e1bff[ALL] 0332572f0e52f6b6eb0fc547f1f99f1d51e0aee902cc2f818fc8b793c4c8505afb"}, "vout": 0, "txid": "fc7a1700cf7c143c592b50c2842784199679f8a4b8ba1b5f904fc8fe0074d7f4"}], "txid": "1c031f1d009e2cf96ca7686d299e1036f87ffe74ea66b31680c02414a3c6993c", "blocktime": 1537870268, "version": 1, "confirmations": 11518, "time": 1537870268, "locktime": 0, "vsize": 665, "size": 665}