{"hash": "0136497eff27dd96402236a76f3870292a90deb4492a7ed03e7d4ee81c587bca", "blockhash": "0000000000000000001f76057863aec43deb6fa401d9628bb513d65a8098bfab", "vout": [{"scriptPubKey": {"reqSigs": 1, "hex": "a9141df05ab61713bc9a8ba315e0edb03f26fd09e20d87", "addresses": ["34RKTDfi2SS3iUrZHeMo8mDu7PaUP2erPp"], "asm": "OP_HASH160 1df05ab61713bc9a8ba315e0edb03f26fd09e20d OP_EQUAL", "type": "scripthash"}, "value": 0.00441507, "n": 0}, {"scriptPubKey": {"reqSigs": 1, "hex": "a9145c16b5c1c14936af5a3265c87ca2fd6beb94d36987", "addresses": ["3A5wJ7KVVVKofoKkKKhNvVmsNnsFmQ8ESE"], "asm": "OP_HASH160 5c16b5c1c14936af5a3265c87ca2fd6beb94d369 OP_EQUAL", "type": "scripthash"}, "value": 0.00456467, "n": 1}, {"scriptPubKey": {"reqSigs": 1, "hex": "a914c13fcb1bad19e12e3723147e448ee5bc27cb35a787", "addresses": ["3KJpm1WMGRFozRWNDm837mbSM5fCYprQoc"], "asm": "OP_HASH160 c13fcb1bad19e12e3723147e448ee5bc27cb35a7 OP_EQUAL", "type": "scripthash"}, "value": 0.00101838, "n": 2}, {"scriptPubKey": {"reqSigs": 1, "hex": "a91402c6fe2a0fbd610c6ccb79d134ed09a3a2c9d91087", "addresses": ["31whfC4kJvNLwJAnpCGLiDnEg3QQigusFE"], "asm": "OP_HASH160 02c6fe2a0fbd610c6ccb79d134ed09a3a2c9d910 OP_EQUAL", "type": "scripthash"}, "value": 29.55265891, "n": 3}, {"scriptPubKey": {"reqSigs": 1, "hex": "a91417a7035fceca1707cda14ce7ca5c38c38df4862987", "addresses": ["33r5YEb54ZbCMHwCrD5aN2mbnnAn436KrT"], "asm": "OP_HASH160 17a7035fceca1707cda14ce7ca5c38c38df48629 OP_EQUAL", "type": "scripthash"}, "value": 0.00237083, "n": 4}, {"scriptPubKey": {"reqSigs": 1, "hex": "a914ca91e4dfd327fd8ff441daf8cd36ae52b734e3f387", "addresses": ["3LA7CBvVCYVBoFSJmWV2hvNFQyqQdzdHB3"], "asm": "OP_HASH160 ca91e4dfd327fd8ff441daf8cd36ae52b734e3f3 OP_EQUAL", "type": "scripthash"}, "value": 0.00484302, "n": 5}, {"scriptPubKey": {"reqSigs": 1, "hex": "a914ec215ea5ae22adb01c4e9818cc78767b8e4b728d87", "addresses": ["3PDZNPEmJgWoFd4Hc5AJwCr95VXU75i2de"], "asm": "OP_HASH160 ec215ea5ae22adb01c4e9818cc78767b8e4b728d OP_EQUAL", "type": "scripthash"}, "value": 0.0047016, "n": 6}, {"scriptPubKey": {"reqSigs": 1, "hex": "76a914d764bcb5b5dd39cd5bf03f3945832afcf545261a88ac", "addresses": ["1Ldtxaq7YA2FDBXiPncvgjKQ1rWpBkzfoi"], "asm": "OP_DUP OP_HASH160 d764bcb5b5dd39cd5bf03f3945832afcf545261a OP_EQUALVERIFY OP_CHECKSIG", "type": "pubkeyhash"}, "value": 0.00463833, "n": 7}, {"scriptPubKey": {"reqSigs": 1, "hex": "76a914c84119b6aa21333bf74ee56b3dd13017580f092688ac", "addresses": ["1KFr8dCo4iouC6Fn2UpSoKPHMwEFYRHHaJ"], "asm": "OP_DUP OP_HASH160 c84119b6aa21333bf74ee56b3dd13017580f0926 OP_EQUALVERIFY OP_CHECKSIG", "type": "pubkeyhash"}, "value": 0.10324796, "n": 8}, {"scriptPubKey": {"reqSigs": 1, "hex": "a91472a51ada47cf07e1a02dd9192a2ce3855486f2f587", "addresses": ["3C9Ck6qk65wDYmdcvKXfu5NWCrKZEBeJrU"], "asm": "OP_HASH160 72a51ada47cf07e1a02dd9192a2ce3855486f2f5 OP_EQUAL", "type": "scripthash"}, "value": 0.00549403, "n": 9}, {"scriptPubKey": {"reqSigs": 1, "hex": "a914744a131b6c77991db1a42d8261caf17240c5cdfc87", "addresses": ["3CHu3bJ6PfRGt2s5KnePsAtXiAkadUtCgr"], "asm": "OP_HASH160 744a131b6c77991db1a42d8261caf17240c5cdfc OP_EQUAL", "type": "scripthash"}, "value": 0.00507952, "n": 10}, {"scriptPubKey": {"reqSigs": 1, "hex": "76a914075a0dee06f482e5bc55b7bc31ff5c1ffb2207f988ac", "addresses": ["1fscS85qnasUcRNgk4MNL4ogHpFevutxZ"], "asm": "OP_DUP OP_HASH160 075a0dee06f482e5bc55b7bc31ff5c1ffb2207f9 OP_EQUALVERIFY OP_CHECKSIG", "type": "pubkeyhash"}, "value": 0.01287109, "n": 11}, {"scriptPubKey": {"reqSigs": 1, "hex": "76a9145524411379dcb4ba5473166b5fcca15b04c5e1fc88ac", "addresses": ["18mBsHvcqnhnEkCuMnJKyvYnVcAv3yfrus"], "asm": "OP_DUP OP_HASH160 5524411379dcb4ba5473166b5fcca15b04c5e1fc OP_EQUALVERIFY OP_CHECKSIG", "type": "pubkeyhash"}, "value": 0.002924, "n": 12}, {"scriptPubKey": {"reqSigs": 1, "hex": "a91451f98e7fa61a987085ceb14fc9e5d08d730f2aee87", "addresses": ["39ATcaeoEex78BCDCos8GpoKXZGPrbvWbN"], "asm": "OP_HASH160 51f98e7fa61a987085ceb14fc9e5d08d730f2aee OP_EQUAL", "type": "scripthash"}, "value": 0.00493083, "n": 13}, {"scriptPubKey": {"reqSigs": 1, "hex": "a914dc1eef113275e4151dd25fed4a8e0ed3aba03c8287", "addresses": ["3Mkue4vXUftHCeWxeiDKhf6k1gqBM2S5Pq"], "asm": "OP_HASH160 dc1eef113275e4151dd25fed4a8e0ed3aba03c82 OP_EQUAL", "type": "scripthash"}, "value": 0.0014245, "n": 14}, {"scriptPubKey": {"reqSigs": 1, "hex": "a91469e8605e3eaf491a4badc964b755e8401733449587", "addresses": ["3BM1FV2A7xk2zheMsQaXzmK9PdmbrsS1br"], "asm": "OP_HASH160 69e8605e3eaf491a4badc964b755e84017334495 OP_EQUAL", "type": "scripthash"}, "value": 0.00777995, "n": 15}, {"scriptPubKey": {"reqSigs": 1, "hex": "a914c3e3e0bd0580e715bc8fc3075945c4daf86aa6f887", "addresses": ["3KYngBc5VoXPs1ah3uPEChb9jnVHERhgy1"], "asm": "OP_HASH160 c3e3e0bd0580e715bc8fc3075945c4daf86aa6f8 OP_EQUAL", "type": "scripthash"}, "value": 0.01074585, "n": 16}, {"scriptPubKey": {"reqSigs": 1, "hex": "76a914c6862829e6877bc00299784beaef1bc79d99c4e988ac", "addresses": ["1K6hWNFwWKnmz9Y4yzEqHyyR5yZZdbjtk8"], "asm": "OP_DUP OP_HASH160 c6862829e6877bc00299784beaef1bc79d99c4e9 OP_EQUALVERIFY OP_CHECKSIG", "type": "pubkeyhash"}, "value": 0.01104859, "n": 17}, {"scriptPubKey": {"reqSigs": 1, "hex": "a9144abaebdb03fe7f8122caa37c68682758c9b3f20887", "addresses": ["38W9rG1QCJdZ6Ebxk8c27bDRXewjt2Wo8v"], "asm": "OP_HASH160 4abaebdb03fe7f8122caa37c68682758c9b3f208 OP_EQUAL", "type": "scripthash"}, "value": 0.00211346, "n": 18}, {"scriptPubKey": {"reqSigs": 1, "hex": "a91478783ceaf9e70b3c3620873b4e347e904d72bc8787", "addresses": ["3Cg13qsJgDr9NTMyThGDK2tu2uQAGZgyxx"], "asm": "OP_HASH160 78783ceaf9e70b3c3620873b4e347e904d72bc87 OP_EQUAL", "type": "scripthash"}, "value": 0.00556006, "n": 19}, {"scriptPubKey": {"reqSigs": 1, "hex": "a914c6b556bec75c079ddaaf0a968d115f2b87e84f8387", "addresses": ["3KogxAq1cHpGXos87sAzZp5ZFkn1FooPW9"], "asm": "OP_HASH160 c6b556bec75c079ddaaf0a968d115f2b87e84f83 OP_EQUAL", "type": "scripthash"}, "value": 0.00225415, "n": 20}, {"scriptPubKey": {"reqSigs": 1, "hex": "a914c3d07b39f577037fcd2732f048b1c61bc849107b87", "addresses": ["3KYPSVKR91rNNvvm1puBUfjwD2WypZL8Gn"], "asm": "OP_HASH160 c3d07b39f577037fcd2732f048b1c61bc849107b OP_EQUAL", "type": "scripthash"}, "value": 0.00036772, "n": 21}, {"scriptPubKey": {"reqSigs": 1, "hex": "a914e3340fbad8b3d08fbefc12bffb6685a19598df9d87", "addresses": ["3NQMgP6pyqGygUhpMQiziY3QbAruEciowT"], "asm": "OP_HASH160 e3340fbad8b3d08fbefc12bffb6685a19598df9d OP_EQUAL", "type": "scripthash"}, "value": 0.0022, "n": 22}, {"scriptPubKey": {"reqSigs": 1, "hex": "a91499c4c569bb2d1d6eef445def291f732bb38e1c6387", "addresses": ["3Fi52nvcv9XxUc8VezimoXgRTjvSDmhN3T"], "asm": "OP_HASH160 99c4c569bb2d1d6eef445def291f732bb38e1c63 OP_EQUAL", "type": "scripthash"}, "value": 0.0031606, "n": 23}, {"scriptPubKey": {"reqSigs": 1, "hex": "a9143a6ebc6f5b6afaa8be443efcdeada8ea87e6258e87", "addresses": ["371ymkHxmGeNrFWH1NgGuc7HLDGH7v5VSV"], "asm": "OP_HASH160 3a6ebc6f5b6afaa8be443efcdeada8ea87e6258e OP_EQUAL", "type": "scripthash"}, "value": 0.00498701, "n": 24}], "hex": "02000000000101b4bc2420a4645b6ce90a94e31df8212eadb73a69c8766a9da7ff9629e554cad01600000017160014d5f5dca3cbbf553a72725bb3bffef61cf6f5ba2efeffffff19a3bc06000000000017a9141df05ab61713bc9a8ba315e0edb03f26fd09e20d8713f706000000000017a9145c16b5c1c14936af5a3265c87ca2fd6beb94d36987ce8d01000000000017a914c13fcb1bad19e12e3723147e448ee5bc27cb35a78763c725b00000000017a91402c6fe2a0fbd610c6ccb79d134ed09a3a2c9d910871b9e03000000000017a91417a7035fceca1707cda14ce7ca5c38c38df4862987ce6307000000000017a914ca91e4dfd327fd8ff441daf8cd36ae52b734e3f387902c07000000000017a914ec215ea5ae22adb01c4e9818cc78767b8e4b728d87d9130700000000001976a914d764bcb5b5dd39cd5bf03f3945832afcf545261a88ac3c8b9d00000000001976a914c84119b6aa21333bf74ee56b3dd13017580f092688ac1b6208000000000017a91472a51ada47cf07e1a02dd9192a2ce3855486f2f58730c007000000000017a914744a131b6c77991db1a42d8261caf17240c5cdfc87c5a31300000000001976a914075a0dee06f482e5bc55b7bc31ff5c1ffb2207f988ac30760400000000001976a9145524411379dcb4ba5473166b5fcca15b04c5e1fc88ac1b8607000000000017a91451f98e7fa61a987085ceb14fc9e5d08d730f2aee87722c02000000000017a914dc1eef113275e4151dd25fed4a8e0ed3aba03c82870bdf0b000000000017a91469e8605e3eaf491a4badc964b755e8401733449587996510000000000017a914c3e3e0bd0580e715bc8fc3075945c4daf86aa6f887dbdb1000000000001976a914c6862829e6877bc00299784beaef1bc79d99c4e988ac923903000000000017a9144abaebdb03fe7f8122caa37c68682758c9b3f20887e67b08000000000017a91478783ceaf9e70b3c3620873b4e347e904d72bc8787877003000000000017a914c6b556bec75c079ddaaf0a968d115f2b87e84f8387a48f00000000000017a914c3d07b39f577037fcd2732f048b1c61bc849107b87605b03000000000017a914e3340fbad8b3d08fbefc12bffb6685a19598df9d879cd204000000000017a91499c4c569bb2d1d6eef445def291f732bb38e1c63870d9c07000000000017a9143a6ebc6f5b6afaa8be443efcdeada8ea87e6258e8702483045022100cd4db10cb68d02653cb044ec93b9b887cc68ce219e6d197e2d32d50f431e4d1b02204a51fbbf8dd86701b8f814db3960879b6ceaedaa63c66c1c334bdc064c4596b50121022f335cc171c91ea66c99793bed8ad59a9a79313a0bcf5433fc48a7014afe7bb614490800", "vin": [{"txinwitness": ["3045022100cd4db10cb68d02653cb044ec93b9b887cc68ce219e6d197e2d32d50f431e4d1b02204a51fbbf8dd86701b8f814db3960879b6ceaedaa63c66c1c334bdc064c4596b501", "022f335cc171c91ea66c99793bed8ad59a9a79313a0bcf5433fc48a7014afe7bb6"], "sequence": 4294967294, "scriptSig": {"hex": "160014d5f5dca3cbbf553a72725bb3bffef61cf6f5ba2e", "asm": "0014d5f5dca3cbbf553a72725bb3bffef61cf6f5ba2e"}, "vout": 22, "txid": "d0ca54e52996ffa79d6a76c8693ab7ad2e21f81de3940ae96c5b64a42024bcb4"}], "txid": "1c079935424925b33bf3ad781b3172e62465c2a24d0f434e469318494a07ba01", "blocktime": 1537873891, "version": 2, "confirmations": 11475, "time": 1537873891, "locktime": 542996, "vsize": 912, "size": 994}