{"hash": "5f53b2a7330dbab46705b004fec555cc0ee09ca5d1d9fd8f9e0192e365e00f1d", "blockhash": "0000000000000000001cda96e906b7601b7a6fb1a3b62bca570a9e5d8f4b3de1", "vout": [{"scriptPubKey": {"reqSigs": 1, "hex": "76a9141e5a98dd38c1cae1a72086a14b159da32f2ddda988ac", "addresses": ["13mVoZ79o2jiiQKjxcpTePYZLWFrpMi5Fm"], "asm": "OP_DUP OP_HASH160 1e5a98dd38c1cae1a72086a14b159da32f2ddda9 OP_EQUALVERIFY OP_CHECKSIG", "type": "pubkeyhash"}, "value": 0.0031086, "n": 0}, {"scriptPubKey": {"reqSigs": 1, "hex": "a9142ed7bfb057e144479029f360bff8cc87728dee1187", "addresses": ["35xhTrcrkNzRqkuSKQTkDDG2MNaY86m6u1"], "asm": "OP_HASH160 2ed7bfb057e144479029f360bff8cc87728dee11 OP_EQUAL", "type": "scripthash"}, "value": 0.00999586, "n": 1}], "hex": "02000000000103093503a18869faa9353069952992d17c9a0dd59de53240af23d702a0c51ef5161200000017160014f05d60951b017faaad034c8e619568a6446459fffeffffff7d8dd08603c5fa8c03766551af8eb8d24ee4a56ba7fa4008ffde56f9715ec36d0000000017160014bceea3e9de311a295a5434e6cc2ef44cd0b7ef3ffeffffffb403a6841c7fee65d89995b55e836048b729a00b4caa033ed7c98fb269fc1afd1100000017160014bd140a32aee51224d29ecacbc559a996b9f039f3feffffff024cbe0400000000001976a9141e5a98dd38c1cae1a72086a14b159da32f2ddda988aca2400f000000000017a9142ed7bfb057e144479029f360bff8cc87728dee1187024730440220542c00d5d06ed1905bb8b18ac1e50ee72ac47ee8ed65682d7a961aeb067b13cb022034870e827bb98137df9bdecfa84dbbf160139a3f959b50afff3efae9933b4713012103ac71f0edd8d69de989d9d80d4bc2f37d4f5f49c39e4c8ca0b9fe752eb75262cf02473044022070ff8273d1d1405531e9460658169bd4d01f6d7b74ab990782c320c1c4f28600022038cc8b56a68a54f7e24ef01f4a1736c55626873b738d37f447b61e22735271d9012102890e9a071cf6bc61c34bc1d9e9a8ae953ce6b52064c59311e11ca0ca1633127202483045022100ff2c4011a1480e7ea3ad172be7c734fe566f7c43a36b0e87272efa348f15e77402205f91be05cff69098f29f54100f654c5f5bf20725e5536961cd0121870f15278901210277bc8b25c42e8f52a625659ab1391faa5a7a2fe35005e851abd1be0cb077e0da13490800", "vin": [{"txinwitness": ["30440220542c00d5d06ed1905bb8b18ac1e50ee72ac47ee8ed65682d7a961aeb067b13cb022034870e827bb98137df9bdecfa84dbbf160139a3f959b50afff3efae9933b471301", "03ac71f0edd8d69de989d9d80d4bc2f37d4f5f49c39e4c8ca0b9fe752eb75262cf"], "sequence": 4294967294, "scriptSig": {"hex": "160014f05d60951b017faaad034c8e619568a6446459ff", "asm": "0014f05d60951b017faaad034c8e619568a6446459ff"}, "vout": 18, "txid": "16f51ec5a002d723af4032e59dd50d9a7cd1922995693035a9fa6988a1033509"}, {"txinwitness": ["3044022070ff8273d1d1405531e9460658169bd4d01f6d7b74ab990782c320c1c4f28600022038cc8b56a68a54f7e24ef01f4a1736c55626873b738d37f447b61e22735271d901", "02890e9a071cf6bc61c34bc1d9e9a8ae953ce6b52064c59311e11ca0ca16331272"], "sequence": 4294967294, "scriptSig": {"hex": "160014bceea3e9de311a295a5434e6cc2ef44cd0b7ef3f", "asm": "0014bceea3e9de311a295a5434e6cc2ef44cd0b7ef3f"}, "vout": 0, "txid": "6dc35e71f956deff0840faa76ba5e44ed2b88eaf516576038cfac50386d08d7d"}, {"txinwitness": ["3045022100ff2c4011a1480e7ea3ad172be7c734fe566f7c43a36b0e87272efa348f15e77402205f91be05cff69098f29f54100f654c5f5bf20725e5536961cd0121870f15278901", "0277bc8b25c42e8f52a625659ab1391faa5a7a2fe35005e851abd1be0cb077e0da"], "sequence": 4294967294, "scriptSig": {"hex": "160014bd140a32aee51224d29ecacbc559a996b9f039f3", "asm": "0014bd140a32aee51224d29ecacbc559a996b9f039f3"}, "vout": 17, "txid": "fd1afc69b28fc9d73e03aa4c0ba029b74860835eb59599d865ee7f1c84a603b4"}], "txid": "1c0774c3085733257722b52f1757b9eb7dd9c1a1e6a813af376e501275cd0af3", "blocktime": 1537873282, "version": 2, "confirmations": 11485, "time": 1537873282, "locktime": 542995, "vsize": 349, "size": 592}