{"hash": "1c0812df2f474c74404e5fc164784d3c78b70a7e42ee653609712882e5620bc1", "blockhash": "00000000000000000004ffacab907a6b429b9a5745fa0b75af4234bf69dd7176", "vout": [{"scriptPubKey": {"reqSigs": 1, "hex": "76a9144be00ae16621554fbe1b76f5c91ecbc931d8e9b488ac", "addresses": ["17vC58j84MZjSSS4cwQF9LUyMGekGs6qP5"], "asm": "OP_DUP OP_HASH160 4be00ae16621554fbe1b76f5c91ecbc931d8e9b4 OP_EQUALVERIFY OP_CHECKSIG", "type": "pubkeyhash"}, "value": 0.0004, "n": 0}, {"scriptPubKey": {"reqSigs": 1, "hex": "76a91406e87fea3d4a530bc5c8a8d0bb344a8fccd2884188ac", "addresses": ["1dXaWeQ89kumVbQYvd9attnBAYqKeQh8C"], "asm": "OP_DUP OP_HASH160 06e87fea3d4a530bc5c8a8d0bb344a8fccd28841 OP_EQUALVERIFY OP_CHECKSIG", "type": "pubkeyhash"}, "value": 0.00036005, "n": 1}], "hex": "0100000001835d43d54becf62d91651db6e4b8ecfff63ee70b6fe8bd8c5db361eeae1b38ac000000006b483045022100d6715682853ada8954721201bfe861aa3db645ada3e4c19c7583789cbe236bf102203504d51f1448bbf494c8bf725ab2ba3c9ca9e0aa4de63025ee4ae0088f9ec575012102a83d284c69120e59ee670f7599150f7782f92ccf4b7b1f08739f0c081a540e99ffffffff02409c0000000000001976a9144be00ae16621554fbe1b76f5c91ecbc931d8e9b488aca58c0000000000001976a91406e87fea3d4a530bc5c8a8d0bb344a8fccd2884188ac00000000", "vin": [{"sequence": 4294967295, "scriptSig": {"hex": "483045022100d6715682853ada8954721201bfe861aa3db645ada3e4c19c7583789cbe236bf102203504d51f1448bbf494c8bf725ab2ba3c9ca9e0aa4de63025ee4ae0088f9ec575012102a83d284c69120e59ee670f7599150f7782f92ccf4b7b1f08739f0c081a540e99", "asm": "3045022100d6715682853ada8954721201bfe861aa3db645ada3e4c19c7583789cbe236bf102203504d51f1448bbf494c8bf725ab2ba3c9ca9e0aa4de63025ee4ae0088f9ec575[ALL] 02a83d284c69120e59ee670f7599150f7782f92ccf4b7b1f08739f0c081a540e99"}, "vout": 0, "txid": "ac381baeee61b35d8cbde86f0be73ef6ffecb8e4b61d65912df6ec4bd5435d83"}], "txid": "1c0812df2f474c74404e5fc164784d3c78b70a7e42ee653609712882e5620bc1", "blocktime": 1537875543, "version": 1, "confirmations": 11464, "time": 1537875543, "locktime": 0, "vsize": 226, "size": 226}