{"hash": "6d7266d6ac7a7ee2334b863fb9c43a8bc8276585b4fa1489a5006649e976740e", "blockhash": "0000000000000000001cda96e906b7601b7a6fb1a3b62bca570a9e5d8f4b3de1", "vout": [{"scriptPubKey": {"reqSigs": 1, "hex": "76a91450ee52e35b2bd8dc2affeaedbe20df349e2b93cc88ac", "addresses": ["18NvZNe49M3U4a37pVMiqiAJXw9H5KhZTb"], "asm": "OP_DUP OP_HASH160 50ee52e35b2bd8dc2affeaedbe20df349e2b93cc OP_EQUALVERIFY OP_CHECKSIG", "type": "pubkeyhash"}, "value": 0.04312701, "n": 0}, {"scriptPubKey": {"reqSigs": 1, "hex": "a9141988a27e3c2df4ddee7fad5a2303d086179b2a3087", "addresses": ["3422VtS7UtCvXYxoXMVp6eZupR252z85oC"], "asm": "OP_HASH160 1988a27e3c2df4ddee7fad5a2303d086179b2a30 OP_EQUAL", "type": "scripthash"}, "value": 0.65923282, "n": 1}], "hex": "010000000001016565ee4c806784a4236ec73732e9584bad0d02a8947c25ed415e8b93da02dc4b030000002322002065d416c48a8072e0ac51c2d111eb194f009caef0332446c1bf2097316cf07fa9ffffffff027dce4100000000001976a91450ee52e35b2bd8dc2affeaedbe20df349e2b93cc88acd2e8ed030000000017a9141988a27e3c2df4ddee7fad5a2303d086179b2a3087040047304402206ca4191331b27e7b95c1932c505bc2811d319c3d3b4b078c757e08585fb890f4022048767eca4cf8652418527fffd184762a4f67918eddfe53538852935d1e4a8c120148304502210099b16fac0179bc98b38789490c9b88a63fc08c63d49f3405004e80b2d62ff580022050d19b93493bbe15bb2c62ac4f7a11344fff884a73778c01b8760b3f3f1c97370169522102f44abcf9e23c9a460da309ccca56c619c04eed3bde2c2cff5e7d78fbcd980b9c2103c9443cf3047bb6c2c82f1b0c44c36109cdc3d0d601d16d1189a1602bf8d1a0a02103bfe867059274412412e088af5572b92168c2ef495cfe6c9b7a753a009eb37c4853ae00000000", "vin": [{"txinwitness": ["", "304402206ca4191331b27e7b95c1932c505bc2811d319c3d3b4b078c757e08585fb890f4022048767eca4cf8652418527fffd184762a4f67918eddfe53538852935d1e4a8c1201", "304502210099b16fac0179bc98b38789490c9b88a63fc08c63d49f3405004e80b2d62ff580022050d19b93493bbe15bb2c62ac4f7a11344fff884a73778c01b8760b3f3f1c973701", "522102f44abcf9e23c9a460da309ccca56c619c04eed3bde2c2cff5e7d78fbcd980b9c2103c9443cf3047bb6c2c82f1b0c44c36109cdc3d0d601d16d1189a1602bf8d1a0a02103bfe867059274412412e088af5572b92168c2ef495cfe6c9b7a753a009eb37c4853ae"], "sequence": 4294967295, "scriptSig": {"hex": "22002065d416c48a8072e0ac51c2d111eb194f009caef0332446c1bf2097316cf07fa9", "asm": "002065d416c48a8072e0ac51c2d111eb194f009caef0332446c1bf2097316cf07fa9"}, "vout": 3, "txid": "4bdc02da938b5e41ed257c94a8020dad4b58e93237c76e23a48467804cee6565"}], "txid": "1c0b72806adefa5c4857bcff3276251c723ef88094ba939aae5c71a21240374a", "blocktime": 1537873282, "version": 1, "confirmations": 11483, "time": 1537873282, "locktime": 0, "vsize": 216, "size": 407}