{"hash": "1c0e1b6dd0e4b6ea009aff12900175c0daf2d60fde201d6adcfdb361d1698e51", "blockhash": "0000000000000000001f76057863aec43deb6fa401d9628bb513d65a8098bfab", "vout": [{"scriptPubKey": {"reqSigs": 1, "hex": "76a914d7c9fec358936fb3378a46c7bf54b2131128992d88ac", "addresses": ["1LfzG7c5tAH3MZBWdSM2gCmifVA3B1xgY3"], "asm": "OP_DUP OP_HASH160 d7c9fec358936fb3378a46c7bf54b2131128992d OP_EQUALVERIFY OP_CHECKSIG", "type": "pubkeyhash"}, "value": 0.0147606, "n": 0}, {"scriptPubKey": {"type": "nulldata", "hex": "6a4c50000077db0001a7a87563874182cc956141857af8e8e963c7cfd5b95b23cc0f42c2fc38c55223f8946ef7c6e26582f8f0d13053bd5baa15c906130cdae951bca8bc9a9526289ac0f6612cd74e33776ee4", "asm": "OP_RETURN 000077db0001a7a87563874182cc956141857af8e8e963c7cfd5b95b23cc0f42c2fc38c55223f8946ef7c6e26582f8f0d13053bd5baa15c906130cdae951bca8bc9a9526289ac0f6612cd74e33776ee4"}, "value": 0.0, "n": 1}], "hex": "0100000001255dd73d44ba9bff2415a60831d586b0100bef0499641dc4e34fe3ddc0432f64010000006a47304402200a59c914fc8b01fc72dd7b1aea939297f24a28848de24ab5852381accd31d78402201a8d7abff5a28cf4e4380553161590f837f37a4e4151fcc3d21df2b2534e3ca501210223330ce31d3d464d111f2524efb4947679b2ca2d19d51b5faa882f607e71eb52ffffffff02dc851600000000001976a914d7c9fec358936fb3378a46c7bf54b2131128992d88ac0000000000000000536a4c50000077db0001a7a87563874182cc956141857af8e8e963c7cfd5b95b23cc0f42c2fc38c55223f8946ef7c6e26582f8f0d13053bd5baa15c906130cdae951bca8bc9a9526289ac0f6612cd74e33776ee400000000", "vin": [{"sequence": 4294967295, "scriptSig": {"hex": "47304402200a59c914fc8b01fc72dd7b1aea939297f24a28848de24ab5852381accd31d78402201a8d7abff5a28cf4e4380553161590f837f37a4e4151fcc3d21df2b2534e3ca501210223330ce31d3d464d111f2524efb4947679b2ca2d19d51b5faa882f607e71eb52", "asm": "304402200a59c914fc8b01fc72dd7b1aea939297f24a28848de24ab5852381accd31d78402201a8d7abff5a28cf4e4380553161590f837f37a4e4151fcc3d21df2b2534e3ca5[ALL] 0223330ce31d3d464d111f2524efb4947679b2ca2d19d51b5faa882f607e71eb52"}, "vout": 1, "txid": "642f43c0dde34fe3c41d649904ef0b10b086d53108a61524ff9bba443dd75d25"}], "txid": "1c0e1b6dd0e4b6ea009aff12900175c0daf2d60fde201d6adcfdb361d1698e51", "blocktime": 1537873891, "version": 1, "confirmations": 11478, "time": 1537873891, "locktime": 0, "vsize": 283, "size": 283}