{"hash": "1c11eb983954f74e1156228ed45adcf9ba3dbe3fc94570724d6bc0980248e79d", "blockhash": "0000000000000000001f76057863aec43deb6fa401d9628bb513d65a8098bfab", "vout": [{"scriptPubKey": {"reqSigs": 1, "hex": "76a914c70adb484ed82f5ad1982b266a34df7cbe7f1a8b88ac", "addresses": ["1K9SUW85v1sxFmj8ieqkBYfEDkiizCYvK6"], "asm": "OP_DUP OP_HASH160 c70adb484ed82f5ad1982b266a34df7cbe7f1a8b OP_EQUALVERIFY OP_CHECKSIG", "type": "pubkeyhash"}, "value": 0.001, "n": 0}, {"scriptPubKey": {"reqSigs": 1, "hex": "76a9147912cb086de74398fa679a4f90aeed859791571988ac", "addresses": ["1C3BGymcHZT2wq4HFy3KJpBiZtEQ1yg7Ry"], "asm": "OP_DUP OP_HASH160 7912cb086de74398fa679a4f90aeed8597915719 OP_EQUALVERIFY OP_CHECKSIG", "type": "pubkeyhash"}, "value": 0.0028763, "n": 1}], "hex": "010000000202c521294671b8a712d62427ab830a7955613fa140f536a10c984c1c5c261687000000006b483045022100c9811310da095d6e134278bbbaba03508326c636bf96c8bb76241b63f45c7ec402205f385c871ef89f0cefa805a3892002a678efb6f4ac02b9d8d1d5b85815ffd2e8012103c94e83ecf5a5426a02783b5062aa7f09ded6b58fb9c0788635464753b3c7bf9fffffffff3985f4350b72483388187c0795e1266371f63c43fe96016aa70d86273c7bd244000000006a47304402204e02da09b31254835ab189ee608186f9ff54270cea6fbcc813fcd7f21887d54002205acc9e248daebc0b6d5ae4f3fd9a84bbebd23025f61b4cb5c84737886d1d09d7012103c94e83ecf5a5426a02783b5062aa7f09ded6b58fb9c0788635464753b3c7bf9fffffffff02a0860100000000001976a914c70adb484ed82f5ad1982b266a34df7cbe7f1a8b88ac8e630400000000001976a9147912cb086de74398fa679a4f90aeed859791571988ac00000000", "vin": [{"sequence": 4294967295, "scriptSig": {"hex": "483045022100c9811310da095d6e134278bbbaba03508326c636bf96c8bb76241b63f45c7ec402205f385c871ef89f0cefa805a3892002a678efb6f4ac02b9d8d1d5b85815ffd2e8012103c94e83ecf5a5426a02783b5062aa7f09ded6b58fb9c0788635464753b3c7bf9f", "asm": "3045022100c9811310da095d6e134278bbbaba03508326c636bf96c8bb76241b63f45c7ec402205f385c871ef89f0cefa805a3892002a678efb6f4ac02b9d8d1d5b85815ffd2e8[ALL] 03c94e83ecf5a5426a02783b5062aa7f09ded6b58fb9c0788635464753b3c7bf9f"}, "vout": 0, "txid": "8716265c1c4c980ca136f540a13f6155790a83ab2724d612a7b871462921c502"}, {"sequence": 4294967295, "scriptSig": {"hex": "47304402204e02da09b31254835ab189ee608186f9ff54270cea6fbcc813fcd7f21887d54002205acc9e248daebc0b6d5ae4f3fd9a84bbebd23025f61b4cb5c84737886d1d09d7012103c94e83ecf5a5426a02783b5062aa7f09ded6b58fb9c0788635464753b3c7bf9f", "asm": "304402204e02da09b31254835ab189ee608186f9ff54270cea6fbcc813fcd7f21887d54002205acc9e248daebc0b6d5ae4f3fd9a84bbebd23025f61b4cb5c84737886d1d09d7[ALL] 03c94e83ecf5a5426a02783b5062aa7f09ded6b58fb9c0788635464753b3c7bf9f"}, "vout": 0, "txid": "44d27b3c27860da76a0196fe433cf6716326e195077c18883348720b35f48539"}], "txid": "1c11eb983954f74e1156228ed45adcf9ba3dbe3fc94570724d6bc0980248e79d", "blocktime": 1537873891, "version": 1, "confirmations": 11475, "time": 1537873891, "locktime": 0, "vsize": 373, "size": 373}