{"hash": "1c12b3102df80d708c8250b15950d0c5900058efaee8743a076725d51d8b988a", "blockhash": "0000000000000000001f76057863aec43deb6fa401d9628bb513d65a8098bfab", "vout": [{"scriptPubKey": {"reqSigs": 1, "hex": "76a9145d0ea221b36964ab8fd39a62b4005eb4bfb3760488ac", "addresses": ["19V3NajVCMadbAyzTvQTWpUiqG9QXANDGd"], "asm": "OP_DUP OP_HASH160 5d0ea221b36964ab8fd39a62b4005eb4bfb37604 OP_EQUALVERIFY OP_CHECKSIG", "type": "pubkeyhash"}, "value": 0.009, "n": 0}, {"scriptPubKey": {"reqSigs": 1, "hex": "76a91447f319d188a48558daa509f6e23392b5c410202688ac", "addresses": ["17ZSCZgCmnjotqTpwYW3bdugAkNxxT2hYb"], "asm": "OP_DUP OP_HASH160 47f319d188a48558daa509f6e23392b5c4102026 OP_EQUALVERIFY OP_CHECKSIG", "type": "pubkeyhash"}, "value": 0.12303193, "n": 1}], "hex": "0200000001996b6d5f726280796791c4c03420a2a7909e3070d7b162befeba483966a0b01f010000006a4730440220783603d7e425554d5ca550eaeb6b24ddc6ea322e72295c9c2dd0ee22fd84fd920220100a8364feab990bb7a363ca74eaa673ae496d3684a0c3ccde0973076f04b382012103430ec9dc822fb4d76b96cc9980f4b1059108c5a4b6e0348447fa52b32468691fffffffff02a0bb0d00000000001976a9145d0ea221b36964ab8fd39a62b4005eb4bfb3760488ac59bbbb00000000001976a91447f319d188a48558daa509f6e23392b5c410202688ac00000000", "vin": [{"sequence": 4294967295, "scriptSig": {"hex": "4730440220783603d7e425554d5ca550eaeb6b24ddc6ea322e72295c9c2dd0ee22fd84fd920220100a8364feab990bb7a363ca74eaa673ae496d3684a0c3ccde0973076f04b382012103430ec9dc822fb4d76b96cc9980f4b1059108c5a4b6e0348447fa52b32468691f", "asm": "30440220783603d7e425554d5ca550eaeb6b24ddc6ea322e72295c9c2dd0ee22fd84fd920220100a8364feab990bb7a363ca74eaa673ae496d3684a0c3ccde0973076f04b382[ALL] 03430ec9dc822fb4d76b96cc9980f4b1059108c5a4b6e0348447fa52b32468691f"}, "vout": 1, "txid": "1fb0a0663948bafebe62b1d770309e90a7a22034c0c49167798062725f6d6b99"}], "txid": "1c12b3102df80d708c8250b15950d0c5900058efaee8743a076725d51d8b988a", "blocktime": 1537873891, "version": 2, "confirmations": 11474, "time": 1537873891, "locktime": 0, "vsize": 225, "size": 225}