{"hash": "db7dd3fae13fac719730a6d8454895d26b16c59b075ddd1ac9ab64b84b2f6239", "blockhash": "0000000000000000001f76057863aec43deb6fa401d9628bb513d65a8098bfab", "vout": [{"scriptPubKey": {"reqSigs": 1, "hex": "a91430897cc6c9d69f6a2c2f1c651d51f22219f1a4f687", "addresses": ["367f4YWz1VCFaqBqwbTrzwi2b1h2U3w1AF"], "asm": "OP_HASH160 30897cc6c9d69f6a2c2f1c651d51f22219f1a4f6 OP_EQUAL", "type": "scripthash"}, "value": 0.76769722, "n": 0}, {"scriptPubKey": {"reqSigs": 1, "hex": "a914002e7dc7df77138911854a4f52162a2dc20d714d87", "addresses": ["31hycpQELf8Cy32X7es8KEKsJaFm9bKt4B"], "asm": "OP_HASH160 002e7dc7df77138911854a4f52162a2dc20d714d OP_EQUAL", "type": "scripthash"}, "value": 0.67068283, "n": 1}], "hex": "010000000001025b0143fa80909460ed9b4f82b3bbf51a0f95fa3846315303392d158316430c930000000023220020bcf9f822194145acea0f3235f4107b5bf1a91b6b9f8489f63bf79ec29b360913ffffffff4447cf87bcf2560ca915e8dbd4ec6694059044af134ce9e98846a342299d6a210000000023220020bcf9f822194145acea0f3235f4107b5bf1a91b6b9f8489f63bf79ec29b360913ffffffff02ba6993040000000017a91430897cc6c9d69f6a2c2f1c651d51f22219f1a4f6877b61ff030000000017a914002e7dc7df77138911854a4f52162a2dc20d714d870400483045022100a083a385d433b1c1bcfd8efd089a5e7b47b61fd2006523aee11fc1bcb12acb6602203a7512e564b398182ac3da123d822654ed7f839926a5fa52540d1d5c50d0dce401483045022100c349a3376a1e9225bf3dc484e70d8106c4ab39c86779cc9ed80d58f1c880348f02201624d67e4e8a37453f3e228778bf46802fe037085ce94f54bcc0fd001844a12301695221026c8f72b9e63db63907115e65d4da86eaae595b22fdc85ec75301bb4adbf203582103806535be3e3920e5eedee92de5714188fd6a784f2bf7b04f87de0b9c3ae1ecdb21024b23bfdce2afcae7e28c42f7f79aa100f22931712c52d7414a526ba494d44a2553ae040047304402201c126923fffbfd9ed981f103123d7be46f6225dcb0be0a50a60d47b5e097449b022019db8b1d58a83def331cc722aa9b4cf78eeb087759ba5203a26da0fabfed27470148304502210093a27fc922018c922d591a3e5972673d3926a903c1e64a68c2d5e8b0f7772e2a0220139fc05b513f78d6c149e290fc5f44f80c00ac0f0fba4863e2be872f2dfc9e2701695221026c8f72b9e63db63907115e65d4da86eaae595b22fdc85ec75301bb4adbf203582103806535be3e3920e5eedee92de5714188fd6a784f2bf7b04f87de0b9c3ae1ecdb21024b23bfdce2afcae7e28c42f7f79aa100f22931712c52d7414a526ba494d44a2553ae00000000", "vin": [{"txinwitness": ["", "3045022100a083a385d433b1c1bcfd8efd089a5e7b47b61fd2006523aee11fc1bcb12acb6602203a7512e564b398182ac3da123d822654ed7f839926a5fa52540d1d5c50d0dce401", "3045022100c349a3376a1e9225bf3dc484e70d8106c4ab39c86779cc9ed80d58f1c880348f02201624d67e4e8a37453f3e228778bf46802fe037085ce94f54bcc0fd001844a12301", "5221026c8f72b9e63db63907115e65d4da86eaae595b22fdc85ec75301bb4adbf203582103806535be3e3920e5eedee92de5714188fd6a784f2bf7b04f87de0b9c3ae1ecdb21024b23bfdce2afcae7e28c42f7f79aa100f22931712c52d7414a526ba494d44a2553ae"], "sequence": 4294967295, "scriptSig": {"hex": "220020bcf9f822194145acea0f3235f4107b5bf1a91b6b9f8489f63bf79ec29b360913", "asm": "0020bcf9f822194145acea0f3235f4107b5bf1a91b6b9f8489f63bf79ec29b360913"}, "vout": 0, "txid": "930c431683152d390353314638fa950f1af5bbb3824f9bed60949080fa43015b"}, {"txinwitness": ["", "304402201c126923fffbfd9ed981f103123d7be46f6225dcb0be0a50a60d47b5e097449b022019db8b1d58a83def331cc722aa9b4cf78eeb087759ba5203a26da0fabfed274701", "304502210093a27fc922018c922d591a3e5972673d3926a903c1e64a68c2d5e8b0f7772e2a0220139fc05b513f78d6c149e290fc5f44f80c00ac0f0fba4863e2be872f2dfc9e2701", "5221026c8f72b9e63db63907115e65d4da86eaae595b22fdc85ec75301bb4adbf203582103806535be3e3920e5eedee92de5714188fd6a784f2bf7b04f87de0b9c3ae1ecdb21024b23bfdce2afcae7e28c42f7f79aa100f22931712c52d7414a526ba494d44a2553ae"], "sequence": 4294967295, "scriptSig": {"hex": "220020bcf9f822194145acea0f3235f4107b5bf1a91b6b9f8489f63bf79ec29b360913", "asm": "0020bcf9f822194145acea0f3235f4107b5bf1a91b6b9f8489f63bf79ec29b360913"}, "vout": 0, "txid": "216a9d2942a34688e9e94c13af4490059466ecd4dbe815a90c56f2bc87cf4744"}], "txid": "1c1a05bc9408e4f5b2fa8802b45f7feff08a17fc9086e74d4c9c1022d9188101", "blocktime": 1537873891, "version": 1, "confirmations": 11478, "time": 1537873891, "locktime": 0, "vsize": 354, "size": 735}