{"hash": "1c218205fb0fc9bbe91e4881dc471d227983daebd49a022ffd04ff6961693e76", "blockhash": "0000000000000000001cda96e906b7601b7a6fb1a3b62bca570a9e5d8f4b3de1", "vout": [{"scriptPubKey": {"reqSigs": 1, "hex": "a914aecfef85948dbc40f7cbc36f1a67f44d2ba29ccb87", "addresses": ["3HdLbYTj1PrQbukYUvxCyvzXyamLcBLhfv"], "asm": "OP_HASH160 aecfef85948dbc40f7cbc36f1a67f44d2ba29ccb OP_EQUAL", "type": "scripthash"}, "value": 0.00375382, "n": 0}, {"scriptPubKey": {"reqSigs": 1, "hex": "76a9148c1a2c005bfd78ab74783e4d467d07fe4eef24cb88ac", "addresses": ["1DmnxK1AfTLcctq5WCkxrDupUk8fWwpU2C"], "asm": "OP_DUP OP_HASH160 8c1a2c005bfd78ab74783e4d467d07fe4eef24cb OP_EQUALVERIFY OP_CHECKSIG", "type": "pubkeyhash"}, "value": 0.10176196, "n": 1}], "hex": "0200000001446744911ff460760862b81460c65d355e94e619a835bc4b23f5c30e674d3041010000006a47304402205560e1f04560253012429c852609381e86f01bd816b63287b8c542daa08976c3022008eb4a41a3834e07bac968295e45001a84f45ef76dc3d031a8b369914ed21e3501210244638d3e4a42640b222f262546080bc823344744dd16e9001eed3daeab834e9affffffff0256ba05000000000017a914aecfef85948dbc40f7cbc36f1a67f44d2ba29ccb87c4469b00000000001976a9148c1a2c005bfd78ab74783e4d467d07fe4eef24cb88ac00000000", "vin": [{"sequence": 4294967295, "scriptSig": {"hex": "47304402205560e1f04560253012429c852609381e86f01bd816b63287b8c542daa08976c3022008eb4a41a3834e07bac968295e45001a84f45ef76dc3d031a8b369914ed21e3501210244638d3e4a42640b222f262546080bc823344744dd16e9001eed3daeab834e9a", "asm": "304402205560e1f04560253012429c852609381e86f01bd816b63287b8c542daa08976c3022008eb4a41a3834e07bac968295e45001a84f45ef76dc3d031a8b369914ed21e35[ALL] 0244638d3e4a42640b222f262546080bc823344744dd16e9001eed3daeab834e9a"}, "vout": 1, "txid": "41304d670ec3f5234bbc35a819e6945e355dc66014b862087660f41f91446744"}], "txid": "1c218205fb0fc9bbe91e4881dc471d227983daebd49a022ffd04ff6961693e76", "blocktime": 1537873282, "version": 2, "confirmations": 11482, "time": 1537873282, "locktime": 0, "vsize": 223, "size": 223}