{"hash": "1c2246ad9c66e7b0ec5fa1664f0d6b45f7d733c014ab8414510f72dfa60fa5f1", "blockhash": "0000000000000000001f76057863aec43deb6fa401d9628bb513d65a8098bfab", "vout": [{"scriptPubKey": {"reqSigs": 1, "hex": "76a9144e1dfedd64b02e47b7dedfce36b507984eace14b88ac", "addresses": ["1883e6Hr22QQdLq6WwzXfbnrBNaVJvGKfn"], "asm": "OP_DUP OP_HASH160 4e1dfedd64b02e47b7dedfce36b507984eace14b OP_EQUALVERIFY OP_CHECKSIG", "type": "pubkeyhash"}, "value": 0.0366514, "n": 0}, {"scriptPubKey": {"reqSigs": 1, "hex": "76a914662497dc6ec4abccd4e6a5d1d11652f81aaf9abe88ac", "addresses": ["1AK5m7E2BJC1DC37wDERSi6zYw6PBCvXFS"], "asm": "OP_DUP OP_HASH160 662497dc6ec4abccd4e6a5d1d11652f81aaf9abe OP_EQUALVERIFY OP_CHECKSIG", "type": "pubkeyhash"}, "value": 0.061, "n": 1}], "hex": "0100000001458f74444da2159b385a4bab8c360930bed6599bf676bce2cea26eeea888a06d000000006a47304402200684430e7a0f630dd59c22b09347d35cd461443eae3faa9c1794da09be98d0f7022069d3c00e71a13d02c3aa8228bc31a4a7766307849af67e5cedd518ec39bf09c5012102fd1f5db7cb994d6af395a6275aef203d2f853f54911add487a0f01f7539af0c3fdffffff02f4ec3700000000001976a9144e1dfedd64b02e47b7dedfce36b507984eace14b88ac20145d00000000001976a914662497dc6ec4abccd4e6a5d1d11652f81aaf9abe88ac13490800", "vin": [{"sequence": 4294967293, "scriptSig": {"hex": "47304402200684430e7a0f630dd59c22b09347d35cd461443eae3faa9c1794da09be98d0f7022069d3c00e71a13d02c3aa8228bc31a4a7766307849af67e5cedd518ec39bf09c5012102fd1f5db7cb994d6af395a6275aef203d2f853f54911add487a0f01f7539af0c3", "asm": "304402200684430e7a0f630dd59c22b09347d35cd461443eae3faa9c1794da09be98d0f7022069d3c00e71a13d02c3aa8228bc31a4a7766307849af67e5cedd518ec39bf09c5[ALL] 02fd1f5db7cb994d6af395a6275aef203d2f853f54911add487a0f01f7539af0c3"}, "vout": 0, "txid": "6da088a8ee6ea2cee2bc76f69b59d6be3009368cab4b5a389b15a24d44748f45"}], "txid": "1c2246ad9c66e7b0ec5fa1664f0d6b45f7d733c014ab8414510f72dfa60fa5f1", "blocktime": 1537873891, "version": 1, "confirmations": 11479, "time": 1537873891, "locktime": 542995, "vsize": 225, "size": 225}