{"hash": "1c28ecb1588226392c7c24875341bbf4af7229f71cafbf76a1ce770e1bf4d4e1", "blockhash": "000000000000000000022b45ed06c6f4ccd3cf7fb5ba4856ebd2e58215665228", "vout": [{"scriptPubKey": {"type": "nulldata", "hex": "6a146f6d6e69000000000000001f00000023c0e608a4", "asm": "OP_RETURN 6f6d6e69000000000000001f00000023c0e608a4"}, "value": 0.0, "n": 0}, {"scriptPubKey": {"reqSigs": 1, "hex": "76a914a25dec4d0011064ef106a983c39c7a540699f22088ac", "addresses": ["1FoWyxwPXuj4C6abqwhjDWdz6D4PZgYRjA"], "asm": "OP_DUP OP_HASH160 a25dec4d0011064ef106a983c39c7a540699f220 OP_EQUALVERIFY OP_CHECKSIG", "type": "pubkeyhash"}, "value": 0.01995188, "n": 1}, {"scriptPubKey": {"reqSigs": 1, "hex": "76a9146d1faa55cf6a93ead3f957cf7ada768b35f9f46d88ac", "addresses": ["1Awzb4NXeSPa8f21nEdvtigMEhCDuw3Z3i"], "asm": "OP_DUP OP_HASH160 6d1faa55cf6a93ead3f957cf7ada768b35f9f46d OP_EQUALVERIFY OP_CHECKSIG", "type": "pubkeyhash"}, "value": 5.46e-06, "n": 2}], "hex": "0100000001a44813c76173a4fe9689194c29809e35be05f1741d9b5e1e9e8bd44070ac1fea5a0000006b483045022100c7f3b005b0870e25552e2f32927da479164fa065b4d0ba1fe01fe09628c0b36c0220623a16125db473025ffddf8a252195624f682d60bbfb5e0c126269553d079ee8012103da5bac7b36d5aa38f531c6b9601e21bb598a4b6716ebed38b009a55dabde9440feffffff030000000000000000166a146f6d6e69000000000000001f00000023c0e608a4b4711e00000000001976a914a25dec4d0011064ef106a983c39c7a540699f22088ac22020000000000001976a9146d1faa55cf6a93ead3f957cf7ada768b35f9f46d88ac0b490800", "vin": [{"sequence": 4294967294, "scriptSig": {"hex": "483045022100c7f3b005b0870e25552e2f32927da479164fa065b4d0ba1fe01fe09628c0b36c0220623a16125db473025ffddf8a252195624f682d60bbfb5e0c126269553d079ee8012103da5bac7b36d5aa38f531c6b9601e21bb598a4b6716ebed38b009a55dabde9440", "asm": "3045022100c7f3b005b0870e25552e2f32927da479164fa065b4d0ba1fe01fe09628c0b36c0220623a16125db473025ffddf8a252195624f682d60bbfb5e0c126269553d079ee8[ALL] 03da5bac7b36d5aa38f531c6b9601e21bb598a4b6716ebed38b009a55dabde9440"}, "vout": 90, "txid": "ea1fac7040d48b9e1e5e9b1d74f105be359e80294c198996fea47361c71348a4"}], "txid": "1c28ecb1588226392c7c24875341bbf4af7229f71cafbf76a1ce770e1bf4d4e1", "blocktime": 1537869901, "version": 1, "confirmations": 11522, "time": 1537869901, "locktime": 542987, "vsize": 257, "size": 257}