{"hash": "1c3694430bea94ab6d79d0af81bdc409353102a3d04940ee280f61cb01c9fb33", "blockhash": "0000000000000000000dcc0f55137456b1a82d3642486a52398922ac4d620174", "vout": [{"scriptPubKey": {"type": "nulldata", "hex": "6a146f6d6e69000000000000001f000002ba6a43c980", "asm": "OP_RETURN 6f6d6e69000000000000001f000002ba6a43c980"}, "value": 0.0, "n": 0}, {"scriptPubKey": {"reqSigs": 1, "hex": "76a914abc6f17359e8298910ce7dfba086977a0e50afa788ac", "addresses": ["1GfGscm1fC1yBWTEjoL163RUBivZ9HFo3A"], "asm": "OP_DUP OP_HASH160 abc6f17359e8298910ce7dfba086977a0e50afa7 OP_EQUALVERIFY OP_CHECKSIG", "type": "pubkeyhash"}, "value": 8.894e-05, "n": 1}, {"scriptPubKey": {"reqSigs": 1, "hex": "76a914882cc4f54c2ea08d18892bb11ab27fc43e466e7188ac", "addresses": ["1DR2XiiEjs91cTtp1LxyqEKm5ihNABmRZ7"], "asm": "OP_DUP OP_HASH160 882cc4f54c2ea08d18892bb11ab27fc43e466e71 OP_EQUALVERIFY OP_CHECKSIG", "type": "pubkeyhash"}, "value": 5.46e-06, "n": 2}], "hex": "0100000001515c7eba8bdff3305a66feabfc67fe9401a11af29713d9c2acfce59cdb2b3717010000006b483045022100e322ae75389843ec6b476f328cd8860ba587e5b2a0b7a30ebfe5d17aa703507302200891a9d53e2db7c9c75a37cbcd2263882379a342edb89b7156c4e8d7e1027e3501210288b6238fe2a54bfb9a937243ad61956141964d85ac43cd75c096b682aee6aac8feffffff030000000000000000166a146f6d6e69000000000000001f000002ba6a43c980be220000000000001976a914abc6f17359e8298910ce7dfba086977a0e50afa788ac22020000000000001976a914882cc4f54c2ea08d18892bb11ab27fc43e466e7188ac0c490800", "vin": [{"sequence": 4294967294, "scriptSig": {"hex": "483045022100e322ae75389843ec6b476f328cd8860ba587e5b2a0b7a30ebfe5d17aa703507302200891a9d53e2db7c9c75a37cbcd2263882379a342edb89b7156c4e8d7e1027e3501210288b6238fe2a54bfb9a937243ad61956141964d85ac43cd75c096b682aee6aac8", "asm": "3045022100e322ae75389843ec6b476f328cd8860ba587e5b2a0b7a30ebfe5d17aa703507302200891a9d53e2db7c9c75a37cbcd2263882379a342edb89b7156c4e8d7e1027e35[ALL] 0288b6238fe2a54bfb9a937243ad61956141964d85ac43cd75c096b682aee6aac8"}, "vout": 1, "txid": "17372bdb9ce5fcacc2d91397f21aa10194fe67fcabfe665a30f3df8bba7e5c51"}], "txid": "1c3694430bea94ab6d79d0af81bdc409353102a3d04940ee280f61cb01c9fb33", "blocktime": 1537870268, "version": 1, "confirmations": 11516, "time": 1537870268, "locktime": 542988, "vsize": 257, "size": 257}