{"hash": "1c37b8205c862e8b3e8966d0c7a1ed4b0d4a301c49aec6d25011153890b0c493", "blockhash": "0000000000000000001cda96e906b7601b7a6fb1a3b62bca570a9e5d8f4b3de1", "vout": [{"scriptPubKey": {"reqSigs": 1, "hex": "76a9140b36c7581898b3a157b3242c2106eb456298efdb88ac", "addresses": ["122J4Cc9BJpgRgTUfWJmxufgu7LS81PxnB"], "asm": "OP_DUP OP_HASH160 0b36c7581898b3a157b3242c2106eb456298efdb OP_EQUALVERIFY OP_CHECKSIG", "type": "pubkeyhash"}, "value": 0.00055419, "n": 0}, {"scriptPubKey": {"reqSigs": 1, "hex": "76a91434eec504d805fc465b2f4a116477ff4aab1cc91d88ac", "addresses": ["15ptAyjdkEQUPeWbNLZKmWcbnfbdKd5tG5"], "asm": "OP_DUP OP_HASH160 34eec504d805fc465b2f4a116477ff4aab1cc91d OP_EQUALVERIFY OP_CHECKSIG", "type": "pubkeyhash"}, "value": 0.0021, "n": 1}], "hex": "0100000002efdad2ca2f7f631089ba10f75a49c046891a6e8cf133ec2acdafae060d62601e140a00006b483045022100da1fff388553de08d61888a399aabac398344bfd4c98a2fce4e41443f34408e0022037892579044ebf9560d5167397caec179ec03108996e4eb603aaaf64a5156f6b012102dbb97e09b2bc1e9ed3e95ca1e4235912b785e25e1f0f06e8665198c919b3ad76ffffffff2bf03647701c8d3724aa30dc5f9e8c99de3a042636686047c263862010fe10ebcf0900006b483045022100b0f9e2d83705f9eacb15669045ee7c56754c081714c7e4d7f5b80b6fc0e40a0502204e61a08c6fa3bcf9aa3d8251685befc1b5fdfb13a678a6a06f71415f453276af012102dbb97e09b2bc1e9ed3e95ca1e4235912b785e25e1f0f06e8665198c919b3ad76ffffffff027bd80000000000001976a9140b36c7581898b3a157b3242c2106eb456298efdb88ac50340300000000001976a91434eec504d805fc465b2f4a116477ff4aab1cc91d88ac00000000", "vin": [{"sequence": 4294967295, "scriptSig": {"hex": "483045022100da1fff388553de08d61888a399aabac398344bfd4c98a2fce4e41443f34408e0022037892579044ebf9560d5167397caec179ec03108996e4eb603aaaf64a5156f6b012102dbb97e09b2bc1e9ed3e95ca1e4235912b785e25e1f0f06e8665198c919b3ad76", "asm": "3045022100da1fff388553de08d61888a399aabac398344bfd4c98a2fce4e41443f34408e0022037892579044ebf9560d5167397caec179ec03108996e4eb603aaaf64a5156f6b[ALL] 02dbb97e09b2bc1e9ed3e95ca1e4235912b785e25e1f0f06e8665198c919b3ad76"}, "vout": 2580, "txid": "1e60620d06aeafcd2aec33f18c6e1a8946c0495af710ba8910637f2fcad2daef"}, {"sequence": 4294967295, "scriptSig": {"hex": "483045022100b0f9e2d83705f9eacb15669045ee7c56754c081714c7e4d7f5b80b6fc0e40a0502204e61a08c6fa3bcf9aa3d8251685befc1b5fdfb13a678a6a06f71415f453276af012102dbb97e09b2bc1e9ed3e95ca1e4235912b785e25e1f0f06e8665198c919b3ad76", "asm": "3045022100b0f9e2d83705f9eacb15669045ee7c56754c081714c7e4d7f5b80b6fc0e40a0502204e61a08c6fa3bcf9aa3d8251685befc1b5fdfb13a678a6a06f71415f453276af[ALL] 02dbb97e09b2bc1e9ed3e95ca1e4235912b785e25e1f0f06e8665198c919b3ad76"}, "vout": 2511, "txid": "eb10fe10208663c24760683626043ade998c9e5fdc30aa24378d1c704736f02b"}], "txid": "1c37b8205c862e8b3e8966d0c7a1ed4b0d4a301c49aec6d25011153890b0c493", "blocktime": 1537873282, "version": 1, "confirmations": 11482, "time": 1537873282, "locktime": 0, "vsize": 374, "size": 374}