{"hash": "1c387f8bcce612e750d4d36e3e49d5c97bc45c0e9f865df6ada3735e72116f6a", "blockhash": "0000000000000000000dcc0f55137456b1a82d3642486a52398922ac4d620174", "vout": [{"scriptPubKey": {"reqSigs": 1, "hex": "76a914ab2a9d50d30937548f24999a134f7b21dbb99a2a88ac", "addresses": ["1Gc3biG5hsHAoj4ZNAtnT4sCBbtF9sKEEL"], "asm": "OP_DUP OP_HASH160 ab2a9d50d30937548f24999a134f7b21dbb99a2a OP_EQUALVERIFY OP_CHECKSIG", "type": "pubkeyhash"}, "value": 0.0999895, "n": 0}, {"scriptPubKey": {"type": "nulldata", "hex": "6a146f6d6e69000000000000001f00000001a13b8600", "asm": "OP_RETURN 6f6d6e69000000000000001f00000001a13b8600"}, "value": 0.0, "n": 1}], "hex": "01000000023086bb2a6f767087d1e342074b3f4a600468a41f3c5fcba89ac03a620cb0b041000000006b48304502210095418bdf33aeeb1a38aeea1cd9c57c9bc2dcb7cf09992c63ed39aaea1af563f802207eaff6cfb8a24bda799f4f018af205d63c919a4a1079d015488e7512e593d059012102396922440636323b656e65fdfaeca28f4e3ecb226b7bf4a29d879fa9450c178fffffffff8129617e916491a9f111484b8663a0689024eb555cb9e7d02febb8b1dfd055d8030000006a47304402204b492a7154e0f867894c0608742ba624e4e5799ef6345b93455d9ee087d63c76022057a4e781c66e74304880feaabd861080377bd95e9793a1c09c4417a30e5cef6601210390424deb98da6c45c0af5063423f08c91c8161cac684e32e1a05023933e974b9ffffffff0266929800000000001976a914ab2a9d50d30937548f24999a134f7b21dbb99a2a88ac0000000000000000166a146f6d6e69000000000000001f00000001a13b860000000000", "vin": [{"sequence": 4294967295, "scriptSig": {"hex": "48304502210095418bdf33aeeb1a38aeea1cd9c57c9bc2dcb7cf09992c63ed39aaea1af563f802207eaff6cfb8a24bda799f4f018af205d63c919a4a1079d015488e7512e593d059012102396922440636323b656e65fdfaeca28f4e3ecb226b7bf4a29d879fa9450c178f", "asm": "304502210095418bdf33aeeb1a38aeea1cd9c57c9bc2dcb7cf09992c63ed39aaea1af563f802207eaff6cfb8a24bda799f4f018af205d63c919a4a1079d015488e7512e593d059[ALL] 02396922440636323b656e65fdfaeca28f4e3ecb226b7bf4a29d879fa9450c178f"}, "vout": 0, "txid": "41b0b00c623ac09aa8cb5f3c1fa46804604a3f4b0742e3d18770766f2abb8630"}, {"sequence": 4294967295, "scriptSig": {"hex": "47304402204b492a7154e0f867894c0608742ba624e4e5799ef6345b93455d9ee087d63c76022057a4e781c66e74304880feaabd861080377bd95e9793a1c09c4417a30e5cef6601210390424deb98da6c45c0af5063423f08c91c8161cac684e32e1a05023933e974b9", "asm": "304402204b492a7154e0f867894c0608742ba624e4e5799ef6345b93455d9ee087d63c76022057a4e781c66e74304880feaabd861080377bd95e9793a1c09c4417a30e5cef66[ALL] 0390424deb98da6c45c0af5063423f08c91c8161cac684e32e1a05023933e974b9"}, "vout": 3, "txid": "d855d0dfb1b8eb2fd0e7b95c55eb249068a063864b4811f1a99164917e612981"}], "txid": "1c387f8bcce612e750d4d36e3e49d5c97bc45c0e9f865df6ada3735e72116f6a", "blocktime": 1537870268, "version": 1, "confirmations": 11517, "time": 1537870268, "locktime": 0, "vsize": 370, "size": 370}