{"hash": "1c3d912836e98a06c50c9a49bdd4cb427ccc93681912b9b90f2dff5bdf36315e", "blockhash": "0000000000000000001f76057863aec43deb6fa401d9628bb513d65a8098bfab", "vout": [{"scriptPubKey": {"reqSigs": 1, "hex": "a9147cf7118a4975d986efc278af1aa37b4ff5afeca787", "addresses": ["3D5mgxBRou5H61pnVrpJvDuAkt8xEz1ogp"], "asm": "OP_HASH160 7cf7118a4975d986efc278af1aa37b4ff5afeca7 OP_EQUAL", "type": "scripthash"}, "value": 0.0119432, "n": 0}], "hex": "010000000194b9777528c593f3ef0f16ae365d6759b13eedd327f7203427f63473637bc64d010000006a47304402200309e7bef84107db23023dbfcf1f40b4147613f1c90566961ad3479ceb27d9da022038834e1fb9ae6f8932f80c712184341fbdad457d20c11e415e18324a1143c44701210332c4efd1a607e53ff99a818ad4409f8ca612f6da021ed59db16f226d3548e687ffffffff01503912000000000017a9147cf7118a4975d986efc278af1aa37b4ff5afeca78700000000", "vin": [{"sequence": 4294967295, "scriptSig": {"hex": "47304402200309e7bef84107db23023dbfcf1f40b4147613f1c90566961ad3479ceb27d9da022038834e1fb9ae6f8932f80c712184341fbdad457d20c11e415e18324a1143c44701210332c4efd1a607e53ff99a818ad4409f8ca612f6da021ed59db16f226d3548e687", "asm": "304402200309e7bef84107db23023dbfcf1f40b4147613f1c90566961ad3479ceb27d9da022038834e1fb9ae6f8932f80c712184341fbdad457d20c11e415e18324a1143c447[ALL] 0332c4efd1a607e53ff99a818ad4409f8ca612f6da021ed59db16f226d3548e687"}, "vout": 1, "txid": "4dc67b637334f6273420f727d3ed3eb159675d36ae160feff393c5287577b994"}], "txid": "1c3d912836e98a06c50c9a49bdd4cb427ccc93681912b9b90f2dff5bdf36315e", "blocktime": 1537873891, "version": 1, "confirmations": 11478, "time": 1537873891, "locktime": 0, "vsize": 189, "size": 189}