{"hash": "1c4ccf011bfc35329ca12b0b6a60f4a2e3077776dea959b64ed7006639276c3a", "blockhash": "0000000000000000001f76057863aec43deb6fa401d9628bb513d65a8098bfab", "vout": [{"scriptPubKey": {"reqSigs": 1, "hex": "a9149a37f8f5984e6aaf6c1e8a8e7d03c2257dbc1b7387", "addresses": ["3FkT385qHNV8GnbbSpPZ2zY8pgFsYj2zmd"], "asm": "OP_HASH160 9a37f8f5984e6aaf6c1e8a8e7d03c2257dbc1b73 OP_EQUAL", "type": "scripthash"}, "value": 0.03135809, "n": 0}], "hex": "02000000015c47fe392549d250074d483cf0223e6271e39a23ab582bd1786403f1e7fad725000000006a473044022046a812305cbcdc91f553a4cae7d6c50f5b3fafd4be13f228b7196f036e1e4613022037fa88a7d0a0e8794b8a22a2854318aa33a7e3dad4b1895afdcceb67f4496de50121024e5e04bf4d344ee45dbffa57bf81bb21aa596c25af86ca0c81df8d9376c57f4cffffffff0141d92f000000000017a9149a37f8f5984e6aaf6c1e8a8e7d03c2257dbc1b738700000000", "vin": [{"sequence": 4294967295, "scriptSig": {"hex": "473044022046a812305cbcdc91f553a4cae7d6c50f5b3fafd4be13f228b7196f036e1e4613022037fa88a7d0a0e8794b8a22a2854318aa33a7e3dad4b1895afdcceb67f4496de50121024e5e04bf4d344ee45dbffa57bf81bb21aa596c25af86ca0c81df8d9376c57f4c", "asm": "3044022046a812305cbcdc91f553a4cae7d6c50f5b3fafd4be13f228b7196f036e1e4613022037fa88a7d0a0e8794b8a22a2854318aa33a7e3dad4b1895afdcceb67f4496de5[ALL] 024e5e04bf4d344ee45dbffa57bf81bb21aa596c25af86ca0c81df8d9376c57f4c"}, "vout": 0, "txid": "25d7fae7f1036478d12b58ab239ae371623e22f03c484d0750d2492539fe475c"}], "txid": "1c4ccf011bfc35329ca12b0b6a60f4a2e3077776dea959b64ed7006639276c3a", "blocktime": 1537873891, "version": 2, "confirmations": 11479, "time": 1537873891, "locktime": 0, "vsize": 189, "size": 189}