{"hash": "1c55c80a8e96e2e9f60482ffa731b74f2c6bd356aed57125c8b4bde38fa8997a", "blockhash": "0000000000000000000dcc0f55137456b1a82d3642486a52398922ac4d620174", "vout": [{"scriptPubKey": {"type": "nulldata", "hex": "6a4c50000077760001289af6db5aa7155404994516bcbefa6b8351586b4e86aeaeacb577c031fc4be3474d14b6f32469216d99516ca4025baa09660614909024164bf44bbf23acfcfaac8058b692fe6808c31d", "asm": "OP_RETURN 000077760001289af6db5aa7155404994516bcbefa6b8351586b4e86aeaeacb577c031fc4be3474d14b6f32469216d99516ca4025baa09660614909024164bf44bbf23acfcfaac8058b692fe6808c31d"}, "value": 0.0, "n": 0}, {"scriptPubKey": {"reqSigs": 1, "hex": "76a914377a707c2e3266bada663b94f225b6bd8f3412fb88ac", "addresses": ["164Lqnm6GC2BjTiG5YBZSL4bjrWCnyunRK"], "asm": "OP_DUP OP_HASH160 377a707c2e3266bada663b94f225b6bd8f3412fb OP_EQUALVERIFY OP_CHECKSIG", "type": "pubkeyhash"}, "value": 0.00035169, "n": 1}], "hex": "0100000001bf283477a24ddfcdaed6bb6b9566f6a512f53358bc452bacb5e2de06b6a1c1af010000006a473044022037cff41e7f2dd91ca3708bdd657c60b159a6972c9904a15fe721a8322935ffbf02203c4c9114c26480d3ca5c71adf0a38d5f83d9abeb3987c8bae6a595fc0d4f7f7b0121028cddc93851d946e0d2af17fbc8803dea968741c416613c806ccd7a8a4e502a36ffffffff020000000000000000536a4c50000077760001289af6db5aa7155404994516bcbefa6b8351586b4e86aeaeacb577c031fc4be3474d14b6f32469216d99516ca4025baa09660614909024164bf44bbf23acfcfaac8058b692fe6808c31d61890000000000001976a914377a707c2e3266bada663b94f225b6bd8f3412fb88ac00000000", "vin": [{"sequence": 4294967295, "scriptSig": {"hex": "473044022037cff41e7f2dd91ca3708bdd657c60b159a6972c9904a15fe721a8322935ffbf02203c4c9114c26480d3ca5c71adf0a38d5f83d9abeb3987c8bae6a595fc0d4f7f7b0121028cddc93851d946e0d2af17fbc8803dea968741c416613c806ccd7a8a4e502a36", "asm": "3044022037cff41e7f2dd91ca3708bdd657c60b159a6972c9904a15fe721a8322935ffbf02203c4c9114c26480d3ca5c71adf0a38d5f83d9abeb3987c8bae6a595fc0d4f7f7b[ALL] 028cddc93851d946e0d2af17fbc8803dea968741c416613c806ccd7a8a4e502a36"}, "vout": 1, "txid": "afc1a1b606dee2b5ac2b45bc5833f512a5f666956bbbd6aecddf4da2773428bf"}], "txid": "1c55c80a8e96e2e9f60482ffa731b74f2c6bd356aed57125c8b4bde38fa8997a", "blocktime": 1537870268, "version": 1, "confirmations": 11518, "time": 1537870268, "locktime": 0, "vsize": 283, "size": 283}