{"hash": "d4bb600c96f1ac4d945c9118c792c0379a4eb6e68b6df93401cf48c9b5ba693e", "blockhash": "00000000000000000004ffacab907a6b429b9a5745fa0b75af4234bf69dd7176", "vout": [{"scriptPubKey": {"reqSigs": 1, "hex": "76a914ddde1f20e21f862f349b220f625c6943c8370f0d88ac", "addresses": ["1ME8Rg4oBVM6hyJmW5ojryDB3docFJRrhT"], "asm": "OP_DUP OP_HASH160 ddde1f20e21f862f349b220f625c6943c8370f0d OP_EQUALVERIFY OP_CHECKSIG", "type": "pubkeyhash"}, "value": 0.026024, "n": 0}, {"scriptPubKey": {"reqSigs": 1, "hex": "a9140a89f9b81a10630522dbb160286cbbcecb25600187", "addresses": ["32ejyAYsD4Jk6BN7YkZ3D42GyVJo7uJ3wm"], "asm": "OP_HASH160 0a89f9b81a10630522dbb160286cbbcecb256001 OP_EQUAL", "type": "scripthash"}, "value": 0.08621555, "n": 1}], "hex": "010000000001013b7b12a4b2ed889940407c8c40fa0fabd4cef8258fbe74c1b09233fc98f46da70100000023220020f0279ef631fbba5b14b44351208adc9d93257c1ba4d1c3cbfe0c2b8d0fa30827ffffffff02a0b52700000000001976a914ddde1f20e21f862f349b220f625c6943c8370f0d88acf38d83000000000017a9140a89f9b81a10630522dbb160286cbbcecb25600187040047304402204fe13de797d5be7702b0a4065da06e16255652529ca7aa1d09cddcf47a0a7bb40220737e282ab439b59d7241255ae5ffb70a5670b2c94122d7783dbac65efc03077501483045022100cd802c2751de83653d69bb421bcbcf966d22f1d197536c6cb5c83a45b92c71300220398fe02535923569f6f7c9825fe065f693732228487f0994e858bc0cb43458d00147522102d3b07f5e5860246e92280a109c7074b4f13a1b3858a38a579a271045e3c805692102a530f3625a3ea23651bf5e588aeb571a7af2144810367c121ed142eabab4928752ae00000000", "vin": [{"txinwitness": ["", "304402204fe13de797d5be7702b0a4065da06e16255652529ca7aa1d09cddcf47a0a7bb40220737e282ab439b59d7241255ae5ffb70a5670b2c94122d7783dbac65efc03077501", "3045022100cd802c2751de83653d69bb421bcbcf966d22f1d197536c6cb5c83a45b92c71300220398fe02535923569f6f7c9825fe065f693732228487f0994e858bc0cb43458d001", "522102d3b07f5e5860246e92280a109c7074b4f13a1b3858a38a579a271045e3c805692102a530f3625a3ea23651bf5e588aeb571a7af2144810367c121ed142eabab4928752ae"], "sequence": 4294967295, "scriptSig": {"hex": "220020f0279ef631fbba5b14b44351208adc9d93257c1ba4d1c3cbfe0c2b8d0fa30827", "asm": "0020f0279ef631fbba5b14b44351208adc9d93257c1ba4d1c3cbfe0c2b8d0fa30827"}, "vout": 1, "txid": "a76df498fc3392b0c174be8f25f8ced4ab0ffa408c7c40409988edb2a4127b3b"}], "txid": "1c5a5fb9e2ef10b18eb4efdf48531591940552b5d1ee28a18716b7e694f9200f", "blocktime": 1537875543, "version": 1, "confirmations": 11464, "time": 1537875543, "locktime": 0, "vsize": 208, "size": 373}