{"hash": "1c6145f12824b472133122df07def5c20797c4fc36b033364235f32884ee30da", "blockhash": "0000000000000000000dcc0f55137456b1a82d3642486a52398922ac4d620174", "vout": [{"scriptPubKey": {"reqSigs": 1, "hex": "76a914ffae9ffbbbb6138115c08d5a932f61513d41f57b88ac", "addresses": ["1QJvW54HWhuysUY3p95AtHn6iG7AKNLYuw"], "asm": "OP_DUP OP_HASH160 ffae9ffbbbb6138115c08d5a932f61513d41f57b OP_EQUALVERIFY OP_CHECKSIG", "type": "pubkeyhash"}, "value": 0.00060368, "n": 0}, {"scriptPubKey": {"reqSigs": 1, "hex": "a9145ff6666d1ff1accccbfaa94990d8f9f375252ebe87", "addresses": ["3ASRHwsfB2DUF4xLabyqVZxr238K5t74Yy"], "asm": "OP_HASH160 5ff6666d1ff1accccbfaa94990d8f9f375252ebe OP_EQUAL", "type": "scripthash"}, "value": 0.00237089, "n": 1}], "hex": "0100000001bd1ed0a1d5bcfb7850360ee51d96509e52d92392270d1853aff395a3e60ca31e010000006b4830450221009fc0045535ff2e9fd625a0f01cbf339bf6a362167a9502ee23164d29a1b9e4c202203479d11d81877041462437363cecee6a2bb4a7259829d81aef69d5de1ffb2e420121024507cbec9561878fb5a78cc122d4a9ac5c15974134e60861d14fb54e2f410fe3ffffffff02d0eb0000000000001976a914ffae9ffbbbb6138115c08d5a932f61513d41f57b88ac219e03000000000017a9145ff6666d1ff1accccbfaa94990d8f9f375252ebe8700000000", "vin": [{"sequence": 4294967295, "scriptSig": {"hex": "4830450221009fc0045535ff2e9fd625a0f01cbf339bf6a362167a9502ee23164d29a1b9e4c202203479d11d81877041462437363cecee6a2bb4a7259829d81aef69d5de1ffb2e420121024507cbec9561878fb5a78cc122d4a9ac5c15974134e60861d14fb54e2f410fe3", "asm": "30450221009fc0045535ff2e9fd625a0f01cbf339bf6a362167a9502ee23164d29a1b9e4c202203479d11d81877041462437363cecee6a2bb4a7259829d81aef69d5de1ffb2e42[ALL] 024507cbec9561878fb5a78cc122d4a9ac5c15974134e60861d14fb54e2f410fe3"}, "vout": 1, "txid": "1ea30ce6a395f3af53180d279223d9529e50961de50e365078fbbcd5a1d01ebd"}], "txid": "1c6145f12824b472133122df07def5c20797c4fc36b033364235f32884ee30da", "blocktime": 1537870268, "version": 1, "confirmations": 11517, "time": 1537870268, "locktime": 0, "vsize": 224, "size": 224}