{"hash": "2349788d1d6e6e7ff0d99660812747b44192fbbe2e13394e8b358048384afd6c", "blockhash": "0000000000000000001cda96e906b7601b7a6fb1a3b62bca570a9e5d8f4b3de1", "vout": [{"scriptPubKey": {"reqSigs": 1, "hex": "a9148092c7927d5e7053eaf67d7dfe71f4c190461e3087", "addresses": ["3DQrFXEDdSfVV4S6rvuvQ1wtw1eUKd18Hy"], "asm": "OP_HASH160 8092c7927d5e7053eaf67d7dfe71f4c190461e30 OP_EQUAL", "type": "scripthash"}, "value": 0.0065, "n": 0}, {"scriptPubKey": {"reqSigs": 1, "hex": "a914a265b3d423fd1c2790223aa31e43b425dd77381487", "addresses": ["3GVhE2jqEJptj5r2ESUHvJnJQNLrTZfUkk"], "asm": "OP_HASH160 a265b3d423fd1c2790223aa31e43b425dd773814 OP_EQUAL", "type": "scripthash"}, "value": 0.000958, "n": 1}, {"scriptPubKey": {"reqSigs": 1, "hex": "a914dcabe004f1a314e5d5b207013be926f5b3c5fbc687", "addresses": ["3MopUqSiMLtWum8cbYwL8PgnNeH21XGCGQ"], "asm": "OP_HASH160 dcabe004f1a314e5d5b207013be926f5b3c5fbc6 OP_EQUAL", "type": "scripthash"}, "value": 0.0001, "n": 2}, {"scriptPubKey": {"reqSigs": 1, "hex": "a9144e30558b29e9e6de5fa27e7b32be8bc422e6de6987", "addresses": ["38pSXpf3ky5gWPu1rAMKXyDJdPQWi13yZo"], "asm": "OP_HASH160 4e30558b29e9e6de5fa27e7b32be8bc422e6de69 OP_EQUAL", "type": "scripthash"}, "value": 0.00142, "n": 3}, {"scriptPubKey": {"reqSigs": 1, "hex": "76a914e4f993412085aa6225135ebef63dca9e018927d188ac", "addresses": ["1Msi3XaBaFmbPrkWSHUb18QQBRkSHRU5fT"], "asm": "OP_DUP OP_HASH160 e4f993412085aa6225135ebef63dca9e018927d1 OP_EQUALVERIFY OP_CHECKSIG", "type": "pubkeyhash"}, "value": 0.01561327, "n": 4}, {"scriptPubKey": {"reqSigs": 1, "hex": "a9144e668e75264cde3b2a2a37b6090207b59a3667d687", "addresses": ["38qZVFmCtGH4fcxmA2VqU4xXWGd7wXGsJx"], "asm": "OP_HASH160 4e668e75264cde3b2a2a37b6090207b59a3667d6 OP_EQUAL", "type": "scripthash"}, "value": 0.00901751, "n": 5}, {"scriptPubKey": {"reqSigs": 1, "hex": "a9147fdd3830458e8f858d01e3df0bdc07cfe28af60087", "addresses": ["3DM6kWH7x8UG9wMT7YyicggoR7HZeJ3vrd"], "asm": "OP_HASH160 7fdd3830458e8f858d01e3df0bdc07cfe28af600 OP_EQUAL", "type": "scripthash"}, "value": 0.0021, "n": 6}, {"scriptPubKey": {"reqSigs": 1, "hex": "76a914cbcd00b92c66f43793b1ed1149d577330d4417bf88ac", "addresses": ["1KabkngVyFLAHDp9J9d8yU3sM47Fdq5Gcu"], "asm": "OP_DUP OP_HASH160 cbcd00b92c66f43793b1ed1149d577330d4417bf OP_EQUALVERIFY OP_CHECKSIG", "type": "pubkeyhash"}, "value": 0.01929911, "n": 7}], "hex": "01000000000103576d30115d66dcb8fc5447d0b0bb257b17bb4ac982d8910bd93ad25c453b28530100000023220020e02d2bb9e6b3b252e7775ab3f3e9a9e98abe5f0cfc631f2010d1dce9f4ce0ea9fffffffffd53cd045fa57b12b56e06f6069fd0788a04985df48b0bd1909c384bea6e7461000000002322002030e0bbaf75bdacfe096ce392039935835f6c6f95d0a960ce05121b8f1897079bffffffff4eefe7848c4e31f4fdec6696a5af533a0146aae7370bb760e882c27f9b894f9901000000fc00473044022056dfe6541addc91e5a76d549ad7898d36458f6aa96def1720a3358ce627af319022006ea16f0cd05202bed435aeb37829e83d709c865e26424fcd2631634f534114301473044022024eb14acba230eb3200102869d8075b063e5a8b651133c91d0498b995751a8b0022075a81c1d9c5ae40343c15adae06df26e5b2f90278ce499f5d7e04604d91ac0b9014c695221038b9336f1f4aa46e6ea9940cd0a9e6476b8b3bcc51e8dd360bb962aab2f18ee7321024af9daa111f66e448ab2f93883bbed6083a597b3212ddb6c6bb6449251868bd72103fcefb8e50cbefb9f2ccce280b285e713360045e878d5f594b0d7a1db4cde600953aeffffffff0810eb09000000000017a9148092c7927d5e7053eaf67d7dfe71f4c190461e3087387601000000000017a914a265b3d423fd1c2790223aa31e43b425dd77381487102700000000000017a914dcabe004f1a314e5d5b207013be926f5b3c5fbc687b02a02000000000017a9144e30558b29e9e6de5fa27e7b32be8bc422e6de6987efd21700000000001976a914e4f993412085aa6225135ebef63dca9e018927d188ac77c20d000000000017a9144e668e75264cde3b2a2a37b6090207b59a3667d687503403000000000017a9147fdd3830458e8f858d01e3df0bdc07cfe28af60087b7721d00000000001976a914cbcd00b92c66f43793b1ed1149d577330d4417bf88ac0400473044022073df9bd1fc11311a0feb69c22f1d92cdf56d706b050f818e780c036f05eca35502207454e7c4dda16c67ddf2f34fdfd8edac87b1db4b8bff2a392e32bfa2252c9a9501483045022100e1aa09947d10a7d2acf15b3fcc159959c85caea75e6b10a204ece6d15060394d0220665e1bb60a2558abb49acc1a373ef39322b878bac90dadc1e3cd65dd3b9d115a01695221029160f29ab920c69d5cc293ae39237b31ef92dd8ced3fa790a69a8db94a2b05db2103d22e4f7bbc43dacc5864e2da695d226e6edb007c608f4e04421835524e89bd832102440ca10b6726b4eeef2af2dbcd1a77f6816e6f1110ea175e83ba3c93eb89d3a853ae0400483045022100977911d152da310f2e8d5837b5c63b91f1f5954268cb46c7f8ec29d6d0d35393022035352fa263f76cb197d2bfacd6fa215eaa8ba4f56b1f459909bf748a27e138cf014830450221009542b8f37098a3214000743b505cea0831feda14d31beeaa1235932214a252be022019c7898ba2a5cf35734322f9cd40a1d9ec6fc2430d82b52846eec4ee09acdbe201695221024137993b4341ff1bfa6f331dc77dca44c2a5a7259ccaf205dc9b436aa555592b2102ceaef8ab0958a3c4c3f25551b9bd8fc4d0e428bed032adf57da883d778e6ea5b2103652c11a743d728329d601e5b0fab5c0eb10b74f1f4d54a96418300bd7e8bf54a53ae0000000000", "vin": [{"txinwitness": ["", "3044022073df9bd1fc11311a0feb69c22f1d92cdf56d706b050f818e780c036f05eca35502207454e7c4dda16c67ddf2f34fdfd8edac87b1db4b8bff2a392e32bfa2252c9a9501", "3045022100e1aa09947d10a7d2acf15b3fcc159959c85caea75e6b10a204ece6d15060394d0220665e1bb60a2558abb49acc1a373ef39322b878bac90dadc1e3cd65dd3b9d115a01", "5221029160f29ab920c69d5cc293ae39237b31ef92dd8ced3fa790a69a8db94a2b05db2103d22e4f7bbc43dacc5864e2da695d226e6edb007c608f4e04421835524e89bd832102440ca10b6726b4eeef2af2dbcd1a77f6816e6f1110ea175e83ba3c93eb89d3a853ae"], "sequence": 4294967295, "scriptSig": {"hex": "220020e02d2bb9e6b3b252e7775ab3f3e9a9e98abe5f0cfc631f2010d1dce9f4ce0ea9", "asm": "0020e02d2bb9e6b3b252e7775ab3f3e9a9e98abe5f0cfc631f2010d1dce9f4ce0ea9"}, "vout": 1, "txid": "53283b455cd23ad90b91d882c94abb177b25bbb0d04754fcb8dc665d11306d57"}, {"txinwitness": ["", "3045022100977911d152da310f2e8d5837b5c63b91f1f5954268cb46c7f8ec29d6d0d35393022035352fa263f76cb197d2bfacd6fa215eaa8ba4f56b1f459909bf748a27e138cf01", "30450221009542b8f37098a3214000743b505cea0831feda14d31beeaa1235932214a252be022019c7898ba2a5cf35734322f9cd40a1d9ec6fc2430d82b52846eec4ee09acdbe201", "5221024137993b4341ff1bfa6f331dc77dca44c2a5a7259ccaf205dc9b436aa555592b2102ceaef8ab0958a3c4c3f25551b9bd8fc4d0e428bed032adf57da883d778e6ea5b2103652c11a743d728329d601e5b0fab5c0eb10b74f1f4d54a96418300bd7e8bf54a53ae"], "sequence": 4294967295, "scriptSig": {"hex": "22002030e0bbaf75bdacfe096ce392039935835f6c6f95d0a960ce05121b8f1897079b", "asm": "002030e0bbaf75bdacfe096ce392039935835f6c6f95d0a960ce05121b8f1897079b"}, "vout": 0, "txid": "61746eea4b389c90d10b8bf45d98048a78d09f06f6066eb5127ba55f04cd53fd"}, {"sequence": 4294967295, "scriptSig": {"hex": "00473044022056dfe6541addc91e5a76d549ad7898d36458f6aa96def1720a3358ce627af319022006ea16f0cd05202bed435aeb37829e83d709c865e26424fcd2631634f534114301473044022024eb14acba230eb3200102869d8075b063e5a8b651133c91d0498b995751a8b0022075a81c1d9c5ae40343c15adae06df26e5b2f90278ce499f5d7e04604d91ac0b9014c695221038b9336f1f4aa46e6ea9940cd0a9e6476b8b3bcc51e8dd360bb962aab2f18ee7321024af9daa111f66e448ab2f93883bbed6083a597b3212ddb6c6bb6449251868bd72103fcefb8e50cbefb9f2ccce280b285e713360045e878d5f594b0d7a1db4cde600953ae", "asm": "0 3044022056dfe6541addc91e5a76d549ad7898d36458f6aa96def1720a3358ce627af319022006ea16f0cd05202bed435aeb37829e83d709c865e26424fcd2631634f5341143[ALL] 3044022024eb14acba230eb3200102869d8075b063e5a8b651133c91d0498b995751a8b0022075a81c1d9c5ae40343c15adae06df26e5b2f90278ce499f5d7e04604d91ac0b9[ALL] 5221038b9336f1f4aa46e6ea9940cd0a9e6476b8b3bcc51e8dd360bb962aab2f18ee7321024af9daa111f66e448ab2f93883bbed6083a597b3212ddb6c6bb6449251868bd72103fcefb8e50cbefb9f2ccce280b285e713360045e878d5f594b0d7a1db4cde600953ae"}, "vout": 1, "txid": "994f899b7fc282e860b70b37e7aa46013a53afa59666ecfdf4314e8c84e7ef4e"}], "txid": "1c68140eeffa4c41f58e2edbb1024eb196a08f20c70c0b3141783c702142795a", "blocktime": 1537873282, "version": 1, "confirmations": 11485, "time": 1537873282, "locktime": 0, "vsize": 843, "size": 1225}