{"hash": "00c766dac08b106923e53101e8eb725c3f125646b00b5e8e7eb59ea2303f9e0d", "blockhash": "0000000000000000001e0dab787dd257d1dbfcb92a98c2207d5e1078be1f4165", "vout": [{"scriptPubKey": {"reqSigs": 1, "hex": "76a914e031c232bd93e121f9f59a7745cd0c5ee3233bf888ac", "addresses": ["1MSRyFvKr36NFWE6vxczHDLjryvGkhVCHv"], "asm": "OP_DUP OP_HASH160 e031c232bd93e121f9f59a7745cd0c5ee3233bf8 OP_EQUALVERIFY OP_CHECKSIG", "type": "pubkeyhash"}, "value": 0.00173112, "n": 0}, {"scriptPubKey": {"reqSigs": 1, "hex": "a9141988a27e3c2df4ddee7fad5a2303d086179b2a3087", "addresses": ["3422VtS7UtCvXYxoXMVp6eZupR252z85oC"], "asm": "OP_HASH160 1988a27e3c2df4ddee7fad5a2303d086179b2a30 OP_EQUAL", "type": "scripthash"}, "value": 0.29812881, "n": 1}], "hex": "010000000001014afb38f402dfc0f59a3833921ed130ca6a47aa4e85994d290ec77f25ac829ad4020000002322002065d416c48a8072e0ac51c2d111eb194f009caef0332446c1bf2097316cf07fa9ffffffff0238a40200000000001976a914e031c232bd93e121f9f59a7745cd0c5ee3233bf888ac91e8c6010000000017a9141988a27e3c2df4ddee7fad5a2303d086179b2a308704004730440220050f6e5a47d38cbad9c0b967e9a46843aaef5d4bf1836d04b979bcc71ef2f12a0220543d1b1b104b1620bd5fd77bf3b85c27d6be5b86677dd232a73efcc95e1a8b310147304402200e03cd3210e96118e92788fe3506ceb074490663076b56f2f5cc6debc913e5460220709a28a6e31866bf8bd2f46ef3e629b65ef08f774c46355a0e85693d915a881b0169522102f44abcf9e23c9a460da309ccca56c619c04eed3bde2c2cff5e7d78fbcd980b9c2103c9443cf3047bb6c2c82f1b0c44c36109cdc3d0d601d16d1189a1602bf8d1a0a02103bfe867059274412412e088af5572b92168c2ef495cfe6c9b7a753a009eb37c4853ae00000000", "vin": [{"txinwitness": ["", "30440220050f6e5a47d38cbad9c0b967e9a46843aaef5d4bf1836d04b979bcc71ef2f12a0220543d1b1b104b1620bd5fd77bf3b85c27d6be5b86677dd232a73efcc95e1a8b3101", "304402200e03cd3210e96118e92788fe3506ceb074490663076b56f2f5cc6debc913e5460220709a28a6e31866bf8bd2f46ef3e629b65ef08f774c46355a0e85693d915a881b01", "522102f44abcf9e23c9a460da309ccca56c619c04eed3bde2c2cff5e7d78fbcd980b9c2103c9443cf3047bb6c2c82f1b0c44c36109cdc3d0d601d16d1189a1602bf8d1a0a02103bfe867059274412412e088af5572b92168c2ef495cfe6c9b7a753a009eb37c4853ae"], "sequence": 4294967295, "scriptSig": {"hex": "22002065d416c48a8072e0ac51c2d111eb194f009caef0332446c1bf2097316cf07fa9", "asm": "002065d416c48a8072e0ac51c2d111eb194f009caef0332446c1bf2097316cf07fa9"}, "vout": 2, "txid": "d49a82ac257fc70e294d99854eaa476aca30d11e9233389af5c0df02f438fb4a"}], "txid": "1c6932c4cecb68842af302d2001514390ed632d5ca578cca9b5128533dac23b7", "blocktime": 1537872475, "version": 1, "confirmations": 11486, "time": 1537872475, "locktime": 0, "vsize": 216, "size": 406}