{"hash": "1c6d1d4ad4df05992e922170a0e4dfe1948676367d1f570757ed4c2a377b7e66", "blockhash": "0000000000000000000dcc0f55137456b1a82d3642486a52398922ac4d620174", "vout": [{"scriptPubKey": {"reqSigs": 1, "hex": "76a914d5f9edf56c2e7aaaeb347f75f0e49e255f0d3d3388ac", "addresses": ["1LWQLGXqqiHY2nnacFSe51NwBWwiofFJk8"], "asm": "OP_DUP OP_HASH160 d5f9edf56c2e7aaaeb347f75f0e49e255f0d3d33 OP_EQUALVERIFY OP_CHECKSIG", "type": "pubkeyhash"}, "value": 0.00027119, "n": 0}], "hex": "010000000132f4678c267bf7ff14126305e864b4fb4164c899fec6c861d956d06486198001010000006b483045022100966a96924bf0e75fd3a593872530a45c279b0a96fb2b73db37942c6ba60349ac022074d3135770d85bde8e713801c46821877398b43c76e5865f71bd507f15f071e001210210951565275d9ddf4ab87494a3f1b52b99c083a670ab9dfdedbe412fe53bed1fffffffff01ef690000000000001976a914d5f9edf56c2e7aaaeb347f75f0e49e255f0d3d3388ac00000000", "vin": [{"sequence": 4294967295, "scriptSig": {"hex": "483045022100966a96924bf0e75fd3a593872530a45c279b0a96fb2b73db37942c6ba60349ac022074d3135770d85bde8e713801c46821877398b43c76e5865f71bd507f15f071e001210210951565275d9ddf4ab87494a3f1b52b99c083a670ab9dfdedbe412fe53bed1f", "asm": "3045022100966a96924bf0e75fd3a593872530a45c279b0a96fb2b73db37942c6ba60349ac022074d3135770d85bde8e713801c46821877398b43c76e5865f71bd507f15f071e0[ALL] 0210951565275d9ddf4ab87494a3f1b52b99c083a670ab9dfdedbe412fe53bed1f"}, "vout": 1, "txid": "0180198664d056d961c8c6fe99c86441fbb464e805631214fff77b268c67f432"}], "txid": "1c6d1d4ad4df05992e922170a0e4dfe1948676367d1f570757ed4c2a377b7e66", "blocktime": 1537870268, "version": 1, "confirmations": 11516, "time": 1537870268, "locktime": 0, "vsize": 192, "size": 192}