{"hash": "1c6de30fd6a3ed45d2bbf37b9c01fa6ab60a048e0afdf8ea2fc0c64a0e8eceaa", "blockhash": "0000000000000000001cda96e906b7601b7a6fb1a3b62bca570a9e5d8f4b3de1", "vout": [{"scriptPubKey": {"reqSigs": 1, "hex": "a91443b48ed22abc098e0735434a4a6ebd7fd331980d87", "addresses": ["37s1Vn8EfwbBtbeKdBvC7ReEs4wJNY8KqZ"], "asm": "OP_HASH160 43b48ed22abc098e0735434a4a6ebd7fd331980d OP_EQUAL", "type": "scripthash"}, "value": 0.24392623, "n": 0}], "hex": "01000000036176889f2cc8a67d79e73e60266c4293181e56e1f48323229fcf6be3a3b2250d000000006b483045022100f14fbc78303a514eda91809350e95f5c6bb6231cf75d436231a691d542a227c80220398e8ad5d49b696c060e3c2df6116a2a9ec71f532da330845363740eca462ecd0121031fb3c55595016c74f1021f4a8e0077feed33678dc27951b0e260c009a5e7b707ffffffff6bd4d7474cff09b25e9cb3c49d58072176af20878c2f54ab3f2146eaee88c719010000006b483045022100f33af0374709bce642fedb4c3c430f35ae22034f66efb5a50f1f542a55dc1643022043e22794723c94991a8f1e06c51c5399b3536e224c86375c4e4ea4986a96752f012102f3c48c418958b17ffa0f777bda49fe39634be6c91b53f23ed776cdeccb1d1d6cffffffffd7b9232ef67e4c17f85a52a8b13dc342484128dd5b45e756b81bc398a113c2d6000000006b483045022100bf98ca7c9958ca31244b87553664c52c36b5e7f625102631aad0ac68b7ef6422022003a4225d532f7e83439dbf5b51d78c23940e0b37ec128a255237aba8b4791448012103a211e71f488e3a4d138e845880ebc4936480ef1651454ca1c3ae5925088cde1effffffff01af3374010000000017a91443b48ed22abc098e0735434a4a6ebd7fd331980d8700000000", "vin": [{"sequence": 4294967295, "scriptSig": {"hex": "483045022100f14fbc78303a514eda91809350e95f5c6bb6231cf75d436231a691d542a227c80220398e8ad5d49b696c060e3c2df6116a2a9ec71f532da330845363740eca462ecd0121031fb3c55595016c74f1021f4a8e0077feed33678dc27951b0e260c009a5e7b707", "asm": "3045022100f14fbc78303a514eda91809350e95f5c6bb6231cf75d436231a691d542a227c80220398e8ad5d49b696c060e3c2df6116a2a9ec71f532da330845363740eca462ecd[ALL] 031fb3c55595016c74f1021f4a8e0077feed33678dc27951b0e260c009a5e7b707"}, "vout": 0, "txid": "0d25b2a3e36bcf9f222383f4e1561e1893426c26603ee7797da6c82c9f887661"}, {"sequence": 4294967295, "scriptSig": {"hex": "483045022100f33af0374709bce642fedb4c3c430f35ae22034f66efb5a50f1f542a55dc1643022043e22794723c94991a8f1e06c51c5399b3536e224c86375c4e4ea4986a96752f012102f3c48c418958b17ffa0f777bda49fe39634be6c91b53f23ed776cdeccb1d1d6c", "asm": "3045022100f33af0374709bce642fedb4c3c430f35ae22034f66efb5a50f1f542a55dc1643022043e22794723c94991a8f1e06c51c5399b3536e224c86375c4e4ea4986a96752f[ALL] 02f3c48c418958b17ffa0f777bda49fe39634be6c91b53f23ed776cdeccb1d1d6c"}, "vout": 1, "txid": "19c788eeea46213fab542f8c8720af762107589dc4b39c5eb209ff4c47d7d46b"}, {"sequence": 4294967295, "scriptSig": {"hex": "483045022100bf98ca7c9958ca31244b87553664c52c36b5e7f625102631aad0ac68b7ef6422022003a4225d532f7e83439dbf5b51d78c23940e0b37ec128a255237aba8b4791448012103a211e71f488e3a4d138e845880ebc4936480ef1651454ca1c3ae5925088cde1e", "asm": "3045022100bf98ca7c9958ca31244b87553664c52c36b5e7f625102631aad0ac68b7ef6422022003a4225d532f7e83439dbf5b51d78c23940e0b37ec128a255237aba8b4791448[ALL] 03a211e71f488e3a4d138e845880ebc4936480ef1651454ca1c3ae5925088cde1e"}, "vout": 0, "txid": "d6c213a198c31bb856e7455bdd28414842c33db1a8525af8174c7ef62e23b9d7"}], "txid": "1c6de30fd6a3ed45d2bbf37b9c01fa6ab60a048e0afdf8ea2fc0c64a0e8eceaa", "blocktime": 1537873282, "version": 1, "confirmations": 11484, "time": 1537873282, "locktime": 0, "vsize": 486, "size": 486}