{"hash": "1c6fa2671a6eaee0f909d6bfca934f4198af02c654b0594343bb9032c62fcfc2", "blockhash": "000000000000000000205f8b0775d31398ef75b89a5e8ec8d2c57b4dc0ac4c20", "vout": [{"scriptPubKey": {"reqSigs": 1, "hex": "76a91447f877210d31006e0205092bc410ca5b80ccacd388ac", "addresses": ["17ZYdJ7NPrsxhZTwDiJoSdxz7sjKzbyY8s"], "asm": "OP_DUP OP_HASH160 47f877210d31006e0205092bc410ca5b80ccacd3 OP_EQUALVERIFY OP_CHECKSIG", "type": "pubkeyhash"}, "value": 0.00609003, "n": 0}, {"scriptPubKey": {"reqSigs": 1, "hex": "a914baa046c6d8d138363b63ec3d8fc6e610da80b7ec87", "addresses": ["3JhocRpNy3Eh1P4rtE8SEgtFHkQVzTkTKC"], "asm": "OP_HASH160 baa046c6d8d138363b63ec3d8fc6e610da80b7ec OP_EQUAL", "type": "scripthash"}, "value": 0.00069, "n": 1}], "hex": "0100000001577c9ce967b0765fba4f7e6760ad1695cea515312d22909182e38e1734ee7b5a000000006a473044022011912a13c3518ef6b72a529a1bab92ac0f992698e45d929f6c32066197a13bba02201e5405f9907e0b36ef418cd2b6739ae6f276369a44670ffa59a2cc25ba21c46c012102b54789c4a0b47c8b62d5d7e80bb80a4c240354976a0a104ebdc0ec4e52523eeeffffffff02eb4a0900000000001976a91447f877210d31006e0205092bc410ca5b80ccacd388ac880d01000000000017a914baa046c6d8d138363b63ec3d8fc6e610da80b7ec8700000000", "vin": [{"sequence": 4294967295, "scriptSig": {"hex": "473044022011912a13c3518ef6b72a529a1bab92ac0f992698e45d929f6c32066197a13bba02201e5405f9907e0b36ef418cd2b6739ae6f276369a44670ffa59a2cc25ba21c46c012102b54789c4a0b47c8b62d5d7e80bb80a4c240354976a0a104ebdc0ec4e52523eee", "asm": "3044022011912a13c3518ef6b72a529a1bab92ac0f992698e45d929f6c32066197a13bba02201e5405f9907e0b36ef418cd2b6739ae6f276369a44670ffa59a2cc25ba21c46c[ALL] 02b54789c4a0b47c8b62d5d7e80bb80a4c240354976a0a104ebdc0ec4e52523eee"}, "vout": 0, "txid": "5a7bee34178ee3829190222d3115a5ce9516ad60677e4fba5f76b067e99c7c57"}], "txid": "1c6fa2671a6eaee0f909d6bfca934f4198af02c654b0594343bb9032c62fcfc2", "blocktime": 1537871175, "version": 1, "confirmations": 11511, "time": 1537871175, "locktime": 0, "vsize": 223, "size": 223}