{"hash": "1c7ef5694404f7f0cc1f74b5d851dee70206b171c207dae8514fc1b83b04aa2a", "blockhash": "0000000000000000000dcc0f55137456b1a82d3642486a52398922ac4d620174", "vout": [{"scriptPubKey": {"reqSigs": 1, "hex": "76a9146e125b5596a09c4a99174a6f9cbc199d4bc35e2a88ac", "addresses": ["1B31KZ3KeMHkAX2VQkqCJ54qfnmECAR7xK"], "asm": "OP_DUP OP_HASH160 6e125b5596a09c4a99174a6f9cbc199d4bc35e2a OP_EQUALVERIFY OP_CHECKSIG", "type": "pubkeyhash"}, "value": 0.031168, "n": 0}, {"scriptPubKey": {"reqSigs": 1, "hex": "76a914c53efcb9cbec5ed2b8ad624058df39a35a1da84788ac", "addresses": ["1JywaDgc41XYjdpRf2V2Vf13gH88qhpyqD"], "asm": "OP_DUP OP_HASH160 c53efcb9cbec5ed2b8ad624058df39a35a1da847 OP_EQUALVERIFY OP_CHECKSIG", "type": "pubkeyhash"}, "value": 0.03228458, "n": 1}], "hex": "0100000001a0b5fc2d641ddcb1437a9083eb4a86b33f44964de77a7b43d6d26f3679ce969c000000006b4830450221009284765fa2181f9bc91f12115fa0a562621746545b281ec5d7436335b70f6cbc022018857ed109e85d64a22137c693f38429727a4d07040d16966392d3a2833e7bdb012102a458d17343a583add1fed53ecba002cdcead067bf35fb1b9dfa6b527c9c495cfffffffff02008f2f00000000001976a9146e125b5596a09c4a99174a6f9cbc199d4bc35e2a88ac2a433100000000001976a914c53efcb9cbec5ed2b8ad624058df39a35a1da84788ac00000000", "vin": [{"sequence": 4294967295, "scriptSig": {"hex": "4830450221009284765fa2181f9bc91f12115fa0a562621746545b281ec5d7436335b70f6cbc022018857ed109e85d64a22137c693f38429727a4d07040d16966392d3a2833e7bdb012102a458d17343a583add1fed53ecba002cdcead067bf35fb1b9dfa6b527c9c495cf", "asm": "30450221009284765fa2181f9bc91f12115fa0a562621746545b281ec5d7436335b70f6cbc022018857ed109e85d64a22137c693f38429727a4d07040d16966392d3a2833e7bdb[ALL] 02a458d17343a583add1fed53ecba002cdcead067bf35fb1b9dfa6b527c9c495cf"}, "vout": 0, "txid": "9c96ce79366fd2d6437b7ae74d96443fb3864aeb83907a43b1dc1d642dfcb5a0"}], "txid": "1c7ef5694404f7f0cc1f74b5d851dee70206b171c207dae8514fc1b83b04aa2a", "blocktime": 1537870268, "version": 1, "confirmations": 11518, "time": 1537870268, "locktime": 0, "vsize": 226, "size": 226}