{"hash": "1c80cb0388a333190d59075befc1540bdddb33c976567cc5fc557df9b55f2e6d", "blockhash": "00000000000000000004ffacab907a6b429b9a5745fa0b75af4234bf69dd7176", "vout": [{"scriptPubKey": {"reqSigs": 1, "hex": "76a91418d70c1b530d594ddaec0096cf032aaf2c892ea688ac", "addresses": ["13GLqMQBriETNwLfrSEuQzz5pqrvGaF54J"], "asm": "OP_DUP OP_HASH160 18d70c1b530d594ddaec0096cf032aaf2c892ea6 OP_EQUALVERIFY OP_CHECKSIG", "type": "pubkeyhash"}, "value": 18.89129374, "n": 0}, {"scriptPubKey": {"reqSigs": 1, "hex": "76a91496a983cda3881bfb1fc1ba2b27d8987cb4b8f40688ac", "addresses": ["1EjdRseiPcze59fbRDMptfPkAeHabtuTf9"], "asm": "OP_DUP OP_HASH160 96a983cda3881bfb1fc1ba2b27d8987cb4b8f406 OP_EQUALVERIFY OP_CHECKSIG", "type": "pubkeyhash"}, "value": 5.0, "n": 1}], "hex": "0200000001704b3163c3719dcb0bff15c02d80c682439dc4978cda8c09558d0d79453f88f1000000006a4730440220631c5667f0cc189a430139f0be1994b3d3a6d6e88f3d40c0351d3ff4471e9f200220678a6ac1030a2d5493e7cf0e65ee0fb09eae3ecd07d1d0f75b876abe8b9c4f870121033e01efbe5689e568beabc1630511414a7b4f7a79003421c147ed18a5a75a40e4ffffffff029ed39970000000001976a91418d70c1b530d594ddaec0096cf032aaf2c892ea688ac0065cd1d000000001976a91496a983cda3881bfb1fc1ba2b27d8987cb4b8f40688ac00000000", "vin": [{"sequence": 4294967295, "scriptSig": {"hex": "4730440220631c5667f0cc189a430139f0be1994b3d3a6d6e88f3d40c0351d3ff4471e9f200220678a6ac1030a2d5493e7cf0e65ee0fb09eae3ecd07d1d0f75b876abe8b9c4f870121033e01efbe5689e568beabc1630511414a7b4f7a79003421c147ed18a5a75a40e4", "asm": "30440220631c5667f0cc189a430139f0be1994b3d3a6d6e88f3d40c0351d3ff4471e9f200220678a6ac1030a2d5493e7cf0e65ee0fb09eae3ecd07d1d0f75b876abe8b9c4f87[ALL] 033e01efbe5689e568beabc1630511414a7b4f7a79003421c147ed18a5a75a40e4"}, "vout": 0, "txid": "f1883f45790d8d55098cda8c97c49d4382c6802dc015ff0bcb9d71c363314b70"}], "txid": "1c80cb0388a333190d59075befc1540bdddb33c976567cc5fc557df9b55f2e6d", "blocktime": 1537875543, "version": 2, "confirmations": 11464, "time": 1537875543, "locktime": 0, "vsize": 225, "size": 225}