{"hash": "5102f31d651f1ea59ede62f4e978b65b53eee255a0a223e4c09031033783a711", "blockhash": "0000000000000000000baef3f32e3676a92c3b2e5da21b426e4f302fc371ce76", "vout": [{"scriptPubKey": {"reqSigs": 1, "hex": "76a914fe1a18022a81ab8827c608f0fdafe906b9b8d78688ac", "addresses": ["1QAZtkfH2BjAuk8EYLrPibfn3h4jLPQ8M8"], "asm": "OP_DUP OP_HASH160 fe1a18022a81ab8827c608f0fdafe906b9b8d786 OP_EQUALVERIFY OP_CHECKSIG", "type": "pubkeyhash"}, "value": 0.0043, "n": 0}, {"scriptPubKey": {"reqSigs": 1, "hex": "a914c95ac1c585d4db30d3df6edae49ff517a2a4a10c87", "addresses": ["3L3gU18TeduFVnSwVbEm8VWvZAQ15fALZy"], "asm": "OP_HASH160 c95ac1c585d4db30d3df6edae49ff517a2a4a10c OP_EQUAL", "type": "scripthash"}, "value": 0.08971638, "n": 1}, {"scriptPubKey": {"reqSigs": 1, "hex": "a914f7977ea604663c9a390797709a0655f47dec296287", "addresses": ["3QGAJxqnzkyv32x5ckVT53J6y4v8t5Pa8e"], "asm": "OP_HASH160 f7977ea604663c9a390797709a0655f47dec2962 OP_EQUAL", "type": "scripthash"}, "value": 0.01056548, "n": 2}], "hex": "020000000001066fbaeb1a522c1b4a3663ece3b4fc6fae114b2e622cb991e01a7df1310590ea260000000017160014a35a02cd96014f6a90166baac88379dc603ec989feffffff94eb6a15e474486684380785586a0eb55c602e2de0368955682f451688bd1c07570000006a473044022032dd5ec6d1192a43428fc95ef55c0a86bbc6e6bf4ed1c3879e7187f976fc24b302205092936f05f9f75d4fca7fc3858ca387b4833c274990e341b560450d5dbdb68b0121037605abab9414e4ab4ed2b9c311d5b54d030bd54e6e3eda3bd14a6a8a0f5b9d2cfeffffffa3e9f0f9726a5b5ae8ff18b52b8c599ee7579e8edf3cbc57645eff10fa94b6c00600000017160014491c1616c4bdf468fdf777422279e083c2c33fc8feffffffdb9a559aedc77b06303dadbef49b365eca87f2e04e26c12afae1ca4e9a0412e60100000017160014a35a02cd96014f6a90166baac88379dc603ec989feffffffe7a399fa6d1358ef62cf5ecf14dff4779793b6354946efe6fa34c8baa8116ffb0000000017160014969cd6329d9e478d52a7429fdfdea08dcc56e0a7fefffffff41469b5a126694b24309520033cfd305e67f0a130e0c7599eb6be83d3f44c300000000017160014e4361ac3ee21c65be2b31b8bc2a2711aa6c2adb9feffffff03b08f0600000000001976a914fe1a18022a81ab8827c608f0fdafe906b9b8d78688ac76e588000000000017a914c95ac1c585d4db30d3df6edae49ff517a2a4a10c87241f10000000000017a914f7977ea604663c9a390797709a0655f47dec29628702483045022100e8800670ff72135992f82d49e0c2fe90bc6b72e5b8acdad55522f8ddc40ac6e3022018dd452d34269c02286061d64ccd49c9f0e1be904bad9267c4cc9f877a2c627401210263b4690f92e7a1a0364566da23c075802fe3a65bcd1f09fd25759d2cb8613a83000247304402201389febfa5565bc70989fa35ce9a0ea8123d689ff84f6eb061d78899d6e7e210022016e745218ca8d01bd9664c3e9422a8c2f8c842bb3e18f50e270907f3bbcf130001210375eedc7a3e9929d4f8aefa4dab73f00fb2deb58848757d4519d3c81f471af6990247304402203071c244ff39a2996be63bf40429bb39b1c58e6b32e32ecda8867ea2fa063cd90220700118d92946d309bea42f4266d3cf48087f9e7be400df3ae999cf2149124b1101210263b4690f92e7a1a0364566da23c075802fe3a65bcd1f09fd25759d2cb8613a83024730440220331fb6a1b8db4ba021487a83a2811883bc8a551e8e652dcb1b90ce2295b19cd602200c362919750a017336a12671317c44aaf24f2f93029fc5837c739ca974e9b68e0121029f5486be996f29c3f1998cabad7678f2bfdeef466fd29a4d8bc037f078f3435002483045022100c8b09dbdbdc048c6c33c9f1de428357ac55da9d93de69d20ae43aa9ac0a9b3e9022037dd707f27f962a43283010b17253385f669a8de176fb239c5409c0a31989b0c012103f7736c77cc31bbff5cbca2c77c7c0a74077f8533a0356ba3fed524ba54aa564b17490800", "vin": [{"txinwitness": ["3045022100e8800670ff72135992f82d49e0c2fe90bc6b72e5b8acdad55522f8ddc40ac6e3022018dd452d34269c02286061d64ccd49c9f0e1be904bad9267c4cc9f877a2c627401", "0263b4690f92e7a1a0364566da23c075802fe3a65bcd1f09fd25759d2cb8613a83"], "sequence": 4294967294, "scriptSig": {"hex": "160014a35a02cd96014f6a90166baac88379dc603ec989", "asm": "0014a35a02cd96014f6a90166baac88379dc603ec989"}, "vout": 0, "txid": "26ea900531f17d1ae091b92c622e4b11ae6ffcb4e3ec63364a1b2c521aebba6f"}, {"sequence": 4294967294, "scriptSig": {"hex": "473044022032dd5ec6d1192a43428fc95ef55c0a86bbc6e6bf4ed1c3879e7187f976fc24b302205092936f05f9f75d4fca7fc3858ca387b4833c274990e341b560450d5dbdb68b0121037605abab9414e4ab4ed2b9c311d5b54d030bd54e6e3eda3bd14a6a8a0f5b9d2c", "asm": "3044022032dd5ec6d1192a43428fc95ef55c0a86bbc6e6bf4ed1c3879e7187f976fc24b302205092936f05f9f75d4fca7fc3858ca387b4833c274990e341b560450d5dbdb68b[ALL] 037605abab9414e4ab4ed2b9c311d5b54d030bd54e6e3eda3bd14a6a8a0f5b9d2c"}, "vout": 87, "txid": "071cbd8816452f68558936e02d2e605cb50e6a5885073884664874e4156aeb94"}, {"txinwitness": ["304402201389febfa5565bc70989fa35ce9a0ea8123d689ff84f6eb061d78899d6e7e210022016e745218ca8d01bd9664c3e9422a8c2f8c842bb3e18f50e270907f3bbcf130001", "0375eedc7a3e9929d4f8aefa4dab73f00fb2deb58848757d4519d3c81f471af699"], "sequence": 4294967294, "scriptSig": {"hex": "160014491c1616c4bdf468fdf777422279e083c2c33fc8", "asm": "0014491c1616c4bdf468fdf777422279e083c2c33fc8"}, "vout": 6, "txid": "c0b694fa10ff5e6457bc3cdf8e9e57e79e598c2bb518ffe85a5b6a72f9f0e9a3"}, {"txinwitness": ["304402203071c244ff39a2996be63bf40429bb39b1c58e6b32e32ecda8867ea2fa063cd90220700118d92946d309bea42f4266d3cf48087f9e7be400df3ae999cf2149124b1101", "0263b4690f92e7a1a0364566da23c075802fe3a65bcd1f09fd25759d2cb8613a83"], "sequence": 4294967294, "scriptSig": {"hex": "160014a35a02cd96014f6a90166baac88379dc603ec989", "asm": "0014a35a02cd96014f6a90166baac88379dc603ec989"}, "vout": 1, "txid": "e612049a4ecae1fa2ac1264ee0f287ca5e369bf4bead3d30067bc7ed9a559adb"}, {"txinwitness": ["30440220331fb6a1b8db4ba021487a83a2811883bc8a551e8e652dcb1b90ce2295b19cd602200c362919750a017336a12671317c44aaf24f2f93029fc5837c739ca974e9b68e01", "029f5486be996f29c3f1998cabad7678f2bfdeef466fd29a4d8bc037f078f34350"], "sequence": 4294967294, "scriptSig": {"hex": "160014969cd6329d9e478d52a7429fdfdea08dcc56e0a7", "asm": "0014969cd6329d9e478d52a7429fdfdea08dcc56e0a7"}, "vout": 0, "txid": "fb6f11a8bac834fae6ef464935b6939777f4df14cf5ecf62ef58136dfa99a3e7"}, {"txinwitness": ["3045022100c8b09dbdbdc048c6c33c9f1de428357ac55da9d93de69d20ae43aa9ac0a9b3e9022037dd707f27f962a43283010b17253385f669a8de176fb239c5409c0a31989b0c01", "03f7736c77cc31bbff5cbca2c77c7c0a74077f8533a0356ba3fed524ba54aa564b"], "sequence": 4294967294, "scriptSig": {"hex": "160014e4361ac3ee21c65be2b31b8bc2a2711aa6c2adb9", "asm": "0014e4361ac3ee21c65be2b31b8bc2a2711aa6c2adb9"}, "vout": 0, "txid": "304cf4d383beb69e59c7e030a1f0675e30fd3c03209530244b6926a1b56914f4"}], "txid": "1c8a6a99cc691dd3d2278d827b5dc0d50f4691667ce610b3e5b2ecc8055835eb", "blocktime": 1537876114, "version": 2, "confirmations": 11459, "time": 1537876114, "locktime": 542999, "vsize": 710, "size": 1115}