{"hash": "6eedf5357e3f2155618e63d51c2ea4fd330a4653d2db92ccb1ffd65c4e902c4b", "blockhash": "0000000000000000000e13cef7c366c0283d82e591d1acd082e914b08063cdf1", "vout": [{"scriptPubKey": {"reqSigs": 1, "hex": "a9149b3394c065a4931e2dd71a4019c30d781a77fd5387", "addresses": ["3FqeTC7V9q1zfrSvYmT37rqi9FRuMfhTtZ"], "asm": "OP_HASH160 9b3394c065a4931e2dd71a4019c30d781a77fd53 OP_EQUAL", "type": "scripthash"}, "value": 0.03229691, "n": 0}, {"scriptPubKey": {"reqSigs": 1, "hex": "001467171f5a6d38d0ecd8b16c154ad7340bd2e6657d", "addresses": ["bc1qvut37knd8rgwek93ds2544e5p0fwvetazn0jgl"], "asm": "0 67171f5a6d38d0ecd8b16c154ad7340bd2e6657d", "type": "witness_v0_keyhash"}, "value": 1.71324339, "n": 1}], "hex": "01000000000101a1bf84d8fa79de0a2f486859337fecfb5eac3a31d0faa19def914503e8ac31c60400000017160014312ad36c93d8e1a877ce1da9e1340e797c41d8a1ffffffff02fb4731000000000017a9149b3394c065a4931e2dd71a4019c30d781a77fd5387b333360a0000000016001467171f5a6d38d0ecd8b16c154ad7340bd2e6657d02483045022100c0614a00e471464f84d776fd37f6a2fe911f6b14ec23b23360e6e444109cdafe02204daa610c6160caa78c35fdeb4ab00490b704301a14ef749d1e2500362aee173b012103e279b9cc6bc9353d8c48189c7dec6ac007503f4c94ced660a420e6d3e8eea5f100000000", "vin": [{"txinwitness": ["3045022100c0614a00e471464f84d776fd37f6a2fe911f6b14ec23b23360e6e444109cdafe02204daa610c6160caa78c35fdeb4ab00490b704301a14ef749d1e2500362aee173b01", "03e279b9cc6bc9353d8c48189c7dec6ac007503f4c94ced660a420e6d3e8eea5f1"], "sequence": 4294967295, "scriptSig": {"hex": "160014312ad36c93d8e1a877ce1da9e1340e797c41d8a1", "asm": "0014312ad36c93d8e1a877ce1da9e1340e797c41d8a1"}, "vout": 4, "txid": "c631ace8034591ef9da1fad0313aac5efbec7f335968482f0ade79fad884bfa1"}], "txid": "1c8a3d9328210adf47e18e2e42641c5101864a3fbe35d570bb1631835073b697", "blocktime": 1537871767, "version": 1, "confirmations": 11495, "time": 1537871767, "locktime": 0, "vsize": 165, "size": 247}