{"hash": "cb19fc81d5147fabb8288be1e529f6f234fcbb6603448bcf603f7147ba50ca99", "blockhash": "0000000000000000000e13cef7c366c0283d82e591d1acd082e914b08063cdf1", "vout": [{"scriptPubKey": {"reqSigs": 1, "hex": "a914af30802299f21c0f643379086148506bfba461ae87", "addresses": ["3HfLGzN568VzGP5k2fwyJR4pBrpWQr2CWU"], "asm": "OP_HASH160 af30802299f21c0f643379086148506bfba461ae OP_EQUAL", "type": "scripthash"}, "value": 5.906e-05, "n": 0}, {"scriptPubKey": {"reqSigs": 1, "hex": "a9141d7370ccde4590204155e4074f69743a8e4fac0287", "addresses": ["34Njp4ZKtmCDfqqps26wHBYQQGUo2pGkLi"], "asm": "OP_HASH160 1d7370ccde4590204155e4074f69743a8e4fac02 OP_EQUAL", "type": "scripthash"}, "value": 0.00016923, "n": 1}], "hex": "0100000000010135515299ed6c3d9bbaf4ad4fd01fa84ee2d7919e110358b6ac9b808249503bb10100000023220020f63dfc12340f6360d0251c22746d6b56093e3243e96ca012a65484a5d9cf0ec0ffffffff02121700000000000017a914af30802299f21c0f643379086148506bfba461ae871b4200000000000017a9141d7370ccde4590204155e4074f69743a8e4fac02870400483045022100ab7b4c551aca359d709c7065abdf2cc17314c2b96d08387efcf8c108b0ba167e02206bf7de802ca0db1385410c54fca54d2e1d79a02621322a97b0fa49e35615537f01473044022064ae6b902355bb267b25b6159f7465351d931024cc76a907952f60041019c7ce02202069e45bb851dae9b524c677bc04c7cfdf136f1010a50d778f6a06ae8143fe8a0147522102097067a6a0cc130a9a6f6577b47bf369b840a79de31cd7457187994266b1bb7c2103338f346cab6ba87fe940591a03ac234be06520c5ab386d4b6632e8eef0d0db7652ae00000000", "vin": [{"txinwitness": ["", "3045022100ab7b4c551aca359d709c7065abdf2cc17314c2b96d08387efcf8c108b0ba167e02206bf7de802ca0db1385410c54fca54d2e1d79a02621322a97b0fa49e35615537f01", "3044022064ae6b902355bb267b25b6159f7465351d931024cc76a907952f60041019c7ce02202069e45bb851dae9b524c677bc04c7cfdf136f1010a50d778f6a06ae8143fe8a01", "522102097067a6a0cc130a9a6f6577b47bf369b840a79de31cd7457187994266b1bb7c2103338f346cab6ba87fe940591a03ac234be06520c5ab386d4b6632e8eef0d0db7652ae"], "sequence": 4294967295, "scriptSig": {"hex": "220020f63dfc12340f6360d0251c22746d6b56093e3243e96ca012a65484a5d9cf0ec0", "asm": "0020f63dfc12340f6360d0251c22746d6b56093e3243e96ca012a65484a5d9cf0ec0"}, "vout": 1, "txid": "b13b504982809bacb65803119e91d7e24ea81fd04fadf4ba9b3d6ced99525135"}], "txid": "1c8a8c9494fc2208b79a2d2862d22f7bb4501e5e655b293945488d30bd76e1c6", "blocktime": 1537871767, "version": 1, "confirmations": 11495, "time": 1537871767, "locktime": 0, "vsize": 206, "size": 371}