{"hash": "1c8bea67e4a4d1ad10bf0f2bed68fbe63a5ae259e6084baf65c9888dea6748ac", "blockhash": "0000000000000000001cda96e906b7601b7a6fb1a3b62bca570a9e5d8f4b3de1", "vout": [{"scriptPubKey": {"reqSigs": 1, "hex": "76a914d77a6749c66c3ae8ee7771d9ad3e7b233d487be388ac", "addresses": ["1LeLuzAtKcPv4cmXkHwAa1dbESRUTEgKFv"], "asm": "OP_DUP OP_HASH160 d77a6749c66c3ae8ee7771d9ad3e7b233d487be3 OP_EQUALVERIFY OP_CHECKSIG", "type": "pubkeyhash"}, "value": 0.00018354, "n": 0}, {"scriptPubKey": {"reqSigs": 1, "hex": "76a914e335ad9e47ea7c3ff4e38711ab0d9e7ba09c50ee88ac", "addresses": ["1MiNhAyXu6bFJTfpQBJuYWXjEaaQZBmHCN"], "asm": "OP_DUP OP_HASH160 e335ad9e47ea7c3ff4e38711ab0d9e7ba09c50ee OP_EQUALVERIFY OP_CHECKSIG", "type": "pubkeyhash"}, "value": 0.00017014, "n": 1}], "hex": "0100000001f557b8a65ac72c54c2ce81515122176cf17aecea2228ea620f73c23b7c1d52c4010000006a47304402206ee7431fc39195727344fa464db3dc666ff46996c4eb3da9aff7ddd0668ce17c02203ce0d7355b4d67e35feeb51d08e3f4916a4aa1f10222340c97d3270b5f90aed8012103ea3f8552fd519ce3e472c019c016e81f7951bb6720712415ae76325bc3335fc0ffffffff02b2470000000000001976a914d77a6749c66c3ae8ee7771d9ad3e7b233d487be388ac76420000000000001976a914e335ad9e47ea7c3ff4e38711ab0d9e7ba09c50ee88ac00000000", "vin": [{"sequence": 4294967295, "scriptSig": {"hex": "47304402206ee7431fc39195727344fa464db3dc666ff46996c4eb3da9aff7ddd0668ce17c02203ce0d7355b4d67e35feeb51d08e3f4916a4aa1f10222340c97d3270b5f90aed8012103ea3f8552fd519ce3e472c019c016e81f7951bb6720712415ae76325bc3335fc0", "asm": "304402206ee7431fc39195727344fa464db3dc666ff46996c4eb3da9aff7ddd0668ce17c02203ce0d7355b4d67e35feeb51d08e3f4916a4aa1f10222340c97d3270b5f90aed8[ALL] 03ea3f8552fd519ce3e472c019c016e81f7951bb6720712415ae76325bc3335fc0"}, "vout": 1, "txid": "c4521d7c3bc2730f62ea2822eaec7af16c1722515181cec2542cc75aa6b857f5"}], "txid": "1c8bea67e4a4d1ad10bf0f2bed68fbe63a5ae259e6084baf65c9888dea6748ac", "blocktime": 1537873282, "version": 1, "confirmations": 11481, "time": 1537873282, "locktime": 0, "vsize": 225, "size": 225}