{"hash": "1c8f216f10f69ea540d39152910a62274bcc60da2d5e1b776a68942b5ef53ce3", "blockhash": "0000000000000000000baef3f32e3676a92c3b2e5da21b426e4f302fc371ce76", "vout": [{"scriptPubKey": {"reqSigs": 1, "hex": "76a914f0e957837c2bd0074b080941f088f731980fcb9888ac", "addresses": ["1Nxphv5ynC1w6174iqKexJ8nt2US9jaTzL"], "asm": "OP_DUP OP_HASH160 f0e957837c2bd0074b080941f088f731980fcb98 OP_EQUALVERIFY OP_CHECKSIG", "type": "pubkeyhash"}, "value": 0.04451968, "n": 0}, {"scriptPubKey": {"reqSigs": 1, "hex": "76a9147972c389fbaccfb439b0eb85b610b408203bc72488ac", "addresses": ["1C5AF9DwmkZ7R5hhAj5ZbgWsNfEBnueZdy"], "asm": "OP_DUP OP_HASH160 7972c389fbaccfb439b0eb85b610b408203bc724 OP_EQUALVERIFY OP_CHECKSIG", "type": "pubkeyhash"}, "value": 0.08205368, "n": 1}], "hex": "010000000129aa0c7dacc9cd3bdd7afa359f85c6d6bd1150d81f9e8adb6664cd6782bd0c11000000006a4730440220403c63491c7d65175f53349668839ddbf43fad2df8a42b7f95185e6449aa5485022002fdc837f33cf602ad82669931f032c9fecab2c5f5d9b157e3929b6c4a046ed60121023d8d7ad59b2dba68ae36b241f479cfd4f012c4dd782c39a4f4f3741a74ea3001ffffffff0280ee4300000000001976a914f0e957837c2bd0074b080941f088f731980fcb9888ac38347d00000000001976a9147972c389fbaccfb439b0eb85b610b408203bc72488ac00000000", "vin": [{"sequence": 4294967295, "scriptSig": {"hex": "4730440220403c63491c7d65175f53349668839ddbf43fad2df8a42b7f95185e6449aa5485022002fdc837f33cf602ad82669931f032c9fecab2c5f5d9b157e3929b6c4a046ed60121023d8d7ad59b2dba68ae36b241f479cfd4f012c4dd782c39a4f4f3741a74ea3001", "asm": "30440220403c63491c7d65175f53349668839ddbf43fad2df8a42b7f95185e6449aa5485022002fdc837f33cf602ad82669931f032c9fecab2c5f5d9b157e3929b6c4a046ed6[ALL] 023d8d7ad59b2dba68ae36b241f479cfd4f012c4dd782c39a4f4f3741a74ea3001"}, "vout": 0, "txid": "110cbd8267cd6466db8a9e1fd85011bdd6c6859f35fa7add3bcdc9ac7d0caa29"}], "txid": "1c8f216f10f69ea540d39152910a62274bcc60da2d5e1b776a68942b5ef53ce3", "blocktime": 1537876114, "version": 1, "confirmations": 11460, "time": 1537876114, "locktime": 0, "vsize": 225, "size": 225}