{"hash": "fc9a574aa1daa4cc3713a38f63f0254576d5b6dd93f56cadeac56d5928705b2a", "blockhash": "000000000000000000022b45ed06c6f4ccd3cf7fb5ba4856ebd2e58215665228", "vout": [{"scriptPubKey": {"reqSigs": 1, "hex": "76a9140c77972592c6c61c06ab48f9c63adbbf0e002b3688ac", "addresses": ["128vNbD8yCXPdYsG9KWkaEU8taPPnywNtd"], "asm": "OP_DUP OP_HASH160 0c77972592c6c61c06ab48f9c63adbbf0e002b36 OP_EQUALVERIFY OP_CHECKSIG", "type": "pubkeyhash"}, "value": 0.00017763, "n": 0}, {"scriptPubKey": {"reqSigs": 1, "hex": "a914400866dbb52eda1ea5cacbe467d03e765b353aec87", "addresses": ["37XbEb2cPEafck8A7uHFdffDXCwwFAFH4p"], "asm": "OP_HASH160 400866dbb52eda1ea5cacbe467d03e765b353aec OP_EQUAL", "type": "scripthash"}, "value": 0.26493597, "n": 1}], "hex": "01000000000101772748d01d26e7fee08fdeecc7bfa364f30b3f8c1fd9054a2c1a199743ae58bb01000000232200203fe94dbc5ef18d6fcb1527e3b00709e0b3698ccbe2f75f2e24387c7ac51f8a33ffffffff0263450000000000001976a9140c77972592c6c61c06ab48f9c63adbbf0e002b3688ac9d4294010000000017a914400866dbb52eda1ea5cacbe467d03e765b353aec870400483045022100e29ed442a31a4b7d67f0ac339de0174cd0ec22e7d202d3328038f27f795dea98022022b8d0718caab2fac961fa67f77f1ab3508cd03c9008da30931711740436d6070147304402207c8af5882a9f2b442ceb8b867fd513f718f09c315cc5f6dbadf6cd4b86e9cdbe02204106e6e2499a7156c1215502c68fffc65950e1aae23db81a1ebd498b14276acd0147522102ed8de9deeeb83a3b52ae1ed7c8c60f2b05d551e65524c7796d85bdb1f316659d2103871fc2ca08e6950b38867e8e6a0e94ee625223d3aa0df5c65f414c6d784467e252ae00000000", "vin": [{"txinwitness": ["", "3045022100e29ed442a31a4b7d67f0ac339de0174cd0ec22e7d202d3328038f27f795dea98022022b8d0718caab2fac961fa67f77f1ab3508cd03c9008da30931711740436d60701", "304402207c8af5882a9f2b442ceb8b867fd513f718f09c315cc5f6dbadf6cd4b86e9cdbe02204106e6e2499a7156c1215502c68fffc65950e1aae23db81a1ebd498b14276acd01", "522102ed8de9deeeb83a3b52ae1ed7c8c60f2b05d551e65524c7796d85bdb1f316659d2103871fc2ca08e6950b38867e8e6a0e94ee625223d3aa0df5c65f414c6d784467e252ae"], "sequence": 4294967295, "scriptSig": {"hex": "2200203fe94dbc5ef18d6fcb1527e3b00709e0b3698ccbe2f75f2e24387c7ac51f8a33", "asm": "00203fe94dbc5ef18d6fcb1527e3b00709e0b3698ccbe2f75f2e24387c7ac51f8a33"}, "vout": 1, "txid": "bb58ae4397191a2c4a05d91f8c3f0bf364a3bfc7ecde8fe0fee7261dd0482777"}], "txid": "1c95c940767a77e113476a29d8a647147677aa7fe7c1b37271a776848925967d", "blocktime": 1537869901, "version": 1, "confirmations": 11524, "time": 1537869901, "locktime": 0, "vsize": 208, "size": 373}