{"hash": "1ca0c16fd48bd3b8dc94c86a1ebbd1a4ffff40570c02dc7a72ea68cba40f00fc", "blockhash": "0000000000000000000baef3f32e3676a92c3b2e5da21b426e4f302fc371ce76", "vout": [{"scriptPubKey": {"reqSigs": 1, "hex": "76a91490a22efa9fcab2274025c676126e5b0000da4e1f88ac", "addresses": ["1EBkbLEGCgPR6TX6jmMwgvheMsCx8c2Q6S"], "asm": "OP_DUP OP_HASH160 90a22efa9fcab2274025c676126e5b0000da4e1f OP_EQUALVERIFY OP_CHECKSIG", "type": "pubkeyhash"}, "value": 5.46e-06, "n": 0}, {"scriptPubKey": {"reqSigs": 1, "hex": "a9143f4eecba122ad73039d481c8d37f99cb4f887cd887", "addresses": ["37Tm3Qz8Zw2VJrheUUhArDAoq58S6YrS3g"], "asm": "OP_HASH160 3f4eecba122ad73039d481c8d37f99cb4f887cd8 OP_EQUAL", "type": "scripthash"}, "value": 0.99984724, "n": 1}, {"scriptPubKey": {"type": "nulldata", "hex": "6a146f6d6e69000000000000001f00003691cac3fe00", "asm": "OP_RETURN 6f6d6e69000000000000001f00003691cac3fe00"}, "value": 0.0, "n": 2}], "hex": "0100000001faafa23331812899ba8988ee791c5acc2e82d6e833afa695fb4a273f7829f09001000000fc004730440220318a44d3315f955f75b269817faef5fbf2f1d238c0a37e1079d6953b05c90db8022075c199abc73624ac462d7ca0eb6102eaba143b9d3091a26287e53139433d99c30147304402204c12f11ee2d8291b731eae0f12e049daacac55866bc540f6c37f25392ba49b8002204585fc73655293aaf0747d5a82b211812eb33bc9bfb8e8d53e5f9dd44704525f014c6952210246ccf4de0c54cc7f3354cdd993c2c50cf965fd82238b89659fbd73a1b4bf05a121024fc59f72272a897fe43803374969f396058152fe4765a8d15216f94624257b1b21022593bc69ecbf3bbcc3c58082267cb49dadaf4ca8dbf1b2297338a9d628c4297653aeffffffff0322020000000000001976a91490a22efa9fcab2274025c676126e5b0000da4e1f88ac54a5f5050000000017a9143f4eecba122ad73039d481c8d37f99cb4f887cd8870000000000000000166a146f6d6e69000000000000001f00003691cac3fe0000000000", "vin": [{"sequence": 4294967295, "scriptSig": {"hex": "004730440220318a44d3315f955f75b269817faef5fbf2f1d238c0a37e1079d6953b05c90db8022075c199abc73624ac462d7ca0eb6102eaba143b9d3091a26287e53139433d99c30147304402204c12f11ee2d8291b731eae0f12e049daacac55866bc540f6c37f25392ba49b8002204585fc73655293aaf0747d5a82b211812eb33bc9bfb8e8d53e5f9dd44704525f014c6952210246ccf4de0c54cc7f3354cdd993c2c50cf965fd82238b89659fbd73a1b4bf05a121024fc59f72272a897fe43803374969f396058152fe4765a8d15216f94624257b1b21022593bc69ecbf3bbcc3c58082267cb49dadaf4ca8dbf1b2297338a9d628c4297653ae", "asm": "0 30440220318a44d3315f955f75b269817faef5fbf2f1d238c0a37e1079d6953b05c90db8022075c199abc73624ac462d7ca0eb6102eaba143b9d3091a26287e53139433d99c3[ALL] 304402204c12f11ee2d8291b731eae0f12e049daacac55866bc540f6c37f25392ba49b8002204585fc73655293aaf0747d5a82b211812eb33bc9bfb8e8d53e5f9dd44704525f[ALL] 52210246ccf4de0c54cc7f3354cdd993c2c50cf965fd82238b89659fbd73a1b4bf05a121024fc59f72272a897fe43803374969f396058152fe4765a8d15216f94624257b1b21022593bc69ecbf3bbcc3c58082267cb49dadaf4ca8dbf1b2297338a9d628c4297653ae"}, "vout": 1, "txid": "90f029783f274afb95a6af33e8d6822ecc5a1c79ee8889ba9928813133a2affa"}], "txid": "1ca0c16fd48bd3b8dc94c86a1ebbd1a4ffff40570c02dc7a72ea68cba40f00fc", "blocktime": 1537876114, "version": 1, "confirmations": 11460, "time": 1537876114, "locktime": 0, "vsize": 400, "size": 400}