{"hash": "1ca290df8a329a9d38b11be065e01e3e034e0bfe370b72bdbbb7184d887cf680", "blockhash": "0000000000000000001f76057863aec43deb6fa401d9628bb513d65a8098bfab", "vout": [{"scriptPubKey": {"reqSigs": 1, "hex": "76a914c9e50d8be8cdbce5b4f9f51e7d6109b10a06447788ac", "addresses": ["1KQXDS9QAeYYFaxXSTksTFKwMB6ZEwG1z8"], "asm": "OP_DUP OP_HASH160 c9e50d8be8cdbce5b4f9f51e7d6109b10a064477 OP_EQUALVERIFY OP_CHECKSIG", "type": "pubkeyhash"}, "value": 0.36993672, "n": 0}, {"scriptPubKey": {"reqSigs": 1, "hex": "76a9143c70cdee3e96a73cef3bf7b08a53bd91fdf0c4cf88ac", "addresses": ["16WagJHnmmy9TUawD4ySjgqS2qHzCC1XhX"], "asm": "OP_DUP OP_HASH160 3c70cdee3e96a73cef3bf7b08a53bd91fdf0c4cf OP_EQUALVERIFY OP_CHECKSIG", "type": "pubkeyhash"}, "value": 9.17, "n": 1}], "hex": "0100000001130d7477914f0ccbed63e2f8418f039250ef62809b220b06e8da1a4645a618e7010000006b483045022100a71910684db8419b1b05610e145e0fd2545b4a1a39950d1b483af21e5ed5aafb02200d58dd000436ee11ef681ed621e8f64fde7e8c800e27f2cd498b0ae7a2072036012103823a971140ebfb79f42c4901b3fa6c508da4269f29f44e2084d52d0ee8e67927ffffffff02887a3402000000001976a914c9e50d8be8cdbce5b4f9f51e7d6109b10a06447788ac404fa836000000001976a9143c70cdee3e96a73cef3bf7b08a53bd91fdf0c4cf88ac00000000", "vin": [{"sequence": 4294967295, "scriptSig": {"hex": "483045022100a71910684db8419b1b05610e145e0fd2545b4a1a39950d1b483af21e5ed5aafb02200d58dd000436ee11ef681ed621e8f64fde7e8c800e27f2cd498b0ae7a2072036012103823a971140ebfb79f42c4901b3fa6c508da4269f29f44e2084d52d0ee8e67927", "asm": "3045022100a71910684db8419b1b05610e145e0fd2545b4a1a39950d1b483af21e5ed5aafb02200d58dd000436ee11ef681ed621e8f64fde7e8c800e27f2cd498b0ae7a2072036[ALL] 03823a971140ebfb79f42c4901b3fa6c508da4269f29f44e2084d52d0ee8e67927"}, "vout": 1, "txid": "e718a645461adae8060b229b8062ef5092038f41f8e263edcb0c4f9177740d13"}], "txid": "1ca290df8a329a9d38b11be065e01e3e034e0bfe370b72bdbbb7184d887cf680", "blocktime": 1537873891, "version": 1, "confirmations": 11475, "time": 1537873891, "locktime": 0, "vsize": 226, "size": 226}