{"hash": "1ca426738cfe02f2ffb5d7c0d31d539ac5a57041da6577edeee16e1632459a98", "blockhash": "00000000000000000017f5eb5941039fbcee6240d03bc1f2f8e35350df66a1d8", "vout": [{"scriptPubKey": {"reqSigs": 1, "hex": "76a914c53d72373d8f96b329f0156ae8e247f4df90f83e88ac", "addresses": ["1Jyuj9NUx2UCCeCSrDstxPX6ispNqFbZSo"], "asm": "OP_DUP OP_HASH160 c53d72373d8f96b329f0156ae8e247f4df90f83e OP_EQUALVERIFY OP_CHECKSIG", "type": "pubkeyhash"}, "value": 0.00023636, "n": 0}, {"scriptPubKey": {"reqSigs": 1, "hex": "76a9143cb0e492a4d3ab370b9e3a99c74faed236769c1688ac", "addresses": ["16XuTF137jXoM1L93kijCuQFyFQjJ6pPHw"], "asm": "OP_DUP OP_HASH160 3cb0e492a4d3ab370b9e3a99c74faed236769c16 OP_EQUALVERIFY OP_CHECKSIG", "type": "pubkeyhash"}, "value": 0.07824555, "n": 1}], "hex": "0100000001740f9139fe54706b5ba5e0500c1eb495204d84a9b0863a1ba647f526f671c107000000006b4830450221008703bbad20a6b96b2822fd9b7fe8baa5544b017ea62f6250eb429e74e34cb10d022071906411f9617c918643af8649425fbef10ac676b40d327f1ab4cdb603ea319e0121037505741d689ed80f0dbb5121e6f13cbaf6ded285e3b2505ca9e76721c9bd0d10ffffffff02545c0000000000001976a914c53d72373d8f96b329f0156ae8e247f4df90f83e88acab647700000000001976a9143cb0e492a4d3ab370b9e3a99c74faed236769c1688ac00000000", "vin": [{"sequence": 4294967295, "scriptSig": {"hex": "4830450221008703bbad20a6b96b2822fd9b7fe8baa5544b017ea62f6250eb429e74e34cb10d022071906411f9617c918643af8649425fbef10ac676b40d327f1ab4cdb603ea319e0121037505741d689ed80f0dbb5121e6f13cbaf6ded285e3b2505ca9e76721c9bd0d10", "asm": "30450221008703bbad20a6b96b2822fd9b7fe8baa5544b017ea62f6250eb429e74e34cb10d022071906411f9617c918643af8649425fbef10ac676b40d327f1ab4cdb603ea319e[ALL] 037505741d689ed80f0dbb5121e6f13cbaf6ded285e3b2505ca9e76721c9bd0d10"}, "vout": 0, "txid": "07c171f626f547a61b3a86b0a9844d2095b41e0c50e0a55b6b7054fe39910f74"}], "txid": "1ca426738cfe02f2ffb5d7c0d31d539ac5a57041da6577edeee16e1632459a98", "blocktime": 1537874412, "version": 1, "confirmations": 11467, "time": 1537874412, "locktime": 0, "vsize": 226, "size": 226}