{"hash": "1ca7c1dbfffce9973df79b6426708298bcf1237a4954a079e3418870441db415", "blockhash": "0000000000000000001cda96e906b7601b7a6fb1a3b62bca570a9e5d8f4b3de1", "vout": [{"scriptPubKey": {"reqSigs": 1, "hex": "76a914418925c5adf7d694f8152afe0550c5c1798c44c588ac", "addresses": ["16yXDeZfnWDYe1Dic34cBdbiDzZk1WSffG"], "asm": "OP_DUP OP_HASH160 418925c5adf7d694f8152afe0550c5c1798c44c5 OP_EQUALVERIFY OP_CHECKSIG", "type": "pubkeyhash"}, "value": 0.02336276, "n": 0}, {"scriptPubKey": {"reqSigs": 1, "hex": "76a9143ad432a0cfcb54d0a446417c2b0d344bdbe25c2988ac", "addresses": ["16N4PtMdK48LtEn1fjmoRWKSZAW1H6Gkx8"], "asm": "OP_DUP OP_HASH160 3ad432a0cfcb54d0a446417c2b0d344bdbe25c29 OP_EQUALVERIFY OP_CHECKSIG", "type": "pubkeyhash"}, "value": 0.15617045, "n": 1}], "hex": "01000000023e109ed9433c3fa2358ad9e4806d8c2d75b680ab4d83bd11999b1025ee532f17010000006a47304402203606ab8a55692481f228f4b2b0f9479aeaf10d897de98139b7038fdedbbf2c4a0220165d7308ca918ef253ced861500071710a7ca91b016cf757927f1bd4a9ce1b9501210394e7a19766b157fe7b1a3a074072ca2bed646950c22c8e14797239c5cc8a3badffffffff1a09b28379c02729e4ae2fbadfdd468071cf71bc685ae41ec6dc3e366cf70c43010000006b4830450221008516e36064afd5c42d44b2b430bde9c58dc708fab94dbdc08a4d059c2f398d5d0220316e6b3ee5e210a25e2118e9d5a386a09289972c21df7421d657a156559d629f012102aeafc75f6b8ac95dd8e34684147bb1dcf84b88e6b7ba9419f343ecaccaf74fb7ffffffff0214a62300000000001976a914418925c5adf7d694f8152afe0550c5c1798c44c588ac154cee00000000001976a9143ad432a0cfcb54d0a446417c2b0d344bdbe25c2988ac00000000", "vin": [{"sequence": 4294967295, "scriptSig": {"hex": "47304402203606ab8a55692481f228f4b2b0f9479aeaf10d897de98139b7038fdedbbf2c4a0220165d7308ca918ef253ced861500071710a7ca91b016cf757927f1bd4a9ce1b9501210394e7a19766b157fe7b1a3a074072ca2bed646950c22c8e14797239c5cc8a3bad", "asm": "304402203606ab8a55692481f228f4b2b0f9479aeaf10d897de98139b7038fdedbbf2c4a0220165d7308ca918ef253ced861500071710a7ca91b016cf757927f1bd4a9ce1b95[ALL] 0394e7a19766b157fe7b1a3a074072ca2bed646950c22c8e14797239c5cc8a3bad"}, "vout": 1, "txid": "172f53ee25109b9911bd834dab80b6752d8c6d80e4d98a35a23f3c43d99e103e"}, {"sequence": 4294967295, "scriptSig": {"hex": "4830450221008516e36064afd5c42d44b2b430bde9c58dc708fab94dbdc08a4d059c2f398d5d0220316e6b3ee5e210a25e2118e9d5a386a09289972c21df7421d657a156559d629f012102aeafc75f6b8ac95dd8e34684147bb1dcf84b88e6b7ba9419f343ecaccaf74fb7", "asm": "30450221008516e36064afd5c42d44b2b430bde9c58dc708fab94dbdc08a4d059c2f398d5d0220316e6b3ee5e210a25e2118e9d5a386a09289972c21df7421d657a156559d629f[ALL] 02aeafc75f6b8ac95dd8e34684147bb1dcf84b88e6b7ba9419f343ecaccaf74fb7"}, "vout": 1, "txid": "430cf76c363edcc61ee45a68bc71cf718046dddfba2faee42927c07983b2091a"}], "txid": "1ca7c1dbfffce9973df79b6426708298bcf1237a4954a079e3418870441db415", "blocktime": 1537873282, "version": 1, "confirmations": 11480, "time": 1537873282, "locktime": 0, "vsize": 373, "size": 373}