{"hash": "9c449ed9a39a7afa9850114f62fac1f064a8d4c664d6479e04324912e2defffa", "blockhash": "0000000000000000001f0ddff1eddb255c1121bcd4da4f1bc9a0da00cae72433", "vout": [{"scriptPubKey": {"reqSigs": 1, "hex": "76a9142fa6e579e772183ec75eefe3786a4a1e467ef70588ac", "addresses": ["15LxhBUXQ3z27bMCohmTjxGHf1r9LDg1DK"], "asm": "OP_DUP OP_HASH160 2fa6e579e772183ec75eefe3786a4a1e467ef705 OP_EQUALVERIFY OP_CHECKSIG", "type": "pubkeyhash"}, "value": 0.094927, "n": 0}, {"scriptPubKey": {"reqSigs": 1, "hex": "a914e7e6cdb8afa7180bedac3101cbbe0f0af01c8eca87", "addresses": ["3NqCWNWzdD87QH4Y68bi7H8zsxm2Ko5FiZ"], "asm": "OP_HASH160 e7e6cdb8afa7180bedac3101cbbe0f0af01c8eca OP_EQUAL", "type": "scripthash"}, "value": 0.18851373, "n": 1}], "hex": "020000000001018f9a0928270cf3fd699d4470bf453a47373f0f754fc5ce1baaef7a14979cb7240000000017160014d96555acce61cf017ee5fd6dc1ac8ad502946b5afdffffff02dcd89000000000001976a9142fa6e579e772183ec75eefe3786a4a1e467ef70588ac2da61f010000000017a914e7e6cdb8afa7180bedac3101cbbe0f0af01c8eca8702483045022100aba64d5419ce5134d8508cd14fcfc7ff5e7a0eb425e3947a199d743530d20dee022017aeb74bcee9fa6fc78181aee08771044e6965129532a613831786a1d98833450121026c63e81801acf4b24e133659dd3644df63119b7a91fbd557b3c686c7fa9be52be5480800", "vin": [{"txinwitness": ["3045022100aba64d5419ce5134d8508cd14fcfc7ff5e7a0eb425e3947a199d743530d20dee022017aeb74bcee9fa6fc78181aee08771044e6965129532a613831786a1d988334501", "026c63e81801acf4b24e133659dd3644df63119b7a91fbd557b3c686c7fa9be52b"], "sequence": 4294967293, "scriptSig": {"hex": "160014d96555acce61cf017ee5fd6dc1ac8ad502946b5a", "asm": "0014d96555acce61cf017ee5fd6dc1ac8ad502946b5a"}, "vout": 0, "txid": "24b79c97147aefaa1bcec54f750f3f37473a45bf70449d69fdf30c2728099a8f"}], "txid": "1ca992354dd53c7668d6c6b616c3935650955c05cdb02e4a7f613c935245ec97", "blocktime": 1537872018, "version": 2, "confirmations": 11489, "time": 1537872018, "locktime": 542949, "vsize": 168, "size": 250}