{"hash": "1cacb7509cf2c9488e00660cb180ceb3759e9f08b8c0856995f3ef70290fb121", "blockhash": "00000000000000000018f53835495a110e01622372bf6ae95dc86f2b0ab887b0", "vout": [{"scriptPubKey": {"reqSigs": 1, "hex": "76a9141693f6ffb8eef56ffda2c0e181d52b3c1fcb045d88ac", "addresses": ["134P7zrmXKknZMyJPhBPcxRwhWu5Lh3hgr"], "asm": "OP_DUP OP_HASH160 1693f6ffb8eef56ffda2c0e181d52b3c1fcb045d OP_EQUALVERIFY OP_CHECKSIG", "type": "pubkeyhash"}, "value": 0.017143, "n": 0}], "hex": "01000000024c97a8d9890f74aecb2a86aa6bfafe82b4eb19435baf7afad362ff79e5012976090000006a47304402200c6e79f945a7f72af1f96a77a9a97e7c486a595bd8b2df607225c5622f8a0c4202207caf4e7e2338eeb41bbb21127e9cb523f3cf9e3f4c108385547d834a5e2f6ffd01210242436f10eb71fe67faacbd49d68f2aaf0fc4224b719b7e3194b076d664b44641ffffffffb3f6c2f8012ad754a210fbbfce44f34b4e5468123e98858e3d7b721f05bc47a80f0000006a47304402204735969c4d8855d4eee4600f836cd7dfc48f327a1729cc53d17ef0628deafe4002200f53bcab8b7d1d2ccfdf2062e6a227db7401f7976239c08ae2fdc3956d129e8301210242436f10eb71fe67faacbd49d68f2aaf0fc4224b719b7e3194b076d664b44641ffffffff017c281a00000000001976a9141693f6ffb8eef56ffda2c0e181d52b3c1fcb045d88ac00000000", "vin": [{"sequence": 4294967295, "scriptSig": {"hex": "47304402200c6e79f945a7f72af1f96a77a9a97e7c486a595bd8b2df607225c5622f8a0c4202207caf4e7e2338eeb41bbb21127e9cb523f3cf9e3f4c108385547d834a5e2f6ffd01210242436f10eb71fe67faacbd49d68f2aaf0fc4224b719b7e3194b076d664b44641", "asm": "304402200c6e79f945a7f72af1f96a77a9a97e7c486a595bd8b2df607225c5622f8a0c4202207caf4e7e2338eeb41bbb21127e9cb523f3cf9e3f4c108385547d834a5e2f6ffd[ALL] 0242436f10eb71fe67faacbd49d68f2aaf0fc4224b719b7e3194b076d664b44641"}, "vout": 9, "txid": "762901e579ff62d3fa7aaf5b4319ebb482fefa6baa862acbae740f89d9a8974c"}, {"sequence": 4294967295, "scriptSig": {"hex": "47304402204735969c4d8855d4eee4600f836cd7dfc48f327a1729cc53d17ef0628deafe4002200f53bcab8b7d1d2ccfdf2062e6a227db7401f7976239c08ae2fdc3956d129e8301210242436f10eb71fe67faacbd49d68f2aaf0fc4224b719b7e3194b076d664b44641", "asm": "304402204735969c4d8855d4eee4600f836cd7dfc48f327a1729cc53d17ef0628deafe4002200f53bcab8b7d1d2ccfdf2062e6a227db7401f7976239c08ae2fdc3956d129e83[ALL] 0242436f10eb71fe67faacbd49d68f2aaf0fc4224b719b7e3194b076d664b44641"}, "vout": 15, "txid": "a847bc051f727b3d8e85983e1268544e4bf344cebffb10a254d72a01f8c2f6b3"}], "txid": "1cacb7509cf2c9488e00660cb180ceb3759e9f08b8c0856995f3ef70290fb121", "blocktime": 1537870928, "version": 1, "confirmations": 11514, "time": 1537870928, "locktime": 0, "vsize": 338, "size": 338}