{"hash": "b9f1c3c87c2393849a770073df943086253565b58ed174278180cfbf2cd0d654", "blockhash": "0000000000000000001cda96e906b7601b7a6fb1a3b62bca570a9e5d8f4b3de1", "vout": [{"scriptPubKey": {"reqSigs": 1, "hex": "a9149e6c3cc1dc58ef4b53a242b75b90a9ca77051d8787", "addresses": ["3G8gMKCvPfun9877aktwY4JV3HqNqXzd2f"], "asm": "OP_HASH160 9e6c3cc1dc58ef4b53a242b75b90a9ca77051d87 OP_EQUAL", "type": "scripthash"}, "value": 0.02337553, "n": 0}, {"scriptPubKey": {"reqSigs": 1, "hex": "76a91478d9095b4c878dc2ce41a10b17e2fc45a61c8d7388ac", "addresses": ["1C1z5z3Phir8xLQTZUtNWUS2EMjtgnJysF"], "asm": "OP_DUP OP_HASH160 78d9095b4c878dc2ce41a10b17e2fc45a61c8d73 OP_EQUALVERIFY OP_CHECKSIG", "type": "pubkeyhash"}, "value": 0.38, "n": 1}], "hex": "01000000000101c4bc2cb1f0c04bb7ab124e5910694b1d6d386eae61338106dda4f3441da50cb4000000001716001441864d19cfa3776421d8095fc6692001effdcc1effffffff0211ab23000000000017a9149e6c3cc1dc58ef4b53a242b75b90a9ca77051d878780d54302000000001976a91478d9095b4c878dc2ce41a10b17e2fc45a61c8d7388ac0247304402207f5fa8cfe4168d2510cb25bde35e59d2054d19535cda3de0d2c53210a7fcc0670220151fbd62e0a8f66a2fa839c36d25b240c73c897ced45bde2e001c205d38275cb0121032eb37285156e03f58a0ce6a32976735c2e8086243ae42ab4c38684642b08354300000000", "vin": [{"txinwitness": ["304402207f5fa8cfe4168d2510cb25bde35e59d2054d19535cda3de0d2c53210a7fcc0670220151fbd62e0a8f66a2fa839c36d25b240c73c897ced45bde2e001c205d38275cb01", "032eb37285156e03f58a0ce6a32976735c2e8086243ae42ab4c38684642b083543"], "sequence": 4294967295, "scriptSig": {"hex": "16001441864d19cfa3776421d8095fc6692001effdcc1e", "asm": "001441864d19cfa3776421d8095fc6692001effdcc1e"}, "vout": 0, "txid": "b40ca51d44f3a4dd06813361ae6e386d1d4b6910594e12abb74bc0f0b12cbcc4"}], "txid": "1caf7bcd506ed70c2a868898900e5fa3445fa411473886f8f644d8064585461f", "blocktime": 1537873282, "version": 1, "confirmations": 11485, "time": 1537873282, "locktime": 0, "vsize": 168, "size": 249}