{"hash": "1cb86dfc69105523067816768b15621c57c1486dacad12dc2ebae56013945d28", "blockhash": "000000000000000000022b45ed06c6f4ccd3cf7fb5ba4856ebd2e58215665228", "vout": [{"scriptPubKey": {"reqSigs": 1, "hex": "76a9145cc4af737891c332302929bf86d0f942a6b075c588ac", "addresses": ["19TWnb1xiLcjnwYe6hbG8TmLvzJCQKE8pT"], "asm": "OP_DUP OP_HASH160 5cc4af737891c332302929bf86d0f942a6b075c5 OP_EQUALVERIFY OP_CHECKSIG", "type": "pubkeyhash"}, "value": 0.006917, "n": 0}, {"scriptPubKey": {"reqSigs": 1, "hex": "76a914f95dfb96596b989fde12f5fdd1ff245cdcf0dee288ac", "addresses": ["1PjXqoZ1mpTH69afeL9YnRbrKkftuYQ3Cg"], "asm": "OP_DUP OP_HASH160 f95dfb96596b989fde12f5fdd1ff245cdcf0dee2 OP_EQUALVERIFY OP_CHECKSIG", "type": "pubkeyhash"}, "value": 0.0028491, "n": 1}], "hex": "0100000001f651e219b52be72ff415091bb1b02c82609035ff6c7cf7cd366a955e2c73d678530000006a47304402203cc0b42ddcf6afeeae9d075a258efd25069eb110f26afbb0869c4d8cbc6ae41202207ba9bb066df093656bad65530d24b92722ae7d683e5c9f98cc17b6beda5a687f012103371a23d314af6cfd4c627ad59e7a5328cb87c587feae6dc53670dcd4d3b4ae28ffffffff02f48d0a00000000001976a9145cc4af737891c332302929bf86d0f942a6b075c588acee580400000000001976a914f95dfb96596b989fde12f5fdd1ff245cdcf0dee288ac00000000", "vin": [{"sequence": 4294967295, "scriptSig": {"hex": "47304402203cc0b42ddcf6afeeae9d075a258efd25069eb110f26afbb0869c4d8cbc6ae41202207ba9bb066df093656bad65530d24b92722ae7d683e5c9f98cc17b6beda5a687f012103371a23d314af6cfd4c627ad59e7a5328cb87c587feae6dc53670dcd4d3b4ae28", "asm": "304402203cc0b42ddcf6afeeae9d075a258efd25069eb110f26afbb0869c4d8cbc6ae41202207ba9bb066df093656bad65530d24b92722ae7d683e5c9f98cc17b6beda5a687f[ALL] 03371a23d314af6cfd4c627ad59e7a5328cb87c587feae6dc53670dcd4d3b4ae28"}, "vout": 83, "txid": "78d6732c5e956a36cdf77c6cff359060822cb0b11b0915f42fe72bb519e251f6"}], "txid": "1cb86dfc69105523067816768b15621c57c1486dacad12dc2ebae56013945d28", "blocktime": 1537869901, "version": 1, "confirmations": 11524, "time": 1537869901, "locktime": 0, "vsize": 225, "size": 225}