{"hash": "13ef21af9b051b4192ccfb1baf9cb5d0ca7d98354afbccf99be84e11b271386e", "blockhash": "0000000000000000001cda96e906b7601b7a6fb1a3b62bca570a9e5d8f4b3de1", "vout": [{"scriptPubKey": {"reqSigs": 1, "hex": "76a9140a3992eb4b1a9ff2117f49716f91d609d18b9bb788ac", "addresses": ["1w4jDwr3cGJLkEJyrAKpR6HSNARNvDZcS"], "asm": "OP_DUP OP_HASH160 0a3992eb4b1a9ff2117f49716f91d609d18b9bb7 OP_EQUALVERIFY OP_CHECKSIG", "type": "pubkeyhash"}, "value": 0.04546989, "n": 0}, {"scriptPubKey": {"reqSigs": 1, "hex": "00145faffab1ab20ed677ceda588803d87c06e140b89", "addresses": ["bc1qt7hl4vdtyrkkwl8d5kygq0v8cphpgzufhqge84"], "asm": "0 5faffab1ab20ed677ceda588803d87c06e140b89", "type": "witness_v0_keyhash"}, "value": 0.03272423, "n": 1}], "hex": "0100000000010165ca3da862205767a36fd808827fa55cf84f4bd19b6ae64a25b2483a614645c000000000171600146ea379428c1aeefcd895c56e06816d0b90e1056dffffffff02ad614500000000001976a9140a3992eb4b1a9ff2117f49716f91d609d18b9bb788ace7ee3100000000001600145faffab1ab20ed677ceda588803d87c06e140b890247304402204560dd167f0229769485134627f6f8d91617274f57c5ff846d5d736457324e4902203342d78f7aa13593fec5c204e1f6f7973310e201ca4591a1f84dd80728c1a12e012102727d090751a40fde751113d2cdbf0ef995073119456a415dc5969f6b5bf0785d00000000", "vin": [{"txinwitness": ["304402204560dd167f0229769485134627f6f8d91617274f57c5ff846d5d736457324e4902203342d78f7aa13593fec5c204e1f6f7973310e201ca4591a1f84dd80728c1a12e01", "02727d090751a40fde751113d2cdbf0ef995073119456a415dc5969f6b5bf0785d"], "sequence": 4294967295, "scriptSig": {"hex": "1600146ea379428c1aeefcd895c56e06816d0b90e1056d", "asm": "00146ea379428c1aeefcd895c56e06816d0b90e1056d"}, "vout": 0, "txid": "c04546613a48b2254ae66a9bd14b4ff85ca57f8208d86fa367572062a83dca65"}], "txid": "1cb8f8dd362e88085ba779cad099f44d4b85f44360b57b952ce762abb19ed7be", "blocktime": 1537873282, "version": 1, "confirmations": 11484, "time": 1537873282, "locktime": 0, "vsize": 167, "size": 248}