{"hash": "1cc5625add7340acf0dbd3a142a602b0596a3d0f1846ff304ca876f5024cb888", "blockhash": "000000000000000000022b45ed06c6f4ccd3cf7fb5ba4856ebd2e58215665228", "vout": [{"scriptPubKey": {"reqSigs": 1, "hex": "76a914d00fe42bc6f50acc8e213a08d905f01c1e7ddfbb88ac", "addresses": ["1Ky8b3jWsTfZ3pis6sFyZhHVB98Kce9TUV"], "asm": "OP_DUP OP_HASH160 d00fe42bc6f50acc8e213a08d905f01c1e7ddfbb OP_EQUALVERIFY OP_CHECKSIG", "type": "pubkeyhash"}, "value": 0.0148518, "n": 0}, {"scriptPubKey": {"type": "nulldata", "hex": "6a4c500000775c00010f99ba3cf20259cb5014fffa3a016b46dc7dc7d0968d120d670c1906f999e00b6b3cf12aaa55f96e175ab0a415755baa06fe06128d3ff5472e16bc9a9526289ac0f6612cd74e33776ee4", "asm": "OP_RETURN 0000775c00010f99ba3cf20259cb5014fffa3a016b46dc7dc7d0968d120d670c1906f999e00b6b3cf12aaa55f96e175ab0a415755baa06fe06128d3ff5472e16bc9a9526289ac0f6612cd74e33776ee4"}, "value": 0.0, "n": 1}], "hex": "0100000001b2d8213e0c5042ebc2524b3827d82dd6f5ac06b5c3222fd78d18b0bdd955ca7f000000006a47304402203554d7a262bfb9e9718bb514989708c7753b94a89f078b1d77bf46b52162d0e1022009afdfa2708d0ac0d54ee0cdae7a97fa867d245c6fc5d5d0c97e45968b5961b9012102ddf35f4e6ec2d0e57e5394e9b456c585b018a39039d1da4345b6cb5c24c2b508ffffffff027ca91600000000001976a914d00fe42bc6f50acc8e213a08d905f01c1e7ddfbb88ac0000000000000000536a4c500000775c00010f99ba3cf20259cb5014fffa3a016b46dc7dc7d0968d120d670c1906f999e00b6b3cf12aaa55f96e175ab0a415755baa06fe06128d3ff5472e16bc9a9526289ac0f6612cd74e33776ee400000000", "vin": [{"sequence": 4294967295, "scriptSig": {"hex": "47304402203554d7a262bfb9e9718bb514989708c7753b94a89f078b1d77bf46b52162d0e1022009afdfa2708d0ac0d54ee0cdae7a97fa867d245c6fc5d5d0c97e45968b5961b9012102ddf35f4e6ec2d0e57e5394e9b456c585b018a39039d1da4345b6cb5c24c2b508", "asm": "304402203554d7a262bfb9e9718bb514989708c7753b94a89f078b1d77bf46b52162d0e1022009afdfa2708d0ac0d54ee0cdae7a97fa867d245c6fc5d5d0c97e45968b5961b9[ALL] 02ddf35f4e6ec2d0e57e5394e9b456c585b018a39039d1da4345b6cb5c24c2b508"}, "vout": 0, "txid": "7fca55d9bdb0188dd72f22c3b506acf5d62dd827384b52c2eb42500c3e21d8b2"}], "txid": "1cc5625add7340acf0dbd3a142a602b0596a3d0f1846ff304ca876f5024cb888", "blocktime": 1537869901, "version": 1, "confirmations": 11523, "time": 1537869901, "locktime": 0, "vsize": 283, "size": 283}