{"hash": "1cc62927a31c26c01443e66add4720196bad8bf32c7b08ff16e61fe53b98dadd", "blockhash": "0000000000000000001cda96e906b7601b7a6fb1a3b62bca570a9e5d8f4b3de1", "vout": [{"scriptPubKey": {"reqSigs": 1, "hex": "76a914961daa9b04ee81b90e289d196333865697fbd34e88ac", "addresses": ["1Egju2ykJhzhKdZHs15tdSe9F66AxHT8BQ"], "asm": "OP_DUP OP_HASH160 961daa9b04ee81b90e289d196333865697fbd34e OP_EQUALVERIFY OP_CHECKSIG", "type": "pubkeyhash"}, "value": 0.00264171, "n": 0}, {"scriptPubKey": {"reqSigs": 1, "hex": "76a914238201c9f22b3562e2091779aafdde9f4954533e88ac", "addresses": ["14EkPkxgFMuZ3eZJSzS58YBXRWRC3b9Qkw"], "asm": "OP_DUP OP_HASH160 238201c9f22b3562e2091779aafdde9f4954533e OP_EQUALVERIFY OP_CHECKSIG", "type": "pubkeyhash"}, "value": 0.5924625, "n": 1}], "hex": "0200000001ef27fc8f0f1bc436a46ddea1fd10c63010c7df94b5344b0c05d01212ebb61384010000006b483045022100a462049312f58ee6c1f7cebf7c22308e7b88b4ecbb4d7c9fdb9b491dff86554f0220661e7558fdf8b147a84609277425bda4a00e89e43d2c61da0470cee4c21c2a1d0121021f0f84f493e3573a8418aff4efbc291b991b143e68023064d68656cb6da6679dffffffff02eb070400000000001976a914961daa9b04ee81b90e289d196333865697fbd34e88acaa068803000000001976a914238201c9f22b3562e2091779aafdde9f4954533e88ac00000000", "vin": [{"sequence": 4294967295, "scriptSig": {"hex": "483045022100a462049312f58ee6c1f7cebf7c22308e7b88b4ecbb4d7c9fdb9b491dff86554f0220661e7558fdf8b147a84609277425bda4a00e89e43d2c61da0470cee4c21c2a1d0121021f0f84f493e3573a8418aff4efbc291b991b143e68023064d68656cb6da6679d", "asm": "3045022100a462049312f58ee6c1f7cebf7c22308e7b88b4ecbb4d7c9fdb9b491dff86554f0220661e7558fdf8b147a84609277425bda4a00e89e43d2c61da0470cee4c21c2a1d[ALL] 021f0f84f493e3573a8418aff4efbc291b991b143e68023064d68656cb6da6679d"}, "vout": 1, "txid": "8413b6eb1212d0050c4b34b594dfc71030c610fda1de6da436c41b0f8ffc27ef"}], "txid": "1cc62927a31c26c01443e66add4720196bad8bf32c7b08ff16e61fe53b98dadd", "blocktime": 1537873282, "version": 2, "confirmations": 11484, "time": 1537873282, "locktime": 0, "vsize": 226, "size": 226}