{"hash": "1cd8aee943e5627eb426b1c11607e195c3d42cf9fad234f2a09ae9d286cec51d", "blockhash": "0000000000000000000baef3f32e3676a92c3b2e5da21b426e4f302fc371ce76", "vout": [{"scriptPubKey": {"type": "nulldata", "hex": "6a146f6d6e69000000000000001f0000018e1045e580", "asm": "OP_RETURN 6f6d6e69000000000000001f0000018e1045e580"}, "value": 0.0, "n": 0}, {"scriptPubKey": {"reqSigs": 1, "hex": "76a9147f22449d66cde30e6c6cfca569058f66288d7c6f88ac", "addresses": ["1CbDsM7K5sM66HH7tQJPsajA8D9jsFmr9N"], "asm": "OP_DUP OP_HASH160 7f22449d66cde30e6c6cfca569058f66288d7c6f OP_EQUALVERIFY OP_CHECKSIG", "type": "pubkeyhash"}, "value": 5.46e-06, "n": 1}, {"scriptPubKey": {"reqSigs": 1, "hex": "76a914a25dec4d0011064ef106a983c39c7a540699f22088ac", "addresses": ["1FoWyxwPXuj4C6abqwhjDWdz6D4PZgYRjA"], "asm": "OP_DUP OP_HASH160 a25dec4d0011064ef106a983c39c7a540699f220 OP_EQUALVERIFY OP_CHECKSIG", "type": "pubkeyhash"}, "value": 0.01995188, "n": 2}], "hex": "0100000001a44813c76173a4fe9689194c29809e35be05f1741d9b5e1e9e8bd44070ac1fea930000006a473044022058816956f959ab03f25689f029b5df5ef215931665d2d3be1f098cab43b9854e02200bf24191e321dc22f97c83b7f2cb4f6eabeac2c641bf4b959e45972cb3ac7630012103da5bac7b36d5aa38f531c6b9601e21bb598a4b6716ebed38b009a55dabde9440feffffff030000000000000000166a146f6d6e69000000000000001f0000018e1045e58022020000000000001976a9147f22449d66cde30e6c6cfca569058f66288d7c6f88acb4711e00000000001976a914a25dec4d0011064ef106a983c39c7a540699f22088ac17490800", "vin": [{"sequence": 4294967294, "scriptSig": {"hex": "473044022058816956f959ab03f25689f029b5df5ef215931665d2d3be1f098cab43b9854e02200bf24191e321dc22f97c83b7f2cb4f6eabeac2c641bf4b959e45972cb3ac7630012103da5bac7b36d5aa38f531c6b9601e21bb598a4b6716ebed38b009a55dabde9440", "asm": "3044022058816956f959ab03f25689f029b5df5ef215931665d2d3be1f098cab43b9854e02200bf24191e321dc22f97c83b7f2cb4f6eabeac2c641bf4b959e45972cb3ac7630[ALL] 03da5bac7b36d5aa38f531c6b9601e21bb598a4b6716ebed38b009a55dabde9440"}, "vout": 147, "txid": "ea1fac7040d48b9e1e5e9b1d74f105be359e80294c198996fea47361c71348a4"}], "txid": "1cd8aee943e5627eb426b1c11607e195c3d42cf9fad234f2a09ae9d286cec51d", "blocktime": 1537876114, "version": 1, "confirmations": 11459, "time": 1537876114, "locktime": 542999, "vsize": 256, "size": 256}