{"hash": "1cdaf5e669186d8ec5ec72df1f93e6591b316d6f5439a6e2fa3982149351240e", "blockhash": "0000000000000000000dcc0f55137456b1a82d3642486a52398922ac4d620174", "vout": [{"scriptPubKey": {"reqSigs": 1, "hex": "a91421b576cc5f58042a35e584ef2fd92ddbb382b52187", "addresses": ["34mFcDaxDYQAa2RY6VGepYdJYwGibt7nwB"], "asm": "OP_HASH160 21b576cc5f58042a35e584ef2fd92ddbb382b521 OP_EQUAL", "type": "scripthash"}, "value": 0.122, "n": 0}, {"scriptPubKey": {"reqSigs": 1, "hex": "76a914bf63b2527bc628db0ab253b023f95e25d72b095188ac", "addresses": ["1JSyVgNWphSJY4WPzpot256xNfiST8A1nS"], "asm": "OP_DUP OP_HASH160 bf63b2527bc628db0ab253b023f95e25d72b0951 OP_EQUALVERIFY OP_CHECKSIG", "type": "pubkeyhash"}, "value": 0.01012986, "n": 1}], "hex": "0200000004021e1791ae04e75a637b9c9bfc4d093e8cf55adbfb56a2b351e8b46f10cec0a2080000006b4830450221008526a9813671bc12e93ae98f73a4c5e927eb533ef970062afff2a0d61e5d7c220220089928314643fc4ed5d51879af01cb6783adedc9cdc378563fb8ffcb9fd0ac070121028f6cc72f095fbcb1c0f55f8b81cc8de8a63b4ad02cef02660d9824ceb6c3d621feffffff30a3120474f5efd1dc46b9c77c3227c43455b13579b921cfcc16c02e5a2235a2070000006a47304402204a32af0d30b1db0e888bb20e882f3af7d5173c4c0e8c0ed39789e32a43b1518702204a54746b855d600c180488559f1a74bc9cd34bf4d153bc3c3f84c8a2c518d4e401210340bf2fd0e64a3d0dd768b1eae03a72d1ff51a959678915d91eface4de14a5db0feffffff56a83b37ed240687fc16edec6fcafce7e0c745d7faf6686fbc2850252885141e010000006b4830450221009ab9b5f81b26fbec14efe369ad5cd1869398544b328a5599717018d79e428935022011665974a969c71d85a7bc90004084b6e895cdc2b5d28af59a9bf97eaf33694e012102f2ad654009443e5bc8b7fb47a53efdd973aac5b2b8017cb7fa59afd0337e86f1feffffff915fb0879e17e56c238a3fbf2e067153954b1385e89e75e584501e4489a3a06b010000006a473044022002a5af8f8c564847e46d95407cba9c9f0f3b6675ef87f8d22ae57c032b0319fe02201b8c2fac4f3c9ffd3fc5b84ae1e85f1ac27b20be410811564b8c9000d9a6b147012102ec1098a304606406f4904c0b14a84d9d6aea3747ee1e947145247e4bf43d36a0feffffff024028ba000000000017a91421b576cc5f58042a35e584ef2fd92ddbb382b52187fa740f00000000001976a914bf63b2527bc628db0ab253b023f95e25d72b095188ac0c490800", "vin": [{"sequence": 4294967294, "scriptSig": {"hex": "4830450221008526a9813671bc12e93ae98f73a4c5e927eb533ef970062afff2a0d61e5d7c220220089928314643fc4ed5d51879af01cb6783adedc9cdc378563fb8ffcb9fd0ac070121028f6cc72f095fbcb1c0f55f8b81cc8de8a63b4ad02cef02660d9824ceb6c3d621", "asm": "30450221008526a9813671bc12e93ae98f73a4c5e927eb533ef970062afff2a0d61e5d7c220220089928314643fc4ed5d51879af01cb6783adedc9cdc378563fb8ffcb9fd0ac07[ALL] 028f6cc72f095fbcb1c0f55f8b81cc8de8a63b4ad02cef02660d9824ceb6c3d621"}, "vout": 8, "txid": "a2c0ce106fb4e851b3a256fbdb5af58c3e094dfc9b9c7b635ae704ae91171e02"}, {"sequence": 4294967294, "scriptSig": {"hex": "47304402204a32af0d30b1db0e888bb20e882f3af7d5173c4c0e8c0ed39789e32a43b1518702204a54746b855d600c180488559f1a74bc9cd34bf4d153bc3c3f84c8a2c518d4e401210340bf2fd0e64a3d0dd768b1eae03a72d1ff51a959678915d91eface4de14a5db0", "asm": "304402204a32af0d30b1db0e888bb20e882f3af7d5173c4c0e8c0ed39789e32a43b1518702204a54746b855d600c180488559f1a74bc9cd34bf4d153bc3c3f84c8a2c518d4e4[ALL] 0340bf2fd0e64a3d0dd768b1eae03a72d1ff51a959678915d91eface4de14a5db0"}, "vout": 7, "txid": "a235225a2ec016cccf21b97935b15534c427327cc7b946dcd1eff5740412a330"}, {"sequence": 4294967294, "scriptSig": {"hex": "4830450221009ab9b5f81b26fbec14efe369ad5cd1869398544b328a5599717018d79e428935022011665974a969c71d85a7bc90004084b6e895cdc2b5d28af59a9bf97eaf33694e012102f2ad654009443e5bc8b7fb47a53efdd973aac5b2b8017cb7fa59afd0337e86f1", "asm": "30450221009ab9b5f81b26fbec14efe369ad5cd1869398544b328a5599717018d79e428935022011665974a969c71d85a7bc90004084b6e895cdc2b5d28af59a9bf97eaf33694e[ALL] 02f2ad654009443e5bc8b7fb47a53efdd973aac5b2b8017cb7fa59afd0337e86f1"}, "vout": 1, "txid": "1e148528255028bc6f68f6fad745c7e0e7fcca6feced16fc870624ed373ba856"}, {"sequence": 4294967294, "scriptSig": {"hex": "473044022002a5af8f8c564847e46d95407cba9c9f0f3b6675ef87f8d22ae57c032b0319fe02201b8c2fac4f3c9ffd3fc5b84ae1e85f1ac27b20be410811564b8c9000d9a6b147012102ec1098a304606406f4904c0b14a84d9d6aea3747ee1e947145247e4bf43d36a0", "asm": "3044022002a5af8f8c564847e46d95407cba9c9f0f3b6675ef87f8d22ae57c032b0319fe02201b8c2fac4f3c9ffd3fc5b84ae1e85f1ac27b20be410811564b8c9000d9a6b147[ALL] 02ec1098a304606406f4904c0b14a84d9d6aea3747ee1e947145247e4bf43d36a0"}, "vout": 1, "txid": "6ba0a389441e5084e5759ee885134b955371062ebf3f8a236ce5179e87b05f91"}], "txid": "1cdaf5e669186d8ec5ec72df1f93e6591b316d6f5439a6e2fa3982149351240e", "blocktime": 1537870268, "version": 2, "confirmations": 11518, "time": 1537870268, "locktime": 542988, "vsize": 666, "size": 666}