{"hash": "1cdb2dcc5449a29794bc582b39b629e1ba2b0af95709301432db46351181c94a", "blockhash": "0000000000000000001cda96e906b7601b7a6fb1a3b62bca570a9e5d8f4b3de1", "vout": [{"scriptPubKey": {"reqSigs": 1, "hex": "76a9141d83a844f435f405de9fbb7c0657a35bc49243c488ac", "addresses": ["13h4KGpiiHbTCUnYwED1RQmgZkzQomdoqH"], "asm": "OP_DUP OP_HASH160 1d83a844f435f405de9fbb7c0657a35bc49243c4 OP_EQUALVERIFY OP_CHECKSIG", "type": "pubkeyhash"}, "value": 0.02020735, "n": 0}, {"scriptPubKey": {"reqSigs": 1, "hex": "76a9144422eb5baa385b5972b3b5b680713de775b34e6388ac", "addresses": ["17DGnHWaKKe2AjzuDkAbJJzJ4akriXYm2q"], "asm": "OP_DUP OP_HASH160 4422eb5baa385b5972b3b5b680713de775b34e63 OP_EQUALVERIFY OP_CHECKSIG", "type": "pubkeyhash"}, "value": 0.0255819, "n": 1}], "hex": "010000000118edcd021a2c5f8be2fa7d9c7c6e7c72d8d3709baa9de95d4e11efdaa1986e15000000006a473044022053556501ce393078e0a9e280fa91e4881700c98677e68ee3a463d19d4e03de520220400ea28d4f0c94deb3f3a1c9d6e22e7bb10b5ff141fd3b85976462ae9c53b6280121029e0c91b783f7cfd5020e3d896dab96962827c29a47ad3eb6af3131a4ff91b1b7fdffffff027fd51e00000000001976a9141d83a844f435f405de9fbb7c0657a35bc49243c488acee082700000000001976a9144422eb5baa385b5972b3b5b680713de775b34e6388ac13490800", "vin": [{"sequence": 4294967293, "scriptSig": {"hex": "473044022053556501ce393078e0a9e280fa91e4881700c98677e68ee3a463d19d4e03de520220400ea28d4f0c94deb3f3a1c9d6e22e7bb10b5ff141fd3b85976462ae9c53b6280121029e0c91b783f7cfd5020e3d896dab96962827c29a47ad3eb6af3131a4ff91b1b7", "asm": "3044022053556501ce393078e0a9e280fa91e4881700c98677e68ee3a463d19d4e03de520220400ea28d4f0c94deb3f3a1c9d6e22e7bb10b5ff141fd3b85976462ae9c53b628[ALL] 029e0c91b783f7cfd5020e3d896dab96962827c29a47ad3eb6af3131a4ff91b1b7"}, "vout": 0, "txid": "156e98a1daef114e5de99daa9b70d3d8727c6e7c9c7dfae28b5f2c1a02cded18"}], "txid": "1cdb2dcc5449a29794bc582b39b629e1ba2b0af95709301432db46351181c94a", "blocktime": 1537873282, "version": 1, "confirmations": 11481, "time": 1537873282, "locktime": 542995, "vsize": 225, "size": 225}