{"hash": "1cdcf2d69ccbd1afa4b9db7d81f21c17e784d5df1098edfb59117bf0cecf2792", "blockhash": "00000000000000000018f53835495a110e01622372bf6ae95dc86f2b0ab887b0", "vout": [{"scriptPubKey": {"reqSigs": 1, "hex": "001434349478f078c215653867c32578e9b17427d7da", "addresses": ["bc1qxs6fg78s0rpp2efcvlpj278fk96z0476t8gnt4"], "asm": "0 34349478f078c215653867c32578e9b17427d7da", "type": "witness_v0_keyhash"}, "value": 0.00028432, "n": 0}, {"scriptPubKey": {"reqSigs": 1, "hex": "76a914c921934a1c45e902ce66d131d902a28f875acd5088ac", "addresses": ["1KLV3R238NRXL9B9dKN33dHDDEQnPj3T4X"], "asm": "OP_DUP OP_HASH160 c921934a1c45e902ce66d131d902a28f875acd50 OP_EQUALVERIFY OP_CHECKSIG", "type": "pubkeyhash"}, "value": 0.00156, "n": 1}], "hex": "01000000012bf03647701c8d3724aa30dc5f9e8c99de3a042636686047c263862010fe10ebb70700006a47304402200fffb3a6f49e0642a7f72793c46de048e6a5442fdf4ff9ba4ea8d7f77be3197002201f89b84cf26aa0275d22a32a5f0731d58e2ad19f141a2cb24e8083f897eea80c0121024da5b94d0eb28ed8f149eacf6625f8ae7a01fa97ec266507f5a4f88ae1fd5445ffffffff02106f00000000000016001434349478f078c215653867c32578e9b17427d7da60610200000000001976a914c921934a1c45e902ce66d131d902a28f875acd5088ac00000000", "vin": [{"sequence": 4294967295, "scriptSig": {"hex": "47304402200fffb3a6f49e0642a7f72793c46de048e6a5442fdf4ff9ba4ea8d7f77be3197002201f89b84cf26aa0275d22a32a5f0731d58e2ad19f141a2cb24e8083f897eea80c0121024da5b94d0eb28ed8f149eacf6625f8ae7a01fa97ec266507f5a4f88ae1fd5445", "asm": "304402200fffb3a6f49e0642a7f72793c46de048e6a5442fdf4ff9ba4ea8d7f77be3197002201f89b84cf26aa0275d22a32a5f0731d58e2ad19f141a2cb24e8083f897eea80c[ALL] 024da5b94d0eb28ed8f149eacf6625f8ae7a01fa97ec266507f5a4f88ae1fd5445"}, "vout": 1975, "txid": "eb10fe10208663c24760683626043ade998c9e5fdc30aa24378d1c704736f02b"}], "txid": "1cdcf2d69ccbd1afa4b9db7d81f21c17e784d5df1098edfb59117bf0cecf2792", "blocktime": 1537870928, "version": 1, "confirmations": 11512, "time": 1537870928, "locktime": 0, "vsize": 222, "size": 222}