{"hash": "1ce21a810b8733a799a1b71e9477a31cbd555bcf675fcc8b5ff17b88aba1487e", "blockhash": "000000000000000000022b45ed06c6f4ccd3cf7fb5ba4856ebd2e58215665228", "vout": [{"scriptPubKey": {"reqSigs": 1, "hex": "76a9142b26c69105fbdcd22e59dcfd4db5c1ec066ca55288ac", "addresses": ["14wAWRqE3GMrSKJ4jGsdKAaz46omc1z9ms"], "asm": "OP_DUP OP_HASH160 2b26c69105fbdcd22e59dcfd4db5c1ec066ca552 OP_EQUALVERIFY OP_CHECKSIG", "type": "pubkeyhash"}, "value": 0.0413082, "n": 0}], "hex": "0100000003b0abf0c5edcc54d1a92502b162f33574b30447ab1f6da3147e3a1eff75a8340a040000006a4730440220051825256ea839e601c24df0e8a3029b31fc9653c43907a7417296c15c5ef8f9022035be4c7824b47ee5132b0a179958ff32bde847ac7698e206c100696a2c078a2c012103b7e3447391fd2c01b958e7ddb5a125aff19f637f858793ee9392d2c3ceb8fedffdffffffce9ffaf464947af25151aa6fab3a307876b10029276248b84d5db088a43950b80c0000006a473044022066e8b47289db7d2744b6090bc223074f3d682ce13534cfb0d868595758236e1902202ebe15b54d21d58fa3de0969ebc083c79eda927bdc3ba211863de36df9db9768012103b7e3447391fd2c01b958e7ddb5a125aff19f637f858793ee9392d2c3ceb8fedffdfffffffe65c02838b6688d9bed90a7331ba5894f36ccefd8a6ae0363d2fc373b6bbaf7050000006b483045022100d40d4c21be2eb37366f8bc8149992bc70902457f7a4f16c08a7d0f2eddc0c13a022004ac8e6a3d9dc99ce5f7d7f8dc8b4df9299cfe8c0f4f978d1fde6e7c49c1d678012103b7e3447391fd2c01b958e7ddb5a125aff19f637f858793ee9392d2c3ceb8fedffdffffff0104083f00000000001976a9142b26c69105fbdcd22e59dcfd4db5c1ec066ca55288ac0b490800", "vin": [{"sequence": 4294967293, "scriptSig": {"hex": "4730440220051825256ea839e601c24df0e8a3029b31fc9653c43907a7417296c15c5ef8f9022035be4c7824b47ee5132b0a179958ff32bde847ac7698e206c100696a2c078a2c012103b7e3447391fd2c01b958e7ddb5a125aff19f637f858793ee9392d2c3ceb8fedf", "asm": "30440220051825256ea839e601c24df0e8a3029b31fc9653c43907a7417296c15c5ef8f9022035be4c7824b47ee5132b0a179958ff32bde847ac7698e206c100696a2c078a2c[ALL] 03b7e3447391fd2c01b958e7ddb5a125aff19f637f858793ee9392d2c3ceb8fedf"}, "vout": 4, "txid": "0a34a875ff1e3a7e14a36d1fab4704b37435f362b10225a9d154ccedc5f0abb0"}, {"sequence": 4294967293, "scriptSig": {"hex": "473044022066e8b47289db7d2744b6090bc223074f3d682ce13534cfb0d868595758236e1902202ebe15b54d21d58fa3de0969ebc083c79eda927bdc3ba211863de36df9db9768012103b7e3447391fd2c01b958e7ddb5a125aff19f637f858793ee9392d2c3ceb8fedf", "asm": "3044022066e8b47289db7d2744b6090bc223074f3d682ce13534cfb0d868595758236e1902202ebe15b54d21d58fa3de0969ebc083c79eda927bdc3ba211863de36df9db9768[ALL] 03b7e3447391fd2c01b958e7ddb5a125aff19f637f858793ee9392d2c3ceb8fedf"}, "vout": 12, "txid": "b85039a488b05d4db84862272900b17678303aab6faa5151f27a9464f4fa9fce"}, {"sequence": 4294967293, "scriptSig": {"hex": "483045022100d40d4c21be2eb37366f8bc8149992bc70902457f7a4f16c08a7d0f2eddc0c13a022004ac8e6a3d9dc99ce5f7d7f8dc8b4df9299cfe8c0f4f978d1fde6e7c49c1d678012103b7e3447391fd2c01b958e7ddb5a125aff19f637f858793ee9392d2c3ceb8fedf", "asm": "3045022100d40d4c21be2eb37366f8bc8149992bc70902457f7a4f16c08a7d0f2eddc0c13a022004ac8e6a3d9dc99ce5f7d7f8dc8b4df9299cfe8c0f4f978d1fde6e7c49c1d678[ALL] 03b7e3447391fd2c01b958e7ddb5a125aff19f637f858793ee9392d2c3ceb8fedf"}, "vout": 5, "txid": "f7ba6b3b37fcd26303aea6d8efcc364f89a51b33a790ed9b8d68b63828c065fe"}], "txid": "1ce21a810b8733a799a1b71e9477a31cbd555bcf675fcc8b5ff17b88aba1487e", "blocktime": 1537869901, "version": 1, "confirmations": 11522, "time": 1537869901, "locktime": 542987, "vsize": 486, "size": 486}