{"hash": "63dc9afa1267d58d509b6d30e668909396e229e58dbf362495f831bdbba5c1f5", "blockhash": "0000000000000000001e0dab787dd257d1dbfcb92a98c2207d5e1078be1f4165", "vout": [{"scriptPubKey": {"reqSigs": 1, "hex": "0014a0e218f64b22e2edd1543c1ae0295046760042e5", "addresses": ["bc1q5r3p3ajtyt3wm5258sdwq22sgemqqsh9q2vmul"], "asm": "0 a0e218f64b22e2edd1543c1ae0295046760042e5", "type": "witness_v0_keyhash"}, "value": 0.00022672, "n": 0}, {"scriptPubKey": {"reqSigs": 1, "hex": "a91421e77b04446c392aba5def7f1037a67d838ce8fa87", "addresses": ["34nHXRXHqqdRnVZ42AtDuZSw9Za5Q7hco7"], "asm": "OP_HASH160 21e77b04446c392aba5def7f1037a67d838ce8fa OP_EQUAL", "type": "scripthash"}, "value": 0.012, "n": 1}], "hex": "0100000000010162be52a1900406b09fdd42ac8123bc489b9d5cc730cc6ce1f78eaa03db4d3a410000000000ffffffff029058000000000000160014a0e218f64b22e2edd1543c1ae0295046760042e5804f12000000000017a91421e77b04446c392aba5def7f1037a67d838ce8fa870247304402200908b525db88956239afe7128f0d4f643dcab2896a6bcb6163dda2db6e4fbf300220597969a77eec6800175881147608f20041db48c01e7850668de9c6b17a9c27220121030923a59a24dcf18af8abcbf5df08b598e30da63b43b58737221257acd26d86cc00000000", "vin": [{"txinwitness": ["304402200908b525db88956239afe7128f0d4f643dcab2896a6bcb6163dda2db6e4fbf300220597969a77eec6800175881147608f20041db48c01e7850668de9c6b17a9c272201", "030923a59a24dcf18af8abcbf5df08b598e30da63b43b58737221257acd26d86cc"], "sequence": 4294967295, "scriptSig": {"hex": "", "asm": ""}, "vout": 0, "txid": "413a4ddb03aa8ef7e16ccc30c75c9d9b48bc2381ac42dd9fb0060490a152be62"}], "txid": "1ce5b90d34dfaebc773af21da57bd3a18853de03401f204fbf1307a6103b672f", "blocktime": 1537872475, "version": 1, "confirmations": 11486, "time": 1537872475, "locktime": 0, "vsize": 142, "size": 223}