{"hash": "1cf2ca5aac132000d82770ded5c07ee3fecc5a4112fc6e503e319a223fe1dc17", "blockhash": "0000000000000000001cda96e906b7601b7a6fb1a3b62bca570a9e5d8f4b3de1", "vout": [{"scriptPubKey": {"reqSigs": 1, "hex": "76a9145daa377c65ac03956077ff031a9298d107d0ffff88ac", "addresses": ["19YFkhzfDJvhZcytXqFTyZ1E85MM3nTeng"], "asm": "OP_DUP OP_HASH160 5daa377c65ac03956077ff031a9298d107d0ffff OP_EQUALVERIFY OP_CHECKSIG", "type": "pubkeyhash"}, "value": 0.00017571, "n": 0}, {"scriptPubKey": {"reqSigs": 1, "hex": "76a91413a381281ee59222ec93ec3a9041a8bb8c63060588ac", "addresses": ["12nqi8zqUfDmztaJDVLRmUJFYV5W31Skfe"], "asm": "OP_DUP OP_HASH160 13a381281ee59222ec93ec3a9041a8bb8c630605 OP_EQUALVERIFY OP_CHECKSIG", "type": "pubkeyhash"}, "value": 0.040738, "n": 1}], "hex": "0100000002e10829db953a1e79671e973f9795d2efc8de1ee74981ad90f9370cd6aafada62040000006a4730440220622878bacc435a6af95f1fd00314e10c1091c85a31270d19e0f0f8d723f1b3b902204709569bd8ae42f680e8aeff9b645786035a6e2e292ee662fb4e3832bbc5a65d01210363f47ee5942e14dfb0bc9e5471566fc1cfaecc99996cb8ad3844f8ba00d5bcd8ffffffff1d64f971214baf71fcd5d2d0ddf61217478b46970df2de15304c2b33a44ff552000000006b483045022100f8b291456117308e19826537ff87f8e64356929ab11f01a5e94bd8d8dc7623c4022025f87e0a1da3ee2e32cda9ed11c39310ffa9dd6288eb657111df96cd09b8c1eb0121029864a99a0d8121d064bae96fd792eddd5f59c5fd977a96295a0c64285d497fe4ffffffff02a3440000000000001976a9145daa377c65ac03956077ff031a9298d107d0ffff88ac48293e00000000001976a91413a381281ee59222ec93ec3a9041a8bb8c63060588ac00000000", "vin": [{"sequence": 4294967295, "scriptSig": {"hex": "4730440220622878bacc435a6af95f1fd00314e10c1091c85a31270d19e0f0f8d723f1b3b902204709569bd8ae42f680e8aeff9b645786035a6e2e292ee662fb4e3832bbc5a65d01210363f47ee5942e14dfb0bc9e5471566fc1cfaecc99996cb8ad3844f8ba00d5bcd8", "asm": "30440220622878bacc435a6af95f1fd00314e10c1091c85a31270d19e0f0f8d723f1b3b902204709569bd8ae42f680e8aeff9b645786035a6e2e292ee662fb4e3832bbc5a65d[ALL] 0363f47ee5942e14dfb0bc9e5471566fc1cfaecc99996cb8ad3844f8ba00d5bcd8"}, "vout": 4, "txid": "62dafaaad60c37f990ad8149e71edec8efd295973f971e67791e3a95db2908e1"}, {"sequence": 4294967295, "scriptSig": {"hex": "483045022100f8b291456117308e19826537ff87f8e64356929ab11f01a5e94bd8d8dc7623c4022025f87e0a1da3ee2e32cda9ed11c39310ffa9dd6288eb657111df96cd09b8c1eb0121029864a99a0d8121d064bae96fd792eddd5f59c5fd977a96295a0c64285d497fe4", "asm": "3045022100f8b291456117308e19826537ff87f8e64356929ab11f01a5e94bd8d8dc7623c4022025f87e0a1da3ee2e32cda9ed11c39310ffa9dd6288eb657111df96cd09b8c1eb[ALL] 029864a99a0d8121d064bae96fd792eddd5f59c5fd977a96295a0c64285d497fe4"}, "vout": 0, "txid": "52f54fa4332b4c3015def20d97468b471712f6ddd0d2d5fc71af4b2171f9641d"}], "txid": "1cf2ca5aac132000d82770ded5c07ee3fecc5a4112fc6e503e319a223fe1dc17", "blocktime": 1537873282, "version": 1, "confirmations": 11485, "time": 1537873282, "locktime": 0, "vsize": 373, "size": 373}