{"hash": "f29ea91d4ebcd1b1ff51a4ef424a520b481b1f3df4bd7a8e1582aa0d9ace6898", "blockhash": "00000000000000000017f5eb5941039fbcee6240d03bc1f2f8e35350df66a1d8", "vout": [{"scriptPubKey": {"reqSigs": 1, "hex": "76a914f9b828b34119991cedacd86a07404b06b1ad20cf88ac", "addresses": ["1PmPsMftceccZJUJQwEmC9Q5yeHa6hKyCX"], "asm": "OP_DUP OP_HASH160 f9b828b34119991cedacd86a07404b06b1ad20cf OP_EQUALVERIFY OP_CHECKSIG", "type": "pubkeyhash"}, "value": 1.0, "n": 0}, {"scriptPubKey": {"reqSigs": 1, "hex": "a914bfaf2e9d4fa261e31b849e3eb87dbf5d4ce9819387", "addresses": ["3KAYr3kTKefcPhSAsEL1eLR4ijvGaMdNK6"], "asm": "OP_HASH160 bfaf2e9d4fa261e31b849e3eb87dbf5d4ce98193 OP_EQUAL", "type": "scripthash"}, "value": 0.04300242, "n": 1}], "hex": "01000000000109d57d459cab89d912feb4532f9d0a792f5910662b9c247cb1927f56565292166a01000000232200209dea296b585c66dc5fd079c2f53788901b7f483266d08f00c4806403927c8d54ffffffff6ef6574bc51953e300ec403235ad78ed32da998e2dd27f8578e31fb91f537e7e01000000232200204473169b2c348721cabe287f61f235e1ef0bd889fa336a5863bc68a49fef0050ffffffffe5dd4203ed1c4ec5a03583a56b8f3d6ac229d49e00d1b6ca52a54ba09ea731a50000000023220020700446cfcb6218aba9caac03a2c3a4e4027e415a62115dca94a15e126589cae7ffffffff0f47ab11f29e538249c12bbbba707b9ff4ac0db6344a51657ec327773d88883c0000000023220020391ba49bbff6cf64c937eb64d67165ec32eca8cb7c189fdf6af04320faa149aeffffffffb71377ac0437acac1d080ef0a5d9aec86283f384caeb9470e27d24494f0d4e3d030000002322002081dc674c0adfc24601db095b6c70a9ba9cf588c956c10902366f52e080d53ad9ffffffff76bc0983587213e25b21ed713da5a4d23a32b1d5e73d523e85c1d854341b8d2a01000000232200200841e60645dcb80427c6c1e99e9971f0816ffb3708bfa0683a3541f90bd74b78ffffffffd4edb4136542918d09fab6a69ed4264ad04f998916f81fb9f503014e69cb571803000000232200204f9555bde8c0056c3cbac434e90bc86f4e903358e66a5e5957a921fdf85a8b09ffffffff211e4bb15dbd02013c678a7a1e8f8ff1fcf9d12c4bbddd66fd435800a1656a0501000000232200208004a2b7b58b3986d2e48e620eeb6f013d4fafb06ce62509dcdf1e18005dc181ffffffff087a7d1513cabd1d0a22ed0e54a144389247bc44e104d56c65e204a7c3f072fb00000000232200204bb041eb0653afe16391e2390ff44a8ba9e83544bc215f206c1b6a2f81f39504ffffffff0200e1f505000000001976a914f9b828b34119991cedacd86a07404b06b1ad20cf88acd29d41000000000017a914bfaf2e9d4fa261e31b849e3eb87dbf5d4ce9819387040047304402207a2987015a13dca8d786f5fd978a78cd3041bcf3d1d18a7d646367bdf1a44b630220202997062afd32aab00d1eda1d46f2dc3b62295042b1af68f0c43f7da7193bac0148304502210095f4a86c6382dc2c1cb000928a26ecd9da6dee083d5a799bcb37da7c2b0c01ee0220509e824156079ab4bb3b6ea4c673d7dcbb046cbdbdcdf2081dba53fbd22f901c01475221037dc9d9448aea83f4c8bcdd2126084ee39f3e1fa40fe33f4730f4cf3fcc6221a92102f080b51bee43ea23b94e4d9b2359fa202856608ef2026c8c9a6bcbb9f4999b6852ae040047304402203e99e0fbfd4c1597a79137397e275c14353b83e190c8ac9d6987b72ba315e3220220066a78acc8111045dd3764a757f4401748e0107f9e327c26a77b8dfd285bd0ef01483045022100c3d8fa648c5fa4b8044ffb7a3ed4f40e37fbdcebe520f40dc2b2b9ed862a13410220643f81056a756dc8c51dc6aca849220ac96e6e199f0bf4cf120b5eb220e472e801475221030ca14eeb1669220a33ebb9fa999a3d17f139739edb6a862073fa66c5103dd84d2102f080b51bee43ea23b94e4d9b2359fa202856608ef2026c8c9a6bcbb9f4999b6852ae040047304402205db078bf9890b60b29b98afeeb3a88ae3432ad034ca83dd271e70880fde3706a0220353639e9d569c3799bf7c4f9624556b59bc1a98282efa72dab32d36bf645e80201483045022100c4306ecaec09171c26fd96b48b9fc9a30e5330396a15ee91b9c6564706901ecf02203f26e742dac13721d3cda8323ff579faefec3bab57505a9c4712a0c165ce579b0147522102715b738114358674ec05ca996eec81cc8522c3eb0024e2610515b86cea0ae9f02102f080b51bee43ea23b94e4d9b2359fa202856608ef2026c8c9a6bcbb9f4999b6852ae0400483045022100844b259056da5b42f37eef74d19c8482a84108ea6221f032d29ab768f2f891ee02202dc28e12da28314d3bfd94b86bde2599e86a9ad6adfe76c4331237a26496f85101483045022100886f4848b6b0e35746d639379f1374f61cc01ba97777b1b44cc022c85d289b24022036fd02edb4d5ac53c2b51117d2bd131392b66f0c1cc24913d0a6c1a20875dfc30147522103b77bd397219b4aa96a8cb9592f16bc01d289cd43989d597ac2b2b45d7296b2cd2102f080b51bee43ea23b94e4d9b2359fa202856608ef2026c8c9a6bcbb9f4999b6852ae04004730440220728983a1d3a3c39bf303bac58b4ccdc0737851cd708a1a3e3849c1a4f5d6de4c022078e518821595c58ba3ce85f013a977947a284690bee2dd2a2de3f9cf3b5d70ad0147304402202b176f0df0837f739839604c2867da2a5e276230439a41d950ee98d2f5d6a0c1022015ff5e7ffb7b7d2b28a4c9bc55f50acc162ac64d4c3d747fc1cfd9bd0da7472e0147522102827f6e690d68b416d388cc1c6d19bf92df8fb50906f72574796c9d467b59a9632102f080b51bee43ea23b94e4d9b2359fa202856608ef2026c8c9a6bcbb9f4999b6852ae0400473044022076867b5a3ba0df5b636d18084e9aab1e014b4f705797014da24fdf7f60bc842e02205d842ca79d830648eab74deae4778fba9412a78bb909f9216d841037f2053ee80147304402205fa1d45443d8fe1f7c511e7aac74fe0c56ba87c6850b9cdcb051f8bd1b319768022072827f56c6a5afe1f9223dbbff146482ded30bb460c53647801df51bbc9881970147522102987313694e81c757738efbc02851381927b73812717a0fd61d4edeb701a5374d2102f080b51bee43ea23b94e4d9b2359fa202856608ef2026c8c9a6bcbb9f4999b6852ae04004830450221009599c10fd075358cefaf0ef1fb32155438510ffe5840ce39af1965dbc2dd3df9022073d53553e21bf78d96139c791ee3433d24edfc8cdce7ecedc39170d739747c6a01473044022038ece26eea8790a067632a60545ebc7d0a1cbb1b4a5cb2fbd4542170099a4d570220537f6e79807acabab4fb10520dc53362e2944d3d5001fae9f43cd2417bf9a87e014752210390225489d22c9666435159328f6333f3db42a8b51c269987169ff3d7a518c2462102f080b51bee43ea23b94e4d9b2359fa202856608ef2026c8c9a6bcbb9f4999b6852ae0400473044022077e967b6f3b8052e282fa79798bf6a5abfe39862296b1458b2c47294ce423b660220043c9df7fc319b8dca247d626be47e7a53eec1f7a01ae7f69dea832920cd48be01483045022100a3665a4423491b4aa6dcfa2da2604e03d9373b8b3596be719937e24cca2045220220675f37e07795c7c9c65c7d884e1f10f0a8873e304047a2896d6a39a8aae73e630147522103ff3580a9610fbcbaa21e39fb2a37cf7adc35579eaa55849fee8e270742e952dc2102f080b51bee43ea23b94e4d9b2359fa202856608ef2026c8c9a6bcbb9f4999b6852ae04004830450221009cd4cba3675d82af124411f6509791b48903350c1bf7237f620b3bb89ea9e6f00220407e477c505e6562f1e6886d1216655ff093db985c028c5f2e6b42ccc081d66b01483045022100e4a5a724b840e06c87dd66bbced601443c779bf9fcfd1ee1226ecbc6e42f647d022020339715c0b5135a38f0ecc589672e4a582cc6727f7450ee4a4193a0a28c1f080147522102f6528da2ec9084d1612ec3ca9f906c1be1564df8ade9eb96f89d9d7c79a2b03b2102f080b51bee43ea23b94e4d9b2359fa202856608ef2026c8c9a6bcbb9f4999b6852ae00000000", "vin": [{"txinwitness": ["", "304402207a2987015a13dca8d786f5fd978a78cd3041bcf3d1d18a7d646367bdf1a44b630220202997062afd32aab00d1eda1d46f2dc3b62295042b1af68f0c43f7da7193bac01", "304502210095f4a86c6382dc2c1cb000928a26ecd9da6dee083d5a799bcb37da7c2b0c01ee0220509e824156079ab4bb3b6ea4c673d7dcbb046cbdbdcdf2081dba53fbd22f901c01", "5221037dc9d9448aea83f4c8bcdd2126084ee39f3e1fa40fe33f4730f4cf3fcc6221a92102f080b51bee43ea23b94e4d9b2359fa202856608ef2026c8c9a6bcbb9f4999b6852ae"], "sequence": 4294967295, "scriptSig": {"hex": "2200209dea296b585c66dc5fd079c2f53788901b7f483266d08f00c4806403927c8d54", "asm": "00209dea296b585c66dc5fd079c2f53788901b7f483266d08f00c4806403927c8d54"}, "vout": 1, "txid": "6a16925256567f92b17c249c2b6610592f790a9d2f53b4fe12d989ab9c457dd5"}, {"txinwitness": ["", "304402203e99e0fbfd4c1597a79137397e275c14353b83e190c8ac9d6987b72ba315e3220220066a78acc8111045dd3764a757f4401748e0107f9e327c26a77b8dfd285bd0ef01", "3045022100c3d8fa648c5fa4b8044ffb7a3ed4f40e37fbdcebe520f40dc2b2b9ed862a13410220643f81056a756dc8c51dc6aca849220ac96e6e199f0bf4cf120b5eb220e472e801", "5221030ca14eeb1669220a33ebb9fa999a3d17f139739edb6a862073fa66c5103dd84d2102f080b51bee43ea23b94e4d9b2359fa202856608ef2026c8c9a6bcbb9f4999b6852ae"], "sequence": 4294967295, "scriptSig": {"hex": "2200204473169b2c348721cabe287f61f235e1ef0bd889fa336a5863bc68a49fef0050", "asm": "00204473169b2c348721cabe287f61f235e1ef0bd889fa336a5863bc68a49fef0050"}, "vout": 1, "txid": "7e7e531fb91fe378857fd22d8e99da32ed78ad353240ec00e35319c54b57f66e"}, {"txinwitness": ["", "304402205db078bf9890b60b29b98afeeb3a88ae3432ad034ca83dd271e70880fde3706a0220353639e9d569c3799bf7c4f9624556b59bc1a98282efa72dab32d36bf645e80201", "3045022100c4306ecaec09171c26fd96b48b9fc9a30e5330396a15ee91b9c6564706901ecf02203f26e742dac13721d3cda8323ff579faefec3bab57505a9c4712a0c165ce579b01", "522102715b738114358674ec05ca996eec81cc8522c3eb0024e2610515b86cea0ae9f02102f080b51bee43ea23b94e4d9b2359fa202856608ef2026c8c9a6bcbb9f4999b6852ae"], "sequence": 4294967295, "scriptSig": {"hex": "220020700446cfcb6218aba9caac03a2c3a4e4027e415a62115dca94a15e126589cae7", "asm": "0020700446cfcb6218aba9caac03a2c3a4e4027e415a62115dca94a15e126589cae7"}, "vout": 0, "txid": "a531a79ea04ba552cab6d1009ed429c26a3d8f6ba58335a0c54e1ced0342dde5"}, {"txinwitness": ["", "3045022100844b259056da5b42f37eef74d19c8482a84108ea6221f032d29ab768f2f891ee02202dc28e12da28314d3bfd94b86bde2599e86a9ad6adfe76c4331237a26496f85101", "3045022100886f4848b6b0e35746d639379f1374f61cc01ba97777b1b44cc022c85d289b24022036fd02edb4d5ac53c2b51117d2bd131392b66f0c1cc24913d0a6c1a20875dfc301", "522103b77bd397219b4aa96a8cb9592f16bc01d289cd43989d597ac2b2b45d7296b2cd2102f080b51bee43ea23b94e4d9b2359fa202856608ef2026c8c9a6bcbb9f4999b6852ae"], "sequence": 4294967295, "scriptSig": {"hex": "220020391ba49bbff6cf64c937eb64d67165ec32eca8cb7c189fdf6af04320faa149ae", "asm": "0020391ba49bbff6cf64c937eb64d67165ec32eca8cb7c189fdf6af04320faa149ae"}, "vout": 0, "txid": "3c88883d7727c37e65514a34b60dacf49f7b70babb2bc14982539ef211ab470f"}, {"txinwitness": ["", "30440220728983a1d3a3c39bf303bac58b4ccdc0737851cd708a1a3e3849c1a4f5d6de4c022078e518821595c58ba3ce85f013a977947a284690bee2dd2a2de3f9cf3b5d70ad01", "304402202b176f0df0837f739839604c2867da2a5e276230439a41d950ee98d2f5d6a0c1022015ff5e7ffb7b7d2b28a4c9bc55f50acc162ac64d4c3d747fc1cfd9bd0da7472e01", "522102827f6e690d68b416d388cc1c6d19bf92df8fb50906f72574796c9d467b59a9632102f080b51bee43ea23b94e4d9b2359fa202856608ef2026c8c9a6bcbb9f4999b6852ae"], "sequence": 4294967295, "scriptSig": {"hex": "22002081dc674c0adfc24601db095b6c70a9ba9cf588c956c10902366f52e080d53ad9", "asm": "002081dc674c0adfc24601db095b6c70a9ba9cf588c956c10902366f52e080d53ad9"}, "vout": 3, "txid": "3d4e0d4f49247de27094ebca84f38362c8aed9a5f00e081dacac3704ac7713b7"}, {"txinwitness": ["", "3044022076867b5a3ba0df5b636d18084e9aab1e014b4f705797014da24fdf7f60bc842e02205d842ca79d830648eab74deae4778fba9412a78bb909f9216d841037f2053ee801", "304402205fa1d45443d8fe1f7c511e7aac74fe0c56ba87c6850b9cdcb051f8bd1b319768022072827f56c6a5afe1f9223dbbff146482ded30bb460c53647801df51bbc98819701", "522102987313694e81c757738efbc02851381927b73812717a0fd61d4edeb701a5374d2102f080b51bee43ea23b94e4d9b2359fa202856608ef2026c8c9a6bcbb9f4999b6852ae"], "sequence": 4294967295, "scriptSig": {"hex": "2200200841e60645dcb80427c6c1e99e9971f0816ffb3708bfa0683a3541f90bd74b78", "asm": "00200841e60645dcb80427c6c1e99e9971f0816ffb3708bfa0683a3541f90bd74b78"}, "vout": 1, "txid": "2a8d1b3454d8c1853e523de7d5b1323ad2a4a53d71ed215be21372588309bc76"}, {"txinwitness": ["", "30450221009599c10fd075358cefaf0ef1fb32155438510ffe5840ce39af1965dbc2dd3df9022073d53553e21bf78d96139c791ee3433d24edfc8cdce7ecedc39170d739747c6a01", "3044022038ece26eea8790a067632a60545ebc7d0a1cbb1b4a5cb2fbd4542170099a4d570220537f6e79807acabab4fb10520dc53362e2944d3d5001fae9f43cd2417bf9a87e01", "52210390225489d22c9666435159328f6333f3db42a8b51c269987169ff3d7a518c2462102f080b51bee43ea23b94e4d9b2359fa202856608ef2026c8c9a6bcbb9f4999b6852ae"], "sequence": 4294967295, "scriptSig": {"hex": "2200204f9555bde8c0056c3cbac434e90bc86f4e903358e66a5e5957a921fdf85a8b09", "asm": "00204f9555bde8c0056c3cbac434e90bc86f4e903358e66a5e5957a921fdf85a8b09"}, "vout": 3, "txid": "1857cb694e0103f5b91ff81689994fd04a26d49ea6b6fa098d91426513b4edd4"}, {"txinwitness": ["", "3044022077e967b6f3b8052e282fa79798bf6a5abfe39862296b1458b2c47294ce423b660220043c9df7fc319b8dca247d626be47e7a53eec1f7a01ae7f69dea832920cd48be01", "3045022100a3665a4423491b4aa6dcfa2da2604e03d9373b8b3596be719937e24cca2045220220675f37e07795c7c9c65c7d884e1f10f0a8873e304047a2896d6a39a8aae73e6301", "522103ff3580a9610fbcbaa21e39fb2a37cf7adc35579eaa55849fee8e270742e952dc2102f080b51bee43ea23b94e4d9b2359fa202856608ef2026c8c9a6bcbb9f4999b6852ae"], "sequence": 4294967295, "scriptSig": {"hex": "2200208004a2b7b58b3986d2e48e620eeb6f013d4fafb06ce62509dcdf1e18005dc181", "asm": "00208004a2b7b58b3986d2e48e620eeb6f013d4fafb06ce62509dcdf1e18005dc181"}, "vout": 1, "txid": "056a65a1005843fd66ddbd4b2cd1f9fcf18f8f1e7a8a673c0102bd5db14b1e21"}, {"txinwitness": ["", "30450221009cd4cba3675d82af124411f6509791b48903350c1bf7237f620b3bb89ea9e6f00220407e477c505e6562f1e6886d1216655ff093db985c028c5f2e6b42ccc081d66b01", "3045022100e4a5a724b840e06c87dd66bbced601443c779bf9fcfd1ee1226ecbc6e42f647d022020339715c0b5135a38f0ecc589672e4a582cc6727f7450ee4a4193a0a28c1f0801", "522102f6528da2ec9084d1612ec3ca9f906c1be1564df8ade9eb96f89d9d7c79a2b03b2102f080b51bee43ea23b94e4d9b2359fa202856608ef2026c8c9a6bcbb9f4999b6852ae"], "sequence": 4294967295, "scriptSig": {"hex": "2200204bb041eb0653afe16391e2390ff44a8ba9e83544bc215f206c1b6a2f81f39504", "asm": "00204bb041eb0653afe16391e2390ff44a8ba9e83544bc215f206c1b6a2f81f39504"}, "vout": 0, "txid": "fb72f0c3a704e2656cd504e144bc47923844a1540eed220a1dbdca13157d7a08"}], "txid": "1cfb6ccdf7db9bfaf7db2b6f712d40737bcbffc0328d057c730be15138b78ce3", "blocktime": 1537874412, "version": 1, "confirmations": 11468, "time": 1537874412, "locktime": 0, "vsize": 1254, "size": 2733}