{"hash": "f2f4ff49f10e924250034aedba8d737dcc9aa8e872694c23e03ebdb1f5e66260", "blockhash": "00000000000000000024a2167bbff67b0be802c0b01cdd79e6331c2be6459f87", "vout": [{"scriptPubKey": {"reqSigs": 1, "hex": "00143900bbfe986beb774745fcab7b39c2606f20ca4c", "addresses": ["bc1q8yqthl5cd04hw369lj4hkwwzvphjpjjvgapq64"], "asm": "0 3900bbfe986beb774745fcab7b39c2606f20ca4c", "type": "witness_v0_keyhash"}, "value": 2.745e-05, "n": 0}, {"scriptPubKey": {"reqSigs": 1, "hex": "76a9140ca7448c193470348514351d68ea92328c1cb36088ac", "addresses": ["129uVGeqC6kPn4zFUixXwoD41j1nRQS5rU"], "asm": "OP_DUP OP_HASH160 0ca7448c193470348514351d68ea92328c1cb360 OP_EQUALVERIFY OP_CHECKSIG", "type": "pubkeyhash"}, "value": 0.0033, "n": 1}], "hex": "01000000000101435b5a703b1ea7ec34f39b65839d37e092ae8bc3926cc8162de19665ebfa38ca0100000000ffffffff02b90a0000000000001600143900bbfe986beb774745fcab7b39c2606f20ca4c10090500000000001976a9140ca7448c193470348514351d68ea92328c1cb36088ac0247304402203490cb16ecc3e17b7636fa498985fa1564a4ed882b24dbfbc49dfd3a1c2fe7830220520c084d18d247ea018f26a91a29fc83db1fddebcb3085e54749bf0d2ce6ac2c012102a42ef22bf5db80d5e2796599dee257b880fafede095bec693c90550a3ee481f500000000", "vin": [{"txinwitness": ["304402203490cb16ecc3e17b7636fa498985fa1564a4ed882b24dbfbc49dfd3a1c2fe7830220520c084d18d247ea018f26a91a29fc83db1fddebcb3085e54749bf0d2ce6ac2c01", "02a42ef22bf5db80d5e2796599dee257b880fafede095bec693c90550a3ee481f5"], "sequence": 4294967295, "scriptSig": {"hex": "", "asm": ""}, "vout": 1, "txid": "ca38faeb6596e12d16c86c92c38bae92e0379d83659bf334eca71e3b705a5b43"}], "txid": "1d0509a90b245a498c3554a194d05de79d1e966df6023a7665a1951a680ecd5e", "blocktime": 1537870564, "version": 1, "confirmations": 11515, "time": 1537870564, "locktime": 0, "vsize": 144, "size": 225}