{"hash": "1d0694c35bc61ce6ce7f453417d09f9d6edcedbf2aaf65006e1f22e29bfffc7f", "blockhash": "0000000000000000000e13cef7c366c0283d82e591d1acd082e914b08063cdf1", "vout": [{"scriptPubKey": {"reqSigs": 1, "hex": "76a91469f4c0ab53366771d1597b6a28abc20c6ce0260388ac", "addresses": ["1AfF9rQzZN3c6r35ntS9LVdCMemFRLdrJy"], "asm": "OP_DUP OP_HASH160 69f4c0ab53366771d1597b6a28abc20c6ce02603 OP_EQUALVERIFY OP_CHECKSIG", "type": "pubkeyhash"}, "value": 0.03495556, "n": 0}, {"scriptPubKey": {"reqSigs": 1, "hex": "76a9141a1b7be4c5180a4e96ae8a5a8c76e1dccc3021f188ac", "addresses": ["13P3VcBX42Szx7rMkhh38RsYymuZk7eLTM"], "asm": "OP_DUP OP_HASH160 1a1b7be4c5180a4e96ae8a5a8c76e1dccc3021f1 OP_EQUALVERIFY OP_CHECKSIG", "type": "pubkeyhash"}, "value": 0.15629, "n": 1}], "hex": "01000000022c1493fc216e607b2c2e70708f2765aa9ed727e41b71d0eb4dd1911972636e43000000006b48304502210085ae42f1d0e0f6fdb739de1c392dfc59d86203451fe1ce87c1ebb9435cba39ac02204ada3dd0cddfaf07a74777adc275945235fb6186c7ec4c4e3bdd8b252c0fa3da0121020335ab2bcba883e2c1253d123b2b50e6ef3429eed980c64432bdce1f08ee5163ffffffffef7845a4b7a5e79677515948388b17ed0ef49b40af4a32f61047973e7e6db4dd010000006a47304402200e09e67a6c5e8e24075f2a31e0a54db78836be266f30f45ae9cab48901831f5902201722171a3ac62ecbbe2307e03c5295d4bc302dcd7c51723415391f564f7acf520121020335ab2bcba883e2c1253d123b2b50e6ef3429eed980c64432bdce1f08ee5163ffffffff0284563500000000001976a91469f4c0ab53366771d1597b6a28abc20c6ce0260388acc87aee00000000001976a9141a1b7be4c5180a4e96ae8a5a8c76e1dccc3021f188ac00000000", "vin": [{"sequence": 4294967295, "scriptSig": {"hex": "48304502210085ae42f1d0e0f6fdb739de1c392dfc59d86203451fe1ce87c1ebb9435cba39ac02204ada3dd0cddfaf07a74777adc275945235fb6186c7ec4c4e3bdd8b252c0fa3da0121020335ab2bcba883e2c1253d123b2b50e6ef3429eed980c64432bdce1f08ee5163", "asm": "304502210085ae42f1d0e0f6fdb739de1c392dfc59d86203451fe1ce87c1ebb9435cba39ac02204ada3dd0cddfaf07a74777adc275945235fb6186c7ec4c4e3bdd8b252c0fa3da[ALL] 020335ab2bcba883e2c1253d123b2b50e6ef3429eed980c64432bdce1f08ee5163"}, "vout": 0, "txid": "436e63721991d14debd0711be427d79eaa65278f70702e2c7b606e21fc93142c"}, {"sequence": 4294967295, "scriptSig": {"hex": "47304402200e09e67a6c5e8e24075f2a31e0a54db78836be266f30f45ae9cab48901831f5902201722171a3ac62ecbbe2307e03c5295d4bc302dcd7c51723415391f564f7acf520121020335ab2bcba883e2c1253d123b2b50e6ef3429eed980c64432bdce1f08ee5163", "asm": "304402200e09e67a6c5e8e24075f2a31e0a54db78836be266f30f45ae9cab48901831f5902201722171a3ac62ecbbe2307e03c5295d4bc302dcd7c51723415391f564f7acf52[ALL] 020335ab2bcba883e2c1253d123b2b50e6ef3429eed980c64432bdce1f08ee5163"}, "vout": 1, "txid": "ddb46d7e3e974710f6324aaf409bf40eed178b384859517796e7a5b7a44578ef"}], "txid": "1d0694c35bc61ce6ce7f453417d09f9d6edcedbf2aaf65006e1f22e29bfffc7f", "blocktime": 1537871767, "version": 1, "confirmations": 11492, "time": 1537871767, "locktime": 0, "vsize": 373, "size": 373}