{"hash": "1d0e1a4113ed64901d99da683d81b82480ad888c2ac34e9ba14ef65b9c3186d3", "blockhash": "00000000000000000017f5eb5941039fbcee6240d03bc1f2f8e35350df66a1d8", "vout": [{"scriptPubKey": {"reqSigs": 1, "hex": "a9143e6f15908582f42917ec31e39bf8722fc9d5db3f87", "addresses": ["37P8thrtDXb6Di5E7f4FL3bpzum3fhUvT7"], "asm": "OP_HASH160 3e6f15908582f42917ec31e39bf8722fc9d5db3f OP_EQUAL", "type": "scripthash"}, "value": 0.0002, "n": 0}, {"scriptPubKey": {"reqSigs": 1, "hex": "76a914bd8d899f17b15294d6757fb61f88997f1497276888ac", "addresses": ["1JHGGTfMcUfgQFPC8U1sGNDaMUcLgT2deu"], "asm": "OP_DUP OP_HASH160 bd8d899f17b15294d6757fb61f88997f14972768 OP_EQUALVERIFY OP_CHECKSIG", "type": "pubkeyhash"}, "value": 0.03297852, "n": 1}], "hex": "0100000001186856353d33ad8fa9793f2bb92bc565b2d08c8d31aec5f771bfd935ac5b5f58190000006b483045022100b261af9df131e613dcab8bdd7a9466d43dc0b9bd4d34c6513a0333dcb424177002207debd21e97ab89d0e90ee39a874cdadefec6bab34217722900318b3c9f1c83c701210292f5fa527ce2de3f517824fc53b84025bf45cbe69fe45c885e3eb09f37841ab4ffffffff02204e00000000000017a9143e6f15908582f42917ec31e39bf8722fc9d5db3f873c523200000000001976a914bd8d899f17b15294d6757fb61f88997f1497276888ac00000000", "vin": [{"sequence": 4294967295, "scriptSig": {"hex": "483045022100b261af9df131e613dcab8bdd7a9466d43dc0b9bd4d34c6513a0333dcb424177002207debd21e97ab89d0e90ee39a874cdadefec6bab34217722900318b3c9f1c83c701210292f5fa527ce2de3f517824fc53b84025bf45cbe69fe45c885e3eb09f37841ab4", "asm": "3045022100b261af9df131e613dcab8bdd7a9466d43dc0b9bd4d34c6513a0333dcb424177002207debd21e97ab89d0e90ee39a874cdadefec6bab34217722900318b3c9f1c83c7[ALL] 0292f5fa527ce2de3f517824fc53b84025bf45cbe69fe45c885e3eb09f37841ab4"}, "vout": 25, "txid": "585f5bac35d9bf71f7c5ae318d8cd0b265c52bb92b3f79a98fad333d35566818"}], "txid": "1d0e1a4113ed64901d99da683d81b82480ad888c2ac34e9ba14ef65b9c3186d3", "blocktime": 1537874412, "version": 1, "confirmations": 11467, "time": 1537874412, "locktime": 0, "vsize": 224, "size": 224}