{"hash": "1d1988b5c1f221f816923761833025600e82c0b1305b949a8040e452639661d8", "blockhash": "00000000000000000018f53835495a110e01622372bf6ae95dc86f2b0ab887b0", "vout": [{"scriptPubKey": {"reqSigs": 1, "hex": "a91493580430a59fa794e6168bb9dbfb2eb09e8904e187", "addresses": ["3F86hE8gGTHv7XAtb4phasQKf9emfnMJHD"], "asm": "OP_HASH160 93580430a59fa794e6168bb9dbfb2eb09e8904e1 OP_EQUAL", "type": "scripthash"}, "value": 0.00312404, "n": 0}, {"scriptPubKey": {"reqSigs": 1, "hex": "00140dc413f4ea97a8c9ac25440f94cc5312b81ae003", "addresses": ["bc1qphzp8a82j75vntp9gs8efnznz2up4cqr2unrcv"], "asm": "0 0dc413f4ea97a8c9ac25440f94cc5312b81ae003", "type": "witness_v0_keyhash"}, "value": 0.0001224, "n": 1}], "hex": "01000000014fcf7bd2f569a593734a2ea3819b4c8e80f9e2515503adde8bff7728a4537031520000006a47304402204f500b99fcce8748518f069279608f021ac48e9fac859c61c28539244427d36c02200d4ff67a916bec9a290a06fa59e7755b89cbc0e8d0cb052c5c01a69d37aea68b012103b88f6e17584a21d737d6763d5a11256ade780f0a998a1405db0799123e2717d3ffffffff0254c404000000000017a91493580430a59fa794e6168bb9dbfb2eb09e8904e187d02f0000000000001600140dc413f4ea97a8c9ac25440f94cc5312b81ae00300000000", "vin": [{"sequence": 4294967295, "scriptSig": {"hex": "47304402204f500b99fcce8748518f069279608f021ac48e9fac859c61c28539244427d36c02200d4ff67a916bec9a290a06fa59e7755b89cbc0e8d0cb052c5c01a69d37aea68b012103b88f6e17584a21d737d6763d5a11256ade780f0a998a1405db0799123e2717d3", "asm": "304402204f500b99fcce8748518f069279608f021ac48e9fac859c61c28539244427d36c02200d4ff67a916bec9a290a06fa59e7755b89cbc0e8d0cb052c5c01a69d37aea68b[ALL] 03b88f6e17584a21d737d6763d5a11256ade780f0a998a1405db0799123e2717d3"}, "vout": 82, "txid": "317053a42877ff8bdead035551e2f9808e4c9b81a32e4a7393a569f5d27bcf4f"}], "txid": "1d1988b5c1f221f816923761833025600e82c0b1305b949a8040e452639661d8", "blocktime": 1537870928, "version": 1, "confirmations": 11512, "time": 1537870928, "locktime": 0, "vsize": 220, "size": 220}