{"hash": "1d1a61d8d3e23c2704a4ee417bcb061b14caef60272583a8112ebb1588202d89", "blockhash": "000000000000000000022b45ed06c6f4ccd3cf7fb5ba4856ebd2e58215665228", "vout": [{"scriptPubKey": {"type": "nulldata", "hex": "6a146f6d6e69000000000000001f00000004a817c800", "asm": "OP_RETURN 6f6d6e69000000000000001f00000004a817c800"}, "value": 0.0, "n": 0}, {"scriptPubKey": {"reqSigs": 1, "hex": "76a914c66e621ab7d0416ebc17e542487a09ee7999f2bc88ac", "addresses": ["1K6D2YViKRXx6zPWkhpA9wiNkW86ETfxUv"], "asm": "OP_DUP OP_HASH160 c66e621ab7d0416ebc17e542487a09ee7999f2bc OP_EQUALVERIFY OP_CHECKSIG", "type": "pubkeyhash"}, "value": 0.00497476, "n": 1}, {"scriptPubKey": {"reqSigs": 1, "hex": "76a914a25dec4d0011064ef106a983c39c7a540699f22088ac", "addresses": ["1FoWyxwPXuj4C6abqwhjDWdz6D4PZgYRjA"], "asm": "OP_DUP OP_HASH160 a25dec4d0011064ef106a983c39c7a540699f220 OP_EQUALVERIFY OP_CHECKSIG", "type": "pubkeyhash"}, "value": 5.46e-06, "n": 2}], "hex": "01000000022392c599f810a835618761e2126a1a03264682083464e28a8bc69d71e90a82f6020000006b483045022100928bda050faac0c9ae22c5cc80307162d52b105b2d41bd6ec388c586f18b5fdc022053073931e2205d34ca2776759d6338852e62ab59790190a290b24507e2cc49ab0121021c60955e1ef27aae70c15ce3b9929c71bcac0e01e2f37714e9e0f60e19671eb1feffffff94a556c455e42dfc6c171df9b744816728d49014d1732321e7278ab08b0e35ee010000006b483045022100befc75d98f3a4c187948e7b7bb2f199406aacfd113652b89e7c31c1e0466beb50220398d7380fc5b4fcfeb383c766e871df470918758f28fceccbdee2abf2172820c0121021c60955e1ef27aae70c15ce3b9929c71bcac0e01e2f37714e9e0f60e19671eb1feffffff030000000000000000166a146f6d6e69000000000000001f00000004a817c80044970700000000001976a914c66e621ab7d0416ebc17e542487a09ee7999f2bc88ac22020000000000001976a914a25dec4d0011064ef106a983c39c7a540699f22088ac0b490800", "vin": [{"sequence": 4294967294, "scriptSig": {"hex": "483045022100928bda050faac0c9ae22c5cc80307162d52b105b2d41bd6ec388c586f18b5fdc022053073931e2205d34ca2776759d6338852e62ab59790190a290b24507e2cc49ab0121021c60955e1ef27aae70c15ce3b9929c71bcac0e01e2f37714e9e0f60e19671eb1", "asm": "3045022100928bda050faac0c9ae22c5cc80307162d52b105b2d41bd6ec388c586f18b5fdc022053073931e2205d34ca2776759d6338852e62ab59790190a290b24507e2cc49ab[ALL] 021c60955e1ef27aae70c15ce3b9929c71bcac0e01e2f37714e9e0f60e19671eb1"}, "vout": 2, "txid": "f6820ae9719dc68b8ae2643408824626031a6a12e261876135a810f899c59223"}, {"sequence": 4294967294, "scriptSig": {"hex": "483045022100befc75d98f3a4c187948e7b7bb2f199406aacfd113652b89e7c31c1e0466beb50220398d7380fc5b4fcfeb383c766e871df470918758f28fceccbdee2abf2172820c0121021c60955e1ef27aae70c15ce3b9929c71bcac0e01e2f37714e9e0f60e19671eb1", "asm": "3045022100befc75d98f3a4c187948e7b7bb2f199406aacfd113652b89e7c31c1e0466beb50220398d7380fc5b4fcfeb383c766e871df470918758f28fceccbdee2abf2172820c[ALL] 021c60955e1ef27aae70c15ce3b9929c71bcac0e01e2f37714e9e0f60e19671eb1"}, "vout": 1, "txid": "ee350e8bb08a27e7212373d11490d428678144b7f91d176cfc2de455c456a594"}], "txid": "1d1a61d8d3e23c2704a4ee417bcb061b14caef60272583a8112ebb1588202d89", "blocktime": 1537869901, "version": 1, "confirmations": 11524, "time": 1537869901, "locktime": 542987, "vsize": 405, "size": 405}