{"hash": "1d26f9c6da8ad0ef40de77eb85ffd649eda6b2296179859bb9041e2049916426", "blockhash": "00000000000000000018f53835495a110e01622372bf6ae95dc86f2b0ab887b0", "vout": [{"scriptPubKey": {"reqSigs": 1, "hex": "76a914987e716faac64047b4eb2ddfffe1b83d8df309c988ac", "addresses": ["1EuKBacZSziawrCEnQcoWEKjiL6vAP8TUi"], "asm": "OP_DUP OP_HASH160 987e716faac64047b4eb2ddfffe1b83d8df309c9 OP_EQUALVERIFY OP_CHECKSIG", "type": "pubkeyhash"}, "value": 0.70458456, "n": 0}], "hex": "01000000028e039b989ad0c0b96b61191dc7c78734eb8e7d621523f17ba7132e59aeb3b2a3080000006b483045022100a659bef1245352d76093be26d49b21c8ba2f5b80c8893e8bda029aeb014405580220702b807d4d4cbe254a1e02df1672b73dfc0aeb878e6cc6a70861d1ca4b6117b70121027a2b02671869b21fa49e3989f4cf45a716fefe4279ca0a3b86aeaafc5caf5e98ffffffffd24a43e700ec91ef97ed876039b6364c099033e435ab384d6a7fca61f75494f6020000006b483045022100bde7f9d8f51f9e3685eca2facacfe5f1d26e37e7fbf4055ea5163a99b149257b02205b2a4c4fbd0b631e8e0d3a43980bcedbd81f2380e60ac877ea693d844ad9316f0121027a2b02671869b21fa49e3989f4cf45a716fefe4279ca0a3b86aeaafc5caf5e98ffffffff01581c3304000000001976a914987e716faac64047b4eb2ddfffe1b83d8df309c988ac00000000", "vin": [{"sequence": 4294967295, "scriptSig": {"hex": "483045022100a659bef1245352d76093be26d49b21c8ba2f5b80c8893e8bda029aeb014405580220702b807d4d4cbe254a1e02df1672b73dfc0aeb878e6cc6a70861d1ca4b6117b70121027a2b02671869b21fa49e3989f4cf45a716fefe4279ca0a3b86aeaafc5caf5e98", "asm": "3045022100a659bef1245352d76093be26d49b21c8ba2f5b80c8893e8bda029aeb014405580220702b807d4d4cbe254a1e02df1672b73dfc0aeb878e6cc6a70861d1ca4b6117b7[ALL] 027a2b02671869b21fa49e3989f4cf45a716fefe4279ca0a3b86aeaafc5caf5e98"}, "vout": 8, "txid": "a3b2b3ae592e13a77bf12315627d8eeb3487c7c71d19616bb9c0d09a989b038e"}, {"sequence": 4294967295, "scriptSig": {"hex": "483045022100bde7f9d8f51f9e3685eca2facacfe5f1d26e37e7fbf4055ea5163a99b149257b02205b2a4c4fbd0b631e8e0d3a43980bcedbd81f2380e60ac877ea693d844ad9316f0121027a2b02671869b21fa49e3989f4cf45a716fefe4279ca0a3b86aeaafc5caf5e98", "asm": "3045022100bde7f9d8f51f9e3685eca2facacfe5f1d26e37e7fbf4055ea5163a99b149257b02205b2a4c4fbd0b631e8e0d3a43980bcedbd81f2380e60ac877ea693d844ad9316f[ALL] 027a2b02671869b21fa49e3989f4cf45a716fefe4279ca0a3b86aeaafc5caf5e98"}, "vout": 2, "txid": "f69454f761ca7f6a4d38ab35e43390094c36b6396087ed97ef91ec00e7434ad2"}], "txid": "1d26f9c6da8ad0ef40de77eb85ffd649eda6b2296179859bb9041e2049916426", "blocktime": 1537870928, "version": 1, "confirmations": 11512, "time": 1537870928, "locktime": 0, "vsize": 340, "size": 340}