{"hash": "1d2adb1379f3a04d8fafa3f73a6e0c8544db45ff84deb9eed85886ec5bb1e320", "blockhash": "00000000000000000024a2167bbff67b0be802c0b01cdd79e6331c2be6459f87", "vout": [{"scriptPubKey": {"reqSigs": 1, "hex": "76a9145df08f8f1f9b17e86d9dfaeed27f8f3b4d3fc12b88ac", "addresses": ["19Zi2JB2Tq7coGebiGZ8aJuxY1G5Cm6Ehc"], "asm": "OP_DUP OP_HASH160 5df08f8f1f9b17e86d9dfaeed27f8f3b4d3fc12b OP_EQUALVERIFY OP_CHECKSIG", "type": "pubkeyhash"}, "value": 0.01366729, "n": 0}, {"scriptPubKey": {"reqSigs": 1, "hex": "76a914ec0a486c1f19a8b607bd2060796dc761f511bfe188ac", "addresses": ["1NX4njweaAGYRzMNMbfGu1LXijP1Ps5N65"], "asm": "OP_DUP OP_HASH160 ec0a486c1f19a8b607bd2060796dc761f511bfe1 OP_EQUALVERIFY OP_CHECKSIG", "type": "pubkeyhash"}, "value": 0.85845082, "n": 1}], "hex": "010000000d70616b04660a879d3103374c38a0e96e06336ec6b311c50e4ebf8e9323c53114010000006b483045022100e27734a729b339156b38e95ab311833541b261817f3be058e0a62f6af95ada9a02200820fafec7d9ecd990ebaf86a9a6527c5dbcabf541aa86fbaafd3d92bca323e0012103e8995b2afa3e1bb7a60f958d04147640c6b02d46bf6665400fcf44feccefadc8fffffffff235771e5825c628248725da2b4d5c9a453c123a6e753597512f9bc1dc169d1d010000006b483045022100cc0f015751ab698a16d30079a55c6c188a40b2cda0dcf3841ac65553d5f26bea02207f4bebbc9229d2f352ed8c2f8b14d101f492429c5b88936adccc9de7841e6179012103e8995b2afa3e1bb7a60f958d04147640c6b02d46bf6665400fcf44feccefadc8ffffffff970450b013c04a63e7d587557470192d6294d360a50bf76af0863798a992322d010000006a47304402203a4f8ff637a3d824945ae07e75fece7f8ab0ac22f3148c95ba0c39ec761c45cc02205c0f3b65dc07b2c5487add292dbef8f5ce483e0f28422940e99bf399ab7c4041012103e8995b2afa3e1bb7a60f958d04147640c6b02d46bf6665400fcf44feccefadc8fffffffff02a39df93bc549e3bfb2de3a2936d7802fd6787fad9eef3c48201de71b05b49000000006b483045022100952469d84dd44adb085ff6594967e69008014a02a143a52c725a624c789206a702203d0c1dd38df6dade387d665f0d1c4c55566e262f3cc3d537a304f58d34f8bd550121030107d3cbaa9c22106ec00a109ca16d3adb6aa713c2dbbf38165fecb2b1a1548affffffff3bf2903d3388c831b1b99a4e3aed580657aa9fb11f5dafeb234ecc51cbfdfa52000000006b483045022100c502e809d490b144c91c35b0cd7f88b1887d4731a7652a4b2969b38d0112abc502206d383523d8f2aec82eb6bb82ec1032c2a9fd3293ba0efa9b6dacfae648dd0c00012103e8995b2afa3e1bb7a60f958d04147640c6b02d46bf6665400fcf44feccefadc8ffffffff7957d8dcdbffde3ba725d61471000374d4da4c1a0dc45fe63d593bd4e6d71c55000000006b4830450221009f896d0bbda0699cf4aa8c6c478483acc7617360b3e4e2335a0ba9f2eab568cc02206617a45c348cac7b552c431c099689f1663e07896c4f5bad1d16db65467ebf81012103e8995b2afa3e1bb7a60f958d04147640c6b02d46bf6665400fcf44feccefadc8ffffffffa9b3032806318fd90c88af55cd0d813572ea94a9464b8ea2f4b21a561119f58c010000006a473044022047385211a8eb3e8c7c32801e746561a5caf4e89896331fcec11106e706db8b6a022021ed62861eccea7fb17107677382fb1d5549ab0f608bde01cb58a23ea456ece2012103e8995b2afa3e1bb7a60f958d04147640c6b02d46bf6665400fcf44feccefadc8ffffffff94c1a9ec968731055637b0baa333f3d01d90f770bf2556d6e6249fe32c8e32a7010000006a473044022036004117bf818ff6492d68011fcc0560696272fff67f7ff9095f0ced8a3680d7022042b10416120716dd74c0044d6f175602eb3b622ebfe165602b9de222129169b2012103e8995b2afa3e1bb7a60f958d04147640c6b02d46bf6665400fcf44feccefadc8ffffffff24d68ef5b29d2f70ea8aef9d017fa8c0b367f41c484b2663e94fb31ca5ed54b0000000006a473044022029214ffcb84b73fdd5456e11c7aa0ee269dbf3dfa1ef8c32a44071ed85f1b8fa022025ae135b5fabb031f0f29c01a7dea85d165da81b9ac0711173ced8b309030ca8012103e8995b2afa3e1bb7a60f958d04147640c6b02d46bf6665400fcf44feccefadc8ffffffffde88cde631e52c38c3238ec2c5c429dd69faf1fc34948f4138a7e4d9b5c459cc010000006a47304402203e317380e7a53c3dbdebf3537a345da9320afcc677acce24a82db186085a704f0220113f1f510e0082c43bd59b30a6339f297436c258a259f81b91ea344ae0d6ad29012102577ef185476877adfe6ae6aafe79978efde7c25d6b793566188980aec7abc30bffffffff4f3adfac960a3d7d0cc9f849b461884227e86e9160c9b198569addb0e96698d7000000006b483045022100aaa8a8d7ea969291e0de0232991c9b920e0f1b880c33badba401a31ae39650af02207c1297ef29f21f62b897b229eb38c789e77ce100560e847282edec9ebf205a77012103e8995b2afa3e1bb7a60f958d04147640c6b02d46bf6665400fcf44feccefadc8ffffffff44982f8b9efd6891141328624aeac09aaef866f37542d7cd922a15e0c2754ffa000000006b483045022100fd7a241df5b7c0380daa664aee303b5d647e2afde2a40d25a3f493dfe56180c602202d863d6113977508fbbd46f61262f39e9db24aeff642704533e23532d42975ce012102b8addcfa1dfc32969ab550067665e9cea9c9066b103f58796d1c96df0b5a4f07ffffffff6dea26ac2ec07f51c04e0c40a5aa821c1dc4002b5e9704010a4d667ab7a4e6fb010000006a4730440220515eb0e4c2bae0c2492fa3ca072bb48174b0531bec0ea28ccf6566a3545f34a9022019a052b40a2b70b58f3618150ed3e5a034e68ed21f7980328d188b8a392d0371012103e8995b2afa3e1bb7a60f958d04147640c6b02d46bf6665400fcf44feccefadc8ffffffff02c9da1400000000001976a9145df08f8f1f9b17e86d9dfaeed27f8f3b4d3fc12b88ac5ae41d05000000001976a914ec0a486c1f19a8b607bd2060796dc761f511bfe188ac00000000", "vin": [{"sequence": 4294967295, "scriptSig": {"hex": "483045022100e27734a729b339156b38e95ab311833541b261817f3be058e0a62f6af95ada9a02200820fafec7d9ecd990ebaf86a9a6527c5dbcabf541aa86fbaafd3d92bca323e0012103e8995b2afa3e1bb7a60f958d04147640c6b02d46bf6665400fcf44feccefadc8", "asm": "3045022100e27734a729b339156b38e95ab311833541b261817f3be058e0a62f6af95ada9a02200820fafec7d9ecd990ebaf86a9a6527c5dbcabf541aa86fbaafd3d92bca323e0[ALL] 03e8995b2afa3e1bb7a60f958d04147640c6b02d46bf6665400fcf44feccefadc8"}, "vout": 1, "txid": "1431c523938ebf4e0ec511b3c66e33066ee9a0384c3703319d870a66046b6170"}, {"sequence": 4294967295, "scriptSig": {"hex": "483045022100cc0f015751ab698a16d30079a55c6c188a40b2cda0dcf3841ac65553d5f26bea02207f4bebbc9229d2f352ed8c2f8b14d101f492429c5b88936adccc9de7841e6179012103e8995b2afa3e1bb7a60f958d04147640c6b02d46bf6665400fcf44feccefadc8", "asm": "3045022100cc0f015751ab698a16d30079a55c6c188a40b2cda0dcf3841ac65553d5f26bea02207f4bebbc9229d2f352ed8c2f8b14d101f492429c5b88936adccc9de7841e6179[ALL] 03e8995b2afa3e1bb7a60f958d04147640c6b02d46bf6665400fcf44feccefadc8"}, "vout": 1, "txid": "1d9d16dcc19b2f519735756e3a123c459a5c4d2bda25872428c625581e7735f2"}, {"sequence": 4294967295, "scriptSig": {"hex": "47304402203a4f8ff637a3d824945ae07e75fece7f8ab0ac22f3148c95ba0c39ec761c45cc02205c0f3b65dc07b2c5487add292dbef8f5ce483e0f28422940e99bf399ab7c4041012103e8995b2afa3e1bb7a60f958d04147640c6b02d46bf6665400fcf44feccefadc8", "asm": "304402203a4f8ff637a3d824945ae07e75fece7f8ab0ac22f3148c95ba0c39ec761c45cc02205c0f3b65dc07b2c5487add292dbef8f5ce483e0f28422940e99bf399ab7c4041[ALL] 03e8995b2afa3e1bb7a60f958d04147640c6b02d46bf6665400fcf44feccefadc8"}, "vout": 1, "txid": "2d3292a9983786f06af70ba560d394622d1970745587d5e7634ac013b0500497"}, {"sequence": 4294967295, "scriptSig": {"hex": "483045022100952469d84dd44adb085ff6594967e69008014a02a143a52c725a624c789206a702203d0c1dd38df6dade387d665f0d1c4c55566e262f3cc3d537a304f58d34f8bd550121030107d3cbaa9c22106ec00a109ca16d3adb6aa713c2dbbf38165fecb2b1a1548a", "asm": "3045022100952469d84dd44adb085ff6594967e69008014a02a143a52c725a624c789206a702203d0c1dd38df6dade387d665f0d1c4c55566e262f3cc3d537a304f58d34f8bd55[ALL] 030107d3cbaa9c22106ec00a109ca16d3adb6aa713c2dbbf38165fecb2b1a1548a"}, "vout": 0, "txid": "495bb071de0182c4f3eed9fa8767fd02786d93a2e32dfb3b9e54bc93df392af0"}, {"sequence": 4294967295, "scriptSig": {"hex": "483045022100c502e809d490b144c91c35b0cd7f88b1887d4731a7652a4b2969b38d0112abc502206d383523d8f2aec82eb6bb82ec1032c2a9fd3293ba0efa9b6dacfae648dd0c00012103e8995b2afa3e1bb7a60f958d04147640c6b02d46bf6665400fcf44feccefadc8", "asm": "3045022100c502e809d490b144c91c35b0cd7f88b1887d4731a7652a4b2969b38d0112abc502206d383523d8f2aec82eb6bb82ec1032c2a9fd3293ba0efa9b6dacfae648dd0c00[ALL] 03e8995b2afa3e1bb7a60f958d04147640c6b02d46bf6665400fcf44feccefadc8"}, "vout": 0, "txid": "52fafdcb51cc4e23ebaf5d1fb19faa570658ed3a4e9ab9b131c888333d90f23b"}, {"sequence": 4294967295, "scriptSig": {"hex": "4830450221009f896d0bbda0699cf4aa8c6c478483acc7617360b3e4e2335a0ba9f2eab568cc02206617a45c348cac7b552c431c099689f1663e07896c4f5bad1d16db65467ebf81012103e8995b2afa3e1bb7a60f958d04147640c6b02d46bf6665400fcf44feccefadc8", "asm": "30450221009f896d0bbda0699cf4aa8c6c478483acc7617360b3e4e2335a0ba9f2eab568cc02206617a45c348cac7b552c431c099689f1663e07896c4f5bad1d16db65467ebf81[ALL] 03e8995b2afa3e1bb7a60f958d04147640c6b02d46bf6665400fcf44feccefadc8"}, "vout": 0, "txid": "551cd7e6d43b593de65fc40d1a4cdad47403007114d625a73bdeffdbdcd85779"}, {"sequence": 4294967295, "scriptSig": {"hex": "473044022047385211a8eb3e8c7c32801e746561a5caf4e89896331fcec11106e706db8b6a022021ed62861eccea7fb17107677382fb1d5549ab0f608bde01cb58a23ea456ece2012103e8995b2afa3e1bb7a60f958d04147640c6b02d46bf6665400fcf44feccefadc8", "asm": "3044022047385211a8eb3e8c7c32801e746561a5caf4e89896331fcec11106e706db8b6a022021ed62861eccea7fb17107677382fb1d5549ab0f608bde01cb58a23ea456ece2[ALL] 03e8995b2afa3e1bb7a60f958d04147640c6b02d46bf6665400fcf44feccefadc8"}, "vout": 1, "txid": "8cf51911561ab2f4a28e4b46a994ea7235810dcd55af880cd98f31062803b3a9"}, {"sequence": 4294967295, "scriptSig": {"hex": "473044022036004117bf818ff6492d68011fcc0560696272fff67f7ff9095f0ced8a3680d7022042b10416120716dd74c0044d6f175602eb3b622ebfe165602b9de222129169b2012103e8995b2afa3e1bb7a60f958d04147640c6b02d46bf6665400fcf44feccefadc8", "asm": "3044022036004117bf818ff6492d68011fcc0560696272fff67f7ff9095f0ced8a3680d7022042b10416120716dd74c0044d6f175602eb3b622ebfe165602b9de222129169b2[ALL] 03e8995b2afa3e1bb7a60f958d04147640c6b02d46bf6665400fcf44feccefadc8"}, "vout": 1, "txid": "a7328e2ce39f24e6d65625bf70f7901dd0f333a3bab0375605318796eca9c194"}, {"sequence": 4294967295, "scriptSig": {"hex": "473044022029214ffcb84b73fdd5456e11c7aa0ee269dbf3dfa1ef8c32a44071ed85f1b8fa022025ae135b5fabb031f0f29c01a7dea85d165da81b9ac0711173ced8b309030ca8012103e8995b2afa3e1bb7a60f958d04147640c6b02d46bf6665400fcf44feccefadc8", "asm": "3044022029214ffcb84b73fdd5456e11c7aa0ee269dbf3dfa1ef8c32a44071ed85f1b8fa022025ae135b5fabb031f0f29c01a7dea85d165da81b9ac0711173ced8b309030ca8[ALL] 03e8995b2afa3e1bb7a60f958d04147640c6b02d46bf6665400fcf44feccefadc8"}, "vout": 0, "txid": "b054eda51cb34fe963264b481cf467b3c0a87f019def8aea702f9db2f58ed624"}, {"sequence": 4294967295, "scriptSig": {"hex": "47304402203e317380e7a53c3dbdebf3537a345da9320afcc677acce24a82db186085a704f0220113f1f510e0082c43bd59b30a6339f297436c258a259f81b91ea344ae0d6ad29012102577ef185476877adfe6ae6aafe79978efde7c25d6b793566188980aec7abc30b", "asm": "304402203e317380e7a53c3dbdebf3537a345da9320afcc677acce24a82db186085a704f0220113f1f510e0082c43bd59b30a6339f297436c258a259f81b91ea344ae0d6ad29[ALL] 02577ef185476877adfe6ae6aafe79978efde7c25d6b793566188980aec7abc30b"}, "vout": 1, "txid": "cc59c4b5d9e4a738418f9434fcf1fa69dd29c4c5c28e23c3382ce531e6cd88de"}, {"sequence": 4294967295, "scriptSig": {"hex": "483045022100aaa8a8d7ea969291e0de0232991c9b920e0f1b880c33badba401a31ae39650af02207c1297ef29f21f62b897b229eb38c789e77ce100560e847282edec9ebf205a77012103e8995b2afa3e1bb7a60f958d04147640c6b02d46bf6665400fcf44feccefadc8", "asm": "3045022100aaa8a8d7ea969291e0de0232991c9b920e0f1b880c33badba401a31ae39650af02207c1297ef29f21f62b897b229eb38c789e77ce100560e847282edec9ebf205a77[ALL] 03e8995b2afa3e1bb7a60f958d04147640c6b02d46bf6665400fcf44feccefadc8"}, "vout": 0, "txid": "d79866e9b0dd9a5698b1c960916ee827428861b449f8c90c7d3d0a96acdf3a4f"}, {"sequence": 4294967295, "scriptSig": {"hex": "483045022100fd7a241df5b7c0380daa664aee303b5d647e2afde2a40d25a3f493dfe56180c602202d863d6113977508fbbd46f61262f39e9db24aeff642704533e23532d42975ce012102b8addcfa1dfc32969ab550067665e9cea9c9066b103f58796d1c96df0b5a4f07", "asm": "3045022100fd7a241df5b7c0380daa664aee303b5d647e2afde2a40d25a3f493dfe56180c602202d863d6113977508fbbd46f61262f39e9db24aeff642704533e23532d42975ce[ALL] 02b8addcfa1dfc32969ab550067665e9cea9c9066b103f58796d1c96df0b5a4f07"}, "vout": 0, "txid": "fa4f75c2e0152a92cdd74275f366f8ae9ac0ea4a622813149168fd9e8b2f9844"}, {"sequence": 4294967295, "scriptSig": {"hex": "4730440220515eb0e4c2bae0c2492fa3ca072bb48174b0531bec0ea28ccf6566a3545f34a9022019a052b40a2b70b58f3618150ed3e5a034e68ed21f7980328d188b8a392d0371012103e8995b2afa3e1bb7a60f958d04147640c6b02d46bf6665400fcf44feccefadc8", "asm": "30440220515eb0e4c2bae0c2492fa3ca072bb48174b0531bec0ea28ccf6566a3545f34a9022019a052b40a2b70b58f3618150ed3e5a034e68ed21f7980328d188b8a392d0371[ALL] 03e8995b2afa3e1bb7a60f958d04147640c6b02d46bf6665400fcf44feccefadc8"}, "vout": 1, "txid": "fbe6a4b77a664d0a0104975e2b00c41d1c82aaa5400c4ec0517fc02eac26ea6d"}], "txid": "1d2adb1379f3a04d8fafa3f73a6e0c8544db45ff84deb9eed85886ec5bb1e320", "blocktime": 1537870564, "version": 1, "confirmations": 11515, "time": 1537870564, "locktime": 0, "vsize": 1996, "size": 1996}