{"hash": "1d334bcc4672069f22a089987a67573f503dc1397bcaa432b549bcab21e1e51a", "blockhash": "0000000000000000001cda96e906b7601b7a6fb1a3b62bca570a9e5d8f4b3de1", "vout": [{"scriptPubKey": {"reqSigs": 1, "hex": "a914e36a51c4863b7ffbc9635329836f2279be1efe1c87", "addresses": ["3NRUgHqFjR54eSxsJCFJnqGUUyuuB16mrp"], "asm": "OP_HASH160 e36a51c4863b7ffbc9635329836f2279be1efe1c OP_EQUAL", "type": "scripthash"}, "value": 1.1171, "n": 0}, {"scriptPubKey": {"reqSigs": 1, "hex": "a9148af0d2dad3d509d22e64153f495c1573cfa7d1e587", "addresses": ["3EMffjhYD9CnWZNNkzWPXcrtuZjeoc1dBi"], "asm": "OP_HASH160 8af0d2dad3d509d22e64153f495c1573cfa7d1e5 OP_EQUAL", "type": "scripthash"}, "value": 0.90732097, "n": 1}], "hex": "01000000014034d7ccb4b32e65f0c73f65d355f2a45f121084258601995c22871e9dc8146e01000000fd410100483045022100893104d8f70eb2a4ffb88b576bbc086c07702fa8adfdbc52bd488030c1c03a67022066c56730f7ccca5956c3e381aa0ff305d458c1c3023e533e6c323d46782c995d014730440220239963b981d14df73e29ab608f85825a43e1a4e8598e086bf6cbb6029c7be57e022062cb198fea93c0b801b3b2956452d3055ab304e5da9d80005fcfbed2579ee1ad014cad5221024fe177170eba44360896633b78caaf1d6b5fed3820a3703d4cf98c698b643edc210307b88240f18dbdb4f85a2a80349bb9a3c4c1b205ba58dc90046484baeff59ea22103a077013d6f9dba5ff627fee7ec69db9e5622f77a399869a4751fdbca1b9968212103d4366ce1b9709f7c54bb9a59893c1b68377718bd1a54bea66ca85112d037a0702103f4ab9877a64f0ee4bb7326d72c41143f5aab5687a17ae7bea671d2c98cbea1cd55aeffffffff02308fa8060000000017a914e36a51c4863b7ffbc9635329836f2279be1efe1c87417668050000000017a9148af0d2dad3d509d22e64153f495c1573cfa7d1e58700000000", "vin": [{"sequence": 4294967295, "scriptSig": {"hex": "00483045022100893104d8f70eb2a4ffb88b576bbc086c07702fa8adfdbc52bd488030c1c03a67022066c56730f7ccca5956c3e381aa0ff305d458c1c3023e533e6c323d46782c995d014730440220239963b981d14df73e29ab608f85825a43e1a4e8598e086bf6cbb6029c7be57e022062cb198fea93c0b801b3b2956452d3055ab304e5da9d80005fcfbed2579ee1ad014cad5221024fe177170eba44360896633b78caaf1d6b5fed3820a3703d4cf98c698b643edc210307b88240f18dbdb4f85a2a80349bb9a3c4c1b205ba58dc90046484baeff59ea22103a077013d6f9dba5ff627fee7ec69db9e5622f77a399869a4751fdbca1b9968212103d4366ce1b9709f7c54bb9a59893c1b68377718bd1a54bea66ca85112d037a0702103f4ab9877a64f0ee4bb7326d72c41143f5aab5687a17ae7bea671d2c98cbea1cd55ae", "asm": "0 3045022100893104d8f70eb2a4ffb88b576bbc086c07702fa8adfdbc52bd488030c1c03a67022066c56730f7ccca5956c3e381aa0ff305d458c1c3023e533e6c323d46782c995d[ALL] 30440220239963b981d14df73e29ab608f85825a43e1a4e8598e086bf6cbb6029c7be57e022062cb198fea93c0b801b3b2956452d3055ab304e5da9d80005fcfbed2579ee1ad[ALL] 5221024fe177170eba44360896633b78caaf1d6b5fed3820a3703d4cf98c698b643edc210307b88240f18dbdb4f85a2a80349bb9a3c4c1b205ba58dc90046484baeff59ea22103a077013d6f9dba5ff627fee7ec69db9e5622f77a399869a4751fdbca1b9968212103d4366ce1b9709f7c54bb9a59893c1b68377718bd1a54bea66ca85112d037a0702103f4ab9877a64f0ee4bb7326d72c41143f5aab5687a17ae7bea671d2c98cbea1cd55ae"}, "vout": 1, "txid": "6e14c89d1e87225c990186258410125fa4f255d3653fc7f0652eb3b4ccd73440"}], "txid": "1d334bcc4672069f22a089987a67573f503dc1397bcaa432b549bcab21e1e51a", "blocktime": 1537873282, "version": 1, "confirmations": 11481, "time": 1537873282, "locktime": 0, "vsize": 438, "size": 438}