{"hash": "1d462bebb0f279a56ded9460cf53683455351420dd54902ad75c88c37a231486", "blockhash": "0000000000000000001cda96e906b7601b7a6fb1a3b62bca570a9e5d8f4b3de1", "vout": [{"scriptPubKey": {"reqSigs": 1, "hex": "76a914a65c6754ff03a54ca968b7130ccb2ef03c0b018f88ac", "addresses": ["1GAdsAMpMSSjfSGDAi8G2kofQv9WXCF9Zf"], "asm": "OP_DUP OP_HASH160 a65c6754ff03a54ca968b7130ccb2ef03c0b018f OP_EQUALVERIFY OP_CHECKSIG", "type": "pubkeyhash"}, "value": 0.006572, "n": 0}, {"scriptPubKey": {"reqSigs": 1, "hex": "76a914244b3a6adc22be4b79c48df6531f320c4cd1101788ac", "addresses": ["14JuSrSR98EtLPN15Cggv1q49ZmwSPViGt"], "asm": "OP_DUP OP_HASH160 244b3a6adc22be4b79c48df6531f320c4cd11017 OP_EQUALVERIFY OP_CHECKSIG", "type": "pubkeyhash"}, "value": 0.00010542, "n": 1}], "hex": "01000000015d20888edfb6e4b02226aef1211245501c7590437ffb22fbadb530e51c74ce4e010000006b483045022100fb774f0dfb00e1b5948e64cde150f7659eaf53983b5b88cf2f44885b44ce7b9a022055a08995b17f37ce6ad15d5a5cffb69a63bc1cc064cb0c10d6cc902e4f8c8772012102ec54f83c27dafcbb4462a8ca4a718af787b7819bcbb01432cb4c85c231e88a2effffffff0230070a00000000001976a914a65c6754ff03a54ca968b7130ccb2ef03c0b018f88ac2e290000000000001976a914244b3a6adc22be4b79c48df6531f320c4cd1101788ac00000000", "vin": [{"sequence": 4294967295, "scriptSig": {"hex": "483045022100fb774f0dfb00e1b5948e64cde150f7659eaf53983b5b88cf2f44885b44ce7b9a022055a08995b17f37ce6ad15d5a5cffb69a63bc1cc064cb0c10d6cc902e4f8c8772012102ec54f83c27dafcbb4462a8ca4a718af787b7819bcbb01432cb4c85c231e88a2e", "asm": "3045022100fb774f0dfb00e1b5948e64cde150f7659eaf53983b5b88cf2f44885b44ce7b9a022055a08995b17f37ce6ad15d5a5cffb69a63bc1cc064cb0c10d6cc902e4f8c8772[ALL] 02ec54f83c27dafcbb4462a8ca4a718af787b7819bcbb01432cb4c85c231e88a2e"}, "vout": 1, "txid": "4ece741ce530b5adfb22fb7f4390751c50451221f1ae2622b0e4b6df8e88205d"}], "txid": "1d462bebb0f279a56ded9460cf53683455351420dd54902ad75c88c37a231486", "blocktime": 1537873282, "version": 1, "confirmations": 11485, "time": 1537873282, "locktime": 0, "vsize": 226, "size": 226}