{"hash": "1d4dbbf20d6fcbce6591fbaa3280cbdfc39e1b165347331e12889fda393616cc", "blockhash": "0000000000000000000dcc0f55137456b1a82d3642486a52398922ac4d620174", "vout": [{"scriptPubKey": {"reqSigs": 1, "hex": "76a914569869a62e1d7617bd0e3868573dedaf1582989288ac", "addresses": ["18tshKP52iDRofCbqGgrfdpiPdZov6RRJL"], "asm": "OP_DUP OP_HASH160 569869a62e1d7617bd0e3868573dedaf15829892 OP_EQUALVERIFY OP_CHECKSIG", "type": "pubkeyhash"}, "value": 0.03119572, "n": 0}, {"scriptPubKey": {"reqSigs": 1, "hex": "a9143fb631b136d1e77f2eadc63a2b3878ee6910e64e87", "addresses": ["37VtkhRbfd8wH2wtfhpP3AHPNQ4vV46agb"], "asm": "OP_HASH160 3fb631b136d1e77f2eadc63a2b3878ee6910e64e OP_EQUAL", "type": "scripthash"}, "value": 0.16262, "n": 1}], "hex": "0100000002ac9b0c7dde80373988cdc57c7b74c5709c4182a7842954424ee6086deeb11f89000000006a4730440220158b52f03ada183c4b7fe0303c163ef01ba7f2903c902f5533f6ff3222fcd03202202964c637036be314a1068dd2ddec87c6a816c1ff571280f05a4665c82a58986501210260c6443d7ab0fb67bc54adc9f41c72dc25323c17f7fcc5f7f5b2ce827990394effffffff271d3e034c04f5d21d21a49779363e61140f992b2872502cdf1b7bab35d326c9010000006a473044022033502a2f54b3ec437900a29fc34b4cb76c01ef9f33d038589f1460533bb3abf2022071fb3f0dd6ef773e43b4a5d8cbf08f0ece645b15580cbdb7e723b14a2a5b4e0c0121028842e020a5ad43898f92d2c6b58f38499257238b15c111b74475f3b40d33bba9ffffffff02d4992f00000000001976a914569869a62e1d7617bd0e3868573dedaf1582989288ac7023f8000000000017a9143fb631b136d1e77f2eadc63a2b3878ee6910e64e8700000000", "vin": [{"sequence": 4294967295, "scriptSig": {"hex": "4730440220158b52f03ada183c4b7fe0303c163ef01ba7f2903c902f5533f6ff3222fcd03202202964c637036be314a1068dd2ddec87c6a816c1ff571280f05a4665c82a58986501210260c6443d7ab0fb67bc54adc9f41c72dc25323c17f7fcc5f7f5b2ce827990394e", "asm": "30440220158b52f03ada183c4b7fe0303c163ef01ba7f2903c902f5533f6ff3222fcd03202202964c637036be314a1068dd2ddec87c6a816c1ff571280f05a4665c82a589865[ALL] 0260c6443d7ab0fb67bc54adc9f41c72dc25323c17f7fcc5f7f5b2ce827990394e"}, "vout": 0, "txid": "891fb1ee6d08e64e42542984a782419c70c5747b7cc5cd88393780de7d0c9bac"}, {"sequence": 4294967295, "scriptSig": {"hex": "473044022033502a2f54b3ec437900a29fc34b4cb76c01ef9f33d038589f1460533bb3abf2022071fb3f0dd6ef773e43b4a5d8cbf08f0ece645b15580cbdb7e723b14a2a5b4e0c0121028842e020a5ad43898f92d2c6b58f38499257238b15c111b74475f3b40d33bba9", "asm": "3044022033502a2f54b3ec437900a29fc34b4cb76c01ef9f33d038589f1460533bb3abf2022071fb3f0dd6ef773e43b4a5d8cbf08f0ece645b15580cbdb7e723b14a2a5b4e0c[ALL] 028842e020a5ad43898f92d2c6b58f38499257238b15c111b74475f3b40d33bba9"}, "vout": 1, "txid": "c926d335ab7b1bdf2c5072282b990f14613e367997a4211dd2f5044c033e1d27"}], "txid": "1d4dbbf20d6fcbce6591fbaa3280cbdfc39e1b165347331e12889fda393616cc", "blocktime": 1537870268, "version": 1, "confirmations": 11518, "time": 1537870268, "locktime": 0, "vsize": 370, "size": 370}