{"hash": "13bae0b48dec40c433635bee3763f91eb842c9ce669490de7077a764d05e53c2", "blockhash": "0000000000000000001f76057863aec43deb6fa401d9628bb513d65a8098bfab", "vout": [{"scriptPubKey": {"reqSigs": 1, "hex": "a9147985e4bdfcd7de6ad387abb48607f3ba8f64e58e87", "addresses": ["3Cma5qhGt2DMbRCTj1pgkeBUrdAE16K9tC"], "asm": "OP_HASH160 7985e4bdfcd7de6ad387abb48607f3ba8f64e58e OP_EQUAL", "type": "scripthash"}, "value": 0.00021546, "n": 0}, {"scriptPubKey": {"reqSigs": 1, "hex": "a9145716614213b876f693704430f9eaa70206292c7e87", "addresses": ["39dVXDXJVoV1XhqL8SBg4PvTGtBy6omfst"], "asm": "OP_HASH160 5716614213b876f693704430f9eaa70206292c7e OP_EQUAL", "type": "scripthash"}, "value": 0.00796571, "n": 1}], "hex": "01000000000101c47b12ee59ae6c985cb0aa85fff5a513d1bd54a525762c208df07508c007674a01000000232200203eeefd38a5fa49102c135c4876d8255975a66b5ffd9128399f80a8f996c2083fffffffff022a5400000000000017a9147985e4bdfcd7de6ad387abb48607f3ba8f64e58e879b270c000000000017a9145716614213b876f693704430f9eaa70206292c7e870400483045022100d79aee37889b1d0846ed19b590cadb4b21988a1a32a4a8c234cbce3179d27b0202200ebcd62b131ec936fce71d86d8438b9d796d417f48455d33be396a78134e43dd0147304402206668b6528fabbbeda1095bcdd0076649d958ffffe8d14a8008032a62f9af779a022044df93abcd379978320ac2309f957b21b83e96f8aa0c79bdb7a2a591d90ccb250147522102b3ff5ee21e442db3e9b7723a139841bb347c5cd2ef80d094d699b6927af8863a21030580d373ab00643a581abb399b43fa66d7b6fc29624eb75b2d5ec8d99faa163f52ae00000000", "vin": [{"txinwitness": ["", "3045022100d79aee37889b1d0846ed19b590cadb4b21988a1a32a4a8c234cbce3179d27b0202200ebcd62b131ec936fce71d86d8438b9d796d417f48455d33be396a78134e43dd01", "304402206668b6528fabbbeda1095bcdd0076649d958ffffe8d14a8008032a62f9af779a022044df93abcd379978320ac2309f957b21b83e96f8aa0c79bdb7a2a591d90ccb2501", "522102b3ff5ee21e442db3e9b7723a139841bb347c5cd2ef80d094d699b6927af8863a21030580d373ab00643a581abb399b43fa66d7b6fc29624eb75b2d5ec8d99faa163f52ae"], "sequence": 4294967295, "scriptSig": {"hex": "2200203eeefd38a5fa49102c135c4876d8255975a66b5ffd9128399f80a8f996c2083f", "asm": "00203eeefd38a5fa49102c135c4876d8255975a66b5ffd9128399f80a8f996c2083f"}, "vout": 1, "txid": "4a6707c00875f08d202c7625a554bdd113a5f5ff85aab05c986cae59ee127bc4"}], "txid": "1d505b0de9d5d09de949cd57457a59f6146c8e82d869f2e27d28be6279df508c", "blocktime": 1537873891, "version": 1, "confirmations": 11478, "time": 1537873891, "locktime": 0, "vsize": 206, "size": 371}