{"hash": "e59f058124cfd855f0141a3e40bba30084a3a3f188aacb61a79c2900b9878eb7", "blockhash": "0000000000000000000e13cef7c366c0283d82e591d1acd082e914b08063cdf1", "vout": [{"scriptPubKey": {"reqSigs": 1, "hex": "0014306d857360996fb85d6cca74adb393f6d5ba95f2", "addresses": ["bc1qxpkc2umqn9hmshtvef62mvun7m2m490jrwgqt6"], "asm": "0 306d857360996fb85d6cca74adb393f6d5ba95f2", "type": "witness_v0_keyhash"}, "value": 0.41099003, "n": 0}, {"scriptPubKey": {"reqSigs": 1, "hex": "a914f05554122cc2964b822e1882ffe27cdef1dcb20a87", "addresses": ["3PbnKJcCwbikfhx6WRLmaf6Q6ju5Ssb3jj"], "asm": "OP_HASH160 f05554122cc2964b822e1882ffe27cdef1dcb20a OP_EQUAL", "type": "scripthash"}, "value": 0.0306341, "n": 1}], "hex": "010000000001013790688d76cb2255e2347c6d6b83914106877f5b91aca325c7969f8346c7b8ce0000000000ffffffff02fb1e730200000000160014306d857360996fb85d6cca74adb393f6d5ba95f272be2e000000000017a914f05554122cc2964b822e1882ffe27cdef1dcb20a87024730440220131583314139571992ce9a623c597a8ee0a4a2bba1ea1cb5e6ec82d310d11279022014f7603036a64977c72c208600e87288e9337e6c2db0c11c2f80bc164f98680a012103b3bbda17f2913f9896722037eb64c30eafed806378c3974c66449562b5354c1100000000", "vin": [{"txinwitness": ["30440220131583314139571992ce9a623c597a8ee0a4a2bba1ea1cb5e6ec82d310d11279022014f7603036a64977c72c208600e87288e9337e6c2db0c11c2f80bc164f98680a01", "03b3bbda17f2913f9896722037eb64c30eafed806378c3974c66449562b5354c11"], "sequence": 4294967295, "scriptSig": {"hex": "", "asm": ""}, "vout": 0, "txid": "ceb8c746839f96c725a3ac915b7f87064191836b6d7c34e25522cb768d689037"}], "txid": "1d5385d15ae679757e4d8e8a2aeedf6c14f762f94dd824971ac97f4c4685a8af", "blocktime": 1537871767, "version": 1, "confirmations": 11495, "time": 1537871767, "locktime": 0, "vsize": 142, "size": 223}