{"hash": "1d5f5d809b48ce9faf7241540d4ac97f223bad6d58142c6563abc6d3ffed5fa3", "blockhash": "0000000000000000000e13cef7c366c0283d82e591d1acd082e914b08063cdf1", "vout": [{"scriptPubKey": {"type": "nulldata", "hex": "6a4c50000077a50001cbb205e5d82553f51ee4a0c3af6c953dd567cf27e7e3ef3236678a6250971726b13df038a3ece4a19bad472bfa265baa0efa0614574a5cb5650d1d100759d4ba30d2c37bb011d97e02cf", "asm": "OP_RETURN 000077a50001cbb205e5d82553f51ee4a0c3af6c953dd567cf27e7e3ef3236678a6250971726b13df038a3ece4a19bad472bfa265baa0efa0614574a5cb5650d1d100759d4ba30d2c37bb011d97e02cf"}, "value": 0.0, "n": 0}, {"scriptPubKey": {"reqSigs": 1, "hex": "76a914936af7a00dbf4bad069c8e2e086d37ad58b17bd988ac", "addresses": ["1ESUUR9m1gjJjKjwNVDdMvd5W3jtKKyyUc"], "asm": "OP_DUP OP_HASH160 936af7a00dbf4bad069c8e2e086d37ad58b17bd9 OP_EQUALVERIFY OP_CHECKSIG", "type": "pubkeyhash"}, "value": 0.00643916, "n": 1}], "hex": "0100000001d2126e0ab9fec17198e6663df59759cd5bee05994b90875389fc611f1dce2f26000000006b48304502210096e701fd346a07b8efa33ce5fcb1e7aec115ef8ddb775d6ba90c33893520288d022006bdf4b6ef3e320e594a1b6a5bb619dc4f71933d4bb7a00b943a082236318e2e0121023582a22a36f0986f868a3911a42d1ea75bba68965048347935df2ab049b6e82affffffff020000000000000000536a4c50000077a50001cbb205e5d82553f51ee4a0c3af6c953dd567cf27e7e3ef3236678a6250971726b13df038a3ece4a19bad472bfa265baa0efa0614574a5cb5650d1d100759d4ba30d2c37bb011d97e02cf4cd30900000000001976a914936af7a00dbf4bad069c8e2e086d37ad58b17bd988ac00000000", "vin": [{"sequence": 4294967295, "scriptSig": {"hex": "48304502210096e701fd346a07b8efa33ce5fcb1e7aec115ef8ddb775d6ba90c33893520288d022006bdf4b6ef3e320e594a1b6a5bb619dc4f71933d4bb7a00b943a082236318e2e0121023582a22a36f0986f868a3911a42d1ea75bba68965048347935df2ab049b6e82a", "asm": "304502210096e701fd346a07b8efa33ce5fcb1e7aec115ef8ddb775d6ba90c33893520288d022006bdf4b6ef3e320e594a1b6a5bb619dc4f71933d4bb7a00b943a082236318e2e[ALL] 023582a22a36f0986f868a3911a42d1ea75bba68965048347935df2ab049b6e82a"}, "vout": 0, "txid": "262fce1d1f61fc895387904b9905ee5bcd5997f53d66e69871c1feb90a6e12d2"}], "txid": "1d5f5d809b48ce9faf7241540d4ac97f223bad6d58142c6563abc6d3ffed5fa3", "blocktime": 1537871767, "version": 1, "confirmations": 11495, "time": 1537871767, "locktime": 0, "vsize": 284, "size": 284}