{"hash": "e406178b63ab46cff4332390bc63abf7eea6ed995bd8a7657740a61c42ae1e52", "blockhash": "0000000000000000000e13cef7c366c0283d82e591d1acd082e914b08063cdf1", "vout": [{"scriptPubKey": {"reqSigs": 1, "hex": "a914c24ac277e71ad7e3330e8e06cecd99ac139bb95987", "addresses": ["3KQLa9eMD3ZzW8bPBsLcEK3Vxs1p8j7Wot"], "asm": "OP_HASH160 c24ac277e71ad7e3330e8e06cecd99ac139bb959 OP_EQUAL", "type": "scripthash"}, "value": 0.29731604, "n": 0}, {"scriptPubKey": {"reqSigs": 1, "hex": "76a9145e99df247048a5ec70daf9b9ace8fcc71625a79888ac", "addresses": ["19dCrDrr2tJAUSDJEyoaULVC3XsSaJpNVT"], "asm": "OP_DUP OP_HASH160 5e99df247048a5ec70daf9b9ace8fcc71625a798 OP_EQUALVERIFY OP_CHECKSIG", "type": "pubkeyhash"}, "value": 0.00221082, "n": 1}], "hex": "0200000000010120ed9c89664d297823acf1dd77a3e8979affe1ab4c87e0f96f7d01716e948f780100000017160014ae71bdc86d83d4086a1f808ce32b02bba084a3a3feffffff0214abc5010000000017a914c24ac277e71ad7e3330e8e06cecd99ac139bb959879a5f0300000000001976a9145e99df247048a5ec70daf9b9ace8fcc71625a79888ac02483045022100854e4a49cfce6b15ba567b52c13aca57b7bace3ddebdf876d12f74530aa9529202203fbafa82c0867cd526334d4709d6cf1b7c7df1b311b2282946232ba8f50b30dc0121027a75c86bc55e9d841357485d516af17b8870a1f9191e4a31f767b165c623e2a710490800", "vin": [{"txinwitness": ["3045022100854e4a49cfce6b15ba567b52c13aca57b7bace3ddebdf876d12f74530aa9529202203fbafa82c0867cd526334d4709d6cf1b7c7df1b311b2282946232ba8f50b30dc01", "027a75c86bc55e9d841357485d516af17b8870a1f9191e4a31f767b165c623e2a7"], "sequence": 4294967294, "scriptSig": {"hex": "160014ae71bdc86d83d4086a1f808ce32b02bba084a3a3", "asm": "0014ae71bdc86d83d4086a1f808ce32b02bba084a3a3"}, "vout": 1, "txid": "788f946e71017d6ff9e0874cabe1ff9a97e8a377ddf1ac2378294d66899ced20"}], "txid": "1d722f8d0a0a52c173db60542f31be404a0c178adbdb621fbf9bf238e413852f", "blocktime": 1537871767, "version": 2, "confirmations": 11495, "time": 1537871767, "locktime": 542992, "vsize": 168, "size": 250}