{"hash": "bff71022ff42062f110c3eb1d18c3ffd3a69f69e30ca210754be48137c9694d5", "blockhash": "0000000000000000000e13cef7c366c0283d82e591d1acd082e914b08063cdf1", "vout": [{"scriptPubKey": {"reqSigs": 1, "hex": "a914d3434db3680776a45034e91a7a33237015cef20a87", "addresses": ["3Lx58MH8PB2VGCux4tYmyFpzvDQxLenNgU"], "asm": "OP_HASH160 d3434db3680776a45034e91a7a33237015cef20a OP_EQUAL", "type": "scripthash"}, "value": 5.00940404, "n": 0}], "hex": "01000000000103cfc002b242c0cdaad6cce83e235ad01cd787da91234df803ddead2268afee500010000002322002000796160e6cbfb3e4dc34ba8517a68ed8d28e57f0e539f118e1a84ca3a1b0eabfffffffff5d80263d6f989c29414b9e7ffb8c1f5a6772f2c970b9b0852c4f2ed2082101300000000232200200517090c87ffff67977b01ab4315cc935626ff22674aacbeb1731a0ebfeb7bc7ffffffff27bbeb302fab83bed201a97f3d30438b7c558a6e632df3b6b9010593e424850c01000000232200203dbe01a853081befbdfca4065cfed503395aee4fafe073be646eb1cd5e1be075ffffffff0174bedb1d0000000017a914d3434db3680776a45034e91a7a33237015cef20a87040048304502210086570df110718f8774e93504f189dee90142d39d15d4071f05d25d468478a3e3022008aa8625d4fbd18db32bec76319d03ea8b5f90e67ffb6f7b4048e4d9cb89d72d01483045022100a367a75b9cb90405dba35b019c6632a254ce728e72e54a2fbb4403755f2add3b02201275ee5742c79a3ed06c39769352f9c8ad6c4bc1d504c028958dbdc3f8460f840169522102722ea2c8fd9175845de32c48f043f823d36af3f708c97b9aa61d3defa71cfbfb21039a5b5388e039a8ef4d30b65de99b860bf4cf62f20a0ac1f4edc5ba00399b98b42102f471cb7060a69913283fba2a4c8b80341968af77dad52127454c03d99861ab6a53ae0400483045022100a1f8778a6e9c34e23b001e494deec672ae30a0f8c2bc232b526d7f4643da7fec0220573570999af3aed4a0b9cfa6430d3bbb522c227b4679f53263175d31a7dce30e01483045022100919c4b15ba2db6f404349730c67cd5e4b1a51743d42d975a7062a416ce6b459202207a2a24fd2da341f940327322ebaffe30f20257912ea29051fb9d5af5ac581852016952210368a87767c7e1a5e485afd375f08f63fedba085729ed78488bc7eb7604b5f029b21030cd7e17bcc962c970b982d6f04ac4387132e3890ab2ced910fd593e2678fe15d210287e038e94306e6ee2370a68c931cd14da781234728fb6df63facf4662965822753ae0400483045022100e8d6560c06e8f14303a0da55ea7ccc7c18c3661a8ff43452176614dc5077110902205bfedcb9001d6257bcc67f7b2d3a6208ecf2fbc07da247ae82f0745fe891e6d901483045022100ddb3c494469db9d4b7f97886a8198d557581e7f23ed0be5bcdb12aa0478420f802202a866472481b66c502956df3ba426eccd3974baa61240314bf8583bc5bf65a520169522102735476797ee2105d8eb20f8fe5ef9dad427063e148b1ccd0ca30cc545af46234210306c44fdd6a2566adcd753e8a72b35ff5c477cd1b7ce7f26a055c803e22253e7d210261109f358585b07e1ea0874d041790d6b8f4c152192f06fe7de563fbfe77867553ae00000000", "vin": [{"txinwitness": ["", "304502210086570df110718f8774e93504f189dee90142d39d15d4071f05d25d468478a3e3022008aa8625d4fbd18db32bec76319d03ea8b5f90e67ffb6f7b4048e4d9cb89d72d01", "3045022100a367a75b9cb90405dba35b019c6632a254ce728e72e54a2fbb4403755f2add3b02201275ee5742c79a3ed06c39769352f9c8ad6c4bc1d504c028958dbdc3f8460f8401", "522102722ea2c8fd9175845de32c48f043f823d36af3f708c97b9aa61d3defa71cfbfb21039a5b5388e039a8ef4d30b65de99b860bf4cf62f20a0ac1f4edc5ba00399b98b42102f471cb7060a69913283fba2a4c8b80341968af77dad52127454c03d99861ab6a53ae"], "sequence": 4294967295, "scriptSig": {"hex": "22002000796160e6cbfb3e4dc34ba8517a68ed8d28e57f0e539f118e1a84ca3a1b0eab", "asm": "002000796160e6cbfb3e4dc34ba8517a68ed8d28e57f0e539f118e1a84ca3a1b0eab"}, "vout": 1, "txid": "00e5fe8a26d2eadd03f84d2391da87d71cd05a233ee8ccd6aacdc042b202c0cf"}, {"txinwitness": ["", "3045022100a1f8778a6e9c34e23b001e494deec672ae30a0f8c2bc232b526d7f4643da7fec0220573570999af3aed4a0b9cfa6430d3bbb522c227b4679f53263175d31a7dce30e01", "3045022100919c4b15ba2db6f404349730c67cd5e4b1a51743d42d975a7062a416ce6b459202207a2a24fd2da341f940327322ebaffe30f20257912ea29051fb9d5af5ac58185201", "52210368a87767c7e1a5e485afd375f08f63fedba085729ed78488bc7eb7604b5f029b21030cd7e17bcc962c970b982d6f04ac4387132e3890ab2ced910fd593e2678fe15d210287e038e94306e6ee2370a68c931cd14da781234728fb6df63facf4662965822753ae"], "sequence": 4294967295, "scriptSig": {"hex": "2200200517090c87ffff67977b01ab4315cc935626ff22674aacbeb1731a0ebfeb7bc7", "asm": "00200517090c87ffff67977b01ab4315cc935626ff22674aacbeb1731a0ebfeb7bc7"}, "vout": 0, "txid": "13108220edf2c452089b0b972c2f77a6f5c1b8ffe7b91494c289f9d66302d8f5"}, {"txinwitness": ["", "3045022100e8d6560c06e8f14303a0da55ea7ccc7c18c3661a8ff43452176614dc5077110902205bfedcb9001d6257bcc67f7b2d3a6208ecf2fbc07da247ae82f0745fe891e6d901", "3045022100ddb3c494469db9d4b7f97886a8198d557581e7f23ed0be5bcdb12aa0478420f802202a866472481b66c502956df3ba426eccd3974baa61240314bf8583bc5bf65a5201", "522102735476797ee2105d8eb20f8fe5ef9dad427063e148b1ccd0ca30cc545af46234210306c44fdd6a2566adcd753e8a72b35ff5c477cd1b7ce7f26a055c803e22253e7d210261109f358585b07e1ea0874d041790d6b8f4c152192f06fe7de563fbfe77867553ae"], "sequence": 4294967295, "scriptSig": {"hex": "2200203dbe01a853081befbdfca4065cfed503395aee4fafe073be646eb1cd5e1be075", "asm": "00203dbe01a853081befbdfca4065cfed503395aee4fafe073be646eb1cd5e1be075"}, "vout": 1, "txid": "0c8524e4930501b9b6f32d636e8a557c8b43303d7fa901d2be83ab2f30ebbb27"}], "txid": "1d7da270d3bd9582bb82ece66d90690fc97e6ec434d8112e459441a4e591f56f", "blocktime": 1537871767, "version": 1, "confirmations": 11494, "time": 1537871767, "locktime": 0, "vsize": 461, "size": 1034}