{"hash": "ce6416d523f1952f0087a384145cebaf3bf19ea6fb5da8ef44d927beb117a532", "blockhash": "0000000000000000001f0ddff1eddb255c1121bcd4da4f1bc9a0da00cae72433", "vout": [{"scriptPubKey": {"reqSigs": 1, "hex": "a914569168285586f4bd863fb0a69bde35c4ffbe894b87", "addresses": ["39akE61vrs4HbPWuZwkebCy2TrSiKiFHeE"], "asm": "OP_HASH160 569168285586f4bd863fb0a69bde35c4ffbe894b OP_EQUAL", "type": "scripthash"}, "value": 0.00215806, "n": 0}, {"scriptPubKey": {"reqSigs": 1, "hex": "a914ad37eec5b2fc0d907f8a6b7ddacd85b9845e2c2187", "addresses": ["3HUuq17n9bxpWJjL4KLCbJMPsbKcSxrCtw"], "asm": "OP_HASH160 ad37eec5b2fc0d907f8a6b7ddacd85b9845e2c21 OP_EQUAL", "type": "scripthash"}, "value": 0.01833999, "n": 1}], "hex": "01000000000102a6c91fcc6a768779e247f1a49d713cafbd33fc5b6bfa37299883348af4ef594a0100000023220020c2a28d28f678dc8824017c76efcefdf27d43a42df9632af9bc70710736e1e58fffffffff3fd730cd899bf2bed7e80ffa1b1d353454d54053820171177eaa644bbc5ea8350100000023220020c2a28d28f678dc8824017c76efcefdf27d43a42df9632af9bc70710736e1e58fffffffff02fe4a03000000000017a914569168285586f4bd863fb0a69bde35c4ffbe894b870ffc1b000000000017a914ad37eec5b2fc0d907f8a6b7ddacd85b9845e2c21870400473044022041b053c59d84356c664f160a3ba0dec11821e91a003a21ce1bcdeb6b1ebc029902200438513be34b372e55676a6a4c1b165594beada16bf4e5dea7cb0def0a65bde301473044022067620bba30af8c55df4ecf106dea5abeebd893b5dafd2fc5270ead13ef64c2e5022036ba9ffd094cfb23aceb0ff9cea6837c8d4325e74958cb5a28b3a5a1f0fe67d70147522103e692cc00a065a7af242d4c2822f26995621ee3aa9514b573cfe4ebf996bd8111210297d3a0c3e63b20b9e6f3ace4d89e21364009021bc5359dc849fc63b9f48feba552ae0400473044022059b28c55d72e5a5e1c7d8d65a397a1cb28cee5304c592c5e59d415d12a8fa80d02207ca26a521e257839a7cc4e651a69a41f4d4d3c62b0f39b0a3f615f2a322cb7d801483045022100d0eabf9648bcd8abdfb3cdf003f699331cec70d0ad440af3aa18bd59d03c2abd02205837beffb1bfd58fb6d4ea5c3b441b058e8480e0b71b472636710bb5ec9d77f50147522103e692cc00a065a7af242d4c2822f26995621ee3aa9514b573cfe4ebf996bd8111210297d3a0c3e63b20b9e6f3ace4d89e21364009021bc5359dc849fc63b9f48feba552ae00000000", "vin": [{"txinwitness": ["", "3044022041b053c59d84356c664f160a3ba0dec11821e91a003a21ce1bcdeb6b1ebc029902200438513be34b372e55676a6a4c1b165594beada16bf4e5dea7cb0def0a65bde301", "3044022067620bba30af8c55df4ecf106dea5abeebd893b5dafd2fc5270ead13ef64c2e5022036ba9ffd094cfb23aceb0ff9cea6837c8d4325e74958cb5a28b3a5a1f0fe67d701", "522103e692cc00a065a7af242d4c2822f26995621ee3aa9514b573cfe4ebf996bd8111210297d3a0c3e63b20b9e6f3ace4d89e21364009021bc5359dc849fc63b9f48feba552ae"], "sequence": 4294967295, "scriptSig": {"hex": "220020c2a28d28f678dc8824017c76efcefdf27d43a42df9632af9bc70710736e1e58f", "asm": "0020c2a28d28f678dc8824017c76efcefdf27d43a42df9632af9bc70710736e1e58f"}, "vout": 1, "txid": "4a59eff48a3483982937fa6b5bfc33bdaf3c719da4f147e27987766acc1fc9a6"}, {"txinwitness": ["", "3044022059b28c55d72e5a5e1c7d8d65a397a1cb28cee5304c592c5e59d415d12a8fa80d02207ca26a521e257839a7cc4e651a69a41f4d4d3c62b0f39b0a3f615f2a322cb7d801", "3045022100d0eabf9648bcd8abdfb3cdf003f699331cec70d0ad440af3aa18bd59d03c2abd02205837beffb1bfd58fb6d4ea5c3b441b058e8480e0b71b472636710bb5ec9d77f501", "522103e692cc00a065a7af242d4c2822f26995621ee3aa9514b573cfe4ebf996bd8111210297d3a0c3e63b20b9e6f3ace4d89e21364009021bc5359dc849fc63b9f48feba552ae"], "sequence": 4294967295, "scriptSig": {"hex": "220020c2a28d28f678dc8824017c76efcefdf27d43a42df9632af9bc70710736e1e58f", "asm": "0020c2a28d28f678dc8824017c76efcefdf27d43a42df9632af9bc70710736e1e58f"}, "vout": 1, "txid": "35a85ebc4b64aa7e177101825340d55434351d1bfa0fe8d7bef29b89cd30d73f"}], "txid": "1d7e410e4dca892e6ed66e618836297ebb3000f7a3f9b179cff9fbf57980ba82", "blocktime": 1537872018, "version": 1, "confirmations": 11489, "time": 1537872018, "locktime": 0, "vsize": 336, "size": 665}