{"hash": "1d849de30105b5d00e23e44841093f136336bc528050829100ba48ff77943f2b", "blockhash": "0000000000000000001f76057863aec43deb6fa401d9628bb513d65a8098bfab", "vout": [{"scriptPubKey": {"reqSigs": 1, "hex": "a9149f2eed1c7f60ac99d2ae5fad0a662df7779a8a2287", "addresses": ["3GChaY1VKhSATaLBB4SNtT6cMFHsD4FLvx"], "asm": "OP_HASH160 9f2eed1c7f60ac99d2ae5fad0a662df7779a8a22 OP_EQUAL", "type": "scripthash"}, "value": 0.01559882, "n": 0}], "hex": "0100000002de34e56a150fc253362ecb8db72a41e858ab4babf91d08405b3070218420ed97000000006b4830450221008e0fb1493a726cfb6f92c51de4e8628a71581ea83f8f404dceb4b2e6a042f792022011f032a39655a9d5ec8c906768d4a532f99d857430b6a61286f5248dd77f7008012102250e57921be5740910c2b8f006fade672c9d23112af9dc15a5889ca3057ebcb3ffffffff522637f326a929e4944b2e3d77b9a4fef67f897e009510f3a8d6a2bdbd8a6ff5010000006a47304402200ac8c4206ee8a500e9c29a7f79870a568fd9f06a4fa8c82ae6b4d3095b53ebfb0220104548b551664f30f36663b20ff75b9a6f5d1ddedc7f2014be36f39c0f5e5e8a0121033884bf3c188dc87e5c340f433e22be3b3ad160487b11a13df2c753d8821b7799ffffffff014acd17000000000017a9149f2eed1c7f60ac99d2ae5fad0a662df7779a8a228700000000", "vin": [{"sequence": 4294967295, "scriptSig": {"hex": "4830450221008e0fb1493a726cfb6f92c51de4e8628a71581ea83f8f404dceb4b2e6a042f792022011f032a39655a9d5ec8c906768d4a532f99d857430b6a61286f5248dd77f7008012102250e57921be5740910c2b8f006fade672c9d23112af9dc15a5889ca3057ebcb3", "asm": "30450221008e0fb1493a726cfb6f92c51de4e8628a71581ea83f8f404dceb4b2e6a042f792022011f032a39655a9d5ec8c906768d4a532f99d857430b6a61286f5248dd77f7008[ALL] 02250e57921be5740910c2b8f006fade672c9d23112af9dc15a5889ca3057ebcb3"}, "vout": 0, "txid": "97ed20842170305b40081df9ab4bab58e8412ab78dcb2e3653c20f156ae534de"}, {"sequence": 4294967295, "scriptSig": {"hex": "47304402200ac8c4206ee8a500e9c29a7f79870a568fd9f06a4fa8c82ae6b4d3095b53ebfb0220104548b551664f30f36663b20ff75b9a6f5d1ddedc7f2014be36f39c0f5e5e8a0121033884bf3c188dc87e5c340f433e22be3b3ad160487b11a13df2c753d8821b7799", "asm": "304402200ac8c4206ee8a500e9c29a7f79870a568fd9f06a4fa8c82ae6b4d3095b53ebfb0220104548b551664f30f36663b20ff75b9a6f5d1ddedc7f2014be36f39c0f5e5e8a[ALL] 033884bf3c188dc87e5c340f433e22be3b3ad160487b11a13df2c753d8821b7799"}, "vout": 1, "txid": "f56f8abdbda2d6a8f31095007e897ff6fea4b9773d2e4b94e429a926f3372652"}], "txid": "1d849de30105b5d00e23e44841093f136336bc528050829100ba48ff77943f2b", "blocktime": 1537873891, "version": 1, "confirmations": 11478, "time": 1537873891, "locktime": 0, "vsize": 337, "size": 337}