{"hash": "1d86aa402f0b04a73fee902d834b1d15f7d09ce6aa112cfaa47242df7535c6a9", "blockhash": "000000000000000000022b45ed06c6f4ccd3cf7fb5ba4856ebd2e58215665228", "vout": [{"scriptPubKey": {"reqSigs": 1, "hex": "a9147553863ceebc2be4fba9505bad59c4a83553055e87", "addresses": ["3CPP3MzLp94JMT3QpNmUsHmP5ymvy9z7pG"], "asm": "OP_HASH160 7553863ceebc2be4fba9505bad59c4a83553055e OP_EQUAL", "type": "scripthash"}, "value": 0.001666, "n": 0}], "hex": "0100000002b1c93a49bdaaed10394f290fb87240e22ad5b4633d53624a1de63b7b4346be1b020000006a473044022026087d32669b0aa578bca6de2a90cf326309953c8595ba5cfae66d5ba0060faf022020c9e806420dcffa21a95b443be695e903414629282a704765948922d638d75a01210335c77d5f7eb63905d91a8da04306dabefcf10d4e4a605f8d78d7dbe50b20678affffffffc5a269fcecbe64b1113a62cb6cf7993e36de10d2082efbefe92c941d90060020000000006a47304402202b3d744d8ef61c3fd296ad8abfd6cdf4e241d68d0e17d74faad6dff9f7aca66802201e90881779ebaf2f31a8fe46824cbbbbc18ab5f71eb3aeb1cca647a7e8b5af960121031a3316a15c496c286978923ec697392156a03f9c70a420f27f52634832ffefefffffffff01c88a02000000000017a9147553863ceebc2be4fba9505bad59c4a83553055e8700000000", "vin": [{"sequence": 4294967295, "scriptSig": {"hex": "473044022026087d32669b0aa578bca6de2a90cf326309953c8595ba5cfae66d5ba0060faf022020c9e806420dcffa21a95b443be695e903414629282a704765948922d638d75a01210335c77d5f7eb63905d91a8da04306dabefcf10d4e4a605f8d78d7dbe50b20678a", "asm": "3044022026087d32669b0aa578bca6de2a90cf326309953c8595ba5cfae66d5ba0060faf022020c9e806420dcffa21a95b443be695e903414629282a704765948922d638d75a[ALL] 0335c77d5f7eb63905d91a8da04306dabefcf10d4e4a605f8d78d7dbe50b20678a"}, "vout": 2, "txid": "1bbe46437b3be61d4a62533d63b4d52ae24072b80f294f3910edaabd493ac9b1"}, {"sequence": 4294967295, "scriptSig": {"hex": "47304402202b3d744d8ef61c3fd296ad8abfd6cdf4e241d68d0e17d74faad6dff9f7aca66802201e90881779ebaf2f31a8fe46824cbbbbc18ab5f71eb3aeb1cca647a7e8b5af960121031a3316a15c496c286978923ec697392156a03f9c70a420f27f52634832ffefef", "asm": "304402202b3d744d8ef61c3fd296ad8abfd6cdf4e241d68d0e17d74faad6dff9f7aca66802201e90881779ebaf2f31a8fe46824cbbbbc18ab5f71eb3aeb1cca647a7e8b5af96[ALL] 031a3316a15c496c286978923ec697392156a03f9c70a420f27f52634832ffefef"}, "vout": 0, "txid": "200006901d942ce9effb2e08d210de363e99f76ccb623a11b164beecfc69a2c5"}], "txid": "1d86aa402f0b04a73fee902d834b1d15f7d09ce6aa112cfaa47242df7535c6a9", "blocktime": 1537869901, "version": 1, "confirmations": 11523, "time": 1537869901, "locktime": 0, "vsize": 336, "size": 336}