{"hash": "1d8880ffac9a95cdbdddb8a74baf87140173c9f7857b5e29d7a39fdc047b9d32", "blockhash": "0000000000000000000dcc0f55137456b1a82d3642486a52398922ac4d620174", "vout": [{"scriptPubKey": {"reqSigs": 1, "hex": "76a9142d8da831a51ff7fb04e6ebff4f40d22d6b219dc488ac", "addresses": ["159s78m7RDfKvLDHa7H7XWsvvDiZbjD48N"], "asm": "OP_DUP OP_HASH160 2d8da831a51ff7fb04e6ebff4f40d22d6b219dc4 OP_EQUALVERIFY OP_CHECKSIG", "type": "pubkeyhash"}, "value": 0.02942202, "n": 0}, {"scriptPubKey": {"reqSigs": 1, "hex": "76a9140ad3903996d627176c3f26c2a0cbcaca1a9380b088ac", "addresses": ["1zFCbmvidmLHvBXryVNP3fo28tzqYi5YR"], "asm": "OP_DUP OP_HASH160 0ad3903996d627176c3f26c2a0cbcaca1a9380b0 OP_EQUALVERIFY OP_CHECKSIG", "type": "pubkeyhash"}, "value": 0.2221612, "n": 1}], "hex": "0100000001b2e8935e9bb14f4d62dd8c0bf149b6a539fb69f40f36eb28e10bd348a2195522000000006a473044022059f0911501cab4299fde079b6e3a01c6cfe412bd34bd039efe86c80bfbb69c5e02201e9df06df64fd5bdcba03447c80bd2b5151a42ab63ef69581c18881ded2c3bf3012103e99a03a2990a484f25a06b1208901c93028b9cbd124da5c746ff298c5a87ac5bffffffff02fae42c00000000001976a9142d8da831a51ff7fb04e6ebff4f40d22d6b219dc488acb8fd5201000000001976a9140ad3903996d627176c3f26c2a0cbcaca1a9380b088ac00000000", "vin": [{"sequence": 4294967295, "scriptSig": {"hex": "473044022059f0911501cab4299fde079b6e3a01c6cfe412bd34bd039efe86c80bfbb69c5e02201e9df06df64fd5bdcba03447c80bd2b5151a42ab63ef69581c18881ded2c3bf3012103e99a03a2990a484f25a06b1208901c93028b9cbd124da5c746ff298c5a87ac5b", "asm": "3044022059f0911501cab4299fde079b6e3a01c6cfe412bd34bd039efe86c80bfbb69c5e02201e9df06df64fd5bdcba03447c80bd2b5151a42ab63ef69581c18881ded2c3bf3[ALL] 03e99a03a2990a484f25a06b1208901c93028b9cbd124da5c746ff298c5a87ac5b"}, "vout": 0, "txid": "225519a248d30be128eb360ff469fb39a5b649f10b8cdd624d4fb19b5e93e8b2"}], "txid": "1d8880ffac9a95cdbdddb8a74baf87140173c9f7857b5e29d7a39fdc047b9d32", "blocktime": 1537870268, "version": 1, "confirmations": 11518, "time": 1537870268, "locktime": 0, "vsize": 225, "size": 225}