{"hash": "21b6f21b2584123d9a5250540598d5f1e7c68fe4c34b029d79c9f1287ec5fb7a", "blockhash": "0000000000000000001e0dab787dd257d1dbfcb92a98c2207d5e1078be1f4165", "vout": [{"scriptPubKey": {"reqSigs": 1, "hex": "76a9147f945604e948154066b3ebf4624a57e9ad8586f688ac", "addresses": ["1CdaWvu9PKinM7wEj1w2sXXzZJ1fViT6CN"], "asm": "OP_DUP OP_HASH160 7f945604e948154066b3ebf4624a57e9ad8586f6 OP_EQUALVERIFY OP_CHECKSIG", "type": "pubkeyhash"}, "value": 0.21574773, "n": 0}, {"scriptPubKey": {"reqSigs": 1, "hex": "0014a152a29b558376215da0fb9ab1d6a1204755db13", "addresses": ["bc1q59f29x64sdmzzhdqlwdtr44pypr4tkcn9lmsse"], "asm": "0 a152a29b558376215da0fb9ab1d6a1204755db13", "type": "witness_v0_keyhash"}, "value": 0.07426359, "n": 1}], "hex": "0100000000010125ad99971450dc95f904ad1d75b3181706dafd4cda20a12101a4c193cb2e78bf0000000017160014d7973d3eca763360b42b896560a30703f48d8581ffffffff0275344901000000001976a9147f945604e948154066b3ebf4624a57e9ad8586f688ac3751710000000000160014a152a29b558376215da0fb9ab1d6a1204755db130247304402202efda83ebec2cbbb21ef85e7cec143bd72f435e084f8a19e7d6eb3a85484d4b1022037fa406f2d96745c81b400030ce72c6380b30a5f7e1b44c7cbb41230badd3549012103af7e547ba7241b0153dcdd9b6c52a7e5d1984744a7dd62e8cbb8576cfed1458b00000000", "vin": [{"txinwitness": ["304402202efda83ebec2cbbb21ef85e7cec143bd72f435e084f8a19e7d6eb3a85484d4b1022037fa406f2d96745c81b400030ce72c6380b30a5f7e1b44c7cbb41230badd354901", "03af7e547ba7241b0153dcdd9b6c52a7e5d1984744a7dd62e8cbb8576cfed1458b"], "sequence": 4294967295, "scriptSig": {"hex": "160014d7973d3eca763360b42b896560a30703f48d8581", "asm": "0014d7973d3eca763360b42b896560a30703f48d8581"}, "vout": 0, "txid": "bf782ecb93c1a40121a120da4cfdda061718b3751dad04f995dc50149799ad25"}], "txid": "1d8840aa27c57fe8a5bf1edb50bbc08904aab05d56172785a5842df746ce6630", "blocktime": 1537872475, "version": 1, "confirmations": 11487, "time": 1537872475, "locktime": 0, "vsize": 167, "size": 248}