{"hash": "1d8b86942b7e23aa161d8be606842559044fb0bbfbe19d512f04735fd1d1d7f6", "blockhash": "00000000000000000024a2167bbff67b0be802c0b01cdd79e6331c2be6459f87", "vout": [{"scriptPubKey": {"reqSigs": 1, "hex": "76a914a09740450654ffb7e5ca2b73134b24e7ae53cbbd88ac", "addresses": ["1Fe8JoR9nn839DTwMqr4oPAXf8GcwhSHCZ"], "asm": "OP_DUP OP_HASH160 a09740450654ffb7e5ca2b73134b24e7ae53cbbd OP_EQUALVERIFY OP_CHECKSIG", "type": "pubkeyhash"}, "value": 0.0015598, "n": 0}, {"scriptPubKey": {"reqSigs": 1, "hex": "76a9141766428de936f8c56bd7f9401d1c7b38ae7cb55888ac", "addresses": ["138j3ZUb6dH5G4smawtLAUNHp71SnXhG1C"], "asm": "OP_DUP OP_HASH160 1766428de936f8c56bd7f9401d1c7b38ae7cb558 OP_EQUALVERIFY OP_CHECKSIG", "type": "pubkeyhash"}, "value": 0.09597764, "n": 1}], "hex": "0100000001eae5061c1b61c00e849cce5f25439e7a90b4748dc7bc512a9adeb2d7bd65b07d010000006b483045022100c4312b7a21389f64922f821d9b8d39eb25f5bc87c330778c8382aab2ef77434c022012f33284c6e5cc94a63047749f980c521a05c341445973a59f69ac64ea0773290121022370f42313b54e4de22b90d9f18a2746541146229f6fae23fc00a409d8ea49d6ffffffff024c610200000000001976a914a09740450654ffb7e5ca2b73134b24e7ae53cbbd88ac44739200000000001976a9141766428de936f8c56bd7f9401d1c7b38ae7cb55888ac00000000", "vin": [{"sequence": 4294967295, "scriptSig": {"hex": "483045022100c4312b7a21389f64922f821d9b8d39eb25f5bc87c330778c8382aab2ef77434c022012f33284c6e5cc94a63047749f980c521a05c341445973a59f69ac64ea0773290121022370f42313b54e4de22b90d9f18a2746541146229f6fae23fc00a409d8ea49d6", "asm": "3045022100c4312b7a21389f64922f821d9b8d39eb25f5bc87c330778c8382aab2ef77434c022012f33284c6e5cc94a63047749f980c521a05c341445973a59f69ac64ea077329[ALL] 022370f42313b54e4de22b90d9f18a2746541146229f6fae23fc00a409d8ea49d6"}, "vout": 1, "txid": "7db065bdd7b2de9a2a51bcc78d74b4907a9e43255fce9c840ec0611b1c06e5ea"}], "txid": "1d8b86942b7e23aa161d8be606842559044fb0bbfbe19d512f04735fd1d1d7f6", "blocktime": 1537870564, "version": 1, "confirmations": 11515, "time": 1537870564, "locktime": 0, "vsize": 226, "size": 226}