{"hash": "1d92805eb2e83310faf85b58d5d4b0e89c4a7ffb0d3f57c046be5e6714b59b21", "blockhash": "0000000000000000000e13cef7c366c0283d82e591d1acd082e914b08063cdf1", "vout": [{"scriptPubKey": {"reqSigs": 1, "hex": "76a914f0ee2b94502acbd7f71c3003c9adf7d350419da288ac", "addresses": ["1NxvVQ2uxRMgt3w7uCUvLJiGhkX5HsjBcL"], "asm": "OP_DUP OP_HASH160 f0ee2b94502acbd7f71c3003c9adf7d350419da2 OP_EQUALVERIFY OP_CHECKSIG", "type": "pubkeyhash"}, "value": 0.00843804, "n": 0}, {"scriptPubKey": {"reqSigs": 1, "hex": "76a914e61e0333c53ab8176dc384a5f4e840a616f4329588ac", "addresses": ["1MykNRkHKQdeK6o1B6Ge5v8xKRvwDN3vf1"], "asm": "OP_DUP OP_HASH160 e61e0333c53ab8176dc384a5f4e840a616f43295 OP_EQUALVERIFY OP_CHECKSIG", "type": "pubkeyhash"}, "value": 0.13773472, "n": 1}], "hex": "01000000020bc61599276685d85af2df991eaf9bc5beed26a5d5ccb55ffee1a4c9ad1ee59b000000006a47304402206c82fc0cfaeb2b47bb3716bc81b62fe81841c36601a6dfdd8e788bcf40cf73460220131b339fbbedd13c76ad05c70cdf2b8fa9dd74ff372e536435dffb6716c1633f012102432cc38c047cd3a7917ff102ef2883f22153322674cb4447ccf3cdf495939d4fffffffff7792ee875e9d474b189d44df1ad2814fd5360f183983569231c081ca1c6719c3000000006b483045022100b8be531afd1bd04d72e744dae79b2b5aa51a1c46ad9d91be7e314c159877101502207cebc8ff42f29ce95e9d9c43eebc0c3dc8efaa915a683827658033915dc4c1c4012103d15833201dc9c147c4cc2c71faa77ea602d049e2e80d2ecb6291ac2bff665e2cffffffff021ce00c00000000001976a914f0ee2b94502acbd7f71c3003c9adf7d350419da288aca02ad200000000001976a914e61e0333c53ab8176dc384a5f4e840a616f4329588ac00000000", "vin": [{"sequence": 4294967295, "scriptSig": {"hex": "47304402206c82fc0cfaeb2b47bb3716bc81b62fe81841c36601a6dfdd8e788bcf40cf73460220131b339fbbedd13c76ad05c70cdf2b8fa9dd74ff372e536435dffb6716c1633f012102432cc38c047cd3a7917ff102ef2883f22153322674cb4447ccf3cdf495939d4f", "asm": "304402206c82fc0cfaeb2b47bb3716bc81b62fe81841c36601a6dfdd8e788bcf40cf73460220131b339fbbedd13c76ad05c70cdf2b8fa9dd74ff372e536435dffb6716c1633f[ALL] 02432cc38c047cd3a7917ff102ef2883f22153322674cb4447ccf3cdf495939d4f"}, "vout": 0, "txid": "9be51eadc9a4e1fe5fb5ccd5a526edbec59baf1e99dff25ad88566279915c60b"}, {"sequence": 4294967295, "scriptSig": {"hex": "483045022100b8be531afd1bd04d72e744dae79b2b5aa51a1c46ad9d91be7e314c159877101502207cebc8ff42f29ce95e9d9c43eebc0c3dc8efaa915a683827658033915dc4c1c4012103d15833201dc9c147c4cc2c71faa77ea602d049e2e80d2ecb6291ac2bff665e2c", "asm": "3045022100b8be531afd1bd04d72e744dae79b2b5aa51a1c46ad9d91be7e314c159877101502207cebc8ff42f29ce95e9d9c43eebc0c3dc8efaa915a683827658033915dc4c1c4[ALL] 03d15833201dc9c147c4cc2c71faa77ea602d049e2e80d2ecb6291ac2bff665e2c"}, "vout": 0, "txid": "c319671cca81c03192568339180f36d54f81d21adf449d184b479d5e87ee9277"}], "txid": "1d92805eb2e83310faf85b58d5d4b0e89c4a7ffb0d3f57c046be5e6714b59b21", "blocktime": 1537871767, "version": 1, "confirmations": 11495, "time": 1537871767, "locktime": 0, "vsize": 373, "size": 373}