{"hash": "59990d2b3488508ed59d7f71fc36268e041cec725932b7f92fe4b44b1495d009", "blockhash": "0000000000000000001f0ddff1eddb255c1121bcd4da4f1bc9a0da00cae72433", "vout": [{"scriptPubKey": {"reqSigs": 1, "hex": "a9149d14bd558429b4f327a019436a25c5fc184eb41e87", "addresses": ["3G1arfyg5xC4314CNMBGxUkdvavfENKV2h"], "asm": "OP_HASH160 9d14bd558429b4f327a019436a25c5fc184eb41e OP_EQUAL", "type": "scripthash"}, "value": 0.0124701, "n": 0}, {"scriptPubKey": {"reqSigs": 1, "hex": "76a914ab3979182df32bcea9f66091722753f10d3c303d88ac", "addresses": ["1GcMQ6jN2iTgapCBfDddooXE8PQFuwPTw3"], "asm": "OP_DUP OP_HASH160 ab3979182df32bcea9f66091722753f10d3c303d OP_EQUALVERIFY OP_CHECKSIG", "type": "pubkeyhash"}, "value": 0.00472744, "n": 1}], "hex": "02000000000101e1f51fb36add0bf46a1da5f968b1950a27b80129d141f704805683a467a2649b000000001716001472d7578b97d69a6b990a8566e788ea789b665140feffffff02220713000000000017a9149d14bd558429b4f327a019436a25c5fc184eb41e87a8360700000000001976a914ab3979182df32bcea9f66091722753f10d3c303d88ac0247304402206e980233f743acdfc1072db881a71efc7779b910f2680ad634a5d0e8941ac8cc02205a822bbb1056478f143d004a82fc0c88a5c2e8c3620788724b184994664bc5bc012102d24f9d775e1af709c69b2ef8250908582d4b79c3ceccda33eba1c19d2730d18911490800", "vin": [{"txinwitness": ["304402206e980233f743acdfc1072db881a71efc7779b910f2680ad634a5d0e8941ac8cc02205a822bbb1056478f143d004a82fc0c88a5c2e8c3620788724b184994664bc5bc01", "02d24f9d775e1af709c69b2ef8250908582d4b79c3ceccda33eba1c19d2730d189"], "sequence": 4294967294, "scriptSig": {"hex": "16001472d7578b97d69a6b990a8566e788ea789b665140", "asm": "001472d7578b97d69a6b990a8566e788ea789b665140"}, "vout": 0, "txid": "9b64a267a483568004f741d12901b8270a95b168f9a51d6af40bdd6ab31ff5e1"}], "txid": "1d92a4453f00b63d1d0d7a9f8ee27e8464c7ca6c73cb5457a613bb9973c86562", "blocktime": 1537872018, "version": 2, "confirmations": 11489, "time": 1537872018, "locktime": 542993, "vsize": 168, "size": 249}