{"hash": "1d921a33d70698b16f4e39d29fd6c6741873aa0a06f6eb42c811f6269bb193fe", "blockhash": "0000000000000000001f76057863aec43deb6fa401d9628bb513d65a8098bfab", "vout": [{"scriptPubKey": {"reqSigs": 1, "hex": "76a914a5a5846c99e646f9ce228398dfac24bab05b07d088ac", "addresses": ["1G6rmzg9XLzuaJiXBD7GbpZskuDQBEyiYt"], "asm": "OP_DUP OP_HASH160 a5a5846c99e646f9ce228398dfac24bab05b07d0 OP_EQUALVERIFY OP_CHECKSIG", "type": "pubkeyhash"}, "value": 3.918e-05, "n": 0}, {"scriptPubKey": {"reqSigs": 1, "hex": "a914f4513a60a67a026fc43baddb87e31ec529f0017487", "addresses": ["3Pxr7B1PzutAtCtAzVCVGwtrp1wqD2mb8o"], "asm": "OP_HASH160 f4513a60a67a026fc43baddb87e31ec529f00174 OP_EQUAL", "type": "scripthash"}, "value": 0.0019, "n": 1}], "hex": "0100000002b573a1af446da9e12e28c4ec23506ed737998460aa7d3df0c07ee54fc0318a58040000006b48304502210089391578d333c27e6bc0f2ec0f5ad2fd31e765d6b7f15b4c789b5d08fe0fdf8e0220399c0cdab84af774258aaf54d1589b8e03edd9a622c22792224efa10dd08a264012103432ace48c40c648e4c4f522998c0c8bc0c9670e11772bb0468511b7ae54d8860ffffffff8933ca95134b54774dc03ad3a6d4ce647beae7e9c3d8a6cb83c8f3a719abb7f1000000006b483045022100a679b52a404a383ac9e0cd46d041da8529ea193be5c6cbc0bc60bf6fc5154bd902204ed0632c04aeff0aedd9460a08738f8141e7e797c732b5478fc49ffa3aafc31a01210336dd389ae688865e7afa238d03f639f51570e3986fcb6356cd7e1d9b84c5b4faffffffff024e0f0000000000001976a914a5a5846c99e646f9ce228398dfac24bab05b07d088ac30e602000000000017a914f4513a60a67a026fc43baddb87e31ec529f001748700000000", "vin": [{"sequence": 4294967295, "scriptSig": {"hex": "48304502210089391578d333c27e6bc0f2ec0f5ad2fd31e765d6b7f15b4c789b5d08fe0fdf8e0220399c0cdab84af774258aaf54d1589b8e03edd9a622c22792224efa10dd08a264012103432ace48c40c648e4c4f522998c0c8bc0c9670e11772bb0468511b7ae54d8860", "asm": "304502210089391578d333c27e6bc0f2ec0f5ad2fd31e765d6b7f15b4c789b5d08fe0fdf8e0220399c0cdab84af774258aaf54d1589b8e03edd9a622c22792224efa10dd08a264[ALL] 03432ace48c40c648e4c4f522998c0c8bc0c9670e11772bb0468511b7ae54d8860"}, "vout": 4, "txid": "588a31c04fe57ec0f03d7daa60849937d76e5023ecc4282ee1a96d44afa173b5"}, {"sequence": 4294967295, "scriptSig": {"hex": "483045022100a679b52a404a383ac9e0cd46d041da8529ea193be5c6cbc0bc60bf6fc5154bd902204ed0632c04aeff0aedd9460a08738f8141e7e797c732b5478fc49ffa3aafc31a01210336dd389ae688865e7afa238d03f639f51570e3986fcb6356cd7e1d9b84c5b4fa", "asm": "3045022100a679b52a404a383ac9e0cd46d041da8529ea193be5c6cbc0bc60bf6fc5154bd902204ed0632c04aeff0aedd9460a08738f8141e7e797c732b5478fc49ffa3aafc31a[ALL] 0336dd389ae688865e7afa238d03f639f51570e3986fcb6356cd7e1d9b84c5b4fa"}, "vout": 0, "txid": "f1b7ab19a7f3c883cba6d8c3e9e7ea7b64ced4a6d33ac04d77544b1395ca3389"}], "txid": "1d921a33d70698b16f4e39d29fd6c6741873aa0a06f6eb42c811f6269bb193fe", "blocktime": 1537873891, "version": 1, "confirmations": 11475, "time": 1537873891, "locktime": 0, "vsize": 372, "size": 372}