{"hash": "eb39b7a42d996e77ccfe4301dabd3f11413ddf79c52f66ec78c3b178b85d9e38", "blockhash": "00000000000000000018f53835495a110e01622372bf6ae95dc86f2b0ab887b0", "vout": [{"scriptPubKey": {"reqSigs": 1, "hex": "76a91422b6ed3ec0876639bb2083478420bac0e895df1788ac", "addresses": ["14AZ7Vhj4u7ncweiZPWJ7sZech51DVr1Wq"], "asm": "OP_DUP OP_HASH160 22b6ed3ec0876639bb2083478420bac0e895df17 OP_EQUALVERIFY OP_CHECKSIG", "type": "pubkeyhash"}, "value": 0.002, "n": 0}, {"scriptPubKey": {"reqSigs": 1, "hex": "a9141951b2563bf97589c38764b40fcd82e8bc85412687", "addresses": ["33ztgikuS5riMKpWZG4YFeiqpYHQvtvZvT"], "asm": "OP_HASH160 1951b2563bf97589c38764b40fcd82e8bc854126 OP_EQUAL", "type": "scripthash"}, "value": 0.01172, "n": 1}, {"scriptPubKey": {"reqSigs": 1, "hex": "a9141988a27e3c2df4ddee7fad5a2303d086179b2a3087", "addresses": ["3422VtS7UtCvXYxoXMVp6eZupR252z85oC"], "asm": "OP_HASH160 1988a27e3c2df4ddee7fad5a2303d086179b2a30 OP_EQUAL", "type": "scripthash"}, "value": 1.14463333, "n": 2}, {"scriptPubKey": {"reqSigs": 1, "hex": "76a914bd2183aa8085b6b0b05fdf042cba5c55ca601c3488ac", "addresses": ["1JF2rsZakEd3HugvQDz2iY8965bAwjwW1q"], "asm": "OP_DUP OP_HASH160 bd2183aa8085b6b0b05fdf042cba5c55ca601c34 OP_EQUALVERIFY OP_CHECKSIG", "type": "pubkeyhash"}, "value": 0.000835, "n": 3}], "hex": "0100000000010181e8579ea85738798e419574015b5f37bc8a2a2a638ff37cdbbb297e7460ef4d010000002322002065d416c48a8072e0ac51c2d111eb194f009caef0332446c1bf2097316cf07fa9ffffffff04400d0300000000001976a91422b6ed3ec0876639bb2083478420bac0e895df1788ac20e211000000000017a9141951b2563bf97589c38764b40fcd82e8bc854126876592d2060000000017a9141988a27e3c2df4ddee7fad5a2303d086179b2a30872c460100000000001976a914bd2183aa8085b6b0b05fdf042cba5c55ca601c3488ac0400483045022100c742649ab5d36a0f3c1840a48c4d3714d56285906e47d4cf44b9181eda09923802205b18a0a5e463fcb6c8322e6c9d2ae598f7c8da0130e6b30fcbbe12932457df92014730440220470cf5a0aee43306ab76fccc2e01c8f37e060710dfb2ea5a66693cdb06a0f678022010e899f15600418b8b907487d643fb4ab018da0bd1b27b018c9c176aa342d4140169522102f44abcf9e23c9a460da309ccca56c619c04eed3bde2c2cff5e7d78fbcd980b9c2103c9443cf3047bb6c2c82f1b0c44c36109cdc3d0d601d16d1189a1602bf8d1a0a02103bfe867059274412412e088af5572b92168c2ef495cfe6c9b7a753a009eb37c4853ae00000000", "vin": [{"txinwitness": ["", "3045022100c742649ab5d36a0f3c1840a48c4d3714d56285906e47d4cf44b9181eda09923802205b18a0a5e463fcb6c8322e6c9d2ae598f7c8da0130e6b30fcbbe12932457df9201", "30440220470cf5a0aee43306ab76fccc2e01c8f37e060710dfb2ea5a66693cdb06a0f678022010e899f15600418b8b907487d643fb4ab018da0bd1b27b018c9c176aa342d41401", "522102f44abcf9e23c9a460da309ccca56c619c04eed3bde2c2cff5e7d78fbcd980b9c2103c9443cf3047bb6c2c82f1b0c44c36109cdc3d0d601d16d1189a1602bf8d1a0a02103bfe867059274412412e088af5572b92168c2ef495cfe6c9b7a753a009eb37c4853ae"], "sequence": 4294967295, "scriptSig": {"hex": "22002065d416c48a8072e0ac51c2d111eb194f009caef0332446c1bf2097316cf07fa9", "asm": "002065d416c48a8072e0ac51c2d111eb194f009caef0332446c1bf2097316cf07fa9"}, "vout": 1, "txid": "4def60747e29bbdb7cf38f632a2a8abc375f5b017495418e793857a89e57e881"}], "txid": "1d9390477313a84c85d3b28813faad784ba3dd0a616feb8a5ad01c62d0709464", "blocktime": 1537870928, "version": 1, "confirmations": 11512, "time": 1537870928, "locktime": 0, "vsize": 282, "size": 473}