{"hash": "2a12bdde2b0ded37cec086cb3174557224f940233a0a06ce76f8bb5e69ead10f", "blockhash": "0000000000000000001f76057863aec43deb6fa401d9628bb513d65a8098bfab", "vout": [{"scriptPubKey": {"reqSigs": 1, "hex": "a91436aafdc8f380b450b00e9683f8f319d59acafb8287", "addresses": ["36g5FbA288cjo54TfMUNhc5LCERd5isJCN"], "asm": "OP_HASH160 36aafdc8f380b450b00e9683f8f319d59acafb82 OP_EQUAL", "type": "scripthash"}, "value": 0.00999674, "n": 0}, {"scriptPubKey": {"reqSigs": 1, "hex": "76a91444cbaeb4568cc1baca1b8a25da8bd0447ac9401688ac", "addresses": ["17Gkx9cPPEE5FMk33oKNoxeG3Qz8dUUj8u"], "asm": "OP_DUP OP_HASH160 44cbaeb4568cc1baca1b8a25da8bd0447ac94016 OP_EQUALVERIFY OP_CHECKSIG", "type": "pubkeyhash"}, "value": 0.079726, "n": 1}], "hex": "0200000000010214fe203239c6a6fd75d33f698a0fb750cf4651e55fd35b72fe0d823b5b1e52e600000000171600140c192cb14964e2353ba461353ffa80cacb7b8875feffffff2895004b538b86dc13dbba212b8e1cf4d05e95a43703293baf6ed2273d0125ff01000000171600146180ca7d076db5dd6d6d66d6359993863cce9142feffffff02fa400f000000000017a91436aafdc8f380b450b00e9683f8f319d59acafb8287f8a67900000000001976a91444cbaeb4568cc1baca1b8a25da8bd0447ac9401688ac024730440220094bdb0600f1e93b54444642ba08884b363c2911b65a6f87f53aac1447524dfc0220149b6e83e6c6b228902f2b277b3809a1164b29880ba7bcd056f60789ea2f155d012103b0cf28ad57bf72d9959b3f2550443589c096b6a6b032409196046c0b249287e8024730440220774295bf39998ade9709f2310689aac988fd80479251c292c640b715f6da83000220129d303f60980a8bb4ecc07f19a82e84c50ae49477af93ba00ea46c65d864a1f01210376383d6a395f40030708100c11c2df26aedbf94fe6767897832dfc9a80076f7314490800", "vin": [{"txinwitness": ["30440220094bdb0600f1e93b54444642ba08884b363c2911b65a6f87f53aac1447524dfc0220149b6e83e6c6b228902f2b277b3809a1164b29880ba7bcd056f60789ea2f155d01", "03b0cf28ad57bf72d9959b3f2550443589c096b6a6b032409196046c0b249287e8"], "sequence": 4294967294, "scriptSig": {"hex": "1600140c192cb14964e2353ba461353ffa80cacb7b8875", "asm": "00140c192cb14964e2353ba461353ffa80cacb7b8875"}, "vout": 0, "txid": "e6521e5b3b820dfe725bd35fe55146cf50b70f8a693fd375fda6c6393220fe14"}, {"txinwitness": ["30440220774295bf39998ade9709f2310689aac988fd80479251c292c640b715f6da83000220129d303f60980a8bb4ecc07f19a82e84c50ae49477af93ba00ea46c65d864a1f01", "0376383d6a395f40030708100c11c2df26aedbf94fe6767897832dfc9a80076f73"], "sequence": 4294967294, "scriptSig": {"hex": "1600146180ca7d076db5dd6d6d66d6359993863cce9142", "asm": "00146180ca7d076db5dd6d6d66d6359993863cce9142"}, "vout": 1, "txid": "ff25013d27d26eaf3b290337a4955ed0f41c8e2b21badb13dc868b534b009528"}], "txid": "1d94ae5287cc925af876fd908f27bd82af63c6417b5f25d0aeb86162793c7d86", "blocktime": 1537873891, "version": 2, "confirmations": 11475, "time": 1537873891, "locktime": 542996, "vsize": 258, "size": 420}