{"hash": "1d962cb036a39567cb3db1e2500e78337f9c7bf51f4803dc0f6872b3ec5e2724", "blockhash": "0000000000000000000baef3f32e3676a92c3b2e5da21b426e4f302fc371ce76", "vout": [{"scriptPubKey": {"type": "nulldata", "hex": "6a4c500000782f0001de1981b465f712ca3bb2141427b7256b4774d339f6019d6ddc0f1b8ff117303654ec7e0189ce964ef04488eabc005baa1f5a06139127ec605acd1d100759d4ba30d2c37bb011d97e02cf", "asm": "OP_RETURN 0000782f0001de1981b465f712ca3bb2141427b7256b4774d339f6019d6ddc0f1b8ff117303654ec7e0189ce964ef04488eabc005baa1f5a06139127ec605acd1d100759d4ba30d2c37bb011d97e02cf"}, "value": 0.0, "n": 0}, {"scriptPubKey": {"reqSigs": 1, "hex": "76a914dbbf9e9bd8bf4b634a6740ea836e50950a01848488ac", "addresses": ["1M2vXyMkJ3r9iVhGiUiQcZnbpar3oQ6PdC"], "asm": "OP_DUP OP_HASH160 dbbf9e9bd8bf4b634a6740ea836e50950a018484 OP_EQUALVERIFY OP_CHECKSIG", "type": "pubkeyhash"}, "value": 0.00626066, "n": 1}], "hex": "0100000001c8a23c5aca5a4e6313cee43a8d368944a628ac66e9e4601ac46809fc1726f2fa000000006b483045022100c1d787fae28b7d0ec52bd8aadd493aaa28d80ca818c1ad8d1e4931b5ff90373a022077e4d53f6554b6a54c0375fa920c8c92b0716f852a5f310b0dde1ff9284282c4012102e21001fa46ee3022f1ef657f1cb0f1b5cf322b99edef0f64c916536436862673ffffffff020000000000000000536a4c500000782f0001de1981b465f712ca3bb2141427b7256b4774d339f6019d6ddc0f1b8ff117303654ec7e0189ce964ef04488eabc005baa1f5a06139127ec605acd1d100759d4ba30d2c37bb011d97e02cf928d0900000000001976a914dbbf9e9bd8bf4b634a6740ea836e50950a01848488ac00000000", "vin": [{"sequence": 4294967295, "scriptSig": {"hex": "483045022100c1d787fae28b7d0ec52bd8aadd493aaa28d80ca818c1ad8d1e4931b5ff90373a022077e4d53f6554b6a54c0375fa920c8c92b0716f852a5f310b0dde1ff9284282c4012102e21001fa46ee3022f1ef657f1cb0f1b5cf322b99edef0f64c916536436862673", "asm": "3045022100c1d787fae28b7d0ec52bd8aadd493aaa28d80ca818c1ad8d1e4931b5ff90373a022077e4d53f6554b6a54c0375fa920c8c92b0716f852a5f310b0dde1ff9284282c4[ALL] 02e21001fa46ee3022f1ef657f1cb0f1b5cf322b99edef0f64c916536436862673"}, "vout": 0, "txid": "faf22617fc0968c41a60e4e966ac28a64489368d3ae4ce13634e5aca5a3ca2c8"}], "txid": "1d962cb036a39567cb3db1e2500e78337f9c7bf51f4803dc0f6872b3ec5e2724", "blocktime": 1537876114, "version": 1, "confirmations": 11462, "time": 1537876114, "locktime": 0, "vsize": 284, "size": 284}