{"hash": "1d9f4c6606ec1e5bba04c700fc029ed080712e2a2a6744c70d717a5df485d1ad", "blockhash": "00000000000000000024a2167bbff67b0be802c0b01cdd79e6331c2be6459f87", "vout": [{"scriptPubKey": {"reqSigs": 1, "hex": "76a91459edf165659bca930b1cc6bfbbe8b18de839c0c388ac", "addresses": ["19CWBe56SjBBpfuieQkE23rDU7eX64L5Y7"], "asm": "OP_DUP OP_HASH160 59edf165659bca930b1cc6bfbbe8b18de839c0c3 OP_EQUALVERIFY OP_CHECKSIG", "type": "pubkeyhash"}, "value": 0.13860198, "n": 0}, {"scriptPubKey": {"reqSigs": 1, "hex": "a9146fd7706b85a3127d55c623e26baccd2014fb715787", "addresses": ["3BtP1oywckGMSgTed4xELh9hz9MA1R421y"], "asm": "OP_HASH160 6fd7706b85a3127d55c623e26baccd2014fb7157 OP_EQUAL", "type": "scripthash"}, "value": 0.00780639, "n": 1}], "hex": "01000000015558b7d32b46f1bb0c9573f2032c00dc3fc5d7ce68cf2e5b6b7b4ed3998c8c6d000000006b483045022100f44775b44c44105ab7f0c922ab1c2965e206e10045faef25b7a5e6026bdbbbb502204853b54ec383f84ddbd7f6b6aceb0311101e9f083e2c1699d1a759aac18e1d670121023c949e959029e53e4e78d6aa18877764ba954828a81ccf38d2c39831d03f4de2ffffffff02667dd300000000001976a91459edf165659bca930b1cc6bfbbe8b18de839c0c388ac5fe90b000000000017a9146fd7706b85a3127d55c623e26baccd2014fb71578700000000", "vin": [{"sequence": 4294967295, "scriptSig": {"hex": "483045022100f44775b44c44105ab7f0c922ab1c2965e206e10045faef25b7a5e6026bdbbbb502204853b54ec383f84ddbd7f6b6aceb0311101e9f083e2c1699d1a759aac18e1d670121023c949e959029e53e4e78d6aa18877764ba954828a81ccf38d2c39831d03f4de2", "asm": "3045022100f44775b44c44105ab7f0c922ab1c2965e206e10045faef25b7a5e6026bdbbbb502204853b54ec383f84ddbd7f6b6aceb0311101e9f083e2c1699d1a759aac18e1d67[ALL] 023c949e959029e53e4e78d6aa18877764ba954828a81ccf38d2c39831d03f4de2"}, "vout": 0, "txid": "6d8c8c99d34e7b6b5b2ecf68ced7c53fdc002c03f273950cbbf1462bd3b75855"}], "txid": "1d9f4c6606ec1e5bba04c700fc029ed080712e2a2a6744c70d717a5df485d1ad", "blocktime": 1537870564, "version": 1, "confirmations": 11515, "time": 1537870564, "locktime": 0, "vsize": 224, "size": 224}