{"hash": "08fa85a3ecbeb663f93725ed353b26bfffe9886e276af9416e6c509d3a5000d4", "blockhash": "00000000000000000018f53835495a110e01622372bf6ae95dc86f2b0ab887b0", "vout": [{"scriptPubKey": {"reqSigs": 1, "hex": "0014bd6f9d439d6561d2468b94a610aba8caae4287e2", "addresses": ["bc1qh4he6suav4say35tjjnpp2age2hy9plzzgld9z"], "asm": "0 bd6f9d439d6561d2468b94a610aba8caae4287e2", "type": "witness_v0_keyhash"}, "value": 0.05024457, "n": 0}, {"scriptPubKey": {"reqSigs": 1, "hex": "76a9142c20056833a50a931eb1fd4737146f5a52486a0388ac", "addresses": ["152K6JouY8ySa2ce6iq3BhhDH6CxfoMCBY"], "asm": "OP_DUP OP_HASH160 2c20056833a50a931eb1fd4737146f5a52486a03 OP_EQUALVERIFY OP_CHECKSIG", "type": "pubkeyhash"}, "value": 0.02778955, "n": 1}], "hex": "01000000000101f88f4b5771134afd00f38ed94f26729fa2deea735d802593339e325be46d813600000000171600144d561d45973a00d4f598bac82a341a00c7f8acb0ffffffff02c9aa4c0000000000160014bd6f9d439d6561d2468b94a610aba8caae4287e24b672a00000000001976a9142c20056833a50a931eb1fd4737146f5a52486a0388ac02483045022100e91bb28ff4ac04ce5240ea83d408f06cb0df1777e38e85441328adb45c76b1f002207de945ff0d49c5b818facd2a75f63375e4052859ea56f5a522e265f90f0d906001210210ecfef425c35f730b99ec239e31054a8c6f179369838338de95390c35dede4b00000000", "vin": [{"txinwitness": ["3045022100e91bb28ff4ac04ce5240ea83d408f06cb0df1777e38e85441328adb45c76b1f002207de945ff0d49c5b818facd2a75f63375e4052859ea56f5a522e265f90f0d906001", "0210ecfef425c35f730b99ec239e31054a8c6f179369838338de95390c35dede4b"], "sequence": 4294967295, "scriptSig": {"hex": "1600144d561d45973a00d4f598bac82a341a00c7f8acb0", "asm": "00144d561d45973a00d4f598bac82a341a00c7f8acb0"}, "vout": 0, "txid": "36816de45b329e339325805d73eadea29f72264fd98ef300fd4a1371574b8ff8"}], "txid": "1da3a760aeebd3effbf047d3cc1243ac17048efa0382c240c7c7ecbb424f5998", "blocktime": 1537870928, "version": 1, "confirmations": 11514, "time": 1537870928, "locktime": 0, "vsize": 167, "size": 249}