{"hash": "1da4153eb951ce2de35a834d0947f84c13eb3509e600aa1729f37fd411872178", "blockhash": "0000000000000000001cda96e906b7601b7a6fb1a3b62bca570a9e5d8f4b3de1", "vout": [{"scriptPubKey": {"reqSigs": 1, "hex": "76a9143a5d3867ae56196c6c0b1124937872d36d746f0388ac", "addresses": ["16KbsBvjGJfxfVPRZFPy2cj2TKyjWpj2hz"], "asm": "OP_DUP OP_HASH160 3a5d3867ae56196c6c0b1124937872d36d746f03 OP_EQUALVERIFY OP_CHECKSIG", "type": "pubkeyhash"}, "value": 0.00546849, "n": 0}], "hex": "01000000019ba96cd8eeeadcc21602c236cc952df1f72fb4d17f317c8d10361c3f88935268010000006a473044022074bf298a552ef50d0744f362bf467c5acc5432632f10736ca2c25615a21563b9022037926aebb28ffbbadc26d3688e832b8903fafb1de5bdd75a25962108244e5f980121031a15b86437b7065000c2f49431b801e6e3b78ecfb67f0c348250cc013c0b85dcffffffff0121580800000000001976a9143a5d3867ae56196c6c0b1124937872d36d746f0388ac00000000", "vin": [{"sequence": 4294967295, "scriptSig": {"hex": "473044022074bf298a552ef50d0744f362bf467c5acc5432632f10736ca2c25615a21563b9022037926aebb28ffbbadc26d3688e832b8903fafb1de5bdd75a25962108244e5f980121031a15b86437b7065000c2f49431b801e6e3b78ecfb67f0c348250cc013c0b85dc", "asm": "3044022074bf298a552ef50d0744f362bf467c5acc5432632f10736ca2c25615a21563b9022037926aebb28ffbbadc26d3688e832b8903fafb1de5bdd75a25962108244e5f98[ALL] 031a15b86437b7065000c2f49431b801e6e3b78ecfb67f0c348250cc013c0b85dc"}, "vout": 1, "txid": "685293883f1c36108d7c317fd1b42ff7f12d95cc36c20216c2dceaeed86ca99b"}], "txid": "1da4153eb951ce2de35a834d0947f84c13eb3509e600aa1729f37fd411872178", "blocktime": 1537873282, "version": 1, "confirmations": 11484, "time": 1537873282, "locktime": 0, "vsize": 191, "size": 191}