{"hash": "68728c434ddb58a1987fd81c7aabff638d048fc484577fd13ed437de97c1cf35", "blockhash": "0000000000000000000baef3f32e3676a92c3b2e5da21b426e4f302fc371ce76", "vout": [{"scriptPubKey": {"reqSigs": 1, "hex": "a9145015fed82dcf84f4673f2e81e3e7d9667de9a74d87", "addresses": ["38zULARnPAmSu1Xa6yr6C6iezdrmwqFBEu"], "asm": "OP_HASH160 5015fed82dcf84f4673f2e81e3e7d9667de9a74d OP_EQUAL", "type": "scripthash"}, "value": 0.01229625, "n": 0}, {"scriptPubKey": {"reqSigs": 1, "hex": "76a9142e1b944fe7ffbe969fc1df8d662fd7b5d6303c9b88ac", "addresses": ["15Co856cRnFRCKwSSzECoyT3ozVhuFoJZ6"], "asm": "OP_DUP OP_HASH160 2e1b944fe7ffbe969fc1df8d662fd7b5d6303c9b OP_EQUALVERIFY OP_CHECKSIG", "type": "pubkeyhash"}, "value": 0.0026376, "n": 1}], "hex": "02000000000102276bf3f0224ace925b295d7ac1af3cddccc958bcef73462f13e58d4f617995740100000017160014e0062d22fbd7598125ec2dca78a281e3eb7f6df4feffffffd1f6087120789d5574be03146e165afaa3cbe277d798116ca007d18ef5f9dede0f00000017160014a831447e22580ed512fcdf70e93a4c5b1e4376d5feffffff0239c312000000000017a9145015fed82dcf84f4673f2e81e3e7d9667de9a74d8750060400000000001976a9142e1b944fe7ffbe969fc1df8d662fd7b5d6303c9b88ac02483045022100894b67a8209abc507c46d40bc46635959622581fc2ea492297dec74922e7da3b02201ebdd992c3e8afae445c743079de208a5392952523f29944c7a2ac731f8d2b94012102cff7e71638bfe1547d2aa51651dae8b8034c9b1fba79454c3fdafe276ba35f7e0247304402203bfe2b2b97f2aab1c0b762829982b8a66c0f283646d027c187bc5dd9e6132ebf0220447e3a6021d02d0e1fe3d9d559d060027bac38fef93d406124aac63f71b486780121024d9394b8c7b0245f7b6448d15587641be0c0e3cd19cbe6b8b8db7e4ab1d6849417490800", "vin": [{"txinwitness": ["3045022100894b67a8209abc507c46d40bc46635959622581fc2ea492297dec74922e7da3b02201ebdd992c3e8afae445c743079de208a5392952523f29944c7a2ac731f8d2b9401", "02cff7e71638bfe1547d2aa51651dae8b8034c9b1fba79454c3fdafe276ba35f7e"], "sequence": 4294967294, "scriptSig": {"hex": "160014e0062d22fbd7598125ec2dca78a281e3eb7f6df4", "asm": "0014e0062d22fbd7598125ec2dca78a281e3eb7f6df4"}, "vout": 1, "txid": "749579614f8de5132f4673efbc58c9ccdd3cafc17a5d295b92ce4a22f0f36b27"}, {"txinwitness": ["304402203bfe2b2b97f2aab1c0b762829982b8a66c0f283646d027c187bc5dd9e6132ebf0220447e3a6021d02d0e1fe3d9d559d060027bac38fef93d406124aac63f71b4867801", "024d9394b8c7b0245f7b6448d15587641be0c0e3cd19cbe6b8b8db7e4ab1d68494"], "sequence": 4294967294, "scriptSig": {"hex": "160014a831447e22580ed512fcdf70e93a4c5b1e4376d5", "asm": "0014a831447e22580ed512fcdf70e93a4c5b1e4376d5"}, "vout": 15, "txid": "dedef9f58ed107a06c1198d777e2cba3fa5a166e1403be74559d78207108f6d1"}], "txid": "1da523d5d49dc83a50e8bafadc5cbedf88b873aa83265141827026678afda74a", "blocktime": 1537876114, "version": 2, "confirmations": 11460, "time": 1537876114, "locktime": 542999, "vsize": 259, "size": 421}