{"hash": "3810cd0b6eace2614699d59e7066a97287d5a809d4cb3f649121d4c6bb4c0082", "blockhash": "000000000000000000022b45ed06c6f4ccd3cf7fb5ba4856ebd2e58215665228", "vout": [{"scriptPubKey": {"reqSigs": 1, "hex": "a914c4bace85798029da95e28c60f4fa76b7ce5f1aa387", "addresses": ["3KdE9hdHTArQ326JgPcHaYQgNyfLSsvTMx"], "asm": "OP_HASH160 c4bace85798029da95e28c60f4fa76b7ce5f1aa3 OP_EQUAL", "type": "scripthash"}, "value": 0.07818919, "n": 0}, {"scriptPubKey": {"reqSigs": 1, "hex": "a91425f90964c54cb099a1fd06d610a34e6833d7736287", "addresses": ["359oG1nRWhD6P2HguprBXEVzD7gujDbuWc"], "asm": "OP_HASH160 25f90964c54cb099a1fd06d610a34e6833d77362 OP_EQUAL", "type": "scripthash"}, "value": 0.05981879, "n": 1}], "hex": "0100000000010490bfd1fa8ccac47e60f9d48cd98cbe3fd99b47dc3306de122c3e5ffff34e23b301000000171600144f3cbed35bf433fda783d2bb1b2ca0d1104bee65fdffffffa4bee53c078ec7d290298621e3d6c77950323923f0886ad4ab695818fa5b607501000000171600144f3cbed35bf433fda783d2bb1b2ca0d1104bee65fdffffff4a6cfa764e7e1f3b37e0fc75301a7d661b250de76c8996454abccee832218d1a00000000171600144f3cbed35bf433fda783d2bb1b2ca0d1104bee65fdffffff1566953e4a4426822ad6f41ae586a03553d12198cfba3de325090000efb890bd00000000171600144f3cbed35bf433fda783d2bb1b2ca0d1104bee65fdffffff02a74e77000000000017a914c4bace85798029da95e28c60f4fa76b7ce5f1aa387b7465b000000000017a91425f90964c54cb099a1fd06d610a34e6833d773628702483045022100836f29f796db3a03bdfa3b42973a3e024ec9ded83d68968db53f666421ead6e9022009e7e5490232779c0f528e07f4de6f709acff5fad87651404e57ab0149a66eb2012102eee7b0832ec8aaf32c637ea27984300d233344f5a7cd5085aa69c894fba059e402473044022063653f6f04704b6c6503e6bf1c6eb916d8eafd366f2612856b51841dd408bb0902206bcfa4c4021661bcb0af953fdbef626aa24960483292bbe8a9154fad378534e0012102eee7b0832ec8aaf32c637ea27984300d233344f5a7cd5085aa69c894fba059e4024830450221008ba1062a54219b0ef06dfaba14a6f0bafba0ac484220551897c2fc361f8baa4a02205d84950e1fe4cf063035d07997f3ced2bc2044f31fcc21af3a5705c099b98c96012102eee7b0832ec8aaf32c637ea27984300d233344f5a7cd5085aa69c894fba059e4024730440220085bea2287f75cd8893bdb9834c7742a029ad34eecf60b9e6c406a97eda72825022048be94af9233178c2746009ebb78debda830aad7688bb44951607174975ff551012102eee7b0832ec8aaf32c637ea27984300d233344f5a7cd5085aa69c894fba059e400000000", "vin": [{"txinwitness": ["3045022100836f29f796db3a03bdfa3b42973a3e024ec9ded83d68968db53f666421ead6e9022009e7e5490232779c0f528e07f4de6f709acff5fad87651404e57ab0149a66eb201", "02eee7b0832ec8aaf32c637ea27984300d233344f5a7cd5085aa69c894fba059e4"], "sequence": 4294967293, "scriptSig": {"hex": "1600144f3cbed35bf433fda783d2bb1b2ca0d1104bee65", "asm": "00144f3cbed35bf433fda783d2bb1b2ca0d1104bee65"}, "vout": 1, "txid": "b3234ef3ff5f3e2c12de0633dc479bd93fbe8cd98cd4f9607ec4ca8cfad1bf90"}, {"txinwitness": ["3044022063653f6f04704b6c6503e6bf1c6eb916d8eafd366f2612856b51841dd408bb0902206bcfa4c4021661bcb0af953fdbef626aa24960483292bbe8a9154fad378534e001", "02eee7b0832ec8aaf32c637ea27984300d233344f5a7cd5085aa69c894fba059e4"], "sequence": 4294967293, "scriptSig": {"hex": "1600144f3cbed35bf433fda783d2bb1b2ca0d1104bee65", "asm": "00144f3cbed35bf433fda783d2bb1b2ca0d1104bee65"}, "vout": 1, "txid": "75605bfa185869abd46a88f02339325079c7d6e321862990d2c78e073ce5bea4"}, {"txinwitness": ["30450221008ba1062a54219b0ef06dfaba14a6f0bafba0ac484220551897c2fc361f8baa4a02205d84950e1fe4cf063035d07997f3ced2bc2044f31fcc21af3a5705c099b98c9601", "02eee7b0832ec8aaf32c637ea27984300d233344f5a7cd5085aa69c894fba059e4"], "sequence": 4294967293, "scriptSig": {"hex": "1600144f3cbed35bf433fda783d2bb1b2ca0d1104bee65", "asm": "00144f3cbed35bf433fda783d2bb1b2ca0d1104bee65"}, "vout": 0, "txid": "1a8d2132e8cebc4a4596896ce70d251b667d1a3075fce0373b1f7e4e76fa6c4a"}, {"txinwitness": ["30440220085bea2287f75cd8893bdb9834c7742a029ad34eecf60b9e6c406a97eda72825022048be94af9233178c2746009ebb78debda830aad7688bb44951607174975ff55101", "02eee7b0832ec8aaf32c637ea27984300d233344f5a7cd5085aa69c894fba059e4"], "sequence": 4294967293, "scriptSig": {"hex": "1600144f3cbed35bf433fda783d2bb1b2ca0d1104bee65", "asm": "00144f3cbed35bf433fda783d2bb1b2ca0d1104bee65"}, "vout": 0, "txid": "bd90b8ef00000925e33dbacf9821d15335a086e51af4d62a8226444a3e956615"}], "txid": "1da80e5177e6bdfbb07a42505062e94de2bce7af03da9cef39698a457d153a67", "blocktime": 1537869901, "version": 1, "confirmations": 11522, "time": 1537869901, "locktime": 0, "vsize": 438, "size": 762}