{"hash": "bcb7c4b86c84ea898710cbfb651f17db82b1b7ac465382205a69bd9ceb63156f", "blockhash": "0000000000000000001f76057863aec43deb6fa401d9628bb513d65a8098bfab", "vout": [{"scriptPubKey": {"reqSigs": 1, "hex": "76a914fa8363e223596e3f69fb94a094e4591b3253d12d88ac", "addresses": ["1PqbL7BezBfmYW2JTyzauPBFZ2XaN9dP3u"], "asm": "OP_DUP OP_HASH160 fa8363e223596e3f69fb94a094e4591b3253d12d OP_EQUALVERIFY OP_CHECKSIG", "type": "pubkeyhash"}, "value": 0.36, "n": 0}, {"scriptPubKey": {"reqSigs": 1, "hex": "a914da2a4993c4dd8819984bfb9319989834f255b33e87", "addresses": ["3MaZtYUy79zwF7r38GVpscK8ihf8BKRbAY"], "asm": "OP_HASH160 da2a4993c4dd8819984bfb9319989834f255b33e OP_EQUAL", "type": "scripthash"}, "value": 0.01007501, "n": 1}], "hex": "0200000000010545db4cf1683bea5ccd8636eae0984cb1b8f7818b5494057f56b7c48cc4561d5b0100000017160014a9abd69c2cc37fdb145ddafd223dcf026e432773feffffff72da1f8e26486ff3419bce73c5cb8c862c4642d13a60095ccf9a530840ae5a3101000000171600143a377c939b804f3a7b72b09b37258d6e55a9109ffeffffff80a8c2f9b3a5438e3c04da5bd717589cc44f395aeb41cc6b534d526f41a8b3a90000000017160014881a7600869b04b86b4ece4e47fbec5c15715aecfeffffff8574df0f4ae055bb81bfbc41213d86913969cd5b2f52c8fe6bb05102f40001f300000000171600147c05691a5edb33f7cdc985b527f276c36e115a46feffffffd6840423075dd30aeffbb78904381002bfb00db02d23196f5007e21ecc32eb340100000017160014a62ddb8addc185e75c66f7c131bbb1cc92e10f64feffffff0200512502000000001976a914fa8363e223596e3f69fb94a094e4591b3253d12d88ac8d5f0f000000000017a914da2a4993c4dd8819984bfb9319989834f255b33e870247304402201d91b29126696e7ea8daa37a0ac3fa14bfb7c3b9c7ef9bca768039b733b45f2d0220413d270453d9fba61bc1687363068acc314dfb205f52c8222253be7200d1f01b0121038abf4142a7167d91bf27ae0792329f683983af9b7328359e1403a40ca1e9c5c50247304402207e9cf7108f88a5b6dc6fc32e1aada40244f894cb950bd845d2e62df3dc07a1ca02206eca96cd46368cbfad8b090404d9897a0a855961d8e6c540d7f14804e0f94fbe012102976a3626da713d2863562f0b1f9c4cb9b4c79c915e9a46e66b0399b04a465cbd02483045022100ec57d58548a50f2f5d1596e1a27b7c455faac32de9ed661914b39b052e6e943a02204775878edd19210450b6c477a489fc17a7d057e07187d90d8c9ddc18ba294834012102b416d6d34b1fb0a42d6b0597b5239f556a215665d819e8713574096c0ca3fa9702483045022100b804df8c4e0e16b1ecb73ffb702adf69ec6ac58dc0921877839ffed433582d9102202bef61bc91004c8cf25db4f0c788236f6a5b9f840b404ed570bf4fe04de38ab9012102f89e5d786089b49ad43d7fe7ea40b4b40805f4e7fc9b1d816f22a05f807ea5fd02483045022100c9bd31c7badddd973d4b07e33824aef737f6d8920a67999f37ada655a12474af02201a1e250a463b0d07ecf65c519f782efd127b21f6871e49442c31ed38e96cf4fa0121031ee250792de83132a4d4e75f24493f974470e4efc62d94285d0e91669297d2e314490800", "vin": [{"txinwitness": ["304402201d91b29126696e7ea8daa37a0ac3fa14bfb7c3b9c7ef9bca768039b733b45f2d0220413d270453d9fba61bc1687363068acc314dfb205f52c8222253be7200d1f01b01", "038abf4142a7167d91bf27ae0792329f683983af9b7328359e1403a40ca1e9c5c5"], "sequence": 4294967294, "scriptSig": {"hex": "160014a9abd69c2cc37fdb145ddafd223dcf026e432773", "asm": "0014a9abd69c2cc37fdb145ddafd223dcf026e432773"}, "vout": 1, "txid": "5b1d56c48cc4b7567f0594548b81f7b8b14c98e0ea3686cd5cea3b68f14cdb45"}, {"txinwitness": ["304402207e9cf7108f88a5b6dc6fc32e1aada40244f894cb950bd845d2e62df3dc07a1ca02206eca96cd46368cbfad8b090404d9897a0a855961d8e6c540d7f14804e0f94fbe01", "02976a3626da713d2863562f0b1f9c4cb9b4c79c915e9a46e66b0399b04a465cbd"], "sequence": 4294967294, "scriptSig": {"hex": "1600143a377c939b804f3a7b72b09b37258d6e55a9109f", "asm": "00143a377c939b804f3a7b72b09b37258d6e55a9109f"}, "vout": 1, "txid": "315aae4008539acf5c09603ad142462c868ccbc573ce9b41f36f48268e1fda72"}, {"txinwitness": ["3045022100ec57d58548a50f2f5d1596e1a27b7c455faac32de9ed661914b39b052e6e943a02204775878edd19210450b6c477a489fc17a7d057e07187d90d8c9ddc18ba29483401", "02b416d6d34b1fb0a42d6b0597b5239f556a215665d819e8713574096c0ca3fa97"], "sequence": 4294967294, "scriptSig": {"hex": "160014881a7600869b04b86b4ece4e47fbec5c15715aec", "asm": "0014881a7600869b04b86b4ece4e47fbec5c15715aec"}, "vout": 0, "txid": "a9b3a8416f524d536bcc41eb5a394fc49c5817d75bda043c8e43a5b3f9c2a880"}, {"txinwitness": ["3045022100b804df8c4e0e16b1ecb73ffb702adf69ec6ac58dc0921877839ffed433582d9102202bef61bc91004c8cf25db4f0c788236f6a5b9f840b404ed570bf4fe04de38ab901", "02f89e5d786089b49ad43d7fe7ea40b4b40805f4e7fc9b1d816f22a05f807ea5fd"], "sequence": 4294967294, "scriptSig": {"hex": "1600147c05691a5edb33f7cdc985b527f276c36e115a46", "asm": "00147c05691a5edb33f7cdc985b527f276c36e115a46"}, "vout": 0, "txid": "f30100f40251b06bfec8522f5bcd693991863d2141bcbf81bb55e04a0fdf7485"}, {"txinwitness": ["3045022100c9bd31c7badddd973d4b07e33824aef737f6d8920a67999f37ada655a12474af02201a1e250a463b0d07ecf65c519f782efd127b21f6871e49442c31ed38e96cf4fa01", "031ee250792de83132a4d4e75f24493f974470e4efc62d94285d0e91669297d2e3"], "sequence": 4294967294, "scriptSig": {"hex": "160014a62ddb8addc185e75c66f7c131bbb1cc92e10f64", "asm": "0014a62ddb8addc185e75c66f7c131bbb1cc92e10f64"}, "vout": 1, "txid": "34eb32cc1ee207506f19232db00db0bf0210380489b7fbef0ad35d07230484d6"}], "txid": "1db1a67da4587809e383fc22714bae3904e33d51f0b22cb7f126fe4d96727437", "blocktime": 1537873891, "version": 2, "confirmations": 11479, "time": 1537873891, "locktime": 542996, "vsize": 531, "size": 936}