{"hash": "31fe34c582232c316d04abc464c7a6a3be032f228bf993676a67514f2abefda5", "blockhash": "00000000000000000018f53835495a110e01622372bf6ae95dc86f2b0ab887b0", "vout": [{"scriptPubKey": {"reqSigs": 1, "hex": "a91430897cc6c9d69f6a2c2f1c651d51f22219f1a4f687", "addresses": ["367f4YWz1VCFaqBqwbTrzwi2b1h2U3w1AF"], "asm": "OP_HASH160 30897cc6c9d69f6a2c2f1c651d51f22219f1a4f6 OP_EQUAL", "type": "scripthash"}, "value": 0.30421236, "n": 0}, {"scriptPubKey": {"reqSigs": 1, "hex": "a914b0d11eb04081f3eb935587eb21d0bb04e014b4dc87", "addresses": ["3HowND7cpt9UjA9GdqdmGJ41ZBXW2x8znB"], "asm": "OP_HASH160 b0d11eb04081f3eb935587eb21d0bb04e014b4dc OP_EQUAL", "type": "scripthash"}, "value": 0.11056099, "n": 1}], "hex": "010000000001018a38cc2b915fc0a6455b1e32bd26527eedf1d9ee21422b8cd1a7688f4b7b8d9a0000000023220020bcf9f822194145acea0f3235f4107b5bf1a91b6b9f8489f63bf79ec29b360913ffffffff02f430d0010000000017a91430897cc6c9d69f6a2c2f1c651d51f22219f1a4f687e3b3a8000000000017a914b0d11eb04081f3eb935587eb21d0bb04e014b4dc870400483045022100e50bfc965f25a54cf90f8fed7a60b2be268f898fb40fd4a6d2b770c99cf3376f0220117b07efd0f5ea27709eb6edf36cd7eaa5fd31565b4dc58915bc36e1788af5540147304402200b2b4f85faca3ea021bf40d35a89a19d42bdf18dec103645932f186bffeae5a0022020423b9feb86a34e81405f33ac5f1fcbf14006704f9ebb2ae75263fc260d2b3901695221026c8f72b9e63db63907115e65d4da86eaae595b22fdc85ec75301bb4adbf203582103806535be3e3920e5eedee92de5714188fd6a784f2bf7b04f87de0b9c3ae1ecdb21024b23bfdce2afcae7e28c42f7f79aa100f22931712c52d7414a526ba494d44a2553ae00000000", "vin": [{"txinwitness": ["", "3045022100e50bfc965f25a54cf90f8fed7a60b2be268f898fb40fd4a6d2b770c99cf3376f0220117b07efd0f5ea27709eb6edf36cd7eaa5fd31565b4dc58915bc36e1788af55401", "304402200b2b4f85faca3ea021bf40d35a89a19d42bdf18dec103645932f186bffeae5a0022020423b9feb86a34e81405f33ac5f1fcbf14006704f9ebb2ae75263fc260d2b3901", "5221026c8f72b9e63db63907115e65d4da86eaae595b22fdc85ec75301bb4adbf203582103806535be3e3920e5eedee92de5714188fd6a784f2bf7b04f87de0b9c3ae1ecdb21024b23bfdce2afcae7e28c42f7f79aa100f22931712c52d7414a526ba494d44a2553ae"], "sequence": 4294967295, "scriptSig": {"hex": "220020bcf9f822194145acea0f3235f4107b5bf1a91b6b9f8489f63bf79ec29b360913", "asm": "0020bcf9f822194145acea0f3235f4107b5bf1a91b6b9f8489f63bf79ec29b360913"}, "vout": 0, "txid": "9a8d7b4b8f68a7d18c2b4221eed9f1ed7e5226bd321e5b45a6c05f912bcc388a"}], "txid": "1db29f59d17ca712b7a3092699dc3e7101d97fd199cc2f3bd718a6534ba6694b", "blocktime": 1537870928, "version": 1, "confirmations": 11512, "time": 1537870928, "locktime": 0, "vsize": 214, "size": 405}