{"hash": "d7622f5b78f0e2584395c722434558ca0c33d85b3baa09ea8e9853afb6ff0573", "blockhash": "0000000000000000000e13cef7c366c0283d82e591d1acd082e914b08063cdf1", "vout": [{"scriptPubKey": {"reqSigs": 1, "hex": "00149e48713e75988b7f11b0e614a79d63edb53f21a1", "addresses": ["bc1qney8z0n4nz9h7ydsuc2208trak6n7gdp28psj5"], "asm": "0 9e48713e75988b7f11b0e614a79d63edb53f21a1", "type": "witness_v0_keyhash"}, "value": 1.91208964, "n": 0}, {"scriptPubKey": {"reqSigs": 1, "hex": "a9148a4fe4cfc30f4cb5f275f7e8ae69acb7bdf3dd8187", "addresses": ["3EJLt8kuqrFBCZovinPGcwn4ZqoTubUYri"], "asm": "OP_HASH160 8a4fe4cfc30f4cb5f275f7e8ae69acb7bdf3dd81 OP_EQUAL", "type": "scripthash"}, "value": 0.00779507, "n": 1}], "hex": "010000000001015fc42e85d35791030cc7b7ad9f0758d928b31e31523ffd8560a2fb8bd382d7f50100000000ffffffff02049e650b000000001600149e48713e75988b7f11b0e614a79d63edb53f21a1f3e40b000000000017a9148a4fe4cfc30f4cb5f275f7e8ae69acb7bdf3dd8187024830450221009f1e86f1d748089245b5680d03a62b0c7dda617c38ee44b89e5b46000f1e578702202bae4e9f3068d02617c1471320a2fc4cf9ab5456834ab07572062f60fb5bd5d5012102d919c0baa1d7842de376cdf28d4fd40af2317e5fd7baf8315296169f51543d1000000000", "vin": [{"txinwitness": ["30450221009f1e86f1d748089245b5680d03a62b0c7dda617c38ee44b89e5b46000f1e578702202bae4e9f3068d02617c1471320a2fc4cf9ab5456834ab07572062f60fb5bd5d501", "02d919c0baa1d7842de376cdf28d4fd40af2317e5fd7baf8315296169f51543d10"], "sequence": 4294967295, "scriptSig": {"hex": "", "asm": ""}, "vout": 1, "txid": "f5d782d38bfba26085fd3f52311eb328d958079fadb7c70c039157d3852ec45f"}], "txid": "1db293edb09e15d90551e28ae3c734f45a3e53c973015095f12f99ccd9d4a988", "blocktime": 1537871767, "version": 1, "confirmations": 11495, "time": 1537871767, "locktime": 0, "vsize": 142, "size": 224}