{"hash": "1db3d55d92d8f575950ee1ff70d804fa23c22d7af1abcfab5d7e430c64e3d496", "blockhash": "00000000000000000017f5eb5941039fbcee6240d03bc1f2f8e35350df66a1d8", "vout": [{"scriptPubKey": {"reqSigs": 1, "hex": "76a91445bd4ddb2165475b5e94da79b4e6b77e164d5be488ac", "addresses": ["17MkQKR2YDgKHvV7wEt3ddZdR3n3MAp46A"], "asm": "OP_DUP OP_HASH160 45bd4ddb2165475b5e94da79b4e6b77e164d5be4 OP_EQUALVERIFY OP_CHECKSIG", "type": "pubkeyhash"}, "value": 0.05527257, "n": 0}, {"scriptPubKey": {"reqSigs": 1, "hex": "76a9142277a149329577d7c37d37898928199908300e9e88ac", "addresses": ["149FHZbSjSn2oXudApRDDbLnfRXTrcCity"], "asm": "OP_DUP OP_HASH160 2277a149329577d7c37d37898928199908300e9e OP_EQUALVERIFY OP_CHECKSIG", "type": "pubkeyhash"}, "value": 1.0, "n": 1}], "hex": "0100000002964cc9b2a5cf170910bbdb491d352c676fad262fc0635a9f8d0633c64955a432010000006a473044022038b215adf42e0f136452287dd11560f04565675ef3ee382370ceb28278d3ac5e02201dbe8fffe931ba4e7f87a439b37b0264ef521c635e3cd828a958cbe98defdeed012103acd4dceebcccf3d750a89830fcc4bd65abfe026afe7222845ce5ed8ee1814a99ffffffffaa6e4b88a1b5b964b210ca1fbd7c91a65090f642ea46e544fb35fc7fbcbd67aa000000006b483045022100a270f23bd4bcfda971f742e258150aece471f4eb0afa6546b8b0bef184a6cf8e02202e1bd62ecd52559da956d8782a650f03c63f2500e0b1a8078c5930fb81d57bce012103ad8a276344133edc8657964de2cdd3ebb6e5d5a0785baa6ca1fc79b95d475c0fffffffff02d9565400000000001976a91445bd4ddb2165475b5e94da79b4e6b77e164d5be488ac00e1f505000000001976a9142277a149329577d7c37d37898928199908300e9e88ac00000000", "vin": [{"sequence": 4294967295, "scriptSig": {"hex": "473044022038b215adf42e0f136452287dd11560f04565675ef3ee382370ceb28278d3ac5e02201dbe8fffe931ba4e7f87a439b37b0264ef521c635e3cd828a958cbe98defdeed012103acd4dceebcccf3d750a89830fcc4bd65abfe026afe7222845ce5ed8ee1814a99", "asm": "3044022038b215adf42e0f136452287dd11560f04565675ef3ee382370ceb28278d3ac5e02201dbe8fffe931ba4e7f87a439b37b0264ef521c635e3cd828a958cbe98defdeed[ALL] 03acd4dceebcccf3d750a89830fcc4bd65abfe026afe7222845ce5ed8ee1814a99"}, "vout": 1, "txid": "32a45549c633068d9f5a63c02f26ad6f672c351d49dbbb100917cfa5b2c94c96"}, {"sequence": 4294967295, "scriptSig": {"hex": "483045022100a270f23bd4bcfda971f742e258150aece471f4eb0afa6546b8b0bef184a6cf8e02202e1bd62ecd52559da956d8782a650f03c63f2500e0b1a8078c5930fb81d57bce012103ad8a276344133edc8657964de2cdd3ebb6e5d5a0785baa6ca1fc79b95d475c0f", "asm": "3045022100a270f23bd4bcfda971f742e258150aece471f4eb0afa6546b8b0bef184a6cf8e02202e1bd62ecd52559da956d8782a650f03c63f2500e0b1a8078c5930fb81d57bce[ALL] 03ad8a276344133edc8657964de2cdd3ebb6e5d5a0785baa6ca1fc79b95d475c0f"}, "vout": 0, "txid": "aa67bdbc7ffc35fb44e546ea42f69050a6917cbd1fca10b264b9b5a1884b6eaa"}], "txid": "1db3d55d92d8f575950ee1ff70d804fa23c22d7af1abcfab5d7e430c64e3d496", "blocktime": 1537874412, "version": 1, "confirmations": 11467, "time": 1537874412, "locktime": 0, "vsize": 373, "size": 373}