{"hash": "33552c4df6c1c33067b9b1a9de0132880a77c9734e54c0493d2875e4fc43b5b5", "blockhash": "00000000000000000017f5eb5941039fbcee6240d03bc1f2f8e35350df66a1d8", "vout": [{"scriptPubKey": {"reqSigs": 1, "hex": "76a91459a201c70bc0152324aba6e12007463fd061134e88ac", "addresses": ["19AwDWjeQbo1mbi9benqbAUSneqP2gG1yf"], "asm": "OP_DUP OP_HASH160 59a201c70bc0152324aba6e12007463fd061134e OP_EQUALVERIFY OP_CHECKSIG", "type": "pubkeyhash"}, "value": 0.00899789, "n": 0}, {"scriptPubKey": {"reqSigs": 1, "hex": "00144e4dc7de8fbab2276f2944361b9072ccbf821286", "addresses": ["bc1qfexu0h50h2ezwmefgsmphyrjejlcyy5xc8cwmh"], "asm": "0 4e4dc7de8fbab2276f2944361b9072ccbf821286", "type": "witness_v0_keyhash"}, "value": 0.59534496, "n": 1}], "hex": "01000000000101d1913bd49164c5fa429e14a3e1f085539ffd37c490601c5785f9e1fa260bfcf20100000000ffffffff02cdba0d00000000001976a91459a201c70bc0152324aba6e12007463fd061134e88aca06c8c03000000001600144e4dc7de8fbab2276f2944361b9072ccbf8212860248304502210080af857215f499575f19d3f8109a8ba046660660100558d6c8749c40d663950f02203caf1c29a9f6471965280e33970169d995bf283a77ac0e756f78981e35a6fd73012102818d329b8c2cd3910f11a1d28d0ce44c20b284ae57b5e9986ab1624f525dbed600000000", "vin": [{"txinwitness": ["304502210080af857215f499575f19d3f8109a8ba046660660100558d6c8749c40d663950f02203caf1c29a9f6471965280e33970169d995bf283a77ac0e756f78981e35a6fd7301", "02818d329b8c2cd3910f11a1d28d0ce44c20b284ae57b5e9986ab1624f525dbed6"], "sequence": 4294967295, "scriptSig": {"hex": "", "asm": ""}, "vout": 1, "txid": "f2fc0b26fae1f985571c6090c437fd9f5385f0e1a3149e42fac56491d43b91d1"}], "txid": "1db6b3037a689398d06275c384aa4a4c347c27e018b2cd2cd7f7481fb365bcf1", "blocktime": 1537874412, "version": 1, "confirmations": 11467, "time": 1537874412, "locktime": 0, "vsize": 144, "size": 226}