{"hash": "1db9ea27593fc8512f053c1c43c5b9154fea96ff16ae22fddbd68c68613c476c", "blockhash": "0000000000000000001f0ddff1eddb255c1121bcd4da4f1bc9a0da00cae72433", "vout": [{"scriptPubKey": {"reqSigs": 1, "hex": "a914f64da167079c0a1839ba0de58bd4b0e59e2a714687", "addresses": ["3Q9M9bRFsHNxRtTZVYkEWGNuMW1HgW3fA2"], "asm": "OP_HASH160 f64da167079c0a1839ba0de58bd4b0e59e2a7146 OP_EQUAL", "type": "scripthash"}, "value": 0.00312404, "n": 0}, {"scriptPubKey": {"reqSigs": 1, "hex": "76a914e62e799c441152c8f645d376e8590563c875b93888ac", "addresses": ["1Mz66GHC3GMEFYDqS795DPWX7HqHJbXyUa"], "asm": "OP_DUP OP_HASH160 e62e799c441152c8f645d376e8590563c875b938 OP_EQUALVERIFY OP_CHECKSIG", "type": "pubkeyhash"}, "value": 0.03559859, "n": 1}], "hex": "0100000001a40e6ca055778aa4b7cbdc79231ca6416f2d26d5fa9994ab38845d1b0c864e4b010000006a47304402206076a3f647dc872a32f3d3332041221242ae6977ec7c3ad083b9c3d08525ee0602203625aa122a0adab8c218b8c873990b47bd4033480974e86ec05e10eb729fa73b012103c3f80ec3c6bfd26cf236b95dd39d8eda789edcdbf9a5d9a460d5bf942a8ef898ffffffff0254c404000000000017a914f64da167079c0a1839ba0de58bd4b0e59e2a714687b3513600000000001976a914e62e799c441152c8f645d376e8590563c875b93888ac00000000", "vin": [{"sequence": 4294967295, "scriptSig": {"hex": "47304402206076a3f647dc872a32f3d3332041221242ae6977ec7c3ad083b9c3d08525ee0602203625aa122a0adab8c218b8c873990b47bd4033480974e86ec05e10eb729fa73b012103c3f80ec3c6bfd26cf236b95dd39d8eda789edcdbf9a5d9a460d5bf942a8ef898", "asm": "304402206076a3f647dc872a32f3d3332041221242ae6977ec7c3ad083b9c3d08525ee0602203625aa122a0adab8c218b8c873990b47bd4033480974e86ec05e10eb729fa73b[ALL] 03c3f80ec3c6bfd26cf236b95dd39d8eda789edcdbf9a5d9a460d5bf942a8ef898"}, "vout": 1, "txid": "4b4e860c1b5d8438ab9499fad5262d6f41a61c2379dccbb7a48a7755a06c0ea4"}], "txid": "1db9ea27593fc8512f053c1c43c5b9154fea96ff16ae22fddbd68c68613c476c", "blocktime": 1537872018, "version": 1, "confirmations": 11489, "time": 1537872018, "locktime": 0, "vsize": 223, "size": 223}