{"hash": "1dbb62baacf84f0231262130f635bf6bbdb5b56c703a5307043e70750420be10", "blockhash": "0000000000000000001f0ddff1eddb255c1121bcd4da4f1bc9a0da00cae72433", "vout": [{"scriptPubKey": {"reqSigs": 1, "hex": "76a914ef1d49f0c6dc40692fd81a8617cab0b87ba5e1b188ac", "addresses": ["1NoKasXHB1ZetaCW5Wg6UmfjY6g7bRiKf6"], "asm": "OP_DUP OP_HASH160 ef1d49f0c6dc40692fd81a8617cab0b87ba5e1b1 OP_EQUALVERIFY OP_CHECKSIG", "type": "pubkeyhash"}, "value": 0.00088501, "n": 0}, {"scriptPubKey": {"reqSigs": 1, "hex": "76a914f2442f2b5318a4d97c9ac3b51d1780c3c939a39388ac", "addresses": ["1P5zCwzDHu5RWVbutNjKAmNg9vLZk75UNL"], "asm": "OP_DUP OP_HASH160 f2442f2b5318a4d97c9ac3b51d1780c3c939a393 OP_EQUALVERIFY OP_CHECKSIG", "type": "pubkeyhash"}, "value": 0.036, "n": 1}], "hex": "01000000019f4879f287804fd9c96a4d6ae033d1a0a39af65414f8399ca41a155136e6c7750a0000006b483045022100eccd5b21beb2737efecd26b1b7c79c7c6cc589b2feed3e859e5fe2d566a5267602203ef7c8517b561577b5582810c4579a87ef6c7d42c2cb9209ab28919a119b8bca01210204d5d19fad2e81f7bb74cf1462cb0f272e75d597fc221b4ac424a2d2d6b04463fdffffff02b5590100000000001976a914ef1d49f0c6dc40692fd81a8617cab0b87ba5e1b188ac80ee3600000000001976a914f2442f2b5318a4d97c9ac3b51d1780c3c939a39388ac10490800", "vin": [{"sequence": 4294967293, "scriptSig": {"hex": "483045022100eccd5b21beb2737efecd26b1b7c79c7c6cc589b2feed3e859e5fe2d566a5267602203ef7c8517b561577b5582810c4579a87ef6c7d42c2cb9209ab28919a119b8bca01210204d5d19fad2e81f7bb74cf1462cb0f272e75d597fc221b4ac424a2d2d6b04463", "asm": "3045022100eccd5b21beb2737efecd26b1b7c79c7c6cc589b2feed3e859e5fe2d566a5267602203ef7c8517b561577b5582810c4579a87ef6c7d42c2cb9209ab28919a119b8bca[ALL] 0204d5d19fad2e81f7bb74cf1462cb0f272e75d597fc221b4ac424a2d2d6b04463"}, "vout": 10, "txid": "75c7e63651151aa49c39f81454f69aa3a0d133e06a4d6ac9d94f8087f279489f"}], "txid": "1dbb62baacf84f0231262130f635bf6bbdb5b56c703a5307043e70750420be10", "blocktime": 1537872018, "version": 1, "confirmations": 11489, "time": 1537872018, "locktime": 542992, "vsize": 226, "size": 226}