{"hash": "1dbc30fcc7b65a1c11ffd4373509cad0f0e75178f401928fd315743278d1d83d", "blockhash": "000000000000000000022b45ed06c6f4ccd3cf7fb5ba4856ebd2e58215665228", "vout": [{"scriptPubKey": {"reqSigs": 1, "hex": "76a914336d24572c9dc5a686590419b801c7be69b0219988ac", "addresses": ["15gvD6mBgzEqXdBtwDyQhCk9LanydKS5WX"], "asm": "OP_DUP OP_HASH160 336d24572c9dc5a686590419b801c7be69b02199 OP_EQUALVERIFY OP_CHECKSIG", "type": "pubkeyhash"}, "value": 0.04890525, "n": 0}, {"scriptPubKey": {"reqSigs": 1, "hex": "76a9147c58d1d2f4fe3055d8a3f1741e0e232ca5ec0a2e88ac", "addresses": ["1CLVC5oGqmZReHKqT676QXqzAk3vDSMyqd"], "asm": "OP_DUP OP_HASH160 7c58d1d2f4fe3055d8a3f1741e0e232ca5ec0a2e OP_EQUALVERIFY OP_CHECKSIG", "type": "pubkeyhash"}, "value": 16.457682, "n": 1}], "hex": "0200000001c1b35cd32856ebcfea391de27901939ee378143777ea4e2001c234a94feef6f1010000006b483045022100829695556866345a762d3a9825df625182933278b8207dc8325434ca8c9938f402202f3d18d52221babbc405417ab88dd0a2972869502590ec2bf1d132083d4c85910121028edc1540d6e1158301da6de35a342b5f7b1533395e97a1357d61f2f03246ea8bffffffff029d9f4a00000000001976a914336d24572c9dc5a686590419b801c7be69b0219988ac086e1862000000001976a9147c58d1d2f4fe3055d8a3f1741e0e232ca5ec0a2e88ac00000000", "vin": [{"sequence": 4294967295, "scriptSig": {"hex": "483045022100829695556866345a762d3a9825df625182933278b8207dc8325434ca8c9938f402202f3d18d52221babbc405417ab88dd0a2972869502590ec2bf1d132083d4c85910121028edc1540d6e1158301da6de35a342b5f7b1533395e97a1357d61f2f03246ea8b", "asm": "3045022100829695556866345a762d3a9825df625182933278b8207dc8325434ca8c9938f402202f3d18d52221babbc405417ab88dd0a2972869502590ec2bf1d132083d4c8591[ALL] 028edc1540d6e1158301da6de35a342b5f7b1533395e97a1357d61f2f03246ea8b"}, "vout": 1, "txid": "f1f6ee4fa934c201204eea77371478e39e930179e21d39eacfeb5628d35cb3c1"}], "txid": "1dbc30fcc7b65a1c11ffd4373509cad0f0e75178f401928fd315743278d1d83d", "blocktime": 1537869901, "version": 2, "confirmations": 11524, "time": 1537869901, "locktime": 0, "vsize": 226, "size": 226}