{"hash": "1dbfca5dfd116e8968edfacacbf2b5992d7ad446d7098ba7c8ee3f61b23d19cc", "blockhash": "00000000000000000018f53835495a110e01622372bf6ae95dc86f2b0ab887b0", "vout": [{"scriptPubKey": {"reqSigs": 1, "hex": "76a914cff5fb750bc48054d02902548ea80e9c040dd15a88ac", "addresses": ["1KxbYrdBbHaSSVtJozW36sP7DdAtGLL68y"], "asm": "OP_DUP OP_HASH160 cff5fb750bc48054d02902548ea80e9c040dd15a OP_EQUALVERIFY OP_CHECKSIG", "type": "pubkeyhash"}, "value": 0.03645331, "n": 0}, {"scriptPubKey": {"type": "nulldata", "hex": "6a146f6d6e69000000000000001f00000004a817c800", "asm": "OP_RETURN 6f6d6e69000000000000001f00000004a817c800"}, "value": 0.0, "n": 1}, {"scriptPubKey": {"reqSigs": 1, "hex": "76a91486a5f21b013e342a9aacdfede14d80c7ed41298888ac", "addresses": ["1DGxLpMDh9wX93PNCR9M99Y2e6tev8Bv2Z"], "asm": "OP_DUP OP_HASH160 86a5f21b013e342a9aacdfede14d80c7ed412988 OP_EQUALVERIFY OP_CHECKSIG", "type": "pubkeyhash"}, "value": 5.46e-06, "n": 2}], "hex": "01000000014d25edc288b56d37aede6f164ac041e8b233e12a7b1eb1517392d390b3b70a37000000006b483045022100c2d7105cc10575fb42edaa3a99c47f69eed9751ab5eb5f9a6287356d4f6666460220212d262fca85a24f3caee275a6b95fd1cd819e12a461e52779e73f77bd180eba0121034c9ee28259d5e83fc3b92adc9f2d784bb204330205de629c33336451f91808faffffffff03939f3700000000001976a914cff5fb750bc48054d02902548ea80e9c040dd15a88ac0000000000000000166a146f6d6e69000000000000001f00000004a817c80022020000000000001976a91486a5f21b013e342a9aacdfede14d80c7ed41298888ac00000000", "vin": [{"sequence": 4294967295, "scriptSig": {"hex": "483045022100c2d7105cc10575fb42edaa3a99c47f69eed9751ab5eb5f9a6287356d4f6666460220212d262fca85a24f3caee275a6b95fd1cd819e12a461e52779e73f77bd180eba0121034c9ee28259d5e83fc3b92adc9f2d784bb204330205de629c33336451f91808fa", "asm": "3045022100c2d7105cc10575fb42edaa3a99c47f69eed9751ab5eb5f9a6287356d4f6666460220212d262fca85a24f3caee275a6b95fd1cd819e12a461e52779e73f77bd180eba[ALL] 034c9ee28259d5e83fc3b92adc9f2d784bb204330205de629c33336451f91808fa"}, "vout": 0, "txid": "370ab7b390d3927351b11e7b2ae133b2e841c04a166fdeae376db588c2ed254d"}], "txid": "1dbfca5dfd116e8968edfacacbf2b5992d7ad446d7098ba7c8ee3f61b23d19cc", "blocktime": 1537870928, "version": 1, "confirmations": 11512, "time": 1537870928, "locktime": 0, "vsize": 257, "size": 257}