{"hash": "1dc4053710d9e90d62b9b385d094782ea4274be425d713890105a7f7cd2bd7ba", "blockhash": "0000000000000000001f76057863aec43deb6fa401d9628bb513d65a8098bfab", "vout": [{"scriptPubKey": {"reqSigs": 1, "hex": "76a9144d4cd9d89e9b7a173b609d892cbd792a5095daeb88ac", "addresses": ["183j6UDwsJV7EaLgA3LAUGBUuakBp3ENqV"], "asm": "OP_DUP OP_HASH160 4d4cd9d89e9b7a173b609d892cbd792a5095daeb OP_EQUALVERIFY OP_CHECKSIG", "type": "pubkeyhash"}, "value": 0.00050423, "n": 0}, {"scriptPubKey": {"reqSigs": 1, "hex": "76a9140fad1293804f83c6829966bc4d44620d4bc1a9e388ac", "addresses": ["12RtUArm4xYnohAJ8XkK9zBHe5us2MWpLT"], "asm": "OP_DUP OP_HASH160 0fad1293804f83c6829966bc4d44620d4bc1a9e3 OP_EQUALVERIFY OP_CHECKSIG", "type": "pubkeyhash"}, "value": 9.24062628, "n": 1}], "hex": "01000000022f93588e778a5477f6215a5c9d3f3f514e927d990040d3cdbfc79f76dcb53912000000006a4730440220475fc92e08978fbd9eaa06cc40768d152601c3b04b3c27c52dfeef38db0eb331022071638ed997e4c46be63f876986c22d3c6f7bb0b8aaf77d7f02f1c1cab69f4fee012103dd9832abd56ebda9c29db09b4737982e06732375a7b617bcd50dbe8c707260f1ffffffffd2e6cb671af663be8dc3a19dfaf464e1c99f2b40e7039b7bba208f350d1bf726010000006b483045022100e7546c4ef5bf88a0ba863f3f957b71a79cfc8b042bd374306307f8178782b35a02202f7239e26305baa5a298b50f38c6de2cc1c91a83f2abd3595eb93e6dec26d80f012102f3600d4c1500068f487177ff0e6ef9f3b871963c21bed11f875be918639a7ea3ffffffff02f7c40000000000001976a9144d4cd9d89e9b7a173b609d892cbd792a5095daeb88aca4131437000000001976a9140fad1293804f83c6829966bc4d44620d4bc1a9e388ac00000000", "vin": [{"sequence": 4294967295, "scriptSig": {"hex": "4730440220475fc92e08978fbd9eaa06cc40768d152601c3b04b3c27c52dfeef38db0eb331022071638ed997e4c46be63f876986c22d3c6f7bb0b8aaf77d7f02f1c1cab69f4fee012103dd9832abd56ebda9c29db09b4737982e06732375a7b617bcd50dbe8c707260f1", "asm": "30440220475fc92e08978fbd9eaa06cc40768d152601c3b04b3c27c52dfeef38db0eb331022071638ed997e4c46be63f876986c22d3c6f7bb0b8aaf77d7f02f1c1cab69f4fee[ALL] 03dd9832abd56ebda9c29db09b4737982e06732375a7b617bcd50dbe8c707260f1"}, "vout": 0, "txid": "1239b5dc769fc7bfcdd34000997d924e513f3f9d5c5a21f677548a778e58932f"}, {"sequence": 4294967295, "scriptSig": {"hex": "483045022100e7546c4ef5bf88a0ba863f3f957b71a79cfc8b042bd374306307f8178782b35a02202f7239e26305baa5a298b50f38c6de2cc1c91a83f2abd3595eb93e6dec26d80f012102f3600d4c1500068f487177ff0e6ef9f3b871963c21bed11f875be918639a7ea3", "asm": "3045022100e7546c4ef5bf88a0ba863f3f957b71a79cfc8b042bd374306307f8178782b35a02202f7239e26305baa5a298b50f38c6de2cc1c91a83f2abd3595eb93e6dec26d80f[ALL] 02f3600d4c1500068f487177ff0e6ef9f3b871963c21bed11f875be918639a7ea3"}, "vout": 1, "txid": "26f71b0d358f20ba7b9b03e7402b9fc9e164f4fa9da1c38dbe63f61a67cbe6d2"}], "txid": "1dc4053710d9e90d62b9b385d094782ea4274be425d713890105a7f7cd2bd7ba", "blocktime": 1537873891, "version": 1, "confirmations": 11478, "time": 1537873891, "locktime": 0, "vsize": 373, "size": 373}