{"hash": "1dc49f1ae3094e4957c02e9a1fcec7f1b4de984ec5aeeecaf74f61b2c45de0db", "blockhash": "00000000000000000004ffacab907a6b429b9a5745fa0b75af4234bf69dd7176", "vout": [{"scriptPubKey": {"reqSigs": 1, "hex": "76a914f3e85c001089508b63bf649887d0e465ed8a0fb388ac", "addresses": ["1PEfZEBY1eoboayDeDmYsStB9Q8UShgVpy"], "asm": "OP_DUP OP_HASH160 f3e85c001089508b63bf649887d0e465ed8a0fb3 OP_EQUALVERIFY OP_CHECKSIG", "type": "pubkeyhash"}, "value": 0.00102019, "n": 0}, {"scriptPubKey": {"reqSigs": 1, "hex": "76a9148b15e5c97ca2a5e6f42b51d48a327af4a37d012488ac", "addresses": ["1DgRA8w1e5eHAiFcQcoZAT35TotMpLrUem"], "asm": "OP_DUP OP_HASH160 8b15e5c97ca2a5e6f42b51d48a327af4a37d0124 OP_EQUALVERIFY OP_CHECKSIG", "type": "pubkeyhash"}, "value": 0.00307566, "n": 1}], "hex": "01000000014e1a1f3d618ff453a4021b0172fe874175ce3163972d82a31a65d60a542da381010000006b483045022100a85ca5bf472014e642b280daca9a1314a220f79f9e3c5b8c588c4dae2ee3d9d302203b615a0d8c38c0f8709cd9a45ddbcf5eaf97e283e9a86da65bcda670fb57483901210306026c3b601f2e7d8db67cf834f6e22ddf003e2afca5604bcbbbd4b904b4fdb4ffffffff02838e0100000000001976a914f3e85c001089508b63bf649887d0e465ed8a0fb388ac6eb10400000000001976a9148b15e5c97ca2a5e6f42b51d48a327af4a37d012488ac00000000", "vin": [{"sequence": 4294967295, "scriptSig": {"hex": "483045022100a85ca5bf472014e642b280daca9a1314a220f79f9e3c5b8c588c4dae2ee3d9d302203b615a0d8c38c0f8709cd9a45ddbcf5eaf97e283e9a86da65bcda670fb57483901210306026c3b601f2e7d8db67cf834f6e22ddf003e2afca5604bcbbbd4b904b4fdb4", "asm": "3045022100a85ca5bf472014e642b280daca9a1314a220f79f9e3c5b8c588c4dae2ee3d9d302203b615a0d8c38c0f8709cd9a45ddbcf5eaf97e283e9a86da65bcda670fb574839[ALL] 0306026c3b601f2e7d8db67cf834f6e22ddf003e2afca5604bcbbbd4b904b4fdb4"}, "vout": 1, "txid": "81a32d540ad6651aa3822d976331ce754187fe72011b02a453f48f613d1f1a4e"}], "txid": "1dc49f1ae3094e4957c02e9a1fcec7f1b4de984ec5aeeecaf74f61b2c45de0db", "blocktime": 1537875543, "version": 1, "confirmations": 11464, "time": 1537875543, "locktime": 0, "vsize": 226, "size": 226}