{"hash": "fade9f334f2a4a95014050bd655b11df724493befd9c13782d53b400aa15fa14", "blockhash": "000000000000000000022b45ed06c6f4ccd3cf7fb5ba4856ebd2e58215665228", "vout": [{"scriptPubKey": {"reqSigs": 1, "hex": "76a9145c9ef653a4727ac27b54fd182eee988058dde40688ac", "addresses": ["19SjbY8GJP6QBSBY67qPZUQqjm4dLL1Fgm"], "asm": "OP_DUP OP_HASH160 5c9ef653a4727ac27b54fd182eee988058dde406 OP_EQUALVERIFY OP_CHECKSIG", "type": "pubkeyhash"}, "value": 0.0041586, "n": 0}, {"scriptPubKey": {"reqSigs": 1, "hex": "a91413783e2a2dcbe7cc45c7ce28455f9999e62f4ff487", "addresses": ["33Txookg5iQGg5JJ5fghaeAuQ8hzMxGdWm"], "asm": "OP_HASH160 13783e2a2dcbe7cc45c7ce28455f9999e62f4ff4 OP_EQUAL", "type": "scripthash"}, "value": 0.0100017, "n": 1}], "hex": "0200000000010230a3120474f5efd1dc46b9c77c3227c43455b13579b921cfcc16c02e5a2235a200000000171600145fb09493faafe33c76d3c9b98d6ca63c29ba47a8feffffff355617a57e9410568d227f72914f13a235d65fff01dc69cb1089de5569f1721b0000000017160014e0bc5a63ea69fc3e30c9677137c7267ab0944c9cfeffffff0274580600000000001976a9145c9ef653a4727ac27b54fd182eee988058dde40688acea420f000000000017a91413783e2a2dcbe7cc45c7ce28455f9999e62f4ff487024730440220159feb9377af5f5baf02593e6081e3482de4c5ca529fee57646c93d5914714a002202b4f10757f5dea71fd581da673dca343d0070fa3740b6dd46af2f25e93e5a4ef012102a5e6cc6d1b025bbb95a4dba57fa3835d0873fc3990cdfe6b8869af4ee210f6860247304402205b6bb1761ff5b91d2b717c4ef9076267d3e2fd7880147469119ec5dd899e956a02201ca0bdf49a852732c1aa6849f2c8032eca45507811f37b23d570434f68113318012103640ed04c9facbb2a5045dc9667e51185600b88fa7e838e24b301b949b08756840b490800", "vin": [{"txinwitness": ["30440220159feb9377af5f5baf02593e6081e3482de4c5ca529fee57646c93d5914714a002202b4f10757f5dea71fd581da673dca343d0070fa3740b6dd46af2f25e93e5a4ef01", "02a5e6cc6d1b025bbb95a4dba57fa3835d0873fc3990cdfe6b8869af4ee210f686"], "sequence": 4294967294, "scriptSig": {"hex": "1600145fb09493faafe33c76d3c9b98d6ca63c29ba47a8", "asm": "00145fb09493faafe33c76d3c9b98d6ca63c29ba47a8"}, "vout": 0, "txid": "a235225a2ec016cccf21b97935b15534c427327cc7b946dcd1eff5740412a330"}, {"txinwitness": ["304402205b6bb1761ff5b91d2b717c4ef9076267d3e2fd7880147469119ec5dd899e956a02201ca0bdf49a852732c1aa6849f2c8032eca45507811f37b23d570434f6811331801", "03640ed04c9facbb2a5045dc9667e51185600b88fa7e838e24b301b949b0875684"], "sequence": 4294967294, "scriptSig": {"hex": "160014e0bc5a63ea69fc3e30c9677137c7267ab0944c9c", "asm": "0014e0bc5a63ea69fc3e30c9677137c7267ab0944c9c"}, "vout": 0, "txid": "1b72f16955de8910cb69dc01ff5fd635a2134f91727f228d5610947ea5175635"}], "txid": "1dc6f37ac870cc6f206ef75defc9bfa8477aab40d019cc098f7c9a83674f3622", "blocktime": 1537869901, "version": 2, "confirmations": 11524, "time": 1537869901, "locktime": 542987, "vsize": 258, "size": 420}