{"hash": "1dc639b8f41cb884975a370e6099a28946607eb1f4974fa1decfacc77c8c9b31", "blockhash": "0000000000000000000baef3f32e3676a92c3b2e5da21b426e4f302fc371ce76", "vout": [{"scriptPubKey": {"reqSigs": 1, "hex": "76a91439d4fa96e0a8403d0c9c3143a9b020bef5703c6d88ac", "addresses": ["16GnexzCsQJwxS5fMXxvvpYBjLNbStMvXk"], "asm": "OP_DUP OP_HASH160 39d4fa96e0a8403d0c9c3143a9b020bef5703c6d OP_EQUALVERIFY OP_CHECKSIG", "type": "pubkeyhash"}, "value": 0.011993, "n": 0}, {"scriptPubKey": {"reqSigs": 1, "hex": "76a914325c860f5f8917d57d04921d25900ccd8904233a88ac", "addresses": ["15bHdFSVqwaye54JsktRRjPbpQQTPWKb4t"], "asm": "OP_DUP OP_HASH160 325c860f5f8917d57d04921d25900ccd8904233a OP_EQUALVERIFY OP_CHECKSIG", "type": "pubkeyhash"}, "value": 0.57407641, "n": 1}], "hex": "01000000014cccecb0c75130d92f93bfa8150ce2f32b846dd6c26236194bdb6bbc8e4c9640010000006b483045022100f6d327847e049c8d1bda4fe7aa603f7860343d86aa43be16689043821d7a6fa002206d6ca4a0956e1a894f4925cbe6b95e50bca26b059d2560d729f7f21bd384dff2012102a752a23464af3e532ea135cd15b0bf7a977941cc52559a8f12ec6a425442f2f9ffffffff02c44c1200000000001976a91439d4fa96e0a8403d0c9c3143a9b020bef5703c6d88ac99f86b03000000001976a914325c860f5f8917d57d04921d25900ccd8904233a88ac00000000", "vin": [{"sequence": 4294967295, "scriptSig": {"hex": "483045022100f6d327847e049c8d1bda4fe7aa603f7860343d86aa43be16689043821d7a6fa002206d6ca4a0956e1a894f4925cbe6b95e50bca26b059d2560d729f7f21bd384dff2012102a752a23464af3e532ea135cd15b0bf7a977941cc52559a8f12ec6a425442f2f9", "asm": "3045022100f6d327847e049c8d1bda4fe7aa603f7860343d86aa43be16689043821d7a6fa002206d6ca4a0956e1a894f4925cbe6b95e50bca26b059d2560d729f7f21bd384dff2[ALL] 02a752a23464af3e532ea135cd15b0bf7a977941cc52559a8f12ec6a425442f2f9"}, "vout": 1, "txid": "40964c8ebc6bdb4b193662c2d66d842bf3e20c15a8bf932fd93051c7b0eccc4c"}], "txid": "1dc639b8f41cb884975a370e6099a28946607eb1f4974fa1decfacc77c8c9b31", "blocktime": 1537876114, "version": 1, "confirmations": 11460, "time": 1537876114, "locktime": 0, "vsize": 226, "size": 226}