{"hash": "1dc87f60f365b1d0b357ce03529cc5accdc064f121979b573517845dcbb9759d", "blockhash": "0000000000000000001f76057863aec43deb6fa401d9628bb513d65a8098bfab", "vout": [{"scriptPubKey": {"reqSigs": 1, "hex": "76a91484411fca5f81b4795139294a8a47c0a47778420088ac", "addresses": ["1D4JDEHeqmLLXPaSgMQNRkfTAq1rabHKPw"], "asm": "OP_DUP OP_HASH160 84411fca5f81b4795139294a8a47c0a477784200 OP_EQUALVERIFY OP_CHECKSIG", "type": "pubkeyhash"}, "value": 0.00245249, "n": 0}], "hex": "0100000002bb7519311b7a118fe181fa1efa71df1b9c44d94abd8c24a627a7b177ce49caa7010000006a4730440220285385ab78aa564e05758773b3a359999604bd6bc7c4c52f72858f3018a2e5bc022054fd04d947cc91a983be0a3064040c73441163018bb9baef31a61280968c2c9b01210250b6c735f4cc819f5ad66c0817b7a40aa272031d941f1de05f142c29592d16e4ffffffffe3939980649a55717e4decd9861817a8ccf159da66faa020bd2741268b998fa9000000006b483045022100d91d8835a907ee8e3abdfe33b68a5bdcf5dbd5804adb977760bd66be394113150220243bc89a05171cc478d075ea233f0f94e32d0438101fe37319340ad274ec07bf0121025f2189ad38cb675f7e89ebf13ef77238005c0c577d5a20ce17594e9d1aa2a824ffffffff0101be0300000000001976a91484411fca5f81b4795139294a8a47c0a47778420088ac00000000", "vin": [{"sequence": 4294967295, "scriptSig": {"hex": "4730440220285385ab78aa564e05758773b3a359999604bd6bc7c4c52f72858f3018a2e5bc022054fd04d947cc91a983be0a3064040c73441163018bb9baef31a61280968c2c9b01210250b6c735f4cc819f5ad66c0817b7a40aa272031d941f1de05f142c29592d16e4", "asm": "30440220285385ab78aa564e05758773b3a359999604bd6bc7c4c52f72858f3018a2e5bc022054fd04d947cc91a983be0a3064040c73441163018bb9baef31a61280968c2c9b[ALL] 0250b6c735f4cc819f5ad66c0817b7a40aa272031d941f1de05f142c29592d16e4"}, "vout": 1, "txid": "a7ca49ce77b1a727a6248cbd4ad9449c1bdf71fa1efa81e18f117a1b311975bb"}, {"sequence": 4294967295, "scriptSig": {"hex": "483045022100d91d8835a907ee8e3abdfe33b68a5bdcf5dbd5804adb977760bd66be394113150220243bc89a05171cc478d075ea233f0f94e32d0438101fe37319340ad274ec07bf0121025f2189ad38cb675f7e89ebf13ef77238005c0c577d5a20ce17594e9d1aa2a824", "asm": "3045022100d91d8835a907ee8e3abdfe33b68a5bdcf5dbd5804adb977760bd66be394113150220243bc89a05171cc478d075ea233f0f94e32d0438101fe37319340ad274ec07bf[ALL] 025f2189ad38cb675f7e89ebf13ef77238005c0c577d5a20ce17594e9d1aa2a824"}, "vout": 0, "txid": "a98f998b264127bd20a0fa66da59f1cca8171886d9ec4d7e71559a64809993e3"}], "txid": "1dc87f60f365b1d0b357ce03529cc5accdc064f121979b573517845dcbb9759d", "blocktime": 1537873891, "version": 1, "confirmations": 11478, "time": 1537873891, "locktime": 0, "vsize": 339, "size": 339}