{"hash": "1dca0055940c2f1ef0a8ef8fc7f9f937f36e42d6c05043b6dc89dbdb10ddf8ed", "blockhash": "0000000000000000000baef3f32e3676a92c3b2e5da21b426e4f302fc371ce76", "vout": [{"scriptPubKey": {"reqSigs": 1, "hex": "76a914356208f7f836a4fec459e26d0c33fde5461c4d0e88ac", "addresses": ["15sGFm7ZLzPCH58zmtTkPowWCkEhmWJzZB"], "asm": "OP_DUP OP_HASH160 356208f7f836a4fec459e26d0c33fde5461c4d0e OP_EQUALVERIFY OP_CHECKSIG", "type": "pubkeyhash"}, "value": 0.1144015, "n": 0}, {"scriptPubKey": {"reqSigs": 1, "hex": "76a914fec868ea3cb568bdf4f99a6b7d78095b80ff214688ac", "addresses": ["1QEAiSjMx7H2x4bZCDTmuZGGzrXVHJB4Dp"], "asm": "OP_DUP OP_HASH160 fec868ea3cb568bdf4f99a6b7d78095b80ff2146 OP_EQUALVERIFY OP_CHECKSIG", "type": "pubkeyhash"}, "value": 0.2955794, "n": 1}], "hex": "01000000017b15a7043dc7db4848fad2b8d383f1fd32f7abbba2c298cd8fb535300d840572010000006a473044022051995c1030aeb3342d9de50b6d6603af1713511f81c159193dfe437d8a25a946022076189d1e6e2c8b7f9b758cfa93b22f0ca886c586a3cb79aa73a5209c1299da1f0121021235dac5a63b771c28f0bb3920f4c2f49b83af0b61b1b57018bb17da8a0460c5ffffffff021690ae00000000001976a914356208f7f836a4fec459e26d0c33fde5461c4d0e88acb404c301000000001976a914fec868ea3cb568bdf4f99a6b7d78095b80ff214688ac00000000", "vin": [{"sequence": 4294967295, "scriptSig": {"hex": "473044022051995c1030aeb3342d9de50b6d6603af1713511f81c159193dfe437d8a25a946022076189d1e6e2c8b7f9b758cfa93b22f0ca886c586a3cb79aa73a5209c1299da1f0121021235dac5a63b771c28f0bb3920f4c2f49b83af0b61b1b57018bb17da8a0460c5", "asm": "3044022051995c1030aeb3342d9de50b6d6603af1713511f81c159193dfe437d8a25a946022076189d1e6e2c8b7f9b758cfa93b22f0ca886c586a3cb79aa73a5209c1299da1f[ALL] 021235dac5a63b771c28f0bb3920f4c2f49b83af0b61b1b57018bb17da8a0460c5"}, "vout": 1, "txid": "7205840d3035b58fcd98c2a2bbabf732fdf183d3b8d2fa4848dbc73d04a7157b"}], "txid": "1dca0055940c2f1ef0a8ef8fc7f9f937f36e42d6c05043b6dc89dbdb10ddf8ed", "blocktime": 1537876114, "version": 1, "confirmations": 11460, "time": 1537876114, "locktime": 0, "vsize": 225, "size": 225}