{"hash": "1dcc57d6011eff8714489e009f09ade81c4236bbc0a35cbb06e2c6d385be198c", "blockhash": "0000000000000000000e13cef7c366c0283d82e591d1acd082e914b08063cdf1", "vout": [{"scriptPubKey": {"reqSigs": 1, "hex": "a914b68c227f836b9cb417b04e8e101083a99409449687", "addresses": ["3JLEnC1PL695TyvgcvZP4TQtSeV7Aqk2s6"], "asm": "OP_HASH160 b68c227f836b9cb417b04e8e101083a994094496 OP_EQUAL", "type": "scripthash"}, "value": 0.003, "n": 0}, {"scriptPubKey": {"reqSigs": 1, "hex": "76a91433a4b4d727a3925e49dfc55b8702c3ec5f959cd388ac", "addresses": ["15i4mnYSABPGdyVk68Z2LVcRPnwjy2Fw4r"], "asm": "OP_DUP OP_HASH160 33a4b4d727a3925e49dfc55b8702c3ec5f959cd3 OP_EQUALVERIFY OP_CHECKSIG", "type": "pubkeyhash"}, "value": 0.00949918, "n": 1}], "hex": "0100000001c088e0a59d47304a811f1731f22c626c6cda66e2d66fb34f9e3e7a7612a7556b010000006b48304502210090ad17ec12a5015eb6925f9b1c9ff82b8fd60bafea8114e858d676bf9f7c5202022072c0240e64b1aebe1f09b8bb49c9cb2295d18751517674adf0096a7d0cd5b1900121032a01bd7f0e5df0d58818349495adbe693b43466b39c40c7b7bcbcc50ada1e7caffffffff02e09304000000000017a914b68c227f836b9cb417b04e8e101083a994094496879e7e0e00000000001976a91433a4b4d727a3925e49dfc55b8702c3ec5f959cd388ac00000000", "vin": [{"sequence": 4294967295, "scriptSig": {"hex": "48304502210090ad17ec12a5015eb6925f9b1c9ff82b8fd60bafea8114e858d676bf9f7c5202022072c0240e64b1aebe1f09b8bb49c9cb2295d18751517674adf0096a7d0cd5b1900121032a01bd7f0e5df0d58818349495adbe693b43466b39c40c7b7bcbcc50ada1e7ca", "asm": "304502210090ad17ec12a5015eb6925f9b1c9ff82b8fd60bafea8114e858d676bf9f7c5202022072c0240e64b1aebe1f09b8bb49c9cb2295d18751517674adf0096a7d0cd5b190[ALL] 032a01bd7f0e5df0d58818349495adbe693b43466b39c40c7b7bcbcc50ada1e7ca"}, "vout": 1, "txid": "6b55a712767a3e9e4fb36fd6e266da6c6c622cf231171f814a30479da5e088c0"}], "txid": "1dcc57d6011eff8714489e009f09ade81c4236bbc0a35cbb06e2c6d385be198c", "blocktime": 1537871767, "version": 1, "confirmations": 11493, "time": 1537871767, "locktime": 0, "vsize": 224, "size": 224}