{"hash": "1dd1bfdaeb331bbf39b4a3b2ad67caa7f87b6775c223decdc68e211c9e238f4f", "blockhash": "00000000000000000018f53835495a110e01622372bf6ae95dc86f2b0ab887b0", "vout": [{"scriptPubKey": {"reqSigs": 1, "hex": "a9143f4eecba122ad73039d481c8d37f99cb4f887cd887", "addresses": ["37Tm3Qz8Zw2VJrheUUhArDAoq58S6YrS3g"], "asm": "OP_HASH160 3f4eecba122ad73039d481c8d37f99cb4f887cd8 OP_EQUAL", "type": "scripthash"}, "value": 1.0, "n": 0}, {"scriptPubKey": {"reqSigs": 1, "hex": "a91430b8a3ba863decb27a8cd080a75e445eedaaa56687", "addresses": ["368dYjViF2466W262F2NyNA2FT12wLqpxU"], "asm": "OP_HASH160 30b8a3ba863decb27a8cd080a75e445eedaaa566 OP_EQUAL", "type": "scripthash"}, "value": 11.26322906, "n": 1}], "hex": "0100000001d95397736d3b7a0e83a58931eacbbf2784049948f8b535469919716784904bf201000000fc004730440220560e5e4f0445dab8e4aa1bb59c519b97ec6c06d4835018cf39b8ad46352d5f4a02203452c19db557e54e341fb22eaee05505549686a266e3bed18d79b69252b40e6e0147304402201aca13014bfffbe05138e9fa1e3a8398c180312f6c16654f7d716552fdace7b8022023131d709297284befa89e8ca080dfd00fce33013d6fffb86771ac9b1eef4a86014c69522103d0350bf132c6b70a7010d618fee6e03fdfdc1c5cccef3760b69c5ec11732539521021973ffae8c60e269c43c05d452ed4816c7586e5278cf00ea4ee3b84b23b5a40d210342ae8d31d991391c7834d34ad4b6487393efadbf51280c2465828896b28bbf2353aeffffffff0200e1f5050000000017a9143f4eecba122ad73039d481c8d37f99cb4f887cd887da5222430000000017a91430b8a3ba863decb27a8cd080a75e445eedaaa5668700000000", "vin": [{"sequence": 4294967295, "scriptSig": {"hex": "004730440220560e5e4f0445dab8e4aa1bb59c519b97ec6c06d4835018cf39b8ad46352d5f4a02203452c19db557e54e341fb22eaee05505549686a266e3bed18d79b69252b40e6e0147304402201aca13014bfffbe05138e9fa1e3a8398c180312f6c16654f7d716552fdace7b8022023131d709297284befa89e8ca080dfd00fce33013d6fffb86771ac9b1eef4a86014c69522103d0350bf132c6b70a7010d618fee6e03fdfdc1c5cccef3760b69c5ec11732539521021973ffae8c60e269c43c05d452ed4816c7586e5278cf00ea4ee3b84b23b5a40d210342ae8d31d991391c7834d34ad4b6487393efadbf51280c2465828896b28bbf2353ae", "asm": "0 30440220560e5e4f0445dab8e4aa1bb59c519b97ec6c06d4835018cf39b8ad46352d5f4a02203452c19db557e54e341fb22eaee05505549686a266e3bed18d79b69252b40e6e[ALL] 304402201aca13014bfffbe05138e9fa1e3a8398c180312f6c16654f7d716552fdace7b8022023131d709297284befa89e8ca080dfd00fce33013d6fffb86771ac9b1eef4a86[ALL] 522103d0350bf132c6b70a7010d618fee6e03fdfdc1c5cccef3760b69c5ec11732539521021973ffae8c60e269c43c05d452ed4816c7586e5278cf00ea4ee3b84b23b5a40d210342ae8d31d991391c7834d34ad4b6487393efadbf51280c2465828896b28bbf2353ae"}, "vout": 1, "txid": "f24b9084677119994635b5f84899048427bfcbea3189a5830e7a3b6d739753d9"}], "txid": "1dd1bfdaeb331bbf39b4a3b2ad67caa7f87b6775c223decdc68e211c9e238f4f", "blocktime": 1537870928, "version": 1, "confirmations": 11512, "time": 1537870928, "locktime": 0, "vsize": 367, "size": 367}