{"hash": "1dd314669ed5660f377029ec1dc6814ab252b6307bfdd5b17a15c6a844204a52", "blockhash": "00000000000000000004ffacab907a6b429b9a5745fa0b75af4234bf69dd7176", "vout": [{"scriptPubKey": {"reqSigs": 1, "hex": "76a914577aa87a7fca8128a3a93453e30625ffbccd66b388ac", "addresses": ["18yYj8EkKJH7fv1yMJvH6Y94jKsJADY4ii"], "asm": "OP_DUP OP_HASH160 577aa87a7fca8128a3a93453e30625ffbccd66b3 OP_EQUALVERIFY OP_CHECKSIG", "type": "pubkeyhash"}, "value": 0.0808191, "n": 0}, {"scriptPubKey": {"reqSigs": 1, "hex": "76a9143334c19595e4c9368e4b16dc53ed8c60ff906be188ac", "addresses": ["15fkfMAMJ6534f38ioMkBLw1YBBTB4xbHX"], "asm": "OP_DUP OP_HASH160 3334c19595e4c9368e4b16dc53ed8c60ff906be1 OP_EQUALVERIFY OP_CHECKSIG", "type": "pubkeyhash"}, "value": 5e-05, "n": 1}], "hex": "0100000001190062606a02b34803584ce4e59bea42297172803ea114c4be21c0cbc94e7a1b000000006a473044022023a66543791d74e0e4acfcaf772fe2b5e82cfd41f4c082fd99d90c92a0f545aa0220216d3550290ef96b99ee617fe45fc877b689fa7531bf5d12fbfe42029971a4e5012102831d4db9f116b411159f5cf57da788cb299696397c02aad1b530db220a8d757afeffffff02f6517b00000000001976a914577aa87a7fca8128a3a93453e30625ffbccd66b388ac88130000000000001976a9143334c19595e4c9368e4b16dc53ed8c60ff906be188ac16490800", "vin": [{"sequence": 4294967294, "scriptSig": {"hex": "473044022023a66543791d74e0e4acfcaf772fe2b5e82cfd41f4c082fd99d90c92a0f545aa0220216d3550290ef96b99ee617fe45fc877b689fa7531bf5d12fbfe42029971a4e5012102831d4db9f116b411159f5cf57da788cb299696397c02aad1b530db220a8d757a", "asm": "3044022023a66543791d74e0e4acfcaf772fe2b5e82cfd41f4c082fd99d90c92a0f545aa0220216d3550290ef96b99ee617fe45fc877b689fa7531bf5d12fbfe42029971a4e5[ALL] 02831d4db9f116b411159f5cf57da788cb299696397c02aad1b530db220a8d757a"}, "vout": 0, "txid": "1b7a4ec9cbc021bec414a13e8072712942ea9be5e44c580348b3026a60620019"}], "txid": "1dd314669ed5660f377029ec1dc6814ab252b6307bfdd5b17a15c6a844204a52", "blocktime": 1537875543, "version": 1, "confirmations": 11464, "time": 1537875543, "locktime": 542998, "vsize": 225, "size": 225}