{"hash": "1dd47b969c090a67b0be63d6daf6e3b0e36a3d47d2f855397a41c3c75bf77852", "blockhash": "0000000000000000000baef3f32e3676a92c3b2e5da21b426e4f302fc371ce76", "vout": [{"scriptPubKey": {"reqSigs": 1, "hex": "a9149538fd3d0b61d9640ec86a81c5861011c9eb73c187", "addresses": ["3FJ2soizg9qZXkXhUGj2sdiBv6kt3RccRb"], "asm": "OP_HASH160 9538fd3d0b61d9640ec86a81c5861011c9eb73c1 OP_EQUAL", "type": "scripthash"}, "value": 0.01, "n": 0}, {"scriptPubKey": {"reqSigs": 1, "hex": "76a9141009d0993e05225a5de03e0f6947b8f75758dfc488ac", "addresses": ["12Toa1wX6BE9zqax7pWvLs1MBF3pw4g7g4"], "asm": "OP_DUP OP_HASH160 1009d0993e05225a5de03e0f6947b8f75758dfc4 OP_EQUALVERIFY OP_CHECKSIG", "type": "pubkeyhash"}, "value": 0.00969144, "n": 1}], "hex": "0100000001b0c6544549d7249602d4fcb15282aee61a536deb93ab0bd6530b6f401f1be709090000006b483045022100eee5af205e9c24bab35b52dd10156ec84cc9e4c968b74a379d72bf4515ce34eb02201eea1043f5875194135732bc0d21e300ab69e00d538e4f7a9960f833857cd638012102ab8f391ec6b09c3e2a620b42b1a8b7fe7c62c01b736b7b6b98b138ce04cc0213ffffffff0240420f000000000017a9149538fd3d0b61d9640ec86a81c5861011c9eb73c187b8c90e00000000001976a9141009d0993e05225a5de03e0f6947b8f75758dfc488ac00000000", "vin": [{"sequence": 4294967295, "scriptSig": {"hex": "483045022100eee5af205e9c24bab35b52dd10156ec84cc9e4c968b74a379d72bf4515ce34eb02201eea1043f5875194135732bc0d21e300ab69e00d538e4f7a9960f833857cd638012102ab8f391ec6b09c3e2a620b42b1a8b7fe7c62c01b736b7b6b98b138ce04cc0213", "asm": "3045022100eee5af205e9c24bab35b52dd10156ec84cc9e4c968b74a379d72bf4515ce34eb02201eea1043f5875194135732bc0d21e300ab69e00d538e4f7a9960f833857cd638[ALL] 02ab8f391ec6b09c3e2a620b42b1a8b7fe7c62c01b736b7b6b98b138ce04cc0213"}, "vout": 9, "txid": "09e71b1f406f0b53d60bab93eb6d531ae6ae8252b1fcd4029624d7494554c6b0"}], "txid": "1dd47b969c090a67b0be63d6daf6e3b0e36a3d47d2f855397a41c3c75bf77852", "blocktime": 1537876114, "version": 1, "confirmations": 11460, "time": 1537876114, "locktime": 0, "vsize": 224, "size": 224}