{"hash": "1dd69e6012c8fcb3ce8544b1a4ab900e780642527194ddb7ac4b0bd7e9666e5b", "blockhash": "000000000000000000205f8b0775d31398ef75b89a5e8ec8d2c57b4dc0ac4c20", "vout": [{"scriptPubKey": {"reqSigs": 1, "hex": "76a914fa0692278afe508514b5ffee8fe5e97732ce066988ac", "addresses": ["1Po1oWkD2LmodfkBYiAktwh76vkF93LKnh"], "asm": "OP_DUP OP_HASH160 fa0692278afe508514b5ffee8fe5e97732ce0669 OP_EQUALVERIFY OP_CHECKSIG", "type": "pubkeyhash"}, "value": 2.19e-05, "n": 0}, {"scriptPubKey": {"type": "nulldata", "hex": "6a146f6d6e69000000000000001f000000028fa6ae00", "asm": "OP_RETURN 6f6d6e69000000000000001f000000028fa6ae00"}, "value": 0.0, "n": 1}, {"scriptPubKey": {"reqSigs": 1, "hex": "a9141d60d33fb130a57ba85d047e46c229ed7b06a55887", "addresses": ["34NMWe1vR4PBviS6g6Bz6877ozusyGcv8v"], "asm": "OP_HASH160 1d60d33fb130a57ba85d047e46c229ed7b06a558 OP_EQUAL", "type": "scripthash"}, "value": 5.4e-06, "n": 2}], "hex": "010000000160188ae2e89a6f7ee5925756b57031d2333bb4c3afeaabe85e936278213e6fa7e10000008a473044022064d8004c75ab3bbd51d8b6658da99ed68dae9607bf353b1df6e0ee90678fad31022048a0c90374b302de416661270128d5a3654a06e6a02027a8642d76b084c3f468014104fcf07bb1222f7925f2b7cc15183a40443c578e62ea17100aa3b44ba66905c95d4980aec4cd2f6eb426d1b1ec45d76724f26901099416b9265b76ba67c8b0b73dffffffff038e080000000000001976a914fa0692278afe508514b5ffee8fe5e97732ce066988ac0000000000000000166a146f6d6e69000000000000001f000000028fa6ae001c0200000000000017a9141d60d33fb130a57ba85d047e46c229ed7b06a5588700000000", "vin": [{"sequence": 4294967295, "scriptSig": {"hex": "473044022064d8004c75ab3bbd51d8b6658da99ed68dae9607bf353b1df6e0ee90678fad31022048a0c90374b302de416661270128d5a3654a06e6a02027a8642d76b084c3f468014104fcf07bb1222f7925f2b7cc15183a40443c578e62ea17100aa3b44ba66905c95d4980aec4cd2f6eb426d1b1ec45d76724f26901099416b9265b76ba67c8b0b73d", "asm": "3044022064d8004c75ab3bbd51d8b6658da99ed68dae9607bf353b1df6e0ee90678fad31022048a0c90374b302de416661270128d5a3654a06e6a02027a8642d76b084c3f468[ALL] 04fcf07bb1222f7925f2b7cc15183a40443c578e62ea17100aa3b44ba66905c95d4980aec4cd2f6eb426d1b1ec45d76724f26901099416b9265b76ba67c8b0b73d"}, "vout": 225, "txid": "a76f3e217862935ee8abeaafc3b43b33d23170b5565792e57e6f9ae8e28a1860"}], "txid": "1dd69e6012c8fcb3ce8544b1a4ab900e780642527194ddb7ac4b0bd7e9666e5b", "blocktime": 1537871175, "version": 1, "confirmations": 11510, "time": 1537871175, "locktime": 0, "vsize": 286, "size": 286}