{"hash": "1de2709d821b8fbc71bc0ea28a1c2f9aca011bf89b6e825249a054d42bbcb63a", "blockhash": "00000000000000000004ffacab907a6b429b9a5745fa0b75af4234bf69dd7176", "vout": [{"scriptPubKey": {"reqSigs": 1, "hex": "a91469f376224892285902b7080bc8c48d2468ca09aa87", "addresses": ["3BMEXgftHzQQGrbvXsSkZcYZCYgtvfqvXL"], "asm": "OP_HASH160 69f376224892285902b7080bc8c48d2468ca09aa OP_EQUAL", "type": "scripthash"}, "value": 0.020299, "n": 0}], "hex": "01000000018cad43f6d6cee5f251afb5141fea5abc80ee732c88853151e46892a74faa37fb380000006b483045022100880ab2359ab3addd6934a4b095440f60b0064d341e59c19afa78584bc710ff1902200efedf55b4b3ef2ed1e2b48130c5d7b5075218d103693a297194454fa5c29d68012103d0c5a789c9c538aa2a616f2504129ddc5e7e4d15f37bd7ebe32f6ef2ee5c40e9ffffffff014cf91e000000000017a91469f376224892285902b7080bc8c48d2468ca09aa8700000000", "vin": [{"sequence": 4294967295, "scriptSig": {"hex": "483045022100880ab2359ab3addd6934a4b095440f60b0064d341e59c19afa78584bc710ff1902200efedf55b4b3ef2ed1e2b48130c5d7b5075218d103693a297194454fa5c29d68012103d0c5a789c9c538aa2a616f2504129ddc5e7e4d15f37bd7ebe32f6ef2ee5c40e9", "asm": "3045022100880ab2359ab3addd6934a4b095440f60b0064d341e59c19afa78584bc710ff1902200efedf55b4b3ef2ed1e2b48130c5d7b5075218d103693a297194454fa5c29d68[ALL] 03d0c5a789c9c538aa2a616f2504129ddc5e7e4d15f37bd7ebe32f6ef2ee5c40e9"}, "vout": 56, "txid": "fb37aa4fa79268e4513185882c73ee80bc5aea1f14b5af51f2e5ced6f643ad8c"}], "txid": "1de2709d821b8fbc71bc0ea28a1c2f9aca011bf89b6e825249a054d42bbcb63a", "blocktime": 1537875543, "version": 1, "confirmations": 11464, "time": 1537875543, "locktime": 0, "vsize": 190, "size": 190}