{"hash": "3e4b37ec995c18ba206a426b83ffe7259934cf50c931a963ec65cdd8342d992d", "blockhash": "0000000000000000000baef3f32e3676a92c3b2e5da21b426e4f302fc371ce76", "vout": [{"scriptPubKey": {"reqSigs": 1, "hex": "76a9140669effcc7b3486a390732cf7d062ceb1cf3b8fb88ac", "addresses": ["1auxpDfcaL33KtN5QydCRckhsTdqWGg5H"], "asm": "OP_DUP OP_HASH160 0669effcc7b3486a390732cf7d062ceb1cf3b8fb OP_EQUALVERIFY OP_CHECKSIG", "type": "pubkeyhash"}, "value": 5.44, "n": 0}, {"scriptPubKey": {"reqSigs": 1, "hex": "a914efd14fb8685c5b7cfae361d80d6dd624932a4f0787", "addresses": ["3PZ4Abv1qWUPWSmSm9L6PNG4aGGEdVBzxN"], "asm": "OP_HASH160 efd14fb8685c5b7cfae361d80d6dd624932a4f07 OP_EQUAL", "type": "scripthash"}, "value": 24.00047846, "n": 1}], "hex": "01000000000101d411aca64f47ec42b9dd4ff9cbc14ff52f64e4861bdf353fcbbe7cd1e2733aa601000000171600148f2725b8e93b2057dac77bfe88bea147ec1531c6ffffffff0200c86c20000000001976a9140669effcc7b3486a390732cf7d062ceb1cf3b8fb88ace6d20d8f0000000017a914efd14fb8685c5b7cfae361d80d6dd624932a4f07870247304402204f96cd2ec9893deb584dd639fd8237e632665804fa2bbe020bac6f4a9e15044502200e283c890159e244e9c0373b9e23c6616fe28f51b2453b5fb1a1f80df99690d30121034befcbdd19c84b9e7a6cb7bafe61352f57ec2b2a801a9a53c766eb70ea21f4cd00000000", "vin": [{"txinwitness": ["304402204f96cd2ec9893deb584dd639fd8237e632665804fa2bbe020bac6f4a9e15044502200e283c890159e244e9c0373b9e23c6616fe28f51b2453b5fb1a1f80df99690d301", "034befcbdd19c84b9e7a6cb7bafe61352f57ec2b2a801a9a53c766eb70ea21f4cd"], "sequence": 4294967295, "scriptSig": {"hex": "1600148f2725b8e93b2057dac77bfe88bea147ec1531c6", "asm": "00148f2725b8e93b2057dac77bfe88bea147ec1531c6"}, "vout": 1, "txid": "a63a73e2d17cbecb3f35df1b86e4642ff54fc1cbf94fddb942ec474fa6ac11d4"}], "txid": "1de875ca931c43658a9321b81977afc452dfe221fcfbfd33f2e48ab0f66ec9aa", "blocktime": 1537876114, "version": 1, "confirmations": 11460, "time": 1537876114, "locktime": 0, "vsize": 168, "size": 249}