{"hash": "1deea9a5e062e7fd1716df879df3274a30ed11be253f639aef5449a4838eea75", "blockhash": "0000000000000000000e13cef7c366c0283d82e591d1acd082e914b08063cdf1", "vout": [{"scriptPubKey": {"reqSigs": 1, "hex": "76a914b518f2a9ec023fc2ac97ae4be5bc3940eeb37f6188ac", "addresses": ["1HWZC8fa3n2o7jgv4Dbz7NE6B1sZDz8bNP"], "asm": "OP_DUP OP_HASH160 b518f2a9ec023fc2ac97ae4be5bc3940eeb37f61 OP_EQUALVERIFY OP_CHECKSIG", "type": "pubkeyhash"}, "value": 0.00125432, "n": 0}, {"scriptPubKey": {"reqSigs": 1, "hex": "76a914dd2929c7f878931f5d0359f7785ed11de526ad6088ac", "addresses": ["1MAPeTvzFU8u3w9MgybHY8BPPLgdixyrAg"], "asm": "OP_DUP OP_HASH160 dd2929c7f878931f5d0359f7785ed11de526ad60 OP_EQUALVERIFY OP_CHECKSIG", "type": "pubkeyhash"}, "value": 0.00312446, "n": 1}], "hex": "0100000002968bef6ebfbc97d36278397a5f8a20c6eb5449c34c2dbc31dbcefee5e1a28090010000006b483045022100c96b12f22d518fdfd35dcc67e9c4589b36bd683fe359b3c2594867b14a66ee59022015d277ac5625a6319b20c5a5c5101f38786ceff60c3692f8189062b466b06faa012102a2774da0f33d27fd71471a195a00e8206982ada165f0b82d7ed88420900de687ffffffff646cfb1b5a7954b9af769db723af6f4fc27d1af1ee91a5b927af6c39eeac52ba000000006a47304402202fd4477c5921f074b4f3123c845aad941588adf1504bb4f7a6c9ad2df2ab52340220532bf9fe2267f264622a5c206c60318985c7da46e395f87b8f195f16a0f29dd201210209d60cb36a9bfa6cb94312df9a3e5ab0ca5e19398cb09b29229146f5fde3b264ffffffff02f8e90100000000001976a914b518f2a9ec023fc2ac97ae4be5bc3940eeb37f6188ac7ec40400000000001976a914dd2929c7f878931f5d0359f7785ed11de526ad6088ac00000000", "vin": [{"sequence": 4294967295, "scriptSig": {"hex": "483045022100c96b12f22d518fdfd35dcc67e9c4589b36bd683fe359b3c2594867b14a66ee59022015d277ac5625a6319b20c5a5c5101f38786ceff60c3692f8189062b466b06faa012102a2774da0f33d27fd71471a195a00e8206982ada165f0b82d7ed88420900de687", "asm": "3045022100c96b12f22d518fdfd35dcc67e9c4589b36bd683fe359b3c2594867b14a66ee59022015d277ac5625a6319b20c5a5c5101f38786ceff60c3692f8189062b466b06faa[ALL] 02a2774da0f33d27fd71471a195a00e8206982ada165f0b82d7ed88420900de687"}, "vout": 1, "txid": "9080a2e1e5fecedb31bc2d4cc34954ebc6208a5f7a397862d397bcbf6eef8b96"}, {"sequence": 4294967295, "scriptSig": {"hex": "47304402202fd4477c5921f074b4f3123c845aad941588adf1504bb4f7a6c9ad2df2ab52340220532bf9fe2267f264622a5c206c60318985c7da46e395f87b8f195f16a0f29dd201210209d60cb36a9bfa6cb94312df9a3e5ab0ca5e19398cb09b29229146f5fde3b264", "asm": "304402202fd4477c5921f074b4f3123c845aad941588adf1504bb4f7a6c9ad2df2ab52340220532bf9fe2267f264622a5c206c60318985c7da46e395f87b8f195f16a0f29dd2[ALL] 0209d60cb36a9bfa6cb94312df9a3e5ab0ca5e19398cb09b29229146f5fde3b264"}, "vout": 0, "txid": "ba52acee396caf27b9a591eef11a7dc24f6faf23b79d76afb954795a1bfb6c64"}], "txid": "1deea9a5e062e7fd1716df879df3274a30ed11be253f639aef5449a4838eea75", "blocktime": 1537871767, "version": 1, "confirmations": 11495, "time": 1537871767, "locktime": 0, "vsize": 373, "size": 373}