{"hash": "1df17f8e4b70e36dd29849168d2bf2dcd932692214dc5aff95e758ad92a1ead1", "blockhash": "00000000000000000017f5eb5941039fbcee6240d03bc1f2f8e35350df66a1d8", "vout": [{"scriptPubKey": {"reqSigs": 1, "hex": "76a91468c3aba44b732e535fc8fae760da618ac55cdcfe88ac", "addresses": ["1AYwgNeygFdW92kyfHEJRvqtXNeNbsfh38"], "asm": "OP_DUP OP_HASH160 68c3aba44b732e535fc8fae760da618ac55cdcfe OP_EQUALVERIFY OP_CHECKSIG", "type": "pubkeyhash"}, "value": 0.12658046, "n": 0}, {"scriptPubKey": {"type": "nulldata", "hex": "6a146f6d6e69000000000000001f00000010ff239a00", "asm": "OP_RETURN 6f6d6e69000000000000001f00000010ff239a00"}, "value": 0.0, "n": 1}, {"scriptPubKey": {"reqSigs": 1, "hex": "76a9141b17788c42a0d4a154874bceb5c8b4ccc66f8ab988ac", "addresses": ["13UFMxzpFb3JnsVGqgKBuRTsSpRKZpj3FC"], "asm": "OP_DUP OP_HASH160 1b17788c42a0d4a154874bceb5c8b4ccc66f8ab9 OP_EQUALVERIFY OP_CHECKSIG", "type": "pubkeyhash"}, "value": 5.46e-06, "n": 2}], "hex": "0100000001d23d176a298adca2ae6b29f0aa693a6690b45b0ed74cb1384df95f74e5aebf1a000000006a47304402202b2eaf5ee6c3b47b7ceecf701d102cc1ab4ab1b227669a2fd25d02abc8339e4902206c2974e51f71954cd6909be4c65de0c156022ae7b89cc9aa5e7fcbaac0d2ddc10121031bb2e419ed706e87a6578dd6ad4050cf4302eeb4b73840525b0746c98e9c120bfeffffff037e25c100000000001976a91468c3aba44b732e535fc8fae760da618ac55cdcfe88ac0000000000000000166a146f6d6e69000000000000001f00000010ff239a0022020000000000001976a9141b17788c42a0d4a154874bceb5c8b4ccc66f8ab988ac15490800", "vin": [{"sequence": 4294967294, "scriptSig": {"hex": "47304402202b2eaf5ee6c3b47b7ceecf701d102cc1ab4ab1b227669a2fd25d02abc8339e4902206c2974e51f71954cd6909be4c65de0c156022ae7b89cc9aa5e7fcbaac0d2ddc10121031bb2e419ed706e87a6578dd6ad4050cf4302eeb4b73840525b0746c98e9c120b", "asm": "304402202b2eaf5ee6c3b47b7ceecf701d102cc1ab4ab1b227669a2fd25d02abc8339e4902206c2974e51f71954cd6909be4c65de0c156022ae7b89cc9aa5e7fcbaac0d2ddc1[ALL] 031bb2e419ed706e87a6578dd6ad4050cf4302eeb4b73840525b0746c98e9c120b"}, "vout": 0, "txid": "1abfaee5745ff94d38b14cd70e5bb490663a69aaf0296baea2dc8a296a173dd2"}], "txid": "1df17f8e4b70e36dd29849168d2bf2dcd932692214dc5aff95e758ad92a1ead1", "blocktime": 1537874412, "version": 1, "confirmations": 11466, "time": 1537874412, "locktime": 542997, "vsize": 256, "size": 256}