{"hash": "1df45139ce2d3c9aae6edd5c338915169658e1587b12b72ea7c11b3622c7e696", "blockhash": "0000000000000000000e13cef7c366c0283d82e591d1acd082e914b08063cdf1", "vout": [{"scriptPubKey": {"reqSigs": 1, "hex": "76a9144b1ccd5af693a102becf485b004a8f3f6356b41088ac", "addresses": ["17rABbdbCLDugD4aZVXCWoKX6CgMK3FVUv"], "asm": "OP_DUP OP_HASH160 4b1ccd5af693a102becf485b004a8f3f6356b410 OP_EQUALVERIFY OP_CHECKSIG", "type": "pubkeyhash"}, "value": 0.0002126, "n": 0}], "hex": "0100000002c09a6d9c8df18f0ab0093a0847df94e11e5d7a9d1ca6a9fb0d79f3229b9d8843000000006a473044022069a73559a9f087ca850dd7ee684ee888d018e423718a4d0b62ba180acccbfca102204330ab2da7afdb80c393db2c7c160ebf37e6cd0040aadb0a225566d3d0087e4a012103a6246db8cc56b564963560f89d218565fb405eb9207048c2cd4e1cda342fe205ffffffff4eb979c741156d778c661e838bdbec51f50ca85e4137650ab6381e6f3319116b000000006b483045022100a2131f474dad8be948537f8246c29e7e4a506df7fac9da6e487ae9553b97bc6902203976f78523c9215ad73a73304949f7310e022e8218517ff86019ef74169ab58b0121021dab0d3aa68c87196b394170c18e62c29de002dcb6a0b460e80bc08a656552e1ffffffff010c530000000000001976a9144b1ccd5af693a102becf485b004a8f3f6356b41088ac00000000", "vin": [{"sequence": 4294967295, "scriptSig": {"hex": "473044022069a73559a9f087ca850dd7ee684ee888d018e423718a4d0b62ba180acccbfca102204330ab2da7afdb80c393db2c7c160ebf37e6cd0040aadb0a225566d3d0087e4a012103a6246db8cc56b564963560f89d218565fb405eb9207048c2cd4e1cda342fe205", "asm": "3044022069a73559a9f087ca850dd7ee684ee888d018e423718a4d0b62ba180acccbfca102204330ab2da7afdb80c393db2c7c160ebf37e6cd0040aadb0a225566d3d0087e4a[ALL] 03a6246db8cc56b564963560f89d218565fb405eb9207048c2cd4e1cda342fe205"}, "vout": 0, "txid": "43889d9b22f3790dfba9a61c9d7a5d1ee194df47083a09b00a8ff18d9c6d9ac0"}, {"sequence": 4294967295, "scriptSig": {"hex": "483045022100a2131f474dad8be948537f8246c29e7e4a506df7fac9da6e487ae9553b97bc6902203976f78523c9215ad73a73304949f7310e022e8218517ff86019ef74169ab58b0121021dab0d3aa68c87196b394170c18e62c29de002dcb6a0b460e80bc08a656552e1", "asm": "3045022100a2131f474dad8be948537f8246c29e7e4a506df7fac9da6e487ae9553b97bc6902203976f78523c9215ad73a73304949f7310e022e8218517ff86019ef74169ab58b[ALL] 021dab0d3aa68c87196b394170c18e62c29de002dcb6a0b460e80bc08a656552e1"}, "vout": 0, "txid": "6b1119336f1e38b60a6537415ea80cf551ecdb8b831e668c776d1541c779b94e"}], "txid": "1df45139ce2d3c9aae6edd5c338915169658e1587b12b72ea7c11b3622c7e696", "blocktime": 1537871767, "version": 1, "confirmations": 11495, "time": 1537871767, "locktime": 0, "vsize": 339, "size": 339}