{"hash": "1df6f4c25692f729ada2a96d638c385c1bdd0714a476d97053b016e6fed33002", "blockhash": "0000000000000000000e13cef7c366c0283d82e591d1acd082e914b08063cdf1", "vout": [{"scriptPubKey": {"reqSigs": 1, "hex": "76a914cd95b3953d86cd441a9590a103ef728a9debcd3188ac", "addresses": ["1Kk2rmWxYEVSKJagfzmXRBcZaKnky1aJny"], "asm": "OP_DUP OP_HASH160 cd95b3953d86cd441a9590a103ef728a9debcd31 OP_EQUALVERIFY OP_CHECKSIG", "type": "pubkeyhash"}, "value": 0.0437444, "n": 0}, {"scriptPubKey": {"reqSigs": 1, "hex": "76a9145c8047016ce47e3578f307f441aec35b3767b75c88ac", "addresses": ["19S6qWvr5Cdc1hirzUsQ2TKc45QZxhwN2W"], "asm": "OP_DUP OP_HASH160 5c8047016ce47e3578f307f441aec35b3767b75c OP_EQUALVERIFY OP_CHECKSIG", "type": "pubkeyhash"}, "value": 0.11007616, "n": 1}], "hex": "0100000001ae4bdeeef35d06fa461c5c1937bf685c98cfb1df56702f2441337b7bb8243c4f040000006b483045022100e71892e6e5ee0dfb37d1969998f36c3f3596086fd7435c471446d33bffacdc560220612387aa00f32e385c043074441f6e34548dae33884538c3476ec1aedc73ea9c01210300ce79644d0991ad5fa12cac550d27ef3383aa27ca32b413c4316a5e3e80cb6bffffffff02a8bf4200000000001976a914cd95b3953d86cd441a9590a103ef728a9debcd3188ac80f6a700000000001976a9145c8047016ce47e3578f307f441aec35b3767b75c88ac00000000", "vin": [{"sequence": 4294967295, "scriptSig": {"hex": "483045022100e71892e6e5ee0dfb37d1969998f36c3f3596086fd7435c471446d33bffacdc560220612387aa00f32e385c043074441f6e34548dae33884538c3476ec1aedc73ea9c01210300ce79644d0991ad5fa12cac550d27ef3383aa27ca32b413c4316a5e3e80cb6b", "asm": "3045022100e71892e6e5ee0dfb37d1969998f36c3f3596086fd7435c471446d33bffacdc560220612387aa00f32e385c043074441f6e34548dae33884538c3476ec1aedc73ea9c[ALL] 0300ce79644d0991ad5fa12cac550d27ef3383aa27ca32b413c4316a5e3e80cb6b"}, "vout": 4, "txid": "4f3c24b87b7b3341242f7056dfb1cf985c68bf37195c1c46fa065df3eede4bae"}], "txid": "1df6f4c25692f729ada2a96d638c385c1bdd0714a476d97053b016e6fed33002", "blocktime": 1537871767, "version": 1, "confirmations": 11495, "time": 1537871767, "locktime": 0, "vsize": 226, "size": 226}