{"hash": "9855b5b2ebc3e76692e0757e9bc883795c7dcfd0a4ad501b3ae15514738d2620", "blockhash": "0000000000000000001f76057863aec43deb6fa401d9628bb513d65a8098bfab", "vout": [{"scriptPubKey": {"reqSigs": 1, "hex": "76a9148d1620152cb33ac95d2651a361e0b112422ce9b188ac", "addresses": ["1DrznLs8ea6emiH4giKSfnhB25QWiAo4WX"], "asm": "OP_DUP OP_HASH160 8d1620152cb33ac95d2651a361e0b112422ce9b1 OP_EQUALVERIFY OP_CHECKSIG", "type": "pubkeyhash"}, "value": 0.9995, "n": 0}, {"scriptPubKey": {"reqSigs": 1, "hex": "a9142b343b2fca07492c8ef0413d38b740421c0732eb87", "addresses": ["35dTYsydBawAo5L2gKMAkCJDjRAQWvCVHY"], "asm": "OP_HASH160 2b343b2fca07492c8ef0413d38b740421c0732eb OP_EQUAL", "type": "scripthash"}, "value": 0.00999501, "n": 1}], "hex": "02000000000107188bb96772a6af725bedc85d410793915bf7210129f7f7e0c73da130353b79fa01000000171600146f8fee523038db6b191001a25472ed91fe7ccd15feffffff6e390d3db19ded668f9e1a159d19c475ca512f34888063c41a92965ee1e38af90300000017160014565b72bf24190a0384e5f65c854f85e1af83a899feffffff737a567b616e905e40ada22e8b8eec535ee0998dc671261c9cbaebd78d810ca800000000171600146f86883afb923aa9b27e98e7433d406fff17cd56feffffff73b68f32fa1888467780a39edce5ce318c1036e2b0223a277b63a93b28b7f60820000000171600146f86883afb923aa9b27e98e7433d406fff17cd56feffffff8e823a696aa132a2f49ed74094dccfe8facbd92dec0600c7e054c9858331f3230100000017160014368596378944b9959274c11bcebc61780549bff7feffffffa5af68eb7546a0256b62f4fca5244f2430f6ccf7558fbb95f7cddec0db34eb660d00000017160014565b72bf24190a0384e5f65c854f85e1af83a899feffffffaf97b1664c138ab9ead77e774e0754003735eea5d525fda17f7173cca27690240100000017160014d750688546ff0658660d2cfd75a05663b5d8f6f2feffffff02b01df505000000001976a9148d1620152cb33ac95d2651a361e0b112422ce9b188ac4d400f000000000017a9142b343b2fca07492c8ef0413d38b740421c0732eb870248304502210080900859764add515eb4bdfcba6e6f16a434f32e23f8310e9853845b567f8a890220290a93b6dc3d9574bd08da0b3d2801765cf5377b0725819a7fe80e263d3a08f9012103ab351ffe7c7a3ec65fb326ae50ddf7631952e8017485c793dd5f9a43513c6dec024730440220431f87ce6ed981ccd27b9109421644ebbcd643e7ef7d1908328fa4d27853abc702206cc249b79063832f7712c3c8dc5052319fe5071091d0bf545e747a0f2397b1e2012102cf31c09610b042380bd1484f8e608d0e7820b8ffbdbf9afc2dbe6eba1ed7a5930247304402200ff6eca81349273bc23a8d6c8965603fea5083c45b79c5992bde0eb30929b9e2022059b2e51f7e58ca053d4b11a0b7bc9f740c17e41ca31723ff5f825776269ed7ad012103d52a557459dd7eae9cf0a7a8b6296359f3357c5fdd35943364ba6e7097af1f040248304502210088112ad39705d8998ee8cb4cdb6d5245c1b1df5e2bf3b224ba63d5b1ab6ced8a02203c297095494cac759ec9acb957068bbd169f1fc1b502f4fdfa1366e43129299b012103d52a557459dd7eae9cf0a7a8b6296359f3357c5fdd35943364ba6e7097af1f0402473044022008186fe7b0e62499855d0086ee223f601c7d32ea79862c33977ae4ed66dccd4002205cc3dcba194a522dcea41468acfc493163cefdfa300781d77b1c5fdac4fd89a30121025de8dc8da6f2f329e8568e78e8371d5bddd4b238c8766fd9430985a2af6e2644024830450221009ee8b2f88aff4701daf49c496a27b9b5f15268ede3d78759780388a670eb504302203650db0e18b849b634c3acc3258e2dcc4e59e59d04ece9d00795f1ea9920f4e6012102cf31c09610b042380bd1484f8e608d0e7820b8ffbdbf9afc2dbe6eba1ed7a59302483045022100ffe3f7bf0cd72286cf496c76badf0457375dd63e3c73c791b09f773b5638fb3102207d138cd20f875f94707ed4358b8b914cad174550f98ddfcfb868c978d600cfab01210341604f795442b488b5d89944a18dc60b731708cdd93ef9453ffbe20248d8667d00000000", "vin": [{"txinwitness": ["304502210080900859764add515eb4bdfcba6e6f16a434f32e23f8310e9853845b567f8a890220290a93b6dc3d9574bd08da0b3d2801765cf5377b0725819a7fe80e263d3a08f901", "03ab351ffe7c7a3ec65fb326ae50ddf7631952e8017485c793dd5f9a43513c6dec"], "sequence": 4294967294, "scriptSig": {"hex": "1600146f8fee523038db6b191001a25472ed91fe7ccd15", "asm": "00146f8fee523038db6b191001a25472ed91fe7ccd15"}, "vout": 1, "txid": "fa793b3530a13dc7e0f7f7290121f75b919307415dc8ed5b72afa67267b98b18"}, {"txinwitness": ["30440220431f87ce6ed981ccd27b9109421644ebbcd643e7ef7d1908328fa4d27853abc702206cc249b79063832f7712c3c8dc5052319fe5071091d0bf545e747a0f2397b1e201", "02cf31c09610b042380bd1484f8e608d0e7820b8ffbdbf9afc2dbe6eba1ed7a593"], "sequence": 4294967294, "scriptSig": {"hex": "160014565b72bf24190a0384e5f65c854f85e1af83a899", "asm": "0014565b72bf24190a0384e5f65c854f85e1af83a899"}, "vout": 3, "txid": "f98ae3e15e96921ac4638088342f51ca75c4199d151a9e8f66ed9db13d0d396e"}, {"txinwitness": ["304402200ff6eca81349273bc23a8d6c8965603fea5083c45b79c5992bde0eb30929b9e2022059b2e51f7e58ca053d4b11a0b7bc9f740c17e41ca31723ff5f825776269ed7ad01", "03d52a557459dd7eae9cf0a7a8b6296359f3357c5fdd35943364ba6e7097af1f04"], "sequence": 4294967294, "scriptSig": {"hex": "1600146f86883afb923aa9b27e98e7433d406fff17cd56", "asm": "00146f86883afb923aa9b27e98e7433d406fff17cd56"}, "vout": 0, "txid": "a80c818dd7ebba9c1c2671c68d99e05e53ec8e8b2ea2ad405e906e617b567a73"}, {"txinwitness": ["304502210088112ad39705d8998ee8cb4cdb6d5245c1b1df5e2bf3b224ba63d5b1ab6ced8a02203c297095494cac759ec9acb957068bbd169f1fc1b502f4fdfa1366e43129299b01", "03d52a557459dd7eae9cf0a7a8b6296359f3357c5fdd35943364ba6e7097af1f04"], "sequence": 4294967294, "scriptSig": {"hex": "1600146f86883afb923aa9b27e98e7433d406fff17cd56", "asm": "00146f86883afb923aa9b27e98e7433d406fff17cd56"}, "vout": 32, "txid": "08f6b7283ba9637b273a22b0e236108c31cee5dc9ea38077468818fa328fb673"}, {"txinwitness": ["3044022008186fe7b0e62499855d0086ee223f601c7d32ea79862c33977ae4ed66dccd4002205cc3dcba194a522dcea41468acfc493163cefdfa300781d77b1c5fdac4fd89a301", "025de8dc8da6f2f329e8568e78e8371d5bddd4b238c8766fd9430985a2af6e2644"], "sequence": 4294967294, "scriptSig": {"hex": "160014368596378944b9959274c11bcebc61780549bff7", "asm": "0014368596378944b9959274c11bcebc61780549bff7"}, "vout": 1, "txid": "23f3318385c954e0c70006ec2dd9cbfae8cfdc9440d79ef4a232a16a693a828e"}, {"txinwitness": ["30450221009ee8b2f88aff4701daf49c496a27b9b5f15268ede3d78759780388a670eb504302203650db0e18b849b634c3acc3258e2dcc4e59e59d04ece9d00795f1ea9920f4e601", "02cf31c09610b042380bd1484f8e608d0e7820b8ffbdbf9afc2dbe6eba1ed7a593"], "sequence": 4294967294, "scriptSig": {"hex": "160014565b72bf24190a0384e5f65c854f85e1af83a899", "asm": "0014565b72bf24190a0384e5f65c854f85e1af83a899"}, "vout": 13, "txid": "66eb34dbc0decdf795bb8f55f7ccf630244f24a5fcf4626b25a04675eb68afa5"}, {"txinwitness": ["3045022100ffe3f7bf0cd72286cf496c76badf0457375dd63e3c73c791b09f773b5638fb3102207d138cd20f875f94707ed4358b8b914cad174550f98ddfcfb868c978d600cfab01", "0341604f795442b488b5d89944a18dc60b731708cdd93ef9453ffbe20248d8667d"], "sequence": 4294967294, "scriptSig": {"hex": "160014d750688546ff0658660d2cfd75a05663b5d8f6f2", "asm": "0014d750688546ff0658660d2cfd75a05663b5d8f6f2"}, "vout": 1, "txid": "249076a2cc73717fa1fd25d5a5ee35370054074e777ed7eab98a134c66b197af"}], "txid": "1dfd8b4669584a190dfb74d196f502d1123115e89d31fd0135bddd60d5468eeb", "blocktime": 1537873891, "version": 2, "confirmations": 11479, "time": 1537873891, "locktime": 0, "vsize": 713, "size": 1279}