{"hash": "1e01bcae94888c01847a0285ed240b4c9c7bccafae423e9d104057f5c856d2e6", "blockhash": "00000000000000000024a2167bbff67b0be802c0b01cdd79e6331c2be6459f87", "vout": [{"scriptPubKey": {"reqSigs": 1, "hex": "76a914ce524382859cc18ca3026cd244a2e3e451bdf93088ac", "addresses": ["1KovkJPkY7me7sxCNkd6LZxqzPvCqkADWu"], "asm": "OP_DUP OP_HASH160 ce524382859cc18ca3026cd244a2e3e451bdf930 OP_EQUALVERIFY OP_CHECKSIG", "type": "pubkeyhash"}, "value": 0.00077389, "n": 0}, {"scriptPubKey": {"reqSigs": 1, "hex": "a9142c35b192611aa3981e08370673625caeba8411a387", "addresses": ["35imygcXQdwns19J6rQP65ff7TDgaCK8bq"], "asm": "OP_HASH160 2c35b192611aa3981e08370673625caeba8411a3 OP_EQUAL", "type": "scripthash"}, "value": 0.00313, "n": 1}], "hex": "0100000002282d50200b314d42e586df9f53b7f7b300e451c7fca55f95ec68221610e23954010000006b483045022100b5858d1537e1706114b04eb095db42d20204ad0c8ec1c740c15b6519e6236d720220123421cb5a88df966dd98537533c84df67d64addd77402fee351b445bc14c7ba012102397c190a4b5d6e4d7e0926e5694800e6c7ab2bc9bd60222efc0b77fc1b32c46dffffffff1774f322d17731222df7604b88bd7a52c6e2faf11c54134e1eb5d5c69c906a9a000000006a4730440220093e2e1585e4dcf6bf81d964b530b6e10b2c7670c6262f897a87a7fe37a8d70202203b8b93ca128637a1aaec2f0a25523c9d2802d03ce29fa21be786188ef964d71b0121038caf9efc328041652a89fac9b5157f720a6e3d598e63bf7bc3183ed1512e30deffffffff024d2e0100000000001976a914ce524382859cc18ca3026cd244a2e3e451bdf93088aca8c604000000000017a9142c35b192611aa3981e08370673625caeba8411a38700000000", "vin": [{"sequence": 4294967295, "scriptSig": {"hex": "483045022100b5858d1537e1706114b04eb095db42d20204ad0c8ec1c740c15b6519e6236d720220123421cb5a88df966dd98537533c84df67d64addd77402fee351b445bc14c7ba012102397c190a4b5d6e4d7e0926e5694800e6c7ab2bc9bd60222efc0b77fc1b32c46d", "asm": "3045022100b5858d1537e1706114b04eb095db42d20204ad0c8ec1c740c15b6519e6236d720220123421cb5a88df966dd98537533c84df67d64addd77402fee351b445bc14c7ba[ALL] 02397c190a4b5d6e4d7e0926e5694800e6c7ab2bc9bd60222efc0b77fc1b32c46d"}, "vout": 1, "txid": "5439e210162268ec955fa5fcc751e400b3f7b7539fdf86e5424d310b20502d28"}, {"sequence": 4294967295, "scriptSig": {"hex": "4730440220093e2e1585e4dcf6bf81d964b530b6e10b2c7670c6262f897a87a7fe37a8d70202203b8b93ca128637a1aaec2f0a25523c9d2802d03ce29fa21be786188ef964d71b0121038caf9efc328041652a89fac9b5157f720a6e3d598e63bf7bc3183ed1512e30de", "asm": "30440220093e2e1585e4dcf6bf81d964b530b6e10b2c7670c6262f897a87a7fe37a8d70202203b8b93ca128637a1aaec2f0a25523c9d2802d03ce29fa21be786188ef964d71b[ALL] 038caf9efc328041652a89fac9b5157f720a6e3d598e63bf7bc3183ed1512e30de"}, "vout": 0, "txid": "9a6a909cc6d5b51e4e13541cf1fae2c6527abd884b60f72d223177d122f37417"}], "txid": "1e01bcae94888c01847a0285ed240b4c9c7bccafae423e9d104057f5c856d2e6", "blocktime": 1537870564, "version": 1, "confirmations": 11515, "time": 1537870564, "locktime": 0, "vsize": 371, "size": 371}