{"hash": "1e0265277772e6dd6716b665e92a51a930ce3320c07b13c941f013d8b82090b7", "blockhash": "000000000000000000022b45ed06c6f4ccd3cf7fb5ba4856ebd2e58215665228", "vout": [{"scriptPubKey": {"reqSigs": 1, "hex": "76a91485ad8ad9e86f0abba7110abe323fa245ab23f9b388ac", "addresses": ["1DBpmT6Xn48Hp2t8Yz8bpdZS7cDQ5BH255"], "asm": "OP_DUP OP_HASH160 85ad8ad9e86f0abba7110abe323fa245ab23f9b3 OP_EQUALVERIFY OP_CHECKSIG", "type": "pubkeyhash"}, "value": 0.140785, "n": 0}], "hex": "01000000032b85b1f94f9e6a1afc7a036a3156adb9c9683ad2b461b58947ce446953d85ef8010000006a4730440220353392a6959d91d95dc7e8aea082f6909fc42fe005f1ff0f6db05dd56dbc43bb022007ca72c2912f35de7678dfc785aee128a3199f7d8a786d085538c4f0f03c1d9e012102ad709ef96c7a46d23ab8d3aca8b285bae1bca18b8fe0abba031a15e1e6da419effffffff135c7e4929fefa595b05744c92ed3baf1385f90cd2e8e1a4c6df9511b825fee0010000006a47304402207f0de9b0f68b2bde47d19beac8f9d2162b57d8730fd9e38d98a08b848539287902202d544a459ab7b0ae3f9a9cc81e4168c2d553956a11e8c0197ba7abbfabde6c2a0121030f3da049821ee9535b786194f9e9f3944433d322e5014a813f0912ca431b4d7effffffff16e03050f8420823fa3e6ff14f2a6789f972bc4f9d38548cb0449d907d9375dc010000006a47304402203549345fdff12cac9046a56f5614107badb79f30118f7026564f5bbf333b725a02205fd3bd99e61a4f41a9d3618054c8f80db72d0d50e1b7ec50b7d1ca11a74a57ae012102f01eacd6cd72986def7e527bb455b9157903ca55167f50b91a8904fa484d83deffffffff0124d2d600000000001976a91485ad8ad9e86f0abba7110abe323fa245ab23f9b388ac00000000", "vin": [{"sequence": 4294967295, "scriptSig": {"hex": "4730440220353392a6959d91d95dc7e8aea082f6909fc42fe005f1ff0f6db05dd56dbc43bb022007ca72c2912f35de7678dfc785aee128a3199f7d8a786d085538c4f0f03c1d9e012102ad709ef96c7a46d23ab8d3aca8b285bae1bca18b8fe0abba031a15e1e6da419e", "asm": "30440220353392a6959d91d95dc7e8aea082f6909fc42fe005f1ff0f6db05dd56dbc43bb022007ca72c2912f35de7678dfc785aee128a3199f7d8a786d085538c4f0f03c1d9e[ALL] 02ad709ef96c7a46d23ab8d3aca8b285bae1bca18b8fe0abba031a15e1e6da419e"}, "vout": 1, "txid": "f85ed8536944ce4789b561b4d23a68c9b9ad56316a037afc1a6a9e4ff9b1852b"}, {"sequence": 4294967295, "scriptSig": {"hex": "47304402207f0de9b0f68b2bde47d19beac8f9d2162b57d8730fd9e38d98a08b848539287902202d544a459ab7b0ae3f9a9cc81e4168c2d553956a11e8c0197ba7abbfabde6c2a0121030f3da049821ee9535b786194f9e9f3944433d322e5014a813f0912ca431b4d7e", "asm": "304402207f0de9b0f68b2bde47d19beac8f9d2162b57d8730fd9e38d98a08b848539287902202d544a459ab7b0ae3f9a9cc81e4168c2d553956a11e8c0197ba7abbfabde6c2a[ALL] 030f3da049821ee9535b786194f9e9f3944433d322e5014a813f0912ca431b4d7e"}, "vout": 1, "txid": "e0fe25b81195dfc6a4e1e8d20cf98513af3bed924c74055b59fafe29497e5c13"}, {"sequence": 4294967295, "scriptSig": {"hex": "47304402203549345fdff12cac9046a56f5614107badb79f30118f7026564f5bbf333b725a02205fd3bd99e61a4f41a9d3618054c8f80db72d0d50e1b7ec50b7d1ca11a74a57ae012102f01eacd6cd72986def7e527bb455b9157903ca55167f50b91a8904fa484d83de", "asm": "304402203549345fdff12cac9046a56f5614107badb79f30118f7026564f5bbf333b725a02205fd3bd99e61a4f41a9d3618054c8f80db72d0d50e1b7ec50b7d1ca11a74a57ae[ALL] 02f01eacd6cd72986def7e527bb455b9157903ca55167f50b91a8904fa484d83de"}, "vout": 1, "txid": "dc75937d909d44b08c54389d4fbc72f989672a4ff16f3efa230842f85030e016"}], "txid": "1e0265277772e6dd6716b665e92a51a930ce3320c07b13c941f013d8b82090b7", "blocktime": 1537869901, "version": 1, "confirmations": 11523, "time": 1537869901, "locktime": 0, "vsize": 485, "size": 485}