{"hash": "1e04baf8273e6d22ae0a053f2456f8c364a8160bedadea7f47a982294347aff4", "blockhash": "0000000000000000001f0ddff1eddb255c1121bcd4da4f1bc9a0da00cae72433", "vout": [{"scriptPubKey": {"reqSigs": 1, "hex": "76a914d243e6abb9a60fbff430b421d2df4b7d59ec186088ac", "addresses": ["1LAnF8h3qMGx3TSwNUHVneBZUEpwE4gu3D"], "asm": "OP_DUP OP_HASH160 d243e6abb9a60fbff430b421d2df4b7d59ec1860 OP_EQUALVERIFY OP_CHECKSIG", "type": "pubkeyhash"}, "value": 0.00077314, "n": 0}, {"scriptPubKey": {"reqSigs": 1, "hex": "76a9141382e7e24653f78a4ce279a39aa38a2446b0cfb788ac", "addresses": ["12nAf94VRoYa8TipdpgsdPG8fE6DaaAkGb"], "asm": "OP_DUP OP_HASH160 1382e7e24653f78a4ce279a39aa38a2446b0cfb7 OP_EQUALVERIFY OP_CHECKSIG", "type": "pubkeyhash"}, "value": 5.46e-06, "n": 1}, {"scriptPubKey": {"type": "nulldata", "hex": "6a146f6d6e69000000000000001f000003a37f485780", "asm": "OP_RETURN 6f6d6e69000000000000001f000003a37f485780"}, "value": 0.0, "n": 2}], "hex": "0100000001d162a689f6a74a7a4431ace3695fb855bcb7857d97857b09aa77e32523e7715c000000006a473044022053a134dcea0d9c60071292a8619e0a3229041e6f41caee4c2a6254ab8b9d7066022029db567a0c6e56f5839ba060a13b3847e7c00ab0fe02559b9e0feee782ca5de501210271977291b74f1f5f5c42157e8aae804664eaaeccfd097918450d37f28fb94d77ffffffff03022e0100000000001976a914d243e6abb9a60fbff430b421d2df4b7d59ec186088ac22020000000000001976a9141382e7e24653f78a4ce279a39aa38a2446b0cfb788ac0000000000000000166a146f6d6e69000000000000001f000003a37f48578000000000", "vin": [{"sequence": 4294967295, "scriptSig": {"hex": "473044022053a134dcea0d9c60071292a8619e0a3229041e6f41caee4c2a6254ab8b9d7066022029db567a0c6e56f5839ba060a13b3847e7c00ab0fe02559b9e0feee782ca5de501210271977291b74f1f5f5c42157e8aae804664eaaeccfd097918450d37f28fb94d77", "asm": "3044022053a134dcea0d9c60071292a8619e0a3229041e6f41caee4c2a6254ab8b9d7066022029db567a0c6e56f5839ba060a13b3847e7c00ab0fe02559b9e0feee782ca5de5[ALL] 0271977291b74f1f5f5c42157e8aae804664eaaeccfd097918450d37f28fb94d77"}, "vout": 0, "txid": "5c71e72325e377aa097b85977d85b7bc55b85f69e3ac31447a4aa7f689a662d1"}], "txid": "1e04baf8273e6d22ae0a053f2456f8c364a8160bedadea7f47a982294347aff4", "blocktime": 1537872018, "version": 1, "confirmations": 11489, "time": 1537872018, "locktime": 0, "vsize": 256, "size": 256}