{"hash": "1e0b520ef77a605e6615c3ce11427924a456cd39b674bc2c4d4258122e7be877", "blockhash": "00000000000000000017f5eb5941039fbcee6240d03bc1f2f8e35350df66a1d8", "vout": [{"scriptPubKey": {"reqSigs": 1, "hex": "a9141f12370ce36fc240947eaca9db89f3430b3f8c9287", "addresses": ["34XJh6PS7pvjE7NmhiPtJCwzYiCmqUPSBa"], "asm": "OP_HASH160 1f12370ce36fc240947eaca9db89f3430b3f8c92 OP_EQUAL", "type": "scripthash"}, "value": 0.05307021, "n": 0}], "hex": "01000000048ec2785c633c4cb828088f6132227b5a6fe1f21dd9504f1ecfa875bc072a6b350a0000006a47304402206d688317ce31ae3c4a94d1be6bc79bb1556649f80e9a253315e5c7023a6bdf070220115acfbf9d653d2c58542c08d08b81a44dd4a9c4d13e3c282769936d19aedbab012102816c8ad2858cc6011f1b9316ad2f29684b15ce4d06f26e113e53f94c2aa470b3ffffffff8ec2785c633c4cb828088f6132227b5a6fe1f21dd9504f1ecfa875bc072a6b35020000006a47304402202f22f268df4794ce577ff4231f5e3fc1e567d4ed0e1e48020d9fd452010591200220212c85432c0e63b73298f79c4eca549e9cc6ba2b153c142e1a5b368525633c8f012102f2c99ad85416b27c0ddb2308dcf172d7400a5e4fd986711e3a192c2785f2b8acffffffff527012d26acfab48a60815ae9f183236bf9424b8d192b2134bd854f6961412ee000000006a473044022022c34c1d894fe6b19e64ddd3e16545fe8ecf5b579df63e813f20bf076ec2c1df022017fd504c7cdcfde733bd0831f5d158cbfcfe4c4d52624bdc1fb3f74ab6e4ea4101210350088b1b0ade4733f6675b58abf6bc7eb6f4bd585996cce214e9a559dcdc6bf9ffffffff0ca74cbdd1aa9ed19d1a2d14efda11cb4ddc2865ec9a5b449f4b76846ee3a8ef000000006a47304402203a5b9ab7879aa2c1bcfdbd960baddf0cfc0e5b8f5f05f4cebbf9b596d53933b5022032385912e51d8d3b9230a9cbdbdde77d2e2ffee51c4c4938287dadc4adc0133c012103251bfe04ae497d700f3e738408eca5f91deb191bd5646f3be6fec5a5823aece3ffffffff018dfa50000000000017a9141f12370ce36fc240947eaca9db89f3430b3f8c928700000000", "vin": [{"sequence": 4294967295, "scriptSig": {"hex": "47304402206d688317ce31ae3c4a94d1be6bc79bb1556649f80e9a253315e5c7023a6bdf070220115acfbf9d653d2c58542c08d08b81a44dd4a9c4d13e3c282769936d19aedbab012102816c8ad2858cc6011f1b9316ad2f29684b15ce4d06f26e113e53f94c2aa470b3", "asm": "304402206d688317ce31ae3c4a94d1be6bc79bb1556649f80e9a253315e5c7023a6bdf070220115acfbf9d653d2c58542c08d08b81a44dd4a9c4d13e3c282769936d19aedbab[ALL] 02816c8ad2858cc6011f1b9316ad2f29684b15ce4d06f26e113e53f94c2aa470b3"}, "vout": 10, "txid": "356b2a07bc75a8cf1e4f50d91df2e16f5a7b2232618f0828b84c3c635c78c28e"}, {"sequence": 4294967295, "scriptSig": {"hex": "47304402202f22f268df4794ce577ff4231f5e3fc1e567d4ed0e1e48020d9fd452010591200220212c85432c0e63b73298f79c4eca549e9cc6ba2b153c142e1a5b368525633c8f012102f2c99ad85416b27c0ddb2308dcf172d7400a5e4fd986711e3a192c2785f2b8ac", "asm": "304402202f22f268df4794ce577ff4231f5e3fc1e567d4ed0e1e48020d9fd452010591200220212c85432c0e63b73298f79c4eca549e9cc6ba2b153c142e1a5b368525633c8f[ALL] 02f2c99ad85416b27c0ddb2308dcf172d7400a5e4fd986711e3a192c2785f2b8ac"}, "vout": 2, "txid": "356b2a07bc75a8cf1e4f50d91df2e16f5a7b2232618f0828b84c3c635c78c28e"}, {"sequence": 4294967295, "scriptSig": {"hex": "473044022022c34c1d894fe6b19e64ddd3e16545fe8ecf5b579df63e813f20bf076ec2c1df022017fd504c7cdcfde733bd0831f5d158cbfcfe4c4d52624bdc1fb3f74ab6e4ea4101210350088b1b0ade4733f6675b58abf6bc7eb6f4bd585996cce214e9a559dcdc6bf9", "asm": "3044022022c34c1d894fe6b19e64ddd3e16545fe8ecf5b579df63e813f20bf076ec2c1df022017fd504c7cdcfde733bd0831f5d158cbfcfe4c4d52624bdc1fb3f74ab6e4ea41[ALL] 0350088b1b0ade4733f6675b58abf6bc7eb6f4bd585996cce214e9a559dcdc6bf9"}, "vout": 0, "txid": "ee121496f654d84b13b292d1b82494bf3632189fae1508a648abcf6ad2127052"}, {"sequence": 4294967295, "scriptSig": {"hex": "47304402203a5b9ab7879aa2c1bcfdbd960baddf0cfc0e5b8f5f05f4cebbf9b596d53933b5022032385912e51d8d3b9230a9cbdbdde77d2e2ffee51c4c4938287dadc4adc0133c012103251bfe04ae497d700f3e738408eca5f91deb191bd5646f3be6fec5a5823aece3", "asm": "304402203a5b9ab7879aa2c1bcfdbd960baddf0cfc0e5b8f5f05f4cebbf9b596d53933b5022032385912e51d8d3b9230a9cbdbdde77d2e2ffee51c4c4938287dadc4adc0133c[ALL] 03251bfe04ae497d700f3e738408eca5f91deb191bd5646f3be6fec5a5823aece3"}, "vout": 0, "txid": "efa8e36e84764b9f445b9aec6528dc4dcb11daef142d1a9dd19eaad1bd4ca70c"}], "txid": "1e0b520ef77a605e6615c3ce11427924a456cd39b674bc2c4d4258122e7be877", "blocktime": 1537874412, "version": 1, "confirmations": 11468, "time": 1537874412, "locktime": 0, "vsize": 630, "size": 630}