{"hash": "1e0cc1a318f5e2d3863c31ccfb702dd464e331f080314a9874fd186aa6fd5532", "blockhash": "0000000000000000000e13cef7c366c0283d82e591d1acd082e914b08063cdf1", "vout": [{"scriptPubKey": {"type": "nulldata", "hex": "6a4c50000077a20001724455df2a838b0683ae37e8af6c953dd567cf27e7e3ef3236678a625097a3030b8025379696c9fb6f4f6c68466e5baa0e8d0614adbfbdeec81dbc9a9526289ac0f6612cd74e33776ee4", "asm": "OP_RETURN 000077a20001724455df2a838b0683ae37e8af6c953dd567cf27e7e3ef3236678a625097a3030b8025379696c9fb6f4f6c68466e5baa0e8d0614adbfbdeec81dbc9a9526289ac0f6612cd74e33776ee4"}, "value": 0.0, "n": 0}, {"scriptPubKey": {"reqSigs": 1, "hex": "76a9148962535a6894f3b6055b39c6f989775b70a7d08c88ac", "addresses": ["1DXRN4fHWBzZYBxezWcGKP6aMUf33DPDWS"], "asm": "OP_DUP OP_HASH160 8962535a6894f3b6055b39c6f989775b70a7d08c OP_EQUALVERIFY OP_CHECKSIG", "type": "pubkeyhash"}, "value": 0.0009724, "n": 1}], "hex": "0100000001aef6d4f0b03fa9943dedfefa376be914e006c97680ee03f04aae7ea1659e86a5010000006a47304402205b5361bdd3df68f19a18f05a4dcdded116d4aaaf2fc971e1d4655728101bb41502200f89fbff26876ebb3148dde39683cc3e91c3832f0683499771cbbb7f4c8cda1c0121027833ae0ec3c60a9e8619703aad08622d4bc857ec0e5d9bb1f41e86ec7e510d96ffffffff020000000000000000536a4c50000077a20001724455df2a838b0683ae37e8af6c953dd567cf27e7e3ef3236678a625097a3030b8025379696c9fb6f4f6c68466e5baa0e8d0614adbfbdeec81dbc9a9526289ac0f6612cd74e33776ee4d87b0100000000001976a9148962535a6894f3b6055b39c6f989775b70a7d08c88ac00000000", "vin": [{"sequence": 4294967295, "scriptSig": {"hex": "47304402205b5361bdd3df68f19a18f05a4dcdded116d4aaaf2fc971e1d4655728101bb41502200f89fbff26876ebb3148dde39683cc3e91c3832f0683499771cbbb7f4c8cda1c0121027833ae0ec3c60a9e8619703aad08622d4bc857ec0e5d9bb1f41e86ec7e510d96", "asm": "304402205b5361bdd3df68f19a18f05a4dcdded116d4aaaf2fc971e1d4655728101bb41502200f89fbff26876ebb3148dde39683cc3e91c3832f0683499771cbbb7f4c8cda1c[ALL] 027833ae0ec3c60a9e8619703aad08622d4bc857ec0e5d9bb1f41e86ec7e510d96"}, "vout": 1, "txid": "a5869e65a17eae4af003ee8076c906e014e96b37fafeed3d94a93fb0f0d4f6ae"}], "txid": "1e0cc1a318f5e2d3863c31ccfb702dd464e331f080314a9874fd186aa6fd5532", "blocktime": 1537871767, "version": 1, "confirmations": 11493, "time": 1537871767, "locktime": 0, "vsize": 283, "size": 283}