{"hash": "1e0e70e6d135771f37ad09c12c91baa591f161c4a5de00c59fb934ea7616c76e", "blockhash": "00000000000000000024a2167bbff67b0be802c0b01cdd79e6331c2be6459f87", "vout": [{"scriptPubKey": {"reqSigs": 1, "hex": "76a9148a6caa70d37068503b66a875dd23409c28f442b388ac", "addresses": ["1DcvRhp3kT3PHvwpLWkmbTXjEvkruMzAA1"], "asm": "OP_DUP OP_HASH160 8a6caa70d37068503b66a875dd23409c28f442b3 OP_EQUALVERIFY OP_CHECKSIG", "type": "pubkeyhash"}, "value": 0.000317, "n": 0}], "hex": "010000000162e83b634092216cac5fe714365f383603f7e01be5a3c435166ec9a88710f38d000000006a47304402204fe27b2e8c9f4ec85fed5488d6d7b4973d2afcdf35c8d23d03671e5353bcc5e302205e2a85b0f24f795bd492da93d6f59370c5441ca42c86b1154d87c54f371bae5c012102bad6748deeba4bcf44bed443e094aa7831e724dfdba7a4e6cd59d72c356ac31cffffffff01d47b0000000000001976a9148a6caa70d37068503b66a875dd23409c28f442b388ac00000000", "vin": [{"sequence": 4294967295, "scriptSig": {"hex": "47304402204fe27b2e8c9f4ec85fed5488d6d7b4973d2afcdf35c8d23d03671e5353bcc5e302205e2a85b0f24f795bd492da93d6f59370c5441ca42c86b1154d87c54f371bae5c012102bad6748deeba4bcf44bed443e094aa7831e724dfdba7a4e6cd59d72c356ac31c", "asm": "304402204fe27b2e8c9f4ec85fed5488d6d7b4973d2afcdf35c8d23d03671e5353bcc5e302205e2a85b0f24f795bd492da93d6f59370c5441ca42c86b1154d87c54f371bae5c[ALL] 02bad6748deeba4bcf44bed443e094aa7831e724dfdba7a4e6cd59d72c356ac31c"}, "vout": 0, "txid": "8df31087a8c96e1635c4a3e51be0f70336385f3614e75fac6c219240633be862"}], "txid": "1e0e70e6d135771f37ad09c12c91baa591f161c4a5de00c59fb934ea7616c76e", "blocktime": 1537870564, "version": 1, "confirmations": 11515, "time": 1537870564, "locktime": 0, "vsize": 191, "size": 191}