{"hash": "80558e0fcea3a1e520037a3889b913b98511051e9fe971548d18ac13555d68ed", "blockhash": "00000000000000000018f53835495a110e01622372bf6ae95dc86f2b0ab887b0", "vout": [{"scriptPubKey": {"reqSigs": 1, "hex": "a91426cdf007b1a32d494889a82fddd9d11574c033d487", "addresses": ["35ECJdUxTawNWWJThnr2a3Yhkf4UwnnB7N"], "asm": "OP_HASH160 26cdf007b1a32d494889a82fddd9d11574c033d4 OP_EQUAL", "type": "scripthash"}, "value": 1.1809534, "n": 0}, {"scriptPubKey": {"reqSigs": 1, "hex": "76a914d9779b960c497fb70111789097193926198adfd788ac", "addresses": ["1Lprv7xUqR43fRJKn8yVGE57Z4UJkCgNJg"], "asm": "OP_DUP OP_HASH160 d9779b960c497fb70111789097193926198adfd7 OP_EQUALVERIFY OP_CHECKSIG", "type": "pubkeyhash"}, "value": 0.0395, "n": 1}], "hex": "020000000001012dffd4395d4e5af2b2d4a88a8fac691e49a7b9343717a56976456c661c8ae97000000000171600141e24acf5fede6f6e421f2c03a48843901bad45c3feffffff02ecfd09070000000017a91426cdf007b1a32d494889a82fddd9d11574c033d487b0453c00000000001976a914d9779b960c497fb70111789097193926198adfd788ac02483045022100e41f91cb471fa0322e2b13107f675ba55d83fb43e5566647bd235ae2399312f102203dbd06a2999e516b71cec9dc30c9a8636ed0074da3ced787e64b74a60a1a290601210307f01be6e004e73d220785a0b5fa8ad90c888bf32515c85d9e2d419e99f614180e490800", "vin": [{"txinwitness": ["3045022100e41f91cb471fa0322e2b13107f675ba55d83fb43e5566647bd235ae2399312f102203dbd06a2999e516b71cec9dc30c9a8636ed0074da3ced787e64b74a60a1a290601", "0307f01be6e004e73d220785a0b5fa8ad90c888bf32515c85d9e2d419e99f61418"], "sequence": 4294967294, "scriptSig": {"hex": "1600141e24acf5fede6f6e421f2c03a48843901bad45c3", "asm": "00141e24acf5fede6f6e421f2c03a48843901bad45c3"}, "vout": 0, "txid": "70e98a1c666c457669a5173734b9a7491e69ac8f8aa8d4b2f25a4e5d39d4ff2d"}], "txid": "1e0ecd5f7321f2ab8e4d459bb14cd2a01ebc6ec42e8619c5339fcfec40175324", "blocktime": 1537870928, "version": 2, "confirmations": 11514, "time": 1537870928, "locktime": 542990, "vsize": 168, "size": 250}