{"hash": "1e11649d04492044e95616b1c44dee7a5f308dec72600748d801ef6dd1f1344d", "blockhash": "0000000000000000001f0ddff1eddb255c1121bcd4da4f1bc9a0da00cae72433", "vout": [{"scriptPubKey": {"type": "nulldata", "hex": "6a4c50000077a70001bce166cdd5c3a8a548e45712af6c953dd567cf27e7e3ef3236678a62509738897a2b0c6b1d23b3efafcc8f3883695baa0f96061395acacf5c7191d100759d4ba30d2c37bb011d97e02cf", "asm": "OP_RETURN 000077a70001bce166cdd5c3a8a548e45712af6c953dd567cf27e7e3ef3236678a62509738897a2b0c6b1d23b3efafcc8f3883695baa0f96061395acacf5c7191d100759d4ba30d2c37bb011d97e02cf"}, "value": 0.0, "n": 0}, {"scriptPubKey": {"reqSigs": 1, "hex": "76a914194838a6d26d55c37abeece0055f742ed9064fda88ac", "addresses": ["13JgQpXGokH9UMqNTEykDCAaXgtxwBWJ6a"], "asm": "OP_DUP OP_HASH160 194838a6d26d55c37abeece0055f742ed9064fda OP_EQUALVERIFY OP_CHECKSIG", "type": "pubkeyhash"}, "value": 0.0064581, "n": 1}], "hex": "0100000001cd341078deb7216a38875ee088f1d90d0dccec0ae198bcf125f1343ad840bc4e010000006b483045022100ba4d0f461cd1398e5bafaba1c959a6d1e306efbaa7010f67d35c7962e10f44400220602ca3eeebc2ca4703c79f58a20d855e66d5fa7db039b0cac6949818ff4bdac301210333efc2926fa74a58b7696b8435ab55031c59b09c347b1ab16ae8317d939e6232ffffffff020000000000000000536a4c50000077a70001bce166cdd5c3a8a548e45712af6c953dd567cf27e7e3ef3236678a62509738897a2b0c6b1d23b3efafcc8f3883695baa0f96061395acacf5c7191d100759d4ba30d2c37bb011d97e02cfb2da0900000000001976a914194838a6d26d55c37abeece0055f742ed9064fda88ac00000000", "vin": [{"sequence": 4294967295, "scriptSig": {"hex": "483045022100ba4d0f461cd1398e5bafaba1c959a6d1e306efbaa7010f67d35c7962e10f44400220602ca3eeebc2ca4703c79f58a20d855e66d5fa7db039b0cac6949818ff4bdac301210333efc2926fa74a58b7696b8435ab55031c59b09c347b1ab16ae8317d939e6232", "asm": "3045022100ba4d0f461cd1398e5bafaba1c959a6d1e306efbaa7010f67d35c7962e10f44400220602ca3eeebc2ca4703c79f58a20d855e66d5fa7db039b0cac6949818ff4bdac3[ALL] 0333efc2926fa74a58b7696b8435ab55031c59b09c347b1ab16ae8317d939e6232"}, "vout": 1, "txid": "4ebc40d83a34f125f1bc98e10aeccc0d0dd9f188e05e87386a21b7de781034cd"}], "txid": "1e11649d04492044e95616b1c44dee7a5f308dec72600748d801ef6dd1f1344d", "blocktime": 1537872018, "version": 1, "confirmations": 11489, "time": 1537872018, "locktime": 0, "vsize": 284, "size": 284}