{"hash": "d10f7d154c3e6c5dcecf83ee4c172924b3a2aa5718c2f855371532f7ae9631a2", "blockhash": "000000000000000000022b45ed06c6f4ccd3cf7fb5ba4856ebd2e58215665228", "vout": [{"scriptPubKey": {"reqSigs": 1, "hex": "a914db54eeb6dd9a95d6c3cd3d6160a4cb4f090bcb8d87", "addresses": ["3MgjemRCBM892EQkWf6rBAiTFFyNtve1Kp"], "asm": "OP_HASH160 db54eeb6dd9a95d6c3cd3d6160a4cb4f090bcb8d OP_EQUAL", "type": "scripthash"}, "value": 0.01, "n": 0}, {"scriptPubKey": {"reqSigs": 1, "hex": "0014dfa3657836c8ebda87a06ef66258578effccf684", "addresses": ["bc1qm73k27pker4a4paqdmmxykzh3mluea5yp9p3uv"], "asm": "0 dfa3657836c8ebda87a06ef66258578effccf684", "type": "witness_v0_keyhash"}, "value": 2.199e-05, "n": 1}], "hex": "0100000000010117a136452ffb767c2f38438f416362925552abb80cd177fbdb73613a099974500100000000ffffffff0240420f000000000017a914db54eeb6dd9a95d6c3cd3d6160a4cb4f090bcb8d879708000000000000160014dfa3657836c8ebda87a06ef66258578effccf6840247304402202339ba93de20e07d153925ffc3f0dadfe7aec123e606fadc3a955d9e3931aadd02207a35d575cff9128486a4b048c04a893e467a9c573891efa12d2fbba45528d4f70121023c65d77b563ea9276414781912fc6462009b608c2355af12aa8ea68e9a522daa00000000", "vin": [{"txinwitness": ["304402202339ba93de20e07d153925ffc3f0dadfe7aec123e606fadc3a955d9e3931aadd02207a35d575cff9128486a4b048c04a893e467a9c573891efa12d2fbba45528d4f701", "023c65d77b563ea9276414781912fc6462009b608c2355af12aa8ea68e9a522daa"], "sequence": 4294967295, "scriptSig": {"hex": "", "asm": ""}, "vout": 1, "txid": "507499093a6173dbfb77d10cb8ab5255926263418f43382f7c76fb2f4536a117"}], "txid": "1e17877443680f256bd6ab57030ad2d3fcea73d6cd1dc38b97b5928a865ef66e", "blocktime": 1537869901, "version": 1, "confirmations": 11523, "time": 1537869901, "locktime": 0, "vsize": 142, "size": 223}