{"hash": "b0ffd09d7f806704c34a12797c40e31fa90c4a43bb1dacd2d18008bc8dc99ad5", "blockhash": "000000000000000000022b45ed06c6f4ccd3cf7fb5ba4856ebd2e58215665228", "vout": [{"scriptPubKey": {"reqSigs": 1, "hex": "76a91408a635f936e27594b6953ba7cb25b3c89bf9cb9f88ac", "addresses": ["1njX4pWPi5VabJJwjmrjEArXTkY1RmWGn"], "asm": "OP_DUP OP_HASH160 08a635f936e27594b6953ba7cb25b3c89bf9cb9f OP_EQUALVERIFY OP_CHECKSIG", "type": "pubkeyhash"}, "value": 0.016307, "n": 0}, {"scriptPubKey": {"reqSigs": 1, "hex": "a9147007052becaa97d6378ea7da406af237c7ceefd587", "addresses": ["3BuN1oQX33ZJKiwtNA8WqfLG42KMEGjFK8"], "asm": "OP_HASH160 7007052becaa97d6378ea7da406af237c7ceefd5 OP_EQUAL", "type": "scripthash"}, "value": 0.01786088, "n": 1}], "hex": "0200000000010168b8b808c2d861e3394b71e839080d11687fbf5fa3e2843c97eb728874c12477010000001716001465f04809933a78cf257c1079676548f680de2595ffffffff02ece11800000000001976a91408a635f936e27594b6953ba7cb25b3c89bf9cb9f88ace8401b000000000017a9147007052becaa97d6378ea7da406af237c7ceefd58702483045022100cd443beb2cf627ab2d4ef1d1c1d805ba922d75ec6daef6d7d7c7634615dde8e602200b16f22a9d1408aaebed27f2bd91c47034e2defdb9e0f3960ab262dc66250c8101210224018ea9f1fc213adc8176fdcdf0c866f0e0369b10101bfe86f2d8b5502a805f00000000", "vin": [{"txinwitness": ["3045022100cd443beb2cf627ab2d4ef1d1c1d805ba922d75ec6daef6d7d7c7634615dde8e602200b16f22a9d1408aaebed27f2bd91c47034e2defdb9e0f3960ab262dc66250c8101", "0224018ea9f1fc213adc8176fdcdf0c866f0e0369b10101bfe86f2d8b5502a805f"], "sequence": 4294967295, "scriptSig": {"hex": "16001465f04809933a78cf257c1079676548f680de2595", "asm": "001465f04809933a78cf257c1079676548f680de2595"}, "vout": 1, "txid": "7724c1748872eb973c84e2a35fbf7f68110d0839e8714b39e361d8c208b8b868"}], "txid": "1e1906ca8c00763e941825e91137c246e9ed4c250d2d362f258e61efad2a3d92", "blocktime": 1537869901, "version": 2, "confirmations": 11522, "time": 1537869901, "locktime": 0, "vsize": 168, "size": 250}