{"hash": "1e1a73c9c7246a60b2ff46de109e6226a1100dfe5726fd14cc717a426b8e64f7", "blockhash": "0000000000000000000dcc0f55137456b1a82d3642486a52398922ac4d620174", "vout": [{"scriptPubKey": {"reqSigs": 1, "hex": "76a914b580fda3f0035b1e81cd8e6ffaf378ecbe36594f88ac", "addresses": ["1HYhqAAZB3QVRKnJTNdXtV5XEGoq6Xc3Xf"], "asm": "OP_DUP OP_HASH160 b580fda3f0035b1e81cd8e6ffaf378ecbe36594f OP_EQUALVERIFY OP_CHECKSIG", "type": "pubkeyhash"}, "value": 0.00648761, "n": 0}, {"scriptPubKey": {"type": "nulldata", "hex": "6a4c50000077690001e16adf787b9c776d180ae71886aeaeacb577c031fc3a016b46dc7dc7d096767c5c8e047d65f6f2e17fb8c48d12e95baa083406136613f5d78da11d100759d4ba30d2c37bb011d97e02cf", "asm": "OP_RETURN 000077690001e16adf787b9c776d180ae71886aeaeacb577c031fc3a016b46dc7dc7d096767c5c8e047d65f6f2e17fb8c48d12e95baa083406136613f5d78da11d100759d4ba30d2c37bb011d97e02cf"}, "value": 0.0, "n": 1}], "hex": "0100000001d0ebdb4b9bcd73b1f9a5881375b3e7892ea630e6c65c46ac589c1844fd212aac010000006a47304402205160f577f6cac1f631ad6e804b235577fd4783f67e778ecae5623ca0cf6a725002201b594cb07c9ad21e32d0ac1b36a003eaab23889aec14941a6304931f252d483b01210305fffb187d711b5be9b019038cc53aaf32668be734de5c46480a927ff2ee47d1ffffffff0239e60900000000001976a914b580fda3f0035b1e81cd8e6ffaf378ecbe36594f88ac0000000000000000536a4c50000077690001e16adf787b9c776d180ae71886aeaeacb577c031fc3a016b46dc7dc7d096767c5c8e047d65f6f2e17fb8c48d12e95baa083406136613f5d78da11d100759d4ba30d2c37bb011d97e02cf00000000", "vin": [{"sequence": 4294967295, "scriptSig": {"hex": "47304402205160f577f6cac1f631ad6e804b235577fd4783f67e778ecae5623ca0cf6a725002201b594cb07c9ad21e32d0ac1b36a003eaab23889aec14941a6304931f252d483b01210305fffb187d711b5be9b019038cc53aaf32668be734de5c46480a927ff2ee47d1", "asm": "304402205160f577f6cac1f631ad6e804b235577fd4783f67e778ecae5623ca0cf6a725002201b594cb07c9ad21e32d0ac1b36a003eaab23889aec14941a6304931f252d483b[ALL] 0305fffb187d711b5be9b019038cc53aaf32668be734de5c46480a927ff2ee47d1"}, "vout": 1, "txid": "ac2a21fd44189c58ac465cc6e630a62e89e7b3751388a5f9b173cd9b4bdbebd0"}], "txid": "1e1a73c9c7246a60b2ff46de109e6226a1100dfe5726fd14cc717a426b8e64f7", "blocktime": 1537870268, "version": 1, "confirmations": 11518, "time": 1537870268, "locktime": 0, "vsize": 283, "size": 283}