{"hash": "1e1d272a9fadc97ca7843da9969f50939bf534ee58170d844d70ff090c9bf9c7", "blockhash": "0000000000000000000dcc0f55137456b1a82d3642486a52398922ac4d620174", "vout": [{"scriptPubKey": {"reqSigs": 1, "hex": "76a914dab244c91584989e6d79738319efc7722591547f88ac", "addresses": ["1LwMs9Qk434LzVvw9ZgcCirraM3NTuZqis"], "asm": "OP_DUP OP_HASH160 dab244c91584989e6d79738319efc7722591547f OP_EQUALVERIFY OP_CHECKSIG", "type": "pubkeyhash"}, "value": 0.00688748, "n": 0}, {"scriptPubKey": {"reqSigs": 1, "hex": "76a91414a51a75ed770a00a3e2de9957735783625775c588ac", "addresses": ["12tAJRKYbUKqqLRDyefgd1k5v8KReNEfAX"], "asm": "OP_DUP OP_HASH160 14a51a75ed770a00a3e2de9957735783625775c5 OP_EQUALVERIFY OP_CHECKSIG", "type": "pubkeyhash"}, "value": 0.19020106, "n": 1}], "hex": "010000000118ca9cb034591e2c5b8124e084321d2bc045fcf845d54b74d76190e1e31be66f010000006b483045022100eb5daa199232b3ceac82a26e35ef1cdd92859a6be05fc2624641004341da1db3022003c9229182acfb4869556f1f7cd3bbf6d013d0c8cfe9f472962e0eb68def7fa201210201576a1fc2d5263a1b3b1f0df9feda1b59be062b4fbf6ef132f70463c946d962ffffffff026c820a00000000001976a914dab244c91584989e6d79738319efc7722591547f88ac4a392201000000001976a91414a51a75ed770a00a3e2de9957735783625775c588ac00000000", "vin": [{"sequence": 4294967295, "scriptSig": {"hex": "483045022100eb5daa199232b3ceac82a26e35ef1cdd92859a6be05fc2624641004341da1db3022003c9229182acfb4869556f1f7cd3bbf6d013d0c8cfe9f472962e0eb68def7fa201210201576a1fc2d5263a1b3b1f0df9feda1b59be062b4fbf6ef132f70463c946d962", "asm": "3045022100eb5daa199232b3ceac82a26e35ef1cdd92859a6be05fc2624641004341da1db3022003c9229182acfb4869556f1f7cd3bbf6d013d0c8cfe9f472962e0eb68def7fa2[ALL] 0201576a1fc2d5263a1b3b1f0df9feda1b59be062b4fbf6ef132f70463c946d962"}, "vout": 1, "txid": "6fe61be3e19061d7744bd545f8fc45c02b1d3284e024815b2c1e5934b09cca18"}], "txid": "1e1d272a9fadc97ca7843da9969f50939bf534ee58170d844d70ff090c9bf9c7", "blocktime": 1537870268, "version": 1, "confirmations": 11517, "time": 1537870268, "locktime": 0, "vsize": 226, "size": 226}