{"hash": "1084b71ccea6da349d2afdb6436ffb04ccdbbd7d28538267a0b8b7719f2fd463", "blockhash": "0000000000000000001cda96e906b7601b7a6fb1a3b62bca570a9e5d8f4b3de1", "vout": [{"scriptPubKey": {"reqSigs": 1, "hex": "0014fdc95bc85048281e2807ca00f349974fe0cb23b1", "addresses": ["bc1qlhy4hjzsfq5pu2q8egq0xjvhflsvkga3gcqg8v"], "asm": "0 fdc95bc85048281e2807ca00f349974fe0cb23b1", "type": "witness_v0_keyhash"}, "value": 0.00027602, "n": 0}, {"scriptPubKey": {"reqSigs": 1, "hex": "a9140be7846be16b05bea00dbec2fcd7e045a793cb1787", "addresses": ["32mxhko5mJHfkbkDPpz7SfdJwEJi21P1WK"], "asm": "OP_HASH160 0be7846be16b05bea00dbec2fcd7e045a793cb17 OP_EQUAL", "type": "scripthash"}, "value": 0.19147619, "n": 1}], "hex": "01000000000101290a0c464bacfe6177916253c0400591cf51c8b5cb4aab6e1e0e037258eec25f01000000232200202c66ece6da72bcbfeadf83a91236f4891c13e14d8ecebdcaa81666fc1aa73a31ffffffff02d26b000000000000160014fdc95bc85048281e2807ca00f349974fe0cb23b1632b24010000000017a9140be7846be16b05bea00dbec2fcd7e045a793cb1787040048304502210082b64dc62d7d3b94cd3156802b917aaedd09e2fccad2304b9cfdec70b31c9a8502206d48939a82d93896f67d8b67632f2117a8b6bd714c1ee6ce95f698e425aae9c201483045022100a182c46dcd373b57bd7a59ee229f3e3aa8240a916a69740ae74a31e2216b25e80220440064bd8efc9d50a4bb694f86b0782b4881dc9b0a706ba67ee1facec682f64b01475221029e6fbb942d34a473faaa5557c1bfe08d72102f0b9754ad140fd369d7a3ba3cdc2103871fc2ca08e6950b38867e8e6a0e94ee625223d3aa0df5c65f414c6d784467e252ae00000000", "vin": [{"txinwitness": ["", "304502210082b64dc62d7d3b94cd3156802b917aaedd09e2fccad2304b9cfdec70b31c9a8502206d48939a82d93896f67d8b67632f2117a8b6bd714c1ee6ce95f698e425aae9c201", "3045022100a182c46dcd373b57bd7a59ee229f3e3aa8240a916a69740ae74a31e2216b25e80220440064bd8efc9d50a4bb694f86b0782b4881dc9b0a706ba67ee1facec682f64b01", "5221029e6fbb942d34a473faaa5557c1bfe08d72102f0b9754ad140fd369d7a3ba3cdc2103871fc2ca08e6950b38867e8e6a0e94ee625223d3aa0df5c65f414c6d784467e252ae"], "sequence": 4294967295, "scriptSig": {"hex": "2200202c66ece6da72bcbfeadf83a91236f4891c13e14d8ecebdcaa81666fc1aa73a31", "asm": "00202c66ece6da72bcbfeadf83a91236f4891c13e14d8ecebdcaa81666fc1aa73a31"}, "vout": 1, "txid": "5fc2ee5872030e1e6eab4acbb5c851cf910540c05362917761feac4b460c0a29"}], "txid": "1e1e05ce2463e1a652e962387f877be10fdd8efe84d79cfe5b029fa4aa44a003", "blocktime": 1537873282, "version": 1, "confirmations": 11484, "time": 1537873282, "locktime": 0, "vsize": 205, "size": 371}