{"hash": "1e20bf6075d9db8518b1a15002d974e24a0c4ebee64cc46936ea3e9386a92f75", "blockhash": "0000000000000000000e13cef7c366c0283d82e591d1acd082e914b08063cdf1", "vout": [{"scriptPubKey": {"reqSigs": 1, "hex": "76a914d7aa6200e9e448c90887f582f0cea8293d39397088ac", "addresses": ["1LfLPeh8ywECXiopyLtapFbRXSVbRNgsAr"], "asm": "OP_DUP OP_HASH160 d7aa6200e9e448c90887f582f0cea8293d393970 OP_EQUALVERIFY OP_CHECKSIG", "type": "pubkeyhash"}, "value": 7.339e-05, "n": 0}, {"scriptPubKey": {"reqSigs": 1, "hex": "76a914e1f7cfebcd350bf1707f524716a6c2bc0544436988ac", "addresses": ["1MbouTNuUsj2HepizXG51m6qKG3QXkEYXF"], "asm": "OP_DUP OP_HASH160 e1f7cfebcd350bf1707f524716a6c2bc05444369 OP_EQUALVERIFY OP_CHECKSIG", "type": "pubkeyhash"}, "value": 0.015803, "n": 1}], "hex": "0100000002703a06578dfe49e49fc5f5fe975a3b9118118a54c79f3601a72424af3726a1ac000000006b4830450221008032f2d2d17b1342760c014a1f96d08a1a7bb99b671a64791d5b34885874254c02202c43eae51b8d9b7776c3a4cc4e9781075c034dacf2b4094a94db2b170c1fa04201210376aefdce62b2c88846cd2984b72cded6fe828ad9b8efd9bcbec4d8a62b8ae71fffffffff23c4c39ee460cfdaab0fc7cc9594667cecfb1119ce25d2debfdcdc4b8f4a62ae010000006b483045022100f998739fb9a7a8accaf7ce0e6523d68cbbe721f22fb270c4bde9ad01c0290e1702206b0f0d04647d793c96922dc82983eb6af9ed39f97f7ebf7b5f05c4fbffa42c11012102dbbd693b411feb0ff304f8e19d96c53003b68bfc09483c561ee6a96d0da3faa0ffffffff02ab1c0000000000001976a914d7aa6200e9e448c90887f582f0cea8293d39397088ac0c1d1800000000001976a914e1f7cfebcd350bf1707f524716a6c2bc0544436988ac00000000", "vin": [{"sequence": 4294967295, "scriptSig": {"hex": "4830450221008032f2d2d17b1342760c014a1f96d08a1a7bb99b671a64791d5b34885874254c02202c43eae51b8d9b7776c3a4cc4e9781075c034dacf2b4094a94db2b170c1fa04201210376aefdce62b2c88846cd2984b72cded6fe828ad9b8efd9bcbec4d8a62b8ae71f", "asm": "30450221008032f2d2d17b1342760c014a1f96d08a1a7bb99b671a64791d5b34885874254c02202c43eae51b8d9b7776c3a4cc4e9781075c034dacf2b4094a94db2b170c1fa042[ALL] 0376aefdce62b2c88846cd2984b72cded6fe828ad9b8efd9bcbec4d8a62b8ae71f"}, "vout": 0, "txid": "aca12637af2424a701369fc7548a1118913b5a97fef5c59fe449fe8d57063a70"}, {"sequence": 4294967295, "scriptSig": {"hex": "483045022100f998739fb9a7a8accaf7ce0e6523d68cbbe721f22fb270c4bde9ad01c0290e1702206b0f0d04647d793c96922dc82983eb6af9ed39f97f7ebf7b5f05c4fbffa42c11012102dbbd693b411feb0ff304f8e19d96c53003b68bfc09483c561ee6a96d0da3faa0", "asm": "3045022100f998739fb9a7a8accaf7ce0e6523d68cbbe721f22fb270c4bde9ad01c0290e1702206b0f0d04647d793c96922dc82983eb6af9ed39f97f7ebf7b5f05c4fbffa42c11[ALL] 02dbbd693b411feb0ff304f8e19d96c53003b68bfc09483c561ee6a96d0da3faa0"}, "vout": 1, "txid": "ae624a8f4bdcdcbfded225ce1911fbec7c669495ccc70fabdacf60e49ec3c423"}], "txid": "1e20bf6075d9db8518b1a15002d974e24a0c4ebee64cc46936ea3e9386a92f75", "blocktime": 1537871767, "version": 1, "confirmations": 11495, "time": 1537871767, "locktime": 0, "vsize": 374, "size": 374}