{"hash": "25ed8a962b107ef5ac0158e2a6ed861942699de203453a1ffc05d4791c2c90f8", "blockhash": "00000000000000000004ffacab907a6b429b9a5745fa0b75af4234bf69dd7176", "vout": [{"scriptPubKey": {"reqSigs": 1, "hex": "76a9142c1541a384622b130918cfe91d4cf988070614c288ac", "addresses": ["1526CMx4Pqri1hz827umZKXbgdqoz7dnht"], "asm": "OP_DUP OP_HASH160 2c1541a384622b130918cfe91d4cf988070614c2 OP_EQUALVERIFY OP_CHECKSIG", "type": "pubkeyhash"}, "value": 0.00099125, "n": 0}], "hex": "0100000000010142c4b7cd20f80d66c22d03a944c8f627993b7965aeef37c9dbf1cf0a7129decd0100000017160014006ed696508e93dbb7246433e9ca6faae7738c00ffffffff0135830100000000001976a9142c1541a384622b130918cfe91d4cf988070614c288ac024730440220612fc7395fa8e71fb7b96da00c3bd6db14f721039c66d27980a825282b1fc37d02200c2cfc245f01808abcd226c25c3c47bd8665e4709ead41963f6f199897ba2644012103e19b6e720fb632c93248ae4859b18d76cbf57b97c83309a969c0ba9392c813b300000000", "vin": [{"txinwitness": ["30440220612fc7395fa8e71fb7b96da00c3bd6db14f721039c66d27980a825282b1fc37d02200c2cfc245f01808abcd226c25c3c47bd8665e4709ead41963f6f199897ba264401", "03e19b6e720fb632c93248ae4859b18d76cbf57b97c83309a969c0ba9392c813b3"], "sequence": 4294967295, "scriptSig": {"hex": "160014006ed696508e93dbb7246433e9ca6faae7738c00", "asm": "0014006ed696508e93dbb7246433e9ca6faae7738c00"}, "vout": 1, "txid": "cdde29710acff1dbc937efae65793b9927f6c844a9032dc2660df820cdb7c442"}], "txid": "1e26fbc18534db7efa05ab38b7eab1348a6b11166bf1397445ef04421d557b89", "blocktime": 1537875543, "version": 1, "confirmations": 11464, "time": 1537875543, "locktime": 0, "vsize": 136, "size": 217}