{"hash": "1e28dc8ab13e33fcbd32d5b233b02a8b4bc2f6277aeb788f21ebf46a1845295e", "blockhash": "00000000000000000004ffacab907a6b429b9a5745fa0b75af4234bf69dd7176", "vout": [{"scriptPubKey": {"reqSigs": 1, "hex": "76a91416538c0e9436c4ab6fc6c878510d0f3b704edb6e88ac", "addresses": ["1333xB7aLZC35NH1UXWhjdcaG82Kdi2QNW"], "asm": "OP_DUP OP_HASH160 16538c0e9436c4ab6fc6c878510d0f3b704edb6e OP_EQUALVERIFY OP_CHECKSIG", "type": "pubkeyhash"}, "value": 0.21197828, "n": 0}, {"scriptPubKey": {"reqSigs": 1, "hex": "a914efb210960213cc0147aa13f455451483c4b3b94687", "addresses": ["3PYQjYqJbBe9CYuCB4yWDhkgH4wP5fw2CE"], "asm": "OP_HASH160 efb210960213cc0147aa13f455451483c4b3b946 OP_EQUAL", "type": "scripthash"}, "value": 0.00187584, "n": 1}], "hex": "0200000001a93cf655e727b2430114b08183177040d55da32e6e1955ee918ec9aa10067b96010000006a4730440220432261684d3bdd089bd9080f1227d66b2e14675ac2cba721b878cb3003a01cf2022029b5b88637d3bdfcd5f7e9336e8112ccc01b0b6119e33d04f79cb0f5d58ff042012103dd85ab4f7d3500a3afdd2d3b91f03a443e9852a96957183a39faba5cab92300bfeffffff0204744301000000001976a91416538c0e9436c4ab6fc6c878510d0f3b704edb6e88acc0dc02000000000017a914efb210960213cc0147aa13f455451483c4b3b9468716490800", "vin": [{"sequence": 4294967294, "scriptSig": {"hex": "4730440220432261684d3bdd089bd9080f1227d66b2e14675ac2cba721b878cb3003a01cf2022029b5b88637d3bdfcd5f7e9336e8112ccc01b0b6119e33d04f79cb0f5d58ff042012103dd85ab4f7d3500a3afdd2d3b91f03a443e9852a96957183a39faba5cab92300b", "asm": "30440220432261684d3bdd089bd9080f1227d66b2e14675ac2cba721b878cb3003a01cf2022029b5b88637d3bdfcd5f7e9336e8112ccc01b0b6119e33d04f79cb0f5d58ff042[ALL] 03dd85ab4f7d3500a3afdd2d3b91f03a443e9852a96957183a39faba5cab92300b"}, "vout": 1, "txid": "967b0610aac98e91ee55196e2ea35dd54070178381b0140143b227e755f63ca9"}], "txid": "1e28dc8ab13e33fcbd32d5b233b02a8b4bc2f6277aeb788f21ebf46a1845295e", "blocktime": 1537875543, "version": 2, "confirmations": 11464, "time": 1537875543, "locktime": 542998, "vsize": 223, "size": 223}