{"hash": "bed8f4ba5c8ee344068202368149c21fdeeedda9dd26c4c7a165cbea174a4997", "blockhash": "0000000000000000000dcc0f55137456b1a82d3642486a52398922ac4d620174", "vout": [{"scriptPubKey": {"reqSigs": 1, "hex": "a914548ec293c5cef1436cb067819b080a56fd9a0d3187", "addresses": ["39Q7hoQRGBj5WBDiiJf9XUzNuV66qp9Czc"], "asm": "OP_HASH160 548ec293c5cef1436cb067819b080a56fd9a0d31 OP_EQUAL", "type": "scripthash"}, "value": 0.28979092, "n": 0}, {"scriptPubKey": {"reqSigs": 1, "hex": "a91449ae576e1160d54fa1c7c570659004ee8aaa452c87", "addresses": ["38Qc71TmRs8m7F4YYw7ABgMf8hzR1nxmuQ"], "asm": "OP_HASH160 49ae576e1160d54fa1c7c570659004ee8aaa452c OP_EQUAL", "type": "scripthash"}, "value": 0.17175799, "n": 1}], "hex": "02000000000101383f8dbe12242a9f51f1331c8d106e6738e03256b0bec98c6d759d7a8fa96b010000000017160014cafccf1f9f1575ff6c487bf054e8abf74e7a0995feffffff02942fba010000000017a914548ec293c5cef1436cb067819b080a56fd9a0d3187f71406010000000017a91449ae576e1160d54fa1c7c570659004ee8aaa452c870247304402206ebed18d617952d6a48bace6aeede19b0bda93ee698eb4a2d091faf94fc20193022044a3e6343e9b34be3085921fb0de9b4ee786f7d6689e0f591590b3e8ac94d9070121025d737da77bdc7391b51f3d38a8fb938e18573564851ed5a02ea8f99a3c773b040b490800", "vin": [{"txinwitness": ["304402206ebed18d617952d6a48bace6aeede19b0bda93ee698eb4a2d091faf94fc20193022044a3e6343e9b34be3085921fb0de9b4ee786f7d6689e0f591590b3e8ac94d90701", "025d737da77bdc7391b51f3d38a8fb938e18573564851ed5a02ea8f99a3c773b04"], "sequence": 4294967294, "scriptSig": {"hex": "160014cafccf1f9f1575ff6c487bf054e8abf74e7a0995", "asm": "0014cafccf1f9f1575ff6c487bf054e8abf74e7a0995"}, "vout": 0, "txid": "016ba98f7a9d756d8cc9beb05632e038676e108d1c33f1519f2a2412be8d3f38"}], "txid": "1e29ed72cff607e72f4c53222e2cac21c1b10b36aaf8e880bf2d2eecffc2c5ce", "blocktime": 1537870268, "version": 2, "confirmations": 11516, "time": 1537870268, "locktime": 542987, "vsize": 166, "size": 247}