{"hash": "1e291f1a8b1b5c657764a34f2f2650902ea0ff2f0e56c6b6b3eb55962e6142dc", "blockhash": "0000000000000000001f0ddff1eddb255c1121bcd4da4f1bc9a0da00cae72433", "vout": [{"scriptPubKey": {"reqSigs": 1, "hex": "a914fa9e4a5ecade44c9b5fc53e91e471e0d9f19df7887", "addresses": ["3QYAUie4WoXLZdjfwpXAZYGeZuYLACWY2b"], "asm": "OP_HASH160 fa9e4a5ecade44c9b5fc53e91e471e0d9f19df78 OP_EQUAL", "type": "scripthash"}, "value": 0.01535641, "n": 0}, {"scriptPubKey": {"reqSigs": 1, "hex": "76a9144dcf9ada5730ebb7aa1c3d973b0799631b31ac1188ac", "addresses": ["186RjQtX3W7wo8pPvJpCuEmoDKwwYhsEYU"], "asm": "OP_DUP OP_HASH160 4dcf9ada5730ebb7aa1c3d973b0799631b31ac11 OP_EQUALVERIFY OP_CHECKSIG", "type": "pubkeyhash"}, "value": 0.88464135, "n": 1}], "hex": "010000000157fc9d9e459663a1e297cc3f295428d7766a9a6d8b6ead84eabd76c5da579e29020000006b483045022100bda21fad3d06aa46bd967e48d39de970a0ff0a1621fd9af7c8cad71346b0f2a102203d1627f1f20e42583683b221993cb50224c0892d5cbd26428cacc4da77caa58c0121021a4bdea2c65b1ce0a6c7f324090e716dad1467d9313b513d0a53d0231934926efdffffff02996e17000000000017a914fa9e4a5ecade44c9b5fc53e91e471e0d9f19df788707db4505000000001976a9144dcf9ada5730ebb7aa1c3d973b0799631b31ac1188ac10490800", "vin": [{"sequence": 4294967293, "scriptSig": {"hex": "483045022100bda21fad3d06aa46bd967e48d39de970a0ff0a1621fd9af7c8cad71346b0f2a102203d1627f1f20e42583683b221993cb50224c0892d5cbd26428cacc4da77caa58c0121021a4bdea2c65b1ce0a6c7f324090e716dad1467d9313b513d0a53d0231934926e", "asm": "3045022100bda21fad3d06aa46bd967e48d39de970a0ff0a1621fd9af7c8cad71346b0f2a102203d1627f1f20e42583683b221993cb50224c0892d5cbd26428cacc4da77caa58c[ALL] 021a4bdea2c65b1ce0a6c7f324090e716dad1467d9313b513d0a53d0231934926e"}, "vout": 2, "txid": "299e57dac576bdea84ad6e8b6d9a6a76d72854293fcc97e2a16396459e9dfc57"}], "txid": "1e291f1a8b1b5c657764a34f2f2650902ea0ff2f0e56c6b6b3eb55962e6142dc", "blocktime": 1537872018, "version": 1, "confirmations": 11489, "time": 1537872018, "locktime": 542992, "vsize": 224, "size": 224}