{"hash": "1e2faaf7a3da76fed69f15fc40ce3d0153353267eb9596df4212bb5912c9d30c", "blockhash": "00000000000000000017f5eb5941039fbcee6240d03bc1f2f8e35350df66a1d8", "vout": [{"scriptPubKey": {"reqSigs": 1, "hex": "76a914c19e0f035dd9375ad1743e370e8b6a9cbdd2f5d288ac", "addresses": ["1Jekm8ZswQmDhLFMp9cuYb1Kcq26riFp6m"], "asm": "OP_DUP OP_HASH160 c19e0f035dd9375ad1743e370e8b6a9cbdd2f5d2 OP_EQUALVERIFY OP_CHECKSIG", "type": "pubkeyhash"}, "value": 0.00038367, "n": 0}, {"scriptPubKey": {"reqSigs": 1, "hex": "76a9141efbe537c7c858a58469b77c704ff51185d9e72588ac", "addresses": ["13pq2kfo87mU1ceVT5dpVjcy9AEBS2zB1G"], "asm": "OP_DUP OP_HASH160 1efbe537c7c858a58469b77c704ff51185d9e725 OP_EQUALVERIFY OP_CHECKSIG", "type": "pubkeyhash"}, "value": 0.0001, "n": 1}, {"scriptPubKey": {"type": "nulldata", "hex": "6a146f6d6e69000000000000001f00000045cd78f600", "asm": "OP_RETURN 6f6d6e69000000000000001f00000045cd78f600"}, "value": 0.0, "n": 2}], "hex": "02000000018980d94671cc8a740ba94f90767d4ab05a95293ca7ec0fdbe21ed6970168362e000000008b4830450221009079420d02f7469d1cf1654e51f40f099f336215ae5c0d429028d99934c737d002200dad138689d2670893f3503269b4cf216f008be3babc3224c5ed2fd0c3ea691f01410456db5b8ad8e2e1e534783d3341feca465a8f33f90616ec39fe86079c71c4979e69646e9a348c44194b0e89ed2a797d84a48ded5cda0969bff961eeaf7c7dd408ffffffff03df950000000000001976a914c19e0f035dd9375ad1743e370e8b6a9cbdd2f5d288ac10270000000000001976a9141efbe537c7c858a58469b77c704ff51185d9e72588ac0000000000000000166a146f6d6e69000000000000001f00000045cd78f60000000000", "vin": [{"sequence": 4294967295, "scriptSig": {"hex": "4830450221009079420d02f7469d1cf1654e51f40f099f336215ae5c0d429028d99934c737d002200dad138689d2670893f3503269b4cf216f008be3babc3224c5ed2fd0c3ea691f01410456db5b8ad8e2e1e534783d3341feca465a8f33f90616ec39fe86079c71c4979e69646e9a348c44194b0e89ed2a797d84a48ded5cda0969bff961eeaf7c7dd408", "asm": "30450221009079420d02f7469d1cf1654e51f40f099f336215ae5c0d429028d99934c737d002200dad138689d2670893f3503269b4cf216f008be3babc3224c5ed2fd0c3ea691f[ALL] 0456db5b8ad8e2e1e534783d3341feca465a8f33f90616ec39fe86079c71c4979e69646e9a348c44194b0e89ed2a797d84a48ded5cda0969bff961eeaf7c7dd408"}, "vout": 0, "txid": "2e36680197d61ee2db0feca73c29955ab04a7d76904fa90b748acc7146d98089"}], "txid": "1e2faaf7a3da76fed69f15fc40ce3d0153353267eb9596df4212bb5912c9d30c", "blocktime": 1537874412, "version": 2, "confirmations": 11467, "time": 1537874412, "locktime": 0, "vsize": 289, "size": 289}