{"hash": "e037a3a7f845ce4a2a844054ebcb699d8b4481ce09c5ba5d33ac46de79c36e20", "blockhash": "0000000000000000001f0ddff1eddb255c1121bcd4da4f1bc9a0da00cae72433", "vout": [{"scriptPubKey": {"reqSigs": 1, "hex": "a914f97cb18c371796518c8598ae57a91972b6dfa66f87", "addresses": ["3QSBZAkgqRT6nmmBvYNL8SF5HS8m2EAi8i"], "asm": "OP_HASH160 f97cb18c371796518c8598ae57a91972b6dfa66f OP_EQUAL", "type": "scripthash"}, "value": 0.00174094, "n": 0}], "hex": "010000000001010758c078a3fbe8651db854eb5e012dc87b4e275d912c17fff7a0d0f5595e1d757301000017160014226f1d9a183ffbf02b1ea8ac4ffd80eac6516074ffffffff010ea802000000000017a914f97cb18c371796518c8598ae57a91972b6dfa66f8702483045022100da2639ad7e688d07f4bc982284bc53d95a6b42f6212493ebfc4f7e7624aa4d80022033b6514cca36b02c5ae80d5a7f55edf1a38b487189189417d2f07669abb0d5ac01210355144d7bcca66f28439015d9f85ce7386baf19d4d736bbf3bef435043173ce0a00000000", "vin": [{"txinwitness": ["3045022100da2639ad7e688d07f4bc982284bc53d95a6b42f6212493ebfc4f7e7624aa4d80022033b6514cca36b02c5ae80d5a7f55edf1a38b487189189417d2f07669abb0d5ac01", "0355144d7bcca66f28439015d9f85ce7386baf19d4d736bbf3bef435043173ce0a"], "sequence": 4294967295, "scriptSig": {"hex": "160014226f1d9a183ffbf02b1ea8ac4ffd80eac6516074", "asm": "0014226f1d9a183ffbf02b1ea8ac4ffd80eac6516074"}, "vout": 371, "txid": "751d5e59f5d0a0f7ff172c915d274e7bc82d015eeb54b81d65e8fba378c05807"}], "txid": "1e3052d323516d2477e0c4b009b698808fa65aaaac335d84508ddf5198411ac3", "blocktime": 1537872018, "version": 1, "confirmations": 11489, "time": 1537872018, "locktime": 0, "vsize": 134, "size": 216}