{"hash": "1e313a3f7b23df1116b5505eac74c76d366cee1abd5a519ce2d6620ef4441cfd", "blockhash": "0000000000000000001cda96e906b7601b7a6fb1a3b62bca570a9e5d8f4b3de1", "vout": [{"scriptPubKey": {"reqSigs": 1, "hex": "76a9140586dd90f036c798c5547df638e468db13c5c24a88ac", "addresses": ["1WDwaWxnt9djWaef89epC3Dkm3J8vHBnm"], "asm": "OP_DUP OP_HASH160 0586dd90f036c798c5547df638e468db13c5c24a OP_EQUALVERIFY OP_CHECKSIG", "type": "pubkeyhash"}, "value": 0.0001849, "n": 0}, {"scriptPubKey": {"type": "nulldata", "hex": "6a4c50000077c4000198821ccaf0374b3a05f819d1e5bf9ae76da98a211aaf6c953dd567cf27e7178290483b5de464d458b0b2bf01bb335baa12f606131900bbc367910117e706f8a4c9d02528a348b20ac714", "asm": "OP_RETURN 000077c4000198821ccaf0374b3a05f819d1e5bf9ae76da98a211aaf6c953dd567cf27e7178290483b5de464d458b0b2bf01bb335baa12f606131900bbc367910117e706f8a4c9d02528a348b20ac714"}, "value": 0.0, "n": 1}], "hex": "01000000013dbb14826a21b8d4278edbaa790f087cd2081b788ebe509a286a13ecf1139d6b000000006a47304402204182923bfd6ad9c4bd2e561b0f8743876745441d3a10ef0570dcccd4a124845102202fb9b90bc534e70070a9230e5a31a16a16facd6884b857342823f963bc771e340121030e32a521a104c6ce756b26f661e1cf98a47e1879780c263576236492e3accb35ffffffff023a480000000000001976a9140586dd90f036c798c5547df638e468db13c5c24a88ac0000000000000000536a4c50000077c4000198821ccaf0374b3a05f819d1e5bf9ae76da98a211aaf6c953dd567cf27e7178290483b5de464d458b0b2bf01bb335baa12f606131900bbc367910117e706f8a4c9d02528a348b20ac71400000000", "vin": [{"sequence": 4294967295, "scriptSig": {"hex": "47304402204182923bfd6ad9c4bd2e561b0f8743876745441d3a10ef0570dcccd4a124845102202fb9b90bc534e70070a9230e5a31a16a16facd6884b857342823f963bc771e340121030e32a521a104c6ce756b26f661e1cf98a47e1879780c263576236492e3accb35", "asm": "304402204182923bfd6ad9c4bd2e561b0f8743876745441d3a10ef0570dcccd4a124845102202fb9b90bc534e70070a9230e5a31a16a16facd6884b857342823f963bc771e34[ALL] 030e32a521a104c6ce756b26f661e1cf98a47e1879780c263576236492e3accb35"}, "vout": 0, "txid": "6b9d13f1ec136a289a50be8e781b08d27c080f79aadb8e27d4b8216a8214bb3d"}], "txid": "1e313a3f7b23df1116b5505eac74c76d366cee1abd5a519ce2d6620ef4441cfd", "blocktime": 1537873282, "version": 1, "confirmations": 11484, "time": 1537873282, "locktime": 0, "vsize": 283, "size": 283}