{"hash": "1e33ef8e93f6d413e1167fedae502239190c12c27437102d5101afb5b2ff9845", "blockhash": "0000000000000000000baef3f32e3676a92c3b2e5da21b426e4f302fc371ce76", "vout": [{"scriptPubKey": {"reqSigs": 1, "hex": "76a914fa0692278afe508514b5ffee8fe5e97732ce066988ac", "addresses": ["1Po1oWkD2LmodfkBYiAktwh76vkF93LKnh"], "asm": "OP_DUP OP_HASH160 fa0692278afe508514b5ffee8fe5e97732ce0669 OP_EQUALVERIFY OP_CHECKSIG", "type": "pubkeyhash"}, "value": 2.184e-05, "n": 0}, {"scriptPubKey": {"type": "nulldata", "hex": "6a146f6d6e69000000000000001f000000c4e7a5e900", "asm": "OP_RETURN 6f6d6e69000000000000001f000000c4e7a5e900"}, "value": 0.0, "n": 1}, {"scriptPubKey": {"reqSigs": 1, "hex": "76a914ad81078cf9519ed7e8d727de65bf0310a255668588ac", "addresses": ["1GpQUKAP5bsNEBVL3XANBxbYJcDWQTXV32"], "asm": "OP_DUP OP_HASH160 ad81078cf9519ed7e8d727de65bf0310a2556685 OP_EQUALVERIFY OP_CHECKSIG", "type": "pubkeyhash"}, "value": 5.46e-06, "n": 2}], "hex": "010000000160188ae2e89a6f7ee5925756b57031d2333bb4c3afeaabe85e936278213e6fa7e70000008a473044022033db4c6b30d5df32bfca1219cfebf3aeff5d74d0a56690f20493faa2f02fe7c40220412a6d82b3bb9e04d4db91338c450d193cc5ddc7615996172736e6c1a5794779014104fcf07bb1222f7925f2b7cc15183a40443c578e62ea17100aa3b44ba66905c95d4980aec4cd2f6eb426d1b1ec45d76724f26901099416b9265b76ba67c8b0b73dffffffff0388080000000000001976a914fa0692278afe508514b5ffee8fe5e97732ce066988ac0000000000000000166a146f6d6e69000000000000001f000000c4e7a5e90022020000000000001976a914ad81078cf9519ed7e8d727de65bf0310a255668588ac00000000", "vin": [{"sequence": 4294967295, "scriptSig": {"hex": "473044022033db4c6b30d5df32bfca1219cfebf3aeff5d74d0a56690f20493faa2f02fe7c40220412a6d82b3bb9e04d4db91338c450d193cc5ddc7615996172736e6c1a5794779014104fcf07bb1222f7925f2b7cc15183a40443c578e62ea17100aa3b44ba66905c95d4980aec4cd2f6eb426d1b1ec45d76724f26901099416b9265b76ba67c8b0b73d", "asm": "3044022033db4c6b30d5df32bfca1219cfebf3aeff5d74d0a56690f20493faa2f02fe7c40220412a6d82b3bb9e04d4db91338c450d193cc5ddc7615996172736e6c1a5794779[ALL] 04fcf07bb1222f7925f2b7cc15183a40443c578e62ea17100aa3b44ba66905c95d4980aec4cd2f6eb426d1b1ec45d76724f26901099416b9265b76ba67c8b0b73d"}, "vout": 231, "txid": "a76f3e217862935ee8abeaafc3b43b33d23170b5565792e57e6f9ae8e28a1860"}], "txid": "1e33ef8e93f6d413e1167fedae502239190c12c27437102d5101afb5b2ff9845", "blocktime": 1537876114, "version": 1, "confirmations": 11459, "time": 1537876114, "locktime": 0, "vsize": 288, "size": 288}