{"hash": "1e38d91d05472f7a5e25c70211da31842b24111eba2441ea27a44636d44aa1ef", "blockhash": "0000000000000000000e13cef7c366c0283d82e591d1acd082e914b08063cdf1", "vout": [{"scriptPubKey": {"reqSigs": 1, "hex": "76a914c5e24ba5dd654ae46624575fe4aa6117f2f930eb88ac", "addresses": ["1K3KD5Vu5Ki1d6RrAJBhkHwt1kMnnkxzhw"], "asm": "OP_DUP OP_HASH160 c5e24ba5dd654ae46624575fe4aa6117f2f930eb OP_EQUALVERIFY OP_CHECKSIG", "type": "pubkeyhash"}, "value": 0.00531, "n": 0}, {"scriptPubKey": {"reqSigs": 1, "hex": "76a914c7fdfea0f2db992ba2f392e472164b94020da00688ac", "addresses": ["1KETk2pqtJbTPtQB14ia2CdDkiND9nQoGP"], "asm": "OP_DUP OP_HASH160 c7fdfea0f2db992ba2f392e472164b94020da006 OP_EQUALVERIFY OP_CHECKSIG", "type": "pubkeyhash"}, "value": 0.01367663, "n": 1}], "hex": "0100000001309f9cc977fc89dfa3ee0be7a9218415e406d058c3277f1a91adfba05a9357f4bb0000006a47304402202a86f7aa5b424fa9ebee6ceb8e38b4f6dc68966af67fe91501482565c46ead730220609d5c5721ed36bf4a78c443100f0623f1d3d297bddb03754cb9ffe543ec36d201210206a2b67578fb54380b0c23b5a3d40d4fba2fcf7a400703509375717a02354c21ffffffff02381a0800000000001976a914c5e24ba5dd654ae46624575fe4aa6117f2f930eb88ac6fde1400000000001976a914c7fdfea0f2db992ba2f392e472164b94020da00688ac00000000", "vin": [{"sequence": 4294967295, "scriptSig": {"hex": "47304402202a86f7aa5b424fa9ebee6ceb8e38b4f6dc68966af67fe91501482565c46ead730220609d5c5721ed36bf4a78c443100f0623f1d3d297bddb03754cb9ffe543ec36d201210206a2b67578fb54380b0c23b5a3d40d4fba2fcf7a400703509375717a02354c21", "asm": "304402202a86f7aa5b424fa9ebee6ceb8e38b4f6dc68966af67fe91501482565c46ead730220609d5c5721ed36bf4a78c443100f0623f1d3d297bddb03754cb9ffe543ec36d2[ALL] 0206a2b67578fb54380b0c23b5a3d40d4fba2fcf7a400703509375717a02354c21"}, "vout": 187, "txid": "f457935aa0fbad911a7f27c358d006e4158421a9e70beea3df89fc77c99c9f30"}], "txid": "1e38d91d05472f7a5e25c70211da31842b24111eba2441ea27a44636d44aa1ef", "blocktime": 1537871767, "version": 1, "confirmations": 11493, "time": 1537871767, "locktime": 0, "vsize": 225, "size": 225}