{"hash": "9694e0d6e9119df619ad96d2923947ecba399cdd922ea0539c365fd0ff0c5380", "blockhash": "0000000000000000000baef3f32e3676a92c3b2e5da21b426e4f302fc371ce76", "vout": [{"scriptPubKey": {"reqSigs": 1, "hex": "76a9143be4ddc6a87e97702f374b0f18df7e5a25d726cd88ac", "addresses": ["16Th3EEZU8GXGGafDLJg6sw5qsVt35RUGa"], "asm": "OP_DUP OP_HASH160 3be4ddc6a87e97702f374b0f18df7e5a25d726cd OP_EQUALVERIFY OP_CHECKSIG", "type": "pubkeyhash"}, "value": 1.13, "n": 0}, {"scriptPubKey": {"reqSigs": 1, "hex": "a9146c4503506c029367fd682f1513185bb664fc1a2187", "addresses": ["3BZVaN84JrPu1e3GDgutG1wjm1xZMzbWPx"], "asm": "OP_HASH160 6c4503506c029367fd682f1513185bb664fc1a21 OP_EQUAL", "type": "scripthash"}, "value": 0.00431656, "n": 1}], "hex": "010000000001024645295c3ee18f7e8b369895bf12f1ec0a45ed7acd37400b79a43ccfd3999ca1010000001716001429a088bfd470afd885797af8695b6397556a7ee4ffffff00c166470648155f7ec613d681850f78e825e696c75fdb9ffe334de78728fc2a190100000017160014f1d3b76bdbade5a5db5cec95e2d7a543aafbed7effffff0002403ebc06000000001976a9143be4ddc6a87e97702f374b0f18df7e5a25d726cd88ac289606000000000017a9146c4503506c029367fd682f1513185bb664fc1a21870247304402206a8c9f0e86b53f725f514e514490b52a66cead199f0599e9c37d98c33aec2f900220046faeddfb18b2b8e578d185f1b42e5d251a8e52095f85413e780a34b63dc8e8012102eb6fd68b0cbd4fb9520e539e5f86992c2c6d7f58054f439ef8ab1d6fd2695fa0024730440220285af2f39a9ae17132cfdbb6bd3ef6cd82a4710f63eb47e3eecc1331bd2a26b6022067f361545aa4d3a59ec9cff95dd5c20005f08439a35045dab607837905a66e7c012102276d2f024ea955f152e6ba65ab4e19adbcd504e597bc1d99a21be22e1c08374500000000", "vin": [{"txinwitness": ["304402206a8c9f0e86b53f725f514e514490b52a66cead199f0599e9c37d98c33aec2f900220046faeddfb18b2b8e578d185f1b42e5d251a8e52095f85413e780a34b63dc8e801", "02eb6fd68b0cbd4fb9520e539e5f86992c2c6d7f58054f439ef8ab1d6fd2695fa0"], "sequence": 16777215, "scriptSig": {"hex": "16001429a088bfd470afd885797af8695b6397556a7ee4", "asm": "001429a088bfd470afd885797af8695b6397556a7ee4"}, "vout": 1, "txid": "a19c99d3cf3ca4790b4037cd7aed450aecf112bf9598368b7e8fe13e5c294546"}, {"txinwitness": ["30440220285af2f39a9ae17132cfdbb6bd3ef6cd82a4710f63eb47e3eecc1331bd2a26b6022067f361545aa4d3a59ec9cff95dd5c20005f08439a35045dab607837905a66e7c01", "02276d2f024ea955f152e6ba65ab4e19adbcd504e597bc1d99a21be22e1c083745"], "sequence": 16777215, "scriptSig": {"hex": "160014f1d3b76bdbade5a5db5cec95e2d7a543aafbed7e", "asm": "0014f1d3b76bdbade5a5db5cec95e2d7a543aafbed7e"}, "vout": 1, "txid": "192afc2887e74d33fe9fdb5fc796e625e8780f8581d613c67e5f1548064766c1"}], "txid": "1e43a227f6de7c6d8498d537bcc6743b45e82c27d227c3437e10baa566ce821f", "blocktime": 1537876114, "version": 1, "confirmations": 11460, "time": 1537876114, "locktime": 0, "vsize": 258, "size": 420}