{"hash": "1e4b027ed02b653f50eb503d745983ac27c95f6a4d6891fee55d678dd15ef2dc", "blockhash": "0000000000000000001f76057863aec43deb6fa401d9628bb513d65a8098bfab", "vout": [{"scriptPubKey": {"reqSigs": 1, "hex": "a9144585e7a55ce06c75f09e628eede0998736ef7b5987", "addresses": ["382cxer1zp86UJtpia84UUuMqucudtC93q"], "asm": "OP_HASH160 4585e7a55ce06c75f09e628eede0998736ef7b59 OP_EQUAL", "type": "scripthash"}, "value": 0.000124, "n": 0}], "hex": "0100000004c2c64f820967f1779ae3e40ad1d788642eee1f7a133f2c2101525914d987283e000000006b4830450221008bb993c227ea48c102a5534ceb6ce6ed76159ad2c666d4eac034a16a74dac9d10220219cefabee061555f67911d2b8230ba039b6dc1f51c92ffdb27351a6808c87c7012103172731250d97f4e6e5ebb26aee7e8a682a42b499a0e945035c7c185e81ae2082fffffffff09135d5a7c4b9cd9e902e090d7ae7eaf3a28d2c4ae5a970a4b9909b07b33571000000006b4830450221008625bb0bc96eefc07647d99ad1416e4e5661badfb9e15d2be7fa69a0ee2d3d1a0220785c506dd7546244719e283d003dcc36e4ee61e276cae8271217f9e9901e9557012103fc1cb313181c0696e32bc5acfbdf5dde91d4cafbb82942c269825683f69e11f4ffffffffc0877576aedfe931498e48b1439c685586c03434d8f20bbca45e20c8f487c17c000000006a4730440220792696da6179ab542b06838a20030ff3921e8a2f3996c1107b8d725b914193b202204841b718fd3c0a04b2547d8e622380f633920cb062fe60fd060daf3d0831bc430121021c0ecbbfb126bb590729aa9a5b47ac2b404dc2e68e7168242dc9e080bfad643effffffff992a7e1612e2c32b9259cf320a5cb2768f62fcf099aa1f43b08ebe5b19fc41db000000006b483045022100840235e1e9cb3c7aeedd776ffb1a250cfeab58c338e5afd898de1cf528ede6ec0220568944c920c64646e645bc8d8e9097ad27b45e59decc68dab981acfc1ac86d58012103ef04ffb5c66556cb8719f858bd0411117d967e4029f94185e4a8972c0dec5eebffffffff01703000000000000017a9144585e7a55ce06c75f09e628eede0998736ef7b598700000000", "vin": [{"sequence": 4294967295, "scriptSig": {"hex": "4830450221008bb993c227ea48c102a5534ceb6ce6ed76159ad2c666d4eac034a16a74dac9d10220219cefabee061555f67911d2b8230ba039b6dc1f51c92ffdb27351a6808c87c7012103172731250d97f4e6e5ebb26aee7e8a682a42b499a0e945035c7c185e81ae2082", "asm": "30450221008bb993c227ea48c102a5534ceb6ce6ed76159ad2c666d4eac034a16a74dac9d10220219cefabee061555f67911d2b8230ba039b6dc1f51c92ffdb27351a6808c87c7[ALL] 03172731250d97f4e6e5ebb26aee7e8a682a42b499a0e945035c7c185e81ae2082"}, "vout": 0, "txid": "3e2887d914595201212c3f137a1fee2e6488d7d10ae4e39a77f16709824fc6c2"}, {"sequence": 4294967295, "scriptSig": {"hex": "4830450221008625bb0bc96eefc07647d99ad1416e4e5661badfb9e15d2be7fa69a0ee2d3d1a0220785c506dd7546244719e283d003dcc36e4ee61e276cae8271217f9e9901e9557012103fc1cb313181c0696e32bc5acfbdf5dde91d4cafbb82942c269825683f69e11f4", "asm": "30450221008625bb0bc96eefc07647d99ad1416e4e5661badfb9e15d2be7fa69a0ee2d3d1a0220785c506dd7546244719e283d003dcc36e4ee61e276cae8271217f9e9901e9557[ALL] 03fc1cb313181c0696e32bc5acfbdf5dde91d4cafbb82942c269825683f69e11f4"}, "vout": 0, "txid": "7135b3079b90b9a470a9e54a2c8da2f3eae77a0d092e909ecdb9c4a7d53591f0"}, {"sequence": 4294967295, "scriptSig": {"hex": "4730440220792696da6179ab542b06838a20030ff3921e8a2f3996c1107b8d725b914193b202204841b718fd3c0a04b2547d8e622380f633920cb062fe60fd060daf3d0831bc430121021c0ecbbfb126bb590729aa9a5b47ac2b404dc2e68e7168242dc9e080bfad643e", "asm": "30440220792696da6179ab542b06838a20030ff3921e8a2f3996c1107b8d725b914193b202204841b718fd3c0a04b2547d8e622380f633920cb062fe60fd060daf3d0831bc43[ALL] 021c0ecbbfb126bb590729aa9a5b47ac2b404dc2e68e7168242dc9e080bfad643e"}, "vout": 0, "txid": "7cc187f4c8205ea4bc0bf2d83434c08655689c43b1488e4931e9dfae767587c0"}, {"sequence": 4294967295, "scriptSig": {"hex": "483045022100840235e1e9cb3c7aeedd776ffb1a250cfeab58c338e5afd898de1cf528ede6ec0220568944c920c64646e645bc8d8e9097ad27b45e59decc68dab981acfc1ac86d58012103ef04ffb5c66556cb8719f858bd0411117d967e4029f94185e4a8972c0dec5eeb", "asm": "3045022100840235e1e9cb3c7aeedd776ffb1a250cfeab58c338e5afd898de1cf528ede6ec0220568944c920c64646e645bc8d8e9097ad27b45e59decc68dab981acfc1ac86d58[ALL] 03ef04ffb5c66556cb8719f858bd0411117d967e4029f94185e4a8972c0dec5eeb"}, "vout": 0, "txid": "db41fc195bbe8eb0431faa99f0fc628f76b25c0a32cf59922bc3e212167e2a99"}], "txid": "1e4b027ed02b653f50eb503d745983ac27c95f6a4d6891fee55d678dd15ef2dc", "blocktime": 1537873891, "version": 1, "confirmations": 11478, "time": 1537873891, "locktime": 0, "vsize": 633, "size": 633}