{"hash": "1e4ff5fc30223a51818f37009eb3fb25bff2fc34dd74bffd12059102edeb7a25", "blockhash": "0000000000000000000baef3f32e3676a92c3b2e5da21b426e4f302fc371ce76", "vout": [{"scriptPubKey": {"reqSigs": 1, "hex": "a9141cd1729648df7b1b0638f0f8a50abd372cdcaf4887", "addresses": ["34KPkbAFLxoSUQZpjRLWb6gbnmPNobhcLc"], "asm": "OP_HASH160 1cd1729648df7b1b0638f0f8a50abd372cdcaf48 OP_EQUAL", "type": "scripthash"}, "value": 0.002, "n": 0}, {"scriptPubKey": {"reqSigs": 1, "hex": "76a9146c8a05f28faf652ae8a4fd90a6838e87b307d26188ac", "addresses": ["1AtuKjvMpv1kLJMEQMxc3tcC5xXPe5JS75"], "asm": "OP_DUP OP_HASH160 6c8a05f28faf652ae8a4fd90a6838e87b307d261 OP_EQUALVERIFY OP_CHECKSIG", "type": "pubkeyhash"}, "value": 0.00594156, "n": 1}], "hex": "01000000014d818bf69bb2e865f519be8013014cc80591c0ddb3cbc76d5b6f970fa8c8a2970d0000006b483045022100e43ca92b3a9fe5801eb752a7673b9dce9e7421c0daf6293b8f3b6d1bca38d9de02205fe550be15fbf0719a951a165a3e0f6e392c7e95ba75da8d8f5ee93d5fe2af90012103152f5e3f7fbe63eccbdd2b0429721f23657272c0339ed93260570e4239729fd4ffffffff02400d03000000000017a9141cd1729648df7b1b0638f0f8a50abd372cdcaf4887ec100900000000001976a9146c8a05f28faf652ae8a4fd90a6838e87b307d26188ac00000000", "vin": [{"sequence": 4294967295, "scriptSig": {"hex": "483045022100e43ca92b3a9fe5801eb752a7673b9dce9e7421c0daf6293b8f3b6d1bca38d9de02205fe550be15fbf0719a951a165a3e0f6e392c7e95ba75da8d8f5ee93d5fe2af90012103152f5e3f7fbe63eccbdd2b0429721f23657272c0339ed93260570e4239729fd4", "asm": "3045022100e43ca92b3a9fe5801eb752a7673b9dce9e7421c0daf6293b8f3b6d1bca38d9de02205fe550be15fbf0719a951a165a3e0f6e392c7e95ba75da8d8f5ee93d5fe2af90[ALL] 03152f5e3f7fbe63eccbdd2b0429721f23657272c0339ed93260570e4239729fd4"}, "vout": 13, "txid": "97a2c8a80f976f5b6dc7cbb3ddc09105c84c011380be19f565e8b29bf68b814d"}], "txid": "1e4ff5fc30223a51818f37009eb3fb25bff2fc34dd74bffd12059102edeb7a25", "blocktime": 1537876114, "version": 1, "confirmations": 11460, "time": 1537876114, "locktime": 0, "vsize": 224, "size": 224}