{"hash": "58fa52fe83a090dc2db2afd494f0d49f5d8c0de097216dabd7fd2e4ab2bfc92f", "blockhash": "0000000000000000000e13cef7c366c0283d82e591d1acd082e914b08063cdf1", "vout": [{"scriptPubKey": {"reqSigs": 1, "hex": "a9142a445f20e29b96af5e907a9b521729415e4b8e5187", "addresses": ["35YWD9DC9RUbfiqS7bbaiKpAveZkAT39BE"], "asm": "OP_HASH160 2a445f20e29b96af5e907a9b521729415e4b8e51 OP_EQUAL", "type": "scripthash"}, "value": 0.004992, "n": 0}, {"scriptPubKey": {"reqSigs": 1, "hex": "00142db2dbc1c775fb61a2e595d0e9602eba5062ec95", "addresses": ["bc1q9kedhsw8whakrgh9jhgwjcpwhfgx9my4eyqgjz"], "asm": "0 2db2dbc1c775fb61a2e595d0e9602eba5062ec95", "type": "witness_v0_keyhash"}, "value": 0.00200219, "n": 1}], "hex": "010000000001018542ace2cd8e65522e72ae66d79b48e4df2f11d030351683804f0fce41afe25a0000000017160014e9c5872f8e19033aad0e8f93eea917b0a907cbe6ffffffff02009e07000000000017a9142a445f20e29b96af5e907a9b521729415e4b8e51871b0e0300000000001600142db2dbc1c775fb61a2e595d0e9602eba5062ec950247304402202e0b833c44763677798d48a96dd660d6cb7d9f743865821e8225f6e52f4b7255022074e30ec8375440928098ed0fdc345526d87db0083ccfc6ea825f68b4b4cbee77012102f9ce84129e447f6d2b318711a40be1030d00c8ca1acb180701096fd574c7508100000000", "vin": [{"txinwitness": ["304402202e0b833c44763677798d48a96dd660d6cb7d9f743865821e8225f6e52f4b7255022074e30ec8375440928098ed0fdc345526d87db0083ccfc6ea825f68b4b4cbee7701", "02f9ce84129e447f6d2b318711a40be1030d00c8ca1acb180701096fd574c75081"], "sequence": 4294967295, "scriptSig": {"hex": "160014e9c5872f8e19033aad0e8f93eea917b0a907cbe6", "asm": "0014e9c5872f8e19033aad0e8f93eea917b0a907cbe6"}, "vout": 0, "txid": "5ae2af41ce0f4f8083163530d0112fdfe4489bd766ae722e52658ecde2ac4285"}], "txid": "1e533658efa23f9a1b1998d54343bc09c40bf13cb47af3be4214eab3236ae5c3", "blocktime": 1537871767, "version": 1, "confirmations": 11495, "time": 1537871767, "locktime": 0, "vsize": 165, "size": 246}