{"hash": "1e551cad5582dffadac6530c2ca41a58c5a2aa0e09a117512c4c78d66b2d8d3b", "blockhash": "0000000000000000000e13cef7c366c0283d82e591d1acd082e914b08063cdf1", "vout": [{"scriptPubKey": {"reqSigs": 1, "hex": "76a914cea89ffef4f83a382a878a3cbdd4fea3eaf95c2188ac", "addresses": ["1KqiCncKPPBhLoqJBwHbaNfXD8aRDkazq3"], "asm": "OP_DUP OP_HASH160 cea89ffef4f83a382a878a3cbdd4fea3eaf95c21 OP_EQUALVERIFY OP_CHECKSIG", "type": "pubkeyhash"}, "value": 0.0046754, "n": 0}, {"scriptPubKey": {"reqSigs": 1, "hex": "76a914b1f26507434896db9d2b97edc279eadff65165ae88ac", "addresses": ["1HDtyq5feSRvDrGKrQ1Dek77Cjt2Kra5VR"], "asm": "OP_DUP OP_HASH160 b1f26507434896db9d2b97edc279eadff65165ae OP_EQUALVERIFY OP_CHECKSIG", "type": "pubkeyhash"}, "value": 0.05024111, "n": 1}], "hex": "01000000018d56f8dbf549a4e81f853e7fc0722fa34260c3b0a027aa8445e3d19d329982c7000000006b483045022100b58d9b06fea27232ae82e6b62443b26a2da9d59ca48d942e9d0e8cf805c2081502205da05dcf855cd75ad3bc10983470336229ee8b31e614d75e44e21bcb5010938101210258b0fae49fc721310b48a478d394036a88b97af1c1d82397320129e5f8d6a0d5ffffffff0254220700000000001976a914cea89ffef4f83a382a878a3cbdd4fea3eaf95c2188ac6fa94c00000000001976a914b1f26507434896db9d2b97edc279eadff65165ae88ac00000000", "vin": [{"sequence": 4294967295, "scriptSig": {"hex": "483045022100b58d9b06fea27232ae82e6b62443b26a2da9d59ca48d942e9d0e8cf805c2081502205da05dcf855cd75ad3bc10983470336229ee8b31e614d75e44e21bcb5010938101210258b0fae49fc721310b48a478d394036a88b97af1c1d82397320129e5f8d6a0d5", "asm": "3045022100b58d9b06fea27232ae82e6b62443b26a2da9d59ca48d942e9d0e8cf805c2081502205da05dcf855cd75ad3bc10983470336229ee8b31e614d75e44e21bcb50109381[ALL] 0258b0fae49fc721310b48a478d394036a88b97af1c1d82397320129e5f8d6a0d5"}, "vout": 0, "txid": "c78299329dd1e34584aa27a0b0c36042a32f72c07f3e851fe8a449f5dbf8568d"}], "txid": "1e551cad5582dffadac6530c2ca41a58c5a2aa0e09a117512c4c78d66b2d8d3b", "blocktime": 1537871767, "version": 1, "confirmations": 11495, "time": 1537871767, "locktime": 0, "vsize": 226, "size": 226}