{"hash": "1e5952867425b862c8ffe785a23e42a4e540a88ccc947d4fbd8af45a56ee20e0", "blockhash": "0000000000000000000baef3f32e3676a92c3b2e5da21b426e4f302fc371ce76", "vout": [{"scriptPubKey": {"type": "nulldata", "hex": "6a4c50000078170001531c8e40a2822957b3f09510019d6ddc0f1b8ff117702940d64fa54d8eb2031b266e538dfbecd6ca0bb3b5322d665baa1c1b0615bbafbaed871fbc9a9526289ac0f6612cd74e33776ee4", "asm": "OP_RETURN 000078170001531c8e40a2822957b3f09510019d6ddc0f1b8ff117702940d64fa54d8eb2031b266e538dfbecd6ca0bb3b5322d665baa1c1b0615bbafbaed871fbc9a9526289ac0f6612cd74e33776ee4"}, "value": 0.0, "n": 0}, {"scriptPubKey": {"reqSigs": 1, "hex": "76a9144af524bc0eeb10cc57b30385ed454826f0d8d4ca88ac", "addresses": ["17qLg4iVVbzH9HwkxhoEXHwcEgoZMnvdKR"], "asm": "OP_DUP OP_HASH160 4af524bc0eeb10cc57b30385ed454826f0d8d4ca OP_EQUALVERIFY OP_CHECKSIG", "type": "pubkeyhash"}, "value": 0.00079, "n": 1}], "hex": "0100000001b8872cc648db244f12595eb8fd6e6308c33a74388f06eee78a61012074dff373000000006a47304402207c17870ac965d87cdfe52dbf82c16ae247829c6d7703e00b40e1faac7a7c517d022006a8de3dc49227e8bceb6b847162d414ef5ca8ee8e69b6b2381a60161b66a618012102443048ab04432f41060649021602a70437a258c4c9251b0fbcbbac304ea5c7c9ffffffff020000000000000000536a4c50000078170001531c8e40a2822957b3f09510019d6ddc0f1b8ff117702940d64fa54d8eb2031b266e538dfbecd6ca0bb3b5322d665baa1c1b0615bbafbaed871fbc9a9526289ac0f6612cd74e33776ee498340100000000001976a9144af524bc0eeb10cc57b30385ed454826f0d8d4ca88ac00000000", "vin": [{"sequence": 4294967295, "scriptSig": {"hex": "47304402207c17870ac965d87cdfe52dbf82c16ae247829c6d7703e00b40e1faac7a7c517d022006a8de3dc49227e8bceb6b847162d414ef5ca8ee8e69b6b2381a60161b66a618012102443048ab04432f41060649021602a70437a258c4c9251b0fbcbbac304ea5c7c9", "asm": "304402207c17870ac965d87cdfe52dbf82c16ae247829c6d7703e00b40e1faac7a7c517d022006a8de3dc49227e8bceb6b847162d414ef5ca8ee8e69b6b2381a60161b66a618[ALL] 02443048ab04432f41060649021602a70437a258c4c9251b0fbcbbac304ea5c7c9"}, "vout": 0, "txid": "73f3df742001618ae7ee068f38743ac308636efdb85e59124f24db48c62c87b8"}], "txid": "1e5952867425b862c8ffe785a23e42a4e540a88ccc947d4fbd8af45a56ee20e0", "blocktime": 1537876114, "version": 1, "confirmations": 11461, "time": 1537876114, "locktime": 0, "vsize": 283, "size": 283}