{"hash": "1e5aa07a0eddb0d94188af3063bbc887fb4937aedbabcbe82b55c9876175d4a9", "blockhash": "0000000000000000000dcc0f55137456b1a82d3642486a52398922ac4d620174", "vout": [{"scriptPubKey": {"reqSigs": 1, "hex": "a914412930b8064c807ae4be72c599125c008a57902887", "addresses": ["37dZBxxD3AVtGvr1fWYpMGSeHSwoe5LUU8"], "asm": "OP_HASH160 412930b8064c807ae4be72c599125c008a579028 OP_EQUAL", "type": "scripthash"}, "value": 0.013279, "n": 0}, {"scriptPubKey": {"reqSigs": 1, "hex": "76a914c856665159db6ae3cec7c91dd38494bbff3ec4f788ac", "addresses": ["1KGHeXDgQy5W4bspGdDNpQCva8Bx6nYg2A"], "asm": "OP_DUP OP_HASH160 c856665159db6ae3cec7c91dd38494bbff3ec4f7 OP_EQUALVERIFY OP_CHECKSIG", "type": "pubkeyhash"}, "value": 0.01357058, "n": 1}], "hex": "0100000001df19a9e007dcda80fb2e4f626f3e65599f4f9981eee85d450b0f6f9a5d4ab3e5010000006a473044022035e64e75616caf200223cd74bc24bb0797e4fcf2e9dd4a997dc2b65f8b452af902202bcfdf6d3aa43ae7884401a98ddfbc071743aa0fb0dd4219b85ff703be3f3c9f012103487a813558071ce6ffcef6b4a1de0b099373b6549e8041df8f47c5bdc7a5f60dffffffff021c4314000000000017a914412930b8064c807ae4be72c599125c008a5790288702b51400000000001976a914c856665159db6ae3cec7c91dd38494bbff3ec4f788ac00000000", "vin": [{"sequence": 4294967295, "scriptSig": {"hex": "473044022035e64e75616caf200223cd74bc24bb0797e4fcf2e9dd4a997dc2b65f8b452af902202bcfdf6d3aa43ae7884401a98ddfbc071743aa0fb0dd4219b85ff703be3f3c9f012103487a813558071ce6ffcef6b4a1de0b099373b6549e8041df8f47c5bdc7a5f60d", "asm": "3044022035e64e75616caf200223cd74bc24bb0797e4fcf2e9dd4a997dc2b65f8b452af902202bcfdf6d3aa43ae7884401a98ddfbc071743aa0fb0dd4219b85ff703be3f3c9f[ALL] 03487a813558071ce6ffcef6b4a1de0b099373b6549e8041df8f47c5bdc7a5f60d"}, "vout": 1, "txid": "e5b34a5d9a6f0f0b455de8ee81994f9f59653e6f624f2efb80dadc07e0a919df"}], "txid": "1e5aa07a0eddb0d94188af3063bbc887fb4937aedbabcbe82b55c9876175d4a9", "blocktime": 1537870268, "version": 1, "confirmations": 11516, "time": 1537870268, "locktime": 0, "vsize": 223, "size": 223}