{"hash": "1e5bc4fbb172f1763e3e8904145780293b98dd9cec191159c823dd3b880d32dd", "blockhash": "0000000000000000000e13cef7c366c0283d82e591d1acd082e914b08063cdf1", "vout": [{"scriptPubKey": {"reqSigs": 1, "hex": "76a9146909724ce30afd5780c511e76c645166691a497c88ac", "addresses": ["1AaPGVjxJZkwea4aKGcNz6djwDgtiiVNPH"], "asm": "OP_DUP OP_HASH160 6909724ce30afd5780c511e76c645166691a497c OP_EQUALVERIFY OP_CHECKSIG", "type": "pubkeyhash"}, "value": 0.00116023, "n": 0}, {"scriptPubKey": {"reqSigs": 1, "hex": "a9144aa5d2506dc77d01906ac13f88ad352e4886501c87", "addresses": ["38ViaDpHxaTevVU9Xx3Y1A44UB6Ns8bRnT"], "asm": "OP_HASH160 4aa5d2506dc77d01906ac13f88ad352e4886501c OP_EQUAL", "type": "scripthash"}, "value": 0.0203112, "n": 1}], "hex": "010000000195be4344ed38d74879d020907b7561ab72134d8f0eefa2cdd76f9f9dfd92f1e5000000006a473044022048c8be2bbaca1c1b973371181ff3ffc58a4aaf64dafac0f8a80d57754a87a4b802204d1e94822857f3e001368d48e026ad36314f235e6ed37c51d1d5dde5a4cffe1c01210241c8860f57032f920b5c8b2b89c42f53e082458f5afb6725d773cad54c624598ffffffff0237c50100000000001976a9146909724ce30afd5780c511e76c645166691a497c88ac10fe1e000000000017a9144aa5d2506dc77d01906ac13f88ad352e4886501c8700000000", "vin": [{"sequence": 4294967295, "scriptSig": {"hex": "473044022048c8be2bbaca1c1b973371181ff3ffc58a4aaf64dafac0f8a80d57754a87a4b802204d1e94822857f3e001368d48e026ad36314f235e6ed37c51d1d5dde5a4cffe1c01210241c8860f57032f920b5c8b2b89c42f53e082458f5afb6725d773cad54c624598", "asm": "3044022048c8be2bbaca1c1b973371181ff3ffc58a4aaf64dafac0f8a80d57754a87a4b802204d1e94822857f3e001368d48e026ad36314f235e6ed37c51d1d5dde5a4cffe1c[ALL] 0241c8860f57032f920b5c8b2b89c42f53e082458f5afb6725d773cad54c624598"}, "vout": 0, "txid": "e5f192fd9d9f6fd7cda2ef0e8f4d1372ab61757b9020d07948d738ed4443be95"}], "txid": "1e5bc4fbb172f1763e3e8904145780293b98dd9cec191159c823dd3b880d32dd", "blocktime": 1537871767, "version": 1, "confirmations": 11495, "time": 1537871767, "locktime": 0, "vsize": 223, "size": 223}