{"hash": "1e5e174d1d9a5a73d4b12a31cc59c491d291e6d930172bf4eb8bea26671a5d87", "blockhash": "00000000000000000004ffacab907a6b429b9a5745fa0b75af4234bf69dd7176", "vout": [{"scriptPubKey": {"reqSigs": 1, "hex": "76a914016e4210ec1deea213191a9887591bd8f4dcf35988ac", "addresses": ["18Zm4JNTh3hRw8TDm4Kcmf2KbvMDd6CDE"], "asm": "OP_DUP OP_HASH160 016e4210ec1deea213191a9887591bd8f4dcf359 OP_EQUALVERIFY OP_CHECKSIG", "type": "pubkeyhash"}, "value": 97.99624598, "n": 0}, {"scriptPubKey": {"reqSigs": 1, "hex": "76a914a4811f6fd4cfb5fa943ff64ba54abd136717c93088ac", "addresses": ["1FzpW53E2gox1QfCqiW9d3TVaxfPkrrxck"], "asm": "OP_DUP OP_HASH160 a4811f6fd4cfb5fa943ff64ba54abd136717c930 OP_EQUALVERIFY OP_CHECKSIG", "type": "pubkeyhash"}, "value": 2.269, "n": 1}], "hex": "020000000138ad11bfb22a20e5b08c65137c2deea3d5ee295da692869e61929beb673efb3e010000006b48304502210094c675db3e33606afefbf89f23cd4226e23d696ab82476b8c1e000e0400a5ab20220261ffa7e253953cc07905f891395ab9f4733aa2c5a5e5ae97767bbc23fd5724f0121020ca7d81a00d621a3647067a87847cc842ae3f55733761eb1af2b9486a3578a55feffffff0296671a48020000001976a914016e4210ec1deea213191a9887591bd8f4dcf35988ac2038860d000000001976a914a4811f6fd4cfb5fa943ff64ba54abd136717c93088ac16490800", "vin": [{"sequence": 4294967294, "scriptSig": {"hex": "48304502210094c675db3e33606afefbf89f23cd4226e23d696ab82476b8c1e000e0400a5ab20220261ffa7e253953cc07905f891395ab9f4733aa2c5a5e5ae97767bbc23fd5724f0121020ca7d81a00d621a3647067a87847cc842ae3f55733761eb1af2b9486a3578a55", "asm": "304502210094c675db3e33606afefbf89f23cd4226e23d696ab82476b8c1e000e0400a5ab20220261ffa7e253953cc07905f891395ab9f4733aa2c5a5e5ae97767bbc23fd5724f[ALL] 020ca7d81a00d621a3647067a87847cc842ae3f55733761eb1af2b9486a3578a55"}, "vout": 1, "txid": "3efb3e67eb9b92619e8692a65d29eed5a3ee2d7c13658cb0e5202ab2bf11ad38"}], "txid": "1e5e174d1d9a5a73d4b12a31cc59c491d291e6d930172bf4eb8bea26671a5d87", "blocktime": 1537875543, "version": 2, "confirmations": 11464, "time": 1537875543, "locktime": 542998, "vsize": 226, "size": 226}