{"hash": "1e5ead8557ae0abdf5fc13238a26d9aa52639717ebea558c9e0e5e8576af149d", "blockhash": "0000000000000000001f76057863aec43deb6fa401d9628bb513d65a8098bfab", "vout": [{"scriptPubKey": {"reqSigs": 1, "hex": "76a914b1caec750d19abfbc8c46e2ea15cd4adff0adb8588ac", "addresses": ["1HD5hLZ7nQojKuxmGXott5WUzdUWBhAH4A"], "asm": "OP_DUP OP_HASH160 b1caec750d19abfbc8c46e2ea15cd4adff0adb85 OP_EQUALVERIFY OP_CHECKSIG", "type": "pubkeyhash"}, "value": 1.49997008, "n": 0}, {"scriptPubKey": {"reqSigs": 1, "hex": "a9140e58a4e4222adf30c43034f28e8c59025aa3644087", "addresses": ["32zsaL5r7YERsqyC7EJbgrbL1ehFQdSt8K"], "asm": "OP_HASH160 0e58a4e4222adf30c43034f28e8c59025aa36440 OP_EQUAL", "type": "scripthash"}, "value": 8.0, "n": 1}], "hex": "010000000294dbb5211b990c4cd0c4702c8b263da79f784a0d4174d73d1a69f8a06761037d010000006b483045022100850011065d8f2788b481417d3fdc84eb8bf649fc8b2c64fbb885600ec5b8441002205c54223fbeea2ff6976e3f24cb89659ac0438548c930797ec1c7fc042335a1940121023d7ae496b3017a6e09044f2bae7bba5803a3a0a617a1f4172782d185e3a12860ffffffff9ac0e12fb227b5326f17517feca99783c2e4039753328fb524fd89d299a148b9010000006a4730440220677112b31d2d9f20b5850c27a963401898fbf7d9f5a3d3ba621f9fe607df49a40220242811ad3f0c856648316c3446f0632fb03cbbc28bc6643474ef6411b5a0be46012102879155fbc00ddfb8b176c88f57ae181d734058e40e6b1db0fe745b068bc28f9affffffff02d0c5f008000000001976a914b1caec750d19abfbc8c46e2ea15cd4adff0adb8588ac0008af2f0000000017a9140e58a4e4222adf30c43034f28e8c59025aa364408700000000", "vin": [{"sequence": 4294967295, "scriptSig": {"hex": "483045022100850011065d8f2788b481417d3fdc84eb8bf649fc8b2c64fbb885600ec5b8441002205c54223fbeea2ff6976e3f24cb89659ac0438548c930797ec1c7fc042335a1940121023d7ae496b3017a6e09044f2bae7bba5803a3a0a617a1f4172782d185e3a12860", "asm": "3045022100850011065d8f2788b481417d3fdc84eb8bf649fc8b2c64fbb885600ec5b8441002205c54223fbeea2ff6976e3f24cb89659ac0438548c930797ec1c7fc042335a194[ALL] 023d7ae496b3017a6e09044f2bae7bba5803a3a0a617a1f4172782d185e3a12860"}, "vout": 1, "txid": "7d036167a0f8691a3dd774410d4a789fa73d268b2c70c4d04c0c991b21b5db94"}, {"sequence": 4294967295, "scriptSig": {"hex": "4730440220677112b31d2d9f20b5850c27a963401898fbf7d9f5a3d3ba621f9fe607df49a40220242811ad3f0c856648316c3446f0632fb03cbbc28bc6643474ef6411b5a0be46012102879155fbc00ddfb8b176c88f57ae181d734058e40e6b1db0fe745b068bc28f9a", "asm": "30440220677112b31d2d9f20b5850c27a963401898fbf7d9f5a3d3ba621f9fe607df49a40220242811ad3f0c856648316c3446f0632fb03cbbc28bc6643474ef6411b5a0be46[ALL] 02879155fbc00ddfb8b176c88f57ae181d734058e40e6b1db0fe745b068bc28f9a"}, "vout": 1, "txid": "b948a199d289fd24b58f32539703e4c28397a9ec7f51176f32b527b22fe1c09a"}], "txid": "1e5ead8557ae0abdf5fc13238a26d9aa52639717ebea558c9e0e5e8576af149d", "blocktime": 1537873891, "version": 1, "confirmations": 11475, "time": 1537873891, "locktime": 0, "vsize": 371, "size": 371}