{"hash": "e2c14f709d920e27a5cd76244604c09a99fe982cf5bdaac28400b07d099bbd84", "blockhash": "0000000000000000000e13cef7c366c0283d82e591d1acd082e914b08063cdf1", "vout": [{"scriptPubKey": {"reqSigs": 1, "hex": "76a914744a01da8bc1f2b867d17ad8d6270e01443d6ea688ac", "addresses": ["1Bbt3NCp864BT2zxX3FUdHvKWTXEguWeS7"], "asm": "OP_DUP OP_HASH160 744a01da8bc1f2b867d17ad8d6270e01443d6ea6 OP_EQUALVERIFY OP_CHECKSIG", "type": "pubkeyhash"}, "value": 0.00375, "n": 0}, {"scriptPubKey": {"reqSigs": 1, "hex": "a914fcf482a02c5c4e6b6251ae503e541a5eb594593887", "addresses": ["3QkX7kmgnkpDpGKCg8pjG6Qh2YDdMhhscN"], "asm": "OP_HASH160 fcf482a02c5c4e6b6251ae503e541a5eb5945938 OP_EQUAL", "type": "scripthash"}, "value": 0.00085102, "n": 1}, {"scriptPubKey": {"reqSigs": 1, "hex": "a9141300bbb325a4757a0eea90c05e43d098c89dabc387", "addresses": ["33RVe8dPExV6yusVQHw7nZ8mKxzewez2ho"], "asm": "OP_HASH160 1300bbb325a4757a0eea90c05e43d098c89dabc3 OP_EQUAL", "type": "scripthash"}, "value": 0.00850917, "n": 2}, {"scriptPubKey": {"reqSigs": 1, "hex": "76a914b823e594a7c8ca937cb75eb1356a48817ddbb16788ac", "addresses": ["1HneLT7KjtHpMXFTRjvxYQQrUR1cdkd6MU"], "asm": "OP_DUP OP_HASH160 b823e594a7c8ca937cb75eb1356a48817ddbb167 OP_EQUALVERIFY OP_CHECKSIG", "type": "pubkeyhash"}, "value": 0.00067774, "n": 3}, {"scriptPubKey": {"reqSigs": 1, "hex": "76a91402a344e4aa93126f954066047aee9e752a3058e188ac", "addresses": ["1EwwXCGGAznJuzCsYcd98YmsaXtezvQqv"], "asm": "OP_DUP OP_HASH160 02a344e4aa93126f954066047aee9e752a3058e1 OP_EQUALVERIFY OP_CHECKSIG", "type": "pubkeyhash"}, "value": 0.00421763, "n": 4}, {"scriptPubKey": {"reqSigs": 1, "hex": "a914051e7c03ea282a7f90bd63a7c944c1a1d492d31187", "addresses": ["32A5pbfpesPwJA3A7ckk71APZVGjrCTjJE"], "asm": "OP_HASH160 051e7c03ea282a7f90bd63a7c944c1a1d492d311 OP_EQUAL", "type": "scripthash"}, "value": 0.00029221, "n": 5}, {"scriptPubKey": {"reqSigs": 1, "hex": "a914521e103fbd5cb392e58a1305c010bccbe1b7d7ae87", "addresses": ["39BDM7wmC1pJNmwEQmd9kxG2LtcwyQg6zC"], "asm": "OP_HASH160 521e103fbd5cb392e58a1305c010bccbe1b7d7ae OP_EQUAL", "type": "scripthash"}, "value": 0.20459049, "n": 6}, {"scriptPubKey": {"reqSigs": 1, "hex": "a914bdea73258c3037079ee05f2e16636aab63e5579587", "addresses": ["3K1CVf3m5B1R5PPaefFKp1YxSm2j2WBJr8"], "asm": "OP_HASH160 bdea73258c3037079ee05f2e16636aab63e55795 OP_EQUAL", "type": "scripthash"}, "value": 0.0005, "n": 7}, {"scriptPubKey": {"reqSigs": 1, "hex": "a9143909ec962f0c6842a199a5afb78937aadea81ef287", "addresses": ["36tcL2BpJuA6EhBc7kpwBkW1eZhtZ87SHf"], "asm": "OP_HASH160 3909ec962f0c6842a199a5afb78937aadea81ef2 OP_EQUAL", "type": "scripthash"}, "value": 0.0028, "n": 8}, {"scriptPubKey": {"reqSigs": 1, "hex": "a91469f374375b0cbab57ce481c4523f4a5aa637635b87", "addresses": ["3BMEXAUz9PyKoHtUABPVDrRQKGRsLTj5ur"], "asm": "OP_HASH160 69f374375b0cbab57ce481c4523f4a5aa637635b OP_EQUAL", "type": "scripthash"}, "value": 0.02, "n": 9}], "hex": "01000000000101e23ecf4fd421e752e1484426f900d0009f5462ef63e0eecc9bb407236cc38e0001000000232200204d33f823e7f5f180360997eeab5f08cdead67f884379ed8fd2ebc642d5c517b9ffffffff0ad8b80500000000001976a914744a01da8bc1f2b867d17ad8d6270e01443d6ea688ac6e4c01000000000017a914fcf482a02c5c4e6b6251ae503e541a5eb594593887e5fb0c000000000017a9141300bbb325a4757a0eea90c05e43d098c89dabc387be080100000000001976a914b823e594a7c8ca937cb75eb1356a48817ddbb16788ac836f0600000000001976a91402a344e4aa93126f954066047aee9e752a3058e188ac257200000000000017a914051e7c03ea282a7f90bd63a7c944c1a1d492d31187292e38010000000017a914521e103fbd5cb392e58a1305c010bccbe1b7d7ae8750c300000000000017a914bdea73258c3037079ee05f2e16636aab63e5579587c04504000000000017a9143909ec962f0c6842a199a5afb78937aadea81ef28780841e000000000017a91469f374375b0cbab57ce481c4523f4a5aa637635b870400483045022100c226001cdec4461d790041f14271165ec3b1d9e520317b10e03ac78be8fde957022079c0a8174384a46f7f3c417c25740cd26cbccc796eeffcd263ca201013f910610147304402202bcb0c06989910cd2f3e076b9b7a3820510fcd3fb2c9f94d56b33e930c19b7690220479dd1611ccb74dc5facb2748410fb19bac0d7c6aab0fac6eb59dd410e83edb70169522103df01d8a82bcb448c940cb48421fea57e28d0ea5b90787e64465c8ad1a5f024fd21032a7b40a8a5d22912f6d07c6dd6c6c0b4528d63fc9d9f971457b19ecd6513345221031d05d06b019d3d308ca811fa8ed9138d36dec1c0b8fd59ffec0a403278b5256a53ae00000000", "vin": [{"txinwitness": ["", "3045022100c226001cdec4461d790041f14271165ec3b1d9e520317b10e03ac78be8fde957022079c0a8174384a46f7f3c417c25740cd26cbccc796eeffcd263ca201013f9106101", "304402202bcb0c06989910cd2f3e076b9b7a3820510fcd3fb2c9f94d56b33e930c19b7690220479dd1611ccb74dc5facb2748410fb19bac0d7c6aab0fac6eb59dd410e83edb701", "522103df01d8a82bcb448c940cb48421fea57e28d0ea5b90787e64465c8ad1a5f024fd21032a7b40a8a5d22912f6d07c6dd6c6c0b4528d63fc9d9f971457b19ecd6513345221031d05d06b019d3d308ca811fa8ed9138d36dec1c0b8fd59ffec0a403278b5256a53ae"], "sequence": 4294967295, "scriptSig": {"hex": "2200204d33f823e7f5f180360997eeab5f08cdead67f884379ed8fd2ebc642d5c517b9", "asm": "00204d33f823e7f5f180360997eeab5f08cdead67f884379ed8fd2ebc642d5c517b9"}, "vout": 1, "txid": "008ec36c2307b49bcceee063ef62549f00d000f9264448e152e721d44fcf3ee2"}], "txid": "1e654c5df37e2bf42babfb051d19887f6ac74bad0a9b929c254599067f82f6ba", "blocktime": 1537871767, "version": 1, "confirmations": 11495, "time": 1537871767, "locktime": 0, "vsize": 476, "size": 667}