{"hash": "1e699446768244ffa30683d83eabec658c3a886bba312d26b22a83e4ffa5a676", "blockhash": "00000000000000000017f5eb5941039fbcee6240d03bc1f2f8e35350df66a1d8", "vout": [{"scriptPubKey": {"reqSigs": 1, "hex": "76a914d243e6abb9a60fbff430b421d2df4b7d59ec186088ac", "addresses": ["1LAnF8h3qMGx3TSwNUHVneBZUEpwE4gu3D"], "asm": "OP_DUP OP_HASH160 d243e6abb9a60fbff430b421d2df4b7d59ec1860 OP_EQUALVERIFY OP_CHECKSIG", "type": "pubkeyhash"}, "value": 0.00077314, "n": 0}, {"scriptPubKey": {"reqSigs": 1, "hex": "76a914703b6ebfc0aecf318becb9a10051f053e8ebea1888ac", "addresses": ["1BERswFd5SzkPB1suhyYwxJXYYxNtLx2TJ"], "asm": "OP_DUP OP_HASH160 703b6ebfc0aecf318becb9a10051f053e8ebea18 OP_EQUALVERIFY OP_CHECKSIG", "type": "pubkeyhash"}, "value": 5.46e-06, "n": 1}, {"scriptPubKey": {"type": "nulldata", "hex": "6a146f6d6e69000000000000001f0000000a1b58d700", "asm": "OP_RETURN 6f6d6e69000000000000001f0000000a1b58d700"}, "value": 0.0, "n": 2}], "hex": "01000000013fe39cb858432b2fc6a28a7101b8dcc260e51804a33fb2379e41bdb879a27ed9000000006b4830450221009116189afd28dd9df55caa2d95740b2862b5b0563f86a0e2744d921369fd035402200cb39ce54647a14f4c0808def0faa238eee906f49f0c5dbee3c6ac791980690801210271977291b74f1f5f5c42157e8aae804664eaaeccfd097918450d37f28fb94d77ffffffff03022e0100000000001976a914d243e6abb9a60fbff430b421d2df4b7d59ec186088ac22020000000000001976a914703b6ebfc0aecf318becb9a10051f053e8ebea1888ac0000000000000000166a146f6d6e69000000000000001f0000000a1b58d70000000000", "vin": [{"sequence": 4294967295, "scriptSig": {"hex": "4830450221009116189afd28dd9df55caa2d95740b2862b5b0563f86a0e2744d921369fd035402200cb39ce54647a14f4c0808def0faa238eee906f49f0c5dbee3c6ac791980690801210271977291b74f1f5f5c42157e8aae804664eaaeccfd097918450d37f28fb94d77", "asm": "30450221009116189afd28dd9df55caa2d95740b2862b5b0563f86a0e2744d921369fd035402200cb39ce54647a14f4c0808def0faa238eee906f49f0c5dbee3c6ac7919806908[ALL] 0271977291b74f1f5f5c42157e8aae804664eaaeccfd097918450d37f28fb94d77"}, "vout": 0, "txid": "d97ea279b8bd419e37b23fa30418e560c2dcb801718aa2c62f2b4358b89ce33f"}], "txid": "1e699446768244ffa30683d83eabec658c3a886bba312d26b22a83e4ffa5a676", "blocktime": 1537874412, "version": 1, "confirmations": 11467, "time": 1537874412, "locktime": 0, "vsize": 257, "size": 257}