{"hash": "1e6a33f76f10d49c38f12e20cd1583d4776c7bf88c5de188e52264e69a60605a", "blockhash": "0000000000000000001e0dab787dd257d1dbfcb92a98c2207d5e1078be1f4165", "vout": [{"scriptPubKey": {"type": "nulldata", "hex": "6a2e80d85f766090cb6bb2d9c91d727c9a43f975c44fae14bc5b068a2e20982fea94045b50bf501266efa017018b34a1", "asm": "OP_RETURN 80d85f766090cb6bb2d9c91d727c9a43f975c44fae14bc5b068a2e20982fea94045b50bf501266efa017018b34a1"}, "value": 0.0, "n": 0}, {"scriptPubKey": {"reqSigs": 1, "hex": "76a9149afca594e77fcbaf6dc16b190ae0426e151db54188ac", "addresses": ["1F8VikUQmEW6n8cHAwNjrNPUkuydM5Bt9m"], "asm": "OP_DUP OP_HASH160 9afca594e77fcbaf6dc16b190ae0426e151db541 OP_EQUALVERIFY OP_CHECKSIG", "type": "pubkeyhash"}, "value": 0.00010356, "n": 1}], "hex": "01000000011abc19d267f47f6ec9176120db300b3a535a9a865565f70372ab1d8eb0064a49010000006a473044022076306fc4e2efc30072d5e642b9e0df08a5534ea995aa3d32cef1196f5a05430f022076ab4591896d60280d0c840fda36e2e397cc5f8d3b2d963e68495803e1ca33ef012102f2881289557966f72764bfdd23bb097321a1a703f7734badf3abe8c862f4959bffffffff020000000000000000306a2e80d85f766090cb6bb2d9c91d727c9a43f975c44fae14bc5b068a2e20982fea94045b50bf501266efa017018b34a174280000000000001976a9149afca594e77fcbaf6dc16b190ae0426e151db54188ac00000000", "vin": [{"sequence": 4294967295, "scriptSig": {"hex": "473044022076306fc4e2efc30072d5e642b9e0df08a5534ea995aa3d32cef1196f5a05430f022076ab4591896d60280d0c840fda36e2e397cc5f8d3b2d963e68495803e1ca33ef012102f2881289557966f72764bfdd23bb097321a1a703f7734badf3abe8c862f4959b", "asm": "3044022076306fc4e2efc30072d5e642b9e0df08a5534ea995aa3d32cef1196f5a05430f022076ab4591896d60280d0c840fda36e2e397cc5f8d3b2d963e68495803e1ca33ef[ALL] 02f2881289557966f72764bfdd23bb097321a1a703f7734badf3abe8c862f4959b"}, "vout": 1, "txid": "494a06b08e1dab7203f76555869a5a533a0b30db206117c96e7ff467d219bc1a"}], "txid": "1e6a33f76f10d49c38f12e20cd1583d4776c7bf88c5de188e52264e69a60605a", "blocktime": 1537872475, "version": 1, "confirmations": 11487, "time": 1537872475, "locktime": 0, "vsize": 248, "size": 248}