{"hash": "1e72d851c6ea3fb5aa6bb2f689ea736b7d53fcfca45c1429547edc9441dd7f60", "blockhash": "0000000000000000001f0ddff1eddb255c1121bcd4da4f1bc9a0da00cae72433", "vout": [{"scriptPubKey": {"reqSigs": 1, "hex": "76a91449d016cbbade3a6aaf60ed921b6156b43af3657388ac", "addresses": ["17jHcHUSb6XYVM5G4zECETvcj9H92gz6kW"], "asm": "OP_DUP OP_HASH160 49d016cbbade3a6aaf60ed921b6156b43af36573 OP_EQUALVERIFY OP_CHECKSIG", "type": "pubkeyhash"}, "value": 0.00106211, "n": 0}, {"scriptPubKey": {"reqSigs": 1, "hex": "76a91434293a3d9ccbe1df2b89cca89a791d590f53af9c88ac", "addresses": ["15koXWiKe1CTwVUwW57BWTdUtJoRqMMq2D"], "asm": "OP_DUP OP_HASH160 34293a3d9ccbe1df2b89cca89a791d590f53af9c OP_EQUALVERIFY OP_CHECKSIG", "type": "pubkeyhash"}, "value": 0.317086, "n": 1}], "hex": "0100000001447456cc37cae0bd21fecb06c6b81353bad0ec13c31efee84ba0943b2f4b73be030000006a47304402202bbfe191c92bbbeb3bdb514f07024ad2e9294fc992705a21c14ab9a49115a4f00220589c9fb99c561402e536a8380fb4969fa491923f1ca784175485c5fe79f1656e012102d9b0cb558d323f0ae8107dcf755c9d5d37e4843405c23775ea68aee280d402e1ffffffff02e39e0100000000001976a91449d016cbbade3a6aaf60ed921b6156b43af3657388acb8d5e301000000001976a91434293a3d9ccbe1df2b89cca89a791d590f53af9c88ac00000000", "vin": [{"sequence": 4294967295, "scriptSig": {"hex": "47304402202bbfe191c92bbbeb3bdb514f07024ad2e9294fc992705a21c14ab9a49115a4f00220589c9fb99c561402e536a8380fb4969fa491923f1ca784175485c5fe79f1656e012102d9b0cb558d323f0ae8107dcf755c9d5d37e4843405c23775ea68aee280d402e1", "asm": "304402202bbfe191c92bbbeb3bdb514f07024ad2e9294fc992705a21c14ab9a49115a4f00220589c9fb99c561402e536a8380fb4969fa491923f1ca784175485c5fe79f1656e[ALL] 02d9b0cb558d323f0ae8107dcf755c9d5d37e4843405c23775ea68aee280d402e1"}, "vout": 3, "txid": "be734b2f3b94a04be8fe1ec313ecd0ba5313b8c606cbfe21bde0ca37cc567444"}], "txid": "1e72d851c6ea3fb5aa6bb2f689ea736b7d53fcfca45c1429547edc9441dd7f60", "blocktime": 1537872018, "version": 1, "confirmations": 11489, "time": 1537872018, "locktime": 0, "vsize": 225, "size": 225}