{"hash": "1e8312bc923cd22bdf1a22d339aaba6d6cc0b891c90f324920e0ba6ab5dee4f5", "blockhash": "0000000000000000001e0dab787dd257d1dbfcb92a98c2207d5e1078be1f4165", "vout": [{"scriptPubKey": {"reqSigs": 1, "hex": "76a914eed4ca8993def582d9151851eb5b26b532908d1a88ac", "addresses": ["1NmpjePxyorNd4Zx2fhSa5Yu2CxXctjNeR"], "asm": "OP_DUP OP_HASH160 eed4ca8993def582d9151851eb5b26b532908d1a OP_EQUALVERIFY OP_CHECKSIG", "type": "pubkeyhash"}, "value": 0.00234115, "n": 0}, {"scriptPubKey": {"reqSigs": 1, "hex": "76a914c1fa725789b2bb84ed47c818d8f568c76938626588ac", "addresses": ["1JgfSMxwHiyg8XHXHchznkKFVK96JZEy53"], "asm": "OP_DUP OP_HASH160 c1fa725789b2bb84ed47c818d8f568c769386265 OP_EQUALVERIFY OP_CHECKSIG", "type": "pubkeyhash"}, "value": 0.01798953, "n": 1}], "hex": "010000000165f09730b4aef68642eb0aeed9668f38c70f54495f34601f95b4262059448577010000006b483045022100b9ef6327d67cdb80f890d3ca51fe1c7f7f2b8497a4d26b50bd1e76073192f5ad0220783cfc47bea1ef9bd6707d96795baca05153e3752b097dfd81e23d55e63ff6f2012103380cecfa963d7ff7a8049a7b59d1b70c94f621439d74e70ba501c8a98016e7afffffffff0283920300000000001976a914eed4ca8993def582d9151851eb5b26b532908d1a88ac29731b00000000001976a914c1fa725789b2bb84ed47c818d8f568c76938626588ac00000000", "vin": [{"sequence": 4294967295, "scriptSig": {"hex": "483045022100b9ef6327d67cdb80f890d3ca51fe1c7f7f2b8497a4d26b50bd1e76073192f5ad0220783cfc47bea1ef9bd6707d96795baca05153e3752b097dfd81e23d55e63ff6f2012103380cecfa963d7ff7a8049a7b59d1b70c94f621439d74e70ba501c8a98016e7af", "asm": "3045022100b9ef6327d67cdb80f890d3ca51fe1c7f7f2b8497a4d26b50bd1e76073192f5ad0220783cfc47bea1ef9bd6707d96795baca05153e3752b097dfd81e23d55e63ff6f2[ALL] 03380cecfa963d7ff7a8049a7b59d1b70c94f621439d74e70ba501c8a98016e7af"}, "vout": 1, "txid": "778544592026b4951f60345f49540fc7388f66d9ee0aeb4286f6aeb43097f065"}], "txid": "1e8312bc923cd22bdf1a22d339aaba6d6cc0b891c90f324920e0ba6ab5dee4f5", "blocktime": 1537872475, "version": 1, "confirmations": 11487, "time": 1537872475, "locktime": 0, "vsize": 226, "size": 226}