{"hash": "1e86073a56d7d52d2a64615002e31d62b285a762b2432ad76e520e08b37c8af7", "blockhash": "00000000000000000017f5eb5941039fbcee6240d03bc1f2f8e35350df66a1d8", "vout": [{"scriptPubKey": {"reqSigs": 1, "hex": "76a91454331e3991fe8d7f824d97ace201e9f3a59a60dc88ac", "addresses": ["18gCzrqVobrxMrcZNZ659x6KKfZ2xgmRyK"], "asm": "OP_DUP OP_HASH160 54331e3991fe8d7f824d97ace201e9f3a59a60dc OP_EQUALVERIFY OP_CHECKSIG", "type": "pubkeyhash"}, "value": 0.01022951, "n": 0}, {"scriptPubKey": {"reqSigs": 1, "hex": "76a91448448f80c7f372a0fd92489c66a4f9c11eae388088ac", "addresses": ["17b7nV1a2qdcefFVAeVJr7Y44BLEpvtpvM"], "asm": "OP_DUP OP_HASH160 48448f80c7f372a0fd92489c66a4f9c11eae3880 OP_EQUALVERIFY OP_CHECKSIG", "type": "pubkeyhash"}, "value": 0.01563519, "n": 1}], "hex": "01000000010e12bb676cce83fc48144476c890cee5e531c13fc10d4d73cb05bbffc61f3f24010000006b483045022100c9bf1c84dcb67acc76b8a156abcd3eee9381787c32b81da0a010935c3a30790e02200d446e8609d38b0bed4585f4eb4735cdc5117fc867e4e50bb247eba588663ee90121026464b6a52ab057f67b1c71954609de522c1fe4b999e9215b10947b7365a9d0c4ffffffff02e79b0f00000000001976a91454331e3991fe8d7f824d97ace201e9f3a59a60dc88ac7fdb1700000000001976a91448448f80c7f372a0fd92489c66a4f9c11eae388088ac00000000", "vin": [{"sequence": 4294967295, "scriptSig": {"hex": "483045022100c9bf1c84dcb67acc76b8a156abcd3eee9381787c32b81da0a010935c3a30790e02200d446e8609d38b0bed4585f4eb4735cdc5117fc867e4e50bb247eba588663ee90121026464b6a52ab057f67b1c71954609de522c1fe4b999e9215b10947b7365a9d0c4", "asm": "3045022100c9bf1c84dcb67acc76b8a156abcd3eee9381787c32b81da0a010935c3a30790e02200d446e8609d38b0bed4585f4eb4735cdc5117fc867e4e50bb247eba588663ee9[ALL] 026464b6a52ab057f67b1c71954609de522c1fe4b999e9215b10947b7365a9d0c4"}, "vout": 1, "txid": "243f1fc6ffbb05cb734d0dc13fc131e5e5ce90c876441448fc83ce6c67bb120e"}], "txid": "1e86073a56d7d52d2a64615002e31d62b285a762b2432ad76e520e08b37c8af7", "blocktime": 1537874412, "version": 1, "confirmations": 11467, "time": 1537874412, "locktime": 0, "vsize": 226, "size": 226}