{"hash": "1e8b2d815cfc37c90a6d4d20ad5e303a7d26a01c5e92d861af1b79a7c7ec61a1", "blockhash": "000000000000000000022b45ed06c6f4ccd3cf7fb5ba4856ebd2e58215665228", "vout": [{"scriptPubKey": {"reqSigs": 1, "hex": "76a91404a3cfa933dd31407895a3d7de385061e11945f288ac", "addresses": ["1RXwZuXH5TYJQmNtSvkVUhs3u3TWKuTU8"], "asm": "OP_DUP OP_HASH160 04a3cfa933dd31407895a3d7de385061e11945f2 OP_EQUALVERIFY OP_CHECKSIG", "type": "pubkeyhash"}, "value": 0.19331642, "n": 0}], "hex": "0100000001256f096b8907bce1e3590c5e57d9b43e967d08641ca9404e7d51c8c4cd517c02000000006b483045022100a9d159bd246c01e7da109a820bf307966632664400b7f05833cc25d4f042ce0e02204b11007e2e6f4704d4ec4f583d504b4d1c14eb355407276f6e7fa8ee82f03788012102f5f1143038803e9f08c44bdb1feda5113e458c86a20ed3443f9ec76cc5dda3daffffffff013afa2601000000001976a91404a3cfa933dd31407895a3d7de385061e11945f288ac00000000", "vin": [{"sequence": 4294967295, "scriptSig": {"hex": "483045022100a9d159bd246c01e7da109a820bf307966632664400b7f05833cc25d4f042ce0e02204b11007e2e6f4704d4ec4f583d504b4d1c14eb355407276f6e7fa8ee82f03788012102f5f1143038803e9f08c44bdb1feda5113e458c86a20ed3443f9ec76cc5dda3da", "asm": "3045022100a9d159bd246c01e7da109a820bf307966632664400b7f05833cc25d4f042ce0e02204b11007e2e6f4704d4ec4f583d504b4d1c14eb355407276f6e7fa8ee82f03788[ALL] 02f5f1143038803e9f08c44bdb1feda5113e458c86a20ed3443f9ec76cc5dda3da"}, "vout": 0, "txid": "027c51cdc4c8517d4e40a91c64087d963eb4d9575e0c59e3e1bc07896b096f25"}], "txid": "1e8b2d815cfc37c90a6d4d20ad5e303a7d26a01c5e92d861af1b79a7c7ec61a1", "blocktime": 1537869901, "version": 1, "confirmations": 11522, "time": 1537869901, "locktime": 0, "vsize": 192, "size": 192}