{"hash": "6ae5fe506989324a09e0a8eb4baf687afeb63260d91103fe0e13e5638fd02c17", "blockhash": "00000000000000000004ffacab907a6b429b9a5745fa0b75af4234bf69dd7176", "vout": [{"scriptPubKey": {"reqSigs": 1, "hex": "76a914fbe60cb3d41bff85d920b625ad1634d4acc14feb88ac", "addresses": ["1PxvCH5SUD2TEPRVcSzsJfGNnc9pn6PNRT"], "asm": "OP_DUP OP_HASH160 fbe60cb3d41bff85d920b625ad1634d4acc14feb OP_EQUALVERIFY OP_CHECKSIG", "type": "pubkeyhash"}, "value": 0.06846352, "n": 0}, {"scriptPubKey": {"reqSigs": 1, "hex": "a9142a3aea4c9301737a45f54b1a4b91de4493eb0fac87", "addresses": ["35YJt6uY2UtRa7kMPHZhg9zNsoVCFuJ6oP"], "asm": "OP_HASH160 2a3aea4c9301737a45f54b1a4b91de4493eb0fac OP_EQUAL", "type": "scripthash"}, "value": 0.04657625, "n": 1}], "hex": "02000000000104609242a03c34ef7a281c76dea7b2f0144e6cf216035db69fd8309b1f9cd66d06040000001716001479b20e0ffbe19c448a2467e73bceb4339d46be34fffffffff0326098678ddb70fc08e9a4c209f4a241c1d85598713ccca539d528872fb84d01000000171600145c3b816b0bc364ef500a1298f1059b4d91039af9ffffffffe146772326a477dfb69f72e1d1203f2325df8852bc7b690b1c67f1f06d5ade530100000017160014f5f45ab636b0bf33ef7cca2c22ed8a23ab202c56ffffffff72bae7bd4204b3701ae5064b31040268a492c73dfb442b9b3ca129e44e47c9d401000000171600141b73f22462648259d213c809e7138931daa4cb78ffffffff0290776800000000001976a914fbe60cb3d41bff85d920b625ad1634d4acc14feb88acd91147000000000017a9142a3aea4c9301737a45f54b1a4b91de4493eb0fac870247304402205129fed48ae40071352f888707b562669902f81ee8dcaa5655252b38e0fcfd8a02201fd3405972fbdd6ad454acfd887ea378fcc921294e507367f824a3ba6261905b0121039d0723d09ef429240016dd0fd677a8be95bb8baf3df0b69660013332a0b4c59c02483045022100be847d645b72e40007a71339ba8ed068c0a14fef7fab9a090b851a7e11168a5d02207424264c5439cd290d6037adff63a98f18a235384545912b754f892377859a3701210341c40b155bb443fceadd46edaa8672045f0c3c314f7a99f36e5aa067c7cf526702483045022100f9e5a93ee1f7a0258db810aef52c49cc10827eed0b7b52fdc5f3937ba126a86102204862edbff4b7ad95e28aec1c653b61742c9a13164b7df07fb7a45c8e0e42a0550121021252543f4a049cb5cfdf21fa9a965b0bc978667da486ac9ff7dd1e45b667526402483045022100e7df01d953af5dced3833737feddf33c41571be1c57d6ec934326e572fc43fa702200f2f473c4fe6c7f78244645b3c33b50960e920253c1b95e19efaf890791857160121034c6c8621f266e87c5411194fbb6fff8ba27b83f4c5b64f948d4e2b9f5ae0e55000000000", "vin": [{"txinwitness": ["304402205129fed48ae40071352f888707b562669902f81ee8dcaa5655252b38e0fcfd8a02201fd3405972fbdd6ad454acfd887ea378fcc921294e507367f824a3ba6261905b01", "039d0723d09ef429240016dd0fd677a8be95bb8baf3df0b69660013332a0b4c59c"], "sequence": 4294967295, "scriptSig": {"hex": "16001479b20e0ffbe19c448a2467e73bceb4339d46be34", "asm": "001479b20e0ffbe19c448a2467e73bceb4339d46be34"}, "vout": 4, "txid": "066dd69c1f9b30d89fb65d0316f26c4e14f0b2a7de761c287aef343ca0429260"}, {"txinwitness": ["3045022100be847d645b72e40007a71339ba8ed068c0a14fef7fab9a090b851a7e11168a5d02207424264c5439cd290d6037adff63a98f18a235384545912b754f892377859a3701", "0341c40b155bb443fceadd46edaa8672045f0c3c314f7a99f36e5aa067c7cf5267"], "sequence": 4294967295, "scriptSig": {"hex": "1600145c3b816b0bc364ef500a1298f1059b4d91039af9", "asm": "00145c3b816b0bc364ef500a1298f1059b4d91039af9"}, "vout": 1, "txid": "4db82f8728d539a5cc3c719855d8c141a2f409c2a4e908fc70db8d67986032f0"}, {"txinwitness": ["3045022100f9e5a93ee1f7a0258db810aef52c49cc10827eed0b7b52fdc5f3937ba126a86102204862edbff4b7ad95e28aec1c653b61742c9a13164b7df07fb7a45c8e0e42a05501", "021252543f4a049cb5cfdf21fa9a965b0bc978667da486ac9ff7dd1e45b6675264"], "sequence": 4294967295, "scriptSig": {"hex": "160014f5f45ab636b0bf33ef7cca2c22ed8a23ab202c56", "asm": "0014f5f45ab636b0bf33ef7cca2c22ed8a23ab202c56"}, "vout": 1, "txid": "53de5a6df0f1671c0b697bbc5288df25233f20d1e1729fb6df77a426237746e1"}, {"txinwitness": ["3045022100e7df01d953af5dced3833737feddf33c41571be1c57d6ec934326e572fc43fa702200f2f473c4fe6c7f78244645b3c33b50960e920253c1b95e19efaf8907918571601", "034c6c8621f266e87c5411194fbb6fff8ba27b83f4c5b64f948d4e2b9f5ae0e550"], "sequence": 4294967295, "scriptSig": {"hex": "1600141b73f22462648259d213c809e7138931daa4cb78", "asm": "00141b73f22462648259d213c809e7138931daa4cb78"}, "vout": 1, "txid": "d4c9474ee429a13c9b2b44fb3dc792a4680204314b06e51a70b30442bde7ba72"}], "txid": "1e9b1dfc963c59b0f86e4a4a023067d8c567c1816454a9de66150a408cb1115a", "blocktime": 1537875543, "version": 2, "confirmations": 11464, "time": 1537875543, "locktime": 0, "vsize": 441, "size": 765}