{"hash": "5c85ed383be0cb717b6ca7cdd20a68d2fd8199addea12a1d1ba6c34e7be86d96", "blockhash": "0000000000000000000e13cef7c366c0283d82e591d1acd082e914b08063cdf1", "vout": [{"scriptPubKey": {"reqSigs": 1, "hex": "76a914c8c03933b699e1ce355982cc06a356bb565323ed88ac", "addresses": ["1KJURHYT1YCcQFrwiqTD9fk16PymMTajsa"], "asm": "OP_DUP OP_HASH160 c8c03933b699e1ce355982cc06a356bb565323ed OP_EQUALVERIFY OP_CHECKSIG", "type": "pubkeyhash"}, "value": 0.1827, "n": 0}, {"scriptPubKey": {"reqSigs": 1, "hex": "a914dacb56b5fc580fade0b57a4e3ae4ba9dcfb7ecfc87", "addresses": ["3MdtpaqzMj4v6g1qPmuegFmwdhKXM1Y6XJ"], "asm": "OP_HASH160 dacb56b5fc580fade0b57a4e3ae4ba9dcfb7ecfc OP_EQUAL", "type": "scripthash"}, "value": 7.083e-05, "n": 1}], "hex": "01000000000106aa2cd27f6f2a13e21204064e41ec9a8b3b6c0c379e1624f30c6276312a228aa30100000017160014ae13cadd20361b5927317f94a9625cb9131e300effffff00fa8cbdda600bdb591418be9e605186fe8650a7a2f20df5091e5eeb2080d2f231000000001716001495772fd579588ee543b99a9be43d52b2de9d476dffffff00234766017fbc1fefd27f820f46b779fe0765ea5f8ef43ff39f36db2978851f11000000001716001495772fd579588ee543b99a9be43d52b2de9d476dffffff001df44fb8b73f22be3f4966b4e90579d973bf611328beecd1c6bd8d5e1fad2abf000000001716001495772fd579588ee543b99a9be43d52b2de9d476dffffff00985c14f24fbda010037cabfa0ae6d367e2fc46c9f2df5d44b7970d09c66b6408000000001716001495772fd579588ee543b99a9be43d52b2de9d476dffffff0007f18e70e4e3e3433bcd6dd01960e875a3045f9a965f2bb7d5aa02729f5e5517000000001716001495772fd579588ee543b99a9be43d52b2de9d476dffffff000230c71601000000001976a914c8c03933b699e1ce355982cc06a356bb565323ed88acab1b00000000000017a914dacb56b5fc580fade0b57a4e3ae4ba9dcfb7ecfc87024830450221008b37b25b90bf4c12f2fb3b6ca2027c915cd15512d1d529c2677c938749063a5202201139b331dbb5075d5ff4c036d5e1429814720870b18d21c7bd868a19ac5791c7012102b7abd391e78000ed07202f8c776332d55b4915f1924c95af1c3f7d090aa56abb02483045022100c953470544c325489871dd0d10ae3698ac5655154afe255d55216a2c2fea00a102200210fb8508af286965cf10b3affb2120b9b2882a654994a866ae596e12000d220121033b0a250a7465b0a905400033f5218112c46984978079b25aa76974efc08ba43502473044022074bcbb8df96e584749cf9913eca213c6845a204915909270116370cc175b533002204c96cfdc04ca30de9f9b81e2e1629d22bd54d31518f797d81d66b6466146d9f20121033b0a250a7465b0a905400033f5218112c46984978079b25aa76974efc08ba43502473044022057fc70ac913d888fe2584278f514075f4922ef2d6ba01cc63b86592b370703150220760f218741785a35c1918107376a2c88b7ce82e495d32a5c0f8efb816bd408720121033b0a250a7465b0a905400033f5218112c46984978079b25aa76974efc08ba43502483045022100a39949dff1e6f373308959549813a03cc431c98bbb6b2783c3fe9882ee0e25e7022003be002ac2f3260015332582ef4134578881161821f8af1ce351e1339b13632a0121033b0a250a7465b0a905400033f5218112c46984978079b25aa76974efc08ba43502483045022100bcb53e7a92434813c8e6006535e3d92b6dfbdbbf87268a15c77c2b8de04acc7e02203acd3f5b326258e20f8db238abc5765885ae4ebaf0b4c622e5e459840a49f5660121033b0a250a7465b0a905400033f5218112c46984978079b25aa76974efc08ba43500000000", "vin": [{"txinwitness": ["30450221008b37b25b90bf4c12f2fb3b6ca2027c915cd15512d1d529c2677c938749063a5202201139b331dbb5075d5ff4c036d5e1429814720870b18d21c7bd868a19ac5791c701", "02b7abd391e78000ed07202f8c776332d55b4915f1924c95af1c3f7d090aa56abb"], "sequence": 16777215, "scriptSig": {"hex": "160014ae13cadd20361b5927317f94a9625cb9131e300e", "asm": "0014ae13cadd20361b5927317f94a9625cb9131e300e"}, "vout": 1, "txid": "a38a222a3176620cf324169e370c6c3b8b9aec414e060412e2132a6f7fd22caa"}, {"txinwitness": ["3045022100c953470544c325489871dd0d10ae3698ac5655154afe255d55216a2c2fea00a102200210fb8508af286965cf10b3affb2120b9b2882a654994a866ae596e12000d2201", "033b0a250a7465b0a905400033f5218112c46984978079b25aa76974efc08ba435"], "sequence": 16777215, "scriptSig": {"hex": "16001495772fd579588ee543b99a9be43d52b2de9d476d", "asm": "001495772fd579588ee543b99a9be43d52b2de9d476d"}, "vout": 0, "txid": "31f2d28020eb5e1e09f50df2a2a75086fe8651609ebe181459db0b60dabd8cfa"}, {"txinwitness": ["3044022074bcbb8df96e584749cf9913eca213c6845a204915909270116370cc175b533002204c96cfdc04ca30de9f9b81e2e1629d22bd54d31518f797d81d66b6466146d9f201", "033b0a250a7465b0a905400033f5218112c46984978079b25aa76974efc08ba435"], "sequence": 16777215, "scriptSig": {"hex": "16001495772fd579588ee543b99a9be43d52b2de9d476d", "asm": "001495772fd579588ee543b99a9be43d52b2de9d476d"}, "vout": 0, "txid": "111f857829db369ff33ff48e5fea6507fe79b7460f827fd2ef1fbc7f01664723"}, {"txinwitness": ["3044022057fc70ac913d888fe2584278f514075f4922ef2d6ba01cc63b86592b370703150220760f218741785a35c1918107376a2c88b7ce82e495d32a5c0f8efb816bd4087201", "033b0a250a7465b0a905400033f5218112c46984978079b25aa76974efc08ba435"], "sequence": 16777215, "scriptSig": {"hex": "16001495772fd579588ee543b99a9be43d52b2de9d476d", "asm": "001495772fd579588ee543b99a9be43d52b2de9d476d"}, "vout": 0, "txid": "bf2aad1f5e8dbdc6d1ecbe281361bf73d97905e9b466493fbe223fb7b84ff41d"}, {"txinwitness": ["3045022100a39949dff1e6f373308959549813a03cc431c98bbb6b2783c3fe9882ee0e25e7022003be002ac2f3260015332582ef4134578881161821f8af1ce351e1339b13632a01", "033b0a250a7465b0a905400033f5218112c46984978079b25aa76974efc08ba435"], "sequence": 16777215, "scriptSig": {"hex": "16001495772fd579588ee543b99a9be43d52b2de9d476d", "asm": "001495772fd579588ee543b99a9be43d52b2de9d476d"}, "vout": 0, "txid": "08646bc6090d97b7445ddff2c946fce267d3e60afaab7c0310a0bd4ff2145c98"}, {"txinwitness": ["3045022100bcb53e7a92434813c8e6006535e3d92b6dfbdbbf87268a15c77c2b8de04acc7e02203acd3f5b326258e20f8db238abc5765885ae4ebaf0b4c622e5e459840a49f56601", "033b0a250a7465b0a905400033f5218112c46984978079b25aa76974efc08ba435"], "sequence": 16777215, "scriptSig": {"hex": "16001495772fd579588ee543b99a9be43d52b2de9d476d", "asm": "001495772fd579588ee543b99a9be43d52b2de9d476d"}, "vout": 0, "txid": "17555e9f7202aad5b72b5f969a5f04a375e86019d06dcd3b43e3e3e4708ef107"}], "txid": "1e9d72bd086b4659bf5b048ec0caa6abd37422a8067c1b1f2ed110d53207ad23", "blocktime": 1537871767, "version": 1, "confirmations": 11495, "time": 1537871767, "locktime": 0, "vsize": 622, "size": 1108}