{"hash": "1e9f9b1e9f00a9b7dac745f217c582b5d47c95160795591e2e1fcbd3aeadea7c", "blockhash": "00000000000000000004ffacab907a6b429b9a5745fa0b75af4234bf69dd7176", "vout": [{"scriptPubKey": {"reqSigs": 1, "hex": "76a9147c838e9ca9707d1a2a794b7655d8cebf50159d4388ac", "addresses": ["1CMNPXv1CgiLhRv3UzkWfptvGcA4gR3Nir"], "asm": "OP_DUP OP_HASH160 7c838e9ca9707d1a2a794b7655d8cebf50159d43 OP_EQUALVERIFY OP_CHECKSIG", "type": "pubkeyhash"}, "value": 1.0376708, "n": 0}, {"scriptPubKey": {"reqSigs": 1, "hex": "a914f7d50a591b2ba4c3343139bf41f3224ba01e66b587", "addresses": ["3QHS3EX6Sd8EyK7PnUd1PnQqvFxZEA4Qw1"], "asm": "OP_HASH160 f7d50a591b2ba4c3343139bf41f3224ba01e66b5 OP_EQUAL", "type": "scripthash"}, "value": 0.748795, "n": 1}], "hex": "0200000001ed8c895d2030514557867195f5bbc232b0dddc4a2d3f47d336916fea13499ef6000000006a473044022016897c306e21f69c2d3952860abdf77a917ee5aecd38480a79806bcdd50cfa8602205f8cc8d56dad034d017d0a91fd124ee5c300ac313c9d3897887f15a74160cbf30121036e82afca037b6ebf41a89f27007ab73bcc605aeba6f93cba74ff6f34e0fc88fafeffffff02285c2f06000000001976a9147c838e9ca9707d1a2a794b7655d8cebf50159d4388ac0c9276040000000017a914f7d50a591b2ba4c3343139bf41f3224ba01e66b58716490800", "vin": [{"sequence": 4294967294, "scriptSig": {"hex": "473044022016897c306e21f69c2d3952860abdf77a917ee5aecd38480a79806bcdd50cfa8602205f8cc8d56dad034d017d0a91fd124ee5c300ac313c9d3897887f15a74160cbf30121036e82afca037b6ebf41a89f27007ab73bcc605aeba6f93cba74ff6f34e0fc88fa", "asm": "3044022016897c306e21f69c2d3952860abdf77a917ee5aecd38480a79806bcdd50cfa8602205f8cc8d56dad034d017d0a91fd124ee5c300ac313c9d3897887f15a74160cbf3[ALL] 036e82afca037b6ebf41a89f27007ab73bcc605aeba6f93cba74ff6f34e0fc88fa"}, "vout": 0, "txid": "f69e4913ea6f9136d3473f2d4adcddb032c2bbf595718657455130205d898ced"}], "txid": "1e9f9b1e9f00a9b7dac745f217c582b5d47c95160795591e2e1fcbd3aeadea7c", "blocktime": 1537875543, "version": 2, "confirmations": 11464, "time": 1537875543, "locktime": 542998, "vsize": 223, "size": 223}