{"hash": "8c4363afda3c8a2a022a67f99495c2d3e8684950e225993623715504b1d339ad", "blockhash": "000000000000000000022b45ed06c6f4ccd3cf7fb5ba4856ebd2e58215665228", "vout": [{"scriptPubKey": {"reqSigs": 1, "hex": "76a914ee6a79c4c2c2aa7464d5d8eac78c2951c6fa9fb088ac", "addresses": ["1NjdNiRDThKmKCf16u6t45xwz882Jg1fTb"], "asm": "OP_DUP OP_HASH160 ee6a79c4c2c2aa7464d5d8eac78c2951c6fa9fb0 OP_EQUALVERIFY OP_CHECKSIG", "type": "pubkeyhash"}, "value": 0.00078717, "n": 0}, {"scriptPubKey": {"reqSigs": 1, "hex": "a914d09f838aac76eed82c0a5603ed5c56bf231c226b87", "addresses": ["3Li7ZfEZeAEZ3koVfuZJySftpkQAkSEfaY"], "asm": "OP_HASH160 d09f838aac76eed82c0a5603ed5c56bf231c226b OP_EQUAL", "type": "scripthash"}, "value": 0.01293952, "n": 1}], "hex": "01000000000101fa8012658439219a467a6a55f5e3092a35a0361e5da8b54e9423c9786c7712710000000023220020b62c98bbc49977660109ca5811d9a706ca71fc13c46778d0a8cfd8ca23a961acffffffff027d330100000000001976a914ee6a79c4c2c2aa7464d5d8eac78c2951c6fa9fb088ac80be13000000000017a914d09f838aac76eed82c0a5603ed5c56bf231c226b870400483045022100c66f3115c0b6156591ffd1cb77cca2caa6c0389ff401538141f9ca4291e22c8b02205c5324a75488fb373c415a6afdd3179229aabeaccaad348e45991e7dccaf1dff014730440220529f53c2e398b5bce1483780a088c603b3ea169d695074aa43de683658a6560f02201d15f3888c46359b24982b6b05f2d9b60fa0b4d0095a8d8ffe96740666735bf8014752210255990108210c55725aaae3dced19ab0692ece4c2101975ec559d55be0b837f4621035103ae7fde57e8b6bb3bb5f71f41a1a19d611723da7ff266c973839886408c4452ae00000000", "vin": [{"txinwitness": ["", "3045022100c66f3115c0b6156591ffd1cb77cca2caa6c0389ff401538141f9ca4291e22c8b02205c5324a75488fb373c415a6afdd3179229aabeaccaad348e45991e7dccaf1dff01", "30440220529f53c2e398b5bce1483780a088c603b3ea169d695074aa43de683658a6560f02201d15f3888c46359b24982b6b05f2d9b60fa0b4d0095a8d8ffe96740666735bf801", "52210255990108210c55725aaae3dced19ab0692ece4c2101975ec559d55be0b837f4621035103ae7fde57e8b6bb3bb5f71f41a1a19d611723da7ff266c973839886408c4452ae"], "sequence": 4294967295, "scriptSig": {"hex": "220020b62c98bbc49977660109ca5811d9a706ca71fc13c46778d0a8cfd8ca23a961ac", "asm": "0020b62c98bbc49977660109ca5811d9a706ca71fc13c46778d0a8cfd8ca23a961ac"}, "vout": 0, "txid": "7112776c78c923944eb5a85d1e36a0352a09e3f5556a7a469a213984651280fa"}], "txid": "1e9fb52f6f13a98a9f12a4919d38b9887b9acf0aaa82d3cffbea17c9002678c3", "blocktime": 1537869901, "version": 1, "confirmations": 11524, "time": 1537869901, "locktime": 0, "vsize": 208, "size": 373}