{"hash": "1ea0486b17fb33883c85572119b8fa87f186f65cf11cd4a99c684efa6ec0cd54", "blockhash": "00000000000000000004ffacab907a6b429b9a5745fa0b75af4234bf69dd7176", "vout": [{"scriptPubKey": {"reqSigs": 1, "hex": "a91486ed17bfa7bd80cf87cf7e80abd9289079b78c5b87", "addresses": ["3DzSVk4veMCkNbNT9CdETeE26uWxmNbBnD"], "asm": "OP_HASH160 86ed17bfa7bd80cf87cf7e80abd9289079b78c5b OP_EQUAL", "type": "scripthash"}, "value": 2.98796748, "n": 0}, {"scriptPubKey": {"reqSigs": 1, "hex": "a91469f3769e8689da5319965c393531bc5539397b6787", "addresses": ["3BMEXpJzi1E8FEbbxwQVEKXxgWCZ9cppMk"], "asm": "OP_HASH160 69f3769e8689da5319965c393531bc5539397b67 OP_EQUAL", "type": "scripthash"}, "value": 0.3, "n": 1}], "hex": "020000000182de3aa71e62c1d62411bbb818807430b3a21bac2f82975c82ade1357cb9560c01000000d90047304402203e803479d94a9ce4d020d51c42a94b98549ef305d121a304ba096930a1c7a0420220699e60cd3a9fa5c76fbb69660cfc88da6f1cf2d6ad33b68a31b6184add42552a014730440220382fd5ac8a42b0bb4c9651d85e8de654a48fc20da2fd02c5f5c90feaea42383a022004b8c82b0362cc5f18a48baa6a18c2c10818f6e11fa7d8d57eb3c18d43cd79dc014752210371a8ae93fead2b73eaef13eb0a975bb5ff66488a1204c6e382d74a49bf9358022102797fd7c90dc6d07e3d519bdebc474265603b9e3fe921ef18796188dfc09f79e652aeffffffff02cc46cf110000000017a91486ed17bfa7bd80cf87cf7e80abd9289079b78c5b8780c3c9010000000017a91469f3769e8689da5319965c393531bc5539397b678700000000", "vin": [{"sequence": 4294967295, "scriptSig": {"hex": "0047304402203e803479d94a9ce4d020d51c42a94b98549ef305d121a304ba096930a1c7a0420220699e60cd3a9fa5c76fbb69660cfc88da6f1cf2d6ad33b68a31b6184add42552a014730440220382fd5ac8a42b0bb4c9651d85e8de654a48fc20da2fd02c5f5c90feaea42383a022004b8c82b0362cc5f18a48baa6a18c2c10818f6e11fa7d8d57eb3c18d43cd79dc014752210371a8ae93fead2b73eaef13eb0a975bb5ff66488a1204c6e382d74a49bf9358022102797fd7c90dc6d07e3d519bdebc474265603b9e3fe921ef18796188dfc09f79e652ae", "asm": "0 304402203e803479d94a9ce4d020d51c42a94b98549ef305d121a304ba096930a1c7a0420220699e60cd3a9fa5c76fbb69660cfc88da6f1cf2d6ad33b68a31b6184add42552a[ALL] 30440220382fd5ac8a42b0bb4c9651d85e8de654a48fc20da2fd02c5f5c90feaea42383a022004b8c82b0362cc5f18a48baa6a18c2c10818f6e11fa7d8d57eb3c18d43cd79dc[ALL] 52210371a8ae93fead2b73eaef13eb0a975bb5ff66488a1204c6e382d74a49bf9358022102797fd7c90dc6d07e3d519bdebc474265603b9e3fe921ef18796188dfc09f79e652ae"}, "vout": 1, "txid": "0c56b97c35e1ad825c97822fac1ba2b330748018b8bb1124d6c1621ea73ade82"}], "txid": "1ea0486b17fb33883c85572119b8fa87f186f65cf11cd4a99c684efa6ec0cd54", "blocktime": 1537875543, "version": 2, "confirmations": 11464, "time": 1537875543, "locktime": 0, "vsize": 332, "size": 332}