{"hash": "b92fead977219e17c9cd38bbd4250561308e50ce411ea51b48ff0e03f9e5a117", "blockhash": "0000000000000000000e13cef7c366c0283d82e591d1acd082e914b08063cdf1", "vout": [{"scriptPubKey": {"reqSigs": 1, "hex": "0014e605087ba18c22df2b63f9a1aa06bafc6e6ef1d3", "addresses": ["bc1quczss7ap3s3d72mrlxs65p46l3hxauwnpazg4r"], "asm": "0 e605087ba18c22df2b63f9a1aa06bafc6e6ef1d3", "type": "witness_v0_keyhash"}, "value": 3.701e-05, "n": 0}, {"scriptPubKey": {"reqSigs": 1, "hex": "76a91482c9cbb716ad374fe2a34beabc732d139e9ef8bd88ac", "addresses": ["1CvYaxJ28q4n8EpW7zkQZcnoCop5jr8s6h"], "asm": "OP_DUP OP_HASH160 82c9cbb716ad374fe2a34beabc732d139e9ef8bd OP_EQUALVERIFY OP_CHECKSIG", "type": "pubkeyhash"}, "value": 0.00323773, "n": 1}], "hex": "010000000001012f556da31a31be35bcf356b4aa37e3b561c9dd00a4e50bfe97687371531f8c5d0000000000ffffffff02750e000000000000160014e605087ba18c22df2b63f9a1aa06bafc6e6ef1d3bdf00400000000001976a91482c9cbb716ad374fe2a34beabc732d139e9ef8bd88ac02483045022100c524596be1b3491bb8f46e5aca9f1990217f93e2178108b1f2dcdd07c14fac0202200f292a5f6f927c15e1d85a589dec230c4622c86d5b47c01dcaadb80e583ff86a0121033fa9ffa25133f8762a55144cbb04bf1692944ab0b254fa3432ea7fdfc206533e00000000", "vin": [{"txinwitness": ["3045022100c524596be1b3491bb8f46e5aca9f1990217f93e2178108b1f2dcdd07c14fac0202200f292a5f6f927c15e1d85a589dec230c4622c86d5b47c01dcaadb80e583ff86a01", "033fa9ffa25133f8762a55144cbb04bf1692944ab0b254fa3432ea7fdfc206533e"], "sequence": 4294967295, "scriptSig": {"hex": "", "asm": ""}, "vout": 0, "txid": "5d8c1f5371736897fe0be5a400ddc961b5e337aab456f3bc35be311aa36d552f"}], "txid": "1ea1d53e3e8c778cc54c134c37fbdfdda72bd9d32e405325253c93b769981e4a", "blocktime": 1537871767, "version": 1, "confirmations": 11495, "time": 1537871767, "locktime": 0, "vsize": 144, "size": 226}