{"hash": "2b3ae8bf854fab24bb7279262d5ff0325fda396d387cf9320f685e52293bc51d", "blockhash": "0000000000000000000e13cef7c366c0283d82e591d1acd082e914b08063cdf1", "vout": [{"scriptPubKey": {"reqSigs": 1, "hex": "002079de59c83bdc57d3190a2f2314c967eea0e733cb499236fe0ab9701ebeb35c87", "addresses": ["bc1q0809njpmm3taxxg29u33fjt8a6swwv7tfxfrdls2h9cpa04ntjrs0spt4p"], "asm": "0 79de59c83bdc57d3190a2f2314c967eea0e733cb499236fe0ab9701ebeb35c87", "type": "witness_v0_scripthash"}, "value": 0.005, "n": 0}, {"scriptPubKey": {"reqSigs": 1, "hex": "a91426a1c6f1e28cb3fe5c6274e68a3de4a19b05d24c87", "addresses": ["35DHQJf79j9V6SaTo3aJ4FwiGr2tZQmHrR"], "asm": "OP_HASH160 26a1c6f1e28cb3fe5c6274e68a3de4a19b05d24c OP_EQUAL", "type": "scripthash"}, "value": 0.02131345, "n": 1}], "hex": "02000000000102e01c59bf6c3b7ee537d7526c3ddf3574f8f0e60234de0034e8780cff7ae1137300000000171600147546dd21733b4572aec46454cb07c5c22d45174effffffff1cc388750e3447be54ac351c450bdd522a6897b8a8bd9aa39799ad6a595bde52010000001716001417c69aefcab6e397343588161aabe1f0dcaa6352ffffffff0220a107000000000022002079de59c83bdc57d3190a2f2314c967eea0e733cb499236fe0ab9701ebeb35c87918520000000000017a91426a1c6f1e28cb3fe5c6274e68a3de4a19b05d24c870247304402201ed0f9b01e51d62db7405fa50f2e6a03f807ee274aac9cbbfc96dfb560465c7602207a960527f93822b894ecc7162f36f54d256c1f080f4643ce1338dd934cb56a9b012103c381f37c6413d8a7fd7b2cca1befc325528d6cc5e3f51a17a8b4086ed6f580470247304402206eef02f53be2c7c420ed7d01fb60cc9e4daddfaeecb6ae13697552833985e4a302203766fa84059a29f14d4977077b53b995c939c30e94bf9db7c7d23ef0b34ad77501210253cb66512b70f056b47cdc317f36386764394036229571f1f7a9b96adba5155e00000000", "vin": [{"txinwitness": ["304402201ed0f9b01e51d62db7405fa50f2e6a03f807ee274aac9cbbfc96dfb560465c7602207a960527f93822b894ecc7162f36f54d256c1f080f4643ce1338dd934cb56a9b01", "03c381f37c6413d8a7fd7b2cca1befc325528d6cc5e3f51a17a8b4086ed6f58047"], "sequence": 4294967295, "scriptSig": {"hex": "1600147546dd21733b4572aec46454cb07c5c22d45174e", "asm": "00147546dd21733b4572aec46454cb07c5c22d45174e"}, "vout": 0, "txid": "7313e17aff0c78e83400de3402e6f0f87435df3d6c52d737e57e3b6cbf591ce0"}, {"txinwitness": ["304402206eef02f53be2c7c420ed7d01fb60cc9e4daddfaeecb6ae13697552833985e4a302203766fa84059a29f14d4977077b53b995c939c30e94bf9db7c7d23ef0b34ad77501", "0253cb66512b70f056b47cdc317f36386764394036229571f1f7a9b96adba5155e"], "sequence": 4294967295, "scriptSig": {"hex": "16001417c69aefcab6e397343588161aabe1f0dcaa6352", "asm": "001417c69aefcab6e397343588161aabe1f0dcaa6352"}, "vout": 1, "txid": "52de5b596aad9997a39abda8b897682a52dd0b451c35ac54be47340e7588c31c"}], "txid": "1ea6eab3dc8b627091f5d1e80be39370c151a912b64e83fbdb4ba5d21fc36c02", "blocktime": 1537871767, "version": 2, "confirmations": 11495, "time": 1537871767, "locktime": 0, "vsize": 267, "size": 429}