{"hash": "1eaa69d52106045d12849c6e03714d893584c34847f13fe26b2c4a89dcc2bf8a", "blockhash": "0000000000000000001e0dab787dd257d1dbfcb92a98c2207d5e1078be1f4165", "vout": [{"scriptPubKey": {"reqSigs": 1, "hex": "76a914d5c58fb94778b8cc257eee989887faa3421c7a8488ac", "addresses": ["1LVKbfkKWFUXkbYYjV3cq51zS9QyXvtxzi"], "asm": "OP_DUP OP_HASH160 d5c58fb94778b8cc257eee989887faa3421c7a84 OP_EQUALVERIFY OP_CHECKSIG", "type": "pubkeyhash"}, "value": 0.00195919, "n": 0}, {"scriptPubKey": {"reqSigs": 1, "hex": "76a914dc6160e968c105db77fc7751cd6f9b85482a7d7188ac", "addresses": ["1M6GKBfBXthMLdrjfPDWGWubSJeCEKhQYw"], "asm": "OP_DUP OP_HASH160 dc6160e968c105db77fc7751cd6f9b85482a7d71 OP_EQUALVERIFY OP_CHECKSIG", "type": "pubkeyhash"}, "value": 0.000255, "n": 1}], "hex": "0100000001d941f59f392bd55ab5ea61186f2ad421de4dd9d77c7731ca1f99a8f4e00155e5010000006a47304402203234ee5c8e466b2f31149757ae3265d85703f9ac67f9e862f0b1a153feda63440220369adf3fe2cdb023b5d067c7a9c28f9b6da714f85b5c2c2ca380cfb9cdcf4486012102fe76017272df147f6ed41bc4ffeb4df0b72b543b1d112e0afd695de9b462c160ffffffff024ffd0200000000001976a914d5c58fb94778b8cc257eee989887faa3421c7a8488ac9c630000000000001976a914dc6160e968c105db77fc7751cd6f9b85482a7d7188ac00000000", "vin": [{"sequence": 4294967295, "scriptSig": {"hex": "47304402203234ee5c8e466b2f31149757ae3265d85703f9ac67f9e862f0b1a153feda63440220369adf3fe2cdb023b5d067c7a9c28f9b6da714f85b5c2c2ca380cfb9cdcf4486012102fe76017272df147f6ed41bc4ffeb4df0b72b543b1d112e0afd695de9b462c160", "asm": "304402203234ee5c8e466b2f31149757ae3265d85703f9ac67f9e862f0b1a153feda63440220369adf3fe2cdb023b5d067c7a9c28f9b6da714f85b5c2c2ca380cfb9cdcf4486[ALL] 02fe76017272df147f6ed41bc4ffeb4df0b72b543b1d112e0afd695de9b462c160"}, "vout": 1, "txid": "e55501e0f4a8991fca31777cd7d94dde21d42a6f1861eab55ad52b399ff541d9"}], "txid": "1eaa69d52106045d12849c6e03714d893584c34847f13fe26b2c4a89dcc2bf8a", "blocktime": 1537872475, "version": 1, "confirmations": 11487, "time": 1537872475, "locktime": 0, "vsize": 225, "size": 225}