{"hash": "e80e7674bf4f1af72139ea8590ba70e07c4bf619026dfd6be5aa1c1e0527ef1d", "blockhash": "0000000000000000001e0dab787dd257d1dbfcb92a98c2207d5e1078be1f4165", "vout": [{"scriptPubKey": {"reqSigs": 1, "hex": "00141b4e21237a3b72a91842599ae420358c4ec4a53e", "addresses": ["bc1qrd8zzgm68de2jxzztxdwggp4338vfff7837hds"], "asm": "0 1b4e21237a3b72a91842599ae420358c4ec4a53e", "type": "witness_v0_keyhash"}, "value": 0.00019734, "n": 0}, {"scriptPubKey": {"reqSigs": 1, "hex": "76a91462f9a19bb360a0c3c690c954a73ac93b0defb7bb88ac", "addresses": ["1A2LGV8JrkBhHwfUaMMLy55eF2uQ2wYnWE"], "asm": "OP_DUP OP_HASH160 62f9a19bb360a0c3c690c954a73ac93b0defb7bb OP_EQUALVERIFY OP_CHECKSIG", "type": "pubkeyhash"}, "value": 0.010549, "n": 1}], "hex": "01000000000101be8825bbd23455e0265ecdf225714779f86d744acdca2d51a69d81b2e2d8f167000000001716001436481e1fcb89a98cf33234c640407bb9433f91bbffffffff02164d0000000000001600141b4e21237a3b72a91842599ae420358c4ec4a53eb4181000000000001976a91462f9a19bb360a0c3c690c954a73ac93b0defb7bb88ac02483045022100f08a54f2f5a02fe542c645a1e2e759b820cecc648fcee387a59f4658b7f8a0020220154942ed62380bc41f96a50d1970223d4f1226dd6a50d244cdd6d2778c9c3f7601210396a03a2691eb1141bf97b387f6a9152274d730cd81daab77e45145ae38bc903600000000", "vin": [{"txinwitness": ["3045022100f08a54f2f5a02fe542c645a1e2e759b820cecc648fcee387a59f4658b7f8a0020220154942ed62380bc41f96a50d1970223d4f1226dd6a50d244cdd6d2778c9c3f7601", "0396a03a2691eb1141bf97b387f6a9152274d730cd81daab77e45145ae38bc9036"], "sequence": 4294967295, "scriptSig": {"hex": "16001436481e1fcb89a98cf33234c640407bb9433f91bb", "asm": "001436481e1fcb89a98cf33234c640407bb9433f91bb"}, "vout": 0, "txid": "67f1d8e2b2819da6512dcacd4a746df879477125f2cd5e26e05534d2bb2588be"}], "txid": "1eafcd66b2e1ddcb5296e5bd00219929b1004f4d6a7f451a3b33ef25dbe75bea", "blocktime": 1537872475, "version": 1, "confirmations": 11487, "time": 1537872475, "locktime": 0, "vsize": 167, "size": 249}