{"hash": "1eb14c373e9839bfa186c10bf3155f195b5d90690a16295ad5788fb60fed9b6a", "blockhash": "00000000000000000018f53835495a110e01622372bf6ae95dc86f2b0ab887b0", "vout": [{"scriptPubKey": {"reqSigs": 1, "hex": "a914f44f932c287a8485f39e711faa098e02f51eefb487", "addresses": ["3Pxp8JyvDaL17hQLaEtUwy7rV634r3aJAR"], "asm": "OP_HASH160 f44f932c287a8485f39e711faa098e02f51eefb4 OP_EQUAL", "type": "scripthash"}, "value": 4.372e-05, "n": 0}, {"scriptPubKey": {"reqSigs": 1, "hex": "76a9140984858de1521195cef174fe60f8febda674afc388ac", "addresses": ["1sKqVjM5VEgNTPnsqhDoQzEsrLBrNnTHU"], "asm": "OP_DUP OP_HASH160 0984858de1521195cef174fe60f8febda674afc3 OP_EQUALVERIFY OP_CHECKSIG", "type": "pubkeyhash"}, "value": 0.00844812, "n": 1}], "hex": "0100000001772cbc5c50dda0e1003d19bd2b69ca76ec94e22346de74766fba0d5444fa4494010000006a47304402204db4ef2941a54e991443b1df6c0a2a3ed3489ad57b4147c8bd556da3b3878b8002200f92b2cc46001aadf65488f607e3d3960febeb20388b101b96bb91cbfe71b3b401210256176da3e843c1baaef016196fd80d6aef7f03cb5250d29343a525f9f42ed39affffffff02141100000000000017a914f44f932c287a8485f39e711faa098e02f51eefb4870ce40c00000000001976a9140984858de1521195cef174fe60f8febda674afc388ac00000000", "vin": [{"sequence": 4294967295, "scriptSig": {"hex": "47304402204db4ef2941a54e991443b1df6c0a2a3ed3489ad57b4147c8bd556da3b3878b8002200f92b2cc46001aadf65488f607e3d3960febeb20388b101b96bb91cbfe71b3b401210256176da3e843c1baaef016196fd80d6aef7f03cb5250d29343a525f9f42ed39a", "asm": "304402204db4ef2941a54e991443b1df6c0a2a3ed3489ad57b4147c8bd556da3b3878b8002200f92b2cc46001aadf65488f607e3d3960febeb20388b101b96bb91cbfe71b3b4[ALL] 0256176da3e843c1baaef016196fd80d6aef7f03cb5250d29343a525f9f42ed39a"}, "vout": 1, "txid": "9444fa44540dba6f7674de4623e294ec76ca692bbd193d00e1a0dd505cbc2c77"}], "txid": "1eb14c373e9839bfa186c10bf3155f195b5d90690a16295ad5788fb60fed9b6a", "blocktime": 1537870928, "version": 1, "confirmations": 11514, "time": 1537870928, "locktime": 0, "vsize": 223, "size": 223}