{"hash": "3728c3343d645e5ccb02ea9871ffd78fc544b4c0b0d68aea47cedabfe896d9fa", "blockhash": "0000000000000000001cda96e906b7601b7a6fb1a3b62bca570a9e5d8f4b3de1", "vout": [{"scriptPubKey": {"reqSigs": 1, "hex": "a914c8948f84ab8bc2187580e4fb86ecf2a0a06e11cf87", "addresses": ["3Kyb35jwJ7YCiAF7JRfW5VZdpyywKap5YB"], "asm": "OP_HASH160 c8948f84ab8bc2187580e4fb86ecf2a0a06e11cf OP_EQUAL", "type": "scripthash"}, "value": 3.856e-05, "n": 0}, {"scriptPubKey": {"reqSigs": 1, "hex": "a9141d7370ccde4590204155e4074f69743a8e4fac0287", "addresses": ["34Njp4ZKtmCDfqqps26wHBYQQGUo2pGkLi"], "asm": "OP_HASH160 1d7370ccde4590204155e4074f69743a8e4fac02 OP_EQUAL", "type": "scripthash"}, "value": 0.00010099, "n": 1}], "hex": "01000000000101992f7eba7ebcdcde4f6197241331686690c186d3222540c0431414a65f9d032a0100000023220020f63dfc12340f6360d0251c22746d6b56093e3243e96ca012a65484a5d9cf0ec0ffffffff02100f00000000000017a914c8948f84ab8bc2187580e4fb86ecf2a0a06e11cf87732700000000000017a9141d7370ccde4590204155e4074f69743a8e4fac02870400483045022100b2225505bd3dfbd322a23224f60264fe426beddec548fbed1132d9ced2c3c12302207b2e461ad16692b0534b33fb0a0805bf479488904adea34aac60f1a8c5c919a101483045022100cf12bddc0d3e5d314d83e4484843518a7b95d37c1d08a8a563237c2d89c1e43b02207c81f02f919427d9f8660d64393ed30f2baa0b3020758aabf165e804d24dcaea0147522102097067a6a0cc130a9a6f6577b47bf369b840a79de31cd7457187994266b1bb7c2103338f346cab6ba87fe940591a03ac234be06520c5ab386d4b6632e8eef0d0db7652ae00000000", "vin": [{"txinwitness": ["", "3045022100b2225505bd3dfbd322a23224f60264fe426beddec548fbed1132d9ced2c3c12302207b2e461ad16692b0534b33fb0a0805bf479488904adea34aac60f1a8c5c919a101", "3045022100cf12bddc0d3e5d314d83e4484843518a7b95d37c1d08a8a563237c2d89c1e43b02207c81f02f919427d9f8660d64393ed30f2baa0b3020758aabf165e804d24dcaea01", "522102097067a6a0cc130a9a6f6577b47bf369b840a79de31cd7457187994266b1bb7c2103338f346cab6ba87fe940591a03ac234be06520c5ab386d4b6632e8eef0d0db7652ae"], "sequence": 4294967295, "scriptSig": {"hex": "220020f63dfc12340f6360d0251c22746d6b56093e3243e96ca012a65484a5d9cf0ec0", "asm": "0020f63dfc12340f6360d0251c22746d6b56093e3243e96ca012a65484a5d9cf0ec0"}, "vout": 1, "txid": "2a039d5fa6141443c0402522d386c190666831132497614fdedcbc7eba7e2f99"}], "txid": "1eb58789ecbdd1040bf32a21313578d6ecb784fcf8a031ab5ddfda5cae6943e0", "blocktime": 1537873282, "version": 1, "confirmations": 11485, "time": 1537873282, "locktime": 0, "vsize": 206, "size": 372}