{"hash": "1eb7f6ba8470fea7e169e1ada4dbb231fa934e3e41138fd0c376517a81cd802f", "blockhash": "0000000000000000001e0dab787dd257d1dbfcb92a98c2207d5e1078be1f4165", "vout": [{"scriptPubKey": {"reqSigs": 1, "hex": "76a9147c595f1328960091f63adc5861064de37fc8f88b88ac", "addresses": ["1CLVrRM1D4VUgJSDAvNya18FpwbJ6mNULP"], "asm": "OP_DUP OP_HASH160 7c595f1328960091f63adc5861064de37fc8f88b OP_EQUALVERIFY OP_CHECKSIG", "type": "pubkeyhash"}, "value": 0.0064152, "n": 0}, {"scriptPubKey": {"type": "nulldata", "hex": "6a4c50000077ad00013516eda676666044e9c03069af6c953dd567cf27e7e3ef3236678a62509738932df316c04dc51f4e0885f1ba0b515baa10dd06122d089d1cee0d1d100759d4ba30d2c37bb011d97e02cf", "asm": "OP_RETURN 000077ad00013516eda676666044e9c03069af6c953dd567cf27e7e3ef3236678a62509738932df316c04dc51f4e0885f1ba0b515baa10dd06122d089d1cee0d1d100759d4ba30d2c37bb011d97e02cf"}, "value": 0.0, "n": 1}], "hex": "01000000017ab99f97caa6c3ee2c4e7c1b62088a75f3d014cacc8466872defb01b30929adb000000006a47304402200fd269219d9cebbfc4f19b53a0f82afa0450305f09cef37a97fb2a84752d0b8f022079200d81d7694a323d67196f3994328aac22bf14c22e4e88f0ccf457a7cbd0f101210219e7437226d97d4db9fa04b7f8ea9d2ce877e70b009366da0b709f29a6e85689ffffffff02f0c90900000000001976a9147c595f1328960091f63adc5861064de37fc8f88b88ac0000000000000000536a4c50000077ad00013516eda676666044e9c03069af6c953dd567cf27e7e3ef3236678a62509738932df316c04dc51f4e0885f1ba0b515baa10dd06122d089d1cee0d1d100759d4ba30d2c37bb011d97e02cf00000000", "vin": [{"sequence": 4294967295, "scriptSig": {"hex": "47304402200fd269219d9cebbfc4f19b53a0f82afa0450305f09cef37a97fb2a84752d0b8f022079200d81d7694a323d67196f3994328aac22bf14c22e4e88f0ccf457a7cbd0f101210219e7437226d97d4db9fa04b7f8ea9d2ce877e70b009366da0b709f29a6e85689", "asm": "304402200fd269219d9cebbfc4f19b53a0f82afa0450305f09cef37a97fb2a84752d0b8f022079200d81d7694a323d67196f3994328aac22bf14c22e4e88f0ccf457a7cbd0f1[ALL] 0219e7437226d97d4db9fa04b7f8ea9d2ce877e70b009366da0b709f29a6e85689"}, "vout": 0, "txid": "db9a92301bb0ef2d876684ccca14d0f3758a08621b7c4e2ceec3a6ca979fb97a"}], "txid": "1eb7f6ba8470fea7e169e1ada4dbb231fa934e3e41138fd0c376517a81cd802f", "blocktime": 1537872475, "version": 1, "confirmations": 11486, "time": 1537872475, "locktime": 0, "vsize": 283, "size": 283}