{"hash": "1eb9ffb5c6ae26fabce951edcf01921f7a1e50708104aa620ffc7558212f5fb8", "blockhash": "0000000000000000000baef3f32e3676a92c3b2e5da21b426e4f302fc371ce76", "vout": [{"scriptPubKey": {"reqSigs": 1, "hex": "76a9149e3bd01d87368e6ff22496c6d4e50cbae92b47b088ac", "addresses": ["1FRfRBnGFqvdcomPUoWsH5ioCWts7c9g6m"], "asm": "OP_DUP OP_HASH160 9e3bd01d87368e6ff22496c6d4e50cbae92b47b0 OP_EQUALVERIFY OP_CHECKSIG", "type": "pubkeyhash"}, "value": 0.00996953, "n": 0}], "hex": "0100000001e98f3b7859f57b2b097739543d976888eac21347bdcec0a4b27a1e1ce165cf81020000006b483045022100dfdb6fcfc4ec8b49d7c5f41bae955a88a104731357ca7a1d5a8e0e8abe343bc00220561049ab51d5a9065f3cf7890a2f0b18c14d805eb1d88507a052ecf4a94be886012102b884ec310fbc97c8bc4fd8266f58f803e8b43c6f6ad18034b1efba38b7a512e5ffffffff0159360f00000000001976a9149e3bd01d87368e6ff22496c6d4e50cbae92b47b088ac00000000", "vin": [{"sequence": 4294967295, "scriptSig": {"hex": "483045022100dfdb6fcfc4ec8b49d7c5f41bae955a88a104731357ca7a1d5a8e0e8abe343bc00220561049ab51d5a9065f3cf7890a2f0b18c14d805eb1d88507a052ecf4a94be886012102b884ec310fbc97c8bc4fd8266f58f803e8b43c6f6ad18034b1efba38b7a512e5", "asm": "3045022100dfdb6fcfc4ec8b49d7c5f41bae955a88a104731357ca7a1d5a8e0e8abe343bc00220561049ab51d5a9065f3cf7890a2f0b18c14d805eb1d88507a052ecf4a94be886[ALL] 02b884ec310fbc97c8bc4fd8266f58f803e8b43c6f6ad18034b1efba38b7a512e5"}, "vout": 2, "txid": "81cf65e11c1e7ab2a4c0cebd4713c2ea8868973d543977092b7bf559783b8fe9"}], "txid": "1eb9ffb5c6ae26fabce951edcf01921f7a1e50708104aa620ffc7558212f5fb8", "blocktime": 1537876114, "version": 1, "confirmations": 11460, "time": 1537876114, "locktime": 0, "vsize": 192, "size": 192}