{"hash": "1ec4cf474cbeecd4ffec405d31b7efc1d5645024c803f6c0ec0a1b7489646eff", "blockhash": "0000000000000000001cda96e906b7601b7a6fb1a3b62bca570a9e5d8f4b3de1", "vout": [{"scriptPubKey": {"reqSigs": 1, "hex": "76a91488a2204324564b4816115ff103e4c6bf0f11b99388ac", "addresses": ["1DTT7oYxYfB23SHzWRazj7V5vaDjAL9nUy"], "asm": "OP_DUP OP_HASH160 88a2204324564b4816115ff103e4c6bf0f11b993 OP_EQUALVERIFY OP_CHECKSIG", "type": "pubkeyhash"}, "value": 0.01999626, "n": 0}, {"scriptPubKey": {"reqSigs": 1, "hex": "76a9142588bcf6f14acbcf323b4eeeb6c525fd8e28abe388ac", "addresses": ["14RToqAgMKP3xV89t7G8TkBJgwAc6szSJy"], "asm": "OP_DUP OP_HASH160 2588bcf6f14acbcf323b4eeeb6c525fd8e28abe3 OP_EQUALVERIFY OP_CHECKSIG", "type": "pubkeyhash"}, "value": 0.02, "n": 1}], "hex": "01000000027003cdf86034622415bce4391cdd79b4634ed7ec7efb1009d484f6f9e6dc0821010000006b483045022100e7366cb3d293e2fbca058e4df89ebafd40b24d9f47a026f8cbf54ec6886d4538022056a84bce92d05dc1c73f3f2e2ca6133499e05bc373d71f111e2021abd3990de5012103f6ee0aa2d5c02293d67dea8ec2c828fe1f592204c0f36b8b750669b811782807feffffffbdf1b020a576babe0390c9366dcb6b10f073a7fb1d87d010e16e75b2a2514c6d000000006a47304402203921dc793b5acbca30985c61e604f7fd458f862ba37db312eda947056042e72f02202c7762440f56b8887afade75387c7c6005733fd00bc574c895350d8c33b14023012103f6ee0aa2d5c02293d67dea8ec2c828fe1f592204c0f36b8b750669b811782807feffffff020a831e00000000001976a91488a2204324564b4816115ff103e4c6bf0f11b99388ac80841e00000000001976a9142588bcf6f14acbcf323b4eeeb6c525fd8e28abe388ac13490800", "vin": [{"sequence": 4294967294, "scriptSig": {"hex": "483045022100e7366cb3d293e2fbca058e4df89ebafd40b24d9f47a026f8cbf54ec6886d4538022056a84bce92d05dc1c73f3f2e2ca6133499e05bc373d71f111e2021abd3990de5012103f6ee0aa2d5c02293d67dea8ec2c828fe1f592204c0f36b8b750669b811782807", "asm": "3045022100e7366cb3d293e2fbca058e4df89ebafd40b24d9f47a026f8cbf54ec6886d4538022056a84bce92d05dc1c73f3f2e2ca6133499e05bc373d71f111e2021abd3990de5[ALL] 03f6ee0aa2d5c02293d67dea8ec2c828fe1f592204c0f36b8b750669b811782807"}, "vout": 1, "txid": "2108dce6f9f684d40910fb7eecd74e63b479dd1c39e4bc1524623460f8cd0370"}, {"sequence": 4294967294, "scriptSig": {"hex": "47304402203921dc793b5acbca30985c61e604f7fd458f862ba37db312eda947056042e72f02202c7762440f56b8887afade75387c7c6005733fd00bc574c895350d8c33b14023012103f6ee0aa2d5c02293d67dea8ec2c828fe1f592204c0f36b8b750669b811782807", "asm": "304402203921dc793b5acbca30985c61e604f7fd458f862ba37db312eda947056042e72f02202c7762440f56b8887afade75387c7c6005733fd00bc574c895350d8c33b14023[ALL] 03f6ee0aa2d5c02293d67dea8ec2c828fe1f592204c0f36b8b750669b811782807"}, "vout": 0, "txid": "6d4c51a2b2756ee110d0871dfba773f0106bcb6d36c99003beba76a520b0f1bd"}], "txid": "1ec4cf474cbeecd4ffec405d31b7efc1d5645024c803f6c0ec0a1b7489646eff", "blocktime": 1537873282, "version": 1, "confirmations": 11485, "time": 1537873282, "locktime": 542995, "vsize": 373, "size": 373}