{"hash": "1ecf2b4d9cadd034598a5c0ca8cb2640993838ad554c033b2963ee39b98544f6", "blockhash": "000000000000000000022b45ed06c6f4ccd3cf7fb5ba4856ebd2e58215665228", "vout": [{"scriptPubKey": {"reqSigs": 1, "hex": "76a91457817e3620e0e88e6f5f5d1747478f78d039b04a88ac", "addresses": ["18ygv2FWPzf1ggETNPGeSVUxGMBpffEXL7"], "asm": "OP_DUP OP_HASH160 57817e3620e0e88e6f5f5d1747478f78d039b04a OP_EQUALVERIFY OP_CHECKSIG", "type": "pubkeyhash"}, "value": 6e-06, "n": 0}, {"scriptPubKey": {"reqSigs": 1, "hex": "76a914381ae8d089e0d3763b2d4ea369061660320b94c788ac", "addresses": ["167f5SfyVqge2w1J8ijRKpnABLfxX3Z193"], "asm": "OP_DUP OP_HASH160 381ae8d089e0d3763b2d4ea369061660320b94c7 OP_EQUALVERIFY OP_CHECKSIG", "type": "pubkeyhash"}, "value": 1.645e-05, "n": 1}], "hex": "01000000019a809ae71adb83650838149029420ea1d49b8b2b3cd0ce72c9c8c7b2d8d79109010000006b483045022100e7371741b4c10d010fd7e838d0eddb33a389f05c941c96e7b9c32ffb2c375fc102200835b897c1325b25e2dbca7f9e6870cb41f60f59c1e12fcfc7a8a8541351d7cc012102652d92a265c0862edc24b26a82bfa16dab86e752b5584f81ea418312a0757e69ffffffff0258020000000000001976a91457817e3620e0e88e6f5f5d1747478f78d039b04a88ac6d060000000000001976a914381ae8d089e0d3763b2d4ea369061660320b94c788ac00000000", "vin": [{"sequence": 4294967295, "scriptSig": {"hex": "483045022100e7371741b4c10d010fd7e838d0eddb33a389f05c941c96e7b9c32ffb2c375fc102200835b897c1325b25e2dbca7f9e6870cb41f60f59c1e12fcfc7a8a8541351d7cc012102652d92a265c0862edc24b26a82bfa16dab86e752b5584f81ea418312a0757e69", "asm": "3045022100e7371741b4c10d010fd7e838d0eddb33a389f05c941c96e7b9c32ffb2c375fc102200835b897c1325b25e2dbca7f9e6870cb41f60f59c1e12fcfc7a8a8541351d7cc[ALL] 02652d92a265c0862edc24b26a82bfa16dab86e752b5584f81ea418312a0757e69"}, "vout": 1, "txid": "0991d7d8b2c7c8c972ced03c2b8b9bd4a10e4229901438086583db1ae79a809a"}], "txid": "1ecf2b4d9cadd034598a5c0ca8cb2640993838ad554c033b2963ee39b98544f6", "blocktime": 1537869901, "version": 1, "confirmations": 11524, "time": 1537869901, "locktime": 0, "vsize": 226, "size": 226}