{"hash": "d1b36fd986c71d3354e177fab9b9aea5637e4f5f9dce99ecf0c39a771a185dc6", "blockhash": "00000000000000000004ffacab907a6b429b9a5745fa0b75af4234bf69dd7176", "vout": [{"scriptPubKey": {"reqSigs": 1, "hex": "a914ed99fba3cfb2957517a62474ade2c1e17323681787", "addresses": ["3PMLXvziTE5kdTd5hWM6bUobRbr4Mtq1cp"], "asm": "OP_HASH160 ed99fba3cfb2957517a62474ade2c1e173236817 OP_EQUAL", "type": "scripthash"}, "value": 0.02, "n": 0}, {"scriptPubKey": {"reqSigs": 1, "hex": "76a9147920c504611c138caff9d802ae6fa3225907154588ac", "addresses": ["1C3U25pTBMwnesB8F3kcYbBWE5oK4qHfQu"], "asm": "OP_DUP OP_HASH160 7920c504611c138caff9d802ae6fa32259071545 OP_EQUALVERIFY OP_CHECKSIG", "type": "pubkeyhash"}, "value": 0.009, "n": 1}, {"scriptPubKey": {"reqSigs": 1, "hex": "0020701a8d401c84fb13e6baf169d59684e17abd9fa216c8cc5b9fc63d622ff8c58d", "addresses": ["bc1qwqdg6squsna38e46795at95yu9atm8azzmyvckulcc7kytlcckxswvvzej"], "asm": "0 701a8d401c84fb13e6baf169d59684e17abd9fa216c8cc5b9fc63d622ff8c58d", "type": "witness_v0_scripthash"}, "value": 0.0875, "n": 2}], "hex": "01000000000101b90822c8b2578aadb7251ce9395d1a90be9330219814556ad32095bdaf9256560100000000ffffffff0380841e000000000017a914ed99fba3cfb2957517a62474ade2c1e17323681787a0bb0d00000000001976a9147920c504611c138caff9d802ae6fa3225907154588acb083850000000000220020701a8d401c84fb13e6baf169d59684e17abd9fa216c8cc5b9fc63d622ff8c58d040048304502210099577d55891fa501f746da88bad9186bf2421b6eeeaef475edd7c6450b6a72d802203e08c1ccd639cedb8d5516e71926dbb0625464172d9c4dc51365001a1d08176e0148304502210090880fd4d38bfdca548e93562cb517c001116e2f8c43621ffb9dc8b6dc9c16db02205c11bfafeca6ec591c2ba5ba9d145875f1a995ec05f68f7ce3cd735f4113ef51016952210375e00eb72e29da82b89367947f29ef34afb75e8654f6ea368e0acdfd92976b7c2103a1b26313f430c4b15bb1fdce663207659d8cac749a0e53d70eff01874496feff2103c96d495bfdd5ba4145e3e046fee45e84a8a48ad05bd8dbb395c011a32cf9f88053ae00000000", "vin": [{"txinwitness": ["", "304502210099577d55891fa501f746da88bad9186bf2421b6eeeaef475edd7c6450b6a72d802203e08c1ccd639cedb8d5516e71926dbb0625464172d9c4dc51365001a1d08176e01", "304502210090880fd4d38bfdca548e93562cb517c001116e2f8c43621ffb9dc8b6dc9c16db02205c11bfafeca6ec591c2ba5ba9d145875f1a995ec05f68f7ce3cd735f4113ef5101", "52210375e00eb72e29da82b89367947f29ef34afb75e8654f6ea368e0acdfd92976b7c2103a1b26313f430c4b15bb1fdce663207659d8cac749a0e53d70eff01874496feff2103c96d495bfdd5ba4145e3e046fee45e84a8a48ad05bd8dbb395c011a32cf9f88053ae"], "sequence": 4294967295, "scriptSig": {"hex": "", "asm": ""}, "vout": 1, "txid": "565692afbd9520d36a551498213093be901a5d39e91c25b7ad8a57b2c82208b9"}], "txid": "1ed10cb8fe1674c19ac10eb87a5400baa7beb57ac0c38bc77c777cdd0fbd0224", "blocktime": 1537875543, "version": 1, "confirmations": 11464, "time": 1537875543, "locktime": 0, "vsize": 224, "size": 416}