{"hash": "9bc68dea4ffe7d086af164c020ce45f28fadff628e046de66f6619d22bb44697", "blockhash": "000000000000000000022b45ed06c6f4ccd3cf7fb5ba4856ebd2e58215665228", "vout": [{"scriptPubKey": {"reqSigs": 1, "hex": "76a914abbc96b441907ae3458b92019b99d76ab83a78f188ac", "addresses": ["1Gf4UB8twLRciNthdssJDQHz27EkfdVekk"], "asm": "OP_DUP OP_HASH160 abbc96b441907ae3458b92019b99d76ab83a78f1 OP_EQUALVERIFY OP_CHECKSIG", "type": "pubkeyhash"}, "value": 0.00858798, "n": 0}, {"scriptPubKey": {"reqSigs": 1, "hex": "a914918a356eba979ac077eb2865847d25eaf999f5e287", "addresses": ["3ExZUGaeQiCYgwPBMyec8GfruGYgAJFWMo"], "asm": "OP_HASH160 918a356eba979ac077eb2865847d25eaf999f5e2 OP_EQUAL", "type": "scripthash"}, "value": 0.01002934, "n": 1}], "hex": "0200000000010358e2706306ae2a615e9f07932738aeb0ce33246bf50db557792a6577b81cd0260000000017160014137861a4ad3011053dd4dcbd5176128b297e1bb9fdffffffed24bf93b3a1fa87bd0a915faf7bd6d898c4cd9634f8c96ab41bf327cc33f0f69d0000006b483045022100f3a32751f4e65624476f485b0ed7e8f2b2ffd9632e94d88bdbae54087495520d02203061338660df0b1bb7224b7f0047508e0ba42d1b9e90b2683c031ce58e8082b5012103af89cef252b7258c9e69fed4198d8204ee17940c1c2be9e312b56bf62228946efdffffffed24bf93b3a1fa87bd0a915faf7bd6d898c4cd9634f8c96ab41bf327cc33f0f6500100006b483045022100e5d03a09efac880f22eba8428b149ab0b6ca4411a7a35b033b980d09a1cae273022042fa2d52be6bdfc9aa8b846afeef5aebba505e7d922a0f0973e6f8b2c9cf311b0121027272e9760357c01d3db1c3ea480e1c7735ee1068662b5e6b372e6d4db446d0a1fdffffff02ae1a0d00000000001976a914abbc96b441907ae3458b92019b99d76ab83a78f188acb64d0f000000000017a914918a356eba979ac077eb2865847d25eaf999f5e28702483045022100faac5dd6ba96d09230065643f6089960f00b47a66e75710947d874bb174e3b6602206f007d96c7babf7bf9b3d0036599f727de367f4f7e1b959ad0b3a4288d71489a01210258ac7e377bfd6cb2dda3c1c7b34e6556a5befd719cb803ea2f56d2ac12b2fb90000000000000", "vin": [{"txinwitness": ["3045022100faac5dd6ba96d09230065643f6089960f00b47a66e75710947d874bb174e3b6602206f007d96c7babf7bf9b3d0036599f727de367f4f7e1b959ad0b3a4288d71489a01", "0258ac7e377bfd6cb2dda3c1c7b34e6556a5befd719cb803ea2f56d2ac12b2fb90"], "sequence": 4294967293, "scriptSig": {"hex": "160014137861a4ad3011053dd4dcbd5176128b297e1bb9", "asm": "0014137861a4ad3011053dd4dcbd5176128b297e1bb9"}, "vout": 0, "txid": "26d01cb877652a7957b50df56b2433ceb0ae382793079f5e612aae066370e258"}, {"sequence": 4294967293, "scriptSig": {"hex": "483045022100f3a32751f4e65624476f485b0ed7e8f2b2ffd9632e94d88bdbae54087495520d02203061338660df0b1bb7224b7f0047508e0ba42d1b9e90b2683c031ce58e8082b5012103af89cef252b7258c9e69fed4198d8204ee17940c1c2be9e312b56bf62228946e", "asm": "3045022100f3a32751f4e65624476f485b0ed7e8f2b2ffd9632e94d88bdbae54087495520d02203061338660df0b1bb7224b7f0047508e0ba42d1b9e90b2683c031ce58e8082b5[ALL] 03af89cef252b7258c9e69fed4198d8204ee17940c1c2be9e312b56bf62228946e"}, "vout": 157, "txid": "f6f033cc27f31bb46ac9f83496cdc498d8d67baf5f910abd87faa1b393bf24ed"}, {"sequence": 4294967293, "scriptSig": {"hex": "483045022100e5d03a09efac880f22eba8428b149ab0b6ca4411a7a35b033b980d09a1cae273022042fa2d52be6bdfc9aa8b846afeef5aebba505e7d922a0f0973e6f8b2c9cf311b0121027272e9760357c01d3db1c3ea480e1c7735ee1068662b5e6b372e6d4db446d0a1", "asm": "3045022100e5d03a09efac880f22eba8428b149ab0b6ca4411a7a35b033b980d09a1cae273022042fa2d52be6bdfc9aa8b846afeef5aebba505e7d922a0f0973e6f8b2c9cf311b[ALL] 027272e9760357c01d3db1c3ea480e1c7735ee1068662b5e6b372e6d4db446d0a1"}, "vout": 336, "txid": "f6f033cc27f31bb46ac9f83496cdc498d8d67baf5f910abd87faa1b393bf24ed"}], "txid": "1ed7db3c962c589f8ae55ade980c2c1b768c11f47b225cb09f088b168412f2fa", "blocktime": 1537869901, "version": 2, "confirmations": 11523, "time": 1537869901, "locktime": 0, "vsize": 464, "size": 548}