{"hash": "1edb4715b88434b494a3a7e01e59ff9029cdcec4bef9a155d0cc598b0dd63418", "blockhash": "0000000000000000001cda96e906b7601b7a6fb1a3b62bca570a9e5d8f4b3de1", "vout": [{"scriptPubKey": {"reqSigs": 1, "hex": "a914788972659cf19efd27938cc193fd5d66449a2e8a87", "addresses": ["3CgMfYD17SYP7ddhUDrbpMUEabymcaFjH5"], "asm": "OP_HASH160 788972659cf19efd27938cc193fd5d66449a2e8a OP_EQUAL", "type": "scripthash"}, "value": 0.04141337, "n": 0}, {"scriptPubKey": {"reqSigs": 1, "hex": "a914a189089907db67884895f91e5bd1bb98cf49ff6f87", "addresses": ["3GR8sguabiZnC4ZkJ68TkzugQXPnUtr3SS"], "asm": "OP_HASH160 a189089907db67884895f91e5bd1bb98cf49ff6f OP_EQUAL", "type": "scripthash"}, "value": 0.00299448, "n": 1}], "hex": "0100000002c89fa01521def79fcf9145741011644e41216bf9a7ec33a53cfe311bbeb04cfe00000000fc0047304402200e4345755e2b5e7f710871920aa87ffa0cad6e7a8e26bb197b2cedfde7b342a8022074af19bbefb81b20d7224f449cb2bcc9cf2b1c37386925a55c3bc60093741fb70147304402201c8d70d836632a966287ed631f1ed2f346a0a5d9c62b0b098e8afe9a431575b8022066d1040dd5ccdaa6fa385b33163effb52aed3574ffa08beee7d3f5a3b37d4e8b014c695221031833cdddca1c64c2e9c785b6a0ec28d03584d23930f0569e1c80669928bc236a2102e672b2ae214978df88a8d58bff78ef86ba5483d9d4f037b1f4109fed95fe72132103063534a84a634913040ddca730b0748acbf1b4572b0f2dbd12a9bad1f301dab753aeffffffff2326f430754259b4b3eee6df1f95cb76589fb236caf071c9c7b78ebad185fe5b00000000fdfe0000483045022100cc329e1ec1f1edec2f04daa58147f1658a91e68d54fd5a8334f7b72d6a6823c6022013e878ccbbfc852d65893442a7fc0596a237dc1b25ed82778aa2597b301fd80d01483045022100dbad27f9dd97c7636f063085553f8560162816266fdfa5bda046a2300496c4ff02206e5b2d5ef27c509fa0549712450fadc997c7b475f8f60c4e8615eb22870cdbd4014c6952210270a0df2dd01a15b95b9ae99e6f64acaa52a16b951305de893b00e71e54f899102102960a529872ceac63a8e4779f001f5cf6cc33a5beb9e022224bdb38c07188f7f6210332606958785006accecf620356c3ad793aead5bbbd86b35413c47e7a2e3403f553aeffffffff0219313f000000000017a914788972659cf19efd27938cc193fd5d66449a2e8a87b89104000000000017a914a189089907db67884895f91e5bd1bb98cf49ff6f8700000000", "vin": [{"sequence": 4294967295, "scriptSig": {"hex": "0047304402200e4345755e2b5e7f710871920aa87ffa0cad6e7a8e26bb197b2cedfde7b342a8022074af19bbefb81b20d7224f449cb2bcc9cf2b1c37386925a55c3bc60093741fb70147304402201c8d70d836632a966287ed631f1ed2f346a0a5d9c62b0b098e8afe9a431575b8022066d1040dd5ccdaa6fa385b33163effb52aed3574ffa08beee7d3f5a3b37d4e8b014c695221031833cdddca1c64c2e9c785b6a0ec28d03584d23930f0569e1c80669928bc236a2102e672b2ae214978df88a8d58bff78ef86ba5483d9d4f037b1f4109fed95fe72132103063534a84a634913040ddca730b0748acbf1b4572b0f2dbd12a9bad1f301dab753ae", "asm": "0 304402200e4345755e2b5e7f710871920aa87ffa0cad6e7a8e26bb197b2cedfde7b342a8022074af19bbefb81b20d7224f449cb2bcc9cf2b1c37386925a55c3bc60093741fb7[ALL] 304402201c8d70d836632a966287ed631f1ed2f346a0a5d9c62b0b098e8afe9a431575b8022066d1040dd5ccdaa6fa385b33163effb52aed3574ffa08beee7d3f5a3b37d4e8b[ALL] 5221031833cdddca1c64c2e9c785b6a0ec28d03584d23930f0569e1c80669928bc236a2102e672b2ae214978df88a8d58bff78ef86ba5483d9d4f037b1f4109fed95fe72132103063534a84a634913040ddca730b0748acbf1b4572b0f2dbd12a9bad1f301dab753ae"}, "vout": 0, "txid": "fe4cb0be1b31fe3ca533eca7f96b21414e641110744591cf9ff7de2115a09fc8"}, {"sequence": 4294967295, "scriptSig": {"hex": "00483045022100cc329e1ec1f1edec2f04daa58147f1658a91e68d54fd5a8334f7b72d6a6823c6022013e878ccbbfc852d65893442a7fc0596a237dc1b25ed82778aa2597b301fd80d01483045022100dbad27f9dd97c7636f063085553f8560162816266fdfa5bda046a2300496c4ff02206e5b2d5ef27c509fa0549712450fadc997c7b475f8f60c4e8615eb22870cdbd4014c6952210270a0df2dd01a15b95b9ae99e6f64acaa52a16b951305de893b00e71e54f899102102960a529872ceac63a8e4779f001f5cf6cc33a5beb9e022224bdb38c07188f7f6210332606958785006accecf620356c3ad793aead5bbbd86b35413c47e7a2e3403f553ae", "asm": "0 3045022100cc329e1ec1f1edec2f04daa58147f1658a91e68d54fd5a8334f7b72d6a6823c6022013e878ccbbfc852d65893442a7fc0596a237dc1b25ed82778aa2597b301fd80d[ALL] 3045022100dbad27f9dd97c7636f063085553f8560162816266fdfa5bda046a2300496c4ff02206e5b2d5ef27c509fa0549712450fadc997c7b475f8f60c4e8615eb22870cdbd4[ALL] 52210270a0df2dd01a15b95b9ae99e6f64acaa52a16b951305de893b00e71e54f899102102960a529872ceac63a8e4779f001f5cf6cc33a5beb9e022224bdb38c07188f7f6210332606958785006accecf620356c3ad793aead5bbbd86b35413c47e7a2e3403f553ae"}, "vout": 0, "txid": "5bfe85d1ba8eb7c7c971f0ca36b29f5876cb951fdfe6eeb3b459427530f42623"}], "txid": "1edb4715b88434b494a3a7e01e59ff9029cdcec4bef9a155d0cc598b0dd63418", "blocktime": 1537873282, "version": 1, "confirmations": 11484, "time": 1537873282, "locktime": 0, "vsize": 664, "size": 664}