{"hash": "37859bd7246f36eb26a5237a8b8aefbdb2673d7850e9c8780d8cc22df64c1b1b", "blockhash": "0000000000000000000baef3f32e3676a92c3b2e5da21b426e4f302fc371ce76", "vout": [{"scriptPubKey": {"reqSigs": 1, "hex": "a9147631dbc7320084decf0a756724f835765f8a2ed287", "addresses": ["3CTyPQiEpuU9LVjSur1tJydK2YaUJpjf6N"], "asm": "OP_HASH160 7631dbc7320084decf0a756724f835765f8a2ed2 OP_EQUAL", "type": "scripthash"}, "value": 0.03385, "n": 0}, {"scriptPubKey": {"reqSigs": 1, "hex": "a914ab558e43f94c2cbb9570b27a0ef70c84ac77cb6587", "addresses": ["3HJwxrzT4i8uPm4pgCcvsk5NSWwGQXU4yp"], "asm": "OP_HASH160 ab558e43f94c2cbb9570b27a0ef70c84ac77cb65 OP_EQUAL", "type": "scripthash"}, "value": 1.66586437, "n": 1}], "hex": "01000000000101005c33e6d354b348f7edefaed4a7332d6241aa3bd07b3ae53b12ba9f4f23ad860000000023220020d07a0f8641c5fc908235d0de246bd64e50857293c46907d02d71c8f9f65bd9fdffffffff02a8a633000000000017a9147631dbc7320084decf0a756724f835765f8a2ed28745e8ed090000000017a914ab558e43f94c2cbb9570b27a0ef70c84ac77cb65870400483045022100b7c8e65c3a0d19b64fced820445fb6801dbaacb8c5f1a3f9eaf2850ee535e714022055980311c443f4fee5a7b0a4ac23baed61d6bcfc8affa12a73eec9edd29311a801483045022100da0f102c93513f9aaeb16d8fa173c604b202644b4f8e0351d073c382049adf0202206b6eb2c872c8765aba95261d917bac272ec3e849a35d553fbb923f7b5783cc7701695221022f1c944ae5ff6de396adab69110e26e453015681eec17e3c6757c7133fe812b32102b9ffed237eb84c6b4f41932a00ce4f45330f804894ec9a69a557739b3becfbc3210357ea5981ef859dd20ffa28e1a8f235e895c5077ed3e2f0cd5bb9732aea48d81453ae00000000", "vin": [{"txinwitness": ["", "3045022100b7c8e65c3a0d19b64fced820445fb6801dbaacb8c5f1a3f9eaf2850ee535e714022055980311c443f4fee5a7b0a4ac23baed61d6bcfc8affa12a73eec9edd29311a801", "3045022100da0f102c93513f9aaeb16d8fa173c604b202644b4f8e0351d073c382049adf0202206b6eb2c872c8765aba95261d917bac272ec3e849a35d553fbb923f7b5783cc7701", "5221022f1c944ae5ff6de396adab69110e26e453015681eec17e3c6757c7133fe812b32102b9ffed237eb84c6b4f41932a00ce4f45330f804894ec9a69a557739b3becfbc3210357ea5981ef859dd20ffa28e1a8f235e895c5077ed3e2f0cd5bb9732aea48d81453ae"], "sequence": 4294967295, "scriptSig": {"hex": "220020d07a0f8641c5fc908235d0de246bd64e50857293c46907d02d71c8f9f65bd9fd", "asm": "0020d07a0f8641c5fc908235d0de246bd64e50857293c46907d02d71c8f9f65bd9fd"}, "vout": 0, "txid": "86ad234f9fba123be53a7bd03baa41622d33a7d4aeefedf748b354d3e6335c00"}], "txid": "1edbdd6145970521999c7d92c27720c2e237794931d0d0cd0f5f4f7b38cc3dd8", "blocktime": 1537876114, "version": 1, "confirmations": 11460, "time": 1537876114, "locktime": 0, "vsize": 214, "size": 406}