{"hash": "519df091f57da2d9d216afa5041cec5e33bc873bbb01e344fb58e3a1e6d5db7e", "blockhash": "00000000000000000017f5eb5941039fbcee6240d03bc1f2f8e35350df66a1d8", "vout": [{"scriptPubKey": {"reqSigs": 1, "hex": "a914c7313f2d810f19e2cdf5b941502a31b0c71459fc87", "addresses": ["3KrFPSkfSVvm8ahyLWZXCayRNFVeRHjB8X"], "asm": "OP_HASH160 c7313f2d810f19e2cdf5b941502a31b0c71459fc OP_EQUAL", "type": "scripthash"}, "value": 0.01003621, "n": 0}, {"scriptPubKey": {"reqSigs": 1, "hex": "76a9149e13987671dc6e2f15c92c294037fe48fb89493388ac", "addresses": ["1FQqEqHBtbxJGctpQnjEqsypA7PbC7FoNy"], "asm": "OP_DUP OP_HASH160 9e13987671dc6e2f15c92c294037fe48fb894933 OP_EQUALVERIFY OP_CHECKSIG", "type": "pubkeyhash"}, "value": 0.0036996, "n": 1}], "hex": "020000000001020cc2da1b491cdea1a64d0bd560ae5ba0a9c43a3f285e87e07e8242f3922503920e00000017160014a554104dcf06452b66c089763270dde115d653a7feffffff19381c38406a818b79bb611fffbb46d02049ac46e86e84a4dbdbd900e3fde7110000000017160014a41f47c96bc8a5ef277a6c08b73d1ca419fad65ffeffffff0265500f000000000017a914c7313f2d810f19e2cdf5b941502a31b0c71459fc8728a50500000000001976a9149e13987671dc6e2f15c92c294037fe48fb89493388ac02473044022055cf7154dc885cacc252d99cd5cd38ccaaa2364a3728ee62318a851c44c0923802204cf3197014be8a9863b488fc71c33dcb215bda9d63bb26e32b8850771cbfe24d012102ad5d1f8aaf8cca7f930ffb388834ae92f67b56be8c07d65ec1d5d0b24d4330c302483045022100a4df9111d5d54884bce91b28fc5caa5f122d8d35e92fc6250bbaa63dcca831240220280f4590d2797bb367b852efc9c4bcc4fe0cf42c4c7175f2eeae0c33debf7a41012102d23d0acee6c44a99c5ce26191e19ff9aba0ee4c4738d2f2e77a48ebdb47a9e3515490800", "vin": [{"txinwitness": ["3044022055cf7154dc885cacc252d99cd5cd38ccaaa2364a3728ee62318a851c44c0923802204cf3197014be8a9863b488fc71c33dcb215bda9d63bb26e32b8850771cbfe24d01", "02ad5d1f8aaf8cca7f930ffb388834ae92f67b56be8c07d65ec1d5d0b24d4330c3"], "sequence": 4294967294, "scriptSig": {"hex": "160014a554104dcf06452b66c089763270dde115d653a7", "asm": "0014a554104dcf06452b66c089763270dde115d653a7"}, "vout": 14, "txid": "92032592f342827ee0875e283f3ac4a9a05bae60d50b4da6a1de1c491bdac20c"}, {"txinwitness": ["3045022100a4df9111d5d54884bce91b28fc5caa5f122d8d35e92fc6250bbaa63dcca831240220280f4590d2797bb367b852efc9c4bcc4fe0cf42c4c7175f2eeae0c33debf7a4101", "02d23d0acee6c44a99c5ce26191e19ff9aba0ee4c4738d2f2e77a48ebdb47a9e35"], "sequence": 4294967294, "scriptSig": {"hex": "160014a41f47c96bc8a5ef277a6c08b73d1ca419fad65f", "asm": "0014a41f47c96bc8a5ef277a6c08b73d1ca419fad65f"}, "vout": 0, "txid": "11e7fde300d9dbdba4846ee846ac4920d046bbff1f61bb798b816a40381c3819"}], "txid": "1ee16ba25da42be3510cb6983b5861a6ff97daeb9e7f9121cf187efa4a389fd8", "blocktime": 1537874412, "version": 2, "confirmations": 11468, "time": 1537874412, "locktime": 542997, "vsize": 259, "size": 421}