{"hash": "bb505c1a36376cbdd2db363ca5b08913ce18b1d5480a8655028b1b39d16ba97b", "blockhash": "000000000000000000022b45ed06c6f4ccd3cf7fb5ba4856ebd2e58215665228", "vout": [{"scriptPubKey": {"reqSigs": 1, "hex": "a9141d7370ccde4590204155e4074f69743a8e4fac0287", "addresses": ["34Njp4ZKtmCDfqqps26wHBYQQGUo2pGkLi"], "asm": "OP_HASH160 1d7370ccde4590204155e4074f69743a8e4fac02 OP_EQUAL", "type": "scripthash"}, "value": 0.00060667, "n": 0}], "hex": "0100000000010153c1f5f5ab2e18941b2b37b0e83f11b950b97374c71796f62424c777c1f9de57030000001716001412fc638f6c3a68e88c1db989cb7f543110579bbaffffffff01fbec00000000000017a9141d7370ccde4590204155e4074f69743a8e4fac02870247304402202794af2c14836e8dca65e54bcc6fcb86708e7f2229f8acd8ccb793e777ecb0aa02205d2e268bdd01228e2aa167be1e9c8c4da3bdaf8ee97b3ca4ceceea6726ebd3c8012102fe8ba04a8b9149f14aff8a3556034b362233f3c55da4d9390e450c752512bfcd00000000", "vin": [{"txinwitness": ["304402202794af2c14836e8dca65e54bcc6fcb86708e7f2229f8acd8ccb793e777ecb0aa02205d2e268bdd01228e2aa167be1e9c8c4da3bdaf8ee97b3ca4ceceea6726ebd3c801", "02fe8ba04a8b9149f14aff8a3556034b362233f3c55da4d9390e450c752512bfcd"], "sequence": 4294967295, "scriptSig": {"hex": "16001412fc638f6c3a68e88c1db989cb7f543110579bba", "asm": "001412fc638f6c3a68e88c1db989cb7f543110579bba"}, "vout": 3, "txid": "57def9c177c72424f69617c77473b950b9113fe8b0372b1b94182eabf5f5c153"}], "txid": "1ee202c1fe903ae88c0ab97d6fded0a9647b819afc0fe4737297c5cb51fd4570", "blocktime": 1537869901, "version": 1, "confirmations": 11523, "time": 1537869901, "locktime": 0, "vsize": 134, "size": 215}