{"hash": "1ef56acfbfaad0d24c9c92a232a0d30940cec377f3a112c49efc6fc5d3e00247", "blockhash": "0000000000000000001cda96e906b7601b7a6fb1a3b62bca570a9e5d8f4b3de1", "vout": [{"scriptPubKey": {"reqSigs": 1, "hex": "76a914e8b23fd856b8dcd112847eb9b45b60ba3bfa0cdb88ac", "addresses": ["1NDPJVQTiYZCHTQiPpbuR9CwqpuH2fwj6E"], "asm": "OP_DUP OP_HASH160 e8b23fd856b8dcd112847eb9b45b60ba3bfa0cdb OP_EQUALVERIFY OP_CHECKSIG", "type": "pubkeyhash"}, "value": 0.00100871, "n": 0}, {"scriptPubKey": {"reqSigs": 1, "hex": "76a9149c0d328369a56e95cdc6706aa815a7e99655af9488ac", "addresses": ["1FE8DthBUWajYQc6YmkqdM63WjYs3QzP8a"], "asm": "OP_DUP OP_HASH160 9c0d328369a56e95cdc6706aa815a7e99655af94 OP_EQUALVERIFY OP_CHECKSIG", "type": "pubkeyhash"}, "value": 0.03481932, "n": 1}], "hex": "01000000013752c0c84f50370c3e2fb3d42f63e54d51d5205b1e778e0318812bf6aaaa0054000000006b483045022100e8438d463ba11d016b3ba9fa9b7593307667c64d50d7d07bdea66bf0ae29f62e022018eec59c57c364ee797971a2d83602c47e2edbfd33346844333a1495bd83b2a30121023ea44ef64dce940d43667bb127ab04a89c2e7e3e98f84cd6bfb43b5e5ff7bc26ffffffff02078a0100000000001976a914e8b23fd856b8dcd112847eb9b45b60ba3bfa0cdb88ac4c213500000000001976a9149c0d328369a56e95cdc6706aa815a7e99655af9488ac00000000", "vin": [{"sequence": 4294967295, "scriptSig": {"hex": "483045022100e8438d463ba11d016b3ba9fa9b7593307667c64d50d7d07bdea66bf0ae29f62e022018eec59c57c364ee797971a2d83602c47e2edbfd33346844333a1495bd83b2a30121023ea44ef64dce940d43667bb127ab04a89c2e7e3e98f84cd6bfb43b5e5ff7bc26", "asm": "3045022100e8438d463ba11d016b3ba9fa9b7593307667c64d50d7d07bdea66bf0ae29f62e022018eec59c57c364ee797971a2d83602c47e2edbfd33346844333a1495bd83b2a3[ALL] 023ea44ef64dce940d43667bb127ab04a89c2e7e3e98f84cd6bfb43b5e5ff7bc26"}, "vout": 0, "txid": "5400aaaaf62b8118038e771e5b20d5514de5632fd4b32f3e0c37504fc8c05237"}], "txid": "1ef56acfbfaad0d24c9c92a232a0d30940cec377f3a112c49efc6fc5d3e00247", "blocktime": 1537873282, "version": 1, "confirmations": 11484, "time": 1537873282, "locktime": 0, "vsize": 226, "size": 226}