{"hash": "1efa9f8676c756a76f2e3b0b59344572e41002585d35ac2001dadcb526e6dd91", "blockhash": "00000000000000000004ffacab907a6b429b9a5745fa0b75af4234bf69dd7176", "vout": [{"scriptPubKey": {"reqSigs": 1, "hex": "76a91423aa28bf659125fdc46b9b5bd3262614ec25ae3c88ac", "addresses": ["14FaVafoExB6tcjMG3F3UetSPRj1K4Ux7t"], "asm": "OP_DUP OP_HASH160 23aa28bf659125fdc46b9b5bd3262614ec25ae3c OP_EQUALVERIFY OP_CHECKSIG", "type": "pubkeyhash"}, "value": 0.01432442, "n": 0}], "hex": "0100000001f766f253fcd3e6bde0439bcd2eb8f06ccc12d483cec7be3ddef6ec589e9e3c02000000006a473044022061da7306a4b595012ff73006d6cbce7d23c8e37234d6baede2b6ad55f89cc6ad02205a3e746396b45a1d86f7120b786c30c2d138fb42fb94db6b2502cbd9141c369b012103956cbf207cb9cbef5451518aae4c2d63b0daea0c62ce7cabe0f7a4ccf3398b23ffffffff017adb1500000000001976a91423aa28bf659125fdc46b9b5bd3262614ec25ae3c88ac00000000", "vin": [{"sequence": 4294967295, "scriptSig": {"hex": "473044022061da7306a4b595012ff73006d6cbce7d23c8e37234d6baede2b6ad55f89cc6ad02205a3e746396b45a1d86f7120b786c30c2d138fb42fb94db6b2502cbd9141c369b012103956cbf207cb9cbef5451518aae4c2d63b0daea0c62ce7cabe0f7a4ccf3398b23", "asm": "3044022061da7306a4b595012ff73006d6cbce7d23c8e37234d6baede2b6ad55f89cc6ad02205a3e746396b45a1d86f7120b786c30c2d138fb42fb94db6b2502cbd9141c369b[ALL] 03956cbf207cb9cbef5451518aae4c2d63b0daea0c62ce7cabe0f7a4ccf3398b23"}, "vout": 0, "txid": "023c9e9e58ecf6de3dbec7ce83d412cc6cf0b82ecd9b43e0bde6d3fc53f266f7"}], "txid": "1efa9f8676c756a76f2e3b0b59344572e41002585d35ac2001dadcb526e6dd91", "blocktime": 1537875543, "version": 1, "confirmations": 11464, "time": 1537875543, "locktime": 0, "vsize": 191, "size": 191}