{"hash": "1efdf661b086308e97829545c342e86826d6834e5361c524d52b2215048ed091", "blockhash": "000000000000000000022b45ed06c6f4ccd3cf7fb5ba4856ebd2e58215665228", "vout": [{"scriptPubKey": {"type": "nulldata", "hex": "6a4c5000007760000172dac894e56a771115d2ceea3a016b46dc7dc7d0968d120d670c1906f999943905847529ed097dd8ea8c866b9ee15baa07ad06126b00aec6aa311d100759d4ba30d2c37bb011d97e02cf", "asm": "OP_RETURN 00007760000172dac894e56a771115d2ceea3a016b46dc7dc7d0968d120d670c1906f999943905847529ed097dd8ea8c866b9ee15baa07ad06126b00aec6aa311d100759d4ba30d2c37bb011d97e02cf"}, "value": 0.0, "n": 0}, {"scriptPubKey": {"reqSigs": 1, "hex": "76a91488fbdf6e80dbb5ca3701d89052dc62f646107b8288ac", "addresses": ["1DVJdWxTu5HAwpExh7mpbry4Gz6DcthF4f"], "asm": "OP_DUP OP_HASH160 88fbdf6e80dbb5ca3701d89052dc62f646107b82 OP_EQUALVERIFY OP_CHECKSIG", "type": "pubkeyhash"}, "value": 0.00648756, "n": 1}], "hex": "01000000011edc53a8ae2557d69d411b6a417f6374b5f192b91637258d8ea6107f66ceee31000000006b483045022100e147e40b3df5ea82e64606498019f71056597e728d7ec833c0a4924ed9291ac902206fdd09a148a9dd3d63231983fbebb85e09232f0ed0b6cdec9c151515e8b2b19a01210276827a22bb2eed77f2ebe71927a38f03d4088885bf8f3420a8cd3255c78b8354ffffffff020000000000000000536a4c5000007760000172dac894e56a771115d2ceea3a016b46dc7dc7d0968d120d670c1906f999943905847529ed097dd8ea8c866b9ee15baa07ad06126b00aec6aa311d100759d4ba30d2c37bb011d97e02cf34e60900000000001976a91488fbdf6e80dbb5ca3701d89052dc62f646107b8288ac00000000", "vin": [{"sequence": 4294967295, "scriptSig": {"hex": "483045022100e147e40b3df5ea82e64606498019f71056597e728d7ec833c0a4924ed9291ac902206fdd09a148a9dd3d63231983fbebb85e09232f0ed0b6cdec9c151515e8b2b19a01210276827a22bb2eed77f2ebe71927a38f03d4088885bf8f3420a8cd3255c78b8354", "asm": "3045022100e147e40b3df5ea82e64606498019f71056597e728d7ec833c0a4924ed9291ac902206fdd09a148a9dd3d63231983fbebb85e09232f0ed0b6cdec9c151515e8b2b19a[ALL] 0276827a22bb2eed77f2ebe71927a38f03d4088885bf8f3420a8cd3255c78b8354"}, "vout": 0, "txid": "31eece667f10a68e8d253716b992f1b574637f416a1b419dd65725aea853dc1e"}], "txid": "1efdf661b086308e97829545c342e86826d6834e5361c524d52b2215048ed091", "blocktime": 1537869901, "version": 1, "confirmations": 11523, "time": 1537869901, "locktime": 0, "vsize": 284, "size": 284}