{"hash": "3f8f557386bb85672d00274eb591effdda3d82e93a82241705999e0930def939", "blockhash": "0000000000000000001f76057863aec43deb6fa401d9628bb513d65a8098bfab", "vout": [{"scriptPubKey": {"reqSigs": 1, "hex": "76a9149a1b8f9b1fa2d2297863adb1cb11c71df455684888ac", "addresses": ["1F3r5We2zwNiSzG6GQUTTWnnPMCz2HJbJu"], "asm": "OP_DUP OP_HASH160 9a1b8f9b1fa2d2297863adb1cb11c71df4556848 OP_EQUALVERIFY OP_CHECKSIG", "type": "pubkeyhash"}, "value": 2.686e-05, "n": 0}, {"scriptPubKey": {"reqSigs": 1, "hex": "a914e8db75c900cf08f06518e96d167331f2a4abfb3387", "addresses": ["3NvFbQMAkkqEFj4i1sYPPLkSWzxTFUchjA"], "asm": "OP_HASH160 e8db75c900cf08f06518e96d167331f2a4abfb33 OP_EQUAL", "type": "scripthash"}, "value": 0.00027018, "n": 1}], "hex": "01000000000102bf5edc1d22f0957da0fe713ae3796883ec3f3c323222200d9b4a9f60facebcb10000000023220020fdd23d707f55451c4e006c77b5e8df35a185a8e99f9bda70bf0ded7913bb1eb3ffffffff1b26468a49c6e31c18d1bab880534349514e873c7fbc323785ae909c266242960000000023220020941cfaff8837763dc1f69ff82b6d6553fdea17a41cfc29a04403293eedd8ccc7ffffffff027e0a0000000000001976a9149a1b8f9b1fa2d2297863adb1cb11c71df455684888ac8a6900000000000017a914e8db75c900cf08f06518e96d167331f2a4abfb33870400483045022100c0582a0ae0d7fcc7b14a845cf8b023382f884b6e4bdeaa3456c1c72ff43918fd02205e76ef5db6a35aac4f5f2d4b2cc5c029b69984988f57f51bbe0cfdcb657f40c901473044022071c0aa59a797d2028f4581a3f7b0e9e5b03661b74b56f9258b566f57f8e3962202200358d24a113189af2fc86099e2e3f14ab417fda4a6c62d9f23653d681a9ccb0c014752210286c104577b978160849865bc23f9a6df9b53d41c8ffb486754b97b2a474a181c2103148c80a5bdfddb05ff5bcffc397c8ca748d8b435ec6a175bc9d7bfc7fc6f853752ae0400473044022075ae99fc0e2f52d003ad8cf81d7f3e1b1c7a4614810409797458c305247dc40a022014fb7fec744eb763697102f573382d0f78d06b7f1ae26aff594d25a11189b3f6014730440220473bc0d42ef775ab8b48e53db1683a82fec60a6b57f890de1dc2bf9d1b5a558102204aa41a7e21194092bacf96c3ed2dacc14dd7acdaa3e3472a0e2282705cdc9ba40147522102531db3a5883f29bab4241dd0cd726936667bcda445d89bdd22244e828b6993342103148c80a5bdfddb05ff5bcffc397c8ca748d8b435ec6a175bc9d7bfc7fc6f853752ae00000000", "vin": [{"txinwitness": ["", "3045022100c0582a0ae0d7fcc7b14a845cf8b023382f884b6e4bdeaa3456c1c72ff43918fd02205e76ef5db6a35aac4f5f2d4b2cc5c029b69984988f57f51bbe0cfdcb657f40c901", "3044022071c0aa59a797d2028f4581a3f7b0e9e5b03661b74b56f9258b566f57f8e3962202200358d24a113189af2fc86099e2e3f14ab417fda4a6c62d9f23653d681a9ccb0c01", "52210286c104577b978160849865bc23f9a6df9b53d41c8ffb486754b97b2a474a181c2103148c80a5bdfddb05ff5bcffc397c8ca748d8b435ec6a175bc9d7bfc7fc6f853752ae"], "sequence": 4294967295, "scriptSig": {"hex": "220020fdd23d707f55451c4e006c77b5e8df35a185a8e99f9bda70bf0ded7913bb1eb3", "asm": "0020fdd23d707f55451c4e006c77b5e8df35a185a8e99f9bda70bf0ded7913bb1eb3"}, "vout": 0, "txid": "b1bccefa609f4a9b0d202232323c3fec836879e33a71fea07d95f0221ddc5ebf"}, {"txinwitness": ["", "3044022075ae99fc0e2f52d003ad8cf81d7f3e1b1c7a4614810409797458c305247dc40a022014fb7fec744eb763697102f573382d0f78d06b7f1ae26aff594d25a11189b3f601", "30440220473bc0d42ef775ab8b48e53db1683a82fec60a6b57f890de1dc2bf9d1b5a558102204aa41a7e21194092bacf96c3ed2dacc14dd7acdaa3e3472a0e2282705cdc9ba401", "522102531db3a5883f29bab4241dd0cd726936667bcda445d89bdd22244e828b6993342103148c80a5bdfddb05ff5bcffc397c8ca748d8b435ec6a175bc9d7bfc7fc6f853752ae"], "sequence": 4294967295, "scriptSig": {"hex": "220020941cfaff8837763dc1f69ff82b6d6553fdea17a41cfc29a04403293eedd8ccc7", "asm": "0020941cfaff8837763dc1f69ff82b6d6553fdea17a41cfc29a04403293eedd8ccc7"}, "vout": 0, "txid": "964262269c90ae853732bc7f3c874e5149435380b8bad1181ce3c6498a46261b"}], "txid": "1efd1d8d964eed94b469e2497ace3437f2c6b24e84c688e17de61549c278d79e", "blocktime": 1537873891, "version": 1, "confirmations": 11478, "time": 1537873891, "locktime": 0, "vsize": 338, "size": 667}