{"hash": "1eff60e9c31053fde77b3071f002b4bf41bcb3a4312c33e8b616610bf6b6c2d2", "blockhash": "0000000000000000001e0dab787dd257d1dbfcb92a98c2207d5e1078be1f4165", "vout": [{"scriptPubKey": {"reqSigs": 1, "hex": "76a91480e4565a4ee9ecafd4b64d9a1402563faa112c8e88ac", "addresses": ["1CkX2i8Shci7Qh4naa6KEhbWx7mgDhBuNu"], "asm": "OP_DUP OP_HASH160 80e4565a4ee9ecafd4b64d9a1402563faa112c8e OP_EQUALVERIFY OP_CHECKSIG", "type": "pubkeyhash"}, "value": 0.02848922, "n": 0}, {"scriptPubKey": {"reqSigs": 1, "hex": "76a914260834e21fe675d3bc9bf569f0f9dd60732863a688ac", "addresses": ["14U6WVZU9D4MbKT9vVG15tVBuuw8ELWmDQ"], "asm": "OP_DUP OP_HASH160 260834e21fe675d3bc9bf569f0f9dd60732863a6 OP_EQUALVERIFY OP_CHECKSIG", "type": "pubkeyhash"}, "value": 0.03598238, "n": 1}], "hex": "010000000181ef5b688b20cd967f8b5818f2f0898723de17b478bb3c14f2705cfdef86897a000000006b483045022100f6fa27c968573a2a6d0d2e1175174bf51b6a79def0d12f1753936974d8c8486f022033e7b221ef0cff8a0ef134ff26d66e9ef934e0e8be9568ba8bd537e0e1e559390121032a119597f0909ac73a1a6f7a92663510d475ce08f33ccfc0bce4b5ee66d33eb6fdffffff029a782b00000000001976a91480e4565a4ee9ecafd4b64d9a1402563faa112c8e88ac9ee73600000000001976a914260834e21fe675d3bc9bf569f0f9dd60732863a688ac12490800", "vin": [{"sequence": 4294967293, "scriptSig": {"hex": "483045022100f6fa27c968573a2a6d0d2e1175174bf51b6a79def0d12f1753936974d8c8486f022033e7b221ef0cff8a0ef134ff26d66e9ef934e0e8be9568ba8bd537e0e1e559390121032a119597f0909ac73a1a6f7a92663510d475ce08f33ccfc0bce4b5ee66d33eb6", "asm": "3045022100f6fa27c968573a2a6d0d2e1175174bf51b6a79def0d12f1753936974d8c8486f022033e7b221ef0cff8a0ef134ff26d66e9ef934e0e8be9568ba8bd537e0e1e55939[ALL] 032a119597f0909ac73a1a6f7a92663510d475ce08f33ccfc0bce4b5ee66d33eb6"}, "vout": 0, "txid": "7a8986effd5c70f2143cbb78b417de238789f0f218588b7f96cd208b685bef81"}], "txid": "1eff60e9c31053fde77b3071f002b4bf41bcb3a4312c33e8b616610bf6b6c2d2", "blocktime": 1537872475, "version": 1, "confirmations": 11486, "time": 1537872475, "locktime": 542994, "vsize": 226, "size": 226}