{"hash": "894f727a893446bd76f5bb51796e3c8c804e55cf707593343b75e841c2e12f08", "blockhash": "0000000000000000001f76057863aec43deb6fa401d9628bb513d65a8098bfab", "vout": [{"scriptPubKey": {"reqSigs": 1, "hex": "a914b44337f216fcdcf0a5895a72e8c4169a68ef293e87", "addresses": ["3J8A5VuG2KUQmCweiwHBDfv67VqWTciCM2"], "asm": "OP_HASH160 b44337f216fcdcf0a5895a72e8c4169a68ef293e OP_EQUAL", "type": "scripthash"}, "value": 0.00108824, "n": 0}], "hex": "0100000000010152f71a1ca5b4cea44b497f1ae96ef34523d5da5c4a1d3208003a5e68d5d5ab44010000001716001401f46ef8313fac7d4a7a55681ba9e208328d94a1ffffffff0118a901000000000017a914b44337f216fcdcf0a5895a72e8c4169a68ef293e870247304402205560de118fb9aa9d6970504bf760dd92558f1302b85e532117e474236d8ae0cb022057098d156d70444f8f1902a345d6c9e517dd1755ec42008a011b6144cfae3be701210383600d1c7eae2560aef9c21f41bd67c224f6189cb075fda2c86af6fcdf87752300000000", "vin": [{"txinwitness": ["304402205560de118fb9aa9d6970504bf760dd92558f1302b85e532117e474236d8ae0cb022057098d156d70444f8f1902a345d6c9e517dd1755ec42008a011b6144cfae3be701", "0383600d1c7eae2560aef9c21f41bd67c224f6189cb075fda2c86af6fcdf877523"], "sequence": 4294967295, "scriptSig": {"hex": "16001401f46ef8313fac7d4a7a55681ba9e208328d94a1", "asm": "001401f46ef8313fac7d4a7a55681ba9e208328d94a1"}, "vout": 1, "txid": "44abd5d5685e3a0008321d4a5cdad52345f36ee91a7f494ba4ceb4a51c1af752"}], "txid": "1f07d4355c5cf06019539439fb7749e750b1963fc681183c0d59b289a8471697", "blocktime": 1537873891, "version": 1, "confirmations": 11478, "time": 1537873891, "locktime": 0, "vsize": 134, "size": 215}