{"hash": "1f08b5c408544b967a4ad74f3cf62743b3308639a34f0082e48e7b098cf7271a", "blockhash": "00000000000000000017f5eb5941039fbcee6240d03bc1f2f8e35350df66a1d8", "vout": [{"scriptPubKey": {"reqSigs": 1, "hex": "a914322171b25919285faf34843dc3f3d7c92be7ab0887", "addresses": ["36G5msePZHn1n6wDpR7N1gz5EHJ8XBDZUe"], "asm": "OP_HASH160 322171b25919285faf34843dc3f3d7c92be7ab08 OP_EQUAL", "type": "scripthash"}, "value": 0.02188926, "n": 0}, {"scriptPubKey": {"reqSigs": 1, "hex": "76a914e1c45a3d7092f7e437c990b86910590f2364124f88ac", "addresses": ["1MakFyRE67vEBvw4GhGLmbuZAB2HKvuJgM"], "asm": "OP_DUP OP_HASH160 e1c45a3d7092f7e437c990b86910590f2364124f OP_EQUALVERIFY OP_CHECKSIG", "type": "pubkeyhash"}, "value": 1.99552982, "n": 1}], "hex": "01000000018114613e79bf605a57c6d88c18fd639ac01b8a6031b0df13322801eb6e45a6d8010000006b483045022100e464caa5d5b146578cdf0053c3207c315b7f2923b97e9b5cb452bcdda7d29815022038f9702d8ef33b72d7bc00c8d6349ae341d28a14205ecc6df826f3f83ce37869012102d47bda4540669abb2f1b3c4904170439f2c1227511d584d0c425e83b3d26bf17ffffffff027e6621000000000017a914322171b25919285faf34843dc3f3d7c92be7ab0887d6efe40b000000001976a914e1c45a3d7092f7e437c990b86910590f2364124f88ac00000000", "vin": [{"sequence": 4294967295, "scriptSig": {"hex": "483045022100e464caa5d5b146578cdf0053c3207c315b7f2923b97e9b5cb452bcdda7d29815022038f9702d8ef33b72d7bc00c8d6349ae341d28a14205ecc6df826f3f83ce37869012102d47bda4540669abb2f1b3c4904170439f2c1227511d584d0c425e83b3d26bf17", "asm": "3045022100e464caa5d5b146578cdf0053c3207c315b7f2923b97e9b5cb452bcdda7d29815022038f9702d8ef33b72d7bc00c8d6349ae341d28a14205ecc6df826f3f83ce37869[ALL] 02d47bda4540669abb2f1b3c4904170439f2c1227511d584d0c425e83b3d26bf17"}, "vout": 1, "txid": "d8a6456eeb01283213dfb031608a1bc09a63fd188cd8c6575a60bf793e611481"}], "txid": "1f08b5c408544b967a4ad74f3cf62743b3308639a34f0082e48e7b098cf7271a", "blocktime": 1537874412, "version": 1, "confirmations": 11468, "time": 1537874412, "locktime": 0, "vsize": 224, "size": 224}