{"hash": "1f0d430cca5441fd251afe2be26f19d617b855574e3c12ab86ee68b7a7217ce4", "blockhash": "000000000000000000022b45ed06c6f4ccd3cf7fb5ba4856ebd2e58215665228", "vout": [{"scriptPubKey": {"reqSigs": 1, "hex": "76a9141885500776e272cbb7ae425e1363727b313adebc88ac", "addresses": ["13EevKx7y3JAZjj8CfrsMFufHjsi38mwXr"], "asm": "OP_DUP OP_HASH160 1885500776e272cbb7ae425e1363727b313adebc OP_EQUALVERIFY OP_CHECKSIG", "type": "pubkeyhash"}, "value": 0.0025, "n": 0}, {"scriptPubKey": {"reqSigs": 1, "hex": "76a91490375901061d460542efbda03b4178e282173c0d88ac", "addresses": ["1E9YcFLib2mD5CF3efXGaPn73XPbJF2fyC"], "asm": "OP_DUP OP_HASH160 90375901061d460542efbda03b4178e282173c0d OP_EQUALVERIFY OP_CHECKSIG", "type": "pubkeyhash"}, "value": 0.01352527, "n": 1}], "hex": "0100000001a2a713ded56c7ef7a81ca484581e082341713130b3be76f7d8ec2362e887a454050000006b4830450221008a2363936e4af2a9196a6ba082d256b6a5921e49877f782b6a1fcff961d47135022009582897030de1d6a46af36f9de6a706c9a8fe5131610c27cbbbb8fe763c8ad10121020d047a3566575c2d53d3cbda78c7287471b023586a111be66dc99a8f486ff33affffffff0290d00300000000001976a9141885500776e272cbb7ae425e1363727b313adebc88ac4fa31400000000001976a91490375901061d460542efbda03b4178e282173c0d88ac00000000", "vin": [{"sequence": 4294967295, "scriptSig": {"hex": "4830450221008a2363936e4af2a9196a6ba082d256b6a5921e49877f782b6a1fcff961d47135022009582897030de1d6a46af36f9de6a706c9a8fe5131610c27cbbbb8fe763c8ad10121020d047a3566575c2d53d3cbda78c7287471b023586a111be66dc99a8f486ff33a", "asm": "30450221008a2363936e4af2a9196a6ba082d256b6a5921e49877f782b6a1fcff961d47135022009582897030de1d6a46af36f9de6a706c9a8fe5131610c27cbbbb8fe763c8ad1[ALL] 020d047a3566575c2d53d3cbda78c7287471b023586a111be66dc99a8f486ff33a"}, "vout": 5, "txid": "54a487e86223ecd8f776beb33031714123081e5884a41ca8f77e6cd5de13a7a2"}], "txid": "1f0d430cca5441fd251afe2be26f19d617b855574e3c12ab86ee68b7a7217ce4", "blocktime": 1537869901, "version": 1, "confirmations": 11524, "time": 1537869901, "locktime": 0, "vsize": 226, "size": 226}