{"hash": "d10eee29bdc0f4f50f3c74ce967da8f29ce8d407f1daf69b852cdb867e088b1e", "blockhash": "00000000000000000004ffacab907a6b429b9a5745fa0b75af4234bf69dd7176", "vout": [{"scriptPubKey": {"reqSigs": 1, "hex": "a91465443fc7b20f52b15a84cf5c73c28ffa9174128387", "addresses": ["3AvTvxB1JSHf3DfxrUAPDu4cePpLBCGtwd"], "asm": "OP_HASH160 65443fc7b20f52b15a84cf5c73c28ffa91741283 OP_EQUAL", "type": "scripthash"}, "value": 0.00998495, "n": 0}, {"scriptPubKey": {"reqSigs": 1, "hex": "76a9141c02639f58d4805c2dc55728941bb0eba9465a5e88ac", "addresses": ["13Z6nNbUaAxq5T1Fo6Xn1cQPwXZdSgPJEM"], "asm": "OP_DUP OP_HASH160 1c02639f58d4805c2dc55728941bb0eba9465a5e OP_EQUALVERIFY OP_CHECKSIG", "type": "pubkeyhash"}, "value": 0.0132965, "n": 1}], "hex": "0200000000010140ab3bb63e47883258527e2798006ca9e091a2b7f1400a888572e6a85a3338ee01000000171600146f4e1dd77564b6eaa352056c3f43ad776372301efeffffff025f3c0f000000000017a91465443fc7b20f52b15a84cf5c73c28ffa9174128387f2491400000000001976a9141c02639f58d4805c2dc55728941bb0eba9465a5e88ac02483045022100ab78b5170f139df05702e00998a3f394763900e326be234aa64ecade9f3e844e02207835aac04e99d1bbb28ddcce320e60e13c7dd2d28a75882af2ce23f9929e399c0121029c2cdba9d499f94c7d7b3c8dde68412e54a364766aedf254eba602398068ae8516490800", "vin": [{"txinwitness": ["3045022100ab78b5170f139df05702e00998a3f394763900e326be234aa64ecade9f3e844e02207835aac04e99d1bbb28ddcce320e60e13c7dd2d28a75882af2ce23f9929e399c01", "029c2cdba9d499f94c7d7b3c8dde68412e54a364766aedf254eba602398068ae85"], "sequence": 4294967294, "scriptSig": {"hex": "1600146f4e1dd77564b6eaa352056c3f43ad776372301e", "asm": "00146f4e1dd77564b6eaa352056c3f43ad776372301e"}, "vout": 1, "txid": "ee38335aa8e67285880a40f1b7a291e0a96c0098277e52583288473eb63bab40"}], "txid": "1f14b3190d28680cb02f0d73dd06bc19247b1c8241f0416cfc0a961c3106df8b", "blocktime": 1537875543, "version": 2, "confirmations": 11464, "time": 1537875543, "locktime": 542998, "vsize": 168, "size": 250}