{"hash": "bdeb9b038fdc93fdca4f60e3b732faa1547e435116c88a93c4cd89d5010ed731", "blockhash": "000000000000000000022b45ed06c6f4ccd3cf7fb5ba4856ebd2e58215665228", "vout": [{"scriptPubKey": {"reqSigs": 1, "hex": "a91477b80b6813d9d84b36c44c4a1a02ecd4f17ecb6a87", "addresses": ["3Cc2p1dAJMovXo5BjXJB2AVaj3jnFPYudH"], "asm": "OP_HASH160 77b80b6813d9d84b36c44c4a1a02ecd4f17ecb6a OP_EQUAL", "type": "scripthash"}, "value": 0.00999754, "n": 0}, {"scriptPubKey": {"reqSigs": 1, "hex": "76a9142e1b944fe7ffbe969fc1df8d662fd7b5d6303c9b88ac", "addresses": ["15Co856cRnFRCKwSSzECoyT3ozVhuFoJZ6"], "asm": "OP_DUP OP_HASH160 2e1b944fe7ffbe969fc1df8d662fd7b5d6303c9b OP_EQUALVERIFY OP_CHECKSIG", "type": "pubkeyhash"}, "value": 0.0030846, "n": 1}], "hex": "020000000001025bd36b2dc43cb314ecfc1cd88b47f98815ca415fbc2ae8077257c30bb3eec0830100000017160014b00d7acd100996a571cdd8fad04d04bd9dc5b0cefeffffff8ec7e8e12b54d0be2d93f5ba419c9b2b3f0e355ea4b8624ca5d1f6f3e798bc080b000000171600144a12a83bd07daa0c53f1181bc6f4602baa8aa0d4feffffff024a410f000000000017a91477b80b6813d9d84b36c44c4a1a02ecd4f17ecb6a87ecb40400000000001976a9142e1b944fe7ffbe969fc1df8d662fd7b5d6303c9b88ac02473044022050b236f4c934ee1bbd00346fc9b801d65534da206a52db251018842c4896451a02205bb6590faa1c737d2f0e04993eb62a725d20ce848dbba15098cc932d4c12428d012103c4d0b9daf678710a88d63f053e16466948ba7b0411301f3ca684cceed146562c024730440220023c0441ecf6e1357c7a9797c0a136802a5f288035b9925279e2a4ddee87568002200f3d1aa8c813d10f83fa9cb59970b03ad833572eab73a26bb5b9a09be07492300121024aa94a9e0662be729525345b0186f0281b1a9a0431187ea2ea29b8f860a3d0e7f9480800", "vin": [{"txinwitness": ["3044022050b236f4c934ee1bbd00346fc9b801d65534da206a52db251018842c4896451a02205bb6590faa1c737d2f0e04993eb62a725d20ce848dbba15098cc932d4c12428d01", "03c4d0b9daf678710a88d63f053e16466948ba7b0411301f3ca684cceed146562c"], "sequence": 4294967294, "scriptSig": {"hex": "160014b00d7acd100996a571cdd8fad04d04bd9dc5b0ce", "asm": "0014b00d7acd100996a571cdd8fad04d04bd9dc5b0ce"}, "vout": 1, "txid": "83c0eeb30bc3577207e82abc5f41ca1588f9478bd81cfcec14b33cc42d6bd35b"}, {"txinwitness": ["30440220023c0441ecf6e1357c7a9797c0a136802a5f288035b9925279e2a4ddee87568002200f3d1aa8c813d10f83fa9cb59970b03ad833572eab73a26bb5b9a09be074923001", "024aa94a9e0662be729525345b0186f0281b1a9a0431187ea2ea29b8f860a3d0e7"], "sequence": 4294967294, "scriptSig": {"hex": "1600144a12a83bd07daa0c53f1181bc6f4602baa8aa0d4", "asm": "00144a12a83bd07daa0c53f1181bc6f4602baa8aa0d4"}, "vout": 11, "txid": "08bc98e7f3f6d1a54c62b8a45e350e3f2b9b9c41baf5932dbed0542be1e8c78e"}], "txid": "1f14453a5153cfd36df25567f1a0b75ca054dabc145b89e9dc9a8c84066f4130", "blocktime": 1537869901, "version": 2, "confirmations": 11524, "time": 1537869901, "locktime": 542969, "vsize": 258, "size": 420}