{"hash": "1f1a861f9ba6a5cc911a3ebcb535e023d89a7558e8879839004bfdf1b31b7d67", "blockhash": "0000000000000000000e13cef7c366c0283d82e591d1acd082e914b08063cdf1", "vout": [{"scriptPubKey": {"reqSigs": 1, "hex": "76a9149d2e527ab2ad1a71ed106c09609839feb1d00ac588ac", "addresses": ["1FL6ae5Fb4bnSLmQquBAMJZFHotVMBht7a"], "asm": "OP_DUP OP_HASH160 9d2e527ab2ad1a71ed106c09609839feb1d00ac5 OP_EQUALVERIFY OP_CHECKSIG", "type": "pubkeyhash"}, "value": 0.00312022, "n": 0}, {"scriptPubKey": {"reqSigs": 1, "hex": "76a9145fda109524fcc70348d330e7a6b3ea6736a5218288ac", "addresses": ["19jpRdYmJksNDfrqNzcxajxnTpTeUDNFxM"], "asm": "OP_DUP OP_HASH160 5fda109524fcc70348d330e7a6b3ea6736a52182 OP_EQUALVERIFY OP_CHECKSIG", "type": "pubkeyhash"}, "value": 0.02483, "n": 1}], "hex": "01000000017a68f8e0deaf19980a72432448a51ebfd1bce69db33f80f151add0c187bac0ed000000006a47304402206a3370a2ef5eb6b037934584658cd0aa5f5e7f7be4760c2e7bd3961dff706e31022073f3f82ade86e21e29a1293243ea8459aef92c9d11cde1856e344977fbc83e630121021b49e7fa40711c1afee19aa45f0ec1233daae8d27045e8b123592f8c45c0848cffffffff02d6c20400000000001976a9149d2e527ab2ad1a71ed106c09609839feb1d00ac588ac38e32500000000001976a9145fda109524fcc70348d330e7a6b3ea6736a5218288ac00000000", "vin": [{"sequence": 4294967295, "scriptSig": {"hex": "47304402206a3370a2ef5eb6b037934584658cd0aa5f5e7f7be4760c2e7bd3961dff706e31022073f3f82ade86e21e29a1293243ea8459aef92c9d11cde1856e344977fbc83e630121021b49e7fa40711c1afee19aa45f0ec1233daae8d27045e8b123592f8c45c0848c", "asm": "304402206a3370a2ef5eb6b037934584658cd0aa5f5e7f7be4760c2e7bd3961dff706e31022073f3f82ade86e21e29a1293243ea8459aef92c9d11cde1856e344977fbc83e63[ALL] 021b49e7fa40711c1afee19aa45f0ec1233daae8d27045e8b123592f8c45c0848c"}, "vout": 0, "txid": "edc0ba87c1d0ad51f1803fb39de6bcd1bf1ea5482443720a9819afdee0f8687a"}], "txid": "1f1a861f9ba6a5cc911a3ebcb535e023d89a7558e8879839004bfdf1b31b7d67", "blocktime": 1537871767, "version": 1, "confirmations": 11495, "time": 1537871767, "locktime": 0, "vsize": 225, "size": 225}