{"hash": "1f1b371b1b515de3404489c670d81a24752dcdbb38258b8d1502e88bc40ea92b", "blockhash": "0000000000000000001f76057863aec43deb6fa401d9628bb513d65a8098bfab", "vout": [{"scriptPubKey": {"reqSigs": 1, "hex": "76a914cbf6a64d95033b1af7d6a97fc12ea748c17168cf88ac", "addresses": ["1KbTeTYiegKw2so8QTZ4MqzAb5wvdb76nD"], "asm": "OP_DUP OP_HASH160 cbf6a64d95033b1af7d6a97fc12ea748c17168cf OP_EQUALVERIFY OP_CHECKSIG", "type": "pubkeyhash"}, "value": 0.00249808, "n": 0}, {"scriptPubKey": {"reqSigs": 1, "hex": "76a914cbd92c99c69b62f37c946756a511f0f5957d4d5e88ac", "addresses": ["1KarLUKWBB8GkgW3t2QowcKVByHu3PtFeM"], "asm": "OP_DUP OP_HASH160 cbd92c99c69b62f37c946756a511f0f5957d4d5e OP_EQUALVERIFY OP_CHECKSIG", "type": "pubkeyhash"}, "value": 0.04713574, "n": 1}], "hex": "010000000164181d9f1321e02800c83ed80a91d3e6bca862dd411c7c4ffff077e81d9abbdc010000006b483045022100ddf14b75de4e8123dccded4d65de287c021bd4d8d70cb105bef7ea49bc76caa8022064ee3583ea0e6124f9abe031db0c1cd331d3d803c5ffa03e67da6fe2dd8daac0012102c2d0415e2fe2c1010da22c3726967f862a6338528abc4b9f6a2323f4a302b61cffffffff02d0cf0300000000001976a914cbf6a64d95033b1af7d6a97fc12ea748c17168cf88ac66ec4700000000001976a914cbd92c99c69b62f37c946756a511f0f5957d4d5e88ac00000000", "vin": [{"sequence": 4294967295, "scriptSig": {"hex": "483045022100ddf14b75de4e8123dccded4d65de287c021bd4d8d70cb105bef7ea49bc76caa8022064ee3583ea0e6124f9abe031db0c1cd331d3d803c5ffa03e67da6fe2dd8daac0012102c2d0415e2fe2c1010da22c3726967f862a6338528abc4b9f6a2323f4a302b61c", "asm": "3045022100ddf14b75de4e8123dccded4d65de287c021bd4d8d70cb105bef7ea49bc76caa8022064ee3583ea0e6124f9abe031db0c1cd331d3d803c5ffa03e67da6fe2dd8daac0[ALL] 02c2d0415e2fe2c1010da22c3726967f862a6338528abc4b9f6a2323f4a302b61c"}, "vout": 1, "txid": "dcbb9a1de877f0ff4f7c1c41dd62a8bce6d3910ad83ec80028e021139f1d1864"}], "txid": "1f1b371b1b515de3404489c670d81a24752dcdbb38258b8d1502e88bc40ea92b", "blocktime": 1537873891, "version": 1, "confirmations": 11475, "time": 1537873891, "locktime": 0, "vsize": 226, "size": 226}