{"hash": "1f21fb96f1b81cf81929f7e68c5a40b1885aaf0733f538d4339ed2c81161f378", "blockhash": "0000000000000000000dcc0f55137456b1a82d3642486a52398922ac4d620174", "vout": [{"scriptPubKey": {"reqSigs": 1, "hex": "76a914b2c200a3a9ef6ed4bebc22976995377bccf77a9588ac", "addresses": ["1HJBggBrTc3bBBz4uNmfB6nYZwGujQzXE1"], "asm": "OP_DUP OP_HASH160 b2c200a3a9ef6ed4bebc22976995377bccf77a95 OP_EQUALVERIFY OP_CHECKSIG", "type": "pubkeyhash"}, "value": 0.00561453, "n": 0}, {"scriptPubKey": {"reqSigs": 1, "hex": "76a914dd2929c7f878931f5d0359f7785ed11de526ad6088ac", "addresses": ["1MAPeTvzFU8u3w9MgybHY8BPPLgdixyrAg"], "asm": "OP_DUP OP_HASH160 dd2929c7f878931f5d0359f7785ed11de526ad60 OP_EQUALVERIFY OP_CHECKSIG", "type": "pubkeyhash"}, "value": 0.02906655, "n": 1}], "hex": "020000000257b8387b4a95122a44ef2bce261b5ad371ee3a6d2b962085f6e58ea693843d9b010000006b4830450221009ae0305ab25dc42305ffed1930a30157233041741570ef5eab7c652395ee2f2c02202e4a2707df1479068a7e3ccad3637c826f25a9a9359afb79fb6450655e6558ef0121036bd207b4647593e0d23713bf7790d96ef94e67b67100db2c35e1e064789a49f6ffffffff5fd069e1b570738b8a77c0344c9196213eb15bd73f912331dc4c001577ebfa0e010000006a473044022067ad3014ecf0e1ae773545ca624f40555d9fcebee7c17c4fe7df31906d52686702207560781216cf3a14d18b83f8a362bfee51ef8aa277d19e2ea7ce978d74a3bc9e0121036bd207b4647593e0d23713bf7790d96ef94e67b67100db2c35e1e064789a49f6ffffffff022d910800000000001976a914b2c200a3a9ef6ed4bebc22976995377bccf77a9588ac1f5a2c00000000001976a914dd2929c7f878931f5d0359f7785ed11de526ad6088ac00000000", "vin": [{"sequence": 4294967295, "scriptSig": {"hex": "4830450221009ae0305ab25dc42305ffed1930a30157233041741570ef5eab7c652395ee2f2c02202e4a2707df1479068a7e3ccad3637c826f25a9a9359afb79fb6450655e6558ef0121036bd207b4647593e0d23713bf7790d96ef94e67b67100db2c35e1e064789a49f6", "asm": "30450221009ae0305ab25dc42305ffed1930a30157233041741570ef5eab7c652395ee2f2c02202e4a2707df1479068a7e3ccad3637c826f25a9a9359afb79fb6450655e6558ef[ALL] 036bd207b4647593e0d23713bf7790d96ef94e67b67100db2c35e1e064789a49f6"}, "vout": 1, "txid": "9b3d8493a68ee5f68520962b6d3aee71d35a1b26ce2bef442a12954a7b38b857"}, {"sequence": 4294967295, "scriptSig": {"hex": "473044022067ad3014ecf0e1ae773545ca624f40555d9fcebee7c17c4fe7df31906d52686702207560781216cf3a14d18b83f8a362bfee51ef8aa277d19e2ea7ce978d74a3bc9e0121036bd207b4647593e0d23713bf7790d96ef94e67b67100db2c35e1e064789a49f6", "asm": "3044022067ad3014ecf0e1ae773545ca624f40555d9fcebee7c17c4fe7df31906d52686702207560781216cf3a14d18b83f8a362bfee51ef8aa277d19e2ea7ce978d74a3bc9e[ALL] 036bd207b4647593e0d23713bf7790d96ef94e67b67100db2c35e1e064789a49f6"}, "vout": 1, "txid": "0efaeb7715004cdc3123913fd75bb13e2196914c34c0778a8b7370b5e169d05f"}], "txid": "1f21fb96f1b81cf81929f7e68c5a40b1885aaf0733f538d4339ed2c81161f378", "blocktime": 1537870268, "version": 2, "confirmations": 11516, "time": 1537870268, "locktime": 0, "vsize": 373, "size": 373}