{"hash": "59cb51b73961c450e0459f0261b85370509ca07f9ff516f6dd168256d6c3e523", "blockhash": "000000000000000000022b45ed06c6f4ccd3cf7fb5ba4856ebd2e58215665228", "vout": [{"scriptPubKey": {"reqSigs": 1, "hex": "001463a6d4a940a142cd16dcaf04dfc9a8befc5b244e", "addresses": ["bc1qvwndf22q59pv69ku4uzdljdghm79kfzw0j7arp"], "asm": "0 63a6d4a940a142cd16dcaf04dfc9a8befc5b244e", "type": "witness_v0_keyhash"}, "value": 0.00015332, "n": 0}, {"scriptPubKey": {"reqSigs": 1, "hex": "76a91497ab8baba9665b6a9b075599940496c4bfaabfc388ac", "addresses": ["1EpxYAShbU5YS7dFCEdhaiZHkPw9cABCWE"], "asm": "OP_DUP OP_HASH160 97ab8baba9665b6a9b075599940496c4bfaabfc3 OP_EQUALVERIFY OP_CHECKSIG", "type": "pubkeyhash"}, "value": 0.00169284, "n": 1}], "hex": "01000000000101343db19db02f1c39ab237685cf67a2a6c4f46761e2b583378428a183fbe404b00100000000ffffffff02e43b00000000000016001463a6d4a940a142cd16dcaf04dfc9a8befc5b244e44950200000000001976a91497ab8baba9665b6a9b075599940496c4bfaabfc388ac02483045022100ffa83452b94d6e0156b5dfbb9adbb5ea0e88fff20e93f29b1abe21d22cf9222702207afc50566dd2b9deadf6c684a7c881dd023518c543da68a6554f9f33256a562e0121026720b8d553e75ebf401c121ec4702b905f214ad30d1c864d9f61c5979af251d300000000", "vin": [{"txinwitness": ["3045022100ffa83452b94d6e0156b5dfbb9adbb5ea0e88fff20e93f29b1abe21d22cf9222702207afc50566dd2b9deadf6c684a7c881dd023518c543da68a6554f9f33256a562e01", "026720b8d553e75ebf401c121ec4702b905f214ad30d1c864d9f61c5979af251d3"], "sequence": 4294967295, "scriptSig": {"hex": "", "asm": ""}, "vout": 1, "txid": "b004e4fb83a128843783b5e26167f4c4a6a267cf857623ab391c2fb09db13d34"}], "txid": "1f24f866007b395abcb8eb2b9cb44bfa406416406730a146c90465f89b9237dd", "blocktime": 1537869901, "version": 1, "confirmations": 11523, "time": 1537869901, "locktime": 0, "vsize": 144, "size": 226}