{"hash": "ee60d67dd5b33ea4e989884e2d90f8818fdc1eea9c2c8f666ddf50770fc99a28", "blockhash": "00000000000000000018f53835495a110e01622372bf6ae95dc86f2b0ab887b0", "vout": [{"scriptPubKey": {"reqSigs": 1, "hex": "a914144e7e077be55c7cf4b6a645e2a8b6c785cafd9e87", "addresses": ["33YPU7ycfBN8R4SU68DEQYKCd3kraJ6N2P"], "asm": "OP_HASH160 144e7e077be55c7cf4b6a645e2a8b6c785cafd9e OP_EQUAL", "type": "scripthash"}, "value": 0.00998589, "n": 0}, {"scriptPubKey": {"reqSigs": 1, "hex": "76a91407280985183f4042f8f130056a57a091c1ef6b3688ac", "addresses": ["1eqhBArQvQWtHgCo6HCTGH71NPcbeosH4"], "asm": "OP_DUP OP_HASH160 07280985183f4042f8f130056a57a091c1ef6b36 OP_EQUALVERIFY OP_CHECKSIG", "type": "pubkeyhash"}, "value": 0.0020349, "n": 1}], "hex": "02000000000101ec727f3cb62caa2489ea5827184eb97a6f403a4fd089ab0461c4434f3ff2b1bb00000000171600147e095228dd6a4299763ac0b9bae660b29f736e13feffffff02bd3c0f000000000017a914144e7e077be55c7cf4b6a645e2a8b6c785cafd9e87e21a0300000000001976a91407280985183f4042f8f130056a57a091c1ef6b3688ac02473044022020457a17be1c661234242876da860c3e0a49f1753f4bd36f20ad23d31ce297e402206890cec51de6e87d71155e6a2e936d22e7f1a7bd9de5636463df7e9976cfe83a012103abe8bf477685ed7927d27721f2a11291449eba9c966163366f7a155c8940d3870e490800", "vin": [{"txinwitness": ["3044022020457a17be1c661234242876da860c3e0a49f1753f4bd36f20ad23d31ce297e402206890cec51de6e87d71155e6a2e936d22e7f1a7bd9de5636463df7e9976cfe83a01", "03abe8bf477685ed7927d27721f2a11291449eba9c966163366f7a155c8940d387"], "sequence": 4294967294, "scriptSig": {"hex": "1600147e095228dd6a4299763ac0b9bae660b29f736e13", "asm": "00147e095228dd6a4299763ac0b9bae660b29f736e13"}, "vout": 0, "txid": "bbb1f23f4f43c46104ab89d04f3a406f7ab94e182758ea8924aa2cb63c7f72ec"}], "txid": "1f333ca3aa3577d432814166b9556015c7fcf4b26c49c9eca6aa9491aebd242c", "blocktime": 1537870928, "version": 2, "confirmations": 11512, "time": 1537870928, "locktime": 542990, "vsize": 168, "size": 249}