{"hash": "1f35d9b6673a26db5e3ce3c7d1cd43c09fbc10ec677c09fe6dea09861b4f5fcc", "blockhash": "00000000000000000018f53835495a110e01622372bf6ae95dc86f2b0ab887b0", "vout": [{"scriptPubKey": {"reqSigs": 1, "hex": "76a914e0acb7581ad8b8b0121ca47b8f6dd4ec57ba1dd788ac", "addresses": ["1MUyGW4s3Q3zoJX8oJWNUTEEzSb9Hujid2"], "asm": "OP_DUP OP_HASH160 e0acb7581ad8b8b0121ca47b8f6dd4ec57ba1dd7 OP_EQUALVERIFY OP_CHECKSIG", "type": "pubkeyhash"}, "value": 4.629e-05, "n": 0}, {"scriptPubKey": {"reqSigs": 1, "hex": "a9146bedc4c5b219d12154bf78756914aa3c11f57e8987", "addresses": ["3BXh4XNW8LVrJiZycnMnuJYKvfFTHZUoEd"], "asm": "OP_HASH160 6bedc4c5b219d12154bf78756914aa3c11f57e89 OP_EQUAL", "type": "scripthash"}, "value": 0.0010934, "n": 1}], "hex": "01000000019f26ebe32cf53a3b628666eacc77d8506c0edac7cac1f728a61deceef1e2d912000000006a473044022014ec58c44de265efd819159dba6b29e6e6ff6532e3c7cc7263dfb83875cc78c3022051839b8ce5eb58d5a4102d3984aa7cc2c6e2162df81724e434eb1a1bea8dd656012102e0069d84aeafebfbb4f2e6b707dee43db26a29caae07744549bfca03bb13fe32ffffffff0215120000000000001976a914e0acb7581ad8b8b0121ca47b8f6dd4ec57ba1dd788ac1cab01000000000017a9146bedc4c5b219d12154bf78756914aa3c11f57e898700000000", "vin": [{"sequence": 4294967295, "scriptSig": {"hex": "473044022014ec58c44de265efd819159dba6b29e6e6ff6532e3c7cc7263dfb83875cc78c3022051839b8ce5eb58d5a4102d3984aa7cc2c6e2162df81724e434eb1a1bea8dd656012102e0069d84aeafebfbb4f2e6b707dee43db26a29caae07744549bfca03bb13fe32", "asm": "3044022014ec58c44de265efd819159dba6b29e6e6ff6532e3c7cc7263dfb83875cc78c3022051839b8ce5eb58d5a4102d3984aa7cc2c6e2162df81724e434eb1a1bea8dd656[ALL] 02e0069d84aeafebfbb4f2e6b707dee43db26a29caae07744549bfca03bb13fe32"}, "vout": 0, "txid": "12d9e2f1eeec1da628f7c1cac7da0e6c50d877ccea6686623b3af52ce3eb269f"}], "txid": "1f35d9b6673a26db5e3ce3c7d1cd43c09fbc10ec677c09fe6dea09861b4f5fcc", "blocktime": 1537870928, "version": 1, "confirmations": 11514, "time": 1537870928, "locktime": 0, "vsize": 223, "size": 223}