{"hash": "1f4900b6cb992009275686aca78b6efdbb0251e31a24a7f94cb664b05df2f6dc", "blockhash": "0000000000000000001f76057863aec43deb6fa401d9628bb513d65a8098bfab", "vout": [{"scriptPubKey": {"reqSigs": 1, "hex": "a9147387909398d1d151b8ae468b5ca913de7bc867e687", "addresses": ["3CDt2oqadrcJL6TmQDp5s1UVsfftra4hg6"], "asm": "OP_HASH160 7387909398d1d151b8ae468b5ca913de7bc867e6 OP_EQUAL", "type": "scripthash"}, "value": 0.00269458, "n": 0}, {"scriptPubKey": {"reqSigs": 1, "hex": "76a914c9ccbacf4746d414ff62101465ff1f859e7e8ed088ac", "addresses": ["1KQ25RrqbXKEQszJGuAfQ6dkiFRTuncbAz"], "asm": "OP_DUP OP_HASH160 c9ccbacf4746d414ff62101465ff1f859e7e8ed0 OP_EQUALVERIFY OP_CHECKSIG", "type": "pubkeyhash"}, "value": 0.12186915, "n": 1}], "hex": "0100000001ad6a5d16595cf824b17dc2d18b99a0d44cd7eadf4395696de20f9197dc37eb29010000006b48304502210087614f335e07a87bfd75b9ea65769c87f9cce135e82d37517fbdae5889c030a702202e2e772f9d195a190b670e4c1b7edce030b05bd7872009b10da93b7842e16610012102f957489973dc34034e764e34c3dd34b0641406d6116d22e19872cc18910d28ecffffffff02921c04000000000017a9147387909398d1d151b8ae468b5ca913de7bc867e68723f5b900000000001976a914c9ccbacf4746d414ff62101465ff1f859e7e8ed088ac00000000", "vin": [{"sequence": 4294967295, "scriptSig": {"hex": "48304502210087614f335e07a87bfd75b9ea65769c87f9cce135e82d37517fbdae5889c030a702202e2e772f9d195a190b670e4c1b7edce030b05bd7872009b10da93b7842e16610012102f957489973dc34034e764e34c3dd34b0641406d6116d22e19872cc18910d28ec", "asm": "304502210087614f335e07a87bfd75b9ea65769c87f9cce135e82d37517fbdae5889c030a702202e2e772f9d195a190b670e4c1b7edce030b05bd7872009b10da93b7842e16610[ALL] 02f957489973dc34034e764e34c3dd34b0641406d6116d22e19872cc18910d28ec"}, "vout": 1, "txid": "29eb37dc97910fe26d699543dfead74cd4a0998bd1c27db124f85c59165d6aad"}], "txid": "1f4900b6cb992009275686aca78b6efdbb0251e31a24a7f94cb664b05df2f6dc", "blocktime": 1537873891, "version": 1, "confirmations": 11475, "time": 1537873891, "locktime": 0, "vsize": 224, "size": 224}