{"hash": "1f4b76becae347b9807067f60eb18c34f425d2c07f65bdbc4e20e98206d590ef", "blockhash": "0000000000000000000dcc0f55137456b1a82d3642486a52398922ac4d620174", "vout": [{"scriptPubKey": {"reqSigs": 1, "hex": "76a914189417c7c2ff1f199fc582f54d47d48282a6016e88ac", "addresses": ["13ExdH9hSEXGPVAcUtLaEp4qeKVpKtYNJv"], "asm": "OP_DUP OP_HASH160 189417c7c2ff1f199fc582f54d47d48282a6016e OP_EQUALVERIFY OP_CHECKSIG", "type": "pubkeyhash"}, "value": 0.00215174, "n": 0}, {"scriptPubKey": {"reqSigs": 1, "hex": "76a9147d062f9d43eae2f359ad8f96d69cd304a8e6b6c388ac", "addresses": ["1CQ4snmjmPVT1siGNKGrXMRLGwebbinLCM"], "asm": "OP_DUP OP_HASH160 7d062f9d43eae2f359ad8f96d69cd304a8e6b6c3 OP_EQUALVERIFY OP_CHECKSIG", "type": "pubkeyhash"}, "value": 2.376e-05, "n": 1}], "hex": "01000000011b5aa8e7bf2b67d80391e51c32d50d0482ed8eda826a11b12274548be9464898040000006b483045022100cddd9860aa179779721e76e688f79253c4a02dcd74b44d42bad3cad97b84769802202ea71a5827e1be35b7f2103fe9bce5ee696a30dba57f0248b1ed2eef3f2ac76e0121026ac0581cd92907fa9bf0988245ea9136c7f900c6dd5205060a52efd2a99b8bc1ffffffff0286480300000000001976a914189417c7c2ff1f199fc582f54d47d48282a6016e88ac48090000000000001976a9147d062f9d43eae2f359ad8f96d69cd304a8e6b6c388ac00000000", "vin": [{"sequence": 4294967295, "scriptSig": {"hex": "483045022100cddd9860aa179779721e76e688f79253c4a02dcd74b44d42bad3cad97b84769802202ea71a5827e1be35b7f2103fe9bce5ee696a30dba57f0248b1ed2eef3f2ac76e0121026ac0581cd92907fa9bf0988245ea9136c7f900c6dd5205060a52efd2a99b8bc1", "asm": "3045022100cddd9860aa179779721e76e688f79253c4a02dcd74b44d42bad3cad97b84769802202ea71a5827e1be35b7f2103fe9bce5ee696a30dba57f0248b1ed2eef3f2ac76e[ALL] 026ac0581cd92907fa9bf0988245ea9136c7f900c6dd5205060a52efd2a99b8bc1"}, "vout": 4, "txid": "984846e98b547422b1116a82da8eed82040dd5321ce59103d8672bbfe7a85a1b"}], "txid": "1f4b76becae347b9807067f60eb18c34f425d2c07f65bdbc4e20e98206d590ef", "blocktime": 1537870268, "version": 1, "confirmations": 11516, "time": 1537870268, "locktime": 0, "vsize": 226, "size": 226}