{"hash": "995f81937b9a41299e6c8f4d66e597ead58d984b053838b4c59ea85560c65628", "blockhash": "0000000000000000000e13cef7c366c0283d82e591d1acd082e914b08063cdf1", "vout": [{"scriptPubKey": {"reqSigs": 1, "hex": "001436eda8141d9977392d0057ae65efbdb7ca3ec61f", "addresses": ["bc1qxmk6s9qan9mnjtgq27hxtmaakl9ra3slndsl0d"], "asm": "0 36eda8141d9977392d0057ae65efbdb7ca3ec61f", "type": "witness_v0_keyhash"}, "value": 0.00099164, "n": 0}, {"scriptPubKey": {"reqSigs": 1, "hex": "a91463f942386c7be0fb639d75eb015049f9b198e2fa87", "addresses": ["3AodRLATu89QunCNn8spTZGWRAUALUsK6u"], "asm": "OP_HASH160 63f942386c7be0fb639d75eb015049f9b198e2fa OP_EQUAL", "type": "scripthash"}, "value": 0.01569962, "n": 1}], "hex": "010000000001011059a793ec2caf482c137f505575f7a543f834d7dcbd54270e58a451a6ee15d601000000171600148c64e4a1c6335bd6fa731144933fce038dce3024ffffffff025c8301000000000016001436eda8141d9977392d0057ae65efbdb7ca3ec61faaf417000000000017a91463f942386c7be0fb639d75eb015049f9b198e2fa870247304402206c82cdb60b529c6c8bd2b2125c3ab541c93c36e509fcaec4b976bed27134e9b2022031232fe95fa7f2f8d086be2b5e13f8e8e0807f74101fd272439b55a93cd02c7001210385e5764a47dec4df0628acd23e567ded420d46d71f7dbd10b06f57106b1717b700000000", "vin": [{"txinwitness": ["304402206c82cdb60b529c6c8bd2b2125c3ab541c93c36e509fcaec4b976bed27134e9b2022031232fe95fa7f2f8d086be2b5e13f8e8e0807f74101fd272439b55a93cd02c7001", "0385e5764a47dec4df0628acd23e567ded420d46d71f7dbd10b06f57106b1717b7"], "sequence": 4294967295, "scriptSig": {"hex": "1600148c64e4a1c6335bd6fa731144933fce038dce3024", "asm": "00148c64e4a1c6335bd6fa731144933fce038dce3024"}, "vout": 1, "txid": "d615eea651a4580e2754bddcd734f843a5f77555507f132c48af2cec93a75910"}], "txid": "1f4b05eb2cf5092adab0a294a6a6091a1c00123c8d7dbafdbd7171134990fd1b", "blocktime": 1537871767, "version": 1, "confirmations": 11495, "time": 1537871767, "locktime": 0, "vsize": 165, "size": 246}