{"hash": "1f4c7d4521ff22ff6246a39415355c4a048a12c24fc452526acc348c8562c788", "blockhash": "000000000000000000022b45ed06c6f4ccd3cf7fb5ba4856ebd2e58215665228", "vout": [{"scriptPubKey": {"reqSigs": 1, "hex": "a914460913539c4d93ddfee706740c978b3df33d184f87", "addresses": ["385L6YkjNHypQxdRPDA2mtpdd9GDTctuoJ"], "asm": "OP_HASH160 460913539c4d93ddfee706740c978b3df33d184f OP_EQUAL", "type": "scripthash"}, "value": 0.0077955, "n": 0}, {"scriptPubKey": {"reqSigs": 1, "hex": "76a9149542c71c63a22f0bd9856528e42244e07e996d8c88ac", "addresses": ["1EcDgPGpxgipzEURoaHHdnmSd6bodoqT4p"], "asm": "OP_DUP OP_HASH160 9542c71c63a22f0bd9856528e42244e07e996d8c OP_EQUALVERIFY OP_CHECKSIG", "type": "pubkeyhash"}, "value": 0.03982428, "n": 1}], "hex": "0100000001fa321e0e548c6e457ae36a03b0563156fe03ce0740e21f84d6fca86cb8ae9d0e010000006a47304402207bb04fb8778dca60e432f06b99dc15d70997f599edea301f4c13cad573a7fc2a022022af0dfbb192a91d47262bec003d07ef818585e06881560538c90d903fa8398201210236ff858296cb035cd4dea6cd993226532553068a9e57f5bdfc5c55756af541c2ffffffff021ee50b000000000017a914460913539c4d93ddfee706740c978b3df33d184f875cc43c00000000001976a9149542c71c63a22f0bd9856528e42244e07e996d8c88ac00000000", "vin": [{"sequence": 4294967295, "scriptSig": {"hex": "47304402207bb04fb8778dca60e432f06b99dc15d70997f599edea301f4c13cad573a7fc2a022022af0dfbb192a91d47262bec003d07ef818585e06881560538c90d903fa8398201210236ff858296cb035cd4dea6cd993226532553068a9e57f5bdfc5c55756af541c2", "asm": "304402207bb04fb8778dca60e432f06b99dc15d70997f599edea301f4c13cad573a7fc2a022022af0dfbb192a91d47262bec003d07ef818585e06881560538c90d903fa83982[ALL] 0236ff858296cb035cd4dea6cd993226532553068a9e57f5bdfc5c55756af541c2"}, "vout": 1, "txid": "0e9daeb86ca8fcd6841fe24007ce03fe563156b0036ae37a456e8c540e1e32fa"}], "txid": "1f4c7d4521ff22ff6246a39415355c4a048a12c24fc452526acc348c8562c788", "blocktime": 1537869901, "version": 1, "confirmations": 11523, "time": 1537869901, "locktime": 0, "vsize": 223, "size": 223}