{"hash": "871a5025af05beed653515b2ceeb9379154b935cf0935dc0378e14ac7cf6aef7", "blockhash": "0000000000000000001e0dab787dd257d1dbfcb92a98c2207d5e1078be1f4165", "vout": [{"scriptPubKey": {"reqSigs": 1, "hex": "76a9141f080479a6374f086d816a62bd1f8aef4b0e32db88ac", "addresses": ["13q5Z1eMZrGe79DrNRai8htCgtggYF8jET"], "asm": "OP_DUP OP_HASH160 1f080479a6374f086d816a62bd1f8aef4b0e32db OP_EQUALVERIFY OP_CHECKSIG", "type": "pubkeyhash"}, "value": 0.0005, "n": 0}, {"scriptPubKey": {"reqSigs": 1, "hex": "76a91454c18af3144cdbc0b561a11bb4ea7a3d0950fe8e88ac", "addresses": ["18j9chg6i3CnUnaDJgCo4uS4vePmckhpiy"], "asm": "OP_DUP OP_HASH160 54c18af3144cdbc0b561a11bb4ea7a3d0950fe8e OP_EQUALVERIFY OP_CHECKSIG", "type": "pubkeyhash"}, "value": 0.01562703, "n": 1}, {"scriptPubKey": {"reqSigs": 1, "hex": "76a91400f9d09b2555630b38a50d174a7d3e134122864488ac", "addresses": ["116AGSbTq38dLnGTgt5uhPjTFX4TcDxm9N"], "asm": "OP_DUP OP_HASH160 00f9d09b2555630b38a50d174a7d3e1341228644 OP_EQUALVERIFY OP_CHECKSIG", "type": "pubkeyhash"}, "value": 0.01562703, "n": 2}, {"scriptPubKey": {"reqSigs": 1, "hex": "a914e60280ee405489634128f952323bd1bb8e4e2d2587", "addresses": ["3NfCLcwF557HyR7XWXFvz5TrPiiq8taNkf"], "asm": "OP_HASH160 e60280ee405489634128f952323bd1bb8e4e2d25 OP_EQUAL", "type": "scripthash"}, "value": 0.02294734, "n": 3}, {"scriptPubKey": {"reqSigs": 1, "hex": "76a9144dbbe3409081c25fd335e1a9704d14e74f50d28088ac", "addresses": ["18627SNfaJ53yyCrbXB2KVGBHV3WAkoXTo"], "asm": "OP_DUP OP_HASH160 4dbbe3409081c25fd335e1a9704d14e74f50d280 OP_EQUALVERIFY OP_CHECKSIG", "type": "pubkeyhash"}, "value": 2.0088452, "n": 4}, {"scriptPubKey": {"reqSigs": 1, "hex": "76a9140da375b1daad0c896e695f7a34af02b553d0717688ac", "addresses": ["12F7bsoqfVhreh8BPXhxHK5S6R2k88r1CX"], "asm": "OP_DUP OP_HASH160 0da375b1daad0c896e695f7a34af02b553d07176 OP_EQUALVERIFY OP_CHECKSIG", "type": "pubkeyhash"}, "value": 0.01562288, "n": 5}, {"scriptPubKey": {"reqSigs": 1, "hex": "a91413f07323458e927b5472a20d53dd5b9af4be4ef387", "addresses": ["33WSovvZxqvvAUyxvX5kiVr6afQNfUqSjH"], "asm": "OP_HASH160 13f07323458e927b5472a20d53dd5b9af4be4ef3 OP_EQUAL", "type": "scripthash"}, "value": 0.01242, "n": 6}, {"scriptPubKey": {"reqSigs": 1, "hex": "76a914199d99d62a39f7b68dc254aee18a8d97a6d7050488ac", "addresses": ["13LSh6oCtJ1WRAtV7PswaBzoPoPWraCoTE"], "asm": "OP_DUP OP_HASH160 199d99d62a39f7b68dc254aee18a8d97a6d70504 OP_EQUALVERIFY OP_CHECKSIG", "type": "pubkeyhash"}, "value": 0.00435483, "n": 7}, {"scriptPubKey": {"reqSigs": 1, "hex": "a914e488a9b1352428a2a084ae60be7f2b0d30f4858b87", "addresses": ["3NXPhnNYxjsE4Y7V27AvkoPzZGWVx7azdN"], "asm": "OP_HASH160 e488a9b1352428a2a084ae60be7f2b0d30f4858b OP_EQUAL", "type": "scripthash"}, "value": 3.38073657, "n": 8}], "hex": "01000000000101432a4c5c61b71b4775ca2a4de2523c433fc3d7cfe458ae8a0c383ac3b3055be0010000001716001484f8c697afcf045d15dd081784d0533d705fff35ffffffff0950c30000000000001976a9141f080479a6374f086d816a62bd1f8aef4b0e32db88ac4fd81700000000001976a91454c18af3144cdbc0b561a11bb4ea7a3d0950fe8e88ac4fd81700000000001976a91400f9d09b2555630b38a50d174a7d3e134122864488acce0323000000000017a914e60280ee405489634128f952323bd1bb8e4e2d25872841f90b000000001976a9144dbbe3409081c25fd335e1a9704d14e74f50d28088acb0d61700000000001976a9140da375b1daad0c896e695f7a34af02b553d0717688ac90f312000000000017a91413f07323458e927b5472a20d53dd5b9af4be4ef3871ba50600000000001976a914199d99d62a39f7b68dc254aee18a8d97a6d7050488ac399826140000000017a914e488a9b1352428a2a084ae60be7f2b0d30f4858b8702483045022100a0ea0e8fb553eea32c6fc3191d8cd05e210db4ddf9c5daf1ed7babf6f92479c702206569119a0eed47ee001311c7e925fc5878e065bb1269f3b2b35fa971b30f1bcb0121026dbad8b43352972b9746279cc6d5f35c52863db091f7a1741a5845119bd7818c00000000", "vin": [{"txinwitness": ["3045022100a0ea0e8fb553eea32c6fc3191d8cd05e210db4ddf9c5daf1ed7babf6f92479c702206569119a0eed47ee001311c7e925fc5878e065bb1269f3b2b35fa971b30f1bcb01", "026dbad8b43352972b9746279cc6d5f35c52863db091f7a1741a5845119bd7818c"], "sequence": 4294967295, "scriptSig": {"hex": "16001484f8c697afcf045d15dd081784d0533d705fff35", "asm": "001484f8c697afcf045d15dd081784d0533d705fff35"}, "vout": 1, "txid": "e05b05b3c33a380c8aae58e4cfd7c33f433c52e24d2aca75471bb7615c4c2a43"}], "txid": "1f4fc0053cc8b8db3e927a7d307b3adfe058c91c5da5c2d360f05eebc4e977c4", "blocktime": 1537872475, "version": 1, "confirmations": 11486, "time": 1537872475, "locktime": 0, "vsize": 402, "size": 484}