{"hash": "c4adb28fc74af3877977713d759d561dbbba5fa9bf825bca773469c29fca7c3b", "blockhash": "0000000000000000001cda96e906b7601b7a6fb1a3b62bca570a9e5d8f4b3de1", "vout": [{"scriptPubKey": {"reqSigs": 1, "hex": "76a91423f9814b9c389472d6cf7b5abdd3ae13fe6c535688ac", "addresses": ["14HDYdWorJj3A4VTQwz2KG5HWX9dsXLxYT"], "asm": "OP_DUP OP_HASH160 23f9814b9c389472d6cf7b5abdd3ae13fe6c5356 OP_EQUALVERIFY OP_CHECKSIG", "type": "pubkeyhash"}, "value": 0.0037, "n": 0}, {"scriptPubKey": {"reqSigs": 1, "hex": "a9149d39cd4d416c322048262893d635fb9a9522673c87", "addresses": ["3G2MFp2tgQzbiKhztwcqPLawH2z5AmX9EU"], "asm": "OP_HASH160 9d39cd4d416c322048262893d635fb9a9522673c OP_EQUAL", "type": "scripthash"}, "value": 0.003271, "n": 1}], "hex": "010000000001013e18dcd7e7bb0f6fa90de5dca7af3c53cf1d3cda3161a83edc45d5104ac7ca7b0100000023220020022225ef3da51443dcc2f1ec8986e5fd2d2d45b7d2f460b37c5b18ff15fcb259ffffffff0250a50500000000001976a91423f9814b9c389472d6cf7b5abdd3ae13fe6c535688acbcfd04000000000017a9149d39cd4d416c322048262893d635fb9a9522673c87040047304402202566d66fac19a981fbbf846bf29c3ebc73a0d4bc057a5bb68a0c0e8a646f547a0220527708741d1b136990692c5c9d5374c62289d79242a461798c450c4a22b8a64f0148304502210086b50d687291ed8da6a829088f503a05f5f75125a7dd05cee92b34c7357d3cd1022034148732d55586866e0ab738711ed51eb4e2c453ae3995cdfcd3d7a21e9f1ed901475221025075d6ce9a4465ea0445788b0c16047fc9b558871082018dd3270fcbc20f6fd02102cef2f65e67dd388952b1159edda4643422fd1dedc86f72b80e60633b6aa83ecc52ae00000000", "vin": [{"txinwitness": ["", "304402202566d66fac19a981fbbf846bf29c3ebc73a0d4bc057a5bb68a0c0e8a646f547a0220527708741d1b136990692c5c9d5374c62289d79242a461798c450c4a22b8a64f01", "304502210086b50d687291ed8da6a829088f503a05f5f75125a7dd05cee92b34c7357d3cd1022034148732d55586866e0ab738711ed51eb4e2c453ae3995cdfcd3d7a21e9f1ed901", "5221025075d6ce9a4465ea0445788b0c16047fc9b558871082018dd3270fcbc20f6fd02102cef2f65e67dd388952b1159edda4643422fd1dedc86f72b80e60633b6aa83ecc52ae"], "sequence": 4294967295, "scriptSig": {"hex": "220020022225ef3da51443dcc2f1ec8986e5fd2d2d45b7d2f460b37c5b18ff15fcb259", "asm": "0020022225ef3da51443dcc2f1ec8986e5fd2d2d45b7d2f460b37c5b18ff15fcb259"}, "vout": 1, "txid": "7bcac74a10d545dc3ea86131da3c1dcf533cafa7dce50da96f0fbbe7d7dc183e"}], "txid": "1f4fb1f395170d55f592a0127b1c6bfa700878317ebf009fb6919d6c517a4bdc", "blocktime": 1537873282, "version": 1, "confirmations": 11485, "time": 1537873282, "locktime": 0, "vsize": 208, "size": 373}