{"hash": "1f53b716791b5703414812349dfb4ee1064f605ef3cc100dcff46dfbe383f33c", "blockhash": "00000000000000000004ffacab907a6b429b9a5745fa0b75af4234bf69dd7176", "vout": [{"scriptPubKey": {"reqSigs": 1, "hex": "a914c214f8d02a858dd9e63a0477e24f0c1f08adc02487", "addresses": ["3KPE8uxRh8e8HjqbiHPSueGCgEsr9Ka78u"], "asm": "OP_HASH160 c214f8d02a858dd9e63a0477e24f0c1f08adc024 OP_EQUAL", "type": "scripthash"}, "value": 0.097727, "n": 0}, {"scriptPubKey": {"reqSigs": 1, "hex": "76a914a0759be6c432c6a64a9a186478d91bfa4868728c88ac", "addresses": ["1FdS1JudSh5gsEPuVmpwnLffsFEcpiphde"], "asm": "OP_DUP OP_HASH160 a0759be6c432c6a64a9a186478d91bfa4868728c OP_EQUALVERIFY OP_CHECKSIG", "type": "pubkeyhash"}, "value": 0.271709, "n": 1}], "hex": "020000000113d0b75b7a52fd514cbfc20941d50c544478789733a20b3d4a787ff1eafac712020000006a4730440220024b362dfb488ecfdd0fe62666a0b27ae6a8a8e69a7cc11d3d0d2a0b739a5bff02205c4c806796741c303172895f7bfdb8efdc728c31add65d4bc46029898520450e0121035bfc0b137e014d75b14e8b3eb24ead32543073a721266e156a6af74d82b2e177fdffffff029c1e95000000000017a914c214f8d02a858dd9e63a0477e24f0c1f08adc0248754989e01000000001976a914a0759be6c432c6a64a9a186478d91bfa4868728c88ac16490800", "vin": [{"sequence": 4294967293, "scriptSig": {"hex": "4730440220024b362dfb488ecfdd0fe62666a0b27ae6a8a8e69a7cc11d3d0d2a0b739a5bff02205c4c806796741c303172895f7bfdb8efdc728c31add65d4bc46029898520450e0121035bfc0b137e014d75b14e8b3eb24ead32543073a721266e156a6af74d82b2e177", "asm": "30440220024b362dfb488ecfdd0fe62666a0b27ae6a8a8e69a7cc11d3d0d2a0b739a5bff02205c4c806796741c303172895f7bfdb8efdc728c31add65d4bc46029898520450e[ALL] 035bfc0b137e014d75b14e8b3eb24ead32543073a721266e156a6af74d82b2e177"}, "vout": 2, "txid": "12c7faeaf17f784a3d0ba23397787844540cd54109c2bf4c51fd527a5bb7d013"}], "txid": "1f53b716791b5703414812349dfb4ee1064f605ef3cc100dcff46dfbe383f33c", "blocktime": 1537875543, "version": 2, "confirmations": 11464, "time": 1537875543, "locktime": 542998, "vsize": 223, "size": 223}