{"hash": "1f56850d7f111301b306dff1639013b353a805d8bd951c68bd781fda7dd9d666", "blockhash": "0000000000000000001f76057863aec43deb6fa401d9628bb513d65a8098bfab", "vout": [{"scriptPubKey": {"reqSigs": 1, "hex": "76a91446cf7332b6aa5890375065df98cd1a00abaa050488ac", "addresses": ["17TQpJmQxRpzBwC2mdh6X8S3Z4vKWkmJDB"], "asm": "OP_DUP OP_HASH160 46cf7332b6aa5890375065df98cd1a00abaa0504 OP_EQUALVERIFY OP_CHECKSIG", "type": "pubkeyhash"}, "value": 0.00011545, "n": 0}, {"scriptPubKey": {"reqSigs": 1, "hex": "76a914f39ac56e1c5a0ff5f27d11271eac2d43e4c5e99988ac", "addresses": ["1PD4cJp33giDDUrckhpEEQbzsxo6K4oMzk"], "asm": "OP_DUP OP_HASH160 f39ac56e1c5a0ff5f27d11271eac2d43e4c5e999 OP_EQUALVERIFY OP_CHECKSIG", "type": "pubkeyhash"}, "value": 0.000372, "n": 1}], "hex": "0100000001a2a645c325ea279608d3f0061b4f84033ebd3fd2ec22f470d957ee1244a56a27000000006a47304402200452c1e800a8b6a153cdf06d8b174ea78434b162644d10c795a651bdcfab020e0220454bb59d016813bf8301bdfea8f7ce88af9760c933e9e0b8cd1706b08754917c01210384e8589ced473e4e0e016908d3a901945277907fb05f4d100af4c6f2e0206d81ffffffff02192d0000000000001976a91446cf7332b6aa5890375065df98cd1a00abaa050488ac50910000000000001976a914f39ac56e1c5a0ff5f27d11271eac2d43e4c5e99988ac00000000", "vin": [{"sequence": 4294967295, "scriptSig": {"hex": "47304402200452c1e800a8b6a153cdf06d8b174ea78434b162644d10c795a651bdcfab020e0220454bb59d016813bf8301bdfea8f7ce88af9760c933e9e0b8cd1706b08754917c01210384e8589ced473e4e0e016908d3a901945277907fb05f4d100af4c6f2e0206d81", "asm": "304402200452c1e800a8b6a153cdf06d8b174ea78434b162644d10c795a651bdcfab020e0220454bb59d016813bf8301bdfea8f7ce88af9760c933e9e0b8cd1706b08754917c[ALL] 0384e8589ced473e4e0e016908d3a901945277907fb05f4d100af4c6f2e0206d81"}, "vout": 0, "txid": "276aa54412ee57d970f422ecd23fbd3e03844f1b06f0d3089627ea25c345a6a2"}], "txid": "1f56850d7f111301b306dff1639013b353a805d8bd951c68bd781fda7dd9d666", "blocktime": 1537873891, "version": 1, "confirmations": 11478, "time": 1537873891, "locktime": 0, "vsize": 225, "size": 225}