{"hash": "1f5b1d54c6bd1da7823a7bf561fc340a01eeff22976476e9a0d202b2fa7bcbaf", "blockhash": "0000000000000000001cda96e906b7601b7a6fb1a3b62bca570a9e5d8f4b3de1", "vout": [{"scriptPubKey": {"reqSigs": 1, "hex": "76a9140f5f4a69edaf54cdbc0fc8baf751ebf9b0b2023688ac", "addresses": ["12QHHnpCtpF9uqo7RG2Wa7qst7crWkY6NM"], "asm": "OP_DUP OP_HASH160 0f5f4a69edaf54cdbc0fc8baf751ebf9b0b20236 OP_EQUALVERIFY OP_CHECKSIG", "type": "pubkeyhash"}, "value": 0.781806, "n": 0}, {"scriptPubKey": {"reqSigs": 1, "hex": "76a9146f5c63dae1cec13370cd11ad6cc21d456825385288ac", "addresses": ["1B9pgfgkZpGxc5NPNzhjAg2ZMEx3YjNn4V"], "asm": "OP_DUP OP_HASH160 6f5c63dae1cec13370cd11ad6cc21d4568253852 OP_EQUALVERIFY OP_CHECKSIG", "type": "pubkeyhash"}, "value": 1.24648098, "n": 1}], "hex": "0100000001f36ed03292389d2ea4055db45c0caf5c98a9dd6496037b0b38bc0a1cd3381805000000006a47304402206e7d0dbfd1a04268a527e5daf50777519ef90f33cb93cc0aed10d102adc8a3150220621fa6f624435313d99af41c02eda49cdfdce62a568cd51eeb1990e30c907b1e012102bd723d28f4318f8671bbde69a38b78743075d71ba1eff89d562e51a8913d408bffffffff02f8f0a804000000001976a9140f5f4a69edaf54cdbc0fc8baf751ebf9b0b2023688aca2fa6d07000000001976a9146f5c63dae1cec13370cd11ad6cc21d456825385288ac00000000", "vin": [{"sequence": 4294967295, "scriptSig": {"hex": "47304402206e7d0dbfd1a04268a527e5daf50777519ef90f33cb93cc0aed10d102adc8a3150220621fa6f624435313d99af41c02eda49cdfdce62a568cd51eeb1990e30c907b1e012102bd723d28f4318f8671bbde69a38b78743075d71ba1eff89d562e51a8913d408b", "asm": "304402206e7d0dbfd1a04268a527e5daf50777519ef90f33cb93cc0aed10d102adc8a3150220621fa6f624435313d99af41c02eda49cdfdce62a568cd51eeb1990e30c907b1e[ALL] 02bd723d28f4318f8671bbde69a38b78743075d71ba1eff89d562e51a8913d408b"}, "vout": 0, "txid": "051838d31c0abc380b7b039664dda9985caf0c5cb45d05a42e9d389232d06ef3"}], "txid": "1f5b1d54c6bd1da7823a7bf561fc340a01eeff22976476e9a0d202b2fa7bcbaf", "blocktime": 1537873282, "version": 1, "confirmations": 11485, "time": 1537873282, "locktime": 0, "vsize": 225, "size": 225}