{"hash": "1f60743fbb0b1abb6a73d6aa957a2ada300507a83a965a067eae14bac80bece0", "blockhash": "0000000000000000000dcc0f55137456b1a82d3642486a52398922ac4d620174", "vout": [{"scriptPubKey": {"reqSigs": 1, "hex": "76a91423bedb3e01fc32f184f02ba206cfa5e73413883588ac", "addresses": ["14G1HeiT6wNeXk59yw5XRfpoFqJf3Mju2S"], "asm": "OP_DUP OP_HASH160 23bedb3e01fc32f184f02ba206cfa5e734138835 OP_EQUALVERIFY OP_CHECKSIG", "type": "pubkeyhash"}, "value": 0.00144801, "n": 0}, {"scriptPubKey": {"reqSigs": 1, "hex": "a9142985092f98e51602a00d7b0b8f4e189a17bbe90887", "addresses": ["35UYzuPCijvTgsNF9Qotys4RgAtsTnd4Xj"], "asm": "OP_HASH160 2985092f98e51602a00d7b0b8f4e189a17bbe908 OP_EQUAL", "type": "scripthash"}, "value": 0.02589203, "n": 1}], "hex": "010000000224d7867c4e853e0a83e893799ecf44d6fdb2a5cab1e1b6877af17877780238a8000000006b483045022100dd9c2462967b4b00d325befa690ad0b0d2e7bd220c51f836e66d9d8383d97bba02202ea2d0816d92e6b5c5970d21ce1784b5ed8b65de0f5ac7b9e794db1c69d7196b0121036bb1e08633dabbec8c15e17ee33d5908bff4c21968adb3d620ed58fbdb687d74ffffffff4d3410e7f5f87651a07314b9d2506b66ee409ecb1e55813c13f11644265333bd000000006b48304502210092168fa849fff14a7c4c4c35b2cd30e32a7e7789d77652e9d913c5604581779202207114b6e6157b87c4e8b46cecc75f2ea2817197cbcd8d65e4d2025195ebc6555e0121026ee920101b1dae3701c7d8add81a58ab6ae4d0686855c29f72ef992e64d4e543ffffffff02a1350200000000001976a91423bedb3e01fc32f184f02ba206cfa5e73413883588ac138227000000000017a9142985092f98e51602a00d7b0b8f4e189a17bbe9088700000000", "vin": [{"sequence": 4294967295, "scriptSig": {"hex": "483045022100dd9c2462967b4b00d325befa690ad0b0d2e7bd220c51f836e66d9d8383d97bba02202ea2d0816d92e6b5c5970d21ce1784b5ed8b65de0f5ac7b9e794db1c69d7196b0121036bb1e08633dabbec8c15e17ee33d5908bff4c21968adb3d620ed58fbdb687d74", "asm": "3045022100dd9c2462967b4b00d325befa690ad0b0d2e7bd220c51f836e66d9d8383d97bba02202ea2d0816d92e6b5c5970d21ce1784b5ed8b65de0f5ac7b9e794db1c69d7196b[ALL] 036bb1e08633dabbec8c15e17ee33d5908bff4c21968adb3d620ed58fbdb687d74"}, "vout": 0, "txid": "a83802787778f17a87b6e1b1caa5b2fdd644cf9e7993e8830a3e854e7c86d724"}, {"sequence": 4294967295, "scriptSig": {"hex": "48304502210092168fa849fff14a7c4c4c35b2cd30e32a7e7789d77652e9d913c5604581779202207114b6e6157b87c4e8b46cecc75f2ea2817197cbcd8d65e4d2025195ebc6555e0121026ee920101b1dae3701c7d8add81a58ab6ae4d0686855c29f72ef992e64d4e543", "asm": "304502210092168fa849fff14a7c4c4c35b2cd30e32a7e7789d77652e9d913c5604581779202207114b6e6157b87c4e8b46cecc75f2ea2817197cbcd8d65e4d2025195ebc6555e[ALL] 026ee920101b1dae3701c7d8add81a58ab6ae4d0686855c29f72ef992e64d4e543"}, "vout": 0, "txid": "bd3353264416f1133c81551ecb9e40ee666b50d2b91473a05176f8f5e710344d"}], "txid": "1f60743fbb0b1abb6a73d6aa957a2ada300507a83a965a067eae14bac80bece0", "blocktime": 1537870268, "version": 1, "confirmations": 11516, "time": 1537870268, "locktime": 0, "vsize": 372, "size": 372}