{"hash": "1f642c419b0a250c95731e65ba53866a70ef346188987a1d8056435f36ba0432", "blockhash": "0000000000000000000baef3f32e3676a92c3b2e5da21b426e4f302fc371ce76", "vout": [{"scriptPubKey": {"reqSigs": 1, "hex": "76a914e8038a5ff5004887d342b9a3f097db8150c1977188ac", "addresses": ["1N9n1WH2aRB4B5Q9gizxgQQJxmvXGHrd1B"], "asm": "OP_DUP OP_HASH160 e8038a5ff5004887d342b9a3f097db8150c19771 OP_EQUALVERIFY OP_CHECKSIG", "type": "pubkeyhash"}, "value": 0.00155, "n": 0}, {"scriptPubKey": {"reqSigs": 1, "hex": "a914b50521747411a8d4a9f02169bf01b5d3c89af07587", "addresses": ["3JCANkXDMgq8cGWq8jSJm6fNX6CXyD7rLz"], "asm": "OP_HASH160 b50521747411a8d4a9f02169bf01b5d3c89af075 OP_EQUAL", "type": "scripthash"}, "value": 0.007645, "n": 1}, {"scriptPubKey": {"reqSigs": 1, "hex": "a9140ecee73a4646b0cebd3f8c0f1cc807159fc9296487", "addresses": ["333KF7oJxn3ytSr5ZmxK57imkuAZxjJE5i"], "asm": "OP_HASH160 0ecee73a4646b0cebd3f8c0f1cc807159fc92964 OP_EQUAL", "type": "scripthash"}, "value": 0.00401355, "n": 2}, {"scriptPubKey": {"reqSigs": 1, "hex": "a91410354fc33f9a8e15a7b577edf80a7e249a70435487", "addresses": ["33AibmPKKKDRfSZsqgugzGY5MQnrVYpfQr"], "asm": "OP_HASH160 10354fc33f9a8e15a7b577edf80a7e249a704354 OP_EQUAL", "type": "scripthash"}, "value": 1.18253389, "n": 3}], "hex": "02000000023800082436450f123ba5d534fba2354809920e93a9db93df1d325de9254c631445000000fc004730440220440475c7404798d1569482b5bef04758dcea22bc2af8d1b3426039c887a189520220051894269427f85ed464a9add0935f9894420e0ed575126c92cc1ca1e6f665d40147304402206f7c91223c8efe10e3e2755c2b57fc1cfd0087b22f6cff51a3566d4e5484562502207d89ae125842e0b2efb617f6cf427aa244afaa7a289ca488c066b61f5c90ee4c014c695221038e04787829a6a4209812384f7e45631d82709b7967829f4f98bd6b2e7030be3321034828f7364813961d804571074d24c168baa9215d2527b871745a50694d376f2421027e26b8bcb1d83ca95d11b8f78eaef281a1642130fc46fa18a65797392b37f0e153aeffffffff81b18f7d3ef483afddf6d66d5f4557a3952ebb2778d710984489c3714c44efa401000000fdfd0000483045022100a07ffb6a28dda69fecdfc2b98fc2eaa218bc237909ad1eb65962f5001c34185902206ae2e885b6dfc9d2cf65c484abc38dbd029bfc9c11ecdeed94a2b82227d9b9b10147304402203a38b5fd708c9da92843c823417a6c5dc6952b112f91af32052d0c119cf2f63002206a972388788667ae0737fb8292ee2f5daa13452f640015e47c5dfea90944bd1f014c69522102002f6b5b7bd172d970d55c5492e7331b777aa907b8d3c921a72d5bb4c0ab853521020840423ef079deca25b1fc08d42b2f1db17291f22525ef00ea5dd39f9bc58d182102de43413a46f7b14365399400652064254b4c5810f21606167b0b23d305a0685853aeffffffff04785d0200000000001976a914e8038a5ff5004887d342b9a3f097db8150c1977188ac54aa0b000000000017a914b50521747411a8d4a9f02169bf01b5d3c89af07587cb1f06000000000017a9140ecee73a4646b0cebd3f8c0f1cc807159fc92964874d670c070000000017a91410354fc33f9a8e15a7b577edf80a7e249a7043548700000000", "vin": [{"sequence": 4294967295, "scriptSig": {"hex": "004730440220440475c7404798d1569482b5bef04758dcea22bc2af8d1b3426039c887a189520220051894269427f85ed464a9add0935f9894420e0ed575126c92cc1ca1e6f665d40147304402206f7c91223c8efe10e3e2755c2b57fc1cfd0087b22f6cff51a3566d4e5484562502207d89ae125842e0b2efb617f6cf427aa244afaa7a289ca488c066b61f5c90ee4c014c695221038e04787829a6a4209812384f7e45631d82709b7967829f4f98bd6b2e7030be3321034828f7364813961d804571074d24c168baa9215d2527b871745a50694d376f2421027e26b8bcb1d83ca95d11b8f78eaef281a1642130fc46fa18a65797392b37f0e153ae", "asm": "0 30440220440475c7404798d1569482b5bef04758dcea22bc2af8d1b3426039c887a189520220051894269427f85ed464a9add0935f9894420e0ed575126c92cc1ca1e6f665d4[ALL] 304402206f7c91223c8efe10e3e2755c2b57fc1cfd0087b22f6cff51a3566d4e5484562502207d89ae125842e0b2efb617f6cf427aa244afaa7a289ca488c066b61f5c90ee4c[ALL] 5221038e04787829a6a4209812384f7e45631d82709b7967829f4f98bd6b2e7030be3321034828f7364813961d804571074d24c168baa9215d2527b871745a50694d376f2421027e26b8bcb1d83ca95d11b8f78eaef281a1642130fc46fa18a65797392b37f0e153ae"}, "vout": 69, "txid": "14634c25e95d321ddf93dba9930e92094835a2fb34d5a53b120f453624080038"}, {"sequence": 4294967295, "scriptSig": {"hex": "00483045022100a07ffb6a28dda69fecdfc2b98fc2eaa218bc237909ad1eb65962f5001c34185902206ae2e885b6dfc9d2cf65c484abc38dbd029bfc9c11ecdeed94a2b82227d9b9b10147304402203a38b5fd708c9da92843c823417a6c5dc6952b112f91af32052d0c119cf2f63002206a972388788667ae0737fb8292ee2f5daa13452f640015e47c5dfea90944bd1f014c69522102002f6b5b7bd172d970d55c5492e7331b777aa907b8d3c921a72d5bb4c0ab853521020840423ef079deca25b1fc08d42b2f1db17291f22525ef00ea5dd39f9bc58d182102de43413a46f7b14365399400652064254b4c5810f21606167b0b23d305a0685853ae", "asm": "0 3045022100a07ffb6a28dda69fecdfc2b98fc2eaa218bc237909ad1eb65962f5001c34185902206ae2e885b6dfc9d2cf65c484abc38dbd029bfc9c11ecdeed94a2b82227d9b9b1[ALL] 304402203a38b5fd708c9da92843c823417a6c5dc6952b112f91af32052d0c119cf2f63002206a972388788667ae0737fb8292ee2f5daa13452f640015e47c5dfea90944bd1f[ALL] 522102002f6b5b7bd172d970d55c5492e7331b777aa907b8d3c921a72d5bb4c0ab853521020840423ef079deca25b1fc08d42b2f1db17291f22525ef00ea5dd39f9bc58d182102de43413a46f7b14365399400652064254b4c5810f21606167b0b23d305a0685853ae"}, "vout": 1, "txid": "a4ef444c71c389449810d77827bb2e95a357455f6dd6f6ddaf83f43e7d8fb181"}], "txid": "1f642c419b0a250c95731e65ba53866a70ef346188987a1d8056435f36ba0432", "blocktime": 1537876114, "version": 2, "confirmations": 11460, "time": 1537876114, "locktime": 0, "vsize": 729, "size": 729}