{"hash": "1f67aacb26ec99191e6c9864423ff389aea76cb1032ecc4de8c56048b7c73728", "blockhash": "00000000000000000004ffacab907a6b429b9a5745fa0b75af4234bf69dd7176", "vout": [{"scriptPubKey": {"reqSigs": 1, "hex": "76a9144d28633fc28b73e3048f1bdfe2a66bff3a46b84788ac", "addresses": ["182yQxWCBZryrKL2aupkQ76DDaG1A3NmDH"], "asm": "OP_DUP OP_HASH160 4d28633fc28b73e3048f1bdfe2a66bff3a46b847 OP_EQUALVERIFY OP_CHECKSIG", "type": "pubkeyhash"}, "value": 0.002187, "n": 0}, {"scriptPubKey": {"reqSigs": 1, "hex": "76a914084a18796ba9bd9ad5d0c5dfd22bd3261ddbc56188ac", "addresses": ["1kqAnfjWZyEdPc4cGzFHSQCegymL9scKF"], "asm": "OP_DUP OP_HASH160 084a18796ba9bd9ad5d0c5dfd22bd3261ddbc561 OP_EQUALVERIFY OP_CHECKSIG", "type": "pubkeyhash"}, "value": 0.00033387, "n": 1}], "hex": "010000000165b769b98903f039d7cd64ea10fd2a50541ff7c737785a11a8aedb69c563bae6000000008b483045022100dcfe16267da17afb1c62d67c333ca3ebfc51fba8a7647bf39daf3ca724ed486502207879e1a35f1a8d5d086c6f7e8bb85b44763f2a3c8dc92ce9ca467e4deb2e6a2c0141041f4febdabb788f651f50f61c4f13712d95403bd84fb41a1bd8197365b1f8eee80539be66375d04dfe3b21ac266ba30bae31293229cb6af464ac169e04675a529ffffffff024c560300000000001976a9144d28633fc28b73e3048f1bdfe2a66bff3a46b84788ac6b820000000000001976a914084a18796ba9bd9ad5d0c5dfd22bd3261ddbc56188ac00000000", "vin": [{"sequence": 4294967295, "scriptSig": {"hex": "483045022100dcfe16267da17afb1c62d67c333ca3ebfc51fba8a7647bf39daf3ca724ed486502207879e1a35f1a8d5d086c6f7e8bb85b44763f2a3c8dc92ce9ca467e4deb2e6a2c0141041f4febdabb788f651f50f61c4f13712d95403bd84fb41a1bd8197365b1f8eee80539be66375d04dfe3b21ac266ba30bae31293229cb6af464ac169e04675a529", "asm": "3045022100dcfe16267da17afb1c62d67c333ca3ebfc51fba8a7647bf39daf3ca724ed486502207879e1a35f1a8d5d086c6f7e8bb85b44763f2a3c8dc92ce9ca467e4deb2e6a2c[ALL] 041f4febdabb788f651f50f61c4f13712d95403bd84fb41a1bd8197365b1f8eee80539be66375d04dfe3b21ac266ba30bae31293229cb6af464ac169e04675a529"}, "vout": 0, "txid": "e6ba63c569dbaea8115a7837c7f71f54502afd10ea64cdd739f00389b969b765"}], "txid": "1f67aacb26ec99191e6c9864423ff389aea76cb1032ecc4de8c56048b7c73728", "blocktime": 1537875543, "version": 1, "confirmations": 11464, "time": 1537875543, "locktime": 0, "vsize": 258, "size": 258}