{"hash": "1f73521406125f785a46cb21ba71fab6a74408adb2bc18cf5fee6cb593ee79ab", "blockhash": "0000000000000000000baef3f32e3676a92c3b2e5da21b426e4f302fc371ce76", "vout": [{"scriptPubKey": {"type": "nulldata", "hex": "6a4c50000078110001db80ba6639eaeb451665eaab702940d64fa54d8eb2d19ed074892d00f8e8d3fcb27058bd9834bcfc9581734d96c25baa1b9306149aff4b7d8a521d100759d4ba30d2c37bb011d97e02cf", "asm": "OP_RETURN 000078110001db80ba6639eaeb451665eaab702940d64fa54d8eb2d19ed074892d00f8e8d3fcb27058bd9834bcfc9581734d96c25baa1b9306149aff4b7d8a521d100759d4ba30d2c37bb011d97e02cf"}, "value": 0.0, "n": 0}, {"scriptPubKey": {"reqSigs": 1, "hex": "76a914d0e4dded4270d5596cfe6dffd60fb32981b6e27988ac", "addresses": ["1L3XirQYZSH2628Q4N8G8FPJuce2rnhpT4"], "asm": "OP_DUP OP_HASH160 d0e4dded4270d5596cfe6dffd60fb32981b6e279 OP_EQUALVERIFY OP_CHECKSIG", "type": "pubkeyhash"}, "value": 0.00630587, "n": 1}], "hex": "010000000137aef9632bf34e6ce0f97df70d56b3699d9a8af7ae330fc8769a3b064f7ed4a3000000006a473044022049cb423cc4ad21e217434eba8b84a7acae75d89cfe395014da7ba3b27692f0ec02201623d56784d306554df3089a53039391561b40ca18f2f578a3519bd2cf09091a012103884d985d7adefa415db02e9ca1719d130398b786c89015720c90699d4b229f13ffffffff020000000000000000536a4c50000078110001db80ba6639eaeb451665eaab702940d64fa54d8eb2d19ed074892d00f8e8d3fcb27058bd9834bcfc9581734d96c25baa1b9306149aff4b7d8a521d100759d4ba30d2c37bb011d97e02cf3b9f0900000000001976a914d0e4dded4270d5596cfe6dffd60fb32981b6e27988ac00000000", "vin": [{"sequence": 4294967295, "scriptSig": {"hex": "473044022049cb423cc4ad21e217434eba8b84a7acae75d89cfe395014da7ba3b27692f0ec02201623d56784d306554df3089a53039391561b40ca18f2f578a3519bd2cf09091a012103884d985d7adefa415db02e9ca1719d130398b786c89015720c90699d4b229f13", "asm": "3044022049cb423cc4ad21e217434eba8b84a7acae75d89cfe395014da7ba3b27692f0ec02201623d56784d306554df3089a53039391561b40ca18f2f578a3519bd2cf09091a[ALL] 03884d985d7adefa415db02e9ca1719d130398b786c89015720c90699d4b229f13"}, "vout": 0, "txid": "a3d47e4f063b9a76c80f33aef78a9a9d69b3560df77df9e06c4ef32b63f9ae37"}], "txid": "1f73521406125f785a46cb21ba71fab6a74408adb2bc18cf5fee6cb593ee79ab", "blocktime": 1537876114, "version": 1, "confirmations": 11460, "time": 1537876114, "locktime": 0, "vsize": 283, "size": 283}