{"hash": "89df8ff09860a4dfd6c08e202b814b5f21a27a932fcaacfa99b47cef5fa9e731", "blockhash": "0000000000000000001e0dab787dd257d1dbfcb92a98c2207d5e1078be1f4165", "vout": [{"scriptPubKey": {"reqSigs": 1, "hex": "76a914ea9c831b52c211f357fb7c93f7c6a07475d7664888ac", "addresses": ["1NPWcYSnykbysrSwLrzjZewZHubocrJ9XZ"], "asm": "OP_DUP OP_HASH160 ea9c831b52c211f357fb7c93f7c6a07475d76648 OP_EQUALVERIFY OP_CHECKSIG", "type": "pubkeyhash"}, "value": 0.00215, "n": 0}, {"scriptPubKey": {"reqSigs": 1, "hex": "a9142dc538ce71cb10a50d79fee1183261a5aeb32cf087", "addresses": ["35s2bPoarLj4QBiUDCELzcdxvdESLJDA31"], "asm": "OP_HASH160 2dc538ce71cb10a50d79fee1183261a5aeb32cf0 OP_EQUAL", "type": "scripthash"}, "value": 0.02604498, "n": 1}], "hex": "01000000000101c7c50a08f66d13488c573c0f173e5a0558e57257a4852d5e48a199c07ddad9c10100000023220020a43533702b8f918e85109c5bb0cb3d02adee351674fb390409f559de892642a5ffffffff02d8470300000000001976a914ea9c831b52c211f357fb7c93f7c6a07475d7664888acd2bd27000000000017a9142dc538ce71cb10a50d79fee1183261a5aeb32cf0870400483045022100ea3deb027cb627849bf37a5f065b5704cc15d4aba3faffc1cd8d35edf7c356e302200b5f6336104cb6b05950160909856f02745e4f2751ebfa3036d7aab48e1cb83a01483045022100eba6c25fc07c8a9c38568853bf1649e2dc5ba2dee3f6457778479ebf2177db700220556fa12497d39ce1650499f35e36bfe649489fc6e5a00e9569ba915425c5f3280147522103b365417e780d3880bb487601bec488db710283cefbf9f514ea1ec0c1ad1680d4210203c534d0fa987b3bd3c576fb75f2fc2fd33a71170864e7d6ef4934997f28cd7052ae00000000", "vin": [{"txinwitness": ["", "3045022100ea3deb027cb627849bf37a5f065b5704cc15d4aba3faffc1cd8d35edf7c356e302200b5f6336104cb6b05950160909856f02745e4f2751ebfa3036d7aab48e1cb83a01", "3045022100eba6c25fc07c8a9c38568853bf1649e2dc5ba2dee3f6457778479ebf2177db700220556fa12497d39ce1650499f35e36bfe649489fc6e5a00e9569ba915425c5f32801", "522103b365417e780d3880bb487601bec488db710283cefbf9f514ea1ec0c1ad1680d4210203c534d0fa987b3bd3c576fb75f2fc2fd33a71170864e7d6ef4934997f28cd7052ae"], "sequence": 4294967295, "scriptSig": {"hex": "220020a43533702b8f918e85109c5bb0cb3d02adee351674fb390409f559de892642a5", "asm": "0020a43533702b8f918e85109c5bb0cb3d02adee351674fb390409f559de892642a5"}, "vout": 1, "txid": "c1d9da7dc099a1485e2d85a45772e558055a3e170f3c578c48136df6080ac5c7"}], "txid": "1f7c55b37c22ee08c2e1d9706216502bd3bc7fc029372b7bd7a8d2101849992b", "blocktime": 1537872475, "version": 1, "confirmations": 11487, "time": 1537872475, "locktime": 0, "vsize": 208, "size": 374}