{"hash": "5ba09ad1fd6b96caf4feb286c162247cc3984ebb6b155f0bc3eb1164fd91fa9e", "blockhash": "0000000000000000001cda96e906b7601b7a6fb1a3b62bca570a9e5d8f4b3de1", "vout": [{"scriptPubKey": {"reqSigs": 1, "hex": "a9146240b792403218576a1d14541516ab6feb5ec67287", "addresses": ["3AeXfxtNFbtT7KExqWytnwBKb6mqtpTm6V"], "asm": "OP_HASH160 6240b792403218576a1d14541516ab6feb5ec672 OP_EQUAL", "type": "scripthash"}, "value": 0.01000532, "n": 0}, {"scriptPubKey": {"reqSigs": 1, "hex": "76a9146bf5d825fdc826a564706de3e597daf6a5aaf14b88ac", "addresses": ["1Aqqp6BYo68MNUBoX7myFDEicK2Xk7yxRH"], "asm": "OP_DUP OP_HASH160 6bf5d825fdc826a564706de3e597daf6a5aaf14b OP_EQUALVERIFY OP_CHECKSIG", "type": "pubkeyhash"}, "value": 0.00290935, "n": 1}], "hex": "02000000000102c5e7d239ea1a4bd3d0e355383c37c63e61eefc6884acc11bc14298818bd470790400000017160014cc3d9bff02155f7dd3810e9c2ca5974a3ed439b4feffffffcd4ce2b912ca50b44d8af7a18380952c110d9ec5fd86ed5aa78436e41251d5760100000017160014517a1af34aafe10d58e22ad9703453ab3552e139feffffff0254440f000000000017a9146240b792403218576a1d14541516ab6feb5ec6728777700400000000001976a9146bf5d825fdc826a564706de3e597daf6a5aaf14b88ac0247304402202c1020a72ce8ca1dc31b897526093b97119be1062e9a05ad47d9761b8423b92c0220353e2fa4e1ba2dc781341a3e0dc24e4e39da4b5b1116f212371979d8474fa7000121032903691a37d83c7066468cc1977ceb8e03b58bee18a8b000aa754a02d8efe24c02483045022100eab8890bf15ec21b4954ba284a39a95269f70ff63ae8bc0668fdf29fe13747710220411958e5f2acac9854289fd178b218afb8babef6c389dd434f6d52cdeb28055f01210378173ce733e9e8ee7d5f82bccdefe6299b56a521750695cf6b62cf4920fb157513490800", "vin": [{"txinwitness": ["304402202c1020a72ce8ca1dc31b897526093b97119be1062e9a05ad47d9761b8423b92c0220353e2fa4e1ba2dc781341a3e0dc24e4e39da4b5b1116f212371979d8474fa70001", "032903691a37d83c7066468cc1977ceb8e03b58bee18a8b000aa754a02d8efe24c"], "sequence": 4294967294, "scriptSig": {"hex": "160014cc3d9bff02155f7dd3810e9c2ca5974a3ed439b4", "asm": "0014cc3d9bff02155f7dd3810e9c2ca5974a3ed439b4"}, "vout": 4, "txid": "7970d48b819842c11bc1ac8468fcee613ec6373c3855e3d0d34b1aea39d2e7c5"}, {"txinwitness": ["3045022100eab8890bf15ec21b4954ba284a39a95269f70ff63ae8bc0668fdf29fe13747710220411958e5f2acac9854289fd178b218afb8babef6c389dd434f6d52cdeb28055f01", "0378173ce733e9e8ee7d5f82bccdefe6299b56a521750695cf6b62cf4920fb1575"], "sequence": 4294967294, "scriptSig": {"hex": "160014517a1af34aafe10d58e22ad9703453ab3552e139", "asm": "0014517a1af34aafe10d58e22ad9703453ab3552e139"}, "vout": 1, "txid": "76d55112e43684a75aed86fdc59e0d112c958083a1f78a4db450ca12b9e24ccd"}], "txid": "1f7ea061983029ba244ff8a53296d2bca437f171e29a6f1a088644804fbcb893", "blocktime": 1537873282, "version": 2, "confirmations": 11485, "time": 1537873282, "locktime": 542995, "vsize": 259, "size": 421}