{"hash": "eb54ae4ea9974dffacf2c173bc0bf4447715fc1519defa94e2d6bf248921f079", "blockhash": "0000000000000000001cda96e906b7601b7a6fb1a3b62bca570a9e5d8f4b3de1", "vout": [{"scriptPubKey": {"reqSigs": 1, "hex": "a914218e8b57f146cd72883f5f60d6ab2ed484b659b487", "addresses": ["34kSz2VNibEcQc8sqAYVhoPEEv4jE5EAz6"], "asm": "OP_HASH160 218e8b57f146cd72883f5f60d6ab2ed484b659b4 OP_EQUAL", "type": "scripthash"}, "value": 1.50936539, "n": 0}, {"scriptPubKey": {"reqSigs": 1, "hex": "a91421e674a10cda6221a08dc5a5f3993f24695921f187", "addresses": ["34nGJD4TM6FKrgfsCL48cyaVUnwJKTjKhV"], "asm": "OP_HASH160 21e674a10cda6221a08dc5a5f3993f24695921f1 OP_EQUAL", "type": "scripthash"}, "value": 0.10772586, "n": 1}], "hex": "02000000000101574b635158052068024e719ca8743fc93d62ef9ab7caf61a0802430577edb0e9000000001716001450960700db08981a56a808c602acda671ebc15d4feffffff02db1bff080000000017a914218e8b57f146cd72883f5f60d6ab2ed484b659b4876a60a4000000000017a91421e674a10cda6221a08dc5a5f3993f24695921f1870248304502210097360f32dd810400928696890056b4f4a238e83b86254ffe0b1d76e2ab7ceaf102207ec0cc6b767e08aaebcdffe29f2080b689f7cc815e3e3e51cf5ac83da3da41a30121020bc398c7a57d96a379a406b3d3a41d2ea72e50a97a0031371913b3c80d3d3aee13490800", "vin": [{"txinwitness": ["304502210097360f32dd810400928696890056b4f4a238e83b86254ffe0b1d76e2ab7ceaf102207ec0cc6b767e08aaebcdffe29f2080b689f7cc815e3e3e51cf5ac83da3da41a301", "020bc398c7a57d96a379a406b3d3a41d2ea72e50a97a0031371913b3c80d3d3aee"], "sequence": 4294967294, "scriptSig": {"hex": "16001450960700db08981a56a808c602acda671ebc15d4", "asm": "001450960700db08981a56a808c602acda671ebc15d4"}, "vout": 0, "txid": "e9b0ed77054302081af6cab79aef623dc93f74a89c714e026820055851634b57"}], "txid": "1f8a27a0c24545f2f8c87b1ac9cfd9ffacc05ac4aa0b1569acc8c2e9cdbf8f98", "blocktime": 1537873282, "version": 2, "confirmations": 11484, "time": 1537873282, "locktime": 542995, "vsize": 166, "size": 248}