{"hash": "4caab16ee53cf7beca2d89a87ca91eb9fb311a62c25d7a1e8e9ea87166df4396", "blockhash": "000000000000000000022b45ed06c6f4ccd3cf7fb5ba4856ebd2e58215665228", "vout": [{"scriptPubKey": {"reqSigs": 1, "hex": "76a914827076be590fd5a2659b9add317dd6cf13bb4e0288ac", "addresses": ["1Ctha4dso7twjeAgLAAiAbZJJR29YicWMn"], "asm": "OP_DUP OP_HASH160 827076be590fd5a2659b9add317dd6cf13bb4e02 OP_EQUALVERIFY OP_CHECKSIG", "type": "pubkeyhash"}, "value": 0.02929361, "n": 0}, {"scriptPubKey": {"reqSigs": 1, "hex": "a9146838b11efc54d76a87dbf8353e77491a50fd1edd87", "addresses": ["3BC67WpUdvQPPSGmeaHbvechr9r8XNZWrC"], "asm": "OP_HASH160 6838b11efc54d76a87dbf8353e77491a50fd1edd OP_EQUAL", "type": "scripthash"}, "value": 0.03484316, "n": 1}], "hex": "02000000000101aade95b1324adaaf41e2e045312841f72e0aed580b9d484413fa70c75695e979000000001716001468f721949dba96a8f08d947b744d6ef22bff2122feffffff02d1b22c00000000001976a914827076be590fd5a2659b9add317dd6cf13bb4e0288ac9c2a35000000000017a9146838b11efc54d76a87dbf8353e77491a50fd1edd8702473044022058811b940b8fabf1f6f888f63fecc2cb12d0593fe399175f198c3af8d394be59022075ce8cd304656666b65722c45d3962588b15458115822b5819239f19a1c375920121028c9a398c5239bb3921ca6ce200e882751f763443a6d054a9cfdfd91ab3772fc8ee480800", "vin": [{"txinwitness": ["3044022058811b940b8fabf1f6f888f63fecc2cb12d0593fe399175f198c3af8d394be59022075ce8cd304656666b65722c45d3962588b15458115822b5819239f19a1c3759201", "028c9a398c5239bb3921ca6ce200e882751f763443a6d054a9cfdfd91ab3772fc8"], "sequence": 4294967294, "scriptSig": {"hex": "16001468f721949dba96a8f08d947b744d6ef22bff2122", "asm": "001468f721949dba96a8f08d947b744d6ef22bff2122"}, "vout": 0, "txid": "79e99556c770fa1344489d0b58ed0a2ef741283145e0e241afda4a32b195deaa"}], "txid": "1f8ab6ac78e390edb628ff6959897b8620fc83020eec62a2835288c1e599d843", "blocktime": 1537869901, "version": 2, "confirmations": 11524, "time": 1537869901, "locktime": 542958, "vsize": 168, "size": 249}