{"hash": "b6df5a9d419243dce65ddcae142d16bce040b0d210be3da10797db9196b62418", "blockhash": "00000000000000000017f5eb5941039fbcee6240d03bc1f2f8e35350df66a1d8", "vout": [{"scriptPubKey": {"reqSigs": 1, "hex": "a914efe7a1419388e90270fa0607ec8014badf3c9d7087", "addresses": ["3PZWuKUNeQ7g4NvhfXD6w8zbT4Arv54GYF"], "asm": "OP_HASH160 efe7a1419388e90270fa0607ec8014badf3c9d70 OP_EQUAL", "type": "scripthash"}, "value": 0.00999327, "n": 0}, {"scriptPubKey": {"reqSigs": 1, "hex": "76a91411fda9a14f7325a06f06d5778bd7c37a9028838588ac", "addresses": ["12e8N3q5YdA8JdZHChyrwDguac9zp6dKqp"], "asm": "OP_DUP OP_HASH160 11fda9a14f7325a06f06d5778bd7c37a90288385 OP_EQUALVERIFY OP_CHECKSIG", "type": "pubkeyhash"}, "value": 0.0035336, "n": 1}], "hex": "020000000001022e0dfdaef067089df41223173057dfd7544af74d36da417097f9c67457318d8b00000000171600140adb091d19d59e53e2f0b4670a361ec10f309e50feffffffe4ff714a2fdf7ec91c512d6a99e98602b676076daada050d400af28c31da33a8100000001716001408c2216e22068f7fc57042127f80ff4f456bd73ffeffffff029f3f0f000000000017a914efe7a1419388e90270fa0607ec8014badf3c9d708750640500000000001976a91411fda9a14f7325a06f06d5778bd7c37a9028838588ac02473044022030d26459586a0a50a1993715b9b124adffbf77294f5f579cde2a49359871401d022042fd93a02522159386fb7cd7862717ff5e38914832d9870933606cf6097080240121025155392b61d8da3eb7bedde98f1a6eb36b60925e88cb2798cc06187f72b8754502483045022100ce3c288f76130c2ea1e6242a2566838ca5242c6015f5875d3328fabb02bf4562022064ca2ea585aa5ae6d783d827359a003dbc56a6e9a302a6e1a8ba04dee1e2d42c012103a463bec499b6d23dd878fb1f6303798f2b9ca49d7a3f086662385b63ac32122515490800", "vin": [{"txinwitness": ["3044022030d26459586a0a50a1993715b9b124adffbf77294f5f579cde2a49359871401d022042fd93a02522159386fb7cd7862717ff5e38914832d9870933606cf60970802401", "025155392b61d8da3eb7bedde98f1a6eb36b60925e88cb2798cc06187f72b87545"], "sequence": 4294967294, "scriptSig": {"hex": "1600140adb091d19d59e53e2f0b4670a361ec10f309e50", "asm": "00140adb091d19d59e53e2f0b4670a361ec10f309e50"}, "vout": 0, "txid": "8b8d315774c6f9977041da364df74a54d7df5730172312f49d0867f0aefd0d2e"}, {"txinwitness": ["3045022100ce3c288f76130c2ea1e6242a2566838ca5242c6015f5875d3328fabb02bf4562022064ca2ea585aa5ae6d783d827359a003dbc56a6e9a302a6e1a8ba04dee1e2d42c01", "03a463bec499b6d23dd878fb1f6303798f2b9ca49d7a3f086662385b63ac321225"], "sequence": 4294967294, "scriptSig": {"hex": "16001408c2216e22068f7fc57042127f80ff4f456bd73f", "asm": "001408c2216e22068f7fc57042127f80ff4f456bd73f"}, "vout": 16, "txid": "a833da318cf20a400d05daaa6d0776b60286e9996a2d511cc97edf2f4a71ffe4"}], "txid": "1f9cf742b4f6bc0737129bf38f63d749b39a0412ebff5385b96516a4965bfef4", "blocktime": 1537874412, "version": 2, "confirmations": 11468, "time": 1537874412, "locktime": 542997, "vsize": 259, "size": 421}