{"hash": "01f4131b0982eaf0bbb175a7241ea8929022565a67bd60bd36c79ffa94cc24f2", "blockhash": "0000000000000000001f0ddff1eddb255c1121bcd4da4f1bc9a0da00cae72433", "vout": [{"scriptPubKey": {"reqSigs": 1, "hex": "76a91429b0e084e1513df53fdc86c9e29c7307195b7de588ac", "addresses": ["14oSbVnotctD32cVdGUJiPk9u4NmJqpf63"], "asm": "OP_DUP OP_HASH160 29b0e084e1513df53fdc86c9e29c7307195b7de5 OP_EQUALVERIFY OP_CHECKSIG", "type": "pubkeyhash"}, "value": 0.001566, "n": 0}, {"scriptPubKey": {"reqSigs": 1, "hex": "a9147e862e137ec240bf7f93d8ec285d20bf8861c26687", "addresses": ["3DE1ohjmbS47LVKVPiEFBMfP94SPhbHUCM"], "asm": "OP_HASH160 7e862e137ec240bf7f93d8ec285d20bf8861c266 OP_EQUAL", "type": "scripthash"}, "value": 0.02826164, "n": 1}], "hex": "020000000001014de3c696d185cf5d2d1ca5e47d300282b07e9d6574d2a735c885fb147f71e0d7010000001716001435c8d8c649d9aa5abcae29ebcc34d81de6848f9bfeffffff02b8630200000000001976a91429b0e084e1513df53fdc86c9e29c7307195b7de588acb41f2b000000000017a9147e862e137ec240bf7f93d8ec285d20bf8861c2668702483045022100aa4cb6de3395109ee5b5b70cff8fcff4a73af7690c9801278227eb6e38dfc47d022027833256c30550aa7389fbd93632765244dc7c9de82c0e09edadb298a6fd1621012103ac0a60267708c6e9b7a9ff15284a0ab307da35d8779487b7444235452106830d11490800", "vin": [{"txinwitness": ["3045022100aa4cb6de3395109ee5b5b70cff8fcff4a73af7690c9801278227eb6e38dfc47d022027833256c30550aa7389fbd93632765244dc7c9de82c0e09edadb298a6fd162101", "03ac0a60267708c6e9b7a9ff15284a0ab307da35d8779487b7444235452106830d"], "sequence": 4294967294, "scriptSig": {"hex": "16001435c8d8c649d9aa5abcae29ebcc34d81de6848f9b", "asm": "001435c8d8c649d9aa5abcae29ebcc34d81de6848f9b"}, "vout": 1, "txid": "d7e0717f14fb85c835a7d274659d7eb08202307de4a51c2d5dcf85d196c6e34d"}], "txid": "1f9f1cc38e62a44d47b4afbb3d111dda257fb13c7be8692cb8fbac8bd42a935e", "blocktime": 1537872018, "version": 2, "confirmations": 11489, "time": 1537872018, "locktime": 542993, "vsize": 168, "size": 250}