{"hash": "00729c31a3b9d6d801332596010a3fedcffe6ca9eca26194366390844cfb27ed", "blockhash": "0000000000000000000e13cef7c366c0283d82e591d1acd082e914b08063cdf1", "vout": [{"scriptPubKey": {"reqSigs": 1, "hex": "76a914b5a8853a1f3e7c8c789235c245db73bbde4a4e8288ac", "addresses": ["1HZXBj4g22Y712wUNDB5ouzBwXRxWFgzbg"], "asm": "OP_DUP OP_HASH160 b5a8853a1f3e7c8c789235c245db73bbde4a4e82 OP_EQUALVERIFY OP_CHECKSIG", "type": "pubkeyhash"}, "value": 0.00271, "n": 0}], "hex": "010000000001030ccd76543d8f34f3ea84b359a053cd3bc8bd6614c0d960a5168d4bcebc4587428c000000fdfd0000473044022052b63436752edbc3b64a031f32762ebc579ee7f679ea2d7ba08478af26571f3f02207e8375f02f83d2189d9ebea1991e6fe9baa3174c9a922c8fb9745d66b6cf9f9c01483045022100ab858391722b04f8ffa7cf836fe52f70dc22506f34b9716e74f508f6aa3f648502200dceebed19ef2a3a59f270c928cb0fa9a5e05ef9dd35eabcb258b05a05b60e42014c69522102aa3d070a2fbb63178c7a1416fd64a27011a53547c3d8814bc99bae4fc34818ff2102f1c75f9f08d1c8435ddcb8322aded598b57e8c583d98ccdf62a217a64c573c2f2102fc32b598bd3006f9e2f2edc782bb88ffaa388819f834be15e96c5081247d011653aeffffffffc6a420a37b65f53b6c34754ac369c2c846dd4ab78652b068f9be29b911973aca8e000000fdfd0000483045022100d322224aa453a77e4a8365581d1f1cde463e325c4a856c09df76edc0b3cc2d0802200240e395280e3c07a5800aad7e32fad9c390bf97b6d40bd5f75b816b8f7d578b014730440220490f527c80c40f2a841f1ebce5de91ecd04cd1532a92dfaf3849ec7411a2118102202932c622a5b8add5455b3a190f7b656ba5b4fbd78dcd9379926fde63c40acbe6014c69522102aa3d070a2fbb63178c7a1416fd64a27011a53547c3d8814bc99bae4fc34818ff2102f1c75f9f08d1c8435ddcb8322aded598b57e8c583d98ccdf62a217a64c573c2f2102fc32b598bd3006f9e2f2edc782bb88ffaa388819f834be15e96c5081247d011653aeffffffff8ba18527a8b73e7bfc3bfc9a2016836f90158d9a0b47135cd65ca9661e5d6a3b010000002322002024bb89fe1cfdcd9f7f70df9234f77c6eb80a6d22eb695fbcbf885ade4489c20cffffffff0198220400000000001976a914b5a8853a1f3e7c8c789235c245db73bbde4a4e8288ac00000400483045022100ea9b7d8669e3fac947896cc4112258f26c17578d7718ec041a86303abf9bd7a5022004dd93101ef76b78f56b71ba9f0b00acb86b746cd6aaa475d6db91f4454da57001473044022009a01113a152735be9dd0fa95e65db6a40708f04deb424f44704e7193bf12c870220132a406fa947eecfe7498a96ba3758949bcc1f1a339e39af32dceeb3ba569b7b0169522102749d64a55fcd282e9bf5ccc35ee2833d8c638514660a9a07db9148b88bb79e812102f2d90411ac2313eee9abb6b05d1372894efb7406931f8580b5df0265a487b3832103863cc51370688dfd97b76c4b91081e62a3252b1a9f8b8631aa598d3b42ad9fc853ae00000000", "vin": [{"sequence": 4294967295, "scriptSig": {"hex": "00473044022052b63436752edbc3b64a031f32762ebc579ee7f679ea2d7ba08478af26571f3f02207e8375f02f83d2189d9ebea1991e6fe9baa3174c9a922c8fb9745d66b6cf9f9c01483045022100ab858391722b04f8ffa7cf836fe52f70dc22506f34b9716e74f508f6aa3f648502200dceebed19ef2a3a59f270c928cb0fa9a5e05ef9dd35eabcb258b05a05b60e42014c69522102aa3d070a2fbb63178c7a1416fd64a27011a53547c3d8814bc99bae4fc34818ff2102f1c75f9f08d1c8435ddcb8322aded598b57e8c583d98ccdf62a217a64c573c2f2102fc32b598bd3006f9e2f2edc782bb88ffaa388819f834be15e96c5081247d011653ae", "asm": "0 3044022052b63436752edbc3b64a031f32762ebc579ee7f679ea2d7ba08478af26571f3f02207e8375f02f83d2189d9ebea1991e6fe9baa3174c9a922c8fb9745d66b6cf9f9c[ALL] 3045022100ab858391722b04f8ffa7cf836fe52f70dc22506f34b9716e74f508f6aa3f648502200dceebed19ef2a3a59f270c928cb0fa9a5e05ef9dd35eabcb258b05a05b60e42[ALL] 522102aa3d070a2fbb63178c7a1416fd64a27011a53547c3d8814bc99bae4fc34818ff2102f1c75f9f08d1c8435ddcb8322aded598b57e8c583d98ccdf62a217a64c573c2f2102fc32b598bd3006f9e2f2edc782bb88ffaa388819f834be15e96c5081247d011653ae"}, "vout": 140, "txid": "428745bcce4b8d16a560d9c01466bdc83bcd53a059b384eaf3348f3d5476cd0c"}, {"sequence": 4294967295, "scriptSig": {"hex": "00483045022100d322224aa453a77e4a8365581d1f1cde463e325c4a856c09df76edc0b3cc2d0802200240e395280e3c07a5800aad7e32fad9c390bf97b6d40bd5f75b816b8f7d578b014730440220490f527c80c40f2a841f1ebce5de91ecd04cd1532a92dfaf3849ec7411a2118102202932c622a5b8add5455b3a190f7b656ba5b4fbd78dcd9379926fde63c40acbe6014c69522102aa3d070a2fbb63178c7a1416fd64a27011a53547c3d8814bc99bae4fc34818ff2102f1c75f9f08d1c8435ddcb8322aded598b57e8c583d98ccdf62a217a64c573c2f2102fc32b598bd3006f9e2f2edc782bb88ffaa388819f834be15e96c5081247d011653ae", "asm": "0 3045022100d322224aa453a77e4a8365581d1f1cde463e325c4a856c09df76edc0b3cc2d0802200240e395280e3c07a5800aad7e32fad9c390bf97b6d40bd5f75b816b8f7d578b[ALL] 30440220490f527c80c40f2a841f1ebce5de91ecd04cd1532a92dfaf3849ec7411a2118102202932c622a5b8add5455b3a190f7b656ba5b4fbd78dcd9379926fde63c40acbe6[ALL] 522102aa3d070a2fbb63178c7a1416fd64a27011a53547c3d8814bc99bae4fc34818ff2102f1c75f9f08d1c8435ddcb8322aded598b57e8c583d98ccdf62a217a64c573c2f2102fc32b598bd3006f9e2f2edc782bb88ffaa388819f834be15e96c5081247d011653ae"}, "vout": 142, "txid": "ca3a9711b929bef968b05286b74add46c8c269c34a75346c3bf5657ba320a4c6"}, {"txinwitness": ["", "3045022100ea9b7d8669e3fac947896cc4112258f26c17578d7718ec041a86303abf9bd7a5022004dd93101ef76b78f56b71ba9f0b00acb86b746cd6aaa475d6db91f4454da57001", "3044022009a01113a152735be9dd0fa95e65db6a40708f04deb424f44704e7193bf12c870220132a406fa947eecfe7498a96ba3758949bcc1f1a339e39af32dceeb3ba569b7b01", "522102749d64a55fcd282e9bf5ccc35ee2833d8c638514660a9a07db9148b88bb79e812102f2d90411ac2313eee9abb6b05d1372894efb7406931f8580b5df0265a487b3832103863cc51370688dfd97b76c4b91081e62a3252b1a9f8b8631aa598d3b42ad9fc853ae"], "sequence": 4294967295, "scriptSig": {"hex": "22002024bb89fe1cfdcd9f7f70df9234f77c6eb80a6d22eb695fbcbf885ade4489c20c", "asm": "002024bb89fe1cfdcd9f7f70df9234f77c6eb80a6d22eb695fbcbf885ade4489c20c"}, "vout": 1, "txid": "3b6a5d1e66a95cd65c13470b9a8d15906f8316209afc3bfc7b3eb7a82785a18b"}], "txid": "1fa0d4040e67f21e1f5be7884931ba044d2c0b65cb7196a7746f224ff81b2ff1", "blocktime": 1537871767, "version": 1, "confirmations": 11495, "time": 1537871767, "locktime": 0, "vsize": 777, "size": 969}