{"hash": "563858a4497bd4163602119bbca4fd391cadd6703a5c0c78e03e7e493c525958", "blockhash": "00000000000000000017f5eb5941039fbcee6240d03bc1f2f8e35350df66a1d8", "vout": [{"scriptPubKey": {"reqSigs": 1, "hex": "a914b89af2a4cc41316859f829d4561e096c45c2731b87", "addresses": ["3JX7sobyxXTtSV9yeUxsn5GTAGR64GmQrk"], "asm": "OP_HASH160 b89af2a4cc41316859f829d4561e096c45c2731b OP_EQUAL", "type": "scripthash"}, "value": 10.8, "n": 0}, {"scriptPubKey": {"reqSigs": 1, "hex": "a914cf5f4f7601ac91d971c9e5036d5a5de9bdf7dcb487", "addresses": ["3LbVyXypeFMLrBEFLn8Yq4ftV7qmh2vwPk"], "asm": "OP_HASH160 cf5f4f7601ac91d971c9e5036d5a5de9bdf7dcb4 OP_EQUAL", "type": "scripthash"}, "value": 0.73104889, "n": 1}], "hex": "01000000000102b8dc4c4df57d962d4cfb6f57ca21b04135379b3cc282fb7ed50fce11cde7cba60100000017160014e612313336ec19d4359738881ad55be6daadbf9fffffffff77c0b1ddfc8e73914198a8caf65d01c3cbb6e3c9cdfeef125c1c70b349d37ee801000000171600149f1f3a45edcd96ebc7b7e4f4a3b795b7b284ce63ffffffff02007e5f400000000017a914b89af2a4cc41316859f829d4561e096c45c2731b87f97d5b040000000017a914cf5f4f7601ac91d971c9e5036d5a5de9bdf7dcb4870247304402207d3848b987153519de684a04be7b78bc43ebb9c3dc9305f672b57ee4b1ed97fc02202d642d404a3a20a5fef30a0db3d49dac4f26743a1ddc272fbc9cb9ee765f08fd012102d427b82476649cd0c0501587604dde009a8da95def8e3417603b1d8009d0a0fa02473044022075d340f1b054321d56caa6b9880f3508a620c9bb1a9eae5d860a6cb6f7383ddc02204effb71af02f0f72d32eecd14b1c33df6bb89c1a4a164fed421e885c8fd90e5d012103986257ea3d3a93eff642b9dfcef150d47a7491c6aaf784c17094ff1d5aba9a4e00000000", "vin": [{"txinwitness": ["304402207d3848b987153519de684a04be7b78bc43ebb9c3dc9305f672b57ee4b1ed97fc02202d642d404a3a20a5fef30a0db3d49dac4f26743a1ddc272fbc9cb9ee765f08fd01", "02d427b82476649cd0c0501587604dde009a8da95def8e3417603b1d8009d0a0fa"], "sequence": 4294967295, "scriptSig": {"hex": "160014e612313336ec19d4359738881ad55be6daadbf9f", "asm": "0014e612313336ec19d4359738881ad55be6daadbf9f"}, "vout": 1, "txid": "a6cbe7cd11ce0fd57efb82c23c9b373541b021ca576ffb4c2d967df54d4cdcb8"}, {"txinwitness": ["3044022075d340f1b054321d56caa6b9880f3508a620c9bb1a9eae5d860a6cb6f7383ddc02204effb71af02f0f72d32eecd14b1c33df6bb89c1a4a164fed421e885c8fd90e5d01", "03986257ea3d3a93eff642b9dfcef150d47a7491c6aaf784c17094ff1d5aba9a4e"], "sequence": 4294967295, "scriptSig": {"hex": "1600149f1f3a45edcd96ebc7b7e4f4a3b795b7b284ce63", "asm": "00149f1f3a45edcd96ebc7b7e4f4a3b795b7b284ce63"}, "vout": 1, "txid": "e87ed349b3701c5c12effecdc9e3b6cbc3015df6caa8984191738efcddb1c077"}], "txid": "1fa2e137f7b70e5f7c66615d196e17143edeb76a6091c5a97085757abf1d7ca1", "blocktime": 1537874412, "version": 1, "confirmations": 11467, "time": 1537874412, "locktime": 0, "vsize": 256, "size": 418}