{"hash": "1fa3caa7a0ea33bab8a8580832463551156b77b7d221437944b67bd4f573d3e4", "blockhash": "000000000000000000022b45ed06c6f4ccd3cf7fb5ba4856ebd2e58215665228", "vout": [{"scriptPubKey": {"reqSigs": 1, "hex": "76a914c788b321d2bc38b3955f3d6bb1fc0fee0af8f06d88ac", "addresses": ["1KC3EEpncnWV4kEkqXqvJUjWujorksb6QF"], "asm": "OP_DUP OP_HASH160 c788b321d2bc38b3955f3d6bb1fc0fee0af8f06d OP_EQUALVERIFY OP_CHECKSIG", "type": "pubkeyhash"}, "value": 0.07787, "n": 0}, {"scriptPubKey": {"reqSigs": 1, "hex": "76a9146a56a29ba359b0b1db104166c0ecb6033d3a3c5f88ac", "addresses": ["1AhGQrSNkpKRM2WDu3MTaFKEJ3QW7SGCKg"], "asm": "OP_DUP OP_HASH160 6a56a29ba359b0b1db104166c0ecb6033d3a3c5f OP_EQUALVERIFY OP_CHECKSIG", "type": "pubkeyhash"}, "value": 0.07940966, "n": 1}], "hex": "010000000128a29272fe04435d27125e35629b459864234b3475d6001794920c4ccabde250010000006b483045022100a32a05230445dc85d9f652dc7d6be4614b63342574691c390e1864afcec9361202207ee97bdad729804807d8e6f700e5e8c83c1b48249c36df15b321e799e52234620121033314ac5331e201a7bc2113901074d3ea88be917253c18b369870f93442e6fea0ffffffff02f8d17600000000001976a914c788b321d2bc38b3955f3d6bb1fc0fee0af8f06d88ac662b7900000000001976a9146a56a29ba359b0b1db104166c0ecb6033d3a3c5f88ac00000000", "vin": [{"sequence": 4294967295, "scriptSig": {"hex": "483045022100a32a05230445dc85d9f652dc7d6be4614b63342574691c390e1864afcec9361202207ee97bdad729804807d8e6f700e5e8c83c1b48249c36df15b321e799e52234620121033314ac5331e201a7bc2113901074d3ea88be917253c18b369870f93442e6fea0", "asm": "3045022100a32a05230445dc85d9f652dc7d6be4614b63342574691c390e1864afcec9361202207ee97bdad729804807d8e6f700e5e8c83c1b48249c36df15b321e799e5223462[ALL] 033314ac5331e201a7bc2113901074d3ea88be917253c18b369870f93442e6fea0"}, "vout": 1, "txid": "50e2bdca4c0c92941700d675344b236498459b62355e12275d4304fe7292a228"}], "txid": "1fa3caa7a0ea33bab8a8580832463551156b77b7d221437944b67bd4f573d3e4", "blocktime": 1537869901, "version": 1, "confirmations": 11524, "time": 1537869901, "locktime": 0, "vsize": 226, "size": 226}