{"hash": "1fa8a55c3272d2823f064d5df556c46f07e67abda732b39890fa1bad0995fb7c", "blockhash": "00000000000000000017f5eb5941039fbcee6240d03bc1f2f8e35350df66a1d8", "vout": [{"scriptPubKey": {"reqSigs": 1, "hex": "76a914ad43107ee058beb4162a4a1816d838754dfc0dc988ac", "addresses": ["1Go8EuWeYFzbMRGofykMwDLNLPetFXaRsP"], "asm": "OP_DUP OP_HASH160 ad43107ee058beb4162a4a1816d838754dfc0dc9 OP_EQUALVERIFY OP_CHECKSIG", "type": "pubkeyhash"}, "value": 7.255e-05, "n": 0}, {"scriptPubKey": {"reqSigs": 1, "hex": "a91409e035402fa9ee2aa504e625aa129dac25e7a80887", "addresses": ["32bEbWsnS2tnKr7sEzYgijyb4eZMtbmh1z"], "asm": "OP_HASH160 09e035402fa9ee2aa504e625aa129dac25e7a808 OP_EQUAL", "type": "scripthash"}, "value": 0.00531828, "n": 1}], "hex": "0100000001107301498079d3e5132e8f6c755ecb0a23e3c8f2ac76745d2e8ad1f55f03b517010000006b483045022100ef13b3b7524c6e43f37cf6906ac802ef019b68470828e6b5a033b059828877c602205ccbfe6306ec15cbdc49434ca907fc27070e5b6f1d04455d27273e86bf40f841012103d25c7f6aab69fc1d8e4992f66460ca56769ef58eaf110116b35e525e5e5f29b4ffffffff02571c0000000000001976a914ad43107ee058beb4162a4a1816d838754dfc0dc988ac741d08000000000017a91409e035402fa9ee2aa504e625aa129dac25e7a8088700000000", "vin": [{"sequence": 4294967295, "scriptSig": {"hex": "483045022100ef13b3b7524c6e43f37cf6906ac802ef019b68470828e6b5a033b059828877c602205ccbfe6306ec15cbdc49434ca907fc27070e5b6f1d04455d27273e86bf40f841012103d25c7f6aab69fc1d8e4992f66460ca56769ef58eaf110116b35e525e5e5f29b4", "asm": "3045022100ef13b3b7524c6e43f37cf6906ac802ef019b68470828e6b5a033b059828877c602205ccbfe6306ec15cbdc49434ca907fc27070e5b6f1d04455d27273e86bf40f841[ALL] 03d25c7f6aab69fc1d8e4992f66460ca56769ef58eaf110116b35e525e5e5f29b4"}, "vout": 1, "txid": "17b5035ff5d18a2e5d7476acf2c8e3230acb5e756c8f2e13e5d3798049017310"}], "txid": "1fa8a55c3272d2823f064d5df556c46f07e67abda732b39890fa1bad0995fb7c", "blocktime": 1537874412, "version": 1, "confirmations": 11467, "time": 1537874412, "locktime": 0, "vsize": 224, "size": 224}