{"hash": "65af3c8ceb1addfa48800a587b329d78a2fcfb00d81b07a897f14febad3f0704", "blockhash": "000000000000000000022b45ed06c6f4ccd3cf7fb5ba4856ebd2e58215665228", "vout": [{"scriptPubKey": {"reqSigs": 1, "hex": "76a9142928d3f8127f36feb8e999808f028747cf10c4eb88ac", "addresses": ["14kdceP6aQThvxX9HD4Wu4rfD2VkeuCaZ2"], "asm": "OP_DUP OP_HASH160 2928d3f8127f36feb8e999808f028747cf10c4eb OP_EQUALVERIFY OP_CHECKSIG", "type": "pubkeyhash"}, "value": 0.0020266, "n": 0}, {"scriptPubKey": {"reqSigs": 1, "hex": "a914dd05cb2d071e0f9b5adaab453c69277744dd22d387", "addresses": ["3MqgCVHhh1LYoB2sv744Y75DW7emp1qcTE"], "asm": "OP_HASH160 dd05cb2d071e0f9b5adaab453c69277744dd22d3 OP_EQUAL", "type": "scripthash"}, "value": 0.01057721, "n": 1}], "hex": "02000000000102b38c39173f7e42ea43cda88ef48ba532208bf0ba8836a897cb0a945fef3842620000000017160014412934a3cfb5fef60e0416118f9965579902c1ecfeffffffd179c8e3e87bea2db4ae0c42c2c883672523c0214945897c17afd1db127c8f9f00000000171600145d343f1cf7d958b235f02a9b125c1e74defaac8bfeffffff02a4170300000000001976a9142928d3f8127f36feb8e999808f028747cf10c4eb88acb92310000000000017a914dd05cb2d071e0f9b5adaab453c69277744dd22d3870247304402202a8414845bc510e1564f9e30883252c97bb94c281fcfb24b348ba28ddbd989950220096ecd380715e7adc8f5555a0277a9209825a741262ed937dcff4efab70161520121032652de06efdd61809e49d12fee258e5ba550a1a80ffa1e24035d7c0a8341ca0102483045022100e444373ea10b9f73422e1387491fc520b97fb60ad40bc47b93607955cbd1de11022027f8be3ce5e21eabfdb0aacab764e4777a363a78f9f486e8d64ab37a347656d60121030b1d6ae4f021e8f952038486ad9cecef8095214689f3403fe3708ed49dc0f298fb480800", "vin": [{"txinwitness": ["304402202a8414845bc510e1564f9e30883252c97bb94c281fcfb24b348ba28ddbd989950220096ecd380715e7adc8f5555a0277a9209825a741262ed937dcff4efab701615201", "032652de06efdd61809e49d12fee258e5ba550a1a80ffa1e24035d7c0a8341ca01"], "sequence": 4294967294, "scriptSig": {"hex": "160014412934a3cfb5fef60e0416118f9965579902c1ec", "asm": "0014412934a3cfb5fef60e0416118f9965579902c1ec"}, "vout": 0, "txid": "624238ef5f940acb97a83688baf08b2032a58bf48ea8cd43ea427e3f17398cb3"}, {"txinwitness": ["3045022100e444373ea10b9f73422e1387491fc520b97fb60ad40bc47b93607955cbd1de11022027f8be3ce5e21eabfdb0aacab764e4777a363a78f9f486e8d64ab37a347656d601", "030b1d6ae4f021e8f952038486ad9cecef8095214689f3403fe3708ed49dc0f298"], "sequence": 4294967294, "scriptSig": {"hex": "1600145d343f1cf7d958b235f02a9b125c1e74defaac8b", "asm": "00145d343f1cf7d958b235f02a9b125c1e74defaac8b"}, "vout": 0, "txid": "9f8f7c12dbd1af177c89454921c023256783c8c2420caeb42dea7be8e3c879d1"}], "txid": "1fa93d7747126b47843b769eb4354a85108c29f9a40ca25140f679bc2deed95f", "blocktime": 1537869901, "version": 2, "confirmations": 11524, "time": 1537869901, "locktime": 542971, "vsize": 259, "size": 421}