{"hash": "1fad92933ce705bbe1340161f22ce3414562c160b7f37579ae52667f682ec776", "blockhash": "0000000000000000000e13cef7c366c0283d82e591d1acd082e914b08063cdf1", "vout": [{"scriptPubKey": {"reqSigs": 1, "hex": "76a9145e602b0b36dd48ed1457d92a9a20ad464edae96788ac", "addresses": ["19c1iusV2Nq9VJnKHxvz88xCscwaCHvDTx"], "asm": "OP_DUP OP_HASH160 5e602b0b36dd48ed1457d92a9a20ad464edae967 OP_EQUALVERIFY OP_CHECKSIG", "type": "pubkeyhash"}, "value": 0.00643999, "n": 0}, {"scriptPubKey": {"type": "nulldata", "hex": "6a4c50000077a50001cbb205e5d82553f51ee4a0c3af6c953dd567cf27e7e3ef3236678a6250971726b13df038a3ece4a19bad472bfa265baa0efa0614574a5cb5650d1d100759d4ba30d2c37bb011d97e02cf", "asm": "OP_RETURN 000077a50001cbb205e5d82553f51ee4a0c3af6c953dd567cf27e7e3ef3236678a6250971726b13df038a3ece4a19bad472bfa265baa0efa0614574a5cb5650d1d100759d4ba30d2c37bb011d97e02cf"}, "value": 0.0, "n": 1}], "hex": "01000000018f8a6188240e5566a9530c0b12721b4bc239bb8aa9b3bc077fd48462cb68c94b000000006b483045022100d7fb9cba9fa1388c6e324fbcef205b276bee14b811f8430935c7dd0054b1bb28022017105f327b8843275599f7e351a693941285c9caaeefff3afcba9ce686a5b1ab0121029281ccb58ab787a1e7fd592329ffc1a9e9369365ab0e12f8cd1a78c0105166beffffffff029fd30900000000001976a9145e602b0b36dd48ed1457d92a9a20ad464edae96788ac0000000000000000536a4c50000077a50001cbb205e5d82553f51ee4a0c3af6c953dd567cf27e7e3ef3236678a6250971726b13df038a3ece4a19bad472bfa265baa0efa0614574a5cb5650d1d100759d4ba30d2c37bb011d97e02cf00000000", "vin": [{"sequence": 4294967295, "scriptSig": {"hex": "483045022100d7fb9cba9fa1388c6e324fbcef205b276bee14b811f8430935c7dd0054b1bb28022017105f327b8843275599f7e351a693941285c9caaeefff3afcba9ce686a5b1ab0121029281ccb58ab787a1e7fd592329ffc1a9e9369365ab0e12f8cd1a78c0105166be", "asm": "3045022100d7fb9cba9fa1388c6e324fbcef205b276bee14b811f8430935c7dd0054b1bb28022017105f327b8843275599f7e351a693941285c9caaeefff3afcba9ce686a5b1ab[ALL] 029281ccb58ab787a1e7fd592329ffc1a9e9369365ab0e12f8cd1a78c0105166be"}, "vout": 0, "txid": "4bc968cb6284d47f07bcb3a98abb39c24b1b72120b0c53a966550e2488618a8f"}], "txid": "1fad92933ce705bbe1340161f22ce3414562c160b7f37579ae52667f682ec776", "blocktime": 1537871767, "version": 1, "confirmations": 11495, "time": 1537871767, "locktime": 0, "vsize": 284, "size": 284}