{"hash": "6cf48182fd24ff7c3670d166aa950d4d2ff56fae1316f8b5983e5552e2a81dd2", "blockhash": "0000000000000000001f76057863aec43deb6fa401d9628bb513d65a8098bfab", "vout": [{"scriptPubKey": {"reqSigs": 1, "hex": "a914744f54817479b83aebfc90c8c3531d23663297bc87", "addresses": ["3CJ1LkLorZiZaCyXTD1ZA8QQkoXmnxpq2J"], "asm": "OP_HASH160 744f54817479b83aebfc90c8c3531d23663297bc OP_EQUAL", "type": "scripthash"}, "value": 0.0173341, "n": 0}, {"scriptPubKey": {"reqSigs": 1, "hex": "76a9143c8814cc6e1d220d52c713d787761915fccb3e5488ac", "addresses": ["16X4ZbptRduSA2mWGH2PZsnZXWXCv5spGt"], "asm": "OP_DUP OP_HASH160 3c8814cc6e1d220d52c713d787761915fccb3e54 OP_EQUALVERIFY OP_CHECKSIG", "type": "pubkeyhash"}, "value": 0.00398, "n": 1}], "hex": "02000000000102609dc25808a106bea6097aa73a18e291c1b546bd0e07562082ed6f0e9a0d988101000000171600141d7e639e658eb7a22bba85b53c0b142967cfa86ffeffffffcc0ff3c713cfddb8c389d702a10db92af9f144fbfc6a5fc856d320f7d085a89e0100000017160014f9ad51689838bb91671a0e824c5c9b354e7b490cfeffffff0222731a000000000017a914744f54817479b83aebfc90c8c3531d23663297bc87b0120600000000001976a9143c8814cc6e1d220d52c713d787761915fccb3e5488ac02473044022070f248fe9a1c9440d65cf8ec3872ceb1a322614333d2fd29dd5caf192aa033e202200b4916fa453f77b0e0ea5e78a138dede3b9941d3a38056b869cd3d6d1d4bcbdc0121021c1fca47abfc644a25e652369c3260766989f2aa099e74337c0e7c467a56ccf2024730440220707681dcd9bd1196ca7da742b4fed111395c48253ed84496324c95b1adc0e9a10220018309be78f5e39e500dcfa259dd128e7335babb566a73c1f72d2ef248cd7ad901210244f1def0f80d645363f174d5d4b3fdf4865202a2f760e58f8972c303c08c9c7314490800", "vin": [{"txinwitness": ["3044022070f248fe9a1c9440d65cf8ec3872ceb1a322614333d2fd29dd5caf192aa033e202200b4916fa453f77b0e0ea5e78a138dede3b9941d3a38056b869cd3d6d1d4bcbdc01", "021c1fca47abfc644a25e652369c3260766989f2aa099e74337c0e7c467a56ccf2"], "sequence": 4294967294, "scriptSig": {"hex": "1600141d7e639e658eb7a22bba85b53c0b142967cfa86f", "asm": "00141d7e639e658eb7a22bba85b53c0b142967cfa86f"}, "vout": 1, "txid": "81980d9a0e6fed822056070ebd46b5c191e2183aa77a09a6be06a10858c29d60"}, {"txinwitness": ["30440220707681dcd9bd1196ca7da742b4fed111395c48253ed84496324c95b1adc0e9a10220018309be78f5e39e500dcfa259dd128e7335babb566a73c1f72d2ef248cd7ad901", "0244f1def0f80d645363f174d5d4b3fdf4865202a2f760e58f8972c303c08c9c73"], "sequence": 4294967294, "scriptSig": {"hex": "160014f9ad51689838bb91671a0e824c5c9b354e7b490c", "asm": "0014f9ad51689838bb91671a0e824c5c9b354e7b490c"}, "vout": 1, "txid": "9ea885d0f720d356c85f6afcfb44f1f92ab90da102d789c3b8ddcf13c7f30fcc"}], "txid": "1fb0e07664b62d5ae2e76452bfb3f91424fbf9872895ff5d7173c16e6a07f837", "blocktime": 1537873891, "version": 2, "confirmations": 11478, "time": 1537873891, "locktime": 542996, "vsize": 258, "size": 420}