{"hash": "1fb022cf4c77994be0d8493e227d56ea389f3507a66e226da70c8434c7b1e63d", "blockhash": "0000000000000000001f76057863aec43deb6fa401d9628bb513d65a8098bfab", "vout": [{"scriptPubKey": {"reqSigs": 1, "hex": "76a91410964a106a7cb0c6bdcd3547c1294d77d13637fa88ac", "addresses": ["12WhrMXFGKHeXNGp8EuBbj4hnutVN1du46"], "asm": "OP_DUP OP_HASH160 10964a106a7cb0c6bdcd3547c1294d77d13637fa OP_EQUALVERIFY OP_CHECKSIG", "type": "pubkeyhash"}, "value": 0.00086591, "n": 0}, {"scriptPubKey": {"reqSigs": 1, "hex": "76a914a87c8c0d4663a918de783089a12524ca786d868188ac", "addresses": ["1GMsiunopL5sZuTMaPbCjfwXdJEvC62KSG"], "asm": "OP_DUP OP_HASH160 a87c8c0d4663a918de783089a12524ca786d8681 OP_EQUALVERIFY OP_CHECKSIG", "type": "pubkeyhash"}, "value": 0.09947143, "n": 1}], "hex": "0100000001e3b6cfb14d4b28d554b9461953fcea30b752b97e6376753998b0f7e33f878a3e010000006b483045022100fe03876c8d1b517ad588801b01bac02f16acfaeabb5c1cfa8a03d8cfc5045d2502206d8ee82d44604b1fce93d9d3d61c17d6128d1ed5128245ee6b39752db48c01bf0121028a529b882ca97682e7f83cc2e44a1f6deb15c78dea47747c1d1b17aece1e91a8ffffffff023f520100000000001976a91410964a106a7cb0c6bdcd3547c1294d77d13637fa88ac07c89700000000001976a914a87c8c0d4663a918de783089a12524ca786d868188ac00000000", "vin": [{"sequence": 4294967295, "scriptSig": {"hex": "483045022100fe03876c8d1b517ad588801b01bac02f16acfaeabb5c1cfa8a03d8cfc5045d2502206d8ee82d44604b1fce93d9d3d61c17d6128d1ed5128245ee6b39752db48c01bf0121028a529b882ca97682e7f83cc2e44a1f6deb15c78dea47747c1d1b17aece1e91a8", "asm": "3045022100fe03876c8d1b517ad588801b01bac02f16acfaeabb5c1cfa8a03d8cfc5045d2502206d8ee82d44604b1fce93d9d3d61c17d6128d1ed5128245ee6b39752db48c01bf[ALL] 028a529b882ca97682e7f83cc2e44a1f6deb15c78dea47747c1d1b17aece1e91a8"}, "vout": 1, "txid": "3e8a873fe3f7b098397576637eb952b730eafc531946b954d5284b4db1cfb6e3"}], "txid": "1fb022cf4c77994be0d8493e227d56ea389f3507a66e226da70c8434c7b1e63d", "blocktime": 1537873891, "version": 1, "confirmations": 11474, "time": 1537873891, "locktime": 0, "vsize": 226, "size": 226}