{"hash": "d2f38fae8ba21a52cc524f92d5c3dfae289e274db30ed76b4927afe961c91d81", "blockhash": "00000000000000000018f53835495a110e01622372bf6ae95dc86f2b0ab887b0", "vout": [{"scriptPubKey": {"reqSigs": 1, "hex": "76a914d773d6caf60ab57fec673d792a84af2778d4f3f088ac", "addresses": ["1LeD3t5rvD7mL8WJ4BCRCtJvCKP2sud4S5"], "asm": "OP_DUP OP_HASH160 d773d6caf60ab57fec673d792a84af2778d4f3f0 OP_EQUALVERIFY OP_CHECKSIG", "type": "pubkeyhash"}, "value": 0.03207095, "n": 0}, {"scriptPubKey": {"reqSigs": 1, "hex": "76a9143c2db34d5b5b2e4a2c30614f99f347057e19b77188ac", "addresses": ["16VCHq6WQkQ7pr3ZwtHqhCSiXDgiQfj8Jj"], "asm": "OP_DUP OP_HASH160 3c2db34d5b5b2e4a2c30614f99f347057e19b771 OP_EQUALVERIFY OP_CHECKSIG", "type": "pubkeyhash"}, "value": 0.02057581, "n": 1}, {"scriptPubKey": {"reqSigs": 1, "hex": "76a9149661a2c230865b5e57ee18a255a4c24cca1ddfc188ac", "addresses": ["1Ei9KdNqRE7H562sWehHFuDjSU491sj6Gb"], "asm": "OP_DUP OP_HASH160 9661a2c230865b5e57ee18a255a4c24cca1ddfc1 OP_EQUALVERIFY OP_CHECKSIG", "type": "pubkeyhash"}, "value": 0.02101933, "n": 2}, {"scriptPubKey": {"reqSigs": 1, "hex": "76a914f23d02e778a2a543e5fa333c51d703fcdd26810588ac", "addresses": ["1P5qcZoKP2nDAn1Rco5Wk8cusuAGJm9SS4"], "asm": "OP_DUP OP_HASH160 f23d02e778a2a543e5fa333c51d703fcdd268105 OP_EQUALVERIFY OP_CHECKSIG", "type": "pubkeyhash"}, "value": 0.02057581, "n": 3}, {"scriptPubKey": {"reqSigs": 1, "hex": "76a914cd90a63139914a34bf3fe14a21fd20f3cf3754c888ac", "addresses": ["1KjvojApPAmLQxBXPXcpe39KZDSWBQFxUo"], "asm": "OP_DUP OP_HASH160 cd90a63139914a34bf3fe14a21fd20f3cf3754c8 OP_EQUALVERIFY OP_CHECKSIG", "type": "pubkeyhash"}, "value": 0.01718537, "n": 4}, {"scriptPubKey": {"reqSigs": 1, "hex": "76a9143e8ad3e5fe06aecc0d7f8ecfd6d7b4b054a83dc288ac", "addresses": ["16hhCpAQraqhGNEoTsTYR8roQWEvorQZXY"], "asm": "OP_DUP OP_HASH160 3e8ad3e5fe06aecc0d7f8ecfd6d7b4b054a83dc2 OP_EQUALVERIFY OP_CHECKSIG", "type": "pubkeyhash"}, "value": 0.02286201, "n": 5}, {"scriptPubKey": {"reqSigs": 1, "hex": "a9143cf8bfb947b249c634ce452e2080b67c4ab2e12887", "addresses": ["37FQTRzACeC2Se7pgXN1WJH7YA75QsHNXJ"], "asm": "OP_HASH160 3cf8bfb947b249c634ce452e2080b67c4ab2e128 OP_EQUAL", "type": "scripthash"}, "value": 0.00788159, "n": 6}], "hex": "0200000000010101bce813169d98a027e3c696f261b22579e74997fdac6d7e42eaa05bb7c05579060000001716001408252a4f60bea213aa3fc4dba2f2993664f75faffdffffff07b7ef3000000000001976a914d773d6caf60ab57fec673d792a84af2778d4f3f088ac6d651f00000000001976a9143c2db34d5b5b2e4a2c30614f99f347057e19b77188acad122000000000001976a9149661a2c230865b5e57ee18a255a4c24cca1ddfc188ac6d651f00000000001976a914f23d02e778a2a543e5fa333c51d703fcdd26810588ac09391a00000000001976a914cd90a63139914a34bf3fe14a21fd20f3cf3754c888ac79e22200000000001976a9143e8ad3e5fe06aecc0d7f8ecfd6d7b4b054a83dc288acbf060c000000000017a9143cf8bfb947b249c634ce452e2080b67c4ab2e128870247304402203b0e4b312a49fe26254f7bd51f36b32d192d8dc959d79af815baa1028d5431d10220661e6fb32bf0efc3604aa3bcfbd883752ecb011511b3b8d9fe61b3b51421471c012103f2cb5adb168d38a6dadfad9a4b2561022688477fbd8b86a423756853b57bb56e01000000", "vin": [{"txinwitness": ["304402203b0e4b312a49fe26254f7bd51f36b32d192d8dc959d79af815baa1028d5431d10220661e6fb32bf0efc3604aa3bcfbd883752ecb011511b3b8d9fe61b3b51421471c01", "03f2cb5adb168d38a6dadfad9a4b2561022688477fbd8b86a423756853b57bb56e"], "sequence": 4294967293, "scriptSig": {"hex": "16001408252a4f60bea213aa3fc4dba2f2993664f75faf", "asm": "001408252a4f60bea213aa3fc4dba2f2993664f75faf"}, "vout": 6, "txid": "7955c0b75ba0ea427e6dacfd9749e77925b261f296c6e327a0989d1613e8bc01"}], "txid": "1fb567f4167a85e715fcdce4678d270b338ef87b483f3ec13c2a09f349d60185", "blocktime": 1537870928, "version": 2, "confirmations": 11512, "time": 1537870928, "locktime": 1, "vsize": 338, "size": 419}