{"hash": "1fce5d6bc4dca62db5747f56e9fdca8495d1cfaf30ed95c1a11baf7ca94ef20e", "blockhash": "0000000000000000000baef3f32e3676a92c3b2e5da21b426e4f302fc371ce76", "vout": [{"scriptPubKey": {"reqSigs": 1, "hex": "76a9143a5dea5f3fd807a661faf48cf4fa10233e077a3d88ac", "addresses": ["16KchVTQ4iAUWDp94nZRBYn5yaiXGuaj4v"], "asm": "OP_DUP OP_HASH160 3a5dea5f3fd807a661faf48cf4fa10233e077a3d OP_EQUALVERIFY OP_CHECKSIG", "type": "pubkeyhash"}, "value": 0.05219005, "n": 0}, {"scriptPubKey": {"reqSigs": 1, "hex": "a914f42d916e98a6011873e496dfa96c1f3f530518ed87", "addresses": ["3Px7PUd1y6qrvSDPb6FBHQfgHVCKxGypH7"], "asm": "OP_HASH160 f42d916e98a6011873e496dfa96c1f3f530518ed OP_EQUAL", "type": "scripthash"}, "value": 0.70194301, "n": 1}], "hex": "0200000001e741c11f7b10dff344ee5a4350c00efd79810966a601440271e087abfe95c286000000006b483045022100879a7fa707091e710e661c519db2452d193f1b47e6c6fc7afea25d19cd2672d502201d9d6ece28a979f4b92eee78e97ac8418f5f1c8ad30973dc68bf1bcf1aae5bbc0121033c17d6a3aaac0da9c9fec903b7e8fb7dd3b0d57206675bf175ed6f8c19289403feffffff02bda24f00000000001976a9143a5dea5f3fd807a661faf48cf4fa10233e077a3d88ac7d142f040000000017a914f42d916e98a6011873e496dfa96c1f3f530518ed8717490800", "vin": [{"sequence": 4294967294, "scriptSig": {"hex": "483045022100879a7fa707091e710e661c519db2452d193f1b47e6c6fc7afea25d19cd2672d502201d9d6ece28a979f4b92eee78e97ac8418f5f1c8ad30973dc68bf1bcf1aae5bbc0121033c17d6a3aaac0da9c9fec903b7e8fb7dd3b0d57206675bf175ed6f8c19289403", "asm": "3045022100879a7fa707091e710e661c519db2452d193f1b47e6c6fc7afea25d19cd2672d502201d9d6ece28a979f4b92eee78e97ac8418f5f1c8ad30973dc68bf1bcf1aae5bbc[ALL] 033c17d6a3aaac0da9c9fec903b7e8fb7dd3b0d57206675bf175ed6f8c19289403"}, "vout": 0, "txid": "86c295feab87e071024401a666098179fd0ec050435aee44f3df107b1fc141e7"}], "txid": "1fce5d6bc4dca62db5747f56e9fdca8495d1cfaf30ed95c1a11baf7ca94ef20e", "blocktime": 1537876114, "version": 2, "confirmations": 11459, "time": 1537876114, "locktime": 542999, "vsize": 224, "size": 224}