{"hash": "1fcf527dab3aca7c873a898cc73446037ce1f24420b36f00566cd44550194a26", "blockhash": "00000000000000000017f5eb5941039fbcee6240d03bc1f2f8e35350df66a1d8", "vout": [{"scriptPubKey": {"reqSigs": 1, "hex": "a9141e6c478c53b7b09f3abddf5c35cd7067fb5ed25687", "addresses": ["34TsugveAyseTGtkkr3JsnYpqwBWKzRJHD"], "asm": "OP_HASH160 1e6c478c53b7b09f3abddf5c35cd7067fb5ed256 OP_EQUAL", "type": "scripthash"}, "value": 0.02692077, "n": 0}, {"scriptPubKey": {"reqSigs": 1, "hex": "76a9146928d2ecfd2b43b2e8ae2ad161612f724216981788ac", "addresses": ["1Ab2re2s3QaeNSsY78v3EhS937bs9yZNkm"], "asm": "OP_DUP OP_HASH160 6928d2ecfd2b43b2e8ae2ad161612f7242169817 OP_EQUALVERIFY OP_CHECKSIG", "type": "pubkeyhash"}, "value": 1.05485663, "n": 1}], "hex": "0200000001547cdaaa691d9e309d0b20aea9f79bcc9eb6e836d04d66769dea5cb943d70517000000006a473044022039f7b8ff78e205d8f6c1f726999ec1b396fdffa0ca481da796b71976e65a884b022041d768cf4680e7465fea6356a109ad965e0d75ef3b82a80ff256aae5dd1d1850012103722667d1472c8c7c032be707b94c4759cfc97de7c5faaaf980c8b98f10b7e374feffffff02ed1329000000000017a9141e6c478c53b7b09f3abddf5c35cd7067fb5ed256875f954906000000001976a9146928d2ecfd2b43b2e8ae2ad161612f724216981788ac15490800", "vin": [{"sequence": 4294967294, "scriptSig": {"hex": "473044022039f7b8ff78e205d8f6c1f726999ec1b396fdffa0ca481da796b71976e65a884b022041d768cf4680e7465fea6356a109ad965e0d75ef3b82a80ff256aae5dd1d1850012103722667d1472c8c7c032be707b94c4759cfc97de7c5faaaf980c8b98f10b7e374", "asm": "3044022039f7b8ff78e205d8f6c1f726999ec1b396fdffa0ca481da796b71976e65a884b022041d768cf4680e7465fea6356a109ad965e0d75ef3b82a80ff256aae5dd1d1850[ALL] 03722667d1472c8c7c032be707b94c4759cfc97de7c5faaaf980c8b98f10b7e374"}, "vout": 0, "txid": "1705d743b95cea9d76664dd036e8b69ecc9bf7a9ae200b9d309e1d69aada7c54"}], "txid": "1fcf527dab3aca7c873a898cc73446037ce1f24420b36f00566cd44550194a26", "blocktime": 1537874412, "version": 2, "confirmations": 11468, "time": 1537874412, "locktime": 542997, "vsize": 223, "size": 223}