{"hash": "9051e9ea121c0091e6fa663316d5e84b5bb497b390609eee82d73b458818ca2c", "blockhash": "0000000000000000000baef3f32e3676a92c3b2e5da21b426e4f302fc371ce76", "vout": [{"scriptPubKey": {"reqSigs": 1, "hex": "76a914cfd4957e15a99d85e1f1a500d06457730df0332088ac", "addresses": ["1KwuYJTin7hLcFyp171GZmbYYBveRVf2Xb"], "asm": "OP_DUP OP_HASH160 cfd4957e15a99d85e1f1a500d06457730df03320 OP_EQUALVERIFY OP_CHECKSIG", "type": "pubkeyhash"}, "value": 0.00196783, "n": 0}, {"scriptPubKey": {"reqSigs": 1, "hex": "a914cfaabfe8c271f99a4364b5197ba50c6cddb7adb987", "addresses": ["3Ld4M9RPwEG3VeQbHcC1PsKUndQL7VYLZP"], "asm": "OP_HASH160 cfaabfe8c271f99a4364b5197ba50c6cddb7adb9 OP_EQUAL", "type": "scripthash"}, "value": 0.07672643, "n": 1}], "hex": "01000000000101543ca0e61b8dbb257210b76ed20db7b65c61e008b5090600756102c0dd08cccb01000000232200202f7b4024602241b47d3306a6733d9889e4b6761d9f1cb82a18aa8b9ac4506e51ffffffff02af000300000000001976a914cfd4957e15a99d85e1f1a500d06457730df0332088ac431375000000000017a914cfaabfe8c271f99a4364b5197ba50c6cddb7adb987040047304402203191f09ef229bfcb2e2694ad780f484e6da839c9af637a8e0fb2917938a0b36b02201daa0e6c9902ed060c458eb1ee3c6c64fb5d25d85e5e33b889ecd84a148f1054014730440220617b0bbb7abe37cf16a203a8a2fe7c1ea9ec3967582f670a9f4d5de0c91b947d02205914cb66a24702d6f26a9b4db3f62481156b3b8beb5f77463ecac8b09148b9330147522102973cd851fecff3a20f08377b072729f303801eee1b7678668338adcaec770ec221033e4af03ed09dbd8a417ba042650d5bd1db7f14f271a8f660974e3abf1fdfa4da52ae00000000", "vin": [{"txinwitness": ["", "304402203191f09ef229bfcb2e2694ad780f484e6da839c9af637a8e0fb2917938a0b36b02201daa0e6c9902ed060c458eb1ee3c6c64fb5d25d85e5e33b889ecd84a148f105401", "30440220617b0bbb7abe37cf16a203a8a2fe7c1ea9ec3967582f670a9f4d5de0c91b947d02205914cb66a24702d6f26a9b4db3f62481156b3b8beb5f77463ecac8b09148b93301", "522102973cd851fecff3a20f08377b072729f303801eee1b7678668338adcaec770ec221033e4af03ed09dbd8a417ba042650d5bd1db7f14f271a8f660974e3abf1fdfa4da52ae"], "sequence": 4294967295, "scriptSig": {"hex": "2200202f7b4024602241b47d3306a6733d9889e4b6761d9f1cb82a18aa8b9ac4506e51", "asm": "00202f7b4024602241b47d3306a6733d9889e4b6761d9f1cb82a18aa8b9ac4506e51"}, "vout": 1, "txid": "cbcc08ddc0026175000609b508e0615cb6b70dd26eb7107225bb8d1be6a03c54"}], "txid": "1fd0d46bbd69f2bff9a3c1ae76f15c90845512957bd57de1a3ab3788c44fce10", "blocktime": 1537876114, "version": 1, "confirmations": 11460, "time": 1537876114, "locktime": 0, "vsize": 207, "size": 372}