{"hash": "d91cff9e9c3d406eb49e11eeb50c23586102d58ac33d300d4708d0d049470891", "blockhash": "00000000000000000004ffacab907a6b429b9a5745fa0b75af4234bf69dd7176", "vout": [{"scriptPubKey": {"reqSigs": 1, "hex": "a914fba14590ec5bdb4ded605a2917bc98b8570976d787", "addresses": ["3QdWj3sVRLEmggTmHqTvrc1tAJ3coszkdm"], "asm": "OP_HASH160 fba14590ec5bdb4ded605a2917bc98b8570976d7 OP_EQUAL", "type": "scripthash"}, "value": 0.01, "n": 0}, {"scriptPubKey": {"reqSigs": 1, "hex": "0014f90afe499d83dfd01e6ba548f502368a545829ed", "addresses": ["bc1qly90ujvas00aq8nt54y02q3k3f29s20dzsp766"], "asm": "0 f90afe499d83dfd01e6ba548f502368a545829ed", "type": "witness_v0_keyhash"}, "value": 0.31981085, "n": 1}], "hex": "0100000000010186e0b0e23401d86bbb96cfb902c8a0beafdbe1fe2e04c2e0872385ccd0aa65840100000000ffffffff0240420f000000000017a914fba14590ec5bdb4ded605a2917bc98b8570976d7871dfee70100000000160014f90afe499d83dfd01e6ba548f502368a545829ed024730440220628262edc384ca9d6e1ece0886b11a61ca72d7668da17bf2df175aab4caa59170220190f4364513e8670490c00e9adc4aca8d5eb104f38784513da5d0842e8fcbe5b012103cecd8dcf5024b6ac7a02143536444ee0323440f768cab394841cfdd02d8d6e6900000000", "vin": [{"txinwitness": ["30440220628262edc384ca9d6e1ece0886b11a61ca72d7668da17bf2df175aab4caa59170220190f4364513e8670490c00e9adc4aca8d5eb104f38784513da5d0842e8fcbe5b01", "03cecd8dcf5024b6ac7a02143536444ee0323440f768cab394841cfdd02d8d6e69"], "sequence": 4294967295, "scriptSig": {"hex": "", "asm": ""}, "vout": 1, "txid": "8465aad0cc852387e0c2042efee1dbafbea0c802b9cf96bb6bd80134e2b0e086"}], "txid": "1fdd444c90d70338611cb7bcce98d928e96b19c20948304b73292a0c77b0636a", "blocktime": 1537875543, "version": 1, "confirmations": 11464, "time": 1537875543, "locktime": 0, "vsize": 142, "size": 223}