{"hash": "1fe06820c1ef2311d362b6b38034d82c58c3a9ff63ad72ee11e8268a044a46be", "blockhash": "0000000000000000001e0dab787dd257d1dbfcb92a98c2207d5e1078be1f4165", "vout": [{"scriptPubKey": {"reqSigs": 1, "hex": "a9146411e0f23a7ce1a788f5fba85e63d47540f11dc887", "addresses": ["3Ap8uxeyEBuCWSGEH7nFkCmAAV3ETUMike"], "asm": "OP_HASH160 6411e0f23a7ce1a788f5fba85e63d47540f11dc8 OP_EQUAL", "type": "scripthash"}, "value": 0.03464562, "n": 0}, {"scriptPubKey": {"reqSigs": 1, "hex": "76a914723dfd91c9db45a790c5784e5218c9ddcfe9976188ac", "addresses": ["1BR4J3ambuCakdLHe2GZdhbmdHHv7numLv"], "asm": "OP_DUP OP_HASH160 723dfd91c9db45a790c5784e5218c9ddcfe99761 OP_EQUALVERIFY OP_CHECKSIG", "type": "pubkeyhash"}, "value": 0.1299184, "n": 1}], "hex": "01000000011bb596edfb3e439755d1ee9776407befa8da3550eaeb78f046bb9c21739267f5010000006b483045022100a6967dbe4b5b39b44dd050dd750632879dc9132d919e7d6093d39ec74c74ab9302204aef3434f2f270e2cfc60c7d25fbccd6cfc6da9ee9d3425e4c3332c54c65c546012102595e4b0657af65678b24dedef1141f773c9ede68582ece2272f5112f3058e353ffffffff0272dd34000000000017a9146411e0f23a7ce1a788f5fba85e63d47540f11dc887603dc600000000001976a914723dfd91c9db45a790c5784e5218c9ddcfe9976188ac00000000", "vin": [{"sequence": 4294967295, "scriptSig": {"hex": "483045022100a6967dbe4b5b39b44dd050dd750632879dc9132d919e7d6093d39ec74c74ab9302204aef3434f2f270e2cfc60c7d25fbccd6cfc6da9ee9d3425e4c3332c54c65c546012102595e4b0657af65678b24dedef1141f773c9ede68582ece2272f5112f3058e353", "asm": "3045022100a6967dbe4b5b39b44dd050dd750632879dc9132d919e7d6093d39ec74c74ab9302204aef3434f2f270e2cfc60c7d25fbccd6cfc6da9ee9d3425e4c3332c54c65c546[ALL] 02595e4b0657af65678b24dedef1141f773c9ede68582ece2272f5112f3058e353"}, "vout": 1, "txid": "f5679273219cbb46f078ebea5035daa8ef7b407697eed15597433efbed96b51b"}], "txid": "1fe06820c1ef2311d362b6b38034d82c58c3a9ff63ad72ee11e8268a044a46be", "blocktime": 1537872475, "version": 1, "confirmations": 11486, "time": 1537872475, "locktime": 0, "vsize": 224, "size": 224}