{"hash": "1fe0f43ef564988dcbb1afc45697cc19c702513cb8dac239e75657c1a3603529", "blockhash": "0000000000000000001e0dab787dd257d1dbfcb92a98c2207d5e1078be1f4165", "vout": [{"scriptPubKey": {"reqSigs": 1, "hex": "76a914a25dec4d0011064ef106a983c39c7a540699f22088ac", "addresses": ["1FoWyxwPXuj4C6abqwhjDWdz6D4PZgYRjA"], "asm": "OP_DUP OP_HASH160 a25dec4d0011064ef106a983c39c7a540699f220 OP_EQUALVERIFY OP_CHECKSIG", "type": "pubkeyhash"}, "value": 0.01985619, "n": 0}, {"scriptPubKey": {"type": "nulldata", "hex": "6a146f6d6e69000000000000001f000002138878fe48", "asm": "OP_RETURN 6f6d6e69000000000000001f000002138878fe48"}, "value": 0.0, "n": 1}, {"scriptPubKey": {"reqSigs": 1, "hex": "a914c454952170c327259f7242d14d15a9e410427dc487", "addresses": ["3Kb7h3JbPcSi19kH6MUqRVPWpguhiVYXjE"], "asm": "OP_HASH160 c454952170c327259f7242d14d15a9e410427dc4 OP_EQUAL", "type": "scripthash"}, "value": 5.4e-06, "n": 2}], "hex": "010000000102d98bab99f17b2eec4d895b15554bdccbeda843d001a8697785811d36d78000020000006a473044022005f81c16dcf1f639f21e7934b4c399ee5e5073549ed5885ea510fe9c0c15a79202202fe86ef36fa001fb605352d7859699c1051ca0be390309f3c99444e588c86161012103da5bac7b36d5aa38f531c6b9601e21bb598a4b6716ebed38b009a55dabde9440feffffff03534c1e00000000001976a914a25dec4d0011064ef106a983c39c7a540699f22088ac0000000000000000166a146f6d6e69000000000000001f000002138878fe481c0200000000000017a914c454952170c327259f7242d14d15a9e410427dc48712490800", "vin": [{"sequence": 4294967294, "scriptSig": {"hex": "473044022005f81c16dcf1f639f21e7934b4c399ee5e5073549ed5885ea510fe9c0c15a79202202fe86ef36fa001fb605352d7859699c1051ca0be390309f3c99444e588c86161012103da5bac7b36d5aa38f531c6b9601e21bb598a4b6716ebed38b009a55dabde9440", "asm": "3044022005f81c16dcf1f639f21e7934b4c399ee5e5073549ed5885ea510fe9c0c15a79202202fe86ef36fa001fb605352d7859699c1051ca0be390309f3c99444e588c86161[ALL] 03da5bac7b36d5aa38f531c6b9601e21bb598a4b6716ebed38b009a55dabde9440"}, "vout": 2, "txid": "0080d7361d81857769a801d043a8edcbdc4b55155b894dec2e7bf199ab8bd902"}], "txid": "1fe0f43ef564988dcbb1afc45697cc19c702513cb8dac239e75657c1a3603529", "blocktime": 1537872475, "version": 1, "confirmations": 11486, "time": 1537872475, "locktime": 542994, "vsize": 254, "size": 254}