{"hash": "1fe208aa2aa8965a3191290b8e1b2004d8252b5d3c9faf0f5db6b7583cb41a5e", "blockhash": "00000000000000000004ffacab907a6b429b9a5745fa0b75af4234bf69dd7176", "vout": [{"scriptPubKey": {"reqSigs": 1, "hex": "76a91458919f5cc89157d18ed6ae7009d33704759e7f3688ac", "addresses": ["195JuuoeegdRXzS1i1FTa3gKb3GRCmbtsH"], "asm": "OP_DUP OP_HASH160 58919f5cc89157d18ed6ae7009d33704759e7f36 OP_EQUALVERIFY OP_CHECKSIG", "type": "pubkeyhash"}, "value": 0.00137202, "n": 0}, {"scriptPubKey": {"reqSigs": 1, "hex": "76a9144a04ff69be1172fcf969053a483e51075139447888ac", "addresses": ["17kNzSeh3pLCcdpWALqhRMVxY8pmNELhqG"], "asm": "OP_DUP OP_HASH160 4a04ff69be1172fcf969053a483e510751394478 OP_EQUALVERIFY OP_CHECKSIG", "type": "pubkeyhash"}, "value": 0.22086325, "n": 1}], "hex": "0200000001c9e6d412860cf990b7067454355d33b9ad02d9bed86171ea4ff606e1139703d6010000006b483045022100e6a19b45f742a43af795b2dbe2f7f691731d7afb01ed419f034c241f5c33202502200f5bf306e6db15146f5bdf90645b3bc9e9013d587242731d1c7484ce2653e08701210308a574d5eb731eac41455fa99b3e2a6e36f184147b584a5f9b14b5df38e30799ffffffff02f2170200000000001976a91458919f5cc89157d18ed6ae7009d33704759e7f3688acb5025101000000001976a9144a04ff69be1172fcf969053a483e51075139447888ac00000000", "vin": [{"sequence": 4294967295, "scriptSig": {"hex": "483045022100e6a19b45f742a43af795b2dbe2f7f691731d7afb01ed419f034c241f5c33202502200f5bf306e6db15146f5bdf90645b3bc9e9013d587242731d1c7484ce2653e08701210308a574d5eb731eac41455fa99b3e2a6e36f184147b584a5f9b14b5df38e30799", "asm": "3045022100e6a19b45f742a43af795b2dbe2f7f691731d7afb01ed419f034c241f5c33202502200f5bf306e6db15146f5bdf90645b3bc9e9013d587242731d1c7484ce2653e087[ALL] 0308a574d5eb731eac41455fa99b3e2a6e36f184147b584a5f9b14b5df38e30799"}, "vout": 1, "txid": "d6039713e106f64fea7161d8bed902adb9335d35547406b790f90c8612d4e6c9"}], "txid": "1fe208aa2aa8965a3191290b8e1b2004d8252b5d3c9faf0f5db6b7583cb41a5e", "blocktime": 1537875543, "version": 2, "confirmations": 11464, "time": 1537875543, "locktime": 0, "vsize": 226, "size": 226}