{"hash": "1fead7cc012221d6d02ccf6df3000729203201a866ae81c28487564f247de548", "blockhash": "00000000000000000024a2167bbff67b0be802c0b01cdd79e6331c2be6459f87", "vout": [{"scriptPubKey": {"reqSigs": 1, "hex": "76a9148523c07d369e5b83284525d7b6579eca1a12255088ac", "addresses": ["1D8yhbnYAShQuVFfuCBFDYGdNQUs4PvrpK"], "asm": "OP_DUP OP_HASH160 8523c07d369e5b83284525d7b6579eca1a122550 OP_EQUALVERIFY OP_CHECKSIG", "type": "pubkeyhash"}, "value": 0.00133, "n": 0}, {"scriptPubKey": {"reqSigs": 1, "hex": "76a9142905c419f20f43091f8e4dfd328625c58d82ce1e88ac", "addresses": ["14jucVirzFU4YNPiuFdsGbQEvsSkpb8kKh"], "asm": "OP_DUP OP_HASH160 2905c419f20f43091f8e4dfd328625c58d82ce1e OP_EQUALVERIFY OP_CHECKSIG", "type": "pubkeyhash"}, "value": 0.03782207, "n": 1}], "hex": "0200000001d3293a9c57b69a9ea663ed4b69d688fab8c7dcda74053d587189078ce5c62ec3010000006b483045022100b4db271e034ec24ebb9d374b2ddf067b48d40df0fb591fd10a57990de37585a902200812ba3218902a138f8e84eb5e9077c1d68aba96a48de13d1d5a20bb1e5e3483012102553619577d3b092e0dbd1d1f75ca7faa85e1f576ca2891c8ff3bc04d72904356ffffffff0288070200000000001976a9148523c07d369e5b83284525d7b6579eca1a12255088ac3fb63900000000001976a9142905c419f20f43091f8e4dfd328625c58d82ce1e88ac00000000", "vin": [{"sequence": 4294967295, "scriptSig": {"hex": "483045022100b4db271e034ec24ebb9d374b2ddf067b48d40df0fb591fd10a57990de37585a902200812ba3218902a138f8e84eb5e9077c1d68aba96a48de13d1d5a20bb1e5e3483012102553619577d3b092e0dbd1d1f75ca7faa85e1f576ca2891c8ff3bc04d72904356", "asm": "3045022100b4db271e034ec24ebb9d374b2ddf067b48d40df0fb591fd10a57990de37585a902200812ba3218902a138f8e84eb5e9077c1d68aba96a48de13d1d5a20bb1e5e3483[ALL] 02553619577d3b092e0dbd1d1f75ca7faa85e1f576ca2891c8ff3bc04d72904356"}, "vout": 1, "txid": "c32ec6e58c078971583d0574dadcc7b8fa88d6694bed63a69e9ab6579c3a29d3"}], "txid": "1fead7cc012221d6d02ccf6df3000729203201a866ae81c28487564f247de548", "blocktime": 1537870564, "version": 2, "confirmations": 11515, "time": 1537870564, "locktime": 0, "vsize": 226, "size": 226}