{"hash": "1fec65f1665d6f39e12b66afd7c7e488bd7beacc82f6719cf9cb1b3622380e0c", "blockhash": "000000000000000000022b45ed06c6f4ccd3cf7fb5ba4856ebd2e58215665228", "vout": [{"scriptPubKey": {"reqSigs": 1, "hex": "76a9144a0f1e2f2b0d7daeec5265f10bbbbe08ed725e8988ac", "addresses": ["17kb7c9ndg7ioSuzMWEHWECdEVUegNkcGc"], "asm": "OP_DUP OP_HASH160 4a0f1e2f2b0d7daeec5265f10bbbbe08ed725e89 OP_EQUALVERIFY OP_CHECKSIG", "type": "pubkeyhash"}, "value": 2.717e-05, "n": 0}], "hex": "0100000001aeccc93fe507ba6691a3548ffdd0a93968c2ae29fd6f3e8aa80001282cecc363000000006b4830450221009f85c73f0d3aa56bdf1ccf7df6c7427777b7b503e0af703aa61ac2750dc5c2250220421c035779d114039295d8c4515a21d72f80e63b3b27b82f548e0eb976367ad9012102675223ae53d37477a3ec88cc703566b654147790b78e7fb30c5d957936d411a8ffffffff019d0a0000000000001976a9144a0f1e2f2b0d7daeec5265f10bbbbe08ed725e8988ac00000000", "vin": [{"sequence": 4294967295, "scriptSig": {"hex": "4830450221009f85c73f0d3aa56bdf1ccf7df6c7427777b7b503e0af703aa61ac2750dc5c2250220421c035779d114039295d8c4515a21d72f80e63b3b27b82f548e0eb976367ad9012102675223ae53d37477a3ec88cc703566b654147790b78e7fb30c5d957936d411a8", "asm": "30450221009f85c73f0d3aa56bdf1ccf7df6c7427777b7b503e0af703aa61ac2750dc5c2250220421c035779d114039295d8c4515a21d72f80e63b3b27b82f548e0eb976367ad9[ALL] 02675223ae53d37477a3ec88cc703566b654147790b78e7fb30c5d957936d411a8"}, "vout": 0, "txid": "63c3ec2c280100a88a3e6ffd29aec26839a9d0fd8f54a39166ba07e53fc9ccae"}], "txid": "1fec65f1665d6f39e12b66afd7c7e488bd7beacc82f6719cf9cb1b3622380e0c", "blocktime": 1537869901, "version": 1, "confirmations": 11522, "time": 1537869901, "locktime": 0, "vsize": 192, "size": 192}