{"hash": "2001b71cbfe0b4a281afde1a06e0476390038700fe250cbe0385a05bb26fbb9e", "blockhash": "000000000000000000022b45ed06c6f4ccd3cf7fb5ba4856ebd2e58215665228", "vout": [{"scriptPubKey": {"reqSigs": 1, "hex": "76a914d94b4712e5155f47c5917fa8bae513d15799254088ac", "addresses": ["1Lowp1WWRthTQYKite8gY5tCMW9pUiqads"], "asm": "OP_DUP OP_HASH160 d94b4712e5155f47c5917fa8bae513d157992540 OP_EQUALVERIFY OP_CHECKSIG", "type": "pubkeyhash"}, "value": 0.00199117, "n": 0}, {"scriptPubKey": {"reqSigs": 1, "hex": "76a91489ba072233a1819bd8a5c584a643821d1fd1c2b188ac", "addresses": ["1DZERixkZyHYpy3bDVUCowHGqC19sCrEhT"], "asm": "OP_DUP OP_HASH160 89ba072233a1819bd8a5c584a643821d1fd1c2b1 OP_EQUALVERIFY OP_CHECKSIG", "type": "pubkeyhash"}, "value": 0.0233865, "n": 1}], "hex": "01000000027ee7554fa995425427c4b52e6286bec18f077337d9b0a0d0c73a89f97060dd08010000006a473044022048cb44b89e9319d375cd3a7a1e56d3aa377025e22b3e2eca4453b8d171c5fe1502201a1daa97562d74017206c61d6c0dc507a473724e5f1371176b1bb71e19d1fedf012103747e88b21c1e9c909862d15e479abb58495d2082672da9712eeecffc99cdd52bffffffffeb7eafde67d8e3d3e6b68eca8079a03b612e48a09bf0a54ad714feab492cd16e000000006b483045022100e6e906297b63b781dbfe7cb7b1a97789b8db5d0c38307495c236510a510fe275022050a345bd4e25eef718a401ef8d9ff14fdebd668e474d39180c27820d1c6d50ac012102f9ab32eef4fc5bbdae938da349adf7127d5286c1aa118bda0d1b3cd016bcdae2ffffffff02cd090300000000001976a914d94b4712e5155f47c5917fa8bae513d15799254088ac5aaf2300000000001976a91489ba072233a1819bd8a5c584a643821d1fd1c2b188ac00000000", "vin": [{"sequence": 4294967295, "scriptSig": {"hex": "473044022048cb44b89e9319d375cd3a7a1e56d3aa377025e22b3e2eca4453b8d171c5fe1502201a1daa97562d74017206c61d6c0dc507a473724e5f1371176b1bb71e19d1fedf012103747e88b21c1e9c909862d15e479abb58495d2082672da9712eeecffc99cdd52b", "asm": "3044022048cb44b89e9319d375cd3a7a1e56d3aa377025e22b3e2eca4453b8d171c5fe1502201a1daa97562d74017206c61d6c0dc507a473724e5f1371176b1bb71e19d1fedf[ALL] 03747e88b21c1e9c909862d15e479abb58495d2082672da9712eeecffc99cdd52b"}, "vout": 1, "txid": "08dd6070f9893ac7d0a0b0d93773078fc1be86622eb5c427544295a94f55e77e"}, {"sequence": 4294967295, "scriptSig": {"hex": "483045022100e6e906297b63b781dbfe7cb7b1a97789b8db5d0c38307495c236510a510fe275022050a345bd4e25eef718a401ef8d9ff14fdebd668e474d39180c27820d1c6d50ac012102f9ab32eef4fc5bbdae938da349adf7127d5286c1aa118bda0d1b3cd016bcdae2", "asm": "3045022100e6e906297b63b781dbfe7cb7b1a97789b8db5d0c38307495c236510a510fe275022050a345bd4e25eef718a401ef8d9ff14fdebd668e474d39180c27820d1c6d50ac[ALL] 02f9ab32eef4fc5bbdae938da349adf7127d5286c1aa118bda0d1b3cd016bcdae2"}, "vout": 0, "txid": "6ed12c49abfe14d74aa5f09ba0482e613ba07980ca8eb6e6d3e3d867deaf7eeb"}], "txid": "2001b71cbfe0b4a281afde1a06e0476390038700fe250cbe0385a05bb26fbb9e", "blocktime": 1537869901, "version": 1, "confirmations": 11522, "time": 1537869901, "locktime": 0, "vsize": 373, "size": 373}