{"hash": "47e40d4eb61212d8ef88f4e9f5f548ad1b956a4e1c4c2a6d6d9f89d24727e1f4", "blockhash": "0000000000000000001f0ddff1eddb255c1121bcd4da4f1bc9a0da00cae72433", "vout": [{"scriptPubKey": {"reqSigs": 1, "hex": "a91425c9d9f872d295dfb0a2e81c7203f5281f97c35d87", "addresses": ["358pjXTQkDfVdkyhR15qjFB2fUgxBgSm6U"], "asm": "OP_HASH160 25c9d9f872d295dfb0a2e81c7203f5281f97c35d OP_EQUAL", "type": "scripthash"}, "value": 0.00761486, "n": 0}, {"scriptPubKey": {"reqSigs": 1, "hex": "a914e612696a6bd24bdac8818d302db046c66448b50287", "addresses": ["3NfXPwLYG4sYtcQxnxyGCQbkAMgFF9nova"], "asm": "OP_HASH160 e612696a6bd24bdac8818d302db046c66448b502 OP_EQUAL", "type": "scripthash"}, "value": 0.18622796, "n": 1}], "hex": "01000000000101c47db7151bfc2c11ee679921dd806de9e5f13d23c47df1e501805ac1438230c0000000002322002026b2e74b8df4189fbef0f3997b2e91ade7a34ff6d5803483d99f49af54b37077ffffffff028e9e0b000000000017a91425c9d9f872d295dfb0a2e81c7203f5281f97c35d874c291c010000000017a914e612696a6bd24bdac8818d302db046c66448b50287040047304402205a11d732eef9ea7cb03e212fcae4ea5df3ce9aac0e226e85ba73acb704f26876022075e99c17545de3819e9d697e340ae5a4fcfcde796d3bc8ae988f10c7b88985620148304502210098f5612ad0f05a970809db8dd07f3f7774436b33c77c2322efcbccbaefa6df6e022079099751ec5e7f085b0044afe6e47724c161aa1a0d15c51bf62075e04103613f01695221032e87814ad99b466aa630797277676ea068c348de2763e1e8cb730a0f3e91370a210397ce96ef7a0c233208a051e95c337ce5ecd855d6df4c9adc2fea45ab552d60d22103fab7d37c18430a3dcde61807cc9cbd0c78e1f05f3a6317e95860394c5e5ddaf853ae00000000", "vin": [{"txinwitness": ["", "304402205a11d732eef9ea7cb03e212fcae4ea5df3ce9aac0e226e85ba73acb704f26876022075e99c17545de3819e9d697e340ae5a4fcfcde796d3bc8ae988f10c7b889856201", "304502210098f5612ad0f05a970809db8dd07f3f7774436b33c77c2322efcbccbaefa6df6e022079099751ec5e7f085b0044afe6e47724c161aa1a0d15c51bf62075e04103613f01", "5221032e87814ad99b466aa630797277676ea068c348de2763e1e8cb730a0f3e91370a210397ce96ef7a0c233208a051e95c337ce5ecd855d6df4c9adc2fea45ab552d60d22103fab7d37c18430a3dcde61807cc9cbd0c78e1f05f3a6317e95860394c5e5ddaf853ae"], "sequence": 4294967295, "scriptSig": {"hex": "22002026b2e74b8df4189fbef0f3997b2e91ade7a34ff6d5803483d99f49af54b37077", "asm": "002026b2e74b8df4189fbef0f3997b2e91ade7a34ff6d5803483d99f49af54b37077"}, "vout": 0, "txid": "c0308243c15a8001e5f17dc4233df1e5e96d80dd219967ee112cfc1b15b77dc4"}], "txid": "2006151e9f8534a1c59d77abfd3d6c3e0b2750019b881e77e8a1276463a28b70", "blocktime": 1537872018, "version": 1, "confirmations": 11489, "time": 1537872018, "locktime": 0, "vsize": 214, "size": 405}