{"hash": "20067679cf912eee037abce0a236ea4d69d2eb43a1d0dc8368aac9d58ab1c958", "blockhash": "0000000000000000001cda96e906b7601b7a6fb1a3b62bca570a9e5d8f4b3de1", "vout": [{"scriptPubKey": {"reqSigs": 1, "hex": "76a9145d3d694972ffb368eb68aef9c1b3814d3146d72988ac", "addresses": ["19W1QmhAK96sYmiy1wNaPMHWKdP4G5b3QQ"], "asm": "OP_DUP OP_HASH160 5d3d694972ffb368eb68aef9c1b3814d3146d729 OP_EQUALVERIFY OP_CHECKSIG", "type": "pubkeyhash"}, "value": 0.0020806, "n": 0}, {"scriptPubKey": {"reqSigs": 1, "hex": "76a9143ed474a0cb85cd29ccb9edf72f242b414286c9f488ac", "addresses": ["16jDQZpbUPEVS9Vgdnr4jtntmywcDc5za7"], "asm": "OP_DUP OP_HASH160 3ed474a0cb85cd29ccb9edf72f242b414286c9f4 OP_EQUALVERIFY OP_CHECKSIG", "type": "pubkeyhash"}, "value": 0.00665703, "n": 1}], "hex": "01000000018528de2dae7a87ecfa233d9c395d2f9e3bd7180e09ca79db33c4862cd66097e1010000006a473044022054175bae45a1a513b9495b44b60117708e131b3e1f7759b3c06ccdf7bb137eb502202d035831a76ea408100328bf07f22a3249ef2c714cf75a636e6dd32e65c6cd99012103395eb0acfe8f2c635cf23a137f0a66ec5c35159caa27f806fcb9bfaaf9d93c48ffffffff02bc2c0300000000001976a9145d3d694972ffb368eb68aef9c1b3814d3146d72988ac67280a00000000001976a9143ed474a0cb85cd29ccb9edf72f242b414286c9f488ac00000000", "vin": [{"sequence": 4294967295, "scriptSig": {"hex": "473044022054175bae45a1a513b9495b44b60117708e131b3e1f7759b3c06ccdf7bb137eb502202d035831a76ea408100328bf07f22a3249ef2c714cf75a636e6dd32e65c6cd99012103395eb0acfe8f2c635cf23a137f0a66ec5c35159caa27f806fcb9bfaaf9d93c48", "asm": "3044022054175bae45a1a513b9495b44b60117708e131b3e1f7759b3c06ccdf7bb137eb502202d035831a76ea408100328bf07f22a3249ef2c714cf75a636e6dd32e65c6cd99[ALL] 03395eb0acfe8f2c635cf23a137f0a66ec5c35159caa27f806fcb9bfaaf9d93c48"}, "vout": 1, "txid": "e19760d62c86c433db79ca090e18d73b9e2f5d399c3d23faec877aae2dde2885"}], "txid": "20067679cf912eee037abce0a236ea4d69d2eb43a1d0dc8368aac9d58ab1c958", "blocktime": 1537873282, "version": 1, "confirmations": 11485, "time": 1537873282, "locktime": 0, "vsize": 225, "size": 225}