{"hash": "200ce74cf5da4e4309740650fc321d37eed525c7948078d969e989264ca28311", "blockhash": "00000000000000000017f5eb5941039fbcee6240d03bc1f2f8e35350df66a1d8", "vout": [{"scriptPubKey": {"reqSigs": 1, "hex": "a9146a8bd4cde37bf17593292b15b4ce426259d7a1d687", "addresses": ["3BQP4XNhgi6aDVh8daVkR7UsX95TkHGhMW"], "asm": "OP_HASH160 6a8bd4cde37bf17593292b15b4ce426259d7a1d6 OP_EQUAL", "type": "scripthash"}, "value": 0.00473887, "n": 0}, {"scriptPubKey": {"reqSigs": 1, "hex": "76a914dfd50bd1f60c0d8dcb26b271bae6f7dd37535cfc88ac", "addresses": ["1MQWuVB6CrPbErSbwFipnWo6xvFvSJqD2k"], "asm": "OP_DUP OP_HASH160 dfd50bd1f60c0d8dcb26b271bae6f7dd37535cfc OP_EQUALVERIFY OP_CHECKSIG", "type": "pubkeyhash"}, "value": 0.01320092, "n": 1}], "hex": "01000000013bf13e30b8d1fc782ca8726bf719cb8e58815b7567c14c69a8746ffda47cae85010000006b483045022100e55e0ff0696c51b04ffa6b8a71495e78f407bab7637ef0a38c2eb21a19a5e0fa022038dc7efdc7aa2998e353b42c5e6e618cf839e500b6576a81dd19999c078ee16d01210285059f78b66d1b7ca7c3e22f291418a071e0f307ad9017c7f78840d68a74ff15ffffffff021f3b07000000000017a9146a8bd4cde37bf17593292b15b4ce426259d7a1d6879c241400000000001976a914dfd50bd1f60c0d8dcb26b271bae6f7dd37535cfc88ac00000000", "vin": [{"sequence": 4294967295, "scriptSig": {"hex": "483045022100e55e0ff0696c51b04ffa6b8a71495e78f407bab7637ef0a38c2eb21a19a5e0fa022038dc7efdc7aa2998e353b42c5e6e618cf839e500b6576a81dd19999c078ee16d01210285059f78b66d1b7ca7c3e22f291418a071e0f307ad9017c7f78840d68a74ff15", "asm": "3045022100e55e0ff0696c51b04ffa6b8a71495e78f407bab7637ef0a38c2eb21a19a5e0fa022038dc7efdc7aa2998e353b42c5e6e618cf839e500b6576a81dd19999c078ee16d[ALL] 0285059f78b66d1b7ca7c3e22f291418a071e0f307ad9017c7f78840d68a74ff15"}, "vout": 1, "txid": "85ae7ca4fd6f74a8694cc167755b81588ecb19f76b72a82c78fcd1b8303ef13b"}], "txid": "200ce74cf5da4e4309740650fc321d37eed525c7948078d969e989264ca28311", "blocktime": 1537874412, "version": 1, "confirmations": 11467, "time": 1537874412, "locktime": 0, "vsize": 224, "size": 224}