{"hash": "20124f45d8686f5f903074703ed57a644c96fb19747484cd2b7de97c61146dbf", "blockhash": "00000000000000000004ffacab907a6b429b9a5745fa0b75af4234bf69dd7176", "vout": [{"scriptPubKey": {"reqSigs": 1, "hex": "a914dc0835851ccacbcd3ebccd8113e6fc688db4480987", "addresses": ["3MkSR82zqHLTbeiputqC9rjx7A1USNruap"], "asm": "OP_HASH160 dc0835851ccacbcd3ebccd8113e6fc688db44809 OP_EQUAL", "type": "scripthash"}, "value": 0.00549229, "n": 0}, {"scriptPubKey": {"reqSigs": 1, "hex": "76a914f6fabe73f79f4b0afaabfe856b9c3bce5c336ab588ac", "addresses": ["1PWucBnBcEVCYFVH5qG1cZKWGpoGt7hxPr"], "asm": "OP_DUP OP_HASH160 f6fabe73f79f4b0afaabfe856b9c3bce5c336ab5 OP_EQUALVERIFY OP_CHECKSIG", "type": "pubkeyhash"}, "value": 0.0329412, "n": 1}], "hex": "01000000016e565a1e49a972782617ee8525ae5559cae4af91782dc72c29493ee5a2e57572010000006a47304402206582b85a02ee9dfc8a74ed5c8fc838b30cc25e5fdee667a3314e8c23ea4252e4022035084413a94ce8ca538b1803bc50a212f9b9723ef94e4416b99f672ec850869a0121038c782fadbd9815075a5189723d7a76cdd638b65ed545d7b7c92a9f4d39610c6affffffff026d6108000000000017a914dc0835851ccacbcd3ebccd8113e6fc688db4480987a8433200000000001976a914f6fabe73f79f4b0afaabfe856b9c3bce5c336ab588ac00000000", "vin": [{"sequence": 4294967295, "scriptSig": {"hex": "47304402206582b85a02ee9dfc8a74ed5c8fc838b30cc25e5fdee667a3314e8c23ea4252e4022035084413a94ce8ca538b1803bc50a212f9b9723ef94e4416b99f672ec850869a0121038c782fadbd9815075a5189723d7a76cdd638b65ed545d7b7c92a9f4d39610c6a", "asm": "304402206582b85a02ee9dfc8a74ed5c8fc838b30cc25e5fdee667a3314e8c23ea4252e4022035084413a94ce8ca538b1803bc50a212f9b9723ef94e4416b99f672ec850869a[ALL] 038c782fadbd9815075a5189723d7a76cdd638b65ed545d7b7c92a9f4d39610c6a"}, "vout": 1, "txid": "7275e5a2e53e49292cc72d7891afe4ca5955ae2585ee17267872a9491e5a566e"}], "txid": "20124f45d8686f5f903074703ed57a644c96fb19747484cd2b7de97c61146dbf", "blocktime": 1537875543, "version": 1, "confirmations": 11464, "time": 1537875543, "locktime": 0, "vsize": 223, "size": 223}