{"hash": "8e250ba5aa4853e9d95fbbeea5b2343ba64e20734419de17384ba67870a9dc72", "blockhash": "0000000000000000001e0dab787dd257d1dbfcb92a98c2207d5e1078be1f4165", "vout": [{"scriptPubKey": {"reqSigs": 1, "hex": "a914017f6367893305aa113bbd7ea45ae2bc721297b887", "addresses": ["31pwCq5Vs7grBPcxN1sdB9nS7iV3tV5FXZ"], "asm": "OP_HASH160 017f6367893305aa113bbd7ea45ae2bc721297b8 OP_EQUAL", "type": "scripthash"}, "value": 0.01137359, "n": 0}, {"scriptPubKey": {"reqSigs": 1, "hex": "a914c8f651b05e1eb48a8b87b5e6d0ee858f54d5ba1987", "addresses": ["3L1c9TgGCmT7dvK4XSpVPHn62ioHR3Jtq6"], "asm": "OP_HASH160 c8f651b05e1eb48a8b87b5e6d0ee858f54d5ba19 OP_EQUAL", "type": "scripthash"}, "value": 0.00512646, "n": 1}], "hex": "0200000000010241bd8302c6d84989925a8fd54e3ccbe5ff68f72d86ef9e5b32822af5d6a57e5a0100000017160014a64f7016d54a49884ac61e1614a044b814b97f46ffffffff2b85beaf57759e8bd4c005d69d72b9b86b06c4b409c0e81d9f85f55c4dc14d700100000017160014832143dd20357e22151dda196f891f827a2df5ddffffffff02cf5a11000000000017a914017f6367893305aa113bbd7ea45ae2bc721297b88786d207000000000017a914c8f651b05e1eb48a8b87b5e6d0ee858f54d5ba198702483045022100b853d9e798e237f702fbfec29937a5ec2ce401428ebe7be65fcc2890592083b702207902128f588cecbae57e23ebe9ed181bf2d93b95cd8592a339f667740356bcb60121024a67e838dec4222c86aafd5f9de4a9dd03382f84d0c32f0035fa3cd68d0d5d8502483045022100c1906095d227275a514856d2cd35a79df43dee1e981d1d26744749bd772fbc010220586e53b9a14020106d86dc9c9939fbdb56419000363b2d355bae933363189327012103f618675100ad271971fb53afa0ddae1980998c4ec3b0f3fe089f5410cb34bf7200000000", "vin": [{"txinwitness": ["3045022100b853d9e798e237f702fbfec29937a5ec2ce401428ebe7be65fcc2890592083b702207902128f588cecbae57e23ebe9ed181bf2d93b95cd8592a339f667740356bcb601", "024a67e838dec4222c86aafd5f9de4a9dd03382f84d0c32f0035fa3cd68d0d5d85"], "sequence": 4294967295, "scriptSig": {"hex": "160014a64f7016d54a49884ac61e1614a044b814b97f46", "asm": "0014a64f7016d54a49884ac61e1614a044b814b97f46"}, "vout": 1, "txid": "5a7ea5d6f52a82325b9eef862df768ffe5cb3c4ed58f5a928949d8c60283bd41"}, {"txinwitness": ["3045022100c1906095d227275a514856d2cd35a79df43dee1e981d1d26744749bd772fbc010220586e53b9a14020106d86dc9c9939fbdb56419000363b2d355bae93336318932701", "03f618675100ad271971fb53afa0ddae1980998c4ec3b0f3fe089f5410cb34bf72"], "sequence": 4294967295, "scriptSig": {"hex": "160014832143dd20357e22151dda196f891f827a2df5dd", "asm": "0014832143dd20357e22151dda196f891f827a2df5dd"}, "vout": 1, "txid": "704dc14d5cf5859f1de8c009b4c4066bb8b9729dd605c0d48b9e7557afbe852b"}], "txid": "201315ffbf4c5d9b591784abf2c3c136a933d5ae4ce1a1e2553b152b2d7f4f8e", "blocktime": 1537872475, "version": 2, "confirmations": 11486, "time": 1537872475, "locktime": 0, "vsize": 257, "size": 420}