{"hash": "9568d5d8f1cfe060400fc5d0e375e90115564af8f7208dfabc8fe7fbc535f7da", "blockhash": "0000000000000000001cda96e906b7601b7a6fb1a3b62bca570a9e5d8f4b3de1", "vout": [{"scriptPubKey": {"reqSigs": 1, "hex": "a9142cc5971547d22c005d8d8f7e8bd7f53bf827633a87", "addresses": ["35mkMnmQbxBMt58BkRQdQK7u1zwX5SPKiB"], "asm": "OP_HASH160 2cc5971547d22c005d8d8f7e8bd7f53bf827633a OP_EQUAL", "type": "scripthash"}, "value": 0.40309395, "n": 0}, {"scriptPubKey": {"reqSigs": 1, "hex": "a91407a2ed92dc0c21e53e01acc5b138bd6119a4e5b587", "addresses": ["32PPqKkDAffKVcAb4dC2jTxCok15E2g64x"], "asm": "OP_HASH160 07a2ed92dc0c21e53e01acc5b138bd6119a4e5b5 OP_EQUAL", "type": "scripthash"}, "value": 0.2, "n": 1}, {"scriptPubKey": {"reqSigs": 1, "hex": "a914e689b95d115343fe713ff4d3a36dd49f56138f2287", "addresses": ["3NhzKuELxJJzu3JnTX4d1H1MHht8BYD2JQ"], "asm": "OP_HASH160 e689b95d115343fe713ff4d3a36dd49f56138f22 OP_EQUAL", "type": "scripthash"}, "value": 0.2226, "n": 2}], "hex": "010000000001013221ce6fa70b30017c6769ebc9662b451f3c02ebd07280b84b54c01a3828686b0000000023220020836a5b2680e81c766179867138b51f9704b86f8e910a7274648b61c09bccb8a6ffffffff03931267020000000017a9142cc5971547d22c005d8d8f7e8bd7f53bf827633a87002d31010000000017a91407a2ed92dc0c21e53e01acc5b138bd6119a4e5b58720a953010000000017a914e689b95d115343fe713ff4d3a36dd49f56138f22870400473044022011ce69eebde149c99753bc6f3e20b1d58254a5e704007984f63996cab3a4c2d0022027f35df5e91b2f30c45024e465228d086af473ad01c7c03791a5115875cf69d701483045022100d03d90816b85dbd63520f29800f8c0f75cc446f38e88811487a91760573f7b07022060ab28a40de9a323a2d0f4cb8bbf3ab0030443e0ee66849a31c1ba4676875cf60169522103de78c0e0a3aab8ddfbb66b035715b4aecfbf8adc43a4c1a8f7de5fda0389abe321029a441c128c07fb1428b94bc6c7cd46a6785cea10b5978a3d4f01b385cf7ea2972102ab78971b2e92ad7ff34c464c47f5392e908b9ba1293256133a09944468bf198c53ae00000000", "vin": [{"txinwitness": ["", "3044022011ce69eebde149c99753bc6f3e20b1d58254a5e704007984f63996cab3a4c2d0022027f35df5e91b2f30c45024e465228d086af473ad01c7c03791a5115875cf69d701", "3045022100d03d90816b85dbd63520f29800f8c0f75cc446f38e88811487a91760573f7b07022060ab28a40de9a323a2d0f4cb8bbf3ab0030443e0ee66849a31c1ba4676875cf601", "522103de78c0e0a3aab8ddfbb66b035715b4aecfbf8adc43a4c1a8f7de5fda0389abe321029a441c128c07fb1428b94bc6c7cd46a6785cea10b5978a3d4f01b385cf7ea2972102ab78971b2e92ad7ff34c464c47f5392e908b9ba1293256133a09944468bf198c53ae"], "sequence": 4294967295, "scriptSig": {"hex": "220020836a5b2680e81c766179867138b51f9704b86f8e910a7274648b61c09bccb8a6", "asm": "0020836a5b2680e81c766179867138b51f9704b86f8e910a7274648b61c09bccb8a6"}, "vout": 0, "txid": "6b6828381ac0544bb88072d0eb023c1f452b66c9eb69677c01300ba76fce2132"}], "txid": "2021209c5136c32568109cf9e0cb3943e048c86c6185e5af165f9b4f19c5b435", "blocktime": 1537873282, "version": 1, "confirmations": 11485, "time": 1537873282, "locktime": 0, "vsize": 246, "size": 437}