{"hash": "fa225448350b5d20c609149dbc8f63a62cc8d4ef82dc365d19d27aa2affdd546", "blockhash": "0000000000000000001f0ddff1eddb255c1121bcd4da4f1bc9a0da00cae72433", "vout": [{"scriptPubKey": {"reqSigs": 1, "hex": "76a914e2f8f8837228990a6e1cf5f868e59c07e40f864888ac", "addresses": ["1Mh7y9QwtcCMaXND5RDDVLNB5mrqxkScCA"], "asm": "OP_DUP OP_HASH160 e2f8f8837228990a6e1cf5f868e59c07e40f8648 OP_EQUALVERIFY OP_CHECKSIG", "type": "pubkeyhash"}, "value": 0.00239168, "n": 0}, {"scriptPubKey": {"reqSigs": 1, "hex": "76a914756171ef3d8f1918153343e16d376753d4fc990f88ac", "addresses": ["1Bheo3dj6meYNemhG2Vn4ggBRZe2FCLwFo"], "asm": "OP_DUP OP_HASH160 756171ef3d8f1918153343e16d376753d4fc990f OP_EQUALVERIFY OP_CHECKSIG", "type": "pubkeyhash"}, "value": 0.00468907, "n": 1}, {"scriptPubKey": {"reqSigs": 1, "hex": "76a914e744a4f17ed6f4ea8f63e854e9127ac6c0bd34c788ac", "addresses": ["1N5qKoacaVPPFTC8BKRhwRVGZakto2MZLM"], "asm": "OP_DUP OP_HASH160 e744a4f17ed6f4ea8f63e854e9127ac6c0bd34c7 OP_EQUALVERIFY OP_CHECKSIG", "type": "pubkeyhash"}, "value": 0.02619249, "n": 2}, {"scriptPubKey": {"reqSigs": 1, "hex": "76a914863a799e4f27cec11fb692f6277508434383f05088ac", "addresses": ["1DEjbdDonCvSxfcbbWZLf7PzDJNLWCY5Jq"], "asm": "OP_DUP OP_HASH160 863a799e4f27cec11fb692f6277508434383f050 OP_EQUALVERIFY OP_CHECKSIG", "type": "pubkeyhash"}, "value": 0.02299303, "n": 3}, {"scriptPubKey": {"reqSigs": 1, "hex": "76a914b43e012d7513d99386a0889ca520774abfcfa9ed88ac", "addresses": ["1HS2ugi12aPgLgrfoJdHUjzCfUDFGj9cHm"], "asm": "OP_DUP OP_HASH160 b43e012d7513d99386a0889ca520774abfcfa9ed OP_EQUALVERIFY OP_CHECKSIG", "type": "pubkeyhash"}, "value": 0.00566056, "n": 4}, {"scriptPubKey": {"reqSigs": 1, "hex": "a914e0be0c1e43fc46fb12d068912640af90e1b7852a87", "addresses": ["3NBLxEYBawBaqXKjwP6sJD89oCaaKLPExK"], "asm": "OP_HASH160 e0be0c1e43fc46fb12d068912640af90e1b7852a OP_EQUAL", "type": "scripthash"}, "value": 0.01444874, "n": 5}, {"scriptPubKey": {"reqSigs": 1, "hex": "a914f2284b9e9e0e2d35bd77ed0f93ec846d4b40bdd687", "addresses": ["3PmRijqhRiHPM5jUC3TUwz5PsKhEwaTtNb"], "asm": "OP_HASH160 f2284b9e9e0e2d35bd77ed0f93ec846d4b40bdd6 OP_EQUAL", "type": "scripthash"}, "value": 0.01383199, "n": 6}, {"scriptPubKey": {"reqSigs": 1, "hex": "76a9145f52397fef52c8404841cafaa9070ccb077c0cea88ac", "addresses": ["19h1hHp1fhMDX4v73EdNc2aRVJLxPhQRoM"], "asm": "OP_DUP OP_HASH160 5f52397fef52c8404841cafaa9070ccb077c0cea OP_EQUALVERIFY OP_CHECKSIG", "type": "pubkeyhash"}, "value": 0.00210101, "n": 7}, {"scriptPubKey": {"reqSigs": 1, "hex": "76a914df44ff92a6bc421304731b940eb5f84f5436681288ac", "addresses": ["1MMYLsFEa18hAG4eN2L24rFPMGjWCxVKQj"], "asm": "OP_DUP OP_HASH160 df44ff92a6bc421304731b940eb5f84f54366812 OP_EQUALVERIFY OP_CHECKSIG", "type": "pubkeyhash"}, "value": 0.01188745, "n": 8}, {"scriptPubKey": {"reqSigs": 1, "hex": "76a9146bf2657729f34099b4d7689e423ef5a516a2518088ac", "addresses": ["1AqmgX8Y3kdH2TE2b2stk9Dm8NWeoMHG2H"], "asm": "OP_DUP OP_HASH160 6bf2657729f34099b4d7689e423ef5a516a25180 OP_EQUALVERIFY OP_CHECKSIG", "type": "pubkeyhash"}, "value": 0.00632376, "n": 9}, {"scriptPubKey": {"reqSigs": 1, "hex": "a91468d096c81fd599a5e75c4aa192170dfe881fde4d87", "addresses": ["3BFE5WcGvh7sQZqCKNbb92pH2vBEv8uRhc"], "asm": "OP_HASH160 68d096c81fd599a5e75c4aa192170dfe881fde4d OP_EQUAL", "type": "scripthash"}, "value": 0.0037269, "n": 10}, {"scriptPubKey": {"reqSigs": 1, "hex": "76a9142d7f8b9388e0e21575ee992f8c935a32a0bd191c88ac", "addresses": ["159aCdX1v437ni2kLpNG2nSVk9UrYpgKgq"], "asm": "OP_DUP OP_HASH160 2d7f8b9388e0e21575ee992f8c935a32a0bd191c OP_EQUALVERIFY OP_CHECKSIG", "type": "pubkeyhash"}, "value": 0.0104916, "n": 11}, {"scriptPubKey": {"reqSigs": 1, "hex": "76a9141e86c7b42439d6195c2a2b4e75b294ef9424b92888ac", "addresses": ["13nQjSWsGsoWL1rvzkFk3uwiS1tzLg5jYr"], "asm": "OP_DUP OP_HASH160 1e86c7b42439d6195c2a2b4e75b294ef9424b928 OP_EQUALVERIFY OP_CHECKSIG", "type": "pubkeyhash"}, "value": 0.0029925, "n": 12}, {"scriptPubKey": {"reqSigs": 1, "hex": "a914592850f88d5f8441326ce837e484e0a11cdf251d87", "addresses": ["39pSMqn15UA6dzFnAyYHRvRvUyQCfC4EuW"], "asm": "OP_HASH160 592850f88d5f8441326ce837e484e0a11cdf251d OP_EQUAL", "type": "scripthash"}, "value": 0.00487404, "n": 13}, {"scriptPubKey": {"reqSigs": 1, "hex": "a914aa4ef5bee721851a432f685fb3e2d812b9ec4bd687", "addresses": ["3HDXPPTaarsHb4bZJejtiucrn3LyfYyR6Q"], "asm": "OP_HASH160 aa4ef5bee721851a432f685fb3e2d812b9ec4bd6 OP_EQUAL", "type": "scripthash"}, "value": 0.00995687, "n": 14}, {"scriptPubKey": {"reqSigs": 1, "hex": "76a9143a9a25bc2cafcdf3cd99cc2fa213cdbd1e051f1f88ac", "addresses": ["16LrrUaStFi67UuZC8piYGeWWTLdAtf3qz"], "asm": "OP_DUP OP_HASH160 3a9a25bc2cafcdf3cd99cc2fa213cdbd1e051f1f OP_EQUALVERIFY OP_CHECKSIG", "type": "pubkeyhash"}, "value": 0.03062871, "n": 15}, {"scriptPubKey": {"reqSigs": 1, "hex": "a914f55dea4d0524d6797523a24108916932a4abb1f087", "addresses": ["3Q4PytRChEzSE1vwJbRouFHsYMVqtzDe9J"], "asm": "OP_HASH160 f55dea4d0524d6797523a24108916932a4abb1f0 OP_EQUAL", "type": "scripthash"}, "value": 0.00950301, "n": 16}, {"scriptPubKey": {"reqSigs": 1, "hex": "76a914880e938b8ad42da169bb6850f4a61f55df6463ad88ac", "addresses": ["1DQQMsYE4fEC5hckw94ZqWQn5Z8D8DSEC8"], "asm": "OP_DUP OP_HASH160 880e938b8ad42da169bb6850f4a61f55df6463ad OP_EQUALVERIFY OP_CHECKSIG", "type": "pubkeyhash"}, "value": 0.00905676, "n": 17}, {"scriptPubKey": {"reqSigs": 1, "hex": "76a9149cc170535d1f072aaa44c4f09001ad18f113389a88ac", "addresses": ["1FHr9HeeBoUbZM2RG97sEeHCq51wj4gJgB"], "asm": "OP_DUP OP_HASH160 9cc170535d1f072aaa44c4f09001ad18f113389a OP_EQUALVERIFY OP_CHECKSIG", "type": "pubkeyhash"}, "value": 0.00490513, "n": 18}, {"scriptPubKey": {"reqSigs": 1, "hex": "76a9145a887c6c04a4504af70b9a92d9e527e2d01b592688ac", "addresses": ["19FhKUqL1wDeDtVuNqk3cy5yUGUxNLU8gm"], "asm": "OP_DUP OP_HASH160 5a887c6c04a4504af70b9a92d9e527e2d01b5926 OP_EQUALVERIFY OP_CHECKSIG", "type": "pubkeyhash"}, "value": 0.00431757, "n": 19}, {"scriptPubKey": {"reqSigs": 1, "hex": "76a9149c1cb8a588189a8f94d7b89d04c8c5184db34b6988ac", "addresses": ["1FESpWrha22sn2YwRhVL7mxD8VFSxGgBUQ"], "asm": "OP_DUP OP_HASH160 9c1cb8a588189a8f94d7b89d04c8c5184db34b69 OP_EQUALVERIFY OP_CHECKSIG", "type": "pubkeyhash"}, "value": 0.00201856, "n": 20}, {"scriptPubKey": {"reqSigs": 1, "hex": "76a914fd5c26517572f3f88c03baa61cb3c2549c000ecc88ac", "addresses": ["1Q6eMCu6VBsR8LufBkmsTbBy8c53TN2Vw5"], "asm": "OP_DUP OP_HASH160 fd5c26517572f3f88c03baa61cb3c2549c000ecc OP_EQUALVERIFY OP_CHECKSIG", "type": "pubkeyhash"}, "value": 0.00378471, "n": 21}, {"scriptPubKey": {"reqSigs": 1, "hex": "76a9142a5d55eb46407b1dbf5985556af7671ad5932e4c88ac", "addresses": ["14s1C8WkVFhfwBrSkWpsp3RHZ33Bfp25zC"], "asm": "OP_DUP OP_HASH160 2a5d55eb46407b1dbf5985556af7671ad5932e4c OP_EQUALVERIFY OP_CHECKSIG", "type": "pubkeyhash"}, "value": 0.224, "n": 22}], "hex": "020000000001050c349b9f46ef0d00b9a8ca2b40185f1b56e9c8e9708acd8735ae05f2220c20fc0300000017160014225445564826005cab39e8575127daad102b5c61feffffff2d7761cb27ae471b05743014940db679ac30a67b928b8d9c95c5ca311c44707c0000000017160014f9d67b8a9612063fb5d9e0c1a29b5405fc6f071bfeffffff36417bd317e5b85cc841e1670eab78f36dac286b3d605f9e17372e10b46edf89000000001716001405d92bab78156bf5a8a63f181ae3028318b00f21feffffff66f838fe611a14027814feb825c605f9fe986a8f4071e75fdbc6271b70fb6d0801000000171600141391bb9575cede6e02ed35c57f1de4ec730d984dfeffffffd9ed52223219e9b80fe182db72a25b7c49b67f3fb52cc6a65c68a40b838e8b951500000017160014a7b68c9660b30d0a0dd9b14497ce908d83fa557efeffffff1740a60300000000001976a914e2f8f8837228990a6e1cf5f868e59c07e40f864888acab270700000000001976a914756171ef3d8f1918153343e16d376753d4fc990f88ac71f72700000000001976a914e744a4f17ed6f4ea8f63e854e9127ac6c0bd34c788aca7152300000000001976a914863a799e4f27cec11fb692f6277508434383f05088ac28a30800000000001976a914b43e012d7513d99386a0889ca520774abfcfa9ed88ac0a0c16000000000017a914e0be0c1e43fc46fb12d068912640af90e1b7852a871f1b15000000000017a914f2284b9e9e0e2d35bd77ed0f93ec846d4b40bdd687b5340300000000001976a9145f52397fef52c8404841cafaa9070ccb077c0cea88ac89231200000000001976a914df44ff92a6bc421304731b940eb5f84f5436681288ac38a60900000000001976a9146bf2657729f34099b4d7689e423ef5a516a2518088acd2af05000000000017a91468d096c81fd599a5e75c4aa192170dfe881fde4d8748021000000000001976a9142d7f8b9388e0e21575ee992f8c935a32a0bd191c88acf2900400000000001976a9141e86c7b42439d6195c2a2b4e75b294ef9424b92888acec6f07000000000017a914592850f88d5f8441326ce837e484e0a11cdf251d8767310f000000000017a914aa4ef5bee721851a432f685fb3e2d812b9ec4bd68757bc2e00000000001976a9143a9a25bc2cafcdf3cd99cc2fa213cdbd1e051f1f88ac1d800e000000000017a914f55dea4d0524d6797523a24108916932a4abb1f087ccd10d00000000001976a914880e938b8ad42da169bb6850f4a61f55df6463ad88ac117c0700000000001976a9149cc170535d1f072aaa44c4f09001ad18f113389a88ac8d960600000000001976a9145a887c6c04a4504af70b9a92d9e527e2d01b592688ac80140300000000001976a9149c1cb8a588189a8f94d7b89d04c8c5184db34b6988ac67c60500000000001976a914fd5c26517572f3f88c03baa61cb3c2549c000ecc88ac00cc5501000000001976a9142a5d55eb46407b1dbf5985556af7671ad5932e4c88ac024730440220533a5dfa929bddfb22c63decb39b273204e123814962599a24e273726ff4978102204354e41757b8ed6fbb8e20bf296bfaf003378f10f6e1786789df74120528710c012102b7971feeae336266c2405baa921aaa02e8fe71c66b1b6558c0e3315e38a7c014024730440220309537bc2902ef3e68e7788f7cec5a210586e90cef059322f1ebb9b36602266d0220460f42160cad476daa02599e0743c5836b57260b0c2ef7c737dd4494a80a91d80121036de4a0d28d0551fdc21b0a8bd65294e2e7abd0a4660354f33e5e7b4e8d19f7bb024830450221009c62262619ce9cc35f569e85ce8e17b0efeee808c25c4ef6a59b8bbddbf3171e02200481bee1cdada40232990f4496ce2c7067399d6b5aa2a36039b6ef8c595d71470121035c2bb3d3336e8b88095580f9cf6f3c16ee9e602797d55e9837ddb38df25b0f5c0247304402206facbc130368e1fb022862b0422217f1c786f4d43fb61ca8448b0cf31795e9f0022072cd9eb417e9ac2c2a69430fe1eaddd116adc0f92483d6866a9c4b14ade8c8e1012102296b10b82f27980d74bac1276dc61fee368e9bd50ba7c55b47f1350ce3548bcf02483045022100f57d134c6f4f5a52b4b451fae8f2fdb1aa20788ae9563a9ab1e9b22346cafb0702204a2d856fab7663d042767685220d86697b0200ef9b9df05d1bbfd3b9242efa11012103f0ffa5c22b278573fd4a602ed13c838ecc9122aee504f2cb0ffb824bb645a2d4bc480800", "vin": [{"txinwitness": ["30440220533a5dfa929bddfb22c63decb39b273204e123814962599a24e273726ff4978102204354e41757b8ed6fbb8e20bf296bfaf003378f10f6e1786789df74120528710c01", "02b7971feeae336266c2405baa921aaa02e8fe71c66b1b6558c0e3315e38a7c014"], "sequence": 4294967294, "scriptSig": {"hex": "160014225445564826005cab39e8575127daad102b5c61", "asm": "0014225445564826005cab39e8575127daad102b5c61"}, "vout": 3, "txid": "fc200c22f205ae3587cd8a70e9c8e9561b5f18402bcaa8b9000def469f9b340c"}, {"txinwitness": ["30440220309537bc2902ef3e68e7788f7cec5a210586e90cef059322f1ebb9b36602266d0220460f42160cad476daa02599e0743c5836b57260b0c2ef7c737dd4494a80a91d801", "036de4a0d28d0551fdc21b0a8bd65294e2e7abd0a4660354f33e5e7b4e8d19f7bb"], "sequence": 4294967294, "scriptSig": {"hex": "160014f9d67b8a9612063fb5d9e0c1a29b5405fc6f071b", "asm": "0014f9d67b8a9612063fb5d9e0c1a29b5405fc6f071b"}, "vout": 0, "txid": "7c70441c31cac5959c8d8b927ba630ac79b60d94143074051b47ae27cb61772d"}, {"txinwitness": ["30450221009c62262619ce9cc35f569e85ce8e17b0efeee808c25c4ef6a59b8bbddbf3171e02200481bee1cdada40232990f4496ce2c7067399d6b5aa2a36039b6ef8c595d714701", "035c2bb3d3336e8b88095580f9cf6f3c16ee9e602797d55e9837ddb38df25b0f5c"], "sequence": 4294967294, "scriptSig": {"hex": "16001405d92bab78156bf5a8a63f181ae3028318b00f21", "asm": "001405d92bab78156bf5a8a63f181ae3028318b00f21"}, "vout": 0, "txid": "89df6eb4102e37179e5f603d6b28ac6df378ab0e67e141c85cb8e517d37b4136"}, {"txinwitness": ["304402206facbc130368e1fb022862b0422217f1c786f4d43fb61ca8448b0cf31795e9f0022072cd9eb417e9ac2c2a69430fe1eaddd116adc0f92483d6866a9c4b14ade8c8e101", "02296b10b82f27980d74bac1276dc61fee368e9bd50ba7c55b47f1350ce3548bcf"], "sequence": 4294967294, "scriptSig": {"hex": "1600141391bb9575cede6e02ed35c57f1de4ec730d984d", "asm": "00141391bb9575cede6e02ed35c57f1de4ec730d984d"}, "vout": 1, "txid": "086dfb701b27c6db5fe771408f6a98fef905c625b8fe147802141a61fe38f866"}, {"txinwitness": ["3045022100f57d134c6f4f5a52b4b451fae8f2fdb1aa20788ae9563a9ab1e9b22346cafb0702204a2d856fab7663d042767685220d86697b0200ef9b9df05d1bbfd3b9242efa1101", "03f0ffa5c22b278573fd4a602ed13c838ecc9122aee504f2cb0ffb824bb645a2d4"], "sequence": 4294967294, "scriptSig": {"hex": "160014a7b68c9660b30d0a0dd9b14497ce908d83fa557e", "asm": "0014a7b68c9660b30d0a0dd9b14497ce908d83fa557e"}, "vout": 21, "txid": "958b8e830ba4685ca6c62cb53f7fb6497c5ba272db82e10fb8e919322252edd9"}], "txid": "202f69bacb2bea04c3280391fdcf961fe0eff044a49a6839ba483e33f35cb029", "blocktime": 1537872018, "version": 2, "confirmations": 11489, "time": 1537872018, "locktime": 542908, "vsize": 1235, "size": 1639}