{"hash": "202fc7cc5e1697c1107dc9ae82e8591456cc81013d2e3ffb63d22a8423721572", "blockhash": "00000000000000000018f53835495a110e01622372bf6ae95dc86f2b0ab887b0", "vout": [{"scriptPubKey": {"reqSigs": 1, "hex": "a9147b83cb8b297bb27379bbf51dea0da8a325d3a89a87", "addresses": ["3Cx6vRTLasx1nfFz67caizFtmuTTx3jS3B"], "asm": "OP_HASH160 7b83cb8b297bb27379bbf51dea0da8a325d3a89a OP_EQUAL", "type": "scripthash"}, "value": 0.00260822, "n": 0}, {"scriptPubKey": {"reqSigs": 1, "hex": "76a9147160d6174e7fa5fc90627384e7486e5596257c4888ac", "addresses": ["1BLVMysCTqNydvSXidM2fKyA3sMBWHck1s"], "asm": "OP_DUP OP_HASH160 7160d6174e7fa5fc90627384e7486e5596257c48 OP_EQUALVERIFY OP_CHECKSIG", "type": "pubkeyhash"}, "value": 0.02300747, "n": 1}], "hex": "0100000001eb414225d0f88a77631e83501c55a3bdc4668f022cee25b9eac488aa12a45f72010000006b483045022100de8963df8e2732fdae4fd26c3d1ab9480df28aeb9cad1b99e8b3c486ada5bcfe022039534a11fb6bef8caa45657350115e57ca35386dcdbedc3c1eadbf257a12226801210233baf75bfcc24994015a76b8f8740ae6724a94cb39fb948e0feef7a26675bf4dffffffff02d6fa03000000000017a9147b83cb8b297bb27379bbf51dea0da8a325d3a89a874b1b2300000000001976a9147160d6174e7fa5fc90627384e7486e5596257c4888ac00000000", "vin": [{"sequence": 4294967295, "scriptSig": {"hex": "483045022100de8963df8e2732fdae4fd26c3d1ab9480df28aeb9cad1b99e8b3c486ada5bcfe022039534a11fb6bef8caa45657350115e57ca35386dcdbedc3c1eadbf257a12226801210233baf75bfcc24994015a76b8f8740ae6724a94cb39fb948e0feef7a26675bf4d", "asm": "3045022100de8963df8e2732fdae4fd26c3d1ab9480df28aeb9cad1b99e8b3c486ada5bcfe022039534a11fb6bef8caa45657350115e57ca35386dcdbedc3c1eadbf257a122268[ALL] 0233baf75bfcc24994015a76b8f8740ae6724a94cb39fb948e0feef7a26675bf4d"}, "vout": 1, "txid": "725fa412aa88c4eab925ee2c028f66c4bda3551c50831e63778af8d0254241eb"}], "txid": "202fc7cc5e1697c1107dc9ae82e8591456cc81013d2e3ffb63d22a8423721572", "blocktime": 1537870928, "version": 1, "confirmations": 11512, "time": 1537870928, "locktime": 0, "vsize": 224, "size": 224}