{"hash": "2032c7f03402629ec794718e3d98ac38485ee1fd3fe16e3ea0dd8311839ada97", "blockhash": "0000000000000000001cda96e906b7601b7a6fb1a3b62bca570a9e5d8f4b3de1", "vout": [{"scriptPubKey": {"reqSigs": 1, "hex": "76a9149a0c07cb93ade4a4d05edc06d123a51d05c1462788ac", "addresses": ["1F3XUS4xWZ8QrnDRahxgwNvL51EdWETiiT"], "asm": "OP_DUP OP_HASH160 9a0c07cb93ade4a4d05edc06d123a51d05c14627 OP_EQUALVERIFY OP_CHECKSIG", "type": "pubkeyhash"}, "value": 0.02947404, "n": 0}, {"scriptPubKey": {"reqSigs": 1, "hex": "a9145e2539f119f5632a5a45eb727164a85dc429725787", "addresses": ["3AGp379x6upTAYsTRsyrDq5iEDFxexvBPA"], "asm": "OP_HASH160 5e2539f119f5632a5a45eb727164a85dc4297257 OP_EQUAL", "type": "scripthash"}, "value": 0.16, "n": 1}], "hex": "0100000001c1aeeaa316137e6457d5baa7a6818ea476e09e5da3723ef7c054ba5ba96e2f09000000006a47304402206dbaa3044fa7b75c3298ad8f0302b1d85b01574cbd1008f73302a916da3a2e1402206b2f9cbeb79fb09ccd64a8e167886eeac5f073c90a39d1b1e1403b4dd1ea90d30121025d47c117ac8341ba83a3234b7bed0e2c20fc048ad65bad131f7031c49b2b0935ffffffff024cf92c00000000001976a9149a0c07cb93ade4a4d05edc06d123a51d05c1462788ac0024f4000000000017a9145e2539f119f5632a5a45eb727164a85dc42972578700000000", "vin": [{"sequence": 4294967295, "scriptSig": {"hex": "47304402206dbaa3044fa7b75c3298ad8f0302b1d85b01574cbd1008f73302a916da3a2e1402206b2f9cbeb79fb09ccd64a8e167886eeac5f073c90a39d1b1e1403b4dd1ea90d30121025d47c117ac8341ba83a3234b7bed0e2c20fc048ad65bad131f7031c49b2b0935", "asm": "304402206dbaa3044fa7b75c3298ad8f0302b1d85b01574cbd1008f73302a916da3a2e1402206b2f9cbeb79fb09ccd64a8e167886eeac5f073c90a39d1b1e1403b4dd1ea90d3[ALL] 025d47c117ac8341ba83a3234b7bed0e2c20fc048ad65bad131f7031c49b2b0935"}, "vout": 0, "txid": "092f6ea95bba54c0f73e72a35d9ee076a48e81a6a7bad557647e1316a3eaaec1"}], "txid": "2032c7f03402629ec794718e3d98ac38485ee1fd3fe16e3ea0dd8311839ada97", "blocktime": 1537873282, "version": 1, "confirmations": 11482, "time": 1537873282, "locktime": 0, "vsize": 223, "size": 223}