{"hash": "203c02798927f9d1f7053e3ea122c3d3b211cff4d0ac624bb512f2fcf5ac4ea8", "blockhash": "00000000000000000017f5eb5941039fbcee6240d03bc1f2f8e35350df66a1d8", "vout": [{"scriptPubKey": {"reqSigs": 1, "hex": "a914e93980212541e70f05a629f09c3da7f2cdc2e34587", "addresses": ["3NxCFSnevxd9T68NBqVMXkcaUWzao7fdXk"], "asm": "OP_HASH160 e93980212541e70f05a629f09c3da7f2cdc2e345 OP_EQUAL", "type": "scripthash"}, "value": 0.798258, "n": 0}, {"scriptPubKey": {"reqSigs": 1, "hex": "76a9140ffbd8fca6e8778fca2d37a0b46407e8b14e33e388ac", "addresses": ["12TWqZEqB1pqUofjmgaSUxzor1DN7wzAPU"], "asm": "OP_DUP OP_HASH160 0ffbd8fca6e8778fca2d37a0b46407e8b14e33e3 OP_EQUALVERIFY OP_CHECKSIG", "type": "pubkeyhash"}, "value": 12.26253222, "n": 1}], "hex": "0100000001968a9818379e8a8c5c78b9445bf0a9c7811f1125a30f3ac41cc57a523eda2b6a010000008b483045022100f2c14278b93b5408b101c34c6bbdd1b996643b268b7117409f42145ae3a7e8510220041a4684fad95d15f8926818af5693b34e133901664919ad0e1acd22335801eb014104a69e87f9b55ca67a5b042dfd9f9e15dd502fac42b9116064b5881765297165d5e10b466978e9697f8dc4de993edca0a9d53e9b592c0b1f0e49833f49964f5621fdffffff02880bc2040000000017a914e93980212541e70f05a629f09c3da7f2cdc2e34587a6231749000000001976a9140ffbd8fca6e8778fca2d37a0b46407e8b14e33e388ac15490800", "vin": [{"sequence": 4294967293, "scriptSig": {"hex": "483045022100f2c14278b93b5408b101c34c6bbdd1b996643b268b7117409f42145ae3a7e8510220041a4684fad95d15f8926818af5693b34e133901664919ad0e1acd22335801eb014104a69e87f9b55ca67a5b042dfd9f9e15dd502fac42b9116064b5881765297165d5e10b466978e9697f8dc4de993edca0a9d53e9b592c0b1f0e49833f49964f5621", "asm": "3045022100f2c14278b93b5408b101c34c6bbdd1b996643b268b7117409f42145ae3a7e8510220041a4684fad95d15f8926818af5693b34e133901664919ad0e1acd22335801eb[ALL] 04a69e87f9b55ca67a5b042dfd9f9e15dd502fac42b9116064b5881765297165d5e10b466978e9697f8dc4de993edca0a9d53e9b592c0b1f0e49833f49964f5621"}, "vout": 1, "txid": "6a2bda3e527ac51cc43a0fa325111f81c7a9f05b44b9785c8c8a9e3718988a96"}], "txid": "203c02798927f9d1f7053e3ea122c3d3b211cff4d0ac624bb512f2fcf5ac4ea8", "blocktime": 1537874412, "version": 1, "confirmations": 11467, "time": 1537874412, "locktime": 542997, "vsize": 256, "size": 256}