{"hash": "203fbbe584b2523c5c228482261f21e284583660d32d17827e0ea04b782774be", "blockhash": "00000000000000000017f5eb5941039fbcee6240d03bc1f2f8e35350df66a1d8", "vout": [{"scriptPubKey": {"reqSigs": 1, "hex": "a914abca4bd77630811c74c59ca4180b4287ecfb97e287", "addresses": ["3HMMp8uM7GZpy2rKKdQHczPsLQf2F88SXt"], "asm": "OP_HASH160 abca4bd77630811c74c59ca4180b4287ecfb97e2 OP_EQUAL", "type": "scripthash"}, "value": 0.04464377, "n": 0}, {"scriptPubKey": {"reqSigs": 1, "hex": "76a9146fbef55e448c2e5b21f7f0f93a1e36c6d54c0c6b88ac", "addresses": ["1BBrmKaLAsHM4DgdkQ8HuRjFEs67tQFumQ"], "asm": "OP_DUP OP_HASH160 6fbef55e448c2e5b21f7f0f93a1e36c6d54c0c6b OP_EQUALVERIFY OP_CHECKSIG", "type": "pubkeyhash"}, "value": 0.10577715, "n": 1}], "hex": "0200000001e445a32e9dccee7700d4bb592815d3d55d6b1414e983262ad9d29cdac0aabc5d000000008b483045022100918bbfd416578fb6e9776e7c56d37b19fd0a2a708e3f77e45e1fc183bead777d022028a6a0093144259d080386f9f932aeb8bd9394d410e29b2dda01b5134786241a014104558e2a6ad8a3f6e6d49d336df9d9207419a7273a7eb80b93ae0e6ca012e9e71a43c9e253b707aed8bb954cedc1a75b02a27afd0a25f6e1cc20337759391626effdffffff02f91e44000000000017a914abca4bd77630811c74c59ca4180b4287ecfb97e2873367a100000000001976a9146fbef55e448c2e5b21f7f0f93a1e36c6d54c0c6b88ac00000000", "vin": [{"sequence": 4294967293, "scriptSig": {"hex": "483045022100918bbfd416578fb6e9776e7c56d37b19fd0a2a708e3f77e45e1fc183bead777d022028a6a0093144259d080386f9f932aeb8bd9394d410e29b2dda01b5134786241a014104558e2a6ad8a3f6e6d49d336df9d9207419a7273a7eb80b93ae0e6ca012e9e71a43c9e253b707aed8bb954cedc1a75b02a27afd0a25f6e1cc20337759391626ef", "asm": "3045022100918bbfd416578fb6e9776e7c56d37b19fd0a2a708e3f77e45e1fc183bead777d022028a6a0093144259d080386f9f932aeb8bd9394d410e29b2dda01b5134786241a[ALL] 04558e2a6ad8a3f6e6d49d336df9d9207419a7273a7eb80b93ae0e6ca012e9e71a43c9e253b707aed8bb954cedc1a75b02a27afd0a25f6e1cc20337759391626ef"}, "vout": 0, "txid": "5dbcaac0da9cd2d92a2683e914146b5dd5d3152859bbd40077eecc9d2ea345e4"}], "txid": "203fbbe584b2523c5c228482261f21e284583660d32d17827e0ea04b782774be", "blocktime": 1537874412, "version": 2, "confirmations": 11467, "time": 1537874412, "locktime": 0, "vsize": 256, "size": 256}