{"hash": "19a2da7fa0aad0542f7dbe42e9bc06bc24f2a4ee1ec55fde80a021f509573d76", "blockhash": "0000000000000000001f0ddff1eddb255c1121bcd4da4f1bc9a0da00cae72433", "vout": [{"scriptPubKey": {"reqSigs": 1, "hex": "76a91496939cd17b3bd75fd9f0e6d345b01f383e637e1788ac", "addresses": ["1EjBC5Q6ZHdcBE2mA7qe79sXfT4SqwvHwa"], "asm": "OP_DUP OP_HASH160 96939cd17b3bd75fd9f0e6d345b01f383e637e17 OP_EQUALVERIFY OP_CHECKSIG", "type": "pubkeyhash"}, "value": 0.00131328, "n": 0}, {"scriptPubKey": {"reqSigs": 1, "hex": "a914ffc275b47d747d179b2a36ba74da4691e050a47d87", "addresses": ["3R1MBmDsTswrirnhXDJ9LWxHvEVDL9HcTe"], "asm": "OP_HASH160 ffc275b47d747d179b2a36ba74da4691e050a47d OP_EQUAL", "type": "scripthash"}, "value": 0.01540124, "n": 1}], "hex": "0200000000010120251d49f03280def345f86f9ac505678526daceab56f9b059b8ed0c655f6cd901000000171600140c2573aad80114dc3c4e112fc12a1c1684bb8776feffffff0200010200000000001976a91496939cd17b3bd75fd9f0e6d345b01f383e637e1788ac1c8017000000000017a914ffc275b47d747d179b2a36ba74da4691e050a47d87024830450221008a291fa79cdec3a4077f58b9e09e41c90b0005a2c47b028cd202b57200e66acf022058b5c51a50cb454ae5b89de8005b8d0d02e52d278d24260baad1891e0d24a6ef0121029d6fc43e3e5509203f174550e1616a0fb42cf3a23152c67fa56e6093776e6dc010490800", "vin": [{"txinwitness": ["30450221008a291fa79cdec3a4077f58b9e09e41c90b0005a2c47b028cd202b57200e66acf022058b5c51a50cb454ae5b89de8005b8d0d02e52d278d24260baad1891e0d24a6ef01", "029d6fc43e3e5509203f174550e1616a0fb42cf3a23152c67fa56e6093776e6dc0"], "sequence": 4294967294, "scriptSig": {"hex": "1600140c2573aad80114dc3c4e112fc12a1c1684bb8776", "asm": "00140c2573aad80114dc3c4e112fc12a1c1684bb8776"}, "vout": 1, "txid": "d96c5f650cedb859b0f956abceda26856705c59a6ff845f3de8032f0491d2520"}], "txid": "204237b8e55aae0f943bf5f89633d8f2fa12c5961ef641cef8f7accc6d30b2ec", "blocktime": 1537872018, "version": 2, "confirmations": 11489, "time": 1537872018, "locktime": 542992, "vsize": 168, "size": 250}