{"hash": "c2f24c102a56f6d0f75e86a295a2ff6c812f5a68cd1c97d3e298f499ae46babe", "blockhash": "0000000000000000000e13cef7c366c0283d82e591d1acd082e914b08063cdf1", "vout": [{"scriptPubKey": {"reqSigs": 1, "hex": "a9143e660f220c782064f7694aafe4e507e7bac2b6c887", "addresses": ["37Nx5dRMzgGLocfBfgYi3CaBPhuuaFXkE1"], "asm": "OP_HASH160 3e660f220c782064f7694aafe4e507e7bac2b6c8 OP_EQUAL", "type": "scripthash"}, "value": 0.01017803, "n": 0}, {"scriptPubKey": {"reqSigs": 1, "hex": "a9146fec91919525312bfc9d35dba06d331cf59b3bc187", "addresses": ["3BtpKuvjbwMqVQDt6tKuXrcp4j6LcA7xqu"], "asm": "OP_HASH160 6fec91919525312bfc9d35dba06d331cf59b3bc1 OP_EQUAL", "type": "scripthash"}, "value": 0.43468582, "n": 1}], "hex": "010000000001021c7efca58c12687519cc45ff945b72a72e6eaf11aa3bb0d2a751b86fce8164a301000000232200208d70d62358320999e74b6657ba9eddfb64233b530b774770855242c0298de95effffffff4450ae91bd3d64d59c9334702e5e169d37d6c1b6f8dc41450a06ea803e1d2ea60100000023220020d262e3e1e23a820a8127ffac7322122c04e1a4fbd4ad1db7187c77419f14e69cffffffff02cb870f000000000017a9143e660f220c782064f7694aafe4e507e7bac2b6c887264797020000000017a9146fec91919525312bfc9d35dba06d331cf59b3bc18704004730440220155674a50d54d5b898501140ee26ad898c8e3b67fb4639ebd85c0d65a3136fd102201bbe0f00e8d9825ee062b9d80e08cdf363f7de7be0e4710b2f65377de305dc3801463043021f53f1bc55dd708f53adf4b76830f28ebdeccb895454d58ea8e680636305bf3c02200467cf9a3abdde0912ccf708b1980e301f95786d7b5f5bbb170d8572f35f9ca70147522103c122f22e8c6e914f8f8b15e53f994225719df04eaac35ea643101af1896edde621038f2c7ecee34c843be9d886e50ce79e5dc40a1694c0417d60b35340f292ff73fc52ae040047304402206939615f9538a0404a3c0260c56347a62bc546dd7923613880c0fc0ebc91728102205bf2ba68ae97b18b7616908125dd6f0aa98ed18b5891f04f7ed32501d8b67f5a01483045022100f56c0910c3febf2054de22060f0d10aa3a825ed17ab38a45113c2844aad932da02204e7ac698c5d482e9ee66aa87de7ed8d7fe8f39ad14fce9532a01074d95a038c201475221035cc03f2595ea2ec32cf2371375129e558793ee0062cf9cb6cd1a8ea98e9d050221038f2c7ecee34c843be9d886e50ce79e5dc40a1694c0417d60b35340f292ff73fc52ae00000000", "vin": [{"txinwitness": ["", "30440220155674a50d54d5b898501140ee26ad898c8e3b67fb4639ebd85c0d65a3136fd102201bbe0f00e8d9825ee062b9d80e08cdf363f7de7be0e4710b2f65377de305dc3801", "3043021f53f1bc55dd708f53adf4b76830f28ebdeccb895454d58ea8e680636305bf3c02200467cf9a3abdde0912ccf708b1980e301f95786d7b5f5bbb170d8572f35f9ca701", "522103c122f22e8c6e914f8f8b15e53f994225719df04eaac35ea643101af1896edde621038f2c7ecee34c843be9d886e50ce79e5dc40a1694c0417d60b35340f292ff73fc52ae"], "sequence": 4294967295, "scriptSig": {"hex": "2200208d70d62358320999e74b6657ba9eddfb64233b530b774770855242c0298de95e", "asm": "00208d70d62358320999e74b6657ba9eddfb64233b530b774770855242c0298de95e"}, "vout": 1, "txid": "a36481ce6fb851a7d2b03baa11af6e2ea7725b94ff45cc197568128ca5fc7e1c"}, {"txinwitness": ["", "304402206939615f9538a0404a3c0260c56347a62bc546dd7923613880c0fc0ebc91728102205bf2ba68ae97b18b7616908125dd6f0aa98ed18b5891f04f7ed32501d8b67f5a01", "3045022100f56c0910c3febf2054de22060f0d10aa3a825ed17ab38a45113c2844aad932da02204e7ac698c5d482e9ee66aa87de7ed8d7fe8f39ad14fce9532a01074d95a038c201", "5221035cc03f2595ea2ec32cf2371375129e558793ee0062cf9cb6cd1a8ea98e9d050221038f2c7ecee34c843be9d886e50ce79e5dc40a1694c0417d60b35340f292ff73fc52ae"], "sequence": 4294967295, "scriptSig": {"hex": "220020d262e3e1e23a820a8127ffac7322122c04e1a4fbd4ad1db7187c77419f14e69c", "asm": "0020d262e3e1e23a820a8127ffac7322122c04e1a4fbd4ad1db7187c77419f14e69c"}, "vout": 1, "txid": "a62e1d3e80ea060a4541dcf8b6c1d6379d165e2e7034939cd5643dbd91ae5044"}], "txid": "2052c0a59af7c25580d022421fc199ace43ef8c50a09eed39463c488a1a80b53", "blocktime": 1537871767, "version": 1, "confirmations": 11495, "time": 1537871767, "locktime": 0, "vsize": 336, "size": 664}