{"hash": "20b6a41f523b7c0a1267a052dda4bbebfe2507da785e0e0461a2aebb8f352115", "blockhash": "0000000000000000000e13cef7c366c0283d82e591d1acd082e914b08063cdf1", "vout": [{"scriptPubKey": {"reqSigs": 1, "hex": "a91415de47fe37d53b5f34779dad0d6d9a7bf5129ce987", "addresses": ["33gePwcBwBGympyT9FrLvnZCf8m9dniahc"], "asm": "OP_HASH160 15de47fe37d53b5f34779dad0d6d9a7bf5129ce9 OP_EQUAL", "type": "scripthash"}, "value": 0.0247, "n": 0}], "hex": "0200000000010f13404c1f00773f55baf86372b57777e97a4ca15c7c5b8a1ad80ce97f42ea60dc0100000017160014bc8a9e3fd7909893fd39cb4d092c9f4a2707ea1bfeffffff18e93ff1c995eb202abe36551f9e1ad5aeeaf9b8c891aa53c27f98696349d7d10000000017160014327302a134baf8a52d6d88aa7754813bd1a0e400feffffff31fc78800de0d85f740bf695fb9e5835a197e04424469a9a3c99a19665d90ea50100000017160014dd1d4baf6a9d018273da3d452d4e4cd37da609effeffffff557deb2f25067d978e95a4c243fee81d690767201ed55937a1ef354002fa308f00000000171600144f42b1ed1cbce970f1436b1098f52655bab5844cfeffffff59abef33065940478357f7ebfa83f55ac1bd140a564b03f3e908584c23cbdd6a00000000171600147f115e8c82df262f386999be3693285e8e4e58b1feffffff5e974207406a41326a1912767807ee2cc34345a2c2d79c44cf6bb513be02248e0000000017160014da749ad9e2ed044f2dced2e13d69f0fa6534e4b9feffffff92d1f8fcc33169c80565f3ee4b15e5e52c73ceef697ebc053dff58aad920d702000000001716001422bb9e74dd1d3be9a004516bd7d59c9ea0d9ad4afeffffff9c38800fbc8625a31082798770d891522358c9eefaa8fe694d1ee6ee5931a70c0100000017160014dd1d4baf6a9d018273da3d452d4e4cd37da609effeffffffa1f26814c077b719d5e69ca8ac42618ccfb864d8ace352143cfc52d46552fdf60000000017160014327302a134baf8a52d6d88aa7754813bd1a0e400feffffffb31221a8f1028ba98f36c869bf95bf69b7b1c3956f83b4dcceb86896623c36990000000017160014327302a134baf8a52d6d88aa7754813bd1a0e400feffffffb36f40a94be42ff4772460a9c46d97020829332fc0c58d1bc41147a53ef9516200000000171600147f115e8c82df262f386999be3693285e8e4e58b1feffffffc02f4d018504bc44cd6aa99506bfa77f34ee5b6ca552c0c13247bed904429d2a010000001716001464fc73df134e1779da936f52f4c3de9893088104feffffffc57cd4a872637cde4db00224c13915b51863667379ebee564c4b968d9c7ad15400000000171600148fa7ab73becd291c44ce2ea1a2672a8499b8b78afeffffffc6c4205bbb872ec3b8b55bfd4894fb3741d9a640e257afc0e67e5a44c85ed9b80000000017160014e1331f3240b6c8f7da004357d91503a71aa7156afeffffffd9bcaa33005e6e2cdb80acfc80a53f0d7dfbd1a5d28330976d5c053a46013ba4000000001716001401b1354b4b8baf4b2407be6f87b3f78d6102100ffeffffff0170b025000000000017a91415de47fe37d53b5f34779dad0d6d9a7bf5129ce9870247304402203b9ef875deb24e6498dbf58132e924a7a4eba6220123669503e625f4bbacc5d902200c371f4fc176d0fbea851cf72403aacc52351e931d3457099deb92227a2a723a0121023a6c2131092bf6ea564acfb4be1521ee46fca452cca86367458b33feaa62fe61024730440220455cf8c3553f4b8124b6e5d5e930773923c8afc703270d90b3c6ce6f355abedb022033c319ab863120bc15d31117b20b3c10b8ec54205f40596c5db9f2c07043e22f012102521d535d4793244e879cfb450c25f2c33bc0d323a35732a724c3bae1c2a14ea60247304402202da9f7fb5acea50856a532c2d58789b89d993e8d40103b10336f4765aafe40b20220130cab64bdb12b2dae13695a5785dcc239c2e02f197430513a923a04d04d45b2012102d6ab2e387a76e9e7eefadeadbbea8bd6077600b1d5bd0cdf27d782bfc4af7e0c0247304402205ebd506a01609866eb4e24fdbf7863fb7bf7374c86946f17e88bececd56d249e022033361bda6d56ae58626c3226b460846b8bd8aac548ced6d10fd0dcd9f5219034012102443b63be64d11f7c69260608e030dd137c0ca339b22b279f3ceb7008cf2ef5bf0247304402204d90ff681351e920a5debe3d77a9afcb68a62c11c436b1f5b75f32bcb251769002200095e611f7d5f7193a099988b43187e843f9fdd602f263aef78208938359dc33012102a99c14b121e506bf9fb4ca7857cd1418c0909fb323ca84e255f17bb13c0a5b8302483045022100f81f48c89db8f619f03f93de2363ed9ffd2fe2af6e099c7e8b5cbf6c7990a4070220030456dc5fe4fd024e71f133e306211dc50bbc1f1c643db3b6f765e4c84fd5ec0121021284fd6d9d3e9e2e14a021f8af67b563ac45d7d6c9c08c366843417b3c16126302483045022100fb3e7bc9bfbc4ade1acf3bcc0194d85cc7061cba6fead0aab01d764694569ebb02206f814919b010c13e1588760bdbeb7f041a30cd8f27b2cc712d83f851dc2d03d1012102214409f2aaa704169f778ae4a1b5b71b01a5887d7c260ca7b3ef55cca19df81702473044022055627dd4b4ebf59e0de3f82a1d5f56efdaed3a5351b2c439e8b37041d8922a6f022034f8b0138daadb3cc2d6587a8b1181b4e8010b405574a768e7648b18878e82cd012102d6ab2e387a76e9e7eefadeadbbea8bd6077600b1d5bd0cdf27d782bfc4af7e0c02483045022100c6a8ebd0e9fc01012d53f67128999d3b3a8f9c28e63845e142013c649d6d6f63022006f3c6c0265f84ca8489ba5008c6f5aa794c40c8e7eb74f13ce91ad0da00c226012102521d535d4793244e879cfb450c25f2c33bc0d323a35732a724c3bae1c2a14ea602473044022063191233908ac891eb4122afda264f624eaaa3794f5eae89bf0522c93566a43e0220676b58fbddf0bfe99ed14da00e392090d538c1043a7c32d985e4bc14e2e7c964012102521d535d4793244e879cfb450c25f2c33bc0d323a35732a724c3bae1c2a14ea602483045022100a77911e81c451b32f7072063e8c00a1d5ce7192092439112a4fbeb77e3fbfb58022032b711e6cbbadd2d57b2e0d9ab2347aec65ba5d5f717f6e47f42a4374167be7b012102a99c14b121e506bf9fb4ca7857cd1418c0909fb323ca84e255f17bb13c0a5b8302483045022100ed37fe8337ce9ec6dcfe9dc91f82c17409d974642cb42a36936d6bfe73059512022018e30e827c328c1754fdc570232b2ef83b5d4ae7e20e5f3608cded4105ad3904012103c3b0c35cd05b2dd0b0648e9864c80a9d2a8090565f2f4e7fa1895a84db8610e202483045022100818ec687b5ebe16235265f13a3fb896d71fbf4c1291d91f015e8ea8ee8d1a2ee022029784bb87a237bf41f21c8356a6db4efdf23ff61ced29dec587b7898dfc93b570121035c0ac016721b286f8a8511a79e4f6608778a76d579addf24cc72857519a6335c024730440220703c1be04ca4366c01f5409bb0dba243354f8167e30eddc6ee6b4daf0a933cd802200088eac1cbdea40f7d8fbba7d972ca65fdaa93e7df4a99deff64ced4409cc51c0121020a06b56e45ba718ba8859daff002f8bcad615690f0bf959917abbcfc69f6bb7e02483045022100b7fd0b6d560c21d6389c858fa8d4f1502d15de593ebd28e6a65cc9e7ab71aeca022070a22c09c40e22999b3bd6fade4bdf3bb240eb46aa16f3d983e847b32d755a42012102f3ca159caa19799274e28b7b6dcb55237c811d46aba50f8849a6f92ca2200fa910490800", "vin": [{"txinwitness": ["304402203b9ef875deb24e6498dbf58132e924a7a4eba6220123669503e625f4bbacc5d902200c371f4fc176d0fbea851cf72403aacc52351e931d3457099deb92227a2a723a01", "023a6c2131092bf6ea564acfb4be1521ee46fca452cca86367458b33feaa62fe61"], "sequence": 4294967294, "scriptSig": {"hex": "160014bc8a9e3fd7909893fd39cb4d092c9f4a2707ea1b", "asm": "0014bc8a9e3fd7909893fd39cb4d092c9f4a2707ea1b"}, "vout": 1, "txid": "dc60ea427fe90cd81a8a5b7c5ca14c7ae97777b57263f8ba553f77001f4c4013"}, {"txinwitness": ["30440220455cf8c3553f4b8124b6e5d5e930773923c8afc703270d90b3c6ce6f355abedb022033c319ab863120bc15d31117b20b3c10b8ec54205f40596c5db9f2c07043e22f01", "02521d535d4793244e879cfb450c25f2c33bc0d323a35732a724c3bae1c2a14ea6"], "sequence": 4294967294, "scriptSig": {"hex": "160014327302a134baf8a52d6d88aa7754813bd1a0e400", "asm": "0014327302a134baf8a52d6d88aa7754813bd1a0e400"}, "vout": 0, "txid": "d1d7496369987fc253aa91c8b8f9eaaed51a9e1f5536be2a20eb95c9f13fe918"}, {"txinwitness": ["304402202da9f7fb5acea50856a532c2d58789b89d993e8d40103b10336f4765aafe40b20220130cab64bdb12b2dae13695a5785dcc239c2e02f197430513a923a04d04d45b201", "02d6ab2e387a76e9e7eefadeadbbea8bd6077600b1d5bd0cdf27d782bfc4af7e0c"], "sequence": 4294967294, "scriptSig": {"hex": "160014dd1d4baf6a9d018273da3d452d4e4cd37da609ef", "asm": "0014dd1d4baf6a9d018273da3d452d4e4cd37da609ef"}, "vout": 1, "txid": "a50ed96596a1993c9a9a462444e097a135589efb95f60b745fd8e00d8078fc31"}, {"txinwitness": ["304402205ebd506a01609866eb4e24fdbf7863fb7bf7374c86946f17e88bececd56d249e022033361bda6d56ae58626c3226b460846b8bd8aac548ced6d10fd0dcd9f521903401", "02443b63be64d11f7c69260608e030dd137c0ca339b22b279f3ceb7008cf2ef5bf"], "sequence": 4294967294, "scriptSig": {"hex": "1600144f42b1ed1cbce970f1436b1098f52655bab5844c", "asm": "00144f42b1ed1cbce970f1436b1098f52655bab5844c"}, "vout": 0, "txid": "8f30fa024035efa13759d51e206707691de8fe43c2a4958e977d06252feb7d55"}, {"txinwitness": ["304402204d90ff681351e920a5debe3d77a9afcb68a62c11c436b1f5b75f32bcb251769002200095e611f7d5f7193a099988b43187e843f9fdd602f263aef78208938359dc3301", "02a99c14b121e506bf9fb4ca7857cd1418c0909fb323ca84e255f17bb13c0a5b83"], "sequence": 4294967294, "scriptSig": {"hex": "1600147f115e8c82df262f386999be3693285e8e4e58b1", "asm": "00147f115e8c82df262f386999be3693285e8e4e58b1"}, "vout": 0, "txid": "6addcb234c5808e9f3034b560a14bdc15af583faebf757834740590633efab59"}, {"txinwitness": ["3045022100f81f48c89db8f619f03f93de2363ed9ffd2fe2af6e099c7e8b5cbf6c7990a4070220030456dc5fe4fd024e71f133e306211dc50bbc1f1c643db3b6f765e4c84fd5ec01", "021284fd6d9d3e9e2e14a021f8af67b563ac45d7d6c9c08c366843417b3c161263"], "sequence": 4294967294, "scriptSig": {"hex": "160014da749ad9e2ed044f2dced2e13d69f0fa6534e4b9", "asm": "0014da749ad9e2ed044f2dced2e13d69f0fa6534e4b9"}, "vout": 0, "txid": "8e2402be13b56bcf449cd7c2a24543c32cee07787612196a32416a400742975e"}, {"txinwitness": ["3045022100fb3e7bc9bfbc4ade1acf3bcc0194d85cc7061cba6fead0aab01d764694569ebb02206f814919b010c13e1588760bdbeb7f041a30cd8f27b2cc712d83f851dc2d03d101", "02214409f2aaa704169f778ae4a1b5b71b01a5887d7c260ca7b3ef55cca19df817"], "sequence": 4294967294, "scriptSig": {"hex": "16001422bb9e74dd1d3be9a004516bd7d59c9ea0d9ad4a", "asm": "001422bb9e74dd1d3be9a004516bd7d59c9ea0d9ad4a"}, "vout": 0, "txid": "02d720d9aa58ff3d05bc7e69efce732ce5e5154beef36505c86931c3fcf8d192"}, {"txinwitness": ["3044022055627dd4b4ebf59e0de3f82a1d5f56efdaed3a5351b2c439e8b37041d8922a6f022034f8b0138daadb3cc2d6587a8b1181b4e8010b405574a768e7648b18878e82cd01", "02d6ab2e387a76e9e7eefadeadbbea8bd6077600b1d5bd0cdf27d782bfc4af7e0c"], "sequence": 4294967294, "scriptSig": {"hex": "160014dd1d4baf6a9d018273da3d452d4e4cd37da609ef", "asm": "0014dd1d4baf6a9d018273da3d452d4e4cd37da609ef"}, "vout": 1, "txid": "0ca73159eee61e4d69fea8faeec958235291d87087798210a32586bc0f80389c"}, {"txinwitness": ["3045022100c6a8ebd0e9fc01012d53f67128999d3b3a8f9c28e63845e142013c649d6d6f63022006f3c6c0265f84ca8489ba5008c6f5aa794c40c8e7eb74f13ce91ad0da00c22601", "02521d535d4793244e879cfb450c25f2c33bc0d323a35732a724c3bae1c2a14ea6"], "sequence": 4294967294, "scriptSig": {"hex": "160014327302a134baf8a52d6d88aa7754813bd1a0e400", "asm": "0014327302a134baf8a52d6d88aa7754813bd1a0e400"}, "vout": 0, "txid": "f6fd5265d452fc3c1452e3acd864b8cf8c6142aca89ce6d519b777c01468f2a1"}, {"txinwitness": ["3044022063191233908ac891eb4122afda264f624eaaa3794f5eae89bf0522c93566a43e0220676b58fbddf0bfe99ed14da00e392090d538c1043a7c32d985e4bc14e2e7c96401", "02521d535d4793244e879cfb450c25f2c33bc0d323a35732a724c3bae1c2a14ea6"], "sequence": 4294967294, "scriptSig": {"hex": "160014327302a134baf8a52d6d88aa7754813bd1a0e400", "asm": "0014327302a134baf8a52d6d88aa7754813bd1a0e400"}, "vout": 0, "txid": "99363c629668b8cedcb4836f95c3b1b769bf95bf69c8368fa98b02f1a82112b3"}, {"txinwitness": ["3045022100a77911e81c451b32f7072063e8c00a1d5ce7192092439112a4fbeb77e3fbfb58022032b711e6cbbadd2d57b2e0d9ab2347aec65ba5d5f717f6e47f42a4374167be7b01", "02a99c14b121e506bf9fb4ca7857cd1418c0909fb323ca84e255f17bb13c0a5b83"], "sequence": 4294967294, "scriptSig": {"hex": "1600147f115e8c82df262f386999be3693285e8e4e58b1", "asm": "00147f115e8c82df262f386999be3693285e8e4e58b1"}, "vout": 0, "txid": "6251f93ea54711c41b8dc5c02f33290802976dc4a9602477f42fe44ba9406fb3"}, {"txinwitness": ["3045022100ed37fe8337ce9ec6dcfe9dc91f82c17409d974642cb42a36936d6bfe73059512022018e30e827c328c1754fdc570232b2ef83b5d4ae7e20e5f3608cded4105ad390401", "03c3b0c35cd05b2dd0b0648e9864c80a9d2a8090565f2f4e7fa1895a84db8610e2"], "sequence": 4294967294, "scriptSig": {"hex": "16001464fc73df134e1779da936f52f4c3de9893088104", "asm": "001464fc73df134e1779da936f52f4c3de9893088104"}, "vout": 1, "txid": "2a9d4204d9be4732c1c052a56c5bee347fa7bf0695a96acd44bc0485014d2fc0"}, {"txinwitness": ["3045022100818ec687b5ebe16235265f13a3fb896d71fbf4c1291d91f015e8ea8ee8d1a2ee022029784bb87a237bf41f21c8356a6db4efdf23ff61ced29dec587b7898dfc93b5701", "035c0ac016721b286f8a8511a79e4f6608778a76d579addf24cc72857519a6335c"], "sequence": 4294967294, "scriptSig": {"hex": "1600148fa7ab73becd291c44ce2ea1a2672a8499b8b78a", "asm": "00148fa7ab73becd291c44ce2ea1a2672a8499b8b78a"}, "vout": 0, "txid": "54d17a9c8d964b4c56eeeb7973666318b51539c12402b04dde7c6372a8d47cc5"}, {"txinwitness": ["30440220703c1be04ca4366c01f5409bb0dba243354f8167e30eddc6ee6b4daf0a933cd802200088eac1cbdea40f7d8fbba7d972ca65fdaa93e7df4a99deff64ced4409cc51c01", "020a06b56e45ba718ba8859daff002f8bcad615690f0bf959917abbcfc69f6bb7e"], "sequence": 4294967294, "scriptSig": {"hex": "160014e1331f3240b6c8f7da004357d91503a71aa7156a", "asm": "0014e1331f3240b6c8f7da004357d91503a71aa7156a"}, "vout": 0, "txid": "b8d95ec8445a7ee6c0af57e240a6d94137fb9448fd5bb5b8c32e87bb5b20c4c6"}, {"txinwitness": ["3045022100b7fd0b6d560c21d6389c858fa8d4f1502d15de593ebd28e6a65cc9e7ab71aeca022070a22c09c40e22999b3bd6fade4bdf3bb240eb46aa16f3d983e847b32d755a4201", "02f3ca159caa19799274e28b7b6dcb55237c811d46aba50f8849a6f92ca2200fa9"], "sequence": 4294967294, "scriptSig": {"hex": "16001401b1354b4b8baf4b2407be6f87b3f78d6102100f", "asm": "001401b1354b4b8baf4b2407be6f87b3f78d6102100f"}, "vout": 0, "txid": "a43b01463a055c6d973083d2a5d1fb7d0d3fa580fcac80db2c6e5e0033aabcd9"}], "txid": "20522a7d0042fbc1b2a43576f09c5338e6a94ca2245d18ccf26d469ab1c5a4a1", "blocktime": 1537871767, "version": 2, "confirmations": 11495, "time": 1537871767, "locktime": 542992, "vsize": 1406, "size": 2616}