{"hash": "2054e029f93c8cae1615594739c8c8cbdb05a032e21f4b293f351c5adf56a439", "blockhash": "0000000000000000001cda96e906b7601b7a6fb1a3b62bca570a9e5d8f4b3de1", "vout": [{"scriptPubKey": {"reqSigs": 1, "hex": "76a914e8cea30989bd15530f819b766684b00dc7ba7cfa88ac", "addresses": ["1NDyJtNTjmwk5xPNhjgAMu4HDHigtobu1s"], "asm": "OP_DUP OP_HASH160 e8cea30989bd15530f819b766684b00dc7ba7cfa OP_EQUALVERIFY OP_CHECKSIG", "type": "pubkeyhash"}, "value": 5.42007992, "n": 0}, {"scriptPubKey": {"reqSigs": 1, "hex": "76a914791314b8cef346af9076531277574ef5d58d67ec88ac", "addresses": ["1C3BcymcQ46HCWGoPJea17tbavVJAW1azy"], "asm": "OP_DUP OP_HASH160 791314b8cef346af9076531277574ef5d58d67ec OP_EQUALVERIFY OP_CHECKSIG", "type": "pubkeyhash"}, "value": 0.00892643, "n": 1}], "hex": "02000000081aa188b058f1f342201c2da25db85204804824de364218b4b316a3c75308aa69000000006b483045022100f7bc3e684c7a9827a3a9404b8f91a99b006337a52eb14b71eb855f7e2615c4b50220013e35ca02e7bc29cd1455c37bf8295c3a6ccce3cb7e24c5d2a122e69431deb8012103f43692d6b6a64c2caffed4366dbb807f986dd4fca67215ec970453c2a47308a6feffffff3caa434027c97113314c37ad2f5d054ddfe1f6927f1c330f3a261064bbe5aabb000000006a47304402201be5dd5f2f4b9fe4ff15b82a96e8195ce6805df67e14c82cfed4777d5153dc1d022036fd6059c9d5c4e41def448232f8c75b30b3ee648827e238b6edc6fbbc5cca53012102a569ff465f68989873d50d558e4c4ceaa1b4c9d6c26d7cc7eb1dd481f75b7d1ffeffffff40c8b726a9f48981a2f7a1123531107a7b11adcc99e169b60ff1740997dcd6d7000000006a47304402205008381f3f057479b820143fc8d9b9323baa5668e8ab718073cefabae4e7c1a8022035e6c2d06b0957260ff0ee8acf6e6075de43275d300c7aab1e4075ae3ad66f52012102ca10b8385e3240f80f57913db13de851f5d96e4468681470dddc2a1fa9556a90feffffff4d356863c1d9303bf851b5faae1b63b1e5a1ef8425648349d5fd7d1caf66d5ad050000006a4730440220513a7e5940a75ca5d9478baca8b2af70b5a0eb7e15b9d8f42c69b3c0a0bb251c02200c477c10aa9d5ee54f9b025744774636699f56c787a606dd0ada35b1b501b04301210390f16392a7ead218e0ca063391bd25caa70bda11e6ad6df1801926361246b1eefeffffff520a4a59571d59a3486392d99efbb8a78ff611c099360f39a129ccd81ff1168b010000006b483045022100eca30b0d25089f7d99442529663c838a141f46b789010a5820a4195ca90e0189022063311ab5e6a81cbc9da3614acd15db7517af0cbeab67e52341ef7c8887ed4d4f012102a6cb41507875e834ddd0d909318dc990a58d71696e732ca4023c71bed37e56c6feffffff53745fdcb9cd4f99804b2c52d32bb08663f61627d07d4ba45a804e5a02fa10aa390000006a47304402206e12e227b9afc085afcfd1c171236be46d859b9789ddbb24fbeee374ed7c939202200e8e33fd678e9795ef7db99a30a97321eb78e2372f8e360c73480aae9f510816012103f43692d6b6a64c2caffed4366dbb807f986dd4fca67215ec970453c2a47308a6feffffff5863082b19814b3c637c5d7c1c3daeec6b8d3b36662f943c1d680128bc293397000000006a473044022024c3524f4f6f8680decc9c7f77f0fe248a6ebb23880903e589be14131300314b0220557f96923cd1168132ee7b6e2ddba9ed0d1d3696e369a6f5f61523df30516705012103af9d4f1e1ff551f1521555742f7898a9bcf4b78c6a0a0ba7d90d414baff613d9feffffffe53dd074c9b611663ab2fec97c1a4ba01af2c660b8215485db5960b4fa106294000000006b483045022100bd72280c8cba627e18cc82946cdb6f1732197dc0a414d0668111dd4ca76fe8330220101f635d4ccd7f4767d2619754918940eb892a4bc304f6f35cc86f0317dcc544012103cfa3c99ddf9ded9b5ff8a42096658ae5abbefac18e6718aef74722993b4bffddfeffffff02b8624e20000000001976a914e8cea30989bd15530f819b766684b00dc7ba7cfa88ace39e0d00000000001976a914791314b8cef346af9076531277574ef5d58d67ec88ac13490800", "vin": [{"sequence": 4294967294, "scriptSig": {"hex": "483045022100f7bc3e684c7a9827a3a9404b8f91a99b006337a52eb14b71eb855f7e2615c4b50220013e35ca02e7bc29cd1455c37bf8295c3a6ccce3cb7e24c5d2a122e69431deb8012103f43692d6b6a64c2caffed4366dbb807f986dd4fca67215ec970453c2a47308a6", "asm": "3045022100f7bc3e684c7a9827a3a9404b8f91a99b006337a52eb14b71eb855f7e2615c4b50220013e35ca02e7bc29cd1455c37bf8295c3a6ccce3cb7e24c5d2a122e69431deb8[ALL] 03f43692d6b6a64c2caffed4366dbb807f986dd4fca67215ec970453c2a47308a6"}, "vout": 0, "txid": "69aa0853c7a316b3b4184236de2448800452b85da22d1c2042f3f158b088a11a"}, {"sequence": 4294967294, "scriptSig": {"hex": "47304402201be5dd5f2f4b9fe4ff15b82a96e8195ce6805df67e14c82cfed4777d5153dc1d022036fd6059c9d5c4e41def448232f8c75b30b3ee648827e238b6edc6fbbc5cca53012102a569ff465f68989873d50d558e4c4ceaa1b4c9d6c26d7cc7eb1dd481f75b7d1f", "asm": "304402201be5dd5f2f4b9fe4ff15b82a96e8195ce6805df67e14c82cfed4777d5153dc1d022036fd6059c9d5c4e41def448232f8c75b30b3ee648827e238b6edc6fbbc5cca53[ALL] 02a569ff465f68989873d50d558e4c4ceaa1b4c9d6c26d7cc7eb1dd481f75b7d1f"}, "vout": 0, "txid": "bbaae5bb6410263a0f331c7f92f6e1df4d055d2fad374c311371c9274043aa3c"}, {"sequence": 4294967294, "scriptSig": {"hex": "47304402205008381f3f057479b820143fc8d9b9323baa5668e8ab718073cefabae4e7c1a8022035e6c2d06b0957260ff0ee8acf6e6075de43275d300c7aab1e4075ae3ad66f52012102ca10b8385e3240f80f57913db13de851f5d96e4468681470dddc2a1fa9556a90", "asm": "304402205008381f3f057479b820143fc8d9b9323baa5668e8ab718073cefabae4e7c1a8022035e6c2d06b0957260ff0ee8acf6e6075de43275d300c7aab1e4075ae3ad66f52[ALL] 02ca10b8385e3240f80f57913db13de851f5d96e4468681470dddc2a1fa9556a90"}, "vout": 0, "txid": "d7d6dc970974f10fb669e199ccad117b7a10313512a1f7a28189f4a926b7c840"}, {"sequence": 4294967294, "scriptSig": {"hex": "4730440220513a7e5940a75ca5d9478baca8b2af70b5a0eb7e15b9d8f42c69b3c0a0bb251c02200c477c10aa9d5ee54f9b025744774636699f56c787a606dd0ada35b1b501b04301210390f16392a7ead218e0ca063391bd25caa70bda11e6ad6df1801926361246b1ee", "asm": "30440220513a7e5940a75ca5d9478baca8b2af70b5a0eb7e15b9d8f42c69b3c0a0bb251c02200c477c10aa9d5ee54f9b025744774636699f56c787a606dd0ada35b1b501b043[ALL] 0390f16392a7ead218e0ca063391bd25caa70bda11e6ad6df1801926361246b1ee"}, "vout": 5, "txid": "add566af1c7dfdd54983642584efa1e5b1631baefab551f83b30d9c16368354d"}, {"sequence": 4294967294, "scriptSig": {"hex": "483045022100eca30b0d25089f7d99442529663c838a141f46b789010a5820a4195ca90e0189022063311ab5e6a81cbc9da3614acd15db7517af0cbeab67e52341ef7c8887ed4d4f012102a6cb41507875e834ddd0d909318dc990a58d71696e732ca4023c71bed37e56c6", "asm": "3045022100eca30b0d25089f7d99442529663c838a141f46b789010a5820a4195ca90e0189022063311ab5e6a81cbc9da3614acd15db7517af0cbeab67e52341ef7c8887ed4d4f[ALL] 02a6cb41507875e834ddd0d909318dc990a58d71696e732ca4023c71bed37e56c6"}, "vout": 1, "txid": "8b16f11fd8cc29a1390f3699c011f68fa7b8fb9ed9926348a3591d57594a0a52"}, {"sequence": 4294967294, "scriptSig": {"hex": "47304402206e12e227b9afc085afcfd1c171236be46d859b9789ddbb24fbeee374ed7c939202200e8e33fd678e9795ef7db99a30a97321eb78e2372f8e360c73480aae9f510816012103f43692d6b6a64c2caffed4366dbb807f986dd4fca67215ec970453c2a47308a6", "asm": "304402206e12e227b9afc085afcfd1c171236be46d859b9789ddbb24fbeee374ed7c939202200e8e33fd678e9795ef7db99a30a97321eb78e2372f8e360c73480aae9f510816[ALL] 03f43692d6b6a64c2caffed4366dbb807f986dd4fca67215ec970453c2a47308a6"}, "vout": 57, "txid": "aa10fa025a4e805aa44b7dd02716f66386b02bd3522c4b80994fcdb9dc5f7453"}, {"sequence": 4294967294, "scriptSig": {"hex": "473044022024c3524f4f6f8680decc9c7f77f0fe248a6ebb23880903e589be14131300314b0220557f96923cd1168132ee7b6e2ddba9ed0d1d3696e369a6f5f61523df30516705012103af9d4f1e1ff551f1521555742f7898a9bcf4b78c6a0a0ba7d90d414baff613d9", "asm": "3044022024c3524f4f6f8680decc9c7f77f0fe248a6ebb23880903e589be14131300314b0220557f96923cd1168132ee7b6e2ddba9ed0d1d3696e369a6f5f61523df30516705[ALL] 03af9d4f1e1ff551f1521555742f7898a9bcf4b78c6a0a0ba7d90d414baff613d9"}, "vout": 0, "txid": "973329bc2801681d3c942f66363b8d6becae3d1c7c5d7c633c4b81192b086358"}, {"sequence": 4294967294, "scriptSig": {"hex": "483045022100bd72280c8cba627e18cc82946cdb6f1732197dc0a414d0668111dd4ca76fe8330220101f635d4ccd7f4767d2619754918940eb892a4bc304f6f35cc86f0317dcc544012103cfa3c99ddf9ded9b5ff8a42096658ae5abbefac18e6718aef74722993b4bffdd", "asm": "3045022100bd72280c8cba627e18cc82946cdb6f1732197dc0a414d0668111dd4ca76fe8330220101f635d4ccd7f4767d2619754918940eb892a4bc304f6f35cc86f0317dcc544[ALL] 03cfa3c99ddf9ded9b5ff8a42096658ae5abbefac18e6718aef74722993b4bffdd"}, "vout": 0, "txid": "946210fab46059db855421b860c6f21aa04b1a7cc9feb23a6611b6c974d03de5"}], "txid": "2054e029f93c8cae1615594739c8c8cbdb05a032e21f4b293f351c5adf56a439", "blocktime": 1537873282, "version": 2, "confirmations": 11480, "time": 1537873282, "locktime": 542995, "vsize": 1257, "size": 1257}