{"hash": "acf172acffec2cbe533cb4c9b4df66399b721464f1093ff492b7b48ecb3d90b8", "blockhash": "0000000000000000000e13cef7c366c0283d82e591d1acd082e914b08063cdf1", "vout": [{"scriptPubKey": {"reqSigs": 1, "hex": "a914df78edcade5fc74eeaeaee6cec68038df061c7e787", "addresses": ["3N4dUcCDKengLrf7Cubp9TwVhJ3vTfruaa"], "asm": "OP_HASH160 df78edcade5fc74eeaeaee6cec68038df061c7e7 OP_EQUAL", "type": "scripthash"}, "value": 0.0014, "n": 0}, {"scriptPubKey": {"reqSigs": 1, "hex": "a9149649ad6d2730bb28020a268d9d80df10a9f74ad487", "addresses": ["3FPfYWwfMfKMGY7fuPHvz2b73RhTNGzsm3"], "asm": "OP_HASH160 9649ad6d2730bb28020a268d9d80df10a9f74ad4 OP_EQUAL", "type": "scripthash"}, "value": 13.89681921, "n": 1}], "hex": "01000000000101955fea679defd2151609e4cfe0ca1345ec2ef0e81455dc4c0a5b81625b80987d01000000232200207768efcc1e5eb3d28410fac3f45831004c860cc24cddd940a616b34324823fceffffffff02e02202000000000017a914df78edcade5fc74eeaeaee6cec68038df061c7e78701ddd4520000000017a9149649ad6d2730bb28020a268d9d80df10a9f74ad487040047304402201446dd02f523bfd4ce3eb73907907e4ba0dfc956fe07612ea32b3d21fccac682022056f1f9afa484825b0dfe8260ccb059fcb183dce1269d39e25698668ee0819f99014730440220727ea6c1bddf7786e21460386bc1151bb84a749750b4f32e0e0150469a7d1e400220737693c062fe478081a41c3bffcc593218553bb47e85e60cb9ea813fa77915690147522102529d5d1f6733ab45d9d50e07db42c7f6b967ae321c38b726c2247f149959b8262103d0c936a5988dd8421c63240496b723b0ec42400c38b9350e32c2eb4f47d8796952ae00000000", "vin": [{"txinwitness": ["", "304402201446dd02f523bfd4ce3eb73907907e4ba0dfc956fe07612ea32b3d21fccac682022056f1f9afa484825b0dfe8260ccb059fcb183dce1269d39e25698668ee0819f9901", "30440220727ea6c1bddf7786e21460386bc1151bb84a749750b4f32e0e0150469a7d1e400220737693c062fe478081a41c3bffcc593218553bb47e85e60cb9ea813fa779156901", "522102529d5d1f6733ab45d9d50e07db42c7f6b967ae321c38b726c2247f149959b8262103d0c936a5988dd8421c63240496b723b0ec42400c38b9350e32c2eb4f47d8796952ae"], "sequence": 4294967295, "scriptSig": {"hex": "2200207768efcc1e5eb3d28410fac3f45831004c860cc24cddd940a616b34324823fce", "asm": "00207768efcc1e5eb3d28410fac3f45831004c860cc24cddd940a616b34324823fce"}, "vout": 1, "txid": "7d98805b62815b0a4cdc5514e8f02eec4513cae0cfe4091615d2ef9d67ea5f95"}], "txid": "205ba86fa1897414bdd3e1a0e045cdab074631df286526c4ff58c7f2d7c48cee", "blocktime": 1537871767, "version": 1, "confirmations": 11495, "time": 1537871767, "locktime": 0, "vsize": 205, "size": 370}