{"hash": "c2cc930aa2fcea335942e851e5d703e101e4669349b259f333aa8630882d80a5", "blockhash": "0000000000000000001cda96e906b7601b7a6fb1a3b62bca570a9e5d8f4b3de1", "vout": [{"scriptPubKey": {"reqSigs": 1, "hex": "a9145f30f96d39bb6ebeeb211edb52c25461fc0650c787", "addresses": ["3ANLnZd3DZFHgyCtMwxotiUnFuiZ7WcYZE"], "asm": "OP_HASH160 5f30f96d39bb6ebeeb211edb52c25461fc0650c7 OP_EQUAL", "type": "scripthash"}, "value": 0.00999633, "n": 0}, {"scriptPubKey": {"reqSigs": 1, "hex": "76a91403308ed673c04fef12cac064397c1840a546f68c88ac", "addresses": ["1HsCScpyNy1sw2LnbMepqpUve2NVepwGj"], "asm": "OP_DUP OP_HASH160 03308ed673c04fef12cac064397c1840a546f68c OP_EQUALVERIFY OP_CHECKSIG", "type": "pubkeyhash"}, "value": 0.0637387, "n": 1}], "hex": "020000000001021f4fbb5008e2c505d0751f9c42758e9b5b4d4f75f6795dd4987d505dee5d72660100000017160014ed5364bcd67bb50264575d6cd21cf3766c7d1b70feffffff3ad88c8c5b912a437b487e886e46e2656f5e27b621a310144847347045d4334400000000171600148503aa67fe470d30fdc434e8be321e4d4553ec52feffffff02d1400f000000000017a9145f30f96d39bb6ebeeb211edb52c25461fc0650c787ee416100000000001976a91403308ed673c04fef12cac064397c1840a546f68c88ac024730440220079ef04a8c5c4fbc6961b79acc46811eec1cc021d18ee5fa1637533aa3c61b4102206dbf163f6ed46921ed41b3e7ae5b20bf6bcb66445a3f1d2929772ce8e7d26110012102687302d5e26980150e7fcffb71d3a044b82cfd4a5a39ad9e9e0a4437e31f9b6a02483045022100edf1cb9076115bae9dbc285c9d1f8d78c9c365f6fa729a79f215a46968d74add02205820329f2454766aae07a56eeef90b41184680fbcba75ede262736061bd8e5b60121038f71c2837a96f561ecacb670c618d7d37efdc937416c15187970dcc754fa459313490800", "vin": [{"txinwitness": ["30440220079ef04a8c5c4fbc6961b79acc46811eec1cc021d18ee5fa1637533aa3c61b4102206dbf163f6ed46921ed41b3e7ae5b20bf6bcb66445a3f1d2929772ce8e7d2611001", "02687302d5e26980150e7fcffb71d3a044b82cfd4a5a39ad9e9e0a4437e31f9b6a"], "sequence": 4294967294, "scriptSig": {"hex": "160014ed5364bcd67bb50264575d6cd21cf3766c7d1b70", "asm": "0014ed5364bcd67bb50264575d6cd21cf3766c7d1b70"}, "vout": 1, "txid": "66725dee5d507d98d45d79f6754f4d5b9b8e75429c1f75d005c5e20850bb4f1f"}, {"txinwitness": ["3045022100edf1cb9076115bae9dbc285c9d1f8d78c9c365f6fa729a79f215a46968d74add02205820329f2454766aae07a56eeef90b41184680fbcba75ede262736061bd8e5b601", "038f71c2837a96f561ecacb670c618d7d37efdc937416c15187970dcc754fa4593"], "sequence": 4294967294, "scriptSig": {"hex": "1600148503aa67fe470d30fdc434e8be321e4d4553ec52", "asm": "00148503aa67fe470d30fdc434e8be321e4d4553ec52"}, "vout": 0, "txid": "4433d445703447481410a321b6275e6f65e2466e887e487b432a915b8c8cd83a"}], "txid": "205b73eee620f13239c84b5fbd2b3aa525e68762499cd102297ea60eaa631afd", "blocktime": 1537873282, "version": 2, "confirmations": 11481, "time": 1537873282, "locktime": 542995, "vsize": 259, "size": 421}