{"hash": "2066b59079986075f30dc393074f5706b8c4bab5732331daf0a07e3c76acd3c4", "blockhash": "000000000000000000205f8b0775d31398ef75b89a5e8ec8d2c57b4dc0ac4c20", "vout": [{"scriptPubKey": {"reqSigs": 1, "hex": "76a914f2f5ae4a6129ebc23a11794d4d6d0fc0212e3b5888ac", "addresses": ["1P9eqdJ5NXLqhquNDS9pA9epuj16jDCgHg"], "asm": "OP_DUP OP_HASH160 f2f5ae4a6129ebc23a11794d4d6d0fc0212e3b58 OP_EQUALVERIFY OP_CHECKSIG", "type": "pubkeyhash"}, "value": 0.0311131, "n": 0}, {"scriptPubKey": {"reqSigs": 1, "hex": "a9147e0ec5c0d0e159ca0cce497fbc6db90872446b2187", "addresses": ["3DBYm88pjVrXvaFy81AWMJAPrtx6fgNCNU"], "asm": "OP_HASH160 7e0ec5c0d0e159ca0cce497fbc6db90872446b21 OP_EQUAL", "type": "scripthash"}, "value": 0.15144474, "n": 1}], "hex": "0100000002b0d89d2656c2dcd8cfb2bc1653ddde83d628a68dce18c41931f150fa951ae132000000006b483045022100f951dcc041c0de831ed4ccb6a885d02f2d5f45b180e7be338d51d3869be66b8f0220676e413184dd3abf45788fa8cda348aa9c5519726ab0c0d127a2779e8b014e3f0121039b1eac58305fb78fd25267ff006b83d8cbf72c604b2ceed352c44955e8b359a0ffffffffb65874ea3fae02495e868d3245e9e8ad743986b785ecb3cd4c44ee4df42d66ff000000006a4730440220539af2abf9dc2f7164579e60ae18d3024cb68dc0b9c5d63b11a84e84bff1717202201053d3382cdb10140122db69c1c522b78eea6aa6da380db6bea889bd630122970121029d36fc4bffa91cf466889f30857f69067f26c72a146fa141d6b701c6bd8b85abffffffff028e792f00000000001976a914f2f5ae4a6129ebc23a11794d4d6d0fc0212e3b5888ac1a16e7000000000017a9147e0ec5c0d0e159ca0cce497fbc6db90872446b218700000000", "vin": [{"sequence": 4294967295, "scriptSig": {"hex": "483045022100f951dcc041c0de831ed4ccb6a885d02f2d5f45b180e7be338d51d3869be66b8f0220676e413184dd3abf45788fa8cda348aa9c5519726ab0c0d127a2779e8b014e3f0121039b1eac58305fb78fd25267ff006b83d8cbf72c604b2ceed352c44955e8b359a0", "asm": "3045022100f951dcc041c0de831ed4ccb6a885d02f2d5f45b180e7be338d51d3869be66b8f0220676e413184dd3abf45788fa8cda348aa9c5519726ab0c0d127a2779e8b014e3f[ALL] 039b1eac58305fb78fd25267ff006b83d8cbf72c604b2ceed352c44955e8b359a0"}, "vout": 0, "txid": "32e11a95fa50f13119c418ce8da628d683dedd5316bcb2cfd8dcc256269dd8b0"}, {"sequence": 4294967295, "scriptSig": {"hex": "4730440220539af2abf9dc2f7164579e60ae18d3024cb68dc0b9c5d63b11a84e84bff1717202201053d3382cdb10140122db69c1c522b78eea6aa6da380db6bea889bd630122970121029d36fc4bffa91cf466889f30857f69067f26c72a146fa141d6b701c6bd8b85ab", "asm": "30440220539af2abf9dc2f7164579e60ae18d3024cb68dc0b9c5d63b11a84e84bff1717202201053d3382cdb10140122db69c1c522b78eea6aa6da380db6bea889bd63012297[ALL] 029d36fc4bffa91cf466889f30857f69067f26c72a146fa141d6b701c6bd8b85ab"}, "vout": 0, "txid": "ff662df44dee444ccdb3ec85b7863974ade8e945328d865e4902ae3fea7458b6"}], "txid": "2066b59079986075f30dc393074f5706b8c4bab5732331daf0a07e3c76acd3c4", "blocktime": 1537871175, "version": 1, "confirmations": 11511, "time": 1537871175, "locktime": 0, "vsize": 371, "size": 371}