{"hash": "60a1044b9824d9d819f4ec25db0d8c7a070dedca973f0350f08657dfce9de36b", "blockhash": "0000000000000000000baef3f32e3676a92c3b2e5da21b426e4f302fc371ce76", "vout": [{"scriptPubKey": {"reqSigs": 1, "hex": "a914c309179b3a3ae390cb8582a6aff9a43ee1e158b287", "addresses": ["3KUGagtx9iqR9WUEAS71eUoRztLtzkXS6U"], "asm": "OP_HASH160 c309179b3a3ae390cb8582a6aff9a43ee1e158b2 OP_EQUAL", "type": "scripthash"}, "value": 0.00127736, "n": 0}, {"scriptPubKey": {"reqSigs": 1, "hex": "76a914c6d20bfc87d66974e256041d90a128dbbf6e32d688ac", "addresses": ["1K8GRHuXLVjfaYnKddw8ddhqCZtFVuTcyV"], "asm": "OP_DUP OP_HASH160 c6d20bfc87d66974e256041d90a128dbbf6e32d6 OP_EQUALVERIFY OP_CHECKSIG", "type": "pubkeyhash"}, "value": 0.01, "n": 1}], "hex": "0100000000010246fbb78773243c959754b04fadc43364c7a03e7a6f4d968e5bd86069606ab3830000000023220020d1fac793f305ffd6daa3bcc60d55a87a6a1334e9cfe80515e4d73651397c3a83ffffffff215256a27beb5a1b393caff851965c2e7d6df4621cbb32be500d2687a72f8fb39d000000fdfd0000483045022100ae69b91ed98c0dba751dd20d42cb6c5156c2dc935ec730f285aacbdc32aa6e5402200c4ce7fdc7650864be59a5307dc6fcfaed3875419a1937644be7f8629c937a39014730440220340e646fb2489d4e6efd958b70774cf1cd18e031c6f32291ecc87577c2c6140f022037e84f5838ce762e949799ace821ca3d3340d72889e13658af62e6f3ff09ac96014c695221022b400f46f0aee201cb103a0645465c4107a2b360dee31b2077530804ecdd12072102d1d55c54dd57159f11d8f376ec324ea0083bf599d240d67366271d10812aedf52103a9f66686b0cd4c07db174f668aa6095fc94264124248e62de97813bbb9f8912f53aeffffffff02f8f201000000000017a914c309179b3a3ae390cb8582a6aff9a43ee1e158b28740420f00000000001976a914c6d20bfc87d66974e256041d90a128dbbf6e32d688ac0400473044022061b5c34593ada22b246817b8f1884edaaaa20ca57d19a5a71b03146cc4f1585e02201ab9f0ac668b7e171ec6de22a3f6b9201f9e378ba50f5ae786b274ceef22e57d01483045022100d0992e574111e9d18153d7f76b264765902a2112b1a397afc35b3b59fc5a0fd7022019b9fbcfa2e83b73ea6a9cf59f79bfe72864fd590a3f48e7a921ff075f6991940169522102a5555458ffe7e895fd71f33f05920570a0afb22289db65a20e7232b89d3b0bca2103a2a8718afc9762673336194101c4913bd7696ed05bf795bea182ebb2c6230fcb2103cfb207bc6fff86db71b523f2bd370c97c1678128c8d16727122234a81e1f67d253ae0000000000", "vin": [{"txinwitness": ["", "3044022061b5c34593ada22b246817b8f1884edaaaa20ca57d19a5a71b03146cc4f1585e02201ab9f0ac668b7e171ec6de22a3f6b9201f9e378ba50f5ae786b274ceef22e57d01", "3045022100d0992e574111e9d18153d7f76b264765902a2112b1a397afc35b3b59fc5a0fd7022019b9fbcfa2e83b73ea6a9cf59f79bfe72864fd590a3f48e7a921ff075f69919401", "522102a5555458ffe7e895fd71f33f05920570a0afb22289db65a20e7232b89d3b0bca2103a2a8718afc9762673336194101c4913bd7696ed05bf795bea182ebb2c6230fcb2103cfb207bc6fff86db71b523f2bd370c97c1678128c8d16727122234a81e1f67d253ae"], "sequence": 4294967295, "scriptSig": {"hex": "220020d1fac793f305ffd6daa3bcc60d55a87a6a1334e9cfe80515e4d73651397c3a83", "asm": "0020d1fac793f305ffd6daa3bcc60d55a87a6a1334e9cfe80515e4d73651397c3a83"}, "vout": 0, "txid": "83b36a606960d85b8e964d6f7a3ea0c76433c4ad4fb05497953c247387b7fb46"}, {"sequence": 4294967295, "scriptSig": {"hex": "00483045022100ae69b91ed98c0dba751dd20d42cb6c5156c2dc935ec730f285aacbdc32aa6e5402200c4ce7fdc7650864be59a5307dc6fcfaed3875419a1937644be7f8629c937a39014730440220340e646fb2489d4e6efd958b70774cf1cd18e031c6f32291ecc87577c2c6140f022037e84f5838ce762e949799ace821ca3d3340d72889e13658af62e6f3ff09ac96014c695221022b400f46f0aee201cb103a0645465c4107a2b360dee31b2077530804ecdd12072102d1d55c54dd57159f11d8f376ec324ea0083bf599d240d67366271d10812aedf52103a9f66686b0cd4c07db174f668aa6095fc94264124248e62de97813bbb9f8912f53ae", "asm": "0 3045022100ae69b91ed98c0dba751dd20d42cb6c5156c2dc935ec730f285aacbdc32aa6e5402200c4ce7fdc7650864be59a5307dc6fcfaed3875419a1937644be7f8629c937a39[ALL] 30440220340e646fb2489d4e6efd958b70774cf1cd18e031c6f32291ecc87577c2c6140f022037e84f5838ce762e949799ace821ca3d3340d72889e13658af62e6f3ff09ac96[ALL] 5221022b400f46f0aee201cb103a0645465c4107a2b360dee31b2077530804ecdd12072102d1d55c54dd57159f11d8f376ec324ea0083bf599d240d67366271d10812aedf52103a9f66686b0cd4c07db174f668aa6095fc94264124248e62de97813bbb9f8912f53ae"}, "vout": 157, "txid": "b38f2fa787260d50be32bb1c62f46d7d2e5c9651f8af3c391b5aeb7ba2565221"}], "txid": "2069e373bfbb6ce2cd1fd1e0108c56bf29c9930f24e8e617e000638ccff2c0ae", "blocktime": 1537876114, "version": 1, "confirmations": 11460, "time": 1537876114, "locktime": 0, "vsize": 512, "size": 704}