{"hash": "23e11288644ca42ee838be03e45f9a1c4726a11ddac64e60c7e8e8986b3875f7", "blockhash": "00000000000000000017f5eb5941039fbcee6240d03bc1f2f8e35350df66a1d8", "vout": [{"scriptPubKey": {"reqSigs": 1, "hex": "00144894fea8a15be8ef1e038bde08a742279f8a7d64", "addresses": ["bc1qfz20a29pt05w78sr300q3f6zy70c5ltym767yq"], "asm": "0 4894fea8a15be8ef1e038bde08a742279f8a7d64", "type": "witness_v0_keyhash"}, "value": 0.00174504, "n": 0}, {"scriptPubKey": {"reqSigs": 1, "hex": "a91498a1bcf440719e76d76d41adea94022b0350cb7f87", "addresses": ["3Fc4PTmUoufAaHXCepNxYv5rmzznLDnrfF"], "asm": "OP_HASH160 98a1bcf440719e76d76d41adea94022b0350cb7f OP_EQUAL", "type": "scripthash"}, "value": 0.0088365, "n": 1}], "hex": "01000000000101b7a96a733f5f6e961d950fa40baef10cf7ffaa4d5701b849b58dfee8745c8c650000000000ffffffff02a8a90200000000001600144894fea8a15be8ef1e038bde08a742279f8a7d64c27b0d000000000017a91498a1bcf440719e76d76d41adea94022b0350cb7f870247304402203771ced8d3a29c649aa0edf9f0b13d9b6d3328d38a696bc4cc54650cec94ba3a02201d970e97c53694eb510256e3904bba75033ca47d70688d8c82f609d62807d66301210255d474bc3a963d6bdcc8972dbb81b8d80811c90685f89585fd8ce824c95c000d00000000", "vin": [{"txinwitness": ["304402203771ced8d3a29c649aa0edf9f0b13d9b6d3328d38a696bc4cc54650cec94ba3a02201d970e97c53694eb510256e3904bba75033ca47d70688d8c82f609d62807d66301", "0255d474bc3a963d6bdcc8972dbb81b8d80811c90685f89585fd8ce824c95c000d"], "sequence": 4294967295, "scriptSig": {"hex": "", "asm": ""}, "vout": 0, "txid": "658c5c74e8fe8db549b801574daafff70cf1ae0ba40f951d966e5f3f736aa9b7"}], "txid": "206a34a3d6b7f769bbd4081371b5535a18fd84055495829cdc220d7cda76bc59", "blocktime": 1537874412, "version": 1, "confirmations": 11467, "time": 1537874412, "locktime": 0, "vsize": 142, "size": 223}