{"hash": "206bf0c6f1a6521ed7b7f6ec724e0b0680cb33cbb2af3ed63515b4ada449c653", "blockhash": "00000000000000000018f53835495a110e01622372bf6ae95dc86f2b0ab887b0", "vout": [{"scriptPubKey": {"reqSigs": 1, "hex": "a914ed7fc342d0af7985d29b678440abfe1b02b1eccb87", "addresses": ["3PLo87p2Z7FajHS7SPqGwNiVa6a4FdWLrv"], "asm": "OP_HASH160 ed7fc342d0af7985d29b678440abfe1b02b1eccb OP_EQUAL", "type": "scripthash"}, "value": 0.02400689, "n": 0}], "hex": "01000000043b0d7c9eeb1bb7de0b0160155f75b499779292f05d8ebbac1509ab997c2f1398000000006a47304402203a0144c9923702121f6faaec7ab9ff7894054abdd642aa2c56e3c82dd2e67415022075d3dc76ff6217b962718d273c7ffb6261d968221519481f254aef5be54f134c0121032acc93ad3a05c4244726d745abc354794505826e986914a06194cbf0c818eb41ffffffffcfa524fc123aca911c5163167df8f8fd63e5087d4de5e7bb6418487465b26dd8000000006b483045022100927340afd34722ed651dd0c68039db489ce1c29f14eefd2780b6b3f8001f1c7a02203fa2fb410d8f5a8ff5cb44b255d1db7ed7588f51825b3f1aaf2e807bd63d18a6012103b9bda15b530bf858e79807510e01709b86578411cd6af380d6375fef5f1b60b4ffffffff8974295f68f81491d34737e5731b7e39d81bc54d3fbb4c8dbe2c70374c6b1cee000000006a4730440220675d0fbc3a1bad62ac146ef12f447da3618a90c3a95ffb04c9e5301729e3f19a0220213f2eafa9e11eb69d7ed7e035f185da663d1d1e7474349b47f583dce4b4f92101210356b98d8d31fbb1cc528c56fa0e3bd7302e9e56542d1e57908f0611b488549cf1ffffffff3ebece02f352845a45491a989eff26e1064010b9aed88cbcd7691b1a4da0b4f2020000006a47304402203c2b6cbf59e1dc2cd98c488b39c82b387c245babef8b4ccd594e06cd0c980b2f02201d530d6a322537b86fd562d5246c71c5347ca1b163868f834bd514919b957b6f012102f3ae8e4c0e15cde68b95e53381e32b8930045ec554d99c9063b17e1149949f39ffffffff01b1a124000000000017a914ed7fc342d0af7985d29b678440abfe1b02b1eccb8700000000", "vin": [{"sequence": 4294967295, "scriptSig": {"hex": "47304402203a0144c9923702121f6faaec7ab9ff7894054abdd642aa2c56e3c82dd2e67415022075d3dc76ff6217b962718d273c7ffb6261d968221519481f254aef5be54f134c0121032acc93ad3a05c4244726d745abc354794505826e986914a06194cbf0c818eb41", "asm": "304402203a0144c9923702121f6faaec7ab9ff7894054abdd642aa2c56e3c82dd2e67415022075d3dc76ff6217b962718d273c7ffb6261d968221519481f254aef5be54f134c[ALL] 032acc93ad3a05c4244726d745abc354794505826e986914a06194cbf0c818eb41"}, "vout": 0, "txid": "98132f7c99ab0915acbb8e5df092927799b4755f1560010bdeb71beb9e7c0d3b"}, {"sequence": 4294967295, "scriptSig": {"hex": "483045022100927340afd34722ed651dd0c68039db489ce1c29f14eefd2780b6b3f8001f1c7a02203fa2fb410d8f5a8ff5cb44b255d1db7ed7588f51825b3f1aaf2e807bd63d18a6012103b9bda15b530bf858e79807510e01709b86578411cd6af380d6375fef5f1b60b4", "asm": "3045022100927340afd34722ed651dd0c68039db489ce1c29f14eefd2780b6b3f8001f1c7a02203fa2fb410d8f5a8ff5cb44b255d1db7ed7588f51825b3f1aaf2e807bd63d18a6[ALL] 03b9bda15b530bf858e79807510e01709b86578411cd6af380d6375fef5f1b60b4"}, "vout": 0, "txid": "d86db26574481864bbe7e54d7d08e563fdf8f87d1663511c91ca3a12fc24a5cf"}, {"sequence": 4294967295, "scriptSig": {"hex": "4730440220675d0fbc3a1bad62ac146ef12f447da3618a90c3a95ffb04c9e5301729e3f19a0220213f2eafa9e11eb69d7ed7e035f185da663d1d1e7474349b47f583dce4b4f92101210356b98d8d31fbb1cc528c56fa0e3bd7302e9e56542d1e57908f0611b488549cf1", "asm": "30440220675d0fbc3a1bad62ac146ef12f447da3618a90c3a95ffb04c9e5301729e3f19a0220213f2eafa9e11eb69d7ed7e035f185da663d1d1e7474349b47f583dce4b4f921[ALL] 0356b98d8d31fbb1cc528c56fa0e3bd7302e9e56542d1e57908f0611b488549cf1"}, "vout": 0, "txid": "ee1c6b4c37702cbe8d4cbb3f4dc51bd8397e1b73e53747d39114f8685f297489"}, {"sequence": 4294967295, "scriptSig": {"hex": "47304402203c2b6cbf59e1dc2cd98c488b39c82b387c245babef8b4ccd594e06cd0c980b2f02201d530d6a322537b86fd562d5246c71c5347ca1b163868f834bd514919b957b6f012102f3ae8e4c0e15cde68b95e53381e32b8930045ec554d99c9063b17e1149949f39", "asm": "304402203c2b6cbf59e1dc2cd98c488b39c82b387c245babef8b4ccd594e06cd0c980b2f02201d530d6a322537b86fd562d5246c71c5347ca1b163868f834bd514919b957b6f[ALL] 02f3ae8e4c0e15cde68b95e53381e32b8930045ec554d99c9063b17e1149949f39"}, "vout": 2, "txid": "f2b4a04d1a1b69d7bc8cd8aeb9104006e126ff9e981a49455a8452f302cebe3e"}], "txid": "206bf0c6f1a6521ed7b7f6ec724e0b0680cb33cbb2af3ed63515b4ada449c653", "blocktime": 1537870928, "version": 1, "confirmations": 11514, "time": 1537870928, "locktime": 0, "vsize": 631, "size": 631}