{"hash": "206c9c18d2aed52f1012db57b86f964f6dab14adcc5d6a8301b049544012d281", "blockhash": "0000000000000000001f0ddff1eddb255c1121bcd4da4f1bc9a0da00cae72433", "vout": [{"scriptPubKey": {"reqSigs": 1, "hex": "76a914bf141fac70e84e4f565bbeedcc3756da4505489288ac", "addresses": ["1JRLAruqi8DP5SEkcFTaswSi9aZu3vUUMx"], "asm": "OP_DUP OP_HASH160 bf141fac70e84e4f565bbeedcc3756da45054892 OP_EQUALVERIFY OP_CHECKSIG", "type": "pubkeyhash"}, "value": 5.46e-06, "n": 0}, {"scriptPubKey": {"reqSigs": 1, "hex": "a9143f4eecba122ad73039d481c8d37f99cb4f887cd887", "addresses": ["37Tm3Qz8Zw2VJrheUUhArDAoq58S6YrS3g"], "asm": "OP_HASH160 3f4eecba122ad73039d481c8d37f99cb4f887cd8 OP_EQUAL", "type": "scripthash"}, "value": 0.99966902, "n": 1}, {"scriptPubKey": {"type": "nulldata", "hex": "6a146f6d6e69000000000000001f000000a53774b800", "asm": "OP_RETURN 6f6d6e69000000000000001f000000a53774b800"}, "value": 0.0, "n": 2}], "hex": "0100000001e51ac39e3059377bd2cee78d19dc29c578357d67fe582b39c99c11076c9b492b01000000fdfd00004730440220701dc17355345316172bd827f21aae37c590d10d0c6d3f19b829f419cad194c002206b54ecd95eb884f0b563f35b2607b476d4dfce8c41c957baece84b629d9fbe8401483045022100a864ba3e53510c29ca10ade476ed8790ff7797c22639d2fe67e7b00226d0a041022024ec82384121c5f4edacb0946f1fb31b0ab58bfaf199c7e5849d223a67fa7da4014c6952210246ccf4de0c54cc7f3354cdd993c2c50cf965fd82238b89659fbd73a1b4bf05a121024fc59f72272a897fe43803374969f396058152fe4765a8d15216f94624257b1b21022593bc69ecbf3bbcc3c58082267cb49dadaf4ca8dbf1b2297338a9d628c4297653aeffffffff0322020000000000001976a914bf141fac70e84e4f565bbeedcc3756da4505489288acb65ff5050000000017a9143f4eecba122ad73039d481c8d37f99cb4f887cd8870000000000000000166a146f6d6e69000000000000001f000000a53774b80000000000", "vin": [{"sequence": 4294967295, "scriptSig": {"hex": "004730440220701dc17355345316172bd827f21aae37c590d10d0c6d3f19b829f419cad194c002206b54ecd95eb884f0b563f35b2607b476d4dfce8c41c957baece84b629d9fbe8401483045022100a864ba3e53510c29ca10ade476ed8790ff7797c22639d2fe67e7b00226d0a041022024ec82384121c5f4edacb0946f1fb31b0ab58bfaf199c7e5849d223a67fa7da4014c6952210246ccf4de0c54cc7f3354cdd993c2c50cf965fd82238b89659fbd73a1b4bf05a121024fc59f72272a897fe43803374969f396058152fe4765a8d15216f94624257b1b21022593bc69ecbf3bbcc3c58082267cb49dadaf4ca8dbf1b2297338a9d628c4297653ae", "asm": "0 30440220701dc17355345316172bd827f21aae37c590d10d0c6d3f19b829f419cad194c002206b54ecd95eb884f0b563f35b2607b476d4dfce8c41c957baece84b629d9fbe84[ALL] 3045022100a864ba3e53510c29ca10ade476ed8790ff7797c22639d2fe67e7b00226d0a041022024ec82384121c5f4edacb0946f1fb31b0ab58bfaf199c7e5849d223a67fa7da4[ALL] 52210246ccf4de0c54cc7f3354cdd993c2c50cf965fd82238b89659fbd73a1b4bf05a121024fc59f72272a897fe43803374969f396058152fe4765a8d15216f94624257b1b21022593bc69ecbf3bbcc3c58082267cb49dadaf4ca8dbf1b2297338a9d628c4297653ae"}, "vout": 1, "txid": "2b499b6c07119cc9392b58fe677d3578c529dc198de7ced27b3759309ec31ae5"}], "txid": "206c9c18d2aed52f1012db57b86f964f6dab14adcc5d6a8301b049544012d281", "blocktime": 1537872018, "version": 1, "confirmations": 11489, "time": 1537872018, "locktime": 0, "vsize": 403, "size": 403}