{"hash": "206fbee3f510176b7b01f7d0f39c2d8cbafdadb535343828986f69d83b22549c", "blockhash": "0000000000000000001cda96e906b7601b7a6fb1a3b62bca570a9e5d8f4b3de1", "vout": [{"scriptPubKey": {"reqSigs": 1, "hex": "76a914e43fdadd6b6ff1fde1b78117d45ba20007b0d90988ac", "addresses": ["1MosZTUQnn1xCL3z8bHapRJVMf1wFSekHN"], "asm": "OP_DUP OP_HASH160 e43fdadd6b6ff1fde1b78117d45ba20007b0d909 OP_EQUALVERIFY OP_CHECKSIG", "type": "pubkeyhash"}, "value": 0.01758347, "n": 0}, {"scriptPubKey": {"reqSigs": 1, "hex": "76a914bf59275997bc59e5057054223bc80d607ec1875f88ac", "addresses": ["1JSks9azUxRAxVEYq9UetZus4CRE5BPnEL"], "asm": "OP_DUP OP_HASH160 bf59275997bc59e5057054223bc80d607ec1875f OP_EQUALVERIFY OP_CHECKSIG", "type": "pubkeyhash"}, "value": 0.105, "n": 1}], "hex": "0100000002086c543f5adc06b3115260bec67e0596fe8abcdadf7d901078d3e2314f1f5422010000006a47304402204b0384b1eb4991a9d2de3cdb8da4079c8a97d147f766183d54aa1e23ce11e4e602200cb2245d1dbb0b80504d196992d9fd8f8a5de44709f05345925473171f165b2a0121038163972460a8a0d17704afbb0d4948d0bb52c846d5e46f7c8b37f02fa0569fc4ffffffff36ed564b84ab87120e4c72c05815376cc0ba33647faaeb6269bb47aa3cf2ae28000000006b483045022100f06f8e7e23e79f1fd630b6460661582e4c77fcb3de261cf988f7afdb3b8aedb502203a791c374b0f1d1a73f12046a342267e0db92d11219f8d00b154694f56644f2101210306a40fdf8062e3db177dc812b947dd6a3346688d07f21e3393d5944a9774231effffffff028bd41a00000000001976a914e43fdadd6b6ff1fde1b78117d45ba20007b0d90988aca037a000000000001976a914bf59275997bc59e5057054223bc80d607ec1875f88ac00000000", "vin": [{"sequence": 4294967295, "scriptSig": {"hex": "47304402204b0384b1eb4991a9d2de3cdb8da4079c8a97d147f766183d54aa1e23ce11e4e602200cb2245d1dbb0b80504d196992d9fd8f8a5de44709f05345925473171f165b2a0121038163972460a8a0d17704afbb0d4948d0bb52c846d5e46f7c8b37f02fa0569fc4", "asm": "304402204b0384b1eb4991a9d2de3cdb8da4079c8a97d147f766183d54aa1e23ce11e4e602200cb2245d1dbb0b80504d196992d9fd8f8a5de44709f05345925473171f165b2a[ALL] 038163972460a8a0d17704afbb0d4948d0bb52c846d5e46f7c8b37f02fa0569fc4"}, "vout": 1, "txid": "22541f4f31e2d37810907ddfdabc8afe96057ec6be605211b306dc5a3f546c08"}, {"sequence": 4294967295, "scriptSig": {"hex": "483045022100f06f8e7e23e79f1fd630b6460661582e4c77fcb3de261cf988f7afdb3b8aedb502203a791c374b0f1d1a73f12046a342267e0db92d11219f8d00b154694f56644f2101210306a40fdf8062e3db177dc812b947dd6a3346688d07f21e3393d5944a9774231e", "asm": "3045022100f06f8e7e23e79f1fd630b6460661582e4c77fcb3de261cf988f7afdb3b8aedb502203a791c374b0f1d1a73f12046a342267e0db92d11219f8d00b154694f56644f21[ALL] 0306a40fdf8062e3db177dc812b947dd6a3346688d07f21e3393d5944a9774231e"}, "vout": 0, "txid": "28aef23caa47bb6962ebaa7f6433bac06c371558c0724c0e1287ab844b56ed36"}], "txid": "206fbee3f510176b7b01f7d0f39c2d8cbafdadb535343828986f69d83b22549c", "blocktime": 1537873282, "version": 1, "confirmations": 11485, "time": 1537873282, "locktime": 0, "vsize": 373, "size": 373}