{"hash": "20829f9c6181862e63501e6eb27479c27cdd00543e6f44435737381acde20d3d", "blockhash": "0000000000000000001f0ddff1eddb255c1121bcd4da4f1bc9a0da00cae72433", "vout": [{"scriptPubKey": {"reqSigs": 1, "hex": "76a91482ae3453e9fd07fbe0e04c885b2083ac046dfd9988ac", "addresses": ["1CuyXsbDT8aApJZnuAeJke9AxoCKPay7LR"], "asm": "OP_DUP OP_HASH160 82ae3453e9fd07fbe0e04c885b2083ac046dfd99 OP_EQUALVERIFY OP_CHECKSIG", "type": "pubkeyhash"}, "value": 0.00039105, "n": 0}, {"scriptPubKey": {"reqSigs": 1, "hex": "76a914ea9c831b52c211f357fb7c93f7c6a07475d7664888ac", "addresses": ["1NPWcYSnykbysrSwLrzjZewZHubocrJ9XZ"], "asm": "OP_DUP OP_HASH160 ea9c831b52c211f357fb7c93f7c6a07475d76648 OP_EQUALVERIFY OP_CHECKSIG", "type": "pubkeyhash"}, "value": 0.002162, "n": 1}], "hex": "0100000001b56e427aba7c5a7ce3219a16033d4e8ec3d1fc546ae22556d86a4d11b134344e000000006a473044022038938611fa015fc652ca0f7bf7645164340ad7016705b2d586f95b0347f2351b02205af821d343824676625ce56a0a41bb52dc0db89ae85326e6bd0f4728a47a16680121033db0b93f65c88a73e9f2c605e73de5e1a39724a5bf89c2a8fcedfec00bc4ebf3ffffffff02c1980000000000001976a91482ae3453e9fd07fbe0e04c885b2083ac046dfd9988ac884c0300000000001976a914ea9c831b52c211f357fb7c93f7c6a07475d7664888ac00000000", "vin": [{"sequence": 4294967295, "scriptSig": {"hex": "473044022038938611fa015fc652ca0f7bf7645164340ad7016705b2d586f95b0347f2351b02205af821d343824676625ce56a0a41bb52dc0db89ae85326e6bd0f4728a47a16680121033db0b93f65c88a73e9f2c605e73de5e1a39724a5bf89c2a8fcedfec00bc4ebf3", "asm": "3044022038938611fa015fc652ca0f7bf7645164340ad7016705b2d586f95b0347f2351b02205af821d343824676625ce56a0a41bb52dc0db89ae85326e6bd0f4728a47a1668[ALL] 033db0b93f65c88a73e9f2c605e73de5e1a39724a5bf89c2a8fcedfec00bc4ebf3"}, "vout": 0, "txid": "4e3434b1114d6ad85625e26a54fcd1c38e4e3d03169a21e37c5a7cba7a426eb5"}], "txid": "20829f9c6181862e63501e6eb27479c27cdd00543e6f44435737381acde20d3d", "blocktime": 1537872018, "version": 1, "confirmations": 11489, "time": 1537872018, "locktime": 0, "vsize": 225, "size": 225}