{"hash": "20843017a3c46563260ff6c8c61ebb8c64cad96a769ad6c8aaccb0f1e3a11ba0", "blockhash": "0000000000000000000baef3f32e3676a92c3b2e5da21b426e4f302fc371ce76", "vout": [{"scriptPubKey": {"reqSigs": 1, "hex": "76a914af5eb96fc2877b31f7fe910392aaccdb6cc5697688ac", "addresses": ["1GzGj8nwtg9c5mG7vE1196ajwThik9MdPP"], "asm": "OP_DUP OP_HASH160 af5eb96fc2877b31f7fe910392aaccdb6cc56976 OP_EQUALVERIFY OP_CHECKSIG", "type": "pubkeyhash"}, "value": 0.02061, "n": 0}, {"scriptPubKey": {"reqSigs": 1, "hex": "a914e370231feecbfc25e2e2423a5a79bf79bfdca59887", "addresses": ["3NRbeX3vD5VaVE4TDU9ivCDsEf7NPPte6J"], "asm": "OP_HASH160 e370231feecbfc25e2e2423a5a79bf79bfdca598 OP_EQUAL", "type": "scripthash"}, "value": 8.91671054, "n": 1}], "hex": "0100000001d3437da3f4455dc1f2c9eb19fffc19f6b9a7532b02682fdb5ae1d264bb3c02da01000000db00483045022100f379861c5c7738ad9cb96b22546e73511c554139cddd63ba3cafeafd0cbbe3c9022079242c2960bdd64bd7d4a06e1fd5388b5c8fe2745b9c84c82761734e101a1c0001483045022100b2246759ab2031ff2e2409c2690a7df20ab588070fa0cf2c5891b0227ed691eb0220493ed835a01971b8a66ee2bcebb15ef466daa26d848b74c9c0bf593c036e6fdb014752210327881b6abce6535553a3ce21fad12a7d74fd237ce7c4cd270a267162344e3082210256141f8eb687f5a68c5cc65054652dc25116fa285e44d72b44368827ffe77d9a52aeffffffff02c8721f00000000001976a914af5eb96fc2877b31f7fe910392aaccdb6cc5697688ac0ed225350000000017a914e370231feecbfc25e2e2423a5a79bf79bfdca5988700000000", "vin": [{"sequence": 4294967295, "scriptSig": {"hex": "00483045022100f379861c5c7738ad9cb96b22546e73511c554139cddd63ba3cafeafd0cbbe3c9022079242c2960bdd64bd7d4a06e1fd5388b5c8fe2745b9c84c82761734e101a1c0001483045022100b2246759ab2031ff2e2409c2690a7df20ab588070fa0cf2c5891b0227ed691eb0220493ed835a01971b8a66ee2bcebb15ef466daa26d848b74c9c0bf593c036e6fdb014752210327881b6abce6535553a3ce21fad12a7d74fd237ce7c4cd270a267162344e3082210256141f8eb687f5a68c5cc65054652dc25116fa285e44d72b44368827ffe77d9a52ae", "asm": "0 3045022100f379861c5c7738ad9cb96b22546e73511c554139cddd63ba3cafeafd0cbbe3c9022079242c2960bdd64bd7d4a06e1fd5388b5c8fe2745b9c84c82761734e101a1c00[ALL] 3045022100b2246759ab2031ff2e2409c2690a7df20ab588070fa0cf2c5891b0227ed691eb0220493ed835a01971b8a66ee2bcebb15ef466daa26d848b74c9c0bf593c036e6fdb[ALL] 52210327881b6abce6535553a3ce21fad12a7d74fd237ce7c4cd270a267162344e3082210256141f8eb687f5a68c5cc65054652dc25116fa285e44d72b44368827ffe77d9a52ae"}, "vout": 1, "txid": "da023cbb64d2e15adb2f68022b53a7b9f619fcff19ebc9f2c15d45f4a37d43d3"}], "txid": "20843017a3c46563260ff6c8c61ebb8c64cad96a769ad6c8aaccb0f1e3a11ba0", "blocktime": 1537876114, "version": 1, "confirmations": 11460, "time": 1537876114, "locktime": 0, "vsize": 336, "size": 336}