{"hash": "20846e13d2e90a979688e11ab714fb7f462654a5096a3f315db66d296ac4ac9f", "blockhash": "0000000000000000001cda96e906b7601b7a6fb1a3b62bca570a9e5d8f4b3de1", "vout": [{"scriptPubKey": {"reqSigs": 1, "hex": "76a914f8fdaadec3639afe5f4e725828d8a96b60095c4088ac", "addresses": ["1PhYThVdNnbQDxgaWaFuLFPC7u18vVM12F"], "asm": "OP_DUP OP_HASH160 f8fdaadec3639afe5f4e725828d8a96b60095c40 OP_EQUALVERIFY OP_CHECKSIG", "type": "pubkeyhash"}, "value": 0.0064081, "n": 0}, {"scriptPubKey": {"type": "nulldata", "hex": "6a4c50000077d700014918a3b16f95623afe8708b65b23cc0f42c2fc38c5e5bf9ae76da98a211adaa32c9d2579c05c19505560bc10150f5baa15750612be7d91e9b27a1d100759d4ba30d2c37bb011d97e02cf", "asm": "OP_RETURN 000077d700014918a3b16f95623afe8708b65b23cc0f42c2fc38c5e5bf9ae76da98a211adaa32c9d2579c05c19505560bc10150f5baa15750612be7d91e9b27a1d100759d4ba30d2c37bb011d97e02cf"}, "value": 0.0, "n": 1}], "hex": "0100000001addebb65a5d208df814c2d486d68c12c3e9f251d8c71ab0f6d54297add4ab601010000006a4730440220365c7445893335a647a6e1e57d2c1a21b4258b5dc532881c3aaac5e3c7d1e01302201909f7f702caa43167c4ab7c4dac93419fe6fd7c79e067ca86e804714afe05fc012103014e5d1e33f5e3844cf3ce9f0fa3c9fed25364dd339e13c64d3af613ccca45c6ffffffff022ac70900000000001976a914f8fdaadec3639afe5f4e725828d8a96b60095c4088ac0000000000000000536a4c50000077d700014918a3b16f95623afe8708b65b23cc0f42c2fc38c5e5bf9ae76da98a211adaa32c9d2579c05c19505560bc10150f5baa15750612be7d91e9b27a1d100759d4ba30d2c37bb011d97e02cf00000000", "vin": [{"sequence": 4294967295, "scriptSig": {"hex": "4730440220365c7445893335a647a6e1e57d2c1a21b4258b5dc532881c3aaac5e3c7d1e01302201909f7f702caa43167c4ab7c4dac93419fe6fd7c79e067ca86e804714afe05fc012103014e5d1e33f5e3844cf3ce9f0fa3c9fed25364dd339e13c64d3af613ccca45c6", "asm": "30440220365c7445893335a647a6e1e57d2c1a21b4258b5dc532881c3aaac5e3c7d1e01302201909f7f702caa43167c4ab7c4dac93419fe6fd7c79e067ca86e804714afe05fc[ALL] 03014e5d1e33f5e3844cf3ce9f0fa3c9fed25364dd339e13c64d3af613ccca45c6"}, "vout": 1, "txid": "01b64add7a29546d0fab718c1d259f3e2cc1686d482d4c81df08d2a565bbdead"}], "txid": "20846e13d2e90a979688e11ab714fb7f462654a5096a3f315db66d296ac4ac9f", "blocktime": 1537873282, "version": 1, "confirmations": 11484, "time": 1537873282, "locktime": 0, "vsize": 283, "size": 283}