{"hash": "8425f61a19274efbd7d0356515b10fe571cff708690caef795a46dd610fe19f1", "blockhash": "0000000000000000000e13cef7c366c0283d82e591d1acd082e914b08063cdf1", "vout": [{"scriptPubKey": {"reqSigs": 1, "hex": "76a91419baffb7170b790f6b16523ede07a4b93bb3210c88ac", "addresses": ["13M3uhxodgwjFQwgoyNdpgizQd1pGTeUaT"], "asm": "OP_DUP OP_HASH160 19baffb7170b790f6b16523ede07a4b93bb3210c OP_EQUALVERIFY OP_CHECKSIG", "type": "pubkeyhash"}, "value": 0.04583326, "n": 0}, {"scriptPubKey": {"reqSigs": 1, "hex": "a914d95bc398e00e2448577ed1c7e973ba66e528942c87", "addresses": ["3MWJV3oB9KMQLmZxSLf4BGHoqFyyKGBKwC"], "asm": "OP_HASH160 d95bc398e00e2448577ed1c7e973ba66e528942c OP_EQUAL", "type": "scripthash"}, "value": 0.01658084, "n": 1}], "hex": "02000000000101eb41fb9a5df70a7d8d9d09c119dfb04efe05046999d90f817ba6471d191f15560100000017160014e3eaf509e0c7bdde2a90737284c8f1c1938c2484feffffff029eef4500000000001976a91419baffb7170b790f6b16523ede07a4b93bb3210c88ace44c19000000000017a914d95bc398e00e2448577ed1c7e973ba66e528942c870248304502210088eb5ecb81b79f80cfd691c7115c192c7f6d141147a8cf450efa230861e9847d02202fb2ae25bec01faa8362c032f77cb0a3a3d6b98ee96aaf2b3781d74328c37d6f01210374f93863b7d0630e25002a23dab034a4ed4029b18be133a099476ddb7b33d82210490800", "vin": [{"txinwitness": ["304502210088eb5ecb81b79f80cfd691c7115c192c7f6d141147a8cf450efa230861e9847d02202fb2ae25bec01faa8362c032f77cb0a3a3d6b98ee96aaf2b3781d74328c37d6f01", "0374f93863b7d0630e25002a23dab034a4ed4029b18be133a099476ddb7b33d822"], "sequence": 4294967294, "scriptSig": {"hex": "160014e3eaf509e0c7bdde2a90737284c8f1c1938c2484", "asm": "0014e3eaf509e0c7bdde2a90737284c8f1c1938c2484"}, "vout": 1, "txid": "56151f191d47a67b810fd999690405fe4eb0df19c1099d8d7d0af75d9afb41eb"}], "txid": "2091833a2ae7511f1702225de5aacf3218e63bc9d765ddd3d8729bcedd2ba30e", "blocktime": 1537871767, "version": 2, "confirmations": 11495, "time": 1537871767, "locktime": 542992, "vsize": 168, "size": 250}