{"hash": "20933e8a657421968264fbde5ce7dcb3df2832cb1a3c4c787aa2feddafa87330", "blockhash": "0000000000000000001e0dab787dd257d1dbfcb92a98c2207d5e1078be1f4165", "vout": [{"scriptPubKey": {"reqSigs": 1, "hex": "76a9143a587be062f4dd4f9af733f5191e884ac7cda22d88ac", "addresses": ["16KWC6VvVjvU1mew7rZUqRVKNQQEFGytFr"], "asm": "OP_DUP OP_HASH160 3a587be062f4dd4f9af733f5191e884ac7cda22d OP_EQUALVERIFY OP_CHECKSIG", "type": "pubkeyhash"}, "value": 0.0064382, "n": 0}, {"scriptPubKey": {"type": "nulldata", "hex": "6a4c50000077b00001f2289f724a7e0bbbfb737760af6c953dd567cf27e7e3ef3236678a6250979402b35ca0835fc3b2e4fcfe24b3cddc5baa11790611b99a0107d7ec1d100759d4ba30d2c37bb011d97e02cf", "asm": "OP_RETURN 000077b00001f2289f724a7e0bbbfb737760af6c953dd567cf27e7e3ef3236678a6250979402b35ca0835fc3b2e4fcfe24b3cddc5baa11790611b99a0107d7ec1d100759d4ba30d2c37bb011d97e02cf"}, "value": 0.0, "n": 1}], "hex": "0100000001b13626725fea6e6e999ab6bf1f54a3d635b93c490aac2eb5d5455dfeb86b0d73000000006a473044022028548555ab8ef2e2b374cbd907694a0bb5b8aaad649c65df2c14fee51ae049f102206f900b0c0eee669a41636789411ad7df05c7ea43beac5d505ec5ed04ba1d9a83012102fb2dc07119a9697d9204f97316f27a0755f0555a20c73ec63c684cb1ef9901feffffffff02ecd20900000000001976a9143a587be062f4dd4f9af733f5191e884ac7cda22d88ac0000000000000000536a4c50000077b00001f2289f724a7e0bbbfb737760af6c953dd567cf27e7e3ef3236678a6250979402b35ca0835fc3b2e4fcfe24b3cddc5baa11790611b99a0107d7ec1d100759d4ba30d2c37bb011d97e02cf00000000", "vin": [{"sequence": 4294967295, "scriptSig": {"hex": "473044022028548555ab8ef2e2b374cbd907694a0bb5b8aaad649c65df2c14fee51ae049f102206f900b0c0eee669a41636789411ad7df05c7ea43beac5d505ec5ed04ba1d9a83012102fb2dc07119a9697d9204f97316f27a0755f0555a20c73ec63c684cb1ef9901fe", "asm": "3044022028548555ab8ef2e2b374cbd907694a0bb5b8aaad649c65df2c14fee51ae049f102206f900b0c0eee669a41636789411ad7df05c7ea43beac5d505ec5ed04ba1d9a83[ALL] 02fb2dc07119a9697d9204f97316f27a0755f0555a20c73ec63c684cb1ef9901fe"}, "vout": 0, "txid": "730d6bb8fe5d45d5b52eac0a493cb935d6a3541fbfb69a996e6eea5f722636b1"}], "txid": "20933e8a657421968264fbde5ce7dcb3df2832cb1a3c4c787aa2feddafa87330", "blocktime": 1537872475, "version": 1, "confirmations": 11486, "time": 1537872475, "locktime": 0, "vsize": 283, "size": 283}