{"hash": "20950a441fd1748fee9bead42d97fe67c48dff356fc66af209ecec1eed348b25", "blockhash": "0000000000000000000e13cef7c366c0283d82e591d1acd082e914b08063cdf1", "vout": [{"scriptPubKey": {"reqSigs": 1, "hex": "76a9147cb83d5b93d7180d6995ffe2c7eee61bed1e0b5388ac", "addresses": ["1CNTVz64LV9FgJxiQ48otzmksXuMdZc1Jh"], "asm": "OP_DUP OP_HASH160 7cb83d5b93d7180d6995ffe2c7eee61bed1e0b53 OP_EQUALVERIFY OP_CHECKSIG", "type": "pubkeyhash"}, "value": 0.00643761, "n": 0}, {"scriptPubKey": {"type": "nulldata", "hex": "6a4c500000779900017c038179860f3e5d945bd11ae3ef3236678a625097bcbefa6b8351586b4ed902b191a16717d951b634efeebbfc6b5baa0d420614f81402a269ed1d100759d4ba30d2c37bb011d97e02cf", "asm": "OP_RETURN 0000779900017c038179860f3e5d945bd11ae3ef3236678a625097bcbefa6b8351586b4ed902b191a16717d951b634efeebbfc6b5baa0d420614f81402a269ed1d100759d4ba30d2c37bb011d97e02cf"}, "value": 0.0, "n": 1}], "hex": "01000000018f9be8826daf9cd488236a8dfed35c8abecb0296855013981773c34b6d7ba546000000006b483045022100e07978d4c992ac980b54a17934589a4a29fa4201f95aa5c012f679e6e3b8cae802201d4c5fa7762cbdb4a70fa7efdf1825a9b32c1ffed5127a67773c52fae60479230121029a2e4e0e4998c78b5fa3bd8f76eb84f46bca837d61365573b9dc20dbd79e403effffffff02b1d20900000000001976a9147cb83d5b93d7180d6995ffe2c7eee61bed1e0b5388ac0000000000000000536a4c500000779900017c038179860f3e5d945bd11ae3ef3236678a625097bcbefa6b8351586b4ed902b191a16717d951b634efeebbfc6b5baa0d420614f81402a269ed1d100759d4ba30d2c37bb011d97e02cf00000000", "vin": [{"sequence": 4294967295, "scriptSig": {"hex": "483045022100e07978d4c992ac980b54a17934589a4a29fa4201f95aa5c012f679e6e3b8cae802201d4c5fa7762cbdb4a70fa7efdf1825a9b32c1ffed5127a67773c52fae60479230121029a2e4e0e4998c78b5fa3bd8f76eb84f46bca837d61365573b9dc20dbd79e403e", "asm": "3045022100e07978d4c992ac980b54a17934589a4a29fa4201f95aa5c012f679e6e3b8cae802201d4c5fa7762cbdb4a70fa7efdf1825a9b32c1ffed5127a67773c52fae6047923[ALL] 029a2e4e0e4998c78b5fa3bd8f76eb84f46bca837d61365573b9dc20dbd79e403e"}, "vout": 0, "txid": "46a57b6d4bc37317981350859602cbbe8a5cd3fe8d6a2388d49caf6d82e89b8f"}], "txid": "20950a441fd1748fee9bead42d97fe67c48dff356fc66af209ecec1eed348b25", "blocktime": 1537871767, "version": 1, "confirmations": 11495, "time": 1537871767, "locktime": 0, "vsize": 284, "size": 284}