{"hash": "ba01aafbee563afa3df9077d211b3ab2f5bdf5297649d062ecaa5b156e7cf37b", "blockhash": "0000000000000000000e13cef7c366c0283d82e591d1acd082e914b08063cdf1", "vout": [{"scriptPubKey": {"reqSigs": 1, "hex": "001463c50b8825feb77165ff3f27082d30486f647d6e", "addresses": ["bc1qv0zshzp9l6mhze0l8unsstfsfphkgltwt5f5p6"], "asm": "0 63c50b8825feb77165ff3f27082d30486f647d6e", "type": "witness_v0_keyhash"}, "value": 0.47192557, "n": 0}, {"scriptPubKey": {"reqSigs": 1, "hex": "76a9140233797f5ae79c4925e0a7935385e8bcb2323ea688ac", "addresses": ["1Ce1uHmhejad3nFTz8i4DNnNQSGLdvvmJ"], "asm": "OP_DUP OP_HASH160 0233797f5ae79c4925e0a7935385e8bcb2323ea6 OP_EQUALVERIFY OP_CHECKSIG", "type": "pubkeyhash"}, "value": 0.02806855, "n": 1}], "hex": "01000000000101669bb1b474ab7d4fcbcf08b9708120b1322435671e33ee9b2d8b352e00e3e6a40000000017160014dc78ffdf268ee292664475a33720984119cbfd1effffffff02ed19d0020000000016001463c50b8825feb77165ff3f27082d30486f647d6e47d42a00000000001976a9140233797f5ae79c4925e0a7935385e8bcb2323ea688ac024830450221008de7085c5c0ebc97888ab5fe54585c853e2dedbe7354b71e38114525da25a7ce022043e83d58ed75202bd7c6c8e1d7563c0486dacfdd4e938a823d3235af53d5d910012102a6528fd20a037d48cbd5304336584b3929a9cf90df116157a7dc5c7648794c5800000000", "vin": [{"txinwitness": ["30450221008de7085c5c0ebc97888ab5fe54585c853e2dedbe7354b71e38114525da25a7ce022043e83d58ed75202bd7c6c8e1d7563c0486dacfdd4e938a823d3235af53d5d91001", "02a6528fd20a037d48cbd5304336584b3929a9cf90df116157a7dc5c7648794c58"], "sequence": 4294967295, "scriptSig": {"hex": "160014dc78ffdf268ee292664475a33720984119cbfd1e", "asm": "0014dc78ffdf268ee292664475a33720984119cbfd1e"}, "vout": 0, "txid": "a4e6e3002e358b2d9bee331e67352432b1208170b908cfcb4f7dab74b4b19b66"}], "txid": "209564227fe672a80ab4209ceefb264dd8e603a414c5ef8700c37210c6fc144c", "blocktime": 1537871767, "version": 1, "confirmations": 11495, "time": 1537871767, "locktime": 0, "vsize": 167, "size": 249}