{"hash": "9d57a1545366c6a69a5c75fc4299e8b9c90df227142ab829c1a9054c0182f4b2", "blockhash": "000000000000000000022b45ed06c6f4ccd3cf7fb5ba4856ebd2e58215665228", "vout": [{"scriptPubKey": {"reqSigs": 1, "hex": "a91418087be5410bd03f1a58290b1a66766dc6f779fb87", "addresses": ["33t6Jd9Wt3MhYXsrCWGHyZvyjhdjAZui6c"], "asm": "OP_HASH160 18087be5410bd03f1a58290b1a66766dc6f779fb OP_EQUAL", "type": "scripthash"}, "value": 0.04020737, "n": 0}, {"scriptPubKey": {"reqSigs": 1, "hex": "76a9149a63e3b4cfbdda8718ed467a41c89b53c1c1871088ac", "addresses": ["1F5Liz6kyoSWX7GBjfsT6KbeuDCZK4kS8M"], "asm": "OP_DUP OP_HASH160 9a63e3b4cfbdda8718ed467a41c89b53c1c18710 OP_EQUALVERIFY OP_CHECKSIG", "type": "pubkeyhash"}, "value": 0.00462268, "n": 1}], "hex": "02000000000101de7f948f487caff49ec9caddb2a4642af2b91b1e25cc7d8f0f9042593d3e432a01000000171600143d9b0a3bacfd21912a503913efa928b9a0d08025feffffff02015a3d000000000017a91418087be5410bd03f1a58290b1a66766dc6f779fb87bc0d0700000000001976a9149a63e3b4cfbdda8718ed467a41c89b53c1c1871088ac0247304402201b8d55f7fa8f504d1e233bcaef93c1f3ba33a7bf2357d2a14724b14255bd06b102202ded1b17fe17e20ef9c6d84afdef35ca8542e3a0295d4ed1abb5f79c955588c30121025836aef944c2176061b6316f1eaadb302f60c896421237d0970fdd01dc3414980b490800", "vin": [{"txinwitness": ["304402201b8d55f7fa8f504d1e233bcaef93c1f3ba33a7bf2357d2a14724b14255bd06b102202ded1b17fe17e20ef9c6d84afdef35ca8542e3a0295d4ed1abb5f79c955588c301", "025836aef944c2176061b6316f1eaadb302f60c896421237d0970fdd01dc341498"], "sequence": 4294967294, "scriptSig": {"hex": "1600143d9b0a3bacfd21912a503913efa928b9a0d08025", "asm": "00143d9b0a3bacfd21912a503913efa928b9a0d08025"}, "vout": 1, "txid": "2a433e3d5942900f8f7dcc251e1bb9f22a64a4b2ddcac99ef4af7c488f947fde"}], "txid": "2097d81b843af155a50517af114fabbe2aa908c851d99cc34d1faf5b21afcad7", "blocktime": 1537869901, "version": 2, "confirmations": 11522, "time": 1537869901, "locktime": 542987, "vsize": 168, "size": 249}