{"hash": "209a0485167d86ce2b903ce3638e787b0281b0740136560a426b7c0ecba483fb", "blockhash": "00000000000000000004ffacab907a6b429b9a5745fa0b75af4234bf69dd7176", "vout": [{"scriptPubKey": {"reqSigs": 1, "hex": "76a9141b26c088480cd7899df2bd8cd10d0a0d805c53ec88ac", "addresses": ["13UZfipomXL9VpPqqhU26R2riSgphj7pZv"], "asm": "OP_DUP OP_HASH160 1b26c088480cd7899df2bd8cd10d0a0d805c53ec OP_EQUALVERIFY OP_CHECKSIG", "type": "pubkeyhash"}, "value": 0.1, "n": 0}, {"scriptPubKey": {"reqSigs": 1, "hex": "76a914c5d46f022a5bda8d43abbc40d132570f2eab9a6388ac", "addresses": ["1K32bwPaJ89zx9Q2b7yDnmZjESN93V7tF4"], "asm": "OP_DUP OP_HASH160 c5d46f022a5bda8d43abbc40d132570f2eab9a63 OP_EQUALVERIFY OP_CHECKSIG", "type": "pubkeyhash"}, "value": 0.897954, "n": 1}], "hex": "0100000001ef64ac16f765d88b65e2a17a2342576a13d76ffce1297d1f882edb3d6fb94a34010000008b483045022100879ec8392008cc29debf2f3ef0a2b5d863e081018886d880cdf3d2224e23f9c8022075fcb9512abdd903b97b5257ec660840c254ff364f6d2c9324f27fa9bc5decad014104e7307a1ee6a8806b2dfaa7451ae76e8515b4bfb835b5e39fc3e056e22bdbc5aebadb76b0e632dfea546fe71062a7ba6c44b710225614be0427bdea15c4f1cba1ffffffff0280969800000000001976a9141b26c088480cd7899df2bd8cd10d0a0d805c53ec88ac482b5a05000000001976a914c5d46f022a5bda8d43abbc40d132570f2eab9a6388ac00000000", "vin": [{"sequence": 4294967295, "scriptSig": {"hex": "483045022100879ec8392008cc29debf2f3ef0a2b5d863e081018886d880cdf3d2224e23f9c8022075fcb9512abdd903b97b5257ec660840c254ff364f6d2c9324f27fa9bc5decad014104e7307a1ee6a8806b2dfaa7451ae76e8515b4bfb835b5e39fc3e056e22bdbc5aebadb76b0e632dfea546fe71062a7ba6c44b710225614be0427bdea15c4f1cba1", "asm": "3045022100879ec8392008cc29debf2f3ef0a2b5d863e081018886d880cdf3d2224e23f9c8022075fcb9512abdd903b97b5257ec660840c254ff364f6d2c9324f27fa9bc5decad[ALL] 04e7307a1ee6a8806b2dfaa7451ae76e8515b4bfb835b5e39fc3e056e22bdbc5aebadb76b0e632dfea546fe71062a7ba6c44b710225614be0427bdea15c4f1cba1"}, "vout": 1, "txid": "344ab96f3ddb2e881f7d29e1fc6fd7136a5742237aa1e2658bd865f716ac64ef"}], "txid": "209a0485167d86ce2b903ce3638e787b0281b0740136560a426b7c0ecba483fb", "blocktime": 1537875543, "version": 1, "confirmations": 11464, "time": 1537875543, "locktime": 0, "vsize": 258, "size": 258}