{"hash": "209dfb12436759dbe4bc5517fa07e1cdeaf8a11071913c2783573cfdea62eb26", "blockhash": "0000000000000000000e13cef7c366c0283d82e591d1acd082e914b08063cdf1", "vout": [{"scriptPubKey": {"reqSigs": 1, "hex": "76a914c4f84eefe5929afdb7f4b2c15bf4afc41727c4a788ac", "addresses": ["1JxUuNBggL3TpvyvPHQjJUMuJqUBWhyXDN"], "asm": "OP_DUP OP_HASH160 c4f84eefe5929afdb7f4b2c15bf4afc41727c4a7 OP_EQUALVERIFY OP_CHECKSIG", "type": "pubkeyhash"}, "value": 0.000934, "n": 0}, {"scriptPubKey": {"reqSigs": 1, "hex": "76a91460329b5ec59eb2c24eaa4f462b8f3b4d30c8c6fe88ac", "addresses": ["19meVeTVuZtz67Rt86APRK92khRRvXrpWA"], "asm": "OP_DUP OP_HASH160 60329b5ec59eb2c24eaa4f462b8f3b4d30c8c6fe OP_EQUALVERIFY OP_CHECKSIG", "type": "pubkeyhash"}, "value": 0.2843143, "n": 1}], "hex": "010000000180e8ef1e09162ef330c150b2b4fc4910565e9599aee94d85b7098dbdae1656dd000000006b483045022100e78d5421b86504ab2a2bca3e530bcc106ac66396e285d8987c6f6fb07488a121022001963f91716d5660dec345d63ea56493844593bcbd75ad863eb3c6823b410611012103727f8450345742bce1a343e073c33677972349a772a7111305831217684c240effffffff02d86c0100000000001976a914c4f84eefe5929afdb7f4b2c15bf4afc41727c4a788ac46d4b101000000001976a91460329b5ec59eb2c24eaa4f462b8f3b4d30c8c6fe88ac00000000", "vin": [{"sequence": 4294967295, "scriptSig": {"hex": "483045022100e78d5421b86504ab2a2bca3e530bcc106ac66396e285d8987c6f6fb07488a121022001963f91716d5660dec345d63ea56493844593bcbd75ad863eb3c6823b410611012103727f8450345742bce1a343e073c33677972349a772a7111305831217684c240e", "asm": "3045022100e78d5421b86504ab2a2bca3e530bcc106ac66396e285d8987c6f6fb07488a121022001963f91716d5660dec345d63ea56493844593bcbd75ad863eb3c6823b410611[ALL] 03727f8450345742bce1a343e073c33677972349a772a7111305831217684c240e"}, "vout": 0, "txid": "dd5616aebd8d09b7854de9ae99955e561049fcb4b250c130f32e16091eefe880"}], "txid": "209dfb12436759dbe4bc5517fa07e1cdeaf8a11071913c2783573cfdea62eb26", "blocktime": 1537871767, "version": 1, "confirmations": 11495, "time": 1537871767, "locktime": 0, "vsize": 226, "size": 226}