{"hash": "20a3bbbd28219ae6f09114893915a92a4940aadad220450a159b4a25a6795a58", "blockhash": "00000000000000000004ffacab907a6b429b9a5745fa0b75af4234bf69dd7176", "vout": [{"scriptPubKey": {"reqSigs": 1, "hex": "a91410db82265143aa7f83ef0dc13e3bf347724f76c387", "addresses": ["33E9hKji2DHtPMYmsDwGAqBK1jozz8jzkX"], "asm": "OP_HASH160 10db82265143aa7f83ef0dc13e3bf347724f76c3 OP_EQUAL", "type": "scripthash"}, "value": 0.003, "n": 0}, {"scriptPubKey": {"reqSigs": 1, "hex": "76a914686f01d4285e3067d1929415a4df9e17d7eaafef88ac", "addresses": ["1AXCFrzULMHA5C1xYHqbsVfCadSzLqAugG"], "asm": "OP_DUP OP_HASH160 686f01d4285e3067d1929415a4df9e17d7eaafef OP_EQUALVERIFY OP_CHECKSIG", "type": "pubkeyhash"}, "value": 0.00011781, "n": 1}], "hex": "010000000154b97e9970352a7a1087a7e6b0ce522649231e528a659179e8fdf5f4a98c56cc010000006b483045022100e9f8808af270ca1e70f9907830df2bd16d1d7849d9bd0697a0c7098f1ebfecb202203294c774f010338f60bfd7be8291715cf69c8ba994b2e080d600e8bd00c9997d012102eb93a0d09dbc1a63578ee7954c616c73733d3f6a2c386e77706042525c327e88ffffffff02e09304000000000017a91410db82265143aa7f83ef0dc13e3bf347724f76c387052e0000000000001976a914686f01d4285e3067d1929415a4df9e17d7eaafef88ac00000000", "vin": [{"sequence": 4294967295, "scriptSig": {"hex": "483045022100e9f8808af270ca1e70f9907830df2bd16d1d7849d9bd0697a0c7098f1ebfecb202203294c774f010338f60bfd7be8291715cf69c8ba994b2e080d600e8bd00c9997d012102eb93a0d09dbc1a63578ee7954c616c73733d3f6a2c386e77706042525c327e88", "asm": "3045022100e9f8808af270ca1e70f9907830df2bd16d1d7849d9bd0697a0c7098f1ebfecb202203294c774f010338f60bfd7be8291715cf69c8ba994b2e080d600e8bd00c9997d[ALL] 02eb93a0d09dbc1a63578ee7954c616c73733d3f6a2c386e77706042525c327e88"}, "vout": 1, "txid": "cc568ca9f4f5fde87991658a521e23492652ceb0e6a787107a2a3570997eb954"}], "txid": "20a3bbbd28219ae6f09114893915a92a4940aadad220450a159b4a25a6795a58", "blocktime": 1537875543, "version": 1, "confirmations": 11464, "time": 1537875543, "locktime": 0, "vsize": 224, "size": 224}