{"hash": "20a5755e9ab8e6af8bc4c4779519151435db4d5068b9c4c7eef101629f2304df", "blockhash": "0000000000000000001f76057863aec43deb6fa401d9628bb513d65a8098bfab", "vout": [{"scriptPubKey": {"reqSigs": 1, "hex": "76a9147722832351948c583048a7871e7585e50438b00688ac", "addresses": ["1BrvknL3HUM8tkW7PtMSJF6iz2wsv1KnLg"], "asm": "OP_DUP OP_HASH160 7722832351948c583048a7871e7585e50438b006 OP_EQUALVERIFY OP_CHECKSIG", "type": "pubkeyhash"}, "value": 0.00934042, "n": 0}, {"scriptPubKey": {"reqSigs": 1, "hex": "76a9143c8ecdf2c3acce498255e557254504200355e49488ac", "addresses": ["16XCcjtSStcojpNs4JKtV8QcwzedmHXPtD"], "asm": "OP_DUP OP_HASH160 3c8ecdf2c3acce498255e557254504200355e494 OP_EQUALVERIFY OP_CHECKSIG", "type": "pubkeyhash"}, "value": 0.165132, "n": 1}], "hex": "01000000018c94027a4b55393616dae2dae27d8cca5833fdb183c7367ab954653facd77621010000006b48304502210090c52c5e404383e503e77efc51b3fe458d044c9af5d7d8af5ebd127425e65c360220260e66a90c926e0bea04e7a56dff15546ac036303c5ef7f69c49f514cbbc24f901210234ffb2a2ae1a6c340481e8b22f577380f0d7d2cdff6578b88426a844d3acf4cbffffffff029a400e00000000001976a9147722832351948c583048a7871e7585e50438b00688acb0f8fb00000000001976a9143c8ecdf2c3acce498255e557254504200355e49488ac00000000", "vin": [{"sequence": 4294967295, "scriptSig": {"hex": "48304502210090c52c5e404383e503e77efc51b3fe458d044c9af5d7d8af5ebd127425e65c360220260e66a90c926e0bea04e7a56dff15546ac036303c5ef7f69c49f514cbbc24f901210234ffb2a2ae1a6c340481e8b22f577380f0d7d2cdff6578b88426a844d3acf4cb", "asm": "304502210090c52c5e404383e503e77efc51b3fe458d044c9af5d7d8af5ebd127425e65c360220260e66a90c926e0bea04e7a56dff15546ac036303c5ef7f69c49f514cbbc24f9[ALL] 0234ffb2a2ae1a6c340481e8b22f577380f0d7d2cdff6578b88426a844d3acf4cb"}, "vout": 1, "txid": "2176d7ac3f6554b97a36c783b1fd3358ca8c7de2dae2da163639554b7a02948c"}], "txid": "20a5755e9ab8e6af8bc4c4779519151435db4d5068b9c4c7eef101629f2304df", "blocktime": 1537873891, "version": 1, "confirmations": 11475, "time": 1537873891, "locktime": 0, "vsize": 226, "size": 226}