{"hash": "1fec69d7e060ce56810563696231a0e1f1ea352585608d3b743796de869b574f", "blockhash": "00000000000000000018f53835495a110e01622372bf6ae95dc86f2b0ab887b0", "vout": [{"scriptPubKey": {"reqSigs": 1, "hex": "0014bbff81c0db37e4641625c24da20bde7b1ad71bac", "addresses": ["bc1qh0lcrsxmxljxg939cfx6yz770vddwxavz4883w"], "asm": "0 bbff81c0db37e4641625c24da20bde7b1ad71bac", "type": "witness_v0_keyhash"}, "value": 1.138e-05, "n": 0}, {"scriptPubKey": {"reqSigs": 1, "hex": "a91432c74c9e59dd5e2d46fbab577c031abe80e21f6787", "addresses": ["36KWTh8pB8LFvfLPMLjuxd2Esh2D4sdCGv"], "asm": "OP_HASH160 32c74c9e59dd5e2d46fbab577c031abe80e21f67 OP_EQUAL", "type": "scripthash"}, "value": 0.000143, "n": 1}], "hex": "010000000001018511bfd4f67064e56b4fde554d9fc2a8d65168dc0d97c108afe10af0861e30de0000000000ffffffff027204000000000000160014bbff81c0db37e4641625c24da20bde7b1ad71bacdc3700000000000017a91432c74c9e59dd5e2d46fbab577c031abe80e21f67870247304402200f1ef16c350be77c1fe6745a2e5d28e40d3632e83d2c584a37068f729551ff0002204ba4bab718073c2281b38ac6d37373020a26803326bbefad635183398fb94d75012103cb72f4e3ca844498cf954146536873b420ede3882a9a15f6c0a2b1f04710f56000000000", "vin": [{"txinwitness": ["304402200f1ef16c350be77c1fe6745a2e5d28e40d3632e83d2c584a37068f729551ff0002204ba4bab718073c2281b38ac6d37373020a26803326bbefad635183398fb94d7501", "03cb72f4e3ca844498cf954146536873b420ede3882a9a15f6c0a2b1f04710f560"], "sequence": 4294967295, "scriptSig": {"hex": "", "asm": ""}, "vout": 0, "txid": "de301e86f00ae1af08c1970ddc6851d6a8c29f4d55de4f6be56470f6d4bf1185"}], "txid": "20ae9da99a67d34af3515541f7d7888bc6324bb04bf0898d19a952dbb8a2fd20", "blocktime": 1537870928, "version": 1, "confirmations": 11513, "time": 1537870928, "locktime": 0, "vsize": 142, "size": 223}