{"hash": "20b204bfeef623833353500121ef8967c09445ce53ad30617f352cb648c3fa8c", "blockhash": "0000000000000000000e13cef7c366c0283d82e591d1acd082e914b08063cdf1", "vout": [{"scriptPubKey": {"reqSigs": 1, "hex": "76a9146cc0817c6ae57e2e850d01cf204457dc0662a34788ac", "addresses": ["1Av2bFpTJitmJsZ9zdE5RGgR8V8Ay6jaH1"], "asm": "OP_DUP OP_HASH160 6cc0817c6ae57e2e850d01cf204457dc0662a347 OP_EQUALVERIFY OP_CHECKSIG", "type": "pubkeyhash"}, "value": 0.01589762, "n": 0}, {"scriptPubKey": {"reqSigs": 1, "hex": "76a914d1d0aa5808fbd83134e2344595d36233140c18a888ac", "addresses": ["1L8QCRJwXDeZz1WnKcfAsyTfSUEJq6xovC"], "asm": "OP_DUP OP_HASH160 d1d0aa5808fbd83134e2344595d36233140c18a8 OP_EQUALVERIFY OP_CHECKSIG", "type": "pubkeyhash"}, "value": 0.03543807, "n": 1}], "hex": "0200000001ce6e2a429974c94c4fbcb8b62706474dd1cb1fe96f5ea1436254cdc98fee5c10010000006b483045022100d6258624765f17d55ce9e9ce158dec05ed11907b4d87ed0bb8fb8727b4b5449002202e7493ea6354ce124c8c1367ca82c44fde95d0a4f02ef6f81f1aeaccb2518a2801210317b496b9f1b2d82c5fa6700a81aff86b6b725fd10360fb264c609f0c3b3d3748feffffff0202421800000000001976a9146cc0817c6ae57e2e850d01cf204457dc0662a34788acff123600000000001976a914d1d0aa5808fbd83134e2344595d36233140c18a888ac10490800", "vin": [{"sequence": 4294967294, "scriptSig": {"hex": "483045022100d6258624765f17d55ce9e9ce158dec05ed11907b4d87ed0bb8fb8727b4b5449002202e7493ea6354ce124c8c1367ca82c44fde95d0a4f02ef6f81f1aeaccb2518a2801210317b496b9f1b2d82c5fa6700a81aff86b6b725fd10360fb264c609f0c3b3d3748", "asm": "3045022100d6258624765f17d55ce9e9ce158dec05ed11907b4d87ed0bb8fb8727b4b5449002202e7493ea6354ce124c8c1367ca82c44fde95d0a4f02ef6f81f1aeaccb2518a28[ALL] 0317b496b9f1b2d82c5fa6700a81aff86b6b725fd10360fb264c609f0c3b3d3748"}, "vout": 1, "txid": "105cee8fc9cd546243a15e6fe91fcbd14d470627b6b8bc4f4cc97499422a6ece"}], "txid": "20b204bfeef623833353500121ef8967c09445ce53ad30617f352cb648c3fa8c", "blocktime": 1537871767, "version": 2, "confirmations": 11490, "time": 1537871767, "locktime": 542992, "vsize": 226, "size": 226}