{"hash": "13dc0d2837a6ac88c2981329b3c57da0c50d2dd1761197af7ff6a6fc69798a4b", "blockhash": "00000000000000000018f53835495a110e01622372bf6ae95dc86f2b0ab887b0", "vout": [{"scriptPubKey": {"reqSigs": 1, "hex": "76a914104f6b37feaae6cba5ac5d8dfb1dfff6b23a1dbd88ac", "addresses": ["12VExBnEMGsTA6FBMbqjjiTvTpZyZ3RJh3"], "asm": "OP_DUP OP_HASH160 104f6b37feaae6cba5ac5d8dfb1dfff6b23a1dbd OP_EQUALVERIFY OP_CHECKSIG", "type": "pubkeyhash"}, "value": 0.011489, "n": 0}, {"scriptPubKey": {"reqSigs": 1, "hex": "a9148e22ad3c50d3795817122cba4261de6caeadf70087", "addresses": ["3EeZRAR48JZ6uNyrbKKrX43dzt1Qp6a7B9"], "asm": "OP_HASH160 8e22ad3c50d3795817122cba4261de6caeadf700 OP_EQUAL", "type": "scripthash"}, "value": 0.02848672, "n": 1}], "hex": "02000000000101c92bc5f3897747615b74c84953c85ed151e9f48834ca86cefc637fba2198799b0800000017160014940d0a8e4d8decf9b5138fe96f97a60906ef724dffffffff02e4871100000000001976a914104f6b37feaae6cba5ac5d8dfb1dfff6b23a1dbd88aca0772b000000000017a9148e22ad3c50d3795817122cba4261de6caeadf7008702483045022100852bf9015ba35e72b695aab1c3aeb8dadddafdbdb3da5669398dbf91fc001138022000cdfb6ccda1b3e982088b75772b0c73452c2795893cc391ad552f4a41bd9c1b012103c2c984c5c2c952d7f32d18ded800dc7d1587ea40e50f65d1bf490358135d9e0d00000000", "vin": [{"txinwitness": ["3045022100852bf9015ba35e72b695aab1c3aeb8dadddafdbdb3da5669398dbf91fc001138022000cdfb6ccda1b3e982088b75772b0c73452c2795893cc391ad552f4a41bd9c1b01", "03c2c984c5c2c952d7f32d18ded800dc7d1587ea40e50f65d1bf490358135d9e0d"], "sequence": 4294967295, "scriptSig": {"hex": "160014940d0a8e4d8decf9b5138fe96f97a60906ef724d", "asm": "0014940d0a8e4d8decf9b5138fe96f97a60906ef724d"}, "vout": 8, "txid": "9b799821ba7f63fcce86ca3488f4e951d15ec85349c8745b61477789f3c52bc9"}], "txid": "20b49d3e2bd185d3b90a52de17c9c938f0483090259b3845f36dcc13d9252e8c", "blocktime": 1537870928, "version": 2, "confirmations": 11512, "time": 1537870928, "locktime": 0, "vsize": 168, "size": 250}