{"hash": "20b73bf08ce9fb9eaf18e01cf710ccb4f5ee01534ec08ccba0da9dbf171da07b", "blockhash": "00000000000000000004ffacab907a6b429b9a5745fa0b75af4234bf69dd7176", "vout": [{"scriptPubKey": {"reqSigs": 1, "hex": "76a914a7591796c0465d12844c86216dc4316a1523540e88ac", "addresses": ["1GFraGT4qQ5eP2w5FgzMqqPXEnG8jqsyiK"], "asm": "OP_DUP OP_HASH160 a7591796c0465d12844c86216dc4316a1523540e OP_EQUALVERIFY OP_CHECKSIG", "type": "pubkeyhash"}, "value": 0.100828, "n": 0}, {"scriptPubKey": {"reqSigs": 1, "hex": "a914753bac005877a01f9e3f4d8ed577ab55edd1dfc487", "addresses": ["3CNtU4beU4bTtMZkXLZWN5ozbVQWYBAtYd"], "asm": "OP_HASH160 753bac005877a01f9e3f4d8ed577ab55edd1dfc4 OP_EQUAL", "type": "scripthash"}, "value": 1.0, "n": 1}], "hex": "02000000019a581a9ec56b53b4fe01ea10f1a1671d04d006b89adb484ae8a4fb085547d368010000008b483045022100b67befa4ec8ac04899f80bc005b6ec989a4927b0ac10094f878802b87245a337022002eda5513355d5446e78b35ce337bc3da1709b8a66314575ec2f2b5c928981fb014104306a3183ece634f4aea35cf2dcd95e1bc3ec1f277996a7158c6475cb1808189087ae1bb2af39cc7e4c5873d247a06b477dce30a817122b13eeef9b59de7784abfdffffff02f0d99900000000001976a914a7591796c0465d12844c86216dc4316a1523540e88ac00e1f5050000000017a914753bac005877a01f9e3f4d8ed577ab55edd1dfc48716490800", "vin": [{"sequence": 4294967293, "scriptSig": {"hex": "483045022100b67befa4ec8ac04899f80bc005b6ec989a4927b0ac10094f878802b87245a337022002eda5513355d5446e78b35ce337bc3da1709b8a66314575ec2f2b5c928981fb014104306a3183ece634f4aea35cf2dcd95e1bc3ec1f277996a7158c6475cb1808189087ae1bb2af39cc7e4c5873d247a06b477dce30a817122b13eeef9b59de7784ab", "asm": "3045022100b67befa4ec8ac04899f80bc005b6ec989a4927b0ac10094f878802b87245a337022002eda5513355d5446e78b35ce337bc3da1709b8a66314575ec2f2b5c928981fb[ALL] 04306a3183ece634f4aea35cf2dcd95e1bc3ec1f277996a7158c6475cb1808189087ae1bb2af39cc7e4c5873d247a06b477dce30a817122b13eeef9b59de7784ab"}, "vout": 1, "txid": "68d3475508fba4e84a48db9ab806d0041d67a1f110ea01feb4536bc59e1a589a"}], "txid": "20b73bf08ce9fb9eaf18e01cf710ccb4f5ee01534ec08ccba0da9dbf171da07b", "blocktime": 1537875543, "version": 2, "confirmations": 11464, "time": 1537875543, "locktime": 542998, "vsize": 256, "size": 256}