{"hash": "20bc5a4179ce9004982aa24827354df3b084058e0fd23b10fec9ccbd701824ef", "blockhash": "0000000000000000001f0ddff1eddb255c1121bcd4da4f1bc9a0da00cae72433", "vout": [{"scriptPubKey": {"reqSigs": 1, "hex": "a914d349aa66ac9632e2b282e50c72b9066fb411c36e87", "addresses": ["3LxCkQ1qwFn1NtKLL8zh7tQXyGuDCxGuoU"], "asm": "OP_HASH160 d349aa66ac9632e2b282e50c72b9066fb411c36e OP_EQUAL", "type": "scripthash"}, "value": 0.00770672, "n": 0}, {"scriptPubKey": {"reqSigs": 1, "hex": "76a914471d4e1c43899c5272d1a324d84de7422938b1d388ac", "addresses": ["17V25my8whc9DXi6eSuBA6ZuGQFCVJJEYT"], "asm": "OP_DUP OP_HASH160 471d4e1c43899c5272d1a324d84de7422938b1d3 OP_EQUALVERIFY OP_CHECKSIG", "type": "pubkeyhash"}, "value": 0.00438081, "n": 1}], "hex": "010000000171472510f532894a19a5dd62ae8ffa870c4edec9fd99906e9d44f6cfedc72e4f01000000fdfd000047304402200fd3291f921543f8ae0af044845ef462dc73399a0a1db604169be743b3ce1d0402206f9208c7675bc80cf0b80bc52d3bdaba12c627db9e541dc0ffe3ab7d3dfc236101483045022100b9cc5a11c88337ce292e0db00096ceec6011a427d5537d7a032a1b89d8b82b1402202f5494a53233525118687161c8fd7a623f792b68e81222da86c8b3a3fb117aa9014c6952210301d754130af4a2506a26caec6ab23b53f863e90ccafa689ff3d01d25d070632d21037db242a00b6665ecf4285a27c756b092fda0b606ba0d5b2525701ca45e47719f2103bca86d9aa889f5b916508ef1bfc43c4e00fa1eb1e68b96d7562f8100af34424053aeffffffff0270c20b000000000017a914d349aa66ac9632e2b282e50c72b9066fb411c36e8741af0600000000001976a914471d4e1c43899c5272d1a324d84de7422938b1d388ac00000000", "vin": [{"sequence": 4294967295, "scriptSig": {"hex": "0047304402200fd3291f921543f8ae0af044845ef462dc73399a0a1db604169be743b3ce1d0402206f9208c7675bc80cf0b80bc52d3bdaba12c627db9e541dc0ffe3ab7d3dfc236101483045022100b9cc5a11c88337ce292e0db00096ceec6011a427d5537d7a032a1b89d8b82b1402202f5494a53233525118687161c8fd7a623f792b68e81222da86c8b3a3fb117aa9014c6952210301d754130af4a2506a26caec6ab23b53f863e90ccafa689ff3d01d25d070632d21037db242a00b6665ecf4285a27c756b092fda0b606ba0d5b2525701ca45e47719f2103bca86d9aa889f5b916508ef1bfc43c4e00fa1eb1e68b96d7562f8100af34424053ae", "asm": "0 304402200fd3291f921543f8ae0af044845ef462dc73399a0a1db604169be743b3ce1d0402206f9208c7675bc80cf0b80bc52d3bdaba12c627db9e541dc0ffe3ab7d3dfc2361[ALL] 3045022100b9cc5a11c88337ce292e0db00096ceec6011a427d5537d7a032a1b89d8b82b1402202f5494a53233525118687161c8fd7a623f792b68e81222da86c8b3a3fb117aa9[ALL] 52210301d754130af4a2506a26caec6ab23b53f863e90ccafa689ff3d01d25d070632d21037db242a00b6665ecf4285a27c756b092fda0b606ba0d5b2525701ca45e47719f2103bca86d9aa889f5b916508ef1bfc43c4e00fa1eb1e68b96d7562f8100af34424053ae"}, "vout": 1, "txid": "4f2ec7edcff6449d6e9099fdc9de4e0c87fa8fae62dda5194a8932f510254771"}], "txid": "20bc5a4179ce9004982aa24827354df3b084058e0fd23b10fec9ccbd701824ef", "blocktime": 1537872018, "version": 1, "confirmations": 11489, "time": 1537872018, "locktime": 0, "vsize": 372, "size": 372}