{"hash": "20c0249f93ea5e581aa608bc3a9c4ebf8b7d3b9f6953ced8ed3e50fb652af7e2", "blockhash": "00000000000000000004ffacab907a6b429b9a5745fa0b75af4234bf69dd7176", "vout": [{"scriptPubKey": {"reqSigs": 1, "hex": "a91414daa817f0ec50763a596e08faffcc6fb36d880b87", "addresses": ["33bHNudu7C7FPbQjGdjHAwwHvnDK5iP5UE"], "asm": "OP_HASH160 14daa817f0ec50763a596e08faffcc6fb36d880b OP_EQUAL", "type": "scripthash"}, "value": 0.01374708, "n": 0}, {"scriptPubKey": {"reqSigs": 1, "hex": "76a9142ebd0678e9d7df0db0abbb07ad9366549ed005e588ac", "addresses": ["15G8XXoYMJGfpHiwCGXTFiaonJhTHcWJv8"], "asm": "OP_DUP OP_HASH160 2ebd0678e9d7df0db0abbb07ad9366549ed005e5 OP_EQUALVERIFY OP_CHECKSIG", "type": "pubkeyhash"}, "value": 0.07847326, "n": 1}], "hex": "010000000191f67f91c35fe8e4498bed72f215aee8b7280206d87b382b32bf53f4da15edaa010000006a47304402200b4e8f5c4200b1ffccd2f53bd90b8be1a4f9ca5c12a18d518ded60a083212a9202200aefa5f912b20b86c2b2aba235daee2fa64c868441e2d9e30ceb489f338790a70121025d2ade9a7ee65b9a776421da045d83008e657e029f9e6226f20a05cb69350e0fffffffff02f4f914000000000017a91414daa817f0ec50763a596e08faffcc6fb36d880b879ebd7700000000001976a9142ebd0678e9d7df0db0abbb07ad9366549ed005e588ac00000000", "vin": [{"sequence": 4294967295, "scriptSig": {"hex": "47304402200b4e8f5c4200b1ffccd2f53bd90b8be1a4f9ca5c12a18d518ded60a083212a9202200aefa5f912b20b86c2b2aba235daee2fa64c868441e2d9e30ceb489f338790a70121025d2ade9a7ee65b9a776421da045d83008e657e029f9e6226f20a05cb69350e0f", "asm": "304402200b4e8f5c4200b1ffccd2f53bd90b8be1a4f9ca5c12a18d518ded60a083212a9202200aefa5f912b20b86c2b2aba235daee2fa64c868441e2d9e30ceb489f338790a7[ALL] 025d2ade9a7ee65b9a776421da045d83008e657e029f9e6226f20a05cb69350e0f"}, "vout": 1, "txid": "aaed15daf453bf322b387bd8060228b7e8ae15f272ed8b49e4e85fc3917ff691"}], "txid": "20c0249f93ea5e581aa608bc3a9c4ebf8b7d3b9f6953ced8ed3e50fb652af7e2", "blocktime": 1537875543, "version": 1, "confirmations": 11464, "time": 1537875543, "locktime": 0, "vsize": 223, "size": 223}