{"hash": "20c028896b104ae12e7050351a1aaef20d8317f5d265e0d0c67ad51455fc9859", "blockhash": "0000000000000000001cda96e906b7601b7a6fb1a3b62bca570a9e5d8f4b3de1", "vout": [{"scriptPubKey": {"reqSigs": 1, "hex": "76a914271991039618953f5e3ac463884f3001d966dd1688ac", "addresses": ["14ZjysUUftg1yN94MJNg9RLmX7pHYMqqBU"], "asm": "OP_DUP OP_HASH160 271991039618953f5e3ac463884f3001d966dd16 OP_EQUALVERIFY OP_CHECKSIG", "type": "pubkeyhash"}, "value": 5.46e-06, "n": 0}, {"scriptPubKey": {"type": "nulldata", "hex": "6a146f6d6e69000000000000001f000000012a05f200", "asm": "OP_RETURN 6f6d6e69000000000000001f000000012a05f200"}, "value": 0.0, "n": 1}, {"scriptPubKey": {"reqSigs": 1, "hex": "76a914a520c86a08366941cd90d22e11ac1c7eefa2db3788ac", "addresses": ["1G47mSr3oANXMafVrR8UC4pzV7FEAzo3r9"], "asm": "OP_DUP OP_HASH160 a520c86a08366941cd90d22e11ac1c7eefa2db37 OP_EQUALVERIFY OP_CHECKSIG", "type": "pubkeyhash"}, "value": 0.6805877, "n": 2}], "hex": "010000000190faf3a2328ace7fc505272785dc108b0458fc534850ff0c4f6a8ea6d090d491010000006b483045022100e2f12566be956245c672cc51812cbdb8f7f9ddcf5883f82471cce106ddc6656802205bcdf09987fb38cc67a4e81f8f89af998c57e729f0b093715e45414134b99b39012103f3f44c9e80e2cedc1a2909631a3adea8866ee32187f74d0912387359b0ff36a2ffffffff0322020000000000001976a914271991039618953f5e3ac463884f3001d966dd1688ac0000000000000000166a146f6d6e69000000000000001f000000012a05f200927e0e04000000001976a914a520c86a08366941cd90d22e11ac1c7eefa2db3788ac00000000", "vin": [{"sequence": 4294967295, "scriptSig": {"hex": "483045022100e2f12566be956245c672cc51812cbdb8f7f9ddcf5883f82471cce106ddc6656802205bcdf09987fb38cc67a4e81f8f89af998c57e729f0b093715e45414134b99b39012103f3f44c9e80e2cedc1a2909631a3adea8866ee32187f74d0912387359b0ff36a2", "asm": "3045022100e2f12566be956245c672cc51812cbdb8f7f9ddcf5883f82471cce106ddc6656802205bcdf09987fb38cc67a4e81f8f89af998c57e729f0b093715e45414134b99b39[ALL] 03f3f44c9e80e2cedc1a2909631a3adea8866ee32187f74d0912387359b0ff36a2"}, "vout": 1, "txid": "91d490d0a68e6a4f0cff504853fc58048b10dc85272705c57fce8a32a2f3fa90"}], "txid": "20c028896b104ae12e7050351a1aaef20d8317f5d265e0d0c67ad51455fc9859", "blocktime": 1537873282, "version": 1, "confirmations": 11482, "time": 1537873282, "locktime": 0, "vsize": 257, "size": 257}