{"hash": "20c0d999fd40710a8642d9e6b47673f22229785e0808c785e29ba48f4bcd9a17", "blockhash": "0000000000000000001cda96e906b7601b7a6fb1a3b62bca570a9e5d8f4b3de1", "vout": [{"scriptPubKey": {"reqSigs": 1, "hex": "76a914d243e6abb9a60fbff430b421d2df4b7d59ec186088ac", "addresses": ["1LAnF8h3qMGx3TSwNUHVneBZUEpwE4gu3D"], "asm": "OP_DUP OP_HASH160 d243e6abb9a60fbff430b421d2df4b7d59ec1860 OP_EQUALVERIFY OP_CHECKSIG", "type": "pubkeyhash"}, "value": 0.00077314, "n": 0}, {"scriptPubKey": {"reqSigs": 1, "hex": "76a914e556b281cade9c57a026dcb231fc3555a1c4594f88ac", "addresses": ["1MudbmEgNo25mgiNgzfCumtHDMmsi9SVc1"], "asm": "OP_DUP OP_HASH160 e556b281cade9c57a026dcb231fc3555a1c4594f OP_EQUALVERIFY OP_CHECKSIG", "type": "pubkeyhash"}, "value": 5.46e-06, "n": 1}, {"scriptPubKey": {"type": "nulldata", "hex": "6a146f6d6e69000000000000001f0000024c8a196490", "asm": "OP_RETURN 6f6d6e69000000000000001f0000024c8a196490"}, "value": 0.0, "n": 2}], "hex": "01000000015e9d2e5351b252aa4d8062966e83743ee6226dc053797819eebc40572c2d3735000000006b483045022100b034de4bec0466a2ee34841e01b69010a74451bdef045f617a9e195980b74ddd022079e2e20cd259d0696c3c97211f969c85d8f32533eed4cfc42703119c655bca5601210271977291b74f1f5f5c42157e8aae804664eaaeccfd097918450d37f28fb94d77ffffffff03022e0100000000001976a914d243e6abb9a60fbff430b421d2df4b7d59ec186088ac22020000000000001976a914e556b281cade9c57a026dcb231fc3555a1c4594f88ac0000000000000000166a146f6d6e69000000000000001f0000024c8a19649000000000", "vin": [{"sequence": 4294967295, "scriptSig": {"hex": "483045022100b034de4bec0466a2ee34841e01b69010a74451bdef045f617a9e195980b74ddd022079e2e20cd259d0696c3c97211f969c85d8f32533eed4cfc42703119c655bca5601210271977291b74f1f5f5c42157e8aae804664eaaeccfd097918450d37f28fb94d77", "asm": "3045022100b034de4bec0466a2ee34841e01b69010a74451bdef045f617a9e195980b74ddd022079e2e20cd259d0696c3c97211f969c85d8f32533eed4cfc42703119c655bca56[ALL] 0271977291b74f1f5f5c42157e8aae804664eaaeccfd097918450d37f28fb94d77"}, "vout": 0, "txid": "35372d2c5740bcee19787953c06d22e63e74836e9662804daa52b251532e9d5e"}], "txid": "20c0d999fd40710a8642d9e6b47673f22229785e0808c785e29ba48f4bcd9a17", "blocktime": 1537873282, "version": 1, "confirmations": 11483, "time": 1537873282, "locktime": 0, "vsize": 257, "size": 257}