{"hash": "a582c6b10e32afb922bb25c33607d862cde0d4effd4d76e6bf10d55650f54778", "blockhash": "0000000000000000000baef3f32e3676a92c3b2e5da21b426e4f302fc371ce76", "vout": [{"scriptPubKey": {"reqSigs": 1, "hex": "76a914c70dfb23ae78d13f3f1387b52098a8a17399d89788ac", "addresses": ["1K9WDbLm9pQf5thTy1rp2z9UPqF7v16gEf"], "asm": "OP_DUP OP_HASH160 c70dfb23ae78d13f3f1387b52098a8a17399d897 OP_EQUALVERIFY OP_CHECKSIG", "type": "pubkeyhash"}, "value": 0.00890208, "n": 0}, {"scriptPubKey": {"reqSigs": 1, "hex": "a914cfaabfe8c271f99a4364b5197ba50c6cddb7adb987", "addresses": ["3Ld4M9RPwEG3VeQbHcC1PsKUndQL7VYLZP"], "asm": "OP_HASH160 cfaabfe8c271f99a4364b5197ba50c6cddb7adb9 OP_EQUAL", "type": "scripthash"}, "value": 1.63192265, "n": 1}], "hex": "01000000000101dd0351fce9a037ec31f6e1c4bc4338872c8d2e2e500a3f2cebade90659f0ab0401000000232200202f7b4024602241b47d3306a6733d9889e4b6761d9f1cb82a18aa8b9ac4506e51ffffffff0260950d00000000001976a914c70dfb23ae78d13f3f1387b52098a8a17399d89788acc91dba090000000017a914cfaabfe8c271f99a4364b5197ba50c6cddb7adb987040047304402201dde2f3bc67ff7079147accb2f6701993c5f9687aa2ff34f7404c94377df5cb3022016c36e3b8ef88593cf256b57addfa2c2f5817979b220b911eb1581d41ff65e2d01483045022100b11baa985171d54d8fde5cef2aeb98530cd803e31981f525d0414d2e096f43ac02204998ae482ffd9c3a36d5e68db00bb31e086f9ad31a8d8d209991653e4312a4fb0147522102973cd851fecff3a20f08377b072729f303801eee1b7678668338adcaec770ec221033e4af03ed09dbd8a417ba042650d5bd1db7f14f271a8f660974e3abf1fdfa4da52ae00000000", "vin": [{"txinwitness": ["", "304402201dde2f3bc67ff7079147accb2f6701993c5f9687aa2ff34f7404c94377df5cb3022016c36e3b8ef88593cf256b57addfa2c2f5817979b220b911eb1581d41ff65e2d01", "3045022100b11baa985171d54d8fde5cef2aeb98530cd803e31981f525d0414d2e096f43ac02204998ae482ffd9c3a36d5e68db00bb31e086f9ad31a8d8d209991653e4312a4fb01", "522102973cd851fecff3a20f08377b072729f303801eee1b7678668338adcaec770ec221033e4af03ed09dbd8a417ba042650d5bd1db7f14f271a8f660974e3abf1fdfa4da52ae"], "sequence": 4294967295, "scriptSig": {"hex": "2200202f7b4024602241b47d3306a6733d9889e4b6761d9f1cb82a18aa8b9ac4506e51", "asm": "00202f7b4024602241b47d3306a6733d9889e4b6761d9f1cb82a18aa8b9ac4506e51"}, "vout": 1, "txid": "04abf05906e9adeb2c3f0a502e2e8d2c873843bcc4e1f631ec37a0e9fc5103dd"}], "txid": "20c405d06bf7b2f0dff652f665814115ab2d295999871ef0c75434a733e292cd", "blocktime": 1537876114, "version": 1, "confirmations": 11462, "time": 1537876114, "locktime": 0, "vsize": 208, "size": 373}