{"hash": "20c40de243af4c0d8c7ac8e22a56805398274fb9dc57a37f6c75473ada932f68", "blockhash": "00000000000000000018f53835495a110e01622372bf6ae95dc86f2b0ab887b0", "vout": [{"scriptPubKey": {"reqSigs": 1, "hex": "76a914a99e4e218662e644d6b064da599891668963f8b988ac", "addresses": ["1GTrqf8VjJDY2CRwfzKyLWGZxRRt5crZiQ"], "asm": "OP_DUP OP_HASH160 a99e4e218662e644d6b064da599891668963f8b9 OP_EQUALVERIFY OP_CHECKSIG", "type": "pubkeyhash"}, "value": 9.962e-05, "n": 0}, {"scriptPubKey": {"reqSigs": 1, "hex": "76a914315611134b28318d460a462c83b793f6ff8983dc88ac", "addresses": ["15VsDRJ98URPSHtSmQz6gsdaocM3cMpJy4"], "asm": "OP_DUP OP_HASH160 315611134b28318d460a462c83b793f6ff8983dc OP_EQUALVERIFY OP_CHECKSIG", "type": "pubkeyhash"}, "value": 0.000933, "n": 1}], "hex": "0100000001599a179d50c8240c274688b17e35578cb94261037cd1d60c6a73b3b87611b26e1f0000006a473044022012d21300585171e02fd81ff3cebca236d43d9d5f8dba84ec5eeccd21c305dc9702207e502d3bcb7c72726e8216f6b4338b51feeec7dc25f334c1638c585878e1d1be01210207b1ea003db461d6a80bc8f5e775c9b0075c7487c748ae8b1ddccfa1c3361245ffffffff02ea260000000000001976a914a99e4e218662e644d6b064da599891668963f8b988ac746c0100000000001976a914315611134b28318d460a462c83b793f6ff8983dc88ac00000000", "vin": [{"sequence": 4294967295, "scriptSig": {"hex": "473044022012d21300585171e02fd81ff3cebca236d43d9d5f8dba84ec5eeccd21c305dc9702207e502d3bcb7c72726e8216f6b4338b51feeec7dc25f334c1638c585878e1d1be01210207b1ea003db461d6a80bc8f5e775c9b0075c7487c748ae8b1ddccfa1c3361245", "asm": "3044022012d21300585171e02fd81ff3cebca236d43d9d5f8dba84ec5eeccd21c305dc9702207e502d3bcb7c72726e8216f6b4338b51feeec7dc25f334c1638c585878e1d1be[ALL] 0207b1ea003db461d6a80bc8f5e775c9b0075c7487c748ae8b1ddccfa1c3361245"}, "vout": 31, "txid": "6eb21176b8b3736a0cd6d17c036142b98c57357eb18846270c24c8509d179a59"}], "txid": "20c40de243af4c0d8c7ac8e22a56805398274fb9dc57a37f6c75473ada932f68", "blocktime": 1537870928, "version": 1, "confirmations": 11514, "time": 1537870928, "locktime": 0, "vsize": 225, "size": 225}