{"hash": "20c51f4669119b14ebcf82e161af12cc21831e4f1a46496b244b442a55bb2f16", "blockhash": "0000000000000000001e0dab787dd257d1dbfcb92a98c2207d5e1078be1f4165", "vout": [{"scriptPubKey": {"type": "nulldata", "hex": "6a146f6d6e69000000000000001f00000002e318fc00", "asm": "OP_RETURN 6f6d6e69000000000000001f00000002e318fc00"}, "value": 0.0, "n": 0}, {"scriptPubKey": {"reqSigs": 1, "hex": "76a914761bbaccb69bacaebff3f9d8d77c61d9e7976eb988ac", "addresses": ["1BmVxL3cReV1EUyYxtkis35tD1WjVoHhwG"], "asm": "OP_DUP OP_HASH160 761bbaccb69bacaebff3f9d8d77c61d9e7976eb9 OP_EQUALVERIFY OP_CHECKSIG", "type": "pubkeyhash"}, "value": 5.46e-06, "n": 1}, {"scriptPubKey": {"reqSigs": 1, "hex": "76a9145616aa1fe55c335295ff8abd73cd760ca0e9466288ac", "addresses": ["18rCGFxafk4MJCrMLxkKGuUopQqf5E8qCS"], "asm": "OP_DUP OP_HASH160 5616aa1fe55c335295ff8abd73cd760ca0e94662 OP_EQUALVERIFY OP_CHECKSIG", "type": "pubkeyhash"}, "value": 0.01452132, "n": 2}], "hex": "0100000001bcc361bf2e5df344494e8a896f1fc7d3741821d4fd730db58e04b0e694c949a8000000006a473044022037767e51e1f8f81e8a98084a8a9250c94e7b856937f07dc2b0688708d8a0bbba02204563f9edc9020047c62d85d16ced8b98857cf3477673cf3aef7e85719dd4008b012103a862758d9173d1bfa52feb7bb2f3af2126ee70d846d3b8ed6509d69de37261cefeffffff030000000000000000166a146f6d6e69000000000000001f00000002e318fc0022020000000000001976a914761bbaccb69bacaebff3f9d8d77c61d9e7976eb988ac64281600000000001976a9145616aa1fe55c335295ff8abd73cd760ca0e9466288ac12490800", "vin": [{"sequence": 4294967294, "scriptSig": {"hex": "473044022037767e51e1f8f81e8a98084a8a9250c94e7b856937f07dc2b0688708d8a0bbba02204563f9edc9020047c62d85d16ced8b98857cf3477673cf3aef7e85719dd4008b012103a862758d9173d1bfa52feb7bb2f3af2126ee70d846d3b8ed6509d69de37261ce", "asm": "3044022037767e51e1f8f81e8a98084a8a9250c94e7b856937f07dc2b0688708d8a0bbba02204563f9edc9020047c62d85d16ced8b98857cf3477673cf3aef7e85719dd4008b[ALL] 03a862758d9173d1bfa52feb7bb2f3af2126ee70d846d3b8ed6509d69de37261ce"}, "vout": 0, "txid": "a849c994e6b0048eb50d73fdd4211874d3c71f6f898a4e4944f35d2ebf61c3bc"}], "txid": "20c51f4669119b14ebcf82e161af12cc21831e4f1a46496b244b442a55bb2f16", "blocktime": 1537872475, "version": 1, "confirmations": 11486, "time": 1537872475, "locktime": 542994, "vsize": 256, "size": 256}