{"hash": "20cadd01b0f1870deffd75a56aa62fa1a2ec2df1b4fea693fc466ede3e2ca921", "blockhash": "0000000000000000001f76057863aec43deb6fa401d9628bb513d65a8098bfab", "vout": [{"scriptPubKey": {"reqSigs": 1, "hex": "76a914855c00bcf0508a2034dccf386e8578c7c0f81cd188ac", "addresses": ["1DA95zBJp9BdwGa3mLey3p8rdrhpsPF3Sy"], "asm": "OP_DUP OP_HASH160 855c00bcf0508a2034dccf386e8578c7c0f81cd1 OP_EQUALVERIFY OP_CHECKSIG", "type": "pubkeyhash"}, "value": 0.0006224, "n": 0}, {"scriptPubKey": {"reqSigs": 1, "hex": "76a914bc3cb5c9a8c048f8ebe2249a32492bff0783af8b88ac", "addresses": ["1JAJmH2o5zwaZDjAevQVqJCeKPc64mcMYX"], "asm": "OP_DUP OP_HASH160 bc3cb5c9a8c048f8ebe2249a32492bff0783af8b OP_EQUALVERIFY OP_CHECKSIG", "type": "pubkeyhash"}, "value": 0.00250716, "n": 1}], "hex": "010000000299827a367cc24099d8dcd38298f318016d037a008846ee47bdecb0498be2da23010000006b483045022100b9d392de0217748408aff96918d0a76b3844f92b6cf3623c3f716726a203117902203137d189924d34c0bdc464fbbc7a5f8348a137f7ef4827ebe13f16cbd5b5fc4c012103d0d5dc0f66ab8c26ff1e057914063c49bc63ee8957df2b2abc399b97d7f65b1bffffffff04142aa95505e478acb2aee0a410e386760c28a4a48f9c5cf292d15e8a3271df010000006a4730440220524f27388efbc782e66c8df921c1f0cef9fbfdcbee49f4fb4a8a24342e3d525f0220154c9a5ebb88132e98cb5cc9c95468db9b5e48ec3ef3e8e48ebf61ecde4cfd8f012102d192ec45a13d570350d0cce10a17489b0e3e183be67ddbbf5ee9231e0c0b26e6ffffffff0220f30000000000001976a914855c00bcf0508a2034dccf386e8578c7c0f81cd188ac5cd30300000000001976a914bc3cb5c9a8c048f8ebe2249a32492bff0783af8b88ac00000000", "vin": [{"sequence": 4294967295, "scriptSig": {"hex": "483045022100b9d392de0217748408aff96918d0a76b3844f92b6cf3623c3f716726a203117902203137d189924d34c0bdc464fbbc7a5f8348a137f7ef4827ebe13f16cbd5b5fc4c012103d0d5dc0f66ab8c26ff1e057914063c49bc63ee8957df2b2abc399b97d7f65b1b", "asm": "3045022100b9d392de0217748408aff96918d0a76b3844f92b6cf3623c3f716726a203117902203137d189924d34c0bdc464fbbc7a5f8348a137f7ef4827ebe13f16cbd5b5fc4c[ALL] 03d0d5dc0f66ab8c26ff1e057914063c49bc63ee8957df2b2abc399b97d7f65b1b"}, "vout": 1, "txid": "23dae28b49b0ecbd47ee4688007a036d0118f39882d3dcd89940c27c367a8299"}, {"sequence": 4294967295, "scriptSig": {"hex": "4730440220524f27388efbc782e66c8df921c1f0cef9fbfdcbee49f4fb4a8a24342e3d525f0220154c9a5ebb88132e98cb5cc9c95468db9b5e48ec3ef3e8e48ebf61ecde4cfd8f012102d192ec45a13d570350d0cce10a17489b0e3e183be67ddbbf5ee9231e0c0b26e6", "asm": "30440220524f27388efbc782e66c8df921c1f0cef9fbfdcbee49f4fb4a8a24342e3d525f0220154c9a5ebb88132e98cb5cc9c95468db9b5e48ec3ef3e8e48ebf61ecde4cfd8f[ALL] 02d192ec45a13d570350d0cce10a17489b0e3e183be67ddbbf5ee9231e0c0b26e6"}, "vout": 1, "txid": "df71328a5ed192f25c9c8fa4a4280c7686e310a4e0aeb2ac78e40555a92a1404"}], "txid": "20cadd01b0f1870deffd75a56aa62fa1a2ec2df1b4fea693fc466ede3e2ca921", "blocktime": 1537873891, "version": 1, "confirmations": 11476, "time": 1537873891, "locktime": 0, "vsize": 373, "size": 373}