{"hash": "20d91520278be789d85c7a33ba4e4d237132b3083347863c425650128896e0e0", "blockhash": "0000000000000000000e13cef7c366c0283d82e591d1acd082e914b08063cdf1", "vout": [{"scriptPubKey": {"reqSigs": 1, "hex": "76a914391228f04f4774042a26ff28d586284513edcda688ac", "addresses": ["16CmGi2x3yGv6qDNg5ZtQC2vxPK2ztiXWm"], "asm": "OP_DUP OP_HASH160 391228f04f4774042a26ff28d586284513edcda6 OP_EQUALVERIFY OP_CHECKSIG", "type": "pubkeyhash"}, "value": 0.00899206, "n": 0}, {"scriptPubKey": {"reqSigs": 1, "hex": "76a9146c4441bff9fa185b1a2f21c8f8035ec20a26017a88ac", "addresses": ["1AsTkHaK1VxoS6HiZLhKBbisPij8n7dwuC"], "asm": "OP_DUP OP_HASH160 6c4441bff9fa185b1a2f21c8f8035ec20a26017a OP_EQUALVERIFY OP_CHECKSIG", "type": "pubkeyhash"}, "value": 0.001, "n": 1}], "hex": "0100000001ed39c8ab16318ac7aaa2f03552882f2e65074f93bfcdd7ca7c07398b537c72a2000000006a473044022061f15daa00a3d0f235c37d76b73570829b0ea8128c9559d12787cf7feca8678a022031a705e1a1acda050ab422eb4e7dcb2b9f517bd9db6ab67cd5a9044924f159310121027a22df894b8301300e6c8f8fe92cab3ffb461837e026f4ef8e0d80e09b8c71bbffffffff0286b80d00000000001976a914391228f04f4774042a26ff28d586284513edcda688aca0860100000000001976a9146c4441bff9fa185b1a2f21c8f8035ec20a26017a88ac00000000", "vin": [{"sequence": 4294967295, "scriptSig": {"hex": "473044022061f15daa00a3d0f235c37d76b73570829b0ea8128c9559d12787cf7feca8678a022031a705e1a1acda050ab422eb4e7dcb2b9f517bd9db6ab67cd5a9044924f159310121027a22df894b8301300e6c8f8fe92cab3ffb461837e026f4ef8e0d80e09b8c71bb", "asm": "3044022061f15daa00a3d0f235c37d76b73570829b0ea8128c9559d12787cf7feca8678a022031a705e1a1acda050ab422eb4e7dcb2b9f517bd9db6ab67cd5a9044924f15931[ALL] 027a22df894b8301300e6c8f8fe92cab3ffb461837e026f4ef8e0d80e09b8c71bb"}, "vout": 0, "txid": "a2727c538b39077ccad7cdbf934f07652e2f885235f0a2aac78a3116abc839ed"}], "txid": "20d91520278be789d85c7a33ba4e4d237132b3083347863c425650128896e0e0", "blocktime": 1537871767, "version": 1, "confirmations": 11495, "time": 1537871767, "locktime": 0, "vsize": 225, "size": 225}