{"hash": "20db81d4c54ec695deb6cdec4569c2311727a302053b463100aa455f78a16449", "blockhash": "0000000000000000001f76057863aec43deb6fa401d9628bb513d65a8098bfab", "vout": [{"scriptPubKey": {"reqSigs": 1, "hex": "76a914f5236f6c3b3e2be5f4d4ab00c78f387c681ea24088ac", "addresses": ["1PMB15nNthkEmYRxh4WxciYvKEn6t9NDsf"], "asm": "OP_DUP OP_HASH160 f5236f6c3b3e2be5f4d4ab00c78f387c681ea240 OP_EQUALVERIFY OP_CHECKSIG", "type": "pubkeyhash"}, "value": 0.001511, "n": 0}, {"scriptPubKey": {"reqSigs": 1, "hex": "76a91433dc302f8c92febfa3d6b8b1f48c04e2eaa4e03e88ac", "addresses": ["15jDEjJwU7gRJKADQT27zQ8GjYY61tMUfb"], "asm": "OP_DUP OP_HASH160 33dc302f8c92febfa3d6b8b1f48c04e2eaa4e03e OP_EQUALVERIFY OP_CHECKSIG", "type": "pubkeyhash"}, "value": 0.00937513, "n": 1}], "hex": "01000000026dc6cbb6e2532ae464d863744e6a0a6d5b31d74106efb79d9b9a08572e78326e010000006b483045022100c63e350401ea00cff02726b51e30ca99f0a8029afc1ea6fe66a7f5ce7fa2a7e102207d774d3c8b8e80c0c44ba1c22fea5a0e2e4897fa863f7750c23026e1e1be14ca012103a23af6c54f8edc5ec0e4af4e064912d19c5bf62024cd6eb2252d87f49b2d94b7ffffffff032334e1f040a9bf08fba503e885e409dad1c855a8a9bc81614427baa2b1f5c0000000006a47304402203c2d0fdb093fa291f856d17b29793b6fdd7922e2ebd9673431ac6da95a4e5594022078e2b9a7f6a4a02c21a1e7e6f9b1bcc85d05b8f3733ed0b66bcb2c10901900590121030fdd70ba01368c3c6660de0c14d5e1b7db11100a2ac4cfaa5686045b65eb1706ffffffff023c4e0200000000001976a914f5236f6c3b3e2be5f4d4ab00c78f387c681ea24088ac294e0e00000000001976a91433dc302f8c92febfa3d6b8b1f48c04e2eaa4e03e88ac00000000", "vin": [{"sequence": 4294967295, "scriptSig": {"hex": "483045022100c63e350401ea00cff02726b51e30ca99f0a8029afc1ea6fe66a7f5ce7fa2a7e102207d774d3c8b8e80c0c44ba1c22fea5a0e2e4897fa863f7750c23026e1e1be14ca012103a23af6c54f8edc5ec0e4af4e064912d19c5bf62024cd6eb2252d87f49b2d94b7", "asm": "3045022100c63e350401ea00cff02726b51e30ca99f0a8029afc1ea6fe66a7f5ce7fa2a7e102207d774d3c8b8e80c0c44ba1c22fea5a0e2e4897fa863f7750c23026e1e1be14ca[ALL] 03a23af6c54f8edc5ec0e4af4e064912d19c5bf62024cd6eb2252d87f49b2d94b7"}, "vout": 1, "txid": "6e32782e57089a9b9db7ef0641d7315b6d0a6a4e7463d864e42a53e2b6cbc66d"}, {"sequence": 4294967295, "scriptSig": {"hex": "47304402203c2d0fdb093fa291f856d17b29793b6fdd7922e2ebd9673431ac6da95a4e5594022078e2b9a7f6a4a02c21a1e7e6f9b1bcc85d05b8f3733ed0b66bcb2c10901900590121030fdd70ba01368c3c6660de0c14d5e1b7db11100a2ac4cfaa5686045b65eb1706", "asm": "304402203c2d0fdb093fa291f856d17b29793b6fdd7922e2ebd9673431ac6da95a4e5594022078e2b9a7f6a4a02c21a1e7e6f9b1bcc85d05b8f3733ed0b66bcb2c1090190059[ALL] 030fdd70ba01368c3c6660de0c14d5e1b7db11100a2ac4cfaa5686045b65eb1706"}, "vout": 0, "txid": "c0f5b1a2ba27446181bca9a855c8d1da09e485e803a5fb08bfa940f0e1342303"}], "txid": "20db81d4c54ec695deb6cdec4569c2311727a302053b463100aa455f78a16449", "blocktime": 1537873891, "version": 1, "confirmations": 11478, "time": 1537873891, "locktime": 0, "vsize": 373, "size": 373}