{"hash": "885a0ce608835b38ada16ce7ace7b9f5ba883de14866324434e73daba0cc4181", "blockhash": "0000000000000000001cda96e906b7601b7a6fb1a3b62bca570a9e5d8f4b3de1", "vout": [{"scriptPubKey": {"reqSigs": 1, "hex": "a9146aafaf5743817b3833702b43fa3ea4045467dad787", "addresses": ["3BR81gR5KG5gT3WMZtyVm7jJhonrwgrufW"], "asm": "OP_HASH160 6aafaf5743817b3833702b43fa3ea4045467dad7 OP_EQUAL", "type": "scripthash"}, "value": 0.02732692, "n": 0}], "hex": "010000000001019a6589f782cc25ab5349a6526eadfb8c298cb7bfae2385e90b7c4832a84230e001000000171600145d98dcbf656844608e99ba7f644ac8ecfb617dcbffffffff0194b229000000000017a9146aafaf5743817b3833702b43fa3ea4045467dad7870247304402202e127d72160fac2b79f627c9ced2315a55c6aab63455a68d1b62c02ab202d3e70220252fb6e6ac7e6abb2b04fc483aaa0a485ffce2f69034b28f31c2edc5193aaa690121033d30701541f905f71476f4b69b10ff0880bff4eb8610a2393e3c9212bbebcefb00000000", "vin": [{"txinwitness": ["304402202e127d72160fac2b79f627c9ced2315a55c6aab63455a68d1b62c02ab202d3e70220252fb6e6ac7e6abb2b04fc483aaa0a485ffce2f69034b28f31c2edc5193aaa6901", "033d30701541f905f71476f4b69b10ff0880bff4eb8610a2393e3c9212bbebcefb"], "sequence": 4294967295, "scriptSig": {"hex": "1600145d98dcbf656844608e99ba7f644ac8ecfb617dcb", "asm": "00145d98dcbf656844608e99ba7f644ac8ecfb617dcb"}, "vout": 1, "txid": "e03042a832487c0be98523aebfb78c298cfbad6e52a64953ab25cc82f789659a"}], "txid": "20dc2a37cab90df151f907a09d87d4419c369fe3fb0bd8b994c9156674cf20a3", "blocktime": 1537873282, "version": 1, "confirmations": 11485, "time": 1537873282, "locktime": 0, "vsize": 134, "size": 215}