{"hash": "cb2449fd072101fd8277456488b6b1c0943d96d65aef0460de26b5b017c917d7", "blockhash": "0000000000000000000baef3f32e3676a92c3b2e5da21b426e4f302fc371ce76", "vout": [{"scriptPubKey": {"reqSigs": 1, "hex": "76a914917bd3dd2e08a1445d2f17d025ba37d43f8f199988ac", "addresses": ["1EGFKWS5B3zR6jN49dhH4PcT2axPqmK8hw"], "asm": "OP_DUP OP_HASH160 917bd3dd2e08a1445d2f17d025ba37d43f8f1999 OP_EQUALVERIFY OP_CHECKSIG", "type": "pubkeyhash"}, "value": 0.0085, "n": 0}, {"scriptPubKey": {"reqSigs": 1, "hex": "a9140752971891531bd6da04e8ec9c1c113ace726f5187", "addresses": ["32MjbMaMSiGy1rfAEJUaHGHNAo2yhh8W1D"], "asm": "OP_HASH160 0752971891531bd6da04e8ec9c1c113ace726f51 OP_EQUAL", "type": "scripthash"}, "value": 2.22887219, "n": 1}], "hex": "02000000000101408bb62fc14a906337b8dc5fe58b1f79a0d2fa01ec60d3263ca5617c37b7709f0100000017160014a3136e3fa74b06e0f4a442790720982537c5945dfdffffff0250f80c00000000001976a914917bd3dd2e08a1445d2f17d025ba37d43f8f199988ac33fd480d0000000017a9140752971891531bd6da04e8ec9c1c113ace726f51870247304402207abadb044a83c5c968a387647c7cb6befed0d9e3c41dda758b6662afe136cfae0220531b69c9c109f87c707b463a406fff07169d3e95e88373bb05d6e2ff67c4b9b9012103c3752d5dd8945c1811dbb4a5b9f24e7f7bd2ab4542256b0dafe28ea7f8139bd416490800", "vin": [{"txinwitness": ["304402207abadb044a83c5c968a387647c7cb6befed0d9e3c41dda758b6662afe136cfae0220531b69c9c109f87c707b463a406fff07169d3e95e88373bb05d6e2ff67c4b9b901", "03c3752d5dd8945c1811dbb4a5b9f24e7f7bd2ab4542256b0dafe28ea7f8139bd4"], "sequence": 4294967293, "scriptSig": {"hex": "160014a3136e3fa74b06e0f4a442790720982537c5945d", "asm": "0014a3136e3fa74b06e0f4a442790720982537c5945d"}, "vout": 1, "txid": "9f70b7377c61a53c26d360ec01fad2a0791f8be55fdcb83763904ac12fb68b40"}], "txid": "20e17bab73140108647f859c96a4a7dc384c5b2c839ea7ad2096965d7e35821e", "blocktime": 1537876114, "version": 2, "confirmations": 11460, "time": 1537876114, "locktime": 542998, "vsize": 168, "size": 249}