{"hash": "20e3e3cc43af1ea650c9c00b5bda74dbf680b190e57487c580253438ceb2031f", "blockhash": "0000000000000000001e0dab787dd257d1dbfcb92a98c2207d5e1078be1f4165", "vout": [{"scriptPubKey": {"reqSigs": 1, "hex": "76a914b62bf1c100ab56e58084a3cab1330960fbc82b2888ac", "addresses": ["1HcEdDmiPNuWRCfa83MTGmUS4XUZXFsvVN"], "asm": "OP_DUP OP_HASH160 b62bf1c100ab56e58084a3cab1330960fbc82b28 OP_EQUALVERIFY OP_CHECKSIG", "type": "pubkeyhash"}, "value": 0.01408674, "n": 0}, {"scriptPubKey": {"reqSigs": 1, "hex": "76a91408057032b11fe9cd74aa2f754bec1bd6d528c5f688ac", "addresses": ["1jQvPmQTHSJQjkSFZHqA3aV6ky2uMmpp1"], "asm": "OP_DUP OP_HASH160 08057032b11fe9cd74aa2f754bec1bd6d528c5f6 OP_EQUALVERIFY OP_CHECKSIG", "type": "pubkeyhash"}, "value": 0.0203047, "n": 1}], "hex": "0100000001bce10ae8ed4efada877ddf590108eef48ff8b8a54e8c8dd97a88d0b9383fff08010000006a47304402202698dee54be3bcf5f65cbd33ff0e9278a71ce17b4a4739368803eadfdf8b1cf302205d7841d4320a635e3061300fd5eb01b84d310e6752c22fc72d7ce3daae0b873101210227c37aae8aad6440859dfb106dde4f7825edc0a59707937cb37ee6439077ebf8ffffffff02a27e1500000000001976a914b62bf1c100ab56e58084a3cab1330960fbc82b2888ac86fb1e00000000001976a91408057032b11fe9cd74aa2f754bec1bd6d528c5f688ac00000000", "vin": [{"sequence": 4294967295, "scriptSig": {"hex": "47304402202698dee54be3bcf5f65cbd33ff0e9278a71ce17b4a4739368803eadfdf8b1cf302205d7841d4320a635e3061300fd5eb01b84d310e6752c22fc72d7ce3daae0b873101210227c37aae8aad6440859dfb106dde4f7825edc0a59707937cb37ee6439077ebf8", "asm": "304402202698dee54be3bcf5f65cbd33ff0e9278a71ce17b4a4739368803eadfdf8b1cf302205d7841d4320a635e3061300fd5eb01b84d310e6752c22fc72d7ce3daae0b8731[ALL] 0227c37aae8aad6440859dfb106dde4f7825edc0a59707937cb37ee6439077ebf8"}, "vout": 1, "txid": "08ff3f38b9d0887ad98d8c4ea5b8f88ff4ee080159df7d87dafa4eede80ae1bc"}], "txid": "20e3e3cc43af1ea650c9c00b5bda74dbf680b190e57487c580253438ceb2031f", "blocktime": 1537872475, "version": 1, "confirmations": 11486, "time": 1537872475, "locktime": 0, "vsize": 225, "size": 225}