{"hash": "1d9b3dad18b81ffd7516d5a477ee8f00e39162ab699183ed02799226491a20dd", "blockhash": "0000000000000000001e0dab787dd257d1dbfcb92a98c2207d5e1078be1f4165", "vout": [{"scriptPubKey": {"reqSigs": 1, "hex": "a9141943ba35e2516ff727d3a593d1188be687dacc8887", "addresses": ["33zbx7xHyMfUTRVZTvDsE7s5GapGF2kvYJ"], "asm": "OP_HASH160 1943ba35e2516ff727d3a593d1188be687dacc88 OP_EQUAL", "type": "scripthash"}, "value": 0.06891, "n": 0}, {"scriptPubKey": {"reqSigs": 1, "hex": "76a914f073346f9429bb1659edf62ceba8e0256ba4127d88ac", "addresses": ["1NvPBcSZykAhEJPQrviNgtLrLcLby7c4yz"], "asm": "OP_DUP OP_HASH160 f073346f9429bb1659edf62ceba8e0256ba4127d OP_EQUALVERIFY OP_CHECKSIG", "type": "pubkeyhash"}, "value": 0.003, "n": 1}], "hex": "02000000000101ac3eded289152a251aa95672321e9f5da1ec2bf631d2affc333f05e63f5ac8e500000000171600147577c47a19c94d20ff3076ba8c9cded34eea38afffffffff02f82569000000000017a9141943ba35e2516ff727d3a593d1188be687dacc8887e0930400000000001976a914f073346f9429bb1659edf62ceba8e0256ba4127d88ac024830450221009c313dbb1f205f9ed6aa2b4121841befaece629f3a5df6f6bc88793bbb60170102206e9cb19e1756a29770efd9edd5d7cd0833a08e220928f0a79fe3dfb500ee53ab01210218b12dcae9764197f4be313076d27760d0b2df9984411c159f001cff3535d63500000000", "vin": [{"txinwitness": ["30450221009c313dbb1f205f9ed6aa2b4121841befaece629f3a5df6f6bc88793bbb60170102206e9cb19e1756a29770efd9edd5d7cd0833a08e220928f0a79fe3dfb500ee53ab01", "0218b12dcae9764197f4be313076d27760d0b2df9984411c159f001cff3535d635"], "sequence": 4294967295, "scriptSig": {"hex": "1600147577c47a19c94d20ff3076ba8c9cded34eea38af", "asm": "00147577c47a19c94d20ff3076ba8c9cded34eea38af"}, "vout": 0, "txid": "e5c85a3fe6053f33fcafd231f62beca15d9f1e327256a91a252a1589d2de3eac"}], "txid": "20ed807daa8e0b782fad4829e9987e57b93586434629745195bdc860f29a81fc", "blocktime": 1537872475, "version": 2, "confirmations": 11486, "time": 1537872475, "locktime": 0, "vsize": 168, "size": 250}