{"hash": "0a94c95f10bc974bb0555ef3ed4370ffc8470a04d80a0845a35c2c5e51af43a2", "blockhash": "000000000000000000022b45ed06c6f4ccd3cf7fb5ba4856ebd2e58215665228", "vout": [{"scriptPubKey": {"reqSigs": 1, "hex": "76a9148f8c51c7703803ba08ab1e55a5488d658dad347c88ac", "addresses": ["1E61iztLMN8yGsjorSzGpjjwnzsWrYnDLJ"], "asm": "OP_DUP OP_HASH160 8f8c51c7703803ba08ab1e55a5488d658dad347c OP_EQUALVERIFY OP_CHECKSIG", "type": "pubkeyhash"}, "value": 0.0039276, "n": 0}, {"scriptPubKey": {"reqSigs": 1, "hex": "a914173a1956469c83bad30158ac02f3192d94a5839087", "addresses": ["33oq4k4Y8JgW8zPspt84D2kgBMVpB1NLrC"], "asm": "OP_HASH160 173a1956469c83bad30158ac02f3192d94a58390 OP_EQUAL", "type": "scripthash"}, "value": 0.0100178, "n": 1}], "hex": "020000000001023203e8a45a1a2b1ebb3f0ffe0248bf1903b109ba3b66485f169cc67552339edd0000000017160014f84363ee1b7c6af479e3a7e2a8ff28ac4b48b8e6feffffff8ec7e8e12b54d0be2d93f5ba419c9b2b3f0e355ea4b8624ca5d1f6f3e798bc081000000017160014f405c9a29a84bcbeef36654bbaa88426f9ef33d8feffffff0238fe0500000000001976a9148f8c51c7703803ba08ab1e55a5488d658dad347c88ac34490f000000000017a914173a1956469c83bad30158ac02f3192d94a5839087024730440220754747bf2a8e8aa309a25208da8160e639945c5b4b483da5ef0bbb4cb013359502204948045b46c942700a47c1e8d67310518fb244ca66bcccbbc6906243637c027f012102825f36caf170b42ca1f55bfc814e0f5c11201b3a337233f8ffa9e55c18bb77c702483045022100f61f27ed4c88dedb7e64e3248579f25c87617937415d84e1985e7e92046551e202200917308db2a8fd8e9539aaf4106bb2eb374445a8d6a396562b8f9e8b5c74c27f012102f1f98049ed267c3af3d149e549908055c6cf4531d204cd7cc448a249c3b111cf0b490800", "vin": [{"txinwitness": ["30440220754747bf2a8e8aa309a25208da8160e639945c5b4b483da5ef0bbb4cb013359502204948045b46c942700a47c1e8d67310518fb244ca66bcccbbc6906243637c027f01", "02825f36caf170b42ca1f55bfc814e0f5c11201b3a337233f8ffa9e55c18bb77c7"], "sequence": 4294967294, "scriptSig": {"hex": "160014f84363ee1b7c6af479e3a7e2a8ff28ac4b48b8e6", "asm": "0014f84363ee1b7c6af479e3a7e2a8ff28ac4b48b8e6"}, "vout": 0, "txid": "dd9e335275c69c165f48663bba09b10319bf4802fe0f3fbb1e2b1a5aa4e80332"}, {"txinwitness": ["3045022100f61f27ed4c88dedb7e64e3248579f25c87617937415d84e1985e7e92046551e202200917308db2a8fd8e9539aaf4106bb2eb374445a8d6a396562b8f9e8b5c74c27f01", "02f1f98049ed267c3af3d149e549908055c6cf4531d204cd7cc448a249c3b111cf"], "sequence": 4294967294, "scriptSig": {"hex": "160014f405c9a29a84bcbeef36654bbaa88426f9ef33d8", "asm": "0014f405c9a29a84bcbeef36654bbaa88426f9ef33d8"}, "vout": 16, "txid": "08bc98e7f3f6d1a54c62b8a45e350e3f2b9b9c41baf5932dbed0542be1e8c78e"}], "txid": "20f670c64b33dfac39144f74f34abfec558bc0a462087d3a5e3fe82cf0277e5f", "blocktime": 1537869901, "version": 2, "confirmations": 11524, "time": 1537869901, "locktime": 542987, "vsize": 259, "size": 421}