{"hash": "20fa6059a60ef9cfbfd8a6d40263151f9bdc3fc5927aee174cd14984ba89ed30", "blockhash": "00000000000000000004ffacab907a6b429b9a5745fa0b75af4234bf69dd7176", "vout": [{"scriptPubKey": {"reqSigs": 1, "hex": "76a914d243e6abb9a60fbff430b421d2df4b7d59ec186088ac", "addresses": ["1LAnF8h3qMGx3TSwNUHVneBZUEpwE4gu3D"], "asm": "OP_DUP OP_HASH160 d243e6abb9a60fbff430b421d2df4b7d59ec1860 OP_EQUALVERIFY OP_CHECKSIG", "type": "pubkeyhash"}, "value": 0.00077314, "n": 0}, {"scriptPubKey": {"reqSigs": 1, "hex": "76a914d56c84fb662ea863e2a2c583d57d5427e8ba3a4488ac", "addresses": ["1LTUvvc5EpxMBN1EKiAXMqxt2WqKaUbtxR"], "asm": "OP_DUP OP_HASH160 d56c84fb662ea863e2a2c583d57d5427e8ba3a44 OP_EQUALVERIFY OP_CHECKSIG", "type": "pubkeyhash"}, "value": 5.46e-06, "n": 1}, {"scriptPubKey": {"type": "nulldata", "hex": "6a146f6d6e69000000000000001f000002ba6021cb00", "asm": "OP_RETURN 6f6d6e69000000000000001f000002ba6021cb00"}, "value": 0.0, "n": 2}], "hex": "0100000001151827789949ff67efbc34aaa928b6feb16af2cd370e0c14a01d7a6d8a18f45e000000006a47304402204d25862c77b0437ad59634c3775b2aa7cf656396fdfa5207d00ea89098a7adf30220667c5df115499ee4db0f86490445434d80440b5cfa66fc860c9b21d95298317b01210271977291b74f1f5f5c42157e8aae804664eaaeccfd097918450d37f28fb94d77ffffffff03022e0100000000001976a914d243e6abb9a60fbff430b421d2df4b7d59ec186088ac22020000000000001976a914d56c84fb662ea863e2a2c583d57d5427e8ba3a4488ac0000000000000000166a146f6d6e69000000000000001f000002ba6021cb0000000000", "vin": [{"sequence": 4294967295, "scriptSig": {"hex": "47304402204d25862c77b0437ad59634c3775b2aa7cf656396fdfa5207d00ea89098a7adf30220667c5df115499ee4db0f86490445434d80440b5cfa66fc860c9b21d95298317b01210271977291b74f1f5f5c42157e8aae804664eaaeccfd097918450d37f28fb94d77", "asm": "304402204d25862c77b0437ad59634c3775b2aa7cf656396fdfa5207d00ea89098a7adf30220667c5df115499ee4db0f86490445434d80440b5cfa66fc860c9b21d95298317b[ALL] 0271977291b74f1f5f5c42157e8aae804664eaaeccfd097918450d37f28fb94d77"}, "vout": 0, "txid": "5ef4188a6d7a1da0140c0e37cdf26ab1feb628a9aa34bcef67ff499978271815"}], "txid": "20fa6059a60ef9cfbfd8a6d40263151f9bdc3fc5927aee174cd14984ba89ed30", "blocktime": 1537875543, "version": 1, "confirmations": 11464, "time": 1537875543, "locktime": 0, "vsize": 256, "size": 256}