{"hash": "9c15383d533a9e382c314891c8f1a7f1dcac27c6b3805d0de08504c46720f580", "blockhash": "00000000000000000017f5eb5941039fbcee6240d03bc1f2f8e35350df66a1d8", "vout": [{"scriptPubKey": {"reqSigs": 1, "hex": "76a9140f8e4e78b07bffba5998374a9492b524ed4f8b7f88ac", "addresses": ["12RFcWVPPWg2ZnnDBsHZb223z3Vjdknb9r"], "asm": "OP_DUP OP_HASH160 0f8e4e78b07bffba5998374a9492b524ed4f8b7f OP_EQUALVERIFY OP_CHECKSIG", "type": "pubkeyhash"}, "value": 0.00078, "n": 0}, {"scriptPubKey": {"reqSigs": 1, "hex": "a91445262a4b26d9589c49214508178fee930927b0fe87", "addresses": ["37zeGYaZzRxYszqfJuN6R6jebarR3h7MSb"], "asm": "OP_HASH160 45262a4b26d9589c49214508178fee930927b0fe OP_EQUAL", "type": "scripthash"}, "value": 0.01050674, "n": 1}], "hex": "02000000000101194f906367e177ae144630b4b38a6265151a2d1d99e7a64fe2c5689febf5f2bd00000000171600149334f490ca63c6dd0e5977fb165f135b067d5b4dfeffffff02b0300100000000001976a9140f8e4e78b07bffba5998374a9492b524ed4f8b7f88ac320810000000000017a91445262a4b26d9589c49214508178fee930927b0fe8702483045022100baffafd381b146582c82b51c7e745772b35f9f780dea68f3f7ee5eedbcbaa6d00220285361c2faeaa74cde4846fa2d02f4f7f5353fca754e21fc1b1327b0a6bb23c5012103c40928ebd52936193cd64f1988f4dc42fb846e5758c315f752b27ce7d39ffe7c15490800", "vin": [{"txinwitness": ["3045022100baffafd381b146582c82b51c7e745772b35f9f780dea68f3f7ee5eedbcbaa6d00220285361c2faeaa74cde4846fa2d02f4f7f5353fca754e21fc1b1327b0a6bb23c501", "03c40928ebd52936193cd64f1988f4dc42fb846e5758c315f752b27ce7d39ffe7c"], "sequence": 4294967294, "scriptSig": {"hex": "1600149334f490ca63c6dd0e5977fb165f135b067d5b4d", "asm": "00149334f490ca63c6dd0e5977fb165f135b067d5b4d"}, "vout": 0, "txid": "bdf2f5eb9f68c5e24fa6e7991d2d1a1565628ab3b4304614ae77e16763904f19"}], "txid": "21027031634685a42d2660b25e6e6b83b87810dd7a037fb5d46d5ca4a4fd5c00", "blocktime": 1537874412, "version": 2, "confirmations": 11467, "time": 1537874412, "locktime": 542997, "vsize": 168, "size": 250}