{"hash": "2104b4d583760fecc7675763d4e891e4fa33f66b84ad0b366f1cb2e52e76b61e", "blockhash": "0000000000000000000dcc0f55137456b1a82d3642486a52398922ac4d620174", "vout": [{"scriptPubKey": {"reqSigs": 1, "hex": "76a914c9f524028a4543be8ccd4750069cc0acacf86a0d88ac", "addresses": ["1KQrVELAbKeizu9wxQsDa4QNvdBoAEVgd8"], "asm": "OP_DUP OP_HASH160 c9f524028a4543be8ccd4750069cc0acacf86a0d OP_EQUALVERIFY OP_CHECKSIG", "type": "pubkeyhash"}, "value": 0.00358685, "n": 0}, {"scriptPubKey": {"reqSigs": 1, "hex": "76a914d5d194e14aa40e61a5f04cc0469a36df6cc0a7a488ac", "addresses": ["1LVZzqqyB6zzsn3cB4p9v5XNTfcz7z5cEV"], "asm": "OP_DUP OP_HASH160 d5d194e14aa40e61a5f04cc0469a36df6cc0a7a4 OP_EQUALVERIFY OP_CHECKSIG", "type": "pubkeyhash"}, "value": 0.00366217, "n": 1}], "hex": "0100000001625b13806299bf9951a1ee01becf58e41eaee4348f65e2293d07e89c4ef726d1000000006a4730440220525594f62b84f1bd0478b623c47c9204018b4c6a0d6aa370f50a9e24b083b2dd022010bd2e6321f36b383c1995dbe2f63a3a62609ae249b7a7e8c948a913fcebdcff012102b376c91c920185b4547010e88066fe4dd7e2374c9d7ff606424b4c9dde5b26ccffffffff021d790500000000001976a914c9f524028a4543be8ccd4750069cc0acacf86a0d88ac89960500000000001976a914d5d194e14aa40e61a5f04cc0469a36df6cc0a7a488ac00000000", "vin": [{"sequence": 4294967295, "scriptSig": {"hex": "4730440220525594f62b84f1bd0478b623c47c9204018b4c6a0d6aa370f50a9e24b083b2dd022010bd2e6321f36b383c1995dbe2f63a3a62609ae249b7a7e8c948a913fcebdcff012102b376c91c920185b4547010e88066fe4dd7e2374c9d7ff606424b4c9dde5b26cc", "asm": "30440220525594f62b84f1bd0478b623c47c9204018b4c6a0d6aa370f50a9e24b083b2dd022010bd2e6321f36b383c1995dbe2f63a3a62609ae249b7a7e8c948a913fcebdcff[ALL] 02b376c91c920185b4547010e88066fe4dd7e2374c9d7ff606424b4c9dde5b26cc"}, "vout": 0, "txid": "d126f74e9ce8073d29e2658f34e4ae1ee458cfbe01eea15199bf996280135b62"}], "txid": "2104b4d583760fecc7675763d4e891e4fa33f66b84ad0b366f1cb2e52e76b61e", "blocktime": 1537870268, "version": 1, "confirmations": 11518, "time": 1537870268, "locktime": 0, "vsize": 225, "size": 225}