{"hash": "2108dce6f9f684d40910fb7eecd74e63b479dd1c39e4bc1524623460f8cd0370", "blockhash": "0000000000000000001cda96e906b7601b7a6fb1a3b62bca570a9e5d8f4b3de1", "vout": [{"scriptPubKey": {"reqSigs": 1, "hex": "76a914139d338917af7bc0e7152a34df5439d46da1894b88ac", "addresses": ["12niABdhpH25fVxujpp7zJaXD89GyiszSA"], "asm": "OP_DUP OP_HASH160 139d338917af7bc0e7152a34df5439d46da1894b OP_EQUALVERIFY OP_CHECKSIG", "type": "pubkeyhash"}, "value": 0.01106832, "n": 0}, {"scriptPubKey": {"reqSigs": 1, "hex": "76a914f7869268e4e223bda9b93c3b8b083e8d3a3c413388ac", "addresses": ["1PZo7bwzMqRphQoLHempoMNXVxVkkTPd1i"], "asm": "OP_DUP OP_HASH160 f7869268e4e223bda9b93c3b8b083e8d3a3c4133 OP_EQUALVERIFY OP_CHECKSIG", "type": "pubkeyhash"}, "value": 0.02, "n": 1}], "hex": "0100000001bdf1b020a576babe0390c9366dcb6b10f073a7fb1d87d010e16e75b2a2514c6d010000006a473044022077595b18aea15b62626f1edaaf81507751c36dad9bddb0d2e6ed600d75601c5b0220064b53a1e34b69c46fda95652b97dbd2e6cff2744ad0178c2749b156452a118e0121033bbf82ab734bdac624e5f840e66d4fc57da003065cfc402d8d63969a48a195e7feffffff0290e31000000000001976a914139d338917af7bc0e7152a34df5439d46da1894b88ac80841e00000000001976a914f7869268e4e223bda9b93c3b8b083e8d3a3c413388ac13490800", "vin": [{"sequence": 4294967294, "scriptSig": {"hex": "473044022077595b18aea15b62626f1edaaf81507751c36dad9bddb0d2e6ed600d75601c5b0220064b53a1e34b69c46fda95652b97dbd2e6cff2744ad0178c2749b156452a118e0121033bbf82ab734bdac624e5f840e66d4fc57da003065cfc402d8d63969a48a195e7", "asm": "3044022077595b18aea15b62626f1edaaf81507751c36dad9bddb0d2e6ed600d75601c5b0220064b53a1e34b69c46fda95652b97dbd2e6cff2744ad0178c2749b156452a118e[ALL] 033bbf82ab734bdac624e5f840e66d4fc57da003065cfc402d8d63969a48a195e7"}, "vout": 1, "txid": "6d4c51a2b2756ee110d0871dfba773f0106bcb6d36c99003beba76a520b0f1bd"}], "txid": "2108dce6f9f684d40910fb7eecd74e63b479dd1c39e4bc1524623460f8cd0370", "blocktime": 1537873282, "version": 1, "confirmations": 11485, "time": 1537873282, "locktime": 542995, "vsize": 225, "size": 225}