{"hash": "210c4206074ca40a191fafb5f8f6696c888e128bab229d797c4a230110092ad4", "blockhash": "0000000000000000000e13cef7c366c0283d82e591d1acd082e914b08063cdf1", "vout": [{"scriptPubKey": {"reqSigs": 1, "hex": "76a9147d7b05eddb57b062bfd39eb34246d765789c84d288ac", "addresses": ["1CSUqn7iQY7BHTRaEb9yxJLkXvab2mJzUM"], "asm": "OP_DUP OP_HASH160 7d7b05eddb57b062bfd39eb34246d765789c84d2 OP_EQUALVERIFY OP_CHECKSIG", "type": "pubkeyhash"}, "value": 0.03843183, "n": 0}, {"scriptPubKey": {"reqSigs": 1, "hex": "76a91444fc92c5986e0a6741192185f7b64a9c20ac1f5288ac", "addresses": ["17HmX9XFhVTEJtEhAnaf9CjVD9nw3MMrbC"], "asm": "OP_DUP OP_HASH160 44fc92c5986e0a6741192185f7b64a9c20ac1f52 OP_EQUALVERIFY OP_CHECKSIG", "type": "pubkeyhash"}, "value": 0.018569, "n": 1}], "hex": "01000000013a46e611289ab97fceae88e2cf073a0f410e4589389c1b1ca260f2bd7fc29cdf000000006a47304402202f6743bead93a17bb15848b4a2a12ee145701a66e77965be64f3288ce536581702204c95f5c271f1c90fa472f72bdd4c1bfe9564d91799edeb3f6189ed0392a30457012102cb8ca7e795833b803adee7572012eb3ee6ab21140c1ff6e6adb2b027a6462940ffffffff026fa43a00000000001976a9147d7b05eddb57b062bfd39eb34246d765789c84d288ac84551c00000000001976a91444fc92c5986e0a6741192185f7b64a9c20ac1f5288ac00000000", "vin": [{"sequence": 4294967295, "scriptSig": {"hex": "47304402202f6743bead93a17bb15848b4a2a12ee145701a66e77965be64f3288ce536581702204c95f5c271f1c90fa472f72bdd4c1bfe9564d91799edeb3f6189ed0392a30457012102cb8ca7e795833b803adee7572012eb3ee6ab21140c1ff6e6adb2b027a6462940", "asm": "304402202f6743bead93a17bb15848b4a2a12ee145701a66e77965be64f3288ce536581702204c95f5c271f1c90fa472f72bdd4c1bfe9564d91799edeb3f6189ed0392a30457[ALL] 02cb8ca7e795833b803adee7572012eb3ee6ab21140c1ff6e6adb2b027a6462940"}, "vout": 0, "txid": "df9cc27fbdf260a21c1b9c3889450e410f3a07cfe288aece7fb99a2811e6463a"}], "txid": "210c4206074ca40a191fafb5f8f6696c888e128bab229d797c4a230110092ad4", "blocktime": 1537871767, "version": 1, "confirmations": 11495, "time": 1537871767, "locktime": 0, "vsize": 225, "size": 225}