{"hash": "85ebedfeedf2c181bf8c7a6a23bb25d36b21c467fae9a0ed91e62740f5eb3afa", "blockhash": "0000000000000000000baef3f32e3676a92c3b2e5da21b426e4f302fc371ce76", "vout": [{"scriptPubKey": {"reqSigs": 1, "hex": "76a914a2938f807c30cebf165b5b037aeca1f7075511a888ac", "addresses": ["1FpdEmHgncrRWWQnMvtXz7dBCHxDm3MBHj"], "asm": "OP_DUP OP_HASH160 a2938f807c30cebf165b5b037aeca1f7075511a8 OP_EQUALVERIFY OP_CHECKSIG", "type": "pubkeyhash"}, "value": 0.02332413, "n": 0}, {"scriptPubKey": {"reqSigs": 1, "hex": "a914bc2f25a4888f0e74fe1753da275cfef850f73ace87", "addresses": ["3Jr3SSaMxksed58Q4MYEjsekd1xiYcEx2k"], "asm": "OP_HASH160 bc2f25a4888f0e74fe1753da275cfef850f73ace OP_EQUAL", "type": "scripthash"}, "value": 4.80483676, "n": 1}], "hex": "01000000000101f8e21b983259ff1eb823dfa4db2a43b07739267f0494650f64b24b1757ae1cf201000000171600144dd625c60be8078a2f2eb3d3c92a0afdb2590668ffffffff02fd962300000000001976a914a2938f807c30cebf165b5b037aeca1f7075511a888ac5c99a31c0000000017a914bc2f25a4888f0e74fe1753da275cfef850f73ace8702473044022100db69b136917f97417e2ee17df616ca2305b7bca46709a1971b04bf1b21a5ac9a021f4668fe870ce01bb0c42e8509ad788e769a88fdc261f5eaf1f052874cf91b6101210204a3beb2dd33672800195762b743afd63eaa87f10cfc760e1275c358ce163d1200000000", "vin": [{"txinwitness": ["3044022100db69b136917f97417e2ee17df616ca2305b7bca46709a1971b04bf1b21a5ac9a021f4668fe870ce01bb0c42e8509ad788e769a88fdc261f5eaf1f052874cf91b6101", "0204a3beb2dd33672800195762b743afd63eaa87f10cfc760e1275c358ce163d12"], "sequence": 4294967295, "scriptSig": {"hex": "1600144dd625c60be8078a2f2eb3d3c92a0afdb2590668", "asm": "00144dd625c60be8078a2f2eb3d3c92a0afdb2590668"}, "vout": 1, "txid": "f21cae57174bb2640f6594047f263977b0432adba4df23b81eff5932981be2f8"}], "txid": "210f2ff20b7083c9de73fe1ca7d2b8f373019447ee41e0ecd3d75fa275044ceb", "blocktime": 1537876114, "version": 1, "confirmations": 11460, "time": 1537876114, "locktime": 0, "vsize": 168, "size": 249}