{"hash": "21137261f0176fb94582927ef391b437265fff90ca7563bd9cbd947970674cc5", "blockhash": "00000000000000000017f5eb5941039fbcee6240d03bc1f2f8e35350df66a1d8", "vout": [{"scriptPubKey": {"reqSigs": 1, "hex": "a9141a611823ae3d400ddab5fd893dfdef850d5aa9c587", "addresses": ["346Vom6uM5pFQ4ktf3vKCBs2AqSngkDECi"], "asm": "OP_HASH160 1a611823ae3d400ddab5fd893dfdef850d5aa9c5 OP_EQUAL", "type": "scripthash"}, "value": 0.08837366, "n": 0}, {"scriptPubKey": {"reqSigs": 1, "hex": "76a9143733c14bd562cd4fbbb98e2557f2c67bea17bb0188ac", "addresses": ["162tAZDmP4qekrmbtEuXu6jqfeLiphZVpR"], "asm": "OP_DUP OP_HASH160 3733c14bd562cd4fbbb98e2557f2c67bea17bb01 OP_EQUALVERIFY OP_CHECKSIG", "type": "pubkeyhash"}, "value": 0.0013384, "n": 1}], "hex": "0100000001ecfbfc3452ae6b8e175a0ab1d5476436cd929c83bbc79d9c3ef84e7157ea44c7020000006a47304402206ad49e0eb7fd78d5b17af85458e879f2c6d5b1a74a8f75755a572b3b0a455a5202204b7119b291f09e69606e12943661ce55d2482983d6e1857646479d8627a0cb56012102aae3b8a3d8ec2392430e8c66e65382833a0f193398b83263fda46d2477c5bf07ffffffff02f6d886000000000017a9141a611823ae3d400ddab5fd893dfdef850d5aa9c587d00a0200000000001976a9143733c14bd562cd4fbbb98e2557f2c67bea17bb0188ac00000000", "vin": [{"sequence": 4294967295, "scriptSig": {"hex": "47304402206ad49e0eb7fd78d5b17af85458e879f2c6d5b1a74a8f75755a572b3b0a455a5202204b7119b291f09e69606e12943661ce55d2482983d6e1857646479d8627a0cb56012102aae3b8a3d8ec2392430e8c66e65382833a0f193398b83263fda46d2477c5bf07", "asm": "304402206ad49e0eb7fd78d5b17af85458e879f2c6d5b1a74a8f75755a572b3b0a455a5202204b7119b291f09e69606e12943661ce55d2482983d6e1857646479d8627a0cb56[ALL] 02aae3b8a3d8ec2392430e8c66e65382833a0f193398b83263fda46d2477c5bf07"}, "vout": 2, "txid": "c744ea57714ef83e9c9dc7bb839c92cd366447d5b10a5a178e6bae5234fcfbec"}], "txid": "21137261f0176fb94582927ef391b437265fff90ca7563bd9cbd947970674cc5", "blocktime": 1537874412, "version": 1, "confirmations": 11467, "time": 1537874412, "locktime": 0, "vsize": 223, "size": 223}