{"hash": "211428d12a66fdb8d8156b887306a3ad38a9cfb883c1dbc6e1f4914dfef637c8", "blockhash": "0000000000000000001f0ddff1eddb255c1121bcd4da4f1bc9a0da00cae72433", "vout": [{"scriptPubKey": {"reqSigs": 1, "hex": "76a914302245980fcbc5fa9ec668dea78856988b70081988ac", "addresses": ["15PWVTZD74skDTZ9gFquky9tuNbCc8jPPY"], "asm": "OP_DUP OP_HASH160 302245980fcbc5fa9ec668dea78856988b700819 OP_EQUALVERIFY OP_CHECKSIG", "type": "pubkeyhash"}, "value": 0.0002862, "n": 0}, {"scriptPubKey": {"reqSigs": 1, "hex": "76a914de6b3d10dada31b647be054518bf7055e4ab5d6988ac", "addresses": ["1MH3UejidwPgkrattY35GppvTQ1ejUdoEC"], "asm": "OP_DUP OP_HASH160 de6b3d10dada31b647be054518bf7055e4ab5d69 OP_EQUALVERIFY OP_CHECKSIG", "type": "pubkeyhash"}, "value": 0.01718806, "n": 1}], "hex": "0100000002d2ea5dd36bc2aeec64ea54684fb28dab83304ff9a6346df3860e3b5a9945c514010000006b48304502210087c921f6741c08b332f3efc9c8c2e261d9b1ca8309d9d3e51ef58060cac67cd00220407d39e8ae5c533249280d6f68311495464fd50d9356bf3568f018495f4f5fbe012102ab7dab4ea107c89e49c6ddd859d3ebcf3d292d74200f7ff1a9c0ecf559fa911affffffffdf2354b1177b6a57e6ff3478f743892c8ed303c029539b8bdb44961cc9b7c0b3010000006a47304402203370f16f44a0b8738e5eb41ca64b18db9c56e54fbc27d232a5b5310bb23423b002206fcd86c00af36515b2a75ac320c9d96be52d3c7e87766ea5bc9fbebf9c8ef4aa0121036b78d70e48d257e94b8b80eb3b6f0e95dc60624840ea3bb84cb7c5647f5b9178ffffffff02cc6f0000000000001976a914302245980fcbc5fa9ec668dea78856988b70081988ac163a1a00000000001976a914de6b3d10dada31b647be054518bf7055e4ab5d6988ac00000000", "vin": [{"sequence": 4294967295, "scriptSig": {"hex": "48304502210087c921f6741c08b332f3efc9c8c2e261d9b1ca8309d9d3e51ef58060cac67cd00220407d39e8ae5c533249280d6f68311495464fd50d9356bf3568f018495f4f5fbe012102ab7dab4ea107c89e49c6ddd859d3ebcf3d292d74200f7ff1a9c0ecf559fa911a", "asm": "304502210087c921f6741c08b332f3efc9c8c2e261d9b1ca8309d9d3e51ef58060cac67cd00220407d39e8ae5c533249280d6f68311495464fd50d9356bf3568f018495f4f5fbe[ALL] 02ab7dab4ea107c89e49c6ddd859d3ebcf3d292d74200f7ff1a9c0ecf559fa911a"}, "vout": 1, "txid": "14c545995a3b0e86f36d34a6f94f3083ab8db24f6854ea64ecaec26bd35dead2"}, {"sequence": 4294967295, "scriptSig": {"hex": "47304402203370f16f44a0b8738e5eb41ca64b18db9c56e54fbc27d232a5b5310bb23423b002206fcd86c00af36515b2a75ac320c9d96be52d3c7e87766ea5bc9fbebf9c8ef4aa0121036b78d70e48d257e94b8b80eb3b6f0e95dc60624840ea3bb84cb7c5647f5b9178", "asm": "304402203370f16f44a0b8738e5eb41ca64b18db9c56e54fbc27d232a5b5310bb23423b002206fcd86c00af36515b2a75ac320c9d96be52d3c7e87766ea5bc9fbebf9c8ef4aa[ALL] 036b78d70e48d257e94b8b80eb3b6f0e95dc60624840ea3bb84cb7c5647f5b9178"}, "vout": 1, "txid": "b3c0b7c91c9644db8b9b5329c003d38e2c8943f77834ffe6576a7b17b15423df"}], "txid": "211428d12a66fdb8d8156b887306a3ad38a9cfb883c1dbc6e1f4914dfef637c8", "blocktime": 1537872018, "version": 1, "confirmations": 11489, "time": 1537872018, "locktime": 0, "vsize": 373, "size": 373}