{"hash": "8e2b72acb26a8248c1e87a261787d8bf23f3b2b972856c499989007b68a82f44", "blockhash": "000000000000000000022b45ed06c6f4ccd3cf7fb5ba4856ebd2e58215665228", "vout": [{"scriptPubKey": {"reqSigs": 1, "hex": "76a91445c30f7293864a8b149b1093e230e6e13e96909288ac", "addresses": ["17MsJGTPVAGwYRP6mhugVZ5a3JZeYriesC"], "asm": "OP_DUP OP_HASH160 45c30f7293864a8b149b1093e230e6e13e969092 OP_EQUALVERIFY OP_CHECKSIG", "type": "pubkeyhash"}, "value": 0.0040466, "n": 0}, {"scriptPubKey": {"reqSigs": 1, "hex": "a914ad5fdd86a3d67ddcf05c490e9431839c98fdf38387", "addresses": ["3HVjfa48ZcBYBMstMs11Gk4VxUyqxqJVpy"], "asm": "OP_HASH160 ad5fdd86a3d67ddcf05c490e9431839c98fdf383 OP_EQUAL", "type": "scripthash"}, "value": 0.01000962, "n": 1}], "hex": "0200000000010224e28dd807a53ccdd477acf9049e7c01908d212f58c6982d1332828a2f1c55f10000000017160014c56ca9de5ad7c20fee0470e61f615a17866f053dfeffffffa3f64ac2a7e7bfbcbd6934954adeef6e66a9e0df0dff71b1ebcb4f61ca2fd203070000001716001443feb0abcc3997c04f22fb624bf86e000272d986feffffff02b42c0600000000001976a91445c30f7293864a8b149b1093e230e6e13e96909288ac02460f000000000017a914ad5fdd86a3d67ddcf05c490e9431839c98fdf3838702473044022042e21a433002c8ad0c0a889233666f1c170a2744c0f4a3b3b68fa68f4636526002205fe975bbd67a1020db46ba72135dc2b8ae943314f3f7491e3e79a8456f89fb2b012102a0ddc30dcf502798f2c7c8a18b84c87a2962f22ef388019d55773a8981e9e4f202473044022072e9088333ff20b338ff883678a5dd8b06a085bc74ac9e91d6bbad110c2b73a1022039aa3299e7f96bd17b4d54c25034d045d5ba3c2848506da8c1e091dd9aa2ad9e01210359e26082a9cebaf2e90eb54c9268d1c239b82a309aac1b123925a43404849c9b0b490800", "vin": [{"txinwitness": ["3044022042e21a433002c8ad0c0a889233666f1c170a2744c0f4a3b3b68fa68f4636526002205fe975bbd67a1020db46ba72135dc2b8ae943314f3f7491e3e79a8456f89fb2b01", "02a0ddc30dcf502798f2c7c8a18b84c87a2962f22ef388019d55773a8981e9e4f2"], "sequence": 4294967294, "scriptSig": {"hex": "160014c56ca9de5ad7c20fee0470e61f615a17866f053d", "asm": "0014c56ca9de5ad7c20fee0470e61f615a17866f053d"}, "vout": 0, "txid": "f1551c2f8a8232132d98c6582f218d90017c9e04f9ac77d4cd3ca507d88de224"}, {"txinwitness": ["3044022072e9088333ff20b338ff883678a5dd8b06a085bc74ac9e91d6bbad110c2b73a1022039aa3299e7f96bd17b4d54c25034d045d5ba3c2848506da8c1e091dd9aa2ad9e01", "0359e26082a9cebaf2e90eb54c9268d1c239b82a309aac1b123925a43404849c9b"], "sequence": 4294967294, "scriptSig": {"hex": "16001443feb0abcc3997c04f22fb624bf86e000272d986", "asm": "001443feb0abcc3997c04f22fb624bf86e000272d986"}, "vout": 7, "txid": "03d22fca614fcbebb171ff0ddfe0a9666eefde4a953469bdbcbfe7a7c24af6a3"}], "txid": "2115266378bb359a50bf68ae0b07d2a946eff6802c2416e1f95ddb1c62e8256f", "blocktime": 1537869901, "version": 2, "confirmations": 11524, "time": 1537869901, "locktime": 542987, "vsize": 258, "size": 420}