{"hash": "21166d5710c7dc464a0041fc7e9f5b337b28afe621b806d89970df5f6a9b8068", "blockhash": "00000000000000000018f53835495a110e01622372bf6ae95dc86f2b0ab887b0", "vout": [{"scriptPubKey": {"reqSigs": 1, "hex": "a9143c62e5a91612259a516f631962afa3f6b0eaa91587", "addresses": ["37CJwYamYuNi7duN6SUVRe8t3yp4PRibTQ"], "asm": "OP_HASH160 3c62e5a91612259a516f631962afa3f6b0eaa915 OP_EQUAL", "type": "scripthash"}, "value": 0.02, "n": 0}, {"scriptPubKey": {"reqSigs": 1, "hex": "76a914b86b86b1a0718c8730e35d8bfe0420885b2476ef88ac", "addresses": ["1Hp89LyzS1Am6wpuSM5HjHaLYLnCh4Tvrm"], "asm": "OP_DUP OP_HASH160 b86b86b1a0718c8730e35d8bfe0420885b2476ef OP_EQUALVERIFY OP_CHECKSIG", "type": "pubkeyhash"}, "value": 0.3259948, "n": 1}], "hex": "010000000174a609b0738353ec42e3584040bb8968c5e8f3ce3eb1a1fde3b48842960f0a88010000006b483045022100b2d5971a3af0de946d3dc9bf26c06fc8773df8722a51120167b7d07387322b6d0220050a9ac8b81735d95894967e4bb9760d9775c557a318328c9110077af0e23bf70121030c792a88aec36b6e4d9c0e3e68c4699029a6a1d958cbacd343c06ede9a3d77a7ffffffff0280841e000000000017a9143c62e5a91612259a516f631962afa3f6b0eaa91587b86df101000000001976a914b86b86b1a0718c8730e35d8bfe0420885b2476ef88ac00000000", "vin": [{"sequence": 4294967295, "scriptSig": {"hex": "483045022100b2d5971a3af0de946d3dc9bf26c06fc8773df8722a51120167b7d07387322b6d0220050a9ac8b81735d95894967e4bb9760d9775c557a318328c9110077af0e23bf70121030c792a88aec36b6e4d9c0e3e68c4699029a6a1d958cbacd343c06ede9a3d77a7", "asm": "3045022100b2d5971a3af0de946d3dc9bf26c06fc8773df8722a51120167b7d07387322b6d0220050a9ac8b81735d95894967e4bb9760d9775c557a318328c9110077af0e23bf7[ALL] 030c792a88aec36b6e4d9c0e3e68c4699029a6a1d958cbacd343c06ede9a3d77a7"}, "vout": 1, "txid": "880a0f964288b4e3fda1b13ecef3e8c56889bb404058e342ec538373b009a674"}], "txid": "21166d5710c7dc464a0041fc7e9f5b337b28afe621b806d89970df5f6a9b8068", "blocktime": 1537870928, "version": 1, "confirmations": 11512, "time": 1537870928, "locktime": 0, "vsize": 224, "size": 224}