{"hash": "211adab3fb56e23ff861c2b4916b7f02233f5b071a322fd0cf33c5dfbd9762c3", "blockhash": "0000000000000000000dcc0f55137456b1a82d3642486a52398922ac4d620174", "vout": [{"scriptPubKey": {"reqSigs": 1, "hex": "76a91478a8ed2111f862ea9085fe050416fca2ba946ad488ac", "addresses": ["1BzzTDyj4pWVC9463quHVQsWo4cFSyjm4b"], "asm": "OP_DUP OP_HASH160 78a8ed2111f862ea9085fe050416fca2ba946ad4 OP_EQUALVERIFY OP_CHECKSIG", "type": "pubkeyhash"}, "value": 0.29401713, "n": 0}, {"scriptPubKey": {"reqSigs": 1, "hex": "a914b5d9de4c90488e878a13fdbd25f83f689229830487", "addresses": ["3JGZE2LKZvQAWW7JkfRFU91YVyJB5zXtyo"], "asm": "OP_HASH160 b5d9de4c90488e878a13fdbd25f83f6892298304 OP_EQUAL", "type": "scripthash"}, "value": 4.17, "n": 1}], "hex": "01000000025127941a171e5e786fbc9beea0582037b7ea8ccabad9920f3163f19fa06e611e000000006a47304402203b471692ff29a4df34ab0a022437022a3eee7a0234d8085fd045bd5bb9df9aef02207a867666b8b6c10a94cb0b24b725e0a51919862e7fb6a5fc3f8b9854acb079b8012102fbbe17b579bda496f18c7b3e2a357e149d92e67c9a1f0739ee0d8cfba7902651ffffffff7088f0616e086de830f646018e5289bc04fda981f26bda11f03581273643036b010000006a4730440220555a86b9f0efee8acecff9a44a2ae1584c338861ae201de593d53c9764a76d94022009e3220eb15c0614a6a93972cb30fbdd143844990b232b726238812b9e7640ff012103f5c97a23477bcda37b06057b09ce0cb5392fd46793d281be5b3ba6d0702196d1ffffffff0271a2c001000000001976a91478a8ed2111f862ea9085fe050416fca2ba946ad488ac40eada180000000017a914b5d9de4c90488e878a13fdbd25f83f68922983048700000000", "vin": [{"sequence": 4294967295, "scriptSig": {"hex": "47304402203b471692ff29a4df34ab0a022437022a3eee7a0234d8085fd045bd5bb9df9aef02207a867666b8b6c10a94cb0b24b725e0a51919862e7fb6a5fc3f8b9854acb079b8012102fbbe17b579bda496f18c7b3e2a357e149d92e67c9a1f0739ee0d8cfba7902651", "asm": "304402203b471692ff29a4df34ab0a022437022a3eee7a0234d8085fd045bd5bb9df9aef02207a867666b8b6c10a94cb0b24b725e0a51919862e7fb6a5fc3f8b9854acb079b8[ALL] 02fbbe17b579bda496f18c7b3e2a357e149d92e67c9a1f0739ee0d8cfba7902651"}, "vout": 0, "txid": "1e616ea09ff163310f92d9baca8ceab7372058a0ee9bbc6f785e1e171a942751"}, {"sequence": 4294967295, "scriptSig": {"hex": "4730440220555a86b9f0efee8acecff9a44a2ae1584c338861ae201de593d53c9764a76d94022009e3220eb15c0614a6a93972cb30fbdd143844990b232b726238812b9e7640ff012103f5c97a23477bcda37b06057b09ce0cb5392fd46793d281be5b3ba6d0702196d1", "asm": "30440220555a86b9f0efee8acecff9a44a2ae1584c338861ae201de593d53c9764a76d94022009e3220eb15c0614a6a93972cb30fbdd143844990b232b726238812b9e7640ff[ALL] 03f5c97a23477bcda37b06057b09ce0cb5392fd46793d281be5b3ba6d0702196d1"}, "vout": 1, "txid": "6b034336278135f011da6bf281a9fd04bc89528e0146f630e86d086e61f08870"}], "txid": "211adab3fb56e23ff861c2b4916b7f02233f5b071a322fd0cf33c5dfbd9762c3", "blocktime": 1537870268, "version": 1, "confirmations": 11516, "time": 1537870268, "locktime": 0, "vsize": 370, "size": 370}