{"hash": "211d521d943f930c5b8b8fa0ddbcc92ec44b56aabf84dd0502793fc039b6f542", "blockhash": "00000000000000000024a2167bbff67b0be802c0b01cdd79e6331c2be6459f87", "vout": [{"scriptPubKey": {"reqSigs": 1, "hex": "76a9142f99ec3d9bc5a148a6d82c9470ab39d34024247c88ac", "addresses": ["15Lh9m836soRnFCrF6kSPRttYZXjFPED86"], "asm": "OP_DUP OP_HASH160 2f99ec3d9bc5a148a6d82c9470ab39d34024247c OP_EQUALVERIFY OP_CHECKSIG", "type": "pubkeyhash"}, "value": 0.19271112, "n": 0}], "hex": "010000000187b45f9b357b7473592a1c74e25b0ce1635621df5a2da761a80e3435cad88fbf000000006b483045022100ecbfbc12e59b8b9937de144bdffb4bc49f8edba4498fb746c00f975cb800bfc202207f8e9dad49ba9c269d28ed805059968bb436dc29d97482b1582e977002342eb0012102aa4225e5b1791d1f107c59db8aa71446b9324f810dd4f6c01367073c31eec477ffffffff01c80d2601000000001976a9142f99ec3d9bc5a148a6d82c9470ab39d34024247c88ac00000000", "vin": [{"sequence": 4294967295, "scriptSig": {"hex": "483045022100ecbfbc12e59b8b9937de144bdffb4bc49f8edba4498fb746c00f975cb800bfc202207f8e9dad49ba9c269d28ed805059968bb436dc29d97482b1582e977002342eb0012102aa4225e5b1791d1f107c59db8aa71446b9324f810dd4f6c01367073c31eec477", "asm": "3045022100ecbfbc12e59b8b9937de144bdffb4bc49f8edba4498fb746c00f975cb800bfc202207f8e9dad49ba9c269d28ed805059968bb436dc29d97482b1582e977002342eb0[ALL] 02aa4225e5b1791d1f107c59db8aa71446b9324f810dd4f6c01367073c31eec477"}, "vout": 0, "txid": "bf8fd8ca35340ea861a72d5adf215663e10c5be2741c2a5973747b359b5fb487"}], "txid": "211d521d943f930c5b8b8fa0ddbcc92ec44b56aabf84dd0502793fc039b6f542", "blocktime": 1537870564, "version": 1, "confirmations": 11515, "time": 1537870564, "locktime": 0, "vsize": 192, "size": 192}