{"hash": "cc4b77e7da00857c8a62d4cc9d66142611f06d2a32d6c7474fe5952da189b1e7", "blockhash": "0000000000000000000e13cef7c366c0283d82e591d1acd082e914b08063cdf1", "vout": [{"scriptPubKey": {"reqSigs": 1, "hex": "a91485380b2532720d000a2b263953253cd36bb2d1b887", "addresses": ["3DqQw2iRByPj2mCwp9S5Sjti1uT2weNEtg"], "asm": "OP_HASH160 85380b2532720d000a2b263953253cd36bb2d1b8 OP_EQUAL", "type": "scripthash"}, "value": 0.00128518, "n": 0}, {"scriptPubKey": {"reqSigs": 1, "hex": "76a9142c3e78b82eee794c1be9c3fb7b6fdc4b33e0864888ac", "addresses": ["152wa3Mkg2cKoubamhrDh5rTj7eiNkMmg6"], "asm": "OP_DUP OP_HASH160 2c3e78b82eee794c1be9c3fb7b6fdc4b33e08648 OP_EQUALVERIFY OP_CHECKSIG", "type": "pubkeyhash"}, "value": 0.00041108, "n": 1}, {"scriptPubKey": {"reqSigs": 1, "hex": "a914412169b25d8b645439bd6486a604e6812b13908587", "addresses": ["37dPsac13cL1EmJm6A3DrYwTxN5C6DStgQ"], "asm": "OP_HASH160 412169b25d8b645439bd6486a604e6812b139085 OP_EQUAL", "type": "scripthash"}, "value": 0.0258749, "n": 2}, {"scriptPubKey": {"reqSigs": 1, "hex": "76a914c6fb8f7b107da5730965ce6cc9a44a9947cdb6c088ac", "addresses": ["1K989iCpXMuwg53TyPuD8fmwJKij6qvEpi"], "asm": "OP_DUP OP_HASH160 c6fb8f7b107da5730965ce6cc9a44a9947cdb6c0 OP_EQUALVERIFY OP_CHECKSIG", "type": "pubkeyhash"}, "value": 0.000655, "n": 3}, {"scriptPubKey": {"reqSigs": 1, "hex": "a9141ef02af865c97eaab8223d3e13f53f195e37a07b87", "addresses": ["34WbuTGEW6jGKh73ouEuWm2byX2vbpfpSY"], "asm": "OP_HASH160 1ef02af865c97eaab8223d3e13f53f195e37a07b OP_EQUAL", "type": "scripthash"}, "value": 0.00053487, "n": 4}, {"scriptPubKey": {"reqSigs": 1, "hex": "76a9147e1874ee8a2088b692a66baf7692a643f96ec39d88ac", "addresses": ["1CVjSTUUaixtf7o2c52FSg3PiXdgcSe7V3"], "asm": "OP_DUP OP_HASH160 7e1874ee8a2088b692a66baf7692a643f96ec39d OP_EQUALVERIFY OP_CHECKSIG", "type": "pubkeyhash"}, "value": 0.001486, "n": 5}, {"scriptPubKey": {"reqSigs": 1, "hex": "76a914aff62a39715de3168ab37813a36f60bea8188f8b88ac", "addresses": ["1H3Q9QnhVQnTegXcpGtNuryDeN7U9AFM5D"], "asm": "OP_DUP OP_HASH160 aff62a39715de3168ab37813a36f60bea8188f8b OP_EQUALVERIFY OP_CHECKSIG", "type": "pubkeyhash"}, "value": 0.00055379, "n": 6}, {"scriptPubKey": {"reqSigs": 1, "hex": "76a9142756f4a2ace305551d1668ce4338471ab31caf8388ac", "addresses": ["14b1XGFPCLgkgTTCvF8TMicQihAWcsJqBV"], "asm": "OP_DUP OP_HASH160 2756f4a2ace305551d1668ce4338471ab31caf83 OP_EQUALVERIFY OP_CHECKSIG", "type": "pubkeyhash"}, "value": 0.00052756, "n": 7}, {"scriptPubKey": {"reqSigs": 1, "hex": "76a914636373f73cae230cae167d203d78a8029f2591ee88ac", "addresses": ["1A4X37ADgdv4R1xVpz6yer7XqMx6Hmi6YC"], "asm": "OP_DUP OP_HASH160 636373f73cae230cae167d203d78a8029f2591ee OP_EQUALVERIFY OP_CHECKSIG", "type": "pubkeyhash"}, "value": 0.00051334, "n": 8}, {"scriptPubKey": {"reqSigs": 1, "hex": "a914706b9c73d47625b7643d587f9c940db2de8c532c87", "addresses": ["3BwSWyukp72jRcn3iNvW6EogJFKV2grSft"], "asm": "OP_HASH160 706b9c73d47625b7643d587f9c940db2de8c532c OP_EQUAL", "type": "scripthash"}, "value": 0.0008026, "n": 9}, {"scriptPubKey": {"reqSigs": 1, "hex": "a9149228be3c51f9bc75d020a41009a7e0715b7d7fe487", "addresses": ["3F1qPRzhXFuKMabFCQv5FCnE1tDuZxceeo"], "asm": "OP_HASH160 9228be3c51f9bc75d020a41009a7e0715b7d7fe4 OP_EQUAL", "type": "scripthash"}, "value": 0.0020241, "n": 10}, {"scriptPubKey": {"reqSigs": 1, "hex": "a9145c5c8d6b40bcdeeb1b6a3a2097f297a1cfa13a9a87", "addresses": ["3A7Nxr59j8jbQiVSCC2GrzVeLvKuA9S41e"], "asm": "OP_HASH160 5c5c8d6b40bcdeeb1b6a3a2097f297a1cfa13a9a OP_EQUAL", "type": "scripthash"}, "value": 0.00068993, "n": 11}, {"scriptPubKey": {"reqSigs": 1, "hex": "76a91433d06c1085d7256d542ef6c030b49277765f59ca88ac", "addresses": ["15iy9Cz536pz3TdeZVpjroTNzuAb5K95Gm"], "asm": "OP_DUP OP_HASH160 33d06c1085d7256d542ef6c030b49277765f59ca OP_EQUALVERIFY OP_CHECKSIG", "type": "pubkeyhash"}, "value": 0.00246841, "n": 12}, {"scriptPubKey": {"reqSigs": 1, "hex": "76a91487c5dc39662a9d9922b4835d7e04ccd7f430805c88ac", "addresses": ["1DNuFUAWxXfACHhrpNGbdAHSZuXNZGc3vP"], "asm": "OP_DUP OP_HASH160 87c5dc39662a9d9922b4835d7e04ccd7f430805c OP_EQUALVERIFY OP_CHECKSIG", "type": "pubkeyhash"}, "value": 0.00041144, "n": 13}, {"scriptPubKey": {"reqSigs": 1, "hex": "a91479e852a3a4f297663a21f6060e57d4000ea40b7687", "addresses": ["3CobzpvNyKhQgbqyyse5o3Z7g1vHpt9F2W"], "asm": "OP_HASH160 79e852a3a4f297663a21f6060e57d4000ea40b76 OP_EQUAL", "type": "scripthash"}, "value": 0.00043, "n": 14}, {"scriptPubKey": {"reqSigs": 1, "hex": "76a91442163211149cc7a73148be1246ffb3be8771edeb88ac", "addresses": ["172SBqWCJ4Vo17wxkU7pdEmtDSiKYLhETH"], "asm": "OP_DUP OP_HASH160 42163211149cc7a73148be1246ffb3be8771edeb OP_EQUALVERIFY OP_CHECKSIG", "type": "pubkeyhash"}, "value": 0.00118743, "n": 15}, {"scriptPubKey": {"reqSigs": 1, "hex": "002092f79fba759ed7d1428723c5c11d026167a26b81748d2944ad3a30bd5048dd00", "addresses": ["bc1qjtmelwn4nmtazs58y0zuz8gzv9n6y6upwjxjj39d8gct65zgm5qqmsw364"], "asm": "0 92f79fba759ed7d1428723c5c11d026167a26b81748d2944ad3a30bd5048dd00", "type": "witness_v0_scripthash"}, "value": 0.34028639, "n": 16}], "hex": "01000000000101095689ee7a8302e3d07ed2c96a1b39c9c53cee7725faf0c9ef5be0e7915081cf0f00000000ffffffff1106f601000000000017a91485380b2532720d000a2b263953253cd36bb2d1b88794a00000000000001976a9142c3e78b82eee794c1be9c3fb7b6fdc4b33e0864888ac627b27000000000017a914412169b25d8b645439bd6486a604e6812b13908587dcff0000000000001976a914c6fb8f7b107da5730965ce6cc9a44a9947cdb6c088acefd000000000000017a9141ef02af865c97eaab8223d3e13f53f195e37a07b8778440200000000001976a9147e1874ee8a2088b692a66baf7692a643f96ec39d88ac53d80000000000001976a914aff62a39715de3168ab37813a36f60bea8188f8b88ac14ce0000000000001976a9142756f4a2ace305551d1668ce4338471ab31caf8388ac86c80000000000001976a914636373f73cae230cae167d203d78a8029f2591ee88ac843901000000000017a914706b9c73d47625b7643d587f9c940db2de8c532c87aa1603000000000017a9149228be3c51f9bc75d020a41009a7e0715b7d7fe487810d01000000000017a9145c5c8d6b40bcdeeb1b6a3a2097f297a1cfa13a9a8739c40300000000001976a91433d06c1085d7256d542ef6c030b49277765f59ca88acb8a00000000000001976a91487c5dc39662a9d9922b4835d7e04ccd7f430805c88acf8a700000000000017a91479e852a3a4f297663a21f6060e57d4000ea40b7687d7cf0100000000001976a91442163211149cc7a73148be1246ffb3be8771edeb88ac5f3c07020000000022002092f79fba759ed7d1428723c5c11d026167a26b81748d2944ad3a30bd5048dd000400473044022016463909aa9178f42c1334fbba049d1321acb774b39d0640505544c9dbbec157022076f2323b9aa0d9408569dc1461e5501032c620dbcd8b19861c220a2b3a6eb18101473044022039ec22101def2aea6f0f5549cbe053ef88e97a592cf7d15ef301315aad99209902202207975fadf1985b0d22c36839ee625faa884466e50870a44b9978d05f269bd20147522102cdd42f879c9f408180a9d58607747c0d541379fbffb159094d701288a8b135d82102feb2538477491cdc4444e23b87d6dd3aa4c5bee60460a51c45380f14080f3f5952ae00000000", "vin": [{"txinwitness": ["", "3044022016463909aa9178f42c1334fbba049d1321acb774b39d0640505544c9dbbec157022076f2323b9aa0d9408569dc1461e5501032c620dbcd8b19861c220a2b3a6eb18101", "3044022039ec22101def2aea6f0f5549cbe053ef88e97a592cf7d15ef301315aad99209902202207975fadf1985b0d22c36839ee625faa884466e50870a44b9978d05f269bd201", "522102cdd42f879c9f408180a9d58607747c0d541379fbffb159094d701288a8b135d82102feb2538477491cdc4444e23b87d6dd3aa4c5bee60460a51c45380f14080f3f5952ae"], "sequence": 4294967295, "scriptSig": {"hex": "", "asm": ""}, "vout": 15, "txid": "cf815091e7e05befc9f0fa2577ee3cc5c9391b6ac9d27ed0e302837aee895609"}], "txid": "2124dd590043e0b46463bee453c970086e0499be6eca7549daec1f6803cb9e45", "blocktime": 1537871767, "version": 1, "confirmations": 11495, "time": 1537871767, "locktime": 0, "vsize": 679, "size": 844}