{"hash": "2126ffcb0dce1611e467b43abc0a45b5e5d5d63bc63941cf9849a104391f2231", "blockhash": "00000000000000000004ffacab907a6b429b9a5745fa0b75af4234bf69dd7176", "vout": [{"scriptPubKey": {"reqSigs": 1, "hex": "76a9147b9edb45027b764726cd453e53391a606a2ba7d088ac", "addresses": ["1CGeR97Cdvr7H4mZ93N24y6EoYEJGg8q9N"], "asm": "OP_DUP OP_HASH160 7b9edb45027b764726cd453e53391a606a2ba7d0 OP_EQUALVERIFY OP_CHECKSIG", "type": "pubkeyhash"}, "value": 2.427e-05, "n": 0}, {"scriptPubKey": {"reqSigs": 1, "hex": "76a914ede124286996e84133bdbaf540fedc824054dad788ac", "addresses": ["1NgnrYzKJv86g4KokiaEDWvEjHaxm6UJM7"], "asm": "OP_DUP OP_HASH160 ede124286996e84133bdbaf540fedc824054dad7 OP_EQUALVERIFY OP_CHECKSIG", "type": "pubkeyhash"}, "value": 0.03021758, "n": 1}], "hex": "0100000001c47b243462d8c92bb372f1fb791d9bb22622e75daef5ffcd83b66345fe78c479010000006b483045022100d4823418e83cf0b192454016e548c4f5a5ce9fb9191d6739ceba7dbed81bf332022038640a9fd014bf3c7861275acd216885c0a19af7192d6512766a223b9c1636500121039ae236538668992d921ad52999d22bc27bb3d837220f54d58b9d4a6858f7dad6ffffffff027b090000000000001976a9147b9edb45027b764726cd453e53391a606a2ba7d088acbe1b2e00000000001976a914ede124286996e84133bdbaf540fedc824054dad788ac00000000", "vin": [{"sequence": 4294967295, "scriptSig": {"hex": "483045022100d4823418e83cf0b192454016e548c4f5a5ce9fb9191d6739ceba7dbed81bf332022038640a9fd014bf3c7861275acd216885c0a19af7192d6512766a223b9c1636500121039ae236538668992d921ad52999d22bc27bb3d837220f54d58b9d4a6858f7dad6", "asm": "3045022100d4823418e83cf0b192454016e548c4f5a5ce9fb9191d6739ceba7dbed81bf332022038640a9fd014bf3c7861275acd216885c0a19af7192d6512766a223b9c163650[ALL] 039ae236538668992d921ad52999d22bc27bb3d837220f54d58b9d4a6858f7dad6"}, "vout": 1, "txid": "79c478fe4563b683cdfff5ae5de72226b29b1d79fbf172b32bc9d86234247bc4"}], "txid": "2126ffcb0dce1611e467b43abc0a45b5e5d5d63bc63941cf9849a104391f2231", "blocktime": 1537875543, "version": 1, "confirmations": 11464, "time": 1537875543, "locktime": 0, "vsize": 226, "size": 226}