{"hash": "212729b8a57ff86ddbb0de58551633f477f6942144e0c4e8bd0c105adcae8c0c", "blockhash": "0000000000000000000e13cef7c366c0283d82e591d1acd082e914b08063cdf1", "vout": [{"scriptPubKey": {"reqSigs": 1, "hex": "76a914007451a11e6fd5b2c5c356d0799f5b36d7ae28ad88ac", "addresses": ["113QLyddufMFkrdxT4QSLV2xR3c5CtPQNn"], "asm": "OP_DUP OP_HASH160 007451a11e6fd5b2c5c356d0799f5b36d7ae28ad OP_EQUALVERIFY OP_CHECKSIG", "type": "pubkeyhash"}, "value": 0.00011948, "n": 0}, {"scriptPubKey": {"reqSigs": 1, "hex": "76a9144909a4f5f8de6d733db278fe44f1fdc4920f3b7c88ac", "addresses": ["17fBt7CAmP2M3zmAajgexYbB3BzDQAyJMS"], "asm": "OP_DUP OP_HASH160 4909a4f5f8de6d733db278fe44f1fdc4920f3b7c OP_EQUALVERIFY OP_CHECKSIG", "type": "pubkeyhash"}, "value": 0.01560785, "n": 1}], "hex": "0100000009c94cc98675e64b969fc0de7a8559b9d6406a0a12281e7dcbc18b4d31afb4ec3d000000006a4730440220608eed2c558712922f91ed494074d251967f7eb8712d9ec3bdc1a77cd2e761ae022041fffc262490cc7f295d2b01e2ecbc36cb797fd1f1f37989f2aa204fa9043ebb0121031db102ca35de079ffb366c921c4b49e8b06c035444713951a5d902b662682d7effffffff9b970cefaa9d05b73a6cadde21fa1d9993595edcc633a439b1764b349ee97c4b000000006a4730440220330d3497e0b8ead44953352a0b68562033ab67600a2078e16b395dc135d81abb02207741447057ed2d1bba8a3e318621ffdbab9fe18f48811d9e5b96d82c7036c6740121039400c91e59e54ae650ad253f9a5ebc022d9d0ec1690eebacba3c252282aa6585ffffffff26523aeda31a8b4d6bac54570c2eb7dad9d696a4800456d04f5a7cfe5a073958000000006a473044022064109102d67f8938730556d4fc26254e0002e08c4169fce28709f66a6180c22f0220508c1ec92f07625f20ca306fbe450a55a234e08304534260fc31dce261b6198b012103b844c8126219f02f5c328396b0984ee43d4a124da374a7437ee4c428bbe31052ffffffffe8a7ee86f6f44ab0740bea228b37b02201e90dd37359ef79bf9d013d2763ec99000000006a473044022056d09a432cbb6f2eb14dcf20e4b2d6ad4ad0d6390c42db1cae94380598e7ed5b022019e15be7773f9480286f54bfb5215b62839f6e160f79041a45c92c80e1be9b16012103b844c8126219f02f5c328396b0984ee43d4a124da374a7437ee4c428bbe31052ffffffffe0611ddad1872c2a1d9b58de96a575e73b8df42f1eb5e6b590cf438c6705cca6000000006a47304402206255674f1a686090365d604edc25416afbd4a8e46342230672636ad03365b22b022006600f6a4a8b987181c75e201fd902908c506b60ed370db62c1293eaae26a5db012103f05063d75238be355ddf0205f716b9c70b926c93b96c37ca4b014725aabf2287ffffffff963d5182e6b86b23fd5785f4a4006fb1a872dbed4807b2bf5d91772966779ea7000000006a47304402205509752c1af51b93ee0fdf508660ce33143b82a91487f702957b4bfbd2dde458022032f687af1c03accc65ecec61fd73b570d6627ed0b37d3b81ea25300e0b51f488012103b3daad898b6060fad50c4c77fde5c8fb7ab75ca5ddb3986f50dee42af2ca5af5ffffffff9e12376887e9ac33a4f83d7ba8f2d10d7a2287abda28f212021db0215c01eaad000000006b483045022100bb059b1256168112ed0c9ae169a60c548b2599d7a09fb980a469eca476cb3d8302200e9c2e063b852315d65477f495d198d6f9fda8ab9634f196881ef9e73e03e29a0121039400c91e59e54ae650ad253f9a5ebc022d9d0ec1690eebacba3c252282aa6585ffffffff5fac68d101b3465da2419bafe8c77e5f965b82735b63f87a32df50f18e67a6cf000000006b4830450221009f5e37c0b71ce9e5f8dfba7eefa5bf3569eaf93d75c2f21037b27a298c03451a0220471f10b4dcb6b04b4b41711e0c38707dfbcc638fbd2801fc0d372d38c48bf68b012103f05063d75238be355ddf0205f716b9c70b926c93b96c37ca4b014725aabf2287ffffffffd3a9eb1efbed5f9cd9367adc9a00e8c61d46c657d79515a32be981f1a5f3f0e2000000006b4830450221009c6fa54412c50deb7e998e41b45d8c485f111628180b19a008921d08a74f86f802207f424cc376a529f39505dbefa532a841d598ddfc4bea5917f2585a1379b1b99a012103f05063d75238be355ddf0205f716b9c70b926c93b96c37ca4b014725aabf2287ffffffff02ac2e0000000000001976a914007451a11e6fd5b2c5c356d0799f5b36d7ae28ad88acd1d01700000000001976a9144909a4f5f8de6d733db278fe44f1fdc4920f3b7c88ac00000000", "vin": [{"sequence": 4294967295, "scriptSig": {"hex": "4730440220608eed2c558712922f91ed494074d251967f7eb8712d9ec3bdc1a77cd2e761ae022041fffc262490cc7f295d2b01e2ecbc36cb797fd1f1f37989f2aa204fa9043ebb0121031db102ca35de079ffb366c921c4b49e8b06c035444713951a5d902b662682d7e", "asm": "30440220608eed2c558712922f91ed494074d251967f7eb8712d9ec3bdc1a77cd2e761ae022041fffc262490cc7f295d2b01e2ecbc36cb797fd1f1f37989f2aa204fa9043ebb[ALL] 031db102ca35de079ffb366c921c4b49e8b06c035444713951a5d902b662682d7e"}, "vout": 0, "txid": "3decb4af314d8bc1cb7d1e28120a6a40d6b959857adec09f964be67586c94cc9"}, {"sequence": 4294967295, "scriptSig": {"hex": "4730440220330d3497e0b8ead44953352a0b68562033ab67600a2078e16b395dc135d81abb02207741447057ed2d1bba8a3e318621ffdbab9fe18f48811d9e5b96d82c7036c6740121039400c91e59e54ae650ad253f9a5ebc022d9d0ec1690eebacba3c252282aa6585", "asm": "30440220330d3497e0b8ead44953352a0b68562033ab67600a2078e16b395dc135d81abb02207741447057ed2d1bba8a3e318621ffdbab9fe18f48811d9e5b96d82c7036c674[ALL] 039400c91e59e54ae650ad253f9a5ebc022d9d0ec1690eebacba3c252282aa6585"}, "vout": 0, "txid": "4b7ce99e344b76b139a433c6dc5e5993991dfa21dead6c3ab7059daaef0c979b"}, {"sequence": 4294967295, "scriptSig": {"hex": "473044022064109102d67f8938730556d4fc26254e0002e08c4169fce28709f66a6180c22f0220508c1ec92f07625f20ca306fbe450a55a234e08304534260fc31dce261b6198b012103b844c8126219f02f5c328396b0984ee43d4a124da374a7437ee4c428bbe31052", "asm": "3044022064109102d67f8938730556d4fc26254e0002e08c4169fce28709f66a6180c22f0220508c1ec92f07625f20ca306fbe450a55a234e08304534260fc31dce261b6198b[ALL] 03b844c8126219f02f5c328396b0984ee43d4a124da374a7437ee4c428bbe31052"}, "vout": 0, "txid": "5839075afe7c5a4fd0560480a496d6d9dab72e0c5754ac6b4d8b1aa3ed3a5226"}, {"sequence": 4294967295, "scriptSig": {"hex": "473044022056d09a432cbb6f2eb14dcf20e4b2d6ad4ad0d6390c42db1cae94380598e7ed5b022019e15be7773f9480286f54bfb5215b62839f6e160f79041a45c92c80e1be9b16012103b844c8126219f02f5c328396b0984ee43d4a124da374a7437ee4c428bbe31052", "asm": "3044022056d09a432cbb6f2eb14dcf20e4b2d6ad4ad0d6390c42db1cae94380598e7ed5b022019e15be7773f9480286f54bfb5215b62839f6e160f79041a45c92c80e1be9b16[ALL] 03b844c8126219f02f5c328396b0984ee43d4a124da374a7437ee4c428bbe31052"}, "vout": 0, "txid": "99ec63273d019dbf79ef5973d30de90122b0378b22ea0b74b04af4f686eea7e8"}, {"sequence": 4294967295, "scriptSig": {"hex": "47304402206255674f1a686090365d604edc25416afbd4a8e46342230672636ad03365b22b022006600f6a4a8b987181c75e201fd902908c506b60ed370db62c1293eaae26a5db012103f05063d75238be355ddf0205f716b9c70b926c93b96c37ca4b014725aabf2287", "asm": "304402206255674f1a686090365d604edc25416afbd4a8e46342230672636ad03365b22b022006600f6a4a8b987181c75e201fd902908c506b60ed370db62c1293eaae26a5db[ALL] 03f05063d75238be355ddf0205f716b9c70b926c93b96c37ca4b014725aabf2287"}, "vout": 0, "txid": "a6cc05678c43cf90b5e6b51e2ff48d3be775a596de589b1d2a2c87d1da1d61e0"}, {"sequence": 4294967295, "scriptSig": {"hex": "47304402205509752c1af51b93ee0fdf508660ce33143b82a91487f702957b4bfbd2dde458022032f687af1c03accc65ecec61fd73b570d6627ed0b37d3b81ea25300e0b51f488012103b3daad898b6060fad50c4c77fde5c8fb7ab75ca5ddb3986f50dee42af2ca5af5", "asm": "304402205509752c1af51b93ee0fdf508660ce33143b82a91487f702957b4bfbd2dde458022032f687af1c03accc65ecec61fd73b570d6627ed0b37d3b81ea25300e0b51f488[ALL] 03b3daad898b6060fad50c4c77fde5c8fb7ab75ca5ddb3986f50dee42af2ca5af5"}, "vout": 0, "txid": "a79e77662977915dbfb20748eddb72a8b16f00a4f48557fd236bb8e682513d96"}, {"sequence": 4294967295, "scriptSig": {"hex": "483045022100bb059b1256168112ed0c9ae169a60c548b2599d7a09fb980a469eca476cb3d8302200e9c2e063b852315d65477f495d198d6f9fda8ab9634f196881ef9e73e03e29a0121039400c91e59e54ae650ad253f9a5ebc022d9d0ec1690eebacba3c252282aa6585", "asm": "3045022100bb059b1256168112ed0c9ae169a60c548b2599d7a09fb980a469eca476cb3d8302200e9c2e063b852315d65477f495d198d6f9fda8ab9634f196881ef9e73e03e29a[ALL] 039400c91e59e54ae650ad253f9a5ebc022d9d0ec1690eebacba3c252282aa6585"}, "vout": 0, "txid": "adea015c21b01d0212f228daab87227a0dd1f2a87b3df8a433ace9876837129e"}, {"sequence": 4294967295, "scriptSig": {"hex": "4830450221009f5e37c0b71ce9e5f8dfba7eefa5bf3569eaf93d75c2f21037b27a298c03451a0220471f10b4dcb6b04b4b41711e0c38707dfbcc638fbd2801fc0d372d38c48bf68b012103f05063d75238be355ddf0205f716b9c70b926c93b96c37ca4b014725aabf2287", "asm": "30450221009f5e37c0b71ce9e5f8dfba7eefa5bf3569eaf93d75c2f21037b27a298c03451a0220471f10b4dcb6b04b4b41711e0c38707dfbcc638fbd2801fc0d372d38c48bf68b[ALL] 03f05063d75238be355ddf0205f716b9c70b926c93b96c37ca4b014725aabf2287"}, "vout": 0, "txid": "cfa6678ef150df327af8635b73825b965f7ec7e8af9b41a25d46b301d168ac5f"}, {"sequence": 4294967295, "scriptSig": {"hex": "4830450221009c6fa54412c50deb7e998e41b45d8c485f111628180b19a008921d08a74f86f802207f424cc376a529f39505dbefa532a841d598ddfc4bea5917f2585a1379b1b99a012103f05063d75238be355ddf0205f716b9c70b926c93b96c37ca4b014725aabf2287", "asm": "30450221009c6fa54412c50deb7e998e41b45d8c485f111628180b19a008921d08a74f86f802207f424cc376a529f39505dbefa532a841d598ddfc4bea5917f2585a1379b1b99a[ALL] 03f05063d75238be355ddf0205f716b9c70b926c93b96c37ca4b014725aabf2287"}, "vout": 0, "txid": "e2f0f3a5f181e92ba31595d757c6461dc6e8009adc7a36d99c5fedfb1eeba9d3"}], "txid": "212729b8a57ff86ddbb0de58551633f477f6942144e0c4e8bd0c105adcae8c0c", "blocktime": 1537871767, "version": 1, "confirmations": 11493, "time": 1537871767, "locktime": 0, "vsize": 1404, "size": 1404}