{"hash": "0c05dc0986500b5048f62a83e3603586312db537e2201a61914bb7df09337352", "blockhash": "0000000000000000001f76057863aec43deb6fa401d9628bb513d65a8098bfab", "vout": [{"scriptPubKey": {"reqSigs": 1, "hex": "a91459930b25af65e292dd2255fe5e81d8ae6f42cc0987", "addresses": ["39reDP4bMW6is9GTRDAcP7LfsuY4uxxorP"], "asm": "OP_HASH160 59930b25af65e292dd2255fe5e81d8ae6f42cc09 OP_EQUAL", "type": "scripthash"}, "value": 6.92971344, "n": 0}, {"scriptPubKey": {"reqSigs": 1, "hex": "a914a56988078b7db16e118d4d3fc7f39cf6ae1f7c5487", "addresses": ["3GmdqeHDajjZyFqhEfpFanBTWvVj6WDFGP"], "asm": "OP_HASH160 a56988078b7db16e118d4d3fc7f39cf6ae1f7c54 OP_EQUAL", "type": "scripthash"}, "value": 0.26666347, "n": 1}, {"scriptPubKey": {"reqSigs": 1, "hex": "a91469f3752f35555b0645b84d3de07facdc12caf3a587", "addresses": ["3BMEXRixMSZX4toCP5Dg2884gBj8pqiZXB"], "asm": "OP_HASH160 69f3752f35555b0645b84d3de07facdc12caf3a5 OP_EQUAL", "type": "scripthash"}, "value": 0.03317917, "n": 2}, {"scriptPubKey": {"reqSigs": 1, "hex": "76a914663bdaa3e54be9bcd6789ff53b4da7a12658773a88ac", "addresses": ["1AKZdJPyJQkAEBMZdyQ9SYadsuXybH9pgt"], "asm": "OP_DUP OP_HASH160 663bdaa3e54be9bcd6789ff53b4da7a12658773a OP_EQUALVERIFY OP_CHECKSIG", "type": "pubkeyhash"}, "value": 0.17158738, "n": 3}], "hex": "01000000000101473bfbef9a643bceb308993eac12a292d201ddd0688b6826baed97a531006ec0000000002322002074db2847066742f12a652f552bf4984314516f2df129b3ba3062f05e4457bfb2ffffffff0450e74d290000000017a91459930b25af65e292dd2255fe5e81d8ae6f42cc09876be596010000000017a914a56988078b7db16e118d4d3fc7f39cf6ae1f7c54879da032000000000017a91469f3752f35555b0645b84d3de07facdc12caf3a58752d20501000000001976a914663bdaa3e54be9bcd6789ff53b4da7a12658773a88ac0400483045022100c50beae11baee7193af2549869bad38b1f2b31b9491dd126971378f37ee42574022042ef40f5ea2b629439fefc88830d790fe81d6981ceb0650f0d16762d47ba855101483045022100b7e66824d1720af97da4d81ad846581b8ab9abcd5dd0adad50dd142bc3cd663c02206c5f7408283a197a89c5d6b13ab813784dcb56920cdbbd189e2bd41baa7c61d30169522102060ce3fab03a5ec948ed65c1bb1e2ccb49d677eda0cb0b82d8d0575b1082b0bf2103c83731f2254bc1b32d2c3f9b69bd437520d8779e849b597acfc55740d3a1245c2103af0f95766b57843c96c5ac19c47f362f98475b5f61500ab752fbd9be0967dbe453ae00000000", "vin": [{"txinwitness": ["", "3045022100c50beae11baee7193af2549869bad38b1f2b31b9491dd126971378f37ee42574022042ef40f5ea2b629439fefc88830d790fe81d6981ceb0650f0d16762d47ba855101", "3045022100b7e66824d1720af97da4d81ad846581b8ab9abcd5dd0adad50dd142bc3cd663c02206c5f7408283a197a89c5d6b13ab813784dcb56920cdbbd189e2bd41baa7c61d301", "522102060ce3fab03a5ec948ed65c1bb1e2ccb49d677eda0cb0b82d8d0575b1082b0bf2103c83731f2254bc1b32d2c3f9b69bd437520d8779e849b597acfc55740d3a1245c2103af0f95766b57843c96c5ac19c47f362f98475b5f61500ab752fbd9be0967dbe453ae"], "sequence": 4294967295, "scriptSig": {"hex": "22002074db2847066742f12a652f552bf4984314516f2df129b3ba3062f05e4457bfb2", "asm": "002074db2847066742f12a652f552bf4984314516f2df129b3ba3062f05e4457bfb2"}, "vout": 0, "txid": "c06e0031a597edba26688b68d0dd01d292a212ac3e9908b3ce3b649aeffb3b47"}], "txid": "2128e834aa794d2a6616655f1efdb7ac3a01949b7d6e187cdaf68fbd18bb5c62", "blocktime": 1537873891, "version": 1, "confirmations": 11474, "time": 1537873891, "locktime": 0, "vsize": 280, "size": 472}