{"hash": "2142de11eabef2268fd48d383afd225e18de6166447ac29a3b81347bbf5f9e4e", "blockhash": "0000000000000000000e13cef7c366c0283d82e591d1acd082e914b08063cdf1", "vout": [{"scriptPubKey": {"type": "nulldata", "hex": "6a4c50000077920001a0817281676d533cf647e040e3ef3236678a625097bcbefa6b8351586b4e2b5d7f7fe12a80b4161f8a251134e4055baa0c830614a9679223e8964bbf23acfcfaac8058b692fe6808c31d", "asm": "OP_RETURN 000077920001a0817281676d533cf647e040e3ef3236678a625097bcbefa6b8351586b4e2b5d7f7fe12a80b4161f8a251134e4055baa0c830614a9679223e8964bbf23acfcfaac8058b692fe6808c31d"}, "value": 0.0, "n": 0}, {"scriptPubKey": {"reqSigs": 1, "hex": "76a91487f96eb9c2bfd33868d5eb28c923227acf4f531e88ac", "addresses": ["1DPy2mouevCtNDsTWDmYSmKDDdHpgGpFyh"], "asm": "OP_DUP OP_HASH160 87f96eb9c2bfd33868d5eb28c923227acf4f531e OP_EQUALVERIFY OP_CHECKSIG", "type": "pubkeyhash"}, "value": 0.00028169, "n": 1}], "hex": "0100000001fc107b9cddfeb061c176565d8b702d65dc954fbd5d4cae5ca944f75c2b65ae5e000000006a47304402203a36d018807cf41bb58a4d938b2154e92a19fadd07ea4b87ba71a30dc950ac0a0220469cd97909f95afc429b785f4f102e04b0e5b3e37a0322638d0c7d57d2dd78ad0121032b3d390d9f520c0e1da43e3ad6be7213f28094a150aa275b5aaa350402162934ffffffff020000000000000000536a4c50000077920001a0817281676d533cf647e040e3ef3236678a625097bcbefa6b8351586b4e2b5d7f7fe12a80b4161f8a251134e4055baa0c830614a9679223e8964bbf23acfcfaac8058b692fe6808c31d096e0000000000001976a91487f96eb9c2bfd33868d5eb28c923227acf4f531e88ac00000000", "vin": [{"sequence": 4294967295, "scriptSig": {"hex": "47304402203a36d018807cf41bb58a4d938b2154e92a19fadd07ea4b87ba71a30dc950ac0a0220469cd97909f95afc429b785f4f102e04b0e5b3e37a0322638d0c7d57d2dd78ad0121032b3d390d9f520c0e1da43e3ad6be7213f28094a150aa275b5aaa350402162934", "asm": "304402203a36d018807cf41bb58a4d938b2154e92a19fadd07ea4b87ba71a30dc950ac0a0220469cd97909f95afc429b785f4f102e04b0e5b3e37a0322638d0c7d57d2dd78ad[ALL] 032b3d390d9f520c0e1da43e3ad6be7213f28094a150aa275b5aaa350402162934"}, "vout": 0, "txid": "5eae652b5cf744a95cae4c5dbd4f95dc652d708b5d5676c161b0fedd9c7b10fc"}], "txid": "2142de11eabef2268fd48d383afd225e18de6166447ac29a3b81347bbf5f9e4e", "blocktime": 1537871767, "version": 1, "confirmations": 11495, "time": 1537871767, "locktime": 0, "vsize": 283, "size": 283}