{"hash": "2145b01751df9fc006f4bf6847ddffdb89cd6d6015c7b3448034366b0ab71daa", "blockhash": "0000000000000000000e13cef7c366c0283d82e591d1acd082e914b08063cdf1", "vout": [{"scriptPubKey": {"reqSigs": 1, "hex": "a91499e047a9dcd996f04f69ab9668614d5b0baa3b1e87", "addresses": ["3Fidz8ttFNHayKpmZt6aZLRmjULbhHJEE6"], "asm": "OP_HASH160 99e047a9dcd996f04f69ab9668614d5b0baa3b1e OP_EQUAL", "type": "scripthash"}, "value": 0.04033312, "n": 0}], "hex": "010000000102a73ed3ca2ce04a01ba45184e2adbb942e602f2a5a90301c77fa0444c468333000000006b483045022100be4225279bb99a94dbedd67766ca7fc49fa6b9f1174ad831fd55917c17cc2db402203503266a02c96d0a0fd278d5aeac9e7f26231a5e2ab9b5c4018be43fc28503d001210266e2f673ddcac4e86aeb2502ad1c7c0ef4e5fa35f89daab5047f150b4efe5b13ffffffff01208b3d000000000017a91499e047a9dcd996f04f69ab9668614d5b0baa3b1e8700000000", "vin": [{"sequence": 4294967295, "scriptSig": {"hex": "483045022100be4225279bb99a94dbedd67766ca7fc49fa6b9f1174ad831fd55917c17cc2db402203503266a02c96d0a0fd278d5aeac9e7f26231a5e2ab9b5c4018be43fc28503d001210266e2f673ddcac4e86aeb2502ad1c7c0ef4e5fa35f89daab5047f150b4efe5b13", "asm": "3045022100be4225279bb99a94dbedd67766ca7fc49fa6b9f1174ad831fd55917c17cc2db402203503266a02c96d0a0fd278d5aeac9e7f26231a5e2ab9b5c4018be43fc28503d0[ALL] 0266e2f673ddcac4e86aeb2502ad1c7c0ef4e5fa35f89daab5047f150b4efe5b13"}, "vout": 0, "txid": "3383464c44a07fc70103a9a5f202e642b9db2a4e1845ba014ae02ccad33ea702"}], "txid": "2145b01751df9fc006f4bf6847ddffdb89cd6d6015c7b3448034366b0ab71daa", "blocktime": 1537871767, "version": 1, "confirmations": 11495, "time": 1537871767, "locktime": 0, "vsize": 190, "size": 190}