{"hash": "2146996ed737a91cf43c15a7c8e806cca9eb38a18598be5b7828707dbe324096", "blockhash": "0000000000000000001f0ddff1eddb255c1121bcd4da4f1bc9a0da00cae72433", "vout": [{"scriptPubKey": {"reqSigs": 1, "hex": "76a9146a8ef13d39f2fcdcff1e4cb64661ccf1fa8e995e88ac", "addresses": ["1AiRs9EYiTG6sWRuUPh9s6qgQFHS8jkZYP"], "asm": "OP_DUP OP_HASH160 6a8ef13d39f2fcdcff1e4cb64661ccf1fa8e995e OP_EQUALVERIFY OP_CHECKSIG", "type": "pubkeyhash"}, "value": 0.0001525, "n": 0}, {"scriptPubKey": {"reqSigs": 1, "hex": "76a9140fb210951748df5faca2232a912e3d6e779a897b88ac", "addresses": ["12RzT32Twv2dbkkh9SAcZoti3RFkQJjqXW"], "asm": "OP_DUP OP_HASH160 0fb210951748df5faca2232a912e3d6e779a897b OP_EQUALVERIFY OP_CHECKSIG", "type": "pubkeyhash"}, "value": 0.01452567, "n": 1}], "hex": "01000000024a92cdb4cbfb81477014368d3a7d18279d362dc9584ad3f1e1dd91375855c3e1190000006b483045022100db360d465c613ce9ce475cf70f8c9145b3410429fd2c61a6eb1772ae66678a78022071e6a9b2419a46d5d6598c157af37bb4d2f1d96723b8c875cf91761e98adc73f012102e81e16e1d601ac5e8298a5620c28fdda0812c0e8aaf7a23bb84e28e0af5b78a2ffffffff99a2dc524ff90fedf0c70358edc355b837bf7ab35d8de7505f884314ab974aee0a0000006b483045022100cdaadb347eada68734b6a04a9df02a7895f325caaefdfe8148644793e0680adc022058b0f9d7a5e446a613b5067b89ac74965e7e3540a7ab5247b6f99ea4814b331d01210224f659d6121661b73c19bfcc6562eacbd6408b97982b2f249a80de2874aa6f58ffffffff02923b0000000000001976a9146a8ef13d39f2fcdcff1e4cb64661ccf1fa8e995e88ac172a1600000000001976a9140fb210951748df5faca2232a912e3d6e779a897b88ac00000000", "vin": [{"sequence": 4294967295, "scriptSig": {"hex": "483045022100db360d465c613ce9ce475cf70f8c9145b3410429fd2c61a6eb1772ae66678a78022071e6a9b2419a46d5d6598c157af37bb4d2f1d96723b8c875cf91761e98adc73f012102e81e16e1d601ac5e8298a5620c28fdda0812c0e8aaf7a23bb84e28e0af5b78a2", "asm": "3045022100db360d465c613ce9ce475cf70f8c9145b3410429fd2c61a6eb1772ae66678a78022071e6a9b2419a46d5d6598c157af37bb4d2f1d96723b8c875cf91761e98adc73f[ALL] 02e81e16e1d601ac5e8298a5620c28fdda0812c0e8aaf7a23bb84e28e0af5b78a2"}, "vout": 25, "txid": "e1c355583791dde1f1d34a58c92d369d27187d3a8d3614704781fbcbb4cd924a"}, {"sequence": 4294967295, "scriptSig": {"hex": "483045022100cdaadb347eada68734b6a04a9df02a7895f325caaefdfe8148644793e0680adc022058b0f9d7a5e446a613b5067b89ac74965e7e3540a7ab5247b6f99ea4814b331d01210224f659d6121661b73c19bfcc6562eacbd6408b97982b2f249a80de2874aa6f58", "asm": "3045022100cdaadb347eada68734b6a04a9df02a7895f325caaefdfe8148644793e0680adc022058b0f9d7a5e446a613b5067b89ac74965e7e3540a7ab5247b6f99ea4814b331d[ALL] 0224f659d6121661b73c19bfcc6562eacbd6408b97982b2f249a80de2874aa6f58"}, "vout": 10, "txid": "ee4a97ab1443885f50e78d5db37abf37b855c3ed5803c7f0ed0ff94f52dca299"}], "txid": "2146996ed737a91cf43c15a7c8e806cca9eb38a18598be5b7828707dbe324096", "blocktime": 1537872018, "version": 1, "confirmations": 11489, "time": 1537872018, "locktime": 0, "vsize": 374, "size": 374}