{"hash": "214bf328209691ec60b968a716ab290596a4d753769e3919ec57294e801a45fc", "blockhash": "0000000000000000001cda96e906b7601b7a6fb1a3b62bca570a9e5d8f4b3de1", "vout": [{"scriptPubKey": {"reqSigs": 1, "hex": "76a914407b3b700153b8574f7c0659053fb34668fee9dd88ac", "addresses": ["16swsbjw2QW8Gak6AspWmvTehiT26RN3JC"], "asm": "OP_DUP OP_HASH160 407b3b700153b8574f7c0659053fb34668fee9dd OP_EQUALVERIFY OP_CHECKSIG", "type": "pubkeyhash"}, "value": 0.01168601, "n": 0}, {"scriptPubKey": {"reqSigs": 1, "hex": "76a914509e8e1f87151d7cfa5901fdcfee631a0fc0684688ac", "addresses": ["18MGzxFpLNmfNaGqK715P7jAfdwRURugBj"], "asm": "OP_DUP OP_HASH160 509e8e1f87151d7cfa5901fdcfee631a0fc06846 OP_EQUALVERIFY OP_CHECKSIG", "type": "pubkeyhash"}, "value": 0.05270895, "n": 1}], "hex": "010000000152adfe4f644c451d59fe683ab567eccd108bfe0cab207ee8b80fb5c0b1ccbe03010000006b4830450221009450e2654a27d735fce6fb1ff39016f90ad81fab697c2a181bbc6ce47ac6e50d02207deb002f7e00e6826d8216324faa55eca5b2fc377a3d2c646cd350c1f3795d9f012102abeb3f479f91a873fbbb23f897eaef99b9239ee377b696f376579e9ebd457de1ffffffff02d9d41100000000001976a914407b3b700153b8574f7c0659053fb34668fee9dd88ac6f6d5000000000001976a914509e8e1f87151d7cfa5901fdcfee631a0fc0684688ac00000000", "vin": [{"sequence": 4294967295, "scriptSig": {"hex": "4830450221009450e2654a27d735fce6fb1ff39016f90ad81fab697c2a181bbc6ce47ac6e50d02207deb002f7e00e6826d8216324faa55eca5b2fc377a3d2c646cd350c1f3795d9f012102abeb3f479f91a873fbbb23f897eaef99b9239ee377b696f376579e9ebd457de1", "asm": "30450221009450e2654a27d735fce6fb1ff39016f90ad81fab697c2a181bbc6ce47ac6e50d02207deb002f7e00e6826d8216324faa55eca5b2fc377a3d2c646cd350c1f3795d9f[ALL] 02abeb3f479f91a873fbbb23f897eaef99b9239ee377b696f376579e9ebd457de1"}, "vout": 1, "txid": "03beccb1c0b50fb8e87e20ab0cfe8b10cdec67b53a68fe591d454c644ffead52"}], "txid": "214bf328209691ec60b968a716ab290596a4d753769e3919ec57294e801a45fc", "blocktime": 1537873282, "version": 1, "confirmations": 11484, "time": 1537873282, "locktime": 0, "vsize": 226, "size": 226}