{"hash": "214d5798894dc85bcd34945a9e52dfecadb172c1bf949f7c678f26eacafa3539", "blockhash": "0000000000000000001f76057863aec43deb6fa401d9628bb513d65a8098bfab", "vout": [{"scriptPubKey": {"reqSigs": 1, "hex": "a914ff385488bf3d97d2798eaeb9ebef6b8bf97dcfde87", "addresses": ["3QxViMP9UHMTvwrCNkAkpg1LNjFsgyg2X4"], "asm": "OP_HASH160 ff385488bf3d97d2798eaeb9ebef6b8bf97dcfde OP_EQUAL", "type": "scripthash"}, "value": 0.0046827, "n": 0}, {"scriptPubKey": {"reqSigs": 1, "hex": "76a914b134bc8be50a57a2de917e2c31be54436a946f0e88ac", "addresses": ["1H9yn9kfUHKcdmvRQHqaUuTgJJTJKp4ddw"], "asm": "OP_DUP OP_HASH160 b134bc8be50a57a2de917e2c31be54436a946f0e OP_EQUALVERIFY OP_CHECKSIG", "type": "pubkeyhash"}, "value": 0.00996109, "n": 1}], "hex": "0100000001aabd21c31b8816e9dba698cdb76c7d7f8a54a939ea6bfd8c707b51e9453bf022000000006b483045022100db5ffc4f9dc60b5b687c61fd489722c8cad1b4b809bce942cccef849f5bc62f202202f10a23086859bb5699cb17836d3a9ab4308dce534697853d6c132725f0d2e570121022ef27e282b2db092e909a696c5bfb2cac21f16048f10197385a1b6947b87e462ffffffff022e2507000000000017a914ff385488bf3d97d2798eaeb9ebef6b8bf97dcfde870d330f00000000001976a914b134bc8be50a57a2de917e2c31be54436a946f0e88ac00000000", "vin": [{"sequence": 4294967295, "scriptSig": {"hex": "483045022100db5ffc4f9dc60b5b687c61fd489722c8cad1b4b809bce942cccef849f5bc62f202202f10a23086859bb5699cb17836d3a9ab4308dce534697853d6c132725f0d2e570121022ef27e282b2db092e909a696c5bfb2cac21f16048f10197385a1b6947b87e462", "asm": "3045022100db5ffc4f9dc60b5b687c61fd489722c8cad1b4b809bce942cccef849f5bc62f202202f10a23086859bb5699cb17836d3a9ab4308dce534697853d6c132725f0d2e57[ALL] 022ef27e282b2db092e909a696c5bfb2cac21f16048f10197385a1b6947b87e462"}, "vout": 0, "txid": "22f03b45e9517b708cfd6bea39a9548a7f7d6cb7cd98a6dbe916881bc321bdaa"}], "txid": "214d5798894dc85bcd34945a9e52dfecadb172c1bf949f7c678f26eacafa3539", "blocktime": 1537873891, "version": 1, "confirmations": 11478, "time": 1537873891, "locktime": 0, "vsize": 224, "size": 224}