{"hash": "e570e16f62f68094fbb747bdb4dd9f9f19bda27186ca683191bc13833924cedd", "blockhash": "0000000000000000001f76057863aec43deb6fa401d9628bb513d65a8098bfab", "vout": [{"scriptPubKey": {"reqSigs": 1, "hex": "76a9145aa827b93a903d7aed1b0ff6da5f3cb72cf63abb88ac", "addresses": ["19GMFtfbt67ts8ZYShgrpNxeo9Gt1npHpR"], "asm": "OP_DUP OP_HASH160 5aa827b93a903d7aed1b0ff6da5f3cb72cf63abb OP_EQUALVERIFY OP_CHECKSIG", "type": "pubkeyhash"}, "value": 2.92800644, "n": 0}, {"scriptPubKey": {"reqSigs": 1, "hex": "76a9140ddf17faed88d1cf1a6fa358693e18807af8609888ac", "addresses": ["12GM3KD1itXPbhXmiyAg26kw6v5Z1z5pSm"], "asm": "OP_DUP OP_HASH160 0ddf17faed88d1cf1a6fa358693e18807af86098 OP_EQUALVERIFY OP_CHECKSIG", "type": "pubkeyhash"}, "value": 1.26379339, "n": 1}, {"scriptPubKey": {"reqSigs": 1, "hex": "a914d739bbbe738b526bd91a8c711c7dd04f23c5c12f87", "addresses": ["3MK2NAxYTkqRwpuswrMn8vKkugAtiDwm4b"], "asm": "OP_HASH160 d739bbbe738b526bd91a8c711c7dd04f23c5c12f OP_EQUAL", "type": "scripthash"}, "value": 0.00886117, "n": 2}, {"scriptPubKey": {"reqSigs": 1, "hex": "a91469f3760144173feedd0e6aa29fad224d5a42dedb87", "addresses": ["3BMEXee8Naw8d5qcsG11LcWSrEyHxU81iR"], "asm": "OP_HASH160 69f3760144173feedd0e6aa29fad224d5a42dedb OP_EQUAL", "type": "scripthash"}, "value": 0.03072133, "n": 3}, {"scriptPubKey": {"reqSigs": 1, "hex": "a914a394ac472cff49b68d6825b553ca87b0473f1a7087", "addresses": ["3GbxAnoe6cMEb9NEhnTKRKhUa2oPtmXAea"], "asm": "OP_HASH160 a394ac472cff49b68d6825b553ca87b0473f1a70 OP_EQUAL", "type": "scripthash"}, "value": 0.02825727, "n": 4}, {"scriptPubKey": {"reqSigs": 1, "hex": "76a914695261a5b7ed1dabdf8280a60200de34a3ccbef688ac", "addresses": ["1Abte751SspoW9sAHaPk7yNo7GAa3ug6b4"], "asm": "OP_DUP OP_HASH160 695261a5b7ed1dabdf8280a60200de34a3ccbef6 OP_EQUALVERIFY OP_CHECKSIG", "type": "pubkeyhash"}, "value": 0.01020121, "n": 5}, {"scriptPubKey": {"reqSigs": 1, "hex": "a914f22a82febb67a2225bdb30bb38052cf4b410eacf87", "addresses": ["3PmUNjNbGn5e5rDuawrZn2nPbomqnsXLVy"], "asm": "OP_HASH160 f22a82febb67a2225bdb30bb38052cf4b410eacf OP_EQUAL", "type": "scripthash"}, "value": 0.44979, "n": 6}], "hex": "0200000000011707803117643aa6573005d1a6d989b7470c4ab4d6d308e2eb0b1e8a77f5e6d99c010000006b483045022100c6e8bf620adb0661b06ae88254bad2bf237e53fb516186af5d5bed09d27beff902203fed27ab9e6fbca841091e024b5b64151f4b4510be84e626b1b27420f5c54482012103f2d723ceb70982d288ff1938e107422cd9fe18d13b107ebbe7d39b7f35af4c9ffeffffff0884134d0775793ddda162d19693faf9c44755e0637178ca7ebfff0e20087781010000006b483045022100e9ca909fd1cf91a8157c03fe98abe0997f8e74d9a1890db3ac760fa77d8277e902201028bf76b9c3ad1b8255c484663ceb3c20e37f86bab95b361260de902bbf02bd012103afb6d9abc37198fcc016c804106eaf3c699e5223a3426c0d2ac2f54a5ad4f96dfeffffff0d0e120f11ee72470dc5da10b407c86beb7695706f2811cef3d3559c917f8f4b010000006b483045022100adcd88db1c1df52c7affc6c62f3aa36194133378d783b3878ba7d9dcb1209f5202207552f7e0ce7ae5e4c348207d7f4e6beadabb9d97f04281dee0d4475dda3055c8012103679e7f21cfcdf7cd35615605b83fe537ed6291912f55c30c8c84635d48343015feffffff179e6e62441a6e8ebe5a05f6077185c2f0e879568522b72eac2c7d023d6a446f150000006a473044022053818b71d832b0a79c84865aad606ee20acb1efda0bc5e8ee066418015b60a9802201759b2810e0b26ef8c9d260c0c9ac864b46fc9279c953004ee170e94631190c00121021da820a3e8ac8fbb7f244656056cfa58973de70e0e6388df3f30a4c7aa6e0a1bfeffffff1bdd5877010ae13d5fc7309d65733e932b11948cd28860e3ea27b665b0832b520000000017160014402b9b5b57988846233f4a18eb57a06c21a12109feffffff309f9cc977fc89dfa3ee0be7a9218415e406d058c3277f1a91adfba05a9357f4890000006a47304402205fe4fa56e24b688f697007f124a6dc548ab0b0f58175798bb58a6aa7d43ee05d022047cac72555a4477a6baa8c700e9ccb29ea6c64e035bcdf96a400754b3cca802801210216014cba8b8593b1acbd108a796dfad4bf5fde2f07ec265d27c89f710fd49aa7feffffff35808bde2a8d2523467f8d0ebce4aa93916cbf2f03d37381d1ce713e58e765e6000000006a47304402206062fb29a5c3c1fcad5665712a555c059871537394f709c2661a4eb6067484510220054942a68e399bc9df0e6a40e10ea4a5ba72a237d2ab9eeff9db356773c480b601210215c1fdc28efa230784a97c6ca68abc2dc7684740b9548cf73dd3d865f5c4d471feffffff3a863af40cb8d79f29bdbe86587b37eab874e422c8be2a5c9e6d41119fce9a4c0100000017160014fa0bd0b8a049a3c101d1b597f88b914ac5638645feffffff3d6ea74d692987dc7498d025f2e6ca4fac53dd1ef2c397e3ee71340e51217015030000001716001473771a83dcb628ccccf2873753e99dd5a68989cbfeffffff45ef59bc3bdd9ed240b7f232735fd4a9fbc14bb56eba19004b731aa3cbbe5d820000000017160014a35a02cd96014f6a90166baac88379dc603ec989feffffff483261ae1585c956c8c67e44cfe4b32b96424c0de20c1228ae389c1dce9da679070000001716001442d47420fa8474aece8c7ed0533920630c966067feffffff53c603a56eb3e41145caf436565ea884d02a93519047cad852c9dbd8b57fe57c0100000017160014402b9b5b57988846233f4a18eb57a06c21a12109feffffff5a10797fbea385b69cabeb11ea27961cf60353b46ce615eeafbd88c35c366cc50200000017160014dcf490ad51245220098f1ca38f5c815a8fc7faccfeffffff7f803f7e022f5381cb54a48f56fb174bb943e9639b68b1fe02838007b741ee9ecf0000006b483045022100a8f2d71b013dbb752c1d6725dbe67fd631318eb19355eff9c61a3789ebd2ec6602202a499177341b3ca03753e39cd7a08414c5805e7f2ef11725c9844123a10b4e1301210394120c2f7b3efa8cd85ec2e66e5601c653ac363e610ced57b9b3298153c0eb3bfeffffff9229c98478c0f94933a6117b647c2765338f9f97e71423050a3024d37286b2a12f000000171600149d9d9695e5af584abf01458639a6b7954f4773e2feffffff99253b1b99644f5a589e1f8591e2240d2f3358e096070b6f1e158ea7cf34d7d80100000017160014a35a02cd96014f6a90166baac88379dc603ec989feffffffc0ffe871618f097d6ab6a25e524768eda604752123a3d4d5c350203265c05169300100006b48304502210081bdeba819db1857d5f431464deb1f312261027e7442e4ea2bca34c335135c7d02207d8caf3ed8e4b735eded10d636e608113c09cc2cc6e1eb4cd99bbdaa2d16cef00121038ac8ec8fee15d1bdb5fb8f81e0df03cbf9e75d82c071bfc9d733afc74c4fdfe8feffffffc3efb61bb1dfbdf7d116800795f5170d8a436f3cb95c2bd2272c0c5eb25cfebf0000000017160014b2fadc7054c6f251a1396a212a39ab6e81bb1c85feffffffdcf51d04dc0fdc615b81b2c398b91ac0ab2c8c4f47d094d4a9a96596426dca030000000017160014a35a02cd96014f6a90166baac88379dc603ec989feffffffe9713865e94f083dde96b7aa01d3c9f82a34227f77e45a8876debd86795b49b60200000017160014db33334c343dc834fd88947c17ad47edee95eac6fefffffffa1b619801aab71aee9c8ed84f5bdd429c396b0560a221a33bb5cadeb131a2510d0000006b483045022100e9fab8cad9381363c2cb176b5f7083cba13fc73c3abde02055f4894a92b7a1e0022072d78b69996a5d31aac02cd961fb31b0e990f10043880d5712cd415e54400d7b012103e7d29865c46632104c53f4681692392060882e16692776636161193e86bd2940fefffffffa72f26b5f7147b31fd7313d86cb1a71c19bbda425d3157f317947c5f7231bd81700000017160014edfb30ee627907bf1c017e2ba9b42db51e70f1a8fefffffffd5f5146305f2615b54ab26cfbebfe3bfa28a09dd9f5c1d685bdb968228d21120100000017160014a35a02cd96014f6a90166baac88379dc603ec989feffffff0784c87311000000001976a9145aa827b93a903d7aed1b0ff6da5f3cb72cf63abb88ac4b658807000000001976a9140ddf17faed88d1cf1a6fa358693e18807af8609888ac65850d000000000017a914d739bbbe738b526bd91a8c711c7dd04f23c5c12f8785e02e000000000017a91469f3760144173feedd0e6aa29fad224d5a42dedb87ff1d2b000000000017a914a394ac472cff49b68d6825b553ca87b0473f1a7087d9900f00000000001976a914695261a5b7ed1dabdf8280a60200de34a3ccbef688ac3853ae020000000017a914f22a82febb67a2225bdb30bb38052cf4b410eacf870000000002483045022100b4158f3026aac434b395f06351fb14992edbea943b4f594110b6e269b4a7455a02207854415e93af784ffcec93720fa11f42332fc1b138a4debbb7f3ce2252d8ef7901210296501c3c2d62cc5617c370f95d8aa670494e59f45a48bba422fb4e2c692b9ccb000002483045022100d09374c74ff0cc6c6b776a90378a78d1871c03ee6365dd212e0ebf64dca18e9f02203d32050acc3a0eee8d58b2cfa94d83f305eb285869f0bfe5f529fadf466a99e0012103631513ba6a93dbec4018bd085c3b42370f28db442de3ee4a17ec131d4ee1cbb90247304402205f8b279c03fb18ef618c78579c492500589ca22cb2e2992c5470b311d56c88ba02206f83aefad16db1a149d37d5f9c8b9e61cf5172c0d3fe616face2370be69ead1001210352453538d9516acd696e36b633025a74d6025cd3eb725f9f6ead1c254686512a02483045022100c23c51e6b01b141d2fdb688a8570315a3df1259b120ff515d2ac414a12a466d0022042546c2d1a66302785ea0d8bd14d6dd4a3a5dc0b484059a6d0d92eb1d55d0a3901210263b4690f92e7a1a0364566da23c075802fe3a65bcd1f09fd25759d2cb8613a830247304402205d0364d3e8080757d6b59bca75a1b297f7ad3ee19a6494ae03988c29ad7a8369022029209eca675dc36eff28664ce4626a01f79b92202f915c9b405997e60a2cfce9012103bc697f51015f3e5ed5727f8d6c68e6b312ebb545ba683687798f3a3b1e8b63c2024830450221008309b50066995f83b9ba4df1dbed82868d657879891811f10b7e52c93d019b7902207f7109d102a0f9305dd7ea6b66fa9dc8907e58b3abdefba4ded82fcd9027ea6101210296501c3c2d62cc5617c370f95d8aa670494e59f45a48bba422fb4e2c692b9ccb02483045022100dc76c8c3af8a82c2ee9a472e49e779b1b2d8087e4c44976e2b17bda498ed515b0220344ec100ae4762b525fc851a80c113222b7a32fe715f0cd20d03dabae00332650121021c410616c0dc15f583edee308b9b02e9ab307041ff06f9149e33d47c401993940002483045022100a53688708557290ccbe31efcafd23d6c19cb104ed9bac0d27b67a8830fb79bf70220226b0534113ca0853c4e5a4fb384bf325fd5422fdda9e9a932e3510cee945d45012102ec8fc5dcb296ad89de2a2940488ab806b132cf893cf28f0b3edc272b916050b30248304502210091aa7fca9b19741bd357547f242af4a03cae14eeeb2c50b8bfe9e51cc989e63602201765b0906017453f02dcaac9556170a3bb4e9dcd01fbb0ac1aad928f8e02082401210263b4690f92e7a1a0364566da23c075802fe3a65bcd1f09fd25759d2cb8613a8300024730440220484507d5c385d369f6645064525e1e6444f686100b8f42afdd4e356676c3436202205280747eab3caf7d2585f6e3a61a1a6a6d76a4f1aee5a1cf2bd38b51ce09fac70121031b5fc2cea473a9abf3fa8f0e9f7c64a394975d47fab270b390efd17cb24814a80247304402201b89e2c998fa29eb981a004d30bbab0413312e8848da6fe3ad5a2b29dbb2ba8402207f536c396c69aadc0ef5ae4993c9ee51403fab29394f375f115dca076d93602b01210263b4690f92e7a1a0364566da23c075802fe3a65bcd1f09fd25759d2cb8613a83024830450221008ebc700228b166d5038ee661faf7514347ea42dd795be9de0508c9113c84370b0220109e759d6ee089670e1d6e0943218f5dcd9a70eb56a72c2a42eaefccff1dc3b2012102e4cfd22d6f2a9101e33f9b3923697b283adf1aae6ed2a28e28803313c72d303600024730440220364f19a7476b32224241bea3989b007bcb426c6c709e513e5303d489efc506650220644b7effe9ed3f172f154a4f3845dca38b1b3c2a683de32d7e4861761bdbc62301210396ea4ab7ea525d58519ef6313e4688aaac0712924e907f67d0e63c341ef6f86d02473044022049c4b981b5a12a2374cd2996a3648e3393bacd9ce58ea2851bbfb07b3d4e7fb90220793e3191335cca6d0c9687d080f84dd907cb4f26ebd8ff6db899a907addda9fa01210263b4690f92e7a1a0364566da23c075802fe3a65bcd1f09fd25759d2cb8613a8313490800", "vin": [{"sequence": 4294967294, "scriptSig": {"hex": "483045022100c6e8bf620adb0661b06ae88254bad2bf237e53fb516186af5d5bed09d27beff902203fed27ab9e6fbca841091e024b5b64151f4b4510be84e626b1b27420f5c54482012103f2d723ceb70982d288ff1938e107422cd9fe18d13b107ebbe7d39b7f35af4c9f", "asm": "3045022100c6e8bf620adb0661b06ae88254bad2bf237e53fb516186af5d5bed09d27beff902203fed27ab9e6fbca841091e024b5b64151f4b4510be84e626b1b27420f5c54482[ALL] 03f2d723ceb70982d288ff1938e107422cd9fe18d13b107ebbe7d39b7f35af4c9f"}, "vout": 1, "txid": "9cd9e6f5778a1e0bebe208d3d6b44a0c47b789d9a6d1053057a63a6417318007"}, {"sequence": 4294967294, "scriptSig": {"hex": "483045022100e9ca909fd1cf91a8157c03fe98abe0997f8e74d9a1890db3ac760fa77d8277e902201028bf76b9c3ad1b8255c484663ceb3c20e37f86bab95b361260de902bbf02bd012103afb6d9abc37198fcc016c804106eaf3c699e5223a3426c0d2ac2f54a5ad4f96d", "asm": "3045022100e9ca909fd1cf91a8157c03fe98abe0997f8e74d9a1890db3ac760fa77d8277e902201028bf76b9c3ad1b8255c484663ceb3c20e37f86bab95b361260de902bbf02bd[ALL] 03afb6d9abc37198fcc016c804106eaf3c699e5223a3426c0d2ac2f54a5ad4f96d"}, "vout": 1, "txid": "817708200effbf7eca787163e05547c4f9fa9396d162a1dd3d7975074d138408"}, {"sequence": 4294967294, "scriptSig": {"hex": "483045022100adcd88db1c1df52c7affc6c62f3aa36194133378d783b3878ba7d9dcb1209f5202207552f7e0ce7ae5e4c348207d7f4e6beadabb9d97f04281dee0d4475dda3055c8012103679e7f21cfcdf7cd35615605b83fe537ed6291912f55c30c8c84635d48343015", "asm": "3045022100adcd88db1c1df52c7affc6c62f3aa36194133378d783b3878ba7d9dcb1209f5202207552f7e0ce7ae5e4c348207d7f4e6beadabb9d97f04281dee0d4475dda3055c8[ALL] 03679e7f21cfcdf7cd35615605b83fe537ed6291912f55c30c8c84635d48343015"}, "vout": 1, "txid": "4b8f7f919c55d3f3ce11286f709576eb6bc807b410dac50d4772ee110f120e0d"}, {"sequence": 4294967294, "scriptSig": {"hex": "473044022053818b71d832b0a79c84865aad606ee20acb1efda0bc5e8ee066418015b60a9802201759b2810e0b26ef8c9d260c0c9ac864b46fc9279c953004ee170e94631190c00121021da820a3e8ac8fbb7f244656056cfa58973de70e0e6388df3f30a4c7aa6e0a1b", "asm": "3044022053818b71d832b0a79c84865aad606ee20acb1efda0bc5e8ee066418015b60a9802201759b2810e0b26ef8c9d260c0c9ac864b46fc9279c953004ee170e94631190c0[ALL] 021da820a3e8ac8fbb7f244656056cfa58973de70e0e6388df3f30a4c7aa6e0a1b"}, "vout": 21, "txid": "6f446a3d027d2cac2eb722855679e8f0c2857107f6055abe8e6e1a44626e9e17"}, {"txinwitness": ["3045022100b4158f3026aac434b395f06351fb14992edbea943b4f594110b6e269b4a7455a02207854415e93af784ffcec93720fa11f42332fc1b138a4debbb7f3ce2252d8ef7901", "0296501c3c2d62cc5617c370f95d8aa670494e59f45a48bba422fb4e2c692b9ccb"], "sequence": 4294967294, "scriptSig": {"hex": "160014402b9b5b57988846233f4a18eb57a06c21a12109", "asm": "0014402b9b5b57988846233f4a18eb57a06c21a12109"}, "vout": 0, "txid": "522b83b065b627eae36088d28c94112b933e73659d30c75f3de10a017758dd1b"}, {"sequence": 4294967294, "scriptSig": {"hex": "47304402205fe4fa56e24b688f697007f124a6dc548ab0b0f58175798bb58a6aa7d43ee05d022047cac72555a4477a6baa8c700e9ccb29ea6c64e035bcdf96a400754b3cca802801210216014cba8b8593b1acbd108a796dfad4bf5fde2f07ec265d27c89f710fd49aa7", "asm": "304402205fe4fa56e24b688f697007f124a6dc548ab0b0f58175798bb58a6aa7d43ee05d022047cac72555a4477a6baa8c700e9ccb29ea6c64e035bcdf96a400754b3cca8028[ALL] 0216014cba8b8593b1acbd108a796dfad4bf5fde2f07ec265d27c89f710fd49aa7"}, "vout": 137, "txid": "f457935aa0fbad911a7f27c358d006e4158421a9e70beea3df89fc77c99c9f30"}, {"sequence": 4294967294, "scriptSig": {"hex": "47304402206062fb29a5c3c1fcad5665712a555c059871537394f709c2661a4eb6067484510220054942a68e399bc9df0e6a40e10ea4a5ba72a237d2ab9eeff9db356773c480b601210215c1fdc28efa230784a97c6ca68abc2dc7684740b9548cf73dd3d865f5c4d471", "asm": "304402206062fb29a5c3c1fcad5665712a555c059871537394f709c2661a4eb6067484510220054942a68e399bc9df0e6a40e10ea4a5ba72a237d2ab9eeff9db356773c480b6[ALL] 0215c1fdc28efa230784a97c6ca68abc2dc7684740b9548cf73dd3d865f5c4d471"}, "vout": 0, "txid": "e665e7583e71ced18173d3032fbf6c9193aae4bc0e8d7f4623258d2ade8b8035"}, {"txinwitness": ["3045022100d09374c74ff0cc6c6b776a90378a78d1871c03ee6365dd212e0ebf64dca18e9f02203d32050acc3a0eee8d58b2cfa94d83f305eb285869f0bfe5f529fadf466a99e001", "03631513ba6a93dbec4018bd085c3b42370f28db442de3ee4a17ec131d4ee1cbb9"], "sequence": 4294967294, "scriptSig": {"hex": "160014fa0bd0b8a049a3c101d1b597f88b914ac5638645", "asm": "0014fa0bd0b8a049a3c101d1b597f88b914ac5638645"}, "vout": 1, "txid": "4c9ace9f11416d9e5c2abec822e474b8ea377b5886bebd299fd7b80cf43a863a"}, {"txinwitness": ["304402205f8b279c03fb18ef618c78579c492500589ca22cb2e2992c5470b311d56c88ba02206f83aefad16db1a149d37d5f9c8b9e61cf5172c0d3fe616face2370be69ead1001", "0352453538d9516acd696e36b633025a74d6025cd3eb725f9f6ead1c254686512a"], "sequence": 4294967294, "scriptSig": {"hex": "16001473771a83dcb628ccccf2873753e99dd5a68989cb", "asm": "001473771a83dcb628ccccf2873753e99dd5a68989cb"}, "vout": 3, "txid": "157021510e3471eee397c3f21edd53ac4fcae6f225d09874dc8729694da76e3d"}, {"txinwitness": ["3045022100c23c51e6b01b141d2fdb688a8570315a3df1259b120ff515d2ac414a12a466d0022042546c2d1a66302785ea0d8bd14d6dd4a3a5dc0b484059a6d0d92eb1d55d0a3901", "0263b4690f92e7a1a0364566da23c075802fe3a65bcd1f09fd25759d2cb8613a83"], "sequence": 4294967294, "scriptSig": {"hex": "160014a35a02cd96014f6a90166baac88379dc603ec989", "asm": "0014a35a02cd96014f6a90166baac88379dc603ec989"}, "vout": 0, "txid": "825dbecba31a734b0019ba6eb54bc1fba9d45f7332f2b740d29edd3bbc59ef45"}, {"txinwitness": ["304402205d0364d3e8080757d6b59bca75a1b297f7ad3ee19a6494ae03988c29ad7a8369022029209eca675dc36eff28664ce4626a01f79b92202f915c9b405997e60a2cfce901", "03bc697f51015f3e5ed5727f8d6c68e6b312ebb545ba683687798f3a3b1e8b63c2"], "sequence": 4294967294, "scriptSig": {"hex": "16001442d47420fa8474aece8c7ed0533920630c966067", "asm": "001442d47420fa8474aece8c7ed0533920630c966067"}, "vout": 7, "txid": "79a69dce1d9c38ae28120ce20d4c42962bb3e4cf447ec6c856c98515ae613248"}, {"txinwitness": ["30450221008309b50066995f83b9ba4df1dbed82868d657879891811f10b7e52c93d019b7902207f7109d102a0f9305dd7ea6b66fa9dc8907e58b3abdefba4ded82fcd9027ea6101", "0296501c3c2d62cc5617c370f95d8aa670494e59f45a48bba422fb4e2c692b9ccb"], "sequence": 4294967294, "scriptSig": {"hex": "160014402b9b5b57988846233f4a18eb57a06c21a12109", "asm": "0014402b9b5b57988846233f4a18eb57a06c21a12109"}, "vout": 1, "txid": "7ce57fb5d8dbc952d8ca479051932ad084a85e5636f4ca4511e4b36ea503c653"}, {"txinwitness": ["3045022100dc76c8c3af8a82c2ee9a472e49e779b1b2d8087e4c44976e2b17bda498ed515b0220344ec100ae4762b525fc851a80c113222b7a32fe715f0cd20d03dabae003326501", "021c410616c0dc15f583edee308b9b02e9ab307041ff06f9149e33d47c40199394"], "sequence": 4294967294, "scriptSig": {"hex": "160014dcf490ad51245220098f1ca38f5c815a8fc7facc", "asm": "0014dcf490ad51245220098f1ca38f5c815a8fc7facc"}, "vout": 2, "txid": "c56c365cc388bdafee15e66cb45303f61c9627ea11ebab9cb685a3be7f79105a"}, {"sequence": 4294967294, "scriptSig": {"hex": "483045022100a8f2d71b013dbb752c1d6725dbe67fd631318eb19355eff9c61a3789ebd2ec6602202a499177341b3ca03753e39cd7a08414c5805e7f2ef11725c9844123a10b4e1301210394120c2f7b3efa8cd85ec2e66e5601c653ac363e610ced57b9b3298153c0eb3b", "asm": "3045022100a8f2d71b013dbb752c1d6725dbe67fd631318eb19355eff9c61a3789ebd2ec6602202a499177341b3ca03753e39cd7a08414c5805e7f2ef11725c9844123a10b4e13[ALL] 0394120c2f7b3efa8cd85ec2e66e5601c653ac363e610ced57b9b3298153c0eb3b"}, "vout": 207, "txid": "9eee41b707808302feb1689b63e943b94b17fb568fa454cb81532f027e3f807f"}, {"txinwitness": ["3045022100a53688708557290ccbe31efcafd23d6c19cb104ed9bac0d27b67a8830fb79bf70220226b0534113ca0853c4e5a4fb384bf325fd5422fdda9e9a932e3510cee945d4501", "02ec8fc5dcb296ad89de2a2940488ab806b132cf893cf28f0b3edc272b916050b3"], "sequence": 4294967294, "scriptSig": {"hex": "1600149d9d9695e5af584abf01458639a6b7954f4773e2", "asm": "00149d9d9695e5af584abf01458639a6b7954f4773e2"}, "vout": 47, "txid": "a1b28672d324300a052314e7979f8f3365277c647b11a63349f9c07884c92992"}, {"txinwitness": ["304502210091aa7fca9b19741bd357547f242af4a03cae14eeeb2c50b8bfe9e51cc989e63602201765b0906017453f02dcaac9556170a3bb4e9dcd01fbb0ac1aad928f8e02082401", "0263b4690f92e7a1a0364566da23c075802fe3a65bcd1f09fd25759d2cb8613a83"], "sequence": 4294967294, "scriptSig": {"hex": "160014a35a02cd96014f6a90166baac88379dc603ec989", "asm": "0014a35a02cd96014f6a90166baac88379dc603ec989"}, "vout": 1, "txid": "d8d734cfa78e151e6f0b0796e058332f0d24e291851f9e585a4f64991b3b2599"}, {"sequence": 4294967294, "scriptSig": {"hex": "48304502210081bdeba819db1857d5f431464deb1f312261027e7442e4ea2bca34c335135c7d02207d8caf3ed8e4b735eded10d636e608113c09cc2cc6e1eb4cd99bbdaa2d16cef00121038ac8ec8fee15d1bdb5fb8f81e0df03cbf9e75d82c071bfc9d733afc74c4fdfe8", "asm": "304502210081bdeba819db1857d5f431464deb1f312261027e7442e4ea2bca34c335135c7d02207d8caf3ed8e4b735eded10d636e608113c09cc2cc6e1eb4cd99bbdaa2d16cef0[ALL] 038ac8ec8fee15d1bdb5fb8f81e0df03cbf9e75d82c071bfc9d733afc74c4fdfe8"}, "vout": 304, "txid": "6951c065322050c3d5d4a323217504a6ed6847525ea2b66a7d098f6171e8ffc0"}, {"txinwitness": ["30440220484507d5c385d369f6645064525e1e6444f686100b8f42afdd4e356676c3436202205280747eab3caf7d2585f6e3a61a1a6a6d76a4f1aee5a1cf2bd38b51ce09fac701", "031b5fc2cea473a9abf3fa8f0e9f7c64a394975d47fab270b390efd17cb24814a8"], "sequence": 4294967294, "scriptSig": {"hex": "160014b2fadc7054c6f251a1396a212a39ab6e81bb1c85", "asm": "0014b2fadc7054c6f251a1396a212a39ab6e81bb1c85"}, "vout": 0, "txid": "bffe5cb25e0c2c27d22b5cb93c6f438a0d17f595078016d1f7bddfb11bb6efc3"}, {"txinwitness": ["304402201b89e2c998fa29eb981a004d30bbab0413312e8848da6fe3ad5a2b29dbb2ba8402207f536c396c69aadc0ef5ae4993c9ee51403fab29394f375f115dca076d93602b01", "0263b4690f92e7a1a0364566da23c075802fe3a65bcd1f09fd25759d2cb8613a83"], "sequence": 4294967294, "scriptSig": {"hex": "160014a35a02cd96014f6a90166baac88379dc603ec989", "asm": "0014a35a02cd96014f6a90166baac88379dc603ec989"}, "vout": 0, "txid": "03ca6d429665a9a9d494d0474f8c2cabc01ab998c3b2815b61dc0fdc041df5dc"}, {"txinwitness": ["30450221008ebc700228b166d5038ee661faf7514347ea42dd795be9de0508c9113c84370b0220109e759d6ee089670e1d6e0943218f5dcd9a70eb56a72c2a42eaefccff1dc3b201", "02e4cfd22d6f2a9101e33f9b3923697b283adf1aae6ed2a28e28803313c72d3036"], "sequence": 4294967294, "scriptSig": {"hex": "160014db33334c343dc834fd88947c17ad47edee95eac6", "asm": "0014db33334c343dc834fd88947c17ad47edee95eac6"}, "vout": 2, "txid": "b6495b7986bdde76885ae4777f22342af8c9d301aab796de3d084fe9653871e9"}, {"sequence": 4294967294, "scriptSig": {"hex": "483045022100e9fab8cad9381363c2cb176b5f7083cba13fc73c3abde02055f4894a92b7a1e0022072d78b69996a5d31aac02cd961fb31b0e990f10043880d5712cd415e54400d7b012103e7d29865c46632104c53f4681692392060882e16692776636161193e86bd2940", "asm": "3045022100e9fab8cad9381363c2cb176b5f7083cba13fc73c3abde02055f4894a92b7a1e0022072d78b69996a5d31aac02cd961fb31b0e990f10043880d5712cd415e54400d7b[ALL] 03e7d29865c46632104c53f4681692392060882e16692776636161193e86bd2940"}, "vout": 13, "txid": "51a231b1decab53ba321a260056b399c42dd5b4fd88e9cee1ab7aa0198611bfa"}, {"txinwitness": ["30440220364f19a7476b32224241bea3989b007bcb426c6c709e513e5303d489efc506650220644b7effe9ed3f172f154a4f3845dca38b1b3c2a683de32d7e4861761bdbc62301", "0396ea4ab7ea525d58519ef6313e4688aaac0712924e907f67d0e63c341ef6f86d"], "sequence": 4294967294, "scriptSig": {"hex": "160014edfb30ee627907bf1c017e2ba9b42db51e70f1a8", "asm": "0014edfb30ee627907bf1c017e2ba9b42db51e70f1a8"}, "vout": 23, "txid": "d81b23f7c54779317f15d325a4bd9bc1711acb863d31d71fb347715f6bf272fa"}, {"txinwitness": ["3044022049c4b981b5a12a2374cd2996a3648e3393bacd9ce58ea2851bbfb07b3d4e7fb90220793e3191335cca6d0c9687d080f84dd907cb4f26ebd8ff6db899a907addda9fa01", "0263b4690f92e7a1a0364566da23c075802fe3a65bcd1f09fd25759d2cb8613a83"], "sequence": 4294967294, "scriptSig": {"hex": "160014a35a02cd96014f6a90166baac88379dc603ec989", "asm": "0014a35a02cd96014f6a90166baac88379dc603ec989"}, "vout": 1, "txid": "12218d2268b9bd85d6c1f5d99da028fa3bfeebfb6cb24ab515265f3046515ffd"}], "txid": "21526ccd6c7fd1e3546e9dbd720f4575965c9226ce1a93eac673216d5a881d2b", "blocktime": 1537873891, "version": 2, "confirmations": 11474, "time": 1537873891, "locktime": 542995, "vsize": 2845, "size": 3982}