{"hash": "0bd5b239f29c5c9fcbd95258405fc49bfccf596d864a74f9e4779afdc302bc57", "blockhash": "0000000000000000000e13cef7c366c0283d82e591d1acd082e914b08063cdf1", "vout": [{"scriptPubKey": {"reqSigs": 1, "hex": "76a91444f5a8b6019772ca31d59eb3661d0eebcb756ca988ac", "addresses": ["17HdEjWWyAgFMaHjNWosatnNZ7M5t315Lx"], "asm": "OP_DUP OP_HASH160 44f5a8b6019772ca31d59eb3661d0eebcb756ca9 OP_EQUALVERIFY OP_CHECKSIG", "type": "pubkeyhash"}, "value": 0.285, "n": 0}, {"scriptPubKey": {"reqSigs": 1, "hex": "a914af642f2498e905084b778340bd503310684761de87", "addresses": ["3HgQC2kYsjAHUuKmTbzXR5HLENdzSEdpU7"], "asm": "OP_HASH160 af642f2498e905084b778340bd503310684761de OP_EQUAL", "type": "scripthash"}, "value": 0.00061137, "n": 1}], "hex": "01000000000107309f9cc977fc89dfa3ee0be7a9218415e406d058c3277f1a91adfba05a9357f4a2000000232200208c5d5039c0601e7aa3433c4d3750185067c6cb012d88777009961c7a0aa9cb53ffffffff3cee7d4197eedd87d65f660f54e468cd90ff6c08fdd77367cadbc65e10c18ea12d020000fdfd0000483045022100922b25cb1e156a42f5ce51f3e4f0e5177402870b50c38763cb0a1a81d9cd400802200b7eeeb828b37800254c7a8d835a441583cd327f888279bb87c20c0cd36297ea0147304402200a76f17769fb7ff298fc303fe34c2f60a5a86a14c22af0c60406607054b17a600220117d0ce7e66fa65257cd1d20188fda1d47ea89954edb8803d30b482c2fddc61d014c695221022e4283a80d413af0b23581cb47633ae9229e3bb74b05414a2bc55599b4f240ac2103428d60a059a103e8b8c9d09f9c0a43b811a763c63be55b0b96634cb3a74d1b4e2103b6e889c6dc38a6cc1b697f5603ef104df2cb7264a466b00fe761ac4c8252340353aeffffffffefdad2ca2f7f631089ba10f75a49c046891a6e8cf133ec2acdafae060d62601e32020000fdfd0000483045022100b5166a4eee95c10026228a57fd417d68f9d1c6e7ab402e434f375a5e9b17e17002203b56b2f1ce42f1402d9e3fcb0b87ddf7e86cac64dc4ade7c9f0ba4caef2ea5a601473044022007ea8c8f32ec7d562615eb8379f12c554d51f2b860b89984393db71d567cbfed022030b4a36c1c82ff45f29aad4293f5d954db76ee3129a3fc45ea3bc0063b1ae225014c695221022e4283a80d413af0b23581cb47633ae9229e3bb74b05414a2bc55599b4f240ac2103428d60a059a103e8b8c9d09f9c0a43b811a763c63be55b0b96634cb3a74d1b4e2103b6e889c6dc38a6cc1b697f5603ef104df2cb7264a466b00fe761ac4c8252340353aeffffffffc94e8c74799a572d24733441d7acd5866318465b896cb2281c09bcbeded89f059b000000232200208c5d5039c0601e7aa3433c4d3750185067c6cb012d88777009961c7a0aa9cb53ffffffff525dfabfe2af18a9bf302fd1f0018e2e130f3a38198da1c6e4efb2654eb2540535020000fc00473044022027bdf852cd1a2e7cc6696b360e330f099cc67a39b0b9d00db1b181b1a08e154b0220556d1b0a07d4d8c376ca81e9095bf282eb23bb7075a43f25a264bfc075b1c20e01473044022011b26a38eebbf9764a91c2e218f0af32847ec1b69f3ee0ea72a72105f0fcec31022017aafd4b660bb3227d3dbb18f0239de59629e301b3ec25c6ef42df9f457e221d014c695221022e4283a80d413af0b23581cb47633ae9229e3bb74b05414a2bc55599b4f240ac2103428d60a059a103e8b8c9d09f9c0a43b811a763c63be55b0b96634cb3a74d1b4e2103b6e889c6dc38a6cc1b697f5603ef104df2cb7264a466b00fe761ac4c8252340353aeffffffffed24bf93b3a1fa87bd0a915faf7bd6d898c4cd9634f8c96ab41bf327cc33f0f689000000232200208c5d5039c0601e7aa3433c4d3750185067c6cb012d88777009961c7a0aa9cb53ffffffff2bf03647701c8d3724aa30dc5f9e8c99de3a042636686047c263862010fe10eb2d020000fc004730440220680d59539f34d2b58a348b6c470f6bc6c473a3957244be22352f17ec2c3d5dbc02201ed2c02207296087a269ca1f7ebc8f76b217aba5271e0f032f8a6cf636f6a1900147304402207f7ed1408a72a755a91560b96aeca7b3026e7ba814bef99a59adbc29fa1a8bce0220546ddd50cd3cd73f30bca1a874b240d2fa68fe731665a38f91b8c9973a445b7c014c695221022e4283a80d413af0b23581cb47633ae9229e3bb74b05414a2bc55599b4f240ac2103428d60a059a103e8b8c9d09f9c0a43b811a763c63be55b0b96634cb3a74d1b4e2103b6e889c6dc38a6cc1b697f5603ef104df2cb7264a466b00fe761ac4c8252340353aeffffffff0220e0b201000000001976a91444f5a8b6019772ca31d59eb3661d0eebcb756ca988acd1ee00000000000017a914af642f2498e905084b778340bd503310684761de870400483045022100e93bdb80a8f521904f104a84d8ee2542324ff68a1f967984b2f71684bc9f03a6022016efa394117b4b45602734a87a20d4844092ab8d3a6089f5938b3a9e0e3aff6301483045022100ecdb608024d7fb713a8f4e092beeae5c4b697ff95e1a1addfd5ae052446045a102202c056a27fcf6f263a6beac2b7bfd5321912daca4474b8191a7e049aa8d60b4a4016952210211757e2b6f0b409ad6f15f7ae83360bd86e2b7b1b8d22c5d7753cd6024db942d2102242e3782f6d65d65165fdaf3281d3e77c4d8f658f7cfc9534bfe245cfb07b2f12102e75dd15f5545f6a7bc498bc9695228fa09857589f49120a494a9253e6933582f53ae00000400483045022100fc371a0864b3c4aaf9fbbfa79f0b1aaa74fdb4d93e44784180311755d5740b01022050f873128da10718afdaac34ddbfccbcf04030665035c4d390b37fe9d40fb07001483045022100d3cf561a3a630b16f868fbe743481c3d837d90b17d8bacc7121596edc2fd345502203099331914081b5558ca4c6b7304a42a57dd816ad185f1dae21ab3f298936fef016952210211757e2b6f0b409ad6f15f7ae83360bd86e2b7b1b8d22c5d7753cd6024db942d2102242e3782f6d65d65165fdaf3281d3e77c4d8f658f7cfc9534bfe245cfb07b2f12102e75dd15f5545f6a7bc498bc9695228fa09857589f49120a494a9253e6933582f53ae000400483045022100c72e35b27ffc199994b29f267c1a55b31b7caf9320317d7fc53d7342d867945f02200656b41f431ac6c3aeee2442f12e6e9030b8afb402718b14a42655b788fafaf30148304502210086682abfe2743a9f4cdc66f7cdeb05ad60b2b25c59097ade5aabce9fe80cccb3022035fd1cdbdf2dbb03e9d649acb72a19c0d536e23cd9a673ff5e02b3ccb1438d17016952210211757e2b6f0b409ad6f15f7ae83360bd86e2b7b1b8d22c5d7753cd6024db942d2102242e3782f6d65d65165fdaf3281d3e77c4d8f658f7cfc9534bfe245cfb07b2f12102e75dd15f5545f6a7bc498bc9695228fa09857589f49120a494a9253e6933582f53ae0000000000", "vin": [{"txinwitness": ["", "3045022100e93bdb80a8f521904f104a84d8ee2542324ff68a1f967984b2f71684bc9f03a6022016efa394117b4b45602734a87a20d4844092ab8d3a6089f5938b3a9e0e3aff6301", "3045022100ecdb608024d7fb713a8f4e092beeae5c4b697ff95e1a1addfd5ae052446045a102202c056a27fcf6f263a6beac2b7bfd5321912daca4474b8191a7e049aa8d60b4a401", "52210211757e2b6f0b409ad6f15f7ae83360bd86e2b7b1b8d22c5d7753cd6024db942d2102242e3782f6d65d65165fdaf3281d3e77c4d8f658f7cfc9534bfe245cfb07b2f12102e75dd15f5545f6a7bc498bc9695228fa09857589f49120a494a9253e6933582f53ae"], "sequence": 4294967295, "scriptSig": {"hex": "2200208c5d5039c0601e7aa3433c4d3750185067c6cb012d88777009961c7a0aa9cb53", "asm": "00208c5d5039c0601e7aa3433c4d3750185067c6cb012d88777009961c7a0aa9cb53"}, "vout": 162, "txid": "f457935aa0fbad911a7f27c358d006e4158421a9e70beea3df89fc77c99c9f30"}, {"sequence": 4294967295, "scriptSig": {"hex": "00483045022100922b25cb1e156a42f5ce51f3e4f0e5177402870b50c38763cb0a1a81d9cd400802200b7eeeb828b37800254c7a8d835a441583cd327f888279bb87c20c0cd36297ea0147304402200a76f17769fb7ff298fc303fe34c2f60a5a86a14c22af0c60406607054b17a600220117d0ce7e66fa65257cd1d20188fda1d47ea89954edb8803d30b482c2fddc61d014c695221022e4283a80d413af0b23581cb47633ae9229e3bb74b05414a2bc55599b4f240ac2103428d60a059a103e8b8c9d09f9c0a43b811a763c63be55b0b96634cb3a74d1b4e2103b6e889c6dc38a6cc1b697f5603ef104df2cb7264a466b00fe761ac4c8252340353ae", "asm": "0 3045022100922b25cb1e156a42f5ce51f3e4f0e5177402870b50c38763cb0a1a81d9cd400802200b7eeeb828b37800254c7a8d835a441583cd327f888279bb87c20c0cd36297ea[ALL] 304402200a76f17769fb7ff298fc303fe34c2f60a5a86a14c22af0c60406607054b17a600220117d0ce7e66fa65257cd1d20188fda1d47ea89954edb8803d30b482c2fddc61d[ALL] 5221022e4283a80d413af0b23581cb47633ae9229e3bb74b05414a2bc55599b4f240ac2103428d60a059a103e8b8c9d09f9c0a43b811a763c63be55b0b96634cb3a74d1b4e2103b6e889c6dc38a6cc1b697f5603ef104df2cb7264a466b00fe761ac4c8252340353ae"}, "vout": 557, "txid": "a18ec1105ec6dbca6773d7fd086cff90cd68e4540f665fd687ddee97417dee3c"}, {"sequence": 4294967295, "scriptSig": {"hex": "00483045022100b5166a4eee95c10026228a57fd417d68f9d1c6e7ab402e434f375a5e9b17e17002203b56b2f1ce42f1402d9e3fcb0b87ddf7e86cac64dc4ade7c9f0ba4caef2ea5a601473044022007ea8c8f32ec7d562615eb8379f12c554d51f2b860b89984393db71d567cbfed022030b4a36c1c82ff45f29aad4293f5d954db76ee3129a3fc45ea3bc0063b1ae225014c695221022e4283a80d413af0b23581cb47633ae9229e3bb74b05414a2bc55599b4f240ac2103428d60a059a103e8b8c9d09f9c0a43b811a763c63be55b0b96634cb3a74d1b4e2103b6e889c6dc38a6cc1b697f5603ef104df2cb7264a466b00fe761ac4c8252340353ae", "asm": "0 3045022100b5166a4eee95c10026228a57fd417d68f9d1c6e7ab402e434f375a5e9b17e17002203b56b2f1ce42f1402d9e3fcb0b87ddf7e86cac64dc4ade7c9f0ba4caef2ea5a6[ALL] 3044022007ea8c8f32ec7d562615eb8379f12c554d51f2b860b89984393db71d567cbfed022030b4a36c1c82ff45f29aad4293f5d954db76ee3129a3fc45ea3bc0063b1ae225[ALL] 5221022e4283a80d413af0b23581cb47633ae9229e3bb74b05414a2bc55599b4f240ac2103428d60a059a103e8b8c9d09f9c0a43b811a763c63be55b0b96634cb3a74d1b4e2103b6e889c6dc38a6cc1b697f5603ef104df2cb7264a466b00fe761ac4c8252340353ae"}, "vout": 562, "txid": "1e60620d06aeafcd2aec33f18c6e1a8946c0495af710ba8910637f2fcad2daef"}, {"txinwitness": ["", "3045022100fc371a0864b3c4aaf9fbbfa79f0b1aaa74fdb4d93e44784180311755d5740b01022050f873128da10718afdaac34ddbfccbcf04030665035c4d390b37fe9d40fb07001", "3045022100d3cf561a3a630b16f868fbe743481c3d837d90b17d8bacc7121596edc2fd345502203099331914081b5558ca4c6b7304a42a57dd816ad185f1dae21ab3f298936fef01", "52210211757e2b6f0b409ad6f15f7ae83360bd86e2b7b1b8d22c5d7753cd6024db942d2102242e3782f6d65d65165fdaf3281d3e77c4d8f658f7cfc9534bfe245cfb07b2f12102e75dd15f5545f6a7bc498bc9695228fa09857589f49120a494a9253e6933582f53ae"], "sequence": 4294967295, "scriptSig": {"hex": "2200208c5d5039c0601e7aa3433c4d3750185067c6cb012d88777009961c7a0aa9cb53", "asm": "00208c5d5039c0601e7aa3433c4d3750185067c6cb012d88777009961c7a0aa9cb53"}, "vout": 155, "txid": "059fd8debebc091c28b26c895b46186386d5acd7413473242d579a79748c4ec9"}, {"sequence": 4294967295, "scriptSig": {"hex": "00473044022027bdf852cd1a2e7cc6696b360e330f099cc67a39b0b9d00db1b181b1a08e154b0220556d1b0a07d4d8c376ca81e9095bf282eb23bb7075a43f25a264bfc075b1c20e01473044022011b26a38eebbf9764a91c2e218f0af32847ec1b69f3ee0ea72a72105f0fcec31022017aafd4b660bb3227d3dbb18f0239de59629e301b3ec25c6ef42df9f457e221d014c695221022e4283a80d413af0b23581cb47633ae9229e3bb74b05414a2bc55599b4f240ac2103428d60a059a103e8b8c9d09f9c0a43b811a763c63be55b0b96634cb3a74d1b4e2103b6e889c6dc38a6cc1b697f5603ef104df2cb7264a466b00fe761ac4c8252340353ae", "asm": "0 3044022027bdf852cd1a2e7cc6696b360e330f099cc67a39b0b9d00db1b181b1a08e154b0220556d1b0a07d4d8c376ca81e9095bf282eb23bb7075a43f25a264bfc075b1c20e[ALL] 3044022011b26a38eebbf9764a91c2e218f0af32847ec1b69f3ee0ea72a72105f0fcec31022017aafd4b660bb3227d3dbb18f0239de59629e301b3ec25c6ef42df9f457e221d[ALL] 5221022e4283a80d413af0b23581cb47633ae9229e3bb74b05414a2bc55599b4f240ac2103428d60a059a103e8b8c9d09f9c0a43b811a763c63be55b0b96634cb3a74d1b4e2103b6e889c6dc38a6cc1b697f5603ef104df2cb7264a466b00fe761ac4c8252340353ae"}, "vout": 565, "txid": "0554b24e65b2efe4c6a18d19383a0f132e8e01f0d12f30bfa918afe2bffa5d52"}, {"txinwitness": ["", "3045022100c72e35b27ffc199994b29f267c1a55b31b7caf9320317d7fc53d7342d867945f02200656b41f431ac6c3aeee2442f12e6e9030b8afb402718b14a42655b788fafaf301", "304502210086682abfe2743a9f4cdc66f7cdeb05ad60b2b25c59097ade5aabce9fe80cccb3022035fd1cdbdf2dbb03e9d649acb72a19c0d536e23cd9a673ff5e02b3ccb1438d1701", "52210211757e2b6f0b409ad6f15f7ae83360bd86e2b7b1b8d22c5d7753cd6024db942d2102242e3782f6d65d65165fdaf3281d3e77c4d8f658f7cfc9534bfe245cfb07b2f12102e75dd15f5545f6a7bc498bc9695228fa09857589f49120a494a9253e6933582f53ae"], "sequence": 4294967295, "scriptSig": {"hex": "2200208c5d5039c0601e7aa3433c4d3750185067c6cb012d88777009961c7a0aa9cb53", "asm": "00208c5d5039c0601e7aa3433c4d3750185067c6cb012d88777009961c7a0aa9cb53"}, "vout": 137, "txid": "f6f033cc27f31bb46ac9f83496cdc498d8d67baf5f910abd87faa1b393bf24ed"}, {"sequence": 4294967295, "scriptSig": {"hex": "004730440220680d59539f34d2b58a348b6c470f6bc6c473a3957244be22352f17ec2c3d5dbc02201ed2c02207296087a269ca1f7ebc8f76b217aba5271e0f032f8a6cf636f6a1900147304402207f7ed1408a72a755a91560b96aeca7b3026e7ba814bef99a59adbc29fa1a8bce0220546ddd50cd3cd73f30bca1a874b240d2fa68fe731665a38f91b8c9973a445b7c014c695221022e4283a80d413af0b23581cb47633ae9229e3bb74b05414a2bc55599b4f240ac2103428d60a059a103e8b8c9d09f9c0a43b811a763c63be55b0b96634cb3a74d1b4e2103b6e889c6dc38a6cc1b697f5603ef104df2cb7264a466b00fe761ac4c8252340353ae", "asm": "0 30440220680d59539f34d2b58a348b6c470f6bc6c473a3957244be22352f17ec2c3d5dbc02201ed2c02207296087a269ca1f7ebc8f76b217aba5271e0f032f8a6cf636f6a190[ALL] 304402207f7ed1408a72a755a91560b96aeca7b3026e7ba814bef99a59adbc29fa1a8bce0220546ddd50cd3cd73f30bca1a874b240d2fa68fe731665a38f91b8c9973a445b7c[ALL] 5221022e4283a80d413af0b23581cb47633ae9229e3bb74b05414a2bc55599b4f240ac2103428d60a059a103e8b8c9d09f9c0a43b811a763c63be55b0b96634cb3a74d1b4e2103b6e889c6dc38a6cc1b697f5603ef104df2cb7264a466b00fe761ac4c8252340353ae"}, "vout": 557, "txid": "eb10fe10208663c24760683626043ade998c9e5fdc30aa24378d1c704736f02b"}], "txid": "2154b6693fbf8e51ae3f944fe024decec8a01a812f932634c709a8187313c38b", "blocktime": 1537871767, "version": 1, "confirmations": 11493, "time": 1537871767, "locktime": 0, "vsize": 1674, "size": 2250}