{"hash": "b89d96a7baf7dcaa8a5c6bf55e101b075ba03786d213c6a399bcb5d1eb9d1e13", "blockhash": "0000000000000000001f0ddff1eddb255c1121bcd4da4f1bc9a0da00cae72433", "vout": [{"scriptPubKey": {"reqSigs": 1, "hex": "a9147ec00caed40b5907a9c7222dc9eaa58633628d1b87", "addresses": ["3DFD8YtHUtzC6bENfJnymsixTP1Ctk6UWd"], "asm": "OP_HASH160 7ec00caed40b5907a9c7222dc9eaa58633628d1b OP_EQUAL", "type": "scripthash"}, "value": 0.07764999, "n": 0}, {"scriptPubKey": {"reqSigs": 1, "hex": "a914a6bf5cbd815482962c3d28efdca85cd17bb4b33387", "addresses": ["3GthLUGeL47bMoTThwoTWM1tMSjtrPHaqH"], "asm": "OP_HASH160 a6bf5cbd815482962c3d28efdca85cd17bb4b333 OP_EQUAL", "type": "scripthash"}, "value": 0.00996318, "n": 1}], "hex": "02000000000106123b3d38f5057074e6a9343c8e020ce09728807f739a0e8581b758fc0a8eccd601000000171600149daacfe33edf2849b213b365f374c2d77c6c6071feffffff7d305d825cd2c50a6c5435b5e982313938d54ea69d62562298e981e2b57c9d96010000001716001449da162e2700b5f2802e01543adb59abdacb4c90feffffffa71e7543ac89f1473ddfd25c9511fcf8ca9c21b6228f9e63fd4ff7c46ddb0a3809000000171600142e17dfb2bdeb9e4e0079e2c7025dfb0395885efafeffffffd9152207c06bdb2aac3331525a141ce95cc18b5f08d47ccd47eeff8b2542ae2200000000171600144b236af56285ac0fdfa3f615ee31e1e41d44c829feffffffdfb96d7a19498c6a779544926a934cae40ce603af15c13e3a4343b084d88d07a0100000017160014b80eaf2a4567e9122912358a0b76981be5342c88fefffffffa6449af417081104196fad8b8bab4b186415eb4cd98e0e0c98ed118ee9f14370100000017160014668908ca9237100a2b85e410dbc41369e2f5d01afeffffff02077c76000000000017a9147ec00caed40b5907a9c7222dc9eaa58633628d1b87de330f000000000017a914a6bf5cbd815482962c3d28efdca85cd17bb4b333870248304502210088f54f6ca0f4a948db28d45cad92471488ada8120b9120f76b9e9a95a8a0fa75022033aa2558f820066c53ea7302cb093d7e454fcfcd29feae05f1ae1826c6345152012102cab35e3802d7ca1b20a2e8ed0769e5796670bbcb2dffa8ce61df3b972c76342202473044022040d5ed58c7b34ec7ffb97b367f1dd43b5b6d2464a8b38108c62b97f75f99d13f022022fdf39cae07c77c7d92130e5d0db80bca8877d61619a87d3e13067a44818bb70121029e8b459013a5795d50e9ea5f319a01aa2e882ae1b598ba79974ba2bf503ca89d02483045022100a75e2b499e0c3af6562fda181cc57fc95328cc5a67b280a088b781f752cf5d8d02206f0d1e8a4be3c6396acc6298d8b5b00e83bf28dc8c323e86fc52d5cbd7f7d27401210259cf68ba2129671f1655c030ceb44488f2ef76e58fbb5dd72b47a802d682401a02473044022054dcb97f017a440908119b2cdafaa53bc62b7e71acf2601a6ef9622223407d3d02203cf5e8ad9f1b97bf97b87e61503a60a1721970c3a539f5e33cf5eafaf5847f150121035abb2221fe6668681253fae20247b2549b85cc53645efd3170db5193e0425de9024730440220312117cba7aaac433359acd603fa4b60b8fdf15d56046d560f4a4999e925f430022021ff59c035681304b76472de73cfbfaeec17ae1ecaf9bc4d9254875bc1980150012102ec7c0b32335f908bfecb503d00021c9a0b8b073fcc5a766e882fb629fd1e0f470247304402203a16a8df2fcb5638e8c1e0aad170964bf8b96fe8f30aa348f753309d1e0d346902207e07ec06d26928b37eb78895a89cf66ac0514933b0c1acafa5bf61b380791054012102c2cad6fc5fb678360317bafd24309452fc8dcb219add0ba00062b0493e16fdd211490800", "vin": [{"txinwitness": ["304502210088f54f6ca0f4a948db28d45cad92471488ada8120b9120f76b9e9a95a8a0fa75022033aa2558f820066c53ea7302cb093d7e454fcfcd29feae05f1ae1826c634515201", "02cab35e3802d7ca1b20a2e8ed0769e5796670bbcb2dffa8ce61df3b972c763422"], "sequence": 4294967294, "scriptSig": {"hex": "1600149daacfe33edf2849b213b365f374c2d77c6c6071", "asm": "00149daacfe33edf2849b213b365f374c2d77c6c6071"}, "vout": 1, "txid": "d6cc8e0afc58b781850e9a737f802897e00c028e3c34a9e6747005f5383d3b12"}, {"txinwitness": ["3044022040d5ed58c7b34ec7ffb97b367f1dd43b5b6d2464a8b38108c62b97f75f99d13f022022fdf39cae07c77c7d92130e5d0db80bca8877d61619a87d3e13067a44818bb701", "029e8b459013a5795d50e9ea5f319a01aa2e882ae1b598ba79974ba2bf503ca89d"], "sequence": 4294967294, "scriptSig": {"hex": "16001449da162e2700b5f2802e01543adb59abdacb4c90", "asm": "001449da162e2700b5f2802e01543adb59abdacb4c90"}, "vout": 1, "txid": "969d7cb5e281e9982256629da64ed538393182e9b535546c0ac5d25c825d307d"}, {"txinwitness": ["3045022100a75e2b499e0c3af6562fda181cc57fc95328cc5a67b280a088b781f752cf5d8d02206f0d1e8a4be3c6396acc6298d8b5b00e83bf28dc8c323e86fc52d5cbd7f7d27401", "0259cf68ba2129671f1655c030ceb44488f2ef76e58fbb5dd72b47a802d682401a"], "sequence": 4294967294, "scriptSig": {"hex": "1600142e17dfb2bdeb9e4e0079e2c7025dfb0395885efa", "asm": "00142e17dfb2bdeb9e4e0079e2c7025dfb0395885efa"}, "vout": 9, "txid": "380adb6dc4f74ffd639e8f22b6219ccaf8fc11955cd2df3d47f189ac43751ea7"}, {"txinwitness": ["3044022054dcb97f017a440908119b2cdafaa53bc62b7e71acf2601a6ef9622223407d3d02203cf5e8ad9f1b97bf97b87e61503a60a1721970c3a539f5e33cf5eafaf5847f1501", "035abb2221fe6668681253fae20247b2549b85cc53645efd3170db5193e0425de9"], "sequence": 4294967294, "scriptSig": {"hex": "1600144b236af56285ac0fdfa3f615ee31e1e41d44c829", "asm": "00144b236af56285ac0fdfa3f615ee31e1e41d44c829"}, "vout": 0, "txid": "22ae42258bffee47cd7cd4085f8bc15ce91c145a523133ac2adb6bc0072215d9"}, {"txinwitness": ["30440220312117cba7aaac433359acd603fa4b60b8fdf15d56046d560f4a4999e925f430022021ff59c035681304b76472de73cfbfaeec17ae1ecaf9bc4d9254875bc198015001", "02ec7c0b32335f908bfecb503d00021c9a0b8b073fcc5a766e882fb629fd1e0f47"], "sequence": 4294967294, "scriptSig": {"hex": "160014b80eaf2a4567e9122912358a0b76981be5342c88", "asm": "0014b80eaf2a4567e9122912358a0b76981be5342c88"}, "vout": 1, "txid": "7ad0884d083b34a4e3135cf13a60ce40ae4c936a924495776a8c49197a6db9df"}, {"txinwitness": ["304402203a16a8df2fcb5638e8c1e0aad170964bf8b96fe8f30aa348f753309d1e0d346902207e07ec06d26928b37eb78895a89cf66ac0514933b0c1acafa5bf61b38079105401", "02c2cad6fc5fb678360317bafd24309452fc8dcb219add0ba00062b0493e16fdd2"], "sequence": 4294967294, "scriptSig": {"hex": "160014668908ca9237100a2b85e410dbc41369e2f5d01a", "asm": "0014668908ca9237100a2b85e410dbc41369e2f5d01a"}, "vout": 1, "txid": "37149fee18d18ec9e0e098cdb45e4186b1b4bab8d8fa964110817041af4964fa"}], "txid": "215480305de588911b245c554d315f9c43747290475a3be485634fed16e0d03a", "blocktime": 1537872018, "version": 2, "confirmations": 11489, "time": 1537872018, "locktime": 542993, "vsize": 620, "size": 1104}