{"hash": "2156b89fd76a49b3dc70050599ce58005661ed5b32eca18a7dae8e3377c56a39", "blockhash": "0000000000000000001cda96e906b7601b7a6fb1a3b62bca570a9e5d8f4b3de1", "vout": [{"scriptPubKey": {"type": "nulldata", "hex": "6a4c50000077d100018db13301a1b9b350ec67fd425b23cc0f42c2fc38c5e5bf9ae76da98a211a3cc616770e89ddbb7fc9a7f4c6f763565baa14480613be1a3ec7129e1d100759d4ba30d2c37bb011d97e02cf", "asm": "OP_RETURN 000077d100018db13301a1b9b350ec67fd425b23cc0f42c2fc38c5e5bf9ae76da98a211a3cc616770e89ddbb7fc9a7f4c6f763565baa14480613be1a3ec7129e1d100759d4ba30d2c37bb011d97e02cf"}, "value": 0.0, "n": 0}, {"scriptPubKey": {"reqSigs": 1, "hex": "76a9149c8c5c5957f2b03c5d09573107e462c7fd61ddd188ac", "addresses": ["1FGkZMv6pBimjuij2vi9BLJqfwQAS8yytk"], "asm": "OP_DUP OP_HASH160 9c8c5c5957f2b03c5d09573107e462c7fd61ddd1 OP_EQUALVERIFY OP_CHECKSIG", "type": "pubkeyhash"}, "value": 0.00636309, "n": 1}], "hex": "0100000001ec0d92b8b2ce6c44319cdd0ed738af87b8e91d9ac152019a43074ce40b8fa4d2010000006b483045022100be1771d35dd5eff34d56e435c41a542eca1d48863cb8a3acf0df98da65fff8b5022079d7e6c4d3ceb29140d7de308585b0698bf39051a3af3cf214295449b56e147f0121023401ee978b627492cb76d068e0af320464522521955ec7ad05d9e3520b2b5a0bffffffff020000000000000000536a4c50000077d100018db13301a1b9b350ec67fd425b23cc0f42c2fc38c5e5bf9ae76da98a211a3cc616770e89ddbb7fc9a7f4c6f763565baa14480613be1a3ec7129e1d100759d4ba30d2c37bb011d97e02cf95b50900000000001976a9149c8c5c5957f2b03c5d09573107e462c7fd61ddd188ac00000000", "vin": [{"sequence": 4294967295, "scriptSig": {"hex": "483045022100be1771d35dd5eff34d56e435c41a542eca1d48863cb8a3acf0df98da65fff8b5022079d7e6c4d3ceb29140d7de308585b0698bf39051a3af3cf214295449b56e147f0121023401ee978b627492cb76d068e0af320464522521955ec7ad05d9e3520b2b5a0b", "asm": "3045022100be1771d35dd5eff34d56e435c41a542eca1d48863cb8a3acf0df98da65fff8b5022079d7e6c4d3ceb29140d7de308585b0698bf39051a3af3cf214295449b56e147f[ALL] 023401ee978b627492cb76d068e0af320464522521955ec7ad05d9e3520b2b5a0b"}, "vout": 1, "txid": "d2a48f0be44c07439a0152c19a1de9b887af38d70edd9c31446cceb2b8920dec"}], "txid": "2156b89fd76a49b3dc70050599ce58005661ed5b32eca18a7dae8e3377c56a39", "blocktime": 1537873282, "version": 1, "confirmations": 11484, "time": 1537873282, "locktime": 0, "vsize": 284, "size": 284}