{"hash": "2158357c82af9a624af2e68aca0d92f03ace8a964a543c88eb984ccb0fc7d44f", "blockhash": "00000000000000000018f53835495a110e01622372bf6ae95dc86f2b0ab887b0", "vout": [{"scriptPubKey": {"reqSigs": 1, "hex": "76a9143aab976d5bce65732dc277927d26d4232c61626b88ac", "addresses": ["16MDkWnHVgTwa8FHPqEnSwe2vwq8JKsKmg"], "asm": "OP_DUP OP_HASH160 3aab976d5bce65732dc277927d26d4232c61626b OP_EQUALVERIFY OP_CHECKSIG", "type": "pubkeyhash"}, "value": 2.124e-05, "n": 0}, {"scriptPubKey": {"reqSigs": 1, "hex": "a9141ebe85d98461bccd9e006c074d6b88b689b341df87", "addresses": ["34VaS4Le2MnPh19p9AfHwVKj1E4Ksqpq3j"], "asm": "OP_HASH160 1ebe85d98461bccd9e006c074d6b88b689b341df OP_EQUAL", "type": "scripthash"}, "value": 0.0025686, "n": 1}], "hex": "0100000001c146a6bb042898a369c46414bb78a871f49c6ff9bc0246e43a5a19a8e9492a84000000006b4830450221009a32480dbc80ad4052c1da2955a12f32fc0a1ea0d9b36972a7dead73e015b16402203d9b5c7ddd45f1935ca2dc2d6a7aa57fbc4b8acfb7a10a4c0edf2692edd5730001210382d162fb2ba0f922050662684b25596a3e8448b0e174809e24c262125b5f5634ffffffff024c080000000000001976a9143aab976d5bce65732dc277927d26d4232c61626b88ac5ceb03000000000017a9141ebe85d98461bccd9e006c074d6b88b689b341df8700000000", "vin": [{"sequence": 4294967295, "scriptSig": {"hex": "4830450221009a32480dbc80ad4052c1da2955a12f32fc0a1ea0d9b36972a7dead73e015b16402203d9b5c7ddd45f1935ca2dc2d6a7aa57fbc4b8acfb7a10a4c0edf2692edd5730001210382d162fb2ba0f922050662684b25596a3e8448b0e174809e24c262125b5f5634", "asm": "30450221009a32480dbc80ad4052c1da2955a12f32fc0a1ea0d9b36972a7dead73e015b16402203d9b5c7ddd45f1935ca2dc2d6a7aa57fbc4b8acfb7a10a4c0edf2692edd57300[ALL] 0382d162fb2ba0f922050662684b25596a3e8448b0e174809e24c262125b5f5634"}, "vout": 0, "txid": "842a49e9a8195a3ae44602bcf96f9cf471a878bb1464c469a3982804bba646c1"}], "txid": "2158357c82af9a624af2e68aca0d92f03ace8a964a543c88eb984ccb0fc7d44f", "blocktime": 1537870928, "version": 1, "confirmations": 11514, "time": 1537870928, "locktime": 0, "vsize": 224, "size": 224}