{"hash": "2159d27eb15790b528d7c2998a306612801d0936d0310700fc3c9e723cb8cedb", "blockhash": "00000000000000000018f53835495a110e01622372bf6ae95dc86f2b0ab887b0", "vout": [{"scriptPubKey": {"reqSigs": 1, "hex": "76a91477237e713a59454d42d6742c335d73783d610e7a88ac", "addresses": ["1BrwvzKb75wRQapsuGa1muEWVBN554UWqy"], "asm": "OP_DUP OP_HASH160 77237e713a59454d42d6742c335d73783d610e7a OP_EQUALVERIFY OP_CHECKSIG", "type": "pubkeyhash"}, "value": 0.02181292, "n": 0}, {"scriptPubKey": {"reqSigs": 1, "hex": "76a914000d53a503b4b04b28ee1c5cdf6ed0e78127e1bf88ac", "addresses": ["11GxxZND1Zi3Enc9HPW1YN3G5YQ2j9J8f"], "asm": "OP_DUP OP_HASH160 000d53a503b4b04b28ee1c5cdf6ed0e78127e1bf OP_EQUALVERIFY OP_CHECKSIG", "type": "pubkeyhash"}, "value": 3.12225367, "n": 1}], "hex": "0100000001f3858e332b1297eefcac5a6fcb16b6faafed0926c9d7089a687b9795a0893286000000006a4730440220190c91f689c450e67d76d115e0d0d891a95995ec54a9b570e988c5c470ad5576022000cac36e1d10e28380c12bb658aa75172a0d1058abb3075daba4e71127045db2012102f19ed2810eecda31ea1b957bc2ca110ee0aa755bdaac8175ad40b5add7d0a101ffffffff02ac482100000000001976a91477237e713a59454d42d6742c335d73783d610e7a88ac572e9c12000000001976a914000d53a503b4b04b28ee1c5cdf6ed0e78127e1bf88ac00000000", "vin": [{"sequence": 4294967295, "scriptSig": {"hex": "4730440220190c91f689c450e67d76d115e0d0d891a95995ec54a9b570e988c5c470ad5576022000cac36e1d10e28380c12bb658aa75172a0d1058abb3075daba4e71127045db2012102f19ed2810eecda31ea1b957bc2ca110ee0aa755bdaac8175ad40b5add7d0a101", "asm": "30440220190c91f689c450e67d76d115e0d0d891a95995ec54a9b570e988c5c470ad5576022000cac36e1d10e28380c12bb658aa75172a0d1058abb3075daba4e71127045db2[ALL] 02f19ed2810eecda31ea1b957bc2ca110ee0aa755bdaac8175ad40b5add7d0a101"}, "vout": 0, "txid": "863289a095977b689a08d7c92609edaffab616cb6f5aacfcee97122b338e85f3"}], "txid": "2159d27eb15790b528d7c2998a306612801d0936d0310700fc3c9e723cb8cedb", "blocktime": 1537870928, "version": 1, "confirmations": 11512, "time": 1537870928, "locktime": 0, "vsize": 225, "size": 225}