{"hash": "f8009d976bc43c057bcc7d7f401c485a733d1cc99ab780c9f8d0af19b36fa601", "blockhash": "0000000000000000000baef3f32e3676a92c3b2e5da21b426e4f302fc371ce76", "vout": [{"scriptPubKey": {"reqSigs": 1, "hex": "a91482e7e273ec4e0dff2590e50d5fec2ebc665cd1f787", "addresses": ["3DdBZ734DjaqBf29PvjxWv9mvU6VaQEs8H"], "asm": "OP_HASH160 82e7e273ec4e0dff2590e50d5fec2ebc665cd1f7 OP_EQUAL", "type": "scripthash"}, "value": 59.48420968, "n": 0}, {"scriptPubKey": {"reqSigs": 1, "hex": "a914683860111397109d9ac59e0106cf5ad0ab432dcf87", "addresses": ["3BC5jWsiJxdRqtCMBSTrTzRAc3BiGMoaJg"], "asm": "OP_HASH160 683860111397109d9ac59e0106cf5ad0ab432dcf OP_EQUAL", "type": "scripthash"}, "value": 0.08, "n": 1}, {"scriptPubKey": {"reqSigs": 1, "hex": "76a914f280941f3bca565b12bec02b623f0b93c60a6e7d88ac", "addresses": ["1P7EZDoqawu1SmHL3tYvXrcDkmUnwKmtkk"], "asm": "OP_DUP OP_HASH160 f280941f3bca565b12bec02b623f0b93c60a6e7d OP_EQUALVERIFY OP_CHECKSIG", "type": "pubkeyhash"}, "value": 0.4150539, "n": 2}, {"scriptPubKey": {"reqSigs": 1, "hex": "76a914c3dadae1fa315522ec81a182de801f313e4196d088ac", "addresses": ["1JrawijvTcL3Xf5FxHHz8X2omxvmNeMfWu"], "asm": "OP_DUP OP_HASH160 c3dadae1fa315522ec81a182de801f313e4196d0 OP_EQUALVERIFY OP_CHECKSIG", "type": "pubkeyhash"}, "value": 0.00189556, "n": 3}], "hex": "01000000000101b8a6ad586491ed880748fa32ce5ca3ce3da80c06846bd98d57fd10f2703960d30000000023220020396e410c1f0faa6cf44962c0624cd22732a29701c600c1d906e0db9f939fa239ffffffff0468b38d620100000017a91482e7e273ec4e0dff2590e50d5fec2ebc665cd1f78700127a000000000017a914683860111397109d9ac59e0106cf5ad0ab432dcf876e527902000000001976a914f280941f3bca565b12bec02b623f0b93c60a6e7d88ac74e40200000000001976a914c3dadae1fa315522ec81a182de801f313e4196d088ac03473044022072899502b4ab7542b38bc46136387d40d79eae4c632b201d3b714f5f6f843f1e022053bc02b41ecb7d05a09b0fa9837da83acbb7836c269f7de215293980d6a0d869012102d941dfddbc2339802d015e0777dc30cd416ff591acd587c3e34824c6583b4dac1976a914d1cd43434d93559101682b017ed06e55a1c7119e88ac00000000", "vin": [{"txinwitness": ["3044022072899502b4ab7542b38bc46136387d40d79eae4c632b201d3b714f5f6f843f1e022053bc02b41ecb7d05a09b0fa9837da83acbb7836c269f7de215293980d6a0d86901", "02d941dfddbc2339802d015e0777dc30cd416ff591acd587c3e34824c6583b4dac", "76a914d1cd43434d93559101682b017ed06e55a1c7119e88ac"], "sequence": 4294967295, "scriptSig": {"hex": "220020396e410c1f0faa6cf44962c0624cd22732a29701c600c1d906e0db9f939fa239", "asm": "0020396e410c1f0faa6cf44962c0624cd22732a29701c600c1d906e0db9f939fa239"}, "vout": 0, "txid": "d3603970f210fd578dd96b84060ca83dcea35cce32fa480788ed916458ada6b8"}], "txid": "215ba86c5ff194a9026950432dd38ef278710bbc01a8c7a56ed93212f51ecdf6", "blocktime": 1537876114, "version": 1, "confirmations": 11460, "time": 1537876114, "locktime": 0, "vsize": 252, "size": 353}