{"hash": "b23ccb3852fb49ac917896db5ef50d327b634a9031af3a323ff5e49dd3e94fad", "blockhash": "0000000000000000001cda96e906b7601b7a6fb1a3b62bca570a9e5d8f4b3de1", "vout": [{"scriptPubKey": {"reqSigs": 1, "hex": "0014ae543d125b262afcccdfceb55058801054e00cd2", "addresses": ["bc1q4e2r6yjmyc40enxle664qkyqzp2wqrxjeykhcf"], "asm": "0 ae543d125b262afcccdfceb55058801054e00cd2", "type": "witness_v0_keyhash"}, "value": 1.975e-05, "n": 0}, {"scriptPubKey": {"reqSigs": 1, "hex": "a9141d3ab4e68f13e2068eec5f356cae41d1ef003c3387", "addresses": ["34MZr7gA6PNsx9CCiBTAsXETNcKRTVRjGG"], "asm": "OP_HASH160 1d3ab4e68f13e2068eec5f356cae41d1ef003c33 OP_EQUAL", "type": "scripthash"}, "value": 0.00044825, "n": 1}], "hex": "010000000001015a2ba6b4d0be6dbf46c487bcb45e410778cce0e590ff3e3838bc770a4f67c68f0100000000ffffffff02b707000000000000160014ae543d125b262afcccdfceb55058801054e00cd219af00000000000017a9141d3ab4e68f13e2068eec5f356cae41d1ef003c338702473044022013044dd3190808e977f12e83ede2e01754a3dd5b20416f3ba1e080bf5f679ff30220563a9d06cf983e8d10c1c592600264a663d9f0de81e8f45d0c806bd373b3965d012103932b302155e336ca9d3a5cb7131ffc1a16569a28c115509d09de85720f80dd1300000000", "vin": [{"txinwitness": ["3044022013044dd3190808e977f12e83ede2e01754a3dd5b20416f3ba1e080bf5f679ff30220563a9d06cf983e8d10c1c592600264a663d9f0de81e8f45d0c806bd373b3965d01", "03932b302155e336ca9d3a5cb7131ffc1a16569a28c115509d09de85720f80dd13"], "sequence": 4294967295, "scriptSig": {"hex": "", "asm": ""}, "vout": 1, "txid": "8fc6674f0a77bc38383eff90e5e0cc7807415eb4bc87c446bf6dbed0b4a62b5a"}], "txid": "2163259bce9ba6f39e8ca91493f57fc574d9a2a675dac46cf8a3d4335cfcbbbd", "blocktime": 1537873282, "version": 1, "confirmations": 11484, "time": 1537873282, "locktime": 0, "vsize": 142, "size": 223}