{"hash": "2166c37680813721f43d4a8277a08035c741c0d5ec8b90637562a5f5f99abd52", "blockhash": "0000000000000000001cda96e906b7601b7a6fb1a3b62bca570a9e5d8f4b3de1", "vout": [{"scriptPubKey": {"reqSigs": 1, "hex": "76a914d243e6abb9a60fbff430b421d2df4b7d59ec186088ac", "addresses": ["1LAnF8h3qMGx3TSwNUHVneBZUEpwE4gu3D"], "asm": "OP_DUP OP_HASH160 d243e6abb9a60fbff430b421d2df4b7d59ec1860 OP_EQUALVERIFY OP_CHECKSIG", "type": "pubkeyhash"}, "value": 0.00077314, "n": 0}, {"scriptPubKey": {"reqSigs": 1, "hex": "76a914e362dabb8bb329eaaa26524f7b7c8687d0f4fbbf88ac", "addresses": ["1MjJp58u79zCkfEUKd6e3WMdBUQrY4EZNw"], "asm": "OP_DUP OP_HASH160 e362dabb8bb329eaaa26524f7b7c8687d0f4fbbf OP_EQUALVERIFY OP_CHECKSIG", "type": "pubkeyhash"}, "value": 5.46e-06, "n": 1}, {"scriptPubKey": {"type": "nulldata", "hex": "6a146f6d6e69000000000000001f000000172fbccc30", "asm": "OP_RETURN 6f6d6e69000000000000001f000000172fbccc30"}, "value": 0.0, "n": 2}], "hex": "0100000001ca8221529741c0f3c9796f7e340bf134df854d4661412167974ea74575bb704c000000006b483045022100d9525245237f9f572ee039e8e812cff0bded844e2dea07453fc0f5aac43975610220639f599d8921d5c0096d6ce741eab40215191a69b686b5e763c55370f29be09d01210271977291b74f1f5f5c42157e8aae804664eaaeccfd097918450d37f28fb94d77ffffffff03022e0100000000001976a914d243e6abb9a60fbff430b421d2df4b7d59ec186088ac22020000000000001976a914e362dabb8bb329eaaa26524f7b7c8687d0f4fbbf88ac0000000000000000166a146f6d6e69000000000000001f000000172fbccc3000000000", "vin": [{"sequence": 4294967295, "scriptSig": {"hex": "483045022100d9525245237f9f572ee039e8e812cff0bded844e2dea07453fc0f5aac43975610220639f599d8921d5c0096d6ce741eab40215191a69b686b5e763c55370f29be09d01210271977291b74f1f5f5c42157e8aae804664eaaeccfd097918450d37f28fb94d77", "asm": "3045022100d9525245237f9f572ee039e8e812cff0bded844e2dea07453fc0f5aac43975610220639f599d8921d5c0096d6ce741eab40215191a69b686b5e763c55370f29be09d[ALL] 0271977291b74f1f5f5c42157e8aae804664eaaeccfd097918450d37f28fb94d77"}, "vout": 0, "txid": "4c70bb7545a74e9767214161464d85df34f10b347e6f79c9f3c04197522182ca"}], "txid": "2166c37680813721f43d4a8277a08035c741c0d5ec8b90637562a5f5f99abd52", "blocktime": 1537873282, "version": 1, "confirmations": 11483, "time": 1537873282, "locktime": 0, "vsize": 257, "size": 257}