{"hash": "6d70ee00aef1e87bf665c0e2a14657bcaa1048ac7bb5d0551215dd5554d478a1", "blockhash": "0000000000000000000e13cef7c366c0283d82e591d1acd082e914b08063cdf1", "vout": [{"scriptPubKey": {"reqSigs": 1, "hex": "a91409f4af8b65aa375907a8e7eff81419f001e183d087", "addresses": ["32bf8LDdJRGFuen16hRNrhcmr2KWDxeQte"], "asm": "OP_HASH160 09f4af8b65aa375907a8e7eff81419f001e183d0 OP_EQUAL", "type": "scripthash"}, "value": 0.0694461, "n": 0}, {"scriptPubKey": {"reqSigs": 1, "hex": "a91447e5026ca69c74b98a9210d98c6d6147070c198f87", "addresses": ["38FAF29nTzNP6Vd32THdApTML3pgpDZE7f"], "asm": "OP_HASH160 47e5026ca69c74b98a9210d98c6d6147070c198f OP_EQUAL", "type": "scripthash"}, "value": 1.092e-05, "n": 1}], "hex": "020000000001023c2c644c986e06bc38e1aa1630aeeb60a0cec5653899029ac7f7da8d857dca08000000001716001414b17c4958e4a7e0007fcc128c3b064ea688dc5cfeffffff82b912065947d7b51a26fbf4490b97da4f53c0238131563ed223a7914c75c2a70f000000171600147bda55c001d83cf65ac678b679d20c75c3840e5bfeffffff0262f769000000000017a91409f4af8b65aa375907a8e7eff81419f001e183d087440400000000000017a91447e5026ca69c74b98a9210d98c6d6147070c198f87024830450221008d9a98643a699e0fd0670d27afa81f4bdca3777ed096d4fdf1dfa80a6723f16b0220565002b5e6f36aabce04984fc955b9c1bcfc8775d2f1d5cee3a7f57a600143110121027eac9b2a8c773d35075b4658521dc3a428ae75c41f3564117e9f3327d0dc43b00247304402204b5d18951a94f14a753a542aec56344b1536d8309fde02c863c75a9e1d56ede502201f0b9f70b81f03ab70fb3d00862401bf455c305edfda4922a683e244e910fc82012102675f2b1118ffd4c30c5d1695582899bfc40fdb8bd5c30cacf9e6bbd9f443052010490800", "vin": [{"txinwitness": ["30450221008d9a98643a699e0fd0670d27afa81f4bdca3777ed096d4fdf1dfa80a6723f16b0220565002b5e6f36aabce04984fc955b9c1bcfc8775d2f1d5cee3a7f57a6001431101", "027eac9b2a8c773d35075b4658521dc3a428ae75c41f3564117e9f3327d0dc43b0"], "sequence": 4294967294, "scriptSig": {"hex": "16001414b17c4958e4a7e0007fcc128c3b064ea688dc5c", "asm": "001414b17c4958e4a7e0007fcc128c3b064ea688dc5c"}, "vout": 0, "txid": "08ca7d858ddaf7c79a02993865c5cea060ebae3016aae138bc066e984c642c3c"}, {"txinwitness": ["304402204b5d18951a94f14a753a542aec56344b1536d8309fde02c863c75a9e1d56ede502201f0b9f70b81f03ab70fb3d00862401bf455c305edfda4922a683e244e910fc8201", "02675f2b1118ffd4c30c5d1695582899bfc40fdb8bd5c30cacf9e6bbd9f4430520"], "sequence": 4294967294, "scriptSig": {"hex": "1600147bda55c001d83cf65ac678b679d20c75c3840e5b", "asm": "00147bda55c001d83cf65ac678b679d20c75c3840e5b"}, "vout": 15, "txid": "a7c2754c91a723d23e56318123c0534fda970b49f4fb261ab5d747590612b982"}], "txid": "2168a2b6a4c063279b5f5f00cb235b33e8b6fd94c8f34720084100bb1222d5ab", "blocktime": 1537871767, "version": 2, "confirmations": 11495, "time": 1537871767, "locktime": 542992, "vsize": 257, "size": 419}