{"hash": "6fb7d0ac185a8658a116c40d57213a1e693d63448b8bd730f77e8a12d844b974", "blockhash": "0000000000000000001cda96e906b7601b7a6fb1a3b62bca570a9e5d8f4b3de1", "vout": [{"scriptPubKey": {"reqSigs": 1, "hex": "a91430897cc6c9d69f6a2c2f1c651d51f22219f1a4f687", "addresses": ["367f4YWz1VCFaqBqwbTrzwi2b1h2U3w1AF"], "asm": "OP_HASH160 30897cc6c9d69f6a2c2f1c651d51f22219f1a4f6 OP_EQUAL", "type": "scripthash"}, "value": 0.00750028, "n": 0}, {"scriptPubKey": {"reqSigs": 1, "hex": "a914f0f01f26881c9520a14db6c60ac6f5fb51313e3887", "addresses": ["3PeykXh8gqBMWrnjC5hR6xhocNExhEAcJN"], "asm": "OP_HASH160 f0f01f26881c9520a14db6c60ac6f5fb51313e38 OP_EQUAL", "type": "scripthash"}, "value": 0.02421493, "n": 1}], "hex": "0100000000010179489ae3e76cb326393c2830cde81c92fbbf99710176034b5664b3475d4e395d0000000023220020bcf9f822194145acea0f3235f4107b5bf1a91b6b9f8489f63bf79ec29b360913ffffffff02cc710b000000000017a91430897cc6c9d69f6a2c2f1c651d51f22219f1a4f687f5f224000000000017a914f0f01f26881c9520a14db6c60ac6f5fb51313e38870400483045022100d0d9232eb1f7f8d30867ea2d1d86631228480c291a048b520fcffadb0e7d2c490220061df73aa83f775db257b886828ad2287fc2a2df1e2866fd2a24a70870b0ccf80147304402202b297cece85b1612d1f77ae91eb667e98824083bb41fa722b385817b5946a1a702204054849b728ce44e12ed53b22b288d765fa74a22d32b802f25d938971ffc00aa01695221026c8f72b9e63db63907115e65d4da86eaae595b22fdc85ec75301bb4adbf203582103806535be3e3920e5eedee92de5714188fd6a784f2bf7b04f87de0b9c3ae1ecdb21024b23bfdce2afcae7e28c42f7f79aa100f22931712c52d7414a526ba494d44a2553ae00000000", "vin": [{"txinwitness": ["", "3045022100d0d9232eb1f7f8d30867ea2d1d86631228480c291a048b520fcffadb0e7d2c490220061df73aa83f775db257b886828ad2287fc2a2df1e2866fd2a24a70870b0ccf801", "304402202b297cece85b1612d1f77ae91eb667e98824083bb41fa722b385817b5946a1a702204054849b728ce44e12ed53b22b288d765fa74a22d32b802f25d938971ffc00aa01", "5221026c8f72b9e63db63907115e65d4da86eaae595b22fdc85ec75301bb4adbf203582103806535be3e3920e5eedee92de5714188fd6a784f2bf7b04f87de0b9c3ae1ecdb21024b23bfdce2afcae7e28c42f7f79aa100f22931712c52d7414a526ba494d44a2553ae"], "sequence": 4294967295, "scriptSig": {"hex": "220020bcf9f822194145acea0f3235f4107b5bf1a91b6b9f8489f63bf79ec29b360913", "asm": "0020bcf9f822194145acea0f3235f4107b5bf1a91b6b9f8489f63bf79ec29b360913"}, "vout": 0, "txid": "5d394e5d47b364564b0376017199bffb921ce8cd30283c3926b36ce7e39a4879"}], "txid": "216a9d2942a34688e9e94c13af4490059466ecd4dbe815a90c56f2bc87cf4744", "blocktime": 1537873282, "version": 1, "confirmations": 11484, "time": 1537873282, "locktime": 0, "vsize": 214, "size": 405}