{"hash": "4cc11e85e4112b9477359725c2cc70655b8cf1c9a0570b5fc511273edb211217", "blockhash": "00000000000000000017f5eb5941039fbcee6240d03bc1f2f8e35350df66a1d8", "vout": [{"scriptPubKey": {"reqSigs": 1, "hex": "a9142367c0f649fe98e8ad986f7408c923dd61bb33e387", "addresses": ["34vDsCHH62stF3bwjTn1DLpEnZ6kikzNCq"], "asm": "OP_HASH160 2367c0f649fe98e8ad986f7408c923dd61bb33e3 OP_EQUAL", "type": "scripthash"}, "value": 0.00112, "n": 0}, {"scriptPubKey": {"reqSigs": 1, "hex": "00140cf9a24be06aa8ae356ccce8be4ae6b1c70b420e", "addresses": ["bc1qpnu6yjlqd252udtven5tujhxk8rskssw302xe4"], "asm": "0 0cf9a24be06aa8ae356ccce8be4ae6b1c70b420e", "type": "witness_v0_keyhash"}, "value": 1.17e-05, "n": 1}], "hex": "01000000000101cf7efdeb6c0abb426cc209389dce218ccd0e8a6a1b3a40792f2efe8c45c8646b0000000000ffffffff0280b501000000000017a9142367c0f649fe98e8ad986f7408c923dd61bb33e38792040000000000001600140cf9a24be06aa8ae356ccce8be4ae6b1c70b420e02483045022100a2dd4372b099c50625cc98b75c29d3641b94562b0b2bc336955bf4de0f82655902203fbec4968a8a874e4569b5a370c92da4f8db5a89675fbae20ebf0d93a7719f280121028a575c152340707836c19d8bbea2c3bb7f40ddefac78dabd5e5fb2e902cefcd000000000", "vin": [{"txinwitness": ["3045022100a2dd4372b099c50625cc98b75c29d3641b94562b0b2bc336955bf4de0f82655902203fbec4968a8a874e4569b5a370c92da4f8db5a89675fbae20ebf0d93a7719f2801", "028a575c152340707836c19d8bbea2c3bb7f40ddefac78dabd5e5fb2e902cefcd0"], "sequence": 4294967295, "scriptSig": {"hex": "", "asm": ""}, "vout": 0, "txid": "6b64c8458cfe2e2f79403a1b6a8a0ecd8c21ce9d3809c26c42bb0a6cebfd7ecf"}], "txid": "216bdbad765ab2ac3964cb4301b0b3faacf0d6fdbd22d9cb7458f84f909cfe38", "blocktime": 1537874412, "version": 1, "confirmations": 11467, "time": 1537874412, "locktime": 0, "vsize": 142, "size": 224}