{"hash": "216c87dc3d8436de47cca4b2ae21e5d1177ddef5b6624245009797c405a32d43", "blockhash": "0000000000000000001cda96e906b7601b7a6fb1a3b62bca570a9e5d8f4b3de1", "vout": [{"scriptPubKey": {"reqSigs": 1, "hex": "a9147157e5d813793e5f120373821761715663827a1087", "addresses": ["3C2KaU9CC9NgaWC41r2jjyZKXzQoVj1uSb"], "asm": "OP_HASH160 7157e5d813793e5f120373821761715663827a10 OP_EQUAL", "type": "scripthash"}, "value": 0.00043, "n": 0}, {"scriptPubKey": {"reqSigs": 1, "hex": "76a914e02cccaa2ebafe6219666d0ebdf4ebef58ce821988ac", "addresses": ["1MSL2h8VfGb1T7uxhbb79LLYeX8twQJhiK"], "asm": "OP_DUP OP_HASH160 e02cccaa2ebafe6219666d0ebdf4ebef58ce8219 OP_EQUALVERIFY OP_CHECKSIG", "type": "pubkeyhash"}, "value": 0.01503, "n": 1}, {"scriptPubKey": {"reqSigs": 1, "hex": "a914e541e906ee31fd1da6fd1afe7054e4cbe26f300187", "addresses": ["3NbDczrE3htkp7SQBWMS3fZZoS3Je56h6N"], "asm": "OP_HASH160 e541e906ee31fd1da6fd1afe7054e4cbe26f3001 OP_EQUAL", "type": "scripthash"}, "value": 0.02455, "n": 2}, {"scriptPubKey": {"reqSigs": 1, "hex": "76a914131baeeec4c7beb1c857c5cac8f852232472d97b88ac", "addresses": ["12k317kKEVTRehLrUoesM7SvSNH3Lc2Jns"], "asm": "OP_DUP OP_HASH160 131baeeec4c7beb1c857c5cac8f852232472d97b OP_EQUALVERIFY OP_CHECKSIG", "type": "pubkeyhash"}, "value": 0.06657792, "n": 3}, {"scriptPubKey": {"reqSigs": 1, "hex": "a91483fe26d0ba06d6b21bba0bed6c64c4d76eb664a987", "addresses": ["3DivuSMA7pfFeaS7rhJZhdoZT1179uyWmz"], "asm": "OP_HASH160 83fe26d0ba06d6b21bba0bed6c64c4d76eb664a9 OP_EQUAL", "type": "scripthash"}, "value": 0.1, "n": 4}, {"scriptPubKey": {"reqSigs": 1, "hex": "a914a494b8b96af7cb80bdd855f02a9793f6d6d4249087", "addresses": ["3GhEuMritbqTDpQPUpTWo9twSKZ8cU5sGi"], "asm": "OP_HASH160 a494b8b96af7cb80bdd855f02a9793f6d6d42490 OP_EQUAL", "type": "scripthash"}, "value": 0.216, "n": 5}, {"scriptPubKey": {"reqSigs": 1, "hex": "76a914d04c1e9b57f5658f7d74853e5120b4759924eab388ac", "addresses": ["1KzNjnG2EECB2Vg7DR3Brg4sYY6r1KDwXR"], "asm": "OP_DUP OP_HASH160 d04c1e9b57f5658f7d74853e5120b4759924eab3 OP_EQUALVERIFY OP_CHECKSIG", "type": "pubkeyhash"}, "value": 0.6, "n": 6}], "hex": "0100000004ffe8cf9b50918f2a87307b81eaa9e6ae22229246e6ad452a59aaa98584ed5335000000006b483045022100cad9321477f2531cf43e093cc07a82e069386ff509cf50e14b87ff298aed5b020220132d82731c8d2cee04012dd735ec7ff41404579a45a92bd16f4bb2e24117519f0121034fecd73ebe20ec8f437322915c321d71853d69290ba37435a0813123aec11216fdffffffb8e95de9507744eae0a4fe6108436238f5a6647bddc21229c727c6573402597b000000006a4730440220021d49ad0e14872d895dadf0558bac2571d60996e6832f5e7b148cb04869a6d302206de4335d8b068d5d08cc42bd0e3fbf49064da9ffc2af733e192bf3b26d4a8ee3012102185409eb5ce8e23efb122b6108447736f398141df0095e57a5f5cfbd11009e8cfdffffff9df5f059916ab1766731b9c1c06677a64c0a90a2c049f1fc0dbfe1b066cc49b2050000006a47304402205ad47638838a0757df6fa0c0231f6dcacaaaf07ecd127a509ba96f07719c9f3702207ef75414ea997466fc01e4adebafcbef97b86e588da5baefd6e6ff52017fd94b012102d67ce00c5801d0334b2fef25b3e7089f0238204388e586ee3d5bb280fde06eb3fdffffff42c349ac60c51a093054a4eee3fc1682aa07a2c9c9bc928c2127c4b2c7f2b5e7000000006a47304402206b6095034eef172a7ebcb691c2ca03a528d6cb6d8ab660ea033f8b2aa068677302204379171979b6d64b8933aaaf44380e6877aa68b7f1455c68588e067d5dd11464012103a2b14adfc84bc6b09cc1213d68f949537650d67108bd94c2f190f7ce1bf7cedafdffffff07f8a700000000000017a9147157e5d813793e5f120373821761715663827a108718ef1600000000001976a914e02cccaa2ebafe6219666d0ebdf4ebef58ce821988acd87525000000000017a914e541e906ee31fd1da6fd1afe7054e4cbe26f30018700976500000000001976a914131baeeec4c7beb1c857c5cac8f852232472d97b88ac809698000000000017a91483fe26d0ba06d6b21bba0bed6c64c4d76eb664a987009749010000000017a914a494b8b96af7cb80bdd855f02a9793f6d6d424908700879303000000001976a914d04c1e9b57f5658f7d74853e5120b4759924eab388ac13490800", "vin": [{"sequence": 4294967293, "scriptSig": {"hex": "483045022100cad9321477f2531cf43e093cc07a82e069386ff509cf50e14b87ff298aed5b020220132d82731c8d2cee04012dd735ec7ff41404579a45a92bd16f4bb2e24117519f0121034fecd73ebe20ec8f437322915c321d71853d69290ba37435a0813123aec11216", "asm": "3045022100cad9321477f2531cf43e093cc07a82e069386ff509cf50e14b87ff298aed5b020220132d82731c8d2cee04012dd735ec7ff41404579a45a92bd16f4bb2e24117519f[ALL] 034fecd73ebe20ec8f437322915c321d71853d69290ba37435a0813123aec11216"}, "vout": 0, "txid": "3553ed8485a9aa592a45ade646922222aee6a9ea817b30872a8f91509bcfe8ff"}, {"sequence": 4294967293, "scriptSig": {"hex": "4730440220021d49ad0e14872d895dadf0558bac2571d60996e6832f5e7b148cb04869a6d302206de4335d8b068d5d08cc42bd0e3fbf49064da9ffc2af733e192bf3b26d4a8ee3012102185409eb5ce8e23efb122b6108447736f398141df0095e57a5f5cfbd11009e8c", "asm": "30440220021d49ad0e14872d895dadf0558bac2571d60996e6832f5e7b148cb04869a6d302206de4335d8b068d5d08cc42bd0e3fbf49064da9ffc2af733e192bf3b26d4a8ee3[ALL] 02185409eb5ce8e23efb122b6108447736f398141df0095e57a5f5cfbd11009e8c"}, "vout": 0, "txid": "7b59023457c627c72912c2dd7b64a6f53862430861fea4e0ea447750e95de9b8"}, {"sequence": 4294967293, "scriptSig": {"hex": "47304402205ad47638838a0757df6fa0c0231f6dcacaaaf07ecd127a509ba96f07719c9f3702207ef75414ea997466fc01e4adebafcbef97b86e588da5baefd6e6ff52017fd94b012102d67ce00c5801d0334b2fef25b3e7089f0238204388e586ee3d5bb280fde06eb3", "asm": "304402205ad47638838a0757df6fa0c0231f6dcacaaaf07ecd127a509ba96f07719c9f3702207ef75414ea997466fc01e4adebafcbef97b86e588da5baefd6e6ff52017fd94b[ALL] 02d67ce00c5801d0334b2fef25b3e7089f0238204388e586ee3d5bb280fde06eb3"}, "vout": 5, "txid": "b249cc66b0e1bf0dfcf149c0a2900a4ca67766c0c1b9316776b16a9159f0f59d"}, {"sequence": 4294967293, "scriptSig": {"hex": "47304402206b6095034eef172a7ebcb691c2ca03a528d6cb6d8ab660ea033f8b2aa068677302204379171979b6d64b8933aaaf44380e6877aa68b7f1455c68588e067d5dd11464012103a2b14adfc84bc6b09cc1213d68f949537650d67108bd94c2f190f7ce1bf7ceda", "asm": "304402206b6095034eef172a7ebcb691c2ca03a528d6cb6d8ab660ea033f8b2aa068677302204379171979b6d64b8933aaaf44380e6877aa68b7f1455c68588e067d5dd11464[ALL] 03a2b14adfc84bc6b09cc1213d68f949537650d67108bd94c2f190f7ce1bf7ceda"}, "vout": 0, "txid": "e7b5f2c7b2c427218c92bcc9c9a207aa8216fce3eea45430091ac560ac49c342"}], "txid": "216c87dc3d8436de47cca4b2ae21e5d1177ddef5b6624245009797c405a32d43", "blocktime": 1537873282, "version": 1, "confirmations": 11484, "time": 1537873282, "locktime": 542995, "vsize": 829, "size": 829}