{"hash": "216f969afa4425059d4dba00d98494aec73fdf8c3a15c6f2e81de863311b5845", "blockhash": "0000000000000000001f0ddff1eddb255c1121bcd4da4f1bc9a0da00cae72433", "vout": [{"scriptPubKey": {"reqSigs": 1, "hex": "76a914b4b90c8bdda8aba005c4dbc47d388abf932b637188ac", "addresses": ["1HUaJxgaEG1PcH3Xmu8zEHWCFBmFzkGMSY"], "asm": "OP_DUP OP_HASH160 b4b90c8bdda8aba005c4dbc47d388abf932b6371 OP_EQUALVERIFY OP_CHECKSIG", "type": "pubkeyhash"}, "value": 0.005, "n": 0}, {"scriptPubKey": {"reqSigs": 1, "hex": "76a91430b86634a4a998b137a156e88b2a53291c799b2588ac", "addresses": ["15ScLVXA8hYZDGkXPGMxmWqVpFDGP6oh7f"], "asm": "OP_DUP OP_HASH160 30b86634a4a998b137a156e88b2a53291c799b25 OP_EQUALVERIFY OP_CHECKSIG", "type": "pubkeyhash"}, "value": 1.04898813, "n": 1}], "hex": "01000000013d0457de1e1d737fc99a3f0d7c05376f4445863447d6e7b88a5986948ff293ca010000006a47304402203488fc11a6b57e2117fe19687d660abf89e372261fc54a3f12f5e84c6b7f504e02205eb090a7b218d3e641d6d179614968a7332554677107d89cfdd9606c53c1a243012103d636dad5ba27ee97866699176cf2a9aa5fb370e6ffab712a6bc980d881855f3affffffff0220a10700000000001976a914b4b90c8bdda8aba005c4dbc47d388abf932b637188acfda04006000000001976a91430b86634a4a998b137a156e88b2a53291c799b2588ac00000000", "vin": [{"sequence": 4294967295, "scriptSig": {"hex": "47304402203488fc11a6b57e2117fe19687d660abf89e372261fc54a3f12f5e84c6b7f504e02205eb090a7b218d3e641d6d179614968a7332554677107d89cfdd9606c53c1a243012103d636dad5ba27ee97866699176cf2a9aa5fb370e6ffab712a6bc980d881855f3a", "asm": "304402203488fc11a6b57e2117fe19687d660abf89e372261fc54a3f12f5e84c6b7f504e02205eb090a7b218d3e641d6d179614968a7332554677107d89cfdd9606c53c1a243[ALL] 03d636dad5ba27ee97866699176cf2a9aa5fb370e6ffab712a6bc980d881855f3a"}, "vout": 1, "txid": "ca93f28f9486598ab8e7d647348645446f37057c0d3f9ac97f731d1ede57043d"}], "txid": "216f969afa4425059d4dba00d98494aec73fdf8c3a15c6f2e81de863311b5845", "blocktime": 1537872018, "version": 1, "confirmations": 11489, "time": 1537872018, "locktime": 0, "vsize": 225, "size": 225}