{"hash": "2175a3847bf0644e17e9977460f8fc35fe1d42db6f94237e8da3e5c1bb0024de", "blockhash": "00000000000000000017f5eb5941039fbcee6240d03bc1f2f8e35350df66a1d8", "vout": [{"scriptPubKey": {"reqSigs": 1, "hex": "76a91476134f7a2ca56c57cb3dfe5951bec14a36234ed688ac", "addresses": ["1BmKsMJqxjePEeZqe7MekT3VEjDJyd3ier"], "asm": "OP_DUP OP_HASH160 76134f7a2ca56c57cb3dfe5951bec14a36234ed6 OP_EQUALVERIFY OP_CHECKSIG", "type": "pubkeyhash"}, "value": 0.045268, "n": 0}, {"scriptPubKey": {"reqSigs": 1, "hex": "a914cbbea7bf673b538d21addc2c5dcc841cc6f6608f87", "addresses": ["3LGKVSnLoUu6TZCid8BsPwqFGxssqSYSbo"], "asm": "OP_HASH160 cbbea7bf673b538d21addc2c5dcc841cc6f6608f OP_EQUAL", "type": "scripthash"}, "value": 0.032534, "n": 1}], "hex": "020000000125ea8e870ef17cd06ef32d1d0f9f7fa532bf7d18e73832709098fad9fe4b83c6030000006a47304402203249152b27fda97cb2d4fda06e5ca5d5f4c67e260f0de712378b570dff8e3137022057eeca13decc3ad28a96025fb7de8c72ffd2dd29c07b1c90066ed8f16786f0380121035bfc0b137e014d75b14e8b3eb24ead32543073a721266e156a6af74d82b2e177fdffffff02d0124500000000001976a91476134f7a2ca56c57cb3dfe5951bec14a36234ed688ac98a431000000000017a914cbbea7bf673b538d21addc2c5dcc841cc6f6608f8715490800", "vin": [{"sequence": 4294967293, "scriptSig": {"hex": "47304402203249152b27fda97cb2d4fda06e5ca5d5f4c67e260f0de712378b570dff8e3137022057eeca13decc3ad28a96025fb7de8c72ffd2dd29c07b1c90066ed8f16786f0380121035bfc0b137e014d75b14e8b3eb24ead32543073a721266e156a6af74d82b2e177", "asm": "304402203249152b27fda97cb2d4fda06e5ca5d5f4c67e260f0de712378b570dff8e3137022057eeca13decc3ad28a96025fb7de8c72ffd2dd29c07b1c90066ed8f16786f038[ALL] 035bfc0b137e014d75b14e8b3eb24ead32543073a721266e156a6af74d82b2e177"}, "vout": 3, "txid": "c6834bfed9fa9890703238e7187dbf32a57f9f0f1d2df36ed07cf10e878eea25"}], "txid": "2175a3847bf0644e17e9977460f8fc35fe1d42db6f94237e8da3e5c1bb0024de", "blocktime": 1537874412, "version": 2, "confirmations": 11466, "time": 1537874412, "locktime": 542997, "vsize": 223, "size": 223}