{"hash": "2176d7ac3f6554b97a36c783b1fd3358ca8c7de2dae2da163639554b7a02948c", "blockhash": "0000000000000000001e0dab787dd257d1dbfcb92a98c2207d5e1078be1f4165", "vout": [{"scriptPubKey": {"reqSigs": 1, "hex": "76a91403ac0fae1a0707a838192cb765420ad26104bd6988ac", "addresses": ["1LR9bqvWtXBoAZ1VgmKErfi4XyBFUsRUA"], "asm": "OP_DUP OP_HASH160 03ac0fae1a0707a838192cb765420ad26104bd69 OP_EQUALVERIFY OP_CHECKSIG", "type": "pubkeyhash"}, "value": 0.00037948, "n": 0}, {"scriptPubKey": {"reqSigs": 1, "hex": "76a91475f4066a6cb0e6cc7c139e44a09251cb662413f988ac", "addresses": ["1BkgPbxP72iWvYBN8T5w4kQzWJBrMUJN5q"], "asm": "OP_DUP OP_HASH160 75f4066a6cb0e6cc7c139e44a09251cb662413f9 OP_EQUALVERIFY OP_CHECKSIG", "type": "pubkeyhash"}, "value": 0.17448824, "n": 1}], "hex": "01000000132bb4a567412d0f3d203080dc60b6b7896a7b0503f32d9883cfe034dcf02b66120b0000006a4730440220113e8362e54c4a9202697f4b3a5fff92409302e6ec27035acdc327cf9c32c4f3022032c7c4ac4433c29efe66355048923f0a0248c7017d435f0c0b156cac6b82eb19012102e037bc30c4b3efc9ab834551826c64ecad3a0a687a72bc9bd1c3532aa0a8cafcffffffff9a3374deb6f65340c6754f2424503c9661c232db24d3c7c61cf1d9f3a4821618000000006a473044022001b16d74ff5a63ceb03c7a4b2a69c74a05481f9552fcc0cd70e9c92a3e73904e02203e8bca319419c4dd537220d3ef5e0295b16dc2401e48725a9f20a8cf986d9b8e0121039ae9014d06e443c0312759ccf41c074901ba0a1f33593bdb51b595d582a58a79ffffffff067afaeed66aacfda27e9f3ff27fe18d07540a2f2e9c1ca704fb8f2c902b3323000000006a47304402203f62a2240f4825f3bbf8b857eb9d383a4b1cbbf00419a77944335c433fd577d5022069563767d24a890a62a5b6c1b1f7406b7f06c8bc535da36925ab49d6742ac25e0121030135b23f3db6a9b5f0f8b5b9382a6868e1dc4b41759e80af0c01b4727cc5d822ffffffff523bdfb33469a06c755c42eec6a21c8c336efb7af8310ce67f06e07109b65e34000000006b483045022100d1427aa2c1907e56428185b12ba1c6be13405afdf22d0d7219ba8a5683eee41b02206194a7099c17edaddefc559c10e8ce9684b469040ec3784d4d6478fcc11082d4012103f4abf6fe0d34a7655709e0a94c7d82750fb73e0c812e3165024e230f07559cc3ffffffff6b934134cb1c46df6df903c3c377898b2c0db9e32690c6c4c933d7e29029713d000000006a47304402202130fddd787b8fa5b6af0e3916b08603586927a612d7c1eec070877fef23531d0220292308a3349ea747876bd4369cfe080612e87035867a6ce6a44d5d018ce88f18012102a3c65b4b007a3a78bc94ab4aee49320452cee21b469f9669dba7378e2532da0bffffffff9e074341a9bdace49bb818a7223fcbcc246797681387d2638915ef59b0b2d944000000006b483045022100d81efb35a449c36795658c22904bf9d8a31b6a76a9a28838d7349bec4d24a550022061d6b813f9c20fa49e9801a3ce96eb2914fc40a0b7a4c027e0b371c6803e406c0121029584a9d18dcb87e231b58d4e72f2ae03a3e130a8b416460f185eb2fb0390bbb9ffffffff879709d72817612c2293f143c8af24725045ada3f198b980ec5f930dc6032379000000006b483045022100bfc42cc98d39fbe21c5c9ee8a6bcebcf2f4317660af645f2dca5ad7ff2ecab9d022032e9a1984a49fd3b33ba11fb8f315671631389a82b7e2d07140fe6dfb0f4c3c401210221d7f017e0579d0637f4c8147738ed3c73140c558f0e3b0314ff20cacaa91f0dffffffff83d51c49ea0d01b30496d2b0eb701fd7af3538d58008040e37508fd89e1f0880000000006a473044022031be2ee026aee56dd6d8140dde1c693a32303e85016c02945aac9d9d8c94788a022055c91f362edfb3cb364b856379943b537627c054a13d71131ed605bc20edc89b012103dcc908d33e91630bd4bbe500bd469143e64e6dd44904754eb41685302cafec15ffffffff596bfc74b8b02b2ce0272125116a773481148efc376b2457c758a410d0bea285000000006a473044022012297eafd5ec5e1efd8178f1c98b8c1663e2b8e7a43471d719cce16a8465a99902204dd3d9a13513161b6a86067061e7f66dda5cc7c62c8452866691f73cab43cb49012103054b90201da117f2b646750c3a9f07068433afa0ccfc9246e6eafd6a00fb5cf2ffffffff0b81ef60311de83e4b3b99d6dd1bd0957c0ecfe2419bf3af7ee7e4891c3c198c000000006b483045022100ed7da5b0ff70e7adb64fcbd85857cad473e54cbb0794eb6132f62958f5cacbf1022005319bd8bf3cbea4189ea14048d4b759293fbb937b113830fc27c8d9a632f75e0121025b2e1884d9714c47b5aeb4a0727b085dbaf4b01eda87d8094ed73b29126baf29ffffffffa99e99812c7ad19b2c691b0e04c7054ae8c680a3c590eca5107619a3fc34bfa6010000006b48304502210098311d76363b6c75b7980954ed7266d683813812b50c2e365057f2010b0fc8f4022057167bc4304e1ed352674dd58aefc7323eb037d223457aa38fc71f9515ae262a012102b01b836cd1ef8c26371292afee918c37ef831f1a20b0bc583abde52fdab12568ffffffff447ba2e7e05cec3943ba8029c5f74cd395dbc42f709195bbeb394392653c63aa000000006b483045022100d950ee357583612249ef4b9dea89a5ae1587f15be43e6a6a26006d8124242bae022019cbd08ee208a924a490c92c5396eb8e29159d171849df410d94a3a37cc121e3012103064218e17b9debe433a19b7daed17e20f50914534648659638ad3c80d45a4a91ffffffffb519df5eb29e84a40a18eab77aa29eb8600bb17b669721420dda7c7443ba44b0000000006a47304402204031f721be59b534d0b16eb1cb6a191d934de249ead863a93138ad33fa6343e402200e8770534572a2480f7d05e1904d446b9c1274e23a102d0d52073d8a7431d9af012103ed23a7d824aeef80c14203f58f9f0b9ce7de836af2ad8fe012e21e8ca9eddfeefffffffffa74c7cb1c78e3e326b3cfb522b329196ae5395b2b134049ff2cab8417087db5000000006a47304402202c31917b791be5392fc5a5ecd50b570121a11b51a2d12305aceef540d2158ab302206381f0efdc7bf11496b10be7c12968434e479737042f9237b5a62779071254eb01210256a0fb4ba6171517f7b38147de26b224950964416462ae07e4617e7b4adbb921ffffffffdc59f08eeec928ce08743a131aa7c18a85fdeb4e8326d391470742e6670f91cc000000006a473044022040de360bcc4ddaa934c24073390c9828f9aedc93c72fc8b9236f1ba0b09ae40302203a3a0c81741828cb7616cf94d7edf38160e7dc40b11218e952e6d456d0e7fb0c0121027923d2f7066baf06fd0866a22e82cc9e6d16e95ad9f06576a22c40fa3b636d24ffffffff999f5f09e1b6c5eaae36fd90e50206de87b0778176e5dc152fa1791462621fd0000000006a47304402200733b0bd891c0426b2dffae908992a0808a022e75a7c22b9350fc3fa71f3c838022002df863ec850d4ec7d9511d68a787bcef0f73603cc47fa942856aa3b6d8ce497012103e273a3b29855214ad903e2aa2d53a0392beeb818c493c5d7399a2ce7ccbe50bbffffffffe9bc50f45db8ab2e9d16efcbdd6de3ca8aa49a6e43c1b6bfc206241ae60fe5d7000000006a47304402207417a13db520bdb1fcf04c2d77a0727bb2668d16f9fc8ee83fc413217b2b34c002203721cb96a8d5242cea2c92a246d7c04c82744026525324f130a6eb6c6ccbf8540121020488b3431a0095cabaa272c79455569e12cd4e2f48ef9120bafa97055f9e116cffffffff945240e87b4a739c8af9980359e6a5a654d50686e55181ad20a77e185db692ec000000006a473044022038f70b273bdf776becf7552e01db1ffd143bc6fb67586bde91f68e1f9cbfe94d02206a52f716752a9cedf50e62b12390ee8e9d20021df9f226df2eb936e15563efda012102266772bf4c0d6a4b8f3d25d864148fd108bea50f73b19970e1def573c75fd294ffffffff79f17996026dd8c1fe21d0127b79232b9ff1c678403b6a2b415d9da4d2cb26fb000000006a473044022001241b160c0076b8b58f8e61047259f8177851abaca4b43d7454f488a49af05602203636600cc47dd0a25cb9070df7319dd711db501dab67c63be5f45b2c1b4917f40121031c7ed0fb0ff5125ca1e2d218065972060ce75b8745c9b23307dd64123d507b08ffffffff023c940000000000001976a91403ac0fae1a0707a838192cb765420ad26104bd6988ac783f0a01000000001976a91475f4066a6cb0e6cc7c139e44a09251cb662413f988ac00000000", "vin": [{"sequence": 4294967295, "scriptSig": {"hex": "4730440220113e8362e54c4a9202697f4b3a5fff92409302e6ec27035acdc327cf9c32c4f3022032c7c4ac4433c29efe66355048923f0a0248c7017d435f0c0b156cac6b82eb19012102e037bc30c4b3efc9ab834551826c64ecad3a0a687a72bc9bd1c3532aa0a8cafc", "asm": "30440220113e8362e54c4a9202697f4b3a5fff92409302e6ec27035acdc327cf9c32c4f3022032c7c4ac4433c29efe66355048923f0a0248c7017d435f0c0b156cac6b82eb19[ALL] 02e037bc30c4b3efc9ab834551826c64ecad3a0a687a72bc9bd1c3532aa0a8cafc"}, "vout": 11, "txid": "12662bf0dc34e0cf83982df303057b6a89b7b660dc8030203d0f2d4167a5b42b"}, {"sequence": 4294967295, "scriptSig": {"hex": "473044022001b16d74ff5a63ceb03c7a4b2a69c74a05481f9552fcc0cd70e9c92a3e73904e02203e8bca319419c4dd537220d3ef5e0295b16dc2401e48725a9f20a8cf986d9b8e0121039ae9014d06e443c0312759ccf41c074901ba0a1f33593bdb51b595d582a58a79", "asm": "3044022001b16d74ff5a63ceb03c7a4b2a69c74a05481f9552fcc0cd70e9c92a3e73904e02203e8bca319419c4dd537220d3ef5e0295b16dc2401e48725a9f20a8cf986d9b8e[ALL] 039ae9014d06e443c0312759ccf41c074901ba0a1f33593bdb51b595d582a58a79"}, "vout": 0, "txid": "181682a4f3d9f11cc6c7d324db32c261963c5024244f75c64053f6b6de74339a"}, {"sequence": 4294967295, "scriptSig": {"hex": "47304402203f62a2240f4825f3bbf8b857eb9d383a4b1cbbf00419a77944335c433fd577d5022069563767d24a890a62a5b6c1b1f7406b7f06c8bc535da36925ab49d6742ac25e0121030135b23f3db6a9b5f0f8b5b9382a6868e1dc4b41759e80af0c01b4727cc5d822", "asm": "304402203f62a2240f4825f3bbf8b857eb9d383a4b1cbbf00419a77944335c433fd577d5022069563767d24a890a62a5b6c1b1f7406b7f06c8bc535da36925ab49d6742ac25e[ALL] 030135b23f3db6a9b5f0f8b5b9382a6868e1dc4b41759e80af0c01b4727cc5d822"}, "vout": 0, "txid": "23332b902c8ffb04a71c9c2e2f0a54078de17ff23f9f7ea2fdac6ad6eefa7a06"}, {"sequence": 4294967295, "scriptSig": {"hex": "483045022100d1427aa2c1907e56428185b12ba1c6be13405afdf22d0d7219ba8a5683eee41b02206194a7099c17edaddefc559c10e8ce9684b469040ec3784d4d6478fcc11082d4012103f4abf6fe0d34a7655709e0a94c7d82750fb73e0c812e3165024e230f07559cc3", "asm": "3045022100d1427aa2c1907e56428185b12ba1c6be13405afdf22d0d7219ba8a5683eee41b02206194a7099c17edaddefc559c10e8ce9684b469040ec3784d4d6478fcc11082d4[ALL] 03f4abf6fe0d34a7655709e0a94c7d82750fb73e0c812e3165024e230f07559cc3"}, "vout": 0, "txid": "345eb60971e0067fe60c31f87afb6e338c1ca2c6ee425c756ca06934b3df3b52"}, {"sequence": 4294967295, "scriptSig": {"hex": "47304402202130fddd787b8fa5b6af0e3916b08603586927a612d7c1eec070877fef23531d0220292308a3349ea747876bd4369cfe080612e87035867a6ce6a44d5d018ce88f18012102a3c65b4b007a3a78bc94ab4aee49320452cee21b469f9669dba7378e2532da0b", "asm": "304402202130fddd787b8fa5b6af0e3916b08603586927a612d7c1eec070877fef23531d0220292308a3349ea747876bd4369cfe080612e87035867a6ce6a44d5d018ce88f18[ALL] 02a3c65b4b007a3a78bc94ab4aee49320452cee21b469f9669dba7378e2532da0b"}, "vout": 0, "txid": "3d712990e2d733c9c4c69026e3b90d2c8b8977c3c303f96ddf461ccb3441936b"}, {"sequence": 4294967295, "scriptSig": {"hex": "483045022100d81efb35a449c36795658c22904bf9d8a31b6a76a9a28838d7349bec4d24a550022061d6b813f9c20fa49e9801a3ce96eb2914fc40a0b7a4c027e0b371c6803e406c0121029584a9d18dcb87e231b58d4e72f2ae03a3e130a8b416460f185eb2fb0390bbb9", "asm": "3045022100d81efb35a449c36795658c22904bf9d8a31b6a76a9a28838d7349bec4d24a550022061d6b813f9c20fa49e9801a3ce96eb2914fc40a0b7a4c027e0b371c6803e406c[ALL] 029584a9d18dcb87e231b58d4e72f2ae03a3e130a8b416460f185eb2fb0390bbb9"}, "vout": 0, "txid": "44d9b2b059ef158963d2871368976724cccb3f22a718b89be4acbda94143079e"}, {"sequence": 4294967295, "scriptSig": {"hex": "483045022100bfc42cc98d39fbe21c5c9ee8a6bcebcf2f4317660af645f2dca5ad7ff2ecab9d022032e9a1984a49fd3b33ba11fb8f315671631389a82b7e2d07140fe6dfb0f4c3c401210221d7f017e0579d0637f4c8147738ed3c73140c558f0e3b0314ff20cacaa91f0d", "asm": "3045022100bfc42cc98d39fbe21c5c9ee8a6bcebcf2f4317660af645f2dca5ad7ff2ecab9d022032e9a1984a49fd3b33ba11fb8f315671631389a82b7e2d07140fe6dfb0f4c3c4[ALL] 0221d7f017e0579d0637f4c8147738ed3c73140c558f0e3b0314ff20cacaa91f0d"}, "vout": 0, "txid": "792303c60d935fec80b998f1a3ad45507224afc843f193222c611728d7099787"}, {"sequence": 4294967295, "scriptSig": {"hex": "473044022031be2ee026aee56dd6d8140dde1c693a32303e85016c02945aac9d9d8c94788a022055c91f362edfb3cb364b856379943b537627c054a13d71131ed605bc20edc89b012103dcc908d33e91630bd4bbe500bd469143e64e6dd44904754eb41685302cafec15", "asm": "3044022031be2ee026aee56dd6d8140dde1c693a32303e85016c02945aac9d9d8c94788a022055c91f362edfb3cb364b856379943b537627c054a13d71131ed605bc20edc89b[ALL] 03dcc908d33e91630bd4bbe500bd469143e64e6dd44904754eb41685302cafec15"}, "vout": 0, "txid": "80081f9ed88f50370e040880d53835afd71f70ebb0d29604b3010dea491cd583"}, {"sequence": 4294967295, "scriptSig": {"hex": "473044022012297eafd5ec5e1efd8178f1c98b8c1663e2b8e7a43471d719cce16a8465a99902204dd3d9a13513161b6a86067061e7f66dda5cc7c62c8452866691f73cab43cb49012103054b90201da117f2b646750c3a9f07068433afa0ccfc9246e6eafd6a00fb5cf2", "asm": "3044022012297eafd5ec5e1efd8178f1c98b8c1663e2b8e7a43471d719cce16a8465a99902204dd3d9a13513161b6a86067061e7f66dda5cc7c62c8452866691f73cab43cb49[ALL] 03054b90201da117f2b646750c3a9f07068433afa0ccfc9246e6eafd6a00fb5cf2"}, "vout": 0, "txid": "85a2bed010a458c757246b37fc8e148134776a11252127e02c2bb0b874fc6b59"}, {"sequence": 4294967295, "scriptSig": {"hex": "483045022100ed7da5b0ff70e7adb64fcbd85857cad473e54cbb0794eb6132f62958f5cacbf1022005319bd8bf3cbea4189ea14048d4b759293fbb937b113830fc27c8d9a632f75e0121025b2e1884d9714c47b5aeb4a0727b085dbaf4b01eda87d8094ed73b29126baf29", "asm": "3045022100ed7da5b0ff70e7adb64fcbd85857cad473e54cbb0794eb6132f62958f5cacbf1022005319bd8bf3cbea4189ea14048d4b759293fbb937b113830fc27c8d9a632f75e[ALL] 025b2e1884d9714c47b5aeb4a0727b085dbaf4b01eda87d8094ed73b29126baf29"}, "vout": 0, "txid": "8c193c1c89e4e77eaff39b41e2cf0e7c95d01bddd6993b4b3ee81d3160ef810b"}, {"sequence": 4294967295, "scriptSig": {"hex": "48304502210098311d76363b6c75b7980954ed7266d683813812b50c2e365057f2010b0fc8f4022057167bc4304e1ed352674dd58aefc7323eb037d223457aa38fc71f9515ae262a012102b01b836cd1ef8c26371292afee918c37ef831f1a20b0bc583abde52fdab12568", "asm": "304502210098311d76363b6c75b7980954ed7266d683813812b50c2e365057f2010b0fc8f4022057167bc4304e1ed352674dd58aefc7323eb037d223457aa38fc71f9515ae262a[ALL] 02b01b836cd1ef8c26371292afee918c37ef831f1a20b0bc583abde52fdab12568"}, "vout": 1, "txid": "a6bf34fca3197610a5ec90c5a380c6e84a05c7040e1b692c9bd17a2c81999ea9"}, {"sequence": 4294967295, "scriptSig": {"hex": "483045022100d950ee357583612249ef4b9dea89a5ae1587f15be43e6a6a26006d8124242bae022019cbd08ee208a924a490c92c5396eb8e29159d171849df410d94a3a37cc121e3012103064218e17b9debe433a19b7daed17e20f50914534648659638ad3c80d45a4a91", "asm": "3045022100d950ee357583612249ef4b9dea89a5ae1587f15be43e6a6a26006d8124242bae022019cbd08ee208a924a490c92c5396eb8e29159d171849df410d94a3a37cc121e3[ALL] 03064218e17b9debe433a19b7daed17e20f50914534648659638ad3c80d45a4a91"}, "vout": 0, "txid": "aa633c65924339ebbb9591702fc4db95d34cf7c52980ba4339ec5ce0e7a27b44"}, {"sequence": 4294967295, "scriptSig": {"hex": "47304402204031f721be59b534d0b16eb1cb6a191d934de249ead863a93138ad33fa6343e402200e8770534572a2480f7d05e1904d446b9c1274e23a102d0d52073d8a7431d9af012103ed23a7d824aeef80c14203f58f9f0b9ce7de836af2ad8fe012e21e8ca9eddfee", "asm": "304402204031f721be59b534d0b16eb1cb6a191d934de249ead863a93138ad33fa6343e402200e8770534572a2480f7d05e1904d446b9c1274e23a102d0d52073d8a7431d9af[ALL] 03ed23a7d824aeef80c14203f58f9f0b9ce7de836af2ad8fe012e21e8ca9eddfee"}, "vout": 0, "txid": "b044ba43747cda0d422197667bb10b60b89ea27ab7ea180aa4849eb25edf19b5"}, {"sequence": 4294967295, "scriptSig": {"hex": "47304402202c31917b791be5392fc5a5ecd50b570121a11b51a2d12305aceef540d2158ab302206381f0efdc7bf11496b10be7c12968434e479737042f9237b5a62779071254eb01210256a0fb4ba6171517f7b38147de26b224950964416462ae07e4617e7b4adbb921", "asm": "304402202c31917b791be5392fc5a5ecd50b570121a11b51a2d12305aceef540d2158ab302206381f0efdc7bf11496b10be7c12968434e479737042f9237b5a62779071254eb[ALL] 0256a0fb4ba6171517f7b38147de26b224950964416462ae07e4617e7b4adbb921"}, "vout": 0, "txid": "b57d081784ab2cff4940132b5b39e56a1929b322b5cfb326e3e3781ccbc774fa"}, {"sequence": 4294967295, "scriptSig": {"hex": "473044022040de360bcc4ddaa934c24073390c9828f9aedc93c72fc8b9236f1ba0b09ae40302203a3a0c81741828cb7616cf94d7edf38160e7dc40b11218e952e6d456d0e7fb0c0121027923d2f7066baf06fd0866a22e82cc9e6d16e95ad9f06576a22c40fa3b636d24", "asm": "3044022040de360bcc4ddaa934c24073390c9828f9aedc93c72fc8b9236f1ba0b09ae40302203a3a0c81741828cb7616cf94d7edf38160e7dc40b11218e952e6d456d0e7fb0c[ALL] 027923d2f7066baf06fd0866a22e82cc9e6d16e95ad9f06576a22c40fa3b636d24"}, "vout": 0, "txid": "cc910f67e642074791d326834eebfd858ac1a71a133a7408ce28c9ee8ef059dc"}, {"sequence": 4294967295, "scriptSig": {"hex": "47304402200733b0bd891c0426b2dffae908992a0808a022e75a7c22b9350fc3fa71f3c838022002df863ec850d4ec7d9511d68a787bcef0f73603cc47fa942856aa3b6d8ce497012103e273a3b29855214ad903e2aa2d53a0392beeb818c493c5d7399a2ce7ccbe50bb", "asm": "304402200733b0bd891c0426b2dffae908992a0808a022e75a7c22b9350fc3fa71f3c838022002df863ec850d4ec7d9511d68a787bcef0f73603cc47fa942856aa3b6d8ce497[ALL] 03e273a3b29855214ad903e2aa2d53a0392beeb818c493c5d7399a2ce7ccbe50bb"}, "vout": 0, "txid": "d01f62621479a12f15dce5768177b087de0602e590fd36aeeac5b6e1095f9f99"}, {"sequence": 4294967295, "scriptSig": {"hex": "47304402207417a13db520bdb1fcf04c2d77a0727bb2668d16f9fc8ee83fc413217b2b34c002203721cb96a8d5242cea2c92a246d7c04c82744026525324f130a6eb6c6ccbf8540121020488b3431a0095cabaa272c79455569e12cd4e2f48ef9120bafa97055f9e116c", "asm": "304402207417a13db520bdb1fcf04c2d77a0727bb2668d16f9fc8ee83fc413217b2b34c002203721cb96a8d5242cea2c92a246d7c04c82744026525324f130a6eb6c6ccbf854[ALL] 020488b3431a0095cabaa272c79455569e12cd4e2f48ef9120bafa97055f9e116c"}, "vout": 0, "txid": "d7e50fe61a2406c2bfb6c1436e9aa48acae36dddcbef169d2eabb85df450bce9"}, {"sequence": 4294967295, "scriptSig": {"hex": "473044022038f70b273bdf776becf7552e01db1ffd143bc6fb67586bde91f68e1f9cbfe94d02206a52f716752a9cedf50e62b12390ee8e9d20021df9f226df2eb936e15563efda012102266772bf4c0d6a4b8f3d25d864148fd108bea50f73b19970e1def573c75fd294", "asm": "3044022038f70b273bdf776becf7552e01db1ffd143bc6fb67586bde91f68e1f9cbfe94d02206a52f716752a9cedf50e62b12390ee8e9d20021df9f226df2eb936e15563efda[ALL] 02266772bf4c0d6a4b8f3d25d864148fd108bea50f73b19970e1def573c75fd294"}, "vout": 0, "txid": "ec92b65d187ea720ad8151e58606d554a6a5e6590398f98a9c734a7be8405294"}, {"sequence": 4294967295, "scriptSig": {"hex": "473044022001241b160c0076b8b58f8e61047259f8177851abaca4b43d7454f488a49af05602203636600cc47dd0a25cb9070df7319dd711db501dab67c63be5f45b2c1b4917f40121031c7ed0fb0ff5125ca1e2d218065972060ce75b8745c9b23307dd64123d507b08", "asm": "3044022001241b160c0076b8b58f8e61047259f8177851abaca4b43d7454f488a49af05602203636600cc47dd0a25cb9070df7319dd711db501dab67c63be5f45b2c1b4917f4[ALL] 031c7ed0fb0ff5125ca1e2d218065972060ce75b8745c9b23307dd64123d507b08"}, "vout": 0, "txid": "fb26cbd2a49d5d412b6a3b4078c6f19f2b23797b12d021fec1d86d029679f179"}], "txid": "2176d7ac3f6554b97a36c783b1fd3358ca8c7de2dae2da163639554b7a02948c", "blocktime": 1537872475, "version": 1, "confirmations": 11486, "time": 1537872475, "locktime": 0, "vsize": 2877, "size": 2877}