{"hash": "dbff1bc82d50d467e24d7d7db058ea79198b77d75385a47e51de525b2542aa6c", "blockhash": "0000000000000000001cda96e906b7601b7a6fb1a3b62bca570a9e5d8f4b3de1", "vout": [{"scriptPubKey": {"reqSigs": 1, "hex": "0014597e0f90e4d4b2e113c888c6e27b24a44d1fc85e", "addresses": ["bc1qt9lqly8y6jewzy7g3rrwy7ey53x3ljz7k6w67j"], "asm": "0 597e0f90e4d4b2e113c888c6e27b24a44d1fc85e", "type": "witness_v0_keyhash"}, "value": 2.625e-05, "n": 0}, {"scriptPubKey": {"reqSigs": 1, "hex": "76a914a8607d505ba1df445c7219c04c38ff226619b13988ac", "addresses": ["1GMJ7SHmQwF8oWA795B1ENnkYhfzkHDEsz"], "asm": "OP_DUP OP_HASH160 a8607d505ba1df445c7219c04c38ff226619b139 OP_EQUALVERIFY OP_CHECKSIG", "type": "pubkeyhash"}, "value": 0.0025, "n": 1}], "hex": "01000000000101905abe1253cf0a37c216c52647fe2db9e58af9cf41ac225138d8e6ba17d1615f410000001716001424e2292b87677611ef73b17dc5e0d74931f82908ffffffff02410a000000000000160014597e0f90e4d4b2e113c888c6e27b24a44d1fc85e90d00300000000001976a914a8607d505ba1df445c7219c04c38ff226619b13988ac0247304402200982a91dc28de5f860c4907ba93f85fce9fba5eefed37fdec086d222d68503fd02200629e9072e85b847fdb4886c6816ceaeef4a82c5034e32ebdd0642b263529fa6012102620d4fbad7472f676e8498598f40cba73bb41280c159d40187e056e261ee095000000000", "vin": [{"txinwitness": ["304402200982a91dc28de5f860c4907ba93f85fce9fba5eefed37fdec086d222d68503fd02200629e9072e85b847fdb4886c6816ceaeef4a82c5034e32ebdd0642b263529fa601", "02620d4fbad7472f676e8498598f40cba73bb41280c159d40187e056e261ee0950"], "sequence": 4294967295, "scriptSig": {"hex": "16001424e2292b87677611ef73b17dc5e0d74931f82908", "asm": "001424e2292b87677611ef73b17dc5e0d74931f82908"}, "vout": 65, "txid": "5f61d117bae6d8385122ac41cff98ae5b92dfe4726c516c2370acf5312be5a90"}], "txid": "217892c60b5257139776d79ece6ce4b35f47ac20dfd0821918ebb484583ded62", "blocktime": 1537873282, "version": 1, "confirmations": 11484, "time": 1537873282, "locktime": 0, "vsize": 167, "size": 248}