{"hash": "3e63cf813be822e26e34d96ff38e78ce8f3d644ee603835c09acdbef04e3ef1a", "blockhash": "00000000000000000017f5eb5941039fbcee6240d03bc1f2f8e35350df66a1d8", "vout": [{"scriptPubKey": {"reqSigs": 1, "hex": "a9144eedc9151c0e840ac2b7c4a320d7a2fe699ac2fb87", "addresses": ["38tMV8ZdapfpRnENLiprf6JpZgDmkohsVN"], "asm": "OP_HASH160 4eedc9151c0e840ac2b7c4a320d7a2fe699ac2fb OP_EQUAL", "type": "scripthash"}, "value": 0.103452, "n": 0}, {"scriptPubKey": {"reqSigs": 1, "hex": "a9146eae8152a33d2a5419159bd187bb8d2b27f17d3287", "addresses": ["3BnFJUboaHuvCv2FHigczLki5YJA3sRh23"], "asm": "OP_HASH160 6eae8152a33d2a5419159bd187bb8d2b27f17d32 OP_EQUAL", "type": "scripthash"}, "value": 0.0021, "n": 1}], "hex": "01000000000101761d65ab02d1cbcba52991e411aa26e4ffc9a821f1c88491b621030b6d83a94a0100000023220020513dc88db93b1ecd8f669bed49bc78f46809e83579262463f6e7bcb9659e6915ffffffff02f0da9d000000000017a9144eedc9151c0e840ac2b7c4a320d7a2fe699ac2fb87503403000000000017a9146eae8152a33d2a5419159bd187bb8d2b27f17d32870400483045022100bc6e3c073d6a9d523fd0b3fa727d25c36eb6daa9c4ac6d3d4a5a4268db5fcb3302207de0b33b6a62492b2c7ed8d6769514dac8f9b2ddeff5be949f089c63cfd6bf09014830450221009962734c3ce4cdf53e89868f840cfbaeda5dc080a1fd9db2e4a555973363ec1d02201afce1c249bec67e0333d7a5d0722c23757f3451719996a0875f41210c7ade4a0169522102a104523c4dcaab58ad5659b550dc05ab7ee4b332b5264cb950f3da3a429f718421028f63122ba539fb5e8f5cb40229bb619f85919005fda1e0f6637dbcd5f1ef372c2102b034129433d7af3f4d899d8277e133da2dad0e8a590f8595b8d456fdaaf40b5753ae00000000", "vin": [{"txinwitness": ["", "3045022100bc6e3c073d6a9d523fd0b3fa727d25c36eb6daa9c4ac6d3d4a5a4268db5fcb3302207de0b33b6a62492b2c7ed8d6769514dac8f9b2ddeff5be949f089c63cfd6bf0901", "30450221009962734c3ce4cdf53e89868f840cfbaeda5dc080a1fd9db2e4a555973363ec1d02201afce1c249bec67e0333d7a5d0722c23757f3451719996a0875f41210c7ade4a01", "522102a104523c4dcaab58ad5659b550dc05ab7ee4b332b5264cb950f3da3a429f718421028f63122ba539fb5e8f5cb40229bb619f85919005fda1e0f6637dbcd5f1ef372c2102b034129433d7af3f4d899d8277e133da2dad0e8a590f8595b8d456fdaaf40b5753ae"], "sequence": 4294967295, "scriptSig": {"hex": "220020513dc88db93b1ecd8f669bed49bc78f46809e83579262463f6e7bcb9659e6915", "asm": "0020513dc88db93b1ecd8f669bed49bc78f46809e83579262463f6e7bcb9659e6915"}, "vout": 1, "txid": "4aa9836d0b0321b69184c8f121a8c9ffe426aa11e49129a5cbcbd102ab651d76"}], "txid": "217d1b9e82e33b7f5b18ea42e4b574337fa7897b83fe921d728da2281097f62a", "blocktime": 1537874412, "version": 1, "confirmations": 11468, "time": 1537874412, "locktime": 0, "vsize": 214, "size": 406}