{"hash": "e00e126292638864f89c6f19ef2bd5f2cb531ede54a9c7d8a5ed6ef1c0fa5f4f", "blockhash": "0000000000000000001f76057863aec43deb6fa401d9628bb513d65a8098bfab", "vout": [{"scriptPubKey": {"reqSigs": 1, "hex": "76a914e5da08f756fb4a360d840d997baf1a394a98135a88ac", "addresses": ["1MxLwGZKFKBVqH5Cs1Nig4MNdLWmTZABMj"], "asm": "OP_DUP OP_HASH160 e5da08f756fb4a360d840d997baf1a394a98135a OP_EQUALVERIFY OP_CHECKSIG", "type": "pubkeyhash"}, "value": 0.00425525, "n": 0}, {"scriptPubKey": {"reqSigs": 1, "hex": "76a91451145278cb8736666b9b3d4cdaab9fb28373aa1688ac", "addresses": ["18Pi5Yh5GF5S7XmHrXpxMFUMNwPW16YwCF"], "asm": "OP_DUP OP_HASH160 51145278cb8736666b9b3d4cdaab9fb28373aa16 OP_EQUALVERIFY OP_CHECKSIG", "type": "pubkeyhash"}, "value": 0.0364321, "n": 1}, {"scriptPubKey": {"reqSigs": 1, "hex": "a914bddce1db77593a7ac8d67f0d488c4311d5103ffa87", "addresses": ["3JzvEy64J63pDv7KjyKsVzupMgKcwdgQU4"], "asm": "OP_HASH160 bddce1db77593a7ac8d67f0d488c4311d5103ffa OP_EQUAL", "type": "scripthash"}, "value": 1.34214261, "n": 2}, {"scriptPubKey": {"reqSigs": 1, "hex": "76a9147d619403a52cb91dcbdebc89d4daba1d828c91aa88ac", "addresses": ["1CRxMq7wq4d2CtVQ6jaPSKqpUojsPB1dLv"], "asm": "OP_DUP OP_HASH160 7d619403a52cb91dcbdebc89d4daba1d828c91aa OP_EQUALVERIFY OP_CHECKSIG", "type": "pubkeyhash"}, "value": 0.0003, "n": 3}], "hex": "02000000000101df2eb1f6a97842be7047447fb78e0171d38888f728e3616b8194c9d4836e53110300000017160014394c1d55120fea8442873d75d93263e22518f914ffffffff04357e0600000000001976a914e5da08f756fb4a360d840d997baf1a394a98135a88ac4a973700000000001976a91451145278cb8736666b9b3d4cdaab9fb28373aa1688ac75f2ff070000000017a914bddce1db77593a7ac8d67f0d488c4311d5103ffa8730750000000000001976a9147d619403a52cb91dcbdebc89d4daba1d828c91aa88ac02483045022100e97adbb59e72eb387443c7df4425c19ce3147316f31824aac3de133c7296cc600220789099fca0e24f3cea3cafd3fd777036db810a8afbac5d746a79a8918d3e1b66012103e196163b6d30d0fef27eff5bae2754a7ccba75d466b78c87116b6535bacce31b00000000", "vin": [{"txinwitness": ["3045022100e97adbb59e72eb387443c7df4425c19ce3147316f31824aac3de133c7296cc600220789099fca0e24f3cea3cafd3fd777036db810a8afbac5d746a79a8918d3e1b6601", "03e196163b6d30d0fef27eff5bae2754a7ccba75d466b78c87116b6535bacce31b"], "sequence": 4294967295, "scriptSig": {"hex": "160014394c1d55120fea8442873d75d93263e22518f914", "asm": "0014394c1d55120fea8442873d75d93263e22518f914"}, "vout": 3, "txid": "11536e83d4c994816b61e328f78888d371018eb77f444770be4278a9f6b12edf"}], "txid": "217f66e4d4643942536e2a2ae06b546875912b2aa836112f4cf233368e93ee5a", "blocktime": 1537873891, "version": 2, "confirmations": 11475, "time": 1537873891, "locktime": 0, "vsize": 236, "size": 318}