{"hash": "2182743afc076a445ae8a6178d241ee97ac069c3c6afbae738738788ccb991d6", "blockhash": "0000000000000000001f76057863aec43deb6fa401d9628bb513d65a8098bfab", "vout": [{"scriptPubKey": {"reqSigs": 1, "hex": "76a914c4a17201a8a6bfad168cf389545908cac127114088ac", "addresses": ["1Jvgr21q76deFp9u2qSJmd7aBgVoaL9kQ3"], "asm": "OP_DUP OP_HASH160 c4a17201a8a6bfad168cf389545908cac1271140 OP_EQUALVERIFY OP_CHECKSIG", "type": "pubkeyhash"}, "value": 0.0001544, "n": 0}, {"scriptPubKey": {"reqSigs": 1, "hex": "76a91499e71bb012f3254bb9f483954075f9ef0032bc7888ac", "addresses": ["1F2mF2X9ZRdjmtzHuwuKuThGYzLQHw2hMB"], "asm": "OP_DUP OP_HASH160 99e71bb012f3254bb9f483954075f9ef0032bc78 OP_EQUALVERIFY OP_CHECKSIG", "type": "pubkeyhash"}, "value": 0.02494, "n": 1}], "hex": "0100000002f0d870cb01afe74dd34a2f6d7ede9addbf2eaf40edf4215bf456b43086807d62010000006b483045022100eb116c2396bf40bb9eabc6f76e68227401b19736e4d0b8868735e5825c997e7b02205c2ce2cf8c20fd7b236ef141b1075df669d2a0e39826b68624055370713ad25e012102d1fdce8e99a8479bd26e809d6b516a48de848046e1e2d2ae58e9e92212c45782fffffffff5ea937bdc7cd47de7986d11847b2c683437f9f8ca4da6511d18a7221cbbe06d2a0000006a47304402205d785888e550a9ec6f88e7393cb8e6fe2935d8790fb777bccf37ec07c67c525b02201b36142b12ad6545d6516b3534a3f3d22f57cee0fb72ae325206da81bdafd27801210349424a9395603dc7c783047d63095b39df8c31968f9c0cd06af4827c3181dde6ffffffff02503c0000000000001976a914c4a17201a8a6bfad168cf389545908cac127114088ac300e2600000000001976a91499e71bb012f3254bb9f483954075f9ef0032bc7888ac00000000", "vin": [{"sequence": 4294967295, "scriptSig": {"hex": "483045022100eb116c2396bf40bb9eabc6f76e68227401b19736e4d0b8868735e5825c997e7b02205c2ce2cf8c20fd7b236ef141b1075df669d2a0e39826b68624055370713ad25e012102d1fdce8e99a8479bd26e809d6b516a48de848046e1e2d2ae58e9e92212c45782", "asm": "3045022100eb116c2396bf40bb9eabc6f76e68227401b19736e4d0b8868735e5825c997e7b02205c2ce2cf8c20fd7b236ef141b1075df669d2a0e39826b68624055370713ad25e[ALL] 02d1fdce8e99a8479bd26e809d6b516a48de848046e1e2d2ae58e9e92212c45782"}, "vout": 1, "txid": "627d808630b456f45b21f4ed40af2ebfdd9ade7e6d2f4ad34de7af01cb70d8f0"}, {"sequence": 4294967295, "scriptSig": {"hex": "47304402205d785888e550a9ec6f88e7393cb8e6fe2935d8790fb777bccf37ec07c67c525b02201b36142b12ad6545d6516b3534a3f3d22f57cee0fb72ae325206da81bdafd27801210349424a9395603dc7c783047d63095b39df8c31968f9c0cd06af4827c3181dde6", "asm": "304402205d785888e550a9ec6f88e7393cb8e6fe2935d8790fb777bccf37ec07c67c525b02201b36142b12ad6545d6516b3534a3f3d22f57cee0fb72ae325206da81bdafd278[ALL] 0349424a9395603dc7c783047d63095b39df8c31968f9c0cd06af4827c3181dde6"}, "vout": 42, "txid": "6de0bb1c22a7181d51a64dcaf8f93734682c7b84116d98e77dd47cdc7b93eaf5"}], "txid": "2182743afc076a445ae8a6178d241ee97ac069c3c6afbae738738788ccb991d6", "blocktime": 1537873891, "version": 1, "confirmations": 11478, "time": 1537873891, "locktime": 0, "vsize": 373, "size": 373}