{"hash": "dd1fedec1327dd50e7391c51cba0d029b4f18448d5b71572896caac199d534f1", "blockhash": "00000000000000000017f5eb5941039fbcee6240d03bc1f2f8e35350df66a1d8", "vout": [{"scriptPubKey": {"reqSigs": 1, "hex": "a914fa942327f68d0f0502013819aad8123d13880f4687", "addresses": ["3QXxKGEJAkEsCbMaqXvjgDEgBdFbYoWmny"], "asm": "OP_HASH160 fa942327f68d0f0502013819aad8123d13880f46 OP_EQUAL", "type": "scripthash"}, "value": 16.63403123, "n": 0}, {"scriptPubKey": {"reqSigs": 1, "hex": "a9140aa983021124d9b10c06ce5880ba3d744f535e6887", "addresses": ["32fPkLxfCqy2KCrbhTepC93u8mzR1BfsAM"], "asm": "OP_HASH160 0aa983021124d9b10c06ce5880ba3d744f535e68 OP_EQUAL", "type": "scripthash"}, "value": 1.19742, "n": 1}], "hex": "02000000000101ab703712ee233420789863f7115a6c8dcd232f831d0d918fbc651172c86660550000000017160014a8b38647f2ef53f773c2d0aea98147c2f6bc2597feffffff02738425630000000017a914fa942327f68d0f0502013819aad8123d13880f4687301e23070000000017a9140aa983021124d9b10c06ce5880ba3d744f535e688702483045022100bcb4782a7962ed1adcdc15b409933a66596d630fe23d8fb5c1607dced9295df30220687facb84c6e3708295763f3f8281b19980f37a88e33e670b12cd2c47cdbd578012102b7da85a02a6818a4dc9da12dc8b11fab08a4f5ffccc855f561f1d2ab6bc490f315490800", "vin": [{"txinwitness": ["3045022100bcb4782a7962ed1adcdc15b409933a66596d630fe23d8fb5c1607dced9295df30220687facb84c6e3708295763f3f8281b19980f37a88e33e670b12cd2c47cdbd57801", "02b7da85a02a6818a4dc9da12dc8b11fab08a4f5ffccc855f561f1d2ab6bc490f3"], "sequence": 4294967294, "scriptSig": {"hex": "160014a8b38647f2ef53f773c2d0aea98147c2f6bc2597", "asm": "0014a8b38647f2ef53f773c2d0aea98147c2f6bc2597"}, "vout": 0, "txid": "556066c8721165bc8f910d1d832f23cd8d6c5a11f7639878203423ee123770ab"}], "txid": "2182c7a6417fa77b4c44c4fbcceee944df3e59b50f2cc79322e09ad56b295bf1", "blocktime": 1537874412, "version": 2, "confirmations": 11466, "time": 1537874412, "locktime": 542997, "vsize": 166, "size": 248}