{"hash": "2185157a78c33cb6e982c7d92ccdfeeb3e6e8e138bc82e606b30b8e3ba448866", "blockhash": "000000000000000000022b45ed06c6f4ccd3cf7fb5ba4856ebd2e58215665228", "vout": [{"scriptPubKey": {"reqSigs": 1, "hex": "76a914cb8b604e3b8075d6ea46de7c4cb6d7f47092458888ac", "addresses": ["1KZF8yDgjxZVtKXutpKu8nB9YyFb5eNTsP"], "asm": "OP_DUP OP_HASH160 cb8b604e3b8075d6ea46de7c4cb6d7f470924588 OP_EQUALVERIFY OP_CHECKSIG", "type": "pubkeyhash"}, "value": 0.02840019, "n": 0}, {"scriptPubKey": {"reqSigs": 1, "hex": "76a914dff724c7be8d6a515cdcd48c0c6f527c484c327b88ac", "addresses": ["1MRDkd47oUWoVYXMrLDyiwDgJTx41FMp5m"], "asm": "OP_DUP OP_HASH160 dff724c7be8d6a515cdcd48c0c6f527c484c327b OP_EQUALVERIFY OP_CHECKSIG", "type": "pubkeyhash"}, "value": 0.343002, "n": 1}], "hex": "0100000002508f18265fb60b1becd2fa0dc225cb395a7b161e9d49493c3766a16b2591dcd4010000006b483045022100f046ca8ee358f5ea6eac6b6e4dcc9e2265b4d461c076e2a490ba0d78f53c8e85022068c0bbbc03b707427c85986eaf5562e632c7ec4224209c17469ad495192e1eba012103058eaa70aa03caa1f93cdb3127a64c5ec3a1a157a3c272b718293bb0e1546c59ffffffffcfa7f00a2a553831f23fe08e28d8c199cf8aae5494e3d0ce5d6454e5ae641ae2010000006b483045022100ba57b987be9c03a626480f6925b8cf1ac6c2b165cc92a2b2728fb8f160a8d0c8022015da2636653656c5c9fa8377011b97f87b33f56c49d26758ffcd9ff5ac68b278012102ed28f4040f6f810747c348f3a1086e81677460b950aefd62e7df9d1fbf857a3cffffffff02d3552b00000000001976a914cb8b604e3b8075d6ea46de7c4cb6d7f47092458888ac28610b02000000001976a914dff724c7be8d6a515cdcd48c0c6f527c484c327b88ac00000000", "vin": [{"sequence": 4294967295, "scriptSig": {"hex": "483045022100f046ca8ee358f5ea6eac6b6e4dcc9e2265b4d461c076e2a490ba0d78f53c8e85022068c0bbbc03b707427c85986eaf5562e632c7ec4224209c17469ad495192e1eba012103058eaa70aa03caa1f93cdb3127a64c5ec3a1a157a3c272b718293bb0e1546c59", "asm": "3045022100f046ca8ee358f5ea6eac6b6e4dcc9e2265b4d461c076e2a490ba0d78f53c8e85022068c0bbbc03b707427c85986eaf5562e632c7ec4224209c17469ad495192e1eba[ALL] 03058eaa70aa03caa1f93cdb3127a64c5ec3a1a157a3c272b718293bb0e1546c59"}, "vout": 1, "txid": "d4dc91256ba166373c49499d1e167b5a39cb25c20dfad2ec1b0bb65f26188f50"}, {"sequence": 4294967295, "scriptSig": {"hex": "483045022100ba57b987be9c03a626480f6925b8cf1ac6c2b165cc92a2b2728fb8f160a8d0c8022015da2636653656c5c9fa8377011b97f87b33f56c49d26758ffcd9ff5ac68b278012102ed28f4040f6f810747c348f3a1086e81677460b950aefd62e7df9d1fbf857a3c", "asm": "3045022100ba57b987be9c03a626480f6925b8cf1ac6c2b165cc92a2b2728fb8f160a8d0c8022015da2636653656c5c9fa8377011b97f87b33f56c49d26758ffcd9ff5ac68b278[ALL] 02ed28f4040f6f810747c348f3a1086e81677460b950aefd62e7df9d1fbf857a3c"}, "vout": 1, "txid": "e21a64aee554645dced0e39454ae8acf99c1d8288ee03ff23138552a0af0a7cf"}], "txid": "2185157a78c33cb6e982c7d92ccdfeeb3e6e8e138bc82e606b30b8e3ba448866", "blocktime": 1537869901, "version": 1, "confirmations": 11524, "time": 1537869901, "locktime": 0, "vsize": 374, "size": 374}