{"hash": "b2efdd5a8fadf8440afa333c8e56d8d523b52441c84fae7c842f2e56c2851ab3", "blockhash": "0000000000000000001f76057863aec43deb6fa401d9628bb513d65a8098bfab", "vout": [{"scriptPubKey": {"reqSigs": 1, "hex": "a9146f45c8d566fe2536022b03f901e4579cd66a7a0387", "addresses": ["3BqNXYpXrbkdMfxon6LCzBgpoLf8rDbWoR"], "asm": "OP_HASH160 6f45c8d566fe2536022b03f901e4579cd66a7a03 OP_EQUAL", "type": "scripthash"}, "value": 0.0123596, "n": 0}, {"scriptPubKey": {"reqSigs": 1, "hex": "a91486016bbbd92d9a53af8f8b163b572057e3bd04b887", "addresses": ["3DuaAyEcxqp6GtD8D3nXDyQug1JpHX7gnq"], "asm": "OP_HASH160 86016bbbd92d9a53af8f8b163b572057e3bd04b8 OP_EQUAL", "type": "scripthash"}, "value": 0.13370565, "n": 1}], "hex": "020000000001024760f0559faf58da53354c805fbc5ff6d1d0ec046aa7af593a5d1b285b4deb0b00000000171600146266b2d62c5ac446e55fb02ceb45b448f525249efeffffffdafd17be25fad500b866064e28772c6a95eeef41619c023417e78ee3bd2a357d0100000017160014962290906c8714476f1fec940739b8c962380bf1feffffff02f8db12000000000017a9146f45c8d566fe2536022b03f901e4579cd66a7a0387c504cc000000000017a91486016bbbd92d9a53af8f8b163b572057e3bd04b887024730440220046a88a3c3d4378973ef1389ee341c7cbfe49dd7a34acd2ed62d9e43a8d5b22b0220663122d486b16d288c5988978689f920b3404ef38f2b3512582e7bf5262274a50121039c4989dba214a096fa81837b5d6fde25f7ab8062c5e5307248d270dc9134212802483045022100aaf5b36d03e4e9fa4b2bc1c90a40fbcd15faca36fcf64f1c2769f808110519ae02200660df0f7047cf97c4646bce6440e0f600de08c30a78c682702ec0f6306dbcb4012103ff034b51deab241e306a7ef8487a274ecf7136a323965ad63ca25411521433f214490800", "vin": [{"txinwitness": ["30440220046a88a3c3d4378973ef1389ee341c7cbfe49dd7a34acd2ed62d9e43a8d5b22b0220663122d486b16d288c5988978689f920b3404ef38f2b3512582e7bf5262274a501", "039c4989dba214a096fa81837b5d6fde25f7ab8062c5e5307248d270dc91342128"], "sequence": 4294967294, "scriptSig": {"hex": "1600146266b2d62c5ac446e55fb02ceb45b448f525249e", "asm": "00146266b2d62c5ac446e55fb02ceb45b448f525249e"}, "vout": 0, "txid": "0beb4d5b281b5d3a59afa76a04ecd0d1f65fbc5f804c3553da58af9f55f06047"}, {"txinwitness": ["3045022100aaf5b36d03e4e9fa4b2bc1c90a40fbcd15faca36fcf64f1c2769f808110519ae02200660df0f7047cf97c4646bce6440e0f600de08c30a78c682702ec0f6306dbcb401", "03ff034b51deab241e306a7ef8487a274ecf7136a323965ad63ca25411521433f2"], "sequence": 4294967294, "scriptSig": {"hex": "160014962290906c8714476f1fec940739b8c962380bf1", "asm": "0014962290906c8714476f1fec940739b8c962380bf1"}, "vout": 1, "txid": "7d352abde38ee71734029c6141efee956a2c77284e0666b800d5fa25be17fdda"}], "txid": "2186286ac0104a5558c9a81b6381ec544793e6e614e269436cc2438244342ca4", "blocktime": 1537873891, "version": 2, "confirmations": 11479, "time": 1537873891, "locktime": 542996, "vsize": 257, "size": 419}