{"hash": "21888b169a6128fbcb8d041014607fd4a4648bf372136b196c44fdac0448adfd", "blockhash": "0000000000000000000baef3f32e3676a92c3b2e5da21b426e4f302fc371ce76", "vout": [{"scriptPubKey": {"reqSigs": 1, "hex": "a9145c469bf7425f275448cbdaf81364401cfca0cf8687", "addresses": ["3A6vgD2sREYm4L85RmuqdF9C3CMoX1BXqo"], "asm": "OP_HASH160 5c469bf7425f275448cbdaf81364401cfca0cf86 OP_EQUAL", "type": "scripthash"}, "value": 0.00020976, "n": 0}, {"scriptPubKey": {"reqSigs": 1, "hex": "76a9140396c750f15f6e2aea1495bee284490a42c197e788ac", "addresses": ["1KyeraaoWhQ64rPgxTRNfHXJkNRkoxqhi"], "asm": "OP_DUP OP_HASH160 0396c750f15f6e2aea1495bee284490a42c197e7 OP_EQUALVERIFY OP_CHECKSIG", "type": "pubkeyhash"}, "value": 0.20537808, "n": 1}], "hex": "0200000001eec3190887d8a9d3c5f965f64bf31aed97fa321f38b8fc924da5beec1e32a898010000006a4730440220184718437ee1929616da6ef1e47f957768260657659ca600ac62ff738ed0e71e02201101278847a42bb6483157eae687a05d7562ac44c35ba6333702dbd559f5d5c40121037aed202cc0420c61a4ecd5ba5d8ff2b6263caec8e7242e78157405b8890aaf5dffffffff02f05100000000000017a9145c469bf7425f275448cbdaf81364401cfca0cf8687d0613901000000001976a9140396c750f15f6e2aea1495bee284490a42c197e788ac00000000", "vin": [{"sequence": 4294967295, "scriptSig": {"hex": "4730440220184718437ee1929616da6ef1e47f957768260657659ca600ac62ff738ed0e71e02201101278847a42bb6483157eae687a05d7562ac44c35ba6333702dbd559f5d5c40121037aed202cc0420c61a4ecd5ba5d8ff2b6263caec8e7242e78157405b8890aaf5d", "asm": "30440220184718437ee1929616da6ef1e47f957768260657659ca600ac62ff738ed0e71e02201101278847a42bb6483157eae687a05d7562ac44c35ba6333702dbd559f5d5c4[ALL] 037aed202cc0420c61a4ecd5ba5d8ff2b6263caec8e7242e78157405b8890aaf5d"}, "vout": 1, "txid": "98a8321eecbea54d92fcb8381f32fa97ed1af34bf665f9c5d3a9d8870819c3ee"}], "txid": "21888b169a6128fbcb8d041014607fd4a4648bf372136b196c44fdac0448adfd", "blocktime": 1537876114, "version": 2, "confirmations": 11460, "time": 1537876114, "locktime": 0, "vsize": 223, "size": 223}