{"hash": "218bc9a00b279ce8cf5c49bab34fac40c0618bae76a7e3992b14edce1771248e", "blockhash": "0000000000000000000dcc0f55137456b1a82d3642486a52398922ac4d620174", "vout": [{"scriptPubKey": {"reqSigs": 1, "hex": "a9143e6f15908582f42917ec31e39bf8722fc9d5db3f87", "addresses": ["37P8thrtDXb6Di5E7f4FL3bpzum3fhUvT7"], "asm": "OP_HASH160 3e6f15908582f42917ec31e39bf8722fc9d5db3f OP_EQUAL", "type": "scripthash"}, "value": 0.0002, "n": 0}, {"scriptPubKey": {"reqSigs": 1, "hex": "76a9141bd99f87dbf5c1bab319ffaa366b9b32d05814b488ac", "addresses": ["13YFwuKnG9qDZAzyve8xztGAgPxwZYwb5X"], "asm": "OP_DUP OP_HASH160 1bd99f87dbf5c1bab319ffaa366b9b32d05814b4 OP_EQUALVERIFY OP_CHECKSIG", "type": "pubkeyhash"}, "value": 0.00166448, "n": 1}], "hex": "01000000011e045dc01d15cbf4d0cc0d0f31321e9cf8c36b1e5496e41b4bf437f61ca6211f000000006b483045022100bc98cb4ed2700e3882b3a0f1c2197ca98c022cff9d237b66d32bf84a7699bb5602204e71b529b2b4d7bfeee8052fb0c549899da9ce3f5d8fa17c49e1bd5862ad5a4c0121029753a5d5623cdfb882b75eec8f83b374b3876dfbf5579726d931c3f576ef6315ffffffff02204e00000000000017a9143e6f15908582f42917ec31e39bf8722fc9d5db3f87308a0200000000001976a9141bd99f87dbf5c1bab319ffaa366b9b32d05814b488ac00000000", "vin": [{"sequence": 4294967295, "scriptSig": {"hex": "483045022100bc98cb4ed2700e3882b3a0f1c2197ca98c022cff9d237b66d32bf84a7699bb5602204e71b529b2b4d7bfeee8052fb0c549899da9ce3f5d8fa17c49e1bd5862ad5a4c0121029753a5d5623cdfb882b75eec8f83b374b3876dfbf5579726d931c3f576ef6315", "asm": "3045022100bc98cb4ed2700e3882b3a0f1c2197ca98c022cff9d237b66d32bf84a7699bb5602204e71b529b2b4d7bfeee8052fb0c549899da9ce3f5d8fa17c49e1bd5862ad5a4c[ALL] 029753a5d5623cdfb882b75eec8f83b374b3876dfbf5579726d931c3f576ef6315"}, "vout": 0, "txid": "1f21a61cf637f44b1be496541e6bc3f89c1e32310f0dccd0f4cb151dc05d041e"}], "txid": "218bc9a00b279ce8cf5c49bab34fac40c0618bae76a7e3992b14edce1771248e", "blocktime": 1537870268, "version": 1, "confirmations": 11516, "time": 1537870268, "locktime": 0, "vsize": 224, "size": 224}