{"hash": "212e990407fd6bd224f24788cce5916d4913ecaa74dac3a32b698f37e3d44ad4", "blockhash": "0000000000000000001cda96e906b7601b7a6fb1a3b62bca570a9e5d8f4b3de1", "vout": [{"scriptPubKey": {"reqSigs": 1, "hex": "a914ccee0c4d5db923161442f1b3b087cba55a4b918c87", "addresses": ["3LNawYd4gUV3BrxFo63ZC3vM77PP13tsrt"], "asm": "OP_HASH160 ccee0c4d5db923161442f1b3b087cba55a4b918c OP_EQUAL", "type": "scripthash"}, "value": 0.89100612, "n": 0}, {"scriptPubKey": {"reqSigs": 1, "hex": "76a9145ced0420fe89f249e4e5a1719006d03dc2a6454388ac", "addresses": ["19UM6pRn22W5FvjYRBcgYP5UMSmFqzDdzM"], "asm": "OP_DUP OP_HASH160 5ced0420fe89f249e4e5a1719006d03dc2a64543 OP_EQUALVERIFY OP_CHECKSIG", "type": "pubkeyhash"}, "value": 0.03708544, "n": 1}], "hex": "02000000000101a7869949a7dba0dc2cb98a1ca37724a2ce873033fe6f9ec39d94acb3522660c001000000171600144fa156b64f7eb1858c3bebf0b1bf9aed96396b1bfdffffff0244914f050000000017a914ccee0c4d5db923161442f1b3b087cba55a4b918c8780963800000000001976a9145ced0420fe89f249e4e5a1719006d03dc2a6454388ac02473044022055828cb5a97cfba441c5c7b2f3cb1d4a82c950bb0fe0bd5e525c6a955045acee02207b8af44368190e9155ed0676951e93f0317b6f9bc66048f85d5c93a3e47b03550121032abaa0df73914c069bb9d6345a8edd6feba8c55b7cae8bc618d33ac6711cc0d313490800", "vin": [{"txinwitness": ["3044022055828cb5a97cfba441c5c7b2f3cb1d4a82c950bb0fe0bd5e525c6a955045acee02207b8af44368190e9155ed0676951e93f0317b6f9bc66048f85d5c93a3e47b035501", "032abaa0df73914c069bb9d6345a8edd6feba8c55b7cae8bc618d33ac6711cc0d3"], "sequence": 4294967293, "scriptSig": {"hex": "1600144fa156b64f7eb1858c3bebf0b1bf9aed96396b1b", "asm": "00144fa156b64f7eb1858c3bebf0b1bf9aed96396b1b"}, "vout": 1, "txid": "c0602652b3ac949dc39e6ffe333087cea22477a31c8ab92cdca0dba7499986a7"}], "txid": "218b4c8444efb03741854531b6e863dce0ef7644092e9f37f33f09d7e27a820e", "blocktime": 1537873282, "version": 2, "confirmations": 11484, "time": 1537873282, "locktime": 542995, "vsize": 168, "size": 249}