{"hash": "83993b862122e5fcac6ba4e6bfce0ef79a4ba94e189d46951bd2d4044d3ebea5", "blockhash": "0000000000000000001cda96e906b7601b7a6fb1a3b62bca570a9e5d8f4b3de1", "vout": [{"scriptPubKey": {"reqSigs": 1, "hex": "00140f3297f9d0405f0d31fae1714231dc4922561e9e", "addresses": ["bc1qpuef07wsgp0s6v06u9c5yvwufy39v857n3h75u"], "asm": "0 0f3297f9d0405f0d31fae1714231dc4922561e9e", "type": "witness_v0_keyhash"}, "value": 4.912e-05, "n": 0}, {"scriptPubKey": {"reqSigs": 1, "hex": "76a9142ff55cf333f5b0c9b44db7107ddf51a8ad2d6aff88ac", "addresses": ["15Nah9F5qVxKKu8t7L94ZUwAjRB1WdtzD4"], "asm": "OP_DUP OP_HASH160 2ff55cf333f5b0c9b44db7107ddf51a8ad2d6aff OP_EQUALVERIFY OP_CHECKSIG", "type": "pubkeyhash"}, "value": 0.00549, "n": 1}], "hex": "010000000001011c8c4beb194cd3e42a8ddb9ab78d341dbfd81491bc249634c0d197faa4c9ffed0000000000ffffffff0230130000000000001600140f3297f9d0405f0d31fae1714231dc4922561e9e88600800000000001976a9142ff55cf333f5b0c9b44db7107ddf51a8ad2d6aff88ac024830450221009a89bb329aa07bafcb064650c316664e60bde14add8911aa64bbbbdc2b0f7c8a02204d2373d6a60ab58aa67a5bc698de1a447e0dba8ec94b6b504fb2f14acaf61d6001210224ca6d47ba40cd2bd9448b00f9826bf54f7c1f189c287f7c2bc7c9a3a999470400000000", "vin": [{"txinwitness": ["30450221009a89bb329aa07bafcb064650c316664e60bde14add8911aa64bbbbdc2b0f7c8a02204d2373d6a60ab58aa67a5bc698de1a447e0dba8ec94b6b504fb2f14acaf61d6001", "0224ca6d47ba40cd2bd9448b00f9826bf54f7c1f189c287f7c2bc7c9a3a9994704"], "sequence": 4294967295, "scriptSig": {"hex": "", "asm": ""}, "vout": 0, "txid": "edffc9a4fa97d1c0349624bc9114d8bf1d348db79adb8d2ae4d34c19eb4b8c1c"}], "txid": "21924aaf04f54b4fe12a1969bf2c72108cbf8bfad4eb041439be4c0fd37c6a6e", "blocktime": 1537873282, "version": 1, "confirmations": 11484, "time": 1537873282, "locktime": 0, "vsize": 144, "size": 226}