{"hash": "3bf3e2c085e14465c149f3cbc2e17d67f08ccaae727638cfa06a169bb4adf579", "blockhash": "0000000000000000001f76057863aec43deb6fa401d9628bb513d65a8098bfab", "vout": [{"scriptPubKey": {"reqSigs": 1, "hex": "76a91444389fdeb261b337c208e8ef1be0e5776e874b7888ac", "addresses": ["17DinPDsBXZssLPzXZgVdVomQHgYVPUxAM"], "asm": "OP_DUP OP_HASH160 44389fdeb261b337c208e8ef1be0e5776e874b78 OP_EQUALVERIFY OP_CHECKSIG", "type": "pubkeyhash"}, "value": 0.06809, "n": 0}, {"scriptPubKey": {"reqSigs": 1, "hex": "a91471df73fdc33fb1c561baf7248946ed58b4130fea87", "addresses": ["3C57y1jmU1Are47DE1ZePavP76rNSNA5ej"], "asm": "OP_HASH160 71df73fdc33fb1c561baf7248946ed58b4130fea OP_EQUAL", "type": "scripthash"}, "value": 0.018178, "n": 1}, {"scriptPubKey": {"reqSigs": 1, "hex": "a914ccafb84716103f9846818ffc27c5a59bb03af34e87", "addresses": ["3LMJGuTjdHwgR2A14V3m7FZReSQrtW8tvu"], "asm": "OP_HASH160 ccafb84716103f9846818ffc27c5a59bb03af34e OP_EQUAL", "type": "scripthash"}, "value": 0.01113626, "n": 2}, {"scriptPubKey": {"reqSigs": 1, "hex": "a91469f375ed644ac9e13df9bd8d464d889d3090715787", "addresses": ["3BMEXdRFEvjABKvMs8CxTYiyVHPfAN87DL"], "asm": "OP_HASH160 69f375ed644ac9e13df9bd8d464d889d30907157 OP_EQUAL", "type": "scripthash"}, "value": 0.23784263, "n": 3}, {"scriptPubKey": {"reqSigs": 1, "hex": "a9144d129c18b14c34f7cbfc76b7cd67832a0823a39187", "addresses": ["38iYFLqq5R9LLkS2cSXY1wD4URWDV8Ns8u"], "asm": "OP_HASH160 4d129c18b14c34f7cbfc76b7cd67832a0823a391 OP_EQUAL", "type": "scripthash"}, "value": 0.03000585, "n": 4}], "hex": "0100000000010204d9b5ed8b6b8c1c762891ec395a2cc05a649af3e41cd827dbfc5d3589bd1385000000002322002076a1075a3926797de15beb37eec75b2fa94b602b86f4364d5edcb165c109e919000000000e81b3ae5bed27cc6831a8bff4c0a5fb5874e4d05cd8b3cd34f60dc9c7ca952400000000232200202d7a50f24ff7c777a4decbf11e12618f855be41b9a14221dc80394865784c2cf0000000005a8e56700000000001976a91444389fdeb261b337c208e8ef1be0e5776e874b7888acc8bc1b000000000017a91471df73fdc33fb1c561baf7248946ed58b4130fea871afe10000000000017a914ccafb84716103f9846818ffc27c5a59bb03af34e8747eb6a010000000017a91469f375ed644ac9e13df9bd8d464d889d309071578709c92d000000000017a9144d129c18b14c34f7cbfc76b7cd67832a0823a39187040047304402205efd7d911dd08af39c7efb10dedd1f85bc78c8e679916e9467f4f76d1c3b32ba02207489163e2a48a6d46049a6b525598003d43f825736963853290a292fcbf6baa501483045022100945d1e6e383f6f71ccb311930c21647dfb515dbcc382264aedba28822837ccdf02205dc5758d52dd05b60736686971d475266d38b8ef6d56c1164fce1ee0c66d1aae0147522103d14f8c85fd159b7ee26e0c897c143071110f504aca83095efd20f2479fef012d210280eb87e7d4749d31ad745fcf36ed80d549107552318f8f73965b2a873189f5f852ae0400473044022058b73c83ffc3d94fdf2dac29f2c098436095acca5c23dddb37e1c21cc998e43702201add4fe8b34e8a17fa05fe5b20774c150d743b83b95e87f9aba39451356da60401483045022100e634fb2e1fa533e11390cc30cf83eda18593010274e8ca7f591b43ec2409b63a02205d4ca2653441dbd3f572fdf6a308e3ae236d8cce33de8c10052a87ef68f0b05d0147522103395dbee1ffdc6d7e28fae16618327dd2633dd6f8879dc39676cab9e55911fcd521021ae184d69382449a14e703d89938720dea351fd255f47e8940a6b74732ad0f2052ae00000000", "vin": [{"txinwitness": ["", "304402205efd7d911dd08af39c7efb10dedd1f85bc78c8e679916e9467f4f76d1c3b32ba02207489163e2a48a6d46049a6b525598003d43f825736963853290a292fcbf6baa501", "3045022100945d1e6e383f6f71ccb311930c21647dfb515dbcc382264aedba28822837ccdf02205dc5758d52dd05b60736686971d475266d38b8ef6d56c1164fce1ee0c66d1aae01", "522103d14f8c85fd159b7ee26e0c897c143071110f504aca83095efd20f2479fef012d210280eb87e7d4749d31ad745fcf36ed80d549107552318f8f73965b2a873189f5f852ae"], "sequence": 0, "scriptSig": {"hex": "22002076a1075a3926797de15beb37eec75b2fa94b602b86f4364d5edcb165c109e919", "asm": "002076a1075a3926797de15beb37eec75b2fa94b602b86f4364d5edcb165c109e919"}, "vout": 0, "txid": "8513bd89355dfcdb27d81ce4f39a645ac02c5a39ec9128761c8c6b8bedb5d904"}, {"txinwitness": ["", "3044022058b73c83ffc3d94fdf2dac29f2c098436095acca5c23dddb37e1c21cc998e43702201add4fe8b34e8a17fa05fe5b20774c150d743b83b95e87f9aba39451356da60401", "3045022100e634fb2e1fa533e11390cc30cf83eda18593010274e8ca7f591b43ec2409b63a02205d4ca2653441dbd3f572fdf6a308e3ae236d8cce33de8c10052a87ef68f0b05d01", "522103395dbee1ffdc6d7e28fae16618327dd2633dd6f8879dc39676cab9e55911fcd521021ae184d69382449a14e703d89938720dea351fd255f47e8940a6b74732ad0f2052ae"], "sequence": 0, "scriptSig": {"hex": "2200202d7a50f24ff7c777a4decbf11e12618f855be41b9a14221dc80394865784c2cf", "asm": "00202d7a50f24ff7c777a4decbf11e12618f855be41b9a14221dc80394865784c2cf"}, "vout": 0, "txid": "2495cac7c90df634cdb3d85cd0e47458fba5c0f4bfa83168cc27ed5baeb3810e"}], "txid": "21932bb7aa6dcbd1514f75240b2f0c06ed9ae61565c26362b5d9ac797abed171", "blocktime": 1537873891, "version": 1, "confirmations": 11474, "time": 1537873891, "locktime": 0, "vsize": 434, "size": 764}