{"hash": "219628213e4c37e90e53c3ea589be7809849a65655883efd324cfd238bfb48fa", "blockhash": "000000000000000000022b45ed06c6f4ccd3cf7fb5ba4856ebd2e58215665228", "vout": [{"scriptPubKey": {"reqSigs": 1, "hex": "76a914eb2d22186c97cafc9705db083ab092bb8a4ef3fd88ac", "addresses": ["1NSVrzMRrvbEUR2wBVxGrXYnUhUziaheLN"], "asm": "OP_DUP OP_HASH160 eb2d22186c97cafc9705db083ab092bb8a4ef3fd OP_EQUALVERIFY OP_CHECKSIG", "type": "pubkeyhash"}, "value": 0.0082889, "n": 0}, {"scriptPubKey": {"reqSigs": 1, "hex": "a91411e2c326dcb84e1ff37b89aec7d9c94648b2170d87", "addresses": ["33Kb4XVRVK3bPDwbwbBu9YJxMJjDXgCMxH"], "asm": "OP_HASH160 11e2c326dcb84e1ff37b89aec7d9c94648b2170d OP_EQUAL", "type": "scripthash"}, "value": 0.01170589, "n": 1}], "hex": "010000000147af9f910045212e8a049bd3a34d9bbfd55b108b4a4ed907759b835e3a06681d860000006a4730440220573235622966ec8aff183135ea3a276a3bcc5de57996995619892b3ebf5d914202205313516124d1f4ac106c46271b272181a25548f4d58ac32bece44dc6436d110e012102b77972388cf97123755c4bab02e4504d423be1b7e2fb089748f5cba395c7a422ffffffff02daa50c00000000001976a914eb2d22186c97cafc9705db083ab092bb8a4ef3fd88ac9ddc11000000000017a91411e2c326dcb84e1ff37b89aec7d9c94648b2170d8700000000", "vin": [{"sequence": 4294967295, "scriptSig": {"hex": "4730440220573235622966ec8aff183135ea3a276a3bcc5de57996995619892b3ebf5d914202205313516124d1f4ac106c46271b272181a25548f4d58ac32bece44dc6436d110e012102b77972388cf97123755c4bab02e4504d423be1b7e2fb089748f5cba395c7a422", "asm": "30440220573235622966ec8aff183135ea3a276a3bcc5de57996995619892b3ebf5d914202205313516124d1f4ac106c46271b272181a25548f4d58ac32bece44dc6436d110e[ALL] 02b77972388cf97123755c4bab02e4504d423be1b7e2fb089748f5cba395c7a422"}, "vout": 134, "txid": "1d68063a5e839b7507d94e4a8b105bd5bf9b4da3d39b048a2e214500919faf47"}], "txid": "219628213e4c37e90e53c3ea589be7809849a65655883efd324cfd238bfb48fa", "blocktime": 1537869901, "version": 1, "confirmations": 11523, "time": 1537869901, "locktime": 0, "vsize": 223, "size": 223}