{"hash": "9009361193af57d9787e3c0dbe9bd0bb4ca9ae8a52735e005a40f00a80e723a9", "blockhash": "0000000000000000000baef3f32e3676a92c3b2e5da21b426e4f302fc371ce76", "vout": [{"scriptPubKey": {"reqSigs": 1, "hex": "76a91485db7cab769f93a69785c13cc1e0df51be1f9d8b88ac", "addresses": ["1DCmojk8DoVM3CmvYCzyJbGfcHzZstF2vU"], "asm": "OP_DUP OP_HASH160 85db7cab769f93a69785c13cc1e0df51be1f9d8b OP_EQUALVERIFY OP_CHECKSIG", "type": "pubkeyhash"}, "value": 2.613e-05, "n": 0}, {"scriptPubKey": {"reqSigs": 1, "hex": "a9148ddb66c3371910a0ef8f38021cc4094e61e69f3a87", "addresses": ["3Ed62sPENkraPwpovPty9YMFGJ8FtTyv63"], "asm": "OP_HASH160 8ddb66c3371910a0ef8f38021cc4094e61e69f3a OP_EQUAL", "type": "scripthash"}, "value": 0.00041909, "n": 1}], "hex": "01000000000101de6b728e83f6dd614ba0d848c968857391b69848181a8929e71513a6f04dde890100000023220020fdd23d707f55451c4e006c77b5e8df35a185a8e99f9bda70bf0ded7913bb1eb3ffffffff02350a0000000000001976a91485db7cab769f93a69785c13cc1e0df51be1f9d8b88acb5a300000000000017a9148ddb66c3371910a0ef8f38021cc4094e61e69f3a8704004730440220081f6929ac96332b604fe5f990d1112b909d1bc89ddf4d5b20b01b167c34e38702207b0b58d6037008231d588e517232eb49336108a893e233201c9beb65d9fba037014730440220629f5b6f170255e142bf63429b6f3b42abef0be8ba9192552c96cb336dcd5d10022025eb87df61c6817082a1197d89e06c44e66e4f46e4f6293fc69cb9157ffe5b09014752210286c104577b978160849865bc23f9a6df9b53d41c8ffb486754b97b2a474a181c2103148c80a5bdfddb05ff5bcffc397c8ca748d8b435ec6a175bc9d7bfc7fc6f853752ae00000000", "vin": [{"txinwitness": ["", "30440220081f6929ac96332b604fe5f990d1112b909d1bc89ddf4d5b20b01b167c34e38702207b0b58d6037008231d588e517232eb49336108a893e233201c9beb65d9fba03701", "30440220629f5b6f170255e142bf63429b6f3b42abef0be8ba9192552c96cb336dcd5d10022025eb87df61c6817082a1197d89e06c44e66e4f46e4f6293fc69cb9157ffe5b0901", "52210286c104577b978160849865bc23f9a6df9b53d41c8ffb486754b97b2a474a181c2103148c80a5bdfddb05ff5bcffc397c8ca748d8b435ec6a175bc9d7bfc7fc6f853752ae"], "sequence": 4294967295, "scriptSig": {"hex": "220020fdd23d707f55451c4e006c77b5e8df35a185a8e99f9bda70bf0ded7913bb1eb3", "asm": "0020fdd23d707f55451c4e006c77b5e8df35a185a8e99f9bda70bf0ded7913bb1eb3"}, "vout": 1, "txid": "89de4df0a61315e729891a184898b691738568c948d8a04b61ddf6838e726bde"}], "txid": "219b66fd88bfe945d2751f57c05f4ff577cda46445ffb92449fc811077da5330", "blocktime": 1537876114, "version": 1, "confirmations": 11460, "time": 1537876114, "locktime": 0, "vsize": 207, "size": 372}