{"hash": "219cc1ed463c7c33fc6b4bed7abf433af3d2bd70a7c18968e5d1033ea970f57a", "blockhash": "00000000000000000018f53835495a110e01622372bf6ae95dc86f2b0ab887b0", "vout": [{"scriptPubKey": {"reqSigs": 1, "hex": "76a9145a4a1313a84c555ff2b85bbf9049b377fada5e4f88ac", "addresses": ["19EQZ43hVJEK7n6PAQX4BnYoMQtxXJ1WmD"], "asm": "OP_DUP OP_HASH160 5a4a1313a84c555ff2b85bbf9049b377fada5e4f OP_EQUALVERIFY OP_CHECKSIG", "type": "pubkeyhash"}, "value": 0.02072662, "n": 0}, {"scriptPubKey": {"reqSigs": 1, "hex": "a9149492b26f86ebbdd832d401b909bfb9bc01e3068c87", "addresses": ["3FEbfd2KENB5uhNxnUAzzY1TxcvVRqvy9w"], "asm": "OP_HASH160 9492b26f86ebbdd832d401b909bfb9bc01e3068c OP_EQUAL", "type": "scripthash"}, "value": 0.02343, "n": 1}], "hex": "010000000136a2477a141490dc3583bfb61b5122b2f34b8d01c9d9e8c18aa63e9ad9b4d035060000006a47304402205448789b872f0d07ff1e4c7f342f150d2b60d33e324a02f527d485b6faae567a02205d84d6fb03d0fe3aa6ed59dbaec91e43d14d66a9df312972564cc3fed0c687620121023a16d861a13f1356c9d84f5ec17494b8f8d41d4d524a19a457430df31236e072ffffffff0256a01f00000000001976a9145a4a1313a84c555ff2b85bbf9049b377fada5e4f88ac58c023000000000017a9149492b26f86ebbdd832d401b909bfb9bc01e3068c8700000000", "vin": [{"sequence": 4294967295, "scriptSig": {"hex": "47304402205448789b872f0d07ff1e4c7f342f150d2b60d33e324a02f527d485b6faae567a02205d84d6fb03d0fe3aa6ed59dbaec91e43d14d66a9df312972564cc3fed0c687620121023a16d861a13f1356c9d84f5ec17494b8f8d41d4d524a19a457430df31236e072", "asm": "304402205448789b872f0d07ff1e4c7f342f150d2b60d33e324a02f527d485b6faae567a02205d84d6fb03d0fe3aa6ed59dbaec91e43d14d66a9df312972564cc3fed0c68762[ALL] 023a16d861a13f1356c9d84f5ec17494b8f8d41d4d524a19a457430df31236e072"}, "vout": 6, "txid": "35d0b4d99a3ea68ac1e8d9c9018d4bf3b222511bb6bf8335dc9014147a47a236"}], "txid": "219cc1ed463c7c33fc6b4bed7abf433af3d2bd70a7c18968e5d1033ea970f57a", "blocktime": 1537870928, "version": 1, "confirmations": 11514, "time": 1537870928, "locktime": 0, "vsize": 223, "size": 223}