{"hash": "21a2b4df0cb3a9e8c205bf2185522803f81484446cfb4be1c54e668c0bdb1a5c", "blockhash": "00000000000000000004ffacab907a6b429b9a5745fa0b75af4234bf69dd7176", "vout": [{"scriptPubKey": {"reqSigs": 1, "hex": "a91469d48312e4936b0df02aed59c8c786ef2bfe532e87", "addresses": ["3BLbTH8zagWw4Lp3zg7WkXozm6awe65xcA"], "asm": "OP_HASH160 69d48312e4936b0df02aed59c8c786ef2bfe532e OP_EQUAL", "type": "scripthash"}, "value": 0.69710301, "n": 0}, {"scriptPubKey": {"reqSigs": 1, "hex": "76a9148395b0e04143f8834799bc61708078b1fde7f96b88ac", "addresses": ["1CzkqqZvQBXWs53rzGnuksp3wkSoEeN4BB"], "asm": "OP_DUP OP_HASH160 8395b0e04143f8834799bc61708078b1fde7f96b OP_EQUALVERIFY OP_CHECKSIG", "type": "pubkeyhash"}, "value": 0.05062495, "n": 1}], "hex": "02000000010e2859fed4bf2a7d0d3d6470c636d12d17b17fd20ae691ed5231d0dbc07a5e63000000006a473044022025b9bebaf53b88eef11611a2bd330783d025759d67bcadd2ffb2995a683e44cb02203e3fdf2f7a30a56de60b920ac498d768c985a2bb827c7f85803e1ea9a6f9a582012103dc05cd9d975554036cbea4f15412805e4b81682494be88ebb7564a4a56263a4afeffffff02ddb127040000000017a91469d48312e4936b0df02aed59c8c786ef2bfe532e875f3f4d00000000001976a9148395b0e04143f8834799bc61708078b1fde7f96b88ac16490800", "vin": [{"sequence": 4294967294, "scriptSig": {"hex": "473044022025b9bebaf53b88eef11611a2bd330783d025759d67bcadd2ffb2995a683e44cb02203e3fdf2f7a30a56de60b920ac498d768c985a2bb827c7f85803e1ea9a6f9a582012103dc05cd9d975554036cbea4f15412805e4b81682494be88ebb7564a4a56263a4a", "asm": "3044022025b9bebaf53b88eef11611a2bd330783d025759d67bcadd2ffb2995a683e44cb02203e3fdf2f7a30a56de60b920ac498d768c985a2bb827c7f85803e1ea9a6f9a582[ALL] 03dc05cd9d975554036cbea4f15412805e4b81682494be88ebb7564a4a56263a4a"}, "vout": 0, "txid": "635e7ac0dbd03152ed91e60ad27fb1172dd136c670643d0d7d2abfd4fe59280e"}], "txid": "21a2b4df0cb3a9e8c205bf2185522803f81484446cfb4be1c54e668c0bdb1a5c", "blocktime": 1537875543, "version": 2, "confirmations": 11464, "time": 1537875543, "locktime": 542998, "vsize": 223, "size": 223}