{"hash": "21a707f81b53fc6e4b16307629ce0c832a30498da37dc328d775d3ac7ee93f74", "blockhash": "00000000000000000017f5eb5941039fbcee6240d03bc1f2f8e35350df66a1d8", "vout": [{"scriptPubKey": {"reqSigs": 1, "hex": "76a914b334d11d4881a1692bcb80ee76e1ab6d4e7379ad88ac", "addresses": ["1HLZE7nMvNVFivxTEDqBhknveMuYPJHn1g"], "asm": "OP_DUP OP_HASH160 b334d11d4881a1692bcb80ee76e1ab6d4e7379ad OP_EQUALVERIFY OP_CHECKSIG", "type": "pubkeyhash"}, "value": 0.00116591, "n": 0}], "hex": "010000000191d0e59801576b03735f839a7ef91a2e17aa7ac1050b6ddebe12ca57a6ce2586000000006b483045022100b29db7b4edab4de569832a259082913d6689ac2ef993737e46db67bddfa6aac1022017fc38c22324fd35f6a0c68aaa6b3c72b4a4f5ba262b3f28043553c9e13bb515012102e51ae4501babd6380f4f40e3cb61066430633e478eb1a0bb585fb4848ff69b69ffffffff016fc70100000000001976a914b334d11d4881a1692bcb80ee76e1ab6d4e7379ad88ac00000000", "vin": [{"sequence": 4294967295, "scriptSig": {"hex": "483045022100b29db7b4edab4de569832a259082913d6689ac2ef993737e46db67bddfa6aac1022017fc38c22324fd35f6a0c68aaa6b3c72b4a4f5ba262b3f28043553c9e13bb515012102e51ae4501babd6380f4f40e3cb61066430633e478eb1a0bb585fb4848ff69b69", "asm": "3045022100b29db7b4edab4de569832a259082913d6689ac2ef993737e46db67bddfa6aac1022017fc38c22324fd35f6a0c68aaa6b3c72b4a4f5ba262b3f28043553c9e13bb515[ALL] 02e51ae4501babd6380f4f40e3cb61066430633e478eb1a0bb585fb4848ff69b69"}, "vout": 0, "txid": "8625cea657ca12bede6d0b05c17aaa172e1af97e9a835f73036b570198e5d091"}], "txid": "21a707f81b53fc6e4b16307629ce0c832a30498da37dc328d775d3ac7ee93f74", "blocktime": 1537874412, "version": 1, "confirmations": 11467, "time": 1537874412, "locktime": 0, "vsize": 192, "size": 192}