{"hash": "21a9c925a68ad9eb29ae32e8dbc4e45bbe456b2ba6ed80d9a03eb99f31733511", "blockhash": "0000000000000000000dcc0f55137456b1a82d3642486a52398922ac4d620174", "vout": [{"scriptPubKey": {"type": "nulldata", "hex": "6a146f6d6e69000000000000001f000000517da02c00", "asm": "OP_RETURN 6f6d6e69000000000000001f000000517da02c00"}, "value": 0.0, "n": 0}, {"scriptPubKey": {"reqSigs": 1, "hex": "76a914a25dec4d0011064ef106a983c39c7a540699f22088ac", "addresses": ["1FoWyxwPXuj4C6abqwhjDWdz6D4PZgYRjA"], "asm": "OP_DUP OP_HASH160 a25dec4d0011064ef106a983c39c7a540699f220 OP_EQUALVERIFY OP_CHECKSIG", "type": "pubkeyhash"}, "value": 0.01976011, "n": 1}, {"scriptPubKey": {"reqSigs": 1, "hex": "76a914ae667d6f3933d1d3fad28273415c3fde03f3934b88ac", "addresses": ["1Gu9MWQfDjZo4Sqtg3MwqqLb33d3zZ4uPT"], "asm": "OP_DUP OP_HASH160 ae667d6f3933d1d3fad28273415c3fde03f3934b OP_EQUALVERIFY OP_CHECKSIG", "type": "pubkeyhash"}, "value": 5.46e-06, "n": 2}], "hex": "01000000017bf6bf6454e85c49332a6fb1552d87e6d57f0bbcd085226ad077c04cfb5f4195010000006a473044022065f4f4118f0b8262bf26c68c15b22887b636f2c18fe3b0ca7bd9a2f62da80d6c022048582075ffbca9a5e5c289a3b27a0e5416394f10f74e60baa366de25406ea5c6012103da5bac7b36d5aa38f531c6b9601e21bb598a4b6716ebed38b009a55dabde9440feffffff030000000000000000166a146f6d6e69000000000000001f000000517da02c00cb261e00000000001976a914a25dec4d0011064ef106a983c39c7a540699f22088ac22020000000000001976a914ae667d6f3933d1d3fad28273415c3fde03f3934b88ac0c490800", "vin": [{"sequence": 4294967294, "scriptSig": {"hex": "473044022065f4f4118f0b8262bf26c68c15b22887b636f2c18fe3b0ca7bd9a2f62da80d6c022048582075ffbca9a5e5c289a3b27a0e5416394f10f74e60baa366de25406ea5c6012103da5bac7b36d5aa38f531c6b9601e21bb598a4b6716ebed38b009a55dabde9440", "asm": "3044022065f4f4118f0b8262bf26c68c15b22887b636f2c18fe3b0ca7bd9a2f62da80d6c022048582075ffbca9a5e5c289a3b27a0e5416394f10f74e60baa366de25406ea5c6[ALL] 03da5bac7b36d5aa38f531c6b9601e21bb598a4b6716ebed38b009a55dabde9440"}, "vout": 1, "txid": "95415ffb4cc077d06a2285d0bc0b7fd5e6872d55b16f2a33495ce85464bff67b"}], "txid": "21a9c925a68ad9eb29ae32e8dbc4e45bbe456b2ba6ed80d9a03eb99f31733511", "blocktime": 1537870268, "version": 1, "confirmations": 11516, "time": 1537870268, "locktime": 542988, "vsize": 256, "size": 256}