{"hash": "21ae007243c678e1f9888b56e02c662a98795dc4ebc23e76909c6bd4a537cdaf", "blockhash": "00000000000000000018f53835495a110e01622372bf6ae95dc86f2b0ab887b0", "vout": [{"scriptPubKey": {"reqSigs": 1, "hex": "001485030bb9d2491b0cfab7e0de50574df42dd389ce", "addresses": ["bc1qs5pshwwjfydse74hur09q46d7ska8zwwth3vcq"], "asm": "0 85030bb9d2491b0cfab7e0de50574df42dd389ce", "type": "witness_v0_keyhash"}, "value": 0.02351959, "n": 0}, {"scriptPubKey": {"reqSigs": 1, "hex": "a91461c2c05ef858067d010634bab59ee5629086e9ef87", "addresses": ["3Abvmifgzk5dTWvH7ssYniMNRAM6gjBP7M"], "asm": "OP_HASH160 61c2c05ef858067d010634bab59ee5629086e9ef OP_EQUAL", "type": "scripthash"}, "value": 0.02275913, "n": 1}], "hex": "0100000001c219478be65a69bb770f911d39c98d2d00e3cc5ef6739ca3a489db6e393d4102000000006b4830450221008479f1d8e1383d1e11a11993cdd8decdc177a007bf429e0df1a44664d7b4621302201cf98e12fc35664d6c8804281e1d53067147d539ca04cab9cc976482bd8ef568012103d6f14ab405dcc2215d21a692e10b3ba20d5dbdb246e0f5778a64077ce9fec87fffffffff0257e323000000000016001485030bb9d2491b0cfab7e0de50574df42dd389ce49ba22000000000017a91461c2c05ef858067d010634bab59ee5629086e9ef8700000000", "vin": [{"sequence": 4294967295, "scriptSig": {"hex": "4830450221008479f1d8e1383d1e11a11993cdd8decdc177a007bf429e0df1a44664d7b4621302201cf98e12fc35664d6c8804281e1d53067147d539ca04cab9cc976482bd8ef568012103d6f14ab405dcc2215d21a692e10b3ba20d5dbdb246e0f5778a64077ce9fec87f", "asm": "30450221008479f1d8e1383d1e11a11993cdd8decdc177a007bf429e0df1a44664d7b4621302201cf98e12fc35664d6c8804281e1d53067147d539ca04cab9cc976482bd8ef568[ALL] 03d6f14ab405dcc2215d21a692e10b3ba20d5dbdb246e0f5778a64077ce9fec87f"}, "vout": 0, "txid": "02413d396edb89a4a39c73f65ecce3002d8dc9391d910f77bb695ae68b4719c2"}], "txid": "21ae007243c678e1f9888b56e02c662a98795dc4ebc23e76909c6bd4a537cdaf", "blocktime": 1537870928, "version": 1, "confirmations": 11514, "time": 1537870928, "locktime": 0, "vsize": 221, "size": 221}