{"hash": "ac98912738249cec0c98b75dfe9518bec992829c51a4173c901f1465cdbfb10a", "blockhash": "0000000000000000001f0ddff1eddb255c1121bcd4da4f1bc9a0da00cae72433", "vout": [{"scriptPubKey": {"reqSigs": 1, "hex": "a9142e26a7c79ad5f5c9757f8dca12cc28fc42b52c2a87", "addresses": ["35u3KC4TYaRwxiSjyaZpX3eh93ot3ED8Vy"], "asm": "OP_HASH160 2e26a7c79ad5f5c9757f8dca12cc28fc42b52c2a OP_EQUAL", "type": "scripthash"}, "value": 0.02094333, "n": 0}, {"scriptPubKey": {"reqSigs": 1, "hex": "a914ae0331b4fbfe269c99fd0e5f386dd06c60d2430387", "addresses": ["3HZ7Krew2MuLdV74HF3XQ5ySHF4spadMXX"], "asm": "OP_HASH160 ae0331b4fbfe269c99fd0e5f386dd06c60d24303 OP_EQUAL", "type": "scripthash"}, "value": 0.00384258, "n": 1}], "hex": "02000000000101bb12858b08381cab9def1b8d270ca5daa5e6d065ce540ae1a1bfbb4fc335c7a00000000017160014a866aa3a4cfa826fb7bc21abc0a06e7f577c7e4bfeffffff02fdf41f000000000017a9142e26a7c79ad5f5c9757f8dca12cc28fc42b52c2a8702dd05000000000017a914ae0331b4fbfe269c99fd0e5f386dd06c60d243038702473044022064b93571bdd228711f50c7f9c26da6f6010a733e83521aff3c9d8cb7bc7fe4b602202ad6a994fde22a236b1b5feff4a0d5d5b13a33f77b375fe53208d189f82d47d30121032009f044271bb0ccb46cb1b0704b26a7bfa1625b36eba72869734bd040f2011111490800", "vin": [{"txinwitness": ["3044022064b93571bdd228711f50c7f9c26da6f6010a733e83521aff3c9d8cb7bc7fe4b602202ad6a994fde22a236b1b5feff4a0d5d5b13a33f77b375fe53208d189f82d47d301", "032009f044271bb0ccb46cb1b0704b26a7bfa1625b36eba72869734bd040f20111"], "sequence": 4294967294, "scriptSig": {"hex": "160014a866aa3a4cfa826fb7bc21abc0a06e7f577c7e4b", "asm": "0014a866aa3a4cfa826fb7bc21abc0a06e7f577c7e4b"}, "vout": 0, "txid": "a0c735c34fbbbfa1e10a54ce65d0e6a5daa50c278d1bef9dab1c38088b8512bb"}], "txid": "21b9402d7b8e45847e9423fe45d836e44226c9fb13cf35ffb4be5d10b3415edd", "blocktime": 1537872018, "version": 2, "confirmations": 11489, "time": 1537872018, "locktime": 542993, "vsize": 166, "size": 247}