{"hash": "b5973f7802ed9fba4fd3aabb2c49ac89d59c62708b5dd0db23cfe4b475a27f7c", "blockhash": "00000000000000000017f5eb5941039fbcee6240d03bc1f2f8e35350df66a1d8", "vout": [{"scriptPubKey": {"reqSigs": 1, "hex": "76a91458ff917bf50cfa88cf6555d5932de6ec78516c0c88ac", "addresses": ["197ad5WQ972LKeaTqJse3bjsUepxpk33k7"], "asm": "OP_DUP OP_HASH160 58ff917bf50cfa88cf6555d5932de6ec78516c0c OP_EQUALVERIFY OP_CHECKSIG", "type": "pubkeyhash"}, "value": 0.00010256, "n": 0}, {"scriptPubKey": {"reqSigs": 1, "hex": "a9149c6c720dd57c3816447b21121610b904e06147f087", "addresses": ["3Fx7FPwf4Aq7YdApU4Z32hAscUZj7KBoyL"], "asm": "OP_HASH160 9c6c720dd57c3816447b21121610b904e06147f0 OP_EQUAL", "type": "scripthash"}, "value": 0.09677201, "n": 1}], "hex": "020000000001012ae8a55d40045867285d6ef08a0062636296715e6b4399cb452b7b367e48f2ac0000000017160014d5cffd64948cb219cd2e902bf3f2be33981d09d6feffffff0210280000000000001976a91458ff917bf50cfa88cf6555d5932de6ec78516c0c88ac91a993000000000017a9149c6c720dd57c3816447b21121610b904e06147f087024830450221008ed245989dc3e67d63a9b3f6719e2f2ea2d6674a6d40c895c4cbdd2f38b2205402203f662198f3cf5ad7a3c6d6e5d15e0657895d3a59a537f6002bf6e6e71c60cf9e012103a9cda3a5346895335a489fd5baa870f04856d540f8c713d94b80d739f6e95b080b490800", "vin": [{"txinwitness": ["30450221008ed245989dc3e67d63a9b3f6719e2f2ea2d6674a6d40c895c4cbdd2f38b2205402203f662198f3cf5ad7a3c6d6e5d15e0657895d3a59a537f6002bf6e6e71c60cf9e01", "03a9cda3a5346895335a489fd5baa870f04856d540f8c713d94b80d739f6e95b08"], "sequence": 4294967294, "scriptSig": {"hex": "160014d5cffd64948cb219cd2e902bf3f2be33981d09d6", "asm": "0014d5cffd64948cb219cd2e902bf3f2be33981d09d6"}, "vout": 0, "txid": "acf2487e367b2b45cb99436b5e7196626362008af06e5d28675804405da5e82a"}], "txid": "21ba4338ff101c85b7f095270075d0bece898e59014e18d1373f073e415c03ab", "blocktime": 1537874412, "version": 2, "confirmations": 11467, "time": 1537874412, "locktime": 542987, "vsize": 168, "size": 250}