{"hash": "21c57630e5bdecbecda41bec36c72f791d3b9409f829d18e6823774591c61f4f", "blockhash": "0000000000000000001f76057863aec43deb6fa401d9628bb513d65a8098bfab", "vout": [{"scriptPubKey": {"reqSigs": 1, "hex": "a91450fc2efe978cb7a489b70acf226672e7c92d0a3987", "addresses": ["395E5ur7xfFW9Dw9YWWPaGHyR9RPGVJcn2"], "asm": "OP_HASH160 50fc2efe978cb7a489b70acf226672e7c92d0a39 OP_EQUAL", "type": "scripthash"}, "value": 0.02, "n": 0}, {"scriptPubKey": {"reqSigs": 1, "hex": "76a914729bd4cd7a1e64e711290b1ecf841d19aca592f488ac", "addresses": ["1BSziDSR79zbri5wQLWCHR4z2GJSddgcKm"], "asm": "OP_DUP OP_HASH160 729bd4cd7a1e64e711290b1ecf841d19aca592f4 OP_EQUALVERIFY OP_CHECKSIG", "type": "pubkeyhash"}, "value": 0.02327385, "n": 1}], "hex": "0100000001add373ece2744a5e6ce18bec113206ce7273b2527315ed2b3c7940b0fbd5d9f9000000006b483045022100d2c1eee57c78d9b4ffeebf06971d7cf8cc2fefb04aff9805f5804750e77bf08b02206c053ea76fe3f83f1057f52c6bb7c8c47254195ff0c9ec3b5fd5622f639a20aa012102e1a1dfe87c0252e5881a2ce8f3991d265a5b8c2bd671131947293105414b29e3ffffffff0280841e000000000017a91450fc2efe978cb7a489b70acf226672e7c92d0a398759832300000000001976a914729bd4cd7a1e64e711290b1ecf841d19aca592f488ac00000000", "vin": [{"sequence": 4294967295, "scriptSig": {"hex": "483045022100d2c1eee57c78d9b4ffeebf06971d7cf8cc2fefb04aff9805f5804750e77bf08b02206c053ea76fe3f83f1057f52c6bb7c8c47254195ff0c9ec3b5fd5622f639a20aa012102e1a1dfe87c0252e5881a2ce8f3991d265a5b8c2bd671131947293105414b29e3", "asm": "3045022100d2c1eee57c78d9b4ffeebf06971d7cf8cc2fefb04aff9805f5804750e77bf08b02206c053ea76fe3f83f1057f52c6bb7c8c47254195ff0c9ec3b5fd5622f639a20aa[ALL] 02e1a1dfe87c0252e5881a2ce8f3991d265a5b8c2bd671131947293105414b29e3"}, "vout": 0, "txid": "f9d9d5fbb040793c2bed157352b27372ce063211ec8be16c5e4a74e2ec73d3ad"}], "txid": "21c57630e5bdecbecda41bec36c72f791d3b9409f829d18e6823774591c61f4f", "blocktime": 1537873891, "version": 1, "confirmations": 11476, "time": 1537873891, "locktime": 0, "vsize": 224, "size": 224}