{"hash": "21c6676992f220bc8663fdddba6268119ca9175cc0f1ab08a5c88ea77be4f6aa", "blockhash": "0000000000000000000e13cef7c366c0283d82e591d1acd082e914b08063cdf1", "vout": [{"scriptPubKey": {"type": "nulldata", "hex": "6a4c500000779b000172f9299dd37d55de1cf65a11e3ef3236678a625097bcbefa6b8351586b4ee6d9e3464367f053c3d0d9306cc505d85baa0d72061540d7cb4c92731d100759d4ba30d2c37bb011d97e02cf", "asm": "OP_RETURN 0000779b000172f9299dd37d55de1cf65a11e3ef3236678a625097bcbefa6b8351586b4ee6d9e3464367f053c3d0d9306cc505d85baa0d72061540d7cb4c92731d100759d4ba30d2c37bb011d97e02cf"}, "value": 0.0, "n": 0}, {"scriptPubKey": {"reqSigs": 1, "hex": "76a914eecd3c2757404f7f936eb1f6c873c1c1476cfc7b88ac", "addresses": ["1Nmfgde6em1kEWqDGKv7KL3QbJoPMEcBSZ"], "asm": "OP_DUP OP_HASH160 eecd3c2757404f7f936eb1f6c873c1c1476cfc7b OP_EQUALVERIFY OP_CHECKSIG", "type": "pubkeyhash"}, "value": 0.00643375, "n": 1}], "hex": "01000000018f4da552671c7e3eadcd7ba14945a78c76c685c7021380e882dad2f33c6ba074000000006b483045022100d5677c9942a2a0f804b4cca856c4bc45b039d52e4f0bab6ebf0b24853ed10c7b02203c353d19fd6ac7dee4054896893110c29785c11ebc9527e70c47ae2bf0e980b00121034adf1a69e32e2b4fb4c7720a16e3b15df69afbec2b15ad5b25625aec375bbf5effffffff020000000000000000536a4c500000779b000172f9299dd37d55de1cf65a11e3ef3236678a625097bcbefa6b8351586b4ee6d9e3464367f053c3d0d9306cc505d85baa0d72061540d7cb4c92731d100759d4ba30d2c37bb011d97e02cf2fd10900000000001976a914eecd3c2757404f7f936eb1f6c873c1c1476cfc7b88ac00000000", "vin": [{"sequence": 4294967295, "scriptSig": {"hex": "483045022100d5677c9942a2a0f804b4cca856c4bc45b039d52e4f0bab6ebf0b24853ed10c7b02203c353d19fd6ac7dee4054896893110c29785c11ebc9527e70c47ae2bf0e980b00121034adf1a69e32e2b4fb4c7720a16e3b15df69afbec2b15ad5b25625aec375bbf5e", "asm": "3045022100d5677c9942a2a0f804b4cca856c4bc45b039d52e4f0bab6ebf0b24853ed10c7b02203c353d19fd6ac7dee4054896893110c29785c11ebc9527e70c47ae2bf0e980b0[ALL] 034adf1a69e32e2b4fb4c7720a16e3b15df69afbec2b15ad5b25625aec375bbf5e"}, "vout": 0, "txid": "74a06b3cf3d2da82e8801302c785c6768ca74549a17bcdad3e7e1c6752a54d8f"}], "txid": "21c6676992f220bc8663fdddba6268119ca9175cc0f1ab08a5c88ea77be4f6aa", "blocktime": 1537871767, "version": 1, "confirmations": 11495, "time": 1537871767, "locktime": 0, "vsize": 284, "size": 284}