{"hash": "21d1ec5190e8b29dc886447c7fa892144b9920cbeeb581a6d29a845365c1900e", "blockhash": "0000000000000000000dcc0f55137456b1a82d3642486a52398922ac4d620174", "vout": [{"scriptPubKey": {"reqSigs": 1, "hex": "a914cff20972027f11b5475a85edec9dcd1ee8223c5387", "addresses": ["3LeXkGfu1SZRoNKuqgAGfsVgnn681jpBSU"], "asm": "OP_HASH160 cff20972027f11b5475a85edec9dcd1ee8223c53 OP_EQUAL", "type": "scripthash"}, "value": 0.0046782, "n": 0}, {"scriptPubKey": {"reqSigs": 1, "hex": "76a914f8bb05fe50d2a6d0a28981286c211e06550374c188ac", "addresses": ["1PgAdBvoRzTpq5nbTiV9SzLeppvYRhtbYe"], "asm": "OP_DUP OP_HASH160 f8bb05fe50d2a6d0a28981286c211e06550374c1 OP_EQUALVERIFY OP_CHECKSIG", "type": "pubkeyhash"}, "value": 0.00614117, "n": 1}], "hex": "010000000123181a662c2c46e7c988e670be82ba144dddc2f860d5c78b91287114ac9d35e6010000006a47304402203441e8e8e7d6467783bec85547a79254b62edd2ae75c1e42e83170c77a9a156b02201d492757d5ba3a37c1dd0cccf49463f66a19ba0c615df84319dc1e3b8ee7bac00121021c703ba19df01b2810d61bdee3b7c0b6e17c24037e063194463a4a868a469f7cffffffff026c2307000000000017a914cff20972027f11b5475a85edec9dcd1ee8223c5387e55e0900000000001976a914f8bb05fe50d2a6d0a28981286c211e06550374c188ac00000000", "vin": [{"sequence": 4294967295, "scriptSig": {"hex": "47304402203441e8e8e7d6467783bec85547a79254b62edd2ae75c1e42e83170c77a9a156b02201d492757d5ba3a37c1dd0cccf49463f66a19ba0c615df84319dc1e3b8ee7bac00121021c703ba19df01b2810d61bdee3b7c0b6e17c24037e063194463a4a868a469f7c", "asm": "304402203441e8e8e7d6467783bec85547a79254b62edd2ae75c1e42e83170c77a9a156b02201d492757d5ba3a37c1dd0cccf49463f66a19ba0c615df84319dc1e3b8ee7bac0[ALL] 021c703ba19df01b2810d61bdee3b7c0b6e17c24037e063194463a4a868a469f7c"}, "vout": 1, "txid": "e6359dac147128918bc7d560f8c2dd4d14ba82be70e688c9e7462c2c661a1823"}], "txid": "21d1ec5190e8b29dc886447c7fa892144b9920cbeeb581a6d29a845365c1900e", "blocktime": 1537870268, "version": 1, "confirmations": 11516, "time": 1537870268, "locktime": 0, "vsize": 223, "size": 223}