{"hash": "21e208433f8b88c1d82ebe1e262b8943078a4503f807d5da08a27ed664f471fe", "blockhash": "0000000000000000000dcc0f55137456b1a82d3642486a52398922ac4d620174", "vout": [{"scriptPubKey": {"reqSigs": 1, "hex": "76a91474285fab3bdaae000b5dcdd11f00c6b71c1abac688ac", "addresses": ["1BbBkU4n3ei4css2sR52frnfvvH1PiJbTk"], "asm": "OP_DUP OP_HASH160 74285fab3bdaae000b5dcdd11f00c6b71c1abac6 OP_EQUALVERIFY OP_CHECKSIG", "type": "pubkeyhash"}, "value": 0.00375, "n": 0}, {"scriptPubKey": {"reqSigs": 1, "hex": "76a914e349bc52d6b8100b58d3fce45135a91c5c128a1d88ac", "addresses": ["1MiningDkXkhKaXBTMKXfLemnk1YY5rbkT"], "asm": "OP_DUP OP_HASH160 e349bc52d6b8100b58d3fce45135a91c5c128a1d OP_EQUALVERIFY OP_CHECKSIG", "type": "pubkeyhash"}, "value": 0.05836853, "n": 1}], "hex": "02000000018331a07ba8519a401cfbdbed3f779b1bea8ec6709f3425b94212cd5952e2cfe3010000008a47304402201da4b03f015223b29c8bb30185f48ce72fb59bdc333986eec1a75393bedb5eb802203e27024f26147afccbe376b442667758abc619602329d0956d3b93bf5eb5e87d014104ae414abde7876c34e01694b38b2341d10b9b4c8db18a66262bd8df26bcb57893885c9fe8b79aa25330d5f05bb5aa9ab636a908a72e27956572b44190b22809beffffffff02d8b80500000000001976a91474285fab3bdaae000b5dcdd11f00c6b71c1abac688ac35105900000000001976a914e349bc52d6b8100b58d3fce45135a91c5c128a1d88ac00000000", "vin": [{"sequence": 4294967295, "scriptSig": {"hex": "47304402201da4b03f015223b29c8bb30185f48ce72fb59bdc333986eec1a75393bedb5eb802203e27024f26147afccbe376b442667758abc619602329d0956d3b93bf5eb5e87d014104ae414abde7876c34e01694b38b2341d10b9b4c8db18a66262bd8df26bcb57893885c9fe8b79aa25330d5f05bb5aa9ab636a908a72e27956572b44190b22809be", "asm": "304402201da4b03f015223b29c8bb30185f48ce72fb59bdc333986eec1a75393bedb5eb802203e27024f26147afccbe376b442667758abc619602329d0956d3b93bf5eb5e87d[ALL] 04ae414abde7876c34e01694b38b2341d10b9b4c8db18a66262bd8df26bcb57893885c9fe8b79aa25330d5f05bb5aa9ab636a908a72e27956572b44190b22809be"}, "vout": 1, "txid": "e3cfe25259cd1242b925349f70c68eea1b9b773feddbfb1c409a51a87ba03183"}], "txid": "21e208433f8b88c1d82ebe1e262b8943078a4503f807d5da08a27ed664f471fe", "blocktime": 1537870268, "version": 2, "confirmations": 11518, "time": 1537870268, "locktime": 0, "vsize": 257, "size": 257}