{"hash": "21e3a3c9fa146dd6f2f9442d781c452691c15fbc1cc6f000da42c2449835307c", "blockhash": "0000000000000000001f0ddff1eddb255c1121bcd4da4f1bc9a0da00cae72433", "vout": [{"scriptPubKey": {"reqSigs": 1, "hex": "76a9142282079d5b97632d248d6cf7838a641b1caaf33988ac", "addresses": ["149Tk9YVh966VZMFqVjj3PLi2HQyee4MqP"], "asm": "OP_DUP OP_HASH160 2282079d5b97632d248d6cf7838a641b1caaf339 OP_EQUALVERIFY OP_CHECKSIG", "type": "pubkeyhash"}, "value": 2.865e-05, "n": 0}, {"scriptPubKey": {"reqSigs": 1, "hex": "76a9145959bbd93e9a1cb65b89c5ab41ab761cc66d8b8188ac", "addresses": ["199SdtMpKSD8xRyWTsVbusPcd8LVfLQPog"], "asm": "OP_DUP OP_HASH160 5959bbd93e9a1cb65b89c5ab41ab761cc66d8b81 OP_EQUALVERIFY OP_CHECKSIG", "type": "pubkeyhash"}, "value": 0.00237166, "n": 1}], "hex": "0100000001e6e758678b458c5e77bfdeb20ba109ca46ead6f707ec6c86c1aeedf261cd12e4010000006a47304402204f4efcb063174963e0108a05e9c87eb5b97ec8df5c9729e2cff499eccf7f9aa3022033d34ded66116619423c26cfe3fe08131af4e711271fb337a664f31f4ce5a990012103a2d8c9ad9b4a1f8309b4587937e39c5b14c18205bc1d69d13c4447a2328703b3fdffffff02310b0000000000001976a9142282079d5b97632d248d6cf7838a641b1caaf33988ac6e9e0300000000001976a9145959bbd93e9a1cb65b89c5ab41ab761cc66d8b8188ac11490800", "vin": [{"sequence": 4294967293, "scriptSig": {"hex": "47304402204f4efcb063174963e0108a05e9c87eb5b97ec8df5c9729e2cff499eccf7f9aa3022033d34ded66116619423c26cfe3fe08131af4e711271fb337a664f31f4ce5a990012103a2d8c9ad9b4a1f8309b4587937e39c5b14c18205bc1d69d13c4447a2328703b3", "asm": "304402204f4efcb063174963e0108a05e9c87eb5b97ec8df5c9729e2cff499eccf7f9aa3022033d34ded66116619423c26cfe3fe08131af4e711271fb337a664f31f4ce5a990[ALL] 03a2d8c9ad9b4a1f8309b4587937e39c5b14c18205bc1d69d13c4447a2328703b3"}, "vout": 1, "txid": "e412cd61f2edaec1866cec07f7d6ea46ca09a10bb2debf775e8c458b6758e7e6"}], "txid": "21e3a3c9fa146dd6f2f9442d781c452691c15fbc1cc6f000da42c2449835307c", "blocktime": 1537872018, "version": 1, "confirmations": 11489, "time": 1537872018, "locktime": 542993, "vsize": 225, "size": 225}