{"hash": "21e3ab0e498ef015448ed4f7bef0f2d7b2a91bf160b6e8fb6e5a246c3f9d6288", "blockhash": "000000000000000000022b45ed06c6f4ccd3cf7fb5ba4856ebd2e58215665228", "vout": [{"scriptPubKey": {"reqSigs": 1, "hex": "a91448b483d8d8b681041fd37371d1865b96ea1954f487", "addresses": ["38KSpm1MVVwGQTPNpXnEhAn7WhBQ86bvkH"], "asm": "OP_HASH160 48b483d8d8b681041fd37371d1865b96ea1954f4 OP_EQUAL", "type": "scripthash"}, "value": 1e-05, "n": 0}, {"scriptPubKey": {"reqSigs": 1, "hex": "76a914425942e470f42e06405ff73ccc77d09e3a3b099488ac", "addresses": ["173pXePDx9yKu4eD5rvTcX8CBy2Z6mSt8b"], "asm": "OP_DUP OP_HASH160 425942e470f42e06405ff73ccc77d09e3a3b0994 OP_EQUALVERIFY OP_CHECKSIG", "type": "pubkeyhash"}, "value": 0.00287616, "n": 1}], "hex": "01000000010e4e0f3d9d209a4973ca1306e6d8f994ff27eea5f8612fb939070d8e6e3726fb010000006a4730440220715025ee357efa5bc340fe3ca6501a92a92572e56d0e407f01136651317834e302200e2875eb5eba5934bf4e2a3025faaef60127727a2b24b8e7c9e157f897c7b73a012103016320d584ee7c69617cb33fc13e9d61949570c36eec3f1cde786f9965dd0790ffffffff02e80300000000000017a91448b483d8d8b681041fd37371d1865b96ea1954f48780630400000000001976a914425942e470f42e06405ff73ccc77d09e3a3b099488ac00000000", "vin": [{"sequence": 4294967295, "scriptSig": {"hex": "4730440220715025ee357efa5bc340fe3ca6501a92a92572e56d0e407f01136651317834e302200e2875eb5eba5934bf4e2a3025faaef60127727a2b24b8e7c9e157f897c7b73a012103016320d584ee7c69617cb33fc13e9d61949570c36eec3f1cde786f9965dd0790", "asm": "30440220715025ee357efa5bc340fe3ca6501a92a92572e56d0e407f01136651317834e302200e2875eb5eba5934bf4e2a3025faaef60127727a2b24b8e7c9e157f897c7b73a[ALL] 03016320d584ee7c69617cb33fc13e9d61949570c36eec3f1cde786f9965dd0790"}, "vout": 1, "txid": "fb26376e8e0d0739b92f61f8a5ee27ff94f9d8e60613ca73499a209d3d0f4e0e"}], "txid": "21e3ab0e498ef015448ed4f7bef0f2d7b2a91bf160b6e8fb6e5a246c3f9d6288", "blocktime": 1537869901, "version": 1, "confirmations": 11523, "time": 1537869901, "locktime": 0, "vsize": 223, "size": 223}