{"hash": "0c05fe4a329f33dc067a2ae897cdc6a0fcdbd8a262dd9d488e913e4e00d5f2db", "blockhash": "0000000000000000000baef3f32e3676a92c3b2e5da21b426e4f302fc371ce76", "vout": [{"scriptPubKey": {"reqSigs": 1, "hex": "76a914fc9776d0bae2a51e991b990367cfd8b662bc75b788ac", "addresses": ["1Q2ajFg4eZKGUzX3fWMuXnLmfkxSPd46e8"], "asm": "OP_DUP OP_HASH160 fc9776d0bae2a51e991b990367cfd8b662bc75b7 OP_EQUALVERIFY OP_CHECKSIG", "type": "pubkeyhash"}, "value": 0.0895, "n": 0}, {"scriptPubKey": {"reqSigs": 1, "hex": "a9140fb978d8ac9a563e125ef0a0c4a4c156b8e300d087", "addresses": ["338AFFCSDX1VXs8nUfaqq46aja8t7fBB1G"], "asm": "OP_HASH160 0fb978d8ac9a563e125ef0a0c4a4c156b8e300d0 OP_EQUAL", "type": "scripthash"}, "value": 3.245e-05, "n": 1}], "hex": "01000000000101ecce664cc98ec660b868a5ddb3fe2fafb37f1f966ea42b2f17c149c1e4cd081b0100000023220020ff0db82a8561330dcbcd357f02e3a75eeb13f6a170ddef80f55386a8c6938504ffffffff02f0908800000000001976a914fc9776d0bae2a51e991b990367cfd8b662bc75b788acad0c00000000000017a9140fb978d8ac9a563e125ef0a0c4a4c156b8e300d0870400483045022100e83a93a7e2d38a999c6f4b182a246282bb0c609efd03245e5607a0c4ea5b35db02201fadc202ce0fc92e9de784d50f6752d9121cfae62ad9daab30e2e492813e6f0501483045022100e196ca64aabd48ebae8b95a68aad3294012f5286d629c4e4db4f9408c96da96102200ce38c6a33f712e463ee882234df0ae64c56de97bad72e976d34aacc492ff8e401695221026620632ec8709a6f4105530e31aeb2a51d2bd01c2eab0adcd8af23cf5b0871e12102d8cae8782a9a9b727655f37fb2201b18cdc613aea73649fa4e42d456e53c41bb21035203e8d4345a9ad55d861de81948191cd95caefbf070d54fe17f13c93d7c72ea53ae00000000", "vin": [{"txinwitness": ["", "3045022100e83a93a7e2d38a999c6f4b182a246282bb0c609efd03245e5607a0c4ea5b35db02201fadc202ce0fc92e9de784d50f6752d9121cfae62ad9daab30e2e492813e6f0501", "3045022100e196ca64aabd48ebae8b95a68aad3294012f5286d629c4e4db4f9408c96da96102200ce38c6a33f712e463ee882234df0ae64c56de97bad72e976d34aacc492ff8e401", "5221026620632ec8709a6f4105530e31aeb2a51d2bd01c2eab0adcd8af23cf5b0871e12102d8cae8782a9a9b727655f37fb2201b18cdc613aea73649fa4e42d456e53c41bb21035203e8d4345a9ad55d861de81948191cd95caefbf070d54fe17f13c93d7c72ea53ae"], "sequence": 4294967295, "scriptSig": {"hex": "220020ff0db82a8561330dcbcd357f02e3a75eeb13f6a170ddef80f55386a8c6938504", "asm": "0020ff0db82a8561330dcbcd357f02e3a75eeb13f6a170ddef80f55386a8c6938504"}, "vout": 1, "txid": "1b08cde4c149c1172f2ba46e961f7fb3af2ffeb3dda568b860c68ec94c66ceec"}], "txid": "21e5a681acab31d36a9622b87192fdee909a286d8536292b86ea47a5f875eca6", "blocktime": 1537876114, "version": 1, "confirmations": 11460, "time": 1537876114, "locktime": 0, "vsize": 216, "size": 408}