{"hash": "21e7b47d0880e9cd0a7675e8372f8f67b4eec814daa872f785ae4bbb3e9b74d6", "blockhash": "0000000000000000000dcc0f55137456b1a82d3642486a52398922ac4d620174", "vout": [{"scriptPubKey": {"reqSigs": 1, "hex": "76a91481b53e7b59cca2d0171ec0884e6690655fc77c3388ac", "addresses": ["1CpqHogYEp6q9XhjixuZco6RoKh1pMaDwm"], "asm": "OP_DUP OP_HASH160 81b53e7b59cca2d0171ec0884e6690655fc77c33 OP_EQUALVERIFY OP_CHECKSIG", "type": "pubkeyhash"}, "value": 0.0010598, "n": 0}], "hex": "0100000002da837412c4c9df15a88b24114ee4c31757332a3236e9014bde8d29e7218fdb59000000006a47304402201fe52c2e4d6d83c579afef01e493656ff42494b0504ef3b77376950585e207c50220561e7d4f0a5e3cb38481a06e04bee9bb0fece8375ec151f570b1ed54cf6ef3d7012102b5cdaea476ac2e9f31fc9fce28e32400ddd66cd73b613c040963b911d31cdfe6ffffffffc3d9e1fdaa42477429b6b3a8b9beecf5c15130d1c5e555958afa7378667096c90c0000006b48304502210096e772bff81e580918421e466f6fb11e9b31418e10ecd581e47678473c7905f6022024a26ce7c38f21178b760418c0af124d85cd95629dcb7c00f9a8bd5c26a2906201210236b1e87aeda718b74e1ca40a6a84cf5dd3cea5267f08bed8357529043c8f585cffffffff01fc9d0100000000001976a91481b53e7b59cca2d0171ec0884e6690655fc77c3388ac00000000", "vin": [{"sequence": 4294967295, "scriptSig": {"hex": "47304402201fe52c2e4d6d83c579afef01e493656ff42494b0504ef3b77376950585e207c50220561e7d4f0a5e3cb38481a06e04bee9bb0fece8375ec151f570b1ed54cf6ef3d7012102b5cdaea476ac2e9f31fc9fce28e32400ddd66cd73b613c040963b911d31cdfe6", "asm": "304402201fe52c2e4d6d83c579afef01e493656ff42494b0504ef3b77376950585e207c50220561e7d4f0a5e3cb38481a06e04bee9bb0fece8375ec151f570b1ed54cf6ef3d7[ALL] 02b5cdaea476ac2e9f31fc9fce28e32400ddd66cd73b613c040963b911d31cdfe6"}, "vout": 0, "txid": "59db8f21e7298dde4b01e936322a335717c3e44e11248ba815dfc9c4127483da"}, {"sequence": 4294967295, "scriptSig": {"hex": "48304502210096e772bff81e580918421e466f6fb11e9b31418e10ecd581e47678473c7905f6022024a26ce7c38f21178b760418c0af124d85cd95629dcb7c00f9a8bd5c26a2906201210236b1e87aeda718b74e1ca40a6a84cf5dd3cea5267f08bed8357529043c8f585c", "asm": "304502210096e772bff81e580918421e466f6fb11e9b31418e10ecd581e47678473c7905f6022024a26ce7c38f21178b760418c0af124d85cd95629dcb7c00f9a8bd5c26a29062[ALL] 0236b1e87aeda718b74e1ca40a6a84cf5dd3cea5267f08bed8357529043c8f585c"}, "vout": 12, "txid": "c99670667873fa8a9555e5c5d13051c1f5ecbeb9a8b3b629744742aafde1d9c3"}], "txid": "21e7b47d0880e9cd0a7675e8372f8f67b4eec814daa872f785ae4bbb3e9b74d6", "blocktime": 1537870268, "version": 1, "confirmations": 11517, "time": 1537870268, "locktime": 0, "vsize": 339, "size": 339}