{"hash": "21ec5acf7ad35fdf82d09183057e933402dcd77dc10dcfb3f32b1144607d66b9", "blockhash": "0000000000000000001cda96e906b7601b7a6fb1a3b62bca570a9e5d8f4b3de1", "vout": [{"scriptPubKey": {"reqSigs": 1, "hex": "76a914d243e6abb9a60fbff430b421d2df4b7d59ec186088ac", "addresses": ["1LAnF8h3qMGx3TSwNUHVneBZUEpwE4gu3D"], "asm": "OP_DUP OP_HASH160 d243e6abb9a60fbff430b421d2df4b7d59ec1860 OP_EQUALVERIFY OP_CHECKSIG", "type": "pubkeyhash"}, "value": 0.00077314, "n": 0}, {"scriptPubKey": {"reqSigs": 1, "hex": "a914d55e2e9a155689b5eac36f44a6cb2227ec055d1f87", "addresses": ["3M9CgHZhWa18nzXGVRzCFXeKEe1jJxSYcv"], "asm": "OP_HASH160 d55e2e9a155689b5eac36f44a6cb2227ec055d1f OP_EQUAL", "type": "scripthash"}, "value": 5.46e-06, "n": 1}, {"scriptPubKey": {"type": "nulldata", "hex": "6a146f6d6e69000000000000001f0000004d5c8d35c0", "asm": "OP_RETURN 6f6d6e69000000000000001f0000004d5c8d35c0"}, "value": 0.0, "n": 2}], "hex": "0100000001c7957feb3d1fc55b55c6f7a5803d49095c0da93f015c86d3b1dbb9901cd24b42000000006a47304402200a2fb16c7ddc867861afdc5350567583d9364557335ebad5eca265da956a6652022068a4dc908d98502a191f2a24569d7375ef6d042aaf3401ff55a552438eb36eca01210271977291b74f1f5f5c42157e8aae804664eaaeccfd097918450d37f28fb94d77ffffffff03022e0100000000001976a914d243e6abb9a60fbff430b421d2df4b7d59ec186088ac220200000000000017a914d55e2e9a155689b5eac36f44a6cb2227ec055d1f870000000000000000166a146f6d6e69000000000000001f0000004d5c8d35c000000000", "vin": [{"sequence": 4294967295, "scriptSig": {"hex": "47304402200a2fb16c7ddc867861afdc5350567583d9364557335ebad5eca265da956a6652022068a4dc908d98502a191f2a24569d7375ef6d042aaf3401ff55a552438eb36eca01210271977291b74f1f5f5c42157e8aae804664eaaeccfd097918450d37f28fb94d77", "asm": "304402200a2fb16c7ddc867861afdc5350567583d9364557335ebad5eca265da956a6652022068a4dc908d98502a191f2a24569d7375ef6d042aaf3401ff55a552438eb36eca[ALL] 0271977291b74f1f5f5c42157e8aae804664eaaeccfd097918450d37f28fb94d77"}, "vout": 0, "txid": "424bd21c90b9dbb1d3865c013fa90d5c09493d80a5f7c6555bc51f3deb7f95c7"}], "txid": "21ec5acf7ad35fdf82d09183057e933402dcd77dc10dcfb3f32b1144607d66b9", "blocktime": 1537873282, "version": 1, "confirmations": 11483, "time": 1537873282, "locktime": 0, "vsize": 254, "size": 254}