{"hash": "ecfb00c6af0ad3a4d7e843e7bed11811b58fbed47eb6dd867552a0e908b4bada", "blockhash": "0000000000000000000e13cef7c366c0283d82e591d1acd082e914b08063cdf1", "vout": [{"scriptPubKey": {"reqSigs": 1, "hex": "a91459d20c0bfaa593b60844abe30db5abfa564910ee87", "addresses": ["39swgwbT5wTa1xcScn5mF78CtNUvzyh898"], "asm": "OP_HASH160 59d20c0bfaa593b60844abe30db5abfa564910ee OP_EQUAL", "type": "scripthash"}, "value": 0.07918325, "n": 0}, {"scriptPubKey": {"reqSigs": 1, "hex": "a914e425ac6efe759c7172eed58be485ef077984177b87", "addresses": ["3NVM7tNXt9D6pJ44aNV6YV9yXf3FH6BCpL"], "asm": "OP_HASH160 e425ac6efe759c7172eed58be485ef077984177b OP_EQUAL", "type": "scripthash"}, "value": 0.13077699, "n": 1}], "hex": "01000000000101121046e2b5a18f1afb432db46131656c9e380fea2f21897daf68c802afff6ebb01000000171600146dc726752f5a0113367f9e6e0a0d38b56402db2fffffff0002f5d278000000000017a91459d20c0bfaa593b60844abe30db5abfa564910ee87c38cc7000000000017a914e425ac6efe759c7172eed58be485ef077984177b8702483045022100a7ebac0f2c0a7741446dcb615a4ecc25d9046580b20f421be621ea31a543feaa022005dab88d264950a070895216162725a2e0f48dec2b39e56cd55a36d7f760064c012103195c7d3f7eeb4feea86134d3bc85817e08e2d5ba2105405ad230fd2afc6a5e3a00000000", "vin": [{"txinwitness": ["3045022100a7ebac0f2c0a7741446dcb615a4ecc25d9046580b20f421be621ea31a543feaa022005dab88d264950a070895216162725a2e0f48dec2b39e56cd55a36d7f760064c01", "03195c7d3f7eeb4feea86134d3bc85817e08e2d5ba2105405ad230fd2afc6a5e3a"], "sequence": 16777215, "scriptSig": {"hex": "1600146dc726752f5a0113367f9e6e0a0d38b56402db2f", "asm": "00146dc726752f5a0113367f9e6e0a0d38b56402db2f"}, "vout": 1, "txid": "bb6effaf02c868af7d89212fea0f389e6c653161b42d43fb1a8fa1b5e2461012"}], "txid": "21f104f264ea389f5e6c30a6281b159eb235b69ba3da5e49e3e3303dee31442a", "blocktime": 1537871767, "version": 1, "confirmations": 11495, "time": 1537871767, "locktime": 0, "vsize": 166, "size": 248}