{"hash": "21f671c3fa767a8f112bc74d54583a6ac1ba1c782946f98b5c3b493586f617e5", "blockhash": "0000000000000000001cda96e906b7601b7a6fb1a3b62bca570a9e5d8f4b3de1", "vout": [{"scriptPubKey": {"type": "nulldata", "hex": "6a4c50000077be00015178dc35fb7d49156a5a78dae5bf9ae76da98a211aaf6c953dd567cf27e7cd374cd13bfb09eabf2080a35ffc7ab95baa127e0612e274507375e1bc9a9526289ac0f6612cd74e33776ee4", "asm": "OP_RETURN 000077be00015178dc35fb7d49156a5a78dae5bf9ae76da98a211aaf6c953dd567cf27e7cd374cd13bfb09eabf2080a35ffc7ab95baa127e0612e274507375e1bc9a9526289ac0f6612cd74e33776ee4"}, "value": 0.0, "n": 0}, {"scriptPubKey": {"reqSigs": 1, "hex": "76a914cbc399147d6447e83d2c0af7bfa0fb68753b951b88ac", "addresses": ["1KaQVKx415NtmT2mA54jFGvCgV1KHFV3x5"], "asm": "OP_DUP OP_HASH160 cbc399147d6447e83d2c0af7bfa0fb68753b951b OP_EQUALVERIFY OP_CHECKSIG", "type": "pubkeyhash"}, "value": 0.0147834, "n": 1}], "hex": "010000000150c45f589b5c0d76b5688add14397ce1c496595d2880f8d530ca45a13fbc88a3010000006a4730440220378c8ab32ade67f6934c88e90731788258356e111e8726c90bba899593759c2c0220160e3404e6594bc5524d1ff1bee46bab4b3c1c62619c87dac7a14be1a57940f8012102e7e7933e5fef9b0482a8c5ff2f9d47316f503d7e08a5a8b782610e283e715f1dffffffff020000000000000000536a4c50000077be00015178dc35fb7d49156a5a78dae5bf9ae76da98a211aaf6c953dd567cf27e7cd374cd13bfb09eabf2080a35ffc7ab95baa127e0612e274507375e1bc9a9526289ac0f6612cd74e33776ee4c48e1600000000001976a914cbc399147d6447e83d2c0af7bfa0fb68753b951b88ac00000000", "vin": [{"sequence": 4294967295, "scriptSig": {"hex": "4730440220378c8ab32ade67f6934c88e90731788258356e111e8726c90bba899593759c2c0220160e3404e6594bc5524d1ff1bee46bab4b3c1c62619c87dac7a14be1a57940f8012102e7e7933e5fef9b0482a8c5ff2f9d47316f503d7e08a5a8b782610e283e715f1d", "asm": "30440220378c8ab32ade67f6934c88e90731788258356e111e8726c90bba899593759c2c0220160e3404e6594bc5524d1ff1bee46bab4b3c1c62619c87dac7a14be1a57940f8[ALL] 02e7e7933e5fef9b0482a8c5ff2f9d47316f503d7e08a5a8b782610e283e715f1d"}, "vout": 1, "txid": "a388bc3fa145ca30d5f880285d5996c4e17c3914dd8a68b5760d5c9b585fc450"}], "txid": "21f671c3fa767a8f112bc74d54583a6ac1ba1c782946f98b5c3b493586f617e5", "blocktime": 1537873282, "version": 1, "confirmations": 11484, "time": 1537873282, "locktime": 0, "vsize": 283, "size": 283}