{"hash": "31a2548fcb18766d090eb320be5e566e16db0457787439b90b3c48c6dab4875c", "blockhash": "0000000000000000000e13cef7c366c0283d82e591d1acd082e914b08063cdf1", "vout": [{"scriptPubKey": {"reqSigs": 1, "hex": "76a914157b71215dae35c770ac23f2c90d9ec10465393f88ac", "addresses": ["12xb4vYFPKoPidGdU5TvebPVmkPoN32SPd"], "asm": "OP_DUP OP_HASH160 157b71215dae35c770ac23f2c90d9ec10465393f OP_EQUALVERIFY OP_CHECKSIG", "type": "pubkeyhash"}, "value": 0.00156243, "n": 0}, {"scriptPubKey": {"reqSigs": 1, "hex": "a914cfaabfe8c271f99a4364b5197ba50c6cddb7adb987", "addresses": ["3Ld4M9RPwEG3VeQbHcC1PsKUndQL7VYLZP"], "asm": "OP_HASH160 cfaabfe8c271f99a4364b5197ba50c6cddb7adb9 OP_EQUAL", "type": "scripthash"}, "value": 0.00768145, "n": 1}], "hex": "010000000001019c5790efced9843f8e7395c5860070946b51d30c4e15c6b2d58c46187bc8ffce00000000232200202f7b4024602241b47d3306a6733d9889e4b6761d9f1cb82a18aa8b9ac4506e51ffffffff0253620200000000001976a914157b71215dae35c770ac23f2c90d9ec10465393f88ac91b80b000000000017a914cfaabfe8c271f99a4364b5197ba50c6cddb7adb9870400483045022100f0117b9820682e51b44ae004e2f08101fa18512c2ef0e7cbc8c434c8459165d602200f061a5cb3613317a7acce8f0a2f76bfba634f6dd837a26de527451e1d49993701473044022025101f7b03db096cf370f3d6dd59366d98a719a74a492be8309f3a2cb4461422022001aeeb0203585173743f188955985a8a6bfcf982674d6132d35ab8a1202ad71c0147522102973cd851fecff3a20f08377b072729f303801eee1b7678668338adcaec770ec221033e4af03ed09dbd8a417ba042650d5bd1db7f14f271a8f660974e3abf1fdfa4da52ae00000000", "vin": [{"txinwitness": ["", "3045022100f0117b9820682e51b44ae004e2f08101fa18512c2ef0e7cbc8c434c8459165d602200f061a5cb3613317a7acce8f0a2f76bfba634f6dd837a26de527451e1d49993701", "3044022025101f7b03db096cf370f3d6dd59366d98a719a74a492be8309f3a2cb4461422022001aeeb0203585173743f188955985a8a6bfcf982674d6132d35ab8a1202ad71c01", "522102973cd851fecff3a20f08377b072729f303801eee1b7678668338adcaec770ec221033e4af03ed09dbd8a417ba042650d5bd1db7f14f271a8f660974e3abf1fdfa4da52ae"], "sequence": 4294967295, "scriptSig": {"hex": "2200202f7b4024602241b47d3306a6733d9889e4b6761d9f1cb82a18aa8b9ac4506e51", "asm": "00202f7b4024602241b47d3306a6733d9889e4b6761d9f1cb82a18aa8b9ac4506e51"}, "vout": 0, "txid": "ceffc87b18468cd5b2c6154e0cd3516b94700086c595738e3f84d9ceef90579c"}], "txid": "21f745c9326acb21a2211a5c1a17789b05c6b2cfeabe1856f42be87616848fd6", "blocktime": 1537871767, "version": 1, "confirmations": 11495, "time": 1537871767, "locktime": 0, "vsize": 208, "size": 373}