{"hash": "22024889797aeffc3757d61542f40e382b51163372093f8fb657b15255e86708", "blockhash": "00000000000000000018f53835495a110e01622372bf6ae95dc86f2b0ab887b0", "vout": [{"scriptPubKey": {"reqSigs": 1, "hex": "76a9148fb59f337fc0f46e9602513a920aad65dde5694088ac", "addresses": ["1E6sCjzJpndQTNiT4wqtz2awueVqybFGPR"], "asm": "OP_DUP OP_HASH160 8fb59f337fc0f46e9602513a920aad65dde56940 OP_EQUALVERIFY OP_CHECKSIG", "type": "pubkeyhash"}, "value": 0.1962, "n": 0}, {"scriptPubKey": {"reqSigs": 1, "hex": "76a914b4856912b3cefebbae4aa5673d3cf1175877451988ac", "addresses": ["1HTWT3sQGhPvcBcJm5PpD2kwzprRuqPqCe"], "asm": "OP_DUP OP_HASH160 b4856912b3cefebbae4aa5673d3cf11758774519 OP_EQUALVERIFY OP_CHECKSIG", "type": "pubkeyhash"}, "value": 6.20510875, "n": 1}], "hex": "010000000151b8ab7b2e2bc8df624af3214eeb686e0300e8442fbdfeed649771c7846c9e2a010000006a473044022038bc5a2aa6ee12d85ac393548421df1c0210be3db6f3784ad0b637c582d5294202207845c20a85bf83e1d5ef67f38db398b0eea555e634bd846da384cd1b7100b9a80121027397053150058bff2be41b1d89b52bb6c9f24b95c836584379a124083ccf080fffffffff02a0602b01000000001976a9148fb59f337fc0f46e9602513a920aad65dde5694088ac9b3efc24000000001976a914b4856912b3cefebbae4aa5673d3cf1175877451988ac00000000", "vin": [{"sequence": 4294967295, "scriptSig": {"hex": "473044022038bc5a2aa6ee12d85ac393548421df1c0210be3db6f3784ad0b637c582d5294202207845c20a85bf83e1d5ef67f38db398b0eea555e634bd846da384cd1b7100b9a80121027397053150058bff2be41b1d89b52bb6c9f24b95c836584379a124083ccf080f", "asm": "3044022038bc5a2aa6ee12d85ac393548421df1c0210be3db6f3784ad0b637c582d5294202207845c20a85bf83e1d5ef67f38db398b0eea555e634bd846da384cd1b7100b9a8[ALL] 027397053150058bff2be41b1d89b52bb6c9f24b95c836584379a124083ccf080f"}, "vout": 1, "txid": "2a9e6c84c7719764edfebd2f44e800036e68eb4e21f34a62dfc82b2e7babb851"}], "txid": "22024889797aeffc3757d61542f40e382b51163372093f8fb657b15255e86708", "blocktime": 1537870928, "version": 1, "confirmations": 11512, "time": 1537870928, "locktime": 0, "vsize": 225, "size": 225}