{"hash": "a32b1380a6712590a8f0b6ab6d1f2e616f56adb4c07e87b91f3d1b2431333e41", "blockhash": "0000000000000000001cda96e906b7601b7a6fb1a3b62bca570a9e5d8f4b3de1", "vout": [{"scriptPubKey": {"reqSigs": 1, "hex": "a9147f8fb41f51eee8492bb93551e78040f520866df987", "addresses": ["3DKVtcCBsa9tz1NtzxxYDKDKDa8kUbxrmN"], "asm": "OP_HASH160 7f8fb41f51eee8492bb93551e78040f520866df9 OP_EQUAL", "type": "scripthash"}, "value": 0.05413067, "n": 0}], "hex": "0100000000010190f07f124c11ee3b7b2a5c430d72926b95dbe42cadfa5ff7dc6c51548f492dbe01000000171600147823869d11fe23bac0a5cbdbdedbf8d9be04e7c7ffffffff01cb9852000000000017a9147f8fb41f51eee8492bb93551e78040f520866df98702483045022100cad600cf19b76ac8557700c188b7217dae93acc7d3f437fe0a0f79b093a6ef7f02203bc45520ed7afcd9e492d78e39c616305c634c4707aa61b6c6ef03289044ef85012102cab2be480ff042be1167356b51bf24a8078b6d9f9c620ffc2ecf082be0f2d0d900000000", "vin": [{"txinwitness": ["3045022100cad600cf19b76ac8557700c188b7217dae93acc7d3f437fe0a0f79b093a6ef7f02203bc45520ed7afcd9e492d78e39c616305c634c4707aa61b6c6ef03289044ef8501", "02cab2be480ff042be1167356b51bf24a8078b6d9f9c620ffc2ecf082be0f2d0d9"], "sequence": 4294967295, "scriptSig": {"hex": "1600147823869d11fe23bac0a5cbdbdedbf8d9be04e7c7", "asm": "00147823869d11fe23bac0a5cbdbdedbf8d9be04e7c7"}, "vout": 1, "txid": "be2d498f54516cdcf75ffaad2ce4db956b92720d435c2a7b3bee114c127ff090"}], "txid": "22094d0af356258a181657630111e6a0362dcc83eec4a9e721683a6c2f24263a", "blocktime": 1537873282, "version": 1, "confirmations": 11484, "time": 1537873282, "locktime": 0, "vsize": 134, "size": 216}