{"hash": "62b17c393ba8d1ee7f23f5c1071baf3e37f6b7ec87565e433eb37a4b64d9e925", "blockhash": "0000000000000000001cda96e906b7601b7a6fb1a3b62bca570a9e5d8f4b3de1", "vout": [{"scriptPubKey": {"reqSigs": 1, "hex": "a914aa812b319084488fcec3f553bd59654395895f6d87", "addresses": ["3HEZXxMpG5gM4TjKEU8474rhJE8Rm9eLQ1"], "asm": "OP_HASH160 aa812b319084488fcec3f553bd59654395895f6d OP_EQUAL", "type": "scripthash"}, "value": 0.00269656, "n": 0}, {"scriptPubKey": {"reqSigs": 1, "hex": "a914d0d5b81e580062e0df5a97e09a9aa3daa3d8d0d587", "addresses": ["3LjEVv4mWJMF9hMT9eDhvWzHBusFC3uqqo"], "asm": "OP_HASH160 d0d5b81e580062e0df5a97e09a9aa3daa3d8d0d5 OP_EQUAL", "type": "scripthash"}, "value": 0.0014, "n": 1}, {"scriptPubKey": {"reqSigs": 1, "hex": "76a91492d64df5a3504ff544e6c8153ee74a6390a361ad88ac", "addresses": ["1EPQP9XTVucR7PMBP64kM1Y7qNHRX44NXH"], "asm": "OP_DUP OP_HASH160 92d64df5a3504ff544e6c8153ee74a6390a361ad OP_EQUALVERIFY OP_CHECKSIG", "type": "pubkeyhash"}, "value": 0.13743769, "n": 2}, {"scriptPubKey": {"reqSigs": 1, "hex": "a914819de3950fd61ee7cc94e79c075b7421d60e60bf87", "addresses": ["3DWNEcJT28pMsirCdYStGTsrFm22eeApdP"], "asm": "OP_HASH160 819de3950fd61ee7cc94e79c075b7421d60e60bf OP_EQUAL", "type": "scripthash"}, "value": 0.01689324, "n": 3}, {"scriptPubKey": {"reqSigs": 1, "hex": "76a914876e021a4c46356e8ffb0f3001ac5f20d72c01f488ac", "addresses": ["1DM61QJestdY5pyGiaF4LBSBNNHKoea98j"], "asm": "OP_DUP OP_HASH160 876e021a4c46356e8ffb0f3001ac5f20d72c01f4 OP_EQUALVERIFY OP_CHECKSIG", "type": "pubkeyhash"}, "value": 0.07796034, "n": 4}, {"scriptPubKey": {"reqSigs": 1, "hex": "76a914fb446446be3ba812c43bed0542efbed5469f26f888ac", "addresses": ["1PuaY68Gdk8NmUERx768qAv2fBLPgrW4Yv"], "asm": "OP_DUP OP_HASH160 fb446446be3ba812c43bed0542efbed5469f26f8 OP_EQUALVERIFY OP_CHECKSIG", "type": "pubkeyhash"}, "value": 0.62461868, "n": 5}, {"scriptPubKey": {"reqSigs": 1, "hex": "a914f0347a2b6fd8f96360f9362702b4d3918d918d0187", "addresses": ["3Pb6xmJLK1XnU5rwDSdq8Am2rN4F4wq4LW"], "asm": "OP_HASH160 f0347a2b6fd8f96360f9362702b4d3918d918d01 OP_EQUAL", "type": "scripthash"}, "value": 0.06, "n": 6}, {"scriptPubKey": {"reqSigs": 1, "hex": "76a9141643f51a6c5bd3c64b97f3f59519a390ee70be0d88ac", "addresses": ["132jGzAXqKiwzpj9YvoFPLvexZrV2wK7u6"], "asm": "OP_DUP OP_HASH160 1643f51a6c5bd3c64b97f3f59519a390ee70be0d OP_EQUALVERIFY OP_CHECKSIG", "type": "pubkeyhash"}, "value": 0.85092666, "n": 7}, {"scriptPubKey": {"reqSigs": 1, "hex": "a91469f37728c573ab0930cbd8720019562d727f725387", "addresses": ["3BMEXxp3tiFyd7GoKRyEXe1tyBZdjkTcHW"], "asm": "OP_HASH160 69f37728c573ab0930cbd8720019562d727f7253 OP_EQUAL", "type": "scripthash"}, "value": 0.01011821, "n": 8}, {"scriptPubKey": {"reqSigs": 1, "hex": "a9141f7096d0f5e9b16f97465af14ea01edada4acc0d87", "addresses": ["34ZFkKX7ghyDTNnqBVYZPh9KKNVuUHyRDR"], "asm": "OP_HASH160 1f7096d0f5e9b16f97465af14ea01edada4acc0d OP_EQUAL", "type": "scripthash"}, "value": 0.00361793, "n": 9}], "hex": "01000000000105ba59b1bf820ebbd03ca98521bf62e3639b2053ccaaeecafd0b7ffeca451816fe0000000023220020a1164088851856058fb42611f084d00397827fb5fdd3304c3b885d4537332acbffffffffad40decf4abf2d4f1d8f0d95021431df75eeba7463e3dc4322cc1800c6b128270100000023220020a2a4539b5ff552c66d185488f92df27f0cac665e2dc9922175fe205a65bdbdc0ffffffffba9d04bd100060335d15f884c42f2db2201eacf0821ca433a5a1cdc0b2fc95d10000000023220020c35a0609a3c924ae797ed3f4fb31fed561c848c7d075f3469d04c6a348bcfd16ffffffff36a0dae76871eec827bed0c906a05b1bda85fa2dc74412afe0697297b2fff4490100000023220020395b6cedf8daf6bb40f4428d23c8490adf4afeccec7ed0bb9984df19bfc9d8ddffffffffc5769c30b5b951f671c809991c0159f9360a9a36c665e3ebefda6b9c2828f8200100000023220020742e8f3ce9ed0eeeacd3d87a60de01a41c41767b21b36ee3c37b4960f3617ac3ffffffff0a581d04000000000017a914aa812b319084488fcec3f553bd59654395895f6d87e02202000000000017a914d0d5b81e580062e0df5a97e09a9aa3daa3d8d0d58799b6d100000000001976a91492d64df5a3504ff544e6c8153ee74a6390a361ad88acecc619000000000017a914819de3950fd61ee7cc94e79c075b7421d60e60bf8742f57600000000001976a914876e021a4c46356e8ffb0f3001ac5f20d72c01f488acac17b903000000001976a914fb446446be3ba812c43bed0542efbed5469f26f888ac808d5b000000000017a914f0347a2b6fd8f96360f9362702b4d3918d918d01873a691205000000001976a9141643f51a6c5bd3c64b97f3f59519a390ee70be0d88ac6d700f000000000017a91469f37728c573ab0930cbd8720019562d727f725387418505000000000017a9141f7096d0f5e9b16f97465af14ea01edada4acc0d870400483045022100f048ee239e5354367fc47eb9a4184f5b7419d8af18971baf2f35a7e1eb79d34c0220233cc00f21eca882910349c6eccad4cad2da0be38ab0034379f5981821935dc80147304402206b4fa1770a0a4fd3622a8874fd46fd542fb59444a804a7a9d0d86e249249e51f022068d0763e3296e6e2583d9047f7cff4b6ae62bc3428e0d66022d4979efa35f7c30169522103528ca8e79e112d1e9cbc6606f8ab8ec285ddd594e50ec1e2dc9b63a4ea21329521038ef34e6577c86607c035935a93957db44ef1df4591b12330072be71b0204000d2103a7bddd77c81aafa410da0d1688b7b5702b96395a601cacad27bf5be94acc811253ae0400483045022100e17b41c8546e10f4b8f2f6f149557197a9362714eae49b5cafa52854a14b53de022004f4e38a2f96388f057ce7629aaec21dedd5f55795e3b57a4bc42c1b79d993e401483045022100973692db81799bbd46aaa174829f02d440f8b2d148cdcf3a065cb269d394b0f8022052a71c0afaec6ad55b896fed7fa76720cd4082b279642aea19b44a17238ec8b20169522102040b24e9f119c169bed3cd74df9ebfe0746accf0e48665a13989499a9896da2e2103d0777c9739e49a61d0303350dcc940cbac742eae8779dc6f9fd261fb78d69a912102c8df2bef136e67f348915a1e6c8413085feaf5f65e4b03705c3845c976b31a8e53ae0400483045022100d8ee3c9e3102dc1f6d84c8e50c74ff90f1e940cb14ec48d18eae16dac57a02490220118bac1bb88a7b0662fe3ed486f516cdd2c0ec55211a6634ef044af3d6f922e001483045022100eef15c6b47f802616736038294266e1383c45c2a27f1ad6ea30a9af0c1562c890220679df2d7da12d85320f97b36d61d5536ddd231a8ed98977f498bcffe9ca17da2016952210361a7e0e384e4548efb2a343c0bbc4a727dd938a11d6edb87c4b66285cfef9eea2102e846a5ce834ca2c7125da1923ca245af11ae5c6e9153453d8afc42e3020379772102ae6f2cfe705da82aa91e3d7dd07f5b63c34dbd3d0ea6d5a0ee8066ffd737bb9053ae0400483045022100a05f1d89da14c4f8d4e69f3ec06a9e8a167280bc6b8d0fc4fcc62c9e4e7837d402201a5bd828a607759eb28228987096887f978d8353a16b28009147789dacee2cf5014730440220611b554a5061d802ec3ddc87549bb609cf5f3f422b3282cb186dcca3f2466020022012be16efcaea0a285170f95b0a64e3ad256cf46148ad5e7af455ad398cf262aa0169522102cec990526eb416471549e23826b1634a965ae02132388e3005b1aabcfa46ed1b2102b9d3316a70d3f905ad9aaaff5b299bcfbfa96a5722eadd1bc96659f25a6b7c422102601e0e8cbbcde3a99de6eb8a284afed8f9e7a13ea3577818663f5376ed45020253ae0400483045022100fb234685a06aa1591c9313d061963ded0fc5de1327a6c09087efd8c788eebaca02202cdb7ed931bb0cfdcc4362e900680d4ded927a6978db18c3845afd604cd1cc1c01473044022015d6a100718a97945dd3b3ef3e774af040f0b495ddbe759449744fb5854db56a02201cc889221c10590600f49afecabebc8679ded453abb06354ce057217f1f463150169522103ed3db5cf03453777c78188a5e1e6a03358ed2cefd93bd20a152a64d0e49f180c21038192384f142f096a3227758475b7ce9f6b6bf7e2a1d7eeec31b40ccd35a9558c210265494f80f5986305325ca9b495bb1a3f7b687517dbde93a22ceada8f53e33cdc53ae00000000", "vin": [{"txinwitness": ["", "3045022100f048ee239e5354367fc47eb9a4184f5b7419d8af18971baf2f35a7e1eb79d34c0220233cc00f21eca882910349c6eccad4cad2da0be38ab0034379f5981821935dc801", "304402206b4fa1770a0a4fd3622a8874fd46fd542fb59444a804a7a9d0d86e249249e51f022068d0763e3296e6e2583d9047f7cff4b6ae62bc3428e0d66022d4979efa35f7c301", "522103528ca8e79e112d1e9cbc6606f8ab8ec285ddd594e50ec1e2dc9b63a4ea21329521038ef34e6577c86607c035935a93957db44ef1df4591b12330072be71b0204000d2103a7bddd77c81aafa410da0d1688b7b5702b96395a601cacad27bf5be94acc811253ae"], "sequence": 4294967295, "scriptSig": {"hex": "220020a1164088851856058fb42611f084d00397827fb5fdd3304c3b885d4537332acb", "asm": "0020a1164088851856058fb42611f084d00397827fb5fdd3304c3b885d4537332acb"}, "vout": 0, "txid": "fe161845cafe7f0bfdcaeeaacc53209b63e362bf2185a93cd0bb0e82bfb159ba"}, {"txinwitness": ["", "3045022100e17b41c8546e10f4b8f2f6f149557197a9362714eae49b5cafa52854a14b53de022004f4e38a2f96388f057ce7629aaec21dedd5f55795e3b57a4bc42c1b79d993e401", "3045022100973692db81799bbd46aaa174829f02d440f8b2d148cdcf3a065cb269d394b0f8022052a71c0afaec6ad55b896fed7fa76720cd4082b279642aea19b44a17238ec8b201", "522102040b24e9f119c169bed3cd74df9ebfe0746accf0e48665a13989499a9896da2e2103d0777c9739e49a61d0303350dcc940cbac742eae8779dc6f9fd261fb78d69a912102c8df2bef136e67f348915a1e6c8413085feaf5f65e4b03705c3845c976b31a8e53ae"], "sequence": 4294967295, "scriptSig": {"hex": "220020a2a4539b5ff552c66d185488f92df27f0cac665e2dc9922175fe205a65bdbdc0", "asm": "0020a2a4539b5ff552c66d185488f92df27f0cac665e2dc9922175fe205a65bdbdc0"}, "vout": 1, "txid": "2728b1c60018cc2243dce36374baee75df311402950d8f1d4f2dbf4acfde40ad"}, {"txinwitness": ["", "3045022100d8ee3c9e3102dc1f6d84c8e50c74ff90f1e940cb14ec48d18eae16dac57a02490220118bac1bb88a7b0662fe3ed486f516cdd2c0ec55211a6634ef044af3d6f922e001", "3045022100eef15c6b47f802616736038294266e1383c45c2a27f1ad6ea30a9af0c1562c890220679df2d7da12d85320f97b36d61d5536ddd231a8ed98977f498bcffe9ca17da201", "52210361a7e0e384e4548efb2a343c0bbc4a727dd938a11d6edb87c4b66285cfef9eea2102e846a5ce834ca2c7125da1923ca245af11ae5c6e9153453d8afc42e3020379772102ae6f2cfe705da82aa91e3d7dd07f5b63c34dbd3d0ea6d5a0ee8066ffd737bb9053ae"], "sequence": 4294967295, "scriptSig": {"hex": "220020c35a0609a3c924ae797ed3f4fb31fed561c848c7d075f3469d04c6a348bcfd16", "asm": "0020c35a0609a3c924ae797ed3f4fb31fed561c848c7d075f3469d04c6a348bcfd16"}, "vout": 0, "txid": "d195fcb2c0cda1a533a41c82f0ac1e20b22d2fc484f8155d33600010bd049dba"}, {"txinwitness": ["", "3045022100a05f1d89da14c4f8d4e69f3ec06a9e8a167280bc6b8d0fc4fcc62c9e4e7837d402201a5bd828a607759eb28228987096887f978d8353a16b28009147789dacee2cf501", "30440220611b554a5061d802ec3ddc87549bb609cf5f3f422b3282cb186dcca3f2466020022012be16efcaea0a285170f95b0a64e3ad256cf46148ad5e7af455ad398cf262aa01", "522102cec990526eb416471549e23826b1634a965ae02132388e3005b1aabcfa46ed1b2102b9d3316a70d3f905ad9aaaff5b299bcfbfa96a5722eadd1bc96659f25a6b7c422102601e0e8cbbcde3a99de6eb8a284afed8f9e7a13ea3577818663f5376ed45020253ae"], "sequence": 4294967295, "scriptSig": {"hex": "220020395b6cedf8daf6bb40f4428d23c8490adf4afeccec7ed0bb9984df19bfc9d8dd", "asm": "0020395b6cedf8daf6bb40f4428d23c8490adf4afeccec7ed0bb9984df19bfc9d8dd"}, "vout": 1, "txid": "49f4ffb2977269e0af1244c72dfa85da1b5ba006c9d0be27c8ee7168e7daa036"}, {"txinwitness": ["", "3045022100fb234685a06aa1591c9313d061963ded0fc5de1327a6c09087efd8c788eebaca02202cdb7ed931bb0cfdcc4362e900680d4ded927a6978db18c3845afd604cd1cc1c01", "3044022015d6a100718a97945dd3b3ef3e774af040f0b495ddbe759449744fb5854db56a02201cc889221c10590600f49afecabebc8679ded453abb06354ce057217f1f4631501", "522103ed3db5cf03453777c78188a5e1e6a03358ed2cefd93bd20a152a64d0e49f180c21038192384f142f096a3227758475b7ce9f6b6bf7e2a1d7eeec31b40ccd35a9558c210265494f80f5986305325ca9b495bb1a3f7b687517dbde93a22ceada8f53e33cdc53ae"], "sequence": 4294967295, "scriptSig": {"hex": "220020742e8f3ce9ed0eeeacd3d87a60de01a41c41767b21b36ee3c37b4960f3617ac3", "asm": "0020742e8f3ce9ed0eeeacd3d87a60de01a41c41767b21b36ee3c37b4960f3617ac3"}, "vout": 1, "txid": "20f828289c6bdaefebe365c6369a0a36f959011c9909c871f651b9b5309c76c5"}], "txid": "220ba1b4658d3466321f75e7251091787a0b519abd34ddc36185657be42290ce", "blocktime": 1537873282, "version": 1, "confirmations": 11480, "time": 1537873282, "locktime": 0, "vsize": 1036, "size": 1987}