{"hash": "220b21d3bdd7f337f06e5739e9810417cc1e5c3369de75eaad07099fa2ccb85e", "blockhash": "0000000000000000001f0ddff1eddb255c1121bcd4da4f1bc9a0da00cae72433", "vout": [{"scriptPubKey": {"reqSigs": 1, "hex": "76a914e34557afec907aff6c25e943f62e01d0bc6a6e8f88ac", "addresses": ["1MihTYqFTZR5PaSEHVZeEuN5yPwjk8889W"], "asm": "OP_DUP OP_HASH160 e34557afec907aff6c25e943f62e01d0bc6a6e8f OP_EQUALVERIFY OP_CHECKSIG", "type": "pubkeyhash"}, "value": 0.00546801, "n": 0}, {"scriptPubKey": {"reqSigs": 1, "hex": "76a9146438611929060118ea682dd0559e0e906367360688ac", "addresses": ["1A8v7V7rpN5KFF94X2nFWBPBsecbUBbYpa"], "asm": "OP_DUP OP_HASH160 6438611929060118ea682dd0559e0e9063673606 OP_EQUALVERIFY OP_CHECKSIG", "type": "pubkeyhash"}, "value": 1.46266193, "n": 1}], "hex": "010000000180b5eccebd6f2f9874b74e2fcd00af01af511012c972fd47172218d5df3e3713010000006b483045022100e513176433c8ef2e1f10999971c1baef6f10cde61b4ee8d5e2b46dfe9df9101e02205811c8cac4c994beeb0a498e96142fa8496d77e66b189fa26c9e3095d8734bca0121024610d836d662dded124c10c466f9be04c3ec0d4aeae25513d2fd1a49dac2196affffffff02f1570800000000001976a914e34557afec907aff6c25e943f62e01d0bc6a6e8f88ac51d8b708000000001976a9146438611929060118ea682dd0559e0e906367360688ac00000000", "vin": [{"sequence": 4294967295, "scriptSig": {"hex": "483045022100e513176433c8ef2e1f10999971c1baef6f10cde61b4ee8d5e2b46dfe9df9101e02205811c8cac4c994beeb0a498e96142fa8496d77e66b189fa26c9e3095d8734bca0121024610d836d662dded124c10c466f9be04c3ec0d4aeae25513d2fd1a49dac2196a", "asm": "3045022100e513176433c8ef2e1f10999971c1baef6f10cde61b4ee8d5e2b46dfe9df9101e02205811c8cac4c994beeb0a498e96142fa8496d77e66b189fa26c9e3095d8734bca[ALL] 024610d836d662dded124c10c466f9be04c3ec0d4aeae25513d2fd1a49dac2196a"}, "vout": 1, "txid": "13373edfd518221747fd72c9121051af01af00cd2f4eb774982f6fbdceecb580"}], "txid": "220b21d3bdd7f337f06e5739e9810417cc1e5c3369de75eaad07099fa2ccb85e", "blocktime": 1537872018, "version": 1, "confirmations": 11489, "time": 1537872018, "locktime": 0, "vsize": 226, "size": 226}