{"hash": "24bf59bf192da2bbadc87b6d2ad8297dedc7d94cfab10b8b897afee0433ffed7", "blockhash": "0000000000000000000baef3f32e3676a92c3b2e5da21b426e4f302fc371ce76", "vout": [{"scriptPubKey": {"reqSigs": 1, "hex": "76a9142e1b944fe7ffbe969fc1df8d662fd7b5d6303c9b88ac", "addresses": ["15Co856cRnFRCKwSSzECoyT3ozVhuFoJZ6"], "asm": "OP_DUP OP_HASH160 2e1b944fe7ffbe969fc1df8d662fd7b5d6303c9b OP_EQUALVERIFY OP_CHECKSIG", "type": "pubkeyhash"}, "value": 0.0026356, "n": 0}, {"scriptPubKey": {"reqSigs": 1, "hex": "a91478a3691460207b76e97a28949db208f93b5e720c87", "addresses": ["3CgtmXDHcYe2R1GRmRRYJ3De9njqnGbwR7"], "asm": "OP_HASH160 78a3691460207b76e97a28949db208f93b5e720c OP_EQUAL", "type": "scripthash"}, "value": 0.01089252, "n": 1}], "hex": "02000000000102583e7e2dc603090d6a6d9dd62d1a5fd2487b06b9fbc32f31c6ef36bda364667d0900000017160014dd89143050fce39cd51e89b459eda2b10caee4a1feffffffd5c5492468f0e100627aba1489be5a6b8d745f6bc5c5db5e02e9d1eeb6a679980100000017160014c09b716bfde021a617ff6db9f3f312b74f72be5dfeffffff0288050400000000001976a9142e1b944fe7ffbe969fc1df8d662fd7b5d6303c9b88ace49e10000000000017a91478a3691460207b76e97a28949db208f93b5e720c8702473044022055011a1f53a49a3f716ac1479219c9c1157031bb858cc2302a47259d528687c40220781559938af3cafd71a427b04ee73fde5a1d13d9646830883119213c622425ae012102f0b8885f7c981e4d63c24eebaa4fce465de2f6b9bcf0658d24600473056036820247304402202f33d6b90a2c033a799ef96d97cfc32fa15c1645075aa660fd6fa6d2218d29c902204b0ca6f8a59b29ef87996714b05833c0ae476beb6952fb677f0a4da7cd88a2a2012102e7fd5b2546044f514760c15e4a3250264124c74ea783c144acb0c4b54611f11317490800", "vin": [{"txinwitness": ["3044022055011a1f53a49a3f716ac1479219c9c1157031bb858cc2302a47259d528687c40220781559938af3cafd71a427b04ee73fde5a1d13d9646830883119213c622425ae01", "02f0b8885f7c981e4d63c24eebaa4fce465de2f6b9bcf0658d2460047305603682"], "sequence": 4294967294, "scriptSig": {"hex": "160014dd89143050fce39cd51e89b459eda2b10caee4a1", "asm": "0014dd89143050fce39cd51e89b459eda2b10caee4a1"}, "vout": 9, "txid": "7d6664a3bd36efc6312fc3fbb9067b48d25f1a2dd69d6d6a0d0903c62d7e3e58"}, {"txinwitness": ["304402202f33d6b90a2c033a799ef96d97cfc32fa15c1645075aa660fd6fa6d2218d29c902204b0ca6f8a59b29ef87996714b05833c0ae476beb6952fb677f0a4da7cd88a2a201", "02e7fd5b2546044f514760c15e4a3250264124c74ea783c144acb0c4b54611f113"], "sequence": 4294967294, "scriptSig": {"hex": "160014c09b716bfde021a617ff6db9f3f312b74f72be5d", "asm": "0014c09b716bfde021a617ff6db9f3f312b74f72be5d"}, "vout": 1, "txid": "9879a6b6eed1e9025edbc5c56b5f748d6b5abe8914ba7a6200e1f0682449c5d5"}], "txid": "220fea41f6db3e4f554fb9d71fd6af14f0db20b813a8fc2daee2643dffc40c30", "blocktime": 1537876114, "version": 2, "confirmations": 11461, "time": 1537876114, "locktime": 542999, "vsize": 258, "size": 420}