{"hash": "221256616b6cdfd493da9f3831afc3253147438860a6fb5c4985103792a54f22", "blockhash": "0000000000000000001e0dab787dd257d1dbfcb92a98c2207d5e1078be1f4165", "vout": [{"scriptPubKey": {"reqSigs": 1, "hex": "76a914d3c7b9b6e99023458a890e866e93dc4656e9d0f588ac", "addresses": ["1LJnqeKzo7P1kaj9pERCPHHkfPodZYgghd"], "asm": "OP_DUP OP_HASH160 d3c7b9b6e99023458a890e866e93dc4656e9d0f5 OP_EQUALVERIFY OP_CHECKSIG", "type": "pubkeyhash"}, "value": 0.1430239, "n": 0}, {"scriptPubKey": {"reqSigs": 1, "hex": "76a914ac9c31da52304e4e0560e5ff4eeff7db72392a4088ac", "addresses": ["1GjgLbY7pMAewJ7xMxYsjzhCjW1Q3GJHFj"], "asm": "OP_DUP OP_HASH160 ac9c31da52304e4e0560e5ff4eeff7db72392a40 OP_EQUALVERIFY OP_CHECKSIG", "type": "pubkeyhash"}, "value": 0.155, "n": 1}], "hex": "0100000001b1f6d46cb88bd15c672a4176bf66562ae50ab4eeddd5805c0444f3a50a320863010000006a47304402206b32ac06e64c36aa976a94918bc7ff2bbf40aa05fbe4fa7fd2f7b8a66c22d4bb02201963a7c675208e51b5c44af42ea3dbab7a945f31918f63c21aff576b95a035b0012103e6c3fbf9d9d67dd82898b112717ba7a24dae9ac40f71d3495d3277ce93e65eb1ffffffff02b63cda00000000001976a914d3c7b9b6e99023458a890e866e93dc4656e9d0f588ace082ec00000000001976a914ac9c31da52304e4e0560e5ff4eeff7db72392a4088ac00000000", "vin": [{"sequence": 4294967295, "scriptSig": {"hex": "47304402206b32ac06e64c36aa976a94918bc7ff2bbf40aa05fbe4fa7fd2f7b8a66c22d4bb02201963a7c675208e51b5c44af42ea3dbab7a945f31918f63c21aff576b95a035b0012103e6c3fbf9d9d67dd82898b112717ba7a24dae9ac40f71d3495d3277ce93e65eb1", "asm": "304402206b32ac06e64c36aa976a94918bc7ff2bbf40aa05fbe4fa7fd2f7b8a66c22d4bb02201963a7c675208e51b5c44af42ea3dbab7a945f31918f63c21aff576b95a035b0[ALL] 03e6c3fbf9d9d67dd82898b112717ba7a24dae9ac40f71d3495d3277ce93e65eb1"}, "vout": 1, "txid": "6308320aa5f344045c80d5ddeeb40ae52a5666bf76412a675cd18bb86cd4f6b1"}], "txid": "221256616b6cdfd493da9f3831afc3253147438860a6fb5c4985103792a54f22", "blocktime": 1537872475, "version": 1, "confirmations": 11487, "time": 1537872475, "locktime": 0, "vsize": 225, "size": 225}