{"hash": "2214fac0f897e3e7e464a8c42a6f5f6634554f833142d2a62c8b1c03de2dee9e", "blockhash": "0000000000000000000baef3f32e3676a92c3b2e5da21b426e4f302fc371ce76", "vout": [{"scriptPubKey": {"reqSigs": 1, "hex": "76a914b3fd7a3ab30dabb2e99f8936599409a33e62becc88ac", "addresses": ["1HQhcG6JdLGENhqTgWK9qz7SxZSXiW82UA"], "asm": "OP_DUP OP_HASH160 b3fd7a3ab30dabb2e99f8936599409a33e62becc OP_EQUALVERIFY OP_CHECKSIG", "type": "pubkeyhash"}, "value": 0.00628606, "n": 0}, {"scriptPubKey": {"type": "nulldata", "hex": "6a4c5000007833000113ebaf7cd9b676bc920c422527b7256b4774d339f6019d6ddc0f1b8ff117d7172aea7977eb95a7abebfedd1ec6c05baa1fb806141a05a5bf87141d100759d4ba30d2c37bb011d97e02cf", "asm": "OP_RETURN 00007833000113ebaf7cd9b676bc920c422527b7256b4774d339f6019d6ddc0f1b8ff117d7172aea7977eb95a7abebfedd1ec6c05baa1fb806141a05a5bf87141d100759d4ba30d2c37bb011d97e02cf"}, "value": 0.0, "n": 1}], "hex": "0100000001eb26eecfd42ecf3aab358cd66ab66bd2ccb8c7dd69d79f1290f1f19c9ea75103000000006b483045022100f5581caee556f16a8cf1afc13ae514198565bc9bbab535eb6a98dd7b1bad06cb02201f977a0a4d114bb376e5476356ecc6cfcd795c9e4198e085df2e4d8c936c10aa012102f12a769fb766e77f712d234f5a303c78da2b4e739b9f59c6bf77deaafd94b301ffffffff027e970900000000001976a914b3fd7a3ab30dabb2e99f8936599409a33e62becc88ac0000000000000000536a4c5000007833000113ebaf7cd9b676bc920c422527b7256b4774d339f6019d6ddc0f1b8ff117d7172aea7977eb95a7abebfedd1ec6c05baa1fb806141a05a5bf87141d100759d4ba30d2c37bb011d97e02cf00000000", "vin": [{"sequence": 4294967295, "scriptSig": {"hex": "483045022100f5581caee556f16a8cf1afc13ae514198565bc9bbab535eb6a98dd7b1bad06cb02201f977a0a4d114bb376e5476356ecc6cfcd795c9e4198e085df2e4d8c936c10aa012102f12a769fb766e77f712d234f5a303c78da2b4e739b9f59c6bf77deaafd94b301", "asm": "3045022100f5581caee556f16a8cf1afc13ae514198565bc9bbab535eb6a98dd7b1bad06cb02201f977a0a4d114bb376e5476356ecc6cfcd795c9e4198e085df2e4d8c936c10aa[ALL] 02f12a769fb766e77f712d234f5a303c78da2b4e739b9f59c6bf77deaafd94b301"}, "vout": 0, "txid": "0351a79e9cf1f190129fd769ddc7b8ccd26bb66ad68c35ab3acf2ed4cfee26eb"}], "txid": "2214fac0f897e3e7e464a8c42a6f5f6634554f833142d2a62c8b1c03de2dee9e", "blocktime": 1537876114, "version": 1, "confirmations": 11463, "time": 1537876114, "locktime": 0, "vsize": 284, "size": 284}