{"hash": "2216b7c1e64fdc9feaa6bbd6190374143deb3b2b0a72f700e0d3921d34ea8af9", "blockhash": "000000000000000000022b45ed06c6f4ccd3cf7fb5ba4856ebd2e58215665228", "vout": [{"scriptPubKey": {"reqSigs": 1, "hex": "76a914ce940dd8457e1d64d80e120414bee974bdda2cac88ac", "addresses": ["1KqHZVi72B2cvXhy75x2Hu6tzxTGxC9GyC"], "asm": "OP_DUP OP_HASH160 ce940dd8457e1d64d80e120414bee974bdda2cac OP_EQUALVERIFY OP_CHECKSIG", "type": "pubkeyhash"}, "value": 0.032576, "n": 0}, {"scriptPubKey": {"reqSigs": 1, "hex": "76a914a5a7af8b08595d150c1e40f2e9b9f312a4647a3c88ac", "addresses": ["1G6uNfGTmKwc5z3dQ3AuQ9Hopj2DJbU8uz"], "asm": "OP_DUP OP_HASH160 a5a7af8b08595d150c1e40f2e9b9f312a4647a3c OP_EQUALVERIFY OP_CHECKSIG", "type": "pubkeyhash"}, "value": 0.00051968, "n": 1}], "hex": "0100000002ef45cf72d4c4dedbd27edc9399d4aa33f4566c8ff7db243ffee748665169ed200100000069463043021f6a9db9c6dab10d3ee3b753ec2dca9b510f812f243bdabd6b37cfbc53bdeb5f02207c7550b23ff9d6a477d234c2a23198b3651423590e1206c6cbfe0caaf375ba45012103e847050da26ad5855f2ac26603c26ab1f4babcfdd5b54ac22636f68fb6fb5f2dfffffffff1f740e6bd1b8f6eb65528584ac9660b251ea06263459518c993ab630ea4dc7f000000006a473044022006fef0c79ed724a8b694439c4ef5f97658993076e2efcb035a2f09e5332bf1cd02204f7aca3c0c4bc44d799c2d41e92a54eb7349b806d28e57617978b7df46891e11012102e0a2432e419171a64361bfc1490d0cdf41d4d93e4ecf0d06f58dc46dcf3555c0ffffffff0200b53100000000001976a914ce940dd8457e1d64d80e120414bee974bdda2cac88ac00cb0000000000001976a914a5a7af8b08595d150c1e40f2e9b9f312a4647a3c88ac00000000", "vin": [{"sequence": 4294967295, "scriptSig": {"hex": "463043021f6a9db9c6dab10d3ee3b753ec2dca9b510f812f243bdabd6b37cfbc53bdeb5f02207c7550b23ff9d6a477d234c2a23198b3651423590e1206c6cbfe0caaf375ba45012103e847050da26ad5855f2ac26603c26ab1f4babcfdd5b54ac22636f68fb6fb5f2d", "asm": "3043021f6a9db9c6dab10d3ee3b753ec2dca9b510f812f243bdabd6b37cfbc53bdeb5f02207c7550b23ff9d6a477d234c2a23198b3651423590e1206c6cbfe0caaf375ba45[ALL] 03e847050da26ad5855f2ac26603c26ab1f4babcfdd5b54ac22636f68fb6fb5f2d"}, "vout": 1, "txid": "20ed69516648e7fe3f24dbf78f6c56f433aad49993dc7ed2dbdec4d472cf45ef"}, {"sequence": 4294967295, "scriptSig": {"hex": "473044022006fef0c79ed724a8b694439c4ef5f97658993076e2efcb035a2f09e5332bf1cd02204f7aca3c0c4bc44d799c2d41e92a54eb7349b806d28e57617978b7df46891e11012102e0a2432e419171a64361bfc1490d0cdf41d4d93e4ecf0d06f58dc46dcf3555c0", "asm": "3044022006fef0c79ed724a8b694439c4ef5f97658993076e2efcb035a2f09e5332bf1cd02204f7aca3c0c4bc44d799c2d41e92a54eb7349b806d28e57617978b7df46891e11[ALL] 02e0a2432e419171a64361bfc1490d0cdf41d4d93e4ecf0d06f58dc46dcf3555c0"}, "vout": 0, "txid": "7fdca40e63ab93c91895456362a01e250b66c94a582855b66e8f1bbde640f7f1"}], "txid": "2216b7c1e64fdc9feaa6bbd6190374143deb3b2b0a72f700e0d3921d34ea8af9", "blocktime": 1537869901, "version": 1, "confirmations": 11524, "time": 1537869901, "locktime": 0, "vsize": 371, "size": 371}