{"hash": "221834546c1deea657eece55815e004d350ca927dc266d7faa91a6996df1ee66", "blockhash": "000000000000000000205f8b0775d31398ef75b89a5e8ec8d2c57b4dc0ac4c20", "vout": [{"scriptPubKey": {"type": "nulldata", "hex": "6a146f6d6e69000000000000001f000000b329c62f00", "asm": "OP_RETURN 6f6d6e69000000000000001f000000b329c62f00"}, "value": 0.0, "n": 0}, {"scriptPubKey": {"reqSigs": 1, "hex": "76a914540401629a12c9c111d597103c84083f282c929888ac", "addresses": ["18fEZR3do5DtawScXoNntoDQ9a8RYHqyB3"], "asm": "OP_DUP OP_HASH160 540401629a12c9c111d597103c84083f282c9298 OP_EQUALVERIFY OP_CHECKSIG", "type": "pubkeyhash"}, "value": 5.46e-06, "n": 1}, {"scriptPubKey": {"reqSigs": 1, "hex": "76a914882cc4f54c2ea08d18892bb11ab27fc43e466e7188ac", "addresses": ["1DR2XiiEjs91cTtp1LxyqEKm5ihNABmRZ7"], "asm": "OP_DUP OP_HASH160 882cc4f54c2ea08d18892bb11ab27fc43e466e71 OP_EQUALVERIFY OP_CHECKSIG", "type": "pubkeyhash"}, "value": 0.11267134, "n": 2}], "hex": "0100000001e8875583ee08988e570c22b225076dc8d64eb1ee4147ef7f544fd3436ef29ec8010000006b48304502210094f37f013cf4a20ba79eae983aa39e67b86c6bde74433994317d458c7d5760da02206b2b50ae0d9a35605c22c2e57855912c9891be4f39623c141434ad41f61889f6012102d7800c61a710c2c233322b2fbdcbbd492c162678a6cf6e859c3b7322e14189eefeffffff030000000000000000166a146f6d6e69000000000000001f000000b329c62f0022020000000000001976a914540401629a12c9c111d597103c84083f282c929888ac3eecab00000000001976a914882cc4f54c2ea08d18892bb11ab27fc43e466e7188ac0f490800", "vin": [{"sequence": 4294967294, "scriptSig": {"hex": "48304502210094f37f013cf4a20ba79eae983aa39e67b86c6bde74433994317d458c7d5760da02206b2b50ae0d9a35605c22c2e57855912c9891be4f39623c141434ad41f61889f6012102d7800c61a710c2c233322b2fbdcbbd492c162678a6cf6e859c3b7322e14189ee", "asm": "304502210094f37f013cf4a20ba79eae983aa39e67b86c6bde74433994317d458c7d5760da02206b2b50ae0d9a35605c22c2e57855912c9891be4f39623c141434ad41f61889f6[ALL] 02d7800c61a710c2c233322b2fbdcbbd492c162678a6cf6e859c3b7322e14189ee"}, "vout": 1, "txid": "c89ef26e43d34f547fef4741eeb14ed6c86d0725b2220c578e9808ee835587e8"}], "txid": "221834546c1deea657eece55815e004d350ca927dc266d7faa91a6996df1ee66", "blocktime": 1537871175, "version": 1, "confirmations": 11511, "time": 1537871175, "locktime": 542991, "vsize": 257, "size": 257}