{"hash": "221f49854dc0761ee4cf8403aaaa16f9740526150bac1e416f67ca5bc96ed7ad", "blockhash": "00000000000000000018f53835495a110e01622372bf6ae95dc86f2b0ab887b0", "vout": [{"scriptPubKey": {"reqSigs": 1, "hex": "76a914237f0d761c99b97fc7ac63d3057905da3b3ba6a988ac", "addresses": ["14EgrUyYm8dShV43nvzdx6oWJ8cKd41tnk"], "asm": "OP_DUP OP_HASH160 237f0d761c99b97fc7ac63d3057905da3b3ba6a9 OP_EQUALVERIFY OP_CHECKSIG", "type": "pubkeyhash"}, "value": 0.00171619, "n": 0}, {"scriptPubKey": {"reqSigs": 1, "hex": "76a91493fbdb0f2837dc3a946255820b38f5be055b0c3d88ac", "addresses": ["1EVU3SWoD67RjCxG6pAEJXj7Mt8GL6wxym"], "asm": "OP_DUP OP_HASH160 93fbdb0f2837dc3a946255820b38f5be055b0c3d OP_EQUALVERIFY OP_CHECKSIG", "type": "pubkeyhash"}, "value": 8.96e-06, "n": 1}], "hex": "010000000170f352e1d30ce0c49017b4d3f945a9042e425a45c3869a049a35d57dce9175e2030000006a473044022024bef25860f73d8668811159eb7defd8022d6372e054f75a00c4b4494b66c2a502201a86a6adbb3d3a0ebf844b7d248e78f87cbb1ab9fc5bf904836b2bb4a647a72d012103624979a47dae1d2fc9b0298b1c9ffba8009c2aefe91806f15df9a6504084f973ffffffff02639e0200000000001976a914237f0d761c99b97fc7ac63d3057905da3b3ba6a988ac80030000000000001976a91493fbdb0f2837dc3a946255820b38f5be055b0c3d88ac00000000", "vin": [{"sequence": 4294967295, "scriptSig": {"hex": "473044022024bef25860f73d8668811159eb7defd8022d6372e054f75a00c4b4494b66c2a502201a86a6adbb3d3a0ebf844b7d248e78f87cbb1ab9fc5bf904836b2bb4a647a72d012103624979a47dae1d2fc9b0298b1c9ffba8009c2aefe91806f15df9a6504084f973", "asm": "3044022024bef25860f73d8668811159eb7defd8022d6372e054f75a00c4b4494b66c2a502201a86a6adbb3d3a0ebf844b7d248e78f87cbb1ab9fc5bf904836b2bb4a647a72d[ALL] 03624979a47dae1d2fc9b0298b1c9ffba8009c2aefe91806f15df9a6504084f973"}, "vout": 3, "txid": "e27591ce7dd5359a049a86c3455a422e04a945f9d3b41790c4e00cd3e152f370"}], "txid": "221f49854dc0761ee4cf8403aaaa16f9740526150bac1e416f67ca5bc96ed7ad", "blocktime": 1537870928, "version": 1, "confirmations": 11512, "time": 1537870928, "locktime": 0, "vsize": 225, "size": 225}