{"hash": "2223bf29bec1577f1fbdd3ea3954df9e02c9a84e24d3e4b4688d04cd4e6d1813", "blockhash": "00000000000000000004ffacab907a6b429b9a5745fa0b75af4234bf69dd7176", "vout": [{"scriptPubKey": {"reqSigs": 1, "hex": "a914a55fc296dd0488f9b03aa2b17f04e8a737128b9587", "addresses": ["3GmS8j1jSxzXuNHvQFsbrRWn4FpRjAi5zN"], "asm": "OP_HASH160 a55fc296dd0488f9b03aa2b17f04e8a737128b95 OP_EQUAL", "type": "scripthash"}, "value": 0.000433, "n": 0}, {"scriptPubKey": {"reqSigs": 1, "hex": "76a914c1606355d59255cddd8ce723ebfa4e4c4e2e144a88ac", "addresses": ["1JdUtBVYVb5dAvFYJ5CeCFdzA2eGi9VR9c"], "asm": "OP_DUP OP_HASH160 c1606355d59255cddd8ce723ebfa4e4c4e2e144a OP_EQUALVERIFY OP_CHECKSIG", "type": "pubkeyhash"}, "value": 0.0019492, "n": 1}], "hex": "01000000013f8bd5f5fd9587c13cc56fa9970198c218cbfd18f070419c1f60d4af60363f45010000006a47304402201a0aab3f0459de4bafb1c7b26ae99f706ae4023e7073eca7005e1b6a289ab9fa02207f6fc589f00c656538a1a2ac9ad7847f79e972848fab17e58cdf73a2102417fa01210314a8ca655f0a1a92bf9d468298e598cdce1681e9586ffd43c94e9506eda067ccffffffff0224a900000000000017a914a55fc296dd0488f9b03aa2b17f04e8a737128b958768f90200000000001976a914c1606355d59255cddd8ce723ebfa4e4c4e2e144a88ac00000000", "vin": [{"sequence": 4294967295, "scriptSig": {"hex": "47304402201a0aab3f0459de4bafb1c7b26ae99f706ae4023e7073eca7005e1b6a289ab9fa02207f6fc589f00c656538a1a2ac9ad7847f79e972848fab17e58cdf73a2102417fa01210314a8ca655f0a1a92bf9d468298e598cdce1681e9586ffd43c94e9506eda067cc", "asm": "304402201a0aab3f0459de4bafb1c7b26ae99f706ae4023e7073eca7005e1b6a289ab9fa02207f6fc589f00c656538a1a2ac9ad7847f79e972848fab17e58cdf73a2102417fa[ALL] 0314a8ca655f0a1a92bf9d468298e598cdce1681e9586ffd43c94e9506eda067cc"}, "vout": 1, "txid": "453f3660afd4601f9c4170f018fdcb18c2980197a96fc53cc18795fdf5d58b3f"}], "txid": "2223bf29bec1577f1fbdd3ea3954df9e02c9a84e24d3e4b4688d04cd4e6d1813", "blocktime": 1537875543, "version": 1, "confirmations": 11464, "time": 1537875543, "locktime": 0, "vsize": 223, "size": 223}