{"hash": "2227f0fd9e988aaba04b5b0253e3cdb9a8756d2349e367469c89f181757f0081", "blockhash": "00000000000000000004ffacab907a6b429b9a5745fa0b75af4234bf69dd7176", "vout": [{"scriptPubKey": {"reqSigs": 1, "hex": "76a914fd21dbcbf04d7645bf7867e5f9b7a77b043ad6bd88ac", "addresses": ["1Q5SX4yVySSUA6aiAh7D3J3gzFmdpBHeSr"], "asm": "OP_DUP OP_HASH160 fd21dbcbf04d7645bf7867e5f9b7a77b043ad6bd OP_EQUALVERIFY OP_CHECKSIG", "type": "pubkeyhash"}, "value": 0.21440351, "n": 0}, {"scriptPubKey": {"reqSigs": 1, "hex": "76a9148fd38cdb55b78b71399eb11016cced0047af97f388ac", "addresses": ["1E7V4CXvHpjMkRcLeeQfj7gCe7i92rtNpQ"], "asm": "OP_DUP OP_HASH160 8fd38cdb55b78b71399eb11016cced0047af97f3 OP_EQUALVERIFY OP_CHECKSIG", "type": "pubkeyhash"}, "value": 0.01275, "n": 1}, {"scriptPubKey": {"reqSigs": 1, "hex": "76a914fbeefff68eeec43fdfc708982b48a6ca0ad1d9fc88ac", "addresses": ["1Py6v9jSmCjwJKX2uuzZrjYGUSwiAkHSJn"], "asm": "OP_DUP OP_HASH160 fbeefff68eeec43fdfc708982b48a6ca0ad1d9fc OP_EQUALVERIFY OP_CHECKSIG", "type": "pubkeyhash"}, "value": 0.02308366, "n": 2}], "hex": "02000000014264bdb473cb39f8e916c1c5c5ed5ce911ac14ffa5b40b1cad6bcfb6dc35ebe7010000006a47304402200125259e953a9d1550babc6610300f058ba2243fd9d0b091c872937a053432380220364520ad28a866bcc01d90e4319bdef243b355776de1397eb9ff8960ecd46205012103c5a54c344421e56f1320dee25bd97e251c70e3b2d5e6f75eded467ea5b3bbedffeffffff035f274701000000001976a914fd21dbcbf04d7645bf7867e5f9b7a77b043ad6bd88ac78741300000000001976a9148fd38cdb55b78b71399eb11016cced0047af97f388ac0e392300000000001976a914fbeefff68eeec43fdfc708982b48a6ca0ad1d9fc88ac16490800", "vin": [{"sequence": 4294967294, "scriptSig": {"hex": "47304402200125259e953a9d1550babc6610300f058ba2243fd9d0b091c872937a053432380220364520ad28a866bcc01d90e4319bdef243b355776de1397eb9ff8960ecd46205012103c5a54c344421e56f1320dee25bd97e251c70e3b2d5e6f75eded467ea5b3bbedf", "asm": "304402200125259e953a9d1550babc6610300f058ba2243fd9d0b091c872937a053432380220364520ad28a866bcc01d90e4319bdef243b355776de1397eb9ff8960ecd46205[ALL] 03c5a54c344421e56f1320dee25bd97e251c70e3b2d5e6f75eded467ea5b3bbedf"}, "vout": 1, "txid": "e7eb35dcb6cf6bad1c0bb4a5ff14ac11e95cedc5c5c116e9f839cb73b4bd6442"}], "txid": "2227f0fd9e988aaba04b5b0253e3cdb9a8756d2349e367469c89f181757f0081", "blocktime": 1537875543, "version": 2, "confirmations": 11464, "time": 1537875543, "locktime": 542998, "vsize": 259, "size": 259}