{"hash": "2a4147e0b9f01c126022a8165e96038b737d4af0c24b391d4842d524f6c47614", "blockhash": "000000000000000000022b45ed06c6f4ccd3cf7fb5ba4856ebd2e58215665228", "vout": [{"scriptPubKey": {"reqSigs": 1, "hex": "001417b29a1baf691d0583181fd2f6271770a85de62f", "addresses": ["bc1qz7ef5xa0dywstqccrlf0vfchwz59me3008w9sc"], "asm": "0 17b29a1baf691d0583181fd2f6271770a85de62f", "type": "witness_v0_keyhash"}, "value": 0.00870036, "n": 0}, {"scriptPubKey": {"reqSigs": 1, "hex": "76a9145d7a6c77f97d5c4603802354a0b47234acdf3c2388ac", "addresses": ["19XGVzL3uQ3GhkVS2ebRizDpBXRaRkL3MH"], "asm": "OP_DUP OP_HASH160 5d7a6c77f97d5c4603802354a0b47234acdf3c23 OP_EQUALVERIFY OP_CHECKSIG", "type": "pubkeyhash"}, "value": 0.0458924, "n": 1}], "hex": "0100000000010180f2daabd02423a915dbf5c2b3e217f4e3b6717cdfcc06f2bec0a54050f2425e00000000171600146ee00cc20b7719fa3cfa7e517be70abd0ee9b445ffffffff0294460d000000000016001417b29a1baf691d0583181fd2f6271770a85de62fb8064600000000001976a9145d7a6c77f97d5c4603802354a0b47234acdf3c2388ac02483045022100df23068ed4da8943354485bf41c694eb28024f8effb16c8d45ab9724ef3ed0a30220056d25de51eca962a93240906b46e4130f9d0742124c2e8e46c0ba4dc186e4220121034bc91b528ab0316a91e49717245c1208ef5c4239dc0feee46eca2d873071933f00000000", "vin": [{"txinwitness": ["3045022100df23068ed4da8943354485bf41c694eb28024f8effb16c8d45ab9724ef3ed0a30220056d25de51eca962a93240906b46e4130f9d0742124c2e8e46c0ba4dc186e42201", "034bc91b528ab0316a91e49717245c1208ef5c4239dc0feee46eca2d873071933f"], "sequence": 4294967295, "scriptSig": {"hex": "1600146ee00cc20b7719fa3cfa7e517be70abd0ee9b445", "asm": "00146ee00cc20b7719fa3cfa7e517be70abd0ee9b445"}, "vout": 0, "txid": "5e42f25040a5c0bef206ccdf7c71b6e3f417e2b3c2f5db15a92324d0abdaf280"}], "txid": "222ad885656a20460e32bce3d385909e1c24c12b2ca2ba9f695b5602d6cdb14d", "blocktime": 1537869901, "version": 1, "confirmations": 11523, "time": 1537869901, "locktime": 0, "vsize": 167, "size": 249}