{"hash": "393835c0149034c9d4a5b2e679eca03e99dc067001ad9490548bb517599c424e", "blockhash": "00000000000000000018f53835495a110e01622372bf6ae95dc86f2b0ab887b0", "vout": [{"scriptPubKey": {"reqSigs": 1, "hex": "a914fd57f8e7a244385a766945d065a22e7c8b9902b987", "addresses": ["3QnaGVre9HujDLxokS1yM36ofSfweWpFiC"], "asm": "OP_HASH160 fd57f8e7a244385a766945d065a22e7c8b9902b9 OP_EQUAL", "type": "scripthash"}, "value": 0.3037989, "n": 0}, {"scriptPubKey": {"reqSigs": 1, "hex": "a914c450a81e4f0f01d6bd00f32e792375731b52acf287", "addresses": ["3Kb2zGZfEkPHQ8osKJiUNNfQovVxkcbUK4"], "asm": "OP_HASH160 c450a81e4f0f01d6bd00f32e792375731b52acf2 OP_EQUAL", "type": "scripthash"}, "value": 0.69538849, "n": 1}], "hex": "020000000001022c67e4ca524036c49b2dabbaa817bd4d85e817b5541c0512a920f05d94e8d7030000000017160014a9cf3aa19f489079ae8c5b53a9dd4862b196ea0dfdffffff5be7dbe00827cea0fb215350f9c43f99c930fac7a776accf374ac0d6cfa0950700000000171600144f19c0ac38f2181e21f7852ce3adb652ddc483f5fdffffff02728fcf010000000017a914fd57f8e7a244385a766945d065a22e7c8b9902b987211425040000000017a914c450a81e4f0f01d6bd00f32e792375731b52acf287024830450221009d0fa6edfe6b162985f9155ded6a526f497a0880d36a7f9efc6372a61ce931a60220488436f153252bdb9ae93f0978a9a8f806bde871ac8c1dff306230dc694202cc012103488c114fe966c2d7aaab974a3f753daccf7a20dd92ee951ff56612727a8210a202483045022100e1de8089e80474ab198045d9e0aff437a7565cd06197f6786bc1de6ba041b61002201ed24286da6a7526f0b78c7229fd5a9af97af490a3a39a4442318a8d96187206012103ae46ad0fc137fa25a6aa4d2976a9933ff5fb7a691ba35bc5c68e8829bf0935610e490800", "vin": [{"txinwitness": ["30450221009d0fa6edfe6b162985f9155ded6a526f497a0880d36a7f9efc6372a61ce931a60220488436f153252bdb9ae93f0978a9a8f806bde871ac8c1dff306230dc694202cc01", "03488c114fe966c2d7aaab974a3f753daccf7a20dd92ee951ff56612727a8210a2"], "sequence": 4294967293, "scriptSig": {"hex": "160014a9cf3aa19f489079ae8c5b53a9dd4862b196ea0d", "asm": "0014a9cf3aa19f489079ae8c5b53a9dd4862b196ea0d"}, "vout": 0, "txid": "03d7e8945df020a912051c54b517e8854dbd17a8baab2d9bc4364052cae4672c"}, {"txinwitness": ["3045022100e1de8089e80474ab198045d9e0aff437a7565cd06197f6786bc1de6ba041b61002201ed24286da6a7526f0b78c7229fd5a9af97af490a3a39a4442318a8d9618720601", "03ae46ad0fc137fa25a6aa4d2976a9933ff5fb7a691ba35bc5c68e8829bf093561"], "sequence": 4294967293, "scriptSig": {"hex": "1600144f19c0ac38f2181e21f7852ce3adb652ddc483f5", "asm": "00144f19c0ac38f2181e21f7852ce3adb652ddc483f5"}, "vout": 0, "txid": "0795a0cfd6c04a37cfac76a7c7fa30c9993fc4f9505321fba0ce2708e0dbe75b"}], "txid": "223470f6c68f0b42355e159a8bdc457814ed16adfc33287c326e8a4ccbfe3795", "blocktime": 1537870928, "version": 2, "confirmations": 11512, "time": 1537870928, "locktime": 542990, "vsize": 257, "size": 420}