{"hash": "3510e2c884ffdcdadd4ace5a4a7f95f38b2148448b77f7e8d459aee7a792bf65", "blockhash": "0000000000000000000dcc0f55137456b1a82d3642486a52398922ac4d620174", "vout": [{"scriptPubKey": {"reqSigs": 1, "hex": "a9149c5e542a37633380efd939a14ba74a90a116fd1987", "addresses": ["3FwpLYgdugYxk5sHJfzFEDX14xmsU5EtPt"], "asm": "OP_HASH160 9c5e542a37633380efd939a14ba74a90a116fd19 OP_EQUAL", "type": "scripthash"}, "value": 0.039053, "n": 0}, {"scriptPubKey": {"reqSigs": 1, "hex": "a914acc453830aa5d405f012ef70d9f6db14289eac6187", "addresses": ["3HSXLXJtQVerjK5T6PRcvdzyz1hRmRvVSV"], "asm": "OP_HASH160 acc453830aa5d405f012ef70d9f6db14289eac61 OP_EQUAL", "type": "scripthash"}, "value": 32.729549, "n": 1}], "hex": "01000000000101d25eb16196bdbc3c3d123e33f5ce3072427535b95a0101a9cd256213ea93f2010100000017160014251245ecc46f4f84b4c5050de2e3bd9e026191a7feffffff0214973b000000000017a9149c5e542a37633380efd939a14ba74a90a116fd1987145415c30000000017a914acc453830aa5d405f012ef70d9f6db14289eac618702483045022100e40b6e1f43e34194a35bd7324f1daf333e22027189fde8d917b67261471b478a022009508d34fe065f3f0aa6d39af8eb1db708137a7f5032971fd8c2e1f6685656b20121025519636b6b8b8028aa66d090b86e3400489e9d155637955ac85250b61b2f7e250c490800", "vin": [{"txinwitness": ["3045022100e40b6e1f43e34194a35bd7324f1daf333e22027189fde8d917b67261471b478a022009508d34fe065f3f0aa6d39af8eb1db708137a7f5032971fd8c2e1f6685656b201", "025519636b6b8b8028aa66d090b86e3400489e9d155637955ac85250b61b2f7e25"], "sequence": 4294967294, "scriptSig": {"hex": "160014251245ecc46f4f84b4c5050de2e3bd9e026191a7", "asm": "0014251245ecc46f4f84b4c5050de2e3bd9e026191a7"}, "vout": 1, "txid": "01f293ea136225cda901015ab93575427230cef5333e123d3cbcbd9661b15ed2"}], "txid": "2238634309ab17e91c7c6abe74efc5d965e05d7f4c5c92dcdd30afb239e58d02", "blocktime": 1537870268, "version": 1, "confirmations": 11518, "time": 1537870268, "locktime": 542988, "vsize": 166, "size": 248}