{"hash": "2239bc7750698a62ff904099014817b0aa581d8ece6f196b367cdfb4b158f785", "blockhash": "00000000000000000004ffacab907a6b429b9a5745fa0b75af4234bf69dd7176", "vout": [{"scriptPubKey": {"reqSigs": 1, "hex": "76a914c5b7fd920dce5f61934e792c7e6fcc829aff533d88ac", "addresses": ["1K2SXgApmo9uZoyahvsbSanpVWbzZWVVMF"], "asm": "OP_DUP OP_HASH160 c5b7fd920dce5f61934e792c7e6fcc829aff533d OP_EQUALVERIFY OP_CHECKSIG", "type": "pubkeyhash"}, "value": 0.0015292, "n": 0}, {"scriptPubKey": {"type": "nulldata", "hex": "6a28466100000002707fc767e6b7f99583c1d0214b22033564c996b5d29564d6412064439c74241617a7", "asm": "OP_RETURN 466100000002707fc767e6b7f99583c1d0214b22033564c996b5d29564d6412064439c74241617a7"}, "value": 0.0, "n": 1}], "hex": "0200000001a8fbc8d8abf3070a524002c6bb3a648bc289a2c7ba58f1b4bd893cc11067abde000000006b483045022100e59781541520116ebbaf66d6d337bacb4d6e19773acdea663a33c1805fedece60220378980371a8619afe0612e3f6e96a100c9671f7fca716a8bbfba2832e410d2f10121027e706cd1c919431b693a0247e4a239e632659a8723a621a91ec610c64f4173acffffffff0258550200000000001976a914c5b7fd920dce5f61934e792c7e6fcc829aff533d88ac00000000000000002a6a28466100000002707fc767e6b7f99583c1d0214b22033564c996b5d29564d6412064439c74241617a700000000", "vin": [{"sequence": 4294967295, "scriptSig": {"hex": "483045022100e59781541520116ebbaf66d6d337bacb4d6e19773acdea663a33c1805fedece60220378980371a8619afe0612e3f6e96a100c9671f7fca716a8bbfba2832e410d2f10121027e706cd1c919431b693a0247e4a239e632659a8723a621a91ec610c64f4173ac", "asm": "3045022100e59781541520116ebbaf66d6d337bacb4d6e19773acdea663a33c1805fedece60220378980371a8619afe0612e3f6e96a100c9671f7fca716a8bbfba2832e410d2f1[ALL] 027e706cd1c919431b693a0247e4a239e632659a8723a621a91ec610c64f4173ac"}, "vout": 0, "txid": "deab6710c13c89bdb4f158bac7a289c28b643abbc60240520a07f3abd8c8fba8"}], "txid": "2239bc7750698a62ff904099014817b0aa581d8ece6f196b367cdfb4b158f785", "blocktime": 1537875543, "version": 2, "confirmations": 11464, "time": 1537875543, "locktime": 0, "vsize": 243, "size": 243}