{"hash": "c1b115bdf40523ddcf89c24ea1b64b1d4184d927a4b5a64f89442e02912d47bc", "blockhash": "0000000000000000001cda96e906b7601b7a6fb1a3b62bca570a9e5d8f4b3de1", "vout": [{"scriptPubKey": {"reqSigs": 1, "hex": "a914caeadb7d66af908eec6fd48a4496337a5e58194c87", "addresses": ["3LBwmUEzJCoZLz3n8FUNtqmf17UwevGdxv"], "asm": "OP_HASH160 caeadb7d66af908eec6fd48a4496337a5e58194c OP_EQUAL", "type": "scripthash"}, "value": 0.00039, "n": 0}, {"scriptPubKey": {"reqSigs": 1, "hex": "a91435c717587d76202010eac64c0009fe1ef34313b487", "addresses": ["36bNEouCHvgvtEDVkEq2d7AKwVpW1jNnMy"], "asm": "OP_HASH160 35c717587d76202010eac64c0009fe1ef34313b4 OP_EQUAL", "type": "scripthash"}, "value": 0.0141688, "n": 1}, {"scriptPubKey": {"reqSigs": 1, "hex": "a914d03ba90d4de5407703328b117b918edc7448bf7d87", "addresses": ["3Lg3wiegNXZ7S13Ttfz6f2sVVGakfUiCyR"], "asm": "OP_HASH160 d03ba90d4de5407703328b117b918edc7448bf7d OP_EQUAL", "type": "scripthash"}, "value": 3.15709841, "n": 2}, {"scriptPubKey": {"reqSigs": 1, "hex": "76a91402a344e4aa93126f954066047aee9e752a3058e188ac", "addresses": ["1EwwXCGGAznJuzCsYcd98YmsaXtezvQqv"], "asm": "OP_DUP OP_HASH160 02a344e4aa93126f954066047aee9e752a3058e1 OP_EQUALVERIFY OP_CHECKSIG", "type": "pubkeyhash"}, "value": 0.01545769, "n": 3}], "hex": "010000000001017e959c0e662241b83d5eb0df24195558380855256a4d3dad8f3e55c54dc8eebe03000000232200205bb5c63ca0809a3626b6d52afb4efae9709675a5b7c2c89457e8e385db2e1e6dffffffff04589800000000000017a914caeadb7d66af908eec6fd48a4496337a5e58194c87b09e15000000000017a91435c717587d76202010eac64c0009fe1ef34313b4879159d1120000000017a914d03ba90d4de5407703328b117b918edc7448bf7d8729961700000000001976a91402a344e4aa93126f954066047aee9e752a3058e188ac040047304402204d59699467e751e098e4788c8d8988e385f34c370f1a465a0f066c4ad2b621c902204f91fb97cba4336c0c7b11d2718bea5cee89793633d215193f3a10248b77020a014830450221008c9f704c5eb7ca5229c02f8513bb91fd2ac36225d448fd1e660354098b554fe002204ec6d00903e8238124a934cb07847c407162440b59f3dbc44bf1a2f8876849cc0169522103da88f46ac682e4df3019a0e7c574bc43d21028c157a2e799c4bbdd7fa8d7c02121025db000520286c16057477ced1624538e9a0fc9f3043e1cc51111592f8e94c0dd2102d21fd8ab78eaf5a13898c68f9e173e23d663de7f3f3ba550e1d801278ebed16353ae00000000", "vin": [{"txinwitness": ["", "304402204d59699467e751e098e4788c8d8988e385f34c370f1a465a0f066c4ad2b621c902204f91fb97cba4336c0c7b11d2718bea5cee89793633d215193f3a10248b77020a01", "30450221008c9f704c5eb7ca5229c02f8513bb91fd2ac36225d448fd1e660354098b554fe002204ec6d00903e8238124a934cb07847c407162440b59f3dbc44bf1a2f8876849cc01", "522103da88f46ac682e4df3019a0e7c574bc43d21028c157a2e799c4bbdd7fa8d7c02121025db000520286c16057477ced1624538e9a0fc9f3043e1cc51111592f8e94c0dd2102d21fd8ab78eaf5a13898c68f9e173e23d663de7f3f3ba550e1d801278ebed16353ae"], "sequence": 4294967295, "scriptSig": {"hex": "2200205bb5c63ca0809a3626b6d52afb4efae9709675a5b7c2c89457e8e385db2e1e6d", "asm": "00205bb5c63ca0809a3626b6d52afb4efae9709675a5b7c2c89457e8e385db2e1e6d"}, "vout": 3, "txid": "beeec84dc5553e8fad3d4d6a2555083858551924dfb05e3db84122660e9c957e"}], "txid": "223a65076f1206b175478f03ff60e6a8e44d6bb28fc35c0465f01a69127e1c93", "blocktime": 1537873282, "version": 1, "confirmations": 11484, "time": 1537873282, "locktime": 0, "vsize": 280, "size": 471}