{"hash": "22411f80a65a4e0baaba891e182e774bbb0335e83177fe56f9798e1d8b2714e1", "blockhash": "000000000000000000022b45ed06c6f4ccd3cf7fb5ba4856ebd2e58215665228", "vout": [{"scriptPubKey": {"reqSigs": 1, "hex": "76a914fb80ae9163bfce103c8c4b7b5c039b427db2276888ac", "addresses": ["1Pvpm8FXYyL7fiyrFozN8Ni5Au3pPCMNDH"], "asm": "OP_DUP OP_HASH160 fb80ae9163bfce103c8c4b7b5c039b427db22768 OP_EQUALVERIFY OP_CHECKSIG", "type": "pubkeyhash"}, "value": 0.002617, "n": 0}, {"scriptPubKey": {"reqSigs": 1, "hex": "76a91455bf1b1a8a73c08a3496f399f0d949f84bac028288ac", "addresses": ["18pPNaKYCRqCenXXB1TCMq5kuwjUbfcPaN"], "asm": "OP_DUP OP_HASH160 55bf1b1a8a73c08a3496f399f0d949f84bac0282 OP_EQUALVERIFY OP_CHECKSIG", "type": "pubkeyhash"}, "value": 0.09869619, "n": 1}], "hex": "01000000014600e4b318d2775e62cda680d676439033eff8207ac1d671e86920942486186a010000006a47304402200d5916fc02bae1668b4ee10e453f4542c1641a698f1b272beb771601358c5ddc02203154d133ccd75fe379b97de8e39340665127201f05e0c386a0c57c0bffc161e601210242f8c91b2ca48737e932a27caa50ec8148bc0591a46e6418167732ca36ffd6f5ffffffff0244fe0300000000001976a914fb80ae9163bfce103c8c4b7b5c039b427db2276888ac33999600000000001976a91455bf1b1a8a73c08a3496f399f0d949f84bac028288ac00000000", "vin": [{"sequence": 4294967295, "scriptSig": {"hex": "47304402200d5916fc02bae1668b4ee10e453f4542c1641a698f1b272beb771601358c5ddc02203154d133ccd75fe379b97de8e39340665127201f05e0c386a0c57c0bffc161e601210242f8c91b2ca48737e932a27caa50ec8148bc0591a46e6418167732ca36ffd6f5", "asm": "304402200d5916fc02bae1668b4ee10e453f4542c1641a698f1b272beb771601358c5ddc02203154d133ccd75fe379b97de8e39340665127201f05e0c386a0c57c0bffc161e6[ALL] 0242f8c91b2ca48737e932a27caa50ec8148bc0591a46e6418167732ca36ffd6f5"}, "vout": 1, "txid": "6a188624942069e871d6c17a20f8ef33904376d680a6cd625e77d218b3e40046"}], "txid": "22411f80a65a4e0baaba891e182e774bbb0335e83177fe56f9798e1d8b2714e1", "blocktime": 1537869901, "version": 1, "confirmations": 11522, "time": 1537869901, "locktime": 0, "vsize": 225, "size": 225}