{"hash": "2242ca2896e9e400f9d5eb56ff757aa3ddc4be926accbc15f68e93b74cdc8605", "blockhash": "0000000000000000001f76057863aec43deb6fa401d9628bb513d65a8098bfab", "vout": [{"scriptPubKey": {"reqSigs": 1, "hex": "76a9146c578d2914f3373193ebbc21d9561625d203ec0b88ac", "addresses": ["1AsrrtyhkCVz5FZH2teA7rnfDzkzNXBC76"], "asm": "OP_DUP OP_HASH160 6c578d2914f3373193ebbc21d9561625d203ec0b OP_EQUALVERIFY OP_CHECKSIG", "type": "pubkeyhash"}, "value": 0.00999119, "n": 0}, {"scriptPubKey": {"reqSigs": 1, "hex": "76a9145b35a04895e6cc7fee4489a21629fab197e1576c88ac", "addresses": ["19KGjTuNPeSEkUcXSMuX8GiY1hUNwFktrb"], "asm": "OP_DUP OP_HASH160 5b35a04895e6cc7fee4489a21629fab197e1576c OP_EQUALVERIFY OP_CHECKSIG", "type": "pubkeyhash"}, "value": 0.31179727, "n": 1}], "hex": "020000000581af0d20e14f0e6cbbf3fced3759f2f5a7ad9f0b4eacc95295a2d9431290adca000000006b48304502210095564201ed21553c74bc58fe6d8bb023346f5a638ed6f2011890d436bd62091202206f3bd8b2fc3ed81294fd8597847796d4699cf00349bf9a59facf74cbb477ae32012102c16a387d985689496ed59189e8958b6fc644573a8249d1e77cbe44c0dcda97e9feffffff3865beabfe04f01f54df32bf419990dab6c371e0a1f456fe0f1150caeaceef17020000006a47304402201d20dfaace51359ec0b693f1c7e9ddb81753892e8eb5473c19df324dfbdab9ff02202b85aca70e75137c81e105859a41f18d8982008a389c3ba8c89f1b08cf789ae0012102880948b897bb6b969279965ae5d6917c4c0faebe0fe92863a94567c3448a0415feffffff9d19aeb09b994de8e6b7f3560aad1941b4c50687bc0d3fd729e527bbee9792fb000000006a47304402202ad60a5c1c571408348cb45192b0b96559f0b76632d3a5bb36ca088b993cfd0d022036243bbc4213f6a6b0dafeb56e4841f04ddad89874b3a1e2ed9a4cec34dac615012103ca80df7174d5445b8674855008e4deaf26796a0495467f8d63aa0a5387b29e08feffffff10d62c7e135230b7037ec96dc59d3c04782a67389450c8c70cf94c41db185dcc010000006b48304502210095a3d566d0a486bb952068e18c0db9b0169ea52eb80e288fdcf52aad6d92e558022059e6ef38faddd789b58dea98745527f0fce43ffe19621050fce932c53acb76da012102c6eea3aced23220446e12e6246a6f175bbefbae04a7a01efc2d636ab2e37551afeffffff1657013f2fa8b6ea1380fbe9cdec0781d835cc4a031a43ed033fd7ad2b27f6ee010000006a47304402203db27bc339d327c3886e7342c46dfd542c540d058c6b43d036b34f529773229e02206f42dd9bc3920577861115050bb99ced15c3097fd8958c9ab4bc8d6f9fde52360121036b0ee9ca567d8e043f9d3fbd9ecdc312f280478971c01a0eac23017e48ce3131feffffff02cf3e0f00000000001976a9146c578d2914f3373193ebbc21d9561625d203ec0b88accfc3db01000000001976a9145b35a04895e6cc7fee4489a21629fab197e1576c88ac13490800", "vin": [{"sequence": 4294967294, "scriptSig": {"hex": "48304502210095564201ed21553c74bc58fe6d8bb023346f5a638ed6f2011890d436bd62091202206f3bd8b2fc3ed81294fd8597847796d4699cf00349bf9a59facf74cbb477ae32012102c16a387d985689496ed59189e8958b6fc644573a8249d1e77cbe44c0dcda97e9", "asm": "304502210095564201ed21553c74bc58fe6d8bb023346f5a638ed6f2011890d436bd62091202206f3bd8b2fc3ed81294fd8597847796d4699cf00349bf9a59facf74cbb477ae32[ALL] 02c16a387d985689496ed59189e8958b6fc644573a8249d1e77cbe44c0dcda97e9"}, "vout": 0, "txid": "caad901243d9a29552c9ac4e0b9fada7f5f25937edfcf3bb6c0e4fe1200daf81"}, {"sequence": 4294967294, "scriptSig": {"hex": "47304402201d20dfaace51359ec0b693f1c7e9ddb81753892e8eb5473c19df324dfbdab9ff02202b85aca70e75137c81e105859a41f18d8982008a389c3ba8c89f1b08cf789ae0012102880948b897bb6b969279965ae5d6917c4c0faebe0fe92863a94567c3448a0415", "asm": "304402201d20dfaace51359ec0b693f1c7e9ddb81753892e8eb5473c19df324dfbdab9ff02202b85aca70e75137c81e105859a41f18d8982008a389c3ba8c89f1b08cf789ae0[ALL] 02880948b897bb6b969279965ae5d6917c4c0faebe0fe92863a94567c3448a0415"}, "vout": 2, "txid": "17efceeaca50110ffe56f4a1e071c3b6da909941bf32df541ff004feabbe6538"}, {"sequence": 4294967294, "scriptSig": {"hex": "47304402202ad60a5c1c571408348cb45192b0b96559f0b76632d3a5bb36ca088b993cfd0d022036243bbc4213f6a6b0dafeb56e4841f04ddad89874b3a1e2ed9a4cec34dac615012103ca80df7174d5445b8674855008e4deaf26796a0495467f8d63aa0a5387b29e08", "asm": "304402202ad60a5c1c571408348cb45192b0b96559f0b76632d3a5bb36ca088b993cfd0d022036243bbc4213f6a6b0dafeb56e4841f04ddad89874b3a1e2ed9a4cec34dac615[ALL] 03ca80df7174d5445b8674855008e4deaf26796a0495467f8d63aa0a5387b29e08"}, "vout": 0, "txid": "fb9297eebb27e529d73f0dbc8706c5b44119ad0a56f3b7e6e84d999bb0ae199d"}, {"sequence": 4294967294, "scriptSig": {"hex": "48304502210095a3d566d0a486bb952068e18c0db9b0169ea52eb80e288fdcf52aad6d92e558022059e6ef38faddd789b58dea98745527f0fce43ffe19621050fce932c53acb76da012102c6eea3aced23220446e12e6246a6f175bbefbae04a7a01efc2d636ab2e37551a", "asm": "304502210095a3d566d0a486bb952068e18c0db9b0169ea52eb80e288fdcf52aad6d92e558022059e6ef38faddd789b58dea98745527f0fce43ffe19621050fce932c53acb76da[ALL] 02c6eea3aced23220446e12e6246a6f175bbefbae04a7a01efc2d636ab2e37551a"}, "vout": 1, "txid": "cc5d18db414cf90cc7c8509438672a78043c9dc56dc97e03b73052137e2cd610"}, {"sequence": 4294967294, "scriptSig": {"hex": "47304402203db27bc339d327c3886e7342c46dfd542c540d058c6b43d036b34f529773229e02206f42dd9bc3920577861115050bb99ced15c3097fd8958c9ab4bc8d6f9fde52360121036b0ee9ca567d8e043f9d3fbd9ecdc312f280478971c01a0eac23017e48ce3131", "asm": "304402203db27bc339d327c3886e7342c46dfd542c540d058c6b43d036b34f529773229e02206f42dd9bc3920577861115050bb99ced15c3097fd8958c9ab4bc8d6f9fde5236[ALL] 036b0ee9ca567d8e043f9d3fbd9ecdc312f280478971c01a0eac23017e48ce3131"}, "vout": 1, "txid": "eef6272badd73f03ed431a034acc35d88107eccde9fb8013eab6a82f3f015716"}], "txid": "2242ca2896e9e400f9d5eb56ff757aa3ddc4be926accbc15f68e93b74cdc8605", "blocktime": 1537873891, "version": 2, "confirmations": 11478, "time": 1537873891, "locktime": 542995, "vsize": 815, "size": 815}