{"hash": "557e1abf82b6da4611df850ed356d0e9f0c0b2626c1580e7fa46e9e0e3f6ac99", "blockhash": "0000000000000000000dcc0f55137456b1a82d3642486a52398922ac4d620174", "vout": [{"scriptPubKey": {"reqSigs": 1, "hex": "76a914e2e935237afbbfe00bd99aaa81246024105058c788ac", "addresses": ["1Mgo5uCE8xnPyzaSukNvFp2KYQNQKmaVky"], "asm": "OP_DUP OP_HASH160 e2e935237afbbfe00bd99aaa81246024105058c7 OP_EQUALVERIFY OP_CHECKSIG", "type": "pubkeyhash"}, "value": 0.0043246, "n": 0}, {"scriptPubKey": {"reqSigs": 1, "hex": "a9145613c92addd8f1d4c49ef532dc4d8c876413101987", "addresses": ["39Y9jnPXCEz3gqTXgxGzG2cH8oP633D95h"], "asm": "OP_HASH160 5613c92addd8f1d4c49ef532dc4d8c8764131019 OP_EQUAL", "type": "scripthash"}, "value": 0.01000537, "n": 1}], "hex": "020000000001032f061a085c7aa629b3441f76ba7724899769c96971285f5077fa65d1b17366bd0f00000017160014f738f4f68571ee2cb0b3d2340346a1ae0d96ff97feffffff524887881160cc207259a73b5b674de44a57524209773ed12683343a63500967010000001716001434933b1beec5c08267f768bf47d531715e89a354feffffffd2029ba52e4721f562f1bafb7d4c419a04abf4e502b5f04804c0fdfd4da94ee800000000171600148c227a8c8712f8d40e0b78a68360f054f355edf5feffffff024c990600000000001976a914e2e935237afbbfe00bd99aaa81246024105058c788ac59440f000000000017a9145613c92addd8f1d4c49ef532dc4d8c8764131019870247304402202fe936d45ee49e0c9a3d0b9494ed94c705265eaea4ace6d6cb557a02776e9934022047adc66eb2ef3d2b358c860248e97fb3eb6586007e7fe3a150c0fb64c3cbbd2a012102cc5b86317a106ba7f0a85c0002bae19186386b1d5010f81635053c75d3d8c60502483045022100f87ab7f7787a175037056b9a325b42c04cdd368309de75fbee585ed4758febaf02204b3054f3665374220e73ee100f2d968e181f874a6a5a9d97e21d9f960a56ea09012102620199fcbcdd220960d881b85b5645dbedc8225de990204be1fc10825341c31e0247304402205cf7728ffb79c7c1ab50e49edaddb24bfae1c6b319a9e2d1f4a2ef2472e0fbb902202c7bd12334351dd6c3ac1f6f745a92a2bc7933f82024db52aeccb50342c3931b01210228eb096aeca061bb3a231d2754d72046598bec13d680bdf412c23626298670110c490800", "vin": [{"txinwitness": ["304402202fe936d45ee49e0c9a3d0b9494ed94c705265eaea4ace6d6cb557a02776e9934022047adc66eb2ef3d2b358c860248e97fb3eb6586007e7fe3a150c0fb64c3cbbd2a01", "02cc5b86317a106ba7f0a85c0002bae19186386b1d5010f81635053c75d3d8c605"], "sequence": 4294967294, "scriptSig": {"hex": "160014f738f4f68571ee2cb0b3d2340346a1ae0d96ff97", "asm": "0014f738f4f68571ee2cb0b3d2340346a1ae0d96ff97"}, "vout": 15, "txid": "bd6673b1d165fa77505f287169c96997892477ba761f44b329a67a5c081a062f"}, {"txinwitness": ["3045022100f87ab7f7787a175037056b9a325b42c04cdd368309de75fbee585ed4758febaf02204b3054f3665374220e73ee100f2d968e181f874a6a5a9d97e21d9f960a56ea0901", "02620199fcbcdd220960d881b85b5645dbedc8225de990204be1fc10825341c31e"], "sequence": 4294967294, "scriptSig": {"hex": "16001434933b1beec5c08267f768bf47d531715e89a354", "asm": "001434933b1beec5c08267f768bf47d531715e89a354"}, "vout": 1, "txid": "670950633a348326d13e77094252574ae44d675b3ba7597220cc601188874852"}, {"txinwitness": ["304402205cf7728ffb79c7c1ab50e49edaddb24bfae1c6b319a9e2d1f4a2ef2472e0fbb902202c7bd12334351dd6c3ac1f6f745a92a2bc7933f82024db52aeccb50342c3931b01", "0228eb096aeca061bb3a231d2754d72046598bec13d680bdf412c2362629867011"], "sequence": 4294967294, "scriptSig": {"hex": "1600148c227a8c8712f8d40e0b78a68360f054f355edf5", "asm": "00148c227a8c8712f8d40e0b78a68360f054f355edf5"}, "vout": 0, "txid": "e84ea94dfdfdc00448f0b502e5f4ab049a414c7dfbbaf162f521472ea59b02d2"}], "txid": "22470f8ca359f5b48f3e6b74ec063ceb602959599cbb31702ce8c94322a3695b", "blocktime": 1537870268, "version": 2, "confirmations": 11519, "time": 1537870268, "locktime": 542988, "vsize": 349, "size": 592}