{"hash": "224722f805688483170c32a9c235eab8d678bb6ed62ec033fe6b2e4d6cf7e193", "blockhash": "000000000000000000022b45ed06c6f4ccd3cf7fb5ba4856ebd2e58215665228", "vout": [{"scriptPubKey": {"reqSigs": 1, "hex": "76a914d10b0e47f4f26b111b63f726d75787fad8bca5b188ac", "addresses": ["1L4KUGCNDd53TcGzZKk9ThmYfuuoQW57DP"], "asm": "OP_DUP OP_HASH160 d10b0e47f4f26b111b63f726d75787fad8bca5b1 OP_EQUALVERIFY OP_CHECKSIG", "type": "pubkeyhash"}, "value": 0.09999213, "n": 0}], "hex": "0100000001332943789a697bd714c3855acaf96031682ed81a3c5690ad6562fbcb349b8304040000008a47304402207415e88e84d6476ce5584e6f440e025dacfdae42fd16f65fe3d5d252f980354302203d444454f20aac30674946c9fe2b49dc4da0a86a461d7a6da5682681779e6b3e0141046ae3c3d5f573ac9e04cc84967cf33cfa1ae112f5289d38a8d34d2f4766a42f1a131d7430a2ad179c864b355ab1f0b613603b61c6b05579b275ae7fe38ecf0e36feffffff016d939800000000001976a914d10b0e47f4f26b111b63f726d75787fad8bca5b188ac0b490800", "vin": [{"sequence": 4294967294, "scriptSig": {"hex": "47304402207415e88e84d6476ce5584e6f440e025dacfdae42fd16f65fe3d5d252f980354302203d444454f20aac30674946c9fe2b49dc4da0a86a461d7a6da5682681779e6b3e0141046ae3c3d5f573ac9e04cc84967cf33cfa1ae112f5289d38a8d34d2f4766a42f1a131d7430a2ad179c864b355ab1f0b613603b61c6b05579b275ae7fe38ecf0e36", "asm": "304402207415e88e84d6476ce5584e6f440e025dacfdae42fd16f65fe3d5d252f980354302203d444454f20aac30674946c9fe2b49dc4da0a86a461d7a6da5682681779e6b3e[ALL] 046ae3c3d5f573ac9e04cc84967cf33cfa1ae112f5289d38a8d34d2f4766a42f1a131d7430a2ad179c864b355ab1f0b613603b61c6b05579b275ae7fe38ecf0e36"}, "vout": 4, "txid": "04839b34cbfb6265ad90563c1ad82e683160f9ca5a85c314d77b699a78432933"}], "txid": "224722f805688483170c32a9c235eab8d678bb6ed62ec033fe6b2e4d6cf7e193", "blocktime": 1537869901, "version": 1, "confirmations": 11523, "time": 1537869901, "locktime": 542987, "vsize": 223, "size": 223}