{"hash": "224cdddf9ee43305bab3a3dd59a0745d1740bd88c70cd0cf1e21c1dab12ed599", "blockhash": "0000000000000000001f76057863aec43deb6fa401d9628bb513d65a8098bfab", "vout": [{"scriptPubKey": {"reqSigs": 1, "hex": "76a914cf51796c332dd4ce0948e612893a69d990a5235388ac", "addresses": ["1KuCUeJ5Ts5CdYjubDzSY29rv7evB76ShR"], "asm": "OP_DUP OP_HASH160 cf51796c332dd4ce0948e612893a69d990a52353 OP_EQUALVERIFY OP_CHECKSIG", "type": "pubkeyhash"}, "value": 0.03292838, "n": 0}], "hex": "01000000013df04bf98f8ee147e21b12a01d44b4baf11c5bb1211c709a4b69b63d89ccaf37010000006a47304402204ad5c732ed191c48dfecfb93f5e44c7cec29e3e990dd68d03ad30aba95ddb73502206010f8da7abc4c461c3d1dfa3bafaeb0c7ae52132d247ce6096355aea612262c01210279a61fdc8203e8ed1200e415e83e8236a61f4c7569ebd598a36de14078f67928fdffffff01a63e3200000000001976a914cf51796c332dd4ce0948e612893a69d990a5235388ac14490800", "vin": [{"sequence": 4294967293, "scriptSig": {"hex": "47304402204ad5c732ed191c48dfecfb93f5e44c7cec29e3e990dd68d03ad30aba95ddb73502206010f8da7abc4c461c3d1dfa3bafaeb0c7ae52132d247ce6096355aea612262c01210279a61fdc8203e8ed1200e415e83e8236a61f4c7569ebd598a36de14078f67928", "asm": "304402204ad5c732ed191c48dfecfb93f5e44c7cec29e3e990dd68d03ad30aba95ddb73502206010f8da7abc4c461c3d1dfa3bafaeb0c7ae52132d247ce6096355aea612262c[ALL] 0279a61fdc8203e8ed1200e415e83e8236a61f4c7569ebd598a36de14078f67928"}, "vout": 1, "txid": "37afcc893db6694b9a701c21b15b1cf1bab4441da0121be247e18e8ff94bf03d"}], "txid": "224cdddf9ee43305bab3a3dd59a0745d1740bd88c70cd0cf1e21c1dab12ed599", "blocktime": 1537873891, "version": 1, "confirmations": 11478, "time": 1537873891, "locktime": 542996, "vsize": 191, "size": 191}