{"hash": "0dd04ed591cf7c82ddc0228666dcd5403ebe7d629987df612b97c78294452b4f", "blockhash": "0000000000000000001f0ddff1eddb255c1121bcd4da4f1bc9a0da00cae72433", "vout": [{"scriptPubKey": {"reqSigs": 1, "hex": "a914854989ff59b22f3af4aa4b68425ddadc6f8bd4de87", "addresses": ["3Dqmte5igcwvKNqTeAgeLUhbweQMy6RCY7"], "asm": "OP_HASH160 854989ff59b22f3af4aa4b68425ddadc6f8bd4de OP_EQUAL", "type": "scripthash"}, "value": 5.6170805, "n": 0}, {"scriptPubKey": {"reqSigs": 1, "hex": "a914baa390d2487ad6b592ff83bd9b67fbab5b79285487", "addresses": ["3JhsYy9bCbUKnGhgCHRCK122FQtqmrgwQJ"], "asm": "OP_HASH160 baa390d2487ad6b592ff83bd9b67fbab5b792854 OP_EQUAL", "type": "scripthash"}, "value": 0.01, "n": 1}], "hex": "02000000000101daff72bb4562f5501ad9cb109de492a33d916f094579826b25f5e9215ad852320000000017160014239365590cb1dbe4be185f70e8064e83815303b2feffffff0212fc7a210000000017a914854989ff59b22f3af4aa4b68425ddadc6f8bd4de8740420f000000000017a914baa390d2487ad6b592ff83bd9b67fbab5b792854870247304402206f93cb68dc11aaa089ddb660f4784fb3b0a691f9b0581856fad22006d0e3c87b02204dda5d9d8c79614564b9f2ab189d82513379c08302707a9e48e49ab211a3be4601210343c525857744e425fc772e246c7986297ab83f47807b6a81eb9405323bf0623e10490800", "vin": [{"txinwitness": ["304402206f93cb68dc11aaa089ddb660f4784fb3b0a691f9b0581856fad22006d0e3c87b02204dda5d9d8c79614564b9f2ab189d82513379c08302707a9e48e49ab211a3be4601", "0343c525857744e425fc772e246c7986297ab83f47807b6a81eb9405323bf0623e"], "sequence": 4294967294, "scriptSig": {"hex": "160014239365590cb1dbe4be185f70e8064e83815303b2", "asm": "0014239365590cb1dbe4be185f70e8064e83815303b2"}, "vout": 0, "txid": "3252d85a21e9f5256b827945096f913da392e49d10cbd91a50f56245bb72ffda"}], "txid": "224e476a642abf63791ec670357aff4ad5e7c4051e54ecc782c051b27b5da073", "blocktime": 1537872018, "version": 2, "confirmations": 11489, "time": 1537872018, "locktime": 542992, "vsize": 166, "size": 247}