{"hash": "2252d12d86d152a8cb96617978194f7cea0ad510d5a21e4c27a85424fed21084", "blockhash": "0000000000000000001cda96e906b7601b7a6fb1a3b62bca570a9e5d8f4b3de1", "vout": [{"scriptPubKey": {"reqSigs": 1, "hex": "76a914916475a8f2e92489796e6d682c167374a52ef1c888ac", "addresses": ["1EFmKsYUsSChHNwMddsKgx4s5Yjbm13JUz"], "asm": "OP_DUP OP_HASH160 916475a8f2e92489796e6d682c167374a52ef1c8 OP_EQUALVERIFY OP_CHECKSIG", "type": "pubkeyhash"}, "value": 0.00495943, "n": 0}, {"scriptPubKey": {"type": "nulldata", "hex": "6a146f6d6e69000000000000001f000000020abb9480", "asm": "OP_RETURN 6f6d6e69000000000000001f000000020abb9480"}, "value": 0.0, "n": 1}, {"scriptPubKey": {"reqSigs": 1, "hex": "76a91488d924f51033b74a895863a5fb57fd545529df7d88ac", "addresses": ["1DUb2YYbQA1jjaNYzVXLZ7ZioEhLXtbUru"], "asm": "OP_DUP OP_HASH160 88d924f51033b74a895863a5fb57fd545529df7d OP_EQUALVERIFY OP_CHECKSIG", "type": "pubkeyhash"}, "value": 5.46e-06, "n": 2}], "hex": "010000000196ccd4f05e988a0a5af6355a7bb9b6e2cad096a5ca9ed95e67ec9bf9da2ce980000000006b483045022100b89d79247cc8d585e4c2a039a7f5aef55b466972b41b9d43e37202db34061e2802202b5c1d5bd01f2c1bab69a493c1c4afe8efcd9a641a302b327aad0f67bd7eab70012103d4fdb0b8b5bcc013d31142bc1301dd00869c8a594776f4064ad330ae9b41bcd2feffffff0347910700000000001976a914916475a8f2e92489796e6d682c167374a52ef1c888ac0000000000000000166a146f6d6e69000000000000001f000000020abb948022020000000000001976a91488d924f51033b74a895863a5fb57fd545529df7d88ac13490800", "vin": [{"sequence": 4294967294, "scriptSig": {"hex": "483045022100b89d79247cc8d585e4c2a039a7f5aef55b466972b41b9d43e37202db34061e2802202b5c1d5bd01f2c1bab69a493c1c4afe8efcd9a641a302b327aad0f67bd7eab70012103d4fdb0b8b5bcc013d31142bc1301dd00869c8a594776f4064ad330ae9b41bcd2", "asm": "3045022100b89d79247cc8d585e4c2a039a7f5aef55b466972b41b9d43e37202db34061e2802202b5c1d5bd01f2c1bab69a493c1c4afe8efcd9a641a302b327aad0f67bd7eab70[ALL] 03d4fdb0b8b5bcc013d31142bc1301dd00869c8a594776f4064ad330ae9b41bcd2"}, "vout": 0, "txid": "80e92cdaf99bec675ed99ecaa596d0cae2b6b97b5a35f65a0a8a985ef0d4cc96"}], "txid": "2252d12d86d152a8cb96617978194f7cea0ad510d5a21e4c27a85424fed21084", "blocktime": 1537873282, "version": 1, "confirmations": 11481, "time": 1537873282, "locktime": 542995, "vsize": 257, "size": 257}