{"hash": "714160d94dae8fef1d6fece1d2eac3dc427b2d5e4a2b2f1439f837ef2d32ed4b", "blockhash": "0000000000000000001f76057863aec43deb6fa401d9628bb513d65a8098bfab", "vout": [{"scriptPubKey": {"reqSigs": 1, "hex": "a914b92bfbf0e53037388ee7dd04bab34d8d60cda9f787", "addresses": ["3Ja7d71BbK3vwbvgcb73NzPgfX1r4PMkUT"], "asm": "OP_HASH160 b92bfbf0e53037388ee7dd04bab34d8d60cda9f7 OP_EQUAL", "type": "scripthash"}, "value": 0.0415, "n": 0}, {"scriptPubKey": {"reqSigs": 1, "hex": "a91481b9f55030c8c518fdd64a09844c011888d8cb7187", "addresses": ["3DWwrtvC8XkesxfrzkDp6i6P88ChPkVYAf"], "asm": "OP_HASH160 81b9f55030c8c518fdd64a09844c011888d8cb71 OP_EQUAL", "type": "scripthash"}, "value": 0.04614939, "n": 1}], "hex": "02000000000101ab12bf460a4ac66155988a73d02bfb4114ada6d3056d8ae9852fe0b8c3e524c20100000017160014690437beb318dcac24256e2823e10bcfe2320532feffffff02f0523f000000000017a914b92bfbf0e53037388ee7dd04bab34d8d60cda9f7871b6b46000000000017a91481b9f55030c8c518fdd64a09844c011888d8cb71870247304402206702dc444904d470123064e72d10a5477b1f98f94ae91d4306daba3f5930692c022038c2eaefc3a3b9e8fc38533eb025f5209e5ce68d5adc4360d5c8630f8004e5d60121027470df9d9d57dec4fac01b2ce5450ecc72193d90aa622a66585c607769cacbf314490800", "vin": [{"txinwitness": ["304402206702dc444904d470123064e72d10a5477b1f98f94ae91d4306daba3f5930692c022038c2eaefc3a3b9e8fc38533eb025f5209e5ce68d5adc4360d5c8630f8004e5d601", "027470df9d9d57dec4fac01b2ce5450ecc72193d90aa622a66585c607769cacbf3"], "sequence": 4294967294, "scriptSig": {"hex": "160014690437beb318dcac24256e2823e10bcfe2320532", "asm": "0014690437beb318dcac24256e2823e10bcfe2320532"}, "vout": 1, "txid": "c224e5c3b8e02f85e98a6d05d3a6ad1441fb2bd0738a985561c64a0a46bf12ab"}], "txid": "225305c2d03b9df6f5fd382bc02828312ced9a129a29f550c3bd8fe20b88bde2", "blocktime": 1537873891, "version": 2, "confirmations": 11479, "time": 1537873891, "locktime": 542996, "vsize": 166, "size": 247}