{"hash": "22541f4f31e2d37810907ddfdabc8afe96057ec6be605211b306dc5a3f546c08", "blockhash": "00000000000000000024a2167bbff67b0be802c0b01cdd79e6331c2be6459f87", "vout": [{"scriptPubKey": {"reqSigs": 1, "hex": "a914f04e58c08e3d80a239ea742b84866aae3e20f07987", "addresses": ["3PbdxCvX9PfBxveD2ANYeeBXMWBUd8pzsf"], "asm": "OP_HASH160 f04e58c08e3d80a239ea742b84866aae3e20f079 OP_EQUAL", "type": "scripthash"}, "value": 0.032, "n": 0}, {"scriptPubKey": {"reqSigs": 1, "hex": "76a914e02e98ba8de9b5e484cc31b67210b682a008c22688ac", "addresses": ["1MSNBZP8pW1seGaRm7ZYQ1tsC3wX7HD8D6"], "asm": "OP_DUP OP_HASH160 e02e98ba8de9b5e484cc31b67210b682a008c226 OP_EQUALVERIFY OP_CHECKSIG", "type": "pubkeyhash"}, "value": 0.09970278, "n": 1}], "hex": "0100000001ad56e47be064fc5b347c9f975dd27fed86dc05d9dee0e37d3b598e29b2603934010000006b4830450221008bacad66510d08b387a561fbd3d9f9487dcdf92c8e8bfd1bfb168980ffd0402f02201ae18238ac904b46e2a6069e538fa7b0436d67e2b1bf79246c72529ea981948a0121035d490708aa542625e77255adf1852990d33fc0239ca65fcc04544ac24dbfa508ffffffff0200d430000000000017a914f04e58c08e3d80a239ea742b84866aae3e20f0798766229800000000001976a914e02e98ba8de9b5e484cc31b67210b682a008c22688ac00000000", "vin": [{"sequence": 4294967295, "scriptSig": {"hex": "4830450221008bacad66510d08b387a561fbd3d9f9487dcdf92c8e8bfd1bfb168980ffd0402f02201ae18238ac904b46e2a6069e538fa7b0436d67e2b1bf79246c72529ea981948a0121035d490708aa542625e77255adf1852990d33fc0239ca65fcc04544ac24dbfa508", "asm": "30450221008bacad66510d08b387a561fbd3d9f9487dcdf92c8e8bfd1bfb168980ffd0402f02201ae18238ac904b46e2a6069e538fa7b0436d67e2b1bf79246c72529ea981948a[ALL] 035d490708aa542625e77255adf1852990d33fc0239ca65fcc04544ac24dbfa508"}, "vout": 1, "txid": "343960b2298e593b7de3e0ded905dc86ed7fd25d979f7c345bfc64e07be456ad"}], "txid": "22541f4f31e2d37810907ddfdabc8afe96057ec6be605211b306dc5a3f546c08", "blocktime": 1537870564, "version": 1, "confirmations": 11515, "time": 1537870564, "locktime": 0, "vsize": 224, "size": 224}