{"hash": "2256db94052302f1dc82cb089f89b1deb5243037712bf72fca17c510418fa04b", "blockhash": "0000000000000000000dcc0f55137456b1a82d3642486a52398922ac4d620174", "vout": [{"scriptPubKey": {"reqSigs": 1, "hex": "76a9142cd482162d7029bf4247749bf66605a76bd12c9688ac", "addresses": ["1563JmQsWRaamN9u9tTYmqJiN7t2XPR26A"], "asm": "OP_DUP OP_HASH160 2cd482162d7029bf4247749bf66605a76bd12c96 OP_EQUALVERIFY OP_CHECKSIG", "type": "pubkeyhash"}, "value": 0.1, "n": 0}, {"scriptPubKey": {"reqSigs": 1, "hex": "76a914a9175260a1400d43981eb0cfca3d58e0e07964ed88ac", "addresses": ["1GR58r3HUHNtgsxFmDEb2qtkniHF8KtGRd"], "asm": "OP_DUP OP_HASH160 a9175260a1400d43981eb0cfca3d58e0e07964ed OP_EQUALVERIFY OP_CHECKSIG", "type": "pubkeyhash"}, "value": 0.1, "n": 1}, {"scriptPubKey": {"reqSigs": 1, "hex": "76a914728dec2d5312673ec3577b06726aca6d7bfbc20d88ac", "addresses": ["1BSi3peRUvCHTE6w8UoKLtAQK6ceZpJTJL"], "asm": "OP_DUP OP_HASH160 728dec2d5312673ec3577b06726aca6d7bfbc20d OP_EQUALVERIFY OP_CHECKSIG", "type": "pubkeyhash"}, "value": 0.11613108, "n": 2}], "hex": "01000000017f38f54365f71dab06a48715dc6e7b1255b3577a43d97b0315745007190a8926010000006a473044022011b02d54efa89de725b018280f4544a02ae1c28c832356b6201d6ad75d38d019022049a0083faf3d2f5268e5877e8e3ae14c353c3471f7377f4c2c026801fb82f5010121036c9a62cf5750a3d474a3886d341e3088faf506efaaf3a08e143f5b96aecb9b94fdffffff0380969800000000001976a9142cd482162d7029bf4247749bf66605a76bd12c9688ac80969800000000001976a914a9175260a1400d43981eb0cfca3d58e0e07964ed88acb433b100000000001976a914728dec2d5312673ec3577b06726aca6d7bfbc20d88ac0c490800", "vin": [{"sequence": 4294967293, "scriptSig": {"hex": "473044022011b02d54efa89de725b018280f4544a02ae1c28c832356b6201d6ad75d38d019022049a0083faf3d2f5268e5877e8e3ae14c353c3471f7377f4c2c026801fb82f5010121036c9a62cf5750a3d474a3886d341e3088faf506efaaf3a08e143f5b96aecb9b94", "asm": "3044022011b02d54efa89de725b018280f4544a02ae1c28c832356b6201d6ad75d38d019022049a0083faf3d2f5268e5877e8e3ae14c353c3471f7377f4c2c026801fb82f501[ALL] 036c9a62cf5750a3d474a3886d341e3088faf506efaaf3a08e143f5b96aecb9b94"}, "vout": 1, "txid": "26890a1907507415037bd9437a57b355127b6edc1587a406ab1df76543f5387f"}], "txid": "2256db94052302f1dc82cb089f89b1deb5243037712bf72fca17c510418fa04b", "blocktime": 1537870268, "version": 1, "confirmations": 11517, "time": 1537870268, "locktime": 542988, "vsize": 259, "size": 259}