{"hash": "225e4306142f6617dfba8edc2b6ec0e66cf2e768774fb5bc6d492e6408cb34a5", "blockhash": "0000000000000000000baef3f32e3676a92c3b2e5da21b426e4f302fc371ce76", "vout": [{"scriptPubKey": {"reqSigs": 1, "hex": "76a914a25dec4d0011064ef106a983c39c7a540699f22088ac", "addresses": ["1FoWyxwPXuj4C6abqwhjDWdz6D4PZgYRjA"], "asm": "OP_DUP OP_HASH160 a25dec4d0011064ef106a983c39c7a540699f220 OP_EQUALVERIFY OP_CHECKSIG", "type": "pubkeyhash"}, "value": 0.01985564, "n": 0}, {"scriptPubKey": {"type": "nulldata", "hex": "6a146f6d6e69000000000000001f0000005d0e303980", "asm": "OP_RETURN 6f6d6e69000000000000001f0000005d0e303980"}, "value": 0.0, "n": 1}, {"scriptPubKey": {"reqSigs": 1, "hex": "76a9144018a16f5d3476412dc348068d3bb05cf857077c88ac", "addresses": ["16qukeDR2s93kz3NnZmixzCQph9P7D3Kj9"], "asm": "OP_DUP OP_HASH160 4018a16f5d3476412dc348068d3bb05cf857077c OP_EQUALVERIFY OP_CHECKSIG", "type": "pubkeyhash"}, "value": 5.46e-06, "n": 2}], "hex": "01000000010b73ba9033ddbf3eb646b0fc4debcb19da438874df9c3246048e854a007080f7020000006b483045022100c3a4e13e094cae0484e4a1248962302b201ae26960e04600350aa58a04b5791d022079ef0e2188de5f46b0c493b3c0a8e27a6e46aa21d1997dc177a311500c480f49012103da5bac7b36d5aa38f531c6b9601e21bb598a4b6716ebed38b009a55dabde9440feffffff031c4c1e00000000001976a914a25dec4d0011064ef106a983c39c7a540699f22088ac0000000000000000166a146f6d6e69000000000000001f0000005d0e30398022020000000000001976a9144018a16f5d3476412dc348068d3bb05cf857077c88ac17490800", "vin": [{"sequence": 4294967294, "scriptSig": {"hex": "483045022100c3a4e13e094cae0484e4a1248962302b201ae26960e04600350aa58a04b5791d022079ef0e2188de5f46b0c493b3c0a8e27a6e46aa21d1997dc177a311500c480f49012103da5bac7b36d5aa38f531c6b9601e21bb598a4b6716ebed38b009a55dabde9440", "asm": "3045022100c3a4e13e094cae0484e4a1248962302b201ae26960e04600350aa58a04b5791d022079ef0e2188de5f46b0c493b3c0a8e27a6e46aa21d1997dc177a311500c480f49[ALL] 03da5bac7b36d5aa38f531c6b9601e21bb598a4b6716ebed38b009a55dabde9440"}, "vout": 2, "txid": "f78070004a858e0446329cdf748843da19cbeb4dfcb046b63ebfdd3390ba730b"}], "txid": "225e4306142f6617dfba8edc2b6ec0e66cf2e768774fb5bc6d492e6408cb34a5", "blocktime": 1537876114, "version": 1, "confirmations": 11459, "time": 1537876114, "locktime": 542999, "vsize": 257, "size": 257}