{"hash": "2263e13a4a45789dd28c289474cca4fef2d3785a5b9d72af43de8b93e6549ace", "blockhash": "0000000000000000001f76057863aec43deb6fa401d9628bb513d65a8098bfab", "vout": [{"scriptPubKey": {"reqSigs": 1, "hex": "76a91443c479a7e4bada905862e77ffc11c4ca0c1c54f888ac", "addresses": ["17BKeC2YskH5A3FbikGqWZ16de8k5kt6aT"], "asm": "OP_DUP OP_HASH160 43c479a7e4bada905862e77ffc11c4ca0c1c54f8 OP_EQUALVERIFY OP_CHECKSIG", "type": "pubkeyhash"}, "value": 0.04101842, "n": 0}], "hex": "0100000001eebac7d08bb59f1b13b88777c9321e34a0cadcd0a1880b832051e146e6ae4e08010000006b4830450221008c5647e82035dab53c3a14dc6dcfb230c01fd1f58603ce7c3239300c700eb238022030ebe78e13d7da8c5fa2679ce9ff6e1d4f5a38a1bdf9c4ccb84a311c15b54792012102fd8f04f988c6e71a6bdd941241476f9187241f98a54a54b977379e5ae7ffbf9cffffffff01d2963e00000000001976a91443c479a7e4bada905862e77ffc11c4ca0c1c54f888ac00000000", "vin": [{"sequence": 4294967295, "scriptSig": {"hex": "4830450221008c5647e82035dab53c3a14dc6dcfb230c01fd1f58603ce7c3239300c700eb238022030ebe78e13d7da8c5fa2679ce9ff6e1d4f5a38a1bdf9c4ccb84a311c15b54792012102fd8f04f988c6e71a6bdd941241476f9187241f98a54a54b977379e5ae7ffbf9c", "asm": "30450221008c5647e82035dab53c3a14dc6dcfb230c01fd1f58603ce7c3239300c700eb238022030ebe78e13d7da8c5fa2679ce9ff6e1d4f5a38a1bdf9c4ccb84a311c15b54792[ALL] 02fd8f04f988c6e71a6bdd941241476f9187241f98a54a54b977379e5ae7ffbf9c"}, "vout": 1, "txid": "084eaee646e15120830b88a1d0dccaa0341e32c97787b8131b9fb58bd0c7baee"}], "txid": "2263e13a4a45789dd28c289474cca4fef2d3785a5b9d72af43de8b93e6549ace", "blocktime": 1537873891, "version": 1, "confirmations": 11478, "time": 1537873891, "locktime": 0, "vsize": 192, "size": 192}