{"hash": "22690b7581b527db761b8372fb16ba99ea5cd329da508071bcdfe21ea9aa6181", "blockhash": "00000000000000000017f5eb5941039fbcee6240d03bc1f2f8e35350df66a1d8", "vout": [{"scriptPubKey": {"reqSigs": 1, "hex": "a91403f2d32187cef11acfc83a50fcc278bfc2ae437e87", "addresses": ["323tqsqUF5XFp8wzhCFPBoQDTo2dBfke46"], "asm": "OP_HASH160 03f2d32187cef11acfc83a50fcc278bfc2ae437e OP_EQUAL", "type": "scripthash"}, "value": 0.01420648, "n": 0}], "hex": "0100000001cf30aec18221a2a01d8fc9cabd6825527d49241fa69e8c26dd94c0c24d22b47f010000006b4830450221008e43bf753086d021a38c8d1fbebe71920292f24bc88e8de06babdedc837f742b022043de4647c9136c40d80ae1e2c3895757b07ac6c69cb6798a671e0131326dad9a012102031e42830da82d216a4abd14d2243af16124246b2aab1c26d986bac5bf1ffc1dfdffffff0168ad15000000000017a91403f2d32187cef11acfc83a50fcc278bfc2ae437e8715490800", "vin": [{"sequence": 4294967293, "scriptSig": {"hex": "4830450221008e43bf753086d021a38c8d1fbebe71920292f24bc88e8de06babdedc837f742b022043de4647c9136c40d80ae1e2c3895757b07ac6c69cb6798a671e0131326dad9a012102031e42830da82d216a4abd14d2243af16124246b2aab1c26d986bac5bf1ffc1d", "asm": "30450221008e43bf753086d021a38c8d1fbebe71920292f24bc88e8de06babdedc837f742b022043de4647c9136c40d80ae1e2c3895757b07ac6c69cb6798a671e0131326dad9a[ALL] 02031e42830da82d216a4abd14d2243af16124246b2aab1c26d986bac5bf1ffc1d"}, "vout": 1, "txid": "7fb4224dc2c094dd268c9ea61f24497d522568bdcac98f1da0a22182c1ae30cf"}], "txid": "22690b7581b527db761b8372fb16ba99ea5cd329da508071bcdfe21ea9aa6181", "blocktime": 1537874412, "version": 1, "confirmations": 11468, "time": 1537874412, "locktime": 542997, "vsize": 190, "size": 190}