{"hash": "226b5c019c75f72d097cefe3d00611e6f14a6c2eb036ae1c460c9bae4d72430e", "blockhash": "0000000000000000001cda96e906b7601b7a6fb1a3b62bca570a9e5d8f4b3de1", "vout": [{"scriptPubKey": {"reqSigs": 1, "hex": "76a914edf41b5662a2159f9c7548c599804c8e3716e93f88ac", "addresses": ["1NhBaJSaHNdQ8hLuwC8f5HQtfkc6xCizex"], "asm": "OP_DUP OP_HASH160 edf41b5662a2159f9c7548c599804c8e3716e93f OP_EQUALVERIFY OP_CHECKSIG", "type": "pubkeyhash"}, "value": 0.01561405, "n": 0}, {"scriptPubKey": {"reqSigs": 1, "hex": "76a914ac6b16c3297dbaf2dab8b8088ad1ccb65567d36388ac", "addresses": ["1GifWfTjkVy3C67pA5MW7kySDDMHvRaP4d"], "asm": "OP_DUP OP_HASH160 ac6b16c3297dbaf2dab8b8088ad1ccb65567d363 OP_EQUALVERIFY OP_CHECKSIG", "type": "pubkeyhash"}, "value": 0.07005267, "n": 1}], "hex": "0100000001e11421ffe5c69898ae4ce404094a5426470294d6d63d6d2823f7055dfe708b3f010000006b483045022100a18fe695c2b6c0365b0063f47870be6527868f8e6a2877f678f8019b40604aa002207a50c2339a0641f3000df4cbd5037b23e30b1b03cdccc7058a678b7f4e98c54e0121025458a82e8c9510302ccb79e4012ae219bef015186ad5b128ab421544cc66cd25ffffffff023dd31700000000001976a914edf41b5662a2159f9c7548c599804c8e3716e93f88ac53e46a00000000001976a914ac6b16c3297dbaf2dab8b8088ad1ccb65567d36388ac00000000", "vin": [{"sequence": 4294967295, "scriptSig": {"hex": "483045022100a18fe695c2b6c0365b0063f47870be6527868f8e6a2877f678f8019b40604aa002207a50c2339a0641f3000df4cbd5037b23e30b1b03cdccc7058a678b7f4e98c54e0121025458a82e8c9510302ccb79e4012ae219bef015186ad5b128ab421544cc66cd25", "asm": "3045022100a18fe695c2b6c0365b0063f47870be6527868f8e6a2877f678f8019b40604aa002207a50c2339a0641f3000df4cbd5037b23e30b1b03cdccc7058a678b7f4e98c54e[ALL] 025458a82e8c9510302ccb79e4012ae219bef015186ad5b128ab421544cc66cd25"}, "vout": 1, "txid": "3f8b70fe5d05f723286d3dd6d694024726544a0904e44cae9898c6e5ff2114e1"}], "txid": "226b5c019c75f72d097cefe3d00611e6f14a6c2eb036ae1c460c9bae4d72430e", "blocktime": 1537873282, "version": 1, "confirmations": 11484, "time": 1537873282, "locktime": 0, "vsize": 226, "size": 226}