{"hash": "666041dc33a218e773e48ffcb8313ce8d6d6170cc4f60ce40881385bc5f01744", "blockhash": "00000000000000000024a2167bbff67b0be802c0b01cdd79e6331c2be6459f87", "vout": [{"scriptPubKey": {"reqSigs": 1, "hex": "76a9147141cea1c0e1b4643f475550ba5266be2e15106488ac", "addresses": ["1BKrC3DQkZn3QwmW1hBLikZ9PQLG3o3LEW"], "asm": "OP_DUP OP_HASH160 7141cea1c0e1b4643f475550ba5266be2e151064 OP_EQUALVERIFY OP_CHECKSIG", "type": "pubkeyhash"}, "value": 0.0032146, "n": 0}, {"scriptPubKey": {"reqSigs": 1, "hex": "a9143738956038be8a9925b7f5b5e4d31b525049f81987", "addresses": ["36izsasqXGJDDsrufAcXpKu1aCiKJ8nN3n"], "asm": "OP_HASH160 3738956038be8a9925b7f5b5e4d31b525049f819 OP_EQUAL", "type": "scripthash"}, "value": 0.00999657, "n": 1}], "hex": "02000000000102622d9da05f6fbee28d26285dd9138e11c2d9b4b7610a0fe7bd48787beb18a6fd0300000017160014aadcc6ce60c6864a6ac45e0f4a4da3ee4f5657bbfeffffffc98c91749cea60a96af9dce9922df0f65091590b743b7f7a712631f865f3dc630000000017160014128b3143b18cc4d9fff6443cdf850b08b71964f1feffffff02b4e70400000000001976a9147141cea1c0e1b4643f475550ba5266be2e15106488ace9400f000000000017a9143738956038be8a9925b7f5b5e4d31b525049f819870247304402203f8f33a39dab5043d9e52e7f35d636f6ef279f5f624cb9832905a4cc9e0290a802202af4d2af4c4fc133c19ebfaa8293002224d2625832eb5ae12cfd9c310ae58de101210296c38b72937f07e3b1cb347b3d6b2dd5f93542ff8d8886a4241140ba38f2304a0247304402202265d9be36219b7d3fec7f8250dd74732b135e1055c3d885a3763897717f712d02203e8c16daff76fa5d77f99247350cf58af066582df485f4711af08182754d5e4f0121038ec1267814fc868cf2689593d78e5f3ae9fd469cd5c5b23fd577756c85f71cd20d490800", "vin": [{"txinwitness": ["304402203f8f33a39dab5043d9e52e7f35d636f6ef279f5f624cb9832905a4cc9e0290a802202af4d2af4c4fc133c19ebfaa8293002224d2625832eb5ae12cfd9c310ae58de101", "0296c38b72937f07e3b1cb347b3d6b2dd5f93542ff8d8886a4241140ba38f2304a"], "sequence": 4294967294, "scriptSig": {"hex": "160014aadcc6ce60c6864a6ac45e0f4a4da3ee4f5657bb", "asm": "0014aadcc6ce60c6864a6ac45e0f4a4da3ee4f5657bb"}, "vout": 3, "txid": "fda618eb7b7848bde70f0a61b7b4d9c2118e13d95d28268de2be6f5fa09d2d62"}, {"txinwitness": ["304402202265d9be36219b7d3fec7f8250dd74732b135e1055c3d885a3763897717f712d02203e8c16daff76fa5d77f99247350cf58af066582df485f4711af08182754d5e4f01", "038ec1267814fc868cf2689593d78e5f3ae9fd469cd5c5b23fd577756c85f71cd2"], "sequence": 4294967294, "scriptSig": {"hex": "160014128b3143b18cc4d9fff6443cdf850b08b71964f1", "asm": "0014128b3143b18cc4d9fff6443cdf850b08b71964f1"}, "vout": 0, "txid": "63dcf365f83126717a7f3b740b599150f6f02d92e9dcf96aa960ea9c74918cc9"}], "txid": "226e9ad32a6fe5b591facb00487c6b7824f795d8ac0328705e8224bc6762bac5", "blocktime": 1537870564, "version": 2, "confirmations": 11515, "time": 1537870564, "locktime": 542989, "vsize": 258, "size": 420}