{"hash": "14e7788fe49d657053e74d9ef474cc11494e0ee03d20e348028eda09e4cba7e7", "blockhash": "0000000000000000000e13cef7c366c0283d82e591d1acd082e914b08063cdf1", "vout": [{"scriptPubKey": {"reqSigs": 1, "hex": "76a9148dce5fc1e415529841e6909824fe9dd3e626a72788ac", "addresses": ["1DvoWAnFa6f76tfTdUcuDP1yttsDhg2XCw"], "asm": "OP_DUP OP_HASH160 8dce5fc1e415529841e6909824fe9dd3e626a727 OP_EQUALVERIFY OP_CHECKSIG", "type": "pubkeyhash"}, "value": 0.01048, "n": 0}, {"scriptPubKey": {"reqSigs": 1, "hex": "a91440a10cccdff20b7b17ef60d225962919417f0ef287", "addresses": ["37ak6mgQrUXKFvSXeUgF4nqUxZ6CAmEeqi"], "asm": "OP_HASH160 40a10cccdff20b7b17ef60d225962919417f0ef2 OP_EQUAL", "type": "scripthash"}, "value": 0.01092836, "n": 1}], "hex": "02000000000102a6f5317cb28acbb14f757cb87f4148bcb832a9611762370851fa89227e64d9480100000017160014d142abeab23cb2c6383240f1abb4ef93837aec45feffffffcd88b162c48b1069ab2806f08be1fed6f65c9caa25c37a3b7d3ab71be3b66d9f0100000017160014101b5be29e1bf0bd3ea3122673e9da1b1f60d713feffffff02c0fd0f00000000001976a9148dce5fc1e415529841e6909824fe9dd3e626a72788ace4ac10000000000017a91440a10cccdff20b7b17ef60d225962919417f0ef2870247304402206f1014cc216d6d92c993934967ec7754741bf187063f6f67bb4770876b04ae22022049b2409b41467c16cbd7f7c71e6dec6a1b57b9e1897c2350227d5dec2a451632012103ba4c8c5c3140b366bab19eb55f290f09a2db1d7e00bd3689be087bf527aaab0702483045022100f8b571e297242ce76c5398e86e7e37e474a5a838dc47e750c0be4c9947b3a92302204c36d9fd93cf1c3310d40e51121532c981bf902369018f31f85da46547dc13fe0121020f2a9b84947543574a409a9e32d626ac39c71be86a598c8ee4c83408024b61a60f490800", "vin": [{"txinwitness": ["304402206f1014cc216d6d92c993934967ec7754741bf187063f6f67bb4770876b04ae22022049b2409b41467c16cbd7f7c71e6dec6a1b57b9e1897c2350227d5dec2a45163201", "03ba4c8c5c3140b366bab19eb55f290f09a2db1d7e00bd3689be087bf527aaab07"], "sequence": 4294967294, "scriptSig": {"hex": "160014d142abeab23cb2c6383240f1abb4ef93837aec45", "asm": "0014d142abeab23cb2c6383240f1abb4ef93837aec45"}, "vout": 1, "txid": "48d9647e2289fa510837621761a932b8bc48417fb87c754fb1cb8ab27c31f5a6"}, {"txinwitness": ["3045022100f8b571e297242ce76c5398e86e7e37e474a5a838dc47e750c0be4c9947b3a92302204c36d9fd93cf1c3310d40e51121532c981bf902369018f31f85da46547dc13fe01", "020f2a9b84947543574a409a9e32d626ac39c71be86a598c8ee4c83408024b61a6"], "sequence": 4294967294, "scriptSig": {"hex": "160014101b5be29e1bf0bd3ea3122673e9da1b1f60d713", "asm": "0014101b5be29e1bf0bd3ea3122673e9da1b1f60d713"}, "vout": 1, "txid": "9f6db6e31bb73a7d3b7ac325aa9c5cf6d6fee18bf00628ab69108bc462b188cd"}], "txid": "227a8190dce7665acb2a5ab03283b6fe20e48c6e5a48c662787486758b236dc8", "blocktime": 1537871767, "version": 2, "confirmations": 11495, "time": 1537871767, "locktime": 542991, "vsize": 259, "size": 421}