{"hash": "780c808883e05a7f7361ba593e5d7e90bb2ffd9db9767af850349575d6ad1231", "blockhash": "0000000000000000000baef3f32e3676a92c3b2e5da21b426e4f302fc371ce76", "vout": [{"scriptPubKey": {"reqSigs": 1, "hex": "76a91485db7cab769f93a69785c13cc1e0df51be1f9d8b88ac", "addresses": ["1DCmojk8DoVM3CmvYCzyJbGfcHzZstF2vU"], "asm": "OP_DUP OP_HASH160 85db7cab769f93a69785c13cc1e0df51be1f9d8b OP_EQUALVERIFY OP_CHECKSIG", "type": "pubkeyhash"}, "value": 2.295e-05, "n": 0}, {"scriptPubKey": {"reqSigs": 1, "hex": "a9145fd6ccf3fa4f5e40b590aac3f24664f0653a71dc87", "addresses": ["3ARmSNhAYCtKywjSMAxYdagMtKiGcdVuY2"], "asm": "OP_HASH160 5fd6ccf3fa4f5e40b590aac3f24664f0653a71dc OP_EQUAL", "type": "scripthash"}, "value": 0.0096911, "n": 1}], "hex": "01000000000101ecc8b17a336fb788f229b08d2696fb67d915940e73521add6c49133f1d868db801000000232200206594052309991fbaf27880f6c24f3eaa8cdd7edacf1bc50579894b9e3fe7faccffffffff02f7080000000000001976a91485db7cab769f93a69785c13cc1e0df51be1f9d8b88ac96c90e000000000017a9145fd6ccf3fa4f5e40b590aac3f24664f0653a71dc8704004730440220470e81e6094a8b60580e39d6b016cf08500098844bd94444e273dcec7f5266c6022027a760d49c245c3e37081e2c648782833a6b4c85950cffb1633219f1f46b515101483045022100b9e81bfba8a0d5c2597e759568b70254ffd28ea3e6ae45f5ac3e90b5d7f27ce102201cea67c3f0da454b1f9960d3c5a2ef2e95472f0738fa5b18e6112ded38c3ef7f0147522102762a59cc11c9e209028b4fdb72709e323a3db710158b03d150a252f3d53009582103148c80a5bdfddb05ff5bcffc397c8ca748d8b435ec6a175bc9d7bfc7fc6f853752ae00000000", "vin": [{"txinwitness": ["", "30440220470e81e6094a8b60580e39d6b016cf08500098844bd94444e273dcec7f5266c6022027a760d49c245c3e37081e2c648782833a6b4c85950cffb1633219f1f46b515101", "3045022100b9e81bfba8a0d5c2597e759568b70254ffd28ea3e6ae45f5ac3e90b5d7f27ce102201cea67c3f0da454b1f9960d3c5a2ef2e95472f0738fa5b18e6112ded38c3ef7f01", "522102762a59cc11c9e209028b4fdb72709e323a3db710158b03d150a252f3d53009582103148c80a5bdfddb05ff5bcffc397c8ca748d8b435ec6a175bc9d7bfc7fc6f853752ae"], "sequence": 4294967295, "scriptSig": {"hex": "2200206594052309991fbaf27880f6c24f3eaa8cdd7edacf1bc50579894b9e3fe7facc", "asm": "00206594052309991fbaf27880f6c24f3eaa8cdd7edacf1bc50579894b9e3fe7facc"}, "vout": 1, "txid": "b88d861d3f13496cdd1a52730e9415d967fb96268db029f288b76f337ab1c8ec"}], "txid": "227bf3bfb3069afaf7c96630e3961d28ae28576efdebdd38e4c2bfc0c71cc40e", "blocktime": 1537876114, "version": 1, "confirmations": 11460, "time": 1537876114, "locktime": 0, "vsize": 208, "size": 373}