{"hash": "227f05e331ce5d030e62fa4d632f7ebcc5d3efa9409a49b647f46b209f0192fe", "blockhash": "0000000000000000001cda96e906b7601b7a6fb1a3b62bca570a9e5d8f4b3de1", "vout": [{"scriptPubKey": {"reqSigs": 1, "hex": "a91460c682d1f580afbee9fccf9f1959a0f56af2b9d487", "addresses": ["3AWibkG6qNFbVHqNesbEmPSVhFbfoZYpNF"], "asm": "OP_HASH160 60c682d1f580afbee9fccf9f1959a0f56af2b9d4 OP_EQUAL", "type": "scripthash"}, "value": 0.01079, "n": 0}, {"scriptPubKey": {"reqSigs": 1, "hex": "a914e370231feecbfc25e2e2423a5a79bf79bfdca59887", "addresses": ["3NRbeX3vD5VaVE4TDU9ivCDsEf7NPPte6J"], "asm": "OP_HASH160 e370231feecbfc25e2e2423a5a79bf79bfdca598 OP_EQUAL", "type": "scripthash"}, "value": 0.48194804, "n": 1}], "hex": "01000000012d35e9009ef832336a061133bc6c1a30f99a143514b08e9a16f90e11c8eca24701000000da004830450221009bb232806a865cb2e42d9d6736b87c802ec55e6a1b81bc5d184c6091248263670220669dec655d0d9a1f84321f3eb381323723dbefe28d2131498e756b134ec5b9a9014730440220023ea1e718b76707748635c05d9ec120c1e3fcfc2c84441bda81b3e82fc7780e02202df8f19d61e55f346f9e8c7f1ccfe191dec738f41f5c559be95a1878a5c93c1c014752210327881b6abce6535553a3ce21fad12a7d74fd237ce7c4cd270a267162344e3082210256141f8eb687f5a68c5cc65054652dc25116fa285e44d72b44368827ffe77d9a52aeffffffff02d87610000000000017a91460c682d1f580afbee9fccf9f1959a0f56af2b9d487f464df020000000017a914e370231feecbfc25e2e2423a5a79bf79bfdca5988700000000", "vin": [{"sequence": 4294967295, "scriptSig": {"hex": "004830450221009bb232806a865cb2e42d9d6736b87c802ec55e6a1b81bc5d184c6091248263670220669dec655d0d9a1f84321f3eb381323723dbefe28d2131498e756b134ec5b9a9014730440220023ea1e718b76707748635c05d9ec120c1e3fcfc2c84441bda81b3e82fc7780e02202df8f19d61e55f346f9e8c7f1ccfe191dec738f41f5c559be95a1878a5c93c1c014752210327881b6abce6535553a3ce21fad12a7d74fd237ce7c4cd270a267162344e3082210256141f8eb687f5a68c5cc65054652dc25116fa285e44d72b44368827ffe77d9a52ae", "asm": "0 30450221009bb232806a865cb2e42d9d6736b87c802ec55e6a1b81bc5d184c6091248263670220669dec655d0d9a1f84321f3eb381323723dbefe28d2131498e756b134ec5b9a9[ALL] 30440220023ea1e718b76707748635c05d9ec120c1e3fcfc2c84441bda81b3e82fc7780e02202df8f19d61e55f346f9e8c7f1ccfe191dec738f41f5c559be95a1878a5c93c1c[ALL] 52210327881b6abce6535553a3ce21fad12a7d74fd237ce7c4cd270a267162344e3082210256141f8eb687f5a68c5cc65054652dc25116fa285e44d72b44368827ffe77d9a52ae"}, "vout": 1, "txid": "47a2ecc8110ef9169a8eb01435149af9301a6cbc3311066a3332f89e00e9352d"}], "txid": "227f05e331ce5d030e62fa4d632f7ebcc5d3efa9409a49b647f46b209f0192fe", "blocktime": 1537873282, "version": 1, "confirmations": 11484, "time": 1537873282, "locktime": 0, "vsize": 333, "size": 333}