{"hash": "227f185e39315882f434536303d38f60e6ebd8cbf651e3f19b3ec9e065520cee", "blockhash": "0000000000000000000dcc0f55137456b1a82d3642486a52398922ac4d620174", "vout": [{"scriptPubKey": {"reqSigs": 1, "hex": "76a91435b67b57d2108272f90628f418c52408aeece54788ac", "addresses": ["15u1RE58WYabFPCfF4NahB7yEvU9pnvPyD"], "asm": "OP_DUP OP_HASH160 35b67b57d2108272f90628f418c52408aeece547 OP_EQUALVERIFY OP_CHECKSIG", "type": "pubkeyhash"}, "value": 0.001488, "n": 0}, {"scriptPubKey": {"reqSigs": 1, "hex": "76a91404804e0773fa686554b392f4e01180294d07601f88ac", "addresses": ["1QoQYPb5JiKyeK2jj47Rv9YTRGn6FVFCX"], "asm": "OP_DUP OP_HASH160 04804e0773fa686554b392f4e01180294d07601f OP_EQUALVERIFY OP_CHECKSIG", "type": "pubkeyhash"}, "value": 0.00796365, "n": 1}], "hex": "0100000001626c8378137a40ba7758c5ca4cf727560da5c337b6d19c3674c686e56e9ed6a9010000006a47304402203ffe8b24c65ca2d206d792317ec477c4e07210ae38274f8fb455c3f1ceb504f102205ecde655a57773abb5060929befb16b6e38e4580a4792fb862b3b88aab9064f5012102355ec030075ff36cd91b814894ce05a2ca712f97366a0713ffb58ca01059bb88ffffffff0240450200000000001976a91435b67b57d2108272f90628f418c52408aeece54788accd260c00000000001976a91404804e0773fa686554b392f4e01180294d07601f88ac00000000", "vin": [{"sequence": 4294967295, "scriptSig": {"hex": "47304402203ffe8b24c65ca2d206d792317ec477c4e07210ae38274f8fb455c3f1ceb504f102205ecde655a57773abb5060929befb16b6e38e4580a4792fb862b3b88aab9064f5012102355ec030075ff36cd91b814894ce05a2ca712f97366a0713ffb58ca01059bb88", "asm": "304402203ffe8b24c65ca2d206d792317ec477c4e07210ae38274f8fb455c3f1ceb504f102205ecde655a57773abb5060929befb16b6e38e4580a4792fb862b3b88aab9064f5[ALL] 02355ec030075ff36cd91b814894ce05a2ca712f97366a0713ffb58ca01059bb88"}, "vout": 1, "txid": "a9d69e6ee586c674369cd1b637c3a50d5627f74ccac55877ba407a1378836c62"}], "txid": "227f185e39315882f434536303d38f60e6ebd8cbf651e3f19b3ec9e065520cee", "blocktime": 1537870268, "version": 1, "confirmations": 11516, "time": 1537870268, "locktime": 0, "vsize": 225, "size": 225}