{"hash": "227f6ef2421fbf34bef56909b65b7923c3635b00357dcbf85679c8f085710e28", "blockhash": "0000000000000000001f76057863aec43deb6fa401d9628bb513d65a8098bfab", "vout": [{"scriptPubKey": {"reqSigs": 1, "hex": "76a9145ffed296a62fc2707584a3a47d9703ab4ff0639288ac", "addresses": ["19kaTcLjTwXvuqVDfYtNqumscXDXNken8m"], "asm": "OP_DUP OP_HASH160 5ffed296a62fc2707584a3a47d9703ab4ff06392 OP_EQUALVERIFY OP_CHECKSIG", "type": "pubkeyhash"}, "value": 0.14846125, "n": 0}, {"scriptPubKey": {"reqSigs": 1, "hex": "76a914ed27771aa736d2bed8d13e2bccd08c3f9f478d1b88ac", "addresses": ["1NcxRZLNXiumTFtM5pjRf8L71cgq5qJ41x"], "asm": "OP_DUP OP_HASH160 ed27771aa736d2bed8d13e2bccd08c3f9f478d1b OP_EQUALVERIFY OP_CHECKSIG", "type": "pubkeyhash"}, "value": 0.00351748, "n": 1}, {"scriptPubKey": {"reqSigs": 1, "hex": "76a914952cf91f48cec33ed8c8d946f2c50f265be53d9588ac", "addresses": ["1EbmZNWVmhU37Zdpng9QU6kaot9pCVsgmy"], "asm": "OP_DUP OP_HASH160 952cf91f48cec33ed8c8d946f2c50f265be53d95 OP_EQUALVERIFY OP_CHECKSIG", "type": "pubkeyhash"}, "value": 0.14829382, "n": 2}, {"scriptPubKey": {"reqSigs": 1, "hex": "76a914f1501c4a7c845ba3fce9c61096626cee6247b8bd88ac", "addresses": ["1NzwpQcLfVje2PX8FZjfKHJivqQAacG3vz"], "asm": "OP_DUP OP_HASH160 f1501c4a7c845ba3fce9c61096626cee6247b8bd OP_EQUALVERIFY OP_CHECKSIG", "type": "pubkeyhash"}, "value": 0.00177837, "n": 3}, {"scriptPubKey": {"reqSigs": 1, "hex": "76a91497a0df80920e4c14fc11fbe4ff4c3e7dd50255b688ac", "addresses": ["1Epjkd6FwnfEwnnkHhp6Kj5CvBfZsSCRvK"], "asm": "OP_DUP OP_HASH160 97a0df80920e4c14fc11fbe4ff4c3e7dd50255b6 OP_EQUALVERIFY OP_CHECKSIG", "type": "pubkeyhash"}, "value": 0.24764759, "n": 4}], "hex": "02000000013a381a2f9db01fb42ddb3ed3bbb03371a21cee6ad483c516d316bbbaad21d110010000006a4730440220296ad384a4d5638ea76ee281057cad16b6e0cca507328c922ddd598dd49e8ec602200ea8f8ad7ca73a4b8eaf72d58cca40ecdd943a77e21083b63d730ffb378f8575012103876763b6f385642ca310f763d8882aaf7c24cb323da62c4ea2569463dbe00378feffffff05ad88e200000000001976a9145ffed296a62fc2707584a3a47d9703ab4ff0639288ac045e0500000000001976a914ed27771aa736d2bed8d13e2bccd08c3f9f478d1b88ac4647e200000000001976a914952cf91f48cec33ed8c8d946f2c50f265be53d9588acadb60200000000001976a914f1501c4a7c845ba3fce9c61096626cee6247b8bd88ac57e17901000000001976a91497a0df80920e4c14fc11fbe4ff4c3e7dd50255b688ac14490800", "vin": [{"sequence": 4294967294, "scriptSig": {"hex": "4730440220296ad384a4d5638ea76ee281057cad16b6e0cca507328c922ddd598dd49e8ec602200ea8f8ad7ca73a4b8eaf72d58cca40ecdd943a77e21083b63d730ffb378f8575012103876763b6f385642ca310f763d8882aaf7c24cb323da62c4ea2569463dbe00378", "asm": "30440220296ad384a4d5638ea76ee281057cad16b6e0cca507328c922ddd598dd49e8ec602200ea8f8ad7ca73a4b8eaf72d58cca40ecdd943a77e21083b63d730ffb378f8575[ALL] 03876763b6f385642ca310f763d8882aaf7c24cb323da62c4ea2569463dbe00378"}, "vout": 1, "txid": "10d121adbabb16d316c583d46aee1ca27133b0bbd33edb2db41fb09d2f1a383a"}], "txid": "227f6ef2421fbf34bef56909b65b7923c3635b00357dcbf85679c8f085710e28", "blocktime": 1537873891, "version": 2, "confirmations": 11474, "time": 1537873891, "locktime": 542996, "vsize": 327, "size": 327}