{"hash": "22828352eb7403435d05ba8b0d0ec9c0a8cc30894405ee651cc5970543dbf7fd", "blockhash": "0000000000000000001e0dab787dd257d1dbfcb92a98c2207d5e1078be1f4165", "vout": [{"scriptPubKey": {"reqSigs": 1, "hex": "76a914def5460cc29dc360e0530213748b44f5cac3d51688ac", "addresses": ["1MKtqVqBy8yYH8gVFPAsmXxGa6Q9p9VWdL"], "asm": "OP_DUP OP_HASH160 def5460cc29dc360e0530213748b44f5cac3d516 OP_EQUALVERIFY OP_CHECKSIG", "type": "pubkeyhash"}, "value": 0.01270073, "n": 0}, {"scriptPubKey": {"reqSigs": 1, "hex": "a914ce6bb36f993b1854a2f42eac4b67338c2972468287", "addresses": ["3LWU9Fa8ELvP2bE4ynunecKfGubhZWVjBF"], "asm": "OP_HASH160 ce6bb36f993b1854a2f42eac4b67338c29724682 OP_EQUAL", "type": "scripthash"}, "value": 0.01718191, "n": 1}], "hex": "0100000001653c07649b61b039077c83d1102b3abc599de1634b601247d5b7310bad335999010000006b483045022100d2a8f98e82db4883beaafcbee3d4baa708754bec946c1f0937b4d72f44637798022064ebb9fa7fe4c31a89a947c43398f5ec2b2ff7caf33658d274b4438d22b091f6012102cdf78202df78c2c3d800aaba14ab0608121375f0062d0b922aec0103f9a705bcffffffff0239611300000000001976a914def5460cc29dc360e0530213748b44f5cac3d51688acaf371a000000000017a914ce6bb36f993b1854a2f42eac4b67338c297246828700000000", "vin": [{"sequence": 4294967295, "scriptSig": {"hex": "483045022100d2a8f98e82db4883beaafcbee3d4baa708754bec946c1f0937b4d72f44637798022064ebb9fa7fe4c31a89a947c43398f5ec2b2ff7caf33658d274b4438d22b091f6012102cdf78202df78c2c3d800aaba14ab0608121375f0062d0b922aec0103f9a705bc", "asm": "3045022100d2a8f98e82db4883beaafcbee3d4baa708754bec946c1f0937b4d72f44637798022064ebb9fa7fe4c31a89a947c43398f5ec2b2ff7caf33658d274b4438d22b091f6[ALL] 02cdf78202df78c2c3d800aaba14ab0608121375f0062d0b922aec0103f9a705bc"}, "vout": 1, "txid": "995933ad0b31b7d54712604b63e19d59bc3a2b10d1837c0739b0619b64073c65"}], "txid": "22828352eb7403435d05ba8b0d0ec9c0a8cc30894405ee651cc5970543dbf7fd", "blocktime": 1537872475, "version": 1, "confirmations": 11487, "time": 1537872475, "locktime": 0, "vsize": 224, "size": 224}