{"hash": "39aa2dfe6cdc6bd1a929db422dfb29c98f9f3fbede86b0de7fbc642af70f5058", "blockhash": "0000000000000000001f76057863aec43deb6fa401d9628bb513d65a8098bfab", "vout": [{"scriptPubKey": {"reqSigs": 1, "hex": "76a914b31c686d2d8e688f3723f159a0e6983bd0b73f0d88ac", "addresses": ["1HL3z9wtQJJeDmQHm9CytmZ1o9usC9uCJP"], "asm": "OP_DUP OP_HASH160 b31c686d2d8e688f3723f159a0e6983bd0b73f0d OP_EQUALVERIFY OP_CHECKSIG", "type": "pubkeyhash"}, "value": 0.00231797, "n": 0}, {"scriptPubKey": {"reqSigs": 1, "hex": "a914412a5a9d44d5834123b7756088f409b7b3a36da687", "addresses": ["37daapNiiDgPEaARWMQCfhGXJo4yF1nTaW"], "asm": "OP_HASH160 412a5a9d44d5834123b7756088f409b7b3a36da6 OP_EQUAL", "type": "scripthash"}, "value": 0.00316777, "n": 1}], "hex": "0100000000010144fbc7ac552f2df7c2e26a17685a0d52e6f1d510a7fe656068b6d3eb41b5c4c1010000002322002083f5850b1b9ae687f7cf8d5c77fefcbd87cde420155cd43c20d50f5f293b7ed6ffffffff0275890300000000001976a914b31c686d2d8e688f3723f159a0e6983bd0b73f0d88ac69d504000000000017a914412a5a9d44d5834123b7756088f409b7b3a36da6870400483045022100ff7037e39e9ad637e81be00941041a5f70e1d789f41f795f4e4ee6e05fbf0e12022015b385e7f181400dabeec573016ed176fe2647e171f3965cac5a46d5f61c0aab014830450221008c83fb44cbf44b4e0fce1a2880de54b3a6ab58b2bb4c1637b5ef5a7a9a34ca9902200e04955922b73ecc62138d57fbea457a417189ce65a36e3fdc6b8107d0fb390701475221020511070566b8412d1941b8dc0ded10caa6a6915b609dfa65bb8111255071d3a22103871fc2ca08e6950b38867e8e6a0e94ee625223d3aa0df5c65f414c6d784467e252ae00000000", "vin": [{"txinwitness": ["", "3045022100ff7037e39e9ad637e81be00941041a5f70e1d789f41f795f4e4ee6e05fbf0e12022015b385e7f181400dabeec573016ed176fe2647e171f3965cac5a46d5f61c0aab01", "30450221008c83fb44cbf44b4e0fce1a2880de54b3a6ab58b2bb4c1637b5ef5a7a9a34ca9902200e04955922b73ecc62138d57fbea457a417189ce65a36e3fdc6b8107d0fb390701", "5221020511070566b8412d1941b8dc0ded10caa6a6915b609dfa65bb8111255071d3a22103871fc2ca08e6950b38867e8e6a0e94ee625223d3aa0df5c65f414c6d784467e252ae"], "sequence": 4294967295, "scriptSig": {"hex": "22002083f5850b1b9ae687f7cf8d5c77fefcbd87cde420155cd43c20d50f5f293b7ed6", "asm": "002083f5850b1b9ae687f7cf8d5c77fefcbd87cde420155cd43c20d50f5f293b7ed6"}, "vout": 1, "txid": "c1c4b541ebd3b6686065fea710d5f1e6520d5a68176ae2c2f72d2f55acc7fb44"}], "txid": "228261f55d665a128502881cb6596bb0b06b6576292562fb57ba07842c90328a", "blocktime": 1537873891, "version": 1, "confirmations": 11478, "time": 1537873891, "locktime": 0, "vsize": 208, "size": 374}