{"hash": "2286e858f30f81696e5d20953d8a75e5a7b0e99b452ee7862929f59f4736485c", "blockhash": "0000000000000000000dcc0f55137456b1a82d3642486a52398922ac4d620174", "vout": [{"scriptPubKey": {"reqSigs": 1, "hex": "a9140f28a3a58d8d7b69953897fe3d9f6ae7508b039e87", "addresses": ["335Ak5uhQAtqwLoqX6DSWkgtMQ8d4BhRpg"], "asm": "OP_HASH160 0f28a3a58d8d7b69953897fe3d9f6ae7508b039e OP_EQUAL", "type": "scripthash"}, "value": 0.0028196, "n": 0}, {"scriptPubKey": {"reqSigs": 1, "hex": "76a914e3a536b1733681ccd6e7156726339772bb7771c888ac", "addresses": ["1MkgJnsJoRJpLhDDQbRCsGeoL1LU3WTeew"], "asm": "OP_DUP OP_HASH160 e3a536b1733681ccd6e7156726339772bb7771c8 OP_EQUALVERIFY OP_CHECKSIG", "type": "pubkeyhash"}, "value": 0.01296989, "n": 1}], "hex": "010000000177c38033f33758db00ba08c26d061e389a653fcde6f9e5b04a682a751e3971b20100000069463043022051c6d9a753a99b72c6ccc94280d19c12ab2dd1d9d985bfb697d99793c5a3848b021f1097b356adbf7745a7d3d58c8f0d96535a117bc7b6e0008c25e04ef5f8efa3012103cbceb251af5b2fdfc402a275b6d2685b812d87bd05591c03f1c92f9e87191df0ffffffff02684d04000000000017a9140f28a3a58d8d7b69953897fe3d9f6ae7508b039e875dca1300000000001976a914e3a536b1733681ccd6e7156726339772bb7771c888ac00000000", "vin": [{"sequence": 4294967295, "scriptSig": {"hex": "463043022051c6d9a753a99b72c6ccc94280d19c12ab2dd1d9d985bfb697d99793c5a3848b021f1097b356adbf7745a7d3d58c8f0d96535a117bc7b6e0008c25e04ef5f8efa3012103cbceb251af5b2fdfc402a275b6d2685b812d87bd05591c03f1c92f9e87191df0", "asm": "3043022051c6d9a753a99b72c6ccc94280d19c12ab2dd1d9d985bfb697d99793c5a3848b021f1097b356adbf7745a7d3d58c8f0d96535a117bc7b6e0008c25e04ef5f8efa3[ALL] 03cbceb251af5b2fdfc402a275b6d2685b812d87bd05591c03f1c92f9e87191df0"}, "vout": 1, "txid": "b271391e752a684ab0e5f9e6cd3f659a381e066dc208ba00db5837f33380c377"}], "txid": "2286e858f30f81696e5d20953d8a75e5a7b0e99b452ee7862929f59f4736485c", "blocktime": 1537870268, "version": 1, "confirmations": 11518, "time": 1537870268, "locktime": 0, "vsize": 222, "size": 222}