{"hash": "229519d84caf72b3e8aaf851bd4e353f87efc2f5b39919551dce41fff318e917", "blockhash": "0000000000000000001cda96e906b7601b7a6fb1a3b62bca570a9e5d8f4b3de1", "vout": [{"scriptPubKey": {"reqSigs": 1, "hex": "76a9142c599b9795873c4320f04e4c11c65fd4f2c6e12c88ac", "addresses": ["153W5VuVmhLpcbkXW7xq5kiLW5uD8SQmB3"], "asm": "OP_DUP OP_HASH160 2c599b9795873c4320f04e4c11c65fd4f2c6e12c OP_EQUALVERIFY OP_CHECKSIG", "type": "pubkeyhash"}, "value": 0.0078, "n": 0}, {"scriptPubKey": {"reqSigs": 1, "hex": "76a914498f81ab8f8474035065f6c4185c7ae644a4f09188ac", "addresses": ["17hxF1gQs3HoW6cH9KwPDhTgaQqJ3rsyyx"], "asm": "OP_DUP OP_HASH160 498f81ab8f8474035065f6c4185c7ae644a4f091 OP_EQUALVERIFY OP_CHECKSIG", "type": "pubkeyhash"}, "value": 0.00685564, "n": 1}, {"scriptPubKey": {"reqSigs": 1, "hex": "a9144f37fb361be1233b3bb65c8ce1486d9df4e1a77687", "addresses": ["38utNM5AK37bKAqa7r36pY1dWTb7nMfVRp"], "asm": "OP_HASH160 4f37fb361be1233b3bb65c8ce1486d9df4e1a776 OP_EQUAL", "type": "scripthash"}, "value": 0.1002, "n": 2}, {"scriptPubKey": {"reqSigs": 1, "hex": "76a914e71debe251bb26c7e757d9ae265da6e5d00f31b988ac", "addresses": ["1N52wHoVR79PMDishab2XmRHsbekCdGquK"], "asm": "OP_DUP OP_HASH160 e71debe251bb26c7e757d9ae265da6e5d00f31b9 OP_EQUALVERIFY OP_CHECKSIG", "type": "pubkeyhash"}, "value": 0.01698306, "n": 3}], "hex": "010000000123e4fc885d8273ed37d887cd450f6c08baa4116a36fd367038c8c65d7d08afb5010000006a47304402207e2c0cdb93414b76c6387380ec23c984f8d230ea0d8a65a1507c8496b4cdb27a0220615b5df664492f8333f37d3e63684bc10cdebefbe8b55fc4d146cea43772923b012102ae81cfc9fa18664ab213a31bed415b6f0873bbcf0edb431dd881109942c50fc1ffffffff04e0e60b00000000001976a9142c599b9795873c4320f04e4c11c65fd4f2c6e12c88acfc750a00000000001976a914498f81ab8f8474035065f6c4185c7ae644a4f09188aca0e498000000000017a9144f37fb361be1233b3bb65c8ce1486d9df4e1a7768702ea1900000000001976a914e71debe251bb26c7e757d9ae265da6e5d00f31b988ac00000000", "vin": [{"sequence": 4294967295, "scriptSig": {"hex": "47304402207e2c0cdb93414b76c6387380ec23c984f8d230ea0d8a65a1507c8496b4cdb27a0220615b5df664492f8333f37d3e63684bc10cdebefbe8b55fc4d146cea43772923b012102ae81cfc9fa18664ab213a31bed415b6f0873bbcf0edb431dd881109942c50fc1", "asm": "304402207e2c0cdb93414b76c6387380ec23c984f8d230ea0d8a65a1507c8496b4cdb27a0220615b5df664492f8333f37d3e63684bc10cdebefbe8b55fc4d146cea43772923b[ALL] 02ae81cfc9fa18664ab213a31bed415b6f0873bbcf0edb431dd881109942c50fc1"}, "vout": 1, "txid": "b5af087d5dc6c8387036fd366a11a4ba086c0f45cd87d837ed73825d88fce423"}], "txid": "229519d84caf72b3e8aaf851bd4e353f87efc2f5b39919551dce41fff318e917", "blocktime": 1537873282, "version": 1, "confirmations": 11480, "time": 1537873282, "locktime": 0, "vsize": 291, "size": 291}