{"hash": "2297a954eef6a6fe0cb72bacef8998957a2227296626b9100426e98f85d17903", "blockhash": "000000000000000000022b45ed06c6f4ccd3cf7fb5ba4856ebd2e58215665228", "vout": [{"scriptPubKey": {"reqSigs": 1, "hex": "76a914af8b67f0b8b0fa3942cf9604465888429aaec98d88ac", "addresses": ["1H1CFfsVyG8bvNKVG4w1zbDuLLgSEu3J9v"], "asm": "OP_DUP OP_HASH160 af8b67f0b8b0fa3942cf9604465888429aaec98d OP_EQUALVERIFY OP_CHECKSIG", "type": "pubkeyhash"}, "value": 0.0065281, "n": 0}, {"scriptPubKey": {"type": "nulldata", "hex": "6a4c50000077640001e24c1761e6205352df21bc9a86aeaeacb577c031fc3a016b46dc7dc7d0967db7512858889ef8f07d29ab2c9e88445baa07ec0612b9a35bcaf77a1d100759d4ba30d2c37bb011d97e02cf", "asm": "OP_RETURN 000077640001e24c1761e6205352df21bc9a86aeaeacb577c031fc3a016b46dc7dc7d0967db7512858889ef8f07d29ab2c9e88445baa07ec0612b9a35bcaf77a1d100759d4ba30d2c37bb011d97e02cf"}, "value": 0.0, "n": 1}], "hex": "010000000178400b9ff0c14f8744b493d81f5ca45f497f5415ac18948eb5c83ce5b7e5d158010000006a473044022011ee47d13cf68a9f52ccfab0b504c9857f6b80c5112351fd38a88821045e2be802205040cfe4cd78b00ca2fd4ebcb383f622a802365fba423d506c40fb7002786dd80121038418b3a5c555503b7d2e385f5f0685023e9875b569609edb943b1747d9e2a47dffffffff020af60900000000001976a914af8b67f0b8b0fa3942cf9604465888429aaec98d88ac0000000000000000536a4c50000077640001e24c1761e6205352df21bc9a86aeaeacb577c031fc3a016b46dc7dc7d0967db7512858889ef8f07d29ab2c9e88445baa07ec0612b9a35bcaf77a1d100759d4ba30d2c37bb011d97e02cf00000000", "vin": [{"sequence": 4294967295, "scriptSig": {"hex": "473044022011ee47d13cf68a9f52ccfab0b504c9857f6b80c5112351fd38a88821045e2be802205040cfe4cd78b00ca2fd4ebcb383f622a802365fba423d506c40fb7002786dd80121038418b3a5c555503b7d2e385f5f0685023e9875b569609edb943b1747d9e2a47d", "asm": "3044022011ee47d13cf68a9f52ccfab0b504c9857f6b80c5112351fd38a88821045e2be802205040cfe4cd78b00ca2fd4ebcb383f622a802365fba423d506c40fb7002786dd8[ALL] 038418b3a5c555503b7d2e385f5f0685023e9875b569609edb943b1747d9e2a47d"}, "vout": 1, "txid": "58d1e5b7e53cc8b58e9418ac15547f495fa45c1fd893b444874fc1f09f0b4078"}], "txid": "2297a954eef6a6fe0cb72bacef8998957a2227296626b9100426e98f85d17903", "blocktime": 1537869901, "version": 1, "confirmations": 11523, "time": 1537869901, "locktime": 0, "vsize": 283, "size": 283}