{"hash": "229c9a1adbbb6d265f0e28b162aba4e3f963bfd7794716d1121d9263ded91716", "blockhash": "0000000000000000000baef3f32e3676a92c3b2e5da21b426e4f302fc371ce76", "vout": [{"scriptPubKey": {"reqSigs": 1, "hex": "76a9140087cf7922d8f9ef800d90abeeb84f138b88b23788ac", "addresses": ["113ohGwvqZJrEfeeAjYN9UChvxCzvU5wsD"], "asm": "OP_DUP OP_HASH160 0087cf7922d8f9ef800d90abeeb84f138b88b237 OP_EQUALVERIFY OP_CHECKSIG", "type": "pubkeyhash"}, "value": 0.00118824, "n": 0}, {"scriptPubKey": {"type": "nulldata", "hex": "6a4c50000078170001531c8e40a2822957b3f09510019d6ddc0f1b8ff117702940d64fa54d8eb2031b266e538dfbecd6ca0bb3b5322d665baa1c1b0615bbafbaed871fbc9a9526289ac0f6612cd74e33776ee4", "asm": "OP_RETURN 000078170001531c8e40a2822957b3f09510019d6ddc0f1b8ff117702940d64fa54d8eb2031b266e538dfbecd6ca0bb3b5322d665baa1c1b0615bbafbaed871fbc9a9526289ac0f6612cd74e33776ee4"}, "value": 0.0, "n": 1}], "hex": "01000000010cd2ab25a1d9adaa6eb983af516b7c54c8fbcbcf5eadb91b3c321a76c66edd86000000006a47304402207de18de13ff209c9757f7ea16dab87b8ff0d3466f5f1d2c600114e64e53dd1f5022013445aa2061c6e58e0826d10dede85340a2bfec8d3e87a5f4ecf210118091670012102fb2d1bd090f497e4e12491d17187485ac5eca6b73512baa261d5b7bcb4c6e5f7ffffffff0228d00100000000001976a9140087cf7922d8f9ef800d90abeeb84f138b88b23788ac0000000000000000536a4c50000078170001531c8e40a2822957b3f09510019d6ddc0f1b8ff117702940d64fa54d8eb2031b266e538dfbecd6ca0bb3b5322d665baa1c1b0615bbafbaed871fbc9a9526289ac0f6612cd74e33776ee400000000", "vin": [{"sequence": 4294967295, "scriptSig": {"hex": "47304402207de18de13ff209c9757f7ea16dab87b8ff0d3466f5f1d2c600114e64e53dd1f5022013445aa2061c6e58e0826d10dede85340a2bfec8d3e87a5f4ecf210118091670012102fb2d1bd090f497e4e12491d17187485ac5eca6b73512baa261d5b7bcb4c6e5f7", "asm": "304402207de18de13ff209c9757f7ea16dab87b8ff0d3466f5f1d2c600114e64e53dd1f5022013445aa2061c6e58e0826d10dede85340a2bfec8d3e87a5f4ecf210118091670[ALL] 02fb2d1bd090f497e4e12491d17187485ac5eca6b73512baa261d5b7bcb4c6e5f7"}, "vout": 0, "txid": "86dd6ec6761a323c1bb9ad5ecfcbfbc8547c6b51af83b96eaaadd9a125abd20c"}], "txid": "229c9a1adbbb6d265f0e28b162aba4e3f963bfd7794716d1121d9263ded91716", "blocktime": 1537876114, "version": 1, "confirmations": 11460, "time": 1537876114, "locktime": 0, "vsize": 283, "size": 283}