{"hash": "016cb912215040e61b01811f6b674cafbdc7b3a873daa3ebc64432f6674b8582", "blockhash": "0000000000000000000e13cef7c366c0283d82e591d1acd082e914b08063cdf1", "vout": [{"scriptPubKey": {"reqSigs": 1, "hex": "a9148630f6dba33b16ee304eb6e18aa8d943c5d03d9787", "addresses": ["3DvZ8M78RTVTnGPScX57hYt9UQfdJ7KLzq"], "asm": "OP_HASH160 8630f6dba33b16ee304eb6e18aa8d943c5d03d97 OP_EQUAL", "type": "scripthash"}, "value": 0.00096664, "n": 0}, {"scriptPubKey": {"reqSigs": 1, "hex": "76a914cbc3bf1e567e547c092d6888911255abf679bf2288ac", "addresses": ["1KaQfekBqpUYUQwUyJC3rTBCpCgGfs8Jn9"], "asm": "OP_DUP OP_HASH160 cbc3bf1e567e547c092d6888911255abf679bf22 OP_EQUALVERIFY OP_CHECKSIG", "type": "pubkeyhash"}, "value": 0.001, "n": 1}], "hex": "010000000001028c45479ef46095a2ce6b082eaf58cb7b90aa6a7cbbd87dc1824bb60a2ff5517e000000001716001476c01fec630fd7d9adf1aa1b13cb4cfe36294d27fdffffff232b2a9585f5878e2719c8d1b267cc650845aea43c0fe11baf472f1001a5e7f0000000001716001476c01fec630fd7d9adf1aa1b13cb4cfe36294d27fdffffff02987901000000000017a9148630f6dba33b16ee304eb6e18aa8d943c5d03d9787a0860100000000001976a914cbc3bf1e567e547c092d6888911255abf679bf2288ac02473044022057ce1a300af16fe0e9b7a3697400813852098ccb17935a86055d02978aa0784e022021f9607aaa604db1325653e0e2afc97d7d278d55731653c52c9ea7e341d529ce012102d4958a072a25194ec12badf05e0f5ecd1dd22c656f265cc6e01b1170f216c74b02483045022100da2d81d8badad96903ed47e0fc053303756061092d62fc009d9792ba77fcfd700220216bc9de686c2c4195b6a45d65634203abaff331e4e2a6aa2ca1d213d0ed5344012102d4958a072a25194ec12badf05e0f5ecd1dd22c656f265cc6e01b1170f216c74b10490800", "vin": [{"txinwitness": ["3044022057ce1a300af16fe0e9b7a3697400813852098ccb17935a86055d02978aa0784e022021f9607aaa604db1325653e0e2afc97d7d278d55731653c52c9ea7e341d529ce01", "02d4958a072a25194ec12badf05e0f5ecd1dd22c656f265cc6e01b1170f216c74b"], "sequence": 4294967293, "scriptSig": {"hex": "16001476c01fec630fd7d9adf1aa1b13cb4cfe36294d27", "asm": "001476c01fec630fd7d9adf1aa1b13cb4cfe36294d27"}, "vout": 0, "txid": "7e51f52f0ab64b82c17dd8bb7c6aaa907bcb58af2e086bcea29560f49e47458c"}, {"txinwitness": ["3045022100da2d81d8badad96903ed47e0fc053303756061092d62fc009d9792ba77fcfd700220216bc9de686c2c4195b6a45d65634203abaff331e4e2a6aa2ca1d213d0ed534401", "02d4958a072a25194ec12badf05e0f5ecd1dd22c656f265cc6e01b1170f216c74b"], "sequence": 4294967293, "scriptSig": {"hex": "16001476c01fec630fd7d9adf1aa1b13cb4cfe36294d27", "asm": "001476c01fec630fd7d9adf1aa1b13cb4cfe36294d27"}, "vout": 0, "txid": "f0e7a501102f47af1be10f3ca4ae450865cc67b2d1c819278e87f585952a2b23"}], "txid": "22afe27ecbd74106b4cceac5b7d1f50fd13a537e48fd12ce6de73ec1867d1f8f", "blocktime": 1537871767, "version": 1, "confirmations": 11493, "time": 1537871767, "locktime": 542992, "vsize": 259, "size": 421}