{"hash": "22b1cb488e646d8593f7bd9f9393decb19a55274868ac68493bfa9afdf1569c6", "blockhash": "00000000000000000004ffacab907a6b429b9a5745fa0b75af4234bf69dd7176", "vout": [{"scriptPubKey": {"reqSigs": 1, "hex": "a91469f3754399b96dec788ff69833c5189245c56d6e87", "addresses": ["3BMEXSygdC3BGjaHPGTWSmqvY1zZS8oXHF"], "asm": "OP_HASH160 69f3754399b96dec788ff69833c5189245c56d6e OP_EQUAL", "type": "scripthash"}, "value": 0.01007198, "n": 0}], "hex": "010000000141cd4100ca2cec86c7a34a19d7530629d41775b79aa86ce162b96b0359ed60a8300800006b483045022100fbf6a933d45207d0b56dd1d92139921f0ff3c5fce7d40b2874de89b9fa45f3c30220289f241bc908343d1d61ccddab4d4a3689bf858923b9c41d2dc8a34ef20d830701210374b5956a034ae48925657fba845ed2e1211e38fb69606142ce047e3213f68dfdffffffff015e5e0f000000000017a91469f3754399b96dec788ff69833c5189245c56d6e8700000000", "vin": [{"sequence": 4294967295, "scriptSig": {"hex": "483045022100fbf6a933d45207d0b56dd1d92139921f0ff3c5fce7d40b2874de89b9fa45f3c30220289f241bc908343d1d61ccddab4d4a3689bf858923b9c41d2dc8a34ef20d830701210374b5956a034ae48925657fba845ed2e1211e38fb69606142ce047e3213f68dfd", "asm": "3045022100fbf6a933d45207d0b56dd1d92139921f0ff3c5fce7d40b2874de89b9fa45f3c30220289f241bc908343d1d61ccddab4d4a3689bf858923b9c41d2dc8a34ef20d8307[ALL] 0374b5956a034ae48925657fba845ed2e1211e38fb69606142ce047e3213f68dfd"}, "vout": 2096, "txid": "a860ed59036bb962e16ca89ab77517d4290653d7194aa3c786ec2cca0041cd41"}], "txid": "22b1cb488e646d8593f7bd9f9393decb19a55274868ac68493bfa9afdf1569c6", "blocktime": 1537875543, "version": 1, "confirmations": 11464, "time": 1537875543, "locktime": 0, "vsize": 190, "size": 190}