{"hash": "5b5a20ec52603aeef9071cf895c3f9d5745930ff1b4f89bc35dd7051bba4ec21", "blockhash": "00000000000000000024a2167bbff67b0be802c0b01cdd79e6331c2be6459f87", "vout": [{"scriptPubKey": {"reqSigs": 1, "hex": "76a914c9c11de1785264ddaca3afdbb08b3a7fe14cc71488ac", "addresses": ["1KPnAYVYVt4D4xs4RKgm1qyghWPLB3Msht"], "asm": "OP_DUP OP_HASH160 c9c11de1785264ddaca3afdbb08b3a7fe14cc714 OP_EQUALVERIFY OP_CHECKSIG", "type": "pubkeyhash"}, "value": 0.016964, "n": 0}, {"scriptPubKey": {"reqSigs": 1, "hex": "a9144f111cc8cc22ece428ad344c0e2e71dc9760748d87", "addresses": ["38u5oh4KQ6YRxbCbUzA3vZdVgyPfBkBd48"], "asm": "OP_HASH160 4f111cc8cc22ece428ad344c0e2e71dc9760748d OP_EQUAL", "type": "scripthash"}, "value": 0.00998041, "n": 1}], "hex": "02000000000101b69ab7e0a7c4faf72e85fe6ae78a05e172c936798f7637a722d9be6bf483c64d0100000017160014ff03e59b9937e7ee845dafa543a8e4750fee6449feffffff0290e21900000000001976a914c9c11de1785264ddaca3afdbb08b3a7fe14cc71488ac993a0f000000000017a9144f111cc8cc22ece428ad344c0e2e71dc9760748d870247304402205a7a05c57554d637e4c6922f7e7f575227112bb5bc65bbd5730866f2506e928e022040598d67978b422e3ae060e5eafb07266b7420ef5dcd33d9b1d881845a9ee22f012102dea362d672f8b5dc089f9ed254f73d49c7205a62b7f6f1f256161fae11d2b48c0c490800", "vin": [{"txinwitness": ["304402205a7a05c57554d637e4c6922f7e7f575227112bb5bc65bbd5730866f2506e928e022040598d67978b422e3ae060e5eafb07266b7420ef5dcd33d9b1d881845a9ee22f01", "02dea362d672f8b5dc089f9ed254f73d49c7205a62b7f6f1f256161fae11d2b48c"], "sequence": 4294967294, "scriptSig": {"hex": "160014ff03e59b9937e7ee845dafa543a8e4750fee6449", "asm": "0014ff03e59b9937e7ee845dafa543a8e4750fee6449"}, "vout": 1, "txid": "4dc683f46bbed922a737768f7936c972e1058ae76afe852ef7fac4a7e0b79ab6"}], "txid": "22b2c7ff1805f7b97490521a370c40c8f07e471abd234bdc7132f97146abb570", "blocktime": 1537870564, "version": 2, "confirmations": 11515, "time": 1537870564, "locktime": 542988, "vsize": 168, "size": 249}