{"hash": "10b21e05dc0ab5e46d466797869f0468e0007375e62b762e0891fb37bfaa21d4", "blockhash": "0000000000000000001cda96e906b7601b7a6fb1a3b62bca570a9e5d8f4b3de1", "vout": [{"scriptPubKey": {"reqSigs": 1, "hex": "0014bc0c3e0d361fdcd287922438e800cd23bb4e3e63", "addresses": ["bc1qhsxrurfkrlwd9pujysuwsqxdywa5u0nr8kla42"], "asm": "0 bc0c3e0d361fdcd287922438e800cd23bb4e3e63", "type": "witness_v0_keyhash"}, "value": 1.117e-05, "n": 0}, {"scriptPubKey": {"reqSigs": 1, "hex": "76a914e525f83a2feab84bf6cecc10d995e92f3a5cd84988ac", "addresses": ["1MtdE796ekEyXnJ29eAL2xoZ9xDAq4kS9M"], "asm": "OP_DUP OP_HASH160 e525f83a2feab84bf6cecc10d995e92f3a5cd849 OP_EQUALVERIFY OP_CHECKSIG", "type": "pubkeyhash"}, "value": 0.00030732, "n": 1}], "hex": "01000000000101e9ddc8e41a22ea52f1af197292dc185aec818a46d7182e4d565908703eadd89b0100000000ffffffff025d04000000000000160014bc0c3e0d361fdcd287922438e800cd23bb4e3e630c780000000000001976a914e525f83a2feab84bf6cecc10d995e92f3a5cd84988ac024830450221009890a09ba7e341cfc41bec11537fcf25cb8aa003a8040dc4dbffd88cdd78150002201b365610f7e94222f550fbb748d6157ebdb08c879c9a593357f5e05a19ab9af00121032f9710f9bf210049b6fc0c2c9a43b9276bd071ca68b90f3d271d54683b13fce000000000", "vin": [{"txinwitness": ["30450221009890a09ba7e341cfc41bec11537fcf25cb8aa003a8040dc4dbffd88cdd78150002201b365610f7e94222f550fbb748d6157ebdb08c879c9a593357f5e05a19ab9af001", "032f9710f9bf210049b6fc0c2c9a43b9276bd071ca68b90f3d271d54683b13fce0"], "sequence": 4294967295, "scriptSig": {"hex": "", "asm": ""}, "vout": 1, "txid": "9bd8ad3e700859564d2e18d7468a81ec5a18dc927219aff152ea221ae4c8dde9"}], "txid": "22bc709222bd1fc75874b8d44278b8305490a8961e9403efb2736c712c01bee4", "blocktime": 1537873282, "version": 1, "confirmations": 11484, "time": 1537873282, "locktime": 0, "vsize": 144, "size": 226}