{"hash": "22be00ae46f4ae9d9103ad635f9d0110fa980ff395fa4bebd84e564b243d4ce4", "blockhash": "00000000000000000004ffacab907a6b429b9a5745fa0b75af4234bf69dd7176", "vout": [{"scriptPubKey": {"reqSigs": 1, "hex": "a914ec74d303df86fc507eee691f275238b9c4576a2487", "addresses": ["3PFHLuffA557zDyhwXJTzRG39z35v1KJJS"], "asm": "OP_HASH160 ec74d303df86fc507eee691f275238b9c4576a24 OP_EQUAL", "type": "scripthash"}, "value": 0.15835616, "n": 0}, {"scriptPubKey": {"reqSigs": 1, "hex": "a9149ec18cbe93147385375575186ecb1d09a140ad9887", "addresses": ["3GASYvkqBbz4PzXvwtb4z5cXbHsxaHBp92"], "asm": "OP_HASH160 9ec18cbe93147385375575186ecb1d09a140ad98 OP_EQUAL", "type": "scripthash"}, "value": 0.07309346, "n": 1}], "hex": "0100000003116d8e0e5e76deef93eff97356da26481c0319b6153751e8fb63b9eeadfc434713000000fdfd000048304502210084d6c3448630adc82b454fdaf1c3e9fa243f6f2a6fd1d05cc373f92f1f9b05b9022060845bb8261325fe88362ed8e892b40d3c01ec9779c4688eaaf37b94dbbce87401473044022027d2c459af9050241c2579c5719c3758a6ba38f67b1794156e9b9539730c349302206b1a59ee1142374751c352cbba7fe3809335fa2b5aed679be189bd369985999d014c69522103db1315c0855394d9a1fbc4bbdfdbac852587d2d84251df3ae662cdf25a3f41cc2102131d51a267aea13e44d6f4af111f78f36277b6ab66ba73d71df36ae1d5257a02210211d67812967de3640bab1331acd585d255e9ef3b93a086db9052999af3f3eb0653aeffffffff116d8e0e5e76deef93eff97356da26481c0319b6153751e8fb63b9eeadfc434714000000fdfe0000483045022100efc462e19f0cd575bdb175ee146aea59d0fd3f54976bda935f362ff89606b0880220119813abd87c66d0e5a4e6b34bc97c9099b6fef627cb3cfc9723f74f38c8b70b01483045022100dafe893b56491632201b7748ac500ff761cc0a68d87801daa1f3f6556423b42902204d1521e412eba52018b7bfdb162acd0ad327935c43ac39c006a9b32002cf1d02014c69522103413f710a8ad3708837a8d704f59e3c81ff6245d1e5533f07be9099a0d3ee1711210381b31910c38ae6604a7b000f9b58653eb7492eca8c51efdc6dc0aa7c55c1ee6c21031bb5d1d88cf711af99ad3f403b189e35f0d25bedd6db06fa92900c67b632edc153aeffffffff116d8e0e5e76deef93eff97356da26481c0319b6153751e8fb63b9eeadfc434715000000fdfd0000483045022100a13baed0edf70b7c48493dab1627de7eb48d6a9c9e7111a3b75c1a06ca6d3be40220277227ef08b41def0f5e04386bc75d1b429109038fbbb33d146be240dc71bd6a014730440220114d1d3fce9f801be1b6d94a01c1409bb927b29e839f6e33364f8acda19778fd022045a688c9d2fb849477c11175a0aaf6b8db00a03a698908a030330edf8d6e369d014c6952210208cff42579802369e11e6740fbd7cbd35e4c6f4ed34d244fcd93cdc44d3587ef2102a9bb41b499831a3e0c86e7784b3c9bd66f70684e4ea35f0d46d5af443923b36a2103e31810a2009965bf9fe38cab78c1ea549945b1f8bcda08ecb94b4ffde175b5a153aeffffffff02e0a1f1000000000017a914ec74d303df86fc507eee691f275238b9c4576a248722886f000000000017a9149ec18cbe93147385375575186ecb1d09a140ad988700000000", "vin": [{"sequence": 4294967295, "scriptSig": {"hex": "0048304502210084d6c3448630adc82b454fdaf1c3e9fa243f6f2a6fd1d05cc373f92f1f9b05b9022060845bb8261325fe88362ed8e892b40d3c01ec9779c4688eaaf37b94dbbce87401473044022027d2c459af9050241c2579c5719c3758a6ba38f67b1794156e9b9539730c349302206b1a59ee1142374751c352cbba7fe3809335fa2b5aed679be189bd369985999d014c69522103db1315c0855394d9a1fbc4bbdfdbac852587d2d84251df3ae662cdf25a3f41cc2102131d51a267aea13e44d6f4af111f78f36277b6ab66ba73d71df36ae1d5257a02210211d67812967de3640bab1331acd585d255e9ef3b93a086db9052999af3f3eb0653ae", "asm": "0 304502210084d6c3448630adc82b454fdaf1c3e9fa243f6f2a6fd1d05cc373f92f1f9b05b9022060845bb8261325fe88362ed8e892b40d3c01ec9779c4688eaaf37b94dbbce874[ALL] 3044022027d2c459af9050241c2579c5719c3758a6ba38f67b1794156e9b9539730c349302206b1a59ee1142374751c352cbba7fe3809335fa2b5aed679be189bd369985999d[ALL] 522103db1315c0855394d9a1fbc4bbdfdbac852587d2d84251df3ae662cdf25a3f41cc2102131d51a267aea13e44d6f4af111f78f36277b6ab66ba73d71df36ae1d5257a02210211d67812967de3640bab1331acd585d255e9ef3b93a086db9052999af3f3eb0653ae"}, "vout": 19, "txid": "4743fcadeeb963fbe8513715b619031c4826da5673f9ef93efde765e0e8e6d11"}, {"sequence": 4294967295, "scriptSig": {"hex": "00483045022100efc462e19f0cd575bdb175ee146aea59d0fd3f54976bda935f362ff89606b0880220119813abd87c66d0e5a4e6b34bc97c9099b6fef627cb3cfc9723f74f38c8b70b01483045022100dafe893b56491632201b7748ac500ff761cc0a68d87801daa1f3f6556423b42902204d1521e412eba52018b7bfdb162acd0ad327935c43ac39c006a9b32002cf1d02014c69522103413f710a8ad3708837a8d704f59e3c81ff6245d1e5533f07be9099a0d3ee1711210381b31910c38ae6604a7b000f9b58653eb7492eca8c51efdc6dc0aa7c55c1ee6c21031bb5d1d88cf711af99ad3f403b189e35f0d25bedd6db06fa92900c67b632edc153ae", "asm": "0 3045022100efc462e19f0cd575bdb175ee146aea59d0fd3f54976bda935f362ff89606b0880220119813abd87c66d0e5a4e6b34bc97c9099b6fef627cb3cfc9723f74f38c8b70b[ALL] 3045022100dafe893b56491632201b7748ac500ff761cc0a68d87801daa1f3f6556423b42902204d1521e412eba52018b7bfdb162acd0ad327935c43ac39c006a9b32002cf1d02[ALL] 522103413f710a8ad3708837a8d704f59e3c81ff6245d1e5533f07be9099a0d3ee1711210381b31910c38ae6604a7b000f9b58653eb7492eca8c51efdc6dc0aa7c55c1ee6c21031bb5d1d88cf711af99ad3f403b189e35f0d25bedd6db06fa92900c67b632edc153ae"}, "vout": 20, "txid": "4743fcadeeb963fbe8513715b619031c4826da5673f9ef93efde765e0e8e6d11"}, {"sequence": 4294967295, "scriptSig": {"hex": "00483045022100a13baed0edf70b7c48493dab1627de7eb48d6a9c9e7111a3b75c1a06ca6d3be40220277227ef08b41def0f5e04386bc75d1b429109038fbbb33d146be240dc71bd6a014730440220114d1d3fce9f801be1b6d94a01c1409bb927b29e839f6e33364f8acda19778fd022045a688c9d2fb849477c11175a0aaf6b8db00a03a698908a030330edf8d6e369d014c6952210208cff42579802369e11e6740fbd7cbd35e4c6f4ed34d244fcd93cdc44d3587ef2102a9bb41b499831a3e0c86e7784b3c9bd66f70684e4ea35f0d46d5af443923b36a2103e31810a2009965bf9fe38cab78c1ea549945b1f8bcda08ecb94b4ffde175b5a153ae", "asm": "0 3045022100a13baed0edf70b7c48493dab1627de7eb48d6a9c9e7111a3b75c1a06ca6d3be40220277227ef08b41def0f5e04386bc75d1b429109038fbbb33d146be240dc71bd6a[ALL] 30440220114d1d3fce9f801be1b6d94a01c1409bb927b29e839f6e33364f8acda19778fd022045a688c9d2fb849477c11175a0aaf6b8db00a03a698908a030330edf8d6e369d[ALL] 52210208cff42579802369e11e6740fbd7cbd35e4c6f4ed34d244fcd93cdc44d3587ef2102a9bb41b499831a3e0c86e7784b3c9bd66f70684e4ea35f0d46d5af443923b36a2103e31810a2009965bf9fe38cab78c1ea549945b1f8bcda08ecb94b4ffde175b5a153ae"}, "vout": 21, "txid": "4743fcadeeb963fbe8513715b619031c4826da5673f9ef93efde765e0e8e6d11"}], "txid": "22be00ae46f4ae9d9103ad635f9d0110fa980ff395fa4bebd84e564b243d4ce4", "blocktime": 1537875543, "version": 1, "confirmations": 11464, "time": 1537875543, "locktime": 0, "vsize": 963, "size": 963}