{"hash": "22bfdd223da22a5dda0237a8b0dd2f1b8ec8f81433c8593f545509b2570f28f1", "blockhash": "0000000000000000000dcc0f55137456b1a82d3642486a52398922ac4d620174", "vout": [{"scriptPubKey": {"reqSigs": 1, "hex": "76a9143f21073e4132b77b2f000585386905e3969f8e9688ac", "addresses": ["16ko8w2CuKir21feAMVJiaoD6RbRboKWHG"], "asm": "OP_DUP OP_HASH160 3f21073e4132b77b2f000585386905e3969f8e96 OP_EQUALVERIFY OP_CHECKSIG", "type": "pubkeyhash"}, "value": 0.00026, "n": 0}, {"scriptPubKey": {"reqSigs": 1, "hex": "76a91459a3f1cd19236fd1bfe87c1b0ee80721ee77f8b788ac", "addresses": ["19AyY94SWD6zRB22hKsZbyV8pyzMomd2Y9"], "asm": "OP_DUP OP_HASH160 59a3f1cd19236fd1bfe87c1b0ee80721ee77f8b7 OP_EQUALVERIFY OP_CHECKSIG", "type": "pubkeyhash"}, "value": 0.136, "n": 1}], "hex": "01000000017f4a2548a92372b0984ba9caf73aed320c6f151dcc4db3bdefdb9511c8c7136c010000006a473044022061d82cc049158ad3164563e61a211f5be35b9c50aadad6334bfd6545706253ff0220230b5bd2437f8ce10e45aec488b64e3011562191ae21387e0f588cde8d54541d012103712862e3739262624ba16a91542a0a4b34dd203a83d1173bf5250a72a2aadfc2feffffff0290650000000000001976a9143f21073e4132b77b2f000585386905e3969f8e9688ac0085cf00000000001976a91459a3f1cd19236fd1bfe87c1b0ee80721ee77f8b788ac0c490800", "vin": [{"sequence": 4294967294, "scriptSig": {"hex": "473044022061d82cc049158ad3164563e61a211f5be35b9c50aadad6334bfd6545706253ff0220230b5bd2437f8ce10e45aec488b64e3011562191ae21387e0f588cde8d54541d012103712862e3739262624ba16a91542a0a4b34dd203a83d1173bf5250a72a2aadfc2", "asm": "3044022061d82cc049158ad3164563e61a211f5be35b9c50aadad6334bfd6545706253ff0220230b5bd2437f8ce10e45aec488b64e3011562191ae21387e0f588cde8d54541d[ALL] 03712862e3739262624ba16a91542a0a4b34dd203a83d1173bf5250a72a2aadfc2"}, "vout": 1, "txid": "6c13c7c81195dbefbdb34dcc1d156f0c32ed3af7caa94b98b07223a948254a7f"}], "txid": "22bfdd223da22a5dda0237a8b0dd2f1b8ec8f81433c8593f545509b2570f28f1", "blocktime": 1537870268, "version": 1, "confirmations": 11518, "time": 1537870268, "locktime": 542988, "vsize": 225, "size": 225}