{"hash": "22cd6107535fa222005b3578297b5c7c994ac95ad8d2b611fbe5ddf397051f42", "blockhash": "0000000000000000000baef3f32e3676a92c3b2e5da21b426e4f302fc371ce76", "vout": [{"scriptPubKey": {"type": "nulldata", "hex": "6a4c50000078100001a31935327121c68845066766702940d64fa54d8eb2d19ed074892d00f8e82b058141b0a2ec44eacc0ed6654a8e1b5baa1b7d061488a23f9622091d100759d4ba30d2c37bb011d97e02cf", "asm": "OP_RETURN 000078100001a31935327121c68845066766702940d64fa54d8eb2d19ed074892d00f8e82b058141b0a2ec44eacc0ed6654a8e1b5baa1b7d061488a23f9622091d100759d4ba30d2c37bb011d97e02cf"}, "value": 0.0, "n": 0}, {"scriptPubKey": {"reqSigs": 1, "hex": "76a914e7ad8804e79a67a3921fefce7004de57d0cb7d2288ac", "addresses": ["1N7zyUsvCW8k7z25Af9KFVkVFn6QPHwZE5"], "asm": "OP_DUP OP_HASH160 e7ad8804e79a67a3921fefce7004de57d0cb7d22 OP_EQUALVERIFY OP_CHECKSIG", "type": "pubkeyhash"}, "value": 0.00633332, "n": 1}], "hex": "01000000017ce0a15a60070c550518c6ee5a4ad7ef9c9fbb7160444cbac0d664cd235c62d3000000006b483045022100c33d34b6bb1844ba9ad28c4ce6efadec1d3220a0ff5efbab99740fa37864b992022045dc4d36e53e2a5a6383e5b3c13281718a940024d63ab8ac5d4f34f45ec00a53012103d68a15789aed2612c163679f59a06f5204d43034b5680c4a16d77ca9ade05675ffffffff020000000000000000536a4c50000078100001a31935327121c68845066766702940d64fa54d8eb2d19ed074892d00f8e82b058141b0a2ec44eacc0ed6654a8e1b5baa1b7d061488a23f9622091d100759d4ba30d2c37bb011d97e02cff4a90900000000001976a914e7ad8804e79a67a3921fefce7004de57d0cb7d2288ac00000000", "vin": [{"sequence": 4294967295, "scriptSig": {"hex": "483045022100c33d34b6bb1844ba9ad28c4ce6efadec1d3220a0ff5efbab99740fa37864b992022045dc4d36e53e2a5a6383e5b3c13281718a940024d63ab8ac5d4f34f45ec00a53012103d68a15789aed2612c163679f59a06f5204d43034b5680c4a16d77ca9ade05675", "asm": "3045022100c33d34b6bb1844ba9ad28c4ce6efadec1d3220a0ff5efbab99740fa37864b992022045dc4d36e53e2a5a6383e5b3c13281718a940024d63ab8ac5d4f34f45ec00a53[ALL] 03d68a15789aed2612c163679f59a06f5204d43034b5680c4a16d77ca9ade05675"}, "vout": 0, "txid": "d3625c23cd64d6c0ba4c446071bb9f9cefd74a5aeec61805550c07605aa1e07c"}], "txid": "22cd6107535fa222005b3578297b5c7c994ac95ad8d2b611fbe5ddf397051f42", "blocktime": 1537876114, "version": 1, "confirmations": 11460, "time": 1537876114, "locktime": 0, "vsize": 284, "size": 284}