{"hash": "22d24162e92db914b7198cb3cb1ed3cf995420ac9be120d309fd12fc42698cd3", "blockhash": "000000000000000000022b45ed06c6f4ccd3cf7fb5ba4856ebd2e58215665228", "vout": [{"scriptPubKey": {"reqSigs": 1, "hex": "76a91409f6ca49249e8484575df380d9a906c67b321cd388ac", "addresses": ["1ugj1WF9CfvagctkjafgeqKdmsM2XYRsD"], "asm": "OP_DUP OP_HASH160 09f6ca49249e8484575df380d9a906c67b321cd3 OP_EQUALVERIFY OP_CHECKSIG", "type": "pubkeyhash"}, "value": 0.005, "n": 0}, {"scriptPubKey": {"reqSigs": 1, "hex": "76a9142cb02ec9f28a5c2f52e14686a0c9c3cdc97df21c88ac", "addresses": ["155HnqNMHjzSBherdujYNQZJ62E8cvtQ3G"], "asm": "OP_DUP OP_HASH160 2cb02ec9f28a5c2f52e14686a0c9c3cdc97df21c OP_EQUALVERIFY OP_CHECKSIG", "type": "pubkeyhash"}, "value": 0.01459941, "n": 1}], "hex": "0100000001c7d7d60468ea6f3e5fd7ceacd9396566bf4d5fb47507569bcd4e9ade9922d89e010000006a473044022071778bfcfd77cfec2742c74ff46d5d22be7e53d860c479d6bcab7f27a64d32aa022020f318f0f1787ca6a8a25958420e960dbb46ad8e240934a3d6e987a4599269b2012103917e300272a7297b55b3af9612d239323ef2603f268e330af11efed7eab01dfbffffffff0220a10700000000001976a91409f6ca49249e8484575df380d9a906c67b321cd388ace5461600000000001976a9142cb02ec9f28a5c2f52e14686a0c9c3cdc97df21c88ac00000000", "vin": [{"sequence": 4294967295, "scriptSig": {"hex": "473044022071778bfcfd77cfec2742c74ff46d5d22be7e53d860c479d6bcab7f27a64d32aa022020f318f0f1787ca6a8a25958420e960dbb46ad8e240934a3d6e987a4599269b2012103917e300272a7297b55b3af9612d239323ef2603f268e330af11efed7eab01dfb", "asm": "3044022071778bfcfd77cfec2742c74ff46d5d22be7e53d860c479d6bcab7f27a64d32aa022020f318f0f1787ca6a8a25958420e960dbb46ad8e240934a3d6e987a4599269b2[ALL] 03917e300272a7297b55b3af9612d239323ef2603f268e330af11efed7eab01dfb"}, "vout": 1, "txid": "9ed82299de9a4ecd9b560775b45f4dbf666539d9acced75f3e6fea6804d6d7c7"}], "txid": "22d24162e92db914b7198cb3cb1ed3cf995420ac9be120d309fd12fc42698cd3", "blocktime": 1537869901, "version": 1, "confirmations": 11522, "time": 1537869901, "locktime": 0, "vsize": 225, "size": 225}