{"hash": "22d201a62a6c554ccdb1b3fe0f55e33c63844cbc2eba602ff5da343a3509579a", "blockhash": "0000000000000000000baef3f32e3676a92c3b2e5da21b426e4f302fc371ce76", "vout": [{"scriptPubKey": {"reqSigs": 1, "hex": "76a914cace8a1ad6e58fb0a96f00554fc0dc853d6d32db88ac", "addresses": ["1KVLvN6yYUQPfYSmg6R6FeE4ELRSKyYJxK"], "asm": "OP_DUP OP_HASH160 cace8a1ad6e58fb0a96f00554fc0dc853d6d32db OP_EQUALVERIFY OP_CHECKSIG", "type": "pubkeyhash"}, "value": 0.00305984, "n": 0}, {"scriptPubKey": {"reqSigs": 1, "hex": "76a914b6363358942088db54e4f7a444e885431980515e88ac", "addresses": ["1HcSuqRDfrDQeWddSMBvGckKFpqfGrBdRJ"], "asm": "OP_DUP OP_HASH160 b6363358942088db54e4f7a444e885431980515e OP_EQUALVERIFY OP_CHECKSIG", "type": "pubkeyhash"}, "value": 0.02156006, "n": 1}], "hex": "010000000131dbbb3c9440c6d1f84617bbc1f68e2637bd7e7fc5e32a3946389c75ac01f7ec010000006b483045022100de931a80527a5b69e43d07c2f6bcb32692ed92107eafeec5de97e5d597f2c01202201d8fa7a55b266a5ae3aa43e4f5d2a74f31bfa2a91442e694eb8e4f36b8430e1a012102c8e4652ef2a570d16d8ede3f86c7e9e2104159e9f917f5dabd0e3d53c0432a0effffffff0240ab0400000000001976a914cace8a1ad6e58fb0a96f00554fc0dc853d6d32db88ace6e52000000000001976a914b6363358942088db54e4f7a444e885431980515e88ac00000000", "vin": [{"sequence": 4294967295, "scriptSig": {"hex": "483045022100de931a80527a5b69e43d07c2f6bcb32692ed92107eafeec5de97e5d597f2c01202201d8fa7a55b266a5ae3aa43e4f5d2a74f31bfa2a91442e694eb8e4f36b8430e1a012102c8e4652ef2a570d16d8ede3f86c7e9e2104159e9f917f5dabd0e3d53c0432a0e", "asm": "3045022100de931a80527a5b69e43d07c2f6bcb32692ed92107eafeec5de97e5d597f2c01202201d8fa7a55b266a5ae3aa43e4f5d2a74f31bfa2a91442e694eb8e4f36b8430e1a[ALL] 02c8e4652ef2a570d16d8ede3f86c7e9e2104159e9f917f5dabd0e3d53c0432a0e"}, "vout": 1, "txid": "ecf701ac759c3846392ae3c57f7ebd37268ef6c1bb1746f8d1c640943cbbdb31"}], "txid": "22d201a62a6c554ccdb1b3fe0f55e33c63844cbc2eba602ff5da343a3509579a", "blocktime": 1537876114, "version": 1, "confirmations": 11460, "time": 1537876114, "locktime": 0, "vsize": 226, "size": 226}