{"hash": "22d43a038ffdd98f439de20b8d87170cb1fef1908dcec905c58995d24026433d", "blockhash": "0000000000000000001f76057863aec43deb6fa401d9628bb513d65a8098bfab", "vout": [{"scriptPubKey": {"reqSigs": 1, "hex": "76a9147c72d9ded10e396ecd3476697077b760c43baa3588ac", "addresses": ["1CM2Nn93TktCniwzFEcs4sycNT1jUk85Lg"], "asm": "OP_DUP OP_HASH160 7c72d9ded10e396ecd3476697077b760c43baa35 OP_EQUALVERIFY OP_CHECKSIG", "type": "pubkeyhash"}, "value": 0.00957633, "n": 0}, {"scriptPubKey": {"reqSigs": 1, "hex": "a914cf5c534f8994d3f7e13ff5bfd5ee38dc38069e9587", "addresses": ["3LbSQ8rGvUuRjAGMeZFob2iKwnZ5DwJmTD"], "asm": "OP_HASH160 cf5c534f8994d3f7e13ff5bfd5ee38dc38069e95 OP_EQUAL", "type": "scripthash"}, "value": 0.14426, "n": 1}], "hex": "0100000001cac8bcd34d2e69a82e64f45dc74f4b0da53f1d9a1f12bb068a116820ac3d8b71000000006a47304402206f11edeacd6212a03c2ed4c86b2750dfbccf20db7237bfe6a755c68cef671e11022074856256467ef9fa1c86a2c632538e04b658d4157948d95ecefc3f6d81d7728b012102b2e0a40a7184f57e93997eb7d49f68768e99dfd3fb25e7d6e966c6dade5aedc7ffffffff02c19c0e00000000001976a9147c72d9ded10e396ecd3476697077b760c43baa3588ac901fdc000000000017a914cf5c534f8994d3f7e13ff5bfd5ee38dc38069e958700000000", "vin": [{"sequence": 4294967295, "scriptSig": {"hex": "47304402206f11edeacd6212a03c2ed4c86b2750dfbccf20db7237bfe6a755c68cef671e11022074856256467ef9fa1c86a2c632538e04b658d4157948d95ecefc3f6d81d7728b012102b2e0a40a7184f57e93997eb7d49f68768e99dfd3fb25e7d6e966c6dade5aedc7", "asm": "304402206f11edeacd6212a03c2ed4c86b2750dfbccf20db7237bfe6a755c68cef671e11022074856256467ef9fa1c86a2c632538e04b658d4157948d95ecefc3f6d81d7728b[ALL] 02b2e0a40a7184f57e93997eb7d49f68768e99dfd3fb25e7d6e966c6dade5aedc7"}, "vout": 0, "txid": "718b3dac2068118a06bb121f9a1d3fa50d4b4fc75df4642ea8692e4dd3bcc8ca"}], "txid": "22d43a038ffdd98f439de20b8d87170cb1fef1908dcec905c58995d24026433d", "blocktime": 1537873891, "version": 1, "confirmations": 11476, "time": 1537873891, "locktime": 0, "vsize": 223, "size": 223}