{"hash": "c5eee903291a0180e7e3d8049aae0c4b7485a57e6b969cbce9ba79919efa95ad", "blockhash": "0000000000000000000baef3f32e3676a92c3b2e5da21b426e4f302fc371ce76", "vout": [{"scriptPubKey": {"reqSigs": 1, "hex": "76a91425b4ab5ac0dd985b6aca7181129395f1439a76de88ac", "addresses": ["14SNSE29p13UD32X64D4coT7hva5cisg4h"], "asm": "OP_DUP OP_HASH160 25b4ab5ac0dd985b6aca7181129395f1439a76de OP_EQUALVERIFY OP_CHECKSIG", "type": "pubkeyhash"}, "value": 0.0024686, "n": 0}, {"scriptPubKey": {"reqSigs": 1, "hex": "a914ec1c6690920ec149677b28d476c2cc2f644f38ab87", "addresses": ["3PDTR8Kbr7qvh6EqHmVcsMWMWJmGUHWFc7"], "asm": "OP_HASH160 ec1c6690920ec149677b28d476c2cc2f644f38ab OP_EQUAL", "type": "scripthash"}, "value": 0.01106733, "n": 1}], "hex": "020000000001022a3e2e15fe75724ae724232d90ac4c579fbba157861290a7acea01d99041a4fe0f00000017160014c3d13a343d1656a47cd79914244ef0085c342189feffffff3bb0bc112f494efaad7881c2a67fb4faa6b1132fc3df01a4e67f223c1b2a008701000000171600144493d94b105096ffef863fc0ea1a74f4aa1a3630feffffff024cc40300000000001976a91425b4ab5ac0dd985b6aca7181129395f1439a76de88ac2de310000000000017a914ec1c6690920ec149677b28d476c2cc2f644f38ab8702473044022057db4e5734cbd4acf102aa72bf44ace73bcaf4443987078c1a665bcd0b68579402204e2c816045ef3a1b1fdc65de3d1928e89568235aff21a9cc16a636358925d1bc01210330fdc255d5f3ab22b5f23bf408d1ac3f96582278e094da9e5dcb4b3fc02bfed70247304402207ff78f14967a64d95beec45188355a8d99df05f2a36ecad7143018f17c43d91b02203f4df9a131a21971fb6fe3837a548f87eea4d6407318ee350d169104a1bea2b10121024a44caa3d819e14fe8bbef4c45b409dbada33ca8978a71e9ea28dcd45330553417490800", "vin": [{"txinwitness": ["3044022057db4e5734cbd4acf102aa72bf44ace73bcaf4443987078c1a665bcd0b68579402204e2c816045ef3a1b1fdc65de3d1928e89568235aff21a9cc16a636358925d1bc01", "0330fdc255d5f3ab22b5f23bf408d1ac3f96582278e094da9e5dcb4b3fc02bfed7"], "sequence": 4294967294, "scriptSig": {"hex": "160014c3d13a343d1656a47cd79914244ef0085c342189", "asm": "0014c3d13a343d1656a47cd79914244ef0085c342189"}, "vout": 15, "txid": "fea44190d901eaaca790128657a1bb9f574cac902d2324e74a7275fe152e3e2a"}, {"txinwitness": ["304402207ff78f14967a64d95beec45188355a8d99df05f2a36ecad7143018f17c43d91b02203f4df9a131a21971fb6fe3837a548f87eea4d6407318ee350d169104a1bea2b101", "024a44caa3d819e14fe8bbef4c45b409dbada33ca8978a71e9ea28dcd453305534"], "sequence": 4294967294, "scriptSig": {"hex": "1600144493d94b105096ffef863fc0ea1a74f4aa1a3630", "asm": "00144493d94b105096ffef863fc0ea1a74f4aa1a3630"}, "vout": 1, "txid": "87002a1b3c227fe6a401dfc32f13b1a6fab47fa6c28178adfa4e492f11bcb03b"}], "txid": "22d540a745ae31bef7181928602b78d6bc762b2020f4c76f425d0c18c44bb395", "blocktime": 1537876114, "version": 2, "confirmations": 11461, "time": 1537876114, "locktime": 542999, "vsize": 258, "size": 420}