{"hash": "164137d8979c878da959e7bde19f1f5223a0036ead125e9a901c9530bd0da737", "blockhash": "0000000000000000000e13cef7c366c0283d82e591d1acd082e914b08063cdf1", "vout": [{"scriptPubKey": {"reqSigs": 1, "hex": "a9146225818dc26cba4b713cf58a276ac840c65121e487", "addresses": ["3Ady5JxqMGe5YBSyxJ9QJL9KWbkzQiyg9x"], "asm": "OP_HASH160 6225818dc26cba4b713cf58a276ac840c65121e4 OP_EQUAL", "type": "scripthash"}, "value": 0.00998403, "n": 0}, {"scriptPubKey": {"reqSigs": 1, "hex": "76a914809ef0f0b0e6469eeb1749992cafa98ef11ad43488ac", "addresses": ["1Cj5tysek52iD1sKC69tcoA8bp6o3HBTY2"], "asm": "OP_DUP OP_HASH160 809ef0f0b0e6469eeb1749992cafa98ef11ad434 OP_EQUALVERIFY OP_CHECKSIG", "type": "pubkeyhash"}, "value": 0.00589147, "n": 1}], "hex": "02000000000107014a2c3a52d3f2bdd765271277ae8184f5699e649deace2d667fa6fb8692e1aa00000000171600141ef548d23aa2a457f6231fcd161667abc9cf3f6efeffffff093503a18869faa9353069952992d17c9a0dd59de53240af23d702a0c51ef5160b00000017160014477763af0069789998a07ce2a572b681f20b476bfeffffff093503a18869faa9353069952992d17c9a0dd59de53240af23d702a0c51ef5160c00000017160014ba21cd54dc777a894d35a2cd3ede7c2fea608c6afeffffff0bad862195a797e591653126f3dd6365b5eb89546cece46021c416f9617bf7851500000017160014a89266d611e3f3e287c1751085ca13f3852ed0e0feffffff5560089ebcbaedfbd2df8de2bb8ba6b1d2fc25bad91cc97e8d453e538149e1c81c0000001716001424e2e543c70a4bd382e6d08532d808fe60c5e8dafeffffff63a59247bf448697908e8e400ab2611c02668bc25d1853e0fbc8d12952864eca0000000017160014356d60f03c8c787d3e2151cbc694051cd3b7c880feffffff87411bbf370b413f6c573b6a07490daaa2401274364cbe6a13cc73716a3e0ae913000000171600149898ccb9c8695327fa3226f85a7f469ca7337982feffffff02033c0f000000000017a9146225818dc26cba4b713cf58a276ac840c65121e4875bfd0800000000001976a914809ef0f0b0e6469eeb1749992cafa98ef11ad43488ac02483045022100a2308f486b343226ed63ce4730643c86a5cc6d0f683ba6609aa97d3e556321590220542bf1529551ec0e6ce32296e321b79cb46d274e052a6bbcb458539eba7e2c96012103a951db44fb42861e5cc626a549b1770afd08576e0cb2516257a2c6cde812dbfe02473044022026cf8a387f3b1fdd66103f80c9630bd3ac17382d198f83b762087d5744958101022001ecf57e29ee35fc69cb7fbea4dc49843e0d813a59d66d50a890ea61177448d20121034e017ba23193d8a71c134c23b64aa34b437c26a9e474f56778756b8cbcfec95f024830450221009ed9cd63547ecddcf1d42d83f7090a221a7b800df7ba6ebfb349e322977e8c4a022061a53f197e43ccb4cd345fd6263ae428b858d5ea8461cb7fd5695c9f0c573465012102fdd2bbc50798ea2a042b1155d27fbc640585e6ccee449ea01875b658b0faf8da02483045022100ce846235569ce51aead64e2e089c40e3248b700c15c47e266f8c426372d7f31802201906241d73c1dae884acf07297fce30e4bfa1a8bd3b33c0877d3083f20b18907012103284e9551344e8e3a98f2c62940ce08de39b0b207a4a3b40e5411037cad866c1c02483045022100ead2dc2bf0897937b59d84e7d2d451843e707f8b986444c52a357a3a00ae131102202b9f41ef29c750e0dd8234eca3fff04d162eecfa71c5d8818f8a4da3c2b9b8b80121026bb78c286ce69fbd3201a63c1ee165bd49fe62a39e94a91e8d53f0824f5eadba0247304402203f8dd86ffd25996c470354226d12c5e1e1ea4df78bb5ec061ef67f6c5c604cbe02203e8e8f42d9b1312df8d66271c173fa4a0349afabafa1807f6479a72bdbc410a90121021d8efc2228d12ba5e230cd765cbd9220923e15e46eae913882b68b3593a68c8802473044022001f1b357557383face8df4df77d69974c70080b58ba104d04d8bec1ea5b5b05202202a36bd1cc4624c14a3f53fc03f62ed664cbf902c8ff01d391bd5b9a680cf54e0012102a8fb0b533fd05da32c89dca2c98ed5b0f25a8ff7a7e331279548c953953c44e310490800", "vin": [{"txinwitness": ["3045022100a2308f486b343226ed63ce4730643c86a5cc6d0f683ba6609aa97d3e556321590220542bf1529551ec0e6ce32296e321b79cb46d274e052a6bbcb458539eba7e2c9601", "03a951db44fb42861e5cc626a549b1770afd08576e0cb2516257a2c6cde812dbfe"], "sequence": 4294967294, "scriptSig": {"hex": "1600141ef548d23aa2a457f6231fcd161667abc9cf3f6e", "asm": "00141ef548d23aa2a457f6231fcd161667abc9cf3f6e"}, "vout": 0, "txid": "aae19286fba67f662dceea9d649e69f58481ae77122765d7bdf2d3523a2c4a01"}, {"txinwitness": ["3044022026cf8a387f3b1fdd66103f80c9630bd3ac17382d198f83b762087d5744958101022001ecf57e29ee35fc69cb7fbea4dc49843e0d813a59d66d50a890ea61177448d201", "034e017ba23193d8a71c134c23b64aa34b437c26a9e474f56778756b8cbcfec95f"], "sequence": 4294967294, "scriptSig": {"hex": "160014477763af0069789998a07ce2a572b681f20b476b", "asm": "0014477763af0069789998a07ce2a572b681f20b476b"}, "vout": 11, "txid": "16f51ec5a002d723af4032e59dd50d9a7cd1922995693035a9fa6988a1033509"}, {"txinwitness": ["30450221009ed9cd63547ecddcf1d42d83f7090a221a7b800df7ba6ebfb349e322977e8c4a022061a53f197e43ccb4cd345fd6263ae428b858d5ea8461cb7fd5695c9f0c57346501", "02fdd2bbc50798ea2a042b1155d27fbc640585e6ccee449ea01875b658b0faf8da"], "sequence": 4294967294, "scriptSig": {"hex": "160014ba21cd54dc777a894d35a2cd3ede7c2fea608c6a", "asm": "0014ba21cd54dc777a894d35a2cd3ede7c2fea608c6a"}, "vout": 12, "txid": "16f51ec5a002d723af4032e59dd50d9a7cd1922995693035a9fa6988a1033509"}, {"txinwitness": ["3045022100ce846235569ce51aead64e2e089c40e3248b700c15c47e266f8c426372d7f31802201906241d73c1dae884acf07297fce30e4bfa1a8bd3b33c0877d3083f20b1890701", "03284e9551344e8e3a98f2c62940ce08de39b0b207a4a3b40e5411037cad866c1c"], "sequence": 4294967294, "scriptSig": {"hex": "160014a89266d611e3f3e287c1751085ca13f3852ed0e0", "asm": "0014a89266d611e3f3e287c1751085ca13f3852ed0e0"}, "vout": 21, "txid": "85f77b61f916c42160e4ec6c5489ebb56563ddf326316591e597a7952186ad0b"}, {"txinwitness": ["3045022100ead2dc2bf0897937b59d84e7d2d451843e707f8b986444c52a357a3a00ae131102202b9f41ef29c750e0dd8234eca3fff04d162eecfa71c5d8818f8a4da3c2b9b8b801", "026bb78c286ce69fbd3201a63c1ee165bd49fe62a39e94a91e8d53f0824f5eadba"], "sequence": 4294967294, "scriptSig": {"hex": "16001424e2e543c70a4bd382e6d08532d808fe60c5e8da", "asm": "001424e2e543c70a4bd382e6d08532d808fe60c5e8da"}, "vout": 28, "txid": "c8e14981533e458d7ec91cd9ba25fcd2b1a68bbbe28ddfd2fbedbabc9e086055"}, {"txinwitness": ["304402203f8dd86ffd25996c470354226d12c5e1e1ea4df78bb5ec061ef67f6c5c604cbe02203e8e8f42d9b1312df8d66271c173fa4a0349afabafa1807f6479a72bdbc410a901", "021d8efc2228d12ba5e230cd765cbd9220923e15e46eae913882b68b3593a68c88"], "sequence": 4294967294, "scriptSig": {"hex": "160014356d60f03c8c787d3e2151cbc694051cd3b7c880", "asm": "0014356d60f03c8c787d3e2151cbc694051cd3b7c880"}, "vout": 0, "txid": "ca4e865229d1c8fbe053185dc28b66021c61b20a408e8e90978644bf4792a563"}, {"txinwitness": ["3044022001f1b357557383face8df4df77d69974c70080b58ba104d04d8bec1ea5b5b05202202a36bd1cc4624c14a3f53fc03f62ed664cbf902c8ff01d391bd5b9a680cf54e001", "02a8fb0b533fd05da32c89dca2c98ed5b0f25a8ff7a7e331279548c953953c44e3"], "sequence": 4294967294, "scriptSig": {"hex": "1600149898ccb9c8695327fa3226f85a7f469ca7337982", "asm": "00149898ccb9c8695327fa3226f85a7f469ca7337982"}, "vout": 19, "txid": "e90a3e6a7173cc136abe4c36741240a2aa0d49076a3b576c3f410b37bf1b4187"}], "txid": "22d5bf72d0cb1f9af9a9f388252956446633bac897627b155908c1a47b8ba642", "blocktime": 1537871767, "version": 2, "confirmations": 11495, "time": 1537871767, "locktime": 542992, "vsize": 713, "size": 1279}