{"hash": "b4ea93921ad27fd1bc3b371dba4d5fd707d3b7cfbce81728c8cd0793e884ac22", "blockhash": "0000000000000000001cda96e906b7601b7a6fb1a3b62bca570a9e5d8f4b3de1", "vout": [{"scriptPubKey": {"reqSigs": 1, "hex": "76a914ccd39d78962a014cf0a5ba3569ca6feb88bd4e5f88ac", "addresses": ["1Kg2MQmZ9fENw3QDvXXrsEuPwURJYAxMKg"], "asm": "OP_DUP OP_HASH160 ccd39d78962a014cf0a5ba3569ca6feb88bd4e5f OP_EQUALVERIFY OP_CHECKSIG", "type": "pubkeyhash"}, "value": 0.00054464, "n": 0}, {"scriptPubKey": {"reqSigs": 1, "hex": "a91408c364340a91e77e4376b26fdad3b5aedc5661f787", "addresses": ["32VMQ7Th4qGhbDYY68FZrfSF9hTbsPivgt"], "asm": "OP_HASH160 08c364340a91e77e4376b26fdad3b5aedc5661f7 OP_EQUAL", "type": "scripthash"}, "value": 0.02964992, "n": 1}], "hex": "01000000000101c62efa624a64f721f051466d3fffacd2ed52ab19485c1b52bb9c34d2012b5b6d010000002322002027561ef61439ff4994ea3793249bbb358319edb59fff63c1eeada48f299e81b5ffffffff02c0d40000000000001976a914ccd39d78962a014cf0a5ba3569ca6feb88bd4e5f88ac003e2d000000000017a91408c364340a91e77e4376b26fdad3b5aedc5661f7870400483045022100cdcab9bacee081758f3d80adb3213854737d27fb16d212a8042bb566d51c1d0f02207535fa4019046dd7a749c1d896ab95e9a437fb2e191952576df3d16e18942c5901473044022032ec4eed4a5e0b8e60b4f4669409fce4895e6463dbab41f563aecfe5000ec06b02200546f2c19b01e0e02a5a478ee8ea919306c438cdedcbe42970bdaca88de783a40147522102f484437eae67e7d1f9cf7235bd52510c99f379408a1f6fe737011d4bc259358a2103871fc2ca08e6950b38867e8e6a0e94ee625223d3aa0df5c65f414c6d784467e252ae00000000", "vin": [{"txinwitness": ["", "3045022100cdcab9bacee081758f3d80adb3213854737d27fb16d212a8042bb566d51c1d0f02207535fa4019046dd7a749c1d896ab95e9a437fb2e191952576df3d16e18942c5901", "3044022032ec4eed4a5e0b8e60b4f4669409fce4895e6463dbab41f563aecfe5000ec06b02200546f2c19b01e0e02a5a478ee8ea919306c438cdedcbe42970bdaca88de783a401", "522102f484437eae67e7d1f9cf7235bd52510c99f379408a1f6fe737011d4bc259358a2103871fc2ca08e6950b38867e8e6a0e94ee625223d3aa0df5c65f414c6d784467e252ae"], "sequence": 4294967295, "scriptSig": {"hex": "22002027561ef61439ff4994ea3793249bbb358319edb59fff63c1eeada48f299e81b5", "asm": "002027561ef61439ff4994ea3793249bbb358319edb59fff63c1eeada48f299e81b5"}, "vout": 1, "txid": "6d5b2b01d2349cbb521b5c4819ab52edd2acff3f6d4651f021f7644a62fa2ec6"}], "txid": "22dbedc44067ecc6453d53b19c555f8a7273f75be9540792df2f207a15532407", "blocktime": 1537873282, "version": 1, "confirmations": 11484, "time": 1537873282, "locktime": 0, "vsize": 208, "size": 373}