{"hash": "22e1adeb1d6d38166581036a79a257972a3f811bdffa02741c003e4e51665f8e", "blockhash": "00000000000000000004ffacab907a6b429b9a5745fa0b75af4234bf69dd7176", "vout": [{"scriptPubKey": {"reqSigs": 1, "hex": "76a9141563e2a55ced58715e6c5d114c00e172376ce79588ac", "addresses": ["12x6rBdQMiWFqnsdA94EXRLagHayrGr6CC"], "asm": "OP_DUP OP_HASH160 1563e2a55ced58715e6c5d114c00e172376ce795 OP_EQUALVERIFY OP_CHECKSIG", "type": "pubkeyhash"}, "value": 0.004853, "n": 0}, {"scriptPubKey": {"reqSigs": 1, "hex": "76a914dced6390e2334425cd2432972f2b1fc9357466f288ac", "addresses": ["1M9A3Gw1GK841aYFMy1JFFbTTajtcgqqXs"], "asm": "OP_DUP OP_HASH160 dced6390e2334425cd2432972f2b1fc9357466f2 OP_EQUALVERIFY OP_CHECKSIG", "type": "pubkeyhash"}, "value": 0.00014854, "n": 1}], "hex": "020000000333b53bd0cea21f6d08390f0bbc9b91365d920a06b65f79386371bb506e3b9321010000006b483045022100aae5d65d90a9ef32aefe540dd5a363f6004b076ce9098002b09ab2dd2d0189c8022033c24bcb18cb40bade250b319f390c15bdcd6614f2cf6fe681459840f75e1e9f012103e0fa7c61551ca4a2ff8224d8e47343025909624c887277e40efcffbc83ee274efdffffff718d6fca8f5e63a8b2ba4b8ff3a0de65da4aa756c0560b448ff569a5ea892315010000006b483045022100be14333f3e646b3520434e7eefdc973eb5ae14b7f00ff334c0b7d95437e9398c022027e5f6a460c9f70cf8f72c5191957f99c7771ea637144728c3ddb273e130ff86012102d72dbe809ef16757d733391e198e82f9ecec36b6aabf03c0e454617c823ead06fdffffffe26bb9324507055997169f0c3fad83f8bc8e57d6ba34c9cb3fedbbaaee0bbc5d010000006b483045022100878581ef29c06fa904137bc373e2e7d62f02fe6e3ddc5ab7c70a277a41696b5a022019f1ef14ac2324d57398208559400430a5502f7acb7a71b7b652770205051407012102f2064f52b08e0ae2b936d3472949d66ea6f5e3a7607b94aed34d61a5ce714468fdffffff02b4670700000000001976a9141563e2a55ced58715e6c5d114c00e172376ce79588ac063a0000000000001976a914dced6390e2334425cd2432972f2b1fc9357466f288ac16490800", "vin": [{"sequence": 4294967293, "scriptSig": {"hex": "483045022100aae5d65d90a9ef32aefe540dd5a363f6004b076ce9098002b09ab2dd2d0189c8022033c24bcb18cb40bade250b319f390c15bdcd6614f2cf6fe681459840f75e1e9f012103e0fa7c61551ca4a2ff8224d8e47343025909624c887277e40efcffbc83ee274e", "asm": "3045022100aae5d65d90a9ef32aefe540dd5a363f6004b076ce9098002b09ab2dd2d0189c8022033c24bcb18cb40bade250b319f390c15bdcd6614f2cf6fe681459840f75e1e9f[ALL] 03e0fa7c61551ca4a2ff8224d8e47343025909624c887277e40efcffbc83ee274e"}, "vout": 1, "txid": "21933b6e50bb716338795fb6060a925d36919bbc0b0f39086d1fa2ced03bb533"}, {"sequence": 4294967293, "scriptSig": {"hex": "483045022100be14333f3e646b3520434e7eefdc973eb5ae14b7f00ff334c0b7d95437e9398c022027e5f6a460c9f70cf8f72c5191957f99c7771ea637144728c3ddb273e130ff86012102d72dbe809ef16757d733391e198e82f9ecec36b6aabf03c0e454617c823ead06", "asm": "3045022100be14333f3e646b3520434e7eefdc973eb5ae14b7f00ff334c0b7d95437e9398c022027e5f6a460c9f70cf8f72c5191957f99c7771ea637144728c3ddb273e130ff86[ALL] 02d72dbe809ef16757d733391e198e82f9ecec36b6aabf03c0e454617c823ead06"}, "vout": 1, "txid": "152389eaa569f58f440b56c056a74ada65dea0f38f4bbab2a8635e8fca6f8d71"}, {"sequence": 4294967293, "scriptSig": {"hex": "483045022100878581ef29c06fa904137bc373e2e7d62f02fe6e3ddc5ab7c70a277a41696b5a022019f1ef14ac2324d57398208559400430a5502f7acb7a71b7b652770205051407012102f2064f52b08e0ae2b936d3472949d66ea6f5e3a7607b94aed34d61a5ce714468", "asm": "3045022100878581ef29c06fa904137bc373e2e7d62f02fe6e3ddc5ab7c70a277a41696b5a022019f1ef14ac2324d57398208559400430a5502f7acb7a71b7b652770205051407[ALL] 02f2064f52b08e0ae2b936d3472949d66ea6f5e3a7607b94aed34d61a5ce714468"}, "vout": 1, "txid": "5dbc0beeaabbed3fcbc934bad6578ebcf883ad3f0c9f16975905074532b96be2"}], "txid": "22e1adeb1d6d38166581036a79a257972a3f811bdffa02741c003e4e51665f8e", "blocktime": 1537875543, "version": 2, "confirmations": 11464, "time": 1537875543, "locktime": 542998, "vsize": 522, "size": 522}