{"hash": "fb9cfd90bd8b99b2dc836ff878f785ee6d3ae7c040bde6b3fb891e42ff611da9", "blockhash": "00000000000000000017f5eb5941039fbcee6240d03bc1f2f8e35350df66a1d8", "vout": [{"scriptPubKey": {"reqSigs": 1, "hex": "0014dbfd5634429538fb66c68fbdff69c4c31da4feb4", "addresses": ["bc1qm074vdzzj5u0kekx377l76wycvw6fl45eek4x9"], "asm": "0 dbfd5634429538fb66c68fbdff69c4c31da4feb4", "type": "witness_v0_keyhash"}, "value": 0.2891198, "n": 0}, {"scriptPubKey": {"reqSigs": 1, "hex": "a914da4218eb460deb66408e3ef7097d77c398aa468c87", "addresses": ["3Mb4QtNNaswEEB1Qet5H675bMYoPTDnYMD"], "asm": "OP_HASH160 da4218eb460deb66408e3ef7097d77c398aa468c OP_EQUAL", "type": "scripthash"}, "value": 0.10532543, "n": 1}], "hex": "01000000000101d485374d086da3463ce2acac8dd243f144ba227b689a2567d233bea2f1677c9c0000000000ffffffff026c29b90100000000160014dbfd5634429538fb66c68fbdff69c4c31da4feb4bfb6a0000000000017a914da4218eb460deb66408e3ef7097d77c398aa468c8702473044022056ea1b36af36164d1b57066ee8a8f89d74036aad003dd7aa39cde933f33983580220697cc5cae4a83ce7c1eeded95b10da75db2c953653004c37a572305dbf6a28ab0121024a4402c11731424d91335b8e6982d437ecd4bc8be5a7fbe0e7ce053ecdc1c2f300000000", "vin": [{"txinwitness": ["3044022056ea1b36af36164d1b57066ee8a8f89d74036aad003dd7aa39cde933f33983580220697cc5cae4a83ce7c1eeded95b10da75db2c953653004c37a572305dbf6a28ab01", "024a4402c11731424d91335b8e6982d437ecd4bc8be5a7fbe0e7ce053ecdc1c2f3"], "sequence": 4294967295, "scriptSig": {"hex": "", "asm": ""}, "vout": 0, "txid": "9c7c67f1a2be33d267259a687b22ba44f143d28dacace23c46a36d084d3785d4"}], "txid": "22e38cba009da945b590e21b3a1a87230d4c6885b9086b9bf33776ac9c60cede", "blocktime": 1537874412, "version": 1, "confirmations": 11467, "time": 1537874412, "locktime": 0, "vsize": 142, "size": 223}