{"hash": "cc515b73d02a428de606f4a95f5ea554b067c22c87841d4ada7009dcb8aff4b4", "blockhash": "0000000000000000000dcc0f55137456b1a82d3642486a52398922ac4d620174", "vout": [{"scriptPubKey": {"reqSigs": 1, "hex": "a91490873c537553704ceedfa02ee3d65c6a5bcf69c887", "addresses": ["3EsDEWEoQinU73uFFtVUGMezhzP94xQCqc"], "asm": "OP_HASH160 90873c537553704ceedfa02ee3d65c6a5bcf69c8 OP_EQUAL", "type": "scripthash"}, "value": 0.01020617, "n": 0}, {"scriptPubKey": {"reqSigs": 1, "hex": "00140b6e618777399859cd77fff60e93d11bba3058f2", "addresses": ["bc1qpdhxrpmh8xv9nnthllmqay73rwarqk8j4z08wu"], "asm": "0 0b6e618777399859cd77fff60e93d11bba3058f2", "type": "witness_v0_keyhash"}, "value": 0.00478803, "n": 1}], "hex": "01000000000101d16047be802825dd060f61af4f5b35afe311cdc1a8e1d9bc9ea0077a5823c6800100000017160014b769390c23cd4100219296f5fb0b84b0d86bee3bffffffff02c9920f000000000017a91490873c537553704ceedfa02ee3d65c6a5bcf69c887534e0700000000001600140b6e618777399859cd77fff60e93d11bba3058f20247304402203c585d8855106e9f2ce9e8cb9cbeddaada853985ee7f427824be09e61c6ed425022065cc4d1894c2647a73021c53b5ff4b63e8a91f7c58913672499ab1310c85e9050121030c8e6ea15620de32c3f7578dfeca77408ee0977621683373a7ef1c1ca87a5b2200000000", "vin": [{"txinwitness": ["304402203c585d8855106e9f2ce9e8cb9cbeddaada853985ee7f427824be09e61c6ed425022065cc4d1894c2647a73021c53b5ff4b63e8a91f7c58913672499ab1310c85e90501", "030c8e6ea15620de32c3f7578dfeca77408ee0977621683373a7ef1c1ca87a5b22"], "sequence": 4294967295, "scriptSig": {"hex": "160014b769390c23cd4100219296f5fb0b84b0d86bee3b", "asm": "0014b769390c23cd4100219296f5fb0b84b0d86bee3b"}, "vout": 1, "txid": "80c623587a07a09ebcd9e1a8c1cd11e3af355b4faf610f06dd252880be4760d1"}], "txid": "22eee3f254a020d7974c775554a414bc988d6e51e283aea07b239bfb5f3c61db", "blocktime": 1537870268, "version": 1, "confirmations": 11518, "time": 1537870268, "locktime": 0, "vsize": 165, "size": 246}