{"hash": "22f03b45e9517b708cfd6bea39a9548a7f7d6cb7cd98a6dbe916881bc321bdaa", "blockhash": "0000000000000000001e0dab787dd257d1dbfcb92a98c2207d5e1078be1f4165", "vout": [{"scriptPubKey": {"reqSigs": 1, "hex": "76a91464dabe8482e8d3014b64c71a12b7046f81df3f3188ac", "addresses": ["1ACGcoEfU9qdQopv4mt2fFxyCghVHGVgZA"], "asm": "OP_DUP OP_HASH160 64dabe8482e8d3014b64c71a12b7046f81df3f31 OP_EQUALVERIFY OP_CHECKSIG", "type": "pubkeyhash"}, "value": 0.01465057, "n": 0}, {"scriptPubKey": {"reqSigs": 1, "hex": "76a9144b2ba7775467cee9266860739d65dc8a80ffb4e788ac", "addresses": ["17rTyXr1gZjM9uW3MUXzAYe9ny9qhGs5qB"], "asm": "OP_DUP OP_HASH160 4b2ba7775467cee9266860739d65dc8a80ffb4e7 OP_EQUALVERIFY OP_CHECKSIG", "type": "pubkeyhash"}, "value": 0.015619, "n": 1}], "hex": "01000000023790593637ef3a06614f940f00143f83c3fe8b6d0b203ed0189da3ddc44193ab010000006a4730440220660cc57b371d35c81ed84bc395e81fb91b1590d709e24cd4f64a2b0e9b9b51cf022066ba437c553375b3ea86d6c4a609a76c93ccbe44238855232265203a2cb4d01a012102bae571759b96b25f82a1d66f659664190fec48a546871a9f2fdc0379ad9d8979ffffffff74bc19834f9e483a11a5bfa26bde0d9dd5608a80fce27d0efd540d11389b76e0010000006a47304402202c0f63fff31a95f8d42e9814e3be32432d033e4b7bc6b5cca361b1a7afd1016f02201f186a16dc3f422434a34fcaaeaf995fad28631be9c82588c526b32e65920d13012102f9fadfebe306a4237dbab966506b102a758f0410bdab60a0704d4b6894d9dc7fffffffff02e15a1600000000001976a91464dabe8482e8d3014b64c71a12b7046f81df3f3188ac2cd51700000000001976a9144b2ba7775467cee9266860739d65dc8a80ffb4e788ac00000000", "vin": [{"sequence": 4294967295, "scriptSig": {"hex": "4730440220660cc57b371d35c81ed84bc395e81fb91b1590d709e24cd4f64a2b0e9b9b51cf022066ba437c553375b3ea86d6c4a609a76c93ccbe44238855232265203a2cb4d01a012102bae571759b96b25f82a1d66f659664190fec48a546871a9f2fdc0379ad9d8979", "asm": "30440220660cc57b371d35c81ed84bc395e81fb91b1590d709e24cd4f64a2b0e9b9b51cf022066ba437c553375b3ea86d6c4a609a76c93ccbe44238855232265203a2cb4d01a[ALL] 02bae571759b96b25f82a1d66f659664190fec48a546871a9f2fdc0379ad9d8979"}, "vout": 1, "txid": "ab9341c4dda39d18d03e200b6d8bfec3833f14000f944f61063aef3736599037"}, {"sequence": 4294967295, "scriptSig": {"hex": "47304402202c0f63fff31a95f8d42e9814e3be32432d033e4b7bc6b5cca361b1a7afd1016f02201f186a16dc3f422434a34fcaaeaf995fad28631be9c82588c526b32e65920d13012102f9fadfebe306a4237dbab966506b102a758f0410bdab60a0704d4b6894d9dc7f", "asm": "304402202c0f63fff31a95f8d42e9814e3be32432d033e4b7bc6b5cca361b1a7afd1016f02201f186a16dc3f422434a34fcaaeaf995fad28631be9c82588c526b32e65920d13[ALL] 02f9fadfebe306a4237dbab966506b102a758f0410bdab60a0704d4b6894d9dc7f"}, "vout": 1, "txid": "e0769b38110d54fd0e7de2fc808a60d59d0dde6ba2bfa5113a489e4f8319bc74"}], "txid": "22f03b45e9517b708cfd6bea39a9548a7f7d6cb7cd98a6dbe916881bc321bdaa", "blocktime": 1537872475, "version": 1, "confirmations": 11487, "time": 1537872475, "locktime": 0, "vsize": 372, "size": 372}