{"hash": "22fbce08746bbfa15876018d25949e9fb48fbb7856738c446421781ab4d7b45e", "blockhash": "00000000000000000024a2167bbff67b0be802c0b01cdd79e6331c2be6459f87", "vout": [{"scriptPubKey": {"reqSigs": 1, "hex": "76a9143c50a04742bfb6b650aada316c3600e4d75aad9d88ac", "addresses": ["16Vv8WVsrbLq2YUssMD98f28sfeJ3yrjUD"], "asm": "OP_DUP OP_HASH160 3c50a04742bfb6b650aada316c3600e4d75aad9d OP_EQUALVERIFY OP_CHECKSIG", "type": "pubkeyhash"}, "value": 0.011, "n": 0}], "hex": "01000000018a9721accb5c36c1e6a9641e66475f4255e1f53e631046e9cf3cd5e01ec7d201000000006a47304402200cfe673a03f74ec95a32be46cba648cb8e1d51e62b0f052c357cfe64a7853ade022020c44aa48f0022dc4303214f1c92d7bb4687b8ce91fba3cc66ff7f0f7e66bbd501210300476b50a684cac0201c1f8538fb18b6a92c5f3b8875280ee6183a9046d325c8ffffffff01e0c81000000000001976a9143c50a04742bfb6b650aada316c3600e4d75aad9d88ac00000000", "vin": [{"sequence": 4294967295, "scriptSig": {"hex": "47304402200cfe673a03f74ec95a32be46cba648cb8e1d51e62b0f052c357cfe64a7853ade022020c44aa48f0022dc4303214f1c92d7bb4687b8ce91fba3cc66ff7f0f7e66bbd501210300476b50a684cac0201c1f8538fb18b6a92c5f3b8875280ee6183a9046d325c8", "asm": "304402200cfe673a03f74ec95a32be46cba648cb8e1d51e62b0f052c357cfe64a7853ade022020c44aa48f0022dc4303214f1c92d7bb4687b8ce91fba3cc66ff7f0f7e66bbd5[ALL] 0300476b50a684cac0201c1f8538fb18b6a92c5f3b8875280ee6183a9046d325c8"}, "vout": 0, "txid": "01d2c71ee0d53ccfe94610633ef5e155425f47661e64a9e6c1365ccbac21978a"}], "txid": "22fbce08746bbfa15876018d25949e9fb48fbb7856738c446421781ab4d7b45e", "blocktime": 1537870564, "version": 1, "confirmations": 11515, "time": 1537870564, "locktime": 0, "vsize": 191, "size": 191}