{"hash": "22fff988bf589b6b60d55d7002dcfc1cb74a1be2f5b6906628ddf091af6a72c6", "blockhash": "0000000000000000000dcc0f55137456b1a82d3642486a52398922ac4d620174", "vout": [{"scriptPubKey": {"reqSigs": 1, "hex": "76a914607899d7e20a63e0052390f509f9207fc65c6bde88ac", "addresses": ["19o6LvAdCPkjLi83VsjrCsmvQZUirT4KXJ"], "asm": "OP_DUP OP_HASH160 607899d7e20a63e0052390f509f9207fc65c6bde OP_EQUALVERIFY OP_CHECKSIG", "type": "pubkeyhash"}, "value": 0.00292096, "n": 0}, {"scriptPubKey": {"type": "nulldata", "hex": "6a146f6d6e69000000000000001f000000ad39db1000", "asm": "OP_RETURN 6f6d6e69000000000000001f000000ad39db1000"}, "value": 0.0, "n": 1}, {"scriptPubKey": {"reqSigs": 1, "hex": "a914afe3d5a53c352899b5e05f414216e08ef6880b6f87", "addresses": ["3Hj37LTbnoX7Cdbgaq3YsXAs2uno6LFVZv"], "asm": "OP_HASH160 afe3d5a53c352899b5e05f414216e08ef6880b6f OP_EQUAL", "type": "scripthash"}, "value": 5.4e-06, "n": 2}], "hex": "0100000001d0c15735c0525ea111725f8d70b3bc9249e8f2246a49c21490005cd26a25765d000000006b483045022100b97c81371d22a7efb53f0d02741ba3de95cc41bd5a7e70789402f370274b66b102203d97b2db468c23446c124871421bb886363ce1b1d3f6adde5d0de69471f8dd12012102cb0aa76775b7ea76ef64c2dd62632af06b56f1186f5ff1696cfe79364e63bc47ffffffff0300750400000000001976a914607899d7e20a63e0052390f509f9207fc65c6bde88ac0000000000000000166a146f6d6e69000000000000001f000000ad39db10001c0200000000000017a914afe3d5a53c352899b5e05f414216e08ef6880b6f8700000000", "vin": [{"sequence": 4294967295, "scriptSig": {"hex": "483045022100b97c81371d22a7efb53f0d02741ba3de95cc41bd5a7e70789402f370274b66b102203d97b2db468c23446c124871421bb886363ce1b1d3f6adde5d0de69471f8dd12012102cb0aa76775b7ea76ef64c2dd62632af06b56f1186f5ff1696cfe79364e63bc47", "asm": "3045022100b97c81371d22a7efb53f0d02741ba3de95cc41bd5a7e70789402f370274b66b102203d97b2db468c23446c124871421bb886363ce1b1d3f6adde5d0de69471f8dd12[ALL] 02cb0aa76775b7ea76ef64c2dd62632af06b56f1186f5ff1696cfe79364e63bc47"}, "vout": 0, "txid": "5d76256ad25c009014c2496a24f2e84992bcb3708d5f7211a15e52c03557c1d0"}], "txid": "22fff988bf589b6b60d55d7002dcfc1cb74a1be2f5b6906628ddf091af6a72c6", "blocktime": 1537870268, "version": 1, "confirmations": 11516, "time": 1537870268, "locktime": 0, "vsize": 255, "size": 255}