{"hash": "5b7cebea03a3fd2e052ca652d2a7155d30d893198e9d06bf98ebaa6bad1f4aa4", "blockhash": "0000000000000000001cda96e906b7601b7a6fb1a3b62bca570a9e5d8f4b3de1", "vout": [{"scriptPubKey": {"reqSigs": 1, "hex": "76a9146dbac370632ab285f262049ba67ef61c3652151588ac", "addresses": ["1B1CPThibC19MSzcRrdrjixVSxYN44KBmC"], "asm": "OP_DUP OP_HASH160 6dbac370632ab285f262049ba67ef61c36521515 OP_EQUALVERIFY OP_CHECKSIG", "type": "pubkeyhash"}, "value": 0.009, "n": 0}], "hex": "01000000000101526edcca87cf9d35e106681ab62a7ae57700bcbb3315e65b5eda197a6c4ce5a00100000023220020f6336f34b996078ba8ddaa6def181c41f50d84970ec3760673f3b51ebae9b92effffffff01a0bb0d00000000001976a9146dbac370632ab285f262049ba67ef61c3652151588ac040047304402204f77bafac94882c1ecfb2ab9459fa06330c89bff7c9ad59553eae19e56ec4e0c02200c3860e0313c754a3d27001fc9496ddf6e503f2daf14977b101727d7fd63123c0148304502210082e8854498e0fcb1d81b0dd965e36a02b8a420fa698cb510222a77ff0247729a02203fbc1bdd0b386eff3c3c34358b387ee469a5eb0977cb4a8d6d5ec901d84f5d210169522102e7b1e91815a15b87393757ffe65ab67027b41356ba0afa171792cee5c4523ef9210320c35c983a78f8a51bb6230b4718a17110aa0b808a6b67941be25724b5c191022103f1115cd8e5abdf2161f5a12df7da73d9e9ed6548cd279b720e2f6bcc63a2fd8753ae00000000", "vin": [{"txinwitness": ["", "304402204f77bafac94882c1ecfb2ab9459fa06330c89bff7c9ad59553eae19e56ec4e0c02200c3860e0313c754a3d27001fc9496ddf6e503f2daf14977b101727d7fd63123c01", "304502210082e8854498e0fcb1d81b0dd965e36a02b8a420fa698cb510222a77ff0247729a02203fbc1bdd0b386eff3c3c34358b387ee469a5eb0977cb4a8d6d5ec901d84f5d2101", "522102e7b1e91815a15b87393757ffe65ab67027b41356ba0afa171792cee5c4523ef9210320c35c983a78f8a51bb6230b4718a17110aa0b808a6b67941be25724b5c191022103f1115cd8e5abdf2161f5a12df7da73d9e9ed6548cd279b720e2f6bcc63a2fd8753ae"], "sequence": 4294967295, "scriptSig": {"hex": "220020f6336f34b996078ba8ddaa6def181c41f50d84970ec3760673f3b51ebae9b92e", "asm": "0020f6336f34b996078ba8ddaa6def181c41f50d84970ec3760673f3b51ebae9b92e"}, "vout": 1, "txid": "a0e54c6c7a19da5e5be61533bbbc0077e57a2ab61a6806e1359dcf87cadc6e52"}], "txid": "230282f0462ab01ec6bd9fff73f7dce87866f1479294c0ffb50eb73d65875c75", "blocktime": 1537873282, "version": 1, "confirmations": 11480, "time": 1537873282, "locktime": 0, "vsize": 184, "size": 375}