{"hash": "ac59e1eccb4cef4facbf5d780257d6c12809c1c8b7f22a716d14eb3dd1004330", "blockhash": "0000000000000000001cda96e906b7601b7a6fb1a3b62bca570a9e5d8f4b3de1", "vout": [{"scriptPubKey": {"reqSigs": 1, "hex": "a9148718ba2ba4f9bbe6d5c8a2311fe762fd4f68738887", "addresses": ["3E1LmX3YUFkCnQgd9i5LcGGUG1HPqPTAPt"], "asm": "OP_HASH160 8718ba2ba4f9bbe6d5c8a2311fe762fd4f687388 OP_EQUAL", "type": "scripthash"}, "value": 0.003082, "n": 0}, {"scriptPubKey": {"reqSigs": 1, "hex": "a914aba304dca90cd2ef32ee4414b669664d0afd25c187", "addresses": ["3HLYm737Jtja4GKNYzntmiQnYS6rwTahCU"], "asm": "OP_HASH160 aba304dca90cd2ef32ee4414b669664d0afd25c1 OP_EQUAL", "type": "scripthash"}, "value": 2e-05, "n": 1}, {"scriptPubKey": {"reqSigs": 1, "hex": "a914c05eb702a1206fdb5263e99488c438cd14038f1487", "addresses": ["3KEB8HEWyEKpYvypmECNbHJWQfbPJwmsqR"], "asm": "OP_HASH160 c05eb702a1206fdb5263e99488c438cd14038f14 OP_EQUAL", "type": "scripthash"}, "value": 0.04361321, "n": 2}], "hex": "02000000000101f39c4e3c0f908031bf01ce8c9f6782628d901a578e20ad9adbc42db78a6053af00000000171600141853fea990673d18bad99581f0402edfafae7b1ffeffffff03e8b304000000000017a9148718ba2ba4f9bbe6d5c8a2311fe762fd4f68738887d00700000000000017a914aba304dca90cd2ef32ee4414b669664d0afd25c187698c42000000000017a914c05eb702a1206fdb5263e99488c438cd14038f148702483045022100dfc1a98c894aec5caedfaa3eb310f158758ee15698952a8427f85b10436cce4602203aea5aeb74bb8910fb183be187ebd52b1d91182290f3cbb09c063058b65fdf6301210388033e9d1ec6e2a43e6f184ba631dfa20a92c98033354840b0e690f5bf171faf13490800", "vin": [{"txinwitness": ["3045022100dfc1a98c894aec5caedfaa3eb310f158758ee15698952a8427f85b10436cce4602203aea5aeb74bb8910fb183be187ebd52b1d91182290f3cbb09c063058b65fdf6301", "0388033e9d1ec6e2a43e6f184ba631dfa20a92c98033354840b0e690f5bf171faf"], "sequence": 4294967294, "scriptSig": {"hex": "1600141853fea990673d18bad99581f0402edfafae7b1f", "asm": "00141853fea990673d18bad99581f0402edfafae7b1f"}, "vout": 0, "txid": "af53608ab72dc4db9aad208e571a908d6282679f8cce01bf3180900f3c4e9cf3"}], "txid": "23031b7ea4b8cb74c11878b010ae4575c4cea5ef48100d75a0d6b63ef9fa2b6a", "blocktime": 1537873282, "version": 2, "confirmations": 11481, "time": 1537873282, "locktime": 542995, "vsize": 198, "size": 280}