{"hash": "6c03e9f6438036994fdc8e5db7f8720727c864bf1823c1c0ba84b1e7b7829246", "blockhash": "000000000000000000022b45ed06c6f4ccd3cf7fb5ba4856ebd2e58215665228", "vout": [{"scriptPubKey": {"reqSigs": 1, "hex": "76a914d7e605e8436924ee40929605c4d635dd68517fe788ac", "addresses": ["1LgZqXZqBWuAy55ZKyzSuNMjPTsgBcwqUg"], "asm": "OP_DUP OP_HASH160 d7e605e8436924ee40929605c4d635dd68517fe7 OP_EQUALVERIFY OP_CHECKSIG", "type": "pubkeyhash"}, "value": 0.05261217, "n": 0}, {"scriptPubKey": {"reqSigs": 1, "hex": "76a914f8edfa9d3cb71f5b99d61211ca6e9dd013534ce888ac", "addresses": ["1PhDfeEyc3adxXgHxmScgqgY3quDcBKkJy"], "asm": "OP_DUP OP_HASH160 f8edfa9d3cb71f5b99d61211ca6e9dd013534ce8 OP_EQUALVERIFY OP_CHECKSIG", "type": "pubkeyhash"}, "value": 0.00052144, "n": 1}], "hex": "02000000000101563835f74126bf845290fc0833a55ae956a48f071bdc2e1f866a60590517e493000000001716001449c39604702d1cfde95ae6fc048916d820c7a5e1fdffffff02a1475000000000001976a914d7e605e8436924ee40929605c4d635dd68517fe788acb0cb0000000000001976a914f8edfa9d3cb71f5b99d61211ca6e9dd013534ce888ac0247304402203cbf919ea68ece6adc8b79f77782845bebebd2b2591698059a58e16b2c9944e702200dd26cfe92769d6f206b378ef34a859cef9774284a9ba07d243718703c6fa9d7012102a66bd7c93e16c4152737e477a9ccaa2f05fef458ed7790949cd372a19f96609d00000000", "vin": [{"txinwitness": ["304402203cbf919ea68ece6adc8b79f77782845bebebd2b2591698059a58e16b2c9944e702200dd26cfe92769d6f206b378ef34a859cef9774284a9ba07d243718703c6fa9d701", "02a66bd7c93e16c4152737e477a9ccaa2f05fef458ed7790949cd372a19f96609d"], "sequence": 4294967293, "scriptSig": {"hex": "16001449c39604702d1cfde95ae6fc048916d820c7a5e1", "asm": "001449c39604702d1cfde95ae6fc048916d820c7a5e1"}, "vout": 0, "txid": "93e4170559606a861f2edc1b078fa456e95aa53308fc905284bf2641f7353856"}], "txid": "23041adbdd5808b235dc4c161a78da7f758581f0f9ed58e57c1f2c2604c79d4f", "blocktime": 1537869901, "version": 2, "confirmations": 11522, "time": 1537869901, "locktime": 0, "vsize": 170, "size": 251}