{"hash": "0f195209e8f855fd659d3f330bfa30defbb8164fdb42c5af69a7738acac347b2", "blockhash": "0000000000000000000e13cef7c366c0283d82e591d1acd082e914b08063cdf1", "vout": [{"scriptPubKey": {"reqSigs": 1, "hex": "a914a71d375a1d9c5a1c061fede4cd366bb24b63d52687", "addresses": ["3GvdmZK3WT6MBgokQS6rEXfWa2qhH4g5zf"], "asm": "OP_HASH160 a71d375a1d9c5a1c061fede4cd366bb24b63d526 OP_EQUAL", "type": "scripthash"}, "value": 0.02572546, "n": 0}, {"scriptPubKey": {"reqSigs": 1, "hex": "a9146d36ccf3785c3713260733642ce3d89160b4eb4e87", "addresses": ["3BeVE4iycKFb1pdtVqN2r6eRqqXyWN48Ga"], "asm": "OP_HASH160 6d36ccf3785c3713260733642ce3d89160b4eb4e OP_EQUAL", "type": "scripthash"}, "value": 0.18957274, "n": 1}], "hex": "02000000000101a75e3536985b40f1f7b7cf387a39cc4b9b226e74d5cbc3cfcdeb5a421f309dff0000000017160014ace81e451741ed7623896f1799db17810fc10683feffffff02024127000000000017a914a71d375a1d9c5a1c061fede4cd366bb24b63d52687da4321010000000017a9146d36ccf3785c3713260733642ce3d89160b4eb4e8702483045022100e8130980589d7ad4bd7c6b921acf0edb601c383ce815fe531e7e6bc268f864e702202358a1f3fa98b8569ce19b7dc42f8ac0a445f64d0e09ad3818ec3b95f831cf14012102830b3a611ff67c61da37025f8b24e292c96ec3bb5bf0fda2896552e31567aa3f10490800", "vin": [{"txinwitness": ["3045022100e8130980589d7ad4bd7c6b921acf0edb601c383ce815fe531e7e6bc268f864e702202358a1f3fa98b8569ce19b7dc42f8ac0a445f64d0e09ad3818ec3b95f831cf1401", "02830b3a611ff67c61da37025f8b24e292c96ec3bb5bf0fda2896552e31567aa3f"], "sequence": 4294967294, "scriptSig": {"hex": "160014ace81e451741ed7623896f1799db17810fc10683", "asm": "0014ace81e451741ed7623896f1799db17810fc10683"}, "vout": 0, "txid": "ff9d301f425aebcdcfc3cbd5746e229b4bcc397a38cfb7f7f1405b9836355ea7"}], "txid": "230857258a46180d6d72a66f87b3cf1e8b12ee8013facf5cb33a474c69ebf093", "blocktime": 1537871767, "version": 2, "confirmations": 11495, "time": 1537871767, "locktime": 542992, "vsize": 166, "size": 248}