{"hash": "230a499c7f22c69b7d77622884719e65fd8dced0c9bb95abaafe76da74c8b58d", "blockhash": "0000000000000000001cda96e906b7601b7a6fb1a3b62bca570a9e5d8f4b3de1", "vout": [{"scriptPubKey": {"reqSigs": 1, "hex": "a914d5b7882d50866d72048aa24f3f6b192d891b814287", "addresses": ["3MB3iRgwZmsV2dCdXmWefpgn85HpUVazDM"], "asm": "OP_HASH160 d5b7882d50866d72048aa24f3f6b192d891b8142 OP_EQUAL", "type": "scripthash"}, "value": 0.0228, "n": 0}, {"scriptPubKey": {"reqSigs": 1, "hex": "76a914078ee36272b7b73bceb12400dd7bc8112d40229d88ac", "addresses": ["1gxuPeVRfoocKoAGx9AYZkzVg7GNJm51u"], "asm": "OP_DUP OP_HASH160 078ee36272b7b73bceb12400dd7bc8112d40229d OP_EQUALVERIFY OP_CHECKSIG", "type": "pubkeyhash"}, "value": 0.01046445, "n": 1}], "hex": "01000000014586c51f5a6fb01fee92a2c10ac8b8d3bf059aecee83ec4b566158252a4b8b95010000006b483045022100a2f539893291ecd94ffc58fcbcd4640857b494e98480f09ba3cd2c42aa2ccd7002200cdfe3d15ec6a47e8484e790d98c3a259a662aa4aefecca173c241323adcf03801210305628838defa3c7df7f4fcb53dacd46f0aeb81bb22213bf3b41476856611a3beffffffff0240ca22000000000017a914d5b7882d50866d72048aa24f3f6b192d891b814287adf70f00000000001976a914078ee36272b7b73bceb12400dd7bc8112d40229d88ac00000000", "vin": [{"sequence": 4294967295, "scriptSig": {"hex": "483045022100a2f539893291ecd94ffc58fcbcd4640857b494e98480f09ba3cd2c42aa2ccd7002200cdfe3d15ec6a47e8484e790d98c3a259a662aa4aefecca173c241323adcf03801210305628838defa3c7df7f4fcb53dacd46f0aeb81bb22213bf3b41476856611a3be", "asm": "3045022100a2f539893291ecd94ffc58fcbcd4640857b494e98480f09ba3cd2c42aa2ccd7002200cdfe3d15ec6a47e8484e790d98c3a259a662aa4aefecca173c241323adcf038[ALL] 0305628838defa3c7df7f4fcb53dacd46f0aeb81bb22213bf3b41476856611a3be"}, "vout": 1, "txid": "958b4b2a255861564bec83eeec9a05bfd3b8c80ac1a292ee1fb06f5a1fc58645"}], "txid": "230a499c7f22c69b7d77622884719e65fd8dced0c9bb95abaafe76da74c8b58d", "blocktime": 1537873282, "version": 1, "confirmations": 11483, "time": 1537873282, "locktime": 0, "vsize": 224, "size": 224}