{"hash": "23172c118e496f8de48667a16ddbaa141d1b8474998b828aeceff5ff25fb45c7", "blockhash": "0000000000000000000e13cef7c366c0283d82e591d1acd082e914b08063cdf1", "vout": [{"scriptPubKey": {"reqSigs": 1, "hex": "a914131da1869a963a0c0de137954887e6c202720a8c87", "addresses": ["33S6Fz1YGQgpen3CMAskvKhBcfB51g6YtP"], "asm": "OP_HASH160 131da1869a963a0c0de137954887e6c202720a8c OP_EQUAL", "type": "scripthash"}, "value": 0.00511872, "n": 0}], "hex": "01000000019effa1cf1a9d666fc3ea89e0f2a4fe7c80b94bb3749cbd42d3718efbf3a94611010000006a473044022018f95ba05157e98121667f34c06a914d38beab5a4951e0488af9e74cd96b2058022043ac9afbd1ca899f1df17092433abe7eb689ccdfcbd279afea43c431c8f10d9001210287951297ad23bc8326aa89f7fc9e531899634f4c4910a47497110ffb568a4722ffffffff0180cf07000000000017a914131da1869a963a0c0de137954887e6c202720a8c8700000000", "vin": [{"sequence": 4294967295, "scriptSig": {"hex": "473044022018f95ba05157e98121667f34c06a914d38beab5a4951e0488af9e74cd96b2058022043ac9afbd1ca899f1df17092433abe7eb689ccdfcbd279afea43c431c8f10d9001210287951297ad23bc8326aa89f7fc9e531899634f4c4910a47497110ffb568a4722", "asm": "3044022018f95ba05157e98121667f34c06a914d38beab5a4951e0488af9e74cd96b2058022043ac9afbd1ca899f1df17092433abe7eb689ccdfcbd279afea43c431c8f10d90[ALL] 0287951297ad23bc8326aa89f7fc9e531899634f4c4910a47497110ffb568a4722"}, "vout": 1, "txid": "1146a9f3fb8e71d342bd9c74b34bb9807cfea4f2e089eac36f669d1acfa1ff9e"}], "txid": "23172c118e496f8de48667a16ddbaa141d1b8474998b828aeceff5ff25fb45c7", "blocktime": 1537871767, "version": 1, "confirmations": 11494, "time": 1537871767, "locktime": 0, "vsize": 189, "size": 189}