{"hash": "c5bb1bb950b313f0fcb2a7ba437f68109885aa7c050fa846428393a125869462", "blockhash": "0000000000000000001e0dab787dd257d1dbfcb92a98c2207d5e1078be1f4165", "vout": [{"scriptPubKey": {"reqSigs": 1, "hex": "a91439a90553aa1a165a24fccafc467bff40ecf3594487", "addresses": ["36wtvFSFEaLsZV7awZn2rjfJdmJ4uhsDaL"], "asm": "OP_HASH160 39a90553aa1a165a24fccafc467bff40ecf35944 OP_EQUAL", "type": "scripthash"}, "value": 0.1, "n": 0}, {"scriptPubKey": {"reqSigs": 1, "hex": "a9143b37f78a00e6619b6b2bbf77079f7f930122a02087", "addresses": ["3768qWjv2wHqjTj8gAz3DAr8rWQw2FCFJW"], "asm": "OP_HASH160 3b37f78a00e6619b6b2bbf77079f7f930122a020 OP_EQUAL", "type": "scripthash"}, "value": 16.65970309, "n": 1}], "hex": "02000000000101e2e23bf239a3614c8f561bd9fbf4ce5be7af67bc5c6d6690b629d64cebe52a860000000017160014f67e140cce9e3247e37f2c8ff02c9860d2dcd15afeffffff02809698000000000017a91439a90553aa1a165a24fccafc467bff40ecf359448785b04c630000000017a9143b37f78a00e6619b6b2bbf77079f7f930122a02087024730440220280597717cbf55349da134f98b8463ab16287ebeb8dcbdbc355e15c7a99e8f7202206f90e2e6b08430af878b0d735ef981983727e8b017eb07a533f1aa5dd0f1e575012103698e9926761a4aa54d2a40d93f65122b7a18a7c48365226308bbcc50bceab01308490800", "vin": [{"txinwitness": ["30440220280597717cbf55349da134f98b8463ab16287ebeb8dcbdbc355e15c7a99e8f7202206f90e2e6b08430af878b0d735ef981983727e8b017eb07a533f1aa5dd0f1e57501", "03698e9926761a4aa54d2a40d93f65122b7a18a7c48365226308bbcc50bceab013"], "sequence": 4294967294, "scriptSig": {"hex": "160014f67e140cce9e3247e37f2c8ff02c9860d2dcd15a", "asm": "0014f67e140cce9e3247e37f2c8ff02c9860d2dcd15a"}, "vout": 0, "txid": "862ae5eb4cd629b690666d5cbc67afe75bcef4fbd91b568f4c61a339f23be2e2"}], "txid": "231efcae60b141c33f595edfa931603685053f3a720d195a4df85036787bdccf", "blocktime": 1537872475, "version": 2, "confirmations": 11486, "time": 1537872475, "locktime": 542984, "vsize": 166, "size": 247}