{"hash": "cad1defa5123ea1a14464399953b3a631b64d45e5c1a9e85de696760163626e8", "blockhash": "00000000000000000004ffacab907a6b429b9a5745fa0b75af4234bf69dd7176", "vout": [{"scriptPubKey": {"reqSigs": 1, "hex": "a914b7d95a77aef6e203a9472ba47b373e6bcc88f13487", "addresses": ["3JT7xdKEBPFf6szfHVbjHSoVvkizwmNdsZ"], "asm": "OP_HASH160 b7d95a77aef6e203a9472ba47b373e6bcc88f134 OP_EQUAL", "type": "scripthash"}, "value": 0.18221797, "n": 0}, {"scriptPubKey": {"reqSigs": 1, "hex": "a914051f464070d40b45aa2bb197bc87237f3fccc14087", "addresses": ["32A6mVF4we9wNa6thmhC58fnwwyMPzjXp8"], "asm": "OP_HASH160 051f464070d40b45aa2bb197bc87237f3fccc140 OP_EQUAL", "type": "scripthash"}, "value": 0.00219487, "n": 1}], "hex": "020000000001016332b58fced265e630408abbd4b74efbae4d64035989c3dc0648d7a62b15e7d9010000001716001402bba1cabff4a0b6773e27bc9366e051dfaceaaeffffffff02e50a16010000000017a914b7d95a77aef6e203a9472ba47b373e6bcc88f134875f5903000000000017a914051f464070d40b45aa2bb197bc87237f3fccc14087024730440220584b8b3e6681d4ab211e5dad03d92df7db0b6c4e8d1af3ae32f28e5eb486ccef02206792ce988816807514735b0b8d65961e6fe2a2f62c8a1e285cf89f59a57971f0012102e302df37520cbbae984434823f2fe67228dcef5380f0ca70dd4b01eab43844bc00000000", "vin": [{"txinwitness": ["30440220584b8b3e6681d4ab211e5dad03d92df7db0b6c4e8d1af3ae32f28e5eb486ccef02206792ce988816807514735b0b8d65961e6fe2a2f62c8a1e285cf89f59a57971f001", "02e302df37520cbbae984434823f2fe67228dcef5380f0ca70dd4b01eab43844bc"], "sequence": 4294967295, "scriptSig": {"hex": "16001402bba1cabff4a0b6773e27bc9366e051dfaceaae", "asm": "001402bba1cabff4a0b6773e27bc9366e051dfaceaae"}, "vout": 1, "txid": "d9e7152ba6d74806dcc3895903644daefb4eb7d4bb8a4030e665d2ce8fb53263"}], "txid": "2324cb3243f30441fae52035d2271bc59f30ed9c4573738345793e0ac73651ef", "blocktime": 1537875543, "version": 2, "confirmations": 11464, "time": 1537875543, "locktime": 0, "vsize": 166, "size": 247}