{"hash": "83fcd1794be7150a3b92bde3ec435b1ebc2ddb332a818b846d6cad5c9a5fd65a", "blockhash": "0000000000000000000baef3f32e3676a92c3b2e5da21b426e4f302fc371ce76", "vout": [{"scriptPubKey": {"reqSigs": 1, "hex": "00146d48666f930f14e28ed8c3801eb146cf5c607b46", "addresses": ["bc1qd4yxvmunpu2w9rkccwqpav2xeawxq76xk627k3"], "asm": "0 6d48666f930f14e28ed8c3801eb146cf5c607b46", "type": "witness_v0_keyhash"}, "value": 1.23981389, "n": 0}, {"scriptPubKey": {"reqSigs": 1, "hex": "76a91494236a4efe7fc04c39678ca6bf50abeeb81063e788ac", "addresses": ["1EWHS63AnLS17DnmUQEhxo8hy6xTE5mNwT"], "asm": "OP_DUP OP_HASH160 94236a4efe7fc04c39678ca6bf50abeeb81063e7 OP_EQUALVERIFY OP_CHECKSIG", "type": "pubkeyhash"}, "value": 0.08482298, "n": 1}], "hex": "010000000001018c0e8554b09493e356ff39f94386a5c60594fe305b20f0cfb12e4dcb651bff520000000000ffffffff024dce6307000000001600146d48666f930f14e28ed8c3801eb146cf5c607b46fa6d8100000000001976a91494236a4efe7fc04c39678ca6bf50abeeb81063e788ac02483045022100a06910b9f565729f4a500cc491aa00a60c70e81650bffacef7f244f9fc158f10022025d9c0116021f5ce4a20c60be30df9afd8b2978aa9be811eb844ac5f0b34167e01210371992d6c802c02f5e58cd603068a1a86a7eb7c2fa5681b36fbfc1de81836de3d00000000", "vin": [{"txinwitness": ["3045022100a06910b9f565729f4a500cc491aa00a60c70e81650bffacef7f244f9fc158f10022025d9c0116021f5ce4a20c60be30df9afd8b2978aa9be811eb844ac5f0b34167e01", "0371992d6c802c02f5e58cd603068a1a86a7eb7c2fa5681b36fbfc1de81836de3d"], "sequence": 4294967295, "scriptSig": {"hex": "", "asm": ""}, "vout": 0, "txid": "52ff1b65cb4d2eb1cff0205b30fe9405c6a58643f939ff56e39394b054850e8c"}], "txid": "232e9b92d16600c1d423dd21ea440a0fd370d78c8d7b550a718831ebf9e7d58d", "blocktime": 1537876114, "version": 1, "confirmations": 11462, "time": 1537876114, "locktime": 0, "vsize": 144, "size": 226}