{"hash": "232eb38b99cd4ab8a98ea590cca77dbf7e1e944d8935ec6255d5f728af1ec46f", "blockhash": "00000000000000000004ffacab907a6b429b9a5745fa0b75af4234bf69dd7176", "vout": [{"scriptPubKey": {"reqSigs": 1, "hex": "a91491ee0a3eb6f9eb8dae4c1f36ecd5fc53b60083e987", "addresses": ["3Ezd4fo2Fj61KVXtzyn9pRFTPDre1dgdw7"], "asm": "OP_HASH160 91ee0a3eb6f9eb8dae4c1f36ecd5fc53b60083e9 OP_EQUAL", "type": "scripthash"}, "value": 0.00031971, "n": 0}, {"scriptPubKey": {"reqSigs": 1, "hex": "76a914d6f5ffa73bbb04e324052ca4b8ad1284703c1a0988ac", "addresses": ["1LbcJLZWKk6tNTSjYofWz9gCTCPX3HmWkC"], "asm": "OP_DUP OP_HASH160 d6f5ffa73bbb04e324052ca4b8ad1284703c1a09 OP_EQUALVERIFY OP_CHECKSIG", "type": "pubkeyhash"}, "value": 0.00040587, "n": 1}], "hex": "0100000001f6bdc6ee63a5beb983c5aa0b5305d1f30bb3bf95c07fdef1d8c29950894209e1000000006b483045022100c19377439cd9e782e8ab8a855530e353fc7df32e821da8a596d9f528b2949bc602203b1279eb5c5b73aef2ad5041b237fe895ae8d3b0822489b084ae55cca117973e012102a9b845904045a339e214a31ef5ff670e7a0c55bf7f2c7be08e63de08a7354c1cffffffff02e37c00000000000017a91491ee0a3eb6f9eb8dae4c1f36ecd5fc53b60083e9878b9e0000000000001976a914d6f5ffa73bbb04e324052ca4b8ad1284703c1a0988ac00000000", "vin": [{"sequence": 4294967295, "scriptSig": {"hex": "483045022100c19377439cd9e782e8ab8a855530e353fc7df32e821da8a596d9f528b2949bc602203b1279eb5c5b73aef2ad5041b237fe895ae8d3b0822489b084ae55cca117973e012102a9b845904045a339e214a31ef5ff670e7a0c55bf7f2c7be08e63de08a7354c1c", "asm": "3045022100c19377439cd9e782e8ab8a855530e353fc7df32e821da8a596d9f528b2949bc602203b1279eb5c5b73aef2ad5041b237fe895ae8d3b0822489b084ae55cca117973e[ALL] 02a9b845904045a339e214a31ef5ff670e7a0c55bf7f2c7be08e63de08a7354c1c"}, "vout": 0, "txid": "e10942895099c2d8f1de7fc095bfb30bf3d105530baac583b9bea563eec6bdf6"}], "txid": "232eb38b99cd4ab8a98ea590cca77dbf7e1e944d8935ec6255d5f728af1ec46f", "blocktime": 1537875543, "version": 1, "confirmations": 11464, "time": 1537875543, "locktime": 0, "vsize": 224, "size": 224}