{"hash": "23307647bd7ad65ca201c95d7d591d8a6665f3a21bd898a6ca85f52f19c60b9c", "blockhash": "0000000000000000001f0ddff1eddb255c1121bcd4da4f1bc9a0da00cae72433", "vout": [{"scriptPubKey": {"reqSigs": 1, "hex": "a914cbf599e5098c25b0da701dddb4b49ee152d52e2187", "addresses": ["3LHTK9oAMjvbeJbjNSuEuVTLLo9FesywUx"], "asm": "OP_HASH160 cbf599e5098c25b0da701dddb4b49ee152d52e21 OP_EQUAL", "type": "scripthash"}, "value": 0.00242, "n": 0}, {"scriptPubKey": {"reqSigs": 1, "hex": "76a914157a1a728d63bb18ace17a18809a16c1832d76c288ac", "addresses": ["12xZTv5fbXERPsueU32mHCWJpidtTbfwYM"], "asm": "OP_DUP OP_HASH160 157a1a728d63bb18ace17a18809a16c1832d76c2 OP_EQUALVERIFY OP_CHECKSIG", "type": "pubkeyhash"}, "value": 0.07087619, "n": 1}], "hex": "010000000130bf250d514fb646221688f6ece43a0ec59a2ac072c7adbc33515b05507ef5f9010000006a4730440220051960d5397eb596480d5f38fda9ed66f806a9548dd23ff24185166641a5a77e0220580e7bfdb6ebf0d502f5951856239f5b170373765dafb5ba1b24a7841c8defdd012102455791d9a3b5562533c575cb2c593478d612f15942946ff1823beaf1687c7859fdffffff0250b103000000000017a914cbf599e5098c25b0da701dddb4b49ee152d52e218703266c00000000001976a914157a1a728d63bb18ace17a18809a16c1832d76c288ac11490800", "vin": [{"sequence": 4294967293, "scriptSig": {"hex": "4730440220051960d5397eb596480d5f38fda9ed66f806a9548dd23ff24185166641a5a77e0220580e7bfdb6ebf0d502f5951856239f5b170373765dafb5ba1b24a7841c8defdd012102455791d9a3b5562533c575cb2c593478d612f15942946ff1823beaf1687c7859", "asm": "30440220051960d5397eb596480d5f38fda9ed66f806a9548dd23ff24185166641a5a77e0220580e7bfdb6ebf0d502f5951856239f5b170373765dafb5ba1b24a7841c8defdd[ALL] 02455791d9a3b5562533c575cb2c593478d612f15942946ff1823beaf1687c7859"}, "vout": 1, "txid": "f9f57e50055b5133bcadc772c02a9ac50e3ae4ecf688162246b64f510d25bf30"}], "txid": "23307647bd7ad65ca201c95d7d591d8a6665f3a21bd898a6ca85f52f19c60b9c", "blocktime": 1537872018, "version": 1, "confirmations": 11489, "time": 1537872018, "locktime": 542993, "vsize": 223, "size": 223}