{"hash": "9411d3cd65b63df36813464f40a781b68186125773a09963ba1e461f0aa97647", "blockhash": "0000000000000000001cda96e906b7601b7a6fb1a3b62bca570a9e5d8f4b3de1", "vout": [{"scriptPubKey": {"reqSigs": 1, "hex": "0014ac1968f786d7e48dab579ffd97e69b692445d489", "addresses": ["bc1q4svk3aux6ljgm26hnl7e0e5mdyjyt4yfpjrup2"], "asm": "0 ac1968f786d7e48dab579ffd97e69b692445d489", "type": "witness_v0_keyhash"}, "value": 1.236e-05, "n": 0}, {"scriptPubKey": {"reqSigs": 1, "hex": "a914f03be1b4153571132fac6151455e4f356b6c06c987", "addresses": ["3PbFqEV9d6XDAm9FSo1UQDrfoiYU6tiTmm"], "asm": "OP_HASH160 f03be1b4153571132fac6151455e4f356b6c06c9 OP_EQUAL", "type": "scripthash"}, "value": 0.0043, "n": 1}], "hex": "0100000000010170928c216a5b6301eb71793c31a1005060e7155dab0c1d04bdd79ff1db52d9c03000000017160014ef7cbf4a468a926081e45f8598d847b0548569f5ffffffff02d404000000000000160014ac1968f786d7e48dab579ffd97e69b692445d489b08f06000000000017a914f03be1b4153571132fac6151455e4f356b6c06c98702473044022067f17718fcfa5bfd226dab11ef8c245eee981ff71dd74179ac0966dcf3f3f16702200ebe3d8ea1ed8a2ae5215e01ce7de48de6bbf7b3d36b638ee897f269b946e6fe012102a5ff0beb21c16ffb61d79c9d306f894e5c315d0dc8e3926362b947ec1f16f57e00000000", "vin": [{"txinwitness": ["3044022067f17718fcfa5bfd226dab11ef8c245eee981ff71dd74179ac0966dcf3f3f16702200ebe3d8ea1ed8a2ae5215e01ce7de48de6bbf7b3d36b638ee897f269b946e6fe01", "02a5ff0beb21c16ffb61d79c9d306f894e5c315d0dc8e3926362b947ec1f16f57e"], "sequence": 4294967295, "scriptSig": {"hex": "160014ef7cbf4a468a926081e45f8598d847b0548569f5", "asm": "0014ef7cbf4a468a926081e45f8598d847b0548569f5"}, "vout": 48, "txid": "c0d952dbf19fd7bd041d0cab5d15e7605000a1313c7971eb01635b6a218c9270"}], "txid": "2332f7e3dcefe80799f5ca7a0a2d8a1f7fc8bde200910d99eda2d46b44df942e", "blocktime": 1537873282, "version": 1, "confirmations": 11484, "time": 1537873282, "locktime": 0, "vsize": 165, "size": 246}