{"hash": "2338ba86e0b879c18d3f48859c1a3fafac8caa4a4af9a5a3cf22576c41fc479a", "blockhash": "00000000000000000004ffacab907a6b429b9a5745fa0b75af4234bf69dd7176", "vout": [{"scriptPubKey": {"reqSigs": 1, "hex": "76a914504fefc10dc1cc6845e2f2bed51b2bd0a9fd51f888ac", "addresses": ["18KepSCtbr6g4odHx7UxGp9r2hU8HUCHnT"], "asm": "OP_DUP OP_HASH160 504fefc10dc1cc6845e2f2bed51b2bd0a9fd51f8 OP_EQUALVERIFY OP_CHECKSIG", "type": "pubkeyhash"}, "value": 1.09, "n": 0}, {"scriptPubKey": {"reqSigs": 1, "hex": "76a91452fe4240f87389ebdb32967430e0275be65336d188ac", "addresses": ["18ZpzwcCLhYaTEHrkbmw7kjmAVoetWAhF4"], "asm": "OP_DUP OP_HASH160 52fe4240f87389ebdb32967430e0275be65336d1 OP_EQUALVERIFY OP_CHECKSIG", "type": "pubkeyhash"}, "value": 3.82992, "n": 1}], "hex": "0100000001bbe24ff55888f5c8bf113a65b6c9dee1ccdbe70ee1fe4d2548617f9210c4350a010000006b483045022100c0d5b4da1516d91ff97d1e05914cbb4482bf766d865dcdc4400d94bba5daac3a02201fe81db9b39b29ac772b8399022ced103c33892206cf55cc72050b2f069169730121039fea4fcabe2cddca96fe363ed9483671ef850a0d7f68d591b08f39b4e3fe6f57ffffffff0240357f06000000001976a914504fefc10dc1cc6845e2f2bed51b2bd0a9fd51f888ac80fed316000000001976a91452fe4240f87389ebdb32967430e0275be65336d188ac00000000", "vin": [{"sequence": 4294967295, "scriptSig": {"hex": "483045022100c0d5b4da1516d91ff97d1e05914cbb4482bf766d865dcdc4400d94bba5daac3a02201fe81db9b39b29ac772b8399022ced103c33892206cf55cc72050b2f069169730121039fea4fcabe2cddca96fe363ed9483671ef850a0d7f68d591b08f39b4e3fe6f57", "asm": "3045022100c0d5b4da1516d91ff97d1e05914cbb4482bf766d865dcdc4400d94bba5daac3a02201fe81db9b39b29ac772b8399022ced103c33892206cf55cc72050b2f06916973[ALL] 039fea4fcabe2cddca96fe363ed9483671ef850a0d7f68d591b08f39b4e3fe6f57"}, "vout": 1, "txid": "0a35c410927f6148254dfee10ee7dbcce1dec9b6653a11bfc8f58858f54fe2bb"}], "txid": "2338ba86e0b879c18d3f48859c1a3fafac8caa4a4af9a5a3cf22576c41fc479a", "blocktime": 1537875543, "version": 1, "confirmations": 11464, "time": 1537875543, "locktime": 0, "vsize": 226, "size": 226}