{"hash": "7140779e3808aed39a05b7be3761d11ccd043e225f4986cc6b498601c7a915dd", "blockhash": "0000000000000000000e13cef7c366c0283d82e591d1acd082e914b08063cdf1", "vout": [{"scriptPubKey": {"reqSigs": 1, "hex": "76a914aa8cdaa3fe351364a16da5b23da10c5026c1e2bb88ac", "addresses": ["1GYncKk95W8fAxHzk7TK6X3r8LZpNJ2nLN"], "asm": "OP_DUP OP_HASH160 aa8cdaa3fe351364a16da5b23da10c5026c1e2bb OP_EQUALVERIFY OP_CHECKSIG", "type": "pubkeyhash"}, "value": 0.00037, "n": 0}, {"scriptPubKey": {"reqSigs": 1, "hex": "a9149dd18159904708b74b9a6cb57dbfb6dd3a6cfa9387", "addresses": ["3G5UzLq3fqE5xy9wyhDFnZpTXXeMZuV433"], "asm": "OP_HASH160 9dd18159904708b74b9a6cb57dbfb6dd3a6cfa93 OP_EQUAL", "type": "scripthash"}, "value": 0.004, "n": 1}, {"scriptPubKey": {"reqSigs": 1, "hex": "a9141988a27e3c2df4ddee7fad5a2303d086179b2a3087", "addresses": ["3422VtS7UtCvXYxoXMVp6eZupR252z85oC"], "asm": "OP_HASH160 1988a27e3c2df4ddee7fad5a2303d086179b2a30 OP_EQUAL", "type": "scripthash"}, "value": 2.58821203, "n": 2}], "hex": "0100000000010150319c17e13b2c3754bca800f9f38bb0463c0ba8e6a5ebf019c91577e66303bd010000002322002065d416c48a8072e0ac51c2d111eb194f009caef0332446c1bf2097316cf07fa9ffffffff0388900000000000001976a914aa8cdaa3fe351364a16da5b23da10c5026c1e2bb88ac801a06000000000017a9149dd18159904708b74b9a6cb57dbfb6dd3a6cfa9387534c6d0f0000000017a9141988a27e3c2df4ddee7fad5a2303d086179b2a3087040047304402200e7ef04ec52f234a689b883399e1815592fe05aadd5297ace96e21a7a617be3802205d3a08753d42bf41823cce3e74bf2a9cc4d37fc9bead240297d5c43495a4f88201483045022100d7efc8fef714f3443247ceea484fc982c0d5856f2ff999a7c4636b966423abf802206874cf9ee59f4ae0d4a612437af6616a7b66cdf9d6154697f6a57c22ed49e3d00169522102f44abcf9e23c9a460da309ccca56c619c04eed3bde2c2cff5e7d78fbcd980b9c2103c9443cf3047bb6c2c82f1b0c44c36109cdc3d0d601d16d1189a1602bf8d1a0a02103bfe867059274412412e088af5572b92168c2ef495cfe6c9b7a753a009eb37c4853ae00000000", "vin": [{"txinwitness": ["", "304402200e7ef04ec52f234a689b883399e1815592fe05aadd5297ace96e21a7a617be3802205d3a08753d42bf41823cce3e74bf2a9cc4d37fc9bead240297d5c43495a4f88201", "3045022100d7efc8fef714f3443247ceea484fc982c0d5856f2ff999a7c4636b966423abf802206874cf9ee59f4ae0d4a612437af6616a7b66cdf9d6154697f6a57c22ed49e3d001", "522102f44abcf9e23c9a460da309ccca56c619c04eed3bde2c2cff5e7d78fbcd980b9c2103c9443cf3047bb6c2c82f1b0c44c36109cdc3d0d601d16d1189a1602bf8d1a0a02103bfe867059274412412e088af5572b92168c2ef495cfe6c9b7a753a009eb37c4853ae"], "sequence": 4294967295, "scriptSig": {"hex": "22002065d416c48a8072e0ac51c2d111eb194f009caef0332446c1bf2097316cf07fa9", "asm": "002065d416c48a8072e0ac51c2d111eb194f009caef0332446c1bf2097316cf07fa9"}, "vout": 1, "txid": "bd0363e67715c919f0eba5e6a80b3c46b08bf3f900a8bc54372c3be1179c3150"}], "txid": "23397030916e33df81f360e668734352cadb571647cb496b2cf7a0c51ad7b3f5", "blocktime": 1537871767, "version": 1, "confirmations": 11491, "time": 1537871767, "locktime": 0, "vsize": 248, "size": 439}