{"hash": "233f12ca594be76c612e1da7d7f1f5023af4fd04b2fed06071182024382b8b7b", "blockhash": "00000000000000000018f53835495a110e01622372bf6ae95dc86f2b0ab887b0", "vout": [{"scriptPubKey": {"reqSigs": 1, "hex": "a914c8f17ef0d6a367f58e949116f6eaaa76aea52c3187", "addresses": ["3L1WNLUJs3oF9uHGVQJoK3bkVmnoqmjNPU"], "asm": "OP_HASH160 c8f17ef0d6a367f58e949116f6eaaa76aea52c31 OP_EQUAL", "type": "scripthash"}, "value": 0.1526, "n": 0}, {"scriptPubKey": {"reqSigs": 1, "hex": "76a914b744dc8225ad51fae54a14407d828e876ac83c9e88ac", "addresses": ["1Hi39gDjq3Ba8zAjcAPahRHzsCNjbKMVKs"], "asm": "OP_DUP OP_HASH160 b744dc8225ad51fae54a14407d828e876ac83c9e OP_EQUALVERIFY OP_CHECKSIG", "type": "pubkeyhash"}, "value": 0.00136658, "n": 1}], "hex": "01000000011b8034bbaee5040814f254c442c8e6a4d3f25f333265cc9db47c51eb29619ee6000000006b483045022100b8e97a53b8ca2c3fda68efaa6d76cef18de92607d4ad496027db1e4ee7f9d87d02205f3f6d6edef19d91dba92da5bc40720c9279c8b617596532ce71ff81e21ca05a012102b2ec2a7bb755adde644999800ec6fc796b54929dcd234e230f38b26ed881a2e7ffffffff0260d9e8000000000017a914c8f17ef0d6a367f58e949116f6eaaa76aea52c3187d2150200000000001976a914b744dc8225ad51fae54a14407d828e876ac83c9e88ac00000000", "vin": [{"sequence": 4294967295, "scriptSig": {"hex": "483045022100b8e97a53b8ca2c3fda68efaa6d76cef18de92607d4ad496027db1e4ee7f9d87d02205f3f6d6edef19d91dba92da5bc40720c9279c8b617596532ce71ff81e21ca05a012102b2ec2a7bb755adde644999800ec6fc796b54929dcd234e230f38b26ed881a2e7", "asm": "3045022100b8e97a53b8ca2c3fda68efaa6d76cef18de92607d4ad496027db1e4ee7f9d87d02205f3f6d6edef19d91dba92da5bc40720c9279c8b617596532ce71ff81e21ca05a[ALL] 02b2ec2a7bb755adde644999800ec6fc796b54929dcd234e230f38b26ed881a2e7"}, "vout": 0, "txid": "e69e6129eb517cb49dcc6532335ff2d3a4e6c842c454f2140804e5aebb34801b"}], "txid": "233f12ca594be76c612e1da7d7f1f5023af4fd04b2fed06071182024382b8b7b", "blocktime": 1537870928, "version": 1, "confirmations": 11512, "time": 1537870928, "locktime": 0, "vsize": 224, "size": 224}