{"hash": "23440495bf1702cbb8b8a62fc0c29cf94647559f8e87c5115d5c903fb39eb13c", "blockhash": "0000000000000000001e0dab787dd257d1dbfcb92a98c2207d5e1078be1f4165", "vout": [{"scriptPubKey": {"reqSigs": 1, "hex": "76a914b5ebd69ce0d4004982a68daf42d1254e21e5af1f88ac", "addresses": ["1Hauq4EpyX8K76gZgYyPuYPeav1Bj7uGVr"], "asm": "OP_DUP OP_HASH160 b5ebd69ce0d4004982a68daf42d1254e21e5af1f OP_EQUALVERIFY OP_CHECKSIG", "type": "pubkeyhash"}, "value": 0.00172005, "n": 0}, {"scriptPubKey": {"reqSigs": 1, "hex": "76a914ce1427222f8399dbbabd07121d136ad000ab1b9c88ac", "addresses": ["1KneLmEj8YHgN1g85PYSzt8CPbJhEjCJNk"], "asm": "OP_DUP OP_HASH160 ce1427222f8399dbbabd07121d136ad000ab1b9c OP_EQUALVERIFY OP_CHECKSIG", "type": "pubkeyhash"}, "value": 3.532e-05, "n": 1}], "hex": "0100000001a5c22248e03695c6d21ec9d3b1f7ec697e7e659fa849e750fcf7721b5b4bd4320c0000006b483045022100e5a419c0d328fd056bff667df8857f2bca82161e0457983003579c10c1c738250220191cae7de8ffebcf596c4ae8e36c124ae505f743c6db41df8c6e8a54f5867ec4012103e87430042a2c81abddefaec4c74a0850d402bf70fffe467c80fe7adeb5ef89adffffffff02e59f0200000000001976a914b5ebd69ce0d4004982a68daf42d1254e21e5af1f88accc0d0000000000001976a914ce1427222f8399dbbabd07121d136ad000ab1b9c88ac00000000", "vin": [{"sequence": 4294967295, "scriptSig": {"hex": "483045022100e5a419c0d328fd056bff667df8857f2bca82161e0457983003579c10c1c738250220191cae7de8ffebcf596c4ae8e36c124ae505f743c6db41df8c6e8a54f5867ec4012103e87430042a2c81abddefaec4c74a0850d402bf70fffe467c80fe7adeb5ef89ad", "asm": "3045022100e5a419c0d328fd056bff667df8857f2bca82161e0457983003579c10c1c738250220191cae7de8ffebcf596c4ae8e36c124ae505f743c6db41df8c6e8a54f5867ec4[ALL] 03e87430042a2c81abddefaec4c74a0850d402bf70fffe467c80fe7adeb5ef89ad"}, "vout": 12, "txid": "32d44b5b1b72f7fc50e749a89f657e7e69ecf7b1d3c91ed2c69536e04822c2a5"}], "txid": "23440495bf1702cbb8b8a62fc0c29cf94647559f8e87c5115d5c903fb39eb13c", "blocktime": 1537872475, "version": 1, "confirmations": 11486, "time": 1537872475, "locktime": 0, "vsize": 226, "size": 226}