{"hash": "23539b8695be1955caaf2da658d5b4b1321a1d813321f1be5c1bd023b6849387", "blockhash": "0000000000000000001e0dab787dd257d1dbfcb92a98c2207d5e1078be1f4165", "vout": [{"scriptPubKey": {"reqSigs": 1, "hex": "a9143f4eecba122ad73039d481c8d37f99cb4f887cd887", "addresses": ["37Tm3Qz8Zw2VJrheUUhArDAoq58S6YrS3g"], "asm": "OP_HASH160 3f4eecba122ad73039d481c8d37f99cb4f887cd8 OP_EQUAL", "type": "scripthash"}, "value": 1.0, "n": 0}, {"scriptPubKey": {"reqSigs": 1, "hex": "a9141b05eac0164c0718a7c29c488ce7be18a2478ed687", "addresses": ["349uFqrR3GpCrP1kHGazfpjD1SMgXqrGV9"], "asm": "OP_HASH160 1b05eac0164c0718a7c29c488ce7be18a2478ed6 OP_EQUAL", "type": "scripthash"}, "value": 9.03100074, "n": 1}], "hex": "01000000090ec924edfe60b9ca9c197302e2f793d0b9a9336873c29b63fc4a77edf3246a4358000000fdfe0000483045022100f1a62bd9df5e02f81f39c96141cbfbb1082b0739a89aa385931af3db9ff870bc02207dda8553bba6873d00efafe12da112e8cbb00de3949895008ca6868beb1f87d8014830450221009f4667ef5142fd22f9d2500e85c633767ea2d006b89eb9ad279641d8ae1b202802203bd4905f324ffce598513040b4dc2587f677588e300c325a3662f35e54180180014c69522102a075a35601b5d1edd2c54c704ea31c3ea1093ae10b4a271a517662e8b21d2c0021036794d905773276e61bf60331d0684506956ea755e1253fd7fffcac267d132dba2103fdf232feecef300daf29696c9bc60b766b141074c5b97dd22aa81cdeab00d12053aeffffffffb443d34ffa98b0ba5e70fbebe4326c0574bd2c87b31a9cb6201b61e90cd329e110000000fdfd0000473044022012965e0f8e950e330555fae01162383e18aafef0b8faa42ddc9136a8e58cd096022002eff93cc899a156888970a5a1828575e88bdbaf3c6b46e0bd2ca0d530fc04ed0148304502210083af8c63261584f666b08971ab04520088c4b0de0b8b0e23ac4f23c9dcdd4b8e02201fd54fb7984ff6f3d509949ef5edeb71c8f01445e9f5135abaf3bb543163e978014c69522102ad5dd55cf674e9515bbcc70d44899c4c378f583bea8c0608d76095899c9c6a39210288a77d8bae9c6d8c526dc740edc13dbca58a0fc2524e141857a4b64f879bbcad2102dbc4433c8c9fda00dae6ef58ad276137db569eab3bce6f1781d9ddf0c4dbb6a453aeffffffff3163848cdff51598485a0594436dea5ad1e8cc67c9dc1c9ff5c58949475eb5cd49000000fc0047304402206cca686e33d13baf1ea88532875cbd25f8ca2cfed8af5447d13f01fd2cfd2bb7022002764ff82d0b702c7d9daf1482c1e748c5587e2e9c170a927dc1ce8225bb7183014730440220102e7f395bc4f6d4aff43b228ea74035420a19d14ae90e400c6adbbcab26ecfc022057b37e0bfc32854de64e78d1469f43c9ba45d9a00a34903bcf594904d0f7c974014c69522102fe982f84c96037fade4a0ce1fba082bb2c9e1b3c66afa43eaa9fc5aaf927571521033fe826d896ae70445112c3a6298e11e2f2e72f89156d1e78001c96464ea9696a2102a19a27e72624e1249db72ace1414577df513ad4f537004bb74f3d4fabfe54b0153aeffffffffd02aa80ded5863f3d0b4d420a6f43541b0a295681bcba00cb4d3871f4b5f588f55000000fc0047304402200266198932d1f5d7f126975e339b09a492838ee9a68ea946e34f7fc61f24d28f02202b6021a4067d8fb43c6db885a36aaa815d60dc2a7bd3f4bb49bb88d54abc8a760147304402201e2010ab3bb742b5e2257c756c601d76b0135629679782f19cba7feeae6f4f3202202f8259fad0f650a41314b2ab8d7d1e2b0e31fdda3d1a1560d54b0019f8f3b8e5014c69522103c6302f4932b9d77fee5685b2579310b66f164b6634aedc3cbaa60672be5e3c53210370f543b1a925836e177fd69f2f9e3e95cedbc625ad3bab3c067b5093d15e9d4621036872f367199a6ff443fda4ba80d9fea0a90857248dcdfacf8ec25ae2e54c0a6053aeffffffffbe795fa392319d181564ba6e6803334ccd9bf1eed929f709ce5f3f01311fcc4027000000fdfd000047304402206c896b99b66ebe1247643b852fe98582d1f133374462bdb1ead0267ba153621f0220693dd17be0d305948b834961be051483a35f9171c3240a1d1958267225e17d65014830450221009dcd9594dbcfc6ade71749fedc86aae9bd0526dd9588a1701abc1d581088e04002200dd116bf643cdcf1f1f341cdd8cea425252cc6028e07e586a58b12ca14b66dd4014c6952210232d831fd4da4d537e5ea6436b2ac7ca2aedea5b5a5ce5a714fe9732c9de2de1921037f16d5b46a27f065bcf74929342a9961aa0ff97567c7c5bf6abc599fe0cd8d672102010e2bb4656be7cf75bd026611fa4a0fbcdb33efbaad702ece9ead1cf141a48e53aeffffffff35611fa1dbd713d1ee445abc4f124a4e5bfbbc381675e6ce13f1a133d1eb607f4e000000fdfd000047304402205fcd74366c0afa28ef95eddf36bb7bef0ec4c0aa5072e97d66929b134037f53a02207d644e36016d950a5c19cadaf4d370fba064f8da909deec395a83e3a865731ee01483045022100e93b1f2f78c736533a51848a4dd114f0d27859bf637f3a3e83f1d2baabf5005702203d1e702a6184450e022974cd03e523ca9d9384ff3fce75ffd9f2989138341349014c695221029b5a7ece6f928c3cb5244f92b54722a6a90b42ff0bdac3036a5a53985829b8802103d8acffe27d72da7ed18c1fb8a29e28e0fc96a97bcb838b797a979f01e81d488e210307e1211785bb9d257ec0d7656b042ccca0d010dfc7ca1c80fd1b30db68c75cfe53aeffffffff6e2277552fad27a62638b2c238346b698d1077cc1752dd04577f4070a78a50d33a000000fdfd000047304402201db69e71927be2c9f6347e29be16ba38a007f6bfcfefe13ed8620785c38ef79b02206302ea05839401583201860d957486bbd9bc42f6d42204aeec82ef206995d13101483045022100860994cd583c81a6204f7f54ffabb41354ee408800252c0303e554903aea2da202200f3b6862e31baed852bf1c183886c47b82e2935f62ac8ce4c79a0bffb12bc432014c6952210212ed80c2be564b8b3dbfa59dfbbdb6c3be814f9dbc7b6989a685a0bea3d0a1462103616509e21d777916dc50bb1fda22aa8e9a756ad310ac168d54c41c6c95e39648210354e841d50fa242496622d9de63eeaf7b65a87114dc3c694067a7a6a5adab2f8253aeffffffff6e2277552fad27a62638b2c238346b698d1077cc1752dd04577f4070a78a50d314000000fdfe00004830450221009552b44a3db3348cb4cc182dc11b130671c4d89e94331e0856229a7e8f885cac022046b7c50bba51edb408f24441815eb5a046860e9c4635c005a620b3fa9b3ddb3301483045022100f69bcb6b29a93fc8840e8cd4d09f9dfc531368678a6ac951e7c8194776e0ba72022000f29b880a8591ba83371424b63a285944fbceb0f372dbf5546f3864ef0c0ec4014c69522103dea8ae6ef7a21328bfaef702327971ea8f7303f125869605135e1c8f600143a421024929b7b423513531efe8c681f0aa198908d15b7447036e6d296355f99452251a2102ea9fa259584d0882a622dc2d7dd83c38470d675130c4f0be7a5b6b072ed6538053aeffffffffb62612d9a94df5e35172d16354b84fff6ed0a775e48f860503e3dea1c629b30e01000000fdfd00004830450221008610b14a6ebac6058f46b9886894d389ee9804d5a2a7c44058d6d9b4e3f44e41022076cdb6970825630ef3175995a9f9978f67c5a2f0f1db7bc9b88fd0e2e498f9e101473044022028ce32bb4417c6d00b897fc6eaffb5be448f20453f08bad6bf2b397840fca0e602206daf28c73a9c73dbf8ec11eda05e6d56b063502ac5a04637beb73644a7c6adbf014c695221023adfd26d4113d86bea4810d8750c510a8ab8c13c3e2f671a3951f19dcacec270210325d45fadbcbfec02f3a618bbe79c87bf9bca043e8fb198004c40336b78978ba4210318099f77516b2eb1bcf8bcb71ecf50ec738162dbdc8e94bb518440dd4bc660c453aeffffffff0200e1f5050000000017a9143f4eecba122ad73039d481c8d37f99cb4f887cd887aa36d4350000000017a9141b05eac0164c0718a7c29c488ce7be18a2478ed68700000000", "vin": [{"sequence": 4294967295, "scriptSig": {"hex": "00483045022100f1a62bd9df5e02f81f39c96141cbfbb1082b0739a89aa385931af3db9ff870bc02207dda8553bba6873d00efafe12da112e8cbb00de3949895008ca6868beb1f87d8014830450221009f4667ef5142fd22f9d2500e85c633767ea2d006b89eb9ad279641d8ae1b202802203bd4905f324ffce598513040b4dc2587f677588e300c325a3662f35e54180180014c69522102a075a35601b5d1edd2c54c704ea31c3ea1093ae10b4a271a517662e8b21d2c0021036794d905773276e61bf60331d0684506956ea755e1253fd7fffcac267d132dba2103fdf232feecef300daf29696c9bc60b766b141074c5b97dd22aa81cdeab00d12053ae", "asm": "0 3045022100f1a62bd9df5e02f81f39c96141cbfbb1082b0739a89aa385931af3db9ff870bc02207dda8553bba6873d00efafe12da112e8cbb00de3949895008ca6868beb1f87d8[ALL] 30450221009f4667ef5142fd22f9d2500e85c633767ea2d006b89eb9ad279641d8ae1b202802203bd4905f324ffce598513040b4dc2587f677588e300c325a3662f35e54180180[ALL] 522102a075a35601b5d1edd2c54c704ea31c3ea1093ae10b4a271a517662e8b21d2c0021036794d905773276e61bf60331d0684506956ea755e1253fd7fffcac267d132dba2103fdf232feecef300daf29696c9bc60b766b141074c5b97dd22aa81cdeab00d12053ae"}, "vout": 88, "txid": "436a24f3ed774afc639bc2736833a9b9d093f7e20273199ccab960feed24c90e"}, {"sequence": 4294967295, "scriptSig": {"hex": "00473044022012965e0f8e950e330555fae01162383e18aafef0b8faa42ddc9136a8e58cd096022002eff93cc899a156888970a5a1828575e88bdbaf3c6b46e0bd2ca0d530fc04ed0148304502210083af8c63261584f666b08971ab04520088c4b0de0b8b0e23ac4f23c9dcdd4b8e02201fd54fb7984ff6f3d509949ef5edeb71c8f01445e9f5135abaf3bb543163e978014c69522102ad5dd55cf674e9515bbcc70d44899c4c378f583bea8c0608d76095899c9c6a39210288a77d8bae9c6d8c526dc740edc13dbca58a0fc2524e141857a4b64f879bbcad2102dbc4433c8c9fda00dae6ef58ad276137db569eab3bce6f1781d9ddf0c4dbb6a453ae", "asm": "0 3044022012965e0f8e950e330555fae01162383e18aafef0b8faa42ddc9136a8e58cd096022002eff93cc899a156888970a5a1828575e88bdbaf3c6b46e0bd2ca0d530fc04ed[ALL] 304502210083af8c63261584f666b08971ab04520088c4b0de0b8b0e23ac4f23c9dcdd4b8e02201fd54fb7984ff6f3d509949ef5edeb71c8f01445e9f5135abaf3bb543163e978[ALL] 522102ad5dd55cf674e9515bbcc70d44899c4c378f583bea8c0608d76095899c9c6a39210288a77d8bae9c6d8c526dc740edc13dbca58a0fc2524e141857a4b64f879bbcad2102dbc4433c8c9fda00dae6ef58ad276137db569eab3bce6f1781d9ddf0c4dbb6a453ae"}, "vout": 16, "txid": "e129d30ce9611b20b69c1ab3872cbd74056c32e4ebfb705ebab098fa4fd343b4"}, {"sequence": 4294967295, "scriptSig": {"hex": "0047304402206cca686e33d13baf1ea88532875cbd25f8ca2cfed8af5447d13f01fd2cfd2bb7022002764ff82d0b702c7d9daf1482c1e748c5587e2e9c170a927dc1ce8225bb7183014730440220102e7f395bc4f6d4aff43b228ea74035420a19d14ae90e400c6adbbcab26ecfc022057b37e0bfc32854de64e78d1469f43c9ba45d9a00a34903bcf594904d0f7c974014c69522102fe982f84c96037fade4a0ce1fba082bb2c9e1b3c66afa43eaa9fc5aaf927571521033fe826d896ae70445112c3a6298e11e2f2e72f89156d1e78001c96464ea9696a2102a19a27e72624e1249db72ace1414577df513ad4f537004bb74f3d4fabfe54b0153ae", "asm": "0 304402206cca686e33d13baf1ea88532875cbd25f8ca2cfed8af5447d13f01fd2cfd2bb7022002764ff82d0b702c7d9daf1482c1e748c5587e2e9c170a927dc1ce8225bb7183[ALL] 30440220102e7f395bc4f6d4aff43b228ea74035420a19d14ae90e400c6adbbcab26ecfc022057b37e0bfc32854de64e78d1469f43c9ba45d9a00a34903bcf594904d0f7c974[ALL] 522102fe982f84c96037fade4a0ce1fba082bb2c9e1b3c66afa43eaa9fc5aaf927571521033fe826d896ae70445112c3a6298e11e2f2e72f89156d1e78001c96464ea9696a2102a19a27e72624e1249db72ace1414577df513ad4f537004bb74f3d4fabfe54b0153ae"}, "vout": 73, "txid": "cdb55e474989c5f59f1cdcc967cce8d15aea6d4394055a489815f5df8c846331"}, {"sequence": 4294967295, "scriptSig": {"hex": "0047304402200266198932d1f5d7f126975e339b09a492838ee9a68ea946e34f7fc61f24d28f02202b6021a4067d8fb43c6db885a36aaa815d60dc2a7bd3f4bb49bb88d54abc8a760147304402201e2010ab3bb742b5e2257c756c601d76b0135629679782f19cba7feeae6f4f3202202f8259fad0f650a41314b2ab8d7d1e2b0e31fdda3d1a1560d54b0019f8f3b8e5014c69522103c6302f4932b9d77fee5685b2579310b66f164b6634aedc3cbaa60672be5e3c53210370f543b1a925836e177fd69f2f9e3e95cedbc625ad3bab3c067b5093d15e9d4621036872f367199a6ff443fda4ba80d9fea0a90857248dcdfacf8ec25ae2e54c0a6053ae", "asm": "0 304402200266198932d1f5d7f126975e339b09a492838ee9a68ea946e34f7fc61f24d28f02202b6021a4067d8fb43c6db885a36aaa815d60dc2a7bd3f4bb49bb88d54abc8a76[ALL] 304402201e2010ab3bb742b5e2257c756c601d76b0135629679782f19cba7feeae6f4f3202202f8259fad0f650a41314b2ab8d7d1e2b0e31fdda3d1a1560d54b0019f8f3b8e5[ALL] 522103c6302f4932b9d77fee5685b2579310b66f164b6634aedc3cbaa60672be5e3c53210370f543b1a925836e177fd69f2f9e3e95cedbc625ad3bab3c067b5093d15e9d4621036872f367199a6ff443fda4ba80d9fea0a90857248dcdfacf8ec25ae2e54c0a6053ae"}, "vout": 85, "txid": "8f585f4b1f87d3b40ca0cb1b6895a2b04135f4a620d4b4d0f36358ed0da82ad0"}, {"sequence": 4294967295, "scriptSig": {"hex": "0047304402206c896b99b66ebe1247643b852fe98582d1f133374462bdb1ead0267ba153621f0220693dd17be0d305948b834961be051483a35f9171c3240a1d1958267225e17d65014830450221009dcd9594dbcfc6ade71749fedc86aae9bd0526dd9588a1701abc1d581088e04002200dd116bf643cdcf1f1f341cdd8cea425252cc6028e07e586a58b12ca14b66dd4014c6952210232d831fd4da4d537e5ea6436b2ac7ca2aedea5b5a5ce5a714fe9732c9de2de1921037f16d5b46a27f065bcf74929342a9961aa0ff97567c7c5bf6abc599fe0cd8d672102010e2bb4656be7cf75bd026611fa4a0fbcdb33efbaad702ece9ead1cf141a48e53ae", "asm": "0 304402206c896b99b66ebe1247643b852fe98582d1f133374462bdb1ead0267ba153621f0220693dd17be0d305948b834961be051483a35f9171c3240a1d1958267225e17d65[ALL] 30450221009dcd9594dbcfc6ade71749fedc86aae9bd0526dd9588a1701abc1d581088e04002200dd116bf643cdcf1f1f341cdd8cea425252cc6028e07e586a58b12ca14b66dd4[ALL] 52210232d831fd4da4d537e5ea6436b2ac7ca2aedea5b5a5ce5a714fe9732c9de2de1921037f16d5b46a27f065bcf74929342a9961aa0ff97567c7c5bf6abc599fe0cd8d672102010e2bb4656be7cf75bd026611fa4a0fbcdb33efbaad702ece9ead1cf141a48e53ae"}, "vout": 39, "txid": "40cc1f31013f5fce09f729d9eef19bcd4c3303686eba6415189d3192a35f79be"}, {"sequence": 4294967295, "scriptSig": {"hex": "0047304402205fcd74366c0afa28ef95eddf36bb7bef0ec4c0aa5072e97d66929b134037f53a02207d644e36016d950a5c19cadaf4d370fba064f8da909deec395a83e3a865731ee01483045022100e93b1f2f78c736533a51848a4dd114f0d27859bf637f3a3e83f1d2baabf5005702203d1e702a6184450e022974cd03e523ca9d9384ff3fce75ffd9f2989138341349014c695221029b5a7ece6f928c3cb5244f92b54722a6a90b42ff0bdac3036a5a53985829b8802103d8acffe27d72da7ed18c1fb8a29e28e0fc96a97bcb838b797a979f01e81d488e210307e1211785bb9d257ec0d7656b042ccca0d010dfc7ca1c80fd1b30db68c75cfe53ae", "asm": "0 304402205fcd74366c0afa28ef95eddf36bb7bef0ec4c0aa5072e97d66929b134037f53a02207d644e36016d950a5c19cadaf4d370fba064f8da909deec395a83e3a865731ee[ALL] 3045022100e93b1f2f78c736533a51848a4dd114f0d27859bf637f3a3e83f1d2baabf5005702203d1e702a6184450e022974cd03e523ca9d9384ff3fce75ffd9f2989138341349[ALL] 5221029b5a7ece6f928c3cb5244f92b54722a6a90b42ff0bdac3036a5a53985829b8802103d8acffe27d72da7ed18c1fb8a29e28e0fc96a97bcb838b797a979f01e81d488e210307e1211785bb9d257ec0d7656b042ccca0d010dfc7ca1c80fd1b30db68c75cfe53ae"}, "vout": 78, "txid": "7f60ebd133a1f113cee6751638bcfb5b4e4a124fbc5a44eed113d7dba11f6135"}, {"sequence": 4294967295, "scriptSig": {"hex": "0047304402201db69e71927be2c9f6347e29be16ba38a007f6bfcfefe13ed8620785c38ef79b02206302ea05839401583201860d957486bbd9bc42f6d42204aeec82ef206995d13101483045022100860994cd583c81a6204f7f54ffabb41354ee408800252c0303e554903aea2da202200f3b6862e31baed852bf1c183886c47b82e2935f62ac8ce4c79a0bffb12bc432014c6952210212ed80c2be564b8b3dbfa59dfbbdb6c3be814f9dbc7b6989a685a0bea3d0a1462103616509e21d777916dc50bb1fda22aa8e9a756ad310ac168d54c41c6c95e39648210354e841d50fa242496622d9de63eeaf7b65a87114dc3c694067a7a6a5adab2f8253ae", "asm": "0 304402201db69e71927be2c9f6347e29be16ba38a007f6bfcfefe13ed8620785c38ef79b02206302ea05839401583201860d957486bbd9bc42f6d42204aeec82ef206995d131[ALL] 3045022100860994cd583c81a6204f7f54ffabb41354ee408800252c0303e554903aea2da202200f3b6862e31baed852bf1c183886c47b82e2935f62ac8ce4c79a0bffb12bc432[ALL] 52210212ed80c2be564b8b3dbfa59dfbbdb6c3be814f9dbc7b6989a685a0bea3d0a1462103616509e21d777916dc50bb1fda22aa8e9a756ad310ac168d54c41c6c95e39648210354e841d50fa242496622d9de63eeaf7b65a87114dc3c694067a7a6a5adab2f8253ae"}, "vout": 58, "txid": "d3508aa770407f5704dd5217cc77108d696b3438c2b23826a627ad2f5577226e"}, {"sequence": 4294967295, "scriptSig": {"hex": "004830450221009552b44a3db3348cb4cc182dc11b130671c4d89e94331e0856229a7e8f885cac022046b7c50bba51edb408f24441815eb5a046860e9c4635c005a620b3fa9b3ddb3301483045022100f69bcb6b29a93fc8840e8cd4d09f9dfc531368678a6ac951e7c8194776e0ba72022000f29b880a8591ba83371424b63a285944fbceb0f372dbf5546f3864ef0c0ec4014c69522103dea8ae6ef7a21328bfaef702327971ea8f7303f125869605135e1c8f600143a421024929b7b423513531efe8c681f0aa198908d15b7447036e6d296355f99452251a2102ea9fa259584d0882a622dc2d7dd83c38470d675130c4f0be7a5b6b072ed6538053ae", "asm": "0 30450221009552b44a3db3348cb4cc182dc11b130671c4d89e94331e0856229a7e8f885cac022046b7c50bba51edb408f24441815eb5a046860e9c4635c005a620b3fa9b3ddb33[ALL] 3045022100f69bcb6b29a93fc8840e8cd4d09f9dfc531368678a6ac951e7c8194776e0ba72022000f29b880a8591ba83371424b63a285944fbceb0f372dbf5546f3864ef0c0ec4[ALL] 522103dea8ae6ef7a21328bfaef702327971ea8f7303f125869605135e1c8f600143a421024929b7b423513531efe8c681f0aa198908d15b7447036e6d296355f99452251a2102ea9fa259584d0882a622dc2d7dd83c38470d675130c4f0be7a5b6b072ed6538053ae"}, "vout": 20, "txid": "d3508aa770407f5704dd5217cc77108d696b3438c2b23826a627ad2f5577226e"}, {"sequence": 4294967295, "scriptSig": {"hex": "004830450221008610b14a6ebac6058f46b9886894d389ee9804d5a2a7c44058d6d9b4e3f44e41022076cdb6970825630ef3175995a9f9978f67c5a2f0f1db7bc9b88fd0e2e498f9e101473044022028ce32bb4417c6d00b897fc6eaffb5be448f20453f08bad6bf2b397840fca0e602206daf28c73a9c73dbf8ec11eda05e6d56b063502ac5a04637beb73644a7c6adbf014c695221023adfd26d4113d86bea4810d8750c510a8ab8c13c3e2f671a3951f19dcacec270210325d45fadbcbfec02f3a618bbe79c87bf9bca043e8fb198004c40336b78978ba4210318099f77516b2eb1bcf8bcb71ecf50ec738162dbdc8e94bb518440dd4bc660c453ae", "asm": "0 30450221008610b14a6ebac6058f46b9886894d389ee9804d5a2a7c44058d6d9b4e3f44e41022076cdb6970825630ef3175995a9f9978f67c5a2f0f1db7bc9b88fd0e2e498f9e1[ALL] 3044022028ce32bb4417c6d00b897fc6eaffb5be448f20453f08bad6bf2b397840fca0e602206daf28c73a9c73dbf8ec11eda05e6d56b063502ac5a04637beb73644a7c6adbf[ALL] 5221023adfd26d4113d86bea4810d8750c510a8ab8c13c3e2f671a3951f19dcacec270210325d45fadbcbfec02f3a618bbe79c87bf9bca043e8fb198004c40336b78978ba4210318099f77516b2eb1bcf8bcb71ecf50ec738162dbdc8e94bb518440dd4bc660c453ae"}, "vout": 1, "txid": "0eb329c6a1dee30305868fe475a7d06eff4fb85463d17251e3f54da9d91226b6"}], "txid": "23539b8695be1955caaf2da658d5b4b1321a1d813321f1be5c1bd023b6849387", "blocktime": 1537872475, "version": 1, "confirmations": 11486, "time": 1537872475, "locktime": 0, "vsize": 2734, "size": 2734}