{"hash": "235420f7da6234cc1b0b8403baa349bc3a47733474e489a797be6408dc20f609", "blockhash": "000000000000000000022b45ed06c6f4ccd3cf7fb5ba4856ebd2e58215665228", "vout": [{"scriptPubKey": {"reqSigs": 1, "hex": "76a914d7f6bfceee3868e86c4861fc496711da0511cff888ac", "addresses": ["1LgusgZWyrpahoHwXSZj7gRcA6PZp4YAe3"], "asm": "OP_DUP OP_HASH160 d7f6bfceee3868e86c4861fc496711da0511cff8 OP_EQUALVERIFY OP_CHECKSIG", "type": "pubkeyhash"}, "value": 0.00493444, "n": 0}, {"scriptPubKey": {"type": "nulldata", "hex": "6a146f6d6e69000000000000001f00000009502f9000", "asm": "OP_RETURN 6f6d6e69000000000000001f00000009502f9000"}, "value": 0.0, "n": 1}, {"scriptPubKey": {"reqSigs": 1, "hex": "76a914a25dec4d0011064ef106a983c39c7a540699f22088ac", "addresses": ["1FoWyxwPXuj4C6abqwhjDWdz6D4PZgYRjA"], "asm": "OP_DUP OP_HASH160 a25dec4d0011064ef106a983c39c7a540699f220 OP_EQUALVERIFY OP_CHECKSIG", "type": "pubkeyhash"}, "value": 5.46e-06, "n": 2}], "hex": "01000000051ce41322dfe6d125e5de94a8c2fb2e305078646d7f0ddc24b101f68672d1367f010000006a47304402204e34ce602b59569f8237666e73d861b81515c8c73cf0412d0a9559eae0876a9d0220396d35dd874ea212e2be6ab62fbea5b784938c94fd701d37b5e37405640152f70121026d5a90ff4435ad3b641aae7c56b79b058fa91b5db67cfa00ef2d30d3246d3aaffeffffff315c699d628e3c54dd763bf23884baa76c19a3c8e89bc75eb6fb6542f6772b85020000006b483045022100b6d4cabafceb9f817af1bc908159e8b42268f0cc8af2555d05f09336f2c9f63502205ffd204c44405fba08150e34079606cc4f9161b416b934838a973bda109af65f0121026d5a90ff4435ad3b641aae7c56b79b058fa91b5db67cfa00ef2d30d3246d3aaffeffffff7a56c4ef99eded91129c91362f9ca9d14a59b72fe3bfb8fead38d63d619a68df010000006b483045022100aac4c4d1e38fabf28a14766cf88e0ebc0564dc0c7de9292cd6230196da0d735d02204fe5802f385a9ba44a0b610e15465b8c5a45bda012a27da8d83da93e73f4718e0121026d5a90ff4435ad3b641aae7c56b79b058fa91b5db67cfa00ef2d30d3246d3aaffeffffff858aeb909a152db9603041c2202f489a7f13fafed693a3f6a6268588d3a2bd03020000006a473044022072f0ed2e24e87a265f31c03115235b4ab9419de84d747fd35d622aada330640602206ca5e3def41b223b4d2892c7ec67ef71315c947bc98f1c3d8ac3674654f180fe0121026d5a90ff4435ad3b641aae7c56b79b058fa91b5db67cfa00ef2d30d3246d3aaffeffffff912bb5ecb47e9b82b9ba6c310daf7807105c5b8c4bd83906626300c46e39e687010000006a47304402203852ea753b6d1808e92218d8b990b302c53fdc68d1886ff7206affb97d2ee32c02200bd355db98da27afe4ed4d033149e8fed210280bae7fc854bf1f4619a0df1b180121026d5a90ff4435ad3b641aae7c56b79b058fa91b5db67cfa00ef2d30d3246d3aaffeffffff0384870700000000001976a914d7f6bfceee3868e86c4861fc496711da0511cff888ac0000000000000000166a146f6d6e69000000000000001f00000009502f900022020000000000001976a914a25dec4d0011064ef106a983c39c7a540699f22088ac0b490800", "vin": [{"sequence": 4294967294, "scriptSig": {"hex": "47304402204e34ce602b59569f8237666e73d861b81515c8c73cf0412d0a9559eae0876a9d0220396d35dd874ea212e2be6ab62fbea5b784938c94fd701d37b5e37405640152f70121026d5a90ff4435ad3b641aae7c56b79b058fa91b5db67cfa00ef2d30d3246d3aaf", "asm": "304402204e34ce602b59569f8237666e73d861b81515c8c73cf0412d0a9559eae0876a9d0220396d35dd874ea212e2be6ab62fbea5b784938c94fd701d37b5e37405640152f7[ALL] 026d5a90ff4435ad3b641aae7c56b79b058fa91b5db67cfa00ef2d30d3246d3aaf"}, "vout": 1, "txid": "7f36d17286f601b124dc0d7f6d647850302efbc2a894dee525d1e6df2213e41c"}, {"sequence": 4294967294, "scriptSig": {"hex": "483045022100b6d4cabafceb9f817af1bc908159e8b42268f0cc8af2555d05f09336f2c9f63502205ffd204c44405fba08150e34079606cc4f9161b416b934838a973bda109af65f0121026d5a90ff4435ad3b641aae7c56b79b058fa91b5db67cfa00ef2d30d3246d3aaf", "asm": "3045022100b6d4cabafceb9f817af1bc908159e8b42268f0cc8af2555d05f09336f2c9f63502205ffd204c44405fba08150e34079606cc4f9161b416b934838a973bda109af65f[ALL] 026d5a90ff4435ad3b641aae7c56b79b058fa91b5db67cfa00ef2d30d3246d3aaf"}, "vout": 2, "txid": "852b77f64265fbb65ec79be8c8a3196ca7ba8438f23b76dd543c8e629d695c31"}, {"sequence": 4294967294, "scriptSig": {"hex": "483045022100aac4c4d1e38fabf28a14766cf88e0ebc0564dc0c7de9292cd6230196da0d735d02204fe5802f385a9ba44a0b610e15465b8c5a45bda012a27da8d83da93e73f4718e0121026d5a90ff4435ad3b641aae7c56b79b058fa91b5db67cfa00ef2d30d3246d3aaf", "asm": "3045022100aac4c4d1e38fabf28a14766cf88e0ebc0564dc0c7de9292cd6230196da0d735d02204fe5802f385a9ba44a0b610e15465b8c5a45bda012a27da8d83da93e73f4718e[ALL] 026d5a90ff4435ad3b641aae7c56b79b058fa91b5db67cfa00ef2d30d3246d3aaf"}, "vout": 1, "txid": "df689a613dd638adfeb8bfe32fb7594ad1a99c2f36919c1291eded99efc4567a"}, {"sequence": 4294967294, "scriptSig": {"hex": "473044022072f0ed2e24e87a265f31c03115235b4ab9419de84d747fd35d622aada330640602206ca5e3def41b223b4d2892c7ec67ef71315c947bc98f1c3d8ac3674654f180fe0121026d5a90ff4435ad3b641aae7c56b79b058fa91b5db67cfa00ef2d30d3246d3aaf", "asm": "3044022072f0ed2e24e87a265f31c03115235b4ab9419de84d747fd35d622aada330640602206ca5e3def41b223b4d2892c7ec67ef71315c947bc98f1c3d8ac3674654f180fe[ALL] 026d5a90ff4435ad3b641aae7c56b79b058fa91b5db67cfa00ef2d30d3246d3aaf"}, "vout": 2, "txid": "03bda2d3888526a6f6a393d6fefa137f9a482f20c2413060b92d159a90eb8a85"}, {"sequence": 4294967294, "scriptSig": {"hex": "47304402203852ea753b6d1808e92218d8b990b302c53fdc68d1886ff7206affb97d2ee32c02200bd355db98da27afe4ed4d033149e8fed210280bae7fc854bf1f4619a0df1b180121026d5a90ff4435ad3b641aae7c56b79b058fa91b5db67cfa00ef2d30d3246d3aaf", "asm": "304402203852ea753b6d1808e92218d8b990b302c53fdc68d1886ff7206affb97d2ee32c02200bd355db98da27afe4ed4d033149e8fed210280bae7fc854bf1f4619a0df1b18[ALL] 026d5a90ff4435ad3b641aae7c56b79b058fa91b5db67cfa00ef2d30d3246d3aaf"}, "vout": 1, "txid": "87e6396ec40063620639d84b8c5b5c100778af0d316cbab9829b7eb4ecb52b91"}], "txid": "235420f7da6234cc1b0b8403baa349bc3a47733474e489a797be6408dc20f609", "blocktime": 1537869901, "version": 1, "confirmations": 11524, "time": 1537869901, "locktime": 542987, "vsize": 846, "size": 846}