{"hash": "235bbc0bb18c2a91215a8768c7ddff9af0cc87e110a0dd1324571946793f3b4a", "blockhash": "00000000000000000017f5eb5941039fbcee6240d03bc1f2f8e35350df66a1d8", "vout": [{"scriptPubKey": {"reqSigs": 1, "hex": "a9145cbaf849d3bb9f376bfefea8869efddc4d1b88ef87", "addresses": ["3A9L55zeRvYWgxjJWnqaPct2oEZynCZWaQ"], "asm": "OP_HASH160 5cbaf849d3bb9f376bfefea8869efddc4d1b88ef OP_EQUAL", "type": "scripthash"}, "value": 0.005, "n": 0}, {"scriptPubKey": {"reqSigs": 1, "hex": "76a914750c691338e1874e3c8f26d57bf0a3236f4ccde788ac", "addresses": ["1BftvjmKJ2Wc1ATkeEr8Ra7jVodoKSXMC5"], "asm": "OP_DUP OP_HASH160 750c691338e1874e3c8f26d57bf0a3236f4ccde7 OP_EQUALVERIFY OP_CHECKSIG", "type": "pubkeyhash"}, "value": 0.15074418, "n": 1}], "hex": "0100000001dcca0eef99ee758338d986a296c2acfe4311f149c4b5738d904a6b00513f6021010000006b4830450221009230c78662cc9b84a087b2147912af9392d8b85d94ca5cc43bab7c970eba569602203826f77e06df3a8ade1bb83293447e3649fcb21860f9860377e295f3a17abf25012102f07daff1ba0f4d500ed005272db9ea9f10f0a6f6222a5cf97c4bf009ea1200cbffffffff0220a107000000000017a9145cbaf849d3bb9f376bfefea8869efddc4d1b88ef877204e600000000001976a914750c691338e1874e3c8f26d57bf0a3236f4ccde788ac00000000", "vin": [{"sequence": 4294967295, "scriptSig": {"hex": "4830450221009230c78662cc9b84a087b2147912af9392d8b85d94ca5cc43bab7c970eba569602203826f77e06df3a8ade1bb83293447e3649fcb21860f9860377e295f3a17abf25012102f07daff1ba0f4d500ed005272db9ea9f10f0a6f6222a5cf97c4bf009ea1200cb", "asm": "30450221009230c78662cc9b84a087b2147912af9392d8b85d94ca5cc43bab7c970eba569602203826f77e06df3a8ade1bb83293447e3649fcb21860f9860377e295f3a17abf25[ALL] 02f07daff1ba0f4d500ed005272db9ea9f10f0a6f6222a5cf97c4bf009ea1200cb"}, "vout": 1, "txid": "21603f51006b4a908d73b5c449f11143feacc296a286d9388375ee99ef0ecadc"}], "txid": "235bbc0bb18c2a91215a8768c7ddff9af0cc87e110a0dd1324571946793f3b4a", "blocktime": 1537874412, "version": 1, "confirmations": 11467, "time": 1537874412, "locktime": 0, "vsize": 224, "size": 224}