{"hash": "235fce9c6c9eea58d5002a56b2f45cebfceed8a520eafe33b7d1a7a018400743", "blockhash": "0000000000000000001cda96e906b7601b7a6fb1a3b62bca570a9e5d8f4b3de1", "vout": [{"scriptPubKey": {"reqSigs": 1, "hex": "76a914cc16a5b96598d82c85590f70ad4ff455103bcf2188ac", "addresses": ["1Kc7yhaNxufXEE92fJCH1xbPiABhaki9qW"], "asm": "OP_DUP OP_HASH160 cc16a5b96598d82c85590f70ad4ff455103bcf21 OP_EQUALVERIFY OP_CHECKSIG", "type": "pubkeyhash"}, "value": 0.005012, "n": 0}, {"scriptPubKey": {"reqSigs": 1, "hex": "76a9140044fe5d0df2f03c84b9aaf300c957fb4cded79988ac", "addresses": ["112Rem5FAHz9nnDwcdZAav2hn1qjcoVvcB"], "asm": "OP_DUP OP_HASH160 0044fe5d0df2f03c84b9aaf300c957fb4cded799 OP_EQUALVERIFY OP_CHECKSIG", "type": "pubkeyhash"}, "value": 0.55236598, "n": 1}], "hex": "0100000001501113b3d1d862d9647347a381e0830da9b637cd4a7a9b21b5bb65b47deaa127010000006a47304402200e2bc017b863d496299e4b6d0becc101c87baf9b66bfe340146e0b6e4c8aacf702206e4cdaa7546571242ee631ccd7d0cb8e8f13326a7202358bc0d8cf82bdc41feb012103175ef005908ec18ad48eb1f9971f1b121058cf749403ccd1dbd33fb660f2a47affffffff02d0a50700000000001976a914cc16a5b96598d82c85590f70ad4ff455103bcf2188acf6d74a03000000001976a9140044fe5d0df2f03c84b9aaf300c957fb4cded79988ac00000000", "vin": [{"sequence": 4294967295, "scriptSig": {"hex": "47304402200e2bc017b863d496299e4b6d0becc101c87baf9b66bfe340146e0b6e4c8aacf702206e4cdaa7546571242ee631ccd7d0cb8e8f13326a7202358bc0d8cf82bdc41feb012103175ef005908ec18ad48eb1f9971f1b121058cf749403ccd1dbd33fb660f2a47a", "asm": "304402200e2bc017b863d496299e4b6d0becc101c87baf9b66bfe340146e0b6e4c8aacf702206e4cdaa7546571242ee631ccd7d0cb8e8f13326a7202358bc0d8cf82bdc41feb[ALL] 03175ef005908ec18ad48eb1f9971f1b121058cf749403ccd1dbd33fb660f2a47a"}, "vout": 1, "txid": "27a1ea7db465bbb5219b7a4acd37b6a90d83e081a3477364d962d8d1b3131150"}], "txid": "235fce9c6c9eea58d5002a56b2f45cebfceed8a520eafe33b7d1a7a018400743", "blocktime": 1537873282, "version": 1, "confirmations": 11484, "time": 1537873282, "locktime": 0, "vsize": 225, "size": 225}