{"hash": "2363a1893b471d4971b35d2a43953545be0e6db80b6295a4ebccf2101ead1ae3", "blockhash": "0000000000000000001e0dab787dd257d1dbfcb92a98c2207d5e1078be1f4165", "vout": [{"scriptPubKey": {"reqSigs": 1, "hex": "a914974620d3f7c57b1d6f3f5aab3b7233b96ebd941287", "addresses": ["3FUsy74TjA13wPt4e6rNtEWrEfHMMrM852"], "asm": "OP_HASH160 974620d3f7c57b1d6f3f5aab3b7233b96ebd9412 OP_EQUAL", "type": "scripthash"}, "value": 0.78, "n": 0}, {"scriptPubKey": {"reqSigs": 1, "hex": "76a914896fb01973325dde94c6fb21ff53d7b2ac26886488ac", "addresses": ["1DXhNVViVYu4xPGUu4pYH2cTr72UPMqKAt"], "asm": "OP_DUP OP_HASH160 896fb01973325dde94c6fb21ff53d7b2ac268864 OP_EQUALVERIFY OP_CHECKSIG", "type": "pubkeyhash"}, "value": 8.17257656, "n": 1}], "hex": "01000000019f8da009e7b00b5df7b92aa9a7e9d92ce39c94319638cc66244ca5353d3c105a010000008b483045022100a1bae2589e92fbd8eb7677254397d01ce0df7fc4b6d84532e692acd5a942417702207a5c746a3cfac3dad7012d024f89d1460349abc56c2919ea7368dd74cad2595901410424cd257f85c56042860458a0e9231a11cf13c66d0a7ae7552540935dc6d92b7251da37f7117c0548805b1ef30cabcff10a66dc54ce0e328d32d7000c78ce4be4fdffffff02802fa6040000000017a914974620d3f7c57b1d6f3f5aab3b7233b96ebd941287b85cb630000000001976a914896fb01973325dde94c6fb21ff53d7b2ac26886488ac12490800", "vin": [{"sequence": 4294967293, "scriptSig": {"hex": "483045022100a1bae2589e92fbd8eb7677254397d01ce0df7fc4b6d84532e692acd5a942417702207a5c746a3cfac3dad7012d024f89d1460349abc56c2919ea7368dd74cad2595901410424cd257f85c56042860458a0e9231a11cf13c66d0a7ae7552540935dc6d92b7251da37f7117c0548805b1ef30cabcff10a66dc54ce0e328d32d7000c78ce4be4", "asm": "3045022100a1bae2589e92fbd8eb7677254397d01ce0df7fc4b6d84532e692acd5a942417702207a5c746a3cfac3dad7012d024f89d1460349abc56c2919ea7368dd74cad25959[ALL] 0424cd257f85c56042860458a0e9231a11cf13c66d0a7ae7552540935dc6d92b7251da37f7117c0548805b1ef30cabcff10a66dc54ce0e328d32d7000c78ce4be4"}, "vout": 1, "txid": "5a103c3d35a54c2466cc389631949ce32cd9e9a7a92ab9f75d0bb0e709a08d9f"}], "txid": "2363a1893b471d4971b35d2a43953545be0e6db80b6295a4ebccf2101ead1ae3", "blocktime": 1537872475, "version": 1, "confirmations": 11486, "time": 1537872475, "locktime": 542994, "vsize": 256, "size": 256}