{"hash": "6549cd6ed8dc37d0d510fc629490bc62e0a322890b50947545d3a9a406ba01a8", "blockhash": "00000000000000000018f53835495a110e01622372bf6ae95dc86f2b0ab887b0", "vout": [{"scriptPubKey": {"reqSigs": 1, "hex": "a91469f375722485a1179028e7e9e1089d7a0788688187", "addresses": ["3BMEXVqgEAyhFPDVy9NUPmumFpdCTPeuvt"], "asm": "OP_HASH160 69f375722485a1179028e7e9e1089d7a07886881 OP_EQUAL", "type": "scripthash"}, "value": 0.14097172, "n": 0}, {"scriptPubKey": {"reqSigs": 1, "hex": "76a9141f3636a8216f0210ec665b83bef6d6c76a4f4fe888ac", "addresses": ["13r2tmV5Hy2jqyaGmm5utby7J7uTkgH8k1"], "asm": "OP_DUP OP_HASH160 1f3636a8216f0210ec665b83bef6d6c76a4f4fe8 OP_EQUALVERIFY OP_CHECKSIG", "type": "pubkeyhash"}, "value": 0.0014, "n": 1}, {"scriptPubKey": {"reqSigs": 1, "hex": "a91436178de3f229ebf07db97cd9d517a6affd5190b587", "addresses": ["36d2dUs7wiMxnr2td9iQwKxJp7xjNtuRgz"], "asm": "OP_HASH160 36178de3f229ebf07db97cd9d517a6affd5190b5 OP_EQUAL", "type": "scripthash"}, "value": 7.5, "n": 2}, {"scriptPubKey": {"reqSigs": 1, "hex": "76a9140c4e72b8a6909da26712eac73fe86ab276f15def88ac", "addresses": ["12855yUBWczicBEuXDBtdGPNtQsvwY2sfN"], "asm": "OP_DUP OP_HASH160 0c4e72b8a6909da26712eac73fe86ab276f15def OP_EQUALVERIFY OP_CHECKSIG", "type": "pubkeyhash"}, "value": 0.0321077, "n": 3}, {"scriptPubKey": {"reqSigs": 1, "hex": "76a914adb078e582b113898c3cf39e3b9ca912f992a44a88ac", "addresses": ["1GqPJhEazqsTordiZACtQ62K1xfNtKskjK"], "asm": "OP_DUP OP_HASH160 adb078e582b113898c3cf39e3b9ca912f992a44a OP_EQUALVERIFY OP_CHECKSIG", "type": "pubkeyhash"}, "value": 0.1083, "n": 4}, {"scriptPubKey": {"reqSigs": 1, "hex": "0020701a8d401c84fb13e6baf169d59684e17abd9fa216c8cc5b9fc63d622ff8c58d", "addresses": ["bc1qwqdg6squsna38e46795at95yu9atm8azzmyvckulcc7kytlcckxswvvzej"], "asm": "0 701a8d401c84fb13e6baf169d59684e17abd9fa216c8cc5b9fc63d622ff8c58d", "type": "witness_v0_scripthash"}, "value": 1.99880928, "n": 5}], "hex": "01000000000101bdbee4f3362d3120eeb902c0576b240dec9f370636ff4116a580eafa40757b760200000000ffffffff06141bd7000000000017a91469f375722485a1179028e7e9e1089d7a0788688187e0220200000000001976a9141f3636a8216f0210ec665b83bef6d6c76a4f4fe888ac8017b42c0000000017a91436178de3f229ebf07db97cd9d517a6affd5190b58712fe3000000000001976a9140c4e72b8a6909da26712eac73fe86ab276f15def88acb040a500000000001976a914adb078e582b113898c3cf39e3b9ca912f992a44a88ace0f0e90b00000000220020701a8d401c84fb13e6baf169d59684e17abd9fa216c8cc5b9fc63d622ff8c58d0400483045022100b83d890c06b0f940278f5e62a6e00a648e43b2b25d5876a670ad6801dd42628402201171c4c539984f79f3a8bdcdeb1369da7b0701c278df93a6fe94458a1e449ba001473044022059ba5330369c9041af09434379a28b07a00dd99bbf03478d6d5b498e742965ea022026b0e3b408de787932202dd97b75e6516a7c8439d4f80bedf4d3d30a34deddf4016952210375e00eb72e29da82b89367947f29ef34afb75e8654f6ea368e0acdfd92976b7c2103a1b26313f430c4b15bb1fdce663207659d8cac749a0e53d70eff01874496feff2103c96d495bfdd5ba4145e3e046fee45e84a8a48ad05bd8dbb395c011a32cf9f88053ae00000000", "vin": [{"txinwitness": ["", "3045022100b83d890c06b0f940278f5e62a6e00a648e43b2b25d5876a670ad6801dd42628402201171c4c539984f79f3a8bdcdeb1369da7b0701c278df93a6fe94458a1e449ba001", "3044022059ba5330369c9041af09434379a28b07a00dd99bbf03478d6d5b498e742965ea022026b0e3b408de787932202dd97b75e6516a7c8439d4f80bedf4d3d30a34deddf401", "52210375e00eb72e29da82b89367947f29ef34afb75e8654f6ea368e0acdfd92976b7c2103a1b26313f430c4b15bb1fdce663207659d8cac749a0e53d70eff01874496feff2103c96d495bfdd5ba4145e3e046fee45e84a8a48ad05bd8dbb395c011a32cf9f88053ae"], "sequence": 4294967295, "scriptSig": {"hex": "", "asm": ""}, "vout": 2, "txid": "767b7540faea80a51641ff3606379fec0d246b57c002b9ee20312d36f3e4bebd"}], "txid": "2363203f2674fecf7e9d72cb9fbde5c3931bc21032eb93ea0dcda15b690999f0", "blocktime": 1537870928, "version": 1, "confirmations": 11512, "time": 1537870928, "locktime": 0, "vsize": 324, "size": 515}