{"hash": "236758b4cef5b65a79ecbe3db421626f763a1689da37a322ec0829252e052b2d", "blockhash": "0000000000000000000baef3f32e3676a92c3b2e5da21b426e4f302fc371ce76", "vout": [{"scriptPubKey": {"reqSigs": 1, "hex": "76a914d25b8a1f3340cedf1250ef019a53dcc2d1c2532d88ac", "addresses": ["1LBGZZf3EUQg9vSEBPVHHauhdj1BhEkRik"], "asm": "OP_DUP OP_HASH160 d25b8a1f3340cedf1250ef019a53dcc2d1c2532d OP_EQUALVERIFY OP_CHECKSIG", "type": "pubkeyhash"}, "value": 0.01214974, "n": 0}, {"scriptPubKey": {"reqSigs": 1, "hex": "a914d90678359442920d624bfb3cd47e947e392f230087", "addresses": ["3MUYJgeY9ndMkAZwLPNrzsSjkj82eLgZqn"], "asm": "OP_HASH160 d90678359442920d624bfb3cd47e947e392f2300 OP_EQUAL", "type": "scripthash"}, "value": 0.04, "n": 1}], "hex": "0100000002ade86ac348d863c817279b378bbb7c71e0f1ac5288f3a534a00c191dc3a93444000000006b483045022100bfd0e5707c50ccfd23079e8bbc02ccf444c04ebac35668b81cd18f1adb62f6ab022040567255cb248d410e83d460bd963a917370f5cd8489e1257f4ab88649dc7e400121032b7536910c0823bf800b951bb85a71768cff740787adbf55b3d4e7c5e5cd07f0ffffffffaf1118c275bf4d685f0be6129b611db10898bfcecf522849f123151ad6d801b0000000006a47304402204e46d22b0a0c5d81e18f4784c6096220dff8b08889a82733ef951ffdc01e7b5b02202584a696016bae3fa50128fa6c30f851f94de7913ec55d93014fddbbe0a2ce1b012103e7a99d86095702f3ebbf57d169c6eec7426f57891acad0fe8c066c938b2d7b43ffffffff02fe891200000000001976a914d25b8a1f3340cedf1250ef019a53dcc2d1c2532d88ac00093d000000000017a914d90678359442920d624bfb3cd47e947e392f23008700000000", "vin": [{"sequence": 4294967295, "scriptSig": {"hex": "483045022100bfd0e5707c50ccfd23079e8bbc02ccf444c04ebac35668b81cd18f1adb62f6ab022040567255cb248d410e83d460bd963a917370f5cd8489e1257f4ab88649dc7e400121032b7536910c0823bf800b951bb85a71768cff740787adbf55b3d4e7c5e5cd07f0", "asm": "3045022100bfd0e5707c50ccfd23079e8bbc02ccf444c04ebac35668b81cd18f1adb62f6ab022040567255cb248d410e83d460bd963a917370f5cd8489e1257f4ab88649dc7e40[ALL] 032b7536910c0823bf800b951bb85a71768cff740787adbf55b3d4e7c5e5cd07f0"}, "vout": 0, "txid": "4434a9c31d190ca034a5f38852acf1e0717cbb8b379b2717c863d848c36ae8ad"}, {"sequence": 4294967295, "scriptSig": {"hex": "47304402204e46d22b0a0c5d81e18f4784c6096220dff8b08889a82733ef951ffdc01e7b5b02202584a696016bae3fa50128fa6c30f851f94de7913ec55d93014fddbbe0a2ce1b012103e7a99d86095702f3ebbf57d169c6eec7426f57891acad0fe8c066c938b2d7b43", "asm": "304402204e46d22b0a0c5d81e18f4784c6096220dff8b08889a82733ef951ffdc01e7b5b02202584a696016bae3fa50128fa6c30f851f94de7913ec55d93014fddbbe0a2ce1b[ALL] 03e7a99d86095702f3ebbf57d169c6eec7426f57891acad0fe8c066c938b2d7b43"}, "vout": 0, "txid": "b001d8d61a1523f1492852cfcebf9808b11d619b12e60b5f684dbf75c21811af"}], "txid": "236758b4cef5b65a79ecbe3db421626f763a1689da37a322ec0829252e052b2d", "blocktime": 1537876114, "version": 1, "confirmations": 11460, "time": 1537876114, "locktime": 0, "vsize": 371, "size": 371}