{"hash": "ce8c3f68ec65e9575289ab7503ea1d225cf87a9acffe417d20fad1665bad245f", "blockhash": "0000000000000000000baef3f32e3676a92c3b2e5da21b426e4f302fc371ce76", "vout": [{"scriptPubKey": {"reqSigs": 1, "hex": "a914c84e93fe630841759aa79c21785d0f0ee9c2d40f87", "addresses": ["3Kx9CcSurxKXhvncHfmTNm1wsgy8Zthm8Q"], "asm": "OP_HASH160 c84e93fe630841759aa79c21785d0f0ee9c2d40f OP_EQUAL", "type": "scripthash"}, "value": 0.01425723, "n": 0}, {"scriptPubKey": {"reqSigs": 1, "hex": "a9148834da58a01611f3a1e949918bc4d256d63432b987", "addresses": ["3E7D8vB2pCnEpfayh8WMAwn1Pryv9fQ5Y1"], "asm": "OP_HASH160 8834da58a01611f3a1e949918bc4d256d63432b9 OP_EQUAL", "type": "scripthash"}, "value": 0.02241889, "n": 1}], "hex": "02000000000102970ba818ee6ff6c67b236a8c49107851401f9d2686d050db71de2abefd09c7cb0000000017160014f4bd215e4ae149545f3d4ca3df8961dc31107d5bfeffffffd9a8146ffc92406916880a83199b1f96186ef1a495b9a7ef0a84c98864f5b99700000000171600145b6f7a94adef5a8a4fd293df4c592f8749baa244feffffff023bc115000000000017a914c84e93fe630841759aa79c21785d0f0ee9c2d40f87613522000000000017a9148834da58a01611f3a1e949918bc4d256d63432b987024730440220605776a333029500180e45f1c70e983c6a1764b1178d7bbc6339bbf9b8094833022027ee28aee6298a7d383a32ad5d9236f81d09da125a6d0c89f0fd6dc17302aa3e0121033efe723503cba4937321b1aab256884dbb6137b5dca13ee67ae7ef712ceaf2e402483045022100f3c42e60ae1b0607ba7bfeef04438adf1d2950bf60b178c6e958261ac3335165022043e0420dba22208580cbded8afb05efe4a760ab31a2babbc61d23a9f42faf7ca01210210976a1bd05d85b00a351b526a76c64418c9ab19f3f83b8767da1488f32bea1f17490800", "vin": [{"txinwitness": ["30440220605776a333029500180e45f1c70e983c6a1764b1178d7bbc6339bbf9b8094833022027ee28aee6298a7d383a32ad5d9236f81d09da125a6d0c89f0fd6dc17302aa3e01", "033efe723503cba4937321b1aab256884dbb6137b5dca13ee67ae7ef712ceaf2e4"], "sequence": 4294967294, "scriptSig": {"hex": "160014f4bd215e4ae149545f3d4ca3df8961dc31107d5b", "asm": "0014f4bd215e4ae149545f3d4ca3df8961dc31107d5b"}, "vout": 0, "txid": "cbc709fdbe2ade71db50d086269d1f40517810498c6a237bc6f66fee18a80b97"}, {"txinwitness": ["3045022100f3c42e60ae1b0607ba7bfeef04438adf1d2950bf60b178c6e958261ac3335165022043e0420dba22208580cbded8afb05efe4a760ab31a2babbc61d23a9f42faf7ca01", "0210976a1bd05d85b00a351b526a76c64418c9ab19f3f83b8767da1488f32bea1f"], "sequence": 4294967294, "scriptSig": {"hex": "1600145b6f7a94adef5a8a4fd293df4c592f8749baa244", "asm": "00145b6f7a94adef5a8a4fd293df4c592f8749baa244"}, "vout": 0, "txid": "97b9f56488c9840aefa7b995a4f16e18961f9b19830a8816694092fc6f14a8d9"}], "txid": "236e4878df43027d86b5073bd6e414b35391bcc28e6662fbfe670e306ed355b9", "blocktime": 1537876114, "version": 2, "confirmations": 11459, "time": 1537876114, "locktime": 542999, "vsize": 257, "size": 419}