{"hash": "2371f35cc6b28666ac745b4b93708f0a254d86ba6b4416981892623467260b7c", "blockhash": "0000000000000000000baef3f32e3676a92c3b2e5da21b426e4f302fc371ce76", "vout": [{"scriptPubKey": {"reqSigs": 1, "hex": "76a9148da44e58c735bb9b171945bc7021004917b21f2f88ac", "addresses": ["1Duw7ETa9Vvxzwc5mBJHw55XYujJY6NBid"], "asm": "OP_DUP OP_HASH160 8da44e58c735bb9b171945bc7021004917b21f2f OP_EQUALVERIFY OP_CHECKSIG", "type": "pubkeyhash"}, "value": 0.01585892, "n": 0}, {"scriptPubKey": {"reqSigs": 1, "hex": "a91400a1a1ba351a6d2ecaa3f55feb6e22b908fc632787", "addresses": ["31kMYuzUqkzLknMrjaNZ2fAsa8NoGN9U8p"], "asm": "OP_HASH160 00a1a1ba351a6d2ecaa3f55feb6e22b908fc6327 OP_EQUAL", "type": "scripthash"}, "value": 0.00506266, "n": 1}], "hex": "01000000017a84aaf023c9ee399214426de080d4b29917ae84d6d644d728687c92cdb049bf010000006a47304402207eb3f1156cf8eef16f90b23d426a404b894ba58fee6fc38a133e958155a85985022011b09465b3ed5da735a5aaf16273f39e1a6da72b130acbef5007001bda5c7ca20121036e03c84faf644abdead821ebcf14201bd05b971d54847719a9778990ff4cccd3ffffffff02e4321800000000001976a9148da44e58c735bb9b171945bc7021004917b21f2f88ac9ab907000000000017a91400a1a1ba351a6d2ecaa3f55feb6e22b908fc63278700000000", "vin": [{"sequence": 4294967295, "scriptSig": {"hex": "47304402207eb3f1156cf8eef16f90b23d426a404b894ba58fee6fc38a133e958155a85985022011b09465b3ed5da735a5aaf16273f39e1a6da72b130acbef5007001bda5c7ca20121036e03c84faf644abdead821ebcf14201bd05b971d54847719a9778990ff4cccd3", "asm": "304402207eb3f1156cf8eef16f90b23d426a404b894ba58fee6fc38a133e958155a85985022011b09465b3ed5da735a5aaf16273f39e1a6da72b130acbef5007001bda5c7ca2[ALL] 036e03c84faf644abdead821ebcf14201bd05b971d54847719a9778990ff4cccd3"}, "vout": 1, "txid": "bf49b0cd927c6828d744d6d684ae1799b2d480e06d42149239eec923f0aa847a"}], "txid": "2371f35cc6b28666ac745b4b93708f0a254d86ba6b4416981892623467260b7c", "blocktime": 1537876114, "version": 1, "confirmations": 11459, "time": 1537876114, "locktime": 0, "vsize": 223, "size": 223}