{"hash": "1da2dc65725fc46dd5312eaefd7beb768c4bcc2a3f677d7c0b8c2955a7e2e6a3", "blockhash": "0000000000000000000e13cef7c366c0283d82e591d1acd082e914b08063cdf1", "vout": [{"scriptPubKey": {"reqSigs": 1, "hex": "76a91437d29ec9ff3b47ce249a2df17546045867a5b7f288ac", "addresses": ["166AUhooXVA8bKtwxRTDgaiW9JZZNTCovV"], "asm": "OP_DUP OP_HASH160 37d29ec9ff3b47ce249a2df17546045867a5b7f2 OP_EQUALVERIFY OP_CHECKSIG", "type": "pubkeyhash"}, "value": 0.00172099, "n": 0}, {"scriptPubKey": {"reqSigs": 1, "hex": "00146b60b12441e6fce4378a8107f7be253ff29adbe1", "addresses": ["bc1qddstzfzpum7wgdu2syrl00398lef4klpryqcrz"], "asm": "0 6b60b12441e6fce4378a8107f7be253ff29adbe1", "type": "witness_v0_keyhash"}, "value": 0.00013475, "n": 1}], "hex": "01000000000101e4f30170cb9c11694e8aab2714e3acb18ca130d5aeb7c346d9ed1c7144bdb50d0100000000ffffffff0243a00200000000001976a91437d29ec9ff3b47ce249a2df17546045867a5b7f288aca3340000000000001600146b60b12441e6fce4378a8107f7be253ff29adbe10247304402206fe4a430bf22d6077f3a638ab8eb4e3a4a34826fc572bd0dfb1883e12156e5350220740d358931df27c57bb9361a5e9619e6f72f149a5ed298579b71e17138ca72ed0121031082db1915ebc6ebc71d2e900f60ba9d23542e13e3aad5cfcc4be4bfe903474700000000", "vin": [{"txinwitness": ["304402206fe4a430bf22d6077f3a638ab8eb4e3a4a34826fc572bd0dfb1883e12156e5350220740d358931df27c57bb9361a5e9619e6f72f149a5ed298579b71e17138ca72ed01", "031082db1915ebc6ebc71d2e900f60ba9d23542e13e3aad5cfcc4be4bfe9034747"], "sequence": 4294967295, "scriptSig": {"hex": "", "asm": ""}, "vout": 1, "txid": "0db5bd44711cedd946c3b7aed530a18cb1ace31427ab8a4e69119ccb7001f3e4"}], "txid": "23747eff814e4815fff0f50b1567d30e8c37004e52bf8c9a7ca5a6397728545c", "blocktime": 1537871767, "version": 1, "confirmations": 11495, "time": 1537871767, "locktime": 0, "vsize": 144, "size": 225}