{"hash": "23750b30b5cc22f2420f15517983e049c0a4fd8f9884c8b44946c9f65bf5da69", "blockhash": "00000000000000000004ffacab907a6b429b9a5745fa0b75af4234bf69dd7176", "vout": [{"scriptPubKey": {"reqSigs": 1, "hex": "76a914ca78abdc472c38b44ffc0ef839b94e13a036b2de88ac", "addresses": ["1KTa49ASLKtnUvK7GeTdWQqb6HkReDz3rV"], "asm": "OP_DUP OP_HASH160 ca78abdc472c38b44ffc0ef839b94e13a036b2de OP_EQUALVERIFY OP_CHECKSIG", "type": "pubkeyhash"}, "value": 0.50022962, "n": 0}, {"scriptPubKey": {"reqSigs": 1, "hex": "a9143d2bb4ef8ccbc7dfac9584685bf26fe125374c3c87", "addresses": ["37GTW3c7xKUfp87DpTkUGWsT7jGApBAR3X"], "asm": "OP_HASH160 3d2bb4ef8ccbc7dfac9584685bf26fe125374c3c OP_EQUAL", "type": "scripthash"}, "value": 0.003612, "n": 1}], "hex": "0100000001bec447dd90aeeff17623761837772f216f1bae8aef5f407425d650306f0539bf000000006a47304402203b4eef675019d2a033135ac2713074cf7542f84c50fe3f37ccd4c6fdfd016fe102206ab7312a82da8394d2da16dea94708baa9573c7ed205f3936032da4f5b09caa70121033a81ded2738f0aec87f8a66f88edbcd2606ba21a9c9c50d5529bb168a68d3d97ffffffff02324afb02000000001976a914ca78abdc472c38b44ffc0ef839b94e13a036b2de88acf08205000000000017a9143d2bb4ef8ccbc7dfac9584685bf26fe125374c3c8700000000", "vin": [{"sequence": 4294967295, "scriptSig": {"hex": "47304402203b4eef675019d2a033135ac2713074cf7542f84c50fe3f37ccd4c6fdfd016fe102206ab7312a82da8394d2da16dea94708baa9573c7ed205f3936032da4f5b09caa70121033a81ded2738f0aec87f8a66f88edbcd2606ba21a9c9c50d5529bb168a68d3d97", "asm": "304402203b4eef675019d2a033135ac2713074cf7542f84c50fe3f37ccd4c6fdfd016fe102206ab7312a82da8394d2da16dea94708baa9573c7ed205f3936032da4f5b09caa7[ALL] 033a81ded2738f0aec87f8a66f88edbcd2606ba21a9c9c50d5529bb168a68d3d97"}, "vout": 0, "txid": "bf39056f3050d62574405fef8aae1b6f212f773718762376f1efae90dd47c4be"}], "txid": "23750b30b5cc22f2420f15517983e049c0a4fd8f9884c8b44946c9f65bf5da69", "blocktime": 1537875543, "version": 1, "confirmations": 11464, "time": 1537875543, "locktime": 0, "vsize": 223, "size": 223}