{"hash": "23773e403c7f5f7c0d21ee2216985ea1cc289a7384cfa29867e592040e8ec526", "blockhash": "0000000000000000000baef3f32e3676a92c3b2e5da21b426e4f302fc371ce76", "vout": [{"scriptPubKey": {"type": "nulldata", "hex": "6a4c500000782b0001f8de358aaac6e591fc828faf27b7256b4774d339f6019d6ddc0f1b8ff117d5b2fd70ce66a4e00d796535c6e327c95baa1e850614486152c16ee6bc9a9526289ac0f6612cd74e33776ee4", "asm": "OP_RETURN 0000782b0001f8de358aaac6e591fc828faf27b7256b4774d339f6019d6ddc0f1b8ff117d5b2fd70ce66a4e00d796535c6e327c95baa1e850614486152c16ee6bc9a9526289ac0f6612cd74e33776ee4"}, "value": 0.0, "n": 0}, {"scriptPubKey": {"reqSigs": 1, "hex": "76a9144c4e0e30f665da0ecae1e7145e04d98ac9949c3d88ac", "addresses": ["17xTry1ubrCrQbYMJ2R1JgwLHRtnQrgZF5"], "asm": "OP_DUP OP_HASH160 4c4e0e30f665da0ecae1e7145e04d98ac9949c3d OP_EQUALVERIFY OP_CHECKSIG", "type": "pubkeyhash"}, "value": 0.0219506, "n": 1}], "hex": "0100000001e9ae2a0921dbe190d5811e10b3bd58c7872bf88865956210a9c0d4f154c53ce7010000006a4730440220145b59061478f2df8bbc75ee827db09b405a891c4c328134aec9135efa1958c50220728545d7b13f3d25bb401b6d3374f58203fc55d2b49e602d460329df4d6b93570121030e36ef7b4f026d7d85620b6e63b5db97c8dac9d6522f911a70ab0752a338aef6ffffffff020000000000000000536a4c500000782b0001f8de358aaac6e591fc828faf27b7256b4774d339f6019d6ddc0f1b8ff117d5b2fd70ce66a4e00d796535c6e327c95baa1e850614486152c16ee6bc9a9526289ac0f6612cd74e33776ee4747e2100000000001976a9144c4e0e30f665da0ecae1e7145e04d98ac9949c3d88ac00000000", "vin": [{"sequence": 4294967295, "scriptSig": {"hex": "4730440220145b59061478f2df8bbc75ee827db09b405a891c4c328134aec9135efa1958c50220728545d7b13f3d25bb401b6d3374f58203fc55d2b49e602d460329df4d6b93570121030e36ef7b4f026d7d85620b6e63b5db97c8dac9d6522f911a70ab0752a338aef6", "asm": "30440220145b59061478f2df8bbc75ee827db09b405a891c4c328134aec9135efa1958c50220728545d7b13f3d25bb401b6d3374f58203fc55d2b49e602d460329df4d6b9357[ALL] 030e36ef7b4f026d7d85620b6e63b5db97c8dac9d6522f911a70ab0752a338aef6"}, "vout": 1, "txid": "e73cc554f1d4c0a91062956588f82b87c758bdb3101e81d590e1db21092aaee9"}], "txid": "23773e403c7f5f7c0d21ee2216985ea1cc289a7384cfa29867e592040e8ec526", "blocktime": 1537876114, "version": 1, "confirmations": 11460, "time": 1537876114, "locktime": 0, "vsize": 283, "size": 283}