{"hash": "32b0c0045d76feb8d7648f4bbcc77657fb74f4902fc736fed99d28808e167c3f", "blockhash": "0000000000000000000dcc0f55137456b1a82d3642486a52398922ac4d620174", "vout": [{"scriptPubKey": {"reqSigs": 1, "hex": "0014435efcb64fd1df67d787f43f07040963634e0b20", "addresses": ["bc1qgd00edj0680k04u87slswpqfvd35uzeqhjua28"], "asm": "0 435efcb64fd1df67d787f43f07040963634e0b20", "type": "witness_v0_keyhash"}, "value": 1.542e-05, "n": 0}, {"scriptPubKey": {"reqSigs": 1, "hex": "a914b65592f2f1306661bcf8f70dc2c6ebca375edea187", "addresses": ["3JK7RF75MbEcHt656gXLbv1ZXfcd9kqYk1"], "asm": "OP_HASH160 b65592f2f1306661bcf8f70dc2c6ebca375edea1 OP_EQUAL", "type": "scripthash"}, "value": 0.0008047, "n": 1}], "hex": "01000000000101164b23cc81136d62248c748d47711aefa69faf0e3c8df980e8001236908fe2040000000000ffffffff020606000000000000160014435efcb64fd1df67d787f43f07040963634e0b20563a01000000000017a914b65592f2f1306661bcf8f70dc2c6ebca375edea1870247304402205aec8943ec48157471218732fdf8f9fd4695c11016f4afa0cd827aba7bd01e2302206a5411d5361fd691c026fe57e063c99a588796e27edd7ccea47a1cf49b92cc1c012102220c496ac631ae81fb771dfbef8395fc428d039af48ce49d7fa7c4b8bde84fe700000000", "vin": [{"txinwitness": ["304402205aec8943ec48157471218732fdf8f9fd4695c11016f4afa0cd827aba7bd01e2302206a5411d5361fd691c026fe57e063c99a588796e27edd7ccea47a1cf49b92cc1c01", "02220c496ac631ae81fb771dfbef8395fc428d039af48ce49d7fa7c4b8bde84fe7"], "sequence": 4294967295, "scriptSig": {"hex": "", "asm": ""}, "vout": 0, "txid": "04e28f90361200e880f98d3c0eaf9fa6ef1a71478d748c24626d1381cc234b16"}], "txid": "2378fc410d563bb783b2c7dfae640362566b69727b97b917b03fad695a1cfbbd", "blocktime": 1537870268, "version": 1, "confirmations": 11518, "time": 1537870268, "locktime": 0, "vsize": 142, "size": 223}