{"hash": "237e98141f53210f683377c302bb06e96b7e38e1ed1568139c7f5763d82721e9", "blockhash": "0000000000000000001e0dab787dd257d1dbfcb92a98c2207d5e1078be1f4165", "vout": [{"scriptPubKey": {"reqSigs": 1, "hex": "76a91494f1c6260016076a96be0f2a8cd4db13de5edd2488ac", "addresses": ["1EaYe9MrFUXgMxmHEYPnYtEyvvXDCJPiEJ"], "asm": "OP_DUP OP_HASH160 94f1c6260016076a96be0f2a8cd4db13de5edd24 OP_EQUALVERIFY OP_CHECKSIG", "type": "pubkeyhash"}, "value": 0.01014532, "n": 0}, {"scriptPubKey": {"reqSigs": 1, "hex": "76a91413f96002d033ad1a891dd6de3e1865216f936be588ac", "addresses": ["12pcaXYDc9xKtRhzD5rEkJGqSmMiK3ufPw"], "asm": "OP_DUP OP_HASH160 13f96002d033ad1a891dd6de3e1865216f936be5 OP_EQUALVERIFY OP_CHECKSIG", "type": "pubkeyhash"}, "value": 0.10693041, "n": 1}], "hex": "01000000017a03279a9f0e055d877c50817258c5e8e3cc026ffca29b9c97e6c066cb032049010000006a47304402201a129d42b0275d12fcb3c2f42b6a7242eeddd88f26ff72f4f965adee5240826102201b1f27242834b47984e8ceb04c19207b5bb484c868d291ae7c5efde58b35e3440121038f107745917a7c5322f635a01a7f9153583398f0780e3f026c1fb543fc1591f6ffffffff02047b0f00000000001976a91494f1c6260016076a96be0f2a8cd4db13de5edd2488acb129a300000000001976a91413f96002d033ad1a891dd6de3e1865216f936be588ac00000000", "vin": [{"sequence": 4294967295, "scriptSig": {"hex": "47304402201a129d42b0275d12fcb3c2f42b6a7242eeddd88f26ff72f4f965adee5240826102201b1f27242834b47984e8ceb04c19207b5bb484c868d291ae7c5efde58b35e3440121038f107745917a7c5322f635a01a7f9153583398f0780e3f026c1fb543fc1591f6", "asm": "304402201a129d42b0275d12fcb3c2f42b6a7242eeddd88f26ff72f4f965adee5240826102201b1f27242834b47984e8ceb04c19207b5bb484c868d291ae7c5efde58b35e344[ALL] 038f107745917a7c5322f635a01a7f9153583398f0780e3f026c1fb543fc1591f6"}, "vout": 1, "txid": "492003cb66c0e6979c9ba2fc6f02cce3e8c5587281507c875d050e9f9a27037a"}], "txid": "237e98141f53210f683377c302bb06e96b7e38e1ed1568139c7f5763d82721e9", "blocktime": 1537872475, "version": 1, "confirmations": 11486, "time": 1537872475, "locktime": 0, "vsize": 225, "size": 225}