{"hash": "238719c41aeea4f53c33b3d8b8350c8288addb049400b41eb244ef3a4fec8e2a", "blockhash": "0000000000000000000baef3f32e3676a92c3b2e5da21b426e4f302fc371ce76", "vout": [{"scriptPubKey": {"reqSigs": 1, "hex": "76a914d466d063ba720705b5a81b978bc4210214ba044588ac", "addresses": ["1LN5RK4wQVdtHq8FERkgoFjN5xcmYZhPS9"], "asm": "OP_DUP OP_HASH160 d466d063ba720705b5a81b978bc4210214ba0445 OP_EQUALVERIFY OP_CHECKSIG", "type": "pubkeyhash"}, "value": 0.0049, "n": 0}, {"scriptPubKey": {"reqSigs": 1, "hex": "76a9143175a7732fee07e357645dd1845e56190a30643788ac", "addresses": ["15WX49hVHDNBnPbmZYmrbgggnruWa79tnT"], "asm": "OP_DUP OP_HASH160 3175a7732fee07e357645dd1845e56190a306437 OP_EQUALVERIFY OP_CHECKSIG", "type": "pubkeyhash"}, "value": 0.007384, "n": 1}], "hex": "01000000012f571deaba9f7615f5a00fc4f0dc6cbc5f93c984a4741ad73c914c55b844671f010000006a473044022029fdb143ba6b76768181a3e875bd72af00a0c63f28b285e5cbc770cf741dfc5a02200fa07220cfa0c7859527953e7371dcadaba34104382246b29d575e3c6696c59f0121028b04325486bc59e024168a4ce3c501fb88b335e5d666312cf9d1d51cfe7d5c1dfeffffff02107a0700000000001976a914d466d063ba720705b5a81b978bc4210214ba044588ac60440b00000000001976a9143175a7732fee07e357645dd1845e56190a30643788ac16490800", "vin": [{"sequence": 4294967294, "scriptSig": {"hex": "473044022029fdb143ba6b76768181a3e875bd72af00a0c63f28b285e5cbc770cf741dfc5a02200fa07220cfa0c7859527953e7371dcadaba34104382246b29d575e3c6696c59f0121028b04325486bc59e024168a4ce3c501fb88b335e5d666312cf9d1d51cfe7d5c1d", "asm": "3044022029fdb143ba6b76768181a3e875bd72af00a0c63f28b285e5cbc770cf741dfc5a02200fa07220cfa0c7859527953e7371dcadaba34104382246b29d575e3c6696c59f[ALL] 028b04325486bc59e024168a4ce3c501fb88b335e5d666312cf9d1d51cfe7d5c1d"}, "vout": 1, "txid": "1f6744b8554c913cd71a74a484c9935fbc6cdcf0c40fa0f515769fbaea1d572f"}], "txid": "238719c41aeea4f53c33b3d8b8350c8288addb049400b41eb244ef3a4fec8e2a", "blocktime": 1537876114, "version": 1, "confirmations": 11460, "time": 1537876114, "locktime": 542998, "vsize": 225, "size": 225}