{"hash": "238a00a6517c879c2e9d70e1b41509e7e04445d44ce8da455929238eeee50e96", "blockhash": "000000000000000000022b45ed06c6f4ccd3cf7fb5ba4856ebd2e58215665228", "vout": [{"scriptPubKey": {"reqSigs": 1, "hex": "76a914f22819103170be601597e786e666e4139a7feb8688ac", "addresses": ["1P5QZUVy6sc5T9YGge4HYgemsjSnKWHhXA"], "asm": "OP_DUP OP_HASH160 f22819103170be601597e786e666e4139a7feb86 OP_EQUALVERIFY OP_CHECKSIG", "type": "pubkeyhash"}, "value": 0.0595787, "n": 0}, {"scriptPubKey": {"reqSigs": 1, "hex": "76a9148e1e5414bb9bf586a1b8d10903c900c553e1622988ac", "addresses": ["1DxTHVpoPhUvJT85NZgt35TPqphLzV6d1D"], "asm": "OP_DUP OP_HASH160 8e1e5414bb9bf586a1b8d10903c900c553e16229 OP_EQUALVERIFY OP_CHECKSIG", "type": "pubkeyhash"}, "value": 1.0, "n": 1}], "hex": "010000000104a3895069ea846218e991452f8853d3adae5cfaf92c9ac4ece98d071f61ae52000000006a4730440220651acc7c765d0b03c7e65e3e0769ed4f1122a209cb9d9020cb1766a1fffe4f940220219c1989dc9c6e49fb19df6a934672ab7b18dc6b34f304041a61a79dedc25fe30121022c6efea1fc20d27a1b887d5f8e0852509795aca9171f79c24b0a009b26a7b1c8fdffffff02eee85a00000000001976a914f22819103170be601597e786e666e4139a7feb8688ac00e1f505000000001976a9148e1e5414bb9bf586a1b8d10903c900c553e1622988ac0b490800", "vin": [{"sequence": 4294967293, "scriptSig": {"hex": "4730440220651acc7c765d0b03c7e65e3e0769ed4f1122a209cb9d9020cb1766a1fffe4f940220219c1989dc9c6e49fb19df6a934672ab7b18dc6b34f304041a61a79dedc25fe30121022c6efea1fc20d27a1b887d5f8e0852509795aca9171f79c24b0a009b26a7b1c8", "asm": "30440220651acc7c765d0b03c7e65e3e0769ed4f1122a209cb9d9020cb1766a1fffe4f940220219c1989dc9c6e49fb19df6a934672ab7b18dc6b34f304041a61a79dedc25fe3[ALL] 022c6efea1fc20d27a1b887d5f8e0852509795aca9171f79c24b0a009b26a7b1c8"}, "vout": 0, "txid": "52ae611f078de9ecc49a2cf9fa5caeadd353882f4591e9186284ea695089a304"}], "txid": "238a00a6517c879c2e9d70e1b41509e7e04445d44ce8da455929238eeee50e96", "blocktime": 1537869901, "version": 1, "confirmations": 11522, "time": 1537869901, "locktime": 542987, "vsize": 225, "size": 225}