{"hash": "d28634fe01e4bdcdafe09d53a3141e33b05752bff821ce41df90558e4e6c0561", "blockhash": "0000000000000000001e0dab787dd257d1dbfcb92a98c2207d5e1078be1f4165", "vout": [{"scriptPubKey": {"reqSigs": 1, "hex": "76a914126a8bd41dbe634bf7cd1342045f96c512ae0fea88ac", "addresses": ["12gNoQxbwbveVm71M3QJViCVnkzikr8FWX"], "asm": "OP_DUP OP_HASH160 126a8bd41dbe634bf7cd1342045f96c512ae0fea OP_EQUALVERIFY OP_CHECKSIG", "type": "pubkeyhash"}, "value": 0.0004952, "n": 0}, {"scriptPubKey": {"reqSigs": 1, "hex": "a914412a5a9d44d5834123b7756088f409b7b3a36da687", "addresses": ["37daapNiiDgPEaARWMQCfhGXJo4yF1nTaW"], "asm": "OP_HASH160 412a5a9d44d5834123b7756088f409b7b3a36da6 OP_EQUAL", "type": "scripthash"}, "value": 0.02001705, "n": 1}], "hex": "01000000000101c58e865b234fe899ffba09716814f395515054816c2c9f526706839d0391bdba010000002322002083f5850b1b9ae687f7cf8d5c77fefcbd87cde420155cd43c20d50f5f293b7ed6ffffffff0270c10000000000001976a914126a8bd41dbe634bf7cd1342045f96c512ae0fea88ac298b1e000000000017a914412a5a9d44d5834123b7756088f409b7b3a36da6870400483045022100bfdfb731254b8558a7e4fe44af395c8e561e57e931c4a49b6ce0c5ed9e6274f302207972c72d0a694fd826c684e55d9e9a45fb4bb6380af6f9e7eeef3d892be5a728014730440220268799ac88f8718b900e8f4949ffe1302bd3eaca6f6c31313d5cbb7da7c5f11c0220569242023461a15947fa27d6fef98cbaada4b68920f54e5a2b2227df6c81876001475221020511070566b8412d1941b8dc0ded10caa6a6915b609dfa65bb8111255071d3a22103871fc2ca08e6950b38867e8e6a0e94ee625223d3aa0df5c65f414c6d784467e252ae00000000", "vin": [{"txinwitness": ["", "3045022100bfdfb731254b8558a7e4fe44af395c8e561e57e931c4a49b6ce0c5ed9e6274f302207972c72d0a694fd826c684e55d9e9a45fb4bb6380af6f9e7eeef3d892be5a72801", "30440220268799ac88f8718b900e8f4949ffe1302bd3eaca6f6c31313d5cbb7da7c5f11c0220569242023461a15947fa27d6fef98cbaada4b68920f54e5a2b2227df6c81876001", "5221020511070566b8412d1941b8dc0ded10caa6a6915b609dfa65bb8111255071d3a22103871fc2ca08e6950b38867e8e6a0e94ee625223d3aa0df5c65f414c6d784467e252ae"], "sequence": 4294967295, "scriptSig": {"hex": "22002083f5850b1b9ae687f7cf8d5c77fefcbd87cde420155cd43c20d50f5f293b7ed6", "asm": "002083f5850b1b9ae687f7cf8d5c77fefcbd87cde420155cd43c20d50f5f293b7ed6"}, "vout": 1, "txid": "babd91039d830667529f2c6c8154505195f314687109baff99e84f235b868ec5"}], "txid": "238fd92bd42c1b168aec7fb7ff98b3f63b7ba99349f2d41b293ae8daf5ebd54e", "blocktime": 1537872475, "version": 1, "confirmations": 11487, "time": 1537872475, "locktime": 0, "vsize": 208, "size": 373}