{"hash": "23945dba0523aec1836aa6c115d375101d881189d28e34dfb58fc85396aa0502", "blockhash": "0000000000000000001f0ddff1eddb255c1121bcd4da4f1bc9a0da00cae72433", "vout": [{"scriptPubKey": {"type": "nulldata", "hex": "6a146f6d6e69000000000000001f000000f18fd1a700", "asm": "OP_RETURN 6f6d6e69000000000000001f000000f18fd1a700"}, "value": 0.0, "n": 0}, {"scriptPubKey": {"reqSigs": 1, "hex": "76a914cc028ecf32d71e240df9202c5644bc24dccc14b688ac", "addresses": ["1KbhureApdrHK2PFRGQeh6rJjm9NxWWfKs"], "asm": "OP_DUP OP_HASH160 cc028ecf32d71e240df9202c5644bc24dccc14b6 OP_EQUALVERIFY OP_CHECKSIG", "type": "pubkeyhash"}, "value": 5.46e-06, "n": 1}, {"scriptPubKey": {"reqSigs": 1, "hex": "76a914628a073fe8ce7a239e56a9158ebd5d291a8bc0d988ac", "addresses": ["19z2aBA5FYQm9bK1Q5UW5u7bJWHbZZ4Z5E"], "asm": "OP_DUP OP_HASH160 628a073fe8ce7a239e56a9158ebd5d291a8bc0d9 OP_EQUALVERIFY OP_CHECKSIG", "type": "pubkeyhash"}, "value": 0.03998793, "n": 2}], "hex": "01000000011c5c19eb0321a14e0952f2737044f3bb77db49c4fc094ae33595cfe2f395908b020000006a473044022036196d329b3951d556b9d19beddf3236a004df9fe34b3f1bd1f402a63c0ffe1e02201875f8013bf581082672d3d484f145e0b7666e7c746f35f0a4b9fef604ebddb4012103e4addb7809d20e3cf85c913ea93969a52c57a5fdfcb1fedcb25002cf9b21d816feffffff030000000000000000166a146f6d6e69000000000000001f000000f18fd1a70022020000000000001976a914cc028ecf32d71e240df9202c5644bc24dccc14b688ac49043d00000000001976a914628a073fe8ce7a239e56a9158ebd5d291a8bc0d988ac11490800", "vin": [{"sequence": 4294967294, "scriptSig": {"hex": "473044022036196d329b3951d556b9d19beddf3236a004df9fe34b3f1bd1f402a63c0ffe1e02201875f8013bf581082672d3d484f145e0b7666e7c746f35f0a4b9fef604ebddb4012103e4addb7809d20e3cf85c913ea93969a52c57a5fdfcb1fedcb25002cf9b21d816", "asm": "3044022036196d329b3951d556b9d19beddf3236a004df9fe34b3f1bd1f402a63c0ffe1e02201875f8013bf581082672d3d484f145e0b7666e7c746f35f0a4b9fef604ebddb4[ALL] 03e4addb7809d20e3cf85c913ea93969a52c57a5fdfcb1fedcb25002cf9b21d816"}, "vout": 2, "txid": "8b9095f3e2cf9535e34a09fcc449db77bbf3447073f252094ea12103eb195c1c"}], "txid": "23945dba0523aec1836aa6c115d375101d881189d28e34dfb58fc85396aa0502", "blocktime": 1537872018, "version": 1, "confirmations": 11489, "time": 1537872018, "locktime": 542993, "vsize": 256, "size": 256}