{"hash": "2397d0cb97b8f17e286ecdb3c5e003e90da6e18498b9938513628f4b19366ed2", "blockhash": "0000000000000000001e0dab787dd257d1dbfcb92a98c2207d5e1078be1f4165", "vout": [{"scriptPubKey": {"reqSigs": 1, "hex": "76a9148c1c15d74d0ff5cb4902b2ef4bd9048c9d976bf088ac", "addresses": ["1DmqFFynJfrUoeYVK1ARBEFrKbSahQmy5m"], "asm": "OP_DUP OP_HASH160 8c1c15d74d0ff5cb4902b2ef4bd9048c9d976bf0 OP_EQUALVERIFY OP_CHECKSIG", "type": "pubkeyhash"}, "value": 0.0311, "n": 0}], "hex": "020000000419c103fd96cbd406b7ccac6b5b4be01982d66f5890c5ba2da359081bf405434fff0700006b483045022100b866ee8e2d4c20ef32ac1e518cd45eef961c34103df4eda12751f7f3dc2983840220691e1f2859d8bd42f01f16f926c7b9388723efc4e2c8f35a41ca9209f379da210121038e88d02e506a4eeb5b22c4743dcceccff230a27e8859d80999179238a50ef0bafeffffffd5c49b06e9e19a3b5b994949ea32e5d420d628d8a8864ff9ac6f1f6782499087090000006a4730440220317bf57d81d8578e25ca71d070f4af0959cca43d6da891bdc36c250d0badf5a702205f013fc649520dd992d94edb47cebf33fa560981351a6232fb300021e67fc4cf012102fe7b6dd1e6214992d0b0b055a64911d06455b23c3e6ea3caf55170255f6f8c02fefffffff2e0af48a730f9d70da77441fe3b2c809bbed9e29b44a47d2f17e868d27d3401010000006a4730440220637ac96d71437c2a76362f9ea432d3497f4a4a317ba1274ae66a71d8fb0bb4df0220782e60b26108f1b74a9e4f53c8d91093f50a621e5c7d952b2a0006ddb964d752012103a71e5186f6e938ab235fadbf36d74440277bb241aa51c3a60bc17e6594314467fefffffff37a603b6d78c32da77e0fa1cf2b99ef0167a49d38cbe5019a9c38c164f7df422a0000006a473044022079e70e7dd4c34c49a502076cd0e53be7391912b2b71ec36b2d0497384e97b71202201a4cbb4b07a76c4e22d31bfcd2b7e41c22ea14086b363c2ec57fda6e23694068012103deee68e262eeea044c8b62b530c481f9077ff1e80318678cc05552e79e1c4341feffffff0170742f00000000001976a9148c1c15d74d0ff5cb4902b2ef4bd9048c9d976bf088ac12490800", "vin": [{"sequence": 4294967294, "scriptSig": {"hex": "483045022100b866ee8e2d4c20ef32ac1e518cd45eef961c34103df4eda12751f7f3dc2983840220691e1f2859d8bd42f01f16f926c7b9388723efc4e2c8f35a41ca9209f379da210121038e88d02e506a4eeb5b22c4743dcceccff230a27e8859d80999179238a50ef0ba", "asm": "3045022100b866ee8e2d4c20ef32ac1e518cd45eef961c34103df4eda12751f7f3dc2983840220691e1f2859d8bd42f01f16f926c7b9388723efc4e2c8f35a41ca9209f379da21[ALL] 038e88d02e506a4eeb5b22c4743dcceccff230a27e8859d80999179238a50ef0ba"}, "vout": 2047, "txid": "4f4305f41b0859a32dbac590586fd68219e04b5b6bacccb706d4cb96fd03c119"}, {"sequence": 4294967294, "scriptSig": {"hex": "4730440220317bf57d81d8578e25ca71d070f4af0959cca43d6da891bdc36c250d0badf5a702205f013fc649520dd992d94edb47cebf33fa560981351a6232fb300021e67fc4cf012102fe7b6dd1e6214992d0b0b055a64911d06455b23c3e6ea3caf55170255f6f8c02", "asm": "30440220317bf57d81d8578e25ca71d070f4af0959cca43d6da891bdc36c250d0badf5a702205f013fc649520dd992d94edb47cebf33fa560981351a6232fb300021e67fc4cf[ALL] 02fe7b6dd1e6214992d0b0b055a64911d06455b23c3e6ea3caf55170255f6f8c02"}, "vout": 9, "txid": "87904982671f6facf94f86a8d828d620d4e532ea4949995b3b9ae1e9069bc4d5"}, {"sequence": 4294967294, "scriptSig": {"hex": "4730440220637ac96d71437c2a76362f9ea432d3497f4a4a317ba1274ae66a71d8fb0bb4df0220782e60b26108f1b74a9e4f53c8d91093f50a621e5c7d952b2a0006ddb964d752012103a71e5186f6e938ab235fadbf36d74440277bb241aa51c3a60bc17e6594314467", "asm": "30440220637ac96d71437c2a76362f9ea432d3497f4a4a317ba1274ae66a71d8fb0bb4df0220782e60b26108f1b74a9e4f53c8d91093f50a621e5c7d952b2a0006ddb964d752[ALL] 03a71e5186f6e938ab235fadbf36d74440277bb241aa51c3a60bc17e6594314467"}, "vout": 1, "txid": "01347dd268e8172f7da4449be2d9be9b802c3bfe4174a70dd7f930a748afe0f2"}, {"sequence": 4294967294, "scriptSig": {"hex": "473044022079e70e7dd4c34c49a502076cd0e53be7391912b2b71ec36b2d0497384e97b71202201a4cbb4b07a76c4e22d31bfcd2b7e41c22ea14086b363c2ec57fda6e23694068012103deee68e262eeea044c8b62b530c481f9077ff1e80318678cc05552e79e1c4341", "asm": "3044022079e70e7dd4c34c49a502076cd0e53be7391912b2b71ec36b2d0497384e97b71202201a4cbb4b07a76c4e22d31bfcd2b7e41c22ea14086b363c2ec57fda6e23694068[ALL] 03deee68e262eeea044c8b62b530c481f9077ff1e80318678cc05552e79e1c4341"}, "vout": 42, "txid": "42dff764c1389c9a01e5cb389da46701ef992bcfa10f7ea72dc3786d3b607af3"}], "txid": "2397d0cb97b8f17e286ecdb3c5e003e90da6e18498b9938513628f4b19366ed2", "blocktime": 1537872475, "version": 2, "confirmations": 11486, "time": 1537872475, "locktime": 542994, "vsize": 633, "size": 633}