{"hash": "2397cea4e846a721b5da51b2b3d9d2f0fa7c7b73513f9be84a3a09e01f8a8311", "blockhash": "0000000000000000000dcc0f55137456b1a82d3642486a52398922ac4d620174", "vout": [{"scriptPubKey": {"reqSigs": 1, "hex": "76a9148e4ac7c89c1ed7a0cd61eab89f64e9e25929bdfa88ac", "addresses": ["1DyNY5GNafNdWdre4hKAJE1Bid96tthYPt"], "asm": "OP_DUP OP_HASH160 8e4ac7c89c1ed7a0cd61eab89f64e9e25929bdfa OP_EQUALVERIFY OP_CHECKSIG", "type": "pubkeyhash"}, "value": 0.00067912, "n": 0}, {"scriptPubKey": {"reqSigs": 1, "hex": "76a91446a34523f766835a8db25d88584bf719c04255d988ac", "addresses": ["17SVtdfciNLKgDmQReLnWeHvNU24qS64uX"], "asm": "OP_DUP OP_HASH160 46a34523f766835a8db25d88584bf719c04255d9 OP_EQUALVERIFY OP_CHECKSIG", "type": "pubkeyhash"}, "value": 0.00999558, "n": 1}], "hex": "020000000282e1304b2993d0ccdfb39bcd775fecaad0b2f647598e35659917d30cb07033ad000000006b48304502210081d936ce1c9d6b8ac42df044d60a4020cf65a57ebcac80288e204a8b63fe0c3c022059b15cbbac1c44c37038eacc027c340e311fb2126e418b16bb1bb547b18974f2012102bf8f954187037f89566a7f1c991daa85341e538bff5495f74c23a6b80aca3586feffffffc6dd06ebbbd02f9481ef218e63315af6508957a533b57e96e340d9aaa09c7089000000006a4730440220295bc65c0c8ffaa8b2decdffdf37b85d1c3f15bcd275a199842baf9dfba63eb102206a2358725831b38f9638790c34ec85e5f63564d29f1dfab50110deb6f1ef324c012103f1386ab47be4bc58e14edbca5b956db419d83ad383191c461c6cc6f4980d96eafeffffff0248090100000000001976a9148e4ac7c89c1ed7a0cd61eab89f64e9e25929bdfa88ac86400f00000000001976a91446a34523f766835a8db25d88584bf719c04255d988ac0b490800", "vin": [{"sequence": 4294967294, "scriptSig": {"hex": "48304502210081d936ce1c9d6b8ac42df044d60a4020cf65a57ebcac80288e204a8b63fe0c3c022059b15cbbac1c44c37038eacc027c340e311fb2126e418b16bb1bb547b18974f2012102bf8f954187037f89566a7f1c991daa85341e538bff5495f74c23a6b80aca3586", "asm": "304502210081d936ce1c9d6b8ac42df044d60a4020cf65a57ebcac80288e204a8b63fe0c3c022059b15cbbac1c44c37038eacc027c340e311fb2126e418b16bb1bb547b18974f2[ALL] 02bf8f954187037f89566a7f1c991daa85341e538bff5495f74c23a6b80aca3586"}, "vout": 0, "txid": "ad3370b00cd3179965358e5947f6b2d0aaec5f77cd9bb3dfccd093294b30e182"}, {"sequence": 4294967294, "scriptSig": {"hex": "4730440220295bc65c0c8ffaa8b2decdffdf37b85d1c3f15bcd275a199842baf9dfba63eb102206a2358725831b38f9638790c34ec85e5f63564d29f1dfab50110deb6f1ef324c012103f1386ab47be4bc58e14edbca5b956db419d83ad383191c461c6cc6f4980d96ea", "asm": "30440220295bc65c0c8ffaa8b2decdffdf37b85d1c3f15bcd275a199842baf9dfba63eb102206a2358725831b38f9638790c34ec85e5f63564d29f1dfab50110deb6f1ef324c[ALL] 03f1386ab47be4bc58e14edbca5b956db419d83ad383191c461c6cc6f4980d96ea"}, "vout": 0, "txid": "89709ca0aad940e3967eb533a5578950f65a31638e21ef81942fd0bbeb06ddc6"}], "txid": "2397cea4e846a721b5da51b2b3d9d2f0fa7c7b73513f9be84a3a09e01f8a8311", "blocktime": 1537870268, "version": 2, "confirmations": 11518, "time": 1537870268, "locktime": 542987, "vsize": 373, "size": 373}