{"hash": "23995eaf8780155750ffffcd63b1e7e6e380e2c518c513e8d24a0d5935b23600", "blockhash": "0000000000000000001f76057863aec43deb6fa401d9628bb513d65a8098bfab", "vout": [{"scriptPubKey": {"reqSigs": 1, "hex": "76a914ca587df41f8a5371d56a90581841d36b6ebd7e4888ac", "addresses": ["1KSuWHN6Hc36tJmYtk4RyAbkKDtNjACRX9"], "asm": "OP_DUP OP_HASH160 ca587df41f8a5371d56a90581841d36b6ebd7e48 OP_EQUALVERIFY OP_CHECKSIG", "type": "pubkeyhash"}, "value": 5.0, "n": 0}, {"scriptPubKey": {"reqSigs": 1, "hex": "a9147c1ff46e24196b594f092f055a58f6eb67b2183f87", "addresses": ["3D1Kzb9Um3uhc88cUVYZ5x557RDK3Brdav"], "asm": "OP_HASH160 7c1ff46e24196b594f092f055a58f6eb67b2183f OP_EQUAL", "type": "scripthash"}, "value": 0.00998661, "n": 1}], "hex": "020000000907e544b22907af20a848d09ac11de7f4fe402c502d89baf204c5dc16e6573d5c000000006b4830450221009199c9326cbc063027d7a542727b31695b8327515cf0011fb81617e5fff7476502204932c53e5878f9075c2bb8fd0fe53d05a02745d7da70485609df1ac844e67244012102aa61376428bc611d75465e6d5a0d0375c2dbd72d52e144f3ed33e8686fdca52efeffffff0a1b1c8b27fb739faa2770f17266275b728f4740dff759814a415973e9bc23e4000000006a4730440220591995f815f968332c57a1a323229108beacffd3fd6cf07865afd9c10997605c02203e0c32fef0796215ef8c9fbb77f921fcc1b286d4a569b240818ffe17e715ea1c012102eed5619ab1d5526a4cb0f151716944606c688829d96dbea4169235f90447173afeffffff4280b3244ee3188680278f52f222c3a72776a8f833b0d301566dec7deb770ee9060000006a47304402204991356e616e9d4021e16e1a06077c1231312107d99b48694d936f64254af6430220629263c5b851869c8d5056cb0d87e84e5ffb233cd72cc97d90fde6510206ce5f012103eb54eafab4efead24e5dc7c6d111e41bb6342cd1ea48b745331b921d71499f61feffffff53ed48d88d6c1022fc39721335d7b8ebd72e416c74f826b29ff33379b41e80082c0000006a473044022065212df9cd9d93227cba5d7cb01284dd1930b9f41c2f9a52998f7e460ee5017e022027083c6c9e211cf36451c2bedfb0e0acebafd38b03b906c51491f5fa363106f6012102114260139c45acf6bcb06e7c9bf778ac5ddaf06a3d65c577fb61f0ded42ad3d3feffffff63dd3517cdbe577290bb7dd3ad506e8bf2cd7cb7c51fdb0153c4c5079307f9ca000000006a47304402204ae0814df861d2387547649ca4632402687f6581903a6d4881dd874da80cf34f0220428271b1945a541e058bf4d561a59f9e9fa56b25523e54ce58345eb1eebe1fb3012103d8d00e21e358f8bc0f76bbe811b883a695c3353880c0919fa456afaa89f1a44ffeffffff6438e773d3a98cfe7965443c2af359c39cb0a8836a416637af38cf1e1d0f59c4200000006a47304402205399f878326fef966793c72606a1e8e633155e481d039e585344311abe94f68902207fdda878bad1675d1ead5b857bad314690e65690b55195a2dfefa07f4a7f940d012103af58143743c39197205bc2af01eb1f381fd2a6d23f6609fa34208adae7ef8f76feffffff6efd20ae30f44ced4a15cf74e47f1a85e12588d0a98653ea040e67694184d1ab010000006b483045022100b7ef5eefcf38531bb516eff85c886986da86c54e6b1471c4ce9d276df5899e1e022055a1503039c58dc59634dd7387365e06a7df3baf00015cb48f89b3bc750cbd7a012103e065285336d1140f2a7ed1fa1c19d00d3c67aa33cad437799c7f52e1495011a6feffffffe8b58ef28e550f7c092132cabed05e9580c7f07cbec41638922ebf3a4ee66a4d0d0000006b483045022100e9a9a718b4746219c8e3f77212008157cdf2298fcab638fcada89061bebc9d390220095db8f2f207a71570a1af8dd5c1dd7202c4e26aa3bc5ad6c4150ad19d9d9f3401210211303475071dcedfef105d4337d45a0a9a101f6968df12669b5e239f1055de43feffffffee2334214da82beeb3082e04ccc3e328ceeec2622aa2759a1c4d7b1017229347170000006a47304402204f77afb1a61326b088b2676b20673dc0742a693a059638664979d1f48ba590eb02207e64702c245f9d221ffec1ce525322ce749c04bc9b174c244772667060ca64350121021f3485363698d0d64083b47b15e45bdfb0a10ac58acb4e34173b4ecfbf2d3e87feffffff020065cd1d000000001976a914ca587df41f8a5371d56a90581841d36b6ebd7e4888ac053d0f000000000017a9147c1ff46e24196b594f092f055a58f6eb67b2183f8714490800", "vin": [{"sequence": 4294967294, "scriptSig": {"hex": "4830450221009199c9326cbc063027d7a542727b31695b8327515cf0011fb81617e5fff7476502204932c53e5878f9075c2bb8fd0fe53d05a02745d7da70485609df1ac844e67244012102aa61376428bc611d75465e6d5a0d0375c2dbd72d52e144f3ed33e8686fdca52e", "asm": "30450221009199c9326cbc063027d7a542727b31695b8327515cf0011fb81617e5fff7476502204932c53e5878f9075c2bb8fd0fe53d05a02745d7da70485609df1ac844e67244[ALL] 02aa61376428bc611d75465e6d5a0d0375c2dbd72d52e144f3ed33e8686fdca52e"}, "vout": 0, "txid": "5c3d57e616dcc504f2ba892d502c40fef4e71dc19ad048a820af0729b244e507"}, {"sequence": 4294967294, "scriptSig": {"hex": "4730440220591995f815f968332c57a1a323229108beacffd3fd6cf07865afd9c10997605c02203e0c32fef0796215ef8c9fbb77f921fcc1b286d4a569b240818ffe17e715ea1c012102eed5619ab1d5526a4cb0f151716944606c688829d96dbea4169235f90447173a", "asm": "30440220591995f815f968332c57a1a323229108beacffd3fd6cf07865afd9c10997605c02203e0c32fef0796215ef8c9fbb77f921fcc1b286d4a569b240818ffe17e715ea1c[ALL] 02eed5619ab1d5526a4cb0f151716944606c688829d96dbea4169235f90447173a"}, "vout": 0, "txid": "e423bce97359414a8159f7df40478f725b276672f17027aa9f73fb278b1c1b0a"}, {"sequence": 4294967294, "scriptSig": {"hex": "47304402204991356e616e9d4021e16e1a06077c1231312107d99b48694d936f64254af6430220629263c5b851869c8d5056cb0d87e84e5ffb233cd72cc97d90fde6510206ce5f012103eb54eafab4efead24e5dc7c6d111e41bb6342cd1ea48b745331b921d71499f61", "asm": "304402204991356e616e9d4021e16e1a06077c1231312107d99b48694d936f64254af6430220629263c5b851869c8d5056cb0d87e84e5ffb233cd72cc97d90fde6510206ce5f[ALL] 03eb54eafab4efead24e5dc7c6d111e41bb6342cd1ea48b745331b921d71499f61"}, "vout": 6, "txid": "e90e77eb7dec6d5601d3b033f8a87627a7c322f2528f27808618e34e24b38042"}, {"sequence": 4294967294, "scriptSig": {"hex": "473044022065212df9cd9d93227cba5d7cb01284dd1930b9f41c2f9a52998f7e460ee5017e022027083c6c9e211cf36451c2bedfb0e0acebafd38b03b906c51491f5fa363106f6012102114260139c45acf6bcb06e7c9bf778ac5ddaf06a3d65c577fb61f0ded42ad3d3", "asm": "3044022065212df9cd9d93227cba5d7cb01284dd1930b9f41c2f9a52998f7e460ee5017e022027083c6c9e211cf36451c2bedfb0e0acebafd38b03b906c51491f5fa363106f6[ALL] 02114260139c45acf6bcb06e7c9bf778ac5ddaf06a3d65c577fb61f0ded42ad3d3"}, "vout": 44, "txid": "08801eb47933f39fb226f8746c412ed7ebb8d735137239fc22106c8dd848ed53"}, {"sequence": 4294967294, "scriptSig": {"hex": "47304402204ae0814df861d2387547649ca4632402687f6581903a6d4881dd874da80cf34f0220428271b1945a541e058bf4d561a59f9e9fa56b25523e54ce58345eb1eebe1fb3012103d8d00e21e358f8bc0f76bbe811b883a695c3353880c0919fa456afaa89f1a44f", "asm": "304402204ae0814df861d2387547649ca4632402687f6581903a6d4881dd874da80cf34f0220428271b1945a541e058bf4d561a59f9e9fa56b25523e54ce58345eb1eebe1fb3[ALL] 03d8d00e21e358f8bc0f76bbe811b883a695c3353880c0919fa456afaa89f1a44f"}, "vout": 0, "txid": "caf9079307c5c45301db1fc5b77ccdf28b6e50add37dbb907257becd1735dd63"}, {"sequence": 4294967294, "scriptSig": {"hex": "47304402205399f878326fef966793c72606a1e8e633155e481d039e585344311abe94f68902207fdda878bad1675d1ead5b857bad314690e65690b55195a2dfefa07f4a7f940d012103af58143743c39197205bc2af01eb1f381fd2a6d23f6609fa34208adae7ef8f76", "asm": "304402205399f878326fef966793c72606a1e8e633155e481d039e585344311abe94f68902207fdda878bad1675d1ead5b857bad314690e65690b55195a2dfefa07f4a7f940d[ALL] 03af58143743c39197205bc2af01eb1f381fd2a6d23f6609fa34208adae7ef8f76"}, "vout": 32, "txid": "c4590f1d1ecf38af3766416a83a8b09cc359f32a3c446579fe8ca9d373e73864"}, {"sequence": 4294967294, "scriptSig": {"hex": "483045022100b7ef5eefcf38531bb516eff85c886986da86c54e6b1471c4ce9d276df5899e1e022055a1503039c58dc59634dd7387365e06a7df3baf00015cb48f89b3bc750cbd7a012103e065285336d1140f2a7ed1fa1c19d00d3c67aa33cad437799c7f52e1495011a6", "asm": "3045022100b7ef5eefcf38531bb516eff85c886986da86c54e6b1471c4ce9d276df5899e1e022055a1503039c58dc59634dd7387365e06a7df3baf00015cb48f89b3bc750cbd7a[ALL] 03e065285336d1140f2a7ed1fa1c19d00d3c67aa33cad437799c7f52e1495011a6"}, "vout": 1, "txid": "abd1844169670e04ea5386a9d08825e1851a7fe474cf154aed4cf430ae20fd6e"}, {"sequence": 4294967294, "scriptSig": {"hex": "483045022100e9a9a718b4746219c8e3f77212008157cdf2298fcab638fcada89061bebc9d390220095db8f2f207a71570a1af8dd5c1dd7202c4e26aa3bc5ad6c4150ad19d9d9f3401210211303475071dcedfef105d4337d45a0a9a101f6968df12669b5e239f1055de43", "asm": "3045022100e9a9a718b4746219c8e3f77212008157cdf2298fcab638fcada89061bebc9d390220095db8f2f207a71570a1af8dd5c1dd7202c4e26aa3bc5ad6c4150ad19d9d9f34[ALL] 0211303475071dcedfef105d4337d45a0a9a101f6968df12669b5e239f1055de43"}, "vout": 13, "txid": "4d6ae64e3abf2e923816c4be7cf0c780955ed0beca3221097c0f558ef28eb5e8"}, {"sequence": 4294967294, "scriptSig": {"hex": "47304402204f77afb1a61326b088b2676b20673dc0742a693a059638664979d1f48ba590eb02207e64702c245f9d221ffec1ce525322ce749c04bc9b174c244772667060ca64350121021f3485363698d0d64083b47b15e45bdfb0a10ac58acb4e34173b4ecfbf2d3e87", "asm": "304402204f77afb1a61326b088b2676b20673dc0742a693a059638664979d1f48ba590eb02207e64702c245f9d221ffec1ce525322ce749c04bc9b174c244772667060ca6435[ALL] 021f3485363698d0d64083b47b15e45bdfb0a10ac58acb4e34173b4ecfbf2d3e87"}, "vout": 23, "txid": "47932217107b4d1c9a75a22a62c2eece28e3c3cc042e08b3ee2ba84d213423ee"}], "txid": "23995eaf8780155750ffffcd63b1e7e6e380e2c518c513e8d24a0d5935b23600", "blocktime": 1537873891, "version": 2, "confirmations": 11479, "time": 1537873891, "locktime": 542996, "vsize": 1402, "size": 1402}