{"hash": "909b87790157f11e038a3e7823faf5381dcebd7a921592ba6c7a04b95cad9f5e", "blockhash": "0000000000000000000baef3f32e3676a92c3b2e5da21b426e4f302fc371ce76", "vout": [{"scriptPubKey": {"reqSigs": 1, "hex": "a914b44337f216fcdcf0a5895a72e8c4169a68ef293e87", "addresses": ["3J8A5VuG2KUQmCweiwHBDfv67VqWTciCM2"], "asm": "OP_HASH160 b44337f216fcdcf0a5895a72e8c4169a68ef293e OP_EQUAL", "type": "scripthash"}, "value": 0.03131999, "n": 0}], "hex": "01000000000101f8772f2c651b436968f395283b611cdc2480015b95f6ba3a157fc813ce49880008000000171600141790d2d44c42f9202d083b188b51d553e03f5f8cffffffff015fca2f000000000017a914b44337f216fcdcf0a5895a72e8c4169a68ef293e87024830450221009bb583240648bd3c5532c93ead6a86939ebd392aac768ec887cf2dcf96f4c9110220787a30c86b14eb1e64116dc4cb4e2a1a37bfd620af7e47baaef9e8ba6f15cee601210206aff306d63a106571a1b57f9e4d0b77b906c51d6987bdab638d99efab508c6f00000000", "vin": [{"txinwitness": ["30450221009bb583240648bd3c5532c93ead6a86939ebd392aac768ec887cf2dcf96f4c9110220787a30c86b14eb1e64116dc4cb4e2a1a37bfd620af7e47baaef9e8ba6f15cee601", "0206aff306d63a106571a1b57f9e4d0b77b906c51d6987bdab638d99efab508c6f"], "sequence": 4294967295, "scriptSig": {"hex": "1600141790d2d44c42f9202d083b188b51d553e03f5f8c", "asm": "00141790d2d44c42f9202d083b188b51d553e03f5f8c"}, "vout": 8, "txid": "008849ce13c87f153abaf6955b018024dc1c613b2895f36869431b652c2f77f8"}], "txid": "239bbfab5e4bb95be624fee53fe0a0f2df479c316238fe25f98de09bf2426a9a", "blocktime": 1537876114, "version": 1, "confirmations": 11460, "time": 1537876114, "locktime": 0, "vsize": 134, "size": 216}