{"hash": "23a13122500b6f7ae274e381e62409d091b9ac81fe3b978c72f3bedc2eb41d3c", "blockhash": "0000000000000000000dcc0f55137456b1a82d3642486a52398922ac4d620174", "vout": [{"scriptPubKey": {"reqSigs": 1, "hex": "a91458453e8ad14862e23d12c6b9aec483426c24913187", "addresses": ["39jkLbxYgEtVdKz9qY4DFM1kzxgdLhxSyX"], "asm": "OP_HASH160 58453e8ad14862e23d12c6b9aec483426c249131 OP_EQUAL", "type": "scripthash"}, "value": 0.006663, "n": 0}, {"scriptPubKey": {"reqSigs": 1, "hex": "76a91452235599c81654a37d1f5fa9feb71f3c565c254688ac", "addresses": ["18VJjojPBonSevNANEZMbDopZK8AcVFQhr"], "asm": "OP_DUP OP_HASH160 52235599c81654a37d1f5fa9feb71f3c565c2546 OP_EQUALVERIFY OP_CHECKSIG", "type": "pubkeyhash"}, "value": 0.29645088, "n": 1}], "hex": "01000000017005e1b2d05308566bb427f697f3205e80600d5a20aa59ff96ccab4b6a213900010000006b483045022100c62c1b7bfc65a22d2986377be552d9d578917893a96032316cb764b6c560868202205d5b4ba34e8f35e33e0bb8aa7337f3db5680bcd10cfa15f42ede35771891c2a4012102a876c098a45ddc2bb517606d9091055b810d7c9a53a0b6ba6616a82e4f9addd0ffffffff02bc2a0a000000000017a91458453e8ad14862e23d12c6b9aec483426c249131872059c401000000001976a91452235599c81654a37d1f5fa9feb71f3c565c254688ac00000000", "vin": [{"sequence": 4294967295, "scriptSig": {"hex": "483045022100c62c1b7bfc65a22d2986377be552d9d578917893a96032316cb764b6c560868202205d5b4ba34e8f35e33e0bb8aa7337f3db5680bcd10cfa15f42ede35771891c2a4012102a876c098a45ddc2bb517606d9091055b810d7c9a53a0b6ba6616a82e4f9addd0", "asm": "3045022100c62c1b7bfc65a22d2986377be552d9d578917893a96032316cb764b6c560868202205d5b4ba34e8f35e33e0bb8aa7337f3db5680bcd10cfa15f42ede35771891c2a4[ALL] 02a876c098a45ddc2bb517606d9091055b810d7c9a53a0b6ba6616a82e4f9addd0"}, "vout": 1, "txid": "0039216a4babcc96ff59aa205a0d60805e20f397f627b46b560853d0b2e10570"}], "txid": "23a13122500b6f7ae274e381e62409d091b9ac81fe3b978c72f3bedc2eb41d3c", "blocktime": 1537870268, "version": 1, "confirmations": 11518, "time": 1537870268, "locktime": 0, "vsize": 224, "size": 224}