{"hash": "23a7935e81db7aa4883c40916b114416e0a5dcaf26fb9554e1b8e67d3cc31765", "blockhash": "00000000000000000004ffacab907a6b429b9a5745fa0b75af4234bf69dd7176", "vout": [{"scriptPubKey": {"reqSigs": 1, "hex": "76a914d1132b37eff6ed7a711d3eda9bb835511dce402f88ac", "addresses": ["1L4VBy1Yeq57HenmnFz2mW1Y3WFw7Gwm8h"], "asm": "OP_DUP OP_HASH160 d1132b37eff6ed7a711d3eda9bb835511dce402f OP_EQUALVERIFY OP_CHECKSIG", "type": "pubkeyhash"}, "value": 0.00881042, "n": 0}, {"scriptPubKey": {"reqSigs": 1, "hex": "76a9140e249027f2a97506bdf3f968c960ca98e895a0d988ac", "addresses": ["12HnG8qC2xVi7kxcuF2Jp7iivsnSWoHwxT"], "asm": "OP_DUP OP_HASH160 0e249027f2a97506bdf3f968c960ca98e895a0d9 OP_EQUALVERIFY OP_CHECKSIG", "type": "pubkeyhash"}, "value": 0.35837154, "n": 1}], "hex": "0200000019c52194373cf2235cd50157510942daad4fa6053dafd456f01d32b90ac0f8af05000000006a47304402205e09590cc87190d33926407e15fdbde099df085dd276217e86df99b252ec599102201838e3bd47359d0829be11099e2727aea923bb7828b39d79afe02eb2e8a78d050121023c13c0bef939756966264029eebfaa08a325dbb95443b3736a13a21b5fac310cfeffffff9650dc2926dbea774e245fac9d7e69ef36a17dbc3a55c91c9a544a6473b1ddd23b0000006a473044022039413448ad9b5b5779be46b3107684c2a656a9266f815bf95fe5c3c489c8f5cb02202ffbc893ce04122eb52e9732e9a9bb7c1eef49dd3251c0bd8913c06ea0d3f4950121030f15c15537eed196b3847b04e4cde305c1d915e3199856bceaea5a540a2a9e0afeffffff98451821732fa7d6a44f9d3be2032382a035744769ead4737a48a146315166980e0000006b483045022100e161611349134a648e87c5a7f575d2f836ea7c65c565fdde8efcf4bfd133902c022019b811696d7e3702f66b6383fe4fa2d2bb0123c18a4cf6eddefc7e29aa7ce03a012102c8409b3c12e709ac29f72062fd7547a309ff39e1a6fada11c8a72d808c15744dfeffffffc94e8c74799a572d24733441d7acd5866318465b896cb2281c09bcbeded89f05430000006a47304402201ec2fef67f47a928a15e60add4572b9207d355db762d260047e617c319242e6c022070998179f485b9c46bd4304eaebfb34f03249f9ffa7f9dccff1e4a16ea988eff0121037b892dcd15e09a8f14244d613bb2c53b2796b78ee2ee6ba76236a56bc431b708feffffffc94e8c74799a572d24733441d7acd5866318465b896cb2281c09bcbeded89f057f0000006a4730440220507c46e473fb8c97bbdf8e6325517a2a5ccaaf81fbe95b07b0e05fca5825fed302206ccbb49fe4dbe1138258fe318de0e60411b539136b240b53cad246d456fc02b4012103e59ead55f214332fea3061465bbdd1a8d2dee29e76699d3436c7afbeb9b3d1b5feffffffc94e8c74799a572d24733441d7acd5866318465b896cb2281c09bcbeded89f05920000006a473044022008bdea3b62c3feb41290bf36b79ae2a5a116294547e1ec5d4ea68bd5bdd0e57d0220247a9ce53eb82d24683298b601d4ef8e6dc4ce1c5fbf4518eb792b0189edc6990121034b820ccd03e1d75c836768e35893272b42744d4034b6a6d6188bfd3cd4aa68b0feffffff433d52562cde4a7c27541db6591dc3c01d18ea7a4806de6458acf2ce31b67eee320000006a473044022060cf72815753d18f750aba13be83bc6a75a3960d509815d5f14ee107d44053ed0220674f3e7c3d0aac6185ad689661f568136d6b01da70ce9a70dcb0fcf1c4fd68a3012103dcc976f5daa7d0a89f3edca2a0f4520aedced07601ea9e5342c6b83ec931c40efeffffffbe365d16cbbc83a75611d58fc31131e4e2c7261741a3341ec9be41bb352fdfcb000000006b483045022100953a94c1239fbe4a3688369be728dce3b1bbd6105cfefd0d9c71a64808ba96230220624e5656b58a9b2c6a63c5cafea11655af94746e181bb45a3066822b5fdcbb89012102881f828bd04b12374f1d3faa26357595e590d499a1217feda42904b745694b71feffffff309f9cc977fc89dfa3ee0be7a9218415e406d058c3277f1a91adfba05a9357f4790000006a47304402206f7c7c7f389b0954762c02233558433c82d436faec6e2e407d0d1e8df9139191022048dc056527dcd6b16c6c371263b12e35875dafff11122e4eac5b4a9335e2841a01210352e572c5aa854f0cb9c94e6d756cfed5ed663300ea05c25da039fc773199aa5dfeffffff3968da03d119b04e01a6bb22b20f4d1ba57fc6ae731d758bf4ce7cfd6a5b9bff000000006b483045022100e9e27bd399fb78dcf58294732a4266a73ce8f84563788c587aa1f47c87f5db5102200bf2477465f817c249a0db0da46608f06537bbb00ffff4f3a28c929fad062b1901210298c361eadf560d2b316780d1e40149d30e274e7f7767f312980590b2c9ecd12afeffffff5a3878af6ab795de07028b0d18b13021f7aecf4e1158f8aeaf393f5331d27259000000006b483045022100bd12dc7ed5e98759d9a83c16e69821df2a788d1327cf2621ca5c240a6788f2a9022048f3982f5158a830dc26439d88e0dc63e7811859956479c0ed7ee98d42721ed9012102881f828bd04b12374f1d3faa26357595e590d499a1217feda42904b745694b71feffffff5d500b81072d828b3e8679e89099ca64f4286111edd7f47f90bb2e06f9fd459c060000006b483045022100dbe93f2461d17690f1a07056f91b12dae75dd596a5b5b621fc10cfc0e7aaf86202204f79ea1139385b230eba02f6464ec29bf5153ebbc31cbccf7adcc28d7948aa8601210281a71368933ba8281f3556441ebedebb12906d655fc2f167f94c3aa5e5c63f84feffffffa2f5a82fe9a8068cedf91c9b7bd09f14acf4087623b505e7fcf8065b9246daa7200000006b483045022100cc327c04532716af2a1ebd39a29f1bbf3845d1678897224d2800009fa920f545022008b04df5ac166a4bf94bbd97d9515c5d076420ea0ebdc2f1be0d5e03629a3d990121029c7619ebe6fd2dfda256fa6df8209d66f35e39e1de1ed66441539b5e5e7bd12efeffffffd48d7c2bca3fadc2be6d221a00c4930a452ea4275699f4ef1124de99726388e2000000006a47304402201a445c81e0e3e985eb2f73ccc2d1326610e76f5fe5af8aefc2b49e38066b05e0022076558336248e4afd2601c47cd391f52eb3303ce610045501fb9b500b1f0d718201210286158fb474a8a3ce2913d772455a516c99727b26376c9cb5d01015e1847b8f03feffffff053cd937f4c66c47852430601619a02169c877941c41fe675dc67d0715a9400c000000006a473044022064f848ec25d319ecd3e0fd0aa8f1e4a8391186f2499a84e4fbef6368645095b30220737a0fff95d40c5db95a68f568e88ae3efd05e9fd8b473b75dad76f56aca87db0121029457e4d0b66fe6950ffed54ed148db6d0f62fcdeeb98521e93414c1f3137333afeffffff2f56a5f8e2dc93d6be06931c29baecd0c5a5ea885bd4699158c728085ca9bd463c0000006a4730440220384f88deeb6a6074bd53a0836315e8318a147bb47ef61a3fbfaa15279a7658fc022053942ab01851e77b1f240b99a8be96bc10a470a604be64e0650d3fee260863bf012103eed21bb165233a9a32c819bab1894321446252ea00ebb12ee97274cf84803a49feffffff72554e6a66ffcf8bfc28cd780c4b746c640db9620e4c3213e55f18364c51978d000000006b4830450221009d3bd218190e418687309aaf0246027aabf7a2fa9618c9b6bb4dd0303f71d6c6022060bb14843f3d3e4f7e8681af035544c76664f9ca500eec7bbdab76a84247617e0121024c72e2dc0f104bdf770950e493a93894c75bbb5c335215cf4d2f20deb574f92efeffffffa6f5317cb28acbb14f757cb87f4148bcb832a9611762370851fa89227e64d948000000006a47304402204c105aecc8bf846aa2afaf6679bdac62210cc355b70337c17335a42f2b3c023f02202b5a6b0aea0df56a1f97368969861968f0c585fca6babcaeefda53cc80f26ecf012102881f828bd04b12374f1d3faa26357595e590d499a1217feda42904b745694b71feffffff24e28dd807a53ccdd477acf9049e7c01908d212f58c6982d1332828a2f1c55f1010000006b483045022100d01e23fff637e2ce2a0a388ed2d375e2b3073d712fc76ff50894611e422e4a2f02205b55cef844daa2e1f9a38997093b4517f0491bc2bb047fd4c7bec1512398fc1e0121024c72e2dc0f104bdf770950e493a93894c75bbb5c335215cf4d2f20deb574f92efeffffffed24bf93b3a1fa87bd0a915faf7bd6d898c4cd9634f8c96ab41bf327cc33f0f6de0000006b483045022100d1cea54723c83568afbde687d79de798f9f59db0089050f1dd83e23c4ddc115802206a2dd1ea821c62d242d5d97b3b68ae6b6f3a77be99f6a32a355fd416dd2a94380121025dc5401834804210bf11a1fe271a02b58c3b9b504ce08c64a8fb69f5dd38ed00feffffff1a74a0243121e0bf80a77274a43106ab670e32777a4ffc9f7719c43ef9fb2fe1000000006b483045022100deba726bbe1a931bd22b2e12b3d3ca5cdb45d82d3b9ca1618f93490215800b6002200eba2870e667a28fc0df0cb38bda48198cc5565c4e85b64fc3cd4fdae0e03d5b012102881f828bd04b12374f1d3faa26357595e590d499a1217feda42904b745694b71feffffff3c1a78cad53bb0eccccb9011f511a2a0b600b3040f4c1f80f3cdd20a1d520b6a000000006a4730440220759d17c3d698927d14e77da4935f918814736b204fcdfb64952b593dc335d1db02207e4d056f30060a73739450f013ee0c38a8066b70d3455bf4d55c0c529e3c066e012102881f828bd04b12374f1d3faa26357595e590d499a1217feda42904b745694b71feffffffc99430d092f703b9da8ce6a481c950bfc20d07b96bfa86494dd05b1260bdf072010000006a47304402205928059c3a54b10210dcd1d0dcd898830e94b8ca171871c31934eb8b7e58886002203f49bd960ff94a1d8e256a8df98c755da0bca9fe9d2a7ac074169cc74390adb9012102881f828bd04b12374f1d3faa26357595e590d499a1217feda42904b745694b71feffffff53ed48d88d6c1022fc39721335d7b8ebd72e416c74f826b29ff33379b41e80081f0000006b483045022100b0d70eed63f9fdd3f04d652d8939ffcd65d88b104158aa2cd1bbcc4857bd70e9022037cce0b18b76c279bc54501584498ceb6af090686395aad2bac748e385e49af7012102f836c39afc627b7a44d9dc980b40f834fccb5977bff070c822e47ab0581b1c0bfeffffff53ed48d88d6c1022fc39721335d7b8ebd72e416c74f826b29ff33379b41e8008340000006b483045022100b9c20a49aca86d46700a579a4b340153f4449ceb3a4b708cbe23b4d3360c539502204cc8995b99ea1d3cac17a0a864e873d452f4e01918e7d6726e60ac6f0c4d0323012103d31904aecc7e7c137e1370275459375c3b8dec1e001c9e9ee8c5e575bdeb21befeffffff0292710d00000000001976a914d1132b37eff6ed7a711d3eda9bb835511dce402f88ace2d42202000000001976a9140e249027f2a97506bdf3f968c960ca98e895a0d988ac12490800", "vin": [{"sequence": 4294967294, "scriptSig": {"hex": "47304402205e09590cc87190d33926407e15fdbde099df085dd276217e86df99b252ec599102201838e3bd47359d0829be11099e2727aea923bb7828b39d79afe02eb2e8a78d050121023c13c0bef939756966264029eebfaa08a325dbb95443b3736a13a21b5fac310c", "asm": "304402205e09590cc87190d33926407e15fdbde099df085dd276217e86df99b252ec599102201838e3bd47359d0829be11099e2727aea923bb7828b39d79afe02eb2e8a78d05[ALL] 023c13c0bef939756966264029eebfaa08a325dbb95443b3736a13a21b5fac310c"}, "vout": 0, "txid": "05aff8c00ab9321df056d4af3d05a64fadda4209515701d55c23f23c379421c5"}, {"sequence": 4294967294, "scriptSig": {"hex": "473044022039413448ad9b5b5779be46b3107684c2a656a9266f815bf95fe5c3c489c8f5cb02202ffbc893ce04122eb52e9732e9a9bb7c1eef49dd3251c0bd8913c06ea0d3f4950121030f15c15537eed196b3847b04e4cde305c1d915e3199856bceaea5a540a2a9e0a", "asm": "3044022039413448ad9b5b5779be46b3107684c2a656a9266f815bf95fe5c3c489c8f5cb02202ffbc893ce04122eb52e9732e9a9bb7c1eef49dd3251c0bd8913c06ea0d3f495[ALL] 030f15c15537eed196b3847b04e4cde305c1d915e3199856bceaea5a540a2a9e0a"}, "vout": 59, "txid": "d2ddb173644a549a1cc9553abc7da136ef697e9dac5f244e77eadb2629dc5096"}, {"sequence": 4294967294, "scriptSig": {"hex": "483045022100e161611349134a648e87c5a7f575d2f836ea7c65c565fdde8efcf4bfd133902c022019b811696d7e3702f66b6383fe4fa2d2bb0123c18a4cf6eddefc7e29aa7ce03a012102c8409b3c12e709ac29f72062fd7547a309ff39e1a6fada11c8a72d808c15744d", "asm": "3045022100e161611349134a648e87c5a7f575d2f836ea7c65c565fdde8efcf4bfd133902c022019b811696d7e3702f66b6383fe4fa2d2bb0123c18a4cf6eddefc7e29aa7ce03a[ALL] 02c8409b3c12e709ac29f72062fd7547a309ff39e1a6fada11c8a72d808c15744d"}, "vout": 14, "txid": "9866513146a1487a73d4ea69477435a0822303e23b9d4fa4d6a72f7321184598"}, {"sequence": 4294967294, "scriptSig": {"hex": "47304402201ec2fef67f47a928a15e60add4572b9207d355db762d260047e617c319242e6c022070998179f485b9c46bd4304eaebfb34f03249f9ffa7f9dccff1e4a16ea988eff0121037b892dcd15e09a8f14244d613bb2c53b2796b78ee2ee6ba76236a56bc431b708", "asm": "304402201ec2fef67f47a928a15e60add4572b9207d355db762d260047e617c319242e6c022070998179f485b9c46bd4304eaebfb34f03249f9ffa7f9dccff1e4a16ea988eff[ALL] 037b892dcd15e09a8f14244d613bb2c53b2796b78ee2ee6ba76236a56bc431b708"}, "vout": 67, "txid": "059fd8debebc091c28b26c895b46186386d5acd7413473242d579a79748c4ec9"}, {"sequence": 4294967294, "scriptSig": {"hex": "4730440220507c46e473fb8c97bbdf8e6325517a2a5ccaaf81fbe95b07b0e05fca5825fed302206ccbb49fe4dbe1138258fe318de0e60411b539136b240b53cad246d456fc02b4012103e59ead55f214332fea3061465bbdd1a8d2dee29e76699d3436c7afbeb9b3d1b5", "asm": "30440220507c46e473fb8c97bbdf8e6325517a2a5ccaaf81fbe95b07b0e05fca5825fed302206ccbb49fe4dbe1138258fe318de0e60411b539136b240b53cad246d456fc02b4[ALL] 03e59ead55f214332fea3061465bbdd1a8d2dee29e76699d3436c7afbeb9b3d1b5"}, "vout": 127, "txid": "059fd8debebc091c28b26c895b46186386d5acd7413473242d579a79748c4ec9"}, {"sequence": 4294967294, "scriptSig": {"hex": "473044022008bdea3b62c3feb41290bf36b79ae2a5a116294547e1ec5d4ea68bd5bdd0e57d0220247a9ce53eb82d24683298b601d4ef8e6dc4ce1c5fbf4518eb792b0189edc6990121034b820ccd03e1d75c836768e35893272b42744d4034b6a6d6188bfd3cd4aa68b0", "asm": "3044022008bdea3b62c3feb41290bf36b79ae2a5a116294547e1ec5d4ea68bd5bdd0e57d0220247a9ce53eb82d24683298b601d4ef8e6dc4ce1c5fbf4518eb792b0189edc699[ALL] 034b820ccd03e1d75c836768e35893272b42744d4034b6a6d6188bfd3cd4aa68b0"}, "vout": 146, "txid": "059fd8debebc091c28b26c895b46186386d5acd7413473242d579a79748c4ec9"}, {"sequence": 4294967294, "scriptSig": {"hex": "473044022060cf72815753d18f750aba13be83bc6a75a3960d509815d5f14ee107d44053ed0220674f3e7c3d0aac6185ad689661f568136d6b01da70ce9a70dcb0fcf1c4fd68a3012103dcc976f5daa7d0a89f3edca2a0f4520aedced07601ea9e5342c6b83ec931c40e", "asm": "3044022060cf72815753d18f750aba13be83bc6a75a3960d509815d5f14ee107d44053ed0220674f3e7c3d0aac6185ad689661f568136d6b01da70ce9a70dcb0fcf1c4fd68a3[ALL] 03dcc976f5daa7d0a89f3edca2a0f4520aedced07601ea9e5342c6b83ec931c40e"}, "vout": 50, "txid": "ee7eb631cef2ac5864de06487aea181dc0c31d59b61d54277c4ade2c56523d43"}, {"sequence": 4294967294, "scriptSig": {"hex": "483045022100953a94c1239fbe4a3688369be728dce3b1bbd6105cfefd0d9c71a64808ba96230220624e5656b58a9b2c6a63c5cafea11655af94746e181bb45a3066822b5fdcbb89012102881f828bd04b12374f1d3faa26357595e590d499a1217feda42904b745694b71", "asm": "3045022100953a94c1239fbe4a3688369be728dce3b1bbd6105cfefd0d9c71a64808ba96230220624e5656b58a9b2c6a63c5cafea11655af94746e181bb45a3066822b5fdcbb89[ALL] 02881f828bd04b12374f1d3faa26357595e590d499a1217feda42904b745694b71"}, "vout": 0, "txid": "cbdf2f35bb41bec91e34a3411726c7e2e43111c38fd51156a783bccb165d36be"}, {"sequence": 4294967294, "scriptSig": {"hex": "47304402206f7c7c7f389b0954762c02233558433c82d436faec6e2e407d0d1e8df9139191022048dc056527dcd6b16c6c371263b12e35875dafff11122e4eac5b4a9335e2841a01210352e572c5aa854f0cb9c94e6d756cfed5ed663300ea05c25da039fc773199aa5d", "asm": "304402206f7c7c7f389b0954762c02233558433c82d436faec6e2e407d0d1e8df9139191022048dc056527dcd6b16c6c371263b12e35875dafff11122e4eac5b4a9335e2841a[ALL] 0352e572c5aa854f0cb9c94e6d756cfed5ed663300ea05c25da039fc773199aa5d"}, "vout": 121, "txid": "f457935aa0fbad911a7f27c358d006e4158421a9e70beea3df89fc77c99c9f30"}, {"sequence": 4294967294, "scriptSig": {"hex": "483045022100e9e27bd399fb78dcf58294732a4266a73ce8f84563788c587aa1f47c87f5db5102200bf2477465f817c249a0db0da46608f06537bbb00ffff4f3a28c929fad062b1901210298c361eadf560d2b316780d1e40149d30e274e7f7767f312980590b2c9ecd12a", "asm": "3045022100e9e27bd399fb78dcf58294732a4266a73ce8f84563788c587aa1f47c87f5db5102200bf2477465f817c249a0db0da46608f06537bbb00ffff4f3a28c929fad062b19[ALL] 0298c361eadf560d2b316780d1e40149d30e274e7f7767f312980590b2c9ecd12a"}, "vout": 0, "txid": "ff9b5b6afd7ccef48b751d73aec67fa51b4d0fb222bba6014eb019d103da6839"}, {"sequence": 4294967294, "scriptSig": {"hex": "483045022100bd12dc7ed5e98759d9a83c16e69821df2a788d1327cf2621ca5c240a6788f2a9022048f3982f5158a830dc26439d88e0dc63e7811859956479c0ed7ee98d42721ed9012102881f828bd04b12374f1d3faa26357595e590d499a1217feda42904b745694b71", "asm": "3045022100bd12dc7ed5e98759d9a83c16e69821df2a788d1327cf2621ca5c240a6788f2a9022048f3982f5158a830dc26439d88e0dc63e7811859956479c0ed7ee98d42721ed9[ALL] 02881f828bd04b12374f1d3faa26357595e590d499a1217feda42904b745694b71"}, "vout": 0, "txid": "5972d231533f39afaef858114ecfaef72130b1180d8b0207de95b76aaf78385a"}, {"sequence": 4294967294, "scriptSig": {"hex": "483045022100dbe93f2461d17690f1a07056f91b12dae75dd596a5b5b621fc10cfc0e7aaf86202204f79ea1139385b230eba02f6464ec29bf5153ebbc31cbccf7adcc28d7948aa8601210281a71368933ba8281f3556441ebedebb12906d655fc2f167f94c3aa5e5c63f84", "asm": "3045022100dbe93f2461d17690f1a07056f91b12dae75dd596a5b5b621fc10cfc0e7aaf86202204f79ea1139385b230eba02f6464ec29bf5153ebbc31cbccf7adcc28d7948aa86[ALL] 0281a71368933ba8281f3556441ebedebb12906d655fc2f167f94c3aa5e5c63f84"}, "vout": 6, "txid": "9c45fdf9062ebb907ff4d7ed116128f464ca9990e879863e8b822d07810b505d"}, {"sequence": 4294967294, "scriptSig": {"hex": "483045022100cc327c04532716af2a1ebd39a29f1bbf3845d1678897224d2800009fa920f545022008b04df5ac166a4bf94bbd97d9515c5d076420ea0ebdc2f1be0d5e03629a3d990121029c7619ebe6fd2dfda256fa6df8209d66f35e39e1de1ed66441539b5e5e7bd12e", "asm": "3045022100cc327c04532716af2a1ebd39a29f1bbf3845d1678897224d2800009fa920f545022008b04df5ac166a4bf94bbd97d9515c5d076420ea0ebdc2f1be0d5e03629a3d99[ALL] 029c7619ebe6fd2dfda256fa6df8209d66f35e39e1de1ed66441539b5e5e7bd12e"}, "vout": 32, "txid": "a7da46925b06f8fce705b5237608f4ac149fd07b9b1cf9ed8c06a8e92fa8f5a2"}, {"sequence": 4294967294, "scriptSig": {"hex": "47304402201a445c81e0e3e985eb2f73ccc2d1326610e76f5fe5af8aefc2b49e38066b05e0022076558336248e4afd2601c47cd391f52eb3303ce610045501fb9b500b1f0d718201210286158fb474a8a3ce2913d772455a516c99727b26376c9cb5d01015e1847b8f03", "asm": "304402201a445c81e0e3e985eb2f73ccc2d1326610e76f5fe5af8aefc2b49e38066b05e0022076558336248e4afd2601c47cd391f52eb3303ce610045501fb9b500b1f0d7182[ALL] 0286158fb474a8a3ce2913d772455a516c99727b26376c9cb5d01015e1847b8f03"}, "vout": 0, "txid": "e288637299de2411eff4995627a42e450a93c4001a226dbec2ad3fca2b7c8dd4"}, {"sequence": 4294967294, "scriptSig": {"hex": "473044022064f848ec25d319ecd3e0fd0aa8f1e4a8391186f2499a84e4fbef6368645095b30220737a0fff95d40c5db95a68f568e88ae3efd05e9fd8b473b75dad76f56aca87db0121029457e4d0b66fe6950ffed54ed148db6d0f62fcdeeb98521e93414c1f3137333a", "asm": "3044022064f848ec25d319ecd3e0fd0aa8f1e4a8391186f2499a84e4fbef6368645095b30220737a0fff95d40c5db95a68f568e88ae3efd05e9fd8b473b75dad76f56aca87db[ALL] 029457e4d0b66fe6950ffed54ed148db6d0f62fcdeeb98521e93414c1f3137333a"}, "vout": 0, "txid": "0c40a915077dc65d67fe411c9477c86921a0191660302485476cc6f437d93c05"}, {"sequence": 4294967294, "scriptSig": {"hex": "4730440220384f88deeb6a6074bd53a0836315e8318a147bb47ef61a3fbfaa15279a7658fc022053942ab01851e77b1f240b99a8be96bc10a470a604be64e0650d3fee260863bf012103eed21bb165233a9a32c819bab1894321446252ea00ebb12ee97274cf84803a49", "asm": "30440220384f88deeb6a6074bd53a0836315e8318a147bb47ef61a3fbfaa15279a7658fc022053942ab01851e77b1f240b99a8be96bc10a470a604be64e0650d3fee260863bf[ALL] 03eed21bb165233a9a32c819bab1894321446252ea00ebb12ee97274cf84803a49"}, "vout": 60, "txid": "46bda95c0828c7589169d45b88eaa5c5d0ecba291c9306bed693dce2f8a5562f"}, {"sequence": 4294967294, "scriptSig": {"hex": "4830450221009d3bd218190e418687309aaf0246027aabf7a2fa9618c9b6bb4dd0303f71d6c6022060bb14843f3d3e4f7e8681af035544c76664f9ca500eec7bbdab76a84247617e0121024c72e2dc0f104bdf770950e493a93894c75bbb5c335215cf4d2f20deb574f92e", "asm": "30450221009d3bd218190e418687309aaf0246027aabf7a2fa9618c9b6bb4dd0303f71d6c6022060bb14843f3d3e4f7e8681af035544c76664f9ca500eec7bbdab76a84247617e[ALL] 024c72e2dc0f104bdf770950e493a93894c75bbb5c335215cf4d2f20deb574f92e"}, "vout": 0, "txid": "8d97514c36185fe513324c0e62b90d646c744b0c78cd28fc8bcfff666a4e5572"}, {"sequence": 4294967294, "scriptSig": {"hex": "47304402204c105aecc8bf846aa2afaf6679bdac62210cc355b70337c17335a42f2b3c023f02202b5a6b0aea0df56a1f97368969861968f0c585fca6babcaeefda53cc80f26ecf012102881f828bd04b12374f1d3faa26357595e590d499a1217feda42904b745694b71", "asm": "304402204c105aecc8bf846aa2afaf6679bdac62210cc355b70337c17335a42f2b3c023f02202b5a6b0aea0df56a1f97368969861968f0c585fca6babcaeefda53cc80f26ecf[ALL] 02881f828bd04b12374f1d3faa26357595e590d499a1217feda42904b745694b71"}, "vout": 0, "txid": "48d9647e2289fa510837621761a932b8bc48417fb87c754fb1cb8ab27c31f5a6"}, {"sequence": 4294967294, "scriptSig": {"hex": "483045022100d01e23fff637e2ce2a0a388ed2d375e2b3073d712fc76ff50894611e422e4a2f02205b55cef844daa2e1f9a38997093b4517f0491bc2bb047fd4c7bec1512398fc1e0121024c72e2dc0f104bdf770950e493a93894c75bbb5c335215cf4d2f20deb574f92e", "asm": "3045022100d01e23fff637e2ce2a0a388ed2d375e2b3073d712fc76ff50894611e422e4a2f02205b55cef844daa2e1f9a38997093b4517f0491bc2bb047fd4c7bec1512398fc1e[ALL] 024c72e2dc0f104bdf770950e493a93894c75bbb5c335215cf4d2f20deb574f92e"}, "vout": 1, "txid": "f1551c2f8a8232132d98c6582f218d90017c9e04f9ac77d4cd3ca507d88de224"}, {"sequence": 4294967294, "scriptSig": {"hex": "483045022100d1cea54723c83568afbde687d79de798f9f59db0089050f1dd83e23c4ddc115802206a2dd1ea821c62d242d5d97b3b68ae6b6f3a77be99f6a32a355fd416dd2a94380121025dc5401834804210bf11a1fe271a02b58c3b9b504ce08c64a8fb69f5dd38ed00", "asm": "3045022100d1cea54723c83568afbde687d79de798f9f59db0089050f1dd83e23c4ddc115802206a2dd1ea821c62d242d5d97b3b68ae6b6f3a77be99f6a32a355fd416dd2a9438[ALL] 025dc5401834804210bf11a1fe271a02b58c3b9b504ce08c64a8fb69f5dd38ed00"}, "vout": 222, "txid": "f6f033cc27f31bb46ac9f83496cdc498d8d67baf5f910abd87faa1b393bf24ed"}, {"sequence": 4294967294, "scriptSig": {"hex": "483045022100deba726bbe1a931bd22b2e12b3d3ca5cdb45d82d3b9ca1618f93490215800b6002200eba2870e667a28fc0df0cb38bda48198cc5565c4e85b64fc3cd4fdae0e03d5b012102881f828bd04b12374f1d3faa26357595e590d499a1217feda42904b745694b71", "asm": "3045022100deba726bbe1a931bd22b2e12b3d3ca5cdb45d82d3b9ca1618f93490215800b6002200eba2870e667a28fc0df0cb38bda48198cc5565c4e85b64fc3cd4fdae0e03d5b[ALL] 02881f828bd04b12374f1d3faa26357595e590d499a1217feda42904b745694b71"}, "vout": 0, "txid": "e12ffbf93ec419779ffc4f7a77320e67ab0631a47472a780bfe0213124a0741a"}, {"sequence": 4294967294, "scriptSig": {"hex": "4730440220759d17c3d698927d14e77da4935f918814736b204fcdfb64952b593dc335d1db02207e4d056f30060a73739450f013ee0c38a8066b70d3455bf4d55c0c529e3c066e012102881f828bd04b12374f1d3faa26357595e590d499a1217feda42904b745694b71", "asm": "30440220759d17c3d698927d14e77da4935f918814736b204fcdfb64952b593dc335d1db02207e4d056f30060a73739450f013ee0c38a8066b70d3455bf4d55c0c529e3c066e[ALL] 02881f828bd04b12374f1d3faa26357595e590d499a1217feda42904b745694b71"}, "vout": 0, "txid": "6a0b521d0ad2cdf3801f4c0f04b300b6a0a211f51190cbccecb03bd5ca781a3c"}, {"sequence": 4294967294, "scriptSig": {"hex": "47304402205928059c3a54b10210dcd1d0dcd898830e94b8ca171871c31934eb8b7e58886002203f49bd960ff94a1d8e256a8df98c755da0bca9fe9d2a7ac074169cc74390adb9012102881f828bd04b12374f1d3faa26357595e590d499a1217feda42904b745694b71", "asm": "304402205928059c3a54b10210dcd1d0dcd898830e94b8ca171871c31934eb8b7e58886002203f49bd960ff94a1d8e256a8df98c755da0bca9fe9d2a7ac074169cc74390adb9[ALL] 02881f828bd04b12374f1d3faa26357595e590d499a1217feda42904b745694b71"}, "vout": 1, "txid": "72f0bd60125bd04d4986fa6bb9070dc2bf50c981a4e68cdab903f792d03094c9"}, {"sequence": 4294967294, "scriptSig": {"hex": "483045022100b0d70eed63f9fdd3f04d652d8939ffcd65d88b104158aa2cd1bbcc4857bd70e9022037cce0b18b76c279bc54501584498ceb6af090686395aad2bac748e385e49af7012102f836c39afc627b7a44d9dc980b40f834fccb5977bff070c822e47ab0581b1c0b", "asm": "3045022100b0d70eed63f9fdd3f04d652d8939ffcd65d88b104158aa2cd1bbcc4857bd70e9022037cce0b18b76c279bc54501584498ceb6af090686395aad2bac748e385e49af7[ALL] 02f836c39afc627b7a44d9dc980b40f834fccb5977bff070c822e47ab0581b1c0b"}, "vout": 31, "txid": "08801eb47933f39fb226f8746c412ed7ebb8d735137239fc22106c8dd848ed53"}, {"sequence": 4294967294, "scriptSig": {"hex": "483045022100b9c20a49aca86d46700a579a4b340153f4449ceb3a4b708cbe23b4d3360c539502204cc8995b99ea1d3cac17a0a864e873d452f4e01918e7d6726e60ac6f0c4d0323012103d31904aecc7e7c137e1370275459375c3b8dec1e001c9e9ee8c5e575bdeb21be", "asm": "3045022100b9c20a49aca86d46700a579a4b340153f4449ceb3a4b708cbe23b4d3360c539502204cc8995b99ea1d3cac17a0a864e873d452f4e01918e7d6726e60ac6f0c4d0323[ALL] 03d31904aecc7e7c137e1370275459375c3b8dec1e001c9e9ee8c5e575bdeb21be"}, "vout": 52, "txid": "08801eb47933f39fb226f8746c412ed7ebb8d735137239fc22106c8dd848ed53"}], "txid": "23a7935e81db7aa4883c40916b114416e0a5dcaf26fb9554e1b8e67d3cc31765", "blocktime": 1537875543, "version": 2, "confirmations": 11464, "time": 1537875543, "locktime": 542994, "vsize": 3765, "size": 3765}