{"hash": "23a9d1ce272bcdd2acc3b29467480e9143ddb83c4dc13afd7ec86a777264b9a8", "blockhash": "0000000000000000001cda96e906b7601b7a6fb1a3b62bca570a9e5d8f4b3de1", "vout": [{"scriptPubKey": {"reqSigs": 1, "hex": "76a9146941e7b0c5366a4e72b8e191b5023e00f79b9b3b88ac", "addresses": ["1AbYuJg6PwQkG6UmzAxwiqhG9ZjRvPRcaX"], "asm": "OP_DUP OP_HASH160 6941e7b0c5366a4e72b8e191b5023e00f79b9b3b OP_EQUALVERIFY OP_CHECKSIG", "type": "pubkeyhash"}, "value": 0.01789, "n": 0}, {"scriptPubKey": {"reqSigs": 1, "hex": "a914e370231feecbfc25e2e2423a5a79bf79bfdca59887", "addresses": ["3NRbeX3vD5VaVE4TDU9ivCDsEf7NPPte6J"], "asm": "OP_HASH160 e370231feecbfc25e2e2423a5a79bf79bfdca598 OP_EQUAL", "type": "scripthash"}, "value": 0.51319816, "n": 1}], "hex": "0100000001359a9b85e4c3c157dffd266973ae91d9b32e8b30ef783471c9b43358a5a41f6b01000000d900473044022079eb48ca82f6cd9de89a0a9c11ce62cc72fdb342d00f0257eac47cad584aec3102200a14e22d8fcc042a9621b7cb613f5c490354c28365bfe3f36f93ecdb8e536f1d01473044022035d33a44e11b307b7d858ddb1b9aa8a3fec73a5a0b4e5735344670ab572977b1022005dfd8ae10379f13a7c784d5df32c85b4a29eb1eaf98736a5ec0ccefade1a963014752210327881b6abce6535553a3ce21fad12a7d74fd237ce7c4cd270a267162344e3082210256141f8eb687f5a68c5cc65054652dc25116fa285e44d72b44368827ffe77d9a52aeffffffff02484c1b00000000001976a9146941e7b0c5366a4e72b8e191b5023e00f79b9b3b88ac08140f030000000017a914e370231feecbfc25e2e2423a5a79bf79bfdca5988700000000", "vin": [{"sequence": 4294967295, "scriptSig": {"hex": "00473044022079eb48ca82f6cd9de89a0a9c11ce62cc72fdb342d00f0257eac47cad584aec3102200a14e22d8fcc042a9621b7cb613f5c490354c28365bfe3f36f93ecdb8e536f1d01473044022035d33a44e11b307b7d858ddb1b9aa8a3fec73a5a0b4e5735344670ab572977b1022005dfd8ae10379f13a7c784d5df32c85b4a29eb1eaf98736a5ec0ccefade1a963014752210327881b6abce6535553a3ce21fad12a7d74fd237ce7c4cd270a267162344e3082210256141f8eb687f5a68c5cc65054652dc25116fa285e44d72b44368827ffe77d9a52ae", "asm": "0 3044022079eb48ca82f6cd9de89a0a9c11ce62cc72fdb342d00f0257eac47cad584aec3102200a14e22d8fcc042a9621b7cb613f5c490354c28365bfe3f36f93ecdb8e536f1d[ALL] 3044022035d33a44e11b307b7d858ddb1b9aa8a3fec73a5a0b4e5735344670ab572977b1022005dfd8ae10379f13a7c784d5df32c85b4a29eb1eaf98736a5ec0ccefade1a963[ALL] 52210327881b6abce6535553a3ce21fad12a7d74fd237ce7c4cd270a267162344e3082210256141f8eb687f5a68c5cc65054652dc25116fa285e44d72b44368827ffe77d9a52ae"}, "vout": 1, "txid": "6b1fa4a55833b4c9713478ef308b2eb3d991ae736926fddf57c1c3e4859b9a35"}], "txid": "23a9d1ce272bcdd2acc3b29467480e9143ddb83c4dc13afd7ec86a777264b9a8", "blocktime": 1537873282, "version": 1, "confirmations": 11484, "time": 1537873282, "locktime": 0, "vsize": 334, "size": 334}