{"hash": "8bfc9167a00ba055388e5c32b47603993b8051285c6734b841abafadeb918cc4", "blockhash": "000000000000000000022b45ed06c6f4ccd3cf7fb5ba4856ebd2e58215665228", "vout": [{"scriptPubKey": {"reqSigs": 1, "hex": "76a9142613285a02e2ab9f7f70dcf22eec6e8a497fe1e988ac", "addresses": ["14UKdPJhBpCWbny5uQghYByhZp3c6cBXwE"], "asm": "OP_DUP OP_HASH160 2613285a02e2ab9f7f70dcf22eec6e8a497fe1e9 OP_EQUALVERIFY OP_CHECKSIG", "type": "pubkeyhash"}, "value": 0.03969463, "n": 0}, {"scriptPubKey": {"reqSigs": 1, "hex": "a914757cd62ae704804983b09005b67a47b7520cbdf687", "addresses": ["3CQEXnZh5GDUCMHPt5UMb8owDn3XXatp7P"], "asm": "OP_HASH160 757cd62ae704804983b09005b67a47b7520cbdf6 OP_EQUAL", "type": "scripthash"}, "value": 0.14029561, "n": 1}], "hex": "010000000001012f42dd7a086598ab45baa17b7803fb0b522f7096346e3f4891d1faac1f9e65700f00000017160014300fb1c2d6613c34c1eacca43e1725cc4cb30d58ffffff0002b7913c00000000001976a9142613285a02e2ab9f7f70dcf22eec6e8a497fe1e988acf912d6000000000017a914757cd62ae704804983b09005b67a47b7520cbdf68702473044022050bc452cae0566893ca00779da64f9fdb9ee79cdb7b4d4cbf6fde32350f65f6b02207b37ea892714df9c24ad439d5e0e8864341ae05d632f5ec691cd2a587aad2dc20121021f4e0059c95f8d79f9aa7ce8ca71dddc9dc088feeda4f29d98b8ee46286564cd00000000", "vin": [{"txinwitness": ["3044022050bc452cae0566893ca00779da64f9fdb9ee79cdb7b4d4cbf6fde32350f65f6b02207b37ea892714df9c24ad439d5e0e8864341ae05d632f5ec691cd2a587aad2dc201", "021f4e0059c95f8d79f9aa7ce8ca71dddc9dc088feeda4f29d98b8ee46286564cd"], "sequence": 16777215, "scriptSig": {"hex": "160014300fb1c2d6613c34c1eacca43e1725cc4cb30d58", "asm": "0014300fb1c2d6613c34c1eacca43e1725cc4cb30d58"}, "vout": 15, "txid": "70659e1facfad191483f6e3496702f520bfb03787ba1ba45ab9865087add422f"}], "txid": "23abc41e894d85480ef531b66949b4fd6b3da47b280477a703f979136c270c98", "blocktime": 1537869901, "version": 1, "confirmations": 11522, "time": 1537869901, "locktime": 0, "vsize": 168, "size": 249}