{"hash": "a368fc3e64142482bac308c81c0db3b9a91dc7a50e659663f45270d1a4744c2b", "blockhash": "000000000000000000022b45ed06c6f4ccd3cf7fb5ba4856ebd2e58215665228", "vout": [{"scriptPubKey": {"reqSigs": 1, "hex": "a91407045129170d71ee19000afa5a452a17e6a192dc87", "addresses": ["32L7pqde4n2vzRyAybmJN2YcWMM1Yzgvgo"], "asm": "OP_HASH160 07045129170d71ee19000afa5a452a17e6a192dc OP_EQUAL", "type": "scripthash"}, "value": 0.01008693, "n": 0}, {"scriptPubKey": {"reqSigs": 1, "hex": "76a9146bf5d825fdc826a564706de3e597daf6a5aaf14b88ac", "addresses": ["1Aqqp6BYo68MNUBoX7myFDEicK2Xk7yxRH"], "asm": "OP_DUP OP_HASH160 6bf5d825fdc826a564706de3e597daf6a5aaf14b OP_EQUALVERIFY OP_CHECKSIG", "type": "pubkeyhash"}, "value": 0.0028816, "n": 1}], "hex": "020000000001023e0e024d25de986ee402ef43a8d67cc60b116ef2e3ab38c995340e90480eaaf8010000001716001414ba811463b2fc3f5d4e02c70f4350cfefb25c54feffffffc7068a8ab634fdfacdd7288ead2cedb333236bc98b9b4f489c6bcc3b5ba1021c0100000017160014b754d49eb1310b2045a4aeb7a1fb0947038292fefeffffff0235640f000000000017a91407045129170d71ee19000afa5a452a17e6a192dc87a0650400000000001976a9146bf5d825fdc826a564706de3e597daf6a5aaf14b88ac02473044022043b4e8991840842c2de7547b5c1922aa872320155ee93a6f46051639d6b762a70220540d2418a6ac22ae7864da6ef8880e04dff3cf6847aeea4c5468957d32c9757f0121035850112d2f70bc5eaa606d8d6ca3757fd91dd2dd7efb8afd70fba67721b0c09902473044022004da5596c621069cf6ade1eeceea8c02b6fd67df03cafd30bcb4899527608b2b022052a31a51597b5db092f377368f9c846ff19b1a0beeb75160ae2b87bfaefc248e01210323469fcd7baf4f69a9476616a177782b075f6db7dd12f39ba3dadaec42dafefd0b490800", "vin": [{"txinwitness": ["3044022043b4e8991840842c2de7547b5c1922aa872320155ee93a6f46051639d6b762a70220540d2418a6ac22ae7864da6ef8880e04dff3cf6847aeea4c5468957d32c9757f01", "035850112d2f70bc5eaa606d8d6ca3757fd91dd2dd7efb8afd70fba67721b0c099"], "sequence": 4294967294, "scriptSig": {"hex": "16001414ba811463b2fc3f5d4e02c70f4350cfefb25c54", "asm": "001414ba811463b2fc3f5d4e02c70f4350cfefb25c54"}, "vout": 1, "txid": "f8aa0e48900e3495c938abe3f26e110bc67cd6a843ef02e46e98de254d020e3e"}, {"txinwitness": ["3044022004da5596c621069cf6ade1eeceea8c02b6fd67df03cafd30bcb4899527608b2b022052a31a51597b5db092f377368f9c846ff19b1a0beeb75160ae2b87bfaefc248e01", "0323469fcd7baf4f69a9476616a177782b075f6db7dd12f39ba3dadaec42dafefd"], "sequence": 4294967294, "scriptSig": {"hex": "160014b754d49eb1310b2045a4aeb7a1fb0947038292fe", "asm": "0014b754d49eb1310b2045a4aeb7a1fb0947038292fe"}, "vout": 1, "txid": "1c02a15b3bcc6b9c484f9b8bc96b2333b3ed2cad8e28d7cdfafd34b68a8a06c7"}], "txid": "23b0a31c11ededccf637fd64a0bd4e717237d4c496274f27450867f12dcf04c4", "blocktime": 1537869901, "version": 2, "confirmations": 11524, "time": 1537869901, "locktime": 542987, "vsize": 258, "size": 420}