{"hash": "23b19632a0a395c143026eb500b6089b21dcbea6f60756d4158372a117a44371", "blockhash": "0000000000000000000e13cef7c366c0283d82e591d1acd082e914b08063cdf1", "vout": [{"scriptPubKey": {"reqSigs": 1, "hex": "76a9146ccb7936b4b3b8f35baa647819daf0097e60f6a988ac", "addresses": ["1AvFjJccDMiNLQZpx2cjQN9xj6FZSGauzv"], "asm": "OP_DUP OP_HASH160 6ccb7936b4b3b8f35baa647819daf0097e60f6a9 OP_EQUALVERIFY OP_CHECKSIG", "type": "pubkeyhash"}, "value": 0.0054999, "n": 0}, {"scriptPubKey": {"reqSigs": 1, "hex": "76a91431da57b87b7b5bb0a4e54ceedb10ff9b5fcf676288ac", "addresses": ["15Ybg7b5hyraBDmgdpFzAfa9Rw551sa8df"], "asm": "OP_DUP OP_HASH160 31da57b87b7b5bb0a4e54ceedb10ff9b5fcf6762 OP_EQUALVERIFY OP_CHECKSIG", "type": "pubkeyhash"}, "value": 0.95961465, "n": 1}], "hex": "0100000001d591df777cc3574bd43502be7fd0722b41f10df3bd0958a44590fae2ef8b41f0010000006b483045022100cf29db778967a54dd4851ea5e8bfdea8f4503e840b375c452c63cbb37b99926002201667a12235b14fd5428814e02137f729325befff4379f45d3c11d57b7a62cd5501210314f56e059f221f8fd6e87aa4ad767fa7b45a05fcad823346a3a6cbca453de35dffffffff0266640800000000001976a9146ccb7936b4b3b8f35baa647819daf0097e60f6a988ac7941b805000000001976a91431da57b87b7b5bb0a4e54ceedb10ff9b5fcf676288ac00000000", "vin": [{"sequence": 4294967295, "scriptSig": {"hex": "483045022100cf29db778967a54dd4851ea5e8bfdea8f4503e840b375c452c63cbb37b99926002201667a12235b14fd5428814e02137f729325befff4379f45d3c11d57b7a62cd5501210314f56e059f221f8fd6e87aa4ad767fa7b45a05fcad823346a3a6cbca453de35d", "asm": "3045022100cf29db778967a54dd4851ea5e8bfdea8f4503e840b375c452c63cbb37b99926002201667a12235b14fd5428814e02137f729325befff4379f45d3c11d57b7a62cd55[ALL] 0314f56e059f221f8fd6e87aa4ad767fa7b45a05fcad823346a3a6cbca453de35d"}, "vout": 1, "txid": "f0418befe2fa9045a45809bdf30df1412b72d07fbe0235d44b57c37c77df91d5"}], "txid": "23b19632a0a395c143026eb500b6089b21dcbea6f60756d4158372a117a44371", "blocktime": 1537871767, "version": 1, "confirmations": 11491, "time": 1537871767, "locktime": 0, "vsize": 226, "size": 226}