{"hash": "5ff4546d82e5127b2b963639c82be9ee17ec588545f263ba707d41fabc6cda82", "blockhash": "00000000000000000017f5eb5941039fbcee6240d03bc1f2f8e35350df66a1d8", "vout": [{"scriptPubKey": {"reqSigs": 1, "hex": "76a9142e1b944fe7ffbe969fc1df8d662fd7b5d6303c9b88ac", "addresses": ["15Co856cRnFRCKwSSzECoyT3ozVhuFoJZ6"], "asm": "OP_DUP OP_HASH160 2e1b944fe7ffbe969fc1df8d662fd7b5d6303c9b OP_EQUALVERIFY OP_CHECKSIG", "type": "pubkeyhash"}, "value": 0.0024666, "n": 0}, {"scriptPubKey": {"reqSigs": 1, "hex": "a9140365e8fa224aabf0edf0de2baad68435d2acfa9187", "addresses": ["31zz2xLG32XSn5eQocSxsvrqvHwTijLzpD"], "asm": "OP_HASH160 0365e8fa224aabf0edf0de2baad68435d2acfa91 OP_EQUAL", "type": "scripthash"}, "value": 0.01009255, "n": 1}], "hex": "0200000000010293b8bc4f804486081a6f9ae271f137a4bcd29632a5f84f24ba29309861a07e1f0000000017160014ac9a9336af81d5f5f80cf2bca1d578d0f1377cc8feffffffa5ebdbd3d98228774007ff18c5e3bbb108122c4340b92b8bea3fad0c4b670cec090000001716001493663b9a162643b6284fff039fd5ce2115c51b17feffffff0284c30300000000001976a9142e1b944fe7ffbe969fc1df8d662fd7b5d6303c9b88ac67660f000000000017a9140365e8fa224aabf0edf0de2baad68435d2acfa918702483045022100c0243ea84668a3b2ba08ba242a67d914512f0f7a2952de143cd93adc16ee914a02205cf0bb406ddced4057b00abfb5f7f24e75d73fc4b13c93a2e0dfea4fbce87769012102e1bdcb0851eac95c6173d4c7cbc73d3d1da7df844fcd07967d078687ac2b557e02473044022038bb57a50fa91c6ace74f11271924dbe372c9c0a85b4f9d956237db235432a3402204644d4a633e13194d627565e9e0079eaee82a80fd23245076a49d7f93fca48df012103c84aec759fcd5c4999a719b33d59a8989634e04610d13d59e30013d487ee085715490800", "vin": [{"txinwitness": ["3045022100c0243ea84668a3b2ba08ba242a67d914512f0f7a2952de143cd93adc16ee914a02205cf0bb406ddced4057b00abfb5f7f24e75d73fc4b13c93a2e0dfea4fbce8776901", "02e1bdcb0851eac95c6173d4c7cbc73d3d1da7df844fcd07967d078687ac2b557e"], "sequence": 4294967294, "scriptSig": {"hex": "160014ac9a9336af81d5f5f80cf2bca1d578d0f1377cc8", "asm": "0014ac9a9336af81d5f5f80cf2bca1d578d0f1377cc8"}, "vout": 0, "txid": "1f7ea061983029ba244ff8a53296d2bca437f171e29a6f1a088644804fbcb893"}, {"txinwitness": ["3044022038bb57a50fa91c6ace74f11271924dbe372c9c0a85b4f9d956237db235432a3402204644d4a633e13194d627565e9e0079eaee82a80fd23245076a49d7f93fca48df01", "03c84aec759fcd5c4999a719b33d59a8989634e04610d13d59e30013d487ee0857"], "sequence": 4294967294, "scriptSig": {"hex": "16001493663b9a162643b6284fff039fd5ce2115c51b17", "asm": "001493663b9a162643b6284fff039fd5ce2115c51b17"}, "vout": 9, "txid": "ec0c674b0cad3fea8b2bb940432c1208b1bbe3c518ff0740772882d9d3dbeba5"}], "txid": "23b42c4ad50619b1b600e0af856e56b579ba007cfca42d50ca87e0ffae30ffa1", "blocktime": 1537874412, "version": 2, "confirmations": 11468, "time": 1537874412, "locktime": 542997, "vsize": 259, "size": 421}