{"hash": "23be9ca425938790b3095f610ed7f8a0955362962d643ff8b9dac23edd06f890", "blockhash": "0000000000000000000e13cef7c366c0283d82e591d1acd082e914b08063cdf1", "vout": [{"scriptPubKey": {"type": "nulldata", "hex": "6a4c50000077a6000180404a80dbc9af1eaeb491f9af6c953dd567cf27e7e3ef3236678a6250977f07dfeca2ad31ae70aa8be3759bed0d5baa0f6006145fadded470d61d100759d4ba30d2c37bb011d97e02cf", "asm": "OP_RETURN 000077a6000180404a80dbc9af1eaeb491f9af6c953dd567cf27e7e3ef3236678a6250977f07dfeca2ad31ae70aa8be3759bed0d5baa0f6006145fadded470d61d100759d4ba30d2c37bb011d97e02cf"}, "value": 0.0, "n": 0}, {"scriptPubKey": {"reqSigs": 1, "hex": "76a914a5d134d4f6c4a23225fb4fdd56e290ee139e8bd988ac", "addresses": ["1G7m7ZpCpVP7VGdkUW2S2NXENEQLEH6wSH"], "asm": "OP_DUP OP_HASH160 a5d134d4f6c4a23225fb4fdd56e290ee139e8bd9 OP_EQUALVERIFY OP_CHECKSIG", "type": "pubkeyhash"}, "value": 0.00648145, "n": 1}], "hex": "01000000011fffa707dda27d1b1de89959b95e0c4da94304b139671cc24a93fbfed691f02e000000006b4830450221008130550555f5c10a203b928b5be6d4812d55c2ac28358fd71d176923d9af546902200b56ee2a26b1afec69fc789d9a3b064214ca6639a73e400d06a7a4b3d248300801210213d571310da63416bd9b07f723cecc02950c35bf551a49471d013d31701ab71fffffffff020000000000000000536a4c50000077a6000180404a80dbc9af1eaeb491f9af6c953dd567cf27e7e3ef3236678a6250977f07dfeca2ad31ae70aa8be3759bed0d5baa0f6006145fadded470d61d100759d4ba30d2c37bb011d97e02cfd1e30900000000001976a914a5d134d4f6c4a23225fb4fdd56e290ee139e8bd988ac00000000", "vin": [{"sequence": 4294967295, "scriptSig": {"hex": "4830450221008130550555f5c10a203b928b5be6d4812d55c2ac28358fd71d176923d9af546902200b56ee2a26b1afec69fc789d9a3b064214ca6639a73e400d06a7a4b3d248300801210213d571310da63416bd9b07f723cecc02950c35bf551a49471d013d31701ab71f", "asm": "30450221008130550555f5c10a203b928b5be6d4812d55c2ac28358fd71d176923d9af546902200b56ee2a26b1afec69fc789d9a3b064214ca6639a73e400d06a7a4b3d2483008[ALL] 0213d571310da63416bd9b07f723cecc02950c35bf551a49471d013d31701ab71f"}, "vout": 0, "txid": "2ef091d6fefb934ac21c6739b10443a94d0c5eb95999e81d1b7da2dd07a7ff1f"}], "txid": "23be9ca425938790b3095f610ed7f8a0955362962d643ff8b9dac23edd06f890", "blocktime": 1537871767, "version": 1, "confirmations": 11495, "time": 1537871767, "locktime": 0, "vsize": 284, "size": 284}