{"hash": "23bfb0b52751fc47830509144f94e24c507b7a911390fc06d98e34c7dd7723bd", "blockhash": "0000000000000000001f76057863aec43deb6fa401d9628bb513d65a8098bfab", "vout": [{"scriptPubKey": {"reqSigs": 1, "hex": "76a91469b87bcd559388d5fb1055b8a5854a005f529f1488ac", "addresses": ["1AdzxHgPdxBqpqjYpfnyvNXMn5M1Q2SXkp"], "asm": "OP_DUP OP_HASH160 69b87bcd559388d5fb1055b8a5854a005f529f14 OP_EQUALVERIFY OP_CHECKSIG", "type": "pubkeyhash"}, "value": 0.00585219, "n": 0}], "hex": "01000000021ea0326ecab09b8419d3a89ef74c4e3fc7d9e990d4348ebe402749b8fc035129000000006a473044022024cb528ac372b0d9b3725113464accbf976ea9ec5450319e95e82277b1cd3c78022073ddfb0a41d9ad425e754b31c7a82535a31afb15dbda274ec3a0bce4c7564f66012102f3ba438f9616a8f70cb1556dd39be29f96d957bf88fb7323918b08bae1830c2affffffff51adecf2b82cc7b92e95692f9247a52ae46b2f5e9035dd13e108c1a0d38d95d5000000006a4730440220576841a51ae59d0ebd6a78b0d939676b2d1b55c702c87351d6f568bc242f038202205fd5d53299d328de3b6a7a98ba28fb2354059b1b445ca4c989da29465f136bb5012102fd01ccb1eacd7dbf5dfc683a538b71d5677d9efa3449c3ef7903418ac5543f6fffffffff0103ee0800000000001976a91469b87bcd559388d5fb1055b8a5854a005f529f1488ac00000000", "vin": [{"sequence": 4294967295, "scriptSig": {"hex": "473044022024cb528ac372b0d9b3725113464accbf976ea9ec5450319e95e82277b1cd3c78022073ddfb0a41d9ad425e754b31c7a82535a31afb15dbda274ec3a0bce4c7564f66012102f3ba438f9616a8f70cb1556dd39be29f96d957bf88fb7323918b08bae1830c2a", "asm": "3044022024cb528ac372b0d9b3725113464accbf976ea9ec5450319e95e82277b1cd3c78022073ddfb0a41d9ad425e754b31c7a82535a31afb15dbda274ec3a0bce4c7564f66[ALL] 02f3ba438f9616a8f70cb1556dd39be29f96d957bf88fb7323918b08bae1830c2a"}, "vout": 0, "txid": "295103fcb8492740be8e34d490e9d9c73f4e4cf79ea8d319849bb0ca6e32a01e"}, {"sequence": 4294967295, "scriptSig": {"hex": "4730440220576841a51ae59d0ebd6a78b0d939676b2d1b55c702c87351d6f568bc242f038202205fd5d53299d328de3b6a7a98ba28fb2354059b1b445ca4c989da29465f136bb5012102fd01ccb1eacd7dbf5dfc683a538b71d5677d9efa3449c3ef7903418ac5543f6f", "asm": "30440220576841a51ae59d0ebd6a78b0d939676b2d1b55c702c87351d6f568bc242f038202205fd5d53299d328de3b6a7a98ba28fb2354059b1b445ca4c989da29465f136bb5[ALL] 02fd01ccb1eacd7dbf5dfc683a538b71d5677d9efa3449c3ef7903418ac5543f6f"}, "vout": 0, "txid": "d5958dd3a0c108e113dd35905e2f6be42aa547922f69952eb9c72cb8f2ecad51"}], "txid": "23bfb0b52751fc47830509144f94e24c507b7a911390fc06d98e34c7dd7723bd", "blocktime": 1537873891, "version": 1, "confirmations": 11478, "time": 1537873891, "locktime": 0, "vsize": 338, "size": 338}