{"hash": "23c4b7f0354ccbf0f8b36f1b7dc549d56548214cd942bdf7f8bfa523d3189be1", "blockhash": "0000000000000000000baef3f32e3676a92c3b2e5da21b426e4f302fc371ce76", "vout": [{"scriptPubKey": {"reqSigs": 1, "hex": "a914678a5313c8d5e215d12766566b0e48489cd85b1587", "addresses": ["3B8VEFwki5UpfWNu2pPqjCsVseQCkShu1U"], "asm": "OP_HASH160 678a5313c8d5e215d12766566b0e48489cd85b15 OP_EQUAL", "type": "scripthash"}, "value": 0.0018, "n": 0}, {"scriptPubKey": {"reqSigs": 1, "hex": "76a914b7888cc82fdecaf88856880550ac43fe948b8cae88ac", "addresses": ["1HjSEm71Kqt31Va9JhJk2SvztwotZkQJFN"], "asm": "OP_DUP OP_HASH160 b7888cc82fdecaf88856880550ac43fe948b8cae OP_EQUALVERIFY OP_CHECKSIG", "type": "pubkeyhash"}, "value": 0.00398622, "n": 1}], "hex": "0200000001f6a735e1051440b1c45e6e0a6a0d731201db3a7c034804ac06d0880cc835e191010000006a47304402206b57459d88d493a35fc6f913a95602f4643ffb7e71521fc3bd6ffc0729303938022079ea265cdf456aec5216a2ca15389572abfc7a84bc1b0e1dc520c02013e27075012103f64d18070174a7d64ec0b63a2cf11fcf39cd553907cc09a47a94df2f3b817aecffffffff0220bf02000000000017a914678a5313c8d5e215d12766566b0e48489cd85b15871e150600000000001976a914b7888cc82fdecaf88856880550ac43fe948b8cae88ac00000000", "vin": [{"sequence": 4294967295, "scriptSig": {"hex": "47304402206b57459d88d493a35fc6f913a95602f4643ffb7e71521fc3bd6ffc0729303938022079ea265cdf456aec5216a2ca15389572abfc7a84bc1b0e1dc520c02013e27075012103f64d18070174a7d64ec0b63a2cf11fcf39cd553907cc09a47a94df2f3b817aec", "asm": "304402206b57459d88d493a35fc6f913a95602f4643ffb7e71521fc3bd6ffc0729303938022079ea265cdf456aec5216a2ca15389572abfc7a84bc1b0e1dc520c02013e27075[ALL] 03f64d18070174a7d64ec0b63a2cf11fcf39cd553907cc09a47a94df2f3b817aec"}, "vout": 1, "txid": "91e135c80c88d006ac0448037c3adb0112730d6a0a6e5ec4b1401405e135a7f6"}], "txid": "23c4b7f0354ccbf0f8b36f1b7dc549d56548214cd942bdf7f8bfa523d3189be1", "blocktime": 1537876114, "version": 2, "confirmations": 11459, "time": 1537876114, "locktime": 0, "vsize": 223, "size": 223}