{"hash": "23c589bb549ceeb765bd364459ad62618a2752af991047a21b695bf74f081a2b", "blockhash": "0000000000000000000dcc0f55137456b1a82d3642486a52398922ac4d620174", "vout": [{"scriptPubKey": {"reqSigs": 1, "hex": "76a91438b5a587b17296f9619ad907b3f9db7870eb33f088ac", "addresses": ["16ArSme828fdn6bSzNJ1uheZTWyG4jgPZn"], "asm": "OP_DUP OP_HASH160 38b5a587b17296f9619ad907b3f9db7870eb33f0 OP_EQUALVERIFY OP_CHECKSIG", "type": "pubkeyhash"}, "value": 0.000337, "n": 0}, {"scriptPubKey": {"reqSigs": 1, "hex": "76a914acd573f5eb6573a8b81f5c859132fdd12e4215a188ac", "addresses": ["1Gkrvy6urWwrmnQ6Pnu3VLRc1temtb1Sv8"], "asm": "OP_DUP OP_HASH160 acd573f5eb6573a8b81f5c859132fdd12e4215a1 OP_EQUALVERIFY OP_CHECKSIG", "type": "pubkeyhash"}, "value": 0.01925775, "n": 1}], "hex": "01000000015f81d58fc6e6b620e125ce3ad9778f30b9636d945b3adb1e41bb13faee7927c1010000006a4730440220203ec74e4f90a2fa7ae3e45594cea2167f4a3045b1c06c285ed57f9b879e2a6f022074dc97d12d5393f9f1aa85c773e3bb944759642f7c6ac4762d887259e1b4e866012102cb14237cab45760805fa481d4cb7fea0ceaedfbcde022458cf26301f8cd2d7afffffffff02a4830000000000001976a91438b5a587b17296f9619ad907b3f9db7870eb33f088ac8f621d00000000001976a914acd573f5eb6573a8b81f5c859132fdd12e4215a188ac00000000", "vin": [{"sequence": 4294967295, "scriptSig": {"hex": "4730440220203ec74e4f90a2fa7ae3e45594cea2167f4a3045b1c06c285ed57f9b879e2a6f022074dc97d12d5393f9f1aa85c773e3bb944759642f7c6ac4762d887259e1b4e866012102cb14237cab45760805fa481d4cb7fea0ceaedfbcde022458cf26301f8cd2d7af", "asm": "30440220203ec74e4f90a2fa7ae3e45594cea2167f4a3045b1c06c285ed57f9b879e2a6f022074dc97d12d5393f9f1aa85c773e3bb944759642f7c6ac4762d887259e1b4e866[ALL] 02cb14237cab45760805fa481d4cb7fea0ceaedfbcde022458cf26301f8cd2d7af"}, "vout": 1, "txid": "c12779eefa13bb411edb3a5b946d63b9308f77d93ace25e120b6e6c68fd5815f"}], "txid": "23c589bb549ceeb765bd364459ad62618a2752af991047a21b695bf74f081a2b", "blocktime": 1537870268, "version": 1, "confirmations": 11517, "time": 1537870268, "locktime": 0, "vsize": 225, "size": 225}