{"hash": "23cbea8c1085d9005b658a89a4cca8df3148e4c3400d85eac24a98fa0be4a334", "blockhash": "00000000000000000004ffacab907a6b429b9a5745fa0b75af4234bf69dd7176", "vout": [{"scriptPubKey": {"reqSigs": 1, "hex": "76a914ea9c831b52c211f357fb7c93f7c6a07475d7664888ac", "addresses": ["1NPWcYSnykbysrSwLrzjZewZHubocrJ9XZ"], "asm": "OP_DUP OP_HASH160 ea9c831b52c211f357fb7c93f7c6a07475d76648 OP_EQUALVERIFY OP_CHECKSIG", "type": "pubkeyhash"}, "value": 0.002158, "n": 0}, {"scriptPubKey": {"reqSigs": 1, "hex": "76a914ae10a4b6fcf1dfc9010b0ec180be35725250b7f388ac", "addresses": ["1GsNWnSL6Wu3R8JY5sj49QMToDijP4F4bR"], "asm": "OP_DUP OP_HASH160 ae10a4b6fcf1dfc9010b0ec180be35725250b7f3 OP_EQUALVERIFY OP_CHECKSIG", "type": "pubkeyhash"}, "value": 0.04421289, "n": 1}], "hex": "0100000001b98d5cdcd1504a8c65b4dc1091bbbd2932abfe7234d0d38bab20742b73319acd010000006a47304402206d4d4a3585cede8f8ee868a366d47187485078fc338753b7f89d7cd8c6a9f95c0220180736415933d3de51c43eae9f928a42845ba87464bff15a5baedffaf81ee6e701210310bf8a2889fa1ee95c7e973b851574f4cfc8212ee0e845b8259a9034f967ed80ffffffff02f84a0300000000001976a914ea9c831b52c211f357fb7c93f7c6a07475d7664888aca9764300000000001976a914ae10a4b6fcf1dfc9010b0ec180be35725250b7f388ac00000000", "vin": [{"sequence": 4294967295, "scriptSig": {"hex": "47304402206d4d4a3585cede8f8ee868a366d47187485078fc338753b7f89d7cd8c6a9f95c0220180736415933d3de51c43eae9f928a42845ba87464bff15a5baedffaf81ee6e701210310bf8a2889fa1ee95c7e973b851574f4cfc8212ee0e845b8259a9034f967ed80", "asm": "304402206d4d4a3585cede8f8ee868a366d47187485078fc338753b7f89d7cd8c6a9f95c0220180736415933d3de51c43eae9f928a42845ba87464bff15a5baedffaf81ee6e7[ALL] 0310bf8a2889fa1ee95c7e973b851574f4cfc8212ee0e845b8259a9034f967ed80"}, "vout": 1, "txid": "cd9a31732b7420ab8bd3d03472feab3229bdbb9110dcb4658c4a50d1dc5c8db9"}], "txid": "23cbea8c1085d9005b658a89a4cca8df3148e4c3400d85eac24a98fa0be4a334", "blocktime": 1537875543, "version": 1, "confirmations": 11464, "time": 1537875543, "locktime": 0, "vsize": 225, "size": 225}