{"hash": "5f00eeed6a90d3bfd55ced0f379fe1f75d21054a605699ae81129603e5b9483c", "blockhash": "0000000000000000000dcc0f55137456b1a82d3642486a52398922ac4d620174", "vout": [{"scriptPubKey": {"reqSigs": 1, "hex": "00206a39ecff30cfc82bcf788c3588cf3a32d75f1a06b5290e4a079f6d576f4f1f53", "addresses": ["bc1qdgu7eleselyzhnmc3s6c3ne6xtt47xsxk55sujs8nak4wm60rafs0yzlxj"], "asm": "0 6a39ecff30cfc82bcf788c3588cf3a32d75f1a06b5290e4a079f6d576f4f1f53", "type": "witness_v0_scripthash"}, "value": 0.025, "n": 0}, {"scriptPubKey": {"reqSigs": 1, "hex": "001464279d6acd472240e9c1cf110a91aca52a26a00a", "addresses": ["bc1qvsne66kdgu3yp6wpeugs4ydv554zdgq29glhr5"], "asm": "0 64279d6acd472240e9c1cf110a91aca52a26a00a", "type": "witness_v0_keyhash"}, "value": 0.07126187, "n": 1}], "hex": "01000000000102948117bca6fe8e58245138a3ce54074e419a2bb941cb16d16e37aaaa139c89190000000000ffffffff908753463d038e32e8da0d02d99575aa90348559b63779ae565937da815245d50000000000ffffffff02a0252600000000002200206a39ecff30cfc82bcf788c3588cf3a32d75f1a06b5290e4a079f6d576f4f1f53abbc6c000000000016001464279d6acd472240e9c1cf110a91aca52a26a00a02483045022100f094fed180de46c80e517f4b34a1c24d10021a32c9c195e12445d16e061036e4022028aa66c6eda62eb0eeed3864475ca77e3e8131bdf509f7abee2e1910b56d349e012103474d68d3f92902afa043fbbbd2cb3d3568962a64b66d84ae7561cf48436c6a1a0247304402201f17d06dbd1fb8bee2cae9f8aa55bbe6f674fff5263221faccc919f44df9d33f02206d1fb45d03ec2817a6b0679fecd3ca9b97fb4b048b91f363c6df5d646ccdf556012102cff7977241709ddfbda21dbecfa49dd709e97d7b241fd073f3a541a4569bebc500000000", "vin": [{"txinwitness": ["3045022100f094fed180de46c80e517f4b34a1c24d10021a32c9c195e12445d16e061036e4022028aa66c6eda62eb0eeed3864475ca77e3e8131bdf509f7abee2e1910b56d349e01", "03474d68d3f92902afa043fbbbd2cb3d3568962a64b66d84ae7561cf48436c6a1a"], "sequence": 4294967295, "scriptSig": {"hex": "", "asm": ""}, "vout": 0, "txid": "19899c13aaaa376ed116cb41b92b9a414e0754cea3385124588efea6bc178194"}, {"txinwitness": ["304402201f17d06dbd1fb8bee2cae9f8aa55bbe6f674fff5263221faccc919f44df9d33f02206d1fb45d03ec2817a6b0679fecd3ca9b97fb4b048b91f363c6df5d646ccdf55601", "02cff7977241709ddfbda21dbecfa49dd709e97d7b241fd073f3a541a4569bebc5"], "sequence": 4294967295, "scriptSig": {"hex": "", "asm": ""}, "vout": 0, "txid": "d5455281da375956ae7937b659853490aa7595d9020ddae8328e033d46538790"}], "txid": "23cc8c4cd5519899a0f29acf7da149d0baee36fbaec1b44465918f622d83a189", "blocktime": 1537870268, "version": 1, "confirmations": 11518, "time": 1537870268, "locktime": 0, "vsize": 221, "size": 383}