{"hash": "13903c2aa1187f81ba08943f51151131cc0462856ff14319d698c8df1c70c182", "blockhash": "000000000000000000022b45ed06c6f4ccd3cf7fb5ba4856ebd2e58215665228", "vout": [{"scriptPubKey": {"reqSigs": 1, "hex": "76a91436ae3cd770550b7b2a09ab3fd94bb673cbc0eb2a88ac", "addresses": ["15z8Dc2P2csz8bWHLNgE3bx5KSDGrZ79Bm"], "asm": "OP_DUP OP_HASH160 36ae3cd770550b7b2a09ab3fd94bb673cbc0eb2a OP_EQUALVERIFY OP_CHECKSIG", "type": "pubkeyhash"}, "value": 1e-05, "n": 0}, {"scriptPubKey": {"reqSigs": 1, "hex": "0014ad7543c91f90f95da65a6e6e20517a37fec8bf24", "addresses": ["bc1q44658jgljru4mfj6dehzq5t6xllv30eycelcpu"], "asm": "0 ad7543c91f90f95da65a6e6e20517a37fec8bf24", "type": "witness_v0_keyhash"}, "value": 0.01234247, "n": 1}], "hex": "0200000000010120fd2e895bdeb2e862939dd0a1ec29b7af1ab0964eee88d49a6c5371796166b10000000000feffffff02e8030000000000001976a91436ae3cd770550b7b2a09ab3fd94bb673cbc0eb2a88ac47d5120000000000160014ad7543c91f90f95da65a6e6e20517a37fec8bf24024730440220352995284d893efd5e70cf0e0d4ad9d91b190d45362bb4694e2d855085d21cad02205c133ff11617e2ddb28fc03d5764448b3e757df5627da885beca4589851b3458012103e4b409a1fa9fe629edf1c167ca973c9a8e0a671feb99b21e69e38a494232e9330b490800", "vin": [{"txinwitness": ["30440220352995284d893efd5e70cf0e0d4ad9d91b190d45362bb4694e2d855085d21cad02205c133ff11617e2ddb28fc03d5764448b3e757df5627da885beca4589851b345801", "03e4b409a1fa9fe629edf1c167ca973c9a8e0a671feb99b21e69e38a494232e933"], "sequence": 4294967294, "scriptSig": {"hex": "", "asm": ""}, "vout": 0, "txid": "b166617971536c9ad488ee4e96b01aafb729eca1d09d9362e8b2de5b892efd20"}], "txid": "23cfadec6cb2b1e4b3587d2a39e539405ee87bdce6fbaa018696bc71dd0a4ca9", "blocktime": 1537869901, "version": 2, "confirmations": 11524, "time": 1537869901, "locktime": 542987, "vsize": 144, "size": 225}