{"hash": "23d0367a5aaa1ea735f9cadc9847eba889c748a16095c5ff59e1d42c88e00031", "blockhash": "00000000000000000024a2167bbff67b0be802c0b01cdd79e6331c2be6459f87", "vout": [{"scriptPubKey": {"reqSigs": 1, "hex": "76a914eb49658cc585f336358d27019d5dcbf04a83f99488ac", "addresses": ["1NT5imi4Yq4PQF53Mjfa5nBCYJYp1watUz"], "asm": "OP_DUP OP_HASH160 eb49658cc585f336358d27019d5dcbf04a83f994 OP_EQUALVERIFY OP_CHECKSIG", "type": "pubkeyhash"}, "value": 1.40410676, "n": 0}, {"scriptPubKey": {"reqSigs": 1, "hex": "a9145edab2bb9cef4178de702ecad7c2c308e10bedde87", "addresses": ["3ALZRzTQBNKevass5UcKiw4GQWujKumB1z"], "asm": "OP_HASH160 5edab2bb9cef4178de702ecad7c2c308e10bedde OP_EQUAL", "type": "scripthash"}, "value": 0.2, "n": 1}], "hex": "01000000016d51fd2ff8dc78dafaaa33046a7093c7d34d0cd665bc96dace5e3f0ffd53b9f0010000006a473044022070bf24cc0c55b9acfa27758d6a896623c0af42a2e89375986fbf7185a1389555022009c5486540492aa74d0a6da5ba0dc6a2c99fc1ac54edd8ab6005b3ef6a7b512d01210262a73a760c6ef3225cede6d68f8d571e06672525e36ffa9555a67846edaa6570ffffffff02347f5e08000000001976a914eb49658cc585f336358d27019d5dcbf04a83f99488ac002d31010000000017a9145edab2bb9cef4178de702ecad7c2c308e10bedde8700000000", "vin": [{"sequence": 4294967295, "scriptSig": {"hex": "473044022070bf24cc0c55b9acfa27758d6a896623c0af42a2e89375986fbf7185a1389555022009c5486540492aa74d0a6da5ba0dc6a2c99fc1ac54edd8ab6005b3ef6a7b512d01210262a73a760c6ef3225cede6d68f8d571e06672525e36ffa9555a67846edaa6570", "asm": "3044022070bf24cc0c55b9acfa27758d6a896623c0af42a2e89375986fbf7185a1389555022009c5486540492aa74d0a6da5ba0dc6a2c99fc1ac54edd8ab6005b3ef6a7b512d[ALL] 0262a73a760c6ef3225cede6d68f8d571e06672525e36ffa9555a67846edaa6570"}, "vout": 1, "txid": "f0b953fd0f3f5eceda96bc65d60c4dd3c793706a0433aafada78dcf82ffd516d"}], "txid": "23d0367a5aaa1ea735f9cadc9847eba889c748a16095c5ff59e1d42c88e00031", "blocktime": 1537870564, "version": 1, "confirmations": 11515, "time": 1537870564, "locktime": 0, "vsize": 223, "size": 223}