{"hash": "e2cbebf731d9a89d124a733a65a61f048931ea1d6f6ed3d6faf9a3e968e8e65c", "blockhash": "000000000000000000022b45ed06c6f4ccd3cf7fb5ba4856ebd2e58215665228", "vout": [{"scriptPubKey": {"reqSigs": 1, "hex": "a9147859c69c70c70f3cd9a90160f732aa78ec38541b87", "addresses": ["3CfNZJBY1e5GvWUAHpLHKULGKGYaFA12gL"], "asm": "OP_HASH160 7859c69c70c70f3cd9a90160f732aa78ec38541b OP_EQUAL", "type": "scripthash"}, "value": 0.01033877, "n": 0}, {"scriptPubKey": {"reqSigs": 1, "hex": "76a9147dda121435f371f99b4f6d1c534f50a1c16e07e988ac", "addresses": ["1CUShntVyi8JMrUtWRpfkvAQDGpNXSpmqg"], "asm": "OP_DUP OP_HASH160 7dda121435f371f99b4f6d1c534f50a1c16e07e9 OP_EQUALVERIFY OP_CHECKSIG", "type": "pubkeyhash"}, "value": 0.0022696, "n": 1}], "hex": "02000000000102b66ad87320964ea37b24796b43c50bbda9077819f1bd46c141e39c21317717e70b00000017160014b4a8d7ed074262cbfbf513f44452b1ddaa02cb7bfeffffffcb2079b302428cf38a01dee6300c3210f5e5405fcf26e1f4ffdd929d08b2c1f80100000017160014c5b660404ac908737f1858c512f75c0abe200249feffffff0295c60f000000000017a9147859c69c70c70f3cd9a90160f732aa78ec38541b8790760300000000001976a9147dda121435f371f99b4f6d1c534f50a1c16e07e988ac02483045022100ee410190861d84a1030353e9ede8a19f1da4ce61a8c41470037ced72116980ff02207ef2f32913c047228a034592c63254de8d9a9190242ca481f9d83b7fefeef97401210239fae49205247132b7b8e76f6c61eddf538b29382c4cefe82bc77afeffdf025002483045022100d1deff60d35b2cd3b0b1e9c6e0ddb196236ab6b3389f1d0249482e6d35c051ee022008e4ee66c8c7b5a2bf26a373affdcf4fed565927cd2234189e8b5207881384eb012102a79dd13cc4652c40983bd15f16d51e9b68a868bb6f57324411b24f94fa68b6ec0b490800", "vin": [{"txinwitness": ["3045022100ee410190861d84a1030353e9ede8a19f1da4ce61a8c41470037ced72116980ff02207ef2f32913c047228a034592c63254de8d9a9190242ca481f9d83b7fefeef97401", "0239fae49205247132b7b8e76f6c61eddf538b29382c4cefe82bc77afeffdf0250"], "sequence": 4294967294, "scriptSig": {"hex": "160014b4a8d7ed074262cbfbf513f44452b1ddaa02cb7b", "asm": "0014b4a8d7ed074262cbfbf513f44452b1ddaa02cb7b"}, "vout": 11, "txid": "e7177731219ce341c146bdf1197807a9bd0bc5436b79247ba34e962073d86ab6"}, {"txinwitness": ["3045022100d1deff60d35b2cd3b0b1e9c6e0ddb196236ab6b3389f1d0249482e6d35c051ee022008e4ee66c8c7b5a2bf26a373affdcf4fed565927cd2234189e8b5207881384eb01", "02a79dd13cc4652c40983bd15f16d51e9b68a868bb6f57324411b24f94fa68b6ec"], "sequence": 4294967294, "scriptSig": {"hex": "160014c5b660404ac908737f1858c512f75c0abe200249", "asm": "0014c5b660404ac908737f1858c512f75c0abe200249"}, "vout": 1, "txid": "f8c1b2089d92ddfff4e126cf5f40e5f510320c30e6de018af38c4202b37920cb"}], "txid": "23d6141a359d020790807159d8e1af78d537eac9d0a445bcb745e10afd66699e", "blocktime": 1537869901, "version": 2, "confirmations": 11524, "time": 1537869901, "locktime": 542987, "vsize": 259, "size": 422}