{"hash": "b6a8a0b558e2d94893d16a7da223edb8638fc751311797c8ddc346774ebe170e", "blockhash": "0000000000000000000e13cef7c366c0283d82e591d1acd082e914b08063cdf1", "vout": [{"scriptPubKey": {"reqSigs": 1, "hex": "a9147d039a8866123705a80fc668d7f1780b58dd0b8a87", "addresses": ["3D62hud9udTYn37bjWQ3DQJXaK3DvheN4q"], "asm": "OP_HASH160 7d039a8866123705a80fc668d7f1780b58dd0b8a OP_EQUAL", "type": "scripthash"}, "value": 0.01001675, "n": 0}, {"scriptPubKey": {"reqSigs": 1, "hex": "76a914aca300bdce1696f14baa906a691264b571c868e188ac", "addresses": ["1GjpVdoqLh9ZCWXCFBRN4AJDXmpJCQ1NG5"], "asm": "OP_DUP OP_HASH160 aca300bdce1696f14baa906a691264b571c868e1 OP_EQUALVERIFY OP_CHECKSIG", "type": "pubkeyhash"}, "value": 0.0026806, "n": 1}], "hex": "020000000001022392a5eca8971efaa28c41d09d4d022a5d755ec3bb41b2eda85469296336b62e0000000017160014f6d0dd0acdccd29f2a239c7893103454637e4616feffffff6cb4a98630f29c4a82e685df5c93cac7658f5d80e7bffed0539fa5b27277b7fb12000000171600144c08df226859dcc12cf20e6c4b54c2473d62ce5afeffffff02cb480f000000000017a9147d039a8866123705a80fc668d7f1780b58dd0b8a871c170400000000001976a914aca300bdce1696f14baa906a691264b571c868e188ac02483045022100fdf90fb1439bb384b5f1228aeb79f9d4557c4267b92406e2353b75679c62cdad0220530cdb32e3836cdb98ebb5b75439f6c0113e36ab20303fcabdfa0af25285719901210386241554d7175a689b38ddfc955f9431282b25fc2a2fb83210f72b4e6258129d02483045022100a0ffb509f84e84995a747a3ecac2d9a5998a38a94c7dbd5dcc41b39c2592911702205470b34586844c6bf3bf538b654db88e790491f264fce5acff852fef6ed8844f012102b35ba835bd9a1c712f0abc0c80921e124ba4cd5c486af38f8100fe160eee250310490800", "vin": [{"txinwitness": ["3045022100fdf90fb1439bb384b5f1228aeb79f9d4557c4267b92406e2353b75679c62cdad0220530cdb32e3836cdb98ebb5b75439f6c0113e36ab20303fcabdfa0af25285719901", "0386241554d7175a689b38ddfc955f9431282b25fc2a2fb83210f72b4e6258129d"], "sequence": 4294967294, "scriptSig": {"hex": "160014f6d0dd0acdccd29f2a239c7893103454637e4616", "asm": "0014f6d0dd0acdccd29f2a239c7893103454637e4616"}, "vout": 0, "txid": "2eb63663296954a8edb241bbc35e755d2a024d9dd0418ca2fa1e97a8eca59223"}, {"txinwitness": ["3045022100a0ffb509f84e84995a747a3ecac2d9a5998a38a94c7dbd5dcc41b39c2592911702205470b34586844c6bf3bf538b654db88e790491f264fce5acff852fef6ed8844f01", "02b35ba835bd9a1c712f0abc0c80921e124ba4cd5c486af38f8100fe160eee2503"], "sequence": 4294967294, "scriptSig": {"hex": "1600144c08df226859dcc12cf20e6c4b54c2473d62ce5a", "asm": "00144c08df226859dcc12cf20e6c4b54c2473d62ce5a"}, "vout": 18, "txid": "fbb77772b2a59f53d0febfe7805d8f65c7ca935cdf85e6824a9cf23086a9b46c"}], "txid": "23d774f11164fef83165d3b8905743ed8c10e450b516766e405c388643b9f55a", "blocktime": 1537871767, "version": 2, "confirmations": 11495, "time": 1537871767, "locktime": 542992, "vsize": 259, "size": 422}