{"hash": "9a92e4e58e81737486523c674172cc5ac18ef5fbe118c9236cb12d419ae61dcc", "blockhash": "0000000000000000001cda96e906b7601b7a6fb1a3b62bca570a9e5d8f4b3de1", "vout": [{"scriptPubKey": {"reqSigs": 1, "hex": "a9142fc3c5a581d31654d1e63c84d3748804abde29d387", "addresses": ["363aD3KLRTYuJ3BvH2kxacGFhNhNQBj8Kz"], "asm": "OP_HASH160 2fc3c5a581d31654d1e63c84d3748804abde29d3 OP_EQUAL", "type": "scripthash"}, "value": 0.00410078, "n": 0}, {"scriptPubKey": {"reqSigs": 1, "hex": "a9140136c10502ae5684e49b302f1af10f145f74b6b787", "addresses": ["31oSC7GvQMTZoouyNLBEHVRDhXEFbVhSmh"], "asm": "OP_HASH160 0136c10502ae5684e49b302f1af10f145f74b6b7 OP_EQUAL", "type": "scripthash"}, "value": 0.06552169, "n": 1}], "hex": "01000000000101f1111e8ce25807500dbef23f81e1b1e3adc1431d76340c356ce9570ee240e9860100000023220020efd02f10cc1074c68ec89b458572a71ce6bfc8a17595d8fde80232e47279444bffffffff02de4106000000000017a9142fc3c5a581d31654d1e63c84d3748804abde29d38769fa63000000000017a9140136c10502ae5684e49b302f1af10f145f74b6b7870400483045022100b196590e719362bcf91395e082ad6d8592fafa179982b75759e65a71f0456a40022039e44795a94a6c9c54e0a1ada9aec9a2a005176d4417f5dde85e01341017b18b0147304402204d3735ef298d92adbde8e82524a2e5669fbe4887e289f59864770800cae16257022036608a362251c17753be0a30fe253417e9ba486f3ab0533bca8cb9f97f9689c90147522103f985ea61f461801f3abc09ebed98ce7e20804639a64616f639f492883ea4e8d62103871fc2ca08e6950b38867e8e6a0e94ee625223d3aa0df5c65f414c6d784467e252ae00000000", "vin": [{"txinwitness": ["", "3045022100b196590e719362bcf91395e082ad6d8592fafa179982b75759e65a71f0456a40022039e44795a94a6c9c54e0a1ada9aec9a2a005176d4417f5dde85e01341017b18b01", "304402204d3735ef298d92adbde8e82524a2e5669fbe4887e289f59864770800cae16257022036608a362251c17753be0a30fe253417e9ba486f3ab0533bca8cb9f97f9689c901", "522103f985ea61f461801f3abc09ebed98ce7e20804639a64616f639f492883ea4e8d62103871fc2ca08e6950b38867e8e6a0e94ee625223d3aa0df5c65f414c6d784467e252ae"], "sequence": 4294967295, "scriptSig": {"hex": "220020efd02f10cc1074c68ec89b458572a71ce6bfc8a17595d8fde80232e47279444b", "asm": "0020efd02f10cc1074c68ec89b458572a71ce6bfc8a17595d8fde80232e47279444b"}, "vout": 1, "txid": "86e940e20e57e96c350c34761d43c1ade3b1e1813ff2be0d500758e28c1e11f1"}], "txid": "23dd08b05e25825530d042d8eecf5ba4a74a898b5a74c392c3d2200b65a074b0", "blocktime": 1537873282, "version": 1, "confirmations": 11485, "time": 1537873282, "locktime": 0, "vsize": 206, "size": 371}