{"hash": "23df0bd0245c4f425c733da2b1fdf0c42c135cb4e629a1518e1fb6a0992e8952", "blockhash": "00000000000000000017f5eb5941039fbcee6240d03bc1f2f8e35350df66a1d8", "vout": [{"scriptPubKey": {"reqSigs": 1, "hex": "76a914347b0dfe824edaecd395d04ba335e87ad086b8b088ac", "addresses": ["15nVYxs8yEywmFzLdrgNg6dQLn6P7GnHPn"], "asm": "OP_DUP OP_HASH160 347b0dfe824edaecd395d04ba335e87ad086b8b0 OP_EQUALVERIFY OP_CHECKSIG", "type": "pubkeyhash"}, "value": 8.23e-06, "n": 0}, {"scriptPubKey": {"reqSigs": 1, "hex": "a9146eac2fd0d2b9eedb69a56a5b1d904a0dbbfbf0e987", "addresses": ["3BnCXPi2VoYDW2qomYoj1ePu3mb7L4rDFN"], "asm": "OP_HASH160 6eac2fd0d2b9eedb69a56a5b1d904a0dbbfbf0e9 OP_EQUAL", "type": "scripthash"}, "value": 0.001, "n": 1}], "hex": "0100000003786bcc0a0819f06cb2d0d6d5f5a38e20416eb87b4ec80b08830e2a3e4870610d000000006b483045022100d8099951f0f0087fb36433a97201933a46bf70346811a4c849cdfa19e8267d59022010867ba151335e5cd841b85d1d5eebc63f1e579c225be4b9cf7e1d3aba2b570a0121024a6ed6211bf34780a765ee691973d41063e3e7e3bedf28574b593c34d5d70ef0ffffffff6ed4bda1101bc6d64f1486e360979af0de9fa03d1d6ffed01ee02d0458833d2b030000006b4830450221008199025dd74af518ef2b511b2cf69688c44e700b107317680d4904f7404b5bd202205e6eb9a2c7932fd8a4e15768d52e469bd68101cee6b40b40562a1adf1d19c91d01210305bde229db02ca9ddb1771192e57d36b793e0c18334ffda8402b3a2ab6565a3cffffffff6156f28031c0257a64bb46e7e36a03e05b1a1f47d2d908aac2d42e1d7d5ff2c9000000006b483045022100e984d09c04c370d432a5975d043a312cab458bcaa179f2318de9e0b352a0174a022076ea999b41cb8d246549252b3661b37d1eea9059f99547d8dd2e7d131ecf7a8f012103de68a8f8f3adc2be606cdb0df4b67861409c83b2892c5b683d911f974a0b5126ffffffff0237030000000000001976a914347b0dfe824edaecd395d04ba335e87ad086b8b088aca08601000000000017a9146eac2fd0d2b9eedb69a56a5b1d904a0dbbfbf0e98700000000", "vin": [{"sequence": 4294967295, "scriptSig": {"hex": "483045022100d8099951f0f0087fb36433a97201933a46bf70346811a4c849cdfa19e8267d59022010867ba151335e5cd841b85d1d5eebc63f1e579c225be4b9cf7e1d3aba2b570a0121024a6ed6211bf34780a765ee691973d41063e3e7e3bedf28574b593c34d5d70ef0", "asm": "3045022100d8099951f0f0087fb36433a97201933a46bf70346811a4c849cdfa19e8267d59022010867ba151335e5cd841b85d1d5eebc63f1e579c225be4b9cf7e1d3aba2b570a[ALL] 024a6ed6211bf34780a765ee691973d41063e3e7e3bedf28574b593c34d5d70ef0"}, "vout": 0, "txid": "0d6170483e2a0e83080bc84e7bb86e41208ea3f5d5d6d0b26cf019080acc6b78"}, {"sequence": 4294967295, "scriptSig": {"hex": "4830450221008199025dd74af518ef2b511b2cf69688c44e700b107317680d4904f7404b5bd202205e6eb9a2c7932fd8a4e15768d52e469bd68101cee6b40b40562a1adf1d19c91d01210305bde229db02ca9ddb1771192e57d36b793e0c18334ffda8402b3a2ab6565a3c", "asm": "30450221008199025dd74af518ef2b511b2cf69688c44e700b107317680d4904f7404b5bd202205e6eb9a2c7932fd8a4e15768d52e469bd68101cee6b40b40562a1adf1d19c91d[ALL] 0305bde229db02ca9ddb1771192e57d36b793e0c18334ffda8402b3a2ab6565a3c"}, "vout": 3, "txid": "2b3d8358042de01ed0fe6f1d3da09fdef09a9760e386144fd6c61b10a1bdd46e"}, {"sequence": 4294967295, "scriptSig": {"hex": "483045022100e984d09c04c370d432a5975d043a312cab458bcaa179f2318de9e0b352a0174a022076ea999b41cb8d246549252b3661b37d1eea9059f99547d8dd2e7d131ecf7a8f012103de68a8f8f3adc2be606cdb0df4b67861409c83b2892c5b683d911f974a0b5126", "asm": "3045022100e984d09c04c370d432a5975d043a312cab458bcaa179f2318de9e0b352a0174a022076ea999b41cb8d246549252b3661b37d1eea9059f99547d8dd2e7d131ecf7a8f[ALL] 03de68a8f8f3adc2be606cdb0df4b67861409c83b2892c5b683d911f974a0b5126"}, "vout": 0, "txid": "c9f25f7d1d2ed4c2aa08d9d2471f1a5be0036ae3e746bb647a25c03180f25661"}], "txid": "23df0bd0245c4f425c733da2b1fdf0c42c135cb4e629a1518e1fb6a0992e8952", "blocktime": 1537874412, "version": 1, "confirmations": 11468, "time": 1537874412, "locktime": 0, "vsize": 520, "size": 520}