{"hash": "ef4a7d2b1c91313f1c4ea9af9ec7da7640ff7fbde8eb4e201e89110f0b73c721", "blockhash": "00000000000000000017f5eb5941039fbcee6240d03bc1f2f8e35350df66a1d8", "vout": [{"scriptPubKey": {"reqSigs": 1, "hex": "76a914dbf5c830a448933f17651c478a8707c90ac183fb88ac", "addresses": ["1M43RF6ft9UMQYkiuGfiK4SbxVux8M3sz8"], "asm": "OP_DUP OP_HASH160 dbf5c830a448933f17651c478a8707c90ac183fb OP_EQUALVERIFY OP_CHECKSIG", "type": "pubkeyhash"}, "value": 0.00608298, "n": 0}], "hex": "01000000000101676b376ad177214c85dbc8673cc7a03e4d4408cb20557495b094f8622cb9f0550000000017160014653bca0c284bf7ef54d10e38b0511f073e28f21000000000012a480900000000001976a914dbf5c830a448933f17651c478a8707c90ac183fb88ac02483045022100ba7a45e4be7ab198da1097ee6e5e34602d0bcaa913b019cb68b6eba3c5b1fc070220342b689315a2d956ea7e09da8a2802455e11792707e387e2c20d9b32cbdbd20a012103e9040684be175d4b343d733441bf7aa09bff445a824a1cc4687ef93c821344ce00000000", "vin": [{"txinwitness": ["3045022100ba7a45e4be7ab198da1097ee6e5e34602d0bcaa913b019cb68b6eba3c5b1fc070220342b689315a2d956ea7e09da8a2802455e11792707e387e2c20d9b32cbdbd20a01", "03e9040684be175d4b343d733441bf7aa09bff445a824a1cc4687ef93c821344ce"], "sequence": 0, "scriptSig": {"hex": "160014653bca0c284bf7ef54d10e38b0511f073e28f210", "asm": "0014653bca0c284bf7ef54d10e38b0511f073e28f210"}, "vout": 0, "txid": "55f0b92c62f894b095745520cb08444d3ea0c73c67c8db854c2177d16a376b67"}], "txid": "23df09b2ee01acbb26b9d613fd85b93ae6af5a1ce7a6b1fe4e6e2606b5106e14", "blocktime": 1537874412, "version": 1, "confirmations": 11467, "time": 1537874412, "locktime": 0, "vsize": 136, "size": 218}