{"hash": "0c4b1d6cd500d4e71496c907e8772d5c93122486f2028dc0504902780ebc319a", "blockhash": "0000000000000000000e13cef7c366c0283d82e591d1acd082e914b08063cdf1", "vout": [{"scriptPubKey": {"reqSigs": 1, "hex": "a9146eafeee918841abb9260f79ea2354776badc016687", "addresses": ["3BnH1hd8mNv1Kaah23g5YoSLgAmX2Ho9PZ"], "asm": "OP_HASH160 6eafeee918841abb9260f79ea2354776badc0166 OP_EQUAL", "type": "scripthash"}, "value": 0.002308, "n": 0}, {"scriptPubKey": {"reqSigs": 1, "hex": "a914c73ab5106c65feef04d194a14b18664b3d875d5387", "addresses": ["3KrSimhSxD8WXSmBUkS4s2poZZaUr67VAk"], "asm": "OP_HASH160 c73ab5106c65feef04d194a14b18664b3d875d53 OP_EQUAL", "type": "scripthash"}, "value": 0.0886918, "n": 1}, {"scriptPubKey": {"reqSigs": 1, "hex": "a914aba304dca90cd2ef32ee4414b669664d0afd25c187", "addresses": ["3HLYm737Jtja4GKNYzntmiQnYS6rwTahCU"], "asm": "OP_HASH160 aba304dca90cd2ef32ee4414b669664d0afd25c1 OP_EQUAL", "type": "scripthash"}, "value": 2e-05, "n": 2}], "hex": "02000000000101d1a9c510869a2a60bc2713e9c46e46e2826a7e52268947899395edae9179d29d010000001716001454712cb78bd81087f8756b7e850c0a4056e7157bfeffffff03908503000000000017a9146eafeee918841abb9260f79ea2354776badc0166873c5587000000000017a914c73ab5106c65feef04d194a14b18664b3d875d5387d00700000000000017a914aba304dca90cd2ef32ee4414b669664d0afd25c18702473044022016a54b4ac8ada06d77241c01ac2b0509cfd512ca5e56dc439e341d5edf09243b02205b93b190e06999b36ecff226481d43cd0d11e137aeb12ad308d2188dd1943491012103242fac6bb621dd18efd11bd045a0b0efa6151d2bf8216d625295a00aa84c340110490800", "vin": [{"txinwitness": ["3044022016a54b4ac8ada06d77241c01ac2b0509cfd512ca5e56dc439e341d5edf09243b02205b93b190e06999b36ecff226481d43cd0d11e137aeb12ad308d2188dd194349101", "03242fac6bb621dd18efd11bd045a0b0efa6151d2bf8216d625295a00aa84c3401"], "sequence": 4294967294, "scriptSig": {"hex": "16001454712cb78bd81087f8756b7e850c0a4056e7157b", "asm": "001454712cb78bd81087f8756b7e850c0a4056e7157b"}, "vout": 1, "txid": "9dd27991aeed959389478926527e6a82e2466ec4e91327bc602a9a8610c5a9d1"}], "txid": "23e26d9e211debebd33caabeeb4c270605cc7f02358508d73f249b31b4c6ae33", "blocktime": 1537871767, "version": 2, "confirmations": 11491, "time": 1537871767, "locktime": 542992, "vsize": 198, "size": 279}