{"hash": "68eeea6796cc0a286c809605409c446ebde2ee6e84716bc4d760e963533f5541", "blockhash": "00000000000000000017f5eb5941039fbcee6240d03bc1f2f8e35350df66a1d8", "vout": [{"scriptPubKey": {"reqSigs": 1, "hex": "a91469f3756f0178a0648e723740ff151f5d8dad449c87", "addresses": ["3BMEXVeVLFigwLzDdsftZFrpXiYgGUCBB3"], "asm": "OP_HASH160 69f3756f0178a0648e723740ff151f5d8dad449c OP_EQUAL", "type": "scripthash"}, "value": 0.63072577, "n": 0}], "hex": "01000000000101424df8421c640ebfeeb400a379a8d3e34906f28e456d3c723b58ca7c1e2299da0300000017160014f26e3f0c4c6a5317cad09ea95e72469279a1594dffffffff014169c2030000000017a91469f3756f0178a0648e723740ff151f5d8dad449c8702483045022100fd08383159a99590f15223b9fbc6f2d223bd0d3d43f8c747f33f0f59734c6efd02201272ad4e4e078160e3fbbfebd2f9b101c20966b94f688b33bbdc1986b1fc635f012102a140ccf58f777669c8ed6a29ecd64be5d2dea4ba1739b5290e9fee6dd4d0d3ae00000000", "vin": [{"txinwitness": ["3045022100fd08383159a99590f15223b9fbc6f2d223bd0d3d43f8c747f33f0f59734c6efd02201272ad4e4e078160e3fbbfebd2f9b101c20966b94f688b33bbdc1986b1fc635f01", "02a140ccf58f777669c8ed6a29ecd64be5d2dea4ba1739b5290e9fee6dd4d0d3ae"], "sequence": 4294967295, "scriptSig": {"hex": "160014f26e3f0c4c6a5317cad09ea95e72469279a1594d", "asm": "0014f26e3f0c4c6a5317cad09ea95e72469279a1594d"}, "vout": 3, "txid": "da99221e7cca583b723c6d458ef20649e3d3a879a300b4eebf0e641c42f84d42"}], "txid": "23e7ae317791d343572e848bdb68abd820c7663f2fb6f0ff896b95fedf58e526", "blocktime": 1537874412, "version": 1, "confirmations": 11468, "time": 1537874412, "locktime": 0, "vsize": 134, "size": 216}