{"hash": "23e958785a0b8ad2db75ae46ccdd220d474f5fe2ca13174794b52f75b19efc24", "blockhash": "0000000000000000001e0dab787dd257d1dbfcb92a98c2207d5e1078be1f4165", "vout": [{"scriptPubKey": {"reqSigs": 1, "hex": "001423ac7c3260ffa36111a63b85962bb5b5b706aebe", "addresses": ["bc1qywk8cvnql73kzydx8wzev2a4kkmsdt47dcxhx0"], "asm": "0 23ac7c3260ffa36111a63b85962bb5b5b706aebe", "type": "witness_v0_keyhash"}, "value": 0.00473541, "n": 0}, {"scriptPubKey": {"reqSigs": 1, "hex": "a914885ab90e35d48fb7937817792e46f3dca19e5ee087", "addresses": ["3E7zWAipcayREf8wsrw3xjdJKCQtR5hpxE"], "asm": "OP_HASH160 885ab90e35d48fb7937817792e46f3dca19e5ee0 OP_EQUAL", "type": "scripthash"}, "value": 0.01638, "n": 1}], "hex": "01000000010d3988778ebde01363f3fa7c70a733a355ccbdc3a18283761612b2fd05d24f23030000006a47304402205cb241318113d680d4aaf7d371214289d020c0c29aa79d9288ac4e8a3750e5b6022024160fecebcdedd1364669a9cb3ca4ffe54cb96e82bcf3907709da2ad8dde942012103ae73f507d1ae530417e8f399618a682b6af6580909e71d7a722c4ddeb3bf0c42ffffffff02c53907000000000016001423ac7c3260ffa36111a63b85962bb5b5b706aebe70fe18000000000017a914885ab90e35d48fb7937817792e46f3dca19e5ee08700000000", "vin": [{"sequence": 4294967295, "scriptSig": {"hex": "47304402205cb241318113d680d4aaf7d371214289d020c0c29aa79d9288ac4e8a3750e5b6022024160fecebcdedd1364669a9cb3ca4ffe54cb96e82bcf3907709da2ad8dde942012103ae73f507d1ae530417e8f399618a682b6af6580909e71d7a722c4ddeb3bf0c42", "asm": "304402205cb241318113d680d4aaf7d371214289d020c0c29aa79d9288ac4e8a3750e5b6022024160fecebcdedd1364669a9cb3ca4ffe54cb96e82bcf3907709da2ad8dde942[ALL] 03ae73f507d1ae530417e8f399618a682b6af6580909e71d7a722c4ddeb3bf0c42"}, "vout": 3, "txid": "234fd205fdb21216768382a1c3bdcc55a333a7707cfaf36313e0bd8e7788390d"}], "txid": "23e958785a0b8ad2db75ae46ccdd220d474f5fe2ca13174794b52f75b19efc24", "blocktime": 1537872475, "version": 1, "confirmations": 11486, "time": 1537872475, "locktime": 0, "vsize": 220, "size": 220}