{"hash": "23ede1dc56e6d6b2bf87e3d520f76a99c180350c49508ed541c27cc3271d28f3", "blockhash": "0000000000000000001cda96e906b7601b7a6fb1a3b62bca570a9e5d8f4b3de1", "vout": [{"scriptPubKey": {"reqSigs": 1, "hex": "76a914db5c42c6e66d47b75f6d229b1191ec30ccc94c4588ac", "addresses": ["1LzsWQbuC9DF36YxhuKDWQSmE8rq8emskq"], "asm": "OP_DUP OP_HASH160 db5c42c6e66d47b75f6d229b1191ec30ccc94c45 OP_EQUALVERIFY OP_CHECKSIG", "type": "pubkeyhash"}, "value": 0.00748342, "n": 0}, {"scriptPubKey": {"reqSigs": 1, "hex": "76a9141fd94a532cec77e791750e809d10c84eace9157088ac", "addresses": ["13uQFYXtc5P5GteUxcB7zBVoSyHNYQ1xhs"], "asm": "OP_DUP OP_HASH160 1fd94a532cec77e791750e809d10c84eace91570 OP_EQUALVERIFY OP_CHECKSIG", "type": "pubkeyhash"}, "value": 0.04937164, "n": 1}], "hex": "0200000001b2be49aae6a69230d9b22877bd72e840502540dd622a4420a597582bff7718ac010000006b4830450221008b692154364c4ea6ed3c901ee64842461c1bc3b9c519601506afe04905923d9402201b7e0f9f29539df1a1436b2169c286970fd50e152322eb4321ef55606f4680950121033bed0a7947bdc21c224583d22f6fe349a54d6cc06f5acac5570b67b05cf40602ffffffff02366b0b00000000001976a914db5c42c6e66d47b75f6d229b1191ec30ccc94c4588accc554b00000000001976a9141fd94a532cec77e791750e809d10c84eace9157088ac00000000", "vin": [{"sequence": 4294967295, "scriptSig": {"hex": "4830450221008b692154364c4ea6ed3c901ee64842461c1bc3b9c519601506afe04905923d9402201b7e0f9f29539df1a1436b2169c286970fd50e152322eb4321ef55606f4680950121033bed0a7947bdc21c224583d22f6fe349a54d6cc06f5acac5570b67b05cf40602", "asm": "30450221008b692154364c4ea6ed3c901ee64842461c1bc3b9c519601506afe04905923d9402201b7e0f9f29539df1a1436b2169c286970fd50e152322eb4321ef55606f468095[ALL] 033bed0a7947bdc21c224583d22f6fe349a54d6cc06f5acac5570b67b05cf40602"}, "vout": 1, "txid": "ac1877ff2b5897a520442a62dd40255040e872bd7728b2d93092a6e6aa49beb2"}], "txid": "23ede1dc56e6d6b2bf87e3d520f76a99c180350c49508ed541c27cc3271d28f3", "blocktime": 1537873282, "version": 2, "confirmations": 11484, "time": 1537873282, "locktime": 0, "vsize": 226, "size": 226}