{"hash": "6949235e9176e4b7e7a5c7c1e0f63711edd24800e64a9b62dae29ec32e7cf773", "blockhash": "00000000000000000017f5eb5941039fbcee6240d03bc1f2f8e35350df66a1d8", "vout": [{"scriptPubKey": {"reqSigs": 1, "hex": "a9144bc4dfe719a88f9ccff1a826efe6bc26b970600687", "addresses": ["38beT25g7GN5xpnHdFK53refmAWjTCB47B"], "asm": "OP_HASH160 4bc4dfe719a88f9ccff1a826efe6bc26b9706006 OP_EQUAL", "type": "scripthash"}, "value": 0.00586685, "n": 0}, {"scriptPubKey": {"reqSigs": 1, "hex": "00145b52fe43f94edd3f751ead1f59ce0c05b6e92c42", "addresses": ["bc1qtdf0uslefmwn7ag74504nnsvqkmwjtzzxcn08k"], "asm": "0 5b52fe43f94edd3f751ead1f59ce0c05b6e92c42", "type": "witness_v0_keyhash"}, "value": 2.818e-05, "n": 1}], "hex": "01000000000101109225947b0bf20eab1884347fff5a0e9d3c05170aee5499b0b993d8cdf6a01b0100000017160014c99b51e4c83bfd62a3c734ad30337da93ce7068bffffffff02bdf308000000000017a9144bc4dfe719a88f9ccff1a826efe6bc26b970600687020b0000000000001600145b52fe43f94edd3f751ead1f59ce0c05b6e92c42024730440220510b79cb988c309d30fb327d9bfd7659010cb1dff22c4390db3773e2d023355e02203c2c2483bfbb92cd459d9a9afa34293d876f811cf44a7430fa676d7dabc5e80401210356d1412b0a3dc7d7ffece99e80c3dd9ea4a300e00ceb92458f82b7099ac0d56300000000", "vin": [{"txinwitness": ["30440220510b79cb988c309d30fb327d9bfd7659010cb1dff22c4390db3773e2d023355e02203c2c2483bfbb92cd459d9a9afa34293d876f811cf44a7430fa676d7dabc5e80401", "0356d1412b0a3dc7d7ffece99e80c3dd9ea4a300e00ceb92458f82b7099ac0d563"], "sequence": 4294967295, "scriptSig": {"hex": "160014c99b51e4c83bfd62a3c734ad30337da93ce7068b", "asm": "0014c99b51e4c83bfd62a3c734ad30337da93ce7068b"}, "vout": 1, "txid": "1ba0f6cdd893b9b09954ee0a17053c9d0e5aff7f348418ab0ef20b7b94259210"}], "txid": "24034742379a9a3ec47999b84d987564e8ed0945da8e7f1792295e5a28f95920", "blocktime": 1537874412, "version": 1, "confirmations": 11468, "time": 1537874412, "locktime": 0, "vsize": 165, "size": 246}