{"hash": "a06f212009d54dfa47ff94deeb6c52e222f768388b6b2d125a297f1d3e51a3a6", "blockhash": "000000000000000000022b45ed06c6f4ccd3cf7fb5ba4856ebd2e58215665228", "vout": [{"scriptPubKey": {"reqSigs": 1, "hex": "a9140eebd6da171263723b11b1b117286ce398a2afec87", "addresses": ["333uudRZ4KTjQy1eib1KUcAupQ9fMyxSo9"], "asm": "OP_HASH160 0eebd6da171263723b11b1b117286ce398a2afec OP_EQUAL", "type": "scripthash"}, "value": 0.00181747, "n": 0}, {"scriptPubKey": {"reqSigs": 1, "hex": "76a914eb0e6624340061d80d6650b0f1692b3a5a15fabd88ac", "addresses": ["1NRs3YHuL818RSWAfMQ9KDhGmwU7KpyfSY"], "asm": "OP_DUP OP_HASH160 eb0e6624340061d80d6650b0f1692b3a5a15fabd OP_EQUALVERIFY OP_CHECKSIG", "type": "pubkeyhash"}, "value": 0.01058455, "n": 1}, {"scriptPubKey": {"reqSigs": 1, "hex": "a9140d9577c447f433a2c84b2f8be998c9e76dbfbc5987", "addresses": ["32vqmFAc7TZWgB7f19XXP3D1RYVFjWbnxb"], "asm": "OP_HASH160 0d9577c447f433a2c84b2f8be998c9e76dbfbc59 OP_EQUAL", "type": "scripthash"}, "value": 0.01761889, "n": 2}], "hex": "02000000000102c94e8c74799a572d24733441d7acd5866318465b896cb2281c09bcbeded89f054b000000171600149689c98cbfadeb8ca7fc8393ec7c1c7a11c850befeffffffe869762007adc1a27fd499c26629d7a4f85ffa22bdfaecbdbd097e8365bbec83010000006b483045022100cd6b289e28065fdaf99c11fa00e308a62a72b39ae982e53721ccb53a43eebee2022074aa4d5af87dc3222af2d04fdcaad065e207cd991a413c24f660e3ec84cbac980121035130b9a1c2ca8fb29530f954491658e9fdec8797e0829d524575f942e7af7298feffffff03f3c502000000000017a9140eebd6da171263723b11b1b117286ce398a2afec8797261000000000001976a914eb0e6624340061d80d6650b0f1692b3a5a15fabd88ac61e21a000000000017a9140d9577c447f433a2c84b2f8be998c9e76dbfbc59870247304402207f8224ebb300cf24e4ba04824adec01d918075051d4c0a708fddb10a6546adf1022028f24d937a0fb2cbf21d7e2328392c23bb83d0316ec888c45975a915d05b6931012102355fd29586d108ee395d8cc0c2e646a716c6e33f244be28bed494fbb4a1e0b7f000b490800", "vin": [{"txinwitness": ["304402207f8224ebb300cf24e4ba04824adec01d918075051d4c0a708fddb10a6546adf1022028f24d937a0fb2cbf21d7e2328392c23bb83d0316ec888c45975a915d05b693101", "02355fd29586d108ee395d8cc0c2e646a716c6e33f244be28bed494fbb4a1e0b7f"], "sequence": 4294967294, "scriptSig": {"hex": "1600149689c98cbfadeb8ca7fc8393ec7c1c7a11c850be", "asm": "00149689c98cbfadeb8ca7fc8393ec7c1c7a11c850be"}, "vout": 75, "txid": "059fd8debebc091c28b26c895b46186386d5acd7413473242d579a79748c4ec9"}, {"sequence": 4294967294, "scriptSig": {"hex": "483045022100cd6b289e28065fdaf99c11fa00e308a62a72b39ae982e53721ccb53a43eebee2022074aa4d5af87dc3222af2d04fdcaad065e207cd991a413c24f660e3ec84cbac980121035130b9a1c2ca8fb29530f954491658e9fdec8797e0829d524575f942e7af7298", "asm": "3045022100cd6b289e28065fdaf99c11fa00e308a62a72b39ae982e53721ccb53a43eebee2022074aa4d5af87dc3222af2d04fdcaad065e207cd991a413c24f660e3ec84cbac98[ALL] 035130b9a1c2ca8fb29530f954491658e9fdec8797e0829d524575f942e7af7298"}, "vout": 1, "txid": "83ecbb65837e09bdbdecfabd22fa5ff8a4d72966c299d47fa2c1ad07207669e8"}], "txid": "24042945a6ad05991f76fc6a65320c4f6c04f75a2f5b80f3e6f325b1ddc72ffa", "blocktime": 1537869901, "version": 2, "confirmations": 11522, "time": 1537869901, "locktime": 542987, "vsize": 348, "size": 430}