{"hash": "24044bc6edd686cc0ef1ebdc1fb596ce78fb39a65e4630197bd8e78c01125d29", "blockhash": "0000000000000000000e13cef7c366c0283d82e591d1acd082e914b08063cdf1", "vout": [{"scriptPubKey": {"reqSigs": 1, "hex": "76a914d175fa253cd70b17acef3e4f36db40931a50956b88ac", "addresses": ["1L6XZHfViZ5mhBwJGGktJpXHLKKhsjwMUC"], "asm": "OP_DUP OP_HASH160 d175fa253cd70b17acef3e4f36db40931a50956b OP_EQUALVERIFY OP_CHECKSIG", "type": "pubkeyhash"}, "value": 0.00642746, "n": 0}, {"scriptPubKey": {"type": "nulldata", "hex": "6a4c50000077a40001bde60e8a7e5ee04753821c4faf6c953dd567cf27e7e3ef3236678a625097f15848981ab0ced815e9754ec69827bf5baa0edf0614369547476e541d100759d4ba30d2c37bb011d97e02cf", "asm": "OP_RETURN 000077a40001bde60e8a7e5ee04753821c4faf6c953dd567cf27e7e3ef3236678a625097f15848981ab0ced815e9754ec69827bf5baa0edf0614369547476e541d100759d4ba30d2c37bb011d97e02cf"}, "value": 0.0, "n": 1}], "hex": "01000000018081fcabd5162fafcf341798e308ec6039d0591445e2d2613306c69869f1a192000000006a47304402206de7b85073643dc6aca8b3eb88811549146ddb2d235939371684f2f2c1c2b3c402207f4a8ce6f310dad97befb3b9d28d56659ca4b045bd00cf7573f680f2e1cac916012103b9c35e35dd90b5f6e1492909e483d8dbce869745100d8565f865c209834345f8ffffffff02bace0900000000001976a914d175fa253cd70b17acef3e4f36db40931a50956b88ac0000000000000000536a4c50000077a40001bde60e8a7e5ee04753821c4faf6c953dd567cf27e7e3ef3236678a625097f15848981ab0ced815e9754ec69827bf5baa0edf0614369547476e541d100759d4ba30d2c37bb011d97e02cf00000000", "vin": [{"sequence": 4294967295, "scriptSig": {"hex": "47304402206de7b85073643dc6aca8b3eb88811549146ddb2d235939371684f2f2c1c2b3c402207f4a8ce6f310dad97befb3b9d28d56659ca4b045bd00cf7573f680f2e1cac916012103b9c35e35dd90b5f6e1492909e483d8dbce869745100d8565f865c209834345f8", "asm": "304402206de7b85073643dc6aca8b3eb88811549146ddb2d235939371684f2f2c1c2b3c402207f4a8ce6f310dad97befb3b9d28d56659ca4b045bd00cf7573f680f2e1cac916[ALL] 03b9c35e35dd90b5f6e1492909e483d8dbce869745100d8565f865c209834345f8"}, "vout": 0, "txid": "92a1f16998c6063361d2e2451459d03960ec08e3981734cfaf2f16d5abfc8180"}], "txid": "24044bc6edd686cc0ef1ebdc1fb596ce78fb39a65e4630197bd8e78c01125d29", "blocktime": 1537871767, "version": 1, "confirmations": 11495, "time": 1537871767, "locktime": 0, "vsize": 283, "size": 283}