{"hash": "2409b0dee87c2231ed7aea7ee4dfd50dc57d792d9167d51859074a8890676beb", "blockhash": "00000000000000000018f53835495a110e01622372bf6ae95dc86f2b0ab887b0", "vout": [{"scriptPubKey": {"reqSigs": 1, "hex": "76a91443445faf868b5844245295090f31529b37cbc87888ac", "addresses": ["178gBYeRGB3G1cmx7Y3bQFz6eZQmZrJmLB"], "asm": "OP_DUP OP_HASH160 43445faf868b5844245295090f31529b37cbc878 OP_EQUALVERIFY OP_CHECKSIG", "type": "pubkeyhash"}, "value": 0.03607127, "n": 0}], "hex": "020000000198d1bdc8676d035ca238feeb0de54cb1182c373c451df22aa0d01667f25a6abf010000006a4730440220177a4cd4ab0b755276b45752638d5b4a000ad4e539892aefd484bc0094ef83bd0220201473a07d748ea36ba23517ee78f76c31bf5f38e655dc756f8917255cf51a290121026ae97fbb64007fd5eea5b4049569749d4ae67dea7019dfe847a3e7c89f300af3ffffffff01570a3700000000001976a91443445faf868b5844245295090f31529b37cbc87888ac00000000", "vin": [{"sequence": 4294967295, "scriptSig": {"hex": "4730440220177a4cd4ab0b755276b45752638d5b4a000ad4e539892aefd484bc0094ef83bd0220201473a07d748ea36ba23517ee78f76c31bf5f38e655dc756f8917255cf51a290121026ae97fbb64007fd5eea5b4049569749d4ae67dea7019dfe847a3e7c89f300af3", "asm": "30440220177a4cd4ab0b755276b45752638d5b4a000ad4e539892aefd484bc0094ef83bd0220201473a07d748ea36ba23517ee78f76c31bf5f38e655dc756f8917255cf51a29[ALL] 026ae97fbb64007fd5eea5b4049569749d4ae67dea7019dfe847a3e7c89f300af3"}, "vout": 1, "txid": "bf6a5af26716d0a02af21d453c372c18b14ce50debfe38a25c036d67c8bdd198"}], "txid": "2409b0dee87c2231ed7aea7ee4dfd50dc57d792d9167d51859074a8890676beb", "blocktime": 1537870928, "version": 2, "confirmations": 11512, "time": 1537870928, "locktime": 0, "vsize": 191, "size": 191}