{"hash": "deb11dd0930b529e34ea0d999b0db1004ec296a0097381da2d43ccf7bb7be50d", "blockhash": "00000000000000000024a2167bbff67b0be802c0b01cdd79e6331c2be6459f87", "vout": [{"scriptPubKey": {"reqSigs": 1, "hex": "a914257b595f41a5e108d4c4bb2c3a4f73d5465fc08687", "addresses": ["357Ch63s45CkS9DxRBEEEtVDkHQEVQ3tbe"], "asm": "OP_HASH160 257b595f41a5e108d4c4bb2c3a4f73d5465fc086 OP_EQUAL", "type": "scripthash"}, "value": 0.01018982, "n": 0}, {"scriptPubKey": {"reqSigs": 1, "hex": "a91438ee4aeb7cd731c278244f0176ce0ca04521b2eb87", "addresses": ["36t3E9ffQBfenxrwkysEJuto7GJZcfdXsC"], "asm": "OP_HASH160 38ee4aeb7cd731c278244f0176ce0ca04521b2eb OP_EQUAL", "type": "scripthash"}, "value": 0.04126335, "n": 1}], "hex": "020000000001045d500b81072d828b3e8679e89099ca64f4286111edd7f47f90bb2e06f9fd459c75010000171600147df2a3142f74b5a513d5319e618e7a669383cbebfeffffffd16047be802825dd060f61af4f5b35afe311cdc1a8e1d9bc9ea0077a5823c680000000001716001427211e7552ed1efaca5f1b7ee0ed09ab2d7f985dfeffffffd6261bed681fcab633f87d956afba0255fd02a0d87b113dab92619708acaa0d300000000171600146a8457ccd5755188b5761cb8bbb9bc252efecb92fefffffffe8119f4c50478f2dabbb5c88cc85aa0610d6b06dcaa400db6b18f17a8db84560000000017160014f09bf18362d81e28f23ba9d06a3ce36a4991fc66feffffff02668c0f000000000017a914257b595f41a5e108d4c4bb2c3a4f73d5465fc086877ff63e000000000017a91438ee4aeb7cd731c278244f0176ce0ca04521b2eb8702473044022023b739fb22ace4e5ec812f3b5a5b4757e105f1664b39143f9bc37873b32cc5da02200244c484406022ae965861a18559abed57c8f7aa979c45917965fd71cb15abb10121034c80f8ffcbbc3eb345bdfafce697c3c7198ad40ac71785c5cec6fb1016007b4e02483045022100b63d693473169fc953da58e40681bbbd066e24efbf6084c53b96388173339d9b02202bc743746189911cfa03d3d35dbaaaff36a19e1db652ea29f17a04ab5679b63601210299d8c2308ef6bf73140c47bdde40735705bd1be030b17c985f31560e81d9915902483045022100aad8249b7a1984d771d0347381e56786836fc366c29b38a74c345d4b58a65bbd02205a7fee4ad72fa9953a518ffaaf3d5bf8d122c3bd0cdc5825763acd55b769adda012102141855137c1ea8f7099d79a34fb3fc2d44d6cbced0ea888e5643bf918ffc0dc402483045022100ce9338de68bc66563e0a4c8c36098028e8d4d1d2af1178d5701b3ebecf475c9302206324bf6b42f1a42c6ef115050e11db1a63b8c167a4abe07e0fa120820f5a6bb20121022033a95ffd9eb6ee1569b7e8929b3bdf41c352963847f29e057fda9d08124c380d490800", "vin": [{"txinwitness": ["3044022023b739fb22ace4e5ec812f3b5a5b4757e105f1664b39143f9bc37873b32cc5da02200244c484406022ae965861a18559abed57c8f7aa979c45917965fd71cb15abb101", "034c80f8ffcbbc3eb345bdfafce697c3c7198ad40ac71785c5cec6fb1016007b4e"], "sequence": 4294967294, "scriptSig": {"hex": "1600147df2a3142f74b5a513d5319e618e7a669383cbeb", "asm": "00147df2a3142f74b5a513d5319e618e7a669383cbeb"}, "vout": 373, "txid": "9c45fdf9062ebb907ff4d7ed116128f464ca9990e879863e8b822d07810b505d"}, {"txinwitness": ["3045022100b63d693473169fc953da58e40681bbbd066e24efbf6084c53b96388173339d9b02202bc743746189911cfa03d3d35dbaaaff36a19e1db652ea29f17a04ab5679b63601", "0299d8c2308ef6bf73140c47bdde40735705bd1be030b17c985f31560e81d99159"], "sequence": 4294967294, "scriptSig": {"hex": "16001427211e7552ed1efaca5f1b7ee0ed09ab2d7f985d", "asm": "001427211e7552ed1efaca5f1b7ee0ed09ab2d7f985d"}, "vout": 0, "txid": "80c623587a07a09ebcd9e1a8c1cd11e3af355b4faf610f06dd252880be4760d1"}, {"txinwitness": ["3045022100aad8249b7a1984d771d0347381e56786836fc366c29b38a74c345d4b58a65bbd02205a7fee4ad72fa9953a518ffaaf3d5bf8d122c3bd0cdc5825763acd55b769adda01", "02141855137c1ea8f7099d79a34fb3fc2d44d6cbced0ea888e5643bf918ffc0dc4"], "sequence": 4294967294, "scriptSig": {"hex": "1600146a8457ccd5755188b5761cb8bbb9bc252efecb92", "asm": "00146a8457ccd5755188b5761cb8bbb9bc252efecb92"}, "vout": 0, "txid": "d3a0ca8a701926b9da13b1870d2ad05f25a0fb6a957df833b6ca1f68ed1b26d6"}, {"txinwitness": ["3045022100ce9338de68bc66563e0a4c8c36098028e8d4d1d2af1178d5701b3ebecf475c9302206324bf6b42f1a42c6ef115050e11db1a63b8c167a4abe07e0fa120820f5a6bb201", "022033a95ffd9eb6ee1569b7e8929b3bdf41c352963847f29e057fda9d08124c38"], "sequence": 4294967294, "scriptSig": {"hex": "160014f09bf18362d81e28f23ba9d06a3ce36a4991fc66", "asm": "0014f09bf18362d81e28f23ba9d06a3ce36a4991fc66"}, "vout": 0, "txid": "5684dba8178fb1b60d40aadc066b0d61a05ac88cc8b5bbdaf27804c5f41981fe"}], "txid": "2413ea43f6ffab422221eb093391081b77c7bb83227c01bc090ea98c8bc62634", "blocktime": 1537870564, "version": 2, "confirmations": 11515, "time": 1537870564, "locktime": 542989, "vsize": 439, "size": 763}