{"hash": "723944b1b63072505bf4d6d59ac192d3e77508e79653af43fe266fb7b1b8b2e6", "blockhash": "00000000000000000004ffacab907a6b429b9a5745fa0b75af4234bf69dd7176", "vout": [{"scriptPubKey": {"reqSigs": 1, "hex": "a914b8a9a8ba8cf965b7df6b05afd948e53c351b2c0d87", "addresses": ["3JXRVxhrk2o9f4w3cQchBLwUeegJBj6BEp"], "asm": "OP_HASH160 b8a9a8ba8cf965b7df6b05afd948e53c351b2c0d OP_EQUAL", "type": "scripthash"}, "value": 0.33982486, "n": 0}, {"scriptPubKey": {"reqSigs": 1, "hex": "76a914450fd69933f91847a6d5f915d6e73d6b2d0a370a88ac", "addresses": ["17JAbhYGsaC2gnzh6FszuSFP3TNevq7bVY"], "asm": "OP_DUP OP_HASH160 450fd69933f91847a6d5f915d6e73d6b2d0a370a OP_EQUALVERIFY OP_CHECKSIG", "type": "pubkeyhash"}, "value": 0.0163, "n": 1}], "hex": "010000000001013da92600aa040e735d58dd74d91470ecaf42ebc6de30bb96f6b672b3fe651da8010000002322002065d416c48a8072e0ac51c2d111eb194f009caef0332446c1bf2097316cf07fa9ffffffff02168806020000000017a914b8a9a8ba8cf965b7df6b05afd948e53c351b2c0d8730df1800000000001976a914450fd69933f91847a6d5f915d6e73d6b2d0a370a88ac0400473044022100ce0de5378341d35c73d5ca7b1d7f796ae78c8d08267164807854c9f404f8402f021f51fc49769740424d208518e22c334783f09c67f882d8d6e050c3da3509a48501483045022100f23009cfe0339b7382bc9505929e82df5fd1327d8e7f271ee4000d21e04caa5f0220156d29cdabae6b1f2268826426d365b06918733c9e07ff52ff55c4608db053470169522102f44abcf9e23c9a460da309ccca56c619c04eed3bde2c2cff5e7d78fbcd980b9c2103c9443cf3047bb6c2c82f1b0c44c36109cdc3d0d601d16d1189a1602bf8d1a0a02103bfe867059274412412e088af5572b92168c2ef495cfe6c9b7a753a009eb37c4853ae00000000", "vin": [{"txinwitness": ["", "3044022100ce0de5378341d35c73d5ca7b1d7f796ae78c8d08267164807854c9f404f8402f021f51fc49769740424d208518e22c334783f09c67f882d8d6e050c3da3509a48501", "3045022100f23009cfe0339b7382bc9505929e82df5fd1327d8e7f271ee4000d21e04caa5f0220156d29cdabae6b1f2268826426d365b06918733c9e07ff52ff55c4608db0534701", "522102f44abcf9e23c9a460da309ccca56c619c04eed3bde2c2cff5e7d78fbcd980b9c2103c9443cf3047bb6c2c82f1b0c44c36109cdc3d0d601d16d1189a1602bf8d1a0a02103bfe867059274412412e088af5572b92168c2ef495cfe6c9b7a753a009eb37c4853ae"], "sequence": 4294967295, "scriptSig": {"hex": "22002065d416c48a8072e0ac51c2d111eb194f009caef0332446c1bf2097316cf07fa9", "asm": "002065d416c48a8072e0ac51c2d111eb194f009caef0332446c1bf2097316cf07fa9"}, "vout": 1, "txid": "a81d65feb372b6f696bb30dec6eb42afec7014d974dd585d730e04aa0026a93d"}], "txid": "241e4d6d5dd70da59ffe7cec2cbc376124bd4718ded9b5e368c29ed776d07e89", "blocktime": 1537875543, "version": 1, "confirmations": 11464, "time": 1537875543, "locktime": 0, "vsize": 216, "size": 407}