{"hash": "7744b33f88e612e7e971a6cd17a8f1ada8397bdab0d763de74203bb19afc190e", "blockhash": "00000000000000000018f53835495a110e01622372bf6ae95dc86f2b0ab887b0", "vout": [{"scriptPubKey": {"reqSigs": 1, "hex": "a9142ede2e622d565a6337ddec218a3c0b0801258ed187", "addresses": ["35xqAncwUU2iX3Y39YTy7CHvy7MEfiU5Cr"], "asm": "OP_HASH160 2ede2e622d565a6337ddec218a3c0b0801258ed1 OP_EQUAL", "type": "scripthash"}, "value": 0.01020736, "n": 0}, {"scriptPubKey": {"reqSigs": 1, "hex": "a9142701cd984e5e3c4fc90285bc122d4564a36b4a5087", "addresses": ["35FGSJmJZJGPhqz36PeGTgm8VFfitaHoxY"], "asm": "OP_HASH160 2701cd984e5e3c4fc90285bc122d4564a36b4a50 OP_EQUAL", "type": "scripthash"}, "value": 0.002457, "n": 1}], "hex": "02000000000101755d832d7afe503c2f032ef7bb6dad83d8d139ba6d9557d8bd9da002bd385a9400000000171600145ef5f0427d52f12f061421dcaafab70dbd458a46feffffff0240930f000000000017a9142ede2e622d565a6337ddec218a3c0b0801258ed187c4bf03000000000017a9142701cd984e5e3c4fc90285bc122d4564a36b4a5087024730440220635c88000f2d8ff230f82c371ea826e390bfd2231b4a0543ea0e6948a64d697f0220719489fb534bbdac3872a826e5a3f44c1ac49d432e66927f7cd6ef790172616b0121029a3f5c9550b853d59f3bf008726c2d7b19f5e472fb469d7be9e684094b7ef6310e490800", "vin": [{"txinwitness": ["30440220635c88000f2d8ff230f82c371ea826e390bfd2231b4a0543ea0e6948a64d697f0220719489fb534bbdac3872a826e5a3f44c1ac49d432e66927f7cd6ef790172616b01", "029a3f5c9550b853d59f3bf008726c2d7b19f5e472fb469d7be9e684094b7ef631"], "sequence": 4294967294, "scriptSig": {"hex": "1600145ef5f0427d52f12f061421dcaafab70dbd458a46", "asm": "00145ef5f0427d52f12f061421dcaafab70dbd458a46"}, "vout": 0, "txid": "945a38bd02a09dbdd857956dba39d1d883ad6dbbf72e032f3c50fe7a2d835d75"}], "txid": "24233fe75ce4e2d46501f5886d86d43bd7f969b69c3fe5ac77fcf23aca8e24d3", "blocktime": 1537870928, "version": 2, "confirmations": 11514, "time": 1537870928, "locktime": 542990, "vsize": 166, "size": 247}