{"hash": "2424e0d3eca6b7da05ce2ae69549503dcfd7402cca2cf37fdf1bc72d0c13aac9", "blockhash": "000000000000000000022b45ed06c6f4ccd3cf7fb5ba4856ebd2e58215665228", "vout": [{"scriptPubKey": {"reqSigs": 1, "hex": "76a9145c49235f84fd1df3798f835bfc34d65b9128306b88ac", "addresses": ["19QxnNvWFxqU1zj1r9D7F3vM9bpEzmsPf3"], "asm": "OP_DUP OP_HASH160 5c49235f84fd1df3798f835bfc34d65b9128306b OP_EQUALVERIFY OP_CHECKSIG", "type": "pubkeyhash"}, "value": 0.19366002, "n": 0}], "hex": "010000000153ed48d88d6c1022fc39721335d7b8ebd72e416c74f826b29ff33379b41e8008250000006b48304502210088c5bbdbd94688ed3bf8a4606912fba3ded7af763ac4c581388ab10e3f8163c402206c474284ef5babd2604541ef32fb52e7ab51f360d0f8a32e18cfd918ce29c1e0012102bc6c2604e1ecb8e8edab3fab2d5adb9d95ba107c92ca42c1c0663e7cbabc8af6ffffffff0172802701000000001976a9145c49235f84fd1df3798f835bfc34d65b9128306b88ac00000000", "vin": [{"sequence": 4294967295, "scriptSig": {"hex": "48304502210088c5bbdbd94688ed3bf8a4606912fba3ded7af763ac4c581388ab10e3f8163c402206c474284ef5babd2604541ef32fb52e7ab51f360d0f8a32e18cfd918ce29c1e0012102bc6c2604e1ecb8e8edab3fab2d5adb9d95ba107c92ca42c1c0663e7cbabc8af6", "asm": "304502210088c5bbdbd94688ed3bf8a4606912fba3ded7af763ac4c581388ab10e3f8163c402206c474284ef5babd2604541ef32fb52e7ab51f360d0f8a32e18cfd918ce29c1e0[ALL] 02bc6c2604e1ecb8e8edab3fab2d5adb9d95ba107c92ca42c1c0663e7cbabc8af6"}, "vout": 37, "txid": "08801eb47933f39fb226f8746c412ed7ebb8d735137239fc22106c8dd848ed53"}], "txid": "2424e0d3eca6b7da05ce2ae69549503dcfd7402cca2cf37fdf1bc72d0c13aac9", "blocktime": 1537869901, "version": 1, "confirmations": 11522, "time": 1537869901, "locktime": 0, "vsize": 192, "size": 192}