{"hash": "fba92603befe8d90996a8e3fa6c8ea3b05d6d54cc46197ab9569410b3b920911", "blockhash": "0000000000000000000e13cef7c366c0283d82e591d1acd082e914b08063cdf1", "vout": [{"scriptPubKey": {"reqSigs": 1, "hex": "76a914989ed7a09524089a66a0f9119aec7f90cba53e3988ac", "addresses": ["1EuyziRu6QhUSj7poT5SXM82fqGK8nmvS3"], "asm": "OP_DUP OP_HASH160 989ed7a09524089a66a0f9119aec7f90cba53e39 OP_EQUALVERIFY OP_CHECKSIG", "type": "pubkeyhash"}, "value": 0.00058396, "n": 0}, {"scriptPubKey": {"reqSigs": 1, "hex": "a9140136c10502ae5684e49b302f1af10f145f74b6b787", "addresses": ["31oSC7GvQMTZoouyNLBEHVRDhXEFbVhSmh"], "asm": "OP_HASH160 0136c10502ae5684e49b302f1af10f145f74b6b7 OP_EQUAL", "type": "scripthash"}, "value": 0.10909556, "n": 1}], "hex": "010000000001013e35ce3f28aa556d88791e504dad890264c79bd028e8b6ebbd6810ec9b0372080100000023220020efd02f10cc1074c68ec89b458572a71ce6bfc8a17595d8fde80232e47279444bffffffff021ce40000000000001976a914989ed7a09524089a66a0f9119aec7f90cba53e3988ac7477a6000000000017a9140136c10502ae5684e49b302f1af10f145f74b6b787040047304402204190e53a37accd0fe7a17502d4d1916fbfa3eaa292680886ab9c3fae3e242c63022057885ece26fbd35eaf0478699ae839ce34779ec9db0a72f493781ca58fc1c1b201483045022100b16a5638132ea6563ff49d3f1b745fb7a3fe65c030650612d65a55ac77a6e1bd022028befe582b1d4282e28424cc236158c5ca5cbe94484f7fbf9ff166a595bc92ef0147522103f985ea61f461801f3abc09ebed98ce7e20804639a64616f639f492883ea4e8d62103871fc2ca08e6950b38867e8e6a0e94ee625223d3aa0df5c65f414c6d784467e252ae00000000", "vin": [{"txinwitness": ["", "304402204190e53a37accd0fe7a17502d4d1916fbfa3eaa292680886ab9c3fae3e242c63022057885ece26fbd35eaf0478699ae839ce34779ec9db0a72f493781ca58fc1c1b201", "3045022100b16a5638132ea6563ff49d3f1b745fb7a3fe65c030650612d65a55ac77a6e1bd022028befe582b1d4282e28424cc236158c5ca5cbe94484f7fbf9ff166a595bc92ef01", "522103f985ea61f461801f3abc09ebed98ce7e20804639a64616f639f492883ea4e8d62103871fc2ca08e6950b38867e8e6a0e94ee625223d3aa0df5c65f414c6d784467e252ae"], "sequence": 4294967295, "scriptSig": {"hex": "220020efd02f10cc1074c68ec89b458572a71ce6bfc8a17595d8fde80232e47279444b", "asm": "0020efd02f10cc1074c68ec89b458572a71ce6bfc8a17595d8fde80232e47279444b"}, "vout": 1, "txid": "0872039bec1068bdebb6e828d09bc7640289ad4d501e79886d55aa283fce353e"}], "txid": "2424cce3065116579ee498620152f5ac5b6d20a9b4991bad672539d870d4320f", "blocktime": 1537871767, "version": 1, "confirmations": 11495, "time": 1537871767, "locktime": 0, "vsize": 208, "size": 373}