{"hash": "242be8c0bdc2b59dfc53730adc443c0b6a9e3671f8ac772c320984aa8bcf169a", "blockhash": "0000000000000000000dcc0f55137456b1a82d3642486a52398922ac4d620174", "vout": [{"scriptPubKey": {"reqSigs": 1, "hex": "76a9141bf4254c757092517cdea76d06cf3844639e71d688ac", "addresses": ["13YoiikkpBQMysxHDGHNbtzxAFgYCvzaDg"], "asm": "OP_DUP OP_HASH160 1bf4254c757092517cdea76d06cf3844639e71d6 OP_EQUALVERIFY OP_CHECKSIG", "type": "pubkeyhash"}, "value": 0.0224636, "n": 0}, {"scriptPubKey": {"type": "nulldata", "hex": "6a4c50000077780001218fe0c131c9cb554ebcc0f7bcbefa6b8351586b4e86aeaeacb577c031fc46b318260ec39ad45be181608e5683a85baa099c06143e7c6f71c449bc9a9526289ac0f6612cd74e33776ee4", "asm": "OP_RETURN 000077780001218fe0c131c9cb554ebcc0f7bcbefa6b8351586b4e86aeaeacb577c031fc46b318260ec39ad45be181608e5683a85baa099c06143e7c6f71c449bc9a9526289ac0f6612cd74e33776ee4"}, "value": 0.0, "n": 1}], "hex": "0100000001ec3f6e89035f838a0b73954f1ee44109c752ca1a9d61ade9d253b7c015d9d3a0000000006a47304402200a538011670c203d9cb38efcba388f6c0a11f4b4feef07c140c3b17593fc8a6202200d895953ecc05664d9f1389514e1fa17f70aff965a9a0911fbfa1de04e07b2ad01210374acc523c0f36e7755c6f8452d27734d6966c8e8de463d9561c481683c9a6539ffffffff02d8462200000000001976a9141bf4254c757092517cdea76d06cf3844639e71d688ac0000000000000000536a4c50000077780001218fe0c131c9cb554ebcc0f7bcbefa6b8351586b4e86aeaeacb577c031fc46b318260ec39ad45be181608e5683a85baa099c06143e7c6f71c449bc9a9526289ac0f6612cd74e33776ee400000000", "vin": [{"sequence": 4294967295, "scriptSig": {"hex": "47304402200a538011670c203d9cb38efcba388f6c0a11f4b4feef07c140c3b17593fc8a6202200d895953ecc05664d9f1389514e1fa17f70aff965a9a0911fbfa1de04e07b2ad01210374acc523c0f36e7755c6f8452d27734d6966c8e8de463d9561c481683c9a6539", "asm": "304402200a538011670c203d9cb38efcba388f6c0a11f4b4feef07c140c3b17593fc8a6202200d895953ecc05664d9f1389514e1fa17f70aff965a9a0911fbfa1de04e07b2ad[ALL] 0374acc523c0f36e7755c6f8452d27734d6966c8e8de463d9561c481683c9a6539"}, "vout": 0, "txid": "a0d3d915c0b753d2e9ad619d1aca52c70941e41e4f95730b8a835f03896e3fec"}], "txid": "242be8c0bdc2b59dfc53730adc443c0b6a9e3671f8ac772c320984aa8bcf169a", "blocktime": 1537870268, "version": 1, "confirmations": 11518, "time": 1537870268, "locktime": 0, "vsize": 283, "size": 283}