{"hash": "4aba9da0d2e4746b62ef20abbd5eaf5ab6d3ac8fb683f310d9f7fe4dcbc863bc", "blockhash": "0000000000000000001e0dab787dd257d1dbfcb92a98c2207d5e1078be1f4165", "vout": [{"scriptPubKey": {"reqSigs": 1, "hex": "a914dc63021e278e1ca030081885119325be9ddd826887", "addresses": ["3MnKBxjqxgBu19ritrfcjEeWHq3Fk4JzBW"], "asm": "OP_HASH160 dc63021e278e1ca030081885119325be9ddd8268 OP_EQUAL", "type": "scripthash"}, "value": 0.06750211, "n": 0}, {"scriptPubKey": {"reqSigs": 1, "hex": "a914c700ec8f632d45d5fc37ab24b7f1bc7fdc74f6b587", "addresses": ["3KqFVvVJomPR3tUmARKkVyySR6R4gCoqKX"], "asm": "OP_HASH160 c700ec8f632d45d5fc37ab24b7f1bc7fdc74f6b5 OP_EQUAL", "type": "scripthash"}, "value": 0.00329206, "n": 1}], "hex": "020000000001018c6de49e0463be84cfc7e60be23658ad5c7f4b2c7c92e7b39d43977158ba7e5700000000171600140afd900f57a2931fe5a4983fdef86cd0608d6bb3feffffff02030067000000000017a914dc63021e278e1ca030081885119325be9ddd826887f60505000000000017a914c700ec8f632d45d5fc37ab24b7f1bc7fdc74f6b5870247304402201a038ba886a846fb6957a4b33cd319bb9433596b3d7188f88c3dae26050e041402204ca0c931c1cd7c7e616bade60e93fba9f00b53c7af92b460c549e337026d91ff01210281dfabf1f19ef92eab6be7c0eb3ab03d485ad0cf7f66890e62b920dd37139695b6480800", "vin": [{"txinwitness": ["304402201a038ba886a846fb6957a4b33cd319bb9433596b3d7188f88c3dae26050e041402204ca0c931c1cd7c7e616bade60e93fba9f00b53c7af92b460c549e337026d91ff01", "0281dfabf1f19ef92eab6be7c0eb3ab03d485ad0cf7f66890e62b920dd37139695"], "sequence": 4294967294, "scriptSig": {"hex": "1600140afd900f57a2931fe5a4983fdef86cd0608d6bb3", "asm": "00140afd900f57a2931fe5a4983fdef86cd0608d6bb3"}, "vout": 0, "txid": "577eba587197439db3e7927c2c4b7f5cad5836e20be6c7cf84be63049ee46d8c"}], "txid": "242ece2629fe58e8eb9e605e5d7d2952df611e634df9ce375d51804d21b0b2ba", "blocktime": 1537872475, "version": 2, "confirmations": 11487, "time": 1537872475, "locktime": 542902, "vsize": 166, "size": 247}