{"hash": "242f4df9d83cbe85b75c8fb54bd06c6318c79b6cac50dc04aeb80c8224334174", "blockhash": "0000000000000000000e13cef7c366c0283d82e591d1acd082e914b08063cdf1", "vout": [{"scriptPubKey": {"reqSigs": 1, "hex": "76a914d7727c19a2fcb1d96be3cf7841b6295c8629021788ac", "addresses": ["1LeBRnWDaB2XDDijfeTJcm2h9npUQyZ3WL"], "asm": "OP_DUP OP_HASH160 d7727c19a2fcb1d96be3cf7841b6295c86290217 OP_EQUALVERIFY OP_CHECKSIG", "type": "pubkeyhash"}, "value": 0.1087023, "n": 0}, {"scriptPubKey": {"reqSigs": 1, "hex": "76a914538d3cbad02e0977fff6cbfd970e4d62ac5eef6788ac", "addresses": ["18cnHFsWigoHvpc6wASa8pEwoA5FALuCwt"], "asm": "OP_DUP OP_HASH160 538d3cbad02e0977fff6cbfd970e4d62ac5eef67 OP_EQUALVERIFY OP_CHECKSIG", "type": "pubkeyhash"}, "value": 0.15622266, "n": 1}], "hex": "0100000001be2e3dff5da6205ae93d3b9f6d64704452d253d8f7308006143e4eb56f2add27010000006a473044022064ca3f0362a8413839aa5eaacb8bdf51c2361f4c3788695ea024c8fce56055df022063b9edf31f1e5cda6b22812aed0aacdb19c0cf91fa076eb6c14380ecdcb3481a0121025dcd461158cf7f6965d7aa71124ce8e76a90b9c1d3bcca70d84717e59bc82eaaffffffff02d6dda500000000001976a914d7727c19a2fcb1d96be3cf7841b6295c8629021788ac7a60ee00000000001976a914538d3cbad02e0977fff6cbfd970e4d62ac5eef6788ac00000000", "vin": [{"sequence": 4294967295, "scriptSig": {"hex": "473044022064ca3f0362a8413839aa5eaacb8bdf51c2361f4c3788695ea024c8fce56055df022063b9edf31f1e5cda6b22812aed0aacdb19c0cf91fa076eb6c14380ecdcb3481a0121025dcd461158cf7f6965d7aa71124ce8e76a90b9c1d3bcca70d84717e59bc82eaa", "asm": "3044022064ca3f0362a8413839aa5eaacb8bdf51c2361f4c3788695ea024c8fce56055df022063b9edf31f1e5cda6b22812aed0aacdb19c0cf91fa076eb6c14380ecdcb3481a[ALL] 025dcd461158cf7f6965d7aa71124ce8e76a90b9c1d3bcca70d84717e59bc82eaa"}, "vout": 1, "txid": "27dd2a6fb54e3e14068030f7d853d2524470646d9f3b3de95a20a65dff3d2ebe"}], "txid": "242f4df9d83cbe85b75c8fb54bd06c6318c79b6cac50dc04aeb80c8224334174", "blocktime": 1537871767, "version": 1, "confirmations": 11493, "time": 1537871767, "locktime": 0, "vsize": 225, "size": 225}