{"hash": "24355d72554493799966e044588c5a06690205b0edeee51982c26590b39af75d", "blockhash": "0000000000000000000e13cef7c366c0283d82e591d1acd082e914b08063cdf1", "vout": [{"scriptPubKey": {"reqSigs": 1, "hex": "a91433f5f863de04c02aa8425970012b3b3aff8974e087", "addresses": ["36Rm3e9jwDktbm91XPEEkumBDEvWYV56XD"], "asm": "OP_HASH160 33f5f863de04c02aa8425970012b3b3aff8974e0 OP_EQUAL", "type": "scripthash"}, "value": 0.00625354, "n": 0}, {"scriptPubKey": {"reqSigs": 1, "hex": "a914396231e3e46cd81c40729a47742138572a558c2a87", "addresses": ["36vS5BHkkVuDwsTMPDj5jiiAcKSxmHmysX"], "asm": "OP_HASH160 396231e3e46cd81c40729a47742138572a558c2a OP_EQUAL", "type": "scripthash"}, "value": 0.0038498, "n": 1}, {"scriptPubKey": {"reqSigs": 1, "hex": "76a9141d4171a7f925a8842f3942ad27a1fe2c9e9ce45c88ac", "addresses": ["13fgzh1ShS7qvfCqKkLsx2GKetnQv2oFPL"], "asm": "OP_DUP OP_HASH160 1d4171a7f925a8842f3942ad27a1fe2c9e9ce45c OP_EQUALVERIFY OP_CHECKSIG", "type": "pubkeyhash"}, "value": 0.00013196, "n": 2}], "hex": "0100000002da0e7333f792d279e5a8691053ba55896bba540473b9726eb51b7c0ea0b5d38f00000000d90047304402201eab98a244b321d32ccef10e02c82a066efdf60d88399f2556d92708b059535002200c86c890d92e7c3deb0485fb53470694d65fe975919f612501fd5d70350d6b30014730440220276244579688b0431ab02bbf15e19bff3a59f88711c84ebb1179cff5746b0e7b02206bf64026c7124b50957f44354a11f702190c28235ad2c563710a7c64adf34050014752210229b7c62ea48b921a89e81c7024c8c63c9c4bd5df7aa70b9adeab1f0a55561f772102907a54bed8ad74b3f35638c60114ca240a308cb986f3f2f306178869a8880b6152aeffffffff69f860de03ef6a52d48c40a8466524f5b4e7a312e17f7a1ae28b3e51b455dff9010000006b483045022100c3e01e21c9595517c9265a543b37bd9714d458e6a47388a88914adaf6cc568b502207ffaf52104623fd383d6b24ff8b4524e0e1b3b0ebde794d6bde4769b60b805b70121035a24a83995e5a68b943ed15e6c4c00a450c2998ff1520e68722dd7da74324a09ffffffff03ca8a09000000000017a91433f5f863de04c02aa8425970012b3b3aff8974e087d4df05000000000017a914396231e3e46cd81c40729a47742138572a558c2a878c330000000000001976a9141d4171a7f925a8842f3942ad27a1fe2c9e9ce45c88ac00000000", "vin": [{"sequence": 4294967295, "scriptSig": {"hex": "0047304402201eab98a244b321d32ccef10e02c82a066efdf60d88399f2556d92708b059535002200c86c890d92e7c3deb0485fb53470694d65fe975919f612501fd5d70350d6b30014730440220276244579688b0431ab02bbf15e19bff3a59f88711c84ebb1179cff5746b0e7b02206bf64026c7124b50957f44354a11f702190c28235ad2c563710a7c64adf34050014752210229b7c62ea48b921a89e81c7024c8c63c9c4bd5df7aa70b9adeab1f0a55561f772102907a54bed8ad74b3f35638c60114ca240a308cb986f3f2f306178869a8880b6152ae", "asm": "0 304402201eab98a244b321d32ccef10e02c82a066efdf60d88399f2556d92708b059535002200c86c890d92e7c3deb0485fb53470694d65fe975919f612501fd5d70350d6b30[ALL] 30440220276244579688b0431ab02bbf15e19bff3a59f88711c84ebb1179cff5746b0e7b02206bf64026c7124b50957f44354a11f702190c28235ad2c563710a7c64adf34050[ALL] 52210229b7c62ea48b921a89e81c7024c8c63c9c4bd5df7aa70b9adeab1f0a55561f772102907a54bed8ad74b3f35638c60114ca240a308cb986f3f2f306178869a8880b6152ae"}, "vout": 0, "txid": "8fd3b5a00e7c1bb56e72b9730454ba6b8955ba531069a8e579d292f733730eda"}, {"sequence": 4294967295, "scriptSig": {"hex": "483045022100c3e01e21c9595517c9265a543b37bd9714d458e6a47388a88914adaf6cc568b502207ffaf52104623fd383d6b24ff8b4524e0e1b3b0ebde794d6bde4769b60b805b70121035a24a83995e5a68b943ed15e6c4c00a450c2998ff1520e68722dd7da74324a09", "asm": "3045022100c3e01e21c9595517c9265a543b37bd9714d458e6a47388a88914adaf6cc568b502207ffaf52104623fd383d6b24ff8b4524e0e1b3b0ebde794d6bde4769b60b805b7[ALL] 035a24a83995e5a68b943ed15e6c4c00a450c2998ff1520e68722dd7da74324a09"}, "vout": 1, "txid": "f9df55b4513e8be21a7a7fe112a3e7b4f5246546a8408cd4526aef03de60f869"}], "txid": "24355d72554493799966e044588c5a06690205b0edeee51982c26590b39af75d", "blocktime": 1537871767, "version": 1, "confirmations": 11494, "time": 1537871767, "locktime": 0, "vsize": 514, "size": 514}