{"hash": "243868ad4e3ecc82043142c1eadd04c4270c72375f4ae79b822d78a3c17f2889", "blockhash": "0000000000000000001cda96e906b7601b7a6fb1a3b62bca570a9e5d8f4b3de1", "vout": [{"scriptPubKey": {"reqSigs": 1, "hex": "76a914f1a1f1bfe58ddab2fac4d7558fc4660f09d2524688ac", "addresses": ["1P2drKbzBirGZbcmdikE5ouSvGgsbh6YSj"], "asm": "OP_DUP OP_HASH160 f1a1f1bfe58ddab2fac4d7558fc4660f09d25246 OP_EQUALVERIFY OP_CHECKSIG", "type": "pubkeyhash"}, "value": 0.09443212, "n": 0}, {"scriptPubKey": {"reqSigs": 1, "hex": "76a9146576a6ac19ba823e52abf6258d71d260793eefd688ac", "addresses": ["1AFVPPvmn6FMud8WaC8Wj5KVNApDct7uQU"], "asm": "OP_DUP OP_HASH160 6576a6ac19ba823e52abf6258d71d260793eefd6 OP_EQUALVERIFY OP_CHECKSIG", "type": "pubkeyhash"}, "value": 0.02526702, "n": 1}], "hex": "010000000216f90070c0d4024e990537f9bbf4363bec024afcab56d873c808cd4d0eaad5ec010000006a473044022039e61b4892bb60229145e71d46eea20dba74a363907e6dc9079f1a8c978f4cb002206fb536cc16321a59ef53cac3b56e898f5473bc2c1af2c0e2660c7e0d0012c62001210391225ea1408c7d065af62018a74bd7cf3d633da33d3af346b7bf1b1d19fec5caffffffff675a4a0722c55d864c1aaf4cfd0dc5a52939a3a71039ee385811f3c4a323f359000000006a473044022052f7383e5abc55b13708cd4136927dcbc507c0daef5a670d3e6a24e2a14127a8022038fe2ccbd05d04ba1da94efb6b671e93d0df99fa41bb2edb42835d2b7010759e012103e1ac13c3146df8b0f30ae4fca578b26ecb5676e0f202c05ed773bcb1cdcddf94ffffffff028c179000000000001976a914f1a1f1bfe58ddab2fac4d7558fc4660f09d2524688acee8d2600000000001976a9146576a6ac19ba823e52abf6258d71d260793eefd688ac00000000", "vin": [{"sequence": 4294967295, "scriptSig": {"hex": "473044022039e61b4892bb60229145e71d46eea20dba74a363907e6dc9079f1a8c978f4cb002206fb536cc16321a59ef53cac3b56e898f5473bc2c1af2c0e2660c7e0d0012c62001210391225ea1408c7d065af62018a74bd7cf3d633da33d3af346b7bf1b1d19fec5ca", "asm": "3044022039e61b4892bb60229145e71d46eea20dba74a363907e6dc9079f1a8c978f4cb002206fb536cc16321a59ef53cac3b56e898f5473bc2c1af2c0e2660c7e0d0012c620[ALL] 0391225ea1408c7d065af62018a74bd7cf3d633da33d3af346b7bf1b1d19fec5ca"}, "vout": 1, "txid": "ecd5aa0e4dcd08c873d856abfc4a02ec3b36f4bbf93705994e02d4c07000f916"}, {"sequence": 4294967295, "scriptSig": {"hex": "473044022052f7383e5abc55b13708cd4136927dcbc507c0daef5a670d3e6a24e2a14127a8022038fe2ccbd05d04ba1da94efb6b671e93d0df99fa41bb2edb42835d2b7010759e012103e1ac13c3146df8b0f30ae4fca578b26ecb5676e0f202c05ed773bcb1cdcddf94", "asm": "3044022052f7383e5abc55b13708cd4136927dcbc507c0daef5a670d3e6a24e2a14127a8022038fe2ccbd05d04ba1da94efb6b671e93d0df99fa41bb2edb42835d2b7010759e[ALL] 03e1ac13c3146df8b0f30ae4fca578b26ecb5676e0f202c05ed773bcb1cdcddf94"}, "vout": 0, "txid": "59f323a3c4f3115838ee3910a7a33929a5c50dfd4caf1a4c865dc522074a5a67"}], "txid": "243868ad4e3ecc82043142c1eadd04c4270c72375f4ae79b822d78a3c17f2889", "blocktime": 1537873282, "version": 1, "confirmations": 11480, "time": 1537873282, "locktime": 0, "vsize": 372, "size": 372}