{"hash": "c1b53a0890c33f395c2a489438117109a8483ab74ac5e805946527ecaa58c4ee", "blockhash": "0000000000000000000baef3f32e3676a92c3b2e5da21b426e4f302fc371ce76", "vout": [{"scriptPubKey": {"reqSigs": 1, "hex": "a9145216c55a34864511553eb4b953ced45571a7169787", "addresses": ["39B4cRZRxuGU1FcyMTxkvXxgSYQkEvqut1"], "asm": "OP_HASH160 5216c55a34864511553eb4b953ced45571a71697 OP_EQUAL", "type": "scripthash"}, "value": 0.00249, "n": 0}, {"scriptPubKey": {"reqSigs": 1, "hex": "a914733cd3d9ef05e48c9b795bb739b8c19b27e43ed687", "addresses": ["3CCLVyZu3tQMCBnUFNRY5VLNfocWRej1ck"], "asm": "OP_HASH160 733cd3d9ef05e48c9b795bb739b8c19b27e43ed6 OP_EQUAL", "type": "scripthash"}, "value": 0.00745718, "n": 1}], "hex": "0100000000010146b9b96f966960ea51b763c05413757a82f9fcf55df9b310b53b6e4dfe33a57f010000002322002002005ceffd173fe4f556c29bb155b0b0f5e824bd6cc9737a24047076c323e17affffffff02a8cc03000000000017a9145216c55a34864511553eb4b953ced45571a7169787f6600b000000000017a914733cd3d9ef05e48c9b795bb739b8c19b27e43ed6870400483045022100fccbf141a04879dfebad2fc67a1acd75b02fa1286d0237947e8e3da16c181ac2022078d6646b6759f2585dd84b846a92bf30b22777831fda1c9e33cc0f2e6c82ee01014730440220523796a63717faa35e84a30582b8c2a6a90a952c019e3caabf0c5c34b71dab9402206c3d75b736dbed7049e5f1b23c739a5f5362ff2bb9de996ae1fc64a39592d2560147522103f56f152f57c1480af90fb18d638ffd5378fc4a2c7343a15aa234594ca00d3dbb2102cef2f65e67dd388952b1159edda4643422fd1dedc86f72b80e60633b6aa83ecc52ae00000000", "vin": [{"txinwitness": ["", "3045022100fccbf141a04879dfebad2fc67a1acd75b02fa1286d0237947e8e3da16c181ac2022078d6646b6759f2585dd84b846a92bf30b22777831fda1c9e33cc0f2e6c82ee0101", "30440220523796a63717faa35e84a30582b8c2a6a90a952c019e3caabf0c5c34b71dab9402206c3d75b736dbed7049e5f1b23c739a5f5362ff2bb9de996ae1fc64a39592d25601", "522103f56f152f57c1480af90fb18d638ffd5378fc4a2c7343a15aa234594ca00d3dbb2102cef2f65e67dd388952b1159edda4643422fd1dedc86f72b80e60633b6aa83ecc52ae"], "sequence": 4294967295, "scriptSig": {"hex": "22002002005ceffd173fe4f556c29bb155b0b0f5e824bd6cc9737a24047076c323e17a", "asm": "002002005ceffd173fe4f556c29bb155b0b0f5e824bd6cc9737a24047076c323e17a"}, "vout": 1, "txid": "7fa533fe4d6e3bb510b3f95df5fcf9827a751354c063b751ea6069966fb9b946"}], "txid": "2438d231350bde8a773d13cfcb15ce2030d29787f3f468d717bab77de05d0f20", "blocktime": 1537876114, "version": 1, "confirmations": 11462, "time": 1537876114, "locktime": 0, "vsize": 206, "size": 371}