{"hash": "245daee221cb7ee0212fb6a7bfc652637580c8ff43632d2a197184037894e72a", "blockhash": "00000000000000000024a2167bbff67b0be802c0b01cdd79e6331c2be6459f87", "vout": [{"scriptPubKey": {"reqSigs": 1, "hex": "76a9140121f85df85361af91b0d0d533d34dfee2a0523b88ac", "addresses": ["16zNUw3sa34DfFJPssujtxUrFCipHFP6U"], "asm": "OP_DUP OP_HASH160 0121f85df85361af91b0d0d533d34dfee2a0523b OP_EQUALVERIFY OP_CHECKSIG", "type": "pubkeyhash"}, "value": 0.00097232, "n": 0}, {"scriptPubKey": {"reqSigs": 1, "hex": "76a9145b215801e9664c4e53e57ffccbb72562c46dd51888ac", "addresses": ["19JrSDw3HgwDMBmD9eaxs7MuBVZNz8fnuS"], "asm": "OP_DUP OP_HASH160 5b215801e9664c4e53e57ffccbb72562c46dd518 OP_EQUALVERIFY OP_CHECKSIG", "type": "pubkeyhash"}, "value": 0.04586476, "n": 1}], "hex": "010000000edacf76e0b9beea047eac22b917cc7a6373f5bf5494fc98d85ada4bec0ec92c09000000006b483045022100b2ddaaf4b9bd149f92fbb98cdba45e020ad2f058c47ed4bd27bbc0a75d1de7ec02206bcf5e791d8965dee057865678cb612ed1c41b4898c3f6d32d8724427f721e4601210354ed87194ccb46ce752a9fec96a9d6b0ad4f7c5e7e2838396ecae05b05589702ffffffffb8356f1be1348537b0757c2906dfaa69b3b89c49b6ae21ce65abdb8c75d1b80d000000006b483045022100f2ebd6f3cd56163aa954a6a25f43f4c290c54c800a9a7ac95974a6a74c6395070220443cb240848482baa201ef52a20b800725941f369ec47be0aaf91967ad1d42ff01210360fcae78bac9ba3ef5cf94e92e555c0c532a90d67473fcee080a7ec2cc74b168ffffffff108e2c3abaaf85cfced7f2e1ac18f36ac57387c26fd0f94b099e12061b238011000000006a473044022069cb9436b41fa9b8b9967de968ac5e20f0ad9009746db81ebde26be62ef8037702207d3e48ea1ca7a3878492adec7bf5c4e72870a64e8f5f8d6f6f213fa139156e8b012102a430bb1b7fcb7a41f7ca883d87132d9a7ab7b9484fd746e345a7765e942f0f97ffffffffd956903828f378cd10582a6ffb7505b5d05c3d702c67f1eda15086fe8a323d58000000006b483045022100fc566dd1faed27d5cee9107054acb1c1d0f1a853f30c1f196c051e0903cafbb9022022f08296bd68421e875b4bf47646d98a1e5bb8cdf0331032fae12fcae2d2437b01210360fcae78bac9ba3ef5cf94e92e555c0c532a90d67473fcee080a7ec2cc74b168ffffffffed37b2c2b8e6640581bac6600813bd629d52098e57c90d18d68870c673f0aa62000000006b4830450221008a186b594629c9ca057975de7edbd687a9173055a58c7ae653f4a02d0beea8860220262bc555f3f82d2301bf90aca5d716f5800d58aa96c4b2e5f9d902b744aa5bce01210360fcae78bac9ba3ef5cf94e92e555c0c532a90d67473fcee080a7ec2cc74b168ffffffff33fc560349c128f9c3ca161ac668053021d414bb4d7e1b69a9a258b798c2f480000000006b483045022100e38884f160f0644f7f661e4e999dd6f26bea5e752e53237a1ff65282fee7122002206027550c75a2f3368beb6f30000cc4bff3272d61b550c845f3ad68be251fe4ad012102a430bb1b7fcb7a41f7ca883d87132d9a7ab7b9484fd746e345a7765e942f0f97ffffffff70f16a75ba65353da3aa358916297ffb6de120a1626d82af4a1f8a640556a897000000006b483045022100e76eff62720567f89941117ec3e345b3d2441c9b890a076fad9bba33631748cd02200acd870e06725bda818277f55f9504678dbf699cacf92cc58a2fc26d3a5389f9012102a430bb1b7fcb7a41f7ca883d87132d9a7ab7b9484fd746e345a7765e942f0f97ffffffff1d614da2ceca905967eb1ed97a366273f6eaddfefd5125784b218e88bb27e0be000000006a47304402203ef1635383f0acd2f2d75bb82008f1f4de4736841237f4f98d4dfce326f37c780220277c9fe23726e3bc6690f78522f1c5985ee92389910ee2ce197ea9760015620401210360fcae78bac9ba3ef5cf94e92e555c0c532a90d67473fcee080a7ec2cc74b168ffffffffaf60ddfd7bdc46ceb2b4e2a409618380697b4f2763f1909e1f07a1f89f82d1c7000000006b483045022100e753c998e8cfd1bddbdcaee4bd0e658737a2dc233fb89b409a90a0c1240fc98802204d754bebb288baa40f7c7e093df4da4f47b809a923bb2e488c844715ae091930012103fdfc019075a6125e8d971455508585b4c8bbd118858797eb853efcdc459bb312ffffffff34c2d0b682a88443c43e4e081e42eb118fc7fdad1f1c49701efc65cf83271ee3000000006b48304502210082055bc6a12bd650af2a211289a45df7ff2cb42a35a8b0459a858373ec319cde022063d9d1ab998ecc14b23776c81d9d09c0c25ac1a81a8c11d8c66fd104a6c328ae01210360fcae78bac9ba3ef5cf94e92e555c0c532a90d67473fcee080a7ec2cc74b168ffffffff19a90c992ad4733dd1d6282d8b7f742cd2e24d89addda2c66d43e66121fc84ea000000006a47304402205813cd44066b2dc4717a230b434b11fb410350b6363b0ea2771cc8746f49bd5b022007ef519ad90419744b4ab27a6e6974f979c96cc28afcaff6701b6b4213ae5dea0121022c2050634570c64e7f8d785f5c2cd6ba10684810a7a876403514d0d0e30cc76fffffffffada6df4cb7615ff8d0cbd374d16509202493084a6369327607a7230d84c671eb000000006b483045022100cef4e16308686c76423f66c16079ad220c1e69e6e307de752624db0b3e3e3f7202202ff8fea9a96c57f351f86a215420bca36a8c917f50106188e746803215561cb001210360fcae78bac9ba3ef5cf94e92e555c0c532a90d67473fcee080a7ec2cc74b168ffffffff0db878773c5398397b8d6c143124b01cf2e76d31752f6ad12ba6c5ea524f5bee000000006a47304402205531748304bb48cc5a9752b29da9a9ea145e5b34cde1c616b772ae48bfa31d2602204e7ac0f6d27d438b572a40e56fbc6a64769e98ede6425f1742b488588653782e0121031bf500d1b11381e495b4f32f553185fc7b17ba92394a4815420c00b691ab1d9effffffff9610cded8b7b22d4f34863e1b50a5f781abfdde33ef3a4b113de31e014e7fbf9000000006a473044022042e749e4e4ac28c4a4c3d36f2aae111c5f4f3891347c3b865b4ec02f79bd87d30220409bb7a2f777edd9d3ddbe8ceb67220b90da6e249309e1586b5128d20e57518701210360fcae78bac9ba3ef5cf94e92e555c0c532a90d67473fcee080a7ec2cc74b168ffffffff02d07b0100000000001976a9140121f85df85361af91b0d0d533d34dfee2a0523b88acecfb4500000000001976a9145b215801e9664c4e53e57ffccbb72562c46dd51888ac00000000", "vin": [{"sequence": 4294967295, "scriptSig": {"hex": "483045022100b2ddaaf4b9bd149f92fbb98cdba45e020ad2f058c47ed4bd27bbc0a75d1de7ec02206bcf5e791d8965dee057865678cb612ed1c41b4898c3f6d32d8724427f721e4601210354ed87194ccb46ce752a9fec96a9d6b0ad4f7c5e7e2838396ecae05b05589702", "asm": "3045022100b2ddaaf4b9bd149f92fbb98cdba45e020ad2f058c47ed4bd27bbc0a75d1de7ec02206bcf5e791d8965dee057865678cb612ed1c41b4898c3f6d32d8724427f721e46[ALL] 0354ed87194ccb46ce752a9fec96a9d6b0ad4f7c5e7e2838396ecae05b05589702"}, "vout": 0, "txid": "092cc90eec4bda5ad898fc9454bff573637acc17b922ac7e04eabeb9e076cfda"}, {"sequence": 4294967295, "scriptSig": {"hex": "483045022100f2ebd6f3cd56163aa954a6a25f43f4c290c54c800a9a7ac95974a6a74c6395070220443cb240848482baa201ef52a20b800725941f369ec47be0aaf91967ad1d42ff01210360fcae78bac9ba3ef5cf94e92e555c0c532a90d67473fcee080a7ec2cc74b168", "asm": "3045022100f2ebd6f3cd56163aa954a6a25f43f4c290c54c800a9a7ac95974a6a74c6395070220443cb240848482baa201ef52a20b800725941f369ec47be0aaf91967ad1d42ff[ALL] 0360fcae78bac9ba3ef5cf94e92e555c0c532a90d67473fcee080a7ec2cc74b168"}, "vout": 0, "txid": "0db8d1758cdbab65ce21aeb6499cb8b369aadf06297c75b0378534e11b6f35b8"}, {"sequence": 4294967295, "scriptSig": {"hex": "473044022069cb9436b41fa9b8b9967de968ac5e20f0ad9009746db81ebde26be62ef8037702207d3e48ea1ca7a3878492adec7bf5c4e72870a64e8f5f8d6f6f213fa139156e8b012102a430bb1b7fcb7a41f7ca883d87132d9a7ab7b9484fd746e345a7765e942f0f97", "asm": "3044022069cb9436b41fa9b8b9967de968ac5e20f0ad9009746db81ebde26be62ef8037702207d3e48ea1ca7a3878492adec7bf5c4e72870a64e8f5f8d6f6f213fa139156e8b[ALL] 02a430bb1b7fcb7a41f7ca883d87132d9a7ab7b9484fd746e345a7765e942f0f97"}, "vout": 0, "txid": "1180231b06129e094bf9d06fc28773c56af318ace1f2d7cecf85afba3a2c8e10"}, {"sequence": 4294967295, "scriptSig": {"hex": "483045022100fc566dd1faed27d5cee9107054acb1c1d0f1a853f30c1f196c051e0903cafbb9022022f08296bd68421e875b4bf47646d98a1e5bb8cdf0331032fae12fcae2d2437b01210360fcae78bac9ba3ef5cf94e92e555c0c532a90d67473fcee080a7ec2cc74b168", "asm": "3045022100fc566dd1faed27d5cee9107054acb1c1d0f1a853f30c1f196c051e0903cafbb9022022f08296bd68421e875b4bf47646d98a1e5bb8cdf0331032fae12fcae2d2437b[ALL] 0360fcae78bac9ba3ef5cf94e92e555c0c532a90d67473fcee080a7ec2cc74b168"}, "vout": 0, "txid": "583d328afe8650a1edf1672c703d5cd0b50575fb6f2a5810cd78f328389056d9"}, {"sequence": 4294967295, "scriptSig": {"hex": "4830450221008a186b594629c9ca057975de7edbd687a9173055a58c7ae653f4a02d0beea8860220262bc555f3f82d2301bf90aca5d716f5800d58aa96c4b2e5f9d902b744aa5bce01210360fcae78bac9ba3ef5cf94e92e555c0c532a90d67473fcee080a7ec2cc74b168", "asm": "30450221008a186b594629c9ca057975de7edbd687a9173055a58c7ae653f4a02d0beea8860220262bc555f3f82d2301bf90aca5d716f5800d58aa96c4b2e5f9d902b744aa5bce[ALL] 0360fcae78bac9ba3ef5cf94e92e555c0c532a90d67473fcee080a7ec2cc74b168"}, "vout": 0, "txid": "62aaf073c67088d6180dc9578e09529d62bd130860c6ba810564e6b8c2b237ed"}, {"sequence": 4294967295, "scriptSig": {"hex": "483045022100e38884f160f0644f7f661e4e999dd6f26bea5e752e53237a1ff65282fee7122002206027550c75a2f3368beb6f30000cc4bff3272d61b550c845f3ad68be251fe4ad012102a430bb1b7fcb7a41f7ca883d87132d9a7ab7b9484fd746e345a7765e942f0f97", "asm": "3045022100e38884f160f0644f7f661e4e999dd6f26bea5e752e53237a1ff65282fee7122002206027550c75a2f3368beb6f30000cc4bff3272d61b550c845f3ad68be251fe4ad[ALL] 02a430bb1b7fcb7a41f7ca883d87132d9a7ab7b9484fd746e345a7765e942f0f97"}, "vout": 0, "txid": "80f4c298b758a2a9691b7e4dbb14d421300568c61a16cac3f928c1490356fc33"}, {"sequence": 4294967295, "scriptSig": {"hex": "483045022100e76eff62720567f89941117ec3e345b3d2441c9b890a076fad9bba33631748cd02200acd870e06725bda818277f55f9504678dbf699cacf92cc58a2fc26d3a5389f9012102a430bb1b7fcb7a41f7ca883d87132d9a7ab7b9484fd746e345a7765e942f0f97", "asm": "3045022100e76eff62720567f89941117ec3e345b3d2441c9b890a076fad9bba33631748cd02200acd870e06725bda818277f55f9504678dbf699cacf92cc58a2fc26d3a5389f9[ALL] 02a430bb1b7fcb7a41f7ca883d87132d9a7ab7b9484fd746e345a7765e942f0f97"}, "vout": 0, "txid": "97a85605648a1f4aaf826d62a120e16dfb7f29168935aaa33d3565ba756af170"}, {"sequence": 4294967295, "scriptSig": {"hex": "47304402203ef1635383f0acd2f2d75bb82008f1f4de4736841237f4f98d4dfce326f37c780220277c9fe23726e3bc6690f78522f1c5985ee92389910ee2ce197ea9760015620401210360fcae78bac9ba3ef5cf94e92e555c0c532a90d67473fcee080a7ec2cc74b168", "asm": "304402203ef1635383f0acd2f2d75bb82008f1f4de4736841237f4f98d4dfce326f37c780220277c9fe23726e3bc6690f78522f1c5985ee92389910ee2ce197ea97600156204[ALL] 0360fcae78bac9ba3ef5cf94e92e555c0c532a90d67473fcee080a7ec2cc74b168"}, "vout": 0, "txid": "bee027bb888e214b782551fdfeddeaf67362367ad91eeb675990cacea24d611d"}, {"sequence": 4294967295, "scriptSig": {"hex": "483045022100e753c998e8cfd1bddbdcaee4bd0e658737a2dc233fb89b409a90a0c1240fc98802204d754bebb288baa40f7c7e093df4da4f47b809a923bb2e488c844715ae091930012103fdfc019075a6125e8d971455508585b4c8bbd118858797eb853efcdc459bb312", "asm": "3045022100e753c998e8cfd1bddbdcaee4bd0e658737a2dc233fb89b409a90a0c1240fc98802204d754bebb288baa40f7c7e093df4da4f47b809a923bb2e488c844715ae091930[ALL] 03fdfc019075a6125e8d971455508585b4c8bbd118858797eb853efcdc459bb312"}, "vout": 0, "txid": "c7d1829ff8a1071f9e90f163274f7b6980836109a4e2b4b2ce46dc7bfddd60af"}, {"sequence": 4294967295, "scriptSig": {"hex": "48304502210082055bc6a12bd650af2a211289a45df7ff2cb42a35a8b0459a858373ec319cde022063d9d1ab998ecc14b23776c81d9d09c0c25ac1a81a8c11d8c66fd104a6c328ae01210360fcae78bac9ba3ef5cf94e92e555c0c532a90d67473fcee080a7ec2cc74b168", "asm": "304502210082055bc6a12bd650af2a211289a45df7ff2cb42a35a8b0459a858373ec319cde022063d9d1ab998ecc14b23776c81d9d09c0c25ac1a81a8c11d8c66fd104a6c328ae[ALL] 0360fcae78bac9ba3ef5cf94e92e555c0c532a90d67473fcee080a7ec2cc74b168"}, "vout": 0, "txid": "e31e2783cf65fc1e70491c1fadfdc78f11eb421e084e3ec44384a882b6d0c234"}, {"sequence": 4294967295, "scriptSig": {"hex": "47304402205813cd44066b2dc4717a230b434b11fb410350b6363b0ea2771cc8746f49bd5b022007ef519ad90419744b4ab27a6e6974f979c96cc28afcaff6701b6b4213ae5dea0121022c2050634570c64e7f8d785f5c2cd6ba10684810a7a876403514d0d0e30cc76f", "asm": "304402205813cd44066b2dc4717a230b434b11fb410350b6363b0ea2771cc8746f49bd5b022007ef519ad90419744b4ab27a6e6974f979c96cc28afcaff6701b6b4213ae5dea[ALL] 022c2050634570c64e7f8d785f5c2cd6ba10684810a7a876403514d0d0e30cc76f"}, "vout": 0, "txid": "ea84fc2161e6436dc6a2ddad894de2d22c747f8b2d28d6d13d73d42a990ca919"}, {"sequence": 4294967295, "scriptSig": {"hex": "483045022100cef4e16308686c76423f66c16079ad220c1e69e6e307de752624db0b3e3e3f7202202ff8fea9a96c57f351f86a215420bca36a8c917f50106188e746803215561cb001210360fcae78bac9ba3ef5cf94e92e555c0c532a90d67473fcee080a7ec2cc74b168", "asm": "3045022100cef4e16308686c76423f66c16079ad220c1e69e6e307de752624db0b3e3e3f7202202ff8fea9a96c57f351f86a215420bca36a8c917f50106188e746803215561cb0[ALL] 0360fcae78bac9ba3ef5cf94e92e555c0c532a90d67473fcee080a7ec2cc74b168"}, "vout": 0, "txid": "eb71c6840d23a707763269634a089324200965d174d3cbd0f85f61b74cdfa6ad"}, {"sequence": 4294967295, "scriptSig": {"hex": "47304402205531748304bb48cc5a9752b29da9a9ea145e5b34cde1c616b772ae48bfa31d2602204e7ac0f6d27d438b572a40e56fbc6a64769e98ede6425f1742b488588653782e0121031bf500d1b11381e495b4f32f553185fc7b17ba92394a4815420c00b691ab1d9e", "asm": "304402205531748304bb48cc5a9752b29da9a9ea145e5b34cde1c616b772ae48bfa31d2602204e7ac0f6d27d438b572a40e56fbc6a64769e98ede6425f1742b488588653782e[ALL] 031bf500d1b11381e495b4f32f553185fc7b17ba92394a4815420c00b691ab1d9e"}, "vout": 0, "txid": "ee5b4f52eac5a62bd16a2f75316de7f21cb02431146c8d7b3998533c7778b80d"}, {"sequence": 4294967295, "scriptSig": {"hex": "473044022042e749e4e4ac28c4a4c3d36f2aae111c5f4f3891347c3b865b4ec02f79bd87d30220409bb7a2f777edd9d3ddbe8ceb67220b90da6e249309e1586b5128d20e57518701210360fcae78bac9ba3ef5cf94e92e555c0c532a90d67473fcee080a7ec2cc74b168", "asm": "3044022042e749e4e4ac28c4a4c3d36f2aae111c5f4f3891347c3b865b4ec02f79bd87d30220409bb7a2f777edd9d3ddbe8ceb67220b90da6e249309e1586b5128d20e575187[ALL] 0360fcae78bac9ba3ef5cf94e92e555c0c532a90d67473fcee080a7ec2cc74b168"}, "vout": 0, "txid": "f9fbe714e031de13b1a4f33ee3ddbf1a785f0ab5e16348f3d4227b8bedcd1096"}], "txid": "245daee221cb7ee0212fb6a7bfc652637580c8ff43632d2a197184037894e72a", "blocktime": 1537870564, "version": 1, "confirmations": 11515, "time": 1537870564, "locktime": 0, "vsize": 2145, "size": 2145}