{"hash": "48bd58e2f07368330fa42a51295645baca37f817605dd88cdb8a38336d1a3f67", "blockhash": "0000000000000000000baef3f32e3676a92c3b2e5da21b426e4f302fc371ce76", "vout": [{"scriptPubKey": {"reqSigs": 1, "hex": "a914b1e5e25a8413e818d6abecaff9fcac0d617adb6987", "addresses": ["3Huev8ajJfL8QsyneR3cBvbwvcbLzuzGBe"], "asm": "OP_HASH160 b1e5e25a8413e818d6abecaff9fcac0d617adb69 OP_EQUAL", "type": "scripthash"}, "value": 0.00068013, "n": 0}, {"scriptPubKey": {"reqSigs": 1, "hex": "a914bfe3b9b006bd60d821de4768216fbcf3cb0629a487", "addresses": ["3KBdnpNRSUC6xH7oL58GWg3f1QzPQs9FWq"], "asm": "OP_HASH160 bfe3b9b006bd60d821de4768216fbcf3cb0629a4 OP_EQUAL", "type": "scripthash"}, "value": 0.00808032, "n": 1}], "hex": "0100000000010117e7ced7e222568d5b157cf682bb57459f3a286a4ed0f4c4f1bff002097fef3201000000232200204ac72bc93353695ed44de9eabe5eab31fde46c3e5524f6f6c253b37df4627817ffffffff02ad0901000000000017a914b1e5e25a8413e818d6abecaff9fcac0d617adb698760540c000000000017a914bfe3b9b006bd60d821de4768216fbcf3cb0629a4870400483045022100e3db55091d49fbb5123eb807248885d445c046b7cd3b3e5f3a84647af39abb0a02202b65734578b5e6d92a405ebdba0598b4ad9a1b46328f6f9c952cb2228e1a73ad01483045022100d9b95b9fa74284a79c44c1534f0ef57b816becdb00c8a09c225985a89c42fe3e02205161e2a190b86c5678441d0221d9c4c5c987ea22add7180b0432706dc23e981d014752210383dd989bbcdccf0b79b07f5bbd82921af5ac4762329b0aa9346994805e5cd8fc2103871fc2ca08e6950b38867e8e6a0e94ee625223d3aa0df5c65f414c6d784467e252ae00000000", "vin": [{"txinwitness": ["", "3045022100e3db55091d49fbb5123eb807248885d445c046b7cd3b3e5f3a84647af39abb0a02202b65734578b5e6d92a405ebdba0598b4ad9a1b46328f6f9c952cb2228e1a73ad01", "3045022100d9b95b9fa74284a79c44c1534f0ef57b816becdb00c8a09c225985a89c42fe3e02205161e2a190b86c5678441d0221d9c4c5c987ea22add7180b0432706dc23e981d01", "52210383dd989bbcdccf0b79b07f5bbd82921af5ac4762329b0aa9346994805e5cd8fc2103871fc2ca08e6950b38867e8e6a0e94ee625223d3aa0df5c65f414c6d784467e252ae"], "sequence": 4294967295, "scriptSig": {"hex": "2200204ac72bc93353695ed44de9eabe5eab31fde46c3e5524f6f6c253b37df4627817", "asm": "00204ac72bc93353695ed44de9eabe5eab31fde46c3e5524f6f6c253b37df4627817"}, "vout": 1, "txid": "32ef7f0902f0bff1c4f4d04e6a283a9f4557bb82f67c155b8d5622e2d7cee717"}], "txid": "245ded6b1587a61d296761980e886f0c051aa6eb334a33c007a55d0a2f3f7ad4", "blocktime": 1537876114, "version": 1, "confirmations": 11460, "time": 1537876114, "locktime": 0, "vsize": 206, "size": 372}