{"hash": "eb37c7daa5a65b7191d7f95fb9f1d93af2db189a2e71c7a0818a544071210ff0", "blockhash": "0000000000000000001e0dab787dd257d1dbfcb92a98c2207d5e1078be1f4165", "vout": [{"scriptPubKey": {"reqSigs": 1, "hex": "76a9145ebb318848d3ff6de66a42954c26dbd8752e44b788ac", "addresses": ["19dtmTt7YctLoxQqtor1WP9drBSnHgFMge"], "asm": "OP_DUP OP_HASH160 5ebb318848d3ff6de66a42954c26dbd8752e44b7 OP_EQUALVERIFY OP_CHECKSIG", "type": "pubkeyhash"}, "value": 0.13690556, "n": 0}, {"scriptPubKey": {"reqSigs": 1, "hex": "76a9146de31afc56cb5c5e0fa39af0f50f203ec15fc24388ac", "addresses": ["1B22iUGsyih3T8hoFz45GzTdu61W9P2hSr"], "asm": "OP_DUP OP_HASH160 6de31afc56cb5c5e0fa39af0f50f203ec15fc243 OP_EQUALVERIFY OP_CHECKSIG", "type": "pubkeyhash"}, "value": 0.08052853, "n": 1}, {"scriptPubKey": {"reqSigs": 1, "hex": "76a91431da97e10824a8f0021eac9a350a95abca5b1fc688ac", "addresses": ["15YbyXZQXWAUGdMPsm8XR65VQycjaMM63A"], "asm": "OP_DUP OP_HASH160 31da97e10824a8f0021eac9a350a95abca5b1fc6 OP_EQUALVERIFY OP_CHECKSIG", "type": "pubkeyhash"}, "value": 0.11080677, "n": 2}, {"scriptPubKey": {"reqSigs": 1, "hex": "76a9149661a2c230865b5e57ee18a255a4c24cca1ddfc188ac", "addresses": ["1Ei9KdNqRE7H562sWehHFuDjSU491sj6Gb"], "asm": "OP_DUP OP_HASH160 9661a2c230865b5e57ee18a255a4c24cca1ddfc1 OP_EQUALVERIFY OP_CHECKSIG", "type": "pubkeyhash"}, "value": 0.02105855, "n": 3}, {"scriptPubKey": {"reqSigs": 1, "hex": "a914d1e51fe5c0cba3b2393416d5ad51dfb166dfb0f687", "addresses": ["3LpqdVXHiAnHac5FkEcBNWy2Am5H9FNDkR"], "asm": "OP_HASH160 d1e51fe5c0cba3b2393416d5ad51dfb166dfb0f6 OP_EQUAL", "type": "scripthash"}, "value": 0.01101235, "n": 4}, {"scriptPubKey": {"reqSigs": 1, "hex": "76a914cd90a63139914a34bf3fe14a21fd20f3cf3754c888ac", "addresses": ["1KjvojApPAmLQxBXPXcpe39KZDSWBQFxUo"], "asm": "OP_DUP OP_HASH160 cd90a63139914a34bf3fe14a21fd20f3cf3754c8 OP_EQUALVERIFY OP_CHECKSIG", "type": "pubkeyhash"}, "value": 0.01486649, "n": 5}, {"scriptPubKey": {"reqSigs": 1, "hex": "a914dd9dc6a441b75c3a3cf7d52601fba93d55728ce687", "addresses": ["3MtpGQL5k6tYHku7eJBRa35C5DZGaJGvFy"], "asm": "OP_HASH160 dd9dc6a441b75c3a3cf7d52601fba93d55728ce6 OP_EQUAL", "type": "scripthash"}, "value": 0.22739764, "n": 6}, {"scriptPubKey": {"reqSigs": 1, "hex": "a91468e84f55dd42f4865f9325602bf79cbd4a11be1f87", "addresses": ["3BFiVfmVs1caFkiDtX8X5stpY7VYQ64Fi7"], "asm": "OP_HASH160 68e84f55dd42f4865f9325602bf79cbd4a11be1f OP_EQUAL", "type": "scripthash"}, "value": 0.02976954, "n": 7}, {"scriptPubKey": {"reqSigs": 1, "hex": "a914f6ffb3a208f6cdb6c8f75b6819eafbfeb13932db87", "addresses": ["3QD2UCVikJ1EN3s8atnPhCm3xxiED65mus"], "asm": "OP_HASH160 f6ffb3a208f6cdb6c8f75b6819eafbfeb13932db OP_EQUAL", "type": "scripthash"}, "value": 0.04424324, "n": 8}, {"scriptPubKey": {"reqSigs": 1, "hex": "76a9145a1e7def31bfd67ff1f511d7bff4a37cc8ae7fba88ac", "addresses": ["19DWLt7XTrjFCk59VdcJsh2hdrX455Dcwp"], "asm": "OP_DUP OP_HASH160 5a1e7def31bfd67ff1f511d7bff4a37cc8ae7fba OP_EQUALVERIFY OP_CHECKSIG", "type": "pubkeyhash"}, "value": 0.02289562, "n": 9}, {"scriptPubKey": {"reqSigs": 1, "hex": "a9143cf8bfb947b249c634ce452e2080b67c4ab2e12887", "addresses": ["37FQTRzACeC2Se7pgXN1WJH7YA75QsHNXJ"], "asm": "OP_HASH160 3cf8bfb947b249c634ce452e2080b67c4ab2e128 OP_EQUAL", "type": "scripthash"}, "value": 0.20712656, "n": 10}], "hex": "02000000000101e6e409980fde4ac64d7c739dbbf14665df78a49e8bc5bcb7dd08218dc503a926060000001716001408252a4f60bea213aa3fc4dba2f2993664f75faffdffffff0bbce6d000000000001976a9145ebb318848d3ff6de66a42954c26dbd8752e44b788ac75e07a00000000001976a9146de31afc56cb5c5e0fa39af0f50f203ec15fc24388ace513a900000000001976a91431da97e10824a8f0021eac9a350a95abca5b1fc688acff212000000000001976a9149661a2c230865b5e57ee18a255a4c24cca1ddfc188acb3cd10000000000017a914d1e51fe5c0cba3b2393416d5ad51dfb166dfb0f68739af1600000000001976a914cd90a63139914a34bf3fe14a21fd20f3cf3754c888ac34fb5a010000000017a914dd9dc6a441b75c3a3cf7d52601fba93d55728ce687ba6c2d000000000017a91468e84f55dd42f4865f9325602bf79cbd4a11be1f87848243000000000017a914f6ffb3a208f6cdb6c8f75b6819eafbfeb13932db879aef2200000000001976a9145a1e7def31bfd67ff1f511d7bff4a37cc8ae7fba88acd00c3c010000000017a9143cf8bfb947b249c634ce452e2080b67c4ab2e12887024730440220042f1ade70009c936986c36c4e0fd8dcb2a1ad66b258ba57dc766f689cea469302200964b6eb965be69a0f295d02edf04ac18e809f1ebf4cd6f8bd92a1d25051c83f012103f2cb5adb168d38a6dadfad9a4b2561022688477fbd8b86a423756853b57bb56e01000000", "vin": [{"txinwitness": ["30440220042f1ade70009c936986c36c4e0fd8dcb2a1ad66b258ba57dc766f689cea469302200964b6eb965be69a0f295d02edf04ac18e809f1ebf4cd6f8bd92a1d25051c83f01", "03f2cb5adb168d38a6dadfad9a4b2561022688477fbd8b86a423756853b57bb56e"], "sequence": 4294967293, "scriptSig": {"hex": "16001408252a4f60bea213aa3fc4dba2f2993664f75faf", "asm": "001408252a4f60bea213aa3fc4dba2f2993664f75faf"}, "vout": 6, "txid": "26a903c58d2108ddb7bcc58b9ea478df6546f1bb9d737c4dc64ade0f9809e4e6"}], "txid": "245d0d03f2ae0ce7a225fb8febfea57caabd298768102aea125ddf9d71b38186", "blocktime": 1537872475, "version": 2, "confirmations": 11486, "time": 1537872475, "locktime": 1, "vsize": 466, "size": 547}