{"hash": "2460189b59b3adb6662ad4a658fe6cd2d8e4bfc89e5f907acfb9813916c75fe4", "blockhash": "0000000000000000000e13cef7c366c0283d82e591d1acd082e914b08063cdf1", "vout": [{"scriptPubKey": {"reqSigs": 1, "hex": "a914ec2b6dbaaba158e3d01eac67b5110cefc68628c887", "addresses": ["3PDmRHmChH8yRW5PrB9symkTvma9A9DevZ"], "asm": "OP_HASH160 ec2b6dbaaba158e3d01eac67b5110cefc68628c8 OP_EQUAL", "type": "scripthash"}, "value": 0.0001583, "n": 0}, {"scriptPubKey": {"reqSigs": 1, "hex": "76a9140f7f23519355bcda876313a9dc6f0c4e1ba3cf0488ac", "addresses": ["12QwSaXUcmXadH84aEggZN66LTwEwZ8BWW"], "asm": "OP_DUP OP_HASH160 0f7f23519355bcda876313a9dc6f0c4e1ba3cf04 OP_EQUALVERIFY OP_CHECKSIG", "type": "pubkeyhash"}, "value": 0.01667774, "n": 1}], "hex": "0100000001ef5a4e921c346502d964c55422b4db95c8b61595048eefbe9bbc55bb2df20c2e010000006b483045022100dc1bde5dc3e18ddb62bddb8a9b1ae5c4dbdbe3cc3f6806107f5af5e4aeeb33500220698a1bcc189ac0203729dc7468ef1eade31ce476e451e551d6c4a31739430b40012102cb22b2a9dd1aee905dc134e1960a0ba1d88b65bb04d6ff23b0cf96f1b167a730ffffffff02d63d00000000000017a914ec2b6dbaaba158e3d01eac67b5110cefc68628c887be721900000000001976a9140f7f23519355bcda876313a9dc6f0c4e1ba3cf0488ac00000000", "vin": [{"sequence": 4294967295, "scriptSig": {"hex": "483045022100dc1bde5dc3e18ddb62bddb8a9b1ae5c4dbdbe3cc3f6806107f5af5e4aeeb33500220698a1bcc189ac0203729dc7468ef1eade31ce476e451e551d6c4a31739430b40012102cb22b2a9dd1aee905dc134e1960a0ba1d88b65bb04d6ff23b0cf96f1b167a730", "asm": "3045022100dc1bde5dc3e18ddb62bddb8a9b1ae5c4dbdbe3cc3f6806107f5af5e4aeeb33500220698a1bcc189ac0203729dc7468ef1eade31ce476e451e551d6c4a31739430b40[ALL] 02cb22b2a9dd1aee905dc134e1960a0ba1d88b65bb04d6ff23b0cf96f1b167a730"}, "vout": 1, "txid": "2e0cf22dbb55bc9bbeef8e049515b6c895dbb42254c564d90265341c924e5aef"}], "txid": "2460189b59b3adb6662ad4a658fe6cd2d8e4bfc89e5f907acfb9813916c75fe4", "blocktime": 1537871767, "version": 1, "confirmations": 11495, "time": 1537871767, "locktime": 0, "vsize": 224, "size": 224}