{"hash": "3dd752528b65023e84b773738f3ce28ce27e045bb73d97be4b14876512a00b9d", "blockhash": "0000000000000000000dcc0f55137456b1a82d3642486a52398922ac4d620174", "vout": [{"scriptPubKey": {"reqSigs": 1, "hex": "a914709b00ba8109349d39447a6a1c7d4a52b0ee4f9f87", "addresses": ["3BxRHpEuf8faaVvf7QT3bAGnWDGEoLzXWt"], "asm": "OP_HASH160 709b00ba8109349d39447a6a1c7d4a52b0ee4f9f OP_EQUAL", "type": "scripthash"}, "value": 0.00448745, "n": 0}, {"scriptPubKey": {"reqSigs": 1, "hex": "a914e7cd09d7737e3ae1e651c046c9d35b45ab43759087", "addresses": ["3NpfeBF4GMvpGbNTKfYzSUKi8X2YtrXyWv"], "asm": "OP_HASH160 e7cd09d7737e3ae1e651c046c9d35b45ab437590 OP_EQUAL", "type": "scripthash"}, "value": 0.0001169, "n": 1}], "hex": "01000000000101ee4630a609fbc65c52fc2ccae4593fcbabd33fb3ee029a2220b6cf0be109d3860000000017160014b6114a289e91032c2c412bc5a2f854086579bab6ffffffff02e9d806000000000017a914709b00ba8109349d39447a6a1c7d4a52b0ee4f9f87aa2d00000000000017a914e7cd09d7737e3ae1e651c046c9d35b45ab4375908702483045022100bb044ced12b3df2126edad29ec097663f34d9665276a13c26d3cce6cd7133e0202205537c32c80d1391d23839b6a2d39ff8edcbf45ed0db02e4aa6a5bb790a2d4a9601210372fbaa97766ffaf56a9af95057c397b51fc5fc1d72dd5072771a2eff2032c0da00000000", "vin": [{"txinwitness": ["3045022100bb044ced12b3df2126edad29ec097663f34d9665276a13c26d3cce6cd7133e0202205537c32c80d1391d23839b6a2d39ff8edcbf45ed0db02e4aa6a5bb790a2d4a9601", "0372fbaa97766ffaf56a9af95057c397b51fc5fc1d72dd5072771a2eff2032c0da"], "sequence": 4294967295, "scriptSig": {"hex": "160014b6114a289e91032c2c412bc5a2f854086579bab6", "asm": "0014b6114a289e91032c2c412bc5a2f854086579bab6"}, "vout": 0, "txid": "86d309e10bcfb620229a02eeb33fd3abcb3f59e4ca2cfc525cc6fb09a63046ee"}], "txid": "2462f39d431ae15fa5e4e95f1a0f766bad1d0809b1781e87de018175bf25df1d", "blocktime": 1537870268, "version": 1, "confirmations": 11516, "time": 1537870268, "locktime": 0, "vsize": 166, "size": 248}