{"hash": "ad7c1ea6ed8eb695bc831899d2cded9f431e3b3939096d113841bc5d2025b63b", "blockhash": "0000000000000000000e13cef7c366c0283d82e591d1acd082e914b08063cdf1", "vout": [{"scriptPubKey": {"reqSigs": 1, "hex": "76a9148cfbbfff9eb2d7efba45f1e7566442c1a3a4c37c88ac", "addresses": ["1DrTBkeSbr8AJN9pLWumQhHgkZgDbR98eM"], "asm": "OP_DUP OP_HASH160 8cfbbfff9eb2d7efba45f1e7566442c1a3a4c37c OP_EQUALVERIFY OP_CHECKSIG", "type": "pubkeyhash"}, "value": 0.0022436, "n": 0}, {"scriptPubKey": {"reqSigs": 1, "hex": "a9147529219c2aeeac0a5a08c551473c10394f173cac87", "addresses": ["3CNWFqfy8euzeDRqdPv31fH7HQ7aT7TSML"], "asm": "OP_HASH160 7529219c2aeeac0a5a08c551473c10394f173cac OP_EQUAL", "type": "scripthash"}, "value": 0.01030267, "n": 1}], "hex": "02000000000102222e357358e7ad32d0d2e33e9b3647bfab58471d629d80b854f61e44ac00ebd801000000171600149c6a6d1d1ed3034dbb7d7d10f635031e77a344c8feffffff365d53356305f558c9d7b3c4d9a22e253cdc03ee05848938fa615dea7131ab2711000000171600141b914b2974e614c7efbf5b0b9b35481a8d56a699feffffff02686c0300000000001976a9148cfbbfff9eb2d7efba45f1e7566442c1a3a4c37c88ac7bb80f000000000017a9147529219c2aeeac0a5a08c551473c10394f173cac8702483045022100fd76b73e0d588a2a5c83e6ef2ece14d56e9239e0c0c51ba3eb3b47c739d7879202207a32371b71d1da7bfe62f7d3fe7b515c60124fc9f158ae3ae1e884195b85d416012102f63459907437ae864fe2302dac0ea0d192a5b4fe6e1bad120835ec33beda4970024730440220152b6481fb064245b0d29618fc192a513b2b55e209d79e22a3dc82f2922bb90d0220565ff530db5f5fc84b0b97b64c68790b3805e13881eb7389767ef06afa5f43850121032ce71e7f77806091a9161314f3667c3a7d8849acab9fab37539918274f56a76110490800", "vin": [{"txinwitness": ["3045022100fd76b73e0d588a2a5c83e6ef2ece14d56e9239e0c0c51ba3eb3b47c739d7879202207a32371b71d1da7bfe62f7d3fe7b515c60124fc9f158ae3ae1e884195b85d41601", "02f63459907437ae864fe2302dac0ea0d192a5b4fe6e1bad120835ec33beda4970"], "sequence": 4294967294, "scriptSig": {"hex": "1600149c6a6d1d1ed3034dbb7d7d10f635031e77a344c8", "asm": "00149c6a6d1d1ed3034dbb7d7d10f635031e77a344c8"}, "vout": 1, "txid": "d8eb00ac441ef654b8809d621d4758abbf47369b3ee3d2d032ade75873352e22"}, {"txinwitness": ["30440220152b6481fb064245b0d29618fc192a513b2b55e209d79e22a3dc82f2922bb90d0220565ff530db5f5fc84b0b97b64c68790b3805e13881eb7389767ef06afa5f438501", "032ce71e7f77806091a9161314f3667c3a7d8849acab9fab37539918274f56a761"], "sequence": 4294967294, "scriptSig": {"hex": "1600141b914b2974e614c7efbf5b0b9b35481a8d56a699", "asm": "00141b914b2974e614c7efbf5b0b9b35481a8d56a699"}, "vout": 17, "txid": "27ab3171ea5d61fa38898405ee03dc3c252ea2d9c4b3d7c958f5056335535d36"}], "txid": "246b792cb789b8ca8c9d0c685df43455649112ad7c37b737e842647ed6b5ee4c", "blocktime": 1537871767, "version": 2, "confirmations": 11495, "time": 1537871767, "locktime": 542992, "vsize": 259, "size": 421}