{"hash": "438653ce8ea6b48791589ab1be654a3dddcd279003842b0dd053e374e218f941", "blockhash": "0000000000000000001cda96e906b7601b7a6fb1a3b62bca570a9e5d8f4b3de1", "vout": [{"scriptPubKey": {"reqSigs": 1, "hex": "a914cfcb34738e5fda5e07360da0afea3be62cd8797187", "addresses": ["3LdjEB9fo4GfMpTaghkH7WsMJpTjYUJHsx"], "asm": "OP_HASH160 cfcb34738e5fda5e07360da0afea3be62cd87971 OP_EQUAL", "type": "scripthash"}, "value": 0.0108425, "n": 0}, {"scriptPubKey": {"reqSigs": 1, "hex": "76a91452ae9156ecf7d39de4226ccdab89e544fadf5f2a88ac", "addresses": ["18YBXuiC5DxjBsfc4JR4tjskgLBNKzdssU"], "asm": "OP_DUP OP_HASH160 52ae9156ecf7d39de4226ccdab89e544fadf5f2a OP_EQUALVERIFY OP_CHECKSIG", "type": "pubkeyhash"}, "value": 0.00625441, "n": 1}], "hex": "0200000000010106cb8956511ef9a964f5db7f1c45df5506dd09a2fa15a93c746f74b8d12df05000000000171600144a397cedda65659669ffb824125db68275cbb278feffffff025a8b10000000000017a914cfcb34738e5fda5e07360da0afea3be62cd8797187218b0900000000001976a91452ae9156ecf7d39de4226ccdab89e544fadf5f2a88ac02483045022100bde400576cf316663005a947746a0cd1071f354b6f2416cbef006867cf70f26a022021bc5328ee68338a3f1a8bdea51cccdbe62b74030a355e11ce47b7fed5ca088d01210342995357405f2b841908088e559f0b27c08a270edc9d5f0547c021cf2cdb59f113490800", "vin": [{"txinwitness": ["3045022100bde400576cf316663005a947746a0cd1071f354b6f2416cbef006867cf70f26a022021bc5328ee68338a3f1a8bdea51cccdbe62b74030a355e11ce47b7fed5ca088d01", "0342995357405f2b841908088e559f0b27c08a270edc9d5f0547c021cf2cdb59f1"], "sequence": 4294967294, "scriptSig": {"hex": "1600144a397cedda65659669ffb824125db68275cbb278", "asm": "00144a397cedda65659669ffb824125db68275cbb278"}, "vout": 0, "txid": "50f02dd1b8746f743ca915faa209dd0655df451c7fdbf564a9f91e515689cb06"}], "txid": "246dfdd9dfdfdf45b62f9eca8a46b20619006cf8c34ab636b08f5f6324a89e16", "blocktime": 1537873282, "version": 2, "confirmations": 11480, "time": 1537873282, "locktime": 542995, "vsize": 168, "size": 250}