{"hash": "85c654ddf3b08725e0f14fb495bcf4e3149a10aebcc9575d0ce32dc54a8f1269", "blockhash": "0000000000000000000baef3f32e3676a92c3b2e5da21b426e4f302fc371ce76", "vout": [{"scriptPubKey": {"reqSigs": 1, "hex": "76a9148773914037edc5869e68cda7fea2d683f80d1f8b88ac", "addresses": ["1DMCffGo2SQTX6AxbgUzxMWPC9hCLdrzJd"], "asm": "OP_DUP OP_HASH160 8773914037edc5869e68cda7fea2d683f80d1f8b OP_EQUALVERIFY OP_CHECKSIG", "type": "pubkeyhash"}, "value": 2.0, "n": 0}, {"scriptPubKey": {"reqSigs": 1, "hex": "76a91427fbbaecc7ffdf5af790681673901235958d9af388ac", "addresses": ["14eQv133rdFrRyXAi1Y4ZHfbkfmLLQrJNY"], "asm": "OP_DUP OP_HASH160 27fbbaecc7ffdf5af790681673901235958d9af3 OP_EQUALVERIFY OP_CHECKSIG", "type": "pubkeyhash"}, "value": 0.31, "n": 1}, {"scriptPubKey": {"reqSigs": 1, "hex": "a9141db23d2628486fed13d6f7230872dec3eabb7a0f87", "addresses": ["34Q33MquPCGfmhRwZtj3QQT889vGqmeCkk"], "asm": "OP_HASH160 1db23d2628486fed13d6f7230872dec3eabb7a0f OP_EQUAL", "type": "scripthash"}, "value": 0.18995989, "n": 2}], "hex": "010000000001020996964a7bf7a444afae59877edbb3befdfc41ba46c62b3ad45674da7f9d58cf0100000017160014c898f4f395d0b554ccf5abe27c126db42975c886ffffffffc38c2999b6a92e276b7640a7aea665fdfa53d0b4171f8ec7437406d772dca2ab0100000017160014c898f4f395d0b554ccf5abe27c126db42975c886ffffffff0300c2eb0b000000001976a9148773914037edc5869e68cda7fea2d683f80d1f8b88acc005d901000000001976a91427fbbaecc7ffdf5af790681673901235958d9af388ac15db21010000000017a9141db23d2628486fed13d6f7230872dec3eabb7a0f8702483045022100f0e8fabba66c86017380ca56a4db7dd65d509c9fb668ca03a002a4b9173ca67502206ad3850d3fce95b1968a9610c2c17edd8052263a783e7a5c7879a8a294991b1f0121033f4829a4da714a4c4c559dd190ee897fa791c5185070f56fc82bd67746b1d2b502483045022100818e4ead2dc4eb8c0f8db6b216e7e5d9a102d79019b24b85bfdddb602f4d037d02200be0376eca416579d5f06894607aa9d91e29af92fbffc4b5f1218d6195ca20100121033f4829a4da714a4c4c559dd190ee897fa791c5185070f56fc82bd67746b1d2b500000000", "vin": [{"txinwitness": ["3045022100f0e8fabba66c86017380ca56a4db7dd65d509c9fb668ca03a002a4b9173ca67502206ad3850d3fce95b1968a9610c2c17edd8052263a783e7a5c7879a8a294991b1f01", "033f4829a4da714a4c4c559dd190ee897fa791c5185070f56fc82bd67746b1d2b5"], "sequence": 4294967295, "scriptSig": {"hex": "160014c898f4f395d0b554ccf5abe27c126db42975c886", "asm": "0014c898f4f395d0b554ccf5abe27c126db42975c886"}, "vout": 1, "txid": "cf589d7fda7456d43a2bc646ba41fcfdbeb3db7e8759aeaf44a4f77b4a969609"}, {"txinwitness": ["3045022100818e4ead2dc4eb8c0f8db6b216e7e5d9a102d79019b24b85bfdddb602f4d037d02200be0376eca416579d5f06894607aa9d91e29af92fbffc4b5f1218d6195ca201001", "033f4829a4da714a4c4c559dd190ee897fa791c5185070f56fc82bd67746b1d2b5"], "sequence": 4294967295, "scriptSig": {"hex": "160014c898f4f395d0b554ccf5abe27c126db42975c886", "asm": "0014c898f4f395d0b554ccf5abe27c126db42975c886"}, "vout": 1, "txid": "aba2dc72d7067443c78e1f17b4d053fafd65a6aea740766b272ea9b699298cc3"}], "txid": "247474dd7eb9e44dac1952424f3ae2e4f5842dc9a8272ea60e167d57a1d5bbf2", "blocktime": 1537876114, "version": 1, "confirmations": 11459, "time": 1537876114, "locktime": 0, "vsize": 293, "size": 456}