{"hash": "247603f3832385d6d9a9b31b1737fb2ebbf716b9e4065ef1b39c0d4d1e1d3c10", "blockhash": "0000000000000000000e13cef7c366c0283d82e591d1acd082e914b08063cdf1", "vout": [{"scriptPubKey": {"reqSigs": 1, "hex": "a9145cdaadf828ca2c5a6ee98503c4899202ac57efaa87", "addresses": ["3A9z4KDa5z6GUx37cyXyWMbJUcjVVVH5uJ"], "asm": "OP_HASH160 5cdaadf828ca2c5a6ee98503c4899202ac57efaa OP_EQUAL", "type": "scripthash"}, "value": 0.00649444, "n": 0}, {"scriptPubKey": {"reqSigs": 1, "hex": "76a91419dd47ce8b5fffdda4310301f1ab5efce13ca04c88ac", "addresses": ["13MkydnAyAgRzEXiJfybwDbCgFUsoJiAua"], "asm": "OP_DUP OP_HASH160 19dd47ce8b5fffdda4310301f1ab5efce13ca04c OP_EQUALVERIFY OP_CHECKSIG", "type": "pubkeyhash"}, "value": 0.0007396, "n": 1}], "hex": "010000000286ed5ac9bafc2588ec6ca5338c1450ada063459d8b33c5183d8c85b254f8249e00000000d90047304402204598b7d68f9356a2cc4dc99ef10fd281675761244b7edb151eea8ad58daf19f3022045a041818af0f382106f33d7a74182204bcd4d06a1306460176b48dc4e9eebe30147304402200b838f6bfe276e629aa37ee171d8ea8f79dab6ca27ae257a5cf07a9f4029ea1d02204668327ae3e9043c4a149761c541c648277d991cb4818663df8c529dc6ddeaa001475221027449102e4d917d9b8b62611ea5a60c0eb37ac6fbb668adac293586f976ba08002102907a54bed8ad74b3f35638c60114ca240a308cb986f3f2f306178869a8880b6152aeffffffff2017564a892da37f8d4b9550486374a1b9d4ae6e7fbed1f8c7a99ba63dd681f001000000d900473044022006134d8ac8072c45531c5ad5d9bac1fd0d931eebf1c4cd506cca8c98673a471702203392c1399d87616504e998ecd10141616e0a7d37d7be5e0927a3a56c998d6f4f01473044022062fd64abc5a74aaf0e67f2e368b37a3034add3a83076d5c891696a303fd05282022043e9b1c5aa4bbf0b7065c70b744272eeb56e5e2b1c3c05ac8a464a93d537104e01475221023949f605dba203b4f10f1cd10bf61173b0bd74aa4097527557595ccf3518755a2102907a54bed8ad74b3f35638c60114ca240a308cb986f3f2f306178869a8880b6152aeffffffff02e4e809000000000017a9145cdaadf828ca2c5a6ee98503c4899202ac57efaa87e8200100000000001976a91419dd47ce8b5fffdda4310301f1ab5efce13ca04c88ac00000000", "vin": [{"sequence": 4294967295, "scriptSig": {"hex": "0047304402204598b7d68f9356a2cc4dc99ef10fd281675761244b7edb151eea8ad58daf19f3022045a041818af0f382106f33d7a74182204bcd4d06a1306460176b48dc4e9eebe30147304402200b838f6bfe276e629aa37ee171d8ea8f79dab6ca27ae257a5cf07a9f4029ea1d02204668327ae3e9043c4a149761c541c648277d991cb4818663df8c529dc6ddeaa001475221027449102e4d917d9b8b62611ea5a60c0eb37ac6fbb668adac293586f976ba08002102907a54bed8ad74b3f35638c60114ca240a308cb986f3f2f306178869a8880b6152ae", "asm": "0 304402204598b7d68f9356a2cc4dc99ef10fd281675761244b7edb151eea8ad58daf19f3022045a041818af0f382106f33d7a74182204bcd4d06a1306460176b48dc4e9eebe3[ALL] 304402200b838f6bfe276e629aa37ee171d8ea8f79dab6ca27ae257a5cf07a9f4029ea1d02204668327ae3e9043c4a149761c541c648277d991cb4818663df8c529dc6ddeaa0[ALL] 5221027449102e4d917d9b8b62611ea5a60c0eb37ac6fbb668adac293586f976ba08002102907a54bed8ad74b3f35638c60114ca240a308cb986f3f2f306178869a8880b6152ae"}, "vout": 0, "txid": "9e24f854b2858c3d18c5338b9d4563a0ad50148c33a56cec8825fcbac95aed86"}, {"sequence": 4294967295, "scriptSig": {"hex": "00473044022006134d8ac8072c45531c5ad5d9bac1fd0d931eebf1c4cd506cca8c98673a471702203392c1399d87616504e998ecd10141616e0a7d37d7be5e0927a3a56c998d6f4f01473044022062fd64abc5a74aaf0e67f2e368b37a3034add3a83076d5c891696a303fd05282022043e9b1c5aa4bbf0b7065c70b744272eeb56e5e2b1c3c05ac8a464a93d537104e01475221023949f605dba203b4f10f1cd10bf61173b0bd74aa4097527557595ccf3518755a2102907a54bed8ad74b3f35638c60114ca240a308cb986f3f2f306178869a8880b6152ae", "asm": "0 3044022006134d8ac8072c45531c5ad5d9bac1fd0d931eebf1c4cd506cca8c98673a471702203392c1399d87616504e998ecd10141616e0a7d37d7be5e0927a3a56c998d6f4f[ALL] 3044022062fd64abc5a74aaf0e67f2e368b37a3034add3a83076d5c891696a303fd05282022043e9b1c5aa4bbf0b7065c70b744272eeb56e5e2b1c3c05ac8a464a93d537104e[ALL] 5221023949f605dba203b4f10f1cd10bf61173b0bd74aa4097527557595ccf3518755a2102907a54bed8ad74b3f35638c60114ca240a308cb986f3f2f306178869a8880b6152ae"}, "vout": 1, "txid": "f081d63da69ba9c7f8d1be7f6eaed4b9a174634850954b8d7fa32d894a561720"}], "txid": "247603f3832385d6d9a9b31b1737fb2ebbf716b9e4065ef1b39c0d4d1e1d3c10", "blocktime": 1537871767, "version": 1, "confirmations": 11495, "time": 1537871767, "locktime": 0, "vsize": 592, "size": 592}