{"hash": "247e3c1102759478c1269f9f0fa453b6b826e7f7b7e025c3ef890e945508720c", "blockhash": "0000000000000000000baef3f32e3676a92c3b2e5da21b426e4f302fc371ce76", "vout": [{"scriptPubKey": {"reqSigs": 1, "hex": "76a914b6ed341b997c532882d30d2a31056e471df391a988ac", "addresses": ["1HgE974PjTgVe5h7TC3nR5ePP64a7bPvka"], "asm": "OP_DUP OP_HASH160 b6ed341b997c532882d30d2a31056e471df391a9 OP_EQUALVERIFY OP_CHECKSIG", "type": "pubkeyhash"}, "value": 0.0007558, "n": 0}, {"scriptPubKey": {"type": "nulldata", "hex": "6a4c500000782200017cdcad2d95c4798fc698134b019d6ddc0f1b8ff117702940d64fa54d8eb21b66e7736205396f49b98d72f7e7af165baa1d97061451c8c779c6dfbc9a9526289ac0f6612cd74e33776ee4", "asm": "OP_RETURN 0000782200017cdcad2d95c4798fc698134b019d6ddc0f1b8ff117702940d64fa54d8eb21b66e7736205396f49b98d72f7e7af165baa1d97061451c8c779c6dfbc9a9526289ac0f6612cd74e33776ee4"}, "value": 0.0, "n": 1}], "hex": "01000000018b22353469cbad66de2b363d9902d4e54c643ba170e96cce58866f3487bf9e17000000006b483045022100cd5d761e02bb58ad3661387c3ab4994ca7cb248bfbe0704f9c66150cb1d1a74b022001a2c6e11242b690f90b7e54fac7cb65bd2d36584bfac9dd24bb0f985690a7880121028450e9e9af04832e7b78f9990001073d1b989a37312188e6b7ebc94baa1872a6ffffffff023c270100000000001976a914b6ed341b997c532882d30d2a31056e471df391a988ac0000000000000000536a4c500000782200017cdcad2d95c4798fc698134b019d6ddc0f1b8ff117702940d64fa54d8eb21b66e7736205396f49b98d72f7e7af165baa1d97061451c8c779c6dfbc9a9526289ac0f6612cd74e33776ee400000000", "vin": [{"sequence": 4294967295, "scriptSig": {"hex": "483045022100cd5d761e02bb58ad3661387c3ab4994ca7cb248bfbe0704f9c66150cb1d1a74b022001a2c6e11242b690f90b7e54fac7cb65bd2d36584bfac9dd24bb0f985690a7880121028450e9e9af04832e7b78f9990001073d1b989a37312188e6b7ebc94baa1872a6", "asm": "3045022100cd5d761e02bb58ad3661387c3ab4994ca7cb248bfbe0704f9c66150cb1d1a74b022001a2c6e11242b690f90b7e54fac7cb65bd2d36584bfac9dd24bb0f985690a788[ALL] 028450e9e9af04832e7b78f9990001073d1b989a37312188e6b7ebc94baa1872a6"}, "vout": 0, "txid": "179ebf87346f8658ce6ce970a13b644ce5d402993d362bde66adcb693435228b"}], "txid": "247e3c1102759478c1269f9f0fa453b6b826e7f7b7e025c3ef890e945508720c", "blocktime": 1537876114, "version": 1, "confirmations": 11461, "time": 1537876114, "locktime": 0, "vsize": 284, "size": 284}