{"hash": "9464c6974021afb33a7b677fc196947ec300a1847c5d535005035154d86d9e7f", "blockhash": "000000000000000000022b45ed06c6f4ccd3cf7fb5ba4856ebd2e58215665228", "vout": [{"scriptPubKey": {"reqSigs": 1, "hex": "a91409f4af8b65aa375907a8e7eff81419f001e183d087", "addresses": ["32bf8LDdJRGFuen16hRNrhcmr2KWDxeQte"], "asm": "OP_HASH160 09f4af8b65aa375907a8e7eff81419f001e183d0 OP_EQUAL", "type": "scripthash"}, "value": 0.10974183, "n": 0}, {"scriptPubKey": {"reqSigs": 1, "hex": "a9140ae341e667046bee6396510c96a59ec6b989bbdb87", "addresses": ["32gavargk6hgQTHw8bBBYaCJyg6fFf3vCp"], "asm": "OP_HASH160 0ae341e667046bee6396510c96a59ec6b989bbdb OP_EQUAL", "type": "scripthash"}, "value": 0.00997152, "n": 1}], "hex": "0200000000010753ed48d88d6c1022fc39721335d7b8ebd72e416c74f826b29ff33379b41e800842000000171600147f35c8ef1a214923c2f7e22fcb44c04713a53d34feffffff6ac3ce8831ba8a28ba0481334878f9c4cb3405e2023af6f05997f5ba399238dd04000000171600147fdaba20d19688e79759ad70808bf3f9d238ac76feffffffa352906fd4e77fcd0ab5329751c8345d941f110b26820c940a4ff29afa9834da01000000171600144275e8ce9ab3b52f65249ad7381ee0c971953ba1feffffffaa977ec462d3099e05f1a19c0123939fe9c5526918fb8e17d8f21a84b97b6d55010000001716001426e2649455ddd58056895d14e941fa244c3d3221feffffffba93efa52425a5eb06ff090da7954c99916f606cc4eb1496cf440ce1d985930704000000171600147ceec95649af2e98e764872d1dce3c093dc47792feffffffc643589a0463d06ffa72179461cb15b47c12cba9839550e7a3482574c21c79960000000017160014ed69247304642629bdd28dcc8f2874dc7ad2b451feffffffd06cdaa1b7eaaf11e3bf115eacd6c6787bab6231369605455fd5f0fae1e06e7e1500000017160014e1dc2baf33af73e70fe5e0d000d7d8cf0251631efeffffff02e773a7000000000017a91409f4af8b65aa375907a8e7eff81419f001e183d08720370f000000000017a9140ae341e667046bee6396510c96a59ec6b989bbdb870247304402206b13c6f518b4eb724b824345ed62ad3a9a83485f1af2160bd9d3fa05b1895a72022074a7f61c6cb9fcecd47ab58efd1d884fcfe1c69a888f200d2da49378a89427a00121022c85a37fb75b4021c6659a9e7a4e45a688855f825a5d531eee5dde40383c80b40247304402205bd6c0e3960a40e585b32acf1cdbed0db9a651caf57c793c2babd7ffc834489b02205d4ffb1831a2602b647e0caa5b0bb745ca74156dba3e59c91fc205258dab4b80012102ce317f78f592673e03085629c06c55ccf871792cc4e23dc2f78942765413f6c40247304402203832e844336ea688cd1770fb26138debe43a327fc788d4810f26b95cdeee5c2a02205e4a19e2dc08185efbf8e82b8cec925d9019d3b03704bab32d22a24ebb94b84d0121039e055db0bea93f874294b259a3792658fc16911a2cd514be7077bac0dcb38d5f0247304402201eb7b418ae33cc7da796b58966364698f6aab9cdd567f614fc787aa7f5fcdeb20220040ac57c40b4332604be1630d4bafa03f20d7f3c942fcdeea72ad12f46a143df0121027ed7a7fda8b4802a0c0b0dbf5c6b9398d5068712080a3e6cfdc48545a68d607402483045022100aebe727249f05278bbb90c7bdfc6dac8c6435723929e9b2bd4ad3a2c855ddf960220191113ab82df418bc45ce09b343cc0aa9e6290aa634ccd9dcd5f6bd962d417e7012102f312a3423e5192094fbb5b5af3bfdc21fd0215cdc8824fa8cd1ba7e10880ac4e0247304402203a9ed4a1a7eef237b5d673e173d2925bdb6385e3fa524d39060b3708c7c89223022061f671e6384c1883203c2f643f1c4f1e695494216d0406f22d4b7703a58513780121037b1ce9d9eb92a0dcd11cc63cad524a850aa4d47fea27299c3b16df275ce667940247304402203a3d01c23c4ddc404b72ba10e9a1a84f8303c1df685e3350d88ec3bd8a98126802202881586086a5e7b51cc7d3e5eed6a6e9af3d87c6e2fe5ae6951b45c44a82ee4f012103fbf7a71d474fcdbb65e246e1230089752654a09612236bf6d2a7389bb0e683990b490800", "vin": [{"txinwitness": ["304402206b13c6f518b4eb724b824345ed62ad3a9a83485f1af2160bd9d3fa05b1895a72022074a7f61c6cb9fcecd47ab58efd1d884fcfe1c69a888f200d2da49378a89427a001", "022c85a37fb75b4021c6659a9e7a4e45a688855f825a5d531eee5dde40383c80b4"], "sequence": 4294967294, "scriptSig": {"hex": "1600147f35c8ef1a214923c2f7e22fcb44c04713a53d34", "asm": "00147f35c8ef1a214923c2f7e22fcb44c04713a53d34"}, "vout": 66, "txid": "08801eb47933f39fb226f8746c412ed7ebb8d735137239fc22106c8dd848ed53"}, {"txinwitness": ["304402205bd6c0e3960a40e585b32acf1cdbed0db9a651caf57c793c2babd7ffc834489b02205d4ffb1831a2602b647e0caa5b0bb745ca74156dba3e59c91fc205258dab4b8001", "02ce317f78f592673e03085629c06c55ccf871792cc4e23dc2f78942765413f6c4"], "sequence": 4294967294, "scriptSig": {"hex": "1600147fdaba20d19688e79759ad70808bf3f9d238ac76", "asm": "00147fdaba20d19688e79759ad70808bf3f9d238ac76"}, "vout": 4, "txid": "dd389239baf59759f0f63a02e20534cbc4f97848338104ba288aba3188cec36a"}, {"txinwitness": ["304402203832e844336ea688cd1770fb26138debe43a327fc788d4810f26b95cdeee5c2a02205e4a19e2dc08185efbf8e82b8cec925d9019d3b03704bab32d22a24ebb94b84d01", "039e055db0bea93f874294b259a3792658fc16911a2cd514be7077bac0dcb38d5f"], "sequence": 4294967294, "scriptSig": {"hex": "1600144275e8ce9ab3b52f65249ad7381ee0c971953ba1", "asm": "00144275e8ce9ab3b52f65249ad7381ee0c971953ba1"}, "vout": 1, "txid": "da3498fa9af24f0a940c82260b111f945d34c8519732b50acd7fe7d46f9052a3"}, {"txinwitness": ["304402201eb7b418ae33cc7da796b58966364698f6aab9cdd567f614fc787aa7f5fcdeb20220040ac57c40b4332604be1630d4bafa03f20d7f3c942fcdeea72ad12f46a143df01", "027ed7a7fda8b4802a0c0b0dbf5c6b9398d5068712080a3e6cfdc48545a68d6074"], "sequence": 4294967294, "scriptSig": {"hex": "16001426e2649455ddd58056895d14e941fa244c3d3221", "asm": "001426e2649455ddd58056895d14e941fa244c3d3221"}, "vout": 1, "txid": "556d7bb9841af2d8178efb186952c5e99f9323019ca1f1059e09d362c47e97aa"}, {"txinwitness": ["3045022100aebe727249f05278bbb90c7bdfc6dac8c6435723929e9b2bd4ad3a2c855ddf960220191113ab82df418bc45ce09b343cc0aa9e6290aa634ccd9dcd5f6bd962d417e701", "02f312a3423e5192094fbb5b5af3bfdc21fd0215cdc8824fa8cd1ba7e10880ac4e"], "sequence": 4294967294, "scriptSig": {"hex": "1600147ceec95649af2e98e764872d1dce3c093dc47792", "asm": "00147ceec95649af2e98e764872d1dce3c093dc47792"}, "vout": 4, "txid": "079385d9e10c44cf9614ebc46c606f91994c95a70d09ff06eba52524a5ef93ba"}, {"txinwitness": ["304402203a9ed4a1a7eef237b5d673e173d2925bdb6385e3fa524d39060b3708c7c89223022061f671e6384c1883203c2f643f1c4f1e695494216d0406f22d4b7703a585137801", "037b1ce9d9eb92a0dcd11cc63cad524a850aa4d47fea27299c3b16df275ce66794"], "sequence": 4294967294, "scriptSig": {"hex": "160014ed69247304642629bdd28dcc8f2874dc7ad2b451", "asm": "0014ed69247304642629bdd28dcc8f2874dc7ad2b451"}, "vout": 0, "txid": "96791cc2742548a3e7509583a9cb127cb415cb61941772fa6fd063049a5843c6"}, {"txinwitness": ["304402203a3d01c23c4ddc404b72ba10e9a1a84f8303c1df685e3350d88ec3bd8a98126802202881586086a5e7b51cc7d3e5eed6a6e9af3d87c6e2fe5ae6951b45c44a82ee4f01", "03fbf7a71d474fcdbb65e246e1230089752654a09612236bf6d2a7389bb0e68399"], "sequence": 4294967294, "scriptSig": {"hex": "160014e1dc2baf33af73e70fe5e0d000d7d8cf0251631e", "asm": "0014e1dc2baf33af73e70fe5e0d000d7d8cf0251631e"}, "vout": 21, "txid": "7e6ee0e1faf0d55f450596363162ab7b78c6d6ac5e11bfe311afeab7a1da6cd0"}], "txid": "247ec9e90f7bceed9f60fa5cb446f68d2ceff28ef6f00fbec24d22ca87ec6809", "blocktime": 1537869901, "version": 2, "confirmations": 11523, "time": 1537869901, "locktime": 542987, "vsize": 710, "size": 1274}