{"hash": "8586f742e5e52ad3b7c66d5fadea2750f47c0ee496250fdb94edf4b97fbf3339", "blockhash": "00000000000000000018f53835495a110e01622372bf6ae95dc86f2b0ab887b0", "vout": [{"scriptPubKey": {"reqSigs": 1, "hex": "a9147cbf51a9fba7b47614c92fdef3181265f102222387", "addresses": ["3D4cuQcPXGK517MuJdfjLfdYA1Va7cZQrh"], "asm": "OP_HASH160 7cbf51a9fba7b47614c92fdef3181265f1022223 OP_EQUAL", "type": "scripthash"}, "value": 0.01414, "n": 0}, {"scriptPubKey": {"reqSigs": 1, "hex": "a9141988a27e3c2df4ddee7fad5a2303d086179b2a3087", "addresses": ["3422VtS7UtCvXYxoXMVp6eZupR252z85oC"], "asm": "OP_HASH160 1988a27e3c2df4ddee7fad5a2303d086179b2a30 OP_EQUAL", "type": "scripthash"}, "value": 2.43794825, "n": 1}, {"scriptPubKey": {"reqSigs": 1, "hex": "76a914221b92820cfe1e78f2b25f60476ac5b4859570cc88ac", "addresses": ["147M1HBb7GRJRBSKBPwEAKAbi9s154wTT4"], "asm": "OP_DUP OP_HASH160 221b92820cfe1e78f2b25f60476ac5b4859570cc OP_EQUALVERIFY OP_CHECKSIG", "type": "pubkeyhash"}, "value": 0.00166, "n": 2}], "hex": "01000000000101be3d781b8923a1a3759c0bbf08f36f273939049534e622e6063f1817c14779df010000002322002065d416c48a8072e0ac51c2d111eb194f009caef0332446c1bf2097316cf07fa9ffffffff03709315000000000017a9147cbf51a9fba7b47614c92fdef3181265f1022223878903880e0000000017a9141988a27e3c2df4ddee7fad5a2303d086179b2a308770880200000000001976a914221b92820cfe1e78f2b25f60476ac5b4859570cc88ac040047304402204be27b2bcada4c074c902ad83e06c12e2047893daf5fdc9d9c6bb46257a76ce202206797106a8cb788b55ab461de2eb4461fa93ea69803745d825f419a7c8848e9cb01483045022100b4cd3c5de108bcd50b217cd2a5e3e2e05de2b11722003525e8a261a9cb3037c602205346a8c5ce8d8256fa828a287999f15c12c4603796991dca2e6fbd9fed2858750169522102f44abcf9e23c9a460da309ccca56c619c04eed3bde2c2cff5e7d78fbcd980b9c2103c9443cf3047bb6c2c82f1b0c44c36109cdc3d0d601d16d1189a1602bf8d1a0a02103bfe867059274412412e088af5572b92168c2ef495cfe6c9b7a753a009eb37c4853ae00000000", "vin": [{"txinwitness": ["", "304402204be27b2bcada4c074c902ad83e06c12e2047893daf5fdc9d9c6bb46257a76ce202206797106a8cb788b55ab461de2eb4461fa93ea69803745d825f419a7c8848e9cb01", "3045022100b4cd3c5de108bcd50b217cd2a5e3e2e05de2b11722003525e8a261a9cb3037c602205346a8c5ce8d8256fa828a287999f15c12c4603796991dca2e6fbd9fed28587501", "522102f44abcf9e23c9a460da309ccca56c619c04eed3bde2c2cff5e7d78fbcd980b9c2103c9443cf3047bb6c2c82f1b0c44c36109cdc3d0d601d16d1189a1602bf8d1a0a02103bfe867059274412412e088af5572b92168c2ef495cfe6c9b7a753a009eb37c4853ae"], "sequence": 4294967295, "scriptSig": {"hex": "22002065d416c48a8072e0ac51c2d111eb194f009caef0332446c1bf2097316cf07fa9", "asm": "002065d416c48a8072e0ac51c2d111eb194f009caef0332446c1bf2097316cf07fa9"}, "vout": 1, "txid": "df7947c117183f06e622e63495043939276ff308bf0b9c75a3a123891b783dbe"}], "txid": "247f78e86e0504d8f262a54965ce980050b4aae5987ebcfca8b8d08cc0d559b4", "blocktime": 1537870928, "version": 1, "confirmations": 11512, "time": 1537870928, "locktime": 0, "vsize": 248, "size": 439}