{"hash": "24836fbe392a543cac77ff42205cd19a44d59cbfa2075799c6f4497244f7d1f8", "blockhash": "00000000000000000024a2167bbff67b0be802c0b01cdd79e6331c2be6459f87", "vout": [{"scriptPubKey": {"reqSigs": 1, "hex": "76a91492eff69ccb413865188d8f7f8065c67ad51678f688ac", "addresses": ["1EPw7xCY5MZrZwm5YnCywQoAgbQHWJcvt6"], "asm": "OP_DUP OP_HASH160 92eff69ccb413865188d8f7f8065c67ad51678f6 OP_EQUALVERIFY OP_CHECKSIG", "type": "pubkeyhash"}, "value": 0.008088, "n": 0}, {"scriptPubKey": {"reqSigs": 1, "hex": "76a914b055210d14a2f792309f4c14728f81ca6f6e3e5188ac", "addresses": ["1H5MudtvA8MFwngHtSB6bnKn9gTffzh4jZ"], "asm": "OP_DUP OP_HASH160 b055210d14a2f792309f4c14728f81ca6f6e3e51 OP_EQUALVERIFY OP_CHECKSIG", "type": "pubkeyhash"}, "value": 0.15035389, "n": 1}], "hex": "0100000001b5eb07e571465a1c491e4ad6c2349f0f92c0cdc7743eaeedd63f0ce5719cf334010000006a47304402206ebef09c0ec6a4786ebb81b63abfb50d1f132e481e3971ef2f6a36800a4ebec002203e85749d5ec61656161400b36c0bae17f1da6a422cadfd191a92ff027e54785c012102f1db3f65608109ac7547f55fd1b99610732e01aa14a67b913bf106f9ed65e6b5fdffffff0260570c00000000001976a91492eff69ccb413865188d8f7f8065c67ad51678f688acfd6be500000000001976a914b055210d14a2f792309f4c14728f81ca6f6e3e5188ac0c490800", "vin": [{"sequence": 4294967293, "scriptSig": {"hex": "47304402206ebef09c0ec6a4786ebb81b63abfb50d1f132e481e3971ef2f6a36800a4ebec002203e85749d5ec61656161400b36c0bae17f1da6a422cadfd191a92ff027e54785c012102f1db3f65608109ac7547f55fd1b99610732e01aa14a67b913bf106f9ed65e6b5", "asm": "304402206ebef09c0ec6a4786ebb81b63abfb50d1f132e481e3971ef2f6a36800a4ebec002203e85749d5ec61656161400b36c0bae17f1da6a422cadfd191a92ff027e54785c[ALL] 02f1db3f65608109ac7547f55fd1b99610732e01aa14a67b913bf106f9ed65e6b5"}, "vout": 1, "txid": "34f39c71e50c3fd6edae3e74c7cdc0920f9f34c2d64a1e491c5a4671e507ebb5"}], "txid": "24836fbe392a543cac77ff42205cd19a44d59cbfa2075799c6f4497244f7d1f8", "blocktime": 1537870564, "version": 1, "confirmations": 11515, "time": 1537870564, "locktime": 542988, "vsize": 225, "size": 225}