{"hash": "8a101ba92f508a71fa73441d1ce80c50a20b4b01365afaa4d453125f049dd589", "blockhash": "0000000000000000001cda96e906b7601b7a6fb1a3b62bca570a9e5d8f4b3de1", "vout": [{"scriptPubKey": {"reqSigs": 1, "hex": "76a9142f718a1bba7425dc276c03d4bd65cb42959c2d4188ac", "addresses": ["15KrmsutRU14CAn8ZuXsYATdW8TgQXBxXJ"], "asm": "OP_DUP OP_HASH160 2f718a1bba7425dc276c03d4bd65cb42959c2d41 OP_EQUALVERIFY OP_CHECKSIG", "type": "pubkeyhash"}, "value": 0.00313132, "n": 0}, {"scriptPubKey": {"reqSigs": 1, "hex": "0014b332123eac990811eb974fc795888bac6d5e9911", "addresses": ["bc1qkvepy04vnyypr6uhflretzyt43k4axg3vtezst"], "asm": "0 b332123eac990811eb974fc795888bac6d5e9911", "type": "witness_v0_keyhash"}, "value": 8.886e-05, "n": 1}], "hex": "010000000001014f783e77eb57e4044d0cc779f2adc23be36714ab33675e519176c336fdd1454e2a000000171600146b977c8ab9f16c89ad17f7772f99d6245a9a135effffffff022cc70400000000001976a9142f718a1bba7425dc276c03d4bd65cb42959c2d4188acb622000000000000160014b332123eac990811eb974fc795888bac6d5e991102473044022029b79680c9ed1c63ee9ae558d3b207d0c71f5643d48a0bd9a208006039d29d8502201235847ab6f96622299c4e5bc326243ccdd1410807e29306e0aef6586a67823b012102e9b94908aadd9e4b532c61029bf9002f097bc3064aa7c2a5a29149b62de4a94b00000000", "vin": [{"txinwitness": ["3044022029b79680c9ed1c63ee9ae558d3b207d0c71f5643d48a0bd9a208006039d29d8502201235847ab6f96622299c4e5bc326243ccdd1410807e29306e0aef6586a67823b01", "02e9b94908aadd9e4b532c61029bf9002f097bc3064aa7c2a5a29149b62de4a94b"], "sequence": 4294967295, "scriptSig": {"hex": "1600146b977c8ab9f16c89ad17f7772f99d6245a9a135e", "asm": "00146b977c8ab9f16c89ad17f7772f99d6245a9a135e"}, "vout": 42, "txid": "4e45d1fd36c37691515e6733ab1467e33bc2adf279c70c4d04e457eb773e784f"}], "txid": "2487b0dc034bc236e9ebacc7b627116f2e79fab71042356bdd3238b367e247ac", "blocktime": 1537873282, "version": 1, "confirmations": 11484, "time": 1537873282, "locktime": 0, "vsize": 167, "size": 248}