{"hash": "2488ad5a02eb07a31a277a4e4f64212e54a647eb41aedccd7a7db835f633ea89", "blockhash": "000000000000000000022b45ed06c6f4ccd3cf7fb5ba4856ebd2e58215665228", "vout": [{"scriptPubKey": {"reqSigs": 1, "hex": "76a914eb8a059627fa85aa22c30ab67ef111104fc857cf88ac", "addresses": ["1NUR91G84sE3m9r8JrLS3ZiwNa1WKuxhfB"], "asm": "OP_DUP OP_HASH160 eb8a059627fa85aa22c30ab67ef111104fc857cf OP_EQUALVERIFY OP_CHECKSIG", "type": "pubkeyhash"}, "value": 0.47053744, "n": 0}], "hex": "020000000934969fb3c95ddbee467b7c911dc82162f507c16cecc3b0891240d5188be38c82000000006b4830450221009a3f7c3470686740eee650e0394e6f3da422fe510bfbdb861a67c293ba047c950220402cee8ac95fa23547db8b0005ec8015ccada4f6d27c28a7a5d6b26877d71382012103b1235e69489816c82897169866522e0702abd63212dbd74f807d71462ca43eacfeffffff75d599f39d3e37e1f7fed6370f842b1c9c049c92d5b83d58f5a2541a96863bd9000000006a473044022021e5794aac2e7cbcd3f2df344468d7852355e1fd784a57fa49cce80b70a6a89302204eba977e0863aaf81634b1ecea6adc6364b08c8cf735c68e2d4d05169284a292012102060be6eeca750ad5e0ad3d7df0fcb8ea90985c685424b0cb4b093b8aaf524fbffeffffff8ec2438bf4732f39fdd8017c75582fb8626b080098671a75f5d954177db79249040000006a47304402202971b5999c113fa545183beaa9b632641b860e17135f50e229b9664676ea3d7c022000b3eb8c50bd0d867a8e5d3ed72c82d98fa0d8e14e221d0a7f363a43e8b1f9430121026d210666881eec04954ffabc323daff3573c3bb625bada7642f5f2da3e0e46affeffffffa8b34f7707c0291eeca0a0ace2737f05ff35ce040cc89f2d628ee3569ce15c76010000006b483045022100e6c0562db38392bc04b9a1503d2cec427f29e72927fbf71f0010b4721ca7d5810220542eaadd21c7d3e0f5625f69419519c7756f26ba110b32c904e908668536ebd901210392099ab4e8b5a873ba60779a93ebb7aa1857748d279cecdf2600f9d6899b0283feffffffad13c38e8044b8ebcb89bed8c98410d4a42766bdaba5341bb76f644ac57c56d6000000006a473044022044791b667bf7b418d59ad0706871b7677eb13abeec323eae20a006180b006606022026ebb007b26f77968cb0cf678b73fd212c2aadee9e4a12b08b93822bce791b0e012102510cdd5fc589912363b565af943085b5682d5cd7f9f65a28046ce71563064f9dfeffffffc94edddf5e6094af33b89f3638ec32d9d40665074c077bc4d8dc46ffe6105e6f030000006b483045022100ea33b555004f0681be0cbbb01da3a24ddab60bf7608bb1071f6b3a16a19710b40220755366e4fdc682a3d3bfef104609be41ab3a7c0d1fa6791613ee2cad493b6478012102a7dbef54a49cf87b047c0ce23f5d60662c8475c0262b69d59c0fbfa0cb6ee244feffffffcd0678a98c46104794b31074122a73a3c0f29095758d6f9af3adef25b07207fe010000006b4830450221009e67d39f90070234a8aa0f813eb28bf0766e3a7caa9f16bdb06b718e076a6f90022020a801f323d9b2c7616b3613a06cd0a2e41793daaa2ab6aca81c58ee9cfc5a980121030a99745afc79bfe14cf93e8bd443f1b3ac90134dbad3ab6f66c55aa7973e101bfeffffffd5c5f4b06baf57438247f64a0301c95093131ca4738e886c848fb8e806f9d6ea000000006a4730440220173f1f09b0d48224ff2176efcd42bfaa6295150966c605a86745aaaeddf7f11e02202fb11e1b2ad1c7fb54841380edfd54afdee3a3b6b9534029281ff432cbff929c0121028b16490b6f7ed7d465e485b0801c829912f2e0eaca03c9507349071c0ee97b2efefffffffd367730e96a8ae1e06950bb1ff5ce314461a5f5c99302f268558732d00ee765010000006b483045022100b1d77da0952061ccb9cd68d13a1a156414a19ddd01ea2e0ed23602556dc9198b022078ba5853018f57ae0b1cd109c49f54bcc09f8b693b5433d3df96158935cf72de01210322677f8941d17dbc34f0067f19c6336d22ce6ebdd871a8b07c4daa4c7cf28d56feffffff01b0fbcd02000000001976a914eb8a059627fa85aa22c30ab67ef111104fc857cf88ac0b490800", "vin": [{"sequence": 4294967294, "scriptSig": {"hex": "4830450221009a3f7c3470686740eee650e0394e6f3da422fe510bfbdb861a67c293ba047c950220402cee8ac95fa23547db8b0005ec8015ccada4f6d27c28a7a5d6b26877d71382012103b1235e69489816c82897169866522e0702abd63212dbd74f807d71462ca43eac", "asm": "30450221009a3f7c3470686740eee650e0394e6f3da422fe510bfbdb861a67c293ba047c950220402cee8ac95fa23547db8b0005ec8015ccada4f6d27c28a7a5d6b26877d71382[ALL] 03b1235e69489816c82897169866522e0702abd63212dbd74f807d71462ca43eac"}, "vout": 0, "txid": "828ce38b18d5401289b0c3ec6cc107f56221c81d917c7b46eedb5dc9b39f9634"}, {"sequence": 4294967294, "scriptSig": {"hex": "473044022021e5794aac2e7cbcd3f2df344468d7852355e1fd784a57fa49cce80b70a6a89302204eba977e0863aaf81634b1ecea6adc6364b08c8cf735c68e2d4d05169284a292012102060be6eeca750ad5e0ad3d7df0fcb8ea90985c685424b0cb4b093b8aaf524fbf", "asm": "3044022021e5794aac2e7cbcd3f2df344468d7852355e1fd784a57fa49cce80b70a6a89302204eba977e0863aaf81634b1ecea6adc6364b08c8cf735c68e2d4d05169284a292[ALL] 02060be6eeca750ad5e0ad3d7df0fcb8ea90985c685424b0cb4b093b8aaf524fbf"}, "vout": 0, "txid": "d93b86961a54a2f5583db8d5929c049c1c2b840f37d6fef7e1373e9df399d575"}, {"sequence": 4294967294, "scriptSig": {"hex": "47304402202971b5999c113fa545183beaa9b632641b860e17135f50e229b9664676ea3d7c022000b3eb8c50bd0d867a8e5d3ed72c82d98fa0d8e14e221d0a7f363a43e8b1f9430121026d210666881eec04954ffabc323daff3573c3bb625bada7642f5f2da3e0e46af", "asm": "304402202971b5999c113fa545183beaa9b632641b860e17135f50e229b9664676ea3d7c022000b3eb8c50bd0d867a8e5d3ed72c82d98fa0d8e14e221d0a7f363a43e8b1f943[ALL] 026d210666881eec04954ffabc323daff3573c3bb625bada7642f5f2da3e0e46af"}, "vout": 4, "txid": "4992b77d1754d9f5751a679800086b62b82f58757c01d8fd392f73f48b43c28e"}, {"sequence": 4294967294, "scriptSig": {"hex": "483045022100e6c0562db38392bc04b9a1503d2cec427f29e72927fbf71f0010b4721ca7d5810220542eaadd21c7d3e0f5625f69419519c7756f26ba110b32c904e908668536ebd901210392099ab4e8b5a873ba60779a93ebb7aa1857748d279cecdf2600f9d6899b0283", "asm": "3045022100e6c0562db38392bc04b9a1503d2cec427f29e72927fbf71f0010b4721ca7d5810220542eaadd21c7d3e0f5625f69419519c7756f26ba110b32c904e908668536ebd9[ALL] 0392099ab4e8b5a873ba60779a93ebb7aa1857748d279cecdf2600f9d6899b0283"}, "vout": 1, "txid": "765ce19c56e38e622d9fc80c04ce35ff057f73e2aca0a0ec1e29c007774fb3a8"}, {"sequence": 4294967294, "scriptSig": {"hex": "473044022044791b667bf7b418d59ad0706871b7677eb13abeec323eae20a006180b006606022026ebb007b26f77968cb0cf678b73fd212c2aadee9e4a12b08b93822bce791b0e012102510cdd5fc589912363b565af943085b5682d5cd7f9f65a28046ce71563064f9d", "asm": "3044022044791b667bf7b418d59ad0706871b7677eb13abeec323eae20a006180b006606022026ebb007b26f77968cb0cf678b73fd212c2aadee9e4a12b08b93822bce791b0e[ALL] 02510cdd5fc589912363b565af943085b5682d5cd7f9f65a28046ce71563064f9d"}, "vout": 0, "txid": "d6567cc54a646fb71b34a5abbd6627a4d41084c9d8be89cbebb844808ec313ad"}, {"sequence": 4294967294, "scriptSig": {"hex": "483045022100ea33b555004f0681be0cbbb01da3a24ddab60bf7608bb1071f6b3a16a19710b40220755366e4fdc682a3d3bfef104609be41ab3a7c0d1fa6791613ee2cad493b6478012102a7dbef54a49cf87b047c0ce23f5d60662c8475c0262b69d59c0fbfa0cb6ee244", "asm": "3045022100ea33b555004f0681be0cbbb01da3a24ddab60bf7608bb1071f6b3a16a19710b40220755366e4fdc682a3d3bfef104609be41ab3a7c0d1fa6791613ee2cad493b6478[ALL] 02a7dbef54a49cf87b047c0ce23f5d60662c8475c0262b69d59c0fbfa0cb6ee244"}, "vout": 3, "txid": "6f5e10e6ff46dcd8c47b074c076506d4d932ec38369fb833af94605edfdd4ec9"}, {"sequence": 4294967294, "scriptSig": {"hex": "4830450221009e67d39f90070234a8aa0f813eb28bf0766e3a7caa9f16bdb06b718e076a6f90022020a801f323d9b2c7616b3613a06cd0a2e41793daaa2ab6aca81c58ee9cfc5a980121030a99745afc79bfe14cf93e8bd443f1b3ac90134dbad3ab6f66c55aa7973e101b", "asm": "30450221009e67d39f90070234a8aa0f813eb28bf0766e3a7caa9f16bdb06b718e076a6f90022020a801f323d9b2c7616b3613a06cd0a2e41793daaa2ab6aca81c58ee9cfc5a98[ALL] 030a99745afc79bfe14cf93e8bd443f1b3ac90134dbad3ab6f66c55aa7973e101b"}, "vout": 1, "txid": "fe0772b025efadf39a6f8d759590f2c0a3732a127410b3944710468ca97806cd"}, {"sequence": 4294967294, "scriptSig": {"hex": "4730440220173f1f09b0d48224ff2176efcd42bfaa6295150966c605a86745aaaeddf7f11e02202fb11e1b2ad1c7fb54841380edfd54afdee3a3b6b9534029281ff432cbff929c0121028b16490b6f7ed7d465e485b0801c829912f2e0eaca03c9507349071c0ee97b2e", "asm": "30440220173f1f09b0d48224ff2176efcd42bfaa6295150966c605a86745aaaeddf7f11e02202fb11e1b2ad1c7fb54841380edfd54afdee3a3b6b9534029281ff432cbff929c[ALL] 028b16490b6f7ed7d465e485b0801c829912f2e0eaca03c9507349071c0ee97b2e"}, "vout": 0, "txid": "ead6f906e8b88f846c888e73a41c139350c901034af647824357af6bb0f4c5d5"}, {"sequence": 4294967294, "scriptSig": {"hex": "483045022100b1d77da0952061ccb9cd68d13a1a156414a19ddd01ea2e0ed23602556dc9198b022078ba5853018f57ae0b1cd109c49f54bcc09f8b693b5433d3df96158935cf72de01210322677f8941d17dbc34f0067f19c6336d22ce6ebdd871a8b07c4daa4c7cf28d56", "asm": "3045022100b1d77da0952061ccb9cd68d13a1a156414a19ddd01ea2e0ed23602556dc9198b022078ba5853018f57ae0b1cd109c49f54bcc09f8b693b5433d3df96158935cf72de[ALL] 0322677f8941d17dbc34f0067f19c6336d22ce6ebdd871a8b07c4daa4c7cf28d56"}, "vout": 1, "txid": "65e70ed032875568f20293c9f5a5614431cef51fbb5069e0e18a6ae9307736fd"}], "txid": "2488ad5a02eb07a31a277a4e4f64212e54a647eb41aedccd7a7db835f633ea89", "blocktime": 1537869901, "version": 2, "confirmations": 11524, "time": 1537869901, "locktime": 542987, "vsize": 1372, "size": 1372}