{"hash": "24893aae8045143cef7679269cc958a9a874051219733031f417236956c0da46", "blockhash": "00000000000000000004ffacab907a6b429b9a5745fa0b75af4234bf69dd7176", "vout": [{"scriptPubKey": {"reqSigs": 1, "hex": "76a914fe5d5b391cd0cec3200a2b629f9fc4d9b4dff59788ac", "addresses": ["1QBxUEkozRBvWoc3qxXDR5rWoEu3gq97as"], "asm": "OP_DUP OP_HASH160 fe5d5b391cd0cec3200a2b629f9fc4d9b4dff597 OP_EQUALVERIFY OP_CHECKSIG", "type": "pubkeyhash"}, "value": 0.00626, "n": 0}, {"scriptPubKey": {"reqSigs": 1, "hex": "76a914616835b24ef8ca5616de3384b3dc8aa37c26b7b988ac", "addresses": ["19t3PEEBonzfs8AGqqGzgAWGUpRoWMGCSX"], "asm": "OP_DUP OP_HASH160 616835b24ef8ca5616de3384b3dc8aa37c26b7b9 OP_EQUALVERIFY OP_CHECKSIG", "type": "pubkeyhash"}, "value": 0.07069739, "n": 1}], "hex": "010000000101dbfa7c644a38e4b49f19930422a8fdee353bdbd8f459406398282234d92c99010000006b4830450221008b1bc9e9dbfc7a068fea3a44c3aeff6b71608f775a74be7f26276e3e005865f302205d4c0590146116b456f91d15aa4d6d4999837bee2135223cc9141d756a82ed4601210295b92a5e7ac0e92baff7654d7e7faaa27e5a06285ca34149148bdc2f97537817ffffffff02508d0900000000001976a914fe5d5b391cd0cec3200a2b629f9fc4d9b4dff59788ac2be06b00000000001976a914616835b24ef8ca5616de3384b3dc8aa37c26b7b988ac00000000", "vin": [{"sequence": 4294967295, "scriptSig": {"hex": "4830450221008b1bc9e9dbfc7a068fea3a44c3aeff6b71608f775a74be7f26276e3e005865f302205d4c0590146116b456f91d15aa4d6d4999837bee2135223cc9141d756a82ed4601210295b92a5e7ac0e92baff7654d7e7faaa27e5a06285ca34149148bdc2f97537817", "asm": "30450221008b1bc9e9dbfc7a068fea3a44c3aeff6b71608f775a74be7f26276e3e005865f302205d4c0590146116b456f91d15aa4d6d4999837bee2135223cc9141d756a82ed46[ALL] 0295b92a5e7ac0e92baff7654d7e7faaa27e5a06285ca34149148bdc2f97537817"}, "vout": 1, "txid": "992cd934222898634059f4d8db3b35eefda8220493199fb4e4384a647cfadb01"}], "txid": "24893aae8045143cef7679269cc958a9a874051219733031f417236956c0da46", "blocktime": 1537875543, "version": 1, "confirmations": 11464, "time": 1537875543, "locktime": 0, "vsize": 226, "size": 226}