{"hash": "28c53bc91a0a63d9bfb6f6011ecc5b9b23afc766cff1d2f97fe57c434cc75cd3", "blockhash": "00000000000000000018f53835495a110e01622372bf6ae95dc86f2b0ab887b0", "vout": [{"scriptPubKey": {"reqSigs": 1, "hex": "76a914658bc2e4001cfacc64a3e041943e921b3086737588ac", "addresses": ["1AFvgAG4FN8fhtp3ZtSF8hsmKvPTDiB4RV"], "asm": "OP_DUP OP_HASH160 658bc2e4001cfacc64a3e041943e921b30867375 OP_EQUALVERIFY OP_CHECKSIG", "type": "pubkeyhash"}, "value": 3.288e-05, "n": 0}, {"scriptPubKey": {"reqSigs": 1, "hex": "a914e8db75c900cf08f06518e96d167331f2a4abfb3387", "addresses": ["3NvFbQMAkkqEFj4i1sYPPLkSWzxTFUchjA"], "asm": "OP_HASH160 e8db75c900cf08f06518e96d167331f2a4abfb33 OP_EQUAL", "type": "scripthash"}, "value": 0.00045662, "n": 1}], "hex": "0100000000010135f5f45ec0f2a80efe50255038e91dc87999280a836d7aa1cc19eb9a565122a80000000023220020941cfaff8837763dc1f69ff82b6d6553fdea17a41cfc29a04403293eedd8ccc7ffffffff02d80c0000000000001976a914658bc2e4001cfacc64a3e041943e921b3086737588ac5eb200000000000017a914e8db75c900cf08f06518e96d167331f2a4abfb33870400483045022100c36738a7795f1f84dcdd0bc007492c37ac291f9f5dc5afb2ea19b17938ac75ee0220012576b7e4b55569b91f7f15b497da54f2295b3ecbdbae14d7b10d84b3ec4e5301483045022100dcdd343cc48d742e280a3c6db01b06e9b0299504c67299f24f6452fd47af5c52022037cce7a2663c7bb8d9d5e8a9c5c1cd65c3c8570027b2d3e1813874aabdf9c06c0147522102531db3a5883f29bab4241dd0cd726936667bcda445d89bdd22244e828b6993342103148c80a5bdfddb05ff5bcffc397c8ca748d8b435ec6a175bc9d7bfc7fc6f853752ae00000000", "vin": [{"txinwitness": ["", "3045022100c36738a7795f1f84dcdd0bc007492c37ac291f9f5dc5afb2ea19b17938ac75ee0220012576b7e4b55569b91f7f15b497da54f2295b3ecbdbae14d7b10d84b3ec4e5301", "3045022100dcdd343cc48d742e280a3c6db01b06e9b0299504c67299f24f6452fd47af5c52022037cce7a2663c7bb8d9d5e8a9c5c1cd65c3c8570027b2d3e1813874aabdf9c06c01", "522102531db3a5883f29bab4241dd0cd726936667bcda445d89bdd22244e828b6993342103148c80a5bdfddb05ff5bcffc397c8ca748d8b435ec6a175bc9d7bfc7fc6f853752ae"], "sequence": 4294967295, "scriptSig": {"hex": "220020941cfaff8837763dc1f69ff82b6d6553fdea17a41cfc29a04403293eedd8ccc7", "asm": "0020941cfaff8837763dc1f69ff82b6d6553fdea17a41cfc29a04403293eedd8ccc7"}, "vout": 0, "txid": "a82251569aeb19cca17a6d830a289979c81de938502550fe0ea8f2c05ef4f535"}], "txid": "2490f91247ba94ef136ecfa00f6f0177e4bf4441797fa3a34808fa658788ff86", "blocktime": 1537870928, "version": 1, "confirmations": 11514, "time": 1537870928, "locktime": 0, "vsize": 208, "size": 374}