{"hash": "2497799b6ffb2965b05530b4aa10a93d6517dc461f23f3d77ff7d50dfc37dd20", "blockhash": "000000000000000000022b45ed06c6f4ccd3cf7fb5ba4856ebd2e58215665228", "vout": [{"scriptPubKey": {"reqSigs": 1, "hex": "76a9145db77df1fd40c8010712859b4b60647a156bb5ce88ac", "addresses": ["19YXf5zYfUZJbpftqfAN5MQGnCx92Wn3DK"], "asm": "OP_DUP OP_HASH160 5db77df1fd40c8010712859b4b60647a156bb5ce OP_EQUALVERIFY OP_CHECKSIG", "type": "pubkeyhash"}, "value": 0.10392768, "n": 0}, {"scriptPubKey": {"reqSigs": 1, "hex": "76a914da3178ec76e8ad094ed21df4e1b7f66c14fdf15288ac", "addresses": ["1LthaDgqTEE7mL7aP2P7gtTpkjADz7LbzL"], "asm": "OP_DUP OP_HASH160 da3178ec76e8ad094ed21df4e1b7f66c14fdf152 OP_EQUALVERIFY OP_CHECKSIG", "type": "pubkeyhash"}, "value": 24.47428372, "n": 1}], "hex": "0100000001998469e56a97a104a6cdd6d452599020aa326e3886592a6af9253481ec6dc8fa010000006b483045022100c98ce02dd74b449fa85ca5afce9b483873c2bf1f35a64c4f6a249f5795ef73be02205ab27ac92222e9fc091ef1f59bae6cf739760df5c801bdf518fb8ec20409fd680121029b3d0a0a71e3d537a7d5059445f84d267df83e95c95f5cdb166d4ae91d59fb79ffffffff02c0949e00000000001976a9145db77df1fd40c8010712859b4b60647a156bb5ce88ac14cbe091000000001976a914da3178ec76e8ad094ed21df4e1b7f66c14fdf15288ac00000000", "vin": [{"sequence": 4294967295, "scriptSig": {"hex": "483045022100c98ce02dd74b449fa85ca5afce9b483873c2bf1f35a64c4f6a249f5795ef73be02205ab27ac92222e9fc091ef1f59bae6cf739760df5c801bdf518fb8ec20409fd680121029b3d0a0a71e3d537a7d5059445f84d267df83e95c95f5cdb166d4ae91d59fb79", "asm": "3045022100c98ce02dd74b449fa85ca5afce9b483873c2bf1f35a64c4f6a249f5795ef73be02205ab27ac92222e9fc091ef1f59bae6cf739760df5c801bdf518fb8ec20409fd68[ALL] 029b3d0a0a71e3d537a7d5059445f84d267df83e95c95f5cdb166d4ae91d59fb79"}, "vout": 1, "txid": "fac86dec813425f96a2a5986386e32aa20905952d4d6cda604a1976ae5698499"}], "txid": "2497799b6ffb2965b05530b4aa10a93d6517dc461f23f3d77ff7d50dfc37dd20", "blocktime": 1537869901, "version": 1, "confirmations": 11522, "time": 1537869901, "locktime": 0, "vsize": 226, "size": 226}