{"hash": "2499f3546dfde0f299c82317f50c044ef9a68cdee3986cda586d8aee1846836e", "blockhash": "0000000000000000001cda96e906b7601b7a6fb1a3b62bca570a9e5d8f4b3de1", "vout": [{"scriptPubKey": {"reqSigs": 1, "hex": "a9142e2741140519b8266cefdef34c06466c672d6bcb87", "addresses": ["35u42oG4v4kK4KXHEuMaciXqEQ4mSaew9J"], "asm": "OP_HASH160 2e2741140519b8266cefdef34c06466c672d6bcb OP_EQUAL", "type": "scripthash"}, "value": 0.19800487, "n": 0}, {"scriptPubKey": {"reqSigs": 1, "hex": "76a9142da6286d2bdb34442732aad44d38b925b09cc2ec88ac", "addresses": ["15ANTVESm4D1BW3RneNNp7HA4z8WzuB4pi"], "asm": "OP_DUP OP_HASH160 2da6286d2bdb34442732aad44d38b925b09cc2ec OP_EQUALVERIFY OP_CHECKSIG", "type": "pubkeyhash"}, "value": 1.97690269, "n": 1}], "hex": "0100000001f9243376aebae435e389945009a09b5ef08724e40a693e43b2b88eb98023fe48020000006b4830450221009359ceacb7ea42aeb4255527efbe005a3313428cbbd643b0fe41e3c6561f2f5b0220704dc13712a38cf71481281ba0e726b20c90361fb35c1f86da1ff4ce3b2f5f82012103393365ec7174cada0c071fc3ea2e6305f4da55fa5322bc87c3f639d80eb9989fffffffff02a7212e010000000017a9142e2741140519b8266cefdef34c06466c672d6bcb879d83c80b000000001976a9142da6286d2bdb34442732aad44d38b925b09cc2ec88ac00000000", "vin": [{"sequence": 4294967295, "scriptSig": {"hex": "4830450221009359ceacb7ea42aeb4255527efbe005a3313428cbbd643b0fe41e3c6561f2f5b0220704dc13712a38cf71481281ba0e726b20c90361fb35c1f86da1ff4ce3b2f5f82012103393365ec7174cada0c071fc3ea2e6305f4da55fa5322bc87c3f639d80eb9989f", "asm": "30450221009359ceacb7ea42aeb4255527efbe005a3313428cbbd643b0fe41e3c6561f2f5b0220704dc13712a38cf71481281ba0e726b20c90361fb35c1f86da1ff4ce3b2f5f82[ALL] 03393365ec7174cada0c071fc3ea2e6305f4da55fa5322bc87c3f639d80eb9989f"}, "vout": 2, "txid": "48fe2380b98eb8b2433e690ae42487f05e9ba009509489e335e4baae763324f9"}], "txid": "2499f3546dfde0f299c82317f50c044ef9a68cdee3986cda586d8aee1846836e", "blocktime": 1537873282, "version": 1, "confirmations": 11481, "time": 1537873282, "locktime": 0, "vsize": 224, "size": 224}