{"hash": "249bb1f77f654e518cef35bbf5064675635bbe4c59dc5adb16516a8bca3505a7", "blockhash": "0000000000000000001e0dab787dd257d1dbfcb92a98c2207d5e1078be1f4165", "vout": [{"scriptPubKey": {"reqSigs": 1, "hex": "a9144675dc96ae0d427188c9c776096969160f2cce4a87", "addresses": ["387aR9LbNmYT5dSk4Pjx7CzB2xFmyK7pdd"], "asm": "OP_HASH160 4675dc96ae0d427188c9c776096969160f2cce4a OP_EQUAL", "type": "scripthash"}, "value": 0.01, "n": 0}, {"scriptPubKey": {"reqSigs": 1, "hex": "76a9149ce93aab1660de6b5ee0c0a9f65d916e6df879ff88ac", "addresses": ["1FJfoyQn2J9HFH9LBYttq3PVsCJv1VCSiq"], "asm": "OP_DUP OP_HASH160 9ce93aab1660de6b5ee0c0a9f65d916e6df879ff OP_EQUALVERIFY OP_CHECKSIG", "type": "pubkeyhash"}, "value": 1.27361568, "n": 1}], "hex": "0100000001ca6c6e215cf5047a0d0579d281c7f80b04618d8ef1cb3578bc7f8cf5beb37745010000006a47304402206d661071d984f36e72d547613fba77f3663a28dfe52cedabebe5116f1f444e300220748ce5a0fb10d4885166c7ac48c6cabd468ceb489fca13c8d2b461c0df9602680121029f4c82f6cc9d8ac9ae0aaee1895eedabccc36cf8f496f3298b2b77dfef88c33affffffff0240420f000000000017a9144675dc96ae0d427188c9c776096969160f2cce4a8720629707000000001976a9149ce93aab1660de6b5ee0c0a9f65d916e6df879ff88ac00000000", "vin": [{"sequence": 4294967295, "scriptSig": {"hex": "47304402206d661071d984f36e72d547613fba77f3663a28dfe52cedabebe5116f1f444e300220748ce5a0fb10d4885166c7ac48c6cabd468ceb489fca13c8d2b461c0df9602680121029f4c82f6cc9d8ac9ae0aaee1895eedabccc36cf8f496f3298b2b77dfef88c33a", "asm": "304402206d661071d984f36e72d547613fba77f3663a28dfe52cedabebe5116f1f444e300220748ce5a0fb10d4885166c7ac48c6cabd468ceb489fca13c8d2b461c0df960268[ALL] 029f4c82f6cc9d8ac9ae0aaee1895eedabccc36cf8f496f3298b2b77dfef88c33a"}, "vout": 1, "txid": "4577b3bef58c7fbc7835cbf18e8d61040bf8c781d279050d7a04f55c216e6cca"}], "txid": "249bb1f77f654e518cef35bbf5064675635bbe4c59dc5adb16516a8bca3505a7", "blocktime": 1537872475, "version": 1, "confirmations": 11487, "time": 1537872475, "locktime": 0, "vsize": 223, "size": 223}