{"hash": "24a2154138d9e091c2f7e6e625f217c184061ce43c83dd26e2564b9b44a047a2", "blockhash": "0000000000000000001cda96e906b7601b7a6fb1a3b62bca570a9e5d8f4b3de1", "vout": [{"scriptPubKey": {"reqSigs": 1, "hex": "76a9149c437718fa630a1481df0e4e88b521e26cb2321688ac", "addresses": ["1FFFEVWa7hkFu5riqBChejzov8fqpm37yf"], "asm": "OP_DUP OP_HASH160 9c437718fa630a1481df0e4e88b521e26cb23216 OP_EQUALVERIFY OP_CHECKSIG", "type": "pubkeyhash"}, "value": 0.00078173, "n": 0}, {"scriptPubKey": {"reqSigs": 1, "hex": "76a91429e2aaee18664aee4b10b1b06b7730ec9c4d14d688ac", "addresses": ["14pUF1jWDGpmxXRD5Ug7eETat8ZkUBeGpE"], "asm": "OP_DUP OP_HASH160 29e2aaee18664aee4b10b1b06b7730ec9c4d14d6 OP_EQUALVERIFY OP_CHECKSIG", "type": "pubkeyhash"}, "value": 0.000879, "n": 1}], "hex": "0100000002db3c82805672582e71f4a0391a2b5a518bd26d0972647ab4ab56c6098aa8a22d010000006a4730440220324b760bd19babbfe43d8b5dbce3334e03e8f9df03d606fc8ad01f956dad33180220094d4a396fe5d4893e92a7fb08f08b408a0cf8f0d055f4566b71d44c4a9e2d7a01210254ef449ac906d82195b88033c248fa5c27bbbfeaea5008ddb2e61ae66f936119ffffffff51f259d8d7e242b651c8970f95be4a68ec23da7e8c0017a5913a4bab10cf37fb000000006a473044022015325650d6dda24efb1820afca39f1170c0f6415c7d27ed826e9392884defd30022042ba5d078beb9d1ba7aa78ca003c2d9293580673b39741e38ac4e5d7b4b03f020121021a6cca05f359a9da378c6aa46d61563d37064b9f2eff340f828a3935e2fc767effffffff025d310100000000001976a9149c437718fa630a1481df0e4e88b521e26cb2321688ac5c570100000000001976a91429e2aaee18664aee4b10b1b06b7730ec9c4d14d688ac00000000", "vin": [{"sequence": 4294967295, "scriptSig": {"hex": "4730440220324b760bd19babbfe43d8b5dbce3334e03e8f9df03d606fc8ad01f956dad33180220094d4a396fe5d4893e92a7fb08f08b408a0cf8f0d055f4566b71d44c4a9e2d7a01210254ef449ac906d82195b88033c248fa5c27bbbfeaea5008ddb2e61ae66f936119", "asm": "30440220324b760bd19babbfe43d8b5dbce3334e03e8f9df03d606fc8ad01f956dad33180220094d4a396fe5d4893e92a7fb08f08b408a0cf8f0d055f4566b71d44c4a9e2d7a[ALL] 0254ef449ac906d82195b88033c248fa5c27bbbfeaea5008ddb2e61ae66f936119"}, "vout": 1, "txid": "2da2a88a09c656abb47a6472096dd28b515a2b1a39a0f4712e58725680823cdb"}, {"sequence": 4294967295, "scriptSig": {"hex": "473044022015325650d6dda24efb1820afca39f1170c0f6415c7d27ed826e9392884defd30022042ba5d078beb9d1ba7aa78ca003c2d9293580673b39741e38ac4e5d7b4b03f020121021a6cca05f359a9da378c6aa46d61563d37064b9f2eff340f828a3935e2fc767e", "asm": "3044022015325650d6dda24efb1820afca39f1170c0f6415c7d27ed826e9392884defd30022042ba5d078beb9d1ba7aa78ca003c2d9293580673b39741e38ac4e5d7b4b03f02[ALL] 021a6cca05f359a9da378c6aa46d61563d37064b9f2eff340f828a3935e2fc767e"}, "vout": 0, "txid": "fb37cf10ab4b3a91a517008c7eda23ec684abe950f97c851b642e2d7d859f251"}], "txid": "24a2154138d9e091c2f7e6e625f217c184061ce43c83dd26e2564b9b44a047a2", "blocktime": 1537873282, "version": 1, "confirmations": 11485, "time": 1537873282, "locktime": 0, "vsize": 372, "size": 372}