{"hash": "24a6471dd7a7885971db6e0774b2120eefef8cb8e047d8911328b5a1b4e41f5f", "blockhash": "00000000000000000017f5eb5941039fbcee6240d03bc1f2f8e35350df66a1d8", "vout": [{"scriptPubKey": {"reqSigs": 1, "hex": "76a914b2ec86be148c591ca6d6ed268c22f6f5939d016388ac", "addresses": ["1HK4dHTyfs9tFbju9nA3w9WX4VFjDfYWZM"], "asm": "OP_DUP OP_HASH160 b2ec86be148c591ca6d6ed268c22f6f5939d0163 OP_EQUALVERIFY OP_CHECKSIG", "type": "pubkeyhash"}, "value": 0.86825535, "n": 0}, {"scriptPubKey": {"type": "nulldata", "hex": "6a146f6d6e69000000000000001f00000006c088e200", "asm": "OP_RETURN 6f6d6e69000000000000001f00000006c088e200"}, "value": 0.0, "n": 1}, {"scriptPubKey": {"reqSigs": 1, "hex": "76a914f3ac3b48978892ba1fadbc0f963994d183bd1e9088ac", "addresses": ["1PDRXUXGTa8u31vsUXnoiPuMMiQs1epBBC"], "asm": "OP_DUP OP_HASH160 f3ac3b48978892ba1fadbc0f963994d183bd1e90 OP_EQUALVERIFY OP_CHECKSIG", "type": "pubkeyhash"}, "value": 5.46e-06, "n": 2}], "hex": "0100000001f457f8887e594f9e0fc15dea3f7d4ec034178f41e324fed5143c435847ca46c4000000006a4730440220715b91b56bcf9eade25c0192438d929f3328560a12afe8d8a55caa6092a5c7b70220264736ec45385ae61f50899e3fa264d44c46119b4b00e663863269b0f6db901c0121025a2fab6fb38dc2318cfc50415da4adac7ae54c79b243270068766c793fccb062ffffffff033fda2c05000000001976a914b2ec86be148c591ca6d6ed268c22f6f5939d016388ac0000000000000000166a146f6d6e69000000000000001f00000006c088e20022020000000000001976a914f3ac3b48978892ba1fadbc0f963994d183bd1e9088ac00000000", "vin": [{"sequence": 4294967295, "scriptSig": {"hex": "4730440220715b91b56bcf9eade25c0192438d929f3328560a12afe8d8a55caa6092a5c7b70220264736ec45385ae61f50899e3fa264d44c46119b4b00e663863269b0f6db901c0121025a2fab6fb38dc2318cfc50415da4adac7ae54c79b243270068766c793fccb062", "asm": "30440220715b91b56bcf9eade25c0192438d929f3328560a12afe8d8a55caa6092a5c7b70220264736ec45385ae61f50899e3fa264d44c46119b4b00e663863269b0f6db901c[ALL] 025a2fab6fb38dc2318cfc50415da4adac7ae54c79b243270068766c793fccb062"}, "vout": 0, "txid": "c446ca4758433c14d5fe24e3418f1734c04e7d3fea5dc10f9e4f597e88f857f4"}], "txid": "24a6471dd7a7885971db6e0774b2120eefef8cb8e047d8911328b5a1b4e41f5f", "blocktime": 1537874412, "version": 1, "confirmations": 11466, "time": 1537874412, "locktime": 0, "vsize": 256, "size": 256}