{"hash": "24a88cd10036eb0f317c9d2b7fe2d3e83eb48af03e74031265b2f8d520402119", "blockhash": "00000000000000000018f53835495a110e01622372bf6ae95dc86f2b0ab887b0", "vout": [{"scriptPubKey": {"reqSigs": 1, "hex": "76a914fdf365b7df5150b8bb9e0407451933ad4ff727d988ac", "addresses": ["1Q9mY5SVmUfpKbrQhXeV6X9arPybNct5LZ"], "asm": "OP_DUP OP_HASH160 fdf365b7df5150b8bb9e0407451933ad4ff727d9 OP_EQUALVERIFY OP_CHECKSIG", "type": "pubkeyhash"}, "value": 6.98e-05, "n": 0}, {"scriptPubKey": {"reqSigs": 1, "hex": "a9146b9ac17a88cd45991946d6004bf68ab734b9978c87", "addresses": ["3BVycgwVekvbq8gmbVtty4PE8r96uD6DXC"], "asm": "OP_HASH160 6b9ac17a88cd45991946d6004bf68ab734b9978c OP_EQUAL", "type": "scripthash"}, "value": 0.14904342, "n": 1}], "hex": "01000000012895c65299e91b90990efabd2c33e472ffd1e6c1b3dba0433aa8daf9dce3d590090000006a4730440220059ffbdca6a8fa7930f8a1f9aaee694d2dd14735df4710264bb797ca4f2ec45002202cde3c756b0816eb97cbc2c3d05721c6425e99a3a7ee39c09f1e9d59e9162c8501210233fa6b2c10d0a080130722999d277abd8182570b52a935fd5b9a21b29ce5667effffffff02441b0000000000001976a914fdf365b7df5150b8bb9e0407451933ad4ff727d988ac166ce3000000000017a9146b9ac17a88cd45991946d6004bf68ab734b9978c8700000000", "vin": [{"sequence": 4294967295, "scriptSig": {"hex": "4730440220059ffbdca6a8fa7930f8a1f9aaee694d2dd14735df4710264bb797ca4f2ec45002202cde3c756b0816eb97cbc2c3d05721c6425e99a3a7ee39c09f1e9d59e9162c8501210233fa6b2c10d0a080130722999d277abd8182570b52a935fd5b9a21b29ce5667e", "asm": "30440220059ffbdca6a8fa7930f8a1f9aaee694d2dd14735df4710264bb797ca4f2ec45002202cde3c756b0816eb97cbc2c3d05721c6425e99a3a7ee39c09f1e9d59e9162c85[ALL] 0233fa6b2c10d0a080130722999d277abd8182570b52a935fd5b9a21b29ce5667e"}, "vout": 9, "txid": "90d5e3dcf9daa83a43a0dbb3c1e6d1ff72e4332cbdfa0e99901be99952c69528"}], "txid": "24a88cd10036eb0f317c9d2b7fe2d3e83eb48af03e74031265b2f8d520402119", "blocktime": 1537870928, "version": 1, "confirmations": 11514, "time": 1537870928, "locktime": 0, "vsize": 223, "size": 223}