{"hash": "24a99e2053cbc53c91a1bfb9f7d37f0143ce2977347c1e7876359705527c8fc4", "blockhash": "0000000000000000000e13cef7c366c0283d82e591d1acd082e914b08063cdf1", "vout": [{"scriptPubKey": {"type": "nulldata", "hex": "6a146f6d6e69000000000000001f00000000160dc080", "asm": "OP_RETURN 6f6d6e69000000000000001f00000000160dc080"}, "value": 0.0, "n": 0}, {"scriptPubKey": {"reqSigs": 1, "hex": "76a914a25dec4d0011064ef106a983c39c7a540699f22088ac", "addresses": ["1FoWyxwPXuj4C6abqwhjDWdz6D4PZgYRjA"], "asm": "OP_DUP OP_HASH160 a25dec4d0011064ef106a983c39c7a540699f220 OP_EQUALVERIFY OP_CHECKSIG", "type": "pubkeyhash"}, "value": 0.01956802, "n": 1}, {"scriptPubKey": {"reqSigs": 1, "hex": "76a914fa193fe9fe69bf8bf8b0b2e3a4fc593ef432f66688ac", "addresses": ["1PoQBLS3WBEKjnisKEN8UGvTm1v1HqErTq"], "asm": "OP_DUP OP_HASH160 fa193fe9fe69bf8bf8b0b2e3a4fc593ef432f666 OP_EQUALVERIFY OP_CHECKSIG", "type": "pubkeyhash"}, "value": 5.46e-06, "n": 2}], "hex": "0100000001579b56ed876b75eb7d24a21ec6960b8696d6316f5edcba0a13ae4c120cf0a812020000006b4830450221009d2fcf49c66c7d8ea8b02ac9a31df817329a006a2ae69314aa8312ae33d7d9970220491182598bb3449c3d559538ff016a9f37e48c6831243066ddc10bc1eaf27ce4012103da5bac7b36d5aa38f531c6b9601e21bb598a4b6716ebed38b009a55dabde9440feffffff030000000000000000166a146f6d6e69000000000000001f00000000160dc080c2db1d00000000001976a914a25dec4d0011064ef106a983c39c7a540699f22088ac22020000000000001976a914fa193fe9fe69bf8bf8b0b2e3a4fc593ef432f66688ac10490800", "vin": [{"sequence": 4294967294, "scriptSig": {"hex": "4830450221009d2fcf49c66c7d8ea8b02ac9a31df817329a006a2ae69314aa8312ae33d7d9970220491182598bb3449c3d559538ff016a9f37e48c6831243066ddc10bc1eaf27ce4012103da5bac7b36d5aa38f531c6b9601e21bb598a4b6716ebed38b009a55dabde9440", "asm": "30450221009d2fcf49c66c7d8ea8b02ac9a31df817329a006a2ae69314aa8312ae33d7d9970220491182598bb3449c3d559538ff016a9f37e48c6831243066ddc10bc1eaf27ce4[ALL] 03da5bac7b36d5aa38f531c6b9601e21bb598a4b6716ebed38b009a55dabde9440"}, "vout": 2, "txid": "12a8f00c124cae130abadc5e6f31d696860b96c61ea2247deb756b87ed569b57"}], "txid": "24a99e2053cbc53c91a1bfb9f7d37f0143ce2977347c1e7876359705527c8fc4", "blocktime": 1537871767, "version": 1, "confirmations": 11490, "time": 1537871767, "locktime": 542992, "vsize": 257, "size": 257}