{"hash": "57697e1276efbcb292062ac561ef08c9c4b223e40866ab2b292a3e4ee65fba34", "blockhash": "000000000000000000022b45ed06c6f4ccd3cf7fb5ba4856ebd2e58215665228", "vout": [{"scriptPubKey": {"reqSigs": 1, "hex": "a91491822e009e56a199b563ab9d8acabd0c3171fbd787", "addresses": ["3ExPrQLD3UeJY4gxtQx8G5mwCCsRkzA8a6"], "asm": "OP_HASH160 91822e009e56a199b563ab9d8acabd0c3171fbd7 OP_EQUAL", "type": "scripthash"}, "value": 0.016016, "n": 0}, {"scriptPubKey": {"reqSigs": 1, "hex": "a91411c2e4e62b43dda4b36d76d8bfa043e31ad310dc87", "addresses": ["33JvtHbSBG2wrVH3oKMhcyZ32s5yeEm6v5"], "asm": "OP_HASH160 11c2e4e62b43dda4b36d76d8bfa043e31ad310dc OP_EQUAL", "type": "scripthash"}, "value": 0.00865944, "n": 1}], "hex": "02000000000101c567557e74c10a15ef476f8e8d3cf0cb5947352816a87ad35aee0089372eed130100000017160014105f7aa9061a59e51724f36db41fab02d72b2b86ffffffff02407018000000000017a91491822e009e56a199b563ab9d8acabd0c3171fbd78798360d000000000017a91411c2e4e62b43dda4b36d76d8bfa043e31ad310dc8702483045022100b24c132ed0a011f32131d08ffb0d6cc5e2ba2914c4e8abd88e5c01ee4674478d02204131ecb156f85a84bdfa8f25452bf17eebb7eadafea8786dd201056dab235a450121022ad94eca8ff7093179255e461cd2c1338b3eb61eba58733f1d3836dbfac3723c00000000", "vin": [{"txinwitness": ["3045022100b24c132ed0a011f32131d08ffb0d6cc5e2ba2914c4e8abd88e5c01ee4674478d02204131ecb156f85a84bdfa8f25452bf17eebb7eadafea8786dd201056dab235a4501", "022ad94eca8ff7093179255e461cd2c1338b3eb61eba58733f1d3836dbfac3723c"], "sequence": 4294967295, "scriptSig": {"hex": "160014105f7aa9061a59e51724f36db41fab02d72b2b86", "asm": "0014105f7aa9061a59e51724f36db41fab02d72b2b86"}, "vout": 1, "txid": "13ed2e378900ee5ad37aa81628354759cbf03c8d8e6f47ef150ac1747e5567c5"}], "txid": "24af91a85bbb7e44d4266a49eefcb3edc322eae0c606dee1f98ff643f2ff9a60", "blocktime": 1537869901, "version": 2, "confirmations": 11522, "time": 1537869901, "locktime": 0, "vsize": 166, "size": 248}