{"hash": "24b092acdf7fd9d8d25e2e4dc016f181dce621246c91b7fad26eb19d94e499a8", "blockhash": "0000000000000000001f76057863aec43deb6fa401d9628bb513d65a8098bfab", "vout": [{"scriptPubKey": {"reqSigs": 1, "hex": "a9147ba24595c3bc1095c34e143ccd5df8b95c30555b87", "addresses": ["3CxjRyvvx7E64LBGePHpHQXaj8mQHZQ3nr"], "asm": "OP_HASH160 7ba24595c3bc1095c34e143ccd5df8b95c30555b OP_EQUAL", "type": "scripthash"}, "value": 0.558375, "n": 0}, {"scriptPubKey": {"reqSigs": 1, "hex": "76a914aeacf4dacbf373f5d69f66a632a2401e5fa5cfd888ac", "addresses": ["1Gvbmc3j1w23r2wKSm4REQGtoyBN6hYPKC"], "asm": "OP_DUP OP_HASH160 aeacf4dacbf373f5d69f66a632a2401e5fa5cfd8 OP_EQUALVERIFY OP_CHECKSIG", "type": "pubkeyhash"}, "value": 13.93889726, "n": 1}], "hex": "0100000001be8598275f07223fb7f3ea8f28a75abc7ec5e4ef002a964db932e15af85b53ac010000008a47304402204d2a19cb637bd1ab357c2bc06e56bbd3de6c1291af6d4cb3ddf6d0fef9cc5c0602203dda29efabe5402fb6b58e864f4796d607abc5fe2c80b8dcaa809079719976880141047c02d87fdf6b63cd3a9deb849392c4d2e6382b777b9fe1dc75c6ed0c99bc92acac2c1a2d8bca090b7a03a8108ae3575273013b1ebf2d41d141287cbb2a4b3054fdffffff023c0354030000000017a9147ba24595c3bc1095c34e143ccd5df8b95c30555b87be111553000000001976a914aeacf4dacbf373f5d69f66a632a2401e5fa5cfd888ac14490800", "vin": [{"sequence": 4294967293, "scriptSig": {"hex": "47304402204d2a19cb637bd1ab357c2bc06e56bbd3de6c1291af6d4cb3ddf6d0fef9cc5c0602203dda29efabe5402fb6b58e864f4796d607abc5fe2c80b8dcaa809079719976880141047c02d87fdf6b63cd3a9deb849392c4d2e6382b777b9fe1dc75c6ed0c99bc92acac2c1a2d8bca090b7a03a8108ae3575273013b1ebf2d41d141287cbb2a4b3054", "asm": "304402204d2a19cb637bd1ab357c2bc06e56bbd3de6c1291af6d4cb3ddf6d0fef9cc5c0602203dda29efabe5402fb6b58e864f4796d607abc5fe2c80b8dcaa80907971997688[ALL] 047c02d87fdf6b63cd3a9deb849392c4d2e6382b777b9fe1dc75c6ed0c99bc92acac2c1a2d8bca090b7a03a8108ae3575273013b1ebf2d41d141287cbb2a4b3054"}, "vout": 1, "txid": "ac535bf85ae132b94d962a00efe4c57ebc5aa7288feaf3b73f22075f279885be"}], "txid": "24b092acdf7fd9d8d25e2e4dc016f181dce621246c91b7fad26eb19d94e499a8", "blocktime": 1537873891, "version": 1, "confirmations": 11477, "time": 1537873891, "locktime": 542996, "vsize": 255, "size": 255}