{"hash": "24b06edea70378d8ce2b17349ef4b63de97d0e73bee56f61399f560548633772", "blockhash": "00000000000000000018f53835495a110e01622372bf6ae95dc86f2b0ab887b0", "vout": [{"scriptPubKey": {"reqSigs": 1, "hex": "76a9144c27c3ee9bb21b06e6375ec84ae80fd8dec9baeb88ac", "addresses": ["17wfzXSDKBifgVCatZjvJhGaJTTWcVvyDZ"], "asm": "OP_DUP OP_HASH160 4c27c3ee9bb21b06e6375ec84ae80fd8dec9baeb OP_EQUALVERIFY OP_CHECKSIG", "type": "pubkeyhash"}, "value": 0.00235, "n": 0}, {"scriptPubKey": {"reqSigs": 1, "hex": "76a9147df84aca41f462965a0a837028992cdfa883b3c088ac", "addresses": ["1CV4ucwnxtjR733gkDUFDZbpMiKZd9EShx"], "asm": "OP_DUP OP_HASH160 7df84aca41f462965a0a837028992cdfa883b3c0 OP_EQUALVERIFY OP_CHECKSIG", "type": "pubkeyhash"}, "value": 0.00406762, "n": 1}], "hex": "01000000017f1c714be916364e38f5f4d4b0eaf6c7fde75d3f81e46029da0661ac3cd46914000000006b483045022100bbec6e3c084e6173747187eb395bbfce71f7515fa677528c6bd94413130136e2022006b93d8df57d3fbea0a9877a69c9d39f1d868bd74ebb34adc271332cd1f527af012103747acfaaefb160ddeef1c218d6dd656b53f870d945876f60af79169b87fdd8e7ffffffff02f8950300000000001976a9144c27c3ee9bb21b06e6375ec84ae80fd8dec9baeb88acea340600000000001976a9147df84aca41f462965a0a837028992cdfa883b3c088ac00000000", "vin": [{"sequence": 4294967295, "scriptSig": {"hex": "483045022100bbec6e3c084e6173747187eb395bbfce71f7515fa677528c6bd94413130136e2022006b93d8df57d3fbea0a9877a69c9d39f1d868bd74ebb34adc271332cd1f527af012103747acfaaefb160ddeef1c218d6dd656b53f870d945876f60af79169b87fdd8e7", "asm": "3045022100bbec6e3c084e6173747187eb395bbfce71f7515fa677528c6bd94413130136e2022006b93d8df57d3fbea0a9877a69c9d39f1d868bd74ebb34adc271332cd1f527af[ALL] 03747acfaaefb160ddeef1c218d6dd656b53f870d945876f60af79169b87fdd8e7"}, "vout": 0, "txid": "1469d43cac6106da2960e4813f5de7fdc7f6eab0d4f4f5384e3616e94b711c7f"}], "txid": "24b06edea70378d8ce2b17349ef4b63de97d0e73bee56f61399f560548633772", "blocktime": 1537870928, "version": 1, "confirmations": 11514, "time": 1537870928, "locktime": 0, "vsize": 226, "size": 226}