{"hash": "24b348c06b0a0dd541a3bd04708ee7a360fc1ab9ff1a7f5d53b123bdfde1236a", "blockhash": "00000000000000000024a2167bbff67b0be802c0b01cdd79e6331c2be6459f87", "vout": [{"scriptPubKey": {"reqSigs": 1, "hex": "76a914c5bddef7170b3d3e554aa30350c77d69cae98b2588ac", "addresses": ["1K2ZaFrFWgR2aHQz4rf79txJ6eTznrdiYH"], "asm": "OP_DUP OP_HASH160 c5bddef7170b3d3e554aa30350c77d69cae98b25 OP_EQUALVERIFY OP_CHECKSIG", "type": "pubkeyhash"}, "value": 0.000688, "n": 0}, {"scriptPubKey": {"reqSigs": 1, "hex": "76a91404804e0773fa686554b392f4e01180294d07601f88ac", "addresses": ["1QoQYPb5JiKyeK2jj47Rv9YTRGn6FVFCX"], "asm": "OP_DUP OP_HASH160 04804e0773fa686554b392f4e01180294d07601f OP_EQUALVERIFY OP_CHECKSIG", "type": "pubkeyhash"}, "value": 0.01535554, "n": 1}], "hex": "0100000001d0775d21b74e17c26d69a01f1b3773686d9cb8c9ea005cf0e50eac46610df66d010000006a47304402201adbc1fca8f6ca7a5c2fee2f483227e68326046af2605ef992586d65c42911d0022057a72f297b37e67327b2d777d685ae33e18fbc0b042fa3e349273156a4f07b05012102355ec030075ff36cd91b814894ce05a2ca712f97366a0713ffb58ca01059bb88ffffffff02c00c0100000000001976a914c5bddef7170b3d3e554aa30350c77d69cae98b2588ac426e1700000000001976a91404804e0773fa686554b392f4e01180294d07601f88ac00000000", "vin": [{"sequence": 4294967295, "scriptSig": {"hex": "47304402201adbc1fca8f6ca7a5c2fee2f483227e68326046af2605ef992586d65c42911d0022057a72f297b37e67327b2d777d685ae33e18fbc0b042fa3e349273156a4f07b05012102355ec030075ff36cd91b814894ce05a2ca712f97366a0713ffb58ca01059bb88", "asm": "304402201adbc1fca8f6ca7a5c2fee2f483227e68326046af2605ef992586d65c42911d0022057a72f297b37e67327b2d777d685ae33e18fbc0b042fa3e349273156a4f07b05[ALL] 02355ec030075ff36cd91b814894ce05a2ca712f97366a0713ffb58ca01059bb88"}, "vout": 1, "txid": "6df60d6146ac0ee5f05c00eac9b89c6d6873371b1fa0696dc2174eb7215d77d0"}], "txid": "24b348c06b0a0dd541a3bd04708ee7a360fc1ab9ff1a7f5d53b123bdfde1236a", "blocktime": 1537870564, "version": 1, "confirmations": 11515, "time": 1537870564, "locktime": 0, "vsize": 225, "size": 225}