{"hash": "24b7493ba03aba471bd43cde85a956c114e350ad04e807e972f063664dfe0508", "blockhash": "00000000000000000024a2167bbff67b0be802c0b01cdd79e6331c2be6459f87", "vout": [{"scriptPubKey": {"reqSigs": 1, "hex": "a9142f7d032d976f847b4d21231110432de29f52771f87", "addresses": ["3627SaHFftr56ixpPM2ZsPuTG9EkHkqC1r"], "asm": "OP_HASH160 2f7d032d976f847b4d21231110432de29f52771f OP_EQUAL", "type": "scripthash"}, "value": 0.0087206, "n": 0}, {"scriptPubKey": {"reqSigs": 1, "hex": "76a9148093fc6cc067f231ecb3cccc1b82f6082d6cf12d88ac", "addresses": ["1CirmoeQwucZckVFp8GA4vKDuJQTvGMGCK"], "asm": "OP_DUP OP_HASH160 8093fc6cc067f231ecb3cccc1b82f6082d6cf12d OP_EQUALVERIFY OP_CHECKSIG", "type": "pubkeyhash"}, "value": 0.000131, "n": 1}], "hex": "01000000027f703848eaca7b4ad25547185316d9b45673e8f2216abb00d771b6d5ace9d0e7010000006b483045022100b766b13293085543b87b4b923752c550f4762bf910a9682c65e08e52abf0550002202bb5dd705be029f750c1ecd4f09f3045b89a4b602ae3ddf02dceadc6e1f05abc0121027b560380b1488a2913a499a1484309007235de03b7a312f07b470bf37460e876ffffffff166bc88f510d7a9499aa9c3ae9ef7c8e6ffe38f1c3198241f7692f1aabb150c1000000006a473044022008143c9b98a0bf6576c1125764bda6fb945349fb1061fc037ce1830e24690c2602201d1e4004ae793b330a0c2653b2682497b7f7812c4bbf15819b1928d361ae2d660121027b560380b1488a2913a499a1484309007235de03b7a312f07b470bf37460e876ffffffff027c4e0d000000000017a9142f7d032d976f847b4d21231110432de29f52771f872c330000000000001976a9148093fc6cc067f231ecb3cccc1b82f6082d6cf12d88ac00000000", "vin": [{"sequence": 4294967295, "scriptSig": {"hex": "483045022100b766b13293085543b87b4b923752c550f4762bf910a9682c65e08e52abf0550002202bb5dd705be029f750c1ecd4f09f3045b89a4b602ae3ddf02dceadc6e1f05abc0121027b560380b1488a2913a499a1484309007235de03b7a312f07b470bf37460e876", "asm": "3045022100b766b13293085543b87b4b923752c550f4762bf910a9682c65e08e52abf0550002202bb5dd705be029f750c1ecd4f09f3045b89a4b602ae3ddf02dceadc6e1f05abc[ALL] 027b560380b1488a2913a499a1484309007235de03b7a312f07b470bf37460e876"}, "vout": 1, "txid": "e7d0e9acd5b671d700bb6a21f2e87356b4d91653184755d24a7bcaea4838707f"}, {"sequence": 4294967295, "scriptSig": {"hex": "473044022008143c9b98a0bf6576c1125764bda6fb945349fb1061fc037ce1830e24690c2602201d1e4004ae793b330a0c2653b2682497b7f7812c4bbf15819b1928d361ae2d660121027b560380b1488a2913a499a1484309007235de03b7a312f07b470bf37460e876", "asm": "3044022008143c9b98a0bf6576c1125764bda6fb945349fb1061fc037ce1830e24690c2602201d1e4004ae793b330a0c2653b2682497b7f7812c4bbf15819b1928d361ae2d66[ALL] 027b560380b1488a2913a499a1484309007235de03b7a312f07b470bf37460e876"}, "vout": 0, "txid": "c150b1ab1a2f69f7418219c3f138fe6f8e7cefe93a9caa99947a0d518fc86b16"}], "txid": "24b7493ba03aba471bd43cde85a956c114e350ad04e807e972f063664dfe0508", "blocktime": 1537870564, "version": 1, "confirmations": 11515, "time": 1537870564, "locktime": 0, "vsize": 371, "size": 371}