{"hash": "d317f34bd55de4543e2f97ef7fc0ed4c1f1c5ab1824e0a82db2971dae7bceefd", "blockhash": "00000000000000000018f53835495a110e01622372bf6ae95dc86f2b0ab887b0", "vout": [{"scriptPubKey": {"reqSigs": 1, "hex": "a91451b5dff691d408a7b3ab13ca84a7056644b5529f87", "addresses": ["3994Xy8VDtHHjXFxUQZVgh5p7De8tuy3jG"], "asm": "OP_HASH160 51b5dff691d408a7b3ab13ca84a7056644b5529f OP_EQUAL", "type": "scripthash"}, "value": 0.28344241, "n": 0}, {"scriptPubKey": {"reqSigs": 1, "hex": "76a914954e3433e759a0bb01a0ef5af37e9e21267b5fc088ac", "addresses": ["1EcTNHbb95CJPmZF3hux3oc66vTZTcvttW"], "asm": "OP_DUP OP_HASH160 954e3433e759a0bb01a0ef5af37e9e21267b5fc0 OP_EQUALVERIFY OP_CHECKSIG", "type": "pubkeyhash"}, "value": 0.094837, "n": 1}], "hex": "020000000001015b7274e983edc9144c5f5081100a943f94c267f74dc9724fdefc7be03459737600000000171600143459cae442874600f4587e1dab85cba0146edde6fdffffff02b17fb0010000000017a91451b5dff691d408a7b3ab13ca84a7056644b5529f87b4b59000000000001976a914954e3433e759a0bb01a0ef5af37e9e21267b5fc088ac02473044022066f8b8b011840743f92d9466af95aa203203c9b246cbe6b9e99aadf75f3c116e02206cb7480cf48fc3d6ea1345fddda3f9b41e27a1cf18d48a417b29269c156ade20012102c7fda1d48afc9a37cc64189340cf27c49e3792a67c4bf482c049f1776c6186ae0d490800", "vin": [{"txinwitness": ["3044022066f8b8b011840743f92d9466af95aa203203c9b246cbe6b9e99aadf75f3c116e02206cb7480cf48fc3d6ea1345fddda3f9b41e27a1cf18d48a417b29269c156ade2001", "02c7fda1d48afc9a37cc64189340cf27c49e3792a67c4bf482c049f1776c6186ae"], "sequence": 4294967293, "scriptSig": {"hex": "1600143459cae442874600f4587e1dab85cba0146edde6", "asm": "00143459cae442874600f4587e1dab85cba0146edde6"}, "vout": 0, "txid": "76735934e07bfcde4f72c94df767c2943f940a1081505f4c14c9ed83e974725b"}], "txid": "24b79c97147aefaa1bcec54f750f3f37473a45bf70449d69fdf30c2728099a8f", "blocktime": 1537870928, "version": 2, "confirmations": 11514, "time": 1537870928, "locktime": 542989, "vsize": 168, "size": 249}