{"hash": "24bf9ff7a4a9ddbf3a781f17484c17086472cea495821509dbf9df12f629b482", "blockhash": "0000000000000000001cda96e906b7601b7a6fb1a3b62bca570a9e5d8f4b3de1", "vout": [{"scriptPubKey": {"reqSigs": 1, "hex": "76a914427b6378f0c782031f8847bc795ca9f4cbc5385f88ac", "addresses": ["174XQrDVzRSHqNrgsnfsxfuB4kDasgYbU5"], "asm": "OP_DUP OP_HASH160 427b6378f0c782031f8847bc795ca9f4cbc5385f OP_EQUALVERIFY OP_CHECKSIG", "type": "pubkeyhash"}, "value": 0.00020445, "n": 0}, {"scriptPubKey": {"reqSigs": 1, "hex": "a914ad34ad387afe175ac0d1b2b91291933f1943260187", "addresses": ["3HUqvmUwK8YeWK8UE3gRD4gWfUYPxmaSFC"], "asm": "OP_HASH160 ad34ad387afe175ac0d1b2b91291933f19432601 OP_EQUAL", "type": "scripthash"}, "value": 0.00027962, "n": 1}], "hex": "01000000029cf4cf0178a777d4f55838aebf237f235b6080ccf4c307b2dac948e1cb4805d1000000006b483045022100878b5eb763e2fe27299b3a99976f1bc1524ae818b035941ccb1b91ebe11d7da202201b9716d8e78f9775cd4e73fa1be7098b0f2c1399f646b2cad5d4937247c414960121030281c010d1409fc7a041498c606e218f8f213fb82f86540f256aef57d4961e9efffffffffffa669c19ce88876f0476be58d6d9abb563b36ec87f848145dc7d432c7ce4ff000000006a473044022003761a75aa966d41699b96e757e6d3013d268586047c553087738341185a235302207054948e0d062e43aa59327d0670d08027eb43c619f7083f21c0c24746263ae90121020b8750f1e5438463e601dee70ffd058fcc76b7eb31d40873ab2ee971ca4bd32fffffffff02dd4f0000000000001976a914427b6378f0c782031f8847bc795ca9f4cbc5385f88ac3a6d00000000000017a914ad34ad387afe175ac0d1b2b91291933f194326018700000000", "vin": [{"sequence": 4294967295, "scriptSig": {"hex": "483045022100878b5eb763e2fe27299b3a99976f1bc1524ae818b035941ccb1b91ebe11d7da202201b9716d8e78f9775cd4e73fa1be7098b0f2c1399f646b2cad5d4937247c414960121030281c010d1409fc7a041498c606e218f8f213fb82f86540f256aef57d4961e9e", "asm": "3045022100878b5eb763e2fe27299b3a99976f1bc1524ae818b035941ccb1b91ebe11d7da202201b9716d8e78f9775cd4e73fa1be7098b0f2c1399f646b2cad5d4937247c41496[ALL] 030281c010d1409fc7a041498c606e218f8f213fb82f86540f256aef57d4961e9e"}, "vout": 0, "txid": "d10548cbe148c9dab207c3f4cc80605b237f23bfae3858f5d477a77801cff49c"}, {"sequence": 4294967295, "scriptSig": {"hex": "473044022003761a75aa966d41699b96e757e6d3013d268586047c553087738341185a235302207054948e0d062e43aa59327d0670d08027eb43c619f7083f21c0c24746263ae90121020b8750f1e5438463e601dee70ffd058fcc76b7eb31d40873ab2ee971ca4bd32f", "asm": "3044022003761a75aa966d41699b96e757e6d3013d268586047c553087738341185a235302207054948e0d062e43aa59327d0670d08027eb43c619f7083f21c0c24746263ae9[ALL] 020b8750f1e5438463e601dee70ffd058fcc76b7eb31d40873ab2ee971ca4bd32f"}, "vout": 0, "txid": "ffe47c2c437ddc4581847fc86eb363b5abd9d658be76046f8788ce199c66faff"}], "txid": "24bf9ff7a4a9ddbf3a781f17484c17086472cea495821509dbf9df12f629b482", "blocktime": 1537873282, "version": 1, "confirmations": 11483, "time": 1537873282, "locktime": 0, "vsize": 371, "size": 371}