{"hash": "24c3de9339060e137bba3dad1a21033887b89d6743765d915b4f99f84e5a8f86", "blockhash": "0000000000000000001cda96e906b7601b7a6fb1a3b62bca570a9e5d8f4b3de1", "vout": [{"scriptPubKey": {"reqSigs": 1, "hex": "76a914ad2120cf6b895432ce6782ba2ab386d18036d4cc88ac", "addresses": ["1GnRayNXw4Ric3YTy1hoAkhXzhYbNimo23"], "asm": "OP_DUP OP_HASH160 ad2120cf6b895432ce6782ba2ab386d18036d4cc OP_EQUALVERIFY OP_CHECKSIG", "type": "pubkeyhash"}, "value": 0.0147606, "n": 0}, {"scriptPubKey": {"type": "nulldata", "hex": "6a4c50000077c300010b5e46bdc81f8d0f3b962b94e5bf9ae76da98a211aaf6c953dd567cf27e7601ec98dd929e2171bc9b1ec737f212d5baa12f7061341c2a4e4d724bc9a9526289ac0f6612cd74e33776ee4", "asm": "OP_RETURN 000077c300010b5e46bdc81f8d0f3b962b94e5bf9ae76da98a211aaf6c953dd567cf27e7601ec98dd929e2171bc9b1ec737f212d5baa12f7061341c2a4e4d724bc9a9526289ac0f6612cd74e33776ee4"}, "value": 0.0, "n": 1}], "hex": "01000000017ceed78540f44080b0135fc6e416ac3b0c97a6e5acb4be66aa737255492f566e010000006b483045022100bdf62befe796df6ae80b691745e3f8838ac554731affaa38d9b8013247258d4902205da4c2a8af72c21787bc2618d367148fb87d2c8dabe89c7b9a8084047240e7ad012102ac05e0d4af2e48c2ca452ecaba17757a55b46aa8169785074457e656046a9c6affffffff02dc851600000000001976a914ad2120cf6b895432ce6782ba2ab386d18036d4cc88ac0000000000000000536a4c50000077c300010b5e46bdc81f8d0f3b962b94e5bf9ae76da98a211aaf6c953dd567cf27e7601ec98dd929e2171bc9b1ec737f212d5baa12f7061341c2a4e4d724bc9a9526289ac0f6612cd74e33776ee400000000", "vin": [{"sequence": 4294967295, "scriptSig": {"hex": "483045022100bdf62befe796df6ae80b691745e3f8838ac554731affaa38d9b8013247258d4902205da4c2a8af72c21787bc2618d367148fb87d2c8dabe89c7b9a8084047240e7ad012102ac05e0d4af2e48c2ca452ecaba17757a55b46aa8169785074457e656046a9c6a", "asm": "3045022100bdf62befe796df6ae80b691745e3f8838ac554731affaa38d9b8013247258d4902205da4c2a8af72c21787bc2618d367148fb87d2c8dabe89c7b9a8084047240e7ad[ALL] 02ac05e0d4af2e48c2ca452ecaba17757a55b46aa8169785074457e656046a9c6a"}, "vout": 1, "txid": "6e562f49557273aa66beb4ace5a6970c3bac16e4c65f13b08040f44085d7ee7c"}], "txid": "24c3de9339060e137bba3dad1a21033887b89d6743765d915b4f99f84e5a8f86", "blocktime": 1537873282, "version": 1, "confirmations": 11484, "time": 1537873282, "locktime": 0, "vsize": 284, "size": 284}