{"hash": "24cabe97ff8a482495d29a434cc13f0ab47c72b90a1ea2e811dd17959e2c1424", "blockhash": "0000000000000000000baef3f32e3676a92c3b2e5da21b426e4f302fc371ce76", "vout": [{"scriptPubKey": {"reqSigs": 1, "hex": "76a91411e1527f044b275140de851a6d53b8fb2bf99ba988ac", "addresses": ["12dYQvgZRDs3zCxn3TF7Bre3HjchAJ3QsV"], "asm": "OP_DUP OP_HASH160 11e1527f044b275140de851a6d53b8fb2bf99ba9 OP_EQUALVERIFY OP_CHECKSIG", "type": "pubkeyhash"}, "value": 0.00961684, "n": 0}, {"scriptPubKey": {"reqSigs": 1, "hex": "76a91449c725435890928b2d44cf5df531800ba9a41a7c88ac", "addresses": ["17j6tt24t2eRCeYD6gwC98cKiuCLUgW6sQ"], "asm": "OP_DUP OP_HASH160 49c725435890928b2d44cf5df531800ba9a41a7c OP_EQUALVERIFY OP_CHECKSIG", "type": "pubkeyhash"}, "value": 0.31333622, "n": 1}], "hex": "0100000006298c2f9add522c2b459f88d9ed839c9e563a94f958ef03c11e2a05f0fa56372e060000006b483045022100cfcc4c867d126c2cd0b6adaf0aab4b727a4b67b85991911e48b9596597ca167002203d74fbb0d53004937b16db2156d0bb0e15c2edaefb7ff2d15d8531c01854725b01210345534c8549b238bb64de236f4d168be04bf8c4ce2017d2fe6c1d380f23c3b457ffffffffcca142809ba52a4582c7a2dad59fe33e293ed3df33db65d6f6bbafadc306672e010000006b483045022100a8a9cb274f02072ee71de3299efb577b899f265b09b75f90cf070d801f01f2550220707415a75f257cbbedd29e2e0ecd3fa0b858d4a088e428b730645c22ae2721b9012103f97b906d8979ec048aaddfb5b01973038cce7f88813abb638cf0d6516ae537bafffffffff002072dd8a1a370717e70fe97d741cb9cc11fff2ec5e3d4696b812b8f76b032000000006b483045022100f8815d79352b07c02af8cbbc40e5432e940b195d0fd3951800b2f701c6ebc71b02200387c614a157b62e2ee5e6845cf293c0aceef83d4380a37aa9a4a1e4c9507380012102d67d837ec9e49ba9e444235c9d001f7693d4df21f15be5b4ca79261a209beffbffffffff039c72c43258b694a15856afe956da1d661248334c43dd1944235820edae2845000000006a47304402207b96684375ce3b6f559f52dff7413340aabfb082e7e37e3eba4464f9e715059d02204c506efc95b658e1fd9285e327f015c8a7162b7c95b7696b05b14c2617a86b880121035325dc21e311185faa1add0a7d371589c7aea7bfeb051b0ba3386c804960d046ffffffff2d7a7e77b0c149bb9d5df62fb9ca76045128cbfd68e851d4a010ffaf66cb9185010000006a47304402207cebf3bd9c17531a96ab9e11c5550d42c2df033305e6c5edab4516dd2ca317c1022061b2cb61897e4d67ae6c21aef764022632aca106abc924bc81e8d46e6600842b012102c6f2066e0e28a1e09a088d335f4cde4c208f89703f1f72b0eba77097864dbcb5ffffffff6bf68b0904f808ca8b3fab2420ad32b5728d46eb5296e1facad3e80b4c9651eb010000006a47304402204ba44a40a70bbcad00ecbfd71a39095ffcc023312d5780022aba5b6e3af7bd14022073a7793b1ecf5af500bdbcb881b1546479a5e4833b7cb83f684fc5aaf7c0ae160121031af653de71610c9da82b39015cbdbf3b1603811007c46718ceafc76bf388e972ffffffff0294ac0e00000000001976a91411e1527f044b275140de851a6d53b8fb2bf99ba988acf61cde01000000001976a91449c725435890928b2d44cf5df531800ba9a41a7c88ac00000000", "vin": [{"sequence": 4294967295, "scriptSig": {"hex": "483045022100cfcc4c867d126c2cd0b6adaf0aab4b727a4b67b85991911e48b9596597ca167002203d74fbb0d53004937b16db2156d0bb0e15c2edaefb7ff2d15d8531c01854725b01210345534c8549b238bb64de236f4d168be04bf8c4ce2017d2fe6c1d380f23c3b457", "asm": "3045022100cfcc4c867d126c2cd0b6adaf0aab4b727a4b67b85991911e48b9596597ca167002203d74fbb0d53004937b16db2156d0bb0e15c2edaefb7ff2d15d8531c01854725b[ALL] 0345534c8549b238bb64de236f4d168be04bf8c4ce2017d2fe6c1d380f23c3b457"}, "vout": 6, "txid": "2e3756faf0052a1ec103ef58f9943a569e9c83edd9889f452b2c52dd9a2f8c29"}, {"sequence": 4294967295, "scriptSig": {"hex": "483045022100a8a9cb274f02072ee71de3299efb577b899f265b09b75f90cf070d801f01f2550220707415a75f257cbbedd29e2e0ecd3fa0b858d4a088e428b730645c22ae2721b9012103f97b906d8979ec048aaddfb5b01973038cce7f88813abb638cf0d6516ae537ba", "asm": "3045022100a8a9cb274f02072ee71de3299efb577b899f265b09b75f90cf070d801f01f2550220707415a75f257cbbedd29e2e0ecd3fa0b858d4a088e428b730645c22ae2721b9[ALL] 03f97b906d8979ec048aaddfb5b01973038cce7f88813abb638cf0d6516ae537ba"}, "vout": 1, "txid": "2e6706c3adafbbf6d665db33dfd33e293ee39fd5daa2c782452aa59b8042a1cc"}, {"sequence": 4294967295, "scriptSig": {"hex": "483045022100f8815d79352b07c02af8cbbc40e5432e940b195d0fd3951800b2f701c6ebc71b02200387c614a157b62e2ee5e6845cf293c0aceef83d4380a37aa9a4a1e4c9507380012102d67d837ec9e49ba9e444235c9d001f7693d4df21f15be5b4ca79261a209beffb", "asm": "3045022100f8815d79352b07c02af8cbbc40e5432e940b195d0fd3951800b2f701c6ebc71b02200387c614a157b62e2ee5e6845cf293c0aceef83d4380a37aa9a4a1e4c9507380[ALL] 02d67d837ec9e49ba9e444235c9d001f7693d4df21f15be5b4ca79261a209beffb"}, "vout": 0, "txid": "32b0768f2b816b69d4e3c52eff1fc19ccb41d797fe707e7170a3a1d82d0702f0"}, {"sequence": 4294967295, "scriptSig": {"hex": "47304402207b96684375ce3b6f559f52dff7413340aabfb082e7e37e3eba4464f9e715059d02204c506efc95b658e1fd9285e327f015c8a7162b7c95b7696b05b14c2617a86b880121035325dc21e311185faa1add0a7d371589c7aea7bfeb051b0ba3386c804960d046", "asm": "304402207b96684375ce3b6f559f52dff7413340aabfb082e7e37e3eba4464f9e715059d02204c506efc95b658e1fd9285e327f015c8a7162b7c95b7696b05b14c2617a86b88[ALL] 035325dc21e311185faa1add0a7d371589c7aea7bfeb051b0ba3386c804960d046"}, "vout": 0, "txid": "4528aeed2058234419dd434c334812661dda56e9af5658a194b65832c4729c03"}, {"sequence": 4294967295, "scriptSig": {"hex": "47304402207cebf3bd9c17531a96ab9e11c5550d42c2df033305e6c5edab4516dd2ca317c1022061b2cb61897e4d67ae6c21aef764022632aca106abc924bc81e8d46e6600842b012102c6f2066e0e28a1e09a088d335f4cde4c208f89703f1f72b0eba77097864dbcb5", "asm": "304402207cebf3bd9c17531a96ab9e11c5550d42c2df033305e6c5edab4516dd2ca317c1022061b2cb61897e4d67ae6c21aef764022632aca106abc924bc81e8d46e6600842b[ALL] 02c6f2066e0e28a1e09a088d335f4cde4c208f89703f1f72b0eba77097864dbcb5"}, "vout": 1, "txid": "8591cb66afff10a0d451e868fdcb28510476cab92ff65d9dbb49c1b0777e7a2d"}, {"sequence": 4294967295, "scriptSig": {"hex": "47304402204ba44a40a70bbcad00ecbfd71a39095ffcc023312d5780022aba5b6e3af7bd14022073a7793b1ecf5af500bdbcb881b1546479a5e4833b7cb83f684fc5aaf7c0ae160121031af653de71610c9da82b39015cbdbf3b1603811007c46718ceafc76bf388e972", "asm": "304402204ba44a40a70bbcad00ecbfd71a39095ffcc023312d5780022aba5b6e3af7bd14022073a7793b1ecf5af500bdbcb881b1546479a5e4833b7cb83f684fc5aaf7c0ae16[ALL] 031af653de71610c9da82b39015cbdbf3b1603811007c46718ceafc76bf388e972"}, "vout": 1, "txid": "eb51964c0be8d3cafae19652eb468d72b532ad2024ab3f8bca08f804098bf66b"}], "txid": "24cabe97ff8a482495d29a434cc13f0ab47c72b90a1ea2e811dd17959e2c1424", "blocktime": 1537876114, "version": 1, "confirmations": 11460, "time": 1537876114, "locktime": 0, "vsize": 963, "size": 963}