{"hash": "24ca98024abe48cafd27b5531bfbf423fc97b9dc9f093ea3c3b0d8b6ae57b532", "blockhash": "0000000000000000001cda96e906b7601b7a6fb1a3b62bca570a9e5d8f4b3de1", "vout": [{"scriptPubKey": {"type": "nulldata", "hex": "6a4c50000077ce000147dac6a2c35aff3bb21f6bb15b23cc0f42c2fc38c5e5bf9ae76da98a211a244d9450dbc6e1130efc8a8660b4cb825baa1419061363ed63ed43c04bbf23acfcfaac8058b692fe6808c31d", "asm": "OP_RETURN 000077ce000147dac6a2c35aff3bb21f6bb15b23cc0f42c2fc38c5e5bf9ae76da98a211a244d9450dbc6e1130efc8a8660b4cb825baa1419061363ed63ed43c04bbf23acfcfaac8058b692fe6808c31d"}, "value": 0.0, "n": 0}, {"scriptPubKey": {"reqSigs": 1, "hex": "76a9149ff9d23c31feb6c3ba33e9c60d92f82abf20563988ac", "addresses": ["1FasiPJMxK7VkUQuGB84ToNStSQz3Yz5KB"], "asm": "OP_DUP OP_HASH160 9ff9d23c31feb6c3ba33e9c60d92f82abf205639 OP_EQUALVERIFY OP_CHECKSIG", "type": "pubkeyhash"}, "value": 0.00012169, "n": 1}], "hex": "0100000001f49eabc752955e50ca29044f052b7d91fe5da8a7b2828fd942b8099678c77378010000006a4730440220179d572bbbcd0172abea78a6691d56114034ad2f836ad35f6e49b8c8c392766b0220559f10d4ddf3178436adb9557e1b1cc45be22d45bb644a07db5edafdbda23cf101210338c5b515c3b4ba6fdfc34554508d89752ff08680703389090fcc3b3cb6f2d4d0ffffffff020000000000000000536a4c50000077ce000147dac6a2c35aff3bb21f6bb15b23cc0f42c2fc38c5e5bf9ae76da98a211a244d9450dbc6e1130efc8a8660b4cb825baa1419061363ed63ed43c04bbf23acfcfaac8058b692fe6808c31d892f0000000000001976a9149ff9d23c31feb6c3ba33e9c60d92f82abf20563988ac00000000", "vin": [{"sequence": 4294967295, "scriptSig": {"hex": "4730440220179d572bbbcd0172abea78a6691d56114034ad2f836ad35f6e49b8c8c392766b0220559f10d4ddf3178436adb9557e1b1cc45be22d45bb644a07db5edafdbda23cf101210338c5b515c3b4ba6fdfc34554508d89752ff08680703389090fcc3b3cb6f2d4d0", "asm": "30440220179d572bbbcd0172abea78a6691d56114034ad2f836ad35f6e49b8c8c392766b0220559f10d4ddf3178436adb9557e1b1cc45be22d45bb644a07db5edafdbda23cf1[ALL] 0338c5b515c3b4ba6fdfc34554508d89752ff08680703389090fcc3b3cb6f2d4d0"}, "vout": 1, "txid": "7873c7789609b842d98f82b2a7a85dfe917d2b054f0429ca505e9552c7ab9ef4"}], "txid": "24ca98024abe48cafd27b5531bfbf423fc97b9dc9f093ea3c3b0d8b6ae57b532", "blocktime": 1537873282, "version": 1, "confirmations": 11484, "time": 1537873282, "locktime": 0, "vsize": 283, "size": 283}