{"hash": "cd15ea5d12fe9a5031aca8bb5c0670879861df729d2d2abcfb121b9e4b0d19d3", "blockhash": "0000000000000000000e13cef7c366c0283d82e591d1acd082e914b08063cdf1", "vout": [{"scriptPubKey": {"reqSigs": 1, "hex": "76a91401e7a921be4332389575765177510ba8855e5a1188ac", "addresses": ["1B5CFw3KyyXMKMXihVxH8xc4LDSzjXKHD"], "asm": "OP_DUP OP_HASH160 01e7a921be4332389575765177510ba8855e5a11 OP_EQUALVERIFY OP_CHECKSIG", "type": "pubkeyhash"}, "value": 0.0024616, "n": 0}, {"scriptPubKey": {"reqSigs": 1, "hex": "a914e32f5507db5db97f0f99bf20f9f33d28a694f73087", "addresses": ["3NQG1nUEdThdPJ46FUMrT5KVoe4t4U1LVe"], "asm": "OP_HASH160 e32f5507db5db97f0f99bf20f9f33d28a694f730 OP_EQUAL", "type": "scripthash"}, "value": 0.0103055, "n": 1}], "hex": "020000000001022ee2a0f431500c9a339fb565adee54823861a99066ef8e7e3212323fccf70c4e0600000017160014c9e3dc91636d94e45cf3b647ac50a52c6ef730f4feffffff9ab6f83bfd00776f2dfd3f3c796a4f7dc9c82947f55b2d2642436aa8926d5d970100000017160014c73b14d43e0f017d1f9ba661b0162592169603f2feffffff0290c10300000000001976a91401e7a921be4332389575765177510ba8855e5a1188ac96b90f000000000017a914e32f5507db5db97f0f99bf20f9f33d28a694f730870247304402207eab4fff276ab765f3a7da0a470801c6e713b3cb82b409039d8cd07f77acf2fc02207556e81944ad496e386872c3d81aa774212a1c3e79e47a23f5863853edcf6d1a01210267346f3de6d6daeea3c485b1be184037eaac6482f01eeb987d552d80bdfbc7d40247304402206360ca2857f178b8b43684be546f60a0d049654729b8a8eca7ee5241cadbcf0c022004153ffa3c6d17a5db7be65cde04ad21803cdd6e710a95d351af43608cdb0f7801210339e4a0574c48025c401c451927646fff65471aa38d5ef6acdc838795a9cd1fad10490800", "vin": [{"txinwitness": ["304402207eab4fff276ab765f3a7da0a470801c6e713b3cb82b409039d8cd07f77acf2fc02207556e81944ad496e386872c3d81aa774212a1c3e79e47a23f5863853edcf6d1a01", "0267346f3de6d6daeea3c485b1be184037eaac6482f01eeb987d552d80bdfbc7d4"], "sequence": 4294967294, "scriptSig": {"hex": "160014c9e3dc91636d94e45cf3b647ac50a52c6ef730f4", "asm": "0014c9e3dc91636d94e45cf3b647ac50a52c6ef730f4"}, "vout": 6, "txid": "4e0cf7cc3f3212327e8eef6690a961388254eead65b59f339a0c5031f4a0e22e"}, {"txinwitness": ["304402206360ca2857f178b8b43684be546f60a0d049654729b8a8eca7ee5241cadbcf0c022004153ffa3c6d17a5db7be65cde04ad21803cdd6e710a95d351af43608cdb0f7801", "0339e4a0574c48025c401c451927646fff65471aa38d5ef6acdc838795a9cd1fad"], "sequence": 4294967294, "scriptSig": {"hex": "160014c73b14d43e0f017d1f9ba661b0162592169603f2", "asm": "0014c73b14d43e0f017d1f9ba661b0162592169603f2"}, "vout": 1, "txid": "975d6d92a86a4342262d5bf54729c8c97d4f6a793c3ffd2d6f7700fd3bf8b69a"}], "txid": "24d227092f189cdda628db316dcea52f5ec6d2bcc312c93b27a3ff92dfe5ae90", "blocktime": 1537871767, "version": 2, "confirmations": 11495, "time": 1537871767, "locktime": 542992, "vsize": 258, "size": 420}