{"hash": "2c1a43876bb0a3d673c918dc116fe4c008a984a8de65d115b8b50f6532def7bd", "blockhash": "00000000000000000018f53835495a110e01622372bf6ae95dc86f2b0ab887b0", "vout": [{"scriptPubKey": {"reqSigs": 1, "hex": "76a914cbfd32e98e837932ddc40d606479c881f1a58ce288ac", "addresses": ["1KbbVWTdyLn1WP4S3D6LyoBHnpv1BaUZcp"], "asm": "OP_DUP OP_HASH160 cbfd32e98e837932ddc40d606479c881f1a58ce2 OP_EQUALVERIFY OP_CHECKSIG", "type": "pubkeyhash"}, "value": 0.00775882, "n": 0}], "hex": "02000000000103921da845784c88dc4bb06adad862c91ec5d3624891f7aee0bd1699ca40a59d1e0100000017160014acba0b7d3336d77c504f5be718d39907c21e0b2efeffffff9f931e6dc09e71573ab008a8ddea744a20f7a01ea2e8dc749851e71caf8fdf5c0100000017160014b9bb5cbb0fa71b26a4d6eec8f3e79e559e6e6976feffffffce75acd25f434ff5789287722d6e854bb618665716dffd1a2dcb80053153400b00000000171600143c0686347c6188f4dd71df8ab30159467f543113feffffff01cad60b00000000001976a914cbfd32e98e837932ddc40d606479c881f1a58ce288ac02483045022100acdaf96354c105ebbec3b277b7b7800c604de78298a14cb4b34885756921954f0220276e6048be2c33a5bfee2627ad4ac7b97591045287bd4a1f6d87a6642c1792d501210361eb1608d6b868fe5996c1cd7ca5bbdcdf94fcd7b2005dd3dda0792ce39e687002483045022100db50349db970c30e7d3e3ebc70a6a272df14f91c243fa7368ee2b69c0e06f0d302204d0b660b5456abe94f478659ccdfcabca53dc565d10eefc4e1649ebd897c77c1012102aef2fa306ca6fe557edb370635f31aa2e205c2e1636c8a6e2fc1910d139392b90247304402201f942292708684a554379d85b4efce9bd8086f03f2be97a522278b3becadfeae02204a9c0ff69ea70e5d2f19e347a3da811702ca1b2da23234744a6f4b5f4a7ed52f012102c41e9cb76d74f132ad53531ea14a454e38e3a3e990cf409491ec2f6654dfef220e490800", "vin": [{"txinwitness": ["3045022100acdaf96354c105ebbec3b277b7b7800c604de78298a14cb4b34885756921954f0220276e6048be2c33a5bfee2627ad4ac7b97591045287bd4a1f6d87a6642c1792d501", "0361eb1608d6b868fe5996c1cd7ca5bbdcdf94fcd7b2005dd3dda0792ce39e6870"], "sequence": 4294967294, "scriptSig": {"hex": "160014acba0b7d3336d77c504f5be718d39907c21e0b2e", "asm": "0014acba0b7d3336d77c504f5be718d39907c21e0b2e"}, "vout": 1, "txid": "1e9da540ca9916bde0aef7914862d3c51ec962d8da6ab04bdc884c7845a81d92"}, {"txinwitness": ["3045022100db50349db970c30e7d3e3ebc70a6a272df14f91c243fa7368ee2b69c0e06f0d302204d0b660b5456abe94f478659ccdfcabca53dc565d10eefc4e1649ebd897c77c101", "02aef2fa306ca6fe557edb370635f31aa2e205c2e1636c8a6e2fc1910d139392b9"], "sequence": 4294967294, "scriptSig": {"hex": "160014b9bb5cbb0fa71b26a4d6eec8f3e79e559e6e6976", "asm": "0014b9bb5cbb0fa71b26a4d6eec8f3e79e559e6e6976"}, "vout": 1, "txid": "5cdf8faf1ce7519874dce8a21ea0f7204a74eadda808b03a57719ec06d1e939f"}, {"txinwitness": ["304402201f942292708684a554379d85b4efce9bd8086f03f2be97a522278b3becadfeae02204a9c0ff69ea70e5d2f19e347a3da811702ca1b2da23234744a6f4b5f4a7ed52f01", "02c41e9cb76d74f132ad53531ea14a454e38e3a3e990cf409491ec2f6654dfef22"], "sequence": 4294967294, "scriptSig": {"hex": "1600143c0686347c6188f4dd71df8ab30159467f543113", "asm": "00143c0686347c6188f4dd71df8ab30159467f543113"}, "vout": 0, "txid": "0b4053310580cb2d1afddf16576618b64b856e2d72879278f54f435fd2ac75ce"}], "txid": "24d4fc9bbb932c7f235e2ae4e90ddab232e099395e0787e551b474225a1e501c", "blocktime": 1537870928, "version": 2, "confirmations": 11514, "time": 1537870928, "locktime": 542990, "vsize": 318, "size": 561}