{"hash": "a8ab6cbcccbdad51c5e44d0d214510f66d9f607a26fa125d5112e4c538ba013a", "blockhash": "0000000000000000000baef3f32e3676a92c3b2e5da21b426e4f302fc371ce76", "vout": [{"scriptPubKey": {"reqSigs": 1, "hex": "a91490e99e8d26d05ead3c05430c292a887bbff695f587", "addresses": ["3EuF6KjJawxTiUsea3Sc8hsLUGmVEf7Xg5"], "asm": "OP_HASH160 90e99e8d26d05ead3c05430c292a887bbff695f5 OP_EQUAL", "type": "scripthash"}, "value": 0.00091527, "n": 0}, {"scriptPubKey": {"type": "nulldata", "hex": "6a146f6d6e69000000000000001f0000000005f5e100", "asm": "OP_RETURN 6f6d6e69000000000000001f0000000005f5e100"}, "value": 0.0, "n": 1}, {"scriptPubKey": {"reqSigs": 1, "hex": "a91490e99e8d26d05ead3c05430c292a887bbff695f587", "addresses": ["3EuF6KjJawxTiUsea3Sc8hsLUGmVEf7Xg5"], "asm": "OP_HASH160 90e99e8d26d05ead3c05430c292a887bbff695f5 OP_EQUAL", "type": "scripthash"}, "value": 5.4e-06, "n": 2}], "hex": "0100000000010225bf56900267686109604f28e7753391b05af7a453c50cc3042e163339e941cd0000000017160014f6e1792e7852ebd5ae795c2a25d579acdfadec2dffffffff25bf56900267686109604f28e7753391b05af7a453c50cc3042e163339e941cd0200000017160014f6e1792e7852ebd5ae795c2a25d579acdfadec2dffffffff03876501000000000017a91490e99e8d26d05ead3c05430c292a887bbff695f5870000000000000000166a146f6d6e69000000000000001f0000000005f5e1001c0200000000000017a91490e99e8d26d05ead3c05430c292a887bbff695f58702483045022100d62dc4c6446b21a61a7341fc12cff262c2309a875eafd473eaf8762e4f19adc202201003309ea3cf8127666f63d2ab7f19f930253e8b972da0ef88b32862bfe6f15f012103f1cf988013a33e053d1e9bd54c4798c1a6dc362a5b2798b5344049fca40e2db002483045022100af45afa9cfc722ac48271e9d1e5ce8a53b75eac51d2b82bfbafe175d8016e873022032485f14766aa77ae7c358c2bd125b3f6fef3f225640390b540dd37f38ee6f9e012103f1cf988013a33e053d1e9bd54c4798c1a6dc362a5b2798b5344049fca40e2db000000000", "vin": [{"txinwitness": ["3045022100d62dc4c6446b21a61a7341fc12cff262c2309a875eafd473eaf8762e4f19adc202201003309ea3cf8127666f63d2ab7f19f930253e8b972da0ef88b32862bfe6f15f01", "03f1cf988013a33e053d1e9bd54c4798c1a6dc362a5b2798b5344049fca40e2db0"], "sequence": 4294967295, "scriptSig": {"hex": "160014f6e1792e7852ebd5ae795c2a25d579acdfadec2d", "asm": "0014f6e1792e7852ebd5ae795c2a25d579acdfadec2d"}, "vout": 0, "txid": "cd41e93933162e04c30cc553a4f75ab0913375e7284f6009616867029056bf25"}, {"txinwitness": ["3045022100af45afa9cfc722ac48271e9d1e5ce8a53b75eac51d2b82bfbafe175d8016e873022032485f14766aa77ae7c358c2bd125b3f6fef3f225640390b540dd37f38ee6f9e01", "03f1cf988013a33e053d1e9bd54c4798c1a6dc362a5b2798b5344049fca40e2db0"], "sequence": 4294967295, "scriptSig": {"hex": "160014f6e1792e7852ebd5ae795c2a25d579acdfadec2d", "asm": "0014f6e1792e7852ebd5ae795c2a25d579acdfadec2d"}, "vout": 2, "txid": "cd41e93933162e04c30cc553a4f75ab0913375e7284f6009616867029056bf25"}], "txid": "24d8cd1e33d6e84012932dbbc456e1e5d5a351084909576a60f9d91057126f20", "blocktime": 1537876114, "version": 1, "confirmations": 11460, "time": 1537876114, "locktime": 0, "vsize": 288, "size": 451}