{"hash": "24dd2a37552d9a32f5cec2b085a839c4e81bb4c497d1c1315c62ce9f22ce7f52", "blockhash": "0000000000000000001f76057863aec43deb6fa401d9628bb513d65a8098bfab", "vout": [{"scriptPubKey": {"reqSigs": 1, "hex": "76a914b8a915a8a6e49d623ee87f5c969f9ab4b7219dbf88ac", "addresses": ["1HqPtW4fe4NfvB34ikJ1hug4b1b4S6PxFR"], "asm": "OP_DUP OP_HASH160 b8a915a8a6e49d623ee87f5c969f9ab4b7219dbf OP_EQUALVERIFY OP_CHECKSIG", "type": "pubkeyhash"}, "value": 0.00908813, "n": 0}, {"scriptPubKey": {"reqSigs": 1, "hex": "76a914bd09fdf5dc9f6a4ef1eb98fa37f74271e210ce9388ac", "addresses": ["1JEYgWqymQeZvcvVdvRjoG88YLEaWuBvxn"], "asm": "OP_DUP OP_HASH160 bd09fdf5dc9f6a4ef1eb98fa37f74271e210ce93 OP_EQUALVERIFY OP_CHECKSIG", "type": "pubkeyhash"}, "value": 0.015, "n": 1}], "hex": "0100000002b40dfd4892d921a9e445cbc4bc4a03ebbdf0d4ff5a816d210e9af889734a4776010000006b483045022100a2c3650923f13f26fe8c5fe52004220615c56e605c38509fcab155dbe85f9c0a022074f628a34cca76c8c49760ddacb9c54e406a47e4fbfa1203193af209dc00ea28012102b1b3b31d24d8528821ca8de8ff1b1c0bae72864c888a985e36d0e9f4cafa0bc9ffffffffcab3c2f5bf0e4444efcabd779bd38fdbcd73c03fd2b4cad426086e864a2c0abd010000006a47304402205fe962b1687b028d614d10eba633ca6f1e911c3f54eb8c2f717a98eef54b0ea7022075dc3ac57f7e69fba0b9be72443ab63840169da638d73f2010dc5b6e86e66f41012103b2ceb3ce3ea90ac27fb4d71658bb7cc9cbaa41e022d0a9be4da1f2c9a0832fc4ffffffff020dde0d00000000001976a914b8a915a8a6e49d623ee87f5c969f9ab4b7219dbf88ac60e31600000000001976a914bd09fdf5dc9f6a4ef1eb98fa37f74271e210ce9388ac00000000", "vin": [{"sequence": 4294967295, "scriptSig": {"hex": "483045022100a2c3650923f13f26fe8c5fe52004220615c56e605c38509fcab155dbe85f9c0a022074f628a34cca76c8c49760ddacb9c54e406a47e4fbfa1203193af209dc00ea28012102b1b3b31d24d8528821ca8de8ff1b1c0bae72864c888a985e36d0e9f4cafa0bc9", "asm": "3045022100a2c3650923f13f26fe8c5fe52004220615c56e605c38509fcab155dbe85f9c0a022074f628a34cca76c8c49760ddacb9c54e406a47e4fbfa1203193af209dc00ea28[ALL] 02b1b3b31d24d8528821ca8de8ff1b1c0bae72864c888a985e36d0e9f4cafa0bc9"}, "vout": 1, "txid": "76474a7389f89a0e216d815affd4f0bdeb034abcc4cb45e4a921d99248fd0db4"}, {"sequence": 4294967295, "scriptSig": {"hex": "47304402205fe962b1687b028d614d10eba633ca6f1e911c3f54eb8c2f717a98eef54b0ea7022075dc3ac57f7e69fba0b9be72443ab63840169da638d73f2010dc5b6e86e66f41012103b2ceb3ce3ea90ac27fb4d71658bb7cc9cbaa41e022d0a9be4da1f2c9a0832fc4", "asm": "304402205fe962b1687b028d614d10eba633ca6f1e911c3f54eb8c2f717a98eef54b0ea7022075dc3ac57f7e69fba0b9be72443ab63840169da638d73f2010dc5b6e86e66f41[ALL] 03b2ceb3ce3ea90ac27fb4d71658bb7cc9cbaa41e022d0a9be4da1f2c9a0832fc4"}, "vout": 1, "txid": "bd0a2c4a866e0826d4cab4d23fc073cddb8fd39b77bdcaef44440ebff5c2b3ca"}], "txid": "24dd2a37552d9a32f5cec2b085a839c4e81bb4c497d1c1315c62ce9f22ce7f52", "blocktime": 1537873891, "version": 1, "confirmations": 11477, "time": 1537873891, "locktime": 0, "vsize": 373, "size": 373}