{"hash": "4b6b788fb1da1d92132f64d29f8742ab32e2dd4be918c2f5c395cdb17b8aa8f5", "blockhash": "0000000000000000001f76057863aec43deb6fa401d9628bb513d65a8098bfab", "vout": [{"scriptPubKey": {"reqSigs": 1, "hex": "a914c08bc459423bc2308fb90c561547a4a3349203ba87", "addresses": ["3KF76ZBd3N9eDwAu3KXG5eKdEW3eJMUy8m"], "asm": "OP_HASH160 c08bc459423bc2308fb90c561547a4a3349203ba OP_EQUAL", "type": "scripthash"}, "value": 0.01082644, "n": 0}, {"scriptPubKey": {"reqSigs": 1, "hex": "0014aac2e34e6a168ec18156a3a5ae2cbfd3b74101c6", "addresses": ["bc1q4tpwxnn2z68vrq2k5wj6ut9l6wm5zqwx5ksu4x"], "asm": "0 aac2e34e6a168ec18156a3a5ae2cbfd3b74101c6", "type": "witness_v0_keyhash"}, "value": 0.8554571, "n": 1}], "hex": "01000000000101b6766965ef24cee2b27b459a8ecdfbc1662cfd3e5d87eaf6d062116f358b56720100000000ffffffff02148510000000000017a914c08bc459423bc2308fb90c561547a4a3349203ba87ee52190500000000160014aac2e34e6a168ec18156a3a5ae2cbfd3b74101c602473044022023e74cfe11aa4036421cffd60ce9458491954e923db1eb0c2e968df3aeb525aa022045b071cc14ba39121d91c9fe1a3552f3a7e5b58d596b572fb741829cbfdf5e780121025138f086b3ca3b5c3ec9e7ec4c9f750d9a0164e6eca19a7a0f75cdad1cffd48b00000000", "vin": [{"txinwitness": ["3044022023e74cfe11aa4036421cffd60ce9458491954e923db1eb0c2e968df3aeb525aa022045b071cc14ba39121d91c9fe1a3552f3a7e5b58d596b572fb741829cbfdf5e7801", "025138f086b3ca3b5c3ec9e7ec4c9f750d9a0164e6eca19a7a0f75cdad1cffd48b"], "sequence": 4294967295, "scriptSig": {"hex": "", "asm": ""}, "vout": 1, "txid": "72568b356f1162d0f6ea875d3efd2c66c1fbcd8e9a457bb2e2ce24ef656976b6"}], "txid": "24dfff618a3dad1b43ec7002c30e396503d248ccc1053754694a706f888a1609", "blocktime": 1537873891, "version": 1, "confirmations": 11478, "time": 1537873891, "locktime": 0, "vsize": 142, "size": 223}