{"hash": "24e430ca69d7ea230fe4bfea1cf2ffcbb75ca5d8258b1c74df8676642b476798", "blockhash": "0000000000000000000e13cef7c366c0283d82e591d1acd082e914b08063cdf1", "vout": [{"scriptPubKey": {"type": "nulldata", "hex": "6a146f6d6e69000000000000001f0000001c1c03215d", "asm": "OP_RETURN 6f6d6e69000000000000001f0000001c1c03215d"}, "value": 0.0, "n": 0}, {"scriptPubKey": {"reqSigs": 1, "hex": "76a914a25dec4d0011064ef106a983c39c7a540699f22088ac", "addresses": ["1FoWyxwPXuj4C6abqwhjDWdz6D4PZgYRjA"], "asm": "OP_DUP OP_HASH160 a25dec4d0011064ef106a983c39c7a540699f220 OP_EQUALVERIFY OP_CHECKSIG", "type": "pubkeyhash"}, "value": 0.0197605, "n": 1}, {"scriptPubKey": {"reqSigs": 1, "hex": "a914321a205f8ef82566d99255c6d0652b362d24f77b87", "addresses": ["36Fw1S6EpyF32H1X3mHw8oRR3azwhCH2AF"], "asm": "OP_HASH160 321a205f8ef82566d99255c6d0652b362d24f77b OP_EQUAL", "type": "scripthash"}, "value": 5.4e-06, "n": 2}], "hex": "0100000001a0187ca9efb8d4ef2c5f5bd9a10f6ecddab95eb9da45d78fff6255fd777fd8ce020000006a473044022034dc91be82ad6caa0ef6203c219e08e21d5f6c379fb7efc1ec065dbfefa57a8d02204d5cab0655847f34e240111e4e8bdb89eecb941b7ced152318393c76e8d30c49012103da5bac7b36d5aa38f531c6b9601e21bb598a4b6716ebed38b009a55dabde9440feffffff030000000000000000166a146f6d6e69000000000000001f0000001c1c03215df2261e00000000001976a914a25dec4d0011064ef106a983c39c7a540699f22088ac1c0200000000000017a914321a205f8ef82566d99255c6d0652b362d24f77b8710490800", "vin": [{"sequence": 4294967294, "scriptSig": {"hex": "473044022034dc91be82ad6caa0ef6203c219e08e21d5f6c379fb7efc1ec065dbfefa57a8d02204d5cab0655847f34e240111e4e8bdb89eecb941b7ced152318393c76e8d30c49012103da5bac7b36d5aa38f531c6b9601e21bb598a4b6716ebed38b009a55dabde9440", "asm": "3044022034dc91be82ad6caa0ef6203c219e08e21d5f6c379fb7efc1ec065dbfefa57a8d02204d5cab0655847f34e240111e4e8bdb89eecb941b7ced152318393c76e8d30c49[ALL] 03da5bac7b36d5aa38f531c6b9601e21bb598a4b6716ebed38b009a55dabde9440"}, "vout": 2, "txid": "ced87f77fd5562ff8fd745dab95eb9dacd6e0fa1d95b5f2cefd4b8efa97c18a0"}], "txid": "24e430ca69d7ea230fe4bfea1cf2ffcbb75ca5d8258b1c74df8676642b476798", "blocktime": 1537871767, "version": 1, "confirmations": 11490, "time": 1537871767, "locktime": 542992, "vsize": 254, "size": 254}