{"hash": "24ed3766ed268c7980eb85f8c280b35080da541a7a3b0bbd6c493f6f88fc53d0", "blockhash": "0000000000000000001cda96e906b7601b7a6fb1a3b62bca570a9e5d8f4b3de1", "vout": [{"scriptPubKey": {"reqSigs": 1, "hex": "a914940ee010a07ef85a787a750c8ebbeea4fbbc1f5887", "addresses": ["3FBskV79aLCeBD3pMtsbBWMmDJ2wd2mCj2"], "asm": "OP_HASH160 940ee010a07ef85a787a750c8ebbeea4fbbc1f58 OP_EQUAL", "type": "scripthash"}, "value": 0.0045295, "n": 0}, {"scriptPubKey": {"reqSigs": 1, "hex": "76a9146586ced214191eaee684bf8787713d2671eff5aa88ac", "addresses": ["1AFpjzWNNtmMamjbbSSNLiVdktzrYMspCQ"], "asm": "OP_DUP OP_HASH160 6586ced214191eaee684bf8787713d2671eff5aa OP_EQUALVERIFY OP_CHECKSIG", "type": "pubkeyhash"}, "value": 0.20315542, "n": 1}], "hex": "02000000019f945073f30e400de161a579df57982eb27d98f97e5a30b7207a3f337ebbde96000000006a47304402202d212ed3d6ca75bee43606a597f2165e8102710054ba559eb87d8ac6245e6a7002205748fcaabdaba6c5687780f5bf2457ed92475ce588117eba780f13ffc89b5d4b012102207283ca782f5741d93e4e31de1eac384e03b50ef478abb52fb679b60bd188eaffffffff0256e906000000000017a914940ee010a07ef85a787a750c8ebbeea4fbbc1f588796fd3501000000001976a9146586ced214191eaee684bf8787713d2671eff5aa88ac00000000", "vin": [{"sequence": 4294967295, "scriptSig": {"hex": "47304402202d212ed3d6ca75bee43606a597f2165e8102710054ba559eb87d8ac6245e6a7002205748fcaabdaba6c5687780f5bf2457ed92475ce588117eba780f13ffc89b5d4b012102207283ca782f5741d93e4e31de1eac384e03b50ef478abb52fb679b60bd188ea", "asm": "304402202d212ed3d6ca75bee43606a597f2165e8102710054ba559eb87d8ac6245e6a7002205748fcaabdaba6c5687780f5bf2457ed92475ce588117eba780f13ffc89b5d4b[ALL] 02207283ca782f5741d93e4e31de1eac384e03b50ef478abb52fb679b60bd188ea"}, "vout": 0, "txid": "96debb7e333f7a20b7305a7ef9987db22e9857df79a561e10d400ef37350949f"}], "txid": "24ed3766ed268c7980eb85f8c280b35080da541a7a3b0bbd6c493f6f88fc53d0", "blocktime": 1537873282, "version": 2, "confirmations": 11482, "time": 1537873282, "locktime": 0, "vsize": 223, "size": 223}