{"hash": "24eec936225044fdb1edb1898882e37738025cab23e064b52645c73085382986", "blockhash": "000000000000000000022b45ed06c6f4ccd3cf7fb5ba4856ebd2e58215665228", "vout": [{"scriptPubKey": {"reqSigs": 1, "hex": "76a914e8cea30989bd15530f819b766684b00dc7ba7cfa88ac", "addresses": ["1NDyJtNTjmwk5xPNhjgAMu4HDHigtobu1s"], "asm": "OP_DUP OP_HASH160 e8cea30989bd15530f819b766684b00dc7ba7cfa OP_EQUALVERIFY OP_CHECKSIG", "type": "pubkeyhash"}, "value": 6.59629814, "n": 0}, {"scriptPubKey": {"reqSigs": 1, "hex": "76a914b47c657535a1e7159064d11f15d43958712ab78188ac", "addresses": ["1HTKejmGECZy8G1A8xgyYMjURDJQWKpEqy"], "asm": "OP_DUP OP_HASH160 b47c657535a1e7159064d11f15d43958712ab781 OP_EQUALVERIFY OP_CHECKSIG", "type": "pubkeyhash"}, "value": 3.08272786, "n": 1}], "hex": "020000000247ead4ec3ca122941b84d4f65aeae962ac6a11d3c1f4f939a8154ddfebabc5ac010000006b483045022100bb33db1fac25b524876ca52548bf9b53f15b8a6a070dfeeaf4858462e60fe5c1022038a3e4195e8b197f5e2578ea1bb4bc614dc01377699be8e79264827b34ef908e01210205a261e176e1f156ed2cc15412c5beae656889be3e19de2cc420c4daadb0786afeffffff9818f2f6fce8691457024435a322156c5a2fd88525a1472843e56769674e8af4000000006b483045022100ef68928631c2ecfb526b0036eb6c9338d39be309af89cfb57fc68e3d0f1718010220206b1bee78e174d5926d75f5b415d131d6cf981881131ce169984bf83964e74b0121022a029699ebcd51d4a9ca4818e1ac0cb22d9bc3c292b58e0741e1ef03fc4e013bfeffffff02f6265127000000001976a914e8cea30989bd15530f819b766684b00dc7ba7cfa88ac92de5f12000000001976a914b47c657535a1e7159064d11f15d43958712ab78188ac0b490800", "vin": [{"sequence": 4294967294, "scriptSig": {"hex": "483045022100bb33db1fac25b524876ca52548bf9b53f15b8a6a070dfeeaf4858462e60fe5c1022038a3e4195e8b197f5e2578ea1bb4bc614dc01377699be8e79264827b34ef908e01210205a261e176e1f156ed2cc15412c5beae656889be3e19de2cc420c4daadb0786a", "asm": "3045022100bb33db1fac25b524876ca52548bf9b53f15b8a6a070dfeeaf4858462e60fe5c1022038a3e4195e8b197f5e2578ea1bb4bc614dc01377699be8e79264827b34ef908e[ALL] 0205a261e176e1f156ed2cc15412c5beae656889be3e19de2cc420c4daadb0786a"}, "vout": 1, "txid": "acc5abebdf4d15a839f9f4c1d3116aac62e9ea5af6d4841b9422a13cecd4ea47"}, {"sequence": 4294967294, "scriptSig": {"hex": "483045022100ef68928631c2ecfb526b0036eb6c9338d39be309af89cfb57fc68e3d0f1718010220206b1bee78e174d5926d75f5b415d131d6cf981881131ce169984bf83964e74b0121022a029699ebcd51d4a9ca4818e1ac0cb22d9bc3c292b58e0741e1ef03fc4e013b", "asm": "3045022100ef68928631c2ecfb526b0036eb6c9338d39be309af89cfb57fc68e3d0f1718010220206b1bee78e174d5926d75f5b415d131d6cf981881131ce169984bf83964e74b[ALL] 022a029699ebcd51d4a9ca4818e1ac0cb22d9bc3c292b58e0741e1ef03fc4e013b"}, "vout": 0, "txid": "f48a4e676967e5432847a12585d82f5a6c1522a3354402571469e8fcf6f21898"}], "txid": "24eec936225044fdb1edb1898882e37738025cab23e064b52645c73085382986", "blocktime": 1537869901, "version": 2, "confirmations": 11522, "time": 1537869901, "locktime": 542987, "vsize": 374, "size": 374}