{"hash": "24f1624f13dccf2151f7f50cc6f4206671e75330a3f2d6651bf0576e47563665", "blockhash": "0000000000000000000dcc0f55137456b1a82d3642486a52398922ac4d620174", "vout": [{"scriptPubKey": {"reqSigs": 1, "hex": "76a914189417c7c2ff1f199fc582f54d47d48282a6016e88ac", "addresses": ["13ExdH9hSEXGPVAcUtLaEp4qeKVpKtYNJv"], "asm": "OP_DUP OP_HASH160 189417c7c2ff1f199fc582f54d47d48282a6016e OP_EQUALVERIFY OP_CHECKSIG", "type": "pubkeyhash"}, "value": 0.00199307, "n": 0}, {"scriptPubKey": {"reqSigs": 1, "hex": "76a9147d062f9d43eae2f359ad8f96d69cd304a8e6b6c388ac", "addresses": ["1CQ4snmjmPVT1siGNKGrXMRLGwebbinLCM"], "asm": "OP_DUP OP_HASH160 7d062f9d43eae2f359ad8f96d69cd304a8e6b6c3 OP_EQUALVERIFY OP_CHECKSIG", "type": "pubkeyhash"}, "value": 2.215e-05, "n": 1}], "hex": "01000000019ef32be16b608b9d302d67db5ca6ba711ba3446420e038a8475255f925416bf50e0000006a473044022077150c1d50882023e3ff71c5afe91ee1af3a35ea4d5884333f50a2a787be27b90220518cbe9f45c5dab507bf0314d0d259c0a718f02210c424c949241f9513a4646301210381d49d30614caab5cc48a93e1fe11b75c1d24a69134fa21b6a2e10d48ebfa94fffffffff028b0a0300000000001976a914189417c7c2ff1f199fc582f54d47d48282a6016e88aca7080000000000001976a9147d062f9d43eae2f359ad8f96d69cd304a8e6b6c388ac00000000", "vin": [{"sequence": 4294967295, "scriptSig": {"hex": "473044022077150c1d50882023e3ff71c5afe91ee1af3a35ea4d5884333f50a2a787be27b90220518cbe9f45c5dab507bf0314d0d259c0a718f02210c424c949241f9513a4646301210381d49d30614caab5cc48a93e1fe11b75c1d24a69134fa21b6a2e10d48ebfa94f", "asm": "3044022077150c1d50882023e3ff71c5afe91ee1af3a35ea4d5884333f50a2a787be27b90220518cbe9f45c5dab507bf0314d0d259c0a718f02210c424c949241f9513a46463[ALL] 0381d49d30614caab5cc48a93e1fe11b75c1d24a69134fa21b6a2e10d48ebfa94f"}, "vout": 14, "txid": "f56b4125f9555247a838e0206444a31b71baa65cdb672d309d8b606be12bf39e"}], "txid": "24f1624f13dccf2151f7f50cc6f4206671e75330a3f2d6651bf0576e47563665", "blocktime": 1537870268, "version": 1, "confirmations": 11516, "time": 1537870268, "locktime": 0, "vsize": 225, "size": 225}