{"hash": "24f3b9d468c365f06bae5f492e870dd3419bbac67f9cd75e207e97a87ede12cb", "blockhash": "0000000000000000000e13cef7c366c0283d82e591d1acd082e914b08063cdf1", "vout": [{"scriptPubKey": {"reqSigs": 1, "hex": "a914874222eded788a614c1f5e9f7729f75a40ed850287", "addresses": ["3E2CNgUkRmEfggRfBokWu3d62AefpJoyhY"], "asm": "OP_HASH160 874222eded788a614c1f5e9f7729f75a40ed8502 OP_EQUAL", "type": "scripthash"}, "value": 0.095845, "n": 0}], "hex": "01000000018207148219ac516784863906d5caba65de3880fdfa152b47f176d7a66e5dd17c000000006b483045022100b18cebb8e289052baba1651478512549f7657c247b13b7756840e107905cf9b6022054222f7f70771c10a34ac371564cf9a180b4c871723b85fcb7ce6db1ef09e3b101210324f5c4ee380cf3e5d2bb1eed14e61f86a853d16acabe10a3a503ba67e74cc914ffffffff01743f92000000000017a914874222eded788a614c1f5e9f7729f75a40ed85028700000000", "vin": [{"sequence": 4294967295, "scriptSig": {"hex": "483045022100b18cebb8e289052baba1651478512549f7657c247b13b7756840e107905cf9b6022054222f7f70771c10a34ac371564cf9a180b4c871723b85fcb7ce6db1ef09e3b101210324f5c4ee380cf3e5d2bb1eed14e61f86a853d16acabe10a3a503ba67e74cc914", "asm": "3045022100b18cebb8e289052baba1651478512549f7657c247b13b7756840e107905cf9b6022054222f7f70771c10a34ac371564cf9a180b4c871723b85fcb7ce6db1ef09e3b1[ALL] 0324f5c4ee380cf3e5d2bb1eed14e61f86a853d16acabe10a3a503ba67e74cc914"}, "vout": 0, "txid": "7cd15d6ea6d776f1472b15fafd8038de65bacad5063986846751ac1982140782"}], "txid": "24f3b9d468c365f06bae5f492e870dd3419bbac67f9cd75e207e97a87ede12cb", "blocktime": 1537871767, "version": 1, "confirmations": 11490, "time": 1537871767, "locktime": 0, "vsize": 190, "size": 190}