{"hash": "24f668f3d434bc33a30c37048bbd8b0cf9708fffe7f31133914c95a2a46818bf", "blockhash": "0000000000000000001f76057863aec43deb6fa401d9628bb513d65a8098bfab", "vout": [{"scriptPubKey": {"reqSigs": 1, "hex": "a9145a801b2e2205f0d787d5b85d1b35779cfaa22d0187", "addresses": ["39wYCnGvvMkk4aLTnGjB4PUVyq9UvsQ12B"], "asm": "OP_HASH160 5a801b2e2205f0d787d5b85d1b35779cfaa22d01 OP_EQUAL", "type": "scripthash"}, "value": 0.00615406, "n": 0}, {"scriptPubKey": {"reqSigs": 1, "hex": "76a91493fa4ef32907f0789dd532d15614ef6bdb51219888ac", "addresses": ["1EVSBw2QBYUipxNULDqe6Z5CPwYKAZunTj"], "asm": "OP_DUP OP_HASH160 93fa4ef32907f0789dd532d15614ef6bdb512198 OP_EQUALVERIFY OP_CHECKSIG", "type": "pubkeyhash"}, "value": 0.00014734, "n": 1}], "hex": "0100000002e947b8c2ea3efc86106eaa7f153c2c1ac696ed886b226e529c0975cad5dbabad08000000db00483045022100971472f35e07514844ca40b92c701a677e9b86489df62440edbe71db59fb260a02204e1cd3f4c9790fe06634b456bf049d00514316cee704378b504c4550ff54cf9101483045022100cfcea94a0d5b413f8bcbb545037d4677e311a7a845f786516ef17f80f9120c9c022053463e0a17962bba13ee368ff97026e140f177f3e8e30d2bf1f2d5a28d49ca110147522102907a54bed8ad74b3f35638c60114ca240a308cb986f3f2f306178869a8880b6121031f93e640a65900ce22682742132025687bae7681f2fc1b849e6daa3682144a8f52aeffffffff751aab9574c85a220217c37a22264c6dd47889059bd53bad0ca38f771efcdf8a020000006a4730440220133cd00253c3df3a178534b4cb17d7ffd90d97e0a4f07a3a402dd69b6d49f42f0220638b0d4fcd327fb4e08687439316902d70d55b678d9f18abd94453cfc121580b012103bb5b62fdc215d62c277fa4b626025b087b340aa45175f9be09cb9b4efe3e37a8ffffffff02ee6309000000000017a9145a801b2e2205f0d787d5b85d1b35779cfaa22d01878e390000000000001976a91493fa4ef32907f0789dd532d15614ef6bdb51219888ac00000000", "vin": [{"sequence": 4294967295, "scriptSig": {"hex": "00483045022100971472f35e07514844ca40b92c701a677e9b86489df62440edbe71db59fb260a02204e1cd3f4c9790fe06634b456bf049d00514316cee704378b504c4550ff54cf9101483045022100cfcea94a0d5b413f8bcbb545037d4677e311a7a845f786516ef17f80f9120c9c022053463e0a17962bba13ee368ff97026e140f177f3e8e30d2bf1f2d5a28d49ca110147522102907a54bed8ad74b3f35638c60114ca240a308cb986f3f2f306178869a8880b6121031f93e640a65900ce22682742132025687bae7681f2fc1b849e6daa3682144a8f52ae", "asm": "0 3045022100971472f35e07514844ca40b92c701a677e9b86489df62440edbe71db59fb260a02204e1cd3f4c9790fe06634b456bf049d00514316cee704378b504c4550ff54cf91[ALL] 3045022100cfcea94a0d5b413f8bcbb545037d4677e311a7a845f786516ef17f80f9120c9c022053463e0a17962bba13ee368ff97026e140f177f3e8e30d2bf1f2d5a28d49ca11[ALL] 522102907a54bed8ad74b3f35638c60114ca240a308cb986f3f2f306178869a8880b6121031f93e640a65900ce22682742132025687bae7681f2fc1b849e6daa3682144a8f52ae"}, "vout": 8, "txid": "adabdbd5ca75099c526e226b88ed96c61a2c3c157faa6e1086fc3eeac2b847e9"}, {"sequence": 4294967295, "scriptSig": {"hex": "4730440220133cd00253c3df3a178534b4cb17d7ffd90d97e0a4f07a3a402dd69b6d49f42f0220638b0d4fcd327fb4e08687439316902d70d55b678d9f18abd94453cfc121580b012103bb5b62fdc215d62c277fa4b626025b087b340aa45175f9be09cb9b4efe3e37a8", "asm": "30440220133cd00253c3df3a178534b4cb17d7ffd90d97e0a4f07a3a402dd69b6d49f42f0220638b0d4fcd327fb4e08687439316902d70d55b678d9f18abd94453cfc121580b[ALL] 03bb5b62fdc215d62c277fa4b626025b087b340aa45175f9be09cb9b4efe3e37a8"}, "vout": 2, "txid": "8adffc1e778fa30cad3bd59b058978d46d4c26227ac31702225ac87495ab1a75"}], "txid": "24f668f3d434bc33a30c37048bbd8b0cf9708fffe7f31133914c95a2a46818bf", "blocktime": 1537873891, "version": 1, "confirmations": 11478, "time": 1537873891, "locktime": 0, "vsize": 483, "size": 483}