{"hash": "24fdc1a1e014223182097c2b74eaa31e47adb1c76366dd137738830478dc3554", "blockhash": "0000000000000000000dcc0f55137456b1a82d3642486a52398922ac4d620174", "vout": [{"scriptPubKey": {"reqSigs": 1, "hex": "a914ff7a4fc979a7997bb4a3f0c525507791a88d0aa287", "addresses": ["3QyrkpkqDRaz1JyNxeA4WT8x9kesCJFCQZ"], "asm": "OP_HASH160 ff7a4fc979a7997bb4a3f0c525507791a88d0aa2 OP_EQUAL", "type": "scripthash"}, "value": 0.00156, "n": 0}, {"scriptPubKey": {"reqSigs": 1, "hex": "76a9149e95b2e808820419d08f4eca214fb2b63a87cbe488ac", "addresses": ["1FTX6ZwHk2zHwjtu1B6dtQmRfFRDqsGfUD"], "asm": "OP_DUP OP_HASH160 9e95b2e808820419d08f4eca214fb2b63a87cbe4 OP_EQUALVERIFY OP_CHECKSIG", "type": "pubkeyhash"}, "value": 0.00764833, "n": 1}], "hex": "0100000001482ac6c7116bedc6ac6ff2765a9ce0e9de65a00f391103a097381700385f54ea000000006b483045022100c192ff16599970104b2d7c2f4b8598c066709c0734d644fb97f4ef318dfd87a602205c6fa260dcb2dfc0d2a04cdcaadc4cc9ba019adebbd78fe49986ba2e42f60ee40121033c1ffbfcd058b22c542e675e8466cb0ec5fd16b7fe668956650f2b6df1bff401ffffffff02606102000000000017a914ff7a4fc979a7997bb4a3f0c525507791a88d0aa287a1ab0b00000000001976a9149e95b2e808820419d08f4eca214fb2b63a87cbe488ac00000000", "vin": [{"sequence": 4294967295, "scriptSig": {"hex": "483045022100c192ff16599970104b2d7c2f4b8598c066709c0734d644fb97f4ef318dfd87a602205c6fa260dcb2dfc0d2a04cdcaadc4cc9ba019adebbd78fe49986ba2e42f60ee40121033c1ffbfcd058b22c542e675e8466cb0ec5fd16b7fe668956650f2b6df1bff401", "asm": "3045022100c192ff16599970104b2d7c2f4b8598c066709c0734d644fb97f4ef318dfd87a602205c6fa260dcb2dfc0d2a04cdcaadc4cc9ba019adebbd78fe49986ba2e42f60ee4[ALL] 033c1ffbfcd058b22c542e675e8466cb0ec5fd16b7fe668956650f2b6df1bff401"}, "vout": 0, "txid": "ea545f3800173897a00311390fa065dee9e09c5a76f26facc6ed6b11c7c62a48"}], "txid": "24fdc1a1e014223182097c2b74eaa31e47adb1c76366dd137738830478dc3554", "blocktime": 1537870268, "version": 1, "confirmations": 11518, "time": 1537870268, "locktime": 0, "vsize": 224, "size": 224}