{"hash": "24ffbd45d93df0bbf215815812f2f7ab69cc18f6ec9250bfb856f2def2e88eee", "blockhash": "0000000000000000000baef3f32e3676a92c3b2e5da21b426e4f302fc371ce76", "vout": [{"scriptPubKey": {"reqSigs": 1, "hex": "76a914d243e6abb9a60fbff430b421d2df4b7d59ec186088ac", "addresses": ["1LAnF8h3qMGx3TSwNUHVneBZUEpwE4gu3D"], "asm": "OP_DUP OP_HASH160 d243e6abb9a60fbff430b421d2df4b7d59ec1860 OP_EQUALVERIFY OP_CHECKSIG", "type": "pubkeyhash"}, "value": 0.00077314, "n": 0}, {"scriptPubKey": {"reqSigs": 1, "hex": "76a914a7c0686f0aa40721c618d7ff90f5b62c5596120088ac", "addresses": ["1GHzLmtpMffCvWF2PV3m6e5iRQ9MZpRCBR"], "asm": "OP_DUP OP_HASH160 a7c0686f0aa40721c618d7ff90f5b62c55961200 OP_EQUALVERIFY OP_CHECKSIG", "type": "pubkeyhash"}, "value": 5.46e-06, "n": 1}, {"scriptPubKey": {"type": "nulldata", "hex": "6a146f6d6e69000000000000001f00000032ba105f80", "asm": "OP_RETURN 6f6d6e69000000000000001f00000032ba105f80"}, "value": 0.0, "n": 2}], "hex": "01000000011cc1ae3c7f26c693ea6c94b619f009e2199a4317b736b4483bc4e3b44ece3bed000000006a47304402203a70cf166b2a56f00d5a2fef0b6d3133bf37211f3aefb9550c4a8a88f08fbb1d022056fdddf884a30f4055f459ff93c52afd0aec27ac11430acd7000d6964b19eb8c01210271977291b74f1f5f5c42157e8aae804664eaaeccfd097918450d37f28fb94d77ffffffff03022e0100000000001976a914d243e6abb9a60fbff430b421d2df4b7d59ec186088ac22020000000000001976a914a7c0686f0aa40721c618d7ff90f5b62c5596120088ac0000000000000000166a146f6d6e69000000000000001f00000032ba105f8000000000", "vin": [{"sequence": 4294967295, "scriptSig": {"hex": "47304402203a70cf166b2a56f00d5a2fef0b6d3133bf37211f3aefb9550c4a8a88f08fbb1d022056fdddf884a30f4055f459ff93c52afd0aec27ac11430acd7000d6964b19eb8c01210271977291b74f1f5f5c42157e8aae804664eaaeccfd097918450d37f28fb94d77", "asm": "304402203a70cf166b2a56f00d5a2fef0b6d3133bf37211f3aefb9550c4a8a88f08fbb1d022056fdddf884a30f4055f459ff93c52afd0aec27ac11430acd7000d6964b19eb8c[ALL] 0271977291b74f1f5f5c42157e8aae804664eaaeccfd097918450d37f28fb94d77"}, "vout": 0, "txid": "ed3bce4eb4e3c43b48b436b717439a19e209f019b6946cea93c6267f3caec11c"}], "txid": "24ffbd45d93df0bbf215815812f2f7ab69cc18f6ec9250bfb856f2def2e88eee", "blocktime": 1537876114, "version": 1, "confirmations": 11460, "time": 1537876114, "locktime": 0, "vsize": 256, "size": 256}