{"hash": "25091ad0f13b0a190bbb92bc02360d9805eaa154d246f70a4f27b3591a9a9e11", "blockhash": "0000000000000000000baef3f32e3676a92c3b2e5da21b426e4f302fc371ce76", "vout": [{"scriptPubKey": {"reqSigs": 1, "hex": "76a91419b49559a8685ccbe3e1f86b9093a80c08cb8f1088ac", "addresses": ["13LvDx7rCxHdvdbxbJWrvmdaMr7HKCtxhq"], "asm": "OP_DUP OP_HASH160 19b49559a8685ccbe3e1f86b9093a80c08cb8f10 OP_EQUALVERIFY OP_CHECKSIG", "type": "pubkeyhash"}, "value": 0.00563182, "n": 0}], "hex": "0100000001bdda60b2ca874dff3b6f0905d0a9a5cd241c77c303194754942a6856bb05af12580000006a47304402206f50a5c68cd362bc10ada238525810f6dfe6e492f2d47c68118300b9b3cdaae7022050d55cfe0a598dea50db1dc3ddbb5fd753496ebdcd4f9c6c1b6df505e40b734e012102136fc6d70b7233b65a42802630ffd4af338caf77d0782fe936c39c2bddd8e26fffffffff01ee970800000000001976a91419b49559a8685ccbe3e1f86b9093a80c08cb8f1088ac00000000", "vin": [{"sequence": 4294967295, "scriptSig": {"hex": "47304402206f50a5c68cd362bc10ada238525810f6dfe6e492f2d47c68118300b9b3cdaae7022050d55cfe0a598dea50db1dc3ddbb5fd753496ebdcd4f9c6c1b6df505e40b734e012102136fc6d70b7233b65a42802630ffd4af338caf77d0782fe936c39c2bddd8e26f", "asm": "304402206f50a5c68cd362bc10ada238525810f6dfe6e492f2d47c68118300b9b3cdaae7022050d55cfe0a598dea50db1dc3ddbb5fd753496ebdcd4f9c6c1b6df505e40b734e[ALL] 02136fc6d70b7233b65a42802630ffd4af338caf77d0782fe936c39c2bddd8e26f"}, "vout": 88, "txid": "12af05bb56682a9454471903c3771c24cda5a9d005096f3bff4d87cab260dabd"}], "txid": "25091ad0f13b0a190bbb92bc02360d9805eaa154d246f70a4f27b3591a9a9e11", "blocktime": 1537876114, "version": 1, "confirmations": 11460, "time": 1537876114, "locktime": 0, "vsize": 191, "size": 191}