{"hash": "b65521c37f1f030b8fb5bc95396f73eb4336698939c499e6b896e7a0f5e7a718", "blockhash": "00000000000000000017f5eb5941039fbcee6240d03bc1f2f8e35350df66a1d8", "vout": [{"scriptPubKey": {"reqSigs": 1, "hex": "a914c8948f84ab8bc2187580e4fb86ecf2a0a06e11cf87", "addresses": ["3Kyb35jwJ7YCiAF7JRfW5VZdpyywKap5YB"], "asm": "OP_HASH160 c8948f84ab8bc2187580e4fb86ecf2a0a06e11cf OP_EQUAL", "type": "scripthash"}, "value": 4.062e-05, "n": 0}, {"scriptPubKey": {"reqSigs": 1, "hex": "a9141d7370ccde4590204155e4074f69743a8e4fac0287", "addresses": ["34Njp4ZKtmCDfqqps26wHBYQQGUo2pGkLi"], "asm": "OP_HASH160 1d7370ccde4590204155e4074f69743a8e4fac02 OP_EQUAL", "type": "scripthash"}, "value": 0.00055987, "n": 1}], "hex": "010000000001017045fd51cbc5977273e40ffc9a817b64a9d0de6f7db90a8ce83a90fec102e21e0000000023220020f63dfc12340f6360d0251c22746d6b56093e3243e96ca012a65484a5d9cf0ec0ffffffff02de0f00000000000017a914c8948f84ab8bc2187580e4fb86ecf2a0a06e11cf87b3da00000000000017a9141d7370ccde4590204155e4074f69743a8e4fac0287040047304402202defef25c19a93e893b0a67132729e96e4ee18f2079068892f2ee228201530fe022070d0789702dd9cb3d9751f8fd772bad2489f058dacdcbd7dae46c2b23a5720c601483045022100d97a1646727780b199e6724987017476e47aa43a93c240fcd43e093f6cbe8b2c02200854614b7e80eb570ff452ff8a8652b6172f3c163e59a7457e6bf62b2dee78260147522102097067a6a0cc130a9a6f6577b47bf369b840a79de31cd7457187994266b1bb7c2103338f346cab6ba87fe940591a03ac234be06520c5ab386d4b6632e8eef0d0db7652ae00000000", "vin": [{"txinwitness": ["", "304402202defef25c19a93e893b0a67132729e96e4ee18f2079068892f2ee228201530fe022070d0789702dd9cb3d9751f8fd772bad2489f058dacdcbd7dae46c2b23a5720c601", "3045022100d97a1646727780b199e6724987017476e47aa43a93c240fcd43e093f6cbe8b2c02200854614b7e80eb570ff452ff8a8652b6172f3c163e59a7457e6bf62b2dee782601", "522102097067a6a0cc130a9a6f6577b47bf369b840a79de31cd7457187994266b1bb7c2103338f346cab6ba87fe940591a03ac234be06520c5ab386d4b6632e8eef0d0db7652ae"], "sequence": 4294967295, "scriptSig": {"hex": "220020f63dfc12340f6360d0251c22746d6b56093e3243e96ca012a65484a5d9cf0ec0", "asm": "0020f63dfc12340f6360d0251c22746d6b56093e3243e96ca012a65484a5d9cf0ec0"}, "vout": 0, "txid": "1ee202c1fe903ae88c0ab97d6fded0a9647b819afc0fe4737297c5cb51fd4570"}], "txid": "2509381572c37eaaef03cf925009909fabe91971468d6e3d57f192b15e3906e1", "blocktime": 1537874412, "version": 1, "confirmations": 11468, "time": 1537874412, "locktime": 0, "vsize": 206, "size": 371}