{"hash": "80e2498d8daf4a778c4b4ecdc64d46f6ec431d191b4db01fecd8f005741bde24", "blockhash": "0000000000000000000dcc0f55137456b1a82d3642486a52398922ac4d620174", "vout": [{"scriptPubKey": {"reqSigs": 1, "hex": "a914fbff436f0f48b230ee06a84a2ea6f5912bc8525487", "addresses": ["3QfTKhuXCiz8QDTqULQEJ8gsAkLnoxgQKp"], "asm": "OP_HASH160 fbff436f0f48b230ee06a84a2ea6f5912bc85254 OP_EQUAL", "type": "scripthash"}, "value": 0.02297831, "n": 0}, {"scriptPubKey": {"reqSigs": 1, "hex": "a914c59b8e9caf68e8790413a2706e08aee70539289487", "addresses": ["3KhsPdULAoAjmBwRS3PyneVs5wkWwK9mzY"], "asm": "OP_HASH160 c59b8e9caf68e8790413a2706e08aee705392894 OP_EQUAL", "type": "scripthash"}, "value": 0.01758111, "n": 1}], "hex": "0100000000010276edbb6aa0c576f7e1472f51f42dcad47195438f60bc6f6a01886c44b8875f800100000023220020b58444cc99e78489b98719c4841afe4cef0b212cc0fdbaf0559798d1b950fcb9ffffffffd7df51992e514ab7e6837887a0a0cddc411fb8c52e2007cd13013dd66911147f0a00000023220020551f05cae466addc23c787cba402cc28b5e18ddc82cbe1f8efb5558b9fcc8994ffffffff02e70f23000000000017a914fbff436f0f48b230ee06a84a2ea6f5912bc85254879fd31a000000000017a914c59b8e9caf68e8790413a2706e08aee70539289487040047304402201520d7316e9b81f7346cca21951b35a511fea93569f341dd6b0f2bb7316b444902202c4e24ee113e4c789c0f25830d7ebf161cb0dda4c4131807001fdf1e842ddef10148304502210083a5001392345bb313f4254f2e5cdb4e659e9f177fe0e7d2f5a5731987efcecb022058dd1b7ae4a2057df1b2619840099240e5e9802a110e66e8efc37b9d9f26ffa60147522102060f803364159a16af89e4cbee46f7409d7af9a10ebcfee6d92a5cd25330e2f021038407424ead2b88063db2d589e50c34e1572f6b82eb9e266dec536939ee0db9eb52ae040047304402200bbf7532a715184b5a3a1e3ecca4b6b43b28030bb08e1b0fff639d5ff25cd07c02206576c5b0cfefac4115e366b5f8a8b0247ac81d1a7d4afff4f93024f87792b33901483045022100e0a9f9c86724added1888ed7b950b339768f8460ef094b32b7d1255c120a297f02207645feee54ae04795447beb72bac1a569a3c71c033b48ab1bf0d2da5b637b34f01475221024e9f951442a4f1146032cdb9800bcdc8f8ec9e4600069d787678e99ea3acc4d521038407424ead2b88063db2d589e50c34e1572f6b82eb9e266dec536939ee0db9eb52ae00000000", "vin": [{"txinwitness": ["", "304402201520d7316e9b81f7346cca21951b35a511fea93569f341dd6b0f2bb7316b444902202c4e24ee113e4c789c0f25830d7ebf161cb0dda4c4131807001fdf1e842ddef101", "304502210083a5001392345bb313f4254f2e5cdb4e659e9f177fe0e7d2f5a5731987efcecb022058dd1b7ae4a2057df1b2619840099240e5e9802a110e66e8efc37b9d9f26ffa601", "522102060f803364159a16af89e4cbee46f7409d7af9a10ebcfee6d92a5cd25330e2f021038407424ead2b88063db2d589e50c34e1572f6b82eb9e266dec536939ee0db9eb52ae"], "sequence": 4294967295, "scriptSig": {"hex": "220020b58444cc99e78489b98719c4841afe4cef0b212cc0fdbaf0559798d1b950fcb9", "asm": "0020b58444cc99e78489b98719c4841afe4cef0b212cc0fdbaf0559798d1b950fcb9"}, "vout": 1, "txid": "805f87b8446c88016a6fbc608f439571d4ca2df4512f47e1f776c5a06abbed76"}, {"txinwitness": ["", "304402200bbf7532a715184b5a3a1e3ecca4b6b43b28030bb08e1b0fff639d5ff25cd07c02206576c5b0cfefac4115e366b5f8a8b0247ac81d1a7d4afff4f93024f87792b33901", "3045022100e0a9f9c86724added1888ed7b950b339768f8460ef094b32b7d1255c120a297f02207645feee54ae04795447beb72bac1a569a3c71c033b48ab1bf0d2da5b637b34f01", "5221024e9f951442a4f1146032cdb9800bcdc8f8ec9e4600069d787678e99ea3acc4d521038407424ead2b88063db2d589e50c34e1572f6b82eb9e266dec536939ee0db9eb52ae"], "sequence": 4294967295, "scriptSig": {"hex": "220020551f05cae466addc23c787cba402cc28b5e18ddc82cbe1f8efb5558b9fcc8994", "asm": "0020551f05cae466addc23c787cba402cc28b5e18ddc82cbe1f8efb5558b9fcc8994"}, "vout": 10, "txid": "7f141169d63d0113cd07202ec5b81f41dccda0a0877883e6b74a512e9951dfd7"}], "txid": "250b219205f705a91443a7e051193cdb96711e7f106cfececd7f80cf6c0131d0", "blocktime": 1537870268, "version": 1, "confirmations": 11516, "time": 1537870268, "locktime": 0, "vsize": 336, "size": 666}