{"hash": "250d795e776278196fbdd3e1aa6fb1da5ca1a0929bcbc6c6cb5cce819237870f", "blockhash": "0000000000000000001cda96e906b7601b7a6fb1a3b62bca570a9e5d8f4b3de1", "vout": [{"scriptPubKey": {"reqSigs": 1, "hex": "76a91476147b841ea7de5e563ea937262977fe7e1b1bdd88ac", "addresses": ["1BmMGnUJcuQSoZ1ZVhjhQSkyXTDU88NLy6"], "asm": "OP_DUP OP_HASH160 76147b841ea7de5e563ea937262977fe7e1b1bdd OP_EQUALVERIFY OP_CHECKSIG", "type": "pubkeyhash"}, "value": 4.313e-05, "n": 0}, {"scriptPubKey": {"reqSigs": 1, "hex": "76a914cc67fa86afaa71723d30783bf67f4ef2d218a40188ac", "addresses": ["1KdoQhH1g4u7vBQiniqJureLxV6eqKGG4u"], "asm": "OP_DUP OP_HASH160 cc67fa86afaa71723d30783bf67f4ef2d218a401 OP_EQUALVERIFY OP_CHECKSIG", "type": "pubkeyhash"}, "value": 0.03543879, "n": 1}], "hex": "010000000172a2dc1aae5aba23ab7bb042e79ef385668a52f9533065dee4d8c4da70e8a3c6190000006a4730440220247a36ec4e102487aaffea36e3b4065cbe5d8c4ad9bd223d75da48795ea1b0d202201c6b64f24afb90488ae0894c62e8488a6bfa05181ef94546b59aef05b0af6e7c012103348bd0b1eee88ac548102b7c2c982d52290f79ebb27cd56ebf9d6078d286e818ffffffff02d9100000000000001976a91476147b841ea7de5e563ea937262977fe7e1b1bdd88ac47133600000000001976a914cc67fa86afaa71723d30783bf67f4ef2d218a40188ac00000000", "vin": [{"sequence": 4294967295, "scriptSig": {"hex": "4730440220247a36ec4e102487aaffea36e3b4065cbe5d8c4ad9bd223d75da48795ea1b0d202201c6b64f24afb90488ae0894c62e8488a6bfa05181ef94546b59aef05b0af6e7c012103348bd0b1eee88ac548102b7c2c982d52290f79ebb27cd56ebf9d6078d286e818", "asm": "30440220247a36ec4e102487aaffea36e3b4065cbe5d8c4ad9bd223d75da48795ea1b0d202201c6b64f24afb90488ae0894c62e8488a6bfa05181ef94546b59aef05b0af6e7c[ALL] 03348bd0b1eee88ac548102b7c2c982d52290f79ebb27cd56ebf9d6078d286e818"}, "vout": 25, "txid": "c6a3e870dac4d8e4de653053f9528a6685f39ee742b07bab23ba5aae1adca272"}], "txid": "250d795e776278196fbdd3e1aa6fb1da5ca1a0929bcbc6c6cb5cce819237870f", "blocktime": 1537873282, "version": 1, "confirmations": 11481, "time": 1537873282, "locktime": 0, "vsize": 225, "size": 225}