{"hash": "250e343d19779011fb34b8a4c3e578456da0777a1875a1a00da92986e30b77f7", "blockhash": "00000000000000000018f53835495a110e01622372bf6ae95dc86f2b0ab887b0", "vout": [{"scriptPubKey": {"reqSigs": 1, "hex": "76a914d243e6abb9a60fbff430b421d2df4b7d59ec186088ac", "addresses": ["1LAnF8h3qMGx3TSwNUHVneBZUEpwE4gu3D"], "asm": "OP_DUP OP_HASH160 d243e6abb9a60fbff430b421d2df4b7d59ec1860 OP_EQUALVERIFY OP_CHECKSIG", "type": "pubkeyhash"}, "value": 0.00076972, "n": 0}, {"scriptPubKey": {"reqSigs": 1, "hex": "76a9143851f34d13937b673a7d24a1950bb5b21ce94af388ac", "addresses": ["168o1kqNquEJeR9vosUB5fw4eAwcVAgh8P"], "asm": "OP_DUP OP_HASH160 3851f34d13937b673a7d24a1950bb5b21ce94af3 OP_EQUALVERIFY OP_CHECKSIG", "type": "pubkeyhash"}, "value": 5.46e-06, "n": 1}, {"scriptPubKey": {"type": "nulldata", "hex": "6a146f6d6e69000000000000001f0000002ed8a84084", "asm": "OP_RETURN 6f6d6e69000000000000001f0000002ed8a84084"}, "value": 0.0, "n": 2}], "hex": "01000000028659d9363bca6974a2de9f8f3985c07ed978bdeca36ddbe5cd17b996ba865077020000006b483045022100f6bbaf381b44f4ccecad64dc35d2a50e24e0f01da5874f81f063957606506df902204ef8609edb9b1284339a97f2f705d6f1a15d8885c4d820a5070d78ed4153dacd012103dfa29f10877f2608016b0c5a315d496364ebaf928b0acdcbe05289d4eadf5094ffffffff260d781b3aa8c11179dca8a2c0581f132492d11dd65fb97ba960c8a3db421e23000000006a47304402202a62ae7963ec3323f5c629a92100e0486adc67ea77cd226bc4312e2c4c36dbdf0220227fa4fabc30aa9f956a1cd7d24fc030b2275ad2547f54160830fcf2ed83cdff01210271977291b74f1f5f5c42157e8aae804664eaaeccfd097918450d37f28fb94d77ffffffff03ac2c0100000000001976a914d243e6abb9a60fbff430b421d2df4b7d59ec186088ac22020000000000001976a9143851f34d13937b673a7d24a1950bb5b21ce94af388ac0000000000000000166a146f6d6e69000000000000001f0000002ed8a8408400000000", "vin": [{"sequence": 4294967295, "scriptSig": {"hex": "483045022100f6bbaf381b44f4ccecad64dc35d2a50e24e0f01da5874f81f063957606506df902204ef8609edb9b1284339a97f2f705d6f1a15d8885c4d820a5070d78ed4153dacd012103dfa29f10877f2608016b0c5a315d496364ebaf928b0acdcbe05289d4eadf5094", "asm": "3045022100f6bbaf381b44f4ccecad64dc35d2a50e24e0f01da5874f81f063957606506df902204ef8609edb9b1284339a97f2f705d6f1a15d8885c4d820a5070d78ed4153dacd[ALL] 03dfa29f10877f2608016b0c5a315d496364ebaf928b0acdcbe05289d4eadf5094"}, "vout": 2, "txid": "775086ba96b917cde5db6da3ecbd78d97ec085398f9fdea27469ca3b36d95986"}, {"sequence": 4294967295, "scriptSig": {"hex": "47304402202a62ae7963ec3323f5c629a92100e0486adc67ea77cd226bc4312e2c4c36dbdf0220227fa4fabc30aa9f956a1cd7d24fc030b2275ad2547f54160830fcf2ed83cdff01210271977291b74f1f5f5c42157e8aae804664eaaeccfd097918450d37f28fb94d77", "asm": "304402202a62ae7963ec3323f5c629a92100e0486adc67ea77cd226bc4312e2c4c36dbdf0220227fa4fabc30aa9f956a1cd7d24fc030b2275ad2547f54160830fcf2ed83cdff[ALL] 0271977291b74f1f5f5c42157e8aae804664eaaeccfd097918450d37f28fb94d77"}, "vout": 0, "txid": "231e42dba3c860a97bb95fd61dd19224131f58c0a2a8dc7911c1a83a1b780d26"}], "txid": "250e343d19779011fb34b8a4c3e578456da0777a1875a1a00da92986e30b77f7", "blocktime": 1537870928, "version": 1, "confirmations": 11512, "time": 1537870928, "locktime": 0, "vsize": 404, "size": 404}