{"hash": "250fd81be0cf7a464c936e86d74fc9d0bda34e77292e3a5dafe2865000454e65", "blockhash": "0000000000000000000e13cef7c366c0283d82e591d1acd082e914b08063cdf1", "vout": [{"scriptPubKey": {"reqSigs": 1, "hex": "a9146cfc77ec9640ab7b596f716f30f06a43591cc83f87", "addresses": ["3BdHM5RjuR9uwRwvoPPU9X8vCvLxVNcZBR"], "asm": "OP_HASH160 6cfc77ec9640ab7b596f716f30f06a43591cc83f OP_EQUAL", "type": "scripthash"}, "value": 0.00421822, "n": 0}, {"scriptPubKey": {"reqSigs": 1, "hex": "76a91499d0f2726032ce8ced8379518030ecd13566e5f588ac", "addresses": ["1F2JhFH2AMb4ZMbbPwCV34mr7Wqxk8Jvf7"], "asm": "OP_DUP OP_HASH160 99d0f2726032ce8ced8379518030ecd13566e5f5 OP_EQUALVERIFY OP_CHECKSIG", "type": "pubkeyhash"}, "value": 0.06499166, "n": 1}], "hex": "010000000136a0ed24643aac873baf35930b5b473ec3ea9fbbdd351ecd81caf03212513686010000006a473044022022e60396b3873c87a1201d26f122a2b5f82b0d84f6b7b68720fbb09ac0c33d8a02207ef0b848ee5fb4291b5224080a58619b3df402f3caba5f6c7cc81e340a2b431b012102e17e6d10c65e675967d7e07511527a48b54788bb19a14eaf9cfc763164e6d5e7ffffffff02be6f06000000000017a9146cfc77ec9640ab7b596f716f30f06a43591cc83f875e2b6300000000001976a91499d0f2726032ce8ced8379518030ecd13566e5f588ac00000000", "vin": [{"sequence": 4294967295, "scriptSig": {"hex": "473044022022e60396b3873c87a1201d26f122a2b5f82b0d84f6b7b68720fbb09ac0c33d8a02207ef0b848ee5fb4291b5224080a58619b3df402f3caba5f6c7cc81e340a2b431b012102e17e6d10c65e675967d7e07511527a48b54788bb19a14eaf9cfc763164e6d5e7", "asm": "3044022022e60396b3873c87a1201d26f122a2b5f82b0d84f6b7b68720fbb09ac0c33d8a02207ef0b848ee5fb4291b5224080a58619b3df402f3caba5f6c7cc81e340a2b431b[ALL] 02e17e6d10c65e675967d7e07511527a48b54788bb19a14eaf9cfc763164e6d5e7"}, "vout": 1, "txid": "8636511232f0ca81cd1e35ddbb9feac33e475b0b9335af3b87ac3a6424eda036"}], "txid": "250fd81be0cf7a464c936e86d74fc9d0bda34e77292e3a5dafe2865000454e65", "blocktime": 1537871767, "version": 1, "confirmations": 11493, "time": 1537871767, "locktime": 0, "vsize": 223, "size": 223}