{"hash": "251bd4dca4ca744d2e95c26a53f53197d014a112a89e48a29b0103c0ddf95c07", "blockhash": "0000000000000000000dcc0f55137456b1a82d3642486a52398922ac4d620174", "vout": [{"scriptPubKey": {"reqSigs": 1, "hex": "76a914c43c383119e335f054bba147bf161a2de3a6d86a88ac", "addresses": ["1JtbaivuYrgxAbdkMKTpsEPz9NAkVix4c3"], "asm": "OP_DUP OP_HASH160 c43c383119e335f054bba147bf161a2de3a6d86a OP_EQUALVERIFY OP_CHECKSIG", "type": "pubkeyhash"}, "value": 0.00112927, "n": 0}, {"scriptPubKey": {"reqSigs": 1, "hex": "76a9141195aa1ea746b3bb875f50808af395e923fb455088ac", "addresses": ["12byn8q5fiE6eMA4f3F3PuhD2xzPrY2HnY"], "asm": "OP_DUP OP_HASH160 1195aa1ea746b3bb875f50808af395e923fb4550 OP_EQUALVERIFY OP_CHECKSIG", "type": "pubkeyhash"}, "value": 0.00264161, "n": 1}], "hex": "01000000010620e4d3fce21ae1bc7e39861669b2a0336565fd508803c6a3658cef1eadc235010000006b483045022100baf441b24b4c16523abd2d203f593f86f28aca3a80d37ab612d9d5fae8498061022042b2d0f10954cfa6778038bb8cca0138301287ca8abe3c00d359a69c0a3ebc620121021933846e5702cfae777627356aafb16d0eb142f321108f6d2889899c920894cbffffffff021fb90100000000001976a914c43c383119e335f054bba147bf161a2de3a6d86a88ace1070400000000001976a9141195aa1ea746b3bb875f50808af395e923fb455088ac00000000", "vin": [{"sequence": 4294967295, "scriptSig": {"hex": "483045022100baf441b24b4c16523abd2d203f593f86f28aca3a80d37ab612d9d5fae8498061022042b2d0f10954cfa6778038bb8cca0138301287ca8abe3c00d359a69c0a3ebc620121021933846e5702cfae777627356aafb16d0eb142f321108f6d2889899c920894cb", "asm": "3045022100baf441b24b4c16523abd2d203f593f86f28aca3a80d37ab612d9d5fae8498061022042b2d0f10954cfa6778038bb8cca0138301287ca8abe3c00d359a69c0a3ebc62[ALL] 021933846e5702cfae777627356aafb16d0eb142f321108f6d2889899c920894cb"}, "vout": 1, "txid": "35c2ad1eef8c65a3c6038850fd656533a0b2691686397ebce11ae2fcd3e42006"}], "txid": "251bd4dca4ca744d2e95c26a53f53197d014a112a89e48a29b0103c0ddf95c07", "blocktime": 1537870268, "version": 1, "confirmations": 11516, "time": 1537870268, "locktime": 0, "vsize": 226, "size": 226}