{"hash": "8ccca8ac027d130a435a1529e16e6135f3e9adf91d73aa7b9238c27cfecf9db9", "blockhash": "00000000000000000024a2167bbff67b0be802c0b01cdd79e6331c2be6459f87", "vout": [{"scriptPubKey": {"reqSigs": 1, "hex": "76a91437d4b347aa3054e50d2ca6cc76a6482e04f07dbe88ac", "addresses": ["166CyECAc4P6AQtkBapmfYox88jEGWwEvb"], "asm": "OP_DUP OP_HASH160 37d4b347aa3054e50d2ca6cc76a6482e04f07dbe OP_EQUALVERIFY OP_CHECKSIG", "type": "pubkeyhash"}, "value": 0.00072317, "n": 0}, {"scriptPubKey": {"reqSigs": 1, "hex": "a91480340c14faf4f2d8a46191457134792da27cacde87", "addresses": ["3DNtmQBkQ2xjbZXQj1cquCdrPmN8FdDfnR"], "asm": "OP_HASH160 80340c14faf4f2d8a46191457134792da27cacde OP_EQUAL", "type": "scripthash"}, "value": 2.57783637, "n": 1}], "hex": "02000000000101c5d101ab422ae866d3136be65fd56c018264acf84653ab8f2dec155ea03ab5650100000017160014a6e565bf43f304d2a18d7790a92c7e6438be9755feffffff027d1a0100000000001976a91437d4b347aa3054e50d2ca6cc76a6482e04f07dbe88ac55775d0f0000000017a91480340c14faf4f2d8a46191457134792da27cacde8702483045022100a597f70448a3af75e29f1a13e692ff8cced8e4af04e70dd87583367ac1711de3022022e02546d95895c0adf6d9f6317eaf7b0cc431779449f33bf174bd55e4f480c10121034fed91e63764bfb97330797de704bfa41e8a69b4c159389e480c98268c0ca6340d490800", "vin": [{"txinwitness": ["3045022100a597f70448a3af75e29f1a13e692ff8cced8e4af04e70dd87583367ac1711de3022022e02546d95895c0adf6d9f6317eaf7b0cc431779449f33bf174bd55e4f480c101", "034fed91e63764bfb97330797de704bfa41e8a69b4c159389e480c98268c0ca634"], "sequence": 4294967294, "scriptSig": {"hex": "160014a6e565bf43f304d2a18d7790a92c7e6438be9755", "asm": "0014a6e565bf43f304d2a18d7790a92c7e6438be9755"}, "vout": 1, "txid": "65b53aa05e15ec2d8fab5346f8ac6482016cd55fe66b13d366e82a42ab01d1c5"}], "txid": "251ded8e8202e1fb78777b82dc767a85a3423162b952df8e7c7eed70ffe15800", "blocktime": 1537870564, "version": 2, "confirmations": 11515, "time": 1537870564, "locktime": 542989, "vsize": 168, "size": 250}