{"hash": "2520eb034d14a09bccbaff718798faa92caddee526c6cda5f595022496474807", "blockhash": "0000000000000000001f76057863aec43deb6fa401d9628bb513d65a8098bfab", "vout": [{"scriptPubKey": {"reqSigs": 1, "hex": "a9149f73719246f9840e970c15b089b322bef10f57ed87", "addresses": ["3GE7fD6fddGnobdqjU6sEw448H5A1Jq2XN"], "asm": "OP_HASH160 9f73719246f9840e970c15b089b322bef10f57ed OP_EQUAL", "type": "scripthash"}, "value": 0.01, "n": 0}, {"scriptPubKey": {"reqSigs": 1, "hex": "76a91497efe260434458f53694a303de7b5c243d7c596688ac", "addresses": ["1ErNQRGhvp7pXWbRstpjSLVy3ss6W8s26x"], "asm": "OP_DUP OP_HASH160 97efe260434458f53694a303de7b5c243d7c5966 OP_EQUALVERIFY OP_CHECKSIG", "type": "pubkeyhash"}, "value": 0.0189403, "n": 1}], "hex": "0100000001cd6221bf1d707898613e03ab192fa225d061d466b606868cf9800e406f4eb6aa010000006b4830450221009a0951917e77abf60fde31eb6c103603e2690656cd2db80e9d729da05964042a02203c488fcb16d08037662344c32c0cde1501dc67b3e82c9b34a9eceee810cb639d012103528ad6ba1980c99a9bb924a44503b149d23134213165ab3c5c9f220d280b5c48fdffffff0240420f000000000017a9149f73719246f9840e970c15b089b322bef10f57ed878ee61c00000000001976a91497efe260434458f53694a303de7b5c243d7c596688ac14490800", "vin": [{"sequence": 4294967293, "scriptSig": {"hex": "4830450221009a0951917e77abf60fde31eb6c103603e2690656cd2db80e9d729da05964042a02203c488fcb16d08037662344c32c0cde1501dc67b3e82c9b34a9eceee810cb639d012103528ad6ba1980c99a9bb924a44503b149d23134213165ab3c5c9f220d280b5c48", "asm": "30450221009a0951917e77abf60fde31eb6c103603e2690656cd2db80e9d729da05964042a02203c488fcb16d08037662344c32c0cde1501dc67b3e82c9b34a9eceee810cb639d[ALL] 03528ad6ba1980c99a9bb924a44503b149d23134213165ab3c5c9f220d280b5c48"}, "vout": 1, "txid": "aab64e6f400e80f98c8606b666d461d025a22f19ab033e619878701dbf2162cd"}], "txid": "2520eb034d14a09bccbaff718798faa92caddee526c6cda5f595022496474807", "blocktime": 1537873891, "version": 1, "confirmations": 11479, "time": 1537873891, "locktime": 542996, "vsize": 224, "size": 224}