{"hash": "45edd5524cab07e623e35b5e5c7c5352900d88ee6d527da495fe2e371354fe7a", "blockhash": "0000000000000000001cda96e906b7601b7a6fb1a3b62bca570a9e5d8f4b3de1", "vout": [{"scriptPubKey": {"reqSigs": 1, "hex": "a91469f3750e2e15a39d2ad0f3817451374f0cfe67b587", "addresses": ["3BMEXPhACGsuVTzhe9bqeNfNXd7xM4sEYT"], "asm": "OP_HASH160 69f3750e2e15a39d2ad0f3817451374f0cfe67b5 OP_EQUAL", "type": "scripthash"}, "value": 0.09417763, "n": 0}, {"scriptPubKey": {"reqSigs": 1, "hex": "001410ed8743deb071c969b4e12e5ef0cdc48a4226af", "addresses": ["bc1qzrkcws77kpcuj6d5uyh9auxdcj9yyf40s66xt2"], "asm": "0 10ed8743deb071c969b4e12e5ef0cdc48a4226af", "type": "witness_v0_keyhash"}, "value": 0.50064164, "n": 1}], "hex": "0100000000010161fb0d33e9a0e8d4d540d5a41b7bfe9d17298757c863ccaad7da5caf9e71bda00100000000ffffffff0223b48f000000000017a91469f3750e2e15a39d2ad0f3817451374f0cfe67b58724ebfb020000000016001410ed8743deb071c969b4e12e5ef0cdc48a4226af024830450221008fb122099d30e0a2be9dbdc04bfb145ca1ec0eee6604aea3a37157868f4f02c0022065ecf88288961e52652f8157751c1aca948b0b9a376c69f6a2ec167bfeeb3c2d012102b6889027ce16060122dc966eac7e9b663ef8047e3a16b82208d2cd6ee3f0e10e00000000", "vin": [{"txinwitness": ["30450221008fb122099d30e0a2be9dbdc04bfb145ca1ec0eee6604aea3a37157868f4f02c0022065ecf88288961e52652f8157751c1aca948b0b9a376c69f6a2ec167bfeeb3c2d01", "02b6889027ce16060122dc966eac7e9b663ef8047e3a16b82208d2cd6ee3f0e10e"], "sequence": 4294967295, "scriptSig": {"hex": "", "asm": ""}, "vout": 1, "txid": "a0bd719eaf5cdad7aacc63c8578729179dfe7b1ba4d540d5d4e8a0e9330dfb61"}], "txid": "25272d565ed83433472713806262df577445d4522de81ffab95323f4aacd4490", "blocktime": 1537873282, "version": 1, "confirmations": 11484, "time": 1537873282, "locktime": 0, "vsize": 142, "size": 224}