{"hash": "25284a43151ee834c06a442659b24ff0baa34d10acbdb105e6df3ba453d01910", "blockhash": "0000000000000000000e13cef7c366c0283d82e591d1acd082e914b08063cdf1", "vout": [{"scriptPubKey": {"reqSigs": 1, "hex": "a9140723a1d75d5322da1c264567ec89bddca6d5792087", "addresses": ["32LmLevfmYBVBJzi6uKCH1cfxBQmk8TaT9"], "asm": "OP_HASH160 0723a1d75d5322da1c264567ec89bddca6d57920 OP_EQUAL", "type": "scripthash"}, "value": 0.00126654, "n": 0}, {"scriptPubKey": {"reqSigs": 1, "hex": "76a9141948615c62d3cad4501de60ede3e0cc6ca4365c288ac", "addresses": ["13JgbsMtVoYSFPPuy6Uz8Axck9PDzZAnHS"], "asm": "OP_DUP OP_HASH160 1948615c62d3cad4501de60ede3e0cc6ca4365c2 OP_EQUALVERIFY OP_CHECKSIG", "type": "pubkeyhash"}, "value": 0.00126951, "n": 1}, {"scriptPubKey": {"reqSigs": 1, "hex": "76a9140480481493419f7cb4a6912bd8d4bfd47986e41088ac", "addresses": ["1QoNvkEEHzPcRGteJtGW7TTzQxv47fF4Y"], "asm": "OP_DUP OP_HASH160 0480481493419f7cb4a6912bd8d4bfd47986e410 OP_EQUALVERIFY OP_CHECKSIG", "type": "pubkeyhash"}, "value": 0.00129866, "n": 2}, {"scriptPubKey": {"reqSigs": 1, "hex": "76a91406e8a70602f4e4ff316d01f50bc4a5aaa74fc9da88ac", "addresses": ["1dXm8HVEwukP6UaBGwgQaThydfbozLC8T"], "asm": "OP_DUP OP_HASH160 06e8a70602f4e4ff316d01f50bc4a5aaa74fc9da OP_EQUALVERIFY OP_CHECKSIG", "type": "pubkeyhash"}, "value": 0.0012693, "n": 3}, {"scriptPubKey": {"reqSigs": 1, "hex": "76a914c8139738c1cecefc9e722e3a291f7d5bcdfeacac88ac", "addresses": ["1KEucZ3VHK3tTTQFY3QdiBE5xdW8Mc8F3x"], "asm": "OP_DUP OP_HASH160 c8139738c1cecefc9e722e3a291f7d5bcdfeacac OP_EQUALVERIFY OP_CHECKSIG", "type": "pubkeyhash"}, "value": 0.00128939, "n": 4}, {"scriptPubKey": {"reqSigs": 1, "hex": "76a9146b992d05eb2d6f1b126f72831c0f9440f91c892c88ac", "addresses": ["1AovoNaPE6CVjGgrjhPcTYp8sH88nJxyMw"], "asm": "OP_DUP OP_HASH160 6b992d05eb2d6f1b126f72831c0f9440f91c892c OP_EQUALVERIFY OP_CHECKSIG", "type": "pubkeyhash"}, "value": 0.0012762, "n": 5}, {"scriptPubKey": {"reqSigs": 1, "hex": "76a9142505825d0f4f7feb8811423b378464cf06179b0c88ac", "addresses": ["14NkbtPCUE1anVY3hMzMjovqJAz8tF8a2E"], "asm": "OP_DUP OP_HASH160 2505825d0f4f7feb8811423b378464cf06179b0c OP_EQUALVERIFY OP_CHECKSIG", "type": "pubkeyhash"}, "value": 0.00128625, "n": 6}, {"scriptPubKey": {"reqSigs": 1, "hex": "76a914158efc9a8810a115bd0ea40cdc8d1de2b95d90c088ac", "addresses": ["12xzUvQd9nQZemi6HfWnJ2gARJqya5pE2H"], "asm": "OP_DUP OP_HASH160 158efc9a8810a115bd0ea40cdc8d1de2b95d90c0 OP_EQUALVERIFY OP_CHECKSIG", "type": "pubkeyhash"}, "value": 0.00131272, "n": 7}, {"scriptPubKey": {"reqSigs": 1, "hex": "76a91464eb562ade4485c1d4e9ed74af036fa021c3dde788ac", "addresses": ["1ACcVf45fX1RVkpa7PxJKX1UA5tdJ2foTj"], "asm": "OP_DUP OP_HASH160 64eb562ade4485c1d4e9ed74af036fa021c3dde7 OP_EQUALVERIFY OP_CHECKSIG", "type": "pubkeyhash"}, "value": 0.00128011, "n": 8}, {"scriptPubKey": {"reqSigs": 1, "hex": "76a914cb2846cbbde02ecc5be0118f67e423b5cf34999d88ac", "addresses": ["1KXCRQVgCcMgDt1ZGdrWmX7e4e588Hqw8c"], "asm": "OP_DUP OP_HASH160 cb2846cbbde02ecc5be0118f67e423b5cf34999d OP_EQUALVERIFY OP_CHECKSIG", "type": "pubkeyhash"}, "value": 0.00130404, "n": 9}, {"scriptPubKey": {"reqSigs": 1, "hex": "76a914de7473eb9f57fbdd7d00679e525079823c7bb2eb88ac", "addresses": ["1MHEWsSkb1cjYe3zoyzkXGaiGkf1Q4xFdb"], "asm": "OP_DUP OP_HASH160 de7473eb9f57fbdd7d00679e525079823c7bb2eb OP_EQUALVERIFY OP_CHECKSIG", "type": "pubkeyhash"}, "value": 0.00127144, "n": 10}, {"scriptPubKey": {"reqSigs": 1, "hex": "76a914f58e2d53add82dcb3732403b79d625371aff9f4488ac", "addresses": ["1PPNsdkYRa5jy4BAGno1mTAmZvegwe2arK"], "asm": "OP_DUP OP_HASH160 f58e2d53add82dcb3732403b79d625371aff9f44 OP_EQUALVERIFY OP_CHECKSIG", "type": "pubkeyhash"}, "value": 0.00128738, "n": 11}, {"scriptPubKey": {"reqSigs": 1, "hex": "76a914b40fa488d3ebf886fb1b6aecadcd22a9e004930688ac", "addresses": ["1HR5NQSnaMLmyH1kcptEoE3gVoYEPvgVWo"], "asm": "OP_DUP OP_HASH160 b40fa488d3ebf886fb1b6aecadcd22a9e0049306 OP_EQUALVERIFY OP_CHECKSIG", "type": "pubkeyhash"}, "value": 0.00128106, "n": 12}, {"scriptPubKey": {"reqSigs": 1, "hex": "76a91483e63d3a92244064adec659675ab99a5d08a737188ac", "addresses": ["1D2RLRqB4ai9V9pyN3RR5akLzdx43LEHbm"], "asm": "OP_DUP OP_HASH160 83e63d3a92244064adec659675ab99a5d08a7371 OP_EQUALVERIFY OP_CHECKSIG", "type": "pubkeyhash"}, "value": 0.00130329, "n": 13}, {"scriptPubKey": {"reqSigs": 1, "hex": "76a9141742675d2570712b45dbeed9f95453e134136de488ac", "addresses": ["137z6E9DeKGaLhFnVPViZ7jfQP4qwb7uGg"], "asm": "OP_DUP OP_HASH160 1742675d2570712b45dbeed9f95453e134136de4 OP_EQUALVERIFY OP_CHECKSIG", "type": "pubkeyhash"}, "value": 0.00128938, "n": 14}, {"scriptPubKey": {"reqSigs": 1, "hex": "76a91406c9041dbb876fc6b17f7f58c7f199184c0d676288ac", "addresses": ["1csrzbQCrneUZcUmtLtxkTVnQr49B8rTh"], "asm": "OP_DUP OP_HASH160 06c9041dbb876fc6b17f7f58c7f199184c0d6762 OP_EQUALVERIFY OP_CHECKSIG", "type": "pubkeyhash"}, "value": 0.00126831, "n": 15}, {"scriptPubKey": {"reqSigs": 1, "hex": "76a914c35a0d47294ed3e2bd68a787210f8650a609b61b88ac", "addresses": ["1JoveKaekGpxxCxgZTyJV3pDzZCP9TPbdT"], "asm": "OP_DUP OP_HASH160 c35a0d47294ed3e2bd68a787210f8650a609b61b OP_EQUALVERIFY OP_CHECKSIG", "type": "pubkeyhash"}, "value": 0.00128773, "n": 16}, {"scriptPubKey": {"reqSigs": 1, "hex": "a9142039c82a0ccc04b4514a6b0361f73af499b681c787", "addresses": ["34dQmSPWK8NYVnrPEHfsPrvFeKissLwAeD"], "asm": "OP_HASH160 2039c82a0ccc04b4514a6b0361f73af499b681c7 OP_EQUAL", "type": "scripthash"}, "value": 0.00138829, "n": 17}, {"scriptPubKey": {"reqSigs": 1, "hex": "a914157bcf58d98934c17928aeeb67a9df2308bfd3c687", "addresses": ["33ecS3B5Nshaq4U5VVLstGgA6fnzsmBicX"], "asm": "OP_HASH160 157bcf58d98934c17928aeeb67a9df2308bfd3c6 OP_EQUAL", "type": "scripthash"}, "value": 0.00127857, "n": 18}, {"scriptPubKey": {"reqSigs": 1, "hex": "76a914d49fdca2326fab4b8a7d812307eecbbdeb96f91e88ac", "addresses": ["1LPFm4ifD5Y5SNEH79s8RgQ5zWJHY9UVVa"], "asm": "OP_DUP OP_HASH160 d49fdca2326fab4b8a7d812307eecbbdeb96f91e OP_EQUALVERIFY OP_CHECKSIG", "type": "pubkeyhash"}, "value": 0.00128719, "n": 19}, {"scriptPubKey": {"reqSigs": 1, "hex": "76a914af6241f51b5d1a5810876e692dece6fd251d0f2388ac", "addresses": ["1GzLxdcc5BQgJq7kC8BtKvBQTqA8hEAox7"], "asm": "OP_DUP OP_HASH160 af6241f51b5d1a5810876e692dece6fd251d0f23 OP_EQUALVERIFY OP_CHECKSIG", "type": "pubkeyhash"}, "value": 0.00128696, "n": 20}, {"scriptPubKey": {"reqSigs": 1, "hex": "a91480a240085c40a2bdc537651df20d9e77b11ea7e487", "addresses": ["3DRAnSA4mpHZzThjbygyhVMeBqhm1HYAa5"], "asm": "OP_HASH160 80a240085c40a2bdc537651df20d9e77b11ea7e4 OP_EQUAL", "type": "scripthash"}, "value": 0.0012812, "n": 21}, {"scriptPubKey": {"reqSigs": 1, "hex": "76a914fd9e663c8f1bce82cc750daeadf1de80e3600c5088ac", "addresses": ["1Q81iKCE21m6m6xQErJfv5EcnQJSzQM3gQ"], "asm": "OP_DUP OP_HASH160 fd9e663c8f1bce82cc750daeadf1de80e3600c50 OP_EQUALVERIFY OP_CHECKSIG", "type": "pubkeyhash"}, "value": 0.00128458, "n": 22}, {"scriptPubKey": {"reqSigs": 1, "hex": "76a9142e779bf374b6410f802715475bf84e198152c0cb88ac", "addresses": ["15EhNR8Kh6tJykjYZfACpFV5emZRUWyTB4"], "asm": "OP_DUP OP_HASH160 2e779bf374b6410f802715475bf84e198152c0cb OP_EQUALVERIFY OP_CHECKSIG", "type": "pubkeyhash"}, "value": 0.00127767, "n": 23}, {"scriptPubKey": {"reqSigs": 1, "hex": "76a91437e7b746a54e5d6a2fe2260184938fe493cf844588ac", "addresses": ["166bkTQB2YDYecw6CKyEAtdCajYyrrDrc3"], "asm": "OP_DUP OP_HASH160 37e7b746a54e5d6a2fe2260184938fe493cf8445 OP_EQUALVERIFY OP_CHECKSIG", "type": "pubkeyhash"}, "value": 0.00130635, "n": 24}, {"scriptPubKey": {"reqSigs": 1, "hex": "a91474c8fbfede62ea73f9875074d09d815fe2c2c39887", "addresses": ["3CLX5S8Uq9BQkXpYphNiakuxP7f46z9jKE"], "asm": "OP_HASH160 74c8fbfede62ea73f9875074d09d815fe2c2c398 OP_EQUAL", "type": "scripthash"}, "value": 0.00131038, "n": 25}, {"scriptPubKey": {"reqSigs": 1, "hex": "76a91456184bf8204cac250d38ada42cfc638b46035afc88ac", "addresses": ["18rEDfbseDta8pQErQ1ZsuSMcWh5Umeezt"], "asm": "OP_DUP OP_HASH160 56184bf8204cac250d38ada42cfc638b46035afc OP_EQUALVERIFY OP_CHECKSIG", "type": "pubkeyhash"}, "value": 0.00127864, "n": 26}, {"scriptPubKey": {"reqSigs": 1, "hex": "76a914279ebf044e286df27025bbbb51e93b1fd50b96ea88ac", "addresses": ["14cVXMm1n8LXUkkJSBGuJaNC3BpegQi4nM"], "asm": "OP_DUP OP_HASH160 279ebf044e286df27025bbbb51e93b1fd50b96ea OP_EQUALVERIFY OP_CHECKSIG", "type": "pubkeyhash"}, "value": 0.00129889, "n": 27}, {"scriptPubKey": {"reqSigs": 1, "hex": "a914710ad3ad9bc62c96709cf8fdf286af3c57c1a2a887", "addresses": ["3BzjFV4J3EPe1912XEvVRga4vgxzri83Qw"], "asm": "OP_HASH160 710ad3ad9bc62c96709cf8fdf286af3c57c1a2a8 OP_EQUAL", "type": "scripthash"}, "value": 0.0012711, "n": 28}, {"scriptPubKey": {"reqSigs": 1, "hex": "76a9144a48883d0eca1c656263e979679c9eff052a71e188ac", "addresses": ["17mmtpYkfu89DyJphPVZ6mdN2gcXPS1ik7"], "asm": "OP_DUP OP_HASH160 4a48883d0eca1c656263e979679c9eff052a71e1 OP_EQUALVERIFY OP_CHECKSIG", "type": "pubkeyhash"}, "value": 0.0012867, "n": 29}, {"scriptPubKey": {"reqSigs": 1, "hex": "76a9148a1360dde0b47de5c9cb14dbd37a9b160e4587f688ac", "addresses": ["1Db5TuaExFXsgJehT2mrCTt9rkx5mYoH6m"], "asm": "OP_DUP OP_HASH160 8a1360dde0b47de5c9cb14dbd37a9b160e4587f6 OP_EQUALVERIFY OP_CHECKSIG", "type": "pubkeyhash"}, "value": 0.00130573, "n": 30}, {"scriptPubKey": {"reqSigs": 1, "hex": "76a9143e2c7529eff794c5d9fa739d0d53ed92665ab5dc88ac", "addresses": ["16fk9sGMGErNYr17qTa5kWcBu2yCaCXaz5"], "asm": "OP_DUP OP_HASH160 3e2c7529eff794c5d9fa739d0d53ed92665ab5dc OP_EQUALVERIFY OP_CHECKSIG", "type": "pubkeyhash"}, "value": 0.00130363, "n": 31}, {"scriptPubKey": {"reqSigs": 1, "hex": "76a914f9e5a3b8dd1405521ae409cf0f3ca99f3cb80d8a88ac", "addresses": ["1PnLMQExz9173ANERvZv1JFLu1HCxNBm1s"], "asm": "OP_DUP OP_HASH160 f9e5a3b8dd1405521ae409cf0f3ca99f3cb80d8a OP_EQUALVERIFY OP_CHECKSIG", "type": "pubkeyhash"}, "value": 0.00128237, "n": 32}, {"scriptPubKey": {"reqSigs": 1, "hex": "76a914fe344422f70311fe7bc9044f1a60015a4bffb76a88ac", "addresses": ["1QB7FEzggo1yh6E8zQDcM2MnmRyRm7XFat"], "asm": "OP_DUP OP_HASH160 fe344422f70311fe7bc9044f1a60015a4bffb76a OP_EQUALVERIFY OP_CHECKSIG", "type": "pubkeyhash"}, "value": 0.00129945, "n": 33}, {"scriptPubKey": {"reqSigs": 1, "hex": "76a914d824d68bbd11020e1657ba9f39fb102388230a6688ac", "addresses": ["1Lhs5zP6p24JGkqEm3aA4UqVR9uvzvAVj4"], "asm": "OP_DUP OP_HASH160 d824d68bbd11020e1657ba9f39fb102388230a66 OP_EQUALVERIFY OP_CHECKSIG", "type": "pubkeyhash"}, "value": 0.00130367, "n": 34}, {"scriptPubKey": {"reqSigs": 1, "hex": "a9140f04afd9b89b08e67208549cf4a7283fb3ab763b87", "addresses": ["334Rg5Ee5C2VCBZJPF3d6oceQEQy9QYRy9"], "asm": "OP_HASH160 0f04afd9b89b08e67208549cf4a7283fb3ab763b OP_EQUAL", "type": "scripthash"}, "value": 0.00127709, "n": 35}, {"scriptPubKey": {"reqSigs": 1, "hex": "76a9140764a6894d8b68c8f5ec3742bd96df543ee6a6ec88ac", "addresses": ["1g6JfY6pryabzL8NjmkC7s5oDqUVaUWHf"], "asm": "OP_DUP OP_HASH160 0764a6894d8b68c8f5ec3742bd96df543ee6a6ec OP_EQUALVERIFY OP_CHECKSIG", "type": "pubkeyhash"}, "value": 0.00128205, "n": 36}, {"scriptPubKey": {"reqSigs": 1, "hex": "76a914a0ae2a54689a0989c8746cca6cde1013f2e4703688ac", "addresses": ["1FebkuzEpReYFHiF1wDpkam4FQpPwcFpfV"], "asm": "OP_DUP OP_HASH160 a0ae2a54689a0989c8746cca6cde1013f2e47036 OP_EQUALVERIFY OP_CHECKSIG", "type": "pubkeyhash"}, "value": 0.00131412, "n": 37}, {"scriptPubKey": {"reqSigs": 1, "hex": "76a914598cfbb2773723ac53b35def828b79478ef9000a88ac", "addresses": ["19AW2ktv5AmX93phB66u7G2ZjHJGzhmivw"], "asm": "OP_DUP OP_HASH160 598cfbb2773723ac53b35def828b79478ef9000a OP_EQUALVERIFY OP_CHECKSIG", "type": "pubkeyhash"}, "value": 0.00130776, "n": 38}, {"scriptPubKey": {"reqSigs": 1, "hex": "a914320c289df5c2e19b157aa97995a90485ea0b0aff87", "addresses": ["36FeGw7ZVAuFgh9Bjp5it2CnJephvqgVao"], "asm": "OP_HASH160 320c289df5c2e19b157aa97995a90485ea0b0aff OP_EQUAL", "type": "scripthash"}, "value": 0.0012792, "n": 39}, {"scriptPubKey": {"reqSigs": 1, "hex": "76a9145eeb58e38cdc92c1e2134ba2eced2c059952308688ac", "addresses": ["19etTF8u8TC94m4dkpqshBJ1peVyw9YjSd"], "asm": "OP_DUP OP_HASH160 5eeb58e38cdc92c1e2134ba2eced2c0599523086 OP_EQUALVERIFY OP_CHECKSIG", "type": "pubkeyhash"}, "value": 0.00129817, "n": 40}, {"scriptPubKey": {"reqSigs": 1, "hex": "76a914c66be3c4da8ef5d29cc300234c5efdbe9e5c651b88ac", "addresses": ["1K6A3HvVAs7J4P5ydMUBzCxrhEjzQ89y77"], "asm": "OP_DUP OP_HASH160 c66be3c4da8ef5d29cc300234c5efdbe9e5c651b OP_EQUALVERIFY OP_CHECKSIG", "type": "pubkeyhash"}, "value": 0.00131136, "n": 41}, {"scriptPubKey": {"reqSigs": 1, "hex": "a9145866212391b45e4ec0a648683b221824f6a36f2587", "addresses": ["39kRjW9X9phQhcewL9sjAtZvUQWN3zBbHX"], "asm": "OP_HASH160 5866212391b45e4ec0a648683b221824f6a36f25 OP_EQUAL", "type": "scripthash"}, "value": 0.00129145, "n": 42}, {"scriptPubKey": {"reqSigs": 1, "hex": "76a914aab5eec586c09d6aa9acd124b77b670d00646b0388ac", "addresses": ["1GZdpWyny98S9npjKW6BM6FTkBvVZTLuoq"], "asm": "OP_DUP OP_HASH160 aab5eec586c09d6aa9acd124b77b670d00646b03 OP_EQUALVERIFY OP_CHECKSIG", "type": "pubkeyhash"}, "value": 42.32675308, "n": 43}, {"scriptPubKey": {"reqSigs": 1, "hex": "76a91470e25e38804011d29afa9f91c3063a9c2986730e88ac", "addresses": ["1BHsrp9NFQSWYjgtVZznBM1gr7GbREtERx"], "asm": "OP_DUP OP_HASH160 70e25e38804011d29afa9f91c3063a9c2986730e OP_EQUALVERIFY OP_CHECKSIG", "type": "pubkeyhash"}, "value": 0.00129307, "n": 44}, {"scriptPubKey": {"reqSigs": 1, "hex": "a914de4f72961458a08be917ab2223813ddc9f0d4f1687", "addresses": ["3MxV7FEpiFu7CS2BsjmR9z6sz7DVQMRGAe"], "asm": "OP_HASH160 de4f72961458a08be917ab2223813ddc9f0d4f16 OP_EQUAL", "type": "scripthash"}, "value": 0.00130269, "n": 45}, {"scriptPubKey": {"reqSigs": 1, "hex": "76a914e8e1ad22fa5b1be04ced9dd7ef4223b5f7f897a588ac", "addresses": ["1NEN7mezfp946bdPnyp1Qdz6HwoVn5toc7"], "asm": "OP_DUP OP_HASH160 e8e1ad22fa5b1be04ced9dd7ef4223b5f7f897a5 OP_EQUALVERIFY OP_CHECKSIG", "type": "pubkeyhash"}, "value": 0.00128295, "n": 46}, {"scriptPubKey": {"reqSigs": 1, "hex": "76a914e443dcf0c88c3a7cd0329386f28c5a757feb88f488ac", "addresses": ["1MoxMwno71UaUYmjnfqtkk3yQMPpfkbvNk"], "asm": "OP_DUP OP_HASH160 e443dcf0c88c3a7cd0329386f28c5a757feb88f4 OP_EQUALVERIFY OP_CHECKSIG", "type": "pubkeyhash"}, "value": 0.00130209, "n": 47}, {"scriptPubKey": {"reqSigs": 1, "hex": "76a9144cb66c0aeda5fae4327eff08b3a4331291edb4da88ac", "addresses": ["17zctV7oBWS1wD2oW7WcsRtZ4QnQbgYgoB"], "asm": "OP_DUP OP_HASH160 4cb66c0aeda5fae4327eff08b3a4331291edb4da OP_EQUALVERIFY OP_CHECKSIG", "type": "pubkeyhash"}, "value": 0.00126923, "n": 48}, {"scriptPubKey": {"reqSigs": 1, "hex": "a9146dde9bcd14ca3a9978b8ce3e2c01c13392f4c93787", "addresses": ["3BhxFa182VaR1DoqTcd1dLQAPz6Bu986wV"], "asm": "OP_HASH160 6dde9bcd14ca3a9978b8ce3e2c01c13392f4c937 OP_EQUAL", "type": "scripthash"}, "value": 0.0013106, "n": 49}, {"scriptPubKey": {"reqSigs": 1, "hex": "a9148e90d823a624b2f6211d69864ef48ced211331ee87", "addresses": ["3EgqPjyAdXNf9Vk7hZ1Nfpt4ytdE4xpJWq"], "asm": "OP_HASH160 8e90d823a624b2f6211d69864ef48ced211331ee OP_EQUAL", "type": "scripthash"}, "value": 0.00131308, "n": 50}, {"scriptPubKey": {"reqSigs": 1, "hex": "76a9141d5ef5d4d3c2394921cbe24f63ab0f5408ba980288ac", "addresses": ["13gJMX6eFUUdc6dWMwpnjmmAxa5ta4KF4A"], "asm": "OP_DUP OP_HASH160 1d5ef5d4d3c2394921cbe24f63ab0f5408ba9802 OP_EQUALVERIFY OP_CHECKSIG", "type": "pubkeyhash"}, "value": 0.00128726, "n": 51}, {"scriptPubKey": {"reqSigs": 1, "hex": "76a9143c64db0ae91af9239e607ded3305c3700f6b3de988ac", "addresses": ["16WLN5mZZscL3gP2UFC2oEi33NnuhowcbU"], "asm": "OP_DUP OP_HASH160 3c64db0ae91af9239e607ded3305c3700f6b3de9 OP_EQUALVERIFY OP_CHECKSIG", "type": "pubkeyhash"}, "value": 0.00128359, "n": 52}, {"scriptPubKey": {"reqSigs": 1, "hex": "76a9141c2d3a81b7e44eeecc95af4811e64c55985a777288ac", "addresses": ["13Zz6uWsYEpUGPdQQguaD6NnK37YEcBEGC"], "asm": "OP_DUP OP_HASH160 1c2d3a81b7e44eeecc95af4811e64c55985a7772 OP_EQUALVERIFY OP_CHECKSIG", "type": "pubkeyhash"}, "value": 0.00130899, "n": 53}, {"scriptPubKey": {"reqSigs": 1, "hex": "76a91406bd373da3c9f051b1b13afe157877c7cb1efb0f88ac", "addresses": ["1cdj6TkABSo3rjEzRBwqNxLJ6FT1zw6BC"], "asm": "OP_DUP OP_HASH160 06bd373da3c9f051b1b13afe157877c7cb1efb0f OP_EQUALVERIFY OP_CHECKSIG", "type": "pubkeyhash"}, "value": 0.00127594, "n": 54}, {"scriptPubKey": {"reqSigs": 1, "hex": "a91490b134a2fc6896c869d7f8484f47784b35f36a0787", "addresses": ["3Et5WdSZjysQQ1LteTUmxkR8DpzPE1wYsa"], "asm": "OP_HASH160 90b134a2fc6896c869d7f8484f47784b35f36a07 OP_EQUAL", "type": "scripthash"}, "value": 0.00129362, "n": 55}, {"scriptPubKey": {"reqSigs": 1, "hex": "76a914b9c852e3d7e1544d75bc3b0b95e6e86e3ed1d31188ac", "addresses": ["1HwKzEK4b76aghe6kJ1XoCDqquR8jVEZRC"], "asm": "OP_DUP OP_HASH160 b9c852e3d7e1544d75bc3b0b95e6e86e3ed1d311 OP_EQUALVERIFY OP_CHECKSIG", "type": "pubkeyhash"}, "value": 0.00128524, "n": 56}, {"scriptPubKey": {"reqSigs": 1, "hex": "76a914f6f1efc5caf0d86ec6cf6a3432f12bc0cf36892788ac", "addresses": ["1PWj4ExxhfQ4NwJdrAub6doiGqDmL66YxA"], "asm": "OP_DUP OP_HASH160 f6f1efc5caf0d86ec6cf6a3432f12bc0cf368927 OP_EQUALVERIFY OP_CHECKSIG", "type": "pubkeyhash"}, "value": 0.00127336, "n": 57}, {"scriptPubKey": {"reqSigs": 1, "hex": "76a9148db09bb295331def74dcede773ed4efb5b98e94b88ac", "addresses": ["1DvBr12iwQfy4eqGXS1yXdUy794UiU7ipS"], "asm": "OP_DUP OP_HASH160 8db09bb295331def74dcede773ed4efb5b98e94b OP_EQUALVERIFY OP_CHECKSIG", "type": "pubkeyhash"}, "value": 0.00130464, "n": 58}, {"scriptPubKey": {"reqSigs": 1, "hex": "76a914b4b59406f5a27fe282456bdc72e0fba4d967e7ef88ac", "addresses": ["1HUW9okuv9wgLq6Zu4nBEUiYgMcogeyt1u"], "asm": "OP_DUP OP_HASH160 b4b59406f5a27fe282456bdc72e0fba4d967e7ef OP_EQUALVERIFY OP_CHECKSIG", "type": "pubkeyhash"}, "value": 0.00128391, "n": 59}, {"scriptPubKey": {"reqSigs": 1, "hex": "76a9149d822235a051d02c236e612154bca811f946963b88ac", "addresses": ["1FMpyxiK1jg2Xk9By8VjSfH4fypvNZLXVj"], "asm": "OP_DUP OP_HASH160 9d822235a051d02c236e612154bca811f946963b OP_EQUALVERIFY OP_CHECKSIG", "type": "pubkeyhash"}, "value": 0.00127643, "n": 60}, {"scriptPubKey": {"reqSigs": 1, "hex": "76a91427d10c70b30f43f29097cb25b19c9cdf22a0216c88ac", "addresses": ["14dXnS5Y3S3ec38GaCcfvM8EfBShbPUfGK"], "asm": "OP_DUP OP_HASH160 27d10c70b30f43f29097cb25b19c9cdf22a0216c OP_EQUALVERIFY OP_CHECKSIG", "type": "pubkeyhash"}, "value": 0.00130931, "n": 61}, {"scriptPubKey": {"reqSigs": 1, "hex": "76a9141e65aa875d020839e945b94062fad1de97b91e8a88ac", "addresses": ["13mj4eCQo4jh1oRjqpvWZ9chwCuRPebvme"], "asm": "OP_DUP OP_HASH160 1e65aa875d020839e945b94062fad1de97b91e8a OP_EQUALVERIFY OP_CHECKSIG", "type": "pubkeyhash"}, "value": 0.00128454, "n": 62}, {"scriptPubKey": {"reqSigs": 1, "hex": "76a91440fe59d59bcb8e78a56c513e3a3dd93dd0f9068288ac", "addresses": ["16vewtYDGxPZjZoV5R3okg2WjLdRw2oKUc"], "asm": "OP_DUP OP_HASH160 40fe59d59bcb8e78a56c513e3a3dd93dd0f90682 OP_EQUALVERIFY OP_CHECKSIG", "type": "pubkeyhash"}, "value": 0.00126662, "n": 63}, {"scriptPubKey": {"reqSigs": 1, "hex": "76a9142f785a634e22b5888becf5fa277a7432ba93fb3288ac", "addresses": ["15KzwJ5cU3Vno7nP3hVnqb8absRBs1YKvQ"], "asm": "OP_DUP OP_HASH160 2f785a634e22b5888becf5fa277a7432ba93fb32 OP_EQUALVERIFY OP_CHECKSIG", "type": "pubkeyhash"}, "value": 0.00131199, "n": 64}, {"scriptPubKey": {"reqSigs": 1, "hex": "76a914ede34c2632277856871626e2833b27d680ee2b0e88ac", "addresses": ["1NgqSNM7S3gBkrFcPm3FdFg5fJdyFbziki"], "asm": "OP_DUP OP_HASH160 ede34c2632277856871626e2833b27d680ee2b0e OP_EQUALVERIFY OP_CHECKSIG", "type": "pubkeyhash"}, "value": 0.00129562, "n": 65}, {"scriptPubKey": {"reqSigs": 1, "hex": "76a91430eeece273bc8cb7d99a9f81e351204b88e3e88588ac", "addresses": ["15Tjf2nmfoxa9ZTKwm7r5WKmWE2CUKNPpu"], "asm": "OP_DUP OP_HASH160 30eeece273bc8cb7d99a9f81e351204b88e3e885 OP_EQUALVERIFY OP_CHECKSIG", "type": "pubkeyhash"}, "value": 0.00127521, "n": 66}, {"scriptPubKey": {"reqSigs": 1, "hex": "76a914846a3ebc6a1cc400baab001b086ecbe38a65b2b488ac", "addresses": ["1D59UMmDemZ3Bm4fyZmXjcqG7BuDzLWxh8"], "asm": "OP_DUP OP_HASH160 846a3ebc6a1cc400baab001b086ecbe38a65b2b4 OP_EQUALVERIFY OP_CHECKSIG", "type": "pubkeyhash"}, "value": 0.00128428, "n": 67}, {"scriptPubKey": {"reqSigs": 1, "hex": "76a914d741bef9fe2d57a365c75163cd874416e3f4dcec88ac", "addresses": ["1LdB3Me5Z1eK1B57HgHpuhvsEfNxtDRRvN"], "asm": "OP_DUP OP_HASH160 d741bef9fe2d57a365c75163cd874416e3f4dcec OP_EQUALVERIFY OP_CHECKSIG", "type": "pubkeyhash"}, "value": 0.00127325, "n": 68}, {"scriptPubKey": {"reqSigs": 1, "hex": "76a9146a6de671366893315e1b20425015def79d9849a288ac", "addresses": ["1AhkHLDgUyGmxHPbbaHgkYVDN71CjgSuY4"], "asm": "OP_DUP OP_HASH160 6a6de671366893315e1b20425015def79d9849a2 OP_EQUALVERIFY OP_CHECKSIG", "type": "pubkeyhash"}, "value": 0.00126872, "n": 69}, {"scriptPubKey": {"reqSigs": 1, "hex": "76a914216c8ed79405b70ac8a08140e3fa77f877b6643c88ac", "addresses": ["143jM57RpdT6ZmsRKQS7Wm1Dm2aTyc8ngf"], "asm": "OP_DUP OP_HASH160 216c8ed79405b70ac8a08140e3fa77f877b6643c OP_EQUALVERIFY OP_CHECKSIG", "type": "pubkeyhash"}, "value": 0.00128021, "n": 70}, {"scriptPubKey": {"reqSigs": 1, "hex": "a914b0e942cf5916a3a8d168b0a0e8f328d9ffe4603c87", "addresses": ["3HpSHZb73YBZvcqvPThjjwArToMPQDwqch"], "asm": "OP_HASH160 b0e942cf5916a3a8d168b0a0e8f328d9ffe4603c OP_EQUAL", "type": "scripthash"}, "value": 0.00131336, "n": 71}, {"scriptPubKey": {"reqSigs": 1, "hex": "76a91414a3e29c3a1166a0746722a9514b32d34ed61ff888ac", "addresses": ["12t8qnDqACkdbGeYBCtVUf5sEcWwUs7pH2"], "asm": "OP_DUP OP_HASH160 14a3e29c3a1166a0746722a9514b32d34ed61ff8 OP_EQUALVERIFY OP_CHECKSIG", "type": "pubkeyhash"}, "value": 0.00131402, "n": 72}, {"scriptPubKey": {"reqSigs": 1, "hex": "76a914ef587a1fcdbbbf84f6b3c17a083e96bafc49e64988ac", "addresses": ["1NpYVLkXAPXkM14Ww15om9JExnn62yvY5D"], "asm": "OP_DUP OP_HASH160 ef587a1fcdbbbf84f6b3c17a083e96bafc49e649 OP_EQUALVERIFY OP_CHECKSIG", "type": "pubkeyhash"}, "value": 0.00130358, "n": 73}, {"scriptPubKey": {"reqSigs": 1, "hex": "a91415f15f2ccb18c98bb5b4ce369d78c9afadfee46887", "addresses": ["33h3GNqSxAfLToh58JGSBE8oqugvCHhYHG"], "asm": "OP_HASH160 15f15f2ccb18c98bb5b4ce369d78c9afadfee468 OP_EQUAL", "type": "scripthash"}, "value": 0.00127822, "n": 74}, {"scriptPubKey": {"reqSigs": 1, "hex": "76a9143f07647bb2a698ae0773d65796d41167b22c0b2188ac", "addresses": ["16kGRj7ZXeLqSU6n7CWLhA1UWLXHyb6HVC"], "asm": "OP_DUP OP_HASH160 3f07647bb2a698ae0773d65796d41167b22c0b21 OP_EQUALVERIFY OP_CHECKSIG", "type": "pubkeyhash"}, "value": 0.00127696, "n": 75}, {"scriptPubKey": {"reqSigs": 1, "hex": "76a9140abab076c33e851ba3618aafbf4f9676f262ecc988ac", "addresses": ["1yjQKWWkmYvDU7h8nLXR2r1EQYUNLQezR"], "asm": "OP_DUP OP_HASH160 0abab076c33e851ba3618aafbf4f9676f262ecc9 OP_EQUALVERIFY OP_CHECKSIG", "type": "pubkeyhash"}, "value": 0.00130898, "n": 76}, {"scriptPubKey": {"reqSigs": 1, "hex": "a91497782f2d8ade9ba9d28b03de91607dfbeff8b72787", "addresses": ["3FVuw4VBiPVL4iQ9h7pbXDUzgD9CRtE272"], "asm": "OP_HASH160 97782f2d8ade9ba9d28b03de91607dfbeff8b727 OP_EQUAL", "type": "scripthash"}, "value": 0.0012848, "n": 77}, {"scriptPubKey": {"reqSigs": 1, "hex": "a914e35acc249514e770278dce4e395fe5864077614a87", "addresses": ["3NRA5og1jBPZ38YRo5a9R2XsPJttf4cDgm"], "asm": "OP_HASH160 e35acc249514e770278dce4e395fe5864077614a OP_EQUAL", "type": "scripthash"}, "value": 0.00128532, "n": 78}, {"scriptPubKey": {"reqSigs": 1, "hex": "a914ffff9e561c4cdd64d948cc84dde3152c147d4a2e87", "addresses": ["3R2cT9PEWTe7R12cprdhgU3u53NQAHke7T"], "asm": "OP_HASH160 ffff9e561c4cdd64d948cc84dde3152c147d4a2e OP_EQUAL", "type": "scripthash"}, "value": 0.00128142, "n": 79}, {"scriptPubKey": {"reqSigs": 1, "hex": "76a914789ae0d2ef3a4fde7f4dcb87fc5429962af4aa2e88ac", "addresses": ["1Bzhd9XHds9fEqXbpdWcmVh9apiNafrTeN"], "asm": "OP_DUP OP_HASH160 789ae0d2ef3a4fde7f4dcb87fc5429962af4aa2e OP_EQUALVERIFY OP_CHECKSIG", "type": "pubkeyhash"}, "value": 0.001312, "n": 80}, {"scriptPubKey": {"reqSigs": 1, "hex": "a9146d9cb8af0bdc45cbc989418709d9fc5ac9190d5f87", "addresses": ["3BgbKeZovfmxDfZk9fpt7xcZQLDGHXVnxT"], "asm": "OP_HASH160 6d9cb8af0bdc45cbc989418709d9fc5ac9190d5f OP_EQUAL", "type": "scripthash"}, "value": 0.0013113, "n": 81}, {"scriptPubKey": {"reqSigs": 1, "hex": "76a914955b0f148a3b8f3f5367cc0547185dc61349991d88ac", "addresses": ["1EcimU4Nfcj1NnzoTWD8SMhtNYdj5LDiyC"], "asm": "OP_DUP OP_HASH160 955b0f148a3b8f3f5367cc0547185dc61349991d OP_EQUALVERIFY OP_CHECKSIG", "type": "pubkeyhash"}, "value": 0.00130187, "n": 82}, {"scriptPubKey": {"reqSigs": 1, "hex": "76a91403a9f1312b551a3efadd63461f50b0a478f68fe288ac", "addresses": ["1LNcN5v7ZfjmHdXc64kpcJQgLnTDePi5S"], "asm": "OP_DUP OP_HASH160 03a9f1312b551a3efadd63461f50b0a478f68fe2 OP_EQUALVERIFY OP_CHECKSIG", "type": "pubkeyhash"}, "value": 0.00128612, "n": 83}, {"scriptPubKey": {"reqSigs": 1, "hex": "76a9144a3fab2a265a4b9590ac1a36e1a9ca2698a9036788ac", "addresses": ["17mbGy9tffPAJyr4X1DBHYBPQ17AqoyDFm"], "asm": "OP_DUP OP_HASH160 4a3fab2a265a4b9590ac1a36e1a9ca2698a90367 OP_EQUALVERIFY OP_CHECKSIG", "type": "pubkeyhash"}, "value": 0.00126827, "n": 84}, {"scriptPubKey": {"reqSigs": 1, "hex": "76a91429d7a74585e6364f37aad87299e9e2dc31491bed88ac", "addresses": ["14pF3j8DTzEn48AYuZPTJ14HL3qHyVXiyX"], "asm": "OP_DUP OP_HASH160 29d7a74585e6364f37aad87299e9e2dc31491bed OP_EQUALVERIFY OP_CHECKSIG", "type": "pubkeyhash"}, "value": 0.0012821, "n": 85}, {"scriptPubKey": {"reqSigs": 1, "hex": "76a91457a4d65367544604ac4edd0742e101821db03caf88ac", "addresses": ["18zRFnCswh4hZt1jiAbYknjd2RC1iHpK5e"], "asm": "OP_DUP OP_HASH160 57a4d65367544604ac4edd0742e101821db03caf OP_EQUALVERIFY OP_CHECKSIG", "type": "pubkeyhash"}, "value": 0.0012907, "n": 86}, {"scriptPubKey": {"reqSigs": 1, "hex": "76a914482c3ab26e67358816ea7effd7d712aca713672b88ac", "addresses": ["17acdv9m6ba6YR3tLqVsn2K5dyvHrhShBt"], "asm": "OP_DUP OP_HASH160 482c3ab26e67358816ea7effd7d712aca713672b OP_EQUALVERIFY OP_CHECKSIG", "type": "pubkeyhash"}, "value": 0.00129664, "n": 87}, {"scriptPubKey": {"reqSigs": 1, "hex": "76a914bdca717daa956054d230cafc5e703fc0a855d7dc88ac", "addresses": ["1JJXEGMNukPQCBYanzeXQCTzsc6QoPBnKd"], "asm": "OP_DUP OP_HASH160 bdca717daa956054d230cafc5e703fc0a855d7dc OP_EQUALVERIFY OP_CHECKSIG", "type": "pubkeyhash"}, "value": 0.00128501, "n": 88}, {"scriptPubKey": {"reqSigs": 1, "hex": "a914a13f3c6d5db12f419827f839f55d5756f320d34a87", "addresses": ["3GPcU9QjCoQQcyDaHR4N2fapSjPfRJNC9H"], "asm": "OP_HASH160 a13f3c6d5db12f419827f839f55d5756f320d34a OP_EQUAL", "type": "scripthash"}, "value": 0.00130797, "n": 89}, {"scriptPubKey": {"reqSigs": 1, "hex": "76a91473c0789826aa63984b27b5f61b20b4dbec3d818988ac", "addresses": ["1BZ3HBjMCgUZv3fGdWd1X585V4NgnsFXSm"], "asm": "OP_DUP OP_HASH160 73c0789826aa63984b27b5f61b20b4dbec3d8189 OP_EQUALVERIFY OP_CHECKSIG", "type": "pubkeyhash"}, "value": 0.00128626, "n": 90}, {"scriptPubKey": {"reqSigs": 1, "hex": "76a9143b4b183b05ebd7611a661347f0fbb73825545c1888ac", "addresses": ["16QWpzBCoy8zPM2dtPZbEkt6wUxbRRGdPp"], "asm": "OP_DUP OP_HASH160 3b4b183b05ebd7611a661347f0fbb73825545c18 OP_EQUALVERIFY OP_CHECKSIG", "type": "pubkeyhash"}, "value": 0.00131363, "n": 91}, {"scriptPubKey": {"reqSigs": 1, "hex": "76a914f415d002fc97c64241fa547da5e28b06a86effba88ac", "addresses": ["1PFc1NPqhmMP2frqgjyBMYxMnK8GjeJiXX"], "asm": "OP_DUP OP_HASH160 f415d002fc97c64241fa547da5e28b06a86effba OP_EQUALVERIFY OP_CHECKSIG", "type": "pubkeyhash"}, "value": 0.00128933, "n": 92}, {"scriptPubKey": {"reqSigs": 1, "hex": "a9143c6f6c6e8eaabb9a4b85130de73d1744213e21c987", "addresses": ["37CZwu4S1ExYV8bBbvP271cqfJxHYcoW1u"], "asm": "OP_HASH160 3c6f6c6e8eaabb9a4b85130de73d1744213e21c9 OP_EQUAL", "type": "scripthash"}, "value": 0.00126871, "n": 93}, {"scriptPubKey": {"reqSigs": 1, "hex": "76a914c28597c884d54f942cef61887dccf03b31891f0588ac", "addresses": ["1JjY8QwXHTGnd4nKK69Jx8BPRPNYuvcy6d"], "asm": "OP_DUP OP_HASH160 c28597c884d54f942cef61887dccf03b31891f05 OP_EQUALVERIFY OP_CHECKSIG", "type": "pubkeyhash"}, "value": 0.00128052, "n": 94}, {"scriptPubKey": {"reqSigs": 1, "hex": "76a9144264b005e42f31a487670dd920d970f86dc0b14488ac", "addresses": ["1744DZKRPJxdCtzwoybam4UyC6uRqst8do"], "asm": "OP_DUP OP_HASH160 4264b005e42f31a487670dd920d970f86dc0b144 OP_EQUALVERIFY OP_CHECKSIG", "type": "pubkeyhash"}, "value": 0.00126681, "n": 95}, {"scriptPubKey": {"reqSigs": 1, "hex": "76a914ac7da198e00e70834bf8c8a2a0c80042f22c847d88ac", "addresses": ["1Gj3j1NLigNWE37PMPNVzy4pgP14EMFVBD"], "asm": "OP_DUP OP_HASH160 ac7da198e00e70834bf8c8a2a0c80042f22c847d OP_EQUALVERIFY OP_CHECKSIG", "type": "pubkeyhash"}, "value": 0.00126678, "n": 96}, {"scriptPubKey": {"reqSigs": 1, "hex": "76a914083aa9d5605e130a5a557c8576acd8779136976188ac", "addresses": ["1kWgYKUUbEzF4bQANAWHFk9ZdHLDQpYCM"], "asm": "OP_DUP OP_HASH160 083aa9d5605e130a5a557c8576acd87791369761 OP_EQUALVERIFY OP_CHECKSIG", "type": "pubkeyhash"}, "value": 0.00131353, "n": 97}, {"scriptPubKey": {"reqSigs": 1, "hex": "a9142fe4e56b0b9f2f8fbfe498de7151623a07575fbd87", "addresses": ["364FtYWfaCacqF7BgPgZGj4mWNCgJfW6xa"], "asm": "OP_HASH160 2fe4e56b0b9f2f8fbfe498de7151623a07575fbd OP_EQUAL", "type": "scripthash"}, "value": 0.00130237, "n": 98}, {"scriptPubKey": {"reqSigs": 1, "hex": "a914809fe80c9afb227edce71261727c9e2a20d4967587", "addresses": ["3DR7ybKE7jwwfzj2NtQ6ujuRkF3xQDZz72"], "asm": "OP_HASH160 809fe80c9afb227edce71261727c9e2a20d49675 OP_EQUAL", "type": "scripthash"}, "value": 0.00127321, "n": 99}, {"scriptPubKey": {"reqSigs": 1, "hex": "76a9147e23cad919ef2d0930e955aac2af781c8c2f2a1e88ac", "addresses": ["1CVy24yJQu8JP1327eUBbkHW85BG57Zv34"], "asm": "OP_DUP OP_HASH160 7e23cad919ef2d0930e955aac2af781c8c2f2a1e OP_EQUALVERIFY OP_CHECKSIG", "type": "pubkeyhash"}, "value": 0.00131367, "n": 100}], "hex": "02000000015f06b88e6acd92174c2dbe9bc2005a94b50af54816d831c057b0a4a288017696070000006a47304402204bb681a95320906d2f135249846c8120438b224ff309888da0e49d169613965f02200faf3ee4f6e2d925a31a2ebae78da628d3c3affd3a9edfd4d58569e60ec7bfd701210374bdaff34d2dac448717395eb8e5ffebe4968a5f0dbb27d3da61a895cffedf83feffffff65beee01000000000017a9140723a1d75d5322da1c264567ec89bddca6d5792087e7ef0100000000001976a9141948615c62d3cad4501de60ede3e0cc6ca4365c288ac4afb0100000000001976a9140480481493419f7cb4a6912bd8d4bfd47986e41088acd2ef0100000000001976a91406e8a70602f4e4ff316d01f50bc4a5aaa74fc9da88acabf70100000000001976a914c8139738c1cecefc9e722e3a291f7d5bcdfeacac88ac84f20100000000001976a9146b992d05eb2d6f1b126f72831c0f9440f91c892c88ac71f60100000000001976a9142505825d0f4f7feb8811423b378464cf06179b0c88acc8000200000000001976a914158efc9a8810a115bd0ea40cdc8d1de2b95d90c088ac0bf40100000000001976a91464eb562ade4485c1d4e9ed74af036fa021c3dde788ac64fd0100000000001976a914cb2846cbbde02ecc5be0118f67e423b5cf34999d88aca8f00100000000001976a914de7473eb9f57fbdd7d00679e525079823c7bb2eb88ace2f60100000000001976a914f58e2d53add82dcb3732403b79d625371aff9f4488ac6af40100000000001976a914b40fa488d3ebf886fb1b6aecadcd22a9e004930688ac19fd0100000000001976a91483e63d3a92244064adec659675ab99a5d08a737188acaaf70100000000001976a9141742675d2570712b45dbeed9f95453e134136de488ac6fef0100000000001976a91406c9041dbb876fc6b17f7f58c7f199184c0d676288ac05f70100000000001976a914c35a0d47294ed3e2bd68a787210f8650a609b61b88ac4d1e02000000000017a9142039c82a0ccc04b4514a6b0361f73af499b681c78771f301000000000017a914157bcf58d98934c17928aeeb67a9df2308bfd3c687cff60100000000001976a914d49fdca2326fab4b8a7d812307eecbbdeb96f91e88acb8f60100000000001976a914af6241f51b5d1a5810876e692dece6fd251d0f2388ac78f401000000000017a91480a240085c40a2bdc537651df20d9e77b11ea7e487caf50100000000001976a914fd9e663c8f1bce82cc750daeadf1de80e3600c5088ac17f30100000000001976a9142e779bf374b6410f802715475bf84e198152c0cb88ac4bfe0100000000001976a91437e7b746a54e5d6a2fe2260184938fe493cf844588acdeff01000000000017a91474c8fbfede62ea73f9875074d09d815fe2c2c3988778f30100000000001976a91456184bf8204cac250d38ada42cfc638b46035afc88ac61fb0100000000001976a914279ebf044e286df27025bbbb51e93b1fd50b96ea88ac86f001000000000017a914710ad3ad9bc62c96709cf8fdf286af3c57c1a2a8879ef60100000000001976a9144a48883d0eca1c656263e979679c9eff052a71e188ac0dfe0100000000001976a9148a1360dde0b47de5c9cb14dbd37a9b160e4587f688ac3bfd0100000000001976a9143e2c7529eff794c5d9fa739d0d53ed92665ab5dc88acedf40100000000001976a914f9e5a3b8dd1405521ae409cf0f3ca99f3cb80d8a88ac99fb0100000000001976a914fe344422f70311fe7bc9044f1a60015a4bffb76a88ac3ffd0100000000001976a914d824d68bbd11020e1657ba9f39fb102388230a6688acddf201000000000017a9140f04afd9b89b08e67208549cf4a7283fb3ab763b87cdf40100000000001976a9140764a6894d8b68c8f5ec3742bd96df543ee6a6ec88ac54010200000000001976a914a0ae2a54689a0989c8746cca6cde1013f2e4703688acd8fe0100000000001976a914598cfbb2773723ac53b35def828b79478ef9000a88acb0f301000000000017a914320c289df5c2e19b157aa97995a90485ea0b0aff8719fb0100000000001976a9145eeb58e38cdc92c1e2134ba2eced2c059952308688ac40000200000000001976a914c66be3c4da8ef5d29cc300234c5efdbe9e5c651b88ac79f801000000000017a9145866212391b45e4ec0a648683b221824f6a36f2587ec7f49fc000000001976a914aab5eec586c09d6aa9acd124b77b670d00646b0388ac1bf90100000000001976a91470e25e38804011d29afa9f91c3063a9c2986730e88acddfc01000000000017a914de4f72961458a08be917ab2223813ddc9f0d4f168727f50100000000001976a914e8e1ad22fa5b1be04ced9dd7ef4223b5f7f897a588aca1fc0100000000001976a914e443dcf0c88c3a7cd0329386f28c5a757feb88f488accbef0100000000001976a9144cb66c0aeda5fae4327eff08b3a4331291edb4da88acf4ff01000000000017a9146dde9bcd14ca3a9978b8ce3e2c01c13392f4c93787ec0002000000000017a9148e90d823a624b2f6211d69864ef48ced211331ee87d6f60100000000001976a9141d5ef5d4d3c2394921cbe24f63ab0f5408ba980288ac67f50100000000001976a9143c64db0ae91af9239e607ded3305c3700f6b3de988ac53ff0100000000001976a9141c2d3a81b7e44eeecc95af4811e64c55985a777288ac6af20100000000001976a91406bd373da3c9f051b1b13afe157877c7cb1efb0f88ac52f901000000000017a91490b134a2fc6896c869d7f8484f47784b35f36a07870cf60100000000001976a914b9c852e3d7e1544d75bc3b0b95e6e86e3ed1d31188ac68f10100000000001976a914f6f1efc5caf0d86ec6cf6a3432f12bc0cf36892788aca0fd0100000000001976a9148db09bb295331def74dcede773ed4efb5b98e94b88ac87f50100000000001976a914b4b59406f5a27fe282456bdc72e0fba4d967e7ef88ac9bf20100000000001976a9149d822235a051d02c236e612154bca811f946963b88ac73ff0100000000001976a91427d10c70b30f43f29097cb25b19c9cdf22a0216c88acc6f50100000000001976a9141e65aa875d020839e945b94062fad1de97b91e8a88acc6ee0100000000001976a91440fe59d59bcb8e78a56c513e3a3dd93dd0f9068288ac7f000200000000001976a9142f785a634e22b5888becf5fa277a7432ba93fb3288ac1afa0100000000001976a914ede34c2632277856871626e2833b27d680ee2b0e88ac21f20100000000001976a91430eeece273bc8cb7d99a9f81e351204b88e3e88588acacf50100000000001976a914846a3ebc6a1cc400baab001b086ecbe38a65b2b488ac5df10100000000001976a914d741bef9fe2d57a365c75163cd874416e3f4dcec88ac98ef0100000000001976a9146a6de671366893315e1b20425015def79d9849a288ac15f40100000000001976a914216c8ed79405b70ac8a08140e3fa77f877b6643c88ac080102000000000017a914b0e942cf5916a3a8d168b0a0e8f328d9ffe4603c874a010200000000001976a91414a3e29c3a1166a0746722a9514b32d34ed61ff888ac36fd0100000000001976a914ef587a1fcdbbbf84f6b3c17a083e96bafc49e64988ac4ef301000000000017a91415f15f2ccb18c98bb5b4ce369d78c9afadfee46887d0f20100000000001976a9143f07647bb2a698ae0773d65796d41167b22c0b2188ac52ff0100000000001976a9140abab076c33e851ba3618aafbf4f9676f262ecc988ace0f501000000000017a91497782f2d8ade9ba9d28b03de91607dfbeff8b7278714f601000000000017a914e35acc249514e770278dce4e395fe5864077614a878ef401000000000017a914ffff9e561c4cdd64d948cc84dde3152c147d4a2e8780000200000000001976a914789ae0d2ef3a4fde7f4dcb87fc5429962af4aa2e88ac3a0002000000000017a9146d9cb8af0bdc45cbc989418709d9fc5ac9190d5f878bfc0100000000001976a914955b0f148a3b8f3f5367cc0547185dc61349991d88ac64f60100000000001976a91403a9f1312b551a3efadd63461f50b0a478f68fe288ac6bef0100000000001976a9144a3fab2a265a4b9590ac1a36e1a9ca2698a9036788acd2f40100000000001976a91429d7a74585e6364f37aad87299e9e2dc31491bed88ac2ef80100000000001976a91457a4d65367544604ac4edd0742e101821db03caf88ac80fa0100000000001976a914482c3ab26e67358816ea7effd7d712aca713672b88acf5f50100000000001976a914bdca717daa956054d230cafc5e703fc0a855d7dc88acedfe01000000000017a914a13f3c6d5db12f419827f839f55d5756f320d34a8772f60100000000001976a91473c0789826aa63984b27b5f61b20b4dbec3d818988ac23010200000000001976a9143b4b183b05ebd7611a661347f0fbb73825545c1888aca5f70100000000001976a914f415d002fc97c64241fa547da5e28b06a86effba88ac97ef01000000000017a9143c6f6c6e8eaabb9a4b85130de73d1744213e21c98734f40100000000001976a914c28597c884d54f942cef61887dccf03b31891f0588acd9ee0100000000001976a9144264b005e42f31a487670dd920d970f86dc0b14488acd6ee0100000000001976a914ac7da198e00e70834bf8c8a2a0c80042f22c847d88ac19010200000000001976a914083aa9d5605e130a5a557c8576acd8779136976188acbdfc01000000000017a9142fe4e56b0b9f2f8fbfe498de7151623a07575fbd8759f101000000000017a914809fe80c9afb227edce71261727c9e2a20d496758727010200000000001976a9147e23cad919ef2d0930e955aac2af781c8c2f2a1e88ac0f490800", "vin": [{"sequence": 4294967294, "scriptSig": {"hex": "47304402204bb681a95320906d2f135249846c8120438b224ff309888da0e49d169613965f02200faf3ee4f6e2d925a31a2ebae78da628d3c3affd3a9edfd4d58569e60ec7bfd701210374bdaff34d2dac448717395eb8e5ffebe4968a5f0dbb27d3da61a895cffedf83", "asm": "304402204bb681a95320906d2f135249846c8120438b224ff309888da0e49d169613965f02200faf3ee4f6e2d925a31a2ebae78da628d3c3affd3a9edfd4d58569e60ec7bfd7[ALL] 0374bdaff34d2dac448717395eb8e5ffebe4968a5f0dbb27d3da61a895cffedf83"}, "vout": 7, "txid": "96760188a2a4b057c031d81648f50ab5945a00c29bbe2d4c1792cd6a8eb8065f"}], "txid": "25284a43151ee834c06a442659b24ff0baa34d10acbdb105e6df3ba453d01910", "blocktime": 1537871767, "version": 2, "confirmations": 11495, "time": 1537871767, "locktime": 542991, "vsize": 3545, "size": 3545}