{"hash": "d9fc5670d0d3dbc55ccbcc5cd9b6c1b255f1eae2d51e6538f39dcea400b80b07", "blockhash": "0000000000000000000e13cef7c366c0283d82e591d1acd082e914b08063cdf1", "vout": [{"scriptPubKey": {"reqSigs": 1, "hex": "76a91455d13ffb6f0c09d368050a55ccc71422142b98ca88ac", "addresses": ["18pm7FFJEziBkTsRVKgUfKBsJzjbPPCxpH"], "asm": "OP_DUP OP_HASH160 55d13ffb6f0c09d368050a55ccc71422142b98ca OP_EQUALVERIFY OP_CHECKSIG", "type": "pubkeyhash"}, "value": 0.17, "n": 0}], "hex": "0200000000010315f8aa18736d2b2dd18e10a847eea0a5f597e0083a381c2ff13fc41fe25678a4010000001716001489d3a757ea3b6d1e1d58f51953da21c7d907e0eafeffffff3f360f9b7d95c777cacff271c71efe21feb8b25c42b66b3f193ca687926d7bf6010000001716001417113ecebbcdbc4abb599c196e0e469bd83da6b8feffffff3f77269c2143534a16b152fdb8a7a0e43f9809a04a7c9733b791dca741b987f60000000017160014ad5bb65aa3bd388e39f739718050431b705ecca8feffffff0140660301000000001976a91455d13ffb6f0c09d368050a55ccc71422142b98ca88ac024730440220063351adce7d3435625b6b7e3e2125320348286b41271e9b6e38cbef5b58db240220301498c485d540d4b5ab7d996ecb944d009182b6eaae8d5eda3f1943e576e8bb01210257b4bff2a4fd442e3123175a2e73858deeeb7badfe37dfcbe998688b12ec56cd0247304402205eadff74b99d02505ee29f6fab8eb9282fa4542a3f94b8448b3b7985a678dfbb02206351b2c67454b7561d9393bf0cbd1281533a8429855dbf6c2504d157a55f20b6012102d815cfc724ae6860f2058207df1f3662c7ab9ae69603319096a895a21854dc6c02483045022100e71b4d1893f01f5f4c5227645b58e61e5b3b3a0dd0be449a6fdec68d79c78555022078ed33060d0858fb5c80636567508b17b3fb737dbb8ede64ba68e118a8110b4e012102a8bdb8c0df1121e2710aeb6c8e3c025e471c0e29712c0d5e791d30c852ab4662f9480800", "vin": [{"txinwitness": ["30440220063351adce7d3435625b6b7e3e2125320348286b41271e9b6e38cbef5b58db240220301498c485d540d4b5ab7d996ecb944d009182b6eaae8d5eda3f1943e576e8bb01", "0257b4bff2a4fd442e3123175a2e73858deeeb7badfe37dfcbe998688b12ec56cd"], "sequence": 4294967294, "scriptSig": {"hex": "16001489d3a757ea3b6d1e1d58f51953da21c7d907e0ea", "asm": "001489d3a757ea3b6d1e1d58f51953da21c7d907e0ea"}, "vout": 1, "txid": "a47856e21fc43ff12f1c383a08e097f5a5a0ee47a8108ed12d2b6d7318aaf815"}, {"txinwitness": ["304402205eadff74b99d02505ee29f6fab8eb9282fa4542a3f94b8448b3b7985a678dfbb02206351b2c67454b7561d9393bf0cbd1281533a8429855dbf6c2504d157a55f20b601", "02d815cfc724ae6860f2058207df1f3662c7ab9ae69603319096a895a21854dc6c"], "sequence": 4294967294, "scriptSig": {"hex": "16001417113ecebbcdbc4abb599c196e0e469bd83da6b8", "asm": "001417113ecebbcdbc4abb599c196e0e469bd83da6b8"}, "vout": 1, "txid": "f67b6d9287a63c193f6bb6425cb2b8fe21fe1ec771f2cfca77c7957d9b0f363f"}, {"txinwitness": ["3045022100e71b4d1893f01f5f4c5227645b58e61e5b3b3a0dd0be449a6fdec68d79c78555022078ed33060d0858fb5c80636567508b17b3fb737dbb8ede64ba68e118a8110b4e01", "02a8bdb8c0df1121e2710aeb6c8e3c025e471c0e29712c0d5e791d30c852ab4662"], "sequence": 4294967294, "scriptSig": {"hex": "160014ad5bb65aa3bd388e39f739718050431b705ecca8", "asm": "0014ad5bb65aa3bd388e39f739718050431b705ecca8"}, "vout": 0, "txid": "f687b941a7dc91b733977c4aa009983fe4a0a7b8fd52b1164a5343219c26773f"}], "txid": "252abcbdf2fa365309f4c26dbc7c51f60e51e52ea605ba41d4f62b2f61e5bafd", "blocktime": 1537871767, "version": 2, "confirmations": 11491, "time": 1537871767, "locktime": 542969, "vsize": 317, "size": 560}