{"hash": "2532a533f00727dc14bba03a983ac1715179e8f889134e76bac39f580806fde1", "blockhash": "0000000000000000001e0dab787dd257d1dbfcb92a98c2207d5e1078be1f4165", "vout": [{"scriptPubKey": {"reqSigs": 1, "hex": "a9143c261800363af36fbbfe63645df4990bd3102a0887", "addresses": ["37B46rUxYaFW5aLg3AfYkJDhRLweuSL6sb"], "asm": "OP_HASH160 3c261800363af36fbbfe63645df4990bd3102a08 OP_EQUAL", "type": "scripthash"}, "value": 0.01375391, "n": 0}, {"scriptPubKey": {"reqSigs": 1, "hex": "76a914ccefe64c10346fdf3d8cedf34b9f56b20fdec73f88ac", "addresses": ["1KgcEegbncvuiy2Tf7FaW4vFQk3hWkaNPA"], "asm": "OP_DUP OP_HASH160 ccefe64c10346fdf3d8cedf34b9f56b20fdec73f OP_EQUALVERIFY OP_CHECKSIG", "type": "pubkeyhash"}, "value": 2.17329005, "n": 1}], "hex": "0100000001ff8a2ca20ac8513b2dddd8546083dab97e4e7e9bdd4e2041ab2524a703e0ef26010000006a473044022067cd6f875f121d29db7bd3ab9ff2cca198f5bd713bb1d439bc55752dae391a7b022032c0fcc0a1ceafe8dad44f953527f309bfd87dfc2c21dd838883e339c80343250121031c2f8af0ec43dee2dad680e62aded27656550119c44eeb88617b2ea0282039ddffffffff029ffc14000000000017a9143c261800363af36fbbfe63645df4990bd3102a08876d2df40c000000001976a914ccefe64c10346fdf3d8cedf34b9f56b20fdec73f88ac00000000", "vin": [{"sequence": 4294967295, "scriptSig": {"hex": "473044022067cd6f875f121d29db7bd3ab9ff2cca198f5bd713bb1d439bc55752dae391a7b022032c0fcc0a1ceafe8dad44f953527f309bfd87dfc2c21dd838883e339c80343250121031c2f8af0ec43dee2dad680e62aded27656550119c44eeb88617b2ea0282039dd", "asm": "3044022067cd6f875f121d29db7bd3ab9ff2cca198f5bd713bb1d439bc55752dae391a7b022032c0fcc0a1ceafe8dad44f953527f309bfd87dfc2c21dd838883e339c8034325[ALL] 031c2f8af0ec43dee2dad680e62aded27656550119c44eeb88617b2ea0282039dd"}, "vout": 1, "txid": "26efe003a72425ab41204edd9b7e4e7eb9da836054d8dd2d3b51c80aa22c8aff"}], "txid": "2532a533f00727dc14bba03a983ac1715179e8f889134e76bac39f580806fde1", "blocktime": 1537872475, "version": 1, "confirmations": 11487, "time": 1537872475, "locktime": 0, "vsize": 223, "size": 223}