{"hash": "2534c0f8b78013c95b155f0acfec6bc8819c11c1bd82e7c6fcde1d6b4261e9e6", "blockhash": "0000000000000000000e13cef7c366c0283d82e591d1acd082e914b08063cdf1", "vout": [{"scriptPubKey": {"reqSigs": 1, "hex": "a9146111b6564610ae77324282645e4b36a33de805f887", "addresses": ["3AYGgpXgg1iC2crrDmFXgPPNa92i2KRiGu"], "asm": "OP_HASH160 6111b6564610ae77324282645e4b36a33de805f8 OP_EQUAL", "type": "scripthash"}, "value": 0.00552, "n": 0}, {"scriptPubKey": {"reqSigs": 1, "hex": "76a9142e9a433fa99d93cf2e43a9747b9d7952763b163788ac", "addresses": ["15FQtBfMy9GFBucCxgDhNCHA2pADVPCYV3"], "asm": "OP_DUP OP_HASH160 2e9a433fa99d93cf2e43a9747b9d7952763b1637 OP_EQUALVERIFY OP_CHECKSIG", "type": "pubkeyhash"}, "value": 0.643201, "n": 1}], "hex": "0100000001c1462c4bf398101f4f7b02c7d9bb0496a821b1d6ed7b760536bdfdabff2b51af010000006a47304402207310f5318c2b1ef40933945637a12068cc7f02baaf5ff9a5b38b141203dd55d3022064aa969f0872bfeff1cda5d92976a49718cdea14d8842de30cf34986be9dc628012102165872fcfd57d153b8cf3d946126daa6f0ed4f3a4bda5970a3a4858b02fea7d4feffffff02406c08000000000017a9146111b6564610ae77324282645e4b36a33de805f8876472d503000000001976a9142e9a433fa99d93cf2e43a9747b9d7952763b163788ac10490800", "vin": [{"sequence": 4294967294, "scriptSig": {"hex": "47304402207310f5318c2b1ef40933945637a12068cc7f02baaf5ff9a5b38b141203dd55d3022064aa969f0872bfeff1cda5d92976a49718cdea14d8842de30cf34986be9dc628012102165872fcfd57d153b8cf3d946126daa6f0ed4f3a4bda5970a3a4858b02fea7d4", "asm": "304402207310f5318c2b1ef40933945637a12068cc7f02baaf5ff9a5b38b141203dd55d3022064aa969f0872bfeff1cda5d92976a49718cdea14d8842de30cf34986be9dc628[ALL] 02165872fcfd57d153b8cf3d946126daa6f0ed4f3a4bda5970a3a4858b02fea7d4"}, "vout": 1, "txid": "af512bffabfdbd3605767bedd6b121a89604bbd9c7027b4f1f1098f34b2c46c1"}], "txid": "2534c0f8b78013c95b155f0acfec6bc8819c11c1bd82e7c6fcde1d6b4261e9e6", "blocktime": 1537871767, "version": 1, "confirmations": 11493, "time": 1537871767, "locktime": 542992, "vsize": 223, "size": 223}