{"hash": "c61c7d84fb4a3d0e8bfe5404a1ae0297427f4df1c63744108175ebd32bba023f", "blockhash": "00000000000000000017f5eb5941039fbcee6240d03bc1f2f8e35350df66a1d8", "vout": [{"scriptPubKey": {"reqSigs": 1, "hex": "76a914ed8151bf5c944438fde924bc6dd6649dcd9fdb2188ac", "addresses": ["1Nep4jEP9QBB3duyS6TLDje5sMAtGsm1vS"], "asm": "OP_DUP OP_HASH160 ed8151bf5c944438fde924bc6dd6649dcd9fdb21 OP_EQUALVERIFY OP_CHECKSIG", "type": "pubkeyhash"}, "value": 0.00968901, "n": 0}, {"scriptPubKey": {"reqSigs": 1, "hex": "a914cfaabfe8c271f99a4364b5197ba50c6cddb7adb987", "addresses": ["3Ld4M9RPwEG3VeQbHcC1PsKUndQL7VYLZP"], "asm": "OP_HASH160 cfaabfe8c271f99a4364b5197ba50c6cddb7adb9 OP_EQUAL", "type": "scripthash"}, "value": 0.00100555, "n": 1}], "hex": "010000000001012cb8cda5f84a7ed1d6f57d1ec199659b6724e5ae1fd9cc03852221158b5d62a101000000232200202f7b4024602241b47d3306a6733d9889e4b6761d9f1cb82a18aa8b9ac4506e51ffffffff02c5c80e00000000001976a914ed8151bf5c944438fde924bc6dd6649dcd9fdb2188accb8801000000000017a914cfaabfe8c271f99a4364b5197ba50c6cddb7adb9870400483045022100a94653a6b6196fdc30d45bb14f929266d56d05f2a24dd1bf2b5cae69718b6d9b0220357394952d2924c7ffc8bbb0ffff440c6df93468f8012b1cd95bcd55179a454f01483045022100e25d58b42e6b1ebc8f0f36fb94667a0ca3773c2a628dda393e09d0ce7788845202204b3c1d9ae0ad72fd2c2dc78161d37af820802cde273b19e73e3db5cf7dd50fda0147522102973cd851fecff3a20f08377b072729f303801eee1b7678668338adcaec770ec221033e4af03ed09dbd8a417ba042650d5bd1db7f14f271a8f660974e3abf1fdfa4da52ae00000000", "vin": [{"txinwitness": ["", "3045022100a94653a6b6196fdc30d45bb14f929266d56d05f2a24dd1bf2b5cae69718b6d9b0220357394952d2924c7ffc8bbb0ffff440c6df93468f8012b1cd95bcd55179a454f01", "3045022100e25d58b42e6b1ebc8f0f36fb94667a0ca3773c2a628dda393e09d0ce7788845202204b3c1d9ae0ad72fd2c2dc78161d37af820802cde273b19e73e3db5cf7dd50fda01", "522102973cd851fecff3a20f08377b072729f303801eee1b7678668338adcaec770ec221033e4af03ed09dbd8a417ba042650d5bd1db7f14f271a8f660974e3abf1fdfa4da52ae"], "sequence": 4294967295, "scriptSig": {"hex": "2200202f7b4024602241b47d3306a6733d9889e4b6761d9f1cb82a18aa8b9ac4506e51", "asm": "00202f7b4024602241b47d3306a6733d9889e4b6761d9f1cb82a18aa8b9ac4506e51"}, "vout": 1, "txid": "a1625d8b1521228503ccd91faee524679b6599c11e7df5d6d17e4af8a5cdb82c"}], "txid": "2536b0ced0f01d691c4172aacae8e28a845f81159dde65748ffa474b232ce7c3", "blocktime": 1537874412, "version": 1, "confirmations": 11468, "time": 1537874412, "locktime": 0, "vsize": 208, "size": 374}