{"hash": "2538fd23968c47b5c15602f37baa3a827a88d3cf6ec0c9e29004136df6122791", "blockhash": "0000000000000000000e13cef7c366c0283d82e591d1acd082e914b08063cdf1", "vout": [{"scriptPubKey": {"reqSigs": 1, "hex": "76a91439afae001e8e969886a8add9ca26f6fac6cc69f388ac", "addresses": ["16G1yNeFL3UrANDcon4iVn8ZvNQ3MQcgKp"], "asm": "OP_DUP OP_HASH160 39afae001e8e969886a8add9ca26f6fac6cc69f3 OP_EQUALVERIFY OP_CHECKSIG", "type": "pubkeyhash"}, "value": 0.00239193, "n": 0}, {"scriptPubKey": {"type": "nulldata", "hex": "6a360a96d9bde596cdcf1e25e05885e26d69f2b960ec51622a223ae520ecccd0d73d54026c5e0a42d285df2e47d6c48555ff0c316bcaa5a0", "asm": "OP_RETURN 0a96d9bde596cdcf1e25e05885e26d69f2b960ec51622a223ae520ecccd0d73d54026c5e0a42d285df2e47d6c48555ff0c316bcaa5a0"}, "value": 0.0, "n": 1}], "hex": "0100000001c518705d6cbc187866b49e396337e52e85ac71c0e56c3b060bb10f0f7754658b000000006a47304402203f913f67cc29005d0a23cb72eb85f5e61effa468453822aa6876ece4ca205b4202203dd8dbd7edfa05e7215e2b8475017bc8cf695c4015cadd8befdb867e377b79f1012102e86e640653077993e7cf83d989e16b3b35132a979ae5438e6a384a75cbeaf122fdffffff0259a60300000000001976a91439afae001e8e969886a8add9ca26f6fac6cc69f388ac0000000000000000386a360a96d9bde596cdcf1e25e05885e26d69f2b960ec51622a223ae520ecccd0d73d54026c5e0a42d285df2e47d6c48555ff0c316bcaa5a000000000", "vin": [{"sequence": 4294967293, "scriptSig": {"hex": "47304402203f913f67cc29005d0a23cb72eb85f5e61effa468453822aa6876ece4ca205b4202203dd8dbd7edfa05e7215e2b8475017bc8cf695c4015cadd8befdb867e377b79f1012102e86e640653077993e7cf83d989e16b3b35132a979ae5438e6a384a75cbeaf122", "asm": "304402203f913f67cc29005d0a23cb72eb85f5e61effa468453822aa6876ece4ca205b4202203dd8dbd7edfa05e7215e2b8475017bc8cf695c4015cadd8befdb867e377b79f1[ALL] 02e86e640653077993e7cf83d989e16b3b35132a979ae5438e6a384a75cbeaf122"}, "vout": 0, "txid": "8b6554770f0fb10b063b6ce5c071ac852ee53763399eb4667818bc6c5d7018c5"}], "txid": "2538fd23968c47b5c15602f37baa3a827a88d3cf6ec0c9e29004136df6122791", "blocktime": 1537871767, "version": 1, "confirmations": 11495, "time": 1537871767, "locktime": 0, "vsize": 256, "size": 256}