{"hash": "60cd481fcda73650433d87a3272d7155951e05afdd610498c3f5919a3dc228cd", "blockhash": "0000000000000000000e13cef7c366c0283d82e591d1acd082e914b08063cdf1", "vout": [{"scriptPubKey": {"reqSigs": 1, "hex": "76a914658bc2e4001cfacc64a3e041943e921b3086737588ac", "addresses": ["1AFvgAG4FN8fhtp3ZtSF8hsmKvPTDiB4RV"], "asm": "OP_DUP OP_HASH160 658bc2e4001cfacc64a3e041943e921b30867375 OP_EQUALVERIFY OP_CHECKSIG", "type": "pubkeyhash"}, "value": 3.263e-05, "n": 0}, {"scriptPubKey": {"reqSigs": 1, "hex": "a914e8db75c900cf08f06518e96d167331f2a4abfb3387", "addresses": ["3NvFbQMAkkqEFj4i1sYPPLkSWzxTFUchjA"], "asm": "OP_HASH160 e8db75c900cf08f06518e96d167331f2a4abfb33 OP_EQUAL", "type": "scripthash"}, "value": 0.00045687, "n": 1}], "hex": "0100000000010136d386fe11789702d336487e3e4400bbeed9bf54427d5ee428dfb1226fd145750000000023220020941cfaff8837763dc1f69ff82b6d6553fdea17a41cfc29a04403293eedd8ccc7ffffffff02bf0c0000000000001976a914658bc2e4001cfacc64a3e041943e921b3086737588ac77b200000000000017a914e8db75c900cf08f06518e96d167331f2a4abfb33870400483045022100d19dd07a5afdb6091758804eaa1553c5a7dd730ece27f12b8b8e0edc489624a70220321573a74d1dbc85cba7cf8d03644b3cd0a6b123b7dba1cccd14e105ee79feee01483045022100b3a20f7da83c4f5d48c83496043b43af8f3b1ca16a873f8f63641748ff76b7c3022059fb4a2719ef5f8c1d97bb59f1a83a83a0060251d5eb88ac0e1fe14c5cc4567d0147522102531db3a5883f29bab4241dd0cd726936667bcda445d89bdd22244e828b6993342103148c80a5bdfddb05ff5bcffc397c8ca748d8b435ec6a175bc9d7bfc7fc6f853752ae00000000", "vin": [{"txinwitness": ["", "3045022100d19dd07a5afdb6091758804eaa1553c5a7dd730ece27f12b8b8e0edc489624a70220321573a74d1dbc85cba7cf8d03644b3cd0a6b123b7dba1cccd14e105ee79feee01", "3045022100b3a20f7da83c4f5d48c83496043b43af8f3b1ca16a873f8f63641748ff76b7c3022059fb4a2719ef5f8c1d97bb59f1a83a83a0060251d5eb88ac0e1fe14c5cc4567d01", "522102531db3a5883f29bab4241dd0cd726936667bcda445d89bdd22244e828b6993342103148c80a5bdfddb05ff5bcffc397c8ca748d8b435ec6a175bc9d7bfc7fc6f853752ae"], "sequence": 4294967295, "scriptSig": {"hex": "220020941cfaff8837763dc1f69ff82b6d6553fdea17a41cfc29a04403293eedd8ccc7", "asm": "0020941cfaff8837763dc1f69ff82b6d6553fdea17a41cfc29a04403293eedd8ccc7"}, "vout": 0, "txid": "7545d16f22b1df28e45e7d4254bfd9eebb00443e7e4836d302977811fe86d336"}], "txid": "253b143e6f1e2720b1395c9dd606abb9f84fa639a13c2a493b3901b27962528a", "blocktime": 1537871767, "version": 1, "confirmations": 11495, "time": 1537871767, "locktime": 0, "vsize": 208, "size": 374}