{"hash": "a9bc5880dfac3a17112a7987f081c83c6d636610d626ebf20137f1a2bbf0b981", "blockhash": "0000000000000000001e0dab787dd257d1dbfcb92a98c2207d5e1078be1f4165", "vout": [{"scriptPubKey": {"reqSigs": 1, "hex": "76a914600dbc6fe9d5fb08e8f48be560d80a2bdd35228188ac", "addresses": ["19ktKpJG42mGriw5nmBg9G9EuALxLRHLG4"], "asm": "OP_DUP OP_HASH160 600dbc6fe9d5fb08e8f48be560d80a2bdd352281 OP_EQUALVERIFY OP_CHECKSIG", "type": "pubkeyhash"}, "value": 0.00954238, "n": 0}, {"scriptPubKey": {"reqSigs": 1, "hex": "a914d78ae2b6dc00c10992f7a09451d4b23603505cda87", "addresses": ["3MLhajBjYy7EH56d6qByivzUeqwyPrfRrj"], "asm": "OP_HASH160 d78ae2b6dc00c10992f7a09451d4b23603505cda OP_EQUAL", "type": "scripthash"}, "value": 0.35032733, "n": 1}], "hex": "010000000001017178e4c6b7fab32cc99ffe01e375c4525c1ea4d6c5ff4355902ae2388b28cec901000000232200205b05c96ddf4829b9fc9ddceb510c04bf58e285b840ba1b57b23d99376e37492cffffffff027e8f0e00000000001976a914600dbc6fe9d5fb08e8f48be560d80a2bdd35228188ac9d8e16020000000017a914d78ae2b6dc00c10992f7a09451d4b23603505cda870400473044022007b4ddd4a456c1ce046e0aca7fe80e392f1f5bf1dc8696867352c2880481a8ce022019a9f3e63a93aa1de09843c9871666b1a753bd19390e56d0d069b8d0f324d2c7014830450221008e3c30ab0f8757a06bbb5dd2cae95ab833da359bfa815f82e32be21e9a0c62a302204e168758c5b4484023db16f379952bbbacc9e14f8f9db602cd7407874aa2b6fa01475221029c9c9c4f69efdf5112e8711f6666b3bc4ff0b80aa0bc26f8cdc04c6f2efcca532103982481ffd6c2aa1ba6b45c0874cb14e2ebcbfe494f93697c3d40857517fc280b52ae00000000", "vin": [{"txinwitness": ["", "3044022007b4ddd4a456c1ce046e0aca7fe80e392f1f5bf1dc8696867352c2880481a8ce022019a9f3e63a93aa1de09843c9871666b1a753bd19390e56d0d069b8d0f324d2c701", "30450221008e3c30ab0f8757a06bbb5dd2cae95ab833da359bfa815f82e32be21e9a0c62a302204e168758c5b4484023db16f379952bbbacc9e14f8f9db602cd7407874aa2b6fa01", "5221029c9c9c4f69efdf5112e8711f6666b3bc4ff0b80aa0bc26f8cdc04c6f2efcca532103982481ffd6c2aa1ba6b45c0874cb14e2ebcbfe494f93697c3d40857517fc280b52ae"], "sequence": 4294967295, "scriptSig": {"hex": "2200205b05c96ddf4829b9fc9ddceb510c04bf58e285b840ba1b57b23d99376e37492c", "asm": "00205b05c96ddf4829b9fc9ddceb510c04bf58e285b840ba1b57b23d99376e37492c"}, "vout": 1, "txid": "c9ce288b38e22a905543ffc5d6a41e5c52c475e301fe9fc92cb3fab7c6e47871"}], "txid": "253b139a0edd86aff34b40585f57ad93f2d0e6d93893a2088364fe4312388a5a", "blocktime": 1537872475, "version": 1, "confirmations": 11487, "time": 1537872475, "locktime": 0, "vsize": 208, "size": 373}