{"hash": "2541cb0b223d3aafa5c6a4388fa8452f351e681c26c0b80178495f66fab9e356", "blockhash": "0000000000000000001cda96e906b7601b7a6fb1a3b62bca570a9e5d8f4b3de1", "vout": [{"scriptPubKey": {"reqSigs": 1, "hex": "76a914189417c7c2ff1f199fc582f54d47d48282a6016e88ac", "addresses": ["13ExdH9hSEXGPVAcUtLaEp4qeKVpKtYNJv"], "asm": "OP_DUP OP_HASH160 189417c7c2ff1f199fc582f54d47d48282a6016e OP_EQUALVERIFY OP_CHECKSIG", "type": "pubkeyhash"}, "value": 0.00180085, "n": 0}, {"scriptPubKey": {"reqSigs": 1, "hex": "76a9147d062f9d43eae2f359ad8f96d69cd304a8e6b6c388ac", "addresses": ["1CQ4snmjmPVT1siGNKGrXMRLGwebbinLCM"], "asm": "OP_DUP OP_HASH160 7d062f9d43eae2f359ad8f96d69cd304a8e6b6c3 OP_EQUALVERIFY OP_CHECKSIG", "type": "pubkeyhash"}, "value": 2.021e-05, "n": 1}], "hex": "0100000001d4d95bb7559d530a4ae4265b9b94d753dbcd440f687c53c1b87e377142d48a2c070000006b483045022100f23e142a62f51cb4cfe770dfa4b9d5bd983fd9131ce374a26292c5a73aa401bd02200ee1856c830d52d6d6f6ac2e272077800b6fc9442838000d4e523c1c37d70a4e012103fea8a5884cd67928a95c09290ea0138e6a87429f4643ada1e00b530c09538b66ffffffff0275bf0200000000001976a914189417c7c2ff1f199fc582f54d47d48282a6016e88ace5070000000000001976a9147d062f9d43eae2f359ad8f96d69cd304a8e6b6c388ac00000000", "vin": [{"sequence": 4294967295, "scriptSig": {"hex": "483045022100f23e142a62f51cb4cfe770dfa4b9d5bd983fd9131ce374a26292c5a73aa401bd02200ee1856c830d52d6d6f6ac2e272077800b6fc9442838000d4e523c1c37d70a4e012103fea8a5884cd67928a95c09290ea0138e6a87429f4643ada1e00b530c09538b66", "asm": "3045022100f23e142a62f51cb4cfe770dfa4b9d5bd983fd9131ce374a26292c5a73aa401bd02200ee1856c830d52d6d6f6ac2e272077800b6fc9442838000d4e523c1c37d70a4e[ALL] 03fea8a5884cd67928a95c09290ea0138e6a87429f4643ada1e00b530c09538b66"}, "vout": 7, "txid": "2c8ad44271377eb8c1537c680f44cddb53d7949b5b26e44a0a539d55b75bd9d4"}], "txid": "2541cb0b223d3aafa5c6a4388fa8452f351e681c26c0b80178495f66fab9e356", "blocktime": 1537873282, "version": 1, "confirmations": 11480, "time": 1537873282, "locktime": 0, "vsize": 226, "size": 226}