{"hash": "8d8029ed7ce1419abc4b64cbc43d9490463bdd2249d1377467765b1519dbd9f6", "blockhash": "00000000000000000018f53835495a110e01622372bf6ae95dc86f2b0ab887b0", "vout": [{"scriptPubKey": {"reqSigs": 1, "hex": "a914f7421777c85697546d87b641cde4bfa13ba4622787", "addresses": ["3QEQ14BevQeZxvMW22Hb3XGDHxF7zmJpMd"], "asm": "OP_HASH160 f7421777c85697546d87b641cde4bfa13ba46227 OP_EQUAL", "type": "scripthash"}, "value": 0.00999807, "n": 0}, {"scriptPubKey": {"reqSigs": 1, "hex": "76a91455da52da9085b5d37d49b31837221dffd73e7f6888ac", "addresses": ["18pwyhWw9f92nVqZ77D4EE2XWZQP2P3oPF"], "asm": "OP_DUP OP_HASH160 55da52da9085b5d37d49b31837221dffd73e7f68 OP_EQUALVERIFY OP_CHECKSIG", "type": "pubkeyhash"}, "value": 0.0035, "n": 1}], "hex": "0200000000010273323f1cd40c97fc1c6c53c6745ed5ef2fb637808454a358f7c54235d24ad20f0000000017160014e7d2640ac5e47691d17704b7bb9f6fe2c971fefbfeffffffb6f091d8b924a2efa6f4d0ebb9f48445b13f39100e4b7470e79e8f9c3c89e79d00000000171600147151d9803b605fedc918c26227137b435d6eacbbfeffffff027f410f000000000017a914f7421777c85697546d87b641cde4bfa13ba462278730570500000000001976a91455da52da9085b5d37d49b31837221dffd73e7f6888ac02483045022100a05cc75954132dfdf8173e03fcfee3477ead15cfce8e0f2fbc676acdfc6dbb54022011c063e3dd43a9500a0e8e655d386aa2fccb1991fe9f5485e6883c22d7d9e5a5012103185818348cb9bf3ce05080a8e6887796ef786ea5794332694161a3c786b2dabf0247304402200c74bc8a66804f4587a1c906d5382024a323e714d7b2302ac8ba4aa89643de4202203ee7654523f0e4ca5cfe4afa34639e33ec805b139ca18ba820acb94fdd99282d012103108220c7d4a2376f75ee5ffc85ea73ea2f2d5394c760e20acb829dcffdb036240e490800", "vin": [{"txinwitness": ["3045022100a05cc75954132dfdf8173e03fcfee3477ead15cfce8e0f2fbc676acdfc6dbb54022011c063e3dd43a9500a0e8e655d386aa2fccb1991fe9f5485e6883c22d7d9e5a501", "03185818348cb9bf3ce05080a8e6887796ef786ea5794332694161a3c786b2dabf"], "sequence": 4294967294, "scriptSig": {"hex": "160014e7d2640ac5e47691d17704b7bb9f6fe2c971fefb", "asm": "0014e7d2640ac5e47691d17704b7bb9f6fe2c971fefb"}, "vout": 0, "txid": "0fd24ad23542c5f758a354848037b62fefd55e74c6536c1cfc970cd41c3f3273"}, {"txinwitness": ["304402200c74bc8a66804f4587a1c906d5382024a323e714d7b2302ac8ba4aa89643de4202203ee7654523f0e4ca5cfe4afa34639e33ec805b139ca18ba820acb94fdd99282d01", "03108220c7d4a2376f75ee5ffc85ea73ea2f2d5394c760e20acb829dcffdb03624"], "sequence": 4294967294, "scriptSig": {"hex": "1600147151d9803b605fedc918c26227137b435d6eacbb", "asm": "00147151d9803b605fedc918c26227137b435d6eacbb"}, "vout": 0, "txid": "9de7893c9c8f9ee770744b0e10393fb14584f4b9ebd0f4a6efa224b9d891f0b6"}], "txid": "25441145e996384dda0538c3eb329a87a46dc223f3b070c71834f045db239321", "blocktime": 1537870928, "version": 2, "confirmations": 11514, "time": 1537870928, "locktime": 542990, "vsize": 259, "size": 421}