{"hash": "762ae78aa925e2cd7fe1d7aab1ba163b11aa55accb7947d40a1912dce9c2addc", "blockhash": "0000000000000000001f76057863aec43deb6fa401d9628bb513d65a8098bfab", "vout": [{"scriptPubKey": {"reqSigs": 1, "hex": "0014e08ccb68ea24a28c924853f4b2f0b7743556af45", "addresses": ["bc1quzxvk682yj3geyjg206t9u9hws64dt698x9vt7"], "asm": "0 e08ccb68ea24a28c924853f4b2f0b7743556af45", "type": "witness_v0_keyhash"}, "value": 0.00081074, "n": 0}, {"scriptPubKey": {"reqSigs": 1, "hex": "76a91491ed8252adaaccf5964c8d8630308dcd88e8217d88ac", "addresses": ["1EJbWEeAGNNR5DQDM9rkUZQUKiq2G1UWhW"], "asm": "OP_DUP OP_HASH160 91ed8252adaaccf5964c8d8630308dcd88e8217d OP_EQUALVERIFY OP_CHECKSIG", "type": "pubkeyhash"}, "value": 0.01754, "n": 1}], "hex": "01000000000101a0514fa81ee60e22e234315c0d384e04746d4b0a5482d32fe2877f9fb22c227a0800000017160014cab6e86f0b98e8b7a29707c3f93b953745d0ac0effffffff02b23c010000000000160014e08ccb68ea24a28c924853f4b2f0b7743556af4590c31a00000000001976a91491ed8252adaaccf5964c8d8630308dcd88e8217d88ac024730440220588bcb7218e6e54c7f927a2d82bc89ae564f15ab759648ca5218e36ed0dde9f802205ed28a509e0b5a38b6bf831838599936714e9e1c0752243a291b2b2722f166e4012102686857ec606cac147cbaab514f30a3593ca989c4bf1c06555cb9ebac7ab0c1ce00000000", "vin": [{"txinwitness": ["30440220588bcb7218e6e54c7f927a2d82bc89ae564f15ab759648ca5218e36ed0dde9f802205ed28a509e0b5a38b6bf831838599936714e9e1c0752243a291b2b2722f166e401", "02686857ec606cac147cbaab514f30a3593ca989c4bf1c06555cb9ebac7ab0c1ce"], "sequence": 4294967295, "scriptSig": {"hex": "160014cab6e86f0b98e8b7a29707c3f93b953745d0ac0e", "asm": "0014cab6e86f0b98e8b7a29707c3f93b953745d0ac0e"}, "vout": 8, "txid": "7a222cb29f7f87e22fd382540a4b6d74044e380d5c3134e2220ee61ea84f51a0"}], "txid": "254716f567d0d71b6096d8a605f8105fe6636a2a3396704a5e6a45c168303f6c", "blocktime": 1537873891, "version": 1, "confirmations": 11478, "time": 1537873891, "locktime": 0, "vsize": 167, "size": 248}