{"hash": "254c30b407d0c2580f4bed92b5036f563f9069ba304efb241325dacf254f6915", "blockhash": "0000000000000000000baef3f32e3676a92c3b2e5da21b426e4f302fc371ce76", "vout": [{"scriptPubKey": {"reqSigs": 1, "hex": "76a9146d3a711ee5a6f1a98c72538cb822c7c86cc1a0e588ac", "addresses": ["1AxYfXJEqVjH2Zr8zkE4pQfefFfAkbHM1G"], "asm": "OP_DUP OP_HASH160 6d3a711ee5a6f1a98c72538cb822c7c86cc1a0e5 OP_EQUALVERIFY OP_CHECKSIG", "type": "pubkeyhash"}, "value": 0.0549, "n": 0}, {"scriptPubKey": {"reqSigs": 1, "hex": "76a9149cf8d1e89cecbaf9a72a6fa9745e0d1b1be66e4588ac", "addresses": ["1FJzVEsVeQAY8WbBbLosDEDxb3a9AmgN6J"], "asm": "OP_DUP OP_HASH160 9cf8d1e89cecbaf9a72a6fa9745e0d1b1be66e45 OP_EQUALVERIFY OP_CHECKSIG", "type": "pubkeyhash"}, "value": 0.00994538, "n": 1}], "hex": "0200000006339ae202bc4f0ab4e03a7f83c16cebebdd51ec301a6b6d00aa209b33e20951ec0a0000006a47304402202d27dfb9947bf37f529e033dfce2cded03bc662f2b00b63102683c30390b07c9022074390d7a696f9c7a66b0a6a8c7350ab35d9c326864bfb54d67e61f7f6c35b782012102168d702d0396614ee8fc3b836386e1b293b520fa0f6e0984845ca531006eda64feffffff298c656102fc7f25d770497f82d4da8329b4c88a6f8c9023f3acc0182ffbe22b010000006a47304402205854f3b650f3f40a84a2fa3c071c7a72e6d455dddbb63ba09abf0a8faa0711dc022028cd305ac48eb1a69c5c6c37a8297050dfec381126612245d457d04a20889b2c012102d0438077197129b8bb99fb4fbdcb9b128b2b9fa5e94da67aca21e249a0b01d6bfeffffff6151aabe6760af600e8be607a225a92ef7c6fca30457528d7de9386013e8159f000000006b4830450221009779c7a86c9851cd79ca37b684ceb6b152c01ff1812cdf96c5c315270875d1db022079dcfa1edbc03f330318057b9038542c37e99092fe67ac31f1f29d00563c1f470121025fe017a11b07e0f5044e00073d6788c05aa2790c7c19f7343432f4a1ecab0930feffffff14e9e53348bad0b3cd10875086fd5f5fcf796c5ce6c907922a053f171c23150e010000006a473044022012cdb9921077510610a1dacbd6326e097514afa06f597d4a93b394f2b9b47b5902202e4cb87802e62f3b9bfdbe28e736c81f416576f66324142e52e4770dda840ff401210260be27cf4d0119c586fb28532ecce894ceeafbf3c267d1dd8fe7ff9e1648d71efeffffff6cc28cf41221e25eec300da0dfa9c6e9fb90c6478cb4f5c6644f87d0c64e1277000000006a47304402206dc6d1251f0aa6176cae18a9976c2dc4ff065c8bddeb66406e7ad14520d975290220583ce488793e29726b1d619b041499d83c52c095d15976a726a95516dd6a04a901210364d4f9616a90bf16a37b99b398f828600275a7b2fc2d627a839498d6c1e114ebfefffffff8d1409fa662701e0e1e24686ac6593c7a940bdd578727495249d6171f0316f6010000006b4830450221009aaf9fc5b90db2e275e8f1f1d1b9887a9cfae62b681208cd51dbef0f46f2c34502200bd69a0121b57ee4b53480f99385b5be1c180c9e899abe7ae00bf4dc733cf9cf0121025b001d8c38cc3265bbc7e44a9ac3256bf6d325db200d456120216788a9e47fcbfeffffff0250c55300000000001976a9146d3a711ee5a6f1a98c72538cb822c7c86cc1a0e588acea2c0f00000000001976a9149cf8d1e89cecbaf9a72a6fa9745e0d1b1be66e4588ac17490800", "vin": [{"sequence": 4294967294, "scriptSig": {"hex": "47304402202d27dfb9947bf37f529e033dfce2cded03bc662f2b00b63102683c30390b07c9022074390d7a696f9c7a66b0a6a8c7350ab35d9c326864bfb54d67e61f7f6c35b782012102168d702d0396614ee8fc3b836386e1b293b520fa0f6e0984845ca531006eda64", "asm": "304402202d27dfb9947bf37f529e033dfce2cded03bc662f2b00b63102683c30390b07c9022074390d7a696f9c7a66b0a6a8c7350ab35d9c326864bfb54d67e61f7f6c35b782[ALL] 02168d702d0396614ee8fc3b836386e1b293b520fa0f6e0984845ca531006eda64"}, "vout": 10, "txid": "ec5109e2339b20aa006d6b1a30ec51ddebeb6cc1837f3ae0b40a4fbc02e29a33"}, {"sequence": 4294967294, "scriptSig": {"hex": "47304402205854f3b650f3f40a84a2fa3c071c7a72e6d455dddbb63ba09abf0a8faa0711dc022028cd305ac48eb1a69c5c6c37a8297050dfec381126612245d457d04a20889b2c012102d0438077197129b8bb99fb4fbdcb9b128b2b9fa5e94da67aca21e249a0b01d6b", "asm": "304402205854f3b650f3f40a84a2fa3c071c7a72e6d455dddbb63ba09abf0a8faa0711dc022028cd305ac48eb1a69c5c6c37a8297050dfec381126612245d457d04a20889b2c[ALL] 02d0438077197129b8bb99fb4fbdcb9b128b2b9fa5e94da67aca21e249a0b01d6b"}, "vout": 1, "txid": "2be2fb2f18c0acf323908c6f8ac8b42983dad4827f4970d7257ffc0261658c29"}, {"sequence": 4294967294, "scriptSig": {"hex": "4830450221009779c7a86c9851cd79ca37b684ceb6b152c01ff1812cdf96c5c315270875d1db022079dcfa1edbc03f330318057b9038542c37e99092fe67ac31f1f29d00563c1f470121025fe017a11b07e0f5044e00073d6788c05aa2790c7c19f7343432f4a1ecab0930", "asm": "30450221009779c7a86c9851cd79ca37b684ceb6b152c01ff1812cdf96c5c315270875d1db022079dcfa1edbc03f330318057b9038542c37e99092fe67ac31f1f29d00563c1f47[ALL] 025fe017a11b07e0f5044e00073d6788c05aa2790c7c19f7343432f4a1ecab0930"}, "vout": 0, "txid": "9f15e8136038e97d8d525704a3fcc6f72ea925a207e68b0e60af6067beaa5161"}, {"sequence": 4294967294, "scriptSig": {"hex": "473044022012cdb9921077510610a1dacbd6326e097514afa06f597d4a93b394f2b9b47b5902202e4cb87802e62f3b9bfdbe28e736c81f416576f66324142e52e4770dda840ff401210260be27cf4d0119c586fb28532ecce894ceeafbf3c267d1dd8fe7ff9e1648d71e", "asm": "3044022012cdb9921077510610a1dacbd6326e097514afa06f597d4a93b394f2b9b47b5902202e4cb87802e62f3b9bfdbe28e736c81f416576f66324142e52e4770dda840ff4[ALL] 0260be27cf4d0119c586fb28532ecce894ceeafbf3c267d1dd8fe7ff9e1648d71e"}, "vout": 1, "txid": "0e15231c173f052a9207c9e65c6c79cf5f5ffd86508710cdb3d0ba4833e5e914"}, {"sequence": 4294967294, "scriptSig": {"hex": "47304402206dc6d1251f0aa6176cae18a9976c2dc4ff065c8bddeb66406e7ad14520d975290220583ce488793e29726b1d619b041499d83c52c095d15976a726a95516dd6a04a901210364d4f9616a90bf16a37b99b398f828600275a7b2fc2d627a839498d6c1e114eb", "asm": "304402206dc6d1251f0aa6176cae18a9976c2dc4ff065c8bddeb66406e7ad14520d975290220583ce488793e29726b1d619b041499d83c52c095d15976a726a95516dd6a04a9[ALL] 0364d4f9616a90bf16a37b99b398f828600275a7b2fc2d627a839498d6c1e114eb"}, "vout": 0, "txid": "77124ec6d0874f64c6f5b48c47c690fbe9c6a9dfa00d30ec5ee22112f48cc26c"}, {"sequence": 4294967294, "scriptSig": {"hex": "4830450221009aaf9fc5b90db2e275e8f1f1d1b9887a9cfae62b681208cd51dbef0f46f2c34502200bd69a0121b57ee4b53480f99385b5be1c180c9e899abe7ae00bf4dc733cf9cf0121025b001d8c38cc3265bbc7e44a9ac3256bf6d325db200d456120216788a9e47fcb", "asm": "30450221009aaf9fc5b90db2e275e8f1f1d1b9887a9cfae62b681208cd51dbef0f46f2c34502200bd69a0121b57ee4b53480f99385b5be1c180c9e899abe7ae00bf4dc733cf9cf[ALL] 025b001d8c38cc3265bbc7e44a9ac3256bf6d325db200d456120216788a9e47fcb"}, "vout": 1, "txid": "f616031f17d6495249278757dd0b947a3c59c66a68241e0e1e7062a69f40d1f8"}], "txid": "254c30b407d0c2580f4bed92b5036f563f9069ba304efb241325dacf254f6915", "blocktime": 1537876114, "version": 2, "confirmations": 11460, "time": 1537876114, "locktime": 542999, "vsize": 962, "size": 962}