{"hash": "2552d65fcefdd8c18d266b393f7a64de51df31e1efc0502d0321cb8a8171b354", "blockhash": "0000000000000000000e13cef7c366c0283d82e591d1acd082e914b08063cdf1", "vout": [{"scriptPubKey": {"reqSigs": 1, "hex": "a9148fa08da2d82cb1404cd7e6f1c7ddf45050f0476487", "addresses": ["3EnStQrDKRjWF482HQpbt5zrvu3BqqGizp"], "asm": "OP_HASH160 8fa08da2d82cb1404cd7e6f1c7ddf45050f04764 OP_EQUAL", "type": "scripthash"}, "value": 0.493214, "n": 0}, {"scriptPubKey": {"reqSigs": 1, "hex": "a91480ba2cf61345cdcdf7ab170e94ef3fbf1934526787", "addresses": ["3DRfSonyBYT3vLbBC1QzdNS61p9Z84Y12C"], "asm": "OP_HASH160 80ba2cf61345cdcdf7ab170e94ef3fbf19345267 OP_EQUAL", "type": "scripthash"}, "value": 4.0, "n": 1}], "hex": "01000000013391494b8b1b094969cd33b8baca66247114ef8f9cb867e5402536ff3dc162b203000000fdfe0000483045022100a4d19b022735bb63b69105322515336fbca260aa61d043c5b4b9d2ea34196f240220578b6646cd238f42c19c5135791df8161b3af580764b58d7c61deacf91764a3f01483045022100d66a95c63ab27e2c56cbc05f9f899eb7183579df64a048606caf3099733bb98402203b4e55d52776f74b511d15cf452c69956b2099afdf69b5a191ace4daddc2fe04014c695221023ed88823e9f6145cb3263acafe4960be64ceab857959aa8fe4432e1e6276d8712102e3de078e3bd15012a3b669c9286deb7a19c94a6044e27cefda5b99aad66db0e32102ebb40e91f54544f2a5f524fe77f7280c342252df2d874e1c09bd1609680bfbfe53aefeffffff02b895f0020000000017a9148fa08da2d82cb1404cd7e6f1c7ddf45050f04764870084d7170000000017a91480ba2cf61345cdcdf7ab170e94ef3fbf193452678710490800", "vin": [{"sequence": 4294967294, "scriptSig": {"hex": "00483045022100a4d19b022735bb63b69105322515336fbca260aa61d043c5b4b9d2ea34196f240220578b6646cd238f42c19c5135791df8161b3af580764b58d7c61deacf91764a3f01483045022100d66a95c63ab27e2c56cbc05f9f899eb7183579df64a048606caf3099733bb98402203b4e55d52776f74b511d15cf452c69956b2099afdf69b5a191ace4daddc2fe04014c695221023ed88823e9f6145cb3263acafe4960be64ceab857959aa8fe4432e1e6276d8712102e3de078e3bd15012a3b669c9286deb7a19c94a6044e27cefda5b99aad66db0e32102ebb40e91f54544f2a5f524fe77f7280c342252df2d874e1c09bd1609680bfbfe53ae", "asm": "0 3045022100a4d19b022735bb63b69105322515336fbca260aa61d043c5b4b9d2ea34196f240220578b6646cd238f42c19c5135791df8161b3af580764b58d7c61deacf91764a3f[ALL] 3045022100d66a95c63ab27e2c56cbc05f9f899eb7183579df64a048606caf3099733bb98402203b4e55d52776f74b511d15cf452c69956b2099afdf69b5a191ace4daddc2fe04[ALL] 5221023ed88823e9f6145cb3263acafe4960be64ceab857959aa8fe4432e1e6276d8712102e3de078e3bd15012a3b669c9286deb7a19c94a6044e27cefda5b99aad66db0e32102ebb40e91f54544f2a5f524fe77f7280c342252df2d874e1c09bd1609680bfbfe53ae"}, "vout": 3, "txid": "b262c13dff362540e567b89c8fef14712466cabab833cd6949091b8b4b499133"}], "txid": "2552d65fcefdd8c18d266b393f7a64de51df31e1efc0502d0321cb8a8171b354", "blocktime": 1537871767, "version": 1, "confirmations": 11490, "time": 1537871767, "locktime": 542992, "vsize": 371, "size": 371}