{"hash": "2553b7b23164e274aa484df65d28b9fbf1af0438b7c14d6fe81cf225b881e683", "blockhash": "0000000000000000001cda96e906b7601b7a6fb1a3b62bca570a9e5d8f4b3de1", "vout": [{"scriptPubKey": {"reqSigs": 1, "hex": "0014fa002bc3428efd161acb9a0197a6fa3f0d9c0d49", "addresses": ["bc1qlgqzhs6z3m73vxktngqe0fh68uxecr2f2f00fh"], "asm": "0 fa002bc3428efd161acb9a0197a6fa3f0d9c0d49", "type": "witness_v0_keyhash"}, "value": 1.223e-05, "n": 0}, {"scriptPubKey": {"reqSigs": 1, "hex": "76a91464d99beb62dc4e2046f36a27676c2d255084920788ac", "addresses": ["1ACFFvgpRGvYuz8xDeLXYShGC7jsiCkz8a"], "asm": "OP_DUP OP_HASH160 64d99beb62dc4e2046f36a27676c2d2550849207 OP_EQUALVERIFY OP_CHECKSIG", "type": "pubkeyhash"}, "value": 0.00205, "n": 1}], "hex": "01000000016fdbeaf65d352b411b8e3b78074061ee662e721116896960dbb9974b368ee4d70f0000006a47304402206ae490805a30a8c77883e4df7966d9d965ea6b3219126de8a218bbbcf37c4b81022010890039e2303164ca59d24489aec5ea0209eddf10d46aaa1686c13ee6508dfa012103656bb3035ae6ab95082f52a7a883268a45f5069be61fe65973d8e3a05e039da5ffffffff02c704000000000000160014fa002bc3428efd161acb9a0197a6fa3f0d9c0d49c8200300000000001976a91464d99beb62dc4e2046f36a27676c2d255084920788ac00000000", "vin": [{"sequence": 4294967295, "scriptSig": {"hex": "47304402206ae490805a30a8c77883e4df7966d9d965ea6b3219126de8a218bbbcf37c4b81022010890039e2303164ca59d24489aec5ea0209eddf10d46aaa1686c13ee6508dfa012103656bb3035ae6ab95082f52a7a883268a45f5069be61fe65973d8e3a05e039da5", "asm": "304402206ae490805a30a8c77883e4df7966d9d965ea6b3219126de8a218bbbcf37c4b81022010890039e2303164ca59d24489aec5ea0209eddf10d46aaa1686c13ee6508dfa[ALL] 03656bb3035ae6ab95082f52a7a883268a45f5069be61fe65973d8e3a05e039da5"}, "vout": 15, "txid": "d7e48e364b97b9db6069891611722e66ee614007783b8e1b412b355df6eadb6f"}], "txid": "2553b7b23164e274aa484df65d28b9fbf1af0438b7c14d6fe81cf225b881e683", "blocktime": 1537873282, "version": 1, "confirmations": 11484, "time": 1537873282, "locktime": 0, "vsize": 222, "size": 222}