{"hash": "f9bda88ff4749898c6803afc531b877377579bfb7e1778a556ca83656c8521a6", "blockhash": "0000000000000000000e13cef7c366c0283d82e591d1acd082e914b08063cdf1", "vout": [{"scriptPubKey": {"reqSigs": 1, "hex": "76a9141fbd866be502e1054dc60d05d94f87732f1cac4c88ac", "addresses": ["13tpzP4kkr8kpd6N5dtx5zCbdw7JocRyxY"], "asm": "OP_DUP OP_HASH160 1fbd866be502e1054dc60d05d94f87732f1cac4c OP_EQUALVERIFY OP_CHECKSIG", "type": "pubkeyhash"}, "value": 0.12505219, "n": 0}, {"scriptPubKey": {"reqSigs": 1, "hex": "00145bdb42bbf719fc7eded00ba2f852bb488473b903", "addresses": ["bc1qt0d59wlhr878ahkspw30s54mfzz88wgr7jknr9"], "asm": "0 5bdb42bbf719fc7eded00ba2f852bb488473b903", "type": "witness_v0_keyhash"}, "value": 9.176e-05, "n": 1}], "hex": "01000000000101ef84d1426c7fca7b42f35374a61a5bd5e571b3506b11ff36e0fe0fd4b66af7bb0000000000ffffffff0283d0be00000000001976a9141fbd866be502e1054dc60d05d94f87732f1cac4c88acd8230000000000001600145bdb42bbf719fc7eded00ba2f852bb488473b9030247304402203af2b059a35e951f16b832396d2c7454ad321f930609ba6ebb1e670a760af085022033ff0aea9451f7a2a4a796411213d7dc938a0265f12ff947259761729f9b42fd0121028a5a517cd4ec9fc0706140f90d057c57c949ea10c555258eab5e2674b0896ad500000000", "vin": [{"txinwitness": ["304402203af2b059a35e951f16b832396d2c7454ad321f930609ba6ebb1e670a760af085022033ff0aea9451f7a2a4a796411213d7dc938a0265f12ff947259761729f9b42fd01", "028a5a517cd4ec9fc0706140f90d057c57c949ea10c555258eab5e2674b0896ad5"], "sequence": 4294967295, "scriptSig": {"hex": "", "asm": ""}, "vout": 0, "txid": "bbf76ab6d40ffee036ff116b50b371e5d55b1aa67453f3427bca7f6c42d184ef"}], "txid": "25548612f469c128e758ca6cd2c7ee922fd976f810181848182fca1833b34956", "blocktime": 1537871767, "version": 1, "confirmations": 11495, "time": 1537871767, "locktime": 0, "vsize": 144, "size": 225}