{"hash": "b1aac7d27bcc76cbde2d30f8e172a66d056a48386d33decc410098870c07ae87", "blockhash": "0000000000000000001e0dab787dd257d1dbfcb92a98c2207d5e1078be1f4165", "vout": [{"scriptPubKey": {"reqSigs": 1, "hex": "76a914db6712de6ac6526b3572cda031471ff14c57d83188ac", "addresses": ["1M16ThTVNmyBjUmUDsXP7CXzEB5KquXcT8"], "asm": "OP_DUP OP_HASH160 db6712de6ac6526b3572cda031471ff14c57d831 OP_EQUALVERIFY OP_CHECKSIG", "type": "pubkeyhash"}, "value": 0.01, "n": 0}, {"scriptPubKey": {"reqSigs": 1, "hex": "a9145cc37d336ed9e9ad3bd6388d1d480ba7c756c33587", "addresses": ["3A9WH1ZrsRMwQjZpkTb6qFgEzu62S9M7iZ"], "asm": "OP_HASH160 5cc37d336ed9e9ad3bd6388d1d480ba7c756c335 OP_EQUAL", "type": "scripthash"}, "value": 0.00451194, "n": 1}], "hex": "01000000000101427d6e762daa7a8023cb1e7be30ca517a1da15df51274d3235ef3755096e6ff7b000000017160014f1d0ccbb06b815b4d15a7780e681e71321601f87ffffffff0240420f00000000001976a914db6712de6ac6526b3572cda031471ff14c57d83188ac7ae206000000000017a9145cc37d336ed9e9ad3bd6388d1d480ba7c756c335870248304502210084d867fe12e915a6f0265dff26f6013da7c6cddd78c25ff6e9236c908fa799a30220034950a971504c107340a4f1c0f06844697a5778386857fce70cf640e1f4db89012103bf9951d4ab9685908aa2bce34494ca2a34ad894836282a7e23a524609f8f82f100000000", "vin": [{"txinwitness": ["304502210084d867fe12e915a6f0265dff26f6013da7c6cddd78c25ff6e9236c908fa799a30220034950a971504c107340a4f1c0f06844697a5778386857fce70cf640e1f4db8901", "03bf9951d4ab9685908aa2bce34494ca2a34ad894836282a7e23a524609f8f82f1"], "sequence": 4294967295, "scriptSig": {"hex": "160014f1d0ccbb06b815b4d15a7780e681e71321601f87", "asm": "0014f1d0ccbb06b815b4d15a7780e681e71321601f87"}, "vout": 176, "txid": "f76f6e095537ef35324d2751df15daa117a50ce37b1ecb23807aaa2d766e7d42"}], "txid": "25581659d8141cf5d3ebdb4b21f7e72b13b3b2cd0642314aea5f147113d9fb04", "blocktime": 1537872475, "version": 1, "confirmations": 11486, "time": 1537872475, "locktime": 0, "vsize": 168, "size": 250}