{"hash": "25585fc47abd9b481f7a6ab8971911cebc3a36bdda41d9403e3542b2d8a3cb6c", "blockhash": "00000000000000000018f53835495a110e01622372bf6ae95dc86f2b0ab887b0", "vout": [{"scriptPubKey": {"reqSigs": 1, "hex": "a914df684a1c7930dacbc097ea251784f6d0074f130887", "addresses": ["3N4HYUyonqgjd1zB6hbyduaA5Ps3RWmWA2"], "asm": "OP_HASH160 df684a1c7930dacbc097ea251784f6d0074f1308 OP_EQUAL", "type": "scripthash"}, "value": 0.00234505, "n": 0}, {"scriptPubKey": {"reqSigs": 1, "hex": "76a9145a13b4f376d02d35e711b6d1824669c883a8b31888ac", "addresses": ["19DHRXADzjJVPSNhaYCdeDumN4NXswBGE5"], "asm": "OP_DUP OP_HASH160 5a13b4f376d02d35e711b6d1824669c883a8b318 OP_EQUALVERIFY OP_CHECKSIG", "type": "pubkeyhash"}, "value": 0.00027767, "n": 1}], "hex": "0100000001126a8a4ea879e94da91637174e36d6383766ba9870158182e467443663b686bc010000006a473044022058bc4ed979e0af9f2644c4fcb1a3bd735a45988d072d9a99217cb1e8f333486b022066281086a63a9747ee20ff2968438edfbbd093aeb6151e46c9919a3731be4b9e0121038a7772a1b0b0463da68c5aaec72f3991edafadaa66941cb011759a15a65ab167ffffffff02099403000000000017a914df684a1c7930dacbc097ea251784f6d0074f130887776c0000000000001976a9145a13b4f376d02d35e711b6d1824669c883a8b31888ac00000000", "vin": [{"sequence": 4294967295, "scriptSig": {"hex": "473044022058bc4ed979e0af9f2644c4fcb1a3bd735a45988d072d9a99217cb1e8f333486b022066281086a63a9747ee20ff2968438edfbbd093aeb6151e46c9919a3731be4b9e0121038a7772a1b0b0463da68c5aaec72f3991edafadaa66941cb011759a15a65ab167", "asm": "3044022058bc4ed979e0af9f2644c4fcb1a3bd735a45988d072d9a99217cb1e8f333486b022066281086a63a9747ee20ff2968438edfbbd093aeb6151e46c9919a3731be4b9e[ALL] 038a7772a1b0b0463da68c5aaec72f3991edafadaa66941cb011759a15a65ab167"}, "vout": 1, "txid": "bc86b663364467e48281157098ba663738d6364e173716a94de979a84e8a6a12"}], "txid": "25585fc47abd9b481f7a6ab8971911cebc3a36bdda41d9403e3542b2d8a3cb6c", "blocktime": 1537870928, "version": 1, "confirmations": 11512, "time": 1537870928, "locktime": 0, "vsize": 223, "size": 223}