{"hash": "255b1d74d288e60e5c9eec5a53f2288f6f1a9f710be27993f4589095f2f5428c", "blockhash": "0000000000000000001cda96e906b7601b7a6fb1a3b62bca570a9e5d8f4b3de1", "vout": [{"scriptPubKey": {"reqSigs": 1, "hex": "a9141742d952a0c2ceacee19443872f8079de87a80a287", "addresses": ["33p1YhZBVjiGEh5d1nBe3MJBXrQ5jH8wYv"], "asm": "OP_HASH160 1742d952a0c2ceacee19443872f8079de87a80a2 OP_EQUAL", "type": "scripthash"}, "value": 0.00407165, "n": 0}], "hex": "01000000017e47b8b9792da40b25f011438559c5d9cfdabe97a223858e8fd814050344118c000000006a4730440220301806f4c113bd3347769f54c683e45f264b100837ecc085112d083e328f8ad502202719c81b742c5e3b261f365f95a605cebaa01021979b1a2448175825461b4ec0012103db6dd8b1e325caad4616fa8fef95d8ac4878a6afa4a40535d76ee645138297b7ffffffff017d3606000000000017a9141742d952a0c2ceacee19443872f8079de87a80a28700000000", "vin": [{"sequence": 4294967295, "scriptSig": {"hex": "4730440220301806f4c113bd3347769f54c683e45f264b100837ecc085112d083e328f8ad502202719c81b742c5e3b261f365f95a605cebaa01021979b1a2448175825461b4ec0012103db6dd8b1e325caad4616fa8fef95d8ac4878a6afa4a40535d76ee645138297b7", "asm": "30440220301806f4c113bd3347769f54c683e45f264b100837ecc085112d083e328f8ad502202719c81b742c5e3b261f365f95a605cebaa01021979b1a2448175825461b4ec0[ALL] 03db6dd8b1e325caad4616fa8fef95d8ac4878a6afa4a40535d76ee645138297b7"}, "vout": 0, "txid": "8c1144030514d88f8e8523a297bedacfd9c559854311f0250ba42d79b9b8477e"}], "txid": "255b1d74d288e60e5c9eec5a53f2288f6f1a9f710be27993f4589095f2f5428c", "blocktime": 1537873282, "version": 1, "confirmations": 11485, "time": 1537873282, "locktime": 0, "vsize": 189, "size": 189}