{"hash": "255cf067ffaaee79e24c4ed3a552b9248fa092df0eecd72e30004c83e4fe49cd", "blockhash": "0000000000000000001cda96e906b7601b7a6fb1a3b62bca570a9e5d8f4b3de1", "vout": [{"scriptPubKey": {"reqSigs": 1, "hex": "76a914f88e15a0612728d2b98698ee2a8279d5540fc01088ac", "addresses": ["1PfEnn3QfmpV4aEzfWwjSzH8ob4YiLKoTY"], "asm": "OP_DUP OP_HASH160 f88e15a0612728d2b98698ee2a8279d5540fc010 OP_EQUALVERIFY OP_CHECKSIG", "type": "pubkeyhash"}, "value": 1e-05, "n": 0}], "hex": "0100000001f2bd61297987693fd32ce4f2a040c93673f4feeb08665358a3f26150b52f6886000000006b483045022100d6047cf4d48535ee7613403ff42beef79151fec709f74d0af6a26cde1092486d022078f2e40618542d303f3cc39d3bf0f604a8543a3910ed59953372579989dca69e012103bbb558e062bfead87d8aff208cd481e9395d8b56606ddd7f7a089a3eaaed225bffffffff01e8030000000000001976a914f88e15a0612728d2b98698ee2a8279d5540fc01088ac00000000", "vin": [{"sequence": 4294967295, "scriptSig": {"hex": "483045022100d6047cf4d48535ee7613403ff42beef79151fec709f74d0af6a26cde1092486d022078f2e40618542d303f3cc39d3bf0f604a8543a3910ed59953372579989dca69e012103bbb558e062bfead87d8aff208cd481e9395d8b56606ddd7f7a089a3eaaed225b", "asm": "3045022100d6047cf4d48535ee7613403ff42beef79151fec709f74d0af6a26cde1092486d022078f2e40618542d303f3cc39d3bf0f604a8543a3910ed59953372579989dca69e[ALL] 03bbb558e062bfead87d8aff208cd481e9395d8b56606ddd7f7a089a3eaaed225b"}, "vout": 0, "txid": "86682fb55061f2a358536608ebfef47336c940a0f2e42cd33f6987792961bdf2"}], "txid": "255cf067ffaaee79e24c4ed3a552b9248fa092df0eecd72e30004c83e4fe49cd", "blocktime": 1537873282, "version": 1, "confirmations": 11481, "time": 1537873282, "locktime": 0, "vsize": 192, "size": 192}