{"hash": "47faccfe1808b38c85c596754e56f760620a6a5a47b152cd91aefdbdcf1e0c09", "blockhash": "0000000000000000000e13cef7c366c0283d82e591d1acd082e914b08063cdf1", "vout": [{"scriptPubKey": {"reqSigs": 1, "hex": "a914797dd3e3713d96941e9a7c0ee044c50c82a2938787", "addresses": ["3CmQRR6s21xeCGwSUpW84SuchQwkXDrgqL"], "asm": "OP_HASH160 797dd3e3713d96941e9a7c0ee044c50c82a29387 OP_EQUAL", "type": "scripthash"}, "value": 0.0017475, "n": 0}, {"scriptPubKey": {"reqSigs": 1, "hex": "0014417efcc620746f6c99e194b7e3bccf8abad6d71a", "addresses": ["bc1qg9l0e33qw3hkex0pjjm780x032add4c6pjzldw"], "asm": "0 417efcc620746f6c99e194b7e3bccf8abad6d71a", "type": "witness_v0_keyhash"}, "value": 0.00010938, "n": 1}], "hex": "01000000000101f6d70d03fb30ba4d8cc2e4ca918e8bceb67959e8554d779d954d84fd2975c3520000000000ffffffff029eaa02000000000017a914797dd3e3713d96941e9a7c0ee044c50c82a2938787ba2a000000000000160014417efcc620746f6c99e194b7e3bccf8abad6d71a02483045022100f2cab7f8ebe2b0a27a2ef1e915f2668bad7c94e580737e5b4dafba983a6c212e02204263de61cdd8b5c6a1b0beaf0514bd1210c0407d617e6be0731bd97fc5f8950b012103d79980f78f0a88b54557d3f1f3830117b571f5b64688169ab38a7592f9aff1f900000000", "vin": [{"txinwitness": ["3045022100f2cab7f8ebe2b0a27a2ef1e915f2668bad7c94e580737e5b4dafba983a6c212e02204263de61cdd8b5c6a1b0beaf0514bd1210c0407d617e6be0731bd97fc5f8950b01", "03d79980f78f0a88b54557d3f1f3830117b571f5b64688169ab38a7592f9aff1f9"], "sequence": 4294967295, "scriptSig": {"hex": "", "asm": ""}, "vout": 0, "txid": "52c37529fd844d959d774d55e85979b6ce8b8e91cae4c28c4dba30fb030dd7f6"}], "txid": "256242633bd58c2e85f97c34c6dd93df988dd37711c4967c13d125ed6d467a90", "blocktime": 1537871767, "version": 1, "confirmations": 11495, "time": 1537871767, "locktime": 0, "vsize": 142, "size": 224}