{"hash": "2565fc2070d07c37cda2d3c459835bab87699da749f130ae0b77d7f25711aee6", "blockhash": "0000000000000000000baef3f32e3676a92c3b2e5da21b426e4f302fc371ce76", "vout": [{"scriptPubKey": {"reqSigs": 1, "hex": "a9140a8ae9eb3317342239acff2424dc3335964c4a3187", "addresses": ["32em6MjVst9SuDvRRDmcP8cv4KuDTzz6zJ"], "asm": "OP_HASH160 0a8ae9eb3317342239acff2424dc3335964c4a31 OP_EQUAL", "type": "scripthash"}, "value": 0.01611213, "n": 0}], "hex": "0100000001201bbcdee84e5b4561c012da14a70f71674de40ec127124ce0354f09a4654735000000006b483045022100eb23e35006277082c622086ea281e513b4d70279f3a0ee3d2ed241fd894d2d1902202d7d75bb6591f020b7e743c4792862e25ea47ca643e7cd1b40f6d9d2a63a957e012103cb0e5c648e3cdcc8c56cc16615a403496a82f04d4be6c9ab4c3e5b900a5012f4ffffffff01cd9518000000000017a9140a8ae9eb3317342239acff2424dc3335964c4a318700000000", "vin": [{"sequence": 4294967295, "scriptSig": {"hex": "483045022100eb23e35006277082c622086ea281e513b4d70279f3a0ee3d2ed241fd894d2d1902202d7d75bb6591f020b7e743c4792862e25ea47ca643e7cd1b40f6d9d2a63a957e012103cb0e5c648e3cdcc8c56cc16615a403496a82f04d4be6c9ab4c3e5b900a5012f4", "asm": "3045022100eb23e35006277082c622086ea281e513b4d70279f3a0ee3d2ed241fd894d2d1902202d7d75bb6591f020b7e743c4792862e25ea47ca643e7cd1b40f6d9d2a63a957e[ALL] 03cb0e5c648e3cdcc8c56cc16615a403496a82f04d4be6c9ab4c3e5b900a5012f4"}, "vout": 0, "txid": "354765a4094f35e04c1227c10ee44d67710fa714da12c061455b4ee8debc1b20"}], "txid": "2565fc2070d07c37cda2d3c459835bab87699da749f130ae0b77d7f25711aee6", "blocktime": 1537876114, "version": 1, "confirmations": 11460, "time": 1537876114, "locktime": 0, "vsize": 190, "size": 190}