{"hash": "256ad3ca49cec7162e0025bb32a54d72fbfc493f1ac81b0eb31e1a005268e328", "blockhash": "0000000000000000001f76057863aec43deb6fa401d9628bb513d65a8098bfab", "vout": [{"scriptPubKey": {"reqSigs": 1, "hex": "a914c58363c39bcc7bf28278de43df10aeff6bba274887", "addresses": ["3KhNST7PBn8b2EKSqigBf5qC8GpHYzSGVG"], "asm": "OP_HASH160 c58363c39bcc7bf28278de43df10aeff6bba2748 OP_EQUAL", "type": "scripthash"}, "value": 1e-05, "n": 0}, {"scriptPubKey": {"reqSigs": 1, "hex": "76a914930567193bab9837f35d133e7097e6c24fa0c9ae88ac", "addresses": ["1EQNob4W9NUc4eBGZwZRa6CUU4G7cT9Y6n"], "asm": "OP_DUP OP_HASH160 930567193bab9837f35d133e7097e6c24fa0c9ae OP_EQUALVERIFY OP_CHECKSIG", "type": "pubkeyhash"}, "value": 4.252e-05, "n": 1}], "hex": "010000000124de6d3b71483a94f87d7fc0ef2482e1776f4a2d4d519a9910ea60c69654b1f4000000006a473044022075d838a541815c58e4ccb537d8ffe6bf55d0758e4430383b2942416c8c1eb34502203214af97b0401345873f782200a00212804d4685002d8885e351209127e7f682012102678b88bca8b7f412ea578848b1ca725215984eb17255b7549e5af29809cb83c5ffffffff02e80300000000000017a914c58363c39bcc7bf28278de43df10aeff6bba2748879c100000000000001976a914930567193bab9837f35d133e7097e6c24fa0c9ae88ac00000000", "vin": [{"sequence": 4294967295, "scriptSig": {"hex": "473044022075d838a541815c58e4ccb537d8ffe6bf55d0758e4430383b2942416c8c1eb34502203214af97b0401345873f782200a00212804d4685002d8885e351209127e7f682012102678b88bca8b7f412ea578848b1ca725215984eb17255b7549e5af29809cb83c5", "asm": "3044022075d838a541815c58e4ccb537d8ffe6bf55d0758e4430383b2942416c8c1eb34502203214af97b0401345873f782200a00212804d4685002d8885e351209127e7f682[ALL] 02678b88bca8b7f412ea578848b1ca725215984eb17255b7549e5af29809cb83c5"}, "vout": 0, "txid": "f4b15496c660ea10999a514d2d4a6f77e18224efc07f7df8943a48713b6dde24"}], "txid": "256ad3ca49cec7162e0025bb32a54d72fbfc493f1ac81b0eb31e1a005268e328", "blocktime": 1537873891, "version": 1, "confirmations": 11478, "time": 1537873891, "locktime": 0, "vsize": 223, "size": 223}