{"hash": "256f518a1ef1a697f7283913c6df0eea7dcbc074f9156e5da23113eb66c1fc71", "blockhash": "0000000000000000001cda96e906b7601b7a6fb1a3b62bca570a9e5d8f4b3de1", "vout": [{"scriptPubKey": {"reqSigs": 1, "hex": "76a914d747366798617bf7e473f9ab7cf26c9f84eafaf788ac", "addresses": ["1LdHbBDEZUYm8m6iUySfgPaTdjbzJMWhJw"], "asm": "OP_DUP OP_HASH160 d747366798617bf7e473f9ab7cf26c9f84eafaf7 OP_EQUALVERIFY OP_CHECKSIG", "type": "pubkeyhash"}, "value": 0.00045012, "n": 0}, {"scriptPubKey": {"reqSigs": 1, "hex": "76a914828417dcb308bdc2b76f45d0cecd990fba8bbd9a88ac", "addresses": ["1Cu75wEwxPH3rQ2YDHWpATXX1fKi4Gt3rf"], "asm": "OP_DUP OP_HASH160 828417dcb308bdc2b76f45d0cecd990fba8bbd9a OP_EQUALVERIFY OP_CHECKSIG", "type": "pubkeyhash"}, "value": 0.0050115, "n": 1}], "hex": "01000000018145aeecff35804f5ab98557b8846a8553fd3dafb8c857b1d3a0e23d6358d2d7010000006a47304402206b3a9f8c195fe7f2ddf0b31ab6548ba464d59144214d39ebfb4865ae5eea9d9802206a31428f36012121aeb6e43664cda7e9a8b9472760605816fc9c83fd6c84e9650121026d23f2ff9f302c95e38c701ce61903b73c3fd673e8ebbcaf02df3d0111fc6521ffffffff02d4af0000000000001976a914d747366798617bf7e473f9ab7cf26c9f84eafaf788ac9ea50700000000001976a914828417dcb308bdc2b76f45d0cecd990fba8bbd9a88ac00000000", "vin": [{"sequence": 4294967295, "scriptSig": {"hex": "47304402206b3a9f8c195fe7f2ddf0b31ab6548ba464d59144214d39ebfb4865ae5eea9d9802206a31428f36012121aeb6e43664cda7e9a8b9472760605816fc9c83fd6c84e9650121026d23f2ff9f302c95e38c701ce61903b73c3fd673e8ebbcaf02df3d0111fc6521", "asm": "304402206b3a9f8c195fe7f2ddf0b31ab6548ba464d59144214d39ebfb4865ae5eea9d9802206a31428f36012121aeb6e43664cda7e9a8b9472760605816fc9c83fd6c84e965[ALL] 026d23f2ff9f302c95e38c701ce61903b73c3fd673e8ebbcaf02df3d0111fc6521"}, "vout": 1, "txid": "d7d258633de2a0d3b157c8b8af3dfd53856a84b85785b95a4f8035ffecae4581"}], "txid": "256f518a1ef1a697f7283913c6df0eea7dcbc074f9156e5da23113eb66c1fc71", "blocktime": 1537873282, "version": 1, "confirmations": 11484, "time": 1537873282, "locktime": 0, "vsize": 225, "size": 225}