{"hash": "cf35e187613f40c9d118006d28cc9d600922c138ba8e69bc8201608543ab52f5", "blockhash": "0000000000000000001cda96e906b7601b7a6fb1a3b62bca570a9e5d8f4b3de1", "vout": [{"scriptPubKey": {"reqSigs": 1, "hex": "a914c20c44e5ceeac97f0a53429475182acaa88db56287", "addresses": ["3KP3iEUH7u9F4apH5ikX7QpxBpwEY9YAFG"], "asm": "OP_HASH160 c20c44e5ceeac97f0a53429475182acaa88db562 OP_EQUAL", "type": "scripthash"}, "value": 0.00986727, "n": 0}, {"scriptPubKey": {"reqSigs": 1, "hex": "76a914df17a252e2e52d69509140a7298ad5923b32cf6488ac", "addresses": ["1MLbzuMYb2YEx97c8GVEgUimhuo9Ad1FAH"], "asm": "OP_DUP OP_HASH160 df17a252e2e52d69509140a7298ad5923b32cf64 OP_EQUALVERIFY OP_CHECKSIG", "type": "pubkeyhash"}, "value": 0.082, "n": 1}], "hex": "020000000001031e4847f1e5b7857d4fb65346e6856fe3d98f06da5ed0fabce69311882b54b86b000000006b483045022100fe5cd9f172e6641ad086371a704e7c35dd1e882fda4ec82eb7165e6618d95a5102205d34115395103ea7dcaba40de79b80d55b4363729d901f6865ca02347945c280012102c6a2bd93b872c476ecbeee39efdfd1d1cf3bb748f8aa1932ddddc5d432ba5e3bfeffffff77e29e9978c2179265465feab8765013f8363ffc6e5d9ddd6e596e4ed8d69555000000006a47304402207c56b98b8c1456d6c508c3aeaf7d23c95f4cf863fbf28d5749f12455caa88bf4022040595aba11ae1154dd946b32a7fc2879d603bf816aeeaa60767bea377551433901210202e5536522cb30cc88d09f447fa281968d9f946aed56fb72bb20a7ee345e27eefeffffffa36b9faf50e1b9fe460aef4a8f55acb23f2c2921267887ac42055884f2491f5c0100000017160014b1209c79b1b9828cd7238024d5b01b414a9eb473feffffff02670e0f000000000017a914c20c44e5ceeac97f0a53429475182acaa88db56287401f7d00000000001976a914df17a252e2e52d69509140a7298ad5923b32cf6488ac00000247304402202cdad0d2beaf701a1fe9b14f928712c4c7d69727d582a728a20eab7c04b092ea02207983091898478833d8eb89ce73c34087feb2652c030001e25e9a0dc65fcb1cb70121033ef8107257ee50bdd75b842216911a8ab52ed8c9c94b315d3b877c4b1441b2fe13490800", "vin": [{"sequence": 4294967294, "scriptSig": {"hex": "483045022100fe5cd9f172e6641ad086371a704e7c35dd1e882fda4ec82eb7165e6618d95a5102205d34115395103ea7dcaba40de79b80d55b4363729d901f6865ca02347945c280012102c6a2bd93b872c476ecbeee39efdfd1d1cf3bb748f8aa1932ddddc5d432ba5e3b", "asm": "3045022100fe5cd9f172e6641ad086371a704e7c35dd1e882fda4ec82eb7165e6618d95a5102205d34115395103ea7dcaba40de79b80d55b4363729d901f6865ca02347945c280[ALL] 02c6a2bd93b872c476ecbeee39efdfd1d1cf3bb748f8aa1932ddddc5d432ba5e3b"}, "vout": 0, "txid": "6bb8542b881193e6bcfad05eda068fd9e36f85e64653b64f7d85b7e5f147481e"}, {"sequence": 4294967294, "scriptSig": {"hex": "47304402207c56b98b8c1456d6c508c3aeaf7d23c95f4cf863fbf28d5749f12455caa88bf4022040595aba11ae1154dd946b32a7fc2879d603bf816aeeaa60767bea377551433901210202e5536522cb30cc88d09f447fa281968d9f946aed56fb72bb20a7ee345e27ee", "asm": "304402207c56b98b8c1456d6c508c3aeaf7d23c95f4cf863fbf28d5749f12455caa88bf4022040595aba11ae1154dd946b32a7fc2879d603bf816aeeaa60767bea3775514339[ALL] 0202e5536522cb30cc88d09f447fa281968d9f946aed56fb72bb20a7ee345e27ee"}, "vout": 0, "txid": "5595d6d84e6e596edd9d5d6efc3f36f8135076b8ea5f46659217c278999ee277"}, {"txinwitness": ["304402202cdad0d2beaf701a1fe9b14f928712c4c7d69727d582a728a20eab7c04b092ea02207983091898478833d8eb89ce73c34087feb2652c030001e25e9a0dc65fcb1cb701", "033ef8107257ee50bdd75b842216911a8ab52ed8c9c94b315d3b877c4b1441b2fe"], "sequence": 4294967294, "scriptSig": {"hex": "160014b1209c79b1b9828cd7238024d5b01b414a9eb473", "asm": "0014b1209c79b1b9828cd7238024d5b01b414a9eb473"}, "vout": 1, "txid": "5c1f49f284580542ac87782621292c3fb2ac558f4aef0a46feb9e150af9f6ba3"}], "txid": "257046a731fe2af077fb496c6e45e6937a912ba97ba5c0455528f8125aa43958", "blocktime": 1537873282, "version": 2, "confirmations": 11480, "time": 1537873282, "locktime": 542995, "vsize": 463, "size": 546}