{"hash": "257059a32228665cb0cc53b3463c495dd9fe7f8caaa9e9e242c9d8d816b2cd27", "blockhash": "0000000000000000000e13cef7c366c0283d82e591d1acd082e914b08063cdf1", "vout": [{"scriptPubKey": {"reqSigs": 1, "hex": "76a914a195cf658253b7a2d2d8a3d2db02b94940f4ab4488ac", "addresses": ["1FjPFsoVsoUGVjqEgrvkERmQ4HqshxvfaT"], "asm": "OP_DUP OP_HASH160 a195cf658253b7a2d2d8a3d2db02b94940f4ab44 OP_EQUALVERIFY OP_CHECKSIG", "type": "pubkeyhash"}, "value": 0.00093294, "n": 0}, {"scriptPubKey": {"reqSigs": 1, "hex": "76a91467bd52e0677be9355260500849bd739611e403b988ac", "addresses": ["1ATXQCjmMe1qopVQFr3Pd1zffu13nVvT9w"], "asm": "OP_DUP OP_HASH160 67bd52e0677be9355260500849bd739611e403b9 OP_EQUALVERIFY OP_CHECKSIG", "type": "pubkeyhash"}, "value": 0.00223314, "n": 1}], "hex": "010000000239d00b01139ebf7a246b0857bfa1bd25d9bafeb7d67f2734d13b4a08df213a67010000006a473044022006cedc29fdfa07ca4e53bff8b22dbc89ce79c8204bb707427868d1d6235aaaf302200c208c2a4051079e390d6b8163abf4867f585e618b12618ae8132a18075eb3d10121035bb2c6a9d65f99e138df266d1b4bea3d18e4b5f07ed8f54f35673845c86449b1ffffffff1cbd3663b21788b3f3f86dd12668c4f158823c085d4f75c20feb712de34641e0010000006b483045022100e35c5b97db67b9f1e3352eb23125c7c5f3851f09eb7c006ffd122e89cfd2030d02201234fd7703426ab0c5a39934840f2778e9aedd82f680fed7fb431317dbf0faff01210374d7e6755bed6d56d5f7ee40a4a781ee06c9c45f33891a79438b3d8f5c6a3f16ffffffff026e6c0100000000001976a914a195cf658253b7a2d2d8a3d2db02b94940f4ab4488ac52680300000000001976a91467bd52e0677be9355260500849bd739611e403b988ac00000000", "vin": [{"sequence": 4294967295, "scriptSig": {"hex": "473044022006cedc29fdfa07ca4e53bff8b22dbc89ce79c8204bb707427868d1d6235aaaf302200c208c2a4051079e390d6b8163abf4867f585e618b12618ae8132a18075eb3d10121035bb2c6a9d65f99e138df266d1b4bea3d18e4b5f07ed8f54f35673845c86449b1", "asm": "3044022006cedc29fdfa07ca4e53bff8b22dbc89ce79c8204bb707427868d1d6235aaaf302200c208c2a4051079e390d6b8163abf4867f585e618b12618ae8132a18075eb3d1[ALL] 035bb2c6a9d65f99e138df266d1b4bea3d18e4b5f07ed8f54f35673845c86449b1"}, "vout": 1, "txid": "673a21df084a3bd134277fd6b7febad925bda1bf57086b247abf9e13010bd039"}, {"sequence": 4294967295, "scriptSig": {"hex": "483045022100e35c5b97db67b9f1e3352eb23125c7c5f3851f09eb7c006ffd122e89cfd2030d02201234fd7703426ab0c5a39934840f2778e9aedd82f680fed7fb431317dbf0faff01210374d7e6755bed6d56d5f7ee40a4a781ee06c9c45f33891a79438b3d8f5c6a3f16", "asm": "3045022100e35c5b97db67b9f1e3352eb23125c7c5f3851f09eb7c006ffd122e89cfd2030d02201234fd7703426ab0c5a39934840f2778e9aedd82f680fed7fb431317dbf0faff[ALL] 0374d7e6755bed6d56d5f7ee40a4a781ee06c9c45f33891a79438b3d8f5c6a3f16"}, "vout": 1, "txid": "e04146e32d71eb0fc2754f5d083c8258f1c46826d16df8f3b38817b26336bd1c"}], "txid": "257059a32228665cb0cc53b3463c495dd9fe7f8caaa9e9e242c9d8d816b2cd27", "blocktime": 1537871767, "version": 1, "confirmations": 11492, "time": 1537871767, "locktime": 0, "vsize": 373, "size": 373}