{"hash": "257ed3bd58e0168a28126df6f07be61991a6681db080ffde700176a4e2da9936", "blockhash": "0000000000000000001cda96e906b7601b7a6fb1a3b62bca570a9e5d8f4b3de1", "vout": [{"scriptPubKey": {"type": "nulldata", "hex": "6a4c50000077d100018db13301a1b9b350ec67fd425b23cc0f42c2fc38c5e5bf9ae76da98a211a3cc616770e89ddbb7fc9a7f4c6f763565baa14480613be1a3ec7129ebc9a9526289ac0f6612cd74e33776ee4", "asm": "OP_RETURN 000077d100018db13301a1b9b350ec67fd425b23cc0f42c2fc38c5e5bf9ae76da98a211a3cc616770e89ddbb7fc9a7f4c6f763565baa14480613be1a3ec7129ebc9a9526289ac0f6612cd74e33776ee4"}, "value": 0.0, "n": 0}, {"scriptPubKey": {"reqSigs": 1, "hex": "76a91416f3740fad42158a2f876ef0ca4f7b94084356b188ac", "addresses": ["136MWf5g81xgwadn9h8aF4fZgmtTmj7PBW"], "asm": "OP_DUP OP_HASH160 16f3740fad42158a2f876ef0ca4f7b94084356b1 OP_EQUALVERIFY OP_CHECKSIG", "type": "pubkeyhash"}, "value": 0.0008698, "n": 1}], "hex": "010000000158c13e455a9ec5c82404a4ec95049c4e42fc160f6eb7c27128f915058cb929bf000000006a473044022076c6ebb460c46c6bb18ec3389f97f933ab97f4238f388401eb84a35b8589a6c002205ab010defa265ae52222ebe3dc96c2176a871f3168f09b03390702407a8ae012012102d9a547a8eade05351b6da9209e7c61875256a5c913cb94b91509afc6fdea0cdfffffffff020000000000000000536a4c50000077d100018db13301a1b9b350ec67fd425b23cc0f42c2fc38c5e5bf9ae76da98a211a3cc616770e89ddbb7fc9a7f4c6f763565baa14480613be1a3ec7129ebc9a9526289ac0f6612cd74e33776ee4c4530100000000001976a91416f3740fad42158a2f876ef0ca4f7b94084356b188ac00000000", "vin": [{"sequence": 4294967295, "scriptSig": {"hex": "473044022076c6ebb460c46c6bb18ec3389f97f933ab97f4238f388401eb84a35b8589a6c002205ab010defa265ae52222ebe3dc96c2176a871f3168f09b03390702407a8ae012012102d9a547a8eade05351b6da9209e7c61875256a5c913cb94b91509afc6fdea0cdf", "asm": "3044022076c6ebb460c46c6bb18ec3389f97f933ab97f4238f388401eb84a35b8589a6c002205ab010defa265ae52222ebe3dc96c2176a871f3168f09b03390702407a8ae012[ALL] 02d9a547a8eade05351b6da9209e7c61875256a5c913cb94b91509afc6fdea0cdf"}, "vout": 0, "txid": "bf29b98c0515f92871c2b76e0f16fc424e9c0495eca40424c8c59e5a453ec158"}], "txid": "257ed3bd58e0168a28126df6f07be61991a6681db080ffde700176a4e2da9936", "blocktime": 1537873282, "version": 1, "confirmations": 11484, "time": 1537873282, "locktime": 0, "vsize": 283, "size": 283}