{"hash": "2584b030d9956fa1ec92dccf71abc1d9879f7e3b18a0f413c6a411eded978a9b", "blockhash": "0000000000000000001f76057863aec43deb6fa401d9628bb513d65a8098bfab", "vout": [{"scriptPubKey": {"reqSigs": 1, "hex": "76a9141732e9bc0f64223b783916f99fd02d77ec16c93088ac", "addresses": ["137fXur7Koqx72GU5E9xeS27Ut81g9cCiP"], "asm": "OP_DUP OP_HASH160 1732e9bc0f64223b783916f99fd02d77ec16c930 OP_EQUALVERIFY OP_CHECKSIG", "type": "pubkeyhash"}, "value": 0.01445, "n": 0}, {"scriptPubKey": {"reqSigs": 1, "hex": "a914e370231feecbfc25e2e2423a5a79bf79bfdca59887", "addresses": ["3NRbeX3vD5VaVE4TDU9ivCDsEf7NPPte6J"], "asm": "OP_HASH160 e370231feecbfc25e2e2423a5a79bf79bfdca598 OP_EQUAL", "type": "scripthash"}, "value": 10.26511638, "n": 1}], "hex": "01000000018c671f6d801f3b2ae6e98397a6db83cdb24ee34e5f691ec9e2a62b6bdfc2539e01000000db00483045022100ca5995a6068cf061abc49393f04b7b81efb67486b410af4dab2973ce0f8d87f60220704ace4896b98135d51897be397fb9c914f2477dda6bc2d2abf2a5a867b6688001483045022100d5dda292f9d91f454e621bd46da65991f7034ab6756068d6e5caf4ab9714b42802206464eb98e2062ce3d9267ab575cc22b998b472a54a04dfff294cd082e2c2a973014752210327881b6abce6535553a3ce21fad12a7d74fd237ce7c4cd270a267162344e3082210256141f8eb687f5a68c5cc65054652dc25116fa285e44d72b44368827ffe77d9a52aeffffffff02880c1600000000001976a9141732e9bc0f64223b783916f99fd02d77ec16c93088ac16532f3d0000000017a914e370231feecbfc25e2e2423a5a79bf79bfdca5988700000000", "vin": [{"sequence": 4294967295, "scriptSig": {"hex": "00483045022100ca5995a6068cf061abc49393f04b7b81efb67486b410af4dab2973ce0f8d87f60220704ace4896b98135d51897be397fb9c914f2477dda6bc2d2abf2a5a867b6688001483045022100d5dda292f9d91f454e621bd46da65991f7034ab6756068d6e5caf4ab9714b42802206464eb98e2062ce3d9267ab575cc22b998b472a54a04dfff294cd082e2c2a973014752210327881b6abce6535553a3ce21fad12a7d74fd237ce7c4cd270a267162344e3082210256141f8eb687f5a68c5cc65054652dc25116fa285e44d72b44368827ffe77d9a52ae", "asm": "0 3045022100ca5995a6068cf061abc49393f04b7b81efb67486b410af4dab2973ce0f8d87f60220704ace4896b98135d51897be397fb9c914f2477dda6bc2d2abf2a5a867b66880[ALL] 3045022100d5dda292f9d91f454e621bd46da65991f7034ab6756068d6e5caf4ab9714b42802206464eb98e2062ce3d9267ab575cc22b998b472a54a04dfff294cd082e2c2a973[ALL] 52210327881b6abce6535553a3ce21fad12a7d74fd237ce7c4cd270a267162344e3082210256141f8eb687f5a68c5cc65054652dc25116fa285e44d72b44368827ffe77d9a52ae"}, "vout": 1, "txid": "9e53c2df6b2ba6e2c91e695f4ee34eb2cd83dba69783e9e62a3b1f806d1f678c"}], "txid": "2584b030d9956fa1ec92dccf71abc1d9879f7e3b18a0f413c6a411eded978a9b", "blocktime": 1537873891, "version": 1, "confirmations": 11478, "time": 1537873891, "locktime": 0, "vsize": 336, "size": 336}