{"hash": "1996f3e0cb0d1644975f2463ebb1a4f777bfa674fdf65aa24e587e3a23763333", "blockhash": "000000000000000000022b45ed06c6f4ccd3cf7fb5ba4856ebd2e58215665228", "vout": [{"scriptPubKey": {"reqSigs": 1, "hex": "a91486d0b25972bf68fe0565d8654bdc8d9a3e0d796487", "addresses": ["3DyrUkMpV5e5voD99Ljx1gRpv2XPVmELjj"], "asm": "OP_HASH160 86d0b25972bf68fe0565d8654bdc8d9a3e0d7964 OP_EQUAL", "type": "scripthash"}, "value": 0.0054636, "n": 0}, {"scriptPubKey": {"reqSigs": 1, "hex": "a91428e4adcc419fb4d310564a102641e1ae125a5f8a87", "addresses": ["35REu74eyjY6cMMqjT13qUZoQr9cvhHZMz"], "asm": "OP_HASH160 28e4adcc419fb4d310564a102641e1ae125a5f8a OP_EQUAL", "type": "scripthash"}, "value": 0.01000014, "n": 1}], "hex": "020000000001020cd9c7f5109012ece60bb1d5414b69d54b2fb81b0706dfcce2588ab27b66ba6c00000000171600144e3e9b1fa35eb3ca353a74911178219dc7b26856feffffffdff170f67c83efe6164cfd42039154886c035b666866911433cb972c4fff8cbf01000000171600143be679d8acb41fe71a1fcab7a6156f62a292c4a3feffffff02385608000000000017a91486d0b25972bf68fe0565d8654bdc8d9a3e0d7964874e420f000000000017a91428e4adcc419fb4d310564a102641e1ae125a5f8a870248304502210090d5d4afc1f35fa984d8ce13fa496fe4d530f08e0b32e7b099ac4ed7acbc81b8022052b3a7c890308e96296d764ffd0ec2d16c99be55132fb990467bbd759945ba3b0121030c13bdaa7346a8553a5859ee8bc8b8e60c10859448df5dbd81f590f7082a843b02483045022100881ef22e996276c5d1f6dd94ad48c8da76341d5dc740d6124fd970651cde3f2902203ac7d43ab9831b5e4c1e63975d8e9545aa6c034974692340d36593fd0d406acd012102860a7b43ea733f75006041eee8afc30547457ee6f5f208b5db53f6b83a2c91720b490800", "vin": [{"txinwitness": ["304502210090d5d4afc1f35fa984d8ce13fa496fe4d530f08e0b32e7b099ac4ed7acbc81b8022052b3a7c890308e96296d764ffd0ec2d16c99be55132fb990467bbd759945ba3b01", "030c13bdaa7346a8553a5859ee8bc8b8e60c10859448df5dbd81f590f7082a843b"], "sequence": 4294967294, "scriptSig": {"hex": "1600144e3e9b1fa35eb3ca353a74911178219dc7b26856", "asm": "00144e3e9b1fa35eb3ca353a74911178219dc7b26856"}, "vout": 0, "txid": "6cba667bb28a58e2ccdf06071bb82f4bd5694b41d5b10be6ec129010f5c7d90c"}, {"txinwitness": ["3045022100881ef22e996276c5d1f6dd94ad48c8da76341d5dc740d6124fd970651cde3f2902203ac7d43ab9831b5e4c1e63975d8e9545aa6c034974692340d36593fd0d406acd01", "02860a7b43ea733f75006041eee8afc30547457ee6f5f208b5db53f6b83a2c9172"], "sequence": 4294967294, "scriptSig": {"hex": "1600143be679d8acb41fe71a1fcab7a6156f62a292c4a3", "asm": "00143be679d8acb41fe71a1fcab7a6156f62a292c4a3"}, "vout": 1, "txid": "bf8cff4f2c97cb3314916668665b036c8854910342fd4c16e6ef837cf670f1df"}], "txid": "2588516b49baaaccf8c90f59c1db8b031e82dc0b6e71bd5298410cb83601ec76", "blocktime": 1537869901, "version": 2, "confirmations": 11524, "time": 1537869901, "locktime": 542987, "vsize": 257, "size": 420}