{"hash": "ac495248eb0dbf5f6c5eb71480ac2755bb1046b5783988a64d9eb254e986240c", "blockhash": "0000000000000000001cda96e906b7601b7a6fb1a3b62bca570a9e5d8f4b3de1", "vout": [{"scriptPubKey": {"reqSigs": 1, "hex": "a9148b5dfcf6a89f22342bf47abb5bba1254e1f80d8f87", "addresses": ["3EPvScq3LrV4dVNFaNTnBE2wn9GdhTiNDw"], "asm": "OP_HASH160 8b5dfcf6a89f22342bf47abb5bba1254e1f80d8f OP_EQUAL", "type": "scripthash"}, "value": 0.00999879, "n": 0}, {"scriptPubKey": {"reqSigs": 1, "hex": "a9145fa218556907b4efcad7a6c7d3ffc78b3ba7f43387", "addresses": ["3AQgJL4KbL49VZPC2hiPcKMGPFMgkKRqFK"], "asm": "OP_HASH160 5fa218556907b4efcad7a6c7d3ffc78b3ba7f433 OP_EQUAL", "type": "scripthash"}, "value": 0.0001676, "n": 1}], "hex": "02000000000101da37530f6853b59f8290b68846850a721e8656d4e2fd7bb39c8a40a138ca3a8a01000000171600143adfa1f6dba6863fa6742e7daaef924d3b0cf57afeffffff02c7410f000000000017a9148b5dfcf6a89f22342bf47abb5bba1254e1f80d8f87784100000000000017a9145fa218556907b4efcad7a6c7d3ffc78b3ba7f4338702483045022100ae67567da5e9a7fc5b07e725f9b0e0bb1d462b030aaf37832474cc62417d37f4022052c9409dacdad0225eb97e5688a30467a6588d7a0a13967b9432e61b4442eb680121034bf320058d44067bd50ddacbff81390b03003d890e23e37be716917469e37c5813490800", "vin": [{"txinwitness": ["3045022100ae67567da5e9a7fc5b07e725f9b0e0bb1d462b030aaf37832474cc62417d37f4022052c9409dacdad0225eb97e5688a30467a6588d7a0a13967b9432e61b4442eb6801", "034bf320058d44067bd50ddacbff81390b03003d890e23e37be716917469e37c58"], "sequence": 4294967294, "scriptSig": {"hex": "1600143adfa1f6dba6863fa6742e7daaef924d3b0cf57a", "asm": "00143adfa1f6dba6863fa6742e7daaef924d3b0cf57a"}, "vout": 1, "txid": "8a3aca38a1408a9cb37bfde2d456861e720a854688b690829fb553680f5337da"}], "txid": "25974e34c4aba5370c4f2b3a499ecf0ffa51e269e6aac89ae62ff84bb52d8535", "blocktime": 1537873282, "version": 2, "confirmations": 11485, "time": 1537873282, "locktime": 542995, "vsize": 166, "size": 248}