{"hash": "259c0083c0214bc9478cba6774ae95783208a4ff83758b3d18da48e79ed66d41", "blockhash": "00000000000000000017f5eb5941039fbcee6240d03bc1f2f8e35350df66a1d8", "vout": [{"scriptPubKey": {"reqSigs": 1, "hex": "76a914480147092c6d9f635bae3e9bc85d6b3c1e91de9d88ac", "addresses": ["17ZjBaEHisfYenFBGG7A8T978Eib98WsHt"], "asm": "OP_DUP OP_HASH160 480147092c6d9f635bae3e9bc85d6b3c1e91de9d OP_EQUALVERIFY OP_CHECKSIG", "type": "pubkeyhash"}, "value": 0.0002503, "n": 0}, {"scriptPubKey": {"reqSigs": 1, "hex": "76a9145e2dbe4b02081bac2667cb0133a93b7288fd5b0088ac", "addresses": ["19ayKLQDgSVDxtmeotnTuDgqQKrkuxVouA"], "asm": "OP_DUP OP_HASH160 5e2dbe4b02081bac2667cb0133a93b7288fd5b00 OP_EQUALVERIFY OP_CHECKSIG", "type": "pubkeyhash"}, "value": 0.00603323, "n": 1}], "hex": "0100000001a14c7d75e76c3baae77f1641db493af20df63855301941cc51f046bd5c954e3c010000008b483045022100e091bb4d2460bace5b0eb1ee45e1f17994d4eaaec0a151adea971f5843fc16d20220416b49be0939cc3d6c3434b192f1298b221218e7d5ee92a07ea1a885c49987d0014104f9cc77fc1ef24dbf9ffcf9ac6ddd8bcf865ea75bcb1a759170c0d3cbbc30d6c377627d03361d48d9227b58a069e0f3f27ab2d4a8874551286e957159d51bba75ffffffff02c6610000000000001976a914480147092c6d9f635bae3e9bc85d6b3c1e91de9d88acbb340900000000001976a9145e2dbe4b02081bac2667cb0133a93b7288fd5b0088ac00000000", "vin": [{"sequence": 4294967295, "scriptSig": {"hex": "483045022100e091bb4d2460bace5b0eb1ee45e1f17994d4eaaec0a151adea971f5843fc16d20220416b49be0939cc3d6c3434b192f1298b221218e7d5ee92a07ea1a885c49987d0014104f9cc77fc1ef24dbf9ffcf9ac6ddd8bcf865ea75bcb1a759170c0d3cbbc30d6c377627d03361d48d9227b58a069e0f3f27ab2d4a8874551286e957159d51bba75", "asm": "3045022100e091bb4d2460bace5b0eb1ee45e1f17994d4eaaec0a151adea971f5843fc16d20220416b49be0939cc3d6c3434b192f1298b221218e7d5ee92a07ea1a885c49987d0[ALL] 04f9cc77fc1ef24dbf9ffcf9ac6ddd8bcf865ea75bcb1a759170c0d3cbbc30d6c377627d03361d48d9227b58a069e0f3f27ab2d4a8874551286e957159d51bba75"}, "vout": 1, "txid": "3c4e955cbd46f051cc4119305538f60df23a49db41167fe7aa3b6ce7757d4ca1"}], "txid": "259c0083c0214bc9478cba6774ae95783208a4ff83758b3d18da48e79ed66d41", "blocktime": 1537874412, "version": 1, "confirmations": 11468, "time": 1537874412, "locktime": 0, "vsize": 258, "size": 258}