{"hash": "25a2cd1f5f877dc18c6e994b93c0f71797c3b66f9108a86d2ba6063ccac23bf0", "blockhash": "0000000000000000001cda96e906b7601b7a6fb1a3b62bca570a9e5d8f4b3de1", "vout": [{"scriptPubKey": {"reqSigs": 1, "hex": "76a914efea91c5f32849824c5fc974b8466e120c11ed0288ac", "addresses": ["1NsZW1z57zmvJwZoYEG8QDgcrKKgfh4msP"], "asm": "OP_DUP OP_HASH160 efea91c5f32849824c5fc974b8466e120c11ed02 OP_EQUALVERIFY OP_CHECKSIG", "type": "pubkeyhash"}, "value": 0.0078035, "n": 0}, {"scriptPubKey": {"reqSigs": 1, "hex": "76a9149f8c769052ef052fc5d23f80cf1415864b9cd16488ac", "addresses": ["1FYci3xqLjeVrT4AfSWx1epqRREL149Fi1"], "asm": "OP_DUP OP_HASH160 9f8c769052ef052fc5d23f80cf1415864b9cd164 OP_EQUALVERIFY OP_CHECKSIG", "type": "pubkeyhash"}, "value": 0.00367542, "n": 1}], "hex": "0100000003c00c3861b7b1b70f0aa2c660728767347b3277e914400dcd6b1205c5836e246e010000006a47304402206ac5a1635306dfbd8c5e680bab7aa71e7205c8bb85f42c7e7ff8b16c3f1cbda502202f64b559dde5e35bb0a14796a29be6cb37ba67332e2be1ade4aff7db049960c5012103c4322b68e9c2a08410b20518474512e8bbf44675a3588f11caa6fe63a2cbd1abffffffff736b0671a39473d54f1d3a5fbd6b9848576916bad9e1441191907aad5abd308b010000006b48304502210090d959e099dd26b32ff4d72794a94c574e64fd68a7e63272a5cef38a1127298d0220150c8dab011879ca1aa3c8559dfb0cce75652f840b84b608e4f7887835a35ad1012102bd0ef2ae441a74b490e7f5acf4b781dedd1e11fca5bb6513945a7f9581b675d0ffffffff2484715fc4722297e2c929c12351801194eb0236187bb325803d713994f946d2010000006a473044022012eab19099f55a4155399d918c5f0198abdd0d2df778b2b3a465d5a8abfd567002202cd371cabc884ae633c750a01ffade0aaa71e7b4b35114b72b6ee2f5ba510ed60121039fb32419198dd106e8916cbf29c31ba54a718bedf3f650abb0f047d08f4f5d4fffffffff023ee80b00000000001976a914efea91c5f32849824c5fc974b8466e120c11ed0288acb69b0500000000001976a9149f8c769052ef052fc5d23f80cf1415864b9cd16488ac00000000", "vin": [{"sequence": 4294967295, "scriptSig": {"hex": "47304402206ac5a1635306dfbd8c5e680bab7aa71e7205c8bb85f42c7e7ff8b16c3f1cbda502202f64b559dde5e35bb0a14796a29be6cb37ba67332e2be1ade4aff7db049960c5012103c4322b68e9c2a08410b20518474512e8bbf44675a3588f11caa6fe63a2cbd1ab", "asm": "304402206ac5a1635306dfbd8c5e680bab7aa71e7205c8bb85f42c7e7ff8b16c3f1cbda502202f64b559dde5e35bb0a14796a29be6cb37ba67332e2be1ade4aff7db049960c5[ALL] 03c4322b68e9c2a08410b20518474512e8bbf44675a3588f11caa6fe63a2cbd1ab"}, "vout": 1, "txid": "6e246e83c505126bcd0d4014e977327b3467877260c6a20a0fb7b1b761380cc0"}, {"sequence": 4294967295, "scriptSig": {"hex": "48304502210090d959e099dd26b32ff4d72794a94c574e64fd68a7e63272a5cef38a1127298d0220150c8dab011879ca1aa3c8559dfb0cce75652f840b84b608e4f7887835a35ad1012102bd0ef2ae441a74b490e7f5acf4b781dedd1e11fca5bb6513945a7f9581b675d0", "asm": "304502210090d959e099dd26b32ff4d72794a94c574e64fd68a7e63272a5cef38a1127298d0220150c8dab011879ca1aa3c8559dfb0cce75652f840b84b608e4f7887835a35ad1[ALL] 02bd0ef2ae441a74b490e7f5acf4b781dedd1e11fca5bb6513945a7f9581b675d0"}, "vout": 1, "txid": "8b30bd5aad7a90911144e1d9ba16695748986bbd5f3a1d4fd57394a371066b73"}, {"sequence": 4294967295, "scriptSig": {"hex": "473044022012eab19099f55a4155399d918c5f0198abdd0d2df778b2b3a465d5a8abfd567002202cd371cabc884ae633c750a01ffade0aaa71e7b4b35114b72b6ee2f5ba510ed60121039fb32419198dd106e8916cbf29c31ba54a718bedf3f650abb0f047d08f4f5d4f", "asm": "3044022012eab19099f55a4155399d918c5f0198abdd0d2df778b2b3a465d5a8abfd567002202cd371cabc884ae633c750a01ffade0aaa71e7b4b35114b72b6ee2f5ba510ed6[ALL] 039fb32419198dd106e8916cbf29c31ba54a718bedf3f650abb0f047d08f4f5d4f"}, "vout": 1, "txid": "d246f99439713d8025b37b183602eb9411805123c129c9e2972272c45f718424"}], "txid": "25a2cd1f5f877dc18c6e994b93c0f71797c3b66f9108a86d2ba6063ccac23bf0", "blocktime": 1537873282, "version": 1, "confirmations": 11481, "time": 1537873282, "locktime": 0, "vsize": 520, "size": 520}