{"hash": "25a818d2e90db766e07416d1ba7cddb4148c8ccb1828f7685ca7ecf1f5c73a51", "blockhash": "0000000000000000001f0ddff1eddb255c1121bcd4da4f1bc9a0da00cae72433", "vout": [{"scriptPubKey": {"reqSigs": 1, "hex": "76a914c45d068b22f88ca15a03c7313d699046065e7ee088ac", "addresses": ["1JuGt8RfpPaKDBvLeKUhYHhVu6Cd6HqWsk"], "asm": "OP_DUP OP_HASH160 c45d068b22f88ca15a03c7313d699046065e7ee0 OP_EQUALVERIFY OP_CHECKSIG", "type": "pubkeyhash"}, "value": 0.03088592, "n": 0}], "hex": "0100000001f7fdddd2b3fb9f0e9e5307eba59d984ab5f2cc7493f954733a45745673252695000000006a47304402207db313778a1d0f6149d6727d979798d707dd92f29ba815d36297b420a2e3dbcc02204a1131386cd4d482f668a15d6b8bca4bb875e2380755487fcf37bfa9b8b71ccf0121022f9c14822e6774f425332b15c2d1fe9526ed672213ea37d8248b4398f65f5d26ffffffff01d0202f00000000001976a914c45d068b22f88ca15a03c7313d699046065e7ee088ac00000000", "vin": [{"sequence": 4294967295, "scriptSig": {"hex": "47304402207db313778a1d0f6149d6727d979798d707dd92f29ba815d36297b420a2e3dbcc02204a1131386cd4d482f668a15d6b8bca4bb875e2380755487fcf37bfa9b8b71ccf0121022f9c14822e6774f425332b15c2d1fe9526ed672213ea37d8248b4398f65f5d26", "asm": "304402207db313778a1d0f6149d6727d979798d707dd92f29ba815d36297b420a2e3dbcc02204a1131386cd4d482f668a15d6b8bca4bb875e2380755487fcf37bfa9b8b71ccf[ALL] 022f9c14822e6774f425332b15c2d1fe9526ed672213ea37d8248b4398f65f5d26"}, "vout": 0, "txid": "952625735674453a7354f99374ccf2b54a989da5eb07539e0e9ffbb3d2ddfdf7"}], "txid": "25a818d2e90db766e07416d1ba7cddb4148c8ccb1828f7685ca7ecf1f5c73a51", "blocktime": 1537872018, "version": 1, "confirmations": 11489, "time": 1537872018, "locktime": 0, "vsize": 191, "size": 191}