{"hash": "25a9f85b4ba63e71b38a8de0a8b1ab91485e9eb38e9ee47c78fb4314bcd64b94", "blockhash": "0000000000000000000e13cef7c366c0283d82e591d1acd082e914b08063cdf1", "vout": [{"scriptPubKey": {"reqSigs": 1, "hex": "76a914b73c0350ce2ba027de308ec051da93b4c8ba3cef88ac", "addresses": ["1HhrYsvSXX1iMo3vMjbWF9g1RofEyZ3b8V"], "asm": "OP_DUP OP_HASH160 b73c0350ce2ba027de308ec051da93b4c8ba3cef OP_EQUALVERIFY OP_CHECKSIG", "type": "pubkeyhash"}, "value": 0.23450618, "n": 0}, {"scriptPubKey": {"reqSigs": 1, "hex": "76a91407257bfe0b663152db5aba861d63eae1fcb14dda88ac", "addresses": ["1endoSockwzSutXFvv9P33BezC4tmXyoT"], "asm": "OP_DUP OP_HASH160 07257bfe0b663152db5aba861d63eae1fcb14dda OP_EQUALVERIFY OP_CHECKSIG", "type": "pubkeyhash"}, "value": 6e-05, "n": 1}, {"scriptPubKey": {"reqSigs": 1, "hex": "76a914bd38e7eb1d1d682e35fa116122c8fcac862e450f88ac", "addresses": ["1JFWt9fVNHyyjZMQVAKuiD7qabHrGYU9V3"], "asm": "OP_DUP OP_HASH160 bd38e7eb1d1d682e35fa116122c8fcac862e450f OP_EQUALVERIFY OP_CHECKSIG", "type": "pubkeyhash"}, "value": 0.00401622, "n": 2}], "hex": "0100000002ac7a0476be35fcef9bada8a23ab56227bbd7e7d8d3f00623b53c2b61c3d444c0010000006b483045022100946488f8e5d5a068ffcad8c95a65adafcafc636cef2e7423a55a23da1af784ad02207a6322d8222f314284fc1af4742e3420c6dd074786a532c0c65b705c5d33899b01210334b62a8c4e50853af41a41f12fff2315aec0c6dd7215c58681c4c66362d0acdbffffffff65bc4156931213e3118cb65b2a27fc90c6768cc753144c352eb69101139b8f8a010000006a47304402205f15aa630ff34b6d3b246b22726cd00f2bb17a3f58ef35e44c68d4678663e9b70220682de97268586faea0914784317a5b01dcde78e935b3881102dbe8680155fdaa012102bdcaca000b42f52d8d1b5f43693e7d23bb8ccf1b3b11ec219c723e7f51ee4d18ffffffff03fad36501000000001976a914b73c0350ce2ba027de308ec051da93b4c8ba3cef88ac70170000000000001976a91407257bfe0b663152db5aba861d63eae1fcb14dda88acd6200600000000001976a914bd38e7eb1d1d682e35fa116122c8fcac862e450f88ac00000000", "vin": [{"sequence": 4294967295, "scriptSig": {"hex": "483045022100946488f8e5d5a068ffcad8c95a65adafcafc636cef2e7423a55a23da1af784ad02207a6322d8222f314284fc1af4742e3420c6dd074786a532c0c65b705c5d33899b01210334b62a8c4e50853af41a41f12fff2315aec0c6dd7215c58681c4c66362d0acdb", "asm": "3045022100946488f8e5d5a068ffcad8c95a65adafcafc636cef2e7423a55a23da1af784ad02207a6322d8222f314284fc1af4742e3420c6dd074786a532c0c65b705c5d33899b[ALL] 0334b62a8c4e50853af41a41f12fff2315aec0c6dd7215c58681c4c66362d0acdb"}, "vout": 1, "txid": "c044d4c3612b3cb52306f0d3d8e7d7bb2762b53aa2a8ad9beffc35be76047aac"}, {"sequence": 4294967295, "scriptSig": {"hex": "47304402205f15aa630ff34b6d3b246b22726cd00f2bb17a3f58ef35e44c68d4678663e9b70220682de97268586faea0914784317a5b01dcde78e935b3881102dbe8680155fdaa012102bdcaca000b42f52d8d1b5f43693e7d23bb8ccf1b3b11ec219c723e7f51ee4d18", "asm": "304402205f15aa630ff34b6d3b246b22726cd00f2bb17a3f58ef35e44c68d4678663e9b70220682de97268586faea0914784317a5b01dcde78e935b3881102dbe8680155fdaa[ALL] 02bdcaca000b42f52d8d1b5f43693e7d23bb8ccf1b3b11ec219c723e7f51ee4d18"}, "vout": 1, "txid": "8a8f9b130191b62e354c1453c78c76c690fc272a5bb68c11e31312935641bc65"}], "txid": "25a9f85b4ba63e71b38a8de0a8b1ab91485e9eb38e9ee47c78fb4314bcd64b94", "blocktime": 1537871767, "version": 1, "confirmations": 11493, "time": 1537871767, "locktime": 0, "vsize": 407, "size": 407}