{"hash": "25b0c31fa7bb51f519c394d7e9a508d59a575c2a63b384be924b23ce3d22b99c", "blockhash": "00000000000000000017f5eb5941039fbcee6240d03bc1f2f8e35350df66a1d8", "vout": [{"scriptPubKey": {"reqSigs": 1, "hex": "76a914c846a2f779984ebd4c1525a8838eb1fda6934a6088ac", "addresses": ["1KFxmHNgKcV9UWcgZzskRsjnurDod6k4Y8"], "asm": "OP_DUP OP_HASH160 c846a2f779984ebd4c1525a8838eb1fda6934a60 OP_EQUALVERIFY OP_CHECKSIG", "type": "pubkeyhash"}, "value": 0.00147091, "n": 0}, {"scriptPubKey": {"reqSigs": 1, "hex": "a9142ec186b1e3c63a0ac8782679b636addae01a429d87", "addresses": ["35xEqoPsHX9obWNQQ3HZMPizsutvE3v9dg"], "asm": "OP_HASH160 2ec186b1e3c63a0ac8782679b636addae01a429d OP_EQUAL", "type": "scripthash"}, "value": 0.082, "n": 1}], "hex": "0100000003219a0d6b53127b66adebfe454f3faba17c8bbc6fea9db61b21a3788c1acc5099000000006b483045022100a278ba8c1291f248dd5890d8ea0d69d10aea3486cd9bf3966007dda77aa0a7a30220369fe376f312b92ade31f82cae0af6766c7635fae41c48a78ce4c6f2b2eee1f4012103389e36bf4ba8037f73f694a5a5a4c4ee05a58525532b1a0b994d5fbe5cedb77affffffff698716d345d4aff0f8dc4456f35eeffeacbdf14a0d8697a8b410b34acff6dbaf000000006b483045022100cf644baa238e07cd2ecb2906423032ef048da2c08cb7a04f9551533815e50bb402201407a2feed69bc51cadace406e5a0758c97cb04a5dfeaf7af6e83889222335ec0121029040380baa3a2f9b8f39f9abb8a2cd896e5387cb2c419b8e0c0fd56a9d3caf0dffffffff0eb4ccb7a194cb5d97b5c2bebd264706e147e525fb6da2d682092ad69ed647e6000000006a47304402203f50917b9abed23248e52777eac18d081fdc3ba6740b64cb06697708d3eb1b4b02203419da8b457d007fb5639f4367dddf55c112ed44cc95c722557e2d666e017745012103457677d45f19bd30dca1ca947b8d69afdba985b45754102532a67495507f70aeffffffff02933e0200000000001976a914c846a2f779984ebd4c1525a8838eb1fda6934a6088ac401f7d000000000017a9142ec186b1e3c63a0ac8782679b636addae01a429d8700000000", "vin": [{"sequence": 4294967295, "scriptSig": {"hex": "483045022100a278ba8c1291f248dd5890d8ea0d69d10aea3486cd9bf3966007dda77aa0a7a30220369fe376f312b92ade31f82cae0af6766c7635fae41c48a78ce4c6f2b2eee1f4012103389e36bf4ba8037f73f694a5a5a4c4ee05a58525532b1a0b994d5fbe5cedb77a", "asm": "3045022100a278ba8c1291f248dd5890d8ea0d69d10aea3486cd9bf3966007dda77aa0a7a30220369fe376f312b92ade31f82cae0af6766c7635fae41c48a78ce4c6f2b2eee1f4[ALL] 03389e36bf4ba8037f73f694a5a5a4c4ee05a58525532b1a0b994d5fbe5cedb77a"}, "vout": 0, "txid": "9950cc1a8c78a3211bb69dea6fbc8b7ca1ab3f4f45feebad667b12536b0d9a21"}, {"sequence": 4294967295, "scriptSig": {"hex": "483045022100cf644baa238e07cd2ecb2906423032ef048da2c08cb7a04f9551533815e50bb402201407a2feed69bc51cadace406e5a0758c97cb04a5dfeaf7af6e83889222335ec0121029040380baa3a2f9b8f39f9abb8a2cd896e5387cb2c419b8e0c0fd56a9d3caf0d", "asm": "3045022100cf644baa238e07cd2ecb2906423032ef048da2c08cb7a04f9551533815e50bb402201407a2feed69bc51cadace406e5a0758c97cb04a5dfeaf7af6e83889222335ec[ALL] 029040380baa3a2f9b8f39f9abb8a2cd896e5387cb2c419b8e0c0fd56a9d3caf0d"}, "vout": 0, "txid": "afdbf6cf4ab310b4a897860d4af1bdacfeef5ef35644dcf8f0afd445d3168769"}, {"sequence": 4294967295, "scriptSig": {"hex": "47304402203f50917b9abed23248e52777eac18d081fdc3ba6740b64cb06697708d3eb1b4b02203419da8b457d007fb5639f4367dddf55c112ed44cc95c722557e2d666e017745012103457677d45f19bd30dca1ca947b8d69afdba985b45754102532a67495507f70ae", "asm": "304402203f50917b9abed23248e52777eac18d081fdc3ba6740b64cb06697708d3eb1b4b02203419da8b457d007fb5639f4367dddf55c112ed44cc95c722557e2d666e017745[ALL] 03457677d45f19bd30dca1ca947b8d69afdba985b45754102532a67495507f70ae"}, "vout": 0, "txid": "e647d69ed62a0982d6a26dfb25e547e1064726bdbec2b5975dcb94a1b7ccb40e"}], "txid": "25b0c31fa7bb51f519c394d7e9a508d59a575c2a63b384be924b23ce3d22b99c", "blocktime": 1537874412, "version": 1, "confirmations": 11467, "time": 1537874412, "locktime": 0, "vsize": 519, "size": 519}