{"hash": "1f9b673c14a817a8e0e428abdc98cf296702fe2d7eb1fccc6f33339130d5de6e", "blockhash": "00000000000000000017f5eb5941039fbcee6240d03bc1f2f8e35350df66a1d8", "vout": [{"scriptPubKey": {"reqSigs": 1, "hex": "a914f2f64045d578f053188b37324d38a9b26ed3935a87", "addresses": ["3PqgSnpC8Xt1MEh1M5XN21uXWV4NNsRS6a"], "asm": "OP_HASH160 f2f64045d578f053188b37324d38a9b26ed3935a OP_EQUAL", "type": "scripthash"}, "value": 15.0, "n": 0}, {"scriptPubKey": {"reqSigs": 1, "hex": "a914d300ee401bc4ffa847b95c71226497b7f7fdda5087", "addresses": ["3LvhcgcRSy1m1YETYF5BoVoe8zmzXFNVxh"], "asm": "OP_HASH160 d300ee401bc4ffa847b95c71226497b7f7fdda50 OP_EQUAL", "type": "scripthash"}, "value": 0.00997315, "n": 1}], "hex": "020000000001055ac6113992b98c417ff22f6c3507f7aef68943e951b54baf15561acf178f2d2b0000000017160014779a521b29982b2d127df1adda97fb837fa1dd68feffffff73f2264fac2b37118d88441e2f0477571c652e6c6df603822f268dc4531a5c320100000017160014d8a7bc93fc3afdfe4e9289087877f9af896b1095feffffff7c52d7fb1020d1ae966871dd15c4191ac8559134d88c7d2ed1d405c51100c1420000000017160014091f4e91a09a3fb108f045cd0db851152b2aa99afeffffff97628d06d33cce82175eabf784dedcf57263f9352814c9e5f6fa3856d92266280100000017160014d338dd3379df8f162c8966bd521536adbb3542fefeffffffb82d26d75bd62bbce7a28f3d6ada55707c0c6549efafd24f20ec398a496f1e6301000000171600141f27674972e8c7cee7177fa77a0cdc5d43ccec0afeffffff02002f68590000000017a914f2f64045d578f053188b37324d38a9b26ed3935a87c3370f000000000017a914d300ee401bc4ffa847b95c71226497b7f7fdda5087024730440220791d58716fa40247d8a9644b84545a7ca25b37bc5e47eaeb5a4012701f6a436202206589f5994a99bad2f9c3253fe6baff7ac98ae328501df0305531093e69071bea012103dc94f8cfcd1f6cdcefebbf0642d5aa00fd89b3184fa2095907c3f2ebf0cb8a3c0247304402204145f7838e387ae65412406f7146510199819bc06c4df05b523b0de73428c76c02202ab2042d2f2d4a0376ba5681e64e87fc3819372583014a1986032ae7f81dd4dd012102338769c14b2d45c68cd5669d4130b4af15a5288b332ab844fef48788bf49223402483045022100d81c219d8803937e8bcf9f7515e93c3e2f74835d1482f8180bcc7ab4b517093202207075a072537dccc6bbc6b09cac369eea3e90045c8826c3315dc82450a9ec01640121022da4a8e00f77f71d743b61d801018af94ac30dec385433d2bbd683da10de106202483045022100d6d73688274b6d0854d5a4617a034653da1b683d76961eb55753a223497f8e5302205fe8373f16119f9748798065a5cc37a41d6f1fad2d6a7dc6a552a9300cb93342012103e6f7257ece47b2e66781f0e892db53585e0ea47a5c049729ee30cc5922447def0247304402200393e8ff16d57a8af15fa950786c470621ed7049e5e0186c91a17fac648a5de2022024405f20d7e475d8d4dd9776e1dcdf61f9e0697b3bcafd05dd8a4d814324f30d0121034d6a976921fcc2d906e25ee621367eaf6aa1c75b19571d153cac4f792238235015490800", "vin": [{"txinwitness": ["30440220791d58716fa40247d8a9644b84545a7ca25b37bc5e47eaeb5a4012701f6a436202206589f5994a99bad2f9c3253fe6baff7ac98ae328501df0305531093e69071bea01", "03dc94f8cfcd1f6cdcefebbf0642d5aa00fd89b3184fa2095907c3f2ebf0cb8a3c"], "sequence": 4294967294, "scriptSig": {"hex": "160014779a521b29982b2d127df1adda97fb837fa1dd68", "asm": "0014779a521b29982b2d127df1adda97fb837fa1dd68"}, "vout": 0, "txid": "2b2d8f17cf1a5615af4bb551e94389f6aef707356c2ff27f418cb9923911c65a"}, {"txinwitness": ["304402204145f7838e387ae65412406f7146510199819bc06c4df05b523b0de73428c76c02202ab2042d2f2d4a0376ba5681e64e87fc3819372583014a1986032ae7f81dd4dd01", "02338769c14b2d45c68cd5669d4130b4af15a5288b332ab844fef48788bf492234"], "sequence": 4294967294, "scriptSig": {"hex": "160014d8a7bc93fc3afdfe4e9289087877f9af896b1095", "asm": "0014d8a7bc93fc3afdfe4e9289087877f9af896b1095"}, "vout": 1, "txid": "325c1a53c48d262f8203f66d6c2e651c5777042f1e44888d11372bac4f26f273"}, {"txinwitness": ["3045022100d81c219d8803937e8bcf9f7515e93c3e2f74835d1482f8180bcc7ab4b517093202207075a072537dccc6bbc6b09cac369eea3e90045c8826c3315dc82450a9ec016401", "022da4a8e00f77f71d743b61d801018af94ac30dec385433d2bbd683da10de1062"], "sequence": 4294967294, "scriptSig": {"hex": "160014091f4e91a09a3fb108f045cd0db851152b2aa99a", "asm": "0014091f4e91a09a3fb108f045cd0db851152b2aa99a"}, "vout": 0, "txid": "42c10011c505d4d12e7d8cd8349155c81a19c415dd716896aed12010fbd7527c"}, {"txinwitness": ["3045022100d6d73688274b6d0854d5a4617a034653da1b683d76961eb55753a223497f8e5302205fe8373f16119f9748798065a5cc37a41d6f1fad2d6a7dc6a552a9300cb9334201", "03e6f7257ece47b2e66781f0e892db53585e0ea47a5c049729ee30cc5922447def"], "sequence": 4294967294, "scriptSig": {"hex": "160014d338dd3379df8f162c8966bd521536adbb3542fe", "asm": "0014d338dd3379df8f162c8966bd521536adbb3542fe"}, "vout": 1, "txid": "286622d95638faf6e5c9142835f96372f5dcde84f7ab5e1782ce3cd3068d6297"}, {"txinwitness": ["304402200393e8ff16d57a8af15fa950786c470621ed7049e5e0186c91a17fac648a5de2022024405f20d7e475d8d4dd9776e1dcdf61f9e0697b3bcafd05dd8a4d814324f30d01", "034d6a976921fcc2d906e25ee621367eaf6aa1c75b19571d153cac4f7922382350"], "sequence": 4294967294, "scriptSig": {"hex": "1600141f27674972e8c7cee7177fa77a0cdc5d43ccec0a", "asm": "00141f27674972e8c7cee7177fa77a0cdc5d43ccec0a"}, "vout": 1, "txid": "631e6f498a39ec204fd2afef49650c7c7055da6a3d8fa2e7bc2bd65bd7262db8"}], "txid": "25b5e25bb59e97cd8c40fff5d8e3b000c3df521b26313c3dfce27bf49d353809", "blocktime": 1537874412, "version": 2, "confirmations": 11467, "time": 1537874412, "locktime": 542997, "vsize": 529, "size": 933}