{"hash": "dd4e68ce2457aa33b13efaa42c8109b4b0bf0fbc48b470b03888c546734e7953", "blockhash": "00000000000000000017f5eb5941039fbcee6240d03bc1f2f8e35350df66a1d8", "vout": [{"scriptPubKey": {"type": "nulldata", "hex": "6a146f6d6e69000000000000001f00000036994a0900", "asm": "OP_RETURN 6f6d6e69000000000000001f00000036994a0900"}, "value": 0.0, "n": 0}, {"scriptPubKey": {"reqSigs": 1, "hex": "a914e818e90b8e6b38dba66f74b35cb708bbc73e2ea787", "addresses": ["3NrEXrB9qAxXYfRt6jKtBD8QzoU2qtNWDR"], "asm": "OP_HASH160 e818e90b8e6b38dba66f74b35cb708bbc73e2ea7 OP_EQUAL", "type": "scripthash"}, "value": 2.73e-05, "n": 1}, {"scriptPubKey": {"reqSigs": 1, "hex": "a914e818e90b8e6b38dba66f74b35cb708bbc73e2ea787", "addresses": ["3NrEXrB9qAxXYfRt6jKtBD8QzoU2qtNWDR"], "asm": "OP_HASH160 e818e90b8e6b38dba66f74b35cb708bbc73e2ea7 OP_EQUAL", "type": "scripthash"}, "value": 19.10700714, "n": 2}], "hex": "0100000000010236cc968c20021a55ad3c5a44b02aea3ab6547d388395eb4ae46264eee5c29ab00200000017160014046d5b153932b8c7f6fcf5f78c0f8cbec1c9c517ffffffffdd3222cbbc7a4fd11583930afe2f97d02afaa5781fe9d2e9cfeb0a9c82de89bb02000000171600142a1fb4f21b604dd19b016069ed27100044e91962ffffffff030000000000000000166a146f6d6e69000000000000001f00000036994a0900aa0a00000000000017a914e818e90b8e6b38dba66f74b35cb708bbc73e2ea787aafae2710000000017a914e818e90b8e6b38dba66f74b35cb708bbc73e2ea787024730440220708801d9abe0f7faaade82b182d4768ec076a480d416d2041146115b809843fc022034bb564d56f5c6176b1bed774fb2329011eaf3b928a3f005fbdeed063b4b34fe0121037ac781f93b33ab06c71bc1aac02d1d3864d27e619c0c02c1f5f134f7c246712e0247304402205c3e993a3f44e92eb03e7d23b72be3f9728c57cd0083efc06149281de28ed4020220229b9ad00e9ab5e29ef077403ba5801ffe9031e33c7e485c17c8cfa79f60d0a801210276e2e2e95b3a442a0d2e655454a70a03167adda61a6bce61444ffae3c04cdc3b00000000", "vin": [{"txinwitness": ["30440220708801d9abe0f7faaade82b182d4768ec076a480d416d2041146115b809843fc022034bb564d56f5c6176b1bed774fb2329011eaf3b928a3f005fbdeed063b4b34fe01", "037ac781f93b33ab06c71bc1aac02d1d3864d27e619c0c02c1f5f134f7c246712e"], "sequence": 4294967295, "scriptSig": {"hex": "160014046d5b153932b8c7f6fcf5f78c0f8cbec1c9c517", "asm": "0014046d5b153932b8c7f6fcf5f78c0f8cbec1c9c517"}, "vout": 2, "txid": "b09ac2e5ee6462e44aeb9583387d54b63aea2ab0445a3cad551a02208c96cc36"}, {"txinwitness": ["304402205c3e993a3f44e92eb03e7d23b72be3f9728c57cd0083efc06149281de28ed4020220229b9ad00e9ab5e29ef077403ba5801ffe9031e33c7e485c17c8cfa79f60d0a801", "0276e2e2e95b3a442a0d2e655454a70a03167adda61a6bce61444ffae3c04cdc3b"], "sequence": 4294967295, "scriptSig": {"hex": "1600142a1fb4f21b604dd19b016069ed27100044e91962", "asm": "00142a1fb4f21b604dd19b016069ed27100044e91962"}, "vout": 2, "txid": "bb89de829c0aebcfe9d2e91f78a5fa2ad0972ffe0a938315d14f7abccb2232dd"}], "txid": "25bae8dbdbfbf47b5f133cdccceca3bc96beeb6c912bb47498d5f3700208205a", "blocktime": 1537874412, "version": 1, "confirmations": 11467, "time": 1537874412, "locktime": 0, "vsize": 287, "size": 449}