{"hash": "42ba940bc73520f67de7776f851bbec8a3e0494cc0a6628f49f7010f264ec5da", "blockhash": "0000000000000000001cda96e906b7601b7a6fb1a3b62bca570a9e5d8f4b3de1", "vout": [{"scriptPubKey": {"reqSigs": 1, "hex": "a91469f37417e08d37b6ee5b780462a7ef8762200e7b87", "addresses": ["3BMEX8YiaRRqobS8sCNKP5pcpN2TWkr1Ro"], "asm": "OP_HASH160 69f37417e08d37b6ee5b780462a7ef8762200e7b OP_EQUAL", "type": "scripthash"}, "value": 0.012096, "n": 0}, {"scriptPubKey": {"reqSigs": 1, "hex": "0014b94a898edfb89011cbb84b2d9f1212ee17fb9b49", "addresses": ["bc1qh99gnrklhzgprjacfvke7ysjactlhx6f73fghj"], "asm": "0 b94a898edfb89011cbb84b2d9f1212ee17fb9b49", "type": "witness_v0_keyhash"}, "value": 0.60251362, "n": 1}], "hex": "01000000000101070778f48f2d8620cc348f0d480f2500fd2c28a36ee2087985409ad56fae35400100000000ffffffff02007512000000000017a91469f37417e08d37b6ee5b780462a7ef8762200e7b87e25c970300000000160014b94a898edfb89011cbb84b2d9f1212ee17fb9b4902483045022100a2febd958830ff774fc3e9b8f23dd28c8172f41369b247ae4ec1c82978a21d1602204658e2d3a033d3bdb277496c0c8c1d97f68a5af82c5d2efca4a0a807e7522ff40121030b1b1c93d9b88dd6367ab50965335098c5801aad332f526321107bfaae4f2d0400000000", "vin": [{"txinwitness": ["3045022100a2febd958830ff774fc3e9b8f23dd28c8172f41369b247ae4ec1c82978a21d1602204658e2d3a033d3bdb277496c0c8c1d97f68a5af82c5d2efca4a0a807e7522ff401", "030b1b1c93d9b88dd6367ab50965335098c5801aad332f526321107bfaae4f2d04"], "sequence": 4294967295, "scriptSig": {"hex": "", "asm": ""}, "vout": 1, "txid": "4035ae6fd59a40857908e26ea3282cfd00250f480d8f34cc20862d8ff4780707"}], "txid": "25c4a81b7b1519f23888c0979b86d8a995fb88584568f7a69275ccffa7191e92", "blocktime": 1537873282, "version": 1, "confirmations": 11484, "time": 1537873282, "locktime": 0, "vsize": 142, "size": 224}