{"hash": "25c7afe3994e136edd8a74b044db782eaa2ca0329cef4b946db47344b80c0f97", "blockhash": "0000000000000000001f0ddff1eddb255c1121bcd4da4f1bc9a0da00cae72433", "vout": [{"scriptPubKey": {"reqSigs": 1, "hex": "76a914527709e5ce2efab5a9ea5ca306648310c77cf81388ac", "addresses": ["18X31gXBUQkmWrbXznBsP3TGJL9V6F1Hs6"], "asm": "OP_DUP OP_HASH160 527709e5ce2efab5a9ea5ca306648310c77cf813 OP_EQUALVERIFY OP_CHECKSIG", "type": "pubkeyhash"}, "value": 0.00068399, "n": 0}, {"scriptPubKey": {"reqSigs": 1, "hex": "76a914877cc1e24b26f62fefa04c4b351e161cf9c5596188ac", "addresses": ["1DMPgC3USe1vu5aqqaERtNRnAv3YPKAyex"], "asm": "OP_DUP OP_HASH160 877cc1e24b26f62fefa04c4b351e161cf9c55961 OP_EQUALVERIFY OP_CHECKSIG", "type": "pubkeyhash"}, "value": 0.00232932, "n": 1}], "hex": "0100000001f867ba4bf112903a81c5350c7249d2d98781fd9c3789a01a43efaeccd608a962010000006b483045022100dcb72e415e5d23a506a320477e88cdc132d5f8c93a1b3c4aab64a42c5ac8036c022019cf16ae45a881eaa7c12f70bbea0034417e704c2bc1c940065ee08ce56ca3830121032039eb8d7daf39524e4ecdcbb8037a243bf901de3a4525ff73f3bbb44fb1acfefdffffff022f0b0100000000001976a914527709e5ce2efab5a9ea5ca306648310c77cf81388ace48d0300000000001976a914877cc1e24b26f62fefa04c4b351e161cf9c5596188ac10490800", "vin": [{"sequence": 4294967293, "scriptSig": {"hex": "483045022100dcb72e415e5d23a506a320477e88cdc132d5f8c93a1b3c4aab64a42c5ac8036c022019cf16ae45a881eaa7c12f70bbea0034417e704c2bc1c940065ee08ce56ca3830121032039eb8d7daf39524e4ecdcbb8037a243bf901de3a4525ff73f3bbb44fb1acfe", "asm": "3045022100dcb72e415e5d23a506a320477e88cdc132d5f8c93a1b3c4aab64a42c5ac8036c022019cf16ae45a881eaa7c12f70bbea0034417e704c2bc1c940065ee08ce56ca383[ALL] 032039eb8d7daf39524e4ecdcbb8037a243bf901de3a4525ff73f3bbb44fb1acfe"}, "vout": 1, "txid": "62a908d6ccaeef431aa089379cfd8187d9d249720c35c5813a9012f14bba67f8"}], "txid": "25c7afe3994e136edd8a74b044db782eaa2ca0329cef4b946db47344b80c0f97", "blocktime": 1537872018, "version": 1, "confirmations": 11489, "time": 1537872018, "locktime": 542992, "vsize": 226, "size": 226}