{"hash": "f82c4f5d84abd23e164351d7a93be3953b24e43727adaa44c58f1513dd3ae180", "blockhash": "0000000000000000001e0dab787dd257d1dbfcb92a98c2207d5e1078be1f4165", "vout": [{"scriptPubKey": {"reqSigs": 1, "hex": "a914d6acb72ef6df6777f670bcb523144ff2d67be7e687", "addresses": ["3MG7S5mQCDJEfWxanUgAAV2hx9kXbVU3i9"], "asm": "OP_HASH160 d6acb72ef6df6777f670bcb523144ff2d67be7e6 OP_EQUAL", "type": "scripthash"}, "value": 0.015157, "n": 0}, {"scriptPubKey": {"reqSigs": 1, "hex": "a9149fedd0435a5346d19e10dbf067501f04f6a02d3687", "addresses": ["3GGeFcpTvbKcU9so2Fz4C8o4V2C9Du9Ngp"], "asm": "OP_HASH160 9fedd0435a5346d19e10dbf067501f04f6a02d36 OP_EQUAL", "type": "scripthash"}, "value": 6.4909871, "n": 1}], "hex": "01000000000101260fd28745f495b0ac56bf6d54fbe6d55df92504ae0cc1e554e8ce12f0ace4140100000023220020bdce0b87be1099509aee666bf280d91936d77265b9626a3811efa68c794ec6d9ffffffff02b42017000000000017a914d6acb72ef6df6777f670bcb523144ff2d67be7e687d675b0260000000017a9149fedd0435a5346d19e10dbf067501f04f6a02d36870400483045022100f4304eca858bb0006a4f718eed4106ef6f97bad4d7ffbdffb5184618fec0256a0220724ed945884a5745a53556f6b647da090b8268b66c71a28a6ead89e3aa9108c30147304402204ccd7cc34f16312b380fd28f0b75e1e3b06f641f680189824b7fd515a89d2ad1022041ec6cbb6bc997a7a30a3dfa1779626353741caf9417195eaabebe5defe36efd0147522103eb143395e1f431f678a743f1647f1b19b73b3255e6eb16378dc614c75af6729821022a8a912ad76544ca20f666a2071879d22db3f19b68028bfb6e15e148dbbe91a252ae00000000", "vin": [{"txinwitness": ["", "3045022100f4304eca858bb0006a4f718eed4106ef6f97bad4d7ffbdffb5184618fec0256a0220724ed945884a5745a53556f6b647da090b8268b66c71a28a6ead89e3aa9108c301", "304402204ccd7cc34f16312b380fd28f0b75e1e3b06f641f680189824b7fd515a89d2ad1022041ec6cbb6bc997a7a30a3dfa1779626353741caf9417195eaabebe5defe36efd01", "522103eb143395e1f431f678a743f1647f1b19b73b3255e6eb16378dc614c75af6729821022a8a912ad76544ca20f666a2071879d22db3f19b68028bfb6e15e148dbbe91a252ae"], "sequence": 4294967295, "scriptSig": {"hex": "220020bdce0b87be1099509aee666bf280d91936d77265b9626a3811efa68c794ec6d9", "asm": "0020bdce0b87be1099509aee666bf280d91936d77265b9626a3811efa68c794ec6d9"}, "vout": 1, "txid": "14e4acf012cee854e5c10cae0425f95dd5e6fb546dbf56acb095f44587d20f26"}], "txid": "25c841908a6bab59d63492182551368459174f7155ab4c9c0a13bef5e6a21a0d", "blocktime": 1537872475, "version": 1, "confirmations": 11487, "time": 1537872475, "locktime": 0, "vsize": 206, "size": 371}