{"hash": "25cd64ebb307ccc4d2580d509f8e6857e4f60b842c3c2fe32abd63c4299f5cbc", "blockhash": "0000000000000000000baef3f32e3676a92c3b2e5da21b426e4f302fc371ce76", "vout": [{"scriptPubKey": {"reqSigs": 1, "hex": "76a914a25dec4d0011064ef106a983c39c7a540699f22088ac", "addresses": ["1FoWyxwPXuj4C6abqwhjDWdz6D4PZgYRjA"], "asm": "OP_DUP OP_HASH160 a25dec4d0011064ef106a983c39c7a540699f220 OP_EQUALVERIFY OP_CHECKSIG", "type": "pubkeyhash"}, "value": 0.01995188, "n": 0}, {"scriptPubKey": {"type": "nulldata", "hex": "6a146f6d6e69000000000000001f0000029d99c307d0", "asm": "OP_RETURN 6f6d6e69000000000000001f0000029d99c307d0"}, "value": 0.0, "n": 1}, {"scriptPubKey": {"reqSigs": 1, "hex": "76a9143e6c33cc437173d00b9e1eabecb8cd2d5514b65788ac", "addresses": ["16h4WvZroeJZQpFuMVWMivaQX2PdpZLAQo"], "asm": "OP_DUP OP_HASH160 3e6c33cc437173d00b9e1eabecb8cd2d5514b657 OP_EQUALVERIFY OP_CHECKSIG", "type": "pubkeyhash"}, "value": 5.46e-06, "n": 2}], "hex": "0100000001a44813c76173a4fe9689194c29809e35be05f1741d9b5e1e9e8bd44070ac1fea950000006b483045022100ed788f56bb0ad305b9832ad3e812b25c21343f90d7171b4c2201c9554642f99902205e423f12e56f07eb79a769d4d0ce87c53d952394e0b66ce5d3afea0a816e1ef1012103da5bac7b36d5aa38f531c6b9601e21bb598a4b6716ebed38b009a55dabde9440feffffff03b4711e00000000001976a914a25dec4d0011064ef106a983c39c7a540699f22088ac0000000000000000166a146f6d6e69000000000000001f0000029d99c307d022020000000000001976a9143e6c33cc437173d00b9e1eabecb8cd2d5514b65788accf480800", "vin": [{"sequence": 4294967294, "scriptSig": {"hex": "483045022100ed788f56bb0ad305b9832ad3e812b25c21343f90d7171b4c2201c9554642f99902205e423f12e56f07eb79a769d4d0ce87c53d952394e0b66ce5d3afea0a816e1ef1012103da5bac7b36d5aa38f531c6b9601e21bb598a4b6716ebed38b009a55dabde9440", "asm": "3045022100ed788f56bb0ad305b9832ad3e812b25c21343f90d7171b4c2201c9554642f99902205e423f12e56f07eb79a769d4d0ce87c53d952394e0b66ce5d3afea0a816e1ef1[ALL] 03da5bac7b36d5aa38f531c6b9601e21bb598a4b6716ebed38b009a55dabde9440"}, "vout": 149, "txid": "ea1fac7040d48b9e1e5e9b1d74f105be359e80294c198996fea47361c71348a4"}], "txid": "25cd64ebb307ccc4d2580d509f8e6857e4f60b842c3c2fe32abd63c4299f5cbc", "blocktime": 1537876114, "version": 1, "confirmations": 11459, "time": 1537876114, "locktime": 542927, "vsize": 257, "size": 257}