{"hash": "5beb866fd36b0839c1ab2e5b969fb024b6ce2b369465bb0ab18710a64af3cf7f", "blockhash": "00000000000000000018f53835495a110e01622372bf6ae95dc86f2b0ab887b0", "vout": [{"scriptPubKey": {"reqSigs": 1, "hex": "76a914cbb4d3ef4a5a2a63b568c8bff59c8d2d41ce685988ac", "addresses": ["1Ka6o5mgouBN5qVg39nTE2E7omHtHa8KGM"], "asm": "OP_DUP OP_HASH160 cbb4d3ef4a5a2a63b568c8bff59c8d2d41ce6859 OP_EQUALVERIFY OP_CHECKSIG", "type": "pubkeyhash"}, "value": 0.00011326, "n": 0}, {"scriptPubKey": {"reqSigs": 1, "hex": "a9141ef8828e72d72a8314b0fdbc8ce10f0401d6c02387", "addresses": ["34Wmu5KFTd5pDR1V8Av7UaatVTurdjpoPU"], "asm": "OP_HASH160 1ef8828e72d72a8314b0fdbc8ce10f0401d6c023 OP_EQUAL", "type": "scripthash"}, "value": 0.00223629, "n": 1}], "hex": "01000000000101e4b98f22c913e6792169f431b10f993054fce029efd5b39246f5ec2617382c0b0100000023220020e0b6457c89caa8596820c62381c2009d628f3a36c52eadf413267f9bc6e1a31affffffff023e2c0000000000001976a914cbb4d3ef4a5a2a63b568c8bff59c8d2d41ce685988ac8d6903000000000017a9141ef8828e72d72a8314b0fdbc8ce10f0401d6c02387040047304402201e362d148f4827f86b48653e551fa8d53e1fd38469c653fcf7d5a634097fe108022056be260fe682e85cdb0dcfd2ece9180e19a366ad03c8fde7050fbe78f7c052b301483045022100ba7b9d6625708d869fe474bfbc28d93377b5286ba6143aa671728744e8a05a5d022002f273a2916d97ae5809b2a79728af738f67a702bfe6668cf2851b0d1234a7fb0147522102662df3c75a4f151bb0d69b086cd19ab6764e52eeb055398aa45f450439053f512103871fc2ca08e6950b38867e8e6a0e94ee625223d3aa0df5c65f414c6d784467e252ae00000000", "vin": [{"txinwitness": ["", "304402201e362d148f4827f86b48653e551fa8d53e1fd38469c653fcf7d5a634097fe108022056be260fe682e85cdb0dcfd2ece9180e19a366ad03c8fde7050fbe78f7c052b301", "3045022100ba7b9d6625708d869fe474bfbc28d93377b5286ba6143aa671728744e8a05a5d022002f273a2916d97ae5809b2a79728af738f67a702bfe6668cf2851b0d1234a7fb01", "522102662df3c75a4f151bb0d69b086cd19ab6764e52eeb055398aa45f450439053f512103871fc2ca08e6950b38867e8e6a0e94ee625223d3aa0df5c65f414c6d784467e252ae"], "sequence": 4294967295, "scriptSig": {"hex": "220020e0b6457c89caa8596820c62381c2009d628f3a36c52eadf413267f9bc6e1a31a", "asm": "0020e0b6457c89caa8596820c62381c2009d628f3a36c52eadf413267f9bc6e1a31a"}, "vout": 1, "txid": "0b2c381726ecf54692b3d5ef29e0fc5430990fb131f4692179e613c9228fb9e4"}], "txid": "25cd0f1329f36de03861ff923b0e4e127aa7e8528dcb3b6a54dba6f5ce953366", "blocktime": 1537870928, "version": 1, "confirmations": 11514, "time": 1537870928, "locktime": 0, "vsize": 208, "size": 373}