{"hash": "25cfa3c356d26f62db43dfa56f80bc45e25ab636fcfc5d2a4efbc19cc5ce1869", "blockhash": "0000000000000000001cda96e906b7601b7a6fb1a3b62bca570a9e5d8f4b3de1", "vout": [{"scriptPubKey": {"reqSigs": 1, "hex": "a9147f0cec6e178a3ce73e60f801868bc2e44e9a617e87", "addresses": ["3DGoDrHWTZuunpZEM4q8bxbCjJzzRuiZ5v"], "asm": "OP_HASH160 7f0cec6e178a3ce73e60f801868bc2e44e9a617e OP_EQUAL", "type": "scripthash"}, "value": 0.0033276, "n": 0}, {"scriptPubKey": {"reqSigs": 1, "hex": "76a91464074a45b8f10f3a4523d910fb9921e306e9431588ac", "addresses": ["1A7uJiB7ZimHNVwuR5LdXieCnPJDoWhvbt"], "asm": "OP_DUP OP_HASH160 64074a45b8f10f3a4523d910fb9921e306e94315 OP_EQUALVERIFY OP_CHECKSIG", "type": "pubkeyhash"}, "value": 0.07971481, "n": 1}], "hex": "0100000001f19dca02c3c792cbb0ce1ae9d39dfa37c4cc4d0bce8701377fc50c38b1c13e10010000006a473044022031562b86dca4e73b2bb5270a0385d784de607a2425aea0b42d129fe8d737bc0802203584f8b37ef4f9bded84e81ec04a8aaa8c3bddc8bbee822640e8050959a41392012102eca57f0515283ac6c4ebd8b3f1439bb68791bc3b4f1aa414594963d0ed90edf1ffffffff02d81305000000000017a9147f0cec6e178a3ce73e60f801868bc2e44e9a617e8799a27900000000001976a91464074a45b8f10f3a4523d910fb9921e306e9431588ac00000000", "vin": [{"sequence": 4294967295, "scriptSig": {"hex": "473044022031562b86dca4e73b2bb5270a0385d784de607a2425aea0b42d129fe8d737bc0802203584f8b37ef4f9bded84e81ec04a8aaa8c3bddc8bbee822640e8050959a41392012102eca57f0515283ac6c4ebd8b3f1439bb68791bc3b4f1aa414594963d0ed90edf1", "asm": "3044022031562b86dca4e73b2bb5270a0385d784de607a2425aea0b42d129fe8d737bc0802203584f8b37ef4f9bded84e81ec04a8aaa8c3bddc8bbee822640e8050959a41392[ALL] 02eca57f0515283ac6c4ebd8b3f1439bb68791bc3b4f1aa414594963d0ed90edf1"}, "vout": 1, "txid": "103ec1b1380cc57f370187ce0b4dccc437fa9dd3e91aceb0cb92c7c302ca9df1"}], "txid": "25cfa3c356d26f62db43dfa56f80bc45e25ab636fcfc5d2a4efbc19cc5ce1869", "blocktime": 1537873282, "version": 1, "confirmations": 11484, "time": 1537873282, "locktime": 0, "vsize": 223, "size": 223}