{"hash": "25d7fae7f1036478d12b58ab239ae371623e22f03c484d0750d2492539fe475c", "blockhash": "0000000000000000001cda96e906b7601b7a6fb1a3b62bca570a9e5d8f4b3de1", "vout": [{"scriptPubKey": {"reqSigs": 1, "hex": "76a914e4d65586bbd0da52648e2da7d3c310e8c12821ee88ac", "addresses": ["1MrypvzAeCbq7tPk4gNbaenSDDViFfrkEW"], "asm": "OP_DUP OP_HASH160 e4d65586bbd0da52648e2da7d3c310e8c12821ee OP_EQUALVERIFY OP_CHECKSIG", "type": "pubkeyhash"}, "value": 0.03136, "n": 0}, {"scriptPubKey": {"reqSigs": 1, "hex": "76a914e60193526408b2e6ad75b2bb25f0fddc1f538bdd88ac", "addresses": ["1MyAJb3cWYpGAfAS7tLbKPJwJC5km2J4ov"], "asm": "OP_DUP OP_HASH160 e60193526408b2e6ad75b2bb25f0fddc1f538bdd OP_EQUALVERIFY OP_CHECKSIG", "type": "pubkeyhash"}, "value": 0.20978542, "n": 1}], "hex": "01000000013fa0958bab163694a886735119beb571434f1e07e1a8a807f0fade024108a88a010000006b4830450221009cc6021c4acdc76f08e0f48e3d4853a436bd600c074398348b6dc0d0c3e9b06a02207477bcf2545b7ae5b7bf3c9881e8d8a358f9889d53c6201bb7ba11f07da35309012102d2256b39430b82d39d8dbecf6de05b88750642806d350819fcceecd7ebf3f51cffffffff0200da2f00000000001976a914e4d65586bbd0da52648e2da7d3c310e8c12821ee88ac6e1b4001000000001976a914e60193526408b2e6ad75b2bb25f0fddc1f538bdd88ac00000000", "vin": [{"sequence": 4294967295, "scriptSig": {"hex": "4830450221009cc6021c4acdc76f08e0f48e3d4853a436bd600c074398348b6dc0d0c3e9b06a02207477bcf2545b7ae5b7bf3c9881e8d8a358f9889d53c6201bb7ba11f07da35309012102d2256b39430b82d39d8dbecf6de05b88750642806d350819fcceecd7ebf3f51c", "asm": "30450221009cc6021c4acdc76f08e0f48e3d4853a436bd600c074398348b6dc0d0c3e9b06a02207477bcf2545b7ae5b7bf3c9881e8d8a358f9889d53c6201bb7ba11f07da35309[ALL] 02d2256b39430b82d39d8dbecf6de05b88750642806d350819fcceecd7ebf3f51c"}, "vout": 1, "txid": "8aa8084102defaf007a8a8e1071e4f4371b5be19517386a8943616ab8b95a03f"}], "txid": "25d7fae7f1036478d12b58ab239ae371623e22f03c484d0750d2492539fe475c", "blocktime": 1537873282, "version": 1, "confirmations": 11485, "time": 1537873282, "locktime": 0, "vsize": 226, "size": 226}