{"hash": "25dbd9c2a313781180974a91c1c99fef8530bce4b2e4794184817988d306d76a", "blockhash": "00000000000000000017f5eb5941039fbcee6240d03bc1f2f8e35350df66a1d8", "vout": [{"scriptPubKey": {"reqSigs": 1, "hex": "76a9148a0c2c27b6a73a53ed37eb841d1098b710a8486088ac", "addresses": ["1DavqERSc8fkhvKJvBPYnDeM3CjaLGUT4t"], "asm": "OP_DUP OP_HASH160 8a0c2c27b6a73a53ed37eb841d1098b710a84860 OP_EQUALVERIFY OP_CHECKSIG", "type": "pubkeyhash"}, "value": 0.00496128, "n": 0}, {"scriptPubKey": {"reqSigs": 1, "hex": "76a91467cc458cdd3ce76b2c44c7a106a5143bbddbf75588ac", "addresses": ["1ATqJocjjuWqwCyumJQixbseQxCrKtphhQ"], "asm": "OP_DUP OP_HASH160 67cc458cdd3ce76b2c44c7a106a5143bbddbf755 OP_EQUALVERIFY OP_CHECKSIG", "type": "pubkeyhash"}, "value": 0.06452548, "n": 1}], "hex": "010000000185104d0a72d178c8044d5dd44ae5fb13698574f9eefac72de4879a3868f5842f010000006a473044022065164fc7d204256c1491d433bc48e95265e03f074567793747ca4e00178158b6022027f48352c809fa4f7b298262a091592f912b4c39465f21ad767656096e2acf6d012103bfd86797e32035ab13e54bafcc3fe834045493a32ec733978ca2036997255046ffffffff0200920700000000001976a9148a0c2c27b6a73a53ed37eb841d1098b710a8486088ac44756200000000001976a91467cc458cdd3ce76b2c44c7a106a5143bbddbf75588ac00000000", "vin": [{"sequence": 4294967295, "scriptSig": {"hex": "473044022065164fc7d204256c1491d433bc48e95265e03f074567793747ca4e00178158b6022027f48352c809fa4f7b298262a091592f912b4c39465f21ad767656096e2acf6d012103bfd86797e32035ab13e54bafcc3fe834045493a32ec733978ca2036997255046", "asm": "3044022065164fc7d204256c1491d433bc48e95265e03f074567793747ca4e00178158b6022027f48352c809fa4f7b298262a091592f912b4c39465f21ad767656096e2acf6d[ALL] 03bfd86797e32035ab13e54bafcc3fe834045493a32ec733978ca2036997255046"}, "vout": 1, "txid": "2f84f568389a87e42dc7faeef974856913fbe54ad45d4d04c878d1720a4d1085"}], "txid": "25dbd9c2a313781180974a91c1c99fef8530bce4b2e4794184817988d306d76a", "blocktime": 1537874412, "version": 1, "confirmations": 11467, "time": 1537874412, "locktime": 0, "vsize": 225, "size": 225}