{"hash": "2977ea78a92399aa94b7e42911a4eaf24a1346cfd8aa8c0e5f8b036d857b7931", "blockhash": "00000000000000000004ffacab907a6b429b9a5745fa0b75af4234bf69dd7176", "vout": [{"scriptPubKey": {"reqSigs": 1, "hex": "a9146ffa65eb258683852f0481f23fe35017833bb8bb87", "addresses": ["3Bu6toYSZQGaiWmJHi8F4css3qmp7fnn1i"], "asm": "OP_HASH160 6ffa65eb258683852f0481f23fe35017833bb8bb OP_EQUAL", "type": "scripthash"}, "value": 0.0938495, "n": 0}, {"scriptPubKey": {"reqSigs": 1, "hex": "a914dc2799e0941a44c105a84b5241bc18fca950b2fb87", "addresses": ["3Mm62H5Dsa6zmRpKgNA9TRSfCgMSi7mr9B"], "asm": "OP_HASH160 dc2799e0941a44c105a84b5241bc18fca950b2fb OP_EQUAL", "type": "scripthash"}, "value": 0.96726279, "n": 1}], "hex": "020000000001019960fabdf61886f157d4abfcfc85f276736105b83ced6683515606181ab948070100000017160014e7dec002e5682fe3dbc5a5549725fb9928339772feffffff02f6338f000000000017a9146ffa65eb258683852f0481f23fe35017833bb8bb8707edc3050000000017a914dc2799e0941a44c105a84b5241bc18fca950b2fb8702483045022100deaec29d140d8ab438a5022186fd4132d2c55f64cc9d85cca4dc58862d9c68dd022069ffc60707bc52cafaf4195468cabf06a1ed0126d77504b074a833dff92d86580121027bbe45ea8f1b63c23b2a5bb6370f0ea84fe4ce3cb939e4337f3b9c8083e9cd8416490800", "vin": [{"txinwitness": ["3045022100deaec29d140d8ab438a5022186fd4132d2c55f64cc9d85cca4dc58862d9c68dd022069ffc60707bc52cafaf4195468cabf06a1ed0126d77504b074a833dff92d865801", "027bbe45ea8f1b63c23b2a5bb6370f0ea84fe4ce3cb939e4337f3b9c8083e9cd84"], "sequence": 4294967294, "scriptSig": {"hex": "160014e7dec002e5682fe3dbc5a5549725fb9928339772", "asm": "0014e7dec002e5682fe3dbc5a5549725fb9928339772"}, "vout": 1, "txid": "0748b91a180656518366ed3cb805617376f285fcfcabd457f18618f6bdfa6099"}], "txid": "25de2193aa89a5dba25f6784295a48bb88177bc358957f5da880dc047889b3fc", "blocktime": 1537875543, "version": 2, "confirmations": 11464, "time": 1537875543, "locktime": 542998, "vsize": 166, "size": 248}