{"hash": "db2d43963049757b221444cc34ee4010b1df51143d854e20aec35a485d701f97", "blockhash": "00000000000000000004ffacab907a6b429b9a5745fa0b75af4234bf69dd7176", "vout": [{"scriptPubKey": {"reqSigs": 1, "hex": "a9141cbfd17ad565ab87db08f84d7657d97a5856188b87", "addresses": ["34K2dgZ9znwTKWodnZsvHm6EUqvEmLC9tj"], "asm": "OP_HASH160 1cbfd17ad565ab87db08f84d7657d97a5856188b OP_EQUAL", "type": "scripthash"}, "value": 0.00995071, "n": 0}, {"scriptPubKey": {"reqSigs": 1, "hex": "76a9140f296825a79ce3292e53494ee82e786520b130eb88ac", "addresses": ["12PAjshMRgM1uhdRr6aTNfYV48mGkNw9hh"], "asm": "OP_DUP OP_HASH160 0f296825a79ce3292e53494ee82e786520b130eb OP_EQUALVERIFY OP_CHECKSIG", "type": "pubkeyhash"}, "value": 0.21864, "n": 1}], "hex": "020000000001042ce2852f67095910e39d03426f46ace4a0d6857983b62cab57f3c0bd95bb227812000000171600148c91b80c1f145f307283fcd5b319357e9e90da5ffeffffff4163ec5675652899ae5cf434d211d242e319b7e2753ffa8dadd8c91e947454c200000000171600148ae86e2ecd0d90bd4d5fdbe3f7becdf7a53f6bd6feffffffc8acf15d743e22cdf6867aa504d684abba796a0237846fc9bbcd69c99019c79c0000000017160014a02c653ae35c67e0c98f75df10797cc7f1d45ccdfeffffffd60c8e5e176c10fa881d04e2ce37b466cbb2d2e82fa329f69e2d320425c63bf41400000017160014a3cbf6727cfa7b42610ecd668419fc95abc19113feffffff02ff2e0f000000000017a9141cbfd17ad565ab87db08f84d7657d97a5856188b87409e4d01000000001976a9140f296825a79ce3292e53494ee82e786520b130eb88ac02483045022100f8610af426b7df9886f812545bbc2bb26a613eca5c751a3d9975f17c70aa735002206b70dc8dc61cbd5ed4ca1b4355339b585e4933a18709958a2671d1de49b24c960121036bdf09369f0c966675bc5c93eece5c7a08425cbe771df73dc390ad2241b005a3024730440220512f0673bd1df04ade5af7fddefc14fbbd3c9a4628615fc3ca454ff852acc90a02206ab683316cae492145dd157f50d5d6556ee87a9258f1004b9f4e53bedd20776e0121033870f738555a428d07e72c5a3e5536b439e58b1eb1318fd4b8a472313d8817cc0247304402201c622a19838e46ca8ded5ec9930b8581bd1d40374daf3a27a166a747777ca63c02206a2fd8a4f2e717713aa61c50ea07a6f27c48a5ec8909875065e312847cdc718b0121027c3b68fef9c879b156cdc7d8b2990ea85b327fa4ee6133381902ce5c57d749d202483045022100f25a101d1d75b3cd2bffe8c46f874763f83d11057ad380bd6484c276c1d4fbf002202bc922be636cf33b8bbd9dfef2ed46a91ab9c9fd15745025890b3cb947c19a6401210292b67d8283b41af9fb677c87290079b895fccf51808e2ed415e1dafa187e5c750e490800", "vin": [{"txinwitness": ["3045022100f8610af426b7df9886f812545bbc2bb26a613eca5c751a3d9975f17c70aa735002206b70dc8dc61cbd5ed4ca1b4355339b585e4933a18709958a2671d1de49b24c9601", "036bdf09369f0c966675bc5c93eece5c7a08425cbe771df73dc390ad2241b005a3"], "sequence": 4294967294, "scriptSig": {"hex": "1600148c91b80c1f145f307283fcd5b319357e9e90da5f", "asm": "00148c91b80c1f145f307283fcd5b319357e9e90da5f"}, "vout": 18, "txid": "7822bb95bdc0f357ab2cb6837985d6a0e4ac466f42039de3105909672f85e22c"}, {"txinwitness": ["30440220512f0673bd1df04ade5af7fddefc14fbbd3c9a4628615fc3ca454ff852acc90a02206ab683316cae492145dd157f50d5d6556ee87a9258f1004b9f4e53bedd20776e01", "033870f738555a428d07e72c5a3e5536b439e58b1eb1318fd4b8a472313d8817cc"], "sequence": 4294967294, "scriptSig": {"hex": "1600148ae86e2ecd0d90bd4d5fdbe3f7becdf7a53f6bd6", "asm": "00148ae86e2ecd0d90bd4d5fdbe3f7becdf7a53f6bd6"}, "vout": 0, "txid": "c25474941ec9d8ad8dfa3f75e2b719e342d211d234f45cae9928657556ec6341"}, {"txinwitness": ["304402201c622a19838e46ca8ded5ec9930b8581bd1d40374daf3a27a166a747777ca63c02206a2fd8a4f2e717713aa61c50ea07a6f27c48a5ec8909875065e312847cdc718b01", "027c3b68fef9c879b156cdc7d8b2990ea85b327fa4ee6133381902ce5c57d749d2"], "sequence": 4294967294, "scriptSig": {"hex": "160014a02c653ae35c67e0c98f75df10797cc7f1d45ccd", "asm": "0014a02c653ae35c67e0c98f75df10797cc7f1d45ccd"}, "vout": 0, "txid": "9cc71990c969cdbbc96f8437026a79baab84d604a57a86f6cd223e745df1acc8"}, {"txinwitness": ["3045022100f25a101d1d75b3cd2bffe8c46f874763f83d11057ad380bd6484c276c1d4fbf002202bc922be636cf33b8bbd9dfef2ed46a91ab9c9fd15745025890b3cb947c19a6401", "0292b67d8283b41af9fb677c87290079b895fccf51808e2ed415e1dafa187e5c75"], "sequence": 4294967294, "scriptSig": {"hex": "160014a3cbf6727cfa7b42610ecd668419fc95abc19113", "asm": "0014a3cbf6727cfa7b42610ecd668419fc95abc19113"}, "vout": 20, "txid": "f43bc62504322d9ef629a32fe8d2b2cb66b437cee2041d88fa106c175e8e0cd6"}], "txid": "25e1dfab2de4371ad490f78b254ba683b4f342ad2ec45b3d4b7ccb937efff924", "blocktime": 1537875543, "version": 2, "confirmations": 11464, "time": 1537875543, "locktime": 542990, "vsize": 440, "size": 764}