{"hash": "25e247e7e5758c9c9c90ca7eadd976d9ae69e1c2efdc782379a744cc4a8a5c36", "blockhash": "0000000000000000000baef3f32e3676a92c3b2e5da21b426e4f302fc371ce76", "vout": [{"scriptPubKey": {"type": "nulldata", "hex": "6a4c50000078030001a99ec61c5201a28268bddf0c702940d64fa54d8eb2d19ed074892d00f8e815cbf327745e21a685d95b10283cbb475baa1a510613761282ee025f1d100759d4ba30d2c37bb011d97e02cf", "asm": "OP_RETURN 000078030001a99ec61c5201a28268bddf0c702940d64fa54d8eb2d19ed074892d00f8e815cbf327745e21a685d95b10283cbb475baa1a510613761282ee025f1d100759d4ba30d2c37bb011d97e02cf"}, "value": 0.0, "n": 0}, {"scriptPubKey": {"reqSigs": 1, "hex": "76a91468ba7102e09025fe0fad784b677ad66cdabc580488ac", "addresses": ["1AYkd8WNqTjKRxGYpqB6rHkUksda9w8oRK"], "asm": "OP_DUP OP_HASH160 68ba7102e09025fe0fad784b677ad66cdabc5804 OP_EQUALVERIFY OP_CHECKSIG", "type": "pubkeyhash"}, "value": 0.00632375, "n": 1}], "hex": "0100000001822de3317ed847b8e7de8992b29acc7adc8295349f9fbac35a907d07c16dca4a010000006a47304402202fd4baaf4ed70b41f3c3b7ab02af71bfeb213bb6cfbbb25f7834a1161237392d022076322b495c34e224c0df4db4ab040c9cc4da0c715366f3ffcbf238de635f2b93012102cfe5d26cc065157068416b32437d36836a2e99cc7ca623d5347f4dfceb4b1e09ffffffff020000000000000000536a4c50000078030001a99ec61c5201a28268bddf0c702940d64fa54d8eb2d19ed074892d00f8e815cbf327745e21a685d95b10283cbb475baa1a510613761282ee025f1d100759d4ba30d2c37bb011d97e02cf37a60900000000001976a91468ba7102e09025fe0fad784b677ad66cdabc580488ac00000000", "vin": [{"sequence": 4294967295, "scriptSig": {"hex": "47304402202fd4baaf4ed70b41f3c3b7ab02af71bfeb213bb6cfbbb25f7834a1161237392d022076322b495c34e224c0df4db4ab040c9cc4da0c715366f3ffcbf238de635f2b93012102cfe5d26cc065157068416b32437d36836a2e99cc7ca623d5347f4dfceb4b1e09", "asm": "304402202fd4baaf4ed70b41f3c3b7ab02af71bfeb213bb6cfbbb25f7834a1161237392d022076322b495c34e224c0df4db4ab040c9cc4da0c715366f3ffcbf238de635f2b93[ALL] 02cfe5d26cc065157068416b32437d36836a2e99cc7ca623d5347f4dfceb4b1e09"}, "vout": 1, "txid": "4aca6dc1077d905ac3ba9f9f349582dc7acc9ab29289dee7b847d87e31e32d82"}], "txid": "25e247e7e5758c9c9c90ca7eadd976d9ae69e1c2efdc782379a744cc4a8a5c36", "blocktime": 1537876114, "version": 1, "confirmations": 11463, "time": 1537876114, "locktime": 0, "vsize": 283, "size": 283}