{"hash": "3a8802c6f80cf97398a99d5c95b29d4e96009a044366b989d105fac35625be10", "blockhash": "00000000000000000017f5eb5941039fbcee6240d03bc1f2f8e35350df66a1d8", "vout": [{"scriptPubKey": {"reqSigs": 1, "hex": "76a9149a1b8f9b1fa2d2297863adb1cb11c71df455684888ac", "addresses": ["1F3r5We2zwNiSzG6GQUTTWnnPMCz2HJbJu"], "asm": "OP_DUP OP_HASH160 9a1b8f9b1fa2d2297863adb1cb11c71df4556848 OP_EQUALVERIFY OP_CHECKSIG", "type": "pubkeyhash"}, "value": 2.673e-05, "n": 0}, {"scriptPubKey": {"reqSigs": 1, "hex": "a9148ddb66c3371910a0ef8f38021cc4094e61e69f3a87", "addresses": ["3Ed62sPENkraPwpovPty9YMFGJ8FtTyv63"], "asm": "OP_HASH160 8ddb66c3371910a0ef8f38021cc4094e61e69f3a OP_EQUAL", "type": "scripthash"}, "value": 0.00036437, "n": 1}], "hex": "01000000000101d4c6565ed2ccc9ee905f8d8a3e8b91b406db6b18340a408ca8d818de3338cc980100000023220020fdd23d707f55451c4e006c77b5e8df35a185a8e99f9bda70bf0ded7913bb1eb3ffffffff02710a0000000000001976a9149a1b8f9b1fa2d2297863adb1cb11c71df455684888ac558e00000000000017a9148ddb66c3371910a0ef8f38021cc4094e61e69f3a870400473044022048c64bd7aaa1df6d070e2934f02afe7dc7807737b32ba55668dd247827399c710220603f174567f1be11b77722a34b06850ba994e3294d25dd20114345cfad10baca014730440220539ca624bef2d81bd0b96782121c20d59b2a3ec4bf9f81986cf1393cab46074e022058dd82d8a41c39ec44f8d4d9413c3e9f29d4c7baf15d07b251e86d1a4c1df405014752210286c104577b978160849865bc23f9a6df9b53d41c8ffb486754b97b2a474a181c2103148c80a5bdfddb05ff5bcffc397c8ca748d8b435ec6a175bc9d7bfc7fc6f853752ae00000000", "vin": [{"txinwitness": ["", "3044022048c64bd7aaa1df6d070e2934f02afe7dc7807737b32ba55668dd247827399c710220603f174567f1be11b77722a34b06850ba994e3294d25dd20114345cfad10baca01", "30440220539ca624bef2d81bd0b96782121c20d59b2a3ec4bf9f81986cf1393cab46074e022058dd82d8a41c39ec44f8d4d9413c3e9f29d4c7baf15d07b251e86d1a4c1df40501", "52210286c104577b978160849865bc23f9a6df9b53d41c8ffb486754b97b2a474a181c2103148c80a5bdfddb05ff5bcffc397c8ca748d8b435ec6a175bc9d7bfc7fc6f853752ae"], "sequence": 4294967295, "scriptSig": {"hex": "220020fdd23d707f55451c4e006c77b5e8df35a185a8e99f9bda70bf0ded7913bb1eb3", "asm": "0020fdd23d707f55451c4e006c77b5e8df35a185a8e99f9bda70bf0ded7913bb1eb3"}, "vout": 1, "txid": "98cc3833de18d8a88c400a34186bdb06b4918b3e8a8d5f90eec9ccd25e56c6d4"}], "txid": "25e4b92b7b528661c2b1ef2ed1077e624118aaf2c279153698039323db8e72da", "blocktime": 1537874412, "version": 1, "confirmations": 11467, "time": 1537874412, "locktime": 0, "vsize": 207, "size": 372}