{"hash": "25e6e3ac94f39d131b6613e0b8b1128dd671c14b25903d677fe811223849b891", "blockhash": "0000000000000000001f76057863aec43deb6fa401d9628bb513d65a8098bfab", "vout": [{"scriptPubKey": {"reqSigs": 1, "hex": "76a914b7cdb5eb989ad71d61f3b5e1b2b61d7c16d3878488ac", "addresses": ["1Hks68XoXFChG9jhqCYLZtKWtuNjbDgaPc"], "asm": "OP_DUP OP_HASH160 b7cdb5eb989ad71d61f3b5e1b2b61d7c16d38784 OP_EQUALVERIFY OP_CHECKSIG", "type": "pubkeyhash"}, "value": 5.361e-05, "n": 0}, {"scriptPubKey": {"reqSigs": 1, "hex": "76a9141cd43420e2bdf202b484ac76d53de819c7a79e2488ac", "addresses": ["13dS8YBuS9bkv6C8wms5YXg5uTb61zULrW"], "asm": "OP_DUP OP_HASH160 1cd43420e2bdf202b484ac76d53de819c7a79e24 OP_EQUALVERIFY OP_CHECKSIG", "type": "pubkeyhash"}, "value": 0.01077504, "n": 1}], "hex": "01000000016c5dbff5b442e96021fa5e2b26d1a6e85abedf8d5c2a84fb2d68c02c6acd59e4010000006b483045022100a76632e80d17622f5b18af511ac8fc1bb5d128c2f40b7c0ae5a52ebf5ca42bb602207425efb9b7300f0e5d24e1bea94f46e01cc1d8a519df7e45a927ae83aa8698910121034ad3277ce5075d04f4339c9e8c908f1f6f85f4f24652f524bf530c7f0ead2262ffffffff02f1140000000000001976a914b7cdb5eb989ad71d61f3b5e1b2b61d7c16d3878488ac00711000000000001976a9141cd43420e2bdf202b484ac76d53de819c7a79e2488ac00000000", "vin": [{"sequence": 4294967295, "scriptSig": {"hex": "483045022100a76632e80d17622f5b18af511ac8fc1bb5d128c2f40b7c0ae5a52ebf5ca42bb602207425efb9b7300f0e5d24e1bea94f46e01cc1d8a519df7e45a927ae83aa8698910121034ad3277ce5075d04f4339c9e8c908f1f6f85f4f24652f524bf530c7f0ead2262", "asm": "3045022100a76632e80d17622f5b18af511ac8fc1bb5d128c2f40b7c0ae5a52ebf5ca42bb602207425efb9b7300f0e5d24e1bea94f46e01cc1d8a519df7e45a927ae83aa869891[ALL] 034ad3277ce5075d04f4339c9e8c908f1f6f85f4f24652f524bf530c7f0ead2262"}, "vout": 1, "txid": "e459cd6a2cc0682dfb842a5c8ddfbe5ae8a6d1262b5efa2160e942b4f5bf5d6c"}], "txid": "25e6e3ac94f39d131b6613e0b8b1128dd671c14b25903d677fe811223849b891", "blocktime": 1537873891, "version": 1, "confirmations": 11478, "time": 1537873891, "locktime": 0, "vsize": 226, "size": 226}