{"hash": "25ef14d1c8cc3f72383d2ea4b993e7f4c06447e936fbe17c5f6b5157e99ff19d", "blockhash": "0000000000000000000dcc0f55137456b1a82d3642486a52398922ac4d620174", "vout": [{"scriptPubKey": {"reqSigs": 1, "hex": "76a914ddd3398bd750ecf6fcf3abe02b5994880e01877a88ac", "addresses": ["1MDuNYuxiLuYF7JTa5RiDYbCcnRCaqSu2M"], "asm": "OP_DUP OP_HASH160 ddd3398bd750ecf6fcf3abe02b5994880e01877a OP_EQUALVERIFY OP_CHECKSIG", "type": "pubkeyhash"}, "value": 0.00423876, "n": 0}, {"scriptPubKey": {"reqSigs": 1, "hex": "76a914a5edbee66a8921c4cf1f3e0f78ef47c4b68c4e8388ac", "addresses": ["1G8MJWm1xbVGrnZtNfi8n4sd8UAJwpTe7B"], "asm": "OP_DUP OP_HASH160 a5edbee66a8921c4cf1f3e0f78ef47c4b68c4e83 OP_EQUALVERIFY OP_CHECKSIG", "type": "pubkeyhash"}, "value": 0.2648265, "n": 1}], "hex": "0100000001094272aff81d6010fb8e8aaec740338919a26e3954e69d30998b839d868d8a5b010000006a473044022025280d90ddfeff7c531d350a9448019e2781ca98cbfc801191c65ca44bc6ad8d02205e2f36b1f46471807d563cf11783cdb95531c591292aa84d09a3d7b983263ab701210292066aa39a31b3acf6c53283b9a0cb5be9d1ea98d8ddf0bf0a75fbd039dce52effffffff02c4770600000000001976a914ddd3398bd750ecf6fcf3abe02b5994880e01877a88acda179401000000001976a914a5edbee66a8921c4cf1f3e0f78ef47c4b68c4e8388ac00000000", "vin": [{"sequence": 4294967295, "scriptSig": {"hex": "473044022025280d90ddfeff7c531d350a9448019e2781ca98cbfc801191c65ca44bc6ad8d02205e2f36b1f46471807d563cf11783cdb95531c591292aa84d09a3d7b983263ab701210292066aa39a31b3acf6c53283b9a0cb5be9d1ea98d8ddf0bf0a75fbd039dce52e", "asm": "3044022025280d90ddfeff7c531d350a9448019e2781ca98cbfc801191c65ca44bc6ad8d02205e2f36b1f46471807d563cf11783cdb95531c591292aa84d09a3d7b983263ab7[ALL] 0292066aa39a31b3acf6c53283b9a0cb5be9d1ea98d8ddf0bf0a75fbd039dce52e"}, "vout": 1, "txid": "5b8a8d869d838b99309de654396ea219893340c7ae8a8efb10601df8af724209"}], "txid": "25ef14d1c8cc3f72383d2ea4b993e7f4c06447e936fbe17c5f6b5157e99ff19d", "blocktime": 1537870268, "version": 1, "confirmations": 11516, "time": 1537870268, "locktime": 0, "vsize": 225, "size": 225}