{"hash": "25f3b35cc8b99edf88347d2e2cdeb39a96d6bae625f0b416b005c44c8768a0f9", "blockhash": "0000000000000000000dcc0f55137456b1a82d3642486a52398922ac4d620174", "vout": [{"scriptPubKey": {"reqSigs": 1, "hex": "76a91406eed49420f0baf7a1bca64789b6f2872c8b141a88ac", "addresses": ["1dfANsTJBGjV847sXyPqowMdjauyacsZh"], "asm": "OP_DUP OP_HASH160 06eed49420f0baf7a1bca64789b6f2872c8b141a OP_EQUALVERIFY OP_CHECKSIG", "type": "pubkeyhash"}, "value": 3.274e-05, "n": 0}, {"scriptPubKey": {"reqSigs": 1, "hex": "76a914f065e3905c836c77f38c92c346ac3de752c6b7e888ac", "addresses": ["1Nv7EQXhh8xTjPzu25ErT1DNz9UJRushRb"], "asm": "OP_DUP OP_HASH160 f065e3905c836c77f38c92c346ac3de752c6b7e8 OP_EQUALVERIFY OP_CHECKSIG", "type": "pubkeyhash"}, "value": 0.00586783, "n": 1}], "hex": "01000000012b3c919cfb341d34d32655792c91b4a9a095ce8a84e93351840484eeba399337010000006b483045022100df6ab9b9c545fa992f3764cbee9fcb71b0deb7096adf63dcbfbf7874c62c4c3302207f5d82c31ac89e981efcc074af38dd3b89d44462ccdd883736ffa749748a980501210284f0a52a18125e350fc880b111a2af48dde379b52f4dc9498610daa2982ede41ffffffff02ca0c0000000000001976a91406eed49420f0baf7a1bca64789b6f2872c8b141a88ac1ff40800000000001976a914f065e3905c836c77f38c92c346ac3de752c6b7e888ac00000000", "vin": [{"sequence": 4294967295, "scriptSig": {"hex": "483045022100df6ab9b9c545fa992f3764cbee9fcb71b0deb7096adf63dcbfbf7874c62c4c3302207f5d82c31ac89e981efcc074af38dd3b89d44462ccdd883736ffa749748a980501210284f0a52a18125e350fc880b111a2af48dde379b52f4dc9498610daa2982ede41", "asm": "3045022100df6ab9b9c545fa992f3764cbee9fcb71b0deb7096adf63dcbfbf7874c62c4c3302207f5d82c31ac89e981efcc074af38dd3b89d44462ccdd883736ffa749748a9805[ALL] 0284f0a52a18125e350fc880b111a2af48dde379b52f4dc9498610daa2982ede41"}, "vout": 1, "txid": "379339baee8404845133e9848ace95a0a9b4912c795526d3341d34fb9c913c2b"}], "txid": "25f3b35cc8b99edf88347d2e2cdeb39a96d6bae625f0b416b005c44c8768a0f9", "blocktime": 1537870268, "version": 1, "confirmations": 11518, "time": 1537870268, "locktime": 0, "vsize": 226, "size": 226}