{"hash": "e921598c131d1a95db9aed1a7074d157993b6baaa80e2954ea25225a4898761e", "blockhash": "0000000000000000001cda96e906b7601b7a6fb1a3b62bca570a9e5d8f4b3de1", "vout": [{"scriptPubKey": {"reqSigs": 1, "hex": "0014d2f17d6fc6e9510d58c0f1b2dc8122d7848055ed", "addresses": ["bc1q6tch6m7xa9gs6kxq7xedeqfz67zgq40d463mut"], "asm": "0 d2f17d6fc6e9510d58c0f1b2dc8122d7848055ed", "type": "witness_v0_keyhash"}, "value": 1.126e-05, "n": 0}, {"scriptPubKey": {"reqSigs": 1, "hex": "76a9148cc2673501aa79c20aaed0035bd0a07366f123c788ac", "addresses": ["1DqGVDzsQsWmabJk4cj5pmbBovPjA6q3Hh"], "asm": "OP_DUP OP_HASH160 8cc2673501aa79c20aaed0035bd0a07366f123c7 OP_EQUALVERIFY OP_CHECKSIG", "type": "pubkeyhash"}, "value": 0.0005488, "n": 1}], "hex": "010000000001013d52edd8ca881cae6b527ef29578979f17cf2900f7f246a55806474677d345ed0000000000ffffffff026604000000000000160014d2f17d6fc6e9510d58c0f1b2dc8122d7848055ed60d60000000000001976a9148cc2673501aa79c20aaed0035bd0a07366f123c788ac02473044022014416b6d38ca9b2010e8c313dc93f237fe4708d6fb846966d7d8b8330d7d3e850220048899df5323644c7ec1896aacc267a39da5eefff471881e55f5c0cf2915b9a70121038f66b63c7baf0ab1e01c80958ec196ed186ecd4dabf58d453d9daba1cc612ebe00000000", "vin": [{"txinwitness": ["3044022014416b6d38ca9b2010e8c313dc93f237fe4708d6fb846966d7d8b8330d7d3e850220048899df5323644c7ec1896aacc267a39da5eefff471881e55f5c0cf2915b9a701", "038f66b63c7baf0ab1e01c80958ec196ed186ecd4dabf58d453d9daba1cc612ebe"], "sequence": 4294967295, "scriptSig": {"hex": "", "asm": ""}, "vout": 0, "txid": "ed45d37746470658a546f2f70029cf179f977895f27e526bae1c88cad8ed523d"}], "txid": "25f4490d3a9fb6aff2705b42bc235c50b509fc690ee4678843d64a811b1c069f", "blocktime": 1537873282, "version": 1, "confirmations": 11484, "time": 1537873282, "locktime": 0, "vsize": 144, "size": 225}