{"hash": "25fb453b7353bfe874ae8fbf1bf399dbbc6fadb7cdc8b5de49ef40c5aca0ff87", "blockhash": "0000000000000000000e13cef7c366c0283d82e591d1acd082e914b08063cdf1", "vout": [{"scriptPubKey": {"reqSigs": 1, "hex": "76a914237c574371b8e5d330b6cda919eebf5719c8cfa588ac", "addresses": ["14Edc52MqXXXUHXdRJaENa3dMYGtSMc6af"], "asm": "OP_DUP OP_HASH160 237c574371b8e5d330b6cda919eebf5719c8cfa5 OP_EQUALVERIFY OP_CHECKSIG", "type": "pubkeyhash"}, "value": 0.0001, "n": 0}, {"scriptPubKey": {"reqSigs": 1, "hex": "76a91456e1b1d4f28cc6af1489682bbb3ea627bb5e3d5788ac", "addresses": ["18vPV39ULPJiK2joM1sHcrg19SLprHacmV"], "asm": "OP_DUP OP_HASH160 56e1b1d4f28cc6af1489682bbb3ea627bb5e3d57 OP_EQUALVERIFY OP_CHECKSIG", "type": "pubkeyhash"}, "value": 0.00024608, "n": 1}], "hex": "01000000015d529ccb585d74b9bff5b70a5077c6ffb7fa988d5510258fc0cf36a770031758000000006a47304402201af7054efbd920271524540834a61f8f4932c3f32579ec92c62bc3443a6f071a022007810836107c22e1cd37ee094a6e1c56702b9754ba16958db581ff7ac599a9cb012102face215b534af67b8065b01a5c133f907b8afe95d851e61609054caa5b44c984ffffffff0210270000000000001976a914237c574371b8e5d330b6cda919eebf5719c8cfa588ac20600000000000001976a91456e1b1d4f28cc6af1489682bbb3ea627bb5e3d5788ac00000000", "vin": [{"sequence": 4294967295, "scriptSig": {"hex": "47304402201af7054efbd920271524540834a61f8f4932c3f32579ec92c62bc3443a6f071a022007810836107c22e1cd37ee094a6e1c56702b9754ba16958db581ff7ac599a9cb012102face215b534af67b8065b01a5c133f907b8afe95d851e61609054caa5b44c984", "asm": "304402201af7054efbd920271524540834a61f8f4932c3f32579ec92c62bc3443a6f071a022007810836107c22e1cd37ee094a6e1c56702b9754ba16958db581ff7ac599a9cb[ALL] 02face215b534af67b8065b01a5c133f907b8afe95d851e61609054caa5b44c984"}, "vout": 0, "txid": "58170370a736cfc08f2510558d98fab7ffc677500ab7f5bfb9745d58cb9c525d"}], "txid": "25fb453b7353bfe874ae8fbf1bf399dbbc6fadb7cdc8b5de49ef40c5aca0ff87", "blocktime": 1537871767, "version": 1, "confirmations": 11495, "time": 1537871767, "locktime": 0, "vsize": 225, "size": 225}