{"hash": "25fef1b5abcad7676c43769b387b932ab7b5ef49d399deae1658abab9be88552", "blockhash": "0000000000000000001cda96e906b7601b7a6fb1a3b62bca570a9e5d8f4b3de1", "vout": [{"scriptPubKey": {"reqSigs": 1, "hex": "a91492adf2da80204e18a3e36e52c95b8eb4137cfca287", "addresses": ["3F4axiQyxfK6oYwEnAHXmpei8XPzb36sFX"], "asm": "OP_HASH160 92adf2da80204e18a3e36e52c95b8eb4137cfca2 OP_EQUAL", "type": "scripthash"}, "value": 0.30191477, "n": 0}], "hex": "0100000001c750f1034038ba43cd9acba58eaac7d99b074f5fd1ffa13ed1451b591831a409000000006b483045022100ee3e42b572698799d6f2b28b934bf7acf41316e3d459c39c65ccc959d0f860200220053c7681ae5630c7dccd6f4c0c841d1fa803519253820358fe236f3bdc0f092e01210200b0621c58c678936016c0ee0a13ca06db754503473b43283de0228b8f3e5ce1ffffffff0175afcc010000000017a91492adf2da80204e18a3e36e52c95b8eb4137cfca28700000000", "vin": [{"sequence": 4294967295, "scriptSig": {"hex": "483045022100ee3e42b572698799d6f2b28b934bf7acf41316e3d459c39c65ccc959d0f860200220053c7681ae5630c7dccd6f4c0c841d1fa803519253820358fe236f3bdc0f092e01210200b0621c58c678936016c0ee0a13ca06db754503473b43283de0228b8f3e5ce1", "asm": "3045022100ee3e42b572698799d6f2b28b934bf7acf41316e3d459c39c65ccc959d0f860200220053c7681ae5630c7dccd6f4c0c841d1fa803519253820358fe236f3bdc0f092e[ALL] 0200b0621c58c678936016c0ee0a13ca06db754503473b43283de0228b8f3e5ce1"}, "vout": 0, "txid": "09a43118591b45d13ea1ffd15f4f079bd9c7aa8ea5cb9acd43ba384003f150c7"}], "txid": "25fef1b5abcad7676c43769b387b932ab7b5ef49d399deae1658abab9be88552", "blocktime": 1537873282, "version": 1, "confirmations": 11484, "time": 1537873282, "locktime": 0, "vsize": 190, "size": 190}