{"hash": "26029d2a5536350e71e45ea25ea0f71380c246eee1a8cff6b3d78186fccb59cd", "blockhash": "00000000000000000017f5eb5941039fbcee6240d03bc1f2f8e35350df66a1d8", "vout": [{"scriptPubKey": {"reqSigs": 1, "hex": "76a9148b3c3691d3926ce77832e4987c5e28aecbafd37b88ac", "addresses": ["1DhD4MCj533WBMRdA8hnDmKtbysy4Vgkma"], "asm": "OP_DUP OP_HASH160 8b3c3691d3926ce77832e4987c5e28aecbafd37b OP_EQUALVERIFY OP_CHECKSIG", "type": "pubkeyhash"}, "value": 0.0099, "n": 0}, {"scriptPubKey": {"reqSigs": 1, "hex": "76a9146fe7244af721d26c3ef00b17f75861408c05305d88ac", "addresses": ["1BCguJgSroMpe6ftgrkAFRPh3S12ocXX9w"], "asm": "OP_DUP OP_HASH160 6fe7244af721d26c3ef00b17f75861408c05305d OP_EQUALVERIFY OP_CHECKSIG", "type": "pubkeyhash"}, "value": 0.12236886, "n": 1}], "hex": "0100000001e747f155d28e41a402ddbdc4c58317bb286c24693b07a23f92a44ee8f08ec36b010000006b483045022100b377a668961cfcd6f62350cf41505a1b376170e810f56edd5cef47da4d58f905022058ee9cac5bfe4b4ca00ea4d8dce8356c5fad273ac4a23cc561575687cc87f4d4012103a8dd7bec7777b56bcae7fdcc3bf9da6d8cdf3e0493c89f636387f1a29d80ec3cffffffff02301b0f00000000001976a9148b3c3691d3926ce77832e4987c5e28aecbafd37b88ac56b8ba00000000001976a9146fe7244af721d26c3ef00b17f75861408c05305d88ac00000000", "vin": [{"sequence": 4294967295, "scriptSig": {"hex": "483045022100b377a668961cfcd6f62350cf41505a1b376170e810f56edd5cef47da4d58f905022058ee9cac5bfe4b4ca00ea4d8dce8356c5fad273ac4a23cc561575687cc87f4d4012103a8dd7bec7777b56bcae7fdcc3bf9da6d8cdf3e0493c89f636387f1a29d80ec3c", "asm": "3045022100b377a668961cfcd6f62350cf41505a1b376170e810f56edd5cef47da4d58f905022058ee9cac5bfe4b4ca00ea4d8dce8356c5fad273ac4a23cc561575687cc87f4d4[ALL] 03a8dd7bec7777b56bcae7fdcc3bf9da6d8cdf3e0493c89f636387f1a29d80ec3c"}, "vout": 1, "txid": "6bc38ef0e84ea4923fa2073b69246c28bb1783c5c4bddd02a4418ed255f147e7"}], "txid": "26029d2a5536350e71e45ea25ea0f71380c246eee1a8cff6b3d78186fccb59cd", "blocktime": 1537874412, "version": 1, "confirmations": 11467, "time": 1537874412, "locktime": 0, "vsize": 226, "size": 226}