{"hash": "43e7aadca7a6ad0eced9195824701055a064e81ed12ef03a2dc4f2ac0d4e5b15", "blockhash": "0000000000000000000e13cef7c366c0283d82e591d1acd082e914b08063cdf1", "vout": [{"scriptPubKey": {"reqSigs": 1, "hex": "a91418bcfcff64f589db760f71bb79e27cc7613e38bd87", "addresses": ["33wpYHNMgeLzmJRUZRUv2Uo9Yhx3Zc6ggh"], "asm": "OP_HASH160 18bcfcff64f589db760f71bb79e27cc7613e38bd OP_EQUAL", "type": "scripthash"}, "value": 0.04, "n": 0}, {"scriptPubKey": {"reqSigs": 1, "hex": "0014cfb3468dbf7b6f8e83cf7665fc955005c558fe5a", "addresses": ["bc1qe7e5drdl0dhcaq70wejle92sqhz43lj6a6hv02"], "asm": "0 cfb3468dbf7b6f8e83cf7665fc955005c558fe5a", "type": "witness_v0_keyhash"}, "value": 0.38743865, "n": 1}], "hex": "0100000000010186ef97fb0eeacd9c778c2b516e794e7381469f0269240baa097b2e7b697fd1680000000000ffffffff0200093d000000000017a91418bcfcff64f589db760f71bb79e27cc7613e38bd87392f4f0200000000160014cfb3468dbf7b6f8e83cf7665fc955005c558fe5a0247304402206e6705723423ac147bb570480b36d098aed4fe9673e7902920e7a7130394da0d022063730b72ca996391f1eba14a9bbee45f69540fe67b13815d5b4cb41ac67baf4e0121020298a92901371dc249307333eb9924fa1eef9e2c2c15694ee546a611767e514900000000", "vin": [{"txinwitness": ["304402206e6705723423ac147bb570480b36d098aed4fe9673e7902920e7a7130394da0d022063730b72ca996391f1eba14a9bbee45f69540fe67b13815d5b4cb41ac67baf4e01", "020298a92901371dc249307333eb9924fa1eef9e2c2c15694ee546a611767e5149"], "sequence": 4294967295, "scriptSig": {"hex": "", "asm": ""}, "vout": 0, "txid": "68d17f697b2e7b09aa0b2469029f4681734e796e512b8c779ccdea0efb97ef86"}], "txid": "26064da5144e12a2f984ba6e75e214bae54e1556fc4c810d09118b1cf56d5ec3", "blocktime": 1537871767, "version": 1, "confirmations": 11495, "time": 1537871767, "locktime": 0, "vsize": 142, "size": 223}