{"hash": "260cee28c25be3856c824ebe58cd1eb698ad5341dc5d359e4cad71a12f0bc32b", "blockhash": "0000000000000000001f76057863aec43deb6fa401d9628bb513d65a8098bfab", "vout": [{"scriptPubKey": {"reqSigs": 1, "hex": "76a91421ea3e993cc9916947846107152237934f6f253b88ac", "addresses": ["146KuvfyxFoDVhuszUyCL2bdQKzfxTW5rz"], "asm": "OP_DUP OP_HASH160 21ea3e993cc9916947846107152237934f6f253b OP_EQUALVERIFY OP_CHECKSIG", "type": "pubkeyhash"}, "value": 5.46e-06, "n": 0}, {"scriptPubKey": {"reqSigs": 1, "hex": "a9143f4eecba122ad73039d481c8d37f99cb4f887cd887", "addresses": ["37Tm3Qz8Zw2VJrheUUhArDAoq58S6YrS3g"], "asm": "OP_HASH160 3f4eecba122ad73039d481c8d37f99cb4f887cd8 OP_EQUAL", "type": "scripthash"}, "value": 0.99997454, "n": 1}, {"scriptPubKey": {"type": "nulldata", "hex": "6a146f6d6e69000000000000001f00000022cee4f700", "asm": "OP_RETURN 6f6d6e69000000000000001f00000022cee4f700"}, "value": 0.0, "n": 2}], "hex": "0100000001879384b623d01b5cbef12133811d1a32b1b4d558a62dafca5519be95869b532300000000fdfe0000483045022100d4ce1eb234bb37460d6856f3f6ea8a433c4378b11b230494ebc1d735a36f7ce9022000acb6af344599226dc223defdf1a6ca0b7daa3602457560ac1442016614298a01483045022100f26b2713cb477a2a258b5e9a263f5da0e2581bacce0ab2e68401b71c3d1a002a0220196056c4adeb364016bee84efa65b3380f703c036d0a204f38760feb5c31e3c4014c6952210246ccf4de0c54cc7f3354cdd993c2c50cf965fd82238b89659fbd73a1b4bf05a121024fc59f72272a897fe43803374969f396058152fe4765a8d15216f94624257b1b21022593bc69ecbf3bbcc3c58082267cb49dadaf4ca8dbf1b2297338a9d628c4297653aeffffffff0322020000000000001976a91421ea3e993cc9916947846107152237934f6f253b88ac0ed7f5050000000017a9143f4eecba122ad73039d481c8d37f99cb4f887cd8870000000000000000166a146f6d6e69000000000000001f00000022cee4f70000000000", "vin": [{"sequence": 4294967295, "scriptSig": {"hex": "00483045022100d4ce1eb234bb37460d6856f3f6ea8a433c4378b11b230494ebc1d735a36f7ce9022000acb6af344599226dc223defdf1a6ca0b7daa3602457560ac1442016614298a01483045022100f26b2713cb477a2a258b5e9a263f5da0e2581bacce0ab2e68401b71c3d1a002a0220196056c4adeb364016bee84efa65b3380f703c036d0a204f38760feb5c31e3c4014c6952210246ccf4de0c54cc7f3354cdd993c2c50cf965fd82238b89659fbd73a1b4bf05a121024fc59f72272a897fe43803374969f396058152fe4765a8d15216f94624257b1b21022593bc69ecbf3bbcc3c58082267cb49dadaf4ca8dbf1b2297338a9d628c4297653ae", "asm": "0 3045022100d4ce1eb234bb37460d6856f3f6ea8a433c4378b11b230494ebc1d735a36f7ce9022000acb6af344599226dc223defdf1a6ca0b7daa3602457560ac1442016614298a[ALL] 3045022100f26b2713cb477a2a258b5e9a263f5da0e2581bacce0ab2e68401b71c3d1a002a0220196056c4adeb364016bee84efa65b3380f703c036d0a204f38760feb5c31e3c4[ALL] 52210246ccf4de0c54cc7f3354cdd993c2c50cf965fd82238b89659fbd73a1b4bf05a121024fc59f72272a897fe43803374969f396058152fe4765a8d15216f94624257b1b21022593bc69ecbf3bbcc3c58082267cb49dadaf4ca8dbf1b2297338a9d628c4297653ae"}, "vout": 0, "txid": "23539b8695be1955caaf2da658d5b4b1321a1d813321f1be5c1bd023b6849387"}], "txid": "260cee28c25be3856c824ebe58cd1eb698ad5341dc5d359e4cad71a12f0bc32b", "blocktime": 1537873891, "version": 1, "confirmations": 11477, "time": 1537873891, "locktime": 0, "vsize": 404, "size": 404}