{"hash": "2610fc3ea20dcfcf815688295eb4856ddf1ee36673b72bbecce175104c4c53a8", "blockhash": "0000000000000000000e13cef7c366c0283d82e591d1acd082e914b08063cdf1", "vout": [{"scriptPubKey": {"reqSigs": 1, "hex": "76a914f3a1e74d4199b3806dd97c9c5a2fb392df605b1188ac", "addresses": ["1PDD9sPVKtEsksSToZbXpoY6S7v4BTbsKH"], "asm": "OP_DUP OP_HASH160 f3a1e74d4199b3806dd97c9c5a2fb392df605b11 OP_EQUALVERIFY OP_CHECKSIG", "type": "pubkeyhash"}, "value": 0.00260453, "n": 0}, {"scriptPubKey": {"reqSigs": 1, "hex": "76a9147ef344dce7667c940ecfb80fdf8d728fc3d7d41088ac", "addresses": ["1CaFZoDN7rxxTR2rfmdfFT7hbStQTNa844"], "asm": "OP_DUP OP_HASH160 7ef344dce7667c940ecfb80fdf8d728fc3d7d410 OP_EQUALVERIFY OP_CHECKSIG", "type": "pubkeyhash"}, "value": 0.00437343, "n": 1}], "hex": "01000000017bbb0cc65f4646077a95d96e008aec9a1badd67d7108397bd7ae2d184427a9e7010000006a4730440220025c0be1dc793a9476a21128a0b87ae0da050fe6c1795b723a4caa4c0ecea6ef022020d8f85cc998c30f7e24133422888a6eb345233fb1b93f695bef90400384fa8201210393918f43b2f1a58e55df1f9c1864ebb8f205ec6db682157de5162999382487f2fdffffff0265f90300000000001976a914f3a1e74d4199b3806dd97c9c5a2fb392df605b1188ac5fac0600000000001976a9147ef344dce7667c940ecfb80fdf8d728fc3d7d41088ac10490800", "vin": [{"sequence": 4294967293, "scriptSig": {"hex": "4730440220025c0be1dc793a9476a21128a0b87ae0da050fe6c1795b723a4caa4c0ecea6ef022020d8f85cc998c30f7e24133422888a6eb345233fb1b93f695bef90400384fa8201210393918f43b2f1a58e55df1f9c1864ebb8f205ec6db682157de5162999382487f2", "asm": "30440220025c0be1dc793a9476a21128a0b87ae0da050fe6c1795b723a4caa4c0ecea6ef022020d8f85cc998c30f7e24133422888a6eb345233fb1b93f695bef90400384fa82[ALL] 0393918f43b2f1a58e55df1f9c1864ebb8f205ec6db682157de5162999382487f2"}, "vout": 1, "txid": "e7a92744182daed77b3908717dd6ad1b9aec8a006ed9957a0746465fc60cbb7b"}], "txid": "2610fc3ea20dcfcf815688295eb4856ddf1ee36673b72bbecce175104c4c53a8", "blocktime": 1537871767, "version": 1, "confirmations": 11493, "time": 1537871767, "locktime": 542992, "vsize": 225, "size": 225}