{"hash": "26216e0133a4e176bf30d6312d5502ac14c1ee5ad06a0b5b139d5b713c14104e", "blockhash": "0000000000000000000e13cef7c366c0283d82e591d1acd082e914b08063cdf1", "vout": [{"scriptPubKey": {"reqSigs": 1, "hex": "a914ddaaa776171c64b45ef747a124ae028e6f8d2fa087", "addresses": ["3Mu5hCLEVNk1giFPwHbyGJU6b4rgeJWXfS"], "asm": "OP_HASH160 ddaaa776171c64b45ef747a124ae028e6f8d2fa0 OP_EQUAL", "type": "scripthash"}, "value": 0.01874859, "n": 0}, {"scriptPubKey": {"reqSigs": 1, "hex": "76a9148a86e5a8d9e3a39a9d5bad5e7d9d1ac47e7e315188ac", "addresses": ["1DdTrHhh8ZJrq1CZYtgZgLEnKTU7xDPLfG"], "asm": "OP_DUP OP_HASH160 8a86e5a8d9e3a39a9d5bad5e7d9d1ac47e7e3151 OP_EQUALVERIFY OP_CHECKSIG", "type": "pubkeyhash"}, "value": 0.02608931, "n": 1}], "hex": "0100000001ddf20617cb8d050f5105a494b3cecdafb4a900785d7878acc508ab68f69cb26e010000006a4730440220128f900425d2f8fc047572d85d96f0c0f6d36d17f6bdf28d4e3c3750a0db8679022007ab321e52e115c3ba011a190f8e06f8d4508bb95f3213b77d7a0c19c7e227b6012103829b2d52956f678305cfc628934c50fb9729026f6dce488f85106a39aad48ac4ffffffff02ab9b1c000000000017a914ddaaa776171c64b45ef747a124ae028e6f8d2fa08723cf2700000000001976a9148a86e5a8d9e3a39a9d5bad5e7d9d1ac47e7e315188ac00000000", "vin": [{"sequence": 4294967295, "scriptSig": {"hex": "4730440220128f900425d2f8fc047572d85d96f0c0f6d36d17f6bdf28d4e3c3750a0db8679022007ab321e52e115c3ba011a190f8e06f8d4508bb95f3213b77d7a0c19c7e227b6012103829b2d52956f678305cfc628934c50fb9729026f6dce488f85106a39aad48ac4", "asm": "30440220128f900425d2f8fc047572d85d96f0c0f6d36d17f6bdf28d4e3c3750a0db8679022007ab321e52e115c3ba011a190f8e06f8d4508bb95f3213b77d7a0c19c7e227b6[ALL] 03829b2d52956f678305cfc628934c50fb9729026f6dce488f85106a39aad48ac4"}, "vout": 1, "txid": "6eb29cf668ab08c5ac78785d7800a9b4afcdceb394a405510f058dcb1706f2dd"}], "txid": "26216e0133a4e176bf30d6312d5502ac14c1ee5ad06a0b5b139d5b713c14104e", "blocktime": 1537871767, "version": 1, "confirmations": 11493, "time": 1537871767, "locktime": 0, "vsize": 223, "size": 223}