{"hash": "26234c2de06489f04b0fd109785c83512fb933a69131706a32d09e407caec4e6", "blockhash": "00000000000000000017f5eb5941039fbcee6240d03bc1f2f8e35350df66a1d8", "vout": [{"scriptPubKey": {"reqSigs": 1, "hex": "76a91451b19aed0bec2774c2689d62c41d3e4c024de9e988ac", "addresses": ["18SxVmDyUqCmBf6mTEfBhDiGzfZH8Xh72x"], "asm": "OP_DUP OP_HASH160 51b19aed0bec2774c2689d62c41d3e4c024de9e9 OP_EQUALVERIFY OP_CHECKSIG", "type": "pubkeyhash"}, "value": 5.46e-06, "n": 0}, {"scriptPubKey": {"reqSigs": 1, "hex": "a9143f4eecba122ad73039d481c8d37f99cb4f887cd887", "addresses": ["37Tm3Qz8Zw2VJrheUUhArDAoq58S6YrS3g"], "asm": "OP_HASH160 3f4eecba122ad73039d481c8d37f99cb4f887cd8 OP_EQUAL", "type": "scripthash"}, "value": 0.99966902, "n": 1}, {"scriptPubKey": {"type": "nulldata", "hex": "6a146f6d6e69000000000000001f0000000b50c92600", "asm": "OP_RETURN 6f6d6e69000000000000001f0000000b50c92600"}, "value": 0.0, "n": 2}], "hex": "01000000012b7b77b9af8a60eeaf67d67aa1219a6a03d6bfd5a79bf739342a9f1b0ec31f2601000000fdfd0000483045022100fb3a675b9374c7cef77ae7bdbe4cc2c5f94f019a34cd3757ec8e1a2ce9bf9ab4022054f2627bad4618be9dff41974a28cf7c215e815d46a84f5a2b1e6699e2ad8dd40147304402205f523ba9222242fbc4e8032d2fadf1c1c3832050bdb21ad1f9b576b1533fe9070220132ec9dfdf80ccb1f1ccb5c9cdc26c94e8f296310923863ccf94d611dc4fd79e014c6952210246ccf4de0c54cc7f3354cdd993c2c50cf965fd82238b89659fbd73a1b4bf05a121024fc59f72272a897fe43803374969f396058152fe4765a8d15216f94624257b1b21022593bc69ecbf3bbcc3c58082267cb49dadaf4ca8dbf1b2297338a9d628c4297653aeffffffff0322020000000000001976a91451b19aed0bec2774c2689d62c41d3e4c024de9e988acb65ff5050000000017a9143f4eecba122ad73039d481c8d37f99cb4f887cd8870000000000000000166a146f6d6e69000000000000001f0000000b50c9260000000000", "vin": [{"sequence": 4294967295, "scriptSig": {"hex": "00483045022100fb3a675b9374c7cef77ae7bdbe4cc2c5f94f019a34cd3757ec8e1a2ce9bf9ab4022054f2627bad4618be9dff41974a28cf7c215e815d46a84f5a2b1e6699e2ad8dd40147304402205f523ba9222242fbc4e8032d2fadf1c1c3832050bdb21ad1f9b576b1533fe9070220132ec9dfdf80ccb1f1ccb5c9cdc26c94e8f296310923863ccf94d611dc4fd79e014c6952210246ccf4de0c54cc7f3354cdd993c2c50cf965fd82238b89659fbd73a1b4bf05a121024fc59f72272a897fe43803374969f396058152fe4765a8d15216f94624257b1b21022593bc69ecbf3bbcc3c58082267cb49dadaf4ca8dbf1b2297338a9d628c4297653ae", "asm": "0 3045022100fb3a675b9374c7cef77ae7bdbe4cc2c5f94f019a34cd3757ec8e1a2ce9bf9ab4022054f2627bad4618be9dff41974a28cf7c215e815d46a84f5a2b1e6699e2ad8dd4[ALL] 304402205f523ba9222242fbc4e8032d2fadf1c1c3832050bdb21ad1f9b576b1533fe9070220132ec9dfdf80ccb1f1ccb5c9cdc26c94e8f296310923863ccf94d611dc4fd79e[ALL] 52210246ccf4de0c54cc7f3354cdd993c2c50cf965fd82238b89659fbd73a1b4bf05a121024fc59f72272a897fe43803374969f396058152fe4765a8d15216f94624257b1b21022593bc69ecbf3bbcc3c58082267cb49dadaf4ca8dbf1b2297338a9d628c4297653ae"}, "vout": 1, "txid": "261fc30e1b9f2a3439f79ba7d5bfd6036a9a21a17ad667afee608aafb9777b2b"}], "txid": "26234c2de06489f04b0fd109785c83512fb933a69131706a32d09e407caec4e6", "blocktime": 1537874412, "version": 1, "confirmations": 11467, "time": 1537874412, "locktime": 0, "vsize": 403, "size": 403}