{"hash": "2623e5054169273076293a506928b216666688a62fcdf0a8f7e862e503e740a2", "blockhash": "0000000000000000001f76057863aec43deb6fa401d9628bb513d65a8098bfab", "vout": [{"scriptPubKey": {"reqSigs": 1, "hex": "a914257cdaeb93d3d59afafc27c650192b3e1c34100a87", "addresses": ["357EVjHaCdJ533kjWygEDuokMWuVsBBe8R"], "asm": "OP_HASH160 257cdaeb93d3d59afafc27c650192b3e1c34100a OP_EQUAL", "type": "scripthash"}, "value": 0.00427994, "n": 0}, {"scriptPubKey": {"reqSigs": 1, "hex": "76a914b6d76c3634b53bc57a24bcdc97f688dbff0f991988ac", "addresses": ["1Hfn3kCndwHPM84Q9fzFB2wYAdtaJq4M5u"], "asm": "OP_DUP OP_HASH160 b6d76c3634b53bc57a24bcdc97f688dbff0f9919 OP_EQUALVERIFY OP_CHECKSIG", "type": "pubkeyhash"}, "value": 0.04139312, "n": 1}], "hex": "0100000001ad6b0964fc6f7172596d25053793f51556c46c950a442bc2e7498f6c143413f8010000006a473044022030cc8e410287a009e7ece06b211f607201c9856fd349fe75b425c46acc916c6e02203cd8a26f6a3162042a3cb274579e483b6faaf5f96dfdbf2785b571b33f433ac30121029c19a57ace8f15381f3bf89b953d0595b49ba6415f3b03a68956127084ea2ac3ffffffff02da8706000000000017a914257cdaeb93d3d59afafc27c650192b3e1c34100a8730293f00000000001976a914b6d76c3634b53bc57a24bcdc97f688dbff0f991988ac00000000", "vin": [{"sequence": 4294967295, "scriptSig": {"hex": "473044022030cc8e410287a009e7ece06b211f607201c9856fd349fe75b425c46acc916c6e02203cd8a26f6a3162042a3cb274579e483b6faaf5f96dfdbf2785b571b33f433ac30121029c19a57ace8f15381f3bf89b953d0595b49ba6415f3b03a68956127084ea2ac3", "asm": "3044022030cc8e410287a009e7ece06b211f607201c9856fd349fe75b425c46acc916c6e02203cd8a26f6a3162042a3cb274579e483b6faaf5f96dfdbf2785b571b33f433ac3[ALL] 029c19a57ace8f15381f3bf89b953d0595b49ba6415f3b03a68956127084ea2ac3"}, "vout": 1, "txid": "f81334146c8f49e7c22b440a956cc45615f5933705256d5972716ffc64096bad"}], "txid": "2623e5054169273076293a506928b216666688a62fcdf0a8f7e862e503e740a2", "blocktime": 1537873891, "version": 1, "confirmations": 11475, "time": 1537873891, "locktime": 0, "vsize": 223, "size": 223}