{"hash": "a9d66db5330719691f0bcd8fb549c01e91998a3dc20388aa6b8e1fce3a84a74d", "blockhash": "0000000000000000000e13cef7c366c0283d82e591d1acd082e914b08063cdf1", "vout": [{"scriptPubKey": {"reqSigs": 1, "hex": "a9142955d039f66701939d87edbf5f349503d22338da87", "addresses": ["35TaRpwDuVUMf6Nu91vdQek9PEHsgHKebF"], "asm": "OP_HASH160 2955d039f66701939d87edbf5f349503d22338da OP_EQUAL", "type": "scripthash"}, "value": 0.000781, "n": 0}, {"scriptPubKey": {"reqSigs": 1, "hex": "0014340f2c2d61148a4187ae4232e2fd54a4299985a4", "addresses": ["bc1qxs8jcttpzj9yrpawggew9l255s5enpdy2hz64a"], "asm": "0 340f2c2d61148a4187ae4232e2fd54a4299985a4", "type": "witness_v0_keyhash"}, "value": 1.388e-05, "n": 1}], "hex": "010000000001017f803f7e022f5381cb54a48f56fb174bb943e9639b68b1fe02838007b741ee9e6503000017160014a718fc5544e843a58290c56ff902aa2cfb9643d9ffffffff02143101000000000017a9142955d039f66701939d87edbf5f349503d22338da876c05000000000000160014340f2c2d61148a4187ae4232e2fd54a4299985a402483045022100b3c773df5e738ab4287ec2ef772ee48e23b4e9058faa30de95936c4015ef4a400220126bbfee059b0f33c26c6be23f5e561bc06d643ae31bc44a597d598fadffc075012103a627394dd1a9f05965747df36eb782ac8f73edb7186f79fdb05fa86d5a20402000000000", "vin": [{"txinwitness": ["3045022100b3c773df5e738ab4287ec2ef772ee48e23b4e9058faa30de95936c4015ef4a400220126bbfee059b0f33c26c6be23f5e561bc06d643ae31bc44a597d598fadffc07501", "03a627394dd1a9f05965747df36eb782ac8f73edb7186f79fdb05fa86d5a204020"], "sequence": 4294967295, "scriptSig": {"hex": "160014a718fc5544e843a58290c56ff902aa2cfb9643d9", "asm": "0014a718fc5544e843a58290c56ff902aa2cfb9643d9"}, "vout": 869, "txid": "9eee41b707808302feb1689b63e943b94b17fb568fa454cb81532f027e3f807f"}], "txid": "26266a7d0b76c37919aa57299f28b3f6f6274e8498afae18e6201549ea64a0ff", "blocktime": 1537871767, "version": 1, "confirmations": 11495, "time": 1537871767, "locktime": 0, "vsize": 165, "size": 247}