{"hash": "262f9c4326627658529f9ea3d97c4bafe0bd91067e0814c5947e2f4ca03b98fd", "blockhash": "0000000000000000001f0ddff1eddb255c1121bcd4da4f1bc9a0da00cae72433", "vout": [{"scriptPubKey": {"reqSigs": 1, "hex": "76a91427ff380031c10b9285f68479d7582bbec8079f5e88ac", "addresses": ["14eV6Ph4xDVo5Xb2JNc2gpNxKumqGen9nb"], "asm": "OP_DUP OP_HASH160 27ff380031c10b9285f68479d7582bbec8079f5e OP_EQUALVERIFY OP_CHECKSIG", "type": "pubkeyhash"}, "value": 0.00844871, "n": 0}, {"scriptPubKey": {"reqSigs": 1, "hex": "a9149da5726f1847632649e5353f7490e720e17be45a87", "addresses": ["3G4aD7xTmeSkZyZt3x91eufhgWxzjDZYbc"], "asm": "OP_HASH160 9da5726f1847632649e5353f7490e720e17be45a OP_EQUAL", "type": "scripthash"}, "value": 0.012508, "n": 1}], "hex": "010000000129ce6411bbf6964049f48e810a572fe35e588771d623c7993424e22c8d37167d01000000fdfe0000483045022100aebbed66b1f7497bc24091bc10191b39545702da0f65ce8d743f300a08a3e7a4022012f180facf587a87106066d45a0d06af2e10bea50ec107152146e903452443c201483045022100e7c28442a20628984aaeba961d6fc6115c38d9c11602ae49fd7ee8624aa0e5bf0220351989117ef5cb194e78746654c47145c7d899d900c9500a74501c8ac6483672014c695221032fcbe973ea6ec7d8987356fe628bb7a849b71c186e5f3607b90c227d804c3f04210379ba46d17ba910088c1ded0e489948fb9dca73e95351f63ccb17526cd13e86172103f66ddc605b91ac5c79f72cc58aed26a527a520e8b03a70085219fff7f6bca31f53aeffffffff0247e40c00000000001976a91427ff380031c10b9285f68479d7582bbec8079f5e88acf01513000000000017a9149da5726f1847632649e5353f7490e720e17be45a8700000000", "vin": [{"sequence": 4294967295, "scriptSig": {"hex": "00483045022100aebbed66b1f7497bc24091bc10191b39545702da0f65ce8d743f300a08a3e7a4022012f180facf587a87106066d45a0d06af2e10bea50ec107152146e903452443c201483045022100e7c28442a20628984aaeba961d6fc6115c38d9c11602ae49fd7ee8624aa0e5bf0220351989117ef5cb194e78746654c47145c7d899d900c9500a74501c8ac6483672014c695221032fcbe973ea6ec7d8987356fe628bb7a849b71c186e5f3607b90c227d804c3f04210379ba46d17ba910088c1ded0e489948fb9dca73e95351f63ccb17526cd13e86172103f66ddc605b91ac5c79f72cc58aed26a527a520e8b03a70085219fff7f6bca31f53ae", "asm": "0 3045022100aebbed66b1f7497bc24091bc10191b39545702da0f65ce8d743f300a08a3e7a4022012f180facf587a87106066d45a0d06af2e10bea50ec107152146e903452443c2[ALL] 3045022100e7c28442a20628984aaeba961d6fc6115c38d9c11602ae49fd7ee8624aa0e5bf0220351989117ef5cb194e78746654c47145c7d899d900c9500a74501c8ac6483672[ALL] 5221032fcbe973ea6ec7d8987356fe628bb7a849b71c186e5f3607b90c227d804c3f04210379ba46d17ba910088c1ded0e489948fb9dca73e95351f63ccb17526cd13e86172103f66ddc605b91ac5c79f72cc58aed26a527a520e8b03a70085219fff7f6bca31f53ae"}, "vout": 1, "txid": "7d16378d2ce2243499c723d67187585ee32f570a818ef4494096f6bb1164ce29"}], "txid": "262f9c4326627658529f9ea3d97c4bafe0bd91067e0814c5947e2f4ca03b98fd", "blocktime": 1537872018, "version": 1, "confirmations": 11489, "time": 1537872018, "locktime": 0, "vsize": 373, "size": 373}