{"hash": "262fce1d1f61fc895387904b9905ee5bcd5997f53d66e69871c1feb90a6e12d2", "blockhash": "0000000000000000000e13cef7c366c0283d82e591d1acd082e914b08063cdf1", "vout": [{"scriptPubKey": {"reqSigs": 1, "hex": "76a914c6e2f37e66f8590b2c432084aebd75754eb4972d88ac", "addresses": ["1K8cfppwrGgZZFnJFqQE2ZQwW5Wjj6SiKy"], "asm": "OP_DUP OP_HASH160 c6e2f37e66f8590b2c432084aebd75754eb4972d OP_EQUALVERIFY OP_CHECKSIG", "type": "pubkeyhash"}, "value": 0.00644916, "n": 0}, {"scriptPubKey": {"type": "nulldata", "hex": "6a4c500000779c000114a898f23fe1bc665f662dbfe3ef3236678a625097bcbefa6b8351586b4eba21a813ee8def98f42073a9709d8c795baa0d99061567b421566cf61d100759d4ba30d2c37bb011d97e02cf", "asm": "OP_RETURN 0000779c000114a898f23fe1bc665f662dbfe3ef3236678a625097bcbefa6b8351586b4eba21a813ee8def98f42073a9709d8c795baa0d99061567b421566cf61d100759d4ba30d2c37bb011d97e02cf"}, "value": 0.0, "n": 1}], "hex": "01000000010c5c102cc5e2414abf056ccb828a1aaed776c1bd348aa0bc48121e8ab79251fc000000006b483045022100b26d2e543207b47c307724f21d1c6aa0f259bb23bdcf6509b597e0288a746fc7022041c4c1b266354dd9ca61675c85e2fbac1068bb00e5469b84a1aefce31c707d320121020f24f9c4beb425b2d64e131c91f2851916a616e0d2dc3124e84c0fb9c2851ca5ffffffff0234d70900000000001976a914c6e2f37e66f8590b2c432084aebd75754eb4972d88ac0000000000000000536a4c500000779c000114a898f23fe1bc665f662dbfe3ef3236678a625097bcbefa6b8351586b4eba21a813ee8def98f42073a9709d8c795baa0d99061567b421566cf61d100759d4ba30d2c37bb011d97e02cf00000000", "vin": [{"sequence": 4294967295, "scriptSig": {"hex": "483045022100b26d2e543207b47c307724f21d1c6aa0f259bb23bdcf6509b597e0288a746fc7022041c4c1b266354dd9ca61675c85e2fbac1068bb00e5469b84a1aefce31c707d320121020f24f9c4beb425b2d64e131c91f2851916a616e0d2dc3124e84c0fb9c2851ca5", "asm": "3045022100b26d2e543207b47c307724f21d1c6aa0f259bb23bdcf6509b597e0288a746fc7022041c4c1b266354dd9ca61675c85e2fbac1068bb00e5469b84a1aefce31c707d32[ALL] 020f24f9c4beb425b2d64e131c91f2851916a616e0d2dc3124e84c0fb9c2851ca5"}, "vout": 0, "txid": "fc5192b78a1e1248bca08a34bdc176d7ae1a8a82cb6c05bf4a41e2c52c105c0c"}], "txid": "262fce1d1f61fc895387904b9905ee5bcd5997f53d66e69871c1feb90a6e12d2", "blocktime": 1537871767, "version": 1, "confirmations": 11495, "time": 1537871767, "locktime": 0, "vsize": 284, "size": 284}