{"hash": "2638191962b3a298e26bd676db3e4090fa90b41f8a3eae366b8a430308b2c137", "blockhash": "0000000000000000001f76057863aec43deb6fa401d9628bb513d65a8098bfab", "vout": [{"scriptPubKey": {"reqSigs": 1, "hex": "a91449b8e3a3b52b00eef6af48ac68e2c7c6f8604b3487", "addresses": ["38QpjsiyiHUiuvZi4jzK5RmBoPbLNuq8Xd"], "asm": "OP_HASH160 49b8e3a3b52b00eef6af48ac68e2c7c6f8604b34 OP_EQUAL", "type": "scripthash"}, "value": 0.00309427, "n": 0}], "hex": "010000000148fcc7e40b0002cd677b89091c976b75df4f4d6990269e6d76fa170e9de3c903000000006a473044022078b72b346751765886fc83e6b0c59dd08ca304da170d3b006273ef296fcb747c02205e50f2427a78e14ad669e8a4eb3448cdf42a33839c5efd9423f6b6de81d175a7012102acec0043e5ca30a9e027bf20abade461f2e30176cfad68900f96c79c8224bdd6ffffffff01b3b804000000000017a91449b8e3a3b52b00eef6af48ac68e2c7c6f8604b348700000000", "vin": [{"sequence": 4294967295, "scriptSig": {"hex": "473044022078b72b346751765886fc83e6b0c59dd08ca304da170d3b006273ef296fcb747c02205e50f2427a78e14ad669e8a4eb3448cdf42a33839c5efd9423f6b6de81d175a7012102acec0043e5ca30a9e027bf20abade461f2e30176cfad68900f96c79c8224bdd6", "asm": "3044022078b72b346751765886fc83e6b0c59dd08ca304da170d3b006273ef296fcb747c02205e50f2427a78e14ad669e8a4eb3448cdf42a33839c5efd9423f6b6de81d175a7[ALL] 02acec0043e5ca30a9e027bf20abade461f2e30176cfad68900f96c79c8224bdd6"}, "vout": 0, "txid": "03c9e39d0e17fa766d9e2690694d4fdf756b971c09897b67cd02000be4c7fc48"}], "txid": "2638191962b3a298e26bd676db3e4090fa90b41f8a3eae366b8a430308b2c137", "blocktime": 1537873891, "version": 1, "confirmations": 11478, "time": 1537873891, "locktime": 0, "vsize": 189, "size": 189}