{"hash": "26398d12368d93841b466b2a41889204a6abcf3e5d329ff8ad9e4b1a6ea9ddd9", "blockhash": "0000000000000000000e13cef7c366c0283d82e591d1acd082e914b08063cdf1", "vout": [{"scriptPubKey": {"reqSigs": 1, "hex": "76a91444daae022135e904eac309e879e2e275163b66fb88ac", "addresses": ["17H4vBK4z3hcMKfiCMpDQNKuinZ6qHeJD5"], "asm": "OP_DUP OP_HASH160 44daae022135e904eac309e879e2e275163b66fb OP_EQUALVERIFY OP_CHECKSIG", "type": "pubkeyhash"}, "value": 0.62547953, "n": 0}, {"scriptPubKey": {"reqSigs": 1, "hex": "76a9143021622804522862a96b461760798af6d4fefb3288ac", "addresses": ["15PVRjGZ9piCUuoqxtUBSMk6YsRot4xDTe"], "asm": "OP_DUP OP_HASH160 3021622804522862a96b461760798af6d4fefb32 OP_EQUALVERIFY OP_CHECKSIG", "type": "pubkeyhash"}, "value": 1.4, "n": 1}], "hex": "0100000003d467b705f0a600dfbd8e0ecaed1c203e2090a25f8177f714621246228486cc8e000000006a4730440220230f96571b02a354c9727f048f9ce4e88a01bc555a65dc2d7cd1206164f8f81f022008542a4431210ba186eb91487ecf183edb487a4e3552d80fbece5d0c41a702bc0121028a671d0a56666380bb685e8d5ddb3526809eec912a2e460fb83276e8a08ae490ffffffff54308e0c8cdc094d26c0ba269f9ae58f467c9ec28e5d267baa18ce838260689a000000006a47304402206f5d8d1be744cea3478c154ccb5fa7cb9bdbeda25a341ad97fd054994369232502204e0c1ef5d322b2490f9405dd45a2d53e39bdb58a158a80157f717cc35233b93a012102dd2155548746ba534fd390cfd1380165e23ea080670ef97c8a2aeec871cf7b17ffffffff28f0147f97aed7192aec6bc69eb04a94209c145c12b82f5f6fe759116479c8cb010000006a47304402203de25a4514c35f1385f1bfec00accc8dadcb2b48e03cf2736123092cfe4f195b02207284a7f03f04200b6dc7bc069b0c42d827e60debf541cdef66258fc993475706012102636cd74efc28cae7dfaf1221e0578a63555114c6b67dc2e9990b5bfc54095d9cffffffff02f167ba03000000001976a91444daae022135e904eac309e879e2e275163b66fb88ac003b5808000000001976a9143021622804522862a96b461760798af6d4fefb3288ac00000000", "vin": [{"sequence": 4294967295, "scriptSig": {"hex": "4730440220230f96571b02a354c9727f048f9ce4e88a01bc555a65dc2d7cd1206164f8f81f022008542a4431210ba186eb91487ecf183edb487a4e3552d80fbece5d0c41a702bc0121028a671d0a56666380bb685e8d5ddb3526809eec912a2e460fb83276e8a08ae490", "asm": "30440220230f96571b02a354c9727f048f9ce4e88a01bc555a65dc2d7cd1206164f8f81f022008542a4431210ba186eb91487ecf183edb487a4e3552d80fbece5d0c41a702bc[ALL] 028a671d0a56666380bb685e8d5ddb3526809eec912a2e460fb83276e8a08ae490"}, "vout": 0, "txid": "8ecc86842246126214f777815fa290203e201cedca0e8ebddf00a6f005b767d4"}, {"sequence": 4294967295, "scriptSig": {"hex": "47304402206f5d8d1be744cea3478c154ccb5fa7cb9bdbeda25a341ad97fd054994369232502204e0c1ef5d322b2490f9405dd45a2d53e39bdb58a158a80157f717cc35233b93a012102dd2155548746ba534fd390cfd1380165e23ea080670ef97c8a2aeec871cf7b17", "asm": "304402206f5d8d1be744cea3478c154ccb5fa7cb9bdbeda25a341ad97fd054994369232502204e0c1ef5d322b2490f9405dd45a2d53e39bdb58a158a80157f717cc35233b93a[ALL] 02dd2155548746ba534fd390cfd1380165e23ea080670ef97c8a2aeec871cf7b17"}, "vout": 0, "txid": "9a68608283ce18aa7b265d8ec29e7c468fe59a9f26bac0264d09dc8c0c8e3054"}, {"sequence": 4294967295, "scriptSig": {"hex": "47304402203de25a4514c35f1385f1bfec00accc8dadcb2b48e03cf2736123092cfe4f195b02207284a7f03f04200b6dc7bc069b0c42d827e60debf541cdef66258fc993475706012102636cd74efc28cae7dfaf1221e0578a63555114c6b67dc2e9990b5bfc54095d9c", "asm": "304402203de25a4514c35f1385f1bfec00accc8dadcb2b48e03cf2736123092cfe4f195b02207284a7f03f04200b6dc7bc069b0c42d827e60debf541cdef66258fc993475706[ALL] 02636cd74efc28cae7dfaf1221e0578a63555114c6b67dc2e9990b5bfc54095d9c"}, "vout": 1, "txid": "cbc879641159e76f5f2fb8125c149c20944ab09ec66bec2a19d7ae977f14f028"}], "txid": "26398d12368d93841b466b2a41889204a6abcf3e5d329ff8ad9e4b1a6ea9ddd9", "blocktime": 1537871767, "version": 1, "confirmations": 11493, "time": 1537871767, "locktime": 0, "vsize": 519, "size": 519}