{"hash": "263ad56de4939b47eb2afa8167f45fb955c103ee9bf9ce8c028185cbf5f407a4", "blockhash": "000000000000000000022b45ed06c6f4ccd3cf7fb5ba4856ebd2e58215665228", "vout": [{"scriptPubKey": {"reqSigs": 1, "hex": "76a91495f8fb8d8cc65a8edf18ca82124862fad067f89288ac", "addresses": ["1EfyxCYcWb9Gr4pG4pMwTEiXoRtYsHnVfx"], "asm": "OP_DUP OP_HASH160 95f8fb8d8cc65a8edf18ca82124862fad067f892 OP_EQUALVERIFY OP_CHECKSIG", "type": "pubkeyhash"}, "value": 0.01559581, "n": 0}, {"scriptPubKey": {"reqSigs": 1, "hex": "76a91461e286e5befec4d1c3049f7e92e11f27ac0943e388ac", "addresses": ["19vZuyaYr1yKWi5HXWcTWEExTQR1aGDkpE"], "asm": "OP_DUP OP_HASH160 61e286e5befec4d1c3049f7e92e11f27ac0943e3 OP_EQUALVERIFY OP_CHECKSIG", "type": "pubkeyhash"}, "value": 0.10948624, "n": 1}], "hex": "01000000012e7a631b8e0619f1bc6fee0213d3761d982e96dd2a773494c438d68dc203cd76010000006a47304402203239020bf855188a244aac2de9d75b420ffd60579453504b19a273e995be1d1902207c1f85bd30da05f91e66549932dcc8f47e2e4aba1ed5c34765bf839cc59ca22e0121024f0910a31839b08cee8526957df8f14c280d56f281ac7150cb8a8f10d82feb94ffffffff021dcc1700000000001976a91495f8fb8d8cc65a8edf18ca82124862fad067f89288ac1010a700000000001976a91461e286e5befec4d1c3049f7e92e11f27ac0943e388ac00000000", "vin": [{"sequence": 4294967295, "scriptSig": {"hex": "47304402203239020bf855188a244aac2de9d75b420ffd60579453504b19a273e995be1d1902207c1f85bd30da05f91e66549932dcc8f47e2e4aba1ed5c34765bf839cc59ca22e0121024f0910a31839b08cee8526957df8f14c280d56f281ac7150cb8a8f10d82feb94", "asm": "304402203239020bf855188a244aac2de9d75b420ffd60579453504b19a273e995be1d1902207c1f85bd30da05f91e66549932dcc8f47e2e4aba1ed5c34765bf839cc59ca22e[ALL] 024f0910a31839b08cee8526957df8f14c280d56f281ac7150cb8a8f10d82feb94"}, "vout": 1, "txid": "76cd03c28dd638c49434772add962e981d76d31302ee6fbcf119068e1b637a2e"}], "txid": "263ad56de4939b47eb2afa8167f45fb955c103ee9bf9ce8c028185cbf5f407a4", "blocktime": 1537869901, "version": 1, "confirmations": 11524, "time": 1537869901, "locktime": 0, "vsize": 225, "size": 225}