{"hash": "264d38a078f73bee496c1728910899d7069478c4a884149c3646a0950dcbc4fe", "blockhash": "0000000000000000001cda96e906b7601b7a6fb1a3b62bca570a9e5d8f4b3de1", "vout": [{"scriptPubKey": {"reqSigs": 1, "hex": "a914b51785ea81c5e978f5812c156fc50cb8080708c987", "addresses": ["3JCYQgMdiHZBPXWiKwWzfoKZJLE81i2Raw"], "asm": "OP_HASH160 b51785ea81c5e978f5812c156fc50cb8080708c9 OP_EQUAL", "type": "scripthash"}, "value": 0.2288, "n": 0}], "hex": "0100000003397e2b0a5b54a9896829f3349beb403478a3447138642c61f55dfc9b46f3d427010000006a47304402207ef1d6d8c0fb658c68fa9ebf199ce776a08a7b2196a029bf1d593d268dad0b69022051a97b2b45c84e738e6912e2a33113be2592b6bb45979fc54f5f68ad398e81f0012102468322019e9a1d874244e5980dc7dd6c4a75844f88f1e275edeb8b929aa2f100ffffffffca134d957d1d4fbe9f2169c9ba7e1b902b77930c6f24e1bec8f28b93629cd349010000006a47304402204c322ac184e66cfc164ba9c0c91ea6fd0993a7cbd1a7f5bbd872efe5dc9d4339022047941d320b3646dd90a76b3c11460f85cc8d7d570c4d4d3f527022c005798a99012102468322019e9a1d874244e5980dc7dd6c4a75844f88f1e275edeb8b929aa2f100ffffffff0a1848ac5fe0e6cfa6b79495cffe7299424529c6b925d3c882d8fd52b077e1d8010000006b483045022100a55cffe29ee6fdeb13c0b4163004c361ffb557fcabb4835a4d6bc071a8923794022030e244de7d0f0c01eb70c254be520a1edfb46f7c86bd7fb80e0e1472af3e802a01210266e4240dcb1331787ec2a1f8d3fc02dff241401b3fb5009adede58da959b1fc3ffffffff01001f5d010000000017a914b51785ea81c5e978f5812c156fc50cb8080708c98700000000", "vin": [{"sequence": 4294967295, "scriptSig": {"hex": "47304402207ef1d6d8c0fb658c68fa9ebf199ce776a08a7b2196a029bf1d593d268dad0b69022051a97b2b45c84e738e6912e2a33113be2592b6bb45979fc54f5f68ad398e81f0012102468322019e9a1d874244e5980dc7dd6c4a75844f88f1e275edeb8b929aa2f100", "asm": "304402207ef1d6d8c0fb658c68fa9ebf199ce776a08a7b2196a029bf1d593d268dad0b69022051a97b2b45c84e738e6912e2a33113be2592b6bb45979fc54f5f68ad398e81f0[ALL] 02468322019e9a1d874244e5980dc7dd6c4a75844f88f1e275edeb8b929aa2f100"}, "vout": 1, "txid": "27d4f3469bfc5df5612c64387144a3783440eb9b34f3296889a9545b0a2b7e39"}, {"sequence": 4294967295, "scriptSig": {"hex": "47304402204c322ac184e66cfc164ba9c0c91ea6fd0993a7cbd1a7f5bbd872efe5dc9d4339022047941d320b3646dd90a76b3c11460f85cc8d7d570c4d4d3f527022c005798a99012102468322019e9a1d874244e5980dc7dd6c4a75844f88f1e275edeb8b929aa2f100", "asm": "304402204c322ac184e66cfc164ba9c0c91ea6fd0993a7cbd1a7f5bbd872efe5dc9d4339022047941d320b3646dd90a76b3c11460f85cc8d7d570c4d4d3f527022c005798a99[ALL] 02468322019e9a1d874244e5980dc7dd6c4a75844f88f1e275edeb8b929aa2f100"}, "vout": 1, "txid": "49d39c62938bf2c8bee1246f0c93772b901b7ebac969219fbe4f1d7d954d13ca"}, {"sequence": 4294967295, "scriptSig": {"hex": "483045022100a55cffe29ee6fdeb13c0b4163004c361ffb557fcabb4835a4d6bc071a8923794022030e244de7d0f0c01eb70c254be520a1edfb46f7c86bd7fb80e0e1472af3e802a01210266e4240dcb1331787ec2a1f8d3fc02dff241401b3fb5009adede58da959b1fc3", "asm": "3045022100a55cffe29ee6fdeb13c0b4163004c361ffb557fcabb4835a4d6bc071a8923794022030e244de7d0f0c01eb70c254be520a1edfb46f7c86bd7fb80e0e1472af3e802a[ALL] 0266e4240dcb1331787ec2a1f8d3fc02dff241401b3fb5009adede58da959b1fc3"}, "vout": 1, "txid": "d8e177b052fdd882c8d325b9c62945429972fecf9594b7a6cfe6e05fac48180a"}], "txid": "264d38a078f73bee496c1728910899d7069478c4a884149c3646a0950dcbc4fe", "blocktime": 1537873282, "version": 1, "confirmations": 11480, "time": 1537873282, "locktime": 0, "vsize": 484, "size": 484}