{"hash": "1f9645a45a3b3f77174588ef1a4aac3b0165d7695cabe66225c01408b8fb2aa8", "blockhash": "0000000000000000000baef3f32e3676a92c3b2e5da21b426e4f302fc371ce76", "vout": [{"scriptPubKey": {"reqSigs": 1, "hex": "a914e34278d09e4159c9dc85ce171c57b6698ada358d87", "addresses": ["3NQewe5ija7v2ccmmCABGnkavC5woZWgLt"], "asm": "OP_HASH160 e34278d09e4159c9dc85ce171c57b6698ada358d OP_EQUAL", "type": "scripthash"}, "value": 0.01232046, "n": 0}, {"scriptPubKey": {"reqSigs": 1, "hex": "a9142a79c5bac1e8579208eee3aee99398639a2db33f87", "addresses": ["35ZcBVc2nn7NNDoYCVbD2pdQGgyYoTfMnT"], "asm": "OP_HASH160 2a79c5bac1e8579208eee3aee99398639a2db33f OP_EQUAL", "type": "scripthash"}, "value": 0.60302592, "n": 1}], "hex": "010000000001019dc1eb884371056c2a6de51087116e1402ee382206770eea9c797370fb7b460b0000000023220020cd3af709e6633dacd59a3decf6999cc8fb620baab0645581277dd959ec9f6a17ffffffff02aecc12000000000017a914e34278d09e4159c9dc85ce171c57b6698ada358d87002598030000000017a9142a79c5bac1e8579208eee3aee99398639a2db33f870400483045022100f080659772227c5bc4e1f272b53286c6b46e1e1fa46c5060aa170014b1d5fbca0220567b29851bc08029efa7a5b3d86c27dd078914b97796eaecccbbd855e111541c0148304502210088f454715251cc61a76d022b2d7be722bd8c11f5b96ca7dbfc0ecc9929dee9e4022016f850d40fa5ac92f5a202aeb58db974cff112717a620550167e880a63f7440f01695221038f667aca330a26fda5dc1edb250035cfb4276b647f5ac467904ed1ff2a7962a42103982a205ac86dab503906ef4fab05a9cd2e977e022fe774eef5b4d5b6af7f732a2103e7fe779193dc4045a376a9c424c7eabc2f363f4dfd1d986df39e0bb6f4fcc57053ae00000000", "vin": [{"txinwitness": ["", "3045022100f080659772227c5bc4e1f272b53286c6b46e1e1fa46c5060aa170014b1d5fbca0220567b29851bc08029efa7a5b3d86c27dd078914b97796eaecccbbd855e111541c01", "304502210088f454715251cc61a76d022b2d7be722bd8c11f5b96ca7dbfc0ecc9929dee9e4022016f850d40fa5ac92f5a202aeb58db974cff112717a620550167e880a63f7440f01", "5221038f667aca330a26fda5dc1edb250035cfb4276b647f5ac467904ed1ff2a7962a42103982a205ac86dab503906ef4fab05a9cd2e977e022fe774eef5b4d5b6af7f732a2103e7fe779193dc4045a376a9c424c7eabc2f363f4dfd1d986df39e0bb6f4fcc57053ae"], "sequence": 4294967295, "scriptSig": {"hex": "220020cd3af709e6633dacd59a3decf6999cc8fb620baab0645581277dd959ec9f6a17", "asm": "0020cd3af709e6633dacd59a3decf6999cc8fb620baab0645581277dd959ec9f6a17"}, "vout": 0, "txid": "0b467bfb7073799cea0e77062238ee02146e118710e56d2a6c05714388ebc19d"}], "txid": "265066624f2c57a519d52421f67672b725cee87a836f142316051e8e7aa89418", "blocktime": 1537876114, "version": 1, "confirmations": 11460, "time": 1537876114, "locktime": 0, "vsize": 214, "size": 406}