{"hash": "2656cdb6794b955b4330ed45b13681026b7d8430bcf70c64a3e4660266f4ea77", "blockhash": "0000000000000000001e0dab787dd257d1dbfcb92a98c2207d5e1078be1f4165", "vout": [{"scriptPubKey": {"reqSigs": 1, "hex": "76a9147caf205bb0583525bb8b1ca836fb8bcc8fa724db88ac", "addresses": ["1CNGanPKmFXDWcoSGBC6xdrjsTsiGn8gx4"], "asm": "OP_DUP OP_HASH160 7caf205bb0583525bb8b1ca836fb8bcc8fa724db OP_EQUALVERIFY OP_CHECKSIG", "type": "pubkeyhash"}, "value": 0.00239293, "n": 0}, {"scriptPubKey": {"reqSigs": 1, "hex": "76a914002db3ce4a401b98160b52bd08dd6e201f1d68f288ac", "addresses": ["11wkTTJD1j2w1hzE3unakhpDDkWkbo78u"], "asm": "OP_DUP OP_HASH160 002db3ce4a401b98160b52bd08dd6e201f1d68f2 OP_EQUALVERIFY OP_CHECKSIG", "type": "pubkeyhash"}, "value": 0.010768, "n": 1}], "hex": "01000000028ab192ee716e216269fe9d8c3f9b0ccc01089a810783bd2ad6d387879a6be74c010000006a4730440220323f606552c32782ff940d55a0244de737233657efe06eeff77dea4f2d28c99f02204591ab758f7ad8b81b0cc5b779cf6922516c252aa7637e05b20f2695b7eeb525012102d7fb8b60b581f071ab566325ab1de5fbcd2e26de13e77ffd8e574c098d3ef2b8ffffffffa3029efd58738e49cb05ac7da8e876f58905494c2dd6b15b0ee89f57439f4c60000000006b48304502210088569d44e63422cc91fa42d3539e40db5826213a92421f9f9a7cd1e2066776c202200d403bb0b9f2dfdb1771914cf8386e9eca100bc158975beeeefbd141cbd3d7af012103ed04b6a56f7421118769840a2fba33740b87cddf860680ae0b703aa5b02d77beffffffff02bda60300000000001976a9147caf205bb0583525bb8b1ca836fb8bcc8fa724db88ac406e1000000000001976a914002db3ce4a401b98160b52bd08dd6e201f1d68f288ac00000000", "vin": [{"sequence": 4294967295, "scriptSig": {"hex": "4730440220323f606552c32782ff940d55a0244de737233657efe06eeff77dea4f2d28c99f02204591ab758f7ad8b81b0cc5b779cf6922516c252aa7637e05b20f2695b7eeb525012102d7fb8b60b581f071ab566325ab1de5fbcd2e26de13e77ffd8e574c098d3ef2b8", "asm": "30440220323f606552c32782ff940d55a0244de737233657efe06eeff77dea4f2d28c99f02204591ab758f7ad8b81b0cc5b779cf6922516c252aa7637e05b20f2695b7eeb525[ALL] 02d7fb8b60b581f071ab566325ab1de5fbcd2e26de13e77ffd8e574c098d3ef2b8"}, "vout": 1, "txid": "4ce76b9a8787d3d62abd8307819a0801cc0c9b3f8c9dfe6962216e71ee92b18a"}, {"sequence": 4294967295, "scriptSig": {"hex": "48304502210088569d44e63422cc91fa42d3539e40db5826213a92421f9f9a7cd1e2066776c202200d403bb0b9f2dfdb1771914cf8386e9eca100bc158975beeeefbd141cbd3d7af012103ed04b6a56f7421118769840a2fba33740b87cddf860680ae0b703aa5b02d77be", "asm": "304502210088569d44e63422cc91fa42d3539e40db5826213a92421f9f9a7cd1e2066776c202200d403bb0b9f2dfdb1771914cf8386e9eca100bc158975beeeefbd141cbd3d7af[ALL] 03ed04b6a56f7421118769840a2fba33740b87cddf860680ae0b703aa5b02d77be"}, "vout": 0, "txid": "604c9f43579fe80e5bb1d62d4c490589f576e8a87dac05cb498e7358fd9e02a3"}], "txid": "2656cdb6794b955b4330ed45b13681026b7d8430bcf70c64a3e4660266f4ea77", "blocktime": 1537872475, "version": 1, "confirmations": 11487, "time": 1537872475, "locktime": 0, "vsize": 373, "size": 373}