{"hash": "1820a041a3ef61a3e4e466caea3d85e7983b1aa6c2a978edf6e9f8ee856d64a2", "blockhash": "000000000000000000022b45ed06c6f4ccd3cf7fb5ba4856ebd2e58215665228", "vout": [{"scriptPubKey": {"reqSigs": 1, "hex": "76a9141f050adce8c0a85fcc173ddf34f2ae5fa6bc8c6588ac", "addresses": ["13q1zJU5EKTBuQbnNJs5FUuhG3gNcNAxYh"], "asm": "OP_DUP OP_HASH160 1f050adce8c0a85fcc173ddf34f2ae5fa6bc8c65 OP_EQUALVERIFY OP_CHECKSIG", "type": "pubkeyhash"}, "value": 0.01561848, "n": 0}, {"scriptPubKey": {"reqSigs": 1, "hex": "a914b45e904b90b0f1a85d494072b30ae6c7de27f1ed87", "addresses": ["3J8iqUGo3y5YeSrSyfdU5BSuarR2jx4unm"], "asm": "OP_HASH160 b45e904b90b0f1a85d494072b30ae6c7de27f1ed OP_EQUAL", "type": "scripthash"}, "value": 0.01562, "n": 1}, {"scriptPubKey": {"reqSigs": 1, "hex": "76a914ee7df8d9cb8afefdb8af69ae0b4a93aac2e3813388ac", "addresses": ["1Nk2jME9nFEpJSNGiLf7mEKCriZSYLLSsm"], "asm": "OP_DUP OP_HASH160 ee7df8d9cb8afefdb8af69ae0b4a93aac2e38133 OP_EQUALVERIFY OP_CHECKSIG", "type": "pubkeyhash"}, "value": 0.01561058, "n": 2}, {"scriptPubKey": {"reqSigs": 1, "hex": "76a914b961ec17336e1c986aa2ab15384abb8b45c35c3588ac", "addresses": ["1HuDKFB61SstNjNZSyoWtAhQpBeAtgbks8"], "asm": "OP_DUP OP_HASH160 b961ec17336e1c986aa2ab15384abb8b45c35c35 OP_EQUALVERIFY OP_CHECKSIG", "type": "pubkeyhash"}, "value": 0.23552645, "n": 3}, {"scriptPubKey": {"reqSigs": 1, "hex": "a914e488a9b1352428a2a084ae60be7f2b0d30f4858b87", "addresses": ["3NXPhnNYxjsE4Y7V27AvkoPzZGWVx7azdN"], "asm": "OP_HASH160 e488a9b1352428a2a084ae60be7f2b0d30f4858b OP_EQUAL", "type": "scripthash"}, "value": 0.00904139, "n": 4}], "hex": "01000000000101ed24bf93b3a1fa87bd0a915faf7bd6d898c4cd9634f8c96ab41bf327cc33f0f6460000001716001400aee088ab35976b55e0ac4b057dab387ab01f37ffffffff05f8d41700000000001976a9141f050adce8c0a85fcc173ddf34f2ae5fa6bc8c6588ac90d517000000000017a914b45e904b90b0f1a85d494072b30ae6c7de27f1ed87e2d11700000000001976a914ee7df8d9cb8afefdb8af69ae0b4a93aac2e3813388ac85626701000000001976a914b961ec17336e1c986aa2ab15384abb8b45c35c3588accbcb0d000000000017a914e488a9b1352428a2a084ae60be7f2b0d30f4858b8702483045022100b2d7c8900ba24f5bed60b9bce87b9b40a02307b26da9ce07c97b2f1bf910dddc022020cdbe7791a4c4b43d2ab564a993d6d53f677e57e785d463d7926fb29dbefb27012103d0577430613eb1d16e8a530d769e2b0f5ba4064c81f7e4c5df44fe8d5f51d90b00000000", "vin": [{"txinwitness": ["3045022100b2d7c8900ba24f5bed60b9bce87b9b40a02307b26da9ce07c97b2f1bf910dddc022020cdbe7791a4c4b43d2ab564a993d6d53f677e57e785d463d7926fb29dbefb2701", "03d0577430613eb1d16e8a530d769e2b0f5ba4064c81f7e4c5df44fe8d5f51d90b"], "sequence": 4294967295, "scriptSig": {"hex": "16001400aee088ab35976b55e0ac4b057dab387ab01f37", "asm": "001400aee088ab35976b55e0ac4b057dab387ab01f37"}, "vout": 70, "txid": "f6f033cc27f31bb46ac9f83496cdc498d8d67baf5f910abd87faa1b393bf24ed"}], "txid": "2658a616bfd2346d570b653e08779b67c47bb2858e268cc1f705e5be1a118c14", "blocktime": 1537869901, "version": 1, "confirmations": 11522, "time": 1537869901, "locktime": 0, "vsize": 268, "size": 350}