{"hash": "2659ffbb7bff454a80dd79ffaca057c8979f54590260e6390bfc138acfc222a1", "blockhash": "00000000000000000018f53835495a110e01622372bf6ae95dc86f2b0ab887b0", "vout": [{"scriptPubKey": {"reqSigs": 1, "hex": "a9143f6bc1d4682e152c8e5c54969b8815303ceb6b9887", "addresses": ["37UMaj7dEKC1yevXqsenBHKYZhcUb9aWuy"], "asm": "OP_HASH160 3f6bc1d4682e152c8e5c54969b8815303ceb6b98 OP_EQUAL", "type": "scripthash"}, "value": 0.00060056, "n": 0}, {"scriptPubKey": {"reqSigs": 1, "hex": "76a9140179b5ac7080ed61ec81b50e38b2b8d81ebff4d888ac", "addresses": ["18oUjC5emcTSLES6ruX8eDUxTEY17YSr3"], "asm": "OP_DUP OP_HASH160 0179b5ac7080ed61ec81b50e38b2b8d81ebff4d8 OP_EQUALVERIFY OP_CHECKSIG", "type": "pubkeyhash"}, "value": 0.0246209, "n": 1}], "hex": "01000000010ef0893ab29126b2b4710cf10fb8f4b7475347343779eef5294c2a190f96e0dc010000006a47304402203068443035d346db686987b53e59ef48a879763b04e7678e203220a33f3821da02206aab2c090fda2645deb24b4f0f7d27bcffe2859c8fcc185564eff081c2236e59012102e1e1d8d904be8bc7e790c712807bd57f22e4ba3d289968aa60a6040f3fad8bb2ffffffff0298ea00000000000017a9143f6bc1d4682e152c8e5c54969b8815303ceb6b98878a912500000000001976a9140179b5ac7080ed61ec81b50e38b2b8d81ebff4d888ac00000000", "vin": [{"sequence": 4294967295, "scriptSig": {"hex": "47304402203068443035d346db686987b53e59ef48a879763b04e7678e203220a33f3821da02206aab2c090fda2645deb24b4f0f7d27bcffe2859c8fcc185564eff081c2236e59012102e1e1d8d904be8bc7e790c712807bd57f22e4ba3d289968aa60a6040f3fad8bb2", "asm": "304402203068443035d346db686987b53e59ef48a879763b04e7678e203220a33f3821da02206aab2c090fda2645deb24b4f0f7d27bcffe2859c8fcc185564eff081c2236e59[ALL] 02e1e1d8d904be8bc7e790c712807bd57f22e4ba3d289968aa60a6040f3fad8bb2"}, "vout": 1, "txid": "dce0960f192a4c29f5ee793734475347b7f4b80ff10c71b4b22691b23a89f00e"}], "txid": "2659ffbb7bff454a80dd79ffaca057c8979f54590260e6390bfc138acfc222a1", "blocktime": 1537870928, "version": 1, "confirmations": 11514, "time": 1537870928, "locktime": 0, "vsize": 223, "size": 223}