{"hash": "26643cacfe1c5cd0b7bb143ef41dd7215d5a2c780df87949db9e32f852dd2736", "blockhash": "0000000000000000001f76057863aec43deb6fa401d9628bb513d65a8098bfab", "vout": [{"scriptPubKey": {"reqSigs": 1, "hex": "76a914f423dfee34e4833104508103d89e316b4a49314088ac", "addresses": ["1PFtrRjbq4aLfM7k4tyLZ3ZAuTsgLr6Q8Q"], "asm": "OP_DUP OP_HASH160 f423dfee34e4833104508103d89e316b4a493140 OP_EQUALVERIFY OP_CHECKSIG", "type": "pubkeyhash"}, "value": 0.01584692, "n": 0}, {"scriptPubKey": {"reqSigs": 1, "hex": "a914d516ebd6d47ccc54797cae553a326a842457fbc987", "addresses": ["3M7jJzwWs4EGEerELr7tJHn28YcVjDQHvN"], "asm": "OP_HASH160 d516ebd6d47ccc54797cae553a326a842457fbc9 OP_EQUAL", "type": "scripthash"}, "value": 5.46e-06, "n": 1}, {"scriptPubKey": {"type": "nulldata", "hex": "6a146f6d6e69000000000000001f0000005d18eace80", "asm": "OP_RETURN 6f6d6e69000000000000001f0000005d18eace80"}, "value": 0.0, "n": 2}], "hex": "0100000001b206ee712b3daf201b7b28100f133ff70a949edd2e2f231e58927db86f0b8fbd000000006a47304402207ee36bcaf5239a0eca6925968989138f1f3c8bcaa83ecb8578b1c6429007aac102207b13e0f204a7fb09814e673e0bdd364ff857da93355db63efa69ef584154505f0121039a403b4eeaf8f7a9c5cc655cf2d17310fcd606a75b1392f7892f6b514a67d23cffffffff03342e1800000000001976a914f423dfee34e4833104508103d89e316b4a49314088ac220200000000000017a914d516ebd6d47ccc54797cae553a326a842457fbc9870000000000000000166a146f6d6e69000000000000001f0000005d18eace8000000000", "vin": [{"sequence": 4294967295, "scriptSig": {"hex": "47304402207ee36bcaf5239a0eca6925968989138f1f3c8bcaa83ecb8578b1c6429007aac102207b13e0f204a7fb09814e673e0bdd364ff857da93355db63efa69ef584154505f0121039a403b4eeaf8f7a9c5cc655cf2d17310fcd606a75b1392f7892f6b514a67d23c", "asm": "304402207ee36bcaf5239a0eca6925968989138f1f3c8bcaa83ecb8578b1c6429007aac102207b13e0f204a7fb09814e673e0bdd364ff857da93355db63efa69ef584154505f[ALL] 039a403b4eeaf8f7a9c5cc655cf2d17310fcd606a75b1392f7892f6b514a67d23c"}, "vout": 0, "txid": "bd8f0b6fb87d92581e232f2edd9e940af73f130f10287b1b20af3d2b71ee06b2"}], "txid": "26643cacfe1c5cd0b7bb143ef41dd7215d5a2c780df87949db9e32f852dd2736", "blocktime": 1537873891, "version": 1, "confirmations": 11474, "time": 1537873891, "locktime": 0, "vsize": 254, "size": 254}