{"hash": "266fb549dc3cea530cbf08ad58d23bdc58c0a0147b55aeee857d46e990d30ffe", "blockhash": "0000000000000000001e0dab787dd257d1dbfcb92a98c2207d5e1078be1f4165", "vout": [{"scriptPubKey": {"reqSigs": 1, "hex": "76a9149548a704eca4c453c4c8dbd835088b68d00586ff88ac", "addresses": ["1EcLiZZCCcHpt16mvLNkVjXnQ7qKGzLZpS"], "asm": "OP_DUP OP_HASH160 9548a704eca4c453c4c8dbd835088b68d00586ff OP_EQUALVERIFY OP_CHECKSIG", "type": "pubkeyhash"}, "value": 0.018466, "n": 0}, {"scriptPubKey": {"reqSigs": 1, "hex": "76a91496857ec74c58e9ec8bec87bd33ba78c282454eb488ac", "addresses": ["1EitHBmXpxvyiHLydsC2Hc9mMZwcJHX76L"], "asm": "OP_DUP OP_HASH160 96857ec74c58e9ec8bec87bd33ba78c282454eb4 OP_EQUALVERIFY OP_CHECKSIG", "type": "pubkeyhash"}, "value": 0.05116152, "n": 1}], "hex": "0100000001d8f19b5e60e1f9f20752489777b332b3a945fe35e31420f61023632a9f681cc5010000006b483045022100b48136c52eb7e145b152d6eb8b19d93460a98d3d13e604fccd5d83e5118280d6022030b423bf1b534ac297bf43c723cf4c93a7f6969048d1464769ede51f64cf0136012103b5c8f26180f94169fa3514c1afc9cae6384fe07957b7b17e23f206c23bfe3b52ffffffff02482d1c00000000001976a9149548a704eca4c453c4c8dbd835088b68d00586ff88acf8104e00000000001976a91496857ec74c58e9ec8bec87bd33ba78c282454eb488ac00000000", "vin": [{"sequence": 4294967295, "scriptSig": {"hex": "483045022100b48136c52eb7e145b152d6eb8b19d93460a98d3d13e604fccd5d83e5118280d6022030b423bf1b534ac297bf43c723cf4c93a7f6969048d1464769ede51f64cf0136012103b5c8f26180f94169fa3514c1afc9cae6384fe07957b7b17e23f206c23bfe3b52", "asm": "3045022100b48136c52eb7e145b152d6eb8b19d93460a98d3d13e604fccd5d83e5118280d6022030b423bf1b534ac297bf43c723cf4c93a7f6969048d1464769ede51f64cf0136[ALL] 03b5c8f26180f94169fa3514c1afc9cae6384fe07957b7b17e23f206c23bfe3b52"}, "vout": 1, "txid": "c51c689f2a632310f62014e335fe45a9b332b37797485207f2f9e1605e9bf1d8"}], "txid": "266fb549dc3cea530cbf08ad58d23bdc58c0a0147b55aeee857d46e990d30ffe", "blocktime": 1537872475, "version": 1, "confirmations": 11486, "time": 1537872475, "locktime": 0, "vsize": 226, "size": 226}