{"hash": "266f0b831e1b0545bcc7d0b142b29b283a33263c431f4ffcfb6bb719e9046f1a", "blockhash": "00000000000000000017f5eb5941039fbcee6240d03bc1f2f8e35350df66a1d8", "vout": [{"scriptPubKey": {"reqSigs": 1, "hex": "76a914ec265a14b995a55d9ee039f32abca1b61609f3bc88ac", "addresses": ["1NXeR1RKbSAZGabprPhNc5dUXCvGxeU38c"], "asm": "OP_DUP OP_HASH160 ec265a14b995a55d9ee039f32abca1b61609f3bc OP_EQUALVERIFY OP_CHECKSIG", "type": "pubkeyhash"}, "value": 0.00639145, "n": 0}, {"scriptPubKey": {"type": "nulldata", "hex": "6a4c50000077fc0001024291d4c6f5cc6431af6411d19ed074892d00f8e87af8e8e963c7cfd5b9f682f669bcef1809ebfb471da22bee5d5baa19670613a51606938be41d100759d4ba30d2c37bb011d97e02cf", "asm": "OP_RETURN 000077fc0001024291d4c6f5cc6431af6411d19ed074892d00f8e87af8e8e963c7cfd5b9f682f669bcef1809ebfb471da22bee5d5baa19670613a51606938be41d100759d4ba30d2c37bb011d97e02cf"}, "value": 0.0, "n": 1}], "hex": "0100000001178fcce7846b5d91f8b8178a1daebb16b0e1f303c537e8e856c0ee8c34a8e78a010000006a4730440220500e80867254c88a9ce5d3f5a42d507f005d979a17952425303a037ff0211b1e022011f4cc632c0aa19c2496d12fe22c88a12314ed110a510f024f5fd57b09ed9ab3012102380582b81aa3cb54c16fa172e2ac5fc9bb18b4f733caee8964e6ac891b8f6536ffffffff02a9c00900000000001976a914ec265a14b995a55d9ee039f32abca1b61609f3bc88ac0000000000000000536a4c50000077fc0001024291d4c6f5cc6431af6411d19ed074892d00f8e87af8e8e963c7cfd5b9f682f669bcef1809ebfb471da22bee5d5baa19670613a51606938be41d100759d4ba30d2c37bb011d97e02cf00000000", "vin": [{"sequence": 4294967295, "scriptSig": {"hex": "4730440220500e80867254c88a9ce5d3f5a42d507f005d979a17952425303a037ff0211b1e022011f4cc632c0aa19c2496d12fe22c88a12314ed110a510f024f5fd57b09ed9ab3012102380582b81aa3cb54c16fa172e2ac5fc9bb18b4f733caee8964e6ac891b8f6536", "asm": "30440220500e80867254c88a9ce5d3f5a42d507f005d979a17952425303a037ff0211b1e022011f4cc632c0aa19c2496d12fe22c88a12314ed110a510f024f5fd57b09ed9ab3[ALL] 02380582b81aa3cb54c16fa172e2ac5fc9bb18b4f733caee8964e6ac891b8f6536"}, "vout": 1, "txid": "8ae7a8348ceec056e8e837c503f3e1b016bbae1d8a17b8f8915d6b84e7cc8f17"}], "txid": "266f0b831e1b0545bcc7d0b142b29b283a33263c431f4ffcfb6bb719e9046f1a", "blocktime": 1537874412, "version": 1, "confirmations": 11467, "time": 1537874412, "locktime": 0, "vsize": 283, "size": 283}