{"hash": "26701896883c44ce281fb3346a9ea7443c62827f81f7e728f60e50c841f37221", "blockhash": "00000000000000000017f5eb5941039fbcee6240d03bc1f2f8e35350df66a1d8", "vout": [{"scriptPubKey": {"reqSigs": 1, "hex": "76a914785f854332454fee2b019c49e6aaba3494f42dfd88ac", "addresses": ["1ByUWuSymXAhVRi6Z4Vv8adJ3zPL5NjtsW"], "asm": "OP_DUP OP_HASH160 785f854332454fee2b019c49e6aaba3494f42dfd OP_EQUALVERIFY OP_CHECKSIG", "type": "pubkeyhash"}, "value": 5.7e-05, "n": 0}, {"scriptPubKey": {"reqSigs": 1, "hex": "76a914d14abaf286848028ce61bda6842d11b0c4ba1fcd88ac", "addresses": ["1L5dkSenzVySgvPXfMZnyAhcUfmSW4YJgu"], "asm": "OP_DUP OP_HASH160 d14abaf286848028ce61bda6842d11b0c4ba1fcd OP_EQUALVERIFY OP_CHECKSIG", "type": "pubkeyhash"}, "value": 0.039138, "n": 1}], "hex": "01000000018c58040f495db09d83501d1a46d16e9678f0fc352a7fd47aac963273aa171e18010000006b483045022100a0a8fd54d0260fcebc9bca41b219ee709e77fa5c986b72f5d1de48aeb870f91102202097b8eda8bcb8ac43356f77b509e3fc1a829b5f67011a91cfb0d52bca335dc4012102f77ba2843b5eab0fa8c080787a77b571b4fd13333a1f1e70f6c9880a0a943026ffffffff0244160000000000001976a914785f854332454fee2b019c49e6aaba3494f42dfd88ac48b83b00000000001976a914d14abaf286848028ce61bda6842d11b0c4ba1fcd88ac00000000", "vin": [{"sequence": 4294967295, "scriptSig": {"hex": "483045022100a0a8fd54d0260fcebc9bca41b219ee709e77fa5c986b72f5d1de48aeb870f91102202097b8eda8bcb8ac43356f77b509e3fc1a829b5f67011a91cfb0d52bca335dc4012102f77ba2843b5eab0fa8c080787a77b571b4fd13333a1f1e70f6c9880a0a943026", "asm": "3045022100a0a8fd54d0260fcebc9bca41b219ee709e77fa5c986b72f5d1de48aeb870f91102202097b8eda8bcb8ac43356f77b509e3fc1a829b5f67011a91cfb0d52bca335dc4[ALL] 02f77ba2843b5eab0fa8c080787a77b571b4fd13333a1f1e70f6c9880a0a943026"}, "vout": 1, "txid": "181e17aa733296ac7ad47f2a35fcf078966ed1461a1d50839db05d490f04588c"}], "txid": "26701896883c44ce281fb3346a9ea7443c62827f81f7e728f60e50c841f37221", "blocktime": 1537874412, "version": 1, "confirmations": 11468, "time": 1537874412, "locktime": 0, "vsize": 226, "size": 226}