{"hash": "be8ac75593d1ca21d5b1ba2fa52040add9d9c049478c0f1ac2110d25caed5981", "blockhash": "0000000000000000000e13cef7c366c0283d82e591d1acd082e914b08063cdf1", "vout": [{"scriptPubKey": {"reqSigs": 1, "hex": "a9149bb9d9c10f28598137b8438e4fb46a9cb42d14a687", "addresses": ["3FtRJQNFTPHwPZ7Q2rqjNvoMdvF6954mi7"], "asm": "OP_HASH160 9bb9d9c10f28598137b8438e4fb46a9cb42d14a6 OP_EQUAL", "type": "scripthash"}, "value": 0.12268413, "n": 0}, {"scriptPubKey": {"reqSigs": 1, "hex": "0014c17944299f29414bea8738ff76118f8dc527bf77", "addresses": ["bc1qc9u5g2vl99q5h6588rlhvyv03hzj00mhn80pdg"], "asm": "0 c17944299f29414bea8738ff76118f8dc527bf77", "type": "witness_v0_keyhash"}, "value": 0.0182137, "n": 1}], "hex": "010000000001010cba6cfaa72907995f11efa84fced1590d696ddd2b8823d9d81e33cd0dd7ab9a0100000000ffffffff027d33bb000000000017a9149bb9d9c10f28598137b8438e4fb46a9cb42d14a687baca1b0000000000160014c17944299f29414bea8738ff76118f8dc527bf7702483045022100df0917a2722922fbfe2b9e0c12e27955cccbb24c7fd6d055aaec382e3d30a4690220609f751f243f0b2ade2a114c54852c3e6423405ed550a03c80bb47d6afce0966012103169ac389d868f97e70a39ec1f93dc45ab42fb730a6815538c9684cee6b09147600000000", "vin": [{"txinwitness": ["3045022100df0917a2722922fbfe2b9e0c12e27955cccbb24c7fd6d055aaec382e3d30a4690220609f751f243f0b2ade2a114c54852c3e6423405ed550a03c80bb47d6afce096601", "03169ac389d868f97e70a39ec1f93dc45ab42fb730a6815538c9684cee6b091476"], "sequence": 4294967295, "scriptSig": {"hex": "", "asm": ""}, "vout": 1, "txid": "9aabd70dcd331ed8d923882bdd6d690d59d1ce4fa8ef115f990729a7fa6cba0c"}], "txid": "2675e602db73c5e5628bc7cebdfe7950f47c400b73bfef0aef2c6fc7cb493639", "blocktime": 1537871767, "version": 1, "confirmations": 11495, "time": 1537871767, "locktime": 0, "vsize": 142, "size": 224}