{"hash": "267d68cacdaec5faadbcadef50200f7472c20c609447ca24d654d884ca32d703", "blockhash": "0000000000000000001cda96e906b7601b7a6fb1a3b62bca570a9e5d8f4b3de1", "vout": [{"scriptPubKey": {"reqSigs": 1, "hex": "76a914eb28dc86bfa3c118d85552d8e01f1e40740d191388ac", "addresses": ["1NSQkBZmV3khySwdHKKs7hBYBpGtUDKzen"], "asm": "OP_DUP OP_HASH160 eb28dc86bfa3c118d85552d8e01f1e40740d1913 OP_EQUALVERIFY OP_CHECKSIG", "type": "pubkeyhash"}, "value": 0.00056886, "n": 0}, {"scriptPubKey": {"reqSigs": 1, "hex": "a9146c9d3d0f57db1bf76d98a29a58ae31b1a7bcab9b87", "addresses": ["3BbKGPHT8qc1wveuZWwAJAmb1cePYfe8Nx"], "asm": "OP_HASH160 6c9d3d0f57db1bf76d98a29a58ae31b1a7bcab9b OP_EQUAL", "type": "scripthash"}, "value": 0.00167422, "n": 1}], "hex": "01000000014dd18198a779a1d67aac160c571e53ad28280b5bd99504bb4537e1a7f4fd18e3010000006a473044022079ead89e5f58d5f57dc283bfd2c97d17a2bd327bd08ddca4228be9d1ee66cac502207c66d64c9bf361fec3cc1f88168cd7758972cc11773f41b885b59c2c9eae44a00121023bd3297a8e4fcce28136d20c12a53b6353f02f235391dd2c54dda0951e43829dffffffff0236de0000000000001976a914eb28dc86bfa3c118d85552d8e01f1e40740d191388acfe8d02000000000017a9146c9d3d0f57db1bf76d98a29a58ae31b1a7bcab9b8700000000", "vin": [{"sequence": 4294967295, "scriptSig": {"hex": "473044022079ead89e5f58d5f57dc283bfd2c97d17a2bd327bd08ddca4228be9d1ee66cac502207c66d64c9bf361fec3cc1f88168cd7758972cc11773f41b885b59c2c9eae44a00121023bd3297a8e4fcce28136d20c12a53b6353f02f235391dd2c54dda0951e43829d", "asm": "3044022079ead89e5f58d5f57dc283bfd2c97d17a2bd327bd08ddca4228be9d1ee66cac502207c66d64c9bf361fec3cc1f88168cd7758972cc11773f41b885b59c2c9eae44a0[ALL] 023bd3297a8e4fcce28136d20c12a53b6353f02f235391dd2c54dda0951e43829d"}, "vout": 1, "txid": "e318fdf4a7e13745bb0495d95b0b2828ad531e570c16ac7ad6a179a79881d14d"}], "txid": "267d68cacdaec5faadbcadef50200f7472c20c609447ca24d654d884ca32d703", "blocktime": 1537873282, "version": 1, "confirmations": 11484, "time": 1537873282, "locktime": 0, "vsize": 223, "size": 223}