{"hash": "267ecae6cacd8f9706e7e16b5c597bc74ecf1484bd06dde4d4298899c8db1a52", "blockhash": "00000000000000000024a2167bbff67b0be802c0b01cdd79e6331c2be6459f87", "vout": [{"scriptPubKey": {"reqSigs": 1, "hex": "76a9147bf25cc78bdcd262d3d3ac2f3d65ae3d72d8c93288ac", "addresses": ["1CJNTER4YJr3DpVc38aypUZPN3BSpbnWQc"], "asm": "OP_DUP OP_HASH160 7bf25cc78bdcd262d3d3ac2f3d65ae3d72d8c932 OP_EQUALVERIFY OP_CHECKSIG", "type": "pubkeyhash"}, "value": 0.0015, "n": 0}, {"scriptPubKey": {"reqSigs": 1, "hex": "a914db1283737cd93ebc1eb1298d644a7846c55a6d9687", "addresses": ["3MfN5to5K5be2RupWE8rjJHQ6V9L8ypWeh"], "asm": "OP_HASH160 db1283737cd93ebc1eb1298d644a7846c55a6d96 OP_EQUAL", "type": "scripthash"}, "value": 0.80119906, "n": 1}], "hex": "01000000019e495bf3b828bf562ff8c1d9a1b207d232aeb71568b72e88752399dd70dda15501000000da00473044022047f34ecbca7c60cc6410b0a0cf13215513bb25a98d4e53ece8e93849b00d465e02205894c835736ebd156857827e14eed903e9fd0cdefb4d6eaeadd36e08c5d3193301483045022100bc58ca2112e4264fcddcb623bc288c12a0aac538d4c47a17c100bda061056e8602201a7334310a5af54252a38cb8b58cad03b52b5b1da8fb9cd996fb659fccb956f80147522102cebf6ab580948d146b7cc771d8e646974349d3d7b11f3e03287d0997a477d3b921037ba651485b7a2cb222191eb64a55926e62bbabfe9b5ed2a9488aad547b20428252aeffffffff02f0490200000000001976a9147bf25cc78bdcd262d3d3ac2f3d65ae3d72d8c93288ac6288c6040000000017a914db1283737cd93ebc1eb1298d644a7846c55a6d968700000000", "vin": [{"sequence": 4294967295, "scriptSig": {"hex": "00473044022047f34ecbca7c60cc6410b0a0cf13215513bb25a98d4e53ece8e93849b00d465e02205894c835736ebd156857827e14eed903e9fd0cdefb4d6eaeadd36e08c5d3193301483045022100bc58ca2112e4264fcddcb623bc288c12a0aac538d4c47a17c100bda061056e8602201a7334310a5af54252a38cb8b58cad03b52b5b1da8fb9cd996fb659fccb956f80147522102cebf6ab580948d146b7cc771d8e646974349d3d7b11f3e03287d0997a477d3b921037ba651485b7a2cb222191eb64a55926e62bbabfe9b5ed2a9488aad547b20428252ae", "asm": "0 3044022047f34ecbca7c60cc6410b0a0cf13215513bb25a98d4e53ece8e93849b00d465e02205894c835736ebd156857827e14eed903e9fd0cdefb4d6eaeadd36e08c5d31933[ALL] 3045022100bc58ca2112e4264fcddcb623bc288c12a0aac538d4c47a17c100bda061056e8602201a7334310a5af54252a38cb8b58cad03b52b5b1da8fb9cd996fb659fccb956f8[ALL] 522102cebf6ab580948d146b7cc771d8e646974349d3d7b11f3e03287d0997a477d3b921037ba651485b7a2cb222191eb64a55926e62bbabfe9b5ed2a9488aad547b20428252ae"}, "vout": 1, "txid": "55a1dd70dd992375882eb76815b7ae32d207b2a1d9c1f82f56bf28b8f35b499e"}], "txid": "267ecae6cacd8f9706e7e16b5c597bc74ecf1484bd06dde4d4298899c8db1a52", "blocktime": 1537870564, "version": 1, "confirmations": 11515, "time": 1537870564, "locktime": 0, "vsize": 335, "size": 335}