{"hash": "26897bdb07f51ad5c7a468b7e75aa4aa89723cbbec8b97a32e86fa0933acc80c", "blockhash": "000000000000000000205f8b0775d31398ef75b89a5e8ec8d2c57b4dc0ac4c20", "vout": [{"scriptPubKey": {"reqSigs": 1, "hex": "a914b43212fc768febf5f164707ab4d8a6768c8c41aa87", "addresses": ["3J7oYHcNUbfeHRoXdxVrZG6yVPaMD6Rvn9"], "asm": "OP_HASH160 b43212fc768febf5f164707ab4d8a6768c8c41aa OP_EQUAL", "type": "scripthash"}, "value": 0.04896617, "n": 0}], "hex": "0100000001ae86b468c449eea84e6e103307b85189606e0de7a8d466705247102bf5010947000000006a47304402206c70de721d171a62cd5a72a03464b8b92360078f58627424b74afc2b320c3f99022079b29a802cd5d84e0095d2387bf4003bb133d88cbc1a4e831ae1f74fc729b6420121034661fec50c7d52a69758fab1e235cff672ae1edeb5140e883511a3da13118012ffffffff0169b74a000000000017a914b43212fc768febf5f164707ab4d8a6768c8c41aa8700000000", "vin": [{"sequence": 4294967295, "scriptSig": {"hex": "47304402206c70de721d171a62cd5a72a03464b8b92360078f58627424b74afc2b320c3f99022079b29a802cd5d84e0095d2387bf4003bb133d88cbc1a4e831ae1f74fc729b6420121034661fec50c7d52a69758fab1e235cff672ae1edeb5140e883511a3da13118012", "asm": "304402206c70de721d171a62cd5a72a03464b8b92360078f58627424b74afc2b320c3f99022079b29a802cd5d84e0095d2387bf4003bb133d88cbc1a4e831ae1f74fc729b642[ALL] 034661fec50c7d52a69758fab1e235cff672ae1edeb5140e883511a3da13118012"}, "vout": 0, "txid": "470901f52b1047527066d4a8e70d6e608951b80733106e4ea8ee49c468b486ae"}], "txid": "26897bdb07f51ad5c7a468b7e75aa4aa89723cbbec8b97a32e86fa0933acc80c", "blocktime": 1537871175, "version": 1, "confirmations": 11511, "time": 1537871175, "locktime": 0, "vsize": 189, "size": 189}