{"hash": "3bb9b70cdadffb9705b9f8e10d042fd4cab7ac3da8c4c80c93da75779ff4fa32", "blockhash": "0000000000000000000e13cef7c366c0283d82e591d1acd082e914b08063cdf1", "vout": [{"scriptPubKey": {"reqSigs": 1, "hex": "a9146fe82122b133b61917b4fca2eff7c22f4a7e373c87", "addresses": ["3Btj1UNzPX9WjVm3e3jhSTCQyxwvyqvnD3"], "asm": "OP_HASH160 6fe82122b133b61917b4fca2eff7c22f4a7e373c OP_EQUAL", "type": "scripthash"}, "value": 0.0015, "n": 0}, {"scriptPubKey": {"reqSigs": 1, "hex": "a914623bc71aae031839add7304b814c43bfc2e9051487", "addresses": ["3AeRkmrFg14XjcZxLiKsxWCsmmwrcjXezc"], "asm": "OP_HASH160 623bc71aae031839add7304b814c43bfc2e90514 OP_EQUAL", "type": "scripthash"}, "value": 0.04461016, "n": 1}], "hex": "010000000001014a941d603802b66e7f319579cb6be95a291ee91cbcd70035964d8dae3151fe0201000000232200208b29cdff4436c9fd09e2bb3722ba65a440fbfc66964301c4902832d27a4f2b12ffffffff02f04902000000000017a9146fe82122b133b61917b4fca2eff7c22f4a7e373c87d81144000000000017a914623bc71aae031839add7304b814c43bfc2e90514870400483045022100cc40133df5fcd161d792dc041c51d3994dd264c63ee7375925edff9c0d326a3e022075d738b34ebe31a8afe323288a56230def0413959fcf79e6c13f207b112862d8014730440220236cce2ea31c7851aae4c6c2bb7e72c76a3eed116064169e29bf86f56905ec3402201eb76fb43a0c431404d6f9c4f1bb30c911f48d0be03f18452292e76883a8b1f301475221036b4dd4bc8657eba03286a3a3f74fb599cc514153059dbb023dfb32b0268d8daf21032f41ceae151fd1826ff863e0017da5158aa4c8f6dc701d11b13794695089210b52ae00000000", "vin": [{"txinwitness": ["", "3045022100cc40133df5fcd161d792dc041c51d3994dd264c63ee7375925edff9c0d326a3e022075d738b34ebe31a8afe323288a56230def0413959fcf79e6c13f207b112862d801", "30440220236cce2ea31c7851aae4c6c2bb7e72c76a3eed116064169e29bf86f56905ec3402201eb76fb43a0c431404d6f9c4f1bb30c911f48d0be03f18452292e76883a8b1f301", "5221036b4dd4bc8657eba03286a3a3f74fb599cc514153059dbb023dfb32b0268d8daf21032f41ceae151fd1826ff863e0017da5158aa4c8f6dc701d11b13794695089210b52ae"], "sequence": 4294967295, "scriptSig": {"hex": "2200208b29cdff4436c9fd09e2bb3722ba65a440fbfc66964301c4902832d27a4f2b12", "asm": "00208b29cdff4436c9fd09e2bb3722ba65a440fbfc66964301c4902832d27a4f2b12"}, "vout": 1, "txid": "02fe5131ae8d4d963500d7bc1ce91e295ae96bcb7995317f6eb60238601d944a"}], "txid": "269121696c6714206cd04f9aeb7baa1196c806eadd1615ca006f68a5f34c8647", "blocktime": 1537871767, "version": 1, "confirmations": 11495, "time": 1537871767, "locktime": 0, "vsize": 206, "size": 371}