{"hash": "2694fdd7b20d46268a7fcf191c3c2a892335e9deb61d8844fa83dc14d8ba8433", "blockhash": "000000000000000000022b45ed06c6f4ccd3cf7fb5ba4856ebd2e58215665228", "vout": [{"scriptPubKey": {"reqSigs": 1, "hex": "a9143a3205009f9b522ba64265ca1ead06d08180b21887", "addresses": ["36zj3666bPu9R3fcgWXs8FFXpwxh5yg3r5"], "asm": "OP_HASH160 3a3205009f9b522ba64265ca1ead06d08180b218 OP_EQUAL", "type": "scripthash"}, "value": 0.001559, "n": 0}, {"scriptPubKey": {"reqSigs": 1, "hex": "76a9142e160a526e4229c11059733f2f86bf445d01266088ac", "addresses": ["15CgVDKrMWXRnmobrfN4ScfMHffmebejtt"], "asm": "OP_DUP OP_HASH160 2e160a526e4229c11059733f2f86bf445d012660 OP_EQUALVERIFY OP_CHECKSIG", "type": "pubkeyhash"}, "value": 0.00056036, "n": 1}], "hex": "0100000002b65ed21fde48fcd93e815b2c5ff598c1e136e0da1dce0d499f145d38d00638c4010000006a4730440220195d72619ec9a82df06b3d95032daccaad2dfea68e69b4e35245e9b895ebdd77022029dd1aac5d6e0c67dde0a4a15ac449cae9ba9812be37e82185098172ee9f12ca01210277fdc1ed8894ba852854b0f09df2505371fdab2235e299abdd1adcd0fffbc258ffffffff61a53dc891a809af81d6bb5b95b8a07b2a75a5bdf09e1cde2c38d73c78f598d60a0000006b483045022100a0ea85b689fd8632b18ad744a1c17861d27418f0ea42868e692fb2bcb3eed4d4022049cfa4d78b97ee0d420d98bca8111a8ccc80cc9d8e22328596b09d2ff6bd867e01210372d3887a2c70875475a87529e0174be53af2f91e7ed0b28fc75facde6f926133ffffffff02fc6002000000000017a9143a3205009f9b522ba64265ca1ead06d08180b21887e4da0000000000001976a9142e160a526e4229c11059733f2f86bf445d01266088ac00000000", "vin": [{"sequence": 4294967295, "scriptSig": {"hex": "4730440220195d72619ec9a82df06b3d95032daccaad2dfea68e69b4e35245e9b895ebdd77022029dd1aac5d6e0c67dde0a4a15ac449cae9ba9812be37e82185098172ee9f12ca01210277fdc1ed8894ba852854b0f09df2505371fdab2235e299abdd1adcd0fffbc258", "asm": "30440220195d72619ec9a82df06b3d95032daccaad2dfea68e69b4e35245e9b895ebdd77022029dd1aac5d6e0c67dde0a4a15ac449cae9ba9812be37e82185098172ee9f12ca[ALL] 0277fdc1ed8894ba852854b0f09df2505371fdab2235e299abdd1adcd0fffbc258"}, "vout": 1, "txid": "c43806d0385d149f490dce1ddae036e1c198f55f2c5b813ed9fc48de1fd25eb6"}, {"sequence": 4294967295, "scriptSig": {"hex": "483045022100a0ea85b689fd8632b18ad744a1c17861d27418f0ea42868e692fb2bcb3eed4d4022049cfa4d78b97ee0d420d98bca8111a8ccc80cc9d8e22328596b09d2ff6bd867e01210372d3887a2c70875475a87529e0174be53af2f91e7ed0b28fc75facde6f926133", "asm": "3045022100a0ea85b689fd8632b18ad744a1c17861d27418f0ea42868e692fb2bcb3eed4d4022049cfa4d78b97ee0d420d98bca8111a8ccc80cc9d8e22328596b09d2ff6bd867e[ALL] 0372d3887a2c70875475a87529e0174be53af2f91e7ed0b28fc75facde6f926133"}, "vout": 10, "txid": "d698f5783cd7382cde1c9ef0bda5752a7ba0b8955bbbd681af09a891c83da561"}], "txid": "2694fdd7b20d46268a7fcf191c3c2a892335e9deb61d8844fa83dc14d8ba8433", "blocktime": 1537869901, "version": 1, "confirmations": 11522, "time": 1537869901, "locktime": 0, "vsize": 371, "size": 371}