{"hash": "269ae10f85de4a360d26a9ece543e9d270d54b8b86168c7496a74e30c8fde4c4", "blockhash": "0000000000000000000dcc0f55137456b1a82d3642486a52398922ac4d620174", "vout": [{"scriptPubKey": {"reqSigs": 1, "hex": "a914fc763e267ee3c589999782c7900caea42bbbdc1387", "addresses": ["3QhurY6tTGzJehwX2q2XhXdPunR2y3uVgC"], "asm": "OP_HASH160 fc763e267ee3c589999782c7900caea42bbbdc13 OP_EQUAL", "type": "scripthash"}, "value": 1.9904692, "n": 0}, {"scriptPubKey": {"reqSigs": 1, "hex": "76a914c609d8f938d86654f4f0bdfd27618b2dc805349688ac", "addresses": ["1K48bCjqTaTv2gJ1VBvcdWXXX8EA3sRhQt"], "asm": "OP_DUP OP_HASH160 c609d8f938d86654f4f0bdfd27618b2dc8053496 OP_EQUALVERIFY OP_CHECKSIG", "type": "pubkeyhash"}, "value": 0.0095, "n": 1}], "hex": "0200000001bba521a82f52ac8073420fbe4eef6b3c17efb8783a9d7d6e9c3ed7ecc64e1b191d000000fdfd0000483045022100ace6a7d048abc783e01ca094c16f44947c69134d0005459c56ded515fc859c840220543a8fe6965f9776b4a2d1044c8fea7d4c9576c7a9c2687bc291ba343b4dc7420147304402205dbbab8e887f6c9052bf7ebd077ec5f76530b3ed99cbbf4d7c106ba93e55ebbc02203e70f916921000b99abb3f4c9c229d4a1333f2b65df3034b668850ffb636d3ea014c69522103d3ef8fa0875c9602cf0a518afe10b07f8478e206abe91a414b46f508a56b1944210226e3704a73d2f7cc243fb5d9349aeff6038d53f0d051e0914f19be6ee3713332210287e1600bae284a4412bb6f1c796526082ebcbcaf53ce1136fb45b74395dc0de053ae00000000020837dd0b0000000017a914fc763e267ee3c589999782c7900caea42bbbdc1387f07e0e00000000001976a914c609d8f938d86654f4f0bdfd27618b2dc805349688ac00000000", "vin": [{"sequence": 0, "scriptSig": {"hex": "00483045022100ace6a7d048abc783e01ca094c16f44947c69134d0005459c56ded515fc859c840220543a8fe6965f9776b4a2d1044c8fea7d4c9576c7a9c2687bc291ba343b4dc7420147304402205dbbab8e887f6c9052bf7ebd077ec5f76530b3ed99cbbf4d7c106ba93e55ebbc02203e70f916921000b99abb3f4c9c229d4a1333f2b65df3034b668850ffb636d3ea014c69522103d3ef8fa0875c9602cf0a518afe10b07f8478e206abe91a414b46f508a56b1944210226e3704a73d2f7cc243fb5d9349aeff6038d53f0d051e0914f19be6ee3713332210287e1600bae284a4412bb6f1c796526082ebcbcaf53ce1136fb45b74395dc0de053ae", "asm": "0 3045022100ace6a7d048abc783e01ca094c16f44947c69134d0005459c56ded515fc859c840220543a8fe6965f9776b4a2d1044c8fea7d4c9576c7a9c2687bc291ba343b4dc742[ALL] 304402205dbbab8e887f6c9052bf7ebd077ec5f76530b3ed99cbbf4d7c106ba93e55ebbc02203e70f916921000b99abb3f4c9c229d4a1333f2b65df3034b668850ffb636d3ea[ALL] 522103d3ef8fa0875c9602cf0a518afe10b07f8478e206abe91a414b46f508a56b1944210226e3704a73d2f7cc243fb5d9349aeff6038d53f0d051e0914f19be6ee3713332210287e1600bae284a4412bb6f1c796526082ebcbcaf53ce1136fb45b74395dc0de053ae"}, "vout": 29, "txid": "191b4ec6ecd73e9c6e7d9d3a78b8ef173c6bef4ebe0f427380ac522fa821a5bb"}], "txid": "269ae10f85de4a360d26a9ece543e9d270d54b8b86168c7496a74e30c8fde4c4", "blocktime": 1537870268, "version": 2, "confirmations": 11516, "time": 1537870268, "locktime": 0, "vsize": 372, "size": 372}