{"hash": "83d8cb245585e669b13af204c0d3c2fd9e29cc518c8fc06ae0307ad625e907c4", "blockhash": "00000000000000000017f5eb5941039fbcee6240d03bc1f2f8e35350df66a1d8", "vout": [{"scriptPubKey": {"reqSigs": 1, "hex": "76a914c5fe1d5f032623a898f20b38e5e0d9d88a299e5588ac", "addresses": ["1K3tXzWsVoxDpzjX9qFViU99d7tuAVFZCQ"], "asm": "OP_DUP OP_HASH160 c5fe1d5f032623a898f20b38e5e0d9d88a299e55 OP_EQUALVERIFY OP_CHECKSIG", "type": "pubkeyhash"}, "value": 0.000936, "n": 0}, {"scriptPubKey": {"reqSigs": 1, "hex": "00149fecd3393f6b7e814e31ca934445105dad55287d", "addresses": ["bc1qnlkdxwflddlgzn33e2f5g3gstkk422rajwyq6e"], "asm": "0 9fecd3393f6b7e814e31ca934445105dad55287d", "type": "witness_v0_keyhash"}, "value": 1.697e-05, "n": 1}], "hex": "010000000001015a794221703c7841310b0cc7208fa096b14e02b1db2e8ef5414cfaef0e14681c01000000171600143205d976a46d15760eb8f023f780dc9611a031c1ffffffff02a06d0100000000001976a914c5fe1d5f032623a898f20b38e5e0d9d88a299e5588aca1060000000000001600149fecd3393f6b7e814e31ca934445105dad55287d02483045022100f261f4901738b96cae1b51e6525275297467bd757557fb68aab2d8ed43b16a9502206f8b53b8c41bebffdddc6cb753cd30f6f7b63089d0a0b34744912d6849566662012103117d5e0aad736b788759076324a0eff27cfc5d66e567ea72c388a09c2a7c5e8f00000000", "vin": [{"txinwitness": ["3045022100f261f4901738b96cae1b51e6525275297467bd757557fb68aab2d8ed43b16a9502206f8b53b8c41bebffdddc6cb753cd30f6f7b63089d0a0b34744912d684956666201", "03117d5e0aad736b788759076324a0eff27cfc5d66e567ea72c388a09c2a7c5e8f"], "sequence": 4294967295, "scriptSig": {"hex": "1600143205d976a46d15760eb8f023f780dc9611a031c1", "asm": "00143205d976a46d15760eb8f023f780dc9611a031c1"}, "vout": 1, "txid": "1c68140eeffa4c41f58e2edbb1024eb196a08f20c70c0b3141783c702142795a"}], "txid": "269fb3e4fffb24824e62adc4ce76a2820f5638ef96400ef7a9865d5accfeeb67", "blocktime": 1537874412, "version": 1, "confirmations": 11468, "time": 1537874412, "locktime": 0, "vsize": 167, "size": 249}