{"hash": "4a8e919921c4203ed6e2738a765639c1d70c3853e907149b907e3788d5f2f0ca", "blockhash": "0000000000000000000dcc0f55137456b1a82d3642486a52398922ac4d620174", "vout": [{"scriptPubKey": {"reqSigs": 1, "hex": "a91483cdc17ac6e747c8c084bd3006ac82aaaece83da87", "addresses": ["3DhvvqRgSBRz3otiSZUf42x5bEE6rpLVA1"], "asm": "OP_HASH160 83cdc17ac6e747c8c084bd3006ac82aaaece83da OP_EQUAL", "type": "scripthash"}, "value": 0.00051476, "n": 0}, {"scriptPubKey": {"reqSigs": 1, "hex": "76a91484f394df716fdcf219b2fbc7e968419b811ae9af88ac", "addresses": ["1D7yzfUTShfYxdGYkWazDcQBvDQFeaKC9c"], "asm": "OP_DUP OP_HASH160 84f394df716fdcf219b2fbc7e968419b811ae9af OP_EQUALVERIFY OP_CHECKSIG", "type": "pubkeyhash"}, "value": 0.0006, "n": 1}, {"scriptPubKey": {"reqSigs": 1, "hex": "a91486488d8e7a93c831799227b407d3712c5fd25f2587", "addresses": ["3Dw3PKKmWvFhrDvmXy3Brx1zxv6jkjcxCw"], "asm": "OP_HASH160 86488d8e7a93c831799227b407d3712c5fd25f25 OP_EQUAL", "type": "scripthash"}, "value": 0.0062, "n": 2}, {"scriptPubKey": {"reqSigs": 1, "hex": "76a91419b5ada4bbacb7a71d99422801a40314172929ea88ac", "addresses": ["13LwY2T4b9Ut38W973iCkWwbx2ZtAx5b9x"], "asm": "OP_DUP OP_HASH160 19b5ada4bbacb7a71d99422801a40314172929ea OP_EQUALVERIFY OP_CHECKSIG", "type": "pubkeyhash"}, "value": 0.002, "n": 3}, {"scriptPubKey": {"reqSigs": 1, "hex": "76a9146e4bc7ce1cdf8346fae63a542809c3b9cd78ec1d88ac", "addresses": ["1B4C7RUezRXKBp2TF33YkJvG6WUmhDK161"], "asm": "OP_DUP OP_HASH160 6e4bc7ce1cdf8346fae63a542809c3b9cd78ec1d OP_EQUALVERIFY OP_CHECKSIG", "type": "pubkeyhash"}, "value": 0.0045, "n": 4}, {"scriptPubKey": {"reqSigs": 1, "hex": "a914aad24c73cfc29bc60ecdcc1b67f4be05f7d67c5a87", "addresses": ["3HGEixgCExwwsefSNEv6E1x9TmajgoGLjv"], "asm": "OP_HASH160 aad24c73cfc29bc60ecdcc1b67f4be05f7d67c5a OP_EQUAL", "type": "scripthash"}, "value": 0.03354816, "n": 5}, {"scriptPubKey": {"reqSigs": 1, "hex": "76a9141c33c0178177a5d625f34b88b1fac825c74866cb88ac", "addresses": ["13a7v3rYBG7ECw5r1unZxtnsFqWUga7k1A"], "asm": "OP_DUP OP_HASH160 1c33c0178177a5d625f34b88b1fac825c74866cb OP_EQUALVERIFY OP_CHECKSIG", "type": "pubkeyhash"}, "value": 0.0053, "n": 6}, {"scriptPubKey": {"reqSigs": 1, "hex": "76a914a097b968dd4d2edf5c4b421f9bfc07852521df2b88ac", "addresses": ["1Fe8sgPCQfFL2gnzwMG1d9RspEs9bv8Vvq"], "asm": "OP_DUP OP_HASH160 a097b968dd4d2edf5c4b421f9bfc07852521df2b OP_EQUALVERIFY OP_CHECKSIG", "type": "pubkeyhash"}, "value": 0.00031251, "n": 7}, {"scriptPubKey": {"reqSigs": 1, "hex": "76a9147868f438c3d9500edaf61db309472add55f596fc88ac", "addresses": ["1ByfpMM6ER6yZzJJirMxRxnWHdede5r79b"], "asm": "OP_DUP OP_HASH160 7868f438c3d9500edaf61db309472add55f596fc OP_EQUALVERIFY OP_CHECKSIG", "type": "pubkeyhash"}, "value": 0.00330866, "n": 8}, {"scriptPubKey": {"reqSigs": 1, "hex": "76a91499f89e655ecb812bc4b16686943fdca1bb55a47288ac", "addresses": ["1F38Dgb755GiZjfv6bvsQc2ohJsCMhtKuR"], "asm": "OP_DUP OP_HASH160 99f89e655ecb812bc4b16686943fdca1bb55a472 OP_EQUALVERIFY OP_CHECKSIG", "type": "pubkeyhash"}, "value": 0.01684158, "n": 9}, {"scriptPubKey": {"reqSigs": 1, "hex": "76a9146e2776f1a0c8fe84325065979ba3c6ccb456581988ac", "addresses": ["1B3Sc9njEeDJh7CgNgKVG3DvmQHzQeph9n"], "asm": "OP_DUP OP_HASH160 6e2776f1a0c8fe84325065979ba3c6ccb4565819 OP_EQUALVERIFY OP_CHECKSIG", "type": "pubkeyhash"}, "value": 0.00108718, "n": 10}, {"scriptPubKey": {"reqSigs": 1, "hex": "a914050e9b73041b548fc5c0102c08177fb3285ad59b87", "addresses": ["329koRvovTyNnd4ADrpR2uJHzXxfvKxta5"], "asm": "OP_HASH160 050e9b73041b548fc5c0102c08177fb3285ad59b OP_EQUAL", "type": "scripthash"}, "value": 48.44013846, "n": 11}], "hex": "02000000000101e4e178e25c5b08f812d43942607caaccd1bdeefc5b58d7646bb95f9152038eeb100000001716001437de5da24ea7c8a3122ff93038f95492bd3834e5feffffff0c14c900000000000017a91483cdc17ac6e747c8c084bd3006ac82aaaece83da8760ea0000000000001976a91484f394df716fdcf219b2fbc7e968419b811ae9af88ace07509000000000017a91486488d8e7a93c831799227b407d3712c5fd25f2587400d0300000000001976a91419b5ada4bbacb7a71d99422801a40314172929ea88acd0dd0600000000001976a9146e4bc7ce1cdf8346fae63a542809c3b9cd78ec1d88acc03033000000000017a914aad24c73cfc29bc60ecdcc1b67f4be05f7d67c5a8750160800000000001976a9141c33c0178177a5d625f34b88b1fac825c74866cb88ac137a0000000000001976a914a097b968dd4d2edf5c4b421f9bfc07852521df2b88ac720c0500000000001976a9147868f438c3d9500edaf61db309472add55f596fc88acbeb21900000000001976a91499f89e655ecb812bc4b16686943fdca1bb55a47288acaea80100000000001976a9146e2776f1a0c8fe84325065979ba3c6ccb456581988ac16c9b9200100000017a914050e9b73041b548fc5c0102c08177fb3285ad59b870247304402204fb98e1f7de33fd8ccf3c31797f55fe22207bd0b733e9157478edf445743195202200a7479a31edf1955e0056840ff1a880fd704c7858adbe5740f235675ac540a780121036f4dd476664e417eab722cf99a991c471d38a6a7562275be1bc2dc9a606b468d0c490800", "vin": [{"txinwitness": ["304402204fb98e1f7de33fd8ccf3c31797f55fe22207bd0b733e9157478edf445743195202200a7479a31edf1955e0056840ff1a880fd704c7858adbe5740f235675ac540a7801", "036f4dd476664e417eab722cf99a991c471d38a6a7562275be1bc2dc9a606b468d"], "sequence": 4294967294, "scriptSig": {"hex": "16001437de5da24ea7c8a3122ff93038f95492bd3834e5", "asm": "001437de5da24ea7c8a3122ff93038f95492bd3834e5"}, "vout": 16, "txid": "eb8e0352915fb96b64d7585bfceebdd1ccaa7c604239d412f8085b5ce278e1e4"}], "txid": "26aa87e71232758fd50ce41eda58e06acfa64f40412b542065fa28d5264d4888", "blocktime": 1537870268, "version": 2, "confirmations": 11518, "time": 1537870268, "locktime": 542988, "vsize": 502, "size": 583}