{"hash": "26ad650764340bf0bd1fd3723817d85605a85ad7cdc2f98a0fab6f74293e9071", "blockhash": "000000000000000000022b45ed06c6f4ccd3cf7fb5ba4856ebd2e58215665228", "vout": [{"scriptPubKey": {"reqSigs": 1, "hex": "76a9146fbef55e448c2e5b21f7f0f93a1e36c6d54c0c6b88ac", "addresses": ["1BBrmKaLAsHM4DgdkQ8HuRjFEs67tQFumQ"], "asm": "OP_DUP OP_HASH160 6fbef55e448c2e5b21f7f0f93a1e36c6d54c0c6b OP_EQUALVERIFY OP_CHECKSIG", "type": "pubkeyhash"}, "value": 0.10976505, "n": 0}], "hex": "020000000111a332e2865bffa3bf758193a3ec1d2b0c8d673ec3198ec8ccd175a8c5ade6d1010000008a4730440220700e88d513f9fdc26202185009efbccbc48f82f20e46c08cc5ef380b9e8c47140220075de13f96e584104d1a183b74b652c1c51574d33ad9c08743e936b9668fe89c01410480317ef1b00d8b4089f60798c21f03651125d051d15b6bc05a20bc4d475d413310de53cbc530e41265bec35f3b1ebaf9cb5253caff6c150bf41bb3c95cb209eeffffffff01f97ca700000000001976a9146fbef55e448c2e5b21f7f0f93a1e36c6d54c0c6b88ac00000000", "vin": [{"sequence": 4294967295, "scriptSig": {"hex": "4730440220700e88d513f9fdc26202185009efbccbc48f82f20e46c08cc5ef380b9e8c47140220075de13f96e584104d1a183b74b652c1c51574d33ad9c08743e936b9668fe89c01410480317ef1b00d8b4089f60798c21f03651125d051d15b6bc05a20bc4d475d413310de53cbc530e41265bec35f3b1ebaf9cb5253caff6c150bf41bb3c95cb209ee", "asm": "30440220700e88d513f9fdc26202185009efbccbc48f82f20e46c08cc5ef380b9e8c47140220075de13f96e584104d1a183b74b652c1c51574d33ad9c08743e936b9668fe89c[ALL] 0480317ef1b00d8b4089f60798c21f03651125d051d15b6bc05a20bc4d475d413310de53cbc530e41265bec35f3b1ebaf9cb5253caff6c150bf41bb3c95cb209ee"}, "vout": 1, "txid": "d1e6adc5a875d1ccc88e19c33e678d0c2b1deca3938175bfa3ff5b86e232a311"}], "txid": "26ad650764340bf0bd1fd3723817d85605a85ad7cdc2f98a0fab6f74293e9071", "blocktime": 1537869901, "version": 2, "confirmations": 11523, "time": 1537869901, "locktime": 0, "vsize": 223, "size": 223}