{"hash": "9ba85644bfb71425c582827badaa0e565b25134a65a3a836cfc0b9b357d90e76", "blockhash": "0000000000000000000baef3f32e3676a92c3b2e5da21b426e4f302fc371ce76", "vout": [{"scriptPubKey": {"reqSigs": 1, "hex": "a914d37a1938906e95b7cce378805604f36d5bac67c387", "addresses": ["3LyCmaEbWzy9mU2ckwm7h3bpfFuMRZX76V"], "asm": "OP_HASH160 d37a1938906e95b7cce378805604f36d5bac67c3 OP_EQUAL", "type": "scripthash"}, "value": 0.01526659, "n": 0}, {"scriptPubKey": {"reqSigs": 1, "hex": "76a91496fb510caeae98a0b8e350d393b68d37dd72a54d88ac", "addresses": ["1EmKRZNFP3AWU8oZP992TGvmSaRQt3UjSA"], "asm": "OP_DUP OP_HASH160 96fb510caeae98a0b8e350d393b68d37dd72a54d OP_EQUALVERIFY OP_CHECKSIG", "type": "pubkeyhash"}, "value": 0.098469, "n": 1}], "hex": "0100000000010109197b5eeb3f9deb2da47a405de62b8325061f7060a2f88250ad297ee708d4700000000023220020c74ff0481b5dc8118440a6de0e435e5fc5c60f8d49b537e3b6fd2f8f7712c2cbffffffff02834b17000000000017a914d37a1938906e95b7cce378805604f36d5bac67c38774409600000000001976a91496fb510caeae98a0b8e350d393b68d37dd72a54d88ac0400483045022100ea572b17e442901a46e503ff0d65166b394a96df6b82e9421edc17cd43b5e76402201bd11e8026ef8fd5e5951502405c82ea7c99ce4f07d544cee566e7dfe07bed520147304402207b445d3f41965f2b5d442dfeb2bef4599afff4d170e7000b83720ee3bd376334022025472e8aa33d1def603d99151d6fee3fc966de729a969edd02dd4aa58ce5dc41016952210268d56d3d37060866ed3b0f86f683d8b28ed7d17113ab35efa4f85dcf0f285c1021033826ae1ee284ff18cd500d60fd5a088c6e6da8a398c1cff167f6115b5bbd4b752103c2dcb866d713f0113f24f640d9421f804a246c62e478a21544fb332b320b2f1b53ae00000000", "vin": [{"txinwitness": ["", "3045022100ea572b17e442901a46e503ff0d65166b394a96df6b82e9421edc17cd43b5e76402201bd11e8026ef8fd5e5951502405c82ea7c99ce4f07d544cee566e7dfe07bed5201", "304402207b445d3f41965f2b5d442dfeb2bef4599afff4d170e7000b83720ee3bd376334022025472e8aa33d1def603d99151d6fee3fc966de729a969edd02dd4aa58ce5dc4101", "52210268d56d3d37060866ed3b0f86f683d8b28ed7d17113ab35efa4f85dcf0f285c1021033826ae1ee284ff18cd500d60fd5a088c6e6da8a398c1cff167f6115b5bbd4b752103c2dcb866d713f0113f24f640d9421f804a246c62e478a21544fb332b320b2f1b53ae"], "sequence": 4294967295, "scriptSig": {"hex": "220020c74ff0481b5dc8118440a6de0e435e5fc5c60f8d49b537e3b6fd2f8f7712c2cb", "asm": "0020c74ff0481b5dc8118440a6de0e435e5fc5c60f8d49b537e3b6fd2f8f7712c2cb"}, "vout": 0, "txid": "70d408e77e29ad5082f8a260701f0625832be65d407aa42deb9d3feb5e7b1909"}], "txid": "26aeeb6f0aa4d10bf0fc6a2db0602023fbb1bacb4a3fd5ab04cf0fd15ecc92c1", "blocktime": 1537876114, "version": 1, "confirmations": 11460, "time": 1537876114, "locktime": 0, "vsize": 216, "size": 407}