{"hash": "26b71b88e483bb2dbc19270781942d7e05485bc55f4891a8da46f796e283d942", "blockhash": "00000000000000000018f53835495a110e01622372bf6ae95dc86f2b0ab887b0", "vout": [{"scriptPubKey": {"reqSigs": 1, "hex": "a91469f3749480f4045795abec8dba4392e69ac9604387", "addresses": ["3BMEXGDCXfJUjfCBF14wNSWx9AzwTzwr1e"], "asm": "OP_HASH160 69f3749480f4045795abec8dba4392e69ac96043 OP_EQUAL", "type": "scripthash"}, "value": 0.00178797, "n": 0}, {"scriptPubKey": {"reqSigs": 1, "hex": "76a914d62eb3d3827db773fa1482fc93e74605bedb108488ac", "addresses": ["1LXVYzggZqCrkzswoMv4o1v7ssjMmbvaZe"], "asm": "OP_DUP OP_HASH160 d62eb3d3827db773fa1482fc93e74605bedb1084 OP_EQUALVERIFY OP_CHECKSIG", "type": "pubkeyhash"}, "value": 0.02282726, "n": 1}], "hex": "0100000001a122c2cf8a13fc0b39e6600259549f97c857a0acff79dd804a45ff7bbbff5926010000006b483045022100deab0c416f45a3eea45e6078ebac9c5bf47f654e6d1842dc8dce45939ca5a1a70220269aa377109871e3428e025cc19318cca54a9bef7b96205a7ea8ed9e7b51110b01210364427c0286877d60d8e236faff8b261d2594be5923a3e6aadde4eca471beec4effffffff026dba02000000000017a91469f3749480f4045795abec8dba4392e69ac9604387e6d42200000000001976a914d62eb3d3827db773fa1482fc93e74605bedb108488ac00000000", "vin": [{"sequence": 4294967295, "scriptSig": {"hex": "483045022100deab0c416f45a3eea45e6078ebac9c5bf47f654e6d1842dc8dce45939ca5a1a70220269aa377109871e3428e025cc19318cca54a9bef7b96205a7ea8ed9e7b51110b01210364427c0286877d60d8e236faff8b261d2594be5923a3e6aadde4eca471beec4e", "asm": "3045022100deab0c416f45a3eea45e6078ebac9c5bf47f654e6d1842dc8dce45939ca5a1a70220269aa377109871e3428e025cc19318cca54a9bef7b96205a7ea8ed9e7b51110b[ALL] 0364427c0286877d60d8e236faff8b261d2594be5923a3e6aadde4eca471beec4e"}, "vout": 1, "txid": "2659ffbb7bff454a80dd79ffaca057c8979f54590260e6390bfc138acfc222a1"}], "txid": "26b71b88e483bb2dbc19270781942d7e05485bc55f4891a8da46f796e283d942", "blocktime": 1537870928, "version": 1, "confirmations": 11514, "time": 1537870928, "locktime": 0, "vsize": 224, "size": 224}