{"hash": "556b29df629391b6a8f6566011f421d71eb66e050e87b34d3189f63e36debb35", "blockhash": "00000000000000000004ffacab907a6b429b9a5745fa0b75af4234bf69dd7176", "vout": [{"scriptPubKey": {"reqSigs": 1, "hex": "a914816dd65e507d1f450fbfb209da55c5b631786d4187", "addresses": ["3DVNfvabgjUYKKsYot5JpsCvZNKk738aZC"], "asm": "OP_HASH160 816dd65e507d1f450fbfb209da55c5b631786d41 OP_EQUAL", "type": "scripthash"}, "value": 0.00938, "n": 0}, {"scriptPubKey": {"reqSigs": 1, "hex": "76a914cd8a06c86786e73f7c991e3e15787e6579ce34cc88ac", "addresses": ["1KjnsaJqLTWo9imk3qxNayD7DzVzM2doMH"], "asm": "OP_DUP OP_HASH160 cd8a06c86786e73f7c991e3e15787e6579ce34cc OP_EQUALVERIFY OP_CHECKSIG", "type": "pubkeyhash"}, "value": 0.009385, "n": 1}, {"scriptPubKey": {"reqSigs": 1, "hex": "76a9140b4a465036c0956ba76ac6220a8733f5d5b9055488ac", "addresses": ["122hQodwu4fUzCud1g8pVK7wYtV4SPoTuB"], "asm": "OP_DUP OP_HASH160 0b4a465036c0956ba76ac6220a8733f5d5b90554 OP_EQUALVERIFY OP_CHECKSIG", "type": "pubkeyhash"}, "value": 0.0154688, "n": 2}, {"scriptPubKey": {"reqSigs": 1, "hex": "a914b8a9a8ba8cf965b7df6b05afd948e53c351b2c0d87", "addresses": ["3JXRVxhrk2o9f4w3cQchBLwUeegJBj6BEp"], "asm": "OP_HASH160 b8a9a8ba8cf965b7df6b05afd948e53c351b2c0d OP_EQUAL", "type": "scripthash"}, "value": 2.44075459, "n": 3}], "hex": "01000000000101788d47dd4ab8f9f843e6683823e66095b56bcb70c27939a77de666b9d7412f09010000002322002065d416c48a8072e0ac51c2d111eb194f009caef0332446c1bf2097316cf07fa9ffffffff0410500e000000000017a914816dd65e507d1f450fbfb209da55c5b631786d418704520e00000000001976a914cd8a06c86786e73f7c991e3e15787e6579ce34cc88ac809a1700000000001976a9140b4a465036c0956ba76ac6220a8733f5d5b9055488acc34b8c0e0000000017a914b8a9a8ba8cf965b7df6b05afd948e53c351b2c0d870400483045022100e31acf43472512e0a27241085fcdd6bf47e53ecdca103d700d86e7d1a7b2bee5022013383bd77c8943be3ea6199e2058b777ff5363ec60bcbe4404479b7531892316014730440220776561d0563c9dcde5fbd2c0888c6a6fcb5eed601a079b6dccaefd7af2e9de910220410673b4f1c963255ccfad96ee2083f07fb599a529384aa2d9e67996fb79d0cd0169522102f44abcf9e23c9a460da309ccca56c619c04eed3bde2c2cff5e7d78fbcd980b9c2103c9443cf3047bb6c2c82f1b0c44c36109cdc3d0d601d16d1189a1602bf8d1a0a02103bfe867059274412412e088af5572b92168c2ef495cfe6c9b7a753a009eb37c4853ae00000000", "vin": [{"txinwitness": ["", "3045022100e31acf43472512e0a27241085fcdd6bf47e53ecdca103d700d86e7d1a7b2bee5022013383bd77c8943be3ea6199e2058b777ff5363ec60bcbe4404479b753189231601", "30440220776561d0563c9dcde5fbd2c0888c6a6fcb5eed601a079b6dccaefd7af2e9de910220410673b4f1c963255ccfad96ee2083f07fb599a529384aa2d9e67996fb79d0cd01", "522102f44abcf9e23c9a460da309ccca56c619c04eed3bde2c2cff5e7d78fbcd980b9c2103c9443cf3047bb6c2c82f1b0c44c36109cdc3d0d601d16d1189a1602bf8d1a0a02103bfe867059274412412e088af5572b92168c2ef495cfe6c9b7a753a009eb37c4853ae"], "sequence": 4294967295, "scriptSig": {"hex": "22002065d416c48a8072e0ac51c2d111eb194f009caef0332446c1bf2097316cf07fa9", "asm": "002065d416c48a8072e0ac51c2d111eb194f009caef0332446c1bf2097316cf07fa9"}, "vout": 1, "txid": "092f41d7b966e67da73979c270cb6bb59560e6233868e643f8f9b84add478d78"}], "txid": "26b8e9c82c531a3e06b283f6a720658ad690f0a1e76d7379e0e808caa079156d", "blocktime": 1537875543, "version": 1, "confirmations": 11464, "time": 1537875543, "locktime": 0, "vsize": 282, "size": 473}