{"hash": "26c4afd3f316b7f1acca64b29a910754681db92a68e9bdc227cf93b5376387d1", "blockhash": "0000000000000000000dcc0f55137456b1a82d3642486a52398922ac4d620174", "vout": [{"scriptPubKey": {"reqSigs": 1, "hex": "76a91403a457e48b6c4276b9032c42dc279c0fe304bcbe88ac", "addresses": ["1LFuMKUH8XhPymDVcabDJvhnaQXZS4hF4"], "asm": "OP_DUP OP_HASH160 03a457e48b6c4276b9032c42dc279c0fe304bcbe OP_EQUALVERIFY OP_CHECKSIG", "type": "pubkeyhash"}, "value": 0.00053501, "n": 0}, {"scriptPubKey": {"reqSigs": 1, "hex": "a9146842bbb223a1d30b75495cb38d5fdfe0dcb5f9a687", "addresses": ["3BCJ9CPk9B3g3y7pcKkJdVELJKSNq7gCFV"], "asm": "OP_HASH160 6842bbb223a1d30b75495cb38d5fdfe0dcb5f9a6 OP_EQUAL", "type": "scripthash"}, "value": 0.00156055, "n": 1}], "hex": "0100000001b627759848b0d0afb8cb2fc93c5bbe0fb2a298b77a04170272f60f5e75d0429a060000006b483045022100b40246118e0f4dd291794bf5f096732098a469613e299f983c9a43ed0be8212002205a5dcb17ce2a2069bd401d9b1f3a1cc65ba4aa09efbb5b37b4f9e7f901571b140121030ea548b530d2f38e729ab501a34f78028130974af4f4f9df8f46444ba7ce73bfffffffff02fdd00000000000001976a91403a457e48b6c4276b9032c42dc279c0fe304bcbe88ac976102000000000017a9146842bbb223a1d30b75495cb38d5fdfe0dcb5f9a68700000000", "vin": [{"sequence": 4294967295, "scriptSig": {"hex": "483045022100b40246118e0f4dd291794bf5f096732098a469613e299f983c9a43ed0be8212002205a5dcb17ce2a2069bd401d9b1f3a1cc65ba4aa09efbb5b37b4f9e7f901571b140121030ea548b530d2f38e729ab501a34f78028130974af4f4f9df8f46444ba7ce73bf", "asm": "3045022100b40246118e0f4dd291794bf5f096732098a469613e299f983c9a43ed0be8212002205a5dcb17ce2a2069bd401d9b1f3a1cc65ba4aa09efbb5b37b4f9e7f901571b14[ALL] 030ea548b530d2f38e729ab501a34f78028130974af4f4f9df8f46444ba7ce73bf"}, "vout": 6, "txid": "9a42d0755e0ff6720217047ab798a2b20fbe5b3cc92fcbb8afd0b048987527b6"}], "txid": "26c4afd3f316b7f1acca64b29a910754681db92a68e9bdc227cf93b5376387d1", "blocktime": 1537870268, "version": 1, "confirmations": 11518, "time": 1537870268, "locktime": 0, "vsize": 224, "size": 224}