{"hash": "26d1ffa52cac4eae545b3fee25e1ec5478c6ae7d173959b618062c0196ea5073", "blockhash": "0000000000000000000dcc0f55137456b1a82d3642486a52398922ac4d620174", "vout": [{"scriptPubKey": {"type": "nulldata", "hex": "6a4c5000007768000194c239d3a5f2a0c06b3229de86aeaeacb577c031fc3a016b46dc7dc7d0962a9932beb338e338719ea3d50aae3e445baa0825061322343b006670bc9a9526289ac0f6612cd74e33776ee4", "asm": "OP_RETURN 00007768000194c239d3a5f2a0c06b3229de86aeaeacb577c031fc3a016b46dc7dc7d0962a9932beb338e338719ea3d50aae3e445baa0825061322343b006670bc9a9526289ac0f6612cd74e33776ee4"}, "value": 0.0, "n": 0}, {"scriptPubKey": {"reqSigs": 1, "hex": "76a914a5fd27d0a3d00e08ace38d6c03a43a891e1b8cee88ac", "addresses": ["1G8fmCyQurt4yzcqurZeonqNZE2F5vD2AP"], "asm": "OP_DUP OP_HASH160 a5fd27d0a3d00e08ace38d6c03a43a891e1b8cee OP_EQUALVERIFY OP_CHECKSIG", "type": "pubkeyhash"}, "value": 0.0010864, "n": 1}], "hex": "010000000153ec61c7810d508639f5653123e5c5122edd500147582a4948e73cfa42870858010000006a4730440220327e93df1e1103a23a559527d6bd95321b311dd18b2b85840b5797bb87c9030702202b8db59532c4928367cc4ebd061ad38dd50f4885a8b0dcbe1d790bf58f08d22e0121038f80fe7e8207cddb96cadf9de6858192d6625f7ee804ad17fa09649de344f16cffffffff020000000000000000536a4c5000007768000194c239d3a5f2a0c06b3229de86aeaeacb577c031fc3a016b46dc7dc7d0962a9932beb338e338719ea3d50aae3e445baa0825061322343b006670bc9a9526289ac0f6612cd74e33776ee460a80100000000001976a914a5fd27d0a3d00e08ace38d6c03a43a891e1b8cee88ac00000000", "vin": [{"sequence": 4294967295, "scriptSig": {"hex": "4730440220327e93df1e1103a23a559527d6bd95321b311dd18b2b85840b5797bb87c9030702202b8db59532c4928367cc4ebd061ad38dd50f4885a8b0dcbe1d790bf58f08d22e0121038f80fe7e8207cddb96cadf9de6858192d6625f7ee804ad17fa09649de344f16c", "asm": "30440220327e93df1e1103a23a559527d6bd95321b311dd18b2b85840b5797bb87c9030702202b8db59532c4928367cc4ebd061ad38dd50f4885a8b0dcbe1d790bf58f08d22e[ALL] 038f80fe7e8207cddb96cadf9de6858192d6625f7ee804ad17fa09649de344f16c"}, "vout": 1, "txid": "58088742fa3ce748492a58470150dd2e12c5e5233165f53986500d81c761ec53"}], "txid": "26d1ffa52cac4eae545b3fee25e1ec5478c6ae7d173959b618062c0196ea5073", "blocktime": 1537870268, "version": 1, "confirmations": 11518, "time": 1537870268, "locktime": 0, "vsize": 283, "size": 283}