{"hash": "de294afb4d0797477c101c618ac7baadd2d4fe237ed39f38af574fc90e5d3a18", "blockhash": "0000000000000000000dcc0f55137456b1a82d3642486a52398922ac4d620174", "vout": [{"scriptPubKey": {"reqSigs": 1, "hex": "a914edbf4f50918c1524ec74595e0ca584d3f3960e9787", "addresses": ["3PN7FStKUFNg7frhNBqzXm4SZmyzg765wB"], "asm": "OP_HASH160 edbf4f50918c1524ec74595e0ca584d3f3960e97 OP_EQUAL", "type": "scripthash"}, "value": 0.03086542, "n": 0}, {"scriptPubKey": {"reqSigs": 1, "hex": "a914fdf846ec14d57fa4b244c72b6dd48afb080f50d287", "addresses": ["3QqtJfhQPaamNbyppk8JYs7K3dzimEcoRr"], "asm": "OP_HASH160 fdf846ec14d57fa4b244c72b6dd48afb080f50d2 OP_EQUAL", "type": "scripthash"}, "value": 0.0099999, "n": 1}], "hex": "02000000000105351e8e2d4c327a3ed2d89fa68b5a614fdad0bc961ac43af61c2d0a437a5b13d20100000017160014ca3f5fc2c725ffc88f86dea7339d416e8a2c21c0feffffff5f15d5a0b923950f6242d0c9d4cfd94e8b73a30e0f8c2e06d329a1b0c362aec5000000001716001485e057f96851688bbc181f0e5166ab3beecf5478feffffff614225fb1fd108c0e47b5741847b61bdfa44e9f1992e8220ef4fe4afa0e44a76010000001716001426deebbd6d4a3f2e93d22bf7cf6307126a2679bafeffffff619ca43dde4d3ed3eabee7c405aab86c8d12be68134caf04c2682add3fce4742010000001716001460c120338f065682b82cdf1d5e2cc544643084b2feffffffabd04b7dcaafc2437f5eef4c3504dbb34a74d9b151a9afd76e1e7bdf36f54c19010000001716001432e25372a4406d3ff89c0a6f5dd0526137f487bafeffffff02ce182f000000000017a914edbf4f50918c1524ec74595e0ca584d3f3960e978736420f000000000017a914fdf846ec14d57fa4b244c72b6dd48afb080f50d2870248304502210097e3e5b06b492580e891cb17bb2044e3810c6b364297de896f0a03db335ab56002204f81d85a5f1a0576d60775f91e0fe0a255a172b1e50b0df0ba21d958405339fc01210220273287b446c1f74e949d0221ab3fcc23eb2eb37b6d24efd17f390d66444c4b02483045022100bed5711e5695254a97572d43ea0e76af822a264fa03e8737325f6672dbd9b4af02206f18b46bf3d8308601a58d14e49662858ca8dffbb002506d3e3d2b767b76dc10012102c267bceb17d51c2bc84e264bc3dee3cc33a55976c4121183c2e312289bc60c400247304402207c8948849aa5421e198fcc25997989ee630dc2069493b1a58696b96e4c3754c4022015743e775e432cccd9401654d5473a6d50c0ef88d730a2ea9082bdef03fa0236012103a9b6b96ae83302cf8169b9464ce2a62bfe90b641caf8705f604d522b7b7c725202483045022100bb09e9042dc3f1b6d4e51fae60716546f26a7c264baa0208cf111f7052370cbf02201fad14b459c2e1762119b3a0a2dd5bae4895f21f37c807d65c68e674860ffb3a0121035adc0aa259124f5fa6cda3b0775ab690d886fd564bfaab59376e014f87d0ce9902483045022100db5c290ce3979d8393f278f38a8019e31469f2b9cce8c8ffeae5cade59d2b4e502201265949dc0df9eec1b3da927fa26f61db608f773426fdd70cda6f6fd55c5c1920121032b85a173bb1b68fb30b2b515b84b1fdcad18ecf8597261fbbfbd23418c2231ef0c490800", "vin": [{"txinwitness": ["304502210097e3e5b06b492580e891cb17bb2044e3810c6b364297de896f0a03db335ab56002204f81d85a5f1a0576d60775f91e0fe0a255a172b1e50b0df0ba21d958405339fc01", "0220273287b446c1f74e949d0221ab3fcc23eb2eb37b6d24efd17f390d66444c4b"], "sequence": 4294967294, "scriptSig": {"hex": "160014ca3f5fc2c725ffc88f86dea7339d416e8a2c21c0", "asm": "0014ca3f5fc2c725ffc88f86dea7339d416e8a2c21c0"}, "vout": 1, "txid": "d2135b7a430a2d1cf63ac41a96bcd0da4f615a8ba69fd8d23e7a324c2d8e1e35"}, {"txinwitness": ["3045022100bed5711e5695254a97572d43ea0e76af822a264fa03e8737325f6672dbd9b4af02206f18b46bf3d8308601a58d14e49662858ca8dffbb002506d3e3d2b767b76dc1001", "02c267bceb17d51c2bc84e264bc3dee3cc33a55976c4121183c2e312289bc60c40"], "sequence": 4294967294, "scriptSig": {"hex": "16001485e057f96851688bbc181f0e5166ab3beecf5478", "asm": "001485e057f96851688bbc181f0e5166ab3beecf5478"}, "vout": 0, "txid": "c5ae62c3b0a129d3062e8c0f0ea3738b4ed9cfd4c9d042620f9523b9a0d5155f"}, {"txinwitness": ["304402207c8948849aa5421e198fcc25997989ee630dc2069493b1a58696b96e4c3754c4022015743e775e432cccd9401654d5473a6d50c0ef88d730a2ea9082bdef03fa023601", "03a9b6b96ae83302cf8169b9464ce2a62bfe90b641caf8705f604d522b7b7c7252"], "sequence": 4294967294, "scriptSig": {"hex": "16001426deebbd6d4a3f2e93d22bf7cf6307126a2679ba", "asm": "001426deebbd6d4a3f2e93d22bf7cf6307126a2679ba"}, "vout": 1, "txid": "764ae4a0afe44fef20822e99f1e944fabd617b8441577be4c008d11ffb254261"}, {"txinwitness": ["3045022100bb09e9042dc3f1b6d4e51fae60716546f26a7c264baa0208cf111f7052370cbf02201fad14b459c2e1762119b3a0a2dd5bae4895f21f37c807d65c68e674860ffb3a01", "035adc0aa259124f5fa6cda3b0775ab690d886fd564bfaab59376e014f87d0ce99"], "sequence": 4294967294, "scriptSig": {"hex": "16001460c120338f065682b82cdf1d5e2cc544643084b2", "asm": "001460c120338f065682b82cdf1d5e2cc544643084b2"}, "vout": 1, "txid": "4247ce3fdd2a68c204af4c1368be128d6cb8aa05c4e7beead33e4dde3da49c61"}, {"txinwitness": ["3045022100db5c290ce3979d8393f278f38a8019e31469f2b9cce8c8ffeae5cade59d2b4e502201265949dc0df9eec1b3da927fa26f61db608f773426fdd70cda6f6fd55c5c19201", "032b85a173bb1b68fb30b2b515b84b1fdcad18ecf8597261fbbfbd23418c2231ef"], "sequence": 4294967294, "scriptSig": {"hex": "16001432e25372a4406d3ff89c0a6f5dd0526137f487ba", "asm": "001432e25372a4406d3ff89c0a6f5dd0526137f487ba"}, "vout": 1, "txid": "194cf536df7b1e6ed7afa951b1d9744ab3db04354cef5e7f43c2afca7d4bd0ab"}], "txid": "26d190a44437aba2eb1812518a5d36f969814852cd379ceb48ac44637273dcc3", "blocktime": 1537870268, "version": 2, "confirmations": 11518, "time": 1537870268, "locktime": 542988, "vsize": 530, "size": 935}