{"hash": "26d6460f58e461c5069b41a7f72b34f36cca38d289ffde13488a066f53349a70", "blockhash": "0000000000000000001cda96e906b7601b7a6fb1a3b62bca570a9e5d8f4b3de1", "vout": [{"scriptPubKey": {"reqSigs": 1, "hex": "76a914975b53a8d455cd32189f69ce3de2542db2f7179388ac", "addresses": ["1EoJSTshLUCUdYw9pskvzD5cSfZx4TqbYs"], "asm": "OP_DUP OP_HASH160 975b53a8d455cd32189f69ce3de2542db2f71793 OP_EQUALVERIFY OP_CHECKSIG", "type": "pubkeyhash"}, "value": 2.275e-05, "n": 0}, {"scriptPubKey": {"reqSigs": 1, "hex": "a9147467e5d8559b91912ef936c9b2c7e5b3e394f72687", "addresses": ["3CJWmk79f8uQD7aSLw7nWq4ixhotraxBD3"], "asm": "OP_HASH160 7467e5d8559b91912ef936c9b2c7e5b3e394f726 OP_EQUAL", "type": "scripthash"}, "value": 0.00519967, "n": 1}], "hex": "0100000001e109ca21d2a3322c5e827a5ca7ee419cc7f3dedf8718484632c9c707424ca4da000000006a47304402200d02c3eccbfd5c6a459693b623a288ae2b33341669a27b0eb0c1d6ea7caa0ffe022024f1d75034ba2dc6137e0b2aee0726ffbcd9092c5ea813eae880f321fa299006012103a96f141c56ca43781628c29f8b4a374552e92f212bd0172858e68ac26126f2cdffffffff02e3080000000000001976a914975b53a8d455cd32189f69ce3de2542db2f7179388ac1fef07000000000017a9147467e5d8559b91912ef936c9b2c7e5b3e394f7268700000000", "vin": [{"sequence": 4294967295, "scriptSig": {"hex": "47304402200d02c3eccbfd5c6a459693b623a288ae2b33341669a27b0eb0c1d6ea7caa0ffe022024f1d75034ba2dc6137e0b2aee0726ffbcd9092c5ea813eae880f321fa299006012103a96f141c56ca43781628c29f8b4a374552e92f212bd0172858e68ac26126f2cd", "asm": "304402200d02c3eccbfd5c6a459693b623a288ae2b33341669a27b0eb0c1d6ea7caa0ffe022024f1d75034ba2dc6137e0b2aee0726ffbcd9092c5ea813eae880f321fa299006[ALL] 03a96f141c56ca43781628c29f8b4a374552e92f212bd0172858e68ac26126f2cd"}, "vout": 0, "txid": "daa44c4207c7c93246481887dfdef3c79c41eea75c7a825e2c32a3d221ca09e1"}], "txid": "26d6460f58e461c5069b41a7f72b34f36cca38d289ffde13488a066f53349a70", "blocktime": 1537873282, "version": 1, "confirmations": 11485, "time": 1537873282, "locktime": 0, "vsize": 223, "size": 223}