{"hash": "26e6381521421cb9df08ca283d314c2450e82644a0984599013ae15543f96b9a", "blockhash": "0000000000000000001cda96e906b7601b7a6fb1a3b62bca570a9e5d8f4b3de1", "vout": [{"scriptPubKey": {"reqSigs": 1, "hex": "76a914d2cc49c4197b9d276f40a538d0c8dc127746df3088ac", "addresses": ["1LDbdUUpNKpz2YfgZEe1GJv2hDfpP1DYgT"], "asm": "OP_DUP OP_HASH160 d2cc49c4197b9d276f40a538d0c8dc127746df30 OP_EQUALVERIFY OP_CHECKSIG", "type": "pubkeyhash"}, "value": 0.000138, "n": 0}, {"scriptPubKey": {"reqSigs": 1, "hex": "76a914a3d1ba90d6daac198f62c50a0a2c1c23adbd73d788ac", "addresses": ["1FwCPUnAruTkFNRLh7KooTuNLFgUztETjj"], "asm": "OP_DUP OP_HASH160 a3d1ba90d6daac198f62c50a0a2c1c23adbd73d7 OP_EQUALVERIFY OP_CHECKSIG", "type": "pubkeyhash"}, "value": 0.15860431, "n": 1}], "hex": "010000000160f9f4a4de90934fbf1c76dfae05dd4db46e2b5c85b364d3fe567e9c2fc9f834010000006b4830450221008587922f9e248c618e1bfeca4ec214b10512ff9c5f8586968c7f396986ddc4a202203849721e0e5d1849d8adb91396e0daa715ba70f785110e1fb41a55785e014eff012102ef6e423c66d3f079a40644e632496a34634b9abebab27352fc881b0f02602fdaffffffff02e8350000000000001976a914d2cc49c4197b9d276f40a538d0c8dc127746df3088accf02f200000000001976a914a3d1ba90d6daac198f62c50a0a2c1c23adbd73d788ac00000000", "vin": [{"sequence": 4294967295, "scriptSig": {"hex": "4830450221008587922f9e248c618e1bfeca4ec214b10512ff9c5f8586968c7f396986ddc4a202203849721e0e5d1849d8adb91396e0daa715ba70f785110e1fb41a55785e014eff012102ef6e423c66d3f079a40644e632496a34634b9abebab27352fc881b0f02602fda", "asm": "30450221008587922f9e248c618e1bfeca4ec214b10512ff9c5f8586968c7f396986ddc4a202203849721e0e5d1849d8adb91396e0daa715ba70f785110e1fb41a55785e014eff[ALL] 02ef6e423c66d3f079a40644e632496a34634b9abebab27352fc881b0f02602fda"}, "vout": 1, "txid": "34f8c92f9c7e56fed364b3855c2b6eb44ddd05aedf761cbf4f9390dea4f4f960"}], "txid": "26e6381521421cb9df08ca283d314c2450e82644a0984599013ae15543f96b9a", "blocktime": 1537873282, "version": 1, "confirmations": 11485, "time": 1537873282, "locktime": 0, "vsize": 226, "size": 226}