{"hash": "df4291bc18f46b82985976f5f9b076f7162a91a7af78b90c9b072470cea1f518", "blockhash": "0000000000000000001f0ddff1eddb255c1121bcd4da4f1bc9a0da00cae72433", "vout": [{"scriptPubKey": {"reqSigs": 1, "hex": "a91486d0b25972bf68fe0565d8654bdc8d9a3e0d796487", "addresses": ["3DyrUkMpV5e5voD99Ljx1gRpv2XPVmELjj"], "asm": "OP_HASH160 86d0b25972bf68fe0565d8654bdc8d9a3e0d7964 OP_EQUAL", "type": "scripthash"}, "value": 0.0031836, "n": 0}, {"scriptPubKey": {"reqSigs": 1, "hex": "a914ef39bce08b0ff4fd3a808da9ada8ce2862df392287", "addresses": ["3PVvb5pnAxr8wFUdC7P5VCBjWXTiCohQLM"], "asm": "OP_HASH160 ef39bce08b0ff4fd3a808da9ada8ce2862df3922 OP_EQUAL", "type": "scripthash"}, "value": 0.01318509, "n": 1}], "hex": "0200000000010169e6967e2a908a425058fb93c58e033b4697669ea03dcefbbc9aeb2b3b29c8300100000017160014c3fdc43481f52b157781948f81c6eda7e5cb8edefeffffff0298db04000000000017a91486d0b25972bf68fe0565d8654bdc8d9a3e0d7964876d1e14000000000017a914ef39bce08b0ff4fd3a808da9ada8ce2862df39228702483045022100d39a322427d53fb34743a4df22217d07cf44a1aaab40de7c381a8c3de68b98cc02206d06aa636f11a9ab041744b306561ea8bd96645d3a73f91ef504e0f05a2a6b520121034b03fe5aad21f0f0b0b9e0a683a90cd46fd63aa8a5ff3419958afc1d685a78c611490800", "vin": [{"txinwitness": ["3045022100d39a322427d53fb34743a4df22217d07cf44a1aaab40de7c381a8c3de68b98cc02206d06aa636f11a9ab041744b306561ea8bd96645d3a73f91ef504e0f05a2a6b5201", "034b03fe5aad21f0f0b0b9e0a683a90cd46fd63aa8a5ff3419958afc1d685a78c6"], "sequence": 4294967294, "scriptSig": {"hex": "160014c3fdc43481f52b157781948f81c6eda7e5cb8ede", "asm": "0014c3fdc43481f52b157781948f81c6eda7e5cb8ede"}, "vout": 1, "txid": "30c8293b2beb9abcfbce3da09e6697463b038ec593fb5850428a902a7e96e669"}], "txid": "26ea900531f17d1ae091b92c622e4b11ae6ffcb4e3ec63364a1b2c521aebba6f", "blocktime": 1537872018, "version": 2, "confirmations": 11489, "time": 1537872018, "locktime": 542993, "vsize": 166, "size": 248}