{"hash": "26f3953e1e644c5e702b8a997f019dbc92d3a187759dc158a053dd797cab14ea", "blockhash": "0000000000000000001e0dab787dd257d1dbfcb92a98c2207d5e1078be1f4165", "vout": [{"scriptPubKey": {"reqSigs": 1, "hex": "a914738f0d5e2e90d11bc7c761f2a360af9247731f8287", "addresses": ["3CE313f8NMJBk4QWiBZP5VbpvKEerAJJVu"], "asm": "OP_HASH160 738f0d5e2e90d11bc7c761f2a360af9247731f82 OP_EQUAL", "type": "scripthash"}, "value": 0.0012, "n": 0}, {"scriptPubKey": {"reqSigs": 1, "hex": "76a9147711eab6ffcc99e4376ac39f4022de413e1ea2a988ac", "addresses": ["1BrasiLb2KMbdtuhb1chAVnS2FvcNGfV9J"], "asm": "OP_DUP OP_HASH160 7711eab6ffcc99e4376ac39f4022de413e1ea2a9 OP_EQUALVERIFY OP_CHECKSIG", "type": "pubkeyhash"}, "value": 0.00983889, "n": 1}], "hex": "02000000016b3eaa0453b5a80a0bdc928677c24ba1342ef6400e19a227c30d430fb9d56f9f080000006a47304402201f9ae6c8e297af1ebd0dd2121e59f29ee0b2c30279dc8bfc9b0a24ba08904d1c022071c2f8829c06fc1719596268f120358e684acdb9927fb76df06bebe86bbc3e5d012102244a79d4a4ba4e215722bec2c6acab3d0475174ef1f161d6387281dfd744724bffffffff02c0d401000000000017a914738f0d5e2e90d11bc7c761f2a360af9247731f828751030f00000000001976a9147711eab6ffcc99e4376ac39f4022de413e1ea2a988ac00000000", "vin": [{"sequence": 4294967295, "scriptSig": {"hex": "47304402201f9ae6c8e297af1ebd0dd2121e59f29ee0b2c30279dc8bfc9b0a24ba08904d1c022071c2f8829c06fc1719596268f120358e684acdb9927fb76df06bebe86bbc3e5d012102244a79d4a4ba4e215722bec2c6acab3d0475174ef1f161d6387281dfd744724b", "asm": "304402201f9ae6c8e297af1ebd0dd2121e59f29ee0b2c30279dc8bfc9b0a24ba08904d1c022071c2f8829c06fc1719596268f120358e684acdb9927fb76df06bebe86bbc3e5d[ALL] 02244a79d4a4ba4e215722bec2c6acab3d0475174ef1f161d6387281dfd744724b"}, "vout": 8, "txid": "9f6fd5b90f430dc327a2190e40f62e34a14bc2778692dc0b0aa8b55304aa3e6b"}], "txid": "26f3953e1e644c5e702b8a997f019dbc92d3a187759dc158a053dd797cab14ea", "blocktime": 1537872475, "version": 2, "confirmations": 11486, "time": 1537872475, "locktime": 0, "vsize": 223, "size": 223}