{"hash": "26f6bd56213fb4c6db1da6cf52295f6314ee7e5d39d203a2b163bc5755e3e038", "blockhash": "0000000000000000001f76057863aec43deb6fa401d9628bb513d65a8098bfab", "vout": [{"scriptPubKey": {"reqSigs": 1, "hex": "76a914c71949f20d4c89ac591011913c8f272ab393ee8888ac", "addresses": ["1K9jmGuradLxSqKvD4oz9WioEfQD7UXu4y"], "asm": "OP_DUP OP_HASH160 c71949f20d4c89ac591011913c8f272ab393ee88 OP_EQUALVERIFY OP_CHECKSIG", "type": "pubkeyhash"}, "value": 0.001256, "n": 0}, {"scriptPubKey": {"reqSigs": 1, "hex": "76a9148c0582bdac11f7ef345832b235876f8bc5c75f0588ac", "addresses": ["1DmNCkKUQDv69C5YptEcZDoq8PJ9eGDmxd"], "asm": "OP_DUP OP_HASH160 8c0582bdac11f7ef345832b235876f8bc5c75f05 OP_EQUALVERIFY OP_CHECKSIG", "type": "pubkeyhash"}, "value": 0.00137121, "n": 1}], "hex": "010000000138805b834c6d96a4552b1fca6a3e6a4f7af9e331e867d5957b8db2e891e0cb3c000000006a473044022043b516b610fba8e5b3b26924dc8efd8e266405ce8149610c958ae661d7e1d0c90220602e58474dd869c10191e7befb2c164f70726eb1eafc40cb46f85f4282563c37012102d6e66b4588861089e3da7d14bd1012c97932b6a5eb99b787d2e05343b6b7de6cffffffff02a0ea0100000000001976a914c71949f20d4c89ac591011913c8f272ab393ee8888aca1170200000000001976a9148c0582bdac11f7ef345832b235876f8bc5c75f0588ac00000000", "vin": [{"sequence": 4294967295, "scriptSig": {"hex": "473044022043b516b610fba8e5b3b26924dc8efd8e266405ce8149610c958ae661d7e1d0c90220602e58474dd869c10191e7befb2c164f70726eb1eafc40cb46f85f4282563c37012102d6e66b4588861089e3da7d14bd1012c97932b6a5eb99b787d2e05343b6b7de6c", "asm": "3044022043b516b610fba8e5b3b26924dc8efd8e266405ce8149610c958ae661d7e1d0c90220602e58474dd869c10191e7befb2c164f70726eb1eafc40cb46f85f4282563c37[ALL] 02d6e66b4588861089e3da7d14bd1012c97932b6a5eb99b787d2e05343b6b7de6c"}, "vout": 0, "txid": "3ccbe091e8b28d7b95d567e831e3f97a4f6a3e6aca1f2b55a4966d4c835b8038"}], "txid": "26f6bd56213fb4c6db1da6cf52295f6314ee7e5d39d203a2b163bc5755e3e038", "blocktime": 1537873891, "version": 1, "confirmations": 11478, "time": 1537873891, "locktime": 0, "vsize": 225, "size": 225}