{"hash": "2706e7023f49b2f68579bc9e171fc58b2375d89863f8dd0d51bbfad282949312", "blockhash": "00000000000000000018f53835495a110e01622372bf6ae95dc86f2b0ab887b0", "vout": [{"scriptPubKey": {"type": "nulldata", "hex": "6a146f6d6e69000000000000001f0000003c977401c0", "asm": "OP_RETURN 6f6d6e69000000000000001f0000003c977401c0"}, "value": 0.0, "n": 0}, {"scriptPubKey": {"reqSigs": 1, "hex": "76a914e4e36895fa1832d3be52daca39202f1a33ae32a988ac", "addresses": ["1MsFVMrfgZzkZJqqkWshH9YnwHKyqKpGiT"], "asm": "OP_DUP OP_HASH160 e4e36895fa1832d3be52daca39202f1a33ae32a9 OP_EQUALVERIFY OP_CHECKSIG", "type": "pubkeyhash"}, "value": 5.46e-06, "n": 1}, {"scriptPubKey": {"reqSigs": 1, "hex": "76a914ca6403bf1afa4d85bd6da313affa8a5cafb7fd5588ac", "addresses": ["1KT9JtXZnXcMmZ9UGZCVZVdDw6qMsqLLkY"], "asm": "OP_DUP OP_HASH160 ca6403bf1afa4d85bd6da313affa8a5cafb7fd55 OP_EQUALVERIFY OP_CHECKSIG", "type": "pubkeyhash"}, "value": 0.00015915, "n": 2}], "hex": "01000000014683c93f70d383aceebf3a90bf09effe7db54bdd5685f116a102563cef9df2ad010000006b48304502210097ddd1ee07619d773ab93b9a27082008f83479a24bbaea05e7f3f20aa58bf20502201647190e8bf45c5371e451279bd6f5dcc0fab994f3ea64d57aec201ec4009dec01210324f35cf245806dacda6ab2b296e2bfa4a1a486dfa30b607f2db7a117be9a03bcfeffffff030000000000000000166a146f6d6e69000000000000001f0000003c977401c022020000000000001976a914e4e36895fa1832d3be52daca39202f1a33ae32a988ac2b3e0000000000001976a914ca6403bf1afa4d85bd6da313affa8a5cafb7fd5588ac0e490800", "vin": [{"sequence": 4294967294, "scriptSig": {"hex": "48304502210097ddd1ee07619d773ab93b9a27082008f83479a24bbaea05e7f3f20aa58bf20502201647190e8bf45c5371e451279bd6f5dcc0fab994f3ea64d57aec201ec4009dec01210324f35cf245806dacda6ab2b296e2bfa4a1a486dfa30b607f2db7a117be9a03bc", "asm": "304502210097ddd1ee07619d773ab93b9a27082008f83479a24bbaea05e7f3f20aa58bf20502201647190e8bf45c5371e451279bd6f5dcc0fab994f3ea64d57aec201ec4009dec[ALL] 0324f35cf245806dacda6ab2b296e2bfa4a1a486dfa30b607f2db7a117be9a03bc"}, "vout": 1, "txid": "adf29def3c5602a116f18556dd4bb57dfeef09bf903abfeeac83d3703fc98346"}], "txid": "2706e7023f49b2f68579bc9e171fc58b2375d89863f8dd0d51bbfad282949312", "blocktime": 1537870928, "version": 1, "confirmations": 11512, "time": 1537870928, "locktime": 542990, "vsize": 257, "size": 257}