{"hash": "b22a52cd781ed409bf5b946a79cce8971e76e40670b56bb7864572ffbfc60474", "blockhash": "0000000000000000001cda96e906b7601b7a6fb1a3b62bca570a9e5d8f4b3de1", "vout": [{"scriptPubKey": {"reqSigs": 1, "hex": "76a914a6b4cef82406fc6f0816684a8ed545b231cd14e688ac", "addresses": ["1GCTmdwNQxCrVyWweqXtzEBc7aPoX24KEE"], "asm": "OP_DUP OP_HASH160 a6b4cef82406fc6f0816684a8ed545b231cd14e6 OP_EQUALVERIFY OP_CHECKSIG", "type": "pubkeyhash"}, "value": 0.04221441, "n": 0}, {"scriptPubKey": {"reqSigs": 1, "hex": "0014c772f8132dc489798b704fe6b8ffa1e094fdf1cf", "addresses": ["bc1qcae0syedcjyhnzmsflnt3lapuz20muw0a5all6"], "asm": "0 c772f8132dc489798b704fe6b8ffa1e094fdf1cf", "type": "witness_v0_keyhash"}, "value": 0.00318141, "n": 1}], "hex": "010000000001019de30c619e5abec9cd5e9fbb13c5972a127706e914749dc8e808515bd9e30ca7000000001716001445c31d652c6122408d735b22b076d17f244ef64cffffffff02016a4000000000001976a914a6b4cef82406fc6f0816684a8ed545b231cd14e688acbdda040000000000160014c772f8132dc489798b704fe6b8ffa1e094fdf1cf02473044022014ea23c4af91269dcd6c264afa825dea8ce334b085351f56e11cebfb562dc84e02205aef9065ac9d69f81a78c8b4263f28c8f3ae1e70bba854416c71a3375bd4936b01210398fe457057f0d1240a2cacd8638584cfcc07e1ea420ceb16d4954cc9f4dde1a900000000", "vin": [{"txinwitness": ["3044022014ea23c4af91269dcd6c264afa825dea8ce334b085351f56e11cebfb562dc84e02205aef9065ac9d69f81a78c8b4263f28c8f3ae1e70bba854416c71a3375bd4936b01", "0398fe457057f0d1240a2cacd8638584cfcc07e1ea420ceb16d4954cc9f4dde1a9"], "sequence": 4294967295, "scriptSig": {"hex": "16001445c31d652c6122408d735b22b076d17f244ef64c", "asm": "001445c31d652c6122408d735b22b076d17f244ef64c"}, "vout": 0, "txid": "a70ce3d95b5108e8c89d7414e90677122a97c513bb9f5ecdc9be5a9e610ce39d"}], "txid": "270ee02c2e36cd322a8594e472f5674fcfcde81d236017087ab65d53ac4ad2e2", "blocktime": 1537873282, "version": 1, "confirmations": 11484, "time": 1537873282, "locktime": 0, "vsize": 167, "size": 248}