{"hash": "270ff2d77baf1c59b45b6f757608607c713bcd8398bac71f434d5e2166639c11", "blockhash": "0000000000000000000e13cef7c366c0283d82e591d1acd082e914b08063cdf1", "vout": [{"scriptPubKey": {"reqSigs": 1, "hex": "a9141e7d13f470f8ebdef19c679eddf11ead1dc7b44287", "addresses": ["34UE2sEUt44paicbAUzEScSbw7CNy1Snqf"], "asm": "OP_HASH160 1e7d13f470f8ebdef19c679eddf11ead1dc7b442 OP_EQUAL", "type": "scripthash"}, "value": 0.00805779, "n": 0}, {"scriptPubKey": {"reqSigs": 1, "hex": "a914354e93fd8fd2bfb5039fae0926da88b40e00325587", "addresses": ["36YssQrHvTDiURtjwoRfmewk3Tworrtyqc"], "asm": "OP_HASH160 354e93fd8fd2bfb5039fae0926da88b40e003255 OP_EQUAL", "type": "scripthash"}, "value": 0.03081687, "n": 1}, {"scriptPubKey": {"reqSigs": 1, "hex": "76a9148f3d15c669fff4729091b47f36202776a3d6db6c88ac", "addresses": ["1E4NohNVLPFn1UM8tyqsi6RjkbFvYJKupx"], "asm": "OP_DUP OP_HASH160 8f3d15c669fff4729091b47f36202776a3d6db6c OP_EQUALVERIFY OP_CHECKSIG", "type": "pubkeyhash"}, "value": 8.636e-05, "n": 2}], "hex": "0100000002b8c91228ce8b1bce0ef3786fa2037f2e2bbd8aa216b8b214967c6bfbc6d9a06900000000d900473044022051ca06f1c3c71dee0fe42d994952675512402ac52d8962e42f7bcc16d25523f602205da4df6479803118e8a9513a54a754c207e5be48d771891a8edc594c6898e18d0147304402203183175a604c48408cde27b0c87223d464b5558195125ef8b6c25fb320ba55b60220596bdf093cccb591dd3a934560be932b864a4e2679d37ba493191389fe37c5e50147522102907a54bed8ad74b3f35638c60114ca240a308cb986f3f2f306178869a8880b612102cb2e86af286ff94a298d0e617a1111a8e96c9dc16507bd0aae937268a87b10c052aeffffffff7ba7d90fa5fc0c0cc4c29bf6cf4572fd32a5d54515ebc5f6f98b453c580af822010000006b483045022100fd29a1fe0f8af3aae38c8ca68a8dbd4d15f007dd871f92fd85016289479b13780220428d42d98145c38176199855d560496bf6b237924f33fad6c7bf6484a2a1aad1012103d9fcba6dca6302559f9f73fa4c55f73ce8425c7f5da5c51d529846e921fa6aabffffffff03934b0c000000000017a9141e7d13f470f8ebdef19c679eddf11ead1dc7b44287d7052f000000000017a914354e93fd8fd2bfb5039fae0926da88b40e00325587bc210000000000001976a9148f3d15c669fff4729091b47f36202776a3d6db6c88ac00000000", "vin": [{"sequence": 4294967295, "scriptSig": {"hex": "00473044022051ca06f1c3c71dee0fe42d994952675512402ac52d8962e42f7bcc16d25523f602205da4df6479803118e8a9513a54a754c207e5be48d771891a8edc594c6898e18d0147304402203183175a604c48408cde27b0c87223d464b5558195125ef8b6c25fb320ba55b60220596bdf093cccb591dd3a934560be932b864a4e2679d37ba493191389fe37c5e50147522102907a54bed8ad74b3f35638c60114ca240a308cb986f3f2f306178869a8880b612102cb2e86af286ff94a298d0e617a1111a8e96c9dc16507bd0aae937268a87b10c052ae", "asm": "0 3044022051ca06f1c3c71dee0fe42d994952675512402ac52d8962e42f7bcc16d25523f602205da4df6479803118e8a9513a54a754c207e5be48d771891a8edc594c6898e18d[ALL] 304402203183175a604c48408cde27b0c87223d464b5558195125ef8b6c25fb320ba55b60220596bdf093cccb591dd3a934560be932b864a4e2679d37ba493191389fe37c5e5[ALL] 522102907a54bed8ad74b3f35638c60114ca240a308cb986f3f2f306178869a8880b612102cb2e86af286ff94a298d0e617a1111a8e96c9dc16507bd0aae937268a87b10c052ae"}, "vout": 0, "txid": "69a0d9c6fb6b7c9614b2b816a28abd2b2e7f03a26f78f30ece1b8bce2812c9b8"}, {"sequence": 4294967295, "scriptSig": {"hex": "483045022100fd29a1fe0f8af3aae38c8ca68a8dbd4d15f007dd871f92fd85016289479b13780220428d42d98145c38176199855d560496bf6b237924f33fad6c7bf6484a2a1aad1012103d9fcba6dca6302559f9f73fa4c55f73ce8425c7f5da5c51d529846e921fa6aab", "asm": "3045022100fd29a1fe0f8af3aae38c8ca68a8dbd4d15f007dd871f92fd85016289479b13780220428d42d98145c38176199855d560496bf6b237924f33fad6c7bf6484a2a1aad1[ALL] 03d9fcba6dca6302559f9f73fa4c55f73ce8425c7f5da5c51d529846e921fa6aab"}, "vout": 1, "txid": "22f80a583c458bf9f6c5eb1545d5a532fd7245cff69bc2c40c0cfca50fd9a77b"}], "txid": "270ff2d77baf1c59b45b6f757608607c713bcd8398bac71f434d5e2166639c11", "blocktime": 1537871767, "version": 1, "confirmations": 11494, "time": 1537871767, "locktime": 0, "vsize": 514, "size": 514}