{"hash": "270fa47b0ede585e5477c921d604125ade8fc97aca04cba420f41bc1fd334b71", "blockhash": "0000000000000000000e13cef7c366c0283d82e591d1acd082e914b08063cdf1", "vout": [{"scriptPubKey": {"reqSigs": 1, "hex": "76a914e315719f2b9fdb672a0ebc8f90c71c34af5af19e88ac", "addresses": ["1Mhi5VNwfcU6ehAmCZjoR4gWa1HsLzTVvZ"], "asm": "OP_DUP OP_HASH160 e315719f2b9fdb672a0ebc8f90c71c34af5af19e OP_EQUALVERIFY OP_CHECKSIG", "type": "pubkeyhash"}, "value": 0.00175168, "n": 0}, {"scriptPubKey": {"reqSigs": 1, "hex": "76a914401f0b581ae495f9870b33f01fe268b8b379536b88ac", "addresses": ["16r3SGtBzmDccCJEwusYfPATK6BvsD1kJT"], "asm": "OP_DUP OP_HASH160 401f0b581ae495f9870b33f01fe268b8b379536b OP_EQUALVERIFY OP_CHECKSIG", "type": "pubkeyhash"}, "value": 0.01922179, "n": 1}], "hex": "01000000011feae172b79298366dbfa901b1d1721bb4c4fd395054bf0ec081bc7f1ecc64b9010000006b483045022100fa8f01824040e65754bd7ee238e3fa769acadcfc683eccabe872eb182afaca2b0220096f3bd1b5b0e578bdd23dbaa73de33a3163a16e20fc77c21aaf33b569998362012103e88d396bf7bbe44dd82d786e0c4e55aa2da5b4cd2afaa4c784b6085683605836ffffffff0240ac0200000000001976a914e315719f2b9fdb672a0ebc8f90c71c34af5af19e88ac83541d00000000001976a914401f0b581ae495f9870b33f01fe268b8b379536b88ac00000000", "vin": [{"sequence": 4294967295, "scriptSig": {"hex": "483045022100fa8f01824040e65754bd7ee238e3fa769acadcfc683eccabe872eb182afaca2b0220096f3bd1b5b0e578bdd23dbaa73de33a3163a16e20fc77c21aaf33b569998362012103e88d396bf7bbe44dd82d786e0c4e55aa2da5b4cd2afaa4c784b6085683605836", "asm": "3045022100fa8f01824040e65754bd7ee238e3fa769acadcfc683eccabe872eb182afaca2b0220096f3bd1b5b0e578bdd23dbaa73de33a3163a16e20fc77c21aaf33b569998362[ALL] 03e88d396bf7bbe44dd82d786e0c4e55aa2da5b4cd2afaa4c784b6085683605836"}, "vout": 1, "txid": "b964cc1e7fbc81c00ebf545039fdc4b41b72d1b101a9bf6d369892b772e1ea1f"}], "txid": "270fa47b0ede585e5477c921d604125ade8fc97aca04cba420f41bc1fd334b71", "blocktime": 1537871767, "version": 1, "confirmations": 11495, "time": 1537871767, "locktime": 0, "vsize": 226, "size": 226}