{"hash": "271d2f6e57280226e8ccaa840a66a0e45856cb8734bc93531cbac762d446d17f", "blockhash": "00000000000000000024a2167bbff67b0be802c0b01cdd79e6331c2be6459f87", "vout": [{"scriptPubKey": {"reqSigs": 1, "hex": "a914f7a6fd4a1188696ef04675709715cf785f211ad087", "addresses": ["3QGUsZ4WEHRLVciKyL6VViiNHdyLQEbFan"], "asm": "OP_HASH160 f7a6fd4a1188696ef04675709715cf785f211ad0 OP_EQUAL", "type": "scripthash"}, "value": 0.00356, "n": 0}, {"scriptPubKey": {"reqSigs": 1, "hex": "76a914b92dfcec089be5ca7c613cf2d6fc1cb29d65291d88ac", "addresses": ["1Ht96nn4mT7zDnjCQ3eNq1PWaUeqqFVucY"], "asm": "OP_DUP OP_HASH160 b92dfcec089be5ca7c613cf2d6fc1cb29d65291d OP_EQUALVERIFY OP_CHECKSIG", "type": "pubkeyhash"}, "value": 0.04824899, "n": 1}], "hex": "0100000001a3397044788a7e4511e48f66be78ee12c71875d374131458b0b3c0533b3d4568010000006b483045022100a0aab7e60c90f9f254dcd21f0a70029184d521b8aee974b54a22de30ac08dab3022036dacb0a2a3d41a6ce702c65ee6b5fd9636d5c8e345eae2ee3aa3c8c32f3e4530121027e31a667c35e56c58e4dbc4948bffd844efb2c64a5739f871e75bc5484ad0e22ffffffff02a06e05000000000017a914f7a6fd4a1188696ef04675709715cf785f211ad087439f4900000000001976a914b92dfcec089be5ca7c613cf2d6fc1cb29d65291d88ac00000000", "vin": [{"sequence": 4294967295, "scriptSig": {"hex": "483045022100a0aab7e60c90f9f254dcd21f0a70029184d521b8aee974b54a22de30ac08dab3022036dacb0a2a3d41a6ce702c65ee6b5fd9636d5c8e345eae2ee3aa3c8c32f3e4530121027e31a667c35e56c58e4dbc4948bffd844efb2c64a5739f871e75bc5484ad0e22", "asm": "3045022100a0aab7e60c90f9f254dcd21f0a70029184d521b8aee974b54a22de30ac08dab3022036dacb0a2a3d41a6ce702c65ee6b5fd9636d5c8e345eae2ee3aa3c8c32f3e453[ALL] 027e31a667c35e56c58e4dbc4948bffd844efb2c64a5739f871e75bc5484ad0e22"}, "vout": 1, "txid": "68453d3b53c0b3b058141374d37518c712ee78be668fe411457e8a78447039a3"}], "txid": "271d2f6e57280226e8ccaa840a66a0e45856cb8734bc93531cbac762d446d17f", "blocktime": 1537870564, "version": 1, "confirmations": 11515, "time": 1537870564, "locktime": 0, "vsize": 224, "size": 224}