{"hash": "272275c6c21b1b9a22d691fe8a7740a4ffe0563e3ceaf064850ec9eb7809e2bc", "blockhash": "0000000000000000001f76057863aec43deb6fa401d9628bb513d65a8098bfab", "vout": [{"scriptPubKey": {"reqSigs": 1, "hex": "76a914f7e8568ce89068dfa949797d1c0fbc342ced54bb88ac", "addresses": ["1PbpEWty2uLkijSJMfna3mu9LPAWnjpEA7"], "asm": "OP_DUP OP_HASH160 f7e8568ce89068dfa949797d1c0fbc342ced54bb OP_EQUALVERIFY OP_CHECKSIG", "type": "pubkeyhash"}, "value": 0.00243783, "n": 0}, {"scriptPubKey": {"reqSigs": 1, "hex": "76a914852ea35f071813ecf9751abe65049de61cbf8c5788ac", "addresses": ["1D9CjzS6u5ArSoEGqkqUEz4j55iA3rsFCL"], "asm": "OP_DUP OP_HASH160 852ea35f071813ecf9751abe65049de61cbf8c57 OP_EQUALVERIFY OP_CHECKSIG", "type": "pubkeyhash"}, "value": 0.11226806, "n": 1}], "hex": "020000000118b40da593f0d3fb70dc5cce7114521ecc40f6d5cd0e9d19cb3f761b73ca07ed010000006a47304402200242f42a552944bcafac4f29d0594e153165cd6d709aa7b752e539bbb3dc786f02206b8841bee8dca5c51ea620d4990f45713a7b6597f071dc0677036f39e2d54820012103ad9345c23921567f0abf3339bb67fe7dde30c759d2837f65e6d4230853bddca5ffffffff0247b80300000000001976a914f7e8568ce89068dfa949797d1c0fbc342ced54bb88acb64eab00000000001976a914852ea35f071813ecf9751abe65049de61cbf8c5788ac00000000", "vin": [{"sequence": 4294967295, "scriptSig": {"hex": "47304402200242f42a552944bcafac4f29d0594e153165cd6d709aa7b752e539bbb3dc786f02206b8841bee8dca5c51ea620d4990f45713a7b6597f071dc0677036f39e2d54820012103ad9345c23921567f0abf3339bb67fe7dde30c759d2837f65e6d4230853bddca5", "asm": "304402200242f42a552944bcafac4f29d0594e153165cd6d709aa7b752e539bbb3dc786f02206b8841bee8dca5c51ea620d4990f45713a7b6597f071dc0677036f39e2d54820[ALL] 03ad9345c23921567f0abf3339bb67fe7dde30c759d2837f65e6d4230853bddca5"}, "vout": 1, "txid": "ed07ca731b763fcb199d0ecdd5f640cc1e521471ce5cdc70fbd3f093a50db418"}], "txid": "272275c6c21b1b9a22d691fe8a7740a4ffe0563e3ceaf064850ec9eb7809e2bc", "blocktime": 1537873891, "version": 2, "confirmations": 11478, "time": 1537873891, "locktime": 0, "vsize": 225, "size": 225}