{"hash": "257fc4aa15d190d4bf20ec6dc578c99e7b3680b6eaf06d82de882fe53f1824f6", "blockhash": "00000000000000000024a2167bbff67b0be802c0b01cdd79e6331c2be6459f87", "vout": [{"scriptPubKey": {"reqSigs": 1, "hex": "76a91491aee28c9937c06710c6a7b534db73c723b334bf88ac", "addresses": ["1EHJV33n5vAZSxNVmSi6YVKEt3nKekLMDs"], "asm": "OP_DUP OP_HASH160 91aee28c9937c06710c6a7b534db73c723b334bf OP_EQUALVERIFY OP_CHECKSIG", "type": "pubkeyhash"}, "value": 0.000665, "n": 0}, {"scriptPubKey": {"reqSigs": 1, "hex": "a914627aa52932456d89054bd84f86246af3b71b93a887", "addresses": ["3Afj4stdiLG9EktGrMbm252ySonnhYaz8v"], "asm": "OP_HASH160 627aa52932456d89054bd84f86246af3b71b93a8 OP_EQUAL", "type": "scripthash"}, "value": 0.50286887, "n": 1}], "hex": "01000000000101454f158b67d667dcfd192766416188cb136326e3140d1acb7e8288944ca1a09a01000000232200205fdd641234b13964b223bd85ad2a4a667ca2099df3d42a1d3b45706a8d81abf0ffffffff02c4030100000000001976a91491aee28c9937c06710c6a7b534db73c723b334bf88ac2751ff020000000017a914627aa52932456d89054bd84f86246af3b71b93a8870400483045022100f63c0ccd4eba3d7a2964b92d223a8abd06cb76e790f1a0cb8fbba78251c63ac6022047e5966ae93a93edb1aea6aa57a5db71658d5d4d56fd288df5880017df09300a0147304402206ee1d2ad95567fe93f98d41a146407ff5edfa949715d0d4eeadc9f67f02c10550220533cf495a8f33658822571b3f5994dd12518bfb00070beba003b5c3d96b3e4b60147522103dcde3832fa56def7b4e783faad1b8af85c3cdd74a5ff4f3c7c216b1075c18da12103c70ae8ded79be1afda73b9ce5ea14a3878908ee160d66a9a717e792bb6db276952ae00000000", "vin": [{"txinwitness": ["", "3045022100f63c0ccd4eba3d7a2964b92d223a8abd06cb76e790f1a0cb8fbba78251c63ac6022047e5966ae93a93edb1aea6aa57a5db71658d5d4d56fd288df5880017df09300a01", "304402206ee1d2ad95567fe93f98d41a146407ff5edfa949715d0d4eeadc9f67f02c10550220533cf495a8f33658822571b3f5994dd12518bfb00070beba003b5c3d96b3e4b601", "522103dcde3832fa56def7b4e783faad1b8af85c3cdd74a5ff4f3c7c216b1075c18da12103c70ae8ded79be1afda73b9ce5ea14a3878908ee160d66a9a717e792bb6db276952ae"], "sequence": 4294967295, "scriptSig": {"hex": "2200205fdd641234b13964b223bd85ad2a4a667ca2099df3d42a1d3b45706a8d81abf0", "asm": "00205fdd641234b13964b223bd85ad2a4a667ca2099df3d42a1d3b45706a8d81abf0"}, "vout": 1, "txid": "9aa0a14c9488827ecb1a0d14e3266313cb886141662719fddc67d6678b154f45"}], "txid": "27245bcffaab6e035c23dbeebcc4db36ce12a56c169fdce02da8d452a4a561c7", "blocktime": 1537870564, "version": 1, "confirmations": 11515, "time": 1537870564, "locktime": 0, "vsize": 208, "size": 373}