{"hash": "27278a3d46de841628abf98da2dba6f6f4dffd7127c65b7f8532e2c3218a7da9", "blockhash": "00000000000000000004ffacab907a6b429b9a5745fa0b75af4234bf69dd7176", "vout": [{"scriptPubKey": {"reqSigs": 1, "hex": "76a9143f7afe24efe6e8b3665f325db1de3f431f16602988ac", "addresses": ["16neumkFzAW6xepiQhnKUXWqxQwee3eFzr"], "asm": "OP_DUP OP_HASH160 3f7afe24efe6e8b3665f325db1de3f431f166029 OP_EQUALVERIFY OP_CHECKSIG", "type": "pubkeyhash"}, "value": 0.12044424, "n": 0}, {"scriptPubKey": {"reqSigs": 1, "hex": "76a914e0f2d7fcb63a678fc7ebf902afcf9f950a57308588ac", "addresses": ["1MWRH3g2KEggLK3fzuP8mtW3ZYM1kmELX5"], "asm": "OP_DUP OP_HASH160 e0f2d7fcb63a678fc7ebf902afcf9f950a573085 OP_EQUALVERIFY OP_CHECKSIG", "type": "pubkeyhash"}, "value": 0.45163899, "n": 1}], "hex": "0100000001932f169c772c66e0a3fa55f21b709674a97f07c7360cba84752673b2a4beaae3010000006b483045022100a3cc610ab3744e7f1e4c9196ee2660a3ebb1039728895547392f9537945a4d4b02202447d0b0b609a35882e3cffd14f208ab536b53cfdc90a53b1bc41674d1b0a2450121039eec5cb4d307d864d10834e619e3f5605bf0bf2f0d3116fac99f3a41f8c570fbfeffffff0288c8b700000000001976a9143f7afe24efe6e8b3665f325db1de3f431f16602988ac7b25b102000000001976a914e0f2d7fcb63a678fc7ebf902afcf9f950a57308588ac16490800", "vin": [{"sequence": 4294967294, "scriptSig": {"hex": "483045022100a3cc610ab3744e7f1e4c9196ee2660a3ebb1039728895547392f9537945a4d4b02202447d0b0b609a35882e3cffd14f208ab536b53cfdc90a53b1bc41674d1b0a2450121039eec5cb4d307d864d10834e619e3f5605bf0bf2f0d3116fac99f3a41f8c570fb", "asm": "3045022100a3cc610ab3744e7f1e4c9196ee2660a3ebb1039728895547392f9537945a4d4b02202447d0b0b609a35882e3cffd14f208ab536b53cfdc90a53b1bc41674d1b0a245[ALL] 039eec5cb4d307d864d10834e619e3f5605bf0bf2f0d3116fac99f3a41f8c570fb"}, "vout": 1, "txid": "e3aabea4b273267584ba0c36c7077fa97496701bf255faa3e0662c779c162f93"}], "txid": "27278a3d46de841628abf98da2dba6f6f4dffd7127c65b7f8532e2c3218a7da9", "blocktime": 1537875543, "version": 1, "confirmations": 11464, "time": 1537875543, "locktime": 542998, "vsize": 226, "size": 226}