{"hash": "27278b791249db3d51f751ca761571a7aabbe8d7176ceb0d406e1b32ca404c71", "blockhash": "000000000000000000022b45ed06c6f4ccd3cf7fb5ba4856ebd2e58215665228", "vout": [{"scriptPubKey": {"type": "nulldata", "hex": "6a146f6d6e69000000000000001f00000113bdc7e300", "asm": "OP_RETURN 6f6d6e69000000000000001f00000113bdc7e300"}, "value": 0.0, "n": 0}, {"scriptPubKey": {"reqSigs": 1, "hex": "76a914a25dec4d0011064ef106a983c39c7a540699f22088ac", "addresses": ["1FoWyxwPXuj4C6abqwhjDWdz6D4PZgYRjA"], "asm": "OP_DUP OP_HASH160 a25dec4d0011064ef106a983c39c7a540699f220 OP_EQUALVERIFY OP_CHECKSIG", "type": "pubkeyhash"}, "value": 5.46e-06, "n": 1}, {"scriptPubKey": {"reqSigs": 1, "hex": "76a914538f7424bc7b1c136aaf2220bc15d4b082724ef888ac", "addresses": ["18cpwG1PWSyCqVCa9k3M6AuVuNVQpCzNCK"], "asm": "OP_DUP OP_HASH160 538f7424bc7b1c136aaf2220bc15d4b082724ef8 OP_EQUALVERIFY OP_CHECKSIG", "type": "pubkeyhash"}, "value": 0.00427381, "n": 2}], "hex": "010000001910a019b5602eaf32617b45b26a26d54e44873ab3d38241a6128164316655a467010000006b483045022100b4034d3be183c2ed4ac6feb38dbbdc35aef7eb1c1cfca8af3b54091274a0199d02205e72ae828c50420a0096afa28348f23471a5deaa8a51ad118201e62514bb7ed701210287fa81e0517d4a018a2de09c3c7395d1259f3e6ce7a4f2e908f194cd58c1cbaafeffffff16dca4e4290bcd64f50ed81fb54191ffc23d2147271cfc53728ad88b45292047020000006a47304402207c72bdb5d62ca574d1cb38319d870c0cc7c7bb7c2f92b5a340054975a00eb0ed02202d751d4c1a4ff2f21d3fb3ecc69600cd70ae0c0b11f72d6c3e4b0bd60e96870201210287fa81e0517d4a018a2de09c3c7395d1259f3e6ce7a4f2e908f194cd58c1cbaafeffffff1aa62c4322bf51725a2474c67076363246f7ffe24b9d015d897bf54361a6bc99020000006b483045022100a129cc707f45ee57bf91873c5b8d048445db7a9da84141b1ae289c9d307fbe38022079e1e7b60f4cd701e5fca161615b07e21c9c86da95493ec93f9a33c72758dc5501210287fa81e0517d4a018a2de09c3c7395d1259f3e6ce7a4f2e908f194cd58c1cbaafeffffff25031d681ea4193681dbdc82976696db0e5c3a55aedab7d3a930e513e4eb01ac010000006a4730440220229bdd6c3491b115e8a252f03c8a57a4e1e82911926373d785105aac2c82390a02206f4466cdb8501a559f85857480f0596c43fdf055d1027635708caca691cf4a3401210287fa81e0517d4a018a2de09c3c7395d1259f3e6ce7a4f2e908f194cd58c1cbaafeffffff2a45ba5c09a3599f9833654fdf02d0ffec45d4cdfd73ae74fe56294eb2f81f33010000006b4830450221009b3dc941f2eae7a5adf44ae7d4d6ee373db3afcf4341574a71b6799ab46ab34d0220631d62f08f32b52457bf8b4a2159ac427dae5fc13fe6f6354b9d49ae3ee75c6d01210287fa81e0517d4a018a2de09c3c7395d1259f3e6ce7a4f2e908f194cd58c1cbaafeffffff31e363a61113d5f800cf72a1425d8a841c7c51581be9a05e7d07b326e4939fc1010000006b483045022100863e6ac9f71a5c85d733b2016293ac88cf90d8f259824d7f59ba343c65a63242022073df1b48f992700e4a8ac62cf94b4ade23a7b717e660536f4684485c07f6109d01210287fa81e0517d4a018a2de09c3c7395d1259f3e6ce7a4f2e908f194cd58c1cbaafeffffff3304f5800c327f5dd998d9241df36baafd7facf306e6611d3e6e062e1666e2a4020000006b483045022100b00d9aa1cc49e47fb945dae6787c8bf2133d96ad71df7daafec16f1f7234b95702201a90611d04b8dfe1c536cd3dd4d37e93bb9dd216cd9407f08f3c39cf1177aec401210287fa81e0517d4a018a2de09c3c7395d1259f3e6ce7a4f2e908f194cd58c1cbaafeffffff33f51fe5708d2552ed11eb4e46b88cc741ab0bf1f8f05f3d37d08ff51a39d779020000006b483045022100b2f3db10b1356cac4c03d4c379451ba810b06629d836d0758b7c5997bb41ff62022040c337dabe030c7e061218b5705593b7c8c284b834f489f2ad677529c50b04cf01210287fa81e0517d4a018a2de09c3c7395d1259f3e6ce7a4f2e908f194cd58c1cbaafeffffff35ec485982d817c2dd1f50abe151cb872fbe0d7d389d10a8afd2f278f9f656fa020000006b4830450221009c4a5c52aef3d5395148c5d534572c96d24c7e38d1b33a7b0d8074a2d67ec65502206f23d61a79bc75e6f0a47edfcd79b9a449c0be3c7bfa5299dd6970b1383f84cd01210287fa81e0517d4a018a2de09c3c7395d1259f3e6ce7a4f2e908f194cd58c1cbaafeffffff3894fbdbff2acc629a30e2d5148d55777f0395768e9c3d351df12811fac4e73f020000006a473044022059814f3a3f09a34949170c9c34f6355811b7c550988b00a0bc4038b65718a73b022076ff91026f490070d63cb01934ba37773c9f2af45850d92a785651840530352f01210287fa81e0517d4a018a2de09c3c7395d1259f3e6ce7a4f2e908f194cd58c1cbaafeffffff3fb3c2908d94a245b81e07da0831851f98a1b4bb2f86244e51f514258a5ed848010000006a47304402207b25b44bc5fc47f151a6ef43b0f4c4548f8e46555eb5485afedcc8482770e4430220753ff1c5b96710b44f4c16d21d4207cfce3de956f23c3330facc78019d944b2601210287fa81e0517d4a018a2de09c3c7395d1259f3e6ce7a4f2e908f194cd58c1cbaafeffffff43a98d61c2e546d3fd7da4d6e569c747d78bb2c7f52023de5c27029ff025ea7c020000006b483045022100be1c7cb3ef4b3fbfc8f372c32ebd4f244d6cce4247e17ff1de5334a3ba90f21f022040e75b68e89627f35653fd28ff0ddb0650bd054b0d00066483c5901bec4b2bea01210287fa81e0517d4a018a2de09c3c7395d1259f3e6ce7a4f2e908f194cd58c1cbaafeffffff4696dc57b1720817bcba87b42d1e47c48ee80ef8a8c4a7238b41103b810642ac020000006a47304402204e347956d3b1f028c0e39baf70246d1314db44425058132eea32c035b0b06bbc022024b8cb271be47c6cb04432400736b17a295c8cea85189be4f65cad0880cb571a01210287fa81e0517d4a018a2de09c3c7395d1259f3e6ce7a4f2e908f194cd58c1cbaafeffffff46eb3a80ea6d825faafaf4546dd204775d483c2b34f42a522c23b84eb0abcae1020000006b483045022100f7504d9b9972666a3794d56abf59ec63f365e3420fa901539fadd3ca5680133d02207cec1a9fed73dc6f47e5ec43e6b0ea48d78ed0b9bffb5875948e91e3290a9d3e01210287fa81e0517d4a018a2de09c3c7395d1259f3e6ce7a4f2e908f194cd58c1cbaafeffffff46fe2f224467ded05d08e13ef91e34e4357b88f24756c337b67555964920591e020000006b483045022100df6999e39799f67b2f6b73ff900e4321c7ac73a16547de75d7a5606d2015105702201a8ee89d69d64a08ea0b67a22044724e987dbf85f6482779fe7a8e401945dc9501210287fa81e0517d4a018a2de09c3c7395d1259f3e6ce7a4f2e908f194cd58c1cbaafeffffff57b239de40a909a77e369618350c35decd5a2dc262c66e3ad26aa49725a7b759020000006b4830450221008eb93d5d9a1b60326234c5566e2ef992715a0473d5643b73668a66caa2d07ed8022040bade565bfc020940af02982d603892cbd90da2e0dcb89d199395765c2b68c801210287fa81e0517d4a018a2de09c3c7395d1259f3e6ce7a4f2e908f194cd58c1cbaafeffffff70d15cd1f2de35eb1c5e656feed7a24bc36133aceeb80bc98407c8bc2c7ac101010000006b4830450221008eb25b8f286208effd925412ac5642920e929172b6d568f68e5487824ded818502203bcdbe4e93815ed2a3f8ec88f991107d6da767dbefa91749439e5f053cb7320201210287fa81e0517d4a018a2de09c3c7395d1259f3e6ce7a4f2e908f194cd58c1cbaafeffffff736f8c3b9d70ecc5879a3b7e39841c65251b714050f4fc3dfb1086ce337efe80020000006b483045022100b43523cd91b9dfdae83450ed0c221d2f5f0df866fa4bebce0f1cba55311ce7e40220043be9f0d4dc1144c88660346acdc5b9258929c7057172465917b814aa750ec901210287fa81e0517d4a018a2de09c3c7395d1259f3e6ce7a4f2e908f194cd58c1cbaafeffffff830fc42524633ba4afb6a85357d5df2e802d0d1ea04bb4e946c06bcfb9f78940020000006b48304502210087d17149cddf987be47d03e65d3ea4796a9c95e13953aa1d3b7315027b88872b02201bc769b818811fad8a6b88562d4b99c3e883dc633e2f8f24cbc6ee599c56d3b101210287fa81e0517d4a018a2de09c3c7395d1259f3e6ce7a4f2e908f194cd58c1cbaafeffffff86022114265144dfc44da445260fe025610a6061c7de9747a93e06d6821189fb020000006b483045022100823a3edc70b2002aa384faa80f68fe7c1d5c8e9e52aec311932fb1407ed5434f022063a06f3c71b73d4b5e8b2aecffee70904fde3dbece84f15681ce06ee0926911301210287fa81e0517d4a018a2de09c3c7395d1259f3e6ce7a4f2e908f194cd58c1cbaafeffffff8f3558bb86a76362e080098f4a29fae7a1903df3a65d2d783f1ac391bbea4014010000006a47304402204faa19f42b7d581fed091ec0828d7fc73b2901e9603ce5cbf68b7b3db18c8482022066f89a16fed0b85d2a4e29a7af740e386e855f0b69f2a91f649579269ea36fd001210287fa81e0517d4a018a2de09c3c7395d1259f3e6ce7a4f2e908f194cd58c1cbaafeffffff938329b788a5404a47539075d92cd04a91eaf18fd33b87b776a882aabd96c847020000006b483045022100f7318375475750169ec2251a76a81fe2bb592ef582af1ed904f840276da74da8022071e517525ae850af0f808a15a907664f82d2b9a753acfd051ad97da93515b3dc01210287fa81e0517d4a018a2de09c3c7395d1259f3e6ce7a4f2e908f194cd58c1cbaafeffffff9f60e74a0b8b1a82e87ab7198e1ae51b3fbaf1fd732de7d466d5415400a9e08f020000006a4730440220202c0d350fae82b3bacb74c4fbd33fbd74cd965bcc8380c69fe3c40d19a4543d022059378159dcae122891851e0861be10ae974b5cd16605aa14616be7f4f6ecb31f01210287fa81e0517d4a018a2de09c3c7395d1259f3e6ce7a4f2e908f194cd58c1cbaafeffffffa08c02b4b11d26465b633b6fd3cdb27218bc13e6f608906f30ea4f52d3a52b99000000006b483045022100ca363ae02b0d94dc1b11d946ef735765ad656661f68b4ceba030d341be7942d3022016d6d75fb489d7cb76ee5b3788f6b1081236fa38d7795228a537cda64080203401210287fa81e0517d4a018a2de09c3c7395d1259f3e6ce7a4f2e908f194cd58c1cbaafeffffff9c2ccd49275ec54741b81c37f2067cf7144628768f29498d8a21dc96d5ff4117010000006a473044022055835de9cf6eeab736ad318c9c0e5060e43b3f77f3137f9dceafddd97e82a595022064770fcc2825b32245f4aed703dd6f41aadf09e55bc3c8d5518730c0bde6e36101210287fa81e0517d4a018a2de09c3c7395d1259f3e6ce7a4f2e908f194cd58c1cbaafeffffff030000000000000000166a146f6d6e69000000000000001f00000113bdc7e30022020000000000001976a914a25dec4d0011064ef106a983c39c7a540699f22088ac75850600000000001976a914538f7424bc7b1c136aaf2220bc15d4b082724ef888ac0b490800", "vin": [{"sequence": 4294967294, "scriptSig": {"hex": "483045022100b4034d3be183c2ed4ac6feb38dbbdc35aef7eb1c1cfca8af3b54091274a0199d02205e72ae828c50420a0096afa28348f23471a5deaa8a51ad118201e62514bb7ed701210287fa81e0517d4a018a2de09c3c7395d1259f3e6ce7a4f2e908f194cd58c1cbaa", "asm": "3045022100b4034d3be183c2ed4ac6feb38dbbdc35aef7eb1c1cfca8af3b54091274a0199d02205e72ae828c50420a0096afa28348f23471a5deaa8a51ad118201e62514bb7ed7[ALL] 0287fa81e0517d4a018a2de09c3c7395d1259f3e6ce7a4f2e908f194cd58c1cbaa"}, "vout": 1, "txid": "67a4556631648112a64182d3b33a87444ed5266ab2457b6132af2e60b519a010"}, {"sequence": 4294967294, "scriptSig": {"hex": "47304402207c72bdb5d62ca574d1cb38319d870c0cc7c7bb7c2f92b5a340054975a00eb0ed02202d751d4c1a4ff2f21d3fb3ecc69600cd70ae0c0b11f72d6c3e4b0bd60e96870201210287fa81e0517d4a018a2de09c3c7395d1259f3e6ce7a4f2e908f194cd58c1cbaa", "asm": "304402207c72bdb5d62ca574d1cb38319d870c0cc7c7bb7c2f92b5a340054975a00eb0ed02202d751d4c1a4ff2f21d3fb3ecc69600cd70ae0c0b11f72d6c3e4b0bd60e968702[ALL] 0287fa81e0517d4a018a2de09c3c7395d1259f3e6ce7a4f2e908f194cd58c1cbaa"}, "vout": 2, "txid": "472029458bd88a7253fc1c2747213dc2ff9141b51fd80ef564cd0b29e4a4dc16"}, {"sequence": 4294967294, "scriptSig": {"hex": "483045022100a129cc707f45ee57bf91873c5b8d048445db7a9da84141b1ae289c9d307fbe38022079e1e7b60f4cd701e5fca161615b07e21c9c86da95493ec93f9a33c72758dc5501210287fa81e0517d4a018a2de09c3c7395d1259f3e6ce7a4f2e908f194cd58c1cbaa", "asm": "3045022100a129cc707f45ee57bf91873c5b8d048445db7a9da84141b1ae289c9d307fbe38022079e1e7b60f4cd701e5fca161615b07e21c9c86da95493ec93f9a33c72758dc55[ALL] 0287fa81e0517d4a018a2de09c3c7395d1259f3e6ce7a4f2e908f194cd58c1cbaa"}, "vout": 2, "txid": "99bca66143f57b895d019d4be2fff74632367670c674245a7251bf22432ca61a"}, {"sequence": 4294967294, "scriptSig": {"hex": "4730440220229bdd6c3491b115e8a252f03c8a57a4e1e82911926373d785105aac2c82390a02206f4466cdb8501a559f85857480f0596c43fdf055d1027635708caca691cf4a3401210287fa81e0517d4a018a2de09c3c7395d1259f3e6ce7a4f2e908f194cd58c1cbaa", "asm": "30440220229bdd6c3491b115e8a252f03c8a57a4e1e82911926373d785105aac2c82390a02206f4466cdb8501a559f85857480f0596c43fdf055d1027635708caca691cf4a34[ALL] 0287fa81e0517d4a018a2de09c3c7395d1259f3e6ce7a4f2e908f194cd58c1cbaa"}, "vout": 1, "txid": "ac01ebe413e530a9d3b7daae553a5c0edb96669782dcdb813619a41e681d0325"}, {"sequence": 4294967294, "scriptSig": {"hex": "4830450221009b3dc941f2eae7a5adf44ae7d4d6ee373db3afcf4341574a71b6799ab46ab34d0220631d62f08f32b52457bf8b4a2159ac427dae5fc13fe6f6354b9d49ae3ee75c6d01210287fa81e0517d4a018a2de09c3c7395d1259f3e6ce7a4f2e908f194cd58c1cbaa", "asm": "30450221009b3dc941f2eae7a5adf44ae7d4d6ee373db3afcf4341574a71b6799ab46ab34d0220631d62f08f32b52457bf8b4a2159ac427dae5fc13fe6f6354b9d49ae3ee75c6d[ALL] 0287fa81e0517d4a018a2de09c3c7395d1259f3e6ce7a4f2e908f194cd58c1cbaa"}, "vout": 1, "txid": "331ff8b24e2956fe74ae73fdcdd445ecffd002df4f6533989f59a3095cba452a"}, {"sequence": 4294967294, "scriptSig": {"hex": "483045022100863e6ac9f71a5c85d733b2016293ac88cf90d8f259824d7f59ba343c65a63242022073df1b48f992700e4a8ac62cf94b4ade23a7b717e660536f4684485c07f6109d01210287fa81e0517d4a018a2de09c3c7395d1259f3e6ce7a4f2e908f194cd58c1cbaa", "asm": "3045022100863e6ac9f71a5c85d733b2016293ac88cf90d8f259824d7f59ba343c65a63242022073df1b48f992700e4a8ac62cf94b4ade23a7b717e660536f4684485c07f6109d[ALL] 0287fa81e0517d4a018a2de09c3c7395d1259f3e6ce7a4f2e908f194cd58c1cbaa"}, "vout": 1, "txid": "c19f93e426b3077d5ea0e91b58517c1c848a5d42a172cf00f8d51311a663e331"}, {"sequence": 4294967294, "scriptSig": {"hex": "483045022100b00d9aa1cc49e47fb945dae6787c8bf2133d96ad71df7daafec16f1f7234b95702201a90611d04b8dfe1c536cd3dd4d37e93bb9dd216cd9407f08f3c39cf1177aec401210287fa81e0517d4a018a2de09c3c7395d1259f3e6ce7a4f2e908f194cd58c1cbaa", "asm": "3045022100b00d9aa1cc49e47fb945dae6787c8bf2133d96ad71df7daafec16f1f7234b95702201a90611d04b8dfe1c536cd3dd4d37e93bb9dd216cd9407f08f3c39cf1177aec4[ALL] 0287fa81e0517d4a018a2de09c3c7395d1259f3e6ce7a4f2e908f194cd58c1cbaa"}, "vout": 2, "txid": "a4e266162e066e3e1d61e606f3ac7ffdaa6bf31d24d998d95d7f320c80f50433"}, {"sequence": 4294967294, "scriptSig": {"hex": "483045022100b2f3db10b1356cac4c03d4c379451ba810b06629d836d0758b7c5997bb41ff62022040c337dabe030c7e061218b5705593b7c8c284b834f489f2ad677529c50b04cf01210287fa81e0517d4a018a2de09c3c7395d1259f3e6ce7a4f2e908f194cd58c1cbaa", "asm": "3045022100b2f3db10b1356cac4c03d4c379451ba810b06629d836d0758b7c5997bb41ff62022040c337dabe030c7e061218b5705593b7c8c284b834f489f2ad677529c50b04cf[ALL] 0287fa81e0517d4a018a2de09c3c7395d1259f3e6ce7a4f2e908f194cd58c1cbaa"}, "vout": 2, "txid": "79d7391af58fd0373d5ff0f8f10bab41c78cb8464eeb11ed52258d70e51ff533"}, {"sequence": 4294967294, "scriptSig": {"hex": "4830450221009c4a5c52aef3d5395148c5d534572c96d24c7e38d1b33a7b0d8074a2d67ec65502206f23d61a79bc75e6f0a47edfcd79b9a449c0be3c7bfa5299dd6970b1383f84cd01210287fa81e0517d4a018a2de09c3c7395d1259f3e6ce7a4f2e908f194cd58c1cbaa", "asm": "30450221009c4a5c52aef3d5395148c5d534572c96d24c7e38d1b33a7b0d8074a2d67ec65502206f23d61a79bc75e6f0a47edfcd79b9a449c0be3c7bfa5299dd6970b1383f84cd[ALL] 0287fa81e0517d4a018a2de09c3c7395d1259f3e6ce7a4f2e908f194cd58c1cbaa"}, "vout": 2, "txid": "fa56f6f978f2d2afa8109d387d0dbe2f87cb51e1ab501fddc217d8825948ec35"}, {"sequence": 4294967294, "scriptSig": {"hex": "473044022059814f3a3f09a34949170c9c34f6355811b7c550988b00a0bc4038b65718a73b022076ff91026f490070d63cb01934ba37773c9f2af45850d92a785651840530352f01210287fa81e0517d4a018a2de09c3c7395d1259f3e6ce7a4f2e908f194cd58c1cbaa", "asm": "3044022059814f3a3f09a34949170c9c34f6355811b7c550988b00a0bc4038b65718a73b022076ff91026f490070d63cb01934ba37773c9f2af45850d92a785651840530352f[ALL] 0287fa81e0517d4a018a2de09c3c7395d1259f3e6ce7a4f2e908f194cd58c1cbaa"}, "vout": 2, "txid": "3fe7c4fa1128f11d353d9c8e7695037f77558d14d5e2309a62cc2affdbfb9438"}, {"sequence": 4294967294, "scriptSig": {"hex": "47304402207b25b44bc5fc47f151a6ef43b0f4c4548f8e46555eb5485afedcc8482770e4430220753ff1c5b96710b44f4c16d21d4207cfce3de956f23c3330facc78019d944b2601210287fa81e0517d4a018a2de09c3c7395d1259f3e6ce7a4f2e908f194cd58c1cbaa", "asm": "304402207b25b44bc5fc47f151a6ef43b0f4c4548f8e46555eb5485afedcc8482770e4430220753ff1c5b96710b44f4c16d21d4207cfce3de956f23c3330facc78019d944b26[ALL] 0287fa81e0517d4a018a2de09c3c7395d1259f3e6ce7a4f2e908f194cd58c1cbaa"}, "vout": 1, "txid": "48d85e8a2514f5514e24862fbbb4a1981f853108da071eb845a2948d90c2b33f"}, {"sequence": 4294967294, "scriptSig": {"hex": "483045022100be1c7cb3ef4b3fbfc8f372c32ebd4f244d6cce4247e17ff1de5334a3ba90f21f022040e75b68e89627f35653fd28ff0ddb0650bd054b0d00066483c5901bec4b2bea01210287fa81e0517d4a018a2de09c3c7395d1259f3e6ce7a4f2e908f194cd58c1cbaa", "asm": "3045022100be1c7cb3ef4b3fbfc8f372c32ebd4f244d6cce4247e17ff1de5334a3ba90f21f022040e75b68e89627f35653fd28ff0ddb0650bd054b0d00066483c5901bec4b2bea[ALL] 0287fa81e0517d4a018a2de09c3c7395d1259f3e6ce7a4f2e908f194cd58c1cbaa"}, "vout": 2, "txid": "7cea25f09f02275cde2320f5c7b28bd747c769e5d6a47dfdd346e5c2618da943"}, {"sequence": 4294967294, "scriptSig": {"hex": "47304402204e347956d3b1f028c0e39baf70246d1314db44425058132eea32c035b0b06bbc022024b8cb271be47c6cb04432400736b17a295c8cea85189be4f65cad0880cb571a01210287fa81e0517d4a018a2de09c3c7395d1259f3e6ce7a4f2e908f194cd58c1cbaa", "asm": "304402204e347956d3b1f028c0e39baf70246d1314db44425058132eea32c035b0b06bbc022024b8cb271be47c6cb04432400736b17a295c8cea85189be4f65cad0880cb571a[ALL] 0287fa81e0517d4a018a2de09c3c7395d1259f3e6ce7a4f2e908f194cd58c1cbaa"}, "vout": 2, "txid": "ac4206813b10418b23a7c4a8f80ee88ec4471e2db487babc170872b157dc9646"}, {"sequence": 4294967294, "scriptSig": {"hex": "483045022100f7504d9b9972666a3794d56abf59ec63f365e3420fa901539fadd3ca5680133d02207cec1a9fed73dc6f47e5ec43e6b0ea48d78ed0b9bffb5875948e91e3290a9d3e01210287fa81e0517d4a018a2de09c3c7395d1259f3e6ce7a4f2e908f194cd58c1cbaa", "asm": "3045022100f7504d9b9972666a3794d56abf59ec63f365e3420fa901539fadd3ca5680133d02207cec1a9fed73dc6f47e5ec43e6b0ea48d78ed0b9bffb5875948e91e3290a9d3e[ALL] 0287fa81e0517d4a018a2de09c3c7395d1259f3e6ce7a4f2e908f194cd58c1cbaa"}, "vout": 2, "txid": "e1caabb04eb8232c522af4342b3c485d7704d26d54f4faaa5f826dea803aeb46"}, {"sequence": 4294967294, "scriptSig": {"hex": "483045022100df6999e39799f67b2f6b73ff900e4321c7ac73a16547de75d7a5606d2015105702201a8ee89d69d64a08ea0b67a22044724e987dbf85f6482779fe7a8e401945dc9501210287fa81e0517d4a018a2de09c3c7395d1259f3e6ce7a4f2e908f194cd58c1cbaa", "asm": "3045022100df6999e39799f67b2f6b73ff900e4321c7ac73a16547de75d7a5606d2015105702201a8ee89d69d64a08ea0b67a22044724e987dbf85f6482779fe7a8e401945dc95[ALL] 0287fa81e0517d4a018a2de09c3c7395d1259f3e6ce7a4f2e908f194cd58c1cbaa"}, "vout": 2, "txid": "1e592049965575b637c35647f2887b35e4341ef93ee1085dd0de6744222ffe46"}, {"sequence": 4294967294, "scriptSig": {"hex": "4830450221008eb93d5d9a1b60326234c5566e2ef992715a0473d5643b73668a66caa2d07ed8022040bade565bfc020940af02982d603892cbd90da2e0dcb89d199395765c2b68c801210287fa81e0517d4a018a2de09c3c7395d1259f3e6ce7a4f2e908f194cd58c1cbaa", "asm": "30450221008eb93d5d9a1b60326234c5566e2ef992715a0473d5643b73668a66caa2d07ed8022040bade565bfc020940af02982d603892cbd90da2e0dcb89d199395765c2b68c8[ALL] 0287fa81e0517d4a018a2de09c3c7395d1259f3e6ce7a4f2e908f194cd58c1cbaa"}, "vout": 2, "txid": "59b7a72597a46ad23a6ec662c22d5acdde350c351896367ea709a940de39b257"}, {"sequence": 4294967294, "scriptSig": {"hex": "4830450221008eb25b8f286208effd925412ac5642920e929172b6d568f68e5487824ded818502203bcdbe4e93815ed2a3f8ec88f991107d6da767dbefa91749439e5f053cb7320201210287fa81e0517d4a018a2de09c3c7395d1259f3e6ce7a4f2e908f194cd58c1cbaa", "asm": "30450221008eb25b8f286208effd925412ac5642920e929172b6d568f68e5487824ded818502203bcdbe4e93815ed2a3f8ec88f991107d6da767dbefa91749439e5f053cb73202[ALL] 0287fa81e0517d4a018a2de09c3c7395d1259f3e6ce7a4f2e908f194cd58c1cbaa"}, "vout": 1, "txid": "01c17a2cbcc80784c90bb8eeac3361c34ba2d7ee6f655e1ceb35def2d15cd170"}, {"sequence": 4294967294, "scriptSig": {"hex": "483045022100b43523cd91b9dfdae83450ed0c221d2f5f0df866fa4bebce0f1cba55311ce7e40220043be9f0d4dc1144c88660346acdc5b9258929c7057172465917b814aa750ec901210287fa81e0517d4a018a2de09c3c7395d1259f3e6ce7a4f2e908f194cd58c1cbaa", "asm": "3045022100b43523cd91b9dfdae83450ed0c221d2f5f0df866fa4bebce0f1cba55311ce7e40220043be9f0d4dc1144c88660346acdc5b9258929c7057172465917b814aa750ec9[ALL] 0287fa81e0517d4a018a2de09c3c7395d1259f3e6ce7a4f2e908f194cd58c1cbaa"}, "vout": 2, "txid": "80fe7e33ce8610fb3dfcf45040711b25651c84397e3b9a87c5ec709d3b8c6f73"}, {"sequence": 4294967294, "scriptSig": {"hex": "48304502210087d17149cddf987be47d03e65d3ea4796a9c95e13953aa1d3b7315027b88872b02201bc769b818811fad8a6b88562d4b99c3e883dc633e2f8f24cbc6ee599c56d3b101210287fa81e0517d4a018a2de09c3c7395d1259f3e6ce7a4f2e908f194cd58c1cbaa", "asm": "304502210087d17149cddf987be47d03e65d3ea4796a9c95e13953aa1d3b7315027b88872b02201bc769b818811fad8a6b88562d4b99c3e883dc633e2f8f24cbc6ee599c56d3b1[ALL] 0287fa81e0517d4a018a2de09c3c7395d1259f3e6ce7a4f2e908f194cd58c1cbaa"}, "vout": 2, "txid": "4089f7b9cf6bc046e9b44ba01e0d2d802edfd55753a8b6afa43b632425c40f83"}, {"sequence": 4294967294, "scriptSig": {"hex": "483045022100823a3edc70b2002aa384faa80f68fe7c1d5c8e9e52aec311932fb1407ed5434f022063a06f3c71b73d4b5e8b2aecffee70904fde3dbece84f15681ce06ee0926911301210287fa81e0517d4a018a2de09c3c7395d1259f3e6ce7a4f2e908f194cd58c1cbaa", "asm": "3045022100823a3edc70b2002aa384faa80f68fe7c1d5c8e9e52aec311932fb1407ed5434f022063a06f3c71b73d4b5e8b2aecffee70904fde3dbece84f15681ce06ee09269113[ALL] 0287fa81e0517d4a018a2de09c3c7395d1259f3e6ce7a4f2e908f194cd58c1cbaa"}, "vout": 2, "txid": "fb891182d6063ea94797dec761600a6125e00f2645a44dc4df44512614210286"}, {"sequence": 4294967294, "scriptSig": {"hex": "47304402204faa19f42b7d581fed091ec0828d7fc73b2901e9603ce5cbf68b7b3db18c8482022066f89a16fed0b85d2a4e29a7af740e386e855f0b69f2a91f649579269ea36fd001210287fa81e0517d4a018a2de09c3c7395d1259f3e6ce7a4f2e908f194cd58c1cbaa", "asm": "304402204faa19f42b7d581fed091ec0828d7fc73b2901e9603ce5cbf68b7b3db18c8482022066f89a16fed0b85d2a4e29a7af740e386e855f0b69f2a91f649579269ea36fd0[ALL] 0287fa81e0517d4a018a2de09c3c7395d1259f3e6ce7a4f2e908f194cd58c1cbaa"}, "vout": 1, "txid": "1440eabb91c31a3f782d5da6f33d90a1e7fa294a8f0980e06263a786bb58358f"}, {"sequence": 4294967294, "scriptSig": {"hex": "483045022100f7318375475750169ec2251a76a81fe2bb592ef582af1ed904f840276da74da8022071e517525ae850af0f808a15a907664f82d2b9a753acfd051ad97da93515b3dc01210287fa81e0517d4a018a2de09c3c7395d1259f3e6ce7a4f2e908f194cd58c1cbaa", "asm": "3045022100f7318375475750169ec2251a76a81fe2bb592ef582af1ed904f840276da74da8022071e517525ae850af0f808a15a907664f82d2b9a753acfd051ad97da93515b3dc[ALL] 0287fa81e0517d4a018a2de09c3c7395d1259f3e6ce7a4f2e908f194cd58c1cbaa"}, "vout": 2, "txid": "47c896bdaa82a876b7873bd38ff1ea914ad02cd9759053474a40a588b7298393"}, {"sequence": 4294967294, "scriptSig": {"hex": "4730440220202c0d350fae82b3bacb74c4fbd33fbd74cd965bcc8380c69fe3c40d19a4543d022059378159dcae122891851e0861be10ae974b5cd16605aa14616be7f4f6ecb31f01210287fa81e0517d4a018a2de09c3c7395d1259f3e6ce7a4f2e908f194cd58c1cbaa", "asm": "30440220202c0d350fae82b3bacb74c4fbd33fbd74cd965bcc8380c69fe3c40d19a4543d022059378159dcae122891851e0861be10ae974b5cd16605aa14616be7f4f6ecb31f[ALL] 0287fa81e0517d4a018a2de09c3c7395d1259f3e6ce7a4f2e908f194cd58c1cbaa"}, "vout": 2, "txid": "8fe0a9005441d566d4e72d73fdf1ba3f1be51a8e19b77ae8821a8b0b4ae7609f"}, {"sequence": 4294967294, "scriptSig": {"hex": "483045022100ca363ae02b0d94dc1b11d946ef735765ad656661f68b4ceba030d341be7942d3022016d6d75fb489d7cb76ee5b3788f6b1081236fa38d7795228a537cda64080203401210287fa81e0517d4a018a2de09c3c7395d1259f3e6ce7a4f2e908f194cd58c1cbaa", "asm": "3045022100ca363ae02b0d94dc1b11d946ef735765ad656661f68b4ceba030d341be7942d3022016d6d75fb489d7cb76ee5b3788f6b1081236fa38d7795228a537cda640802034[ALL] 0287fa81e0517d4a018a2de09c3c7395d1259f3e6ce7a4f2e908f194cd58c1cbaa"}, "vout": 0, "txid": "992ba5d3524fea306f9008f6e613bc1872b2cdd36f3b635b46261db1b4028ca0"}, {"sequence": 4294967294, "scriptSig": {"hex": "473044022055835de9cf6eeab736ad318c9c0e5060e43b3f77f3137f9dceafddd97e82a595022064770fcc2825b32245f4aed703dd6f41aadf09e55bc3c8d5518730c0bde6e36101210287fa81e0517d4a018a2de09c3c7395d1259f3e6ce7a4f2e908f194cd58c1cbaa", "asm": "3044022055835de9cf6eeab736ad318c9c0e5060e43b3f77f3137f9dceafddd97e82a595022064770fcc2825b32245f4aed703dd6f41aadf09e55bc3c8d5518730c0bde6e361[ALL] 0287fa81e0517d4a018a2de09c3c7395d1259f3e6ce7a4f2e908f194cd58c1cbaa"}, "vout": 1, "txid": "1741ffd596dc218a8d49298f76284614f77c06f2371cb84147c55e2749cd2c9c"}], "txid": "27278b791249db3d51f751ca761571a7aabbe8d7176ceb0d406e1b32ca404c71", "blocktime": 1537869901, "version": 1, "confirmations": 11524, "time": 1537869901, "locktime": 542987, "vsize": 3801, "size": 3801}