{"hash": "92941473f5bcc4fd7f684f532dac29f1636a19e8895ccf9571f30acec3ccfaf2", "blockhash": "0000000000000000000baef3f32e3676a92c3b2e5da21b426e4f302fc371ce76", "vout": [{"scriptPubKey": {"reqSigs": 1, "hex": "a914f72a12a7286f93d3afd4ff9ba3ba5d42945cc18487", "addresses": ["3QDuECXrzV7S3Yf52NGpN6hd8QJcGUAtQM"], "asm": "OP_HASH160 f72a12a7286f93d3afd4ff9ba3ba5d42945cc184 OP_EQUAL", "type": "scripthash"}, "value": 0.0529488, "n": 0}, {"scriptPubKey": {"reqSigs": 1, "hex": "a914fba1f4089d5ab71eed8daa9c92787f9e725c62d387", "addresses": ["3QdXYQK1FuDitA8EJC6HWeJ1jPNyCb8e57"], "asm": "OP_HASH160 fba1f4089d5ab71eed8daa9c92787f9e725c62d3 OP_EQUAL", "type": "scripthash"}, "value": 0.01288464, "n": 1}], "hex": "02000000000103cf910958c7a1f0c04b6d355207ccbf4f0750504b598e4595431733af85cf671e0000000017160014d50354126f6e79c4fd69cc2a424c01b14fbc8db1feffffffddb30d49d6b92d618228410c44170daa65d612849c4adffd9a6fce2c80ba6a4d0100000017160014eca61a54c97519311bcd65434d0d5421e528aa94feffffffde037bad3d0bc8e51e7182e5f839c34b25055b1f9b38d4ab969bf18836f539720100000017160014826ed7a30e5e7f11098dbe6313a187669a121445feffffff0220cb50000000000017a914f72a12a7286f93d3afd4ff9ba3ba5d42945cc1848710a913000000000017a914fba1f4089d5ab71eed8daa9c92787f9e725c62d387024730440220451af9d2cad62b0e4fdc50e0f5a5de5137c78276487a103dc8c310160b04653602206a777a9f5cebd6306363604ce4b8a0c266af6c08a29daca8d984de2d1521c54f01210266c6f7ea1fe1c36f69a0c1b12485ef50e795532926d6da3f642cd20a9507a8ef0247304402200e3fda9741582c832f3958751a296ed40fd4255f0bd8e3db09ebf5008608ebd202204d889d32b14897ee4abfd3f7aded4b36f7a54d4288cfa01d8c1c45759f0175ad012103fb5d1939e06b8ffef9fb6f1c2b187010c1a4c1c81e27098a26408fac1e95294e024730440220312c00e26dce782ab3ebb65a5b2032059e170cb2b1e934ff79aa5e0718fb243a022030cb4fe999672322189eb3ca163e2cb61dfb2dd6ee47057d558402980cdae5e40121023e4bf03c2e682fdbc1191cacda953f03730e83414778f71fd5dca20d9f296513fb480800", "vin": [{"txinwitness": ["30440220451af9d2cad62b0e4fdc50e0f5a5de5137c78276487a103dc8c310160b04653602206a777a9f5cebd6306363604ce4b8a0c266af6c08a29daca8d984de2d1521c54f01", "0266c6f7ea1fe1c36f69a0c1b12485ef50e795532926d6da3f642cd20a9507a8ef"], "sequence": 4294967294, "scriptSig": {"hex": "160014d50354126f6e79c4fd69cc2a424c01b14fbc8db1", "asm": "0014d50354126f6e79c4fd69cc2a424c01b14fbc8db1"}, "vout": 0, "txid": "1e67cf85af33174395458e594b5050074fbfcc0752356d4bc0f0a1c7580991cf"}, {"txinwitness": ["304402200e3fda9741582c832f3958751a296ed40fd4255f0bd8e3db09ebf5008608ebd202204d889d32b14897ee4abfd3f7aded4b36f7a54d4288cfa01d8c1c45759f0175ad01", "03fb5d1939e06b8ffef9fb6f1c2b187010c1a4c1c81e27098a26408fac1e95294e"], "sequence": 4294967294, "scriptSig": {"hex": "160014eca61a54c97519311bcd65434d0d5421e528aa94", "asm": "0014eca61a54c97519311bcd65434d0d5421e528aa94"}, "vout": 1, "txid": "4d6aba802cce6f9afddf4a9c8412d665aa0d17440c412882612db9d6490db3dd"}, {"txinwitness": ["30440220312c00e26dce782ab3ebb65a5b2032059e170cb2b1e934ff79aa5e0718fb243a022030cb4fe999672322189eb3ca163e2cb61dfb2dd6ee47057d558402980cdae5e401", "023e4bf03c2e682fdbc1191cacda953f03730e83414778f71fd5dca20d9f296513"], "sequence": 4294967294, "scriptSig": {"hex": "160014826ed7a30e5e7f11098dbe6313a187669a121445", "asm": "0014826ed7a30e5e7f11098dbe6313a187669a121445"}, "vout": 1, "txid": "7239f53688f19b96abd4389b1f5b05254bc339f8e582711ee5c80b3dad7b03de"}], "txid": "272d95ef983d486b4a65df4b408645a7702828f535aecacbf64046b7ff184985", "blocktime": 1537876114, "version": 2, "confirmations": 11459, "time": 1537876114, "locktime": 542971, "vsize": 347, "size": 589}