{"hash": "df1036c66ac6d2194cdb770ff03ae02df2b86dc07e7195e4696f6e19fbb954b6", "blockhash": "000000000000000000022b45ed06c6f4ccd3cf7fb5ba4856ebd2e58215665228", "vout": [{"scriptPubKey": {"reqSigs": 1, "hex": "a914b9f0dfc58a65ef91b140748419b6a4032a82931087", "addresses": ["3JeBVFxtXxeuTXjaDDZQaxUGpLDNhFiysQ"], "asm": "OP_HASH160 b9f0dfc58a65ef91b140748419b6a4032a829310 OP_EQUAL", "type": "scripthash"}, "value": 0.09778419, "n": 0}, {"scriptPubKey": {"reqSigs": 1, "hex": "a914ee7b03fa9bbdc2fb44147cd3ddca3140a68dc63e87", "addresses": ["3PRz7UATj5sCsGbA2y6hE3uBtYibwtBgaT"], "asm": "OP_HASH160 ee7b03fa9bbdc2fb44147cd3ddca3140a68dc63e OP_EQUAL", "type": "scripthash"}, "value": 0.28540892, "n": 1}], "hex": "0100000000010162fdb84f7c2b5c96d58836068a1877655891651abd70fce445cd6c11cb19d96601000000171600147e9c9137d0a23b351d71c6998407ae87825086cfffffffff02f33495000000000017a914b9f0dfc58a65ef91b140748419b6a4032a82931087dc7fb3010000000017a914ee7b03fa9bbdc2fb44147cd3ddca3140a68dc63e87024830450221008b66df13a3dfe96c2d32caf2fd8d9da65cdb1b72f69950a28eaf97fe7847094802200ad0a75e30da1314ade6f59b86bc8b93960e9821fc5c01257a6285887462f15e012103af1bf05feea881a0257fdd13d63534364861ceb0b49e75bec2cbf8387d01ca4600000000", "vin": [{"txinwitness": ["30450221008b66df13a3dfe96c2d32caf2fd8d9da65cdb1b72f69950a28eaf97fe7847094802200ad0a75e30da1314ade6f59b86bc8b93960e9821fc5c01257a6285887462f15e01", "03af1bf05feea881a0257fdd13d63534364861ceb0b49e75bec2cbf8387d01ca46"], "sequence": 4294967295, "scriptSig": {"hex": "1600147e9c9137d0a23b351d71c6998407ae87825086cf", "asm": "00147e9c9137d0a23b351d71c6998407ae87825086cf"}, "vout": 1, "txid": "66d919cb116ccd45e4fc70bd1a6591586577188a063688d5965c2b7c4fb8fd62"}], "txid": "272ff190e7fcd7d6538298ab13eef35d1b6c99e621a90b953838bfbf438a63a2", "blocktime": 1537869901, "version": 1, "confirmations": 11523, "time": 1537869901, "locktime": 0, "vsize": 166, "size": 248}