{"hash": "273802faddcd1442d8643287d31066f7f6f221946b0fe267ed4319c52cfffc25", "blockhash": "0000000000000000000e13cef7c366c0283d82e591d1acd082e914b08063cdf1", "vout": [{"scriptPubKey": {"type": "nulldata", "hex": "6a146f6d6e69000000000000001f0000000ba43b7400", "asm": "OP_RETURN 6f6d6e69000000000000001f0000000ba43b7400"}, "value": 0.0, "n": 0}, {"scriptPubKey": {"reqSigs": 1, "hex": "76a9148815e0bedd2b4fd7fc21163a7ce23ef559c346ba88ac", "addresses": ["1DQZ7CC3EdrcVPZnfi39t7mdH4kDobGdc4"], "asm": "OP_DUP OP_HASH160 8815e0bedd2b4fd7fc21163a7ce23ef559c346ba OP_EQUALVERIFY OP_CHECKSIG", "type": "pubkeyhash"}, "value": 5.46e-06, "n": 1}, {"scriptPubKey": {"reqSigs": 1, "hex": "76a914a25dec4d0011064ef106a983c39c7a540699f22088ac", "addresses": ["1FoWyxwPXuj4C6abqwhjDWdz6D4PZgYRjA"], "asm": "OP_DUP OP_HASH160 a25dec4d0011064ef106a983c39c7a540699f220 OP_EQUALVERIFY OP_CHECKSIG", "type": "pubkeyhash"}, "value": 0.01976027, "n": 2}], "hex": "0100000001791aa107e76aa4adc050a00d9d0f26883b89ac80bdde4c0125536361f9f1bca9010000006a473044022004e6b97273d0843cca8849cd04afc6ba8f69019899ea27b95a817cfcb9ebfb6502200597eb2311ed42cd8bacd61bb2e0e43f8586a81953acaefeee4838496dddad3b012103da5bac7b36d5aa38f531c6b9601e21bb598a4b6716ebed38b009a55dabde9440feffffff030000000000000000166a146f6d6e69000000000000001f0000000ba43b740022020000000000001976a9148815e0bedd2b4fd7fc21163a7ce23ef559c346ba88acdb261e00000000001976a914a25dec4d0011064ef106a983c39c7a540699f22088ac10490800", "vin": [{"sequence": 4294967294, "scriptSig": {"hex": "473044022004e6b97273d0843cca8849cd04afc6ba8f69019899ea27b95a817cfcb9ebfb6502200597eb2311ed42cd8bacd61bb2e0e43f8586a81953acaefeee4838496dddad3b012103da5bac7b36d5aa38f531c6b9601e21bb598a4b6716ebed38b009a55dabde9440", "asm": "3044022004e6b97273d0843cca8849cd04afc6ba8f69019899ea27b95a817cfcb9ebfb6502200597eb2311ed42cd8bacd61bb2e0e43f8586a81953acaefeee4838496dddad3b[ALL] 03da5bac7b36d5aa38f531c6b9601e21bb598a4b6716ebed38b009a55dabde9440"}, "vout": 1, "txid": "a9bcf1f961635325014cdebd80ac893b88260f9d0da050c0ada46ae707a11a79"}], "txid": "273802faddcd1442d8643287d31066f7f6f221946b0fe267ed4319c52cfffc25", "blocktime": 1537871767, "version": 1, "confirmations": 11490, "time": 1537871767, "locktime": 542992, "vsize": 256, "size": 256}