{"hash": "273b4cc502bc048367eb90b1787b590fb5a09da2a4ff0f5d24de83497a72ce89", "blockhash": "000000000000000000022b45ed06c6f4ccd3cf7fb5ba4856ebd2e58215665228", "vout": [{"scriptPubKey": {"reqSigs": 1, "hex": "76a914e52522a6a6a4457e9b98441585b179816ccc814d88ac", "addresses": ["1MtcE94Ef3ZvDp6zEfk3kw5y44EBnmG1r3"], "asm": "OP_DUP OP_HASH160 e52522a6a6a4457e9b98441585b179816ccc814d OP_EQUALVERIFY OP_CHECKSIG", "type": "pubkeyhash"}, "value": 0.58295809, "n": 0}], "hex": "020000000b34e9b0b2c72f5c74d3ae22f2331e7d89b61cf712e0f804c1c5561a010dc87fe6110000006a473044022021d89883cbe409ad806921de2c2adacc2052d8cab26ab43a5e57010d5c17a5f402203d2363fdfb7f464a31991eb08c6df36912c6d90c0c5f382d2c6468fd1f476d2a0121035a3d13f5242bafefe1964be269f42d0ab06e7fe5223d53d82e62dd66d35c4261feffffff43b331671f863d072738f7d257d5235bb1169c3e59fa35ba9766a90bc64e49d7000000006a473044022040c4b2c93ee7441d406fafc3b18ab9ac0461952802e35ad7547af92c7931bdb702207e4f784362da5693441ed87173d3184d4ccc76764c92b165237c180ea4623d94012103d13ab206c53bf612ef7addacf1b9feb726b2592ccf867f0e18109dc538cffa61feffffff5ee88b81968645dc1382e8e47818c80aa95ff79c5c6abc2fdc1ca4481a66bc1b010000006a47304402200e6fbf20ed932dd536d571e1d4426db620878a983486a70478c4cb6ccd3508bb02206681aebb8ff5b42074dda684af28fb780223edec27d932c661423952749c482c01210209cf94f86c01660ad3a16e95182c32143e9fc1a55ea65ca0cc3a12a8289998aefeffffff6357130fcc9a998fde592799581c71641ab77199209c65822da90b78a031ebb9000000006b483045022100a4506a91c9908f89b245e9cca56cab4e81a357693344b06d0537cd2e6891b15f022035efe4e97224eaf4bf1ac2fab588a9bf5b625248d7c3badb1e63653bf9e6db8a0121027a0c958bd6dcaefb376ee27985e7eefd968be72d610b6c3388274755642849fffeffffffd4d795e0728e253d0b38f4a4faf343077e166e450a6d94ac7996124e1b886d6a000000006a47304402205e5ccbea32dc7c5c8af5887808260af44ac4f4a432e7ebcc1692be0070f38eea022059eecc5e8fc18e1f88c1ee08c6d470b8a9ad65d21de067c20c29a20a116c2efc012103b59bbf093682c56dcdb35e9ea69010164a171184c6127de581aa30162a3e43befeffffffd620945c376dfd6fb3a51a4c3c53bf4cdccf822588ea1ccb0c514834b6e915de010000006a473044022020fabd2ae816ecd94705fef906e39af1e398f31f1b1ea262e2905f6c9560088102203181b8d35de31d3d20877aabdea12edf007f6f7612660a4bca76fe67201ea7ce012102bda769a311026e30a5c4003a5397d100cf5b14f0e6b9661d5f09a69242f89808feffffffe24e9a58650133b61becd75d51c1b47444b07e0985d40b641a45d53410371e40010000006b4830450221009a5b3b559be03ab92668105d56aa291d41827763b967151a3fe1fd79aed9db9f022014879786f17ee383da8a885378f7f726fd8d29dd8ee418811d119546b4b7bdac012102250775d3724849926d938bb6f6b901e9ce2927c0be3bcc3a050a57cfec1c3702feffffffead27d475d95327696583b3ab5f6152a2386e6168d3f96de9b062c458bef260d060000006a47304402204f1d195cd82b989fab1814cca4a48f630afef66f5d70ade5bb3cb5e9132c358a02202e63c7ae6713275e0e4ba7aeacd2781518510d05e33954e8a9f03c0d92389cac01210329385e5690d80e1eeeb49936945b9b6696d38a60fbbbb3848173fc79b146e3dcfefffffff2990eed1fa3391e781215e61e970658c19eb31b87b57c3a95422ed2cf8c2b73000000006b483045022100bd2432c0f7034171b8c063b50a034b264b4c376a9a53c1f2a1f7c9157a8d30ba02200ee8c56007e28e069e9ced430161de2ef16d677cc708266193969cfef8a88e67012103520c63403a9631f13829a682292f5374e5390375be7ea11d6a69fbd18e1c2824fefffffff5aa3a0b7990d23b44ab7804175b72e7c6f478daf2ae274835216d92d06236e9010000006a4730440220316c137d0ecf85e22bf223c1504b03d0f9d53a5df01757b4b7c4612d7e4d241302207b710252700e542cd621efb87b1aa9068212e9b26dacfe2a3277008cafa4787f012102ad6ead5b6e9a90a62a9700089c87bfc615a360391cccc9be6bdd7aabbe7212abfefffffffba0c92285165c121a9b88240f798e26ec2393f658ee066eb949a72a89b02177010000006a473044022050cae78a5e32eaaedca21628143d77df3d5ce2d777d4d850c302d26910d7d5a402207e7f7d1652fc36768734e252f1916a9dd89601ce1b8ec511eafa723dbd264e6a0121027807e91d97c0abbe0a1a634387d678340480cde40dbb65f3c05ac5468ec9cac8feffffff0101867903000000001976a914e52522a6a6a4457e9b98441585b179816ccc814d88ac0b490800", "vin": [{"sequence": 4294967294, "scriptSig": {"hex": "473044022021d89883cbe409ad806921de2c2adacc2052d8cab26ab43a5e57010d5c17a5f402203d2363fdfb7f464a31991eb08c6df36912c6d90c0c5f382d2c6468fd1f476d2a0121035a3d13f5242bafefe1964be269f42d0ab06e7fe5223d53d82e62dd66d35c4261", "asm": "3044022021d89883cbe409ad806921de2c2adacc2052d8cab26ab43a5e57010d5c17a5f402203d2363fdfb7f464a31991eb08c6df36912c6d90c0c5f382d2c6468fd1f476d2a[ALL] 035a3d13f5242bafefe1964be269f42d0ab06e7fe5223d53d82e62dd66d35c4261"}, "vout": 17, "txid": "e67fc80d011a56c5c104f8e012f71cb6897d1e33f222aed3745c2fc7b2b0e934"}, {"sequence": 4294967294, "scriptSig": {"hex": "473044022040c4b2c93ee7441d406fafc3b18ab9ac0461952802e35ad7547af92c7931bdb702207e4f784362da5693441ed87173d3184d4ccc76764c92b165237c180ea4623d94012103d13ab206c53bf612ef7addacf1b9feb726b2592ccf867f0e18109dc538cffa61", "asm": "3044022040c4b2c93ee7441d406fafc3b18ab9ac0461952802e35ad7547af92c7931bdb702207e4f784362da5693441ed87173d3184d4ccc76764c92b165237c180ea4623d94[ALL] 03d13ab206c53bf612ef7addacf1b9feb726b2592ccf867f0e18109dc538cffa61"}, "vout": 0, "txid": "d7494ec60ba96697ba35fa593e9c16b15b23d557d2f73827073d861f6731b343"}, {"sequence": 4294967294, "scriptSig": {"hex": "47304402200e6fbf20ed932dd536d571e1d4426db620878a983486a70478c4cb6ccd3508bb02206681aebb8ff5b42074dda684af28fb780223edec27d932c661423952749c482c01210209cf94f86c01660ad3a16e95182c32143e9fc1a55ea65ca0cc3a12a8289998ae", "asm": "304402200e6fbf20ed932dd536d571e1d4426db620878a983486a70478c4cb6ccd3508bb02206681aebb8ff5b42074dda684af28fb780223edec27d932c661423952749c482c[ALL] 0209cf94f86c01660ad3a16e95182c32143e9fc1a55ea65ca0cc3a12a8289998ae"}, "vout": 1, "txid": "1bbc661a48a41cdc2fbc6a5c9cf75fa90ac81878e4e88213dc458696818be85e"}, {"sequence": 4294967294, "scriptSig": {"hex": "483045022100a4506a91c9908f89b245e9cca56cab4e81a357693344b06d0537cd2e6891b15f022035efe4e97224eaf4bf1ac2fab588a9bf5b625248d7c3badb1e63653bf9e6db8a0121027a0c958bd6dcaefb376ee27985e7eefd968be72d610b6c3388274755642849ff", "asm": "3045022100a4506a91c9908f89b245e9cca56cab4e81a357693344b06d0537cd2e6891b15f022035efe4e97224eaf4bf1ac2fab588a9bf5b625248d7c3badb1e63653bf9e6db8a[ALL] 027a0c958bd6dcaefb376ee27985e7eefd968be72d610b6c3388274755642849ff"}, "vout": 0, "txid": "b9eb31a0780ba92d82659c209971b71a64711c58992759de8f999acc0f135763"}, {"sequence": 4294967294, "scriptSig": {"hex": "47304402205e5ccbea32dc7c5c8af5887808260af44ac4f4a432e7ebcc1692be0070f38eea022059eecc5e8fc18e1f88c1ee08c6d470b8a9ad65d21de067c20c29a20a116c2efc012103b59bbf093682c56dcdb35e9ea69010164a171184c6127de581aa30162a3e43be", "asm": "304402205e5ccbea32dc7c5c8af5887808260af44ac4f4a432e7ebcc1692be0070f38eea022059eecc5e8fc18e1f88c1ee08c6d470b8a9ad65d21de067c20c29a20a116c2efc[ALL] 03b59bbf093682c56dcdb35e9ea69010164a171184c6127de581aa30162a3e43be"}, "vout": 0, "txid": "6a6d881b4e129679ac946d0a456e167e0743f3faa4f4380b3d258e72e095d7d4"}, {"sequence": 4294967294, "scriptSig": {"hex": "473044022020fabd2ae816ecd94705fef906e39af1e398f31f1b1ea262e2905f6c9560088102203181b8d35de31d3d20877aabdea12edf007f6f7612660a4bca76fe67201ea7ce012102bda769a311026e30a5c4003a5397d100cf5b14f0e6b9661d5f09a69242f89808", "asm": "3044022020fabd2ae816ecd94705fef906e39af1e398f31f1b1ea262e2905f6c9560088102203181b8d35de31d3d20877aabdea12edf007f6f7612660a4bca76fe67201ea7ce[ALL] 02bda769a311026e30a5c4003a5397d100cf5b14f0e6b9661d5f09a69242f89808"}, "vout": 1, "txid": "de15e9b63448510ccb1cea882582cfdc4cbf533c4c1aa5b36ffd6d375c9420d6"}, {"sequence": 4294967294, "scriptSig": {"hex": "4830450221009a5b3b559be03ab92668105d56aa291d41827763b967151a3fe1fd79aed9db9f022014879786f17ee383da8a885378f7f726fd8d29dd8ee418811d119546b4b7bdac012102250775d3724849926d938bb6f6b901e9ce2927c0be3bcc3a050a57cfec1c3702", "asm": "30450221009a5b3b559be03ab92668105d56aa291d41827763b967151a3fe1fd79aed9db9f022014879786f17ee383da8a885378f7f726fd8d29dd8ee418811d119546b4b7bdac[ALL] 02250775d3724849926d938bb6f6b901e9ce2927c0be3bcc3a050a57cfec1c3702"}, "vout": 1, "txid": "401e371034d5451a640bd485097eb04474b4c1515dd7ec1bb6330165589a4ee2"}, {"sequence": 4294967294, "scriptSig": {"hex": "47304402204f1d195cd82b989fab1814cca4a48f630afef66f5d70ade5bb3cb5e9132c358a02202e63c7ae6713275e0e4ba7aeacd2781518510d05e33954e8a9f03c0d92389cac01210329385e5690d80e1eeeb49936945b9b6696d38a60fbbbb3848173fc79b146e3dc", "asm": "304402204f1d195cd82b989fab1814cca4a48f630afef66f5d70ade5bb3cb5e9132c358a02202e63c7ae6713275e0e4ba7aeacd2781518510d05e33954e8a9f03c0d92389cac[ALL] 0329385e5690d80e1eeeb49936945b9b6696d38a60fbbbb3848173fc79b146e3dc"}, "vout": 6, "txid": "0d26ef8b452c069bde963f8d16e686232a15f6b53a3b58967632955d477dd2ea"}, {"sequence": 4294967294, "scriptSig": {"hex": "483045022100bd2432c0f7034171b8c063b50a034b264b4c376a9a53c1f2a1f7c9157a8d30ba02200ee8c56007e28e069e9ced430161de2ef16d677cc708266193969cfef8a88e67012103520c63403a9631f13829a682292f5374e5390375be7ea11d6a69fbd18e1c2824", "asm": "3045022100bd2432c0f7034171b8c063b50a034b264b4c376a9a53c1f2a1f7c9157a8d30ba02200ee8c56007e28e069e9ced430161de2ef16d677cc708266193969cfef8a88e67[ALL] 03520c63403a9631f13829a682292f5374e5390375be7ea11d6a69fbd18e1c2824"}, "vout": 0, "txid": "732b8ccfd22e42953a7cb5871bb39ec15806971ee61512781e39a31fed0e99f2"}, {"sequence": 4294967294, "scriptSig": {"hex": "4730440220316c137d0ecf85e22bf223c1504b03d0f9d53a5df01757b4b7c4612d7e4d241302207b710252700e542cd621efb87b1aa9068212e9b26dacfe2a3277008cafa4787f012102ad6ead5b6e9a90a62a9700089c87bfc615a360391cccc9be6bdd7aabbe7212ab", "asm": "30440220316c137d0ecf85e22bf223c1504b03d0f9d53a5df01757b4b7c4612d7e4d241302207b710252700e542cd621efb87b1aa9068212e9b26dacfe2a3277008cafa4787f[ALL] 02ad6ead5b6e9a90a62a9700089c87bfc615a360391cccc9be6bdd7aabbe7212ab"}, "vout": 1, "txid": "e93662d0926d21354827aef2da78f4c6e7725b170478ab443bd290790b3aaaf5"}, {"sequence": 4294967294, "scriptSig": {"hex": "473044022050cae78a5e32eaaedca21628143d77df3d5ce2d777d4d850c302d26910d7d5a402207e7f7d1652fc36768734e252f1916a9dd89601ce1b8ec511eafa723dbd264e6a0121027807e91d97c0abbe0a1a634387d678340480cde40dbb65f3c05ac5468ec9cac8", "asm": "3044022050cae78a5e32eaaedca21628143d77df3d5ce2d777d4d850c302d26910d7d5a402207e7f7d1652fc36768734e252f1916a9dd89601ce1b8ec511eafa723dbd264e6a[ALL] 027807e91d97c0abbe0a1a634387d678340480cde40dbb65f3c05ac5468ec9cac8"}, "vout": 1, "txid": "7721b0892aa749b96e06ee58f69323ec268e790f24889b1a125c168522c9a0fb"}], "txid": "273b4cc502bc048367eb90b1787b590fb5a09da2a4ff0f5d24de83497a72ce89", "blocktime": 1537869901, "version": 2, "confirmations": 11524, "time": 1537869901, "locktime": 542987, "vsize": 1664, "size": 1664}