{"hash": "27438c521a940a54bf47ad595da3d4137acb13530da49cfe2b36a347c21e021d", "blockhash": "0000000000000000000baef3f32e3676a92c3b2e5da21b426e4f302fc371ce76", "vout": [{"scriptPubKey": {"reqSigs": 1, "hex": "76a914a4a07d27c046d8814438893e6c7e4ce365bb189788ac", "addresses": ["1G1U5Ra11jHHpHGNSeZ1CMxXLZH9a734zz"], "asm": "OP_DUP OP_HASH160 a4a07d27c046d8814438893e6c7e4ce365bb1897 OP_EQUALVERIFY OP_CHECKSIG", "type": "pubkeyhash"}, "value": 0.02079066, "n": 0}, {"scriptPubKey": {"reqSigs": 1, "hex": "76a914788743d1684104a78fad568a3b512ac7e8c1c0c588ac", "addresses": ["1BzJ8Pf8AP3cLPTydtpgABhEncnZomPoGQ"], "asm": "OP_DUP OP_HASH160 788743d1684104a78fad568a3b512ac7e8c1c0c5 OP_EQUALVERIFY OP_CHECKSIG", "type": "pubkeyhash"}, "value": 0.08693984, "n": 1}], "hex": "0100000001b6e95634bfcc05e9a6f7b2986753dc077d38bb943c775ab8429f6829b25a6838010000006a47304402201ec35b13ef365a4a0d779a66b9b44f5d45c9313e45a8ec27177d11c7d17481cc022028320ff1bcabb66d4f1863d8592ea1942cf109841d59ffcfff56e83427a3cdf401210252c6bd676d9f14e49e4c6451ad7d14000e6ba2496a39528e4dfc7f3f0cfa0492fdffffff025ab91f00000000001976a914a4a07d27c046d8814438893e6c7e4ce365bb189788ace0a88400000000001976a914788743d1684104a78fad568a3b512ac7e8c1c0c588ac00000000", "vin": [{"sequence": 4294967293, "scriptSig": {"hex": "47304402201ec35b13ef365a4a0d779a66b9b44f5d45c9313e45a8ec27177d11c7d17481cc022028320ff1bcabb66d4f1863d8592ea1942cf109841d59ffcfff56e83427a3cdf401210252c6bd676d9f14e49e4c6451ad7d14000e6ba2496a39528e4dfc7f3f0cfa0492", "asm": "304402201ec35b13ef365a4a0d779a66b9b44f5d45c9313e45a8ec27177d11c7d17481cc022028320ff1bcabb66d4f1863d8592ea1942cf109841d59ffcfff56e83427a3cdf4[ALL] 0252c6bd676d9f14e49e4c6451ad7d14000e6ba2496a39528e4dfc7f3f0cfa0492"}, "vout": 1, "txid": "38685ab229689f42b85a773c94bb387d07dc536798b2f7a6e905ccbf3456e9b6"}], "txid": "27438c521a940a54bf47ad595da3d4137acb13530da49cfe2b36a347c21e021d", "blocktime": 1537876114, "version": 1, "confirmations": 11460, "time": 1537876114, "locktime": 0, "vsize": 225, "size": 225}