{"hash": "63e73fd29135846c7a48dd4962078ca2c5e05ca8465524b3a88f84c93bca28b0", "blockhash": "0000000000000000000baef3f32e3676a92c3b2e5da21b426e4f302fc371ce76", "vout": [{"scriptPubKey": {"reqSigs": 1, "hex": "a9148756f73a7302e94f74f354530f358fe6f6e0587087", "addresses": ["3E2dKvffSXeevdTRUNATg3wZGykKWyDgqT"], "asm": "OP_HASH160 8756f73a7302e94f74f354530f358fe6f6e05870 OP_EQUAL", "type": "scripthash"}, "value": 0.00378417, "n": 0}, {"scriptPubKey": {"reqSigs": 1, "hex": "a914bfe3b9b006bd60d821de4768216fbcf3cb0629a487", "addresses": ["3KBdnpNRSUC6xH7oL58GWg3f1QzPQs9FWq"], "asm": "OP_HASH160 bfe3b9b006bd60d821de4768216fbcf3cb0629a4 OP_EQUAL", "type": "scripthash"}, "value": 0.00140022, "n": 1}], "hex": "01000000000101e096a2500b6902dab483e795d2261a92b78632a5d083e7ccddf8bc0edc6ae0ef01000000232200204ac72bc93353695ed44de9eabe5eab31fde46c3e5524f6f6c253b37df4627817ffffffff0231c605000000000017a9148756f73a7302e94f74f354530f358fe6f6e0587087f62202000000000017a914bfe3b9b006bd60d821de4768216fbcf3cb0629a48704004830450221009f5709f3a2a98b6850bd7c1608972494be60552eb4665c88d007062728a63efc022013ed80c24a024c1ba0b85c6fb527e97b58db542fa676ef7b5f696f3e0b13d4720148304502210088816dbb8079110b009efb8235f4c42bb09f770fbc593d060e68bc43448107ae02203445403fd3b45b1cb014da8d5fba3b3b027efe4832190e4b44f13f26849c3f83014752210383dd989bbcdccf0b79b07f5bbd82921af5ac4762329b0aa9346994805e5cd8fc2103871fc2ca08e6950b38867e8e6a0e94ee625223d3aa0df5c65f414c6d784467e252ae00000000", "vin": [{"txinwitness": ["", "30450221009f5709f3a2a98b6850bd7c1608972494be60552eb4665c88d007062728a63efc022013ed80c24a024c1ba0b85c6fb527e97b58db542fa676ef7b5f696f3e0b13d47201", "304502210088816dbb8079110b009efb8235f4c42bb09f770fbc593d060e68bc43448107ae02203445403fd3b45b1cb014da8d5fba3b3b027efe4832190e4b44f13f26849c3f8301", "52210383dd989bbcdccf0b79b07f5bbd82921af5ac4762329b0aa9346994805e5cd8fc2103871fc2ca08e6950b38867e8e6a0e94ee625223d3aa0df5c65f414c6d784467e252ae"], "sequence": 4294967295, "scriptSig": {"hex": "2200204ac72bc93353695ed44de9eabe5eab31fde46c3e5524f6f6c253b37df4627817", "asm": "00204ac72bc93353695ed44de9eabe5eab31fde46c3e5524f6f6c253b37df4627817"}, "vout": 1, "txid": "efe06adc0ebcf8ddcce783d0a53286b7921a26d295e783b4da02690b50a296e0"}], "txid": "274af20ac1899ecc3ab3fdd7f6e4fc662eb3ae23351a0f5a181a7e498df28c3b", "blocktime": 1537876114, "version": 1, "confirmations": 11460, "time": 1537876114, "locktime": 0, "vsize": 206, "size": 372}