{"hash": "2752d84388f980a200e66f75b36d550ab87c2758c2aa1e44844602c70d1c7650", "blockhash": "0000000000000000001cda96e906b7601b7a6fb1a3b62bca570a9e5d8f4b3de1", "vout": [{"scriptPubKey": {"reqSigs": 1, "hex": "76a914d0665dd837ae17f35f68851a625af295af8c9c4f88ac", "addresses": ["1KzvBTR4nKyoEJZP1dnbyALcGbcvaKGLwG"], "asm": "OP_DUP OP_HASH160 d0665dd837ae17f35f68851a625af295af8c9c4f OP_EQUALVERIFY OP_CHECKSIG", "type": "pubkeyhash"}, "value": 0.00271751, "n": 0}, {"scriptPubKey": {"reqSigs": 1, "hex": "76a9147b6db1c9ecdc07f310dc64ad9c9d650e6739e79e88ac", "addresses": ["1CFdXJW4bkXY6aTnrCdWg27GcEQ8G5WUye"], "asm": "OP_DUP OP_HASH160 7b6db1c9ecdc07f310dc64ad9c9d650e6739e79e OP_EQUALVERIFY OP_CHECKSIG", "type": "pubkeyhash"}, "value": 0.00850954, "n": 1}], "hex": "0100000003822ad1b9e0197a8b91fe4e7f42d8981e371834a45df0b5cafb542bcea947f018010000006a4730440220779b5c8e3cdeea44b63f0b42709eaafe59d80fc28cbc84e2e4fc9e980f26b4a40220255d972693c781d72d6568013fffcbda3205e1f93c2a1ac738dd7a54a350459b012102552cb314b12c4d8bdefe800c428e9de99e35fcbb5067f9b6cce47861ea7f7492ffffffffeb2b5b9d753582511c2519a0d54970e4fdbae28753785a3210e943a8e395016a010000006a4730440220387feb2a1c11fca22c6878fc0382e433da3978bdb4822533aab11c4c8c4bddd102204adb1aac1114067db4138424a886be8f24220987d90ca1de27a76ed69fa2b15e012102f421e968ee96d5c6c30f40c58025da60938c80d681295687ea400e9d88e71df9ffffffff49dbb2ba2d622b634904b6596f9bc6da43720cfe84464f7702c693d60dd3ead8000000006b483045022100c390b33eb6890714610fbdde5b9f5c17f97ce5a9619fe726ef75bc239933435802203f668c7aee34030bd5a215d978e0608aeb6c51302ea408334eb61cc387da64820121028ce5e8b2db14a0decdd7e37a0d9e359f0013cb824790abfae94cd5ecf46bf155ffffffff0287250400000000001976a914d0665dd837ae17f35f68851a625af295af8c9c4f88ac0afc0c00000000001976a9147b6db1c9ecdc07f310dc64ad9c9d650e6739e79e88ac00000000", "vin": [{"sequence": 4294967295, "scriptSig": {"hex": "4730440220779b5c8e3cdeea44b63f0b42709eaafe59d80fc28cbc84e2e4fc9e980f26b4a40220255d972693c781d72d6568013fffcbda3205e1f93c2a1ac738dd7a54a350459b012102552cb314b12c4d8bdefe800c428e9de99e35fcbb5067f9b6cce47861ea7f7492", "asm": "30440220779b5c8e3cdeea44b63f0b42709eaafe59d80fc28cbc84e2e4fc9e980f26b4a40220255d972693c781d72d6568013fffcbda3205e1f93c2a1ac738dd7a54a350459b[ALL] 02552cb314b12c4d8bdefe800c428e9de99e35fcbb5067f9b6cce47861ea7f7492"}, "vout": 1, "txid": "18f047a9ce2b54fbcab5f05da43418371e98d8427f4efe918b7a19e0b9d12a82"}, {"sequence": 4294967295, "scriptSig": {"hex": "4730440220387feb2a1c11fca22c6878fc0382e433da3978bdb4822533aab11c4c8c4bddd102204adb1aac1114067db4138424a886be8f24220987d90ca1de27a76ed69fa2b15e012102f421e968ee96d5c6c30f40c58025da60938c80d681295687ea400e9d88e71df9", "asm": "30440220387feb2a1c11fca22c6878fc0382e433da3978bdb4822533aab11c4c8c4bddd102204adb1aac1114067db4138424a886be8f24220987d90ca1de27a76ed69fa2b15e[ALL] 02f421e968ee96d5c6c30f40c58025da60938c80d681295687ea400e9d88e71df9"}, "vout": 1, "txid": "6a0195e3a843e910325a785387e2bafde47049d5a019251c518235759d5b2beb"}, {"sequence": 4294967295, "scriptSig": {"hex": "483045022100c390b33eb6890714610fbdde5b9f5c17f97ce5a9619fe726ef75bc239933435802203f668c7aee34030bd5a215d978e0608aeb6c51302ea408334eb61cc387da64820121028ce5e8b2db14a0decdd7e37a0d9e359f0013cb824790abfae94cd5ecf46bf155", "asm": "3045022100c390b33eb6890714610fbdde5b9f5c17f97ce5a9619fe726ef75bc239933435802203f668c7aee34030bd5a215d978e0608aeb6c51302ea408334eb61cc387da6482[ALL] 028ce5e8b2db14a0decdd7e37a0d9e359f0013cb824790abfae94cd5ecf46bf155"}, "vout": 0, "txid": "d8ead30dd693c602774f4684fe0c7243dac69b6f59b60449632b622dbab2db49"}], "txid": "2752d84388f980a200e66f75b36d550ab87c2758c2aa1e44844602c70d1c7650", "blocktime": 1537873282, "version": 1, "confirmations": 11484, "time": 1537873282, "locktime": 0, "vsize": 520, "size": 520}