{"hash": "a2b8f6051331e1890dd3e214431e44744c1cb73fe088381e2008abf53cba729c", "blockhash": "000000000000000000022b45ed06c6f4ccd3cf7fb5ba4856ebd2e58215665228", "vout": [{"scriptPubKey": {"reqSigs": 1, "hex": "a914acada3f542f30700c86153747a945a1924ed719687", "addresses": ["3HS4AHjaVf4n3oGCmhTr6WiDpNQbD7k3Er"], "asm": "OP_HASH160 acada3f542f30700c86153747a945a1924ed7196 OP_EQUAL", "type": "scripthash"}, "value": 2.73667557, "n": 0}, {"scriptPubKey": {"reqSigs": 1, "hex": "a914eaecaf5a21bcddbfdf56807c60b7852aba79efac87", "addresses": ["3P7BabHpnrCTAbe3GbS3g23TPigXBG17Jp"], "asm": "OP_HASH160 eaecaf5a21bcddbfdf56807c60b7852aba79efac OP_EQUAL", "type": "scripthash"}, "value": 6.50984116, "n": 1}], "hex": "0200000000010221d1914f0de22824c3639d6a8ac6b71c74aa433458070e12b68f9973decb2ca3000000001716001418e738baf8511f748e8511f1159fe94cd06eaacafeffffffe5e50cd726fac71c036474eb24e2632a2cb48455b3a19093b99611655d338b1800000000171600140637e76f09229ed04b5c2318b85e73949fbbf0e9feffffff02e5d54f100000000017a914acada3f542f30700c86153747a945a1924ed719687b43acd260000000017a914eaecaf5a21bcddbfdf56807c60b7852aba79efac8702483045022100894fd71bbe7a0b0465bdc41746ef15528c728bc4f91e9e89999454ec39793d5d0220121d5acdc6f48e9fe288a62d5522196c139551c1ce1832cd8661e87d86a16d260121022b05d0610377d88402c983e71e2544ec90712256dad734bbfc915e6854eb432302473044022028782f2e75bb4ea55a1fe0f38f0907cb9ff344574545c3c5f1fb25038332c795022015eb425d168526f8428d0d647b11ec66340628e4020dbf3c26c2cd0b00d8bc4d0121020f43bf7f95857e656df4be4b48baa4ea4850ea3b05d9ca3c9a084758ad6ea7f600000000", "vin": [{"txinwitness": ["3045022100894fd71bbe7a0b0465bdc41746ef15528c728bc4f91e9e89999454ec39793d5d0220121d5acdc6f48e9fe288a62d5522196c139551c1ce1832cd8661e87d86a16d2601", "022b05d0610377d88402c983e71e2544ec90712256dad734bbfc915e6854eb4323"], "sequence": 4294967294, "scriptSig": {"hex": "16001418e738baf8511f748e8511f1159fe94cd06eaaca", "asm": "001418e738baf8511f748e8511f1159fe94cd06eaaca"}, "vout": 0, "txid": "a32ccbde73998fb6120e07583443aa741cb7c68a6a9d63c32428e20d4f91d121"}, {"txinwitness": ["3044022028782f2e75bb4ea55a1fe0f38f0907cb9ff344574545c3c5f1fb25038332c795022015eb425d168526f8428d0d647b11ec66340628e4020dbf3c26c2cd0b00d8bc4d01", "020f43bf7f95857e656df4be4b48baa4ea4850ea3b05d9ca3c9a084758ad6ea7f6"], "sequence": 4294967294, "scriptSig": {"hex": "1600140637e76f09229ed04b5c2318b85e73949fbbf0e9", "asm": "00140637e76f09229ed04b5c2318b85e73949fbbf0e9"}, "vout": 0, "txid": "188b335d651196b99390a1b35584b42c2a63e224eb7464031cc7fa26d70ce5e5"}], "txid": "2755a23fc1e0182c6d302822cd32ab11fee3e6e37da3f6ce1bab6059de1e6e0c", "blocktime": 1537869901, "version": 2, "confirmations": 11524, "time": 1537869901, "locktime": 0, "vsize": 257, "size": 419}