{"hash": "276aa54412ee57d970f422ecd23fbd3e03844f1b06f0d3089627ea25c345a6a2", "blockhash": "0000000000000000001cda96e906b7601b7a6fb1a3b62bca570a9e5d8f4b3de1", "vout": [{"scriptPubKey": {"reqSigs": 1, "hex": "76a91401d2c9b170fae0422d38cd4d1d2c7228561d148288ac", "addresses": ["1AeBzPDugfkyTKUqDSsU7rg8WMWqVHGUc"], "asm": "OP_DUP OP_HASH160 01d2c9b170fae0422d38cd4d1d2c7228561d1482 OP_EQUALVERIFY OP_CHECKSIG", "type": "pubkeyhash"}, "value": 0.00049024, "n": 0}], "hex": "01000000017d1956584d869d7b3ab2e3ea148db75f546b18c865bd0f8558a2c927aaec0dde000000006a473044022039f1e7150356e148899227f42d0187e5244f53a24acb5eae6cda496b19cced68022059e8eb1a4ac2fac72a08a5a249368054033a035408a8f78a67b0ac3ca68cbf51012103b271450932941e8fa7bc08cac429fd964e0e5b8d248af1daf14989304e96d425ffffffff0180bf0000000000001976a91401d2c9b170fae0422d38cd4d1d2c7228561d148288ac00000000", "vin": [{"sequence": 4294967295, "scriptSig": {"hex": "473044022039f1e7150356e148899227f42d0187e5244f53a24acb5eae6cda496b19cced68022059e8eb1a4ac2fac72a08a5a249368054033a035408a8f78a67b0ac3ca68cbf51012103b271450932941e8fa7bc08cac429fd964e0e5b8d248af1daf14989304e96d425", "asm": "3044022039f1e7150356e148899227f42d0187e5244f53a24acb5eae6cda496b19cced68022059e8eb1a4ac2fac72a08a5a249368054033a035408a8f78a67b0ac3ca68cbf51[ALL] 03b271450932941e8fa7bc08cac429fd964e0e5b8d248af1daf14989304e96d425"}, "vout": 0, "txid": "de0decaa27c9a258850fbd65c8186b545fb78d14eae3b23a7b9d864d5856197d"}], "txid": "276aa54412ee57d970f422ecd23fbd3e03844f1b06f0d3089627ea25c345a6a2", "blocktime": 1537873282, "version": 1, "confirmations": 11484, "time": 1537873282, "locktime": 0, "vsize": 191, "size": 191}