{"hash": "276d3c22bdeb72a3577a3cd775b4c7e2a920bb5baf48527674bc5a3d06aacd1b", "blockhash": "000000000000000000205f8b0775d31398ef75b89a5e8ec8d2c57b4dc0ac4c20", "vout": [{"scriptPubKey": {"reqSigs": 1, "hex": "76a914002a21588993b0c8654302fada84db49f02a622688ac", "addresses": ["11sUGAzPwMVfSoyCiEC39ZgWxF7VKnccT"], "asm": "OP_DUP OP_HASH160 002a21588993b0c8654302fada84db49f02a6226 OP_EQUALVERIFY OP_CHECKSIG", "type": "pubkeyhash"}, "value": 1.0, "n": 0}, {"scriptPubKey": {"reqSigs": 1, "hex": "76a91490211c9f9a6da1e14e315a5a4325bc0f023499c788ac", "addresses": ["1E95yGogPgTsag2Z9QBaWVCL9T2eKwbUSn"], "asm": "OP_DUP OP_HASH160 90211c9f9a6da1e14e315a5a4325bc0f023499c7 OP_EQUALVERIFY OP_CHECKSIG", "type": "pubkeyhash"}, "value": 7.992508, "n": 1}], "hex": "010000000286d5cfba37b894996be1ec90b097a1a9dc5a7159799db5b27853c1c99cec3064010000006a4730440220420f01f06e042e5b877dfa5002380a02496e6044d414c18cec2b6bd7a7b00d8a02203ecdd82f20cac4067880d8a0e61bee70ff794d200591dcc83a2483eaf3dc68b60121029714dbe7ef9dc47c585d1a692820e969aae95accbe7137e9f16b7fada38c9bf3ffffffffa0c088da78d08d31686f92de88dd5ff9cc89a8ce17fb39452718acde012b76e7000000006b483045022100a9a496372b8daeac145aaaa4da211ecc193f2a4f020cb85c60af286f9caf0edc02206cbce444c4f0b95ba8aef4784dff82d6c16f3b9eca775d18dc7e41e858d7c773012103b76df70481805c3eb46f798e8602567c2f873c5222c7895cff8a7eb6588236eaffffffff0200e1f505000000001976a914002a21588993b0c8654302fada84db49f02a622688ac7099a32f000000001976a91490211c9f9a6da1e14e315a5a4325bc0f023499c788ac00000000", "vin": [{"sequence": 4294967295, "scriptSig": {"hex": "4730440220420f01f06e042e5b877dfa5002380a02496e6044d414c18cec2b6bd7a7b00d8a02203ecdd82f20cac4067880d8a0e61bee70ff794d200591dcc83a2483eaf3dc68b60121029714dbe7ef9dc47c585d1a692820e969aae95accbe7137e9f16b7fada38c9bf3", "asm": "30440220420f01f06e042e5b877dfa5002380a02496e6044d414c18cec2b6bd7a7b00d8a02203ecdd82f20cac4067880d8a0e61bee70ff794d200591dcc83a2483eaf3dc68b6[ALL] 029714dbe7ef9dc47c585d1a692820e969aae95accbe7137e9f16b7fada38c9bf3"}, "vout": 1, "txid": "6430ec9cc9c15378b2b59d7959715adca9a197b090ece16b9994b837bacfd586"}, {"sequence": 4294967295, "scriptSig": {"hex": "483045022100a9a496372b8daeac145aaaa4da211ecc193f2a4f020cb85c60af286f9caf0edc02206cbce444c4f0b95ba8aef4784dff82d6c16f3b9eca775d18dc7e41e858d7c773012103b76df70481805c3eb46f798e8602567c2f873c5222c7895cff8a7eb6588236ea", "asm": "3045022100a9a496372b8daeac145aaaa4da211ecc193f2a4f020cb85c60af286f9caf0edc02206cbce444c4f0b95ba8aef4784dff82d6c16f3b9eca775d18dc7e41e858d7c773[ALL] 03b76df70481805c3eb46f798e8602567c2f873c5222c7895cff8a7eb6588236ea"}, "vout": 0, "txid": "e7762b01deac18274539fb17cea889ccf95fdd88de926f68318dd078da88c0a0"}], "txid": "276d3c22bdeb72a3577a3cd775b4c7e2a920bb5baf48527674bc5a3d06aacd1b", "blocktime": 1537871175, "version": 1, "confirmations": 11511, "time": 1537871175, "locktime": 0, "vsize": 373, "size": 373}