{"hash": "277e9998b789ce162cb1182057cb2f4301aa61db5aca249b6bc3583101792d1f", "blockhash": "0000000000000000001f76057863aec43deb6fa401d9628bb513d65a8098bfab", "vout": [{"scriptPubKey": {"reqSigs": 1, "hex": "76a914db3f47d2767d35f327bee4fad49b444e6b745c7e88ac", "addresses": ["1LzGnpcZUYR4kwaT1rLWSnyibciHzMDnyp"], "asm": "OP_DUP OP_HASH160 db3f47d2767d35f327bee4fad49b444e6b745c7e OP_EQUALVERIFY OP_CHECKSIG", "type": "pubkeyhash"}, "value": 0.01545993, "n": 0}, {"scriptPubKey": {"reqSigs": 1, "hex": "76a91400a1001e7bbf0c2b1f0b452fc558d67f1fc1026e88ac", "addresses": ["114KsWVMuQXDPF616BXewjbjwbW4jQwyQw"], "asm": "OP_DUP OP_HASH160 00a1001e7bbf0c2b1f0b452fc558d67f1fc1026e OP_EQUALVERIFY OP_CHECKSIG", "type": "pubkeyhash"}, "value": 0.07858434, "n": 1}], "hex": "0100000001320ae08edfcdd6da2d6870770fa3442da0ab25e0b6289205baa43e3dfbf5285e110000006b4830450221009ef4fc7453d7a6bebf1ad08ce2a58a684ae13a0f77de7e185ddfe8cbe6ac803e02206c115b2807278ace7332cffed517831c78fdb853af3e040e32ccd5b6bd2e4b4601210360c34b0448269934bc68a614455cf101346ba078fa41a4d7a98bd3c08b049745ffffffff0209971700000000001976a914db3f47d2767d35f327bee4fad49b444e6b745c7e88ac02e97700000000001976a91400a1001e7bbf0c2b1f0b452fc558d67f1fc1026e88ac00000000", "vin": [{"sequence": 4294967295, "scriptSig": {"hex": "4830450221009ef4fc7453d7a6bebf1ad08ce2a58a684ae13a0f77de7e185ddfe8cbe6ac803e02206c115b2807278ace7332cffed517831c78fdb853af3e040e32ccd5b6bd2e4b4601210360c34b0448269934bc68a614455cf101346ba078fa41a4d7a98bd3c08b049745", "asm": "30450221009ef4fc7453d7a6bebf1ad08ce2a58a684ae13a0f77de7e185ddfe8cbe6ac803e02206c115b2807278ace7332cffed517831c78fdb853af3e040e32ccd5b6bd2e4b46[ALL] 0360c34b0448269934bc68a614455cf101346ba078fa41a4d7a98bd3c08b049745"}, "vout": 17, "txid": "5e28f5fb3d3ea4ba059228b6e025aba02d44a30f7770682ddad6cddf8ee00a32"}], "txid": "277e9998b789ce162cb1182057cb2f4301aa61db5aca249b6bc3583101792d1f", "blocktime": 1537873891, "version": 1, "confirmations": 11478, "time": 1537873891, "locktime": 0, "vsize": 226, "size": 226}