{"hash": "2788d2002f6886473704926560f56ee1e50c9b6bd7f7b31cfe549697dc1fe7d9", "blockhash": "00000000000000000018f53835495a110e01622372bf6ae95dc86f2b0ab887b0", "vout": [{"scriptPubKey": {"reqSigs": 1, "hex": "a914b61034e5fe5a5febf9a12e8989bbd6afbbd8d18387", "addresses": ["3JHgKWjyRmDbiSGSUEA2mcimzt6r4iiCVj"], "asm": "OP_HASH160 b61034e5fe5a5febf9a12e8989bbd6afbbd8d183 OP_EQUAL", "type": "scripthash"}, "value": 9.89e-05, "n": 0}], "hex": "010000000164490891a9d22cd165be427c6a08d5a78e8c9c985328e075fd016f0273a91b5a010000006b483045022100978a3bd1a11583ebb45d94d4744e210e99f89ea10867304cac2f9c5118b0914502201046ec4d43002863412ed8d773fa38dbae41d8c0c584251816cbb880bda8c61301210261be721d7c9c0888b11e7954db5f34abb0b87149f8f1e147f49f0f93e32a977bffffffff01a22600000000000017a914b61034e5fe5a5febf9a12e8989bbd6afbbd8d1838700000000", "vin": [{"sequence": 4294967295, "scriptSig": {"hex": "483045022100978a3bd1a11583ebb45d94d4744e210e99f89ea10867304cac2f9c5118b0914502201046ec4d43002863412ed8d773fa38dbae41d8c0c584251816cbb880bda8c61301210261be721d7c9c0888b11e7954db5f34abb0b87149f8f1e147f49f0f93e32a977b", "asm": "3045022100978a3bd1a11583ebb45d94d4744e210e99f89ea10867304cac2f9c5118b0914502201046ec4d43002863412ed8d773fa38dbae41d8c0c584251816cbb880bda8c613[ALL] 0261be721d7c9c0888b11e7954db5f34abb0b87149f8f1e147f49f0f93e32a977b"}, "vout": 1, "txid": "5a1ba973026f01fd75e02853989c8c8ea7d5086a7c42be65d12cd2a991084964"}], "txid": "2788d2002f6886473704926560f56ee1e50c9b6bd7f7b31cfe549697dc1fe7d9", "blocktime": 1537870928, "version": 1, "confirmations": 11512, "time": 1537870928, "locktime": 0, "vsize": 190, "size": 190}