{"hash": "278a05e6b73b350fe01319bea07383195db879f7aa315975985a65ed0e209199", "blockhash": "00000000000000000017f5eb5941039fbcee6240d03bc1f2f8e35350df66a1d8", "vout": [{"scriptPubKey": {"reqSigs": 1, "hex": "a9149af6214e764d6fa2e22eb4259b1ddd50b600720987", "addresses": ["3FpNqWFCPBfrVyKmWmAsvs6oPBK4ogNLyc"], "asm": "OP_HASH160 9af6214e764d6fa2e22eb4259b1ddd50b6007209 OP_EQUAL", "type": "scripthash"}, "value": 0.00045354, "n": 0}], "hex": "0100000003385d2848ca82e5904ea5287885bc9696f402cdf28d8e785542669ed748dcb05f000000006b483045022100a181824f6da1b8f55ff3db0d12df8da1f4557ee7a89cae4eca9766b20b884bcc022062605fed45b7362e1ff6b1f820fb4572733118473fe439f89e8a55cae6853a780121039ab661c5ffa0377c2e2ca28faf20e76566639bbb2193c1572fc1d787c69f4b4afffffffff94918d0dbe7d9ab3dc3f986d6a09386b8f9a3b03f40767594612a27ee7e1685000000006b483045022100b540b34ee058d798d813cc222b360939c59146efeaa93341ccac9e94af4a67c90220630a33ecccd96aa5fe4c5f1601394c69dc01eecda1f52e9781b7589c65ff098c0121039ab661c5ffa0377c2e2ca28faf20e76566639bbb2193c1572fc1d787c69f4b4affffffffea93313c843121dc3086452bf93ebe53e021e31266aad1bcfc3d4429254586bc000000006a473044022036228af0f228203b195d950fc2559eb2f22a8f58a79b24f0910ad8ced0a7e55802206d312c89965f3388746dd0315156bdb7cc670c98504ca043aa7a5fb304783a4f0121039ab661c5ffa0377c2e2ca28faf20e76566639bbb2193c1572fc1d787c69f4b4affffffff012ab100000000000017a9149af6214e764d6fa2e22eb4259b1ddd50b60072098700000000", "vin": [{"sequence": 4294967295, "scriptSig": {"hex": "483045022100a181824f6da1b8f55ff3db0d12df8da1f4557ee7a89cae4eca9766b20b884bcc022062605fed45b7362e1ff6b1f820fb4572733118473fe439f89e8a55cae6853a780121039ab661c5ffa0377c2e2ca28faf20e76566639bbb2193c1572fc1d787c69f4b4a", "asm": "3045022100a181824f6da1b8f55ff3db0d12df8da1f4557ee7a89cae4eca9766b20b884bcc022062605fed45b7362e1ff6b1f820fb4572733118473fe439f89e8a55cae6853a78[ALL] 039ab661c5ffa0377c2e2ca28faf20e76566639bbb2193c1572fc1d787c69f4b4a"}, "vout": 0, "txid": "5fb0dc48d79e664255788e8df2cd02f49696bc857828a54e90e582ca48285d38"}, {"sequence": 4294967295, "scriptSig": {"hex": "483045022100b540b34ee058d798d813cc222b360939c59146efeaa93341ccac9e94af4a67c90220630a33ecccd96aa5fe4c5f1601394c69dc01eecda1f52e9781b7589c65ff098c0121039ab661c5ffa0377c2e2ca28faf20e76566639bbb2193c1572fc1d787c69f4b4a", "asm": "3045022100b540b34ee058d798d813cc222b360939c59146efeaa93341ccac9e94af4a67c90220630a33ecccd96aa5fe4c5f1601394c69dc01eecda1f52e9781b7589c65ff098c[ALL] 039ab661c5ffa0377c2e2ca28faf20e76566639bbb2193c1572fc1d787c69f4b4a"}, "vout": 0, "txid": "85167eee272a61947576403fb0a3f9b88693a0d686f9c33dabd9e7dbd01849f9"}, {"sequence": 4294967295, "scriptSig": {"hex": "473044022036228af0f228203b195d950fc2559eb2f22a8f58a79b24f0910ad8ced0a7e55802206d312c89965f3388746dd0315156bdb7cc670c98504ca043aa7a5fb304783a4f0121039ab661c5ffa0377c2e2ca28faf20e76566639bbb2193c1572fc1d787c69f4b4a", "asm": "3044022036228af0f228203b195d950fc2559eb2f22a8f58a79b24f0910ad8ced0a7e55802206d312c89965f3388746dd0315156bdb7cc670c98504ca043aa7a5fb304783a4f[ALL] 039ab661c5ffa0377c2e2ca28faf20e76566639bbb2193c1572fc1d787c69f4b4a"}, "vout": 0, "txid": "bc86452529443dfcbcd1aa6612e321e053be3ef92b458630dc2131843c3193ea"}], "txid": "278a05e6b73b350fe01319bea07383195db879f7aa315975985a65ed0e209199", "blocktime": 1537874412, "version": 1, "confirmations": 11467, "time": 1537874412, "locktime": 0, "vsize": 485, "size": 485}