{"hash": "c6131f636b77ed8ad5093e6db17635fca32c1eba7c5cca5cb801560e37aaa7de", "blockhash": "000000000000000000022b45ed06c6f4ccd3cf7fb5ba4856ebd2e58215665228", "vout": [{"scriptPubKey": {"reqSigs": 1, "hex": "a914cfaabfe8c271f99a4364b5197ba50c6cddb7adb987", "addresses": ["3Ld4M9RPwEG3VeQbHcC1PsKUndQL7VYLZP"], "asm": "OP_HASH160 cfaabfe8c271f99a4364b5197ba50c6cddb7adb9 OP_EQUAL", "type": "scripthash"}, "value": 0.17790103, "n": 0}, {"scriptPubKey": {"reqSigs": 1, "hex": "a914584adc2faacffd818f4a8f1a41b279d4b803e94c87", "addresses": ["39js4o7kidhoYcSck9s3F8P2tsoJswt1in"], "asm": "OP_HASH160 584adc2faacffd818f4a8f1a41b279d4b803e94c OP_EQUAL", "type": "scripthash"}, "value": 0.09776399, "n": 1}], "hex": "010000000001035f76cc6779685ba25486b3a1cf083623a57d54f4b6a114d15b01db193a0756530f00000023220020c26e3dbb7005ecbe8ff742d540f5b0cee101e6b0dcb7481a24d8b40b1e55b86dffffffff5cf5f1ade1a26a0067f16bf2b3361b317150b91acbac1a6b4e7b2e3d756eb8ad010000002322002061478b439bda5686082740848dc51df8345ab95a553b082a7495ca1ab15af77bffffffffbd0bb814b39a2790e2c97918d7c155f4867d95a2ef349b0d2ffa06b8499b975d00000000232200200615bcdfc01510c9a6f3e4405d4662ca94443a8433f48faf4c8f70ad95435919ffffffff0297740f010000000017a914cfaabfe8c271f99a4364b5197ba50c6cddb7adb9870f2d95000000000017a914584adc2faacffd818f4a8f1a41b279d4b803e94c8704004830450221008854b2a56d417c572cc401632398b3ac88b3db3eba6aa98c53b71cdc03967f8b022069c74bdcaf50af8bc415fe0260e22b76f549cfbf58e3a013f67491f19308428f01483045022100bece74456ef0111a819ddfb0c111eaea4d7fd89e6286cf2a0391335f811a000002200fc21faabc7c641ccfc6e73e55460a4849141fec3b5d1a2f39413372af559c3c0147522103ec7200679ddb5f3b6cb8f7120c29643d4dcd6d4225ec29f8567680ef15aa6b0521033e4af03ed09dbd8a417ba042650d5bd1db7f14f271a8f660974e3abf1fdfa4da52ae040047304402207b45af42ba522a5ce793c34d5ec5bff5d09ff35ad12e9e91b07517705359beb502206edf6bf543ae0c7f81c504a84fac18bffcdcf83f552a7129c92cf41c311790f70147304402200dd1e389cff0d43c26f9467e812541d6834c5971149ddfe736908890810be9d7022024fa29dcb4f42039b60caffc3559d4ff4b55c8b8b133e09b38b3dde9e1f869e401475221028a616df3a6b578986729b4082a8f4537c67acf221331b9a46ab5ad11d86dbc6621033e4af03ed09dbd8a417ba042650d5bd1db7f14f271a8f660974e3abf1fdfa4da52ae0400483045022100bc398b1337cb457e4a642be6716bb99c9e39dbcb95304f670d1668e470636b8502206077106ee9b5faaf6886c4ed89692c0026907492a290a76b51139e1d83ae9a0101473044022047010fe310dba013ebf8ab2a121f11880b1a55cfde78b491e5011b2a5eeb4e4e02207f2e1870b2d5441386e93f3e8f5bddfa2ad3b908d71644f04d5c9207e9de4e440147522103b168da0c68cb3eb86ab0f7f3b3f8e5a8d6f6cc70b34e1e777a3c720103da618921033e4af03ed09dbd8a417ba042650d5bd1db7f14f271a8f660974e3abf1fdfa4da52ae00000000", "vin": [{"txinwitness": ["", "30450221008854b2a56d417c572cc401632398b3ac88b3db3eba6aa98c53b71cdc03967f8b022069c74bdcaf50af8bc415fe0260e22b76f549cfbf58e3a013f67491f19308428f01", "3045022100bece74456ef0111a819ddfb0c111eaea4d7fd89e6286cf2a0391335f811a000002200fc21faabc7c641ccfc6e73e55460a4849141fec3b5d1a2f39413372af559c3c01", "522103ec7200679ddb5f3b6cb8f7120c29643d4dcd6d4225ec29f8567680ef15aa6b0521033e4af03ed09dbd8a417ba042650d5bd1db7f14f271a8f660974e3abf1fdfa4da52ae"], "sequence": 4294967295, "scriptSig": {"hex": "220020c26e3dbb7005ecbe8ff742d540f5b0cee101e6b0dcb7481a24d8b40b1e55b86d", "asm": "0020c26e3dbb7005ecbe8ff742d540f5b0cee101e6b0dcb7481a24d8b40b1e55b86d"}, "vout": 15, "txid": "5356073a19db015bd114a1b6f4547da5233608cfa1b38654a25b687967cc765f"}, {"txinwitness": ["", "304402207b45af42ba522a5ce793c34d5ec5bff5d09ff35ad12e9e91b07517705359beb502206edf6bf543ae0c7f81c504a84fac18bffcdcf83f552a7129c92cf41c311790f701", "304402200dd1e389cff0d43c26f9467e812541d6834c5971149ddfe736908890810be9d7022024fa29dcb4f42039b60caffc3559d4ff4b55c8b8b133e09b38b3dde9e1f869e401", "5221028a616df3a6b578986729b4082a8f4537c67acf221331b9a46ab5ad11d86dbc6621033e4af03ed09dbd8a417ba042650d5bd1db7f14f271a8f660974e3abf1fdfa4da52ae"], "sequence": 4294967295, "scriptSig": {"hex": "22002061478b439bda5686082740848dc51df8345ab95a553b082a7495ca1ab15af77b", "asm": "002061478b439bda5686082740848dc51df8345ab95a553b082a7495ca1ab15af77b"}, "vout": 1, "txid": "adb86e753d2e7b4e6b1aaccb1ab95071311b36b3f26bf167006aa2e1adf1f55c"}, {"txinwitness": ["", "3045022100bc398b1337cb457e4a642be6716bb99c9e39dbcb95304f670d1668e470636b8502206077106ee9b5faaf6886c4ed89692c0026907492a290a76b51139e1d83ae9a0101", "3044022047010fe310dba013ebf8ab2a121f11880b1a55cfde78b491e5011b2a5eeb4e4e02207f2e1870b2d5441386e93f3e8f5bddfa2ad3b908d71644f04d5c9207e9de4e4401", "522103b168da0c68cb3eb86ab0f7f3b3f8e5a8d6f6cc70b34e1e777a3c720103da618921033e4af03ed09dbd8a417ba042650d5bd1db7f14f271a8f660974e3abf1fdfa4da52ae"], "sequence": 4294967295, "scriptSig": {"hex": "2200200615bcdfc01510c9a6f3e4405d4662ca94443a8433f48faf4c8f70ad95435919", "asm": "00200615bcdfc01510c9a6f3e4405d4662ca94443a8433f48faf4c8f70ad95435919"}, "vout": 0, "txid": "5d979b49b806fa2f0d9b34efa2957d86f455c1d71879c9e290279ab314b80bbd"}], "txid": "27907a16920d74884e4a16cead9cc917110d421c1fac88821b79dc87f756511c", "blocktime": 1537869901, "version": 1, "confirmations": 11524, "time": 1537869901, "locktime": 0, "vsize": 467, "size": 961}