{"hash": "2790b149a9e6d8d9a0b9134a9e6decf41009d7b5d803293a80769077ec27773a", "blockhash": "00000000000000000024a2167bbff67b0be802c0b01cdd79e6331c2be6459f87", "vout": [{"scriptPubKey": {"reqSigs": 1, "hex": "76a91417c6a30091fc24dff6727f8641caa3e0fa0037c188ac", "addresses": ["13AiVwAaBCAtFW2GMbV7gvDCA3rXUvwoDB"], "asm": "OP_DUP OP_HASH160 17c6a30091fc24dff6727f8641caa3e0fa0037c1 OP_EQUALVERIFY OP_CHECKSIG", "type": "pubkeyhash"}, "value": 0.003779, "n": 0}, {"scriptPubKey": {"reqSigs": 1, "hex": "76a9145be122e0828db7e58dd95f9df1acf35f145642c588ac", "addresses": ["19NpCCQVLDFmQnipQSZoywwDwdZs1wQ9hy"], "asm": "OP_DUP OP_HASH160 5be122e0828db7e58dd95f9df1acf35f145642c5 OP_EQUALVERIFY OP_CHECKSIG", "type": "pubkeyhash"}, "value": 0.07875772, "n": 1}], "hex": "01000000017f4879c30486cef99dfad64acafb903a4378e9e336fce44f787128027836f128010000006b48304502210088e75db9a732925805f03a635051a2fe125ed78155629474c7ea1087677f799702205477a809eb4f8e5940a09324b2bf071eb722ec4f5e90c94dd291ae22f88b9af20121033dfab8c9d272b3b1eb0230f329237af9ea63ac8ac46acd6423e3817b32b9d4ccffffffff022cc40500000000001976a91417c6a30091fc24dff6727f8641caa3e0fa0037c188acbc2c7800000000001976a9145be122e0828db7e58dd95f9df1acf35f145642c588ac00000000", "vin": [{"sequence": 4294967295, "scriptSig": {"hex": "48304502210088e75db9a732925805f03a635051a2fe125ed78155629474c7ea1087677f799702205477a809eb4f8e5940a09324b2bf071eb722ec4f5e90c94dd291ae22f88b9af20121033dfab8c9d272b3b1eb0230f329237af9ea63ac8ac46acd6423e3817b32b9d4cc", "asm": "304502210088e75db9a732925805f03a635051a2fe125ed78155629474c7ea1087677f799702205477a809eb4f8e5940a09324b2bf071eb722ec4f5e90c94dd291ae22f88b9af2[ALL] 033dfab8c9d272b3b1eb0230f329237af9ea63ac8ac46acd6423e3817b32b9d4cc"}, "vout": 1, "txid": "28f13678022871784fe4fc36e3e978433a90fbca4ad6fa9df9ce8604c379487f"}], "txid": "2790b149a9e6d8d9a0b9134a9e6decf41009d7b5d803293a80769077ec27773a", "blocktime": 1537870564, "version": 1, "confirmations": 11515, "time": 1537870564, "locktime": 0, "vsize": 226, "size": 226}