{"hash": "c3d41df5a6d0f340d508506cefb918a2b2b3ccd3de69602e7f3f8886dd5b22c9", "blockhash": "0000000000000000000dcc0f55137456b1a82d3642486a52398922ac4d620174", "vout": [{"scriptPubKey": {"reqSigs": 1, "hex": "a914026b592d112a1b5658a07a4b344a5277d216896087", "addresses": ["31uoscyfdcxk1W8fNgyJKuxuYseUr28DqQ"], "asm": "OP_HASH160 026b592d112a1b5658a07a4b344a5277d2168960 OP_EQUAL", "type": "scripthash"}, "value": 0.10314007, "n": 0}, {"scriptPubKey": {"reqSigs": 1, "hex": "a91418caa57465db3a8dc079f30bd55c6d89af88414587", "addresses": ["33x6uG2kkUFExR6Fiaezenxix7eh1q6ojT"], "asm": "OP_HASH160 18caa57465db3a8dc079f30bd55c6d89af884145 OP_EQUAL", "type": "scripthash"}, "value": 0.10153, "n": 1}], "hex": "020000000001013fe9b9bf9d014cc3f15ab788a1eead03e5f901d1dbc3c1485ab77d4651ff0a4c0000000017160014cbd90e276010393652b6f1eada99b0650058be44fdffffff0217619d000000000017a914026b592d112a1b5658a07a4b344a5277d21689608728ec9a000000000017a91418caa57465db3a8dc079f30bd55c6d89af884145870247304402207f8f31e60a999a4108397f7ef4c9a606b0676b093dc8491be50a97c0c68ce752022047dedac29db7073ec75b2c707704a788f7ba172d68a533418bf58a44518b3533012102c5274e6009aa2f7ad75d6154b201f941da32de3e5f27d06fee13979810ce83d00c490800", "vin": [{"txinwitness": ["304402207f8f31e60a999a4108397f7ef4c9a606b0676b093dc8491be50a97c0c68ce752022047dedac29db7073ec75b2c707704a788f7ba172d68a533418bf58a44518b353301", "02c5274e6009aa2f7ad75d6154b201f941da32de3e5f27d06fee13979810ce83d0"], "sequence": 4294967293, "scriptSig": {"hex": "160014cbd90e276010393652b6f1eada99b0650058be44", "asm": "0014cbd90e276010393652b6f1eada99b0650058be44"}, "vout": 0, "txid": "4c0aff51467db75a48c1c3dbd101f9e503adeea188b75af1c34c019dbfb9e93f"}], "txid": "27950b01ec8c74a9aeda280101735205a816acd0126a95660f3e343263808b37", "blocktime": 1537870268, "version": 2, "confirmations": 11519, "time": 1537870268, "locktime": 542988, "vsize": 166, "size": 247}