{"hash": "279ac1477a713bd3a12bae8e03e15d0c700021cb6df48251e742bcb94c2f212e", "blockhash": "00000000000000000004ffacab907a6b429b9a5745fa0b75af4234bf69dd7176", "vout": [{"scriptPubKey": {"reqSigs": 1, "hex": "76a914bce8e8eff7d8b9b89c0faee3dc08b02a10d7939288ac", "addresses": ["1JDs3vrRCuay1EwHFH6YJL6iWuRsvomQMQ"], "asm": "OP_DUP OP_HASH160 bce8e8eff7d8b9b89c0faee3dc08b02a10d79392 OP_EQUALVERIFY OP_CHECKSIG", "type": "pubkeyhash"}, "value": 0.002321, "n": 0}, {"scriptPubKey": {"reqSigs": 1, "hex": "76a914ade5e4a14cfe12841b184f6c975233f9df444e8d88ac", "addresses": ["1GrVJSRXZB4W1mLYK2xfg9VZEi1m7ETRim"], "asm": "OP_DUP OP_HASH160 ade5e4a14cfe12841b184f6c975233f9df444e8d OP_EQUALVERIFY OP_CHECKSIG", "type": "pubkeyhash"}, "value": 0.01010019, "n": 1}], "hex": "010000000103e88a82d4800be29441d69431c4f8ddff6b1b6f6e03690f1bd9c74cbf3481b3010000006b483045022100851d57a0ac7f0db982c08b09c3a2c983089b71adb9a6aa569b89609d56297fc60220799fa456faaa004bfda688cb7f00e3448e92ca1720dae5af7a87399ea73ed17d012102095b1fae17cb0f776c80008ca53b4d27cc893c347e9855c56f8da8adfc73e0a0ffffffff02a48a0300000000001976a914bce8e8eff7d8b9b89c0faee3dc08b02a10d7939288ac63690f00000000001976a914ade5e4a14cfe12841b184f6c975233f9df444e8d88ac00000000", "vin": [{"sequence": 4294967295, "scriptSig": {"hex": "483045022100851d57a0ac7f0db982c08b09c3a2c983089b71adb9a6aa569b89609d56297fc60220799fa456faaa004bfda688cb7f00e3448e92ca1720dae5af7a87399ea73ed17d012102095b1fae17cb0f776c80008ca53b4d27cc893c347e9855c56f8da8adfc73e0a0", "asm": "3045022100851d57a0ac7f0db982c08b09c3a2c983089b71adb9a6aa569b89609d56297fc60220799fa456faaa004bfda688cb7f00e3448e92ca1720dae5af7a87399ea73ed17d[ALL] 02095b1fae17cb0f776c80008ca53b4d27cc893c347e9855c56f8da8adfc73e0a0"}, "vout": 1, "txid": "b38134bf4cc7d91b0f69036e6f1b6bffddf8c43194d64194e20b80d4828ae803"}], "txid": "279ac1477a713bd3a12bae8e03e15d0c700021cb6df48251e742bcb94c2f212e", "blocktime": 1537875543, "version": 1, "confirmations": 11464, "time": 1537875543, "locktime": 0, "vsize": 226, "size": 226}