{"hash": "be35dc988a80ad0bf39a500f29256ac3501df88147ca95ad95d9e9b219036ad2", "blockhash": "00000000000000000017f5eb5941039fbcee6240d03bc1f2f8e35350df66a1d8", "vout": [{"scriptPubKey": {"reqSigs": 1, "hex": "a91472caa1a5f9b59c369bcfd16839e5b17167a240e687", "addresses": ["3C9yhVU3abadRNismcPzKCUu7GHzFtNfoL"], "asm": "OP_HASH160 72caa1a5f9b59c369bcfd16839e5b17167a240e6 OP_EQUAL", "type": "scripthash"}, "value": 0.0032276, "n": 0}, {"scriptPubKey": {"reqSigs": 1, "hex": "a91497d1e2b086937745051e9fdd6a98c1d66d5e258687", "addresses": ["3FXmPcNsmap3hDK7smd7ASNW7WBhSKnUru"], "asm": "OP_HASH160 97d1e2b086937745051e9fdd6a98c1d66d5e2586 OP_EQUAL", "type": "scripthash"}, "value": 0.00999844, "n": 1}], "hex": "0200000000010282b912065947d7b51a26fbf4490b97da4f53c0238131563ed223a7914c75c2a71900000017160014425621cde3d0c216c36b3a99e9a0ff8ed25a6fd9feffffffc883c41d10518808b270f9bc4598c00e673d6f4a9fed3609cb870b6748eee5970000000017160014b6183b5234e2ba057054c4b3d3b87cd84dae30b4feffffff02c8ec04000000000017a91472caa1a5f9b59c369bcfd16839e5b17167a240e687a4410f000000000017a91497d1e2b086937745051e9fdd6a98c1d66d5e2586870247304402204df6c244bf00eeefdc3c0841e40df3a5e354a3bf093d3cdafe091e8b17b2eb2b0220501328658ecdbb44845d42d764793815b4c28f2dc3bfc98af101d52be8eb86340121030158deb62003538c88b3fec9039f79ad8251b18d7e876fce461853831daf3d4c02463043021f4da4504a67d847e80edf18335ba0e3c5f6868b6180a3a15b840eb13aad8c5c02202b1cbb268dc644dbdf677a6f295362c3c9c9e5961133e05f17a99f85b771355a012103f630a035eeacdb9485272b25f3ddc95918fee66caf6b790a1b402e7712123b8a15490800", "vin": [{"txinwitness": ["304402204df6c244bf00eeefdc3c0841e40df3a5e354a3bf093d3cdafe091e8b17b2eb2b0220501328658ecdbb44845d42d764793815b4c28f2dc3bfc98af101d52be8eb863401", "030158deb62003538c88b3fec9039f79ad8251b18d7e876fce461853831daf3d4c"], "sequence": 4294967294, "scriptSig": {"hex": "160014425621cde3d0c216c36b3a99e9a0ff8ed25a6fd9", "asm": "0014425621cde3d0c216c36b3a99e9a0ff8ed25a6fd9"}, "vout": 25, "txid": "a7c2754c91a723d23e56318123c0534fda970b49f4fb261ab5d747590612b982"}, {"txinwitness": ["3043021f4da4504a67d847e80edf18335ba0e3c5f6868b6180a3a15b840eb13aad8c5c02202b1cbb268dc644dbdf677a6f295362c3c9c9e5961133e05f17a99f85b771355a01", "03f630a035eeacdb9485272b25f3ddc95918fee66caf6b790a1b402e7712123b8a"], "sequence": 4294967294, "scriptSig": {"hex": "160014b6183b5234e2ba057054c4b3d3b87cd84dae30b4", "asm": "0014b6183b5234e2ba057054c4b3d3b87cd84dae30b4"}, "vout": 0, "txid": "97e5ee48670b87cb0936ed9f4a6f3d670ec09845bcf970b2088851101dc483c8"}], "txid": "279bed3781897ea2521496bcdceae837242af3ef0a3b3f9f471185bfacd59001", "blocktime": 1537874412, "version": 2, "confirmations": 11468, "time": 1537874412, "locktime": 542997, "vsize": 256, "size": 417}