{"hash": "6def7abb351522695f94b22c4fa9aa53082fd6480dba3a15c4e4a92785ccf27f", "blockhash": "00000000000000000024a2167bbff67b0be802c0b01cdd79e6331c2be6459f87", "vout": [{"scriptPubKey": {"reqSigs": 1, "hex": "76a9147dd24bf160664ea00fa26fbb0b188c15d29585cc88ac", "addresses": ["1CUHPeVGToYWMJqnAc5cXtLPdMxkocuCaN"], "asm": "OP_DUP OP_HASH160 7dd24bf160664ea00fa26fbb0b188c15d29585cc OP_EQUALVERIFY OP_CHECKSIG", "type": "pubkeyhash"}, "value": 0.0127713, "n": 0}, {"scriptPubKey": {"reqSigs": 1, "hex": "a914a6cc13217700482246be9815acebe7c19b12f7c587", "addresses": ["3GtxZkMowq6tAN48Z224R4saqBA8TAdFUm"], "asm": "OP_HASH160 a6cc13217700482246be9815acebe7c19b12f7c5 OP_EQUAL", "type": "scripthash"}, "value": 0.00998369, "n": 1}], "hex": "02000000000101cc9dc3d9daf6671df79f6f64d075f1ef73649959902227831580822ef0433d9000000000171600149a65ed3ebdec663c47104c1362a28e18a333e4fafeffffff02ca7c1300000000001976a9147dd24bf160664ea00fa26fbb0b188c15d29585cc88ace13b0f000000000017a914a6cc13217700482246be9815acebe7c19b12f7c58702483045022100bc6053353ad6009a648bf2d5237bf242d7df5444e9bfee7acbbd0aef9e53f0b9022012367df4a4ab57e803f3177702611084c23ec2ce302a33f2cd4fcd26088291e40121034e5fe79b5199741769539f377afe3ede009a02240c84d43c925eb16a6a0fa3730d490800", "vin": [{"txinwitness": ["3045022100bc6053353ad6009a648bf2d5237bf242d7df5444e9bfee7acbbd0aef9e53f0b9022012367df4a4ab57e803f3177702611084c23ec2ce302a33f2cd4fcd26088291e401", "034e5fe79b5199741769539f377afe3ede009a02240c84d43c925eb16a6a0fa373"], "sequence": 4294967294, "scriptSig": {"hex": "1600149a65ed3ebdec663c47104c1362a28e18a333e4fa", "asm": "00149a65ed3ebdec663c47104c1362a28e18a333e4fa"}, "vout": 0, "txid": "903d43f02e8280158327229059996473eff175d0646f9ff71d67f6dad9c39dcc"}], "txid": "279bf274edbce3a14987fa1b65fc30f1d1517396e5bfe20c09512cc6cdaa131a", "blocktime": 1537870564, "version": 2, "confirmations": 11515, "time": 1537870564, "locktime": 542989, "vsize": 168, "size": 250}