{"hash": "279bf0becaca32d5fd5d7905e32c469e7d9335e596b41d508989ad6e11d0fdad", "blockhash": "00000000000000000024a2167bbff67b0be802c0b01cdd79e6331c2be6459f87", "vout": [{"scriptPubKey": {"reqSigs": 1, "hex": "76a914833f389dc65f2ec44c10b25970f8f6c6a29528eb88ac", "addresses": ["1CxyFp9JijctVpV12YqMKtJWtBazaiV6rx"], "asm": "OP_DUP OP_HASH160 833f389dc65f2ec44c10b25970f8f6c6a29528eb OP_EQUALVERIFY OP_CHECKSIG", "type": "pubkeyhash"}, "value": 0.0086018, "n": 0}, {"scriptPubKey": {"reqSigs": 1, "hex": "a9142c2d5432f4d60f5edc20e72b2ae89ce8c025a39187", "addresses": ["35ibxVUBQyjEqoUXx5w33DYkCSzedjGZUe"], "asm": "OP_HASH160 2c2d5432f4d60f5edc20e72b2ae89ce8c025a391 OP_EQUAL", "type": "scripthash"}, "value": 0.039251, "n": 1}], "hex": "0100000002fca525f84ed587d22b4a8a657c612a749ed12e4f6802cbac2e93009f942e2389020000006b483045022100908c54958fe734068541d66bfaa7791fa96674088af2b5a27e4136dac6ca432b02207bdfc09e874015a312600080d46aab074a3a7ed82d98559ecb2e5984a6ea59a701210265e931c3c4d95de48ee7e0c257aa08c526520a7d2adc12999764c553c77b3034feffffffcc99ad0cbc0c7101384088f9ed48f1b085e33781770e5b55ee0197533a4298f4000000006b48304502210087c307cc5a496a0badd28811f744b505e88609a32fff0c3bbffda0d730fc168c02202142038b80fa0450f9e40b4f199752e3be50375f56d5eefe9c2d7bcfbde5fc7f0121036f6894ca97fc595e91e2d6cab2f01ea85a0375a5d9bedcd49184df0cd3d2122cfeffffff0214200d00000000001976a914833f389dc65f2ec44c10b25970f8f6c6a29528eb88ac6ce43b000000000017a9142c2d5432f4d60f5edc20e72b2ae89ce8c025a391870d490800", "vin": [{"sequence": 4294967294, "scriptSig": {"hex": "483045022100908c54958fe734068541d66bfaa7791fa96674088af2b5a27e4136dac6ca432b02207bdfc09e874015a312600080d46aab074a3a7ed82d98559ecb2e5984a6ea59a701210265e931c3c4d95de48ee7e0c257aa08c526520a7d2adc12999764c553c77b3034", "asm": "3045022100908c54958fe734068541d66bfaa7791fa96674088af2b5a27e4136dac6ca432b02207bdfc09e874015a312600080d46aab074a3a7ed82d98559ecb2e5984a6ea59a7[ALL] 0265e931c3c4d95de48ee7e0c257aa08c526520a7d2adc12999764c553c77b3034"}, "vout": 2, "txid": "89232e949f00932eaccb02684f2ed19e742a617c658a4a2bd287d54ef825a5fc"}, {"sequence": 4294967294, "scriptSig": {"hex": "48304502210087c307cc5a496a0badd28811f744b505e88609a32fff0c3bbffda0d730fc168c02202142038b80fa0450f9e40b4f199752e3be50375f56d5eefe9c2d7bcfbde5fc7f0121036f6894ca97fc595e91e2d6cab2f01ea85a0375a5d9bedcd49184df0cd3d2122c", "asm": "304502210087c307cc5a496a0badd28811f744b505e88609a32fff0c3bbffda0d730fc168c02202142038b80fa0450f9e40b4f199752e3be50375f56d5eefe9c2d7bcfbde5fc7f[ALL] 036f6894ca97fc595e91e2d6cab2f01ea85a0375a5d9bedcd49184df0cd3d2122c"}, "vout": 0, "txid": "f498423a539701ee555b0e778137e385b0f148edf988403801710cbc0cad99cc"}], "txid": "279bf0becaca32d5fd5d7905e32c469e7d9335e596b41d508989ad6e11d0fdad", "blocktime": 1537870564, "version": 1, "confirmations": 11515, "time": 1537870564, "locktime": 542989, "vsize": 372, "size": 372}