{"hash": "279c9bd7b64c44e4a396297eba60f0c6e9de1055364b5215f16faa965936856b", "blockhash": "0000000000000000001e0dab787dd257d1dbfcb92a98c2207d5e1078be1f4165", "vout": [{"scriptPubKey": {"reqSigs": 1, "hex": "001419498bc823cafba421ad2843018649e8879f86de", "addresses": ["bc1qr9ychjpreta6ggdd9ppsrpjfazrelpk7zwtdf3"], "asm": "0 19498bc823cafba421ad2843018649e8879f86de", "type": "witness_v0_keyhash"}, "value": 0.01310427, "n": 0}, {"scriptPubKey": {"reqSigs": 1, "hex": "a91469f37545e37950b58598e2281d03a13d2876dbee87", "addresses": ["3BMEXT7qw2nywZN8Zcgy8N4z1msCkmgMH3"], "asm": "OP_HASH160 69f37545e37950b58598e2281d03a13d2876dbee OP_EQUAL", "type": "scripthash"}, "value": 0.03690801, "n": 1}], "hex": "0100000001be795fa392319d181564ba6e6803334ccd9bf1eed929f709ce5f3f01311fcc40530000006a47304402206fd55aeaf2d60643ce46bfe6838e2f105cfcff6ef4b7c6a342138615448de5b60220610503226f5c2d5f0e3f43e180c2d04e3bd2bf19e3018a2c0a2786a731adedf6012102eae38527e8af1c2bc27ce818337ce26e318d44f29468349f1625bcaaebfa08faffffffff02dbfe13000000000016001419498bc823cafba421ad2843018649e8879f86de315138000000000017a91469f37545e37950b58598e2281d03a13d2876dbee8700000000", "vin": [{"sequence": 4294967295, "scriptSig": {"hex": "47304402206fd55aeaf2d60643ce46bfe6838e2f105cfcff6ef4b7c6a342138615448de5b60220610503226f5c2d5f0e3f43e180c2d04e3bd2bf19e3018a2c0a2786a731adedf6012102eae38527e8af1c2bc27ce818337ce26e318d44f29468349f1625bcaaebfa08fa", "asm": "304402206fd55aeaf2d60643ce46bfe6838e2f105cfcff6ef4b7c6a342138615448de5b60220610503226f5c2d5f0e3f43e180c2d04e3bd2bf19e3018a2c0a2786a731adedf6[ALL] 02eae38527e8af1c2bc27ce818337ce26e318d44f29468349f1625bcaaebfa08fa"}, "vout": 83, "txid": "40cc1f31013f5fce09f729d9eef19bcd4c3303686eba6415189d3192a35f79be"}], "txid": "279c9bd7b64c44e4a396297eba60f0c6e9de1055364b5215f16faa965936856b", "blocktime": 1537872475, "version": 1, "confirmations": 11486, "time": 1537872475, "locktime": 0, "vsize": 220, "size": 220}