{"hash": "1b025464116efe36ed0f7b12a455933f5986a7562894e2b96bc0b09aec2791d9", "blockhash": "0000000000000000001f76057863aec43deb6fa401d9628bb513d65a8098bfab", "vout": [{"scriptPubKey": {"reqSigs": 1, "hex": "76a914d8a3598d97c50d221909ddf90d02d7864632884088ac", "addresses": ["1LkUeBRE6Z6R7Y2j4C8iVmFGgppsGuWj88"], "asm": "OP_DUP OP_HASH160 d8a3598d97c50d221909ddf90d02d78646328840 OP_EQUALVERIFY OP_CHECKSIG", "type": "pubkeyhash"}, "value": 0.00027745, "n": 0}], "hex": "0200000000010182b429f612dff9db09158295a4ce726408174c48171f783abfdda9a4f79fbf2401000000171600144f91a91fc74ee8deafabf006c36b1996789c2a2fffffffff01616c0000000000001976a914d8a3598d97c50d221909ddf90d02d7864632884088ac02483045022100f796101a45b53cee0e8ffa9a5d9f0e7622a2cb5a6466ef8b237565ac56a57321022028cb29d14fc675cc8114e66c5a7aad29b7a37bf58fb017a7483e30425feaa4e801210301dd7c7dfc08f38632b117cf662d2cfc4363d12165632ffb36afb161d9b6efbb00000000", "vin": [{"txinwitness": ["3045022100f796101a45b53cee0e8ffa9a5d9f0e7622a2cb5a6466ef8b237565ac56a57321022028cb29d14fc675cc8114e66c5a7aad29b7a37bf58fb017a7483e30425feaa4e801", "0301dd7c7dfc08f38632b117cf662d2cfc4363d12165632ffb36afb161d9b6efbb"], "sequence": 4294967295, "scriptSig": {"hex": "1600144f91a91fc74ee8deafabf006c36b1996789c2a2f", "asm": "00144f91a91fc74ee8deafabf006c36b1996789c2a2f"}, "vout": 1, "txid": "24bf9ff7a4a9ddbf3a781f17484c17086472cea495821509dbf9df12f629b482"}], "txid": "27a8d31de1ddf5dc39e573eefe67d9f4d08f1eea90d348761ede0a9502f306bd", "blocktime": 1537873891, "version": 2, "confirmations": 11478, "time": 1537873891, "locktime": 0, "vsize": 136, "size": 218}