{"hash": "6ea299505ac95a09e2a9bdc97032a025409ee886cce78804ceea351b93f90b6a", "blockhash": "00000000000000000017f5eb5941039fbcee6240d03bc1f2f8e35350df66a1d8", "vout": [{"scriptPubKey": {"reqSigs": 1, "hex": "76a91428ba951294147d1ac0ee4e0bdf40035334f0647088ac", "addresses": ["14iMYe71gimpaY32WvX8ZqKJMUYfnAXsZ5"], "asm": "OP_DUP OP_HASH160 28ba951294147d1ac0ee4e0bdf40035334f06470 OP_EQUALVERIFY OP_CHECKSIG", "type": "pubkeyhash"}, "value": 0.001083, "n": 0}, {"scriptPubKey": {"reqSigs": 1, "hex": "a91491c716df7d7aef3620c589795cf94b5e993903c187", "addresses": ["3EypQL4rtS6hLdjUojhRzdzYpprpTuAU77"], "asm": "OP_HASH160 91c716df7d7aef3620c589795cf94b5e993903c1 OP_EQUAL", "type": "scripthash"}, "value": 0.23011059, "n": 1}], "hex": "01000000000101b7fdacb29b379ebed3d7e9fa3e1c625afc9ac9db0ade8111b1d51948d5d53a8001000000232200203f51054202aadf157c76e0de1a9529d9c6951ed5bfc6e86fa58cc8ed43142816ffffffff020ca70100000000001976a91428ba951294147d1ac0ee4e0bdf40035334f0647088acf31e5f010000000017a91491c716df7d7aef3620c589795cf94b5e993903c1870400483045022100f08f069e653ed26fe82b62fc12c8d6a2d21f3f0b8b8bd794448631e7d3e2172a02202d3ba18fd224e34e3459e7cd88bd71527301e93025f92fb84771aeb2913f34fb0147304402205fe9aaaba00ec0b9ce666aef21a0d7d74553d7db2e8e008b331658ceaecc7898022076b082ac4313572b85c99ecac59666747fb840cc3b84887e1b9bc97f99bc85f00147522102388ce407d26cc248a985bf66a2b2ed62a036bb401b05ffb380edebab3b79424e2102a6fa9c8ff2baca070653cc35bf13fbcd4a2b96715926f24d5a44b736d40cbc5652ae00000000", "vin": [{"txinwitness": ["", "3045022100f08f069e653ed26fe82b62fc12c8d6a2d21f3f0b8b8bd794448631e7d3e2172a02202d3ba18fd224e34e3459e7cd88bd71527301e93025f92fb84771aeb2913f34fb01", "304402205fe9aaaba00ec0b9ce666aef21a0d7d74553d7db2e8e008b331658ceaecc7898022076b082ac4313572b85c99ecac59666747fb840cc3b84887e1b9bc97f99bc85f001", "522102388ce407d26cc248a985bf66a2b2ed62a036bb401b05ffb380edebab3b79424e2102a6fa9c8ff2baca070653cc35bf13fbcd4a2b96715926f24d5a44b736d40cbc5652ae"], "sequence": 4294967295, "scriptSig": {"hex": "2200203f51054202aadf157c76e0de1a9529d9c6951ed5bfc6e86fa58cc8ed43142816", "asm": "00203f51054202aadf157c76e0de1a9529d9c6951ed5bfc6e86fa58cc8ed43142816"}, "vout": 1, "txid": "803ad5d54819d5b11181de0adbc99afc5a621c3efae9d7d3be9e379bb2acfdb7"}], "txid": "27ae93bca3352ce30df7774ce7768e1a32326aed9e0802946e31740fb400b055", "blocktime": 1537874412, "version": 1, "confirmations": 11468, "time": 1537874412, "locktime": 0, "vsize": 208, "size": 373}