{"hash": "27af2c08d7132762847293250e36645050dd5ce302af934029a6afced48ee47e", "blockhash": "0000000000000000000dcc0f55137456b1a82d3642486a52398922ac4d620174", "vout": [{"scriptPubKey": {"reqSigs": 1, "hex": "76a9149cfa5d27bb1e4b92cfe47b565f64111a05fe0dfa88ac", "addresses": ["1FK2LWn8CRtz968YhF8JjiRydEdNCShmr7"], "asm": "OP_DUP OP_HASH160 9cfa5d27bb1e4b92cfe47b565f64111a05fe0dfa OP_EQUALVERIFY OP_CHECKSIG", "type": "pubkeyhash"}, "value": 0.00263602, "n": 0}, {"scriptPubKey": {"reqSigs": 1, "hex": "76a9141f57479d6969faaaff22132156110904e8bda5fa88ac", "addresses": ["13riWFVHFr8ojXtyu6LkSF7NyysaTHxRzu"], "asm": "OP_DUP OP_HASH160 1f57479d6969faaaff22132156110904e8bda5fa OP_EQUALVERIFY OP_CHECKSIG", "type": "pubkeyhash"}, "value": 0.0327453, "n": 1}], "hex": "010000000251041b7ae9ffb429ec2e1d789859434a508c5bb670fca7bfdef6e2524da0f2c4000000006b4830450221009768421eeb6e096c020b6b2299514c648ad1f28b3d1653cea2ad3320f7c2d0ba022078c5e94f0afbd79ad7bec1296ed7ea231647174d12d11867eaacbfcf262d72ff0121020a5801dd9b92a42e62438c637d3ecea5201fe147df54da31c8b51e7b316255ceffffffffc9c1a6b62c9070af6ff595a7d8f55a43f4729417a27944cb15ad8347aaeaf0cc020000006a47304402202ebffcc1b2ec3b65f3a3c8d80db07f4fd0578b1c088f66560045aa5db06c6feb022063428ddd57442b00bcb52a754b3be148d1364f231156b39e9a6e691546c84350012103979375a912d1206028ba5e82566ae6d75b43e4f9c096151ee4e39b557581cd10ffffffff02b2050400000000001976a9149cfa5d27bb1e4b92cfe47b565f64111a05fe0dfa88ac22f73100000000001976a9141f57479d6969faaaff22132156110904e8bda5fa88ac00000000", "vin": [{"sequence": 4294967295, "scriptSig": {"hex": "4830450221009768421eeb6e096c020b6b2299514c648ad1f28b3d1653cea2ad3320f7c2d0ba022078c5e94f0afbd79ad7bec1296ed7ea231647174d12d11867eaacbfcf262d72ff0121020a5801dd9b92a42e62438c637d3ecea5201fe147df54da31c8b51e7b316255ce", "asm": "30450221009768421eeb6e096c020b6b2299514c648ad1f28b3d1653cea2ad3320f7c2d0ba022078c5e94f0afbd79ad7bec1296ed7ea231647174d12d11867eaacbfcf262d72ff[ALL] 020a5801dd9b92a42e62438c637d3ecea5201fe147df54da31c8b51e7b316255ce"}, "vout": 0, "txid": "c4f2a04d52e2f6debfa7fc70b65b8c504a435998781d2eec29b4ffe97a1b0451"}, {"sequence": 4294967295, "scriptSig": {"hex": "47304402202ebffcc1b2ec3b65f3a3c8d80db07f4fd0578b1c088f66560045aa5db06c6feb022063428ddd57442b00bcb52a754b3be148d1364f231156b39e9a6e691546c84350012103979375a912d1206028ba5e82566ae6d75b43e4f9c096151ee4e39b557581cd10", "asm": "304402202ebffcc1b2ec3b65f3a3c8d80db07f4fd0578b1c088f66560045aa5db06c6feb022063428ddd57442b00bcb52a754b3be148d1364f231156b39e9a6e691546c84350[ALL] 03979375a912d1206028ba5e82566ae6d75b43e4f9c096151ee4e39b557581cd10"}, "vout": 2, "txid": "ccf0eaaa4783ad15cb4479a2179472f4435af5d8a795f56faf70902cb6a6c1c9"}], "txid": "27af2c08d7132762847293250e36645050dd5ce302af934029a6afced48ee47e", "blocktime": 1537870268, "version": 1, "confirmations": 11518, "time": 1537870268, "locktime": 0, "vsize": 373, "size": 373}