{"hash": "27b0f1d552745be729a628854d226edb68a877a96e579fe74b5cc85c807d7680", "blockhash": "00000000000000000004ffacab907a6b429b9a5745fa0b75af4234bf69dd7176", "vout": [{"scriptPubKey": {"reqSigs": 1, "hex": "76a914ca6403bf1afa4d85bd6da313affa8a5cafb7fd5588ac", "addresses": ["1KT9JtXZnXcMmZ9UGZCVZVdDw6qMsqLLkY"], "asm": "OP_DUP OP_HASH160 ca6403bf1afa4d85bd6da313affa8a5cafb7fd55 OP_EQUALVERIFY OP_CHECKSIG", "type": "pubkeyhash"}, "value": 0.0002, "n": 0}, {"scriptPubKey": {"reqSigs": 1, "hex": "76a9145dde06eb0cf4cf34190862bce875c31147357fad88ac", "addresses": ["19ZKpYoX4Dd8gm99yLmnxeog3NjGP1m4Gy"], "asm": "OP_DUP OP_HASH160 5dde06eb0cf4cf34190862bce875c31147357fad OP_EQUALVERIFY OP_CHECKSIG", "type": "pubkeyhash"}, "value": 0.01000422, "n": 1}], "hex": "010000000283e70bb30ed18661b47ec99f16c2ee978be24e5e945598e1edfd5d2380959437000000006b483045022100a999dfec544e55773e3fe47645e218d818c820094c6cf8b98fa262639a6f66c202206907526a9abaf420c47a764ab2a306a2a34c41f0e1f15c445ae3a16271b73bc40121038f6f958ca7c08ebe239c883a1db61021dbb269449d65e3953eefb2d1fbd7e1dafeffffff83e70bb30ed18661b47ec99f16c2ee978be24e5e945598e1edfd5d2380959437010000006b483045022100f1975bb5d7b9dea6425d4f049452e41f8d4df6b38883fb681e3c80905ef578a402201475d711cfd759c3debfdc0dcbb7956ff36febd3403e413da11a52354cb4d40c01210324f35cf245806dacda6ab2b296e2bfa4a1a486dfa30b607f2db7a117be9a03bcfeffffff02204e0000000000001976a914ca6403bf1afa4d85bd6da313affa8a5cafb7fd5588ace6430f00000000001976a9145dde06eb0cf4cf34190862bce875c31147357fad88ac16490800", "vin": [{"sequence": 4294967294, "scriptSig": {"hex": "483045022100a999dfec544e55773e3fe47645e218d818c820094c6cf8b98fa262639a6f66c202206907526a9abaf420c47a764ab2a306a2a34c41f0e1f15c445ae3a16271b73bc40121038f6f958ca7c08ebe239c883a1db61021dbb269449d65e3953eefb2d1fbd7e1da", "asm": "3045022100a999dfec544e55773e3fe47645e218d818c820094c6cf8b98fa262639a6f66c202206907526a9abaf420c47a764ab2a306a2a34c41f0e1f15c445ae3a16271b73bc4[ALL] 038f6f958ca7c08ebe239c883a1db61021dbb269449d65e3953eefb2d1fbd7e1da"}, "vout": 0, "txid": "37949580235dfdede19855945e4ee28b97eec2169fc97eb46186d10eb30be783"}, {"sequence": 4294967294, "scriptSig": {"hex": "483045022100f1975bb5d7b9dea6425d4f049452e41f8d4df6b38883fb681e3c80905ef578a402201475d711cfd759c3debfdc0dcbb7956ff36febd3403e413da11a52354cb4d40c01210324f35cf245806dacda6ab2b296e2bfa4a1a486dfa30b607f2db7a117be9a03bc", "asm": "3045022100f1975bb5d7b9dea6425d4f049452e41f8d4df6b38883fb681e3c80905ef578a402201475d711cfd759c3debfdc0dcbb7956ff36febd3403e413da11a52354cb4d40c[ALL] 0324f35cf245806dacda6ab2b296e2bfa4a1a486dfa30b607f2db7a117be9a03bc"}, "vout": 1, "txid": "37949580235dfdede19855945e4ee28b97eec2169fc97eb46186d10eb30be783"}], "txid": "27b0f1d552745be729a628854d226edb68a877a96e579fe74b5cc85c807d7680", "blocktime": 1537875543, "version": 1, "confirmations": 11464, "time": 1537875543, "locktime": 542998, "vsize": 374, "size": 374}