{"hash": "27b13d4fc3af8d4342a571015dad55fb3ca3e3662cd9fe29c7192ac336639f94", "blockhash": "0000000000000000000baef3f32e3676a92c3b2e5da21b426e4f302fc371ce76", "vout": [{"scriptPubKey": {"reqSigs": 1, "hex": "a914a9cae2fc76a686346c8b3725642568efeab7ba3387", "addresses": ["3HAoAmwhcjS5gVnBRHfJgfPCUGWgPi6V6B"], "asm": "OP_HASH160 a9cae2fc76a686346c8b3725642568efeab7ba33 OP_EQUAL", "type": "scripthash"}, "value": 0.0024056, "n": 0}, {"scriptPubKey": {"reqSigs": 1, "hex": "76a9143039585810c9eca0c4866fb13efc225ba7d22b2088ac", "addresses": ["15Pz8cfH7Ksh2ukBfqmwX33KeZMGSGAAs1"], "asm": "OP_DUP OP_HASH160 3039585810c9eca0c4866fb13efc225ba7d22b20 OP_EQUALVERIFY OP_CHECKSIG", "type": "pubkeyhash"}, "value": 0.00591581, "n": 1}], "hex": "01000000015d309ac6b5e8abeda6d6a7d7f40e5ed1e6ad891b1e60fb013bb3d23f41e84357010000006a47304402205090aceb046c0190a438e4fbb07a9528073ac95d64427a239c33b9588e4c2b1502205b0fdcb1fc1a3d2dc99e0c2f07d70b386045d626222593706bdc395fd21f7775012103fae34a0c6b4d2a3414fefb09eb7d59d0c9bcd1c24b819ba776b709aa92c7fd63ffffffff02b0ab03000000000017a914a9cae2fc76a686346c8b3725642568efeab7ba3387dd060900000000001976a9143039585810c9eca0c4866fb13efc225ba7d22b2088ac00000000", "vin": [{"sequence": 4294967295, "scriptSig": {"hex": "47304402205090aceb046c0190a438e4fbb07a9528073ac95d64427a239c33b9588e4c2b1502205b0fdcb1fc1a3d2dc99e0c2f07d70b386045d626222593706bdc395fd21f7775012103fae34a0c6b4d2a3414fefb09eb7d59d0c9bcd1c24b819ba776b709aa92c7fd63", "asm": "304402205090aceb046c0190a438e4fbb07a9528073ac95d64427a239c33b9588e4c2b1502205b0fdcb1fc1a3d2dc99e0c2f07d70b386045d626222593706bdc395fd21f7775[ALL] 03fae34a0c6b4d2a3414fefb09eb7d59d0c9bcd1c24b819ba776b709aa92c7fd63"}, "vout": 1, "txid": "5743e8413fd2b33b01fb601e1b89ade6d15e0ef4d7a7d6a6edabe8b5c69a305d"}], "txid": "27b13d4fc3af8d4342a571015dad55fb3ca3e3662cd9fe29c7192ac336639f94", "blocktime": 1537876114, "version": 1, "confirmations": 11460, "time": 1537876114, "locktime": 0, "vsize": 223, "size": 223}