{"hash": "27b785926a2472b7a55d27a201fd4e62e430f309548aceb176eae2de0b5dbd0f", "blockhash": "0000000000000000001f0ddff1eddb255c1121bcd4da4f1bc9a0da00cae72433", "vout": [{"scriptPubKey": {"reqSigs": 1, "hex": "76a9148c3d1697b1dd500721ea5d86d5d3fdf13d8f800788ac", "addresses": ["1DnWnLrwPf9bseK9f1FyHbFAqy2DBewy2q"], "asm": "OP_DUP OP_HASH160 8c3d1697b1dd500721ea5d86d5d3fdf13d8f8007 OP_EQUALVERIFY OP_CHECKSIG", "type": "pubkeyhash"}, "value": 0.01025166, "n": 0}, {"scriptPubKey": {"reqSigs": 1, "hex": "a9145b2ad7312dad3ec61391fed17cbce5f0d1d87fb187", "addresses": ["3A14jcjoJ3nqZDdwE3q6eZG6QPKiiL58TQ"], "asm": "OP_HASH160 5b2ad7312dad3ec61391fed17cbce5f0d1d87fb1 OP_EQUAL", "type": "scripthash"}, "value": 0.02788, "n": 1}], "hex": "020000000304a5c5e6ffc020fae9381d927491122d77787d9f4c9697c805c9c78035a45e61010000006b48304502210097f350e8895b6f97ae1b66fa2f1faed8e55dda2d36c52def6c6284bb66c0bd7a0220094be37a11d2b6daf86737a5d820d669c29d5922569a5cba0de9e8809de387b701210260b9d6919c74dad61e62f7b015f61bb9f3e8d68ad460ffab842d0bd95834257efeffffff2c373d1b0c62eb5a120323cf1d7ed9fe44ec899e66591b37c58a61381be0ee1a000000006b483045022100a141fc5201a8a8be43aa2631b3f6fc61c8c76c15860e4075c96eaef08b7cb38802204c885c0fd9e95778f6d3d0271a30f5aefa8cad4e78bccdb242836eda9c0e35cc012102fb86d70bc5faa018a5c0bd873b9d2594b1aa82ad24d441245dcc2cd163d5cb5dfeffffff7175fbc69e7739c34c5b0c0089b7f59b20c5a06560860c47491fae29e99c74d8010000006a473044022050ebdce6141c2a6d54acc38ac1d7378ca5efe4d7c9f96722fdcabb59a56cd219022006f1a13b2ea4250ce674ac96390bf5fa869f147a9c1b6c9e83d587758a116cd1012102f37ce9c2cd7487995bec49aba4d13eb158a035a6c3660ece62b028813211ac76feffffff028ea40f00000000001976a9148c3d1697b1dd500721ea5d86d5d3fdf13d8f800788aca08a2a000000000017a9145b2ad7312dad3ec61391fed17cbce5f0d1d87fb18711490800", "vin": [{"sequence": 4294967294, "scriptSig": {"hex": "48304502210097f350e8895b6f97ae1b66fa2f1faed8e55dda2d36c52def6c6284bb66c0bd7a0220094be37a11d2b6daf86737a5d820d669c29d5922569a5cba0de9e8809de387b701210260b9d6919c74dad61e62f7b015f61bb9f3e8d68ad460ffab842d0bd95834257e", "asm": "304502210097f350e8895b6f97ae1b66fa2f1faed8e55dda2d36c52def6c6284bb66c0bd7a0220094be37a11d2b6daf86737a5d820d669c29d5922569a5cba0de9e8809de387b7[ALL] 0260b9d6919c74dad61e62f7b015f61bb9f3e8d68ad460ffab842d0bd95834257e"}, "vout": 1, "txid": "615ea43580c7c905c897964c9f7d78772d129174921d38e9fa20c0ffe6c5a504"}, {"sequence": 4294967294, "scriptSig": {"hex": "483045022100a141fc5201a8a8be43aa2631b3f6fc61c8c76c15860e4075c96eaef08b7cb38802204c885c0fd9e95778f6d3d0271a30f5aefa8cad4e78bccdb242836eda9c0e35cc012102fb86d70bc5faa018a5c0bd873b9d2594b1aa82ad24d441245dcc2cd163d5cb5d", "asm": "3045022100a141fc5201a8a8be43aa2631b3f6fc61c8c76c15860e4075c96eaef08b7cb38802204c885c0fd9e95778f6d3d0271a30f5aefa8cad4e78bccdb242836eda9c0e35cc[ALL] 02fb86d70bc5faa018a5c0bd873b9d2594b1aa82ad24d441245dcc2cd163d5cb5d"}, "vout": 0, "txid": "1aeee01b38618ac5371b59669e89ec44fed97e1dcf2303125aeb620c1b3d372c"}, {"sequence": 4294967294, "scriptSig": {"hex": "473044022050ebdce6141c2a6d54acc38ac1d7378ca5efe4d7c9f96722fdcabb59a56cd219022006f1a13b2ea4250ce674ac96390bf5fa869f147a9c1b6c9e83d587758a116cd1012102f37ce9c2cd7487995bec49aba4d13eb158a035a6c3660ece62b028813211ac76", "asm": "3044022050ebdce6141c2a6d54acc38ac1d7378ca5efe4d7c9f96722fdcabb59a56cd219022006f1a13b2ea4250ce674ac96390bf5fa869f147a9c1b6c9e83d587758a116cd1[ALL] 02f37ce9c2cd7487995bec49aba4d13eb158a035a6c3660ece62b028813211ac76"}, "vout": 1, "txid": "d8749ce929ae1f49470c866065a0c5209bf5b789000c5b4cc339779ec6fb7571"}], "txid": "27b785926a2472b7a55d27a201fd4e62e430f309548aceb176eae2de0b5dbd0f", "blocktime": 1537872018, "version": 2, "confirmations": 11489, "time": 1537872018, "locktime": 542993, "vsize": 519, "size": 519}