{"hash": "bc2d76619eeedd244844375996237adfd0944edfd1f7a3aa52896356ac34811b", "blockhash": "00000000000000000017f5eb5941039fbcee6240d03bc1f2f8e35350df66a1d8", "vout": [{"scriptPubKey": {"reqSigs": 1, "hex": "a9146b62f969aae78fbefe849d2c2e29c9b03089da1587", "addresses": ["3BUpnvT3QpzEX9W27BKqUrxni6SrkDTTYp"], "asm": "OP_HASH160 6b62f969aae78fbefe849d2c2e29c9b03089da15 OP_EQUAL", "type": "scripthash"}, "value": 2.0, "n": 0}, {"scriptPubKey": {"reqSigs": 1, "hex": "a914cdaca7630e9f88562526644d72c241097d5ee40687", "addresses": ["3LSXH4xuWpV2srNSzZ9PUPBcwkT9DLD8u4"], "asm": "OP_HASH160 cdaca7630e9f88562526644d72c241097d5ee406 OP_EQUAL", "type": "scripthash"}, "value": 57.69993642, "n": 1}], "hex": "0100000000010137d5c1f9e1ef9f22e6131cc115266d4f033489d23e456579da6be6fab51b7eba010000001716001423f020d6435b594aaf43a24dd67849e67fac1382ffffffff0200c2eb0b0000000017a9146b62f969aae78fbefe849d2c2e29c9b03089da1587aa1deb570100000017a914cdaca7630e9f88562526644d72c241097d5ee4068702483045022100c65e3f88cead90dda0f87a1023c3f7ef9e65b6193e2ff0907d12262ee8809846022076ff8b26ae7e9e6fd5267d0b05c77e6cb5eac79938331e9ac6c93a13d2a134ad012103012149e731ced1efe2678be105eb2bb652dab7c97f9a20afba0e7a2894f8d21e00000000", "vin": [{"txinwitness": ["3045022100c65e3f88cead90dda0f87a1023c3f7ef9e65b6193e2ff0907d12262ee8809846022076ff8b26ae7e9e6fd5267d0b05c77e6cb5eac79938331e9ac6c93a13d2a134ad01", "03012149e731ced1efe2678be105eb2bb652dab7c97f9a20afba0e7a2894f8d21e"], "sequence": 4294967295, "scriptSig": {"hex": "16001423f020d6435b594aaf43a24dd67849e67fac1382", "asm": "001423f020d6435b594aaf43a24dd67849e67fac1382"}, "vout": 1, "txid": "ba7e1bb5fae66bda7965453ed28934034f6d2615c11c13e6229fefe1f9c1d537"}], "txid": "27ba6f1fff9131f6e59ff74bd7f7b0aebb3570d556b5b0d3536fddb456679f09", "blocktime": 1537874412, "version": 1, "confirmations": 11467, "time": 1537874412, "locktime": 0, "vsize": 166, "size": 248}