{"hash": "eb59ccbafd2fafae0cae515e127fd244fedd1a446229037607ee03acef989b38", "blockhash": "0000000000000000001e0dab787dd257d1dbfcb92a98c2207d5e1078be1f4165", "vout": [{"scriptPubKey": {"reqSigs": 1, "hex": "a914535a19ff287bf65e80f9ba4f19d7cafdf7e02ac887", "addresses": ["39HjwqA5H8VsWMUURSCBGNnmsFPRrHae6n"], "asm": "OP_HASH160 535a19ff287bf65e80f9ba4f19d7cafdf7e02ac8 OP_EQUAL", "type": "scripthash"}, "value": 0.01023308, "n": 0}, {"scriptPubKey": {"reqSigs": 1, "hex": "76a914eaa7ee27a7b3d42f66c618e4edc57a358c44e37288ac", "addresses": ["1NPkHtbcqnNA4npeZUnnxYBjT55iggBucU"], "asm": "OP_DUP OP_HASH160 eaa7ee27a7b3d42f66c618e4edc57a358c44e372 OP_EQUALVERIFY OP_CHECKSIG", "type": "pubkeyhash"}, "value": 0.1275159, "n": 1}], "hex": "0200000000010459bf7d33cc7cfb755601324089be36c6b4d093f97df70953292ffedc901081b0010000006b483045022100a8a7c40fa8919153973e6e8adef33e606f06556ba9860d74461f21c3aac92f400220421e2a690b78b2917eef3bf8e8bb1f826dce2073e00d676ee368fd0120d17661012103a5cca3a7b928f74bb921dd642fa8932025204e513c94b229447880902831e604feffffff7d21a6c57d1db333a79c92bdd2c5bb78dfe11aca6237e98cc71c708bf96ab28e010000001716001438586dc5c0c502343770cc959a422d78e14fb8a7feffffff999b2f02f82ecbf92a723822878f851af68527bf834f06e6e44eda824978e00e01000000171600148d2e128acd464679c1e52ee0bf36275c17f77740fefffffff5c932438b42479e9809571c3090ec1906e3afa56ca1b10d27f36c6f31005259010000001716001401b1f554ddb095b03ad6df8336c3b2fdd8bf763efeffffff024c9d0f000000000017a914535a19ff287bf65e80f9ba4f19d7cafdf7e02ac887e692c200000000001976a914eaa7ee27a7b3d42f66c618e4edc57a358c44e37288ac0002473044022057982767bb2d1803632076e0fc36adfea78e24bc6ad7ceefcfcc16b84b82c621022049ae5e7cbbdfcd8383a6651f8eb11653cd8eb0595c7059d354761035c83ce4ae01210376c5ba9af95bf8132f524b7928ba6edeb5455d1ecde2d6e261459d01fca5458902473044022001e0e15ae58d835706af3481c13897a13f543e18ed5054dd07fca88258d1766f02206ac2b5f464086f4b2ea5bcfd46da552ed7525494f07ad91966fb45fd3c373021012102e7554fd0d14bf255aec0367d61519d6c0c7ac779d982bc59b68df7ed10e7d90e02483045022100bfa2490e67021c1a42aa2ec3a1dc312ed4bec55cebc9d41884b803acdc10a693022054146c6deb19d799e11f0377687e125e3b1f37ceb97d968fd8b00680fc175591012103c999f525dc7e20ac3600dd4b8e15188307bc555e7d9fe48399eac410c99b50a0de480800", "vin": [{"sequence": 4294967294, "scriptSig": {"hex": "483045022100a8a7c40fa8919153973e6e8adef33e606f06556ba9860d74461f21c3aac92f400220421e2a690b78b2917eef3bf8e8bb1f826dce2073e00d676ee368fd0120d17661012103a5cca3a7b928f74bb921dd642fa8932025204e513c94b229447880902831e604", "asm": "3045022100a8a7c40fa8919153973e6e8adef33e606f06556ba9860d74461f21c3aac92f400220421e2a690b78b2917eef3bf8e8bb1f826dce2073e00d676ee368fd0120d17661[ALL] 03a5cca3a7b928f74bb921dd642fa8932025204e513c94b229447880902831e604"}, "vout": 1, "txid": "b0811090dcfe2f295309f77df993d0b4c636be894032015675fb7ccc337dbf59"}, {"txinwitness": ["3044022057982767bb2d1803632076e0fc36adfea78e24bc6ad7ceefcfcc16b84b82c621022049ae5e7cbbdfcd8383a6651f8eb11653cd8eb0595c7059d354761035c83ce4ae01", "0376c5ba9af95bf8132f524b7928ba6edeb5455d1ecde2d6e261459d01fca54589"], "sequence": 4294967294, "scriptSig": {"hex": "16001438586dc5c0c502343770cc959a422d78e14fb8a7", "asm": "001438586dc5c0c502343770cc959a422d78e14fb8a7"}, "vout": 1, "txid": "8eb26af98b701cc78ce93762ca1ae1df78bbc5d2bd929ca733b31d7dc5a6217d"}, {"txinwitness": ["3044022001e0e15ae58d835706af3481c13897a13f543e18ed5054dd07fca88258d1766f02206ac2b5f464086f4b2ea5bcfd46da552ed7525494f07ad91966fb45fd3c37302101", "02e7554fd0d14bf255aec0367d61519d6c0c7ac779d982bc59b68df7ed10e7d90e"], "sequence": 4294967294, "scriptSig": {"hex": "1600148d2e128acd464679c1e52ee0bf36275c17f77740", "asm": "00148d2e128acd464679c1e52ee0bf36275c17f77740"}, "vout": 1, "txid": "0ee0784982da4ee4e6064f83bf2785f61a858f872238722af9cb2ef8022f9b99"}, {"txinwitness": ["3045022100bfa2490e67021c1a42aa2ec3a1dc312ed4bec55cebc9d41884b803acdc10a693022054146c6deb19d799e11f0377687e125e3b1f37ceb97d968fd8b00680fc17559101", "03c999f525dc7e20ac3600dd4b8e15188307bc555e7d9fe48399eac410c99b50a0"], "sequence": 4294967294, "scriptSig": {"hex": "16001401b1f554ddb095b03ad6df8336c3b2fdd8bf763e", "asm": "001401b1f554ddb095b03ad6df8336c3b2fdd8bf763e"}, "vout": 1, "txid": "595200316f6cf3270db1a16ca5afe30619ec90301c5709989e47428b4332c9f5"}], "txid": "27bd3a05d4f03f4324ae087ad47ccf78e28ebb22d58d6f21a690eff8f760c9d5", "blocktime": 1537872475, "version": 2, "confirmations": 11487, "time": 1537872475, "locktime": 542942, "vsize": 498, "size": 741}