{"hash": "27bf307e1640b210370253864bb7d2ae8546f79aa4dab777232e435edfef7825", "blockhash": "000000000000000000022b45ed06c6f4ccd3cf7fb5ba4856ebd2e58215665228", "vout": [{"scriptPubKey": {"reqSigs": 1, "hex": "76a914ac3d9fa2fc3677bb15fa4f28c49f3c430739af1688ac", "addresses": ["1Ghj3gE1rSpEC4vfvjscms9Rp8U418d7Yb"], "asm": "OP_DUP OP_HASH160 ac3d9fa2fc3677bb15fa4f28c49f3c430739af16 OP_EQUALVERIFY OP_CHECKSIG", "type": "pubkeyhash"}, "value": 0.02722682, "n": 0}, {"scriptPubKey": {"reqSigs": 1, "hex": "76a914953f197a54636551bf8bcf923aa00b402c6fcd6588ac", "addresses": ["1Ec9GpEnDncjHUddtV7o8v9pM7ck3GNTFK"], "asm": "OP_DUP OP_HASH160 953f197a54636551bf8bcf923aa00b402c6fcd65 OP_EQUALVERIFY OP_CHECKSIG", "type": "pubkeyhash"}, "value": 0.0155, "n": 1}], "hex": "01000000018ef00165d23c740d9a486981cea4aa62b654ee652030750a7ee0c6f769ed1ea8000000006b4830450221008be2fa274a3e7a330f46ca5afe536b6d26d445d00654d92e36f057438454ee54022075d64eaf9f236304b9ca5318cd34edb974603599c9841cbf2abcd15c94d09c3401210352fa6e5fa269deca2dcd473317ea77886a9e0419a3414574faea3ea5e8965eabffffffff027a8b2900000000001976a914ac3d9fa2fc3677bb15fa4f28c49f3c430739af1688acb0a61700000000001976a914953f197a54636551bf8bcf923aa00b402c6fcd6588ac00000000", "vin": [{"sequence": 4294967295, "scriptSig": {"hex": "4830450221008be2fa274a3e7a330f46ca5afe536b6d26d445d00654d92e36f057438454ee54022075d64eaf9f236304b9ca5318cd34edb974603599c9841cbf2abcd15c94d09c3401210352fa6e5fa269deca2dcd473317ea77886a9e0419a3414574faea3ea5e8965eab", "asm": "30450221008be2fa274a3e7a330f46ca5afe536b6d26d445d00654d92e36f057438454ee54022075d64eaf9f236304b9ca5318cd34edb974603599c9841cbf2abcd15c94d09c34[ALL] 0352fa6e5fa269deca2dcd473317ea77886a9e0419a3414574faea3ea5e8965eab"}, "vout": 0, "txid": "a81eed69f7c6e07e0a75302065ee54b662aaa4ce8169489a0d743cd26501f08e"}], "txid": "27bf307e1640b210370253864bb7d2ae8546f79aa4dab777232e435edfef7825", "blocktime": 1537869901, "version": 1, "confirmations": 11524, "time": 1537869901, "locktime": 0, "vsize": 226, "size": 226}