{"hash": "27c2b6fbe0f6e95615de2d28093d432fc9c8730d246f82033a39d773ed42bf09", "blockhash": "00000000000000000024a2167bbff67b0be802c0b01cdd79e6331c2be6459f87", "vout": [{"scriptPubKey": {"reqSigs": 1, "hex": "76a914a25dec4d0011064ef106a983c39c7a540699f22088ac", "addresses": ["1FoWyxwPXuj4C6abqwhjDWdz6D4PZgYRjA"], "asm": "OP_DUP OP_HASH160 a25dec4d0011064ef106a983c39c7a540699f220 OP_EQUALVERIFY OP_CHECKSIG", "type": "pubkeyhash"}, "value": 0.01990392, "n": 0}, {"scriptPubKey": {"type": "nulldata", "hex": "6a146f6d6e69000000000000001f0000022ecb25c000", "asm": "OP_RETURN 6f6d6e69000000000000001f0000022ecb25c000"}, "value": 0.0, "n": 1}, {"scriptPubKey": {"reqSigs": 1, "hex": "76a91479f638878e898187b280ebe6013821f7e7d8ee1f88ac", "addresses": ["1C7siwAX4z2o3Ca1LZ82Zp8XkHJZMnFA3A"], "asm": "OP_DUP OP_HASH160 79f638878e898187b280ebe6013821f7e7d8ee1f OP_EQUALVERIFY OP_CHECKSIG", "type": "pubkeyhash"}, "value": 5.46e-06, "n": 2}], "hex": "01000000016963cdad5c386e9c1ab6d5ae262364a98ba87485724d6ad22b16414b3dff0ca4000000006b4830450221008d21b676aaaceaf5df6e9877ef3701b897029688285c45820a3e6836642bc1f702201fb83e54e786d3fc2ebc57f3cb0b78a47835fb420a9efafc1b68e51cb1260b80012103da5bac7b36d5aa38f531c6b9601e21bb598a4b6716ebed38b009a55dabde9440feffffff03f85e1e00000000001976a914a25dec4d0011064ef106a983c39c7a540699f22088ac0000000000000000166a146f6d6e69000000000000001f0000022ecb25c00022020000000000001976a91479f638878e898187b280ebe6013821f7e7d8ee1f88acf2480800", "vin": [{"sequence": 4294967294, "scriptSig": {"hex": "4830450221008d21b676aaaceaf5df6e9877ef3701b897029688285c45820a3e6836642bc1f702201fb83e54e786d3fc2ebc57f3cb0b78a47835fb420a9efafc1b68e51cb1260b80012103da5bac7b36d5aa38f531c6b9601e21bb598a4b6716ebed38b009a55dabde9440", "asm": "30450221008d21b676aaaceaf5df6e9877ef3701b897029688285c45820a3e6836642bc1f702201fb83e54e786d3fc2ebc57f3cb0b78a47835fb420a9efafc1b68e51cb1260b80[ALL] 03da5bac7b36d5aa38f531c6b9601e21bb598a4b6716ebed38b009a55dabde9440"}, "vout": 0, "txid": "a40cff3d4b41162bd26a4d728574a88ba9642326aed5b61a9c6e385cadcd6369"}], "txid": "27c2b6fbe0f6e95615de2d28093d432fc9c8730d246f82033a39d773ed42bf09", "blocktime": 1537870564, "version": 1, "confirmations": 11515, "time": 1537870564, "locktime": 542962, "vsize": 257, "size": 257}