{"hash": "27c311ad067d3091d7a8e9b4c0baf63457d1e7ce14c2d0cb166bdf03818934c1", "blockhash": "00000000000000000018f53835495a110e01622372bf6ae95dc86f2b0ab887b0", "vout": [{"scriptPubKey": {"reqSigs": 1, "hex": "76a914c7d31acbeed22a609496392b52f1e7e79b51956888ac", "addresses": ["1KDaMz5jYD2amjxKVCSEwYrLtCoumaCsV1"], "asm": "OP_DUP OP_HASH160 c7d31acbeed22a609496392b52f1e7e79b519568 OP_EQUALVERIFY OP_CHECKSIG", "type": "pubkeyhash"}, "value": 0.005, "n": 0}, {"scriptPubKey": {"reqSigs": 1, "hex": "76a9147b22568212b0fe8e7e287a6667f3123e312128dd88ac", "addresses": ["1CE5FSH46htNgNV26ACdBxgn9WJWNaRQZf"], "asm": "OP_DUP OP_HASH160 7b22568212b0fe8e7e287a6667f3123e312128dd OP_EQUALVERIFY OP_CHECKSIG", "type": "pubkeyhash"}, "value": 0.04007189, "n": 1}], "hex": "0100000001d4c8b26a8856ae7e555cf311c3d35dec4e5f051558df8e36a20728b694076ffe010000006a473044022058432224eb2434a8f5a31f3779e361ba7c7792f970c1cb6d8c04e0aab032c915022066c02cc204fd765422f67c8c249dfdacf1c478a5131905c4a76188896104f7b6012102f345c95c700d186d095d1f4d3b0c6de76c1b9d7fb97c58823b553635b2be1114ffffffff0220a10700000000001976a914c7d31acbeed22a609496392b52f1e7e79b51956888ac15253d00000000001976a9147b22568212b0fe8e7e287a6667f3123e312128dd88ac00000000", "vin": [{"sequence": 4294967295, "scriptSig": {"hex": "473044022058432224eb2434a8f5a31f3779e361ba7c7792f970c1cb6d8c04e0aab032c915022066c02cc204fd765422f67c8c249dfdacf1c478a5131905c4a76188896104f7b6012102f345c95c700d186d095d1f4d3b0c6de76c1b9d7fb97c58823b553635b2be1114", "asm": "3044022058432224eb2434a8f5a31f3779e361ba7c7792f970c1cb6d8c04e0aab032c915022066c02cc204fd765422f67c8c249dfdacf1c478a5131905c4a76188896104f7b6[ALL] 02f345c95c700d186d095d1f4d3b0c6de76c1b9d7fb97c58823b553635b2be1114"}, "vout": 1, "txid": "fe6f0794b62807a2368edf5815055f4eec5dd3c311f35c557eae56886ab2c8d4"}], "txid": "27c311ad067d3091d7a8e9b4c0baf63457d1e7ce14c2d0cb166bdf03818934c1", "blocktime": 1537870928, "version": 1, "confirmations": 11514, "time": 1537870928, "locktime": 0, "vsize": 225, "size": 225}