{"hash": "27c425ea1bed9d1478480060d5d4e76a2f7c59ccf96eff2b774d7932133803d7", "blockhash": "0000000000000000001e0dab787dd257d1dbfcb92a98c2207d5e1078be1f4165", "vout": [{"scriptPubKey": {"reqSigs": 1, "hex": "76a9146cc25ec2d090fb60442d85a9e1b95626236f6a4688ac", "addresses": ["1Av4po1EGyzWwAvdkkRs79dE8Yki4HwXoH"], "asm": "OP_DUP OP_HASH160 6cc25ec2d090fb60442d85a9e1b95626236f6a46 OP_EQUALVERIFY OP_CHECKSIG", "type": "pubkeyhash"}, "value": 0.0222698, "n": 0}, {"scriptPubKey": {"type": "nulldata", "hex": "6a4c50000077b300016b8f3cf39184de0b947a3080e5bf9ae76da98a211aaf6c953dd567cf27e796fe12dd60444d70a456a6a613807c935baa11a006119d6c7391326dbc9a9526289ac0f6612cd74e33776ee4", "asm": "OP_RETURN 000077b300016b8f3cf39184de0b947a3080e5bf9ae76da98a211aaf6c953dd567cf27e796fe12dd60444d70a456a6a613807c935baa11a006119d6c7391326dbc9a9526289ac0f6612cd74e33776ee4"}, "value": 0.0, "n": 1}], "hex": "0100000001a8f707d1fc454a7c9a5846de863a593ad6fba919bc9ca288d79ae3c353cd4cfd010000006a4730440220268b43fad605b63cdc74410f430ffc4d46ba64b5b3b7dc127c1bb496a6b2703c0220148105b0ab30ceea7913d5da4ca8a60a6db5015f53c8af26b7a47a15f89673980121030566d5bbfa5994ff221c4f3e825a2c95a251217098c508e49abdeaebfe58fb4dffffffff0224fb2100000000001976a9146cc25ec2d090fb60442d85a9e1b95626236f6a4688ac0000000000000000536a4c50000077b300016b8f3cf39184de0b947a3080e5bf9ae76da98a211aaf6c953dd567cf27e796fe12dd60444d70a456a6a613807c935baa11a006119d6c7391326dbc9a9526289ac0f6612cd74e33776ee400000000", "vin": [{"sequence": 4294967295, "scriptSig": {"hex": "4730440220268b43fad605b63cdc74410f430ffc4d46ba64b5b3b7dc127c1bb496a6b2703c0220148105b0ab30ceea7913d5da4ca8a60a6db5015f53c8af26b7a47a15f89673980121030566d5bbfa5994ff221c4f3e825a2c95a251217098c508e49abdeaebfe58fb4d", "asm": "30440220268b43fad605b63cdc74410f430ffc4d46ba64b5b3b7dc127c1bb496a6b2703c0220148105b0ab30ceea7913d5da4ca8a60a6db5015f53c8af26b7a47a15f8967398[ALL] 030566d5bbfa5994ff221c4f3e825a2c95a251217098c508e49abdeaebfe58fb4d"}, "vout": 1, "txid": "fd4ccd53c3e39ad788a29cbc19a9fbd63a593a86de46589a7c4a45fcd107f7a8"}], "txid": "27c425ea1bed9d1478480060d5d4e76a2f7c59ccf96eff2b774d7932133803d7", "blocktime": 1537872475, "version": 1, "confirmations": 11486, "time": 1537872475, "locktime": 0, "vsize": 283, "size": 283}