{"hash": "f5c42f59457ecd09931975fbb8cafdaac32eef5ea8b53f887992e03097b4d2c1", "blockhash": "00000000000000000017f5eb5941039fbcee6240d03bc1f2f8e35350df66a1d8", "vout": [{"scriptPubKey": {"reqSigs": 1, "hex": "002058c8797f181e000075cb9a18a9662013b795012e86acc04d56a2d229e7b8d7c4", "addresses": ["bc1qtry8jlccrcqqqawtngv2je3qzwme2qfws6kvqn2k5tfzneac6lzqpgummp"], "asm": "0 58c8797f181e000075cb9a18a9662013b795012e86acc04d56a2d229e7b8d7c4", "type": "witness_v0_scripthash"}, "value": 0.0213693, "n": 0}], "hex": "01000000000101db5a80207ebb93bcb9816c68885edceba2e0c4059f7a6cfff9381c54d0abec1100000000171600147728efb57ff8ca4933e512e009d31c3d867f7100ffffffff01629b20000000000022002058c8797f181e000075cb9a18a9662013b795012e86acc04d56a2d229e7b8d7c402483045022100c9c30bf291eb98d1aa48eb45498c2d8a7a716033fdc1988effc6f0969917a7800220671eaefed97bbd88ac174d355b9ccdc85108d90c64916a2111787c7accbd194e012102f50812cbd43f029b9610109a5faf20aa0e12bfc8e2373994c774a5bb23473ba900000000", "vin": [{"txinwitness": ["3045022100c9c30bf291eb98d1aa48eb45498c2d8a7a716033fdc1988effc6f0969917a7800220671eaefed97bbd88ac174d355b9ccdc85108d90c64916a2111787c7accbd194e01", "02f50812cbd43f029b9610109a5faf20aa0e12bfc8e2373994c774a5bb23473ba9"], "sequence": 4294967295, "scriptSig": {"hex": "1600147728efb57ff8ca4933e512e009d31c3d867f7100", "asm": "00147728efb57ff8ca4933e512e009d31c3d867f7100"}, "vout": 0, "txid": "11ecabd0541c38f9ff6c7a9f05c4e0a2ebdc5e88686c81b9bc93bb7e20805adb"}], "txid": "27c58bcd18d4538d9735f895e448e332602145a30fe2d4bf44334fba169ce56d", "blocktime": 1537874412, "version": 1, "confirmations": 11468, "time": 1537874412, "locktime": 0, "vsize": 145, "size": 227}