{"hash": "5c092453e86d784505d799fba2395272691ad2f9811a721944c894522f2a1c93", "blockhash": "0000000000000000000e13cef7c366c0283d82e591d1acd082e914b08063cdf1", "vout": [{"scriptPubKey": {"reqSigs": 1, "hex": "00147dc69190393d95b0d5eecd5ec14ab30d496cdff1", "addresses": ["bc1q0hrfrype8k2mp40we40vzj4np4ykehl37ytjqm"], "asm": "0 7dc69190393d95b0d5eecd5ec14ab30d496cdff1", "type": "witness_v0_keyhash"}, "value": 1.099e-05, "n": 0}, {"scriptPubKey": {"reqSigs": 1, "hex": "a9149f601eec56b80a269ef04713210e93bab042556f87", "addresses": ["3GDiWdm8HdjvZpvXMAync6mDaDNirSKCCt"], "asm": "OP_HASH160 9f601eec56b80a269ef04713210e93bab042556f OP_EQUAL", "type": "scripthash"}, "value": 0.00044896, "n": 1}], "hex": "010000000001017f803f7e022f5381cb54a48f56fb174bb943e9639b68b1fe02838007b741ee9e1503000017160014a2105536f35fe6b44cf223191fba391dffdbe7e3ffffffff024b040000000000001600147dc69190393d95b0d5eecd5ec14ab30d496cdff160af00000000000017a9149f601eec56b80a269ef04713210e93bab042556f8702473044022011c181a6cd1856841f68f82a756c1fc0784bba2ee224feb237263c72146dc9b70220035e4d621b819a9c8d2833bf44646b7bdc3dece10eaa9173dda53ac07c952dfc0121021299fa5086abee792684c8d56c9760ab3ba7ef801e2b0227d65cc885c5e689ac00000000", "vin": [{"txinwitness": ["3044022011c181a6cd1856841f68f82a756c1fc0784bba2ee224feb237263c72146dc9b70220035e4d621b819a9c8d2833bf44646b7bdc3dece10eaa9173dda53ac07c952dfc01", "021299fa5086abee792684c8d56c9760ab3ba7ef801e2b0227d65cc885c5e689ac"], "sequence": 4294967295, "scriptSig": {"hex": "160014a2105536f35fe6b44cf223191fba391dffdbe7e3", "asm": "0014a2105536f35fe6b44cf223191fba391dffdbe7e3"}, "vout": 789, "txid": "9eee41b707808302feb1689b63e943b94b17fb568fa454cb81532f027e3f807f"}], "txid": "27c9ff9738057d14e4f64a0706d97640cb6710b7da08ac97a0604c57f527f31e", "blocktime": 1537871767, "version": 1, "confirmations": 11495, "time": 1537871767, "locktime": 0, "vsize": 165, "size": 246}