{"hash": "27ce09413d3bcf1d2da1490160df3f185d8371eca6e4a651d8361f5fbc94eaed", "blockhash": "0000000000000000000dcc0f55137456b1a82d3642486a52398922ac4d620174", "vout": [{"scriptPubKey": {"reqSigs": 1, "hex": "76a91433e123e1c5d21f60dd1f390df8ea96a3c0afc22888ac", "addresses": ["15jKAoBKR39fx8eCqFgiFQupySdr3QbA18"], "asm": "OP_DUP OP_HASH160 33e123e1c5d21f60dd1f390df8ea96a3c0afc228 OP_EQUALVERIFY OP_CHECKSIG", "type": "pubkeyhash"}, "value": 0.11596472, "n": 0}], "hex": "010000000241fac349f2a0fece76da2d4a196ac08ab772699f5612140c84ac6a46d15e7911000000006b483045022100abdb0d0155f8bb6011d5ffc0030a097e54c92f569b0373cb44d0d7bc38c812720220173f5eeb981653544da5040fd50cfc76508c114d9c032f015083ac6533d7602b0121038e8c528c148a5b0e04467cddcaaf4a7307e4c250a3bd2162e5fd011fa1209eb9ffffffff40e2eadc58634c8cae015e2e70c09e03cbb3744d454b041a17e67e9f4265808d000000006a47304402200c972c099f59cd3b1319b27f00e29141fef8c82a597994cec1313ff101518b7202205853a2f91bb9d34da8ccce59ce07763b1880d607442ecf1c6c0f203a5d3cb069012103f24be3e29f5ab0f1252f0da32be8f0b6b545c59823cda647efe986f2f6428792ffffffff01b8f2b000000000001976a91433e123e1c5d21f60dd1f390df8ea96a3c0afc22888ac00000000", "vin": [{"sequence": 4294967295, "scriptSig": {"hex": "483045022100abdb0d0155f8bb6011d5ffc0030a097e54c92f569b0373cb44d0d7bc38c812720220173f5eeb981653544da5040fd50cfc76508c114d9c032f015083ac6533d7602b0121038e8c528c148a5b0e04467cddcaaf4a7307e4c250a3bd2162e5fd011fa1209eb9", "asm": "3045022100abdb0d0155f8bb6011d5ffc0030a097e54c92f569b0373cb44d0d7bc38c812720220173f5eeb981653544da5040fd50cfc76508c114d9c032f015083ac6533d7602b[ALL] 038e8c528c148a5b0e04467cddcaaf4a7307e4c250a3bd2162e5fd011fa1209eb9"}, "vout": 0, "txid": "11795ed1466aac840c1412569f6972b78ac06a194a2dda76cefea0f249c3fa41"}, {"sequence": 4294967295, "scriptSig": {"hex": "47304402200c972c099f59cd3b1319b27f00e29141fef8c82a597994cec1313ff101518b7202205853a2f91bb9d34da8ccce59ce07763b1880d607442ecf1c6c0f203a5d3cb069012103f24be3e29f5ab0f1252f0da32be8f0b6b545c59823cda647efe986f2f6428792", "asm": "304402200c972c099f59cd3b1319b27f00e29141fef8c82a597994cec1313ff101518b7202205853a2f91bb9d34da8ccce59ce07763b1880d607442ecf1c6c0f203a5d3cb069[ALL] 03f24be3e29f5ab0f1252f0da32be8f0b6b545c59823cda647efe986f2f6428792"}, "vout": 0, "txid": "8d8065429f7ee6171a044b454d74b3cb039ec0702e5e01ae8c4c6358dceae240"}], "txid": "27ce09413d3bcf1d2da1490160df3f185d8371eca6e4a651d8361f5fbc94eaed", "blocktime": 1537870268, "version": 1, "confirmations": 11518, "time": 1537870268, "locktime": 0, "vsize": 339, "size": 339}