{"hash": "27cee57801e155d8b4975f6e45505a2fe4adc05c8625a85f94ec2ec41f9d8df8", "blockhash": "000000000000000000022b45ed06c6f4ccd3cf7fb5ba4856ebd2e58215665228", "vout": [{"scriptPubKey": {"reqSigs": 1, "hex": "76a91437de1f8b437e0d57c0cb1cd2e96795fd7d33b03a88ac", "addresses": ["166QFwfVa22HQcMfmsdSyDRoPUF2ujaUpd"], "asm": "OP_DUP OP_HASH160 37de1f8b437e0d57c0cb1cd2e96795fd7d33b03a OP_EQUALVERIFY OP_CHECKSIG", "type": "pubkeyhash"}, "value": 0.00152005, "n": 0}, {"scriptPubKey": {"reqSigs": 1, "hex": "76a91458f34e70875f1ba309d9f904bc73fbff528d594c88ac", "addresses": ["197Kw7B3WYvL56xTpoWgSAdcT661DvMD9t"], "asm": "OP_DUP OP_HASH160 58f34e70875f1ba309d9f904bc73fbff528d594c OP_EQUALVERIFY OP_CHECKSIG", "type": "pubkeyhash"}, "value": 0.0131088, "n": 1}], "hex": "0200000001a22c4cc2e804a54dbf86ae5a26c81d3293852981fc6a97635285cebd80317395010000006b483045022100cc248c0235a3a3ac205551af6dc8ae10a278124ad7e8c8cf28405141d6590ade022010b57eb04f3acbb7ab4c2e2ca949ecc88eb51cb6406a551b92f10fde57f1838d012103bb2c19f674060c24341d01713decdd8b478e33da6435759d28f8a0ca870ed0f4feffffff02c5510200000000001976a91437de1f8b437e0d57c0cb1cd2e96795fd7d33b03a88aca0001400000000001976a91458f34e70875f1ba309d9f904bc73fbff528d594c88ac0b490800", "vin": [{"sequence": 4294967294, "scriptSig": {"hex": "483045022100cc248c0235a3a3ac205551af6dc8ae10a278124ad7e8c8cf28405141d6590ade022010b57eb04f3acbb7ab4c2e2ca949ecc88eb51cb6406a551b92f10fde57f1838d012103bb2c19f674060c24341d01713decdd8b478e33da6435759d28f8a0ca870ed0f4", "asm": "3045022100cc248c0235a3a3ac205551af6dc8ae10a278124ad7e8c8cf28405141d6590ade022010b57eb04f3acbb7ab4c2e2ca949ecc88eb51cb6406a551b92f10fde57f1838d[ALL] 03bb2c19f674060c24341d01713decdd8b478e33da6435759d28f8a0ca870ed0f4"}, "vout": 1, "txid": "95733180bdce855263976afc81298593321dc8265aae86bf4da504e8c24c2ca2"}], "txid": "27cee57801e155d8b4975f6e45505a2fe4adc05c8625a85f94ec2ec41f9d8df8", "blocktime": 1537869901, "version": 2, "confirmations": 11524, "time": 1537869901, "locktime": 542987, "vsize": 226, "size": 226}