{"hash": "27d678b5a5cbbdcc2ee968cb4bf68d967e4376f2dcb180e690416cd67f86c419", "blockhash": "0000000000000000000e13cef7c366c0283d82e591d1acd082e914b08063cdf1", "vout": [{"scriptPubKey": {"reqSigs": 1, "hex": "76a9147e6cf63a08ebc7c90ac60fe12a11b337a52690ce88ac", "addresses": ["1CXUfyJrBnsxLceztgZGFNcBEUEh9Lg1H5"], "asm": "OP_DUP OP_HASH160 7e6cf63a08ebc7c90ac60fe12a11b337a52690ce OP_EQUALVERIFY OP_CHECKSIG", "type": "pubkeyhash"}, "value": 0.00666592, "n": 0}, {"scriptPubKey": {"type": "nulldata", "hex": "6a146f6d6e69000000000000001f000006d250e3b880", "asm": "OP_RETURN 6f6d6e69000000000000001f000006d250e3b880"}, "value": 0.0, "n": 1}, {"scriptPubKey": {"reqSigs": 1, "hex": "76a914a25dec4d0011064ef106a983c39c7a540699f22088ac", "addresses": ["1FoWyxwPXuj4C6abqwhjDWdz6D4PZgYRjA"], "asm": "OP_DUP OP_HASH160 a25dec4d0011064ef106a983c39c7a540699f220 OP_EQUALVERIFY OP_CHECKSIG", "type": "pubkeyhash"}, "value": 5.46e-06, "n": 2}], "hex": "01000000010306c4b4ca093cb0fef4d1e13d204169525cef7555f94d1464497f9cd9e727e7010000006a473044022065a67a381808ef96191d9585109565c0a151649b9bd6c1e80a768f4f0bef3dd802206c296c37eb0560591a160a3d4c49e44578f3a6aaae6c43c61e96e2d2ba229e04012102db65b6eabb6939fc8b0d315780dbc278bb55baf782a2774dce002c390bf25402feffffff03e02b0a00000000001976a9147e6cf63a08ebc7c90ac60fe12a11b337a52690ce88ac0000000000000000166a146f6d6e69000000000000001f000006d250e3b88022020000000000001976a914a25dec4d0011064ef106a983c39c7a540699f22088ac10490800", "vin": [{"sequence": 4294967294, "scriptSig": {"hex": "473044022065a67a381808ef96191d9585109565c0a151649b9bd6c1e80a768f4f0bef3dd802206c296c37eb0560591a160a3d4c49e44578f3a6aaae6c43c61e96e2d2ba229e04012102db65b6eabb6939fc8b0d315780dbc278bb55baf782a2774dce002c390bf25402", "asm": "3044022065a67a381808ef96191d9585109565c0a151649b9bd6c1e80a768f4f0bef3dd802206c296c37eb0560591a160a3d4c49e44578f3a6aaae6c43c61e96e2d2ba229e04[ALL] 02db65b6eabb6939fc8b0d315780dbc278bb55baf782a2774dce002c390bf25402"}, "vout": 1, "txid": "e727e7d99c7f4964144df95575ef5c526941203de1d1f4feb03c09cab4c40603"}], "txid": "27d678b5a5cbbdcc2ee968cb4bf68d967e4376f2dcb180e690416cd67f86c419", "blocktime": 1537871767, "version": 1, "confirmations": 11495, "time": 1537871767, "locktime": 542992, "vsize": 256, "size": 256}