{"hash": "27d8139aac4c115cded43ba11433eae4fb5a04098363e7f3dcb0cb95e8d99f87", "blockhash": "00000000000000000018f53835495a110e01622372bf6ae95dc86f2b0ab887b0", "vout": [{"scriptPubKey": {"reqSigs": 1, "hex": "a91469f37531b51a67b06a3468c8bcdf4eef9fa4a1e887", "addresses": ["3BMEXRssK1146pjMjSc7My6jf21ZJTPcdz"], "asm": "OP_HASH160 69f37531b51a67b06a3468c8bcdf4eef9fa4a1e8 OP_EQUAL", "type": "scripthash"}, "value": 0.00039232, "n": 0}, {"scriptPubKey": {"reqSigs": 1, "hex": "76a914180da62bd9acfef3c64d3c2a19869f5d2a8eacee88ac", "addresses": ["13CBZxi4gfTpdPBi7cwPqjkHdZ6ykfwu7w"], "asm": "OP_DUP OP_HASH160 180da62bd9acfef3c64d3c2a19869f5d2a8eacee OP_EQUALVERIFY OP_CHECKSIG", "type": "pubkeyhash"}, "value": 0.02658457, "n": 1}], "hex": "010000000172933e2f911d052769e0367eac290d30ea26fa7b08cdb98aa757b58684468ea8010000006a47304402200d6e60ce08d50b81567ab27eb4eb93271586f6f48dc87663e37cc0cc65337e0d022079362bd6a31a4f9c0b43f84cc3c590cae83ad2f0ed268bf5f884fd1b7a815530012102e70eddc87493e7910069e653f0bd031b304298c705d96d700573f7d5227f62b9ffffffff02409900000000000017a91469f37531b51a67b06a3468c8bcdf4eef9fa4a1e88799902800000000001976a914180da62bd9acfef3c64d3c2a19869f5d2a8eacee88ac00000000", "vin": [{"sequence": 4294967295, "scriptSig": {"hex": "47304402200d6e60ce08d50b81567ab27eb4eb93271586f6f48dc87663e37cc0cc65337e0d022079362bd6a31a4f9c0b43f84cc3c590cae83ad2f0ed268bf5f884fd1b7a815530012102e70eddc87493e7910069e653f0bd031b304298c705d96d700573f7d5227f62b9", "asm": "304402200d6e60ce08d50b81567ab27eb4eb93271586f6f48dc87663e37cc0cc65337e0d022079362bd6a31a4f9c0b43f84cc3c590cae83ad2f0ed268bf5f884fd1b7a815530[ALL] 02e70eddc87493e7910069e653f0bd031b304298c705d96d700573f7d5227f62b9"}, "vout": 1, "txid": "a88e468486b557a78ab9cd087bfa26ea300d29ac7e36e06927051d912f3e9372"}], "txid": "27d8139aac4c115cded43ba11433eae4fb5a04098363e7f3dcb0cb95e8d99f87", "blocktime": 1537870928, "version": 1, "confirmations": 11514, "time": 1537870928, "locktime": 0, "vsize": 223, "size": 223}