{"hash": "75f070f7274156bdf77d3ae21d4272b7d0bb705969fe7532ac47f1a024ca645e", "blockhash": "0000000000000000000e13cef7c366c0283d82e591d1acd082e914b08063cdf1", "vout": [{"scriptPubKey": {"reqSigs": 1, "hex": "76a91472f26d9c8583b4a8d232c2e6e2076bb1eb0c167688ac", "addresses": ["1BUnT5FD3MwspAZFymaeiAd9iic2ZYKuPz"], "asm": "OP_DUP OP_HASH160 72f26d9c8583b4a8d232c2e6e2076bb1eb0c1676 OP_EQUALVERIFY OP_CHECKSIG", "type": "pubkeyhash"}, "value": 0.04937737, "n": 0}, {"scriptPubKey": {"reqSigs": 1, "hex": "001426a0cdc5ef36d08e7d272df04228c1c30d623d00", "addresses": ["bc1qy6svm300xmggulf89hcyy2xpcvxky0gqc7088y"], "asm": "0 26a0cdc5ef36d08e7d272df04228c1c30d623d00", "type": "witness_v0_keyhash"}, "value": 0.27067704, "n": 1}], "hex": "02000000000101f212e34d53f6a4a5f3afbe3d6bdee61038f66f4d367a92c46f394f4bd305336a00000000171600145e71c71b1f8ee40bab9b365015b96d11d68ebad5ffffffff0209584b00000000001976a91472f26d9c8583b4a8d232c2e6e2076bb1eb0c167688ac38059d010000000016001426a0cdc5ef36d08e7d272df04228c1c30d623d000247304402207f1011c3f360ef88917d0501291315fac88f0d3857b82b2511e9ce3bfeb0a3af02203f58a89073fb6e6d7c85c23f865e12382c9d79fc8f8c9dbc70f9140826a228d7012102158b7f7ae97738d66a3afe1dc3375a0599d55315946aabbafd9c7a93e058a11500000000", "vin": [{"txinwitness": ["304402207f1011c3f360ef88917d0501291315fac88f0d3857b82b2511e9ce3bfeb0a3af02203f58a89073fb6e6d7c85c23f865e12382c9d79fc8f8c9dbc70f9140826a228d701", "02158b7f7ae97738d66a3afe1dc3375a0599d55315946aabbafd9c7a93e058a115"], "sequence": 4294967295, "scriptSig": {"hex": "1600145e71c71b1f8ee40bab9b365015b96d11d68ebad5", "asm": "00145e71c71b1f8ee40bab9b365015b96d11d68ebad5"}, "vout": 0, "txid": "6a3305d34b4f396fc4927a364d6ff63810e6de6b3dbeaff3a5a4f6534de312f2"}], "txid": "27d8168142d6b79d577a4f3dc13fc22d901eb85a928d1e05fd1233baafb0ffd7", "blocktime": 1537871767, "version": 2, "confirmations": 11492, "time": 1537871767, "locktime": 0, "vsize": 167, "size": 248}