{"hash": "27dd2a6fb54e3e14068030f7d853d2524470646d9f3b3de95a20a65dff3d2ebe", "blockhash": "0000000000000000000e13cef7c366c0283d82e591d1acd082e914b08063cdf1", "vout": [{"scriptPubKey": {"reqSigs": 1, "hex": "76a91454b8719710562dc7a2fb10c587f9eb0c2e16f37488ac", "addresses": ["18ixiVGuBNhqmEMxY6e93LW54BwVB1b1Zw"], "asm": "OP_DUP OP_HASH160 54b8719710562dc7a2fb10c587f9eb0c2e16f374 OP_EQUALVERIFY OP_CHECKSIG", "type": "pubkeyhash"}, "value": 0.14997375, "n": 0}, {"scriptPubKey": {"reqSigs": 1, "hex": "76a9142e406d93f04d37581d95f35d7c6340f7371cba9688ac", "addresses": ["15DZGN3Tt9qXv4BJtsJVi11UwNm973dWpb"], "asm": "OP_DUP OP_HASH160 2e406d93f04d37581d95f35d7c6340f7371cba96 OP_EQUALVERIFY OP_CHECKSIG", "type": "pubkeyhash"}, "value": 0.26493642, "n": 1}], "hex": "01000000018128e458707efad6fb6de65e3ff0cec190cea431f79d793124ad5624060ec8fe010000006b483045022100d41b667c72c9f15cb9fbbb7d6850d327cca49b595923acfd8529bf0f10bfc45302206a289f6559aa8ebcbef5ec0e7ff9a1136edf1a8b09c207eb2ba3bfb0bf9928800121026d4393efd240484e939933dc279f229f8c4f6ef18d0f6c94d1841f1c91f55be1ffffffff027fd7e400000000001976a91454b8719710562dc7a2fb10c587f9eb0c2e16f37488acca429401000000001976a9142e406d93f04d37581d95f35d7c6340f7371cba9688ac00000000", "vin": [{"sequence": 4294967295, "scriptSig": {"hex": "483045022100d41b667c72c9f15cb9fbbb7d6850d327cca49b595923acfd8529bf0f10bfc45302206a289f6559aa8ebcbef5ec0e7ff9a1136edf1a8b09c207eb2ba3bfb0bf9928800121026d4393efd240484e939933dc279f229f8c4f6ef18d0f6c94d1841f1c91f55be1", "asm": "3045022100d41b667c72c9f15cb9fbbb7d6850d327cca49b595923acfd8529bf0f10bfc45302206a289f6559aa8ebcbef5ec0e7ff9a1136edf1a8b09c207eb2ba3bfb0bf992880[ALL] 026d4393efd240484e939933dc279f229f8c4f6ef18d0f6c94d1841f1c91f55be1"}, "vout": 1, "txid": "fec80e062456ad2431799df731a4ce90c1cef03f5ee66dfbd6fa7e7058e42881"}], "txid": "27dd2a6fb54e3e14068030f7d853d2524470646d9f3b3de95a20a65dff3d2ebe", "blocktime": 1537871767, "version": 1, "confirmations": 11493, "time": 1537871767, "locktime": 0, "vsize": 226, "size": 226}