{"hash": "27e32c72f57eaf7d4a40a382882f962d8e8df361082933dd1b86b1c4a151cdf2", "blockhash": "0000000000000000001cda96e906b7601b7a6fb1a3b62bca570a9e5d8f4b3de1", "vout": [{"scriptPubKey": {"reqSigs": 1, "hex": "76a9149099a61bc6e50e759b47eec2cb59cadc76bb7d6b88ac", "addresses": ["1EBaNLMK6eP1RoA4ohVv6bcAQXvGQAbNih"], "asm": "OP_DUP OP_HASH160 9099a61bc6e50e759b47eec2cb59cadc76bb7d6b OP_EQUALVERIFY OP_CHECKSIG", "type": "pubkeyhash"}, "value": 0.00468421, "n": 0}, {"scriptPubKey": {"reqSigs": 1, "hex": "76a9146438611929060118ea682dd0559e0e906367360688ac", "addresses": ["1A8v7V7rpN5KFF94X2nFWBPBsecbUBbYpa"], "asm": "OP_DUP OP_HASH160 6438611929060118ea682dd0559e0e9063673606 OP_EQUALVERIFY OP_CHECKSIG", "type": "pubkeyhash"}, "value": 1.41036206, "n": 1}], "hex": "0100000001f3a426dd25e9148a560fdd8a576cb03f73ab70abbe2e18cdb3c54abf1bfa7d7d010000006a473044022054055c8ffedcf1278110fb7c6e25363e3f5df0cbcae37f2ab6299b572a89ccc10220082cf586d475b2223003905f6c7a90134dc4ffb57245591b7611e2528d746aae0121024610d836d662dded124c10c466f9be04c3ec0d4aeae25513d2fd1a49dac2196affffffff02c5250700000000001976a9149099a61bc6e50e759b47eec2cb59cadc76bb7d6b88acae0a6808000000001976a9146438611929060118ea682dd0559e0e906367360688ac00000000", "vin": [{"sequence": 4294967295, "scriptSig": {"hex": "473044022054055c8ffedcf1278110fb7c6e25363e3f5df0cbcae37f2ab6299b572a89ccc10220082cf586d475b2223003905f6c7a90134dc4ffb57245591b7611e2528d746aae0121024610d836d662dded124c10c466f9be04c3ec0d4aeae25513d2fd1a49dac2196a", "asm": "3044022054055c8ffedcf1278110fb7c6e25363e3f5df0cbcae37f2ab6299b572a89ccc10220082cf586d475b2223003905f6c7a90134dc4ffb57245591b7611e2528d746aae[ALL] 024610d836d662dded124c10c466f9be04c3ec0d4aeae25513d2fd1a49dac2196a"}, "vout": 1, "txid": "7d7dfa1bbf4ac5b3cd182ebeab70ab733fb06c578add0f568a14e925dd26a4f3"}], "txid": "27e32c72f57eaf7d4a40a382882f962d8e8df361082933dd1b86b1c4a151cdf2", "blocktime": 1537873282, "version": 1, "confirmations": 11484, "time": 1537873282, "locktime": 0, "vsize": 225, "size": 225}