{"hash": "27e691a84866457581cc8bca4302bd265707dfb91e58a24c278142c8ade7556c", "blockhash": "0000000000000000001f76057863aec43deb6fa401d9628bb513d65a8098bfab", "vout": [{"scriptPubKey": {"reqSigs": 1, "hex": "76a914d42fcad274dd17379e3de6656113bbc35005f75d88ac", "addresses": ["1LLwWLLipANxoGM3yqpXGdNy4X4b2NBphy"], "asm": "OP_DUP OP_HASH160 d42fcad274dd17379e3de6656113bbc35005f75d OP_EQUALVERIFY OP_CHECKSIG", "type": "pubkeyhash"}, "value": 0.0008128, "n": 0}, {"scriptPubKey": {"type": "nulldata", "hex": "6a4c50000077e4000167df72fb503605953f25f60a7af8e8e963c7cfd5b95b23cc0f42c2fc38c5f5201554d03010031cbc1a7f37323a855baa17330612509c148db582bc9a9526289ac0f6612cd74e33776ee4", "asm": "OP_RETURN 000077e4000167df72fb503605953f25f60a7af8e8e963c7cfd5b95b23cc0f42c2fc38c5f5201554d03010031cbc1a7f37323a855baa17330612509c148db582bc9a9526289ac0f6612cd74e33776ee4"}, "value": 0.0, "n": 1}], "hex": "01000000016ad92cd983ef5be120b7e8a3ee4072a2d43e44c9e05c3b84d3ddb1d6cb63102d000000006a47304402203e57829bbcbb90760c8456777a46f930866418d5c82be03e40850e55e0af8cd602202665346636e55c08dcfe96bb282bf628bda2d8f34b7ffbb342d3673cac49d0650121027aaead3e199e28e17f938d1b9ce43ccc1282319b937f8b648b56dc50d49bece3ffffffff02803d0100000000001976a914d42fcad274dd17379e3de6656113bbc35005f75d88ac0000000000000000536a4c50000077e4000167df72fb503605953f25f60a7af8e8e963c7cfd5b95b23cc0f42c2fc38c5f5201554d03010031cbc1a7f37323a855baa17330612509c148db582bc9a9526289ac0f6612cd74e33776ee400000000", "vin": [{"sequence": 4294967295, "scriptSig": {"hex": "47304402203e57829bbcbb90760c8456777a46f930866418d5c82be03e40850e55e0af8cd602202665346636e55c08dcfe96bb282bf628bda2d8f34b7ffbb342d3673cac49d0650121027aaead3e199e28e17f938d1b9ce43ccc1282319b937f8b648b56dc50d49bece3", "asm": "304402203e57829bbcbb90760c8456777a46f930866418d5c82be03e40850e55e0af8cd602202665346636e55c08dcfe96bb282bf628bda2d8f34b7ffbb342d3673cac49d065[ALL] 027aaead3e199e28e17f938d1b9ce43ccc1282319b937f8b648b56dc50d49bece3"}, "vout": 0, "txid": "2d1063cbd6b1ddd3843b5ce0c9443ed4a27240eea3e8b720e15bef83d92cd96a"}], "txid": "27e691a84866457581cc8bca4302bd265707dfb91e58a24c278142c8ade7556c", "blocktime": 1537873891, "version": 1, "confirmations": 11478, "time": 1537873891, "locktime": 0, "vsize": 283, "size": 283}