{"hash": "27e8ba2351a706b05cefd0a53a36f3413ace8abb39d1f5c9b61b97092115df9e", "blockhash": "00000000000000000017f5eb5941039fbcee6240d03bc1f2f8e35350df66a1d8", "vout": [{"scriptPubKey": {"reqSigs": 1, "hex": "76a914c0e00fc584adf806d570c39350356e89c30c000388ac", "addresses": ["1Jaq9uUyDwVDcmhgmXwVCJew16DbQtrpaK"], "asm": "OP_DUP OP_HASH160 c0e00fc584adf806d570c39350356e89c30c0003 OP_EQUALVERIFY OP_CHECKSIG", "type": "pubkeyhash"}, "value": 1.4, "n": 0}, {"scriptPubKey": {"reqSigs": 1, "hex": "76a9145e85e0cb9040c1784e33c4162ce08e5f7772e04f88ac", "addresses": ["19cnu3faAAArZTs9dm1JaRuzBciQyJtDW5"], "asm": "OP_DUP OP_HASH160 5e85e0cb9040c1784e33c4162ce08e5f7772e04f OP_EQUALVERIFY OP_CHECKSIG", "type": "pubkeyhash"}, "value": 3.99996, "n": 1}], "hex": "01000000016f243dcc3e37816e162be0ba66ebbfe6cd5e0de26cdfd3a8098c662b725cdaec000000006a4730440220700707f28b125ae759be6c8f95d6f26ab466c24bda91d47ff69b7e128a3d12c202202990e9ae05d999989d118d7cf3efb833b5531cee5c0b71ff119957440518c59901210251356fd15a188014fc3dd1ef8e426cc7ce9354c4288359840acecb3d8a684696ffffffff02003b5808000000001976a914c0e00fc584adf806d570c39350356e89c30c000388ac6074d717000000001976a9145e85e0cb9040c1784e33c4162ce08e5f7772e04f88ac00000000", "vin": [{"sequence": 4294967295, "scriptSig": {"hex": "4730440220700707f28b125ae759be6c8f95d6f26ab466c24bda91d47ff69b7e128a3d12c202202990e9ae05d999989d118d7cf3efb833b5531cee5c0b71ff119957440518c59901210251356fd15a188014fc3dd1ef8e426cc7ce9354c4288359840acecb3d8a684696", "asm": "30440220700707f28b125ae759be6c8f95d6f26ab466c24bda91d47ff69b7e128a3d12c202202990e9ae05d999989d118d7cf3efb833b5531cee5c0b71ff119957440518c599[ALL] 0251356fd15a188014fc3dd1ef8e426cc7ce9354c4288359840acecb3d8a684696"}, "vout": 0, "txid": "ecda5c722b668c09a8d3df6ce20d5ecde6bfeb66bae02b166e81373ecc3d246f"}], "txid": "27e8ba2351a706b05cefd0a53a36f3413ace8abb39d1f5c9b61b97092115df9e", "blocktime": 1537874412, "version": 1, "confirmations": 11466, "time": 1537874412, "locktime": 0, "vsize": 225, "size": 225}