{"hash": "84cc59d3b70d17597ab635ee2ac360cd4d6d680dce79aa00348e43eb930ee5f5", "blockhash": "0000000000000000000dcc0f55137456b1a82d3642486a52398922ac4d620174", "vout": [{"scriptPubKey": {"reqSigs": 1, "hex": "a9149bb178b2591c395b8cf29a8654442f56bc3502de87", "addresses": ["3FtFGDDf8bgD1CUBtvkqfc4NuUCinAwPZZ"], "asm": "OP_HASH160 9bb178b2591c395b8cf29a8654442f56bc3502de OP_EQUAL", "type": "scripthash"}, "value": 5.0, "n": 0}, {"scriptPubKey": {"reqSigs": 1, "hex": "a914c22dd3cc3a383945254c29048d210468a942a51687", "addresses": ["3KPjuu2qPC1odo1n8E92U1VCeytrGhHyHq"], "asm": "OP_HASH160 c22dd3cc3a383945254c29048d210468a942a516 OP_EQUAL", "type": "scripthash"}, "value": 0.0173416, "n": 1}], "hex": "020000000001028b7d2e1e8897d3c5af093d2a4796de6db03683d97f2abe872beea1737cb242740100000017160014a37448cadf180e1a5ef94d59ff743025ef040c22feffffffd766d7c8d4f3c7d6cc02c5ab2d0cdaa4b8003fccb877ffb955ee1416eecbd64f00000000171600148878dd99e5a0bcff0987a2043653a86123f23cdefeffffff020065cd1d0000000017a9149bb178b2591c395b8cf29a8654442f56bc3502de8710761a000000000017a914c22dd3cc3a383945254c29048d210468a942a516870247304402202579016a6b4483b63f84536a462b0d2a70e55b2e9c46b694db9a596e3fe6e198022001da9d2c53cf0d80aa440f7d14d21cee1eada7bb24ed4215d11cbe1a1bbc58cc012102794e0bd1418b6320cf0c4de8a99d5435bcc5163f37ce32c4671a0fd6edb19c5a02473044022074671a469e32946ffd41f77e11ade4e88550ca8fdb94ca43fc5b6149ded30c7b0220262c97e1de5506806bf85473661f1450a49822a4303566947084182accba4c300121037480da3ee31ac58a08dfdaa4d09bb385a8bcb662f3253cde6a99cf603271d81a0c490800", "vin": [{"txinwitness": ["304402202579016a6b4483b63f84536a462b0d2a70e55b2e9c46b694db9a596e3fe6e198022001da9d2c53cf0d80aa440f7d14d21cee1eada7bb24ed4215d11cbe1a1bbc58cc01", "02794e0bd1418b6320cf0c4de8a99d5435bcc5163f37ce32c4671a0fd6edb19c5a"], "sequence": 4294967294, "scriptSig": {"hex": "160014a37448cadf180e1a5ef94d59ff743025ef040c22", "asm": "0014a37448cadf180e1a5ef94d59ff743025ef040c22"}, "vout": 1, "txid": "7442b27c73a1ee2b87be2a7fd98336b06dde96472a3d09afc5d397881e2e7d8b"}, {"txinwitness": ["3044022074671a469e32946ffd41f77e11ade4e88550ca8fdb94ca43fc5b6149ded30c7b0220262c97e1de5506806bf85473661f1450a49822a4303566947084182accba4c3001", "037480da3ee31ac58a08dfdaa4d09bb385a8bcb662f3253cde6a99cf603271d81a"], "sequence": 4294967294, "scriptSig": {"hex": "1600148878dd99e5a0bcff0987a2043653a86123f23cde", "asm": "00148878dd99e5a0bcff0987a2043653a86123f23cde"}, "vout": 0, "txid": "4fd6cbee1614ee55b9ff77b8cc3f00b8a4da0c2dabc502ccd6c7f3d4c8d766d7"}], "txid": "27ea476a2d782c16bf110cfff6fa2177b62af3d8fabf1c0107408c5561fba88e", "blocktime": 1537870268, "version": 2, "confirmations": 11516, "time": 1537870268, "locktime": 542988, "vsize": 256, "size": 418}