{"hash": "ce3923ecace173d1bbeb7def191b1c685b8f7d172fa4b365e42e93283f7a69ad", "blockhash": "0000000000000000001f76057863aec43deb6fa401d9628bb513d65a8098bfab", "vout": [{"scriptPubKey": {"reqSigs": 1, "hex": "a91461165b7686fe9ede46fcf1c3a04380287fb739a487", "addresses": ["3AYNFZZP914f3YYNAwnrusnuPXcYR5CFub"], "asm": "OP_HASH160 61165b7686fe9ede46fcf1c3a04380287fb739a4 OP_EQUAL", "type": "scripthash"}, "value": 0.02935124, "n": 0}, {"scriptPubKey": {"reqSigs": 1, "hex": "76a9143e3453d4a86fdbfa87eaabd665a4f74635975e8a88ac", "addresses": ["16fuafprz3QdxfMaJefJJzDi8CzpBwzn77"], "asm": "OP_DUP OP_HASH160 3e3453d4a86fdbfa87eaabd665a4f74635975e8a OP_EQUALVERIFY OP_CHECKSIG", "type": "pubkeyhash"}, "value": 0.01, "n": 1}], "hex": "01000000000101be3a1d418cdfb3950252748146c0d3984faf93dd69ebbf550d41908b1c2e25e60100000023220020a353e281799449e1cec2e061140b7f71fa8ceca93a1423808dd42a800501175ffdffffff0254c92c000000000017a91461165b7686fe9ede46fcf1c3a04380287fb739a48740420f00000000001976a9143e3453d4a86fdbfa87eaabd665a4f74635975e8a88ac04004730440220352b8f1385bfd0326845fda7f4a622a63a31358371123ee9fc4fd1bff3426f3b02201c1496650179eabdde84e73e532610cdd469950b847a217227c9576a2ffc3acc0147304402202cb9d446cb932173945700f70a40f435a2818a7b7498855adcff4b1f7913a33b02204d89ed6e119719c6ce321b35b997eb38e110bd6af25bfa93a4c1fdeeedd5cfdc014752210365b4a4acab82ec7ad76d86ff0ee7547d398945c2aa70c6fcdc07ea9e3e41e80a2102937c2719b5c5b4d9fd9df5b10ee5b0bbb3b4a9d4b4a897a3490ae467ad4eed1552ae13490800", "vin": [{"txinwitness": ["", "30440220352b8f1385bfd0326845fda7f4a622a63a31358371123ee9fc4fd1bff3426f3b02201c1496650179eabdde84e73e532610cdd469950b847a217227c9576a2ffc3acc01", "304402202cb9d446cb932173945700f70a40f435a2818a7b7498855adcff4b1f7913a33b02204d89ed6e119719c6ce321b35b997eb38e110bd6af25bfa93a4c1fdeeedd5cfdc01", "52210365b4a4acab82ec7ad76d86ff0ee7547d398945c2aa70c6fcdc07ea9e3e41e80a2102937c2719b5c5b4d9fd9df5b10ee5b0bbb3b4a9d4b4a897a3490ae467ad4eed1552ae"], "sequence": 4294967293, "scriptSig": {"hex": "220020a353e281799449e1cec2e061140b7f71fa8ceca93a1423808dd42a800501175f", "asm": "0020a353e281799449e1cec2e061140b7f71fa8ceca93a1423808dd42a800501175f"}, "vout": 1, "txid": "e6252e1c8b90410d55bfeb69dd93af4f98d3c0468174520295b3df8c411d3abe"}], "txid": "27ec34bfb5ced7e9440c69e889997635ebef1f4cd2f56069e2c41c94726cb2c8", "blocktime": 1537873891, "version": 1, "confirmations": 11478, "time": 1537873891, "locktime": 542995, "vsize": 207, "size": 372}