{"hash": "27f4d9802c8ade153e54ebcee1f1ec842eabb3d5816d5a7c4710fdfe08b87f9c", "blockhash": "0000000000000000001e0dab787dd257d1dbfcb92a98c2207d5e1078be1f4165", "vout": [{"scriptPubKey": {"reqSigs": 1, "hex": "a914f078d9521f52fbf0a225ebef7c24907cc8b53e1387", "addresses": ["3PcWsK5SEEokxWUZGG5Joj5kCR1FtsUWCg"], "asm": "OP_HASH160 f078d9521f52fbf0a225ebef7c24907cc8b53e13 OP_EQUAL", "type": "scripthash"}, "value": 0.32419262, "n": 0}, {"scriptPubKey": {"reqSigs": 1, "hex": "76a914eda7e8b9a2c71c7f995ab2567426114ba82c428b88ac", "addresses": ["1NfcHzW447B8aZn3yzXzK4DM5zHyR879yb"], "asm": "OP_DUP OP_HASH160 eda7e8b9a2c71c7f995ab2567426114ba82c428b OP_EQUALVERIFY OP_CHECKSIG", "type": "pubkeyhash"}, "value": 0.01024828, "n": 1}], "hex": "020000000403b7bc66cee4167176bdcd78ec08dd84875d63bc09a6589f3c8671d450b0f0cc000000006a4730440220316f16cf5415d0300252e1c9db75362f6a3999ee060de4cad78c2ef2f60dbcc3022070c8e5d5339aedb7d310dec87faae237eb4aa152de04a828dbab87835ebde852012102eb1d1bcffe2dca2b865e27c9d83f5a54de57717772e239ceb5ee5b8045ca07c3feffffff3c47b8d5ba0426eafc8b25dd7411d2e3404bce8d640abd5b982694e34e6255ad010000006b483045022100e299d388b4efaa9966ecfc5490ba7b1f350bb571f3e7a1d0160fa33c5c5bbad902202aefbc88b4b074503116d188ef9e38347aca6ee5dd2b10c5969fd54c81f38eeb012102955278da737370666fe54b343285dbb8e4ab30efe62dac8b67e754c8554946e1feffffff644dac48a754c5bca3ebb12042de9e0d1be457fbaebb20aa087dee0f3d082f90050000006b483045022100b4aa41dbe2b1e1fd6f6838516501e25ca67a29c9bd704a392919afdcc30183dc022068a6b65f67059e9f06ecf2ff3d485f2187480ce32a9e49f00983168722af143c0121036db69c0bb3229a4b09e62d141a2e98a60f160e163d206c902272b5bc23d2f20efeffffff6a6a7a071ad91f32866bcceed0254fb96eb44bec5bfe08256e4af7a238e22ec9070000006a4730440220423c6b626059855e04245603bcd181678cc7dac3d5439e71e1be46c29364dad50220394a217b4897d6a9577519fb99a4e9b847704cc9939b806fe81ab1d40403d627012103e3777d534797ea76cbffc55181d07b5ae6a7529ef834626f779b47266c3357e1feffffff02beadee010000000017a914f078d9521f52fbf0a225ebef7c24907cc8b53e13873ca30f00000000001976a914eda7e8b9a2c71c7f995ab2567426114ba82c428b88ac12490800", "vin": [{"sequence": 4294967294, "scriptSig": {"hex": "4730440220316f16cf5415d0300252e1c9db75362f6a3999ee060de4cad78c2ef2f60dbcc3022070c8e5d5339aedb7d310dec87faae237eb4aa152de04a828dbab87835ebde852012102eb1d1bcffe2dca2b865e27c9d83f5a54de57717772e239ceb5ee5b8045ca07c3", "asm": "30440220316f16cf5415d0300252e1c9db75362f6a3999ee060de4cad78c2ef2f60dbcc3022070c8e5d5339aedb7d310dec87faae237eb4aa152de04a828dbab87835ebde852[ALL] 02eb1d1bcffe2dca2b865e27c9d83f5a54de57717772e239ceb5ee5b8045ca07c3"}, "vout": 0, "txid": "ccf0b050d471863c9f58a609bc635d8784dd08ec78cdbd767116e4ce66bcb703"}, {"sequence": 4294967294, "scriptSig": {"hex": "483045022100e299d388b4efaa9966ecfc5490ba7b1f350bb571f3e7a1d0160fa33c5c5bbad902202aefbc88b4b074503116d188ef9e38347aca6ee5dd2b10c5969fd54c81f38eeb012102955278da737370666fe54b343285dbb8e4ab30efe62dac8b67e754c8554946e1", "asm": "3045022100e299d388b4efaa9966ecfc5490ba7b1f350bb571f3e7a1d0160fa33c5c5bbad902202aefbc88b4b074503116d188ef9e38347aca6ee5dd2b10c5969fd54c81f38eeb[ALL] 02955278da737370666fe54b343285dbb8e4ab30efe62dac8b67e754c8554946e1"}, "vout": 1, "txid": "ad55624ee39426985bbd0a648dce4b40e3d21174dd258bfcea2604bad5b8473c"}, {"sequence": 4294967294, "scriptSig": {"hex": "483045022100b4aa41dbe2b1e1fd6f6838516501e25ca67a29c9bd704a392919afdcc30183dc022068a6b65f67059e9f06ecf2ff3d485f2187480ce32a9e49f00983168722af143c0121036db69c0bb3229a4b09e62d141a2e98a60f160e163d206c902272b5bc23d2f20e", "asm": "3045022100b4aa41dbe2b1e1fd6f6838516501e25ca67a29c9bd704a392919afdcc30183dc022068a6b65f67059e9f06ecf2ff3d485f2187480ce32a9e49f00983168722af143c[ALL] 036db69c0bb3229a4b09e62d141a2e98a60f160e163d206c902272b5bc23d2f20e"}, "vout": 5, "txid": "902f083d0fee7d08aa20bbaefb57e41b0d9ede4220b1eba3bcc554a748ac4d64"}, {"sequence": 4294967294, "scriptSig": {"hex": "4730440220423c6b626059855e04245603bcd181678cc7dac3d5439e71e1be46c29364dad50220394a217b4897d6a9577519fb99a4e9b847704cc9939b806fe81ab1d40403d627012103e3777d534797ea76cbffc55181d07b5ae6a7529ef834626f779b47266c3357e1", "asm": "30440220423c6b626059855e04245603bcd181678cc7dac3d5439e71e1be46c29364dad50220394a217b4897d6a9577519fb99a4e9b847704cc9939b806fe81ab1d40403d627[ALL] 03e3777d534797ea76cbffc55181d07b5ae6a7529ef834626f779b47266c3357e1"}, "vout": 7, "txid": "c92ee238a2f74a6e2508fe5bec4bb46eb94f25d0eecc6b86321fd91a077a6a6a"}], "txid": "27f4d9802c8ade153e54ebcee1f1ec842eabb3d5816d5a7c4710fdfe08b87f9c", "blocktime": 1537872475, "version": 2, "confirmations": 11486, "time": 1537872475, "locktime": 542994, "vsize": 666, "size": 666}