{"hash": "27f752033a1dece07995d1e82a29f3c2c565a1c61ca9be53ecd95fb0ca670caa", "blockhash": "0000000000000000001f0ddff1eddb255c1121bcd4da4f1bc9a0da00cae72433", "vout": [{"scriptPubKey": {"reqSigs": 1, "hex": "76a914436b8a2bd9923cb300e4a9b7f531da3d1257467e88ac", "addresses": ["179V6qxq5ps6NWqa1gtfm4LSNi83isZ14Z"], "asm": "OP_DUP OP_HASH160 436b8a2bd9923cb300e4a9b7f531da3d1257467e OP_EQUALVERIFY OP_CHECKSIG", "type": "pubkeyhash"}, "value": 4.246e-05, "n": 0}], "hex": "0100000001fcd9121d34a45e34de686d240ba9c9c447bcb32196ba42889d4231e2d9750683000000006b4830450221009b2f2e69f2c217703891c88b116fb36b2355b70bb21ed7bd489083139b9e6a53022008cae0a669ed29648eacdc0058aaf6e35957f724ced8e88e8c743ad24c569408012102a9ab5d0cede013900e8400a5bd4a2a4f82cbafbd3a52daed9bada0f22b0dedb1ffffffff0196100000000000001976a914436b8a2bd9923cb300e4a9b7f531da3d1257467e88ac00000000", "vin": [{"sequence": 4294967295, "scriptSig": {"hex": "4830450221009b2f2e69f2c217703891c88b116fb36b2355b70bb21ed7bd489083139b9e6a53022008cae0a669ed29648eacdc0058aaf6e35957f724ced8e88e8c743ad24c569408012102a9ab5d0cede013900e8400a5bd4a2a4f82cbafbd3a52daed9bada0f22b0dedb1", "asm": "30450221009b2f2e69f2c217703891c88b116fb36b2355b70bb21ed7bd489083139b9e6a53022008cae0a669ed29648eacdc0058aaf6e35957f724ced8e88e8c743ad24c569408[ALL] 02a9ab5d0cede013900e8400a5bd4a2a4f82cbafbd3a52daed9bada0f22b0dedb1"}, "vout": 0, "txid": "830675d9e231429d8842ba9621b3bc47c4c9a90b246d68de345ea4341d12d9fc"}], "txid": "27f752033a1dece07995d1e82a29f3c2c565a1c61ca9be53ecd95fb0ca670caa", "blocktime": 1537872018, "version": 1, "confirmations": 11489, "time": 1537872018, "locktime": 0, "vsize": 192, "size": 192}