{"hash": "27f7c9ee04ad207f6fe79ef8b1b817898041e3793cc422f6bc2de22c22abf5a9", "blockhash": "0000000000000000001e0dab787dd257d1dbfcb92a98c2207d5e1078be1f4165", "vout": [{"scriptPubKey": {"reqSigs": 1, "hex": "76a914b39ba4e9f77dcf470363cca8e838727aa6b5f7a788ac", "addresses": ["1HNgQgnPNsZpwPDRJD1J58D2Ey8DyHuq7D"], "asm": "OP_DUP OP_HASH160 b39ba4e9f77dcf470363cca8e838727aa6b5f7a7 OP_EQUALVERIFY OP_CHECKSIG", "type": "pubkeyhash"}, "value": 0.0006988, "n": 0}, {"scriptPubKey": {"type": "nulldata", "hex": "6a4c50000077b300016b8f3cf39184de0b947a3080e5bf9ae76da98a211aaf6c953dd567cf27e796fe12dd60444d70a456a6a613807c935baa11a006119d6c7391326dbc9a9526289ac0f6612cd74e33776ee4", "asm": "OP_RETURN 000077b300016b8f3cf39184de0b947a3080e5bf9ae76da98a211aaf6c953dd567cf27e796fe12dd60444d70a456a6a613807c935baa11a006119d6c7391326dbc9a9526289ac0f6612cd74e33776ee4"}, "value": 0.0, "n": 1}], "hex": "0100000001739f188c327ca47fbc19d43d8ffa48bc103a95135e1abb84c61ec4654719632b010000006a47304402206e65f82226f23c09bf4e36c26dfdd2f3cffe4cd8eb24fda9dcc0c86d9b4042c50220698105e14001cca7133e7d5e1877810b03e5b2f0ef728ce59e430bf0063811e801210353597f41690fbdeac163baef206d2133ce5d1500c1ea670fc33cb2089537353bffffffff02f8100100000000001976a914b39ba4e9f77dcf470363cca8e838727aa6b5f7a788ac0000000000000000536a4c50000077b300016b8f3cf39184de0b947a3080e5bf9ae76da98a211aaf6c953dd567cf27e796fe12dd60444d70a456a6a613807c935baa11a006119d6c7391326dbc9a9526289ac0f6612cd74e33776ee400000000", "vin": [{"sequence": 4294967295, "scriptSig": {"hex": "47304402206e65f82226f23c09bf4e36c26dfdd2f3cffe4cd8eb24fda9dcc0c86d9b4042c50220698105e14001cca7133e7d5e1877810b03e5b2f0ef728ce59e430bf0063811e801210353597f41690fbdeac163baef206d2133ce5d1500c1ea670fc33cb2089537353b", "asm": "304402206e65f82226f23c09bf4e36c26dfdd2f3cffe4cd8eb24fda9dcc0c86d9b4042c50220698105e14001cca7133e7d5e1877810b03e5b2f0ef728ce59e430bf0063811e8[ALL] 0353597f41690fbdeac163baef206d2133ce5d1500c1ea670fc33cb2089537353b"}, "vout": 1, "txid": "2b63194765c41ec684bb1a5e13953a10bc48fa8f3dd419bc7fa47c328c189f73"}], "txid": "27f7c9ee04ad207f6fe79ef8b1b817898041e3793cc422f6bc2de22c22abf5a9", "blocktime": 1537872475, "version": 1, "confirmations": 11486, "time": 1537872475, "locktime": 0, "vsize": 283, "size": 283}