{"hash": "27f8c3c9fbd8c9d1e99c7942daa2fc1b6b6ea9f49e3772a1433497d372803298", "blockhash": "0000000000000000001cda96e906b7601b7a6fb1a3b62bca570a9e5d8f4b3de1", "vout": [{"scriptPubKey": {"reqSigs": 1, "hex": "76a914d9ef8f3dcd12a26ea55806ce22a98a8c941606d788ac", "addresses": ["1LsLcWuYaA38jHsF4exKymEKpmKWjqZdkU"], "asm": "OP_DUP OP_HASH160 d9ef8f3dcd12a26ea55806ce22a98a8c941606d7 OP_EQUALVERIFY OP_CHECKSIG", "type": "pubkeyhash"}, "value": 5.98e-05, "n": 0}, {"scriptPubKey": {"reqSigs": 1, "hex": "a9144f0adc8cb7952ee212a16cb5587f79b3de8b0cd687", "addresses": ["38txKNRRwNNifTog6SXmaz6WCVUdsXxAM4"], "asm": "OP_HASH160 4f0adc8cb7952ee212a16cb5587f79b3de8b0cd6 OP_EQUAL", "type": "scripthash"}, "value": 0.1, "n": 1}], "hex": "0100000001b6dcc9df05238ee2f29bc3d0ce9a73023c78fa0dcca5fc6afbcab78fe4363f56040000006a4730440220210ca4418878a6461dd01b5d0c34a7bf8fceb5f4622e5b25759c241acb9381de02206ff577c431bf7619037598febc47336484cca8645bfbd6f41060ff1512b3b1d5012102ee094b93554d3d240389107b8f020ac22931ebad75a406bf093e9be8edfb2f6cffffffff025c170000000000001976a914d9ef8f3dcd12a26ea55806ce22a98a8c941606d788ac809698000000000017a9144f0adc8cb7952ee212a16cb5587f79b3de8b0cd68700000000", "vin": [{"sequence": 4294967295, "scriptSig": {"hex": "4730440220210ca4418878a6461dd01b5d0c34a7bf8fceb5f4622e5b25759c241acb9381de02206ff577c431bf7619037598febc47336484cca8645bfbd6f41060ff1512b3b1d5012102ee094b93554d3d240389107b8f020ac22931ebad75a406bf093e9be8edfb2f6c", "asm": "30440220210ca4418878a6461dd01b5d0c34a7bf8fceb5f4622e5b25759c241acb9381de02206ff577c431bf7619037598febc47336484cca8645bfbd6f41060ff1512b3b1d5[ALL] 02ee094b93554d3d240389107b8f020ac22931ebad75a406bf093e9be8edfb2f6c"}, "vout": 4, "txid": "563f36e48fb7cafb6afca5cc0dfa783c02739aced0c39bf2e28e2305dfc9dcb6"}], "txid": "27f8c3c9fbd8c9d1e99c7942daa2fc1b6b6ea9f49e3772a1433497d372803298", "blocktime": 1537873282, "version": 1, "confirmations": 11484, "time": 1537873282, "locktime": 0, "vsize": 223, "size": 223}