{"hash": "2801694daa1c2cac9f4913093612dac0f0c8b2264cb0fed3b2f34321b0d0f6a5", "blockhash": "0000000000000000001e0dab787dd257d1dbfcb92a98c2207d5e1078be1f4165", "vout": [{"scriptPubKey": {"reqSigs": 1, "hex": "76a9145fb34c518e85d6b7b89595c2b54989da79f2cf3c88ac", "addresses": ["19j1z5PRRm9MbVKNDbGGobGCQ7qhTs9fPE"], "asm": "OP_DUP OP_HASH160 5fb34c518e85d6b7b89595c2b54989da79f2cf3c OP_EQUALVERIFY OP_CHECKSIG", "type": "pubkeyhash"}, "value": 3.497e-05, "n": 0}, {"scriptPubKey": {"reqSigs": 1, "hex": "a91488d438da724cb2b3d16b1dbc49417d3006dd129187", "addresses": ["3EAW45gYqU6UQbCkUT91Pv6yuPba7vCWMh"], "asm": "OP_HASH160 88d438da724cb2b3d16b1dbc49417d3006dd1291 OP_EQUAL", "type": "scripthash"}, "value": 0.10070428, "n": 1}], "hex": "01000000038f2a39a1e94681bb188a44200f443312d54d682c8d6149cf4d9a0cb732e0df27000000006b483045022100ebb97ae57a25d662d4e6cee5ffb49d6c9bb830775e1bceb7de3484364b2caf240220784e68489732b4a699ddb60283191dca341943fba453b45c0ca6f2ee5f9e3bc8012102aa98d82888f41dbcd16c563705b63529df3a3234a2e9514a96f988f11fb67004ffffffffac209f066174710bc0722f6d7fe74ff8af971d9e20e34b0e38887d638831bc63000000006a473044022058e79f18ad27ce157ed397a657982fe6e82588cd1f4255819e73d0135dd7b79002205445244004184c0c18ccfa03b4206237ce177628bc2d902591714916c065ff3c012102bceb7b5f1957cf99abcdda4770c5a31a1aecf0ceb1c8eb830baab78a8f6e1ecdffffffff17c1701faaea3bd1b2db9a2e2f196a3ce78fd7d30054eca76c1fbcff2c21c2ee000000006b4830450221008742850e87963b657ddf68bc65ec4504e4ef427001b765e76d7b3ab69acef2c3022006e4896a8dbe8e2984c5e910faabef4bcfb16ca5f0601a7784cdbf4f0042d511012102802c2bf3ca1ec5ac37416149530389067c4d1a74db6e8d43806d6bb335ab1c7dffffffff02a90d0000000000001976a9145fb34c518e85d6b7b89595c2b54989da79f2cf3c88ac9ca999000000000017a91488d438da724cb2b3d16b1dbc49417d3006dd12918700000000", "vin": [{"sequence": 4294967295, "scriptSig": {"hex": "483045022100ebb97ae57a25d662d4e6cee5ffb49d6c9bb830775e1bceb7de3484364b2caf240220784e68489732b4a699ddb60283191dca341943fba453b45c0ca6f2ee5f9e3bc8012102aa98d82888f41dbcd16c563705b63529df3a3234a2e9514a96f988f11fb67004", "asm": "3045022100ebb97ae57a25d662d4e6cee5ffb49d6c9bb830775e1bceb7de3484364b2caf240220784e68489732b4a699ddb60283191dca341943fba453b45c0ca6f2ee5f9e3bc8[ALL] 02aa98d82888f41dbcd16c563705b63529df3a3234a2e9514a96f988f11fb67004"}, "vout": 0, "txid": "27dfe032b70c9a4dcf49618d2c684dd51233440f20448a18bb8146e9a1392a8f"}, {"sequence": 4294967295, "scriptSig": {"hex": "473044022058e79f18ad27ce157ed397a657982fe6e82588cd1f4255819e73d0135dd7b79002205445244004184c0c18ccfa03b4206237ce177628bc2d902591714916c065ff3c012102bceb7b5f1957cf99abcdda4770c5a31a1aecf0ceb1c8eb830baab78a8f6e1ecd", "asm": "3044022058e79f18ad27ce157ed397a657982fe6e82588cd1f4255819e73d0135dd7b79002205445244004184c0c18ccfa03b4206237ce177628bc2d902591714916c065ff3c[ALL] 02bceb7b5f1957cf99abcdda4770c5a31a1aecf0ceb1c8eb830baab78a8f6e1ecd"}, "vout": 0, "txid": "63bc3188637d88380e4be3209e1d97aff84fe77f6d2f72c00b717461069f20ac"}, {"sequence": 4294967295, "scriptSig": {"hex": "4830450221008742850e87963b657ddf68bc65ec4504e4ef427001b765e76d7b3ab69acef2c3022006e4896a8dbe8e2984c5e910faabef4bcfb16ca5f0601a7784cdbf4f0042d511012102802c2bf3ca1ec5ac37416149530389067c4d1a74db6e8d43806d6bb335ab1c7d", "asm": "30450221008742850e87963b657ddf68bc65ec4504e4ef427001b765e76d7b3ab69acef2c3022006e4896a8dbe8e2984c5e910faabef4bcfb16ca5f0601a7784cdbf4f0042d511[ALL] 02802c2bf3ca1ec5ac37416149530389067c4d1a74db6e8d43806d6bb335ab1c7d"}, "vout": 0, "txid": "eec2212cffbc1f6ca7ec5400d3d78fe73c6a192f2e9adbb2d13beaaa1f70c117"}], "txid": "2801694daa1c2cac9f4913093612dac0f0c8b2264cb0fed3b2f34321b0d0f6a5", "blocktime": 1537872475, "version": 1, "confirmations": 11486, "time": 1537872475, "locktime": 0, "vsize": 519, "size": 519}