{"hash": "2802cf96ab56b7f3778e2189c1a42a6f4c5142ca5a298df680b7f49228396c3f", "blockhash": "0000000000000000000dcc0f55137456b1a82d3642486a52398922ac4d620174", "vout": [{"scriptPubKey": {"reqSigs": 1, "hex": "76a9143750f1c01efd7f01d7c79902ef40d1bf36dcb99c88ac", "addresses": ["163V8fPVm645FFkfdsR2YViVD1gGAsXS5Q"], "asm": "OP_DUP OP_HASH160 3750f1c01efd7f01d7c79902ef40d1bf36dcb99c OP_EQUALVERIFY OP_CHECKSIG", "type": "pubkeyhash"}, "value": 0.00935077, "n": 0}, {"scriptPubKey": {"reqSigs": 1, "hex": "76a91483ff493c4e3dcbfdb231d0a1701e64ba49347eb088ac", "addresses": ["1D2wLic82ydxApAFsF6iFosc8RQw6a3abC"], "asm": "OP_DUP OP_HASH160 83ff493c4e3dcbfdb231d0a1701e64ba49347eb0 OP_EQUALVERIFY OP_CHECKSIG", "type": "pubkeyhash"}, "value": 0.0175535, "n": 1}], "hex": "0100000001d4e16a32f73cde7d91f9b2f52cdaea8acda32e55aab09ef959394690ebb10572000000006a47304402203ef5847c2cdc90a5769a2f1f0f00fdb1bc797427536ddc2a48f02e8b31f42b220220416e122c41ef6fabd05c0d8911be986fe725e5565089383e36e7a6dd5fdc7eff012103d0c6975aa69b48f582c38e1e147164c1bdfa9971004a24b407489d7aa8b24ddeffffffff02a5440e00000000001976a9143750f1c01efd7f01d7c79902ef40d1bf36dcb99c88acd6c81a00000000001976a91483ff493c4e3dcbfdb231d0a1701e64ba49347eb088ac00000000", "vin": [{"sequence": 4294967295, "scriptSig": {"hex": "47304402203ef5847c2cdc90a5769a2f1f0f00fdb1bc797427536ddc2a48f02e8b31f42b220220416e122c41ef6fabd05c0d8911be986fe725e5565089383e36e7a6dd5fdc7eff012103d0c6975aa69b48f582c38e1e147164c1bdfa9971004a24b407489d7aa8b24dde", "asm": "304402203ef5847c2cdc90a5769a2f1f0f00fdb1bc797427536ddc2a48f02e8b31f42b220220416e122c41ef6fabd05c0d8911be986fe725e5565089383e36e7a6dd5fdc7eff[ALL] 03d0c6975aa69b48f582c38e1e147164c1bdfa9971004a24b407489d7aa8b24dde"}, "vout": 0, "txid": "7205b1eb90463959f99eb0aa552ea3cd8aeada2cf5b2f9917dde3cf7326ae1d4"}], "txid": "2802cf96ab56b7f3778e2189c1a42a6f4c5142ca5a298df680b7f49228396c3f", "blocktime": 1537870268, "version": 1, "confirmations": 11518, "time": 1537870268, "locktime": 0, "vsize": 225, "size": 225}