{"hash": "280953e819000b89ee1a83b188b43cede01026d287ee9600a2d30bec2049773a", "blockhash": "0000000000000000001e0dab787dd257d1dbfcb92a98c2207d5e1078be1f4165", "vout": [{"scriptPubKey": {"reqSigs": 1, "hex": "a914290a7c5beed61658d8b41a6aa3b40efac414770487", "addresses": ["35S2ByQpSSBVhrM8tyVvNnZSe1oVj6N8pL"], "asm": "OP_HASH160 290a7c5beed61658d8b41a6aa3b40efac4147704 OP_EQUAL", "type": "scripthash"}, "value": 0.00562317, "n": 0}, {"scriptPubKey": {"reqSigs": 1, "hex": "76a914655e4569cdc45ab59b1fba578593f05dbe6f8c9188ac", "addresses": ["1AEzBT37ocwNADTtbmNb6KxxTLnmPd4CY8"], "asm": "OP_DUP OP_HASH160 655e4569cdc45ab59b1fba578593f05dbe6f8c91 OP_EQUALVERIFY OP_CHECKSIG", "type": "pubkeyhash"}, "value": 0.01371076, "n": 1}], "hex": "0200000001b35cca2c42ed0f7e6a559de4342a7439ea87026d6652eec9b8a511161edab3bb010000006a47304402201796acfa3d52a636e5973dae3a762657e094ccd0bb89aad625662f14bc8f67360220208962bb1e7ae6fe7ef9ff43c85dec1014852b08abd5e1e0ee82a223bef9a025012103d662ccef07b70424d49d1e1281e3bb83de4882a11e9f57591e20311691b52ab9ffffffff028d9408000000000017a914290a7c5beed61658d8b41a6aa3b40efac414770487c4eb1400000000001976a914655e4569cdc45ab59b1fba578593f05dbe6f8c9188ac00000000", "vin": [{"sequence": 4294967295, "scriptSig": {"hex": "47304402201796acfa3d52a636e5973dae3a762657e094ccd0bb89aad625662f14bc8f67360220208962bb1e7ae6fe7ef9ff43c85dec1014852b08abd5e1e0ee82a223bef9a025012103d662ccef07b70424d49d1e1281e3bb83de4882a11e9f57591e20311691b52ab9", "asm": "304402201796acfa3d52a636e5973dae3a762657e094ccd0bb89aad625662f14bc8f67360220208962bb1e7ae6fe7ef9ff43c85dec1014852b08abd5e1e0ee82a223bef9a025[ALL] 03d662ccef07b70424d49d1e1281e3bb83de4882a11e9f57591e20311691b52ab9"}, "vout": 1, "txid": "bbb3da1e1611a5b8c9ee52666d0287ea39742a34e49d556a7e0fed422cca5cb3"}], "txid": "280953e819000b89ee1a83b188b43cede01026d287ee9600a2d30bec2049773a", "blocktime": 1537872475, "version": 2, "confirmations": 11486, "time": 1537872475, "locktime": 0, "vsize": 223, "size": 223}