{"hash": "9b57b021d38d11684e7c4a471d82a060713ea48aa13f7d0942e5a90936e8dfcc", "blockhash": "0000000000000000001e0dab787dd257d1dbfcb92a98c2207d5e1078be1f4165", "vout": [{"scriptPubKey": {"reqSigs": 1, "hex": "76a914456e1dc7af55f4fb7d77ddb9af7f06742ac518d888ac", "addresses": ["17L7YFfoUspZ1ndFuMp4Vp23jSrLskoF8r"], "asm": "OP_DUP OP_HASH160 456e1dc7af55f4fb7d77ddb9af7f06742ac518d8 OP_EQUALVERIFY OP_CHECKSIG", "type": "pubkeyhash"}, "value": 0.00432613, "n": 0}, {"scriptPubKey": {"reqSigs": 1, "hex": "a914691265b9aa8e711dc8d7a8e0b78f353520f6ba6187", "addresses": ["3BGauxUNRJkFiDzGfPNdRBZsD1RosFHfpC"], "asm": "OP_HASH160 691265b9aa8e711dc8d7a8e0b78f353520f6ba61 OP_EQUAL", "type": "scripthash"}, "value": 0.04730222, "n": 1}], "hex": "0100000000010234dbb10601eb3609c1161c8c66f95c8f9706148c2248a9312a5a4bfbddd4f6cf0100000023220020dfae2b206a8221804c857c3d7b4fb5a1d4ab437a9d915abee78ef577b50c717bffffffff6af4391bf05c5efaceb355df7a44a31ea70a0074a94ea742b821160976c419be000000002322002033a0615ad094b2b26c25ed2684f822b863fd278e750a77cddcc545b8f6a771eeffffffff02e5990600000000001976a914456e1dc7af55f4fb7d77ddb9af7f06742ac518d888ac6e2d48000000000017a914691265b9aa8e711dc8d7a8e0b78f353520f6ba61870400483045022100c43a05e838d6029e88cefa341a4def74406420eab7207ac5c39365b61baf198e022030e00a45e7a712586e2049b7937deeab6a8d2381e5a3e753622d4c141ba1e4600147304402201335a640d4e69c11e092d00ba2ba58c18737b71ef3f70902a7e876bd866f7caf02202a0560b3def9857a7f3fbf76377a29f49db32c5d90668c50cbab8ef7d571e113014752210288656c07688c9c2155e18137bb95b9f8cbcc7afdf16817aee97cfacd051219da210292d679353fa4a760eaad69284c09d063a1fd1a15ad8c70e83dbf86f7063f8c1852ae04004830450221009becd93ad9f4728ac20cceed91cc9c9ed45a73a81575a03134ed3e87141130e5022015f0e620bd52f4586f79382beb771b6d7d8c2289d70388ae10f4edd57bf755c501483045022100ce89e47ce014e56c60430d5ab5fe9bbe357b2a0151f352c8c504fd83518209bf02204902e4d3f2d40c8896089d2fd349c6354eb663a32efb7d30c9ed43861f65ed8601475221032ba56ef12f888673cc2015fbca3ea318a5f9b11008c06494b94370199c212921210292d679353fa4a760eaad69284c09d063a1fd1a15ad8c70e83dbf86f7063f8c1852ae00000000", "vin": [{"txinwitness": ["", "3045022100c43a05e838d6029e88cefa341a4def74406420eab7207ac5c39365b61baf198e022030e00a45e7a712586e2049b7937deeab6a8d2381e5a3e753622d4c141ba1e46001", "304402201335a640d4e69c11e092d00ba2ba58c18737b71ef3f70902a7e876bd866f7caf02202a0560b3def9857a7f3fbf76377a29f49db32c5d90668c50cbab8ef7d571e11301", "52210288656c07688c9c2155e18137bb95b9f8cbcc7afdf16817aee97cfacd051219da210292d679353fa4a760eaad69284c09d063a1fd1a15ad8c70e83dbf86f7063f8c1852ae"], "sequence": 4294967295, "scriptSig": {"hex": "220020dfae2b206a8221804c857c3d7b4fb5a1d4ab437a9d915abee78ef577b50c717b", "asm": "0020dfae2b206a8221804c857c3d7b4fb5a1d4ab437a9d915abee78ef577b50c717b"}, "vout": 1, "txid": "cff6d4ddfb4b5a2a31a948228c1406978f5cf9668c1c16c10936eb0106b1db34"}, {"txinwitness": ["", "30450221009becd93ad9f4728ac20cceed91cc9c9ed45a73a81575a03134ed3e87141130e5022015f0e620bd52f4586f79382beb771b6d7d8c2289d70388ae10f4edd57bf755c501", "3045022100ce89e47ce014e56c60430d5ab5fe9bbe357b2a0151f352c8c504fd83518209bf02204902e4d3f2d40c8896089d2fd349c6354eb663a32efb7d30c9ed43861f65ed8601", "5221032ba56ef12f888673cc2015fbca3ea318a5f9b11008c06494b94370199c212921210292d679353fa4a760eaad69284c09d063a1fd1a15ad8c70e83dbf86f7063f8c1852ae"], "sequence": 4294967295, "scriptSig": {"hex": "22002033a0615ad094b2b26c25ed2684f822b863fd278e750a77cddcc545b8f6a771ee", "asm": "002033a0615ad094b2b26c25ed2684f822b863fd278e750a77cddcc545b8f6a771ee"}, "vout": 0, "txid": "be19c476091621b842a74ea974000aa71ea3447adf55b3cefa5e5cf01b39f46a"}], "txid": "280a49e5842f45cb0bdf67de77c2b092cb53b9605cd380b3dfed95f777f55dd2", "blocktime": 1537872475, "version": 1, "confirmations": 11486, "time": 1537872475, "locktime": 0, "vsize": 339, "size": 669}