{"hash": "280c0ab19c49ba1190f302f93c9045bf3f435983ce82f049898e58ce7afcadef", "blockhash": "0000000000000000001e0dab787dd257d1dbfcb92a98c2207d5e1078be1f4165", "vout": [{"scriptPubKey": {"reqSigs": 1, "hex": "76a9144c9d7293f4a87fc2a19d39b39b20edd444deceb688ac", "addresses": ["17z6yEEE1wXmdUHcxadErpJqoVtPY9DUU9"], "asm": "OP_DUP OP_HASH160 4c9d7293f4a87fc2a19d39b39b20edd444deceb6 OP_EQUALVERIFY OP_CHECKSIG", "type": "pubkeyhash"}, "value": 0.01371, "n": 0}, {"scriptPubKey": {"reqSigs": 1, "hex": "76a91431f072a3ea5858188ef23925fc821d6605e47e8c88ac", "addresses": ["15Z4A1PSJS8TyY4sCVdPaQash9J4zm876W"], "asm": "OP_DUP OP_HASH160 31f072a3ea5858188ef23925fc821d6605e47e8c OP_EQUALVERIFY OP_CHECKSIG", "type": "pubkeyhash"}, "value": 0.42586902, "n": 1}], "hex": "010000000123e16fd169ff5976573d4b47b1ea8d3a777b29cbe4c4339ac29963725417692d010000006b483045022100e6326d0fb7c2785d1f132dd5bb09ab81f2c0d093787478ad2a9a8b41fa788cd70220267bc056ddfe69e75beefa7351f06cb49c81802949d55d6b2300a51ac7a8f9a6012103cb0bafea5046493e796dd70637a8c7340041cccaff5aed7105fa0f0eae684a2effffffff0278eb1400000000001976a9144c9d7293f4a87fc2a19d39b39b20edd444deceb688ac16d38902000000001976a91431f072a3ea5858188ef23925fc821d6605e47e8c88ac00000000", "vin": [{"sequence": 4294967295, "scriptSig": {"hex": "483045022100e6326d0fb7c2785d1f132dd5bb09ab81f2c0d093787478ad2a9a8b41fa788cd70220267bc056ddfe69e75beefa7351f06cb49c81802949d55d6b2300a51ac7a8f9a6012103cb0bafea5046493e796dd70637a8c7340041cccaff5aed7105fa0f0eae684a2e", "asm": "3045022100e6326d0fb7c2785d1f132dd5bb09ab81f2c0d093787478ad2a9a8b41fa788cd70220267bc056ddfe69e75beefa7351f06cb49c81802949d55d6b2300a51ac7a8f9a6[ALL] 03cb0bafea5046493e796dd70637a8c7340041cccaff5aed7105fa0f0eae684a2e"}, "vout": 1, "txid": "2d691754726399c29a33c4e4cb297b773a8deab1474b3d577659ff69d16fe123"}], "txid": "280c0ab19c49ba1190f302f93c9045bf3f435983ce82f049898e58ce7afcadef", "blocktime": 1537872475, "version": 1, "confirmations": 11487, "time": 1537872475, "locktime": 0, "vsize": 226, "size": 226}