{"hash": "280da7cc4fae1adb01159bfa2057ebe2cfdd90f9dafee6629faaba855a014cfb", "blockhash": "00000000000000000017f5eb5941039fbcee6240d03bc1f2f8e35350df66a1d8", "vout": [{"scriptPubKey": {"reqSigs": 1, "hex": "76a914d4154273aba4433971eb7803053649f5950da56c88ac", "addresses": ["1LLPiownXQxhqxgoKyh7i91Xupk4c9tMhg"], "asm": "OP_DUP OP_HASH160 d4154273aba4433971eb7803053649f5950da56c OP_EQUALVERIFY OP_CHECKSIG", "type": "pubkeyhash"}, "value": 0.0001064, "n": 0}], "hex": "01000000026c370c457157475ad3599914ff627f1f699b47aa3fe918be4e1e65806254172f000000006b483045022100e9abc2d39b93b1c736260145a2241d96eb0c55f94663e3a4d8c990ec6004f5e7022049a8e40808104ee65fb1c9591e7e3ad8921fd500a0d8c6f7a583fc2d6206c7da012103095a32b30d96d570495e049ed02ba46cc03a16a9a196dd5df08b7f531b4251e5feffffffc5022141cb5effec71fbc2ac256e5ede0499b8c612e55a032e0abe97d0ff9dbf000000006b483045022100da59efe2d8012db14a8ca04fbd9e56776f0561b12748090c3751efc10a2a9be2022017aa5eae5382f28a805d07e92475c95aee1d430720020d02133a7a519172de6a01210319384844c7f4939f474a24aa11cd52811b55e0d11672ec2b42a9a5f8a2fcb27cfeffffff0190290000000000001976a914d4154273aba4433971eb7803053649f5950da56c88ac15490800", "vin": [{"sequence": 4294967294, "scriptSig": {"hex": "483045022100e9abc2d39b93b1c736260145a2241d96eb0c55f94663e3a4d8c990ec6004f5e7022049a8e40808104ee65fb1c9591e7e3ad8921fd500a0d8c6f7a583fc2d6206c7da012103095a32b30d96d570495e049ed02ba46cc03a16a9a196dd5df08b7f531b4251e5", "asm": "3045022100e9abc2d39b93b1c736260145a2241d96eb0c55f94663e3a4d8c990ec6004f5e7022049a8e40808104ee65fb1c9591e7e3ad8921fd500a0d8c6f7a583fc2d6206c7da[ALL] 03095a32b30d96d570495e049ed02ba46cc03a16a9a196dd5df08b7f531b4251e5"}, "vout": 0, "txid": "2f17546280651e4ebe18e93faa479b691f7f62ff149959d35a475771450c376c"}, {"sequence": 4294967294, "scriptSig": {"hex": "483045022100da59efe2d8012db14a8ca04fbd9e56776f0561b12748090c3751efc10a2a9be2022017aa5eae5382f28a805d07e92475c95aee1d430720020d02133a7a519172de6a01210319384844c7f4939f474a24aa11cd52811b55e0d11672ec2b42a9a5f8a2fcb27c", "asm": "3045022100da59efe2d8012db14a8ca04fbd9e56776f0561b12748090c3751efc10a2a9be2022017aa5eae5382f28a805d07e92475c95aee1d430720020d02133a7a519172de6a[ALL] 0319384844c7f4939f474a24aa11cd52811b55e0d11672ec2b42a9a5f8a2fcb27c"}, "vout": 0, "txid": "bf9dffd097be0a2e035ae512c6b89904de5e6e25acc2fb71ecff5ecb412102c5"}], "txid": "280da7cc4fae1adb01159bfa2057ebe2cfdd90f9dafee6629faaba855a014cfb", "blocktime": 1537874412, "version": 1, "confirmations": 11467, "time": 1537874412, "locktime": 542997, "vsize": 340, "size": 340}