{"hash": "37ad7954d8d901d52202f44a4c7e3b9ce604aac53547f27b9064af761093075e", "blockhash": "00000000000000000017f5eb5941039fbcee6240d03bc1f2f8e35350df66a1d8", "vout": [{"scriptPubKey": {"reqSigs": 1, "hex": "a91414ab2df55bcc2fb405c8e406d0540357f02bc6b287", "addresses": ["33aJW9Ct6rA4icdi7WZkgs7bARnayAThHY"], "asm": "OP_HASH160 14ab2df55bcc2fb405c8e406d0540357f02bc6b2 OP_EQUAL", "type": "scripthash"}, "value": 0.00874747, "n": 0}, {"scriptPubKey": {"reqSigs": 1, "hex": "00143c596a1ba19136aad3843e6e2930186a18363582", "addresses": ["bc1q83vk5xapjym245uy8ehzjvqcdgvrvdvz4r46hs"], "asm": "0 3c596a1ba19136aad3843e6e2930186a18363582", "type": "witness_v0_keyhash"}, "value": 0.00084887, "n": 1}], "hex": "010000000001010c345c463d5299bd89f020efca6cb8a4915d78233b1910595fbf24c3b2c29fe50100000000ffffffff02fb580d000000000017a91414ab2df55bcc2fb405c8e406d0540357f02bc6b287974b0100000000001600143c596a1ba19136aad3843e6e2930186a18363582024830450221008f2544713d2b6ead53e57a4c269a782baee8a2399a543fc2c39cb7dc285f43780220358ab07edfc9778444fc8ff73bcaa692b2d5b1a17c0ab2a2ff340de78069eab4012102d5b7ca8b69f50ea23bbf58d6b68351fdd1ca034ea8d270b89518df977041a98800000000", "vin": [{"txinwitness": ["30450221008f2544713d2b6ead53e57a4c269a782baee8a2399a543fc2c39cb7dc285f43780220358ab07edfc9778444fc8ff73bcaa692b2d5b1a17c0ab2a2ff340de78069eab401", "02d5b7ca8b69f50ea23bbf58d6b68351fdd1ca034ea8d270b89518df977041a988"], "sequence": 4294967295, "scriptSig": {"hex": "", "asm": ""}, "vout": 1, "txid": "e59fc2b2c324bf5f5910193b23785d91a4b86ccaef20f089bd99523d465c340c"}], "txid": "28153e87329e33fc0d42ea7529912ba47494fb8edeaa85b4a92e3dc6b38df1a1", "blocktime": 1537874412, "version": 1, "confirmations": 11467, "time": 1537874412, "locktime": 0, "vsize": 142, "size": 224}