{"hash": "2819bbaa0544eed4380dd719d3865e29a21f882a8adaac78f9578ae3ac635b25", "blockhash": "0000000000000000000baef3f32e3676a92c3b2e5da21b426e4f302fc371ce76", "vout": [{"scriptPubKey": {"reqSigs": 1, "hex": "76a91417f5e39e0a32462393e8295b19ec53ee9fde1aeb88ac", "addresses": ["13Bh768KiRdZFd2bXExZzFrYipv6UW7wYT"], "asm": "OP_DUP OP_HASH160 17f5e39e0a32462393e8295b19ec53ee9fde1aeb OP_EQUALVERIFY OP_CHECKSIG", "type": "pubkeyhash"}, "value": 0.00074356, "n": 0}, {"scriptPubKey": {"reqSigs": 1, "hex": "76a914c01eae041e10473125e776b616caaa044245c7f588ac", "addresses": ["1JWqVVspE3af4WU9k34LtRtgs4BZvEF9Hr"], "asm": "OP_DUP OP_HASH160 c01eae041e10473125e776b616caaa044245c7f5 OP_EQUALVERIFY OP_CHECKSIG", "type": "pubkeyhash"}, "value": 0.78330495, "n": 1}], "hex": "0100000003698dab261aa0c1f0effdeff8ae23344c391b8e378c56aa02f4e24feee9d68f47000000006b4830450221009f02650197cf3d581d83d84eca6da5c6a7b9da8c2bf61727f3c66fa7f3c31c3e0220047e51566de38e5e17551adfcf0660e624e22dff39acacc267f5dac32bcbfeef012102476c01a91736e74fb9f38be440f5902c7ee3a58beb962eed58633a512eb7d1c0ffffffff545415fd45fa38123abd3979d8873ff17e1c3adec46dfb78ded713c31df6a557000000006b483045022100f76a441aa9c9f41a9488a53debe342fb9eaf3d264b22be426f6e2fd5747e58ca022024b3ff99d4c7a1f2cca3fd922600b19a306000caca8899fbf4c193976baa328b012102306c6c091f4c67883102a19d7517c8837125cfb7865b0a0645c52e12588c9ed6ffffffff1fc293cdc46b2883075cfc9f9ba77103b60ea4abcfaeb9c2a5a223e1d7de4792000000006b483045022100cfc58fb7ff403c7e83327555e6e70aa9f7794977eb73faa6527625c182bf7d3c02207f6cfa9093711d35c46d69b4c92a4de246aafb7dd08480b17f4ea572b06249d2012102731945200ea96f29be04092a2efb6508a63eff54dd23823bb65e5aa271fd3851ffffffff0274220100000000001976a91417f5e39e0a32462393e8295b19ec53ee9fde1aeb88ac7f3aab04000000001976a914c01eae041e10473125e776b616caaa044245c7f588ac00000000", "vin": [{"sequence": 4294967295, "scriptSig": {"hex": "4830450221009f02650197cf3d581d83d84eca6da5c6a7b9da8c2bf61727f3c66fa7f3c31c3e0220047e51566de38e5e17551adfcf0660e624e22dff39acacc267f5dac32bcbfeef012102476c01a91736e74fb9f38be440f5902c7ee3a58beb962eed58633a512eb7d1c0", "asm": "30450221009f02650197cf3d581d83d84eca6da5c6a7b9da8c2bf61727f3c66fa7f3c31c3e0220047e51566de38e5e17551adfcf0660e624e22dff39acacc267f5dac32bcbfeef[ALL] 02476c01a91736e74fb9f38be440f5902c7ee3a58beb962eed58633a512eb7d1c0"}, "vout": 0, "txid": "478fd6e9ee4fe2f402aa568c378e1b394c3423aef8effdeff0c1a01a26ab8d69"}, {"sequence": 4294967295, "scriptSig": {"hex": "483045022100f76a441aa9c9f41a9488a53debe342fb9eaf3d264b22be426f6e2fd5747e58ca022024b3ff99d4c7a1f2cca3fd922600b19a306000caca8899fbf4c193976baa328b012102306c6c091f4c67883102a19d7517c8837125cfb7865b0a0645c52e12588c9ed6", "asm": "3045022100f76a441aa9c9f41a9488a53debe342fb9eaf3d264b22be426f6e2fd5747e58ca022024b3ff99d4c7a1f2cca3fd922600b19a306000caca8899fbf4c193976baa328b[ALL] 02306c6c091f4c67883102a19d7517c8837125cfb7865b0a0645c52e12588c9ed6"}, "vout": 0, "txid": "57a5f61dc313d7de78fb6dc4de3a1c7ef13f87d87939bd3a1238fa45fd155454"}, {"sequence": 4294967295, "scriptSig": {"hex": "483045022100cfc58fb7ff403c7e83327555e6e70aa9f7794977eb73faa6527625c182bf7d3c02207f6cfa9093711d35c46d69b4c92a4de246aafb7dd08480b17f4ea572b06249d2012102731945200ea96f29be04092a2efb6508a63eff54dd23823bb65e5aa271fd3851", "asm": "3045022100cfc58fb7ff403c7e83327555e6e70aa9f7794977eb73faa6527625c182bf7d3c02207f6cfa9093711d35c46d69b4c92a4de246aafb7dd08480b17f4ea572b06249d2[ALL] 02731945200ea96f29be04092a2efb6508a63eff54dd23823bb65e5aa271fd3851"}, "vout": 0, "txid": "9247ded7e123a2a5c2b9aecfaba40eb60371a79b9ffc5c0783286bc4cd93c21f"}], "txid": "2819bbaa0544eed4380dd719d3865e29a21f882a8adaac78f9578ae3ac635b25", "blocktime": 1537876114, "version": 1, "confirmations": 11460, "time": 1537876114, "locktime": 0, "vsize": 522, "size": 522}