{"hash": "96f9e4cc3d68c8de594d988f3b3cf322cef05db31a69cf5dd2d9f6755b5f626f", "blockhash": "0000000000000000001cda96e906b7601b7a6fb1a3b62bca570a9e5d8f4b3de1", "vout": [{"scriptPubKey": {"type": "nulldata", "hex": "6a146f6d6e69000000000000001f0000068d3dfac500", "asm": "OP_RETURN 6f6d6e69000000000000001f0000068d3dfac500"}, "value": 0.0, "n": 0}, {"scriptPubKey": {"reqSigs": 1, "hex": "a914ea7c1fae0b3477f9c596088738e449bf60e1058787", "addresses": ["3P4rjhdgmGAufJ6YBXAcok5nH7SjinLKG3"], "asm": "OP_HASH160 ea7c1fae0b3477f9c596088738e449bf60e10587 OP_EQUAL", "type": "scripthash"}, "value": 2.73194, "n": 1}, {"scriptPubKey": {"reqSigs": 1, "hex": "76a914c09aa9b0c173c948787553b7e0ee3a4f460284a188ac", "addresses": ["1JZQ1zhnYitgMNTRqjRVLntscy1cFnPNsz"], "asm": "OP_DUP OP_HASH160 c09aa9b0c173c948787553b7e0ee3a4f460284a1 OP_EQUALVERIFY OP_CHECKSIG", "type": "pubkeyhash"}, "value": 5.46e-06, "n": 2}], "hex": "01000000000102293ef940d241052db5e09a5ab8fddada4432c05707bb7be87d3aa157799bd7ef010000006a4730440220477740d0b600f3fb7cf991330210b263653498719d42cc455080318b717e322802203d126529ed0828ef8e774ddf976e015be5cf1327983075b7643990776475c83a01210286ace8f5d330a4c4713e366f25740299fcdff485e8d9f7ced2d71ebff55834adffffffff485d96dab427ed39212fb055b3e880b601ba423d6716973662fe644e384d3a5c010000001716001437d69b67fe9b251c8eaf485da3d529b1932d6b59ffffffff030000000000000000166a146f6d6e69000000000000001f0000068d3dfac500109c48100000000017a914ea7c1fae0b3477f9c596088738e449bf60e105878722020000000000001976a914c09aa9b0c173c948787553b7e0ee3a4f460284a188ac000247304402200812ee65f67b75c3165561e8f806c92b555320c0a8a6bd541d127567412daf5b02202d5a2c2d2929c5ed5f363d5bd0f7d57c2f12147e08f9a7ec66e931854f4df9cb012103043a0cef1155f82ab3c802591b9714132db5c3e7b3e07ca03a1e219f2e8769df00000000", "vin": [{"sequence": 4294967295, "scriptSig": {"hex": "4730440220477740d0b600f3fb7cf991330210b263653498719d42cc455080318b717e322802203d126529ed0828ef8e774ddf976e015be5cf1327983075b7643990776475c83a01210286ace8f5d330a4c4713e366f25740299fcdff485e8d9f7ced2d71ebff55834ad", "asm": "30440220477740d0b600f3fb7cf991330210b263653498719d42cc455080318b717e322802203d126529ed0828ef8e774ddf976e015be5cf1327983075b7643990776475c83a[ALL] 0286ace8f5d330a4c4713e366f25740299fcdff485e8d9f7ced2d71ebff55834ad"}, "vout": 1, "txid": "efd79b7957a13a7de87bbb0757c03244dadafdb85a9ae0b52d0541d240f93e29"}, {"txinwitness": ["304402200812ee65f67b75c3165561e8f806c92b555320c0a8a6bd541d127567412daf5b02202d5a2c2d2929c5ed5f363d5bd0f7d57c2f12147e08f9a7ec66e931854f4df9cb01", "03043a0cef1155f82ab3c802591b9714132db5c3e7b3e07ca03a1e219f2e8769df"], "sequence": 4294967295, "scriptSig": {"hex": "16001437d69b67fe9b251c8eaf485da3d529b1932d6b59", "asm": "001437d69b67fe9b251c8eaf485da3d529b1932d6b59"}, "vout": 1, "txid": "5c3a4d384e64fe62369716673d42ba01b680e8b355b02f2139ed27b4da965d48"}], "txid": "281cbca5f955c3822467625c282896496072627be65519a4093518752c731840", "blocktime": 1537873282, "version": 1, "confirmations": 11484, "time": 1537873282, "locktime": 0, "vsize": 346, "size": 428}