{"hash": "2822a17436b0c65ca6d2a1404c27391e6d0b2aed21b2dbe978af4a846d78858d", "blockhash": "0000000000000000001cda96e906b7601b7a6fb1a3b62bca570a9e5d8f4b3de1", "vout": [{"scriptPubKey": {"reqSigs": 1, "hex": "a9143e49280cc584acd3694b9890a077079b84fed3a987", "addresses": ["37NMTSFRzJ6JcexME9xXEXYsE4cUg674Ax"], "asm": "OP_HASH160 3e49280cc584acd3694b9890a077079b84fed3a9 OP_EQUAL", "type": "scripthash"}, "value": 0.011567, "n": 0}], "hex": "010000000155e955c963a8b0aa3fd64a20b2483228d127495173063b022c99be61afa3b285010000006a473044022040d5cf62b3c73564c13d7a6f226ab25cf3f8d66fe5ee643b645e28c2e33071bb02206ee0f502bdf4080d1aa85197613e1be45f10f492c91f608f0f34d1dbfeb0a2b101210340e7a4ab2cb47e781a52001d4d8942d476a92582854a1a887ef29cbf4ae366caffffffff015ca611000000000017a9143e49280cc584acd3694b9890a077079b84fed3a98700000000", "vin": [{"sequence": 4294967295, "scriptSig": {"hex": "473044022040d5cf62b3c73564c13d7a6f226ab25cf3f8d66fe5ee643b645e28c2e33071bb02206ee0f502bdf4080d1aa85197613e1be45f10f492c91f608f0f34d1dbfeb0a2b101210340e7a4ab2cb47e781a52001d4d8942d476a92582854a1a887ef29cbf4ae366ca", "asm": "3044022040d5cf62b3c73564c13d7a6f226ab25cf3f8d66fe5ee643b645e28c2e33071bb02206ee0f502bdf4080d1aa85197613e1be45f10f492c91f608f0f34d1dbfeb0a2b1[ALL] 0340e7a4ab2cb47e781a52001d4d8942d476a92582854a1a887ef29cbf4ae366ca"}, "vout": 1, "txid": "85b2a3af61be992c023b0673514927d1283248b2204ad63faab0a863c955e955"}], "txid": "2822a17436b0c65ca6d2a1404c27391e6d0b2aed21b2dbe978af4a846d78858d", "blocktime": 1537873282, "version": 1, "confirmations": 11481, "time": 1537873282, "locktime": 0, "vsize": 189, "size": 189}