{"hash": "78f955f5e9d24e06ebe4b7515ac4b2cb589787b1521a8b9b92ca7bdee56a5e88", "blockhash": "0000000000000000001cda96e906b7601b7a6fb1a3b62bca570a9e5d8f4b3de1", "vout": [{"scriptPubKey": {"reqSigs": 1, "hex": "a91477ba435339ac6786a999583bcd9c6cb3b79541b687", "addresses": ["3Cc5U9hvCTwWjcRwWeLy7XDT7eGTQkaHCm"], "asm": "OP_HASH160 77ba435339ac6786a999583bcd9c6cb3b79541b6 OP_EQUAL", "type": "scripthash"}, "value": 0.0024666, "n": 0}, {"scriptPubKey": {"reqSigs": 1, "hex": "a91401dfb76cf6c5f1a2b704ed4d53e8ea87c3b4d17287", "addresses": ["31rvbq9b6bghphUzu9aQMAbn3BZ25pRFqf"], "asm": "OP_HASH160 01dfb76cf6c5f1a2b704ed4d53e8ea87c3b4d172 OP_EQUAL", "type": "scripthash"}, "value": 0.01011441, "n": 1}], "hex": "020000000001026411c3e9ab352791d25a25f6957ff33facac87ddceb26bc844f5166482bd66820000000017160014f2ea4515c663991ca35ff103743a3a820a576343fefffffff72fb53221570551c46c1b38afcd42a82f8963020c0d27a13d07a9809468dec90000000017160014e27a3f7294fd2ab2e0dddf3570fe56ad27155b18feffffff0284c303000000000017a91477ba435339ac6786a999583bcd9c6cb3b79541b687f16e0f000000000017a91401dfb76cf6c5f1a2b704ed4d53e8ea87c3b4d17287024830450221008e4c53240c799ec86767379ede52886cdf2e3848f8363f4b41ac7131da23337a02207f82c30669e410bfcedec3f1a0b6cebd4879b6527f4e32b063aaf9742a0d5a94012102bcc24c8aa6fddfddde7d53ccea116203a932fad5f952b9de615d9a2f1bf3da8202483045022100f222871ba790d9de98ea2ae06a5d835d9ddb6308f0cd67965197034528b7ab4c02203198fcee9e26003166b143acc5c8ebb3c294655c0a34735320db8b7a5d8810800121037c8bf82f7a35477e5c6d29688728a9897b211df6f1701263078c84ad13aba17f13490800", "vin": [{"txinwitness": ["30450221008e4c53240c799ec86767379ede52886cdf2e3848f8363f4b41ac7131da23337a02207f82c30669e410bfcedec3f1a0b6cebd4879b6527f4e32b063aaf9742a0d5a9401", "02bcc24c8aa6fddfddde7d53ccea116203a932fad5f952b9de615d9a2f1bf3da82"], "sequence": 4294967294, "scriptSig": {"hex": "160014f2ea4515c663991ca35ff103743a3a820a576343", "asm": "0014f2ea4515c663991ca35ff103743a3a820a576343"}, "vout": 0, "txid": "8266bd826416f544c86bb2cedd87acac3ff37f95f6255ad2912735abe9c31164"}, {"txinwitness": ["3045022100f222871ba790d9de98ea2ae06a5d835d9ddb6308f0cd67965197034528b7ab4c02203198fcee9e26003166b143acc5c8ebb3c294655c0a34735320db8b7a5d88108001", "037c8bf82f7a35477e5c6d29688728a9897b211df6f1701263078c84ad13aba17f"], "sequence": 4294967294, "scriptSig": {"hex": "160014e27a3f7294fd2ab2e0dddf3570fe56ad27155b18", "asm": "0014e27a3f7294fd2ab2e0dddf3570fe56ad27155b18"}, "vout": 0, "txid": "c9de689480a9073da1270d0c0263892fa842cdaf381b6cc45105572132b52ff7"}], "txid": "28229846942110e417d0c66af5615ba3a4442f0eec5bea3db18cf75c78389cda", "blocktime": 1537873282, "version": 2, "confirmations": 11484, "time": 1537873282, "locktime": 542995, "vsize": 257, "size": 420}