{"hash": "2823bd061c6b221b21103f22e997456b8acb1a3b5b1304bf046b211358adbe3b", "blockhash": "0000000000000000000baef3f32e3676a92c3b2e5da21b426e4f302fc371ce76", "vout": [{"scriptPubKey": {"reqSigs": 1, "hex": "76a914ae1a615b30106477d4b2d036435fd5ad8b5f724c88ac", "addresses": ["1GsaBKCKFNWQyuPgUkxb7uMoaKkZM66GDU"], "asm": "OP_DUP OP_HASH160 ae1a615b30106477d4b2d036435fd5ad8b5f724c OP_EQUALVERIFY OP_CHECKSIG", "type": "pubkeyhash"}, "value": 0.00627224, "n": 0}, {"scriptPubKey": {"type": "nulldata", "hex": "6a4c5000007837000185d4b24afb0c01365c5d909727b7256b4774d339f6019d6ddc0f1b8ff117c3751b5b5933a362babcce031af9d3845baa20630613798aa6b085931d100759d4ba30d2c37bb011d97e02cf", "asm": "OP_RETURN 00007837000185d4b24afb0c01365c5d909727b7256b4774d339f6019d6ddc0f1b8ff117c3751b5b5933a362babcce031af9d3845baa20630613798aa6b085931d100759d4ba30d2c37bb011d97e02cf"}, "value": 0.0, "n": 1}], "hex": "0100000001300a9f4d61b40bfd47022ab99a631b7128b63cea19e384b99890753f6ef04b17010000006b483045022100c5ddd1ec5ce6cc38bf333ce2ad7aa80944fe0724d613e7e9fd88a350fa4b3047022028a328be38ef770eca9959aa4337827523c75341a0dd5ee9b43db7b8a0a11198012102f4896c74182df94d23aac9d0f50378647acb0bfa0d20ccec79366232b91e3ca9ffffffff0218920900000000001976a914ae1a615b30106477d4b2d036435fd5ad8b5f724c88ac0000000000000000536a4c5000007837000185d4b24afb0c01365c5d909727b7256b4774d339f6019d6ddc0f1b8ff117c3751b5b5933a362babcce031af9d3845baa20630613798aa6b085931d100759d4ba30d2c37bb011d97e02cf00000000", "vin": [{"sequence": 4294967295, "scriptSig": {"hex": "483045022100c5ddd1ec5ce6cc38bf333ce2ad7aa80944fe0724d613e7e9fd88a350fa4b3047022028a328be38ef770eca9959aa4337827523c75341a0dd5ee9b43db7b8a0a11198012102f4896c74182df94d23aac9d0f50378647acb0bfa0d20ccec79366232b91e3ca9", "asm": "3045022100c5ddd1ec5ce6cc38bf333ce2ad7aa80944fe0724d613e7e9fd88a350fa4b3047022028a328be38ef770eca9959aa4337827523c75341a0dd5ee9b43db7b8a0a11198[ALL] 02f4896c74182df94d23aac9d0f50378647acb0bfa0d20ccec79366232b91e3ca9"}, "vout": 1, "txid": "174bf06e3f759098b984e319ea3cb628711b639ab92a0247fd0bb4614d9f0a30"}], "txid": "2823bd061c6b221b21103f22e997456b8acb1a3b5b1304bf046b211358adbe3b", "blocktime": 1537876114, "version": 1, "confirmations": 11460, "time": 1537876114, "locktime": 0, "vsize": 284, "size": 284}