{"hash": "2829502d9c6cd40a76b9521b6e5023e48e3c44b9fded50fa062b4de2c970c376", "blockhash": "0000000000000000001f76057863aec43deb6fa401d9628bb513d65a8098bfab", "vout": [{"scriptPubKey": {"reqSigs": 1, "hex": "a9146411e0f23a7ce1a788f5fba85e63d47540f11dc887", "addresses": ["3Ap8uxeyEBuCWSGEH7nFkCmAAV3ETUMike"], "asm": "OP_HASH160 6411e0f23a7ce1a788f5fba85e63d47540f11dc8 OP_EQUAL", "type": "scripthash"}, "value": 0.03694197, "n": 0}, {"scriptPubKey": {"reqSigs": 1, "hex": "76a91444508bf20ddf9c010dba6b00e6d47dde233cc40f88ac", "addresses": ["17EDSXRzgDzXNjUTerpJmDRSfZLkdgrLdf"], "asm": "OP_DUP OP_HASH160 44508bf20ddf9c010dba6b00e6d47dde233cc40f OP_EQUALVERIFY OP_CHECKSIG", "type": "pubkeyhash"}, "value": 0.72564896, "n": 1}], "hex": "010000000164a8731d8ecec745aba408fc9a28ecbddfaf28ea6a457bd136fa4c0d0fb6be55010000006a47304402200b79e87aa586c40425e6e736d7cec87bd45a4cced2937ad192ec23614d6b1fec02206bb0689ae55aed8431b52e1cc64041d47fa3910e1e54c970439bd742e9c3e306012102ec6451f248d8172cdf2a9b6a0c2a2e7a649b1a544b5911dd0051cee191f1a749ffffffff02755e38000000000017a9146411e0f23a7ce1a788f5fba85e63d47540f11dc887a0405304000000001976a91444508bf20ddf9c010dba6b00e6d47dde233cc40f88ac00000000", "vin": [{"sequence": 4294967295, "scriptSig": {"hex": "47304402200b79e87aa586c40425e6e736d7cec87bd45a4cced2937ad192ec23614d6b1fec02206bb0689ae55aed8431b52e1cc64041d47fa3910e1e54c970439bd742e9c3e306012102ec6451f248d8172cdf2a9b6a0c2a2e7a649b1a544b5911dd0051cee191f1a749", "asm": "304402200b79e87aa586c40425e6e736d7cec87bd45a4cced2937ad192ec23614d6b1fec02206bb0689ae55aed8431b52e1cc64041d47fa3910e1e54c970439bd742e9c3e306[ALL] 02ec6451f248d8172cdf2a9b6a0c2a2e7a649b1a544b5911dd0051cee191f1a749"}, "vout": 1, "txid": "55beb60f0d4cfa36d17b456aea28afdfbdec289afc08a4ab45c7ce8e1d73a864"}], "txid": "2829502d9c6cd40a76b9521b6e5023e48e3c44b9fded50fa062b4de2c970c376", "blocktime": 1537873891, "version": 1, "confirmations": 11477, "time": 1537873891, "locktime": 0, "vsize": 223, "size": 223}