{"hash": "73d7061c6418a257262d00d99657ee86bef68008188ec31e62e72e03eb8ce0e6", "blockhash": "00000000000000000024a2167bbff67b0be802c0b01cdd79e6331c2be6459f87", "vout": [{"scriptPubKey": {"reqSigs": 1, "hex": "76a9142e681bd6912af3455017c55fce5a829ace009ba988ac", "addresses": ["15ENoRjckWggSsQq2rvvL4VDigbFHbHGuy"], "asm": "OP_DUP OP_HASH160 2e681bd6912af3455017c55fce5a829ace009ba9 OP_EQUALVERIFY OP_CHECKSIG", "type": "pubkeyhash"}, "value": 0.2, "n": 0}, {"scriptPubKey": {"reqSigs": 1, "hex": "a91488ebac2def89105860c93d2f470be1619fc7c78587", "addresses": ["3EAz9T5Bar9R7j8ZQKNqawzye5GJNQVvY1"], "asm": "OP_HASH160 88ebac2def89105860c93d2f470be1619fc7c785 OP_EQUAL", "type": "scripthash"}, "value": 0.235734, "n": 1}, {"scriptPubKey": {"reqSigs": 1, "hex": "76a9145b8a352dd4fc10e31cd6f8d4770bbdc3310c9e9088ac", "addresses": ["19M24JHbw43qPym6QoGAVrVaGfMdYh6xar"], "asm": "OP_DUP OP_HASH160 5b8a352dd4fc10e31cd6f8d4770bbdc3310c9e90 OP_EQUALVERIFY OP_CHECKSIG", "type": "pubkeyhash"}, "value": 0.00166956, "n": 2}, {"scriptPubKey": {"reqSigs": 1, "hex": "a914e55a69799de3ea5dfa4c56aed6902d2e9fa0166f87", "addresses": ["3NbiyQiHf5oiBCEFxez2PspuMKXmwYHwZS"], "asm": "OP_HASH160 e55a69799de3ea5dfa4c56aed6902d2e9fa0166f OP_EQUAL", "type": "scripthash"}, "value": 0.02394625, "n": 3}, {"scriptPubKey": {"reqSigs": 1, "hex": "a914ea645e5e20987adfaa9d5fa4a915d008965f102387", "addresses": ["3P4NHAbib3uvj6QNYmPWqEJMZnx4HzszTp"], "asm": "OP_HASH160 ea645e5e20987adfaa9d5fa4a915d008965f1023 OP_EQUAL", "type": "scripthash"}, "value": 0.01106665, "n": 4}], "hex": "02000000000119eb3dbe38946bf45823164394d2fe5153e573d5a9a9da8d78660f92cdd7b8138f0000000017160014bddcffd24955b5a4a7335a3da662b03f0493f781ffffffff28924c4dc6203625d0e88761caa6762d81409caf39d8d0d87767a6fbf593e7810100000017160014baf695611c60fcb761f0059e9bc5dfff155793e8ffffffff9aee6ef77a63a32a574cc9a8453d0e43a3d557c3d5ebecc3c1815ada9925f0de0000000017160014a88d102c3ed51db2f8d6e8188f3d3cde98dfc34bffffffff33c5c75bd2c46174a8775b689724a4a7958a12f458666ecfe600f8353e2ab71e05000000171600142a2b520a4f68319e53dcd1e1bb0060b478a8872cffffffff0fb0684467b78d4f74e464e475a3629ca36479067164419629ef00a029e4a37a010000001716001416428c825ef5cddbebcebb60ecd73308170858feffffffff365d53356305f558c9d7b3c4d9a22e253cdc03ee05848938fa615dea7131ab27090000001716001421ac3daf8b6602e03203fe28738f842ab28bdadeffffffff1e2ce5595e62914f36a881085fe0596f5bd4a4544141855e41cfdca434e05bc51100000017160014fa5a44e47ba3e4766c85554817ec1b84f25365caffffffffc69ef8d0e60acd1a3553bcf761f7b6110fe585b3f76bf7f830eb0f1604c9f78702000000171600142767162ab05c0b31357c7723c3b984f16c313c8cffffffffe72c39fd2a40d63666ee20fd14a482c4a6f4adb1df53b6e30d488112afb9fdaa0000000017160014dcf4c74c6d76e49ae111cce12371d2746db57063ffffffffbf15622e9e9e960388b82b8f53ba690542873c49be2147ee2445583457aa9aa20000000017160014d9e859b5d990b9e30c42b9d85d49ec03f112e625ffffffffd9f3974283231f4b12fdea035fbe97935c0e06c0891a42b946035ab7e8735bfe04000000171600142767162ab05c0b31357c7723c3b984f16c313c8cffffffff5086b6badde973c9b2b7f11ffa6487262918017827a0f89fe71295dd4e0456530200000017160014009cd24a8b700887c34f855f4536f1f687df3132ffffffff365d53356305f558c9d7b3c4d9a22e253cdc03ee05848938fa615dea7131ab2716000000171600145957ff88d6c0d4de84fb0ff6bcda95ca05cf0bb0ffffffffd06cdaa1b7eaaf11e3bf115eacd6c6787bab6231369605455fd5f0fae1e06e7e06000000171600140cda8917e35cfa4323eaa75f0ba80c963bca44bfffffffff365d53356305f558c9d7b3c4d9a22e253cdc03ee05848938fa615dea7131ab271500000017160014e360edfc61efcd2dca391d6c972b6a0e984a4af0ffffffff7005e1b2d05308566bb427f697f3205e80600d5a20aa59ff96ccab4b6a21390000000000171600148702ad00d3acde22e4d82661ff04ccb1281417f3ffffffffefac6b9a586f1dd33c4537fdc3604641fa7debb0a11ff20ff1596a975e5c4ade0000000017160014a50c4d97c8983b4a4b17f06d07f1d56783742a62fffffffff53b5f2a690d9164c0ca7a860503e5014692e6e7d2dcd7a8f7af1757d101b7c600000000171600146f643752524afe3bf53e596ed32fbe5141bddc83ffffffffd06cdaa1b7eaaf11e3bf115eacd6c6787bab6231369605455fd5f0fae1e06e7e0b00000017160014dffb37d645a27942358f5ae5e9450683a4e852e7ffffffff365d53356305f558c9d7b3c4d9a22e253cdc03ee05848938fa615dea7131ab270200000017160014d3870449b4b5c4d6099464eaaa921ff4da85fcf4ffffffff41a31b8988facac9155ad77e3c88855821cd2364b2b51f64155b6d2f060840390100000017160014b9103fa73ad088565f795024933766ae4a1de23afffffffff82d7c3d9475eb1ee7b32dc16c967240fa4f8f89f004959c2d6de81ac2c806910100000017160014626f8b7c379166d918b849ea15539f4a15f52135ffffffff365d53356305f558c9d7b3c4d9a22e253cdc03ee05848938fa615dea7131ab270f0000001716001432fa8cea934a553f7c2db5f504f9ecbdf7573fb9ffffffff7b5c7c0dde2bc2838fec41e801401f03c4862eb19a86e9c16fdffa5e221a682f000000001716001449257383cb0a29dea53f31647a609572d36ae127ffffffffd06cdaa1b7eaaf11e3bf115eacd6c6787bab6231369605455fd5f0fae1e06e7e0000000017160014ff5541f77d60f6dd0bc0c5165f0b86b343e06097ffffffff05002d3101000000001976a9142e681bd6912af3455017c55fce5a829ace009ba988ac98b367010000000017a91488ebac2def89105860c93d2f470be1619fc7c785872c8c0200000000001976a9145b8a352dd4fc10e31cd6f8d4770bbdc3310c9e9088ac018a24000000000017a914e55a69799de3ea5dfa4c56aed6902d2e9fa0166f87e9e210000000000017a914ea645e5e20987adfaa9d5fa4a915d008965f10238702483045022100f2a45d1e4cc1c570d8ecaf734d0207ea72d48e071baf54b8d477b965c5d8c52b0220221484f15e39dd61ff0c8ab99f85b6c316d7cf5b86a58cc281d4000c0cf5a0ef012102afa4a8743e2f39e4ff4d55ee9feb612eb69d8439c548b6353073bda0daa2e7e002483045022100979edd2d502e0aa98368dd85e7c3851aba8c2c52dd8fddcb232660278d84f39202201f26e3ef0b8c6fb908c7fdce9b758733722d8760ae90a46b6716c59347c0b7f8012102303510a1414d16fea6620709d43e722e53666a692a09acfa07cec1b4d4c22566024830450221009b669a886a56aa2b02702816df769199ca3d8beed6c2274637075211799a631b02206b2d1231ab6d99b03c2d2e9c78f213db1ee2856875fdb2d006f6885d4ba5d1ea01210243cab62c5aabc86dcab7e47ac9be1cedead787ce790d7cc8d54815de7599f2910248304502210095fe08ef98535e688f201a4777e5154cfa39390d89b6d7d5cd5295547ad2dd0202204b65d371e80d32cba086e71bcf153f1242b0fd40bd171e9eab9331640c1b5b6d0121023ee8f96bb64a95fad1dd994c74a96d1cf179dfe3a3b41bfa5471fec49d0cca4902483045022100cdb5f541bfbd1e569b4b7b6f879d86808fdca8be2ffa5d4618d78f17c2d37927022031f9cbb37f17bfc7c2ae8000d3a1bbb9eacb16bafc834295731be7c98be9c022012102128aa7ce2cba209e3f64d871523b053d5ee23be8b7e955e68af2539eb8de240402473044022038e815914992442e071bd4c02b5377f47359d8eee32f564c35eace4fc636be1f022003996f8041568bd66c990a753b1e14de432592e97c9d8c89730c0a2b4b8648dc0121038d632f76e79a02f21596d39c7877d2f64849741cf748dbdbf4be30a234b06d1d02473044022021c7cb08d24f4c7b342ff0ea85d5bdecaa11845d3028aaf6690a0a5be6429cc502203e82166b555c7070164105f482cf802717af4e5ea5c52ec7d2459bde52b8d346012102aba13591328004e0a86a9fdc09625160c3d7748ed6615813f1274f76d0f0d702024730440220241dc0ffc5ac4c6ac4d4b195f319abcb7715f53b7c4e0528d7459476236fd8920220470349bfd8a1bacf2770f526de385e5b4b6332705d1a936a179a151fd78c476501210292a5db6b22543b58a29942c318fcd206fb3492d3c303fc233b4908ab0a96811502473044022031d9e7e0537d83aa7253f9b8e694b928bc92c7aebfb5314959531c8b44e62fb102201dc9b5635a87d983045930c5550c92b7b8e060399d59f69d8963ebfd325bc1660121036f422913823b9ecdd8b4aaeca0760baecb4791ce153e7ea6cd304d619a04180d02473044022050192bd1055bb38e330a80354135490056db067026915983a4e58666cdb30757022051bfbb3344f61ed496c822748c9946ca835290ff3b5b92c3f9fa78126d4b321d012102bf3b90e89d51fd2ed2ce65e497c3823d4d2ba250c4f98d332b6d3d9b4e56c9b0024730440220141313bc33219ecf6500bb255b52d8c9165723d16789cfb267d172c550d98edc022033e75473abca2cd9853c812b3203380d6a5ba41559bd969c9ee682dea2e7069301210292a5db6b22543b58a29942c318fcd206fb3492d3c303fc233b4908ab0a9681150247304402202598a1420c3332545353d4bf04f7af48521175df2566dcd3e88812c16262f1be0220077a521e34c3f841ce04a5affbc788ede2c291dc9065691e50e3dd51def4bf5c01210202a3349463fe6fbd70d7ab6e83497dbf137196729c90fd8d0b62a1cb3faf8e4102483045022100dabfeab5474be21a9f78cd556aa41879d21fb1570404f3f6b97636c72fb152150220058065fca042a62dc13bba81a07ac7146a37da3b78978e8d98b2e8b696c196140121022c5119fd051d8e7fbda28b43515b50109e941264ebab364c72baae87fbc662d902473044022033ffc697041671450379cd88854790a13caa75c5cfc5454639deb074041f31cc02202719e5fc23d4efa8ba2cbd975c8cfa64614e63c88e5284ca395adc89b2b368c4012102bf9f8ace93c7dbb83b8a8522288bdb3500991eace8f2d68179e6f6a771c638620247304402204be02fc5cea92f73f0e1b9cc16c401a9b2a4e43249985b1eb1f612bcedb9a4b1022004680595928ce1cd6f20f91bb5e652f7120b63c65e02e2f989f847f16a064d07012103ac44e588c0079052eb32cae93e5ef100ef043cc0b444face5cb9a1d9ee4866980247304402203a16cd8601165c3fe98f08a430686a04f1e64b9d11e104e4ecf3d55cc4a2ca1c02205a20959a94217a0f1c265366efc461a75dfbacf96df6fad9c80733ab73e69b590121026f81d76d084dd5015866a1c140ab629c8d5c68b2f48b154fd45b322e9f2121390247304402203c2c55559886e9b8fcf208d8bb4bd4f7e2ff0accd64086cb3bdeb5c7dd7f77a902206f8aa778e1527e7b971b95552066f6e36ed66e0959c4fc9d39d4d76c604e5743012103620ece3f965e82b828d75d136370a9cb5ceb5399e185347df95cdec754f5134102483045022100e1043abce96a53cc2e1d80f184132523eb40b9623de61a32e3a94eb8556998e6022057d3bc4f024e24110c3bd50214e3ebbfcb455a20b6ed0f21810d3d6586b45b3e012102408b583f14559b374e44ade6189e5be30457cc83afd175b3a7d9c667a468b33a02483045022100d7e4dd339c28866d8f73c3b1f51e9cd395ebbe62d50ec406c58556617310573202200b44b536f19266f2fa6de7f82a2ecd149799f0312ed45baf83363ff06971fc84012103909352cf330df0db9135d12932ad0eaf6d954fd4be9f30027c9c7c36d211322a024730440220324920d953f803e059359023282a35241f562ae9a9a8c0c6ab4e6f45a0ac3d8102202cb10307061aa48687057e59afb3e1c2d28ac44660bd5204c03b9189cb711a15012103b74b7db2af34557b28a5b2d5e3f3528a633ce2f77da7549e84228f6765c121f502483045022100cf675f85a07aa3383a0676b60b84fc38a1a3483a79daa6d60fbf2771e68e7c3002203f354bcfaf0d1d1b76cbec426ed92cd8d8a4490e1e4f3f9c7e1be0565f466084012103cad9b5bd9bc977820abe2fa66d338fd1c6d0427032b2cc26aa69dfb13055f73502483045022100945cbd1934a7c9f4ca4f72ba0eca238ece24fc0c550edc49f0dd86965276db09022030a7452ad2a6dc48e1746f01c49a8c8f764b700f751ff0dc145310d191a2b1f70121025c826b900a38c77089c8d1b6200a41ce348451114a0b00495e69b96c32c26f5a0247304402202eb5b4ab2fedecf62c5f80177757d09a36c06afac68fc2a07050fb4bcb39c9a902200ad108929465fe877493c9ccaee66c746cb7bdc0484c79f6e98c0235c96a9cc001210342d7f30602af1694e4fbae26481905b3c74e5bd6c669df42fe38faf67bf94540024830450221009131d20c9670d49acde0c73ac8d34497a499d45a171cd36bafbf921e8ebd0cdc0220649ee672679c6fb8b07699590a1a779b5248af3287b8997a4b8c4287b0544e7601210357960f8ecfdd543642ceefdfa9514cf7821501dd945d744d697e879d4414b3d302483045022100b8d5b57c3d0a8152f3706a757fc20680df530b0131077b602fa465fdec8665b5022040b1db27d3ed28a1fa115186433d0f878731fde5572458a48725428f279aae840121033b461a4a564d64f834fa6ca69f33ebb166186593bdbd94ea8ad3265cf8ed351200000000", "vin": [{"txinwitness": ["3045022100f2a45d1e4cc1c570d8ecaf734d0207ea72d48e071baf54b8d477b965c5d8c52b0220221484f15e39dd61ff0c8ab99f85b6c316d7cf5b86a58cc281d4000c0cf5a0ef01", "02afa4a8743e2f39e4ff4d55ee9feb612eb69d8439c548b6353073bda0daa2e7e0"], "sequence": 4294967295, "scriptSig": {"hex": "160014bddcffd24955b5a4a7335a3da662b03f0493f781", "asm": "0014bddcffd24955b5a4a7335a3da662b03f0493f781"}, "vout": 0, "txid": "8f13b8d7cd920f66788ddaa9a9d573e55351fed29443162358f46b9438be3deb"}, {"txinwitness": ["3045022100979edd2d502e0aa98368dd85e7c3851aba8c2c52dd8fddcb232660278d84f39202201f26e3ef0b8c6fb908c7fdce9b758733722d8760ae90a46b6716c59347c0b7f801", "02303510a1414d16fea6620709d43e722e53666a692a09acfa07cec1b4d4c22566"], "sequence": 4294967295, "scriptSig": {"hex": "160014baf695611c60fcb761f0059e9bc5dfff155793e8", "asm": "0014baf695611c60fcb761f0059e9bc5dfff155793e8"}, "vout": 1, "txid": "81e793f5fba66777d8d0d839af9c40812d76a6ca6187e8d0253620c64d4c9228"}, {"txinwitness": ["30450221009b669a886a56aa2b02702816df769199ca3d8beed6c2274637075211799a631b02206b2d1231ab6d99b03c2d2e9c78f213db1ee2856875fdb2d006f6885d4ba5d1ea01", "0243cab62c5aabc86dcab7e47ac9be1cedead787ce790d7cc8d54815de7599f291"], "sequence": 4294967295, "scriptSig": {"hex": "160014a88d102c3ed51db2f8d6e8188f3d3cde98dfc34b", "asm": "0014a88d102c3ed51db2f8d6e8188f3d3cde98dfc34b"}, "vout": 0, "txid": "def02599da5a81c1c3ecebd5c357d5a3430e3d45a8c94c572aa3637af76eee9a"}, {"txinwitness": ["304502210095fe08ef98535e688f201a4777e5154cfa39390d89b6d7d5cd5295547ad2dd0202204b65d371e80d32cba086e71bcf153f1242b0fd40bd171e9eab9331640c1b5b6d01", "023ee8f96bb64a95fad1dd994c74a96d1cf179dfe3a3b41bfa5471fec49d0cca49"], "sequence": 4294967295, "scriptSig": {"hex": "1600142a2b520a4f68319e53dcd1e1bb0060b478a8872c", "asm": "00142a2b520a4f68319e53dcd1e1bb0060b478a8872c"}, "vout": 5, "txid": "1eb72a3e35f800e6cf6e6658f4128a95a7a42497685b77a87461c4d25bc7c533"}, {"txinwitness": ["3045022100cdb5f541bfbd1e569b4b7b6f879d86808fdca8be2ffa5d4618d78f17c2d37927022031f9cbb37f17bfc7c2ae8000d3a1bbb9eacb16bafc834295731be7c98be9c02201", "02128aa7ce2cba209e3f64d871523b053d5ee23be8b7e955e68af2539eb8de2404"], "sequence": 4294967295, "scriptSig": {"hex": "16001416428c825ef5cddbebcebb60ecd73308170858fe", "asm": "001416428c825ef5cddbebcebb60ecd73308170858fe"}, "vout": 1, "txid": "7aa3e429a000ef2996416471067964a39c62a375e464e4744f8db7674468b00f"}, {"txinwitness": ["3044022038e815914992442e071bd4c02b5377f47359d8eee32f564c35eace4fc636be1f022003996f8041568bd66c990a753b1e14de432592e97c9d8c89730c0a2b4b8648dc01", "038d632f76e79a02f21596d39c7877d2f64849741cf748dbdbf4be30a234b06d1d"], "sequence": 4294967295, "scriptSig": {"hex": "16001421ac3daf8b6602e03203fe28738f842ab28bdade", "asm": "001421ac3daf8b6602e03203fe28738f842ab28bdade"}, "vout": 9, "txid": "27ab3171ea5d61fa38898405ee03dc3c252ea2d9c4b3d7c958f5056335535d36"}, {"txinwitness": ["3044022021c7cb08d24f4c7b342ff0ea85d5bdecaa11845d3028aaf6690a0a5be6429cc502203e82166b555c7070164105f482cf802717af4e5ea5c52ec7d2459bde52b8d34601", "02aba13591328004e0a86a9fdc09625160c3d7748ed6615813f1274f76d0f0d702"], "sequence": 4294967295, "scriptSig": {"hex": "160014fa5a44e47ba3e4766c85554817ec1b84f25365ca", "asm": "0014fa5a44e47ba3e4766c85554817ec1b84f25365ca"}, "vout": 17, "txid": "c55be034a4dccf415e85414154a4d45b6f59e05f0881a8364f91625e59e52c1e"}, {"txinwitness": ["30440220241dc0ffc5ac4c6ac4d4b195f319abcb7715f53b7c4e0528d7459476236fd8920220470349bfd8a1bacf2770f526de385e5b4b6332705d1a936a179a151fd78c476501", "0292a5db6b22543b58a29942c318fcd206fb3492d3c303fc233b4908ab0a968115"], "sequence": 4294967295, "scriptSig": {"hex": "1600142767162ab05c0b31357c7723c3b984f16c313c8c", "asm": "00142767162ab05c0b31357c7723c3b984f16c313c8c"}, "vout": 2, "txid": "87f7c904160feb30f8f76bf7b385e50f11b6f761f7bc53351acd0ae6d0f89ec6"}, {"txinwitness": ["3044022031d9e7e0537d83aa7253f9b8e694b928bc92c7aebfb5314959531c8b44e62fb102201dc9b5635a87d983045930c5550c92b7b8e060399d59f69d8963ebfd325bc16601", "036f422913823b9ecdd8b4aaeca0760baecb4791ce153e7ea6cd304d619a04180d"], "sequence": 4294967295, "scriptSig": {"hex": "160014dcf4c74c6d76e49ae111cce12371d2746db57063", "asm": "0014dcf4c74c6d76e49ae111cce12371d2746db57063"}, "vout": 0, "txid": "aafdb9af1281480de3b653dfb1adf4a6c482a414fd20ee6636d6402afd392ce7"}, {"txinwitness": ["3044022050192bd1055bb38e330a80354135490056db067026915983a4e58666cdb30757022051bfbb3344f61ed496c822748c9946ca835290ff3b5b92c3f9fa78126d4b321d01", "02bf3b90e89d51fd2ed2ce65e497c3823d4d2ba250c4f98d332b6d3d9b4e56c9b0"], "sequence": 4294967295, "scriptSig": {"hex": "160014d9e859b5d990b9e30c42b9d85d49ec03f112e625", "asm": "0014d9e859b5d990b9e30c42b9d85d49ec03f112e625"}, "vout": 0, "txid": "a29aaa5734584524ee4721be493c87420569ba538f2bb88803969e9e2e6215bf"}, {"txinwitness": ["30440220141313bc33219ecf6500bb255b52d8c9165723d16789cfb267d172c550d98edc022033e75473abca2cd9853c812b3203380d6a5ba41559bd969c9ee682dea2e7069301", "0292a5db6b22543b58a29942c318fcd206fb3492d3c303fc233b4908ab0a968115"], "sequence": 4294967295, "scriptSig": {"hex": "1600142767162ab05c0b31357c7723c3b984f16c313c8c", "asm": "00142767162ab05c0b31357c7723c3b984f16c313c8c"}, "vout": 4, "txid": "fe5b73e8b75a0346b9421a89c0060e5c9397be5f03eafd124b1f23834297f3d9"}, {"txinwitness": ["304402202598a1420c3332545353d4bf04f7af48521175df2566dcd3e88812c16262f1be0220077a521e34c3f841ce04a5affbc788ede2c291dc9065691e50e3dd51def4bf5c01", "0202a3349463fe6fbd70d7ab6e83497dbf137196729c90fd8d0b62a1cb3faf8e41"], "sequence": 4294967295, "scriptSig": {"hex": "160014009cd24a8b700887c34f855f4536f1f687df3132", "asm": "0014009cd24a8b700887c34f855f4536f1f687df3132"}, "vout": 2, "txid": "5356044edd9512e79ff8a02778011829268764fa1ff1b7b2c973e9ddbab68650"}, {"txinwitness": ["3045022100dabfeab5474be21a9f78cd556aa41879d21fb1570404f3f6b97636c72fb152150220058065fca042a62dc13bba81a07ac7146a37da3b78978e8d98b2e8b696c1961401", "022c5119fd051d8e7fbda28b43515b50109e941264ebab364c72baae87fbc662d9"], "sequence": 4294967295, "scriptSig": {"hex": "1600145957ff88d6c0d4de84fb0ff6bcda95ca05cf0bb0", "asm": "00145957ff88d6c0d4de84fb0ff6bcda95ca05cf0bb0"}, "vout": 22, "txid": "27ab3171ea5d61fa38898405ee03dc3c252ea2d9c4b3d7c958f5056335535d36"}, {"txinwitness": ["3044022033ffc697041671450379cd88854790a13caa75c5cfc5454639deb074041f31cc02202719e5fc23d4efa8ba2cbd975c8cfa64614e63c88e5284ca395adc89b2b368c401", "02bf9f8ace93c7dbb83b8a8522288bdb3500991eace8f2d68179e6f6a771c63862"], "sequence": 4294967295, "scriptSig": {"hex": "1600140cda8917e35cfa4323eaa75f0ba80c963bca44bf", "asm": "00140cda8917e35cfa4323eaa75f0ba80c963bca44bf"}, "vout": 6, "txid": "7e6ee0e1faf0d55f450596363162ab7b78c6d6ac5e11bfe311afeab7a1da6cd0"}, {"txinwitness": ["304402204be02fc5cea92f73f0e1b9cc16c401a9b2a4e43249985b1eb1f612bcedb9a4b1022004680595928ce1cd6f20f91bb5e652f7120b63c65e02e2f989f847f16a064d0701", "03ac44e588c0079052eb32cae93e5ef100ef043cc0b444face5cb9a1d9ee486698"], "sequence": 4294967295, "scriptSig": {"hex": "160014e360edfc61efcd2dca391d6c972b6a0e984a4af0", "asm": "0014e360edfc61efcd2dca391d6c972b6a0e984a4af0"}, "vout": 21, "txid": "27ab3171ea5d61fa38898405ee03dc3c252ea2d9c4b3d7c958f5056335535d36"}, {"txinwitness": ["304402203a16cd8601165c3fe98f08a430686a04f1e64b9d11e104e4ecf3d55cc4a2ca1c02205a20959a94217a0f1c265366efc461a75dfbacf96df6fad9c80733ab73e69b5901", "026f81d76d084dd5015866a1c140ab629c8d5c68b2f48b154fd45b322e9f212139"], "sequence": 4294967295, "scriptSig": {"hex": "1600148702ad00d3acde22e4d82661ff04ccb1281417f3", "asm": "00148702ad00d3acde22e4d82661ff04ccb1281417f3"}, "vout": 0, "txid": "0039216a4babcc96ff59aa205a0d60805e20f397f627b46b560853d0b2e10570"}, {"txinwitness": ["304402203c2c55559886e9b8fcf208d8bb4bd4f7e2ff0accd64086cb3bdeb5c7dd7f77a902206f8aa778e1527e7b971b95552066f6e36ed66e0959c4fc9d39d4d76c604e574301", "03620ece3f965e82b828d75d136370a9cb5ceb5399e185347df95cdec754f51341"], "sequence": 4294967295, "scriptSig": {"hex": "160014a50c4d97c8983b4a4b17f06d07f1d56783742a62", "asm": "0014a50c4d97c8983b4a4b17f06d07f1d56783742a62"}, "vout": 0, "txid": "de4a5c5e976a59f10ff21fa1b0eb7dfa414660c3fd37453cd31d6f589a6bacef"}, {"txinwitness": ["3045022100e1043abce96a53cc2e1d80f184132523eb40b9623de61a32e3a94eb8556998e6022057d3bc4f024e24110c3bd50214e3ebbfcb455a20b6ed0f21810d3d6586b45b3e01", "02408b583f14559b374e44ade6189e5be30457cc83afd175b3a7d9c667a468b33a"], "sequence": 4294967295, "scriptSig": {"hex": "1600146f643752524afe3bf53e596ed32fbe5141bddc83", "asm": "00146f643752524afe3bf53e596ed32fbe5141bddc83"}, "vout": 0, "txid": "c6b701d15717aff7a8d7dcd2e7e6924601e50305867acac064910d692a5f3bf5"}, {"txinwitness": ["3045022100d7e4dd339c28866d8f73c3b1f51e9cd395ebbe62d50ec406c58556617310573202200b44b536f19266f2fa6de7f82a2ecd149799f0312ed45baf83363ff06971fc8401", "03909352cf330df0db9135d12932ad0eaf6d954fd4be9f30027c9c7c36d211322a"], "sequence": 4294967295, "scriptSig": {"hex": "160014dffb37d645a27942358f5ae5e9450683a4e852e7", "asm": "0014dffb37d645a27942358f5ae5e9450683a4e852e7"}, "vout": 11, "txid": "7e6ee0e1faf0d55f450596363162ab7b78c6d6ac5e11bfe311afeab7a1da6cd0"}, {"txinwitness": ["30440220324920d953f803e059359023282a35241f562ae9a9a8c0c6ab4e6f45a0ac3d8102202cb10307061aa48687057e59afb3e1c2d28ac44660bd5204c03b9189cb711a1501", "03b74b7db2af34557b28a5b2d5e3f3528a633ce2f77da7549e84228f6765c121f5"], "sequence": 4294967295, "scriptSig": {"hex": "160014d3870449b4b5c4d6099464eaaa921ff4da85fcf4", "asm": "0014d3870449b4b5c4d6099464eaaa921ff4da85fcf4"}, "vout": 2, "txid": "27ab3171ea5d61fa38898405ee03dc3c252ea2d9c4b3d7c958f5056335535d36"}, {"txinwitness": ["3045022100cf675f85a07aa3383a0676b60b84fc38a1a3483a79daa6d60fbf2771e68e7c3002203f354bcfaf0d1d1b76cbec426ed92cd8d8a4490e1e4f3f9c7e1be0565f46608401", "03cad9b5bd9bc977820abe2fa66d338fd1c6d0427032b2cc26aa69dfb13055f735"], "sequence": 4294967295, "scriptSig": {"hex": "160014b9103fa73ad088565f795024933766ae4a1de23a", "asm": "0014b9103fa73ad088565f795024933766ae4a1de23a"}, "vout": 1, "txid": "394008062f6d5b15641fb5b26423cd215885883c7ed75a15c9cafa88891ba341"}, {"txinwitness": ["3045022100945cbd1934a7c9f4ca4f72ba0eca238ece24fc0c550edc49f0dd86965276db09022030a7452ad2a6dc48e1746f01c49a8c8f764b700f751ff0dc145310d191a2b1f701", "025c826b900a38c77089c8d1b6200a41ce348451114a0b00495e69b96c32c26f5a"], "sequence": 4294967295, "scriptSig": {"hex": "160014626f8b7c379166d918b849ea15539f4a15f52135", "asm": "0014626f8b7c379166d918b849ea15539f4a15f52135"}, "vout": 1, "txid": "9106c8c21ae86d2d9c9504f0898f4ffa4072966cc12db3e71eeb75943d7c2df8"}, {"txinwitness": ["304402202eb5b4ab2fedecf62c5f80177757d09a36c06afac68fc2a07050fb4bcb39c9a902200ad108929465fe877493c9ccaee66c746cb7bdc0484c79f6e98c0235c96a9cc001", "0342d7f30602af1694e4fbae26481905b3c74e5bd6c669df42fe38faf67bf94540"], "sequence": 4294967295, "scriptSig": {"hex": "16001432fa8cea934a553f7c2db5f504f9ecbdf7573fb9", "asm": "001432fa8cea934a553f7c2db5f504f9ecbdf7573fb9"}, "vout": 15, "txid": "27ab3171ea5d61fa38898405ee03dc3c252ea2d9c4b3d7c958f5056335535d36"}, {"txinwitness": ["30450221009131d20c9670d49acde0c73ac8d34497a499d45a171cd36bafbf921e8ebd0cdc0220649ee672679c6fb8b07699590a1a779b5248af3287b8997a4b8c4287b0544e7601", "0357960f8ecfdd543642ceefdfa9514cf7821501dd945d744d697e879d4414b3d3"], "sequence": 4294967295, "scriptSig": {"hex": "16001449257383cb0a29dea53f31647a609572d36ae127", "asm": "001449257383cb0a29dea53f31647a609572d36ae127"}, "vout": 0, "txid": "2f681a225efadf6fc1e9869ab12e86c4031f4001e841ec8f83c22bde0d7c5c7b"}, {"txinwitness": ["3045022100b8d5b57c3d0a8152f3706a757fc20680df530b0131077b602fa465fdec8665b5022040b1db27d3ed28a1fa115186433d0f878731fde5572458a48725428f279aae8401", "033b461a4a564d64f834fa6ca69f33ebb166186593bdbd94ea8ad3265cf8ed3512"], "sequence": 4294967295, "scriptSig": {"hex": "160014ff5541f77d60f6dd0bc0c5165f0b86b343e06097", "asm": "0014ff5541f77d60f6dd0bc0c5165f0b86b343e06097"}, "vout": 0, "txid": "7e6ee0e1faf0d55f450596363162ab7b78c6d6ac5e11bfe311afeab7a1da6cd0"}], "txid": "28302a0e33a4ca5eced1be0899a6b5dd8eb022134271fafcb3b671212d20862d", "blocktime": 1537870564, "version": 2, "confirmations": 11515, "time": 1537870564, "locktime": 0, "vsize": 2447, "size": 4463}