{"hash": "2831e6e9cda779e4db3be9b2e9fe17cefc01589f28b1312092539c7bc9445dd8", "blockhash": "000000000000000000022b45ed06c6f4ccd3cf7fb5ba4856ebd2e58215665228", "vout": [{"scriptPubKey": {"type": "nulldata", "hex": "6a3343fe4c11c973b446c019c905e83876bf971302eab047bcd6a64b2733eb80194cc76aac56316ca4df5e1906f20a88bebf8c6879", "asm": "OP_RETURN 43fe4c11c973b446c019c905e83876bf971302eab047bcd6a64b2733eb80194cc76aac56316ca4df5e1906f20a88bebf8c6879"}, "value": 0.0, "n": 0}, {"scriptPubKey": {"reqSigs": 1, "hex": "76a914fe0783dbf90b51db6a8e2f6fe8d6a836dd2ff81988ac", "addresses": ["1QABdt8QEkdJHSSqs9czzw7icCo5y5NAcj"], "asm": "OP_DUP OP_HASH160 fe0783dbf90b51db6a8e2f6fe8d6a836dd2ff819 OP_EQUALVERIFY OP_CHECKSIG", "type": "pubkeyhash"}, "value": 0.00377548, "n": 1}], "hex": "0100000001615c3c7bb8986494fbcc4a99e0a4349875ccaa08f04c483c392cdb8d869d4924010000006a473044022051b778a30a5442ad3a2389377181a216778b95991ce77f42788bb570306a3ba2022038fdd8d0d22498848b526e6ea126f2aa099ac2253682fa1fb3eb4afe5e7bf9c8012102ceea26b72ecf54ccf14472d4bfbb2543ce744d27f1d88f8709a01ea1e7fa3bc2ffffffff020000000000000000356a3343fe4c11c973b446c019c905e83876bf971302eab047bcd6a64b2733eb80194cc76aac56316ca4df5e1906f20a88bebf8c6879ccc20500000000001976a914fe0783dbf90b51db6a8e2f6fe8d6a836dd2ff81988ac00000000", "vin": [{"sequence": 4294967295, "scriptSig": {"hex": "473044022051b778a30a5442ad3a2389377181a216778b95991ce77f42788bb570306a3ba2022038fdd8d0d22498848b526e6ea126f2aa099ac2253682fa1fb3eb4afe5e7bf9c8012102ceea26b72ecf54ccf14472d4bfbb2543ce744d27f1d88f8709a01ea1e7fa3bc2", "asm": "3044022051b778a30a5442ad3a2389377181a216778b95991ce77f42788bb570306a3ba2022038fdd8d0d22498848b526e6ea126f2aa099ac2253682fa1fb3eb4afe5e7bf9c8[ALL] 02ceea26b72ecf54ccf14472d4bfbb2543ce744d27f1d88f8709a01ea1e7fa3bc2"}, "vout": 1, "txid": "24499d868ddb2c393c484cf008aacc759834a4e0994accfb946498b87b3c5c61"}], "txid": "2831e6e9cda779e4db3be9b2e9fe17cefc01589f28b1312092539c7bc9445dd8", "blocktime": 1537869901, "version": 1, "confirmations": 11523, "time": 1537869901, "locktime": 0, "vsize": 253, "size": 253}