{"hash": "28376e8f13bb1522e4f915af20f0fdb2a1e623866e70f0980199212c194bd24a", "blockhash": "0000000000000000001cda96e906b7601b7a6fb1a3b62bca570a9e5d8f4b3de1", "vout": [{"scriptPubKey": {"reqSigs": 1, "hex": "a914eea4cabb01a22ddca5591afb0c7c5c8ad9db7d4787", "addresses": ["3PSrA9DSv7oCU9qsgnKhzMPaQd9gKeJgFr"], "asm": "OP_HASH160 eea4cabb01a22ddca5591afb0c7c5c8ad9db7d47 OP_EQUAL", "type": "scripthash"}, "value": 0.00172054, "n": 0}, {"scriptPubKey": {"reqSigs": 1, "hex": "76a9146798821ef3eda1bb2ed4b02d29171e57c4e24efb88ac", "addresses": ["1ASmJDkqwSdSppWfxye6nDfAzFYtdM9srN"], "asm": "OP_DUP OP_HASH160 6798821ef3eda1bb2ed4b02d29171e57c4e24efb OP_EQUALVERIFY OP_CHECKSIG", "type": "pubkeyhash"}, "value": 0.03626434, "n": 1}], "hex": "0100000001141b35e74e5b9a94650d8853ec320d5f151d04e6cb7cb973dc422ee94be64153010000006a4730440220182abac84a78272781e3e1bd64c6d91333b78fae24b4726e11dda7d5fe3cd2f8022062b9f353af0ee8956fbb7f298a8d53f4d9b5d172317e3177adec4ca0a2cc93eb012102afbcbe68e5bcec741c9cef9d470837c3cf82a95c01e57bcf7e3bf965aa241552ffffffff0216a002000000000017a914eea4cabb01a22ddca5591afb0c7c5c8ad9db7d4787c2553700000000001976a9146798821ef3eda1bb2ed4b02d29171e57c4e24efb88ac00000000", "vin": [{"sequence": 4294967295, "scriptSig": {"hex": "4730440220182abac84a78272781e3e1bd64c6d91333b78fae24b4726e11dda7d5fe3cd2f8022062b9f353af0ee8956fbb7f298a8d53f4d9b5d172317e3177adec4ca0a2cc93eb012102afbcbe68e5bcec741c9cef9d470837c3cf82a95c01e57bcf7e3bf965aa241552", "asm": "30440220182abac84a78272781e3e1bd64c6d91333b78fae24b4726e11dda7d5fe3cd2f8022062b9f353af0ee8956fbb7f298a8d53f4d9b5d172317e3177adec4ca0a2cc93eb[ALL] 02afbcbe68e5bcec741c9cef9d470837c3cf82a95c01e57bcf7e3bf965aa241552"}, "vout": 1, "txid": "5341e64be92e42dc73b97ccbe6041d155f0d32ec53880d65949a5b4ee7351b14"}], "txid": "28376e8f13bb1522e4f915af20f0fdb2a1e623866e70f0980199212c194bd24a", "blocktime": 1537873282, "version": 1, "confirmations": 11483, "time": 1537873282, "locktime": 0, "vsize": 223, "size": 223}