{"hash": "87fa20f90eb754e687cb327ffc1c79d9ac7a8eecea4414dd9b719bc6cd4062de", "blockhash": "0000000000000000000e13cef7c366c0283d82e591d1acd082e914b08063cdf1", "vout": [{"scriptPubKey": {"reqSigs": 1, "hex": "001438b3fe924fd46ca9adf937e318703e6ad1c516a0", "addresses": ["bc1q8zelayj063k2nt0exl33sup7dtgu294qxc4ces"], "asm": "0 38b3fe924fd46ca9adf937e318703e6ad1c516a0", "type": "witness_v0_keyhash"}, "value": 5.956e-05, "n": 0}, {"scriptPubKey": {"reqSigs": 1, "hex": "76a914c1b7b0a5ba36bdde0a5eb38d2b60d3d653b5f7b988ac", "addresses": ["1JfHU2kfmxrwUU8kfpRWXGW5kkWEUPtzwG"], "asm": "OP_DUP OP_HASH160 c1b7b0a5ba36bdde0a5eb38d2b60d3d653b5f7b9 OP_EQUALVERIFY OP_CHECKSIG", "type": "pubkeyhash"}, "value": 0.001, "n": 1}], "hex": "01000000000101fd50a7d82b22e202935841df008ae5830c5d9c41f47df07eff20b3174dec065f01000000171600144495a38d64924902a7de91b15abd942856f7ef24ffffffff02441700000000000016001438b3fe924fd46ca9adf937e318703e6ad1c516a0a0860100000000001976a914c1b7b0a5ba36bdde0a5eb38d2b60d3d653b5f7b988ac02483045022100e13d67b778f2ff9c43bb0275d70e268cec5c3226f836b25d55dd03e46ed9f0b702201bcfe4b600ed2fe25cc3a55d7d39dc7b3b47f7154fcf91528d6f6abb65f4c7b401210294ff06733d4c22be9d8db5a60870f702aa65b902ae3019638dbaea7de3b7eda200000000", "vin": [{"txinwitness": ["3045022100e13d67b778f2ff9c43bb0275d70e268cec5c3226f836b25d55dd03e46ed9f0b702201bcfe4b600ed2fe25cc3a55d7d39dc7b3b47f7154fcf91528d6f6abb65f4c7b401", "0294ff06733d4c22be9d8db5a60870f702aa65b902ae3019638dbaea7de3b7eda2"], "sequence": 4294967295, "scriptSig": {"hex": "1600144495a38d64924902a7de91b15abd942856f7ef24", "asm": "00144495a38d64924902a7de91b15abd942856f7ef24"}, "vout": 1, "txid": "5f06ec4d17b320ff7ef07df4419c5d0c83e58a00df41589302e2222bd8a750fd"}], "txid": "2837274a0058ad29c8f93f6e373165c2251d373471545c2ef59dac0fe59145cf", "blocktime": 1537871767, "version": 1, "confirmations": 11495, "time": 1537871767, "locktime": 0, "vsize": 167, "size": 249}