{"hash": "397b7fec9d220f54c9992286e286f11701637cbcf01eaabbcf6a65fc408d4b07", "blockhash": "0000000000000000000e13cef7c366c0283d82e591d1acd082e914b08063cdf1", "vout": [{"scriptPubKey": {"reqSigs": 1, "hex": "00144ee6a9733c96e8921178b7d91159c5d718e3455b", "addresses": ["bc1qfmn2jueujm5fyytcklv3zkw96uvwx32m2a4smp"], "asm": "0 4ee6a9733c96e8921178b7d91159c5d718e3455b", "type": "witness_v0_keyhash"}, "value": 1.48090735, "n": 0}, {"scriptPubKey": {"reqSigs": 1, "hex": "76a914ae67668d94050850f55edd9e835f4cd197203e6a88ac", "addresses": ["1GuASn88EF8yTPz13MXdEHk6YzgRgnpFxN"], "asm": "OP_DUP OP_HASH160 ae67668d94050850f55edd9e835f4cd197203e6a OP_EQUALVERIFY OP_CHECKSIG", "type": "pubkeyhash"}, "value": 0.01908201, "n": 1}], "hex": "010000000001019b7ac38d92f8fc296df11342fbd9cdd54d0a03c3709da069f4d52014c4a8dab80100000000ffffffff026fafd308000000001600144ee6a9733c96e8921178b7d91159c5d718e3455be91d1d00000000001976a914ae67668d94050850f55edd9e835f4cd197203e6a88ac02473044022063397cd1565b3c054d82c81494a8f90bdda7e3bf7c90cc74ba177ab78c49622602200b63e2359beac692aa64e8f190a5b86de4d7ad71637b1e745dacfbddb8efa0610121022d3c3a68b1046a00b223a9ddc198fa2002c7b69b4d146113991c7fcf024cdb0f00000000", "vin": [{"txinwitness": ["3044022063397cd1565b3c054d82c81494a8f90bdda7e3bf7c90cc74ba177ab78c49622602200b63e2359beac692aa64e8f190a5b86de4d7ad71637b1e745dacfbddb8efa06101", "022d3c3a68b1046a00b223a9ddc198fa2002c7b69b4d146113991c7fcf024cdb0f"], "sequence": 4294967295, "scriptSig": {"hex": "", "asm": ""}, "vout": 1, "txid": "b8daa8c41420d5f469a09d70c3030a4dd5cdd9fb4213f16d29fcf8928dc37a9b"}], "txid": "283a42ffc9c520f5a39f2a6d0a4cc46e542b5146518b162afb83d4c8b2fb0b76", "blocktime": 1537871767, "version": 1, "confirmations": 11495, "time": 1537871767, "locktime": 0, "vsize": 144, "size": 225}