{"hash": "283bfd313282859499226e1da4dff562ce7ae6642a21e07a23591b7f17cde455", "blockhash": "0000000000000000001cda96e906b7601b7a6fb1a3b62bca570a9e5d8f4b3de1", "vout": [{"scriptPubKey": {"reqSigs": 1, "hex": "76a914f29ea50be2a64d01db08d19520ec84b0a1a22ffc88ac", "addresses": ["1P7raFYpE5oUJ9XjN1f1AymcrewLenp9iu"], "asm": "OP_DUP OP_HASH160 f29ea50be2a64d01db08d19520ec84b0a1a22ffc OP_EQUALVERIFY OP_CHECKSIG", "type": "pubkeyhash"}, "value": 0.00541269, "n": 0}], "hex": "0100000009547884a434cc0231391ae59b8529b1b194fb4fb66a6350e30114c26db766af20000000006a47304402204b65e507900a5c0fb7a5902cea1c2f091aa9ddbb066ad56cda5e2c76eee8d618022066fd16180af222f29ec22f00c9ec6da9cef582de861433ea93804e5094586bab01210282ae15c907bc094a5ec23ce028b1f5a71eefb3e7337e4d20bc1eb0b8386bfef2ffffffffe0ecb776b29c71ea70caacc6bca6cb1ba71633eecea9cd9b3acc78d61bfaab4c000000006b483045022100dbd8020c62a5a06ec268fc5cb8c1602eb18f2f1b952281c291f5caf9f3601efe02201c02f7f2de8cb7c181ac2ed0701c97b9830fffce3438b9e869108d1a420caf6c01210282ae15c907bc094a5ec23ce028b1f5a71eefb3e7337e4d20bc1eb0b8386bfef2ffffffff0d2cdab12117f6e7523a074f2b2c088771e3611075a1a9536071faba2424254d000000006a47304402206ecb4b11a824e2b7bea7177dd16433bd22f1d508efecb5da7a559ed7854a3fd802203a5ab8d26c086e6c878a36b40dc9c0b4cf4f086b050f7fe8498a496800da132501210282ae15c907bc094a5ec23ce028b1f5a71eefb3e7337e4d20bc1eb0b8386bfef2ffffffff183d771e2c63aeadda186eac1b2ee605993d6f88b83d39b7d009bf312c890276000000006a47304402201336c15ea769d154d876ae311208ab2e338b49874d0abc9d598ba0b38fb04c9b02203539632b3b1bc2f8b5b041c9663f87e4b018514c54dde8e478a3ba235679c34c01210282ae15c907bc094a5ec23ce028b1f5a71eefb3e7337e4d20bc1eb0b8386bfef2ffffffffd64ec42b9e91f9dc73760b9885654a8f9ca98a1ab3c5fb2cc1a562dc9260bd87000000006a473044022030e25800cf950d674c685726d2d77f300d343f30c67a9f974eec483e8bc3f7b2022019cb780f384adc5798196772f373d2c562322c5732b6557cd6e76ebc40011c9401210282ae15c907bc094a5ec23ce028b1f5a71eefb3e7337e4d20bc1eb0b8386bfef2ffffffff02e068cf247ed5e39b2f8a47b564c30f12db2522ca6488f9d1f5947436e8069d010000006a47304402203c6cd809724d1fe0e5bb7c909554181a55418398f2c366d9f48832c7a84abc5702204d0af50a8760b555ac917c44ed1a4dda7b0ddf8a21842371ca5652b88674e4f101210282ae15c907bc094a5ec23ce028b1f5a71eefb3e7337e4d20bc1eb0b8386bfef2ffffffff3894036cc92034e4267707a99eecd1f80f2021eac1374a0768b7f0ec11aab8c2000000006b483045022100ba6265205c4a3486aba6542971bbcf5fb01e8f14a3a7f0ccc6ff53758bbe28940220128d945dd03beb593ac6f887b0b0deb4f4703240f650245d1c97f0545dc6577301210282ae15c907bc094a5ec23ce028b1f5a71eefb3e7337e4d20bc1eb0b8386bfef2ffffffff650740308f00d8d5094dc773d8fecb621e91e0c3ba69dc702da9ef336b77d5d1000000006a47304402201077b1459ef2410d542216fac4c5c9b82e956d98d703988822261cb6f8711a7002206c7694fdafb709ba6ab45e46545db520c70850461a4af14c2a1eee9095853d6e01210282ae15c907bc094a5ec23ce028b1f5a71eefb3e7337e4d20bc1eb0b8386bfef2fffffffff2cb437a04aac6904ee1d890925802993725098c77210a5ce87ca07f8df403dc000000006a473044022006195e1da1b7c6270823997577adaab9314c167a457a55b19ac808842731ea970220272f02edd5523f94f92180bd191a04c5ef7304168e00e52ae51e244edb55d2f101210282ae15c907bc094a5ec23ce028b1f5a71eefb3e7337e4d20bc1eb0b8386bfef2ffffffff0155420800000000001976a914f29ea50be2a64d01db08d19520ec84b0a1a22ffc88ac00000000", "vin": [{"sequence": 4294967295, "scriptSig": {"hex": "47304402204b65e507900a5c0fb7a5902cea1c2f091aa9ddbb066ad56cda5e2c76eee8d618022066fd16180af222f29ec22f00c9ec6da9cef582de861433ea93804e5094586bab01210282ae15c907bc094a5ec23ce028b1f5a71eefb3e7337e4d20bc1eb0b8386bfef2", "asm": "304402204b65e507900a5c0fb7a5902cea1c2f091aa9ddbb066ad56cda5e2c76eee8d618022066fd16180af222f29ec22f00c9ec6da9cef582de861433ea93804e5094586bab[ALL] 0282ae15c907bc094a5ec23ce028b1f5a71eefb3e7337e4d20bc1eb0b8386bfef2"}, "vout": 0, "txid": "20af66b76dc21401e350636ab64ffb94b1b129859be51a393102cc34a4847854"}, {"sequence": 4294967295, "scriptSig": {"hex": "483045022100dbd8020c62a5a06ec268fc5cb8c1602eb18f2f1b952281c291f5caf9f3601efe02201c02f7f2de8cb7c181ac2ed0701c97b9830fffce3438b9e869108d1a420caf6c01210282ae15c907bc094a5ec23ce028b1f5a71eefb3e7337e4d20bc1eb0b8386bfef2", "asm": "3045022100dbd8020c62a5a06ec268fc5cb8c1602eb18f2f1b952281c291f5caf9f3601efe02201c02f7f2de8cb7c181ac2ed0701c97b9830fffce3438b9e869108d1a420caf6c[ALL] 0282ae15c907bc094a5ec23ce028b1f5a71eefb3e7337e4d20bc1eb0b8386bfef2"}, "vout": 0, "txid": "4cabfa1bd678cc3a9bcda9ceee3316a71bcba6bcc6acca70ea719cb276b7ece0"}, {"sequence": 4294967295, "scriptSig": {"hex": "47304402206ecb4b11a824e2b7bea7177dd16433bd22f1d508efecb5da7a559ed7854a3fd802203a5ab8d26c086e6c878a36b40dc9c0b4cf4f086b050f7fe8498a496800da132501210282ae15c907bc094a5ec23ce028b1f5a71eefb3e7337e4d20bc1eb0b8386bfef2", "asm": "304402206ecb4b11a824e2b7bea7177dd16433bd22f1d508efecb5da7a559ed7854a3fd802203a5ab8d26c086e6c878a36b40dc9c0b4cf4f086b050f7fe8498a496800da1325[ALL] 0282ae15c907bc094a5ec23ce028b1f5a71eefb3e7337e4d20bc1eb0b8386bfef2"}, "vout": 0, "txid": "4d252424bafa716053a9a1751061e37187082c2b4f073a52e7f61721b1da2c0d"}, {"sequence": 4294967295, "scriptSig": {"hex": "47304402201336c15ea769d154d876ae311208ab2e338b49874d0abc9d598ba0b38fb04c9b02203539632b3b1bc2f8b5b041c9663f87e4b018514c54dde8e478a3ba235679c34c01210282ae15c907bc094a5ec23ce028b1f5a71eefb3e7337e4d20bc1eb0b8386bfef2", "asm": "304402201336c15ea769d154d876ae311208ab2e338b49874d0abc9d598ba0b38fb04c9b02203539632b3b1bc2f8b5b041c9663f87e4b018514c54dde8e478a3ba235679c34c[ALL] 0282ae15c907bc094a5ec23ce028b1f5a71eefb3e7337e4d20bc1eb0b8386bfef2"}, "vout": 0, "txid": "7602892c31bf09d0b7393db8886f3d9905e62e1bac6e18daadae632c1e773d18"}, {"sequence": 4294967295, "scriptSig": {"hex": "473044022030e25800cf950d674c685726d2d77f300d343f30c67a9f974eec483e8bc3f7b2022019cb780f384adc5798196772f373d2c562322c5732b6557cd6e76ebc40011c9401210282ae15c907bc094a5ec23ce028b1f5a71eefb3e7337e4d20bc1eb0b8386bfef2", "asm": "3044022030e25800cf950d674c685726d2d77f300d343f30c67a9f974eec483e8bc3f7b2022019cb780f384adc5798196772f373d2c562322c5732b6557cd6e76ebc40011c94[ALL] 0282ae15c907bc094a5ec23ce028b1f5a71eefb3e7337e4d20bc1eb0b8386bfef2"}, "vout": 0, "txid": "87bd6092dc62a5c12cfbc5b31a8aa99c8f4a6585980b7673dcf9919e2bc44ed6"}, {"sequence": 4294967295, "scriptSig": {"hex": "47304402203c6cd809724d1fe0e5bb7c909554181a55418398f2c366d9f48832c7a84abc5702204d0af50a8760b555ac917c44ed1a4dda7b0ddf8a21842371ca5652b88674e4f101210282ae15c907bc094a5ec23ce028b1f5a71eefb3e7337e4d20bc1eb0b8386bfef2", "asm": "304402203c6cd809724d1fe0e5bb7c909554181a55418398f2c366d9f48832c7a84abc5702204d0af50a8760b555ac917c44ed1a4dda7b0ddf8a21842371ca5652b88674e4f1[ALL] 0282ae15c907bc094a5ec23ce028b1f5a71eefb3e7337e4d20bc1eb0b8386bfef2"}, "vout": 1, "txid": "9d06e8367494f5d1f98864ca2225db120fc364b5478a2f9be3d57e24cf68e002"}, {"sequence": 4294967295, "scriptSig": {"hex": "483045022100ba6265205c4a3486aba6542971bbcf5fb01e8f14a3a7f0ccc6ff53758bbe28940220128d945dd03beb593ac6f887b0b0deb4f4703240f650245d1c97f0545dc6577301210282ae15c907bc094a5ec23ce028b1f5a71eefb3e7337e4d20bc1eb0b8386bfef2", "asm": "3045022100ba6265205c4a3486aba6542971bbcf5fb01e8f14a3a7f0ccc6ff53758bbe28940220128d945dd03beb593ac6f887b0b0deb4f4703240f650245d1c97f0545dc65773[ALL] 0282ae15c907bc094a5ec23ce028b1f5a71eefb3e7337e4d20bc1eb0b8386bfef2"}, "vout": 0, "txid": "c2b8aa11ecf0b768074a37c1ea21200ff8d1ec9ea9077726e43420c96c039438"}, {"sequence": 4294967295, "scriptSig": {"hex": "47304402201077b1459ef2410d542216fac4c5c9b82e956d98d703988822261cb6f8711a7002206c7694fdafb709ba6ab45e46545db520c70850461a4af14c2a1eee9095853d6e01210282ae15c907bc094a5ec23ce028b1f5a71eefb3e7337e4d20bc1eb0b8386bfef2", "asm": "304402201077b1459ef2410d542216fac4c5c9b82e956d98d703988822261cb6f8711a7002206c7694fdafb709ba6ab45e46545db520c70850461a4af14c2a1eee9095853d6e[ALL] 0282ae15c907bc094a5ec23ce028b1f5a71eefb3e7337e4d20bc1eb0b8386bfef2"}, "vout": 0, "txid": "d1d5776b33efa92d70dc69bac3e0911e62cbfed873c74d09d5d8008f30400765"}, {"sequence": 4294967295, "scriptSig": {"hex": "473044022006195e1da1b7c6270823997577adaab9314c167a457a55b19ac808842731ea970220272f02edd5523f94f92180bd191a04c5ef7304168e00e52ae51e244edb55d2f101210282ae15c907bc094a5ec23ce028b1f5a71eefb3e7337e4d20bc1eb0b8386bfef2", "asm": "3044022006195e1da1b7c6270823997577adaab9314c167a457a55b19ac808842731ea970220272f02edd5523f94f92180bd191a04c5ef7304168e00e52ae51e244edb55d2f1[ALL] 0282ae15c907bc094a5ec23ce028b1f5a71eefb3e7337e4d20bc1eb0b8386bfef2"}, "vout": 0, "txid": "dc03f48d7fa07ce85c0a21778c0925379902589290d8e14e90c6aa047a43cbf2"}], "txid": "283bfd313282859499226e1da4dff562ce7ae6642a21e07a23591b7f17cde455", "blocktime": 1537873282, "version": 1, "confirmations": 11484, "time": 1537873282, "locktime": 0, "vsize": 1369, "size": 1369}