{"hash": "283c6dc96b12485d51770854c62bce3aed4581cd1b24b74bf13b4271007f84a5", "blockhash": "0000000000000000000dcc0f55137456b1a82d3642486a52398922ac4d620174", "vout": [{"scriptPubKey": {"reqSigs": 1, "hex": "76a91400e454242b3f1546dbc6acc4dc17d3014edd096f88ac", "addresses": ["115iXZAf8GQwUeGgaPBMKtHEi8h3YFumtd"], "asm": "OP_DUP OP_HASH160 00e454242b3f1546dbc6acc4dc17d3014edd096f OP_EQUALVERIFY OP_CHECKSIG", "type": "pubkeyhash"}, "value": 0.154887, "n": 0}], "hex": "0100000001eb67730187bae50fb72c34a5fbc0172bf13fc4130922b4fb593f20118b89ada8420200006b483045022100b53d5f3316642124f788c7440b9b781009599ce6c4b41a8ecf86a7d4a147bddd022022a1636d8e861cc5b2fbf5ff2c706a9a726522a12b37fda8c7b510a9795ca7bb01210226b3e66b72f61e4f8e3dfd1b9c9bc946a6bbcdae206378c376762935d24c2aedffffffff01bc56ec00000000001976a91400e454242b3f1546dbc6acc4dc17d3014edd096f88ac00000000", "vin": [{"sequence": 4294967295, "scriptSig": {"hex": "483045022100b53d5f3316642124f788c7440b9b781009599ce6c4b41a8ecf86a7d4a147bddd022022a1636d8e861cc5b2fbf5ff2c706a9a726522a12b37fda8c7b510a9795ca7bb01210226b3e66b72f61e4f8e3dfd1b9c9bc946a6bbcdae206378c376762935d24c2aed", "asm": "3045022100b53d5f3316642124f788c7440b9b781009599ce6c4b41a8ecf86a7d4a147bddd022022a1636d8e861cc5b2fbf5ff2c706a9a726522a12b37fda8c7b510a9795ca7bb[ALL] 0226b3e66b72f61e4f8e3dfd1b9c9bc946a6bbcdae206378c376762935d24c2aed"}, "vout": 578, "txid": "a8ad898b11203f59fbb4220913c43ff12b17c0fba5342cb70fe5ba87017367eb"}], "txid": "283c6dc96b12485d51770854c62bce3aed4581cd1b24b74bf13b4271007f84a5", "blocktime": 1537870268, "version": 1, "confirmations": 11516, "time": 1537870268, "locktime": 0, "vsize": 192, "size": 192}