{"hash": "35c11f3fb44185962fd7bea25e33cd279e1566380bac34e65143295737549036", "blockhash": "0000000000000000001f76057863aec43deb6fa401d9628bb513d65a8098bfab", "vout": [{"scriptPubKey": {"reqSigs": 1, "hex": "a914eef895265d76e61e08680e178699190105ab0aad87", "addresses": ["3PUaY2Fb3fzSMYmkJknvfSJ5DyWaeJYcMw"], "asm": "OP_HASH160 eef895265d76e61e08680e178699190105ab0aad OP_EQUAL", "type": "scripthash"}, "value": 0.02874396, "n": 0}, {"scriptPubKey": {"reqSigs": 1, "hex": "a914ac056547d47dc47d61dfd110b34153b5436a87f687", "addresses": ["3HNacS61xiAqEYtgPhTPN9k53vgF71Sk9o"], "asm": "OP_HASH160 ac056547d47dc47d61dfd110b34153b5436a87f6 OP_EQUAL", "type": "scripthash"}, "value": 0.01256993, "n": 1}], "hex": "02000000000102cca8f50a404b2b0362a4f98c6eb4ed8d547d7cf78263bd425a77e4e9805afa3a000000001716001460901dca970718f262850058a7a052d082bd2034feffffffd9569da87a062ce7dc6941e96d59057b48a97fc72e891b3389b3d51a7c86422900000000171600142ae0c48bc8a93542e9dbb796efeb40da74cb2392feffffff021cdc2b000000000017a914eef895265d76e61e08680e178699190105ab0aad87212e13000000000017a914ac056547d47dc47d61dfd110b34153b5436a87f6870248304502210082d85791c12e033b5f39f7026b12a287a2dbec1b09731dc049576d741705c56c02200326767f35788bee0f43bd09e3c889ddedba9bcb903936846df37c0e34c50b2d01210313507b6bee050636c85ca3ade62a9088cfac19d52276f8de0a3ddb3c19dd4bb002483045022100cde61370d5a1a05efc1ec996a6d2628791cc2a2bca2f4fb9c3c172e60f91a3a40220673a85a7891242771e45edf6cd920b30b97bc70b6ada548ee0057c41acfc759c012102c8cfe934f192566876f0525241d795d89f3a2cd369810463d00caf80baa212b814490800", "vin": [{"txinwitness": ["304502210082d85791c12e033b5f39f7026b12a287a2dbec1b09731dc049576d741705c56c02200326767f35788bee0f43bd09e3c889ddedba9bcb903936846df37c0e34c50b2d01", "0313507b6bee050636c85ca3ade62a9088cfac19d52276f8de0a3ddb3c19dd4bb0"], "sequence": 4294967294, "scriptSig": {"hex": "16001460901dca970718f262850058a7a052d082bd2034", "asm": "001460901dca970718f262850058a7a052d082bd2034"}, "vout": 0, "txid": "3afa5a80e9e4775a42bd6382f77c7d548dedb46e8cf9a462032b4b400af5a8cc"}, {"txinwitness": ["3045022100cde61370d5a1a05efc1ec996a6d2628791cc2a2bca2f4fb9c3c172e60f91a3a40220673a85a7891242771e45edf6cd920b30b97bc70b6ada548ee0057c41acfc759c01", "02c8cfe934f192566876f0525241d795d89f3a2cd369810463d00caf80baa212b8"], "sequence": 4294967294, "scriptSig": {"hex": "1600142ae0c48bc8a93542e9dbb796efeb40da74cb2392", "asm": "00142ae0c48bc8a93542e9dbb796efeb40da74cb2392"}, "vout": 0, "txid": "2942867c1ad5b389331b892ec77fa9487b05596de94169dce72c067aa89d56d9"}], "txid": "283f2234bdccd5105283fb4b4481574007aa50ba3ac46e02aaa60b85461c613e", "blocktime": 1537873891, "version": 2, "confirmations": 11479, "time": 1537873891, "locktime": 542996, "vsize": 257, "size": 420}