{"hash": "2845e6d30280a047620a62194df922e067b7bada8733a4c52332b704a0d08455", "blockhash": "0000000000000000001f76057863aec43deb6fa401d9628bb513d65a8098bfab", "vout": [{"scriptPubKey": {"reqSigs": 1, "hex": "76a914e823c8d48f5669163b4ff693421f75215cde872888ac", "addresses": ["1NASdrai5yBgoVSqtSbPp146d87Jyrmzm5"], "asm": "OP_DUP OP_HASH160 e823c8d48f5669163b4ff693421f75215cde8728 OP_EQUALVERIFY OP_CHECKSIG", "type": "pubkeyhash"}, "value": 0.14060108, "n": 0}, {"scriptPubKey": {"reqSigs": 1, "hex": "76a914745babe176ec0aa89d9259b67595c1b99cf900b988ac", "addresses": ["1BcFChDv5M2NM5obWNcLMif52ic2xaRjZB"], "asm": "OP_DUP OP_HASH160 745babe176ec0aa89d9259b67595c1b99cf900b9 OP_EQUALVERIFY OP_CHECKSIG", "type": "pubkeyhash"}, "value": 1.1163097, "n": 1}], "hex": "02000000014fe2f555295fbd864ccc4cce67094b2af0a6f0472098ed10721c103808f9d3f2000000006b483045022100c54bf359d89e69be0c7dad1e823746f21aa42aceee49b50120c98583e5e81f3602201157520a8469472a40e139b790af1fc4c0a1f56c99d55ab443223c5dbcae4f7701210361db774068b191aec0003d12d35f4b48867c266d106c6c8be12d99184a2c81b2ffffffff024c8ad600000000001976a914e823c8d48f5669163b4ff693421f75215cde872888ac7a5aa706000000001976a914745babe176ec0aa89d9259b67595c1b99cf900b988ac00000000", "vin": [{"sequence": 4294967295, "scriptSig": {"hex": "483045022100c54bf359d89e69be0c7dad1e823746f21aa42aceee49b50120c98583e5e81f3602201157520a8469472a40e139b790af1fc4c0a1f56c99d55ab443223c5dbcae4f7701210361db774068b191aec0003d12d35f4b48867c266d106c6c8be12d99184a2c81b2", "asm": "3045022100c54bf359d89e69be0c7dad1e823746f21aa42aceee49b50120c98583e5e81f3602201157520a8469472a40e139b790af1fc4c0a1f56c99d55ab443223c5dbcae4f77[ALL] 0361db774068b191aec0003d12d35f4b48867c266d106c6c8be12d99184a2c81b2"}, "vout": 0, "txid": "f2d3f90838101c7210ed982047f0a6f02a4b0967ce4ccc4c86bd5f2955f5e24f"}], "txid": "2845e6d30280a047620a62194df922e067b7bada8733a4c52332b704a0d08455", "blocktime": 1537873891, "version": 2, "confirmations": 11475, "time": 1537873891, "locktime": 0, "vsize": 226, "size": 226}