{"hash": "0ee6c918a68efad2140fb65eced0022fa974d093d4d893f4f88e6b41a1d79da6", "blockhash": "00000000000000000024a2167bbff67b0be802c0b01cdd79e6331c2be6459f87", "vout": [{"scriptPubKey": {"reqSigs": 1, "hex": "76a9144a216e3b7ab2908d927ff71cb643a1eb557acdaf88ac", "addresses": ["17ky3zeYUQ4x8JMMYrnuADB87LkW1792JP"], "asm": "OP_DUP OP_HASH160 4a216e3b7ab2908d927ff71cb643a1eb557acdaf OP_EQUALVERIFY OP_CHECKSIG", "type": "pubkeyhash"}, "value": 0.0009434, "n": 0}, {"scriptPubKey": {"reqSigs": 1, "hex": "a91408c364340a91e77e4376b26fdad3b5aedc5661f787", "addresses": ["32VMQ7Th4qGhbDYY68FZrfSF9hTbsPivgt"], "asm": "OP_HASH160 08c364340a91e77e4376b26fdad3b5aedc5661f7 OP_EQUAL", "type": "scripthash"}, "value": 0.07355234, "n": 1}], "hex": "0100000000010176f722025c585a90a8732fde9630f447f586a5b737ae8ff028979cab1890602d010000002322002027561ef61439ff4994ea3793249bbb358319edb59fff63c1eeada48f299e81b5ffffffff0284700100000000001976a9144a216e3b7ab2908d927ff71cb643a1eb557acdaf88ac623b70000000000017a91408c364340a91e77e4376b26fdad3b5aedc5661f7870400483045022100bd1eb99b64ba0e7ae4faeaa3413fcc1f7fe25e0c5435564e5e7fad47f4c142ee02202eebfba68da2470edb78b7ce2a162ddfa49836b69bbc06d44b6cc7d7feea95610147304402204c60718c44799831cd45f101ed6aa4aaee46e50ef17329955ba2098a401c8a67022039001e747d145bd4d038c77226f287740fedbd1907b13879a2b3fb512add0a450147522102f484437eae67e7d1f9cf7235bd52510c99f379408a1f6fe737011d4bc259358a2103871fc2ca08e6950b38867e8e6a0e94ee625223d3aa0df5c65f414c6d784467e252ae00000000", "vin": [{"txinwitness": ["", "3045022100bd1eb99b64ba0e7ae4faeaa3413fcc1f7fe25e0c5435564e5e7fad47f4c142ee02202eebfba68da2470edb78b7ce2a162ddfa49836b69bbc06d44b6cc7d7feea956101", "304402204c60718c44799831cd45f101ed6aa4aaee46e50ef17329955ba2098a401c8a67022039001e747d145bd4d038c77226f287740fedbd1907b13879a2b3fb512add0a4501", "522102f484437eae67e7d1f9cf7235bd52510c99f379408a1f6fe737011d4bc259358a2103871fc2ca08e6950b38867e8e6a0e94ee625223d3aa0df5c65f414c6d784467e252ae"], "sequence": 4294967295, "scriptSig": {"hex": "22002027561ef61439ff4994ea3793249bbb358319edb59fff63c1eeada48f299e81b5", "asm": "002027561ef61439ff4994ea3793249bbb358319edb59fff63c1eeada48f299e81b5"}, "vout": 1, "txid": "2d609018ab9c9728f08fae37b7a586f547f43096de2f73a8905a585c0222f776"}], "txid": "2848ffdd7b116b7ff8220edab9c4b7e18ca52413199fb48943563a6a824d9f09", "blocktime": 1537870564, "version": 1, "confirmations": 11515, "time": 1537870564, "locktime": 0, "vsize": 208, "size": 373}