{"hash": "284b4efe5f460c9c5ae4f16aa9ece9c84bd5de8a0863fe3fdb8cec8acb71e170", "blockhash": "000000000000000000022b45ed06c6f4ccd3cf7fb5ba4856ebd2e58215665228", "vout": [{"scriptPubKey": {"reqSigs": 1, "hex": "76a914d243e6abb9a60fbff430b421d2df4b7d59ec186088ac", "addresses": ["1LAnF8h3qMGx3TSwNUHVneBZUEpwE4gu3D"], "asm": "OP_DUP OP_HASH160 d243e6abb9a60fbff430b421d2df4b7d59ec1860 OP_EQUALVERIFY OP_CHECKSIG", "type": "pubkeyhash"}, "value": 0.00076972, "n": 0}, {"scriptPubKey": {"reqSigs": 1, "hex": "76a9143851f34d13937b673a7d24a1950bb5b21ce94af388ac", "addresses": ["168o1kqNquEJeR9vosUB5fw4eAwcVAgh8P"], "asm": "OP_DUP OP_HASH160 3851f34d13937b673a7d24a1950bb5b21ce94af3 OP_EQUALVERIFY OP_CHECKSIG", "type": "pubkeyhash"}, "value": 5.46e-06, "n": 1}, {"scriptPubKey": {"type": "nulldata", "hex": "6a146f6d6e69000000000000001f0000002b6c442900", "asm": "OP_RETURN 6f6d6e69000000000000001f0000002b6c442900"}, "value": 0.0, "n": 2}], "hex": "01000000028ec6e8d18b0dc6fd333da8d4b9e4d3a9e6eb6dd45275f717234264640f971810010000006a47304402202b05b4278b7f3242bde44cb9154dafb949ed94789c9a591430aaec1ad7a45ef702202450bd9b81099a8a5f7ce4fca54e06790ce671ec4f91ee9bf0dbaefbed98de9b012102b0f924958ed2af34568551c32ee9a902fcbdd558ecc96cacad8eb3b57ce6d082ffffffff9f48aceb056ee4a084ede1b0c7f266913765fda6d24035ae3906e5db3eaabedb000000006b483045022100edc1f7ada8892d831fc3359ce728d67d643f93e8016b5c5392daa62bc13bb966022008aebd5c34c6cec6cdecb23aa101531551525815a504c0691293b8732e31801c01210271977291b74f1f5f5c42157e8aae804664eaaeccfd097918450d37f28fb94d77ffffffff03ac2c0100000000001976a914d243e6abb9a60fbff430b421d2df4b7d59ec186088ac22020000000000001976a9143851f34d13937b673a7d24a1950bb5b21ce94af388ac0000000000000000166a146f6d6e69000000000000001f0000002b6c44290000000000", "vin": [{"sequence": 4294967295, "scriptSig": {"hex": "47304402202b05b4278b7f3242bde44cb9154dafb949ed94789c9a591430aaec1ad7a45ef702202450bd9b81099a8a5f7ce4fca54e06790ce671ec4f91ee9bf0dbaefbed98de9b012102b0f924958ed2af34568551c32ee9a902fcbdd558ecc96cacad8eb3b57ce6d082", "asm": "304402202b05b4278b7f3242bde44cb9154dafb949ed94789c9a591430aaec1ad7a45ef702202450bd9b81099a8a5f7ce4fca54e06790ce671ec4f91ee9bf0dbaefbed98de9b[ALL] 02b0f924958ed2af34568551c32ee9a902fcbdd558ecc96cacad8eb3b57ce6d082"}, "vout": 1, "txid": "1018970f6464422317f77552d46debe6a9d3e4b9d4a83d33fdc60d8bd1e8c68e"}, {"sequence": 4294967295, "scriptSig": {"hex": "483045022100edc1f7ada8892d831fc3359ce728d67d643f93e8016b5c5392daa62bc13bb966022008aebd5c34c6cec6cdecb23aa101531551525815a504c0691293b8732e31801c01210271977291b74f1f5f5c42157e8aae804664eaaeccfd097918450d37f28fb94d77", "asm": "3045022100edc1f7ada8892d831fc3359ce728d67d643f93e8016b5c5392daa62bc13bb966022008aebd5c34c6cec6cdecb23aa101531551525815a504c0691293b8732e31801c[ALL] 0271977291b74f1f5f5c42157e8aae804664eaaeccfd097918450d37f28fb94d77"}, "vout": 0, "txid": "dbbeaa3edbe50639ae3540d2a6fd65379166f2c7b0e1ed84a0e46e05ebac489f"}], "txid": "284b4efe5f460c9c5ae4f16aa9ece9c84bd5de8a0863fe3fdb8cec8acb71e170", "blocktime": 1537869901, "version": 1, "confirmations": 11522, "time": 1537869901, "locktime": 0, "vsize": 404, "size": 404}