{"hash": "2852ad49451dd92e5541166f3a759a76dcd30e696488e1cb5e8a28ad321d1416", "blockhash": "0000000000000000001e0dab787dd257d1dbfcb92a98c2207d5e1078be1f4165", "vout": [{"scriptPubKey": {"reqSigs": 1, "hex": "76a9146de74c215b396644e6240dd0ba8b082f0410be1788ac", "addresses": ["1B27jjYUfoUYHMZWfXFcC8sVMRtCzu8M2c"], "asm": "OP_DUP OP_HASH160 6de74c215b396644e6240dd0ba8b082f0410be17 OP_EQUALVERIFY OP_CHECKSIG", "type": "pubkeyhash"}, "value": 0.00224165, "n": 0}, {"scriptPubKey": {"reqSigs": 1, "hex": "76a914d9bb411120b42df20f586f3bb61b24a76ee0ab2188ac", "addresses": ["1LrFxGwd48szdZ21SpA36g5Sk1pEc5khFW"], "asm": "OP_DUP OP_HASH160 d9bb411120b42df20f586f3bb61b24a76ee0ab21 OP_EQUALVERIFY OP_CHECKSIG", "type": "pubkeyhash"}, "value": 0.00234315, "n": 1}], "hex": "010000000158744659b05ce5e2f5d9ff8ee92561b2216ac8e1deb4f66436c2c8abbf2eb855010000006a473044022016e045b1ea0efcd8ef7390c293c815c3c7d9d3e3deeb345b705225996a78423802203d52fc978d0b03199f5a478b3849015c0be9c7b4ef6ee5372cd62a71376337ff0121022930860521304c9d2793a7f4252b0e50e1d05e3166614ca478a9defba632bbc4ffffffff02a56b0300000000001976a9146de74c215b396644e6240dd0ba8b082f0410be1788ac4b930300000000001976a914d9bb411120b42df20f586f3bb61b24a76ee0ab2188ac00000000", "vin": [{"sequence": 4294967295, "scriptSig": {"hex": "473044022016e045b1ea0efcd8ef7390c293c815c3c7d9d3e3deeb345b705225996a78423802203d52fc978d0b03199f5a478b3849015c0be9c7b4ef6ee5372cd62a71376337ff0121022930860521304c9d2793a7f4252b0e50e1d05e3166614ca478a9defba632bbc4", "asm": "3044022016e045b1ea0efcd8ef7390c293c815c3c7d9d3e3deeb345b705225996a78423802203d52fc978d0b03199f5a478b3849015c0be9c7b4ef6ee5372cd62a71376337ff[ALL] 022930860521304c9d2793a7f4252b0e50e1d05e3166614ca478a9defba632bbc4"}, "vout": 1, "txid": "55b82ebfabc8c23664f6b4dee1c86a21b26125e98effd9f5e2e55cb059467458"}], "txid": "2852ad49451dd92e5541166f3a759a76dcd30e696488e1cb5e8a28ad321d1416", "blocktime": 1537872475, "version": 1, "confirmations": 11486, "time": 1537872475, "locktime": 0, "vsize": 225, "size": 225}