{"hash": "2858088efd189b0b85fc7e494a559f822df4e528eca2e34f6534c3f15969905c", "blockhash": "0000000000000000001f76057863aec43deb6fa401d9628bb513d65a8098bfab", "vout": [{"scriptPubKey": {"reqSigs": 1, "hex": "76a914dd21139263d63c31fad834eca84bfd987c8a344588ac", "addresses": ["1MADxb2mKrqRA76PQfKttjeqsS7CC3HfBR"], "asm": "OP_DUP OP_HASH160 dd21139263d63c31fad834eca84bfd987c8a3445 OP_EQUALVERIFY OP_CHECKSIG", "type": "pubkeyhash"}, "value": 1.9, "n": 0}, {"scriptPubKey": {"reqSigs": 1, "hex": "76a914bb5b3955b60b3ff29a7ca0a2f7b8063ef8979bd488ac", "addresses": ["1J5eeE1zXRuH3mZKLTTT9H94DpikwcSmCz"], "asm": "OP_DUP OP_HASH160 bb5b3955b60b3ff29a7ca0a2f7b8063ef8979bd4 OP_EQUALVERIFY OP_CHECKSIG", "type": "pubkeyhash"}, "value": 0.01149724, "n": 1}], "hex": "01000000072258b3c896e8ff019c55e12d5146c7b3963e4046c29f00c75be401d9295d0bdf000000006b4830450221009411215ce7c28c4160c9b1b261f08c3f44f7379745e434bcf9327e2bea08bb1802203a04c97e64a901ab9b1b25aed1366df5fedf0348959b7d74eba468c93181854d012103636041f33103ddf0fc52f468163ec7237f1dea6354511dec85ecb92e57bd8bdcffffffff77aa5c2f9f2edcd333dac0c9c253a48856f9335d071aa4a56c55b39ee9211698000000006b4830450221008bf5440c41b068ca9bfe80a2f7c3bef76369ab53c573c35433934aa7ba328a8602206194b7a39c75e6891351fcca840ddc71cf1cc402da3dad883fc73a59ce51f598012103636041f33103ddf0fc52f468163ec7237f1dea6354511dec85ecb92e57bd8bdcffffffffe53ecdd51e01b1e61c6bcafb5cb1b01dd888c5e682fad4ca8145e60bb4579d9a000000006b48304502210098f9cfb623cbcd6057e92e1162521198b5840de9aeefa414658c4a871cbd611802202c730375e7ee1922113ef822e1181552136d9f40c7de7f13e343a9b70c30a3ea0121034dfc6ca24c37b77934081b1b19a01ee64eff8e174766af9617aec3274040a743ffffffff6ab56177539e8d914b4c476dd136ca2b663ffb485e2f3b85764a9b51a7a70bac000000006b483045022100dba348d03b33a644c87687e89b1925508db181d103d54f5a26556704ff95941902207179550941cd0e3d201be8e3dc0475f6e10d8bd6877bf4eb2fc8e56509ddaf31012103636041f33103ddf0fc52f468163ec7237f1dea6354511dec85ecb92e57bd8bdcfffffffff37a028221772d519e158623819361effc73d72289051d5f2d194c99b4c4cff3000000006b483045022100884fdfb673b55a1c26963a921066666da9b8059f3d5c0def8e5880c4a21c5237022046a3ce9d45e06f5fd71a1ebe0b08c505f5e7e12764a1d423227cdbc019c9fcc70121027c8e5f0d8edae6a3c38bf3f87ad6b956a72f6a6402c8fea8b98c132e27af7dbbffffffff04ab07374b5bcf6566a9e33bf363d724cf1d8e4dfe3b6dd5e3ae8c4abd82d5a6000000006b483045022100a9e49f0257bddf481db3c834e9bc87e231f760279845c3ef0698c1e7ae26a37a0220086e4b66043eafb7ba72f8c3a46f770a7df8a49d6a121045146f3d294f7950de012103cd910d27158d61539aef9ffabeeec16661c7a45724704e79b5e1b35f45fd26fdfffffffff6372047e5c3c4a18db2558715d07d99fead35ac260d0270bb13d2e6118781b00a0000006a47304402207b72f283080f5d6ecde04adac3134dc268b4747abf47c8b779ae361bbc9a0c7b022064826a91008bd67995debd73d1363421cb81fe55517bee2592dbac28ae22054c0121034dfc6ca24c37b77934081b1b19a01ee64eff8e174766af9617aec3274040a743ffffffff02802b530b000000001976a914dd21139263d63c31fad834eca84bfd987c8a344588ac1c8b1100000000001976a914bb5b3955b60b3ff29a7ca0a2f7b8063ef8979bd488ac00000000", "vin": [{"sequence": 4294967295, "scriptSig": {"hex": "4830450221009411215ce7c28c4160c9b1b261f08c3f44f7379745e434bcf9327e2bea08bb1802203a04c97e64a901ab9b1b25aed1366df5fedf0348959b7d74eba468c93181854d012103636041f33103ddf0fc52f468163ec7237f1dea6354511dec85ecb92e57bd8bdc", "asm": "30450221009411215ce7c28c4160c9b1b261f08c3f44f7379745e434bcf9327e2bea08bb1802203a04c97e64a901ab9b1b25aed1366df5fedf0348959b7d74eba468c93181854d[ALL] 03636041f33103ddf0fc52f468163ec7237f1dea6354511dec85ecb92e57bd8bdc"}, "vout": 0, "txid": "df0b5d29d901e45bc7009fc246403e96b3c746512de1559c01ffe896c8b35822"}, {"sequence": 4294967295, "scriptSig": {"hex": "4830450221008bf5440c41b068ca9bfe80a2f7c3bef76369ab53c573c35433934aa7ba328a8602206194b7a39c75e6891351fcca840ddc71cf1cc402da3dad883fc73a59ce51f598012103636041f33103ddf0fc52f468163ec7237f1dea6354511dec85ecb92e57bd8bdc", "asm": "30450221008bf5440c41b068ca9bfe80a2f7c3bef76369ab53c573c35433934aa7ba328a8602206194b7a39c75e6891351fcca840ddc71cf1cc402da3dad883fc73a59ce51f598[ALL] 03636041f33103ddf0fc52f468163ec7237f1dea6354511dec85ecb92e57bd8bdc"}, "vout": 0, "txid": "981621e99eb3556ca5a41a075d33f95688a453c2c9c0da33d3dc2e9f2f5caa77"}, {"sequence": 4294967295, "scriptSig": {"hex": "48304502210098f9cfb623cbcd6057e92e1162521198b5840de9aeefa414658c4a871cbd611802202c730375e7ee1922113ef822e1181552136d9f40c7de7f13e343a9b70c30a3ea0121034dfc6ca24c37b77934081b1b19a01ee64eff8e174766af9617aec3274040a743", "asm": "304502210098f9cfb623cbcd6057e92e1162521198b5840de9aeefa414658c4a871cbd611802202c730375e7ee1922113ef822e1181552136d9f40c7de7f13e343a9b70c30a3ea[ALL] 034dfc6ca24c37b77934081b1b19a01ee64eff8e174766af9617aec3274040a743"}, "vout": 0, "txid": "9a9d57b40be64581cad4fa82e6c588d81db0b15cfbca6b1ce6b1011ed5cd3ee5"}, {"sequence": 4294967295, "scriptSig": {"hex": "483045022100dba348d03b33a644c87687e89b1925508db181d103d54f5a26556704ff95941902207179550941cd0e3d201be8e3dc0475f6e10d8bd6877bf4eb2fc8e56509ddaf31012103636041f33103ddf0fc52f468163ec7237f1dea6354511dec85ecb92e57bd8bdc", "asm": "3045022100dba348d03b33a644c87687e89b1925508db181d103d54f5a26556704ff95941902207179550941cd0e3d201be8e3dc0475f6e10d8bd6877bf4eb2fc8e56509ddaf31[ALL] 03636041f33103ddf0fc52f468163ec7237f1dea6354511dec85ecb92e57bd8bdc"}, "vout": 0, "txid": "ac0ba7a7519b4a76853b2f5e48fb3f662bca36d16d474c4b918d9e537761b56a"}, {"sequence": 4294967295, "scriptSig": {"hex": "483045022100884fdfb673b55a1c26963a921066666da9b8059f3d5c0def8e5880c4a21c5237022046a3ce9d45e06f5fd71a1ebe0b08c505f5e7e12764a1d423227cdbc019c9fcc70121027c8e5f0d8edae6a3c38bf3f87ad6b956a72f6a6402c8fea8b98c132e27af7dbb", "asm": "3045022100884fdfb673b55a1c26963a921066666da9b8059f3d5c0def8e5880c4a21c5237022046a3ce9d45e06f5fd71a1ebe0b08c505f5e7e12764a1d423227cdbc019c9fcc7[ALL] 027c8e5f0d8edae6a3c38bf3f87ad6b956a72f6a6402c8fea8b98c132e27af7dbb"}, "vout": 0, "txid": "f3cfc4b4994c192d5f1d058922d773fcef6193812386159e512d772182027af3"}, {"sequence": 4294967295, "scriptSig": {"hex": "483045022100a9e49f0257bddf481db3c834e9bc87e231f760279845c3ef0698c1e7ae26a37a0220086e4b66043eafb7ba72f8c3a46f770a7df8a49d6a121045146f3d294f7950de012103cd910d27158d61539aef9ffabeeec16661c7a45724704e79b5e1b35f45fd26fd", "asm": "3045022100a9e49f0257bddf481db3c834e9bc87e231f760279845c3ef0698c1e7ae26a37a0220086e4b66043eafb7ba72f8c3a46f770a7df8a49d6a121045146f3d294f7950de[ALL] 03cd910d27158d61539aef9ffabeeec16661c7a45724704e79b5e1b35f45fd26fd"}, "vout": 0, "txid": "a6d582bd4a8caee3d56d3bfe4d8e1dcf24d763f33be3a96665cf5b4b3707ab04"}, {"sequence": 4294967295, "scriptSig": {"hex": "47304402207b72f283080f5d6ecde04adac3134dc268b4747abf47c8b779ae361bbc9a0c7b022064826a91008bd67995debd73d1363421cb81fe55517bee2592dbac28ae22054c0121034dfc6ca24c37b77934081b1b19a01ee64eff8e174766af9617aec3274040a743", "asm": "304402207b72f283080f5d6ecde04adac3134dc268b4747abf47c8b779ae361bbc9a0c7b022064826a91008bd67995debd73d1363421cb81fe55517bee2592dbac28ae22054c[ALL] 034dfc6ca24c37b77934081b1b19a01ee64eff8e174766af9617aec3274040a743"}, "vout": 10, "txid": "b0818711e6d213bb70020d26ac35adfe997dd0158755b28da1c4c3e5472037f6"}], "txid": "2858088efd189b0b85fc7e494a559f822df4e528eca2e34f6534c3f15969905c", "blocktime": 1537873891, "version": 1, "confirmations": 11475, "time": 1537873891, "locktime": 0, "vsize": 1113, "size": 1113}