{"hash": "28593cf28ff11fa2a57952460089cfb05a45a9a6b11c54785aca4fdb76088aab", "blockhash": "0000000000000000001f76057863aec43deb6fa401d9628bb513d65a8098bfab", "vout": [{"scriptPubKey": {"reqSigs": 1, "hex": "76a914c83bec5315b47255c0c22bc701bc3bb3f3a2913588ac", "addresses": ["1KFjvu9Mc23fMhXZB3e2zR5x14b6dXS87Z"], "asm": "OP_DUP OP_HASH160 c83bec5315b47255c0c22bc701bc3bb3f3a29135 OP_EQUALVERIFY OP_CHECKSIG", "type": "pubkeyhash"}, "value": 0.01354537, "n": 0}, {"scriptPubKey": {"reqSigs": 1, "hex": "76a91472bb6336da9c82e6d972fc84fcd0d0ece8db780388ac", "addresses": ["1BTeWnVNb8cktWg5YJpKXxbfAzccCQzDJP"], "asm": "OP_DUP OP_HASH160 72bb6336da9c82e6d972fc84fcd0d0ece8db7803 OP_EQUALVERIFY OP_CHECKSIG", "type": "pubkeyhash"}, "value": 0.02347073, "n": 1}], "hex": "0100000001c3a18fb0661506e7972de053cd3bb2dacb44017ea3dcbed1cf392cda6cd08cda010000006b483045022100cac62e1ff0a1b74aa3cc43c263c182f6eec569f4f14788aad8cd2b1ac6ab3f91022022d6927092afc521225368205134d6f838d0f0652774883ba310053e72a584050121038c8d870facd1554205c84c08d6ce7a373c3f844eaf73208fbc211c96e1e2d0b9ffffffff0229ab1400000000001976a914c83bec5315b47255c0c22bc701bc3bb3f3a2913588ac41d02300000000001976a91472bb6336da9c82e6d972fc84fcd0d0ece8db780388ac00000000", "vin": [{"sequence": 4294967295, "scriptSig": {"hex": "483045022100cac62e1ff0a1b74aa3cc43c263c182f6eec569f4f14788aad8cd2b1ac6ab3f91022022d6927092afc521225368205134d6f838d0f0652774883ba310053e72a584050121038c8d870facd1554205c84c08d6ce7a373c3f844eaf73208fbc211c96e1e2d0b9", "asm": "3045022100cac62e1ff0a1b74aa3cc43c263c182f6eec569f4f14788aad8cd2b1ac6ab3f91022022d6927092afc521225368205134d6f838d0f0652774883ba310053e72a58405[ALL] 038c8d870facd1554205c84c08d6ce7a373c3f844eaf73208fbc211c96e1e2d0b9"}, "vout": 1, "txid": "da8cd06cda2c39cfd1bedca37e0144cbdab23bcd53e02d97e7061566b08fa1c3"}], "txid": "28593cf28ff11fa2a57952460089cfb05a45a9a6b11c54785aca4fdb76088aab", "blocktime": 1537873891, "version": 1, "confirmations": 11478, "time": 1537873891, "locktime": 0, "vsize": 226, "size": 226}