{"hash": "285b63a7644c31f11f97134f67df0441791212f37f5f0abb501c7011af24ceb1", "blockhash": "0000000000000000001f76057863aec43deb6fa401d9628bb513d65a8098bfab", "vout": [{"scriptPubKey": {"reqSigs": 1, "hex": "a914983b036e377f49ce916e7bc9c550f783ac1b3de587", "addresses": ["3FZwL2Q7i8LXXcr5DgtrXPuTSx3znKT3Lk"], "asm": "OP_HASH160 983b036e377f49ce916e7bc9c550f783ac1b3de5 OP_EQUAL", "type": "scripthash"}, "value": 0.0025, "n": 0}, {"scriptPubKey": {"reqSigs": 1, "hex": "76a914248da6d7c97f78b800b45b40093e4633fe687fa288ac", "addresses": ["14LH23MkL4EdVS2dBCU1rpVY5E4wH3DoPX"], "asm": "OP_DUP OP_HASH160 248da6d7c97f78b800b45b40093e4633fe687fa2 OP_EQUALVERIFY OP_CHECKSIG", "type": "pubkeyhash"}, "value": 0.07720158, "n": 1}], "hex": "01000000016918cec59cc1fb4e2a5dfcfc36b65ae245bc806fa5df43db626fd256c3a3cf25010000006b483045022100a9e873100287d7e18e6cd1ea43161e04243dbaa6d2a418728fb9afd332fe3bb702204ce109c8de11dff3dd7126a174135530d98c6b5a835a5de71460fe72b8ff8c06012102e904dbc5bce6d7c2599571f8d90784234b659c615a8a88df2e50cf81bc589f9cffffffff0290d003000000000017a914983b036e377f49ce916e7bc9c550f783ac1b3de587decc7500000000001976a914248da6d7c97f78b800b45b40093e4633fe687fa288ac00000000", "vin": [{"sequence": 4294967295, "scriptSig": {"hex": "483045022100a9e873100287d7e18e6cd1ea43161e04243dbaa6d2a418728fb9afd332fe3bb702204ce109c8de11dff3dd7126a174135530d98c6b5a835a5de71460fe72b8ff8c06012102e904dbc5bce6d7c2599571f8d90784234b659c615a8a88df2e50cf81bc589f9c", "asm": "3045022100a9e873100287d7e18e6cd1ea43161e04243dbaa6d2a418728fb9afd332fe3bb702204ce109c8de11dff3dd7126a174135530d98c6b5a835a5de71460fe72b8ff8c06[ALL] 02e904dbc5bce6d7c2599571f8d90784234b659c615a8a88df2e50cf81bc589f9c"}, "vout": 1, "txid": "25cfa3c356d26f62db43dfa56f80bc45e25ab636fcfc5d2a4efbc19cc5ce1869"}], "txid": "285b63a7644c31f11f97134f67df0441791212f37f5f0abb501c7011af24ceb1", "blocktime": 1537873891, "version": 1, "confirmations": 11477, "time": 1537873891, "locktime": 0, "vsize": 224, "size": 224}