{"hash": "27a701e7eafe10b9c51536d14a4d1294789b2747d25b34f37dcb9b1543d58b52", "blockhash": "0000000000000000000e13cef7c366c0283d82e591d1acd082e914b08063cdf1", "vout": [{"scriptPubKey": {"reqSigs": 1, "hex": "001444a5ea1fd60d143a784c82c779acf53058694080", "addresses": ["bc1qgjj7587kp52r57zvstrhnt84xpvxjsyqsg5qze"], "asm": "0 44a5ea1fd60d143a784c82c779acf53058694080", "type": "witness_v0_keyhash"}, "value": 0.4565083, "n": 0}, {"scriptPubKey": {"reqSigs": 1, "hex": "76a914e0a27c36c9bfbf95b25af981945255c081be114c88ac", "addresses": ["1MUm1e9HqtskCLJEXEC1N7vHkqJGYBv7Tn"], "asm": "OP_DUP OP_HASH160 e0a27c36c9bfbf95b25af981945255c081be114c OP_EQUALVERIFY OP_CHECKSIG", "type": "pubkeyhash"}, "value": 0.04298582, "n": 1}], "hex": "010000000001017799d6ef6c9b320ff2de58c90c84be9d13bef4c4cd88ad84dedf8d06bbb5ffa006000000171600149456115bdaa3fa3567180aa0f383a9cacbda2e73ffffffff028e93b8020000000016001444a5ea1fd60d143a784c82c779acf5305869408056974100000000001976a914e0a27c36c9bfbf95b25af981945255c081be114c88ac02483045022100e1c326050aa21b2f7ebf94f0c320ca78bf732c01a2186c4b865fed7fb193f7ac02205c9de5d8aa6a3b61533943ef8297c3caf6f93e1540931346699378a15b4116a3012102334535e83efa6f371ae68c7c66aec320252863a61fc192f37b872c7ae983351100000000", "vin": [{"txinwitness": ["3045022100e1c326050aa21b2f7ebf94f0c320ca78bf732c01a2186c4b865fed7fb193f7ac02205c9de5d8aa6a3b61533943ef8297c3caf6f93e1540931346699378a15b4116a301", "02334535e83efa6f371ae68c7c66aec320252863a61fc192f37b872c7ae9833511"], "sequence": 4294967295, "scriptSig": {"hex": "1600149456115bdaa3fa3567180aa0f383a9cacbda2e73", "asm": "00149456115bdaa3fa3567180aa0f383a9cacbda2e73"}, "vout": 6, "txid": "a0ffb5bb068ddfde84ad88cdc4f4be139dbe840cc958def20f329b6cefd69977"}], "txid": "285cf80d01f5433f09275153912cc36975bad0076dec40cc0586fa6f4a3026b1", "blocktime": 1537871767, "version": 1, "confirmations": 11495, "time": 1537871767, "locktime": 0, "vsize": 167, "size": 249}