{"hash": "387aedcc3cfc38da720968fdd7d75f38fc53b7723bafff7fc16053366d44014c", "blockhash": "0000000000000000001f76057863aec43deb6fa401d9628bb513d65a8098bfab", "vout": [{"scriptPubKey": {"reqSigs": 1, "hex": "a9140d9d26d84ab66d10b5d53ea5c0a187ad960d4ced87", "addresses": ["32vzy8bMmRez6gcq6Q1YLJzancuy7BrxFm"], "asm": "OP_HASH160 0d9d26d84ab66d10b5d53ea5c0a187ad960d4ced OP_EQUAL", "type": "scripthash"}, "value": 0.12455158, "n": 0}], "hex": "020000000001013ed4e901b45817d6a0e789735734471125b7e97a90b7c31faf0683021b8cee5d010000001716001412e6aff507ada793ac35eb84b5a6eb3a9f45ce3dfeffffff01f60cbe000000000017a9140d9d26d84ab66d10b5d53ea5c0a187ad960d4ced8702483045022100ede5ddbd1c9210aa0224eac4b82a23f27e367d481fbd13a65d2525847b709ffe02201a184e815f0813f98e08fee7e761ef3f57a8af859dd927dc9265024358c701290121022068ca21596a2878c36cb56d03a0d7c7bbfffece3427283340d3689ab0f76cf0fa480800", "vin": [{"txinwitness": ["3045022100ede5ddbd1c9210aa0224eac4b82a23f27e367d481fbd13a65d2525847b709ffe02201a184e815f0813f98e08fee7e761ef3f57a8af859dd927dc9265024358c7012901", "022068ca21596a2878c36cb56d03a0d7c7bbfffece3427283340d3689ab0f76cf0"], "sequence": 4294967294, "scriptSig": {"hex": "16001412e6aff507ada793ac35eb84b5a6eb3a9f45ce3d", "asm": "001412e6aff507ada793ac35eb84b5a6eb3a9f45ce3d"}, "vout": 1, "txid": "5dee8c1b028306af1fc3b7907ae9b725114734577389e7a0d61758b401e9d43e"}], "txid": "285e63e8dbb3f2153372ceec267a3c306d607b1d052d58433247234f068f18bf", "blocktime": 1537873891, "version": 2, "confirmations": 11478, "time": 1537873891, "locktime": 542970, "vsize": 134, "size": 216}