{"hash": "28603da936b29eeb7c5366929d93f9d74b40abf14c00a3a6605755b14330631c", "blockhash": "0000000000000000000e13cef7c366c0283d82e591d1acd082e914b08063cdf1", "vout": [{"scriptPubKey": {"reqSigs": 1, "hex": "76a91497362a926ea2f95b86b1f9737f7db4b28f78102e88ac", "addresses": ["1EnXvWPUJ1AZBu6DLBHSySiKP5uPZVUT2q"], "asm": "OP_DUP OP_HASH160 97362a926ea2f95b86b1f9737f7db4b28f78102e OP_EQUALVERIFY OP_CHECKSIG", "type": "pubkeyhash"}, "value": 0.00703779, "n": 0}, {"scriptPubKey": {"reqSigs": 1, "hex": "a9142fa7e436cd1d1b1d968b4f07d071ab3f74ff4edd87", "addresses": ["362zos1S6EMTon9ou66H316qUWX6KSYf4Z"], "asm": "OP_HASH160 2fa7e436cd1d1b1d968b4f07d071ab3f74ff4edd OP_EQUAL", "type": "scripthash"}, "value": 0.00334637, "n": 1}], "hex": "010000000154e473d8acdd1530227e4a1a484a309c0dc5bcd60a03c7149af9d6545c834aeb01000000fdfd0000483045022100f0cd205e070646c7b0ca3a14589938360bff65c7e949da316f81028ab447d5a4022032cbaa0bdba3796de38193fa196c81994d051c976113999cbed77b3658c2bc5c01473044022034d1a57517b94bcc9100f945e55c11265057699d10397cf45a8ebdff38fa914202207a3219433d370669b495c6387774ffb425c8064f775012865ad0a4e80bdbcae6014c69522102025b4753c48a7089912cb6525fe95be4e6be6a1337b84451928375568b2ce0a2210249c95dd0efa7d1c2152f6001b6640f6803b89d2243ecd00e4de85e249f96ddff2103bd28e843917acf52d70fc795cced8c01ce1b7e9078da33bb08f2d1d1c8634b6653aeffffffff0223bd0a00000000001976a91497362a926ea2f95b86b1f9737f7db4b28f78102e88ac2d1b05000000000017a9142fa7e436cd1d1b1d968b4f07d071ab3f74ff4edd8700000000", "vin": [{"sequence": 4294967295, "scriptSig": {"hex": "00483045022100f0cd205e070646c7b0ca3a14589938360bff65c7e949da316f81028ab447d5a4022032cbaa0bdba3796de38193fa196c81994d051c976113999cbed77b3658c2bc5c01473044022034d1a57517b94bcc9100f945e55c11265057699d10397cf45a8ebdff38fa914202207a3219433d370669b495c6387774ffb425c8064f775012865ad0a4e80bdbcae6014c69522102025b4753c48a7089912cb6525fe95be4e6be6a1337b84451928375568b2ce0a2210249c95dd0efa7d1c2152f6001b6640f6803b89d2243ecd00e4de85e249f96ddff2103bd28e843917acf52d70fc795cced8c01ce1b7e9078da33bb08f2d1d1c8634b6653ae", "asm": "0 3045022100f0cd205e070646c7b0ca3a14589938360bff65c7e949da316f81028ab447d5a4022032cbaa0bdba3796de38193fa196c81994d051c976113999cbed77b3658c2bc5c[ALL] 3044022034d1a57517b94bcc9100f945e55c11265057699d10397cf45a8ebdff38fa914202207a3219433d370669b495c6387774ffb425c8064f775012865ad0a4e80bdbcae6[ALL] 522102025b4753c48a7089912cb6525fe95be4e6be6a1337b84451928375568b2ce0a2210249c95dd0efa7d1c2152f6001b6640f6803b89d2243ecd00e4de85e249f96ddff2103bd28e843917acf52d70fc795cced8c01ce1b7e9078da33bb08f2d1d1c8634b6653ae"}, "vout": 1, "txid": "eb4a835c54d6f99a14c7030ad6bcc50d9c304a481a4a7e223015ddacd873e454"}], "txid": "28603da936b29eeb7c5366929d93f9d74b40abf14c00a3a6605755b14330631c", "blocktime": 1537871767, "version": 1, "confirmations": 11493, "time": 1537871767, "locktime": 0, "vsize": 372, "size": 372}