{"hash": "286606a3aaa3580dc0749cb93c9597e6a99d3875f6681dcc3a87559f29e91863", "blockhash": "00000000000000000004ffacab907a6b429b9a5745fa0b75af4234bf69dd7176", "vout": [{"scriptPubKey": {"reqSigs": 1, "hex": "76a914614fb3a59c67ffc4ee4665e4635ca82baf22125c88ac", "addresses": ["19sY2P9pGFF67sDV895aLNaVx73b4BU37D"], "asm": "OP_DUP OP_HASH160 614fb3a59c67ffc4ee4665e4635ca82baf22125c OP_EQUALVERIFY OP_CHECKSIG", "type": "pubkeyhash"}, "value": 0.10541128, "n": 0}, {"scriptPubKey": {"reqSigs": 1, "hex": "76a9143bda8714502bb51dab792013e2102db32feff0f988ac", "addresses": ["16TUetN2NhEFNxjf82MQYGsBpzHPDQgZhq"], "asm": "OP_DUP OP_HASH160 3bda8714502bb51dab792013e2102db32feff0f9 OP_EQUALVERIFY OP_CHECKSIG", "type": "pubkeyhash"}, "value": 0.12508684, "n": 1}], "hex": "0200000001b821e993acaa48f871ed9f3a54b75f77f684f53bef99ccc635d1017886928c12000000006a4730440220409d2a449fb6fcb25ea1615a2ee4695452c38b2bc6f4be33f03d2aae03c62fbb0220434b1aea108cac4b0f8f408977566c857276d12b3d0492a0a1f27b68780e94760121022616ca37aec783a4154646a204519061b32a1884c30b19bdfc56854ad1e6a456feffffff0248d8a000000000001976a914614fb3a59c67ffc4ee4665e4635ca82baf22125c88ac0cdebe00000000001976a9143bda8714502bb51dab792013e2102db32feff0f988ac16490800", "vin": [{"sequence": 4294967294, "scriptSig": {"hex": "4730440220409d2a449fb6fcb25ea1615a2ee4695452c38b2bc6f4be33f03d2aae03c62fbb0220434b1aea108cac4b0f8f408977566c857276d12b3d0492a0a1f27b68780e94760121022616ca37aec783a4154646a204519061b32a1884c30b19bdfc56854ad1e6a456", "asm": "30440220409d2a449fb6fcb25ea1615a2ee4695452c38b2bc6f4be33f03d2aae03c62fbb0220434b1aea108cac4b0f8f408977566c857276d12b3d0492a0a1f27b68780e9476[ALL] 022616ca37aec783a4154646a204519061b32a1884c30b19bdfc56854ad1e6a456"}, "vout": 0, "txid": "128c92867801d135c6cc99ef3bf584f6775fb7543a9fed71f848aaac93e921b8"}], "txid": "286606a3aaa3580dc0749cb93c9597e6a99d3875f6681dcc3a87559f29e91863", "blocktime": 1537875543, "version": 2, "confirmations": 11464, "time": 1537875543, "locktime": 542998, "vsize": 225, "size": 225}