{"hash": "f070596fa42274b22b966096a545d84a00b73e3ef017a0baaad7aaf73d31e1ea", "blockhash": "0000000000000000000baef3f32e3676a92c3b2e5da21b426e4f302fc371ce76", "vout": [{"scriptPubKey": {"reqSigs": 1, "hex": "a914733d29c2dfb9bba188112fd103e1a8ae716d821287", "addresses": ["3CCLuHwwoVra5g9qGb7HYdt3GjE7ZP7FNa"], "asm": "OP_HASH160 733d29c2dfb9bba188112fd103e1a8ae716d8212 OP_EQUAL", "type": "scripthash"}, "value": 0.00340545, "n": 0}, {"scriptPubKey": {"reqSigs": 1, "hex": "a914c123e33fc78532e74ba6baa8b455b424f498a86987", "addresses": ["3KJFL62rhbNUCs3BpBcLqAgmvaQTx7LRTB"], "asm": "OP_HASH160 c123e33fc78532e74ba6baa8b455b424f498a869 OP_EQUAL", "type": "scripthash"}, "value": 0.62475685, "n": 1}], "hex": "0100000000010173d6b0d65dbd6c9e5569a511588a73f1d9ba70b3c43dd7aba0a8dc1bc43bbce90100000023220020a7773af8c98d247e7ef52dcaa9a9e46477eb8d559ca24ebfde7007aca86146b9ffffffff02413205000000000017a914733d29c2dfb9bba188112fd103e1a8ae716d821287a54db9030000000017a914c123e33fc78532e74ba6baa8b455b424f498a869870400473044022057e62ed2221e171ab870409c1ae05fd8f148fce2c9eb129fbb4394bd01268b5502203973cf950e94c85f98f79cc9b0d0a50be44ae07f5d1149936f414bca3b4ffb9f01483045022100c78a4a1986b1cc2b884ff0cd8c9e99ee6389267f533bec93359f86d6ae049b24022063631a09569659af484997f59198f380a2e99fde963fdcdf79b46a3128d270c901695221021909db51dc0f8b111dc0015dfd59f99cadde08a4f75bc61c7833e1ee6cf3572621028197443c34940cf5f499161555bf7f62bbfaa3c7187feabfb2060b8c2cea238e2103519904dc5de95b72617b1fc9093b9e7442434de7de25f3a1ce482afc7a1ffa3d53ae00000000", "vin": [{"txinwitness": ["", "3044022057e62ed2221e171ab870409c1ae05fd8f148fce2c9eb129fbb4394bd01268b5502203973cf950e94c85f98f79cc9b0d0a50be44ae07f5d1149936f414bca3b4ffb9f01", "3045022100c78a4a1986b1cc2b884ff0cd8c9e99ee6389267f533bec93359f86d6ae049b24022063631a09569659af484997f59198f380a2e99fde963fdcdf79b46a3128d270c901", "5221021909db51dc0f8b111dc0015dfd59f99cadde08a4f75bc61c7833e1ee6cf3572621028197443c34940cf5f499161555bf7f62bbfaa3c7187feabfb2060b8c2cea238e2103519904dc5de95b72617b1fc9093b9e7442434de7de25f3a1ce482afc7a1ffa3d53ae"], "sequence": 4294967295, "scriptSig": {"hex": "220020a7773af8c98d247e7ef52dcaa9a9e46477eb8d559ca24ebfde7007aca86146b9", "asm": "0020a7773af8c98d247e7ef52dcaa9a9e46477eb8d559ca24ebfde7007aca86146b9"}, "vout": 1, "txid": "e9bc3bc41bdca8a0abd73dc4b370bad9f1738a5811a569559e6cbd5dd6b0d673"}], "txid": "286b7133e4d3ec6139c9ce1f3a80d42d68a159423b68d539b2ba53c8e7c907aa", "blocktime": 1537876114, "version": 1, "confirmations": 11460, "time": 1537876114, "locktime": 0, "vsize": 214, "size": 405}