{"hash": "286f46073f34c760b49a8ba51c79d74ef7e65b1a7532d1315f5a454ef12adeee", "blockhash": "000000000000000000022b45ed06c6f4ccd3cf7fb5ba4856ebd2e58215665228", "vout": [{"scriptPubKey": {"reqSigs": 1, "hex": "76a914f7955aae531805297a36148ecf6d9a2efa60159188ac", "addresses": ["1Pa6phLPSbEHhPXs5A4zQVrgUy8XV7Bqnt"], "asm": "OP_DUP OP_HASH160 f7955aae531805297a36148ecf6d9a2efa601591 OP_EQUALVERIFY OP_CHECKSIG", "type": "pubkeyhash"}, "value": 0.002141, "n": 0}, {"scriptPubKey": {"reqSigs": 1, "hex": "a914586cec34efdab4286a162f6bde688ee9229d29b387", "addresses": ["39kZsWGmud4P3GR3cKi94Aom821ToCiJrL"], "asm": "OP_HASH160 586cec34efdab4286a162f6bde688ee9229d29b3 OP_EQUAL", "type": "scripthash"}, "value": 1.0, "n": 1}], "hex": "010000000a52dd4bdcbddf482691257f7f43d85627b2313dd245e9d10a15a3d196165f2d02030000006a47304402205fa85afb7b8bfd2adc922c52d27d5b93ec9673849ecd9b32385def2edb8c4a310220186de22463b0d39267ae8e0f429a4f8f2c2c52683db4b3f56b78ad5c7fd107cb01210322fc4abaa6f87e9e19255c1d9c66a1a7c84f4f877e8c73c28a83f825e6a356ccfeffffff338f6d73dc32bfc988c94bf0ed1fe0d235afdc669fe659b4ffe328beec55ae1a010000006a47304402206a375c443f7abc676be50e55fdb81c916e944aebe45cbf0d64f28185c5eb0d080220538b64e3cd3e40378b13ff5ed501ba865ea3d65e011f81b310b38e6b9d7d75b10121038fd2202fa1682a46d0577cb89b6acb345cfde37e5aeba049d51c873d985dc47efeffffff338f6d73dc32bfc988c94bf0ed1fe0d235afdc669fe659b4ffe328beec55ae1a020000006a473044022017674846002cdb6b5dd8df4ae02551387e81849618d3b9d2c8cfa41a01895cc00220797c72b203e95612254e99d08ae0464a79b966bd98ef4afad9c2acae8aa71878012102510df8512fcc7dd211c8f158488d8b77ff3de8a64bb05b7b4356a4efc49a000ffeffffff338f6d73dc32bfc988c94bf0ed1fe0d235afdc669fe659b4ffe328beec55ae1a030000006a47304402203ee092c462b246fc1ad71afc5993a5ac22ec4f4e731e084dffb2c0116a8eca0b0220070e0a015f56477a52032694a2d37ec0d4f3b6eebc75cf921e01ddc49c4149b5012102cf03addc23c305199afd3d150f8be8519612540352a3e255c37556fab925e505fefffffff706bca31791e59939a13fac53f97aaf38880267921d5127ffd051c4ba2fe921010000006a473044022071a0d487aa2986e2461bb08478e4310cfa402de5ee5b7e310edbd76c3e55eaf6022006eed5525e3d97ef58ae7a15328c5594834763e44423ef5d50ecb358524506ac012102cd5cb87d20238a8e9129d433ff259033b83dc636ac0fc0b29232c963e4c65c42fefffffff706bca31791e59939a13fac53f97aaf38880267921d5127ffd051c4ba2fe921020000006a47304402205d5a4e8f9e2eb760846f9755c782465e6d878681ee2fa1762ace03479773efeb02203c24402c892d6369f57ab513df2ad755776806f77af06132f79db1c75e86d533012103d355bbef4913b69db6511635a9de7e847c03f18fb82d79435961d7dfd5e09a35fefffffff706bca31791e59939a13fac53f97aaf38880267921d5127ffd051c4ba2fe921030000006a4730440220030c8de346af73b4a6983d9a06bf5e822b64cbb65bd1aef852ce682d8a5fd0f8022059af807e537d3760f1f08ec8414b14755dbff2a27c494e0caa7b4342e30c13e101210200463f7bc7dd06ac1f032a58ece56c6d612e2bb926f03b46aa866a5ef4585292feffffff3c52c1ca37780e457db90d7573bbc5b7e48250be99b3a7535d4879b6f7b2a83d000000006b4830450221009bc312166c58bf9994236f89aff910e7f57b6867f127ff9b0b27adcaf246d6d7022013f109a7e6a5ba4fecee96ab1b6541a0c49b7e6a70de921fd5ab766ad28952ec0121020ccbdadb776cba9fafd7add4fd033b55ed0964da8021aa62e6ad4fd431e87e93feffffff5bc6a908ea23a806a904716de3df450977f1e08097349bb28dbb5510f9db1799010000006a4730440221009ac6249f94d32891675368350dd21756801cfc7102d6c2b8022908dbfd671149021f5d959156fc939704068c96c7ab062f5bcd3bf248922c6eafbdb42437bb802401210294888323613e5fa18246c7200852d0749b2fef6efc76adcede344c4f89b9c4d4feffffff5563585cbc9c856fd32f4047223cb14f1829124acd76148c5efc4701e6c479c1010000006b483045022100d4cad7c2f7b8109110a2269ee00a4147e18ba27e984830e08e65a8b53a13605502207c5ef0692124b374444cbfccb713d65ce8afbec6a3b428d52262b970c857cff80121023a2cbcb381515321c2288b5705f2e058893f7cd0af5b05e6bcc6c49a41843cb3feffffff0254440300000000001976a914f7955aae531805297a36148ecf6d9a2efa60159188ac00e1f5050000000017a914586cec34efdab4286a162f6bde688ee9229d29b3870b490800", "vin": [{"sequence": 4294967294, "scriptSig": {"hex": "47304402205fa85afb7b8bfd2adc922c52d27d5b93ec9673849ecd9b32385def2edb8c4a310220186de22463b0d39267ae8e0f429a4f8f2c2c52683db4b3f56b78ad5c7fd107cb01210322fc4abaa6f87e9e19255c1d9c66a1a7c84f4f877e8c73c28a83f825e6a356cc", "asm": "304402205fa85afb7b8bfd2adc922c52d27d5b93ec9673849ecd9b32385def2edb8c4a310220186de22463b0d39267ae8e0f429a4f8f2c2c52683db4b3f56b78ad5c7fd107cb[ALL] 0322fc4abaa6f87e9e19255c1d9c66a1a7c84f4f877e8c73c28a83f825e6a356cc"}, "vout": 3, "txid": "022d5f1696d1a3150ad1e945d23d31b22756d8437f7f25912648dfbddc4bdd52"}, {"sequence": 4294967294, "scriptSig": {"hex": "47304402206a375c443f7abc676be50e55fdb81c916e944aebe45cbf0d64f28185c5eb0d080220538b64e3cd3e40378b13ff5ed501ba865ea3d65e011f81b310b38e6b9d7d75b10121038fd2202fa1682a46d0577cb89b6acb345cfde37e5aeba049d51c873d985dc47e", "asm": "304402206a375c443f7abc676be50e55fdb81c916e944aebe45cbf0d64f28185c5eb0d080220538b64e3cd3e40378b13ff5ed501ba865ea3d65e011f81b310b38e6b9d7d75b1[ALL] 038fd2202fa1682a46d0577cb89b6acb345cfde37e5aeba049d51c873d985dc47e"}, "vout": 1, "txid": "1aae55ecbe28e3ffb459e69f66dcaf35d2e01fedf04bc988c9bf32dc736d8f33"}, {"sequence": 4294967294, "scriptSig": {"hex": "473044022017674846002cdb6b5dd8df4ae02551387e81849618d3b9d2c8cfa41a01895cc00220797c72b203e95612254e99d08ae0464a79b966bd98ef4afad9c2acae8aa71878012102510df8512fcc7dd211c8f158488d8b77ff3de8a64bb05b7b4356a4efc49a000f", "asm": "3044022017674846002cdb6b5dd8df4ae02551387e81849618d3b9d2c8cfa41a01895cc00220797c72b203e95612254e99d08ae0464a79b966bd98ef4afad9c2acae8aa71878[ALL] 02510df8512fcc7dd211c8f158488d8b77ff3de8a64bb05b7b4356a4efc49a000f"}, "vout": 2, "txid": "1aae55ecbe28e3ffb459e69f66dcaf35d2e01fedf04bc988c9bf32dc736d8f33"}, {"sequence": 4294967294, "scriptSig": {"hex": "47304402203ee092c462b246fc1ad71afc5993a5ac22ec4f4e731e084dffb2c0116a8eca0b0220070e0a015f56477a52032694a2d37ec0d4f3b6eebc75cf921e01ddc49c4149b5012102cf03addc23c305199afd3d150f8be8519612540352a3e255c37556fab925e505", "asm": "304402203ee092c462b246fc1ad71afc5993a5ac22ec4f4e731e084dffb2c0116a8eca0b0220070e0a015f56477a52032694a2d37ec0d4f3b6eebc75cf921e01ddc49c4149b5[ALL] 02cf03addc23c305199afd3d150f8be8519612540352a3e255c37556fab925e505"}, "vout": 3, "txid": "1aae55ecbe28e3ffb459e69f66dcaf35d2e01fedf04bc988c9bf32dc736d8f33"}, {"sequence": 4294967294, "scriptSig": {"hex": "473044022071a0d487aa2986e2461bb08478e4310cfa402de5ee5b7e310edbd76c3e55eaf6022006eed5525e3d97ef58ae7a15328c5594834763e44423ef5d50ecb358524506ac012102cd5cb87d20238a8e9129d433ff259033b83dc636ac0fc0b29232c963e4c65c42", "asm": "3044022071a0d487aa2986e2461bb08478e4310cfa402de5ee5b7e310edbd76c3e55eaf6022006eed5525e3d97ef58ae7a15328c5594834763e44423ef5d50ecb358524506ac[ALL] 02cd5cb87d20238a8e9129d433ff259033b83dc636ac0fc0b29232c963e4c65c42"}, "vout": 1, "txid": "21e92fbac451d0ff27511d9267028838af7af953ac3fa13999e59117a3bc06f7"}, {"sequence": 4294967294, "scriptSig": {"hex": "47304402205d5a4e8f9e2eb760846f9755c782465e6d878681ee2fa1762ace03479773efeb02203c24402c892d6369f57ab513df2ad755776806f77af06132f79db1c75e86d533012103d355bbef4913b69db6511635a9de7e847c03f18fb82d79435961d7dfd5e09a35", "asm": "304402205d5a4e8f9e2eb760846f9755c782465e6d878681ee2fa1762ace03479773efeb02203c24402c892d6369f57ab513df2ad755776806f77af06132f79db1c75e86d533[ALL] 03d355bbef4913b69db6511635a9de7e847c03f18fb82d79435961d7dfd5e09a35"}, "vout": 2, "txid": "21e92fbac451d0ff27511d9267028838af7af953ac3fa13999e59117a3bc06f7"}, {"sequence": 4294967294, "scriptSig": {"hex": "4730440220030c8de346af73b4a6983d9a06bf5e822b64cbb65bd1aef852ce682d8a5fd0f8022059af807e537d3760f1f08ec8414b14755dbff2a27c494e0caa7b4342e30c13e101210200463f7bc7dd06ac1f032a58ece56c6d612e2bb926f03b46aa866a5ef4585292", "asm": "30440220030c8de346af73b4a6983d9a06bf5e822b64cbb65bd1aef852ce682d8a5fd0f8022059af807e537d3760f1f08ec8414b14755dbff2a27c494e0caa7b4342e30c13e1[ALL] 0200463f7bc7dd06ac1f032a58ece56c6d612e2bb926f03b46aa866a5ef4585292"}, "vout": 3, "txid": "21e92fbac451d0ff27511d9267028838af7af953ac3fa13999e59117a3bc06f7"}, {"sequence": 4294967294, "scriptSig": {"hex": "4830450221009bc312166c58bf9994236f89aff910e7f57b6867f127ff9b0b27adcaf246d6d7022013f109a7e6a5ba4fecee96ab1b6541a0c49b7e6a70de921fd5ab766ad28952ec0121020ccbdadb776cba9fafd7add4fd033b55ed0964da8021aa62e6ad4fd431e87e93", "asm": "30450221009bc312166c58bf9994236f89aff910e7f57b6867f127ff9b0b27adcaf246d6d7022013f109a7e6a5ba4fecee96ab1b6541a0c49b7e6a70de921fd5ab766ad28952ec[ALL] 020ccbdadb776cba9fafd7add4fd033b55ed0964da8021aa62e6ad4fd431e87e93"}, "vout": 0, "txid": "3da8b2f7b679485d53a7b399be5082e4b7c5bb73750db97d450e7837cac1523c"}, {"sequence": 4294967294, "scriptSig": {"hex": "4730440221009ac6249f94d32891675368350dd21756801cfc7102d6c2b8022908dbfd671149021f5d959156fc939704068c96c7ab062f5bcd3bf248922c6eafbdb42437bb802401210294888323613e5fa18246c7200852d0749b2fef6efc76adcede344c4f89b9c4d4", "asm": "30440221009ac6249f94d32891675368350dd21756801cfc7102d6c2b8022908dbfd671149021f5d959156fc939704068c96c7ab062f5bcd3bf248922c6eafbdb42437bb8024[ALL] 0294888323613e5fa18246c7200852d0749b2fef6efc76adcede344c4f89b9c4d4"}, "vout": 1, "txid": "9917dbf91055bb8db29b349780e0f1770945dfe36d7104a906a823ea08a9c65b"}, {"sequence": 4294967294, "scriptSig": {"hex": "483045022100d4cad7c2f7b8109110a2269ee00a4147e18ba27e984830e08e65a8b53a13605502207c5ef0692124b374444cbfccb713d65ce8afbec6a3b428d52262b970c857cff80121023a2cbcb381515321c2288b5705f2e058893f7cd0af5b05e6bcc6c49a41843cb3", "asm": "3045022100d4cad7c2f7b8109110a2269ee00a4147e18ba27e984830e08e65a8b53a13605502207c5ef0692124b374444cbfccb713d65ce8afbec6a3b428d52262b970c857cff8[ALL] 023a2cbcb381515321c2288b5705f2e058893f7cd0af5b05e6bcc6c49a41843cb3"}, "vout": 1, "txid": "c179c4e60147fc5e8c1476cd4a1229184fb13c2247402fd36f859cbc5c586355"}], "txid": "286f46073f34c760b49a8ba51c79d74ef7e65b1a7532d1315f5a454ef12adeee", "blocktime": 1537869901, "version": 1, "confirmations": 11522, "time": 1537869901, "locktime": 542987, "vsize": 1548, "size": 1548}