{"hash": "2871b282a969b20887de7199a8a03ca269de1849612c3461c1b675e9af1de3ce", "blockhash": "00000000000000000004ffacab907a6b429b9a5745fa0b75af4234bf69dd7176", "vout": [{"scriptPubKey": {"reqSigs": 1, "hex": "76a91411df39e433e1f85ce842c59fda26661e69c72afb88ac", "addresses": ["12dVuHY92Wd6iVvhQ4u6N7pwhMfiscWmvy"], "asm": "OP_DUP OP_HASH160 11df39e433e1f85ce842c59fda26661e69c72afb OP_EQUALVERIFY OP_CHECKSIG", "type": "pubkeyhash"}, "value": 0.03309091, "n": 0}, {"scriptPubKey": {"reqSigs": 1, "hex": "76a91498f036e5190d5eff248f9f37db0be832896eeac588ac", "addresses": ["1EwfUYt23SqYu1x4FByqKzoKSwQeVDjvsP"], "asm": "OP_DUP OP_HASH160 98f036e5190d5eff248f9f37db0be832896eeac5 OP_EQUALVERIFY OP_CHECKSIG", "type": "pubkeyhash"}, "value": 0.06, "n": 1}], "hex": "01000000017b27461dd814fc8ee10425238816e64cebbab80054dfd82dcf4fc373f1703181000000006a4730440220241138dd5c71542a9b7dc9adc8b95ff82cf4104705cda1261914a2d005ed16de022015fc61b1c8458fdd9adddc6c8966538ac8dff5ac2a302e7562b2dda524e86427012102761cf65a7f7b78c7dd41333cb0b7b3ecac6f10776b95ac3d229d6d39a104638cffffffff02237e3200000000001976a91411df39e433e1f85ce842c59fda26661e69c72afb88ac808d5b00000000001976a91498f036e5190d5eff248f9f37db0be832896eeac588ac00000000", "vin": [{"sequence": 4294967295, "scriptSig": {"hex": "4730440220241138dd5c71542a9b7dc9adc8b95ff82cf4104705cda1261914a2d005ed16de022015fc61b1c8458fdd9adddc6c8966538ac8dff5ac2a302e7562b2dda524e86427012102761cf65a7f7b78c7dd41333cb0b7b3ecac6f10776b95ac3d229d6d39a104638c", "asm": "30440220241138dd5c71542a9b7dc9adc8b95ff82cf4104705cda1261914a2d005ed16de022015fc61b1c8458fdd9adddc6c8966538ac8dff5ac2a302e7562b2dda524e86427[ALL] 02761cf65a7f7b78c7dd41333cb0b7b3ecac6f10776b95ac3d229d6d39a104638c"}, "vout": 0, "txid": "813170f173c34fcf2dd8df5400b8baeb4ce61688232504e18efc14d81d46277b"}], "txid": "2871b282a969b20887de7199a8a03ca269de1849612c3461c1b675e9af1de3ce", "blocktime": 1537875543, "version": 1, "confirmations": 11464, "time": 1537875543, "locktime": 0, "vsize": 225, "size": 225}