{"hash": "2874ac8ed7d453ec6e4fca7f6f84ca74b3501c7d0ba1d9117fc356f46c1cdbed", "blockhash": "00000000000000000004ffacab907a6b429b9a5745fa0b75af4234bf69dd7176", "vout": [{"scriptPubKey": {"reqSigs": 1, "hex": "a914370659c31f3f4e5365fc284651569f7407d8ad9f87", "addresses": ["36hxhLv5yBn9iLghrZZ2QPzRoUqXwcoZrA"], "asm": "OP_HASH160 370659c31f3f4e5365fc284651569f7407d8ad9f OP_EQUAL", "type": "scripthash"}, "value": 0.00142028, "n": 0}, {"scriptPubKey": {"reqSigs": 1, "hex": "76a914e163d073e054266d0f5e025eebd6100b0c946b5b88ac", "addresses": ["1MYkcNyCtPmxivKoMy5v5VBkv6LuBrgrAy"], "asm": "OP_DUP OP_HASH160 e163d073e054266d0f5e025eebd6100b0c946b5b OP_EQUALVERIFY OP_CHECKSIG", "type": "pubkeyhash"}, "value": 0.0861032, "n": 1}], "hex": "01000000011c458513a9f051b9a0cf41533b236eeb65bd8f17f6b30c5bfd132c7c9d23e4c0010000006b483045022100b19c39b88882d022982a93f172c20b5e3a9e3826262d84aca1b264c54e3b2397022061768e3c8a540d05ace4949993dff33f9320dbb18c9be82d4be96155df65681e0121033387315522fd785dc6a3184e4f2acbd937f90409a105c06583c94e6554220085ffffffff02cc2a02000000000017a914370659c31f3f4e5365fc284651569f7407d8ad9f8710628300000000001976a914e163d073e054266d0f5e025eebd6100b0c946b5b88ac00000000", "vin": [{"sequence": 4294967295, "scriptSig": {"hex": "483045022100b19c39b88882d022982a93f172c20b5e3a9e3826262d84aca1b264c54e3b2397022061768e3c8a540d05ace4949993dff33f9320dbb18c9be82d4be96155df65681e0121033387315522fd785dc6a3184e4f2acbd937f90409a105c06583c94e6554220085", "asm": "3045022100b19c39b88882d022982a93f172c20b5e3a9e3826262d84aca1b264c54e3b2397022061768e3c8a540d05ace4949993dff33f9320dbb18c9be82d4be96155df65681e[ALL] 033387315522fd785dc6a3184e4f2acbd937f90409a105c06583c94e6554220085"}, "vout": 1, "txid": "c0e4239d7c2c13fd5b0cb3f6178fbd65eb6e233b5341cfa0b951f0a91385451c"}], "txid": "2874ac8ed7d453ec6e4fca7f6f84ca74b3501c7d0ba1d9117fc356f46c1cdbed", "blocktime": 1537875543, "version": 1, "confirmations": 11464, "time": 1537875543, "locktime": 0, "vsize": 224, "size": 224}