{"hash": "2874eca84c67306d9e10779bf52a156b04770e0960dce627506ce45c4f22765f", "blockhash": "0000000000000000000dcc0f55137456b1a82d3642486a52398922ac4d620174", "vout": [{"scriptPubKey": {"reqSigs": 1, "hex": "76a914730bb44078c02454e3b088b456f8fedfff1c215488ac", "addresses": ["1BVJjH2F5sRAfUEKTjTpqwgk4JmokJj2MH"], "asm": "OP_DUP OP_HASH160 730bb44078c02454e3b088b456f8fedfff1c2154 OP_EQUALVERIFY OP_CHECKSIG", "type": "pubkeyhash"}, "value": 0.00393653, "n": 0}], "hex": "01000000024b157e7f2fc553c203d786f687724f61b5f5881e5d13954ed4876ade7aba2d36000000006a47304402200d85bc3fedfaea54cb9c75598feb5bc11751834fb94e121888054f03c010b59e02207ca3c6b7ac4ee35a6ed61fce265948dd04557f274b90a0fc6654a781704d6fd801210288ca7981858e90d1fd5f279ec9933f6afc13b4829264082e92acb665794a3114ffffffffc5d4b227b8763c0f3426bb701314091cb9dd0c795282a3501bddfff10dc514fa000000006b4830450221008a6564cd75227a7975edb07b64520ca1763f60794a40bbc23d06d0d778572fb502201af27e80c7b469ae4eee0f29011aa74a31d523f6fbe2941b7a036eba9cac4731012102a80242c4a3d70e0e8d3deeba333cdd3e0e1a3115f9cd8a378af1b8ae12d8db5cffffffff01b5010600000000001976a914730bb44078c02454e3b088b456f8fedfff1c215488ac00000000", "vin": [{"sequence": 4294967295, "scriptSig": {"hex": "47304402200d85bc3fedfaea54cb9c75598feb5bc11751834fb94e121888054f03c010b59e02207ca3c6b7ac4ee35a6ed61fce265948dd04557f274b90a0fc6654a781704d6fd801210288ca7981858e90d1fd5f279ec9933f6afc13b4829264082e92acb665794a3114", "asm": "304402200d85bc3fedfaea54cb9c75598feb5bc11751834fb94e121888054f03c010b59e02207ca3c6b7ac4ee35a6ed61fce265948dd04557f274b90a0fc6654a781704d6fd8[ALL] 0288ca7981858e90d1fd5f279ec9933f6afc13b4829264082e92acb665794a3114"}, "vout": 0, "txid": "362dba7ade6a87d44e95135d1e88f5b5614f7287f686d703c253c52f7f7e154b"}, {"sequence": 4294967295, "scriptSig": {"hex": "4830450221008a6564cd75227a7975edb07b64520ca1763f60794a40bbc23d06d0d778572fb502201af27e80c7b469ae4eee0f29011aa74a31d523f6fbe2941b7a036eba9cac4731012102a80242c4a3d70e0e8d3deeba333cdd3e0e1a3115f9cd8a378af1b8ae12d8db5c", "asm": "30450221008a6564cd75227a7975edb07b64520ca1763f60794a40bbc23d06d0d778572fb502201af27e80c7b469ae4eee0f29011aa74a31d523f6fbe2941b7a036eba9cac4731[ALL] 02a80242c4a3d70e0e8d3deeba333cdd3e0e1a3115f9cd8a378af1b8ae12d8db5c"}, "vout": 0, "txid": "fa14c50df1ffdd1b50a38252790cddb91c09141370bb26340f3c76b827b2d4c5"}], "txid": "2874eca84c67306d9e10779bf52a156b04770e0960dce627506ce45c4f22765f", "blocktime": 1537870268, "version": 1, "confirmations": 11518, "time": 1537870268, "locktime": 0, "vsize": 339, "size": 339}