{"hash": "2876687aba0eda89fa0feecd6e9645c440330d059bf7a9b97a8006d41b30aeca", "blockhash": "00000000000000000017f5eb5941039fbcee6240d03bc1f2f8e35350df66a1d8", "vout": [{"scriptPubKey": {"reqSigs": 1, "hex": "76a914267ac5a79b824918867de14c2ad58a72cd01fb6888ac", "addresses": ["14WTkeLqg4hZRtAFTdEuVKZFzPsAPkNUy3"], "asm": "OP_DUP OP_HASH160 267ac5a79b824918867de14c2ad58a72cd01fb68 OP_EQUALVERIFY OP_CHECKSIG", "type": "pubkeyhash"}, "value": 0.00079, "n": 0}, {"scriptPubKey": {"type": "nulldata", "hex": "6a4c50000077f30001c58e89d8391d43717eab7aa5d19ed074892d00f8e87af8e8e963c7cfd5b9bc8d350a7163155daf39fcbde7df97b95baa189c0613aebfe86a9553bc9a9526289ac0f6612cd74e33776ee4", "asm": "OP_RETURN 000077f30001c58e89d8391d43717eab7aa5d19ed074892d00f8e87af8e8e963c7cfd5b9bc8d350a7163155daf39fcbde7df97b95baa189c0613aebfe86a9553bc9a9526289ac0f6612cd74e33776ee4"}, "value": 0.0, "n": 1}], "hex": "010000000193872da1dc0ab935f49f9ac7e9a7dad03f14f4808c253a15a7929ce9be15bf7d010000006b48304502210098d4c80dd05fcb99aec0eb229e5652d4f2e3a6433f64e7407cfca93417af1cad02204f19e4792f8c97edc99d9c39d36645bc83caf74334ad02b86966551485799c2e0121037e7c3336ffc63f4086a532f9ec7a043e62b62d8019ffae2ecd5c269c4849e82bffffffff0298340100000000001976a914267ac5a79b824918867de14c2ad58a72cd01fb6888ac0000000000000000536a4c50000077f30001c58e89d8391d43717eab7aa5d19ed074892d00f8e87af8e8e963c7cfd5b9bc8d350a7163155daf39fcbde7df97b95baa189c0613aebfe86a9553bc9a9526289ac0f6612cd74e33776ee400000000", "vin": [{"sequence": 4294967295, "scriptSig": {"hex": "48304502210098d4c80dd05fcb99aec0eb229e5652d4f2e3a6433f64e7407cfca93417af1cad02204f19e4792f8c97edc99d9c39d36645bc83caf74334ad02b86966551485799c2e0121037e7c3336ffc63f4086a532f9ec7a043e62b62d8019ffae2ecd5c269c4849e82b", "asm": "304502210098d4c80dd05fcb99aec0eb229e5652d4f2e3a6433f64e7407cfca93417af1cad02204f19e4792f8c97edc99d9c39d36645bc83caf74334ad02b86966551485799c2e[ALL] 037e7c3336ffc63f4086a532f9ec7a043e62b62d8019ffae2ecd5c269c4849e82b"}, "vout": 1, "txid": "7dbf15bee99c92a7153a258c80f4143fd0daa7e9c79a9ff435b90adca12d8793"}], "txid": "2876687aba0eda89fa0feecd6e9645c440330d059bf7a9b97a8006d41b30aeca", "blocktime": 1537874412, "version": 1, "confirmations": 11467, "time": 1537874412, "locktime": 0, "vsize": 284, "size": 284}