{"hash": "2882e96aa5bf24b5845d49292e8e1c45e8a33bca73d74b18f0c989eec4488c99", "blockhash": "00000000000000000004ffacab907a6b429b9a5745fa0b75af4234bf69dd7176", "vout": [{"scriptPubKey": {"reqSigs": 1, "hex": "76a914316e18c93b1fb0c101cb5e0dfece8da80739fc8388ac", "addresses": ["15WN14XqEUchoLUdx7H548ePQE18muwmZv"], "asm": "OP_DUP OP_HASH160 316e18c93b1fb0c101cb5e0dfece8da80739fc83 OP_EQUALVERIFY OP_CHECKSIG", "type": "pubkeyhash"}, "value": 0.00308728, "n": 0}, {"scriptPubKey": {"reqSigs": 1, "hex": "76a914d22ddb3a2fe917ca8ba140c8a3c0c624cbb034a788ac", "addresses": ["1LAKqSWqKYYwXbkJKnNkJXqhjcURzRMuKA"], "asm": "OP_DUP OP_HASH160 d22ddb3a2fe917ca8ba140c8a3c0c624cbb034a7 OP_EQUALVERIFY OP_CHECKSIG", "type": "pubkeyhash"}, "value": 3.93024641, "n": 1}], "hex": "010000000112482c5bcdef15a09a44ad5358757f87aaa9004fac961c1f59ea74e8898adeef000000006b483045022100c4f8bad715be125f2debea2329578cb6cf21800d433aa3527a3ede3098379efe022029f062adae1211d4c262ea73df023a2e064325029267c75c5aee76776270026a012103d632f26a942ab3627e6fb841703952114a2264d50ae8f38e6876754e2ef6fd22ffffffff02f8b50400000000001976a914316e18c93b1fb0c101cb5e0dfece8da80739fc8388ac81146d17000000001976a914d22ddb3a2fe917ca8ba140c8a3c0c624cbb034a788ac00000000", "vin": [{"sequence": 4294967295, "scriptSig": {"hex": "483045022100c4f8bad715be125f2debea2329578cb6cf21800d433aa3527a3ede3098379efe022029f062adae1211d4c262ea73df023a2e064325029267c75c5aee76776270026a012103d632f26a942ab3627e6fb841703952114a2264d50ae8f38e6876754e2ef6fd22", "asm": "3045022100c4f8bad715be125f2debea2329578cb6cf21800d433aa3527a3ede3098379efe022029f062adae1211d4c262ea73df023a2e064325029267c75c5aee76776270026a[ALL] 03d632f26a942ab3627e6fb841703952114a2264d50ae8f38e6876754e2ef6fd22"}, "vout": 0, "txid": "efde8a89e874ea591f1c96ac4f00a9aa877f755853ad449aa015efcd5b2c4812"}], "txid": "2882e96aa5bf24b5845d49292e8e1c45e8a33bca73d74b18f0c989eec4488c99", "blocktime": 1537875543, "version": 1, "confirmations": 11464, "time": 1537875543, "locktime": 0, "vsize": 226, "size": 226}