{"hash": "b0fc2e9904af9f3c2fbea7eec624aa945d912851c36389d0fc258d232183e919", "blockhash": "0000000000000000000baef3f32e3676a92c3b2e5da21b426e4f302fc371ce76", "vout": [{"scriptPubKey": {"reqSigs": 1, "hex": "a914010c92536c20ca014689a13ae219fa4d34d0f9e887", "addresses": ["31nZfDyz7iuBcdr6QDuMvfYnCujkpD24pi"], "asm": "OP_HASH160 010c92536c20ca014689a13ae219fa4d34d0f9e8 OP_EQUAL", "type": "scripthash"}, "value": 0.00999484, "n": 0}, {"scriptPubKey": {"reqSigs": 1, "hex": "76a9145211141df887da97b8b62eb55c315d4cff91dd2888ac", "addresses": ["18UvsNWMxy8JWVGx2JUSRhFNQRMJhzzCg1"], "asm": "OP_DUP OP_HASH160 5211141df887da97b8b62eb55c315d4cff91dd28 OP_EQUALVERIFY OP_CHECKSIG", "type": "pubkeyhash"}, "value": 0.0053616, "n": 1}], "hex": "020000000001021b899b9f686de9bb40e9bd4ef46b47f312fe6d1106f4f5ac3872b5199794d1930100000017160014d558a002855fbe8360126bf28f71e9f34f86f9c7feffffff78d15eba52166808f07f2789f85120555364c55069462009a454e4a307d151ba010000001716001498a4c37c098c6f15b2fee7b930b3855e8a312a1ffeffffff023c400f000000000017a914010c92536c20ca014689a13ae219fa4d34d0f9e887602e0800000000001976a9145211141df887da97b8b62eb55c315d4cff91dd2888ac02473044022006312b9f7da12d68d337bd89b550369f64330f948ab640385a94ed10236a703c02204216200caead5c0d47333b4f47092693709ef81c7ef787330903e9499904fa5c012102ab0cfe6a72cd40d813f061fb423abc8bf4c5af863855020db4ee6dd139e7909302473044022030ec885d20ce720ce7571bf164f931f1a60171ff90dcad7e15361cd5577ba49802205be78e5905976943dc1acfca50295a2bb60a3afb01f4da3ea13f3694a29d944201210365c46047041856abab750f4b0ac97145807e990f66e604c3e5014a8711a9275917490800", "vin": [{"txinwitness": ["3044022006312b9f7da12d68d337bd89b550369f64330f948ab640385a94ed10236a703c02204216200caead5c0d47333b4f47092693709ef81c7ef787330903e9499904fa5c01", "02ab0cfe6a72cd40d813f061fb423abc8bf4c5af863855020db4ee6dd139e79093"], "sequence": 4294967294, "scriptSig": {"hex": "160014d558a002855fbe8360126bf28f71e9f34f86f9c7", "asm": "0014d558a002855fbe8360126bf28f71e9f34f86f9c7"}, "vout": 1, "txid": "93d1949719b57238acf5f406116dfe12f3476bf44ebde940bbe96d689f9b891b"}, {"txinwitness": ["3044022030ec885d20ce720ce7571bf164f931f1a60171ff90dcad7e15361cd5577ba49802205be78e5905976943dc1acfca50295a2bb60a3afb01f4da3ea13f3694a29d944201", "0365c46047041856abab750f4b0ac97145807e990f66e604c3e5014a8711a92759"], "sequence": 4294967294, "scriptSig": {"hex": "16001498a4c37c098c6f15b2fee7b930b3855e8a312a1f", "asm": "001498a4c37c098c6f15b2fee7b930b3855e8a312a1f"}, "vout": 1, "txid": "ba51d107a3e454a40920466950c56453552051f889277ff008681652ba5ed178"}], "txid": "288555d3b47e35fb4f945361ab5ca046a94f2cd7b961c5627e4556a377a23e55", "blocktime": 1537876114, "version": 2, "confirmations": 11461, "time": 1537876114, "locktime": 542999, "vsize": 258, "size": 420}