{"hash": "2887541aa11a552130f244458e5d3dc76f2a765a7d3426bdecf488daac45f4c9", "blockhash": "0000000000000000001e0dab787dd257d1dbfcb92a98c2207d5e1078be1f4165", "vout": [{"scriptPubKey": {"reqSigs": 1, "hex": "76a9149ed16007f8cf132b6abfe6a46eb99a270e15bdd788ac", "addresses": ["1FUkawy3hxX2Krq2HpNTC6WCuVe2WE4k1K"], "asm": "OP_DUP OP_HASH160 9ed16007f8cf132b6abfe6a46eb99a270e15bdd7 OP_EQUALVERIFY OP_CHECKSIG", "type": "pubkeyhash"}, "value": 0.680017, "n": 0}, {"scriptPubKey": {"reqSigs": 1, "hex": "76a914bc5caa14509937d0aa569fc4cf033085c3fb256588ac", "addresses": ["1JAy3VruC8d8tume7JHTHKVKnLhyJLpBm5"], "asm": "OP_DUP OP_HASH160 bc5caa14509937d0aa569fc4cf033085c3fb2565 OP_EQUALVERIFY OP_CHECKSIG", "type": "pubkeyhash"}, "value": 0.267948, "n": 1}], "hex": "0100000002a4fc4fc6b831014390f478443d4d1f02237cdf331f148fc3e255633f557415bf000000006a47304402200a225074a37aeb84c200563b96382b508cc569ceca117130fac4af3f038fb5b20220521378362e8f0622b8e26b27206f4f989908c271f654cdcdaf0a9e333badec6e012102b93f46a96dd0dc8ed9481302fa0cf857e64bc7ce02fa2f3b22bec54bcdf97074ffffffff2f4bdb5625242368428365db9648a990d0422359e2dc009e75dd4540c166d5aa270000006a473044022006800e4f38a8bec6bce23f151bca0f709524dd1ffb83641024ab04599adcfce902207fcdcfd8f0a1fda6f0b0d2d81c6fb9b5bf8fee013c96154dd1ffecd76857175401210316f4e542af9c4033a6b4b2daead3838b3f4fc75f3e29277d3ab1ed9202296c50ffffffff02a49f0d04000000001976a9149ed16007f8cf132b6abfe6a46eb99a270e15bdd788ac30db9801000000001976a914bc5caa14509937d0aa569fc4cf033085c3fb256588ac00000000", "vin": [{"sequence": 4294967295, "scriptSig": {"hex": "47304402200a225074a37aeb84c200563b96382b508cc569ceca117130fac4af3f038fb5b20220521378362e8f0622b8e26b27206f4f989908c271f654cdcdaf0a9e333badec6e012102b93f46a96dd0dc8ed9481302fa0cf857e64bc7ce02fa2f3b22bec54bcdf97074", "asm": "304402200a225074a37aeb84c200563b96382b508cc569ceca117130fac4af3f038fb5b20220521378362e8f0622b8e26b27206f4f989908c271f654cdcdaf0a9e333badec6e[ALL] 02b93f46a96dd0dc8ed9481302fa0cf857e64bc7ce02fa2f3b22bec54bcdf97074"}, "vout": 0, "txid": "bf1574553f6355e2c38f141f33df7c23021f4d3d4478f490430131b8c64ffca4"}, {"sequence": 4294967295, "scriptSig": {"hex": "473044022006800e4f38a8bec6bce23f151bca0f709524dd1ffb83641024ab04599adcfce902207fcdcfd8f0a1fda6f0b0d2d81c6fb9b5bf8fee013c96154dd1ffecd76857175401210316f4e542af9c4033a6b4b2daead3838b3f4fc75f3e29277d3ab1ed9202296c50", "asm": "3044022006800e4f38a8bec6bce23f151bca0f709524dd1ffb83641024ab04599adcfce902207fcdcfd8f0a1fda6f0b0d2d81c6fb9b5bf8fee013c96154dd1ffecd768571754[ALL] 0316f4e542af9c4033a6b4b2daead3838b3f4fc75f3e29277d3ab1ed9202296c50"}, "vout": 39, "txid": "aad566c14045dd759e00dce2592342d090a94896db6583426823242556db4b2f"}], "txid": "2887541aa11a552130f244458e5d3dc76f2a765a7d3426bdecf488daac45f4c9", "blocktime": 1537872475, "version": 1, "confirmations": 11486, "time": 1537872475, "locktime": 0, "vsize": 372, "size": 372}