{"hash": "83892ce0dc10012d5450f2b95a73c5af791e607536368fff05b9f11d7724e609", "blockhash": "0000000000000000001f76057863aec43deb6fa401d9628bb513d65a8098bfab", "vout": [{"scriptPubKey": {"reqSigs": 1, "hex": "a914ea423c01bfa3457360e36a3caa786904c1acd08e87", "addresses": ["3P3fPUjYRjFrBwSwiPv5wcM5PmrV5yZ69t"], "asm": "OP_HASH160 ea423c01bfa3457360e36a3caa786904c1acd08e OP_EQUAL", "type": "scripthash"}, "value": 0.00992839, "n": 0}, {"scriptPubKey": {"reqSigs": 1, "hex": "a914d9910ee4a7d05a6acfc6159cd1a5f79f7bcf5bdc87", "addresses": ["3MXQKzMnAk45iPEyiFkCUPDdLPHYcjCqZH"], "asm": "OP_HASH160 d9910ee4a7d05a6acfc6159cd1a5f79f7bcf5bdc OP_EQUAL", "type": "scripthash"}, "value": 0.00196999, "n": 1}], "hex": "020000000001030193d6546e0b81e633b15c062b7b916ba90d806a1660455d478e965bbdb3e9c5180000006a47304402201a4f92e56324e9e99a21f614d15ec45c9fe5b021e07aac08f21762f4f4a83410022038a0c69ca7ed214863e9d0b8d2eb831a43df207077175dc20f9c84ecaf6cf0d50121039b44eedbae161f2b27c164996c87e03692289de5db62959095005f048a5a380dfeffffff0d0e1a530a449acc5eed7db361b2094ed5f5be8b39e54596021f86cfd6dfbae9000000001716001429db0ff9ec43449d23a1efc194aa75f62e03c20dfeffffff3a814503d14252a7001a88be1e82302667f53e475e0928c35286a8ec7e59262e00000000171600148e3ddfd531cb0316ba498093acf555a373a80fdefeffffff0247260f000000000017a914ea423c01bfa3457360e36a3caa786904c1acd08e87870103000000000017a914d9910ee4a7d05a6acfc6159cd1a5f79f7bcf5bdc870002483045022100ef2f83a10574f9dfe96403e8ec3570c5233445c4a90663790c3d7b2d376f6c7a02202c5effacfb19ba381e9ebec17cac858b83fb5938044b8a5fe6d0f95e171554e501210230bc77d9195cda4f4abf286262064f35cc133d4595c09ec0d75cc5e28c91257702483045022100cb781b765e84ed24c6ea990f3056bdd4be93abece0c14cc8f75bfa42ac58bdf90220619ed74ce19451d120265a2390c6f17ffc5fa9c349f99515345878f5e63dfaf00121038dd12b67cb063bd8b04162139c3be48b2bcf093aadfa22f72d26255f25600619fb480800", "vin": [{"sequence": 4294967294, "scriptSig": {"hex": "47304402201a4f92e56324e9e99a21f614d15ec45c9fe5b021e07aac08f21762f4f4a83410022038a0c69ca7ed214863e9d0b8d2eb831a43df207077175dc20f9c84ecaf6cf0d50121039b44eedbae161f2b27c164996c87e03692289de5db62959095005f048a5a380d", "asm": "304402201a4f92e56324e9e99a21f614d15ec45c9fe5b021e07aac08f21762f4f4a83410022038a0c69ca7ed214863e9d0b8d2eb831a43df207077175dc20f9c84ecaf6cf0d5[ALL] 039b44eedbae161f2b27c164996c87e03692289de5db62959095005f048a5a380d"}, "vout": 24, "txid": "c5e9b3bd5b968e475d4560166a800da96b917b2b065cb133e6810b6e54d69301"}, {"txinwitness": ["3045022100ef2f83a10574f9dfe96403e8ec3570c5233445c4a90663790c3d7b2d376f6c7a02202c5effacfb19ba381e9ebec17cac858b83fb5938044b8a5fe6d0f95e171554e501", "0230bc77d9195cda4f4abf286262064f35cc133d4595c09ec0d75cc5e28c912577"], "sequence": 4294967294, "scriptSig": {"hex": "16001429db0ff9ec43449d23a1efc194aa75f62e03c20d", "asm": "001429db0ff9ec43449d23a1efc194aa75f62e03c20d"}, "vout": 0, "txid": "e9badfd6cf861f029645e5398bbef5d54e09b261b37ded5ecc9a440a531a0e0d"}, {"txinwitness": ["3045022100cb781b765e84ed24c6ea990f3056bdd4be93abece0c14cc8f75bfa42ac58bdf90220619ed74ce19451d120265a2390c6f17ffc5fa9c349f99515345878f5e63dfaf001", "038dd12b67cb063bd8b04162139c3be48b2bcf093aadfa22f72d26255f25600619"], "sequence": 4294967294, "scriptSig": {"hex": "1600148e3ddfd531cb0316ba498093acf555a373a80fde", "asm": "00148e3ddfd531cb0316ba498093acf555a373a80fde"}, "vout": 0, "txid": "2e26597eeca88652c328095e473ef5672630821ebe881a00a75242d10345813a"}], "txid": "2889529ab96a47e6045e4ceadaa64b3df0a2015866238ee0d14d401979528888", "blocktime": 1537873891, "version": 2, "confirmations": 11474, "time": 1537873891, "locktime": 542971, "vsize": 404, "size": 568}