{"hash": "288b26ade11ab2e933b25cd4f6019ebbc0d204ddda3f542364b3078bca81aa95", "blockhash": "00000000000000000004ffacab907a6b429b9a5745fa0b75af4234bf69dd7176", "vout": [{"scriptPubKey": {"reqSigs": 1, "hex": "76a914cd4ceb1fb30ce1ee9d854501f0f1398fd454846e88ac", "addresses": ["1KiXfiMYtZEsGMNVGvV6P5FqC5jeKg3z4X"], "asm": "OP_DUP OP_HASH160 cd4ceb1fb30ce1ee9d854501f0f1398fd454846e OP_EQUALVERIFY OP_CHECKSIG", "type": "pubkeyhash"}, "value": 55.29621003, "n": 0}, {"scriptPubKey": {"reqSigs": 1, "hex": "a9147ec6c87bd943a711cea7c1ea6f45d9ff3fc6b82287", "addresses": ["3DFMCQgNtiSMJQhu4mcJJHLhJQivgzSNgD"], "asm": "OP_HASH160 7ec6c87bd943a711cea7c1ea6f45d9ff3fc6b822 OP_EQUAL", "type": "scripthash"}, "value": 0.15450219, "n": 1}], "hex": "0100000001c7129baf383864366d42624bf5865e0b7e9bb5247453fd1e5ab938394626fd6e000000006b483045022100edafea365ca627875e68f7a0308efbfb8074aeeb89636231c490a54ffffded150220296b1789b706cfd8e03d653072a5dfaaf63873c599244f6ebb59add9ce2cac8a012103af8a7bb01912b7f3f7ec1610c74fe8a3158c0a6fd84066846084a9f1771f8419ffffffff020b529749010000001976a914cd4ceb1fb30ce1ee9d854501f0f1398fd454846e88ac6bc0eb000000000017a9147ec6c87bd943a711cea7c1ea6f45d9ff3fc6b8228700000000", "vin": [{"sequence": 4294967295, "scriptSig": {"hex": "483045022100edafea365ca627875e68f7a0308efbfb8074aeeb89636231c490a54ffffded150220296b1789b706cfd8e03d653072a5dfaaf63873c599244f6ebb59add9ce2cac8a012103af8a7bb01912b7f3f7ec1610c74fe8a3158c0a6fd84066846084a9f1771f8419", "asm": "3045022100edafea365ca627875e68f7a0308efbfb8074aeeb89636231c490a54ffffded150220296b1789b706cfd8e03d653072a5dfaaf63873c599244f6ebb59add9ce2cac8a[ALL] 03af8a7bb01912b7f3f7ec1610c74fe8a3158c0a6fd84066846084a9f1771f8419"}, "vout": 0, "txid": "6efd26463938b95a1efd537424b59b7e0b5e86f54b62426d36643838af9b12c7"}], "txid": "288b26ade11ab2e933b25cd4f6019ebbc0d204ddda3f542364b3078bca81aa95", "blocktime": 1537875543, "version": 1, "confirmations": 11464, "time": 1537875543, "locktime": 0, "vsize": 224, "size": 224}