{"hash": "7b2a9eec34cdc6d508b5aa25e06fc9e1f26d499de553f2bf0e2023c11a53c4a6", "blockhash": "00000000000000000024a2167bbff67b0be802c0b01cdd79e6331c2be6459f87", "vout": [{"scriptPubKey": {"reqSigs": 1, "hex": "76a914d77b9154e0d1dc13358d23d99af295f3b66e735088ac", "addresses": ["1LeNJsvRP9ZKWYGeoxBSw4ydshZQEFQuM5"], "asm": "OP_DUP OP_HASH160 d77b9154e0d1dc13358d23d99af295f3b66e7350 OP_EQUALVERIFY OP_CHECKSIG", "type": "pubkeyhash"}, "value": 0.090403, "n": 0}, {"scriptPubKey": {"reqSigs": 1, "hex": "a914cf02a0eba961f3831cd950dbb00916b856f7187587", "addresses": ["3LZawtcZE1qWgxFxKXPaTYXRVrpQ4ZPHMd"], "asm": "OP_HASH160 cf02a0eba961f3831cd950dbb00916b856f71875 OP_EQUAL", "type": "scripthash"}, "value": 0.00997592, "n": 1}], "hex": "020000000001020c684a9c4d9a5b2f3e8c304794cf51a08feb6d1720b4317078071de38ca2f8b90100000017160014f2b299e80257590512d12fc2e8f35dceaa80d527feffffff6676099386eebb7ff41917c79d52dc7044d331c1a1016b18cffbf7fb643a4ee80100000017160014242b56163a48b0c3efed11ac5856d081dd287097feffffff02acf18900000000001976a914d77b9154e0d1dc13358d23d99af295f3b66e735088acd8380f000000000017a914cf02a0eba961f3831cd950dbb00916b856f71875870247304402203711d709c0dab48ff87e12bf1564e9d1d2d781e8e9673ae104e7f4a85a94b7660220547cbd046175134b73b4ad11bd4a9760a79b882c09b0b30231bc51e0bc03d8c401210248befa21d857f5448b5e7711a5c76ceba28a46e38b97eae61057a18f5b3dfd3b02483045022100dcace6ee3a497dd53170b09d182c549822bdeae7be6d6cb7ca165714a939d951022054d807769a42a3566c3784fbb90aeaa1e2ce24f0f2f6e56c1cf3de821bc938b9012102dcbaff9e7326232c3dad7a7ca32edbc7c4ce24e22bae31b423ae7ad28a8372a90d490800", "vin": [{"txinwitness": ["304402203711d709c0dab48ff87e12bf1564e9d1d2d781e8e9673ae104e7f4a85a94b7660220547cbd046175134b73b4ad11bd4a9760a79b882c09b0b30231bc51e0bc03d8c401", "0248befa21d857f5448b5e7711a5c76ceba28a46e38b97eae61057a18f5b3dfd3b"], "sequence": 4294967294, "scriptSig": {"hex": "160014f2b299e80257590512d12fc2e8f35dceaa80d527", "asm": "0014f2b299e80257590512d12fc2e8f35dceaa80d527"}, "vout": 1, "txid": "b9f8a28ce31d07787031b420176deb8fa051cf9447308c3e2f5b9a4d9c4a680c"}, {"txinwitness": ["3045022100dcace6ee3a497dd53170b09d182c549822bdeae7be6d6cb7ca165714a939d951022054d807769a42a3566c3784fbb90aeaa1e2ce24f0f2f6e56c1cf3de821bc938b901", "02dcbaff9e7326232c3dad7a7ca32edbc7c4ce24e22bae31b423ae7ad28a8372a9"], "sequence": 4294967294, "scriptSig": {"hex": "160014242b56163a48b0c3efed11ac5856d081dd287097", "asm": "0014242b56163a48b0c3efed11ac5856d081dd287097"}, "vout": 1, "txid": "e84e3a64fbf7fbcf186b01a1c131d34470dc529dc71719f47fbbee8693097666"}], "txid": "288c703b0c7a6becbc5a1af86e90beef44b7f5a292a39560be4b15d993fa7ea8", "blocktime": 1537870564, "version": 2, "confirmations": 11515, "time": 1537870564, "locktime": 542989, "vsize": 259, "size": 421}