{"hash": "2890f120a15c4bfbdf513c5b382042e00e52acbc47ede592da688350841f04ec", "blockhash": "0000000000000000001e0dab787dd257d1dbfcb92a98c2207d5e1078be1f4165", "vout": [{"scriptPubKey": {"reqSigs": 1, "hex": "a914d6edc758317e641cbdf949733bdfe35a24fbd7ea87", "addresses": ["3MHTNkN1xwMtMHXasV9yTYFDqQ7Zq3oZXD"], "asm": "OP_HASH160 d6edc758317e641cbdf949733bdfe35a24fbd7ea OP_EQUAL", "type": "scripthash"}, "value": 0.07777858, "n": 0}, {"scriptPubKey": {"reqSigs": 1, "hex": "76a9148d1c16645a8e937a4aed353a8309236c7c09b26488ac", "addresses": ["1Ds7vbnAYi4Ud5zCDPE96Z1aSvyBiZZrz5"], "asm": "OP_DUP OP_HASH160 8d1c16645a8e937a4aed353a8309236c7c09b264 OP_EQUALVERIFY OP_CHECKSIG", "type": "pubkeyhash"}, "value": 0.0358427, "n": 1}], "hex": "01000000016af68234c057420d129b0653dcbfea4524760992d195e939d090580d7616a710010000006b483045022100da21c3f3864ebfac3210d21cb36003722094cb04654559158919fb97279118d302202b364718396c1875d3a7140ac0f639ec6c8a1f127c3e7ae48642d3f26758c848012102fc15835dffd84d5d5e9c444922cf0f83650e5bc5797dbedd27fa7dc760cbcf80ffffffff0242ae76000000000017a914d6edc758317e641cbdf949733bdfe35a24fbd7ea870eb13600000000001976a9148d1c16645a8e937a4aed353a8309236c7c09b26488ac00000000", "vin": [{"sequence": 4294967295, "scriptSig": {"hex": "483045022100da21c3f3864ebfac3210d21cb36003722094cb04654559158919fb97279118d302202b364718396c1875d3a7140ac0f639ec6c8a1f127c3e7ae48642d3f26758c848012102fc15835dffd84d5d5e9c444922cf0f83650e5bc5797dbedd27fa7dc760cbcf80", "asm": "3045022100da21c3f3864ebfac3210d21cb36003722094cb04654559158919fb97279118d302202b364718396c1875d3a7140ac0f639ec6c8a1f127c3e7ae48642d3f26758c848[ALL] 02fc15835dffd84d5d5e9c444922cf0f83650e5bc5797dbedd27fa7dc760cbcf80"}, "vout": 1, "txid": "10a716760d5890d039e995d19209762445eabfdc53069b120d4257c03482f66a"}], "txid": "2890f120a15c4bfbdf513c5b382042e00e52acbc47ede592da688350841f04ec", "blocktime": 1537872475, "version": 1, "confirmations": 11486, "time": 1537872475, "locktime": 0, "vsize": 224, "size": 224}