{"hash": "289293c32fdc6ddac2afca241a527c416da350a6685ea045f05d337b30b5b74b", "blockhash": "0000000000000000000dcc0f55137456b1a82d3642486a52398922ac4d620174", "vout": [{"scriptPubKey": {"reqSigs": 1, "hex": "a91429a9b71781fb78a56dd3414d70d7d2112db3d46787", "addresses": ["35VJwRmMdkfzkdFxspBTbcAk8L9hhhZecW"], "asm": "OP_HASH160 29a9b71781fb78a56dd3414d70d7d2112db3d467 OP_EQUAL", "type": "scripthash"}, "value": 1.11850584, "n": 0}], "hex": "010000000daa119c3e66809793c52bd4c9d8af9e8757b25d6051fe4bd978fe5d86418da402000000006b483045022100ce33f149c948db5f796e195c0334f7a9afdd703e818caaa49ec65117c361b33a0220319a840f514eaba6320b604b37343e42c44b2c6364c6161f6f0a93a235efea0a0121024f39351a643133b9746d9c889449df45bf65dfc8ca5a2fe8e2c5d916bd67555bfdffffff9ecac13033717a70b5929881f200ff40393d5d7c9faf394832bb2bd5eb55ea33000000006a47304402204a1c58a96155c5f7bcd72613c3d3a18150f962043d29abd66d151680a67619b502201e27fa4e4b249e640efcfa82933c5b5cd62172d2ce582c5667158a82347a20a10121024f39351a643133b9746d9c889449df45bf65dfc8ca5a2fe8e2c5d916bd67555bfdffffffe6466b267c4210b83302f02a00628e83beb6e687024dc1014bdd154a203ccb3d010000006b483045022100aa9935613ebdb06bc1b37d2343724f14297f01b733c8fff3be79d21c5b495a0c0220463888c0a7efee916a82944bd788f9a9c453df649cf913758e605e4d91248626012103959a8d28a254b1b7ab05575586c3cbbaa6766294c11a94a6e49af45246db1b36fdffffff3ddfce536ee5237b523e0750160fe931ea751a0a3b72bc2cc13af8b81300f73d010000006a47304402206d10197f6baca0ae9b30584bc34bf0fe72d99aad8ca914ccd4eccedff2a5040602206df4c667c86c3cbbc6c514b2134993b5086eeb227515514ba4e196f33380d070012103be39af80a53a4ee0a6308f4ec96889511451d6fa55a71a60c4f9f279c28f83defdffffff2b2a3a5dcf5a1bf8fbc42f925940f7cd55f3d94b308931605bc3819b056a3841000000006a47304402201e79382d00cbd7dbffeb621f3f460965aba99b382f7ba6cb136cd01708dfa340022047cac432d2d48d2863886700c730fd8755d1dd85f0c944847dc4c8ef9b606d9b0121024f39351a643133b9746d9c889449df45bf65dfc8ca5a2fe8e2c5d916bd67555bfdffffff21e0aa737a2f1a411297023465a6297ed8894449bdbfa138282793d0abc09659000000006a473044022070ae2e2f0ff6a448aa740da20dc1962b31b1a98630d171b735716cc56f662dc502202143e2c5025fcc62ba35a3e11ebb22df736b4963dcb7802b8c500b0bc46b569a012103be39af80a53a4ee0a6308f4ec96889511451d6fa55a71a60c4f9f279c28f83defdfffffffe6bc03741b13f3412339fc117f8f28cd53aed2ae1863624a1ff952e29823077000000006a47304402201432964a1f87c7cc8a0f61c28edb5969b3ad8d27e37d6aace2059e9519761e3402200bfb238baeeedb714138895f74ca11b5a2c2803fe02bbb2623c18f20a7cc7fd10121024f39351a643133b9746d9c889449df45bf65dfc8ca5a2fe8e2c5d916bd67555bfdffffff4ad2c3d1855b7303e4c0921df4f97935207b6c80978e84bba270ab69a7a1bc79000000006b48304502210087ba7dbcd12c67c4dd8c3078ebab0c7937b6bbab3e08e1ca5f09d268426ac4fb02207bfba0a68cc3d957f499fbe491b24828723abbd412d67f24649def5f576ff40d012103be39af80a53a4ee0a6308f4ec96889511451d6fa55a71a60c4f9f279c28f83defdffffff375e93b0fd6da0cd4577a2351d86356dace842e5fbe981e733c72c5802e31596000000006b48304502210091c882f5f3ab1487553fbf6130600444ca607d383e83486aa3a60c0c262b79a5022037d5b4512afdbf51f8c1f3d7d2162b4a8009c8abc11fc6f9ff397a80a1c179ac0121028bc25eb19eb855929516900251480c7e55490bdbe975306cd9dcdb2eaf1bcf5cfdffffff5d3eeceacdd67addaf4c88e27d50b8cdc1c9ca40f2acba470d346de8d8a6d9ab010000006a47304402203c0635195aebdf6bbe487c85325e83f17278893d46827deaeb59fa726104ef6502202dd9f135e692c7e82d369f2cf18862c374e93baa3644b8c483624412eedc74180121024f39351a643133b9746d9c889449df45bf65dfc8ca5a2fe8e2c5d916bd67555bfdffffffc95e1469009935d62a88df7311f3b0d2b4cf10454ed44770230c828799280bc6000000006b483045022100d887c2b6825728743bf2a6cc6a3bfeb9d45bcf472e1fa00c826a74465542747b022018c144c55af07c38d092e8ae8b4ad298ab8caaee48c310bb2473ba321e5361ed0121024f39351a643133b9746d9c889449df45bf65dfc8ca5a2fe8e2c5d916bd67555bfdffffff13ece20017415ac441ad69867cc6d764d7e27d04f9936925bd036025283327e9000000006a47304402201179ddbae60a991e2fbe7e475546ed455f3ee9e84632b05b4a6c231b74177d56022030225599411951af57e2b6db3fc5ba26f7883945772cbd970d060012a3476b360121024f39351a643133b9746d9c889449df45bf65dfc8ca5a2fe8e2c5d916bd67555bfdffffff100aeb6864d322c3fa1bc251ea4c9fa2aca32bf5283b438aa7c8f90bfb534cf9000000006b483045022100b3654517aab84d15650f7b542f04f3f3787ccbef23cba94de77312eefd2d1aaf02206dd88df68097ece7e2f9063b435dba47be071c8f1ed229b5277c8e83f57c4d640121024f39351a643133b9746d9c889449df45bf65dfc8ca5a2fe8e2c5d916bd67555bfdffffff0158b4aa060000000017a91429a9b71781fb78a56dd3414d70d7d2112db3d467870b490800", "vin": [{"sequence": 4294967293, "scriptSig": {"hex": "483045022100ce33f149c948db5f796e195c0334f7a9afdd703e818caaa49ec65117c361b33a0220319a840f514eaba6320b604b37343e42c44b2c6364c6161f6f0a93a235efea0a0121024f39351a643133b9746d9c889449df45bf65dfc8ca5a2fe8e2c5d916bd67555b", "asm": "3045022100ce33f149c948db5f796e195c0334f7a9afdd703e818caaa49ec65117c361b33a0220319a840f514eaba6320b604b37343e42c44b2c6364c6161f6f0a93a235efea0a[ALL] 024f39351a643133b9746d9c889449df45bf65dfc8ca5a2fe8e2c5d916bd67555b"}, "vout": 0, "txid": "02a48d41865dfe78d94bfe51605db257879eafd8c9d42bc5939780663e9c11aa"}, {"sequence": 4294967293, "scriptSig": {"hex": "47304402204a1c58a96155c5f7bcd72613c3d3a18150f962043d29abd66d151680a67619b502201e27fa4e4b249e640efcfa82933c5b5cd62172d2ce582c5667158a82347a20a10121024f39351a643133b9746d9c889449df45bf65dfc8ca5a2fe8e2c5d916bd67555b", "asm": "304402204a1c58a96155c5f7bcd72613c3d3a18150f962043d29abd66d151680a67619b502201e27fa4e4b249e640efcfa82933c5b5cd62172d2ce582c5667158a82347a20a1[ALL] 024f39351a643133b9746d9c889449df45bf65dfc8ca5a2fe8e2c5d916bd67555b"}, "vout": 0, "txid": "33ea55ebd52bbb324839af9f7c5d3d3940ff00f2819892b5707a713330c1ca9e"}, {"sequence": 4294967293, "scriptSig": {"hex": "483045022100aa9935613ebdb06bc1b37d2343724f14297f01b733c8fff3be79d21c5b495a0c0220463888c0a7efee916a82944bd788f9a9c453df649cf913758e605e4d91248626012103959a8d28a254b1b7ab05575586c3cbbaa6766294c11a94a6e49af45246db1b36", "asm": "3045022100aa9935613ebdb06bc1b37d2343724f14297f01b733c8fff3be79d21c5b495a0c0220463888c0a7efee916a82944bd788f9a9c453df649cf913758e605e4d91248626[ALL] 03959a8d28a254b1b7ab05575586c3cbbaa6766294c11a94a6e49af45246db1b36"}, "vout": 1, "txid": "3dcb3c204a15dd4b01c14d0287e6b6be838e62002af00233b810427c266b46e6"}, {"sequence": 4294967293, "scriptSig": {"hex": "47304402206d10197f6baca0ae9b30584bc34bf0fe72d99aad8ca914ccd4eccedff2a5040602206df4c667c86c3cbbc6c514b2134993b5086eeb227515514ba4e196f33380d070012103be39af80a53a4ee0a6308f4ec96889511451d6fa55a71a60c4f9f279c28f83de", "asm": "304402206d10197f6baca0ae9b30584bc34bf0fe72d99aad8ca914ccd4eccedff2a5040602206df4c667c86c3cbbc6c514b2134993b5086eeb227515514ba4e196f33380d070[ALL] 03be39af80a53a4ee0a6308f4ec96889511451d6fa55a71a60c4f9f279c28f83de"}, "vout": 1, "txid": "3df70013b8f83ac12cbc723b0a1a75ea31e90f1650073e527b23e56e53cedf3d"}, {"sequence": 4294967293, "scriptSig": {"hex": "47304402201e79382d00cbd7dbffeb621f3f460965aba99b382f7ba6cb136cd01708dfa340022047cac432d2d48d2863886700c730fd8755d1dd85f0c944847dc4c8ef9b606d9b0121024f39351a643133b9746d9c889449df45bf65dfc8ca5a2fe8e2c5d916bd67555b", "asm": "304402201e79382d00cbd7dbffeb621f3f460965aba99b382f7ba6cb136cd01708dfa340022047cac432d2d48d2863886700c730fd8755d1dd85f0c944847dc4c8ef9b606d9b[ALL] 024f39351a643133b9746d9c889449df45bf65dfc8ca5a2fe8e2c5d916bd67555b"}, "vout": 0, "txid": "41386a059b81c35b603189304bd9f355cdf74059922fc4fbf81b5acf5d3a2a2b"}, {"sequence": 4294967293, "scriptSig": {"hex": "473044022070ae2e2f0ff6a448aa740da20dc1962b31b1a98630d171b735716cc56f662dc502202143e2c5025fcc62ba35a3e11ebb22df736b4963dcb7802b8c500b0bc46b569a012103be39af80a53a4ee0a6308f4ec96889511451d6fa55a71a60c4f9f279c28f83de", "asm": "3044022070ae2e2f0ff6a448aa740da20dc1962b31b1a98630d171b735716cc56f662dc502202143e2c5025fcc62ba35a3e11ebb22df736b4963dcb7802b8c500b0bc46b569a[ALL] 03be39af80a53a4ee0a6308f4ec96889511451d6fa55a71a60c4f9f279c28f83de"}, "vout": 0, "txid": "5996c0abd093272838a1bfbd494489d87e29a66534029712411a2f7a73aae021"}, {"sequence": 4294967293, "scriptSig": {"hex": "47304402201432964a1f87c7cc8a0f61c28edb5969b3ad8d27e37d6aace2059e9519761e3402200bfb238baeeedb714138895f74ca11b5a2c2803fe02bbb2623c18f20a7cc7fd10121024f39351a643133b9746d9c889449df45bf65dfc8ca5a2fe8e2c5d916bd67555b", "asm": "304402201432964a1f87c7cc8a0f61c28edb5969b3ad8d27e37d6aace2059e9519761e3402200bfb238baeeedb714138895f74ca11b5a2c2803fe02bbb2623c18f20a7cc7fd1[ALL] 024f39351a643133b9746d9c889449df45bf65dfc8ca5a2fe8e2c5d916bd67555b"}, "vout": 0, "txid": "773082292e95ffa1243686e12aed3ad58cf2f817c19f3312343fb14137c06bfe"}, {"sequence": 4294967293, "scriptSig": {"hex": "48304502210087ba7dbcd12c67c4dd8c3078ebab0c7937b6bbab3e08e1ca5f09d268426ac4fb02207bfba0a68cc3d957f499fbe491b24828723abbd412d67f24649def5f576ff40d012103be39af80a53a4ee0a6308f4ec96889511451d6fa55a71a60c4f9f279c28f83de", "asm": "304502210087ba7dbcd12c67c4dd8c3078ebab0c7937b6bbab3e08e1ca5f09d268426ac4fb02207bfba0a68cc3d957f499fbe491b24828723abbd412d67f24649def5f576ff40d[ALL] 03be39af80a53a4ee0a6308f4ec96889511451d6fa55a71a60c4f9f279c28f83de"}, "vout": 0, "txid": "79bca1a769ab70a2bb848e97806c7b203579f9f41d92c0e403735b85d1c3d24a"}, {"sequence": 4294967293, "scriptSig": {"hex": "48304502210091c882f5f3ab1487553fbf6130600444ca607d383e83486aa3a60c0c262b79a5022037d5b4512afdbf51f8c1f3d7d2162b4a8009c8abc11fc6f9ff397a80a1c179ac0121028bc25eb19eb855929516900251480c7e55490bdbe975306cd9dcdb2eaf1bcf5c", "asm": "304502210091c882f5f3ab1487553fbf6130600444ca607d383e83486aa3a60c0c262b79a5022037d5b4512afdbf51f8c1f3d7d2162b4a8009c8abc11fc6f9ff397a80a1c179ac[ALL] 028bc25eb19eb855929516900251480c7e55490bdbe975306cd9dcdb2eaf1bcf5c"}, "vout": 0, "txid": "9615e302582cc733e781e9fbe542e8ac6d35861d35a27745cda06dfdb0935e37"}, {"sequence": 4294967293, "scriptSig": {"hex": "47304402203c0635195aebdf6bbe487c85325e83f17278893d46827deaeb59fa726104ef6502202dd9f135e692c7e82d369f2cf18862c374e93baa3644b8c483624412eedc74180121024f39351a643133b9746d9c889449df45bf65dfc8ca5a2fe8e2c5d916bd67555b", "asm": "304402203c0635195aebdf6bbe487c85325e83f17278893d46827deaeb59fa726104ef6502202dd9f135e692c7e82d369f2cf18862c374e93baa3644b8c483624412eedc7418[ALL] 024f39351a643133b9746d9c889449df45bf65dfc8ca5a2fe8e2c5d916bd67555b"}, "vout": 1, "txid": "abd9a6d8e86d340d47baacf240cac9c1cdb8507de2884cafdd7ad6cdeaec3e5d"}, {"sequence": 4294967293, "scriptSig": {"hex": "483045022100d887c2b6825728743bf2a6cc6a3bfeb9d45bcf472e1fa00c826a74465542747b022018c144c55af07c38d092e8ae8b4ad298ab8caaee48c310bb2473ba321e5361ed0121024f39351a643133b9746d9c889449df45bf65dfc8ca5a2fe8e2c5d916bd67555b", "asm": "3045022100d887c2b6825728743bf2a6cc6a3bfeb9d45bcf472e1fa00c826a74465542747b022018c144c55af07c38d092e8ae8b4ad298ab8caaee48c310bb2473ba321e5361ed[ALL] 024f39351a643133b9746d9c889449df45bf65dfc8ca5a2fe8e2c5d916bd67555b"}, "vout": 0, "txid": "c60b289987820c237047d44e4510cfb4d2b0f31173df882ad635990069145ec9"}, {"sequence": 4294967293, "scriptSig": {"hex": "47304402201179ddbae60a991e2fbe7e475546ed455f3ee9e84632b05b4a6c231b74177d56022030225599411951af57e2b6db3fc5ba26f7883945772cbd970d060012a3476b360121024f39351a643133b9746d9c889449df45bf65dfc8ca5a2fe8e2c5d916bd67555b", "asm": "304402201179ddbae60a991e2fbe7e475546ed455f3ee9e84632b05b4a6c231b74177d56022030225599411951af57e2b6db3fc5ba26f7883945772cbd970d060012a3476b36[ALL] 024f39351a643133b9746d9c889449df45bf65dfc8ca5a2fe8e2c5d916bd67555b"}, "vout": 0, "txid": "e9273328256003bd256993f9047de2d764d7c67c8669ad41c45a411700e2ec13"}, {"sequence": 4294967293, "scriptSig": {"hex": "483045022100b3654517aab84d15650f7b542f04f3f3787ccbef23cba94de77312eefd2d1aaf02206dd88df68097ece7e2f9063b435dba47be071c8f1ed229b5277c8e83f57c4d640121024f39351a643133b9746d9c889449df45bf65dfc8ca5a2fe8e2c5d916bd67555b", "asm": "3045022100b3654517aab84d15650f7b542f04f3f3787ccbef23cba94de77312eefd2d1aaf02206dd88df68097ece7e2f9063b435dba47be071c8f1ed229b5277c8e83f57c4d64[ALL] 024f39351a643133b9746d9c889449df45bf65dfc8ca5a2fe8e2c5d916bd67555b"}, "vout": 0, "txid": "f94c53fb0bf9c8a78a433b28f52ba3aca29f4cea51c21bfac322d36468eb0a10"}], "txid": "289293c32fdc6ddac2afca241a527c416da350a6685ea045f05d337b30b5b74b", "blocktime": 1537870268, "version": 1, "confirmations": 11516, "time": 1537870268, "locktime": 542987, "vsize": 1959, "size": 1959}