{"hash": "289b53fb25b119598173177a7cc9757727c1731d58a210ebabd323c060385c0a", "blockhash": "0000000000000000000e13cef7c366c0283d82e591d1acd082e914b08063cdf1", "vout": [{"scriptPubKey": {"reqSigs": 1, "hex": "76a914dcbd9937040a24a37e04ec4bdfabdbb72f63824e88ac", "addresses": ["1M8AnjkgWJsgjDPkRVL63TtBXhgduL3Ew1"], "asm": "OP_DUP OP_HASH160 dcbd9937040a24a37e04ec4bdfabdbb72f63824e OP_EQUALVERIFY OP_CHECKSIG", "type": "pubkeyhash"}, "value": 0.0147948, "n": 0}, {"scriptPubKey": {"type": "nulldata", "hex": "6a4c500000778c0001f70b36bf1d3054d80ba3060ce3ef3236678a625097bcbefa6b8351586b4e0397d38bd4ef329276b2018db169cec95baa0c4006144be3021c8cbfbc9a9526289ac0f6612cd74e33776ee4", "asm": "OP_RETURN 0000778c0001f70b36bf1d3054d80ba3060ce3ef3236678a625097bcbefa6b8351586b4e0397d38bd4ef329276b2018db169cec95baa0c4006144be3021c8cbfbc9a9526289ac0f6612cd74e33776ee4"}, "value": 0.0, "n": 1}], "hex": "01000000014c7bad8af395be69a37f8060f92d09372b925fdb8edec6098624de2228be9c5d000000006a4730440220510649b7d8ea7e4635085d4b1de5f21565ae15fc83937f51e68968ae4537e572022041a4dcc18f131cf8979fc2878e491107356ea0df285b9b0e37759b3fb57bc6d701210307989994572be22d1b2c487553fbcb56ee7dfe84b18a025fd7fe6fe65a900c41ffffffff0238931600000000001976a914dcbd9937040a24a37e04ec4bdfabdbb72f63824e88ac0000000000000000536a4c500000778c0001f70b36bf1d3054d80ba3060ce3ef3236678a625097bcbefa6b8351586b4e0397d38bd4ef329276b2018db169cec95baa0c4006144be3021c8cbfbc9a9526289ac0f6612cd74e33776ee400000000", "vin": [{"sequence": 4294967295, "scriptSig": {"hex": "4730440220510649b7d8ea7e4635085d4b1de5f21565ae15fc83937f51e68968ae4537e572022041a4dcc18f131cf8979fc2878e491107356ea0df285b9b0e37759b3fb57bc6d701210307989994572be22d1b2c487553fbcb56ee7dfe84b18a025fd7fe6fe65a900c41", "asm": "30440220510649b7d8ea7e4635085d4b1de5f21565ae15fc83937f51e68968ae4537e572022041a4dcc18f131cf8979fc2878e491107356ea0df285b9b0e37759b3fb57bc6d7[ALL] 0307989994572be22d1b2c487553fbcb56ee7dfe84b18a025fd7fe6fe65a900c41"}, "vout": 0, "txid": "5d9cbe2822de248609c6de8edb5f922b37092df960807fa369be95f38aad7b4c"}], "txid": "289b53fb25b119598173177a7cc9757727c1731d58a210ebabd323c060385c0a", "blocktime": 1537871767, "version": 1, "confirmations": 11493, "time": 1537871767, "locktime": 0, "vsize": 283, "size": 283}