{"hash": "d987a9aaa680712f7f3de5d48e0cb07bff63df73c18d6cff964f6de80a793768", "blockhash": "0000000000000000000dcc0f55137456b1a82d3642486a52398922ac4d620174", "vout": [{"scriptPubKey": {"reqSigs": 1, "hex": "a9142931d354b27eaa67bb06d686e9235f1adf2f987687", "addresses": ["35SqKM2DaQeH6t4Z2dG7EQbLZHYcpCaH39"], "asm": "OP_HASH160 2931d354b27eaa67bb06d686e9235f1adf2f9876 OP_EQUAL", "type": "scripthash"}, "value": 0.04523776, "n": 0}, {"scriptPubKey": {"reqSigs": 1, "hex": "a914e193ad2e4dc5a0388214ace26386b646c6b0fc0787", "addresses": ["3NFksSvq76CJPhLyFDzkKqyETUjM8JiKnH"], "asm": "OP_HASH160 e193ad2e4dc5a0388214ace26386b646c6b0fc07 OP_EQUAL", "type": "scripthash"}, "value": 0.30938267, "n": 1}], "hex": "0200000000010179a0ee253a5418ef10a87a752659abc7953aa5e0c4e17c5f02dae28e4cf19c34000000001716001457235383a39b27de090c5c52ddffc5d094065a8cfeffffff02000745000000000017a9142931d354b27eaa67bb06d686e9235f1adf2f9876879b14d8010000000017a914e193ad2e4dc5a0388214ace26386b646c6b0fc07870247304402201866cd793d341d03179e02c6b018ce69a42454ff7eb400c97a112803105983b902207b232eed828469f9d3e9521a87e5271c24fda123e456132a92b225c2af9baee601210381e6660ba4bf6bf4272b096a8a13c77a8df68c24755fc9dfdeae4157903443e40c490800", "vin": [{"txinwitness": ["304402201866cd793d341d03179e02c6b018ce69a42454ff7eb400c97a112803105983b902207b232eed828469f9d3e9521a87e5271c24fda123e456132a92b225c2af9baee601", "0381e6660ba4bf6bf4272b096a8a13c77a8df68c24755fc9dfdeae4157903443e4"], "sequence": 4294967294, "scriptSig": {"hex": "16001457235383a39b27de090c5c52ddffc5d094065a8c", "asm": "001457235383a39b27de090c5c52ddffc5d094065a8c"}, "vout": 0, "txid": "349cf14c8ee2da025f7ce1c4e0a53a95c7ab5926757aa810ef18543a25eea079"}], "txid": "289db71b52f44134b1d7429629c06687e234c1534519ce070921a874999c3896", "blocktime": 1537870268, "version": 2, "confirmations": 11518, "time": 1537870268, "locktime": 542988, "vsize": 166, "size": 247}