{"hash": "28a2c7774188730e97a8e7961dc4f6900bb7b113e3bb80bcdd0ec3d8acb5539d", "blockhash": "0000000000000000001e0dab787dd257d1dbfcb92a98c2207d5e1078be1f4165", "vout": [{"scriptPubKey": {"reqSigs": 1, "hex": "76a9147bd248921f81bdcd5c0ba88c8686e366b68d55af88ac", "addresses": ["1CHi2M9q63yHeNgQDNN4qqQN7XBbxZ6sKp"], "asm": "OP_DUP OP_HASH160 7bd248921f81bdcd5c0ba88c8686e366b68d55af OP_EQUALVERIFY OP_CHECKSIG", "type": "pubkeyhash"}, "value": 0.00704379, "n": 0}, {"scriptPubKey": {"reqSigs": 1, "hex": "a914806a075ef1ee4d3897ccabdce806620f22be8ab387", "addresses": ["3DQ1S7CZiJ9rVcWqYqQ7yLacRPBna2e4D1"], "asm": "OP_HASH160 806a075ef1ee4d3897ccabdce806620f22be8ab3 OP_EQUAL", "type": "scripthash"}, "value": 0.007806, "n": 1}], "hex": "01000000013cceaec660371ce011693481e6edcaf9fa9a6790a3f728b5916036a8a96815c3010000006b48304502210097f76124d84f4a9b63b5cceb183362806700acb49dbcb5f9f13917e6a7f8678c0220228480f32a4fdda915953652541ab83824a3052afaf8c55dabfe9705f39e26e301210348a741c09b3d95045da8da5c108faadfa70de1c77a567d41b7a1f591848189b3ffffffff027bbf0a00000000001976a9147bd248921f81bdcd5c0ba88c8686e366b68d55af88ac38e90b000000000017a914806a075ef1ee4d3897ccabdce806620f22be8ab38700000000", "vin": [{"sequence": 4294967295, "scriptSig": {"hex": "48304502210097f76124d84f4a9b63b5cceb183362806700acb49dbcb5f9f13917e6a7f8678c0220228480f32a4fdda915953652541ab83824a3052afaf8c55dabfe9705f39e26e301210348a741c09b3d95045da8da5c108faadfa70de1c77a567d41b7a1f591848189b3", "asm": "304502210097f76124d84f4a9b63b5cceb183362806700acb49dbcb5f9f13917e6a7f8678c0220228480f32a4fdda915953652541ab83824a3052afaf8c55dabfe9705f39e26e3[ALL] 0348a741c09b3d95045da8da5c108faadfa70de1c77a567d41b7a1f591848189b3"}, "vout": 1, "txid": "c31568a9a8366091b528f7a390679afaf9caede681346911e01c3760c6aece3c"}], "txid": "28a2c7774188730e97a8e7961dc4f6900bb7b113e3bb80bcdd0ec3d8acb5539d", "blocktime": 1537872475, "version": 1, "confirmations": 11487, "time": 1537872475, "locktime": 0, "vsize": 224, "size": 224}