{"hash": "51fde9de303fafd6856189bed150915f2440cb82bf123f5a38727dff202b1578", "blockhash": "0000000000000000001cda96e906b7601b7a6fb1a3b62bca570a9e5d8f4b3de1", "vout": [{"scriptPubKey": {"reqSigs": 1, "hex": "0014981cb6a66e85af2c596b0a801ae1c50f9a38d069", "addresses": ["bc1qnqwtdfnwskhjckttp2qp4cw9p7dr35rfx5v4g2"], "asm": "0 981cb6a66e85af2c596b0a801ae1c50f9a38d069", "type": "witness_v0_keyhash"}, "value": 1.096e-05, "n": 0}, {"scriptPubKey": {"reqSigs": 1, "hex": "76a9145a4ef6186903eef0ea55a4943ae9594f8b87c4ed88ac", "addresses": ["19EWQbNxxwKf3TjGHtouXiUFsNyRQ1GgFW"], "asm": "OP_DUP OP_HASH160 5a4ef6186903eef0ea55a4943ae9594f8b87c4ed OP_EQUALVERIFY OP_CHECKSIG", "type": "pubkeyhash"}, "value": 0.00153182, "n": 1}], "hex": "01000000000101bffe4fd298bcbb9eda5e9d1fb14174ebc7016edbd7a31086c6a7e5a660c2f7c40000000000ffffffff024804000000000000160014981cb6a66e85af2c596b0a801ae1c50f9a38d0695e560200000000001976a9145a4ef6186903eef0ea55a4943ae9594f8b87c4ed88ac02483045022100db90383f41a00a416696a8623f6cfd3dc12ac6d55180af13763d1e0d441392e602206111162c3842463dbbac1c4b2f46c2f598063f36690a637efe14f5075bda93e5012102a7110d802b1230da6904930cad645f7a703ff7dea7bf755a964d3504656f329e00000000", "vin": [{"txinwitness": ["3045022100db90383f41a00a416696a8623f6cfd3dc12ac6d55180af13763d1e0d441392e602206111162c3842463dbbac1c4b2f46c2f598063f36690a637efe14f5075bda93e501", "02a7110d802b1230da6904930cad645f7a703ff7dea7bf755a964d3504656f329e"], "sequence": 4294967295, "scriptSig": {"hex": "", "asm": ""}, "vout": 0, "txid": "c4f7c260a6e5a7c68610a3d7db6e01c7eb7441b11f9d5eda9ebbbc98d24ffebf"}], "txid": "28ab733622073d97ce08321099f7120a44c30c2b00f2ce1c6416e77081399064", "blocktime": 1537873282, "version": 1, "confirmations": 11484, "time": 1537873282, "locktime": 0, "vsize": 144, "size": 226}