{"hash": "28ada49e55af02c4949f7073718ae63a0301d76def9c3e887f5bccdef92cfaed", "blockhash": "0000000000000000001cda96e906b7601b7a6fb1a3b62bca570a9e5d8f4b3de1", "vout": [{"scriptPubKey": {"reqSigs": 1, "hex": "76a914a3fabf92be8212147ecc58c240bfae67ce0f72e088ac", "addresses": ["1Fx3XZwczQhLcAj7KRFdTE1PsGSMCNqcUp"], "asm": "OP_DUP OP_HASH160 a3fabf92be8212147ecc58c240bfae67ce0f72e0 OP_EQUALVERIFY OP_CHECKSIG", "type": "pubkeyhash"}, "value": 0.00342881, "n": 0}, {"scriptPubKey": {"reqSigs": 1, "hex": "a9144c93ee3291a5ac76e6fe59da41a9fb134b72407787", "addresses": ["38fvVWcTg31r32Z9cuTg4ob45PNFxGRrJF"], "asm": "OP_HASH160 4c93ee3291a5ac76e6fe59da41a9fb134b724077 OP_EQUAL", "type": "scripthash"}, "value": 0.163947, "n": 1}], "hex": "01000000013d36c63826a44633215d46c67d44b7cd199e80ff9a81c8559a6d8163a9a9c3f9000000006b4830450221008220ac489715af04da6d866684f060db17d7954d2688eae8e44c9114cc50272e0220421e6e8374c2803136dba477a3558eaa67bada1c53ab04ffdad4bae695c57ddf012102cea0cfe4a029adc5e70cfaa591fed8ebdad90effbe7046cd9adf42c02ad274e8ffffffff02613b0500000000001976a914a3fabf92be8212147ecc58c240bfae67ce0f72e088accc29fa000000000017a9144c93ee3291a5ac76e6fe59da41a9fb134b7240778700000000", "vin": [{"sequence": 4294967295, "scriptSig": {"hex": "4830450221008220ac489715af04da6d866684f060db17d7954d2688eae8e44c9114cc50272e0220421e6e8374c2803136dba477a3558eaa67bada1c53ab04ffdad4bae695c57ddf012102cea0cfe4a029adc5e70cfaa591fed8ebdad90effbe7046cd9adf42c02ad274e8", "asm": "30450221008220ac489715af04da6d866684f060db17d7954d2688eae8e44c9114cc50272e0220421e6e8374c2803136dba477a3558eaa67bada1c53ab04ffdad4bae695c57ddf[ALL] 02cea0cfe4a029adc5e70cfaa591fed8ebdad90effbe7046cd9adf42c02ad274e8"}, "vout": 0, "txid": "f9c3a9a963816d9a55c8819aff809e19cdb7447dc6465d213346a42638c6363d"}], "txid": "28ada49e55af02c4949f7073718ae63a0301d76def9c3e887f5bccdef92cfaed", "blocktime": 1537873282, "version": 1, "confirmations": 11484, "time": 1537873282, "locktime": 0, "vsize": 224, "size": 224}