{"hash": "5996471b265d9edf0dbf377ab387b8f2b17d75b79ba13562240b3b1aeb49b394", "blockhash": "0000000000000000001f0ddff1eddb255c1121bcd4da4f1bc9a0da00cae72433", "vout": [{"scriptPubKey": {"reqSigs": 1, "hex": "a91430897cc6c9d69f6a2c2f1c651d51f22219f1a4f687", "addresses": ["367f4YWz1VCFaqBqwbTrzwi2b1h2U3w1AF"], "asm": "OP_HASH160 30897cc6c9d69f6a2c2f1c651d51f22219f1a4f6 OP_EQUAL", "type": "scripthash"}, "value": 0.12359024, "n": 0}, {"scriptPubKey": {"reqSigs": 1, "hex": "a9146061d2da138a823f0ea0ae728705af7b47b1025087", "addresses": ["3AUdys8bmF7Ts1VHph6Prbsz3p9bF5JNhN"], "asm": "OP_HASH160 6061d2da138a823f0ea0ae728705af7b47b10250 OP_EQUAL", "type": "scripthash"}, "value": 0.11, "n": 1}], "hex": "010000000001024092378d1e8d4c32877f1a1893ae2fdf1bc68d8cda2e80521bc4acb55cdc1ed80000000023220020bcf9f822194145acea0f3235f4107b5bf1a91b6b9f8489f63bf79ec29b360913ffffffffc6ed32203e635d175b665adaccef86b19eaf8319e88e6500de39526b7a25a9970000000023220020bcf9f822194145acea0f3235f4107b5bf1a91b6b9f8489f63bf79ec29b360913ffffffff027095bc000000000017a91430897cc6c9d69f6a2c2f1c651d51f22219f1a4f687c0d8a7000000000017a9146061d2da138a823f0ea0ae728705af7b47b1025087040047304402202828a0a7d085a88b641bf81d54f30145b4d60eddb7b07fdf2c15ea59fd3bd53802201d53db6ac59a1c5c717c44aae339a798eeebeaeba56f057baa8ced183c066d6e0147304402204d753d69c6f98e700418fc3e5f984a54d4ac6d98636cfee5674e7119b10ba96302202964270ba3c39247679fd4a62b6d64a2380bea506ece4be944f1954d06828e2701695221026c8f72b9e63db63907115e65d4da86eaae595b22fdc85ec75301bb4adbf203582103806535be3e3920e5eedee92de5714188fd6a784f2bf7b04f87de0b9c3ae1ecdb21024b23bfdce2afcae7e28c42f7f79aa100f22931712c52d7414a526ba494d44a2553ae0400483045022100a9f35c2941b7d6503dbab6dbb463d864392b5c4fb1632935f06a0fef495aee1602200d6da1103f7a4dbf37e04ad59043055d0dd45676ad1b86a2a8eea1286b251d5c01483045022100ce7e9e307860bde530060b7ae2c7105bf1a82ce643ebcb237f1ceef3dbfde24702201491243b934f249040ac5c1cab487eac0ec67139f54cdc6e0a89a7703d2647fe01695221026c8f72b9e63db63907115e65d4da86eaae595b22fdc85ec75301bb4adbf203582103806535be3e3920e5eedee92de5714188fd6a784f2bf7b04f87de0b9c3ae1ecdb21024b23bfdce2afcae7e28c42f7f79aa100f22931712c52d7414a526ba494d44a2553ae00000000", "vin": [{"txinwitness": ["", "304402202828a0a7d085a88b641bf81d54f30145b4d60eddb7b07fdf2c15ea59fd3bd53802201d53db6ac59a1c5c717c44aae339a798eeebeaeba56f057baa8ced183c066d6e01", "304402204d753d69c6f98e700418fc3e5f984a54d4ac6d98636cfee5674e7119b10ba96302202964270ba3c39247679fd4a62b6d64a2380bea506ece4be944f1954d06828e2701", "5221026c8f72b9e63db63907115e65d4da86eaae595b22fdc85ec75301bb4adbf203582103806535be3e3920e5eedee92de5714188fd6a784f2bf7b04f87de0b9c3ae1ecdb21024b23bfdce2afcae7e28c42f7f79aa100f22931712c52d7414a526ba494d44a2553ae"], "sequence": 4294967295, "scriptSig": {"hex": "220020bcf9f822194145acea0f3235f4107b5bf1a91b6b9f8489f63bf79ec29b360913", "asm": "0020bcf9f822194145acea0f3235f4107b5bf1a91b6b9f8489f63bf79ec29b360913"}, "vout": 0, "txid": "d81edc5cb5acc41b52802eda8c8dc61bdf2fae93181a7f87324c8d1e8d379240"}, {"txinwitness": ["", "3045022100a9f35c2941b7d6503dbab6dbb463d864392b5c4fb1632935f06a0fef495aee1602200d6da1103f7a4dbf37e04ad59043055d0dd45676ad1b86a2a8eea1286b251d5c01", "3045022100ce7e9e307860bde530060b7ae2c7105bf1a82ce643ebcb237f1ceef3dbfde24702201491243b934f249040ac5c1cab487eac0ec67139f54cdc6e0a89a7703d2647fe01", "5221026c8f72b9e63db63907115e65d4da86eaae595b22fdc85ec75301bb4adbf203582103806535be3e3920e5eedee92de5714188fd6a784f2bf7b04f87de0b9c3ae1ecdb21024b23bfdce2afcae7e28c42f7f79aa100f22931712c52d7414a526ba494d44a2553ae"], "sequence": 4294967295, "scriptSig": {"hex": "220020bcf9f822194145acea0f3235f4107b5bf1a91b6b9f8489f63bf79ec29b360913", "asm": "0020bcf9f822194145acea0f3235f4107b5bf1a91b6b9f8489f63bf79ec29b360913"}, "vout": 0, "txid": "97a9257a6b5239de00658ee81983af9eb186efccda5a665b175d633e2032edc6"}], "txid": "28b019ec0b79ac4143996c5bc532ec0e4177c419243a54951959a8ef4d9e809e", "blocktime": 1537872018, "version": 1, "confirmations": 11489, "time": 1537872018, "locktime": 0, "vsize": 353, "size": 734}