{"hash": "79d70b7a40702829d2441e3093f1811ed881603dfed09211e5b5b24433658447", "blockhash": "00000000000000000024a2167bbff67b0be802c0b01cdd79e6331c2be6459f87", "vout": [{"scriptPubKey": {"reqSigs": 1, "hex": "a914551e034c0e363805bf660d350cffccd33ffe226587", "addresses": ["39T5KBSHyuBgowSmc6jZmo6mB8ctxbfiGp"], "asm": "OP_HASH160 551e034c0e363805bf660d350cffccd33ffe2265 OP_EQUAL", "type": "scripthash"}, "value": 0.0020406, "n": 0}, {"scriptPubKey": {"reqSigs": 1, "hex": "a914b610d3a890b8211da255c2e6a95d0d4c5b6cdfa187", "addresses": ["3JHh4bv87zAKJtT9XxL3f86HQgYucTQ76z"], "asm": "OP_HASH160 b610d3a890b8211da255c2e6a95d0d4c5b6cdfa1 OP_EQUAL", "type": "scripthash"}, "value": 0.00999887, "n": 1}], "hex": "020000000001020af233f25161e02f135e0baaf20d80e868d566ecced3e379b501ce7b4cfab5db0100000017160014fe444fba403a6ab16ac276f65ae4a072f6e1e992feffffff1be7c78cbc809775dad694d899e49f3771af19a998f82846a7b9b89c863781860c0000001716001456823cd6e2d7007aeb3624bcba1ee5df6f459744feffffff021c1d03000000000017a914551e034c0e363805bf660d350cffccd33ffe226587cf410f000000000017a914b610d3a890b8211da255c2e6a95d0d4c5b6cdfa1870247304402203ce3b36b343093fc2a22d411500078b15a7de417e9e026710cb266692c7dafb70220548429646db92dfa394bec01ce50e9897a3838e149f8f3e5a327cb594edd82fc012103f3512a00ffa03e15ebcc5a2677421922456af39a52c785eaa55dec11d7ef4ed602473044022013b5a06605c3a3fcf1506be6971fbd51aec7ab7c07a90d06609b046f4a7cb8a80220336192d8cf8cc6f2bc6d2b1abfa85a9fde59b188d226fb9cc2f499ca09b3f0550121020f6f3b62e118aab0b0cf2b3e96656e194eebce14ec5b3e114e660a473406d0a10d490800", "vin": [{"txinwitness": ["304402203ce3b36b343093fc2a22d411500078b15a7de417e9e026710cb266692c7dafb70220548429646db92dfa394bec01ce50e9897a3838e149f8f3e5a327cb594edd82fc01", "03f3512a00ffa03e15ebcc5a2677421922456af39a52c785eaa55dec11d7ef4ed6"], "sequence": 4294967294, "scriptSig": {"hex": "160014fe444fba403a6ab16ac276f65ae4a072f6e1e992", "asm": "0014fe444fba403a6ab16ac276f65ae4a072f6e1e992"}, "vout": 1, "txid": "dbb5fa4c7bce01b579e3d3ceec66d568e8800df2aa0b5e132fe06151f233f20a"}, {"txinwitness": ["3044022013b5a06605c3a3fcf1506be6971fbd51aec7ab7c07a90d06609b046f4a7cb8a80220336192d8cf8cc6f2bc6d2b1abfa85a9fde59b188d226fb9cc2f499ca09b3f05501", "020f6f3b62e118aab0b0cf2b3e96656e194eebce14ec5b3e114e660a473406d0a1"], "sequence": 4294967294, "scriptSig": {"hex": "16001456823cd6e2d7007aeb3624bcba1ee5df6f459744", "asm": "001456823cd6e2d7007aeb3624bcba1ee5df6f459744"}, "vout": 12, "txid": "868137869cb8b9a74628f898a919af71379fe499d894d6da759780bc8cc7e71b"}], "txid": "28b1b53ebb97a65f2b5a2fef10a101c1359bbb480e837ad3985677fd5f7f9563", "blocktime": 1537870564, "version": 2, "confirmations": 11515, "time": 1537870564, "locktime": 542989, "vsize": 256, "size": 418}