{"hash": "28b109866aad136217473be4ad226ddf6e2284a66d07cc376c998e2abbff9428", "blockhash": "0000000000000000000baef3f32e3676a92c3b2e5da21b426e4f302fc371ce76", "vout": [{"scriptPubKey": {"reqSigs": 1, "hex": "76a914a092b6c274f6ed76dba48bf5a61cc4ea9a99577288ac", "addresses": ["1Fe2sZ7ZXrmrdWYaG8Sf9GV2LdSMiwUAZa"], "asm": "OP_DUP OP_HASH160 a092b6c274f6ed76dba48bf5a61cc4ea9a995772 OP_EQUALVERIFY OP_CHECKSIG", "type": "pubkeyhash"}, "value": 0.00063654, "n": 0}], "hex": "01000000046dc215d816980cae2d2a9c9eb2f7cee7ab2e3b2596a1bab8f936791064ee0b44000000006b48304502210080ea19f87c264375a21f49645d7dee7d38d61d2082c2ef1baaa1fe2e83b97b1c02201e696743165be7af101c1b43c4e012b9f4f60268a55a82d68d246db2b521ff6301210251bd719df6101955ec2bfad9d83c8a3fdf14f8ad168abeef26f3dc803820da1affffffff1b7a457ab5826de94d6ee14d5e514129a62cfc8b3412e160ee0948dc80aa94a2000000006a4730440220196a9e36870a245380b4cbcf685262aeea44be2a63229cd90328329680c9ae9c02206a282d773ed099b0de6281bf16bbccbf63fa2f9e80626f6422fed5b6534946eb012102095e61e19d06dbc92c64582183b28fe0542df0d0ec9795a05dfdccb69e0c82aeffffffff85ebc0844942a488ef2981a43ce5962f13ba193538456a2aabc333cbba1535a8010000006b483045022100eb25da7eb6383e0af09d1fce5b2c7046715c00531ddc7aa36966aa1250451d8c02206c0dd511c9ec527d703743ed9df308e5758a211545b295432042c538999e4432012102307b60dbecc7f6ad877a4e0715d061790557e51dcd49c057d22c9aeb3c6ad80bffffffff9c12f90e1445d52c3643581bec69001241ef10077d193e01f4d7eff21ace6dd2000000006a473044022052faf74098963143cf0ea8918911e1347acd7170f7c60aeaf50b1ea270c8cc7f02207e79673fe604805d54183ea9995b8823b8bc0e46e6848ee4ee65026fb18781a00121038523c9db6680fedeb90208a41ec7713b0af963af928d0d7e9d9f08536a3f59c0ffffffff01a6f80000000000001976a914a092b6c274f6ed76dba48bf5a61cc4ea9a99577288ac00000000", "vin": [{"sequence": 4294967295, "scriptSig": {"hex": "48304502210080ea19f87c264375a21f49645d7dee7d38d61d2082c2ef1baaa1fe2e83b97b1c02201e696743165be7af101c1b43c4e012b9f4f60268a55a82d68d246db2b521ff6301210251bd719df6101955ec2bfad9d83c8a3fdf14f8ad168abeef26f3dc803820da1a", "asm": "304502210080ea19f87c264375a21f49645d7dee7d38d61d2082c2ef1baaa1fe2e83b97b1c02201e696743165be7af101c1b43c4e012b9f4f60268a55a82d68d246db2b521ff63[ALL] 0251bd719df6101955ec2bfad9d83c8a3fdf14f8ad168abeef26f3dc803820da1a"}, "vout": 0, "txid": "440bee64107936f9b8baa196253b2eabe7cef7b29e9c2a2dae0c9816d815c26d"}, {"sequence": 4294967295, "scriptSig": {"hex": "4730440220196a9e36870a245380b4cbcf685262aeea44be2a63229cd90328329680c9ae9c02206a282d773ed099b0de6281bf16bbccbf63fa2f9e80626f6422fed5b6534946eb012102095e61e19d06dbc92c64582183b28fe0542df0d0ec9795a05dfdccb69e0c82ae", "asm": "30440220196a9e36870a245380b4cbcf685262aeea44be2a63229cd90328329680c9ae9c02206a282d773ed099b0de6281bf16bbccbf63fa2f9e80626f6422fed5b6534946eb[ALL] 02095e61e19d06dbc92c64582183b28fe0542df0d0ec9795a05dfdccb69e0c82ae"}, "vout": 0, "txid": "a294aa80dc4809ee60e112348bfc2ca62941515e4de16e4de96d82b57a457a1b"}, {"sequence": 4294967295, "scriptSig": {"hex": "483045022100eb25da7eb6383e0af09d1fce5b2c7046715c00531ddc7aa36966aa1250451d8c02206c0dd511c9ec527d703743ed9df308e5758a211545b295432042c538999e4432012102307b60dbecc7f6ad877a4e0715d061790557e51dcd49c057d22c9aeb3c6ad80b", "asm": "3045022100eb25da7eb6383e0af09d1fce5b2c7046715c00531ddc7aa36966aa1250451d8c02206c0dd511c9ec527d703743ed9df308e5758a211545b295432042c538999e4432[ALL] 02307b60dbecc7f6ad877a4e0715d061790557e51dcd49c057d22c9aeb3c6ad80b"}, "vout": 1, "txid": "a83515bacb33c3ab2a6a45383519ba132f96e53ca48129ef88a4424984c0eb85"}, {"sequence": 4294967295, "scriptSig": {"hex": "473044022052faf74098963143cf0ea8918911e1347acd7170f7c60aeaf50b1ea270c8cc7f02207e79673fe604805d54183ea9995b8823b8bc0e46e6848ee4ee65026fb18781a00121038523c9db6680fedeb90208a41ec7713b0af963af928d0d7e9d9f08536a3f59c0", "asm": "3044022052faf74098963143cf0ea8918911e1347acd7170f7c60aeaf50b1ea270c8cc7f02207e79673fe604805d54183ea9995b8823b8bc0e46e6848ee4ee65026fb18781a0[ALL] 038523c9db6680fedeb90208a41ec7713b0af963af928d0d7e9d9f08536a3f59c0"}, "vout": 0, "txid": "d26dce1af2efd7f4013e197d0710ef41120069ec1b5843362cd545140ef9129c"}], "txid": "28b109866aad136217473be4ad226ddf6e2284a66d07cc376c998e2abbff9428", "blocktime": 1537876114, "version": 1, "confirmations": 11459, "time": 1537876114, "locktime": 0, "vsize": 634, "size": 634}