{"hash": "28b424c0cbaba6523750dfdc5f16698b2ae35a3e68f995761133cca418f3a2a4", "blockhash": "000000000000000000022b45ed06c6f4ccd3cf7fb5ba4856ebd2e58215665228", "vout": [{"scriptPubKey": {"reqSigs": 1, "hex": "76a9140a49478408c6273220c94102deba6e86edfd0db588ac", "addresses": ["1wPYTXf3beLwSmne6RmENrtbdsR2HSr7e"], "asm": "OP_DUP OP_HASH160 0a49478408c6273220c94102deba6e86edfd0db5 OP_EQUALVERIFY OP_CHECKSIG", "type": "pubkeyhash"}, "value": 0.0148404, "n": 0}, {"scriptPubKey": {"type": "nulldata", "hex": "6a4c500000775c00010f99ba3cf20259cb5014fffa3a016b46dc7dc7d0968d120d670c1906f999e00b6b3cf12aaa55f96e175ab0a415755baa06fe06128d3ff5472e16bc9a9526289ac0f6612cd74e33776ee4", "asm": "OP_RETURN 0000775c00010f99ba3cf20259cb5014fffa3a016b46dc7dc7d0968d120d670c1906f999e00b6b3cf12aaa55f96e175ab0a415755baa06fe06128d3ff5472e16bc9a9526289ac0f6612cd74e33776ee4"}, "value": 0.0, "n": 1}], "hex": "0100000001ec0213d326278616a6b66db718d6d8021a696e5338460b0a32eb96662c9bddb2000000006b483045022100c289f8f890b969a667dc825ec2ffbf22d3b6e6018317787246bf2c40e85ca66b022016657cd319aae5d92e6f01cd12d38c5a2618fde9970676ee91775fb4b542897501210242b9274e0a5be2faf7ff599399fa0b1fd62b3e8c0714595a8c32502cc55697f0ffffffff0208a51600000000001976a9140a49478408c6273220c94102deba6e86edfd0db588ac0000000000000000536a4c500000775c00010f99ba3cf20259cb5014fffa3a016b46dc7dc7d0968d120d670c1906f999e00b6b3cf12aaa55f96e175ab0a415755baa06fe06128d3ff5472e16bc9a9526289ac0f6612cd74e33776ee400000000", "vin": [{"sequence": 4294967295, "scriptSig": {"hex": "483045022100c289f8f890b969a667dc825ec2ffbf22d3b6e6018317787246bf2c40e85ca66b022016657cd319aae5d92e6f01cd12d38c5a2618fde9970676ee91775fb4b542897501210242b9274e0a5be2faf7ff599399fa0b1fd62b3e8c0714595a8c32502cc55697f0", "asm": "3045022100c289f8f890b969a667dc825ec2ffbf22d3b6e6018317787246bf2c40e85ca66b022016657cd319aae5d92e6f01cd12d38c5a2618fde9970676ee91775fb4b5428975[ALL] 0242b9274e0a5be2faf7ff599399fa0b1fd62b3e8c0714595a8c32502cc55697f0"}, "vout": 0, "txid": "b2dd9b2c6696eb320a0b4638536e691a02d8d618b76db6a616862726d31302ec"}], "txid": "28b424c0cbaba6523750dfdc5f16698b2ae35a3e68f995761133cca418f3a2a4", "blocktime": 1537869901, "version": 1, "confirmations": 11523, "time": 1537869901, "locktime": 0, "vsize": 284, "size": 284}