{"hash": "cf4663cec312a3d8d88c4fc3612a7227a32bf7c423f032dd340626f56b052eab", "blockhash": "00000000000000000018f53835495a110e01622372bf6ae95dc86f2b0ab887b0", "vout": [{"scriptPubKey": {"reqSigs": 1, "hex": "a914c9d8c9dcfc2fd1619d20aa535645283910634e0b87", "addresses": ["3L6HSqFNjCTMKPx3qB2BC8ukvVdyAxdS6u"], "asm": "OP_HASH160 c9d8c9dcfc2fd1619d20aa535645283910634e0b OP_EQUAL", "type": "scripthash"}, "value": 0.00138, "n": 0}, {"scriptPubKey": {"reqSigs": 1, "hex": "a914e75252b8570e6c2332b8cea5c0c44cf06993b81d87", "addresses": ["3Nn8dmUUNLtvZWfecZqwvcAumVohidamiN"], "asm": "OP_HASH160 e75252b8570e6c2332b8cea5c0c44cf06993b81d OP_EQUAL", "type": "scripthash"}, "value": 0.242927, "n": 1}], "hex": "0100000000010168539735ba11b676affc3e44a6bf345bb2c163b74d8b0fdcced8c6bd4b44507a0000000023220020aca86e7b9d996add829d0caa7f3243b914684594d34421ea41fc0e44659a6d71ffffffff02101b02000000000017a914c9d8c9dcfc2fd1619d20aa535645283910634e0b875cad72010000000017a914e75252b8570e6c2332b8cea5c0c44cf06993b81d870400483045022100a02e21adab98d65528bc897ab3ade020a87395264b67c935bdc80bee7c723b3b02201d9f88e8e8924556e5a2f9ef191c0ae046420bb86dea1990b719f3275bcb050c0147304402200c604a663ba9213938e6d804ff8df705eab7228f2e03c4a081b406cececb330902204b521d8127480fb97fcec8c3cae1e5681bfb3d448fdc1d2d18cf0cb058170eaf016952210215700c378657fb053a6657e035c91016aab4fccb19bcb828fcd49d0d4ea3c8ac2102600defd03b07bc9763f0bc98aa59a716718b15a4d70b62bd547ad2e2ad57f3a721036929bb9062f671391f09bf98e96dd328239c455b88219fe4254cc88d4533054e53ae00000000", "vin": [{"txinwitness": ["", "3045022100a02e21adab98d65528bc897ab3ade020a87395264b67c935bdc80bee7c723b3b02201d9f88e8e8924556e5a2f9ef191c0ae046420bb86dea1990b719f3275bcb050c01", "304402200c604a663ba9213938e6d804ff8df705eab7228f2e03c4a081b406cececb330902204b521d8127480fb97fcec8c3cae1e5681bfb3d448fdc1d2d18cf0cb058170eaf01", "52210215700c378657fb053a6657e035c91016aab4fccb19bcb828fcd49d0d4ea3c8ac2102600defd03b07bc9763f0bc98aa59a716718b15a4d70b62bd547ad2e2ad57f3a721036929bb9062f671391f09bf98e96dd328239c455b88219fe4254cc88d4533054e53ae"], "sequence": 4294967295, "scriptSig": {"hex": "220020aca86e7b9d996add829d0caa7f3243b914684594d34421ea41fc0e44659a6d71", "asm": "0020aca86e7b9d996add829d0caa7f3243b914684594d34421ea41fc0e44659a6d71"}, "vout": 0, "txid": "7a50444bbdc6d8cedc0f8b4db763c1b25b34bfa6443efcaf76b611ba35975368"}], "txid": "28b56acdeec4a7585185b176c3af4fb3732c7e0032c7415f8f561624b4bf2529", "blocktime": 1537870928, "version": 1, "confirmations": 11514, "time": 1537870928, "locktime": 0, "vsize": 214, "size": 405}