{"hash": "28bbe9603a56ae8c731ecdb4cf2c91dd1133e5d59bd6049f5553264f2fd0da4e", "blockhash": "0000000000000000000baef3f32e3676a92c3b2e5da21b426e4f302fc371ce76", "vout": [{"scriptPubKey": {"reqSigs": 1, "hex": "76a9147a3d1ce8875d336f82de79f90fcdf968c40e1fd588ac", "addresses": ["1C9Lec1gHAW8NCDausfPQq3dkdxKW4jYLy"], "asm": "OP_DUP OP_HASH160 7a3d1ce8875d336f82de79f90fcdf968c40e1fd5 OP_EQUALVERIFY OP_CHECKSIG", "type": "pubkeyhash"}, "value": 0.01373524, "n": 0}, {"scriptPubKey": {"type": "nulldata", "hex": "6a4c500000782200017cdcad2d95c4798fc698134b019d6ddc0f1b8ff117702940d64fa54d8eb21b66e7736205396f49b98d72f7e7af165baa1d97061451c8c779c6dfbc9a9526289ac0f6612cd74e33776ee4", "asm": "OP_RETURN 0000782200017cdcad2d95c4798fc698134b019d6ddc0f1b8ff117702940d64fa54d8eb21b66e7736205396f49b98d72f7e7af165baa1d97061451c8c779c6dfbc9a9526289ac0f6612cd74e33776ee4"}, "value": 0.0, "n": 1}], "hex": "01000000018142c9334000f05194966e7e9a9055fd99636e707b6225030a70622a9b430355000000006a473044022033fa165e19842abf2ccb65cd98ba1208bd5b5d8a95c87dc22356d1a465a85bbb02203bb8e140a83aa223bcb4507b04aca02d772153e1b39906142213a15f12042778012102c54e8ddee6a1c95e62f3a37a51991e5d9a57ec6537a2555c5490f0349a74d784ffffffff0254f51400000000001976a9147a3d1ce8875d336f82de79f90fcdf968c40e1fd588ac0000000000000000536a4c500000782200017cdcad2d95c4798fc698134b019d6ddc0f1b8ff117702940d64fa54d8eb21b66e7736205396f49b98d72f7e7af165baa1d97061451c8c779c6dfbc9a9526289ac0f6612cd74e33776ee400000000", "vin": [{"sequence": 4294967295, "scriptSig": {"hex": "473044022033fa165e19842abf2ccb65cd98ba1208bd5b5d8a95c87dc22356d1a465a85bbb02203bb8e140a83aa223bcb4507b04aca02d772153e1b39906142213a15f12042778012102c54e8ddee6a1c95e62f3a37a51991e5d9a57ec6537a2555c5490f0349a74d784", "asm": "3044022033fa165e19842abf2ccb65cd98ba1208bd5b5d8a95c87dc22356d1a465a85bbb02203bb8e140a83aa223bcb4507b04aca02d772153e1b39906142213a15f12042778[ALL] 02c54e8ddee6a1c95e62f3a37a51991e5d9a57ec6537a2555c5490f0349a74d784"}, "vout": 0, "txid": "5503439b2a62700a0325627b706e6399fd55909a7e6e969451f0004033c94281"}], "txid": "28bbe9603a56ae8c731ecdb4cf2c91dd1133e5d59bd6049f5553264f2fd0da4e", "blocktime": 1537876114, "version": 1, "confirmations": 11460, "time": 1537876114, "locktime": 0, "vsize": 283, "size": 283}