{"hash": "28c78f660f7065192624fe393ded9d57247bc801b99ec72c3b05d2dfbb05215c", "blockhash": "0000000000000000001f0ddff1eddb255c1121bcd4da4f1bc9a0da00cae72433", "vout": [{"scriptPubKey": {"reqSigs": 1, "hex": "a91493c7234ba57b579e3eb51d98d2e9374b4b91613287", "addresses": ["3FAPp5sZCYkhcPZfSr4YAPGYpnehG523d9"], "asm": "OP_HASH160 93c7234ba57b579e3eb51d98d2e9374b4b916132 OP_EQUAL", "type": "scripthash"}, "value": 0.0026042, "n": 0}, {"scriptPubKey": {"reqSigs": 1, "hex": "76a914e349bc52d6b8100b58d3fce45135a91c5c128a1d88ac", "addresses": ["1MiningDkXkhKaXBTMKXfLemnk1YY5rbkT"], "asm": "OP_DUP OP_HASH160 e349bc52d6b8100b58d3fce45135a91c5c128a1d OP_EQUALVERIFY OP_CHECKSIG", "type": "pubkeyhash"}, "value": 0.0493106, "n": 1}], "hex": "0200000001bec29cebd783bf0cac6adf40d87dbb124ae008c91f929574f9f79884b72fdc66010000008a47304402200689b9ee20313f08aec1841975e62cf646eab23cccf24a0de23996c00be693e102205c8bd19d3a50c6995dc0956a8558986118723ec1bf4520a83b30114676a3ac9b014104ae414abde7876c34e01694b38b2341d10b9b4c8db18a66262bd8df26bcb57893885c9fe8b79aa25330d5f05bb5aa9ab636a908a72e27956572b44190b22809beffffffff0244f903000000000017a91493c7234ba57b579e3eb51d98d2e9374b4b91613287f43d4b00000000001976a914e349bc52d6b8100b58d3fce45135a91c5c128a1d88ac00000000", "vin": [{"sequence": 4294967295, "scriptSig": {"hex": "47304402200689b9ee20313f08aec1841975e62cf646eab23cccf24a0de23996c00be693e102205c8bd19d3a50c6995dc0956a8558986118723ec1bf4520a83b30114676a3ac9b014104ae414abde7876c34e01694b38b2341d10b9b4c8db18a66262bd8df26bcb57893885c9fe8b79aa25330d5f05bb5aa9ab636a908a72e27956572b44190b22809be", "asm": "304402200689b9ee20313f08aec1841975e62cf646eab23cccf24a0de23996c00be693e102205c8bd19d3a50c6995dc0956a8558986118723ec1bf4520a83b30114676a3ac9b[ALL] 04ae414abde7876c34e01694b38b2341d10b9b4c8db18a66262bd8df26bcb57893885c9fe8b79aa25330d5f05bb5aa9ab636a908a72e27956572b44190b22809be"}, "vout": 1, "txid": "66dc2fb78498f7f97495921fc908e04a12bb7dd840df6aac0cbf83d7eb9cc2be"}], "txid": "28c78f660f7065192624fe393ded9d57247bc801b99ec72c3b05d2dfbb05215c", "blocktime": 1537872018, "version": 2, "confirmations": 11489, "time": 1537872018, "locktime": 0, "vsize": 255, "size": 255}