{"hash": "28d2effda9e72b59e2e665512f6770e9dcb907b675baa5b3dfe2bc076e60de78", "blockhash": "0000000000000000001e0dab787dd257d1dbfcb92a98c2207d5e1078be1f4165", "vout": [{"scriptPubKey": {"reqSigs": 1, "hex": "76a91488d924f51033b74a895863a5fb57fd545529df7d88ac", "addresses": ["1DUb2YYbQA1jjaNYzVXLZ7ZioEhLXtbUru"], "asm": "OP_DUP OP_HASH160 88d924f51033b74a895863a5fb57fd545529df7d OP_EQUALVERIFY OP_CHECKSIG", "type": "pubkeyhash"}, "value": 1.05348222, "n": 0}, {"scriptPubKey": {"type": "nulldata", "hex": "6a146f6d6e69000000000000001f00000003781bf500", "asm": "OP_RETURN 6f6d6e69000000000000001f00000003781bf500"}, "value": 0.0, "n": 1}, {"scriptPubKey": {"reqSigs": 1, "hex": "76a914fe3e43b3d4de37689b73b5f6ccb6d41915c01bca88ac", "addresses": ["1QBKDwGW92QdQzXtNeP3vWiTy2zAJk2BVQ"], "asm": "OP_DUP OP_HASH160 fe3e43b3d4de37689b73b5f6ccb6d41915c01bca OP_EQUALVERIFY OP_CHECKSIG", "type": "pubkeyhash"}, "value": 5.46e-06, "n": 2}], "hex": "01000000010657ad93c137215b4ca8fb88db81d050709c88db3a00531ea541896e114be739000000006a473044022010681968ecc52b090a61127078a72e51b09ab42c23e76d5e3f21f34bac237d6a02206518b21fe2225c48ac29f19733d4231a19aa2d3f034256d8854481a9c1842acf0121030888863fcb4cdf5b7d33b40e613af35df8f39d576e7972238b0d396cd3fcc3f2feffffff037e7c4706000000001976a91488d924f51033b74a895863a5fb57fd545529df7d88ac0000000000000000166a146f6d6e69000000000000001f00000003781bf50022020000000000001976a914fe3e43b3d4de37689b73b5f6ccb6d41915c01bca88ac12490800", "vin": [{"sequence": 4294967294, "scriptSig": {"hex": "473044022010681968ecc52b090a61127078a72e51b09ab42c23e76d5e3f21f34bac237d6a02206518b21fe2225c48ac29f19733d4231a19aa2d3f034256d8854481a9c1842acf0121030888863fcb4cdf5b7d33b40e613af35df8f39d576e7972238b0d396cd3fcc3f2", "asm": "3044022010681968ecc52b090a61127078a72e51b09ab42c23e76d5e3f21f34bac237d6a02206518b21fe2225c48ac29f19733d4231a19aa2d3f034256d8854481a9c1842acf[ALL] 030888863fcb4cdf5b7d33b40e613af35df8f39d576e7972238b0d396cd3fcc3f2"}, "vout": 0, "txid": "39e74b116e8941a51e53003adb889c7050d081db88fba84c5b2137c193ad5706"}], "txid": "28d2effda9e72b59e2e665512f6770e9dcb907b675baa5b3dfe2bc076e60de78", "blocktime": 1537872475, "version": 1, "confirmations": 11486, "time": 1537872475, "locktime": 542994, "vsize": 256, "size": 256}