{"hash": "28d602bb6e9e938121307c66cb2bb504c98e728b2db07e6495eb10edf68750af", "blockhash": "0000000000000000001f76057863aec43deb6fa401d9628bb513d65a8098bfab", "vout": [{"scriptPubKey": {"reqSigs": 1, "hex": "76a9148f249e0cdfb83a34ddaa7b08aa8832329f6ec58d88ac", "addresses": ["1E3sVepxyD6N7nU6tYrb4F2nJZgYNmuyTc"], "asm": "OP_DUP OP_HASH160 8f249e0cdfb83a34ddaa7b08aa8832329f6ec58d OP_EQUALVERIFY OP_CHECKSIG", "type": "pubkeyhash"}, "value": 0.00055189, "n": 0}, {"scriptPubKey": {"reqSigs": 1, "hex": "76a914fe6707ed662144e97939ef7801c3752d7e501f3f88ac", "addresses": ["1QCA4Sdk5uogh6rGEKZb694XbXdHZH6emE"], "asm": "OP_DUP OP_HASH160 fe6707ed662144e97939ef7801c3752d7e501f3f OP_EQUALVERIFY OP_CHECKSIG", "type": "pubkeyhash"}, "value": 0.0015606, "n": 1}], "hex": "010000000203a16bb0e8c7a3a0983f1adb072ec36c89f9c9b761f3f929e7ba9ccacf7f6f56010000006a473044022024c580e8993c1478f68be1e30efe242527b157f8bc86a58c56e83e7856b2a98002202bd2fe769953a1a357f084fec5cd3396155b2415ad7900b66fa8ece82849f2d501210392ed9d0aed54c716720c3c7355a84c5c7ad5e08588d7bd471d7f6c37dce11211ffffffff94164f90bf102ca080d3fecb122c365cad9269a32f175b6b1c4e31c2a7b6f77f000000006a47304402203559b2b731d30cb6f64b80f037b86a61710f224ae8f03e6462ea8744171db065022041d8c50a4ce62fa13cbfc9041c9862fa3800b4668e50707a9a1416ba67dde97b012103503bdfcced93d6ed22e19d2709bb496ed615b9900706266a08d910aafc6080a3ffffffff0295d70000000000001976a9148f249e0cdfb83a34ddaa7b08aa8832329f6ec58d88ac9c610200000000001976a914fe6707ed662144e97939ef7801c3752d7e501f3f88ac00000000", "vin": [{"sequence": 4294967295, "scriptSig": {"hex": "473044022024c580e8993c1478f68be1e30efe242527b157f8bc86a58c56e83e7856b2a98002202bd2fe769953a1a357f084fec5cd3396155b2415ad7900b66fa8ece82849f2d501210392ed9d0aed54c716720c3c7355a84c5c7ad5e08588d7bd471d7f6c37dce11211", "asm": "3044022024c580e8993c1478f68be1e30efe242527b157f8bc86a58c56e83e7856b2a98002202bd2fe769953a1a357f084fec5cd3396155b2415ad7900b66fa8ece82849f2d5[ALL] 0392ed9d0aed54c716720c3c7355a84c5c7ad5e08588d7bd471d7f6c37dce11211"}, "vout": 1, "txid": "566f7fcfca9cbae729f9f361b7c9f9896cc32e07db1a3f98a0a3c7e8b06ba103"}, {"sequence": 4294967295, "scriptSig": {"hex": "47304402203559b2b731d30cb6f64b80f037b86a61710f224ae8f03e6462ea8744171db065022041d8c50a4ce62fa13cbfc9041c9862fa3800b4668e50707a9a1416ba67dde97b012103503bdfcced93d6ed22e19d2709bb496ed615b9900706266a08d910aafc6080a3", "asm": "304402203559b2b731d30cb6f64b80f037b86a61710f224ae8f03e6462ea8744171db065022041d8c50a4ce62fa13cbfc9041c9862fa3800b4668e50707a9a1416ba67dde97b[ALL] 03503bdfcced93d6ed22e19d2709bb496ed615b9900706266a08d910aafc6080a3"}, "vout": 0, "txid": "7ff7b6a7c2314e1c6b5b172fa36992ad5c362c12cbfed380a02c10bf904f1694"}], "txid": "28d602bb6e9e938121307c66cb2bb504c98e728b2db07e6495eb10edf68750af", "blocktime": 1537873891, "version": 1, "confirmations": 11478, "time": 1537873891, "locktime": 0, "vsize": 372, "size": 372}