{"hash": "28d9753396f824628737cb2626d9b1fcd1e20a536e2c56522105d7a3663f1b7e", "blockhash": "0000000000000000001cda96e906b7601b7a6fb1a3b62bca570a9e5d8f4b3de1", "vout": [{"scriptPubKey": {"reqSigs": 1, "hex": "76a914bf4fedce511886ffa81b486555dcecd6295147ce88ac", "addresses": ["1JSZpCYPLoLXwrNM9cvke1kaQ5a45zvrRw"], "asm": "OP_DUP OP_HASH160 bf4fedce511886ffa81b486555dcecd6295147ce OP_EQUALVERIFY OP_CHECKSIG", "type": "pubkeyhash"}, "value": 0.03499808, "n": 0}], "hex": "010000000154444da410c52852c93d8c120b286396e047991eba2130270ba63bde02070aa9010000006b483045022100e369a14b281c1fa99d5a6ec0ecaa9454198924b1d5a010b0424e5ad1c909175a02200a44d7319e27c33aa6313d8cc869e55dc18bd9ee33346ef0f2ef4557c0be5de1012102a846b8cac21c1dc14013048b082ee1747f13b13465de05facc9e08399df31771fdffffff0120673500000000001976a914bf4fedce511886ffa81b486555dcecd6295147ce88ac13490800", "vin": [{"sequence": 4294967293, "scriptSig": {"hex": "483045022100e369a14b281c1fa99d5a6ec0ecaa9454198924b1d5a010b0424e5ad1c909175a02200a44d7319e27c33aa6313d8cc869e55dc18bd9ee33346ef0f2ef4557c0be5de1012102a846b8cac21c1dc14013048b082ee1747f13b13465de05facc9e08399df31771", "asm": "3045022100e369a14b281c1fa99d5a6ec0ecaa9454198924b1d5a010b0424e5ad1c909175a02200a44d7319e27c33aa6313d8cc869e55dc18bd9ee33346ef0f2ef4557c0be5de1[ALL] 02a846b8cac21c1dc14013048b082ee1747f13b13465de05facc9e08399df31771"}, "vout": 1, "txid": "a90a0702de3ba60b273021ba1e9947e09663280b128c3dc95228c510a44d4454"}], "txid": "28d9753396f824628737cb2626d9b1fcd1e20a536e2c56522105d7a3663f1b7e", "blocktime": 1537873282, "version": 1, "confirmations": 11485, "time": 1537873282, "locktime": 542995, "vsize": 192, "size": 192}