{"hash": "a9937dd28df82d1c0a2fc27ed8540c3613c0f8ed0bebf2bae83f8705e8b9db6b", "blockhash": "0000000000000000000baef3f32e3676a92c3b2e5da21b426e4f302fc371ce76", "vout": [{"scriptPubKey": {"reqSigs": 1, "hex": "a91469f3761a7e02f69108b9fc066289a2fe5570713787", "addresses": ["3BMEXgC6cdBFfyDFAHvgHJVwBkDciKY8Vy"], "asm": "OP_HASH160 69f3761a7e02f69108b9fc066289a2fe55707137 OP_EQUAL", "type": "scripthash"}, "value": 0.0546, "n": 0}, {"scriptPubKey": {"reqSigs": 1, "hex": "76a9148e7f192381215497761becceaa63256e4a98755d88ac", "addresses": ["1DzTDBJDx3ndf9ZSTLmx5Z7wygSpRQCEfc"], "asm": "OP_DUP OP_HASH160 8e7f192381215497761becceaa63256e4a98755d OP_EQUALVERIFY OP_CHECKSIG", "type": "pubkeyhash"}, "value": 3.127, "n": 1}, {"scriptPubKey": {"reqSigs": 1, "hex": "a914041b59f894f25f99444a70bd19ee82579bb915e387", "addresses": ["324jPitjAPTK8WgbziEG5JFf2P3dxr1NEt"], "asm": "OP_HASH160 041b59f894f25f99444a70bd19ee82579bb915e3 OP_EQUAL", "type": "scripthash"}, "value": 7.52883286, "n": 2}, {"scriptPubKey": {"reqSigs": 1, "hex": "a91469f37564e844a8a359cc6df5c7c86908e5353bfb87", "addresses": ["3BMEXV2UPgRyHSevc787FYvc5unrC3smXn"], "asm": "OP_HASH160 69f37564e844a8a359cc6df5c7c86908e5353bfb OP_EQUAL", "type": "scripthash"}, "value": 0.27095845, "n": 3}, {"scriptPubKey": {"reqSigs": 1, "hex": "a91469f373b2022ebb1a0d4ba89fc281cbea24b012c787", "addresses": ["3BMEX2HQH2zM2PrQLJzhHkV7hmgbxfQ7R3"], "asm": "OP_HASH160 69f373b2022ebb1a0d4ba89fc281cbea24b012c7 OP_EQUAL", "type": "scripthash"}, "value": 0.0059, "n": 4}, {"scriptPubKey": {"reqSigs": 1, "hex": "a91469f3753093c4ad1cb17f0caa55ccc354e02929fd87", "addresses": ["3BMEXRoqWyurz4WDgxzmw7m26LkZ2D6cLc"], "asm": "OP_HASH160 69f3753093c4ad1cb17f0caa55ccc354e02929fd OP_EQUAL", "type": "scripthash"}, "value": 0.19984809, "n": 5}, {"scriptPubKey": {"reqSigs": 1, "hex": "a91469f374551b839427a87d676cbffc648c9127581687", "addresses": ["3BMEXCK6XwJCLH62vA8SviUQWJqGpsBrhH"], "asm": "OP_HASH160 69f374551b839427a87d676cbffc648c91275816 OP_EQUAL", "type": "scripthash"}, "value": 0.0242, "n": 6}, {"scriptPubKey": {"reqSigs": 1, "hex": "a914a1d6f9a3822ab2ea33d77f204b7eb4b44119838687", "addresses": ["3GSkFATKsRJBDxPnbXSg6yoEqJEtup3gqG"], "asm": "OP_HASH160 a1d6f9a3822ab2ea33d77f204b7eb4b441198386 OP_EQUAL", "type": "scripthash"}, "value": 1.0752, "n": 7}, {"scriptPubKey": {"reqSigs": 1, "hex": "a9142be5a353e7af11252a3262c1419adb917a3ade4a87", "addresses": ["35h85KXvcw2zs7mKExE5jmf43wP6CTJM7H"], "asm": "OP_HASH160 2be5a353e7af11252a3262c1419adb917a3ade4a OP_EQUAL", "type": "scripthash"}, "value": 0.1376, "n": 8}], "hex": "010000000001019a144545939c392e054dde37f1178e05c0693d463a6ff7d075c4263e9898800b010000002322002039f413b62cf503103df40d8dac5627a77be40b0141c2633c325ca62da16a1570ffffffff09205053000000000017a91469f3761a7e02f69108b9fc066289a2fe5570713787606ca312000000001976a9148e7f192381215497761becceaa63256e4a98755d88ac5616e02c0000000017a914041b59f894f25f99444a70bd19ee82579bb915e38725739d010000000017a91469f37564e844a8a359cc6df5c7c86908e5353bfb87b00009000000000017a91469f373b2022ebb1a0d4ba89fc281cbea24b012c787a9f130010000000017a91469f3753093c4ad1cb17f0caa55ccc354e02929fd8720ed24000000000017a91469f374551b839427a87d676cbffc648c912758168700a068060000000017a914a1d6f9a3822ab2ea33d77f204b7eb4b4411983868700f6d1000000000017a9142be5a353e7af11252a3262c1419adb917a3ade4a8704004730440220551a374bd252d79e34eb574f744ac949b3f6e47098bf752c38060eabf24430d402204a28abfc572aa66a6b5a1b568980b020c9d37e9d86b15e1e18eb6f559c597f7601473044022058c208adb9b814cf28e51e15064c8f44c212721b07344a38fce8d01914b7c3fb0220256d69049f640edf39a68fb223897cb947a756b56ba5c3d1ddb0a44a389207e00169522102f0a7dee70077e8dfb4f13143bc7c717c3d7e7b095442ef2d50dba1fa6117012d210242b7c5e5467e54bd5e102c04d964190bcd775a05281a2c494114ad0f756bfa9e210365b53bd6282e66641b9d34e395fe1bf1b3e5a44ab23d625ad11f551bb1e12b4953ae00000000", "vin": [{"txinwitness": ["", "30440220551a374bd252d79e34eb574f744ac949b3f6e47098bf752c38060eabf24430d402204a28abfc572aa66a6b5a1b568980b020c9d37e9d86b15e1e18eb6f559c597f7601", "3044022058c208adb9b814cf28e51e15064c8f44c212721b07344a38fce8d01914b7c3fb0220256d69049f640edf39a68fb223897cb947a756b56ba5c3d1ddb0a44a389207e001", "522102f0a7dee70077e8dfb4f13143bc7c717c3d7e7b095442ef2d50dba1fa6117012d210242b7c5e5467e54bd5e102c04d964190bcd775a05281a2c494114ad0f756bfa9e210365b53bd6282e66641b9d34e395fe1bf1b3e5a44ab23d625ad11f551bb1e12b4953ae"], "sequence": 4294967295, "scriptSig": {"hex": "22002039f413b62cf503103df40d8dac5627a77be40b0141c2633c325ca62da16a1570", "asm": "002039f413b62cf503103df40d8dac5627a77be40b0141c2633c325ca62da16a1570"}, "vout": 1, "txid": "0b8098983e26c475d0f76f3a463d69c0058e17f137de4d052e399c934545149a"}], "txid": "28da928aa4aa9b9f4a4fc99429dbb0119743b8506fd49cdb8ee30088bf7cf431", "blocktime": 1537876114, "version": 1, "confirmations": 11463, "time": 1537876114, "locktime": 0, "vsize": 440, "size": 630}