{"hash": "bff9d5ee15c2fab629c40ebc68496b11d1bfb79c7f0de38efd31ef675d0f5333", "blockhash": "00000000000000000018f53835495a110e01622372bf6ae95dc86f2b0ab887b0", "vout": [{"scriptPubKey": {"reqSigs": 1, "hex": "a914fef27f12448eb732a880f3107e867dcf34b55fd487", "addresses": ["3Qw44DFVv5BViEoy6pMBpWzSe46PkR1wZG"], "asm": "OP_HASH160 fef27f12448eb732a880f3107e867dcf34b55fd4 OP_EQUAL", "type": "scripthash"}, "value": 0.01003077, "n": 0}, {"scriptPubKey": {"reqSigs": 1, "hex": "a9141351df4715bf9f0327bef33d4b9e6939ad95bf5387", "addresses": ["33TAqmTAgszpkHBoYv8Hdahq8C6cuGpAoK"], "asm": "OP_HASH160 1351df4715bf9f0327bef33d4b9e6939ad95bf53 OP_EQUAL", "type": "scripthash"}, "value": 0.02596147, "n": 1}], "hex": "020000000001041efb236a6cd07409d91ac6274eeeec4d95ed7fba018aeb36617eaeeefc594aba010000001716001443741e87cc2de11db189f454b74c704a9dbf1f4dfeffffff2bd3994b16c0ea16cb340ba702509c46e5fbac032410a330dce82c1105603dd901000000171600145567717a44b7bf6e2b04ea25cbbc4a319093773efeffffffbbe464f83c6bcbce380706226b520be89f35e6ecf7d4ff309e9c4daa61af38700000000017160014eda7720e40a74617f7cfb453aca35e8ebe916fd3feffffffc3dc73726344ac48eb9c37cd52488169f9365d8a511218eba2ab3744a490d12601000000171600140f5150aaefbfdb1c00785f860359772e6f27f666feffffff02454e0f000000000017a914fef27f12448eb732a880f3107e867dcf34b55fd487339d27000000000017a9141351df4715bf9f0327bef33d4b9e6939ad95bf53870247304402204ae048ccdfaba830958c6cded6eccf8a729ef848241560f3fe1a6e4cd8ae3c2902203edf5cafcb049a078cb8b1d4ea1a8cf769a3e0fc461dd2b8a02a04ca14ca4f7c0121037cfbba5d6c61c8555b7876e6f516c0115e9cebee3a4a39f474a90c3ee088fe3502473044022010b689add149c2325067f6748e54a9a4f3b3066a15ca36059e7e1cb68735f570022061691b0a7db1888f257e5eb5b65ebdbaebdbf473c1f5e9716fd49d3a4d7347820121038822999a37bdb03bd21bc57a587d47cd0488d00f5875f783975243ae1303a769024730440220246d0de244d5a3651a9755d43962aaf8cb30193dd0a588bfe0c43b58136c551e022032f6e892843e49eed4ade926ccd9eacdb5df04393bfdac6e0cca3fd4aa4423d501210270fe4cb853da9c23d9bcae52fae95cd3103b161a24cdd1658dc861d8533d63ab02483045022100ff4cd3d1513e8e4ca60c9fad105f236b5c5b5ad15f13350adfefc9fb0db5186e022051ecd724d42b66aa1ee23ffc246195e2e73d5eaae5d57129d61d7f815dd11e0001210323e171e3897b3a02c3d2367548f52375eeab9b038ff10d1f6c6ef5b908174d230e490800", "vin": [{"txinwitness": ["304402204ae048ccdfaba830958c6cded6eccf8a729ef848241560f3fe1a6e4cd8ae3c2902203edf5cafcb049a078cb8b1d4ea1a8cf769a3e0fc461dd2b8a02a04ca14ca4f7c01", "037cfbba5d6c61c8555b7876e6f516c0115e9cebee3a4a39f474a90c3ee088fe35"], "sequence": 4294967294, "scriptSig": {"hex": "16001443741e87cc2de11db189f454b74c704a9dbf1f4d", "asm": "001443741e87cc2de11db189f454b74c704a9dbf1f4d"}, "vout": 1, "txid": "ba4a59fceeae7e6136eb8a01ba7fed954decee4e27c61ad90974d06c6a23fb1e"}, {"txinwitness": ["3044022010b689add149c2325067f6748e54a9a4f3b3066a15ca36059e7e1cb68735f570022061691b0a7db1888f257e5eb5b65ebdbaebdbf473c1f5e9716fd49d3a4d73478201", "038822999a37bdb03bd21bc57a587d47cd0488d00f5875f783975243ae1303a769"], "sequence": 4294967294, "scriptSig": {"hex": "1600145567717a44b7bf6e2b04ea25cbbc4a319093773e", "asm": "00145567717a44b7bf6e2b04ea25cbbc4a319093773e"}, "vout": 1, "txid": "d93d6005112ce8dc30a3102403acfbe5469c5002a70b34cb16eac0164b99d32b"}, {"txinwitness": ["30440220246d0de244d5a3651a9755d43962aaf8cb30193dd0a588bfe0c43b58136c551e022032f6e892843e49eed4ade926ccd9eacdb5df04393bfdac6e0cca3fd4aa4423d501", "0270fe4cb853da9c23d9bcae52fae95cd3103b161a24cdd1658dc861d8533d63ab"], "sequence": 4294967294, "scriptSig": {"hex": "160014eda7720e40a74617f7cfb453aca35e8ebe916fd3", "asm": "0014eda7720e40a74617f7cfb453aca35e8ebe916fd3"}, "vout": 0, "txid": "7038af61aa4d9c9e30ffd4f7ece6359fe80b526b22060738cecb6b3cf864e4bb"}, {"txinwitness": ["3045022100ff4cd3d1513e8e4ca60c9fad105f236b5c5b5ad15f13350adfefc9fb0db5186e022051ecd724d42b66aa1ee23ffc246195e2e73d5eaae5d57129d61d7f815dd11e0001", "0323e171e3897b3a02c3d2367548f52375eeab9b038ff10d1f6c6ef5b908174d23"], "sequence": 4294967294, "scriptSig": {"hex": "1600140f5150aaefbfdb1c00785f860359772e6f27f666", "asm": "00140f5150aaefbfdb1c00785f860359772e6f27f666"}, "vout": 1, "txid": "26d190a44437aba2eb1812518a5d36f969814852cd379ceb48ac44637273dcc3"}], "txid": "28dd00c82a72a88fab8d8a380d6ec3992f91d24905eb8423d490c3610d453c07", "blocktime": 1537870928, "version": 2, "confirmations": 11514, "time": 1537870928, "locktime": 542990, "vsize": 438, "size": 761}