{"hash": "d97c6f5cb22a70552d5206a0a2bcecad101838068871e41d96fdcf902789e83c", "blockhash": "000000000000000000022b45ed06c6f4ccd3cf7fb5ba4856ebd2e58215665228", "vout": [{"scriptPubKey": {"reqSigs": 1, "hex": "a9142086df593300c90208ea1ea0c9f520c55c55e86c87", "addresses": ["34f17nUEdQJQUnc4DHwvRTukYzzpw1STki"], "asm": "OP_HASH160 2086df593300c90208ea1ea0c9f520c55c55e86c OP_EQUAL", "type": "scripthash"}, "value": 0.01872, "n": 0}, {"scriptPubKey": {"reqSigs": 1, "hex": "0014d76a873fd0b2a19316ac6614534912a5c4fafb86", "addresses": ["bc1q6a4gw07sk2sex94vvc29xjgj5hz047uxs7hgww"], "asm": "0 d76a873fd0b2a19316ac6614534912a5c4fafb86", "type": "witness_v0_keyhash"}, "value": 0.00024253, "n": 1}], "hex": "01000000000101b02b3ec83f9974ce70779bb742308c8f45027ded4cd977b478c29fff33cd04340100000000ffffffff0280901c000000000017a9142086df593300c90208ea1ea0c9f520c55c55e86c87bd5e000000000000160014d76a873fd0b2a19316ac6614534912a5c4fafb8602483045022100fed21c9d2171817066a44386b6c8e2c89a446326abd45307f5f00a0e81fbe75c02201ab976dabf8fa51a2d2aea3c31b8daf5c901ee0ceb2d803f26cb0362130edd83012103001bd926fc8c044b417279cb80e8466e0ca8de21ec50d59eb4b6e49c72e8bf5300000000", "vin": [{"txinwitness": ["3045022100fed21c9d2171817066a44386b6c8e2c89a446326abd45307f5f00a0e81fbe75c02201ab976dabf8fa51a2d2aea3c31b8daf5c901ee0ceb2d803f26cb0362130edd8301", "03001bd926fc8c044b417279cb80e8466e0ca8de21ec50d59eb4b6e49c72e8bf53"], "sequence": 4294967295, "scriptSig": {"hex": "", "asm": ""}, "vout": 1, "txid": "3404cd33ff9fc278b477d94ced7d02458f8c3042b79b7770ce74993fc83e2bb0"}], "txid": "28e3ac831f2fd32a8c302bb28e65ff8f91c10c834cced9255bb75124b196ebde", "blocktime": 1537869901, "version": 1, "confirmations": 11523, "time": 1537869901, "locktime": 0, "vsize": 142, "size": 224}