{"hash": "28e5027c359da5e194502a0fa458287ede0a0b82a0d0e98b061eb223b1cb0892", "blockhash": "0000000000000000001f76057863aec43deb6fa401d9628bb513d65a8098bfab", "vout": [{"scriptPubKey": {"type": "nulldata", "hex": "6a4c50000077d90001e2f44b7af8e8e963c7cfd5b95b23cc0f42c2fc38c5e5bf9ae76da98a211a07db48f46fdb9c29dca5443a9ed423bd5baa15920612ad038fbbd7ea4bbf23acfcfaac8058b692fe6808c31d", "asm": "OP_RETURN 000077d90001e2f44b7af8e8e963c7cfd5b95b23cc0f42c2fc38c5e5bf9ae76da98a211a07db48f46fdb9c29dca5443a9ed423bd5baa15920612ad038fbbd7ea4bbf23acfcfaac8058b692fe6808c31d"}, "value": 0.0, "n": 0}, {"scriptPubKey": {"reqSigs": 1, "hex": "76a91437ccb62f92bd300a2aaadf742a12cfcfab57ae8188ac", "addresses": ["1663QAenKYRXjj3MGB9Jukq7Tnz7m5qr1A"], "asm": "OP_DUP OP_HASH160 37ccb62f92bd300a2aaadf742a12cfcfab57ae81 OP_EQUALVERIFY OP_CHECKSIG", "type": "pubkeyhash"}, "value": 9.169e-05, "n": 1}], "hex": "01000000014f3de762eaaddd364a3292b6bc89bb59c771e00ca7577c9fe7a29f63e48ee4b1000000006a473044022014361af74fd54f8f6d603d73958c6147c4528e894e44898d29e5704b18da9deb022070b954d28d63bc75dd6f2aa9244be55475498299f408412cea442826fcdf44c60121026a2863fd06ae58815f545f38b226d4974a59ee804ba863033ae4027ea49ce56dffffffff020000000000000000536a4c50000077d90001e2f44b7af8e8e963c7cfd5b95b23cc0f42c2fc38c5e5bf9ae76da98a211a07db48f46fdb9c29dca5443a9ed423bd5baa15920612ad038fbbd7ea4bbf23acfcfaac8058b692fe6808c31dd1230000000000001976a91437ccb62f92bd300a2aaadf742a12cfcfab57ae8188ac00000000", "vin": [{"sequence": 4294967295, "scriptSig": {"hex": "473044022014361af74fd54f8f6d603d73958c6147c4528e894e44898d29e5704b18da9deb022070b954d28d63bc75dd6f2aa9244be55475498299f408412cea442826fcdf44c60121026a2863fd06ae58815f545f38b226d4974a59ee804ba863033ae4027ea49ce56d", "asm": "3044022014361af74fd54f8f6d603d73958c6147c4528e894e44898d29e5704b18da9deb022070b954d28d63bc75dd6f2aa9244be55475498299f408412cea442826fcdf44c6[ALL] 026a2863fd06ae58815f545f38b226d4974a59ee804ba863033ae4027ea49ce56d"}, "vout": 0, "txid": "b1e48ee4639fa2e79f7c57a70ce071c759bb89bcb692324a36ddadea62e73d4f"}], "txid": "28e5027c359da5e194502a0fa458287ede0a0b82a0d0e98b061eb223b1cb0892", "blocktime": 1537873891, "version": 1, "confirmations": 11478, "time": 1537873891, "locktime": 0, "vsize": 283, "size": 283}