{"hash": "28ede6eb85e25f2e283979e493fc5f50076a31da5ec9b36ac850c66b8f6184ad", "blockhash": "0000000000000000001e0dab787dd257d1dbfcb92a98c2207d5e1078be1f4165", "vout": [{"scriptPubKey": {"type": "nulldata", "hex": "6a146f6d6e69000000000000001f00000915fa66bc00", "asm": "OP_RETURN 6f6d6e69000000000000001f00000915fa66bc00"}, "value": 0.0, "n": 0}, {"scriptPubKey": {"reqSigs": 1, "hex": "76a914a25dec4d0011064ef106a983c39c7a540699f22088ac", "addresses": ["1FoWyxwPXuj4C6abqwhjDWdz6D4PZgYRjA"], "asm": "OP_DUP OP_HASH160 a25dec4d0011064ef106a983c39c7a540699f220 OP_EQUALVERIFY OP_CHECKSIG", "type": "pubkeyhash"}, "value": 5.46e-06, "n": 1}, {"scriptPubKey": {"reqSigs": 1, "hex": "76a91447685f7b72428464980c26a9e5a30d216a3e4f9f88ac", "addresses": ["17Wa1ajPBzHSw6SU2UqdjFPB5ZiuR6wJWD"], "asm": "OP_DUP OP_HASH160 47685f7b72428464980c26a9e5a30d216a3e4f9f OP_EQUALVERIFY OP_CHECKSIG", "type": "pubkeyhash"}, "value": 0.00421026, "n": 2}], "hex": "010000000123fed3e0d0cb9c61f3b008d4f13542ea63eb1b753bd170717483afe3155daa19020000006a47304402207e5267c77562c76d61ea79880b81cc3ee59726a638a78a6d5edea6d902ba563d022009ca527789f2be5cdf237ffe1c21a83fafae16130584d21e2a7493997c09ba3701210281e9917e705fb72c48a0821cb868dc7c891747adbcf7dfdb6010ad078aff28b1feffffff030000000000000000166a146f6d6e69000000000000001f00000915fa66bc0022020000000000001976a914a25dec4d0011064ef106a983c39c7a540699f22088aca26c0600000000001976a91447685f7b72428464980c26a9e5a30d216a3e4f9f88ac12490800", "vin": [{"sequence": 4294967294, "scriptSig": {"hex": "47304402207e5267c77562c76d61ea79880b81cc3ee59726a638a78a6d5edea6d902ba563d022009ca527789f2be5cdf237ffe1c21a83fafae16130584d21e2a7493997c09ba3701210281e9917e705fb72c48a0821cb868dc7c891747adbcf7dfdb6010ad078aff28b1", "asm": "304402207e5267c77562c76d61ea79880b81cc3ee59726a638a78a6d5edea6d902ba563d022009ca527789f2be5cdf237ffe1c21a83fafae16130584d21e2a7493997c09ba37[ALL] 0281e9917e705fb72c48a0821cb868dc7c891747adbcf7dfdb6010ad078aff28b1"}, "vout": 2, "txid": "19aa5d15e3af83747170d13b751beb63ea4235f1d408b0f3619ccbd0e0d3fe23"}], "txid": "28ede6eb85e25f2e283979e493fc5f50076a31da5ec9b36ac850c66b8f6184ad", "blocktime": 1537872475, "version": 1, "confirmations": 11487, "time": 1537872475, "locktime": 542994, "vsize": 256, "size": 256}