{"hash": "28f13678022871784fe4fc36e3e978433a90fbca4ad6fa9df9ce8604c379487f", "blockhash": "0000000000000000000dcc0f55137456b1a82d3642486a52398922ac4d620174", "vout": [{"scriptPubKey": {"reqSigs": 1, "hex": "a91431b654eca21c8d74709b462af08af8bfa148767887", "addresses": ["36DsTaH1Bn7Pzxz9jYT4AjibxuWqRggofb"], "asm": "OP_HASH160 31b654eca21c8d74709b462af08af8bfa1487678 OP_EQUAL", "type": "scripthash"}, "value": 0.0025626, "n": 0}, {"scriptPubKey": {"reqSigs": 1, "hex": "76a914204fcd5bbd7ac2b970bd48d3619462c0f4eb47a688ac", "addresses": ["13wrDthQbHJsUv7VbeiAuJ2c17xHeEAgur"], "asm": "OP_DUP OP_HASH160 204fcd5bbd7ac2b970bd48d3619462c0f4eb47a6 OP_EQUALVERIFY OP_CHECKSIG", "type": "pubkeyhash"}, "value": 0.08255009, "n": 1}], "hex": "01000000015b2939813549456bff661155c0c17002a1ef05ea19259b65f315653577ced329010000006a473044022056a94d5a9df9237a95877be810c9171af10d1a093ffa16a53b317b018f905bc502205690e77e39cacd78bc1ff6be012cb9fa7cc7b9bf66fb35250af5e30254df307a012103b7c933cc35a5633532deb29d16a5a75fc2584416b2534ed183d8ab8da29245ddffffffff0204e903000000000017a91431b654eca21c8d74709b462af08af8bfa14876788721f67d00000000001976a914204fcd5bbd7ac2b970bd48d3619462c0f4eb47a688ac00000000", "vin": [{"sequence": 4294967295, "scriptSig": {"hex": "473044022056a94d5a9df9237a95877be810c9171af10d1a093ffa16a53b317b018f905bc502205690e77e39cacd78bc1ff6be012cb9fa7cc7b9bf66fb35250af5e30254df307a012103b7c933cc35a5633532deb29d16a5a75fc2584416b2534ed183d8ab8da29245dd", "asm": "3044022056a94d5a9df9237a95877be810c9171af10d1a093ffa16a53b317b018f905bc502205690e77e39cacd78bc1ff6be012cb9fa7cc7b9bf66fb35250af5e30254df307a[ALL] 03b7c933cc35a5633532deb29d16a5a75fc2584416b2534ed183d8ab8da29245dd"}, "vout": 1, "txid": "29d3ce77356515f3659b2519ea05efa10270c1c0551166ff6b4549358139295b"}], "txid": "28f13678022871784fe4fc36e3e978433a90fbca4ad6fa9df9ce8604c379487f", "blocktime": 1537870268, "version": 1, "confirmations": 11516, "time": 1537870268, "locktime": 0, "vsize": 223, "size": 223}