{"hash": "05297ea9da0ed7737e9b9ad2a91e8a9922ae4f5f0842b5f224b3aa225f044e93", "blockhash": "0000000000000000001f0ddff1eddb255c1121bcd4da4f1bc9a0da00cae72433", "vout": [{"scriptPubKey": {"reqSigs": 1, "hex": "76a9143b27d9e044afbd85f2a70f24a08094ff344c512a88ac", "addresses": ["16PncDjFtxzHGTx7RB3C3Ldesr7wmSMytP"], "asm": "OP_DUP OP_HASH160 3b27d9e044afbd85f2a70f24a08094ff344c512a OP_EQUALVERIFY OP_CHECKSIG", "type": "pubkeyhash"}, "value": 0.05598082, "n": 0}, {"scriptPubKey": {"reqSigs": 1, "hex": "a914e367521696b6fa9cd450a822f958b6678ee773ca87", "addresses": ["3NRR5w9V6vC7QP2X2T7CtpcrX4ty1viZjV"], "asm": "OP_HASH160 e367521696b6fa9cd450a822f958b6678ee773ca OP_EQUAL", "type": "scripthash"}, "value": 0.8628153, "n": 1}], "hex": "020000000001016810ade64212b125d856483b5773b636c7c654e9212133a4276806a4575b16c6010000001716001460491d9be02ffe4e6b3695ebfd9c5d274f77da7effffffff02826b5500000000001976a9143b27d9e044afbd85f2a70f24a08094ff344c512a88ac3a8d24050000000017a914e367521696b6fa9cd450a822f958b6678ee773ca87024730440220111a33a04bf4c388c8d548004166735adc20f077c1a4a1c7b7fc3340ee168a3e02203970dfc2b85c04c2c568d119e60b0c5cb2652d9fa7ff85969d7593b57dc0845e0121031035115ab7e048ac2c9fd050524b921b0328f57fa5815a950225f5d8d253e90800000000", "vin": [{"txinwitness": ["30440220111a33a04bf4c388c8d548004166735adc20f077c1a4a1c7b7fc3340ee168a3e02203970dfc2b85c04c2c568d119e60b0c5cb2652d9fa7ff85969d7593b57dc0845e01", "031035115ab7e048ac2c9fd050524b921b0328f57fa5815a950225f5d8d253e908"], "sequence": 4294967295, "scriptSig": {"hex": "16001460491d9be02ffe4e6b3695ebfd9c5d274f77da7e", "asm": "001460491d9be02ffe4e6b3695ebfd9c5d274f77da7e"}, "vout": 1, "txid": "c6165b57a4066827a4332121e954c6c736b673573b4856d825b11242e6ad1068"}], "txid": "28f375a941507cc9becb00abdc35af8a7603a5d05f60d5e6763465abac59a290", "blocktime": 1537872018, "version": 2, "confirmations": 11489, "time": 1537872018, "locktime": 0, "vsize": 168, "size": 249}