{"hash": "28f6703bb7726b7a9788c61c283ba1c30aa39eff55436354792ebfccdf51d180", "blockhash": "0000000000000000000dcc0f55137456b1a82d3642486a52398922ac4d620174", "vout": [{"scriptPubKey": {"type": "nulldata", "hex": "6a33020eba32c8f1da7618a6d74d8eab3a00a7706acfa6e7ea1b33374df27c1a18556cd4a0eaa88a5b675dde2b6fd40ef69ea3856a", "asm": "OP_RETURN 020eba32c8f1da7618a6d74d8eab3a00a7706acfa6e7ea1b33374df27c1a18556cd4a0eaa88a5b675dde2b6fd40ef69ea3856a"}, "value": 0.0, "n": 0}, {"scriptPubKey": {"reqSigs": 1, "hex": "76a914aba1c5e2308ad8e22e2a8c02dd73e501abc5da6b88ac", "addresses": ["1GeWLzEto5jqqJwVEGfipgbNA5wfY5giKF"], "asm": "OP_DUP OP_HASH160 aba1c5e2308ad8e22e2a8c02dd73e501abc5da6b OP_EQUALVERIFY OP_CHECKSIG", "type": "pubkeyhash"}, "value": 0.00092829, "n": 1}], "hex": "0100000001cb46b8d3b92833637c11b85fba702bba3571f5f679885d4a627cf9c060add72c010000006b483045022100e407fc3e5120f58f4bb2ccf5e04c49d6d07456e01d6d604baa64007f24394f4e0220414cef64f95c4dda4d0751ae67a4126115bf4dd9c739eb60325296c376ac30a10121022580efc5008d529480fd3e7cd0a990c5749584d8bc9ccc6f4777fed6beb73d08ffffffff020000000000000000356a33020eba32c8f1da7618a6d74d8eab3a00a7706acfa6e7ea1b33374df27c1a18556cd4a0eaa88a5b675dde2b6fd40ef69ea3856a9d6a0100000000001976a914aba1c5e2308ad8e22e2a8c02dd73e501abc5da6b88ac00000000", "vin": [{"sequence": 4294967295, "scriptSig": {"hex": "483045022100e407fc3e5120f58f4bb2ccf5e04c49d6d07456e01d6d604baa64007f24394f4e0220414cef64f95c4dda4d0751ae67a4126115bf4dd9c739eb60325296c376ac30a10121022580efc5008d529480fd3e7cd0a990c5749584d8bc9ccc6f4777fed6beb73d08", "asm": "3045022100e407fc3e5120f58f4bb2ccf5e04c49d6d07456e01d6d604baa64007f24394f4e0220414cef64f95c4dda4d0751ae67a4126115bf4dd9c739eb60325296c376ac30a1[ALL] 022580efc5008d529480fd3e7cd0a990c5749584d8bc9ccc6f4777fed6beb73d08"}, "vout": 1, "txid": "2cd7ad60c0f97c624a5d8879f6f57135ba2b70ba5fb8117c633328b9d3b846cb"}], "txid": "28f6703bb7726b7a9788c61c283ba1c30aa39eff55436354792ebfccdf51d180", "blocktime": 1537870268, "version": 1, "confirmations": 11518, "time": 1537870268, "locktime": 0, "vsize": 254, "size": 254}