{"hash": "28fd44cbc8119185f08a1751199c294ed511ff994895b1d83fe696f9e54e5ff9", "blockhash": "000000000000000000022b45ed06c6f4ccd3cf7fb5ba4856ebd2e58215665228", "vout": [{"scriptPubKey": {"reqSigs": 1, "hex": "76a9146b1be0366e52840c4da38228ff9d63731505a94b88ac", "addresses": ["1AmLhNc9VD9wntnAoVCQzn5U9mT6JmDgHi"], "asm": "OP_DUP OP_HASH160 6b1be0366e52840c4da38228ff9d63731505a94b OP_EQUALVERIFY OP_CHECKSIG", "type": "pubkeyhash"}, "value": 0.00018182, "n": 0}, {"scriptPubKey": {"reqSigs": 1, "hex": "76a9149f610c7b126bcc3315ff4d966b039b7a9cae2b3d88ac", "addresses": ["1FXihZs4GAaoXZV8nM6zmTPGdSwGS6Spfk"], "asm": "OP_DUP OP_HASH160 9f610c7b126bcc3315ff4d966b039b7a9cae2b3d OP_EQUALVERIFY OP_CHECKSIG", "type": "pubkeyhash"}, "value": 0.03278207, "n": 1}], "hex": "010000000750d9677f9bc8a798fff164601aaa1ec58019205b0178626e645143810f48f910000000006b4830450221008ae8f1561030fc8cdf054e15fe9526bc5a5698f29b217bceee4cd5f3e16f738102206e287aa65f04e455929f2147b6b582e0f69090cd03ff6ac36b7bb317a0b7a38301210351a1e978c016d4725b4d1d0ca39ca0fcc866fbfd5c6a52149976253f1b202d5fffffffff311a4ecc48e53ad696dddf1095bbe39ddecabfcc8e038d81569fdc42226c7f34320000006a4730440220432caa024aa40be0a634f5af869a1d08529d9f95fb34762b47c295b1686d13ef02204baff929ee538f7fbd15a390143a8740566fb7bf71fbc87cfd29a8e881884a9b01210351a1e978c016d4725b4d1d0ca39ca0fcc866fbfd5c6a52149976253f1b202d5fffffffff6e36d75a3876c3b4f8b82f6fd4dc850242c38dad1038d5a238420c36c4c94e35000000006a47304402201ec41627f6f4472a990b1b23522d38039bfeb287ba7f7d9f0c4bc9a2d672081a02207d882cc8013847f3d2e1ac33690e6ca1421ae9ed5c42b8e3fe3fd09297b96fe901210351a1e978c016d4725b4d1d0ca39ca0fcc866fbfd5c6a52149976253f1b202d5fffffffff4c2ec46c30f306cc6917585577511c885796caa728af4033d6f4a7f7bd480f48000000006a4730440220561355c48f0b972c91576072d537cfa71d7e1cdb89df2a16b39bb9a474b9264102206934e5c1d547c84528c5074f50c38d64bcc50ac0e48fdda38939a206f1e0388f01210351a1e978c016d4725b4d1d0ca39ca0fcc866fbfd5c6a52149976253f1b202d5fffffffff7f866fe26f9027e92e32a74d1f712455f6826b82de58d23dc1a3b9e4634d9582000000006a473044022032e4c449459eb4f3f64b0a8f8ec07dd0a46b3a4c567f2e02a6f961f89a9a6d4702200a0c4df23c0c4dac1f9a9a22965a58a7482f25eaca1c2ec8990aba8874c1c74a01210351a1e978c016d4725b4d1d0ca39ca0fcc866fbfd5c6a52149976253f1b202d5fffffffff8720c91ffb6724ea26ab50117e75d6dba60052e6c2b2c9c37c51439b87db6db5000000006b483045022100e9344a7b07cda3179532fd38f055dba94bcb3c26ce08cfb89afccf3cdd68946b0220326697b7dd684f8d205f8088cc9d914ff740b8262683134d36ac02e4b1edd2e501210351a1e978c016d4725b4d1d0ca39ca0fcc866fbfd5c6a52149976253f1b202d5fffffffffaa902fc63a5b823a005e55a39ce062072b342649ca720e194c3b3d72777b98f0000000006a47304402200226b23430913f1985a3cf3caa0730eb8e52d97488163d6fe3e44be1a2e614cd022035f467a9aef91547931b9609d74592a8f6fe83f1332246f84b9e7f8c9e6f82e401210351a1e978c016d4725b4d1d0ca39ca0fcc866fbfd5c6a52149976253f1b202d5fffffffff0206470000000000001976a9146b1be0366e52840c4da38228ff9d63731505a94b88ac7f053200000000001976a9149f610c7b126bcc3315ff4d966b039b7a9cae2b3d88ac00000000", "vin": [{"sequence": 4294967295, "scriptSig": {"hex": "4830450221008ae8f1561030fc8cdf054e15fe9526bc5a5698f29b217bceee4cd5f3e16f738102206e287aa65f04e455929f2147b6b582e0f69090cd03ff6ac36b7bb317a0b7a38301210351a1e978c016d4725b4d1d0ca39ca0fcc866fbfd5c6a52149976253f1b202d5f", "asm": "30450221008ae8f1561030fc8cdf054e15fe9526bc5a5698f29b217bceee4cd5f3e16f738102206e287aa65f04e455929f2147b6b582e0f69090cd03ff6ac36b7bb317a0b7a383[ALL] 0351a1e978c016d4725b4d1d0ca39ca0fcc866fbfd5c6a52149976253f1b202d5f"}, "vout": 0, "txid": "10f9480f814351646e6278015b201980c51eaa1a6064f1ff98a7c89b7f67d950"}, {"sequence": 4294967295, "scriptSig": {"hex": "4730440220432caa024aa40be0a634f5af869a1d08529d9f95fb34762b47c295b1686d13ef02204baff929ee538f7fbd15a390143a8740566fb7bf71fbc87cfd29a8e881884a9b01210351a1e978c016d4725b4d1d0ca39ca0fcc866fbfd5c6a52149976253f1b202d5f", "asm": "30440220432caa024aa40be0a634f5af869a1d08529d9f95fb34762b47c295b1686d13ef02204baff929ee538f7fbd15a390143a8740566fb7bf71fbc87cfd29a8e881884a9b[ALL] 0351a1e978c016d4725b4d1d0ca39ca0fcc866fbfd5c6a52149976253f1b202d5f"}, "vout": 50, "txid": "347f6c2242dc9f56818d038eccbfcade9de3bb9510dfdd96d63ae548cc4e1a31"}, {"sequence": 4294967295, "scriptSig": {"hex": "47304402201ec41627f6f4472a990b1b23522d38039bfeb287ba7f7d9f0c4bc9a2d672081a02207d882cc8013847f3d2e1ac33690e6ca1421ae9ed5c42b8e3fe3fd09297b96fe901210351a1e978c016d4725b4d1d0ca39ca0fcc866fbfd5c6a52149976253f1b202d5f", "asm": "304402201ec41627f6f4472a990b1b23522d38039bfeb287ba7f7d9f0c4bc9a2d672081a02207d882cc8013847f3d2e1ac33690e6ca1421ae9ed5c42b8e3fe3fd09297b96fe9[ALL] 0351a1e978c016d4725b4d1d0ca39ca0fcc866fbfd5c6a52149976253f1b202d5f"}, "vout": 0, "txid": "354ec9c4360c4238a2d53810ad8dc3420285dcd46f2fb8f8b4c376385ad7366e"}, {"sequence": 4294967295, "scriptSig": {"hex": "4730440220561355c48f0b972c91576072d537cfa71d7e1cdb89df2a16b39bb9a474b9264102206934e5c1d547c84528c5074f50c38d64bcc50ac0e48fdda38939a206f1e0388f01210351a1e978c016d4725b4d1d0ca39ca0fcc866fbfd5c6a52149976253f1b202d5f", "asm": "30440220561355c48f0b972c91576072d537cfa71d7e1cdb89df2a16b39bb9a474b9264102206934e5c1d547c84528c5074f50c38d64bcc50ac0e48fdda38939a206f1e0388f[ALL] 0351a1e978c016d4725b4d1d0ca39ca0fcc866fbfd5c6a52149976253f1b202d5f"}, "vout": 0, "txid": "480f48bdf7a7f4d63340af28a7ca9657881c517755581769cc06f3306cc42e4c"}, {"sequence": 4294967295, "scriptSig": {"hex": "473044022032e4c449459eb4f3f64b0a8f8ec07dd0a46b3a4c567f2e02a6f961f89a9a6d4702200a0c4df23c0c4dac1f9a9a22965a58a7482f25eaca1c2ec8990aba8874c1c74a01210351a1e978c016d4725b4d1d0ca39ca0fcc866fbfd5c6a52149976253f1b202d5f", "asm": "3044022032e4c449459eb4f3f64b0a8f8ec07dd0a46b3a4c567f2e02a6f961f89a9a6d4702200a0c4df23c0c4dac1f9a9a22965a58a7482f25eaca1c2ec8990aba8874c1c74a[ALL] 0351a1e978c016d4725b4d1d0ca39ca0fcc866fbfd5c6a52149976253f1b202d5f"}, "vout": 0, "txid": "82954d63e4b9a3c13dd258de826b82f65524711f4da7322ee927906fe26f867f"}, {"sequence": 4294967295, "scriptSig": {"hex": "483045022100e9344a7b07cda3179532fd38f055dba94bcb3c26ce08cfb89afccf3cdd68946b0220326697b7dd684f8d205f8088cc9d914ff740b8262683134d36ac02e4b1edd2e501210351a1e978c016d4725b4d1d0ca39ca0fcc866fbfd5c6a52149976253f1b202d5f", "asm": "3045022100e9344a7b07cda3179532fd38f055dba94bcb3c26ce08cfb89afccf3cdd68946b0220326697b7dd684f8d205f8088cc9d914ff740b8262683134d36ac02e4b1edd2e5[ALL] 0351a1e978c016d4725b4d1d0ca39ca0fcc866fbfd5c6a52149976253f1b202d5f"}, "vout": 0, "txid": "b56ddb879b43517cc3c9b2c2e65200a6dbd6757e1150ab26ea2467fb1fc92087"}, {"sequence": 4294967295, "scriptSig": {"hex": "47304402200226b23430913f1985a3cf3caa0730eb8e52d97488163d6fe3e44be1a2e614cd022035f467a9aef91547931b9609d74592a8f6fe83f1332246f84b9e7f8c9e6f82e401210351a1e978c016d4725b4d1d0ca39ca0fcc866fbfd5c6a52149976253f1b202d5f", "asm": "304402200226b23430913f1985a3cf3caa0730eb8e52d97488163d6fe3e44be1a2e614cd022035f467a9aef91547931b9609d74592a8f6fe83f1332246f84b9e7f8c9e6f82e4[ALL] 0351a1e978c016d4725b4d1d0ca39ca0fcc866fbfd5c6a52149976253f1b202d5f"}, "vout": 0, "txid": "f0987b77723d3b4c190e72ca4926342b0762e09ca3555e003a825b3ac62f90aa"}], "txid": "28fd44cbc8119185f08a1751199c294ed511ff994895b1d83fe696f9e54e5ff9", "blocktime": 1537869901, "version": 1, "confirmations": 11524, "time": 1537869901, "locktime": 0, "vsize": 1109, "size": 1109}