{"hash": "29158ade71af4e955b419dd837e080e2a908d08963d1bb4d55be5ae3df8414f4", "blockhash": "0000000000000000001f76057863aec43deb6fa401d9628bb513d65a8098bfab", "vout": [{"scriptPubKey": {"reqSigs": 1, "hex": "a91409f0aaa4626962036f9daa291596917afdca66d387", "addresses": ["32baK5QLhGm5gCLvaViJTxLZ89MrYdaN2Q"], "asm": "OP_HASH160 09f0aaa4626962036f9daa291596917afdca66d3 OP_EQUAL", "type": "scripthash"}, "value": 0.08712129, "n": 0}], "hex": "0100000004833a7d5f91fc3343cffcf2c2e80724453ad28014371961493f17cccd4c369236000000006b4830450221008c1f4b02595ab9f09f301aada4b086d6e96709fa319578d1975a2e3e7d1519fe02207be307f00ce9b4bb53710cf2410a0e3ac7ae28fee3cac75030cac9516e5aae9d0121027aa5ce947912489aa2d4dda4ed35be2ebe5a190072e524e3105c8a9c5c092129ffffffffa63825cfce90c8e580112f0ee86fd7b63577e274926deb13e9cff07208708b43000000006a4730440220624802e46002bf3524ceb9b6d08bc809a850abf3e0b230d4631239a161b249bb022018c7fd459ecf961756e09c19271c96e8d6195f43911aecfa8fb6b1a78e40f18a0121022cfa9c6a03bfd572be8dbe025d8c867839b6f2b24f8dc2d0c9a9a4a4d403275fffffffff178913a0842b36edd972010fac8c527d95a44231c520d7d84b132c98256c7ec6000000006b483045022100cc09a0671db24d99a1444f96225cdaa5e2738729df16fcdb9e1e3a6d8f9336eb022043f009b7444a172989a8fb0d945b37356045ed928d9eb47e2412b62d21a485520121027aa5ce947912489aa2d4dda4ed35be2ebe5a190072e524e3105c8a9c5c092129ffffffff31420caa54cce62f1f1d897d24a830fa664162d86c40cfe686c16088989a05c7000000006b483045022100ed548d0c9c561c4797921ab46bf8da55e82ec16c3703a1a6c8965f8b546d492b02202ee077812ffc709d292baf0edac7b9121acafb6d236788ac816786678bc897670121027aa5ce947912489aa2d4dda4ed35be2ebe5a190072e524e3105c8a9c5c092129ffffffff01c1ef84000000000017a91409f0aaa4626962036f9daa291596917afdca66d38700000000", "vin": [{"sequence": 4294967295, "scriptSig": {"hex": "4830450221008c1f4b02595ab9f09f301aada4b086d6e96709fa319578d1975a2e3e7d1519fe02207be307f00ce9b4bb53710cf2410a0e3ac7ae28fee3cac75030cac9516e5aae9d0121027aa5ce947912489aa2d4dda4ed35be2ebe5a190072e524e3105c8a9c5c092129", "asm": "30450221008c1f4b02595ab9f09f301aada4b086d6e96709fa319578d1975a2e3e7d1519fe02207be307f00ce9b4bb53710cf2410a0e3ac7ae28fee3cac75030cac9516e5aae9d[ALL] 027aa5ce947912489aa2d4dda4ed35be2ebe5a190072e524e3105c8a9c5c092129"}, "vout": 0, "txid": "3692364ccdcc173f496119371480d23a452407e8c2f2fccf4333fc915f7d3a83"}, {"sequence": 4294967295, "scriptSig": {"hex": "4730440220624802e46002bf3524ceb9b6d08bc809a850abf3e0b230d4631239a161b249bb022018c7fd459ecf961756e09c19271c96e8d6195f43911aecfa8fb6b1a78e40f18a0121022cfa9c6a03bfd572be8dbe025d8c867839b6f2b24f8dc2d0c9a9a4a4d403275f", "asm": "30440220624802e46002bf3524ceb9b6d08bc809a850abf3e0b230d4631239a161b249bb022018c7fd459ecf961756e09c19271c96e8d6195f43911aecfa8fb6b1a78e40f18a[ALL] 022cfa9c6a03bfd572be8dbe025d8c867839b6f2b24f8dc2d0c9a9a4a4d403275f"}, "vout": 0, "txid": "438b700872f0cfe913eb6d9274e27735b6d76fe80e2f1180e5c890cecf2538a6"}, {"sequence": 4294967295, "scriptSig": {"hex": "483045022100cc09a0671db24d99a1444f96225cdaa5e2738729df16fcdb9e1e3a6d8f9336eb022043f009b7444a172989a8fb0d945b37356045ed928d9eb47e2412b62d21a485520121027aa5ce947912489aa2d4dda4ed35be2ebe5a190072e524e3105c8a9c5c092129", "asm": "3045022100cc09a0671db24d99a1444f96225cdaa5e2738729df16fcdb9e1e3a6d8f9336eb022043f009b7444a172989a8fb0d945b37356045ed928d9eb47e2412b62d21a48552[ALL] 027aa5ce947912489aa2d4dda4ed35be2ebe5a190072e524e3105c8a9c5c092129"}, "vout": 0, "txid": "c67e6c25982c134bd8d720c53142a4957d528cac0f0172d9ed362b84a0138917"}, {"sequence": 4294967295, "scriptSig": {"hex": "483045022100ed548d0c9c561c4797921ab46bf8da55e82ec16c3703a1a6c8965f8b546d492b02202ee077812ffc709d292baf0edac7b9121acafb6d236788ac816786678bc897670121027aa5ce947912489aa2d4dda4ed35be2ebe5a190072e524e3105c8a9c5c092129", "asm": "3045022100ed548d0c9c561c4797921ab46bf8da55e82ec16c3703a1a6c8965f8b546d492b02202ee077812ffc709d292baf0edac7b9121acafb6d236788ac816786678bc89767[ALL] 027aa5ce947912489aa2d4dda4ed35be2ebe5a190072e524e3105c8a9c5c092129"}, "vout": 0, "txid": "c7059a988860c186e6cf406cd8624166fa30a8247d891d1f2fe6cc54aa0c4231"}], "txid": "29158ade71af4e955b419dd837e080e2a908d08963d1bb4d55be5ae3df8414f4", "blocktime": 1537873891, "version": 1, "confirmations": 11478, "time": 1537873891, "locktime": 0, "vsize": 633, "size": 633}