{"hash": "291b43171c6ff382c569a4ddd3abeb3355fc6814381cd71c2c0ae1ccf8fe104a", "blockhash": "0000000000000000001f76057863aec43deb6fa401d9628bb513d65a8098bfab", "vout": [{"scriptPubKey": {"reqSigs": 1, "hex": "76a914800b0d9840b5ccc19b431792096b691fd5a2deb988ac", "addresses": ["1Cg2jYAzjiZ8gUh6CTT3exkdEJ5EWC4Yg6"], "asm": "OP_DUP OP_HASH160 800b0d9840b5ccc19b431792096b691fd5a2deb9 OP_EQUALVERIFY OP_CHECKSIG", "type": "pubkeyhash"}, "value": 0.014715, "n": 0}, {"scriptPubKey": {"type": "nulldata", "hex": "6a4c50000077e80001912da39f4f4c673455843b127af8e8e963c7cfd5b95b23cc0f42c2fc38c569abffa9752e2910119b4c67613794bd5baa177f0612a102324977dfbc9a9526289ac0f6612cd74e33776ee4", "asm": "OP_RETURN 000077e80001912da39f4f4c673455843b127af8e8e963c7cfd5b95b23cc0f42c2fc38c569abffa9752e2910119b4c67613794bd5baa177f0612a102324977dfbc9a9526289ac0f6612cd74e33776ee4"}, "value": 0.0, "n": 1}], "hex": "0100000001414e0d317dc85e33be7d09835a817ec61636f03367c3f70931175811895c60de010000006a4730440220394fed5da1abb17a8cc091773c3fe4481310557c418feaa156bbe63a4176c9ef02204a955b0c789a636904002ea6dfa5460d1b7063f5f13522c5b821caa2adccf0d10121022f17ad036caf655cc451e8389a26d9ba1cbc751cb75054e5f6da3634df74a29cffffffff020c741600000000001976a914800b0d9840b5ccc19b431792096b691fd5a2deb988ac0000000000000000536a4c50000077e80001912da39f4f4c673455843b127af8e8e963c7cfd5b95b23cc0f42c2fc38c569abffa9752e2910119b4c67613794bd5baa177f0612a102324977dfbc9a9526289ac0f6612cd74e33776ee400000000", "vin": [{"sequence": 4294967295, "scriptSig": {"hex": "4730440220394fed5da1abb17a8cc091773c3fe4481310557c418feaa156bbe63a4176c9ef02204a955b0c789a636904002ea6dfa5460d1b7063f5f13522c5b821caa2adccf0d10121022f17ad036caf655cc451e8389a26d9ba1cbc751cb75054e5f6da3634df74a29c", "asm": "30440220394fed5da1abb17a8cc091773c3fe4481310557c418feaa156bbe63a4176c9ef02204a955b0c789a636904002ea6dfa5460d1b7063f5f13522c5b821caa2adccf0d1[ALL] 022f17ad036caf655cc451e8389a26d9ba1cbc751cb75054e5f6da3634df74a29c"}, "vout": 1, "txid": "de605c891158173109f7c36733f03616c67e815a83097dbe335ec87d310d4e41"}], "txid": "291b43171c6ff382c569a4ddd3abeb3355fc6814381cd71c2c0ae1ccf8fe104a", "blocktime": 1537873891, "version": 1, "confirmations": 11478, "time": 1537873891, "locktime": 0, "vsize": 283, "size": 283}