{"hash": "2924206cf5def96baf70edc91047fbdb6b321eb0ef6a94bfd09ae4d4d5e50d13", "blockhash": "00000000000000000004ffacab907a6b429b9a5745fa0b75af4234bf69dd7176", "vout": [{"scriptPubKey": {"reqSigs": 1, "hex": "76a9143c3bc889185b30ffa3d9b7169200eadb68eb684a88ac", "addresses": ["16VVAL6a6PS8JY4xksAa2qMyGmqqUBMWnP"], "asm": "OP_DUP OP_HASH160 3c3bc889185b30ffa3d9b7169200eadb68eb684a OP_EQUALVERIFY OP_CHECKSIG", "type": "pubkeyhash"}, "value": 0.0095, "n": 0}], "hex": "0100000001451cc8d4d7f96c496b0ef78f9bc145fd1de646274bfcfdf1ea65d32f55df32dd000000006a4730440220080fdba63d93cbdbb7476bb98262151014c6a07a016d159af779beca660e62a6022076f82cee71ff3f659fa2b8fb388e6b094c80b6edd57a2cafd1c7db9fa6b0932f01210248698e9b224d4d78a38b5bf6c7bbb702f4908b1abad08ab651b4e8d12a24755affffffff01f07e0e00000000001976a9143c3bc889185b30ffa3d9b7169200eadb68eb684a88ac00000000", "vin": [{"sequence": 4294967295, "scriptSig": {"hex": "4730440220080fdba63d93cbdbb7476bb98262151014c6a07a016d159af779beca660e62a6022076f82cee71ff3f659fa2b8fb388e6b094c80b6edd57a2cafd1c7db9fa6b0932f01210248698e9b224d4d78a38b5bf6c7bbb702f4908b1abad08ab651b4e8d12a24755a", "asm": "30440220080fdba63d93cbdbb7476bb98262151014c6a07a016d159af779beca660e62a6022076f82cee71ff3f659fa2b8fb388e6b094c80b6edd57a2cafd1c7db9fa6b0932f[ALL] 0248698e9b224d4d78a38b5bf6c7bbb702f4908b1abad08ab651b4e8d12a24755a"}, "vout": 0, "txid": "dd32df552fd365eaf1fdfc4b2746e61dfd45c19b8ff70e6b496cf9d7d4c81c45"}], "txid": "2924206cf5def96baf70edc91047fbdb6b321eb0ef6a94bfd09ae4d4d5e50d13", "blocktime": 1537875543, "version": 1, "confirmations": 11464, "time": 1537875543, "locktime": 0, "vsize": 191, "size": 191}