{"hash": "9b190b766951b516d93b0d45b4c02e9b03dc0313a7906b44b251035319305396", "blockhash": "0000000000000000001f76057863aec43deb6fa401d9628bb513d65a8098bfab", "vout": [{"scriptPubKey": {"reqSigs": 1, "hex": "00142b12707ccf31a84634cd6d294256e91d48b24176", "addresses": ["bc1q9vf8qlx0xx5yvdxdd555y4hfr4ytystk2rp4av"], "asm": "0 2b12707ccf31a84634cd6d294256e91d48b24176", "type": "witness_v0_keyhash"}, "value": 0.08273534, "n": 0}, {"scriptPubKey": {"reqSigs": 1, "hex": "76a914d09da4cabb83aa95da44172ca03a3f592d6d11fa88ac", "addresses": ["1L24QBLqGG5yMC9FUwLaa7yNpUazts3Ft6"], "asm": "OP_DUP OP_HASH160 d09da4cabb83aa95da44172ca03a3f592d6d11fa OP_EQUALVERIFY OP_CHECKSIG", "type": "pubkeyhash"}, "value": 0.0628908, "n": 1}], "hex": "0100000000010138269e551fb67c152284cc37da521d97ec4b3854e960847afbd5dd1baf9c50930100000000ffffffff027e3e7e00000000001600142b12707ccf31a84634cd6d294256e91d48b24176b8f65f00000000001976a914d09da4cabb83aa95da44172ca03a3f592d6d11fa88ac0247304402206c2fa643e320e1c975b7cd1bb9e4458368c8ea7b4004128d311b819a38fdb49b0220657026405bb650719f793f6f264a8aad81032c58616d7948093cbca3d9f55300012103f5b9795e1da00091b50c3d47854bba1217f4662bc53197241894e6acd1b75da500000000", "vin": [{"txinwitness": ["304402206c2fa643e320e1c975b7cd1bb9e4458368c8ea7b4004128d311b819a38fdb49b0220657026405bb650719f793f6f264a8aad81032c58616d7948093cbca3d9f5530001", "03f5b9795e1da00091b50c3d47854bba1217f4662bc53197241894e6acd1b75da5"], "sequence": 4294967295, "scriptSig": {"hex": "", "asm": ""}, "vout": 1, "txid": "93509caf1bddd5fb7a8460e954384bec971d52da37cc8422157cb61f559e2638"}], "txid": "292728b2070205c623b4f0298a1eafca75a019b4d53122f8cd8912a6c7e086fd", "blocktime": 1537873891, "version": 1, "confirmations": 11478, "time": 1537873891, "locktime": 0, "vsize": 144, "size": 225}