{"hash": "292853b1261305b37f9a428b8777c1176933b1f7f9a1a8e97845918feb4f4070", "blockhash": "00000000000000000004ffacab907a6b429b9a5745fa0b75af4234bf69dd7176", "vout": [{"scriptPubKey": {"reqSigs": 1, "hex": "a914290f7679922b63272d73b1f58761cb5166c3628d87", "addresses": ["35S89nLT912MNzBhN4Z8RLjPA5MCA1i2KR"], "asm": "OP_HASH160 290f7679922b63272d73b1f58761cb5166c3628d OP_EQUAL", "type": "scripthash"}, "value": 0.0046968, "n": 0}, {"scriptPubKey": {"reqSigs": 1, "hex": "76a914e978a408673b4c4a7ea317b5ac61ee0cc22d523188ac", "addresses": ["1NHUxxrSY9ymygVKZ5h9q2ZbZi2Kaes98q"], "asm": "OP_DUP OP_HASH160 e978a408673b4c4a7ea317b5ac61ee0cc22d5231 OP_EQUALVERIFY OP_CHECKSIG", "type": "pubkeyhash"}, "value": 0.01142619, "n": 1}], "hex": "0100000001a57eee55f64bb482a1d44e3d5e421b94085dd9670bf29cf93994fbf37cf7d056010000006a47304402203290cbfed53a396f2badba02ec7290ca105bdb77db7ebc30e6efb9edfe14a0a602201855685b61f1947836378cfb2c78f41445d877c084533ee5f8bbfa588d4ca99c012102d3b3073673d31819bf54a8aefdd6e8b8c085ec75eff25177d87135c8ce6cb25fffffffff02b02a07000000000017a914290f7679922b63272d73b1f58761cb5166c3628d875b6f1100000000001976a914e978a408673b4c4a7ea317b5ac61ee0cc22d523188ac00000000", "vin": [{"sequence": 4294967295, "scriptSig": {"hex": "47304402203290cbfed53a396f2badba02ec7290ca105bdb77db7ebc30e6efb9edfe14a0a602201855685b61f1947836378cfb2c78f41445d877c084533ee5f8bbfa588d4ca99c012102d3b3073673d31819bf54a8aefdd6e8b8c085ec75eff25177d87135c8ce6cb25f", "asm": "304402203290cbfed53a396f2badba02ec7290ca105bdb77db7ebc30e6efb9edfe14a0a602201855685b61f1947836378cfb2c78f41445d877c084533ee5f8bbfa588d4ca99c[ALL] 02d3b3073673d31819bf54a8aefdd6e8b8c085ec75eff25177d87135c8ce6cb25f"}, "vout": 1, "txid": "56d0f77cf3fb9439f99cf20b67d95d08941b425e3d4ed4a182b44bf655ee7ea5"}], "txid": "292853b1261305b37f9a428b8777c1176933b1f7f9a1a8e97845918feb4f4070", "blocktime": 1537875543, "version": 1, "confirmations": 11464, "time": 1537875543, "locktime": 0, "vsize": 223, "size": 223}