{"hash": "292c19b215342dfdd207f9ac424991d5bf0d46043da475ac0e37ce8470260368", "blockhash": "00000000000000000018f53835495a110e01622372bf6ae95dc86f2b0ab887b0", "vout": [{"scriptPubKey": {"reqSigs": 1, "hex": "a914643e8d53bc9f16c95aaea5c9df17e78bf1e51ac687", "addresses": ["3Aq4RvKHsq63KRm1nJa993qWxBwv4kjkZM"], "asm": "OP_HASH160 643e8d53bc9f16c95aaea5c9df17e78bf1e51ac6 OP_EQUAL", "type": "scripthash"}, "value": 0.0347497, "n": 0}, {"scriptPubKey": {"reqSigs": 1, "hex": "a9146d7dfa5cbcf99f62c2a80d4f5c2f9518953f5bdd87", "addresses": ["3BfxVZEfgFC2C6SChvAwgt14rpEdSPoRCg"], "asm": "OP_HASH160 6d7dfa5cbcf99f62c2a80d4f5c2f9518953f5bdd OP_EQUAL", "type": "scripthash"}, "value": 0.01655785, "n": 1}, {"scriptPubKey": {"reqSigs": 1, "hex": "76a9147810abfefdfd3ac5fd8bf53c89e71892a4676bef88ac", "addresses": ["1Bwr4QFAzNPuQhjY6TBRHVHZtS5E6svwJo"], "asm": "OP_DUP OP_HASH160 7810abfefdfd3ac5fd8bf53c89e71892a4676bef OP_EQUALVERIFY OP_CHECKSIG", "type": "pubkeyhash"}, "value": 0.00056113, "n": 2}], "hex": "01000000019cbae33e3c6cc7f372d388cd592af05391169ddfa0fe3c31a7a05e3781b166d400000000db004830450221008d88d0fdd30d30e4c01e11244424bad392374207ff345fd877616c61892d4b2a02204a5711640d445556aba0e0d265a49b97daae2026fbf3c130acd34e85b2c244f901483045022100f7f0bef85b0b693f5486ffa96527b2302a7c2309b12682c864d1b8652361f3e1022050bcf947b1f533fbca23f9a6dd79652df3fa4a9f3d6e0777f16845703d4d586e01475221028eee95a1d5f6990f2c638958aaf4dbbf995405837a24140ba51e66db6fa1c0792102907a54bed8ad74b3f35638c60114ca240a308cb986f3f2f306178869a8880b6152aeffffffff031a0635000000000017a914643e8d53bc9f16c95aaea5c9df17e78bf1e51ac687e94319000000000017a9146d7dfa5cbcf99f62c2a80d4f5c2f9518953f5bdd8731db0000000000001976a9147810abfefdfd3ac5fd8bf53c89e71892a4676bef88ac00000000", "vin": [{"sequence": 4294967295, "scriptSig": {"hex": "004830450221008d88d0fdd30d30e4c01e11244424bad392374207ff345fd877616c61892d4b2a02204a5711640d445556aba0e0d265a49b97daae2026fbf3c130acd34e85b2c244f901483045022100f7f0bef85b0b693f5486ffa96527b2302a7c2309b12682c864d1b8652361f3e1022050bcf947b1f533fbca23f9a6dd79652df3fa4a9f3d6e0777f16845703d4d586e01475221028eee95a1d5f6990f2c638958aaf4dbbf995405837a24140ba51e66db6fa1c0792102907a54bed8ad74b3f35638c60114ca240a308cb986f3f2f306178869a8880b6152ae", "asm": "0 30450221008d88d0fdd30d30e4c01e11244424bad392374207ff345fd877616c61892d4b2a02204a5711640d445556aba0e0d265a49b97daae2026fbf3c130acd34e85b2c244f9[ALL] 3045022100f7f0bef85b0b693f5486ffa96527b2302a7c2309b12682c864d1b8652361f3e1022050bcf947b1f533fbca23f9a6dd79652df3fa4a9f3d6e0777f16845703d4d586e[ALL] 5221028eee95a1d5f6990f2c638958aaf4dbbf995405837a24140ba51e66db6fa1c0792102907a54bed8ad74b3f35638c60114ca240a308cb986f3f2f306178869a8880b6152ae"}, "vout": 0, "txid": "d466b181375ea0a7313cfea0df9d169153f02a59cd88d372f3c76c3c3ee3ba9c"}], "txid": "292c19b215342dfdd207f9ac424991d5bf0d46043da475ac0e37ce8470260368", "blocktime": 1537870928, "version": 1, "confirmations": 11512, "time": 1537870928, "locktime": 0, "vsize": 368, "size": 368}