{"hash": "e58a6a6f4e3c808b0456a2029fc3b9995be268e62d6540af5948abbd52b82f92", "blockhash": "0000000000000000000baef3f32e3676a92c3b2e5da21b426e4f302fc371ce76", "vout": [{"scriptPubKey": {"reqSigs": 1, "hex": "00142bffdadd0eaa97a48cabd6700ca14defa29becdd", "addresses": ["bc1q90la4hgw42t6fr9t6ecqeg2da73fhmxawfjews"], "asm": "0 2bffdadd0eaa97a48cabd6700ca14defa29becdd", "type": "witness_v0_keyhash"}, "value": 6.15e-05, "n": 0}, {"scriptPubKey": {"reqSigs": 1, "hex": "a9141d7370ccde4590204155e4074f69743a8e4fac0287", "addresses": ["34Njp4ZKtmCDfqqps26wHBYQQGUo2pGkLi"], "asm": "OP_HASH160 1d7370ccde4590204155e4074f69743a8e4fac02 OP_EQUAL", "type": "scripthash"}, "value": 0.00033218, "n": 1}], "hex": "01000000000101c45b83944efb2afe7d77653bb48f3c0ec2bdeb2520d1e904ebd87647f5e45c4b0100000023220020f63dfc12340f6360d0251c22746d6b56093e3243e96ca012a65484a5d9cf0ec0ffffffff0206180000000000001600142bffdadd0eaa97a48cabd6700ca14defa29becddc28100000000000017a9141d7370ccde4590204155e4074f69743a8e4fac0287040047304402202600a922b8e24ce40ffdbb0ab456600e390508a81c1eb8c646f7973f7ece97a702206b7e2752454c72d4f4ddb549f023e52891ace2db877e8724d18b15e504eec3e501473044022018774bf8da733d3ffeb1b8caa600ca2f81dbe3b0afe2fa40568590b220b71fad02200dc94fed626c4dda2d415a74650fa122f16b8c15dd39a145d63b235a76b290400147522102097067a6a0cc130a9a6f6577b47bf369b840a79de31cd7457187994266b1bb7c2103338f346cab6ba87fe940591a03ac234be06520c5ab386d4b6632e8eef0d0db7652ae00000000", "vin": [{"txinwitness": ["", "304402202600a922b8e24ce40ffdbb0ab456600e390508a81c1eb8c646f7973f7ece97a702206b7e2752454c72d4f4ddb549f023e52891ace2db877e8724d18b15e504eec3e501", "3044022018774bf8da733d3ffeb1b8caa600ca2f81dbe3b0afe2fa40568590b220b71fad02200dc94fed626c4dda2d415a74650fa122f16b8c15dd39a145d63b235a76b2904001", "522102097067a6a0cc130a9a6f6577b47bf369b840a79de31cd7457187994266b1bb7c2103338f346cab6ba87fe940591a03ac234be06520c5ab386d4b6632e8eef0d0db7652ae"], "sequence": 4294967295, "scriptSig": {"hex": "220020f63dfc12340f6360d0251c22746d6b56093e3243e96ca012a65484a5d9cf0ec0", "asm": "0020f63dfc12340f6360d0251c22746d6b56093e3243e96ca012a65484a5d9cf0ec0"}, "vout": 1, "txid": "4b5ce4f54776d8eb04e9d12025ebbdc20e3c8fb43b65777dfe2afb4e94835bc4"}], "txid": "293409b0e8a0d3a38435966920379510f3291ee4048f61b2c43efc02863b8775", "blocktime": 1537876114, "version": 1, "confirmations": 11460, "time": 1537876114, "locktime": 0, "vsize": 204, "size": 369}