{"hash": "293549889e82f6d68c107335502894ae7f18ee76327a77d08aca5daf77cbe143", "blockhash": "0000000000000000000e13cef7c366c0283d82e591d1acd082e914b08063cdf1", "vout": [{"scriptPubKey": {"reqSigs": 1, "hex": "a914ad40c55ca62707be27d408d1d16e0d93dcab770f87", "addresses": ["3HV6R6SPDQUXejz3QqftyDvwdJqteTcMJh"], "asm": "OP_HASH160 ad40c55ca62707be27d408d1d16e0d93dcab770f OP_EQUAL", "type": "scripthash"}, "value": 0.0028176, "n": 0}, {"scriptPubKey": {"reqSigs": 1, "hex": "76a914d1400cf0c4c0ba6607a0ac58cef36eacf75d699388ac", "addresses": ["1L5QxQMiZnCUKqdvjnUdjraABrPyW65aSF"], "asm": "OP_DUP OP_HASH160 d1400cf0c4c0ba6607a0ac58cef36eacf75d6993 OP_EQUALVERIFY OP_CHECKSIG", "type": "pubkeyhash"}, "value": 0.01177995, "n": 1}], "hex": "010000000113190d4177afa1f6b2e7dccbc21663b232291add827d314a83c63398ba1a8338010000006a47304402205b2ad33fb2d9c510455d5f2030bec8fcde24f13960661b240a7fde0c98965ab3022055011fb5fed60395a780ee7481d2df03f31c1a2852358911f78b8772865b75b3012102ac3afec43dfe480f3378cd4215b73a01cc70fbecc14ee4329ddfa08c28db9a6bffffffff02a04c04000000000017a914ad40c55ca62707be27d408d1d16e0d93dcab770f878bf91100000000001976a914d1400cf0c4c0ba6607a0ac58cef36eacf75d699388ac00000000", "vin": [{"sequence": 4294967295, "scriptSig": {"hex": "47304402205b2ad33fb2d9c510455d5f2030bec8fcde24f13960661b240a7fde0c98965ab3022055011fb5fed60395a780ee7481d2df03f31c1a2852358911f78b8772865b75b3012102ac3afec43dfe480f3378cd4215b73a01cc70fbecc14ee4329ddfa08c28db9a6b", "asm": "304402205b2ad33fb2d9c510455d5f2030bec8fcde24f13960661b240a7fde0c98965ab3022055011fb5fed60395a780ee7481d2df03f31c1a2852358911f78b8772865b75b3[ALL] 02ac3afec43dfe480f3378cd4215b73a01cc70fbecc14ee4329ddfa08c28db9a6b"}, "vout": 1, "txid": "38831aba9833c6834a317d82dd1a2932b26316c2cbdce7b2f6a1af77410d1913"}], "txid": "293549889e82f6d68c107335502894ae7f18ee76327a77d08aca5daf77cbe143", "blocktime": 1537871767, "version": 1, "confirmations": 11492, "time": 1537871767, "locktime": 0, "vsize": 223, "size": 223}