{"hash": "f817c4380e35649a965ab632f5a44e4177e10365c5cded0b9c66d623ce5b2e06", "blockhash": "000000000000000000205f8b0775d31398ef75b89a5e8ec8d2c57b4dc0ac4c20", "vout": [{"scriptPubKey": {"reqSigs": 1, "hex": "76a914afe9890e4ac11291598635e32f1e4974cb1ee09388ac", "addresses": ["1H391tmheVeiTYaY4ejqDa16BPU3ySEfFj"], "asm": "OP_DUP OP_HASH160 afe9890e4ac11291598635e32f1e4974cb1ee093 OP_EQUALVERIFY OP_CHECKSIG", "type": "pubkeyhash"}, "value": 0.00333796, "n": 0}, {"scriptPubKey": {"reqSigs": 1, "hex": "76a9144807c6e1db2c69720ceb87d94fb138e591c464af88ac", "addresses": ["17ZryAENsZ6d7VSh1cn615BzLEEd62zG3J"], "asm": "OP_DUP OP_HASH160 4807c6e1db2c69720ceb87d94fb138e591c464af OP_EQUALVERIFY OP_CHECKSIG", "type": "pubkeyhash"}, "value": 0.01141723, "n": 1}, {"scriptPubKey": {"reqSigs": 1, "hex": "76a9140af9f02031704d4b6c140d0ad9a60cf97d60779f88ac", "addresses": ["1213Av2yirS6B4xnBaAfiFzoM4ucKjpmEU"], "asm": "OP_DUP OP_HASH160 0af9f02031704d4b6c140d0ad9a60cf97d60779f OP_EQUALVERIFY OP_CHECKSIG", "type": "pubkeyhash"}, "value": 0.04226009, "n": 2}], "hex": "020000000001023daf7d61031e3e2436bf6d53bce37cf92dbc58b94285caabad8ccfe6728ace200000000017160014b4596688b6899d49e2b5e04939c3bf845e7d5efffeffffff9268398d999566bf425bff862d54954ed1bd769c4543ce6e10efa92e590b935d00000000171600142a1b2a8a88fbdf9e5116a71310215fd524e02474feffffff03e4170500000000001976a914afe9890e4ac11291598635e32f1e4974cb1ee09388acdb6b1100000000001976a9144807c6e1db2c69720ceb87d94fb138e591c464af88acd97b4000000000001976a9140af9f02031704d4b6c140d0ad9a60cf97d60779f88ac02483045022100db479622345867f7e56afec930bc2467829ddf7307f476982005a787a0986b9b02204dec34948ae6215de64a3ddd7941e0b7fb358a41c4c0bfe9de9610cd997aa453012102481de1dfc0eb7f4bcd0fdd35e95fcebcb0e55e0affa66aa39fbeeab762d4d87102483045022100f34cbebf4ba161a0c6592d573b8d35f1c74d07d3d5da2480015b7cf56e9f5f230220629ac04c669ec56ff182112eb7a1d7b5bb7ceaeee4a5379ac03f02fe65375a3701210210993cc007b6e1c088c06068b9d1b56bfe35079b1855f91c6c9dca65fc4448ea0f490800", "vin": [{"txinwitness": ["3045022100db479622345867f7e56afec930bc2467829ddf7307f476982005a787a0986b9b02204dec34948ae6215de64a3ddd7941e0b7fb358a41c4c0bfe9de9610cd997aa45301", "02481de1dfc0eb7f4bcd0fdd35e95fcebcb0e55e0affa66aa39fbeeab762d4d871"], "sequence": 4294967294, "scriptSig": {"hex": "160014b4596688b6899d49e2b5e04939c3bf845e7d5eff", "asm": "0014b4596688b6899d49e2b5e04939c3bf845e7d5eff"}, "vout": 0, "txid": "20ce8a72e6cf8cadabca8542b958bc2df97ce3bc536dbf36243e1e03617daf3d"}, {"txinwitness": ["3045022100f34cbebf4ba161a0c6592d573b8d35f1c74d07d3d5da2480015b7cf56e9f5f230220629ac04c669ec56ff182112eb7a1d7b5bb7ceaeee4a5379ac03f02fe65375a3701", "0210993cc007b6e1c088c06068b9d1b56bfe35079b1855f91c6c9dca65fc4448ea"], "sequence": 4294967294, "scriptSig": {"hex": "1600142a1b2a8a88fbdf9e5116a71310215fd524e02474", "asm": "00142a1b2a8a88fbdf9e5116a71310215fd524e02474"}, "vout": 0, "txid": "5d930b592ea9ef106ece43459c76bdd14e95542d86ff5b42bf6695998d396892"}], "txid": "2938a222b797c76f7f657ad7c80abb5b4005cac2274a40aa77b2fff8a97c8883", "blocktime": 1537871175, "version": 2, "confirmations": 11511, "time": 1537871175, "locktime": 542991, "vsize": 295, "size": 458}