{"hash": "2939138eedbb8d5284b6093587b79ad90c24aa6696f7fa7562171a53914ed95e", "blockhash": "0000000000000000000e13cef7c366c0283d82e591d1acd082e914b08063cdf1", "vout": [{"scriptPubKey": {"reqSigs": 1, "hex": "76a9142412a45705e4032edf400706ee582ce6c2b476b388ac", "addresses": ["14HjfAwtKT3rNyNXboNUXZBx6sYw77rvhm"], "asm": "OP_DUP OP_HASH160 2412a45705e4032edf400706ee582ce6c2b476b3 OP_EQUALVERIFY OP_CHECKSIG", "type": "pubkeyhash"}, "value": 0.00416192, "n": 0}, {"scriptPubKey": {"reqSigs": 1, "hex": "a9141b17d80208562ee01411c0623c5937313eb3f92787", "addresses": ["34AGjRCpdr6AANMRH8wM4awKc7zad2ELTC"], "asm": "OP_HASH160 1b17d80208562ee01411c0623c5937313eb3f927 OP_EQUAL", "type": "scripthash"}, "value": 0.0074847, "n": 1}], "hex": "0100000001d79a10546eced0720747a63048128e797991bd4a19179332ef8ee10c17929966010000006a47304402203189eff44736ed37cc81e51bda02f302773721b224d4e4739e4451d30d5ed43a022028d8ea412317faed95c0473cda6b1d671d91f8868041fc6e759eb8b67158825e012102609263c172b5675569e72cbe9b942837905006daa3347e0f9bea7f9678ced3d4ffffffff02c0590600000000001976a9142412a45705e4032edf400706ee582ce6c2b476b388acb66b0b000000000017a9141b17d80208562ee01411c0623c5937313eb3f9278700000000", "vin": [{"sequence": 4294967295, "scriptSig": {"hex": "47304402203189eff44736ed37cc81e51bda02f302773721b224d4e4739e4451d30d5ed43a022028d8ea412317faed95c0473cda6b1d671d91f8868041fc6e759eb8b67158825e012102609263c172b5675569e72cbe9b942837905006daa3347e0f9bea7f9678ced3d4", "asm": "304402203189eff44736ed37cc81e51bda02f302773721b224d4e4739e4451d30d5ed43a022028d8ea412317faed95c0473cda6b1d671d91f8868041fc6e759eb8b67158825e[ALL] 02609263c172b5675569e72cbe9b942837905006daa3347e0f9bea7f9678ced3d4"}, "vout": 1, "txid": "669992170ce18eef329317194abd9179798e124830a6470772d0ce6e54109ad7"}], "txid": "2939138eedbb8d5284b6093587b79ad90c24aa6696f7fa7562171a53914ed95e", "blocktime": 1537871767, "version": 1, "confirmations": 11491, "time": 1537871767, "locktime": 0, "vsize": 223, "size": 223}