{"hash": "29395b2dae477a1161ce175a56ba702dcc0324d6d1ca226215dd002007de7258", "blockhash": "00000000000000000017f5eb5941039fbcee6240d03bc1f2f8e35350df66a1d8", "vout": [{"scriptPubKey": {"reqSigs": 1, "hex": "76a9147ee15f75f58d9d2f23ca256f44c473478b85808e88ac", "addresses": ["1CZt8MXDJcbSLFqkvqAqCHiQtkNZ139Uc6"], "asm": "OP_DUP OP_HASH160 7ee15f75f58d9d2f23ca256f44c473478b85808e OP_EQUALVERIFY OP_CHECKSIG", "type": "pubkeyhash"}, "value": 0.00518789, "n": 0}, {"scriptPubKey": {"reqSigs": 1, "hex": "a9144abbf61447eb55ab25ed92b114422509c2f929b687", "addresses": ["38WB6WriqMUoSwPoExHYA7YzJMdXjww79s"], "asm": "OP_HASH160 4abbf61447eb55ab25ed92b114422509c2f929b6 OP_EQUAL", "type": "scripthash"}, "value": 0.011404, "n": 1}], "hex": "0100000002223c311670bdf13c71910b793a48b0860c9aa4d278e2bcca6964cb355e03c34a000000006b483045022100b3de7866216d9f66efca906d6a169b244af3424e27c60b9f5532b24d70e5edd4022063876357db41a75ad1d5ef5a50d308e41d53dc01aaf216f182bd9741e7816d31012102334d13aea98ce6c21f6f06be0d0e0e8f2b6f11b19445d6d28a24e452a992293fffffffff681515088d41d5a559563fe9a2e1cb7e135d09cbcdb74b73b9866be69b2caae4010000006b483045022100ba3c8dc17d08ed5b29675cebae0ba0bebc511ac1535efc0399fb17caa8d155bf02204a3c7f64abca477b2703cc2b018f7810b560d022100e5140bbe52299e370190601210395f7bdeb18e2f678a37e579c85c887ed59760a94cb627f1bbe6420b19ff96729ffffffff0285ea0700000000001976a9147ee15f75f58d9d2f23ca256f44c473478b85808e88acb06611000000000017a9144abbf61447eb55ab25ed92b114422509c2f929b68700000000", "vin": [{"sequence": 4294967295, "scriptSig": {"hex": "483045022100b3de7866216d9f66efca906d6a169b244af3424e27c60b9f5532b24d70e5edd4022063876357db41a75ad1d5ef5a50d308e41d53dc01aaf216f182bd9741e7816d31012102334d13aea98ce6c21f6f06be0d0e0e8f2b6f11b19445d6d28a24e452a992293f", "asm": "3045022100b3de7866216d9f66efca906d6a169b244af3424e27c60b9f5532b24d70e5edd4022063876357db41a75ad1d5ef5a50d308e41d53dc01aaf216f182bd9741e7816d31[ALL] 02334d13aea98ce6c21f6f06be0d0e0e8f2b6f11b19445d6d28a24e452a992293f"}, "vout": 0, "txid": "4ac3035e35cb6469cabce278d2a49a0c86b0483a790b91713cf1bd7016313c22"}, {"sequence": 4294967295, "scriptSig": {"hex": "483045022100ba3c8dc17d08ed5b29675cebae0ba0bebc511ac1535efc0399fb17caa8d155bf02204a3c7f64abca477b2703cc2b018f7810b560d022100e5140bbe52299e370190601210395f7bdeb18e2f678a37e579c85c887ed59760a94cb627f1bbe6420b19ff96729", "asm": "3045022100ba3c8dc17d08ed5b29675cebae0ba0bebc511ac1535efc0399fb17caa8d155bf02204a3c7f64abca477b2703cc2b018f7810b560d022100e5140bbe52299e3701906[ALL] 0395f7bdeb18e2f678a37e579c85c887ed59760a94cb627f1bbe6420b19ff96729"}, "vout": 1, "txid": "e4aa2c9be66b86b9734bb7cdcb095d137ecbe1a2e93f5659a5d5418d08151568"}], "txid": "29395b2dae477a1161ce175a56ba702dcc0324d6d1ca226215dd002007de7258", "blocktime": 1537874412, "version": 1, "confirmations": 11467, "time": 1537874412, "locktime": 0, "vsize": 372, "size": 372}