{"hash": "293c1509a8dd7418924a514795445c6b8bcb92b7d6d655110b8f4919e4c85206", "blockhash": "0000000000000000000dcc0f55137456b1a82d3642486a52398922ac4d620174", "vout": [{"scriptPubKey": {"reqSigs": 1, "hex": "76a914a129abc006a6cee65b5c7e69463fd5832dbeb3f188ac", "addresses": ["1Fh9iEK4e195EA4isHLb9Jvr81xzbsSKTj"], "asm": "OP_DUP OP_HASH160 a129abc006a6cee65b5c7e69463fd5832dbeb3f1 OP_EQUALVERIFY OP_CHECKSIG", "type": "pubkeyhash"}, "value": 0.04808668, "n": 0}, {"scriptPubKey": {"reqSigs": 1, "hex": "a91490bea27a20416686c86d16da78fa117b40c1beea87", "addresses": ["3EtMbhNPxeCVsM2CWS5kcbhgxU7HuQMM6R"], "asm": "OP_HASH160 90bea27a20416686c86d16da78fa117b40c1beea OP_EQUAL", "type": "scripthash"}, "value": 0.01948, "n": 1}], "hex": "020000000107781758cc40a89ab1911221f7cba6b884e8084114fc9b513faead0d3c8d74c3010000006b4830450221009dcbe217bacccfa21aceeb6847fb975a65119a4f7b45f54521c5376027565bcb02201b8325954218c9314e15ad21ac77f048825fc068ba4eac44478eebdcf8c53c81012103f7939c5ceea6edd8e60f183a6f6fad0d5d2a7ded9135add3fcef884572d662d6feffffff02dc5f4900000000001976a914a129abc006a6cee65b5c7e69463fd5832dbeb3f188ac60b91d000000000017a91490bea27a20416686c86d16da78fa117b40c1beea870c490800", "vin": [{"sequence": 4294967294, "scriptSig": {"hex": "4830450221009dcbe217bacccfa21aceeb6847fb975a65119a4f7b45f54521c5376027565bcb02201b8325954218c9314e15ad21ac77f048825fc068ba4eac44478eebdcf8c53c81012103f7939c5ceea6edd8e60f183a6f6fad0d5d2a7ded9135add3fcef884572d662d6", "asm": "30450221009dcbe217bacccfa21aceeb6847fb975a65119a4f7b45f54521c5376027565bcb02201b8325954218c9314e15ad21ac77f048825fc068ba4eac44478eebdcf8c53c81[ALL] 03f7939c5ceea6edd8e60f183a6f6fad0d5d2a7ded9135add3fcef884572d662d6"}, "vout": 1, "txid": "c3748d3c0dadae3f519bfc144108e884b8a6cbf7211291b19aa840cc58177807"}], "txid": "293c1509a8dd7418924a514795445c6b8bcb92b7d6d655110b8f4919e4c85206", "blocktime": 1537870268, "version": 2, "confirmations": 11518, "time": 1537870268, "locktime": 542988, "vsize": 224, "size": 224}