{"hash": "293ec3452e7a4068e01013d331a9136f7f30f81cbbaed0a000cf9a5cf2307143", "blockhash": "0000000000000000000baef3f32e3676a92c3b2e5da21b426e4f302fc371ce76", "vout": [{"scriptPubKey": {"reqSigs": 1, "hex": "76a9142933252678011b72150c70495608a31fe29cc2cf88ac", "addresses": ["14kqyVRuQ1JfqcwewGeBSh3LQdRRpc4zPc"], "asm": "OP_DUP OP_HASH160 2933252678011b72150c70495608a31fe29cc2cf OP_EQUALVERIFY OP_CHECKSIG", "type": "pubkeyhash"}, "value": 0.0070497, "n": 0}, {"scriptPubKey": {"reqSigs": 1, "hex": "76a914c445bb38a566ec8f5fea37d5306e187a9445e66188ac", "addresses": ["1JtnycmfSffLFLeTfKnYSKXi3aaTzrbQdc"], "asm": "OP_DUP OP_HASH160 c445bb38a566ec8f5fea37d5306e187a9445e661 OP_EQUALVERIFY OP_CHECKSIG", "type": "pubkeyhash"}, "value": 0.00892801, "n": 1}], "hex": "0100000001b2f0094df7fa7cb681ddd732da836aa3667a76821f694f1cd8860aa82386374b000000006b483045022100a7970c51755f56c7c1ec480ef01b8635fecefb840a8b7a38479b7e4c5b797aca02204407e7cf883a5b14d8e7c66ae07784bdcaaf39beb864ad42a27dcd76cbec6854012102118ed474240282ca126b9cb5d20df95d8f2ad64a7e9dd6eef0def02003837df7ffffffff02cac10a00000000001976a9142933252678011b72150c70495608a31fe29cc2cf88ac819f0d00000000001976a914c445bb38a566ec8f5fea37d5306e187a9445e66188ac00000000", "vin": [{"sequence": 4294967295, "scriptSig": {"hex": "483045022100a7970c51755f56c7c1ec480ef01b8635fecefb840a8b7a38479b7e4c5b797aca02204407e7cf883a5b14d8e7c66ae07784bdcaaf39beb864ad42a27dcd76cbec6854012102118ed474240282ca126b9cb5d20df95d8f2ad64a7e9dd6eef0def02003837df7", "asm": "3045022100a7970c51755f56c7c1ec480ef01b8635fecefb840a8b7a38479b7e4c5b797aca02204407e7cf883a5b14d8e7c66ae07784bdcaaf39beb864ad42a27dcd76cbec6854[ALL] 02118ed474240282ca126b9cb5d20df95d8f2ad64a7e9dd6eef0def02003837df7"}, "vout": 0, "txid": "4b378623a80a86d81c4f691f82767a66a36a83da32d7dd81b67cfaf74d09f0b2"}], "txid": "293ec3452e7a4068e01013d331a9136f7f30f81cbbaed0a000cf9a5cf2307143", "blocktime": 1537876114, "version": 1, "confirmations": 11460, "time": 1537876114, "locktime": 0, "vsize": 226, "size": 226}