{"hash": "cc59451be1dfac7a704704488f033ad5915ac0e54ef841fb380f8fd4cbc23367", "blockhash": "0000000000000000000e13cef7c366c0283d82e591d1acd082e914b08063cdf1", "vout": [{"scriptPubKey": {"reqSigs": 1, "hex": "a914c7dd4fcd8aec7e05401bdc6f2acf15eb753f5f8687", "addresses": ["3KuoWj6WBbZqDy912vYEFoGH7tW7tLf4hK"], "asm": "OP_HASH160 c7dd4fcd8aec7e05401bdc6f2acf15eb753f5f86 OP_EQUAL", "type": "scripthash"}, "value": 0.483118, "n": 0}, {"scriptPubKey": {"reqSigs": 1, "hex": "a9140eb16cd4f0c42a29b065e03e6d778bb0b4a1714b87", "addresses": ["332hvwewXNcqivvWeGq1N94hHUkPX3zb48"], "asm": "OP_HASH160 0eb16cd4f0c42a29b065e03e6d778bb0b4a1714b OP_EQUAL", "type": "scripthash"}, "value": 0.01004828, "n": 1}], "hex": "020000000001061225714f8f1d41c57cf7735114928b99c258b313743cccf813af224f6e7963bd000000001716001429a60436608bac80ff726053d310bb641a2562b5feffffff309f9cc977fc89dfa3ee0be7a9218415e406d058c3277f1a91adfba05a9357f4050000001716001462020116898d8e423882c5768af5ec91d30fe4f9feffffff4bca1326445705b2cb33afa2544589554e7de8662747ebc14f5f9be8ea50d221030000001716001462245172680d57fc841d735fbdffe030e0f97ca4feffffff5c0f6d56752813b45c262ed9744376879fa000e2581127edda8cc9690fa822db01000000171600140e2e00b71529cef5264f98e308d76087ecba459bfeffffff7ed21e7797f22c8e4da90b8e598d6192169df21148c2fa0a1ef674f8fd3b41070100000017160014622ba712e093b958833a5dbf628fb3402adc5b7afeffffffc51241f16dd30831eee31095804bd52cb30a7e1a23df4b386cbc57fd8effa0030600000017160014a295b3d815b4ab9486592be2fd5bebb05f18ca89feffffff02f82de1020000000017a914c7dd4fcd8aec7e05401bdc6f2acf15eb753f5f86871c550f000000000017a9140eb16cd4f0c42a29b065e03e6d778bb0b4a1714b870247304402203d5e79a2413d86cafa1ae82471829469cc018dabb730d29e02bc77215388cf8102200af1f1df5d1338d8f56faa1ba2e9270d4ea7a1eb3135e0c7c374bcac25c153210121020714f7ac9980fc3e17c7c11f8c9ce45685a7cd9eab90368e7bb32b5cf9b628b802483045022100beefa97d276f152ab4c72c4b34a479ed3e680caea3532cb8de5a68b0e09a6b8b02206a6c9c4b904820bf2c3f4a70c0b2c66d72ddcd88f375ba43a951793ed751eab20121020619d122bbe2a41dd8e73994ef21801e61e20722b9641753513be838c738fc3d02473044022069c966377d042278ff2697a0f5b823e03aba88d2a6207da5be90862708937e83022031e7afa1899b2ffb6443afb7029089d1d800ac8b124a36d4c579db189d206b14012102087b79007aefb93095005f73632fecb1485851f8cae7d4d8a6212a9bfd47735f024730440220559c52c831a33b6a8eea60da0d4cbaa23467af5429dd17bea7f48c2f499ce11702206be1715ee86aae6744428a4dbc95d2bde4f007075aed1660c639fff1292384ff012103f23fcc565bea3be4ed1e4c63f6de273e17007f21992a14e258b29bdbcab418920247304402205d37e2b53437eb8fee02e97e9381c3c9cee510416dde5bf9b8c09f72b5ad41db02205b075541ce4dbf6cb8a1bffa7284d45212f7985a8ca1d4b850e924843643e569012102e041d6fddcb88ea4030076127da41efea5373f683f4f19c9cb1b5d4ef85773d702483045022100db08cf487f7ae29db01b74e3a3ca21ac59f87930a79a413af0326658c463cb740220766f67c649498da0ef9b45d1a4984f002a6f71c4e88eeb9e26826d2eebef327b0121022bd2e17b2dd5c4ee2e83a043cb968ef471f7bd0229e88eb3ee825f47a61638b30f490800", "vin": [{"txinwitness": ["304402203d5e79a2413d86cafa1ae82471829469cc018dabb730d29e02bc77215388cf8102200af1f1df5d1338d8f56faa1ba2e9270d4ea7a1eb3135e0c7c374bcac25c1532101", "020714f7ac9980fc3e17c7c11f8c9ce45685a7cd9eab90368e7bb32b5cf9b628b8"], "sequence": 4294967294, "scriptSig": {"hex": "16001429a60436608bac80ff726053d310bb641a2562b5", "asm": "001429a60436608bac80ff726053d310bb641a2562b5"}, "vout": 0, "txid": "bd63796e4f22af13f8cc3c7413b358c2998b92145173f77cc5411d8f4f712512"}, {"txinwitness": ["3045022100beefa97d276f152ab4c72c4b34a479ed3e680caea3532cb8de5a68b0e09a6b8b02206a6c9c4b904820bf2c3f4a70c0b2c66d72ddcd88f375ba43a951793ed751eab201", "020619d122bbe2a41dd8e73994ef21801e61e20722b9641753513be838c738fc3d"], "sequence": 4294967294, "scriptSig": {"hex": "16001462020116898d8e423882c5768af5ec91d30fe4f9", "asm": "001462020116898d8e423882c5768af5ec91d30fe4f9"}, "vout": 5, "txid": "f457935aa0fbad911a7f27c358d006e4158421a9e70beea3df89fc77c99c9f30"}, {"txinwitness": ["3044022069c966377d042278ff2697a0f5b823e03aba88d2a6207da5be90862708937e83022031e7afa1899b2ffb6443afb7029089d1d800ac8b124a36d4c579db189d206b1401", "02087b79007aefb93095005f73632fecb1485851f8cae7d4d8a6212a9bfd47735f"], "sequence": 4294967294, "scriptSig": {"hex": "16001462245172680d57fc841d735fbdffe030e0f97ca4", "asm": "001462245172680d57fc841d735fbdffe030e0f97ca4"}, "vout": 3, "txid": "21d250eae89b5f4fc1eb472766e87d4e55894554a2af33cbb20557442613ca4b"}, {"txinwitness": ["30440220559c52c831a33b6a8eea60da0d4cbaa23467af5429dd17bea7f48c2f499ce11702206be1715ee86aae6744428a4dbc95d2bde4f007075aed1660c639fff1292384ff01", "03f23fcc565bea3be4ed1e4c63f6de273e17007f21992a14e258b29bdbcab41892"], "sequence": 4294967294, "scriptSig": {"hex": "1600140e2e00b71529cef5264f98e308d76087ecba459b", "asm": "00140e2e00b71529cef5264f98e308d76087ecba459b"}, "vout": 1, "txid": "db22a80f69c98cdaed271158e200a09f87764374d92e265cb4132875566d0f5c"}, {"txinwitness": ["304402205d37e2b53437eb8fee02e97e9381c3c9cee510416dde5bf9b8c09f72b5ad41db02205b075541ce4dbf6cb8a1bffa7284d45212f7985a8ca1d4b850e924843643e56901", "02e041d6fddcb88ea4030076127da41efea5373f683f4f19c9cb1b5d4ef85773d7"], "sequence": 4294967294, "scriptSig": {"hex": "160014622ba712e093b958833a5dbf628fb3402adc5b7a", "asm": "0014622ba712e093b958833a5dbf628fb3402adc5b7a"}, "vout": 1, "txid": "07413bfdf874f61e0afac24811f29d1692618d598e0ba94d8e2cf297771ed27e"}, {"txinwitness": ["3045022100db08cf487f7ae29db01b74e3a3ca21ac59f87930a79a413af0326658c463cb740220766f67c649498da0ef9b45d1a4984f002a6f71c4e88eeb9e26826d2eebef327b01", "022bd2e17b2dd5c4ee2e83a043cb968ef471f7bd0229e88eb3ee825f47a61638b3"], "sequence": 4294967294, "scriptSig": {"hex": "160014a295b3d815b4ab9486592be2fd5bebb05f18ca89", "asm": "0014a295b3d815b4ab9486592be2fd5bebb05f18ca89"}, "vout": 6, "txid": "03a0ff8efd57bc6c384bdf231a7e0ab32cd54b809510e3ee3108d36df14112c5"}], "txid": "293eead4c0584c785cc5c7a66767768eb8e42cc5236236f99758ed6016af1a20", "blocktime": 1537871767, "version": 2, "confirmations": 11495, "time": 1537871767, "locktime": 542991, "vsize": 620, "size": 1104}