{"hash": "9932aaee4bee6c2c34e5192a184843816398760adec766670d4fdbdd7fea3a93", "blockhash": "0000000000000000001e0dab787dd257d1dbfcb92a98c2207d5e1078be1f4165", "vout": [{"scriptPubKey": {"reqSigs": 1, "hex": "a9142342569638cc7ee017533cd39624158da1ee341587", "addresses": ["34uT3X3aTrq3jJFBsFMqM7wGbZvn9nn3KQ"], "asm": "OP_HASH160 2342569638cc7ee017533cd39624158da1ee3415 OP_EQUAL", "type": "scripthash"}, "value": 0.01459394, "n": 0}, {"scriptPubKey": {"reqSigs": 1, "hex": "a9148980b85d87f31ca0dc31b8c272df4c43b8acdd3587", "addresses": ["3EE4hTb5ghcPMEHVUoqYuAjtyEfq1tfFSb"], "asm": "OP_HASH160 8980b85d87f31ca0dc31b8c272df4c43b8acdd35 OP_EQUAL", "type": "scripthash"}, "value": 0.03496872, "n": 1}, {"scriptPubKey": {"reqSigs": 1, "hex": "76a914419e245f63ca0ddae97fa853ccfaa893132b36dd88ac", "addresses": ["16yxNNezij3doTxRJTH78WpBXQKYo2WuxQ"], "asm": "OP_DUP OP_HASH160 419e245f63ca0ddae97fa853ccfaa893132b36dd OP_EQUALVERIFY OP_CHECKSIG", "type": "pubkeyhash"}, "value": 0.1653106, "n": 2}, {"scriptPubKey": {"reqSigs": 1, "hex": "a91495af50ce425e8b676e8b5886c27213016ecd1ac787", "addresses": ["3FLUdGgbdqsbFB8g8AyVQStLF182CxVPEG"], "asm": "OP_HASH160 95af50ce425e8b676e8b5886c27213016ecd1ac7 OP_EQUAL", "type": "scripthash"}, "value": 0.6153835, "n": 3}, {"scriptPubKey": {"reqSigs": 1, "hex": "a91424037ff55a08ca5cb7f3d5b837dc494e3c28cc6d87", "addresses": ["34ySSd4kreRfBfJk2UNTwbWKFAmUcD7EuR"], "asm": "OP_HASH160 24037ff55a08ca5cb7f3d5b837dc494e3c28cc6d OP_EQUAL", "type": "scripthash"}, "value": 0.206, "n": 4}], "hex": "02000000000103a2c6ba03cf376bb74c9ddc595df8b11348a620f8ba2f2016cf15dc5c175511ce010000001716001404ea3605e0e80dedd31248e2b7b791d0aeafef8afeffffffe630df388f39b1e7213891a82759e005c6bed13b1668699a1801e782c0e5974f01000000171600147a80d40685d5b5065b9253128bf24efff05c8d28fefffffff4575e1f63d8d34aba55d9c7b9ddeabee326636c039502ffec474855301b68fc0000000017160014b946e3118033e66d44d7ea2a5a699796af5fe9dcfeffffff05c24416000000000017a9142342569638cc7ee017533cd39624158da1ee341587a85b35000000000017a9148980b85d87f31ca0dc31b8c272df4c43b8acdd3587743efc00000000001976a914419e245f63ca0ddae97fa853ccfaa893132b36dd88ac2e00ab030000000017a91495af50ce425e8b676e8b5886c27213016ecd1ac787c0543a010000000017a91424037ff55a08ca5cb7f3d5b837dc494e3c28cc6d8702483045022100985670e8a830524385fff95a50d71964b084a6ebc81308deaa0f09b782ccddc302201d9a26ed84dc55e6d99c5b07bcf4b6b3cddd94ab5b72924aa7ff8ae3257d8eb7012102078f9b800f617998325213f14798c35dc9eed723f34270eea374b4bd1f3ca22e02473044022005d084a83f79fde63b5753702ec35df80d5326972e91982b8812cd4ff1a94ae30220152ad6ea4f3fee5a926d347a568d22bd71144c90855e0dc284852b0b2843a4a201210319c10d1027bd793369f214a0be11125280abff00fe3c7e3e68744d6cf619780f02483045022100cab46845dc543f37dcbf9e692ad8b86d657014200db9d872920446a247eab80602204adc52a1d822bf4556898d68e51587255e26670ffc3ade83a1daaf2c6fad1707012102a408cbb67aa8b1a1b68ef3cb3d8e3f3b1f9e327ba2bc51008738ce3f2794814612490800", "vin": [{"txinwitness": ["3045022100985670e8a830524385fff95a50d71964b084a6ebc81308deaa0f09b782ccddc302201d9a26ed84dc55e6d99c5b07bcf4b6b3cddd94ab5b72924aa7ff8ae3257d8eb701", "02078f9b800f617998325213f14798c35dc9eed723f34270eea374b4bd1f3ca22e"], "sequence": 4294967294, "scriptSig": {"hex": "16001404ea3605e0e80dedd31248e2b7b791d0aeafef8a", "asm": "001404ea3605e0e80dedd31248e2b7b791d0aeafef8a"}, "vout": 1, "txid": "ce1155175cdc15cf16202fbaf820a64813b1f85d59dc9d4cb76b37cf03bac6a2"}, {"txinwitness": ["3044022005d084a83f79fde63b5753702ec35df80d5326972e91982b8812cd4ff1a94ae30220152ad6ea4f3fee5a926d347a568d22bd71144c90855e0dc284852b0b2843a4a201", "0319c10d1027bd793369f214a0be11125280abff00fe3c7e3e68744d6cf619780f"], "sequence": 4294967294, "scriptSig": {"hex": "1600147a80d40685d5b5065b9253128bf24efff05c8d28", "asm": "00147a80d40685d5b5065b9253128bf24efff05c8d28"}, "vout": 1, "txid": "4f97e5c082e701189a6968163bd1bec605e05927a8913821e7b1398f38df30e6"}, {"txinwitness": ["3045022100cab46845dc543f37dcbf9e692ad8b86d657014200db9d872920446a247eab80602204adc52a1d822bf4556898d68e51587255e26670ffc3ade83a1daaf2c6fad170701", "02a408cbb67aa8b1a1b68ef3cb3d8e3f3b1f9e327ba2bc51008738ce3f27948146"], "sequence": 4294967294, "scriptSig": {"hex": "160014b946e3118033e66d44d7ea2a5a699796af5fe9dc", "asm": "0014b946e3118033e66d44d7ea2a5a699796af5fe9dc"}, "vout": 0, "txid": "fc681b30554847ecff0295036c6326e3beeaddb9c7d955ba4ad3d8631f5e57f4"}], "txid": "2942867c1ad5b389331b892ec77fa9487b05596de94169dce72c067aa89d56d9", "blocktime": 1537872475, "version": 2, "confirmations": 11487, "time": 1537872475, "locktime": 542994, "vsize": 446, "size": 689}