{"hash": "294338b26c0edb52d7ef30416675b93d60d5178727266b12072ef01da60b8583", "blockhash": "0000000000000000001f76057863aec43deb6fa401d9628bb513d65a8098bfab", "vout": [{"scriptPubKey": {"reqSigs": 1, "hex": "a914191d33ce886b1a7270c2154e4c65e628ad6f933187", "addresses": ["33yooMb3vcGXRxvSZh9YgpLNS4jAHRz5ua"], "asm": "OP_HASH160 191d33ce886b1a7270c2154e4c65e628ad6f9331 OP_EQUAL", "type": "scripthash"}, "value": 0.513105, "n": 0}, {"scriptPubKey": {"reqSigs": 1, "hex": "a914211501b22361dfcf56ca079ed8dd73697e84441d87", "addresses": ["34hwPSUSzCVkNv3n7AZVYbpJ142SFP9o5Z"], "asm": "OP_HASH160 211501b22361dfcf56ca079ed8dd73697e84441d OP_EQUAL", "type": "scripthash"}, "value": 10.0, "n": 1}], "hex": "0100000002d11d4bac3906c185b0ac5f7aa8188a5bd34bb5e9aed0ac0a61a3188ccd8c2a6501000000fdfe0000483045022100d0e3ead8d722ffeb83212d3c614cb1b5e47b5f0f906590e117eb438f756858cf022043e4f8c7324c766ba01ec7b420db0f842a299610e542f72ea5cc6936cf8e474101483045022100b5d30844c73d44de34bf557a53ee869308799a684f0b9fbfae6ec421b0725e19022070838b9319bc2dca01fa3e86e1f64a83864be469c295595652c3389975f38f5b014c695221030572edcaa44eedee4bf81027121c8c32f560c8d7d1b511f3860d63896d4f787e21038dc86701707f57ffc7c9604485900bb555f67b07cbe04a963c1f6eb6807bce392103f0b7f44bd61e81a6c06abe6273936754ebd68e1f09ae58f8037e12a695918d2f53aefeffffff0df873af59fdd3eb1f171b5f358defd3838bf1e9aa809e24a4dabe9cb3ab29ac03000000fdfd0000473044022026821ca598fea7192168b5e35ef4abafb9e28059df616a1ed4e63e0c11a7676602201f3547cf681dcaa903bce5b78e7653f50e500c4fb6d2e2a9a9a27de591abb9c201483045022100c353cd424689209a23f4fd6ff096b7e48e24d168679df4ecdeaf9f9f5b98b8fa02204b61d7fe4602f972fa55d03fedd1842292921b0bafb097d550dbddafe0d89af9014c695221029fe4c8c70ffd5987dbc493e4b7ec5cfeda8d7f72b33dc379bb8485a13ab67b9a21038b06077dfa8491467226cfe53e2142624e2b3c5135515f02ec30a26aa625e8552103b870e103f55c8deeca1e7f50a37e38eb97c167f7cf2e21dfb6b9ca7c8d68fb5153aefeffffff02a4ef0e030000000017a914191d33ce886b1a7270c2154e4c65e628ad6f93318700ca9a3b0000000017a914211501b22361dfcf56ca079ed8dd73697e84441d8700000000", "vin": [{"sequence": 4294967294, "scriptSig": {"hex": "00483045022100d0e3ead8d722ffeb83212d3c614cb1b5e47b5f0f906590e117eb438f756858cf022043e4f8c7324c766ba01ec7b420db0f842a299610e542f72ea5cc6936cf8e474101483045022100b5d30844c73d44de34bf557a53ee869308799a684f0b9fbfae6ec421b0725e19022070838b9319bc2dca01fa3e86e1f64a83864be469c295595652c3389975f38f5b014c695221030572edcaa44eedee4bf81027121c8c32f560c8d7d1b511f3860d63896d4f787e21038dc86701707f57ffc7c9604485900bb555f67b07cbe04a963c1f6eb6807bce392103f0b7f44bd61e81a6c06abe6273936754ebd68e1f09ae58f8037e12a695918d2f53ae", "asm": "0 3045022100d0e3ead8d722ffeb83212d3c614cb1b5e47b5f0f906590e117eb438f756858cf022043e4f8c7324c766ba01ec7b420db0f842a299610e542f72ea5cc6936cf8e4741[ALL] 3045022100b5d30844c73d44de34bf557a53ee869308799a684f0b9fbfae6ec421b0725e19022070838b9319bc2dca01fa3e86e1f64a83864be469c295595652c3389975f38f5b[ALL] 5221030572edcaa44eedee4bf81027121c8c32f560c8d7d1b511f3860d63896d4f787e21038dc86701707f57ffc7c9604485900bb555f67b07cbe04a963c1f6eb6807bce392103f0b7f44bd61e81a6c06abe6273936754ebd68e1f09ae58f8037e12a695918d2f53ae"}, "vout": 1, "txid": "652a8ccd8c18a3610aacd0aee9b54bd35b8a18a87a5facb085c10639ac4b1dd1"}, {"sequence": 4294967294, "scriptSig": {"hex": "00473044022026821ca598fea7192168b5e35ef4abafb9e28059df616a1ed4e63e0c11a7676602201f3547cf681dcaa903bce5b78e7653f50e500c4fb6d2e2a9a9a27de591abb9c201483045022100c353cd424689209a23f4fd6ff096b7e48e24d168679df4ecdeaf9f9f5b98b8fa02204b61d7fe4602f972fa55d03fedd1842292921b0bafb097d550dbddafe0d89af9014c695221029fe4c8c70ffd5987dbc493e4b7ec5cfeda8d7f72b33dc379bb8485a13ab67b9a21038b06077dfa8491467226cfe53e2142624e2b3c5135515f02ec30a26aa625e8552103b870e103f55c8deeca1e7f50a37e38eb97c167f7cf2e21dfb6b9ca7c8d68fb5153ae", "asm": "0 3044022026821ca598fea7192168b5e35ef4abafb9e28059df616a1ed4e63e0c11a7676602201f3547cf681dcaa903bce5b78e7653f50e500c4fb6d2e2a9a9a27de591abb9c2[ALL] 3045022100c353cd424689209a23f4fd6ff096b7e48e24d168679df4ecdeaf9f9f5b98b8fa02204b61d7fe4602f972fa55d03fedd1842292921b0bafb097d550dbddafe0d89af9[ALL] 5221029fe4c8c70ffd5987dbc493e4b7ec5cfeda8d7f72b33dc379bb8485a13ab67b9a21038b06077dfa8491467226cfe53e2142624e2b3c5135515f02ec30a26aa625e8552103b870e103f55c8deeca1e7f50a37e38eb97c167f7cf2e21dfb6b9ca7c8d68fb5153ae"}, "vout": 3, "txid": "ac29abb39cbedaa4249e80aae9f18b83d3ef8d355f1b171febd3fd59af73f80d"}], "txid": "294338b26c0edb52d7ef30416675b93d60d5178727266b12072ef01da60b8583", "blocktime": 1537873891, "version": 1, "confirmations": 11478, "time": 1537873891, "locktime": 0, "vsize": 667, "size": 667}