{"hash": "29495f00977e89999890dd9e3230a1ecd6556d74f2a8ca812a02aee39ae24027", "blockhash": "0000000000000000000dcc0f55137456b1a82d3642486a52398922ac4d620174", "vout": [{"scriptPubKey": {"reqSigs": 1, "hex": "76a9148c3495961b9e612f4d3f696c7fe6f280d4974d7d88ac", "addresses": ["1DnLbUnJV6VAdawM1ia61ScFtTiYMTfKAW"], "asm": "OP_DUP OP_HASH160 8c3495961b9e612f4d3f696c7fe6f280d4974d7d OP_EQUALVERIFY OP_CHECKSIG", "type": "pubkeyhash"}, "value": 0.0004536, "n": 0}, {"scriptPubKey": {"reqSigs": 1, "hex": "76a914bd8cf7ce96fa121df17537af42e12ebfd26a3b6788ac", "addresses": ["1JHFatGsFjpnEJQ8JfBgd8oEtoBn3t18zC"], "asm": "OP_DUP OP_HASH160 bd8cf7ce96fa121df17537af42e12ebfd26a3b67 OP_EQUALVERIFY OP_CHECKSIG", "type": "pubkeyhash"}, "value": 8.346e-05, "n": 1}], "hex": "01000000022efa08c5499915a6d282b2e26cee14e1d72f9baf42afa1fe28f44bd1a5e95d3401000000da00473044022002acca75669e087e3a5f522c263d8071667e11c5e9a75be9d013743e17182beb0220074f65a932a9cc11956d4b4f48fb6fa6106828c3ee067a109c94af31fd97835b01483045022100abe1fbf83be6ed464dcc3dcb8f4f02181323f70792582d0b134431a2e4dd7aa402200e712a3029e311f5afbe0a80a085f0d7b3a27dc07862b03f28e69b02f4a1690401475221024f54ecfabeb4b012bf0754e6f0ea0fd4f4b668282f44dd7a375c82b4781cfebe2102907a54bed8ad74b3f35638c60114ca240a308cb986f3f2f306178869a8880b6152aefffffffffbc1b900f59c8f66df49cf5679037ce6b7cfc9785dfe35c60f93eae206bc3aeb010000006a47304402201a746979ce677e1eee6ccaef3ced77ec1d0efb20c9c23223995b1d6a93798b2d022004481cfca3e2b58f2b7781c971d0acc3b9e23ad118ed6b8a0e109275db20d85e012102148a8ec2ffd454b2c4200b0304d5a043cba05b7590dc3b7328a4ab0ec8bbd585ffffffff0230b10000000000001976a9148c3495961b9e612f4d3f696c7fe6f280d4974d7d88ac9a200000000000001976a914bd8cf7ce96fa121df17537af42e12ebfd26a3b6788ac00000000", "vin": [{"sequence": 4294967295, "scriptSig": {"hex": "00473044022002acca75669e087e3a5f522c263d8071667e11c5e9a75be9d013743e17182beb0220074f65a932a9cc11956d4b4f48fb6fa6106828c3ee067a109c94af31fd97835b01483045022100abe1fbf83be6ed464dcc3dcb8f4f02181323f70792582d0b134431a2e4dd7aa402200e712a3029e311f5afbe0a80a085f0d7b3a27dc07862b03f28e69b02f4a1690401475221024f54ecfabeb4b012bf0754e6f0ea0fd4f4b668282f44dd7a375c82b4781cfebe2102907a54bed8ad74b3f35638c60114ca240a308cb986f3f2f306178869a8880b6152ae", "asm": "0 3044022002acca75669e087e3a5f522c263d8071667e11c5e9a75be9d013743e17182beb0220074f65a932a9cc11956d4b4f48fb6fa6106828c3ee067a109c94af31fd97835b[ALL] 3045022100abe1fbf83be6ed464dcc3dcb8f4f02181323f70792582d0b134431a2e4dd7aa402200e712a3029e311f5afbe0a80a085f0d7b3a27dc07862b03f28e69b02f4a16904[ALL] 5221024f54ecfabeb4b012bf0754e6f0ea0fd4f4b668282f44dd7a375c82b4781cfebe2102907a54bed8ad74b3f35638c60114ca240a308cb986f3f2f306178869a8880b6152ae"}, "vout": 1, "txid": "345de9a5d14bf428fea1af42af9b2fd7e114ee6ce2b282d2a6159949c508fa2e"}, {"sequence": 4294967295, "scriptSig": {"hex": "47304402201a746979ce677e1eee6ccaef3ced77ec1d0efb20c9c23223995b1d6a93798b2d022004481cfca3e2b58f2b7781c971d0acc3b9e23ad118ed6b8a0e109275db20d85e012102148a8ec2ffd454b2c4200b0304d5a043cba05b7590dc3b7328a4ab0ec8bbd585", "asm": "304402201a746979ce677e1eee6ccaef3ced77ec1d0efb20c9c23223995b1d6a93798b2d022004481cfca3e2b58f2b7781c971d0acc3b9e23ad118ed6b8a0e109275db20d85e[ALL] 02148a8ec2ffd454b2c4200b0304d5a043cba05b7590dc3b7328a4ab0ec8bbd585"}, "vout": 1, "txid": "eb3abc06e2ea930fc635fe5d78c9cfb7e67c037956cf49df668f9cf500b9c1fb"}], "txid": "29495f00977e89999890dd9e3230a1ecd6556d74f2a8ca812a02aee39ae24027", "blocktime": 1537870268, "version": 1, "confirmations": 11518, "time": 1537870268, "locktime": 0, "vsize": 484, "size": 484}