{"hash": "79fef19734eba2fb251eaa953f2d0b978b60d970ddb1e7cec454c027bd2b7d15", "blockhash": "0000000000000000000e13cef7c366c0283d82e591d1acd082e914b08063cdf1", "vout": [{"scriptPubKey": {"reqSigs": 1, "hex": "a9140f58aaefc0aaa4fbc418b2f9b89f34ef4be5b6de87", "addresses": ["336AHANmJdxHwf7yXTtUTzjicvmpFPDKVv"], "asm": "OP_HASH160 0f58aaefc0aaa4fbc418b2f9b89f34ef4be5b6de OP_EQUAL", "type": "scripthash"}, "value": 0.0008316, "n": 0}, {"scriptPubKey": {"reqSigs": 1, "hex": "a9140be7846be16b05bea00dbec2fcd7e045a793cb1787", "addresses": ["32mxhko5mJHfkbkDPpz7SfdJwEJi21P1WK"], "asm": "OP_HASH160 0be7846be16b05bea00dbec2fcd7e045a793cb17 OP_EQUAL", "type": "scripthash"}, "value": 0.19559755, "n": 1}], "hex": "0100000000010116b6fa7c5c94d7fb0fb84216100e86ab08f17454b2a9f1bc79e226711a86d55701000000232200202c66ece6da72bcbfeadf83a91236f4891c13e14d8ecebdcaa81666fc1aa73a31ffffffff02d84401000000000017a9140f58aaefc0aaa4fbc418b2f9b89f34ef4be5b6de874b752a010000000017a9140be7846be16b05bea00dbec2fcd7e045a793cb1787040047304402202341b22fa99c75cbd806fcfe5492b9de3774a7546f12c1525609163240240add02202c031c945cf7e1b7e7028516e183fa5ecb45553058b4ffc098a1278325bdb76a01483045022100ab0c0ab10c1c217ba2f602ca289624a2542790e831e7e33a4d538c4045327bb302204e1b4915e7f17b226886b5783fc351feaef2397e3bcc81189d4b883b864e74c801475221029e6fbb942d34a473faaa5557c1bfe08d72102f0b9754ad140fd369d7a3ba3cdc2103871fc2ca08e6950b38867e8e6a0e94ee625223d3aa0df5c65f414c6d784467e252ae00000000", "vin": [{"txinwitness": ["", "304402202341b22fa99c75cbd806fcfe5492b9de3774a7546f12c1525609163240240add02202c031c945cf7e1b7e7028516e183fa5ecb45553058b4ffc098a1278325bdb76a01", "3045022100ab0c0ab10c1c217ba2f602ca289624a2542790e831e7e33a4d538c4045327bb302204e1b4915e7f17b226886b5783fc351feaef2397e3bcc81189d4b883b864e74c801", "5221029e6fbb942d34a473faaa5557c1bfe08d72102f0b9754ad140fd369d7a3ba3cdc2103871fc2ca08e6950b38867e8e6a0e94ee625223d3aa0df5c65f414c6d784467e252ae"], "sequence": 4294967295, "scriptSig": {"hex": "2200202c66ece6da72bcbfeadf83a91236f4891c13e14d8ecebdcaa81666fc1aa73a31", "asm": "00202c66ece6da72bcbfeadf83a91236f4891c13e14d8ecebdcaa81666fc1aa73a31"}, "vout": 1, "txid": "57d5861a7126e279bcf1a9b25474f108ab860e101642b80ffbd7945c7cfab616"}], "txid": "294f329a4a5ff285b1d04c4342a19446e0560cd4514d80d4fb3e201aabd3f5a0", "blocktime": 1537871767, "version": 1, "confirmations": 11495, "time": 1537871767, "locktime": 0, "vsize": 206, "size": 371}