{"hash": "29548e5f050f30cc9adfb3011e08aa71f88581d8fadc53d28e200a2183624071", "blockhash": "0000000000000000000dcc0f55137456b1a82d3642486a52398922ac4d620174", "vout": [{"scriptPubKey": {"reqSigs": 1, "hex": "76a91487b0f3adb97874708702e6b9380d1adbf3e4c1c488ac", "addresses": ["1DNUCjFqPH9i6bSg1U4XJiJoLv1oXQ7WfZ"], "asm": "OP_DUP OP_HASH160 87b0f3adb97874708702e6b9380d1adbf3e4c1c4 OP_EQUALVERIFY OP_CHECKSIG", "type": "pubkeyhash"}, "value": 0.00647756, "n": 0}, {"scriptPubKey": {"type": "nulldata", "hex": "6a4c50000077690001e16adf787b9c776d180ae71886aeaeacb577c031fc3a016b46dc7dc7d096767c5c8e047d65f6f2e17fb8c48d12e95baa083406136613f5d78da11d100759d4ba30d2c37bb011d97e02cf", "asm": "OP_RETURN 000077690001e16adf787b9c776d180ae71886aeaeacb577c031fc3a016b46dc7dc7d096767c5c8e047d65f6f2e17fb8c48d12e95baa083406136613f5d78da11d100759d4ba30d2c37bb011d97e02cf"}, "value": 0.0, "n": 1}], "hex": "010000000191d08e0415222bd524c561534e83d62668e842c3459582978e3086b061f6fd1e010000006a47304402202251b2979302aded3e5f7318c93220c20afa45c91bd221c72b0c2c153b68851c02207adb35c08cc91f36c9deda53ba244b059fb62e703590295f329814ef03c0853c0121038d278227064bbe1280671709585fb92fef0583338eb23c9be74e38bae7101a4cffffffff024ce20900000000001976a91487b0f3adb97874708702e6b9380d1adbf3e4c1c488ac0000000000000000536a4c50000077690001e16adf787b9c776d180ae71886aeaeacb577c031fc3a016b46dc7dc7d096767c5c8e047d65f6f2e17fb8c48d12e95baa083406136613f5d78da11d100759d4ba30d2c37bb011d97e02cf00000000", "vin": [{"sequence": 4294967295, "scriptSig": {"hex": "47304402202251b2979302aded3e5f7318c93220c20afa45c91bd221c72b0c2c153b68851c02207adb35c08cc91f36c9deda53ba244b059fb62e703590295f329814ef03c0853c0121038d278227064bbe1280671709585fb92fef0583338eb23c9be74e38bae7101a4c", "asm": "304402202251b2979302aded3e5f7318c93220c20afa45c91bd221c72b0c2c153b68851c02207adb35c08cc91f36c9deda53ba244b059fb62e703590295f329814ef03c0853c[ALL] 038d278227064bbe1280671709585fb92fef0583338eb23c9be74e38bae7101a4c"}, "vout": 1, "txid": "1efdf661b086308e97829545c342e86826d6834e5361c524d52b2215048ed091"}], "txid": "29548e5f050f30cc9adfb3011e08aa71f88581d8fadc53d28e200a2183624071", "blocktime": 1537870268, "version": 1, "confirmations": 11518, "time": 1537870268, "locktime": 0, "vsize": 283, "size": 283}