{"hash": "295b6ba361ec49091616068f8d003017d15278306f7ee9198432957e879377af", "blockhash": "00000000000000000018f53835495a110e01622372bf6ae95dc86f2b0ab887b0", "vout": [{"scriptPubKey": {"reqSigs": 1, "hex": "76a9141e88817a75a154c56083fb81acb519f169be405188ac", "addresses": ["13nSoLrv2zCD9F3ENg23PxkmWEzY3j9aPo"], "asm": "OP_DUP OP_HASH160 1e88817a75a154c56083fb81acb519f169be4051 OP_EQUALVERIFY OP_CHECKSIG", "type": "pubkeyhash"}, "value": 5.9e-06, "n": 0}, {"scriptPubKey": {"reqSigs": 1, "hex": "a914dbe6458649d0c4e94f4dc67eedeb3447b0f0705d87", "addresses": ["3Mjjm71pPMcJ6Wyo5VybcNWQd7dFS1Zrmo"], "asm": "OP_HASH160 dbe6458649d0c4e94f4dc67eedeb3447b0f0705d OP_EQUAL", "type": "scripthash"}, "value": 0.01697, "n": 1}], "hex": "0100000001b36a58c77ee63eab6719351a830198b99e0c12de8db60de60218e6d46989d62a000000006b483045022100e43ad297617e7c98d6feb3266fd0cf55cd50c653907570b9fc390518e415a21a0220514b018cb1a377a2fb0b2db1fd16031ea8877ae70743d91f9fba03b22e68c9de012102975fcc1a68d6594d951400033bc6cef2e89c3a52cc810dd9c75440439afad600ffffffff024e020000000000001976a9141e88817a75a154c56083fb81acb519f169be405188ace8e419000000000017a914dbe6458649d0c4e94f4dc67eedeb3447b0f0705d8700000000", "vin": [{"sequence": 4294967295, "scriptSig": {"hex": "483045022100e43ad297617e7c98d6feb3266fd0cf55cd50c653907570b9fc390518e415a21a0220514b018cb1a377a2fb0b2db1fd16031ea8877ae70743d91f9fba03b22e68c9de012102975fcc1a68d6594d951400033bc6cef2e89c3a52cc810dd9c75440439afad600", "asm": "3045022100e43ad297617e7c98d6feb3266fd0cf55cd50c653907570b9fc390518e415a21a0220514b018cb1a377a2fb0b2db1fd16031ea8877ae70743d91f9fba03b22e68c9de[ALL] 02975fcc1a68d6594d951400033bc6cef2e89c3a52cc810dd9c75440439afad600"}, "vout": 0, "txid": "2ad68969d4e61802e60db68dde120c9eb99801831a351967ab3ee67ec7586ab3"}], "txid": "295b6ba361ec49091616068f8d003017d15278306f7ee9198432957e879377af", "blocktime": 1537870928, "version": 1, "confirmations": 11514, "time": 1537870928, "locktime": 0, "vsize": 224, "size": 224}