{"hash": "295da1fc5bf97a74bd497fa459da0a930ba0bfb9c48f5e37a3c8e323d832dd74", "blockhash": "0000000000000000001f76057863aec43deb6fa401d9628bb513d65a8098bfab", "vout": [{"scriptPubKey": {"reqSigs": 1, "hex": "76a9145190a9ec40abfdadebe75fbe855274debd893cb488ac", "addresses": ["18SH2xFZSVK4DfPUMXWzUUh7K9LrfcuaTB"], "asm": "OP_DUP OP_HASH160 5190a9ec40abfdadebe75fbe855274debd893cb4 OP_EQUALVERIFY OP_CHECKSIG", "type": "pubkeyhash"}, "value": 0.00290209, "n": 0}, {"scriptPubKey": {"reqSigs": 1, "hex": "a91403cd61cf7955ce4c2fb0a5d75d8e59c0349f978787", "addresses": ["3237zKGZ1kWAc7GkkPkMiY5HHCr92FwFtt"], "asm": "OP_HASH160 03cd61cf7955ce4c2fb0a5d75d8e59c0349f9787 OP_EQUAL", "type": "scripthash"}, "value": 0.0201, "n": 1}], "hex": "01000000020d8f4d79b58b1e29422ea844cbe087e936ec763a3e753939a042c2fc3d746b42050000006a47304402200e6dc722827f8b6e76d22ade928dd2adcf6cfdb6b553731fd9e5befcda1d07f802202f3f1332a319caefcd0ad98dbc4346bd6a10e6173f3918bf660d8479115ce77b012103b75973982db6053499823c26e8b2ad4a5873ca78bf5d2ab7eff3e9007c41eec0ffffffff9a3557687f545b23a8c0ca1d31f8f432490517df1193683d8019b79448ffffeb000000006a47304402200c7c44f840127a25191ea99ff419dea3a023e81b43090c63434af406a9fbc8640220132ba3636526de5b2063950d10aa73fbef59d8784c0d841c99c36657e2a7f1760121025a9993175253458a889ef5f62df433606ea24d93e6ac9857cadab36cfa464f8dffffffff02a16d0400000000001976a9145190a9ec40abfdadebe75fbe855274debd893cb488ac90ab1e000000000017a91403cd61cf7955ce4c2fb0a5d75d8e59c0349f97878700000000", "vin": [{"sequence": 4294967295, "scriptSig": {"hex": "47304402200e6dc722827f8b6e76d22ade928dd2adcf6cfdb6b553731fd9e5befcda1d07f802202f3f1332a319caefcd0ad98dbc4346bd6a10e6173f3918bf660d8479115ce77b012103b75973982db6053499823c26e8b2ad4a5873ca78bf5d2ab7eff3e9007c41eec0", "asm": "304402200e6dc722827f8b6e76d22ade928dd2adcf6cfdb6b553731fd9e5befcda1d07f802202f3f1332a319caefcd0ad98dbc4346bd6a10e6173f3918bf660d8479115ce77b[ALL] 03b75973982db6053499823c26e8b2ad4a5873ca78bf5d2ab7eff3e9007c41eec0"}, "vout": 5, "txid": "426b743dfcc242a03939753e3a76ec36e987e0cb44a82e42291e8bb5794d8f0d"}, {"sequence": 4294967295, "scriptSig": {"hex": "47304402200c7c44f840127a25191ea99ff419dea3a023e81b43090c63434af406a9fbc8640220132ba3636526de5b2063950d10aa73fbef59d8784c0d841c99c36657e2a7f1760121025a9993175253458a889ef5f62df433606ea24d93e6ac9857cadab36cfa464f8d", "asm": "304402200c7c44f840127a25191ea99ff419dea3a023e81b43090c63434af406a9fbc8640220132ba3636526de5b2063950d10aa73fbef59d8784c0d841c99c36657e2a7f176[ALL] 025a9993175253458a889ef5f62df433606ea24d93e6ac9857cadab36cfa464f8d"}, "vout": 0, "txid": "ebffff4894b719803d689311df17054932f4f8311dcac0a8235b547f6857359a"}], "txid": "295da1fc5bf97a74bd497fa459da0a930ba0bfb9c48f5e37a3c8e323d832dd74", "blocktime": 1537873891, "version": 1, "confirmations": 11478, "time": 1537873891, "locktime": 0, "vsize": 370, "size": 370}