{"hash": "29626d38daf8f9d1c3eb7b937db0c2a400d7ecd71c1b14083324000bef59bc65", "blockhash": "00000000000000000024a2167bbff67b0be802c0b01cdd79e6331c2be6459f87", "vout": [{"scriptPubKey": {"reqSigs": 1, "hex": "a914dd849264329169f71ffc6940762292ef1ad83de687", "addresses": ["3MtJ5C3ni6vYq4cmy1cruAEqaNbKmTkeAn"], "asm": "OP_HASH160 dd849264329169f71ffc6940762292ef1ad83de6 OP_EQUAL", "type": "scripthash"}, "value": 0.01247917, "n": 0}, {"scriptPubKey": {"reqSigs": 1, "hex": "76a9141398bda8ee05364c4bf36d23a5de4a8214f3859e88ac", "addresses": ["12ncpGQqddwMATUWCS6d4RuQXjKMxpQAE9"], "asm": "OP_DUP OP_HASH160 1398bda8ee05364c4bf36d23a5de4a8214f3859e OP_EQUALVERIFY OP_CHECKSIG", "type": "pubkeyhash"}, "value": 0.01287098, "n": 1}], "hex": "010000000201af434a5f9ca0fe3da4aec73ff9d71646a1308219354f015ed4f3dcbc8a1c78010000006b483045022100ed3596e01a09322f769e8a3eab8df3fe260cfbb6dc9da3cfa941a8e87e82c4ba02205f847b5fb039ca58292cae01cdce3249e6affe2fca25f7ccddba7ad78dfcae7a0121021638bf05c77539755df1fbe8ff6a045e21a840b9e92443cb03f750883009cd95ffffffff213bba62804ef3f44cdf6c14eb7bff9da62bc957a632c9fe4f8b49a994f52ff1000000006a47304402205ca80ca509445425562232e52393fb338c82a943f8a8aed754f8f6619a2657f1022059469ef3e1a96876c119613ca3e55b0cc776f3d28e8b6a79d6693a02ac40eaac012103f5c72139e24bd1d7f50d33d97c786a522de8397deecc7238dfdbe5d5ec3ac5edffffffff02ad0a13000000000017a914dd849264329169f71ffc6940762292ef1ad83de687baa31300000000001976a9141398bda8ee05364c4bf36d23a5de4a8214f3859e88ac00000000", "vin": [{"sequence": 4294967295, "scriptSig": {"hex": "483045022100ed3596e01a09322f769e8a3eab8df3fe260cfbb6dc9da3cfa941a8e87e82c4ba02205f847b5fb039ca58292cae01cdce3249e6affe2fca25f7ccddba7ad78dfcae7a0121021638bf05c77539755df1fbe8ff6a045e21a840b9e92443cb03f750883009cd95", "asm": "3045022100ed3596e01a09322f769e8a3eab8df3fe260cfbb6dc9da3cfa941a8e87e82c4ba02205f847b5fb039ca58292cae01cdce3249e6affe2fca25f7ccddba7ad78dfcae7a[ALL] 021638bf05c77539755df1fbe8ff6a045e21a840b9e92443cb03f750883009cd95"}, "vout": 1, "txid": "781c8abcdcf3d45e014f35198230a14616d7f93fc7aea43dfea09c5f4a43af01"}, {"sequence": 4294967295, "scriptSig": {"hex": "47304402205ca80ca509445425562232e52393fb338c82a943f8a8aed754f8f6619a2657f1022059469ef3e1a96876c119613ca3e55b0cc776f3d28e8b6a79d6693a02ac40eaac012103f5c72139e24bd1d7f50d33d97c786a522de8397deecc7238dfdbe5d5ec3ac5ed", "asm": "304402205ca80ca509445425562232e52393fb338c82a943f8a8aed754f8f6619a2657f1022059469ef3e1a96876c119613ca3e55b0cc776f3d28e8b6a79d6693a02ac40eaac[ALL] 03f5c72139e24bd1d7f50d33d97c786a522de8397deecc7238dfdbe5d5ec3ac5ed"}, "vout": 0, "txid": "f12ff594a9498b4ffec932a657c92ba69dff7beb146cdf4cf4f34e8062ba3b21"}], "txid": "29626d38daf8f9d1c3eb7b937db0c2a400d7ecd71c1b14083324000bef59bc65", "blocktime": 1537870564, "version": 1, "confirmations": 11515, "time": 1537870564, "locktime": 0, "vsize": 371, "size": 371}