{"hash": "29636fd4ba8970be8aa6570ea877b0e4859c5d465553315674f5a730004e0212", "blockhash": "00000000000000000018f53835495a110e01622372bf6ae95dc86f2b0ab887b0", "vout": [{"scriptPubKey": {"reqSigs": 1, "hex": "a9148815d5733743847836bb34bf9e15d83fdd8fe2ad87", "addresses": ["3E6ZyfsPRAv9qwgSWJoHksYVXoZkqYo3Cp"], "asm": "OP_HASH160 8815d5733743847836bb34bf9e15d83fdd8fe2ad OP_EQUAL", "type": "scripthash"}, "value": 0.00078179, "n": 0}, {"scriptPubKey": {"reqSigs": 1, "hex": "76a91442fb7b6ad7c3c31cf4e131aafb0247ae9935c49d88ac", "addresses": ["177ArwiX3vAgCdW17RKpgsCB3d71k1gQkG"], "asm": "OP_DUP OP_HASH160 42fb7b6ad7c3c31cf4e131aafb0247ae9935c49d OP_EQUALVERIFY OP_CHECKSIG", "type": "pubkeyhash"}, "value": 0.00011865, "n": 1}], "hex": "01000000012a3bb558d9afe1454f322d0db6e6f95f8185ebb3bdceed825fb532d5e0ec9816010000006a473044022040b790200e360b5ac8472e3f2b9e8e267457a239dd7346ae898641e6925a40c9022009452db8f093eeacf0db7f67c127b81e70b31f6b52a7a35cd7d4e3a393ffb49c01210321ca73a3841ed86387adb27d15a1dc590a52cf72ee3e4267681047bffac6da9affffffff02633101000000000017a9148815d5733743847836bb34bf9e15d83fdd8fe2ad87592e0000000000001976a91442fb7b6ad7c3c31cf4e131aafb0247ae9935c49d88ac00000000", "vin": [{"sequence": 4294967295, "scriptSig": {"hex": "473044022040b790200e360b5ac8472e3f2b9e8e267457a239dd7346ae898641e6925a40c9022009452db8f093eeacf0db7f67c127b81e70b31f6b52a7a35cd7d4e3a393ffb49c01210321ca73a3841ed86387adb27d15a1dc590a52cf72ee3e4267681047bffac6da9a", "asm": "3044022040b790200e360b5ac8472e3f2b9e8e267457a239dd7346ae898641e6925a40c9022009452db8f093eeacf0db7f67c127b81e70b31f6b52a7a35cd7d4e3a393ffb49c[ALL] 0321ca73a3841ed86387adb27d15a1dc590a52cf72ee3e4267681047bffac6da9a"}, "vout": 1, "txid": "1698ece0d532b55f82edcebdb3eb85815ff9e6b60d2d324f45e1afd958b53b2a"}], "txid": "29636fd4ba8970be8aa6570ea877b0e4859c5d465553315674f5a730004e0212", "blocktime": 1537870928, "version": 1, "confirmations": 11512, "time": 1537870928, "locktime": 0, "vsize": 223, "size": 223}