{"hash": "296cc3edc7df91149e5c7491a06692fd3021f3aef9946c317c4e0dddec9f2067", "blockhash": "0000000000000000000baef3f32e3676a92c3b2e5da21b426e4f302fc371ce76", "vout": [{"scriptPubKey": {"type": "nulldata", "hex": "6a4c500000781400015db435de848d4898009fffa1702940d64fa54d8eb2d19ed074892d00f8e8966f861419e591b40a61c2bfa2d1b1055baa1bca06151c4efe29a49f1d100759d4ba30d2c37bb011d97e02cf", "asm": "OP_RETURN 0000781400015db435de848d4898009fffa1702940d64fa54d8eb2d19ed074892d00f8e8966f861419e591b40a61c2bfa2d1b1055baa1bca06151c4efe29a49f1d100759d4ba30d2c37bb011d97e02cf"}, "value": 0.0, "n": 0}, {"scriptPubKey": {"reqSigs": 1, "hex": "76a914b662a20879ecdea47cc12e6e4c0d26cfa13ae30688ac", "addresses": ["1HdN93uTygqsj3ksd5NuG5m4Rv8Qn4WuEQ"], "asm": "OP_DUP OP_HASH160 b662a20879ecdea47cc12e6e4c0d26cfa13ae306 OP_EQUALVERIFY OP_CHECKSIG", "type": "pubkeyhash"}, "value": 0.00629616, "n": 1}], "hex": "0100000001ab36dbbfe077cca0d79b5a477b74118623707807cde2bb8593a41c4046ae423c010000006a47304402206b2d4b1a2f2c8ae6d370de317ea0687dea5b7fd3d26da2d40f714951eece9a490220110bf37e041463eaac6f6c56fb3899d4539119c20ec0495812592b0e2b12880e012103e3b70aff016b934a40ded658f43a4102c175609b3ba602bb5f4d5bbf4f81b776ffffffff020000000000000000536a4c500000781400015db435de848d4898009fffa1702940d64fa54d8eb2d19ed074892d00f8e8966f861419e591b40a61c2bfa2d1b1055baa1bca06151c4efe29a49f1d100759d4ba30d2c37bb011d97e02cf709b0900000000001976a914b662a20879ecdea47cc12e6e4c0d26cfa13ae30688ac00000000", "vin": [{"sequence": 4294967295, "scriptSig": {"hex": "47304402206b2d4b1a2f2c8ae6d370de317ea0687dea5b7fd3d26da2d40f714951eece9a490220110bf37e041463eaac6f6c56fb3899d4539119c20ec0495812592b0e2b12880e012103e3b70aff016b934a40ded658f43a4102c175609b3ba602bb5f4d5bbf4f81b776", "asm": "304402206b2d4b1a2f2c8ae6d370de317ea0687dea5b7fd3d26da2d40f714951eece9a490220110bf37e041463eaac6f6c56fb3899d4539119c20ec0495812592b0e2b12880e[ALL] 03e3b70aff016b934a40ded658f43a4102c175609b3ba602bb5f4d5bbf4f81b776"}, "vout": 1, "txid": "3c42ae46401ca49385bbe2cd077870238611747b475a9bd7a0cc77e0bfdb36ab"}], "txid": "296cc3edc7df91149e5c7491a06692fd3021f3aef9946c317c4e0dddec9f2067", "blocktime": 1537876114, "version": 1, "confirmations": 11463, "time": 1537876114, "locktime": 0, "vsize": 283, "size": 283}