{"hash": "474d968e8535442bbc059bc2f6ee55f83ed31cca1b7e7fe22910e9a022030242", "blockhash": "000000000000000000022b45ed06c6f4ccd3cf7fb5ba4856ebd2e58215665228", "vout": [{"scriptPubKey": {"reqSigs": 1, "hex": "001490bcfe556fac80df474b7824a8c709219161dd1a", "addresses": ["bc1qjz70u4t04jqd736t0qj233cfyxgkrhg6kkawmv"], "asm": "0 90bcfe556fac80df474b7824a8c709219161dd1a", "type": "witness_v0_keyhash"}, "value": 1.101e-05, "n": 0}, {"scriptPubKey": {"reqSigs": 1, "hex": "76a91417d9213fb43e1c2d66f8f5817a9c3a6db937c3d488ac", "addresses": ["13B6erup8crWG87712SBhdg9jt4Dqvoz9N"], "asm": "OP_DUP OP_HASH160 17d9213fb43e1c2d66f8f5817a9c3a6db937c3d4 OP_EQUALVERIFY OP_CHECKSIG", "type": "pubkeyhash"}, "value": 0.00091579, "n": 1}], "hex": "010000000001019b5272d58a850919777a3541b45e00d118844fc42f404baec900d6567812e8180100000017160014583242c2a7f5915eb0a03e013c0554845bfee073ffffffff024d0400000000000016001490bcfe556fac80df474b7824a8c709219161dd1abb650100000000001976a91417d9213fb43e1c2d66f8f5817a9c3a6db937c3d488ac02483045022100f202f8c8f260e68fb37002f3274b76dd3d1707f6892c1e38044c248e1dcf335c0220526ca1218cc6fbe8b089b65e1bd2f51ae9fbe42618b133b67e19514f6da2f5ac012103ad05114b517eeefd87fc30655b587ea01b6015e4a48c9b19511ee5225016612000000000", "vin": [{"txinwitness": ["3045022100f202f8c8f260e68fb37002f3274b76dd3d1707f6892c1e38044c248e1dcf335c0220526ca1218cc6fbe8b089b65e1bd2f51ae9fbe42618b133b67e19514f6da2f5ac01", "03ad05114b517eeefd87fc30655b587ea01b6015e4a48c9b19511ee52250166120"], "sequence": 4294967295, "scriptSig": {"hex": "160014583242c2a7f5915eb0a03e013c0554845bfee073", "asm": "0014583242c2a7f5915eb0a03e013c0554845bfee073"}, "vout": 1, "txid": "18e8127856d600c9ae4b402fc44f8418d1005eb441357a771909858ad572529b"}], "txid": "29720f48a0292a25cba700994a5906b845efe10ab37f7f2429ac077b1cc41607", "blocktime": 1537869901, "version": 1, "confirmations": 11523, "time": 1537869901, "locktime": 0, "vsize": 167, "size": 249}