{"hash": "2976c3fe7516d2fbc363790a3e2b0281549ccc0ac3158a43a24cfbd400a146d5", "blockhash": "00000000000000000017f5eb5941039fbcee6240d03bc1f2f8e35350df66a1d8", "vout": [{"scriptPubKey": {"reqSigs": 1, "hex": "a91469cd86b0b47b1b7850e12294a1579c0f87423ac887", "addresses": ["3BLT5thBtVJ8kihVXDGNRPK7u43ngSkJTN"], "asm": "OP_HASH160 69cd86b0b47b1b7850e12294a1579c0f87423ac8 OP_EQUAL", "type": "scripthash"}, "value": 0.09657317, "n": 0}], "hex": "0100000001362741c1e0801cf751b819a60cabc144d90cb6887c3f16f96d83f47b7a0e9fb7000000006a473044022070a8628693cf81962aa86e41b0eaefae5b5e8eefdc3dc02eafe25637f794cd0902200319f85c76dc7a6d67df6500ba3695b92cbbdc5ddb29485547f3278b96203705012102eb9cc61d48b6f8fce9feaaecbdd643e23621f57672c64cab4dd37f829f428c4affffffff01e55b93000000000017a91469cd86b0b47b1b7850e12294a1579c0f87423ac88700000000", "vin": [{"sequence": 4294967295, "scriptSig": {"hex": "473044022070a8628693cf81962aa86e41b0eaefae5b5e8eefdc3dc02eafe25637f794cd0902200319f85c76dc7a6d67df6500ba3695b92cbbdc5ddb29485547f3278b96203705012102eb9cc61d48b6f8fce9feaaecbdd643e23621f57672c64cab4dd37f829f428c4a", "asm": "3044022070a8628693cf81962aa86e41b0eaefae5b5e8eefdc3dc02eafe25637f794cd0902200319f85c76dc7a6d67df6500ba3695b92cbbdc5ddb29485547f3278b96203705[ALL] 02eb9cc61d48b6f8fce9feaaecbdd643e23621f57672c64cab4dd37f829f428c4a"}, "vout": 0, "txid": "b79f0e7a7bf4836df9163f7c88b60cd944c1ab0ca619b851f71c80e0c1412736"}], "txid": "2976c3fe7516d2fbc363790a3e2b0281549ccc0ac3158a43a24cfbd400a146d5", "blocktime": 1537874412, "version": 1, "confirmations": 11468, "time": 1537874412, "locktime": 0, "vsize": 189, "size": 189}