{"hash": "297d35461fc320d0e54400249e4b895a21909a533939e54f77953e9dd532e082", "blockhash": "00000000000000000017f5eb5941039fbcee6240d03bc1f2f8e35350df66a1d8", "vout": [{"scriptPubKey": {"type": "nulldata", "hex": "6a146f6d6e69000000000000001f0000000000002710", "asm": "OP_RETURN 6f6d6e69000000000000001f0000000000002710"}, "value": 0.0, "n": 0}, {"scriptPubKey": {"reqSigs": 1, "hex": "76a914bbfc4c89ac947faad1b33988a99e9c8c8265c24388ac", "addresses": ["1J8ybuvU1FcztHdcxBAccaUPJruKKfX7xb"], "asm": "OP_DUP OP_HASH160 bbfc4c89ac947faad1b33988a99e9c8c8265c243 OP_EQUALVERIFY OP_CHECKSIG", "type": "pubkeyhash"}, "value": 0.00093601, "n": 1}, {"scriptPubKey": {"reqSigs": 1, "hex": "76a9148b80b2920c044bdfb3ef56f0ded112c06d7ec9f288ac", "addresses": ["1Did6j8R1caPnxGHhLCsFgWZ6bQdWgx9Xm"], "asm": "OP_DUP OP_HASH160 8b80b2920c044bdfb3ef56f0ded112c06d7ec9f2 OP_EQUALVERIFY OP_CHECKSIG", "type": "pubkeyhash"}, "value": 5.46e-06, "n": 2}], "hex": "0100000001125e8c2f5f50ee12129e4fc5009335aebc8dfa4ed9884ab007cb31fcffc016fd020000006b4830450221008b85dd44bb79de4081454b5f0cf2d1639a83bd6714d0348eb306e33c481d275a02201071f9f4c15c5b40ebc31a96a1f4cd8d6a3e5636d4b9ed02d27da58655d92e19012103ff140573bbd7eb60c2eba3819ea7c6b94094e9ceae01f4263b49069a2773c69efeffffff030000000000000000166a146f6d6e69000000000000001f0000000000002710a16d0100000000001976a914bbfc4c89ac947faad1b33988a99e9c8c8265c24388ac22020000000000001976a9148b80b2920c044bdfb3ef56f0ded112c06d7ec9f288ac15490800", "vin": [{"sequence": 4294967294, "scriptSig": {"hex": "4830450221008b85dd44bb79de4081454b5f0cf2d1639a83bd6714d0348eb306e33c481d275a02201071f9f4c15c5b40ebc31a96a1f4cd8d6a3e5636d4b9ed02d27da58655d92e19012103ff140573bbd7eb60c2eba3819ea7c6b94094e9ceae01f4263b49069a2773c69e", "asm": "30450221008b85dd44bb79de4081454b5f0cf2d1639a83bd6714d0348eb306e33c481d275a02201071f9f4c15c5b40ebc31a96a1f4cd8d6a3e5636d4b9ed02d27da58655d92e19[ALL] 03ff140573bbd7eb60c2eba3819ea7c6b94094e9ceae01f4263b49069a2773c69e"}, "vout": 2, "txid": "fd16c0fffc31cb07b04a88d94efa8dbcae359300c54f9e1212ee505f2f8c5e12"}], "txid": "297d35461fc320d0e54400249e4b895a21909a533939e54f77953e9dd532e082", "blocktime": 1537874412, "version": 1, "confirmations": 11467, "time": 1537874412, "locktime": 542997, "vsize": 257, "size": 257}