{"hash": "297d9e4372c420977fb89ae6a2ae903cad36a3436a5fc3eaa092fb945397e63f", "blockhash": "0000000000000000001f76057863aec43deb6fa401d9628bb513d65a8098bfab", "vout": [{"scriptPubKey": {"reqSigs": 1, "hex": "76a914a2cd19c496ced18d8c049558f4f1f99e81e3c8e988ac", "addresses": ["1FqpAikruh2BJMr8dZjaBegQ2Mehb4Jc6t"], "asm": "OP_DUP OP_HASH160 a2cd19c496ced18d8c049558f4f1f99e81e3c8e9 OP_EQUALVERIFY OP_CHECKSIG", "type": "pubkeyhash"}, "value": 0.14998477, "n": 0}], "hex": "0100000001a5c22248e03695c6d21ec9d3b1f7ec697e7e659fa849e750fcf7721b5b4bd432100000006a473044022014e84c81ce57516648b5952f0fc830b549d8f9f8aed545fc3bd6981633968abb022059704f6d30898f6564d789f4a854c9704b4e72fe66ed887ec78595405704a21f012102f92ae69411f0f558e5f0e123617bf7422c77b5a2dc08be8ac0c14448e2e0e8aeffffffff01cddbe400000000001976a914a2cd19c496ced18d8c049558f4f1f99e81e3c8e988ac00000000", "vin": [{"sequence": 4294967295, "scriptSig": {"hex": "473044022014e84c81ce57516648b5952f0fc830b549d8f9f8aed545fc3bd6981633968abb022059704f6d30898f6564d789f4a854c9704b4e72fe66ed887ec78595405704a21f012102f92ae69411f0f558e5f0e123617bf7422c77b5a2dc08be8ac0c14448e2e0e8ae", "asm": "3044022014e84c81ce57516648b5952f0fc830b549d8f9f8aed545fc3bd6981633968abb022059704f6d30898f6564d789f4a854c9704b4e72fe66ed887ec78595405704a21f[ALL] 02f92ae69411f0f558e5f0e123617bf7422c77b5a2dc08be8ac0c14448e2e0e8ae"}, "vout": 16, "txid": "32d44b5b1b72f7fc50e749a89f657e7e69ecf7b1d3c91ed2c69536e04822c2a5"}], "txid": "297d9e4372c420977fb89ae6a2ae903cad36a3436a5fc3eaa092fb945397e63f", "blocktime": 1537873891, "version": 1, "confirmations": 11475, "time": 1537873891, "locktime": 0, "vsize": 191, "size": 191}