{"hash": "297eb90a14badc364653aed6d824d99a3b3e22ee4fd7f8b6a6d76bf8615ae914", "blockhash": "0000000000000000000baef3f32e3676a92c3b2e5da21b426e4f302fc371ce76", "vout": [{"scriptPubKey": {"reqSigs": 1, "hex": "76a9148dc1ef8a7ccb3912ae52af27b5e0786a766f97b188ac", "addresses": ["1DvYbwMrrxNGkBbVyEPM48vU31zZRcj8ag"], "asm": "OP_DUP OP_HASH160 8dc1ef8a7ccb3912ae52af27b5e0786a766f97b1 OP_EQUALVERIFY OP_CHECKSIG", "type": "pubkeyhash"}, "value": 0.00807, "n": 0}], "hex": "010000000337e73281da51ea20c9c49f24027c5d6cd1d468bf141cf742c13f9be840f2e300000000006b483045022100a98abbe3ca2b7fc647e4f412baeea289ed5e4f07ec9b15ef9cd4de308e2b589f022049f61d37d7b79a1496c81df495b19c7729f77d5b3ba165332e01c09dec09cf8e01210341be449f0cf6418bd039da0e1c86eb2d75dad19439a1ad4dcc3d515899584f2fffffffff059149097275cf3eb18d9fd3c35ff6a4884a5f3600ea1dd987305ea1629f33f2000000006b48304502210082b05c074aed720cfcc73790c589ce5187fa01c9fb45b4de76a077da8bd21e3b0220415062684d88e5347a6eff5a0053eafd683fba4bdc2945fc277e4acf4d6c5b9601210231238e23127d55a9419eada66919ae99f7e4fe79eb763165d9f5fdd6986171e5ffffffff1c26ad396c5c51ed943aa892896463cb60c485659bb8d8e47bf3fca7514a7eb8080000006b4830450221009f82029504adbd9f365145818e5c66db920bc5950973428370456a887cd92a9e0220485a21f1080774a2e5319923134035ea192a22157d3926c3847eaa1ab2adcc4001210350f597a363f89c77040939c6eec64f22650ef9cfaf4f391dc5658551342c6ebeffffffff0158500c00000000001976a9148dc1ef8a7ccb3912ae52af27b5e0786a766f97b188ac00000000", "vin": [{"sequence": 4294967295, "scriptSig": {"hex": "483045022100a98abbe3ca2b7fc647e4f412baeea289ed5e4f07ec9b15ef9cd4de308e2b589f022049f61d37d7b79a1496c81df495b19c7729f77d5b3ba165332e01c09dec09cf8e01210341be449f0cf6418bd039da0e1c86eb2d75dad19439a1ad4dcc3d515899584f2f", "asm": "3045022100a98abbe3ca2b7fc647e4f412baeea289ed5e4f07ec9b15ef9cd4de308e2b589f022049f61d37d7b79a1496c81df495b19c7729f77d5b3ba165332e01c09dec09cf8e[ALL] 0341be449f0cf6418bd039da0e1c86eb2d75dad19439a1ad4dcc3d515899584f2f"}, "vout": 0, "txid": "00e3f240e89b3fc142f71c14bf68d4d16c5d7c02249fc4c920ea51da8132e737"}, {"sequence": 4294967295, "scriptSig": {"hex": "48304502210082b05c074aed720cfcc73790c589ce5187fa01c9fb45b4de76a077da8bd21e3b0220415062684d88e5347a6eff5a0053eafd683fba4bdc2945fc277e4acf4d6c5b9601210231238e23127d55a9419eada66919ae99f7e4fe79eb763165d9f5fdd6986171e5", "asm": "304502210082b05c074aed720cfcc73790c589ce5187fa01c9fb45b4de76a077da8bd21e3b0220415062684d88e5347a6eff5a0053eafd683fba4bdc2945fc277e4acf4d6c5b96[ALL] 0231238e23127d55a9419eada66919ae99f7e4fe79eb763165d9f5fdd6986171e5"}, "vout": 0, "txid": "f2339f62a15e3087d91dea00365f4a88a4f65fc3d39f8db13ecf757209499105"}, {"sequence": 4294967295, "scriptSig": {"hex": "4830450221009f82029504adbd9f365145818e5c66db920bc5950973428370456a887cd92a9e0220485a21f1080774a2e5319923134035ea192a22157d3926c3847eaa1ab2adcc4001210350f597a363f89c77040939c6eec64f22650ef9cfaf4f391dc5658551342c6ebe", "asm": "30450221009f82029504adbd9f365145818e5c66db920bc5950973428370456a887cd92a9e0220485a21f1080774a2e5319923134035ea192a22157d3926c3847eaa1ab2adcc40[ALL] 0350f597a363f89c77040939c6eec64f22650ef9cfaf4f391dc5658551342c6ebe"}, "vout": 8, "txid": "b87e4a51a7fcf37be4d8b89b6585c460cb63648992a83a94ed515c6c39ad261c"}], "txid": "297eb90a14badc364653aed6d824d99a3b3e22ee4fd7f8b6a6d76bf8615ae914", "blocktime": 1537876114, "version": 1, "confirmations": 11460, "time": 1537876114, "locktime": 0, "vsize": 488, "size": 488}