{"hash": "297f4a2a77c8d3d77090ed6495af4b27cffb13194ec0c9f61d96702e5ee6dbaf", "blockhash": "0000000000000000001cda96e906b7601b7a6fb1a3b62bca570a9e5d8f4b3de1", "vout": [{"scriptPubKey": {"reqSigs": 1, "hex": "a914a5128be5e8aae8890b121a5c6c761050e60aa31c87", "addresses": ["3GjqdpxE3k9mbdgZmT6WWeSHg6Kb2WbToo"], "asm": "OP_HASH160 a5128be5e8aae8890b121a5c6c761050e60aa31c OP_EQUAL", "type": "scripthash"}, "value": 5.49e-05, "n": 0}], "hex": "0200000001b7f89c5f8a2fe6bb17a728855c860b66ef26df5b39a2ba3375d2cb27608fd030f4020000fdfd000047304402202231287b19de441adbac4d61b06f0f38ed0d08d490a4773c6d132dafecd533a802207eca150cebcdc311c56d263073fe16a71cad153d1609eb79b6a36664dbf7703701483045022100c06041b3cb7d71f0f658430629203a1d2350037895540ef7c729173dc116f2b2022005500d6a97b4790b25f64b37b71cd445726312c8d7611261d9579cfedb7c9912014c69522103d64cb0c21ecc94fdf05c82e039d74d4cc488c431aa2d94eabede9b33b41d441c2102fe7b4a1f9e0faf1922c4651fd6598b6fc5d1dc99ccb2d3dfed31b8340b04d12a210352c6613c867f04ec4a40844f55637a6a752b9afbe5edca43b7ec99ffc5dfc91f53aeffffffff01721500000000000017a914a5128be5e8aae8890b121a5c6c761050e60aa31c8700000000", "vin": [{"sequence": 4294967295, "scriptSig": {"hex": "0047304402202231287b19de441adbac4d61b06f0f38ed0d08d490a4773c6d132dafecd533a802207eca150cebcdc311c56d263073fe16a71cad153d1609eb79b6a36664dbf7703701483045022100c06041b3cb7d71f0f658430629203a1d2350037895540ef7c729173dc116f2b2022005500d6a97b4790b25f64b37b71cd445726312c8d7611261d9579cfedb7c9912014c69522103d64cb0c21ecc94fdf05c82e039d74d4cc488c431aa2d94eabede9b33b41d441c2102fe7b4a1f9e0faf1922c4651fd6598b6fc5d1dc99ccb2d3dfed31b8340b04d12a210352c6613c867f04ec4a40844f55637a6a752b9afbe5edca43b7ec99ffc5dfc91f53ae", "asm": "0 304402202231287b19de441adbac4d61b06f0f38ed0d08d490a4773c6d132dafecd533a802207eca150cebcdc311c56d263073fe16a71cad153d1609eb79b6a36664dbf77037[ALL] 3045022100c06041b3cb7d71f0f658430629203a1d2350037895540ef7c729173dc116f2b2022005500d6a97b4790b25f64b37b71cd445726312c8d7611261d9579cfedb7c9912[ALL] 522103d64cb0c21ecc94fdf05c82e039d74d4cc488c431aa2d94eabede9b33b41d441c2102fe7b4a1f9e0faf1922c4651fd6598b6fc5d1dc99ccb2d3dfed31b8340b04d12a210352c6613c867f04ec4a40844f55637a6a752b9afbe5edca43b7ec99ffc5dfc91f53ae"}, "vout": 756, "txid": "30d08f6027cbd27533baa2395bdf26ef660b865c8528a717bbe62f8a5f9cf8b7"}], "txid": "297f4a2a77c8d3d77090ed6495af4b27cffb13194ec0c9f61d96702e5ee6dbaf", "blocktime": 1537873282, "version": 2, "confirmations": 11485, "time": 1537873282, "locktime": 0, "vsize": 338, "size": 338}