{"hash": "2982a679700a814513cd88025e934965d09ea100a085451ffdbe5e6242644ea8", "blockhash": "0000000000000000000baef3f32e3676a92c3b2e5da21b426e4f302fc371ce76", "vout": [{"scriptPubKey": {"reqSigs": 1, "hex": "76a9140e5fb070d36e52e6c8bc3c4ae2f169b52db5badd88ac", "addresses": ["12K16HnCpPf6eSx8hJDaM9CDuQhn6NDpWr"], "asm": "OP_DUP OP_HASH160 0e5fb070d36e52e6c8bc3c4ae2f169b52db5badd OP_EQUALVERIFY OP_CHECKSIG", "type": "pubkeyhash"}, "value": 0.92824228, "n": 0}, {"scriptPubKey": {"reqSigs": 1, "hex": "a91451fd20b00cd40917a01c10b48a7e46de4574dc8587", "addresses": ["39AXthfmC4Nim7Xt3H48dWpHGMJfYq7srt"], "asm": "OP_HASH160 51fd20b00cd40917a01c10b48a7e46de4574dc85 OP_EQUAL", "type": "scripthash"}, "value": 2.58709491, "n": 1}], "hex": "0100000002bf7763cb4f034c2c0db3ca4a8f3a7c3c21a88f9e777f4dce93f1ac0d6a5f4d5f000000006a473044022071a5ecf0479f156acf394e712c27774b5024b403184872ab5acc35d32d249e2e02204eb62412d14116a449443b6a4c5d8532e8dd6c3eca12a919077df3dd5efdd319012103d7eabda3eaba33edcfd52f715bd5cdd216a97d8400d9c89f5314e77b9a1244f8feffffffabfb07ff80d0a2813d739dc7f114c37b104723f7102215f726bc26d0557b38b5300000006b483045022100ce88cfb6d5ac7a951e353f830e24b166729354276f38a11032c665cbd6dad74202205fd4fb12f6ed68a83db4180fbfb4f1689dd9ce634a22b1a007b6504133bbec5d012103d7eabda3eaba33edcfd52f715bd5cdd216a97d8400d9c89f5314e77b9a1244f8feffffff02a4628805000000001976a9140e5fb070d36e52e6c8bc3c4ae2f169b52db5badd88acf3976b0f0000000017a91451fd20b00cd40917a01c10b48a7e46de4574dc858716490800", "vin": [{"sequence": 4294967294, "scriptSig": {"hex": "473044022071a5ecf0479f156acf394e712c27774b5024b403184872ab5acc35d32d249e2e02204eb62412d14116a449443b6a4c5d8532e8dd6c3eca12a919077df3dd5efdd319012103d7eabda3eaba33edcfd52f715bd5cdd216a97d8400d9c89f5314e77b9a1244f8", "asm": "3044022071a5ecf0479f156acf394e712c27774b5024b403184872ab5acc35d32d249e2e02204eb62412d14116a449443b6a4c5d8532e8dd6c3eca12a919077df3dd5efdd319[ALL] 03d7eabda3eaba33edcfd52f715bd5cdd216a97d8400d9c89f5314e77b9a1244f8"}, "vout": 0, "txid": "5f4d5f6a0dacf193ce4d7f779e8fa8213c7c3a8f4acab30d2c4c034fcb6377bf"}, {"sequence": 4294967294, "scriptSig": {"hex": "483045022100ce88cfb6d5ac7a951e353f830e24b166729354276f38a11032c665cbd6dad74202205fd4fb12f6ed68a83db4180fbfb4f1689dd9ce634a22b1a007b6504133bbec5d012103d7eabda3eaba33edcfd52f715bd5cdd216a97d8400d9c89f5314e77b9a1244f8", "asm": "3045022100ce88cfb6d5ac7a951e353f830e24b166729354276f38a11032c665cbd6dad74202205fd4fb12f6ed68a83db4180fbfb4f1689dd9ce634a22b1a007b6504133bbec5d[ALL] 03d7eabda3eaba33edcfd52f715bd5cdd216a97d8400d9c89f5314e77b9a1244f8"}, "vout": 48, "txid": "b5387b55d026bc26f7152210f72347107bc314f1c79d733d81a2d080ff07fbab"}], "txid": "2982a679700a814513cd88025e934965d09ea100a085451ffdbe5e6242644ea8", "blocktime": 1537876114, "version": 1, "confirmations": 11460, "time": 1537876114, "locktime": 542998, "vsize": 371, "size": 371}