{"hash": "2983c1dce987464c00ed39223bff0cbd9ae02b5bfdeac653e49d9c87bd38a44a", "blockhash": "0000000000000000001f76057863aec43deb6fa401d9628bb513d65a8098bfab", "vout": [{"scriptPubKey": {"type": "nulldata", "hex": "6a4c50000077da000176de278d66a6dcee7212292e7af8e8e963c7cfd5b95b23cc0f42c2fc38c56467b3cbf6c99e7d4156eca100db08db5baa15ae061307ddf866d28bbc9a9526289ac0f6612cd74e33776ee4", "asm": "OP_RETURN 000077da000176de278d66a6dcee7212292e7af8e8e963c7cfd5b95b23cc0f42c2fc38c56467b3cbf6c99e7d4156eca100db08db5baa15ae061307ddf866d28bbc9a9526289ac0f6612cd74e33776ee4"}, "value": 0.0, "n": 0}, {"scriptPubKey": {"reqSigs": 1, "hex": "76a914e862198c3e19d3b8e79b22e550fc53ed00754aae88ac", "addresses": ["1NBjHbge4xFypYXNwkZzC2pZXgJ5rVyff9"], "asm": "OP_DUP OP_HASH160 e862198c3e19d3b8e79b22e550fc53ed00754aae OP_EQUALVERIFY OP_CHECKSIG", "type": "pubkeyhash"}, "value": 0.0146922, "n": 1}], "hex": "01000000013b0392f1e398fe183bc01210d49eae518988f62501451343521c9f06d949d373000000006b483045022100b0f44181ea31166059ace20c4250642fa3a4e67d811ec4428fc9f70f677ad96a0220018b1c9ff4d555d0f09f39b3b9028241fd60b25ee30b74c0a676ccb246cde951012103a90962143174eafbbf6b223b1470592eef0cb4b06a28b4bfc000df8ae406f2eeffffffff020000000000000000536a4c50000077da000176de278d66a6dcee7212292e7af8e8e963c7cfd5b95b23cc0f42c2fc38c56467b3cbf6c99e7d4156eca100db08db5baa15ae061307ddf866d28bbc9a9526289ac0f6612cd74e33776ee4246b1600000000001976a914e862198c3e19d3b8e79b22e550fc53ed00754aae88ac00000000", "vin": [{"sequence": 4294967295, "scriptSig": {"hex": "483045022100b0f44181ea31166059ace20c4250642fa3a4e67d811ec4428fc9f70f677ad96a0220018b1c9ff4d555d0f09f39b3b9028241fd60b25ee30b74c0a676ccb246cde951012103a90962143174eafbbf6b223b1470592eef0cb4b06a28b4bfc000df8ae406f2ee", "asm": "3045022100b0f44181ea31166059ace20c4250642fa3a4e67d811ec4428fc9f70f677ad96a0220018b1c9ff4d555d0f09f39b3b9028241fd60b25ee30b74c0a676ccb246cde951[ALL] 03a90962143174eafbbf6b223b1470592eef0cb4b06a28b4bfc000df8ae406f2ee"}, "vout": 0, "txid": "73d349d9069f1c524313450125f6888951ae9ed41012c03b18fe98e3f192033b"}], "txid": "2983c1dce987464c00ed39223bff0cbd9ae02b5bfdeac653e49d9c87bd38a44a", "blocktime": 1537873891, "version": 1, "confirmations": 11478, "time": 1537873891, "locktime": 0, "vsize": 284, "size": 284}