{"hash": "29839e48a60565eacfebf7922e8da6ccd93710588a8046290cdb463025c60175", "blockhash": "00000000000000000017f5eb5941039fbcee6240d03bc1f2f8e35350df66a1d8", "vout": [{"scriptPubKey": {"reqSigs": 1, "hex": "a914ae6e28473054262466c099bcd71c2da666029e6f87", "addresses": ["3HbKTnfbPegD5fYew4gat3sJTQ3tsyCHzi"], "asm": "OP_HASH160 ae6e28473054262466c099bcd71c2da666029e6f OP_EQUAL", "type": "scripthash"}, "value": 0.0025699, "n": 0}, {"scriptPubKey": {"reqSigs": 1, "hex": "76a914c59a14e39e182ab8b45e018a303b7fbbfffc09ad88ac", "addresses": ["1K1phZvoeervsYWqdd44RjKmWS9TaeUFc5"], "asm": "OP_DUP OP_HASH160 c59a14e39e182ab8b45e018a303b7fbbfffc09ad OP_EQUALVERIFY OP_CHECKSIG", "type": "pubkeyhash"}, "value": 0.0026018, "n": 1}], "hex": "0100000001d2834452d7bd962c0ed00281331e886a06530e6ae2349c04ef7cf19487d0727f000000006a47304402207382e68962e90b14fdc39ca8b7cb2b88503b6c80fb41f1adeae247257789230b02205ff1276b406b9fb37cc78fc14fc02fbd93ca9945971ffe340accab2145d6fff00121023659b3ff6feb3c54a0a045fab18cf46d057354de04e6d34ec92df8a5c74a102effffffff02deeb03000000000017a914ae6e28473054262466c099bcd71c2da666029e6f8754f80300000000001976a914c59a14e39e182ab8b45e018a303b7fbbfffc09ad88ac00000000", "vin": [{"sequence": 4294967295, "scriptSig": {"hex": "47304402207382e68962e90b14fdc39ca8b7cb2b88503b6c80fb41f1adeae247257789230b02205ff1276b406b9fb37cc78fc14fc02fbd93ca9945971ffe340accab2145d6fff00121023659b3ff6feb3c54a0a045fab18cf46d057354de04e6d34ec92df8a5c74a102e", "asm": "304402207382e68962e90b14fdc39ca8b7cb2b88503b6c80fb41f1adeae247257789230b02205ff1276b406b9fb37cc78fc14fc02fbd93ca9945971ffe340accab2145d6fff0[ALL] 023659b3ff6feb3c54a0a045fab18cf46d057354de04e6d34ec92df8a5c74a102e"}, "vout": 0, "txid": "7f72d08794f17cef049c34e26a0e53066a881e338102d00e2c96bdd7524483d2"}], "txid": "29839e48a60565eacfebf7922e8da6ccd93710588a8046290cdb463025c60175", "blocktime": 1537874412, "version": 1, "confirmations": 11467, "time": 1537874412, "locktime": 0, "vsize": 223, "size": 223}