{"hash": "37791b7ee160c8473dda7ccc87416766608f7d606616d312c28117a25a87e2b6", "blockhash": "0000000000000000000e13cef7c366c0283d82e591d1acd082e914b08063cdf1", "vout": [{"scriptPubKey": {"reqSigs": 1, "hex": "0014d2325e620b4797e08c61f8ac2dd680354ce7907f", "addresses": ["bc1q6ge9ucstg7t7prrplzkzm45qx4xw0yrl8ju4y7"], "asm": "0 d2325e620b4797e08c61f8ac2dd680354ce7907f", "type": "witness_v0_keyhash"}, "value": 1.195e-05, "n": 0}, {"scriptPubKey": {"reqSigs": 1, "hex": "a91447628708c9ce5924cb5c08a9a053f6a15808ac6187", "addresses": ["38CTvyP46ptTCmxKirqDpExHyuHWk2p62U"], "asm": "OP_HASH160 47628708c9ce5924cb5c08a9a053f6a15808ac61 OP_EQUAL", "type": "scripthash"}, "value": 0.00195, "n": 1}], "hex": "010000000001013d4d3d36acb0ca69afeb15df6ed48e39ce3a8df12841a0e1036179f17783ae860000000000ffffffff02ab04000000000000160014d2325e620b4797e08c61f8ac2dd680354ce7907fb8f902000000000017a91447628708c9ce5924cb5c08a9a053f6a15808ac618702483045022100f3c2f4f0a454d2684395a12cb09d9299636152a1c6a816dd3b21e8bddc34e67502200d4af91ffce0f1a15835f08f0ec2b04cabe2bae3824479e262dc7f590791e4850121020378132024f3548805678fbc9a6c9f722740e2a0d573e2c6ca81a237cf81915200000000", "vin": [{"txinwitness": ["3045022100f3c2f4f0a454d2684395a12cb09d9299636152a1c6a816dd3b21e8bddc34e67502200d4af91ffce0f1a15835f08f0ec2b04cabe2bae3824479e262dc7f590791e48501", "020378132024f3548805678fbc9a6c9f722740e2a0d573e2c6ca81a237cf819152"], "sequence": 4294967295, "scriptSig": {"hex": "", "asm": ""}, "vout": 0, "txid": "86ae8377f1796103e1a04128f18d3ace398ed46edf15ebaf69cab0ac363d4d3d"}], "txid": "2986a91b69e2e84424c11ca83b830b85a81f4df5525af37b98cb928cf7d83a59", "blocktime": 1537871767, "version": 1, "confirmations": 11495, "time": 1537871767, "locktime": 0, "vsize": 142, "size": 224}