{"hash": "1dfff1aa319260f52784f4b6ad15770e8002692b98b19c96f4e9be8121d6b669", "blockhash": "0000000000000000000e13cef7c366c0283d82e591d1acd082e914b08063cdf1", "vout": [{"scriptPubKey": {"reqSigs": 1, "hex": "76a914ac5790f7b12b99124d6d5b947cba0258a6d175a388ac", "addresses": ["1GiG8CyyxGCnWUSVvFJctA8qPRYT6P7DuZ"], "asm": "OP_DUP OP_HASH160 ac5790f7b12b99124d6d5b947cba0258a6d175a3 OP_EQUALVERIFY OP_CHECKSIG", "type": "pubkeyhash"}, "value": 0.01486828, "n": 0}, {"scriptPubKey": {"reqSigs": 1, "hex": "a9145353c7714862f4ac6bac7ff4dee287b83255547887", "addresses": ["39HcNY8z5W1wQtawMhDEk9HEhsiKUN1PSJ"], "asm": "OP_HASH160 5353c7714862f4ac6bac7ff4dee287b832555478 OP_EQUAL", "type": "scripthash"}, "value": 0.00142062, "n": 1}, {"scriptPubKey": {"reqSigs": 1, "hex": "a914652fefc4803b06b687118ed79b0a203b8f38f52d87", "addresses": ["3Av3bcR8RbJxxb2SWVLaj2fVCqFQzv3RqD"], "asm": "OP_HASH160 652fefc4803b06b687118ed79b0a203b8f38f52d OP_EQUAL", "type": "scripthash"}, "value": 0.01409631, "n": 2}, {"scriptPubKey": {"reqSigs": 1, "hex": "76a9145bbfaf877ff72bd591c4d9eb17b1d32cacab32bf88ac", "addresses": ["19N881ZzJnZeoamPRZBPkRDB2eRfPSb8ox"], "asm": "OP_DUP OP_HASH160 5bbfaf877ff72bd591c4d9eb17b1d32cacab32bf OP_EQUALVERIFY OP_CHECKSIG", "type": "pubkeyhash"}, "value": 0.01443772, "n": 3}, {"scriptPubKey": {"reqSigs": 1, "hex": "76a9140ba44bc459f51dd810aad6a3596cfa4bdc7b0fe588ac", "addresses": ["124ZFbSsfXpX8DGJubL33jy1yQfPeKFmCg"], "asm": "OP_DUP OP_HASH160 0ba44bc459f51dd810aad6a3596cfa4bdc7b0fe5 OP_EQUALVERIFY OP_CHECKSIG", "type": "pubkeyhash"}, "value": 0.01560038, "n": 4}, {"scriptPubKey": {"reqSigs": 1, "hex": "a914e488a9b1352428a2a084ae60be7f2b0d30f4858b87", "addresses": ["3NXPhnNYxjsE4Y7V27AvkoPzZGWVx7azdN"], "asm": "OP_HASH160 e488a9b1352428a2a084ae60be7f2b0d30f4858b OP_EQUAL", "type": "scripthash"}, "value": 0.00261959, "n": 5}], "hex": "01000000000101970c01faa14e19eb09700aca87c873f267fa03af77af6e5cbcf48b8e98ce120504000000171600145d0142cbbd375e4e988457130f7e2b8bff810292ffffffff06ecaf1600000000001976a914ac5790f7b12b99124d6d5b947cba0258a6d175a388acee2a02000000000017a9145353c7714862f4ac6bac7ff4dee287b832555478875f8215000000000017a914652fefc4803b06b687118ed79b0a203b8f38f52d87bc071600000000001976a9145bbfaf877ff72bd591c4d9eb17b1d32cacab32bf88ace6cd1700000000001976a9140ba44bc459f51dd810aad6a3596cfa4bdc7b0fe588ac47ff03000000000017a914e488a9b1352428a2a084ae60be7f2b0d30f4858b8702483045022100bc737b54389f0c98ff694360e185ae7968826c4f415d71b375b457e60d93fb8902203b502d4834fb94c8035bb34a9feba7fc4fa9c6c7ce8b4acd28b08ba1f2866c510121037088b5a3186317ec765b9b1a57e03c30716bc58448ee3da3a710ca2ef91839ee00000000", "vin": [{"txinwitness": ["3045022100bc737b54389f0c98ff694360e185ae7968826c4f415d71b375b457e60d93fb8902203b502d4834fb94c8035bb34a9feba7fc4fa9c6c7ce8b4acd28b08ba1f2866c5101", "037088b5a3186317ec765b9b1a57e03c30716bc58448ee3da3a710ca2ef91839ee"], "sequence": 4294967295, "scriptSig": {"hex": "1600145d0142cbbd375e4e988457130f7e2b8bff810292", "asm": "00145d0142cbbd375e4e988457130f7e2b8bff810292"}, "vout": 4, "txid": "0512ce988e8bf4bc5c6eaf77af03fa67f273c887ca0a7009eb194ea1fa010c97"}], "txid": "298bf4ad6172a74ddda8739a62ef7b885b7e676c62c078086dbd4eed20038a5e", "blocktime": 1537871767, "version": 1, "confirmations": 11493, "time": 1537871767, "locktime": 0, "vsize": 300, "size": 382}