{"hash": "299d08040e9f2d0fed7ec8d42aaa6d8d0ec94396d17e50cae1a453ca7fe26f90", "blockhash": "0000000000000000001e0dab787dd257d1dbfcb92a98c2207d5e1078be1f4165", "vout": [{"scriptPubKey": {"reqSigs": 1, "hex": "76a9141ed9bd111fc2fdc28d5ab59132e80fb027b5bd7388ac", "addresses": ["13p87Vf4aoakDs7Ad9AegNgvJ4GP5yAuzB"], "asm": "OP_DUP OP_HASH160 1ed9bd111fc2fdc28d5ab59132e80fb027b5bd73 OP_EQUALVERIFY OP_CHECKSIG", "type": "pubkeyhash"}, "value": 0.00029433, "n": 0}, {"scriptPubKey": {"reqSigs": 1, "hex": "a91455ecfda8863fef1b98bdfe426f84600b885ffe2587", "addresses": ["39XMGGBBGod1rSsv8PSjCDWuCUbmFewoTj"], "asm": "OP_HASH160 55ecfda8863fef1b98bdfe426f84600b885ffe25 OP_EQUAL", "type": "scripthash"}, "value": 0.0427, "n": 1}], "hex": "01000000013e1f0b8e5f475b5ce0d158a548c6d96661103bccbf8e48d5e42aed1352917217000000006b483045022100da01b4f7d044f919db6a7f9b6e0b3bfcd35de958b63584ce0dfc1a91512ed358022030c3ba71c38bfc5baa9e992850e681e48f52bbe8a7621bc8607da626dc347c8701210366450622f65c57d67dcf2f1a83ef663b25e759073d2610a568e4402b7d254c46ffffffff02f9720000000000001976a9141ed9bd111fc2fdc28d5ab59132e80fb027b5bd7388acb02741000000000017a91455ecfda8863fef1b98bdfe426f84600b885ffe258700000000", "vin": [{"sequence": 4294967295, "scriptSig": {"hex": "483045022100da01b4f7d044f919db6a7f9b6e0b3bfcd35de958b63584ce0dfc1a91512ed358022030c3ba71c38bfc5baa9e992850e681e48f52bbe8a7621bc8607da626dc347c8701210366450622f65c57d67dcf2f1a83ef663b25e759073d2610a568e4402b7d254c46", "asm": "3045022100da01b4f7d044f919db6a7f9b6e0b3bfcd35de958b63584ce0dfc1a91512ed358022030c3ba71c38bfc5baa9e992850e681e48f52bbe8a7621bc8607da626dc347c87[ALL] 0366450622f65c57d67dcf2f1a83ef663b25e759073d2610a568e4402b7d254c46"}, "vout": 0, "txid": "1772915213ed2ae4d5488ebfcc3b106166d9c648a558d1e05c5b475f8e0b1f3e"}], "txid": "299d08040e9f2d0fed7ec8d42aaa6d8d0ec94396d17e50cae1a453ca7fe26f90", "blocktime": 1537872475, "version": 1, "confirmations": 11487, "time": 1537872475, "locktime": 0, "vsize": 224, "size": 224}