{"hash": "299df2bf19b799ebc422848fe723b06a6d56c0d745610de2d489dd3212b0e1b4", "blockhash": "0000000000000000001f76057863aec43deb6fa401d9628bb513d65a8098bfab", "vout": [{"scriptPubKey": {"reqSigs": 1, "hex": "76a914638d48efe55b44803915fd96bc07c90cdf7bae4788ac", "addresses": ["1A5P9e4EVHixeiPuNMxB3AkXfHDHqHaone"], "asm": "OP_DUP OP_HASH160 638d48efe55b44803915fd96bc07c90cdf7bae47 OP_EQUALVERIFY OP_CHECKSIG", "type": "pubkeyhash"}, "value": 0.05217082, "n": 0}, {"scriptPubKey": {"reqSigs": 1, "hex": "76a91474ce2e0a729cabf5f63acefff2f51797bd993b2b88ac", "addresses": ["1BecNszkqNmq56em5WNKeVKgAtjvvUSEti"], "asm": "OP_DUP OP_HASH160 74ce2e0a729cabf5f63acefff2f51797bd993b2b OP_EQUALVERIFY OP_CHECKSIG", "type": "pubkeyhash"}, "value": 0.00997478, "n": 1}], "hex": "020000000538e03831ddc831456353a65fe7fda6bf93a6f9c75c3f9c1a8158fc521265fe0f010000006b4830450221008723956cd487055e6ec9c552ed7d57125328f75af49a4938e12392e944e7951b02207b7630f0a794dd6bca669548c8dcf4092a2520b4e72a4c94f1ed45f019645ff20121038ee83cc1d2fb381a7b27ad8733ed0e3cac36dd9a687976cac6653999244dc4f1feffffff763cbb70f9bbd8f3956523cdd40828b8645af02e5b820d41b0edeb630b8422ad000000006b483045022100890608e5ec04511cb0ac749dc780be8bf32b90c5edcd0c992b1413787114ce2b02203acc37a2ae14d9b14130377005a89c0ff7dabc76d70aee0110b3079a654b31970121033e5d389452df5831a5063241d379d5c43817a441568ecf3230848f64b933a77efeffffff007bd9b0fa3184db69441f4ad25ca191f343fbe469f820648490ae0d2299dbf0000000006a47304402200e7087fb951ed94cf5eefd71e21e0cb5962897039eab81609568c1b1a5dfbbc002203eb2d8f5860dfef1af605d0773779eca434f9c89be011e3740c775e2d4efcfa4012102058667894d7377c9aad29faa5af250034a8e5333929244a64618b57d024ff9f5feffffffb463c31e455fdc5c2908a0a9ba74fdcc254eaedeaf3c818f81d01c467959ee86010000006a473044022004bf6c4af76ea741fc612dc4515af4292740b4cb94ad890f7f39247d9117048e0220147f65c900bc119229e82b9682f60764f294b8691f56fee77729d5b14b12d8c0012103d7de2473d831661e1d0829f0ee18c79a9ae2e7ad0499082c30cec22477b4549cfeffffff3412ba957788cf5c02645a1e5f10544d94ca24e4408e6b8e3aea486e5ae24e18010000006b483045022100ca95bf862c80cda6d0a7a387c263bb9aa4e0145557ebbc8b27adbea96f2475d502201f3055a5da79693bd092cba8ffb0ede1f63486645570431ae4285b1a880cd86e012103d8e4fd552b9fe5ad8164e96360c20b71d8df302851561ed88ea5dacd2e353b36feffffff023a9b4f00000000001976a914638d48efe55b44803915fd96bc07c90cdf7bae4788ac66380f00000000001976a91474ce2e0a729cabf5f63acefff2f51797bd993b2b88ac13490800", "vin": [{"sequence": 4294967294, "scriptSig": {"hex": "4830450221008723956cd487055e6ec9c552ed7d57125328f75af49a4938e12392e944e7951b02207b7630f0a794dd6bca669548c8dcf4092a2520b4e72a4c94f1ed45f019645ff20121038ee83cc1d2fb381a7b27ad8733ed0e3cac36dd9a687976cac6653999244dc4f1", "asm": "30450221008723956cd487055e6ec9c552ed7d57125328f75af49a4938e12392e944e7951b02207b7630f0a794dd6bca669548c8dcf4092a2520b4e72a4c94f1ed45f019645ff2[ALL] 038ee83cc1d2fb381a7b27ad8733ed0e3cac36dd9a687976cac6653999244dc4f1"}, "vout": 1, "txid": "0ffe651252fc58811a9c3f5cc7f9a693bfa6fde75fa653634531c8dd3138e038"}, {"sequence": 4294967294, "scriptSig": {"hex": "483045022100890608e5ec04511cb0ac749dc780be8bf32b90c5edcd0c992b1413787114ce2b02203acc37a2ae14d9b14130377005a89c0ff7dabc76d70aee0110b3079a654b31970121033e5d389452df5831a5063241d379d5c43817a441568ecf3230848f64b933a77e", "asm": "3045022100890608e5ec04511cb0ac749dc780be8bf32b90c5edcd0c992b1413787114ce2b02203acc37a2ae14d9b14130377005a89c0ff7dabc76d70aee0110b3079a654b3197[ALL] 033e5d389452df5831a5063241d379d5c43817a441568ecf3230848f64b933a77e"}, "vout": 0, "txid": "ad22840b63ebedb0410d825b2ef05a64b82808d4cd236595f3d8bbf970bb3c76"}, {"sequence": 4294967294, "scriptSig": {"hex": "47304402200e7087fb951ed94cf5eefd71e21e0cb5962897039eab81609568c1b1a5dfbbc002203eb2d8f5860dfef1af605d0773779eca434f9c89be011e3740c775e2d4efcfa4012102058667894d7377c9aad29faa5af250034a8e5333929244a64618b57d024ff9f5", "asm": "304402200e7087fb951ed94cf5eefd71e21e0cb5962897039eab81609568c1b1a5dfbbc002203eb2d8f5860dfef1af605d0773779eca434f9c89be011e3740c775e2d4efcfa4[ALL] 02058667894d7377c9aad29faa5af250034a8e5333929244a64618b57d024ff9f5"}, "vout": 0, "txid": "f0db99220dae90846420f869e4fb43f391a15cd24a1f4469db8431fab0d97b00"}, {"sequence": 4294967294, "scriptSig": {"hex": "473044022004bf6c4af76ea741fc612dc4515af4292740b4cb94ad890f7f39247d9117048e0220147f65c900bc119229e82b9682f60764f294b8691f56fee77729d5b14b12d8c0012103d7de2473d831661e1d0829f0ee18c79a9ae2e7ad0499082c30cec22477b4549c", "asm": "3044022004bf6c4af76ea741fc612dc4515af4292740b4cb94ad890f7f39247d9117048e0220147f65c900bc119229e82b9682f60764f294b8691f56fee77729d5b14b12d8c0[ALL] 03d7de2473d831661e1d0829f0ee18c79a9ae2e7ad0499082c30cec22477b4549c"}, "vout": 1, "txid": "86ee5979461cd0818f813cafdeae4e25ccfd74baa9a008295cdc5f451ec363b4"}, {"sequence": 4294967294, "scriptSig": {"hex": "483045022100ca95bf862c80cda6d0a7a387c263bb9aa4e0145557ebbc8b27adbea96f2475d502201f3055a5da79693bd092cba8ffb0ede1f63486645570431ae4285b1a880cd86e012103d8e4fd552b9fe5ad8164e96360c20b71d8df302851561ed88ea5dacd2e353b36", "asm": "3045022100ca95bf862c80cda6d0a7a387c263bb9aa4e0145557ebbc8b27adbea96f2475d502201f3055a5da79693bd092cba8ffb0ede1f63486645570431ae4285b1a880cd86e[ALL] 03d8e4fd552b9fe5ad8164e96360c20b71d8df302851561ed88ea5dacd2e353b36"}, "vout": 1, "txid": "184ee25a6e48ea3a8e6b8e40e424ca944d54105f1e5a64025ccf887795ba1234"}], "txid": "299df2bf19b799ebc422848fe723b06a6d56c0d745610de2d489dd3212b0e1b4", "blocktime": 1537873891, "version": 2, "confirmations": 11478, "time": 1537873891, "locktime": 542995, "vsize": 816, "size": 816}