{"hash": "29a05dec0d047b2f3f4ce9314dc7407d8d89bb17f841fcbf58e5baa825f8c756", "blockhash": "0000000000000000000dcc0f55137456b1a82d3642486a52398922ac4d620174", "vout": [{"scriptPubKey": {"reqSigs": 1, "hex": "76a914c664e6419990a68decaea96f73c9fad3804e7b9288ac", "addresses": ["1K61fbhiygLzuQxC156GbZTVEEE76Joh8i"], "asm": "OP_DUP OP_HASH160 c664e6419990a68decaea96f73c9fad3804e7b92 OP_EQUALVERIFY OP_CHECKSIG", "type": "pubkeyhash"}, "value": 2.98, "n": 0}, {"scriptPubKey": {"reqSigs": 1, "hex": "76a9143d2ab5978492cd9417b5209015dd2106509863cd88ac", "addresses": ["16aRPCXvQunyqGVptvJYQe9WwgwrqHZbc9"], "asm": "OP_DUP OP_HASH160 3d2ab5978492cd9417b5209015dd2106509863cd OP_EQUALVERIFY OP_CHECKSIG", "type": "pubkeyhash"}, "value": 3.92138, "n": 1}], "hex": "01000000022713c2411838f866572513287b10d7a1e023154591cd627a6ec53833a787c31a010000006b483045022100e7f1ff4116c7b0151c07922f637bd317da2bd1bb6030e832b1c3158264bb845b022066708bfa303f4a1a2fe50d2b9354adbb69ae18b517c7fdd3e19e04b03e5b1e29012103dddc58227e294cec4d76f20db5ba55a85f9a03db7bb4821916d1a70faed92c30ffffffff2713c2411838f866572513287b10d7a1e023154591cd627a6ec53833a787c31a000000006a473044022032d187698c4a6c22b8af4049e0237239c12e84fe6575af52f7012b671e9d556102203f2e895fc0b1efd021a3e520bf64fb65260c6f7c9d7b9e8426daabb88e245524012102f8c797f7c28ffee6e722f8c5df71b2a18ab7ff0e5a95c958aeed44ebb40a1034ffffffff02801ec311000000001976a914c664e6419990a68decaea96f73c9fad3804e7b9288ac108d5f17000000001976a9143d2ab5978492cd9417b5209015dd2106509863cd88ac00000000", "vin": [{"sequence": 4294967295, "scriptSig": {"hex": "483045022100e7f1ff4116c7b0151c07922f637bd317da2bd1bb6030e832b1c3158264bb845b022066708bfa303f4a1a2fe50d2b9354adbb69ae18b517c7fdd3e19e04b03e5b1e29012103dddc58227e294cec4d76f20db5ba55a85f9a03db7bb4821916d1a70faed92c30", "asm": "3045022100e7f1ff4116c7b0151c07922f637bd317da2bd1bb6030e832b1c3158264bb845b022066708bfa303f4a1a2fe50d2b9354adbb69ae18b517c7fdd3e19e04b03e5b1e29[ALL] 03dddc58227e294cec4d76f20db5ba55a85f9a03db7bb4821916d1a70faed92c30"}, "vout": 1, "txid": "1ac387a73338c56e7a62cd91451523e0a1d7107b2813255766f8381841c21327"}, {"sequence": 4294967295, "scriptSig": {"hex": "473044022032d187698c4a6c22b8af4049e0237239c12e84fe6575af52f7012b671e9d556102203f2e895fc0b1efd021a3e520bf64fb65260c6f7c9d7b9e8426daabb88e245524012102f8c797f7c28ffee6e722f8c5df71b2a18ab7ff0e5a95c958aeed44ebb40a1034", "asm": "3044022032d187698c4a6c22b8af4049e0237239c12e84fe6575af52f7012b671e9d556102203f2e895fc0b1efd021a3e520bf64fb65260c6f7c9d7b9e8426daabb88e245524[ALL] 02f8c797f7c28ffee6e722f8c5df71b2a18ab7ff0e5a95c958aeed44ebb40a1034"}, "vout": 0, "txid": "1ac387a73338c56e7a62cd91451523e0a1d7107b2813255766f8381841c21327"}], "txid": "29a05dec0d047b2f3f4ce9314dc7407d8d89bb17f841fcbf58e5baa825f8c756", "blocktime": 1537870268, "version": 1, "confirmations": 11516, "time": 1537870268, "locktime": 0, "vsize": 373, "size": 373}