{"hash": "c78d737ae4c321cde2958834e86eb0fefbc4ffe147fa0cce2ab7bcd2e96675f8", "blockhash": "0000000000000000001f0ddff1eddb255c1121bcd4da4f1bc9a0da00cae72433", "vout": [{"scriptPubKey": {"reqSigs": 1, "hex": "76a914d84a2b7e65fe4e8219af1213b8843826cd0bf4ef88ac", "addresses": ["1LidorK3GSVhVZSoHvoeDJ7BPRPBgWdDDk"], "asm": "OP_DUP OP_HASH160 d84a2b7e65fe4e8219af1213b8843826cd0bf4ef OP_EQUALVERIFY OP_CHECKSIG", "type": "pubkeyhash"}, "value": 0.0034676, "n": 0}, {"scriptPubKey": {"reqSigs": 1, "hex": "a9143203d7e45f33d59f1a32c96829178ac67cca286f87", "addresses": ["36FUKB4zDVcTV2K1LcBTBRwR6oB6P9M28Q"], "asm": "OP_HASH160 3203d7e45f33d59f1a32c96829178ac67cca286f OP_EQUAL", "type": "scripthash"}, "value": 0.00999974, "n": 1}], "hex": "02000000000102100531b5917f6716887f2572ff6abdbc948f7a86767861d36ad6d70d42c3a2c50000000017160014af058859398e893dbfacaadd233278473aed164efeffffff36fd1bade1380815b1acd413ce2aceb720b9cc05ba44f0d08e680bb5162eea550c00000017160014d15c6dc1ea03681e0c6730ed91a8b9695dbc28e7feffffff02884a0500000000001976a914d84a2b7e65fe4e8219af1213b8843826cd0bf4ef88ac26420f000000000017a9143203d7e45f33d59f1a32c96829178ac67cca286f87024730440220094490db202f70be8b0623b8b532981eee90b3593ee89e2e902da7cfdfc73888022065ada98c57feeef2c83029afed1bc36b5b9320c4533b6a816fc975f7e226501f01210284c1d11077118c12c9e1246056bd57df7a98ebce6f3b1f127094633d78bc3d5602483045022100ff012036b26f914fe9d3a510a34bbfb8a9e738844cf02445144a7e9a4f67efa602205adb4c516e222fb82646fbb608416d9db9c71da0710880c8db2189a0d1aa917f01210292fbff853518d09f3b321f4b676d678f1909b43073148d6355f86a214c29ddb511490800", "vin": [{"txinwitness": ["30440220094490db202f70be8b0623b8b532981eee90b3593ee89e2e902da7cfdfc73888022065ada98c57feeef2c83029afed1bc36b5b9320c4533b6a816fc975f7e226501f01", "0284c1d11077118c12c9e1246056bd57df7a98ebce6f3b1f127094633d78bc3d56"], "sequence": 4294967294, "scriptSig": {"hex": "160014af058859398e893dbfacaadd233278473aed164e", "asm": "0014af058859398e893dbfacaadd233278473aed164e"}, "vout": 0, "txid": "c5a2c3420dd7d66ad3617876867a8f94bcbd6aff72257f8816677f91b5310510"}, {"txinwitness": ["3045022100ff012036b26f914fe9d3a510a34bbfb8a9e738844cf02445144a7e9a4f67efa602205adb4c516e222fb82646fbb608416d9db9c71da0710880c8db2189a0d1aa917f01", "0292fbff853518d09f3b321f4b676d678f1909b43073148d6355f86a214c29ddb5"], "sequence": 4294967294, "scriptSig": {"hex": "160014d15c6dc1ea03681e0c6730ed91a8b9695dbc28e7", "asm": "0014d15c6dc1ea03681e0c6730ed91a8b9695dbc28e7"}, "vout": 12, "txid": "55ea2e16b50b688ed0f044ba05ccb920b7ce2ace13d4acb1150838e1ad1bfd36"}], "txid": "29a4ba0d6de880806cc35cb81bf9b27cf038b2657f6f078656c2a89f36608c6c", "blocktime": 1537872018, "version": 2, "confirmations": 11489, "time": 1537872018, "locktime": 542993, "vsize": 259, "size": 421}