{"hash": "a54af4f1e8036069b9e50532f35839589d323fb1c56b2bd13a496b38ed247474", "blockhash": "00000000000000000017f5eb5941039fbcee6240d03bc1f2f8e35350df66a1d8", "vout": [{"scriptPubKey": {"reqSigs": 1, "hex": "0014255d51e03b7436ab728c84285e873047a9c3f25f", "addresses": ["bc1qy4w4rcpmwsm2ku5vss59apesg75u8ujlfm6q7z"], "asm": "0 255d51e03b7436ab728c84285e873047a9c3f25f", "type": "witness_v0_keyhash"}, "value": 9.03e-06, "n": 0}, {"scriptPubKey": {"reqSigs": 1, "hex": "76a9140b4d86ed2106742b495c3b096132f7a70126384e88ac", "addresses": ["122mJnVk7QBiqt357fg8vp3FQUhYmmaXVG"], "asm": "OP_DUP OP_HASH160 0b4d86ed2106742b495c3b096132f7a70126384e OP_EQUALVERIFY OP_CHECKSIG", "type": "pubkeyhash"}, "value": 0.00106876, "n": 1}], "hex": "010000000001016bb5fa20c29d9f746fb3bc4016cb44b4f0df2967da4aef589d9f777d62ea29c120000000171600147e2f964d43d9b2ab1e8cbd1eca985d64a700a94affffffff028703000000000000160014255d51e03b7436ab728c84285e873047a9c3f25f7ca10100000000001976a9140b4d86ed2106742b495c3b096132f7a70126384e88ac024730440220514caaf9956a404c22e28b7a4d793d48883c19670c2d6ab4c413ef43b1fc7c7902200a08afe07132036a17f02efd52b34ebed5a428001dc7d10200a62a08d47d77ce012103e400a60df25b92193cefe9f485af416e5f9322ca6cee87f1688d909554759c6d00000000", "vin": [{"txinwitness": ["30440220514caaf9956a404c22e28b7a4d793d48883c19670c2d6ab4c413ef43b1fc7c7902200a08afe07132036a17f02efd52b34ebed5a428001dc7d10200a62a08d47d77ce01", "03e400a60df25b92193cefe9f485af416e5f9322ca6cee87f1688d909554759c6d"], "sequence": 4294967295, "scriptSig": {"hex": "1600147e2f964d43d9b2ab1e8cbd1eca985d64a700a94a", "asm": "00147e2f964d43d9b2ab1e8cbd1eca985d64a700a94a"}, "vout": 32, "txid": "c129ea627d779f9d58ef4ada6729dff0b444cb1640bcb36f749f9dc220fab56b"}], "txid": "29a5447350d18daf77a20dd097a01e01afc20fb41d757c156c732ba7432eef64", "blocktime": 1537874412, "version": 1, "confirmations": 11468, "time": 1537874412, "locktime": 0, "vsize": 167, "size": 248}