{"hash": "29a8ec39deac9b959de3d6d6fb77f5c638cc9080fe252135f8924bed4e2c3f90", "blockhash": "0000000000000000000baef3f32e3676a92c3b2e5da21b426e4f302fc371ce76", "vout": [{"scriptPubKey": {"type": "nulldata", "hex": "6a4c500000782200017cdcad2d95c4798fc698134b019d6ddc0f1b8ff117702940d64fa54d8eb21b66e7736205396f49b98d72f7e7af165baa1d97061451c8c779c6dfbc9a9526289ac0f6612cd74e33776ee4", "asm": "OP_RETURN 0000782200017cdcad2d95c4798fc698134b019d6ddc0f1b8ff117702940d64fa54d8eb21b66e7736205396f49b98d72f7e7af165baa1d97061451c8c779c6dfbc9a9526289ac0f6612cd74e33776ee4"}, "value": 0.0, "n": 0}, {"scriptPubKey": {"reqSigs": 1, "hex": "76a914df8727d19a6264e5e4613e78a590c25e46153e6c88ac", "addresses": ["1MNubYtnMWXqFGXEXry1fNYmwsuJUR88BX"], "asm": "OP_DUP OP_HASH160 df8727d19a6264e5e4613e78a590c25e46153e6c OP_EQUALVERIFY OP_CHECKSIG", "type": "pubkeyhash"}, "value": 0.00091944, "n": 1}], "hex": "01000000017d8fdeb607feccbb7223cee1b0996d1a6ab2f627b4584c8ca5c0d3c869dcb3a6000000006b483045022100f36a2a751ad5ad785f6085bfccdf4dc7cb11ebe08106c63e01e51f4b1929b6030220577ba578c1bc19f75f3009c33820fcaf06b604ba1f8174e9dd6ac542d10f739e012102fb2c3819d58e149d0177f64d614ec464fce14b7f5ee6f10bc2c06f0bd6a61bbeffffffff020000000000000000536a4c500000782200017cdcad2d95c4798fc698134b019d6ddc0f1b8ff117702940d64fa54d8eb21b66e7736205396f49b98d72f7e7af165baa1d97061451c8c779c6dfbc9a9526289ac0f6612cd74e33776ee428670100000000001976a914df8727d19a6264e5e4613e78a590c25e46153e6c88ac00000000", "vin": [{"sequence": 4294967295, "scriptSig": {"hex": "483045022100f36a2a751ad5ad785f6085bfccdf4dc7cb11ebe08106c63e01e51f4b1929b6030220577ba578c1bc19f75f3009c33820fcaf06b604ba1f8174e9dd6ac542d10f739e012102fb2c3819d58e149d0177f64d614ec464fce14b7f5ee6f10bc2c06f0bd6a61bbe", "asm": "3045022100f36a2a751ad5ad785f6085bfccdf4dc7cb11ebe08106c63e01e51f4b1929b6030220577ba578c1bc19f75f3009c33820fcaf06b604ba1f8174e9dd6ac542d10f739e[ALL] 02fb2c3819d58e149d0177f64d614ec464fce14b7f5ee6f10bc2c06f0bd6a61bbe"}, "vout": 0, "txid": "a6b3dc69c8d3c0a58c4c58b427f6b26a1a6d99b0e1ce2372bbccfe07b6de8f7d"}], "txid": "29a8ec39deac9b959de3d6d6fb77f5c638cc9080fe252135f8924bed4e2c3f90", "blocktime": 1537876114, "version": 1, "confirmations": 11460, "time": 1537876114, "locktime": 0, "vsize": 284, "size": 284}