{"hash": "47b973881e486adf926f4d31ec2efb27b94ac4e233971b027d6712e5a0590c1c", "blockhash": "0000000000000000000e13cef7c366c0283d82e591d1acd082e914b08063cdf1", "vout": [{"scriptPubKey": {"reqSigs": 1, "hex": "0014fb6d18fa01811d6cdce2236169dca9cab724f390", "addresses": ["bc1qldk337spsywkeh8zydsknh9fe2mjfuus9k8v79"], "asm": "0 fb6d18fa01811d6cdce2236169dca9cab724f390", "type": "witness_v0_keyhash"}, "value": 1.64217197, "n": 0}, {"scriptPubKey": {"reqSigs": 1, "hex": "a914f7f801e0126e540196d88a9db743d98c0338dca287", "addresses": ["3QJ9vn1q5S3YoyMjdqN6ykTFTd1ZJrjh5o"], "asm": "OP_HASH160 f7f801e0126e540196d88a9db743d98c0338dca2 OP_EQUAL", "type": "scripthash"}, "value": 0.0183, "n": 1}], "hex": "01000000000101c9d3117831c3c2cf6dd7a47bbf6c56f3b046c8430865af76978b394940c7d3ed26000000171600145d1c7f22f98c60f310a9d9cf6acfec87f07eb0a2ffffffff026dc1c90900000000160014fb6d18fa01811d6cdce2236169dca9cab724f39070ec1b000000000017a914f7f801e0126e540196d88a9db743d98c0338dca2870247304402205901203bf5b6aa72fcc9469e9b2f2c20eb161c44afca23f7b02975c987137d3b0220761269bdfb414341b9d040b8b455d31186d77a2570a6b7ad7c0a05717dad90e70121036cecbbdcdd1fa6c6559721581d56f919416e874c93e974f4ee5365b6daececd000000000", "vin": [{"txinwitness": ["304402205901203bf5b6aa72fcc9469e9b2f2c20eb161c44afca23f7b02975c987137d3b0220761269bdfb414341b9d040b8b455d31186d77a2570a6b7ad7c0a05717dad90e701", "036cecbbdcdd1fa6c6559721581d56f919416e874c93e974f4ee5365b6daececd0"], "sequence": 4294967295, "scriptSig": {"hex": "1600145d1c7f22f98c60f310a9d9cf6acfec87f07eb0a2", "asm": "00145d1c7f22f98c60f310a9d9cf6acfec87f07eb0a2"}, "vout": 38, "txid": "edd3c74049398b9776af650843c846b0f3566cbf7ba4d76dcfc2c3317811d3c9"}], "txid": "29a9738d8171c4fd4eb78e8eb314f96a0254b18a650886264f29429b6dc49e18", "blocktime": 1537871767, "version": 1, "confirmations": 11495, "time": 1537871767, "locktime": 0, "vsize": 165, "size": 246}