{"hash": "29ae9dac184893b74118471c7a892d3a01210ab15c3a9891503cbeee9548654f", "blockhash": "000000000000000000022b45ed06c6f4ccd3cf7fb5ba4856ebd2e58215665228", "vout": [{"scriptPubKey": {"reqSigs": 1, "hex": "76a914ca6403bf1afa4d85bd6da313affa8a5cafb7fd5588ac", "addresses": ["1KT9JtXZnXcMmZ9UGZCVZVdDw6qMsqLLkY"], "asm": "OP_DUP OP_HASH160 ca6403bf1afa4d85bd6da313affa8a5cafb7fd55 OP_EQUALVERIFY OP_CHECKSIG", "type": "pubkeyhash"}, "value": 0.0002, "n": 0}, {"scriptPubKey": {"reqSigs": 1, "hex": "76a9148717a9fb7b79ac5e379ad95568c48fccc20fcac588ac", "addresses": ["1DKJa6p65sg9ggLbsJwqM6xDS2YLDVgXE1"], "asm": "OP_DUP OP_HASH160 8717a9fb7b79ac5e379ad95568c48fccc20fcac5 OP_EQUALVERIFY OP_CHECKSIG", "type": "pubkeyhash"}, "value": 0.0180996, "n": 1}], "hex": "0100000001cab75b80f3f52b93bf5ce54f17ccb4fb9e5054d8adf29f2991a843bfb9ad9474010000006b48304502210091375bbfcaaa3de734bbe3c3de254ca445d67516831297ce23eb6cc7f532e77a02204b240ecc09ff5fbe4508871819c189c6304bb004a646bd46d9c00d199d4d00a5012103f313e41328884ca9d8e13c033212c5cb6584c8eb26962fd0b2ea28a7ffd2a27efeffffff02204e0000000000001976a914ca6403bf1afa4d85bd6da313affa8a5cafb7fd5588ac289e1b00000000001976a9148717a9fb7b79ac5e379ad95568c48fccc20fcac588ac0b490800", "vin": [{"sequence": 4294967294, "scriptSig": {"hex": "48304502210091375bbfcaaa3de734bbe3c3de254ca445d67516831297ce23eb6cc7f532e77a02204b240ecc09ff5fbe4508871819c189c6304bb004a646bd46d9c00d199d4d00a5012103f313e41328884ca9d8e13c033212c5cb6584c8eb26962fd0b2ea28a7ffd2a27e", "asm": "304502210091375bbfcaaa3de734bbe3c3de254ca445d67516831297ce23eb6cc7f532e77a02204b240ecc09ff5fbe4508871819c189c6304bb004a646bd46d9c00d199d4d00a5[ALL] 03f313e41328884ca9d8e13c033212c5cb6584c8eb26962fd0b2ea28a7ffd2a27e"}, "vout": 1, "txid": "7494adb9bf43a891299ff2add854509efbb4cc174fe55cbf932bf5f3805bb7ca"}], "txid": "29ae9dac184893b74118471c7a892d3a01210ab15c3a9891503cbeee9548654f", "blocktime": 1537869901, "version": 1, "confirmations": 11522, "time": 1537869901, "locktime": 542987, "vsize": 226, "size": 226}