{"hash": "29b0cd6e5669971b030dc35fe572e382fcdb9d399c64ad67b2d3f567ed639e21", "blockhash": "00000000000000000004ffacab907a6b429b9a5745fa0b75af4234bf69dd7176", "vout": [{"scriptPubKey": {"type": "nulldata", "hex": "6a146f6d6e69000000000000001f000000abcdfb6570", "asm": "OP_RETURN 6f6d6e69000000000000001f000000abcdfb6570"}, "value": 0.0, "n": 0}, {"scriptPubKey": {"reqSigs": 1, "hex": "76a914a25dec4d0011064ef106a983c39c7a540699f22088ac", "addresses": ["1FoWyxwPXuj4C6abqwhjDWdz6D4PZgYRjA"], "asm": "OP_DUP OP_HASH160 a25dec4d0011064ef106a983c39c7a540699f220 OP_EQUALVERIFY OP_CHECKSIG", "type": "pubkeyhash"}, "value": 0.01990392, "n": 1}, {"scriptPubKey": {"reqSigs": 1, "hex": "76a914aa188d18af0d585ca01da942bf6b8aa8a8798fc888ac", "addresses": ["1GWPHTRPrF9rnD1jPpvSviZLCgSUAJmQfg"], "asm": "OP_DUP OP_HASH160 aa188d18af0d585ca01da942bf6b8aa8a8798fc8 OP_EQUALVERIFY OP_CHECKSIG", "type": "pubkeyhash"}, "value": 5.46e-06, "n": 2}], "hex": "010000000134b07c63415a2f2d7db7f3b38696d8a3ba0027b268a16d17390ca7cc0d177143020000006a4730440220621490bcb495086c19c325d76db837d40e851f4969fdad1c01fcd819e66fb7e702203f7e371641f72f3234471db698df5b60c27761e931c016a4a5e0dee9ae15a7df012103da5bac7b36d5aa38f531c6b9601e21bb598a4b6716ebed38b009a55dabde9440feffffff030000000000000000166a146f6d6e69000000000000001f000000abcdfb6570f85e1e00000000001976a914a25dec4d0011064ef106a983c39c7a540699f22088ac22020000000000001976a914aa188d18af0d585ca01da942bf6b8aa8a8798fc888ac16490800", "vin": [{"sequence": 4294967294, "scriptSig": {"hex": "4730440220621490bcb495086c19c325d76db837d40e851f4969fdad1c01fcd819e66fb7e702203f7e371641f72f3234471db698df5b60c27761e931c016a4a5e0dee9ae15a7df012103da5bac7b36d5aa38f531c6b9601e21bb598a4b6716ebed38b009a55dabde9440", "asm": "30440220621490bcb495086c19c325d76db837d40e851f4969fdad1c01fcd819e66fb7e702203f7e371641f72f3234471db698df5b60c27761e931c016a4a5e0dee9ae15a7df[ALL] 03da5bac7b36d5aa38f531c6b9601e21bb598a4b6716ebed38b009a55dabde9440"}, "vout": 2, "txid": "4371170dcca70c39176da168b22700baa3d89686b3f3b77d2d2f5a41637cb034"}], "txid": "29b0cd6e5669971b030dc35fe572e382fcdb9d399c64ad67b2d3f567ed639e21", "blocktime": 1537875543, "version": 1, "confirmations": 11464, "time": 1537875543, "locktime": 542998, "vsize": 256, "size": 256}