{"hash": "38c76d99fe922991b0b69e42686c2b61e0f915217c35f051be28666090562b4a", "blockhash": "0000000000000000001f0ddff1eddb255c1121bcd4da4f1bc9a0da00cae72433", "vout": [{"scriptPubKey": {"reqSigs": 1, "hex": "a91449d7e96499e76d96ef877a2fcb98823c8bccba2187", "addresses": ["38RTuMXR3rjgmqC2TwiJHrCLzc9nbGoNw7"], "asm": "OP_HASH160 49d7e96499e76d96ef877a2fcb98823c8bccba21 OP_EQUAL", "type": "scripthash"}, "value": 0.00050574, "n": 0}], "hex": "0100000000010129ab135411cf939a4191fbbb9156c9084b148609396d4efb493dd1712335ce4c00000000171600142fd12017eb099cfdd5dd7a0da91305667ac3b03fffffffff018ec500000000000017a91449d7e96499e76d96ef877a2fcb98823c8bccba218702483045022100fede3a222a1a91b3dca4f6042c889dd8d76600da612d7ee11212fd4238ba1bf802201f05863c23ffeff76f7fd0ed605f203b7df30ae3ef37732282de3f7612b4a75501210213d0ad865da36a0815164f576bf5bb723c3966002cf7c6566dd8db272b07176a00000000", "vin": [{"txinwitness": ["3045022100fede3a222a1a91b3dca4f6042c889dd8d76600da612d7ee11212fd4238ba1bf802201f05863c23ffeff76f7fd0ed605f203b7df30ae3ef37732282de3f7612b4a75501", "0213d0ad865da36a0815164f576bf5bb723c3966002cf7c6566dd8db272b07176a"], "sequence": 4294967295, "scriptSig": {"hex": "1600142fd12017eb099cfdd5dd7a0da91305667ac3b03f", "asm": "00142fd12017eb099cfdd5dd7a0da91305667ac3b03f"}, "vout": 0, "txid": "4cce352371d13d49fb4e6d390986144b08c95691bbfb91419a93cf115413ab29"}], "txid": "29b8a8e0098847396d287513aa15918fc7d319a873d034fc1ad2163f4b5365bc", "blocktime": 1537872018, "version": 1, "confirmations": 11489, "time": 1537872018, "locktime": 0, "vsize": 134, "size": 216}