{"hash": "29b9515b181b6bae04374066a8a4404196c78628ad12caac4ec569699a9818f6", "blockhash": "0000000000000000000e13cef7c366c0283d82e591d1acd082e914b08063cdf1", "vout": [{"scriptPubKey": {"reqSigs": 1, "hex": "a9140cf8b609093ac82adce2e87a8584f61a0ca4b53487", "addresses": ["32sbybR6sxKpt4twc2niL9J3TTKKBaBgrS"], "asm": "OP_HASH160 0cf8b609093ac82adce2e87a8584f61a0ca4b534 OP_EQUAL", "type": "scripthash"}, "value": 0.04688322, "n": 0}], "hex": "010000000144b21c6db018ad71838d1db65af7cface438e1043acdf4d680d56264f82cb180080000006b483045022100b1e208b1aea80982177286ed33f2b47109cb25e02285c3dbadde5d128436ec2602205fd21c5f9f368621c1afdd80b46a042d4ab58b0a9a17cf256d8ce4b704616278012102de0fea09e426715fd65d5dc5a39ff1f8ca739d0972629dc144971bf333233771ffffffff01c28947000000000017a9140cf8b609093ac82adce2e87a8584f61a0ca4b5348700000000", "vin": [{"sequence": 4294967295, "scriptSig": {"hex": "483045022100b1e208b1aea80982177286ed33f2b47109cb25e02285c3dbadde5d128436ec2602205fd21c5f9f368621c1afdd80b46a042d4ab58b0a9a17cf256d8ce4b704616278012102de0fea09e426715fd65d5dc5a39ff1f8ca739d0972629dc144971bf333233771", "asm": "3045022100b1e208b1aea80982177286ed33f2b47109cb25e02285c3dbadde5d128436ec2602205fd21c5f9f368621c1afdd80b46a042d4ab58b0a9a17cf256d8ce4b704616278[ALL] 02de0fea09e426715fd65d5dc5a39ff1f8ca739d0972629dc144971bf333233771"}, "vout": 8, "txid": "80b12cf86462d580d6f4cd3a04e138e4accff75ab61d8d8371ad18b06d1cb244"}], "txid": "29b9515b181b6bae04374066a8a4404196c78628ad12caac4ec569699a9818f6", "blocktime": 1537871767, "version": 1, "confirmations": 11494, "time": 1537871767, "locktime": 0, "vsize": 190, "size": 190}