{"hash": "4e7718443ab5fae127ebbe7f378f75a6c18991d0b3fba23d511e5607ebbd19ce", "blockhash": "00000000000000000017f5eb5941039fbcee6240d03bc1f2f8e35350df66a1d8", "vout": [{"scriptPubKey": {"reqSigs": 1, "hex": "a9149d9e407c7143e52cdf9b8186b8dc05cc8b2fdc7a87", "addresses": ["3G4RbCK1dNhVyQxk6Qp7kU487tiqFgS9bc"], "asm": "OP_HASH160 9d9e407c7143e52cdf9b8186b8dc05cc8b2fdc7a OP_EQUAL", "type": "scripthash"}, "value": 0.01050053, "n": 0}, {"scriptPubKey": {"reqSigs": 1, "hex": "a9140e2a553e20b6c50a0d0a5fe5503e808c1cf56ec187", "addresses": ["32yv6aP557Usn8ppJopvcT1v2V5o2TQE6d"], "asm": "OP_HASH160 0e2a553e20b6c50a0d0a5fe5503e808c1cf56ec1 OP_EQUAL", "type": "scripthash"}, "value": 1.03433954, "n": 1}], "hex": "0200000000010429455950deb2d249d63355ed8e554bed470f5a26706bd5badc310112c462372300000000171600141efca41eaf6fcd81551673c7f8ba464cc6fbb651feffffff86d51f24c608f1539b59aac91e19960f46538c74cd482de7e4cce9ea9c23299d0000000017160014945e919429d4f0b8b5208f6652442e0450a03aa1feffffffca612e86ce541de37ae3976acb2b4bfddfaebbce1c3cf9c30d8c2608d50e934b0800000017160014fb9b7f7bcb0dfc8b464404ed36ba82db3bf64385feffffffd690a2084d5e6c2dc93ba883897a4030aeeb996c0e8208b62bfb5f30398a98b90100000017160014c723ca9e28b343c5f91e94fbebbdfa1c19e50a26feffffff02c50510000000000017a9149d9e407c7143e52cdf9b8186b8dc05cc8b2fdc7a87e2462a060000000017a9140e2a553e20b6c50a0d0a5fe5503e808c1cf56ec18702483045022100bd3ae0e292f9dd434cc2c5b96277be1ec192b089a76cdaba7f28dd1962d9b65a02206be22ebb9a2ee204aea875254a061d50ebb35aac214757ac5ac4beded2fad09e012103e528e620f73e3949e7af90eeb1e3ff2a5012f382c5be29965b935fd15327ca040247304402207f66d23b8d9eea21e5a8a9ed4da5bee2f58b5b124c12a76bb07d887aca5bd41c02201c6dc1f2b6c6dce6061595fd0316b53763c6f976222a679a2d21a67cc4311983012103cb9f8f50e2d88b0a20640de1177b02980edbec4e15ea02aee25e91d1e1b846a80248304502210093de64f33737e557bf91c6abd70ee0edf75f6b7c4c24f3d8ef311629243de05f022057f02b7e43be0121b73bd81fb8ede05de22f47373edcab76cb4857af5bc152dd012103de1a380bb9270ac5bdfdd04df03a2c5e97f62ff00a5c2b093429ec4ee8edc23f0247304402201cc2ec0985fc4ab16f30c0ba4cbafa9f87ee616a4a28974925f72d1420ed2254022014ea1169261b1be5520620d2216642db39b9bf6a7f54a1067cece2ae4b0ca0bf0121026e92a5687427e8810994a96a8cb695d7a2bb0c7d9c3c59d0955260196c734813d7480800", "vin": [{"txinwitness": ["3045022100bd3ae0e292f9dd434cc2c5b96277be1ec192b089a76cdaba7f28dd1962d9b65a02206be22ebb9a2ee204aea875254a061d50ebb35aac214757ac5ac4beded2fad09e01", "03e528e620f73e3949e7af90eeb1e3ff2a5012f382c5be29965b935fd15327ca04"], "sequence": 4294967294, "scriptSig": {"hex": "1600141efca41eaf6fcd81551673c7f8ba464cc6fbb651", "asm": "00141efca41eaf6fcd81551673c7f8ba464cc6fbb651"}, "vout": 0, "txid": "233762c4120131dcbad56b70265a0f47ed4b558eed5533d649d2b2de50594529"}, {"txinwitness": ["304402207f66d23b8d9eea21e5a8a9ed4da5bee2f58b5b124c12a76bb07d887aca5bd41c02201c6dc1f2b6c6dce6061595fd0316b53763c6f976222a679a2d21a67cc431198301", "03cb9f8f50e2d88b0a20640de1177b02980edbec4e15ea02aee25e91d1e1b846a8"], "sequence": 4294967294, "scriptSig": {"hex": "160014945e919429d4f0b8b5208f6652442e0450a03aa1", "asm": "0014945e919429d4f0b8b5208f6652442e0450a03aa1"}, "vout": 0, "txid": "9d29239ceae9cce4e72d48cd748c53460f96191ec9aa599b53f108c6241fd586"}, {"txinwitness": ["304502210093de64f33737e557bf91c6abd70ee0edf75f6b7c4c24f3d8ef311629243de05f022057f02b7e43be0121b73bd81fb8ede05de22f47373edcab76cb4857af5bc152dd01", "03de1a380bb9270ac5bdfdd04df03a2c5e97f62ff00a5c2b093429ec4ee8edc23f"], "sequence": 4294967294, "scriptSig": {"hex": "160014fb9b7f7bcb0dfc8b464404ed36ba82db3bf64385", "asm": "0014fb9b7f7bcb0dfc8b464404ed36ba82db3bf64385"}, "vout": 8, "txid": "4b930ed508268c0dc3f93c1ccebbaedffd4b2bcb6a97e37ae31d54ce862e61ca"}, {"txinwitness": ["304402201cc2ec0985fc4ab16f30c0ba4cbafa9f87ee616a4a28974925f72d1420ed2254022014ea1169261b1be5520620d2216642db39b9bf6a7f54a1067cece2ae4b0ca0bf01", "026e92a5687427e8810994a96a8cb695d7a2bb0c7d9c3c59d0955260196c734813"], "sequence": 4294967294, "scriptSig": {"hex": "160014c723ca9e28b343c5f91e94fbebbdfa1c19e50a26", "asm": "0014c723ca9e28b343c5f91e94fbebbdfa1c19e50a26"}, "vout": 1, "txid": "b9988a39305ffb2bb608820e6c99ebae30407a8983a83bc92d6c5e4d08a290d6"}], "txid": "29c1549f8991ec379e746015bef6cc7275280bc4ffbf4459b9ef0f980885cd16", "blocktime": 1537874412, "version": 2, "confirmations": 11468, "time": 1537874412, "locktime": 542935, "vsize": 438, "size": 762}