{"hash": "fd4542221edc43024616b80fbd264242fdd6089195983d6ba07f6801c8f3b91f", "blockhash": "0000000000000000001f76057863aec43deb6fa401d9628bb513d65a8098bfab", "vout": [{"scriptPubKey": {"reqSigs": 1, "hex": "0014e373d5ebe35cee87cea801b0e22d8e10450c6ff3", "addresses": ["bc1qudeat6lrtnhg0n4gqxcwytvwzpzscmlnn0csf0"], "asm": "0 e373d5ebe35cee87cea801b0e22d8e10450c6ff3", "type": "witness_v0_keyhash"}, "value": 0.00131569, "n": 0}, {"scriptPubKey": {"reqSigs": 1, "hex": "76a914dd2c700128edb7efd437f8360cc89fed9dac090888ac", "addresses": ["1MATZy7GgZbfqxDgCYAkn2ip7drU3kgzX4"], "asm": "OP_DUP OP_HASH160 dd2c700128edb7efd437f8360cc89fed9dac0908 OP_EQUALVERIFY OP_CHECKSIG", "type": "pubkeyhash"}, "value": 0.00874747, "n": 1}], "hex": "01000000000101dc333d5afa0c7e0362f3abe245fc499a8508feca31d17629448d2d5da7d4370d0100000000ffffffff02f101020000000000160014e373d5ebe35cee87cea801b0e22d8e10450c6ff3fb580d00000000001976a914dd2c700128edb7efd437f8360cc89fed9dac090888ac0247304402205b640d3af5aa50e1b64053c35c4550394222225f2d2f1166d76936b1fc20e84c02201fce1a4b7363d5e9143bb18c05f148e25c62615dabcdbb23afa44912db9c4bfc012102207095b0ac73cf0e479a43055ecd042bcfed92623d49b0abcca1aff562aa8aff00000000", "vin": [{"txinwitness": ["304402205b640d3af5aa50e1b64053c35c4550394222225f2d2f1166d76936b1fc20e84c02201fce1a4b7363d5e9143bb18c05f148e25c62615dabcdbb23afa44912db9c4bfc01", "02207095b0ac73cf0e479a43055ecd042bcfed92623d49b0abcca1aff562aa8aff"], "sequence": 4294967295, "scriptSig": {"hex": "", "asm": ""}, "vout": 1, "txid": "0d37d4a75d2d8d442976d131cafe08859a49fc45e2abf362037e0cfa5a3d33dc"}], "txid": "29c34960878be7f9249855bcd4eb4eabe3f7c593914bac5cea7642631922ef40", "blocktime": 1537873891, "version": 1, "confirmations": 11478, "time": 1537873891, "locktime": 0, "vsize": 144, "size": 225}