{"hash": "05d00ab5e43d87583c8b75c80ba5f96d75105d078196a274c80d005f83317526", "blockhash": "0000000000000000001f76057863aec43deb6fa401d9628bb513d65a8098bfab", "vout": [{"scriptPubKey": {"reqSigs": 1, "hex": "76a9146af4487619239d3ab92b01156e52acd98bfb5cea88ac", "addresses": ["1AkXGRFHF2yymEwoiPFaiBhKSwWQqEFnXt"], "asm": "OP_DUP OP_HASH160 6af4487619239d3ab92b01156e52acd98bfb5cea OP_EQUALVERIFY OP_CHECKSIG", "type": "pubkeyhash"}, "value": 0.0018236, "n": 0}, {"scriptPubKey": {"reqSigs": 1, "hex": "a914f6794db8884c93b692d838d81e1db8be56e26acf87", "addresses": ["3QAFU4BgCqSmPHEtNG6LgXD2usQqPzhwqx"], "asm": "OP_HASH160 f6794db8884c93b692d838d81e1db8be56e26acf OP_EQUAL", "type": "scripthash"}, "value": 0.01122518, "n": 1}], "hex": "02000000000102093503a18869faa9353069952992d17c9a0dd59de53240af23d702a0c51ef5160000000017160014fb04dcf26411a5006b4d082eac36efe669a6ef31feffffff9845054ca1519a1689107dce4665a74c2f9410fbe18d79ace2bc063b7c8a999f01000000171600147ba9498714ac2e381dce695ac7b3d62c492b143dfeffffff0258c80200000000001976a9146af4487619239d3ab92b01156e52acd98bfb5cea88acd62011000000000017a914f6794db8884c93b692d838d81e1db8be56e26acf8702483045022100e1343e134fe9f1fd879b8130845003dbe381b2124fc0a4c6bb6ddf6cbf8d3fe2022075ec20cb96094643029c6f8f94864c039c381ea38afbbbeda7e9bd7b16e1539201210218b290ea0205843152f471f634fd3d64b700889a83db5f050b3adfd89fcdf22e02483045022100a296f50c1cb18e2b39549f91746ce48d5837f0fcdf77c5eb4e7ee38f11e035f202201dfa912827b202b189c6e607f96a5edd258ac63975d44f9b0ab53043f6310a8a0121029b0ec86705420e04f93ab490553d30af4b5ce1060042bf747cf914931d99220d14490800", "vin": [{"txinwitness": ["3045022100e1343e134fe9f1fd879b8130845003dbe381b2124fc0a4c6bb6ddf6cbf8d3fe2022075ec20cb96094643029c6f8f94864c039c381ea38afbbbeda7e9bd7b16e1539201", "0218b290ea0205843152f471f634fd3d64b700889a83db5f050b3adfd89fcdf22e"], "sequence": 4294967294, "scriptSig": {"hex": "160014fb04dcf26411a5006b4d082eac36efe669a6ef31", "asm": "0014fb04dcf26411a5006b4d082eac36efe669a6ef31"}, "vout": 0, "txid": "16f51ec5a002d723af4032e59dd50d9a7cd1922995693035a9fa6988a1033509"}, {"txinwitness": ["3045022100a296f50c1cb18e2b39549f91746ce48d5837f0fcdf77c5eb4e7ee38f11e035f202201dfa912827b202b189c6e607f96a5edd258ac63975d44f9b0ab53043f6310a8a01", "029b0ec86705420e04f93ab490553d30af4b5ce1060042bf747cf914931d99220d"], "sequence": 4294967294, "scriptSig": {"hex": "1600147ba9498714ac2e381dce695ac7b3d62c492b143d", "asm": "00147ba9498714ac2e381dce695ac7b3d62c492b143d"}, "vout": 1, "txid": "9f998a7c3b06bce2ac798de1fb10942f4ca76546ce7d1089169a51a14c054598"}], "txid": "29c8f80a052b89cbd0b9bcd364aab8a66ebad2d8ff0afc090e24485c625acf47", "blocktime": 1537873891, "version": 2, "confirmations": 11478, "time": 1537873891, "locktime": 542996, "vsize": 259, "size": 422}