{"hash": "29c98f7a4cc8d8174ae4a64cbc013954ce7f83b910fe5817f2b4a39e4408758c", "blockhash": "0000000000000000001f0ddff1eddb255c1121bcd4da4f1bc9a0da00cae72433", "vout": [{"scriptPubKey": {"reqSigs": 1, "hex": "76a914a7b6fd6cc22056c67bc3901fd827e4b169ed84d988ac", "addresses": ["1GHo4QBTxiMYvvENpf2JDQAvNnk3uabDo6"], "asm": "OP_DUP OP_HASH160 a7b6fd6cc22056c67bc3901fd827e4b169ed84d9 OP_EQUALVERIFY OP_CHECKSIG", "type": "pubkeyhash"}, "value": 0.01359761, "n": 0}, {"scriptPubKey": {"reqSigs": 1, "hex": "76a9142b59f00dce8b4dd2e3b835eb4d3c4cff84c5a51c88ac", "addresses": ["14xDoEN4NRoeFymWKu2d9aJ6JWRiPSiXEM"], "asm": "OP_DUP OP_HASH160 2b59f00dce8b4dd2e3b835eb4d3c4cff84c5a51c OP_EQUALVERIFY OP_CHECKSIG", "type": "pubkeyhash"}, "value": 2.24770893, "n": 1}], "hex": "01000000013cd85e7715183cb01d130f64a0df27c9fd2270b58afdbcf4ace89ffe3d0fb983010000006b483045022100bd795beb555120ce116cad8b6618a06cdbae6771404f57ebc6b7f477bda36f950220165d4aefb75f836f95b87d94810be20ab0ae72913529462ef9e7352718606726012103aa976dc1ab74e9eb6d72824dc3a84f1419b62594f154158645c5e2ec26e4c1d3ffffffff0291bf1400000000001976a914a7b6fd6cc22056c67bc3901fd827e4b169ed84d988ac4dbb650d000000001976a9142b59f00dce8b4dd2e3b835eb4d3c4cff84c5a51c88ac00000000", "vin": [{"sequence": 4294967295, "scriptSig": {"hex": "483045022100bd795beb555120ce116cad8b6618a06cdbae6771404f57ebc6b7f477bda36f950220165d4aefb75f836f95b87d94810be20ab0ae72913529462ef9e7352718606726012103aa976dc1ab74e9eb6d72824dc3a84f1419b62594f154158645c5e2ec26e4c1d3", "asm": "3045022100bd795beb555120ce116cad8b6618a06cdbae6771404f57ebc6b7f477bda36f950220165d4aefb75f836f95b87d94810be20ab0ae72913529462ef9e7352718606726[ALL] 03aa976dc1ab74e9eb6d72824dc3a84f1419b62594f154158645c5e2ec26e4c1d3"}, "vout": 1, "txid": "83b90f3dfe9fe8acf4bcfd8ab57022fdc927dfa0640f131db03c1815775ed83c"}], "txid": "29c98f7a4cc8d8174ae4a64cbc013954ce7f83b910fe5817f2b4a39e4408758c", "blocktime": 1537872018, "version": 1, "confirmations": 11489, "time": 1537872018, "locktime": 0, "vsize": 226, "size": 226}