{"hash": "85df7928db58c733d8ed8dde242e94e36b5dd28bf9b6520898cb39dab0887b9a", "blockhash": "0000000000000000000e13cef7c366c0283d82e591d1acd082e914b08063cdf1", "vout": [{"scriptPubKey": {"reqSigs": 1, "hex": "a91414fcc2d5edee5ca25949118c849ecac702f2edc687", "addresses": ["33bzEXZzC7qGRHG6FW5NpTQAD1VvYp8KKB"], "asm": "OP_HASH160 14fcc2d5edee5ca25949118c849ecac702f2edc6 OP_EQUAL", "type": "scripthash"}, "value": 0.005333, "n": 0}, {"scriptPubKey": {"reqSigs": 1, "hex": "a914d78f2f696c8751714977f828ff9ef3bd2805146e87", "addresses": ["3MLnjUBt577fpVjMxvg1yFvRRTEduaFXpd"], "asm": "OP_HASH160 d78f2f696c8751714977f828ff9ef3bd2805146e OP_EQUAL", "type": "scripthash"}, "value": 0.0056595, "n": 1}], "hex": "010000000001024c8dca55f4c84475588c003ec1f004899503fcea0ee6f2ea489e4b89fdf7f16300000000232200201ceed021c5d1f92fadaface1a24857f5ef237b5dc9ba04d245042412fd1004abffffffff3f211f9e7ef33a0c9d3a4f877d6c6ff1f71739aa622563c47b6d43103e9b35f50100000023220020044dca37d751f85496830058a9ca27f6d6d96cf27d57404c3e35585f5dc3c331ffffffff02342308000000000017a91414fcc2d5edee5ca25949118c849ecac702f2edc687bea208000000000017a914d78f2f696c8751714977f828ff9ef3bd2805146e87040047304402207b19b4690cc40dc7c4e9317cb7e168739cd30016bb20b204014386a48ed817a602207ef7261632e4b2bfaf4a107dfe9c7c3595989576c6b1018c859f45ba552dcaf00147304402205460b536a0208e61958750ced50bb653c7b4e7b22c9e2f540b1dec4be7c6f100022023fa7a8adfa10e3b0255ae5f2bf817ab3601a4c1469c26dc3a4445e547aa9cd30169522102239e668f4db7d10c83d81451a69e01783792cfe936483062ca5763088c8f89802103d0e473acbc80ddea2bdbc156a375a245f21c703772ca86d4b93f0685cf08b052210388eb27e2df5d74c291b78a134218a0ae020e3a91cbb64687d08ec632f114598553ae040047304402206f4bc964f33667188e92f32bc2a15a4148731caf6d5269128036bb99b2993fd502207aa8fd0d688085f564644d0a311876d390343048d1abff67da049bc59789e24e01483045022100f1a4a05a70ebe6ca595fa437fba19204fd2537075815e195c10e699757acd41e02204952ba1c15d5f0b180f483fe71b91ef2552efc63c9eeab93848fbff3df474e310169522102645ecf04eb2f1e6f1a01d1531d27ff7df2bbc9f74d958ce3f1eb4364d78ac03d21038c7d4f4ba7068969030c27571ac4059029c37c2c5db45c153f98d988213bfc2621025eb1c3b6ee35de01385521ba449480b594532c43941e183c8e020095d72e28f553ae11490800", "vin": [{"txinwitness": ["", "304402207b19b4690cc40dc7c4e9317cb7e168739cd30016bb20b204014386a48ed817a602207ef7261632e4b2bfaf4a107dfe9c7c3595989576c6b1018c859f45ba552dcaf001", "304402205460b536a0208e61958750ced50bb653c7b4e7b22c9e2f540b1dec4be7c6f100022023fa7a8adfa10e3b0255ae5f2bf817ab3601a4c1469c26dc3a4445e547aa9cd301", "522102239e668f4db7d10c83d81451a69e01783792cfe936483062ca5763088c8f89802103d0e473acbc80ddea2bdbc156a375a245f21c703772ca86d4b93f0685cf08b052210388eb27e2df5d74c291b78a134218a0ae020e3a91cbb64687d08ec632f114598553ae"], "sequence": 4294967295, "scriptSig": {"hex": "2200201ceed021c5d1f92fadaface1a24857f5ef237b5dc9ba04d245042412fd1004ab", "asm": "00201ceed021c5d1f92fadaface1a24857f5ef237b5dc9ba04d245042412fd1004ab"}, "vout": 0, "txid": "63f1f7fd894b9e48eaf2e60eeafc03958904f0c13e008c587544c8f455ca8d4c"}, {"txinwitness": ["", "304402206f4bc964f33667188e92f32bc2a15a4148731caf6d5269128036bb99b2993fd502207aa8fd0d688085f564644d0a311876d390343048d1abff67da049bc59789e24e01", "3045022100f1a4a05a70ebe6ca595fa437fba19204fd2537075815e195c10e699757acd41e02204952ba1c15d5f0b180f483fe71b91ef2552efc63c9eeab93848fbff3df474e3101", "522102645ecf04eb2f1e6f1a01d1531d27ff7df2bbc9f74d958ce3f1eb4364d78ac03d21038c7d4f4ba7068969030c27571ac4059029c37c2c5db45c153f98d988213bfc2621025eb1c3b6ee35de01385521ba449480b594532c43941e183c8e020095d72e28f553ae"], "sequence": 4294967295, "scriptSig": {"hex": "220020044dca37d751f85496830058a9ca27f6d6d96cf27d57404c3e35585f5dc3c331", "asm": "0020044dca37d751f85496830058a9ca27f6d6d96cf27d57404c3e35585f5dc3c331"}, "vout": 1, "txid": "f5359b3e10436d7bc4632562aa3917f7f16f6c7d874f3a9d0c3af37e9e1f213f"}], "txid": "29cc0c5eac6d6c9ff6751bdfc7a9a0be0208417134ca2ef2e71e534a8ec8d7c2", "blocktime": 1537871767, "version": 1, "confirmations": 11491, "time": 1537871767, "locktime": 542993, "vsize": 353, "size": 733}