{"hash": "29cdd9adb04c62523afa7b2625929f3e7e1fc6da7209f43473bb4b2ae3602414", "blockhash": "00000000000000000004ffacab907a6b429b9a5745fa0b75af4234bf69dd7176", "vout": [{"scriptPubKey": {"reqSigs": 1, "hex": "76a914fa8181110ab2cc5c23666104ffdf47032f575ec988ac", "addresses": ["1PqZ54m5KdNG3yGJHc5wCh4GZuDPn3ctWu"], "asm": "OP_DUP OP_HASH160 fa8181110ab2cc5c23666104ffdf47032f575ec9 OP_EQUALVERIFY OP_CHECKSIG", "type": "pubkeyhash"}, "value": 0.1, "n": 0}, {"scriptPubKey": {"reqSigs": 1, "hex": "a91456593e79eda88aed076ada20c901e1dbe0e63caf87", "addresses": ["39Zawpt2fRAwwPw2fZjr63AEdVfgXVYbfv"], "asm": "OP_HASH160 56593e79eda88aed076ada20c901e1dbe0e63caf OP_EQUAL", "type": "scripthash"}, "value": 0.00280982, "n": 1}, {"scriptPubKey": {"reqSigs": 1, "hex": "76a91456f7b700eb1d1bc6e6b1d4ebce68085cdb2dc5b388ac", "addresses": ["18vqs2bR6o5wd6LVtnCDbngLhoos35Xmyd"], "asm": "OP_DUP OP_HASH160 56f7b700eb1d1bc6e6b1d4ebce68085cdb2dc5b3 OP_EQUALVERIFY OP_CHECKSIG", "type": "pubkeyhash"}, "value": 0.1, "n": 2}, {"scriptPubKey": {"reqSigs": 1, "hex": "a9145488da3ae6c78bc730ff64d8f3cd67155e46ac9387", "addresses": ["39PzdLHC7EssJ8WsvMyNcJgSkkeR8NYaZH"], "asm": "OP_HASH160 5488da3ae6c78bc730ff64d8f3cd67155e46ac93 OP_EQUAL", "type": "scripthash"}, "value": 0.00300909, "n": 3}, {"scriptPubKey": {"reqSigs": 1, "hex": "76a9140cfbee3f99b7bd61db8eb365788f1550f14662fb88ac", "addresses": ["12BeukZDAGsQyZAAto8cHhdKtfE5Rtw1Kz"], "asm": "OP_DUP OP_HASH160 0cfbee3f99b7bd61db8eb365788f1550f14662fb OP_EQUALVERIFY OP_CHECKSIG", "type": "pubkeyhash"}, "value": 2.67763223, "n": 4}, {"scriptPubKey": {"reqSigs": 1, "hex": "a914150be4e77d498a56468aca063480ee8955036a8087", "addresses": ["33cJMzXnUi1zmL4bFxsqSvwQvSR1imoLXP"], "asm": "OP_HASH160 150be4e77d498a56468aca063480ee8955036a80 OP_EQUAL", "type": "scripthash"}, "value": 0.02923107, "n": 5}], "hex": "02000000010605350ecab54a75b550e6e929ede12a45e2d2cfb140e826fb84f23ee9fff539010000006b483045022100c8e168f0f70c5d84bd5fa581ed12a30d88d9de76ed46cd20b6e069fe5658b9a202200a0a5c7591f0cf83afd80dde4bffe92c75cf2a5145ef0a5526a7dd0934068ff3012102101eb4c6b32aba2e98583ea6b5581558a1f6a4e12f55665e0f57e00496c56632ffffffff0680969800000000001976a914fa8181110ab2cc5c23666104ffdf47032f575ec988ac964904000000000017a91456593e79eda88aed076ada20c901e1dbe0e63caf8780969800000000001976a91456f7b700eb1d1bc6e6b1d4ebce68085cdb2dc5b388ac6d9704000000000017a9145488da3ae6c78bc730ff64d8f3cd67155e46ac938717bef50f000000001976a9140cfbee3f99b7bd61db8eb365788f1550f14662fb88ac639a2c000000000017a914150be4e77d498a56468aca063480ee8955036a808700000000", "vin": [{"sequence": 4294967295, "scriptSig": {"hex": "483045022100c8e168f0f70c5d84bd5fa581ed12a30d88d9de76ed46cd20b6e069fe5658b9a202200a0a5c7591f0cf83afd80dde4bffe92c75cf2a5145ef0a5526a7dd0934068ff3012102101eb4c6b32aba2e98583ea6b5581558a1f6a4e12f55665e0f57e00496c56632", "asm": "3045022100c8e168f0f70c5d84bd5fa581ed12a30d88d9de76ed46cd20b6e069fe5658b9a202200a0a5c7591f0cf83afd80dde4bffe92c75cf2a5145ef0a5526a7dd0934068ff3[ALL] 02101eb4c6b32aba2e98583ea6b5581558a1f6a4e12f55665e0f57e00496c56632"}, "vout": 1, "txid": "39f5ffe93ef284fb26e840b1cfd2e2452ae1ed29e9e650b5754ab5ca0e350506"}], "txid": "29cdd9adb04c62523afa7b2625929f3e7e1fc6da7209f43473bb4b2ae3602414", "blocktime": 1537875543, "version": 2, "confirmations": 11464, "time": 1537875543, "locktime": 0, "vsize": 356, "size": 356}