{"hash": "29cf3197a404f104aa17ba421942c08534470278ed6a1e3e33b96da9ad5524eb", "blockhash": "0000000000000000000baef3f32e3676a92c3b2e5da21b426e4f302fc371ce76", "vout": [{"scriptPubKey": {"reqSigs": 1, "hex": "76a914ca6403bf1afa4d85bd6da313affa8a5cafb7fd5588ac", "addresses": ["1KT9JtXZnXcMmZ9UGZCVZVdDw6qMsqLLkY"], "asm": "OP_DUP OP_HASH160 ca6403bf1afa4d85bd6da313affa8a5cafb7fd55 OP_EQUALVERIFY OP_CHECKSIG", "type": "pubkeyhash"}, "value": 0.0002, "n": 0}, {"scriptPubKey": {"reqSigs": 1, "hex": "76a91475ec82dc1ff04ccbc5af28692340263ac82caaab88ac", "addresses": ["1BkXPXeeznpqv26gax1mnrPnZqmcX9gk7b"], "asm": "OP_DUP OP_HASH160 75ec82dc1ff04ccbc5af28692340263ac82caaab OP_EQUALVERIFY OP_CHECKSIG", "type": "pubkeyhash"}, "value": 0.01732511, "n": 1}], "hex": "01000000018027f58326475d44367a60718afe4f19844f00c01c9541801de1b07faf15ae13000000006a4730440220291d76166bf2922afe0432da2b07a19c2d6748988615bd1cb2b8381f21111d6f0220718463dc1171c62c3dec8aff9bf6ff4dd1bf40ee80ff2b2d6b2c680b39de70e30121033dd730cfa54ff788899f94f58494bc8a970915ceefdf14037d1b14944d13d867feffffff02204e0000000000001976a914ca6403bf1afa4d85bd6da313affa8a5cafb7fd5588ac9f6f1a00000000001976a91475ec82dc1ff04ccbc5af28692340263ac82caaab88ac17490800", "vin": [{"sequence": 4294967294, "scriptSig": {"hex": "4730440220291d76166bf2922afe0432da2b07a19c2d6748988615bd1cb2b8381f21111d6f0220718463dc1171c62c3dec8aff9bf6ff4dd1bf40ee80ff2b2d6b2c680b39de70e30121033dd730cfa54ff788899f94f58494bc8a970915ceefdf14037d1b14944d13d867", "asm": "30440220291d76166bf2922afe0432da2b07a19c2d6748988615bd1cb2b8381f21111d6f0220718463dc1171c62c3dec8aff9bf6ff4dd1bf40ee80ff2b2d6b2c680b39de70e3[ALL] 033dd730cfa54ff788899f94f58494bc8a970915ceefdf14037d1b14944d13d867"}, "vout": 0, "txid": "13ae15af7fb0e11d8041951cc0004f84194ffe8a71607a36445d472683f52780"}], "txid": "29cf3197a404f104aa17ba421942c08534470278ed6a1e3e33b96da9ad5524eb", "blocktime": 1537876114, "version": 1, "confirmations": 11459, "time": 1537876114, "locktime": 542999, "vsize": 225, "size": 225}