{"hash": "29d59019f5714215c37fa6284e3bab111838db9c895cc7a5c358886681d84e8a", "blockhash": "0000000000000000000dcc0f55137456b1a82d3642486a52398922ac4d620174", "vout": [{"scriptPubKey": {"reqSigs": 1, "hex": "a9142dc521bbd46bda63487d9de0b4c7c578d4cb134287", "addresses": ["35s2V8baj4dgNcv9X7QqwYUMAnk8ruTri2"], "asm": "OP_HASH160 2dc521bbd46bda63487d9de0b4c7c578d4cb1342 OP_EQUAL", "type": "scripthash"}, "value": 0.04851838, "n": 0}], "hex": "020000000171f92c654cdcdd22fc08b0ec6322431cac606975419b65e7c7a756cb4e9c4c32000000006a4730440220755b7a76250977edd0d99497b724f8f0b89b210a825a1c60f4db2e8cb90858040220760420243980b1643a224ea1b56607392446ac95636330452a4143914ea97746012103986ab4af650f0896dd9b3278437ff741d41eb42df882dcac44f59e887e8f9ec2feffffff017e084a000000000017a9142dc521bbd46bda63487d9de0b4c7c578d4cb1342870c490800", "vin": [{"sequence": 4294967294, "scriptSig": {"hex": "4730440220755b7a76250977edd0d99497b724f8f0b89b210a825a1c60f4db2e8cb90858040220760420243980b1643a224ea1b56607392446ac95636330452a4143914ea97746012103986ab4af650f0896dd9b3278437ff741d41eb42df882dcac44f59e887e8f9ec2", "asm": "30440220755b7a76250977edd0d99497b724f8f0b89b210a825a1c60f4db2e8cb90858040220760420243980b1643a224ea1b56607392446ac95636330452a4143914ea97746[ALL] 03986ab4af650f0896dd9b3278437ff741d41eb42df882dcac44f59e887e8f9ec2"}, "vout": 0, "txid": "324c9c4ecb56a7c7e7659b41756960ac1c432263ecb008fc22dddc4c652cf971"}], "txid": "29d59019f5714215c37fa6284e3bab111838db9c895cc7a5c358886681d84e8a", "blocktime": 1537870268, "version": 2, "confirmations": 11518, "time": 1537870268, "locktime": 542988, "vsize": 189, "size": 189}