{"hash": "05bd9775ce09e3d45c425a5eeffa02d01f3fa90f73be1a564c7182fbb8f204c6", "blockhash": "0000000000000000001f76057863aec43deb6fa401d9628bb513d65a8098bfab", "vout": [{"scriptPubKey": {"reqSigs": 1, "hex": "0014fb65f7319dfd5b7a0eba43c2716383f7ab8358d1", "addresses": ["bc1qldjlwvval4dh5r46g0p8zcur774cxkx3j3lqem"], "asm": "0 fb65f7319dfd5b7a0eba43c2716383f7ab8358d1", "type": "witness_v0_keyhash"}, "value": 0.03641655, "n": 0}, {"scriptPubKey": {"reqSigs": 1, "hex": "76a9141f1417e47f8ff39edd4d08e07d4d7dab1c0567c088ac", "addresses": ["13qL24EkXULuUb4oSgyR6gEenHMqriXZyF"], "asm": "OP_DUP OP_HASH160 1f1417e47f8ff39edd4d08e07d4d7dab1c0567c0 OP_EQUALVERIFY OP_CHECKSIG", "type": "pubkeyhash"}, "value": 0.11170274, "n": 1}], "hex": "01000000000101497819f1fe74f60977dcafe45e3983400dbe9290ff914a31a894a0e47934ee9c0000000000ffffffff023791370000000000160014fb65f7319dfd5b7a0eba43c2716383f7ab8358d1e271aa00000000001976a9141f1417e47f8ff39edd4d08e07d4d7dab1c0567c088ac024830450221008827335e279e0bf9c08b116ec9d3d9bef081705ede602d261cf4cece3c30d04e02203c18c6634eca79d9f76bd3040c4d08a8edf1da6f7ca606dc61c52ae0584b6fc6012103e3d09bcae601e058a5bee65c23e386b1ae9ab2873286b87f23a65687446435bd00000000", "vin": [{"txinwitness": ["30450221008827335e279e0bf9c08b116ec9d3d9bef081705ede602d261cf4cece3c30d04e02203c18c6634eca79d9f76bd3040c4d08a8edf1da6f7ca606dc61c52ae0584b6fc601", "03e3d09bcae601e058a5bee65c23e386b1ae9ab2873286b87f23a65687446435bd"], "sequence": 4294967295, "scriptSig": {"hex": "", "asm": ""}, "vout": 0, "txid": "9cee3479e4a094a8314a91ff9092be0d4083395ee4afdc7709f674fef1197849"}], "txid": "29dca4a199f897af67b9e05c4596cc20c37179cacc3c18aa30e60f6304ceb816", "blocktime": 1537873891, "version": 1, "confirmations": 11478, "time": 1537873891, "locktime": 0, "vsize": 144, "size": 226}