{"hash": "c995015fc1f0a20062163ec0f054ba8f2896e8c37b1cc1d2f982f9d44142e4d0", "blockhash": "0000000000000000001cda96e906b7601b7a6fb1a3b62bca570a9e5d8f4b3de1", "vout": [{"scriptPubKey": {"reqSigs": 1, "hex": "76a914165580a527a7ccd715e74cec2c35ca8a6eec3bf688ac", "addresses": ["1336J3HvRjQ59DJWsYznfqfpFWicPopFP6"], "asm": "OP_DUP OP_HASH160 165580a527a7ccd715e74cec2c35ca8a6eec3bf6 OP_EQUALVERIFY OP_CHECKSIG", "type": "pubkeyhash"}, "value": 0.00549574, "n": 0}, {"scriptPubKey": {"reqSigs": 1, "hex": "a914414cec0fc72a9410f6836edaf08de1aa3b2a321c87", "addresses": ["37eHzewnAFRR2SVZu8rZM3nBsmuE2XBU7D"], "asm": "OP_HASH160 414cec0fc72a9410f6836edaf08de1aa3b2a321c OP_EQUAL", "type": "scripthash"}, "value": 0.25199164, "n": 1}], "hex": "010000000001015b161b3643109bd3df110b399535ab7623d00b82213d37a483ef1b34e4587b030100000023220020ce74cde37cfb8dd71d0179287e12fc721ee236ce3c89c2745bcd365b39807eb3ffffffff02c6620800000000001976a914165580a527a7ccd715e74cec2c35ca8a6eec3bf688ac3c8280010000000017a914414cec0fc72a9410f6836edaf08de1aa3b2a321c87040047304402202f7dbeb644bd0cbe14ca6d4a9c867ca409647c7e2ff1d325f324e3f5b8d45e9c02200fbc31604dd80aece6b04fa6335a0ee497ce2988ccba7f24734e5a7a469a3eba01483045022100f7d6c47afdbf0297a35c6020dd134fe4a0749c072e083e72ac63524ae4dca43d022006640b4e835b8162bac9e14ab916bcecf2185879f56066f285df6a96765f54f00147522103ada901d90d5a76319a60f228e0b1bbc84b1d9a87238550bae5d5d190067b66712103871fc2ca08e6950b38867e8e6a0e94ee625223d3aa0df5c65f414c6d784467e252ae00000000", "vin": [{"txinwitness": ["", "304402202f7dbeb644bd0cbe14ca6d4a9c867ca409647c7e2ff1d325f324e3f5b8d45e9c02200fbc31604dd80aece6b04fa6335a0ee497ce2988ccba7f24734e5a7a469a3eba01", "3045022100f7d6c47afdbf0297a35c6020dd134fe4a0749c072e083e72ac63524ae4dca43d022006640b4e835b8162bac9e14ab916bcecf2185879f56066f285df6a96765f54f001", "522103ada901d90d5a76319a60f228e0b1bbc84b1d9a87238550bae5d5d190067b66712103871fc2ca08e6950b38867e8e6a0e94ee625223d3aa0df5c65f414c6d784467e252ae"], "sequence": 4294967295, "scriptSig": {"hex": "220020ce74cde37cfb8dd71d0179287e12fc721ee236ce3c89c2745bcd365b39807eb3", "asm": "0020ce74cde37cfb8dd71d0179287e12fc721ee236ce3c89c2745bcd365b39807eb3"}, "vout": 1, "txid": "037b58e4341bef83a4373d21820bd02376ab3595390b11dfd39b1043361b165b"}], "txid": "29e448efbc134c05b223bf473ac56360ec444f9479b1756ce43f463c661b8e5d", "blocktime": 1537873282, "version": 1, "confirmations": 11484, "time": 1537873282, "locktime": 0, "vsize": 208, "size": 373}