{"hash": "29ea0a289e43faa55b33fd0f8c05a78f97f0bc0771988aae9287d5e6173de55b", "blockhash": "0000000000000000000dcc0f55137456b1a82d3642486a52398922ac4d620174", "vout": [{"scriptPubKey": {"reqSigs": 1, "hex": "76a914993fd048829cdeec11ded8a09ab556046b26cf4888ac", "addresses": ["1EyJqCSF2TbxHftf1rDcnFQB7VBvr5AUdK"], "asm": "OP_DUP OP_HASH160 993fd048829cdeec11ded8a09ab556046b26cf48 OP_EQUALVERIFY OP_CHECKSIG", "type": "pubkeyhash"}, "value": 0.00286751, "n": 0}, {"scriptPubKey": {"reqSigs": 1, "hex": "76a914ba48d3090f0bcc93b34873ba6450d4ac90d408dd88ac", "addresses": ["1Hyyvc7rpHsg1tgDw9ojbGkvVLTDU6sDkU"], "asm": "OP_DUP OP_HASH160 ba48d3090f0bcc93b34873ba6450d4ac90d408dd OP_EQUALVERIFY OP_CHECKSIG", "type": "pubkeyhash"}, "value": 5.46e-06, "n": 1}, {"scriptPubKey": {"type": "nulldata", "hex": "6a146f6d6e69000000000000001f00000030fd62cb69", "asm": "OP_RETURN 6f6d6e69000000000000001f00000030fd62cb69"}, "value": 0.0, "n": 2}], "hex": "0100000002c7886fb591d4fd65275c51cc5648ef6f29430ba4701fd54b16aaafcd8d3cddc8010000008b48304502210085fc848702872c2bd56b54925d6c2ba5817b441da0bdb30e5ae9722c62b62cb0022061c47473f9133997c91f508386e413b64fb88415e2318dfd13bf8ce657ed874201410453cf80de94ad89f23054c246ecc4fe7f569429cc28f845c00e5523256b81424ef95667cfc48a6e18cc4beb335fc6b0aa612c33bb6f223dbc193f7bf67c02c958ffffffffd9ded832bafff95d2f3b8b4bcb7e77b0c9d58109ff14db74581cd0ee61383ec2000000008b483045022100986181da95d3f06a7e643294e040fa1b7d8eaf2bfd381afa83bbc14350d1769b02202e70710c8226e42b65cac5e1212b05b19be13f70dc73b99ff4505d940ba7cff501410453cf80de94ad89f23054c246ecc4fe7f569429cc28f845c00e5523256b81424ef95667cfc48a6e18cc4beb335fc6b0aa612c33bb6f223dbc193f7bf67c02c958ffffffff031f600400000000001976a914993fd048829cdeec11ded8a09ab556046b26cf4888ac22020000000000001976a914ba48d3090f0bcc93b34873ba6450d4ac90d408dd88ac0000000000000000166a146f6d6e69000000000000001f00000030fd62cb6900000000", "vin": [{"sequence": 4294967295, "scriptSig": {"hex": "48304502210085fc848702872c2bd56b54925d6c2ba5817b441da0bdb30e5ae9722c62b62cb0022061c47473f9133997c91f508386e413b64fb88415e2318dfd13bf8ce657ed874201410453cf80de94ad89f23054c246ecc4fe7f569429cc28f845c00e5523256b81424ef95667cfc48a6e18cc4beb335fc6b0aa612c33bb6f223dbc193f7bf67c02c958", "asm": "304502210085fc848702872c2bd56b54925d6c2ba5817b441da0bdb30e5ae9722c62b62cb0022061c47473f9133997c91f508386e413b64fb88415e2318dfd13bf8ce657ed8742[ALL] 0453cf80de94ad89f23054c246ecc4fe7f569429cc28f845c00e5523256b81424ef95667cfc48a6e18cc4beb335fc6b0aa612c33bb6f223dbc193f7bf67c02c958"}, "vout": 1, "txid": "c8dd3c8dcdafaa164bd51f70a40b43296fef4856cc515c2765fdd491b56f88c7"}, {"sequence": 4294967295, "scriptSig": {"hex": "483045022100986181da95d3f06a7e643294e040fa1b7d8eaf2bfd381afa83bbc14350d1769b02202e70710c8226e42b65cac5e1212b05b19be13f70dc73b99ff4505d940ba7cff501410453cf80de94ad89f23054c246ecc4fe7f569429cc28f845c00e5523256b81424ef95667cfc48a6e18cc4beb335fc6b0aa612c33bb6f223dbc193f7bf67c02c958", "asm": "3045022100986181da95d3f06a7e643294e040fa1b7d8eaf2bfd381afa83bbc14350d1769b02202e70710c8226e42b65cac5e1212b05b19be13f70dc73b99ff4505d940ba7cff5[ALL] 0453cf80de94ad89f23054c246ecc4fe7f569429cc28f845c00e5523256b81424ef95667cfc48a6e18cc4beb335fc6b0aa612c33bb6f223dbc193f7bf67c02c958"}, "vout": 0, "txid": "c23e3861eed01c5874db14ff0981d5c9b0777ecb4b8b3b2f5df9ffba32d8ded9"}], "txid": "29ea0a289e43faa55b33fd0f8c05a78f97f0bc0771988aae9287d5e6173de55b", "blocktime": 1537870268, "version": 1, "confirmations": 11516, "time": 1537870268, "locktime": 0, "vsize": 469, "size": 469}