{"hash": "29eb37dc97910fe26d699543dfead74cd4a0998bd1c27db124f85c59165d6aad", "blockhash": "0000000000000000001cda96e906b7601b7a6fb1a3b62bca570a9e5d8f4b3de1", "vout": [{"scriptPubKey": {"reqSigs": 1, "hex": "a914ce34247fb0bab36a2ada9729cb7e3fc8db25fae687", "addresses": ["3LVKazPjmQ13U4dnoneeWGsA4osnn647vs"], "asm": "OP_HASH160 ce34247fb0bab36a2ada9729cb7e3fc8db25fae6 OP_EQUAL", "type": "scripthash"}, "value": 0.00385808, "n": 0}, {"scriptPubKey": {"reqSigs": 1, "hex": "76a9145a6f6d5f51f70662a1c52afc67554d9231ac7d7c88ac", "addresses": ["19FBJNACbF6BoDMPWkVXr6M4NEEb2FDs8Y"], "asm": "OP_DUP OP_HASH160 5a6f6d5f51f70662a1c52afc67554d9231ac7d7c OP_EQUALVERIFY OP_CHECKSIG", "type": "pubkeyhash"}, "value": 0.12458074, "n": 1}], "hex": "0100000001fb8acb9e271646a52f1b86f24242aeeb215f32bbfcdf7d505a9f711b30693600010000006a4730440220463678f77593239804cecd98eacb3bb239c050d9093df1f809ee4c2a342e57d102201e1d36961f29f6d9cfaffced78facbc4afd687b5c5c805e97fc5ab18e18fc43c01210361f301f7f5a0fdf16734aef4e1936bb2db9444552be0d9378170250c385e51ccffffffff0210e305000000000017a914ce34247fb0bab36a2ada9729cb7e3fc8db25fae6875a18be00000000001976a9145a6f6d5f51f70662a1c52afc67554d9231ac7d7c88ac00000000", "vin": [{"sequence": 4294967295, "scriptSig": {"hex": "4730440220463678f77593239804cecd98eacb3bb239c050d9093df1f809ee4c2a342e57d102201e1d36961f29f6d9cfaffced78facbc4afd687b5c5c805e97fc5ab18e18fc43c01210361f301f7f5a0fdf16734aef4e1936bb2db9444552be0d9378170250c385e51cc", "asm": "30440220463678f77593239804cecd98eacb3bb239c050d9093df1f809ee4c2a342e57d102201e1d36961f29f6d9cfaffced78facbc4afd687b5c5c805e97fc5ab18e18fc43c[ALL] 0361f301f7f5a0fdf16734aef4e1936bb2db9444552be0d9378170250c385e51cc"}, "vout": 1, "txid": "003669301b719f5a507ddffcbb325f21ebae4242f2861b2fa54616279ecb8afb"}], "txid": "29eb37dc97910fe26d699543dfead74cd4a0998bd1c27db124f85c59165d6aad", "blocktime": 1537873282, "version": 1, "confirmations": 11484, "time": 1537873282, "locktime": 0, "vsize": 223, "size": 223}