{"hash": "2a2aeaa84919ded5d9074027e6a6aaf3150c38daa49cea2494b4d52c7792e0ce", "blockhash": "0000000000000000000e13cef7c366c0283d82e591d1acd082e914b08063cdf1", "vout": [{"scriptPubKey": {"reqSigs": 1, "hex": "a914d32d6d2792c3b58b35c5427137b95ddd20a41f5987", "addresses": ["3LwcvJPGxmJ9YMVDjZLp62Fp7Schxq1SK4"], "asm": "OP_HASH160 d32d6d2792c3b58b35c5427137b95ddd20a41f59 OP_EQUAL", "type": "scripthash"}, "value": 0.00219764, "n": 0}, {"scriptPubKey": {"reqSigs": 1, "hex": "76a91411df85cf331e05b79cbfbd888bdd400d9508ae3d88ac", "addresses": ["12dWFtdFnnWbp1XWQdiebPNy7NoTFKLUsV"], "asm": "OP_DUP OP_HASH160 11df85cf331e05b79cbfbd888bdd400d9508ae3d OP_EQUALVERIFY OP_CHECKSIG", "type": "pubkeyhash"}, "value": 0.076, "n": 1}], "hex": "010000000001013f496c646b01d60e716213319e3f365f5e4c3e14307d6f7f06d164188f20b62a010000002322002057d7228748a20b39a73277bfe81cb0fe47df56628dbfff2f71132ee0813e9f67ffffffff02745a03000000000017a914d32d6d2792c3b58b35c5427137b95ddd20a41f598780f77300000000001976a91411df85cf331e05b79cbfbd888bdd400d9508ae3d88ac04004730440220728c79cf4be5958dc7efc18ff70b4acda06a193172a9c7181fa005ebdfd0553802203851c9c855f6e4829c9156c7f7e52dc73d573d74defd7eada0132d0769496e1601483045022100c2bb04f42b580ae48fc596cc5db770d4084ff389804a0907acc959a6991f77c9022060363bfa135eaa8c0a8147590da8b845df344fdd7c905240c47bc9976ea725f601695221028845b3110919f3ada0fbaf9f2668b645d40d60c08c724877c075631062de51c02102d81050ac8558981f5fd4717acc9a0b7f645362889c9b0234d4be52e55e1464292102e41a6b458ed9cedb1352aa72fc33790aa80747b152f85c06556e31697018494e53ae00000000", "vin": [{"txinwitness": ["", "30440220728c79cf4be5958dc7efc18ff70b4acda06a193172a9c7181fa005ebdfd0553802203851c9c855f6e4829c9156c7f7e52dc73d573d74defd7eada0132d0769496e1601", "3045022100c2bb04f42b580ae48fc596cc5db770d4084ff389804a0907acc959a6991f77c9022060363bfa135eaa8c0a8147590da8b845df344fdd7c905240c47bc9976ea725f601", "5221028845b3110919f3ada0fbaf9f2668b645d40d60c08c724877c075631062de51c02102d81050ac8558981f5fd4717acc9a0b7f645362889c9b0234d4be52e55e1464292102e41a6b458ed9cedb1352aa72fc33790aa80747b152f85c06556e31697018494e53ae"], "sequence": 4294967295, "scriptSig": {"hex": "22002057d7228748a20b39a73277bfe81cb0fe47df56628dbfff2f71132ee0813e9f67", "asm": "002057d7228748a20b39a73277bfe81cb0fe47df56628dbfff2f71132ee0813e9f67"}, "vout": 1, "txid": "2ab6208f1864d1067f6f7d30143e4c5e5f363f9e311362710ed6016b646c493f"}], "txid": "29ed49d7ed3fb1f4adb7ea069cf539b9e9192f7f0acd05707e4b29f984c97853", "blocktime": 1537871767, "version": 1, "confirmations": 11495, "time": 1537871767, "locktime": 0, "vsize": 216, "size": 407}