{"hash": "29f2c0cd809df88e1d0ebd35f3f05e351b47346fa4f75c4829ce3013a4860126", "blockhash": "00000000000000000024a2167bbff67b0be802c0b01cdd79e6331c2be6459f87", "vout": [{"scriptPubKey": {"reqSigs": 1, "hex": "76a91400e7b1a8ee20cf1ba17a8236e7a9f287d81d975688ac", "addresses": ["115nZP45imfgaTsva3VzAGDXZ6HEi5qPkg"], "asm": "OP_DUP OP_HASH160 00e7b1a8ee20cf1ba17a8236e7a9f287d81d9756 OP_EQUALVERIFY OP_CHECKSIG", "type": "pubkeyhash"}, "value": 0.00178898, "n": 0}, {"scriptPubKey": {"reqSigs": 1, "hex": "76a9149355626c64dc15ecae9dbff26adb5c6f57d125a088ac", "addresses": ["1ES2cpKNmLuZVfRi59wn6d1uY2sqbjgQHQ"], "asm": "OP_DUP OP_HASH160 9355626c64dc15ecae9dbff26adb5c6f57d125a0 OP_EQUALVERIFY OP_CHECKSIG", "type": "pubkeyhash"}, "value": 0.3, "n": 1}], "hex": "010000002f1143112a9a8943981e7a6242e18155e3c2a2432f7b3c1022df5fe1c3fedf580a000000006b483045022100ec02ac2e2a6e90032e454f5464ee3981fca733daf04850b2db65193c161e02e20220697079a2c6f1b7cdc506821ce0c1cb12371b614e2853aa3ec34a3485667e9d93012103336f0ffcb45aa2c1e7f0fde3cdc104aaa2b8b994b664b9f18b577fdddd1d498dffffffff5d5222a718cd3b52e41070507664758aadb77e6936da8c46afb8fc765b12be0a000000006a473044022051593c041a099466e7dd2cf7b5d9e8e853cb29a73e4f133d36bfd8a83660a4ad0220364c9d4533de1c55d8d702f686be62d668052c60efa2d51330b132d8ff8af903012103a1d4ff8a9901b19456d14cc0defe6e4efd064600b4e67b8a154e577b8d6464afffffffff3f57b92f5b6ecabdcbd3bcd917c2cafd011b5646e995fb8948cc16447bf33110000000006b483045022100ea9baad09455c247d48c085cc8b3d5a63a9137fd5e7a8c827db8f6787a0bc92e02200c41ae0be00446bc1714d9288b8522d6c7429320a87b99c64fbd60bf740addb5012103a1d4ff8a9901b19456d14cc0defe6e4efd064600b4e67b8a154e577b8d6464afffffffffc81a2d9ce5358f9417bb0d0802b378a88875ddd5463b752449a21e8499cbce10000000006a473044022037e58625ef549fc29c3cc8836e6d798fb857c2b11087db37dc25bef5c1b16fde02202b976bafb4c8d20ee9737c1851a7a454854f293da793382fa550f6415867fe3a012103a1d4ff8a9901b19456d14cc0defe6e4efd064600b4e67b8a154e577b8d6464afffffffff00a77fe5f77f4949583c028f7933359f98d48eca8a206d34ac4a41a8fb7fa91b010000006b483045022100dc62e81fbd7133818d3a54c8b3e075071c9fa4051c442d56d2b01498baaac2c0022014074bc263b67a9f2976abea427729d61fc1b48fa8a994e1b066a8a4f59508b2012103336f0ffcb45aa2c1e7f0fde3cdc104aaa2b8b994b664b9f18b577fdddd1d498dffffffff6bb4d562c5fb32f8337ea3e249f9ddbcdcf69da8a9dc32cf007d461effb63328000000006b483045022100a493ad8d95b654af7498c42bc5820f9fdcd2dd2543ef4a682409a43f5bae8d270220473069cf37d57c001a412dfb95522742036627b28fc8cdae13fe0d3db409a5e4012103336f0ffcb45aa2c1e7f0fde3cdc104aaa2b8b994b664b9f18b577fdddd1d498dffffffff4a66c355142f190e0ca278de1a156f0a6405e2af99d298d1b560b8c585756128000000006b48304502210085f3aef36088d5f9a2a910c4b405b5b6fd8ba92f664df9e7a778a5b9d31af804022018da138a8a6c0517894cd3bca94b383efe9fd6a632f09c338731c0c0c0be54cc012103a1d4ff8a9901b19456d14cc0defe6e4efd064600b4e67b8a154e577b8d6464affffffffffbee34b41d865a57af684bf7922278560ddcf5f69a5522ef5b762fc338a5e632010000006b483045022100b45ab2d17f656840f297967a03e777750c8d5d8a42fd3fb885220881462dca370220705fabd448d58e137575548c6fb1aa47190fe9a9edc9f96f807ab681e9e0cb22012103336f0ffcb45aa2c1e7f0fde3cdc104aaa2b8b994b664b9f18b577fdddd1d498dffffffffce3fb02f4f5c789bbb8f1c596bd3b69e1fb46426af66fead5dfcc02558862736010000006a47304402203f10f0fb48856ca097ad6e9f57f2ee94cdac47a5b779db42cfafb7eb5be4142e022029b34d6c50665d5c18497c1a1235176ee7f6c17e3b95801930ed355262fd42e0012103336f0ffcb45aa2c1e7f0fde3cdc104aaa2b8b994b664b9f18b577fdddd1d498dffffffff8ce9c9e495f2a206c3c2d823b4b7369ae0fc98b32507fca8d224fc707177423c000000006a473044022074cd9d0785807476b772c91c305b10685e19bd3ad23c90fda5ff99ed1a2a30850220559be3fc3af13a70c74879765b287746ff3859df6d7d080c534b815a65ab52c2012103336f0ffcb45aa2c1e7f0fde3cdc104aaa2b8b994b664b9f18b577fdddd1d498dffffffff17236886a163477be70b58194bf3491e057725aa3d0f3a4ec1a9739eb3c84b3d000000006a47304402207fc583a2d2172b5c84dc45e1266029aeadd2e434e6a25c1bbf4b19ae2671b72102204580ba027110174ef4f04897da66cdabd5f19f1c5177ce77defc72e1f45573c6012103a1d4ff8a9901b19456d14cc0defe6e4efd064600b4e67b8a154e577b8d6464afffffffff752b2a3ee0afa42d66d463ef63b6ecdab0236407de9ef0dc0b73d50b7904df42000000006b48304502210086558b2631e1b11155be9986cd1a4e641822fa16613abd4085f1022382436de5022035a79989a88b2c46d037cfd1757b52afb870d54981426ba0018d40438cd3d063012103336f0ffcb45aa2c1e7f0fde3cdc104aaa2b8b994b664b9f18b577fdddd1d498dfffffffff4b408fb4309a6ecf1bade3667f021882dc8fec1c3d8034b64ae3b6ef5de384a000000006b483045022100cc10b0c061c5b83ee3b069195a7641b1ed04b5047c9caafaa63f91029b264bd902200107eb227b34a24c867d144f39ac110d89cc283cb5450b811bfae0a309dd0ba0012103a1d4ff8a9901b19456d14cc0defe6e4efd064600b4e67b8a154e577b8d6464afffffffffeac4ac1707dd0e4cd8006763630463756ccba3b0e64a99df4e697aea1b90d754000000006a4730440220516654c7201647f2d4022e7d970e79847392258a557c202a839a5222a5ff6e6a022031c17a7ef38a157ac3430cb86b88940442e3c3e6c4f220934a3a88aebdcd7295012103a1d4ff8a9901b19456d14cc0defe6e4efd064600b4e67b8a154e577b8d6464afffffffffd632a03c22302c9102a3a5d4e9f57adeba9bdd8947dccbf5c19afcbca31a6055000000006a473044022068043448e4ace8ec8d3e1acbf72aa7cbb57cdc7315cc399f3d2e57bfc84b392b022052ba7e3eda753d0cb873f1f0b4cf56c341fd9366419ba7ec9ebd44d7c30ecec9012103a1d4ff8a9901b19456d14cc0defe6e4efd064600b4e67b8a154e577b8d6464afffffffffd1dd561f7a481ca648ae90f393d6fb70ca32ade4aadc0ff4a4a3c4e501365458000000006a47304402207697dee3c50a2437cafc71632b5cd00835234bd9d779029b17f4df5315e0ddbb022051fb0848d0266d10cb4309188b153a14c1a0dc9838ffcb703de828c87c886ce8012103a1d4ff8a9901b19456d14cc0defe6e4efd064600b4e67b8a154e577b8d6464afffffffff5f7e59c1784808184e682ed263d243ef5e972ba121b9802ccb0227cbd2569864000000006b483045022100b657176da74297c7258097f70bc254fcf3ce8a4f91eb34dcf98eaa3734597ac40220182c0690d20fcafdffe434813c19143c4de07228f5d98761a109e7a93a00a3be012103336f0ffcb45aa2c1e7f0fde3cdc104aaa2b8b994b664b9f18b577fdddd1d498dfffffffffbcd4ac0d69e7e5865b169667c15b5ca7810249c4fdcb1c76865d861a7d09b65000000006b483045022100de8093babcb95756a24560d6071c3861675d9ff1d78e887c3c6338ce441b173e022052cd717778eeb7f8d12ea69ff1f9beb7a3214098fe129481e3d4dab69e124afa012103a1d4ff8a9901b19456d14cc0defe6e4efd064600b4e67b8a154e577b8d6464afffffffff386d6b06d8fba9cd8c6405bd1e7b983fcf6be1d76d2474a412f6758a0276d86d000000006a47304402202f0bf821bdb717e375017a2c0e7601520cb672b7e2a4c0cbade1a1d4c08c8fab02205fe9782c7db761043990822ab6c107b96243dce2570a5d2f264d39bc21cf188c012103336f0ffcb45aa2c1e7f0fde3cdc104aaa2b8b994b664b9f18b577fdddd1d498dffffffff4cc92040ea5262a57fb8545bbd5401b419edaf4d88a1632aca25a4ea1a4add71000000006a47304402203fa7b97eb3fe6913ea73d5fbc2ee2959cb49e56b8ac7e5799846bd0b0fd7acc60220364ede1fcdbbe955adc8905cd9f3a3b5070e230e74800307f43b895d5fe16fe1012103336f0ffcb45aa2c1e7f0fde3cdc104aaa2b8b994b664b9f18b577fdddd1d498dffffffffbf08f337a3c75ffaad02aa08bc234fd590fb301c9ed2636e2adf305ba7a7da72000000006b483045022100f531c2e38b967809b422f3ee7535824ea5aefd200dfec89a3f953499f18f0409022051bb8fe44a9b9c614926c8c04cea72cf74fbf78a2c54d51566ac0d7407a66726012103336f0ffcb45aa2c1e7f0fde3cdc104aaa2b8b994b664b9f18b577fdddd1d498dffffffff6f9c72304a2a7fe9a6c5f1267facd7440e840c9a960775c1eb7d673948536975000000006b483045022100ef7c037ba13018c5af052283f6ed2cc7644d2e5e5dbd9aadcf94a0d7122e5b7a02200b35e426a2587e5891f472c2f6801a607fd477767ef1dc4fac3a9b30ffa9fcfa012103336f0ffcb45aa2c1e7f0fde3cdc104aaa2b8b994b664b9f18b577fdddd1d498dffffffff9333b9fcaaefa2ee3d04139fd7d13a61e8697057e37f352445843206cd27aa78000000006a4730440220307bd91f6fb9f67bc0bcfe7853118838d0f39bc603a341f2ce782409916cc7ef0220058505d2af1aa40642d2899e1fe1cacb052a6f0dadcab9c3a777a741d169f095012103336f0ffcb45aa2c1e7f0fde3cdc104aaa2b8b994b664b9f18b577fdddd1d498dffffffff0b2840fa0475270c3bb3d7b3c7acb652ee7f170f5260818beef785fc6e4ead79000000006a4730440220455e7da7cf766b1205ffbda06fae7d1c26e400e65cba7173be254a5e0f1bb20302207eb73f14ec5ce32a91b6a5b90126b317e08b1e7481acb718ba6231e2fbf79aee012103336f0ffcb45aa2c1e7f0fde3cdc104aaa2b8b994b664b9f18b577fdddd1d498dffffffff93149e499868f25a030a6a0eff199410917f7964c3430f53593349db4c3dee79000000006b483045022100de4645d9c1a26b56dd815ece7718e555de0cbeb541cf65c33b8ddf33898c623b02202d6b4e8bd2d1ee78f4b424fbef4c77a36d36d40c723fae2df0fc380504c1eaec012103336f0ffcb45aa2c1e7f0fde3cdc104aaa2b8b994b664b9f18b577fdddd1d498dffffffffc765ac8969329ab0d2f03605015078a44d2de551f327216878256c1afe4e1a7d000000006b48304502210090ccede466ad6fbd60edb130469a925639bb400a77a049c7691da303fe90731602201baa8dbc5bd4f71ea84b98e25e5a508b12da03f5e49c39fc20f5f9ee0988ad3f012103a1d4ff8a9901b19456d14cc0defe6e4efd064600b4e67b8a154e577b8d6464afffffffff5fd8e262bba1877e6e6b1952488955909665fb57bc83e819bba51415a8fd2384010000006a47304402203e27e05341e7ec3a189b4c1af59e64e7bfcae0c707fe949bcf7cc44a182ce7be02207afa3a6b925779b7ad18f9c542adb02a8105c3edb0dab717653b82e0602d5d34012103336f0ffcb45aa2c1e7f0fde3cdc104aaa2b8b994b664b9f18b577fdddd1d498dffffffff034a03a4f48d2cb2b415530d8fa57c73bc8cc3aa7a1f3e80b3bce2fc7a260d87000000006a4730440220550de47d5d8714cb985204970f54196860ad671280bdf70baf86ade788b5215e022070352529f8c4641a8dc80e5212ee06b7f82472e9e3d740463c0cd3cecd2ee7b2012103a1d4ff8a9901b19456d14cc0defe6e4efd064600b4e67b8a154e577b8d6464afffffffffb9bd80adba726e889270a450c65c9919d45f9f6604a046b0fa96453540f2198b000000006b48304502210086d3460e48bc77cd74d9fc68825afbd7690c43314046d82f2526b8905ebc1bd202200a284b1ce53325b30336ca31124607106e49127c21f099cc531c252410bc213d012103336f0ffcb45aa2c1e7f0fde3cdc104aaa2b8b994b664b9f18b577fdddd1d498dffffffff3a3ca059966d566bc5fabff2bf2b1cdf2b8cc2dcb7269d375f1e33612ffc6c92000000006b483045022100e134ec2918efd3dd902ff79c425e69d5a61937b5e650dfad0a94b9e25d584ab002201faefdb25fddd4cccb91cd8b11b8e761d9083a1e50fbf9ffde292015220d4932012103336f0ffcb45aa2c1e7f0fde3cdc104aaa2b8b994b664b9f18b577fdddd1d498dfffffffffbd42694077306219d3b5e017b3a160ef027e7998bb1193550aeb47e6872129a000000006b483045022100ae63aa07cbf010b4dd38ad153b8837e6cbb1c3c58934b43846097fe1a44ea2bd02201c54250a1f9a17a2f53cd71d5703b4e1c8dddfd3d53cd912303f5104529b6472012103a1d4ff8a9901b19456d14cc0defe6e4efd064600b4e67b8a154e577b8d6464afffffffffe810f50c9b21807fae6f360a30a10b95a93f7027826bfc0fec0c1496ea056b9d000000006b483045022100fa561d087ddbf0d6d97347346224f2bba7749c10ceaa78ced122b15caac65875022041b378f80a2ff5369ecc1a6d215f4a608f4e71d8c38eec10cc00d8eeb88a6d09012103336f0ffcb45aa2c1e7f0fde3cdc104aaa2b8b994b664b9f18b577fdddd1d498dffffffffc2b8bac6e757d9427d008f1d7edbf0eadee70490212d8cfbc4a5d309a401e8a6000000006a47304402206b2ecbbba967e41fe18a49a9e2f21aa2160fcdb2b945460b6cd6332c9762dd3e02202a4df5a4d55002222d780c7b4ece14d5fb80579fc419e2000467e5224ad9ab5c012103a1d4ff8a9901b19456d14cc0defe6e4efd064600b4e67b8a154e577b8d6464afffffffffc86ac3b78a9ae62c4c0ba98d2a3990486d7fae8685b90489f97b2f8b298153a9010000006b483045022100fde13c0c26b27c419b7d0062497edd17775a8a96f569ec03b9f959a7a4bad9a302202b6e96b96bb4e3b00a1dde963a5b579036a152873a53724bb57647d45d436c35012103336f0ffcb45aa2c1e7f0fde3cdc104aaa2b8b994b664b9f18b577fdddd1d498dffffffffa1419acc085a32d117f974a63aaa2313624aef39ad85fd3974fc0cd9cf2a7db3000000006b483045022100f038a97978a9702e9357fb9b64472e8685072d4a3853891fa711c243fe3232f7022012edade601cd27d89519b78981cadbd4de97a4123620f0d6a70836ec823ec573012103a1d4ff8a9901b19456d14cc0defe6e4efd064600b4e67b8a154e577b8d6464afffffffff9a7bce6cc570e5f929a733afba0829c8179d09973faccfc3116e5aca91144cb8000000006a473044022004c09e918a40e7e6dd1fe0114e74b5d3d61a4c10a7936a09bedaed297fb9603a022040784a69451157df5427275b4e4a95c3b79a11941e798efa0e390c971e151806012103a1d4ff8a9901b19456d14cc0defe6e4efd064600b4e67b8a154e577b8d6464afffffffffffdc2ffe3d33e4079726aa11260aafe2a773d4dcebc2182ba80e101140d359c3000000006b483045022100bc8d90e76120678efd391e74e70f36b53df89008790f33f77c16465469fccbd3022046e98c1b54b0a49bfd048bf253840450dde488b5f39e2461e2e51aeb9436b9ab012103a1d4ff8a9901b19456d14cc0defe6e4efd064600b4e67b8a154e577b8d6464afffffffff4910022704e3f18c37a014db95d1956360786bd700d5f91b2362477bc471e7c3000000006b483045022100b9bcc7111b04b268a43e7928d544d3fce06e5a46997e9e4a3ea80517d491e3540220755d8afec337205c54e1d7b7c2bfe5fea30ef9c2fcf259eeb952b9f1c158a71e012103a1d4ff8a9901b19456d14cc0defe6e4efd064600b4e67b8a154e577b8d6464afffffffff938211e28b30c0cfd2811411ed36e773bf3ce0d4404ed0169a5009055b5868c5000000006b483045022100dd6a8f02f66156dd19dfb5a38ab9b0c0b7defae58aa682aef50bf32a75ee9016022060ec8394fb8551f3ecfcdb8be2d68e9f3a6403476696472ab1787977b1893973012103336f0ffcb45aa2c1e7f0fde3cdc104aaa2b8b994b664b9f18b577fdddd1d498dffffffff1280550863cea4280cad2df4347be767b7d491f1f16c9e067399475fdf32d4d3000000006a47304402206749f7a5b81f922ba979919f599c91e1c634450a87782c78ef91c61b6fbbf6a002202578cf27aaf20b9b98a7af350595847868fd209ab51d3b1885e9c1eeaa394ecf012103a1d4ff8a9901b19456d14cc0defe6e4efd064600b4e67b8a154e577b8d6464afffffffffc935fa4a66580683019196172be74bbcc631618a7493f1101ac666bb857febd8000000006a47304402206c745b8ba5fdd19bb3138ff3ae2162c29de982afcd945b7ff4ef46c2b339ad610220688846a3a0abf3edac3d9b4fa20b413af5e7b90d574f87ca8a96d17478697303012103336f0ffcb45aa2c1e7f0fde3cdc104aaa2b8b994b664b9f18b577fdddd1d498dffffffffd6bb4475ba8bf52de5a8ae98867bae5ef8003f75d05600661dbb369e7402e6df000000006a4730440220500e150b0fbabf4122962ccb675946d374ee6e484ef255e024dbd8d1681c5e590220217d73f0b8fba99c07f6b9297ac87936636ffa5c9390851f9793ce7b31016a45012103336f0ffcb45aa2c1e7f0fde3cdc104aaa2b8b994b664b9f18b577fdddd1d498dffffffffe06054a4761772b4e653a01d94f743f1d8990e534d178da1552bba9f21c519ec000000006a4730440220623d47eb17de02fbc5eceb010957cb0c76f0225a6d57e2f25492ccdb9c094ade02203362c80ce21c2c1425c7851f2083d15379fe2c1deacf8dc53cd5d25fdc1ea662012103a1d4ff8a9901b19456d14cc0defe6e4efd064600b4e67b8a154e577b8d6464afffffffff466e1e3b13ffe44dd6291be39101406e77606944799aff87332a12701c0137ee000000006a47304402200d892afe57c5f5670bab9ef450d0d67a10b7bc41e42de97101b167cde3827f4f022019a0a92b930537ceb7eb6cfe5f9681529f94359e19e58184f7c7fcb0f06d06db012103336f0ffcb45aa2c1e7f0fde3cdc104aaa2b8b994b664b9f18b577fdddd1d498dffffffff6f7ad49862757273be403b4f5b9c7f1edbe53f91eb1f3cb5aa2e223e5293d6f5000000006b483045022100995c1dd2278fbf239c863daf4042d3c5f3699fc5e4258b6bae2a76236b61b2730220388ac956a208580f27edf336bfc5e6b4412701e3472506669e391a88c03c840c012103336f0ffcb45aa2c1e7f0fde3cdc104aaa2b8b994b664b9f18b577fdddd1d498dfffffffff47f3cbe75b963896f29d8e2419a5e15993eb78caf76ae5dfecc6bc9a96d44f7000000006b483045022100aa605d28eaed665f22b1861d0db16e268bd9ddcce3bc25cfae9f0eb438822df302204321f6a4ec55da24f0f97299213446334afab53216269f5c0c957a4491672b29012103336f0ffcb45aa2c1e7f0fde3cdc104aaa2b8b994b664b9f18b577fdddd1d498dffffffff1218af0d28ed961e8bf660811cc19fb288fd35f006ed4ef0e939ec01d04173fd000000006a47304402203fef321fdd8d48152acb10949dc0b9d4f2bda116f9a627d24c3b6469d91bbc3502204d35ccceb8a009b288704ebdf63cd14641237dbad61e0a84840f47b99302ae3e012103336f0ffcb45aa2c1e7f0fde3cdc104aaa2b8b994b664b9f18b577fdddd1d498dffffffff02d2ba0200000000001976a91400e7b1a8ee20cf1ba17a8236e7a9f287d81d975688ac80c3c901000000001976a9149355626c64dc15ecae9dbff26adb5c6f57d125a088ac00000000", "vin": [{"sequence": 4294967295, "scriptSig": {"hex": "483045022100ec02ac2e2a6e90032e454f5464ee3981fca733daf04850b2db65193c161e02e20220697079a2c6f1b7cdc506821ce0c1cb12371b614e2853aa3ec34a3485667e9d93012103336f0ffcb45aa2c1e7f0fde3cdc104aaa2b8b994b664b9f18b577fdddd1d498d", "asm": "3045022100ec02ac2e2a6e90032e454f5464ee3981fca733daf04850b2db65193c161e02e20220697079a2c6f1b7cdc506821ce0c1cb12371b614e2853aa3ec34a3485667e9d93[ALL] 03336f0ffcb45aa2c1e7f0fde3cdc104aaa2b8b994b664b9f18b577fdddd1d498d"}, "vout": 0, "txid": "0a58dffec3e15fdf22103c7b2f43a2c2e35581e142627a1e9843899a2a114311"}, {"sequence": 4294967295, "scriptSig": {"hex": "473044022051593c041a099466e7dd2cf7b5d9e8e853cb29a73e4f133d36bfd8a83660a4ad0220364c9d4533de1c55d8d702f686be62d668052c60efa2d51330b132d8ff8af903012103a1d4ff8a9901b19456d14cc0defe6e4efd064600b4e67b8a154e577b8d6464af", "asm": "3044022051593c041a099466e7dd2cf7b5d9e8e853cb29a73e4f133d36bfd8a83660a4ad0220364c9d4533de1c55d8d702f686be62d668052c60efa2d51330b132d8ff8af903[ALL] 03a1d4ff8a9901b19456d14cc0defe6e4efd064600b4e67b8a154e577b8d6464af"}, "vout": 0, "txid": "0abe125b76fcb8af468cda36697eb7ad8a756476507010e4523bcd18a722525d"}, {"sequence": 4294967295, "scriptSig": {"hex": "483045022100ea9baad09455c247d48c085cc8b3d5a63a9137fd5e7a8c827db8f6787a0bc92e02200c41ae0be00446bc1714d9288b8522d6c7429320a87b99c64fbd60bf740addb5012103a1d4ff8a9901b19456d14cc0defe6e4efd064600b4e67b8a154e577b8d6464af", "asm": "3045022100ea9baad09455c247d48c085cc8b3d5a63a9137fd5e7a8c827db8f6787a0bc92e02200c41ae0be00446bc1714d9288b8522d6c7429320a87b99c64fbd60bf740addb5[ALL] 03a1d4ff8a9901b19456d14cc0defe6e4efd064600b4e67b8a154e577b8d6464af"}, "vout": 0, "txid": "1031f37b4416cc4889fb95e946561b01fdcac217d9bcd3cbbdca6e5b2fb9573f"}, {"sequence": 4294967295, "scriptSig": {"hex": "473044022037e58625ef549fc29c3cc8836e6d798fb857c2b11087db37dc25bef5c1b16fde02202b976bafb4c8d20ee9737c1851a7a454854f293da793382fa550f6415867fe3a012103a1d4ff8a9901b19456d14cc0defe6e4efd064600b4e67b8a154e577b8d6464af", "asm": "3044022037e58625ef549fc29c3cc8836e6d798fb857c2b11087db37dc25bef5c1b16fde02202b976bafb4c8d20ee9737c1851a7a454854f293da793382fa550f6415867fe3a[ALL] 03a1d4ff8a9901b19456d14cc0defe6e4efd064600b4e67b8a154e577b8d6464af"}, "vout": 0, "txid": "10cecb99841ea24924753b46d5dd7588a878b302080dbb17948f35e59c2d1ac8"}, {"sequence": 4294967295, "scriptSig": {"hex": "483045022100dc62e81fbd7133818d3a54c8b3e075071c9fa4051c442d56d2b01498baaac2c0022014074bc263b67a9f2976abea427729d61fc1b48fa8a994e1b066a8a4f59508b2012103336f0ffcb45aa2c1e7f0fde3cdc104aaa2b8b994b664b9f18b577fdddd1d498d", "asm": "3045022100dc62e81fbd7133818d3a54c8b3e075071c9fa4051c442d56d2b01498baaac2c0022014074bc263b67a9f2976abea427729d61fc1b48fa8a994e1b066a8a4f59508b2[ALL] 03336f0ffcb45aa2c1e7f0fde3cdc104aaa2b8b994b664b9f18b577fdddd1d498d"}, "vout": 1, "txid": "1ba97ffba8414aac346d208aca8ed4989f3533798f023c5849497ff7e57fa700"}, {"sequence": 4294967295, "scriptSig": {"hex": "483045022100a493ad8d95b654af7498c42bc5820f9fdcd2dd2543ef4a682409a43f5bae8d270220473069cf37d57c001a412dfb95522742036627b28fc8cdae13fe0d3db409a5e4012103336f0ffcb45aa2c1e7f0fde3cdc104aaa2b8b994b664b9f18b577fdddd1d498d", "asm": "3045022100a493ad8d95b654af7498c42bc5820f9fdcd2dd2543ef4a682409a43f5bae8d270220473069cf37d57c001a412dfb95522742036627b28fc8cdae13fe0d3db409a5e4[ALL] 03336f0ffcb45aa2c1e7f0fde3cdc104aaa2b8b994b664b9f18b577fdddd1d498d"}, "vout": 0, "txid": "2833b6ff1e467d00cf32dca9a89df6dcbcddf949e2a37e33f832fbc562d5b46b"}, {"sequence": 4294967295, "scriptSig": {"hex": "48304502210085f3aef36088d5f9a2a910c4b405b5b6fd8ba92f664df9e7a778a5b9d31af804022018da138a8a6c0517894cd3bca94b383efe9fd6a632f09c338731c0c0c0be54cc012103a1d4ff8a9901b19456d14cc0defe6e4efd064600b4e67b8a154e577b8d6464af", "asm": "304502210085f3aef36088d5f9a2a910c4b405b5b6fd8ba92f664df9e7a778a5b9d31af804022018da138a8a6c0517894cd3bca94b383efe9fd6a632f09c338731c0c0c0be54cc[ALL] 03a1d4ff8a9901b19456d14cc0defe6e4efd064600b4e67b8a154e577b8d6464af"}, "vout": 0, "txid": "28617585c5b860b5d198d299afe205640a6f151ade78a20c0e192f1455c3664a"}, {"sequence": 4294967295, "scriptSig": {"hex": "483045022100b45ab2d17f656840f297967a03e777750c8d5d8a42fd3fb885220881462dca370220705fabd448d58e137575548c6fb1aa47190fe9a9edc9f96f807ab681e9e0cb22012103336f0ffcb45aa2c1e7f0fde3cdc104aaa2b8b994b664b9f18b577fdddd1d498d", "asm": "3045022100b45ab2d17f656840f297967a03e777750c8d5d8a42fd3fb885220881462dca370220705fabd448d58e137575548c6fb1aa47190fe9a9edc9f96f807ab681e9e0cb22[ALL] 03336f0ffcb45aa2c1e7f0fde3cdc104aaa2b8b994b664b9f18b577fdddd1d498d"}, "vout": 1, "txid": "32e6a538c32f765bef22559af6f5dc0d56782292f74b68af575a861db434eefb"}, {"sequence": 4294967295, "scriptSig": {"hex": "47304402203f10f0fb48856ca097ad6e9f57f2ee94cdac47a5b779db42cfafb7eb5be4142e022029b34d6c50665d5c18497c1a1235176ee7f6c17e3b95801930ed355262fd42e0012103336f0ffcb45aa2c1e7f0fde3cdc104aaa2b8b994b664b9f18b577fdddd1d498d", "asm": "304402203f10f0fb48856ca097ad6e9f57f2ee94cdac47a5b779db42cfafb7eb5be4142e022029b34d6c50665d5c18497c1a1235176ee7f6c17e3b95801930ed355262fd42e0[ALL] 03336f0ffcb45aa2c1e7f0fde3cdc104aaa2b8b994b664b9f18b577fdddd1d498d"}, "vout": 1, "txid": "3627865825c0fc5dadfe66af2664b41f9eb6d36b591c8fbb9b785c4f2fb03fce"}, {"sequence": 4294967295, "scriptSig": {"hex": "473044022074cd9d0785807476b772c91c305b10685e19bd3ad23c90fda5ff99ed1a2a30850220559be3fc3af13a70c74879765b287746ff3859df6d7d080c534b815a65ab52c2012103336f0ffcb45aa2c1e7f0fde3cdc104aaa2b8b994b664b9f18b577fdddd1d498d", "asm": "3044022074cd9d0785807476b772c91c305b10685e19bd3ad23c90fda5ff99ed1a2a30850220559be3fc3af13a70c74879765b287746ff3859df6d7d080c534b815a65ab52c2[ALL] 03336f0ffcb45aa2c1e7f0fde3cdc104aaa2b8b994b664b9f18b577fdddd1d498d"}, "vout": 0, "txid": "3c42777170fc24d2a8fc0725b398fce09a36b7b423d8c2c306a2f295e4c9e98c"}, {"sequence": 4294967295, "scriptSig": {"hex": "47304402207fc583a2d2172b5c84dc45e1266029aeadd2e434e6a25c1bbf4b19ae2671b72102204580ba027110174ef4f04897da66cdabd5f19f1c5177ce77defc72e1f45573c6012103a1d4ff8a9901b19456d14cc0defe6e4efd064600b4e67b8a154e577b8d6464af", "asm": "304402207fc583a2d2172b5c84dc45e1266029aeadd2e434e6a25c1bbf4b19ae2671b72102204580ba027110174ef4f04897da66cdabd5f19f1c5177ce77defc72e1f45573c6[ALL] 03a1d4ff8a9901b19456d14cc0defe6e4efd064600b4e67b8a154e577b8d6464af"}, "vout": 0, "txid": "3d4bc8b39e73a9c14e3a0f3daa2577051e49f34b19580be77b4763a186682317"}, {"sequence": 4294967295, "scriptSig": {"hex": "48304502210086558b2631e1b11155be9986cd1a4e641822fa16613abd4085f1022382436de5022035a79989a88b2c46d037cfd1757b52afb870d54981426ba0018d40438cd3d063012103336f0ffcb45aa2c1e7f0fde3cdc104aaa2b8b994b664b9f18b577fdddd1d498d", "asm": "304502210086558b2631e1b11155be9986cd1a4e641822fa16613abd4085f1022382436de5022035a79989a88b2c46d037cfd1757b52afb870d54981426ba0018d40438cd3d063[ALL] 03336f0ffcb45aa2c1e7f0fde3cdc104aaa2b8b994b664b9f18b577fdddd1d498d"}, "vout": 0, "txid": "42df04790bd5730bdcf09ede076423b0daecb663ef63d4662da4afe03e2a2b75"}, {"sequence": 4294967295, "scriptSig": {"hex": "483045022100cc10b0c061c5b83ee3b069195a7641b1ed04b5047c9caafaa63f91029b264bd902200107eb227b34a24c867d144f39ac110d89cc283cb5450b811bfae0a309dd0ba0012103a1d4ff8a9901b19456d14cc0defe6e4efd064600b4e67b8a154e577b8d6464af", "asm": "3045022100cc10b0c061c5b83ee3b069195a7641b1ed04b5047c9caafaa63f91029b264bd902200107eb227b34a24c867d144f39ac110d89cc283cb5450b811bfae0a309dd0ba0[ALL] 03a1d4ff8a9901b19456d14cc0defe6e4efd064600b4e67b8a154e577b8d6464af"}, "vout": 0, "txid": "4a38def56e3bae644b03d8c3c1fec82d8821f06736debaf1eca60943fb08b4f4"}, {"sequence": 4294967295, "scriptSig": {"hex": "4730440220516654c7201647f2d4022e7d970e79847392258a557c202a839a5222a5ff6e6a022031c17a7ef38a157ac3430cb86b88940442e3c3e6c4f220934a3a88aebdcd7295012103a1d4ff8a9901b19456d14cc0defe6e4efd064600b4e67b8a154e577b8d6464af", "asm": "30440220516654c7201647f2d4022e7d970e79847392258a557c202a839a5222a5ff6e6a022031c17a7ef38a157ac3430cb86b88940442e3c3e6c4f220934a3a88aebdcd7295[ALL] 03a1d4ff8a9901b19456d14cc0defe6e4efd064600b4e67b8a154e577b8d6464af"}, "vout": 0, "txid": "54d7901bea7a694edf994ae6b0a3cb6c75630463636700d84c0edd0717acc4ea"}, {"sequence": 4294967295, "scriptSig": {"hex": "473044022068043448e4ace8ec8d3e1acbf72aa7cbb57cdc7315cc399f3d2e57bfc84b392b022052ba7e3eda753d0cb873f1f0b4cf56c341fd9366419ba7ec9ebd44d7c30ecec9012103a1d4ff8a9901b19456d14cc0defe6e4efd064600b4e67b8a154e577b8d6464af", "asm": "3044022068043448e4ace8ec8d3e1acbf72aa7cbb57cdc7315cc399f3d2e57bfc84b392b022052ba7e3eda753d0cb873f1f0b4cf56c341fd9366419ba7ec9ebd44d7c30ecec9[ALL] 03a1d4ff8a9901b19456d14cc0defe6e4efd064600b4e67b8a154e577b8d6464af"}, "vout": 0, "txid": "55601aa3bcfc9ac1f5cbdc4789dd9bbade7af5e9d4a5a302912c30223ca032d6"}, {"sequence": 4294967295, "scriptSig": {"hex": "47304402207697dee3c50a2437cafc71632b5cd00835234bd9d779029b17f4df5315e0ddbb022051fb0848d0266d10cb4309188b153a14c1a0dc9838ffcb703de828c87c886ce8012103a1d4ff8a9901b19456d14cc0defe6e4efd064600b4e67b8a154e577b8d6464af", "asm": "304402207697dee3c50a2437cafc71632b5cd00835234bd9d779029b17f4df5315e0ddbb022051fb0848d0266d10cb4309188b153a14c1a0dc9838ffcb703de828c87c886ce8[ALL] 03a1d4ff8a9901b19456d14cc0defe6e4efd064600b4e67b8a154e577b8d6464af"}, "vout": 0, "txid": "58543601e5c4a3a4f40fdcaae4ad32ca70fbd693f390ae48a61c487a1f56ddd1"}, {"sequence": 4294967295, "scriptSig": {"hex": "483045022100b657176da74297c7258097f70bc254fcf3ce8a4f91eb34dcf98eaa3734597ac40220182c0690d20fcafdffe434813c19143c4de07228f5d98761a109e7a93a00a3be012103336f0ffcb45aa2c1e7f0fde3cdc104aaa2b8b994b664b9f18b577fdddd1d498d", "asm": "3045022100b657176da74297c7258097f70bc254fcf3ce8a4f91eb34dcf98eaa3734597ac40220182c0690d20fcafdffe434813c19143c4de07228f5d98761a109e7a93a00a3be[ALL] 03336f0ffcb45aa2c1e7f0fde3cdc104aaa2b8b994b664b9f18b577fdddd1d498d"}, "vout": 0, "txid": "649856d2cb2702cb2c80b921a12b975eef43d263d22e684e18084878c1597e5f"}, {"sequence": 4294967295, "scriptSig": {"hex": "483045022100de8093babcb95756a24560d6071c3861675d9ff1d78e887c3c6338ce441b173e022052cd717778eeb7f8d12ea69ff1f9beb7a3214098fe129481e3d4dab69e124afa012103a1d4ff8a9901b19456d14cc0defe6e4efd064600b4e67b8a154e577b8d6464af", "asm": "3045022100de8093babcb95756a24560d6071c3861675d9ff1d78e887c3c6338ce441b173e022052cd717778eeb7f8d12ea69ff1f9beb7a3214098fe129481e3d4dab69e124afa[ALL] 03a1d4ff8a9901b19456d14cc0defe6e4efd064600b4e67b8a154e577b8d6464af"}, "vout": 0, "txid": "659bd0a761d86568c7b1dc4f9c241078cab5157c6669b165587e9ed6c04acdfb"}, {"sequence": 4294967295, "scriptSig": {"hex": "47304402202f0bf821bdb717e375017a2c0e7601520cb672b7e2a4c0cbade1a1d4c08c8fab02205fe9782c7db761043990822ab6c107b96243dce2570a5d2f264d39bc21cf188c012103336f0ffcb45aa2c1e7f0fde3cdc104aaa2b8b994b664b9f18b577fdddd1d498d", "asm": "304402202f0bf821bdb717e375017a2c0e7601520cb672b7e2a4c0cbade1a1d4c08c8fab02205fe9782c7db761043990822ab6c107b96243dce2570a5d2f264d39bc21cf188c[ALL] 03336f0ffcb45aa2c1e7f0fde3cdc104aaa2b8b994b664b9f18b577fdddd1d498d"}, "vout": 0, "txid": "6dd876028a75f612a474246dd7e16bcf3f987b1ebd05648ccda9fbd8066b6d38"}, {"sequence": 4294967295, "scriptSig": {"hex": "47304402203fa7b97eb3fe6913ea73d5fbc2ee2959cb49e56b8ac7e5799846bd0b0fd7acc60220364ede1fcdbbe955adc8905cd9f3a3b5070e230e74800307f43b895d5fe16fe1012103336f0ffcb45aa2c1e7f0fde3cdc104aaa2b8b994b664b9f18b577fdddd1d498d", "asm": "304402203fa7b97eb3fe6913ea73d5fbc2ee2959cb49e56b8ac7e5799846bd0b0fd7acc60220364ede1fcdbbe955adc8905cd9f3a3b5070e230e74800307f43b895d5fe16fe1[ALL] 03336f0ffcb45aa2c1e7f0fde3cdc104aaa2b8b994b664b9f18b577fdddd1d498d"}, "vout": 0, "txid": "71dd4a1aeaa425ca2a63a1884dafed19b40154bd5b54b87fa56252ea4020c94c"}, {"sequence": 4294967295, "scriptSig": {"hex": "483045022100f531c2e38b967809b422f3ee7535824ea5aefd200dfec89a3f953499f18f0409022051bb8fe44a9b9c614926c8c04cea72cf74fbf78a2c54d51566ac0d7407a66726012103336f0ffcb45aa2c1e7f0fde3cdc104aaa2b8b994b664b9f18b577fdddd1d498d", "asm": "3045022100f531c2e38b967809b422f3ee7535824ea5aefd200dfec89a3f953499f18f0409022051bb8fe44a9b9c614926c8c04cea72cf74fbf78a2c54d51566ac0d7407a66726[ALL] 03336f0ffcb45aa2c1e7f0fde3cdc104aaa2b8b994b664b9f18b577fdddd1d498d"}, "vout": 0, "txid": "72daa7a75b30df2a6e63d29e1c30fb90d54f23bc08aa02adfa5fc7a337f308bf"}, {"sequence": 4294967295, "scriptSig": {"hex": "483045022100ef7c037ba13018c5af052283f6ed2cc7644d2e5e5dbd9aadcf94a0d7122e5b7a02200b35e426a2587e5891f472c2f6801a607fd477767ef1dc4fac3a9b30ffa9fcfa012103336f0ffcb45aa2c1e7f0fde3cdc104aaa2b8b994b664b9f18b577fdddd1d498d", "asm": "3045022100ef7c037ba13018c5af052283f6ed2cc7644d2e5e5dbd9aadcf94a0d7122e5b7a02200b35e426a2587e5891f472c2f6801a607fd477767ef1dc4fac3a9b30ffa9fcfa[ALL] 03336f0ffcb45aa2c1e7f0fde3cdc104aaa2b8b994b664b9f18b577fdddd1d498d"}, "vout": 0, "txid": "7569534839677debc17507969a0c840e44d7ac7f26f1c5a6e97f2a4a30729c6f"}, {"sequence": 4294967295, "scriptSig": {"hex": "4730440220307bd91f6fb9f67bc0bcfe7853118838d0f39bc603a341f2ce782409916cc7ef0220058505d2af1aa40642d2899e1fe1cacb052a6f0dadcab9c3a777a741d169f095012103336f0ffcb45aa2c1e7f0fde3cdc104aaa2b8b994b664b9f18b577fdddd1d498d", "asm": "30440220307bd91f6fb9f67bc0bcfe7853118838d0f39bc603a341f2ce782409916cc7ef0220058505d2af1aa40642d2899e1fe1cacb052a6f0dadcab9c3a777a741d169f095[ALL] 03336f0ffcb45aa2c1e7f0fde3cdc104aaa2b8b994b664b9f18b577fdddd1d498d"}, "vout": 0, "txid": "78aa27cd0632844524357fe3577069e8613ad1d79f13043deea2efaafcb93393"}, {"sequence": 4294967295, "scriptSig": {"hex": "4730440220455e7da7cf766b1205ffbda06fae7d1c26e400e65cba7173be254a5e0f1bb20302207eb73f14ec5ce32a91b6a5b90126b317e08b1e7481acb718ba6231e2fbf79aee012103336f0ffcb45aa2c1e7f0fde3cdc104aaa2b8b994b664b9f18b577fdddd1d498d", "asm": "30440220455e7da7cf766b1205ffbda06fae7d1c26e400e65cba7173be254a5e0f1bb20302207eb73f14ec5ce32a91b6a5b90126b317e08b1e7481acb718ba6231e2fbf79aee[ALL] 03336f0ffcb45aa2c1e7f0fde3cdc104aaa2b8b994b664b9f18b577fdddd1d498d"}, "vout": 0, "txid": "79ad4e6efc85f7ee8b8160520f177fee52b6acc7b3d7b33b0c277504fa40280b"}, {"sequence": 4294967295, "scriptSig": {"hex": "483045022100de4645d9c1a26b56dd815ece7718e555de0cbeb541cf65c33b8ddf33898c623b02202d6b4e8bd2d1ee78f4b424fbef4c77a36d36d40c723fae2df0fc380504c1eaec012103336f0ffcb45aa2c1e7f0fde3cdc104aaa2b8b994b664b9f18b577fdddd1d498d", "asm": "3045022100de4645d9c1a26b56dd815ece7718e555de0cbeb541cf65c33b8ddf33898c623b02202d6b4e8bd2d1ee78f4b424fbef4c77a36d36d40c723fae2df0fc380504c1eaec[ALL] 03336f0ffcb45aa2c1e7f0fde3cdc104aaa2b8b994b664b9f18b577fdddd1d498d"}, "vout": 0, "txid": "79ee3d4cdb493359530f43c364797f91109419ff0e6a0a035af26898499e1493"}, {"sequence": 4294967295, "scriptSig": {"hex": "48304502210090ccede466ad6fbd60edb130469a925639bb400a77a049c7691da303fe90731602201baa8dbc5bd4f71ea84b98e25e5a508b12da03f5e49c39fc20f5f9ee0988ad3f012103a1d4ff8a9901b19456d14cc0defe6e4efd064600b4e67b8a154e577b8d6464af", "asm": "304502210090ccede466ad6fbd60edb130469a925639bb400a77a049c7691da303fe90731602201baa8dbc5bd4f71ea84b98e25e5a508b12da03f5e49c39fc20f5f9ee0988ad3f[ALL] 03a1d4ff8a9901b19456d14cc0defe6e4efd064600b4e67b8a154e577b8d6464af"}, "vout": 0, "txid": "7d1a4efe1a6c2578682127f351e52d4da47850010536f0d2b09a326989ac65c7"}, {"sequence": 4294967295, "scriptSig": {"hex": "47304402203e27e05341e7ec3a189b4c1af59e64e7bfcae0c707fe949bcf7cc44a182ce7be02207afa3a6b925779b7ad18f9c542adb02a8105c3edb0dab717653b82e0602d5d34012103336f0ffcb45aa2c1e7f0fde3cdc104aaa2b8b994b664b9f18b577fdddd1d498d", "asm": "304402203e27e05341e7ec3a189b4c1af59e64e7bfcae0c707fe949bcf7cc44a182ce7be02207afa3a6b925779b7ad18f9c542adb02a8105c3edb0dab717653b82e0602d5d34[ALL] 03336f0ffcb45aa2c1e7f0fde3cdc104aaa2b8b994b664b9f18b577fdddd1d498d"}, "vout": 1, "txid": "8423fda81514a5bb19e883bc57fb65969055894852196b6e7e87a1bb62e2d85f"}, {"sequence": 4294967295, "scriptSig": {"hex": "4730440220550de47d5d8714cb985204970f54196860ad671280bdf70baf86ade788b5215e022070352529f8c4641a8dc80e5212ee06b7f82472e9e3d740463c0cd3cecd2ee7b2012103a1d4ff8a9901b19456d14cc0defe6e4efd064600b4e67b8a154e577b8d6464af", "asm": "30440220550de47d5d8714cb985204970f54196860ad671280bdf70baf86ade788b5215e022070352529f8c4641a8dc80e5212ee06b7f82472e9e3d740463c0cd3cecd2ee7b2[ALL] 03a1d4ff8a9901b19456d14cc0defe6e4efd064600b4e67b8a154e577b8d6464af"}, "vout": 0, "txid": "870d267afce2bcb3803e1f7aaac38cbc737ca58f0d5315b4b22c8df4a4034a03"}, {"sequence": 4294967295, "scriptSig": {"hex": "48304502210086d3460e48bc77cd74d9fc68825afbd7690c43314046d82f2526b8905ebc1bd202200a284b1ce53325b30336ca31124607106e49127c21f099cc531c252410bc213d012103336f0ffcb45aa2c1e7f0fde3cdc104aaa2b8b994b664b9f18b577fdddd1d498d", "asm": "304502210086d3460e48bc77cd74d9fc68825afbd7690c43314046d82f2526b8905ebc1bd202200a284b1ce53325b30336ca31124607106e49127c21f099cc531c252410bc213d[ALL] 03336f0ffcb45aa2c1e7f0fde3cdc104aaa2b8b994b664b9f18b577fdddd1d498d"}, "vout": 0, "txid": "8b19f240354596fab046a004669f5fd419995cc650a47092886e72baad80bdb9"}, {"sequence": 4294967295, "scriptSig": {"hex": "483045022100e134ec2918efd3dd902ff79c425e69d5a61937b5e650dfad0a94b9e25d584ab002201faefdb25fddd4cccb91cd8b11b8e761d9083a1e50fbf9ffde292015220d4932012103336f0ffcb45aa2c1e7f0fde3cdc104aaa2b8b994b664b9f18b577fdddd1d498d", "asm": "3045022100e134ec2918efd3dd902ff79c425e69d5a61937b5e650dfad0a94b9e25d584ab002201faefdb25fddd4cccb91cd8b11b8e761d9083a1e50fbf9ffde292015220d4932[ALL] 03336f0ffcb45aa2c1e7f0fde3cdc104aaa2b8b994b664b9f18b577fdddd1d498d"}, "vout": 0, "txid": "926cfc2f61331e5f379d26b7dcc28c2bdf1c2bbff2bffac56b566d9659a03c3a"}, {"sequence": 4294967295, "scriptSig": {"hex": "483045022100ae63aa07cbf010b4dd38ad153b8837e6cbb1c3c58934b43846097fe1a44ea2bd02201c54250a1f9a17a2f53cd71d5703b4e1c8dddfd3d53cd912303f5104529b6472012103a1d4ff8a9901b19456d14cc0defe6e4efd064600b4e67b8a154e577b8d6464af", "asm": "3045022100ae63aa07cbf010b4dd38ad153b8837e6cbb1c3c58934b43846097fe1a44ea2bd02201c54250a1f9a17a2f53cd71d5703b4e1c8dddfd3d53cd912303f5104529b6472[ALL] 03a1d4ff8a9901b19456d14cc0defe6e4efd064600b4e67b8a154e577b8d6464af"}, "vout": 0, "txid": "9a1272687eb4ae503519b18b99e727f00e163a7b015e3b9d210673079426d4fb"}, {"sequence": 4294967295, "scriptSig": {"hex": "483045022100fa561d087ddbf0d6d97347346224f2bba7749c10ceaa78ced122b15caac65875022041b378f80a2ff5369ecc1a6d215f4a608f4e71d8c38eec10cc00d8eeb88a6d09012103336f0ffcb45aa2c1e7f0fde3cdc104aaa2b8b994b664b9f18b577fdddd1d498d", "asm": "3045022100fa561d087ddbf0d6d97347346224f2bba7749c10ceaa78ced122b15caac65875022041b378f80a2ff5369ecc1a6d215f4a608f4e71d8c38eec10cc00d8eeb88a6d09[ALL] 03336f0ffcb45aa2c1e7f0fde3cdc104aaa2b8b994b664b9f18b577fdddd1d498d"}, "vout": 0, "txid": "9d6b05ea96140cec0ffc6b8227703fa9950ba1300a366fae7f80219b0cf510e8"}, {"sequence": 4294967295, "scriptSig": {"hex": "47304402206b2ecbbba967e41fe18a49a9e2f21aa2160fcdb2b945460b6cd6332c9762dd3e02202a4df5a4d55002222d780c7b4ece14d5fb80579fc419e2000467e5224ad9ab5c012103a1d4ff8a9901b19456d14cc0defe6e4efd064600b4e67b8a154e577b8d6464af", "asm": "304402206b2ecbbba967e41fe18a49a9e2f21aa2160fcdb2b945460b6cd6332c9762dd3e02202a4df5a4d55002222d780c7b4ece14d5fb80579fc419e2000467e5224ad9ab5c[ALL] 03a1d4ff8a9901b19456d14cc0defe6e4efd064600b4e67b8a154e577b8d6464af"}, "vout": 0, "txid": "a6e801a409d3a5c4fb8c2d219004e7deeaf0db7e1d8f007d42d957e7c6bab8c2"}, {"sequence": 4294967295, "scriptSig": {"hex": "483045022100fde13c0c26b27c419b7d0062497edd17775a8a96f569ec03b9f959a7a4bad9a302202b6e96b96bb4e3b00a1dde963a5b579036a152873a53724bb57647d45d436c35012103336f0ffcb45aa2c1e7f0fde3cdc104aaa2b8b994b664b9f18b577fdddd1d498d", "asm": "3045022100fde13c0c26b27c419b7d0062497edd17775a8a96f569ec03b9f959a7a4bad9a302202b6e96b96bb4e3b00a1dde963a5b579036a152873a53724bb57647d45d436c35[ALL] 03336f0ffcb45aa2c1e7f0fde3cdc104aaa2b8b994b664b9f18b577fdddd1d498d"}, "vout": 1, "txid": "a95381298b2f7bf98904b98586ae7f6d4890392a8da90b4c2ce69a8ab7c36ac8"}, {"sequence": 4294967295, "scriptSig": {"hex": "483045022100f038a97978a9702e9357fb9b64472e8685072d4a3853891fa711c243fe3232f7022012edade601cd27d89519b78981cadbd4de97a4123620f0d6a70836ec823ec573012103a1d4ff8a9901b19456d14cc0defe6e4efd064600b4e67b8a154e577b8d6464af", "asm": "3045022100f038a97978a9702e9357fb9b64472e8685072d4a3853891fa711c243fe3232f7022012edade601cd27d89519b78981cadbd4de97a4123620f0d6a70836ec823ec573[ALL] 03a1d4ff8a9901b19456d14cc0defe6e4efd064600b4e67b8a154e577b8d6464af"}, "vout": 0, "txid": "b37d2acfd90cfc7439fd85ad39ef4a621323aa3aa674f917d1325a08cc9a41a1"}, {"sequence": 4294967295, "scriptSig": {"hex": "473044022004c09e918a40e7e6dd1fe0114e74b5d3d61a4c10a7936a09bedaed297fb9603a022040784a69451157df5427275b4e4a95c3b79a11941e798efa0e390c971e151806012103a1d4ff8a9901b19456d14cc0defe6e4efd064600b4e67b8a154e577b8d6464af", "asm": "3044022004c09e918a40e7e6dd1fe0114e74b5d3d61a4c10a7936a09bedaed297fb9603a022040784a69451157df5427275b4e4a95c3b79a11941e798efa0e390c971e151806[ALL] 03a1d4ff8a9901b19456d14cc0defe6e4efd064600b4e67b8a154e577b8d6464af"}, "vout": 0, "txid": "b84c1491ca5a6e11c3cfac3f97099d17c82908baaf33a729f9e570c56cce7b9a"}, {"sequence": 4294967295, "scriptSig": {"hex": "483045022100bc8d90e76120678efd391e74e70f36b53df89008790f33f77c16465469fccbd3022046e98c1b54b0a49bfd048bf253840450dde488b5f39e2461e2e51aeb9436b9ab012103a1d4ff8a9901b19456d14cc0defe6e4efd064600b4e67b8a154e577b8d6464af", "asm": "3045022100bc8d90e76120678efd391e74e70f36b53df89008790f33f77c16465469fccbd3022046e98c1b54b0a49bfd048bf253840450dde488b5f39e2461e2e51aeb9436b9ab[ALL] 03a1d4ff8a9901b19456d14cc0defe6e4efd064600b4e67b8a154e577b8d6464af"}, "vout": 0, "txid": "c359d34011100ea82b18c2ebdcd473a7e2af0a2611aa269707e4333dfe2fdcff"}, {"sequence": 4294967295, "scriptSig": {"hex": "483045022100b9bcc7111b04b268a43e7928d544d3fce06e5a46997e9e4a3ea80517d491e3540220755d8afec337205c54e1d7b7c2bfe5fea30ef9c2fcf259eeb952b9f1c158a71e012103a1d4ff8a9901b19456d14cc0defe6e4efd064600b4e67b8a154e577b8d6464af", "asm": "3045022100b9bcc7111b04b268a43e7928d544d3fce06e5a46997e9e4a3ea80517d491e3540220755d8afec337205c54e1d7b7c2bfe5fea30ef9c2fcf259eeb952b9f1c158a71e[ALL] 03a1d4ff8a9901b19456d14cc0defe6e4efd064600b4e67b8a154e577b8d6464af"}, "vout": 0, "txid": "c3e771c47b4762231bf9d500d76b78606395d195db14a0378cf1e30427021049"}, {"sequence": 4294967295, "scriptSig": {"hex": "483045022100dd6a8f02f66156dd19dfb5a38ab9b0c0b7defae58aa682aef50bf32a75ee9016022060ec8394fb8551f3ecfcdb8be2d68e9f3a6403476696472ab1787977b1893973012103336f0ffcb45aa2c1e7f0fde3cdc104aaa2b8b994b664b9f18b577fdddd1d498d", "asm": "3045022100dd6a8f02f66156dd19dfb5a38ab9b0c0b7defae58aa682aef50bf32a75ee9016022060ec8394fb8551f3ecfcdb8be2d68e9f3a6403476696472ab1787977b1893973[ALL] 03336f0ffcb45aa2c1e7f0fde3cdc104aaa2b8b994b664b9f18b577fdddd1d498d"}, "vout": 0, "txid": "c568585b0509509a16d04e40d4e03cbf73e736ed111481d2cfc0308be2118293"}, {"sequence": 4294967295, "scriptSig": {"hex": "47304402206749f7a5b81f922ba979919f599c91e1c634450a87782c78ef91c61b6fbbf6a002202578cf27aaf20b9b98a7af350595847868fd209ab51d3b1885e9c1eeaa394ecf012103a1d4ff8a9901b19456d14cc0defe6e4efd064600b4e67b8a154e577b8d6464af", "asm": "304402206749f7a5b81f922ba979919f599c91e1c634450a87782c78ef91c61b6fbbf6a002202578cf27aaf20b9b98a7af350595847868fd209ab51d3b1885e9c1eeaa394ecf[ALL] 03a1d4ff8a9901b19456d14cc0defe6e4efd064600b4e67b8a154e577b8d6464af"}, "vout": 0, "txid": "d3d432df5f479973069e6cf1f191d4b767e77b34f42dad0c28a4ce6308558012"}, {"sequence": 4294967295, "scriptSig": {"hex": "47304402206c745b8ba5fdd19bb3138ff3ae2162c29de982afcd945b7ff4ef46c2b339ad610220688846a3a0abf3edac3d9b4fa20b413af5e7b90d574f87ca8a96d17478697303012103336f0ffcb45aa2c1e7f0fde3cdc104aaa2b8b994b664b9f18b577fdddd1d498d", "asm": "304402206c745b8ba5fdd19bb3138ff3ae2162c29de982afcd945b7ff4ef46c2b339ad610220688846a3a0abf3edac3d9b4fa20b413af5e7b90d574f87ca8a96d17478697303[ALL] 03336f0ffcb45aa2c1e7f0fde3cdc104aaa2b8b994b664b9f18b577fdddd1d498d"}, "vout": 0, "txid": "d8eb7f85bb66c61a10f193748a6131c6bc4be72b17969101830658664afa35c9"}, {"sequence": 4294967295, "scriptSig": {"hex": "4730440220500e150b0fbabf4122962ccb675946d374ee6e484ef255e024dbd8d1681c5e590220217d73f0b8fba99c07f6b9297ac87936636ffa5c9390851f9793ce7b31016a45012103336f0ffcb45aa2c1e7f0fde3cdc104aaa2b8b994b664b9f18b577fdddd1d498d", "asm": "30440220500e150b0fbabf4122962ccb675946d374ee6e484ef255e024dbd8d1681c5e590220217d73f0b8fba99c07f6b9297ac87936636ffa5c9390851f9793ce7b31016a45[ALL] 03336f0ffcb45aa2c1e7f0fde3cdc104aaa2b8b994b664b9f18b577fdddd1d498d"}, "vout": 0, "txid": "dfe602749e36bb1d660056d0753f00f85eae7b8698aea8e52df58bba7544bbd6"}, {"sequence": 4294967295, "scriptSig": {"hex": "4730440220623d47eb17de02fbc5eceb010957cb0c76f0225a6d57e2f25492ccdb9c094ade02203362c80ce21c2c1425c7851f2083d15379fe2c1deacf8dc53cd5d25fdc1ea662012103a1d4ff8a9901b19456d14cc0defe6e4efd064600b4e67b8a154e577b8d6464af", "asm": "30440220623d47eb17de02fbc5eceb010957cb0c76f0225a6d57e2f25492ccdb9c094ade02203362c80ce21c2c1425c7851f2083d15379fe2c1deacf8dc53cd5d25fdc1ea662[ALL] 03a1d4ff8a9901b19456d14cc0defe6e4efd064600b4e67b8a154e577b8d6464af"}, "vout": 0, "txid": "ec19c5219fba2b55a18d174d530e99d8f143f7941da053e6b4721776a45460e0"}, {"sequence": 4294967295, "scriptSig": {"hex": "47304402200d892afe57c5f5670bab9ef450d0d67a10b7bc41e42de97101b167cde3827f4f022019a0a92b930537ceb7eb6cfe5f9681529f94359e19e58184f7c7fcb0f06d06db012103336f0ffcb45aa2c1e7f0fde3cdc104aaa2b8b994b664b9f18b577fdddd1d498d", "asm": "304402200d892afe57c5f5670bab9ef450d0d67a10b7bc41e42de97101b167cde3827f4f022019a0a92b930537ceb7eb6cfe5f9681529f94359e19e58184f7c7fcb0f06d06db[ALL] 03336f0ffcb45aa2c1e7f0fde3cdc104aaa2b8b994b664b9f18b577fdddd1d498d"}, "vout": 0, "txid": "ee37011c70122a3387ff9a79446960776e400191e31b29d64de4ff133b1e6e46"}, {"sequence": 4294967295, "scriptSig": {"hex": "483045022100995c1dd2278fbf239c863daf4042d3c5f3699fc5e4258b6bae2a76236b61b2730220388ac956a208580f27edf336bfc5e6b4412701e3472506669e391a88c03c840c012103336f0ffcb45aa2c1e7f0fde3cdc104aaa2b8b994b664b9f18b577fdddd1d498d", "asm": "3045022100995c1dd2278fbf239c863daf4042d3c5f3699fc5e4258b6bae2a76236b61b2730220388ac956a208580f27edf336bfc5e6b4412701e3472506669e391a88c03c840c[ALL] 03336f0ffcb45aa2c1e7f0fde3cdc104aaa2b8b994b664b9f18b577fdddd1d498d"}, "vout": 0, "txid": "f5d693523e222eaab53c1feb913fe5db1e7f9c5b4f3b40be7372756298d47a6f"}, {"sequence": 4294967295, "scriptSig": {"hex": "483045022100aa605d28eaed665f22b1861d0db16e268bd9ddcce3bc25cfae9f0eb438822df302204321f6a4ec55da24f0f97299213446334afab53216269f5c0c957a4491672b29012103336f0ffcb45aa2c1e7f0fde3cdc104aaa2b8b994b664b9f18b577fdddd1d498d", "asm": "3045022100aa605d28eaed665f22b1861d0db16e268bd9ddcce3bc25cfae9f0eb438822df302204321f6a4ec55da24f0f97299213446334afab53216269f5c0c957a4491672b29[ALL] 03336f0ffcb45aa2c1e7f0fde3cdc104aaa2b8b994b664b9f18b577fdddd1d498d"}, "vout": 0, "txid": "f7446da9c96bccfe5dae76af8cb73e99155e9a41e2d8296f8963b975be3c7ff4"}, {"sequence": 4294967295, "scriptSig": {"hex": "47304402203fef321fdd8d48152acb10949dc0b9d4f2bda116f9a627d24c3b6469d91bbc3502204d35ccceb8a009b288704ebdf63cd14641237dbad61e0a84840f47b99302ae3e012103336f0ffcb45aa2c1e7f0fde3cdc104aaa2b8b994b664b9f18b577fdddd1d498d", "asm": "304402203fef321fdd8d48152acb10949dc0b9d4f2bda116f9a627d24c3b6469d91bbc3502204d35ccceb8a009b288704ebdf63cd14641237dbad61e0a84840f47b99302ae3e[ALL] 03336f0ffcb45aa2c1e7f0fde3cdc104aaa2b8b994b664b9f18b577fdddd1d498d"}, "vout": 0, "txid": "fd7341d001ec39e9f04eed06f035fd88b29fc11c8160f68b1e96ed280daf1812"}], "txid": "29f2c0cd809df88e1d0ebd35f3f05e351b47346fa4f75c4829ce3013a4860126", "blocktime": 1537870564, "version": 1, "confirmations": 11515, "time": 1537870564, "locktime": 0, "vsize": 7012, "size": 7012}