{"hash": "29fdca82466e97e4156614f284af28cff3416b8af5dea8759394a44fec37ab57", "blockhash": "0000000000000000001cda96e906b7601b7a6fb1a3b62bca570a9e5d8f4b3de1", "vout": [{"scriptPubKey": {"reqSigs": 1, "hex": "a9146e88d8a91722c47d4a549dcfe8aa1fd556babdfa87", "addresses": ["3BmUBtrPGPiVom5aoo8iwtKckt1UN4BSXK"], "asm": "OP_HASH160 6e88d8a91722c47d4a549dcfe8aa1fd556babdfa OP_EQUAL", "type": "scripthash"}, "value": 0.00023, "n": 0}, {"scriptPubKey": {"reqSigs": 1, "hex": "76a914efbdd64277ddd77077c387af99ffa03ce3c7b12688ac", "addresses": ["1Nrdux7Bg3uH3k6dUFw8iXjSCfGu1v5ZHW"], "asm": "OP_DUP OP_HASH160 efbdd64277ddd77077c387af99ffa03ce3c7b126 OP_EQUALVERIFY OP_CHECKSIG", "type": "pubkeyhash"}, "value": 0.00478445, "n": 1}], "hex": "0100000001e6275aa650b2044b74cda859c786f83752401eeaa41545634a1d1cc3e7aee6d2010000006b483045022100a252804b812e60a45aa81bbb2571cb42a0bf3fd47272c528f73232d5736ede1e022076eca1267f4776c75a57790d77183488bdc21482fe4454a82e3ba60fc105eae5012102d22330336ee8523e8ac9ae9aec469aeb9453cd53c60554a9dc10ae59fe5ef70cffffffff02d85900000000000017a9146e88d8a91722c47d4a549dcfe8aa1fd556babdfa87ed4c0700000000001976a914efbdd64277ddd77077c387af99ffa03ce3c7b12688ac00000000", "vin": [{"sequence": 4294967295, "scriptSig": {"hex": "483045022100a252804b812e60a45aa81bbb2571cb42a0bf3fd47272c528f73232d5736ede1e022076eca1267f4776c75a57790d77183488bdc21482fe4454a82e3ba60fc105eae5012102d22330336ee8523e8ac9ae9aec469aeb9453cd53c60554a9dc10ae59fe5ef70c", "asm": "3045022100a252804b812e60a45aa81bbb2571cb42a0bf3fd47272c528f73232d5736ede1e022076eca1267f4776c75a57790d77183488bdc21482fe4454a82e3ba60fc105eae5[ALL] 02d22330336ee8523e8ac9ae9aec469aeb9453cd53c60554a9dc10ae59fe5ef70c"}, "vout": 1, "txid": "d2e6aee7c31c1d4a634515a4ea1e405237f886c759a8cd744b04b250a65a27e6"}], "txid": "29fdca82466e97e4156614f284af28cff3416b8af5dea8759394a44fec37ab57", "blocktime": 1537873282, "version": 1, "confirmations": 11484, "time": 1537873282, "locktime": 0, "vsize": 224, "size": 224}