{"hash": "f774d6415b028ce87973bcbe1c577562a60fcdeeea7c4033cdbe8644a5805926", "blockhash": "000000000000000000022b45ed06c6f4ccd3cf7fb5ba4856ebd2e58215665228", "vout": [{"scriptPubKey": {"reqSigs": 1, "hex": "a914b7381560005a057039a158055b2c6ee409c2ed5587", "addresses": ["3JPnmQ4HbfXbYqWXXEqW13jZF4kDu9rjxi"], "asm": "OP_HASH160 b7381560005a057039a158055b2c6ee409c2ed55 OP_EQUAL", "type": "scripthash"}, "value": 0.01746339, "n": 0}, {"scriptPubKey": {"reqSigs": 1, "hex": "76a91444a7425afe245247be888b737f785a882c3edf5888ac", "addresses": ["17G1KRDRZBU3Rtkj3vXzzonycRvHptv4v1"], "asm": "OP_DUP OP_HASH160 44a7425afe245247be888b737f785a882c3edf58 OP_EQUALVERIFY OP_CHECKSIG", "type": "pubkeyhash"}, "value": 0.014551, "n": 1}], "hex": "0200000000010267b9c09a27332237257d8c3bba68890a5ab3356810cf9310257236850bf773540100000017160014ac662340a1bda47e650eab0c358e715bd0dae06cfeffffff83ac7b2ebfb4b4dbae6de3e1c45e3aea84504f6bad1aecfd5ec969797df2a5ff000000001716001460902f6720182588a86cb683d948a58d50fdd55ffeffffff02a3a51a000000000017a914b7381560005a057039a158055b2c6ee409c2ed5587fc331600000000001976a91444a7425afe245247be888b737f785a882c3edf5888ac02483045022100ce43437ce784b97b849818a5284f1795209b8b1d46d22e53aa3e6bca020b423e022043f411a495bc821d4e5f8304fc429baaf403672cb847ed16f40d57f29596cb51012102229d5bacafe5dc0cd21b721669bb91c51644cbdc3111bb62f4e6566c1913ca830247304402206de460ad5795c6732a8b75e6cb86e5d16f43b3880dbe03b6711b42b47e3f0a6f02207542901db8ef2865b1919cfbc28427e7b82ae7ec3414a689ac8fcc66ed549fee012103d90c01fbcf179e6150e0ec625a005512ef309f38ee3100aa0c42b1cf16dd25a5ec480800", "vin": [{"txinwitness": ["3045022100ce43437ce784b97b849818a5284f1795209b8b1d46d22e53aa3e6bca020b423e022043f411a495bc821d4e5f8304fc429baaf403672cb847ed16f40d57f29596cb5101", "02229d5bacafe5dc0cd21b721669bb91c51644cbdc3111bb62f4e6566c1913ca83"], "sequence": 4294967294, "scriptSig": {"hex": "160014ac662340a1bda47e650eab0c358e715bd0dae06c", "asm": "0014ac662340a1bda47e650eab0c358e715bd0dae06c"}, "vout": 1, "txid": "5473f70b853672251093cf106835b35a0a8968ba3b8c7d25372233279ac0b967"}, {"txinwitness": ["304402206de460ad5795c6732a8b75e6cb86e5d16f43b3880dbe03b6711b42b47e3f0a6f02207542901db8ef2865b1919cfbc28427e7b82ae7ec3414a689ac8fcc66ed549fee01", "03d90c01fbcf179e6150e0ec625a005512ef309f38ee3100aa0c42b1cf16dd25a5"], "sequence": 4294967294, "scriptSig": {"hex": "16001460902f6720182588a86cb683d948a58d50fdd55f", "asm": "001460902f6720182588a86cb683d948a58d50fdd55f"}, "vout": 0, "txid": "ffa5f27d7969c95efdec1aad6b4f5084ea3a5ec4e1e36daedbb4b4bf2e7bac83"}], "txid": "29fe0b281cdfbcf6850816ff1252e64bc0bc3399ff61493af6aafec9188c8231", "blocktime": 1537869901, "version": 2, "confirmations": 11522, "time": 1537869901, "locktime": 542956, "vsize": 259, "size": 421}