{"hash": "2a0108db84d57f68d2f09a4caaee0c283b2a049f88164217dad0c26f0f57ffc4", "blockhash": "00000000000000000017f5eb5941039fbcee6240d03bc1f2f8e35350df66a1d8", "vout": [{"scriptPubKey": {"reqSigs": 1, "hex": "a914e11a64eaa2ce36805f6ff44bd37a03dd0b2ab7ed87", "addresses": ["3NDFacAe3SF9m4VnQ7XGaqJ6raZpw7H8zi"], "asm": "OP_HASH160 e11a64eaa2ce36805f6ff44bd37a03dd0b2ab7ed OP_EQUAL", "type": "scripthash"}, "value": 0.03743372, "n": 0}], "hex": "0100000001211858cbcd5fd86546ded204f71acbf4fee0ffa8d722e13cb5bdd297e80e1e3a240000006a47304402204902eb0b41654e3ed75f419afd86f6655dfb1087549a999df0ded3d78386484e022003504554e8766ab4e1565ca95426aad37e00976c3acdd1c78d16c0ae40b09fff0121037626e2f9f2054ca9d9f6089b504055e0d9aeae564dcf7aa1792f052d3ea7e08efdffffff018c1e39000000000017a914e11a64eaa2ce36805f6ff44bd37a03dd0b2ab7ed8715490800", "vin": [{"sequence": 4294967293, "scriptSig": {"hex": "47304402204902eb0b41654e3ed75f419afd86f6655dfb1087549a999df0ded3d78386484e022003504554e8766ab4e1565ca95426aad37e00976c3acdd1c78d16c0ae40b09fff0121037626e2f9f2054ca9d9f6089b504055e0d9aeae564dcf7aa1792f052d3ea7e08e", "asm": "304402204902eb0b41654e3ed75f419afd86f6655dfb1087549a999df0ded3d78386484e022003504554e8766ab4e1565ca95426aad37e00976c3acdd1c78d16c0ae40b09fff[ALL] 037626e2f9f2054ca9d9f6089b504055e0d9aeae564dcf7aa1792f052d3ea7e08e"}, "vout": 36, "txid": "3a1e0ee897d2bdb53ce122d7a8ffe0fef4cb1af704d2de4665d85fcdcb581821"}], "txid": "2a0108db84d57f68d2f09a4caaee0c283b2a049f88164217dad0c26f0f57ffc4", "blocktime": 1537874412, "version": 1, "confirmations": 11468, "time": 1537874412, "locktime": 542997, "vsize": 189, "size": 189}