{"hash": "2a04bac0ca05501ba952d79cfe9f5c44b209d00894befac66896436c1301fb82", "blockhash": "0000000000000000000e13cef7c366c0283d82e591d1acd082e914b08063cdf1", "vout": [{"scriptPubKey": {"reqSigs": 1, "hex": "76a91487d0a410ff6d597de9b739f07d03f7040fc880b188ac", "addresses": ["1DP8AX9voAdDuNjbRKGSJnT1baXQF9QkFf"], "asm": "OP_DUP OP_HASH160 87d0a410ff6d597de9b739f07d03f7040fc880b1 OP_EQUALVERIFY OP_CHECKSIG", "type": "pubkeyhash"}, "value": 0.01966, "n": 0}, {"scriptPubKey": {"reqSigs": 1, "hex": "a914e370231feecbfc25e2e2423a5a79bf79bfdca59887", "addresses": ["3NRbeX3vD5VaVE4TDU9ivCDsEf7NPPte6J"], "asm": "OP_HASH160 e370231feecbfc25e2e2423a5a79bf79bfdca598 OP_EQUAL", "type": "scripthash"}, "value": 0.56553842, "n": 1}], "hex": "0100000001e2ef7b43cf230908e5f1247b70ff081b84e7b004582dcdf00062f8494a47f7a001000000da004730440220751b9baf16c7f96416ff4795d65567f4589ea40839fd7e0a452a18fd6dbb9b6d02205d485a96cbfcfadf8bd8a28a074e3d05323235a9403c501bd9e0de74f62a5c6001483045022100a66f8ba7ffec676b813a00c739bfc04cc9592c4dfba94745724b9b0c8f58df0b02204534e9a20bc238c59ab6ddae7944675bac8aebb8f5388ad1bc6bb844a3b832a3014752210327881b6abce6535553a3ce21fad12a7d74fd237ce7c4cd270a267162344e3082210256141f8eb687f5a68c5cc65054652dc25116fa285e44d72b44368827ffe77d9a52aeffffffff02b0ff1d00000000001976a91487d0a410ff6d597de9b739f07d03f7040fc880b188ac72f15e030000000017a914e370231feecbfc25e2e2423a5a79bf79bfdca5988700000000", "vin": [{"sequence": 4294967295, "scriptSig": {"hex": "004730440220751b9baf16c7f96416ff4795d65567f4589ea40839fd7e0a452a18fd6dbb9b6d02205d485a96cbfcfadf8bd8a28a074e3d05323235a9403c501bd9e0de74f62a5c6001483045022100a66f8ba7ffec676b813a00c739bfc04cc9592c4dfba94745724b9b0c8f58df0b02204534e9a20bc238c59ab6ddae7944675bac8aebb8f5388ad1bc6bb844a3b832a3014752210327881b6abce6535553a3ce21fad12a7d74fd237ce7c4cd270a267162344e3082210256141f8eb687f5a68c5cc65054652dc25116fa285e44d72b44368827ffe77d9a52ae", "asm": "0 30440220751b9baf16c7f96416ff4795d65567f4589ea40839fd7e0a452a18fd6dbb9b6d02205d485a96cbfcfadf8bd8a28a074e3d05323235a9403c501bd9e0de74f62a5c60[ALL] 3045022100a66f8ba7ffec676b813a00c739bfc04cc9592c4dfba94745724b9b0c8f58df0b02204534e9a20bc238c59ab6ddae7944675bac8aebb8f5388ad1bc6bb844a3b832a3[ALL] 52210327881b6abce6535553a3ce21fad12a7d74fd237ce7c4cd270a267162344e3082210256141f8eb687f5a68c5cc65054652dc25116fa285e44d72b44368827ffe77d9a52ae"}, "vout": 1, "txid": "a0f7474a49f86200f0cd2d5804b0e7841b08ff707b24f1e5080923cf437befe2"}], "txid": "2a04bac0ca05501ba952d79cfe9f5c44b209d00894befac66896436c1301fb82", "blocktime": 1537871767, "version": 1, "confirmations": 11495, "time": 1537871767, "locktime": 0, "vsize": 335, "size": 335}