{"hash": "2a1085d62188ae0664c4bb9b1ec108b848011d95627bb7cce0a500b287bc17bf", "blockhash": "0000000000000000001f76057863aec43deb6fa401d9628bb513d65a8098bfab", "vout": [{"scriptPubKey": {"reqSigs": 1, "hex": "76a91489df1ea1d33784a49298d0b738d4ab8f5de21e3188ac", "addresses": ["1DZzruZndaGbfDppj9tAKM1L2mNSpXUHJM"], "asm": "OP_DUP OP_HASH160 89df1ea1d33784a49298d0b738d4ab8f5de21e31 OP_EQUALVERIFY OP_CHECKSIG", "type": "pubkeyhash"}, "value": 0.1697445, "n": 0}, {"scriptPubKey": {"reqSigs": 1, "hex": "76a914bae025140c454518b8cba0c25d45a6dc87f4b9ce88ac", "addresses": ["1J37CY8hcdUXQ1KfBhMCsUVafa8XjDsdCn"], "asm": "OP_DUP OP_HASH160 bae025140c454518b8cba0c25d45a6dc87f4b9ce OP_EQUALVERIFY OP_CHECKSIG", "type": "pubkeyhash"}, "value": 0.03660741, "n": 1}], "hex": "0100000006478bc43d99d3bd9b1171d3e91b1bdf6bcad3d9192238e0ec964b01c91829f515000000008a47304402200cfe2fcc83d3ac1a930188313744c9b786ea1c813e699a7c7a4e4dc7b2e6b63902205a5adab2a80a00892b4f52772f7d6d88ece762e2872ac61eb12de1c86e2845ff0141043b1744fd0540b9a603aede550aa58a6cc73c23102813012c4bcf4d3876a947bac38a4fa76cebbd856d1d40a06ffe1ffc177841effbc314bd721b5bdb6810d95cffffffff5cb4919beb75673a5f40b48840178523c382907a05f50eaded3dd3e8ab33c788010000008b483045022100f1f1d3446d3f3370cee16a2dac217bd8a1ea5bad7773aca80ec3888a7901888f02203dc8bfc0f0632b03c7a1da5c54e014fc31b8d368091d2851bbd02a869c8069b3014104025a1cffe502a80dfa1f543ae14c082aff24d5ecadab160ca904d288eed8e3d8cacef0985f690868df4f416c3890909b4c0c843da153d41382ac20c80170240affffffff15a32215da7b1c10c8c0d92fcee150a9d30d886dc418331127b5c4b93a4bf682010000008b483045022100ef8fb843d60bb1c3e7f21500671fe3f63392707b4f29161e3521ea96837f94ba0220406decff99dfb8d8c4e267fb46ca72b2d63e41d098d03b13b8b8c0fb41022544014104025a1cffe502a80dfa1f543ae14c082aff24d5ecadab160ca904d288eed8e3d8cacef0985f690868df4f416c3890909b4c0c843da153d41382ac20c80170240affffffff33cdcc99fefda73b5ad7dbe2a380cfdde3c19c722513e6fe5b2a3708fe7cdd07010000008b483045022100dc576691165202acdbe78837a8cbfcf49461bd2d74cba340b52bfec7000c4a94022031ad18f6cb2dc9dc3bd7bd62144de613f7c149879d7939217af173b0f1ddd184014104025a1cffe502a80dfa1f543ae14c082aff24d5ecadab160ca904d288eed8e3d8cacef0985f690868df4f416c3890909b4c0c843da153d41382ac20c80170240affffffff638fd77b8088c3fc5aef46496d323a9a03ba094abf52366f57b1b4ff37747c44010000008b483045022100b92c801a7677be2bac33be9ccd3116b34714fcc298cd561834fa4eb2891e99f90220775a505eef8bb88512648fc15d2629651338bc6ef71ed1c8171147d151f1b916014104025a1cffe502a80dfa1f543ae14c082aff24d5ecadab160ca904d288eed8e3d8cacef0985f690868df4f416c3890909b4c0c843da153d41382ac20c80170240affffffff80364165b2d6df4cf12fd910e3657e28c731cad745a3500b43557eaec3f4ba0d020000008b483045022100c1ddca58a68f73b7d2bcf4a42ecb63739845c110df89b087e81138cc0128fa07022065ef24a2d22e28c1cc18265c331096c4e39322aa2759feec61604a99109ecdac014104874e05ba2e0d4edfb61baa3c6f6acdc24cf001d259314e8605bf6b667f26a86e5d7a3d18fc10e283c0f738cbce0e6846f364399306c85892050001dc53024707ffffffff0272020301000000001976a91489df1ea1d33784a49298d0b738d4ab8f5de21e3188acc5db3700000000001976a914bae025140c454518b8cba0c25d45a6dc87f4b9ce88ac00000000", "vin": [{"sequence": 4294967295, "scriptSig": {"hex": "47304402200cfe2fcc83d3ac1a930188313744c9b786ea1c813e699a7c7a4e4dc7b2e6b63902205a5adab2a80a00892b4f52772f7d6d88ece762e2872ac61eb12de1c86e2845ff0141043b1744fd0540b9a603aede550aa58a6cc73c23102813012c4bcf4d3876a947bac38a4fa76cebbd856d1d40a06ffe1ffc177841effbc314bd721b5bdb6810d95c", "asm": "304402200cfe2fcc83d3ac1a930188313744c9b786ea1c813e699a7c7a4e4dc7b2e6b63902205a5adab2a80a00892b4f52772f7d6d88ece762e2872ac61eb12de1c86e2845ff[ALL] 043b1744fd0540b9a603aede550aa58a6cc73c23102813012c4bcf4d3876a947bac38a4fa76cebbd856d1d40a06ffe1ffc177841effbc314bd721b5bdb6810d95c"}, "vout": 0, "txid": "15f52918c9014b96ece0382219d9d3ca6bdf1b1be9d371119bbdd3993dc48b47"}, {"sequence": 4294967295, "scriptSig": {"hex": "483045022100f1f1d3446d3f3370cee16a2dac217bd8a1ea5bad7773aca80ec3888a7901888f02203dc8bfc0f0632b03c7a1da5c54e014fc31b8d368091d2851bbd02a869c8069b3014104025a1cffe502a80dfa1f543ae14c082aff24d5ecadab160ca904d288eed8e3d8cacef0985f690868df4f416c3890909b4c0c843da153d41382ac20c80170240a", "asm": "3045022100f1f1d3446d3f3370cee16a2dac217bd8a1ea5bad7773aca80ec3888a7901888f02203dc8bfc0f0632b03c7a1da5c54e014fc31b8d368091d2851bbd02a869c8069b3[ALL] 04025a1cffe502a80dfa1f543ae14c082aff24d5ecadab160ca904d288eed8e3d8cacef0985f690868df4f416c3890909b4c0c843da153d41382ac20c80170240a"}, "vout": 1, "txid": "88c733abe8d33dedad0ef5057a9082c32385174088b4405f3a6775eb9b91b45c"}, {"sequence": 4294967295, "scriptSig": {"hex": "483045022100ef8fb843d60bb1c3e7f21500671fe3f63392707b4f29161e3521ea96837f94ba0220406decff99dfb8d8c4e267fb46ca72b2d63e41d098d03b13b8b8c0fb41022544014104025a1cffe502a80dfa1f543ae14c082aff24d5ecadab160ca904d288eed8e3d8cacef0985f690868df4f416c3890909b4c0c843da153d41382ac20c80170240a", "asm": "3045022100ef8fb843d60bb1c3e7f21500671fe3f63392707b4f29161e3521ea96837f94ba0220406decff99dfb8d8c4e267fb46ca72b2d63e41d098d03b13b8b8c0fb41022544[ALL] 04025a1cffe502a80dfa1f543ae14c082aff24d5ecadab160ca904d288eed8e3d8cacef0985f690868df4f416c3890909b4c0c843da153d41382ac20c80170240a"}, "vout": 1, "txid": "82f64b3ab9c4b527113318c46d880dd3a950e1ce2fd9c0c8101c7bda1522a315"}, {"sequence": 4294967295, "scriptSig": {"hex": "483045022100dc576691165202acdbe78837a8cbfcf49461bd2d74cba340b52bfec7000c4a94022031ad18f6cb2dc9dc3bd7bd62144de613f7c149879d7939217af173b0f1ddd184014104025a1cffe502a80dfa1f543ae14c082aff24d5ecadab160ca904d288eed8e3d8cacef0985f690868df4f416c3890909b4c0c843da153d41382ac20c80170240a", "asm": "3045022100dc576691165202acdbe78837a8cbfcf49461bd2d74cba340b52bfec7000c4a94022031ad18f6cb2dc9dc3bd7bd62144de613f7c149879d7939217af173b0f1ddd184[ALL] 04025a1cffe502a80dfa1f543ae14c082aff24d5ecadab160ca904d288eed8e3d8cacef0985f690868df4f416c3890909b4c0c843da153d41382ac20c80170240a"}, "vout": 1, "txid": "07dd7cfe08372a5bfee61325729cc1e3ddcf80a3e2dbd75a3ba7fdfe99cccd33"}, {"sequence": 4294967295, "scriptSig": {"hex": "483045022100b92c801a7677be2bac33be9ccd3116b34714fcc298cd561834fa4eb2891e99f90220775a505eef8bb88512648fc15d2629651338bc6ef71ed1c8171147d151f1b916014104025a1cffe502a80dfa1f543ae14c082aff24d5ecadab160ca904d288eed8e3d8cacef0985f690868df4f416c3890909b4c0c843da153d41382ac20c80170240a", "asm": "3045022100b92c801a7677be2bac33be9ccd3116b34714fcc298cd561834fa4eb2891e99f90220775a505eef8bb88512648fc15d2629651338bc6ef71ed1c8171147d151f1b916[ALL] 04025a1cffe502a80dfa1f543ae14c082aff24d5ecadab160ca904d288eed8e3d8cacef0985f690868df4f416c3890909b4c0c843da153d41382ac20c80170240a"}, "vout": 1, "txid": "447c7437ffb4b1576f3652bf4a09ba039a3a326d4946ef5afcc388807bd78f63"}, {"sequence": 4294967295, "scriptSig": {"hex": "483045022100c1ddca58a68f73b7d2bcf4a42ecb63739845c110df89b087e81138cc0128fa07022065ef24a2d22e28c1cc18265c331096c4e39322aa2759feec61604a99109ecdac014104874e05ba2e0d4edfb61baa3c6f6acdc24cf001d259314e8605bf6b667f26a86e5d7a3d18fc10e283c0f738cbce0e6846f364399306c85892050001dc53024707", "asm": "3045022100c1ddca58a68f73b7d2bcf4a42ecb63739845c110df89b087e81138cc0128fa07022065ef24a2d22e28c1cc18265c331096c4e39322aa2759feec61604a99109ecdac[ALL] 04874e05ba2e0d4edfb61baa3c6f6acdc24cf001d259314e8605bf6b667f26a86e5d7a3d18fc10e283c0f738cbce0e6846f364399306c85892050001dc53024707"}, "vout": 2, "txid": "0dbaf4c3ae7e55430b50a345d7ca31c7287e65e310d92ff14cdfd6b265413680"}], "txid": "2a1085d62188ae0664c4bb9b1ec108b848011d95627bb7cce0a500b287bc17bf", "blocktime": 1537873891, "version": 1, "confirmations": 11475, "time": 1537873891, "locktime": 0, "vsize": 1157, "size": 1157}