{"hash": "2a1002cbbca04e5c97c5ecc0c85ddaf947019d31605c3b21d15089b040db4ddc", "blockhash": "000000000000000000022b45ed06c6f4ccd3cf7fb5ba4856ebd2e58215665228", "vout": [{"scriptPubKey": {"type": "nulldata", "hex": "6a4c500000775c00010f99ba3cf20259cb5014fffa3a016b46dc7dc7d0968d120d670c1906f999e00b6b3cf12aaa55f96e175ab0a415755baa06fe06128d3ff5472e164bbf23acfcfaac8058b692fe6808c31d", "asm": "OP_RETURN 0000775c00010f99ba3cf20259cb5014fffa3a016b46dc7dc7d0968d120d670c1906f999e00b6b3cf12aaa55f96e175ab0a415755baa06fe06128d3ff5472e164bbf23acfcfaac8058b692fe6808c31d"}, "value": 0.0, "n": 0}, {"scriptPubKey": {"reqSigs": 1, "hex": "76a914b90ff0b70af190cb014e472bf1ebf8562791914288ac", "addresses": ["1HsX73JDxfQ3SFDCnTL9AubSjvAPcgrnQ6"], "asm": "OP_DUP OP_HASH160 b90ff0b70af190cb014e472bf1ebf85627919142 OP_EQUALVERIFY OP_CHECKSIG", "type": "pubkeyhash"}, "value": 0.00033575, "n": 1}], "hex": "0100000001cf78f3b2d95e486bcc8302dbcfa34680bb6ebd77f439ce903ea1d2fa32901a97000000006b483045022100a4f5bbf57cc6edc37c5dd84191b537cac1ad217bcce99ecd82f4805b67d2369502207824d285e1985739d21ea657466a35f88085094c1fcc2f705dd39c13f3a1e3d801210334ebd1fcc6f22046a2d963a4c315b882ee3aebde98a0f27055781409ba4f916dffffffff020000000000000000536a4c500000775c00010f99ba3cf20259cb5014fffa3a016b46dc7dc7d0968d120d670c1906f999e00b6b3cf12aaa55f96e175ab0a415755baa06fe06128d3ff5472e164bbf23acfcfaac8058b692fe6808c31d27830000000000001976a914b90ff0b70af190cb014e472bf1ebf8562791914288ac00000000", "vin": [{"sequence": 4294967295, "scriptSig": {"hex": "483045022100a4f5bbf57cc6edc37c5dd84191b537cac1ad217bcce99ecd82f4805b67d2369502207824d285e1985739d21ea657466a35f88085094c1fcc2f705dd39c13f3a1e3d801210334ebd1fcc6f22046a2d963a4c315b882ee3aebde98a0f27055781409ba4f916d", "asm": "3045022100a4f5bbf57cc6edc37c5dd84191b537cac1ad217bcce99ecd82f4805b67d2369502207824d285e1985739d21ea657466a35f88085094c1fcc2f705dd39c13f3a1e3d8[ALL] 0334ebd1fcc6f22046a2d963a4c315b882ee3aebde98a0f27055781409ba4f916d"}, "vout": 0, "txid": "971a9032fad2a13e90ce39f477bd6ebb8046a3cfdb0283cc6b485ed9b2f378cf"}], "txid": "2a1002cbbca04e5c97c5ecc0c85ddaf947019d31605c3b21d15089b040db4ddc", "blocktime": 1537869901, "version": 1, "confirmations": 11523, "time": 1537869901, "locktime": 0, "vsize": 284, "size": 284}