{"hash": "53ab461d158e1f55977e104ec3f26e5145662f84443a17b2c469cc6f551bb8f1", "blockhash": "0000000000000000001cda96e906b7601b7a6fb1a3b62bca570a9e5d8f4b3de1", "vout": [{"scriptPubKey": {"reqSigs": 1, "hex": "a914d20603a3a698f1211bc57c800a4c04afa6de2eb887", "addresses": ["3LqX2hjmfc9pW7LoGHa1A5QkxsN7A2uLyh"], "asm": "OP_HASH160 d20603a3a698f1211bc57c800a4c04afa6de2eb8 OP_EQUAL", "type": "scripthash"}, "value": 0.0044056, "n": 0}, {"scriptPubKey": {"reqSigs": 1, "hex": "a9140bcec8088ce7eeef92cf955e658b4bbe18bfae5b87", "addresses": ["32mT55NC28xMYWioDSvNJoza3nVNfwHArv"], "asm": "OP_HASH160 0bcec8088ce7eeef92cf955e658b4bbe18bfae5b OP_EQUAL", "type": "scripthash"}, "value": 0.00999761, "n": 1}], "hex": "020000000001022d5773f9173100d55fcf0d042351cf34678dc4b33fa67774312cb2d7030b5b100100000017160014852ea62281e786342a8d4d227e81082e74f97379feffffffdb39e6683a9e3105484d9b202e602ba189027c94d4b404dec6b461ff7d0465b304000000171600141f78b217025119848d683c12027c20ccb891d98efeffffff02f0b806000000000017a914d20603a3a698f1211bc57c800a4c04afa6de2eb88751410f000000000017a9140bcec8088ce7eeef92cf955e658b4bbe18bfae5b870247304402204fc341b3665e351751c7e213ae4aadb665372d4004977d4286fd18870831c98b022010f2018398be0a7292020d9f1b645582cf52aa4811314bc262dd6545b84bbefb0121025470b3db01dbfb131df6181bd47d9daf631e269ae45bc416a0499b2512431f240247304402202d8a5b5ae54a2de587b268800c0f0029d0eb5dd6be96ce596e48455c8700ea2e02202c700248c1f58ab0b47873516b564a5333366d9f5ae879c5f8d4641b4125972c01210263cd92068257ec73f10b009450584b9e8cfb90fcda8a50dcbc10efce44f490bc13490800", "vin": [{"txinwitness": ["304402204fc341b3665e351751c7e213ae4aadb665372d4004977d4286fd18870831c98b022010f2018398be0a7292020d9f1b645582cf52aa4811314bc262dd6545b84bbefb01", "025470b3db01dbfb131df6181bd47d9daf631e269ae45bc416a0499b2512431f24"], "sequence": 4294967294, "scriptSig": {"hex": "160014852ea62281e786342a8d4d227e81082e74f97379", "asm": "0014852ea62281e786342a8d4d227e81082e74f97379"}, "vout": 1, "txid": "105b0b03d7b22c317477a63fb3c48d6734cf5123040dcf5fd5003117f973572d"}, {"txinwitness": ["304402202d8a5b5ae54a2de587b268800c0f0029d0eb5dd6be96ce596e48455c8700ea2e02202c700248c1f58ab0b47873516b564a5333366d9f5ae879c5f8d4641b4125972c01", "0263cd92068257ec73f10b009450584b9e8cfb90fcda8a50dcbc10efce44f490bc"], "sequence": 4294967294, "scriptSig": {"hex": "1600141f78b217025119848d683c12027c20ccb891d98e", "asm": "00141f78b217025119848d683c12027c20ccb891d98e"}, "vout": 4, "txid": "b365047dff61b4c6de04b4d4947c0289a12b602e209b4d4805319e3a68e639db"}], "txid": "2a134bd5d10c5ab7b630a7ecd29c50e8beb99a04bb198f0df351978a6e4ebdeb", "blocktime": 1537873282, "version": 2, "confirmations": 11485, "time": 1537873282, "locktime": 542995, "vsize": 256, "size": 418}