{"hash": "2a15dce0579e645ea12747bd6e685845c32729500a2be011ad4c93c8cb6100e3", "blockhash": "00000000000000000004ffacab907a6b429b9a5745fa0b75af4234bf69dd7176", "vout": [{"scriptPubKey": {"reqSigs": 1, "hex": "76a9140e2679ec2ee40a3d742fba5df819e8bda2776eeb88ac", "addresses": ["12HpZ4f67QUU4cVWXnRaftWuDKGrZmaJ8n"], "asm": "OP_DUP OP_HASH160 0e2679ec2ee40a3d742fba5df819e8bda2776eeb OP_EQUALVERIFY OP_CHECKSIG", "type": "pubkeyhash"}, "value": 0.06997135, "n": 0}], "hex": "0100000001ff7372cc0d0470f04c658627b0f16c34212fa6daaf68fa2d81f2b95dc973148a010000006b483045022100bca7afc69feef6aaaecd17a2d4294afcd49831c0a1331f684480a2a08552c79202201f42ba720561966f51264a973c448ea0e7d0a13434ea3b7b099666fa875bcd6c01210381b90cbcc63f8cde020cdd82674a14c29780d09b578d429060b865f817c84158ffffffff018fc46a00000000001976a9140e2679ec2ee40a3d742fba5df819e8bda2776eeb88ac00000000", "vin": [{"sequence": 4294967295, "scriptSig": {"hex": "483045022100bca7afc69feef6aaaecd17a2d4294afcd49831c0a1331f684480a2a08552c79202201f42ba720561966f51264a973c448ea0e7d0a13434ea3b7b099666fa875bcd6c01210381b90cbcc63f8cde020cdd82674a14c29780d09b578d429060b865f817c84158", "asm": "3045022100bca7afc69feef6aaaecd17a2d4294afcd49831c0a1331f684480a2a08552c79202201f42ba720561966f51264a973c448ea0e7d0a13434ea3b7b099666fa875bcd6c[ALL] 0381b90cbcc63f8cde020cdd82674a14c29780d09b578d429060b865f817c84158"}, "vout": 1, "txid": "8a1473c95db9f2812dfa68afdaa62f21346cf1b02786654cf070040dcc7273ff"}], "txid": "2a15dce0579e645ea12747bd6e685845c32729500a2be011ad4c93c8cb6100e3", "blocktime": 1537875543, "version": 1, "confirmations": 11464, "time": 1537875543, "locktime": 0, "vsize": 192, "size": 192}