{"hash": "2a18f913c3af8d4590eff3caec05bf5ddb856dc83de049c7f0a9fee8469a60e6", "blockhash": "00000000000000000017f5eb5941039fbcee6240d03bc1f2f8e35350df66a1d8", "vout": [{"scriptPubKey": {"reqSigs": 1, "hex": "76a914ce67c8b2e606041f56508a698acf998de066f8ce88ac", "addresses": ["1KpNXZ9zw8vJ6eLBXE6Ejg2JkKTWGePbS6"], "asm": "OP_DUP OP_HASH160 ce67c8b2e606041f56508a698acf998de066f8ce OP_EQUALVERIFY OP_CHECKSIG", "type": "pubkeyhash"}, "value": 0.00015626, "n": 0}, {"scriptPubKey": {"reqSigs": 1, "hex": "76a9149ea4066386587e2dfd85f6f0522083bdcb8a04fb88ac", "addresses": ["1FTpFxrP3MyzTB4iePoz2pLq4b47vkxsRe"], "asm": "OP_DUP OP_HASH160 9ea4066386587e2dfd85f6f0522083bdcb8a04fb OP_EQUALVERIFY OP_CHECKSIG", "type": "pubkeyhash"}, "value": 0.00022712, "n": 1}], "hex": "010000000166f01c8c7e35fcd2b7066dfdf229e4821822d9e6e2b5b76073f892d5b1989191010000006b48304502210094ca2ba0793f426a0ad473c602afc1c1427e9c8c6babc24a16f456ad4c8338d8022008f9f51859d44cae3a29e641a0b406140ad208ff0d6d0b521f8cd4709c86d467012103aa844300fc572b4bf3ece0c5764c96239e9001ec17368e978a18e398ed227eedffffffff020a3d0000000000001976a914ce67c8b2e606041f56508a698acf998de066f8ce88acb8580000000000001976a9149ea4066386587e2dfd85f6f0522083bdcb8a04fb88ac00000000", "vin": [{"sequence": 4294967295, "scriptSig": {"hex": "48304502210094ca2ba0793f426a0ad473c602afc1c1427e9c8c6babc24a16f456ad4c8338d8022008f9f51859d44cae3a29e641a0b406140ad208ff0d6d0b521f8cd4709c86d467012103aa844300fc572b4bf3ece0c5764c96239e9001ec17368e978a18e398ed227eed", "asm": "304502210094ca2ba0793f426a0ad473c602afc1c1427e9c8c6babc24a16f456ad4c8338d8022008f9f51859d44cae3a29e641a0b406140ad208ff0d6d0b521f8cd4709c86d467[ALL] 03aa844300fc572b4bf3ece0c5764c96239e9001ec17368e978a18e398ed227eed"}, "vout": 1, "txid": "919198b1d592f87360b7b5e2e6d9221882e429f2fd6d06b7d2fc357e8c1cf066"}], "txid": "2a18f913c3af8d4590eff3caec05bf5ddb856dc83de049c7f0a9fee8469a60e6", "blocktime": 1537874412, "version": 1, "confirmations": 11468, "time": 1537874412, "locktime": 0, "vsize": 226, "size": 226}