{"hash": "1e55c99ed91798d5648ef1bd139191f81f11a94b7334d3a7eefc33e42f75e846", "blockhash": "0000000000000000000dcc0f55137456b1a82d3642486a52398922ac4d620174", "vout": [{"scriptPubKey": {"reqSigs": 1, "hex": "76a91487a996723e573ee4e79708b4741ebeb5d77dfbb188ac", "addresses": ["1DNKP4EVgKvAHYyq1PX17gz936G1XJwDJT"], "asm": "OP_DUP OP_HASH160 87a996723e573ee4e79708b4741ebeb5d77dfbb1 OP_EQUALVERIFY OP_CHECKSIG", "type": "pubkeyhash"}, "value": 0.00013029, "n": 0}, {"scriptPubKey": {"reqSigs": 1, "hex": "a914414cec0fc72a9410f6836edaf08de1aa3b2a321c87", "addresses": ["37eHzewnAFRR2SVZu8rZM3nBsmuE2XBU7D"], "asm": "OP_HASH160 414cec0fc72a9410f6836edaf08de1aa3b2a321c OP_EQUAL", "type": "scripthash"}, "value": 0.31350968, "n": 1}], "hex": "010000000001013d8211a3cbd51114334f44a16247836a57d0869d6919d2b9fbe99d8498bc5bb10100000023220020ce74cde37cfb8dd71d0179287e12fc721ee236ce3c89c2745bcd365b39807eb3ffffffff02e5320000000000001976a91487a996723e573ee4e79708b4741ebeb5d77dfbb188acb860de010000000017a914414cec0fc72a9410f6836edaf08de1aa3b2a321c870400483045022100cdb4d03d4242b2bc5f608dd98c7bebdf2fa15d365b0ab89bcad44c9a818c35cb02207722234c35f975758df35360aa9e5bd8352b3e1b2e9c25e36b49d0168c52e4d10147304402202de3eaa564b0cec24f9f02091998098614d69ec294ed63e667621f39a1b391e702203800eb204999891d9682f4eedfc73bd0230c33ca4da1a735ea2ef15834a00d0d0147522103ada901d90d5a76319a60f228e0b1bbc84b1d9a87238550bae5d5d190067b66712103871fc2ca08e6950b38867e8e6a0e94ee625223d3aa0df5c65f414c6d784467e252ae00000000", "vin": [{"txinwitness": ["", "3045022100cdb4d03d4242b2bc5f608dd98c7bebdf2fa15d365b0ab89bcad44c9a818c35cb02207722234c35f975758df35360aa9e5bd8352b3e1b2e9c25e36b49d0168c52e4d101", "304402202de3eaa564b0cec24f9f02091998098614d69ec294ed63e667621f39a1b391e702203800eb204999891d9682f4eedfc73bd0230c33ca4da1a735ea2ef15834a00d0d01", "522103ada901d90d5a76319a60f228e0b1bbc84b1d9a87238550bae5d5d190067b66712103871fc2ca08e6950b38867e8e6a0e94ee625223d3aa0df5c65f414c6d784467e252ae"], "sequence": 4294967295, "scriptSig": {"hex": "220020ce74cde37cfb8dd71d0179287e12fc721ee236ce3c89c2745bcd365b39807eb3", "asm": "0020ce74cde37cfb8dd71d0179287e12fc721ee236ce3c89c2745bcd365b39807eb3"}, "vout": 1, "txid": "b15bbc98849de9fbb9d219699d86d0576a834762a1444f331411d5cba311823d"}], "txid": "2a1c56cfd3dff8170c9701ae68f7584a233ee724c89d9f128072067d07837d72", "blocktime": 1537870268, "version": 1, "confirmations": 11518, "time": 1537870268, "locktime": 0, "vsize": 208, "size": 373}