{"hash": "2a20971147e7d3c123520999e79cabed4a44753da9392aa8efbdf4752596a7bd", "blockhash": "0000000000000000000e13cef7c366c0283d82e591d1acd082e914b08063cdf1", "vout": [{"scriptPubKey": {"reqSigs": 1, "hex": "76a9147e0eb1d847ac78074227fdb953f806221401124a88ac", "addresses": ["1CVXkBFY1G4LLCY3ViqLuvCt6EiDhcBdjx"], "asm": "OP_DUP OP_HASH160 7e0eb1d847ac78074227fdb953f806221401124a OP_EQUALVERIFY OP_CHECKSIG", "type": "pubkeyhash"}, "value": 0.07105033, "n": 0}, {"scriptPubKey": {"reqSigs": 1, "hex": "76a914c1dace83f0e94af3f8c0e0bc7bc889442ae77de988ac", "addresses": ["1Jg1Xyoaybor4zkrKgbEnknaCCNDPsV7Bu"], "asm": "OP_DUP OP_HASH160 c1dace83f0e94af3f8c0e0bc7bc889442ae77de9 OP_EQUALVERIFY OP_CHECKSIG", "type": "pubkeyhash"}, "value": 1.0, "n": 1}], "hex": "010000000579e4a8fc7ff3ad7a19a6ee999531408abcd389b7130a5d7106e9cf624eb81b16000000006a47304402202cd12406b2d4a23f6bb7a4fd826786ca0eba9b026f0cf502c06d95073cf9187002201ed669c461e61356672b36b481dd9d9d6aec3c4f8d70d114dab6a64214f3a81d012103266406405aa967643285f2e1bbc1425c3944e6b70747ffce2d8acf2efacf784efffffffff38f0138dda33d993fd05cb0c10a2a4bf74c1e7f1672413031fe910e1d036e26000000006b483045022100b83664d4d4783915bc6373dfb664462f2d8ea5d43819b1beb7bf35236f808f3102201724c26c29bb797656dfda21097d79c8795948aa032d189a6d2a8636eed1cc2301210396dc6f60b9173ce8f5e451d3a03713ec44ea8608ab6c82074fe3e9feb9713821ffffffff2d6967a0e65ee92802c90262e2e237d3db11f80afb87ccdf2096f3fbeb7dea45000000006b483045022100fc039ebbbc872e248a5aa8b6078c040cf5f6f2c8390412577708a78be474dab5022046162dd10a4a978b7fa2f9e911dcdf3633ebd2851e61388983ea0d261024cca2012102ebbac6c95aebf24dd9cc83424a5b0be67903e23e76b3451a097e9e1d52605f06ffffffffdf150bcf20fd033798323e7c22f3af79aca35dce5b11ec8e82cb72d3bddcca52000000006a473044022066b69577405e23649ed2b8d10df9f5e2f5f4f44b44fffc2ea3cbc51cca452783022034c21e48ebff972ef5581bf6c0efc292b7c7b72df9092ceb6060955a0d3ffae10121024eb810091923dd3fe0b3a54691a4b3a596fff4044d1b924be879f707075858b2ffffffff5d0cdd77907e2e0f54ce2dc312b13558b293dfac44a3ea9b84971b202980cfbf000000006a473044022071fe340c9dd12033de577cfd780ee112570a946507ebaefcd4128a9ebfcc6a0002201f863950d32334b0bd9272ecfabacef76f5a35200d7513cc3978399cc1bcb2680121029038661509dc652eb6e45ba2b1992c0797291202b7d0d31cf5c0544a414f0889ffffffff02096a6c00000000001976a9147e0eb1d847ac78074227fdb953f806221401124a88ac00e1f505000000001976a914c1dace83f0e94af3f8c0e0bc7bc889442ae77de988ac00000000", "vin": [{"sequence": 4294967295, "scriptSig": {"hex": "47304402202cd12406b2d4a23f6bb7a4fd826786ca0eba9b026f0cf502c06d95073cf9187002201ed669c461e61356672b36b481dd9d9d6aec3c4f8d70d114dab6a64214f3a81d012103266406405aa967643285f2e1bbc1425c3944e6b70747ffce2d8acf2efacf784e", "asm": "304402202cd12406b2d4a23f6bb7a4fd826786ca0eba9b026f0cf502c06d95073cf9187002201ed669c461e61356672b36b481dd9d9d6aec3c4f8d70d114dab6a64214f3a81d[ALL] 03266406405aa967643285f2e1bbc1425c3944e6b70747ffce2d8acf2efacf784e"}, "vout": 0, "txid": "161bb84e62cfe906715d0a13b789d3bc8a40319599eea6197aadf37ffca8e479"}, {"sequence": 4294967295, "scriptSig": {"hex": "483045022100b83664d4d4783915bc6373dfb664462f2d8ea5d43819b1beb7bf35236f808f3102201724c26c29bb797656dfda21097d79c8795948aa032d189a6d2a8636eed1cc2301210396dc6f60b9173ce8f5e451d3a03713ec44ea8608ab6c82074fe3e9feb9713821", "asm": "3045022100b83664d4d4783915bc6373dfb664462f2d8ea5d43819b1beb7bf35236f808f3102201724c26c29bb797656dfda21097d79c8795948aa032d189a6d2a8636eed1cc23[ALL] 0396dc6f60b9173ce8f5e451d3a03713ec44ea8608ab6c82074fe3e9feb9713821"}, "vout": 0, "txid": "266e031d0e91fe31304172167f1e4cf74b2a0ac1b05cd03f993da3dd38018ff3"}, {"sequence": 4294967295, "scriptSig": {"hex": "483045022100fc039ebbbc872e248a5aa8b6078c040cf5f6f2c8390412577708a78be474dab5022046162dd10a4a978b7fa2f9e911dcdf3633ebd2851e61388983ea0d261024cca2012102ebbac6c95aebf24dd9cc83424a5b0be67903e23e76b3451a097e9e1d52605f06", "asm": "3045022100fc039ebbbc872e248a5aa8b6078c040cf5f6f2c8390412577708a78be474dab5022046162dd10a4a978b7fa2f9e911dcdf3633ebd2851e61388983ea0d261024cca2[ALL] 02ebbac6c95aebf24dd9cc83424a5b0be67903e23e76b3451a097e9e1d52605f06"}, "vout": 0, "txid": "45ea7debfbf39620dfcc87fb0af811dbd337e2e26202c90228e95ee6a067692d"}, {"sequence": 4294967295, "scriptSig": {"hex": "473044022066b69577405e23649ed2b8d10df9f5e2f5f4f44b44fffc2ea3cbc51cca452783022034c21e48ebff972ef5581bf6c0efc292b7c7b72df9092ceb6060955a0d3ffae10121024eb810091923dd3fe0b3a54691a4b3a596fff4044d1b924be879f707075858b2", "asm": "3044022066b69577405e23649ed2b8d10df9f5e2f5f4f44b44fffc2ea3cbc51cca452783022034c21e48ebff972ef5581bf6c0efc292b7c7b72df9092ceb6060955a0d3ffae1[ALL] 024eb810091923dd3fe0b3a54691a4b3a596fff4044d1b924be879f707075858b2"}, "vout": 0, "txid": "52cadcbdd372cb828eec115bce5da3ac79aff3227c3e32983703fd20cf0b15df"}, {"sequence": 4294967295, "scriptSig": {"hex": "473044022071fe340c9dd12033de577cfd780ee112570a946507ebaefcd4128a9ebfcc6a0002201f863950d32334b0bd9272ecfabacef76f5a35200d7513cc3978399cc1bcb2680121029038661509dc652eb6e45ba2b1992c0797291202b7d0d31cf5c0544a414f0889", "asm": "3044022071fe340c9dd12033de577cfd780ee112570a946507ebaefcd4128a9ebfcc6a0002201f863950d32334b0bd9272ecfabacef76f5a35200d7513cc3978399cc1bcb268[ALL] 029038661509dc652eb6e45ba2b1992c0797291202b7d0d31cf5c0544a414f0889"}, "vout": 0, "txid": "bfcf8029201b97849beaa344acdf93b25835b112c32dce540f2e7e9077dd0c5d"}], "txid": "2a20971147e7d3c123520999e79cabed4a44753da9392aa8efbdf4752596a7bd", "blocktime": 1537871767, "version": 1, "confirmations": 11495, "time": 1537871767, "locktime": 0, "vsize": 815, "size": 815}