{"hash": "aa242e863e8c2dd2d0c5d76305b60c845102003f4b63192077b05d7e14b726ec", "blockhash": "0000000000000000001f76057863aec43deb6fa401d9628bb513d65a8098bfab", "vout": [{"scriptPubKey": {"reqSigs": 1, "hex": "a914040f773288a0aa76864dd3666204875bab47238587", "addresses": ["324V9t3NfHbDgSaUzc8TEBLy9Ju4UaMnna"], "asm": "OP_HASH160 040f773288a0aa76864dd3666204875bab472385 OP_EQUAL", "type": "scripthash"}, "value": 0.0103013, "n": 0}, {"scriptPubKey": {"reqSigs": 1, "hex": "a9143ea12f02f7e3eb94b4c81bc90d69e952657dfcd087", "addresses": ["37QAufycCK64vDjY9Jx2Qh7v1dokPVKytK"], "asm": "OP_HASH160 3ea12f02f7e3eb94b4c81bc90d69e952657dfcd0 OP_EQUAL", "type": "scripthash"}, "value": 0.00547521, "n": 1}], "hex": "0200000000010285d273bd9ec5b3ea957e803ce5dc449787d4843873c24680478b512d1e2005a70100000017160014f0b949556cab6fb30e7f17b511d1c90a6c9906cbfeffffffed24bf93b3a1fa87bd0a915faf7bd6d898c4cd9634f8c96ab41bf327cc33f0f6560100001716001468438394a86e5f937dc38a340bc66b17c31a6d37feffffff02f2b70f000000000017a914040f773288a0aa76864dd3666204875bab47238587c15a08000000000017a9143ea12f02f7e3eb94b4c81bc90d69e952657dfcd0870247304402201a021e981a5fb7ef52862480acf3ba694b9f11d9178cd088d7b208b95d562e5d022026adca4f5b59248149e1df0973360849bc020b02cffaba3ecb9cc1ec025c2a2e012102914005b6b6d536297d351d823f982a20f345ead7f54336e0a8734d7c71551fd002483045022100d578a2a254040047e67d05c9b774d66910a92cc034b723527667125c5979775202207774364a3ce48c84eb890edcb592fa703a40733658a5e4edec432f9ae71ea90e012102cef6d8d0efb7229e06ab12fc2140f72f5923f482b9978582b6bc73a1b68d851714490800", "vin": [{"txinwitness": ["304402201a021e981a5fb7ef52862480acf3ba694b9f11d9178cd088d7b208b95d562e5d022026adca4f5b59248149e1df0973360849bc020b02cffaba3ecb9cc1ec025c2a2e01", "02914005b6b6d536297d351d823f982a20f345ead7f54336e0a8734d7c71551fd0"], "sequence": 4294967294, "scriptSig": {"hex": "160014f0b949556cab6fb30e7f17b511d1c90a6c9906cb", "asm": "0014f0b949556cab6fb30e7f17b511d1c90a6c9906cb"}, "vout": 1, "txid": "a705201e2d518b478046c2733884d4879744dce53c807e95eab3c59ebd73d285"}, {"txinwitness": ["3045022100d578a2a254040047e67d05c9b774d66910a92cc034b723527667125c5979775202207774364a3ce48c84eb890edcb592fa703a40733658a5e4edec432f9ae71ea90e01", "02cef6d8d0efb7229e06ab12fc2140f72f5923f482b9978582b6bc73a1b68d8517"], "sequence": 4294967294, "scriptSig": {"hex": "16001468438394a86e5f937dc38a340bc66b17c31a6d37", "asm": "001468438394a86e5f937dc38a340bc66b17c31a6d37"}, "vout": 342, "txid": "f6f033cc27f31bb46ac9f83496cdc498d8d67baf5f910abd87faa1b393bf24ed"}], "txid": "2a2278e6eeef315051c2a34826536a915c15ab70f70c0b4922c157a10acfcbd8", "blocktime": 1537873891, "version": 2, "confirmations": 11479, "time": 1537873891, "locktime": 542996, "vsize": 257, "size": 419}