{"hash": "020fd6d0f43954feb0847d3874b1a2d2d94c65984b27aeda9f1626490c2e4e04", "blockhash": "0000000000000000000dcc0f55137456b1a82d3642486a52398922ac4d620174", "vout": [{"scriptPubKey": {"reqSigs": 1, "hex": "0014397def7872136fdda1e0f7fffcbe42b9493659e0", "addresses": ["bc1q897777rjzdhamg0q7llle0jzh9ynvk0qcz2gcs"], "asm": "0 397def7872136fdda1e0f7fffcbe42b9493659e0", "type": "witness_v0_keyhash"}, "value": 0.00010295, "n": 0}, {"scriptPubKey": {"reqSigs": 1, "hex": "76a914405496265f3a9689970406e6b0295d48134c140d88ac", "addresses": ["16s9aTCrUyim6iNhsijkE468yACP8SGEM7"], "asm": "OP_DUP OP_HASH160 405496265f3a9689970406e6b0295d48134c140d OP_EQUALVERIFY OP_CHECKSIG", "type": "pubkeyhash"}, "value": 0.00374, "n": 1}], "hex": "01000000000101af813aaf7e1df5eade0e332361a36ea767d4041536c79b78beb3a8de228a13b70000000000ffffffff023728000000000000160014397def7872136fdda1e0f7fffcbe42b9493659e0f0b40500000000001976a914405496265f3a9689970406e6b0295d48134c140d88ac0248304502210081bb6cab7e4e1260d4434d456e24836a49f54116c4bce32665505c4e86cfc496022011268ddb3238cad0ec43cd3a3fb444e9d53129d3a60ba74f3bd84e39241c49e1012103eea7c9ce4f7ba3a521eb32d062c73dc1aed8f2a25bca46a34997b1fbf2d3d32e00000000", "vin": [{"txinwitness": ["304502210081bb6cab7e4e1260d4434d456e24836a49f54116c4bce32665505c4e86cfc496022011268ddb3238cad0ec43cd3a3fb444e9d53129d3a60ba74f3bd84e39241c49e101", "03eea7c9ce4f7ba3a521eb32d062c73dc1aed8f2a25bca46a34997b1fbf2d3d32e"], "sequence": 4294967295, "scriptSig": {"hex": "", "asm": ""}, "vout": 0, "txid": "b7138a22dea8b3be789bc7361504d467a76ea36123330edeeaf51d7eaf3a81af"}], "txid": "2a25119bc25a3b21ca2f251605ad5a7aeb92ffb556b9880258e2aeab85f330a7", "blocktime": 1537870268, "version": 1, "confirmations": 11518, "time": 1537870268, "locktime": 0, "vsize": 144, "size": 226}