{"hash": "2a266187450d4260d61355a99ccf2577f5d735bb5edb5b14df49c75f45417fc7", "blockhash": "0000000000000000001cda96e906b7601b7a6fb1a3b62bca570a9e5d8f4b3de1", "vout": [{"scriptPubKey": {"reqSigs": 1, "hex": "76a914a5158f9b5a0343ec06c82833ce8f69bdeeb6e47888ac", "addresses": ["1G3tKjaSDPrJU3cGcVF7D7eJEYU8BdKN6f"], "asm": "OP_DUP OP_HASH160 a5158f9b5a0343ec06c82833ce8f69bdeeb6e478 OP_EQUALVERIFY OP_CHECKSIG", "type": "pubkeyhash"}, "value": 0.00169427, "n": 0}], "hex": "0100000001733222ec438422c347b56d15885c28c8e1b08a38f723241ff7c83bb79f27e7e6000000006a47304402206998aabb91157024ff336e6debbb236b4b768e1076c842b82257fc151b349c13022010ffc3e612225facda9f95e9d463cc53f7ace34de31974e9abc820ef33d89f2d012103c5d6b38076ed44bea3d7da2ab4d15e01922e8dd220f8df6ab5f499a2defafad0ffffffff01d3950200000000001976a914a5158f9b5a0343ec06c82833ce8f69bdeeb6e47888ac00000000", "vin": [{"sequence": 4294967295, "scriptSig": {"hex": "47304402206998aabb91157024ff336e6debbb236b4b768e1076c842b82257fc151b349c13022010ffc3e612225facda9f95e9d463cc53f7ace34de31974e9abc820ef33d89f2d012103c5d6b38076ed44bea3d7da2ab4d15e01922e8dd220f8df6ab5f499a2defafad0", "asm": "304402206998aabb91157024ff336e6debbb236b4b768e1076c842b82257fc151b349c13022010ffc3e612225facda9f95e9d463cc53f7ace34de31974e9abc820ef33d89f2d[ALL] 03c5d6b38076ed44bea3d7da2ab4d15e01922e8dd220f8df6ab5f499a2defafad0"}, "vout": 0, "txid": "e6e7279fb73bc8f71f2423f7388ab0e1c8285c88156db547c3228443ec223273"}], "txid": "2a266187450d4260d61355a99ccf2577f5d735bb5edb5b14df49c75f45417fc7", "blocktime": 1537873282, "version": 1, "confirmations": 11485, "time": 1537873282, "locktime": 0, "vsize": 191, "size": 191}