{"hash": "3b72c28781f647c4d85342019e95901cbc95f6a0abc0297a0c260c02bc725884", "blockhash": "0000000000000000001cda96e906b7601b7a6fb1a3b62bca570a9e5d8f4b3de1", "vout": [{"scriptPubKey": {"reqSigs": 1, "hex": "76a9149d01fdf4ec28e2eb708e20971fae913faf9b989388ac", "addresses": ["1FKBUXTvjg5D5a2aRXaQ9TUv2ZXh3ruNSz"], "asm": "OP_DUP OP_HASH160 9d01fdf4ec28e2eb708e20971fae913faf9b9893 OP_EQUALVERIFY OP_CHECKSIG", "type": "pubkeyhash"}, "value": 0.1035, "n": 0}, {"scriptPubKey": {"reqSigs": 1, "hex": "76a9142119735db4b46f310a9629f51def39e9b2f3e00e88ac", "addresses": ["1421ng1BkMi4SY9uoRsJXujFs1BMnfTLsU"], "asm": "OP_DUP OP_HASH160 2119735db4b46f310a9629f51def39e9b2f3e00e OP_EQUALVERIFY OP_CHECKSIG", "type": "pubkeyhash"}, "value": 0.02025325, "n": 1}, {"scriptPubKey": {"reqSigs": 1, "hex": "a914f971f119279101bdc48976032e9ce560b0c66ab587", "addresses": ["3QRxg892s55duTY1p1Lv1sGNhc3Wp1xjRT"], "asm": "OP_HASH160 f971f119279101bdc48976032e9ce560b0c66ab5 OP_EQUAL", "type": "scripthash"}, "value": 0.43417527, "n": 2}], "hex": "0200000000010110c22e97b2be4155b11463fc51ea060939fe03e954bcfd4fbcecf4a01802c05702000000171600143b18a642a78fd63552071122e53de0df7b22d504feffffff03b0ed9d00000000001976a9149d01fdf4ec28e2eb708e20971fae913faf9b989388ac6de71e00000000001976a9142119735db4b46f310a9629f51def39e9b2f3e00e88acb77f96020000000017a914f971f119279101bdc48976032e9ce560b0c66ab58702483045022100e1602b133cd86509e3e3f9e7b0eae867d1dc33e9662cba40a3e37bc04dce9ad202206533eba1f4874a018968f8d3533cc0bdbec786f27b490e90288e062b1dd6186e012102a9e018dd92981cbd472a2a59fc44ab22a379bc19569327be11547a9bbe24644913490800", "vin": [{"txinwitness": ["3045022100e1602b133cd86509e3e3f9e7b0eae867d1dc33e9662cba40a3e37bc04dce9ad202206533eba1f4874a018968f8d3533cc0bdbec786f27b490e90288e062b1dd6186e01", "02a9e018dd92981cbd472a2a59fc44ab22a379bc19569327be11547a9bbe246449"], "sequence": 4294967294, "scriptSig": {"hex": "1600143b18a642a78fd63552071122e53de0df7b22d504", "asm": "00143b18a642a78fd63552071122e53de0df7b22d504"}, "vout": 2, "txid": "57c00218a0f4ecbc4ffdbc54e903fe390906ea51fc6314b15541beb2972ec210"}], "txid": "2a260f4438204133e478f3da1de2ec3710489313b84876fdaecfedc85b1c2c7e", "blocktime": 1537873282, "version": 2, "confirmations": 11481, "time": 1537873282, "locktime": 542995, "vsize": 202, "size": 284}