{"hash": "fcc78d622e6fd88b86565614dd18d6dce2af31277083cf3380d7d8722018ef6d", "blockhash": "00000000000000000024a2167bbff67b0be802c0b01cdd79e6331c2be6459f87", "vout": [{"scriptPubKey": {"reqSigs": 1, "hex": "a914aa94f66c0474b4b0751bc8be1e0bdfa7271464f587", "addresses": ["3HEyFFrEHkZkWv7SAyYWN9JsRZsd8VsXgG"], "asm": "OP_HASH160 aa94f66c0474b4b0751bc8be1e0bdfa7271464f5 OP_EQUAL", "type": "scripthash"}, "value": 0.00140328, "n": 0}, {"scriptPubKey": {"reqSigs": 1, "hex": "76a914365843d8b3da2149a3b55d07a7f225486f79ed5588ac", "addresses": ["15xME7ykqSVgWQ43FKoficK98ktyHsTbdn"], "asm": "OP_DUP OP_HASH160 365843d8b3da2149a3b55d07a7f225486f79ed55 OP_EQUALVERIFY OP_CHECKSIG", "type": "pubkeyhash"}, "value": 0.00025, "n": 1}], "hex": "02000000000101534ffb792e8ef4f8fbfdbc44c276db33dec82dc99b23f5d8fb847b82d7430c9a00000000171600141d8bce6a5b0062594778b49266f02a70b346bacdfdffffff02282402000000000017a914aa94f66c0474b4b0751bc8be1e0bdfa7271464f587a8610000000000001976a914365843d8b3da2149a3b55d07a7f225486f79ed5588ac02483045022100acd343fda66605ef6d1ce0312a4943f4c89992a7555a237fc773cc7672a80f4502203a9965f19bde4afe589b73e5847da4ade69d829cb253045f4aae696e5f319bf8012103a0ac76710a726cf60c435524dc2f67723b44cd8b0e1d78ffd96bd1c5a16a40450d490800", "vin": [{"txinwitness": ["3045022100acd343fda66605ef6d1ce0312a4943f4c89992a7555a237fc773cc7672a80f4502203a9965f19bde4afe589b73e5847da4ade69d829cb253045f4aae696e5f319bf801", "03a0ac76710a726cf60c435524dc2f67723b44cd8b0e1d78ffd96bd1c5a16a4045"], "sequence": 4294967293, "scriptSig": {"hex": "1600141d8bce6a5b0062594778b49266f02a70b346bacd", "asm": "00141d8bce6a5b0062594778b49266f02a70b346bacd"}, "vout": 0, "txid": "9a0c43d7827b84fbd8f5239bc92dc8de33db76c244bcfdfbf8f48e2e79fb4f53"}], "txid": "2a2c42d04811b9bf4af2be37947e30869d33f08fdc22629652e9e031aab8b894", "blocktime": 1537870564, "version": 2, "confirmations": 11515, "time": 1537870564, "locktime": 542989, "vsize": 168, "size": 250}