{"hash": "2a2d42caf5b5f3d3ec92a980dd48e047163bcb8be862e1cf15dea4dbe7c909cb", "blockhash": "0000000000000000000e13cef7c366c0283d82e591d1acd082e914b08063cdf1", "vout": [{"scriptPubKey": {"reqSigs": 1, "hex": "a914463ec72a542701a80af8436fb51925ab0cc9a28187", "addresses": ["386SRs1dPDb2xEeYiYLbx1VQURxA9BEW6P"], "asm": "OP_HASH160 463ec72a542701a80af8436fb51925ab0cc9a281 OP_EQUAL", "type": "scripthash"}, "value": 0.009381, "n": 0}, {"scriptPubKey": {"reqSigs": 1, "hex": "76a9140b63d53c33575905e220708e58d700a0b9b94c9688ac", "addresses": ["123E2dFpTa7DcXL1SR32G3R7iikieH5Mxw"], "asm": "OP_DUP OP_HASH160 0b63d53c33575905e220708e58d700a0b9b94c96 OP_EQUALVERIFY OP_CHECKSIG", "type": "pubkeyhash"}, "value": 0.01331642, "n": 1}], "hex": "0100000001831f923d2a55c48c33762644f7bdc46f09554bb39a160323d2676485e4e333bd000000006b483045022100afc95604da15dc3fca180faafcebec58252fca4c83245e4f428943cffedb2fc702206d1800f87d4a804cf25839ca0c9de72ea438a1ce5296479dc64413268bfb9933012103d995686ae74445cadcc6fd48b738e9a83376d12fd71aa753c22d3c14aeb03a1bffffffff0274500e000000000017a914463ec72a542701a80af8436fb51925ab0cc9a28187ba511400000000001976a9140b63d53c33575905e220708e58d700a0b9b94c9688ac00000000", "vin": [{"sequence": 4294967295, "scriptSig": {"hex": "483045022100afc95604da15dc3fca180faafcebec58252fca4c83245e4f428943cffedb2fc702206d1800f87d4a804cf25839ca0c9de72ea438a1ce5296479dc64413268bfb9933012103d995686ae74445cadcc6fd48b738e9a83376d12fd71aa753c22d3c14aeb03a1b", "asm": "3045022100afc95604da15dc3fca180faafcebec58252fca4c83245e4f428943cffedb2fc702206d1800f87d4a804cf25839ca0c9de72ea438a1ce5296479dc64413268bfb9933[ALL] 03d995686ae74445cadcc6fd48b738e9a83376d12fd71aa753c22d3c14aeb03a1b"}, "vout": 0, "txid": "bd33e3e4856467d22303169ab34b55096fc4bdf7442676338cc4552a3d921f83"}], "txid": "2a2d42caf5b5f3d3ec92a980dd48e047163bcb8be862e1cf15dea4dbe7c909cb", "blocktime": 1537871767, "version": 1, "confirmations": 11495, "time": 1537871767, "locktime": 0, "vsize": 224, "size": 224}