{"hash": "2a2f8b721df36a72675548b3494cb9ff67f13c197a9a051daec3572956c0be70", "blockhash": "0000000000000000001f0ddff1eddb255c1121bcd4da4f1bc9a0da00cae72433", "vout": [{"scriptPubKey": {"reqSigs": 1, "hex": "76a9140fa981843923d107acf2b13400e01ef4cc26d70988ac", "addresses": ["12RpCMcxTP7iEoLP4tjDPeoFM1yruc7qZV"], "asm": "OP_DUP OP_HASH160 0fa981843923d107acf2b13400e01ef4cc26d709 OP_EQUALVERIFY OP_CHECKSIG", "type": "pubkeyhash"}, "value": 0.176991, "n": 0}, {"scriptPubKey": {"reqSigs": 1, "hex": "a914cf66d6097af8dff78f130306a6d3fd0eed78fc3887", "addresses": ["3LbezRq5feDDtbnLuJNRLgsWJp2C4ysSaX"], "asm": "OP_HASH160 cf66d6097af8dff78f130306a6d3fd0eed78fc38 OP_EQUAL", "type": "scripthash"}, "value": 0.17152694, "n": 1}], "hex": "010000000101e88ec7b73bbed80a766ce7f6db260958278b3d72dc730887f60305bc036a0701000000da0047304402204768c54e8721196c58449207e2bb00655aeedae468f295d11a5f3d755f794efd02204e46fc5853b285f34b721f11b107c9b07ed9748a40640aa7fb216726ad1538d801483045022100bee7974fccf9cef61f6189a6008753ed01099e950a9d6d3348a5d83da2f3404b02207774ba4c3d93cf937742ea344181048046da50d6b6174378bfcd79926005dbb001475221038a1751335d88288474033880ba81a14c5f7f536f7a4de0bbe1836301a9f5fde021029cfe8b16f24284e020d06aaa2566da776776e275665691857265930c813bfb8252aeffffffff021c110e01000000001976a9140fa981843923d107acf2b13400e01ef4cc26d70988acb6ba05010000000017a914cf66d6097af8dff78f130306a6d3fd0eed78fc388700000000", "vin": [{"sequence": 4294967295, "scriptSig": {"hex": "0047304402204768c54e8721196c58449207e2bb00655aeedae468f295d11a5f3d755f794efd02204e46fc5853b285f34b721f11b107c9b07ed9748a40640aa7fb216726ad1538d801483045022100bee7974fccf9cef61f6189a6008753ed01099e950a9d6d3348a5d83da2f3404b02207774ba4c3d93cf937742ea344181048046da50d6b6174378bfcd79926005dbb001475221038a1751335d88288474033880ba81a14c5f7f536f7a4de0bbe1836301a9f5fde021029cfe8b16f24284e020d06aaa2566da776776e275665691857265930c813bfb8252ae", "asm": "0 304402204768c54e8721196c58449207e2bb00655aeedae468f295d11a5f3d755f794efd02204e46fc5853b285f34b721f11b107c9b07ed9748a40640aa7fb216726ad1538d8[ALL] 3045022100bee7974fccf9cef61f6189a6008753ed01099e950a9d6d3348a5d83da2f3404b02207774ba4c3d93cf937742ea344181048046da50d6b6174378bfcd79926005dbb0[ALL] 5221038a1751335d88288474033880ba81a14c5f7f536f7a4de0bbe1836301a9f5fde021029cfe8b16f24284e020d06aaa2566da776776e275665691857265930c813bfb8252ae"}, "vout": 1, "txid": "076a03bc0503f6870873dc723d8b27580926dbf6e76c760ad8be3bb7c78ee801"}], "txid": "2a2f8b721df36a72675548b3494cb9ff67f13c197a9a051daec3572956c0be70", "blocktime": 1537872018, "version": 1, "confirmations": 11489, "time": 1537872018, "locktime": 0, "vsize": 335, "size": 335}