{"hash": "2a30b2119544a1ae4a38d85b712974b936ea3a9e2ef0f6b1fe75d5fc13c7f777", "blockhash": "0000000000000000000baef3f32e3676a92c3b2e5da21b426e4f302fc371ce76", "vout": [{"scriptPubKey": {"reqSigs": 1, "hex": "76a9148f8cc3864bf91b540091267841a0418dce7309f188ac", "addresses": ["1E62FsT3QaPRhoAFastxtA7ZtdGcqYMRUo"], "asm": "OP_DUP OP_HASH160 8f8cc3864bf91b540091267841a0418dce7309f1 OP_EQUALVERIFY OP_CHECKSIG", "type": "pubkeyhash"}, "value": 0.1068, "n": 0}, {"scriptPubKey": {"reqSigs": 1, "hex": "76a914c5b2b786896e684190ff05c25fbe737cc22c736888ac", "addresses": ["1K2LDFyo8m6rmmo9jwvVxuyscVm58mJNzW"], "asm": "OP_DUP OP_HASH160 c5b2b786896e684190ff05c25fbe737cc22c7368 OP_EQUALVERIFY OP_CHECKSIG", "type": "pubkeyhash"}, "value": 0.01168869, "n": 1}], "hex": "01000000035ef94adf37139e7a4c645d6cf3a442158669783d275b19d109c7650e3a607af7010000006a47304402200e7bf60ecb2754bb08975c6706b81c2dadfdbe384bf177cf52b6055aa1c27b43022065bdaa88110a72aae3244d5d3277701b99d7d0a56d3c785929f46069bbc1ec080121031968a471fce1bfb3143a67bc520c2a22a219fdc97d88a1e7e6918ef52c35d557feffffffdb40c3e1db4d357389b4248ce6e5ffc8668875df4a37c7869be12a3f231744b1010000006a4730440220317da77c19251c6e0d271e71d58911e4ed614d3492d56344d73bb15327ad90f702205cd507096abf00798a2f90df19018a0e3c922a07d29ae265d82d9152635a6681012102045b07d4ddf12517adad1ae5bdc697ae8d343544de4b469c6bcbdecb56940cf7feffffffed30b6c5229b5a01789a5b19e3a5a23efc0688007f7eb40f4efb6c7c80340532000000006b483045022100f57402ebdaab206720a54974cf97bdad7f96fb89e8b7579f4bb2fd11f82883db02201df291dbb1a5ffaa88e5e4af051c9f5a22657db5dd491561deb053e330280302012102c31d84faf2d377af59b18f2b295f1b84f8024d8aed5e8a4dc062c2811b474c77feffffff02c0f6a200000000001976a9148f8cc3864bf91b540091267841a0418dce7309f188ace5d51100000000001976a914c5b2b786896e684190ff05c25fbe737cc22c736888ac19480800", "vin": [{"sequence": 4294967294, "scriptSig": {"hex": "47304402200e7bf60ecb2754bb08975c6706b81c2dadfdbe384bf177cf52b6055aa1c27b43022065bdaa88110a72aae3244d5d3277701b99d7d0a56d3c785929f46069bbc1ec080121031968a471fce1bfb3143a67bc520c2a22a219fdc97d88a1e7e6918ef52c35d557", "asm": "304402200e7bf60ecb2754bb08975c6706b81c2dadfdbe384bf177cf52b6055aa1c27b43022065bdaa88110a72aae3244d5d3277701b99d7d0a56d3c785929f46069bbc1ec08[ALL] 031968a471fce1bfb3143a67bc520c2a22a219fdc97d88a1e7e6918ef52c35d557"}, "vout": 1, "txid": "f77a603a0e65c709d1195b273d7869861542a4f36c5d644c7a9e1337df4af95e"}, {"sequence": 4294967294, "scriptSig": {"hex": "4730440220317da77c19251c6e0d271e71d58911e4ed614d3492d56344d73bb15327ad90f702205cd507096abf00798a2f90df19018a0e3c922a07d29ae265d82d9152635a6681012102045b07d4ddf12517adad1ae5bdc697ae8d343544de4b469c6bcbdecb56940cf7", "asm": "30440220317da77c19251c6e0d271e71d58911e4ed614d3492d56344d73bb15327ad90f702205cd507096abf00798a2f90df19018a0e3c922a07d29ae265d82d9152635a6681[ALL] 02045b07d4ddf12517adad1ae5bdc697ae8d343544de4b469c6bcbdecb56940cf7"}, "vout": 1, "txid": "b14417233f2ae19b86c7374adf758866c8ffe5e68c24b48973354ddbe1c340db"}, {"sequence": 4294967294, "scriptSig": {"hex": "483045022100f57402ebdaab206720a54974cf97bdad7f96fb89e8b7579f4bb2fd11f82883db02201df291dbb1a5ffaa88e5e4af051c9f5a22657db5dd491561deb053e330280302012102c31d84faf2d377af59b18f2b295f1b84f8024d8aed5e8a4dc062c2811b474c77", "asm": "3045022100f57402ebdaab206720a54974cf97bdad7f96fb89e8b7579f4bb2fd11f82883db02201df291dbb1a5ffaa88e5e4af051c9f5a22657db5dd491561deb053e330280302[ALL] 02c31d84faf2d377af59b18f2b295f1b84f8024d8aed5e8a4dc062c2811b474c77"}, "vout": 0, "txid": "320534807c6cfb4e0fb47e7f008806fc3ea2a5e3195b9a78015a9b22c5b630ed"}], "txid": "2a30b2119544a1ae4a38d85b712974b936ea3a9e2ef0f6b1fe75d5fc13c7f777", "blocktime": 1537876114, "version": 1, "confirmations": 11459, "time": 1537876114, "locktime": 542745, "vsize": 520, "size": 520}