{"hash": "2a33fc36b1ef1d1c7ef3dcdca5200b74ede88ee6939bdded58b0adb8f8afb0f8", "blockhash": "0000000000000000001f76057863aec43deb6fa401d9628bb513d65a8098bfab", "vout": [{"scriptPubKey": {"reqSigs": 1, "hex": "76a914ec5441683af86aff8b761adeb1568ef491bb6a8388ac", "addresses": ["1NYbQSu6Bvb7DYFMTSUSiiY4Ge3tTg7syA"], "asm": "OP_DUP OP_HASH160 ec5441683af86aff8b761adeb1568ef491bb6a83 OP_EQUALVERIFY OP_CHECKSIG", "type": "pubkeyhash"}, "value": 0.0026259, "n": 0}, {"scriptPubKey": {"reqSigs": 1, "hex": "76a9141f57479d6969faaaff22132156110904e8bda5fa88ac", "addresses": ["13riWFVHFr8ojXtyu6LkSF7NyysaTHxRzu"], "asm": "OP_DUP OP_HASH160 1f57479d6969faaaff22132156110904e8bda5fa OP_EQUALVERIFY OP_CHECKSIG", "type": "pubkeyhash"}, "value": 0.02513532, "n": 1}], "hex": "010000000192faeba5dd9d75725c92f37892f2dc108d290c900f6d0dd16fe610db573d7036000000006a473044022078e0036050224743343b5f3d3a35647ab966050feb5cdc9e99d25a8507c57d9102207e9e5865eadccf7c745aa97714f93a87e6bf7906aacc63fe5b2cf5ba3e7d81db012103979375a912d1206028ba5e82566ae6d75b43e4f9c096151ee4e39b557581cd10ffffffff02be010400000000001976a914ec5441683af86aff8b761adeb1568ef491bb6a8388ac7c5a2600000000001976a9141f57479d6969faaaff22132156110904e8bda5fa88ac00000000", "vin": [{"sequence": 4294967295, "scriptSig": {"hex": "473044022078e0036050224743343b5f3d3a35647ab966050feb5cdc9e99d25a8507c57d9102207e9e5865eadccf7c745aa97714f93a87e6bf7906aacc63fe5b2cf5ba3e7d81db012103979375a912d1206028ba5e82566ae6d75b43e4f9c096151ee4e39b557581cd10", "asm": "3044022078e0036050224743343b5f3d3a35647ab966050feb5cdc9e99d25a8507c57d9102207e9e5865eadccf7c745aa97714f93a87e6bf7906aacc63fe5b2cf5ba3e7d81db[ALL] 03979375a912d1206028ba5e82566ae6d75b43e4f9c096151ee4e39b557581cd10"}, "vout": 0, "txid": "36703d57db10e66fd10d6d0f900c298d10dcf29278f3925c72759ddda5ebfa92"}], "txid": "2a33fc36b1ef1d1c7ef3dcdca5200b74ede88ee6939bdded58b0adb8f8afb0f8", "blocktime": 1537873891, "version": 1, "confirmations": 11478, "time": 1537873891, "locktime": 0, "vsize": 225, "size": 225}