{"hash": "e76e1d0cd8b419c03d5037e2480a312b59f4d11b81182bc4a1ca65391fe8c75d", "blockhash": "0000000000000000001cda96e906b7601b7a6fb1a3b62bca570a9e5d8f4b3de1", "vout": [{"scriptPubKey": {"reqSigs": 1, "hex": "a914d352987668c929cd6733cd5ec9168d36ffb5cf8187", "addresses": ["3LxPSrpqt1xcPNfbqd18MCwWqxB5Aa9gAA"], "asm": "OP_HASH160 d352987668c929cd6733cd5ec9168d36ffb5cf81 OP_EQUAL", "type": "scripthash"}, "value": 0.00097035, "n": 0}], "hex": "0100000000010165e5852ce2e9f15bac44bb425f9aa18268d5b181d75311677fd0c2f47e3bca8200000000171600146f87145a6670e8c4a0273b0faf832b35b37cf9b9ffffffff010b7b01000000000017a914d352987668c929cd6733cd5ec9168d36ffb5cf81870248304502210095bc28a9097b8884b6fb9cee38f1eb3e3796f9a17524f7bfa6b3fc862e495f820220631e2e79f3f41c955600a2ced87602c460fc5d7681aafff55eb99d9fc71d395c012103b7af09942cf923c514e2e160644089ef7c6fc6adb34bede3625e7c1ee419cafd00000000", "vin": [{"txinwitness": ["304502210095bc28a9097b8884b6fb9cee38f1eb3e3796f9a17524f7bfa6b3fc862e495f820220631e2e79f3f41c955600a2ced87602c460fc5d7681aafff55eb99d9fc71d395c01", "03b7af09942cf923c514e2e160644089ef7c6fc6adb34bede3625e7c1ee419cafd"], "sequence": 4294967295, "scriptSig": {"hex": "1600146f87145a6670e8c4a0273b0faf832b35b37cf9b9", "asm": "00146f87145a6670e8c4a0273b0faf832b35b37cf9b9"}, "vout": 0, "txid": "82ca3b7ef4c2d07f671153d781b1d56882a19a5f42bb44ac5bf1e9e22c85e565"}], "txid": "2a42466b532a7c74991145939d751b99efa4cce1bb1f05bdcc06ae7d76700fc8", "blocktime": 1537873282, "version": 1, "confirmations": 11485, "time": 1537873282, "locktime": 0, "vsize": 134, "size": 216}