{"hash": "2a448f80117bef6112afec2ea74f1aa8ee5ad265e6d27890e45ac2419223c5d0", "blockhash": "0000000000000000001cda96e906b7601b7a6fb1a3b62bca570a9e5d8f4b3de1", "vout": [{"scriptPubKey": {"reqSigs": 1, "hex": "76a9146568dca1f482e6e08aa460caae2996906cb381cf88ac", "addresses": ["1AFCsJcacLCWSEUeowzCkPzyU26bq6RMLU"], "asm": "OP_DUP OP_HASH160 6568dca1f482e6e08aa460caae2996906cb381cf OP_EQUALVERIFY OP_CHECKSIG", "type": "pubkeyhash"}, "value": 0.015612, "n": 0}, {"scriptPubKey": {"reqSigs": 1, "hex": "76a914ae474f131312668165f2f59d8df28c6ad098648788ac", "addresses": ["1GtW11PSL4BAiepro2g1BMPiHtK2Xn7EWr"], "asm": "OP_DUP OP_HASH160 ae474f131312668165f2f59d8df28c6ad0986487 OP_EQUALVERIFY OP_CHECKSIG", "type": "pubkeyhash"}, "value": 0.01626347, "n": 1}], "hex": "0100000001d1b5cad1f5d42f745c7c3365fae6c7236dd19d6bed1c863aad75165dfad11cf30e0000006b483045022100cb31623378d161443803d81bc61dc0ea83442c3290023f2e4d0e979bd40988dd0220255532f5d1bfcfb78da28c1fc4cce2db3e8394a22c1cc3508fc7ff49fe5f24ca01210226f353bdb7fb3e6ee52530d2cdf20068d6e598188d5897f22557aad14d3f4946ffffffff0270d21700000000001976a9146568dca1f482e6e08aa460caae2996906cb381cf88acebd01800000000001976a914ae474f131312668165f2f59d8df28c6ad098648788ac00000000", "vin": [{"sequence": 4294967295, "scriptSig": {"hex": "483045022100cb31623378d161443803d81bc61dc0ea83442c3290023f2e4d0e979bd40988dd0220255532f5d1bfcfb78da28c1fc4cce2db3e8394a22c1cc3508fc7ff49fe5f24ca01210226f353bdb7fb3e6ee52530d2cdf20068d6e598188d5897f22557aad14d3f4946", "asm": "3045022100cb31623378d161443803d81bc61dc0ea83442c3290023f2e4d0e979bd40988dd0220255532f5d1bfcfb78da28c1fc4cce2db3e8394a22c1cc3508fc7ff49fe5f24ca[ALL] 0226f353bdb7fb3e6ee52530d2cdf20068d6e598188d5897f22557aad14d3f4946"}, "vout": 14, "txid": "f31cd1fa5d1675ad3a861ced6b9dd16d23c7e6fa65337c5c742fd4f5d1cab5d1"}], "txid": "2a448f80117bef6112afec2ea74f1aa8ee5ad265e6d27890e45ac2419223c5d0", "blocktime": 1537873282, "version": 1, "confirmations": 11482, "time": 1537873282, "locktime": 0, "vsize": 226, "size": 226}