{"hash": "2a460a25a58e26484af15919164ec4db9ba70ec91054af391ba34825e156264e", "blockhash": "0000000000000000001cda96e906b7601b7a6fb1a3b62bca570a9e5d8f4b3de1", "vout": [{"scriptPubKey": {"reqSigs": 1, "hex": "76a9143029e595a3bd5b32eab38f460157b4c420b9d1c488ac", "addresses": ["15PfdFUZBSjyZWbMd1V1vk4bWs2zPRbDtL"], "asm": "OP_DUP OP_HASH160 3029e595a3bd5b32eab38f460157b4c420b9d1c4 OP_EQUALVERIFY OP_CHECKSIG", "type": "pubkeyhash"}, "value": 0.02657698, "n": 0}, {"scriptPubKey": {"reqSigs": 1, "hex": "76a914112e82a69ed82599168dacc25e33fe030476e81788ac", "addresses": ["12ZrCrij5j9QPLARTJ5RMoihrzomfANKrj"], "asm": "OP_DUP OP_HASH160 112e82a69ed82599168dacc25e33fe030476e817 OP_EQUALVERIFY OP_CHECKSIG", "type": "pubkeyhash"}, "value": 0.00040242, "n": 1}], "hex": "0100000001ec958c0eadbc2027c511a337a4cb07b83bac90295d5351ec1ff29f91e99cc9d2160000006a47304402201130b333bf802d0b1bde617d32bb45e2700c2bb56d3b56b821f08b32228ac5e00220624f9472b31926e3f1a4476f6643261a2b1ef0edef09448b89288bc005d9179b0121025fd1d866ebbcb7efdd1c34a306086e5972e54a8baf0ff4e59193ac996247a546ffffffff02a28d2800000000001976a9143029e595a3bd5b32eab38f460157b4c420b9d1c488ac329d0000000000001976a914112e82a69ed82599168dacc25e33fe030476e81788ac00000000", "vin": [{"sequence": 4294967295, "scriptSig": {"hex": "47304402201130b333bf802d0b1bde617d32bb45e2700c2bb56d3b56b821f08b32228ac5e00220624f9472b31926e3f1a4476f6643261a2b1ef0edef09448b89288bc005d9179b0121025fd1d866ebbcb7efdd1c34a306086e5972e54a8baf0ff4e59193ac996247a546", "asm": "304402201130b333bf802d0b1bde617d32bb45e2700c2bb56d3b56b821f08b32228ac5e00220624f9472b31926e3f1a4476f6643261a2b1ef0edef09448b89288bc005d9179b[ALL] 025fd1d866ebbcb7efdd1c34a306086e5972e54a8baf0ff4e59193ac996247a546"}, "vout": 22, "txid": "d2c99ce9919ff21fec51535d2990ac3bb807cba437a311c52720bcad0e8c95ec"}], "txid": "2a460a25a58e26484af15919164ec4db9ba70ec91054af391ba34825e156264e", "blocktime": 1537873282, "version": 1, "confirmations": 11481, "time": 1537873282, "locktime": 0, "vsize": 225, "size": 225}