{"hash": "a357eec164ef5d75e9d70e23a0bad25086f9f081b85de1bf2a78ad02f08c7ac8", "blockhash": "0000000000000000000baef3f32e3676a92c3b2e5da21b426e4f302fc371ce76", "vout": [{"scriptPubKey": {"reqSigs": 1, "hex": "76a91460003348781ae109a8b69139b3f99be69012e79c88ac", "addresses": ["19kc7LQJb822sUtsABcZd7HtBVjFqn9cSp"], "asm": "OP_DUP OP_HASH160 60003348781ae109a8b69139b3f99be69012e79c OP_EQUALVERIFY OP_CHECKSIG", "type": "pubkeyhash"}, "value": 0.06248124, "n": 0}, {"scriptPubKey": {"reqSigs": 1, "hex": "a914409bcc789a11a15b5eb8c61882f9c4609cbb76ef87", "addresses": ["37adouU4NxeK9KwGX2WuptKJScgrdsaEgy"], "asm": "OP_HASH160 409bcc789a11a15b5eb8c61882f9c4609cbb76ef OP_EQUAL", "type": "scripthash"}, "value": 0.00192451, "n": 1}], "hex": "0200000000010457fc6b94fa1f3cd3067db00fbd666fa80c340bae941a0295ca1e6d745040b9d2010000006b483045022100b298f44ed05329e443e9059dd95d10805e7a02e884f642d002a7c0475ca11de1022061120c1e886ad876d3099e51f95e778417b4f88fdef3756df7a6aec180957732012103d8df50fe1807cd3dbd3d0abe3478790464c69d5506217c9b8523de35b4bedd37ffffffff87eb84541f0cb0d75ffc15bd1c644976dab46856f74ddb568494c6baee3b1605010000001716001479d24f7d39edcf51b2937fd1e5e80cc48da875d3fffffffff2045c28c1f00363192df181a1807d75e8aa54794b19695de4d6d8d5b426f91a010000001716001442e7c075046c8d6a71a571880f42899a96e62fd6ffffffff3a7570a5f3660b82a6477c875d5cce2dab1bfef92e07ef16d424710b89140c73010000001716001458914539856ed144bacd07e0f4ec81480e818e61ffffffff02bc565f00000000001976a91460003348781ae109a8b69139b3f99be69012e79c88acc3ef02000000000017a914409bcc789a11a15b5eb8c61882f9c4609cbb76ef87000247304402203c0f46d1a678bc7e41ee18ed05d70bcf4d9a26e4769ddcc0e9caf50ef8555feb02205f70196e539bac910cfb804cda262da1e3997d9f6070bc05278282392a859c1c0121023d859ffb4f56359e4a942a4c67e7803ae103b7457a1fdc96809b55ffb265d6c502483045022100beec238921e6f591ffb001e83cb0c3cdc91f5b84edba43a29a349d449783ba69022034f4ed049fc084d90c94643d12dcbe75eb65ce73a216554df8cfc4d2bf5cdb9401210229dd2ed9ba064c1bdf6d2f6788ec6aa62370bd03c2a5812e55b39018f18fecce0247304402201f2858ed42427480a212a992e086a4384c5a8b8d45a6df684c76597386f2120402201e5948af4a865a74822d251bcee57942485f9c877704c04d4778281fc2d8f302012102ee68b98cbb2228e3c357f7492ee1df612403485576ae726919945834dafa6a1600000000", "vin": [{"sequence": 4294967295, "scriptSig": {"hex": "483045022100b298f44ed05329e443e9059dd95d10805e7a02e884f642d002a7c0475ca11de1022061120c1e886ad876d3099e51f95e778417b4f88fdef3756df7a6aec180957732012103d8df50fe1807cd3dbd3d0abe3478790464c69d5506217c9b8523de35b4bedd37", "asm": "3045022100b298f44ed05329e443e9059dd95d10805e7a02e884f642d002a7c0475ca11de1022061120c1e886ad876d3099e51f95e778417b4f88fdef3756df7a6aec180957732[ALL] 03d8df50fe1807cd3dbd3d0abe3478790464c69d5506217c9b8523de35b4bedd37"}, "vout": 1, "txid": "d2b94050746d1eca95021a94ae0b340ca86f66bd0fb07d06d33c1ffa946bfc57"}, {"txinwitness": ["304402203c0f46d1a678bc7e41ee18ed05d70bcf4d9a26e4769ddcc0e9caf50ef8555feb02205f70196e539bac910cfb804cda262da1e3997d9f6070bc05278282392a859c1c01", "023d859ffb4f56359e4a942a4c67e7803ae103b7457a1fdc96809b55ffb265d6c5"], "sequence": 4294967295, "scriptSig": {"hex": "16001479d24f7d39edcf51b2937fd1e5e80cc48da875d3", "asm": "001479d24f7d39edcf51b2937fd1e5e80cc48da875d3"}, "vout": 1, "txid": "05163beebac6948456db4df75668b4da7649641cbd15fc5fd7b00c1f5484eb87"}, {"txinwitness": ["3045022100beec238921e6f591ffb001e83cb0c3cdc91f5b84edba43a29a349d449783ba69022034f4ed049fc084d90c94643d12dcbe75eb65ce73a216554df8cfc4d2bf5cdb9401", "0229dd2ed9ba064c1bdf6d2f6788ec6aa62370bd03c2a5812e55b39018f18fecce"], "sequence": 4294967295, "scriptSig": {"hex": "16001442e7c075046c8d6a71a571880f42899a96e62fd6", "asm": "001442e7c075046c8d6a71a571880f42899a96e62fd6"}, "vout": 1, "txid": "1af926b4d5d8d6e45d69194b7954aae8757d80a181f12d196303f0c1285c04f2"}, {"txinwitness": ["304402201f2858ed42427480a212a992e086a4384c5a8b8d45a6df684c76597386f2120402201e5948af4a865a74822d251bcee57942485f9c877704c04d4778281fc2d8f30201", "02ee68b98cbb2228e3c357f7492ee1df612403485576ae726919945834dafa6a16"], "sequence": 4294967295, "scriptSig": {"hex": "16001458914539856ed144bacd07e0f4ec81480e818e61", "asm": "001458914539856ed144bacd07e0f4ec81480e818e61"}, "vout": 1, "txid": "730c14890b7124d416ef072ef9fe1bab2dce5c5d877c47a6820b66f3a570753a"}], "txid": "2a4c10c8a94592b63215335a4f9e9041be516ecc518eee38c6e5b852184238b1", "blocktime": 1537876114, "version": 2, "confirmations": 11459, "time": 1537876114, "locktime": 0, "vsize": 498, "size": 741}