{"hash": "f3ad2cce1b9148235e5bb9aaafbac26338dd44b892fd68e1875a236f6f10805d", "blockhash": "0000000000000000000dcc0f55137456b1a82d3642486a52398922ac4d620174", "vout": [{"scriptPubKey": {"reqSigs": 1, "hex": "a914d9741cc1995eea667f660598dd7b6a31e97be16c87", "addresses": ["3MWoeoBQpq8p4n9PjyFdHXJrGyyARAinHV"], "asm": "OP_HASH160 d9741cc1995eea667f660598dd7b6a31e97be16c OP_EQUAL", "type": "scripthash"}, "value": 0.0040426, "n": 0}, {"scriptPubKey": {"reqSigs": 1, "hex": "a914fb021be1a7ac7893dd383287be5f3dc3b9014bc187", "addresses": ["3QaE4DtJB4atNG9s2EwELA4pZe6nkkxVFN"], "asm": "OP_HASH160 fb021be1a7ac7893dd383287be5f3dc3b9014bc1 OP_EQUAL", "type": "scripthash"}, "value": 0.01011403, "n": 1}], "hex": "020000000001042725025a8962fb798a9a354a66af7d86f73222cdd46ff02c5632df19b229580401000000171600146bc06b90dcda1f2cfb3306dbd3ccbf54a0cda380fdffffff40edbf3db9a4b1b30895a499ec4c7c31dc93e1ef78e337e707d1785a7caa26080000000017160014f133c79394da3ae7b60ea4f15b8b981d4dbc5d1afdffffff488c35f39c493a17bee2e5840a4e1ca98fa81b04ada8d2644f47880727cb93bd0000000017160014e1631e9caabdf28527a6e14715e288a999493f68fdffffffb3e03229e9873d04b5d8c781bd27ffadbd6c4d61a70a6b0873da682064dd2ee40100000017160014522da99b8d8ad83be5c0269be34bb808c3a061b5fdffffff02242b06000000000017a914d9741cc1995eea667f660598dd7b6a31e97be16c87cb6e0f000000000017a914fb021be1a7ac7893dd383287be5f3dc3b9014bc18702483045022100893bb8e178228360b3fe01e7c425c66139d731d2ffb770008e89476df0adce5e022020098b876394fd5b6984f1669d695d21ca6d4fe734904c1a924f6d1597f5a6a00121037d6cf4b7c1c15b5c8714231af7259fa07ed5465ff32f9d56aff7a7f5c1fa081302483045022100ef356f7c33e4419b5d386cd7806bbbf0f4b02952dca202f08008a443955435ea022024160916b41318615fecac551cf917031ce9cacdc5465ef07c3e59ee8b508c1d012103c1b165f0b53ac699c8b95795477b04e7e4bdc308be26a858b980bb1ad40d1620024830450221008a7a2065866cf37bfe906d015544ecd669f0b150ae8f899c499b7c109294a7ff0220749044c3742a2d9c5a783e281b2610adfd89b5325bd7df29b99a6275c5f7311c012102000356b417500ee534f8213d72275fdd4d89a64cb53dd86a7b8e35758cd6e91d02483045022100c790547c053c50ec7f1c2e03c8c758e3c650484d6cd7e855705dd02698294af602200d3db50a3d252503d870d6071f6ba7c7499ac5890064a0d40594bfa1920ea0740121038c1841bbbe87ab4b7357124ebad513234543c8fbf612fcfbdd3424b1a9de51040c490800", "vin": [{"txinwitness": ["3045022100893bb8e178228360b3fe01e7c425c66139d731d2ffb770008e89476df0adce5e022020098b876394fd5b6984f1669d695d21ca6d4fe734904c1a924f6d1597f5a6a001", "037d6cf4b7c1c15b5c8714231af7259fa07ed5465ff32f9d56aff7a7f5c1fa0813"], "sequence": 4294967293, "scriptSig": {"hex": "1600146bc06b90dcda1f2cfb3306dbd3ccbf54a0cda380", "asm": "00146bc06b90dcda1f2cfb3306dbd3ccbf54a0cda380"}, "vout": 1, "txid": "045829b219df32562cf06fd4cd2232f7867daf664a359a8a79fb62895a022527"}, {"txinwitness": ["3045022100ef356f7c33e4419b5d386cd7806bbbf0f4b02952dca202f08008a443955435ea022024160916b41318615fecac551cf917031ce9cacdc5465ef07c3e59ee8b508c1d01", "03c1b165f0b53ac699c8b95795477b04e7e4bdc308be26a858b980bb1ad40d1620"], "sequence": 4294967293, "scriptSig": {"hex": "160014f133c79394da3ae7b60ea4f15b8b981d4dbc5d1a", "asm": "0014f133c79394da3ae7b60ea4f15b8b981d4dbc5d1a"}, "vout": 0, "txid": "0826aa7c5a78d107e737e378efe193dc317c4cec99a49508b3b1a4b93dbfed40"}, {"txinwitness": ["30450221008a7a2065866cf37bfe906d015544ecd669f0b150ae8f899c499b7c109294a7ff0220749044c3742a2d9c5a783e281b2610adfd89b5325bd7df29b99a6275c5f7311c01", "02000356b417500ee534f8213d72275fdd4d89a64cb53dd86a7b8e35758cd6e91d"], "sequence": 4294967293, "scriptSig": {"hex": "160014e1631e9caabdf28527a6e14715e288a999493f68", "asm": "0014e1631e9caabdf28527a6e14715e288a999493f68"}, "vout": 0, "txid": "bd93cb270788474f64d2a8ad041ba88fa91c4e0a84e5e2be173a499cf3358c48"}, {"txinwitness": ["3045022100c790547c053c50ec7f1c2e03c8c758e3c650484d6cd7e855705dd02698294af602200d3db50a3d252503d870d6071f6ba7c7499ac5890064a0d40594bfa1920ea07401", "038c1841bbbe87ab4b7357124ebad513234543c8fbf612fcfbdd3424b1a9de5104"], "sequence": 4294967293, "scriptSig": {"hex": "160014522da99b8d8ad83be5c0269be34bb808c3a061b5", "asm": "0014522da99b8d8ad83be5c0269be34bb808c3a061b5"}, "vout": 1, "txid": "e42edd642068da73086b0aa7614d6cbdadff27bd81c7d8b5043d87e92932e0b3"}], "txid": "2a4c3e24e0292d4c3b9d05ac5370d14476ccf2219e74fec1a26fa42764c7fdcf", "blocktime": 1537870268, "version": 2, "confirmations": 11518, "time": 1537870268, "locktime": 542988, "vsize": 439, "size": 764}