{"hash": "2a4d5af179f191e4acfae023df52d8896c4d8886d6c0ab8e6fd0d4928fd10438", "blockhash": "0000000000000000001f0ddff1eddb255c1121bcd4da4f1bc9a0da00cae72433", "vout": [{"scriptPubKey": {"reqSigs": 1, "hex": "76a9148df27c1eefc453a185f814f39ca905d529cf027288ac", "addresses": ["1DwYmC4HGHFFKsbZszYnbUgqWNYrfqtvWF"], "asm": "OP_DUP OP_HASH160 8df27c1eefc453a185f814f39ca905d529cf0272 OP_EQUALVERIFY OP_CHECKSIG", "type": "pubkeyhash"}, "value": 0.00896498, "n": 0}, {"scriptPubKey": {"reqSigs": 1, "hex": "a91417377ba6edde2ef52962b976dfefe00d7296e7c187", "addresses": ["33omvyzLzAzEV2fvGQjkc3KtNsN7BDXxmp"], "asm": "OP_HASH160 17377ba6edde2ef52962b976dfefe00d7296e7c1 OP_EQUAL", "type": "scripthash"}, "value": 0.0176, "n": 1}], "hex": "0200000003ff38a4c5edf738d80e51c6999c8e25f27ab6377f9edadf08baaa70d56a71f43f010000006b483045022100a86d204352f75f881b1a082490aa676dc22a25c24742e4a67a97850e456ce0460220430d04943e26fa7c2ac5a1168679764469ad3c3592c404377a743917acdc80c9012102f56a2e2d40e40a93c3b961893952da36d5db4a3004bb875b66dbaac63d31d238feffffff43394e7b4658292d2c1a2a87b8fde2f34cd63a788d9c9b63c14bdc16298ba612080000006a47304402202828d37cf436877faf4e5dc5aae0200b6d214ec1006c3931b0f589f4d7e34173022007870bf9572a296bce6c389e36db91551e6506ef0f4570e96245404cb7499516012103bbfafa8881c0b24949d828e9383d399cde08c12c1fc6154999409b60b09e8f2cfeffffff4f9dd3b147bd92bca1d2efc193c18810253528a2bdd7a3400be2a2aa5f058c03000000006a473044022031f00cac55b8fe2a0100bd6fdb5837634af1ec27d7714836ac33a26ddb597214022074dfd2fa8945db925480ea1e61c3e1961368883a6ea6b9dbe9575f424ff36e86012103ed87ec1d1a122c528d5a4137f743651e4c84a58184260359adcf911109aa71b3feffffff02f2ad0d00000000001976a9148df27c1eefc453a185f814f39ca905d529cf027288ac00db1a000000000017a91417377ba6edde2ef52962b976dfefe00d7296e7c18711490800", "vin": [{"sequence": 4294967294, "scriptSig": {"hex": "483045022100a86d204352f75f881b1a082490aa676dc22a25c24742e4a67a97850e456ce0460220430d04943e26fa7c2ac5a1168679764469ad3c3592c404377a743917acdc80c9012102f56a2e2d40e40a93c3b961893952da36d5db4a3004bb875b66dbaac63d31d238", "asm": "3045022100a86d204352f75f881b1a082490aa676dc22a25c24742e4a67a97850e456ce0460220430d04943e26fa7c2ac5a1168679764469ad3c3592c404377a743917acdc80c9[ALL] 02f56a2e2d40e40a93c3b961893952da36d5db4a3004bb875b66dbaac63d31d238"}, "vout": 1, "txid": "3ff4716ad570aaba08dfda9e7f37b67af2258e9c99c6510ed838f7edc5a438ff"}, {"sequence": 4294967294, "scriptSig": {"hex": "47304402202828d37cf436877faf4e5dc5aae0200b6d214ec1006c3931b0f589f4d7e34173022007870bf9572a296bce6c389e36db91551e6506ef0f4570e96245404cb7499516012103bbfafa8881c0b24949d828e9383d399cde08c12c1fc6154999409b60b09e8f2c", "asm": "304402202828d37cf436877faf4e5dc5aae0200b6d214ec1006c3931b0f589f4d7e34173022007870bf9572a296bce6c389e36db91551e6506ef0f4570e96245404cb7499516[ALL] 03bbfafa8881c0b24949d828e9383d399cde08c12c1fc6154999409b60b09e8f2c"}, "vout": 8, "txid": "12a68b2916dc4bc1639b9c8d783ad64cf3e2fdb8872a1a2c2d2958467b4e3943"}, {"sequence": 4294967294, "scriptSig": {"hex": "473044022031f00cac55b8fe2a0100bd6fdb5837634af1ec27d7714836ac33a26ddb597214022074dfd2fa8945db925480ea1e61c3e1961368883a6ea6b9dbe9575f424ff36e86012103ed87ec1d1a122c528d5a4137f743651e4c84a58184260359adcf911109aa71b3", "asm": "3044022031f00cac55b8fe2a0100bd6fdb5837634af1ec27d7714836ac33a26ddb597214022074dfd2fa8945db925480ea1e61c3e1961368883a6ea6b9dbe9575f424ff36e86[ALL] 03ed87ec1d1a122c528d5a4137f743651e4c84a58184260359adcf911109aa71b3"}, "vout": 0, "txid": "038c055faaa2e20b40a3d7bda22835251088c193c1efd2a1bc92bd47b1d39d4f"}], "txid": "2a4d5af179f191e4acfae023df52d8896c4d8886d6c0ab8e6fd0d4928fd10438", "blocktime": 1537872018, "version": 2, "confirmations": 11489, "time": 1537872018, "locktime": 542993, "vsize": 518, "size": 518}