{"hash": "d39233857c084e5305e90645bbaddff20d05234173470755daa9f94de11e3c02", "blockhash": "000000000000000000022b45ed06c6f4ccd3cf7fb5ba4856ebd2e58215665228", "vout": [{"scriptPubKey": {"reqSigs": 1, "hex": "76a914b7be3e452735ba040850819d430ff8818ce1965488ac", "addresses": ["1HkYZSMkNV4ywdVnqj7msXkFFFCEFc9CtV"], "asm": "OP_DUP OP_HASH160 b7be3e452735ba040850819d430ff8818ce19654 OP_EQUALVERIFY OP_CHECKSIG", "type": "pubkeyhash"}, "value": 0.0034486, "n": 0}, {"scriptPubKey": {"reqSigs": 1, "hex": "a9146be147594c5129dc55dc75565cbc5ce6af2dd0f087", "addresses": ["3BXS6i3m6rvktRoMpHxRzx58GSNsv6xT6v"], "asm": "OP_HASH160 6be147594c5129dc55dc75565cbc5ce6af2dd0f0 OP_EQUAL", "type": "scripthash"}, "value": 0.01012825, "n": 1}], "hex": "020000000001022b32c0592786ef0bf6cfa5ff031284acf1c05603f7cedbcc8407e8b34a0526d20000000017160014449cd712b7d1e00ea68beaa77fcaf8409ee2cf55feffffff76b586181f784a73779eeb1292438835bc74432fd1c9ac1a444570d6ef091a830e00000017160014e5b951b43b6d651c536eb169d35082af4e3a41adfeffffff021c430500000000001976a914b7be3e452735ba040850819d430ff8818ce1965488ac59740f000000000017a9146be147594c5129dc55dc75565cbc5ce6af2dd0f0870247304402205f58a3e55340a6f7a807ad1ad68b3540f86789491ad2bf15c445ae4c06c0857a022079e361c0ab145280eabbbc87f17e82dab7d14fa54ff76804c12d363c48bf79730121039bebf28c1876aad2d07cbdf931ea23c9b6dac6758f46c2cab37bd2042695e24002473044022069a35fd5b460e380b30ef3629730aaf7e3f63cbd9b38e2e9684a5fc7e9a513fb02201bfe5032714632461395ecd743fd8f49de19c16a93559145c55ea49a0e2ba59001210274344b7e0e7be75b68769b3560e061cbfde86502d3a145ee435d82bd317c5a320b490800", "vin": [{"txinwitness": ["304402205f58a3e55340a6f7a807ad1ad68b3540f86789491ad2bf15c445ae4c06c0857a022079e361c0ab145280eabbbc87f17e82dab7d14fa54ff76804c12d363c48bf797301", "039bebf28c1876aad2d07cbdf931ea23c9b6dac6758f46c2cab37bd2042695e240"], "sequence": 4294967294, "scriptSig": {"hex": "160014449cd712b7d1e00ea68beaa77fcaf8409ee2cf55", "asm": "0014449cd712b7d1e00ea68beaa77fcaf8409ee2cf55"}, "vout": 0, "txid": "d226054ab3e80784ccdbcef70356c0f1ac841203ffa5cff60bef862759c0322b"}, {"txinwitness": ["3044022069a35fd5b460e380b30ef3629730aaf7e3f63cbd9b38e2e9684a5fc7e9a513fb02201bfe5032714632461395ecd743fd8f49de19c16a93559145c55ea49a0e2ba59001", "0274344b7e0e7be75b68769b3560e061cbfde86502d3a145ee435d82bd317c5a32"], "sequence": 4294967294, "scriptSig": {"hex": "160014e5b951b43b6d651c536eb169d35082af4e3a41ad", "asm": "0014e5b951b43b6d651c536eb169d35082af4e3a41ad"}, "vout": 14, "txid": "831a09efd67045441aacc9d12f4374bc3588439212eb9e77734a781f1886b576"}], "txid": "2a5c83b15ecb3de7e20727d67000acf87291e25c12019d5de17dd6b349aa1df4", "blocktime": 1537869901, "version": 2, "confirmations": 11524, "time": 1537869901, "locktime": 542987, "vsize": 258, "size": 420}