{"hash": "2a5cd4dd7f893935090ce68eae9258082f721aeb88d59af80f25f7a5796ff297", "blockhash": "0000000000000000000e13cef7c366c0283d82e591d1acd082e914b08063cdf1", "vout": [{"scriptPubKey": {"reqSigs": 1, "hex": "76a914da685a07cfde5626ff19fcd473d955b1f2d578b288ac", "addresses": ["1LuqKJTWuAUvNiGw89pSxWv5iXZ7sruh8d"], "asm": "OP_DUP OP_HASH160 da685a07cfde5626ff19fcd473d955b1f2d578b2 OP_EQUALVERIFY OP_CHECKSIG", "type": "pubkeyhash"}, "value": 0.0003135, "n": 0}, {"scriptPubKey": {"reqSigs": 1, "hex": "76a914f998cf1cba631c747d43461851188df1031511cb88ac", "addresses": ["1PkkK8AKXHRjCvKjqArVB5GAzdHF5jd1zH"], "asm": "OP_DUP OP_HASH160 f998cf1cba631c747d43461851188df1031511cb OP_EQUALVERIFY OP_CHECKSIG", "type": "pubkeyhash"}, "value": 0.0008, "n": 1}], "hex": "0100000001c3f17155344e076f209d38d9bfd017e999f7cf23dbe6fc735c2ff2dd8c7ecfb1010000006b483045022100e0d57a4b75b3dbdc5890ffcfe15ecf23234a773241bd4ceebbd4a5122a4194c702205a566701c7253ceee56c20d435fbc7ce3a8bca5a1b503f38c1b7f4c0e0c0128e012102170621cb83da785f09a5de00eba9bd7970d029876c3a03432c3221748875f4e9fdffffff02767a0000000000001976a914da685a07cfde5626ff19fcd473d955b1f2d578b288ac80380100000000001976a914f998cf1cba631c747d43461851188df1031511cb88ac10490800", "vin": [{"sequence": 4294967293, "scriptSig": {"hex": "483045022100e0d57a4b75b3dbdc5890ffcfe15ecf23234a773241bd4ceebbd4a5122a4194c702205a566701c7253ceee56c20d435fbc7ce3a8bca5a1b503f38c1b7f4c0e0c0128e012102170621cb83da785f09a5de00eba9bd7970d029876c3a03432c3221748875f4e9", "asm": "3045022100e0d57a4b75b3dbdc5890ffcfe15ecf23234a773241bd4ceebbd4a5122a4194c702205a566701c7253ceee56c20d435fbc7ce3a8bca5a1b503f38c1b7f4c0e0c0128e[ALL] 02170621cb83da785f09a5de00eba9bd7970d029876c3a03432c3221748875f4e9"}, "vout": 1, "txid": "b1cf7e8cddf22f5c73fce6db23cff799e917d0bfd9389d206f074e345571f1c3"}], "txid": "2a5cd4dd7f893935090ce68eae9258082f721aeb88d59af80f25f7a5796ff297", "blocktime": 1537871767, "version": 1, "confirmations": 11491, "time": 1537871767, "locktime": 542992, "vsize": 226, "size": 226}