{"hash": "2b8c270e1d7accbb5885fe0154305120c030219837a0e2a37f2b4633a461bfb9", "blockhash": "0000000000000000000e13cef7c366c0283d82e591d1acd082e914b08063cdf1", "vout": [{"scriptPubKey": {"reqSigs": 1, "hex": "0014d3d90d209fd76183307c6e28c08ff6115f9519ef", "addresses": ["bc1q60vs6gyl6ascxvrudc5vprlkz90e2x00a4gvnc"], "asm": "0 d3d90d209fd76183307c6e28c08ff6115f9519ef", "type": "witness_v0_keyhash"}, "value": 0.45691318, "n": 0}, {"scriptPubKey": {"reqSigs": 1, "hex": "76a9143cc4e59fed1fc33a2254f413a9845e40604ac71388ac", "addresses": ["16YKR9mnhWTPtBx43Tqqrfb29KKVd8JgQF"], "asm": "OP_DUP OP_HASH160 3cc4e59fed1fc33a2254f413a9845e40604ac713 OP_EQUALVERIFY OP_CHECKSIG", "type": "pubkeyhash"}, "value": 0.03207435, "n": 1}], "hex": "01000000000101d6a9fd8c6c3b16d8ffcd62939e51872c46c055d63a55e1ee186aa07df9dd444b0100000000ffffffff02b631b90200000000160014d3d90d209fd76183307c6e28c08ff6115f9519ef0bf13000000000001976a9143cc4e59fed1fc33a2254f413a9845e40604ac71388ac0247304402203fa2a2722843a5bbb4f326b204093854485251712b4f9fab06fd354f9054a51e02207914a773df648d5c8e362a5707b9e22a889c0ec3db318f692b00ac4ef464133a012103a634dc5af54c28e4d98d20f05a8e1239aab4dd61cdae8281d1d0a3624ecdc48b00000000", "vin": [{"txinwitness": ["304402203fa2a2722843a5bbb4f326b204093854485251712b4f9fab06fd354f9054a51e02207914a773df648d5c8e362a5707b9e22a889c0ec3db318f692b00ac4ef464133a01", "03a634dc5af54c28e4d98d20f05a8e1239aab4dd61cdae8281d1d0a3624ecdc48b"], "sequence": 4294967295, "scriptSig": {"hex": "", "asm": ""}, "vout": 1, "txid": "4b44ddf97da06a18eee1553ad655c0462c87519e9362cdffd8163b6c8cfda9d6"}], "txid": "2a61d7ed745790938535347e937d181f27bc6f5cbcb417b8f1d6b1625c959c42", "blocktime": 1537871767, "version": 1, "confirmations": 11495, "time": 1537871767, "locktime": 0, "vsize": 144, "size": 225}