{"hash": "2a6318b92d4895b47773014f6d7432fe922bef1b2e0a8e86e24ef6a664daf930", "blockhash": "0000000000000000000e13cef7c366c0283d82e591d1acd082e914b08063cdf1", "vout": [{"scriptPubKey": {"reqSigs": 1, "hex": "76a914040ff406577f487a27393aaeab24377d9ccf4d9e88ac", "addresses": ["1NUpDZekmBfr62Tq9zGYhSXbdXXEuaZBD"], "asm": "OP_DUP OP_HASH160 040ff406577f487a27393aaeab24377d9ccf4d9e OP_EQUALVERIFY OP_CHECKSIG", "type": "pubkeyhash"}, "value": 0.00759494, "n": 0}, {"scriptPubKey": {"reqSigs": 1, "hex": "a91412ac00573f3a28d4371ced0d6482408fc8a27cfc87", "addresses": ["33Pk8rkxbbT7QtiPtXjDuCUyEHrmRWwD8W"], "asm": "OP_HASH160 12ac00573f3a28d4371ced0d6482408fc8a27cfc OP_EQUAL", "type": "scripthash"}, "value": 0.5, "n": 1}], "hex": "0100000002a4050082f9a059b0ea075999874ac3d27575815ac63ab6c3517306e036afba91000000006a47304402207472220c93dacfec185863d249e089a134504cf507cf927dbcd15f0614f40c0b02203cccdf48ce035357d9f96725ff7978c24e22e9fe9c7cff824c4a9939f05f37e601210269b1a4fc4b64d2fbb17ae8ab826a5ece4d0511061ec4c4647312ab439d404c83ffffffffbfa1952535e1816a75689302ccd0e432c35cb7f8e288c617771a6349865eddf6000000006b483045022100ce2fd282d6f9aabdea601bed8438c22e342bf3d8cd145953eb981bf3d5a48c6a0220211b66404401c36dacd17d2627a2e32246f85d0f552bf7ef33be0eb477d5cb680121020710d5f99843b32e9a623a2347be1ab2910d4ab55b6d44e20e4ddd665afb0049ffffffff02c6960b00000000001976a914040ff406577f487a27393aaeab24377d9ccf4d9e88ac80f0fa020000000017a91412ac00573f3a28d4371ced0d6482408fc8a27cfc8700000000", "vin": [{"sequence": 4294967295, "scriptSig": {"hex": "47304402207472220c93dacfec185863d249e089a134504cf507cf927dbcd15f0614f40c0b02203cccdf48ce035357d9f96725ff7978c24e22e9fe9c7cff824c4a9939f05f37e601210269b1a4fc4b64d2fbb17ae8ab826a5ece4d0511061ec4c4647312ab439d404c83", "asm": "304402207472220c93dacfec185863d249e089a134504cf507cf927dbcd15f0614f40c0b02203cccdf48ce035357d9f96725ff7978c24e22e9fe9c7cff824c4a9939f05f37e6[ALL] 0269b1a4fc4b64d2fbb17ae8ab826a5ece4d0511061ec4c4647312ab439d404c83"}, "vout": 0, "txid": "91baaf36e0067351c3b63ac65a817575d2c34a87995907eab059a0f9820005a4"}, {"sequence": 4294967295, "scriptSig": {"hex": "483045022100ce2fd282d6f9aabdea601bed8438c22e342bf3d8cd145953eb981bf3d5a48c6a0220211b66404401c36dacd17d2627a2e32246f85d0f552bf7ef33be0eb477d5cb680121020710d5f99843b32e9a623a2347be1ab2910d4ab55b6d44e20e4ddd665afb0049", "asm": "3045022100ce2fd282d6f9aabdea601bed8438c22e342bf3d8cd145953eb981bf3d5a48c6a0220211b66404401c36dacd17d2627a2e32246f85d0f552bf7ef33be0eb477d5cb68[ALL] 020710d5f99843b32e9a623a2347be1ab2910d4ab55b6d44e20e4ddd665afb0049"}, "vout": 0, "txid": "f6dd5e8649631a7717c688e2f8b75cc332e4d0cc029368756a81e1352595a1bf"}], "txid": "2a6318b92d4895b47773014f6d7432fe922bef1b2e0a8e86e24ef6a664daf930", "blocktime": 1537871767, "version": 1, "confirmations": 11495, "time": 1537871767, "locktime": 0, "vsize": 371, "size": 371}