{"hash": "2a6426f1ea1678bc91ed406efd4cd78f530eb8ca7f3e4d85e68d137680229f3d", "blockhash": "00000000000000000018f53835495a110e01622372bf6ae95dc86f2b0ab887b0", "vout": [{"scriptPubKey": {"reqSigs": 1, "hex": "76a9142f75ab01f1441f6070b36a9dceb766745b7178dc88ac", "addresses": ["15KwijT55iin79CSXv6TZ1HoMA9vahwGni"], "asm": "OP_DUP OP_HASH160 2f75ab01f1441f6070b36a9dceb766745b7178dc OP_EQUALVERIFY OP_CHECKSIG", "type": "pubkeyhash"}, "value": 0.058636, "n": 0}, {"scriptPubKey": {"reqSigs": 1, "hex": "76a914688bd74d48973a5bfb4f2485f71475b5824db2fe88ac", "addresses": ["1AXnoGx31APrmTqo8BRyM9peaLQBoiMpCs"], "asm": "OP_DUP OP_HASH160 688bd74d48973a5bfb4f2485f71475b5824db2fe OP_EQUALVERIFY OP_CHECKSIG", "type": "pubkeyhash"}, "value": 0.04020973, "n": 1}], "hex": "010000000185b8fb548179ea1f670edc674ac457db77f42d11a2827a5394584a47593e3c9b010000006a4730440220797ba1be63c2fb6d060e83fa094dca2e30ec1e80837ba8948cd4b06e620a8fd8022048208370dee4c4555b2777bb613e0428efc17eb80660422d4473fa4a8153938f0121027dc34231835bd2f8cee1d10c4e2339cc74c13300f6ea988290463fd9edbf2053ffffffff02b0785900000000001976a9142f75ab01f1441f6070b36a9dceb766745b7178dc88aced5a3d00000000001976a914688bd74d48973a5bfb4f2485f71475b5824db2fe88ac00000000", "vin": [{"sequence": 4294967295, "scriptSig": {"hex": "4730440220797ba1be63c2fb6d060e83fa094dca2e30ec1e80837ba8948cd4b06e620a8fd8022048208370dee4c4555b2777bb613e0428efc17eb80660422d4473fa4a8153938f0121027dc34231835bd2f8cee1d10c4e2339cc74c13300f6ea988290463fd9edbf2053", "asm": "30440220797ba1be63c2fb6d060e83fa094dca2e30ec1e80837ba8948cd4b06e620a8fd8022048208370dee4c4555b2777bb613e0428efc17eb80660422d4473fa4a8153938f[ALL] 027dc34231835bd2f8cee1d10c4e2339cc74c13300f6ea988290463fd9edbf2053"}, "vout": 1, "txid": "9b3c3e59474a5894537a82a2112df477db57c44a67dc0e671fea798154fbb885"}], "txid": "2a6426f1ea1678bc91ed406efd4cd78f530eb8ca7f3e4d85e68d137680229f3d", "blocktime": 1537870928, "version": 1, "confirmations": 11514, "time": 1537870928, "locktime": 0, "vsize": 225, "size": 225}