{"hash": "09fc207150ee6049c7a8f6d8ef8dc33dd8300a839b62766ebc9327dba6526836", "blockhash": "00000000000000000017f5eb5941039fbcee6240d03bc1f2f8e35350df66a1d8", "vout": [{"scriptPubKey": {"reqSigs": 1, "hex": "76a9146b9356085ec531067fae9c0743f0e46e58db33e388ac", "addresses": ["1AooocgK8hU564TbzeiqVCJzh4PGHj85vZ"], "asm": "OP_DUP OP_HASH160 6b9356085ec531067fae9c0743f0e46e58db33e3 OP_EQUALVERIFY OP_CHECKSIG", "type": "pubkeyhash"}, "value": 0.09970471, "n": 0}, {"scriptPubKey": {"reqSigs": 1, "hex": "a914a648618041ee210c53dede1ec3c680f3541761d987", "addresses": ["3GrEoVr37VHBuWnkiLfnKdc38tJjZTYggh"], "asm": "OP_HASH160 a648618041ee210c53dede1ec3c680f3541761d9 OP_EQUAL", "type": "scripthash"}, "value": 0.12210304, "n": 1}], "hex": "020000000001016a669d96a08bddd4207500dfa8882ceaced7a45684f69dc1cf22092e5ee624b80100000017160014315b56b788c0605fddf8eb5ab85cdbdea6ad1305feffffff0227239800000000001976a9146b9356085ec531067fae9c0743f0e46e58db33e388ac8050ba000000000017a914a648618041ee210c53dede1ec3c680f3541761d98702473044022075f9945b7b9a82707e24ef7f39b7de9f54d4b66b9149832b0f38cd599c8c163202206a447f24cc0b900f798d779127660bbd030c6fa9f688f7b5462348a3efa189ba012103a35c68734679c460676ac0e5dd4f05ef7842c10851035eaec4091ca7928289b314490800", "vin": [{"txinwitness": ["3044022075f9945b7b9a82707e24ef7f39b7de9f54d4b66b9149832b0f38cd599c8c163202206a447f24cc0b900f798d779127660bbd030c6fa9f688f7b5462348a3efa189ba01", "03a35c68734679c460676ac0e5dd4f05ef7842c10851035eaec4091ca7928289b3"], "sequence": 4294967294, "scriptSig": {"hex": "160014315b56b788c0605fddf8eb5ab85cdbdea6ad1305", "asm": "0014315b56b788c0605fddf8eb5ab85cdbdea6ad1305"}, "vout": 1, "txid": "b824e65e2e0922cfc19df68456a4d7ceea2c88a8df007520d4dd8ba0969d666a"}], "txid": "2a67935792129261ca321befc3760c3b785927d14f083724610f971b8035e973", "blocktime": 1537874412, "version": 2, "confirmations": 11468, "time": 1537874412, "locktime": 542996, "vsize": 168, "size": 249}