{"hash": "db6c12b0b3dfee9859ce7bb4408fecaf67e8610bfe63114284690de05bf5f2cb", "blockhash": "000000000000000000205f8b0775d31398ef75b89a5e8ec8d2c57b4dc0ac4c20", "vout": [{"scriptPubKey": {"reqSigs": 1, "hex": "a91484bf065bcd8e23a69a3f6707e9aec3e50c1ed3ab87", "addresses": ["3DnuxWB6sH1mxX1q9fuCY5HRjc5KMvVVBd"], "asm": "OP_HASH160 84bf065bcd8e23a69a3f6707e9aec3e50c1ed3ab OP_EQUAL", "type": "scripthash"}, "value": 0.00278533, "n": 0}, {"scriptPubKey": {"reqSigs": 1, "hex": "a91439329bbd9cc82e8c03db2d99a630eb898949694387", "addresses": ["36uT4orog2Jie9ueGpf1CeMmqbAnmnVnEm"], "asm": "OP_HASH160 39329bbd9cc82e8c03db2d99a630eb8989496943 OP_EQUAL", "type": "scripthash"}, "value": 0.01098377, "n": 1}], "hex": "010000000001015358277fc9516368352ef26f077a0e00da79f6404d8c2a56709fe4e6a85a82af01000000232200204dc1a06ffe8090e736c1e174194a955190b20b86689eaa7cd91b4715a7b1376bffffffff02054004000000000017a91484bf065bcd8e23a69a3f6707e9aec3e50c1ed3ab8789c210000000000017a91439329bbd9cc82e8c03db2d99a630eb8989496943870400483045022100b2b5b68b4919d406ea51d28cebd7934b88cc099544979d9568f368db48996e37022001cd4d3c99a4504f245e232cd45523861f3e8e13c5320c16f3d6cad1563e166f0147304402202b0d54704fb71c10fe53171317765cbb95a8d7f952b1121e87f2f778b7ef0eba022001ed6f77ae263a26cb16e70830f12f0e64ecc2393a64fe99607fc1fe673069ce01475221021f765cad7ba81d9eab4e8528dc2870a0764ffa87961e10e66560c58404065d32210292d679353fa4a760eaad69284c09d063a1fd1a15ad8c70e83dbf86f7063f8c1852ae00000000", "vin": [{"txinwitness": ["", "3045022100b2b5b68b4919d406ea51d28cebd7934b88cc099544979d9568f368db48996e37022001cd4d3c99a4504f245e232cd45523861f3e8e13c5320c16f3d6cad1563e166f01", "304402202b0d54704fb71c10fe53171317765cbb95a8d7f952b1121e87f2f778b7ef0eba022001ed6f77ae263a26cb16e70830f12f0e64ecc2393a64fe99607fc1fe673069ce01", "5221021f765cad7ba81d9eab4e8528dc2870a0764ffa87961e10e66560c58404065d32210292d679353fa4a760eaad69284c09d063a1fd1a15ad8c70e83dbf86f7063f8c1852ae"], "sequence": 4294967295, "scriptSig": {"hex": "2200204dc1a06ffe8090e736c1e174194a955190b20b86689eaa7cd91b4715a7b1376b", "asm": "00204dc1a06ffe8090e736c1e174194a955190b20b86689eaa7cd91b4715a7b1376b"}, "vout": 1, "txid": "af825aa8e6e49f70562a8c4d40f679da000e7a076ff22e35686351c97f275853"}], "txid": "2a69652d827799b738cd0612cefd9d4af49a607fdf2caac26b6b78044bd5593d", "blocktime": 1537871175, "version": 1, "confirmations": 11511, "time": 1537871175, "locktime": 0, "vsize": 206, "size": 371}