{"hash": "2a6b4a32c89c46075ec91d8bed564a4d4dbc0c2787a0b07a4df0e9b25bed2a20", "blockhash": "0000000000000000001cda96e906b7601b7a6fb1a3b62bca570a9e5d8f4b3de1", "vout": [{"scriptPubKey": {"reqSigs": 1, "hex": "a91469dc2c24eb2a8617ab3566e0b098cad560ee615a87", "addresses": ["3BLkdXzWMD9NKB1zy2mSYTcfUz5cGgr9Ve"], "asm": "OP_HASH160 69dc2c24eb2a8617ab3566e0b098cad560ee615a OP_EQUAL", "type": "scripthash"}, "value": 1.62067273, "n": 0}, {"scriptPubKey": {"reqSigs": 1, "hex": "a914e78b1f48428e2fc56d890c9e89f5f7e0d93d085187", "addresses": ["3NoJgEez7huVBw8sbdFVurdGoMn9aYQGNf"], "asm": "OP_HASH160 e78b1f48428e2fc56d890c9e89f5f7e0d93d0851 OP_EQUAL", "type": "scripthash"}, "value": 0.37864227, "n": 1}], "hex": "020000000207803117643aa6573005d1a6d989b7470c4ab4d6d308e2eb0b1e8a77f5e6d99c100000006a47304402206eb5a07cd5101f3202cfa625c6e36c6d5777b3fe8053044b84d23d6627e2494802207a653fe7ba7ca619f34b1a6620ece5911dbd6acab162e2c0d00211049c4d10810121036edbc54f924559a7d4fa1ade1d71cfda7dcb8391ba0566e83cc83e2bb8bbd9edfeffffffdb8b478f8b95b0ac0d714352bdcf0d104d33b24a403e161290cd998a346013da010000006a4730440220171eb6192782709de1d02c4874f7b4ecf759e9ec1030559916af38573976775902206ebd23956802c9d05ad899e12e8bcfa08febde3e1695e1e92df0aad3e32d9cda01210345741293b93738ecae2844d11e16ae7cbbc9d70cbec7b574422322215aed727dfeffffff0249f3a8090000000017a91469dc2c24eb2a8617ab3566e0b098cad560ee615a8723c341020000000017a914e78b1f48428e2fc56d890c9e89f5f7e0d93d08518713490800", "vin": [{"sequence": 4294967294, "scriptSig": {"hex": "47304402206eb5a07cd5101f3202cfa625c6e36c6d5777b3fe8053044b84d23d6627e2494802207a653fe7ba7ca619f34b1a6620ece5911dbd6acab162e2c0d00211049c4d10810121036edbc54f924559a7d4fa1ade1d71cfda7dcb8391ba0566e83cc83e2bb8bbd9ed", "asm": "304402206eb5a07cd5101f3202cfa625c6e36c6d5777b3fe8053044b84d23d6627e2494802207a653fe7ba7ca619f34b1a6620ece5911dbd6acab162e2c0d00211049c4d1081[ALL] 036edbc54f924559a7d4fa1ade1d71cfda7dcb8391ba0566e83cc83e2bb8bbd9ed"}, "vout": 16, "txid": "9cd9e6f5778a1e0bebe208d3d6b44a0c47b789d9a6d1053057a63a6417318007"}, {"sequence": 4294967294, "scriptSig": {"hex": "4730440220171eb6192782709de1d02c4874f7b4ecf759e9ec1030559916af38573976775902206ebd23956802c9d05ad899e12e8bcfa08febde3e1695e1e92df0aad3e32d9cda01210345741293b93738ecae2844d11e16ae7cbbc9d70cbec7b574422322215aed727d", "asm": "30440220171eb6192782709de1d02c4874f7b4ecf759e9ec1030559916af38573976775902206ebd23956802c9d05ad899e12e8bcfa08febde3e1695e1e92df0aad3e32d9cda[ALL] 0345741293b93738ecae2844d11e16ae7cbbc9d70cbec7b574422322215aed727d"}, "vout": 1, "txid": "da1360348a99cd9012163e404ab2334d100dcfbd5243710dacb0958b8f478bdb"}], "txid": "2a6b4a32c89c46075ec91d8bed564a4d4dbc0c2787a0b07a4df0e9b25bed2a20", "blocktime": 1537873282, "version": 2, "confirmations": 11480, "time": 1537873282, "locktime": 542995, "vsize": 368, "size": 368}