{"hash": "d1c861e76576b3813d1ea88608f7a68ab4407958c9fee7c0abe29b5181de8d60", "blockhash": "0000000000000000001f76057863aec43deb6fa401d9628bb513d65a8098bfab", "vout": [{"scriptPubKey": {"reqSigs": 1, "hex": "a914ac127a69756f6c022e5a7ed7872c5838db74b6ab87", "addresses": ["3HNrHRa9FeeLiVMwRtvw2vxV2a8hAUT5Rb"], "asm": "OP_HASH160 ac127a69756f6c022e5a7ed7872c5838db74b6ab OP_EQUAL", "type": "scripthash"}, "value": 0.00321107, "n": 0}, {"scriptPubKey": {"reqSigs": 1, "hex": "a914fbece1b159d31bd4bd84ee81a6da98329cb74a0587", "addresses": ["3Qf5JWtd3GH97LSNQmJh4eWXf3cD8dfFG6"], "asm": "OP_HASH160 fbece1b159d31bd4bd84ee81a6da98329cb74a05 OP_EQUAL", "type": "scripthash"}, "value": 0.0288, "n": 1}], "hex": "01000000000101f5ea937bdc7cd47de7986d11847b2c683437f9f8ca4da6511d18a7221cbbe06d4500000017160014bf75d453374d037d31dcf5951b5ccbe580193b66ffffffff0253e604000000000017a914ac127a69756f6c022e5a7ed7872c5838db74b6ab8700f22b000000000017a914fbece1b159d31bd4bd84ee81a6da98329cb74a058702483045022100a3f4b2c95d0a9c1067b998d9e5834892ded7486f5f5a61a261b5999ab51612610220554f1824915d9eea51bc92e3e227c6d729c51f5f07fb7662691b2c79b735b1f30121026a192d4ea9cec9a5a05ecd163be0e4b9c08cb3ad11abf59371b1ef8e13218e3d00000000", "vin": [{"txinwitness": ["3045022100a3f4b2c95d0a9c1067b998d9e5834892ded7486f5f5a61a261b5999ab51612610220554f1824915d9eea51bc92e3e227c6d729c51f5f07fb7662691b2c79b735b1f301", "026a192d4ea9cec9a5a05ecd163be0e4b9c08cb3ad11abf59371b1ef8e13218e3d"], "sequence": 4294967295, "scriptSig": {"hex": "160014bf75d453374d037d31dcf5951b5ccbe580193b66", "asm": "0014bf75d453374d037d31dcf5951b5ccbe580193b66"}, "vout": 69, "txid": "6de0bb1c22a7181d51a64dcaf8f93734682c7b84116d98e77dd47cdc7b93eaf5"}], "txid": "2a6c31de829d4fce689f8f7a171906300060ae7a4f90357da94b35c3ea57bb2e", "blocktime": 1537873891, "version": 1, "confirmations": 11478, "time": 1537873891, "locktime": 0, "vsize": 166, "size": 248}