{"hash": "2a7023142ba3e7e58e5be75877f1ea73b4c24030071701e5be680ee14ee08698", "blockhash": "0000000000000000000baef3f32e3676a92c3b2e5da21b426e4f302fc371ce76", "vout": [{"scriptPubKey": {"reqSigs": 1, "hex": "76a914aa2ffb59eed7f9e86c46e823ae8bb8b4dcdd84a688ac", "addresses": ["1GWsMSyqnhJmo4EBQjunnKdc1wAVpuXbWt"], "asm": "OP_DUP OP_HASH160 aa2ffb59eed7f9e86c46e823ae8bb8b4dcdd84a6 OP_EQUALVERIFY OP_CHECKSIG", "type": "pubkeyhash"}, "value": 0.0011482, "n": 0}, {"scriptPubKey": {"reqSigs": 1, "hex": "76a914e980406100f1b02d9023620d15858ca5a5fb144c88ac", "addresses": ["1NHe5mQK8w5uu6QxqnWsd6M8fPLPiYGWzA"], "asm": "OP_DUP OP_HASH160 e980406100f1b02d9023620d15858ca5a5fb144c OP_EQUALVERIFY OP_CHECKSIG", "type": "pubkeyhash"}, "value": 0.06576084, "n": 1}], "hex": "0100000001f7c70ed0ab7e4492ecb99f2213df8a97822e22d00beb63e968a44baa6ca415af010000006b483045022100e084d140abb02bc35f01d55654ef9cc73d0427f743d2e6a6c14cf6996bd32e980220725d9e750f4fbdef6c19f4c2283798976a1b7a7e98169de29fc05b74ce93c27e012103ad603f5d3610dce0c476cc5ff31b70d340cb842f4285d362fdb63d990e4c8e16ffffffff0284c00100000000001976a914aa2ffb59eed7f9e86c46e823ae8bb8b4dcdd84a688acd4576400000000001976a914e980406100f1b02d9023620d15858ca5a5fb144c88ac00000000", "vin": [{"sequence": 4294967295, "scriptSig": {"hex": "483045022100e084d140abb02bc35f01d55654ef9cc73d0427f743d2e6a6c14cf6996bd32e980220725d9e750f4fbdef6c19f4c2283798976a1b7a7e98169de29fc05b74ce93c27e012103ad603f5d3610dce0c476cc5ff31b70d340cb842f4285d362fdb63d990e4c8e16", "asm": "3045022100e084d140abb02bc35f01d55654ef9cc73d0427f743d2e6a6c14cf6996bd32e980220725d9e750f4fbdef6c19f4c2283798976a1b7a7e98169de29fc05b74ce93c27e[ALL] 03ad603f5d3610dce0c476cc5ff31b70d340cb842f4285d362fdb63d990e4c8e16"}, "vout": 1, "txid": "af15a46caa4ba468e963eb0bd0222e82978adf13229fb9ec92447eabd00ec7f7"}], "txid": "2a7023142ba3e7e58e5be75877f1ea73b4c24030071701e5be680ee14ee08698", "blocktime": 1537876114, "version": 1, "confirmations": 11459, "time": 1537876114, "locktime": 0, "vsize": 226, "size": 226}