{"hash": "2a70e9be69763b7f91b297fd298612af0e59f85e8c10e17e8e456c5ff212fe40", "blockhash": "0000000000000000000e13cef7c366c0283d82e591d1acd082e914b08063cdf1", "vout": [{"scriptPubKey": {"reqSigs": 1, "hex": "a9141036bd581929edcc2e4d9df4e70d89332b9f52c987", "addresses": ["33AkJzJupoEuo5swpQdQb6TdBhQBea6Y7V"], "asm": "OP_HASH160 1036bd581929edcc2e4d9df4e70d89332b9f52c9 OP_EQUAL", "type": "scripthash"}, "value": 0.081243, "n": 0}, {"scriptPubKey": {"reqSigs": 1, "hex": "76a9142770ad512cbe795526f168478c81da530f29b02b88ac", "addresses": ["14bYLRF5XgFY4PGW2g6G2JH4uHncfCcKfs"], "asm": "OP_DUP OP_HASH160 2770ad512cbe795526f168478c81da530f29b02b OP_EQUALVERIFY OP_CHECKSIG", "type": "pubkeyhash"}, "value": 0.024963, "n": 1}, {"scriptPubKey": {"reqSigs": 1, "hex": "a914d666d1d9c7194606f6c28a1f9724ae9d1964926f87", "addresses": ["3MEfhdp4kjkiFbj6T3HYgaSDjCrFeP12RC"], "asm": "OP_HASH160 d666d1d9c7194606f6c28a1f9724ae9d1964926f OP_EQUAL", "type": "scripthash"}, "value": 0.112846, "n": 2}, {"scriptPubKey": {"reqSigs": 1, "hex": "a9144341b638fc9069221ca7c87fa295b0384551ff0187", "addresses": ["37pdv8exEZWqyXHntgUnkEcymbDWN9VLPe"], "asm": "OP_HASH160 4341b638fc9069221ca7c87fa295b0384551ff01 OP_EQUAL", "type": "scripthash"}, "value": 0.9995, "n": 3}, {"scriptPubKey": {"reqSigs": 1, "hex": "a91448a5b794aead0dbaba68eaca461ee12283dde4fa87", "addresses": ["38K96ajNBAbaWce6bdqUPZpzjfFYf3pJor"], "asm": "OP_HASH160 48a5b794aead0dbaba68eaca461ee12283dde4fa OP_EQUAL", "type": "scripthash"}, "value": 0.06786, "n": 4}, {"scriptPubKey": {"reqSigs": 1, "hex": "76a914337f42369bb0166242da9b1406d5b7943ce967a088ac", "addresses": ["15hHusQZ6q1DRab7X5aGKugBvXy9o44sXt"], "asm": "OP_DUP OP_HASH160 337f42369bb0166242da9b1406d5b7943ce967a0 OP_EQUALVERIFY OP_CHECKSIG", "type": "pubkeyhash"}, "value": 0.067658, "n": 5}, {"scriptPubKey": {"reqSigs": 1, "hex": "a914c3774afe9e8d2c4feb9405308322ad40e0e486a987", "addresses": ["3KWYba1jUfcLq4TiqGQF48tPbqmS9NhTH5"], "asm": "OP_HASH160 c3774afe9e8d2c4feb9405308322ad40e0e486a9 OP_EQUAL", "type": "scripthash"}, "value": 0.381119, "n": 6}, {"scriptPubKey": {"reqSigs": 1, "hex": "a9145269b90602b300161deb92fcd5160cee988abaee87", "addresses": ["39Cmz24hHG4sEn3U5fCBPvpoYZThwaK85i"], "asm": "OP_HASH160 5269b90602b300161deb92fcd5160cee988abaee OP_EQUAL", "type": "scripthash"}, "value": 1.99356205, "n": 7}, {"scriptPubKey": {"reqSigs": 1, "hex": "76a9145adfe14344e67d1376322c34a3066fad00ea5dce88ac", "addresses": ["19HW1iUpdXBEd7GYCVZq48G4KB8KNyCidr"], "asm": "OP_DUP OP_HASH160 5adfe14344e67d1376322c34a3066fad00ea5dce OP_EQUALVERIFY OP_CHECKSIG", "type": "pubkeyhash"}, "value": 0.01965334, "n": 8}, {"scriptPubKey": {"reqSigs": 1, "hex": "76a914e898e9f89d58e30bd4cabcc23abe111e5acffd5e88ac", "addresses": ["1NCrx9pqoWe4ZK47usjjX5yun6epqgrG1Q"], "asm": "OP_DUP OP_HASH160 e898e9f89d58e30bd4cabcc23abe111e5acffd5e OP_EQUALVERIFY OP_CHECKSIG", "type": "pubkeyhash"}, "value": 6.78744, "n": 9}, {"scriptPubKey": {"reqSigs": 1, "hex": "76a914497621ab1078911211ad33a6a2c0e0663c06a7d288ac", "addresses": ["17hRqvfeLKTxf4Cu7qsz3zjwHt7dwNHx7S"], "asm": "OP_DUP OP_HASH160 497621ab1078911211ad33a6a2c0e0663c06a7d2 OP_EQUALVERIFY OP_CHECKSIG", "type": "pubkeyhash"}, "value": 0.010422, "n": 10}, {"scriptPubKey": {"reqSigs": 1, "hex": "76a914bcb55f0e60f9859de8a6467f9fcab69745028bf688ac", "addresses": ["1JCoJxuW8C4foqy5WbNbbd4612qQGD6XuF"], "asm": "OP_DUP OP_HASH160 bcb55f0e60f9859de8a6467f9fcab69745028bf6 OP_EQUALVERIFY OP_CHECKSIG", "type": "pubkeyhash"}, "value": 15.8946254, "n": 11}], "hex": "010000000cb8e6c7106455d0c6bc9c52362f0be6c4d2a3db4213532a324f48ded77ec94b84010000006a47304402205fd402f291d0776c3225cfcff9a831c082bc64c96634a0368342f43978e9328702207e0256eab55c97873d9609ccd4f9231851ff9d2ac49f3c1fd3c31c5dfd94c91d012102c4d1ca583753d68986be79ee23a5f14107c5cc44947e4f870ad98658173d0ad4ffffffff26c837bbd904f9671e727f1053124336e1ea244df00ad0fab47044d3baeb5934040000006a473044022054464b950b96376d0a0ead774b4aca785a733139517cedafedff7f94fb609f6c02204e1c85bd7d601e6ed7e5bedc7cd1deedf6f1c82f4398441edc4be3dd2ce09b98012102f36b86d6f69739dc9251a4ea4c1abe13f06e71e9c28cb3c80400bcea52d33abdffffffff4a44c0da1806a3d26d544b64c3864f090fcff6375c92e0005f706f2ad62d6f6d010000006b483045022100d50bbbcaad2b44c5836257024917446ef7af91ecab209e5ffa3ba663a402396f0220412d5c4bead2b029ac36f843345e8ec6615abad82dc225a2b657da8010a2aaf5012102ee23ba04820637fa80d0465a373711f32fb4b9ffb0c920b2345ea43297f9e333ffffffffc04a59acbe3453431115dc660c4e94c150de7d74f02575aee4f4fa32a50d78e9000000006a473044022006c4c0506c374497668def262cfe324ef7da889fd0315319bf3bb7a97fe7737a022031821c62d1da8d712ab4d0d03d6dd859b43dc7f3a827ab15073fbda5977e533201210200ef399dfd462c2d7615f68b091dafe83e106a1c353a964737106d9b0d9c4b8fffffffffeaa80fffc7dded053596b500cfccbcff1ec5dd1492806339049c8dd7c2bccc7c0b0000006b48304502210096064f59088a9ea0554e868263ad92fd201e95ef6dda43720deb5936f5c2e369022017b99fdf49eee51bfa32a24fd64e26612348d748d6c394d71c00db4a184bc793012103a5544f2c3e30e8e8af822c3aed5ec5d4b2c77543a68f1b65842cbfb3fd88bbacffffffffc5e7d239ea1a4bd3d0e355383c37c63e61eefc6884acc11bc14298818bd470790c0000006b483045022100c9aa3be900b9824fc96f0a377e1eaf7f88469209d6187c77f1e96610c3ea558202204a91f5833a074122d4bbf5763a24226938ac4100c4f10aa72b11c0abaaf74f38012102afaea2e250e9a1a64b6c94247831cb3931aa43911658cec1b876728bdcc3c61cffffffffb2c01a6f5ca3daf42c811113515ae35bffa7b39ce28a601e20082e5d80e80875050000006b483045022100cfd0dcc3fca9156d567097c7b6df14b542a6f0b0ebd4bf39ca884299c95efe590220462e5d874e12a2e18f31e8aab374686d9369821a6fe0a60467f678a840e82712012103cd0731d54bff2bcb379842ad85996c4126018933f6de53b6eb27b3a60b8dd691ffffffffaa8d0f2e9661a89d99f05041875ebae154d2248027d43583fc2e987b3dd0812c000000006b483045022100b5dfb7b97a835cae830e754533ce6448459729076c26d9880527b9e324e3d5c00220529bb3ac1e6d68865b7a7eaa9b0dde92a2957a4c8acbbf2205b811052fc6a0f7012103459b727714e144f3f1494cd4198a3afeed623a50fbec0ec63cde0cf6f52c1003ffffffffa5c95143433e1639b4bc31869281ea17ec97fdad7bb4b0dc1dca5777c9ec9efd080000006b483045022100e3a155554ecfca96caa5bb35ce49d9f28f6bd26c83bd9bf9644ffb4ce9b630b302202f7ac0399dfb2815b576fefcc821063f64149124015283d464ca3c048805ebaf012102260aaa4b5f8bb197aee67a3a79b2820ed73ffc041f774e1c5e97cf0619238464ffffffffa9e4be5c608253e8a03da4e004034024d21fb6a0235dee46ebaf3ce57987f1b4000000006b483045022100e0dbae8ba23623060ead487a14acb8dc910bff2baf77f44a59d638538206256c022058394976fc614591878771327271a3dc14dfb5a84059be1c2fe31620c91a0c49012102500ab1a76820eb0f2c151d36d0bcd306518bafe4150f7f3bbc167d30a7bcf59dffffffff942c810c7016fc7f62e308df635df7c61963069b57fad6ac788672ccf5c555b9000000006b4830450221009c39ae54a87daee0557f97d0f49aa9999e74c9d8d2345c39981b3830fc0caef802201ae7973399c8707ca09d14aa1f6ae7d5c1db2aa4e2d4eb01fd71004777575aad012103d3825bc4de5ea2907ea58d6a4f3156fe5d42807ce327389a639cf01891a28f89fffffffff08669103109d52d30d0794fabbccbc5d493af2a02ca2aa676bf9c1b42ee184e010000006a47304402205f21234d0f12627c061da125b88879d9e1ffb1e69ed7e4e0bda554b497ae4072022035f78d72e615caf10f94cd90346c23687e88866402a381bc7f55f7005e3a6e5a012103230cb3b1541910391ebc5066c9b8bf8951a604c82ee6150cc3c9f2b009a8b420ffffffff0c8cf77b000000000017a9141036bd581929edcc2e4d9df4e70d89332b9f52c9872c172600000000001976a9142770ad512cbe795526f168478c81da530f29b02b88ac7830ac000000000017a914d666d1d9c7194606f6c28a1f9724ae9d1964926f87b01df5050000000017a9144341b638fc9069221ca7c87fa295b0384551ff0187d08b67000000000017a91448a5b794aead0dbaba68eaca461ee12283dde4fa87e83c6700000000001976a914337f42369bb0166242da9b1406d5b7943ce967a088ac9c8a45020000000017a914c3774afe9e8d2c4feb9405308322ad40e0e486a9872defe10b0000000017a9145269b90602b300161deb92fcd5160cee988abaee8716fd1d00000000001976a9145adfe14344e67d1376322c34a3066fad00ea5dce88acc0cf7428000000001976a914e898e9f89d58e30bd4cabcc23abe111e5acffd5e88ac18e70f00000000001976a914497621ab1078911211ad33a6a2c0e0663c06a7d288ac0c46bd5e000000001976a914bcb55f0e60f9859de8a6467f9fcab69745028bf688ac00000000", "vin": [{"sequence": 4294967295, "scriptSig": {"hex": "47304402205fd402f291d0776c3225cfcff9a831c082bc64c96634a0368342f43978e9328702207e0256eab55c97873d9609ccd4f9231851ff9d2ac49f3c1fd3c31c5dfd94c91d012102c4d1ca583753d68986be79ee23a5f14107c5cc44947e4f870ad98658173d0ad4", "asm": "304402205fd402f291d0776c3225cfcff9a831c082bc64c96634a0368342f43978e9328702207e0256eab55c97873d9609ccd4f9231851ff9d2ac49f3c1fd3c31c5dfd94c91d[ALL] 02c4d1ca583753d68986be79ee23a5f14107c5cc44947e4f870ad98658173d0ad4"}, "vout": 1, "txid": "844bc97ed7de484f322a531342dba3d2c4e60b2f36529cbcc6d0556410c7e6b8"}, {"sequence": 4294967295, "scriptSig": {"hex": "473044022054464b950b96376d0a0ead774b4aca785a733139517cedafedff7f94fb609f6c02204e1c85bd7d601e6ed7e5bedc7cd1deedf6f1c82f4398441edc4be3dd2ce09b98012102f36b86d6f69739dc9251a4ea4c1abe13f06e71e9c28cb3c80400bcea52d33abd", "asm": "3044022054464b950b96376d0a0ead774b4aca785a733139517cedafedff7f94fb609f6c02204e1c85bd7d601e6ed7e5bedc7cd1deedf6f1c82f4398441edc4be3dd2ce09b98[ALL] 02f36b86d6f69739dc9251a4ea4c1abe13f06e71e9c28cb3c80400bcea52d33abd"}, "vout": 4, "txid": "3459ebbad34470b4fad00af04d24eae136431253107f721e67f904d9bb37c826"}, {"sequence": 4294967295, "scriptSig": {"hex": "483045022100d50bbbcaad2b44c5836257024917446ef7af91ecab209e5ffa3ba663a402396f0220412d5c4bead2b029ac36f843345e8ec6615abad82dc225a2b657da8010a2aaf5012102ee23ba04820637fa80d0465a373711f32fb4b9ffb0c920b2345ea43297f9e333", "asm": "3045022100d50bbbcaad2b44c5836257024917446ef7af91ecab209e5ffa3ba663a402396f0220412d5c4bead2b029ac36f843345e8ec6615abad82dc225a2b657da8010a2aaf5[ALL] 02ee23ba04820637fa80d0465a373711f32fb4b9ffb0c920b2345ea43297f9e333"}, "vout": 1, "txid": "6d6f2dd62a6f705f00e0925c37f6cf0f094f86c3644b546dd2a30618dac0444a"}, {"sequence": 4294967295, "scriptSig": {"hex": "473044022006c4c0506c374497668def262cfe324ef7da889fd0315319bf3bb7a97fe7737a022031821c62d1da8d712ab4d0d03d6dd859b43dc7f3a827ab15073fbda5977e533201210200ef399dfd462c2d7615f68b091dafe83e106a1c353a964737106d9b0d9c4b8f", "asm": "3044022006c4c0506c374497668def262cfe324ef7da889fd0315319bf3bb7a97fe7737a022031821c62d1da8d712ab4d0d03d6dd859b43dc7f3a827ab15073fbda5977e5332[ALL] 0200ef399dfd462c2d7615f68b091dafe83e106a1c353a964737106d9b0d9c4b8f"}, "vout": 0, "txid": "e9780da532faf4e4ae7525f0747dde50c1944e0c66dc1511435334beac594ac0"}, {"sequence": 4294967295, "scriptSig": {"hex": "48304502210096064f59088a9ea0554e868263ad92fd201e95ef6dda43720deb5936f5c2e369022017b99fdf49eee51bfa32a24fd64e26612348d748d6c394d71c00db4a184bc793012103a5544f2c3e30e8e8af822c3aed5ec5d4b2c77543a68f1b65842cbfb3fd88bbac", "asm": "304502210096064f59088a9ea0554e868263ad92fd201e95ef6dda43720deb5936f5c2e369022017b99fdf49eee51bfa32a24fd64e26612348d748d6c394d71c00db4a184bc793[ALL] 03a5544f2c3e30e8e8af822c3aed5ec5d4b2c77543a68f1b65842cbfb3fd88bbac"}, "vout": 11, "txid": "7cccbcc2d78d9c043963809214ddc51effbccccf00b5963505edddc7ff0fa8ea"}, {"sequence": 4294967295, "scriptSig": {"hex": "483045022100c9aa3be900b9824fc96f0a377e1eaf7f88469209d6187c77f1e96610c3ea558202204a91f5833a074122d4bbf5763a24226938ac4100c4f10aa72b11c0abaaf74f38012102afaea2e250e9a1a64b6c94247831cb3931aa43911658cec1b876728bdcc3c61c", "asm": "3045022100c9aa3be900b9824fc96f0a377e1eaf7f88469209d6187c77f1e96610c3ea558202204a91f5833a074122d4bbf5763a24226938ac4100c4f10aa72b11c0abaaf74f38[ALL] 02afaea2e250e9a1a64b6c94247831cb3931aa43911658cec1b876728bdcc3c61c"}, "vout": 12, "txid": "7970d48b819842c11bc1ac8468fcee613ec6373c3855e3d0d34b1aea39d2e7c5"}, {"sequence": 4294967295, "scriptSig": {"hex": "483045022100cfd0dcc3fca9156d567097c7b6df14b542a6f0b0ebd4bf39ca884299c95efe590220462e5d874e12a2e18f31e8aab374686d9369821a6fe0a60467f678a840e82712012103cd0731d54bff2bcb379842ad85996c4126018933f6de53b6eb27b3a60b8dd691", "asm": "3045022100cfd0dcc3fca9156d567097c7b6df14b542a6f0b0ebd4bf39ca884299c95efe590220462e5d874e12a2e18f31e8aab374686d9369821a6fe0a60467f678a840e82712[ALL] 03cd0731d54bff2bcb379842ad85996c4126018933f6de53b6eb27b3a60b8dd691"}, "vout": 5, "txid": "7508e8805d2e08201e608ae29cb3a7ff5be35a511311812cf4daa35c6f1ac0b2"}, {"sequence": 4294967295, "scriptSig": {"hex": "483045022100b5dfb7b97a835cae830e754533ce6448459729076c26d9880527b9e324e3d5c00220529bb3ac1e6d68865b7a7eaa9b0dde92a2957a4c8acbbf2205b811052fc6a0f7012103459b727714e144f3f1494cd4198a3afeed623a50fbec0ec63cde0cf6f52c1003", "asm": "3045022100b5dfb7b97a835cae830e754533ce6448459729076c26d9880527b9e324e3d5c00220529bb3ac1e6d68865b7a7eaa9b0dde92a2957a4c8acbbf2205b811052fc6a0f7[ALL] 03459b727714e144f3f1494cd4198a3afeed623a50fbec0ec63cde0cf6f52c1003"}, "vout": 0, "txid": "2c81d03d7b982efc8335d4278024d254e1ba5e874150f0999da861962e0f8daa"}, {"sequence": 4294967295, "scriptSig": {"hex": "483045022100e3a155554ecfca96caa5bb35ce49d9f28f6bd26c83bd9bf9644ffb4ce9b630b302202f7ac0399dfb2815b576fefcc821063f64149124015283d464ca3c048805ebaf012102260aaa4b5f8bb197aee67a3a79b2820ed73ffc041f774e1c5e97cf0619238464", "asm": "3045022100e3a155554ecfca96caa5bb35ce49d9f28f6bd26c83bd9bf9644ffb4ce9b630b302202f7ac0399dfb2815b576fefcc821063f64149124015283d464ca3c048805ebaf[ALL] 02260aaa4b5f8bb197aee67a3a79b2820ed73ffc041f774e1c5e97cf0619238464"}, "vout": 8, "txid": "fd9eecc97757ca1ddcb0b47badfd97ec17ea81928631bcb439163e434351c9a5"}, {"sequence": 4294967295, "scriptSig": {"hex": "483045022100e0dbae8ba23623060ead487a14acb8dc910bff2baf77f44a59d638538206256c022058394976fc614591878771327271a3dc14dfb5a84059be1c2fe31620c91a0c49012102500ab1a76820eb0f2c151d36d0bcd306518bafe4150f7f3bbc167d30a7bcf59d", "asm": "3045022100e0dbae8ba23623060ead487a14acb8dc910bff2baf77f44a59d638538206256c022058394976fc614591878771327271a3dc14dfb5a84059be1c2fe31620c91a0c49[ALL] 02500ab1a76820eb0f2c151d36d0bcd306518bafe4150f7f3bbc167d30a7bcf59d"}, "vout": 0, "txid": "b4f18779e53cafeb46ee5d23a0b61fd224400304e0a43da0e85382605cbee4a9"}, {"sequence": 4294967295, "scriptSig": {"hex": "4830450221009c39ae54a87daee0557f97d0f49aa9999e74c9d8d2345c39981b3830fc0caef802201ae7973399c8707ca09d14aa1f6ae7d5c1db2aa4e2d4eb01fd71004777575aad012103d3825bc4de5ea2907ea58d6a4f3156fe5d42807ce327389a639cf01891a28f89", "asm": "30450221009c39ae54a87daee0557f97d0f49aa9999e74c9d8d2345c39981b3830fc0caef802201ae7973399c8707ca09d14aa1f6ae7d5c1db2aa4e2d4eb01fd71004777575aad[ALL] 03d3825bc4de5ea2907ea58d6a4f3156fe5d42807ce327389a639cf01891a28f89"}, "vout": 0, "txid": "b955c5f5cc728678acd6fa579b066319c6f75d63df08e3627ffc16700c812c94"}, {"sequence": 4294967295, "scriptSig": {"hex": "47304402205f21234d0f12627c061da125b88879d9e1ffb1e69ed7e4e0bda554b497ae4072022035f78d72e615caf10f94cd90346c23687e88866402a381bc7f55f7005e3a6e5a012103230cb3b1541910391ebc5066c9b8bf8951a604c82ee6150cc3c9f2b009a8b420", "asm": "304402205f21234d0f12627c061da125b88879d9e1ffb1e69ed7e4e0bda554b497ae4072022035f78d72e615caf10f94cd90346c23687e88866402a381bc7f55f7005e3a6e5a[ALL] 03230cb3b1541910391ebc5066c9b8bf8951a604c82ee6150cc3c9f2b009a8b420"}, "vout": 1, "txid": "4e18ee421b9cbf76a62aca022aaf93d4c5cbbcab4f79d0302dd50931106986f0"}], "txid": "2a70e9be69763b7f91b297fd298612af0e59f85e8c10e17e8e456c5ff212fe40", "blocktime": 1537871767, "version": 1, "confirmations": 11490, "time": 1537871767, "locktime": 0, "vsize": 2178, "size": 2178}