{"hash": "2a7cb6ac606ab88e1b39579c5417552a0e46206993d82d6ea6277d4de2648269", "blockhash": "0000000000000000001cda96e906b7601b7a6fb1a3b62bca570a9e5d8f4b3de1", "vout": [{"scriptPubKey": {"reqSigs": 1, "hex": "a9140b964814fe82d5588e7ddd30450618d173001c3b87", "addresses": ["32kHPQBNgSUhcA5Abo3pn5GmNVCxTLbXWu"], "asm": "OP_HASH160 0b964814fe82d5588e7ddd30450618d173001c3b OP_EQUAL", "type": "scripthash"}, "value": 0.00485, "n": 0}, {"scriptPubKey": {"reqSigs": 1, "hex": "76a914deaa174bb80155dfc03c9b75db6f64c32ac1d73188ac", "addresses": ["1MJLmiYA4cZgG3kZFJewg3EG9NzzsCLnDd"], "asm": "OP_DUP OP_HASH160 deaa174bb80155dfc03c9b75db6f64c32ac1d731 OP_EQUALVERIFY OP_CHECKSIG", "type": "pubkeyhash"}, "value": 0.02667289, "n": 1}], "hex": "01000000018913d162577ca79b7cd47d29df955e0dbeced6706901eb60c4e07454628644a1010000006b483045022100b62c614b00dd70732fd7a125d95f92b219986400b2dbec33a90afd57cc884e5902200b1f9ad5f8026453ed961f0723097631d154108d18ca852f2fa49dcdf9b0bfc001210260b8277e3d2d6a6d79471385a4a29e411a3e1f99a5c8d59bea874f03f15a8c8effffffff02886607000000000017a9140b964814fe82d5588e7ddd30450618d173001c3b8719b32800000000001976a914deaa174bb80155dfc03c9b75db6f64c32ac1d73188ac00000000", "vin": [{"sequence": 4294967295, "scriptSig": {"hex": "483045022100b62c614b00dd70732fd7a125d95f92b219986400b2dbec33a90afd57cc884e5902200b1f9ad5f8026453ed961f0723097631d154108d18ca852f2fa49dcdf9b0bfc001210260b8277e3d2d6a6d79471385a4a29e411a3e1f99a5c8d59bea874f03f15a8c8e", "asm": "3045022100b62c614b00dd70732fd7a125d95f92b219986400b2dbec33a90afd57cc884e5902200b1f9ad5f8026453ed961f0723097631d154108d18ca852f2fa49dcdf9b0bfc0[ALL] 0260b8277e3d2d6a6d79471385a4a29e411a3e1f99a5c8d59bea874f03f15a8c8e"}, "vout": 1, "txid": "a14486625474e0c460eb016970d6cebe0d5e95df297dd47c9ba77c5762d11389"}], "txid": "2a7cb6ac606ab88e1b39579c5417552a0e46206993d82d6ea6277d4de2648269", "blocktime": 1537873282, "version": 1, "confirmations": 11485, "time": 1537873282, "locktime": 0, "vsize": 224, "size": 224}