{"hash": "2a8a0bdbbce6e26cb0c09a110375db75d4073bc945527e3889d61d5734c45212", "blockhash": "0000000000000000001cda96e906b7601b7a6fb1a3b62bca570a9e5d8f4b3de1", "vout": [{"scriptPubKey": {"reqSigs": 1, "hex": "76a9140bddafd2fe3c765adb333af2e5b547c85c41851088ac", "addresses": ["125k1BSN1vsqU2NVB3SGN7GwRy94d48Xnx"], "asm": "OP_DUP OP_HASH160 0bddafd2fe3c765adb333af2e5b547c85c418510 OP_EQUALVERIFY OP_CHECKSIG", "type": "pubkeyhash"}, "value": 0.02, "n": 0}, {"scriptPubKey": {"reqSigs": 1, "hex": "76a914f530866eb37c387eabb308ce953068bc4a37cc8a88ac", "addresses": ["1PMSgaqRoLHrHP7HVksHttXmRXZC8k4W4A"], "asm": "OP_DUP OP_HASH160 f530866eb37c387eabb308ce953068bc4a37cc8a OP_EQUALVERIFY OP_CHECKSIG", "type": "pubkeyhash"}, "value": 0.18836709, "n": 1}], "hex": "0100000001cc53dde2d1d7c35e1c05af7eec6b28f71fef2fdff6ccae90dd8b42c55b533e3f010000006b483045022100a881251bdc30f3254403a806032190ee3b7216d4a303df3175d124e1113db67f02202a4a1be99e69f2fad546233398365c612cda2b84c6af33232593943e881be836012103c4e705f97b9d0521855bf3d1d8c8918d37432dff8a570af80976a896f73e1231ffffffff0280841e00000000001976a9140bddafd2fe3c765adb333af2e5b547c85c41851088ace56c1f01000000001976a914f530866eb37c387eabb308ce953068bc4a37cc8a88ac00000000", "vin": [{"sequence": 4294967295, "scriptSig": {"hex": "483045022100a881251bdc30f3254403a806032190ee3b7216d4a303df3175d124e1113db67f02202a4a1be99e69f2fad546233398365c612cda2b84c6af33232593943e881be836012103c4e705f97b9d0521855bf3d1d8c8918d37432dff8a570af80976a896f73e1231", "asm": "3045022100a881251bdc30f3254403a806032190ee3b7216d4a303df3175d124e1113db67f02202a4a1be99e69f2fad546233398365c612cda2b84c6af33232593943e881be836[ALL] 03c4e705f97b9d0521855bf3d1d8c8918d37432dff8a570af80976a896f73e1231"}, "vout": 1, "txid": "3f3e535bc5428bdd90aeccf6df2fef1ff7286bec7eaf051c5ec3d7d1e2dd53cc"}], "txid": "2a8a0bdbbce6e26cb0c09a110375db75d4073bc945527e3889d61d5734c45212", "blocktime": 1537873282, "version": 1, "confirmations": 11481, "time": 1537873282, "locktime": 0, "vsize": 226, "size": 226}