{"hash": "2a926fccbd729fc969f747cef32426cd6cef10fac6aa1ba5a858665b5e8fe0c5", "blockhash": "00000000000000000017f5eb5941039fbcee6240d03bc1f2f8e35350df66a1d8", "vout": [{"scriptPubKey": {"reqSigs": 1, "hex": "a91447234f5c776b8f569839b4d95d7e3c60ff46b61e87", "addresses": ["38BACYcVPWMQW4AvB9aLKHdyKv8QQSjy6g"], "asm": "OP_HASH160 47234f5c776b8f569839b4d95d7e3c60ff46b61e OP_EQUAL", "type": "scripthash"}, "value": 0.0129539, "n": 0}], "hex": "010000000bb2988121ac3c20fc2534ed2c9f754ccfebc3648202219c3acee940b4899fbff4630800006b483045022100b4f3188633c912e04119a570ddbb2ad5a56d858dfbfdd4e5e2a8670a38821cdc02204b105a1d22751a01f16453bfc19c6d9ee2f5f0897facf0707e75a2295cd8d2e701210361a7b6d7a6bad246c2b741d1a58b15ee898226ebcd06264640867789fe1c8194ffffffff4318537da5ee09da7eb464eea43b036189ba4387df3cab9dde320f5e4ec64bb5d90800006b483045022100f254f6e19e1ed4cdda0d75548e2e75fea93fe6c0b6d0567a606dbb77ccdb5f190220656422e85ce2fd4c38eae26cea38598fc15beab49a0d7d7dbcd6ff118f5f38ac01210361a7b6d7a6bad246c2b741d1a58b15ee898226ebcd06264640867789fe1c8194ffffffffe9cf495090cd5626ad10c682a3b1dae0ec6b167bc12c2b97a999b821b54371e66c0a00006a47304402203c92fec45314d2df69a9c649d88e5da84a4cf5d7988516f3ceca983be6b5785302202b5842dfaaa025fd6f89b4e82279c094b49f00fb34b5301e36c742474241f8b501210361a7b6d7a6bad246c2b741d1a58b15ee898226ebcd06264640867789fe1c8194ffffffff9a85c483122f1117532231ccb918eee8b76e5155bef7af47b06f205f0e7a8668140900006a473044022060b98d4eef437a11a774fa0053de433f06f30a02310b0c60d4cfac186dd0ad9a02206e56c6daee314911d25961d334d8cf3309f1bbb812c195ac5ac17d9e8592e2b401210361a7b6d7a6bad246c2b741d1a58b15ee898226ebcd06264640867789fe1c8194ffffffff67aaf63026251fec154c35d4950673a6dd7091785245b6ebd4d83e8e11ddfe74700a00006b483045022100e1df0210ab70475edbc803fc4bca7800e9ad05e675d9883abf860656f0ee1bab02203fc185df087eea70898fa6f771458da02ba873d1886b72d433458efe15ff535601210361a7b6d7a6bad246c2b741d1a58b15ee898226ebcd06264640867789fe1c8194ffffffff3e000d4594bae7fb7255482cda6af3a848a36dbe397ac637fb035d7718862f526e0a00006b4830450221008e42d09da8f5594ccbfe6567d9c439fb9067e3f7adfb7dbe9d1c409e7c2d238602202b2253d3c21d7e06ae299a6e7d01fe2f88569d685a62558b00ee1a7a3e571d6201210361a7b6d7a6bad246c2b741d1a58b15ee898226ebcd06264640867789fe1c8194ffffffff2d68ce952fc22310b801efbf7292de8e51415dd261f2fa8b45504c3804ff7ac26a0a00006a473044022051b5bd294a1bd5feaca6a7623b73362e857acd39e98935feb2c36c88bbee7a46022038d942243c82185d6cb80658c6ddb8872b0169e9dca0fcc58367f4715d7de0fd01210361a7b6d7a6bad246c2b741d1a58b15ee898226ebcd06264640867789fe1c8194ffffffff02cf06e0c3d0dc595c552e2ed456b55195b5719a358f17e69bc4cddea5fb2eb4fa0900006b483045022100df9a218459bf05a46218b04a23995428564cbce9cbbc7c3c0f43cbfd6f828e51022002dc4801046315742cf6b49f0516d8e1bdef20a14523de20576d2e958d3db92f01210361a7b6d7a6bad246c2b741d1a58b15ee898226ebcd06264640867789fe1c8194ffffffffda47e7198b3fc9abf682a5d93d3a96a9c65b309c786b4114d9754a18b7db38d6950900006b483045022100c87a43bc20a00e814354992ce4e6be48e8d2ed3c0ae1be2e9a57f531b1647c8b022070e41fec3ddbb9ab4febd75ec526ea53c850a04c2588f878ebc09275488ee4f301210361a7b6d7a6bad246c2b741d1a58b15ee898226ebcd06264640867789fe1c8194ffffffff953d63bb3a06eda9b63c5c1aebc73f20d908d5677a021b24881ce3775824c070c50800006b483045022100cfc27ff3d51b4800274e644053710f06409bd61d495f2bb1533da1e20071255602204718eec07674112cad4320856a18201b9db3b3f67be267012cc7d24b9c8d01aa01210361a7b6d7a6bad246c2b741d1a58b15ee898226ebcd06264640867789fe1c8194ffffffff68e85ac0d26861d553eaf6738eda22366ff616d2df64d1ad3a3992bc517a3e41850800006b483045022100a47b38471090d184e332f29891ef74947e644a342d115b85a7018866e01db62e02203d10e5a7c499cbd6898ff1beb29efb688d5f209a950b853004fac0620b4da36101210361a7b6d7a6bad246c2b741d1a58b15ee898226ebcd06264640867789fe1c8194ffffffff011ec413000000000017a91447234f5c776b8f569839b4d95d7e3c60ff46b61e8700000000", "vin": [{"sequence": 4294967295, "scriptSig": {"hex": "483045022100b4f3188633c912e04119a570ddbb2ad5a56d858dfbfdd4e5e2a8670a38821cdc02204b105a1d22751a01f16453bfc19c6d9ee2f5f0897facf0707e75a2295cd8d2e701210361a7b6d7a6bad246c2b741d1a58b15ee898226ebcd06264640867789fe1c8194", "asm": "3045022100b4f3188633c912e04119a570ddbb2ad5a56d858dfbfdd4e5e2a8670a38821cdc02204b105a1d22751a01f16453bfc19c6d9ee2f5f0897facf0707e75a2295cd8d2e7[ALL] 0361a7b6d7a6bad246c2b741d1a58b15ee898226ebcd06264640867789fe1c8194"}, "vout": 2147, "txid": "f4bf9f89b440e9ce3a9c21028264c3ebcf4c759f2ced3425fc203cac218198b2"}, {"sequence": 4294967295, "scriptSig": {"hex": "483045022100f254f6e19e1ed4cdda0d75548e2e75fea93fe6c0b6d0567a606dbb77ccdb5f190220656422e85ce2fd4c38eae26cea38598fc15beab49a0d7d7dbcd6ff118f5f38ac01210361a7b6d7a6bad246c2b741d1a58b15ee898226ebcd06264640867789fe1c8194", "asm": "3045022100f254f6e19e1ed4cdda0d75548e2e75fea93fe6c0b6d0567a606dbb77ccdb5f190220656422e85ce2fd4c38eae26cea38598fc15beab49a0d7d7dbcd6ff118f5f38ac[ALL] 0361a7b6d7a6bad246c2b741d1a58b15ee898226ebcd06264640867789fe1c8194"}, "vout": 2265, "txid": "b54bc64e5e0f32de9dab3cdf8743ba8961033ba4ee64b47eda09eea57d531843"}, {"sequence": 4294967295, "scriptSig": {"hex": "47304402203c92fec45314d2df69a9c649d88e5da84a4cf5d7988516f3ceca983be6b5785302202b5842dfaaa025fd6f89b4e82279c094b49f00fb34b5301e36c742474241f8b501210361a7b6d7a6bad246c2b741d1a58b15ee898226ebcd06264640867789fe1c8194", "asm": "304402203c92fec45314d2df69a9c649d88e5da84a4cf5d7988516f3ceca983be6b5785302202b5842dfaaa025fd6f89b4e82279c094b49f00fb34b5301e36c742474241f8b5[ALL] 0361a7b6d7a6bad246c2b741d1a58b15ee898226ebcd06264640867789fe1c8194"}, "vout": 2668, "txid": "e67143b521b899a9972b2cc17b166bece0dab1a382c610ad2656cd905049cfe9"}, {"sequence": 4294967295, "scriptSig": {"hex": "473044022060b98d4eef437a11a774fa0053de433f06f30a02310b0c60d4cfac186dd0ad9a02206e56c6daee314911d25961d334d8cf3309f1bbb812c195ac5ac17d9e8592e2b401210361a7b6d7a6bad246c2b741d1a58b15ee898226ebcd06264640867789fe1c8194", "asm": "3044022060b98d4eef437a11a774fa0053de433f06f30a02310b0c60d4cfac186dd0ad9a02206e56c6daee314911d25961d334d8cf3309f1bbb812c195ac5ac17d9e8592e2b4[ALL] 0361a7b6d7a6bad246c2b741d1a58b15ee898226ebcd06264640867789fe1c8194"}, "vout": 2324, "txid": "68867a0e5f206fb047aff7be55516eb7e8ee18b9cc31225317112f1283c4859a"}, {"sequence": 4294967295, "scriptSig": {"hex": "483045022100e1df0210ab70475edbc803fc4bca7800e9ad05e675d9883abf860656f0ee1bab02203fc185df087eea70898fa6f771458da02ba873d1886b72d433458efe15ff535601210361a7b6d7a6bad246c2b741d1a58b15ee898226ebcd06264640867789fe1c8194", "asm": "3045022100e1df0210ab70475edbc803fc4bca7800e9ad05e675d9883abf860656f0ee1bab02203fc185df087eea70898fa6f771458da02ba873d1886b72d433458efe15ff5356[ALL] 0361a7b6d7a6bad246c2b741d1a58b15ee898226ebcd06264640867789fe1c8194"}, "vout": 2672, "txid": "74fedd118e3ed8d4ebb64552789170dda6730695d4354c15ec1f252630f6aa67"}, {"sequence": 4294967295, "scriptSig": {"hex": "4830450221008e42d09da8f5594ccbfe6567d9c439fb9067e3f7adfb7dbe9d1c409e7c2d238602202b2253d3c21d7e06ae299a6e7d01fe2f88569d685a62558b00ee1a7a3e571d6201210361a7b6d7a6bad246c2b741d1a58b15ee898226ebcd06264640867789fe1c8194", "asm": "30450221008e42d09da8f5594ccbfe6567d9c439fb9067e3f7adfb7dbe9d1c409e7c2d238602202b2253d3c21d7e06ae299a6e7d01fe2f88569d685a62558b00ee1a7a3e571d62[ALL] 0361a7b6d7a6bad246c2b741d1a58b15ee898226ebcd06264640867789fe1c8194"}, "vout": 2670, "txid": "522f8618775d03fb37c67a39be6da348a8f36ada2c485572fbe7ba94450d003e"}, {"sequence": 4294967295, "scriptSig": {"hex": "473044022051b5bd294a1bd5feaca6a7623b73362e857acd39e98935feb2c36c88bbee7a46022038d942243c82185d6cb80658c6ddb8872b0169e9dca0fcc58367f4715d7de0fd01210361a7b6d7a6bad246c2b741d1a58b15ee898226ebcd06264640867789fe1c8194", "asm": "3044022051b5bd294a1bd5feaca6a7623b73362e857acd39e98935feb2c36c88bbee7a46022038d942243c82185d6cb80658c6ddb8872b0169e9dca0fcc58367f4715d7de0fd[ALL] 0361a7b6d7a6bad246c2b741d1a58b15ee898226ebcd06264640867789fe1c8194"}, "vout": 2666, "txid": "c27aff04384c50458bfaf261d25d41518ede9272bfef01b81023c22f95ce682d"}, {"sequence": 4294967295, "scriptSig": {"hex": "483045022100df9a218459bf05a46218b04a23995428564cbce9cbbc7c3c0f43cbfd6f828e51022002dc4801046315742cf6b49f0516d8e1bdef20a14523de20576d2e958d3db92f01210361a7b6d7a6bad246c2b741d1a58b15ee898226ebcd06264640867789fe1c8194", "asm": "3045022100df9a218459bf05a46218b04a23995428564cbce9cbbc7c3c0f43cbfd6f828e51022002dc4801046315742cf6b49f0516d8e1bdef20a14523de20576d2e958d3db92f[ALL] 0361a7b6d7a6bad246c2b741d1a58b15ee898226ebcd06264640867789fe1c8194"}, "vout": 2554, "txid": "b42efba5decdc49be6178f359a71b59551b556d42e2e555c59dcd0c3e006cf02"}, {"sequence": 4294967295, "scriptSig": {"hex": "483045022100c87a43bc20a00e814354992ce4e6be48e8d2ed3c0ae1be2e9a57f531b1647c8b022070e41fec3ddbb9ab4febd75ec526ea53c850a04c2588f878ebc09275488ee4f301210361a7b6d7a6bad246c2b741d1a58b15ee898226ebcd06264640867789fe1c8194", "asm": "3045022100c87a43bc20a00e814354992ce4e6be48e8d2ed3c0ae1be2e9a57f531b1647c8b022070e41fec3ddbb9ab4febd75ec526ea53c850a04c2588f878ebc09275488ee4f3[ALL] 0361a7b6d7a6bad246c2b741d1a58b15ee898226ebcd06264640867789fe1c8194"}, "vout": 2453, "txid": "d638dbb7184a75d914416b789c305bc6a9963a3dd9a582f6abc93f8b19e747da"}, {"sequence": 4294967295, "scriptSig": {"hex": "483045022100cfc27ff3d51b4800274e644053710f06409bd61d495f2bb1533da1e20071255602204718eec07674112cad4320856a18201b9db3b3f67be267012cc7d24b9c8d01aa01210361a7b6d7a6bad246c2b741d1a58b15ee898226ebcd06264640867789fe1c8194", "asm": "3045022100cfc27ff3d51b4800274e644053710f06409bd61d495f2bb1533da1e20071255602204718eec07674112cad4320856a18201b9db3b3f67be267012cc7d24b9c8d01aa[ALL] 0361a7b6d7a6bad246c2b741d1a58b15ee898226ebcd06264640867789fe1c8194"}, "vout": 2245, "txid": "70c0245877e31c88241b027a67d508d9203fc7eb1a5c3cb6a9ed063abb633d95"}, {"sequence": 4294967295, "scriptSig": {"hex": "483045022100a47b38471090d184e332f29891ef74947e644a342d115b85a7018866e01db62e02203d10e5a7c499cbd6898ff1beb29efb688d5f209a950b853004fac0620b4da36101210361a7b6d7a6bad246c2b741d1a58b15ee898226ebcd06264640867789fe1c8194", "asm": "3045022100a47b38471090d184e332f29891ef74947e644a342d115b85a7018866e01db62e02203d10e5a7c499cbd6898ff1beb29efb688d5f209a950b853004fac0620b4da361[ALL] 0361a7b6d7a6bad246c2b741d1a58b15ee898226ebcd06264640867789fe1c8194"}, "vout": 2181, "txid": "413e7a51bc92393aadd164dfd216f66f3622da8e73f6ea53d56168d2c05ae868"}], "txid": "2a926fccbd729fc969f747cef32426cd6cef10fac6aa1ba5a858665b5e8fe0c5", "blocktime": 1537874412, "version": 1, "confirmations": 11468, "time": 1537874412, "locktime": 0, "vsize": 1667, "size": 1667}