{"hash": "a0b15d7ce547ddedd2dc5d0fafbf42a9fa8978fb3a91884820a7d5d8e3020a69", "blockhash": "0000000000000000001e0dab787dd257d1dbfcb92a98c2207d5e1078be1f4165", "vout": [{"scriptPubKey": {"reqSigs": 1, "hex": "001432bbf3adbb76b5e1673f9b1bd536dfe7f9796a3e", "addresses": ["bc1qx2al8tdmw667zeelnvda2dkluluhj637lyzya3"], "asm": "0 32bbf3adbb76b5e1673f9b1bd536dfe7f9796a3e", "type": "witness_v0_keyhash"}, "value": 3.515e-05, "n": 0}, {"scriptPubKey": {"reqSigs": 1, "hex": "a91475674220caeb468d3534c5ed8ddf008429e5ad2d87", "addresses": ["3CPngW2XJ7dSa1SvLwq1EfKPoLV2NWQP91"], "asm": "OP_HASH160 75674220caeb468d3534c5ed8ddf008429e5ad2d OP_EQUAL", "type": "scripthash"}, "value": 0.00396346, "n": 1}], "hex": "01000000000101d9ed52223219e9b80fe182db72a25b7c49b67f3fb52cc6a65c68a40b838e8b950d00000017160014ce79cb515a3c56941c4ee3c3d53dd1f3da76987fffffffff02bb0d00000000000016001432bbf3adbb76b5e1673f9b1bd536dfe7f9796a3e3a0c06000000000017a91475674220caeb468d3534c5ed8ddf008429e5ad2d8702483045022100ffc57520270d1d0225e5ee5ab6e818a2f48ad2ca5742e3c2afc12fe3321d760b022049d93221c574bbb98f5506ec3f9f2895546b6205ba5da545cdacd9b7d4d28f620121036b96bd38af51e0e621eec7a2e67238a6c4a8a2ccd37bd1b6873535fc79ca224300000000", "vin": [{"txinwitness": ["3045022100ffc57520270d1d0225e5ee5ab6e818a2f48ad2ca5742e3c2afc12fe3321d760b022049d93221c574bbb98f5506ec3f9f2895546b6205ba5da545cdacd9b7d4d28f6201", "036b96bd38af51e0e621eec7a2e67238a6c4a8a2ccd37bd1b6873535fc79ca2243"], "sequence": 4294967295, "scriptSig": {"hex": "160014ce79cb515a3c56941c4ee3c3d53dd1f3da76987f", "asm": "0014ce79cb515a3c56941c4ee3c3d53dd1f3da76987f"}, "vout": 13, "txid": "958b8e830ba4685ca6c62cb53f7fb6497c5ba272db82e10fb8e919322252edd9"}], "txid": "2a98a310c89694728f8df9eef9cdd30c2e8ec77286c52874b501f2c80bd8e8d9", "blocktime": 1537872475, "version": 1, "confirmations": 11486, "time": 1537872475, "locktime": 0, "vsize": 165, "size": 247}