{"hash": "2a995d22e184d2bd1d884a3ef618114e06d98e8b5981b644eeff5dedfefde648", "blockhash": "0000000000000000001cda96e906b7601b7a6fb1a3b62bca570a9e5d8f4b3de1", "vout": [{"scriptPubKey": {"reqSigs": 1, "hex": "21020aab8308d4df375a846a9e3b1c7e99597b90497efa021d50bcf1bbba23246527ac", "addresses": ["1LMUVLvt6jAszL8ndKzbvnfsD3ZJWd45BS"], "asm": "020aab8308d4df375a846a9e3b1c7e99597b90497efa021d50bcf1bbba23246527 OP_CHECKSIG", "type": "pubkey"}, "value": 0.0001, "n": 0}, {"scriptPubKey": {"reqSigs": 1, "hex": "21020aab8308d4df375a846a9e3b1c7e99597b90497efa021d50bcf1bbba23246527ac", "addresses": ["1LMUVLvt6jAszL8ndKzbvnfsD3ZJWd45BS"], "asm": "020aab8308d4df375a846a9e3b1c7e99597b90497efa021d50bcf1bbba23246527 OP_CHECKSIG", "type": "pubkey"}, "value": 0.0001, "n": 1}, {"scriptPubKey": {"reqSigs": 1, "hex": "21020aab8308d4df375a846a9e3b1c7e99597b90497efa021d50bcf1bbba23246527ac", "addresses": ["1LMUVLvt6jAszL8ndKzbvnfsD3ZJWd45BS"], "asm": "020aab8308d4df375a846a9e3b1c7e99597b90497efa021d50bcf1bbba23246527 OP_CHECKSIG", "type": "pubkey"}, "value": 0.0001, "n": 2}, {"scriptPubKey": {"reqSigs": 1, "hex": "21020aab8308d4df375a846a9e3b1c7e99597b90497efa021d50bcf1bbba23246527ac", "addresses": ["1LMUVLvt6jAszL8ndKzbvnfsD3ZJWd45BS"], "asm": "020aab8308d4df375a846a9e3b1c7e99597b90497efa021d50bcf1bbba23246527 OP_CHECKSIG", "type": "pubkey"}, "value": 0.0001, "n": 3}, {"scriptPubKey": {"reqSigs": 1, "hex": "21020aab8308d4df375a846a9e3b1c7e99597b90497efa021d50bcf1bbba23246527ac", "addresses": ["1LMUVLvt6jAszL8ndKzbvnfsD3ZJWd45BS"], "asm": "020aab8308d4df375a846a9e3b1c7e99597b90497efa021d50bcf1bbba23246527 OP_CHECKSIG", "type": "pubkey"}, "value": 0.0001, "n": 4}, {"scriptPubKey": {"reqSigs": 1, "hex": "21020aab8308d4df375a846a9e3b1c7e99597b90497efa021d50bcf1bbba23246527ac", "addresses": ["1LMUVLvt6jAszL8ndKzbvnfsD3ZJWd45BS"], "asm": "020aab8308d4df375a846a9e3b1c7e99597b90497efa021d50bcf1bbba23246527 OP_CHECKSIG", "type": "pubkey"}, "value": 0.0001, "n": 5}, {"scriptPubKey": {"reqSigs": 1, "hex": "21020aab8308d4df375a846a9e3b1c7e99597b90497efa021d50bcf1bbba23246527ac", "addresses": ["1LMUVLvt6jAszL8ndKzbvnfsD3ZJWd45BS"], "asm": "020aab8308d4df375a846a9e3b1c7e99597b90497efa021d50bcf1bbba23246527 OP_CHECKSIG", "type": "pubkey"}, "value": 0.0001, "n": 6}, {"scriptPubKey": {"reqSigs": 1, "hex": "21020aab8308d4df375a846a9e3b1c7e99597b90497efa021d50bcf1bbba23246527ac", "addresses": ["1LMUVLvt6jAszL8ndKzbvnfsD3ZJWd45BS"], "asm": "020aab8308d4df375a846a9e3b1c7e99597b90497efa021d50bcf1bbba23246527 OP_CHECKSIG", "type": "pubkey"}, "value": 0.0001, "n": 7}, {"scriptPubKey": {"reqSigs": 1, "hex": "21020aab8308d4df375a846a9e3b1c7e99597b90497efa021d50bcf1bbba23246527ac", "addresses": ["1LMUVLvt6jAszL8ndKzbvnfsD3ZJWd45BS"], "asm": "020aab8308d4df375a846a9e3b1c7e99597b90497efa021d50bcf1bbba23246527 OP_CHECKSIG", "type": "pubkey"}, "value": 0.0001, "n": 8}, {"scriptPubKey": {"reqSigs": 1, "hex": "21020aab8308d4df375a846a9e3b1c7e99597b90497efa021d50bcf1bbba23246527ac", "addresses": ["1LMUVLvt6jAszL8ndKzbvnfsD3ZJWd45BS"], "asm": "020aab8308d4df375a846a9e3b1c7e99597b90497efa021d50bcf1bbba23246527 OP_CHECKSIG", "type": "pubkey"}, "value": 0.0001, "n": 9}, {"scriptPubKey": {"reqSigs": 1, "hex": "76a914d449a7d07273c7d183801b12bf646914444ad11188ac", "addresses": ["1LMUVLvt6jAszL8ndKzbvnfsD3ZJWd45BS"], "asm": "OP_DUP OP_HASH160 d449a7d07273c7d183801b12bf646914444ad111 OP_EQUALVERIFY OP_CHECKSIG", "type": "pubkeyhash"}, "value": 0.14257055, "n": 10}], "hex": "010000000122d57b5cfd7dba2e2992d6780fd2fb5f74e342ea9015602941dee0ac74530eeb0a0000006b483045022100bc2898531bf86b2e3292755e9c9248d271689613da554c733cf3e54a3a1b0c8102203bf088874643783873a7d82f65cd0ffeaf8450f05b6aa6b927e21b139f9d1f230121020aab8308d4df375a846a9e3b1c7e99597b90497efa021d50bcf1bbba23246527ffffffff0b10270000000000002321020aab8308d4df375a846a9e3b1c7e99597b90497efa021d50bcf1bbba23246527ac10270000000000002321020aab8308d4df375a846a9e3b1c7e99597b90497efa021d50bcf1bbba23246527ac10270000000000002321020aab8308d4df375a846a9e3b1c7e99597b90497efa021d50bcf1bbba23246527ac10270000000000002321020aab8308d4df375a846a9e3b1c7e99597b90497efa021d50bcf1bbba23246527ac10270000000000002321020aab8308d4df375a846a9e3b1c7e99597b90497efa021d50bcf1bbba23246527ac10270000000000002321020aab8308d4df375a846a9e3b1c7e99597b90497efa021d50bcf1bbba23246527ac10270000000000002321020aab8308d4df375a846a9e3b1c7e99597b90497efa021d50bcf1bbba23246527ac10270000000000002321020aab8308d4df375a846a9e3b1c7e99597b90497efa021d50bcf1bbba23246527ac10270000000000002321020aab8308d4df375a846a9e3b1c7e99597b90497efa021d50bcf1bbba23246527ac10270000000000002321020aab8308d4df375a846a9e3b1c7e99597b90497efa021d50bcf1bbba23246527ac9f8bd900000000001976a914d449a7d07273c7d183801b12bf646914444ad11188ac00000000", "vin": [{"sequence": 4294967295, "scriptSig": {"hex": "483045022100bc2898531bf86b2e3292755e9c9248d271689613da554c733cf3e54a3a1b0c8102203bf088874643783873a7d82f65cd0ffeaf8450f05b6aa6b927e21b139f9d1f230121020aab8308d4df375a846a9e3b1c7e99597b90497efa021d50bcf1bbba23246527", "asm": "3045022100bc2898531bf86b2e3292755e9c9248d271689613da554c733cf3e54a3a1b0c8102203bf088874643783873a7d82f65cd0ffeaf8450f05b6aa6b927e21b139f9d1f23[ALL] 020aab8308d4df375a846a9e3b1c7e99597b90497efa021d50bcf1bbba23246527"}, "vout": 10, "txid": "eb0e5374ace0de4129601590ea42e3745ffbd20f78d692292eba7dfd5c7bd522"}], "txid": "2a995d22e184d2bd1d884a3ef618114e06d98e8b5981b644eeff5dedfefde648", "blocktime": 1537873282, "version": 1, "confirmations": 11480, "time": 1537873282, "locktime": 0, "vsize": 632, "size": 632}