{"hash": "f5ef0635ad3223cfeb666f54c7eddb267d8a07570119a376fd0475d85ec034e2", "blockhash": "0000000000000000000baef3f32e3676a92c3b2e5da21b426e4f302fc371ce76", "vout": [{"scriptPubKey": {"reqSigs": 1, "hex": "00141cf3fdcd0ad94d51e2ba0d949989813f9139732b", "addresses": ["bc1qrnelmng2m9x4rc46pk2fnzvp87gnjuetgzgr70"], "asm": "0 1cf3fdcd0ad94d51e2ba0d949989813f9139732b", "type": "witness_v0_keyhash"}, "value": 0.35589923, "n": 0}, {"scriptPubKey": {"reqSigs": 1, "hex": "76a914f226b180f495c4afb3a0477917ae1d04245692d288ac", "addresses": ["1P5NstNYmmf17quBx9qGAZdb2UbHGUr2R9"], "asm": "OP_DUP OP_HASH160 f226b180f495c4afb3a0477917ae1d04245692d2 OP_EQUALVERIFY OP_CHECKSIG", "type": "pubkeyhash"}, "value": 0.015, "n": 1}], "hex": "010000000001018e85156bd63f0e87c0d3bb5350874c349ef8b813adacd0c8a807918ca9541da20000000000ffffffff02230f1f02000000001600141cf3fdcd0ad94d51e2ba0d949989813f9139732b60e31600000000001976a914f226b180f495c4afb3a0477917ae1d04245692d288ac02483045022100da275b7c5c987e98169c8c6c78c22221d03a1db33ea8c4b3049c380d623b9e6902203d1abbe448acd4cd8382bdca31f95f27c9bde2140eb255a6c4a22067f699e06b012103cdbfb5a0905c71971ea48bf71c7cb97804c1557ed58eb790a299a141c106593700000000", "vin": [{"txinwitness": ["3045022100da275b7c5c987e98169c8c6c78c22221d03a1db33ea8c4b3049c380d623b9e6902203d1abbe448acd4cd8382bdca31f95f27c9bde2140eb255a6c4a22067f699e06b01", "03cdbfb5a0905c71971ea48bf71c7cb97804c1557ed58eb790a299a141c1065937"], "sequence": 4294967295, "scriptSig": {"hex": "", "asm": ""}, "vout": 0, "txid": "a21d54a98c9107a8c8d0acad13b8f89e344c875053bbd3c0870e3fd66b15858e"}], "txid": "2a9f1a2b9c7e5e5cb2bcf449660ab1f330f023373b8cf638569bbfb2da9cf4c2", "blocktime": 1537876114, "version": 1, "confirmations": 11460, "time": 1537876114, "locktime": 0, "vsize": 144, "size": 226}