{"hash": "2aa62ecfd921ce42732bcb63238a3cdecef093ca111a871167fc9320471457dc", "blockhash": "0000000000000000000baef3f32e3676a92c3b2e5da21b426e4f302fc371ce76", "vout": [{"scriptPubKey": {"reqSigs": 1, "hex": "76a914b056f412b686ed5e4e47b4c3eeb37c71f716e5d388ac", "addresses": ["1H5Q6PgSbgFVycmnMgY1HdiyNVqYrvNwHE"], "asm": "OP_DUP OP_HASH160 b056f412b686ed5e4e47b4c3eeb37c71f716e5d3 OP_EQUALVERIFY OP_CHECKSIG", "type": "pubkeyhash"}, "value": 0.01562089, "n": 0}, {"scriptPubKey": {"reqSigs": 1, "hex": "76a914d304ceec59c5356600277d13dc7224c17e72725888ac", "addresses": ["1LEmLZchmcn4bgQ4b5EBeJmV6AXEyjW3cx"], "asm": "OP_DUP OP_HASH160 d304ceec59c5356600277d13dc7224c17e727258 OP_EQUALVERIFY OP_CHECKSIG", "type": "pubkeyhash"}, "value": 0.01594988, "n": 1}], "hex": "0100000001e65a89cf8ad935070e64110118fcf5584fad195dddcb325b4bdda99f1491fb60010000006a473044022058dd8bd8a5ff96bce48019de8d6ba1ea75b8a832c2e0434f1cc8799b3082a5e90220199f7e21e1116515d57936ea94c01e8ccf440d6d9d119231a019c7ae9a4d15e901210226577bc129aec90098dad510e5a4fb5fb9ffccfee532d2b4890429b3c4a1693dffffffff02e9d51700000000001976a914b056f412b686ed5e4e47b4c3eeb37c71f716e5d388ac6c561800000000001976a914d304ceec59c5356600277d13dc7224c17e72725888ac00000000", "vin": [{"sequence": 4294967295, "scriptSig": {"hex": "473044022058dd8bd8a5ff96bce48019de8d6ba1ea75b8a832c2e0434f1cc8799b3082a5e90220199f7e21e1116515d57936ea94c01e8ccf440d6d9d119231a019c7ae9a4d15e901210226577bc129aec90098dad510e5a4fb5fb9ffccfee532d2b4890429b3c4a1693d", "asm": "3044022058dd8bd8a5ff96bce48019de8d6ba1ea75b8a832c2e0434f1cc8799b3082a5e90220199f7e21e1116515d57936ea94c01e8ccf440d6d9d119231a019c7ae9a4d15e9[ALL] 0226577bc129aec90098dad510e5a4fb5fb9ffccfee532d2b4890429b3c4a1693d"}, "vout": 1, "txid": "60fb91149fa9dd4b5b32cbdd5d19ad4f58f5fc180111640e0735d98acf895ae6"}], "txid": "2aa62ecfd921ce42732bcb63238a3cdecef093ca111a871167fc9320471457dc", "blocktime": 1537876114, "version": 1, "confirmations": 11460, "time": 1537876114, "locktime": 0, "vsize": 225, "size": 225}