{"hash": "2aa9a9ef65888af626be48d3a25d60a3faf4bf55fb80bfe641f4193b8c03172f", "blockhash": "0000000000000000001cda96e906b7601b7a6fb1a3b62bca570a9e5d8f4b3de1", "vout": [{"scriptPubKey": {"reqSigs": 1, "hex": "76a914db585e6085c8d9931612cbc1414a938c09079ca488ac", "addresses": ["1LznqySFBZdJ7dRi8WmTMmf5wKTz1EJVKM"], "asm": "OP_DUP OP_HASH160 db585e6085c8d9931612cbc1414a938c09079ca4 OP_EQUALVERIFY OP_CHECKSIG", "type": "pubkeyhash"}, "value": 0.01133409, "n": 0}, {"scriptPubKey": {"reqSigs": 1, "hex": "a9146582aff8b402b46a3463a5758f31c0f4d0f886c987", "addresses": ["3AwkjEjU9wGzCsQ62gHaVvnpZghbTAFaRZ"], "asm": "OP_HASH160 6582aff8b402b46a3463a5758f31c0f4d0f886c9 OP_EQUAL", "type": "scripthash"}, "value": 0.00516989, "n": 1}], "hex": "0200000001c5fd343b189764bcdc98eeccee32dc04efad0e90c8dff5623721ff888cf0cd78000000006b4830450221008f0b39199cd2de642095870f44cc08dd326f5ef46645330ec839a444d84b0cb702206c540bc7770639ffbf557ec93e3c32fe81e1799688b012f0b5ceea8ca02af25e01210307673736304b5f6a6b85ce7d372ee96d681c4996f66c788f29995cd8095292b2feffffff02614b1100000000001976a914db585e6085c8d9931612cbc1414a938c09079ca488ac7de307000000000017a9146582aff8b402b46a3463a5758f31c0f4d0f886c98713490800", "vin": [{"sequence": 4294967294, "scriptSig": {"hex": "4830450221008f0b39199cd2de642095870f44cc08dd326f5ef46645330ec839a444d84b0cb702206c540bc7770639ffbf557ec93e3c32fe81e1799688b012f0b5ceea8ca02af25e01210307673736304b5f6a6b85ce7d372ee96d681c4996f66c788f29995cd8095292b2", "asm": "30450221008f0b39199cd2de642095870f44cc08dd326f5ef46645330ec839a444d84b0cb702206c540bc7770639ffbf557ec93e3c32fe81e1799688b012f0b5ceea8ca02af25e[ALL] 0307673736304b5f6a6b85ce7d372ee96d681c4996f66c788f29995cd8095292b2"}, "vout": 0, "txid": "78cdf08c88ff213762f5dfc8900eadef04dc32eeccee98dcbc6497183b34fdc5"}], "txid": "2aa9a9ef65888af626be48d3a25d60a3faf4bf55fb80bfe641f4193b8c03172f", "blocktime": 1537873282, "version": 2, "confirmations": 11485, "time": 1537873282, "locktime": 542995, "vsize": 224, "size": 224}