{"hash": "61a4a251de09b1b9cb38368cd43f67dfa7606595cf9b01eb7c8522c562deef10", "blockhash": "000000000000000000022b45ed06c6f4ccd3cf7fb5ba4856ebd2e58215665228", "vout": [{"scriptPubKey": {"reqSigs": 1, "hex": "76a914b55649c194881389dbf1b54b81a544272554d14d88ac", "addresses": ["1HXpg8D9AMGFVZ9FEU2tkZYvAZ8xBhVudo"], "asm": "OP_DUP OP_HASH160 b55649c194881389dbf1b54b81a544272554d14d OP_EQUALVERIFY OP_CHECKSIG", "type": "pubkeyhash"}, "value": 0.0025156, "n": 0}, {"scriptPubKey": {"reqSigs": 1, "hex": "a91416c48a19375481360843749a3cec532bd272b32087", "addresses": ["33mQEZgJ2xX3YrJcJnbPaJdF8wqPEyi5br"], "asm": "OP_HASH160 16c48a19375481360843749a3cec532bd272b320 OP_EQUAL", "type": "scripthash"}, "value": 0.01001419, "n": 1}], "hex": "02000000000102ada9874a1d372e9e54bde40bd64c5a9eafece1670b42369bfedc6eba875b0175160000001716001434aad618e029b9ad14d259cf4879da93ecd6704ffeffffffc3c7a1c6eb5f9568b2e3bb8ecce6b973f66a7cbbfc5b67cb6a4c284edbe92ddd000000001716001465914a7b705b6d67f70506ded2a80a74eb18d105feffffff02a8d60300000000001976a914b55649c194881389dbf1b54b81a544272554d14d88accb470f000000000017a91416c48a19375481360843749a3cec532bd272b3208702473044022076f6171d124aa42b02da5e2f6adb98e9ac126f622addfff218eebee911a06c2002201429911813ef41d7308b27fe1e737deb6b8859536d3f5f0cc175fcbea158251f0121035e452042c7987674a4a23958b0eb74c10bce941d4688a6d0e39ace7d50e6b6a002483045022100e5a171fee44aa607a9f7e365be530b008303bb3a6e359975e621f804f687f18a022037831c3519948c10321cde53e9ee9588bd30f799cf2618f044eef9de36f1d9a401210337ea4f1aeb89a7926b89f9427c5c5ca0cbeddb7a73d01788bf8ca618edfe3e170b490800", "vin": [{"txinwitness": ["3044022076f6171d124aa42b02da5e2f6adb98e9ac126f622addfff218eebee911a06c2002201429911813ef41d7308b27fe1e737deb6b8859536d3f5f0cc175fcbea158251f01", "035e452042c7987674a4a23958b0eb74c10bce941d4688a6d0e39ace7d50e6b6a0"], "sequence": 4294967294, "scriptSig": {"hex": "16001434aad618e029b9ad14d259cf4879da93ecd6704f", "asm": "001434aad618e029b9ad14d259cf4879da93ecd6704f"}, "vout": 22, "txid": "75015b87ba6edcfe9b36420b67e1ecaf9e5a4cd60be4bd549e2e371d4a87a9ad"}, {"txinwitness": ["3045022100e5a171fee44aa607a9f7e365be530b008303bb3a6e359975e621f804f687f18a022037831c3519948c10321cde53e9ee9588bd30f799cf2618f044eef9de36f1d9a401", "0337ea4f1aeb89a7926b89f9427c5c5ca0cbeddb7a73d01788bf8ca618edfe3e17"], "sequence": 4294967294, "scriptSig": {"hex": "16001465914a7b705b6d67f70506ded2a80a74eb18d105", "asm": "001465914a7b705b6d67f70506ded2a80a74eb18d105"}, "vout": 0, "txid": "dd2de9db4e284c6acb675bfcbb7c6af673b9e6cc8ebbe3b268955febc6a1c7c3"}], "txid": "2aaa9220f6bc70a551f14d043cf314809f34082fd4fa99052aef10d0e0dd02e3", "blocktime": 1537869901, "version": 2, "confirmations": 11524, "time": 1537869901, "locktime": 542987, "vsize": 259, "size": 421}