{"hash": "2ab44357b8eff2a9b4461d6a358e0b57ac0a5b253af4cd4f4020c08301d9933c", "blockhash": "000000000000000000205f8b0775d31398ef75b89a5e8ec8d2c57b4dc0ac4c20", "vout": [{"scriptPubKey": {"reqSigs": 1, "hex": "a914bee4bd4105b34c92d65c5adfea5688ef30f7c59687", "addresses": ["3K6NL5J8bHxqLs2icrKeXRyfnZBVM8hBM1"], "asm": "OP_HASH160 bee4bd4105b34c92d65c5adfea5688ef30f7c596 OP_EQUAL", "type": "scripthash"}, "value": 0.002, "n": 0}, {"scriptPubKey": {"reqSigs": 1, "hex": "76a914db382580e6a2f23c018c650d29f5025edba98a7b88ac", "addresses": ["1Lz8F913Ho7FoGgJSMthZhAg53nSoF4mY4"], "asm": "OP_DUP OP_HASH160 db382580e6a2f23c018c650d29f5025edba98a7b OP_EQUALVERIFY OP_CHECKSIG", "type": "pubkeyhash"}, "value": 0.097775, "n": 1}], "hex": "01000000017895d79c205cbb5e93b70bf7c00a8e36a31898a8d5c5ded3ae05da159e26b4fb000000006a47304402202470150753f3a0bc9fff4f6adc511879935ca895e18b5d10c6b162400f69baad0220617802ac2be2049d9ffacc9f5446a5c011176284994ba18f1c3a865e6c19df050121036b7115b3649819b40b1d42b9722803ad94c9036e527e96ced18c53b234494b88ffffffff02400d03000000000017a914bee4bd4105b34c92d65c5adfea5688ef30f7c596875c319500000000001976a914db382580e6a2f23c018c650d29f5025edba98a7b88ac00000000", "vin": [{"sequence": 4294967295, "scriptSig": {"hex": "47304402202470150753f3a0bc9fff4f6adc511879935ca895e18b5d10c6b162400f69baad0220617802ac2be2049d9ffacc9f5446a5c011176284994ba18f1c3a865e6c19df050121036b7115b3649819b40b1d42b9722803ad94c9036e527e96ced18c53b234494b88", "asm": "304402202470150753f3a0bc9fff4f6adc511879935ca895e18b5d10c6b162400f69baad0220617802ac2be2049d9ffacc9f5446a5c011176284994ba18f1c3a865e6c19df05[ALL] 036b7115b3649819b40b1d42b9722803ad94c9036e527e96ced18c53b234494b88"}, "vout": 0, "txid": "fbb4269e15da05aed3dec5d5a89818a3368e0ac0f70bb7935ebb5c209cd79578"}], "txid": "2ab44357b8eff2a9b4461d6a358e0b57ac0a5b253af4cd4f4020c08301d9933c", "blocktime": 1537871175, "version": 1, "confirmations": 11510, "time": 1537871175, "locktime": 0, "vsize": 223, "size": 223}