{"hash": "3b5ae141f88ae5e3549fb140278bb82f2c740369f80ff18e17579b114b7e4db7", "blockhash": "0000000000000000000baef3f32e3676a92c3b2e5da21b426e4f302fc371ce76", "vout": [{"scriptPubKey": {"reqSigs": 1, "hex": "a91487abd6e8cbe9e56014189c96989f8b8e83379d7387", "addresses": ["3E4P14K6XMyQFymkKMUcxVXo4Thibf7nbn"], "asm": "OP_HASH160 87abd6e8cbe9e56014189c96989f8b8e83379d73 OP_EQUAL", "type": "scripthash"}, "value": 0.00370931, "n": 0}, {"scriptPubKey": {"reqSigs": 1, "hex": "a914a5c679defd49547b8133a1367eeadbdeaecec3da87", "addresses": ["3GoZBZ6F8g4UiCt7moPNLDX7KKwgtGgLUT"], "asm": "OP_HASH160 a5c679defd49547b8133a1367eeadbdeaecec3da OP_EQUAL", "type": "scripthash"}, "value": 0.29860337, "n": 1}], "hex": "010000000001010ad0b0b178177df3447c9d21effbf1ed59f75d8b6516977b453234fc5fef3b4001000000232200202d90cd274cea8141a030c0b79acc5b5c0b80b73d028692a1104913808bff6c09ffffffff02f3a805000000000017a91487abd6e8cbe9e56014189c96989f8b8e83379d7387f1a1c7010000000017a914a5c679defd49547b8133a1367eeadbdeaecec3da87040048304502210094c48a6ec3d1084558fc2270640b27b7427a94b4b7a20412b1492b060388c1a602203bc4dc6734ad160911eeead0669e55842d1a6d30dfbeb3391b72f2da6ad5904c01483045022100b46085660d61f07f027da417f80aea8db3e77fdbf9626bf3b261ef428a31e7cb02200980fcb0f417b65b96fae220a290642158f4178ba4bb7571d944bab95587b066014752210295d70c0f10033e6e119fdc61ddd495bfe23995150af6df4688db5bf235f2853b21023e4b58fb2a91970de56515d11487aabd364f0404f1099bef70493cc56002342352ae00000000", "vin": [{"txinwitness": ["", "304502210094c48a6ec3d1084558fc2270640b27b7427a94b4b7a20412b1492b060388c1a602203bc4dc6734ad160911eeead0669e55842d1a6d30dfbeb3391b72f2da6ad5904c01", "3045022100b46085660d61f07f027da417f80aea8db3e77fdbf9626bf3b261ef428a31e7cb02200980fcb0f417b65b96fae220a290642158f4178ba4bb7571d944bab95587b06601", "52210295d70c0f10033e6e119fdc61ddd495bfe23995150af6df4688db5bf235f2853b21023e4b58fb2a91970de56515d11487aabd364f0404f1099bef70493cc56002342352ae"], "sequence": 4294967295, "scriptSig": {"hex": "2200202d90cd274cea8141a030c0b79acc5b5c0b80b73d028692a1104913808bff6c09", "asm": "00202d90cd274cea8141a030c0b79acc5b5c0b80b73d028692a1104913808bff6c09"}, "vout": 1, "txid": "403bef5ffc3432457b9716658b5df759edf1fbef219d7c44f37d1778b1b0d00a"}], "txid": "2ab99ad9eb15360116becb282a34052de74f70377a2b0043577c844248fc442a", "blocktime": 1537876114, "version": 1, "confirmations": 11462, "time": 1537876114, "locktime": 0, "vsize": 206, "size": 372}