{"hash": "2abbaea1e04ed995b1ec488d2745fdb7e14bf4f80975411c05005cf9ee7c1602", "blockhash": "0000000000000000001cda96e906b7601b7a6fb1a3b62bca570a9e5d8f4b3de1", "vout": [{"scriptPubKey": {"reqSigs": 1, "hex": "76a91401e8a840848ba850276b43b530afdbec88fc170b88ac", "addresses": ["1B6PVzb9wgV6un9nf7LnkBFvx7cC9cpzw"], "asm": "OP_DUP OP_HASH160 01e8a840848ba850276b43b530afdbec88fc170b OP_EQUALVERIFY OP_CHECKSIG", "type": "pubkeyhash"}, "value": 0.0012982, "n": 0}, {"scriptPubKey": {"type": "nulldata", "hex": "6a4c50000077d000019c73d99efb9d24c1c7b933b95b23cc0f42c2fc38c5e5bf9ae76da98a211ab8cb1b1ba6933e896348f4bc16d7326a5baa144106137d3d3a4ebb52bc9a9526289ac0f6612cd74e33776ee4", "asm": "OP_RETURN 000077d000019c73d99efb9d24c1c7b933b95b23cc0f42c2fc38c5e5bf9ae76da98a211ab8cb1b1ba6933e896348f4bc16d7326a5baa144106137d3d3a4ebb52bc9a9526289ac0f6612cd74e33776ee4"}, "value": 0.0, "n": 1}], "hex": "0100000001cdd5b936b0bbaca7070cc651cc5b4557aba5e3e4b84c8ec8ab7f7a8ae44e8d8f010000006b4830450221009f2720f84dc947ef77c7b7521c7ed39f25d117d038afe3b809aa8ed36e13d295022016c0555ced6f5b68fa40c3e452bac23027d7ee861fdbe55bb3efac9f6d8747b8012102f9e1ff45ebc34d29d0dfd8226c0b1175f1b2c6c325012cdc354fba6a4563f132ffffffff021cfb0100000000001976a91401e8a840848ba850276b43b530afdbec88fc170b88ac0000000000000000536a4c50000077d000019c73d99efb9d24c1c7b933b95b23cc0f42c2fc38c5e5bf9ae76da98a211ab8cb1b1ba6933e896348f4bc16d7326a5baa144106137d3d3a4ebb52bc9a9526289ac0f6612cd74e33776ee400000000", "vin": [{"sequence": 4294967295, "scriptSig": {"hex": "4830450221009f2720f84dc947ef77c7b7521c7ed39f25d117d038afe3b809aa8ed36e13d295022016c0555ced6f5b68fa40c3e452bac23027d7ee861fdbe55bb3efac9f6d8747b8012102f9e1ff45ebc34d29d0dfd8226c0b1175f1b2c6c325012cdc354fba6a4563f132", "asm": "30450221009f2720f84dc947ef77c7b7521c7ed39f25d117d038afe3b809aa8ed36e13d295022016c0555ced6f5b68fa40c3e452bac23027d7ee861fdbe55bb3efac9f6d8747b8[ALL] 02f9e1ff45ebc34d29d0dfd8226c0b1175f1b2c6c325012cdc354fba6a4563f132"}, "vout": 1, "txid": "8f8d4ee48a7a7fabc88e4cb8e4e3a5ab57455bcc51c60c07a7acbbb036b9d5cd"}], "txid": "2abbaea1e04ed995b1ec488d2745fdb7e14bf4f80975411c05005cf9ee7c1602", "blocktime": 1537873282, "version": 1, "confirmations": 11484, "time": 1537873282, "locktime": 0, "vsize": 284, "size": 284}