{"hash": "6e71fcdd13008a46e7401300997e81ff39a2754875e0769c41a9fc64585529c6", "blockhash": "0000000000000000000e13cef7c366c0283d82e591d1acd082e914b08063cdf1", "vout": [{"scriptPubKey": {"reqSigs": 1, "hex": "a914d5d8d453cdd5f05de1ed620b8d3324ca7d8a5d8387", "addresses": ["3MBjbyVDn2atEV5azCvDtL5snz32kaAn4Z"], "asm": "OP_HASH160 d5d8d453cdd5f05de1ed620b8d3324ca7d8a5d83 OP_EQUAL", "type": "scripthash"}, "value": 0.0025016, "n": 0}, {"scriptPubKey": {"reqSigs": 1, "hex": "a914f4801e6df36522d161be9945c1d71d2ef7a6853287", "addresses": ["3PypHCrWxR6Sy63aDcTcAgqKaHibSk4zzj"], "asm": "OP_HASH160 f4801e6df36522d161be9945c1d71d2ef7a68532 OP_EQUAL", "type": "scripthash"}, "value": 0.01002589, "n": 1}], "hex": "02000000000102a05b989a00c03cf5e5c4d6eb3ae1b4f628ee6acb5da5fa950ea15a364a9a9d0d01000000171600141c1c80693c18aa6174f8adba00bc648b6fccc6d2feffffffaec4ad693e49a843c42c651bd3a3859280fb97b38b3d05f88a076410509539c30000000017160014ed6942828a3ce46b7b34a8016f51311b055e08ddfeffffff0230d103000000000017a914d5d8d453cdd5f05de1ed620b8d3324ca7d8a5d83875d4c0f000000000017a914f4801e6df36522d161be9945c1d71d2ef7a685328702483045022100bc832f219fcd118fdbff7a617dc4a6fabe48b54f11bebfc57f7e76384b1f7b140220063d92cf950bf1b6280c0c8e39c77d50463b3a1de46fc75a0df59ff724afd5b7012103f446bb76ee4b652f65e50ef05d385bbb3ef72fe63afd74758b2f21a9695b03e202473044022044d05abac0aa8433f725bd683116b9f0a844dd7710489d1e395034e45ef0397d0220737820471fe971b51a2c39a579b04aa0b8a221bbe93ce24f31c799c7280a70e3012103550379eb43cc39475f119cfe3bf3d3573331dba2cb1a899859828a19082a8940ae480800", "vin": [{"txinwitness": ["3045022100bc832f219fcd118fdbff7a617dc4a6fabe48b54f11bebfc57f7e76384b1f7b140220063d92cf950bf1b6280c0c8e39c77d50463b3a1de46fc75a0df59ff724afd5b701", "03f446bb76ee4b652f65e50ef05d385bbb3ef72fe63afd74758b2f21a9695b03e2"], "sequence": 4294967294, "scriptSig": {"hex": "1600141c1c80693c18aa6174f8adba00bc648b6fccc6d2", "asm": "00141c1c80693c18aa6174f8adba00bc648b6fccc6d2"}, "vout": 1, "txid": "0d9d9a4a365aa10e95faa55dcb6aee28f6b4e13aebd6c4e5f53cc0009a985ba0"}, {"txinwitness": ["3044022044d05abac0aa8433f725bd683116b9f0a844dd7710489d1e395034e45ef0397d0220737820471fe971b51a2c39a579b04aa0b8a221bbe93ce24f31c799c7280a70e301", "03550379eb43cc39475f119cfe3bf3d3573331dba2cb1a899859828a19082a8940"], "sequence": 4294967294, "scriptSig": {"hex": "160014ed6942828a3ce46b7b34a8016f51311b055e08dd", "asm": "0014ed6942828a3ce46b7b34a8016f51311b055e08dd"}, "vout": 0, "txid": "c33995501064078af8053d8bb397fb809285a3d31b652cc443a8493e69adc4ae"}], "txid": "2abd8bb4448be5eea46ddd127febe11ad9ea8dc288a0625447a21b34b21178be", "blocktime": 1537871767, "version": 2, "confirmations": 11495, "time": 1537871767, "locktime": 542894, "vsize": 257, "size": 419}