{"hash": "6c4415403b068ff65d21c4f36c5531e162662b8a2e2e512eaa9c7376b92882b1", "blockhash": "00000000000000000024a2167bbff67b0be802c0b01cdd79e6331c2be6459f87", "vout": [{"scriptPubKey": {"reqSigs": 1, "hex": "a9147bbc3d849c3fb17074f02a13a30248ea0cb10cfa87", "addresses": ["3CyGYJco7uXkBQixhA45UPpmiHDjcoqa1o"], "asm": "OP_HASH160 7bbc3d849c3fb17074f02a13a30248ea0cb10cfa OP_EQUAL", "type": "scripthash"}, "value": 0.443, "n": 0}, {"scriptPubKey": {"reqSigs": 1, "hex": "a914e84c8d4bb215898dd960d3124b76eac5e393d1fb87", "addresses": ["3NsJPyDyTF2NRxHemoppmnbRZDEBtdw2ov"], "asm": "OP_HASH160 e84c8d4bb215898dd960d3124b76eac5e393d1fb OP_EQUAL", "type": "scripthash"}, "value": 0.35699169, "n": 1}], "hex": "020000000001015647c874410f26934cbee36f924fdcb6fcde9d0f317f15b7b85ccdb6ead6c528000000001716001482ece4ce3a763708b9c5568f297317b4e36785abfdffffff02e0f6a3020000000017a9147bbc3d849c3fb17074f02a13a30248ea0cb10cfa87e1b920020000000017a914e84c8d4bb215898dd960d3124b76eac5e393d1fb87024730440220098ed83dfdbabffe50c0de54c950ef719d0506af27cb2b00717176c351c1de2e02200a78a4e32b2229f3b3b8b739c9d36246bf05ef013375d644f74a1cf9493ef73b012103015569506ecf02f8672e442d94fe442a7dfa03dcc23724526e4ac56916e513fe04490800", "vin": [{"txinwitness": ["30440220098ed83dfdbabffe50c0de54c950ef719d0506af27cb2b00717176c351c1de2e02200a78a4e32b2229f3b3b8b739c9d36246bf05ef013375d644f74a1cf9493ef73b01", "03015569506ecf02f8672e442d94fe442a7dfa03dcc23724526e4ac56916e513fe"], "sequence": 4294967293, "scriptSig": {"hex": "16001482ece4ce3a763708b9c5568f297317b4e36785ab", "asm": "001482ece4ce3a763708b9c5568f297317b4e36785ab"}, "vout": 0, "txid": "28c5d6eab6cd5cb8b7157f310f9ddefcb6dc4f926fe3be4c93260f4174c84756"}], "txid": "2ac0d558e6a699f94ffd2e08efb69b741c23de9845a5e3083963a895bd78aa51", "blocktime": 1537870564, "version": 2, "confirmations": 11515, "time": 1537870564, "locktime": 542980, "vsize": 166, "size": 247}