{"hash": "2ac8df6f2742eb910c6f9a2b408b7fba37b44832efd4552f49526f2e878a885e", "blockhash": "0000000000000000001f0ddff1eddb255c1121bcd4da4f1bc9a0da00cae72433", "vout": [{"scriptPubKey": {"reqSigs": 1, "hex": "76a914658222bcc3876b0c7e46eb244091cb501beb66f188ac", "addresses": ["1AFj9MxVtxhJrvK1UvDWwkx5cTiKYPmmYq"], "asm": "OP_DUP OP_HASH160 658222bcc3876b0c7e46eb244091cb501beb66f1 OP_EQUALVERIFY OP_CHECKSIG", "type": "pubkeyhash"}, "value": 0.00014681, "n": 0}, {"scriptPubKey": {"reqSigs": 1, "hex": "76a91478e99661e40ae9b5995a49a852b413c911c00b3388ac", "addresses": ["1C2KuxcjqwjjEGCtpM5eo6mom6CZxroLMZ"], "asm": "OP_DUP OP_HASH160 78e99661e40ae9b5995a49a852b413c911c00b33 OP_EQUALVERIFY OP_CHECKSIG", "type": "pubkeyhash"}, "value": 0.002352, "n": 1}], "hex": "0100000001e8954fdf9886434863a807e7d1a5bdfc742a1a44832216496449279a8f2650c3000000006a4730440220323f53b8bd67db3164703d6c572e770d99347aa8a2e8537a5e15d04efae5fecb022024a1286ad8c835cd71518f88c804dcd9ab19ae846ff4ffb9150dbdec59460fdc012103388a4aad4c5dc151540fc5ff4f8a3cc077b2d3eeecd1eba462cff2f18a2d4ae4ffffffff0259390000000000001976a914658222bcc3876b0c7e46eb244091cb501beb66f188acc0960300000000001976a91478e99661e40ae9b5995a49a852b413c911c00b3388ac00000000", "vin": [{"sequence": 4294967295, "scriptSig": {"hex": "4730440220323f53b8bd67db3164703d6c572e770d99347aa8a2e8537a5e15d04efae5fecb022024a1286ad8c835cd71518f88c804dcd9ab19ae846ff4ffb9150dbdec59460fdc012103388a4aad4c5dc151540fc5ff4f8a3cc077b2d3eeecd1eba462cff2f18a2d4ae4", "asm": "30440220323f53b8bd67db3164703d6c572e770d99347aa8a2e8537a5e15d04efae5fecb022024a1286ad8c835cd71518f88c804dcd9ab19ae846ff4ffb9150dbdec59460fdc[ALL] 03388a4aad4c5dc151540fc5ff4f8a3cc077b2d3eeecd1eba462cff2f18a2d4ae4"}, "vout": 0, "txid": "c350268f9a27496449162283441a2a74fcbda5d1e707a86348438698df4f95e8"}], "txid": "2ac8df6f2742eb910c6f9a2b408b7fba37b44832efd4552f49526f2e878a885e", "blocktime": 1537872018, "version": 1, "confirmations": 11489, "time": 1537872018, "locktime": 0, "vsize": 225, "size": 225}