{"hash": "2acd58614b79deebf75a1a88910146db20bcaf2654105ff845c2b45a6d758f64", "blockhash": "0000000000000000001f0ddff1eddb255c1121bcd4da4f1bc9a0da00cae72433", "vout": [{"scriptPubKey": {"type": "nulldata", "hex": "6a4c50000077ab0001de4825a21dd09bb4255e0444af6c953dd567cf27e7e3ef3236678a625097ab00a67cb3161ad038029740894688805baa103a0612e31d5a47cc75bc9a9526289ac0f6612cd74e33776ee4", "asm": "OP_RETURN 000077ab0001de4825a21dd09bb4255e0444af6c953dd567cf27e7e3ef3236678a625097ab00a67cb3161ad038029740894688805baa103a0612e31d5a47cc75bc9a9526289ac0f6612cd74e33776ee4"}, "value": 0.0, "n": 0}, {"scriptPubKey": {"reqSigs": 1, "hex": "76a914abdffaf86a0dac730efd86587ab04bd94c3a80b688ac", "addresses": ["1GfnsEPGFnaoNvir3Kk4BARPVNpHcZQ1wJ"], "asm": "OP_DUP OP_HASH160 abdffaf86a0dac730efd86587ab04bd94c3a80b6 OP_EQUALVERIFY OP_CHECKSIG", "type": "pubkeyhash"}, "value": 0.00118164, "n": 1}], "hex": "010000000152216b25f1d9667d55e06aa749e2baf3ba237d5a4d15852b42c812bcfaed328e010000006a47304402201ab59080ae0db7579d033fbdd2027d4cdf05d24d6e2ccedec958d1823e59f34f02207d111bebc56b5471198617f7b96f6ea99d26ec4ab684bbaa811b693799f81a5f012102fb500aee6da993bd519908ba32b9861ca4195df9f72f57f5b95739b1caed5584ffffffff020000000000000000536a4c50000077ab0001de4825a21dd09bb4255e0444af6c953dd567cf27e7e3ef3236678a625097ab00a67cb3161ad038029740894688805baa103a0612e31d5a47cc75bc9a9526289ac0f6612cd74e33776ee494cd0100000000001976a914abdffaf86a0dac730efd86587ab04bd94c3a80b688ac00000000", "vin": [{"sequence": 4294967295, "scriptSig": {"hex": "47304402201ab59080ae0db7579d033fbdd2027d4cdf05d24d6e2ccedec958d1823e59f34f02207d111bebc56b5471198617f7b96f6ea99d26ec4ab684bbaa811b693799f81a5f012102fb500aee6da993bd519908ba32b9861ca4195df9f72f57f5b95739b1caed5584", "asm": "304402201ab59080ae0db7579d033fbdd2027d4cdf05d24d6e2ccedec958d1823e59f34f02207d111bebc56b5471198617f7b96f6ea99d26ec4ab684bbaa811b693799f81a5f[ALL] 02fb500aee6da993bd519908ba32b9861ca4195df9f72f57f5b95739b1caed5584"}, "vout": 1, "txid": "8e32edfabc12c8422b85154d5a7d23baf3bae249a76ae0557d66d9f1256b2152"}], "txid": "2acd58614b79deebf75a1a88910146db20bcaf2654105ff845c2b45a6d758f64", "blocktime": 1537872018, "version": 1, "confirmations": 11489, "time": 1537872018, "locktime": 0, "vsize": 283, "size": 283}