{"hash": "2ad68969d4e61802e60db68dde120c9eb99801831a351967ab3ee67ec7586ab3", "blockhash": "000000000000000000022b45ed06c6f4ccd3cf7fb5ba4856ebd2e58215665228", "vout": [{"scriptPubKey": {"reqSigs": 1, "hex": "76a91468cd1df22404b33ed0f6a465e7b16c0d119e0e7088ac", "addresses": ["1AZ8zjD1c8NeCjvsdtuPAMQApwXSMR4wrs"], "asm": "OP_DUP OP_HASH160 68cd1df22404b33ed0f6a465e7b16c0d119e0e70 OP_EQUALVERIFY OP_CHECKSIG", "type": "pubkeyhash"}, "value": 0.01698157, "n": 0}], "hex": "010000000234e65f18ad2f1121ffee88e1400ac9d2bc4b70a24502945f1e2df59787622f57000000006b483045022100cc2943ded5675ea9d1e5db4cbf91ca0baee4a1729f8ca59e7549b0c71082f0e102200ed4df259001b0b246d28ffff709c4e93fb7be0c73cbfe7dbb5bba34df175f50012102e3fc490381ea44a6b9662802deccf0766d60ca6778fd14ad476c225c9e47975fffffffff0d022cb636893e1f830bba555f2cb9dfdf3810101fbe6377f13b38c146899d1c010000006a4730440220431debcd326538e02d7a2cd161aa2eba23e1670ea1ba1b69f1d19fc93dee27bc02205e8b7c93ef95ed84f33ec98b699bd532179b3eda51f4a3929f1359ee71b296d4012102dd4d54f80c7e4e9dac8ac6cc4d019793c2ceaaf6273dc72c5ff5f06df5831766ffffffff016de91900000000001976a91468cd1df22404b33ed0f6a465e7b16c0d119e0e7088ac00000000", "vin": [{"sequence": 4294967295, "scriptSig": {"hex": "483045022100cc2943ded5675ea9d1e5db4cbf91ca0baee4a1729f8ca59e7549b0c71082f0e102200ed4df259001b0b246d28ffff709c4e93fb7be0c73cbfe7dbb5bba34df175f50012102e3fc490381ea44a6b9662802deccf0766d60ca6778fd14ad476c225c9e47975f", "asm": "3045022100cc2943ded5675ea9d1e5db4cbf91ca0baee4a1729f8ca59e7549b0c71082f0e102200ed4df259001b0b246d28ffff709c4e93fb7be0c73cbfe7dbb5bba34df175f50[ALL] 02e3fc490381ea44a6b9662802deccf0766d60ca6778fd14ad476c225c9e47975f"}, "vout": 0, "txid": "572f628797f52d1e5f940245a2704bbcd2c90a40e188eeff21112fad185fe634"}, {"sequence": 4294967295, "scriptSig": {"hex": "4730440220431debcd326538e02d7a2cd161aa2eba23e1670ea1ba1b69f1d19fc93dee27bc02205e8b7c93ef95ed84f33ec98b699bd532179b3eda51f4a3929f1359ee71b296d4012102dd4d54f80c7e4e9dac8ac6cc4d019793c2ceaaf6273dc72c5ff5f06df5831766", "asm": "30440220431debcd326538e02d7a2cd161aa2eba23e1670ea1ba1b69f1d19fc93dee27bc02205e8b7c93ef95ed84f33ec98b699bd532179b3eda51f4a3929f1359ee71b296d4[ALL] 02dd4d54f80c7e4e9dac8ac6cc4d019793c2ceaaf6273dc72c5ff5f06df5831766"}, "vout": 1, "txid": "1c9d8946c1383bf17763be1f101038dfdfb92c5f55ba0b831f3e8936b62c020d"}], "txid": "2ad68969d4e61802e60db68dde120c9eb99801831a351967ab3ee67ec7586ab3", "blocktime": 1537869901, "version": 1, "confirmations": 11522, "time": 1537869901, "locktime": 0, "vsize": 339, "size": 339}