{"hash": "d1b2d069fca098dbc773e0e110b883d8c15891bf6f7b8bc45e7aeebd9dca5a94", "blockhash": "0000000000000000000baef3f32e3676a92c3b2e5da21b426e4f302fc371ce76", "vout": [{"scriptPubKey": {"reqSigs": 1, "hex": "76a914be95184f22d28eec8e923e98708511d3cb36460788ac", "addresses": ["1JNhzkL3G4ogaMazsXLQ45UEpo4BGS19e9"], "asm": "OP_DUP OP_HASH160 be95184f22d28eec8e923e98708511d3cb364607 OP_EQUALVERIFY OP_CHECKSIG", "type": "pubkeyhash"}, "value": 0.0024666, "n": 0}, {"scriptPubKey": {"reqSigs": 1, "hex": "a9148a4583368ca99fd3941b7ab3b1a8355efd20b73287", "addresses": ["3EJ8SqGicUP3vqr3ugwB6SQyYKZUM6SdfZ"], "asm": "OP_HASH160 8a4583368ca99fd3941b7ab3b1a8355efd20b732 OP_EQUAL", "type": "scripthash"}, "value": 0.01226334, "n": 1}], "hex": "02000000000102093503a18869faa9353069952992d17c9a0dd59de53240af23d702a0c51ef51611000000171600140a595966307730dd899d61bd8f78e726336e5bfffeffffff941e42a861ea7f685361352542a2e9eb6a2cf45aa958463210039860a81d49db010000001716001430443d4e16531808fe04d49f0865cb7891785058feffffff0284c30300000000001976a914be95184f22d28eec8e923e98708511d3cb36460788ac5eb612000000000017a9148a4583368ca99fd3941b7ab3b1a8355efd20b7328702473044022019597e894eb9581948bcfb7acd65c7df50598fe619bdb95c0bef4349843176b7022036fc1fdaa8f5d203b058b153490adcdbe05c7d566e853334dd07a01aaf54d168012102045c0c54bac822ad09a5a69e8e2c620e8ab189387d0c48e1d699bae0f95d7d610247304402206e35ea2b6be8f21896d5e19dadb823e5118c5845e0a321b3a90d7eefd264b199022023db6782f44ea4a9974478014bf0ed32885aa4ee6823c8c51cda5b6e5f2e80cc012103101c1f4f83999b22de1fde1fa04b54b96c4e46f4edc08a45e2156be40515831017490800", "vin": [{"txinwitness": ["3044022019597e894eb9581948bcfb7acd65c7df50598fe619bdb95c0bef4349843176b7022036fc1fdaa8f5d203b058b153490adcdbe05c7d566e853334dd07a01aaf54d16801", "02045c0c54bac822ad09a5a69e8e2c620e8ab189387d0c48e1d699bae0f95d7d61"], "sequence": 4294967294, "scriptSig": {"hex": "1600140a595966307730dd899d61bd8f78e726336e5bff", "asm": "00140a595966307730dd899d61bd8f78e726336e5bff"}, "vout": 17, "txid": "16f51ec5a002d723af4032e59dd50d9a7cd1922995693035a9fa6988a1033509"}, {"txinwitness": ["304402206e35ea2b6be8f21896d5e19dadb823e5118c5845e0a321b3a90d7eefd264b199022023db6782f44ea4a9974478014bf0ed32885aa4ee6823c8c51cda5b6e5f2e80cc01", "03101c1f4f83999b22de1fde1fa04b54b96c4e46f4edc08a45e2156be405158310"], "sequence": 4294967294, "scriptSig": {"hex": "16001430443d4e16531808fe04d49f0865cb7891785058", "asm": "001430443d4e16531808fe04d49f0865cb7891785058"}, "vout": 1, "txid": "db491da860980310324658a95af42c6aebe9a24225356153687fea61a8421e94"}], "txid": "2ada251fce566a71122714a788333bd69e9f306316b36034e72ce83e304b37c5", "blocktime": 1537876114, "version": 2, "confirmations": 11461, "time": 1537876114, "locktime": 542999, "vsize": 258, "size": 420}