{"hash": "2ade6d833f63f591dc9abdcf9e9547cc4739a409fcf7afb4eb54d25d2d8e644d", "blockhash": "0000000000000000000baef3f32e3676a92c3b2e5da21b426e4f302fc371ce76", "vout": [{"scriptPubKey": {"reqSigs": 1, "hex": "a9149416f0fb0bd64e27cb9770311403f55acd07d32887", "addresses": ["3FC3QvgB6DFw9ahitP6Rk5GzxUY7eY5RM3"], "asm": "OP_HASH160 9416f0fb0bd64e27cb9770311403f55acd07d328 OP_EQUAL", "type": "scripthash"}, "value": 1.5, "n": 0}, {"scriptPubKey": {"reqSigs": 1, "hex": "76a914bae025140c454518b8cba0c25d45a6dc87f4b9ce88ac", "addresses": ["1J37CY8hcdUXQ1KfBhMCsUVafa8XjDsdCn"], "asm": "OP_DUP OP_HASH160 bae025140c454518b8cba0c25d45a6dc87f4b9ce OP_EQUALVERIFY OP_CHECKSIG", "type": "pubkeyhash"}, "value": 0.52065907, "n": 1}], "hex": "0100000005716c8ab79edfa776a83308e68cff647f7cebb069699cd1b0b85f92f40b853a85000000008b483045022100a97fec05c1ca30a6f5db00515a0322940ea0547c146d1f0fea04581b09e86f970220315e87fd56393313c9b2637cefe30a85cbab457469dc6afb168ac1c2663631e50141042f47b7897ce8fe1fc086f75f0454cd0e7e3a7ac398e9533e6db48e468c09c350f51b82e3e382fcf411b5e889ca4f270d871c96b44d749a33564965d0797fe2e3ffffffff0b920eacc9724c591344ca9f8e692e828ba1297de0892df1efb2593f321e814b010000008b483045022100a81464ce64a567ebdba17f2ed2ca3e4587a9b06365765e48b42c875d5cf6aa9d022021e127da69dc3a30bbe747cddd5995f1249f3afcdbb9f3745418a14d4979c867014104025a1cffe502a80dfa1f543ae14c082aff24d5ecadab160ca904d288eed8e3d8cacef0985f690868df4f416c3890909b4c0c843da153d41382ac20c80170240affffffff15bf6fbde074b2d2cbec94fb55f41fe712d956d7be3be861c79a0adece6a23b3010000008b483045022100a0550aa7ef7ce594b3e66915d1c3a65a328fd9d732c2693fe0c058ec390ec8e302207b9776410a468e0502abb18a64d0e6407d1005990779ec4190351bb5cadaa670014104025a1cffe502a80dfa1f543ae14c082aff24d5ecadab160ca904d288eed8e3d8cacef0985f690868df4f416c3890909b4c0c843da153d41382ac20c80170240affffffffd2d9264fde881f520540cd250b0e3377d67f9c24a8643eb6e59beb8505ef8af0010000008b4830450221008c3551d69311b4dc5efc607ea38e480acd4ed9066bccc90ac61c105fa59328cd02203b587898f35461d2349c0dece4d1b42e91c82f198df45dfe111fd77d27681ac7014104025a1cffe502a80dfa1f543ae14c082aff24d5ecadab160ca904d288eed8e3d8cacef0985f690868df4f416c3890909b4c0c843da153d41382ac20c80170240affffffff6331d72363b038acb1ad318fb4664a342516aa035be7a35bac58ae47d6bffda0000000008b4830450221009b46c0b3ca068e9855e1c7768ea898a0bfca22fe9803eb5cde9af7b35056292b0220642d4e25caa3acfdefc9ae727b9fcd4ce5033014224834e30355d1667e82da100141042ead2b7a450b60573bdb1813e49b4018572f395c7f577ed0337519e9394763ef1c77bb3b650c3ae31d4e892f6e4152f7fade323fb0000f6c9810e4ddf004b880ffffffff0280d1f0080000000017a9149416f0fb0bd64e27cb9770311403f55acd07d3288773761a03000000001976a914bae025140c454518b8cba0c25d45a6dc87f4b9ce88ac00000000", "vin": [{"sequence": 4294967295, "scriptSig": {"hex": "483045022100a97fec05c1ca30a6f5db00515a0322940ea0547c146d1f0fea04581b09e86f970220315e87fd56393313c9b2637cefe30a85cbab457469dc6afb168ac1c2663631e50141042f47b7897ce8fe1fc086f75f0454cd0e7e3a7ac398e9533e6db48e468c09c350f51b82e3e382fcf411b5e889ca4f270d871c96b44d749a33564965d0797fe2e3", "asm": "3045022100a97fec05c1ca30a6f5db00515a0322940ea0547c146d1f0fea04581b09e86f970220315e87fd56393313c9b2637cefe30a85cbab457469dc6afb168ac1c2663631e5[ALL] 042f47b7897ce8fe1fc086f75f0454cd0e7e3a7ac398e9533e6db48e468c09c350f51b82e3e382fcf411b5e889ca4f270d871c96b44d749a33564965d0797fe2e3"}, "vout": 0, "txid": "853a850bf4925fb8b0d19c6969b0eb7c7f64ff8ce60833a876a7df9eb78a6c71"}, {"sequence": 4294967295, "scriptSig": {"hex": "483045022100a81464ce64a567ebdba17f2ed2ca3e4587a9b06365765e48b42c875d5cf6aa9d022021e127da69dc3a30bbe747cddd5995f1249f3afcdbb9f3745418a14d4979c867014104025a1cffe502a80dfa1f543ae14c082aff24d5ecadab160ca904d288eed8e3d8cacef0985f690868df4f416c3890909b4c0c843da153d41382ac20c80170240a", "asm": "3045022100a81464ce64a567ebdba17f2ed2ca3e4587a9b06365765e48b42c875d5cf6aa9d022021e127da69dc3a30bbe747cddd5995f1249f3afcdbb9f3745418a14d4979c867[ALL] 04025a1cffe502a80dfa1f543ae14c082aff24d5ecadab160ca904d288eed8e3d8cacef0985f690868df4f416c3890909b4c0c843da153d41382ac20c80170240a"}, "vout": 1, "txid": "4b811e323f59b2eff12d89e07d29a18b822e698e9fca4413594c72c9ac0e920b"}, {"sequence": 4294967295, "scriptSig": {"hex": "483045022100a0550aa7ef7ce594b3e66915d1c3a65a328fd9d732c2693fe0c058ec390ec8e302207b9776410a468e0502abb18a64d0e6407d1005990779ec4190351bb5cadaa670014104025a1cffe502a80dfa1f543ae14c082aff24d5ecadab160ca904d288eed8e3d8cacef0985f690868df4f416c3890909b4c0c843da153d41382ac20c80170240a", "asm": "3045022100a0550aa7ef7ce594b3e66915d1c3a65a328fd9d732c2693fe0c058ec390ec8e302207b9776410a468e0502abb18a64d0e6407d1005990779ec4190351bb5cadaa670[ALL] 04025a1cffe502a80dfa1f543ae14c082aff24d5ecadab160ca904d288eed8e3d8cacef0985f690868df4f416c3890909b4c0c843da153d41382ac20c80170240a"}, "vout": 1, "txid": "b3236acede0a9ac761e83bbed756d912e71ff455fb94eccbd2b274e0bd6fbf15"}, {"sequence": 4294967295, "scriptSig": {"hex": "4830450221008c3551d69311b4dc5efc607ea38e480acd4ed9066bccc90ac61c105fa59328cd02203b587898f35461d2349c0dece4d1b42e91c82f198df45dfe111fd77d27681ac7014104025a1cffe502a80dfa1f543ae14c082aff24d5ecadab160ca904d288eed8e3d8cacef0985f690868df4f416c3890909b4c0c843da153d41382ac20c80170240a", "asm": "30450221008c3551d69311b4dc5efc607ea38e480acd4ed9066bccc90ac61c105fa59328cd02203b587898f35461d2349c0dece4d1b42e91c82f198df45dfe111fd77d27681ac7[ALL] 04025a1cffe502a80dfa1f543ae14c082aff24d5ecadab160ca904d288eed8e3d8cacef0985f690868df4f416c3890909b4c0c843da153d41382ac20c80170240a"}, "vout": 1, "txid": "f08aef0585eb9be5b63e64a8249c7fd677330e0b25cd4005521f88de4f26d9d2"}, {"sequence": 4294967295, "scriptSig": {"hex": "4830450221009b46c0b3ca068e9855e1c7768ea898a0bfca22fe9803eb5cde9af7b35056292b0220642d4e25caa3acfdefc9ae727b9fcd4ce5033014224834e30355d1667e82da100141042ead2b7a450b60573bdb1813e49b4018572f395c7f577ed0337519e9394763ef1c77bb3b650c3ae31d4e892f6e4152f7fade323fb0000f6c9810e4ddf004b880", "asm": "30450221009b46c0b3ca068e9855e1c7768ea898a0bfca22fe9803eb5cde9af7b35056292b0220642d4e25caa3acfdefc9ae727b9fcd4ce5033014224834e30355d1667e82da10[ALL] 042ead2b7a450b60573bdb1813e49b4018572f395c7f577ed0337519e9394763ef1c77bb3b650c3ae31d4e892f6e4152f7fade323fb0000f6c9810e4ddf004b880"}, "vout": 0, "txid": "a0fdbfd647ae58ac5ba3e75b03aa1625344a66b48f31adb1ac38b06323d73163"}], "txid": "2ade6d833f63f591dc9abdcf9e9547cc4739a409fcf7afb4eb54d25d2d8e644d", "blocktime": 1537876114, "version": 1, "confirmations": 11460, "time": 1537876114, "locktime": 0, "vsize": 976, "size": 976}