{"hash": "9267244442f06585005fa4e1a25bc2bd9188875edc24e994d94b0a3da14eb50a", "blockhash": "00000000000000000004ffacab907a6b429b9a5745fa0b75af4234bf69dd7176", "vout": [{"scriptPubKey": {"reqSigs": 1, "hex": "a914c0013f4970ad207f2ba9223c2febe11ce7bec7f387", "addresses": ["3KCFA2spyAwhmmpBpHef1WeJyL2vwnc3Cd"], "asm": "OP_HASH160 c0013f4970ad207f2ba9223c2febe11ce7bec7f3 OP_EQUAL", "type": "scripthash"}, "value": 0.00898948, "n": 0}, {"scriptPubKey": {"reqSigs": 1, "hex": "76a914196dc0b929e8ba3d709c52deaf1b26b936c1a65188ac", "addresses": ["13KTNZEZfrBnA16pPbtGyEPw4XRBRoqEaa"], "asm": "OP_DUP OP_HASH160 196dc0b929e8ba3d709c52deaf1b26b936c1a651 OP_EQUALVERIFY OP_CHECKSIG", "type": "pubkeyhash"}, "value": 0.03998948, "n": 1}, {"scriptPubKey": {"reqSigs": 1, "hex": "a9146e8666990f7b9953329bf1d13b234ccd51cfede987", "addresses": ["3BmRFyUYRhgViH7VNwCube1XnzHA1k3XKt"], "asm": "OP_HASH160 6e8666990f7b9953329bf1d13b234ccd51cfede9 OP_EQUAL", "type": "scripthash"}, "value": 0.00169348, "n": 2}, {"scriptPubKey": {"reqSigs": 1, "hex": "a914347b06e91348ccfb0c4253d7b640ce905a22aa8b87", "addresses": ["36UWSaqwzDmtVD15Cs9ANPrd4iYFSfZeW7"], "asm": "OP_HASH160 347b06e91348ccfb0c4253d7b640ce905a22aa8b OP_EQUAL", "type": "scripthash"}, "value": 0.53469317, "n": 3}], "hex": "0200000000010166394d366ef433c9fa7d1fe147c90cf5a9ab495f64333c6e283b3589d12584a700000000171600140a0d982fbf1db52dd49bd000498253c98e7f016ffeffffff0484b70d000000000017a914c0013f4970ad207f2ba9223c2febe11ce7bec7f387e4043d00000000001976a914196dc0b929e8ba3d709c52deaf1b26b936c1a65188ac849502000000000017a9146e8666990f7b9953329bf1d13b234ccd51cfede98785e02f030000000017a914347b06e91348ccfb0c4253d7b640ce905a22aa8b8702483045022100fc578547dc2745036aaf4f4a5b70429efe7966d9cbcf3b611554acefffea4455022052f953b908f2effa4e89f2ffa5c5a26eb0c112f588dca14331bcc249b3a58b6b0121038166b026ebc43ade3eecae82e1a2e947b0a4067f6bb5e20557a5997903f84e3d16490800", "vin": [{"txinwitness": ["3045022100fc578547dc2745036aaf4f4a5b70429efe7966d9cbcf3b611554acefffea4455022052f953b908f2effa4e89f2ffa5c5a26eb0c112f588dca14331bcc249b3a58b6b01", "038166b026ebc43ade3eecae82e1a2e947b0a4067f6bb5e20557a5997903f84e3d"], "sequence": 4294967294, "scriptSig": {"hex": "1600140a0d982fbf1db52dd49bd000498253c98e7f016f", "asm": "00140a0d982fbf1db52dd49bd000498253c98e7f016f"}, "vout": 0, "txid": "a78425d189353b286e3c33645f49aba9f50cc947e11f7dfac933f46e364d3966"}], "txid": "2ae46297e0804f0b30db88ba937cc7bef911e853b0bd6b5598be2d597bd02120", "blocktime": 1537875543, "version": 2, "confirmations": 11464, "time": 1537875543, "locktime": 542998, "vsize": 232, "size": 314}