{"hash": "5ccc3880c3841abdbc9c7e4730fa54cea62f99b232afc5c28dc84e3c09ab319a", "blockhash": "0000000000000000001e0dab787dd257d1dbfcb92a98c2207d5e1078be1f4165", "vout": [{"scriptPubKey": {"reqSigs": 1, "hex": "a914787c3eda037f19995a2acaaf24676e09e0322b8187", "addresses": ["3Cg5rHx8dhDN8yPPfN1MSmPsGvtDSrqar6"], "asm": "OP_HASH160 787c3eda037f19995a2acaaf24676e09e0322b81 OP_EQUAL", "type": "scripthash"}, "value": 0.65724577, "n": 0}, {"scriptPubKey": {"reqSigs": 1, "hex": "a91469f3740d612d53a25cd7451ec8b08c9f073512b787", "addresses": ["3BMEX7uH5TURGhEuTzgQYdjXKHWN6jFhew"], "asm": "OP_HASH160 69f3740d612d53a25cd7451ec8b08c9f073512b7 OP_EQUAL", "type": "scripthash"}, "value": 0.00437981, "n": 1}], "hex": "010000000001018be6672999cb22e5006be8fc31fb3d6441bffee8ea407f9c53521e3f194fb7a9000000002322002009db2e1be0dff90fb2e2ca9e5b80ccd3965f27514beab7f93d33d3e23837ad73ffffffff02a1e0ea030000000017a914787c3eda037f19995a2acaaf24676e09e0322b8187ddae06000000000017a91469f3740d612d53a25cd7451ec8b08c9f073512b78704004730440220352638c2685d222932d92285ced24be478266ccccafbf999375bec3432234f8902207f07a857cd463924680b9e6cd77e6c4d1190dc2b458455da099b882b45e9848e01483045022100f5de57587c546731087c5c0b98c03e030f45a341fc0c28d4f0ff6fabeef7219502201d3303a61a7338e19b203162a8cef205159f0108abb6b5de8656b04e6b7c3de00169522102cebd1c7ac4fe2cab2c51b5b02990e4e0cf503ce661fb933a87616aa74a2da9f521032ee865ac7078b69cc34c89886cf34c57911854a7b7f08a962533edc73190a4e021034579e516d9448fbefb57d866f3efbb9f73d5acafd771ea2a2a4ac427da3b0ac453ae00000000", "vin": [{"txinwitness": ["", "30440220352638c2685d222932d92285ced24be478266ccccafbf999375bec3432234f8902207f07a857cd463924680b9e6cd77e6c4d1190dc2b458455da099b882b45e9848e01", "3045022100f5de57587c546731087c5c0b98c03e030f45a341fc0c28d4f0ff6fabeef7219502201d3303a61a7338e19b203162a8cef205159f0108abb6b5de8656b04e6b7c3de001", "522102cebd1c7ac4fe2cab2c51b5b02990e4e0cf503ce661fb933a87616aa74a2da9f521032ee865ac7078b69cc34c89886cf34c57911854a7b7f08a962533edc73190a4e021034579e516d9448fbefb57d866f3efbb9f73d5acafd771ea2a2a4ac427da3b0ac453ae"], "sequence": 4294967295, "scriptSig": {"hex": "22002009db2e1be0dff90fb2e2ca9e5b80ccd3965f27514beab7f93d33d3e23837ad73", "asm": "002009db2e1be0dff90fb2e2ca9e5b80ccd3965f27514beab7f93d33d3e23837ad73"}, "vout": 0, "txid": "a9b74f193f1e52539c7f40eae8febf41643dfb31fce86b00e522cb992967e68b"}], "txid": "2ae4f0c09a31db9a654907acce94d025662feede9249f82716efa6c7d0ec6b53", "blocktime": 1537872475, "version": 1, "confirmations": 11486, "time": 1537872475, "locktime": 0, "vsize": 214, "size": 405}