{"hash": "0798bf88c511631167b2d30cf71a2ba840c5843d02edc14686e73f809574e109", "blockhash": "00000000000000000004ffacab907a6b429b9a5745fa0b75af4234bf69dd7176", "vout": [{"scriptPubKey": {"reqSigs": 1, "hex": "76a914022c2e92a9338001520c9da2b71c3aa3dc35050988ac", "addresses": ["1CVHCTuT8B8iaMkUGDELfkuC1T5zRaUqY"], "asm": "OP_DUP OP_HASH160 022c2e92a9338001520c9da2b71c3aa3dc350509 OP_EQUALVERIFY OP_CHECKSIG", "type": "pubkeyhash"}, "value": 0.15627, "n": 0}, {"scriptPubKey": {"reqSigs": 1, "hex": "76a914a5a68119df63753a8f3dab92d067ba12a7fd001188ac", "addresses": ["1G6sxaGqHMo3LPGXaTe6foDvPbEjCUsxvZ"], "asm": "OP_DUP OP_HASH160 a5a68119df63753a8f3dab92d067ba12a7fd0011 OP_EQUALVERIFY OP_CHECKSIG", "type": "pubkeyhash"}, "value": 0.00103959, "n": 1}, {"scriptPubKey": {"reqSigs": 1, "hex": "a914b8a9a8ba8cf965b7df6b05afd948e53c351b2c0d87", "addresses": ["3JXRVxhrk2o9f4w3cQchBLwUeegJBj6BEp"], "asm": "OP_HASH160 b8a9a8ba8cf965b7df6b05afd948e53c351b2c0d OP_EQUAL", "type": "scripthash"}, "value": 1.79184988, "n": 2}], "hex": "0100000000010108cd6c78cc01e70190963c5463128a705566f5f1033cffdbab1d7e1161d69e48030000002322002065d416c48a8072e0ac51c2d111eb194f009caef0332446c1bf2097316cf07fa9ffffffff03f872ee00000000001976a914022c2e92a9338001520c9da2b71c3aa3dc35050988ac17960100000000001976a914a5a68119df63753a8f3dab92d067ba12a7fd001188ac5c25ae0a0000000017a914b8a9a8ba8cf965b7df6b05afd948e53c351b2c0d8704004730440220762b9dfdfcf88d426ed99d1d2388957ed004f3762ddba2414c61adfabc5ceca302204a23449afd8d5a5b2120ae04d7ac46a47fab2827ca0af77061ff89a32da46cad0147304402202e2e94e0309af510023067bdf425bf75f540937fbf47fdd0baed1ef5e29ac35402203a397d154e4e226213617ea0ac9ba0c7a23aa2de0fdc484e64fc25b828e379520169522102f44abcf9e23c9a460da309ccca56c619c04eed3bde2c2cff5e7d78fbcd980b9c2103c9443cf3047bb6c2c82f1b0c44c36109cdc3d0d601d16d1189a1602bf8d1a0a02103bfe867059274412412e088af5572b92168c2ef495cfe6c9b7a753a009eb37c4853ae00000000", "vin": [{"txinwitness": ["", "30440220762b9dfdfcf88d426ed99d1d2388957ed004f3762ddba2414c61adfabc5ceca302204a23449afd8d5a5b2120ae04d7ac46a47fab2827ca0af77061ff89a32da46cad01", "304402202e2e94e0309af510023067bdf425bf75f540937fbf47fdd0baed1ef5e29ac35402203a397d154e4e226213617ea0ac9ba0c7a23aa2de0fdc484e64fc25b828e3795201", "522102f44abcf9e23c9a460da309ccca56c619c04eed3bde2c2cff5e7d78fbcd980b9c2103c9443cf3047bb6c2c82f1b0c44c36109cdc3d0d601d16d1189a1602bf8d1a0a02103bfe867059274412412e088af5572b92168c2ef495cfe6c9b7a753a009eb37c4853ae"], "sequence": 4294967295, "scriptSig": {"hex": "22002065d416c48a8072e0ac51c2d111eb194f009caef0332446c1bf2097316cf07fa9", "asm": "002065d416c48a8072e0ac51c2d111eb194f009caef0332446c1bf2097316cf07fa9"}, "vout": 3, "txid": "489ed661117e1dabdbff3c03f1f56655708a1263543c969001e701cc786ccd08"}], "txid": "2af19cad0d9df184549a57e53d7a6b642532532c28f85cc1efe5a471e15a8db5", "blocktime": 1537875543, "version": 1, "confirmations": 11464, "time": 1537875543, "locktime": 0, "vsize": 250, "size": 440}