{"hash": "cf8010bbb5e90cc58709520e51707cdd61b4ef51aadd972f47b8266774a1cd46", "blockhash": "0000000000000000001cda96e906b7601b7a6fb1a3b62bca570a9e5d8f4b3de1", "vout": [{"scriptPubKey": {"reqSigs": 1, "hex": "76a914fa2bfc89a400e6ec03b73d0f2f124aa1406d027e88ac", "addresses": ["1PondC79gE85kqDxehBHaNkqTc4CnafdoE"], "asm": "OP_DUP OP_HASH160 fa2bfc89a400e6ec03b73d0f2f124aa1406d027e OP_EQUALVERIFY OP_CHECKSIG", "type": "pubkeyhash"}, "value": 0.17449927, "n": 0}, {"scriptPubKey": {"reqSigs": 1, "hex": "a9145913d3acb0d18630ebca8925294a8946a625779787", "addresses": ["39p1pDAkzbGc4zoZLZUM2PLYKqK56gpmS8"], "asm": "OP_HASH160 5913d3acb0d18630ebca8925294a8946a6257797 OP_EQUAL", "type": "scripthash"}, "value": 0.02604559, "n": 1}], "hex": "0200000000010119c2c28ad71a450b640bca976ceb0cb192d3530722538d7ee79fb0f44819188b0100000017160014f4065e077d75059a5404f69aaecca5e74dd746f4feffffff02c7430a01000000001976a914fa2bfc89a400e6ec03b73d0f2f124aa1406d027e88ac0fbe27000000000017a9145913d3acb0d18630ebca8925294a8946a6257797870247304402204bdbdb9bff80cd67c200fcce93ed1e6944bb57f198f2d9f2538146f7a53cb027022021061eecb8ad6ada7cc1090cbe9579bd555a72ebbc74c3246182731789b129420121035a670e3c2599bd450063aa9e46759abf3177792394aad606f31d1c057aec509b13490800", "vin": [{"txinwitness": ["304402204bdbdb9bff80cd67c200fcce93ed1e6944bb57f198f2d9f2538146f7a53cb027022021061eecb8ad6ada7cc1090cbe9579bd555a72ebbc74c3246182731789b1294201", "035a670e3c2599bd450063aa9e46759abf3177792394aad606f31d1c057aec509b"], "sequence": 4294967294, "scriptSig": {"hex": "160014f4065e077d75059a5404f69aaecca5e74dd746f4", "asm": "0014f4065e077d75059a5404f69aaecca5e74dd746f4"}, "vout": 1, "txid": "8b181948f4b09fe77e8d53220753d392b10ceb6c97ca0b640b451ad78ac2c219"}], "txid": "2af7802913f8c77b7a039fb87b165fa189bdebb4034df81c7a604ec796d5af5d", "blocktime": 1537873282, "version": 2, "confirmations": 11485, "time": 1537873282, "locktime": 542995, "vsize": 168, "size": 249}