{"hash": "2af80cb8e16f5f47364e91accbd3e6f2f8da3e8781818818e89ff9181f6ee581", "blockhash": "0000000000000000000baef3f32e3676a92c3b2e5da21b426e4f302fc371ce76", "vout": [{"scriptPubKey": {"reqSigs": 1, "hex": "76a914ac50ad9f53f7a7ab0de55f1f7bd5c146a87029e088ac", "addresses": ["1Gi7scgt19CidGz8ZpHTrtsMUfXLS6Wt8Q"], "asm": "OP_DUP OP_HASH160 ac50ad9f53f7a7ab0de55f1f7bd5c146a87029e0 OP_EQUALVERIFY OP_CHECKSIG", "type": "pubkeyhash"}, "value": 0.08579847, "n": 0}, {"scriptPubKey": {"type": "nulldata", "hex": "6a146f6d6e69000000000000001f000000e8bfc87c80", "asm": "OP_RETURN 6f6d6e69000000000000001f000000e8bfc87c80"}, "value": 0.0, "n": 1}, {"scriptPubKey": {"reqSigs": 1, "hex": "76a914d7f6a29f2b28d15a12db68e5f2a321485dfb6bbc88ac", "addresses": ["1Lgujm7QGEmZtWaxFZuUF1hd142Fzxmyuv"], "asm": "OP_DUP OP_HASH160 d7f6a29f2b28d15a12db68e5f2a321485dfb6bbc OP_EQUALVERIFY OP_CHECKSIG", "type": "pubkeyhash"}, "value": 5.46e-06, "n": 2}], "hex": "01000000018e5892be76a2288bdcd3f3a6eac5e62c4d176c5bfb0fb6c95e2a290ce0813fc4000000006a47304402207d4cc3a5631bde78357b9eae9aacbc441a2e5f9b5cf343f728761a060faf19d702201029ac0edc6ccee57af81340f49e31d3e44a2d1dd0b2a02c08657319551e32e40121035261cbee3658f2d5eda72974ecb86224ec61e3b879b7a7e0f69e87ddfd028580ffffffff0307eb8200000000001976a914ac50ad9f53f7a7ab0de55f1f7bd5c146a87029e088ac0000000000000000166a146f6d6e69000000000000001f000000e8bfc87c8022020000000000001976a914d7f6a29f2b28d15a12db68e5f2a321485dfb6bbc88ac00000000", "vin": [{"sequence": 4294967295, "scriptSig": {"hex": "47304402207d4cc3a5631bde78357b9eae9aacbc441a2e5f9b5cf343f728761a060faf19d702201029ac0edc6ccee57af81340f49e31d3e44a2d1dd0b2a02c08657319551e32e40121035261cbee3658f2d5eda72974ecb86224ec61e3b879b7a7e0f69e87ddfd028580", "asm": "304402207d4cc3a5631bde78357b9eae9aacbc441a2e5f9b5cf343f728761a060faf19d702201029ac0edc6ccee57af81340f49e31d3e44a2d1dd0b2a02c08657319551e32e4[ALL] 035261cbee3658f2d5eda72974ecb86224ec61e3b879b7a7e0f69e87ddfd028580"}, "vout": 0, "txid": "c43f81e00c292a5ec9b60ffb5b6c174d2ce6c5eaa6f3d3dc8b28a276be92588e"}], "txid": "2af80cb8e16f5f47364e91accbd3e6f2f8da3e8781818818e89ff9181f6ee581", "blocktime": 1537876114, "version": 1, "confirmations": 11460, "time": 1537876114, "locktime": 0, "vsize": 256, "size": 256}