{"hash": "2af80a2cb5c260fc2b3d10e694b991fb634f236656c040ccfc1788495ba4e3fd", "blockhash": "0000000000000000001e0dab787dd257d1dbfcb92a98c2207d5e1078be1f4165", "vout": [{"scriptPubKey": {"reqSigs": 1, "hex": "76a914bfe4827383095cf0dd9f589a47ad1dcf2806fae188ac", "addresses": ["1JVdomGWUvZ5gixryZF9yKMr4mcEMsGvX1"], "asm": "OP_DUP OP_HASH160 bfe4827383095cf0dd9f589a47ad1dcf2806fae1 OP_EQUALVERIFY OP_CHECKSIG", "type": "pubkeyhash"}, "value": 0.043, "n": 0}, {"scriptPubKey": {"reqSigs": 1, "hex": "76a91403b5aafae9a894489205f1842388b9345684240e88ac", "addresses": ["1Lcf5kMhGy9wKTroJLhyHycZKCM3jrjne"], "asm": "OP_DUP OP_HASH160 03b5aafae9a894489205f1842388b9345684240e OP_EQUALVERIFY OP_CHECKSIG", "type": "pubkeyhash"}, "value": 0.14529427, "n": 1}], "hex": "010000000170063bc9fba28ae5fc8324d41e28cd691eb9734d37a6063c0639ae2cf704cc03090000006a47304402203c5f33dbfffa9a2449fb5cfac11609d3385851b368f01ef3c43c7a3f61f133d302200520b8a70888db270050dc48beaa96b7013c4f23fc311b793fa5fdd215356dbe012102d5ba95741bd85973031434cdbc044efd849a0132c3d8ff5fff2f6c561e04db59ffffffff02e09c4100000000001976a914bfe4827383095cf0dd9f589a47ad1dcf2806fae188ac93b3dd00000000001976a91403b5aafae9a894489205f1842388b9345684240e88ac00000000", "vin": [{"sequence": 4294967295, "scriptSig": {"hex": "47304402203c5f33dbfffa9a2449fb5cfac11609d3385851b368f01ef3c43c7a3f61f133d302200520b8a70888db270050dc48beaa96b7013c4f23fc311b793fa5fdd215356dbe012102d5ba95741bd85973031434cdbc044efd849a0132c3d8ff5fff2f6c561e04db59", "asm": "304402203c5f33dbfffa9a2449fb5cfac11609d3385851b368f01ef3c43c7a3f61f133d302200520b8a70888db270050dc48beaa96b7013c4f23fc311b793fa5fdd215356dbe[ALL] 02d5ba95741bd85973031434cdbc044efd849a0132c3d8ff5fff2f6c561e04db59"}, "vout": 9, "txid": "03cc04f72cae39063c06a6374d73b91e69cd281ed42483fce58aa2fbc93b0670"}], "txid": "2af80a2cb5c260fc2b3d10e694b991fb634f236656c040ccfc1788495ba4e3fd", "blocktime": 1537872475, "version": 1, "confirmations": 11487, "time": 1537872475, "locktime": 0, "vsize": 225, "size": 225}