{"hash": "3d578a1dceffe14fc333a8f6c20e11dbfd8f65aa38578ff836779d2bf1db8ac8", "blockhash": "0000000000000000000e13cef7c366c0283d82e591d1acd082e914b08063cdf1", "vout": [{"scriptPubKey": {"reqSigs": 1, "hex": "76a91409f4cdf7fdb6d7537e307af982fe1723d3f0a00788ac", "addresses": ["1ueM3fHa7Xycx3GDH1JedkH3uV4pUwMBU"], "asm": "OP_DUP OP_HASH160 09f4cdf7fdb6d7537e307af982fe1723d3f0a007 OP_EQUALVERIFY OP_CHECKSIG", "type": "pubkeyhash"}, "value": 0.003816, "n": 0}, {"scriptPubKey": {"reqSigs": 1, "hex": "a914c042a06babc4fd8fc9af635180eb2b44befb864587", "addresses": ["3KDbUg8eEUtEcxFMkPG87jEjQu82ghXz4U"], "asm": "OP_HASH160 c042a06babc4fd8fc9af635180eb2b44befb8645 OP_EQUAL", "type": "scripthash"}, "value": 0.22117776, "n": 1}], "hex": "01000000000101d9afc3cddb93a352fa9e293928b26a21300fee473ad96965718b3537e1ebda780000000023220020440078b05a2bc6b41fcce8725aa4de3462086a212bf1d8847254066ab5037b92ffffffff02a0d20500000000001976a91409f4cdf7fdb6d7537e307af982fe1723d3f0a00788ac907d51010000000017a914c042a06babc4fd8fc9af635180eb2b44befb8645870400483045022100bae5c7f3e02e5263ac2dd9ba255f6e54c84426316521b961d5ceca8555e6ec49022006a0aec5e362862c9faf90a8749d5c0af52528ca2accf258c152b781320d907301473044022005d13684a9ec5e00febe0353b8069f7f1db3851488867bd265fc93b8ebb1c164022071784ad32525d1a1f510c8d0a08c84b698e8950deba3a5c6ceba97928e20c50e014752210294e85d763e5b925f653e62be404ec0be1ff7a7172c59eceba9b1c692ef6727fe2102dd2332c0512dee4ea813748993f8056f254166d97719c8c2e4e8f542e54e1af152ae00000000", "vin": [{"txinwitness": ["", "3045022100bae5c7f3e02e5263ac2dd9ba255f6e54c84426316521b961d5ceca8555e6ec49022006a0aec5e362862c9faf90a8749d5c0af52528ca2accf258c152b781320d907301", "3044022005d13684a9ec5e00febe0353b8069f7f1db3851488867bd265fc93b8ebb1c164022071784ad32525d1a1f510c8d0a08c84b698e8950deba3a5c6ceba97928e20c50e01", "52210294e85d763e5b925f653e62be404ec0be1ff7a7172c59eceba9b1c692ef6727fe2102dd2332c0512dee4ea813748993f8056f254166d97719c8c2e4e8f542e54e1af152ae"], "sequence": 4294967295, "scriptSig": {"hex": "220020440078b05a2bc6b41fcce8725aa4de3462086a212bf1d8847254066ab5037b92", "asm": "0020440078b05a2bc6b41fcce8725aa4de3462086a212bf1d8847254066ab5037b92"}, "vout": 0, "txid": "78daebe137358b716569d93a47ee0f30216ab22839299efa52a393dbcdc3afd9"}], "txid": "2afabf9297e0a1013db13bd99981f4036e17e4a17b8d2ac024da2bf439735b80", "blocktime": 1537871767, "version": 1, "confirmations": 11495, "time": 1537871767, "locktime": 0, "vsize": 208, "size": 373}