{"hash": "2afdf7633f5eb2b6ad4f9629246f5ed56a118a5c014e56e2fad7b806344eddfe", "blockhash": "000000000000000000022b45ed06c6f4ccd3cf7fb5ba4856ebd2e58215665228", "vout": [{"scriptPubKey": {"reqSigs": 1, "hex": "76a914d3ee6925f22940990a6832a536700eaaa3f7e69388ac", "addresses": ["1LKbBYajLbnQAYd7ejpRRVKCxSo8CqV671"], "asm": "OP_DUP OP_HASH160 d3ee6925f22940990a6832a536700eaaa3f7e693 OP_EQUALVERIFY OP_CHECKSIG", "type": "pubkeyhash"}, "value": 0.00651332, "n": 0}, {"scriptPubKey": {"type": "nulldata", "hex": "6a4c50000077640001e24c1761e6205352df21bc9a86aeaeacb577c031fc3a016b46dc7dc7d0967db7512858889ef8f07d29ab2c9e88445baa07ec0612b9a35bcaf77a1d100759d4ba30d2c37bb011d97e02cf", "asm": "OP_RETURN 000077640001e24c1761e6205352df21bc9a86aeaeacb577c031fc3a016b46dc7dc7d0967db7512858889ef8f07d29ab2c9e88445baa07ec0612b9a35bcaf77a1d100759d4ba30d2c37bb011d97e02cf"}, "value": 0.0, "n": 1}], "hex": "0100000001302975cada78a9c29e6923ad0955d002e8fa20926598f0fb590e8f44cf2cb11a010000006a47304402203e326840ef69aa4180846a709692d82a0a176903a05bd78ddee3a1f50180f68f022053ba0d6f2eb5174842ab7558ffc8d59d07df11b585ab3e9dc2b4434d8ada5a2201210276d56c4ef520dfbe4cddb3c138ef76a990d0edef31599fdb91281b294b99692fffffffff0244f00900000000001976a914d3ee6925f22940990a6832a536700eaaa3f7e69388ac0000000000000000536a4c50000077640001e24c1761e6205352df21bc9a86aeaeacb577c031fc3a016b46dc7dc7d0967db7512858889ef8f07d29ab2c9e88445baa07ec0612b9a35bcaf77a1d100759d4ba30d2c37bb011d97e02cf00000000", "vin": [{"sequence": 4294967295, "scriptSig": {"hex": "47304402203e326840ef69aa4180846a709692d82a0a176903a05bd78ddee3a1f50180f68f022053ba0d6f2eb5174842ab7558ffc8d59d07df11b585ab3e9dc2b4434d8ada5a2201210276d56c4ef520dfbe4cddb3c138ef76a990d0edef31599fdb91281b294b99692f", "asm": "304402203e326840ef69aa4180846a709692d82a0a176903a05bd78ddee3a1f50180f68f022053ba0d6f2eb5174842ab7558ffc8d59d07df11b585ab3e9dc2b4434d8ada5a22[ALL] 0276d56c4ef520dfbe4cddb3c138ef76a990d0edef31599fdb91281b294b99692f"}, "vout": 1, "txid": "1ab12ccf448f0e59fbf098659220fae802d05509ad23699ec2a978daca752930"}], "txid": "2afdf7633f5eb2b6ad4f9629246f5ed56a118a5c014e56e2fad7b806344eddfe", "blocktime": 1537869901, "version": 1, "confirmations": 11523, "time": 1537869901, "locktime": 0, "vsize": 283, "size": 283}