{"hash": "2b00761bcc1101755bb5307ce71eae9d578dac523607e6a8bdb845615f8195c9", "blockhash": "0000000000000000000baef3f32e3676a92c3b2e5da21b426e4f302fc371ce76", "vout": [{"scriptPubKey": {"reqSigs": 1, "hex": "76a91499afe9326a83f7f82a22e2981e11b3cb1b671ba688ac", "addresses": ["1F1d7rcgjbmrwC6UwwY4u9LrNi3Y9BxvC3"], "asm": "OP_DUP OP_HASH160 99afe9326a83f7f82a22e2981e11b3cb1b671ba6 OP_EQUALVERIFY OP_CHECKSIG", "type": "pubkeyhash"}, "value": 0.00736568, "n": 0}, {"scriptPubKey": {"reqSigs": 1, "hex": "76a9147533f8c91d9df22c093e57a86123bc37dee40eb988ac", "addresses": ["1BgiKWYjk7yfs48V4vCtZtgQXSaUTyZ796"], "asm": "OP_DUP OP_HASH160 7533f8c91d9df22c093e57a86123bc37dee40eb9 OP_EQUALVERIFY OP_CHECKSIG", "type": "pubkeyhash"}, "value": 0.00833352, "n": 1}], "hex": "0100000001aa3199c1fcdb889c4df0d81ad3b2c5064d613ffdc39b22def1cb6c2acb85b2eb000000006a4730440220241efb048e8588fe98762137dbc3514460a5fa894e86707740535d4ef50ccbd902202c83f764894af2746290f98281a029ffe019f77a6e1d3a08a882233c2f1ce53601210322cacab49b3570acd1a8584f0f8fc2caed8109944f89a8fc4513d6f5eda9647bfdffffff02383d0b00000000001976a91499afe9326a83f7f82a22e2981e11b3cb1b671ba688ac48b70c00000000001976a9147533f8c91d9df22c093e57a86123bc37dee40eb988ac17490800", "vin": [{"sequence": 4294967293, "scriptSig": {"hex": "4730440220241efb048e8588fe98762137dbc3514460a5fa894e86707740535d4ef50ccbd902202c83f764894af2746290f98281a029ffe019f77a6e1d3a08a882233c2f1ce53601210322cacab49b3570acd1a8584f0f8fc2caed8109944f89a8fc4513d6f5eda9647b", "asm": "30440220241efb048e8588fe98762137dbc3514460a5fa894e86707740535d4ef50ccbd902202c83f764894af2746290f98281a029ffe019f77a6e1d3a08a882233c2f1ce536[ALL] 0322cacab49b3570acd1a8584f0f8fc2caed8109944f89a8fc4513d6f5eda9647b"}, "vout": 0, "txid": "ebb285cb2a6ccbf1de229bc3fd3f614d06c5b2d31ad8f04d9c88dbfcc19931aa"}], "txid": "2b00761bcc1101755bb5307ce71eae9d578dac523607e6a8bdb845615f8195c9", "blocktime": 1537876114, "version": 1, "confirmations": 11460, "time": 1537876114, "locktime": 542999, "vsize": 225, "size": 225}