{"hash": "2b01ce23c4474a11ccce45ab1078d658c7f599188dc53721dc53686143705b92", "blockhash": "0000000000000000001f76057863aec43deb6fa401d9628bb513d65a8098bfab", "vout": [{"scriptPubKey": {"reqSigs": 1, "hex": "76a9142aaa16464623f2b135626d2c3e9231b6471de81088ac", "addresses": ["14tb8ukZC9Yjz5ViWpjvJnzMZEkrF7JrtV"], "asm": "OP_DUP OP_HASH160 2aaa16464623f2b135626d2c3e9231b6471de810 OP_EQUALVERIFY OP_CHECKSIG", "type": "pubkeyhash"}, "value": 0.00636344, "n": 0}, {"scriptPubKey": {"type": "nulldata", "hex": "6a4c50000077d90001e2f44b7af8e8e963c7cfd5b95b23cc0f42c2fc38c5e5bf9ae76da98a211a07db48f46fdb9c29dca5443a9ed423bd5baa15920612ad038fbbd7ea1d100759d4ba30d2c37bb011d97e02cf", "asm": "OP_RETURN 000077d90001e2f44b7af8e8e963c7cfd5b95b23cc0f42c2fc38c5e5bf9ae76da98a211a07db48f46fdb9c29dca5443a9ed423bd5baa15920612ad038fbbd7ea1d100759d4ba30d2c37bb011d97e02cf"}, "value": 0.0, "n": 1}], "hex": "0100000001316d3b544b0aee1d80c8300d6c8fe08765750efdace9e378378f91c1d8c883e5010000006a4730440220443da2a68b835e3ede8a1ae3fb3f400540b60f251534fc243cd8991b860c445c022049de8ef3b6f95a03645759b3d15326fd626c4af18cf143597316df3f1bf9a595012103838c59f5beea3b2727f3d498f124b50447199aad525baa6e43ab2c1b4b3d92dfffffffff02b8b50900000000001976a9142aaa16464623f2b135626d2c3e9231b6471de81088ac0000000000000000536a4c50000077d90001e2f44b7af8e8e963c7cfd5b95b23cc0f42c2fc38c5e5bf9ae76da98a211a07db48f46fdb9c29dca5443a9ed423bd5baa15920612ad038fbbd7ea1d100759d4ba30d2c37bb011d97e02cf00000000", "vin": [{"sequence": 4294967295, "scriptSig": {"hex": "4730440220443da2a68b835e3ede8a1ae3fb3f400540b60f251534fc243cd8991b860c445c022049de8ef3b6f95a03645759b3d15326fd626c4af18cf143597316df3f1bf9a595012103838c59f5beea3b2727f3d498f124b50447199aad525baa6e43ab2c1b4b3d92df", "asm": "30440220443da2a68b835e3ede8a1ae3fb3f400540b60f251534fc243cd8991b860c445c022049de8ef3b6f95a03645759b3d15326fd626c4af18cf143597316df3f1bf9a595[ALL] 03838c59f5beea3b2727f3d498f124b50447199aad525baa6e43ab2c1b4b3d92df"}, "vout": 1, "txid": "e583c8d8c1918f3778e3e9acfd0e756587e08f6c0d30c8801dee0a4b543b6d31"}], "txid": "2b01ce23c4474a11ccce45ab1078d658c7f599188dc53721dc53686143705b92", "blocktime": 1537873891, "version": 1, "confirmations": 11478, "time": 1537873891, "locktime": 0, "vsize": 283, "size": 283}