{"hash": "2b03829e91b5c7e5482adfa133ecc22398ea49fa5632d92c2cb177c0c7b8e649", "blockhash": "00000000000000000017f5eb5941039fbcee6240d03bc1f2f8e35350df66a1d8", "vout": [{"scriptPubKey": {"reqSigs": 1, "hex": "a91414335082e42653cfc0679a015b9ff41e81321ef387", "addresses": ["33XpumrStz8P6jq8VqyjCmeAgR6VvqdKcq"], "asm": "OP_HASH160 14335082e42653cfc0679a015b9ff41e81321ef3 OP_EQUAL", "type": "scripthash"}, "value": 0.00250096, "n": 0}, {"scriptPubKey": {"reqSigs": 1, "hex": "76a914c643ddfc2d62cf36e830df9a55b5e629a2a1fca288ac", "addresses": ["1K5L6USw4MFKp6Ysnoup27dBYGuG2hViNM"], "asm": "OP_DUP OP_HASH160 c643ddfc2d62cf36e830df9a55b5e629a2a1fca2 OP_EQUALVERIFY OP_CHECKSIG", "type": "pubkeyhash"}, "value": 0.00763922, "n": 1}], "hex": "0100000001e4587ad18a076536d1a46456c2f4c8b05a98778c688d99a0da73f746559adcc2000000006a4730440220500c31c6f0faaf1bf38b596feeca34d9add69a91ef0bb4999f78c48a1d2fb18a0220628dfd3f5409e324d610c94431d33704725fa1c4e21f35ec78af71069ec5f57b012103af3271ac0098e277e48183fd7d9bbbf957d2d86bae6e849d1bf9e7757c0eb931ffffffff02f0d003000000000017a91414335082e42653cfc0679a015b9ff41e81321ef38712a80b00000000001976a914c643ddfc2d62cf36e830df9a55b5e629a2a1fca288ac00000000", "vin": [{"sequence": 4294967295, "scriptSig": {"hex": "4730440220500c31c6f0faaf1bf38b596feeca34d9add69a91ef0bb4999f78c48a1d2fb18a0220628dfd3f5409e324d610c94431d33704725fa1c4e21f35ec78af71069ec5f57b012103af3271ac0098e277e48183fd7d9bbbf957d2d86bae6e849d1bf9e7757c0eb931", "asm": "30440220500c31c6f0faaf1bf38b596feeca34d9add69a91ef0bb4999f78c48a1d2fb18a0220628dfd3f5409e324d610c94431d33704725fa1c4e21f35ec78af71069ec5f57b[ALL] 03af3271ac0098e277e48183fd7d9bbbf957d2d86bae6e849d1bf9e7757c0eb931"}, "vout": 0, "txid": "c2dc9a5546f773daa0998d688c77985ab0c8f4c25664a4d13665078ad17a58e4"}], "txid": "2b03829e91b5c7e5482adfa133ecc22398ea49fa5632d92c2cb177c0c7b8e649", "blocktime": 1537874412, "version": 1, "confirmations": 11467, "time": 1537874412, "locktime": 0, "vsize": 223, "size": 223}