{"hash": "2b0a45d1cd8a2c4dc9541fc6510cf9b4304070f9cb2824dc6947e83403507708", "blockhash": "00000000000000000018f53835495a110e01622372bf6ae95dc86f2b0ab887b0", "vout": [{"scriptPubKey": {"reqSigs": 1, "hex": "76a9145267e73243485c41c75d795c8e0904212d2d020588ac", "addresses": ["18Wit3bfregusf322eKkRGcHo279YwhjHS"], "asm": "OP_DUP OP_HASH160 5267e73243485c41c75d795c8e0904212d2d0205 OP_EQUALVERIFY OP_CHECKSIG", "type": "pubkeyhash"}, "value": 0.00197445, "n": 0}, {"scriptPubKey": {"reqSigs": 1, "hex": "a9147b0f51ff9116ad0694bb2311457afa1ae835ae2487", "addresses": ["3CuhPcUQDHsUh3aZdoRuBgSGvfK51s3qnL"], "asm": "OP_HASH160 7b0f51ff9116ad0694bb2311457afa1ae835ae24 OP_EQUAL", "type": "scripthash"}, "value": 0.049949, "n": 1}], "hex": "01000000020bc307652c19c494feb1a98da2998468a78c54eb33a28ab39603d90b1ceb2654000000006a47304402201be2ae5576f374a1b3d6d0d2c01d8640ea9c6b13c9267c9bf40be9764d9db0f602205b028b5e11d7dc131bb107e77be1970b41362d139282c47c428accfb135644c9012102540fb45040f40b68c3a54d2542890a2197865662ce04b490888d70daf266ae4affffffff4224259adc4269e200e5e93e81afe9179d17a0f33fc5f9c4a39486ca9068b77f000000006a47304402205f7041811ce43f4120bd5af7253b31f6a73e973f0ffb685dfca8da706cb674670220710a7f1f456c19943066c22a43116e53bb51b4d12d943dcc102b4440af1d0b3001210338d59e202868c9248916926f3660179ff45d3189c8081dd1d97f9495afae39ebffffffff0245030300000000001976a9145267e73243485c41c75d795c8e0904212d2d020588ac54374c000000000017a9147b0f51ff9116ad0694bb2311457afa1ae835ae248700000000", "vin": [{"sequence": 4294967295, "scriptSig": {"hex": "47304402201be2ae5576f374a1b3d6d0d2c01d8640ea9c6b13c9267c9bf40be9764d9db0f602205b028b5e11d7dc131bb107e77be1970b41362d139282c47c428accfb135644c9012102540fb45040f40b68c3a54d2542890a2197865662ce04b490888d70daf266ae4a", "asm": "304402201be2ae5576f374a1b3d6d0d2c01d8640ea9c6b13c9267c9bf40be9764d9db0f602205b028b5e11d7dc131bb107e77be1970b41362d139282c47c428accfb135644c9[ALL] 02540fb45040f40b68c3a54d2542890a2197865662ce04b490888d70daf266ae4a"}, "vout": 0, "txid": "5426eb1c0bd90396b38aa233eb548ca7688499a28da9b1fe94c4192c6507c30b"}, {"sequence": 4294967295, "scriptSig": {"hex": "47304402205f7041811ce43f4120bd5af7253b31f6a73e973f0ffb685dfca8da706cb674670220710a7f1f456c19943066c22a43116e53bb51b4d12d943dcc102b4440af1d0b3001210338d59e202868c9248916926f3660179ff45d3189c8081dd1d97f9495afae39eb", "asm": "304402205f7041811ce43f4120bd5af7253b31f6a73e973f0ffb685dfca8da706cb674670220710a7f1f456c19943066c22a43116e53bb51b4d12d943dcc102b4440af1d0b30[ALL] 0338d59e202868c9248916926f3660179ff45d3189c8081dd1d97f9495afae39eb"}, "vout": 0, "txid": "7fb76890ca8694a3c4f9c53ff3a0179d17e9af813ee9e500e26942dc9a252442"}], "txid": "2b0a45d1cd8a2c4dc9541fc6510cf9b4304070f9cb2824dc6947e83403507708", "blocktime": 1537870928, "version": 1, "confirmations": 11512, "time": 1537870928, "locktime": 0, "vsize": 370, "size": 370}