{"hash": "2b0bcb64598266c172300532e6d5c7e99c07664879b2d3872034047c6bf68e38", "blockhash": "00000000000000000017f5eb5941039fbcee6240d03bc1f2f8e35350df66a1d8", "vout": [{"scriptPubKey": {"reqSigs": 1, "hex": "76a914049cd89014a9be44872bde99f84e23f807d2c2cc88ac", "addresses": ["1RPbcfSZeJEQ4XEFvaUQv4Pz1tnG9k6he"], "asm": "OP_DUP OP_HASH160 049cd89014a9be44872bde99f84e23f807d2c2cc OP_EQUALVERIFY OP_CHECKSIG", "type": "pubkeyhash"}, "value": 0.99997312, "n": 0}, {"scriptPubKey": {"reqSigs": 1, "hex": "76a91402a73d8ddeefbf75043ba1a94b2239c4fa48c66288ac", "addresses": ["1F2hTJnqtLY9hEntHoEbnZ23PAPrZtP2v"], "asm": "OP_DUP OP_HASH160 02a73d8ddeefbf75043ba1a94b2239c4fa48c662 OP_EQUALVERIFY OP_CHECKSIG", "type": "pubkeyhash"}, "value": 1.0, "n": 1}], "hex": "01000000024e2c984453d7601e78162376424bdd8289326b04749e6340d6c614771c6cc917000000006b483045022100dbd1c9c2940a41dbcb72d839d6b4568a93d7862a06fe0e2e2977b328401a3ec802204b925d5d1c84988eaf38680ebf5b8d299cbdb2a19396050cd14a23917c8ad4a9012102bf493cbe8112c524d34af5b88428fe31dafba2583fcb78a6ab3a939fe009886fffffffffb157ade7c7aa526a1ebfe6f5fddd6281b1ff9f1ab9ddf762fef331fb54e85cc4010000006a473044022004daa10917850ad076acc6ac77f9c08a34ebbafd0eed37c2f378601eed5173b002204f238a07b87677fc837a4a691a5a7f3bcd0f39f380830c3d9c24ad367c39b17d0121030008ed9d22553a48270f74815fe17bb9f37fda3c6cd094521deb96ea55a5c836ffffffff0280d6f505000000001976a914049cd89014a9be44872bde99f84e23f807d2c2cc88ac00e1f505000000001976a91402a73d8ddeefbf75043ba1a94b2239c4fa48c66288ac00000000", "vin": [{"sequence": 4294967295, "scriptSig": {"hex": "483045022100dbd1c9c2940a41dbcb72d839d6b4568a93d7862a06fe0e2e2977b328401a3ec802204b925d5d1c84988eaf38680ebf5b8d299cbdb2a19396050cd14a23917c8ad4a9012102bf493cbe8112c524d34af5b88428fe31dafba2583fcb78a6ab3a939fe009886f", "asm": "3045022100dbd1c9c2940a41dbcb72d839d6b4568a93d7862a06fe0e2e2977b328401a3ec802204b925d5d1c84988eaf38680ebf5b8d299cbdb2a19396050cd14a23917c8ad4a9[ALL] 02bf493cbe8112c524d34af5b88428fe31dafba2583fcb78a6ab3a939fe009886f"}, "vout": 0, "txid": "17c96c1c7714c6d640639e74046b328982dd4b42762316781e60d75344982c4e"}, {"sequence": 4294967295, "scriptSig": {"hex": "473044022004daa10917850ad076acc6ac77f9c08a34ebbafd0eed37c2f378601eed5173b002204f238a07b87677fc837a4a691a5a7f3bcd0f39f380830c3d9c24ad367c39b17d0121030008ed9d22553a48270f74815fe17bb9f37fda3c6cd094521deb96ea55a5c836", "asm": "3044022004daa10917850ad076acc6ac77f9c08a34ebbafd0eed37c2f378601eed5173b002204f238a07b87677fc837a4a691a5a7f3bcd0f39f380830c3d9c24ad367c39b17d[ALL] 030008ed9d22553a48270f74815fe17bb9f37fda3c6cd094521deb96ea55a5c836"}, "vout": 1, "txid": "c45ce854fb31f3fe62f7ddb91a9fffb18162ddfdf5e6bf1e6a52aac7e7ad57b1"}], "txid": "2b0bcb64598266c172300532e6d5c7e99c07664879b2d3872034047c6bf68e38", "blocktime": 1537874412, "version": 1, "confirmations": 11468, "time": 1537874412, "locktime": 0, "vsize": 373, "size": 373}