{"hash": "2b0f340b78cada7d5dc0722948b01294245a60484f09928434299d43058ade71", "blockhash": "0000000000000000001f0ddff1eddb255c1121bcd4da4f1bc9a0da00cae72433", "vout": [{"scriptPubKey": {"reqSigs": 1, "hex": "76a91474ddb8189b5838a1d6bcbec45099c5bc6956f97988ac", "addresses": ["1BevzZuCGLVnrkXste2TSiTpvUo84wxi14"], "asm": "OP_DUP OP_HASH160 74ddb8189b5838a1d6bcbec45099c5bc6956f979 OP_EQUALVERIFY OP_CHECKSIG", "type": "pubkeyhash"}, "value": 0.02596496, "n": 0}, {"scriptPubKey": {"reqSigs": 1, "hex": "76a9144a0f1e2f2b0d7daeec5265f10bbbbe08ed725e8988ac", "addresses": ["17kb7c9ndg7ioSuzMWEHWECdEVUegNkcGc"], "asm": "OP_DUP OP_HASH160 4a0f1e2f2b0d7daeec5265f10bbbbe08ed725e89 OP_EQUALVERIFY OP_CHECKSIG", "type": "pubkeyhash"}, "value": 0.001001, "n": 1}], "hex": "0100000001fab6ebb349094c0bdadfba2f0e7e766f7bf464afbd3ff7bb3851db994f31f358000000006b4830450221009261ed4a056fb576544203848f37528d8fef68e7d2ddee99f448061509b149da022022d7b95c16d944fc95496886fa0f65041eb3ddd5a6416cbeba06b9cb203eeab001210363e1776495149c5a4e92acf453a3caa19000fc804e4ba2024b600ba25e09c943ffffffff02909e2700000000001976a91474ddb8189b5838a1d6bcbec45099c5bc6956f97988ac04870100000000001976a9144a0f1e2f2b0d7daeec5265f10bbbbe08ed725e8988ac00000000", "vin": [{"sequence": 4294967295, "scriptSig": {"hex": "4830450221009261ed4a056fb576544203848f37528d8fef68e7d2ddee99f448061509b149da022022d7b95c16d944fc95496886fa0f65041eb3ddd5a6416cbeba06b9cb203eeab001210363e1776495149c5a4e92acf453a3caa19000fc804e4ba2024b600ba25e09c943", "asm": "30450221009261ed4a056fb576544203848f37528d8fef68e7d2ddee99f448061509b149da022022d7b95c16d944fc95496886fa0f65041eb3ddd5a6416cbeba06b9cb203eeab0[ALL] 0363e1776495149c5a4e92acf453a3caa19000fc804e4ba2024b600ba25e09c943"}, "vout": 0, "txid": "58f3314f99db5138bbf73fbdaf64f47b6f767e0e2fbadfda0b4c0949b3ebb6fa"}], "txid": "2b0f340b78cada7d5dc0722948b01294245a60484f09928434299d43058ade71", "blocktime": 1537872018, "version": 1, "confirmations": 11489, "time": 1537872018, "locktime": 0, "vsize": 226, "size": 226}