{"hash": "1d5f267edae9fb96edc6a96aed4558852968bd20d680037845bf116f301c8304", "blockhash": "0000000000000000000e13cef7c366c0283d82e591d1acd082e914b08063cdf1", "vout": [{"scriptPubKey": {"reqSigs": 1, "hex": "76a914e3ae14bb8ab699691047d871c85644e1cbc33bf988ac", "addresses": ["1MkrvuTkfGbXLt5jrTntYBbJWNdXtiNwjR"], "asm": "OP_DUP OP_HASH160 e3ae14bb8ab699691047d871c85644e1cbc33bf9 OP_EQUALVERIFY OP_CHECKSIG", "type": "pubkeyhash"}, "value": 0.0710751, "n": 0}, {"scriptPubKey": {"reqSigs": 1, "hex": "0014b6babcaab61869a983c474d84f1c8976df14f406", "addresses": ["bc1qk6ate24krp56nq7ywnvy78yfwm03faqxq8pzax"], "asm": "0 b6babcaab61869a983c474d84f1c8976df14f406", "type": "witness_v0_keyhash"}, "value": 1.58844961, "n": 1}], "hex": "010000000001018e159c612c431ebabf405e97d5cd3443e0361a6106a0fe793a27cfd45d896f940100000000ffffffff02b6736c00000000001976a914e3ae14bb8ab699691047d871c85644e1cbc33bf988ac21c8770900000000160014b6babcaab61869a983c474d84f1c8976df14f40602483045022100fe4abd4b4fa1c0289ffce268674962acac9c0c013442442000011d6046970b7d02206a170913413317624761d663826fb7e8683dd5819809606d8d5e5824614b4bac012103fb0d4974fbd57bfcc63e060e257fdb8c76484929d05ae5fd5a01f2901a015e8300000000", "vin": [{"txinwitness": ["3045022100fe4abd4b4fa1c0289ffce268674962acac9c0c013442442000011d6046970b7d02206a170913413317624761d663826fb7e8683dd5819809606d8d5e5824614b4bac01", "03fb0d4974fbd57bfcc63e060e257fdb8c76484929d05ae5fd5a01f2901a015e83"], "sequence": 4294967295, "scriptSig": {"hex": "", "asm": ""}, "vout": 1, "txid": "946f895dd4cf273a79fea006611a36e04334cdd5975e40bfba1e432c619c158e"}], "txid": "2b12ffbbdcf6d7ffe1a39746c8a0971ad6756faf6fcb3428758145f87d97517c", "blocktime": 1537871767, "version": 1, "confirmations": 11495, "time": 1537871767, "locktime": 0, "vsize": 144, "size": 226}