{"hash": "95c62cbf25f794a9959e704b3755364070144a01f25e523791a619ccd7351018", "blockhash": "00000000000000000017f5eb5941039fbcee6240d03bc1f2f8e35350df66a1d8", "vout": [{"scriptPubKey": {"reqSigs": 1, "hex": "0014939986497c60e978fcb4ec9585e029b36f8a54a1", "addresses": ["bc1qjwvcvjtuvr5h3l95aj2ctcpfkdhc549pr293th"], "asm": "0 939986497c60e978fcb4ec9585e029b36f8a54a1", "type": "witness_v0_keyhash"}, "value": 0.00280666, "n": 0}, {"scriptPubKey": {"reqSigs": 1, "hex": "76a9145d7a39b480744ca365d5dc1bc48b62825205c64f88ac", "addresses": ["19XGGDDZe7UWFKpsNJh7uTsAVEz7mQBY2a"], "asm": "OP_DUP OP_HASH160 5d7a39b480744ca365d5dc1bc48b62825205c64f OP_EQUALVERIFY OP_CHECKSIG", "type": "pubkeyhash"}, "value": 0.43260971, "n": 1}], "hex": "010000000001012b6ca1baa12e45c5198e6cabee1be694386c107166bba79e3589c927ea2bc30c0000000000ffffffff025a48040000000000160014939986497c60e978fcb4ec9585e029b36f8a54a12b1c9402000000001976a9145d7a39b480744ca365d5dc1bc48b62825205c64f88ac0247304402200ff833228dc29d26e70be03e1346443cd48d2a38efaca0374c5712f3b834920f022025440eb161bda6f12fbd3d80e693022468a2fad713ea2a3456765e84ba9b5ab001210251740f27e90d590c13c6960d351789428f1029fbc74a8ac4c406719383a4c41100000000", "vin": [{"txinwitness": ["304402200ff833228dc29d26e70be03e1346443cd48d2a38efaca0374c5712f3b834920f022025440eb161bda6f12fbd3d80e693022468a2fad713ea2a3456765e84ba9b5ab001", "0251740f27e90d590c13c6960d351789428f1029fbc74a8ac4c406719383a4c411"], "sequence": 4294967295, "scriptSig": {"hex": "", "asm": ""}, "vout": 0, "txid": "0cc32bea27c989359ea7bb6671106c3894e61beeab6c8e19c5452ea1baa16c2b"}], "txid": "2b1849bac22ac710e3cd14e03755cf19241653bc0e424791e41a60e1cfe1c783", "blocktime": 1537874412, "version": 1, "confirmations": 11467, "time": 1537874412, "locktime": 0, "vsize": 144, "size": 225}