{"hash": "2b1adbe39c5a961e61ec5d07a08da09db24e4d08ca3bf89bad7d3e11745cdbc1", "blockhash": "0000000000000000000e13cef7c366c0283d82e591d1acd082e914b08063cdf1", "vout": [{"scriptPubKey": {"reqSigs": 1, "hex": "76a914da6b68037f3c814ec14e8313a0908591f158a6e288ac", "addresses": ["1LutyYJxDCqXQH8q254dmjBVtW4VVHXg4w"], "asm": "OP_DUP OP_HASH160 da6b68037f3c814ec14e8313a0908591f158a6e2 OP_EQUALVERIFY OP_CHECKSIG", "type": "pubkeyhash"}, "value": 0.0007, "n": 0}, {"scriptPubKey": {"reqSigs": 1, "hex": "76a914e349bc52d6b8100b58d3fce45135a91c5c128a1d88ac", "addresses": ["1MiningDkXkhKaXBTMKXfLemnk1YY5rbkT"], "asm": "OP_DUP OP_HASH160 e349bc52d6b8100b58d3fce45135a91c5c128a1d OP_EQUALVERIFY OP_CHECKSIG", "type": "pubkeyhash"}, "value": 0.03035006, "n": 1}], "hex": "0200000001732393b35310144573b0022b17e3024395fef9c5e0f0ef504c65d3a72b1e5632010000008a4730440220620ddab1eabe4d89445f6e744bca0bfd5fe24a841f036cb94618d19535cffd5002203e5d9c7eaf591759aca745a876948469c8e416cc93eb0056120590c663a88a8d014104ae414abde7876c34e01694b38b2341d10b9b4c8db18a66262bd8df26bcb57893885c9fe8b79aa25330d5f05bb5aa9ab636a908a72e27956572b44190b22809beffffffff0270110100000000001976a914da6b68037f3c814ec14e8313a0908591f158a6e288ac7e4f2e00000000001976a914e349bc52d6b8100b58d3fce45135a91c5c128a1d88ac00000000", "vin": [{"sequence": 4294967295, "scriptSig": {"hex": "4730440220620ddab1eabe4d89445f6e744bca0bfd5fe24a841f036cb94618d19535cffd5002203e5d9c7eaf591759aca745a876948469c8e416cc93eb0056120590c663a88a8d014104ae414abde7876c34e01694b38b2341d10b9b4c8db18a66262bd8df26bcb57893885c9fe8b79aa25330d5f05bb5aa9ab636a908a72e27956572b44190b22809be", "asm": "30440220620ddab1eabe4d89445f6e744bca0bfd5fe24a841f036cb94618d19535cffd5002203e5d9c7eaf591759aca745a876948469c8e416cc93eb0056120590c663a88a8d[ALL] 04ae414abde7876c34e01694b38b2341d10b9b4c8db18a66262bd8df26bcb57893885c9fe8b79aa25330d5f05bb5aa9ab636a908a72e27956572b44190b22809be"}, "vout": 1, "txid": "32561e2ba7d3654c50eff0e0c5f9fe954302e3172b02b07345141053b3932373"}], "txid": "2b1adbe39c5a961e61ec5d07a08da09db24e4d08ca3bf89bad7d3e11745cdbc1", "blocktime": 1537871767, "version": 2, "confirmations": 11493, "time": 1537871767, "locktime": 0, "vsize": 257, "size": 257}