{"hash": "2b1a473961beab36953df394f60943abf957ad730ded85d7ff07396ea1046ceb", "blockhash": "00000000000000000004ffacab907a6b429b9a5745fa0b75af4234bf69dd7176", "vout": [{"scriptPubKey": {"reqSigs": 1, "hex": "76a914814ea37cf27d396e828287337a123a9460fce99388ac", "addresses": ["1CniNeuhrw6d7HyXvRTsdkn1MYhQQrRZKA"], "asm": "OP_DUP OP_HASH160 814ea37cf27d396e828287337a123a9460fce993 OP_EQUALVERIFY OP_CHECKSIG", "type": "pubkeyhash"}, "value": 0.00362792, "n": 0}, {"scriptPubKey": {"reqSigs": 1, "hex": "76a914f1d65d530e7e9fe6730c68682fc53d66cb15f43d88ac", "addresses": ["1P3ieYPCdXdpx86oTownu3vmaTrVtozDAv"], "asm": "OP_DUP OP_HASH160 f1d65d530e7e9fe6730c68682fc53d66cb15f43d OP_EQUALVERIFY OP_CHECKSIG", "type": "pubkeyhash"}, "value": 8.74181096, "n": 1}], "hex": "0100000001beaee05564c8e562d37dfd4b9d2e693024ceb78b35f8d6833a692f5d2a4d0c89000000006b483045022100c4344a5e8a0a60e6e71c519e51d9f7cfd89ebc1449b10c525e59937046368dc60220525d195a4f28cee7ccc15ea0bd83e77adb3f334e02de5bced5505f58752d4daf012102629c51d373eff50b264d00ac3f6702cc3e52e8aa27ce28ff19af39d8a3ed7de0ffffffff0228890500000000001976a914814ea37cf27d396e828287337a123a9460fce99388ace8f11a34000000001976a914f1d65d530e7e9fe6730c68682fc53d66cb15f43d88ac00000000", "vin": [{"sequence": 4294967295, "scriptSig": {"hex": "483045022100c4344a5e8a0a60e6e71c519e51d9f7cfd89ebc1449b10c525e59937046368dc60220525d195a4f28cee7ccc15ea0bd83e77adb3f334e02de5bced5505f58752d4daf012102629c51d373eff50b264d00ac3f6702cc3e52e8aa27ce28ff19af39d8a3ed7de0", "asm": "3045022100c4344a5e8a0a60e6e71c519e51d9f7cfd89ebc1449b10c525e59937046368dc60220525d195a4f28cee7ccc15ea0bd83e77adb3f334e02de5bced5505f58752d4daf[ALL] 02629c51d373eff50b264d00ac3f6702cc3e52e8aa27ce28ff19af39d8a3ed7de0"}, "vout": 0, "txid": "890c4d2a5d2f693a83d6f8358bb7ce2430692e9d4bfd7dd362e5c86455e0aebe"}], "txid": "2b1a473961beab36953df394f60943abf957ad730ded85d7ff07396ea1046ceb", "blocktime": 1537875543, "version": 1, "confirmations": 11464, "time": 1537875543, "locktime": 0, "vsize": 226, "size": 226}