{"hash": "d0d9251c510cd737a6d1ff2389da3361579735b4c44a80dbe9bd2380a4b2fe3d", "blockhash": "0000000000000000000baef3f32e3676a92c3b2e5da21b426e4f302fc371ce76", "vout": [{"scriptPubKey": {"reqSigs": 1, "hex": "a914c8948f84ab8bc2187580e4fb86ecf2a0a06e11cf87", "addresses": ["3Kyb35jwJ7YCiAF7JRfW5VZdpyywKap5YB"], "asm": "OP_HASH160 c8948f84ab8bc2187580e4fb86ecf2a0a06e11cf OP_EQUAL", "type": "scripthash"}, "value": 4.12e-05, "n": 0}, {"scriptPubKey": {"reqSigs": 1, "hex": "a9148ddb66c3371910a0ef8f38021cc4094e61e69f3a87", "addresses": ["3Ed62sPENkraPwpovPty9YMFGJ8FtTyv63"], "asm": "OP_HASH160 8ddb66c3371910a0ef8f38021cc4094e61e69f3a OP_EQUAL", "type": "scripthash"}, "value": 0.00027889, "n": 1}], "hex": "01000000000101d6c66cf72ab785fc7a5ff817a4aa64bd7b5c09f65e3b57d00eb9bb45632392ae0100000023220020fdd23d707f55451c4e006c77b5e8df35a185a8e99f9bda70bf0ded7913bb1eb3ffffffff02181000000000000017a914c8948f84ab8bc2187580e4fb86ecf2a0a06e11cf87f16c00000000000017a9148ddb66c3371910a0ef8f38021cc4094e61e69f3a870400483045022100eb2414111e0c3d6acf48ebb7d1bf013368d2c97952bd6b9fea634f012f033a810220382262715a3d21b1bf0ad8640afa92ef47958e03ac6ed52e2e9083b9ce35248901473044022029d9a5d89973d5b67a284fc2b9cb332e198da540a7b0abd6fc190e036aefa573022004c79b56dddea02da4708125fc1963bafd7f0b438777a7496ffb67930e93b249014752210286c104577b978160849865bc23f9a6df9b53d41c8ffb486754b97b2a474a181c2103148c80a5bdfddb05ff5bcffc397c8ca748d8b435ec6a175bc9d7bfc7fc6f853752ae00000000", "vin": [{"txinwitness": ["", "3045022100eb2414111e0c3d6acf48ebb7d1bf013368d2c97952bd6b9fea634f012f033a810220382262715a3d21b1bf0ad8640afa92ef47958e03ac6ed52e2e9083b9ce35248901", "3044022029d9a5d89973d5b67a284fc2b9cb332e198da540a7b0abd6fc190e036aefa573022004c79b56dddea02da4708125fc1963bafd7f0b438777a7496ffb67930e93b24901", "52210286c104577b978160849865bc23f9a6df9b53d41c8ffb486754b97b2a474a181c2103148c80a5bdfddb05ff5bcffc397c8ca748d8b435ec6a175bc9d7bfc7fc6f853752ae"], "sequence": 4294967295, "scriptSig": {"hex": "220020fdd23d707f55451c4e006c77b5e8df35a185a8e99f9bda70bf0ded7913bb1eb3", "asm": "0020fdd23d707f55451c4e006c77b5e8df35a185a8e99f9bda70bf0ded7913bb1eb3"}, "vout": 1, "txid": "ae92236345bbb90ed0573b5ef6095c7bbd64aaa417f85f7afc85b72af76cc6d6"}], "txid": "2b1ced772341e1d0d6a395e5d9f6471766979de7f6f0733fc814ad5958910e8c", "blocktime": 1537876114, "version": 1, "confirmations": 11462, "time": 1537876114, "locktime": 0, "vsize": 206, "size": 371}