{"hash": "2b1db7bf614cfed4232ceec6e8c8d2af47eb197c4f47220cdd960f485c08a409", "blockhash": "00000000000000000017f5eb5941039fbcee6240d03bc1f2f8e35350df66a1d8", "vout": [{"scriptPubKey": {"reqSigs": 1, "hex": "76a91443c85a42ab09985de7cee0bec9cd0b7dd93ad57c88ac", "addresses": ["17BQHbSyT9S41AHC3ER13RaMmEwWsCizbK"], "asm": "OP_DUP OP_HASH160 43c85a42ab09985de7cee0bec9cd0b7dd93ad57c OP_EQUALVERIFY OP_CHECKSIG", "type": "pubkeyhash"}, "value": 0.00634106, "n": 0}, {"scriptPubKey": {"type": "nulldata", "hex": "6a4c50000077f500014c00efd8d918ccfe50a5c201d19ed074892d00f8e87af8e8e963c7cfd5b9d6f53fea45ff67ed273c7e53f32448fd5baa18aa06135135a39524071d100759d4ba30d2c37bb011d97e02cf", "asm": "OP_RETURN 000077f500014c00efd8d918ccfe50a5c201d19ed074892d00f8e87af8e8e963c7cfd5b9d6f53fea45ff67ed273c7e53f32448fd5baa18aa06135135a39524071d100759d4ba30d2c37bb011d97e02cf"}, "value": 0.0, "n": 1}], "hex": "0100000001c5f54807f5f1c399a9d2a7abfb0691f9b49541c929e95d5aa8247bf3cebee675010000006a4730440220797db0311f0ed7e5651de7135ceec7cd7cbc7df0659be11c26647c0e69c65c8e022078d9ca312dcd4f450a946aec058fff954c55bddd09ea3a50e1d1a6ad532759e601210247e3ea0105f19e19bcf542f37163409647adaa390f9b24ebebc249f752ae6dbfffffffff02faac0900000000001976a91443c85a42ab09985de7cee0bec9cd0b7dd93ad57c88ac0000000000000000536a4c50000077f500014c00efd8d918ccfe50a5c201d19ed074892d00f8e87af8e8e963c7cfd5b9d6f53fea45ff67ed273c7e53f32448fd5baa18aa06135135a39524071d100759d4ba30d2c37bb011d97e02cf00000000", "vin": [{"sequence": 4294967295, "scriptSig": {"hex": "4730440220797db0311f0ed7e5651de7135ceec7cd7cbc7df0659be11c26647c0e69c65c8e022078d9ca312dcd4f450a946aec058fff954c55bddd09ea3a50e1d1a6ad532759e601210247e3ea0105f19e19bcf542f37163409647adaa390f9b24ebebc249f752ae6dbf", "asm": "30440220797db0311f0ed7e5651de7135ceec7cd7cbc7df0659be11c26647c0e69c65c8e022078d9ca312dcd4f450a946aec058fff954c55bddd09ea3a50e1d1a6ad532759e6[ALL] 0247e3ea0105f19e19bcf542f37163409647adaa390f9b24ebebc249f752ae6dbf"}, "vout": 1, "txid": "75e6becef37b24a85a5de929c94195b4f99106fbaba7d2a999c3f1f50748f5c5"}], "txid": "2b1db7bf614cfed4232ceec6e8c8d2af47eb197c4f47220cdd960f485c08a409", "blocktime": 1537874412, "version": 1, "confirmations": 11467, "time": 1537874412, "locktime": 0, "vsize": 283, "size": 283}