{"hash": "5ba1ac8fa2c276c7df332f9f29e8c16d0cf176a197f3fb9914d63e9f36218caf", "blockhash": "0000000000000000000e13cef7c366c0283d82e591d1acd082e914b08063cdf1", "vout": [{"scriptPubKey": {"reqSigs": 1, "hex": "00147ede635d560759ceb6fb7c89d9cc5b4fd622c591", "addresses": ["bc1q0m0xxh2kqavuadhm0jyannzmfltz93v3akz9eg"], "asm": "0 7ede635d560759ceb6fb7c89d9cc5b4fd622c591", "type": "witness_v0_keyhash"}, "value": 0.00075826, "n": 0}, {"scriptPubKey": {"reqSigs": 1, "hex": "76a914dcdeeab4b9917e2bc5dad40c9eec6cc8b52e910f88ac", "addresses": ["1M8rhjdAUfLfDoeytpiihgtmAbC45EkUfw"], "asm": "OP_DUP OP_HASH160 dcdeeab4b9917e2bc5dad40c9eec6cc8b52e910f OP_EQUALVERIFY OP_CHECKSIG", "type": "pubkeyhash"}, "value": 0.01832062, "n": 1}], "hex": "01000000000101c7bb034bf71e95b653b7a7b99c333a7fed9beb21f564fb1caf68391132654a0e0100000000ffffffff0232280100000000001600147ede635d560759ceb6fb7c89d9cc5b4fd622c5917ef41b00000000001976a914dcdeeab4b9917e2bc5dad40c9eec6cc8b52e910f88ac0247304402200e3928f1d144486ba9217d4070209be0007d8a286e45aa0145490504607ca26b022025bed6bdfe7a9ff011d8517fd6b77d8e6a93c6ec7e3394a8327edbd7875dfdba0121032f97ed2578cc7ef9c2025f4fabaedab5529a26e9de42c7bd64dbe70259810ef900000000", "vin": [{"txinwitness": ["304402200e3928f1d144486ba9217d4070209be0007d8a286e45aa0145490504607ca26b022025bed6bdfe7a9ff011d8517fd6b77d8e6a93c6ec7e3394a8327edbd7875dfdba01", "032f97ed2578cc7ef9c2025f4fabaedab5529a26e9de42c7bd64dbe70259810ef9"], "sequence": 4294967295, "scriptSig": {"hex": "", "asm": ""}, "vout": 1, "txid": "0e4a6532113968af1cfb64f521eb9bed7f3a339cb9a7b753b6951ef74b03bbc7"}], "txid": "2b26a8b9f694005609607ec16138154bb18f1183160a212899608cdd535a1963", "blocktime": 1537871767, "version": 1, "confirmations": 11495, "time": 1537871767, "locktime": 0, "vsize": 144, "size": 225}