{"hash": "2b2a9d59585d2f8f7932dc32060ebc93622ee8fd6de13c76c98320d05e30b838", "blockhash": "0000000000000000000e13cef7c366c0283d82e591d1acd082e914b08063cdf1", "vout": [{"scriptPubKey": {"reqSigs": 1, "hex": "a914dcc92c48c718776105e120a76ac08dc60092db1587", "addresses": ["3MpRaVQNxyh5rnYWt1PUf3XR8JZH2mUHHJ"], "asm": "OP_HASH160 dcc92c48c718776105e120a76ac08dc60092db15 OP_EQUAL", "type": "scripthash"}, "value": 0.00976105, "n": 0}, {"scriptPubKey": {"reqSigs": 1, "hex": "76a914d8d672837979320fe9b9f76358c85592280a594a88ac", "addresses": ["1LmXrVnWFhgcsg9UVjnXEhUC7t2RzCEGq6"], "asm": "OP_DUP OP_HASH160 d8d672837979320fe9b9f76358c85592280a594a OP_EQUALVERIFY OP_CHECKSIG", "type": "pubkeyhash"}, "value": 0.00720012, "n": 1}], "hex": "01000000012452c4eee41ba0aa71487daaa8838663fd6fbd3c0f0243e53fcc9d8d8deabab101000000fdfd0000483045022100a78498a64a1a4172b0c69226f881c4538e101f5b6d345d62c3d0712fe3ae990702202c2f01d6673d87e5dda9bffb07f5dbee32ab7fba97217db1ef2c927e8720edcb01473044022067b746b6a4912289dd84b9b0210caa35ac28f5c9273ca16f931c7f6c77db8978022031224eb9931064fc011431fdbdd38618f7b6abe15ff83321d1b1221759eccd26014c695221021710bb292b50acf106795f5bf5a7382ca6508c8b4a7c4d4372299c55a07e9cc02102f6304e512b5d982d127c05f93da71940f92d328f0aadaa3dd0c3dd6e737219fb210337dc90a8b5f09c014ee94ee9d8c9848ba02544b4d6facb6b13f5b2f10d4e0f5153aeffffffff02e9e40e000000000017a914dcc92c48c718776105e120a76ac08dc60092db15878cfc0a00000000001976a914d8d672837979320fe9b9f76358c85592280a594a88ac00000000", "vin": [{"sequence": 4294967295, "scriptSig": {"hex": "00483045022100a78498a64a1a4172b0c69226f881c4538e101f5b6d345d62c3d0712fe3ae990702202c2f01d6673d87e5dda9bffb07f5dbee32ab7fba97217db1ef2c927e8720edcb01473044022067b746b6a4912289dd84b9b0210caa35ac28f5c9273ca16f931c7f6c77db8978022031224eb9931064fc011431fdbdd38618f7b6abe15ff83321d1b1221759eccd26014c695221021710bb292b50acf106795f5bf5a7382ca6508c8b4a7c4d4372299c55a07e9cc02102f6304e512b5d982d127c05f93da71940f92d328f0aadaa3dd0c3dd6e737219fb210337dc90a8b5f09c014ee94ee9d8c9848ba02544b4d6facb6b13f5b2f10d4e0f5153ae", "asm": "0 3045022100a78498a64a1a4172b0c69226f881c4538e101f5b6d345d62c3d0712fe3ae990702202c2f01d6673d87e5dda9bffb07f5dbee32ab7fba97217db1ef2c927e8720edcb[ALL] 3044022067b746b6a4912289dd84b9b0210caa35ac28f5c9273ca16f931c7f6c77db8978022031224eb9931064fc011431fdbdd38618f7b6abe15ff83321d1b1221759eccd26[ALL] 5221021710bb292b50acf106795f5bf5a7382ca6508c8b4a7c4d4372299c55a07e9cc02102f6304e512b5d982d127c05f93da71940f92d328f0aadaa3dd0c3dd6e737219fb210337dc90a8b5f09c014ee94ee9d8c9848ba02544b4d6facb6b13f5b2f10d4e0f5153ae"}, "vout": 1, "txid": "b1baea8d8d9dcc3fe543020f3cbd6ffd638683a8aa7d4871aaa01be4eec45224"}], "txid": "2b2a9d59585d2f8f7932dc32060ebc93622ee8fd6de13c76c98320d05e30b838", "blocktime": 1537871767, "version": 1, "confirmations": 11493, "time": 1537871767, "locktime": 0, "vsize": 372, "size": 372}