{"hash": "a1e4f60a689569fdaf7111de5eddb8833a566711b24297e32a486a2699bad7c1", "blockhash": "0000000000000000000e13cef7c366c0283d82e591d1acd082e914b08063cdf1", "vout": [{"scriptPubKey": {"reqSigs": 1, "hex": "a9145d2c1987eaeae21a56aadf4deffa7c895fbbd2f687", "addresses": ["3ABfbVCNATofsk24V4o8qqURrKTuzbLkuq"], "asm": "OP_HASH160 5d2c1987eaeae21a56aadf4deffa7c895fbbd2f6 OP_EQUAL", "type": "scripthash"}, "value": 0.02022182, "n": 0}, {"scriptPubKey": {"reqSigs": 1, "hex": "a914fded078b6a8d20307abb81e51fdac90b82d825a387", "addresses": ["3QqeqAzyVjjNJLBC8Lhx3PKuCpvUFoH27a"], "asm": "OP_HASH160 fded078b6a8d20307abb81e51fdac90b82d825a3 OP_EQUAL", "type": "scripthash"}, "value": 0.28332599, "n": 1}], "hex": "010000000001014e8c1f06800f55d5feb7ca14ef5f1432bc8c129ddf57bf979980581ca43b1958010000001716001499ae11a168ecbaa2e83f734319b7bce20c074012ffffffff0226db1e000000000017a9145d2c1987eaeae21a56aadf4deffa7c895fbbd2f6873752b0010000000017a914fded078b6a8d20307abb81e51fdac90b82d825a38702483045022100f91f5c9aeb460382f13fb3022a7e3d9b473ee5d8bbdeb2a1af96fccb9879cbc302201cbd8361e241b5dd740bf134b5d870738cef384f1df8f2ea3e3bd8da8f111cf70121036fd88da44929fe6f9573a49960eb36c590e8315958dfe0bbe131f52e642c2ee400000000", "vin": [{"txinwitness": ["3045022100f91f5c9aeb460382f13fb3022a7e3d9b473ee5d8bbdeb2a1af96fccb9879cbc302201cbd8361e241b5dd740bf134b5d870738cef384f1df8f2ea3e3bd8da8f111cf701", "036fd88da44929fe6f9573a49960eb36c590e8315958dfe0bbe131f52e642c2ee4"], "sequence": 4294967295, "scriptSig": {"hex": "16001499ae11a168ecbaa2e83f734319b7bce20c074012", "asm": "001499ae11a168ecbaa2e83f734319b7bce20c074012"}, "vout": 1, "txid": "58193ba41c58809997bf57df9d128cbc32145fef14cab7fed5550f80061f8c4e"}], "txid": "2b2a515a88bd1688259f7c7a7a5cd992b08858b09dd2a73dada6afcfa3a30a4b", "blocktime": 1537871767, "version": 1, "confirmations": 11493, "time": 1537871767, "locktime": 0, "vsize": 166, "size": 248}