{"hash": "2b2bc0b550c27de206ff2cc749830c4421b9ff18b62443f084547ef75c9989b1", "blockhash": "0000000000000000001f76057863aec43deb6fa401d9628bb513d65a8098bfab", "vout": [{"scriptPubKey": {"reqSigs": 1, "hex": "76a914d49e412797ec2dc732a9d0ef92d77900dd46640d88ac", "addresses": ["1LPDqPHStYLMEnV3zbJ7rZCJ4J6ZEQojoQ"], "asm": "OP_DUP OP_HASH160 d49e412797ec2dc732a9d0ef92d77900dd46640d OP_EQUALVERIFY OP_CHECKSIG", "type": "pubkeyhash"}, "value": 0.01609, "n": 0}, {"scriptPubKey": {"reqSigs": 1, "hex": "76a91425bd4a735940e463afc5222b7519e1551e2f594b88ac", "addresses": ["14SYmFmeWdbDmi65jS6FXsywcBx8UsMu8B"], "asm": "OP_DUP OP_HASH160 25bd4a735940e463afc5222b7519e1551e2f594b OP_EQUALVERIFY OP_CHECKSIG", "type": "pubkeyhash"}, "value": 0.02181766, "n": 1}], "hex": "0100000002f6d60d1bc240f09df44ae8cffb65598a3127ce9a3b7d31da9fe30a80c5d5356f010000006a47304402206ffd04347a6df4babda58e0f95f3f8069e115c57741ef48f763e9876cdf011c0022075a37f1fc18117249442ee3cf3fee1795f7ef5295330fcc4ffe9f41f0c9461860121029f44ecc16302d9d7fec4f3ab048c043d1953c4b1e3f007e7d9e82ad50e6f7c3affffffff0970fff4af13bf1af69bb3e9b6e5e7005cbc398b1434cbb8c1483f54a133b1fe000000006a473044022066b8632fe88e5177bd9ba2ef932f0d69b78fb2c4b73f24ba6f93c8ef386247d0022031adbf17ec623b10ae03fec4fe672b91512c4115e605b400eb732e915946b1d7012102ae7448d9187553aab7290f8f0ff2bbfc185300e1c1ed237ef7481404a7743e38ffffffff02288d1800000000001976a914d49e412797ec2dc732a9d0ef92d77900dd46640d88ac864a2100000000001976a91425bd4a735940e463afc5222b7519e1551e2f594b88ac00000000", "vin": [{"sequence": 4294967295, "scriptSig": {"hex": "47304402206ffd04347a6df4babda58e0f95f3f8069e115c57741ef48f763e9876cdf011c0022075a37f1fc18117249442ee3cf3fee1795f7ef5295330fcc4ffe9f41f0c9461860121029f44ecc16302d9d7fec4f3ab048c043d1953c4b1e3f007e7d9e82ad50e6f7c3a", "asm": "304402206ffd04347a6df4babda58e0f95f3f8069e115c57741ef48f763e9876cdf011c0022075a37f1fc18117249442ee3cf3fee1795f7ef5295330fcc4ffe9f41f0c946186[ALL] 029f44ecc16302d9d7fec4f3ab048c043d1953c4b1e3f007e7d9e82ad50e6f7c3a"}, "vout": 1, "txid": "6f35d5c5800ae39fda317d3b9ace27318a5965fbcfe84af49df040c21b0dd6f6"}, {"sequence": 4294967295, "scriptSig": {"hex": "473044022066b8632fe88e5177bd9ba2ef932f0d69b78fb2c4b73f24ba6f93c8ef386247d0022031adbf17ec623b10ae03fec4fe672b91512c4115e605b400eb732e915946b1d7012102ae7448d9187553aab7290f8f0ff2bbfc185300e1c1ed237ef7481404a7743e38", "asm": "3044022066b8632fe88e5177bd9ba2ef932f0d69b78fb2c4b73f24ba6f93c8ef386247d0022031adbf17ec623b10ae03fec4fe672b91512c4115e605b400eb732e915946b1d7[ALL] 02ae7448d9187553aab7290f8f0ff2bbfc185300e1c1ed237ef7481404a7743e38"}, "vout": 0, "txid": "feb133a1543f48c1b8cb34148b39bc5c00e7e5b6e9b39bf61abf13aff4ff7009"}], "txid": "2b2bc0b550c27de206ff2cc749830c4421b9ff18b62443f084547ef75c9989b1", "blocktime": 1537873891, "version": 1, "confirmations": 11478, "time": 1537873891, "locktime": 0, "vsize": 372, "size": 372}