{"hash": "2b2b62a3ad7cd79f5f386c48e947b6311c53492f547e0ed7a8cb9df699600b15", "blockhash": "0000000000000000000e13cef7c366c0283d82e591d1acd082e914b08063cdf1", "vout": [{"scriptPubKey": {"reqSigs": 1, "hex": "76a9140a6b825daa1b89f8e100ed8eec6d79b592500f4988ac", "addresses": ["1x6YnuBVeeE65dQRZztRWgUPwyBjHCA5g"], "asm": "OP_DUP OP_HASH160 0a6b825daa1b89f8e100ed8eec6d79b592500f49 OP_EQUALVERIFY OP_CHECKSIG", "type": "pubkeyhash"}, "value": 0.44697258, "n": 0}, {"scriptPubKey": {"reqSigs": 1, "hex": "76a914a45c755b0bc19c24ae7963e518e107d261f54bf888ac", "addresses": ["1Fz4aas8awBSsXL5E7K9hZoCWYuy3VL73M"], "asm": "OP_DUP OP_HASH160 a45c755b0bc19c24ae7963e518e107d261f54bf8 OP_EQUALVERIFY OP_CHECKSIG", "type": "pubkeyhash"}, "value": 5.46e-06, "n": 1}, {"scriptPubKey": {"type": "nulldata", "hex": "6a146f6d6e69000000000000001f0000001f70e78fd0", "asm": "OP_RETURN 6f6d6e69000000000000001f0000001f70e78fd0"}, "value": 0.0, "n": 2}], "hex": "010000000198101ac8ae600d2d03f5612ba524a6b4b83581e196701579ddcc966f17f3194c000000006a473044022010370b7bf8e0d6ceaff3cc621dc90151cd5d2ebd8f50fa1198eaca9d6fff8ff5022071572a491547d060956232840bc6bf6943669eb813039d92ccc61a8cce637065012103fe02b06a6bfd9b5a83e0417430a3235a39a0b4c7973591ca27ac58f6474d9120ffffffff03aa06aa02000000001976a9140a6b825daa1b89f8e100ed8eec6d79b592500f4988ac22020000000000001976a914a45c755b0bc19c24ae7963e518e107d261f54bf888ac0000000000000000166a146f6d6e69000000000000001f0000001f70e78fd000000000", "vin": [{"sequence": 4294967295, "scriptSig": {"hex": "473044022010370b7bf8e0d6ceaff3cc621dc90151cd5d2ebd8f50fa1198eaca9d6fff8ff5022071572a491547d060956232840bc6bf6943669eb813039d92ccc61a8cce637065012103fe02b06a6bfd9b5a83e0417430a3235a39a0b4c7973591ca27ac58f6474d9120", "asm": "3044022010370b7bf8e0d6ceaff3cc621dc90151cd5d2ebd8f50fa1198eaca9d6fff8ff5022071572a491547d060956232840bc6bf6943669eb813039d92ccc61a8cce637065[ALL] 03fe02b06a6bfd9b5a83e0417430a3235a39a0b4c7973591ca27ac58f6474d9120"}, "vout": 0, "txid": "4c19f3176f96ccdd79157096e18135b8b4a624a52b61f5032d0d60aec81a1098"}], "txid": "2b2b62a3ad7cd79f5f386c48e947b6311c53492f547e0ed7a8cb9df699600b15", "blocktime": 1537871767, "version": 1, "confirmations": 11490, "time": 1537871767, "locktime": 0, "vsize": 256, "size": 256}