{"hash": "2b2d08cab60038712758a166e0b5e21d249b4ba2eae22c68404cede1365e8dc3", "blockhash": "0000000000000000000e13cef7c366c0283d82e591d1acd082e914b08063cdf1", "vout": [{"scriptPubKey": {"reqSigs": 1, "hex": "a914b9d1ba1d2f94a725ac11f1165495aaad018fc3aa87", "addresses": ["3JdYB7w7o45XmRcuYWD3jis6pXinM96Xqj"], "asm": "OP_HASH160 b9d1ba1d2f94a725ac11f1165495aaad018fc3aa OP_EQUAL", "type": "scripthash"}, "value": 0.00776265, "n": 0}, {"scriptPubKey": {"reqSigs": 1, "hex": "76a9149fbae7ed04fd139d6cad341a5b037b0c6d17569d88ac", "addresses": ["1FZaLxP48zFX7QnoWweAM3sRQ9AYn5ruJp"], "asm": "OP_DUP OP_HASH160 9fbae7ed04fd139d6cad341a5b037b0c6d17569d OP_EQUALVERIFY OP_CHECKSIG", "type": "pubkeyhash"}, "value": 0.02385378, "n": 1}], "hex": "0100000001b01418069b02a0df6b271cb1c80fe7f5da7e168938a9f2d5c227f607b989fef6010000006b483045022100805a6a091238e917bcf1142e3ef278818123ac0ec9646ff52bb13d37e778627402203a1b780731036aed0a4309a14edbdb4021e69c6792087b2164f4acc6daa4c367012102e34908148f04e59693aa90c424f542345b3f2b6fdec629a4dabea75c8e61e36fffffffff0249d80b000000000017a914b9d1ba1d2f94a725ac11f1165495aaad018fc3aa87e2652400000000001976a9149fbae7ed04fd139d6cad341a5b037b0c6d17569d88ac00000000", "vin": [{"sequence": 4294967295, "scriptSig": {"hex": "483045022100805a6a091238e917bcf1142e3ef278818123ac0ec9646ff52bb13d37e778627402203a1b780731036aed0a4309a14edbdb4021e69c6792087b2164f4acc6daa4c367012102e34908148f04e59693aa90c424f542345b3f2b6fdec629a4dabea75c8e61e36f", "asm": "3045022100805a6a091238e917bcf1142e3ef278818123ac0ec9646ff52bb13d37e778627402203a1b780731036aed0a4309a14edbdb4021e69c6792087b2164f4acc6daa4c367[ALL] 02e34908148f04e59693aa90c424f542345b3f2b6fdec629a4dabea75c8e61e36f"}, "vout": 1, "txid": "f6fe89b907f627c2d5f2a93889167edaf5e70fc8b11c276bdfa0029b061814b0"}], "txid": "2b2d08cab60038712758a166e0b5e21d249b4ba2eae22c68404cede1365e8dc3", "blocktime": 1537871767, "version": 1, "confirmations": 11491, "time": 1537871767, "locktime": 0, "vsize": 224, "size": 224}