{"hash": "804aaaa4f2c5e7fe85dc855f598095f4b7519413c2a60adb66f419937aff2511", "blockhash": "000000000000000000205f8b0775d31398ef75b89a5e8ec8d2c57b4dc0ac4c20", "vout": [{"scriptPubKey": {"reqSigs": 1, "hex": "76a91401a7c320b160be788fde3366e55adad2fca4882188ac", "addresses": ["19keWsf7e2BtdNnYSv8yfAyrJAuZXULVN"], "asm": "OP_DUP OP_HASH160 01a7c320b160be788fde3366e55adad2fca48821 OP_EQUALVERIFY OP_CHECKSIG", "type": "pubkeyhash"}, "value": 0.27801566, "n": 0}, {"scriptPubKey": {"reqSigs": 1, "hex": "a914876f25272ef36ef3c5b5e16a548fa10b1e58cd5387", "addresses": ["3E38HwToNJ73rR8kkwZiYFBxB4mLFrSBr8"], "asm": "OP_HASH160 876f25272ef36ef3c5b5e16a548fa10b1e58cd53 OP_EQUAL", "type": "scripthash"}, "value": 0.01807746, "n": 1}, {"scriptPubKey": {"reqSigs": 1, "hex": "76a9149661a2c230865b5e57ee18a255a4c24cca1ddfc188ac", "addresses": ["1Ei9KdNqRE7H562sWehHFuDjSU491sj6Gb"], "asm": "OP_DUP OP_HASH160 9661a2c230865b5e57ee18a255a4c24cca1ddfc1 OP_EQUALVERIFY OP_CHECKSIG", "type": "pubkeyhash"}, "value": 0.01632387, "n": 2}, {"scriptPubKey": {"reqSigs": 1, "hex": "76a9145a1e7def31bfd67ff1f511d7bff4a37cc8ae7fba88ac", "addresses": ["19DWLt7XTrjFCk59VdcJsh2hdrX455Dcwp"], "asm": "OP_DUP OP_HASH160 5a1e7def31bfd67ff1f511d7bff4a37cc8ae7fba OP_EQUALVERIFY OP_CHECKSIG", "type": "pubkeyhash"}, "value": 0.01144754, "n": 3}, {"scriptPubKey": {"reqSigs": 1, "hex": "a9143cf8bfb947b249c634ce452e2080b67c4ab2e12887", "addresses": ["37FQTRzACeC2Se7pgXN1WJH7YA75QsHNXJ"], "asm": "OP_HASH160 3cf8bfb947b249c634ce452e2080b67c4ab2e128 OP_EQUAL", "type": "scripthash"}, "value": 0.21810962, "n": 4}], "hex": "020000000001011347bc354662b81e1c1e477cf4f3ac18be754e7879633d48e96d8459a533bccd0a0000001716001408252a4f60bea213aa3fc4dba2f2993664f75faffdffffff05de37a801000000001976a91401a7c320b160be788fde3366e55adad2fca4882188ac82951b000000000017a914876f25272ef36ef3c5b5e16a548fa10b1e58cd538783e81800000000001976a9149661a2c230865b5e57ee18a255a4c24cca1ddfc188acb2771100000000001976a9145a1e7def31bfd67ff1f511d7bff4a37cc8ae7fba88ac12cf4c010000000017a9143cf8bfb947b249c634ce452e2080b67c4ab2e12887024830450221009cf23aff4ae1d8601656d6118936ae380a2362231f5355d7303e7c595c80dd1b02206d491da1939c5c7b63558382bad79bdead7b18e327c03656f210ca0919c01a19012103f2cb5adb168d38a6dadfad9a4b2561022688477fbd8b86a423756853b57bb56e01000000", "vin": [{"txinwitness": ["30450221009cf23aff4ae1d8601656d6118936ae380a2362231f5355d7303e7c595c80dd1b02206d491da1939c5c7b63558382bad79bdead7b18e327c03656f210ca0919c01a1901", "03f2cb5adb168d38a6dadfad9a4b2561022688477fbd8b86a423756853b57bb56e"], "sequence": 4294967293, "scriptSig": {"hex": "16001408252a4f60bea213aa3fc4dba2f2993664f75faf", "asm": "001408252a4f60bea213aa3fc4dba2f2993664f75faf"}, "vout": 10, "txid": "cdbc33a559846de9483d6379784e75be18acf3f47c471e1c1eb8624635bc4713"}], "txid": "2b2d61d6bb237ba827362577887fed93f6cf90fe8d65f4293903ee8e7d168581", "blocktime": 1537871175, "version": 2, "confirmations": 11511, "time": 1537871175, "locktime": 1, "vsize": 268, "size": 350}