{"hash": "2b2df45034567e3152d7542f79586477e43bf700b5a2f65f258e032632a226f8", "blockhash": "0000000000000000001f76057863aec43deb6fa401d9628bb513d65a8098bfab", "vout": [{"scriptPubKey": {"reqSigs": 1, "hex": "76a914bd987a0678be87d969245348f3ba4b2d8fd4e24a88ac", "addresses": ["1JHVNXAdJykNEmsnHB1HEVfxZmSk7XmEu7"], "asm": "OP_DUP OP_HASH160 bd987a0678be87d969245348f3ba4b2d8fd4e24a OP_EQUALVERIFY OP_CHECKSIG", "type": "pubkeyhash"}, "value": 0.1365221, "n": 0}, {"scriptPubKey": {"reqSigs": 1, "hex": "76a9142c6c5abfd06759280a06b317b35995d647b47adc88ac", "addresses": ["153tY3TnJ4JpnLeyYZS5c9KVYBUivEWMKm"], "asm": "OP_DUP OP_HASH160 2c6c5abfd06759280a06b317b35995d647b47adc OP_EQUALVERIFY OP_CHECKSIG", "type": "pubkeyhash"}, "value": 0.00985615, "n": 1}, {"scriptPubKey": {"reqSigs": 1, "hex": "76a914077e430780127dc201e5b49f0a81f263bff8ab2388ac", "addresses": ["1gczAnnG3SNg2pJDJeYfWPf5QFk33Y9m7"], "asm": "OP_DUP OP_HASH160 077e430780127dc201e5b49f0a81f263bff8ab23 OP_EQUALVERIFY OP_CHECKSIG", "type": "pubkeyhash"}, "value": 0.08834659, "n": 2}], "hex": "0200000001b7c32c891a1c55c42126c5f1393842f38d7128018a93e5c9a2cfda99418a92bb010000006b4830450221008be227941bdaf13aca35d1cbe6c9a6248c3aaaeb4007f91af7507ed66f7fb5a0022007a28a5036c06a4c225d2ccd9349c14316cbfb133d82c45a1a59f0333a546d3d0121027efe2b35591fcae4d6e1cdfb2e426298878ebea31b656012c3d49162e0d2c0c1feffffff03f250d000000000001976a914bd987a0678be87d969245348f3ba4b2d8fd4e24a88ac0f0a0f00000000001976a9142c6c5abfd06759280a06b317b35995d647b47adc88ac63ce8600000000001976a914077e430780127dc201e5b49f0a81f263bff8ab2388ac14490800", "vin": [{"sequence": 4294967294, "scriptSig": {"hex": "4830450221008be227941bdaf13aca35d1cbe6c9a6248c3aaaeb4007f91af7507ed66f7fb5a0022007a28a5036c06a4c225d2ccd9349c14316cbfb133d82c45a1a59f0333a546d3d0121027efe2b35591fcae4d6e1cdfb2e426298878ebea31b656012c3d49162e0d2c0c1", "asm": "30450221008be227941bdaf13aca35d1cbe6c9a6248c3aaaeb4007f91af7507ed66f7fb5a0022007a28a5036c06a4c225d2ccd9349c14316cbfb133d82c45a1a59f0333a546d3d[ALL] 027efe2b35591fcae4d6e1cdfb2e426298878ebea31b656012c3d49162e0d2c0c1"}, "vout": 1, "txid": "bb928a4199dacfa2c9e5938a0128718df3423839f1c52621c4551c1a892cc3b7"}], "txid": "2b2df45034567e3152d7542f79586477e43bf700b5a2f65f258e032632a226f8", "blocktime": 1537873891, "version": 2, "confirmations": 11474, "time": 1537873891, "locktime": 542996, "vsize": 260, "size": 260}