{"hash": "2b30c8cf5d62fda982acb7d858cdd3e119c1d4486a0f4922f112dfcc4d0f3db9", "blockhash": "0000000000000000001cda96e906b7601b7a6fb1a3b62bca570a9e5d8f4b3de1", "vout": [{"scriptPubKey": {"reqSigs": 1, "hex": "a914ed1218c5cd598945ba7f501cc78f87ca2a5b197987", "addresses": ["3PJXkPkWuqKTWhFXe6E4hHdtEPrNPM414m"], "asm": "OP_HASH160 ed1218c5cd598945ba7f501cc78f87ca2a5b1979 OP_EQUAL", "type": "scripthash"}, "value": 0.004145, "n": 0}, {"scriptPubKey": {"reqSigs": 1, "hex": "a914dbb4bfaf9ffbac56ce709e7456c0fca1a67bb1f187", "addresses": ["3MiiSCXcSf9qqXibN2kpZYca6hZpNXXLQj"], "asm": "OP_HASH160 dbb4bfaf9ffbac56ce709e7456c0fca1a67bb1f1 OP_EQUAL", "type": "scripthash"}, "value": 0.08136788, "n": 1}, {"scriptPubKey": {"reqSigs": 1, "hex": "76a9144dbcd92c274ff2fd2c2a58d7553b2c78ed2d91a688ac", "addresses": ["1863GBcRQ6evgqVjNAZy3wZRkzCYq1RQHa"], "asm": "OP_DUP OP_HASH160 4dbcd92c274ff2fd2c2a58d7553b2c78ed2d91a6 OP_EQUALVERIFY OP_CHECKSIG", "type": "pubkeyhash"}, "value": 0.1, "n": 2}, {"scriptPubKey": {"reqSigs": 1, "hex": "76a914cb774270d7f7153e6a8a72bc05a11b6e541d21d688ac", "addresses": ["1KYq3EsyX51uYSiVyAva8uRugWi4tKoavn"], "asm": "OP_DUP OP_HASH160 cb774270d7f7153e6a8a72bc05a11b6e541d21d6 OP_EQUALVERIFY OP_CHECKSIG", "type": "pubkeyhash"}, "value": 0.17157101, "n": 3}, {"scriptPubKey": {"reqSigs": 1, "hex": "76a91443849383122ebb8a28268a89700c9f723663b5b888ac", "addresses": ["17A16QmavnUfCW11DAApiJxp7ARnxN5pGX"], "asm": "OP_DUP OP_HASH160 43849383122ebb8a28268a89700c9f723663b5b8 OP_EQUALVERIFY OP_CHECKSIG", "type": "pubkeyhash"}, "value": 132.23150682, "n": 4}], "hex": "0200000001e57c8525c0bdad972daa7679c8753cc00fe5caf1d56851e9aab31f170dac27e7030000008b48304502210086a927b01323aa4b704ee42afe4a88c1d9415429a5713ba2d211eacba86888a802206172a9b1988cd0c018d43408247c0685e94f3a951b2cd0cb8aed8f67c01c1b510141047146f0e0fcb3139947cf0beb870fe251930ca10d4545793d31033e801b5219abf56c11a3cf3406ca590e4c14b0dab749d20862b3adc4709153c280c2a78be10cffffffff05245306000000000017a914ed1218c5cd598945ba7f501cc78f87ca2a5b19798754287c000000000017a914dbb4bfaf9ffbac56ce709e7456c0fca1a67bb1f18780969800000000001976a9144dbcd92c274ff2fd2c2a58d7553b2c78ed2d91a688acedcb0501000000001976a914cb774270d7f7153e6a8a72bc05a11b6e541d21d688ac5a442914030000001976a91443849383122ebb8a28268a89700c9f723663b5b888ac00000000", "vin": [{"sequence": 4294967295, "scriptSig": {"hex": "48304502210086a927b01323aa4b704ee42afe4a88c1d9415429a5713ba2d211eacba86888a802206172a9b1988cd0c018d43408247c0685e94f3a951b2cd0cb8aed8f67c01c1b510141047146f0e0fcb3139947cf0beb870fe251930ca10d4545793d31033e801b5219abf56c11a3cf3406ca590e4c14b0dab749d20862b3adc4709153c280c2a78be10c", "asm": "304502210086a927b01323aa4b704ee42afe4a88c1d9415429a5713ba2d211eacba86888a802206172a9b1988cd0c018d43408247c0685e94f3a951b2cd0cb8aed8f67c01c1b51[ALL] 047146f0e0fcb3139947cf0beb870fe251930ca10d4545793d31033e801b5219abf56c11a3cf3406ca590e4c14b0dab749d20862b3adc4709153c280c2a78be10c"}, "vout": 3, "txid": "e727ac0d171fb3aae95168d5f1cae50fc03c75c87976aa2d97adbdc025857ce5"}], "txid": "2b30c8cf5d62fda982acb7d858cdd3e119c1d4486a0f4922f112dfcc4d0f3db9", "blocktime": 1537873282, "version": 2, "confirmations": 11480, "time": 1537873282, "locktime": 0, "vsize": 356, "size": 356}