{"hash": "2b32988d78b9dce3695954e04b39bcf5432501a348eeb6635c6ce6e83c126a80", "blockhash": "0000000000000000000e13cef7c366c0283d82e591d1acd082e914b08063cdf1", "vout": [{"scriptPubKey": {"reqSigs": 1, "hex": "a9149811449bc7cdd0cd22ea685eb7aa7734e12ec20c87", "addresses": ["3FZ5KWB1X8hHQ2AwX2GGj8fiB2kxJDWrrG"], "asm": "OP_HASH160 9811449bc7cdd0cd22ea685eb7aa7734e12ec20c OP_EQUAL", "type": "scripthash"}, "value": 0.3122285, "n": 0}, {"scriptPubKey": {"reqSigs": 1, "hex": "76a914c394b0556b1e7c6fc03db209eab0f5c11e9aed4288ac", "addresses": ["1Jq8tVCGGVR6BtetJENEc5CnyZjcDbBMQa"], "asm": "OP_DUP OP_HASH160 c394b0556b1e7c6fc03db209eab0f5c11e9aed42 OP_EQUALVERIFY OP_CHECKSIG", "type": "pubkeyhash"}, "value": 10.2370274, "n": 1}], "hex": "02000000019c71f3bbfe52c8db10a2bb25515df369a1853324aeaff679a744b28bf86b1d0e010000006a4730440220658e67124f8f209bec36aa10d29c92f2ffa2bd17a0d534942dd3fc704f81827e022021d7e8c3b760eb29d03d41308dfaa54491444e6f89c546c6478ed97df5285763012102c6df5e61f7a9871c2e4ca366bf2f373aa7adb6ba8e8a22445bddab89a03a3734ffffffff02426cdc010000000017a9149811449bc7cdd0cd22ea685eb7aa7734e12ec20c87d476043d000000001976a914c394b0556b1e7c6fc03db209eab0f5c11e9aed4288ac00000000", "vin": [{"sequence": 4294967295, "scriptSig": {"hex": "4730440220658e67124f8f209bec36aa10d29c92f2ffa2bd17a0d534942dd3fc704f81827e022021d7e8c3b760eb29d03d41308dfaa54491444e6f89c546c6478ed97df5285763012102c6df5e61f7a9871c2e4ca366bf2f373aa7adb6ba8e8a22445bddab89a03a3734", "asm": "30440220658e67124f8f209bec36aa10d29c92f2ffa2bd17a0d534942dd3fc704f81827e022021d7e8c3b760eb29d03d41308dfaa54491444e6f89c546c6478ed97df5285763[ALL] 02c6df5e61f7a9871c2e4ca366bf2f373aa7adb6ba8e8a22445bddab89a03a3734"}, "vout": 1, "txid": "0e1d6bf88bb244a779f6afae243385a169f35d5125bba210dbc852febbf3719c"}], "txid": "2b32988d78b9dce3695954e04b39bcf5432501a348eeb6635c6ce6e83c126a80", "blocktime": 1537871767, "version": 2, "confirmations": 11495, "time": 1537871767, "locktime": 0, "vsize": 223, "size": 223}