{"hash": "2f8a5682bc6f997fd76d1bacddbd46cb157e966327023975143810f402ac8a08", "blockhash": "0000000000000000000e13cef7c366c0283d82e591d1acd082e914b08063cdf1", "vout": [{"scriptPubKey": {"reqSigs": 1, "hex": "a91470925788f9d5f70dc2f511e1c2ab7dcee6402d6987", "addresses": ["3BxEv3YDxdUe3MU4fm8yRvLds7ZLU9fJGk"], "asm": "OP_HASH160 70925788f9d5f70dc2f511e1c2ab7dcee6402d69 OP_EQUAL", "type": "scripthash"}, "value": 0.01682504, "n": 0}], "hex": "01000000000102cc55354731bb1e284fb30106a5e1790b1a1ee845c1af880f09e9900b4f0422e80100000017160014a39efe1adb9454f09ead82880105eaf4207a8c80ffffffff372b7a165c76af14948b43316afd532c4f91051f2a3c3978cda42e82f90411ec04000000171600144f16f5c69342d909f3160007371789cd893c115fffffffff0148ac19000000000017a91470925788f9d5f70dc2f511e1c2ab7dcee6402d698702483045022100d09ada94478c878b916136078694678cef5df4d0f2a2108deea328441418b87902201e558296f1c54c81e81a5834da41736a91f78cb7d0b9b96dd2ba47a819d286cf012103cebc5d4c90a56baf8d91e243ac2aa1e33c71e20c7280077eefb8df2327678c3b02483045022100f9d6eb9b73be34e7873dd95f4a504d62c465808b5589d20eb6b06b7279478c1e02207acf7e656145300098bead6e5102fc7bb08f157cdc6434892e7b54a4a539be0f0121022fd2f3d6fac649f97bc8d1532b147f1394388115ba5f72d716a8c0f6c2c80c5b00000000", "vin": [{"txinwitness": ["3045022100d09ada94478c878b916136078694678cef5df4d0f2a2108deea328441418b87902201e558296f1c54c81e81a5834da41736a91f78cb7d0b9b96dd2ba47a819d286cf01", "03cebc5d4c90a56baf8d91e243ac2aa1e33c71e20c7280077eefb8df2327678c3b"], "sequence": 4294967295, "scriptSig": {"hex": "160014a39efe1adb9454f09ead82880105eaf4207a8c80", "asm": "0014a39efe1adb9454f09ead82880105eaf4207a8c80"}, "vout": 1, "txid": "e822044f0b90e9090f88afc145e81e1a0b79e1a50601b34f281ebb31473555cc"}, {"txinwitness": ["3045022100f9d6eb9b73be34e7873dd95f4a504d62c465808b5589d20eb6b06b7279478c1e02207acf7e656145300098bead6e5102fc7bb08f157cdc6434892e7b54a4a539be0f01", "022fd2f3d6fac649f97bc8d1532b147f1394388115ba5f72d716a8c0f6c2c80c5b"], "sequence": 4294967295, "scriptSig": {"hex": "1600144f16f5c69342d909f3160007371789cd893c115f", "asm": "00144f16f5c69342d909f3160007371789cd893c115f"}, "vout": 4, "txid": "ec1104f9822ea4cd78393c2a1f05914f2c53fd6a31438b9414af765c167a2b37"}], "txid": "2b33cc61550edc53374c43dfd89b8dd44ac58bc560a3b1d8527a31234e86817c", "blocktime": 1537871767, "version": 1, "confirmations": 11493, "time": 1537871767, "locktime": 0, "vsize": 225, "size": 388}