{"hash": "4b25e190b469efc2525b7dda4129467647b2902cfe9134a8f118910800e18960", "blockhash": "00000000000000000017f5eb5941039fbcee6240d03bc1f2f8e35350df66a1d8", "vout": [{"scriptPubKey": {"reqSigs": 1, "hex": "76a9141e3ffff726f133c418bb9d4795960249755dbb9888ac", "addresses": ["13kwwYXJMkDykjfGqkDc4xctA8XUWoxMRK"], "asm": "OP_DUP OP_HASH160 1e3ffff726f133c418bb9d4795960249755dbb98 OP_EQUALVERIFY OP_CHECKSIG", "type": "pubkeyhash"}, "value": 0.09981184, "n": 0}, {"scriptPubKey": {"reqSigs": 1, "hex": "a91467a9a2aa6d3df79f16ef3cd30178da70655508eb87", "addresses": ["3B98jn3UMCCck9Fiu1D8i4Ve25A9mXX6rX"], "asm": "OP_HASH160 67a9a2aa6d3df79f16ef3cd30178da70655508eb OP_EQUAL", "type": "scripthash"}, "value": 0.02436295, "n": 1}, {"scriptPubKey": {"reqSigs": 1, "hex": "a914660463843fab26efd7c08848a655f78d973d975087", "addresses": ["3AzS73aQL3LXSjPxJybcLzxf9VqL2ruMuB"], "asm": "OP_HASH160 660463843fab26efd7c08848a655f78d973d9750 OP_EQUAL", "type": "scripthash"}, "value": 0.01130865, "n": 2}, {"scriptPubKey": {"reqSigs": 1, "hex": "76a914e7ef6bd84cf1ac86e7f84aebe52bd846117dba9388ac", "addresses": ["1N9MubU4CLfCRdVMhcgvZLJL5F48SYAUiv"], "asm": "OP_DUP OP_HASH160 e7ef6bd84cf1ac86e7f84aebe52bd846117dba93 OP_EQUALVERIFY OP_CHECKSIG", "type": "pubkeyhash"}, "value": 0.02611797, "n": 3}, {"scriptPubKey": {"reqSigs": 1, "hex": "76a914192312ec25306bdb79e648d15fc4f7efa83bd40888ac", "addresses": ["13HuumuFVQBvMwVgcgwbEW6iikqujRcxM8"], "asm": "OP_DUP OP_HASH160 192312ec25306bdb79e648d15fc4f7efa83bd408 OP_EQUALVERIFY OP_CHECKSIG", "type": "pubkeyhash"}, "value": 0.0237, "n": 4}, {"scriptPubKey": {"reqSigs": 1, "hex": "a9145d73e5da379ce886f2fcd5706438cf4becaac33287", "addresses": ["3AD9c7FNdaSXWgrCf1C3zpJfUsEmjRd4MC"], "asm": "OP_HASH160 5d73e5da379ce886f2fcd5706438cf4becaac332 OP_EQUAL", "type": "scripthash"}, "value": 0.047, "n": 5}, {"scriptPubKey": {"reqSigs": 1, "hex": "76a91438ca3f06c83924441898cd8b04223f6c90bfcd6488ac", "addresses": ["16BH84Ap8qgnJbf1WnJaHsf27berytDCYE"], "asm": "OP_DUP OP_HASH160 38ca3f06c83924441898cd8b04223f6c90bfcd64 OP_EQUALVERIFY OP_CHECKSIG", "type": "pubkeyhash"}, "value": 0.0255, "n": 6}, {"scriptPubKey": {"reqSigs": 1, "hex": "a914ea645e5e20987adfaa9d5fa4a915d008965f102387", "addresses": ["3P4NHAbib3uvj6QNYmPWqEJMZnx4HzszTp"], "asm": "OP_HASH160 ea645e5e20987adfaa9d5fa4a915d008965f1023 OP_EQUAL", "type": "scripthash"}, "value": 0.01043206, "n": 7}], "hex": "02000000000110c662454bb8b45df93be2a630bea928db2e64863e515acf10a1cdd485d35a03e20200000017160014cfc095ad129b020c57e7d2f5b3cbaab4ef18b3c6ffffffffb4bc2420a4645b6ce90a94e31df8212eadb73a69c8766a9da7ff9629e554cad00d000000171600142df30c321b11f35687eecafa53751a3febfeac27ffffffff75d72a3d1c6931067b0886b64c916e98d3c3841eefd5de9b8e350ba744ba57b40000000017160014ad2f666cb584021418fe1095134f7067f5d13490ffffffff140c38cf7229d849616a0385fd576447dc5bf53386e30fab447f3e4612afcbf21400000017160014cf3655c52c5d05dae068c89fb3ad2f7aa5db4831ffffffff13baf2fa5ee06683d87217ff84379083ad14adfa4b2757b9e1c26bc79ffaafeb0d000000171600149aa1760d0412b6d3311be1e858ea2f9cb23da6b2ffffffff320ae08edfcdd6da2d6870770fa3442da0ab25e0b6289205baa43e3dfbf5285e02000000171600143b154a1ca49511f12dc7c3aa2d3315abb06b0993fffffffff85193ea7437681962790d6773688ad9c199b1c7437437e2a888335effe10deb11000000171600145a0d2623db6ff32a0f46b986d370627585f0473fffffffff80f521c65b295e76e40de7c31328a358b7e59d3e0df7b8c84cdee23b3299b0f60900000017160014c03e83cb2f5692f3ac18994cac9a38be4d2285a6ffffffffb8a86a8961b053f1ee0742d8fa24ce0de1cb37850e48e05cbed8cc652330270f0000000017160014b71788e564fe0223e550cae1fa7f42caa14e08daffffffffb8a8f32fb56f6d70c1c4926a9a74116927e4ab67bd436c19b7d0dd8980cb3e880000000017160014e7d44554a275a4cf6bc1de42b4b4c291f626cd79ffffffffb4bc2420a4645b6ce90a94e31df8212eadb73a69c8766a9da7ff9629e554cad001000000171600141f30e0db84546b1bfad4f4ef145a07fdfbc3c5c9ffffffff109b6746806fad2c546dbbb8af12d03922d18c7169947d309bbc3fb362e4e4530d00000017160014c7921dc9e24b7fce99da5a77f63a0090e637e232ffffffffd57a800bccefd10f39e8ebf95b250dfe6a7849297402ec2844c5391ae0b706c70a00000017160014471f8a9580816b6fec4813ea1a6ac2b22cb371fbffffffffc662454bb8b45df93be2a630bea928db2e64863e515acf10a1cdd485d35a03e20600000017160014af00d8fe57f17289c83359215a6a0f3f5651819dffffffff7be7469373bfad63fa65e62b4a86ab0da9c2cb1dd9a09e27b16530c7f8d83d90000000001716001410bbe6b2696e136905dca47ef700291dbd1f16f3ffffffff4a176526eeab7a7e73b3e10dfb720212ae6a6a3cc6dc8b26aad52f9d76bc21e600000000171600147bb3d932e3c3acc16433a8b06aed01f5d3ee3331ffffffff08004d9800000000001976a9141e3ffff726f133c418bb9d4795960249755dbb9888acc72c25000000000017a91467a9a2aa6d3df79f16ef3cd30178da70655508eb87714111000000000017a914660463843fab26efd7c08848a655f78d973d97508755da2700000000001976a914e7ef6bd84cf1ac86e7f84aebe52bd846117dba9388acd0292400000000001976a914192312ec25306bdb79e648d15fc4f7efa83bd40888ac60b747000000000017a9145d73e5da379ce886f2fcd5706438cf4becaac33287f0e82600000000001976a91438ca3f06c83924441898cd8b04223f6c90bfcd6488ac06eb0f000000000017a914ea645e5e20987adfaa9d5fa4a915d008965f102387024730440220325df8aba1a1ab1ef0604489dbeee5719c97b13b357b9fe13e78feaa031ff32a0220662d5d7d750d506b4749688e29cdfa82f1377f5b5c5e552f38fb5f5b9d7491c9012102383ec595fc6f6c8d0238c748b9cea98c7ad649ff1fa5dc91739806b532a9633e02473044022054721f0ec61ef80dca76e2750d9303e8570df2c5add22a28df76604d47659dcd022050e4966f2031bde381750f1f61fceac4d93b71286c71697d6b9b67ca19caf28a012103708fcb18902950e09082d70b77be88575ebac846d4c2ebd12af4a9af69e1b53b02483045022100f79bf4801276a0de9ebc606d509d41ca66f394c55b2f74720a334ab47f5fcbdf022065e56905021049f05b0efe5df40297f6e006824f8b4b71c20bcbb8e1d3655ff4012102f3b8f6003e54f20e802cab1aa8d0a3c55ce6736ac1c613278a67db2d7fac7214024830450221008a6706374adb54807124e64583cfc80fa00ddeddd7cfd1f485d98e1d89f86ff902202a920a29b0961072ae1fa2b7b132b59094e3fa039f0793ee37c60c80b73f8c93012102ab85fe3cc83a031acd01ccc7b20bdc816a9b5e5e6032fc6915b02abe2bcdc3300247304402206ed3486010c6ea0293fc55ca3c1600a2344cfa6b0299ec0b693bbca7fe48c5ab02201096b477e487d3e5e65be9bb277c5dd4db165987e7a4084d871bf3aa3803afca012103f3ee5fee14635923d9eaec962e5609b465c96118f8ee5d3748da8dfb85de379102483045022100bbf2ef0a907b86e30c5121c3fcf253ab0d1ced0cb6bc2ceaaf4d43e113ca0c88022021a0ec089b858e4508971675df7def629710237e64cc1abb65e6e7fd3ce3bb6801210267888021b0dfa02f426e69b294b8f88dda8fb78c10cf50e905fb456d006d4c0302483045022100c126b98db0c8da1cc99f2d7ffde0292b661780215eaf5dce0acb49d2ff8e9da50220155c54fa34e9d3f220dc9c9cd5eedd31b9803925ddef23314d596f84f1996a6501210361c226b159e377677a60942fd1db4c57fb5dc082c3b7f931239b45ae110c62ac024730440220285697d01e5eb2fb92a6213c7e4a89ebe1a097bbaa4da7759f1f06a8cdbf62450220090f579d259ca6e7036708ea8ff42c29492ef49a4b3d8fb0f8a4643c7ff638ac012102dc513fb5fed37db1f82529a9e2b8c28ec95ad5b6025db89a2246524ce08b288502473044022024de1e39fe6c3f95358c227f1e54c7c65904868c1d0772ce0009c50f9b72eda5022021bcbeaeff89b2e114958fe0f6ab02479298c77067c4dd8a63692d2ee21363730121030693e438757d69ac2a0117b45991fc15c4f810f8bfb36cf7c79e6ac2418477c00247304402200901452c9dbfc588612629954ddad1e1cd0097eb364be4d9af6bdb75ac91bba2022033eba3fa7e80b71ddb794578936912911f78f8842afac790ae402281104d1e6601210288f5c77e1e21b2febbd126a55842aef873f517cf921579c7c16d7417edafc2a102473044022020748a6b9ed32c121e5431c9cde38d46c0f87998d52b01d960e21a792eaa6cd602200ec9d3504a4d0d6bc47385d3b55201c79d875b7d046f786003c02f4c9fb32f1201210246fc6099edd3705b85d9f58b05b8a7ad316d999f6104409a9a8271d5368077760247304402203363a223264f10623bf74100310fb07dfa3f7ee471a1fca033fe408196f3a4140220558a71e1a73cab1825bb316c6a8c9e85fd2fe91af8e4f74816261928eb335fd0012102e9d945954ff0202ffa98f8aeb44d0e54f81eaf70bc18410b6ac0420285aacf68024830450221009616528df3233636f1b749a0ba8ee89a1d2fa11495c54130e8d9ebc75ebc6daf022042b558ab1ab002c78ebf86b33516dacd1458748a749da2296e473b74ee7083990121022d6d6e03253f3a5f669e3e20893627fbfc00d590c02f5ca205e232e7bd928f1302483045022100f9e1824d93b2b29d47f19bc01d0ea9d176330f18fcf2db13cf8020abf18f356702204435acece0ae532f83fc83b0591a2e77bcf8c67732f9a6361227032ff8c0ee1a0121023c10d2e93ba6170da8e0c137aa37d974c607fb4ed82759744dbce660f097321202473044022034be48d3707baed52de868b276c7c8c1167a0a96d056f534c925f780dc1caa0e02207614d997e1a34eeb3b45a34d3691c9b74cf1c3fa4d9a4ffe8b2806442077f0af012103aaf393e991afd7b4665d4397cd636c51a55f90ae4813f05f519adb187b76019b02473044022012beaad8783b37d7df2d36aafa22f9bc1f2fab06fdfb960fcccb466fb8dde21202201375d6d540bd6a06a990ee6735c589f6145b905f5b1a4a0edc38c639f3fba989012103c08e5d8f61fbd9dc8b93dd66d98bfa1e130117a744360b8306b1d381e9464a3800000000", "vin": [{"txinwitness": ["30440220325df8aba1a1ab1ef0604489dbeee5719c97b13b357b9fe13e78feaa031ff32a0220662d5d7d750d506b4749688e29cdfa82f1377f5b5c5e552f38fb5f5b9d7491c901", "02383ec595fc6f6c8d0238c748b9cea98c7ad649ff1fa5dc91739806b532a9633e"], "sequence": 4294967295, "scriptSig": {"hex": "160014cfc095ad129b020c57e7d2f5b3cbaab4ef18b3c6", "asm": "0014cfc095ad129b020c57e7d2f5b3cbaab4ef18b3c6"}, "vout": 2, "txid": "e2035ad385d4cda110cf5a513e86642edb28a9be30a6e23bf95db4b84b4562c6"}, {"txinwitness": ["3044022054721f0ec61ef80dca76e2750d9303e8570df2c5add22a28df76604d47659dcd022050e4966f2031bde381750f1f61fceac4d93b71286c71697d6b9b67ca19caf28a01", "03708fcb18902950e09082d70b77be88575ebac846d4c2ebd12af4a9af69e1b53b"], "sequence": 4294967295, "scriptSig": {"hex": "1600142df30c321b11f35687eecafa53751a3febfeac27", "asm": "00142df30c321b11f35687eecafa53751a3febfeac27"}, "vout": 13, "txid": "d0ca54e52996ffa79d6a76c8693ab7ad2e21f81de3940ae96c5b64a42024bcb4"}, {"txinwitness": ["3045022100f79bf4801276a0de9ebc606d509d41ca66f394c55b2f74720a334ab47f5fcbdf022065e56905021049f05b0efe5df40297f6e006824f8b4b71c20bcbb8e1d3655ff401", "02f3b8f6003e54f20e802cab1aa8d0a3c55ce6736ac1c613278a67db2d7fac7214"], "sequence": 4294967295, "scriptSig": {"hex": "160014ad2f666cb584021418fe1095134f7067f5d13490", "asm": "0014ad2f666cb584021418fe1095134f7067f5d13490"}, "vout": 0, "txid": "b457ba44a70b358e9bded5ef1e84c3d3986e914cb686087b0631691c3d2ad775"}, {"txinwitness": ["30450221008a6706374adb54807124e64583cfc80fa00ddeddd7cfd1f485d98e1d89f86ff902202a920a29b0961072ae1fa2b7b132b59094e3fa039f0793ee37c60c80b73f8c9301", "02ab85fe3cc83a031acd01ccc7b20bdc816a9b5e5e6032fc6915b02abe2bcdc330"], "sequence": 4294967295, "scriptSig": {"hex": "160014cf3655c52c5d05dae068c89fb3ad2f7aa5db4831", "asm": "0014cf3655c52c5d05dae068c89fb3ad2f7aa5db4831"}, "vout": 20, "txid": "f2cbaf12463e7f44ab0fe38633f55bdc476457fd85036a6149d82972cf380c14"}, {"txinwitness": ["304402206ed3486010c6ea0293fc55ca3c1600a2344cfa6b0299ec0b693bbca7fe48c5ab02201096b477e487d3e5e65be9bb277c5dd4db165987e7a4084d871bf3aa3803afca01", "03f3ee5fee14635923d9eaec962e5609b465c96118f8ee5d3748da8dfb85de3791"], "sequence": 4294967295, "scriptSig": {"hex": "1600149aa1760d0412b6d3311be1e858ea2f9cb23da6b2", "asm": "00149aa1760d0412b6d3311be1e858ea2f9cb23da6b2"}, "vout": 13, "txid": "ebaffa9fc76bc2e1b957274bfaad14ad83903784ff1772d88366e05efaf2ba13"}, {"txinwitness": ["3045022100bbf2ef0a907b86e30c5121c3fcf253ab0d1ced0cb6bc2ceaaf4d43e113ca0c88022021a0ec089b858e4508971675df7def629710237e64cc1abb65e6e7fd3ce3bb6801", "0267888021b0dfa02f426e69b294b8f88dda8fb78c10cf50e905fb456d006d4c03"], "sequence": 4294967295, "scriptSig": {"hex": "1600143b154a1ca49511f12dc7c3aa2d3315abb06b0993", "asm": "00143b154a1ca49511f12dc7c3aa2d3315abb06b0993"}, "vout": 2, "txid": "5e28f5fb3d3ea4ba059228b6e025aba02d44a30f7770682ddad6cddf8ee00a32"}, {"txinwitness": ["3045022100c126b98db0c8da1cc99f2d7ffde0292b661780215eaf5dce0acb49d2ff8e9da50220155c54fa34e9d3f220dc9c9cd5eedd31b9803925ddef23314d596f84f1996a6501", "0361c226b159e377677a60942fd1db4c57fb5dc082c3b7f931239b45ae110c62ac"], "sequence": 4294967295, "scriptSig": {"hex": "1600145a0d2623db6ff32a0f46b986d370627585f0473f", "asm": "00145a0d2623db6ff32a0f46b986d370627585f0473f"}, "vout": 17, "txid": "eb0de1ff5e3388a8e2377443c7b199c1d98a6873670d796219683774ea9351f8"}, {"txinwitness": ["30440220285697d01e5eb2fb92a6213c7e4a89ebe1a097bbaa4da7759f1f06a8cdbf62450220090f579d259ca6e7036708ea8ff42c29492ef49a4b3d8fb0f8a4643c7ff638ac01", "02dc513fb5fed37db1f82529a9e2b8c28ec95ad5b6025db89a2246524ce08b2885"], "sequence": 4294967295, "scriptSig": {"hex": "160014c03e83cb2f5692f3ac18994cac9a38be4d2285a6", "asm": "0014c03e83cb2f5692f3ac18994cac9a38be4d2285a6"}, "vout": 9, "txid": "f6b099323be2de4cc8b8f70d3e9de5b758a32813c3e70de4765e295bc621f580"}, {"txinwitness": ["3044022024de1e39fe6c3f95358c227f1e54c7c65904868c1d0772ce0009c50f9b72eda5022021bcbeaeff89b2e114958fe0f6ab02479298c77067c4dd8a63692d2ee213637301", "030693e438757d69ac2a0117b45991fc15c4f810f8bfb36cf7c79e6ac2418477c0"], "sequence": 4294967295, "scriptSig": {"hex": "160014b71788e564fe0223e550cae1fa7f42caa14e08da", "asm": "0014b71788e564fe0223e550cae1fa7f42caa14e08da"}, "vout": 0, "txid": "0f27302365ccd8be5ce0480e8537cbe10dce24fad84207eef153b061896aa8b8"}, {"txinwitness": ["304402200901452c9dbfc588612629954ddad1e1cd0097eb364be4d9af6bdb75ac91bba2022033eba3fa7e80b71ddb794578936912911f78f8842afac790ae402281104d1e6601", "0288f5c77e1e21b2febbd126a55842aef873f517cf921579c7c16d7417edafc2a1"], "sequence": 4294967295, "scriptSig": {"hex": "160014e7d44554a275a4cf6bc1de42b4b4c291f626cd79", "asm": "0014e7d44554a275a4cf6bc1de42b4b4c291f626cd79"}, "vout": 0, "txid": "883ecb8089ddd0b7196c43bd67abe4276911749a6a92c4c1706d6fb52ff3a8b8"}, {"txinwitness": ["3044022020748a6b9ed32c121e5431c9cde38d46c0f87998d52b01d960e21a792eaa6cd602200ec9d3504a4d0d6bc47385d3b55201c79d875b7d046f786003c02f4c9fb32f1201", "0246fc6099edd3705b85d9f58b05b8a7ad316d999f6104409a9a8271d536807776"], "sequence": 4294967295, "scriptSig": {"hex": "1600141f30e0db84546b1bfad4f4ef145a07fdfbc3c5c9", "asm": "00141f30e0db84546b1bfad4f4ef145a07fdfbc3c5c9"}, "vout": 1, "txid": "d0ca54e52996ffa79d6a76c8693ab7ad2e21f81de3940ae96c5b64a42024bcb4"}, {"txinwitness": ["304402203363a223264f10623bf74100310fb07dfa3f7ee471a1fca033fe408196f3a4140220558a71e1a73cab1825bb316c6a8c9e85fd2fe91af8e4f74816261928eb335fd001", "02e9d945954ff0202ffa98f8aeb44d0e54f81eaf70bc18410b6ac0420285aacf68"], "sequence": 4294967295, "scriptSig": {"hex": "160014c7921dc9e24b7fce99da5a77f63a0090e637e232", "asm": "0014c7921dc9e24b7fce99da5a77f63a0090e637e232"}, "vout": 13, "txid": "53e4e462b33fbc9b307d9469718cd12239d012afb8bb6d542cad6f8046679b10"}, {"txinwitness": ["30450221009616528df3233636f1b749a0ba8ee89a1d2fa11495c54130e8d9ebc75ebc6daf022042b558ab1ab002c78ebf86b33516dacd1458748a749da2296e473b74ee70839901", "022d6d6e03253f3a5f669e3e20893627fbfc00d590c02f5ca205e232e7bd928f13"], "sequence": 4294967295, "scriptSig": {"hex": "160014471f8a9580816b6fec4813ea1a6ac2b22cb371fb", "asm": "0014471f8a9580816b6fec4813ea1a6ac2b22cb371fb"}, "vout": 10, "txid": "c706b7e01a39c54428ec02742949786afe0d255bf9ebe8390fd1efcc0b807ad5"}, {"txinwitness": ["3045022100f9e1824d93b2b29d47f19bc01d0ea9d176330f18fcf2db13cf8020abf18f356702204435acece0ae532f83fc83b0591a2e77bcf8c67732f9a6361227032ff8c0ee1a01", "023c10d2e93ba6170da8e0c137aa37d974c607fb4ed82759744dbce660f0973212"], "sequence": 4294967295, "scriptSig": {"hex": "160014af00d8fe57f17289c83359215a6a0f3f5651819d", "asm": "0014af00d8fe57f17289c83359215a6a0f3f5651819d"}, "vout": 6, "txid": "e2035ad385d4cda110cf5a513e86642edb28a9be30a6e23bf95db4b84b4562c6"}, {"txinwitness": ["3044022034be48d3707baed52de868b276c7c8c1167a0a96d056f534c925f780dc1caa0e02207614d997e1a34eeb3b45a34d3691c9b74cf1c3fa4d9a4ffe8b2806442077f0af01", "03aaf393e991afd7b4665d4397cd636c51a55f90ae4813f05f519adb187b76019b"], "sequence": 4294967295, "scriptSig": {"hex": "16001410bbe6b2696e136905dca47ef700291dbd1f16f3", "asm": "001410bbe6b2696e136905dca47ef700291dbd1f16f3"}, "vout": 0, "txid": "903dd8f8c73065b1279ea0d91dcbc2a90dab864a2be665fa63adbf739346e77b"}, {"txinwitness": ["3044022012beaad8783b37d7df2d36aafa22f9bc1f2fab06fdfb960fcccb466fb8dde21202201375d6d540bd6a06a990ee6735c589f6145b905f5b1a4a0edc38c639f3fba98901", "03c08e5d8f61fbd9dc8b93dd66d98bfa1e130117a744360b8306b1d381e9464a38"], "sequence": 4294967295, "scriptSig": {"hex": "1600147bb3d932e3c3acc16433a8b06aed01f5d3ee3331", "asm": "00147bb3d932e3c3acc16433a8b06aed01f5d3ee3331"}, "vout": 0, "txid": "e621bc769d2fd5aa268bdcc63c6a6aae120272fb0de1b3737e7aabee2665174a"}], "txid": "2b343bbc9de83a3ee073063e21ff15ecfe19cc5c4316688b93713030c69d9855", "blocktime": 1537874412, "version": 2, "confirmations": 11467, "time": 1537874412, "locktime": 0, "vsize": 1728, "size": 3018}