{"hash": "2b361329e167258700fb1d8d28fa92805e87b78fb9709280370dcc0781c465c7", "blockhash": "0000000000000000001e0dab787dd257d1dbfcb92a98c2207d5e1078be1f4165", "vout": [{"scriptPubKey": {"reqSigs": 1, "hex": "a914a7aedd0d1e77300fb06aa154c9a517b74c08d24587", "addresses": ["3GyeFJmQynJWd8DeACm4cdEnZcckAtrfcN"], "asm": "OP_HASH160 a7aedd0d1e77300fb06aa154c9a517b74c08d245 OP_EQUAL", "type": "scripthash"}, "value": 0.08970614, "n": 0}, {"scriptPubKey": {"reqSigs": 1, "hex": "a914a7aedd0d1e77300fb06aa154c9a517b74c08d24587", "addresses": ["3GyeFJmQynJWd8DeACm4cdEnZcckAtrfcN"], "asm": "OP_HASH160 a7aedd0d1e77300fb06aa154c9a517b74c08d245 OP_EQUAL", "type": "scripthash"}, "value": 2.73e-05, "n": 1}, {"scriptPubKey": {"type": "nulldata", "hex": "6a146f6d6e69000000000000001f0000005169f4c580", "asm": "OP_RETURN 6f6d6e69000000000000001f0000005169f4c580"}, "value": 0.0, "n": 2}], "hex": "01000000023b0025d5d23fe062acbe4218a80936fdf3944797cc49adabdeff86b3f5db21fc02000000fc0047304402202ccdf2d7683d90d5b7ff02022ac353961793f11808f6cb41eaef6038a8a023aa022031f9ba89ac802b6138ee4a4b539a390f9557943e3e57a13195aeda6b35d2b14a014730440220486ee5bc969b4cd35da25631667a972142f33677b2aa4f13126c3186a2bd08b602201710990a5a8cf788d7538875958af14f435475528ede142ff857e89fa39dc734014c69522103f42ab39b29074bc616e8e5cf5c9b8e75374ea3323fc00804ef51e79882fbf09821038ac2b2d996a53f4f0174fa46f53af82b52ca191b1ea0698aa9e0f9c0577883f02102f55d6d01ce5f0eddc6b00567b38999733c669c46fe0a0ef91bf9f310d15b816153aeffffffff1eac5d3625a3b1b09c6d9d435bae67b9348b3333b2b8d8a6162576ec50a1869600000000fc00473044022028b288c68e11019cea1e99c3e1c0f7f7856ae2a6263bee5cd88946114941653402200c79af14d51fb887ba63485bf111c265fc429f69c77b06790e4bedecf835b06e0147304402207a06c7f87ffd74a12845af5e8f332d3f1f45fe485f6f209531bb00afcbbacab702205b0bfd254ba88386e44d09403896767b33ec8ae4f0f7c26cabd0f422c6b16c78014c695221035c037a36e4ec9aa1aefcef02ff742bec63c098c0a7f1c9a1b822b6294afbb7102102a1ccf15bc58870240578a2922b3f0e922260f37098adbd988e15be36943816912102af3be4803e51fef309a51f0332f399026e99dae117dc2d22a71f4eacc1f3f4f153aeffffffff0376e188000000000017a914a7aedd0d1e77300fb06aa154c9a517b74c08d24587aa0a00000000000017a914a7aedd0d1e77300fb06aa154c9a517b74c08d245870000000000000000166a146f6d6e69000000000000001f0000005169f4c58000000000", "vin": [{"sequence": 4294967295, "scriptSig": {"hex": "0047304402202ccdf2d7683d90d5b7ff02022ac353961793f11808f6cb41eaef6038a8a023aa022031f9ba89ac802b6138ee4a4b539a390f9557943e3e57a13195aeda6b35d2b14a014730440220486ee5bc969b4cd35da25631667a972142f33677b2aa4f13126c3186a2bd08b602201710990a5a8cf788d7538875958af14f435475528ede142ff857e89fa39dc734014c69522103f42ab39b29074bc616e8e5cf5c9b8e75374ea3323fc00804ef51e79882fbf09821038ac2b2d996a53f4f0174fa46f53af82b52ca191b1ea0698aa9e0f9c0577883f02102f55d6d01ce5f0eddc6b00567b38999733c669c46fe0a0ef91bf9f310d15b816153ae", "asm": "0 304402202ccdf2d7683d90d5b7ff02022ac353961793f11808f6cb41eaef6038a8a023aa022031f9ba89ac802b6138ee4a4b539a390f9557943e3e57a13195aeda6b35d2b14a[ALL] 30440220486ee5bc969b4cd35da25631667a972142f33677b2aa4f13126c3186a2bd08b602201710990a5a8cf788d7538875958af14f435475528ede142ff857e89fa39dc734[ALL] 522103f42ab39b29074bc616e8e5cf5c9b8e75374ea3323fc00804ef51e79882fbf09821038ac2b2d996a53f4f0174fa46f53af82b52ca191b1ea0698aa9e0f9c0577883f02102f55d6d01ce5f0eddc6b00567b38999733c669c46fe0a0ef91bf9f310d15b816153ae"}, "vout": 2, "txid": "fc21dbf5b386ffdeabad49cc974794f3fd3609a81842beac62e03fd2d525003b"}, {"sequence": 4294967295, "scriptSig": {"hex": "00473044022028b288c68e11019cea1e99c3e1c0f7f7856ae2a6263bee5cd88946114941653402200c79af14d51fb887ba63485bf111c265fc429f69c77b06790e4bedecf835b06e0147304402207a06c7f87ffd74a12845af5e8f332d3f1f45fe485f6f209531bb00afcbbacab702205b0bfd254ba88386e44d09403896767b33ec8ae4f0f7c26cabd0f422c6b16c78014c695221035c037a36e4ec9aa1aefcef02ff742bec63c098c0a7f1c9a1b822b6294afbb7102102a1ccf15bc58870240578a2922b3f0e922260f37098adbd988e15be36943816912102af3be4803e51fef309a51f0332f399026e99dae117dc2d22a71f4eacc1f3f4f153ae", "asm": "0 3044022028b288c68e11019cea1e99c3e1c0f7f7856ae2a6263bee5cd88946114941653402200c79af14d51fb887ba63485bf111c265fc429f69c77b06790e4bedecf835b06e[ALL] 304402207a06c7f87ffd74a12845af5e8f332d3f1f45fe485f6f209531bb00afcbbacab702205b0bfd254ba88386e44d09403896767b33ec8ae4f0f7c26cabd0f422c6b16c78[ALL] 5221035c037a36e4ec9aa1aefcef02ff742bec63c098c0a7f1c9a1b822b6294afbb7102102a1ccf15bc58870240578a2922b3f0e922260f37098adbd988e15be36943816912102af3be4803e51fef309a51f0332f399026e99dae117dc2d22a71f4eacc1f3f4f153ae"}, "vout": 0, "txid": "9686a150ec762516a6d8b8b233338b34b967ae5b439d6d9cb0b1a325365dac1e"}], "txid": "2b361329e167258700fb1d8d28fa92805e87b78fb9709280370dcc0781c465c7", "blocktime": 1537872475, "version": 1, "confirmations": 11486, "time": 1537872475, "locktime": 0, "vsize": 691, "size": 691}