{"hash": "2b3de6d58db291829249478d9253b6f8d3c3d1228e07add8620f4a8fc9f3ee8a", "blockhash": "00000000000000000024a2167bbff67b0be802c0b01cdd79e6331c2be6459f87", "vout": [{"scriptPubKey": {"reqSigs": 1, "hex": "a914167c4637fe3451877e03135fbf440038b2a2cb8587", "addresses": ["33jufVZNw7Fruvjxp4PpzyQmuvLqMPVpYV"], "asm": "OP_HASH160 167c4637fe3451877e03135fbf440038b2a2cb85 OP_EQUAL", "type": "scripthash"}, "value": 0.01059279, "n": 0}, {"scriptPubKey": {"reqSigs": 1, "hex": "76a914846c1ad1d34a4116a5d9a6de7ff2b941c5cddb2888ac", "addresses": ["1D5BhaCFtYt3e9hDrbiSNzsbD26KJeEVJZ"], "asm": "OP_DUP OP_HASH160 846c1ad1d34a4116a5d9a6de7ff2b941c5cddb28 OP_EQUALVERIFY OP_CHECKSIG", "type": "pubkeyhash"}, "value": 1.23691137, "n": 1}], "hex": "01000000029f6d6460b7e4f4924b225e5871ea0c3d95550fa663e3618f2f7609b7ec450147010000008b4830450221009d1dce236919277a0214e751eb6aea54544a6e54bf382f7682eb55f2227c85bc02206b273a3612813e0e2433eca812ada5e1198dc7c355cdf35920104e11d1d2585c014104861373a0859d9de828b0837610a50a7d19b5f95cd662a5fb86ed5edf5557801c872559f44553f537711cccbaa4649ee6f3ecfd1fd0b2c7a6843be1487fabc1a6ffffffff308276e24d21684684d0140a5c8bbc8ccec1c96e06272e3c44ac96db215f9a5d000000008b483045022100a9ceb34455f7886058134f3f4be8de0cf88b8c4566df158df7d4e65bf032bc3f022001cfa1b15cfbc852b0277e0d96e37b98510b38d79afbcaf7abd46b809d8b3e8f014104861373a0859d9de828b0837610a50a7d19b5f95cd662a5fb86ed5edf5557801c872559f44553f537711cccbaa4649ee6f3ecfd1fd0b2c7a6843be1487fabc1a6ffffffff02cf2910000000000017a914167c4637fe3451877e03135fbf440038b2a2cb858781605f07000000001976a914846c1ad1d34a4116a5d9a6de7ff2b941c5cddb2888ac00000000", "vin": [{"sequence": 4294967295, "scriptSig": {"hex": "4830450221009d1dce236919277a0214e751eb6aea54544a6e54bf382f7682eb55f2227c85bc02206b273a3612813e0e2433eca812ada5e1198dc7c355cdf35920104e11d1d2585c014104861373a0859d9de828b0837610a50a7d19b5f95cd662a5fb86ed5edf5557801c872559f44553f537711cccbaa4649ee6f3ecfd1fd0b2c7a6843be1487fabc1a6", "asm": "30450221009d1dce236919277a0214e751eb6aea54544a6e54bf382f7682eb55f2227c85bc02206b273a3612813e0e2433eca812ada5e1198dc7c355cdf35920104e11d1d2585c[ALL] 04861373a0859d9de828b0837610a50a7d19b5f95cd662a5fb86ed5edf5557801c872559f44553f537711cccbaa4649ee6f3ecfd1fd0b2c7a6843be1487fabc1a6"}, "vout": 1, "txid": "470145ecb709762f8f61e363a60f55953d0cea71585e224b92f4e4b760646d9f"}, {"sequence": 4294967295, "scriptSig": {"hex": "483045022100a9ceb34455f7886058134f3f4be8de0cf88b8c4566df158df7d4e65bf032bc3f022001cfa1b15cfbc852b0277e0d96e37b98510b38d79afbcaf7abd46b809d8b3e8f014104861373a0859d9de828b0837610a50a7d19b5f95cd662a5fb86ed5edf5557801c872559f44553f537711cccbaa4649ee6f3ecfd1fd0b2c7a6843be1487fabc1a6", "asm": "3045022100a9ceb34455f7886058134f3f4be8de0cf88b8c4566df158df7d4e65bf032bc3f022001cfa1b15cfbc852b0277e0d96e37b98510b38d79afbcaf7abd46b809d8b3e8f[ALL] 04861373a0859d9de828b0837610a50a7d19b5f95cd662a5fb86ed5edf5557801c872559f44553f537711cccbaa4649ee6f3ecfd1fd0b2c7a6843be1487fabc1a6"}, "vout": 0, "txid": "5d9a5f21db96ac443c2e27066ec9c1ce8cbc8b5c0a14d0844668214de2768230"}], "txid": "2b3de6d58db291829249478d9253b6f8d3c3d1228e07add8620f4a8fc9f3ee8a", "blocktime": 1537870564, "version": 1, "confirmations": 11515, "time": 1537870564, "locktime": 0, "vsize": 436, "size": 436}