{"hash": "2b3d15324f820bd08803d34e7ac085b567e6210803714151bf873470d5e37fe7", "blockhash": "00000000000000000024a2167bbff67b0be802c0b01cdd79e6331c2be6459f87", "vout": [{"scriptPubKey": {"reqSigs": 1, "hex": "a914f8fe1fe12043a83d5f9c3e1b540525665594683087", "addresses": ["3QPZvzvcQgqC4Gi3jgtnHesBd5igAJ3ezB"], "asm": "OP_HASH160 f8fe1fe12043a83d5f9c3e1b5405256655946830 OP_EQUAL", "type": "scripthash"}, "value": 0.06241544, "n": 0}, {"scriptPubKey": {"reqSigs": 1, "hex": "76a9143c4ec3249b2c1e3985a7f5aa8790414ef6318f0988ac", "addresses": ["16Vsu1WaWCZRuKB6N1wfyJKJ4HaguxePyy"], "asm": "OP_DUP OP_HASH160 3c4ec3249b2c1e3985a7f5aa8790414ef6318f09 OP_EQUALVERIFY OP_CHECKSIG", "type": "pubkeyhash"}, "value": 0.43758004, "n": 1}], "hex": "0100000001a6330f965da70d3034f04b045f8fe5713a88dae434599c18de3eb2fac7a57313000000006a473044022005f0c4e00ed34f6b4b4f2b41b6f37c2f4f9b2ac6dadb51f5d9d020a376380efd0220370ab8aebc406278cff96903580f9156c753bf2a0ee6b7e23bd39eb77833c4640121039e4c344fb4137ca6b8fa0cd52abd1a3359d70e50b7ce08170750f997bf8364f6ffffff0002083d5f000000000017a914f8fe1fe12043a83d5f9c3e1b540525665594683087b4b19b02000000001976a9143c4ec3249b2c1e3985a7f5aa8790414ef6318f0988ac00000000", "vin": [{"sequence": 16777215, "scriptSig": {"hex": "473044022005f0c4e00ed34f6b4b4f2b41b6f37c2f4f9b2ac6dadb51f5d9d020a376380efd0220370ab8aebc406278cff96903580f9156c753bf2a0ee6b7e23bd39eb77833c4640121039e4c344fb4137ca6b8fa0cd52abd1a3359d70e50b7ce08170750f997bf8364f6", "asm": "3044022005f0c4e00ed34f6b4b4f2b41b6f37c2f4f9b2ac6dadb51f5d9d020a376380efd0220370ab8aebc406278cff96903580f9156c753bf2a0ee6b7e23bd39eb77833c464[ALL] 039e4c344fb4137ca6b8fa0cd52abd1a3359d70e50b7ce08170750f997bf8364f6"}, "vout": 0, "txid": "1373a5c7fab23ede189c5934e4da883a71e58f5f044bf034300da75d960f33a6"}], "txid": "2b3d15324f820bd08803d34e7ac085b567e6210803714151bf873470d5e37fe7", "blocktime": 1537870564, "version": 1, "confirmations": 11515, "time": 1537870564, "locktime": 0, "vsize": 223, "size": 223}