{"hash": "2b525d6ba77b24ff4257248aa57d9863b975e073ae4f67b1506076b1cacd0fd2", "blockhash": "0000000000000000000e13cef7c366c0283d82e591d1acd082e914b08063cdf1", "vout": [{"scriptPubKey": {"reqSigs": 1, "hex": "a9143096c78571f147987799dc1db0c12214a161c1b387", "addresses": ["367vz5yZbSMFMqbT5Yk4zADEW4ynXbsycG"], "asm": "OP_HASH160 3096c78571f147987799dc1db0c12214a161c1b3 OP_EQUAL", "type": "scripthash"}, "value": 0.0032, "n": 0}, {"scriptPubKey": {"reqSigs": 1, "hex": "76a9143ff41e4ae8e81a2cf4c51581f3f338613df2687888ac", "addresses": ["16qA1j1UbRneJKcN7AbDeeWDx6jEosKXwr"], "asm": "OP_DUP OP_HASH160 3ff41e4ae8e81a2cf4c51581f3f338613df26878 OP_EQUALVERIFY OP_CHECKSIG", "type": "pubkeyhash"}, "value": 0.00969781, "n": 1}], "hex": "01000000011c2d069ca366b0a53b6027466f877bc632b2c4f591e1832a6f405d5acdbac031010000006b483045022100b9fe053348d3487bf1ffb6fa7f96fedec8fbf2b271f2a3481ba7e8e221f6dd5f02206acc46538daf4dd71d73883d1345ea84978630cbe66fff4a63eaa13814a02dcd0121024d15318f6324c461a17f4cb12e5c72b3546b8dcf8629c46f718aac53a6cf1461ffffffff0200e204000000000017a9143096c78571f147987799dc1db0c12214a161c1b38735cc0e00000000001976a9143ff41e4ae8e81a2cf4c51581f3f338613df2687888ac00000000", "vin": [{"sequence": 4294967295, "scriptSig": {"hex": "483045022100b9fe053348d3487bf1ffb6fa7f96fedec8fbf2b271f2a3481ba7e8e221f6dd5f02206acc46538daf4dd71d73883d1345ea84978630cbe66fff4a63eaa13814a02dcd0121024d15318f6324c461a17f4cb12e5c72b3546b8dcf8629c46f718aac53a6cf1461", "asm": "3045022100b9fe053348d3487bf1ffb6fa7f96fedec8fbf2b271f2a3481ba7e8e221f6dd5f02206acc46538daf4dd71d73883d1345ea84978630cbe66fff4a63eaa13814a02dcd[ALL] 024d15318f6324c461a17f4cb12e5c72b3546b8dcf8629c46f718aac53a6cf1461"}, "vout": 1, "txid": "31c0bacd5a5d406f2a83e191f5c4b232c67b876f4627603ba5b066a39c062d1c"}], "txid": "2b525d6ba77b24ff4257248aa57d9863b975e073ae4f67b1506076b1cacd0fd2", "blocktime": 1537871767, "version": 1, "confirmations": 11495, "time": 1537871767, "locktime": 0, "vsize": 224, "size": 224}