{"hash": "be16ab98837156f233d17d5f283eea38ddda8ea845a6ccaaa8d8632fad35e62b", "blockhash": "000000000000000000022b45ed06c6f4ccd3cf7fb5ba4856ebd2e58215665228", "vout": [{"scriptPubKey": {"reqSigs": 1, "hex": "a9149a37f8f5984e6aaf6c1e8a8e7d03c2257dbc1b7387", "addresses": ["3FkT385qHNV8GnbbSpPZ2zY8pgFsYj2zmd"], "asm": "OP_HASH160 9a37f8f5984e6aaf6c1e8a8e7d03c2257dbc1b73 OP_EQUAL", "type": "scripthash"}, "value": 0.15999662, "n": 0}], "hex": "020000000001020de3ac2157cc42f8f5d4d7d23b1d66b738d80fa2aed358c48c597c65d38b649f0100000017160014aad908803a05f9f7ff6b7c2d36955eb0eee3a030ffffffffd68382de021a969bb2bd3dea0c20f5154ec01a8d9e0b3d5c82eea5982aa264960100000017160014aa2263fad75fd3a24fb08258ccf9e9ffc6eea482ffffffff01ae22f4000000000017a9149a37f8f5984e6aaf6c1e8a8e7d03c2257dbc1b738702483045022100f007178667737ec17fb095bf3e71d4c695b619e9988f16f7feb82d6e7847343e02204df97bfc8c99734a6fb17baaa98f384e08902fffe5bc202875215b4c01910c6401210214b180bec97d8a9a75f5be75b354aa69cc966b7ccdd108496ce40b098443956f02483045022100a41b716f8df621f7ec350edc4e4073fec13e8a7620f8b1fb66c7e23bc477c01402202f31dd4e19ce763cf3643ac3ef46e924dfd8263e58fa184cfb597acbba452fb0012103ae4d3a6193c9e52373918f1360a01e0cc04288d274091daeb9f0d17b48e05d4900000000", "vin": [{"txinwitness": ["3045022100f007178667737ec17fb095bf3e71d4c695b619e9988f16f7feb82d6e7847343e02204df97bfc8c99734a6fb17baaa98f384e08902fffe5bc202875215b4c01910c6401", "0214b180bec97d8a9a75f5be75b354aa69cc966b7ccdd108496ce40b098443956f"], "sequence": 4294967295, "scriptSig": {"hex": "160014aad908803a05f9f7ff6b7c2d36955eb0eee3a030", "asm": "0014aad908803a05f9f7ff6b7c2d36955eb0eee3a030"}, "vout": 1, "txid": "9f648bd3657c598cc458d3aea20fd838b7661d3bd2d7d4f5f842cc5721ace30d"}, {"txinwitness": ["3045022100a41b716f8df621f7ec350edc4e4073fec13e8a7620f8b1fb66c7e23bc477c01402202f31dd4e19ce763cf3643ac3ef46e924dfd8263e58fa184cfb597acbba452fb001", "03ae4d3a6193c9e52373918f1360a01e0cc04288d274091daeb9f0d17b48e05d49"], "sequence": 4294967295, "scriptSig": {"hex": "160014aa2263fad75fd3a24fb08258ccf9e9ffc6eea482", "asm": "0014aa2263fad75fd3a24fb08258ccf9e9ffc6eea482"}, "vout": 1, "txid": "9664a22a98a5ee825c3d0b9e8d1ac04e15f5200cea3dbdb29b961a02de8283d6"}], "txid": "2b52ad3b08b8f800d48b419dff2254e34c973921e38cf27f97b97b8c182ddee9", "blocktime": 1537869901, "version": 2, "confirmations": 11524, "time": 1537869901, "locktime": 0, "vsize": 225, "size": 388}