{"hash": "2b5dc4ff00645f0955867a992e85136d8414765be239902d2af8bba77758ab16", "blockhash": "00000000000000000017f5eb5941039fbcee6240d03bc1f2f8e35350df66a1d8", "vout": [{"scriptPubKey": {"reqSigs": 1, "hex": "76a914c878d9934bed9fb7fe8530a4fb7c63c08c027bef88ac", "addresses": ["1KGzvAYjnqV1hbKz897Wp2FXVQskyTMWm3"], "asm": "OP_DUP OP_HASH160 c878d9934bed9fb7fe8530a4fb7c63c08c027bef OP_EQUALVERIFY OP_CHECKSIG", "type": "pubkeyhash"}, "value": 0.13800232, "n": 0}, {"scriptPubKey": {"reqSigs": 1, "hex": "76a91439756387192c12325b3b29f074dff4feb967d14e88ac", "addresses": ["16Ep9FVELszDMdNrFwmZHRJXaVVTrgsPKX"], "asm": "OP_DUP OP_HASH160 39756387192c12325b3b29f074dff4feb967d14e OP_EQUALVERIFY OP_CHECKSIG", "type": "pubkeyhash"}, "value": 15.38454339, "n": 1}], "hex": "02000000013a706b013152e402e47c8bee14d0afebeedc0b558da1f6e7146f5c40e90e1a71010000006b483045022100e5a88b5fb261e74e41966fbfbc035487121c868f9070a654506d136b2b63a8ed0220625f49e6893be726117c5caa182d7bbeb62b6d30c8c26f9088d2de64b79399a5012103dae218395d481b578eff8b05a49e307cb5d31ac1e48af22f66a924d24337b70cffffffff022893d200000000001976a914c878d9934bed9fb7fe8530a4fb7c63c08c027bef88ac43f3b25b000000001976a91439756387192c12325b3b29f074dff4feb967d14e88ac00000000", "vin": [{"sequence": 4294967295, "scriptSig": {"hex": "483045022100e5a88b5fb261e74e41966fbfbc035487121c868f9070a654506d136b2b63a8ed0220625f49e6893be726117c5caa182d7bbeb62b6d30c8c26f9088d2de64b79399a5012103dae218395d481b578eff8b05a49e307cb5d31ac1e48af22f66a924d24337b70c", "asm": "3045022100e5a88b5fb261e74e41966fbfbc035487121c868f9070a654506d136b2b63a8ed0220625f49e6893be726117c5caa182d7bbeb62b6d30c8c26f9088d2de64b79399a5[ALL] 03dae218395d481b578eff8b05a49e307cb5d31ac1e48af22f66a924d24337b70c"}, "vout": 1, "txid": "711a0ee9405c6f14e7f6a18d550bdceeebafd014ee8b7ce402e45231016b703a"}], "txid": "2b5dc4ff00645f0955867a992e85136d8414765be239902d2af8bba77758ab16", "blocktime": 1537874412, "version": 2, "confirmations": 11467, "time": 1537874412, "locktime": 0, "vsize": 226, "size": 226}