{"hash": "6da375e6ae4a1464512d79d4ffdb5c483b2cdfc0900992ae9466c837c6ba6392", "blockhash": "00000000000000000017f5eb5941039fbcee6240d03bc1f2f8e35350df66a1d8", "vout": [{"scriptPubKey": {"reqSigs": 1, "hex": "a91490e99e8d26d05ead3c05430c292a887bbff695f587", "addresses": ["3EuF6KjJawxTiUsea3Sc8hsLUGmVEf7Xg5"], "asm": "OP_HASH160 90e99e8d26d05ead3c05430c292a887bbff695f5 OP_EQUAL", "type": "scripthash"}, "value": 0.00133721, "n": 0}, {"scriptPubKey": {"type": "nulldata", "hex": "6a146f6d6e69000000000000001f0000000005f5e100", "asm": "OP_RETURN 6f6d6e69000000000000001f0000000005f5e100"}, "value": 0.0, "n": 1}, {"scriptPubKey": {"reqSigs": 1, "hex": "a91490e99e8d26d05ead3c05430c292a887bbff695f587", "addresses": ["3EuF6KjJawxTiUsea3Sc8hsLUGmVEf7Xg5"], "asm": "OP_HASH160 90e99e8d26d05ead3c05430c292a887bbff695f5 OP_EQUAL", "type": "scripthash"}, "value": 5.4e-06, "n": 2}], "hex": "01000000000102d9ddb59a424f0a46dc9ab7daeb3d5f1319f91fefe39b7f64613b1afe0c64363d0000000017160014f6e1792e7852ebd5ae795c2a25d579acdfadec2dffffffffd9ddb59a424f0a46dc9ab7daeb3d5f1319f91fefe39b7f64613b1afe0c64363d0200000017160014f6e1792e7852ebd5ae795c2a25d579acdfadec2dffffffff03590a02000000000017a91490e99e8d26d05ead3c05430c292a887bbff695f5870000000000000000166a146f6d6e69000000000000001f0000000005f5e1001c0200000000000017a91490e99e8d26d05ead3c05430c292a887bbff695f58702483045022100d41fd2e385ecd9e5518d0a376ae4436509655a7a9a9c99202c3daa765750a61d02204ee9c2b6d4bd0280b46c4ea8f96710766403ceaf5dadcbaf9a8d3f58d654f930012103f1cf988013a33e053d1e9bd54c4798c1a6dc362a5b2798b5344049fca40e2db00247304402207f54417e0f3d52feadbdb4cc4e5e324ff88cf9cbecc4328431069ff0a0a878b202202e7e151d57e96637ec08313f433bc56dd721e2bc0f871e667a524848882cd0c1012103f1cf988013a33e053d1e9bd54c4798c1a6dc362a5b2798b5344049fca40e2db000000000", "vin": [{"txinwitness": ["3045022100d41fd2e385ecd9e5518d0a376ae4436509655a7a9a9c99202c3daa765750a61d02204ee9c2b6d4bd0280b46c4ea8f96710766403ceaf5dadcbaf9a8d3f58d654f93001", "03f1cf988013a33e053d1e9bd54c4798c1a6dc362a5b2798b5344049fca40e2db0"], "sequence": 4294967295, "scriptSig": {"hex": "160014f6e1792e7852ebd5ae795c2a25d579acdfadec2d", "asm": "0014f6e1792e7852ebd5ae795c2a25d579acdfadec2d"}, "vout": 0, "txid": "3d36640cfe1a3b61647f9be3ef1ff919135f3debdab79adc460a4f429ab5ddd9"}, {"txinwitness": ["304402207f54417e0f3d52feadbdb4cc4e5e324ff88cf9cbecc4328431069ff0a0a878b202202e7e151d57e96637ec08313f433bc56dd721e2bc0f871e667a524848882cd0c101", "03f1cf988013a33e053d1e9bd54c4798c1a6dc362a5b2798b5344049fca40e2db0"], "sequence": 4294967295, "scriptSig": {"hex": "160014f6e1792e7852ebd5ae795c2a25d579acdfadec2d", "asm": "0014f6e1792e7852ebd5ae795c2a25d579acdfadec2d"}, "vout": 2, "txid": "3d36640cfe1a3b61647f9be3ef1ff919135f3debdab79adc460a4f429ab5ddd9"}], "txid": "2b5d8f51e5760519566a7963667459535cf2886260ff8ff85232576b3bcda1d8", "blocktime": 1537874412, "version": 1, "confirmations": 11467, "time": 1537874412, "locktime": 0, "vsize": 288, "size": 450}