{"hash": "a131a7a93e890ab94f17adfdc618743aa16a7ec4639e9b0d78f90d295b31e8f8", "blockhash": "0000000000000000001cda96e906b7601b7a6fb1a3b62bca570a9e5d8f4b3de1", "vout": [{"scriptPubKey": {"reqSigs": 1, "hex": "76a914d08ed9016a40758982f0b357454f412c652a8b4588ac", "addresses": ["1L1kg8cyjfUo2QXFyzM6yaJ7fGpddTgJGT"], "asm": "OP_DUP OP_HASH160 d08ed9016a40758982f0b357454f412c652a8b45 OP_EQUALVERIFY OP_CHECKSIG", "type": "pubkeyhash"}, "value": 0.05756759, "n": 0}, {"scriptPubKey": {"reqSigs": 1, "hex": "a914a5c679defd49547b8133a1367eeadbdeaecec3da87", "addresses": ["3GoZBZ6F8g4UiCt7moPNLDX7KKwgtGgLUT"], "asm": "OP_HASH160 a5c679defd49547b8133a1367eeadbdeaecec3da OP_EQUAL", "type": "scripthash"}, "value": 0.39576359, "n": 1}], "hex": "010000000001018ba11bf8d5efa95929166542651576c4e060c3cee101ccc8f429008f19eb2f9001000000232200202d90cd274cea8141a030c0b79acc5b5c0b80b73d028692a1104913808bff6c09ffffffff0257d75700000000001976a914d08ed9016a40758982f0b357454f412c652a8b4588ac27e35b020000000017a914a5c679defd49547b8133a1367eeadbdeaecec3da870400483045022100dd7dc98b701960f7f75c464547a26f2f45d2f1b8f36459b6d223cac8d4e912790220315c2c0e9a282e2870652eb58fe1a5e5e14746d7ebd9ce946f1f4415447f42f4014730440220186b7b83768bc6fb3bc3d620251582b2ce9611a4ce89abf8262ac7236cc259e7022054288f05086debc4468e90a6f2fce2405abd1fed25a99c2e87e0b74c8b5cf59f014752210295d70c0f10033e6e119fdc61ddd495bfe23995150af6df4688db5bf235f2853b21023e4b58fb2a91970de56515d11487aabd364f0404f1099bef70493cc56002342352ae00000000", "vin": [{"txinwitness": ["", "3045022100dd7dc98b701960f7f75c464547a26f2f45d2f1b8f36459b6d223cac8d4e912790220315c2c0e9a282e2870652eb58fe1a5e5e14746d7ebd9ce946f1f4415447f42f401", "30440220186b7b83768bc6fb3bc3d620251582b2ce9611a4ce89abf8262ac7236cc259e7022054288f05086debc4468e90a6f2fce2405abd1fed25a99c2e87e0b74c8b5cf59f01", "52210295d70c0f10033e6e119fdc61ddd495bfe23995150af6df4688db5bf235f2853b21023e4b58fb2a91970de56515d11487aabd364f0404f1099bef70493cc56002342352ae"], "sequence": 4294967295, "scriptSig": {"hex": "2200202d90cd274cea8141a030c0b79acc5b5c0b80b73d028692a1104913808bff6c09", "asm": "00202d90cd274cea8141a030c0b79acc5b5c0b80b73d028692a1104913808bff6c09"}, "vout": 1, "txid": "902feb198f0029f4c8cc01e1cec360e0c47615654265162959a9efd5f81ba18b"}], "txid": "2b60abd62a5b237581066a13c88a70be9c9dd9d693217dd5fa350ab91c3bbce8", "blocktime": 1537873282, "version": 1, "confirmations": 11484, "time": 1537873282, "locktime": 0, "vsize": 208, "size": 373}