{"hash": "2b625e50422df080ba72428ea737a42ddc5d59bbb04c394c1eea6585aeaec2ae", "blockhash": "0000000000000000001f0ddff1eddb255c1121bcd4da4f1bc9a0da00cae72433", "vout": [{"scriptPubKey": {"reqSigs": 1, "hex": "a91408bd9d07d481188d4d6251496f67ceb4b596d52087", "addresses": ["32VEUeZd9YNoVPA3qQUKRhEh6eprshfe9f"], "asm": "OP_HASH160 08bd9d07d481188d4d6251496f67ceb4b596d520 OP_EQUAL", "type": "scripthash"}, "value": 0.003, "n": 0}, {"scriptPubKey": {"reqSigs": 1, "hex": "76a914db483b599eb4dbec55113fcf8b8829152d30eeba88ac", "addresses": ["1LzTWmUcUn5cmCQaxfHLRKhpRJLr9BgnY4"], "asm": "OP_DUP OP_HASH160 db483b599eb4dbec55113fcf8b8829152d30eeba OP_EQUALVERIFY OP_CHECKSIG", "type": "pubkeyhash"}, "value": 0.0283692, "n": 1}], "hex": "01000000016d98fe472e7b38d83ef463ebbf31a9e17ca8d9ede08fe2513b391e5f2451f2b0010000006b483045022100c619d86eda118a49230ddf89e3071b911be20e2b587ab2585f7e64e03a3852470220105bd628fd2304b374fb834594f599808c8e76f091b98b66e08fc11fa957e4e301210397ad1024d7fa5638ff262382dfc358feaa59d4a3669a4bf3b6f36f4c30152e94ffffffff02e09304000000000017a91408bd9d07d481188d4d6251496f67ceb4b596d52087b8492b00000000001976a914db483b599eb4dbec55113fcf8b8829152d30eeba88ac00000000", "vin": [{"sequence": 4294967295, "scriptSig": {"hex": "483045022100c619d86eda118a49230ddf89e3071b911be20e2b587ab2585f7e64e03a3852470220105bd628fd2304b374fb834594f599808c8e76f091b98b66e08fc11fa957e4e301210397ad1024d7fa5638ff262382dfc358feaa59d4a3669a4bf3b6f36f4c30152e94", "asm": "3045022100c619d86eda118a49230ddf89e3071b911be20e2b587ab2585f7e64e03a3852470220105bd628fd2304b374fb834594f599808c8e76f091b98b66e08fc11fa957e4e3[ALL] 0397ad1024d7fa5638ff262382dfc358feaa59d4a3669a4bf3b6f36f4c30152e94"}, "vout": 1, "txid": "b0f251245f1e393b51e28fe0edd9a87ce1a931bfeb63f43ed8387b2e47fe986d"}], "txid": "2b625e50422df080ba72428ea737a42ddc5d59bbb04c394c1eea6585aeaec2ae", "blocktime": 1537872018, "version": 1, "confirmations": 11489, "time": 1537872018, "locktime": 0, "vsize": 224, "size": 224}