{"hash": "2b63194765c41ec684bb1a5e13953a10bc48fa8f3dd419bc7fa47c328c189f73", "blockhash": "0000000000000000001e0dab787dd257d1dbfcb92a98c2207d5e1078be1f4165", "vout": [{"scriptPubKey": {"type": "nulldata", "hex": "6a4c50000077ae0001adaf350a813e09068a8e8f00af6c953dd567cf27e7e3ef3236678a6250975d38637e5e7ea8a59895ad68641c2c5b5baa10f20611f279415e8296bc9a9526289ac0f6612cd74e33776ee4", "asm": "OP_RETURN 000077ae0001adaf350a813e09068a8e8f00af6c953dd567cf27e7e3ef3236678a6250975d38637e5e7ea8a59895ad68641c2c5b5baa10f20611f279415e8296bc9a9526289ac0f6612cd74e33776ee4"}, "value": 0.0, "n": 0}, {"scriptPubKey": {"reqSigs": 1, "hex": "76a9146647cf98d4ce6f4f20b5214efc6d93acc957f4c488ac", "addresses": ["1AKox5V2dirM4hSpLytPdJgTB5skihY7id"], "asm": "OP_DUP OP_HASH160 6647cf98d4ce6f4f20b5214efc6d93acc957f4c4 OP_EQUALVERIFY OP_CHECKSIG", "type": "pubkeyhash"}, "value": 0.0007102, "n": 1}], "hex": "0100000001c717509b67f858a9085e4488fc19c6b60c335a8f0fac191f4568c777b462d7f1010000006b483045022100efdd06ad9318815cb1ed405d3044d96e74c05f335c7e45c1c5c81a8b85ed18f50220198a4c906ba66f29476c0ad723cd99eb007ae0fd54012aed016460a2cdfdd176012102e80265f6d57213d1af40b57b1ed0576f8546490c9e504cb6d5f1a9a2ca5bcd03ffffffff020000000000000000536a4c50000077ae0001adaf350a813e09068a8e8f00af6c953dd567cf27e7e3ef3236678a6250975d38637e5e7ea8a59895ad68641c2c5b5baa10f20611f279415e8296bc9a9526289ac0f6612cd74e33776ee46c150100000000001976a9146647cf98d4ce6f4f20b5214efc6d93acc957f4c488ac00000000", "vin": [{"sequence": 4294967295, "scriptSig": {"hex": "483045022100efdd06ad9318815cb1ed405d3044d96e74c05f335c7e45c1c5c81a8b85ed18f50220198a4c906ba66f29476c0ad723cd99eb007ae0fd54012aed016460a2cdfdd176012102e80265f6d57213d1af40b57b1ed0576f8546490c9e504cb6d5f1a9a2ca5bcd03", "asm": "3045022100efdd06ad9318815cb1ed405d3044d96e74c05f335c7e45c1c5c81a8b85ed18f50220198a4c906ba66f29476c0ad723cd99eb007ae0fd54012aed016460a2cdfdd176[ALL] 02e80265f6d57213d1af40b57b1ed0576f8546490c9e504cb6d5f1a9a2ca5bcd03"}, "vout": 1, "txid": "f1d762b477c768451f19ac0f8f5a330cb6c619fc88445e08a958f8679b5017c7"}], "txid": "2b63194765c41ec684bb1a5e13953a10bc48fa8f3dd419bc7fa47c328c189f73", "blocktime": 1537872475, "version": 1, "confirmations": 11486, "time": 1537872475, "locktime": 0, "vsize": 284, "size": 284}