{"hash": "2b6dc9631d7d4980afeed78b9cc44a31ba9b0bd9755c5cb8d9916e9ea75dce83", "blockhash": "0000000000000000001e0dab787dd257d1dbfcb92a98c2207d5e1078be1f4165", "vout": [{"scriptPubKey": {"reqSigs": 1, "hex": "76a914bb576aca89801b006d173ad0ba261f4a02d8749688ac", "addresses": ["1J5a5iugs4NKv7egy1FaQVUJSqamtGszEN"], "asm": "OP_DUP OP_HASH160 bb576aca89801b006d173ad0ba261f4a02d87496 OP_EQUALVERIFY OP_CHECKSIG", "type": "pubkeyhash"}, "value": 0.0154668, "n": 0}, {"scriptPubKey": {"reqSigs": 1, "hex": "76a914ef140dc0c0c847af41e72be6a345c30f7912e69488ac", "addresses": ["1No8XCs3cFbmkyMYrLVpzEDBYRM45BMeSE"], "asm": "OP_DUP OP_HASH160 ef140dc0c0c847af41e72be6a345c30f7912e694 OP_EQUALVERIFY OP_CHECKSIG", "type": "pubkeyhash"}, "value": 0.58397316, "n": 1}], "hex": "01000000013ea857484cf18cdbe19dabdbb8e3feb3daf2613011fa6991241814a076f91ef5010000006b483045022100f9a6f0f48d555809dfed86e45eaeb5d65753077f425da7c2db8ef6a41021ceb302206df308e4eb1532fc84890fb40c3b68f73fe8f8e7c031e6417a78cbc5d55ea8fa0121020c6d31610171ae0a8a188fb8f3be8b6b21fa70efa51a63ef2f8fc6ee093e4a12ffffffff02b8991700000000001976a914bb576aca89801b006d173ad0ba261f4a02d8749688ac84127b03000000001976a914ef140dc0c0c847af41e72be6a345c30f7912e69488ac00000000", "vin": [{"sequence": 4294967295, "scriptSig": {"hex": "483045022100f9a6f0f48d555809dfed86e45eaeb5d65753077f425da7c2db8ef6a41021ceb302206df308e4eb1532fc84890fb40c3b68f73fe8f8e7c031e6417a78cbc5d55ea8fa0121020c6d31610171ae0a8a188fb8f3be8b6b21fa70efa51a63ef2f8fc6ee093e4a12", "asm": "3045022100f9a6f0f48d555809dfed86e45eaeb5d65753077f425da7c2db8ef6a41021ceb302206df308e4eb1532fc84890fb40c3b68f73fe8f8e7c031e6417a78cbc5d55ea8fa[ALL] 020c6d31610171ae0a8a188fb8f3be8b6b21fa70efa51a63ef2f8fc6ee093e4a12"}, "vout": 1, "txid": "f51ef976a01418249169fa113061f2dab3fee3b8dbab9de1db8cf14c4857a83e"}], "txid": "2b6dc9631d7d4980afeed78b9cc44a31ba9b0bd9755c5cb8d9916e9ea75dce83", "blocktime": 1537872475, "version": 1, "confirmations": 11487, "time": 1537872475, "locktime": 0, "vsize": 226, "size": 226}