{"hash": "617f09480c0807e62d89721377ebff60a5a668eac8ad8cb258667a13ef08de44", "blockhash": "00000000000000000004ffacab907a6b429b9a5745fa0b75af4234bf69dd7176", "vout": [{"scriptPubKey": {"reqSigs": 1, "hex": "a9141988a27e3c2df4ddee7fad5a2303d086179b2a3087", "addresses": ["3422VtS7UtCvXYxoXMVp6eZupR252z85oC"], "asm": "OP_HASH160 1988a27e3c2df4ddee7fad5a2303d086179b2a30 OP_EQUAL", "type": "scripthash"}, "value": 1.57116426, "n": 0}, {"scriptPubKey": {"reqSigs": 1, "hex": "76a9144b4cd0c5dd9476ac9e5927e4780a83c59c6b8df588ac", "addresses": ["17s9hd9BisRH4EnBY7PPh2EufDBrQDeEyT"], "asm": "OP_DUP OP_HASH160 4b4cd0c5dd9476ac9e5927e4780a83c59c6b8df5 OP_EQUALVERIFY OP_CHECKSIG", "type": "pubkeyhash"}, "value": 0.01882, "n": 1}], "hex": "0100000000010187c59fc7a993b2c6a4c40cb89880e0dbb66b2c9ba465bbddac5988ac875dd081030000002322002065d416c48a8072e0ac51c2d111eb194f009caef0332446c1bf2097316cf07fa9ffffffff020a685d090000000017a9141988a27e3c2df4ddee7fad5a2303d086179b2a308790b71c00000000001976a9144b4cd0c5dd9476ac9e5927e4780a83c59c6b8df588ac0400483045022100b5f2fba828fb3c3cf74d6ef673518bdc758117f6545db52610cef7176a7dab68022005bd33b46521047d6a1d2038855e116680515949df296a0d61a9a4908df20849014830450221008ed778774beb99d840a497e2cc21852d437e672e1eda81f62cb965223034704c0220258b5d7d8d4bc2bb8daf6cd55734fe2ab187c08774ab9c8050e1f96767997fba0169522102f44abcf9e23c9a460da309ccca56c619c04eed3bde2c2cff5e7d78fbcd980b9c2103c9443cf3047bb6c2c82f1b0c44c36109cdc3d0d601d16d1189a1602bf8d1a0a02103bfe867059274412412e088af5572b92168c2ef495cfe6c9b7a753a009eb37c4853ae00000000", "vin": [{"txinwitness": ["", "3045022100b5f2fba828fb3c3cf74d6ef673518bdc758117f6545db52610cef7176a7dab68022005bd33b46521047d6a1d2038855e116680515949df296a0d61a9a4908df2084901", "30450221008ed778774beb99d840a497e2cc21852d437e672e1eda81f62cb965223034704c0220258b5d7d8d4bc2bb8daf6cd55734fe2ab187c08774ab9c8050e1f96767997fba01", "522102f44abcf9e23c9a460da309ccca56c619c04eed3bde2c2cff5e7d78fbcd980b9c2103c9443cf3047bb6c2c82f1b0c44c36109cdc3d0d601d16d1189a1602bf8d1a0a02103bfe867059274412412e088af5572b92168c2ef495cfe6c9b7a753a009eb37c4853ae"], "sequence": 4294967295, "scriptSig": {"hex": "22002065d416c48a8072e0ac51c2d111eb194f009caef0332446c1bf2097316cf07fa9", "asm": "002065d416c48a8072e0ac51c2d111eb194f009caef0332446c1bf2097316cf07fa9"}, "vout": 3, "txid": "81d05d87ac8859acddbb65a49b2c6bb6dbe08098b80cc4a4c6b293a9c79fc587"}], "txid": "2b6ed17e12b026150489972cb897e8318c5c9b74faa4392eacd7c4918376f83c", "blocktime": 1537875543, "version": 1, "confirmations": 11464, "time": 1537875543, "locktime": 0, "vsize": 216, "size": 408}