{"hash": "2b6f840979d74bf690f1248926d9f4cc54840a04ea675a828d7719f028d3be9a", "blockhash": "0000000000000000000e13cef7c366c0283d82e591d1acd082e914b08063cdf1", "vout": [{"scriptPubKey": {"reqSigs": 1, "hex": "a9142211efa375b2c3551fd48de823baa17676d4e66f87", "addresses": ["34oAPHcUypq44CqS5MZePG4Vdbvwcpd9ng"], "asm": "OP_HASH160 2211efa375b2c3551fd48de823baa17676d4e66f OP_EQUAL", "type": "scripthash"}, "value": 0.00034955, "n": 0}, {"scriptPubKey": {"reqSigs": 1, "hex": "76a91474a3ddd46867654eab516a7b594f24208d7cce6788ac", "addresses": ["1Bdjgu5YvGKeySGUtXa7UX2yUXTgddJSfA"], "asm": "OP_DUP OP_HASH160 74a3ddd46867654eab516a7b594f24208d7cce67 OP_EQUALVERIFY OP_CHECKSIG", "type": "pubkeyhash"}, "value": 0.02055089, "n": 1}], "hex": "01000000013c32879e81fabb022cf1c683597e97cbafe850b08b9c8b57f23dd3e586bb7657010000006b4830450221008781faaaf57e673d8cc341beb160921119461091c51938445c8019f39fa1048102203521bb7d65df552e10525419b910a10926b49560ed361e859693a280455b4a2a0121024a8cd3d3254d71dba1597b1c989c157a12b28d94a39566744e87d809f5724faeffffffff028b8800000000000017a9142211efa375b2c3551fd48de823baa17676d4e66f87b15b1f00000000001976a91474a3ddd46867654eab516a7b594f24208d7cce6788ac00000000", "vin": [{"sequence": 4294967295, "scriptSig": {"hex": "4830450221008781faaaf57e673d8cc341beb160921119461091c51938445c8019f39fa1048102203521bb7d65df552e10525419b910a10926b49560ed361e859693a280455b4a2a0121024a8cd3d3254d71dba1597b1c989c157a12b28d94a39566744e87d809f5724fae", "asm": "30450221008781faaaf57e673d8cc341beb160921119461091c51938445c8019f39fa1048102203521bb7d65df552e10525419b910a10926b49560ed361e859693a280455b4a2a[ALL] 024a8cd3d3254d71dba1597b1c989c157a12b28d94a39566744e87d809f5724fae"}, "vout": 1, "txid": "5776bb86e5d33df2578b9c8bb050e8afcb977e5983c6f12c02bbfa819e87323c"}], "txid": "2b6f840979d74bf690f1248926d9f4cc54840a04ea675a828d7719f028d3be9a", "blocktime": 1537871767, "version": 1, "confirmations": 11495, "time": 1537871767, "locktime": 0, "vsize": 224, "size": 224}