{"hash": "2b74be70d1f85a68df7d7a972d41cc2ff44fa1f5fdd1ec635609d078fc48d210", "blockhash": "0000000000000000000baef3f32e3676a92c3b2e5da21b426e4f302fc371ce76", "vout": [{"scriptPubKey": {"reqSigs": 1, "hex": "76a914182f6bd1546ebe6eddef87f13210ea2d1fd098a988ac", "addresses": ["13Ct2V5UeT6EfKigAVqanPHCVFKep2syyr"], "asm": "OP_DUP OP_HASH160 182f6bd1546ebe6eddef87f13210ea2d1fd098a9 OP_EQUALVERIFY OP_CHECKSIG", "type": "pubkeyhash"}, "value": 0.00094224, "n": 0}, {"scriptPubKey": {"type": "nulldata", "hex": "6a4c5000007819000197fd862dc4bf3f27685f40b7019d6ddc0f1b8ff117702940d64fa54d8eb25f00d07763ba5ec78371f0f691f762325baa1c94061498864af1cf56bc9a9526289ac0f6612cd74e33776ee4", "asm": "OP_RETURN 00007819000197fd862dc4bf3f27685f40b7019d6ddc0f1b8ff117702940d64fa54d8eb25f00d07763ba5ec78371f0f691f762325baa1c94061498864af1cf56bc9a9526289ac0f6612cd74e33776ee4"}, "value": 0.0, "n": 1}], "hex": "01000000018cc4e843cae1a57905b8a84db40de704abaa1557b0a2795eeede059dbda0d34b010000006a473044022026b675774410eca2ea361ef26d7ff6d337dd621be8faf29151c25a4ea17f08090220089c0186957b731f3d501257514deb0dd4037567121e9ed4834affac48af21f6012103f94ffe28bf3aac56ff1f0ea5745a7c8c0f23ec8f661a2d87ae7a0d9f52df4f5fffffffff0210700100000000001976a914182f6bd1546ebe6eddef87f13210ea2d1fd098a988ac0000000000000000536a4c5000007819000197fd862dc4bf3f27685f40b7019d6ddc0f1b8ff117702940d64fa54d8eb25f00d07763ba5ec78371f0f691f762325baa1c94061498864af1cf56bc9a9526289ac0f6612cd74e33776ee400000000", "vin": [{"sequence": 4294967295, "scriptSig": {"hex": "473044022026b675774410eca2ea361ef26d7ff6d337dd621be8faf29151c25a4ea17f08090220089c0186957b731f3d501257514deb0dd4037567121e9ed4834affac48af21f6012103f94ffe28bf3aac56ff1f0ea5745a7c8c0f23ec8f661a2d87ae7a0d9f52df4f5f", "asm": "3044022026b675774410eca2ea361ef26d7ff6d337dd621be8faf29151c25a4ea17f08090220089c0186957b731f3d501257514deb0dd4037567121e9ed4834affac48af21f6[ALL] 03f94ffe28bf3aac56ff1f0ea5745a7c8c0f23ec8f661a2d87ae7a0d9f52df4f5f"}, "vout": 1, "txid": "4bd3a0bd9d05deee5e79a2b05715aaab04e70db44da8b80579a5e1ca43e8c48c"}], "txid": "2b74be70d1f85a68df7d7a972d41cc2ff44fa1f5fdd1ec635609d078fc48d210", "blocktime": 1537876114, "version": 1, "confirmations": 11460, "time": 1537876114, "locktime": 0, "vsize": 283, "size": 283}