{"hash": "67e3e58cf0adb4c9dbf32a66039a1517996b4243cb9b01bca301625a686fe4d6", "blockhash": "0000000000000000000baef3f32e3676a92c3b2e5da21b426e4f302fc371ce76", "vout": [{"scriptPubKey": {"reqSigs": 1, "hex": "0020555abd884b4ef38ca83f721ab67594b420c4dd14a9df85ad03e8f0bac8cadd20", "addresses": ["bc1q24dtmzztfmece2plwgdtvav5kssvfhg5480cttgrarct4jx2m5sqdgudex"], "asm": "0 555abd884b4ef38ca83f721ab67594b420c4dd14a9df85ad03e8f0bac8cadd20", "type": "witness_v0_scripthash"}, "value": 0.00996364, "n": 0}], "hex": "020000000001016cf405635b41f718a7e4bc4282d5ce320dfdb340fd93891bb4cb6f4c2b9b7b29000000000034ee4b80010c340f0000000000220020555abd884b4ef38ca83f721ab67594b420c4dd14a9df85ad03e8f0bac8cadd20040047304402202c38f377fedfe7fc22a18cddcbe39514d47721b21baaff29e914c3a120afaecc0220775ea58b9119c2ef1cf61454f1cb26e635ce8bfd0a3c9d1ff806eae23acfac80014730440220133331d983420291fa5cedab18818481d417431aa05cc727a7e477e08045db8d02207f6f1ddd5e5a35801d205839a6f1da3eb729cd7326e3cdfac890263e91a283bd0147522103e015f64e09a12b1fc77228182e95873d27c422cf64614d549eff809015aad2822103e29f1ec7d4a22e77f1341ac93075bed9f87eb830a517cb866a2e503b0844eb2d52ae25d0a320", "vin": [{"txinwitness": ["", "304402202c38f377fedfe7fc22a18cddcbe39514d47721b21baaff29e914c3a120afaecc0220775ea58b9119c2ef1cf61454f1cb26e635ce8bfd0a3c9d1ff806eae23acfac8001", "30440220133331d983420291fa5cedab18818481d417431aa05cc727a7e477e08045db8d02207f6f1ddd5e5a35801d205839a6f1da3eb729cd7326e3cdfac890263e91a283bd01", "522103e015f64e09a12b1fc77228182e95873d27c422cf64614d549eff809015aad2822103e29f1ec7d4a22e77f1341ac93075bed9f87eb830a517cb866a2e503b0844eb2d52ae"], "sequence": 2152459828, "scriptSig": {"hex": "", "asm": ""}, "vout": 0, "txid": "297b9b2b4c6fcbb41b8993fd40b3fd0d32ced58242bce4a718f7415b6305f46c"}], "txid": "2b76dd117be268e8c72b1f2df67e170de0b2c0874dc7e1fcdeaaa519ca912efa", "blocktime": 1537876114, "version": 2, "confirmations": 11459, "time": 1537876114, "locktime": 547606565, "vsize": 149, "size": 314}