{"hash": "2b78545c17351e30a701f02aa3785186c0db021004db7010f89b047aea33e22d", "blockhash": "0000000000000000000e13cef7c366c0283d82e591d1acd082e914b08063cdf1", "vout": [{"scriptPubKey": {"reqSigs": 1, "hex": "76a91436a6d063a9913f39dc607fdc2e0f469c5919581288ac", "addresses": ["15yyKoQs1eKj4jwcgsGB5adzzX9uvBnVss"], "asm": "OP_DUP OP_HASH160 36a6d063a9913f39dc607fdc2e0f469c59195812 OP_EQUALVERIFY OP_CHECKSIG", "type": "pubkeyhash"}, "value": 0.01454113, "n": 0}, {"scriptPubKey": {"reqSigs": 1, "hex": "76a9141631e162e31e4e79cc557f1dca3c909d8a2eb13288ac", "addresses": ["132McyPj2ZGgiPViWXLD75fmctuvch6vDn"], "asm": "OP_DUP OP_HASH160 1631e162e31e4e79cc557f1dca3c909d8a2eb132 OP_EQUALVERIFY OP_CHECKSIG", "type": "pubkeyhash"}, "value": 0.0015879, "n": 1}], "hex": "010000000120a8729fed95dffc025ab2faa7c76ccecf1c23eca800ba1ee69dd68ed677da1e040000006a47304402203e041acf58e7616419f936d751fec22c48be7bc16151e231dbf4cc2688b63e30022062e22586998bffdbec3b5684f9f48ba62c3d5213757cd3ce4e617a01c8d837be0121027223a07225bb8a79b8e0fec20b75ec5038c862d4face1da920a39f2589aee820ffffffff0221301600000000001976a91436a6d063a9913f39dc607fdc2e0f469c5919581288ac466c0200000000001976a9141631e162e31e4e79cc557f1dca3c909d8a2eb13288ac00000000", "vin": [{"sequence": 4294967295, "scriptSig": {"hex": "47304402203e041acf58e7616419f936d751fec22c48be7bc16151e231dbf4cc2688b63e30022062e22586998bffdbec3b5684f9f48ba62c3d5213757cd3ce4e617a01c8d837be0121027223a07225bb8a79b8e0fec20b75ec5038c862d4face1da920a39f2589aee820", "asm": "304402203e041acf58e7616419f936d751fec22c48be7bc16151e231dbf4cc2688b63e30022062e22586998bffdbec3b5684f9f48ba62c3d5213757cd3ce4e617a01c8d837be[ALL] 027223a07225bb8a79b8e0fec20b75ec5038c862d4face1da920a39f2589aee820"}, "vout": 4, "txid": "1eda77d68ed69de61eba00a8ec231ccfce6cc7a7fab25a02fcdf95ed9f72a820"}], "txid": "2b78545c17351e30a701f02aa3785186c0db021004db7010f89b047aea33e22d", "blocktime": 1537871767, "version": 1, "confirmations": 11491, "time": 1537871767, "locktime": 0, "vsize": 225, "size": 225}