{"hash": "2b79349d1dba509aa2bc5916ab13be307a4ffbea382a6af638f190f8ba0b4515", "blockhash": "0000000000000000000baef3f32e3676a92c3b2e5da21b426e4f302fc371ce76", "vout": [{"scriptPubKey": {"reqSigs": 1, "hex": "76a914c6d7baef7a14a6156f1fab7f16986668ead35df988ac", "addresses": ["1K8PEBUiVsmJvtfDkBY1z4ToUrWSrMbuvN"], "asm": "OP_DUP OP_HASH160 c6d7baef7a14a6156f1fab7f16986668ead35df9 OP_EQUALVERIFY OP_CHECKSIG", "type": "pubkeyhash"}, "value": 0.00082, "n": 0}, {"scriptPubKey": {"reqSigs": 1, "hex": "76a91430e043bf12b12ee9322c9cc7ece072511774e77d88ac", "addresses": ["15TS6PVeGWZjr9P25Sy8ccMWCsyKgtkZFk"], "asm": "OP_DUP OP_HASH160 30e043bf12b12ee9322c9cc7ece072511774e77d OP_EQUALVERIFY OP_CHECKSIG", "type": "pubkeyhash"}, "value": 0.00369975, "n": 1}], "hex": "01000000010befd16c5ff87b2b4518c46b2a7331992240ee7795b8dec8c87b3af34edce858000000006b483045022100f407c8f71bffd5f30bc1037a569725cf2b59172d5588aff69998d54c472a8ba602200a91ffcdfa356ca1d6a63917495d4c4c6836f0395c31ab64eb49cbb247da9681012103712f264417d9b774b3f0374d677d69732b35e859fb0cadc18338cd82b9de67edfdffffff0250400100000000001976a914c6d7baef7a14a6156f1fab7f16986668ead35df988ac37a50500000000001976a91430e043bf12b12ee9322c9cc7ece072511774e77d88ac17490800", "vin": [{"sequence": 4294967293, "scriptSig": {"hex": "483045022100f407c8f71bffd5f30bc1037a569725cf2b59172d5588aff69998d54c472a8ba602200a91ffcdfa356ca1d6a63917495d4c4c6836f0395c31ab64eb49cbb247da9681012103712f264417d9b774b3f0374d677d69732b35e859fb0cadc18338cd82b9de67ed", "asm": "3045022100f407c8f71bffd5f30bc1037a569725cf2b59172d5588aff69998d54c472a8ba602200a91ffcdfa356ca1d6a63917495d4c4c6836f0395c31ab64eb49cbb247da9681[ALL] 03712f264417d9b774b3f0374d677d69732b35e859fb0cadc18338cd82b9de67ed"}, "vout": 0, "txid": "58e8dc4ef33a7bc8c8deb89577ee40229931732a6bc418452b7bf85f6cd1ef0b"}], "txid": "2b79349d1dba509aa2bc5916ab13be307a4ffbea382a6af638f190f8ba0b4515", "blocktime": 1537876114, "version": 1, "confirmations": 11459, "time": 1537876114, "locktime": 542999, "vsize": 226, "size": 226}