{"hash": "2b7ff2629426c479210d9b124f1984d5e9cdbdb6ad144ac2be3c3237f5889803", "blockhash": "00000000000000000017f5eb5941039fbcee6240d03bc1f2f8e35350df66a1d8", "vout": [{"scriptPubKey": {"reqSigs": 1, "hex": "a9142f7d032d976f847b4d21231110432de29f52771f87", "addresses": ["3627SaHFftr56ixpPM2ZsPuTG9EkHkqC1r"], "asm": "OP_HASH160 2f7d032d976f847b4d21231110432de29f52771f OP_EQUAL", "type": "scripthash"}, "value": 0.039898, "n": 0}, {"scriptPubKey": {"reqSigs": 1, "hex": "76a914d7944dfc233476f9383fbf4b9ea9a2e8a58f187588ac", "addresses": ["1LeswdXao8XbS8YgU66Y1Aps8t6ZSqzcgX"], "asm": "OP_DUP OP_HASH160 d7944dfc233476f9383fbf4b9ea9a2e8a58f1875 OP_EQUALVERIFY OP_CHECKSIG", "type": "pubkeyhash"}, "value": 0.000131, "n": 1}], "hex": "0100000002446301a7387cdec74316997f5b8a8cba29d4ad83f549b40b26e37b8354c9fc37010000006b483045022100cbb08266d7b49cd5555441458e4f3e60a7872c5e1ba1640fb3a3539adc6e9ba30220082f42fd2588aa2958f8f4d06110c634527e71711cbc019b6b1a2046e43fd2370121026fd1591c9f25f25beca9bfdc86e05c835866505376367758a1a813bb05edd6c3ffffffffead7dcdffacfa07a21e37e60b4fd1bc5465df4a8e917a678ce191aabb456aa5f000000006b483045022100a25c886983d735d6475901da83596552af8c933b1db8679d55b48d900ad2a64102203f2ee5ed57e4876d2db673de8d7485b8549a8eb4e1ce02c420d1c3d14abec73b0121026fd1591c9f25f25beca9bfdc86e05c835866505376367758a1a813bb05edd6c3ffffffff0228e13c000000000017a9142f7d032d976f847b4d21231110432de29f52771f872c330000000000001976a914d7944dfc233476f9383fbf4b9ea9a2e8a58f187588ac00000000", "vin": [{"sequence": 4294967295, "scriptSig": {"hex": "483045022100cbb08266d7b49cd5555441458e4f3e60a7872c5e1ba1640fb3a3539adc6e9ba30220082f42fd2588aa2958f8f4d06110c634527e71711cbc019b6b1a2046e43fd2370121026fd1591c9f25f25beca9bfdc86e05c835866505376367758a1a813bb05edd6c3", "asm": "3045022100cbb08266d7b49cd5555441458e4f3e60a7872c5e1ba1640fb3a3539adc6e9ba30220082f42fd2588aa2958f8f4d06110c634527e71711cbc019b6b1a2046e43fd237[ALL] 026fd1591c9f25f25beca9bfdc86e05c835866505376367758a1a813bb05edd6c3"}, "vout": 1, "txid": "37fcc954837be3260bb449f583add429ba8c8a5b7f991643c7de7c38a7016344"}, {"sequence": 4294967295, "scriptSig": {"hex": "483045022100a25c886983d735d6475901da83596552af8c933b1db8679d55b48d900ad2a64102203f2ee5ed57e4876d2db673de8d7485b8549a8eb4e1ce02c420d1c3d14abec73b0121026fd1591c9f25f25beca9bfdc86e05c835866505376367758a1a813bb05edd6c3", "asm": "3045022100a25c886983d735d6475901da83596552af8c933b1db8679d55b48d900ad2a64102203f2ee5ed57e4876d2db673de8d7485b8549a8eb4e1ce02c420d1c3d14abec73b[ALL] 026fd1591c9f25f25beca9bfdc86e05c835866505376367758a1a813bb05edd6c3"}, "vout": 0, "txid": "5faa56b4ab1a19ce78a617e9a8f45d46c51bfdb4607ee3217aa0cffadfdcd7ea"}], "txid": "2b7ff2629426c479210d9b124f1984d5e9cdbdb6ad144ac2be3c3237f5889803", "blocktime": 1537874412, "version": 1, "confirmations": 11466, "time": 1537874412, "locktime": 0, "vsize": 372, "size": 372}