{"hash": "05149468e9feaede51312ed3d8bcb306e5d664933bee5b886742adbaae1b57ee", "blockhash": "0000000000000000001e0dab787dd257d1dbfcb92a98c2207d5e1078be1f4165", "vout": [{"scriptPubKey": {"reqSigs": 1, "hex": "0014501ab64e9f4d022c70ab678767d3fdb0d40eb463", "addresses": ["bc1q2qdtvn5lf5pzcu9tv7rk05lakr2qadrrye3cla"], "asm": "0 501ab64e9f4d022c70ab678767d3fdb0d40eb463", "type": "witness_v0_keyhash"}, "value": 3.151e-05, "n": 0}, {"scriptPubKey": {"reqSigs": 1, "hex": "76a914af54228dd805d444928093ad44504714606adf0988ac", "addresses": ["1Gz43NX3Wmmwm6QPbWh5fwU19F5hekmm1a"], "asm": "OP_DUP OP_HASH160 af54228dd805d444928093ad44504714606adf09 OP_EQUALVERIFY OP_CHECKSIG", "type": "pubkeyhash"}, "value": 0.00206261, "n": 1}], "hex": "01000000000101c105ad8d58a2acda107b3b7437522d473b9e0b03131b7803546edb13b20316d300000000171600147f68a740c5337cc7c132cfa9446a0804f902e024ffffffff024f0c000000000000160014501ab64e9f4d022c70ab678767d3fdb0d40eb463b5250300000000001976a914af54228dd805d444928093ad44504714606adf0988ac02473044022055557a490f253dda994793e4e4eec18bb9662ec4ec1b47340abc8a22bf0e9f4e022010c67a670e22cea5623f60ae6f22f11a847106178f6c2d997603d4e91ac6eaaa0121029ad8c441e012a45abba066b654abb5971d2703b7040755ac0f4368730b20b44b00000000", "vin": [{"txinwitness": ["3044022055557a490f253dda994793e4e4eec18bb9662ec4ec1b47340abc8a22bf0e9f4e022010c67a670e22cea5623f60ae6f22f11a847106178f6c2d997603d4e91ac6eaaa01", "029ad8c441e012a45abba066b654abb5971d2703b7040755ac0f4368730b20b44b"], "sequence": 4294967295, "scriptSig": {"hex": "1600147f68a740c5337cc7c132cfa9446a0804f902e024", "asm": "00147f68a740c5337cc7c132cfa9446a0804f902e024"}, "vout": 0, "txid": "d31603b213db6e5403781b13030b9e3b472d5237743b7b10daaca2588dad05c1"}], "txid": "2b8194249d06be2d5ee4f80fab3c1d580825abd3b7976e05e4e881b3dce1ae88", "blocktime": 1537872475, "version": 1, "confirmations": 11487, "time": 1537872475, "locktime": 0, "vsize": 167, "size": 248}