{"hash": "2b8d182bfe070389dc9af4d3ae3bd2f71e37991f19e79df4546882e76173d219", "blockhash": "0000000000000000001f0ddff1eddb255c1121bcd4da4f1bc9a0da00cae72433", "vout": [{"scriptPubKey": {"reqSigs": 1, "hex": "76a914dbd8e0eb810c69ab2d445c1986a800e8220849fe88ac", "addresses": ["1M3Snzz3a63duNzJAByuhBEk7QDdD5K7rQ"], "asm": "OP_DUP OP_HASH160 dbd8e0eb810c69ab2d445c1986a800e8220849fe OP_EQUALVERIFY OP_CHECKSIG", "type": "pubkeyhash"}, "value": 0.00418504, "n": 0}, {"scriptPubKey": {"reqSigs": 1, "hex": "76a914948d59b6bd24a8a5c791960ef98695c6865d903088ac", "addresses": ["1EYULbLPo5Urmm6GkuRUzGvmC3LcgjGPfi"], "asm": "OP_DUP OP_HASH160 948d59b6bd24a8a5c791960ef98695c6865d9030 OP_EQUALVERIFY OP_CHECKSIG", "type": "pubkeyhash"}, "value": 0.0219, "n": 1}], "hex": "01000000011fd942570cdc206e8df5e92a6c28d3a172b5eac11f567ab5697be3bf781d37da010000006b48304502210086431f1e2ef001407f1e384db041a0555ba8ba60aaa70223ed5cdf484abf6fd1022062b514d4fde58d166cc9d9f92d937490b733c4d36cde27b1f7b3e53bcd61209d01210342519c7020f65078f803fab1c34deb77526e790e328803f692e1457ed74bf2e6ffffffff02c8620600000000001976a914dbd8e0eb810c69ab2d445c1986a800e8220849fe88acb06a2100000000001976a914948d59b6bd24a8a5c791960ef98695c6865d903088ac00000000", "vin": [{"sequence": 4294967295, "scriptSig": {"hex": "48304502210086431f1e2ef001407f1e384db041a0555ba8ba60aaa70223ed5cdf484abf6fd1022062b514d4fde58d166cc9d9f92d937490b733c4d36cde27b1f7b3e53bcd61209d01210342519c7020f65078f803fab1c34deb77526e790e328803f692e1457ed74bf2e6", "asm": "304502210086431f1e2ef001407f1e384db041a0555ba8ba60aaa70223ed5cdf484abf6fd1022062b514d4fde58d166cc9d9f92d937490b733c4d36cde27b1f7b3e53bcd61209d[ALL] 0342519c7020f65078f803fab1c34deb77526e790e328803f692e1457ed74bf2e6"}, "vout": 1, "txid": "da371d78bfe37b69b57a561fc1eab572a1d3286c2ae9f58d6e20dc0c5742d91f"}], "txid": "2b8d182bfe070389dc9af4d3ae3bd2f71e37991f19e79df4546882e76173d219", "blocktime": 1537872018, "version": 1, "confirmations": 11489, "time": 1537872018, "locktime": 0, "vsize": 226, "size": 226}