{"hash": "2b8e989c68400df49699014e81fd06f9c0ee75aa375bc965632da2accdd57d4c", "blockhash": "00000000000000000024a2167bbff67b0be802c0b01cdd79e6331c2be6459f87", "vout": [{"scriptPubKey": {"type": "nulldata", "hex": "6a146f6d6e69000000000000001f00000004a817c800", "asm": "OP_RETURN 6f6d6e69000000000000001f00000004a817c800"}, "value": 0.0, "n": 0}, {"scriptPubKey": {"reqSigs": 1, "hex": "76a914a25dec4d0011064ef106a983c39c7a540699f22088ac", "addresses": ["1FoWyxwPXuj4C6abqwhjDWdz6D4PZgYRjA"], "asm": "OP_DUP OP_HASH160 a25dec4d0011064ef106a983c39c7a540699f220 OP_EQUALVERIFY OP_CHECKSIG", "type": "pubkeyhash"}, "value": 0.0198558, "n": 1}, {"scriptPubKey": {"reqSigs": 1, "hex": "76a914d078ff010c3c8b7b96181d4d12c3d52a8e95b4f688ac", "addresses": ["1L1JVrkh9VALA6C1JqHsqF6BiXEgeFUE46"], "asm": "OP_DUP OP_HASH160 d078ff010c3c8b7b96181d4d12c3d52a8e95b4f6 OP_EQUALVERIFY OP_CHECKSIG", "type": "pubkeyhash"}, "value": 5.46e-06, "n": 2}], "hex": "010000000116d1b84a22c9324ea2dededd5af4890db7c6e93a1f9e5542ef173be7b64da28d010000006a47304402201ca7ada147728011b11de8dc2f857d7ac233c7cdda8790b542c1ef2362a32b7b02206055bc35eeff57dad013f2a889fedf3d1a14302c88f794bb5d76f2983372c60a012103da5bac7b36d5aa38f531c6b9601e21bb598a4b6716ebed38b009a55dabde9440feffffff030000000000000000166a146f6d6e69000000000000001f00000004a817c8002c4c1e00000000001976a914a25dec4d0011064ef106a983c39c7a540699f22088ac22020000000000001976a914d078ff010c3c8b7b96181d4d12c3d52a8e95b4f688ac0d490800", "vin": [{"sequence": 4294967294, "scriptSig": {"hex": "47304402201ca7ada147728011b11de8dc2f857d7ac233c7cdda8790b542c1ef2362a32b7b02206055bc35eeff57dad013f2a889fedf3d1a14302c88f794bb5d76f2983372c60a012103da5bac7b36d5aa38f531c6b9601e21bb598a4b6716ebed38b009a55dabde9440", "asm": "304402201ca7ada147728011b11de8dc2f857d7ac233c7cdda8790b542c1ef2362a32b7b02206055bc35eeff57dad013f2a889fedf3d1a14302c88f794bb5d76f2983372c60a[ALL] 03da5bac7b36d5aa38f531c6b9601e21bb598a4b6716ebed38b009a55dabde9440"}, "vout": 1, "txid": "8da24db6e73b17ef42559e1f3ae9c6b70d89f45adddedea24e32c9224ab8d116"}], "txid": "2b8e989c68400df49699014e81fd06f9c0ee75aa375bc965632da2accdd57d4c", "blocktime": 1537870564, "version": 1, "confirmations": 11515, "time": 1537870564, "locktime": 542989, "vsize": 256, "size": 256}