{"hash": "59e8e500135f084d15b71a67a3c684dbc590d0b88203332facc15a00fe3e8193", "blockhash": "0000000000000000001cda96e906b7601b7a6fb1a3b62bca570a9e5d8f4b3de1", "vout": [{"scriptPubKey": {"reqSigs": 1, "hex": "001451b57f5f7ccee0f125a485f6cef4281d8bbf88dc", "addresses": ["bc1q2x6h7hmuems0zfdyshmvaapgrk9mlzxul0aqv8"], "asm": "0 51b57f5f7ccee0f125a485f6cef4281d8bbf88dc", "type": "witness_v0_keyhash"}, "value": 0.38685834, "n": 0}, {"scriptPubKey": {"reqSigs": 1, "hex": "76a914a92fb12d3783dd5b32252cf098d6dd1be3c58efd88ac", "addresses": ["1GRaL8D5CW9efohsJLWhzW8tEJoVnyntcb"], "asm": "OP_DUP OP_HASH160 a92fb12d3783dd5b32252cf098d6dd1be3c58efd OP_EQUALVERIFY OP_CHECKSIG", "type": "pubkeyhash"}, "value": 0.1053205, "n": 1}], "hex": "010000000001015fe399c388b32aa162621c3ef7dda90a775ddd219ecd603df2984f2d9acf782c0000000000ffffffff028a4c4e020000000016001451b57f5f7ccee0f125a485f6cef4281d8bbf88dcd2b4a000000000001976a914a92fb12d3783dd5b32252cf098d6dd1be3c58efd88ac024830450221008a0bd677c8456d7bcf1896112fc2b12ef1e0f215e6f503f022d2299fcec213bc02200df4483aeb537a6fa3fb321d07a40f774a28a885dab8f9b97ed3060b5c27a6b30121032af30157a9c154094c2abafa06ccaa2830680f2a2205790240e3d0a6bdf3a2c600000000", "vin": [{"txinwitness": ["30450221008a0bd677c8456d7bcf1896112fc2b12ef1e0f215e6f503f022d2299fcec213bc02200df4483aeb537a6fa3fb321d07a40f774a28a885dab8f9b97ed3060b5c27a6b301", "032af30157a9c154094c2abafa06ccaa2830680f2a2205790240e3d0a6bdf3a2c6"], "sequence": 4294967295, "scriptSig": {"hex": "", "asm": ""}, "vout": 0, "txid": "2c78cf9a2d4f98f23d60cd9e21dd5d770aa9ddf73e1c6262a12ab388c399e35f"}], "txid": "2b914fa4e804f94b245854d37b84e853964520d96153b4b7e4a4ab584305855b", "blocktime": 1537873282, "version": 1, "confirmations": 11484, "time": 1537873282, "locktime": 0, "vsize": 144, "size": 226}