{"hash": "2b93bdff8627f9547320285b3e9e8378aab496b2b06b18f80718905dbde79db0", "blockhash": "0000000000000000000e13cef7c366c0283d82e591d1acd082e914b08063cdf1", "vout": [{"scriptPubKey": {"reqSigs": 1, "hex": "76a91407c3fa1036f42f79acd5a175554c90628c2c85d488ac", "addresses": ["1i4W3v9nRDvLeMpDWDZ4ju653Kppeykgw"], "asm": "OP_DUP OP_HASH160 07c3fa1036f42f79acd5a175554c90628c2c85d4 OP_EQUALVERIFY OP_CHECKSIG", "type": "pubkeyhash"}, "value": 4.178964, "n": 0}, {"scriptPubKey": {"reqSigs": 1, "hex": "a9147c492f1a836f13809ed4c865ec57b645831f633587", "addresses": ["3D2BPF7KFbpDn1d64hnxLBje9mJ2YPqKoN"], "asm": "OP_HASH160 7c492f1a836f13809ed4c865ec57b645831f6335 OP_EQUAL", "type": "scripthash"}, "value": 6.275, "n": 1}], "hex": "010000000194d8b74a2e699727796a371b4f06dc9ae04862d1fc4b27d4703737ef3e012923010000006a47304402200f892f95afcb5458d03c039018c41b37662a0b1aed79bf420824f9ff20596b1802207937e40c9cd1e620cae347fe429e953d8fc3052fa961087d33eea9cc98ad76a00121037dec3bb2e86f1c82ac5e35cf5abe0ec91f0b60b64796ba6c9d7bd5d333086e51ffffffff02d097e818000000001976a91407c3fa1036f42f79acd5a175554c90628c2c85d488ace0e366250000000017a9147c492f1a836f13809ed4c865ec57b645831f63358700000000", "vin": [{"sequence": 4294967295, "scriptSig": {"hex": "47304402200f892f95afcb5458d03c039018c41b37662a0b1aed79bf420824f9ff20596b1802207937e40c9cd1e620cae347fe429e953d8fc3052fa961087d33eea9cc98ad76a00121037dec3bb2e86f1c82ac5e35cf5abe0ec91f0b60b64796ba6c9d7bd5d333086e51", "asm": "304402200f892f95afcb5458d03c039018c41b37662a0b1aed79bf420824f9ff20596b1802207937e40c9cd1e620cae347fe429e953d8fc3052fa961087d33eea9cc98ad76a0[ALL] 037dec3bb2e86f1c82ac5e35cf5abe0ec91f0b60b64796ba6c9d7bd5d333086e51"}, "vout": 1, "txid": "2329013eef373770d4274bfcd16248e09adc064f1b376a792797692e4ab7d894"}], "txid": "2b93bdff8627f9547320285b3e9e8378aab496b2b06b18f80718905dbde79db0", "blocktime": 1537871767, "version": 1, "confirmations": 11493, "time": 1537871767, "locktime": 0, "vsize": 223, "size": 223}