{"hash": "d62c8d277416fee2d333f85cd6892450a50c254dc8e5d64d25ed25e6d703c6e2", "blockhash": "0000000000000000000e13cef7c366c0283d82e591d1acd082e914b08063cdf1", "vout": [{"scriptPubKey": {"reqSigs": 1, "hex": "001452f4ce68c0ca7ab66cbb2bb4ef00c0eb9d689f77", "addresses": ["bc1q2t6vu6xqefatvm9m9w6w7qxqawwk38mhh8xrz0"], "asm": "0 52f4ce68c0ca7ab66cbb2bb4ef00c0eb9d689f77", "type": "witness_v0_keyhash"}, "value": 0.00010145, "n": 0}, {"scriptPubKey": {"reqSigs": 1, "hex": "a914d4214e4b14f96c71d231b580f71ca7b6ec94fbe387", "addresses": ["3M2f5LmbeJknbZYRQ6S5RtnZhTWjfzREYR"], "asm": "OP_HASH160 d4214e4b14f96c71d231b580f71ca7b6ec94fbe3 OP_EQUAL", "type": "scripthash"}, "value": 0.0016, "n": 1}], "hex": "010000000001014304a6ed2b4b9f957b87e6fb013a3f54ddd3e105754c956c32d5675add2021480100000000ffffffff02a12700000000000016001452f4ce68c0ca7ab66cbb2bb4ef00c0eb9d689f77007102000000000017a914d4214e4b14f96c71d231b580f71ca7b6ec94fbe38702483045022100e0122031bd07fec5cfabebcd7376ad3405d210066adddc9e5f317369ccd19fa40220437963ee6aaaef7ac7a6137f34325c1b5d13fd6f8c02fcbb5a61ea36bbcb7c2b01210387307bb179e23a882a36857015be4853481006843aececf804b24f55c1d1a45b00000000", "vin": [{"txinwitness": ["3045022100e0122031bd07fec5cfabebcd7376ad3405d210066adddc9e5f317369ccd19fa40220437963ee6aaaef7ac7a6137f34325c1b5d13fd6f8c02fcbb5a61ea36bbcb7c2b01", "0387307bb179e23a882a36857015be4853481006843aececf804b24f55c1d1a45b"], "sequence": 4294967295, "scriptSig": {"hex": "", "asm": ""}, "vout": 1, "txid": "482120dd5a67d5326c954c7505e1d3dd543f3a01fbe6877b959f4b2beda60443"}], "txid": "2b9a8e8edab927edd479857554d159a7e953f0c9b0715056391931096d76c655", "blocktime": 1537871767, "version": 1, "confirmations": 11495, "time": 1537871767, "locktime": 0, "vsize": 142, "size": 224}