{"hash": "40af0e62393c5803207a42ae041f9da32b4b34e8a077c857c85061122bda0a63", "blockhash": "00000000000000000024a2167bbff67b0be802c0b01cdd79e6331c2be6459f87", "vout": [{"scriptPubKey": {"reqSigs": 1, "hex": "a91485f50a684d3ad87436238a5ed6fd47ca8c767dda87", "addresses": ["3DuKLnDFnj714G4Djsm5T5hEosfv5deLQP"], "asm": "OP_HASH160 85f50a684d3ad87436238a5ed6fd47ca8c767dda OP_EQUAL", "type": "scripthash"}, "value": 0.00029865, "n": 0}], "hex": "01000000000101e610355bac99e5d952d63bde3930f893e3f4e37cf6d07939c9f0d4ec126c4f6701000000171600148e5046ecff4a8a28e1a912c6350e2a7bc47c26cbffffffff01a97400000000000017a91485f50a684d3ad87436238a5ed6fd47ca8c767dda870247304402203753299047d01dbee05dd0be0dc2862de994e67a872386aa5b71b4d24e61210302201b5b72cd4846620b779e21a548e7bf2cf6a050b62b1840ee557ba8900d7c719c012103c6ded933532b0546215a0b8cca24189cd3268d9dc27f9ec3a2f492f79f81792f00000000", "vin": [{"txinwitness": ["304402203753299047d01dbee05dd0be0dc2862de994e67a872386aa5b71b4d24e61210302201b5b72cd4846620b779e21a548e7bf2cf6a050b62b1840ee557ba8900d7c719c01", "03c6ded933532b0546215a0b8cca24189cd3268d9dc27f9ec3a2f492f79f81792f"], "sequence": 4294967295, "scriptSig": {"hex": "1600148e5046ecff4a8a28e1a912c6350e2a7bc47c26cb", "asm": "00148e5046ecff4a8a28e1a912c6350e2a7bc47c26cb"}, "vout": 1, "txid": "674f6c12ecd4f0c93979d0f67ce3f4e393f83039de3bd652d9e599ac5b3510e6"}], "txid": "2b9addd9c5d6ae5301ea01d827c2d38aed279355ca91c030c00119da4e2dbe7e", "blocktime": 1537870564, "version": 1, "confirmations": 11515, "time": 1537870564, "locktime": 0, "vsize": 134, "size": 215}