{"hash": "f8b7df830bfa2d7f92bd21f96f48526147d52885d6f15f874ec471f1dc0c6552", "blockhash": "0000000000000000001f76057863aec43deb6fa401d9628bb513d65a8098bfab", "vout": [{"scriptPubKey": {"reqSigs": 1, "hex": "76a914d4fa411a33f1552ca3b365da83dca5e0f9e2ae8c88ac", "addresses": ["1LR83eEuv42mp1uhUghc6e9c7ywpV8xiuu"], "asm": "OP_DUP OP_HASH160 d4fa411a33f1552ca3b365da83dca5e0f9e2ae8c OP_EQUALVERIFY OP_CHECKSIG", "type": "pubkeyhash"}, "value": 0.34817687, "n": 0}, {"scriptPubKey": {"reqSigs": 1, "hex": "a914a3d730d0f2d0492ea552d5e510a8b2f7a2a573dd87", "addresses": ["3GdKrXJVGmj95aVinTALaP3sEeqgGu3DKx"], "asm": "OP_HASH160 a3d730d0f2d0492ea552d5e510a8b2f7a2a573dd OP_EQUAL", "type": "scripthash"}, "value": 0.01000059, "n": 1}], "hex": "02000000000116131812108424f993e466bb24e998679ccc43bc6021bcb239f5ead3331cd769d10000000017160014a7565179eb22bbbfea1a0f0bf23ebc01b4d25cb1feffffff1d9debad61c33417358bba93c36f7a2b669348eea87d7128ea88e5de2428e783010000001716001421690ade67cb1af436e2cabf0bc35afca8138430feffffff2925bfb42416568f5f41c732007e2c73b34fafc376b1855158a7c4eecd6ab52800000000171600142e715c100085d8dfd31a4b211c776d20c6047e97feffffff29b05cf3333e48ba39689aa444f0efe01f96cffd910328c304ea2bcbba692f200e000000171600142927e34284af2720008e7d1385da03294453ddf1feffffff320cef1f29a53b6782786f3ea309aee23e6ef1190c7b3b46168a81f40408ab1b0100000017160014eb95c0c90b9169fd483af0ff9d07f3eaeb436f8ffeffffff3bf461ab1ca6409685e4cb329704655bcb76cf79f79db2567770dadced1237aa0000000017160014cbf6f68954c5889ae73027e37c26962b95526a49feffffff3f59764c92d8fa6fcf1bfd26971d73a0814efa24eaf10890169496f341342e0e0000000017160014b85daa3ead4c5ce33693085d0f4758ef9f24e682feffffff476713e49cb99c02dda451bda87fc481fc1402ed0ca32839f7d6efd197b73df707000000171600148327aef9e3b1078d52eb1916cc4d6d159553f981feffffff5435dc780483387713dd6663c7b1ad471ea3ea742b7c0982312214e0a1c1fd24000000001716001421e1f9279c60a5278c095bb97ff027a4f2f51211feffffff73311fa57cacdc8662d33b5326fb1ee058b9330a12e32a40adfa54839f1bd7870000000017160014f8f936fbc73ab92b008cf1638786501da138e3c1feffffff7e88014239d541aa39d023701f779027062e34ce4eb95eaf1e34bd37ce8ab90f0000000017160014347dc7a4f2c87746cd805185b24a9228be7286fcfeffffff83d1a112200d1d8dabc193557adc1402ca3a0197fd6854ea38da3f620d0475630100000017160014fc1e74504054b85c35e4e41f886b9307f8f1b80bfeffffff89b8cb0a765b5faa5b58e42a85e46ac6e0e8f743b8a6d17dbb1464e654383fd201000000171600142c6ddefa641cad7d2a897a3110ee652cfdd22b4efeffffff9fea616e0a4e1df3ccce1d16adc5adba1836a7a7e42ad1828f06f3728d66d3fa0000000017160014c585cc0ae54005081b7d4aefdeefb59eb4e1af66feffffffa5663cbe912625db51953a6d88452b1c841c75fd397dda36a682952f9a31161a0000000017160014cb13dd7a69d1adeb055be9fb669463aff554c0d9feffffffb8b9a2a307d2aa752169c73eccda86ad77810fc164d46bc3de78bf09dcb601eb030000001716001406df55e3af3fa4b12bd84efd8a563b005308d348feffffffbd84597efa830b42e8489f33a56d9b031f4f63b9da680e06552ffa42b58540450000000017160014c95dee7c024be245b411de1dcd29cd944280ae72feffffffbdb9e349b39a930e7b1bc22ee3bed0d68caee28ac3c43fa51e695f275ee58e7c0000000017160014c3dcc66a964b05f75cec255fe66d7b8ecc5d9f02feffffffc4653a721b902715a51bd09d6734fdf44dbe26e312dbad49bfcbd6a0ba3d991001000000171600145f30ae69af3f00e9abe5462a08d5bf999267e3b0feffffffcec5c2ffec2e2dbf80e8f8aa360bb1c121ac2c2e22534c2fe707f6cf72ed291e01000000171600145c4c696ce133f05b40a54b4fb3e66661fda384bcfeffffffe5132bc455a1e59ee45fcb44f0f410078b926d30b9b33572c7d5844e16fba313000000001716001438d7ab88c8dd79ba19d7efaaf1d8c55532ad43e4fefffffffababd1b1ff964008a62dcda547ad45a3e512b8e1084b57cd278721368a1e1db0100000017160014e2feadaac647b9fcfb2e985a062d8d71779eda22feffffff0297461302000000001976a914d4fa411a33f1552ca3b365da83dca5e0f9e2ae8c88ac7b420f000000000017a914a3d730d0f2d0492ea552d5e510a8b2f7a2a573dd8702473044022027865e27092fced69ab327915f99d4e09b2d23988d9881655a3eb56c5526fde70220171f2faeb90da69003de1f520bf9ef477e230153836ecd3735a788e4f93d59ec01210333d5b80eeeb2c1f00f367604335adc3c2bc8bbcd91d2542aaaa4f211f330622302483045022100ef8704bb214590624188617902db162cd33eed9239ba47d15c0817bad03a640b02207503e174caa9e4502b0910f80ee487a37e8d2bd6b58367c3c907a65bfd33d38c01210312b1b9d0c2f060999944df6588264800cc36b4b3401866530286ac0c119f0f4a02473044022031c776f282571eadfe7e585c158750324a7a2d2015b31f9c00e8935423dda33902203eef9303060f7b06536a732a5994c18bcc135ef4631182e771c0eb758f8581290121032d6dbaaefdd15f68fa87ed3ebd7de178c4a7234b9cd44f791260ea4b4cd17afb02483045022100d30ff59c36b01af2f5f5260e92108c79ac07a62ee86f97d865e0a9bcdbcd4fc202204114883465924483ed7e71e158e1c2ca6bd17eb38d6774465d175d19e95deae7012102fea3103b2b97c740c7e4eb1374e927c5843fec8e51acaa37e1bcd95a181b0af802483045022100e6c1f026a235f40d3fac671fef2ba914bb4d8abe0ba11ad9ee938c25d71845e9022033d95bfc961edec4b54117c3f972e47e1eb677235c489dca9e1c8c1f0a473dda0121025f7d83f003c9e10b4231f7492846cb07cf6a8bc5020dd9672255314399eb2c5e0247304402203bc78885652e61c9dfbec0639d601f7339c609dd3960fe764430249a2a2593ed02206c4e750be53e6c02704d5b1f996786fbb0b6282d97b0aba30766a2655396e48e012102ea871ef96e8418f529e4a48304eab9d5499ea28b811f19f8f199e5360309ef7102473044022035db39d07511583fdf33b911368187ee20c45ae611b5df7c597408a726b957ec0220698f20d97b2a09f919b178553a3401f8a4deadc5b4bcec23979043e817897556012103595e6791162b6b5ce0e20c15e067d8fdf26e1c3179feabbe9f49fd0ad23c5a60024730440220377a92f11b95a8970d7f28229c44e28bf916c2406fc5fa457ed6e97d43e0f33102202d55e30d69333ef6610a4acf02b961edf8a8597f4cacd7ebf4cf64c03b0ffffb012103e995e88a8ac95af544d56f124d859e4c8e618fd758ca19d752a42bea1dc1b6250247304402202a5d4e037c0a874abc6bb1f97c7b30d4133ca99478868332dc4982bc255e14fb0220692a53ed8aa63cce535d558d9dc4d4861c32c3692d35a9aef8f90919e50506a301210285f8a9aa0d3f7889d593209cda3f1dcbc771bd6aa715eba222afef89ac72181a02483045022100fbfd681f4f9902430dc64cfaa0c9e3f89f366ee0f9dc251638d72699c9d65f8d02203aff8f18204f7f6dc2d4bb58cf72bab1767ad15ac7aa8971588958bc615b242c0121023f7eb179e5ae34b25af452e533bb1b885a489cf63b7f4b957e1f8f317484cf4d024730440220184115f0fcf32738e27d40afa9700727fea33662b46256496705626e0fc461bb0220121b72ce8291c09859ebc4d2d32944a8795c38a4ef1c48e8a9e6802e27ce85300121038cf648d37f179057935bd9ea4a0d50c3e1284641cc98da0e5289ca3e9e7769d60247304402207f244fa480a0806e5b5407b0cb4e38b9c092f2832bf42724acc202a0dd36103802202dce0600be8f352de9ad20850da4ea443f05a0be4809b0447a443c2782f5765b012103cb1b9e9a0ced13dbbd45b3006cb42fbadb2e831485c1a66cdfe8fc914ede5a8b02473044022068742053c56d7d0bbe663c97b02e3476efe9719d71494ed5a5bc34bae266053702203bd7bfbf840046dbbc1bbb85f52b8c49593041fa4b0a2bbf15f07b457af288550121036b21b5a8224c4738f03c2f38014f42fb9c7d69a70b0ca5ef24bb460d62926e2602483045022100b1ab00ba90080f313220f2a795295d4e40211e10b6bde39cac9bfe96426c592402200fe4e60dd1f72b0c3e9dc34e71e622f0a0193e5d659ca9612efe35a9f519535a0121034859d5343f42bbb5b96ebc0b9e31f6d6f3b5f87faa72d28918ba4c047aaddff602483045022100e73a59b9f9254d23c1bb2553a6186669288a3ae37355d35808679c75cb44e1e4022052d10001b00efef97d4fe4a969a84c01b85802c26295c947cc07691c4e9df1f50121031cdb71f9f54c022de75c1370457c1b4995e8df94b25203b39ad5683736397419024830450221009d42b4158bb6cc551f5b06c8e8cde5ee8ae7e390a648b1714cf2425625ad0f7102203cf915757cf15e9e63022fc66704accfe1e11ae344be20327562c43915b783ae012102f3056d77a13ce0badb689e9a2a671beb1cfdf33836b28329ff56d1e43d9847e20247304402206dafa09283a71f5ad57e0095d628d46066a9739c5557dcaaef77500fe494d20102201c651e61afc51bd0ee4083582c18e7f211c0a06bb57f839314f39f94ba7133240121027fbc6536d107e5461cd4428443c9667026eede5b0d41a43f1c5ae14dce71f4b3024730440220534a7baab22add5b00b0a94b1847da0f78d42a45ad20ea84bc52410358cd2ab502206af0bb63708e6f98a85bbe4c495a6303ababd8973cc863924c3282bad622f4370121021a713787117ec9c70e8c192f531b8f34f8572c206c6245bc428fb7d628b1d8100247304402204c3f1b2b68812e6ffb4a7f843c00fe47cc31ff0212a452d7b22c8effe55c3087022051815b26f2c412bb8d5b9928d8dcdda7dd1ad3b560f0596f9062e38d36c02666012102068d9e267dec0d4339c2c1027d5d1ae6552dd89a0384133dcadf06c5a4825df302473044022002b65e59026252f9e5b43d4b31a85019499f97599dcc26767a32e39eb2ae7f7102204d535b5a1f880f742d9826d2a37c63c89dae3ef6bb57f0f2ab6844f7ee4acaea012103daddb283358d374d80fdfc12bbd2a919a446efbc26357cb0b635d6f91d58d2ed0247304402201a48a77002e02bd6b0e4a10c805ad63ee106f0f33add71473e8e9489b9fe442d022039b873e6fcb6cd302e9d53385db5d755d042b10ac0caea940eb02cc4cbdc45b4012102c1bf0a443cbcc04634e3cc4e89f1ca4ef132af575db42834178a6c2d5b66ab1f0247304402204c71a5f3df46dc0e72e67f497ab5cb074d142f2e16f9cf4c7f3b29c40e36d7e402200f6ecc0763c7665f2d8edad99ada87ab708ca26e74434c2865f9c4e3a0fecd26012102eb6edf92932175f11ad5f80b41aafd6d652679cbe9a516633fd17241032c497e14490800", "vin": [{"txinwitness": ["3044022027865e27092fced69ab327915f99d4e09b2d23988d9881655a3eb56c5526fde70220171f2faeb90da69003de1f520bf9ef477e230153836ecd3735a788e4f93d59ec01", "0333d5b80eeeb2c1f00f367604335adc3c2bc8bbcd91d2542aaaa4f211f3306223"], "sequence": 4294967294, "scriptSig": {"hex": "160014a7565179eb22bbbfea1a0f0bf23ebc01b4d25cb1", "asm": "0014a7565179eb22bbbfea1a0f0bf23ebc01b4d25cb1"}, "vout": 0, "txid": "d169d71c33d3eaf539b2bc2160bc43cc9c6798e924bb66e493f9248410121813"}, {"txinwitness": ["3045022100ef8704bb214590624188617902db162cd33eed9239ba47d15c0817bad03a640b02207503e174caa9e4502b0910f80ee487a37e8d2bd6b58367c3c907a65bfd33d38c01", "0312b1b9d0c2f060999944df6588264800cc36b4b3401866530286ac0c119f0f4a"], "sequence": 4294967294, "scriptSig": {"hex": "16001421690ade67cb1af436e2cabf0bc35afca8138430", "asm": "001421690ade67cb1af436e2cabf0bc35afca8138430"}, "vout": 1, "txid": "83e72824dee588ea28717da8ee4893662b7a6fc393ba8b351734c361adeb9d1d"}, {"txinwitness": ["3044022031c776f282571eadfe7e585c158750324a7a2d2015b31f9c00e8935423dda33902203eef9303060f7b06536a732a5994c18bcc135ef4631182e771c0eb758f85812901", "032d6dbaaefdd15f68fa87ed3ebd7de178c4a7234b9cd44f791260ea4b4cd17afb"], "sequence": 4294967294, "scriptSig": {"hex": "1600142e715c100085d8dfd31a4b211c776d20c6047e97", "asm": "00142e715c100085d8dfd31a4b211c776d20c6047e97"}, "vout": 0, "txid": "28b56acdeec4a7585185b176c3af4fb3732c7e0032c7415f8f561624b4bf2529"}, {"txinwitness": ["3045022100d30ff59c36b01af2f5f5260e92108c79ac07a62ee86f97d865e0a9bcdbcd4fc202204114883465924483ed7e71e158e1c2ca6bd17eb38d6774465d175d19e95deae701", "02fea3103b2b97c740c7e4eb1374e927c5843fec8e51acaa37e1bcd95a181b0af8"], "sequence": 4294967294, "scriptSig": {"hex": "1600142927e34284af2720008e7d1385da03294453ddf1", "asm": "00142927e34284af2720008e7d1385da03294453ddf1"}, "vout": 14, "txid": "202f69bacb2bea04c3280391fdcf961fe0eff044a49a6839ba483e33f35cb029"}, {"txinwitness": ["3045022100e6c1f026a235f40d3fac671fef2ba914bb4d8abe0ba11ad9ee938c25d71845e9022033d95bfc961edec4b54117c3f972e47e1eb677235c489dca9e1c8c1f0a473dda01", "025f7d83f003c9e10b4231f7492846cb07cf6a8bc5020dd9672255314399eb2c5e"], "sequence": 4294967294, "scriptSig": {"hex": "160014eb95c0c90b9169fd483af0ff9d07f3eaeb436f8f", "asm": "0014eb95c0c90b9169fd483af0ff9d07f3eaeb436f8f"}, "vout": 1, "txid": "1bab0804f4818a16463b7b0c19f16e3ee2ae09a33e6f7882673ba5291fef0c32"}, {"txinwitness": ["304402203bc78885652e61c9dfbec0639d601f7339c609dd3960fe764430249a2a2593ed02206c4e750be53e6c02704d5b1f996786fbb0b6282d97b0aba30766a2655396e48e01", "02ea871ef96e8418f529e4a48304eab9d5499ea28b811f19f8f199e5360309ef71"], "sequence": 4294967294, "scriptSig": {"hex": "160014cbf6f68954c5889ae73027e37c26962b95526a49", "asm": "0014cbf6f68954c5889ae73027e37c26962b95526a49"}, "vout": 0, "txid": "aa3712eddcda707756b29df779cf76cb5b65049732cbe4859640a61cab61f43b"}, {"txinwitness": ["3044022035db39d07511583fdf33b911368187ee20c45ae611b5df7c597408a726b957ec0220698f20d97b2a09f919b178553a3401f8a4deadc5b4bcec23979043e81789755601", "03595e6791162b6b5ce0e20c15e067d8fdf26e1c3179feabbe9f49fd0ad23c5a60"], "sequence": 4294967294, "scriptSig": {"hex": "160014b85daa3ead4c5ce33693085d0f4758ef9f24e682", "asm": "0014b85daa3ead4c5ce33693085d0f4758ef9f24e682"}, "vout": 0, "txid": "0e2e3441f39694169008f1ea24fa4e81a0731d9726fd1bcf6ffad8924c76593f"}, {"txinwitness": ["30440220377a92f11b95a8970d7f28229c44e28bf916c2406fc5fa457ed6e97d43e0f33102202d55e30d69333ef6610a4acf02b961edf8a8597f4cacd7ebf4cf64c03b0ffffb01", "03e995e88a8ac95af544d56f124d859e4c8e618fd758ca19d752a42bea1dc1b625"], "sequence": 4294967294, "scriptSig": {"hex": "1600148327aef9e3b1078d52eb1916cc4d6d159553f981", "asm": "00148327aef9e3b1078d52eb1916cc4d6d159553f981"}, "vout": 7, "txid": "f73db797d1efd6f73928a30ced0214fc81c47fa8bd51a4dd029cb99ce4136747"}, {"txinwitness": ["304402202a5d4e037c0a874abc6bb1f97c7b30d4133ca99478868332dc4982bc255e14fb0220692a53ed8aa63cce535d558d9dc4d4861c32c3692d35a9aef8f90919e50506a301", "0285f8a9aa0d3f7889d593209cda3f1dcbc771bd6aa715eba222afef89ac72181a"], "sequence": 4294967294, "scriptSig": {"hex": "16001421e1f9279c60a5278c095bb97ff027a4f2f51211", "asm": "001421e1f9279c60a5278c095bb97ff027a4f2f51211"}, "vout": 0, "txid": "24fdc1a1e014223182097c2b74eaa31e47adb1c76366dd137738830478dc3554"}, {"txinwitness": ["3045022100fbfd681f4f9902430dc64cfaa0c9e3f89f366ee0f9dc251638d72699c9d65f8d02203aff8f18204f7f6dc2d4bb58cf72bab1767ad15ac7aa8971588958bc615b242c01", "023f7eb179e5ae34b25af452e533bb1b885a489cf63b7f4b957e1f8f317484cf4d"], "sequence": 4294967294, "scriptSig": {"hex": "160014f8f936fbc73ab92b008cf1638786501da138e3c1", "asm": "0014f8f936fbc73ab92b008cf1638786501da138e3c1"}, "vout": 0, "txid": "87d71b9f8354faad402ae3120a33b958e01efb26533bd36286dcac7ca51f3173"}, {"txinwitness": ["30440220184115f0fcf32738e27d40afa9700727fea33662b46256496705626e0fc461bb0220121b72ce8291c09859ebc4d2d32944a8795c38a4ef1c48e8a9e6802e27ce853001", "038cf648d37f179057935bd9ea4a0d50c3e1284641cc98da0e5289ca3e9e7769d6"], "sequence": 4294967294, "scriptSig": {"hex": "160014347dc7a4f2c87746cd805185b24a9228be7286fc", "asm": "0014347dc7a4f2c87746cd805185b24a9228be7286fc"}, "vout": 0, "txid": "0fb98ace37bd341eaf5eb94ece342e062790771f7023d039aa41d5394201887e"}, {"txinwitness": ["304402207f244fa480a0806e5b5407b0cb4e38b9c092f2832bf42724acc202a0dd36103802202dce0600be8f352de9ad20850da4ea443f05a0be4809b0447a443c2782f5765b01", "03cb1b9e9a0ced13dbbd45b3006cb42fbadb2e831485c1a66cdfe8fc914ede5a8b"], "sequence": 4294967294, "scriptSig": {"hex": "160014fc1e74504054b85c35e4e41f886b9307f8f1b80b", "asm": "0014fc1e74504054b85c35e4e41f886b9307f8f1b80b"}, "vout": 1, "txid": "6375040d623fda38ea5468fd97013aca0214dc7a5593c1ab8d1d0d2012a1d183"}, {"txinwitness": ["3044022068742053c56d7d0bbe663c97b02e3476efe9719d71494ed5a5bc34bae266053702203bd7bfbf840046dbbc1bbb85f52b8c49593041fa4b0a2bbf15f07b457af2885501", "036b21b5a8224c4738f03c2f38014f42fb9c7d69a70b0ca5ef24bb460d62926e26"], "sequence": 4294967294, "scriptSig": {"hex": "1600142c6ddefa641cad7d2a897a3110ee652cfdd22b4e", "asm": "00142c6ddefa641cad7d2a897a3110ee652cfdd22b4e"}, "vout": 1, "txid": "d23f3854e66414bb7dd1a6b843f7e8e0c66ae4852ae4585baa5f5b760acbb889"}, {"txinwitness": ["3045022100b1ab00ba90080f313220f2a795295d4e40211e10b6bde39cac9bfe96426c592402200fe4e60dd1f72b0c3e9dc34e71e622f0a0193e5d659ca9612efe35a9f519535a01", "034859d5343f42bbb5b96ebc0b9e31f6d6f3b5f87faa72d28918ba4c047aaddff6"], "sequence": 4294967294, "scriptSig": {"hex": "160014c585cc0ae54005081b7d4aefdeefb59eb4e1af66", "asm": "0014c585cc0ae54005081b7d4aefdeefb59eb4e1af66"}, "vout": 0, "txid": "fad3668d72f3068f82d12ae4a7a73618baadc5ad161dceccf31d4e0a6e61ea9f"}, {"txinwitness": ["3045022100e73a59b9f9254d23c1bb2553a6186669288a3ae37355d35808679c75cb44e1e4022052d10001b00efef97d4fe4a969a84c01b85802c26295c947cc07691c4e9df1f501", "031cdb71f9f54c022de75c1370457c1b4995e8df94b25203b39ad5683736397419"], "sequence": 4294967294, "scriptSig": {"hex": "160014cb13dd7a69d1adeb055be9fb669463aff554c0d9", "asm": "0014cb13dd7a69d1adeb055be9fb669463aff554c0d9"}, "vout": 0, "txid": "1a16319a2f9582a636da7d39fd751c841c2b45886d3a9551db252691be3c66a5"}, {"txinwitness": ["30450221009d42b4158bb6cc551f5b06c8e8cde5ee8ae7e390a648b1714cf2425625ad0f7102203cf915757cf15e9e63022fc66704accfe1e11ae344be20327562c43915b783ae01", "02f3056d77a13ce0badb689e9a2a671beb1cfdf33836b28329ff56d1e43d9847e2"], "sequence": 4294967294, "scriptSig": {"hex": "16001406df55e3af3fa4b12bd84efd8a563b005308d348", "asm": "001406df55e3af3fa4b12bd84efd8a563b005308d348"}, "vout": 3, "txid": "eb01b6dc09bf78dec36bd464c10f8177ad86dacc3ec7692175aad207a3a2b9b8"}, {"txinwitness": ["304402206dafa09283a71f5ad57e0095d628d46066a9739c5557dcaaef77500fe494d20102201c651e61afc51bd0ee4083582c18e7f211c0a06bb57f839314f39f94ba71332401", "027fbc6536d107e5461cd4428443c9667026eede5b0d41a43f1c5ae14dce71f4b3"], "sequence": 4294967294, "scriptSig": {"hex": "160014c95dee7c024be245b411de1dcd29cd944280ae72", "asm": "0014c95dee7c024be245b411de1dcd29cd944280ae72"}, "vout": 0, "txid": "454085b542fa2f55060e68dab9634f1f039b6da5339f48e8420b83fa7e5984bd"}, {"txinwitness": ["30440220534a7baab22add5b00b0a94b1847da0f78d42a45ad20ea84bc52410358cd2ab502206af0bb63708e6f98a85bbe4c495a6303ababd8973cc863924c3282bad622f43701", "021a713787117ec9c70e8c192f531b8f34f8572c206c6245bc428fb7d628b1d810"], "sequence": 4294967294, "scriptSig": {"hex": "160014c3dcc66a964b05f75cec255fe66d7b8ecc5d9f02", "asm": "0014c3dcc66a964b05f75cec255fe66d7b8ecc5d9f02"}, "vout": 0, "txid": "7c8ee55e275f691ea53fc4c38ae2ae8cd6d0bee32ec21b7b0e939ab349e3b9bd"}, {"txinwitness": ["304402204c3f1b2b68812e6ffb4a7f843c00fe47cc31ff0212a452d7b22c8effe55c3087022051815b26f2c412bb8d5b9928d8dcdda7dd1ad3b560f0596f9062e38d36c0266601", "02068d9e267dec0d4339c2c1027d5d1ae6552dd89a0384133dcadf06c5a4825df3"], "sequence": 4294967294, "scriptSig": {"hex": "1600145f30ae69af3f00e9abe5462a08d5bf999267e3b0", "asm": "00145f30ae69af3f00e9abe5462a08d5bf999267e3b0"}, "vout": 1, "txid": "10993dbaa0d6cbbf49addb12e326be4df4fd34679dd01ba51527901b723a65c4"}, {"txinwitness": ["3044022002b65e59026252f9e5b43d4b31a85019499f97599dcc26767a32e39eb2ae7f7102204d535b5a1f880f742d9826d2a37c63c89dae3ef6bb57f0f2ab6844f7ee4acaea01", "03daddb283358d374d80fdfc12bbd2a919a446efbc26357cb0b635d6f91d58d2ed"], "sequence": 4294967294, "scriptSig": {"hex": "1600145c4c696ce133f05b40a54b4fb3e66661fda384bc", "asm": "00145c4c696ce133f05b40a54b4fb3e66661fda384bc"}, "vout": 1, "txid": "1e29ed72cff607e72f4c53222e2cac21c1b10b36aaf8e880bf2d2eecffc2c5ce"}, {"txinwitness": ["304402201a48a77002e02bd6b0e4a10c805ad63ee106f0f33add71473e8e9489b9fe442d022039b873e6fcb6cd302e9d53385db5d755d042b10ac0caea940eb02cc4cbdc45b401", "02c1bf0a443cbcc04634e3cc4e89f1ca4ef132af575db42834178a6c2d5b66ab1f"], "sequence": 4294967294, "scriptSig": {"hex": "16001438d7ab88c8dd79ba19d7efaaf1d8c55532ad43e4", "asm": "001438d7ab88c8dd79ba19d7efaaf1d8c55532ad43e4"}, "vout": 0, "txid": "13a3fb164e84d5c77235b3b9306d928b0710f4f044cb5fe49ee5a155c42b13e5"}, {"txinwitness": ["304402204c71a5f3df46dc0e72e67f497ab5cb074d142f2e16f9cf4c7f3b29c40e36d7e402200f6ecc0763c7665f2d8edad99ada87ab708ca26e74434c2865f9c4e3a0fecd2601", "02eb6edf92932175f11ad5f80b41aafd6d652679cbe9a516633fd17241032c497e"], "sequence": 4294967294, "scriptSig": {"hex": "160014e2feadaac647b9fcfb2e985a062d8d71779eda22", "asm": "0014e2feadaac647b9fcfb2e985a062d8d71779eda22"}, "vout": 1, "txid": "dbe1a168137278d27cb584108e2b513e5ad47a54dadc628a0064f91f1bbdbafa"}], "txid": "2b9ce8491cc863fa47831b0ce025f70677282434bfcd7171ac2fb6204a4135fa", "blocktime": 1537873891, "version": 2, "confirmations": 11478, "time": 1537873891, "locktime": 542996, "vsize": 2075, "size": 3847}