{"hash": "2ba06e0461871674a5bb529d4318d88d6968cdb3d75af0325aef5ebc6868d860", "blockhash": "0000000000000000001f0ddff1eddb255c1121bcd4da4f1bc9a0da00cae72433", "vout": [{"scriptPubKey": {"reqSigs": 1, "hex": "a9147496a23094bf65148c60a5d1558ef9d1c38769f387", "addresses": ["3CKUkztW1us8ziwSb2DFKcaWaX6Hc3Uv37"], "asm": "OP_HASH160 7496a23094bf65148c60a5d1558ef9d1c38769f3 OP_EQUAL", "type": "scripthash"}, "value": 0.00781294, "n": 0}, {"scriptPubKey": {"reqSigs": 1, "hex": "76a914bad5519a4301e64ae5de77220c828c9fef55acf788ac", "addresses": ["1J2tEL1Z4rca8vqSrNfD9xD5ZUGaRwUdJP"], "asm": "OP_DUP OP_HASH160 bad5519a4301e64ae5de77220c828c9fef55acf7 OP_EQUALVERIFY OP_CHECKSIG", "type": "pubkeyhash"}, "value": 0.03692939, "n": 1}], "hex": "0100000001b04001d503e52b859f13023c84bff50de0380e70086019856966c33f15710d40010000006a47304402204f4faa134b0fc4aa802ae05b4742016d915846df616b4f6ba64af4657551828102201f2de1f541a87dd06d5617e6a158fbee1ee1958cc254a7d439e84777e8fdbe9901210300b49719a9ac2a1f0b6514142b64a8265292f2cc15bac3b244050a935884aacaffffffff02eeeb0b000000000017a9147496a23094bf65148c60a5d1558ef9d1c38769f3878b593800000000001976a914bad5519a4301e64ae5de77220c828c9fef55acf788ac00000000", "vin": [{"sequence": 4294967295, "scriptSig": {"hex": "47304402204f4faa134b0fc4aa802ae05b4742016d915846df616b4f6ba64af4657551828102201f2de1f541a87dd06d5617e6a158fbee1ee1958cc254a7d439e84777e8fdbe9901210300b49719a9ac2a1f0b6514142b64a8265292f2cc15bac3b244050a935884aaca", "asm": "304402204f4faa134b0fc4aa802ae05b4742016d915846df616b4f6ba64af4657551828102201f2de1f541a87dd06d5617e6a158fbee1ee1958cc254a7d439e84777e8fdbe99[ALL] 0300b49719a9ac2a1f0b6514142b64a8265292f2cc15bac3b244050a935884aaca"}, "vout": 1, "txid": "400d71153fc3666985196008700e38e00df5bf843c02139f852be503d50140b0"}], "txid": "2ba06e0461871674a5bb529d4318d88d6968cdb3d75af0325aef5ebc6868d860", "blocktime": 1537872018, "version": 1, "confirmations": 11489, "time": 1537872018, "locktime": 0, "vsize": 223, "size": 223}