{"hash": "2ba01592e0f4e8fba3371a7e78ede5adb38aabce47086ab4d07d8d449582dec2", "blockhash": "0000000000000000001cda96e906b7601b7a6fb1a3b62bca570a9e5d8f4b3de1", "vout": [{"scriptPubKey": {"type": "nulldata", "hex": "6a4c50000077c500011ac8685b23cc0f42c2fc38c5e5bf9ae76da98a211aaf6c953dd567cf27e7dd8adcd0cd4bfb78da54f1f70f6253cd5baa134c06136d4758d12efcbc9a9526289ac0f6612cd74e33776ee4", "asm": "OP_RETURN 000077c500011ac8685b23cc0f42c2fc38c5e5bf9ae76da98a211aaf6c953dd567cf27e7dd8adcd0cd4bfb78da54f1f70f6253cd5baa134c06136d4758d12efcbc9a9526289ac0f6612cd74e33776ee4"}, "value": 0.0, "n": 0}, {"scriptPubKey": {"reqSigs": 1, "hex": "76a914b36d0c26a01b89c7775bb69d6284ef0bc682ed7788ac", "addresses": ["1HMib683GoqgdwFmvsGVms1yB3qYaqYQGu"], "asm": "OP_DUP OP_HASH160 b36d0c26a01b89c7775bb69d6284ef0bc682ed77 OP_EQUALVERIFY OP_CHECKSIG", "type": "pubkeyhash"}, "value": 0.0222242, "n": 1}], "hex": "0100000001a2b96618229cd3adb44470ddef83744121791e93161aa47eb3d8d7d0d88361aa000000006b483045022100e54ca448945ec53b26f231f74e09d8ecbda0776f6456c4cc31c094d66b32a84d02205cdf64c0e6376a6c02c2b68b42238145a0e2f988fa295b56fb34030172f1917c012103736fd192d33bd5fd4a6a5a45851d1b6392cf39244906e70a3686e19fdcac7ea1ffffffff020000000000000000536a4c50000077c500011ac8685b23cc0f42c2fc38c5e5bf9ae76da98a211aaf6c953dd567cf27e7dd8adcd0cd4bfb78da54f1f70f6253cd5baa134c06136d4758d12efcbc9a9526289ac0f6612cd74e33776ee454e92100000000001976a914b36d0c26a01b89c7775bb69d6284ef0bc682ed7788ac00000000", "vin": [{"sequence": 4294967295, "scriptSig": {"hex": "483045022100e54ca448945ec53b26f231f74e09d8ecbda0776f6456c4cc31c094d66b32a84d02205cdf64c0e6376a6c02c2b68b42238145a0e2f988fa295b56fb34030172f1917c012103736fd192d33bd5fd4a6a5a45851d1b6392cf39244906e70a3686e19fdcac7ea1", "asm": "3045022100e54ca448945ec53b26f231f74e09d8ecbda0776f6456c4cc31c094d66b32a84d02205cdf64c0e6376a6c02c2b68b42238145a0e2f988fa295b56fb34030172f1917c[ALL] 03736fd192d33bd5fd4a6a5a45851d1b6392cf39244906e70a3686e19fdcac7ea1"}, "vout": 0, "txid": "aa6183d8d0d7d8b37ea41a16931e7921417483efdd7044b4add39c221866b9a2"}], "txid": "2ba01592e0f4e8fba3371a7e78ede5adb38aabce47086ab4d07d8d449582dec2", "blocktime": 1537873282, "version": 1, "confirmations": 11484, "time": 1537873282, "locktime": 0, "vsize": 284, "size": 284}