{"hash": "c82c166d016499ff45e067a1934ec44304ea75d94617936b8b388eddff50359a", "blockhash": "0000000000000000001cda96e906b7601b7a6fb1a3b62bca570a9e5d8f4b3de1", "vout": [{"scriptPubKey": {"reqSigs": 1, "hex": "a91490e99e8d26d05ead3c05430c292a887bbff695f587", "addresses": ["3EuF6KjJawxTiUsea3Sc8hsLUGmVEf7Xg5"], "asm": "OP_HASH160 90e99e8d26d05ead3c05430c292a887bbff695f5 OP_EQUAL", "type": "scripthash"}, "value": 0.00143649, "n": 0}, {"scriptPubKey": {"type": "nulldata", "hex": "6a146f6d6e69000000000000001f0000000005f5e100", "asm": "OP_RETURN 6f6d6e69000000000000001f0000000005f5e100"}, "value": 0.0, "n": 1}, {"scriptPubKey": {"reqSigs": 1, "hex": "a91490e99e8d26d05ead3c05430c292a887bbff695f587", "addresses": ["3EuF6KjJawxTiUsea3Sc8hsLUGmVEf7Xg5"], "asm": "OP_HASH160 90e99e8d26d05ead3c05430c292a887bbff695f5 OP_EQUAL", "type": "scripthash"}, "value": 5.4e-06, "n": 2}], "hex": "01000000000102c57b2d5db4f3921cf45c679cf78712bf8bac880150befa97700049e1321facc40000000017160014f6e1792e7852ebd5ae795c2a25d579acdfadec2dffffffffc57b2d5db4f3921cf45c679cf78712bf8bac880150befa97700049e1321facc40200000017160014f6e1792e7852ebd5ae795c2a25d579acdfadec2dffffffff03213102000000000017a91490e99e8d26d05ead3c05430c292a887bbff695f5870000000000000000166a146f6d6e69000000000000001f0000000005f5e1001c0200000000000017a91490e99e8d26d05ead3c05430c292a887bbff695f58702483045022100fbfa2095a9e30a88428fb0ae71beded388dfc7d9f981beec8a10f0bebd91d272022036e31ec77d419b2d0c25eee8bd1247ba2a51b710f38987eb3afe144abc595fb9012103f1cf988013a33e053d1e9bd54c4798c1a6dc362a5b2798b5344049fca40e2db002483045022100a5020d2a951e9f1ff0e1f569c57506a85e35af0871b15087ced6485a95f9ded3022015eae7a9e768c5766916f5a056d9075ae18285dab6746681b961ec080e81ca39012103f1cf988013a33e053d1e9bd54c4798c1a6dc362a5b2798b5344049fca40e2db000000000", "vin": [{"txinwitness": ["3045022100fbfa2095a9e30a88428fb0ae71beded388dfc7d9f981beec8a10f0bebd91d272022036e31ec77d419b2d0c25eee8bd1247ba2a51b710f38987eb3afe144abc595fb901", "03f1cf988013a33e053d1e9bd54c4798c1a6dc362a5b2798b5344049fca40e2db0"], "sequence": 4294967295, "scriptSig": {"hex": "160014f6e1792e7852ebd5ae795c2a25d579acdfadec2d", "asm": "0014f6e1792e7852ebd5ae795c2a25d579acdfadec2d"}, "vout": 0, "txid": "c4ac1f32e149007097fabe500188ac8bbf1287f79c675cf41c92f3b45d2d7bc5"}, {"txinwitness": ["3045022100a5020d2a951e9f1ff0e1f569c57506a85e35af0871b15087ced6485a95f9ded3022015eae7a9e768c5766916f5a056d9075ae18285dab6746681b961ec080e81ca3901", "03f1cf988013a33e053d1e9bd54c4798c1a6dc362a5b2798b5344049fca40e2db0"], "sequence": 4294967295, "scriptSig": {"hex": "160014f6e1792e7852ebd5ae795c2a25d579acdfadec2d", "asm": "0014f6e1792e7852ebd5ae795c2a25d579acdfadec2d"}, "vout": 2, "txid": "c4ac1f32e149007097fabe500188ac8bbf1287f79c675cf41c92f3b45d2d7bc5"}], "txid": "2ba5e49c2d716523d7875d21a58895d26cf18c4e7fff196a77a535f840cc1508", "blocktime": 1537873282, "version": 1, "confirmations": 11484, "time": 1537873282, "locktime": 0, "vsize": 288, "size": 451}