{"hash": "2bb05b6c5329c8f78a8473c537a19a5531928964c88fcdfeff5052995a9ce4fd", "blockhash": "0000000000000000000baef3f32e3676a92c3b2e5da21b426e4f302fc371ce76", "vout": [{"scriptPubKey": {"reqSigs": 1, "hex": "76a9147d65193d06be422e3ee9ddebd7066f88a758ea3788ac", "addresses": ["1CS2aS3bFrGcUehmBXDPCrERzQdbytC8fp"], "asm": "OP_DUP OP_HASH160 7d65193d06be422e3ee9ddebd7066f88a758ea37 OP_EQUALVERIFY OP_CHECKSIG", "type": "pubkeyhash"}, "value": 0.39030063, "n": 0}, {"scriptPubKey": {"reqSigs": 1, "hex": "76a914939d96e7a77dde1ac15bd4bceb6b02fddbf9be9c88ac", "addresses": ["1ETX7i3EuMRxTD5wVMC3rtSme22gw5175y"], "asm": "OP_DUP OP_HASH160 939d96e7a77dde1ac15bd4bceb6b02fddbf9be9c OP_EQUALVERIFY OP_CHECKSIG", "type": "pubkeyhash"}, "value": 0.51657, "n": 1}], "hex": "01000000019ad615922e93b23354935415dd6fd8ae70085bd8c0c19079826b1293ac7a1695010000006b483045022100b58278396a20dec6f9cc1e50399a67d1f88032e923b720a8951b8e518d03474302204cb122f3b497f6a17eaaeba964f0d9fdf6d52911925508628a61b622b9ff4445012103350b6f086807768f408014086b6cb7c8fa1696871cd50256cd756ccdf7f35be1fdffffff022f8d5302000000001976a9147d65193d06be422e3ee9ddebd7066f88a758ea3788ac28391403000000001976a914939d96e7a77dde1ac15bd4bceb6b02fddbf9be9c88ac16490800", "vin": [{"sequence": 4294967293, "scriptSig": {"hex": "483045022100b58278396a20dec6f9cc1e50399a67d1f88032e923b720a8951b8e518d03474302204cb122f3b497f6a17eaaeba964f0d9fdf6d52911925508628a61b622b9ff4445012103350b6f086807768f408014086b6cb7c8fa1696871cd50256cd756ccdf7f35be1", "asm": "3045022100b58278396a20dec6f9cc1e50399a67d1f88032e923b720a8951b8e518d03474302204cb122f3b497f6a17eaaeba964f0d9fdf6d52911925508628a61b622b9ff4445[ALL] 03350b6f086807768f408014086b6cb7c8fa1696871cd50256cd756ccdf7f35be1"}, "vout": 1, "txid": "95167aac93126b827990c1c0d85b0870aed86fdd1554935433b2932e9215d69a"}], "txid": "2bb05b6c5329c8f78a8473c537a19a5531928964c88fcdfeff5052995a9ce4fd", "blocktime": 1537876114, "version": 1, "confirmations": 11460, "time": 1537876114, "locktime": 542998, "vsize": 226, "size": 226}