{"hash": "58dcf379a0e4409382b3ddb6927aef3bd8524524ff76b56aea6e82df5ae859a3", "blockhash": "0000000000000000001e0dab787dd257d1dbfcb92a98c2207d5e1078be1f4165", "vout": [{"scriptPubKey": {"reqSigs": 1, "hex": "0014021b886423a859ddf06cdf0219945e0020489d11", "addresses": ["bc1qqgdcsepr4pvamurvmuppn9z7qqsy38g3glyz55"], "asm": "0 021b886423a859ddf06cdf0219945e0020489d11", "type": "witness_v0_keyhash"}, "value": 0.00090837, "n": 0}, {"scriptPubKey": {"reqSigs": 1, "hex": "76a914d5c54229e0b52a9d05e60a15d99b49c3faf3adae88ac", "addresses": ["1LVKEcoptun4N3nN67eLaJtRJSuUUqfQYe"], "asm": "OP_DUP OP_HASH160 d5c54229e0b52a9d05e60a15d99b49c3faf3adae OP_EQUALVERIFY OP_CHECKSIG", "type": "pubkeyhash"}, "value": 0.0078, "n": 1}], "hex": "01000000000101e7149aa96d2b05c0b738259ab091121e8850ededdf7e5b2f2569e20384395fea0100000000ffffffff02d562010000000000160014021b886423a859ddf06cdf0219945e0020489d11e0e60b00000000001976a914d5c54229e0b52a9d05e60a15d99b49c3faf3adae88ac0247304402200ef3c71577845f0484cac41a2088e8888fad3e8d40f2d4665414f450198b45280220415da110305ead3fe8bd8c1b19cf0ed0a23d2cc89270499383281d5c5cdb10600121031d0feed6f26cc8ffdad71e726b37ba54d5d6f3587bb8092af365d7b44bd6ad6000000000", "vin": [{"txinwitness": ["304402200ef3c71577845f0484cac41a2088e8888fad3e8d40f2d4665414f450198b45280220415da110305ead3fe8bd8c1b19cf0ed0a23d2cc89270499383281d5c5cdb106001", "031d0feed6f26cc8ffdad71e726b37ba54d5d6f3587bb8092af365d7b44bd6ad60"], "sequence": 4294967295, "scriptSig": {"hex": "", "asm": ""}, "vout": 1, "txid": "ea5f398403e269252f5b7edfeded50881e1291b09a2538b7c0052b6da99a14e7"}], "txid": "2bb5094090d1538e89bcaa90e8e4b8acdb231c0513c6815dd3b57319e1f75232", "blocktime": 1537872475, "version": 1, "confirmations": 11487, "time": 1537872475, "locktime": 0, "vsize": 144, "size": 225}