{"hash": "c776c50280affb60bca453e316b8419720acd9a7170f6dbde353af4b5005caee", "blockhash": "0000000000000000001f0ddff1eddb255c1121bcd4da4f1bc9a0da00cae72433", "vout": [{"scriptPubKey": {"reqSigs": 1, "hex": "a914a76cb0b66d1be3749c6e582eb14b1af1557bf06287", "addresses": ["3GxGyWh611unAysC3ykD2hS8dgj39cmE25"], "asm": "OP_HASH160 a76cb0b66d1be3749c6e582eb14b1af1557bf062 OP_EQUAL", "type": "scripthash"}, "value": 1.02026186, "n": 0}, {"scriptPubKey": {"reqSigs": 1, "hex": "0014d0d66a5d8d86bde55ae3d3fbea93267646219000", "addresses": ["bc1q6rtx5hvds6772khr60a74yexwerzryqq7ppvwg"], "asm": "0 d0d66a5d8d86bde55ae3d3fbea93267646219000", "type": "witness_v0_keyhash"}, "value": 0.08236527, "n": 1}], "hex": "010000000001017a7fdb049c11b211620c96a9577e0cca6ef2d4c7ac4db24a9e9e76748438e30e0000000000ffffffff02cacb14060000000017a914a76cb0b66d1be3749c6e582eb14b1af1557bf06287efad7d0000000000160014d0d66a5d8d86bde55ae3d3fbea932676462190000248304502210094d2d7d5024f05b28e568987edf49c00abf2dc02a7af8d51ca93d154d1cb89d60220219fdd6803dea51e7829e49e78b9cc6db9b6dcb1df6e79fba7fc2911859fb52901210258b4cfaeb3c0848d4b59b2b79c39552ad3354e8883506d93dcb90d9d010b53a600000000", "vin": [{"txinwitness": ["304502210094d2d7d5024f05b28e568987edf49c00abf2dc02a7af8d51ca93d154d1cb89d60220219fdd6803dea51e7829e49e78b9cc6db9b6dcb1df6e79fba7fc2911859fb52901", "0258b4cfaeb3c0848d4b59b2b79c39552ad3354e8883506d93dcb90d9d010b53a6"], "sequence": 4294967295, "scriptSig": {"hex": "", "asm": ""}, "vout": 0, "txid": "0ee3388474769e9e4ab24dacc7d4f26eca0c7e57a9960c6211b2119c04db7f7a"}], "txid": "2bb5f7d98b74848303987c0c34d451ca79a709547cc1b121a959f576742ffd92", "blocktime": 1537872018, "version": 1, "confirmations": 11489, "time": 1537872018, "locktime": 0, "vsize": 142, "size": 224}