{"hash": "71d1b9df5b1cba7ac2a3d0f907516350851bd6d232b0687017230b7a58adb181", "blockhash": "0000000000000000000e13cef7c366c0283d82e591d1acd082e914b08063cdf1", "vout": [{"scriptPubKey": {"reqSigs": 1, "hex": "a914c526a9efca0284b7d647f586049081bc829a388287", "addresses": ["3KfTMk4mztn3yNbzyoy4YHEWUgyBESpbGZ"], "asm": "OP_HASH160 c526a9efca0284b7d647f586049081bc829a3882 OP_EQUAL", "type": "scripthash"}, "value": 0.0099931, "n": 0}, {"scriptPubKey": {"reqSigs": 1, "hex": "76a9142e1b944fe7ffbe969fc1df8d662fd7b5d6303c9b88ac", "addresses": ["15Co856cRnFRCKwSSzECoyT3ozVhuFoJZ6"], "asm": "OP_DUP OP_HASH160 2e1b944fe7ffbe969fc1df8d662fd7b5d6303c9b OP_EQUALVERIFY OP_CHECKSIG", "type": "pubkeyhash"}, "value": 0.0028566, "n": 1}], "hex": "020000000001027c41eb796519c663ff372c4bdc8fabb44d38f49ea4a4a011a4b0ebccc689f5b80000000017160014c0b431d4953c9b115d70a0c52beb477d04ace502feffffff96ef9639db45c1891fa44591efd730c2d5a6a031faaab201637bbdb1f41bb1951800000017160014b7c18d2c23df7a5b3e8fb221158cdbf66aeb9ea1feffffff028e3f0f000000000017a914c526a9efca0284b7d647f586049081bc829a388287dc5b0400000000001976a9142e1b944fe7ffbe969fc1df8d662fd7b5d6303c9b88ac02473044022036781127757c0509ee21b48f9eae6b96977419e6bcc6fe92a3e983c0b885a209022023f3132311c9a4262085f55d9c63daf31d7fb6f14e9d30e3eadf6be0c76552590121031fbfa1c3f582e1c921d1ec16efd20f354e6ce9e93209ac7345b997bf0dd3042d02473044022014d8270fb98fea33026fed918bb9122610b35c7a83b1fcc373a1c91f00427c00022029c227dd279babe1ef8a8dceb1835e84d7729bfbcd70f654cbb2dd1e39ffad1401210233cab45ac5fcc7b77019a5e9ac3ac9d08260a3cf259f1815639c57eed666cf0510490800", "vin": [{"txinwitness": ["3044022036781127757c0509ee21b48f9eae6b96977419e6bcc6fe92a3e983c0b885a209022023f3132311c9a4262085f55d9c63daf31d7fb6f14e9d30e3eadf6be0c765525901", "031fbfa1c3f582e1c921d1ec16efd20f354e6ce9e93209ac7345b997bf0dd3042d"], "sequence": 4294967294, "scriptSig": {"hex": "160014c0b431d4953c9b115d70a0c52beb477d04ace502", "asm": "0014c0b431d4953c9b115d70a0c52beb477d04ace502"}, "vout": 0, "txid": "b8f589c6ccebb0a411a0a4a49ef4384db4ab8fdc4b2c37ff63c6196579eb417c"}, {"txinwitness": ["3044022014d8270fb98fea33026fed918bb9122610b35c7a83b1fcc373a1c91f00427c00022029c227dd279babe1ef8a8dceb1835e84d7729bfbcd70f654cbb2dd1e39ffad1401", "0233cab45ac5fcc7b77019a5e9ac3ac9d08260a3cf259f1815639c57eed666cf05"], "sequence": 4294967294, "scriptSig": {"hex": "160014b7c18d2c23df7a5b3e8fb221158cdbf66aeb9ea1", "asm": "0014b7c18d2c23df7a5b3e8fb221158cdbf66aeb9ea1"}, "vout": 24, "txid": "95b11bf4b1bd7b6301b2aafa31a0a6d5c230d7ef9145a41f89c145db3996ef96"}], "txid": "2bb53d1984292a54f2b5347549354b6cad10a7dcc29191ec4a533f6c59ba5b6e", "blocktime": 1537871767, "version": 2, "confirmations": 11495, "time": 1537871767, "locktime": 542992, "vsize": 258, "size": 420}