{"hash": "9c059e6aa139cc174735e99918dd05c33d87b62d7d575876385625d79bb030eb", "blockhash": "00000000000000000024a2167bbff67b0be802c0b01cdd79e6331c2be6459f87", "vout": [{"scriptPubKey": {"reqSigs": 1, "hex": "a914c93de810eef98fdfd5e8aac0bcceef573d55cf8b87", "addresses": ["3L35uSYiLs8rNnoNvgjzDy26AUz1LJjz9y"], "asm": "OP_HASH160 c93de810eef98fdfd5e8aac0bcceef573d55cf8b OP_EQUAL", "type": "scripthash"}, "value": 0.00999239, "n": 0}, {"scriptPubKey": {"reqSigs": 1, "hex": "76a914f60e509beb7c5dbeaae1afa1209952f2e120742588ac", "addresses": ["1PS2NoinFTfFuAXQijLmzHnuczcXWnKhHg"], "asm": "OP_DUP OP_HASH160 f60e509beb7c5dbeaae1afa1209952f2e1207425 OP_EQUALVERIFY OP_CHECKSIG", "type": "pubkeyhash"}, "value": 0.0026286, "n": 1}], "hex": "02000000000102372a49aaf8d81a6a2bc18503a4f7a2ca6ede743a98a77d086e91f1635ccf3f150d00000017160014fd6f0067a8d4227acaaee464eb8c6acf291e3327fefffffffb4ed9d06a06194eb670ba796261f0ac119b47e4ec52e005e1c59df8e77ebef801000000171600146c06768b07f3cad3126201e3bca0d7a5078a61e8feffffff02473f0f000000000017a914c93de810eef98fdfd5e8aac0bcceef573d55cf8b87cc020400000000001976a914f60e509beb7c5dbeaae1afa1209952f2e120742588ac0247304402202173f4808fb5b84e0545dd4614e1c7732eaed6d13e8c06a8819d88795ee670ed02203d599add68a056bb74045b586b041c8abd33492f3657461241db2b7fa25f31f90121028e55037c5edc818f6ba0c08741345ba4b6ca6db267a4dead8ee4af178f5f47670247304402203e343cdd8a733d696610ec12cc1f984d79274b3e0a47202070b9bf0cd40c37f7022002ecbc46ef0fb54c8d263bd15bebc21cb0fd3fe314f91d7ecc895b243af2b2d0012102d0c0448c7971743dfe49095aa2a6955d395e03141f25b8b962c2cf1baa47be310d490800", "vin": [{"txinwitness": ["304402202173f4808fb5b84e0545dd4614e1c7732eaed6d13e8c06a8819d88795ee670ed02203d599add68a056bb74045b586b041c8abd33492f3657461241db2b7fa25f31f901", "028e55037c5edc818f6ba0c08741345ba4b6ca6db267a4dead8ee4af178f5f4767"], "sequence": 4294967294, "scriptSig": {"hex": "160014fd6f0067a8d4227acaaee464eb8c6acf291e3327", "asm": "0014fd6f0067a8d4227acaaee464eb8c6acf291e3327"}, "vout": 13, "txid": "153fcf5c63f1916e087da7983a74de6ecaa2f7a40385c12b6a1ad8f8aa492a37"}, {"txinwitness": ["304402203e343cdd8a733d696610ec12cc1f984d79274b3e0a47202070b9bf0cd40c37f7022002ecbc46ef0fb54c8d263bd15bebc21cb0fd3fe314f91d7ecc895b243af2b2d001", "02d0c0448c7971743dfe49095aa2a6955d395e03141f25b8b962c2cf1baa47be31"], "sequence": 4294967294, "scriptSig": {"hex": "1600146c06768b07f3cad3126201e3bca0d7a5078a61e8", "asm": "00146c06768b07f3cad3126201e3bca0d7a5078a61e8"}, "vout": 1, "txid": "f8be7ee7f89dc5e105e052ece4479b11acf0616279ba70b64e19066ad0d94efb"}], "txid": "2bb7c5350bfa413e9dab7b6bf479b6ccd3eff2cbe4f6a96dec64e8aa378d1fa4", "blocktime": 1537870564, "version": 2, "confirmations": 11515, "time": 1537870564, "locktime": 542989, "vsize": 258, "size": 420}