{"hash": "a48d0710b7bc82c0b317121c546db50166622d9b7e4c3c0513935d1a006ff7c1", "blockhash": "0000000000000000000baef3f32e3676a92c3b2e5da21b426e4f302fc371ce76", "vout": [{"scriptPubKey": {"reqSigs": 1, "hex": "a91430897cc6c9d69f6a2c2f1c651d51f22219f1a4f687", "addresses": ["367f4YWz1VCFaqBqwbTrzwi2b1h2U3w1AF"], "asm": "OP_HASH160 30897cc6c9d69f6a2c2f1c651d51f22219f1a4f6 OP_EQUAL", "type": "scripthash"}, "value": 0.00750819, "n": 0}, {"scriptPubKey": {"reqSigs": 1, "hex": "a91469f3757a9175dbf1db84ed5b2bf4205fc2a2f2e187", "addresses": ["3BMEXWMj7d7P6y4KCFgbVKk4jAmqgbThGQ"], "asm": "OP_HASH160 69f3757a9175dbf1db84ed5b2bf4205fc2a2f2e1 OP_EQUAL", "type": "scripthash"}, "value": 0.01598145, "n": 1}], "hex": "01000000000101538de467b4b9bb15fc4367cf4cde9826bfba46d8fa0ff25a1d1d4a587f2b006f0000000023220020bcf9f822194145acea0f3235f4107b5bf1a91b6b9f8489f63bf79ec29b360913ffffffff02e3740b000000000017a91430897cc6c9d69f6a2c2f1c651d51f22219f1a4f687c16218000000000017a91469f3757a9175dbf1db84ed5b2bf4205fc2a2f2e187040047304402204d56517d62aa0515be421b402582d05aa8f424536e85deac0c5c79da8ac69459022073ef14835aaf642401565eb7f4bb19c903c691288b865fe67634e167e2858e440147304402200dc8a5f93696cf3ea2ac0adeeeedc3b45d8c6878ec8996cf3a93b6f3d02c0979022050f4d60e6fabd58befa5d72b6034de8219f4d6ce9141748e9affb8df38faae7301695221026c8f72b9e63db63907115e65d4da86eaae595b22fdc85ec75301bb4adbf203582103806535be3e3920e5eedee92de5714188fd6a784f2bf7b04f87de0b9c3ae1ecdb21024b23bfdce2afcae7e28c42f7f79aa100f22931712c52d7414a526ba494d44a2553ae00000000", "vin": [{"txinwitness": ["", "304402204d56517d62aa0515be421b402582d05aa8f424536e85deac0c5c79da8ac69459022073ef14835aaf642401565eb7f4bb19c903c691288b865fe67634e167e2858e4401", "304402200dc8a5f93696cf3ea2ac0adeeeedc3b45d8c6878ec8996cf3a93b6f3d02c0979022050f4d60e6fabd58befa5d72b6034de8219f4d6ce9141748e9affb8df38faae7301", "5221026c8f72b9e63db63907115e65d4da86eaae595b22fdc85ec75301bb4adbf203582103806535be3e3920e5eedee92de5714188fd6a784f2bf7b04f87de0b9c3ae1ecdb21024b23bfdce2afcae7e28c42f7f79aa100f22931712c52d7414a526ba494d44a2553ae"], "sequence": 4294967295, "scriptSig": {"hex": "220020bcf9f822194145acea0f3235f4107b5bf1a91b6b9f8489f63bf79ec29b360913", "asm": "0020bcf9f822194145acea0f3235f4107b5bf1a91b6b9f8489f63bf79ec29b360913"}, "vout": 0, "txid": "6f002b7f584a1d1d5af20ffad846babf2698de4ccf6743fc15bbb9b467e48d53"}], "txid": "2bbca0e4a1360a46231fc18a3d5915c6d479faf9620643d0b90f1c5e9ac32225", "blocktime": 1537876114, "version": 1, "confirmations": 11460, "time": 1537876114, "locktime": 0, "vsize": 214, "size": 404}