{"hash": "2bc0103f7f9ce98499f651241d63bc2ba85b7eab3bbbdc1691df6f805d9e4ca9", "blockhash": "0000000000000000001f76057863aec43deb6fa401d9628bb513d65a8098bfab", "vout": [{"scriptPubKey": {"reqSigs": 1, "hex": "a914fb68fc52d4a6205ade7e7e74c171ae6145baa0c287", "addresses": ["3QcMJDuJckbSDbNeWQWYMQkmN58yRAYRt2"], "asm": "OP_HASH160 fb68fc52d4a6205ade7e7e74c171ae6145baa0c2 OP_EQUAL", "type": "scripthash"}, "value": 0.114336, "n": 0}], "hex": "0100000001f5325700388aa693daa5027d4a16e3a5f6eaa08071068b28f08b622f03141991010000006a473044022023f79ecbda1382b855a8c282366d7617798ad9670677069c86270cd317d427f20220770617e6699ec93efa0588a101c3a71ef529f2c758f28ae3d7379cd8178f9cc6012103ef47d2b5deb1bc92e6cf53f1a9b7923648a1f1304c03d72fc05f7bdc882044e7ffffffff018076ae000000000017a914fb68fc52d4a6205ade7e7e74c171ae6145baa0c28700000000", "vin": [{"sequence": 4294967295, "scriptSig": {"hex": "473044022023f79ecbda1382b855a8c282366d7617798ad9670677069c86270cd317d427f20220770617e6699ec93efa0588a101c3a71ef529f2c758f28ae3d7379cd8178f9cc6012103ef47d2b5deb1bc92e6cf53f1a9b7923648a1f1304c03d72fc05f7bdc882044e7", "asm": "3044022023f79ecbda1382b855a8c282366d7617798ad9670677069c86270cd317d427f20220770617e6699ec93efa0588a101c3a71ef529f2c758f28ae3d7379cd8178f9cc6[ALL] 03ef47d2b5deb1bc92e6cf53f1a9b7923648a1f1304c03d72fc05f7bdc882044e7"}, "vout": 1, "txid": "911914032f628bf0288b067180a0eaf6a5e3164a7d02a5da93a68a38005732f5"}], "txid": "2bc0103f7f9ce98499f651241d63bc2ba85b7eab3bbbdc1691df6f805d9e4ca9", "blocktime": 1537873891, "version": 1, "confirmations": 11474, "time": 1537873891, "locktime": 0, "vsize": 189, "size": 189}