{"hash": "2bc686e72fad617dfb00c38b91c1ac9d4913c06a95815b3fddf1afa81eaaa585", "blockhash": "0000000000000000000baef3f32e3676a92c3b2e5da21b426e4f302fc371ce76", "vout": [{"scriptPubKey": {"reqSigs": 1, "hex": "76a91470f4b0f419c469235e336c2eac21fcac2685063488ac", "addresses": ["1BJFovuLx1Yti6PcLzvsiDa59K2CZZgK7w"], "asm": "OP_DUP OP_HASH160 70f4b0f419c469235e336c2eac21fcac26850634 OP_EQUALVERIFY OP_CHECKSIG", "type": "pubkeyhash"}, "value": 0.05929091, "n": 0}, {"scriptPubKey": {"reqSigs": 1, "hex": "a914e411b84dd15122c48f8661fb8e0809ed79965d4187", "addresses": ["3NUwDV2BAqmkbCwA1D84GceBVGTmVDFyo3"], "asm": "OP_HASH160 e411b84dd15122c48f8661fb8e0809ed79965d41 OP_EQUAL", "type": "scripthash"}, "value": 0.15666811, "n": 1}], "hex": "01000000037390c6b36836142352ca03e4d71b632a70675a232bfd9f8491026eecc6e0d33d000000006a47304402203760894c313e70b5efecd6e7775d61ec0505acde15bb6f55be03f6bc28830fa40220775ced6751a0674f2bf2d9dcfcee137db95f4914af62c0de8af44c49d8963e82012103cb05c14d64589977bff903a58f8d7b48a78cbd7afe08fd8704a52d57bd5718f9ffffffff29bc65aa100d09173942278fef814e6714fcb85865f9f347f01dd83c630623b1000000006b4830450221008369c9b205be0e92866dfb1e1276b2fcd7514aa41f3f859c93b70acbdc9b30580220438998355d0f50729373ecfe2cc5a00474391b682e7c7abf3df63122ad81a3c1012102cebe7423046d102071c0924ef4ec5a4b42484222dc01f5471fe221ea45203d68ffffffffdb83dada62092dcc5c161bc102840bfc638e07bd226122677c96e41dbcbf7ec60d0000006a47304402203b6519e908b5cc86ff09683877356d1bd3d34077e8d061c07d7355e24be24d2c02204a5a52185dfa892292b656fdd2f4ac09e3ecfea2437ec9632bd48ee2fca6d5b00121034f8a2661d65593472409034fac67b534f563a54f5db9caeb5c30287002ff845bffffffff0283785a00000000001976a91470f4b0f419c469235e336c2eac21fcac2685063488ac7b0eef000000000017a914e411b84dd15122c48f8661fb8e0809ed79965d418700000000", "vin": [{"sequence": 4294967295, "scriptSig": {"hex": "47304402203760894c313e70b5efecd6e7775d61ec0505acde15bb6f55be03f6bc28830fa40220775ced6751a0674f2bf2d9dcfcee137db95f4914af62c0de8af44c49d8963e82012103cb05c14d64589977bff903a58f8d7b48a78cbd7afe08fd8704a52d57bd5718f9", "asm": "304402203760894c313e70b5efecd6e7775d61ec0505acde15bb6f55be03f6bc28830fa40220775ced6751a0674f2bf2d9dcfcee137db95f4914af62c0de8af44c49d8963e82[ALL] 03cb05c14d64589977bff903a58f8d7b48a78cbd7afe08fd8704a52d57bd5718f9"}, "vout": 0, "txid": "3dd3e0c6ec6e0291849ffd2b235a67702a631bd7e403ca5223143668b3c69073"}, {"sequence": 4294967295, "scriptSig": {"hex": "4830450221008369c9b205be0e92866dfb1e1276b2fcd7514aa41f3f859c93b70acbdc9b30580220438998355d0f50729373ecfe2cc5a00474391b682e7c7abf3df63122ad81a3c1012102cebe7423046d102071c0924ef4ec5a4b42484222dc01f5471fe221ea45203d68", "asm": "30450221008369c9b205be0e92866dfb1e1276b2fcd7514aa41f3f859c93b70acbdc9b30580220438998355d0f50729373ecfe2cc5a00474391b682e7c7abf3df63122ad81a3c1[ALL] 02cebe7423046d102071c0924ef4ec5a4b42484222dc01f5471fe221ea45203d68"}, "vout": 0, "txid": "b12306633cd81df047f3f96558b8fc14674e81ef8f27423917090d10aa65bc29"}, {"sequence": 4294967295, "scriptSig": {"hex": "47304402203b6519e908b5cc86ff09683877356d1bd3d34077e8d061c07d7355e24be24d2c02204a5a52185dfa892292b656fdd2f4ac09e3ecfea2437ec9632bd48ee2fca6d5b00121034f8a2661d65593472409034fac67b534f563a54f5db9caeb5c30287002ff845b", "asm": "304402203b6519e908b5cc86ff09683877356d1bd3d34077e8d061c07d7355e24be24d2c02204a5a52185dfa892292b656fdd2f4ac09e3ecfea2437ec9632bd48ee2fca6d5b0[ALL] 034f8a2661d65593472409034fac67b534f563a54f5db9caeb5c30287002ff845b"}, "vout": 13, "txid": "c67ebfbc1de4967c67226122bd078e63fc0b8402c11b165ccc2d0962dada83db"}], "txid": "2bc686e72fad617dfb00c38b91c1ac9d4913c06a95815b3fddf1afa81eaaa585", "blocktime": 1537876114, "version": 1, "confirmations": 11460, "time": 1537876114, "locktime": 0, "vsize": 518, "size": 518}