{"hash": "3cc9a3a801ea81344d5ec8913f8c505872656fd4dea57bbc37cf4137eb82c39d", "blockhash": "0000000000000000001cda96e906b7601b7a6fb1a3b62bca570a9e5d8f4b3de1", "vout": [{"scriptPubKey": {"reqSigs": 1, "hex": "00147799d801f8f417457f65169b959cf82c608c9c27", "addresses": ["bc1qw7vasq0c7st52lm9z6det88c93sge8p87guytk"], "asm": "0 7799d801f8f417457f65169b959cf82c608c9c27", "type": "witness_v0_keyhash"}, "value": 0.45925738, "n": 0}, {"scriptPubKey": {"reqSigs": 1, "hex": "76a914ee1d478c9f836f16fc31f91180b64d2384d131a788ac", "addresses": ["1Ni2u2ki7ZPHzPrDpxo8FiVqDTArj1Z3ED"], "asm": "OP_DUP OP_HASH160 ee1d478c9f836f16fc31f91180b64d2384d131a7 OP_EQUALVERIFY OP_CHECKSIG", "type": "pubkeyhash"}, "value": 0.01, "n": 1}], "hex": "0100000000010135fcda44bd0ef7e410edcc8b523f8b3366ba79a0f07b7a63d532cebca2cbef99000000001716001458b2151625006c4e5d9c08348861499dc138afbfffffffff026ac5bc02000000001600147799d801f8f417457f65169b959cf82c608c9c2740420f00000000001976a914ee1d478c9f836f16fc31f91180b64d2384d131a788ac02473044022026be512a5d8c2b9514329d0e2b4f9ecdebc568cbf109f37a5341eaa6814241690220415bd4ec7f92e8b9c12950ebf90d6786f9a9a7714e0866012ded7b8858cfd811012103e303b66cd81c1333b851b7a4d7f8dc25ce971dcf492817962a9c74b2646a5d0400000000", "vin": [{"txinwitness": ["3044022026be512a5d8c2b9514329d0e2b4f9ecdebc568cbf109f37a5341eaa6814241690220415bd4ec7f92e8b9c12950ebf90d6786f9a9a7714e0866012ded7b8858cfd81101", "03e303b66cd81c1333b851b7a4d7f8dc25ce971dcf492817962a9c74b2646a5d04"], "sequence": 4294967295, "scriptSig": {"hex": "16001458b2151625006c4e5d9c08348861499dc138afbf", "asm": "001458b2151625006c4e5d9c08348861499dc138afbf"}, "vout": 0, "txid": "99efcba2bcce32d5637a7bf0a079ba66338b3f528bcced10e4f70ebd44dafc35"}], "txid": "2bc84a0a35553c2ffce1ec243707aea8b578484a071d0041a4774f961cefd83e", "blocktime": 1537873282, "version": 1, "confirmations": 11481, "time": 1537873282, "locktime": 0, "vsize": 167, "size": 248}