{"hash": "2bca71f43494011fc01041489ff2ec747356a25b57f29dbf4c498ba29bb48bbe", "blockhash": "00000000000000000024a2167bbff67b0be802c0b01cdd79e6331c2be6459f87", "vout": [{"scriptPubKey": {"reqSigs": 1, "hex": "76a914a24b979a22dde96b95867ac66d4d559ee863f39a88ac", "addresses": ["1Fo92KEWmmGrMswFEgiW8NyfrFNbYGH7AD"], "asm": "OP_DUP OP_HASH160 a24b979a22dde96b95867ac66d4d559ee863f39a OP_EQUALVERIFY OP_CHECKSIG", "type": "pubkeyhash"}, "value": 0.01078321, "n": 0}, {"scriptPubKey": {"reqSigs": 1, "hex": "76a914f0040f6516cd8b04f84be08be995ae6c827afda588ac", "addresses": ["1Nt639GQwv42UgsTb2wopLzTZUWfDwVr2t"], "asm": "OP_DUP OP_HASH160 f0040f6516cd8b04f84be08be995ae6c827afda5 OP_EQUALVERIFY OP_CHECKSIG", "type": "pubkeyhash"}, "value": 0.01101535, "n": 1}], "hex": "0100000001f0a94ad50ea4dbf4df36673b7dc1f34212396fc39e82054973ed703cb6bb3afc000000006a47304402202cd4ec6198fd4eb440e3a73cddee6746083c85371e99f6fe6abd0c223fcd2e730220273c85a8131b5c1d803825c53dbd0f8a6631de8d35f8d3db9554e91de3b6344b012102cf4bf57dd92a1de147fce139d759dae22ac1b3ef5a8843ae3d886da44295685bffffffff0231741000000000001976a914a24b979a22dde96b95867ac66d4d559ee863f39a88acdfce1000000000001976a914f0040f6516cd8b04f84be08be995ae6c827afda588ac00000000", "vin": [{"sequence": 4294967295, "scriptSig": {"hex": "47304402202cd4ec6198fd4eb440e3a73cddee6746083c85371e99f6fe6abd0c223fcd2e730220273c85a8131b5c1d803825c53dbd0f8a6631de8d35f8d3db9554e91de3b6344b012102cf4bf57dd92a1de147fce139d759dae22ac1b3ef5a8843ae3d886da44295685b", "asm": "304402202cd4ec6198fd4eb440e3a73cddee6746083c85371e99f6fe6abd0c223fcd2e730220273c85a8131b5c1d803825c53dbd0f8a6631de8d35f8d3db9554e91de3b6344b[ALL] 02cf4bf57dd92a1de147fce139d759dae22ac1b3ef5a8843ae3d886da44295685b"}, "vout": 0, "txid": "fc3abbb63c70ed734905829ec36f391242f3c17d3b6736dff4dba40ed54aa9f0"}], "txid": "2bca71f43494011fc01041489ff2ec747356a25b57f29dbf4c498ba29bb48bbe", "blocktime": 1537870564, "version": 1, "confirmations": 11515, "time": 1537870564, "locktime": 0, "vsize": 225, "size": 225}