{"hash": "2bcfc4ffbd257df650af2a3e25a6af4596fdce9ee690a99a31ec60ecfb941bbc", "blockhash": "00000000000000000004ffacab907a6b429b9a5745fa0b75af4234bf69dd7176", "vout": [{"scriptPubKey": {"reqSigs": 1, "hex": "76a914562891d86feae2ca93afb6e019f831bf2f933e9c88ac", "addresses": ["18rZiL9oS6bLf6UvyXowfpFhFT222fdEMV"], "asm": "OP_DUP OP_HASH160 562891d86feae2ca93afb6e019f831bf2f933e9c OP_EQUALVERIFY OP_CHECKSIG", "type": "pubkeyhash"}, "value": 4.881e-05, "n": 0}, {"scriptPubKey": {"reqSigs": 1, "hex": "a914c4b38303f075c4246f4e67b798b871412c49ecc787", "addresses": ["3Kd5QqeaH1meQJusqKcA9aAVR9fgnGcf4D"], "asm": "OP_HASH160 c4b38303f075c4246f4e67b798b871412c49ecc7 OP_EQUAL", "type": "scripthash"}, "value": 0.00375262, "n": 1}], "hex": "01000000052719ad73d5b763e6cdd2333b3e90dd736655cf0371c08b2c76c50f7e5904a618000000006b483045022100c288f802b34f5ab79b946ebdf884f6a98bf569f9eef87a315ca51730fb4703b902200ea4eddbcf40a5968e377b04065c9bd3217f9ec038b381c7e81eb321819072150121034082173b0b5713e08471e9e5dc972096be3b167727928cd4b78c2e61f3dcbc58ffffffff6fea0aa087a7954cfd334274f4cc9ae40abbf4e60f09dfb1a900bcc89c3bf066000000006b483045022100b26cb7c17a6317a10e302689334c6ba6f8e6925529e633627f1293a34df2066902202b2524b0289f3f57993691785dc1ecad9fc2f7d4337d087351f4042089c93ae5012103736ba26c05a31700d5b8ce8964c12ff0c2362159bbe34dbcf5155e7cad73a3ceffffffff04b267cb770c9f835da5d6d9bc24eaab7e21c817d5616a5b0b750107ddaa046f000000006a4730440220080ca6e19a69da9fe56496d7d835f830986ff8f77c014808005be7e9ddaae6bd022074cf3ea1704490645b0a1c973cadf7ed37dea7222ced4676c53e02472eb70cac01210266413771a962292837b1a49c9ba533491c6d48717cd7087bb2b842b0d84cbb63ffffffffe06d581f0764f6f36d8597a64316a53007736ac2a31ec9248b7477057237b7b5000000006b483045022100862432b1d9b8d9e605034a5bbb8f1802057208385f066439029d00301f2fb00d02205e0c1715c2192dc4308423ac639b9b3c94073791ee090553bcf9a75c295229df01210230dd52bd149827545a1cb936a5b679888e52c4074e059baffce42b1be884ac97ffffffffa650ae02a72d8cc95751e8fd23dccdc2d0991c53db604e9298d77eab294075f3000000006a47304402205aa534b860c31d4f3b85295cb09fc4a32ccfa39cef3e1f026b38046e3f89242202200089be2fd228eb90629a55dd3c0bf3b764e45ac62a652ec87e4656d18f80b0ab0121030457b05212040eb7337736bbaf975e19846af6a76aa3d4db28b585af92bf84cbffffffff0211130000000000001976a914562891d86feae2ca93afb6e019f831bf2f933e9c88acdeb905000000000017a914c4b38303f075c4246f4e67b798b871412c49ecc78700000000", "vin": [{"sequence": 4294967295, "scriptSig": {"hex": "483045022100c288f802b34f5ab79b946ebdf884f6a98bf569f9eef87a315ca51730fb4703b902200ea4eddbcf40a5968e377b04065c9bd3217f9ec038b381c7e81eb321819072150121034082173b0b5713e08471e9e5dc972096be3b167727928cd4b78c2e61f3dcbc58", "asm": "3045022100c288f802b34f5ab79b946ebdf884f6a98bf569f9eef87a315ca51730fb4703b902200ea4eddbcf40a5968e377b04065c9bd3217f9ec038b381c7e81eb32181907215[ALL] 034082173b0b5713e08471e9e5dc972096be3b167727928cd4b78c2e61f3dcbc58"}, "vout": 0, "txid": "18a604597e0fc5762c8bc07103cf556673dd903e3b33d2cde663b7d573ad1927"}, {"sequence": 4294967295, "scriptSig": {"hex": "483045022100b26cb7c17a6317a10e302689334c6ba6f8e6925529e633627f1293a34df2066902202b2524b0289f3f57993691785dc1ecad9fc2f7d4337d087351f4042089c93ae5012103736ba26c05a31700d5b8ce8964c12ff0c2362159bbe34dbcf5155e7cad73a3ce", "asm": "3045022100b26cb7c17a6317a10e302689334c6ba6f8e6925529e633627f1293a34df2066902202b2524b0289f3f57993691785dc1ecad9fc2f7d4337d087351f4042089c93ae5[ALL] 03736ba26c05a31700d5b8ce8964c12ff0c2362159bbe34dbcf5155e7cad73a3ce"}, "vout": 0, "txid": "66f03b9cc8bc00a9b1df090fe6f4bb0ae49accf4744233fd4c95a787a00aea6f"}, {"sequence": 4294967295, "scriptSig": {"hex": "4730440220080ca6e19a69da9fe56496d7d835f830986ff8f77c014808005be7e9ddaae6bd022074cf3ea1704490645b0a1c973cadf7ed37dea7222ced4676c53e02472eb70cac01210266413771a962292837b1a49c9ba533491c6d48717cd7087bb2b842b0d84cbb63", "asm": "30440220080ca6e19a69da9fe56496d7d835f830986ff8f77c014808005be7e9ddaae6bd022074cf3ea1704490645b0a1c973cadf7ed37dea7222ced4676c53e02472eb70cac[ALL] 0266413771a962292837b1a49c9ba533491c6d48717cd7087bb2b842b0d84cbb63"}, "vout": 0, "txid": "6f04aadd0701750b5b6a61d517c8217eabea24bcd9d6a55d839f0c77cb67b204"}, {"sequence": 4294967295, "scriptSig": {"hex": "483045022100862432b1d9b8d9e605034a5bbb8f1802057208385f066439029d00301f2fb00d02205e0c1715c2192dc4308423ac639b9b3c94073791ee090553bcf9a75c295229df01210230dd52bd149827545a1cb936a5b679888e52c4074e059baffce42b1be884ac97", "asm": "3045022100862432b1d9b8d9e605034a5bbb8f1802057208385f066439029d00301f2fb00d02205e0c1715c2192dc4308423ac639b9b3c94073791ee090553bcf9a75c295229df[ALL] 0230dd52bd149827545a1cb936a5b679888e52c4074e059baffce42b1be884ac97"}, "vout": 0, "txid": "b5b737720577748b24c91ea3c26a730730a51643a697856df3f664071f586de0"}, {"sequence": 4294967295, "scriptSig": {"hex": "47304402205aa534b860c31d4f3b85295cb09fc4a32ccfa39cef3e1f026b38046e3f89242202200089be2fd228eb90629a55dd3c0bf3b764e45ac62a652ec87e4656d18f80b0ab0121030457b05212040eb7337736bbaf975e19846af6a76aa3d4db28b585af92bf84cb", "asm": "304402205aa534b860c31d4f3b85295cb09fc4a32ccfa39cef3e1f026b38046e3f89242202200089be2fd228eb90629a55dd3c0bf3b764e45ac62a652ec87e4656d18f80b0ab[ALL] 030457b05212040eb7337736bbaf975e19846af6a76aa3d4db28b585af92bf84cb"}, "vout": 0, "txid": "f3754029ab7ed798924e60db531c99d0c2cddc23fde85157c98c2da702ae50a6"}], "txid": "2bcfc4ffbd257df650af2a3e25a6af4596fdce9ee690a99a31ec60ecfb941bbc", "blocktime": 1537875543, "version": 1, "confirmations": 11464, "time": 1537875543, "locktime": 0, "vsize": 814, "size": 814}