{"hash": "2bd06481aa42467939a78ba2f4ced6e7a3d4105d60581a0516ad9d8a28042c0a", "blockhash": "0000000000000000000e13cef7c366c0283d82e591d1acd082e914b08063cdf1", "vout": [{"scriptPubKey": {"reqSigs": 1, "hex": "76a914e7c8f2dd2154e07aca6fb81f0e877fd0ef95ce5e88ac", "addresses": ["1N8ZpUPzFXUruJRAPBLpcdiAAruubCUxeX"], "asm": "OP_DUP OP_HASH160 e7c8f2dd2154e07aca6fb81f0e877fd0ef95ce5e OP_EQUALVERIFY OP_CHECKSIG", "type": "pubkeyhash"}, "value": 7.563e-05, "n": 0}, {"scriptPubKey": {"reqSigs": 1, "hex": "76a91481531d656e45cdcfbc36723b645ccc67cfc852df88ac", "addresses": ["1CnojfcMSRbaamPxjXxVfYRSADM5LXjVL4"], "asm": "OP_DUP OP_HASH160 81531d656e45cdcfbc36723b645ccc67cfc852df OP_EQUALVERIFY OP_CHECKSIG", "type": "pubkeyhash"}, "value": 0.04705616, "n": 1}], "hex": "01000000083cee1888eff70013a9064ce977dfd153adee34dc8600b0b4c7c88b8cf10ed717000000006b483045022100effbc79946c9ffd669cab512ed887df72a096eeb682d05e20af04b03c6c6825e02200326c3b6fe58f800cbccd483784581a09afe9fdbddab03a9da2b73035cfb454b01210202850fc8ca0c1b1a0d3a962969529ac69d4f5037652c26395b26f861d0aac076ffffffff3c4b841cd829583024736331f8792964b5fe0b2e68a8b2d8b8aff12d6a0e605a000000006a473044022002f371599209fa93da8fd78c5eda11098cfe7bd196abb28d6b37575377ae371502206dc9dc9a8f489e6eb2f6ce9329d284b4a116e61e788b91116a89dde6c41e26cd01210202850fc8ca0c1b1a0d3a962969529ac69d4f5037652c26395b26f861d0aac076ffffffff2a2886d0e07914f6a7ebdbce070cd96e362e695ea434226abd35dbddca941f70000000006a47304402206daacadd5fd97358d1822f1cce450fd71b03522ca0582a181cf8d64c68314d4702202ead0da906ae677ad971d1924d35784271af0555b42aaa9bdc165167723d44e001210202850fc8ca0c1b1a0d3a962969529ac69d4f5037652c26395b26f861d0aac076ffffffff16080ef2d5bb28f6a086442318b2c2be9845e630862b19df5f1311e7812b7888000000006a47304402202ae4370295667b1868c66e92b774f845fd3ede57d1df795017acb06cc750cdfa0220600fcf7b46460e79754d1df5d9c9c3fc967f97b470956a04d58530669413938001210202850fc8ca0c1b1a0d3a962969529ac69d4f5037652c26395b26f861d0aac076ffffffff288c617616a1f840218b68a5427cac693c4116939912fb024ea4d7d9fa06edc3000000006a47304402206fdfd56fa4e938023319e25a16ce12135279840e09c85bf4553b64fb1bc281ed02205cda86a612cec6165c2846d15f27add2c7fc1c690becaef0f936292318d6ef7b01210202850fc8ca0c1b1a0d3a962969529ac69d4f5037652c26395b26f861d0aac076ffffffffcd28149650fbeef812af2c861623f4515681fdce1fe1d8a4d9d83a06dd8693cb000000006b483045022100d418ee8ad55604f46bdb69390d31a74e2ac8ae543612ea7ba8c2c4d053ab890302207306d69d0e399cb2f627fa0ad80b8dd592c9e77f0bafb2c112d83164f9e448d60121020597b25e2d75687b5d0efb1ce296a1c1a13ebe82a15c433178b9989712a73ae0ffffffffa267b44ec91353af4b6f1ea17190a0d82579ac159dbe7d447bca08c3bf2b06e7000000006a4730440220140e1f22049738a1e000e5f6a64a61eca896a975863349a4ac00ac761a9759dd022065e372dada3a3648dd855e15224aa039ff60037b920bf5a304ae82e75196f353012103ce11051f3117e4b3757d12fabab3f71be218807e9a82f9cdfe2a2306250ec535ffffffff04cc09f425493c58a5b26c60c31b85b103152e6329e100cc06a541b9bc2f75f0000000006b483045022100820540796fdabecd65d4fb1a58ebb44e97d4147152c9149addb40e3de74564af02205c725071b4371ed1f541dfc9de513a51a7eb73a7bf31404d638523f4d1a0a11201210202850fc8ca0c1b1a0d3a962969529ac69d4f5037652c26395b26f861d0aac076ffffffff028b1d0000000000001976a914e7c8f2dd2154e07aca6fb81f0e877fd0ef95ce5e88ac50cd4700000000001976a91481531d656e45cdcfbc36723b645ccc67cfc852df88ac00000000", "vin": [{"sequence": 4294967295, "scriptSig": {"hex": "483045022100effbc79946c9ffd669cab512ed887df72a096eeb682d05e20af04b03c6c6825e02200326c3b6fe58f800cbccd483784581a09afe9fdbddab03a9da2b73035cfb454b01210202850fc8ca0c1b1a0d3a962969529ac69d4f5037652c26395b26f861d0aac076", "asm": "3045022100effbc79946c9ffd669cab512ed887df72a096eeb682d05e20af04b03c6c6825e02200326c3b6fe58f800cbccd483784581a09afe9fdbddab03a9da2b73035cfb454b[ALL] 0202850fc8ca0c1b1a0d3a962969529ac69d4f5037652c26395b26f861d0aac076"}, "vout": 0, "txid": "17d70ef18c8bc8c7b4b00086dc34eead53d1df77e94c06a91300f7ef8818ee3c"}, {"sequence": 4294967295, "scriptSig": {"hex": "473044022002f371599209fa93da8fd78c5eda11098cfe7bd196abb28d6b37575377ae371502206dc9dc9a8f489e6eb2f6ce9329d284b4a116e61e788b91116a89dde6c41e26cd01210202850fc8ca0c1b1a0d3a962969529ac69d4f5037652c26395b26f861d0aac076", "asm": "3044022002f371599209fa93da8fd78c5eda11098cfe7bd196abb28d6b37575377ae371502206dc9dc9a8f489e6eb2f6ce9329d284b4a116e61e788b91116a89dde6c41e26cd[ALL] 0202850fc8ca0c1b1a0d3a962969529ac69d4f5037652c26395b26f861d0aac076"}, "vout": 0, "txid": "5a600e6a2df1afb8d8b2a8682e0bfeb5642979f831637324305829d81c844b3c"}, {"sequence": 4294967295, "scriptSig": {"hex": "47304402206daacadd5fd97358d1822f1cce450fd71b03522ca0582a181cf8d64c68314d4702202ead0da906ae677ad971d1924d35784271af0555b42aaa9bdc165167723d44e001210202850fc8ca0c1b1a0d3a962969529ac69d4f5037652c26395b26f861d0aac076", "asm": "304402206daacadd5fd97358d1822f1cce450fd71b03522ca0582a181cf8d64c68314d4702202ead0da906ae677ad971d1924d35784271af0555b42aaa9bdc165167723d44e0[ALL] 0202850fc8ca0c1b1a0d3a962969529ac69d4f5037652c26395b26f861d0aac076"}, "vout": 0, "txid": "701f94cadddb35bd6a2234a45e692e366ed90c07cedbeba7f61479e0d086282a"}, {"sequence": 4294967295, "scriptSig": {"hex": "47304402202ae4370295667b1868c66e92b774f845fd3ede57d1df795017acb06cc750cdfa0220600fcf7b46460e79754d1df5d9c9c3fc967f97b470956a04d58530669413938001210202850fc8ca0c1b1a0d3a962969529ac69d4f5037652c26395b26f861d0aac076", "asm": "304402202ae4370295667b1868c66e92b774f845fd3ede57d1df795017acb06cc750cdfa0220600fcf7b46460e79754d1df5d9c9c3fc967f97b470956a04d585306694139380[ALL] 0202850fc8ca0c1b1a0d3a962969529ac69d4f5037652c26395b26f861d0aac076"}, "vout": 0, "txid": "88782b81e711135fdf192b8630e64598bec2b218234486a0f628bbd5f20e0816"}, {"sequence": 4294967295, "scriptSig": {"hex": "47304402206fdfd56fa4e938023319e25a16ce12135279840e09c85bf4553b64fb1bc281ed02205cda86a612cec6165c2846d15f27add2c7fc1c690becaef0f936292318d6ef7b01210202850fc8ca0c1b1a0d3a962969529ac69d4f5037652c26395b26f861d0aac076", "asm": "304402206fdfd56fa4e938023319e25a16ce12135279840e09c85bf4553b64fb1bc281ed02205cda86a612cec6165c2846d15f27add2c7fc1c690becaef0f936292318d6ef7b[ALL] 0202850fc8ca0c1b1a0d3a962969529ac69d4f5037652c26395b26f861d0aac076"}, "vout": 0, "txid": "c3ed06fad9d7a44e02fb12999316413c69ac7c42a5688b2140f8a11676618c28"}, {"sequence": 4294967295, "scriptSig": {"hex": "483045022100d418ee8ad55604f46bdb69390d31a74e2ac8ae543612ea7ba8c2c4d053ab890302207306d69d0e399cb2f627fa0ad80b8dd592c9e77f0bafb2c112d83164f9e448d60121020597b25e2d75687b5d0efb1ce296a1c1a13ebe82a15c433178b9989712a73ae0", "asm": "3045022100d418ee8ad55604f46bdb69390d31a74e2ac8ae543612ea7ba8c2c4d053ab890302207306d69d0e399cb2f627fa0ad80b8dd592c9e77f0bafb2c112d83164f9e448d6[ALL] 020597b25e2d75687b5d0efb1ce296a1c1a13ebe82a15c433178b9989712a73ae0"}, "vout": 0, "txid": "cb9386dd063ad8d9a4d8e11fcefd815651f42316862caf12f8eefb50961428cd"}, {"sequence": 4294967295, "scriptSig": {"hex": "4730440220140e1f22049738a1e000e5f6a64a61eca896a975863349a4ac00ac761a9759dd022065e372dada3a3648dd855e15224aa039ff60037b920bf5a304ae82e75196f353012103ce11051f3117e4b3757d12fabab3f71be218807e9a82f9cdfe2a2306250ec535", "asm": "30440220140e1f22049738a1e000e5f6a64a61eca896a975863349a4ac00ac761a9759dd022065e372dada3a3648dd855e15224aa039ff60037b920bf5a304ae82e75196f353[ALL] 03ce11051f3117e4b3757d12fabab3f71be218807e9a82f9cdfe2a2306250ec535"}, "vout": 0, "txid": "e7062bbfc308ca7b447dbe9d15ac7925d8a09071a11e6f4baf5313c94eb467a2"}, {"sequence": 4294967295, "scriptSig": {"hex": "483045022100820540796fdabecd65d4fb1a58ebb44e97d4147152c9149addb40e3de74564af02205c725071b4371ed1f541dfc9de513a51a7eb73a7bf31404d638523f4d1a0a11201210202850fc8ca0c1b1a0d3a962969529ac69d4f5037652c26395b26f861d0aac076", "asm": "3045022100820540796fdabecd65d4fb1a58ebb44e97d4147152c9149addb40e3de74564af02205c725071b4371ed1f541dfc9de513a51a7eb73a7bf31404d638523f4d1a0a112[ALL] 0202850fc8ca0c1b1a0d3a962969529ac69d4f5037652c26395b26f861d0aac076"}, "vout": 0, "txid": "f0752fbcb941a506cc00e129632e1503b1851bc3606cb2a5583c4925f409cc04"}], "txid": "2bd06481aa42467939a78ba2f4ced6e7a3d4105d60581a0516ad9d8a28042c0a", "blocktime": 1537871767, "version": 1, "confirmations": 11495, "time": 1537871767, "locktime": 0, "vsize": 1257, "size": 1257}