{"hash": "6060eadac07e534b264c5b841dbcf62f48b88c6e55b955e69346ef95071a0402", "blockhash": "0000000000000000001cda96e906b7601b7a6fb1a3b62bca570a9e5d8f4b3de1", "vout": [{"scriptPubKey": {"reqSigs": 1, "hex": "a914e498f92a764cd907388f92b97991bed2be15f20a87", "addresses": ["3NXjF41CBaFW9scZL8DdzRUqEEQpdspyxi"], "asm": "OP_HASH160 e498f92a764cd907388f92b97991bed2be15f20a OP_EQUAL", "type": "scripthash"}, "value": 0.01304786, "n": 0}, {"scriptPubKey": {"reqSigs": 1, "hex": "a91455dbc8ab6cbc6d23925122da9eeb9d343f46a0d487", "addresses": ["39WzehZDAYvh7LKBJK5gCtRoo5g3iNex8H"], "asm": "OP_HASH160 55dbc8ab6cbc6d23925122da9eeb9d343f46a0d4 OP_EQUAL", "type": "scripthash"}, "value": 0.007077, "n": 1}], "hex": "010000000001025fce8c891184c34bacf6bece24db65ded6aecf14ff52d42da5df85e8a8c682a6000000002322002001628c765068b85ed89babe68cdd43a9dc55f1a718ff6992ae50ea4f8c588f96ffffffffa4df60286ad9e27e61db72f8bd08654b64d83e4e3b43af63f2a24d0ef5f617ec0000000023220020f633829ec4b893d93bf7a5fbbabbe8e3bee61b09785421086b70390a636792ceffffffff02d2e813000000000017a914e498f92a764cd907388f92b97991bed2be15f20a8774cc0a000000000017a91455dbc8ab6cbc6d23925122da9eeb9d343f46a0d487040047304402202cc0ad2bb06b299ab5c0cded77020e181aa93eeacac89544448ef04dad4247e80220037502ca2a5c28e9d3ab50eafd0f10342cb8d2d0f5d412c0db5b648a9a28a10e01483045022100804923b3eed5e41167c43dfefe2496352bbb367618974e023fcadec802853d55022062c4f8351fc7f2aca4b303b5f9fb825e4003ac0f12b218c81d0e493e69cfe08601695221020bd0c9ac675534c8874280b04264fe955a0b02fafb845db4e5600ba66f2923fc2102e3368d78fc1bb3b52d30dd016a1aaf0fa5323d0b4e8023c5f1c3927e6545a2ce21033fb23d27810669428cff8e034a5c5402c311e8c807a9040443e18a4a8005663153ae0400483045022100e8a886ceef5d0bb13b524eef5b0dbc759213e1c8e23e4c1411fa046b119e994c02206f6b61422ca806fffbbbaf22f1ef951b4a35c5fe19c0e1f03ad18786f7561c7a0147304402205c5530d24ef93ccbe3aacf9ded38e91de633967587ea200b02170ff8b1b8c6e902205797000125e2b13e108979cd3ce98d2ef02cf1b9fc99d69e1597bbb684eaaa3b016952210388656e8c160eb8627e650b03a6e04bd3d576dce436b8cf738bdb99bd4cd4ed5921039aff2ac7033b0ffe9576a22e7d83b81084502500471260a1d2bde9884d7253d12103a92f1684176e0cf3746143a7a03788fe5504adf28f41a77521b81f9a777b24a953ae14490800", "vin": [{"txinwitness": ["", "304402202cc0ad2bb06b299ab5c0cded77020e181aa93eeacac89544448ef04dad4247e80220037502ca2a5c28e9d3ab50eafd0f10342cb8d2d0f5d412c0db5b648a9a28a10e01", "3045022100804923b3eed5e41167c43dfefe2496352bbb367618974e023fcadec802853d55022062c4f8351fc7f2aca4b303b5f9fb825e4003ac0f12b218c81d0e493e69cfe08601", "5221020bd0c9ac675534c8874280b04264fe955a0b02fafb845db4e5600ba66f2923fc2102e3368d78fc1bb3b52d30dd016a1aaf0fa5323d0b4e8023c5f1c3927e6545a2ce21033fb23d27810669428cff8e034a5c5402c311e8c807a9040443e18a4a8005663153ae"], "sequence": 4294967295, "scriptSig": {"hex": "22002001628c765068b85ed89babe68cdd43a9dc55f1a718ff6992ae50ea4f8c588f96", "asm": "002001628c765068b85ed89babe68cdd43a9dc55f1a718ff6992ae50ea4f8c588f96"}, "vout": 0, "txid": "a682c6a8e885dfa52dd452ff14cfaed6de65db24cebef6ac4bc38411898cce5f"}, {"txinwitness": ["", "3045022100e8a886ceef5d0bb13b524eef5b0dbc759213e1c8e23e4c1411fa046b119e994c02206f6b61422ca806fffbbbaf22f1ef951b4a35c5fe19c0e1f03ad18786f7561c7a01", "304402205c5530d24ef93ccbe3aacf9ded38e91de633967587ea200b02170ff8b1b8c6e902205797000125e2b13e108979cd3ce98d2ef02cf1b9fc99d69e1597bbb684eaaa3b01", "52210388656e8c160eb8627e650b03a6e04bd3d576dce436b8cf738bdb99bd4cd4ed5921039aff2ac7033b0ffe9576a22e7d83b81084502500471260a1d2bde9884d7253d12103a92f1684176e0cf3746143a7a03788fe5504adf28f41a77521b81f9a777b24a953ae"], "sequence": 4294967295, "scriptSig": {"hex": "220020f633829ec4b893d93bf7a5fbbabbe8e3bee61b09785421086b70390a636792ce", "asm": "0020f633829ec4b893d93bf7a5fbbabbe8e3bee61b09785421086b70390a636792ce"}, "vout": 0, "txid": "ec17f6f50e4da2f263af433b4e3ed8644b6508bdf872db617ee2d96a2860dfa4"}], "txid": "2bd1aabda0a5e91c3042204f060dc6091cc0ffc03bed6075f7cf4b735c3fd894", "blocktime": 1537873282, "version": 1, "confirmations": 11481, "time": 1537873282, "locktime": 542996, "vsize": 353, "size": 734}