{"hash": "2bd153cb1cb6649f8a734f9e59b192c0daa2ea4a861dcc77dc14da7c22826bc0", "blockhash": "00000000000000000017f5eb5941039fbcee6240d03bc1f2f8e35350df66a1d8", "vout": [{"scriptPubKey": {"reqSigs": 1, "hex": "76a9146bad5c9381deedefa52b229b13f1b1b2c6d6918788ac", "addresses": ["1ApLyuMxyqbXPo6RKCPQyTSmxohmGYUfDx"], "asm": "OP_DUP OP_HASH160 6bad5c9381deedefa52b229b13f1b1b2c6d69187 OP_EQUALVERIFY OP_CHECKSIG", "type": "pubkeyhash"}, "value": 5.46e-06, "n": 0}, {"scriptPubKey": {"reqSigs": 1, "hex": "a9143f4eecba122ad73039d481c8d37f99cb4f887cd887", "addresses": ["37Tm3Qz8Zw2VJrheUUhArDAoq58S6YrS3g"], "asm": "OP_HASH160 3f4eecba122ad73039d481c8d37f99cb4f887cd8 OP_EQUAL", "type": "scripthash"}, "value": 0.99992362, "n": 1}, {"scriptPubKey": {"type": "nulldata", "hex": "6a146f6d6e69000000000000001f0000015f3f912e00", "asm": "OP_RETURN 6f6d6e69000000000000001f0000015f3f912e00"}, "value": 0.0, "n": 2}], "hex": "010000000158b7ecfdb7c2d84993c08557d258f639adf20c3d7e0443fb9629b381ff73070301000000fdfe0000483045022100fa83d0bb831341b76d2da928b39c06e2bde091c07e8c720ee11f67dc1aa282ac0220113a016fd144ff499bc09dd9f05f29d617ded546708fe15deddac19c204fc2a501483045022100ef3668ef34287d2297481943250b0aea701d8dc49e5447ab4fb1fd0a127959500220575759cfb5df45ea86f12133bcf19125bf4fa90fe708f95a75ab67b3d9227797014c6952210246ccf4de0c54cc7f3354cdd993c2c50cf965fd82238b89659fbd73a1b4bf05a121024fc59f72272a897fe43803374969f396058152fe4765a8d15216f94624257b1b21022593bc69ecbf3bbcc3c58082267cb49dadaf4ca8dbf1b2297338a9d628c4297653aeffffffff0322020000000000001976a9146bad5c9381deedefa52b229b13f1b1b2c6d6918788ac2ac3f5050000000017a9143f4eecba122ad73039d481c8d37f99cb4f887cd8870000000000000000166a146f6d6e69000000000000001f0000015f3f912e0000000000", "vin": [{"sequence": 4294967295, "scriptSig": {"hex": "00483045022100fa83d0bb831341b76d2da928b39c06e2bde091c07e8c720ee11f67dc1aa282ac0220113a016fd144ff499bc09dd9f05f29d617ded546708fe15deddac19c204fc2a501483045022100ef3668ef34287d2297481943250b0aea701d8dc49e5447ab4fb1fd0a127959500220575759cfb5df45ea86f12133bcf19125bf4fa90fe708f95a75ab67b3d9227797014c6952210246ccf4de0c54cc7f3354cdd993c2c50cf965fd82238b89659fbd73a1b4bf05a121024fc59f72272a897fe43803374969f396058152fe4765a8d15216f94624257b1b21022593bc69ecbf3bbcc3c58082267cb49dadaf4ca8dbf1b2297338a9d628c4297653ae", "asm": "0 3045022100fa83d0bb831341b76d2da928b39c06e2bde091c07e8c720ee11f67dc1aa282ac0220113a016fd144ff499bc09dd9f05f29d617ded546708fe15deddac19c204fc2a5[ALL] 3045022100ef3668ef34287d2297481943250b0aea701d8dc49e5447ab4fb1fd0a127959500220575759cfb5df45ea86f12133bcf19125bf4fa90fe708f95a75ab67b3d9227797[ALL] 52210246ccf4de0c54cc7f3354cdd993c2c50cf965fd82238b89659fbd73a1b4bf05a121024fc59f72272a897fe43803374969f396058152fe4765a8d15216f94624257b1b21022593bc69ecbf3bbcc3c58082267cb49dadaf4ca8dbf1b2297338a9d628c4297653ae"}, "vout": 1, "txid": "030773ff81b32996fb43047e3d0cf2ad39f658d25785c09349d8c2b7fdecb758"}], "txid": "2bd153cb1cb6649f8a734f9e59b192c0daa2ea4a861dcc77dc14da7c22826bc0", "blocktime": 1537874412, "version": 1, "confirmations": 11467, "time": 1537874412, "locktime": 0, "vsize": 404, "size": 404}