{"hash": "c88458c2fbf34204eae31bf700d1325cfae62efb21b8a1ed1cf3ce9ce998edf2", "blockhash": "0000000000000000001e0dab787dd257d1dbfcb92a98c2207d5e1078be1f4165", "vout": [{"scriptPubKey": {"reqSigs": 1, "hex": "a9144f05cc36fd69abc2951b58e27ec07e0ae0a829f787", "addresses": ["38trFXjAn7uFmosVyrNxnrShDpEaxm868f"], "asm": "OP_HASH160 4f05cc36fd69abc2951b58e27ec07e0ae0a829f7 OP_EQUAL", "type": "scripthash"}, "value": 0.00045431, "n": 0}, {"scriptPubKey": {"reqSigs": 1, "hex": "0014e2f91ca043c1f338c17bd38c92b3485535f08185", "addresses": ["bc1qutu3egzrc8en3stm6wxf9v6g256lpqv93es9dh"], "asm": "0 e2f91ca043c1f338c17bd38c92b3485535f08185", "type": "witness_v0_keyhash"}, "value": 2.029e-05, "n": 1}], "hex": "010000000001019b63a8beceeb5ac3f86d0c7342a5a517db9312558194701eb760ebcd33a51ab9000000001716001409e6f6e0c5c27c6668c356b6716b13a92d5d7bb1ffffffff0277b100000000000017a9144f05cc36fd69abc2951b58e27ec07e0ae0a829f787ed07000000000000160014e2f91ca043c1f338c17bd38c92b3485535f0818502483045022100b4aa3abc5c70113f8c71a9fb3bb63778b124ae401db1e9fa86f207fc00b6118d0220504a080ca8ec533dbb0cbdb57620b7069a2a9c5593e165403face5f3946c9161012103dedd726b08fb5de50ed6f7d102306dc6f9316bf2cd30126e59d7a489f6233a3b00000000", "vin": [{"txinwitness": ["3045022100b4aa3abc5c70113f8c71a9fb3bb63778b124ae401db1e9fa86f207fc00b6118d0220504a080ca8ec533dbb0cbdb57620b7069a2a9c5593e165403face5f3946c916101", "03dedd726b08fb5de50ed6f7d102306dc6f9316bf2cd30126e59d7a489f6233a3b"], "sequence": 4294967295, "scriptSig": {"hex": "16001409e6f6e0c5c27c6668c356b6716b13a92d5d7bb1", "asm": "001409e6f6e0c5c27c6668c356b6716b13a92d5d7bb1"}, "vout": 0, "txid": "b91aa533cdeb60b71e709481551293db17a5a542730c6df8c35aebcebea8639b"}], "txid": "2bd550befb53069721c6e87b57105ec7fffa1765fa18489eceab4533f658fa64", "blocktime": 1537872475, "version": 1, "confirmations": 11486, "time": 1537872475, "locktime": 0, "vsize": 165, "size": 247}