{"hash": "884770a45fb32ca33851e2e415d726c84de1b051a39b4709483fd843bd099b92", "blockhash": "0000000000000000000dcc0f55137456b1a82d3642486a52398922ac4d620174", "vout": [{"scriptPubKey": {"reqSigs": 1, "hex": "a9141d7370ccde4590204155e4074f69743a8e4fac0287", "addresses": ["34Njp4ZKtmCDfqqps26wHBYQQGUo2pGkLi"], "asm": "OP_HASH160 1d7370ccde4590204155e4074f69743a8e4fac02 OP_EQUAL", "type": "scripthash"}, "value": 0.00052574, "n": 0}], "hex": "01000000000101e610355bac99e5d952d63bde3930f893e3f4e37cf6d07939c9f0d4ec126c4f670000000017160014e50095e0cdde4b8b0c53f75c19ac56477cde085dffffffff015ecd00000000000017a9141d7370ccde4590204155e4074f69743a8e4fac028702483045022100b79940b5366fe2031edbc6b38b452f607588a54756a78702702ec690f942cec802201e08108b4911774415332ae1281457baaad53308627056098391b9e65ac73ea00121032bf5210cb7a15e9bcd7a6707b432223cf91cfd376f312dc3df2ab901049491b100000000", "vin": [{"txinwitness": ["3045022100b79940b5366fe2031edbc6b38b452f607588a54756a78702702ec690f942cec802201e08108b4911774415332ae1281457baaad53308627056098391b9e65ac73ea001", "032bf5210cb7a15e9bcd7a6707b432223cf91cfd376f312dc3df2ab901049491b1"], "sequence": 4294967295, "scriptSig": {"hex": "160014e50095e0cdde4b8b0c53f75c19ac56477cde085d", "asm": "0014e50095e0cdde4b8b0c53f75c19ac56477cde085d"}, "vout": 0, "txid": "674f6c12ecd4f0c93979d0f67ce3f4e393f83039de3bd652d9e599ac5b3510e6"}], "txid": "2bddc6027a7f9cd0c6b95bfa56602fb54b6638bdb48e2678361df3d85c3e0b78", "blocktime": 1537870268, "version": 1, "confirmations": 11518, "time": 1537870268, "locktime": 0, "vsize": 134, "size": 216}