{"hash": "2be2bfc6b27c3e322d7de31734b5007b5afad8fd1630c17aef2d3fae3d4a27ff", "blockhash": "00000000000000000024a2167bbff67b0be802c0b01cdd79e6331c2be6459f87", "vout": [{"scriptPubKey": {"reqSigs": 1, "hex": "76a9141508276fd4193e83f5fce7a810a40e8f983c161988ac", "addresses": ["12vCxak5xc1t6T275xbm6AJ4xsZCxkTSc5"], "asm": "OP_DUP OP_HASH160 1508276fd4193e83f5fce7a810a40e8f983c1619 OP_EQUALVERIFY OP_CHECKSIG", "type": "pubkeyhash"}, "value": 2.56869253, "n": 0}, {"scriptPubKey": {"type": "nulldata", "hex": "6a146f6d6e69000000000000001f0000008c0045dd00", "asm": "OP_RETURN 6f6d6e69000000000000001f0000008c0045dd00"}, "value": 0.0, "n": 1}, {"scriptPubKey": {"reqSigs": 1, "hex": "76a9141508276fd4193e83f5fce7a810a40e8f983c161988ac", "addresses": ["12vCxak5xc1t6T275xbm6AJ4xsZCxkTSc5"], "asm": "OP_DUP OP_HASH160 1508276fd4193e83f5fce7a810a40e8f983c1619 OP_EQUALVERIFY OP_CHECKSIG", "type": "pubkeyhash"}, "value": 5.46e-06, "n": 2}], "hex": "0100000002d3098e05a85e270e5fb70a460316fd8152b1fde31c1bbb3a96ce75ac7070c941010000006a47304402207f3d44f8c3f5f4b775cf196af76e1e14317c783f413b082ac521f2b3f801608a0220249699945a7ca77f732d0f02e37f5ee49b60e76510554251e5074713d0826208012103d0054f2065d440c9b6a30549fa5897bf8031b5d7a6dce4029a5877179b28beeeffffffff56ae4ce9699935459e1212e453e288f47560f2368701a8a9b54ed770d8c0c0a4000000006a473044022018c8f3604cc1079453b3b48058e5c64aebaac6fbcc5e5543a87a60a95fb6cfbe02201f8b67d2ba48ec1eb103a8fdac151a7272f2e0522e7ebe79792cd61ebce4b9140121035bb5ec1330953265719fecb2345ebd0cd02272efa8a3a940a8a28021b37703eeffffffff0385834f0f000000001976a9141508276fd4193e83f5fce7a810a40e8f983c161988ac0000000000000000166a146f6d6e69000000000000001f0000008c0045dd0022020000000000001976a9141508276fd4193e83f5fce7a810a40e8f983c161988ac00000000", "vin": [{"sequence": 4294967295, "scriptSig": {"hex": "47304402207f3d44f8c3f5f4b775cf196af76e1e14317c783f413b082ac521f2b3f801608a0220249699945a7ca77f732d0f02e37f5ee49b60e76510554251e5074713d0826208012103d0054f2065d440c9b6a30549fa5897bf8031b5d7a6dce4029a5877179b28beee", "asm": "304402207f3d44f8c3f5f4b775cf196af76e1e14317c783f413b082ac521f2b3f801608a0220249699945a7ca77f732d0f02e37f5ee49b60e76510554251e5074713d0826208[ALL] 03d0054f2065d440c9b6a30549fa5897bf8031b5d7a6dce4029a5877179b28beee"}, "vout": 1, "txid": "41c97070ac75ce963abb1b1ce3fdb15281fd1603460ab75f0e275ea8058e09d3"}, {"sequence": 4294967295, "scriptSig": {"hex": "473044022018c8f3604cc1079453b3b48058e5c64aebaac6fbcc5e5543a87a60a95fb6cfbe02201f8b67d2ba48ec1eb103a8fdac151a7272f2e0522e7ebe79792cd61ebce4b9140121035bb5ec1330953265719fecb2345ebd0cd02272efa8a3a940a8a28021b37703ee", "asm": "3044022018c8f3604cc1079453b3b48058e5c64aebaac6fbcc5e5543a87a60a95fb6cfbe02201f8b67d2ba48ec1eb103a8fdac151a7272f2e0522e7ebe79792cd61ebce4b914[ALL] 035bb5ec1330953265719fecb2345ebd0cd02272efa8a3a940a8a28021b37703ee"}, "vout": 0, "txid": "a4c0c0d870d74eb5a9a8018736f26075f488e253e412129e45359969e94cae56"}], "txid": "2be2bfc6b27c3e322d7de31734b5007b5afad8fd1630c17aef2d3fae3d4a27ff", "blocktime": 1537870564, "version": 1, "confirmations": 11515, "time": 1537870564, "locktime": 0, "vsize": 403, "size": 403}