{"hash": "2bf32093eb9bc3e4955a1f30c77aadfea7c19f13f051f35e555c2a0ffd7a5492", "blockhash": "00000000000000000018f53835495a110e01622372bf6ae95dc86f2b0ab887b0", "vout": [{"scriptPubKey": {"reqSigs": 1, "hex": "76a914d243e6abb9a60fbff430b421d2df4b7d59ec186088ac", "addresses": ["1LAnF8h3qMGx3TSwNUHVneBZUEpwE4gu3D"], "asm": "OP_DUP OP_HASH160 d243e6abb9a60fbff430b421d2df4b7d59ec1860 OP_EQUALVERIFY OP_CHECKSIG", "type": "pubkeyhash"}, "value": 0.00077314, "n": 0}, {"scriptPubKey": {"reqSigs": 1, "hex": "76a914adb455b044d7a689fb006c0f6b1ee8b88e58826688ac", "addresses": ["1GqTw4e3CctwoJpQa12oCGqdpdQt2cGNah"], "asm": "OP_DUP OP_HASH160 adb455b044d7a689fb006c0f6b1ee8b88e588266 OP_EQUALVERIFY OP_CHECKSIG", "type": "pubkeyhash"}, "value": 5.46e-06, "n": 1}, {"scriptPubKey": {"type": "nulldata", "hex": "6a146f6d6e69000000000000001f00000004a817c800", "asm": "OP_RETURN 6f6d6e69000000000000001f00000004a817c800"}, "value": 0.0, "n": 2}], "hex": "01000000016b6bd32b5e43e0e7437e9e437b1ccb5d86f36154e7170129ee8117f57ecc6194000000006a4730440220770d06a1ba47ae0ea725d454dd9af447670f29441021b592aadf1c9fc4f5c26a0220256a761ef7b974f3732f59ea2d3e613db912e3302c00bec8857b5c1b4a56089601210271977291b74f1f5f5c42157e8aae804664eaaeccfd097918450d37f28fb94d77ffffffff03022e0100000000001976a914d243e6abb9a60fbff430b421d2df4b7d59ec186088ac22020000000000001976a914adb455b044d7a689fb006c0f6b1ee8b88e58826688ac0000000000000000166a146f6d6e69000000000000001f00000004a817c80000000000", "vin": [{"sequence": 4294967295, "scriptSig": {"hex": "4730440220770d06a1ba47ae0ea725d454dd9af447670f29441021b592aadf1c9fc4f5c26a0220256a761ef7b974f3732f59ea2d3e613db912e3302c00bec8857b5c1b4a56089601210271977291b74f1f5f5c42157e8aae804664eaaeccfd097918450d37f28fb94d77", "asm": "30440220770d06a1ba47ae0ea725d454dd9af447670f29441021b592aadf1c9fc4f5c26a0220256a761ef7b974f3732f59ea2d3e613db912e3302c00bec8857b5c1b4a560896[ALL] 0271977291b74f1f5f5c42157e8aae804664eaaeccfd097918450d37f28fb94d77"}, "vout": 0, "txid": "9461cc7ef51781ee290117e75461f3865dcb1c7b439e7e43e7e0435e2bd36b6b"}], "txid": "2bf32093eb9bc3e4955a1f30c77aadfea7c19f13f051f35e555c2a0ffd7a5492", "blocktime": 1537870928, "version": 1, "confirmations": 11512, "time": 1537870928, "locktime": 0, "vsize": 256, "size": 256}