{"hash": "17006df678cd157c7d54c2c3085fd6867de5412263425cea551635a50e44bede", "blockhash": "0000000000000000001f76057863aec43deb6fa401d9628bb513d65a8098bfab", "vout": [{"scriptPubKey": {"reqSigs": 1, "hex": "a914ad0a703b9a72a83a931a8513fe3781a116caf5fc87", "addresses": ["3HTyL1B7J1jpfFR5t27NT9Wfrhkx6hSpCr"], "asm": "OP_HASH160 ad0a703b9a72a83a931a8513fe3781a116caf5fc OP_EQUAL", "type": "scripthash"}, "value": 0.00218533, "n": 0}], "hex": "0200000000010187a0b92bdcba8209471952fdb566723d35cee9e679cc43cae2fd801837b711a20000000017160014d641611ca9a8ba637939d93a66cd251ee92a4fdcffffffff01a55503000000000017a914ad0a703b9a72a83a931a8513fe3781a116caf5fc8702483045022100e69104a63a0ff7c827ee9a9bd7ee85eda1c2d48e61e3d92b0decfaddef60483a022059a4bc6497748d70b99ec7db9a4a40842fa48166a31b8b70e3929314a58f9da60121027dcf6eb7fba6450c0ea7f656b66a2cf445c68945b3a395a8f73c7faf9628a43900000000", "vin": [{"txinwitness": ["3045022100e69104a63a0ff7c827ee9a9bd7ee85eda1c2d48e61e3d92b0decfaddef60483a022059a4bc6497748d70b99ec7db9a4a40842fa48166a31b8b70e3929314a58f9da601", "027dcf6eb7fba6450c0ea7f656b66a2cf445c68945b3a395a8f73c7faf9628a439"], "sequence": 4294967295, "scriptSig": {"hex": "160014d641611ca9a8ba637939d93a66cd251ee92a4fdc", "asm": "0014d641611ca9a8ba637939d93a66cd251ee92a4fdc"}, "vout": 0, "txid": "a211b7371880fde2ca43cc79e6e9ce353d7266b5fd5219470982badc2bb9a087"}], "txid": "2bf7c0c68cb0497ed6b7d4bf7fd22d2db5118664962820736b446b64f217060c", "blocktime": 1537873891, "version": 2, "confirmations": 11478, "time": 1537873891, "locktime": 0, "vsize": 134, "size": 216}