{"hash": "2bf7c2c030883441ed429faf0b1e11562b0e3fa038d715630214c0bffc4330a5", "blockhash": "0000000000000000000baef3f32e3676a92c3b2e5da21b426e4f302fc371ce76", "vout": [{"scriptPubKey": {"type": "nulldata", "hex": "6a4c50000078090001756e9055158710ed1e56872f702940d64fa54d8eb2d19ed074892d00f8e82891cbcec963af73f0968bf457b2138e5baa1b000613a7cfec05b038bc9a9526289ac0f6612cd74e33776ee4", "asm": "OP_RETURN 000078090001756e9055158710ed1e56872f702940d64fa54d8eb2d19ed074892d00f8e82891cbcec963af73f0968bf457b2138e5baa1b000613a7cfec05b038bc9a9526289ac0f6612cd74e33776ee4"}, "value": 0.0, "n": 0}, {"scriptPubKey": {"reqSigs": 1, "hex": "76a914025f67aff813ab652f104bcbadc8fe5dd52e31fc88ac", "addresses": ["1DYeEzehSxMyvEbJzip7KBTYdKAdKLh8P"], "asm": "OP_DUP OP_HASH160 025f67aff813ab652f104bcbadc8fe5dd52e31fc OP_EQUALVERIFY OP_CHECKSIG", "type": "pubkeyhash"}, "value": 0.0220418, "n": 1}], "hex": "0100000001a5e391b73befdc8c665f1cbf33fe7a2ece88f13ed565d682c9bc1ab0ae190061000000006a47304402200cffe1ae38976bdb1fcd726a98ab4d19ea29b7f3d07cfdccf372237faadcf5de02201e586e4386ef591a6df608266e82fce45be349f1514c2e3c079e9d1bc9dad0480121021dd5cc924ce28e169fcd6113963decd91bca8f0dbdff03cc80bcfc5d191af47bffffffff020000000000000000536a4c50000078090001756e9055158710ed1e56872f702940d64fa54d8eb2d19ed074892d00f8e82891cbcec963af73f0968bf457b2138e5baa1b000613a7cfec05b038bc9a9526289ac0f6612cd74e33776ee414a22100000000001976a914025f67aff813ab652f104bcbadc8fe5dd52e31fc88ac00000000", "vin": [{"sequence": 4294967295, "scriptSig": {"hex": "47304402200cffe1ae38976bdb1fcd726a98ab4d19ea29b7f3d07cfdccf372237faadcf5de02201e586e4386ef591a6df608266e82fce45be349f1514c2e3c079e9d1bc9dad0480121021dd5cc924ce28e169fcd6113963decd91bca8f0dbdff03cc80bcfc5d191af47b", "asm": "304402200cffe1ae38976bdb1fcd726a98ab4d19ea29b7f3d07cfdccf372237faadcf5de02201e586e4386ef591a6df608266e82fce45be349f1514c2e3c079e9d1bc9dad048[ALL] 021dd5cc924ce28e169fcd6113963decd91bca8f0dbdff03cc80bcfc5d191af47b"}, "vout": 0, "txid": "610019aeb01abcc982d665d53ef188ce2e7afe33bf1c5f668cdcef3bb791e3a5"}], "txid": "2bf7c2c030883441ed429faf0b1e11562b0e3fa038d715630214c0bffc4330a5", "blocktime": 1537876114, "version": 1, "confirmations": 11460, "time": 1537876114, "locktime": 0, "vsize": 283, "size": 283}