{"hash": "35ffcd36fdd283552caa9f2a74fcb691d6dcfc77ffe0c8a074a4da6995df7a71", "blockhash": "0000000000000000001cda96e906b7601b7a6fb1a3b62bca570a9e5d8f4b3de1", "vout": [{"scriptPubKey": {"reqSigs": 1, "hex": "76a9148ec983c312e8584cce9998a062132be83fd6543188ac", "addresses": ["1E1zMj8fArAZbTbmXaVLe2hHnT6YDsDLgg"], "asm": "OP_DUP OP_HASH160 8ec983c312e8584cce9998a062132be83fd65431 OP_EQUALVERIFY OP_CHECKSIG", "type": "pubkeyhash"}, "value": 0.03, "n": 0}, {"scriptPubKey": {"reqSigs": 1, "hex": "a9143b3b9ac92745c4e815673c6d79d61e65a292334687", "addresses": ["376DCGGw7XVwECvXeWVxFkxuxXwd2q9gz1"], "asm": "OP_HASH160 3b3b9ac92745c4e815673c6d79d61e65a2923346 OP_EQUAL", "type": "scripthash"}, "value": 0.00999856, "n": 1}], "hex": "020000000001092085c267a520d5ca66f066b933914614b86e6456e23def202f62528e36d7627f0000000017160014f0922bf4b51df8cebcbf357c0fc5fde350c252b0feffffff219323db45f03418c770b0f323c26da4879a32ebc33805da4d3896e9451144250000000017160014853deb165a76dc20b370d7b8d11bc8a40463d893feffffff4a243ce6d5a043801f252fe0258e2069f6335b55dd1d14fadb83bbc63ededdea00000000171600142605dd215f404083014e2d16c20237a4c94b2c1efeffffff6a6dcd9bef2c89821a56b5cf21d6691a82624712bffcfd6d27117b3599e59ebc0000000017160014d7f448b4b8fba76fa60ec2931c0f781df3acf5c1feffffff7f803f7e022f5381cb54a48f56fb174bb943e9639b68b1fe02838007b741ee9e6e020000171600140b81c01d6ff0f68161d98bc01818514d418c4345feffffffa3881755b43667f88b5ea97ac23fd75b8bea3e6f068a675609c8db4a2acc747e0100000017160014105112c7b33e26dab8f16feb6ab704d95a0eb82efeffffffcbb2ec6fef12400286fd7c29326f4b5ef67e639e1b7ceabcebec277de5e5579a0000000017160014d7f448b4b8fba76fa60ec2931c0f781df3acf5c1feffffffecf6bc8b1ff4f3a06aacfa3210822750a63ab8754300ec91f53cb56b1f8154d40100000017160014a17f66e33759e20233f57e9f286e8b4eca8f8b3efefffffffbf66756ef72cb9032ca237eb87201cfba16d37d75b1a5e5e446284ce6acbb480000000017160014afe107e9fac8b5290d3d4fedf01a65c8823edc6ffeffffff02c0c62d00000000001976a9148ec983c312e8584cce9998a062132be83fd6543188acb0410f000000000017a9143b3b9ac92745c4e815673c6d79d61e65a2923346870247304402200c4b580a2192df20e2cc4daea718dc5c354082935bf9274c909065074c817a2902202dd3bcd8a761f118dd5b3c80fc329fb58f1435488d0161bbc30108697d4406f50121024b5fd883d3e97b4621c9fa6c353e58fa685979b9de8460c3efbb838096dbc05d02483045022100bf0970aa39522c3ece553ce5b3a16339045bf902be02c8e6e4f2b679fc74a9d90220525b5cfe5c1654b3ff6a55d80fd05e0ac6f87ce781afc4bef16589362ffc31d8012103b1bb0a03dbd9e6821edd9a2fac90af56b0fbc9427b5ab5aecad7f18c0257b2b70247304402207d7703b86c7b30148780528a3d7462358e2f07016c6665098a2d76b453f3f4b302202133264917f99b95ac6e48b424589a1084cf9b1a87b5921e8b3863b56b21f5e00121026bbf458d496a2b5b8d93aa8ac62d55067bc4dfedf036171161f81126668ed4250247304402203b6b07b2ca1e0b3f2de18175a0ac5fceffa191d24415700c11562f57660c426102200a1a656a750728eb00536623345d1a173de183a253de3da48681bca82d6170530121026648b94669fa96887115af179b2210426b1541bb9b158a68f2d8ffbf27ec5c4102483045022100e26c28ee2e220daa1d33d1e257cf0e350e63adf8a623ab0ae3539393f86e42db0220526ed58a0f82d842ce9b24a96a1d73b8e25dd4b4fcf759c8261bb736b80e0f56012102907d38433feae5fd5d604a348ddc867dc3742b7e79633811698511e4f8bc47c1024730440220277489e1fa9376956bad233e71740531c53b428dc254bf3295419d9682753b9d022045791ec0df40c994d219b9e825a47d978d1df0c97151b1fc316ba4bc43abd9d901210379fc31d235fbbd1a8b7e06827cfe9bcf60f5df535581bd5f102e565634ea4bfa024730440220749dfcf3a3e77b440d2ac5f730fb347ad0b968c37587c48fde8b1cb17b7768520220449fe197c5d6f420c96ba66bd9ed356759615eec7467939f98b6fc59036e7c020121026648b94669fa96887115af179b2210426b1541bb9b158a68f2d8ffbf27ec5c410247304402205357d2f1c160514fac397ed08acfa8187c16a8ed3aa8932be6c37100f94ceefa02204dd314f855333d29b9e050a5b3261c23913b9dc4233d051bda26e65b4ac13c7f0121024d6d9a6fe44e5f6aa48bb2e3d8ade9b1574142cf0ee3d9948c71298d67a7d8c702473044022062a28623e06582954defbf932c7606764a95f686fe22818686d3491ea1dc37f002206684ab300399fb2c29de3a0c523a8bb46739aca7c943497be0965c60735ef0b40121020a306734962b98175404235e2de729f4527a12c8d52dfb6c998ce6c871e0957113490800", "vin": [{"txinwitness": ["304402200c4b580a2192df20e2cc4daea718dc5c354082935bf9274c909065074c817a2902202dd3bcd8a761f118dd5b3c80fc329fb58f1435488d0161bbc30108697d4406f501", "024b5fd883d3e97b4621c9fa6c353e58fa685979b9de8460c3efbb838096dbc05d"], "sequence": 4294967294, "scriptSig": {"hex": "160014f0922bf4b51df8cebcbf357c0fc5fde350c252b0", "asm": "0014f0922bf4b51df8cebcbf357c0fc5fde350c252b0"}, "vout": 0, "txid": "7f62d7368e52622f20ef3de256646eb814469133b966f066cad520a567c28520"}, {"txinwitness": ["3045022100bf0970aa39522c3ece553ce5b3a16339045bf902be02c8e6e4f2b679fc74a9d90220525b5cfe5c1654b3ff6a55d80fd05e0ac6f87ce781afc4bef16589362ffc31d801", "03b1bb0a03dbd9e6821edd9a2fac90af56b0fbc9427b5ab5aecad7f18c0257b2b7"], "sequence": 4294967294, "scriptSig": {"hex": "160014853deb165a76dc20b370d7b8d11bc8a40463d893", "asm": "0014853deb165a76dc20b370d7b8d11bc8a40463d893"}, "vout": 0, "txid": "25441145e996384dda0538c3eb329a87a46dc223f3b070c71834f045db239321"}, {"txinwitness": ["304402207d7703b86c7b30148780528a3d7462358e2f07016c6665098a2d76b453f3f4b302202133264917f99b95ac6e48b424589a1084cf9b1a87b5921e8b3863b56b21f5e001", "026bbf458d496a2b5b8d93aa8ac62d55067bc4dfedf036171161f81126668ed425"], "sequence": 4294967294, "scriptSig": {"hex": "1600142605dd215f404083014e2d16c20237a4c94b2c1e", "asm": "00142605dd215f404083014e2d16c20237a4c94b2c1e"}, "vout": 0, "txid": "eaddde3ec6bb83dbfa141ddd555b33f669208e25e02f251f8043a0d5e63c244a"}, {"txinwitness": ["304402203b6b07b2ca1e0b3f2de18175a0ac5fceffa191d24415700c11562f57660c426102200a1a656a750728eb00536623345d1a173de183a253de3da48681bca82d61705301", "026648b94669fa96887115af179b2210426b1541bb9b158a68f2d8ffbf27ec5c41"], "sequence": 4294967294, "scriptSig": {"hex": "160014d7f448b4b8fba76fa60ec2931c0f781df3acf5c1", "asm": "0014d7f448b4b8fba76fa60ec2931c0f781df3acf5c1"}, "vout": 0, "txid": "bc9ee599357b11276dfdfcbf124762821a69d621cfb5561a82892cef9bcd6d6a"}, {"txinwitness": ["3045022100e26c28ee2e220daa1d33d1e257cf0e350e63adf8a623ab0ae3539393f86e42db0220526ed58a0f82d842ce9b24a96a1d73b8e25dd4b4fcf759c8261bb736b80e0f5601", "02907d38433feae5fd5d604a348ddc867dc3742b7e79633811698511e4f8bc47c1"], "sequence": 4294967294, "scriptSig": {"hex": "1600140b81c01d6ff0f68161d98bc01818514d418c4345", "asm": "00140b81c01d6ff0f68161d98bc01818514d418c4345"}, "vout": 622, "txid": "9eee41b707808302feb1689b63e943b94b17fb568fa454cb81532f027e3f807f"}, {"txinwitness": ["30440220277489e1fa9376956bad233e71740531c53b428dc254bf3295419d9682753b9d022045791ec0df40c994d219b9e825a47d978d1df0c97151b1fc316ba4bc43abd9d901", "0379fc31d235fbbd1a8b7e06827cfe9bcf60f5df535581bd5f102e565634ea4bfa"], "sequence": 4294967294, "scriptSig": {"hex": "160014105112c7b33e26dab8f16feb6ab704d95a0eb82e", "asm": "0014105112c7b33e26dab8f16feb6ab704d95a0eb82e"}, "vout": 1, "txid": "7e74cc2a4adbc80956678a066f3eea8b5bd73fc27aa95e8bf86736b4551788a3"}, {"txinwitness": ["30440220749dfcf3a3e77b440d2ac5f730fb347ad0b968c37587c48fde8b1cb17b7768520220449fe197c5d6f420c96ba66bd9ed356759615eec7467939f98b6fc59036e7c0201", "026648b94669fa96887115af179b2210426b1541bb9b158a68f2d8ffbf27ec5c41"], "sequence": 4294967294, "scriptSig": {"hex": "160014d7f448b4b8fba76fa60ec2931c0f781df3acf5c1", "asm": "0014d7f448b4b8fba76fa60ec2931c0f781df3acf5c1"}, "vout": 0, "txid": "9a57e5e57d27ecebbcea7c1b9e637ef65e4b6f32297cfd86024012ef6fecb2cb"}, {"txinwitness": ["304402205357d2f1c160514fac397ed08acfa8187c16a8ed3aa8932be6c37100f94ceefa02204dd314f855333d29b9e050a5b3261c23913b9dc4233d051bda26e65b4ac13c7f01", "024d6d9a6fe44e5f6aa48bb2e3d8ade9b1574142cf0ee3d9948c71298d67a7d8c7"], "sequence": 4294967294, "scriptSig": {"hex": "160014a17f66e33759e20233f57e9f286e8b4eca8f8b3e", "asm": "0014a17f66e33759e20233f57e9f286e8b4eca8f8b3e"}, "vout": 1, "txid": "d454811f6bb53cf591ec004375b83aa65027821032faac6aa0f3f41f8bbcf6ec"}, {"txinwitness": ["3044022062a28623e06582954defbf932c7606764a95f686fe22818686d3491ea1dc37f002206684ab300399fb2c29de3a0c523a8bb46739aca7c943497be0965c60735ef0b401", "020a306734962b98175404235e2de729f4527a12c8d52dfb6c998ce6c871e09571"], "sequence": 4294967294, "scriptSig": {"hex": "160014afe107e9fac8b5290d3d4fedf01a65c8823edc6f", "asm": "0014afe107e9fac8b5290d3d4fedf01a65c8823edc6f"}, "vout": 0, "txid": "48bbace64c2846e4e5a5b1757dd316bacf0172b87e23ca3290cb72ef5667f6fb"}], "txid": "2c05a912c694257a9de5ad98496839ddc8bd4700f0ff7a9f37afa0ed4a140424", "blocktime": 1537873282, "version": 2, "confirmations": 11485, "time": 1537873282, "locktime": 542995, "vsize": 894, "size": 1619}