{"hash": "4652558615947560723a9c4b0820a9d7495033af0f62f8440f7c817ead8c7995", "blockhash": "0000000000000000000dcc0f55137456b1a82d3642486a52398922ac4d620174", "vout": [{"scriptPubKey": {"reqSigs": 1, "hex": "76a914e5448c89def4ada18ea581343e1a41df1e62144688ac", "addresses": ["1MuFro9m9bW1UF5cwFVCJs2CLbDBKWSTQm"], "asm": "OP_DUP OP_HASH160 e5448c89def4ada18ea581343e1a41df1e621446 OP_EQUALVERIFY OP_CHECKSIG", "type": "pubkeyhash"}, "value": 0.00593359, "n": 0}, {"scriptPubKey": {"reqSigs": 1, "hex": "a914627aa52932456d89054bd84f86246af3b71b93a887", "addresses": ["3Afj4stdiLG9EktGrMbm252ySonnhYaz8v"], "asm": "OP_HASH160 627aa52932456d89054bd84f86246af3b71b93a8 OP_EQUAL", "type": "scripthash"}, "value": 0.58576233, "n": 1}], "hex": "010000000001015f9e8b1543024a9fcf4a6186e74eae75e7a8419a2334c74aa0a2a12bfab1d50101000000232200205fdd641234b13964b223bd85ad2a4a667ca2099df3d42a1d3b45706a8d81abf0ffffffff02cf0d0900000000001976a914e5448c89def4ada18ea581343e1a41df1e62144688ac69cd7d030000000017a914627aa52932456d89054bd84f86246af3b71b93a887040047304402200d3b971bc93f828f7aa5b2696c5f3f36acb4ac559ecf77a47cf6a78ae5f120a8022002bbbb70812555c4a1b47aa8d2f71f76e56bebc4cf7344c21d2b5fbc163ae62f01473044022069579abf786364ccfa613da7510deb1988583b374998af51a4e4cc0ffa9aae1902204af55661eaef31d6f266f5de1142da305580e0ec92eba4937e4894596bb795720147522103dcde3832fa56def7b4e783faad1b8af85c3cdd74a5ff4f3c7c216b1075c18da12103c70ae8ded79be1afda73b9ce5ea14a3878908ee160d66a9a717e792bb6db276952ae00000000", "vin": [{"txinwitness": ["", "304402200d3b971bc93f828f7aa5b2696c5f3f36acb4ac559ecf77a47cf6a78ae5f120a8022002bbbb70812555c4a1b47aa8d2f71f76e56bebc4cf7344c21d2b5fbc163ae62f01", "3044022069579abf786364ccfa613da7510deb1988583b374998af51a4e4cc0ffa9aae1902204af55661eaef31d6f266f5de1142da305580e0ec92eba4937e4894596bb7957201", "522103dcde3832fa56def7b4e783faad1b8af85c3cdd74a5ff4f3c7c216b1075c18da12103c70ae8ded79be1afda73b9ce5ea14a3878908ee160d66a9a717e792bb6db276952ae"], "sequence": 4294967295, "scriptSig": {"hex": "2200205fdd641234b13964b223bd85ad2a4a667ca2099df3d42a1d3b45706a8d81abf0", "asm": "00205fdd641234b13964b223bd85ad2a4a667ca2099df3d42a1d3b45706a8d81abf0"}, "vout": 1, "txid": "01d5b1fa2ba1a2a04ac734239a41a8e775ae4ee786614acf9f4a0243158b9e5f"}], "txid": "2c085a8359895049c8d53a50dee3463aca7ffdb8fca792e194002234472d5d05", "blocktime": 1537870268, "version": 1, "confirmations": 11518, "time": 1537870268, "locktime": 0, "vsize": 207, "size": 372}