{"hash": "a30f53b89391016fb43689d07c9703f8bf2bb1d058c22618997f2c13d51e432b", "blockhash": "00000000000000000018f53835495a110e01622372bf6ae95dc86f2b0ab887b0", "vout": [{"scriptPubKey": {"reqSigs": 1, "hex": "76a9140bb7a5ae93b77161f52cdbf9360667ac265f53bb88ac", "addresses": ["124xS9B9XpWGXATLMe46q6mBSMTGMfzvuY"], "asm": "OP_DUP OP_HASH160 0bb7a5ae93b77161f52cdbf9360667ac265f53bb OP_EQUALVERIFY OP_CHECKSIG", "type": "pubkeyhash"}, "value": 0.000437, "n": 0}, {"scriptPubKey": {"reqSigs": 1, "hex": "001437c4c862a382f6808c59e2c10c0a02aef08572d0", "addresses": ["bc1qxlzvsc4rstmgprzeutqsczsz4mcg2uks8r92py"], "asm": "0 37c4c862a382f6808c59e2c10c0a02aef08572d0", "type": "witness_v0_keyhash"}, "value": 1.049e-05, "n": 1}], "hex": "01000000000101a00b95c619807d1e20e396beb57262f90c6af51bb234cf73e20bdc716aae671b0000000000ffffffff02b4aa0000000000001976a9140bb7a5ae93b77161f52cdbf9360667ac265f53bb88ac190400000000000016001437c4c862a382f6808c59e2c10c0a02aef08572d002473044022003347f2ae5de9813ee0a4800ca964dca5832c9eed42f761361dd1253975717d502202b234cffa0c67caca289ba6348c529e711b0e150e92276d0ff2a24a27c74dd7b0121024a92bde7fb4238a4527442bb8b9ac159929d60ecd44f434a0f81016e9715c61f00000000", "vin": [{"txinwitness": ["3044022003347f2ae5de9813ee0a4800ca964dca5832c9eed42f761361dd1253975717d502202b234cffa0c67caca289ba6348c529e711b0e150e92276d0ff2a24a27c74dd7b01", "024a92bde7fb4238a4527442bb8b9ac159929d60ecd44f434a0f81016e9715c61f"], "sequence": 4294967295, "scriptSig": {"hex": "", "asm": ""}, "vout": 0, "txid": "1b67ae6a71dc0be273cf34b21bf56a0cf96272b5be96e3201e7d8019c6950ba0"}], "txid": "2c0add8ee3bc0546975f835455b12b3dcc05897ab25305b78d38843a4c4f3ffa", "blocktime": 1537870928, "version": 1, "confirmations": 11514, "time": 1537870928, "locktime": 0, "vsize": 144, "size": 225}