{"hash": "080a4a2a6b306014706feeae36c63c957a145971f954c5981d4b9b964d72fdd4", "blockhash": "0000000000000000000baef3f32e3676a92c3b2e5da21b426e4f302fc371ce76", "vout": [{"scriptPubKey": {"reqSigs": 1, "hex": "76a914dc08a6052756be85f10bc1bd2cd61b4ba771a5ce88ac", "addresses": ["1M4S27WCaKyy8rq14YGBF9pfyzUTL13Z4g"], "asm": "OP_DUP OP_HASH160 dc08a6052756be85f10bc1bd2cd61b4ba771a5ce OP_EQUALVERIFY OP_CHECKSIG", "type": "pubkeyhash"}, "value": 5.366e-05, "n": 0}, {"scriptPubKey": {"reqSigs": 1, "hex": "a9148ddb66c3371910a0ef8f38021cc4094e61e69f3a87", "addresses": ["3Ed62sPENkraPwpovPty9YMFGJ8FtTyv63"], "asm": "OP_HASH160 8ddb66c3371910a0ef8f38021cc4094e61e69f3a OP_EQUAL", "type": "scripthash"}, "value": 7.869e-05, "n": 1}], "hex": "01000000000101d78dca0126736a1e2ca659ac19832b651548a5127a2de0f79e137ea7a0ba5ecb0100000023220020fdd23d707f55451c4e006c77b5e8df35a185a8e99f9bda70bf0ded7913bb1eb3ffffffff02f6140000000000001976a914dc08a6052756be85f10bc1bd2cd61b4ba771a5ce88acbd1e00000000000017a9148ddb66c3371910a0ef8f38021cc4094e61e69f3a87040047304402206c8096516e6d6a3ca161a5733e3794c47c7010ab0b59f6ca106967f227b4a76a022036e8e9316b4b49dc669ca6806adb118815582d914b505aec7642ec06e40c5b0601483045022100a7866c110b9cb08e9f523aa41e4181b8d8faaf98541b4e8ce6212e05409a40c6022069b9dc263c79b709b1792039fd9734f755ce4860700ac64846c4df188dc7a58f014752210286c104577b978160849865bc23f9a6df9b53d41c8ffb486754b97b2a474a181c2103148c80a5bdfddb05ff5bcffc397c8ca748d8b435ec6a175bc9d7bfc7fc6f853752ae00000000", "vin": [{"txinwitness": ["", "304402206c8096516e6d6a3ca161a5733e3794c47c7010ab0b59f6ca106967f227b4a76a022036e8e9316b4b49dc669ca6806adb118815582d914b505aec7642ec06e40c5b0601", "3045022100a7866c110b9cb08e9f523aa41e4181b8d8faaf98541b4e8ce6212e05409a40c6022069b9dc263c79b709b1792039fd9734f755ce4860700ac64846c4df188dc7a58f01", "52210286c104577b978160849865bc23f9a6df9b53d41c8ffb486754b97b2a474a181c2103148c80a5bdfddb05ff5bcffc397c8ca748d8b435ec6a175bc9d7bfc7fc6f853752ae"], "sequence": 4294967295, "scriptSig": {"hex": "220020fdd23d707f55451c4e006c77b5e8df35a185a8e99f9bda70bf0ded7913bb1eb3", "asm": "0020fdd23d707f55451c4e006c77b5e8df35a185a8e99f9bda70bf0ded7913bb1eb3"}, "vout": 1, "txid": "cb5ebaa0a77e139ef7e02d7a12a54815652b8319ac59a62c1e6a732601ca8dd7"}], "txid": "2c100a16583a2c7cb8f228ed8a8a714e014f7e28c74ae7925a2e10425ee508fe", "blocktime": 1537876114, "version": 1, "confirmations": 11462, "time": 1537876114, "locktime": 0, "vsize": 208, "size": 373}