{"hash": "2c1002cf77af25fa07cc2d7f281bae9e48f9667d7c73787bc3e062640c5f6c09", "blockhash": "00000000000000000004ffacab907a6b429b9a5745fa0b75af4234bf69dd7176", "vout": [{"scriptPubKey": {"reqSigs": 1, "hex": "76a914e447de31cf1e0996e104307e78b5a412f573d2e588ac", "addresses": ["1Mp3ADB1PssizSdSpEJtxNWJRdATx4p81A"], "asm": "OP_DUP OP_HASH160 e447de31cf1e0996e104307e78b5a412f573d2e5 OP_EQUALVERIFY OP_CHECKSIG", "type": "pubkeyhash"}, "value": 0.03317568, "n": 0}, {"scriptPubKey": {"reqSigs": 1, "hex": "a914c927026a8ca520d2b962fceda3746ecc1d9f516787", "addresses": ["3L2cUXQDVWiEPfN7nJRnS2GPbqifmx8yqL"], "asm": "OP_HASH160 c927026a8ca520d2b962fceda3746ecc1d9f5167 OP_EQUAL", "type": "scripthash"}, "value": 0.09708728, "n": 1}], "hex": "010000000126db9f3927115edd9e5790a4744887b6911487b9771887285d86ea2b66d41b8b01000000fdfe0000483045022100b5925e473fee1fdea57f60a2f429957da92b729652c3444106cad2c7bb09ce2b02205c1b01b19e1786d60cab20a43dadef92ad54fd78cae3e90f0f91645dfa280bbb01483045022100c01c1432c43fe1e345d607c8ff749542b80bf97f75fb14ddf5c8a92ff22bbc6d02204c42d0879b2454b80701dbac9d61579803bc9be338d3b0228da510e00516fb91014c6952210312ae275d6cffb21af89b6b24e69f1fc9d2de296e0a0314272725d312bad26f1e210341bb692fd7cf9bb56372b6dc32e893dd5dc71cd9c1bb9723f22b7b6d151acfea2103a4879818abef8eb6910a537b4a6d34b589f397db99a77a3cfe4fb725d8c33e0953aeffffffff02409f3200000000001976a914e447de31cf1e0996e104307e78b5a412f573d2e588acb82494000000000017a914c927026a8ca520d2b962fceda3746ecc1d9f51678700000000", "vin": [{"sequence": 4294967295, "scriptSig": {"hex": "00483045022100b5925e473fee1fdea57f60a2f429957da92b729652c3444106cad2c7bb09ce2b02205c1b01b19e1786d60cab20a43dadef92ad54fd78cae3e90f0f91645dfa280bbb01483045022100c01c1432c43fe1e345d607c8ff749542b80bf97f75fb14ddf5c8a92ff22bbc6d02204c42d0879b2454b80701dbac9d61579803bc9be338d3b0228da510e00516fb91014c6952210312ae275d6cffb21af89b6b24e69f1fc9d2de296e0a0314272725d312bad26f1e210341bb692fd7cf9bb56372b6dc32e893dd5dc71cd9c1bb9723f22b7b6d151acfea2103a4879818abef8eb6910a537b4a6d34b589f397db99a77a3cfe4fb725d8c33e0953ae", "asm": "0 3045022100b5925e473fee1fdea57f60a2f429957da92b729652c3444106cad2c7bb09ce2b02205c1b01b19e1786d60cab20a43dadef92ad54fd78cae3e90f0f91645dfa280bbb[ALL] 3045022100c01c1432c43fe1e345d607c8ff749542b80bf97f75fb14ddf5c8a92ff22bbc6d02204c42d0879b2454b80701dbac9d61579803bc9be338d3b0228da510e00516fb91[ALL] 52210312ae275d6cffb21af89b6b24e69f1fc9d2de296e0a0314272725d312bad26f1e210341bb692fd7cf9bb56372b6dc32e893dd5dc71cd9c1bb9723f22b7b6d151acfea2103a4879818abef8eb6910a537b4a6d34b589f397db99a77a3cfe4fb725d8c33e0953ae"}, "vout": 1, "txid": "8b1bd4662bea865d28871877b9871491b6874874a490579edd5e1127399fdb26"}], "txid": "2c1002cf77af25fa07cc2d7f281bae9e48f9667d7c73787bc3e062640c5f6c09", "blocktime": 1537875543, "version": 1, "confirmations": 11464, "time": 1537875543, "locktime": 0, "vsize": 373, "size": 373}