{"hash": "a133b2f4041bfba05462f8f52058334ee9f3ef3b45aae0d72cef5939d97f62a7", "blockhash": "000000000000000000022b45ed06c6f4ccd3cf7fb5ba4856ebd2e58215665228", "vout": [{"scriptPubKey": {"reqSigs": 1, "hex": "76a914cf27d9b75475514f76264cd37b903045025c7a8688ac", "addresses": ["1KtLcZtFAtKQbuHwdpAV7CX9uUua112m31"], "asm": "OP_DUP OP_HASH160 cf27d9b75475514f76264cd37b903045025c7a86 OP_EQUALVERIFY OP_CHECKSIG", "type": "pubkeyhash"}, "value": 0.079282, "n": 0}, {"scriptPubKey": {"reqSigs": 1, "hex": "a91492e8c3abeb95e9e334e65094be4836dd156aefe487", "addresses": ["3F5oRJQqsej1Msf6zgvrCMnCHv88WuM6qQ"], "asm": "OP_HASH160 92e8c3abeb95e9e334e65094be4836dd156aefe4 OP_EQUAL", "type": "scripthash"}, "value": 0.024027, "n": 1}], "hex": "01000000000101c75ba8656c7820e5a45110fe50fde7a5d427bf61520a49740d35e84545ff5cf1000000002322002021f98c45e4acb51a6144a01253a93599939f7a3186908b141f7c8558e6c2f474ffffffff0288f97800000000001976a914cf27d9b75475514f76264cd37b903045025c7a8688ac8ca924000000000017a91492e8c3abeb95e9e334e65094be4836dd156aefe4870400483045022100d6f200ac6fcf0540e80de14ccf890a1c20f86c3582c521913074707d57a331b80220497066d1b7062f1a81849b402cd6a1cd7237e44f4c9f9ced466dd6c934cc83d001483045022100f81fd6f611db92173705db2f92ff1564be58126518097b2db19d4d5a3c1b8c070220497166c29add0bb8b1aacef212dd6c676499c9c0954e026ab3032037346bd4580169522102eca8cd7bab710bc10597a4830fbcdb6a176c4b71ad9a7d26f544ef497c8a3e6921024e868dd390d895f6b08026ce2c9f5a5bb3a470fdc5ef36be32157577c9081cee210381c5938cac9d35a3312f5a02ece7e3cfec31fe09735a2f9295c1df93cae3d9ca53ae00000000", "vin": [{"txinwitness": ["", "3045022100d6f200ac6fcf0540e80de14ccf890a1c20f86c3582c521913074707d57a331b80220497066d1b7062f1a81849b402cd6a1cd7237e44f4c9f9ced466dd6c934cc83d001", "3045022100f81fd6f611db92173705db2f92ff1564be58126518097b2db19d4d5a3c1b8c070220497166c29add0bb8b1aacef212dd6c676499c9c0954e026ab3032037346bd45801", "522102eca8cd7bab710bc10597a4830fbcdb6a176c4b71ad9a7d26f544ef497c8a3e6921024e868dd390d895f6b08026ce2c9f5a5bb3a470fdc5ef36be32157577c9081cee210381c5938cac9d35a3312f5a02ece7e3cfec31fe09735a2f9295c1df93cae3d9ca53ae"], "sequence": 4294967295, "scriptSig": {"hex": "22002021f98c45e4acb51a6144a01253a93599939f7a3186908b141f7c8558e6c2f474", "asm": "002021f98c45e4acb51a6144a01253a93599939f7a3186908b141f7c8558e6c2f474"}, "vout": 0, "txid": "f15cff4545e8350d74490a5261bf27d4a5e7fd50fe1051a4e520786c65a85bc7"}], "txid": "2c159c597f9ea54877362e022ea4286a82185955f881c2e8105bc14efc413246", "blocktime": 1537869901, "version": 1, "confirmations": 11524, "time": 1537869901, "locktime": 0, "vsize": 216, "size": 408}