{"hash": "13b214bcf3cf32d70c0b9e5494da39bb5408ee698adddadd3782ee403184cba8", "blockhash": "00000000000000000017f5eb5941039fbcee6240d03bc1f2f8e35350df66a1d8", "vout": [{"scriptPubKey": {"reqSigs": 1, "hex": "a914265e3d253ff771580b0824eb1c5c0d52278b31e887", "addresses": ["35BtVfRqqhHmojQtER85ycD2bZeajp5d5k"], "asm": "OP_HASH160 265e3d253ff771580b0824eb1c5c0d52278b31e8 OP_EQUAL", "type": "scripthash"}, "value": 0.00084428, "n": 0}, {"scriptPubKey": {"reqSigs": 1, "hex": "a9140be7846be16b05bea00dbec2fcd7e045a793cb1787", "addresses": ["32mxhko5mJHfkbkDPpz7SfdJwEJi21P1WK"], "asm": "OP_HASH160 0be7846be16b05bea00dbec2fcd7e045a793cb17 OP_EQUAL", "type": "scripthash"}, "value": 0.18215586, "n": 1}], "hex": "01000000000101077929425390b4645625f6a76c57aa8e1da8df104761d0a9d2fc77a26ce8fc4201000000232200202c66ece6da72bcbfeadf83a91236f4891c13e14d8ecebdcaa81666fc1aa73a31ffffffff02cc4901000000000017a914265e3d253ff771580b0824eb1c5c0d52278b31e887a2f215010000000017a9140be7846be16b05bea00dbec2fcd7e045a793cb1787040047304402200f033c4e9f2a04afc885271bc8b13f53f904133eb32796c45d8b18a8be1ae93002200084c75f11c5f75922d8ae5e7bd6f2a88fbfbe7d589d291a117158993406d1ae014730440220229e5c8b523d0ce471336308d59f9633353c37c17d52d848afab165dae187c3002201b28cc0021e2672b51883a9f951104cc36c92944f3839986abd54ca48b165ae501475221029e6fbb942d34a473faaa5557c1bfe08d72102f0b9754ad140fd369d7a3ba3cdc2103871fc2ca08e6950b38867e8e6a0e94ee625223d3aa0df5c65f414c6d784467e252ae00000000", "vin": [{"txinwitness": ["", "304402200f033c4e9f2a04afc885271bc8b13f53f904133eb32796c45d8b18a8be1ae93002200084c75f11c5f75922d8ae5e7bd6f2a88fbfbe7d589d291a117158993406d1ae01", "30440220229e5c8b523d0ce471336308d59f9633353c37c17d52d848afab165dae187c3002201b28cc0021e2672b51883a9f951104cc36c92944f3839986abd54ca48b165ae501", "5221029e6fbb942d34a473faaa5557c1bfe08d72102f0b9754ad140fd369d7a3ba3cdc2103871fc2ca08e6950b38867e8e6a0e94ee625223d3aa0df5c65f414c6d784467e252ae"], "sequence": 4294967295, "scriptSig": {"hex": "2200202c66ece6da72bcbfeadf83a91236f4891c13e14d8ecebdcaa81666fc1aa73a31", "asm": "00202c66ece6da72bcbfeadf83a91236f4891c13e14d8ecebdcaa81666fc1aa73a31"}, "vout": 1, "txid": "42fce86ca277fcd2a9d0614710dfa81d8eaa576ca7f6255664b4905342297907"}], "txid": "2c17eb0f093eafa503b371d25185583f438c04d1685ae5273c5dd27d3438c952", "blocktime": 1537874412, "version": 1, "confirmations": 11467, "time": 1537874412, "locktime": 0, "vsize": 205, "size": 370}