{"hash": "2c192a59ca3733b3e33c52f038b9814a3c243fbf791e445f9f789082e4937ce3", "blockhash": "0000000000000000000dcc0f55137456b1a82d3642486a52398922ac4d620174", "vout": [{"scriptPubKey": {"reqSigs": 1, "hex": "76a9144a0f1e2f2b0d7daeec5265f10bbbbe08ed725e8988ac", "addresses": ["17kb7c9ndg7ioSuzMWEHWECdEVUegNkcGc"], "asm": "OP_DUP OP_HASH160 4a0f1e2f2b0d7daeec5265f10bbbbe08ed725e89 OP_EQUALVERIFY OP_CHECKSIG", "type": "pubkeyhash"}, "value": 0.00086156, "n": 0}], "hex": "0100000001ce25e29d8bf00b447d9605690eb71bc2921f15c0f2b2d5bdfb7cbca9d87efd99000000006a473044022066a096e258d4d7554ef600898a9b2a030770a6c7db8927090947d2525cd32c3b022075729967fb43319cf52087f8d0b811971abb08a106a8437d3f895b1737161dbf012102b6634e9945455c71244a20dfcfbf646ba238d45019158f9c0dfd7991cdabb613ffffffff018c500100000000001976a9144a0f1e2f2b0d7daeec5265f10bbbbe08ed725e8988ac00000000", "vin": [{"sequence": 4294967295, "scriptSig": {"hex": "473044022066a096e258d4d7554ef600898a9b2a030770a6c7db8927090947d2525cd32c3b022075729967fb43319cf52087f8d0b811971abb08a106a8437d3f895b1737161dbf012102b6634e9945455c71244a20dfcfbf646ba238d45019158f9c0dfd7991cdabb613", "asm": "3044022066a096e258d4d7554ef600898a9b2a030770a6c7db8927090947d2525cd32c3b022075729967fb43319cf52087f8d0b811971abb08a106a8437d3f895b1737161dbf[ALL] 02b6634e9945455c71244a20dfcfbf646ba238d45019158f9c0dfd7991cdabb613"}, "vout": 0, "txid": "99fd7ed8a9bc7cfbbdd5b2f2c0151f92c21bb70e6905967d440bf08b9de225ce"}], "txid": "2c192a59ca3733b3e33c52f038b9814a3c243fbf791e445f9f789082e4937ce3", "blocktime": 1537870268, "version": 1, "confirmations": 11516, "time": 1537870268, "locktime": 0, "vsize": 191, "size": 191}