{"hash": "735a9851e0feec46f9c07190f33827ff48a1f6171fb5f4ed39cfcede742534eb", "blockhash": "0000000000000000001f0ddff1eddb255c1121bcd4da4f1bc9a0da00cae72433", "vout": [{"scriptPubKey": {"reqSigs": 1, "hex": "76a9147101f1ddd8d6530a22de8ebd5464c899b04d687f88ac", "addresses": ["1BJXgobLXFECUhdEgMpQK5Z3kmAGCSQMKG"], "asm": "OP_DUP OP_HASH160 7101f1ddd8d6530a22de8ebd5464c899b04d687f OP_EQUALVERIFY OP_CHECKSIG", "type": "pubkeyhash"}, "value": 30.0, "n": 0}, {"scriptPubKey": {"reqSigs": 1, "hex": "a91430f00cf5d97fc2b6ce8a2a1022386470c56daf0287", "addresses": ["369mvm84bPTmGwznN7Z7wpZ6vBNzWcTSqu"], "asm": "OP_HASH160 30f00cf5d97fc2b6ce8a2a1022386470c56daf02 OP_EQUAL", "type": "scripthash"}, "value": 160.0008352, "n": 1}], "hex": "0100000000010131ee52eeabcd2a5710dc995b62bee5ed6356ec9bab27633c62f2e322800c8d900100000017160014604c1de472d822fc57956ceadd5e191bede147a0ffffff0002005ed0b2000000001976a9147101f1ddd8d6530a22de8ebd5464c899b04d687f88ac40e6adb90300000017a91430f00cf5d97fc2b6ce8a2a1022386470c56daf02870247304402206215aeb0bdc424dcd35275de989b8fc35527fe9e3d3d662d26ff2df88e776f23022061f78784e27af38050b097313b600b6095fc679ad3abdd62d07c246a2df5cfaa012103a165fca0e331836d61221d0055899346b69349783170f6cfbcfb5f8f0a1dce4600000000", "vin": [{"txinwitness": ["304402206215aeb0bdc424dcd35275de989b8fc35527fe9e3d3d662d26ff2df88e776f23022061f78784e27af38050b097313b600b6095fc679ad3abdd62d07c246a2df5cfaa01", "03a165fca0e331836d61221d0055899346b69349783170f6cfbcfb5f8f0a1dce46"], "sequence": 16777215, "scriptSig": {"hex": "160014604c1de472d822fc57956ceadd5e191bede147a0", "asm": "0014604c1de472d822fc57956ceadd5e191bede147a0"}, "vout": 1, "txid": "908d0c8022e3f2623c6327ab9bec5663ede5be625b99dc10572acdabee52ee31"}], "txid": "2c1912f81cc44334be87db2ddd6730823c58894909791172f86e476cebb142de", "blocktime": 1537872018, "version": 1, "confirmations": 11489, "time": 1537872018, "locktime": 0, "vsize": 168, "size": 249}