{"hash": "2c1b8a0473424859f10de0f593062cf171b03b1c7121f4ac256564167d18c8dd", "blockhash": "000000000000000000022b45ed06c6f4ccd3cf7fb5ba4856ebd2e58215665228", "vout": [{"scriptPubKey": {"type": "nulldata", "hex": "6a146f6d6e69000000000000001f00000012a124da30", "asm": "OP_RETURN 6f6d6e69000000000000001f00000012a124da30"}, "value": 0.0, "n": 0}, {"scriptPubKey": {"reqSigs": 1, "hex": "76a91488d924f51033b74a895863a5fb57fd545529df7d88ac", "addresses": ["1DUb2YYbQA1jjaNYzVXLZ7ZioEhLXtbUru"], "asm": "OP_DUP OP_HASH160 88d924f51033b74a895863a5fb57fd545529df7d OP_EQUALVERIFY OP_CHECKSIG", "type": "pubkeyhash"}, "value": 5.46e-06, "n": 1}, {"scriptPubKey": {"reqSigs": 1, "hex": "76a914a7ecf330f2884184ae8849725ec6f7b5b160974488ac", "addresses": ["1GJuhcG33QmAJo46vPJZCC3SdjucrbfxXG"], "asm": "OP_DUP OP_HASH160 a7ecf330f2884184ae8849725ec6f7b5b1609744 OP_EQUALVERIFY OP_CHECKSIG", "type": "pubkeyhash"}, "value": 0.00495943, "n": 2}], "hex": "010000000161d7b7ed788ce93e1899f87bf638d94d6b2c014022038d3ace8c574598fb8f03000000006a47304402201b6b415cc4a2b0e352dbca2aa2e84e8450ceeab20cd3d5a25a598be651d69bdc0220545c2b14196805cb80b1806c125958e74e7c4a1efaf50e4e94cfc2b2aca03a52012102ee412d72e9df31bc6b68df1db57363a6dfdcd505690f819339f9fc201a570cfffeffffff030000000000000000166a146f6d6e69000000000000001f00000012a124da3022020000000000001976a91488d924f51033b74a895863a5fb57fd545529df7d88ac47910700000000001976a914a7ecf330f2884184ae8849725ec6f7b5b160974488ac0b490800", "vin": [{"sequence": 4294967294, "scriptSig": {"hex": "47304402201b6b415cc4a2b0e352dbca2aa2e84e8450ceeab20cd3d5a25a598be651d69bdc0220545c2b14196805cb80b1806c125958e74e7c4a1efaf50e4e94cfc2b2aca03a52012102ee412d72e9df31bc6b68df1db57363a6dfdcd505690f819339f9fc201a570cff", "asm": "304402201b6b415cc4a2b0e352dbca2aa2e84e8450ceeab20cd3d5a25a598be651d69bdc0220545c2b14196805cb80b1806c125958e74e7c4a1efaf50e4e94cfc2b2aca03a52[ALL] 02ee412d72e9df31bc6b68df1db57363a6dfdcd505690f819339f9fc201a570cff"}, "vout": 0, "txid": "038ffb9845578cce3a8d032240012c6b4dd938f67bf899183ee98c78edb7d761"}], "txid": "2c1b8a0473424859f10de0f593062cf171b03b1c7121f4ac256564167d18c8dd", "blocktime": 1537869901, "version": 1, "confirmations": 11522, "time": 1537869901, "locktime": 542987, "vsize": 256, "size": 256}