{"hash": "1fa21bad8b0b11ad8f812dd4402f579e842ac95eb9fc14911314c9e8d3b88355", "blockhash": "00000000000000000024a2167bbff67b0be802c0b01cdd79e6331c2be6459f87", "vout": [{"scriptPubKey": {"reqSigs": 1, "hex": "76a914496eec1aee4760bb653cf21cd59a7fae2aecf4b488ac", "addresses": ["17hHD27TP7B7LJvgZmduPUzR7XM5pJGYbx"], "asm": "OP_DUP OP_HASH160 496eec1aee4760bb653cf21cd59a7fae2aecf4b4 OP_EQUALVERIFY OP_CHECKSIG", "type": "pubkeyhash"}, "value": 0.00912, "n": 0}, {"scriptPubKey": {"reqSigs": 1, "hex": "a91469123e1bd43927629d88d71755c4dc1524591a7887", "addresses": ["3BGajCqQM87r18t1YpbGGfdrKasemCg1cq"], "asm": "OP_HASH160 69123e1bd43927629d88d71755c4dc1524591a78 OP_EQUAL", "type": "scripthash"}, "value": 0.23145747, "n": 1}], "hex": "01000000000101667427736e9b71a6592ff680cc5313655ead3434f08ee27d278970fa62ed55ac000000002322002035ea7d3487ff4cb3a2df493c49964b8df14c243f4c82b0898fd0b55fa46f4992ffffffff0280ea0d00000000001976a914496eec1aee4760bb653cf21cd59a7fae2aecf4b488ac132d61010000000017a91469123e1bd43927629d88d71755c4dc1524591a78870400483045022100b3b9499318bc87a13bb77a00cfe1566091e6344a5e66511c4e5337c1987e9e1f022002c7942b554f9587ee251170df3e09e1e0280426d3a46a09c7e361c7dc847981014830450221009e74ed2344d8795f8c59f704ee9708eaf6191975f687aa9aa7f29775c01002e002205341111cc2e0338023b5657f920805fedb8d1b7011b6d59375193e4bbdb4d65d0169522102a68bd207e00ea5747f9f224bf5a8d9bbb1a640782adb4f0485c1253c872b89702102b540a073a224712e173366849ada64f21ca979e18d6009f2bf8ed00de3bf21c221037f48e1a99efefde08e496210a3a13d5898ae800ab19fd971e9ea53dc1344a9dd53ae00000000", "vin": [{"txinwitness": ["", "3045022100b3b9499318bc87a13bb77a00cfe1566091e6344a5e66511c4e5337c1987e9e1f022002c7942b554f9587ee251170df3e09e1e0280426d3a46a09c7e361c7dc84798101", "30450221009e74ed2344d8795f8c59f704ee9708eaf6191975f687aa9aa7f29775c01002e002205341111cc2e0338023b5657f920805fedb8d1b7011b6d59375193e4bbdb4d65d01", "522102a68bd207e00ea5747f9f224bf5a8d9bbb1a640782adb4f0485c1253c872b89702102b540a073a224712e173366849ada64f21ca979e18d6009f2bf8ed00de3bf21c221037f48e1a99efefde08e496210a3a13d5898ae800ab19fd971e9ea53dc1344a9dd53ae"], "sequence": 4294967295, "scriptSig": {"hex": "22002035ea7d3487ff4cb3a2df493c49964b8df14c243f4c82b0898fd0b55fa46f4992", "asm": "002035ea7d3487ff4cb3a2df493c49964b8df14c243f4c82b0898fd0b55fa46f4992"}, "vout": 0, "txid": "ac55ed62fa7089277de28ef03434ad5e651353cc80f62f59a6719b6e73277466"}], "txid": "2c2537e90a43df0ff9528d2d4f8cef26d733a79681f95db2e3c62ac31c85b985", "blocktime": 1537870564, "version": 1, "confirmations": 11515, "time": 1537870564, "locktime": 0, "vsize": 216, "size": 408}