{"hash": "fa27327ea2e3439de5198b2724c7c9e040cf0593ec7e9c7275c685e359a222f4", "blockhash": "0000000000000000001cda96e906b7601b7a6fb1a3b62bca570a9e5d8f4b3de1", "vout": [{"scriptPubKey": {"reqSigs": 1, "hex": "a914b93d47131222dd0c5d852ee9b494ed94008d168187", "addresses": ["3JaULgDy7i7ZpLBptyLRp8NosQXxSRsy83"], "asm": "OP_HASH160 b93d47131222dd0c5d852ee9b494ed94008d1681 OP_EQUAL", "type": "scripthash"}, "value": 2.85216878, "n": 0}, {"scriptPubKey": {"reqSigs": 1, "hex": "a914b6cb254022459f625e59d9b4a09455ad9f8674f087", "addresses": ["3JMYGFhw7hpfgSs4xHY1ajLCWQjA59yhKW"], "asm": "OP_HASH160 b6cb254022459f625e59d9b4a09455ad9f8674f0 OP_EQUAL", "type": "scripthash"}, "value": 0.826471, "n": 1}], "hex": "020000000001014f054ba4b434b48a1453c6debabbb79151b3200a260c3b4f90a25e4f2b767b16000000001716001464c90d51c35f2c253f3ab686dcfd2c0add10dbd5feffffff026e1000110000000017a914b93d47131222dd0c5d852ee9b494ed94008d1681873c18ed040000000017a914b6cb254022459f625e59d9b4a09455ad9f8674f08702483045022100f7ec88e70310f750a876f17ea7696a6449a390a6395cfc4149e96dd9b3f89e4e0220418282d72e2b786d70a176566987e084e065788a8247c5caee2d04233c75179a01210214b363708ca6dd8035abfb70e474497b045c1f4fa0c3e2f902f1e8ad100eba3e13490800", "vin": [{"txinwitness": ["3045022100f7ec88e70310f750a876f17ea7696a6449a390a6395cfc4149e96dd9b3f89e4e0220418282d72e2b786d70a176566987e084e065788a8247c5caee2d04233c75179a01", "0214b363708ca6dd8035abfb70e474497b045c1f4fa0c3e2f902f1e8ad100eba3e"], "sequence": 4294967294, "scriptSig": {"hex": "16001464c90d51c35f2c253f3ab686dcfd2c0add10dbd5", "asm": "001464c90d51c35f2c253f3ab686dcfd2c0add10dbd5"}, "vout": 0, "txid": "167b762b4f5ea2904f3b0c260a20b35191b7bbbadec653148ab434b4a44b054f"}], "txid": "2c260d4689a82dfa2c384904595b103c8532706118dc85b4127f2c31e3ac1fb9", "blocktime": 1537873282, "version": 2, "confirmations": 11484, "time": 1537873282, "locktime": 542995, "vsize": 166, "size": 248}