{"hash": "2c2620b018776e83d92547652da3c8326aa5460356120742c85bebf88611a91d", "blockhash": "0000000000000000000dcc0f55137456b1a82d3642486a52398922ac4d620174", "vout": [{"scriptPubKey": {"reqSigs": 1, "hex": "76a914a520c86a08366941cd90d22e11ac1c7eefa2db3788ac", "addresses": ["1G47mSr3oANXMafVrR8UC4pzV7FEAzo3r9"], "asm": "OP_DUP OP_HASH160 a520c86a08366941cd90d22e11ac1c7eefa2db37 OP_EQUALVERIFY OP_CHECKSIG", "type": "pubkeyhash"}, "value": 1.07956948, "n": 0}, {"scriptPubKey": {"reqSigs": 1, "hex": "76a914c051b8c23df2564f56ee992053db55468d55b8b988ac", "addresses": ["1JXtdxRrybVeCFxMkimT5uauidJnks8FgV"], "asm": "OP_DUP OP_HASH160 c051b8c23df2564f56ee992053db55468d55b8b9 OP_EQUALVERIFY OP_CHECKSIG", "type": "pubkeyhash"}, "value": 0.02056999, "n": 1}], "hex": "01000000010752e5ea377978d31c5240ac4818dcfe1661a4e395fb83b1cc9e43c8d4f52a55000000006b483045022100b9673bef1f9f1451bb75e86f80ad9b58e825515cad886359f8f01c2eb6a4a27402204fef5d0884a8344c1989cb07482e6cea8a72ce200cc89b720b11954574e30f1d012103f3f44c9e80e2cedc1a2909631a3adea8866ee32187f74d0912387359b0ff36a2ffffffff02d44a6f06000000001976a914a520c86a08366941cd90d22e11ac1c7eefa2db3788ac27631f00000000001976a914c051b8c23df2564f56ee992053db55468d55b8b988ac00000000", "vin": [{"sequence": 4294967295, "scriptSig": {"hex": "483045022100b9673bef1f9f1451bb75e86f80ad9b58e825515cad886359f8f01c2eb6a4a27402204fef5d0884a8344c1989cb07482e6cea8a72ce200cc89b720b11954574e30f1d012103f3f44c9e80e2cedc1a2909631a3adea8866ee32187f74d0912387359b0ff36a2", "asm": "3045022100b9673bef1f9f1451bb75e86f80ad9b58e825515cad886359f8f01c2eb6a4a27402204fef5d0884a8344c1989cb07482e6cea8a72ce200cc89b720b11954574e30f1d[ALL] 03f3f44c9e80e2cedc1a2909631a3adea8866ee32187f74d0912387359b0ff36a2"}, "vout": 0, "txid": "552af5d4c8439eccb183fb95e3a46116fedc1848ac40521cd3787937eae55207"}], "txid": "2c2620b018776e83d92547652da3c8326aa5460356120742c85bebf88611a91d", "blocktime": 1537870268, "version": 1, "confirmations": 11516, "time": 1537870268, "locktime": 0, "vsize": 226, "size": 226}