{"hash": "2c2f87f269d6b76d55a66bc38921eb316889adb4b504a2762f8beb4016456933", "blockhash": "0000000000000000000e13cef7c366c0283d82e591d1acd082e914b08063cdf1", "vout": [{"scriptPubKey": {"reqSigs": 1, "hex": "76a914b796d366fe6e7f766b956e08d0f116a51ad0c5b888ac", "addresses": ["1HjjLfYhneckB4ZnLNekFmoX6wqF69tKL8"], "asm": "OP_DUP OP_HASH160 b796d366fe6e7f766b956e08d0f116a51ad0c5b8 OP_EQUALVERIFY OP_CHECKSIG", "type": "pubkeyhash"}, "value": 0.00543558, "n": 0}, {"scriptPubKey": {"reqSigs": 1, "hex": "76a914fcc194b0ab42158eaae68d1ee4e60de4ff7775b588ac", "addresses": ["1Q3TBaCrhmfYuvRJhakyBjRunN2hacyQax"], "asm": "OP_DUP OP_HASH160 fcc194b0ab42158eaae68d1ee4e60de4ff7775b5 OP_EQUALVERIFY OP_CHECKSIG", "type": "pubkeyhash"}, "value": 0.03126607, "n": 1}], "hex": "01000000019ebe8607ad56fa48d8de9d5fecb306663435e106b7a40ef156d4e40f31b66607010000006a473044022055b3f92650d5abe9b3cca66aa4f8eeb6fe7309e48e5ff0ba097e05937713803902207c68ee2c26d2267400e182834d255e51f06556ee7f0b4e5e6347488c67c1d148012102721a7e28b27a042ab2083012a350ecf0be52aac6f71e675b145bdf1458a4d845ffffffff02464b0800000000001976a914b796d366fe6e7f766b956e08d0f116a51ad0c5b888ac4fb52f00000000001976a914fcc194b0ab42158eaae68d1ee4e60de4ff7775b588ac00000000", "vin": [{"sequence": 4294967295, "scriptSig": {"hex": "473044022055b3f92650d5abe9b3cca66aa4f8eeb6fe7309e48e5ff0ba097e05937713803902207c68ee2c26d2267400e182834d255e51f06556ee7f0b4e5e6347488c67c1d148012102721a7e28b27a042ab2083012a350ecf0be52aac6f71e675b145bdf1458a4d845", "asm": "3044022055b3f92650d5abe9b3cca66aa4f8eeb6fe7309e48e5ff0ba097e05937713803902207c68ee2c26d2267400e182834d255e51f06556ee7f0b4e5e6347488c67c1d148[ALL] 02721a7e28b27a042ab2083012a350ecf0be52aac6f71e675b145bdf1458a4d845"}, "vout": 1, "txid": "0766b6310fe4d456f10ea4b706e135346606b3ec5f9dded848fa56ad0786be9e"}], "txid": "2c2f87f269d6b76d55a66bc38921eb316889adb4b504a2762f8beb4016456933", "blocktime": 1537871767, "version": 1, "confirmations": 11493, "time": 1537871767, "locktime": 0, "vsize": 225, "size": 225}