{"hash": "2c382aee1a7fc0f06c9c3d99044959477888bfb2212a173a595ff42b765be97b", "blockhash": "00000000000000000018f53835495a110e01622372bf6ae95dc86f2b0ab887b0", "vout": [{"scriptPubKey": {"type": "nulldata", "hex": "6a146f6d6e69000000000000001f0000574fbde60000", "asm": "OP_RETURN 6f6d6e69000000000000001f0000574fbde60000"}, "value": 0.0, "n": 0}, {"scriptPubKey": {"reqSigs": 1, "hex": "76a9146e60ba513b7ee0fdef8fe72e792a30562375dfc888ac", "addresses": ["1B4dCsH6MC9XoZ6ob2nngvJesYEfNNtMQS"], "asm": "OP_DUP OP_HASH160 6e60ba513b7ee0fdef8fe72e792a30562375dfc8 OP_EQUALVERIFY OP_CHECKSIG", "type": "pubkeyhash"}, "value": 0.0035802, "n": 1}, {"scriptPubKey": {"reqSigs": 1, "hex": "76a914a25dec4d0011064ef106a983c39c7a540699f22088ac", "addresses": ["1FoWyxwPXuj4C6abqwhjDWdz6D4PZgYRjA"], "asm": "OP_DUP OP_HASH160 a25dec4d0011064ef106a983c39c7a540699f220 OP_EQUALVERIFY OP_CHECKSIG", "type": "pubkeyhash"}, "value": 5.46e-06, "n": 2}], "hex": "010000000129f9132cb50780fce52a4a58eea6fbfce672fdc1f40d10461f06e797c06ff93c020000006a473044022077a39c1c47d30e6287a6330a1be3ba7a037bd85f0d5e50161475b4ad672d4d5902203e1d8c0f1cc4e7ac2c9661c283e8fb8d38853d69dba80f1921458a30ca0b6382012103d3fd3652ca10a5d03b78c618d410fa7d86b6f47eecffdfa89d993a221f7d5541feffffff030000000000000000166a146f6d6e69000000000000001f0000574fbde6000084760500000000001976a9146e60ba513b7ee0fdef8fe72e792a30562375dfc888ac22020000000000001976a914a25dec4d0011064ef106a983c39c7a540699f22088ac0d490800", "vin": [{"sequence": 4294967294, "scriptSig": {"hex": "473044022077a39c1c47d30e6287a6330a1be3ba7a037bd85f0d5e50161475b4ad672d4d5902203e1d8c0f1cc4e7ac2c9661c283e8fb8d38853d69dba80f1921458a30ca0b6382012103d3fd3652ca10a5d03b78c618d410fa7d86b6f47eecffdfa89d993a221f7d5541", "asm": "3044022077a39c1c47d30e6287a6330a1be3ba7a037bd85f0d5e50161475b4ad672d4d5902203e1d8c0f1cc4e7ac2c9661c283e8fb8d38853d69dba80f1921458a30ca0b6382[ALL] 03d3fd3652ca10a5d03b78c618d410fa7d86b6f47eecffdfa89d993a221f7d5541"}, "vout": 2, "txid": "3cf96fc097e7061f46100df4c1fd72e6fcfba6ee584a2ae5fc8007b52c13f929"}], "txid": "2c382aee1a7fc0f06c9c3d99044959477888bfb2212a173a595ff42b765be97b", "blocktime": 1537870928, "version": 1, "confirmations": 11514, "time": 1537870928, "locktime": 542989, "vsize": 256, "size": 256}