{"hash": "a5c0eb9873384adafd733005188368cdcf90cc54fc003559d12992b1a479e0c9", "blockhash": "0000000000000000001f76057863aec43deb6fa401d9628bb513d65a8098bfab", "vout": [{"scriptPubKey": {"reqSigs": 1, "hex": "a9142b7d322698c58745335eb29d3c1f6ae56e32dd7d87", "addresses": ["35exxZDHgG14DxezMcVkA63Tnq5BCP2t96"], "asm": "OP_HASH160 2b7d322698c58745335eb29d3c1f6ae56e32dd7d OP_EQUAL", "type": "scripthash"}, "value": 0.00881394, "n": 0}, {"scriptPubKey": {"reqSigs": 1, "hex": "76a9141c40464b2b10fd0249762466f6316d73c6d4256c88ac", "addresses": ["13aNvFNB249gfZV6nwVreA6z5nhLdsiZKn"], "asm": "OP_DUP OP_HASH160 1c40464b2b10fd0249762466f6316d73c6d4256c OP_EQUALVERIFY OP_CHECKSIG", "type": "pubkeyhash"}, "value": 0.00866748, "n": 1}], "hex": "020000000001027e043566121e2ab556dc87944f672bbbf0d06cdeed245c681990881e868443a300000000171600146246492a5ce47edc4d2d5a9cd8367dcccc69289bfeffffffdb648e3fe5fef8655470a1cea2370267572be7c7a14f6688bf2e106ddb8ffbca0000000017160014b786a78bb39e2e02b707820774ff27a2a2c142f9feffffff02f2720d000000000017a9142b7d322698c58745335eb29d3c1f6ae56e32dd7d87bc390d00000000001976a9141c40464b2b10fd0249762466f6316d73c6d4256c88ac024830450221009d9f0a50f40df7615c504bdef5c29c9a05b92b27b1cc6c152de7884071bf30a102205abd876dfbbc0167f36512a0ad5909b9d7799d6d665f611d9306f35c4eee2398012102faf990e19944ee8e7caf1fa0ef94d7956484188fbb0ab4a3c21ae4a33887a0d302483045022100b43d39d08a3aa9e1a8f9d393517a9e54fc10c713d07952c8fbe89731610441cb0220191586ac4e7ddd5b9a27a313a897d09088843ed82b3ec6cc2c05b9287edfff73012103fa22ea70ced9c1bc61be687a51e317821a07112e420a569312fb2a79329e5e7c14490800", "vin": [{"txinwitness": ["30450221009d9f0a50f40df7615c504bdef5c29c9a05b92b27b1cc6c152de7884071bf30a102205abd876dfbbc0167f36512a0ad5909b9d7799d6d665f611d9306f35c4eee239801", "02faf990e19944ee8e7caf1fa0ef94d7956484188fbb0ab4a3c21ae4a33887a0d3"], "sequence": 4294967294, "scriptSig": {"hex": "1600146246492a5ce47edc4d2d5a9cd8367dcccc69289b", "asm": "00146246492a5ce47edc4d2d5a9cd8367dcccc69289b"}, "vout": 0, "txid": "a34384861e889019685c24edde6cd0f0bb2b674f9487dc56b52a1e126635047e"}, {"txinwitness": ["3045022100b43d39d08a3aa9e1a8f9d393517a9e54fc10c713d07952c8fbe89731610441cb0220191586ac4e7ddd5b9a27a313a897d09088843ed82b3ec6cc2c05b9287edfff7301", "03fa22ea70ced9c1bc61be687a51e317821a07112e420a569312fb2a79329e5e7c"], "sequence": 4294967294, "scriptSig": {"hex": "160014b786a78bb39e2e02b707820774ff27a2a2c142f9", "asm": "0014b786a78bb39e2e02b707820774ff27a2a2c142f9"}, "vout": 0, "txid": "cafb8fdb6d102ebf88664fa1c7e72b57670237a2cea1705465f8fee53f8e64db"}], "txid": "2c3c251247b0761aeef6467664ed08e5c9f8a55e705db18dd274c1072f4c7d0f", "blocktime": 1537873891, "version": 2, "confirmations": 11474, "time": 1537873891, "locktime": 542996, "vsize": 259, "size": 422}