{"hash": "958ecd78de492fdb62d533f6d1bc58032c27177acfd96cda05953fad822df597", "blockhash": "0000000000000000001e0dab787dd257d1dbfcb92a98c2207d5e1078be1f4165", "vout": [{"scriptPubKey": {"reqSigs": 1, "hex": "a914c801c0979414ff5611ac0d15c66a26ff4cabfffb87", "addresses": ["3KvZAfPV4Yu3UrStwYspcYM5QGtjDixxxg"], "asm": "OP_HASH160 c801c0979414ff5611ac0d15c66a26ff4cabfffb OP_EQUAL", "type": "scripthash"}, "value": 0.00070378, "n": 0}, {"scriptPubKey": {"reqSigs": 1, "hex": "a914494b8afb57777a4e642591fb682688ad541de02d87", "addresses": ["38NZkMq2qJaC5toxr7UDxRmhra7mQsjsgb"], "asm": "OP_HASH160 494b8afb57777a4e642591fb682688ad541de02d OP_EQUAL", "type": "scripthash"}, "value": 0.00018057, "n": 1}], "hex": "02000000000101ecb43c7847e94d85c5f7db50f72bc7c0203dcf739bbe7266a2738222cc1f73970100000017160014055718c2100e1fcaff47983f518c7ab52f845032feffffff02ea1201000000000017a914c801c0979414ff5611ac0d15c66a26ff4cabfffb87894600000000000017a914494b8afb57777a4e642591fb682688ad541de02d8702483045022100cff45ab1dd3ead2c50112f47aed22097787c799232b3b830a09dbc23a76fbd4202206ffe8910794641c3091db7a2b12cf2138858ed0f3c1191493c6820041d8ba3b6012103dddd940c1459a5c498e7447f3f599531e92e2382a02ab84704bf87936d02239d12490800", "vin": [{"txinwitness": ["3045022100cff45ab1dd3ead2c50112f47aed22097787c799232b3b830a09dbc23a76fbd4202206ffe8910794641c3091db7a2b12cf2138858ed0f3c1191493c6820041d8ba3b601", "03dddd940c1459a5c498e7447f3f599531e92e2382a02ab84704bf87936d02239d"], "sequence": 4294967294, "scriptSig": {"hex": "160014055718c2100e1fcaff47983f518c7ab52f845032", "asm": "0014055718c2100e1fcaff47983f518c7ab52f845032"}, "vout": 1, "txid": "97731fcc228273a26672be9b73cf3d20c0c72bf750dbf7c5854de947783cb4ec"}], "txid": "2c44dcf52c96c31686e90eff4816d762480ece181d364772439c429ad9fcb171", "blocktime": 1537872475, "version": 2, "confirmations": 11487, "time": 1537872475, "locktime": 542994, "vsize": 166, "size": 248}