{"hash": "ed5144f04e0fa193c1624f86114852f1b913a99aa1a9849a4e6827b7406f2b72", "blockhash": "0000000000000000001f76057863aec43deb6fa401d9628bb513d65a8098bfab", "vout": [{"scriptPubKey": {"reqSigs": 1, "hex": "76a914a9025987680a378aac5ba1b2a774022009d9011d88ac", "addresses": ["1GQe1gVbcEBxnuGPvWoMwRwgfQMwWAbr8M"], "asm": "OP_DUP OP_HASH160 a9025987680a378aac5ba1b2a774022009d9011d OP_EQUALVERIFY OP_CHECKSIG", "type": "pubkeyhash"}, "value": 0.04188155, "n": 0}, {"scriptPubKey": {"reqSigs": 1, "hex": "00146bf28d60e5982d9799d3b86ec836397f97f4187a", "addresses": ["bc1qd0eg6c89nqke0xwnhphvsd3e07tlgxr6drueyl"], "asm": "0 6bf28d60e5982d9799d3b86ec836397f97f4187a", "type": "witness_v0_keyhash"}, "value": 0.01224324, "n": 1}], "hex": "010000000001013a26242f6c3a6821e7a9c4ee83cc2d36a0e61101635716188a2556f30a4d09220000000017160014efc25259d11ac5ff1ecb3c951c3076888d2fa559ffffffff02fbe73f00000000001976a914a9025987680a378aac5ba1b2a774022009d9011d88ac84ae1200000000001600146bf28d60e5982d9799d3b86ec836397f97f4187a02473044022055e333142aa35077fa4ae7ffb7c142773478ee80cf4268fcaa61209e7a3341ab0220611b6098383d5e892d956badef1bd8656901593b8d8cd3b5c27680701951a6830121033dbd0128eecf89adad1d27ae1f355717c953f15ceeeb3cf0525856d91448c3a900000000", "vin": [{"txinwitness": ["3044022055e333142aa35077fa4ae7ffb7c142773478ee80cf4268fcaa61209e7a3341ab0220611b6098383d5e892d956badef1bd8656901593b8d8cd3b5c27680701951a68301", "033dbd0128eecf89adad1d27ae1f355717c953f15ceeeb3cf0525856d91448c3a9"], "sequence": 4294967295, "scriptSig": {"hex": "160014efc25259d11ac5ff1ecb3c951c3076888d2fa559", "asm": "0014efc25259d11ac5ff1ecb3c951c3076888d2fa559"}, "vout": 0, "txid": "22094d0af356258a181657630111e6a0362dcc83eec4a9e721683a6c2f24263a"}], "txid": "2c4f6f00568d896de871ea6dfe7a5dcb803b0ebf7d198fce354a3800c1e1912e", "blocktime": 1537873891, "version": 1, "confirmations": 11478, "time": 1537873891, "locktime": 0, "vsize": 167, "size": 248}