{"hash": "2c584125e039e279ba6529fdef5bb8c4c8531386e0a01eada3d26a3774db09e3", "blockhash": "0000000000000000001e0dab787dd257d1dbfcb92a98c2207d5e1078be1f4165", "vout": [{"scriptPubKey": {"reqSigs": 1, "hex": "76a91432d845ae570aca93950d0eff6984bd81b85511b588ac", "addresses": ["15dqsSv7TFPdQn9QCGiocfKSGUhJ81npEp"], "asm": "OP_DUP OP_HASH160 32d845ae570aca93950d0eff6984bd81b85511b5 OP_EQUALVERIFY OP_CHECKSIG", "type": "pubkeyhash"}, "value": 0.00018575, "n": 0}, {"scriptPubKey": {"type": "nulldata", "hex": "6a4c50000077af000133d242bfa6513a9aee3b9501af6c953dd567cf27e7e3ef3236678a62509767e2578ffb078e13fec09074c7521b0a5baa11320612075735e6fe334bbf23acfcfaac8058b692fe6808c31d", "asm": "OP_RETURN 000077af000133d242bfa6513a9aee3b9501af6c953dd567cf27e7e3ef3236678a62509767e2578ffb078e13fec09074c7521b0a5baa11320612075735e6fe334bbf23acfcfaac8058b692fe6808c31d"}, "value": 0.0, "n": 1}], "hex": "010000000114b97e4512a58915e2a8768534d0491d7f1bbe3d6a3b1f16c7f5548cc9091884000000006a47304402202ae97eea1cec223cae4f69abe8d0a7a1b190d96187c22c25c07ecdd862e33661022065c5f8f4f9b8e2a68d0c0637fb133167c6b97f9100313e0b01e1be70aab573b80121027fd94cd36a4109a1f21f22b46089de5156e6bd2c5a4b36f5a08e09fb400dfdeaffffffff028f480000000000001976a91432d845ae570aca93950d0eff6984bd81b85511b588ac0000000000000000536a4c50000077af000133d242bfa6513a9aee3b9501af6c953dd567cf27e7e3ef3236678a62509767e2578ffb078e13fec09074c7521b0a5baa11320612075735e6fe334bbf23acfcfaac8058b692fe6808c31d00000000", "vin": [{"sequence": 4294967295, "scriptSig": {"hex": "47304402202ae97eea1cec223cae4f69abe8d0a7a1b190d96187c22c25c07ecdd862e33661022065c5f8f4f9b8e2a68d0c0637fb133167c6b97f9100313e0b01e1be70aab573b80121027fd94cd36a4109a1f21f22b46089de5156e6bd2c5a4b36f5a08e09fb400dfdea", "asm": "304402202ae97eea1cec223cae4f69abe8d0a7a1b190d96187c22c25c07ecdd862e33661022065c5f8f4f9b8e2a68d0c0637fb133167c6b97f9100313e0b01e1be70aab573b8[ALL] 027fd94cd36a4109a1f21f22b46089de5156e6bd2c5a4b36f5a08e09fb400dfdea"}, "vout": 0, "txid": "841809c98c54f5c7161f3b6a3dbe1b7f1d49d0348576a8e21589a512457eb914"}], "txid": "2c584125e039e279ba6529fdef5bb8c4c8531386e0a01eada3d26a3774db09e3", "blocktime": 1537872475, "version": 1, "confirmations": 11486, "time": 1537872475, "locktime": 0, "vsize": 283, "size": 283}