{"hash": "2c59933a59a1be23c143c7d4b8948390d520653fb579d1251686c8376ff930a0", "blockhash": "00000000000000000004ffacab907a6b429b9a5745fa0b75af4234bf69dd7176", "vout": [{"scriptPubKey": {"reqSigs": 1, "hex": "76a91459d3fbfddcfb158f96df02aad810db2d87209fb388ac", "addresses": ["19By61Bsh47XSaYQhb2uoxSt88uyHvsEMV"], "asm": "OP_DUP OP_HASH160 59d3fbfddcfb158f96df02aad810db2d87209fb3 OP_EQUALVERIFY OP_CHECKSIG", "type": "pubkeyhash"}, "value": 0.0298, "n": 0}, {"scriptPubKey": {"reqSigs": 1, "hex": "76a9147c45023433aea27b48251d4c5a52b1d73caba74e88ac", "addresses": ["1CL5TbB2MaR4mrFjtYQ5GyA3cP2bSmPxAn"], "asm": "OP_DUP OP_HASH160 7c45023433aea27b48251d4c5a52b1d73caba74e OP_EQUALVERIFY OP_CHECKSIG", "type": "pubkeyhash"}, "value": 0.37907657, "n": 1}], "hex": "010000000118eb7d54e53b594dad60952d9772caf14717cec94660fbcd4a32611ff5226e82010000006b483045022100a037bb7498219c772d4c0e73172e58e3dad6e8bc8a81f145cf5f8669fe7257590220124f5d089e33d37b95889b65cde7980e319504c1a4624c177a30545e1ba6a5ac0121021fc349da71680b2482e4c307adbd7aa2fc16d2cd564843ab873a8efff748d87bffffffff02a0782d00000000001976a91459d3fbfddcfb158f96df02aad810db2d87209fb388acc96c4202000000001976a9147c45023433aea27b48251d4c5a52b1d73caba74e88ac00000000", "vin": [{"sequence": 4294967295, "scriptSig": {"hex": "483045022100a037bb7498219c772d4c0e73172e58e3dad6e8bc8a81f145cf5f8669fe7257590220124f5d089e33d37b95889b65cde7980e319504c1a4624c177a30545e1ba6a5ac0121021fc349da71680b2482e4c307adbd7aa2fc16d2cd564843ab873a8efff748d87b", "asm": "3045022100a037bb7498219c772d4c0e73172e58e3dad6e8bc8a81f145cf5f8669fe7257590220124f5d089e33d37b95889b65cde7980e319504c1a4624c177a30545e1ba6a5ac[ALL] 021fc349da71680b2482e4c307adbd7aa2fc16d2cd564843ab873a8efff748d87b"}, "vout": 1, "txid": "826e22f51f61324acdfb6046c9ce1747f1ca72972d9560ad4d593be5547deb18"}], "txid": "2c59933a59a1be23c143c7d4b8948390d520653fb579d1251686c8376ff930a0", "blocktime": 1537875543, "version": 1, "confirmations": 11464, "time": 1537875543, "locktime": 0, "vsize": 226, "size": 226}