{"hash": "ce1b735abff5c8a2075f3b986918545f8bb5ce997dc24f791bfe4214fa212492", "blockhash": "00000000000000000017f5eb5941039fbcee6240d03bc1f2f8e35350df66a1d8", "vout": [{"scriptPubKey": {"reqSigs": 1, "hex": "76a914694873a193c082c2a98b4b20330b4ca8655a95ef88ac", "addresses": ["1AbgkB4YMXBXmd76qGiFFPSxUQVEKWg2rY"], "asm": "OP_DUP OP_HASH160 694873a193c082c2a98b4b20330b4ca8655a95ef OP_EQUALVERIFY OP_CHECKSIG", "type": "pubkeyhash"}, "value": 0.01336346, "n": 0}, {"scriptPubKey": {"reqSigs": 1, "hex": "a9147631489be0df4a2d01960be2a32818b1e232abdf87", "addresses": ["3CTxhTzqLMtQqoHqh2MzKvotXBS86b2kqb"], "asm": "OP_HASH160 7631489be0df4a2d01960be2a32818b1e232abdf OP_EQUAL", "type": "scripthash"}, "value": 0.07694039, "n": 1}], "hex": "020000000001014533a71f6f1b476d02fa037b9160b87ffd8c7aa0eb3a2d1d8866168f9cf20b77010000001716001456a4be70a816f3d3cc093783928755ee9b3b3fc0feffffff021a641400000000001976a914694873a193c082c2a98b4b20330b4ca8655a95ef88acd76675000000000017a9147631489be0df4a2d01960be2a32818b1e232abdf8702483045022100c8670be454d2df387f7ec3c4b9cefa35db40576602e05e709d1b0665c49af2540220603b41d40265af60cb310b4dc3fdfee024cbb6f4c6f6ea2fb146dfeda8b1b9c90121032faf35f7493e4765e1f972c65e78b0527524d7855110baf2a4db396b2407828515490800", "vin": [{"txinwitness": ["3045022100c8670be454d2df387f7ec3c4b9cefa35db40576602e05e709d1b0665c49af2540220603b41d40265af60cb310b4dc3fdfee024cbb6f4c6f6ea2fb146dfeda8b1b9c901", "032faf35f7493e4765e1f972c65e78b0527524d7855110baf2a4db396b24078285"], "sequence": 4294967294, "scriptSig": {"hex": "16001456a4be70a816f3d3cc093783928755ee9b3b3fc0", "asm": "001456a4be70a816f3d3cc093783928755ee9b3b3fc0"}, "vout": 1, "txid": "770bf29c8f1666881d2d3aeba07a8cfd7fb860917b03fa026d471b6f1fa73345"}], "txid": "2c5914c413c15170e0709059b09da59a693c4b4344fd5ded3ec615a5b6780477", "blocktime": 1537874412, "version": 2, "confirmations": 11467, "time": 1537874412, "locktime": 542997, "vsize": 168, "size": 250}