{"hash": "80d90e19c88aae2b3005cced185e2512e8631f8aa70ad0a4a914a0802389c1fc", "blockhash": "000000000000000000022b45ed06c6f4ccd3cf7fb5ba4856ebd2e58215665228", "vout": [{"scriptPubKey": {"reqSigs": 1, "hex": "76a91461d5dc53d9cab127432808cb68f0b974a48c971e88ac", "addresses": ["19vJjuZsd1Cz9QoCb6C6bxtWrb5EpBugh4"], "asm": "OP_DUP OP_HASH160 61d5dc53d9cab127432808cb68f0b974a48c971e OP_EQUALVERIFY OP_CHECKSIG", "type": "pubkeyhash"}, "value": 0.99999648, "n": 0}, {"scriptPubKey": {"reqSigs": 1, "hex": "a9149b644a82a5658b5b5ef841ae93c41292ed6617a887", "addresses": ["3Freod3LwtAqiV3SAvvANi34r1j6f8sXnS"], "asm": "OP_HASH160 9b644a82a5658b5b5ef841ae93c41292ed6617a8 OP_EQUAL", "type": "scripthash"}, "value": 0.0100228, "n": 1}], "hex": "020000000001023fddd33f5187820acfbc1a359d8b241400d49c886a7afe4e341a67576f9518460000000017160014711fc323891e2708fbcf019337c1f407aefbb874feffffff6a0421df7b003edb29de4dd67f067abfcec6e01566960a1bae004bce579a6ea10100000017160014aca40a73c322064b541d6c526e5b2344d7b6b128feffffff02a0dff505000000001976a91461d5dc53d9cab127432808cb68f0b974a48c971e88ac284b0f000000000017a9149b644a82a5658b5b5ef841ae93c41292ed6617a88702483045022100bed6cdbf8a730fecef8ad9f1899dcec4ed7be92abd16d15055d4be39f558972202205d8bcc9f9cb27b3714255d0382cf574d5fa952a52cb2d4c2d5111bb225490ef4012102d89d731d14508644f931272caaab9a83ef62e3464a2537b7ce1ed874c9ba62680247304402203c81157e9405618c4da87e0ec6b010cce55e66bb715c640d67cfb258c8142c5d022043e79d823795fd831c89d8f8c8ff8c63969c8687965bbcaef0f335be4d7cba8e012103eb63701a8be9704e96c200139c5866f9dd035487aff8f0f28f1781ce1c95c7bd0b490800", "vin": [{"txinwitness": ["3045022100bed6cdbf8a730fecef8ad9f1899dcec4ed7be92abd16d15055d4be39f558972202205d8bcc9f9cb27b3714255d0382cf574d5fa952a52cb2d4c2d5111bb225490ef401", "02d89d731d14508644f931272caaab9a83ef62e3464a2537b7ce1ed874c9ba6268"], "sequence": 4294967294, "scriptSig": {"hex": "160014711fc323891e2708fbcf019337c1f407aefbb874", "asm": "0014711fc323891e2708fbcf019337c1f407aefbb874"}, "vout": 0, "txid": "4618956f57671a344efe7a6a889cd40014248b9d351abccf0a8287513fd3dd3f"}, {"txinwitness": ["304402203c81157e9405618c4da87e0ec6b010cce55e66bb715c640d67cfb258c8142c5d022043e79d823795fd831c89d8f8c8ff8c63969c8687965bbcaef0f335be4d7cba8e01", "03eb63701a8be9704e96c200139c5866f9dd035487aff8f0f28f1781ce1c95c7bd"], "sequence": 4294967294, "scriptSig": {"hex": "160014aca40a73c322064b541d6c526e5b2344d7b6b128", "asm": "0014aca40a73c322064b541d6c526e5b2344d7b6b128"}, "vout": 1, "txid": "a16e9a57ce4b00ae1b0a966615e0c6cebf7a067fd64dde29db3e007bdf21046a"}], "txid": "2c5b128b5a566b766c0ede49e51f59adc60f18b19db29af2dee6e997cf0a6af7", "blocktime": 1537869901, "version": 2, "confirmations": 11524, "time": 1537869901, "locktime": 542987, "vsize": 259, "size": 421}