{"hash": "2c5d0befa0eec429092f8becb9ff627bbef95408477245c98e7d83f2d62252d3", "blockhash": "00000000000000000024a2167bbff67b0be802c0b01cdd79e6331c2be6459f87", "vout": [{"scriptPubKey": {"reqSigs": 1, "hex": "76a914ba85152ad7c50b86281aa4be46dec287fc5b4f9d88ac", "addresses": ["1J1E7RoAfVDMt64XNqREsF1vmvzqXhRecv"], "asm": "OP_DUP OP_HASH160 ba85152ad7c50b86281aa4be46dec287fc5b4f9d OP_EQUALVERIFY OP_CHECKSIG", "type": "pubkeyhash"}, "value": 0.004616, "n": 0}, {"scriptPubKey": {"reqSigs": 1, "hex": "76a914cd4392707459834af8888e5e056d8ca6ae9ed28d88ac", "addresses": ["1KiLUK6qQbCQR5FMGRPesY8N99JKmfw2tu"], "asm": "OP_DUP OP_HASH160 cd4392707459834af8888e5e056d8ca6ae9ed28d OP_EQUALVERIFY OP_CHECKSIG", "type": "pubkeyhash"}, "value": 0.00610118, "n": 1}], "hex": "01000000013678267e6528c5fbf2963837a76043281ad99c9560c579d260b3e968673c933b010000006a47304402200f0d0a377a5a8a2f725d8d7193626da1c9662f568d727ee7773ff6408f960c8b022077894dc2ab36513326aae90eebfe90b6f008fda4cc35e968dc1f7467ac44ea280121030db4e96eca0b155c2c75d121d3c020e84d6033e582e47bd015c24dc96f4cd746ffffffff02200b0700000000001976a914ba85152ad7c50b86281aa4be46dec287fc5b4f9d88ac464f0900000000001976a914cd4392707459834af8888e5e056d8ca6ae9ed28d88ac00000000", "vin": [{"sequence": 4294967295, "scriptSig": {"hex": "47304402200f0d0a377a5a8a2f725d8d7193626da1c9662f568d727ee7773ff6408f960c8b022077894dc2ab36513326aae90eebfe90b6f008fda4cc35e968dc1f7467ac44ea280121030db4e96eca0b155c2c75d121d3c020e84d6033e582e47bd015c24dc96f4cd746", "asm": "304402200f0d0a377a5a8a2f725d8d7193626da1c9662f568d727ee7773ff6408f960c8b022077894dc2ab36513326aae90eebfe90b6f008fda4cc35e968dc1f7467ac44ea28[ALL] 030db4e96eca0b155c2c75d121d3c020e84d6033e582e47bd015c24dc96f4cd746"}, "vout": 1, "txid": "3b933c6768e9b360d279c560959cd91a284360a7373896f2fbc528657e267836"}], "txid": "2c5d0befa0eec429092f8becb9ff627bbef95408477245c98e7d83f2d62252d3", "blocktime": 1537870564, "version": 1, "confirmations": 11515, "time": 1537870564, "locktime": 0, "vsize": 225, "size": 225}