{"hash": "2c616fc4a935532edb369b840a8b362bd16627700235d30050c9254ca7010020", "blockhash": "00000000000000000017f5eb5941039fbcee6240d03bc1f2f8e35350df66a1d8", "vout": [{"scriptPubKey": {"reqSigs": 1, "hex": "0014279d6249b59d44eb187b1492ca0d306974ce5a68", "addresses": ["bc1qy7wkyjd4n4zwkxrmzjfv5rfsd96vukngmupx6r"], "asm": "0 279d6249b59d44eb187b1492ca0d306974ce5a68", "type": "witness_v0_keyhash"}, "value": 0.32487331, "n": 0}, {"scriptPubKey": {"reqSigs": 1, "hex": "76a914e71e9785447fe4a3218459ee098ac7dbf8f03c3d88ac", "addresses": ["1N53jsgCeHR4fWvNRzxx4q5iQyYC22TuR5"], "asm": "OP_DUP OP_HASH160 e71e9785447fe4a3218459ee098ac7dbf8f03c3d OP_EQUALVERIFY OP_CHECKSIG", "type": "pubkeyhash"}, "value": 0.18334796, "n": 1}], "hex": "010000000155757302a1256c99b52f097c6df0febb333de05f0a34e465169496319bb9aaac000000006b483045022100f9bb17052118642f74c039ac702f7c5b52b33dee0c53f8dad00555300ca3b8fc022076d7cb47d8c70718098d5fb1f2ee9dfc48f7e42a6346dd5b8951c255e6d5a8e2012103ac32b1b69ded918d3d8e0655c8d84409ed7ddb7bc06cc09cb94be09a9c2b4141ffffffff02a3b7ef0100000000160014279d6249b59d44eb187b1492ca0d306974ce5a684cc41701000000001976a914e71e9785447fe4a3218459ee098ac7dbf8f03c3d88ac00000000", "vin": [{"sequence": 4294967295, "scriptSig": {"hex": "483045022100f9bb17052118642f74c039ac702f7c5b52b33dee0c53f8dad00555300ca3b8fc022076d7cb47d8c70718098d5fb1f2ee9dfc48f7e42a6346dd5b8951c255e6d5a8e2012103ac32b1b69ded918d3d8e0655c8d84409ed7ddb7bc06cc09cb94be09a9c2b4141", "asm": "3045022100f9bb17052118642f74c039ac702f7c5b52b33dee0c53f8dad00555300ca3b8fc022076d7cb47d8c70718098d5fb1f2ee9dfc48f7e42a6346dd5b8951c255e6d5a8e2[ALL] 03ac32b1b69ded918d3d8e0655c8d84409ed7ddb7bc06cc09cb94be09a9c2b4141"}, "vout": 0, "txid": "acaab99b3196941665e4340a5fe03d33bbfef06d7c092fb5996c25a102737555"}], "txid": "2c616fc4a935532edb369b840a8b362bd16627700235d30050c9254ca7010020", "blocktime": 1537874412, "version": 1, "confirmations": 11467, "time": 1537874412, "locktime": 0, "vsize": 223, "size": 223}