{"hash": "03864a7b5d53e6b688c5f42b8467a7bd4c55435933fd88f013bf9558cb74b372", "blockhash": "000000000000000000022b45ed06c6f4ccd3cf7fb5ba4856ebd2e58215665228", "vout": [{"scriptPubKey": {"reqSigs": 1, "hex": "76a91437c3442412fd516ee90a8d52bbcfeadb135d9db788ac", "addresses": ["165r5tBNm9eogsaJGNxqhHXtctzksnNvEs"], "asm": "OP_DUP OP_HASH160 37c3442412fd516ee90a8d52bbcfeadb135d9db7 OP_EQUALVERIFY OP_CHECKSIG", "type": "pubkeyhash"}, "value": 0.417565, "n": 0}, {"scriptPubKey": {"reqSigs": 1, "hex": "a91423aa099e9557f5f102ed660cf4f3d5a5123ca3cf87", "addresses": ["34wbGg9PDHkpUsBchpvQa2Tko7iXKxfMQc"], "asm": "OP_HASH160 23aa099e9557f5f102ed660cf4f3d5a5123ca3cf OP_EQUAL", "type": "scripthash"}, "value": 0.25955758, "n": 1}], "hex": "0100000000010385e6cc9e337ee272bc30703791040ebf78a55fefeb0b1eb0f0d1e620adfc1de001000000232200208b92f2f7cb488fe0bc8ebf431314144bab534e513eee60da0feaee75d0d43d1bffffffff70c8987b53ea5a3a3490a8fc187746a5b9d7b481a9f8dfcfbe36a35f71514d3c00000000232200208b92f2f7cb488fe0bc8ebf431314144bab534e513eee60da0feaee75d0d43d1bffffffff40554b14df8fdaa8d9603edf3af8a2a333d79ec0e1ba24a854da382dd1e395f300000000232200208b92f2f7cb488fe0bc8ebf431314144bab534e513eee60da0feaee75d0d43d1bffffffff0254277d02000000001976a91437c3442412fd516ee90a8d52bbcfeadb135d9db788acae0d8c010000000017a91423aa099e9557f5f102ed660cf4f3d5a5123ca3cf870400483045022100de467c377175f79771845e8b0e9b444f30f3d8dde5763d7e308407bcfded10a00220595ab165fa45794d32216243fff1d0e59cfb1d3950c8ec200f34fa909135a48601483045022100c89526b790ebd1e74bea41e873b865ab70ae47ee1d5d240133548d73f1bfb75e022037b02b50c3d366eba89a96c6947ecdef83d456c4233a154324cfda861bb300110147522102f52e60714d84fa49ff5cc3865e850a786afe2304351684d1b6bb7957bcf3388d210283d52d99a2fdb0f0d556268f1c59b928850c93a660f141bba3bf37795b6cea0152ae0400483045022100af59ae4d4bc9399f6c3122845bddb7980c5e46a2179654f5b8ef4c3f66ff1f3a02201f566b36b226631cd0384fca43dbcf3dd05279d8715119b0f7c0a2b7a1be8f21014830450221009b06d6838b461dca6544d652fc2091710528a700ad7c276026719682b755b544022049ea109d35eec976249c0facb59076d5428f08b0b803ef801eee9a2ea70f0d050147522102f52e60714d84fa49ff5cc3865e850a786afe2304351684d1b6bb7957bcf3388d210283d52d99a2fdb0f0d556268f1c59b928850c93a660f141bba3bf37795b6cea0152ae040047304402200c71bd775174736aad955f05ffe45236879077051fd41c10bf91b5e14a0a86d0022024780be6c7b9a2595f6239483e926f0dc7098e412b984fccefa1817049e8d80a01483045022100e2eda71f05585a026aca15aa4c49499e5beae15bcf6a397eb7f7726f2237391f022079fc87fa94279a141a8fa329f96a229e9fdfd97cdca7a732d563b4ed151b220d0147522102f52e60714d84fa49ff5cc3865e850a786afe2304351684d1b6bb7957bcf3388d210283d52d99a2fdb0f0d556268f1c59b928850c93a660f141bba3bf37795b6cea0152ae00000000", "vin": [{"txinwitness": ["", "3045022100de467c377175f79771845e8b0e9b444f30f3d8dde5763d7e308407bcfded10a00220595ab165fa45794d32216243fff1d0e59cfb1d3950c8ec200f34fa909135a48601", "3045022100c89526b790ebd1e74bea41e873b865ab70ae47ee1d5d240133548d73f1bfb75e022037b02b50c3d366eba89a96c6947ecdef83d456c4233a154324cfda861bb3001101", "522102f52e60714d84fa49ff5cc3865e850a786afe2304351684d1b6bb7957bcf3388d210283d52d99a2fdb0f0d556268f1c59b928850c93a660f141bba3bf37795b6cea0152ae"], "sequence": 4294967295, "scriptSig": {"hex": "2200208b92f2f7cb488fe0bc8ebf431314144bab534e513eee60da0feaee75d0d43d1b", "asm": "00208b92f2f7cb488fe0bc8ebf431314144bab534e513eee60da0feaee75d0d43d1b"}, "vout": 1, "txid": "e01dfcad20e6d1f0b01e0bebef5fa578bf0e0491377030bc72e27e339ecce685"}, {"txinwitness": ["", "3045022100af59ae4d4bc9399f6c3122845bddb7980c5e46a2179654f5b8ef4c3f66ff1f3a02201f566b36b226631cd0384fca43dbcf3dd05279d8715119b0f7c0a2b7a1be8f2101", "30450221009b06d6838b461dca6544d652fc2091710528a700ad7c276026719682b755b544022049ea109d35eec976249c0facb59076d5428f08b0b803ef801eee9a2ea70f0d0501", "522102f52e60714d84fa49ff5cc3865e850a786afe2304351684d1b6bb7957bcf3388d210283d52d99a2fdb0f0d556268f1c59b928850c93a660f141bba3bf37795b6cea0152ae"], "sequence": 4294967295, "scriptSig": {"hex": "2200208b92f2f7cb488fe0bc8ebf431314144bab534e513eee60da0feaee75d0d43d1b", "asm": "00208b92f2f7cb488fe0bc8ebf431314144bab534e513eee60da0feaee75d0d43d1b"}, "vout": 0, "txid": "3c4d51715fa336becfdff8a981b4d7b9a5467718fca890343a5aea537b98c870"}, {"txinwitness": ["", "304402200c71bd775174736aad955f05ffe45236879077051fd41c10bf91b5e14a0a86d0022024780be6c7b9a2595f6239483e926f0dc7098e412b984fccefa1817049e8d80a01", "3045022100e2eda71f05585a026aca15aa4c49499e5beae15bcf6a397eb7f7726f2237391f022079fc87fa94279a141a8fa329f96a229e9fdfd97cdca7a732d563b4ed151b220d01", "522102f52e60714d84fa49ff5cc3865e850a786afe2304351684d1b6bb7957bcf3388d210283d52d99a2fdb0f0d556268f1c59b928850c93a660f141bba3bf37795b6cea0152ae"], "sequence": 4294967295, "scriptSig": {"hex": "2200208b92f2f7cb488fe0bc8ebf431314144bab534e513eee60da0feaee75d0d43d1b", "asm": "00208b92f2f7cb488fe0bc8ebf431314144bab534e513eee60da0feaee75d0d43d1b"}, "vout": 0, "txid": "f395e3d12d38da54a824bae1c09ed733a3a2f83adf3e60d9a8da8fdf144b5540"}], "txid": "2c6232df5ef6ea010608f7e3d61f7f39f23f7e98e91382f2d9734d2a7b4980bb", "blocktime": 1537869901, "version": 1, "confirmations": 11524, "time": 1537869901, "locktime": 0, "vsize": 470, "size": 965}