{"hash": "2c674dd56189ba09f7c3c4967226ecbea5218abe773410040d8be06438c6e668", "blockhash": "0000000000000000000baef3f32e3676a92c3b2e5da21b426e4f302fc371ce76", "vout": [{"scriptPubKey": {"type": "nulldata", "hex": "6a4c500000780a000164d14014a85533db26143c74702940d64fa54d8eb2d19ed074892d00f8e87a66167b63c3060e391d8b373de948765baa1b0906139d66014a6b801d100759d4ba30d2c37bb011d97e02cf", "asm": "OP_RETURN 0000780a000164d14014a85533db26143c74702940d64fa54d8eb2d19ed074892d00f8e87a66167b63c3060e391d8b373de948765baa1b0906139d66014a6b801d100759d4ba30d2c37bb011d97e02cf"}, "value": 0.0, "n": 0}, {"scriptPubKey": {"reqSigs": 1, "hex": "76a91403a1503c08e720f31da489e517afe80203f10cf188ac", "addresses": ["1LCGq2qevzxiWDg8PnMYjMjtTazF9vpEe"], "asm": "OP_DUP OP_HASH160 03a1503c08e720f31da489e517afe80203f10cf1 OP_EQUALVERIFY OP_CHECKSIG", "type": "pubkeyhash"}, "value": 0.00583075, "n": 1}], "hex": "010000000103138172c86eb0930bd84b1c1f8ab2e38dc530ec8ead63a33de2137ee3aa99f4010000006a47304402204f42b50697a7d9edf4067e57cc5aa7201a5119f933bf64dfb5fba41c3b58e6fb02207b999dbdc97ef8d31930878b4ee10e765330d585b43d3287046fe559301e00c7012103cc7861db456ef7da1a1dfac104c33514754eb3363bb2892e2911c9a35ba77b7fffffffff020000000000000000536a4c500000780a000164d14014a85533db26143c74702940d64fa54d8eb2d19ed074892d00f8e87a66167b63c3060e391d8b373de948765baa1b0906139d66014a6b801d100759d4ba30d2c37bb011d97e02cfa3e50800000000001976a91403a1503c08e720f31da489e517afe80203f10cf188ac00000000", "vin": [{"sequence": 4294967295, "scriptSig": {"hex": "47304402204f42b50697a7d9edf4067e57cc5aa7201a5119f933bf64dfb5fba41c3b58e6fb02207b999dbdc97ef8d31930878b4ee10e765330d585b43d3287046fe559301e00c7012103cc7861db456ef7da1a1dfac104c33514754eb3363bb2892e2911c9a35ba77b7f", "asm": "304402204f42b50697a7d9edf4067e57cc5aa7201a5119f933bf64dfb5fba41c3b58e6fb02207b999dbdc97ef8d31930878b4ee10e765330d585b43d3287046fe559301e00c7[ALL] 03cc7861db456ef7da1a1dfac104c33514754eb3363bb2892e2911c9a35ba77b7f"}, "vout": 1, "txid": "f499aae37e13e23da363ad8eec30c58de3b28a1f1c4bd80b93b06ec872811303"}], "txid": "2c674dd56189ba09f7c3c4967226ecbea5218abe773410040d8be06438c6e668", "blocktime": 1537876114, "version": 1, "confirmations": 11460, "time": 1537876114, "locktime": 0, "vsize": 283, "size": 283}