{"hash": "2c71f3ef128b5ab8fa4ce7de7c2147e43ba4ccd49c05e850760549659f36fac9", "blockhash": "00000000000000000018f53835495a110e01622372bf6ae95dc86f2b0ab887b0", "vout": [{"scriptPubKey": {"reqSigs": 1, "hex": "76a9149a301b4a242c1a3ee3efbcfa7341838c8a3907bf88ac", "addresses": ["1F4Gh3jHv9jgzQFffyuAPwMiryFXHVMYBo"], "asm": "OP_DUP OP_HASH160 9a301b4a242c1a3ee3efbcfa7341838c8a3907bf OP_EQUALVERIFY OP_CHECKSIG", "type": "pubkeyhash"}, "value": 2.11e-05, "n": 0}, {"scriptPubKey": {"reqSigs": 1, "hex": "a9144370b7c6fe0244207834b53c1d108d32d762551187", "addresses": ["37qcEAvsdVTQZF5VMnrjWP1R4PoXRCJcWq"], "asm": "OP_HASH160 4370b7c6fe0244207834b53c1d108d32d7625511 OP_EQUAL", "type": "scripthash"}, "value": 0.001311, "n": 1}], "hex": "01000000053a31d700d9b5dc1673bdff0452ecfb4316d381ee0b03f0550560cf6866f26737000000006a4730440220243efbbccb6bd67e553b6b3a344adc5ffe87728e32f00375f96a29cbbc3b6bdf022070bb5bb638ee58be3e0d76b45f3151a564c5642fe23fc754abd89a990bd6b3fe012103d45c709e531171f9b9081ac050498ecde1a5ddca24d0c106e215b43d0cb843effdffffff9acc73a81b51882f0b5ad5343bdecea73d2af6e472536a22988f49cf051025a9010000006a473044022046d46a648c4ced821fa890ee214cbc64c6dd0b515cfebdafae63e5fa90194a66022045e383883e6d2045b55535ff7eafdddef888ac49d1ea0b4f7006b0734e37aa75012103412bd9eafd8f91e8fb7a3927450585ae361d2ac704aa1d944e8ab94fb6881f96fdfffffff3d18fd4615749a77eb17c31580a3fca712abfd91d5dae7256937f3aa92814b7000000006a4730440220693472483aec4c111c941afde5bed0729763de30e4b667896139bba2014a84c4022018aa963a00809e25924137d374f7ea145f40d7c3e60d6d06a063e2bcaaaab5540121030c242999a5c6298494e9b5c8dd2bf9d31af3d1b21e8e4ad1a6928bbc5a8f1fd9fdfffffff0748f2a464485dd8f0987e8d644ecf485c2021aeb60193221d4e519fd4c32db000000006a47304402203928a666c49e6aff311895817a804c31ea90485f7e86f21024959a7d2462f7aa022040f83c68c782a4300815545054ac17e36a3486e697c40e6db7d7e3e9de3bdd5101210389e607849bebe707423470ecbe00af410168aa85a899fb6f6a895abf113983a3fdffffff6794ac4935ad5a8afe3c527aec8d9efc58af6e30392234d5a2a3fa09ca5073e5000000006b483045022100da721526f16db5582581b55aaed77831ef4ec375a120040b5d92eae908a6ab9602205e8c5a0b066aaad793cf131020f21e88d18df1e737073710a21d7ab5876b9c15012103949efb0807458bbb4f48035acb9e2d05135daf32a4cf5085f4d376f8ee3bbeabfdffffff023e080000000000001976a9149a301b4a242c1a3ee3efbcfa7341838c8a3907bf88ac1c0002000000000017a9144370b7c6fe0244207834b53c1d108d32d7625511870d490800", "vin": [{"sequence": 4294967293, "scriptSig": {"hex": "4730440220243efbbccb6bd67e553b6b3a344adc5ffe87728e32f00375f96a29cbbc3b6bdf022070bb5bb638ee58be3e0d76b45f3151a564c5642fe23fc754abd89a990bd6b3fe012103d45c709e531171f9b9081ac050498ecde1a5ddca24d0c106e215b43d0cb843ef", "asm": "30440220243efbbccb6bd67e553b6b3a344adc5ffe87728e32f00375f96a29cbbc3b6bdf022070bb5bb638ee58be3e0d76b45f3151a564c5642fe23fc754abd89a990bd6b3fe[ALL] 03d45c709e531171f9b9081ac050498ecde1a5ddca24d0c106e215b43d0cb843ef"}, "vout": 0, "txid": "3767f26668cf600555f0030bee81d31643fbec5204ffbd7316dcb5d900d7313a"}, {"sequence": 4294967293, "scriptSig": {"hex": "473044022046d46a648c4ced821fa890ee214cbc64c6dd0b515cfebdafae63e5fa90194a66022045e383883e6d2045b55535ff7eafdddef888ac49d1ea0b4f7006b0734e37aa75012103412bd9eafd8f91e8fb7a3927450585ae361d2ac704aa1d944e8ab94fb6881f96", "asm": "3044022046d46a648c4ced821fa890ee214cbc64c6dd0b515cfebdafae63e5fa90194a66022045e383883e6d2045b55535ff7eafdddef888ac49d1ea0b4f7006b0734e37aa75[ALL] 03412bd9eafd8f91e8fb7a3927450585ae361d2ac704aa1d944e8ab94fb6881f96"}, "vout": 1, "txid": "a9251005cf498f98226a5372e4f62a3da7cede3b34d55a0b2f88511ba873cc9a"}, {"sequence": 4294967293, "scriptSig": {"hex": "4730440220693472483aec4c111c941afde5bed0729763de30e4b667896139bba2014a84c4022018aa963a00809e25924137d374f7ea145f40d7c3e60d6d06a063e2bcaaaab5540121030c242999a5c6298494e9b5c8dd2bf9d31af3d1b21e8e4ad1a6928bbc5a8f1fd9", "asm": "30440220693472483aec4c111c941afde5bed0729763de30e4b667896139bba2014a84c4022018aa963a00809e25924137d374f7ea145f40d7c3e60d6d06a063e2bcaaaab554[ALL] 030c242999a5c6298494e9b5c8dd2bf9d31af3d1b21e8e4ad1a6928bbc5a8f1fd9"}, "vout": 0, "txid": "b71428a93a7f935672ae5d1dd9bf2a71ca3f0a58317cb17ea7495761d48fd1f3"}, {"sequence": 4294967293, "scriptSig": {"hex": "47304402203928a666c49e6aff311895817a804c31ea90485f7e86f21024959a7d2462f7aa022040f83c68c782a4300815545054ac17e36a3486e697c40e6db7d7e3e9de3bdd5101210389e607849bebe707423470ecbe00af410168aa85a899fb6f6a895abf113983a3", "asm": "304402203928a666c49e6aff311895817a804c31ea90485f7e86f21024959a7d2462f7aa022040f83c68c782a4300815545054ac17e36a3486e697c40e6db7d7e3e9de3bdd51[ALL] 0389e607849bebe707423470ecbe00af410168aa85a899fb6f6a895abf113983a3"}, "vout": 0, "txid": "db324cfd19e5d421321960eb1a02c285f4ec44d6e887098fdd8544462a8f74f0"}, {"sequence": 4294967293, "scriptSig": {"hex": "483045022100da721526f16db5582581b55aaed77831ef4ec375a120040b5d92eae908a6ab9602205e8c5a0b066aaad793cf131020f21e88d18df1e737073710a21d7ab5876b9c15012103949efb0807458bbb4f48035acb9e2d05135daf32a4cf5085f4d376f8ee3bbeab", "asm": "3045022100da721526f16db5582581b55aaed77831ef4ec375a120040b5d92eae908a6ab9602205e8c5a0b066aaad793cf131020f21e88d18df1e737073710a21d7ab5876b9c15[ALL] 03949efb0807458bbb4f48035acb9e2d05135daf32a4cf5085f4d376f8ee3bbeab"}, "vout": 0, "txid": "e57350ca09faa3a2d5342239306eaf58fc9e8dec7a523cfe8a5aad3549ac9467"}], "txid": "2c71f3ef128b5ab8fa4ce7de7c2147e43ba4ccd49c05e850760549659f36fac9", "blocktime": 1537870928, "version": 1, "confirmations": 11512, "time": 1537870928, "locktime": 542989, "vsize": 812, "size": 812}