{"hash": "b3e627d5f4a6c6a34d622b891b9e04f651756f8fd344e281b3e23c9a8be780bf", "blockhash": "00000000000000000024a2167bbff67b0be802c0b01cdd79e6331c2be6459f87", "vout": [{"scriptPubKey": {"reqSigs": 1, "hex": "a914044ebcbc92565ecd8929fa91049a7d7e8786fa8687", "addresses": ["325nx5637cJdKFf5d6VurTyiDhqa7fkkL3"], "asm": "OP_HASH160 044ebcbc92565ecd8929fa91049a7d7e8786fa86 OP_EQUAL", "type": "scripthash"}, "value": 0.01063002, "n": 0}, {"scriptPubKey": {"reqSigs": 1, "hex": "76a9141a2db9f63d2544d0eafe35ae899110313441326488ac", "addresses": ["13PRM7eC2ac6imUfhosKJhnDcYq9zrK3Qj"], "asm": "OP_DUP OP_HASH160 1a2db9f63d2544d0eafe35ae8991103134413264 OP_EQUALVERIFY OP_CHECKSIG", "type": "pubkeyhash"}, "value": 0.1918388, "n": 1}], "hex": "020000000001031c8d2135b9ac210e0b4a9d4d151aa5efc6c317b5ace3f7536c7cc30ace78be1e010000001716001449e552a2022a1a6716ea7f03612aba304a116e02feffffff1e08e1222454e91348ce0372016120677b20c46335dc4430ed89d714b578db9800000000171600140bbf4dcd48112d5246ff5888a0cc6f3b5fe5ad5cfefffffff3c27d0b07cfa44a22cdb3b5e01371d1db21160b2a36f4bf961ce709bbc3063901000000171600147c99c18290aec8ba358382373ccd74104ee85a4ffeffffff025a3810000000000017a914044ebcbc92565ecd8929fa91049a7d7e8786fa868708b92401000000001976a9141a2db9f63d2544d0eafe35ae899110313441326488ac02473044022015074fdfe637b0ddca2201d8fa6a37396dc9bcbe97ca98af2eef36ad226b1a98022044552accb205c2cb4a4b8b88c9733d9ea7e1c7755c3aef6a2fa939a2bb1b05870121026fc0d87acb58fc21e0f158630fd3b514c84628da0538193e8c96ab1cd5b72fc8024730440220116583fe7124c5fa8f2e427d31ff0a08ea310e5e2fed5365454c10ca80c8bc9e022003964535c3e17b29b1829970c7db12f7b9f9e684b55f82131bb2c0135a2bca56012103c8a592bd39dd0e84320ff4461cd9cc81c7f67214e04c4c90a94d2b9ca8064d3d02483045022100adf94cfdf70003986b8aa74b285b796c57973aed37c3ef10cdb26f00f4804c5a02205d1dd352c85fcf400ac679562eff8948cbfa4d3555f8701f0f86d0b0d5c1e6bd0121025ce24436f0f948116e1f62150309a2d55a6aa733760fed5df45ed0e5033e98c60d490800", "vin": [{"txinwitness": ["3044022015074fdfe637b0ddca2201d8fa6a37396dc9bcbe97ca98af2eef36ad226b1a98022044552accb205c2cb4a4b8b88c9733d9ea7e1c7755c3aef6a2fa939a2bb1b058701", "026fc0d87acb58fc21e0f158630fd3b514c84628da0538193e8c96ab1cd5b72fc8"], "sequence": 4294967294, "scriptSig": {"hex": "16001449e552a2022a1a6716ea7f03612aba304a116e02", "asm": "001449e552a2022a1a6716ea7f03612aba304a116e02"}, "vout": 1, "txid": "1ebe78ce0ac37c6c53f7e3acb517c3c6efa51a154d9d4a0b0e21acb935218d1c"}, {"txinwitness": ["30440220116583fe7124c5fa8f2e427d31ff0a08ea310e5e2fed5365454c10ca80c8bc9e022003964535c3e17b29b1829970c7db12f7b9f9e684b55f82131bb2c0135a2bca5601", "03c8a592bd39dd0e84320ff4461cd9cc81c7f67214e04c4c90a94d2b9ca8064d3d"], "sequence": 4294967294, "scriptSig": {"hex": "1600140bbf4dcd48112d5246ff5888a0cc6f3b5fe5ad5c", "asm": "00140bbf4dcd48112d5246ff5888a0cc6f3b5fe5ad5c"}, "vout": 0, "txid": "98db78b514d789ed3044dc3563c4207b672061017203ce4813e9542422e1081e"}, {"txinwitness": ["3045022100adf94cfdf70003986b8aa74b285b796c57973aed37c3ef10cdb26f00f4804c5a02205d1dd352c85fcf400ac679562eff8948cbfa4d3555f8701f0f86d0b0d5c1e6bd01", "025ce24436f0f948116e1f62150309a2d55a6aa733760fed5df45ed0e5033e98c6"], "sequence": 4294967294, "scriptSig": {"hex": "1600147c99c18290aec8ba358382373ccd74104ee85a4f", "asm": "00147c99c18290aec8ba358382373ccd74104ee85a4f"}, "vout": 1, "txid": "3906c3bb09e71c96bff4362a0b1621dbd17113e0b5b3cd224aa4cf070b7dc2f3"}], "txid": "2c7361359643e6158efedc5d99a3d29401ae2be478465956c27f7fdd4574777e", "blocktime": 1537870564, "version": 2, "confirmations": 11515, "time": 1537870564, "locktime": 542989, "vsize": 349, "size": 592}