{"hash": "2c76e85e151f0aa1d777546fb6c68dd43c61774c2e926e105bc8412732818b01", "blockhash": "0000000000000000001f0ddff1eddb255c1121bcd4da4f1bc9a0da00cae72433", "vout": [{"scriptPubKey": {"reqSigs": 1, "hex": "76a91435d6c8d1e23e5854630fa41de5c29166e3f18cca88ac", "addresses": ["15ug7eqghTK3qMTDWezN6xRRTo3GNhmAiB"], "asm": "OP_DUP OP_HASH160 35d6c8d1e23e5854630fa41de5c29166e3f18cca OP_EQUALVERIFY OP_CHECKSIG", "type": "pubkeyhash"}, "value": 0.01435206, "n": 0}, {"scriptPubKey": {"reqSigs": 1, "hex": "76a914214a69e03ccda1b0389e97d32761735f45f9f78688ac", "addresses": ["1432SgEXWm4k9YMSTH6B5XwTdmo7qWqP2f"], "asm": "OP_DUP OP_HASH160 214a69e03ccda1b0389e97d32761735f45f9f786 OP_EQUALVERIFY OP_CHECKSIG", "type": "pubkeyhash"}, "value": 0.127502, "n": 1}], "hex": "0100000002349a854f069b872377e28de1ee9fd76e3c828ed4f00c0d6dcd14af2339295f00010000006a47304402200ad3ed9c3d6606743bc962f8a821a68e2233705a205b7a8b4907141db01d1c8b022046c759cc158003464fd848c0a9f8d560e6798b1b2b10691543d4bcdb933a7f7f0121031390e80fe29295d4e2147b9e488a2ca1ee9475e72b1fbb1c112aeebdc327a318ffffffff988928399f9589c8ad51b0d8c223ea2a1bd0e106494f0c905a392f74cf10dd6e010000006b483045022100c7c937885e6148598fd7d4a10dcbe38e31b7c0243d119c41a2aa7245f24566b202204993d6288795782dfe922d9ad01bf3a5e04a4566d2e04f6f635c92628ef4bdce0121031390e80fe29295d4e2147b9e488a2ca1ee9475e72b1fbb1c112aeebdc327a318ffffffff0246e61500000000001976a91435d6c8d1e23e5854630fa41de5c29166e3f18cca88ac788dc200000000001976a914214a69e03ccda1b0389e97d32761735f45f9f78688ac00000000", "vin": [{"sequence": 4294967295, "scriptSig": {"hex": "47304402200ad3ed9c3d6606743bc962f8a821a68e2233705a205b7a8b4907141db01d1c8b022046c759cc158003464fd848c0a9f8d560e6798b1b2b10691543d4bcdb933a7f7f0121031390e80fe29295d4e2147b9e488a2ca1ee9475e72b1fbb1c112aeebdc327a318", "asm": "304402200ad3ed9c3d6606743bc962f8a821a68e2233705a205b7a8b4907141db01d1c8b022046c759cc158003464fd848c0a9f8d560e6798b1b2b10691543d4bcdb933a7f7f[ALL] 031390e80fe29295d4e2147b9e488a2ca1ee9475e72b1fbb1c112aeebdc327a318"}, "vout": 1, "txid": "005f293923af14cd6d0d0cf0d48e823c6ed79feee18de27723879b064f859a34"}, {"sequence": 4294967295, "scriptSig": {"hex": "483045022100c7c937885e6148598fd7d4a10dcbe38e31b7c0243d119c41a2aa7245f24566b202204993d6288795782dfe922d9ad01bf3a5e04a4566d2e04f6f635c92628ef4bdce0121031390e80fe29295d4e2147b9e488a2ca1ee9475e72b1fbb1c112aeebdc327a318", "asm": "3045022100c7c937885e6148598fd7d4a10dcbe38e31b7c0243d119c41a2aa7245f24566b202204993d6288795782dfe922d9ad01bf3a5e04a4566d2e04f6f635c92628ef4bdce[ALL] 031390e80fe29295d4e2147b9e488a2ca1ee9475e72b1fbb1c112aeebdc327a318"}, "vout": 1, "txid": "6edd10cf742f395a900c4f4906e1d01b2aea23c2d8b051adc889959f39288998"}], "txid": "2c76e85e151f0aa1d777546fb6c68dd43c61774c2e926e105bc8412732818b01", "blocktime": 1537872018, "version": 1, "confirmations": 11489, "time": 1537872018, "locktime": 0, "vsize": 373, "size": 373}