{"hash": "f8fe4b9841e1457adc1181c025dca5be3fbf5651f6f339c0ec26b3953acc7fd7", "blockhash": "0000000000000000000e13cef7c366c0283d82e591d1acd082e914b08063cdf1", "vout": [{"scriptPubKey": {"reqSigs": 1, "hex": "0014fcf5decd63205cfdbbdfda55c679e6cedc170256", "addresses": ["bc1qln6aantrypw0mw7lmf2uv70xemwpwqjkc3mjps"], "asm": "0 fcf5decd63205cfdbbdfda55c679e6cedc170256", "type": "witness_v0_keyhash"}, "value": 0.49218391, "n": 0}, {"scriptPubKey": {"reqSigs": 1, "hex": "76a914917dd57809801d5dc65427f2b91a85a4c029f19988ac", "addresses": ["1EGHiuX2yP8QFUjbkkNP2ZgL7aNwqfqQ6L"], "asm": "OP_DUP OP_HASH160 917dd57809801d5dc65427f2b91a85a4c029f199 OP_EQUALVERIFY OP_CHECKSIG", "type": "pubkeyhash"}, "value": 0.052338, "n": 1}], "hex": "01000000000101ad4b41e71e6720eef0ef4e4e9efe32dcdf6f454448008690942b83c4220236fb000000001716001416d87b07ca64874eacc7c01a07d390404a1806ddffffffff025703ef0200000000160014fcf5decd63205cfdbbdfda55c679e6cedc17025688dc4f00000000001976a914917dd57809801d5dc65427f2b91a85a4c029f19988ac02483045022100804dea91f2db74b36f55783807df2e509f5e5f442c37c610c24bb8b5eda38462022004a2754909470646487de5bab44109849889d3cf2527248018382eb6a4453d93012103c29bd2bd3f9aa4e91c990fb3d91d9ec768f868860da268b605031f1a9f3a3d1800000000", "vin": [{"txinwitness": ["3045022100804dea91f2db74b36f55783807df2e509f5e5f442c37c610c24bb8b5eda38462022004a2754909470646487de5bab44109849889d3cf2527248018382eb6a4453d9301", "03c29bd2bd3f9aa4e91c990fb3d91d9ec768f868860da268b605031f1a9f3a3d18"], "sequence": 4294967295, "scriptSig": {"hex": "16001416d87b07ca64874eacc7c01a07d390404a1806dd", "asm": "001416d87b07ca64874eacc7c01a07d390404a1806dd"}, "vout": 0, "txid": "fb360222c4832b949086004844456fdfdc32fe9e4e4eeff0ee20671ee7414bad"}], "txid": "2c78cf9a2d4f98f23d60cd9e21dd5d770aa9ddf73e1c6262a12ab388c399e35f", "blocktime": 1537871767, "version": 1, "confirmations": 11495, "time": 1537871767, "locktime": 0, "vsize": 167, "size": 249}