{"hash": "2c793301651ba0670082985b56409b4d3585837ce4f28043b2e2b481305793c6", "blockhash": "0000000000000000000dcc0f55137456b1a82d3642486a52398922ac4d620174", "vout": [{"scriptPubKey": {"reqSigs": 1, "hex": "76a914248405dc6349bb5241b62a08ae00105a5fc4690b88ac", "addresses": ["14L5V21WXp67zLy3aukL39J81RC3yFQ5Y6"], "asm": "OP_DUP OP_HASH160 248405dc6349bb5241b62a08ae00105a5fc4690b OP_EQUALVERIFY OP_CHECKSIG", "type": "pubkeyhash"}, "value": 0.00078807, "n": 0}], "hex": "0100000001520c007e6074eec9a2b7858aaba1f3a988e2423a36a546ebe3d0aeebbec8c103000000006b483045022100914f865c206e72540ac64d757f4ffda9d562e4a34d97c56555b9a55e7db2cb08022002b6b57e38936b86846ba8ae786535ae39ef99427d002a707db3d3274a177caf012102a51a5af43f2fd9dd69b36350e0c00082f77b88c9f51e078226666c5b3a2ccd41fdffffff01d7330100000000001976a914248405dc6349bb5241b62a08ae00105a5fc4690b88ac0c490800", "vin": [{"sequence": 4294967293, "scriptSig": {"hex": "483045022100914f865c206e72540ac64d757f4ffda9d562e4a34d97c56555b9a55e7db2cb08022002b6b57e38936b86846ba8ae786535ae39ef99427d002a707db3d3274a177caf012102a51a5af43f2fd9dd69b36350e0c00082f77b88c9f51e078226666c5b3a2ccd41", "asm": "3045022100914f865c206e72540ac64d757f4ffda9d562e4a34d97c56555b9a55e7db2cb08022002b6b57e38936b86846ba8ae786535ae39ef99427d002a707db3d3274a177caf[ALL] 02a51a5af43f2fd9dd69b36350e0c00082f77b88c9f51e078226666c5b3a2ccd41"}, "vout": 0, "txid": "03c1c8beebaed0e3eb46a5363a42e288a9f3a1ab8a85b7a2c9ee74607e000c52"}], "txid": "2c793301651ba0670082985b56409b4d3585837ce4f28043b2e2b481305793c6", "blocktime": 1537870268, "version": 1, "confirmations": 11520, "time": 1537870268, "locktime": 542988, "vsize": 192, "size": 192}