{"hash": "a1ed1c4a4d0739c5188e7f35666e1ba4c72925878d856511d24b37a2df985343", "blockhash": "000000000000000000022b45ed06c6f4ccd3cf7fb5ba4856ebd2e58215665228", "vout": [{"scriptPubKey": {"reqSigs": 1, "hex": "a914545ed84bf64793588252387e82c6ae5c020cce9987", "addresses": ["39P8JbbeLRwSmBm9mn96m3vcxuNnEwxRgj"], "asm": "OP_HASH160 545ed84bf64793588252387e82c6ae5c020cce99 OP_EQUAL", "type": "scripthash"}, "value": 0.2, "n": 0}, {"scriptPubKey": {"reqSigs": 1, "hex": "a91425a91a5b409acf744e25fedec0dc8e83c20d27b887", "addresses": ["3589W7xWx5A6SosKzdpxAA8xkpkbtYDuAN"], "asm": "OP_HASH160 25a91a5b409acf744e25fedec0dc8e83c20d27b8 OP_EQUAL", "type": "scripthash"}, "value": 0.11251358, "n": 1}], "hex": "01000000000105ecf3f6f31c67113993b312186c42423f7cc151a642f08e9ed42dedaf313b6e6f0100000023220020a4cf96722e65fb1fdb5e14ddabb507f2d3bb102d50b5f64bf4ea3cc6514d9656ffffffff8b992a33409d068085294ea1b11e33ce9d133a8100cf1e59434645fc9f917ac70100000023220020a4cf96722e65fb1fdb5e14ddabb507f2d3bb102d50b5f64bf4ea3cc6514d9656ffffffff8afc1382d7a8ea41d8460bcc41b823d687b07eddb68ea1547e1a01140e68b8d60000000023220020a4cf96722e65fb1fdb5e14ddabb507f2d3bb102d50b5f64bf4ea3cc6514d9656ffffffff8d810b447ad9de0b0ae9029df79e2475ac8bd5aceedfa3e931098ba5f5c638a10200000023220020a4cf96722e65fb1fdb5e14ddabb507f2d3bb102d50b5f64bf4ea3cc6514d9656ffffffffa10516623ec66d6737a6ad3a28b32d112f5f77ddf73a0d69f7362a8dc990696d0100000023220020a4cf96722e65fb1fdb5e14ddabb507f2d3bb102d50b5f64bf4ea3cc6514d9656ffffffff02002d31010000000017a914545ed84bf64793588252387e82c6ae5c020cce99879eaeab000000000017a91425a91a5b409acf744e25fedec0dc8e83c20d27b88704004830450221009b3adf23d718b246a0aa678db35c75ec570a39266a7e202be6c815c4203b55c2022019dc4e7cbe336e7f815e520792d6a16d1d1d5484429640e3af90f3f34861093901473044022058b274762ece9d2841cb183a1c39522acfb7574e445503d2a024f4f1853119ea022048278bf25e0586c1e88f73d9bff0d498529504b6f81dd659c58fcd8daaed4fdd014752210315d3ac98ab2431df38a2cb5cf0243f58abd763b6e6b119041f3ba5f4fb26c5182103e1f9da7cfa5c14d4f8c07d00d62c26cf7439764542d87269b4c837b26883195b52ae040047304402201f0c7a2ef2b0ecbf144ea7396d63c16b8a03f8660426ad5c5da98cf03315c82802203bf5c62a1cf09cb56d773d5c203858f52bc18ddbdb2876de7545900c8470208b0146304302205a3707f333a9fe25d220e4501b56d017786e8c717f0e705785b90dc913ae8c0e021f3cfd5cbf089d63320844d31d9f0bcae67eb3caa2278589c6dbf6c9677a8426014752210315d3ac98ab2431df38a2cb5cf0243f58abd763b6e6b119041f3ba5f4fb26c5182103e1f9da7cfa5c14d4f8c07d00d62c26cf7439764542d87269b4c837b26883195b52ae0400483045022100e6796ac81e9dbeb46900bb38b6ec8f44d781166ec767fc0d499db4c7047717f602206131527c32aabbbd1da1fd12e71739fd8eea2bf8dc757d84e2a01b9a7a2fe30c014830450221008442b754b42618e38744e9efe9514aaadc8b5e77f9e405ab3aa7cb8c5aecbc56022048cb53a91fd7e69396650d280feb346e7d24fad3cc007e047c5f9e2a45c9e2b7014752210315d3ac98ab2431df38a2cb5cf0243f58abd763b6e6b119041f3ba5f4fb26c5182103e1f9da7cfa5c14d4f8c07d00d62c26cf7439764542d87269b4c837b26883195b52ae040047304402200670c4823b2843bea9786f939dde9ea72801d44b09a4250bc53d2e9ca47683b40220278e04ec7e1018d436250157ae53cb61eca7c1ecaf66cff768e361df144569fc01473044022003a4f1f8ca0ed3b8f9ed690a815bb34b3d51609b893ee056cac6cf442e2b1cd802202b3ca1b0ab43f21f45c4874a3b6430f910c6b9422d052cf80d1aa7a8e5a516a5014752210315d3ac98ab2431df38a2cb5cf0243f58abd763b6e6b119041f3ba5f4fb26c5182103e1f9da7cfa5c14d4f8c07d00d62c26cf7439764542d87269b4c837b26883195b52ae040047304402201af2aeacd0a37e6e8d1efe701824935ede7191b704e4b5ce908e5c9dad8de5f402202bacc3b9c5b7b7f7d071251933e194537a7aa2c0d7633988b1eaee098130cce801483045022100d8eddee3c57e37eb121dd8879ad7210750be9853545f1109971b690ce5805569022010e23de23a283547140f9cdedc67fbf622bfe2479a3cbccda63c69c14e4d159b014752210315d3ac98ab2431df38a2cb5cf0243f58abd763b6e6b119041f3ba5f4fb26c5182103e1f9da7cfa5c14d4f8c07d00d62c26cf7439764542d87269b4c837b26883195b52ae00000000", "vin": [{"txinwitness": ["", "30450221009b3adf23d718b246a0aa678db35c75ec570a39266a7e202be6c815c4203b55c2022019dc4e7cbe336e7f815e520792d6a16d1d1d5484429640e3af90f3f34861093901", "3044022058b274762ece9d2841cb183a1c39522acfb7574e445503d2a024f4f1853119ea022048278bf25e0586c1e88f73d9bff0d498529504b6f81dd659c58fcd8daaed4fdd01", "52210315d3ac98ab2431df38a2cb5cf0243f58abd763b6e6b119041f3ba5f4fb26c5182103e1f9da7cfa5c14d4f8c07d00d62c26cf7439764542d87269b4c837b26883195b52ae"], "sequence": 4294967295, "scriptSig": {"hex": "220020a4cf96722e65fb1fdb5e14ddabb507f2d3bb102d50b5f64bf4ea3cc6514d9656", "asm": "0020a4cf96722e65fb1fdb5e14ddabb507f2d3bb102d50b5f64bf4ea3cc6514d9656"}, "vout": 1, "txid": "6f6e3b31afed2dd49e8ef042a651c17c3f42426c1812b3933911671cf3f6f3ec"}, {"txinwitness": ["", "304402201f0c7a2ef2b0ecbf144ea7396d63c16b8a03f8660426ad5c5da98cf03315c82802203bf5c62a1cf09cb56d773d5c203858f52bc18ddbdb2876de7545900c8470208b01", "304302205a3707f333a9fe25d220e4501b56d017786e8c717f0e705785b90dc913ae8c0e021f3cfd5cbf089d63320844d31d9f0bcae67eb3caa2278589c6dbf6c9677a842601", "52210315d3ac98ab2431df38a2cb5cf0243f58abd763b6e6b119041f3ba5f4fb26c5182103e1f9da7cfa5c14d4f8c07d00d62c26cf7439764542d87269b4c837b26883195b52ae"], "sequence": 4294967295, "scriptSig": {"hex": "220020a4cf96722e65fb1fdb5e14ddabb507f2d3bb102d50b5f64bf4ea3cc6514d9656", "asm": "0020a4cf96722e65fb1fdb5e14ddabb507f2d3bb102d50b5f64bf4ea3cc6514d9656"}, "vout": 1, "txid": "c77a919ffc454643591ecf00813a139dce331eb1a14e298580069d40332a998b"}, {"txinwitness": ["", "3045022100e6796ac81e9dbeb46900bb38b6ec8f44d781166ec767fc0d499db4c7047717f602206131527c32aabbbd1da1fd12e71739fd8eea2bf8dc757d84e2a01b9a7a2fe30c01", "30450221008442b754b42618e38744e9efe9514aaadc8b5e77f9e405ab3aa7cb8c5aecbc56022048cb53a91fd7e69396650d280feb346e7d24fad3cc007e047c5f9e2a45c9e2b701", "52210315d3ac98ab2431df38a2cb5cf0243f58abd763b6e6b119041f3ba5f4fb26c5182103e1f9da7cfa5c14d4f8c07d00d62c26cf7439764542d87269b4c837b26883195b52ae"], "sequence": 4294967295, "scriptSig": {"hex": "220020a4cf96722e65fb1fdb5e14ddabb507f2d3bb102d50b5f64bf4ea3cc6514d9656", "asm": "0020a4cf96722e65fb1fdb5e14ddabb507f2d3bb102d50b5f64bf4ea3cc6514d9656"}, "vout": 0, "txid": "d6b8680e14011a7e54a18eb6dd7eb087d623b841cc0b46d841eaa8d78213fc8a"}, {"txinwitness": ["", "304402200670c4823b2843bea9786f939dde9ea72801d44b09a4250bc53d2e9ca47683b40220278e04ec7e1018d436250157ae53cb61eca7c1ecaf66cff768e361df144569fc01", "3044022003a4f1f8ca0ed3b8f9ed690a815bb34b3d51609b893ee056cac6cf442e2b1cd802202b3ca1b0ab43f21f45c4874a3b6430f910c6b9422d052cf80d1aa7a8e5a516a501", "52210315d3ac98ab2431df38a2cb5cf0243f58abd763b6e6b119041f3ba5f4fb26c5182103e1f9da7cfa5c14d4f8c07d00d62c26cf7439764542d87269b4c837b26883195b52ae"], "sequence": 4294967295, "scriptSig": {"hex": "220020a4cf96722e65fb1fdb5e14ddabb507f2d3bb102d50b5f64bf4ea3cc6514d9656", "asm": "0020a4cf96722e65fb1fdb5e14ddabb507f2d3bb102d50b5f64bf4ea3cc6514d9656"}, "vout": 2, "txid": "a138c6f5a58b0931e9a3dfeeacd58bac75249ef79d02e90a0bded97a440b818d"}, {"txinwitness": ["", "304402201af2aeacd0a37e6e8d1efe701824935ede7191b704e4b5ce908e5c9dad8de5f402202bacc3b9c5b7b7f7d071251933e194537a7aa2c0d7633988b1eaee098130cce801", "3045022100d8eddee3c57e37eb121dd8879ad7210750be9853545f1109971b690ce5805569022010e23de23a283547140f9cdedc67fbf622bfe2479a3cbccda63c69c14e4d159b01", "52210315d3ac98ab2431df38a2cb5cf0243f58abd763b6e6b119041f3ba5f4fb26c5182103e1f9da7cfa5c14d4f8c07d00d62c26cf7439764542d87269b4c837b26883195b52ae"], "sequence": 4294967295, "scriptSig": {"hex": "220020a4cf96722e65fb1fdb5e14ddabb507f2d3bb102d50b5f64bf4ea3cc6514d9656", "asm": "0020a4cf96722e65fb1fdb5e14ddabb507f2d3bb102d50b5f64bf4ea3cc6514d9656"}, "vout": 1, "txid": "6d6990c98d2a36f7690d3af7dd775f2f112db3283aada637676dc63e621605a1"}], "txid": "2c7ec504c513739bb8bf69d3368589df4dba2e94bfd9928adba5c5a290578dec", "blocktime": 1537869901, "version": 1, "confirmations": 11524, "time": 1537869901, "locktime": 0, "vsize": 728, "size": 1549}