{"hash": "2c81d03d7b982efc8335d4278024d254e1ba5e874150f0999da861962e0f8daa", "blockhash": "00000000000000000024a2167bbff67b0be802c0b01cdd79e6331c2be6459f87", "vout": [{"scriptPubKey": {"reqSigs": 1, "hex": "76a9145d1f59b65b92d00911fac96d8d61ad364ac9289088ac", "addresses": ["19VPQ7CdShdoqChqMS9DCX3qgM8hxCaQsJ"], "asm": "OP_DUP OP_HASH160 5d1f59b65b92d00911fac96d8d61ad364ac92890 OP_EQUALVERIFY OP_CHECKSIG", "type": "pubkeyhash"}, "value": 0.063, "n": 0}, {"scriptPubKey": {"reqSigs": 1, "hex": "76a91431616045d9680de60028247283478fa449d2bc1088ac", "addresses": ["15W6mD2Ydr9i96CsoF3MgpwKeb8cnWkDTW"], "asm": "OP_DUP OP_HASH160 31616045d9680de60028247283478fa449d2bc10 OP_EQUALVERIFY OP_CHECKSIG", "type": "pubkeyhash"}, "value": 0.12284746, "n": 1}], "hex": "0100000002b60262cb9bd39af99e5e5e8db5eac73ef201cc6de94d5c41dd4561577820b97c010000006a473044022061328cfb64b8d8ccb6b7910aee94a3b623fea110ab8929fceae43a37ce328a39022039a013bc33796c8ae05dfe230950735b687794b634f89cd165dbe6e97b71352701210332ffce63e2e055c986bccaa390cb79d7c828168ee3b206097fcf9e066e9c3d3dffffffffe82813c2215865adeef7d6e484638fa4868ec2f275c6a0023bdf888ec78d8148070000006a47304402207bc0ad80b5e2da2f78b2b9eef9329888616279e2fc0b9ae98b0ef443b667ab5002205c6f008ece609c620cc753502f653de780e7e6d6b541b70143af171e3a5aac2101210332ffce63e2e055c986bccaa390cb79d7c828168ee3b206097fcf9e066e9c3d3dffffffff0260216000000000001976a9145d1f59b65b92d00911fac96d8d61ad364ac9289088ac4a73bb00000000001976a91431616045d9680de60028247283478fa449d2bc1088ac00000000", "vin": [{"sequence": 4294967295, "scriptSig": {"hex": "473044022061328cfb64b8d8ccb6b7910aee94a3b623fea110ab8929fceae43a37ce328a39022039a013bc33796c8ae05dfe230950735b687794b634f89cd165dbe6e97b71352701210332ffce63e2e055c986bccaa390cb79d7c828168ee3b206097fcf9e066e9c3d3d", "asm": "3044022061328cfb64b8d8ccb6b7910aee94a3b623fea110ab8929fceae43a37ce328a39022039a013bc33796c8ae05dfe230950735b687794b634f89cd165dbe6e97b713527[ALL] 0332ffce63e2e055c986bccaa390cb79d7c828168ee3b206097fcf9e066e9c3d3d"}, "vout": 1, "txid": "7cb92078576145dd415c4de96dcc01f23ec7eab58d5e5e9ef99ad39bcb6202b6"}, {"sequence": 4294967295, "scriptSig": {"hex": "47304402207bc0ad80b5e2da2f78b2b9eef9329888616279e2fc0b9ae98b0ef443b667ab5002205c6f008ece609c620cc753502f653de780e7e6d6b541b70143af171e3a5aac2101210332ffce63e2e055c986bccaa390cb79d7c828168ee3b206097fcf9e066e9c3d3d", "asm": "304402207bc0ad80b5e2da2f78b2b9eef9329888616279e2fc0b9ae98b0ef443b667ab5002205c6f008ece609c620cc753502f653de780e7e6d6b541b70143af171e3a5aac21[ALL] 0332ffce63e2e055c986bccaa390cb79d7c828168ee3b206097fcf9e066e9c3d3d"}, "vout": 7, "txid": "48818dc78e88df3b02a0c675f2c28e86a48f6384e4d6f7eead655821c21328e8"}], "txid": "2c81d03d7b982efc8335d4278024d254e1ba5e874150f0999da861962e0f8daa", "blocktime": 1537870564, "version": 1, "confirmations": 11515, "time": 1537870564, "locktime": 0, "vsize": 372, "size": 372}