{"hash": "2c8bbd747ce50045e07e171807febf003fa5888430fb31460b26163c221a59cf", "blockhash": "0000000000000000001f0ddff1eddb255c1121bcd4da4f1bc9a0da00cae72433", "vout": [{"scriptPubKey": {"reqSigs": 1, "hex": "a914a8cc8bfc158b76d23f85261336c2857785d7a26187", "addresses": ["3H5YUw5MCYMyfjdzv1BmDcjtrqUBSok3e4"], "asm": "OP_HASH160 a8cc8bfc158b76d23f85261336c2857785d7a261 OP_EQUAL", "type": "scripthash"}, "value": 1.3995, "n": 0}], "hex": "0200000001d9dda96e1a4b9eadf89f325d3ecfaba6049288412a6b461b84938d36128d3926010000006b483045022100be4dc354863c8b58d5a37fa29b89c4669b1307351797616df972bb1aed69f86302205bbd16bce4e0caea20335fa5ae816d9b8ef3495b16d7d28d44179b5cf955849c01210229eed94f07f21560033c7b525a53efd7b02c960849b90fe3ee220c0c78a34deaffffffff01b07757080000000017a914a8cc8bfc158b76d23f85261336c2857785d7a2618700000000", "vin": [{"sequence": 4294967295, "scriptSig": {"hex": "483045022100be4dc354863c8b58d5a37fa29b89c4669b1307351797616df972bb1aed69f86302205bbd16bce4e0caea20335fa5ae816d9b8ef3495b16d7d28d44179b5cf955849c01210229eed94f07f21560033c7b525a53efd7b02c960849b90fe3ee220c0c78a34dea", "asm": "3045022100be4dc354863c8b58d5a37fa29b89c4669b1307351797616df972bb1aed69f86302205bbd16bce4e0caea20335fa5ae816d9b8ef3495b16d7d28d44179b5cf955849c[ALL] 0229eed94f07f21560033c7b525a53efd7b02c960849b90fe3ee220c0c78a34dea"}, "vout": 1, "txid": "26398d12368d93841b466b2a41889204a6abcf3e5d329ff8ad9e4b1a6ea9ddd9"}], "txid": "2c8bbd747ce50045e07e171807febf003fa5888430fb31460b26163c221a59cf", "blocktime": 1537872018, "version": 2, "confirmations": 11489, "time": 1537872018, "locktime": 0, "vsize": 190, "size": 190}