{"hash": "7f9169aad5eca0f2899c461a5aef9f9ea498b3523514a6a8d97076ec762a2618", "blockhash": "0000000000000000001f76057863aec43deb6fa401d9628bb513d65a8098bfab", "vout": [{"scriptPubKey": {"reqSigs": 1, "hex": "a914043cc74b90ce905ecbcdbfb9716a714510ae94ac87", "addresses": ["325RSGuaLXZtqaaosGoU7eyGeENh7AApDD"], "asm": "OP_HASH160 043cc74b90ce905ecbcdbfb9716a714510ae94ac OP_EQUAL", "type": "scripthash"}, "value": 0.00774649, "n": 0}, {"scriptPubKey": {"reqSigs": 1, "hex": "0014135ac826162e0f4497b24c3870327df684425672", "addresses": ["bc1qzddvsfsk9c85f9ajfsu8qvna76zyy4njnxwacw"], "asm": "0 135ac826162e0f4497b24c3870327df684425672", "type": "witness_v0_keyhash"}, "value": 0.00013314, "n": 1}], "hex": "01000000000101c430553d1f253df011a59108a0455ae8af105ad9c9755888e14da0161b206efe0000000000ffffffff02f9d10b000000000017a914043cc74b90ce905ecbcdbfb9716a714510ae94ac870234000000000000160014135ac826162e0f4497b24c3870327df68442567202473044022053c9aa787fdd22783520ea3e77d98adaf28db2fece0c087b3641c40336e07e6702200763f5930c76ab214d38290c2614f8ec7870a42d5fd0d8815a122db8011ee7f30121027fd1afa2e18157b1563843b0ac72c8eb8eaf72f090aba00b3c520453789c5dcb00000000", "vin": [{"txinwitness": ["3044022053c9aa787fdd22783520ea3e77d98adaf28db2fece0c087b3641c40336e07e6702200763f5930c76ab214d38290c2614f8ec7870a42d5fd0d8815a122db8011ee7f301", "027fd1afa2e18157b1563843b0ac72c8eb8eaf72f090aba00b3c520453789c5dcb"], "sequence": 4294967295, "scriptSig": {"hex": "", "asm": ""}, "vout": 0, "txid": "fe6e201b16a04de1885875c9d95a10afe85a45a00891a511f03d251f3d5530c4"}], "txid": "2c8c55327a6ccec05a51cedb21c50b8ce0e29d02edd9ce13a9ed48c65f234a11", "blocktime": 1537873891, "version": 1, "confirmations": 11478, "time": 1537873891, "locktime": 0, "vsize": 142, "size": 223}