{"hash": "6b24f6173479dcfcbe8fb9704d41b2790be0c84c4d8c8982c9b44652cf5d0ba8", "blockhash": "00000000000000000018f53835495a110e01622372bf6ae95dc86f2b0ab887b0", "vout": [{"scriptPubKey": {"reqSigs": 1, "hex": "76a9143c004aa409e8c2955245804e3e324c6d9c783d8488ac", "addresses": ["16UFtmZ4xyTaTa9fD45LonEbd1b8mDheiQ"], "asm": "OP_DUP OP_HASH160 3c004aa409e8c2955245804e3e324c6d9c783d84 OP_EQUALVERIFY OP_CHECKSIG", "type": "pubkeyhash"}, "value": 0.080038, "n": 0}, {"scriptPubKey": {"reqSigs": 1, "hex": "a914fc7cd3e8fd2a9833bf5acee777b9f53913ffdb2a87", "addresses": ["3Qi3k54RZ4fFXciNwjUyUq2fdYoXjhcqgz"], "asm": "OP_HASH160 fc7cd3e8fd2a9833bf5acee777b9f53913ffdb2a OP_EQUAL", "type": "scripthash"}, "value": 0.221613, "n": 1}], "hex": "010000000001014489a1e6b5834a7fcf3edfc9cd8ed59c9e9f60a4b46d8d72bf07e09302dbd397010000002322002086b3fe4fd4db1e29bbf0282ce5060090d17d74a25dbf4fdac4a717d340f96a82ffffffff02d8207a00000000001976a9143c004aa409e8c2955245804e3e324c6d9c783d8488ac942752010000000017a914fc7cd3e8fd2a9833bf5acee777b9f53913ffdb2a870400483045022100f9759c26b6c74408a9667ec749c84079a42ba7178ff4b8468a51908de50480b40220189849d24629b505f55132e8c0fc4c18602af99758c9299b7b8ea080a563dc010147304402205ea4fdb776bc69d4438f3f3b7cb23999338eb10a5803daef1572f26b90ff3a0a02206b7b1c9858923be91a43555042f0bc08efbed6621a3d5a8d7df48448362654770169522102058d55e5571ed6fb32b3504545598edc6007363f6489dd0c309cc9c9517b086c210312bd55535d07f2628882fa89038c6bde48c64c09455e33f11fc45d84723676f0210369adf3cb97aa2f8d6fe533cd7a5ddb51064502ecf48a1c3415c0655f4e09234053ae00000000", "vin": [{"txinwitness": ["", "3045022100f9759c26b6c74408a9667ec749c84079a42ba7178ff4b8468a51908de50480b40220189849d24629b505f55132e8c0fc4c18602af99758c9299b7b8ea080a563dc0101", "304402205ea4fdb776bc69d4438f3f3b7cb23999338eb10a5803daef1572f26b90ff3a0a02206b7b1c9858923be91a43555042f0bc08efbed6621a3d5a8d7df484483626547701", "522102058d55e5571ed6fb32b3504545598edc6007363f6489dd0c309cc9c9517b086c210312bd55535d07f2628882fa89038c6bde48c64c09455e33f11fc45d84723676f0210369adf3cb97aa2f8d6fe533cd7a5ddb51064502ecf48a1c3415c0655f4e09234053ae"], "sequence": 4294967295, "scriptSig": {"hex": "22002086b3fe4fd4db1e29bbf0282ce5060090d17d74a25dbf4fdac4a717d340f96a82", "asm": "002086b3fe4fd4db1e29bbf0282ce5060090d17d74a25dbf4fdac4a717d340f96a82"}, "vout": 1, "txid": "97d3db0293e007bf728d6db4a4609f9e9cd58ecdc9df3ecf7f4a83b5e6a18944"}], "txid": "2c8e3599fe74fe317125ed08f61540e839702b8a4ea4d2e7f9894f9d99f1e5fb", "blocktime": 1537870928, "version": 1, "confirmations": 11514, "time": 1537870928, "locktime": 0, "vsize": 216, "size": 407}