{"hash": "b4a98339e854d450b782185a2c400deaad9d7f8ae2b7f5410e742afd21f16969", "blockhash": "00000000000000000024a2167bbff67b0be802c0b01cdd79e6331c2be6459f87", "vout": [{"scriptPubKey": {"reqSigs": 1, "hex": "0014ff8f888c311fe7489eee8ab8ad4b087e80325e61", "addresses": ["bc1ql78c3rp3rln538hw32u26jcg06qryhnp2u08g0"], "asm": "0 ff8f888c311fe7489eee8ab8ad4b087e80325e61", "type": "witness_v0_keyhash"}, "value": 0.00155631, "n": 0}, {"scriptPubKey": {"reqSigs": 1, "hex": "a914d876feff32ba44d829a6214a1daba772cf596c8887", "addresses": ["3MRaRyKSa88bMtWaQWynP4ek3hqbWSqggD"], "asm": "OP_HASH160 d876feff32ba44d829a6214a1daba772cf596c88 OP_EQUAL", "type": "scripthash"}, "value": 0.02339367, "n": 1}], "hex": "01000000000101cf484e7e19e5c02615f835890bfc620d4afd84922539cdc2ebe38ced213b32020100000000ffffffff02ef5f020000000000160014ff8f888c311fe7489eee8ab8ad4b087e80325e6127b223000000000017a914d876feff32ba44d829a6214a1daba772cf596c888702473044022015cb658b762009b10b340e02c0a12e4fa087f38163da565cc85422459be8a9a102207adee67357b5b3db113749b2356831bc1cf54ca871d360c5e7a9eb9fac40efdf0121023fc275a893ca999925be206c01917326cc7a58b60d8d506c63ba6d3834552a9900000000", "vin": [{"txinwitness": ["3044022015cb658b762009b10b340e02c0a12e4fa087f38163da565cc85422459be8a9a102207adee67357b5b3db113749b2356831bc1cf54ca871d360c5e7a9eb9fac40efdf01", "023fc275a893ca999925be206c01917326cc7a58b60d8d506c63ba6d3834552a99"], "sequence": 4294967295, "scriptSig": {"hex": "", "asm": ""}, "vout": 1, "txid": "02323b21ed8ce3ebc2cd39259284fd4a0d62fc0b8935f81526c0e5197e4e48cf"}], "txid": "2ca02e4b4e19bbc59350377e5b34037a33a8a790e8b2e251993d8add0f7a3bea", "blocktime": 1537870564, "version": 1, "confirmations": 11515, "time": 1537870564, "locktime": 0, "vsize": 142, "size": 223}