{"hash": "2ca76fc280713017b60cf34d82abc5acf00fc51f118f116ead40f6d61e2d4516", "blockhash": "0000000000000000001f76057863aec43deb6fa401d9628bb513d65a8098bfab", "vout": [{"scriptPubKey": {"reqSigs": 1, "hex": "a914fe3c87e03a913ec23ce31da240187cdbcfcdb63d87", "addresses": ["3QsJ527TndxkT3dpZf62cZu3BQfVMS5opR"], "asm": "OP_HASH160 fe3c87e03a913ec23ce31da240187cdbcfcdb63d OP_EQUAL", "type": "scripthash"}, "value": 0.0159085, "n": 0}, {"scriptPubKey": {"reqSigs": 1, "hex": "a91448034b92b3013584203d3f37e06c73d2afe0f1f687", "addresses": ["38FnXJxxXoPnoqjUghFtWJc5iSxYKuoZb8"], "asm": "OP_HASH160 48034b92b3013584203d3f37e06c73d2afe0f1f6 OP_EQUAL", "type": "scripthash"}, "value": 0.02953302, "n": 1}, {"scriptPubKey": {"reqSigs": 1, "hex": "a9145c994dce95f79351af54835ae551e5072c812ac387", "addresses": ["3A8djwFbUY7BsHVbjtjALoUe9yY4feq8mP"], "asm": "OP_HASH160 5c994dce95f79351af54835ae551e5072c812ac3 OP_EQUAL", "type": "scripthash"}, "value": 0.02898387, "n": 2}, {"scriptPubKey": {"reqSigs": 1, "hex": "76a914a87d52523f351ae34c309b0da9aec9e8bf34b83788ac", "addresses": ["1GMteiv52J41S5oPZBhXdag2X7TtQLNJGt"], "asm": "OP_DUP OP_HASH160 a87d52523f351ae34c309b0da9aec9e8bf34b837 OP_EQUALVERIFY OP_CHECKSIG", "type": "pubkeyhash"}, "value": 0.00814972, "n": 3}, {"scriptPubKey": {"reqSigs": 1, "hex": "a91475e182e6f1587f760d0ffbc8049caac229a8e78a87", "addresses": ["3CSK8nngg1WeQtZj2D3pmvrrWhZt2sMdoy"], "asm": "OP_HASH160 75e182e6f1587f760d0ffbc8049caac229a8e78a OP_EQUAL", "type": "scripthash"}, "value": 0.01124175, "n": 4}, {"scriptPubKey": {"reqSigs": 1, "hex": "a9144f0da7490afec42d6b90b12b52e33e7d5f3b545f87", "addresses": ["38u1fMg7RkT5Evh1r2vaGxSS5wkrttKNdr"], "asm": "OP_HASH160 4f0da7490afec42d6b90b12b52e33e7d5f3b545f OP_EQUAL", "type": "scripthash"}, "value": 0.04996, "n": 5}, {"scriptPubKey": {"reqSigs": 1, "hex": "a91469f373e05f3d94fbd9b54e785bc7003e141fdfb887", "addresses": ["3BMEX58kvNgpm4YiwoGYbk5gL4eQChY91r"], "asm": "OP_HASH160 69f373e05f3d94fbd9b54e785bc7003e141fdfb8 OP_EQUAL", "type": "scripthash"}, "value": 0.18649, "n": 6}, {"scriptPubKey": {"reqSigs": 1, "hex": "a914b2bf456e717e365a97529f159c465d5cc9f129d287", "addresses": ["3Hz9LSrsFv2mfNLay8xkAeDk3AceT7uFtc"], "asm": "OP_HASH160 b2bf456e717e365a97529f159c465d5cc9f129d2 OP_EQUAL", "type": "scripthash"}, "value": 0.02613286, "n": 7}, {"scriptPubKey": {"reqSigs": 1, "hex": "76a91469fe4263c2bd6d860f98ca4b305871c7e5b21f3388ac", "addresses": ["1AfSYPeaYS4JAcYttDZvmdBmehXL7ftC31"], "asm": "OP_DUP OP_HASH160 69fe4263c2bd6d860f98ca4b305871c7e5b21f33 OP_EQUALVERIFY OP_CHECKSIG", "type": "pubkeyhash"}, "value": 0.00995418, "n": 8}, {"scriptPubKey": {"reqSigs": 1, "hex": "76a914429d3a4ee2079d9381a1a7bdca49f89fa121650588ac", "addresses": ["175Dx3BD86Y7EKqk7AJ6VkyQJB2xnUhvpL"], "asm": "OP_DUP OP_HASH160 429d3a4ee2079d9381a1a7bdca49f89fa1216505 OP_EQUALVERIFY OP_CHECKSIG", "type": "pubkeyhash"}, "value": 0.00177168, "n": 9}, {"scriptPubKey": {"reqSigs": 1, "hex": "76a9142d07c664d26ee0a982ff0a441f97c4feb6442d9188ac", "addresses": ["1576ir8sMb86H27r3GbYtBcfaCemyBLWXd"], "asm": "OP_DUP OP_HASH160 2d07c664d26ee0a982ff0a441f97c4feb6442d91 OP_EQUALVERIFY OP_CHECKSIG", "type": "pubkeyhash"}, "value": 0.00248985, "n": 10}, {"scriptPubKey": {"reqSigs": 1, "hex": "76a9147ceadd7d0838b1cb53ee5e23ba8cd95f0fc2448688ac", "addresses": ["1CPW9WNWzXjFZUpa2JgkGaCNpjfqpMyCcY"], "asm": "OP_DUP OP_HASH160 7ceadd7d0838b1cb53ee5e23ba8cd95f0fc24486 OP_EQUALVERIFY OP_CHECKSIG", "type": "pubkeyhash"}, "value": 0.00209948, "n": 11}, {"scriptPubKey": {"reqSigs": 1, "hex": "a9144c6c921da50a5439d2af175f9e191a0d7901d17787", "addresses": ["38f7LkZViJ3mgtVXzucxFRSx7dqp86HUez"], "asm": "OP_HASH160 4c6c921da50a5439d2af175f9e191a0d7901d177 OP_EQUAL", "type": "scripthash"}, "value": 0.00213511, "n": 12}], "hex": "02000000060eab998d8c8a6ad48c9318e28570deb4d89aa11ed9b7db88d006111bc6e32ac6000000006b483045022100d4a7d245b177baa7cdea4ae284aa95a1dbe6fac141d5583e13a1899421337eb00220030c5a5689095547d082ebf78b409dfef65e3000f25517ba21f73588af170785012102f65c06d13df36fbd78e007527bd0d1dd5392847a7608c1e7d4aba09170b459c3feffffff30a3120474f5efd1dc46b9c77c3227c43455b13579b921cfcc16c02e5a2235a2010000006b4830450221009b9c2363026a20aeb70248eaa8b2e92295cfbb929c9866efeaa9ae3343fbe14a02202bfde70fc0fcb019f5e2f4a89c222089b2eee7f20e237ba2bb29baf53f216c1c01210248cf158801ff3b3eaff8544c66231e279eb036c525f56671ee2b71600ae9cfdafeffffff72cc334de5b5492eca48dae9c4fdf0b0cfa3f9132553034b2ee4a1561e62528c010000006a4730440220090bdc626b69a2da2cd743e52223b583b3793e4683580ec8e154384e8524623f022057aee998255a6d31c39e9f6c0df433028ee038b17d2e19d4328ad9aeb2415fbc01210228b8c57a2e563d0d8ada5803fbd9334c4a65099d02bb450a2fe716f48569c968feffffffb4d515c0b04db0cae840cd484268b806f7304056dc2472c96124370df990bcd4000000006a47304402203c4b981e40729a6a8317c516cdc98691ddfc12a6bb91693eed04aa72b8d2859202202ae9a13cac33998152c580b08aa067d1bd722fd4dfff224d294581e30c46667c012102f3364cf146b1f6092a8a1578583e8cd5e7e54daa41c59f5f645726176ed8796cfeffffffc39082e02495ff9504e9c0364baeec279ea5ddcd6edc9da3524f462b66682506000000006b483045022100e87afb1eb6ac2cc6b23f9f0c1316952b8077e8b08d38fcec2a949bf67bd467ea02207e8c1269afea50b45ef682d486d6d4a8ba93f87228279ffa327f491305de899301210212f14798259ed2e267ee824c979243043d91f10121d4f322e4220573bf07bbaefeffffffd5cbc9418b9af3b5e6c72777b298d5cb172565a5cd58bd54ec7fa404bd71eb56030000006a47304402203d15225fc3cade5f8d927c937c8eeef7237c218d86038aff74b26ea0150dcb910220182342d3c21a744c01b30aeb74d6737f46525cd5e384f2a1112ee3a8afe2aa0c012103bdc541b5b1bb2e558bb17fc431d793b8875b884e8e5fc30f4338895202ea8eadfeffffff0d424618000000000017a914fe3c87e03a913ec23ce31da240187cdbcfcdb63d8756102d000000000017a91448034b92b3013584203d3f37e06c73d2afe0f1f687d3392c000000000017a9145c994dce95f79351af54835ae551e5072c812ac3877c6f0c00000000001976a914a87d52523f351ae34c309b0da9aec9e8bf34b83788ac4f2711000000000017a91475e182e6f1587f760d0ffbc8049caac229a8e78a87a03b4c000000000017a9144f0da7490afec42d6b90b12b52e33e7d5f3b545f87a88f1c010000000017a91469f373e05f3d94fbd9b54e785bc7003e141fdfb88726e027000000000017a914b2bf456e717e365a97529f159c465d5cc9f129d2875a300f00000000001976a91469fe4263c2bd6d860f98ca4b305871c7e5b21f3388ac10b40200000000001976a914429d3a4ee2079d9381a1a7bdca49f89fa121650588ac99cc0300000000001976a9142d07c664d26ee0a982ff0a441f97c4feb6442d9188ac1c340300000000001976a9147ceadd7d0838b1cb53ee5e23ba8cd95f0fc2448688ac074203000000000017a9144c6c921da50a5439d2af175f9e191a0d7901d1778713490800", "vin": [{"sequence": 4294967294, "scriptSig": {"hex": "483045022100d4a7d245b177baa7cdea4ae284aa95a1dbe6fac141d5583e13a1899421337eb00220030c5a5689095547d082ebf78b409dfef65e3000f25517ba21f73588af170785012102f65c06d13df36fbd78e007527bd0d1dd5392847a7608c1e7d4aba09170b459c3", "asm": "3045022100d4a7d245b177baa7cdea4ae284aa95a1dbe6fac141d5583e13a1899421337eb00220030c5a5689095547d082ebf78b409dfef65e3000f25517ba21f73588af170785[ALL] 02f65c06d13df36fbd78e007527bd0d1dd5392847a7608c1e7d4aba09170b459c3"}, "vout": 0, "txid": "c62ae3c61b1106d088dbb7d91ea19ad8b4de7085e218938cd46a8a8c8d99ab0e"}, {"sequence": 4294967294, "scriptSig": {"hex": "4830450221009b9c2363026a20aeb70248eaa8b2e92295cfbb929c9866efeaa9ae3343fbe14a02202bfde70fc0fcb019f5e2f4a89c222089b2eee7f20e237ba2bb29baf53f216c1c01210248cf158801ff3b3eaff8544c66231e279eb036c525f56671ee2b71600ae9cfda", "asm": "30450221009b9c2363026a20aeb70248eaa8b2e92295cfbb929c9866efeaa9ae3343fbe14a02202bfde70fc0fcb019f5e2f4a89c222089b2eee7f20e237ba2bb29baf53f216c1c[ALL] 0248cf158801ff3b3eaff8544c66231e279eb036c525f56671ee2b71600ae9cfda"}, "vout": 1, "txid": "a235225a2ec016cccf21b97935b15534c427327cc7b946dcd1eff5740412a330"}, {"sequence": 4294967294, "scriptSig": {"hex": "4730440220090bdc626b69a2da2cd743e52223b583b3793e4683580ec8e154384e8524623f022057aee998255a6d31c39e9f6c0df433028ee038b17d2e19d4328ad9aeb2415fbc01210228b8c57a2e563d0d8ada5803fbd9334c4a65099d02bb450a2fe716f48569c968", "asm": "30440220090bdc626b69a2da2cd743e52223b583b3793e4683580ec8e154384e8524623f022057aee998255a6d31c39e9f6c0df433028ee038b17d2e19d4328ad9aeb2415fbc[ALL] 0228b8c57a2e563d0d8ada5803fbd9334c4a65099d02bb450a2fe716f48569c968"}, "vout": 1, "txid": "8c52621e56a1e42e4b03532513f9a3cfb0f0fdc4e9da48ca2e49b5e54d33cc72"}, {"sequence": 4294967294, "scriptSig": {"hex": "47304402203c4b981e40729a6a8317c516cdc98691ddfc12a6bb91693eed04aa72b8d2859202202ae9a13cac33998152c580b08aa067d1bd722fd4dfff224d294581e30c46667c012102f3364cf146b1f6092a8a1578583e8cd5e7e54daa41c59f5f645726176ed8796c", "asm": "304402203c4b981e40729a6a8317c516cdc98691ddfc12a6bb91693eed04aa72b8d2859202202ae9a13cac33998152c580b08aa067d1bd722fd4dfff224d294581e30c46667c[ALL] 02f3364cf146b1f6092a8a1578583e8cd5e7e54daa41c59f5f645726176ed8796c"}, "vout": 0, "txid": "d4bc90f90d372461c97224dc564030f706b8684248cd40e8cab04db0c015d5b4"}, {"sequence": 4294967294, "scriptSig": {"hex": "483045022100e87afb1eb6ac2cc6b23f9f0c1316952b8077e8b08d38fcec2a949bf67bd467ea02207e8c1269afea50b45ef682d486d6d4a8ba93f87228279ffa327f491305de899301210212f14798259ed2e267ee824c979243043d91f10121d4f322e4220573bf07bbae", "asm": "3045022100e87afb1eb6ac2cc6b23f9f0c1316952b8077e8b08d38fcec2a949bf67bd467ea02207e8c1269afea50b45ef682d486d6d4a8ba93f87228279ffa327f491305de8993[ALL] 0212f14798259ed2e267ee824c979243043d91f10121d4f322e4220573bf07bbae"}, "vout": 0, "txid": "062568662b464f52a39ddc6ecddda59e27ecae4b36c0e90495ff9524e08290c3"}, {"sequence": 4294967294, "scriptSig": {"hex": "47304402203d15225fc3cade5f8d927c937c8eeef7237c218d86038aff74b26ea0150dcb910220182342d3c21a744c01b30aeb74d6737f46525cd5e384f2a1112ee3a8afe2aa0c012103bdc541b5b1bb2e558bb17fc431d793b8875b884e8e5fc30f4338895202ea8ead", "asm": "304402203d15225fc3cade5f8d927c937c8eeef7237c218d86038aff74b26ea0150dcb910220182342d3c21a744c01b30aeb74d6737f46525cd5e384f2a1112ee3a8afe2aa0c[ALL] 03bdc541b5b1bb2e558bb17fc431d793b8875b884e8e5fc30f4338895202ea8ead"}, "vout": 3, "txid": "56eb71bd04a47fec54bd58cda5652517cbd598b27727c7e6b5f39a8b41c9cbd5"}], "txid": "2ca76fc280713017b60cf34d82abc5acf00fc51f118f116ead40f6d61e2d4516", "blocktime": 1537873891, "version": 2, "confirmations": 11478, "time": 1537873891, "locktime": 542995, "vsize": 1321, "size": 1321}