{"hash": "2cab3d64dbd95599f67e5c4ed224f5c96a515199c686a552413734747607f740", "blockhash": "00000000000000000017f5eb5941039fbcee6240d03bc1f2f8e35350df66a1d8", "vout": [{"scriptPubKey": {"reqSigs": 1, "hex": "76a914c308577f69b2f92c922fc53876459b163c7fbca788ac", "addresses": ["1JnEm1GCNrafZ3gjf7an5tYotkrxJ76Y6y"], "asm": "OP_DUP OP_HASH160 c308577f69b2f92c922fc53876459b163c7fbca7 OP_EQUALVERIFY OP_CHECKSIG", "type": "pubkeyhash"}, "value": 0.00013931, "n": 0}, {"scriptPubKey": {"reqSigs": 1, "hex": "a91466fec7f9f66d6a17189c1ce48e556cf160438dd187", "addresses": ["3B5c4cfJgWP7c7ZkgdTER2iFFVKtaRuCmH"], "asm": "OP_HASH160 66fec7f9f66d6a17189c1ce48e556cf160438dd1 OP_EQUAL", "type": "scripthash"}, "value": 0.10088412, "n": 1}], "hex": "01000000034a751a28ebf0c10597323976f0c3f0b49dd7c69078324fed57c0711e97c6ea82000000006b483045022100ebf65a72083b4e6a3934a977af16575fd5520d01d163daef53e0f092d3b70724022003b0754e2125a399a3211b528d0c470412ee5c8d9b2d2a5f12c3319c79baa4da0121024f5728507e29140e57a153734179eb6899363c0cc7c3b5324389b5a328a4387effffffffd92d225eaebdd55006c92258a57ffc169afd7bac56f6eb79b7deb573ada82dcf000000006b483045022100c88c7f83212009e6b67ca7b5347b179eab986d2c3113a1f923ddec161582c66c0220699daac473bfb5039ab24b4cc3367a0fdca18c82b43747b51ad36b782f7eb34a012103baa5510e682fc2c3f4aab6bab86c2c6178e334110cc2773d4ad17db06da7d340ffffffff8cad43f6d6cee5f251afb5141fea5abc80ee732c88853151e46892a74faa37fb140000006b483045022100f758d1420dba4dc7e58dbf7620ba055a889c9b5865637e86e0c9bfe55547a9120220629710189bac6ec592cefcf931dd8d822f2cb9c2e31d2c32d072ae445e8be9050121039bff0b9309c5efbbeb16e902abcb11b475a73199261fb79c32114434663c0508ffffffff026b360000000000001976a914c308577f69b2f92c922fc53876459b163c7fbca788acdcef99000000000017a91466fec7f9f66d6a17189c1ce48e556cf160438dd18700000000", "vin": [{"sequence": 4294967295, "scriptSig": {"hex": "483045022100ebf65a72083b4e6a3934a977af16575fd5520d01d163daef53e0f092d3b70724022003b0754e2125a399a3211b528d0c470412ee5c8d9b2d2a5f12c3319c79baa4da0121024f5728507e29140e57a153734179eb6899363c0cc7c3b5324389b5a328a4387e", "asm": "3045022100ebf65a72083b4e6a3934a977af16575fd5520d01d163daef53e0f092d3b70724022003b0754e2125a399a3211b528d0c470412ee5c8d9b2d2a5f12c3319c79baa4da[ALL] 024f5728507e29140e57a153734179eb6899363c0cc7c3b5324389b5a328a4387e"}, "vout": 0, "txid": "82eac6971e71c057ed4f327890c6d79db4f0c3f07639329705c1f0eb281a754a"}, {"sequence": 4294967295, "scriptSig": {"hex": "483045022100c88c7f83212009e6b67ca7b5347b179eab986d2c3113a1f923ddec161582c66c0220699daac473bfb5039ab24b4cc3367a0fdca18c82b43747b51ad36b782f7eb34a012103baa5510e682fc2c3f4aab6bab86c2c6178e334110cc2773d4ad17db06da7d340", "asm": "3045022100c88c7f83212009e6b67ca7b5347b179eab986d2c3113a1f923ddec161582c66c0220699daac473bfb5039ab24b4cc3367a0fdca18c82b43747b51ad36b782f7eb34a[ALL] 03baa5510e682fc2c3f4aab6bab86c2c6178e334110cc2773d4ad17db06da7d340"}, "vout": 0, "txid": "cf2da8ad73b5deb779ebf656ac7bfd9a16fc7fa55822c90650d5bdae5e222dd9"}, {"sequence": 4294967295, "scriptSig": {"hex": "483045022100f758d1420dba4dc7e58dbf7620ba055a889c9b5865637e86e0c9bfe55547a9120220629710189bac6ec592cefcf931dd8d822f2cb9c2e31d2c32d072ae445e8be9050121039bff0b9309c5efbbeb16e902abcb11b475a73199261fb79c32114434663c0508", "asm": "3045022100f758d1420dba4dc7e58dbf7620ba055a889c9b5865637e86e0c9bfe55547a9120220629710189bac6ec592cefcf931dd8d822f2cb9c2e31d2c32d072ae445e8be905[ALL] 039bff0b9309c5efbbeb16e902abcb11b475a73199261fb79c32114434663c0508"}, "vout": 20, "txid": "fb37aa4fa79268e4513185882c73ee80bc5aea1f14b5af51f2e5ced6f643ad8c"}], "txid": "2cab3d64dbd95599f67e5c4ed224f5c96a515199c686a552413734747607f740", "blocktime": 1537874412, "version": 1, "confirmations": 11467, "time": 1537874412, "locktime": 0, "vsize": 520, "size": 520}