{"hash": "2cb2109e086f89240f848aba65a40d2d77ed3eb1fd85dc6c01b0a07eac325269", "blockhash": "0000000000000000000dcc0f55137456b1a82d3642486a52398922ac4d620174", "vout": [{"scriptPubKey": {"reqSigs": 1, "hex": "76a914d1c7b67f90cdae44ac1f60b1252dca77e0dfa0bf88ac", "addresses": ["1L8DUPStSSQUdT8GA7hZfB6i9kLJg53kKX"], "asm": "OP_DUP OP_HASH160 d1c7b67f90cdae44ac1f60b1252dca77e0dfa0bf OP_EQUALVERIFY OP_CHECKSIG", "type": "pubkeyhash"}, "value": 9.806e-05, "n": 0}, {"scriptPubKey": {"reqSigs": 1, "hex": "76a91475d897a35d91f325a7772547b2d727cd6c34afab88ac", "addresses": ["1Bk7XYXRt6TvyZAt8VZxxpPgKL48t3v8NA"], "asm": "OP_DUP OP_HASH160 75d897a35d91f325a7772547b2d727cd6c34afab OP_EQUALVERIFY OP_CHECKSIG", "type": "pubkeyhash"}, "value": 0.00507073, "n": 1}], "hex": "0100000003ada39ea8506fbf9d1b9da4f97d7be31f3b595667f168b4314d56ebebe3e579bc000000006b483045022100d2ba4aefaecea7b3c46d4b4dd80b6e34863661413756cb776e1bd40f830f360f022042fe962da64220f28c0a371791af20332d9cc101b176a352ce0ac67fc2a334c1012103d7a322d289ae6e8da0829020cdeb679e2fe81b1b55db6102ccf439e417e78ee5ffffffff70d6c058bb5851030aa922b926fabb29c86f4414e3f598d326a9634593d3dec8000000006b483045022100a7d77ebae229996c1fa867f54a0cecca69489659a21b1cd184b5491aaa993a99022009e00a143e4937b3fafffc552d21c87e5671052f0b0541ace864ebcb3224c14d01210215404903087a3566bb1116ec77bfc6d6d2d872d94677d79c97ac4a60e3f72cefffffffffd9d0bcfd9d3b4e3d1fc8d4ac269b917b5eb6c91dfd34ab0cd4b7fb18e06f9fd6010000006b483045022100c73d72bf8f24660e3faae8ef73c5966059b3dddef208886df03c1104f4d102d202200d5cb42f6d363f4fe7b76639a38046e78a4778044c9c3fce5d9aa23dbeac7d1e012103ad88ae42a4a84a8113fc7fcc902601ccc3e0f3dd5be578d4ceffd656a195c249ffffffff024e260000000000001976a914d1c7b67f90cdae44ac1f60b1252dca77e0dfa0bf88acc1bc0700000000001976a91475d897a35d91f325a7772547b2d727cd6c34afab88ac00000000", "vin": [{"sequence": 4294967295, "scriptSig": {"hex": "483045022100d2ba4aefaecea7b3c46d4b4dd80b6e34863661413756cb776e1bd40f830f360f022042fe962da64220f28c0a371791af20332d9cc101b176a352ce0ac67fc2a334c1012103d7a322d289ae6e8da0829020cdeb679e2fe81b1b55db6102ccf439e417e78ee5", "asm": "3045022100d2ba4aefaecea7b3c46d4b4dd80b6e34863661413756cb776e1bd40f830f360f022042fe962da64220f28c0a371791af20332d9cc101b176a352ce0ac67fc2a334c1[ALL] 03d7a322d289ae6e8da0829020cdeb679e2fe81b1b55db6102ccf439e417e78ee5"}, "vout": 0, "txid": "bc79e5e3ebeb564d31b468f16756593b1fe37b7df9a49d1b9dbf6f50a89ea3ad"}, {"sequence": 4294967295, "scriptSig": {"hex": "483045022100a7d77ebae229996c1fa867f54a0cecca69489659a21b1cd184b5491aaa993a99022009e00a143e4937b3fafffc552d21c87e5671052f0b0541ace864ebcb3224c14d01210215404903087a3566bb1116ec77bfc6d6d2d872d94677d79c97ac4a60e3f72cef", "asm": "3045022100a7d77ebae229996c1fa867f54a0cecca69489659a21b1cd184b5491aaa993a99022009e00a143e4937b3fafffc552d21c87e5671052f0b0541ace864ebcb3224c14d[ALL] 0215404903087a3566bb1116ec77bfc6d6d2d872d94677d79c97ac4a60e3f72cef"}, "vout": 0, "txid": "c8ded3934563a926d398f5e314446fc829bbfa26b922a90a035158bb58c0d670"}, {"sequence": 4294967295, "scriptSig": {"hex": "483045022100c73d72bf8f24660e3faae8ef73c5966059b3dddef208886df03c1104f4d102d202200d5cb42f6d363f4fe7b76639a38046e78a4778044c9c3fce5d9aa23dbeac7d1e012103ad88ae42a4a84a8113fc7fcc902601ccc3e0f3dd5be578d4ceffd656a195c249", "asm": "3045022100c73d72bf8f24660e3faae8ef73c5966059b3dddef208886df03c1104f4d102d202200d5cb42f6d363f4fe7b76639a38046e78a4778044c9c3fce5d9aa23dbeac7d1e[ALL] 03ad88ae42a4a84a8113fc7fcc902601ccc3e0f3dd5be578d4ceffd656a195c249"}, "vout": 1, "txid": "d69f6fe018fbb7d40cab34fd1dc9b65e7b919b26acd4c81f3d4e3b9dfdbcd0d9"}], "txid": "2cb2109e086f89240f848aba65a40d2d77ed3eb1fd85dc6c01b0a07eac325269", "blocktime": 1537870268, "version": 1, "confirmations": 11518, "time": 1537870268, "locktime": 0, "vsize": 522, "size": 522}