{"hash": "f6cf517147df6ec119de19ffcaf00fda28f1b982dacda31275a358c55b0c52fd", "blockhash": "0000000000000000000e13cef7c366c0283d82e591d1acd082e914b08063cdf1", "vout": [{"scriptPubKey": {"reqSigs": 1, "hex": "0020b515657cba7f70420e9490603bb16ecb18b63376e15138ed2495ae810aaee956", "addresses": ["bc1qk52k2l960acyyr55jpsrhvtwevvtvvmku9gn3mfyjkhgzz4wa9tq75map4"], "asm": "0 b515657cba7f70420e9490603bb16ecb18b63376e15138ed2495ae810aaee956", "type": "witness_v0_scripthash"}, "value": 0.00414873, "n": 0}, {"scriptPubKey": {"reqSigs": 1, "hex": "00143386666666784f52aff28d15eb0478b5109fe34a", "addresses": ["bc1qxwrxvenx0p849tlj3527kprck5gflc62ldcz44"], "asm": "0 3386666666784f52aff28d15eb0478b5109fe34a", "type": "witness_v0_keyhash"}, "value": 0.00837952, "n": 1}], "hex": "01000000000102fbfa38730900207d7bb74d1b7991f1144683fbf96a4ecea7cdc15eca8b27d5b400000000171600142ddedb856bede7bab55b01d05b92d34bab30aca9ffffffff2040750a4067368030cbe73200cbeaa5c86e1eef9027f42ab81741c6f7c067c10100000000ffffffff029954060000000000220020b515657cba7f70420e9490603bb16ecb18b63376e15138ed2495ae810aaee95640c90c00000000001600143386666666784f52aff28d15eb0478b5109fe34a02483045022100f6cea3f5d99c0ffbcefde9291acb65e04918126b0a492fec80daac40e824b81c02202fa8a701182a9fe337cf6c0fa931a116d2dc64d62e83ad70795a804d1b8f6fb30121023b0d24cf236f01c237ddcab8f57ac81fc5ac48576abe73277389d98c7cc9d1900247304402207395205abe57fda36ae2a7f1fa71133738cddceb3682b05167858f97ddb1a6ea02201bae824b5de853002726198779fe78aa9dfd235163a26124581f42f8c73a56d801210319498d3c7f4f99881fb5aceb5a791090191f535a7bd8d01b4166f604cdad69f000000000", "vin": [{"txinwitness": ["3045022100f6cea3f5d99c0ffbcefde9291acb65e04918126b0a492fec80daac40e824b81c02202fa8a701182a9fe337cf6c0fa931a116d2dc64d62e83ad70795a804d1b8f6fb301", "023b0d24cf236f01c237ddcab8f57ac81fc5ac48576abe73277389d98c7cc9d190"], "sequence": 4294967295, "scriptSig": {"hex": "1600142ddedb856bede7bab55b01d05b92d34bab30aca9", "asm": "00142ddedb856bede7bab55b01d05b92d34bab30aca9"}, "vout": 0, "txid": "b4d5278bca5ec1cda7ce4e6af9fb834614f191791b4db77b7d2000097338fafb"}, {"txinwitness": ["304402207395205abe57fda36ae2a7f1fa71133738cddceb3682b05167858f97ddb1a6ea02201bae824b5de853002726198779fe78aa9dfd235163a26124581f42f8c73a56d801", "0319498d3c7f4f99881fb5aceb5a791090191f535a7bd8d01b4166f604cdad69f0"], "sequence": 4294967295, "scriptSig": {"hex": "", "asm": ""}, "vout": 1, "txid": "c167c0f7c64117b82af42790ef1e6ec8a5eacb0032e7cb30803667400a754020"}], "txid": "2cb4d9dbc052b213a307680eaee01b1bf835839b63fb6d4c1463d3e68125855c", "blocktime": 1537871767, "version": 1, "confirmations": 11495, "time": 1537871767, "locktime": 0, "vsize": 244, "size": 406}