{"hash": "4fdfd5345623587b413ab9f447115fcbee34b6aa65d085327f0ef1151ce130f2", "blockhash": "0000000000000000001f0ddff1eddb255c1121bcd4da4f1bc9a0da00cae72433", "vout": [{"scriptPubKey": {"reqSigs": 1, "hex": "a9143d76e060731e1eb5749de9886816edc5aa2d0b0f87", "addresses": ["37J1YvkFJ61sWdgVt7M18494f2u4sB8S3q"], "asm": "OP_HASH160 3d76e060731e1eb5749de9886816edc5aa2d0b0f OP_EQUAL", "type": "scripthash"}, "value": 0.02001763, "n": 0}, {"scriptPubKey": {"reqSigs": 1, "hex": "a914175b0200ff7d0e19221faa11289d8d7b612ae14987", "addresses": ["33pWVHomDA3zovi5ovRsTsyojUhpJWmN9d"], "asm": "OP_HASH160 175b0200ff7d0e19221faa11289d8d7b612ae149 OP_EQUAL", "type": "scripthash"}, "value": 0.00287619, "n": 1}], "hex": "01000000000101365761c348ed7d8d382c6a81602d76ce52af5458830837e3e0c6dd5f4db93ab30000000023220020801ea14a7b6e703da2ec9470d52e6585a643a491ca644e9c747387af31834dd9ffffffff02638b1e000000000017a9143d76e060731e1eb5749de9886816edc5aa2d0b0f87836304000000000017a914175b0200ff7d0e19221faa11289d8d7b612ae149870400483045022100bcf85f9fe3789aeb80a18bd13b9982641d51f93b9b4200ea246f16699b0a682a02206365b9793fef34e09bd7abb08fc662bc75c0bb83893197008964deca704a489501483045022100f4fe3f3db50e59b1b6534f5c49e1153ad70aef88774f0a457d9a893715406e2402200cc2576881c398a23e1a3eae79bfd45d3a8293077c713dfa24f7f6b1d1822aab014752210294f32b4c52245a82a3b6106dcf5348f3648fe52bef9270d3b3bb13392a30cf042103f62b1d27158b53be9caeae920614d9c61c0d4e3ab8a2b8afbc8e020933c6e68352ae00000000", "vin": [{"txinwitness": ["", "3045022100bcf85f9fe3789aeb80a18bd13b9982641d51f93b9b4200ea246f16699b0a682a02206365b9793fef34e09bd7abb08fc662bc75c0bb83893197008964deca704a489501", "3045022100f4fe3f3db50e59b1b6534f5c49e1153ad70aef88774f0a457d9a893715406e2402200cc2576881c398a23e1a3eae79bfd45d3a8293077c713dfa24f7f6b1d1822aab01", "52210294f32b4c52245a82a3b6106dcf5348f3648fe52bef9270d3b3bb13392a30cf042103f62b1d27158b53be9caeae920614d9c61c0d4e3ab8a2b8afbc8e020933c6e68352ae"], "sequence": 4294967295, "scriptSig": {"hex": "220020801ea14a7b6e703da2ec9470d52e6585a643a491ca644e9c747387af31834dd9", "asm": "0020801ea14a7b6e703da2ec9470d52e6585a643a491ca644e9c747387af31834dd9"}, "vout": 0, "txid": "b33ab94d5fddc6e0e33708835854af52ce762d60816a2c388d7ded48c3615736"}], "txid": "2cc0b6a2497048d9e4aec0904aecca4c39c35d99b8cb0934d7ba2f4cf0f84080", "blocktime": 1537872018, "version": 1, "confirmations": 11489, "time": 1537872018, "locktime": 0, "vsize": 206, "size": 372}