{"hash": "255a264da6885a8b7fe30f7335e70fe7c3b2fe5c7cdb4f7ebb9463ec61987a72", "blockhash": "0000000000000000000dcc0f55137456b1a82d3642486a52398922ac4d620174", "vout": [{"scriptPubKey": {"reqSigs": 1, "hex": "a914a97619e0ea918391c7f57a9ba464c9a1a881192087", "addresses": ["3H93bmeRE6u3LepgPkuk8vXmrTrihRyuV6"], "asm": "OP_HASH160 a97619e0ea918391c7f57a9ba464c9a1a8811920 OP_EQUAL", "type": "scripthash"}, "value": 0.53452832, "n": 0}, {"scriptPubKey": {"reqSigs": 1, "hex": "76a9142c874ba87eaf233b1f208a22f136d8ee20cf027f88ac", "addresses": ["154SowVHoXPrPPjME7WtjwymZSGFgcjrq9"], "asm": "OP_DUP OP_HASH160 2c874ba87eaf233b1f208a22f136d8ee20cf027f OP_EQUALVERIFY OP_CHECKSIG", "type": "pubkeyhash"}, "value": 1.0, "n": 1}], "hex": "01000000000101f334c28131c548b46e9ca2ac90b010c3512d87b6116b469f856fd8611f90bbde00000000171600143dfbce8919c0a3a0c7f1de95f3790f389b84f126ffffffff0220a02f030000000017a914a97619e0ea918391c7f57a9ba464c9a1a88119208700e1f505000000001976a9142c874ba87eaf233b1f208a22f136d8ee20cf027f88ac024830450221009a474c726c0359aed539572016425c990018d112423567a43aadc00bced11d800220455ddef16cfec511677db0049a6fa80ac660152be72506354bd7b880e478b7be012103c5b7cfff6357a1e912f32311a5e381f8c565ba2935ba541e6f87834f90c0daef00000000", "vin": [{"txinwitness": ["30450221009a474c726c0359aed539572016425c990018d112423567a43aadc00bced11d800220455ddef16cfec511677db0049a6fa80ac660152be72506354bd7b880e478b7be01", "03c5b7cfff6357a1e912f32311a5e381f8c565ba2935ba541e6f87834f90c0daef"], "sequence": 4294967295, "scriptSig": {"hex": "1600143dfbce8919c0a3a0c7f1de95f3790f389b84f126", "asm": "00143dfbce8919c0a3a0c7f1de95f3790f389b84f126"}, "vout": 0, "txid": "debb901f61d86f859f466b11b6872d51c310b090aca29c6eb448c53181c234f3"}], "txid": "2cc16e60f37f9b3ab9a953f4f58a4248e9dac787152e7d671778152bb516140b", "blocktime": 1537870268, "version": 1, "confirmations": 11518, "time": 1537870268, "locktime": 0, "vsize": 168, "size": 250}