{"hash": "2cc26d1c601b9983354b11dd7fafc3f8370f476d01dd5c6fe49a2a425c67874d", "blockhash": "000000000000000000022b45ed06c6f4ccd3cf7fb5ba4856ebd2e58215665228", "vout": [{"scriptPubKey": {"reqSigs": 1, "hex": "76a9147b7272d4716c43d498e69a6cb979e50145f83e3088ac", "addresses": ["1CFjDcxz6fFmLDvRafd5r8zo6tf9ochm45"], "asm": "OP_DUP OP_HASH160 7b7272d4716c43d498e69a6cb979e50145f83e30 OP_EQUALVERIFY OP_CHECKSIG", "type": "pubkeyhash"}, "value": 9.208e-05, "n": 0}, {"scriptPubKey": {"reqSigs": 1, "hex": "76a914151180b59940fbe2158407e645941ae453b370d188ac", "addresses": ["12vQA9Fej2dRsm1CSPfnmv82PjTfiDER4K"], "asm": "OP_DUP OP_HASH160 151180b59940fbe2158407e645941ae453b370d1 OP_EQUALVERIFY OP_CHECKSIG", "type": "pubkeyhash"}, "value": 0.11844352, "n": 1}], "hex": "0100000001925c962b7cdd816041a8b2e58fbe4155889a858a4dda95d90102b70027aabf02010000006b483045022100885b34b1a508b3255e680d16dab92b70e1d5ae0365aac5181e955c39963a9e4502205b4fac488b6e8daf8c59e1df18c52254bfbb5a0d99feb10a8b894a16a8d15280012103448000116a75e5a139723b0fe5296df5cff841753b6b7e73e772be436702a408ffffffff02f8230000000000001976a9147b7272d4716c43d498e69a6cb979e50145f83e3088ac00bbb400000000001976a914151180b59940fbe2158407e645941ae453b370d188ac00000000", "vin": [{"sequence": 4294967295, "scriptSig": {"hex": "483045022100885b34b1a508b3255e680d16dab92b70e1d5ae0365aac5181e955c39963a9e4502205b4fac488b6e8daf8c59e1df18c52254bfbb5a0d99feb10a8b894a16a8d15280012103448000116a75e5a139723b0fe5296df5cff841753b6b7e73e772be436702a408", "asm": "3045022100885b34b1a508b3255e680d16dab92b70e1d5ae0365aac5181e955c39963a9e4502205b4fac488b6e8daf8c59e1df18c52254bfbb5a0d99feb10a8b894a16a8d15280[ALL] 03448000116a75e5a139723b0fe5296df5cff841753b6b7e73e772be436702a408"}, "vout": 1, "txid": "02bfaa2700b70201d995da4d8a859a885541be8fe5b2a8416081dd7c2b965c92"}], "txid": "2cc26d1c601b9983354b11dd7fafc3f8370f476d01dd5c6fe49a2a425c67874d", "blocktime": 1537869901, "version": 1, "confirmations": 11524, "time": 1537869901, "locktime": 0, "vsize": 226, "size": 226}