{"hash": "2cc48bf36e7d88559aeaa0563346ab79f7d38bf7c7a3a223cc815df3988e8a9c", "blockhash": "0000000000000000000e13cef7c366c0283d82e591d1acd082e914b08063cdf1", "vout": [{"scriptPubKey": {"type": "nulldata", "hex": "6a146f6d6e69000000000000001f000000137ff2d7c0", "asm": "OP_RETURN 6f6d6e69000000000000001f000000137ff2d7c0"}, "value": 0.0, "n": 0}, {"scriptPubKey": {"reqSigs": 1, "hex": "76a9143408ea959aa64abe8b1950669f1bdd5051f064ea88ac", "addresses": ["15k8pVdrFVG28WEzLEFAyC5Y3NYNe2mCp1"], "asm": "OP_DUP OP_HASH160 3408ea959aa64abe8b1950669f1bdd5051f064ea OP_EQUALVERIFY OP_CHECKSIG", "type": "pubkeyhash"}, "value": 5.46e-06, "n": 1}, {"scriptPubKey": {"reqSigs": 1, "hex": "76a9147772194e882117de3717689a7569a120f389d82e88ac", "addresses": ["1Bta6ZCkPXrwDHzXtNKDrKvDwmixX5JTNi"], "asm": "OP_DUP OP_HASH160 7772194e882117de3717689a7569a120f389d82e OP_EQUALVERIFY OP_CHECKSIG", "type": "pubkeyhash"}, "value": 0.04758535, "n": 2}], "hex": "010000000120fc2ed87501c5b6e9b60c039eeeea297eb7c4e6313636b00cbaf8781d190c65020000006b483045022100e37449c6f32aa271b30111a4f0b64284007a1d05deb669acda8034491390817002203e36e240c694849379dde0b8b0777bb2471c6dc692aade34281df60d65eb50a201210314ecc5b6203367a70a1c669434f06a1e256d88e4aff5a34e8f51e90b1d7b7a43feffffff030000000000000000166a146f6d6e69000000000000001f000000137ff2d7c022020000000000001976a9143408ea959aa64abe8b1950669f1bdd5051f064ea88ac079c4800000000001976a9147772194e882117de3717689a7569a120f389d82e88ac10490800", "vin": [{"sequence": 4294967294, "scriptSig": {"hex": "483045022100e37449c6f32aa271b30111a4f0b64284007a1d05deb669acda8034491390817002203e36e240c694849379dde0b8b0777bb2471c6dc692aade34281df60d65eb50a201210314ecc5b6203367a70a1c669434f06a1e256d88e4aff5a34e8f51e90b1d7b7a43", "asm": "3045022100e37449c6f32aa271b30111a4f0b64284007a1d05deb669acda8034491390817002203e36e240c694849379dde0b8b0777bb2471c6dc692aade34281df60d65eb50a2[ALL] 0314ecc5b6203367a70a1c669434f06a1e256d88e4aff5a34e8f51e90b1d7b7a43"}, "vout": 2, "txid": "650c191d78f8ba0cb0363631e6c4b77e29eaee9e030cb6e9b6c50175d82efc20"}], "txid": "2cc48bf36e7d88559aeaa0563346ab79f7d38bf7c7a3a223cc815df3988e8a9c", "blocktime": 1537871767, "version": 1, "confirmations": 11490, "time": 1537871767, "locktime": 542992, "vsize": 257, "size": 257}