{"hash": "389f9386bba252609292454ab4661395fcdd6b52da8facaa424294493870187d", "blockhash": "0000000000000000000baef3f32e3676a92c3b2e5da21b426e4f302fc371ce76", "vout": [{"scriptPubKey": {"reqSigs": 1, "hex": "a914cd0af1f438abfeed592c752ac34002b745f68e7b87", "addresses": ["3LPBZMG9Y9ePaDJzpeaZskWgCMxa7z65wj"], "asm": "OP_HASH160 cd0af1f438abfeed592c752ac34002b745f68e7b OP_EQUAL", "type": "scripthash"}, "value": 0.00778, "n": 0}, {"scriptPubKey": {"reqSigs": 1, "hex": "a9146165d14b03a188deecc50b1d434d9fed988c1cfe87", "addresses": ["3Aa1SZMvqYDeUB7kNDWptYddhhNFUpUee5"], "asm": "OP_HASH160 6165d14b03a188deecc50b1d434d9fed988c1cfe OP_EQUAL", "type": "scripthash"}, "value": 0.0266849, "n": 1}], "hex": "0100000000010126662ac34e4e607016c0348eccfefda001271cca510644c0e58c0bd732749f38010000001716001408d52cf0c6d698e6fe01cc099ba2992c785ce774ffffffff0210df0b000000000017a914cd0af1f438abfeed592c752ac34002b745f68e7b87cab728000000000017a9146165d14b03a188deecc50b1d434d9fed988c1cfe87024730440220094d584747782a76ac99917eb267867c4c4aa6f2de87523ed2a719a9c80368f40220594e597f78486f399841ed63c2ee59752037d52361eb017d6ca60ca90cf52f09012102a31ceb706980f54fd077ed2098da5d0230ebaac07882c5d59d94aeb8b6c1fc4500000000", "vin": [{"txinwitness": ["30440220094d584747782a76ac99917eb267867c4c4aa6f2de87523ed2a719a9c80368f40220594e597f78486f399841ed63c2ee59752037d52361eb017d6ca60ca90cf52f0901", "02a31ceb706980f54fd077ed2098da5d0230ebaac07882c5d59d94aeb8b6c1fc45"], "sequence": 4294967295, "scriptSig": {"hex": "16001408d52cf0c6d698e6fe01cc099ba2992c785ce774", "asm": "001408d52cf0c6d698e6fe01cc099ba2992c785ce774"}, "vout": 1, "txid": "389f7432d70b8ce5c0440651ca1c2701a0fdfecc8e34c01670604e4ec32a6626"}], "txid": "2cc64282705adc243fda0444ff031eb59c339f26227ff4ec4897b45f8522b96a", "blocktime": 1537876114, "version": 1, "confirmations": 11459, "time": 1537876114, "locktime": 0, "vsize": 166, "size": 247}