{"hash": "2cc8043cf6df78bad64ae850c352439c8fbf181f641947ba87b2450b6df1eca0", "blockhash": "0000000000000000001f76057863aec43deb6fa401d9628bb513d65a8098bfab", "vout": [{"scriptPubKey": {"reqSigs": 1, "hex": "76a91479bb3e46bf0763f0f802fe4d43aa8a99aae7e19388ac", "addresses": ["1C6f56uHnma9KemaUXp5eVFzhVqNqG5WtY"], "asm": "OP_DUP OP_HASH160 79bb3e46bf0763f0f802fe4d43aa8a99aae7e193 OP_EQUALVERIFY OP_CHECKSIG", "type": "pubkeyhash"}, "value": 0.0276, "n": 0}, {"scriptPubKey": {"reqSigs": 1, "hex": "76a914b6684a6aa45e30c5bf8c4b5a2f89c646e0ebf5ca88ac", "addresses": ["1HdUvA88w1gZYDDBSauME3NREdXWKA3J58"], "asm": "OP_DUP OP_HASH160 b6684a6aa45e30c5bf8c4b5a2f89c646e0ebf5ca OP_EQUALVERIFY OP_CHECKSIG", "type": "pubkeyhash"}, "value": 1.33627867, "n": 1}], "hex": "0100000001f06eef697bc0bc03e77fa2ccabe49bc618e01a4fd4853eb22e0ba20f436eac57010000006a473044022059d1807f72269651e2ccf0821e6b87e5a2172b8f046b528fd35a3c795541053c022061694d2d23c5f485ec9ef225bae74d388a14a391c02cad71b9054ed5923af34801210289c0ef658b25529e8ee4573d32cd4cbeffcfc32c916949b3a773c0aa00285987ffffffff02401d2a00000000001976a91479bb3e46bf0763f0f802fe4d43aa8a99aae7e19388acdbfff607000000001976a914b6684a6aa45e30c5bf8c4b5a2f89c646e0ebf5ca88ac00000000", "vin": [{"sequence": 4294967295, "scriptSig": {"hex": "473044022059d1807f72269651e2ccf0821e6b87e5a2172b8f046b528fd35a3c795541053c022061694d2d23c5f485ec9ef225bae74d388a14a391c02cad71b9054ed5923af34801210289c0ef658b25529e8ee4573d32cd4cbeffcfc32c916949b3a773c0aa00285987", "asm": "3044022059d1807f72269651e2ccf0821e6b87e5a2172b8f046b528fd35a3c795541053c022061694d2d23c5f485ec9ef225bae74d388a14a391c02cad71b9054ed5923af348[ALL] 0289c0ef658b25529e8ee4573d32cd4cbeffcfc32c916949b3a773c0aa00285987"}, "vout": 1, "txid": "57ac6e430fa20b2eb23e85d44f1ae018c69be4abcca27fe703bcc07b69ef6ef0"}], "txid": "2cc8043cf6df78bad64ae850c352439c8fbf181f641947ba87b2450b6df1eca0", "blocktime": 1537873891, "version": 1, "confirmations": 11478, "time": 1537873891, "locktime": 0, "vsize": 225, "size": 225}