{"hash": "2cd25dc84de47eb3e8ead1a35df5d4c5391dbc26f3282507bc678fc6ce49083a", "blockhash": "000000000000000000022b45ed06c6f4ccd3cf7fb5ba4856ebd2e58215665228", "vout": [{"scriptPubKey": {"reqSigs": 1, "hex": "a914e67529c39602932c0883e839d7c7037302c9d3b587", "addresses": ["3NhZhJVnkK2xY6AhVPxFLgNtVpTFyH3R7o"], "asm": "OP_HASH160 e67529c39602932c0883e839d7c7037302c9d3b5 OP_EQUAL", "type": "scripthash"}, "value": 0.03119163, "n": 0}, {"scriptPubKey": {"reqSigs": 1, "hex": "76a9146c425934eca490b9ff8911272ae6feb8a9b3037488ac", "addresses": ["1AsRTh1PFdWnNHnnmfmWs5L7RfXjnMms4P"], "asm": "OP_DUP OP_HASH160 6c425934eca490b9ff8911272ae6feb8a9b30374 OP_EQUALVERIFY OP_CHECKSIG", "type": "pubkeyhash"}, "value": 0.0468027, "n": 1}], "hex": "01000000018eed9b845f6203c637e6f5e81dcfba37b068950996ff59e412fe39f19dbc6318000000006a47304402206f1658722bdfab02d57d49f92ea2a0d2adf17537d1ea2998c1a4b75c9011740f02203dc69c6c12846b97bce55dd679dea1fea38c045059b24403f06d24d76bec2543012102eb18c642cd9a139d7fa878deec641b8077e9359466689cf415372cfe50d1b8ffffffffff023b982f000000000017a914e67529c39602932c0883e839d7c7037302c9d3b5874e6a4700000000001976a9146c425934eca490b9ff8911272ae6feb8a9b3037488ac00000000", "vin": [{"sequence": 4294967295, "scriptSig": {"hex": "47304402206f1658722bdfab02d57d49f92ea2a0d2adf17537d1ea2998c1a4b75c9011740f02203dc69c6c12846b97bce55dd679dea1fea38c045059b24403f06d24d76bec2543012102eb18c642cd9a139d7fa878deec641b8077e9359466689cf415372cfe50d1b8ff", "asm": "304402206f1658722bdfab02d57d49f92ea2a0d2adf17537d1ea2998c1a4b75c9011740f02203dc69c6c12846b97bce55dd679dea1fea38c045059b24403f06d24d76bec2543[ALL] 02eb18c642cd9a139d7fa878deec641b8077e9359466689cf415372cfe50d1b8ff"}, "vout": 0, "txid": "1863bc9df139fe12e459ff96099568b037bacf1de8f5e637c603625f849bed8e"}], "txid": "2cd25dc84de47eb3e8ead1a35df5d4c5391dbc26f3282507bc678fc6ce49083a", "blocktime": 1537869901, "version": 1, "confirmations": 11524, "time": 1537869901, "locktime": 0, "vsize": 223, "size": 223}