{"hash": "0ad5e7d26ef24ebb623daf9bfa64375d96c2fce1a22960a28490493a3ea2abd6", "blockhash": "0000000000000000001cda96e906b7601b7a6fb1a3b62bca570a9e5d8f4b3de1", "vout": [{"scriptPubKey": {"reqSigs": 1, "hex": "a9145913059e831d5c6c7064609f2e65149b5fb7629487", "addresses": ["39ozrHUhs79PzteXbQ8LeuHCNXN3FPEN18"], "asm": "OP_HASH160 5913059e831d5c6c7064609f2e65149b5fb76294 OP_EQUAL", "type": "scripthash"}, "value": 0.0086097, "n": 0}, {"scriptPubKey": {"reqSigs": 1, "hex": "a9149da6add1975ca228f6414d1d7c4bce3c22d3090e87", "addresses": ["3G4bgih94NzqG6wjEEwbPJMStRAfLkPSDQ"], "asm": "OP_HASH160 9da6add1975ca228f6414d1d7c4bce3c22d3090e OP_EQUAL", "type": "scripthash"}, "value": 0.00998241, "n": 1}], "hex": "0200000000010106e96d5c527fc757de0bf48dda17a022126600abad42cfeb017151dd98d4fe900000000017160014778ff73c57d7d4c0956d0c1ecbfbc0c3e3ef8442feffffff022a230d000000000017a9145913059e831d5c6c7064609f2e65149b5fb7629487613b0f000000000017a9149da6add1975ca228f6414d1d7c4bce3c22d3090e87024830450221009abb34603ab0d85ef5dc7855f6d853dc10485f1870d7397d7843843eac94f550022051c9e4b8388aa1002cadefeddd84d8b939c09dee5f3f5f93df66786f41655b01012103fbc9d5e7dc7142abbac4613dec4d731b77bdb7a2eeca0488a5eb64807d97bb2e13490800", "vin": [{"txinwitness": ["30450221009abb34603ab0d85ef5dc7855f6d853dc10485f1870d7397d7843843eac94f550022051c9e4b8388aa1002cadefeddd84d8b939c09dee5f3f5f93df66786f41655b0101", "03fbc9d5e7dc7142abbac4613dec4d731b77bdb7a2eeca0488a5eb64807d97bb2e"], "sequence": 4294967294, "scriptSig": {"hex": "160014778ff73c57d7d4c0956d0c1ecbfbc0c3e3ef8442", "asm": "0014778ff73c57d7d4c0956d0c1ecbfbc0c3e3ef8442"}, "vout": 0, "txid": "90fed498dd517101ebcf42adab00661222a017da8df40bde57c77f525c6de906"}], "txid": "2ce1193917b5e0e9d973b57642ae46fb224651c881075f7dba77a8146474149e", "blocktime": 1537873282, "version": 2, "confirmations": 11481, "time": 1537873282, "locktime": 542995, "vsize": 166, "size": 248}