{"hash": "2cf5c843e2ff4db7221c855c1085b22ef1cb7b8fe0bc61e1422d52aa0f4688c6", "blockhash": "0000000000000000001cda96e906b7601b7a6fb1a3b62bca570a9e5d8f4b3de1", "vout": [{"scriptPubKey": {"reqSigs": 1, "hex": "a914f978b98127e6b9e0d47c362600d85b78f520a27887", "addresses": ["3QS6oQNBnnp7aqpLMPxLPM6anKBTe5RBtU"], "asm": "OP_HASH160 f978b98127e6b9e0d47c362600d85b78f520a278 OP_EQUAL", "type": "scripthash"}, "value": 0.70650645, "n": 0}], "hex": "0100000006778271cabb533f9f0408775f2d387157657d30f02d63e877b45d5370a5f1409a370000006a473044022059cad2e5f09d6312d249996feb100b8c2cbbc9ac2954654a71a05a05403395d2022015fe6f750d4f4b0a81ac1dc7203212a9b1b42dc570ef0ba6d58678b9cf41e3a801210391c629c326fa66949618c68310f2b50b41bbaa90a40266753838cb9319d19567ffffffff283d2e181a0cc153807171feeb73c31ed8b71bb5845f2710739f371139f03a51010000006a473044022036c5a74fa45416990329f7379d09c5159d048deb304abc49bbd201561e37c199022077c7cb80888a2092084cc5b375ffbcfd89c8f9438c2b7ce76ca045dab3a5b18c0121031f5175ff82da87a2f1572f496257e9bd15bb789e06efd933a630814ba7217352ffffffffa72fb17e875fdecf798fb7f576c1e24400b41b6051bb8dfb03ff2f141ff9b9261f0000006b4830450221008e839a1cc833d47d98e3a2a8a7c33e2a45d71f36e5752893accd33292f3ca457022077618070cf36062dac978b03b14117fb482110bfd4c5532776fc5b4f16de903a0121020ba8c4514dbd176cd6687d4fe16280870f045107e1d296b8b4c8e8e0ae70cd0cffffffffa72fb17e875fdecf798fb7f576c1e24400b41b6051bb8dfb03ff2f141ff9b9261b0000006a4730440220436231e3bd71c68397be02f599ab14dbdabadb0681a9d56bd64d87cd1939ff2602200f70648d74791d1a3baf52f9d901ec86f52f7a4c777c1808bfd9d4efccb750b70121031b76afa282c85fbc9f9f2d45ce16eef06fbe43ae22f617b2a9f97b7e5282793dffffffff778271cabb533f9f0408775f2d387157657d30f02d63e877b45d5370a5f1409a3a0000006a473044022031eb3d834b595f9eb9a852e9f52e3d404f96528e33b84932c2839bcdedff516e02204a450c7e0bbfc74f9bc0ea6eaee96fca61910ba4cba1837d91394bb6d25ef89d01210253b6317f21df0c04a0c876644246201d0cdca4af93626d6d59c4e9681b5fa3f8ffffffffa72fb17e875fdecf798fb7f576c1e24400b41b6051bb8dfb03ff2f141ff9b9261d0000006b483045022100b0f3c1b0138fb7e979e0f70cf600afdb96f8883948eda5b975f21ba83739a7a70220686b0af771071ec3f15e38ff0f3277aff47dd29abe87762e5c38570f3d98889801210341a3d7699cef053183172bdbe11369aa945e354cebcb372df3b01f2bb3b3e23affffffff01150b36040000000017a914f978b98127e6b9e0d47c362600d85b78f520a2788700000000", "vin": [{"sequence": 4294967295, "scriptSig": {"hex": "473044022059cad2e5f09d6312d249996feb100b8c2cbbc9ac2954654a71a05a05403395d2022015fe6f750d4f4b0a81ac1dc7203212a9b1b42dc570ef0ba6d58678b9cf41e3a801210391c629c326fa66949618c68310f2b50b41bbaa90a40266753838cb9319d19567", "asm": "3044022059cad2e5f09d6312d249996feb100b8c2cbbc9ac2954654a71a05a05403395d2022015fe6f750d4f4b0a81ac1dc7203212a9b1b42dc570ef0ba6d58678b9cf41e3a8[ALL] 0391c629c326fa66949618c68310f2b50b41bbaa90a40266753838cb9319d19567"}, "vout": 55, "txid": "9a40f1a570535db477e8632df0307d655771382d5f7708049f3f53bbca718277"}, {"sequence": 4294967295, "scriptSig": {"hex": "473044022036c5a74fa45416990329f7379d09c5159d048deb304abc49bbd201561e37c199022077c7cb80888a2092084cc5b375ffbcfd89c8f9438c2b7ce76ca045dab3a5b18c0121031f5175ff82da87a2f1572f496257e9bd15bb789e06efd933a630814ba7217352", "asm": "3044022036c5a74fa45416990329f7379d09c5159d048deb304abc49bbd201561e37c199022077c7cb80888a2092084cc5b375ffbcfd89c8f9438c2b7ce76ca045dab3a5b18c[ALL] 031f5175ff82da87a2f1572f496257e9bd15bb789e06efd933a630814ba7217352"}, "vout": 1, "txid": "513af03911379f7310275f84b51bb7d81ec373ebfe71718053c10c1a182e3d28"}, {"sequence": 4294967295, "scriptSig": {"hex": "4830450221008e839a1cc833d47d98e3a2a8a7c33e2a45d71f36e5752893accd33292f3ca457022077618070cf36062dac978b03b14117fb482110bfd4c5532776fc5b4f16de903a0121020ba8c4514dbd176cd6687d4fe16280870f045107e1d296b8b4c8e8e0ae70cd0c", "asm": "30450221008e839a1cc833d47d98e3a2a8a7c33e2a45d71f36e5752893accd33292f3ca457022077618070cf36062dac978b03b14117fb482110bfd4c5532776fc5b4f16de903a[ALL] 020ba8c4514dbd176cd6687d4fe16280870f045107e1d296b8b4c8e8e0ae70cd0c"}, "vout": 31, "txid": "26b9f91f142fff03fb8dbb51601bb40044e2c176f5b78f79cfde5f877eb12fa7"}, {"sequence": 4294967295, "scriptSig": {"hex": "4730440220436231e3bd71c68397be02f599ab14dbdabadb0681a9d56bd64d87cd1939ff2602200f70648d74791d1a3baf52f9d901ec86f52f7a4c777c1808bfd9d4efccb750b70121031b76afa282c85fbc9f9f2d45ce16eef06fbe43ae22f617b2a9f97b7e5282793d", "asm": "30440220436231e3bd71c68397be02f599ab14dbdabadb0681a9d56bd64d87cd1939ff2602200f70648d74791d1a3baf52f9d901ec86f52f7a4c777c1808bfd9d4efccb750b7[ALL] 031b76afa282c85fbc9f9f2d45ce16eef06fbe43ae22f617b2a9f97b7e5282793d"}, "vout": 27, "txid": "26b9f91f142fff03fb8dbb51601bb40044e2c176f5b78f79cfde5f877eb12fa7"}, {"sequence": 4294967295, "scriptSig": {"hex": "473044022031eb3d834b595f9eb9a852e9f52e3d404f96528e33b84932c2839bcdedff516e02204a450c7e0bbfc74f9bc0ea6eaee96fca61910ba4cba1837d91394bb6d25ef89d01210253b6317f21df0c04a0c876644246201d0cdca4af93626d6d59c4e9681b5fa3f8", "asm": "3044022031eb3d834b595f9eb9a852e9f52e3d404f96528e33b84932c2839bcdedff516e02204a450c7e0bbfc74f9bc0ea6eaee96fca61910ba4cba1837d91394bb6d25ef89d[ALL] 0253b6317f21df0c04a0c876644246201d0cdca4af93626d6d59c4e9681b5fa3f8"}, "vout": 58, "txid": "9a40f1a570535db477e8632df0307d655771382d5f7708049f3f53bbca718277"}, {"sequence": 4294967295, "scriptSig": {"hex": "483045022100b0f3c1b0138fb7e979e0f70cf600afdb96f8883948eda5b975f21ba83739a7a70220686b0af771071ec3f15e38ff0f3277aff47dd29abe87762e5c38570f3d98889801210341a3d7699cef053183172bdbe11369aa945e354cebcb372df3b01f2bb3b3e23a", "asm": "3045022100b0f3c1b0138fb7e979e0f70cf600afdb96f8883948eda5b975f21ba83739a7a70220686b0af771071ec3f15e38ff0f3277aff47dd29abe87762e5c38570f3d988898[ALL] 0341a3d7699cef053183172bdbe11369aa945e354cebcb372df3b01f2bb3b3e23a"}, "vout": 29, "txid": "26b9f91f142fff03fb8dbb51601bb40044e2c176f5b78f79cfde5f877eb12fa7"}], "txid": "2cf5c843e2ff4db7221c855c1085b22ef1cb7b8fe0bc61e1422d52aa0f4688c6", "blocktime": 1537873282, "version": 1, "confirmations": 11481, "time": 1537873282, "locktime": 0, "vsize": 926, "size": 926}