{"hash": "f5419278b560e4e670569d18b57644523549d9c1fb237c165c89affe423bc560", "blockhash": "0000000000000000001cda96e906b7601b7a6fb1a3b62bca570a9e5d8f4b3de1", "vout": [{"scriptPubKey": {"reqSigs": 1, "hex": "76a9146593cac55d7e2e8c27af13233d90c448602be7c988ac", "addresses": ["1AG6J9bYry316ajgYjjLaSodR5MFwfbBxS"], "asm": "OP_DUP OP_HASH160 6593cac55d7e2e8c27af13233d90c448602be7c9 OP_EQUALVERIFY OP_CHECKSIG", "type": "pubkeyhash"}, "value": 0.02097859, "n": 0}, {"scriptPubKey": {"reqSigs": 1, "hex": "a914432a0abe0659d95612d0d31a9386d422a59e24e487", "addresses": ["37p9ZXJ3ncpis7pN9eHsQBrjpWVA8BhMaF"], "asm": "OP_HASH160 432a0abe0659d95612d0d31a9386d422a59e24e4 OP_EQUAL", "type": "scripthash"}, "value": 0.18055314, "n": 1}], "hex": "01000000000101a4ee9e96fc5a988d391137e5b1be1afecebbd7a75a86d395e4f02f372f585d7f010000002322002076e791ca75a1fe366537551810b5fe12c5b9455e0c7aa8218a5e7b24d094bae3ffffffff02c3022000000000001976a9146593cac55d7e2e8c27af13233d90c448602be7c988ac928013010000000017a914432a0abe0659d95612d0d31a9386d422a59e24e4870400483045022100ee9b4b4f9ae31547a1ed3bc4af06dde4a0830312890d16984ed649e6e7b86807022024297461ae3097f96e2b794580a3955dbdbdf21520710f08a04fea825ede9292014730440220598ffbf033ac4799516e22817db533fab8e85a3248885fc4966cc2c5d8b4d8a002205dd3ae2d8cfe1128534b5653e793385b40a1c441f918b7572eb60d1ea587e5d0016952210398aa894604f7ceb7f8eed12c32e2eb3390535937defa29455b5596b754d0542f2102f955e1a3a322a6e2f8a41b63edbaff449c8d6273e2e34ca1dc9f7ca84d115a002103b2ea4436394a8b4fd7d62da967b121311d89310886b58c44f34a0c527baf1ccb53ae00000000", "vin": [{"txinwitness": ["", "3045022100ee9b4b4f9ae31547a1ed3bc4af06dde4a0830312890d16984ed649e6e7b86807022024297461ae3097f96e2b794580a3955dbdbdf21520710f08a04fea825ede929201", "30440220598ffbf033ac4799516e22817db533fab8e85a3248885fc4966cc2c5d8b4d8a002205dd3ae2d8cfe1128534b5653e793385b40a1c441f918b7572eb60d1ea587e5d001", "52210398aa894604f7ceb7f8eed12c32e2eb3390535937defa29455b5596b754d0542f2102f955e1a3a322a6e2f8a41b63edbaff449c8d6273e2e34ca1dc9f7ca84d115a002103b2ea4436394a8b4fd7d62da967b121311d89310886b58c44f34a0c527baf1ccb53ae"], "sequence": 4294967295, "scriptSig": {"hex": "22002076e791ca75a1fe366537551810b5fe12c5b9455e0c7aa8218a5e7b24d094bae3", "asm": "002076e791ca75a1fe366537551810b5fe12c5b9455e0c7aa8218a5e7b24d094bae3"}, "vout": 1, "txid": "7f5d582f372ff0e495d3865aa7d7bbcefe1abeb1e53711398d985afc969eeea4"}], "txid": "2d040785f18eea0e9cda86bb35e990abde1501a9bb1b008d22212abec6ab301b", "blocktime": 1537873282, "version": 1, "confirmations": 11484, "time": 1537873282, "locktime": 0, "vsize": 216, "size": 407}