{"hash": "2d05a131e8a42861ef3d7982499bb790a939364393cb228857ee85c30b768668", "blockhash": "00000000000000000018f53835495a110e01622372bf6ae95dc86f2b0ab887b0", "vout": [{"scriptPubKey": {"reqSigs": 1, "hex": "76a9142147e6b2e8bd621fba95f8f35462b462a128701388ac", "addresses": ["142yS7SjoXdVPrh2hFaDhHsva48DLwqmRQ"], "asm": "OP_DUP OP_HASH160 2147e6b2e8bd621fba95f8f35462b462a1287013 OP_EQUALVERIFY OP_CHECKSIG", "type": "pubkeyhash"}, "value": 5.46e-06, "n": 0}, {"scriptPubKey": {"reqSigs": 1, "hex": "a9143f4eecba122ad73039d481c8d37f99cb4f887cd887", "addresses": ["37Tm3Qz8Zw2VJrheUUhArDAoq58S6YrS3g"], "asm": "OP_HASH160 3f4eecba122ad73039d481c8d37f99cb4f887cd8 OP_EQUAL", "type": "scripthash"}, "value": 0.99994908, "n": 1}, {"scriptPubKey": {"type": "nulldata", "hex": "6a146f6d6e69000000000000001f000001fe8c0d41c0", "asm": "OP_RETURN 6f6d6e69000000000000001f000001fe8c0d41c0"}, "value": 0.0, "n": 2}], "hex": "01000000018ee596c750501c509ba2c5c238f90ea841f92fa2d371d5993ddca123abec178c01000000fc0047304402200a8db929fca3fed3506d57292bb3bd4554c3a98112570eaf296f8c652758fca702203af006ea79e91e14d7f74bceeb72fb7619f999e93d6ecfb6abee7ba9308a96d501473044022041031df36802d5b1813d22faae3b20d1e9be3f06680f149213ee1f55315caec402202fa767de30ad21f4fe7361dd550e01e14c3ea041b6b628b02e534a2a14f88f6c014c6952210246ccf4de0c54cc7f3354cdd993c2c50cf965fd82238b89659fbd73a1b4bf05a121024fc59f72272a897fe43803374969f396058152fe4765a8d15216f94624257b1b21022593bc69ecbf3bbcc3c58082267cb49dadaf4ca8dbf1b2297338a9d628c4297653aeffffffff0322020000000000001976a9142147e6b2e8bd621fba95f8f35462b462a128701388ac1ccdf5050000000017a9143f4eecba122ad73039d481c8d37f99cb4f887cd8870000000000000000166a146f6d6e69000000000000001f000001fe8c0d41c000000000", "vin": [{"sequence": 4294967295, "scriptSig": {"hex": "0047304402200a8db929fca3fed3506d57292bb3bd4554c3a98112570eaf296f8c652758fca702203af006ea79e91e14d7f74bceeb72fb7619f999e93d6ecfb6abee7ba9308a96d501473044022041031df36802d5b1813d22faae3b20d1e9be3f06680f149213ee1f55315caec402202fa767de30ad21f4fe7361dd550e01e14c3ea041b6b628b02e534a2a14f88f6c014c6952210246ccf4de0c54cc7f3354cdd993c2c50cf965fd82238b89659fbd73a1b4bf05a121024fc59f72272a897fe43803374969f396058152fe4765a8d15216f94624257b1b21022593bc69ecbf3bbcc3c58082267cb49dadaf4ca8dbf1b2297338a9d628c4297653ae", "asm": "0 304402200a8db929fca3fed3506d57292bb3bd4554c3a98112570eaf296f8c652758fca702203af006ea79e91e14d7f74bceeb72fb7619f999e93d6ecfb6abee7ba9308a96d5[ALL] 3044022041031df36802d5b1813d22faae3b20d1e9be3f06680f149213ee1f55315caec402202fa767de30ad21f4fe7361dd550e01e14c3ea041b6b628b02e534a2a14f88f6c[ALL] 52210246ccf4de0c54cc7f3354cdd993c2c50cf965fd82238b89659fbd73a1b4bf05a121024fc59f72272a897fe43803374969f396058152fe4765a8d15216f94624257b1b21022593bc69ecbf3bbcc3c58082267cb49dadaf4ca8dbf1b2297338a9d628c4297653ae"}, "vout": 1, "txid": "8c17ecab23a1dc3d99d571d3a22ff941a80ef938c2c5a29b501c5050c796e58e"}], "txid": "2d05a131e8a42861ef3d7982499bb790a939364393cb228857ee85c30b768668", "blocktime": 1537870928, "version": 1, "confirmations": 11512, "time": 1537870928, "locktime": 0, "vsize": 400, "size": 400}