{"hash": "2d076517cb38918c78db48b90d75d49208f5dd781f6b36e08e34994e740d7a3e", "blockhash": "0000000000000000001f76057863aec43deb6fa401d9628bb513d65a8098bfab", "vout": [{"scriptPubKey": {"reqSigs": 1, "hex": "76a9140f42d0579575004bfbc7b60590205a4634bf63fe88ac", "addresses": ["12PhBBgds4VUcXTBAWUJdPL6QCvfD5Auiy"], "asm": "OP_DUP OP_HASH160 0f42d0579575004bfbc7b60590205a4634bf63fe OP_EQUALVERIFY OP_CHECKSIG", "type": "pubkeyhash"}, "value": 0.00104484, "n": 0}, {"scriptPubKey": {"type": "nulldata", "hex": "6a4c50000077ea0001814f99a93273efe365e63dda7af8e8e963c7cfd5b95b23cc0f42c2fc38c5f95a17fe4d9a42fd821436f134d7ed095baa178f0612d4ae1d00a910bc9a9526289ac0f6612cd74e33776ee4", "asm": "OP_RETURN 000077ea0001814f99a93273efe365e63dda7af8e8e963c7cfd5b95b23cc0f42c2fc38c5f95a17fe4d9a42fd821436f134d7ed095baa178f0612d4ae1d00a910bc9a9526289ac0f6612cd74e33776ee4"}, "value": 0.0, "n": 1}], "hex": "0100000001285e9159ccd3f31b8677dc29609526f7b378390b175b0323e24f3fbccbcfdac3010000006a47304402205ee65f04b7b39bead70941ebfa6679ef7150da04c30be95b9f8858925e9ef17d022048169496a7646f6e9da855188b21104fb3826bb8621ea0ff445858f3cb66871b01210262e4ec34f57fc4dfb334aefcb45f7abe46c2c283e698b57ad62c652971355b5cffffffff0224980100000000001976a9140f42d0579575004bfbc7b60590205a4634bf63fe88ac0000000000000000536a4c50000077ea0001814f99a93273efe365e63dda7af8e8e963c7cfd5b95b23cc0f42c2fc38c5f95a17fe4d9a42fd821436f134d7ed095baa178f0612d4ae1d00a910bc9a9526289ac0f6612cd74e33776ee400000000", "vin": [{"sequence": 4294967295, "scriptSig": {"hex": "47304402205ee65f04b7b39bead70941ebfa6679ef7150da04c30be95b9f8858925e9ef17d022048169496a7646f6e9da855188b21104fb3826bb8621ea0ff445858f3cb66871b01210262e4ec34f57fc4dfb334aefcb45f7abe46c2c283e698b57ad62c652971355b5c", "asm": "304402205ee65f04b7b39bead70941ebfa6679ef7150da04c30be95b9f8858925e9ef17d022048169496a7646f6e9da855188b21104fb3826bb8621ea0ff445858f3cb66871b[ALL] 0262e4ec34f57fc4dfb334aefcb45f7abe46c2c283e698b57ad62c652971355b5c"}, "vout": 1, "txid": "c3dacfcbbc3f4fe223035b170b3978b3f726956029dc77861bf3d3cc59915e28"}], "txid": "2d076517cb38918c78db48b90d75d49208f5dd781f6b36e08e34994e740d7a3e", "blocktime": 1537873891, "version": 1, "confirmations": 11478, "time": 1537873891, "locktime": 0, "vsize": 283, "size": 283}