{"hash": "2d0a31e82b30dd353babcc8b288a4be95a8403effaef22ff915f303040e3ea51", "blockhash": "0000000000000000001f0ddff1eddb255c1121bcd4da4f1bc9a0da00cae72433", "vout": [{"scriptPubKey": {"reqSigs": 1, "hex": "a9146905c1f9e85987e8239524f87880a9d63f14073687", "addresses": ["3BGKmjqJqWNuSUvnwA3HUZqjBrWCxk6VWS"], "asm": "OP_HASH160 6905c1f9e85987e8239524f87880a9d63f140736 OP_EQUAL", "type": "scripthash"}, "value": 0.0004, "n": 0}, {"scriptPubKey": {"reqSigs": 1, "hex": "76a914b1b06a463152f6a22021528afd81ea4032459dae88ac", "addresses": ["1HCXwVZGwB3Uox6tu9EQbwiusHwLtvuSrw"], "asm": "OP_DUP OP_HASH160 b1b06a463152f6a22021528afd81ea4032459dae OP_EQUALVERIFY OP_CHECKSIG", "type": "pubkeyhash"}, "value": 0.00091144, "n": 1}], "hex": "01000000016ce449a582072739458455e4c4f35ac6691cf81fd707f0dd05b1a87fa8aa61f1000000006a47304402203119499c8513970aa7759ff05109053161146007d674098da9d7370e75a0992b02205d9ba4ebba23b564e0d3e50030694200d0f2f9ef97df5e351b3b080aa9c2577201210349a260b6d768a54542570b37fd9e55b0cb47aace358c950af4341bcd81fdb2bffdffffff02409c00000000000017a9146905c1f9e85987e8239524f87880a9d63f1407368708640100000000001976a914b1b06a463152f6a22021528afd81ea4032459dae88ac11490800", "vin": [{"sequence": 4294967293, "scriptSig": {"hex": "47304402203119499c8513970aa7759ff05109053161146007d674098da9d7370e75a0992b02205d9ba4ebba23b564e0d3e50030694200d0f2f9ef97df5e351b3b080aa9c2577201210349a260b6d768a54542570b37fd9e55b0cb47aace358c950af4341bcd81fdb2bf", "asm": "304402203119499c8513970aa7759ff05109053161146007d674098da9d7370e75a0992b02205d9ba4ebba23b564e0d3e50030694200d0f2f9ef97df5e351b3b080aa9c25772[ALL] 0349a260b6d768a54542570b37fd9e55b0cb47aace358c950af4341bcd81fdb2bf"}, "vout": 0, "txid": "f161aaa87fa8b105ddf007d71ff81c69c65af3c4e455844539270782a549e46c"}], "txid": "2d0a31e82b30dd353babcc8b288a4be95a8403effaef22ff915f303040e3ea51", "blocktime": 1537872018, "version": 1, "confirmations": 11489, "time": 1537872018, "locktime": 542993, "vsize": 223, "size": 223}