{"hash": "2d0a05bde94ced934f6b155b308abd2532edf209c72d590696e894b2a58e8899", "blockhash": "0000000000000000001cda96e906b7601b7a6fb1a3b62bca570a9e5d8f4b3de1", "vout": [{"scriptPubKey": {"reqSigs": 1, "hex": "76a9146b0653e0e8459d70272208b14647716e179cc40088ac", "addresses": ["1AkttBNE8faDm6TxbZswHRgARfpSv6fJGF"], "asm": "OP_DUP OP_HASH160 6b0653e0e8459d70272208b14647716e179cc400 OP_EQUALVERIFY OP_CHECKSIG", "type": "pubkeyhash"}, "value": 0.00363087, "n": 0}, {"scriptPubKey": {"reqSigs": 1, "hex": "a91410dd1e7d77f51dfd19916c83a0d97cd894bd72c487", "addresses": ["33EBdEjWHMdTZgVGwycaAbz2sARaVs3MNq"], "asm": "OP_HASH160 10dd1e7d77f51dfd19916c83a0d97cd894bd72c4 OP_EQUAL", "type": "scripthash"}, "value": 0.00474718, "n": 1}], "hex": "0100000001e0a0a52765638a38e34adb14cd7c7ddacfd1644310d07b48cf40f194197e0c18000000006b4830450221009ec370895fdcd5a03e4af4718b8f42db000e3c65abbdb8cc202dd57e0173e0f502205cc68800afa92af1171ecee64b2cf2c0f906fa0880506b4c2acb643cb2441b54012103f3e978e76ef6807ef11d85d0fed9c222741460c621e2045d3ec372b6838b5a9fffffffff024f8a0500000000001976a9146b0653e0e8459d70272208b14647716e179cc40088ac5e3e07000000000017a91410dd1e7d77f51dfd19916c83a0d97cd894bd72c48700000000", "vin": [{"sequence": 4294967295, "scriptSig": {"hex": "4830450221009ec370895fdcd5a03e4af4718b8f42db000e3c65abbdb8cc202dd57e0173e0f502205cc68800afa92af1171ecee64b2cf2c0f906fa0880506b4c2acb643cb2441b54012103f3e978e76ef6807ef11d85d0fed9c222741460c621e2045d3ec372b6838b5a9f", "asm": "30450221009ec370895fdcd5a03e4af4718b8f42db000e3c65abbdb8cc202dd57e0173e0f502205cc68800afa92af1171ecee64b2cf2c0f906fa0880506b4c2acb643cb2441b54[ALL] 03f3e978e76ef6807ef11d85d0fed9c222741460c621e2045d3ec372b6838b5a9f"}, "vout": 0, "txid": "180c7e1994f140cf487bd0104364d1cfda7d7ccd14db4ae3388a636527a5a0e0"}], "txid": "2d0a05bde94ced934f6b155b308abd2532edf209c72d590696e894b2a58e8899", "blocktime": 1537873282, "version": 1, "confirmations": 11484, "time": 1537873282, "locktime": 0, "vsize": 224, "size": 224}