{"hash": "2d0d2266416717383dbf0a283f5b31d7c68e61789450862a26d7a4cb03ce210e", "blockhash": "0000000000000000000e13cef7c366c0283d82e591d1acd082e914b08063cdf1", "vout": [{"scriptPubKey": {"reqSigs": 1, "hex": "76a914063f95f6c053e2f7cefd56f67d9d07d1e20c8c3888ac", "addresses": ["1a3EAqRi21FYrYLdzc17LxfxgcRACXLNT"], "asm": "OP_DUP OP_HASH160 063f95f6c053e2f7cefd56f67d9d07d1e20c8c38 OP_EQUALVERIFY OP_CHECKSIG", "type": "pubkeyhash"}, "value": 0.00795174, "n": 0}, {"scriptPubKey": {"reqSigs": 1, "hex": "76a91476a342f6b6bd9731a5f64ad749ba6190b9ecbd0088ac", "addresses": ["1BpJKFTQnyfBvrMr5xY5MNRCf6572oKsry"], "asm": "OP_DUP OP_HASH160 76a342f6b6bd9731a5f64ad749ba6190b9ecbd00 OP_EQUALVERIFY OP_CHECKSIG", "type": "pubkeyhash"}, "value": 0.00140717, "n": 1}], "hex": "0100000001d3c2bd3a610f72daab425e8b3bcf294810e9c77fe2d514880ba0180cf159d0b5010000006a4730440220483255e19bfb0174d8fdf37e8bef922ffaf6280b3fdfaf2d8f7baf4a234da05102204620d4375c015962f7ce0296ae4eafb667c3c5303df47f43ed9c36d2fa9be31e012103cd8b41103be695313a7ae6b25b07534c10f5d5fa87022a275d38ca750df16845ffffffff0226220c00000000001976a914063f95f6c053e2f7cefd56f67d9d07d1e20c8c3888acad250200000000001976a91476a342f6b6bd9731a5f64ad749ba6190b9ecbd0088ac00000000", "vin": [{"sequence": 4294967295, "scriptSig": {"hex": "4730440220483255e19bfb0174d8fdf37e8bef922ffaf6280b3fdfaf2d8f7baf4a234da05102204620d4375c015962f7ce0296ae4eafb667c3c5303df47f43ed9c36d2fa9be31e012103cd8b41103be695313a7ae6b25b07534c10f5d5fa87022a275d38ca750df16845", "asm": "30440220483255e19bfb0174d8fdf37e8bef922ffaf6280b3fdfaf2d8f7baf4a234da05102204620d4375c015962f7ce0296ae4eafb667c3c5303df47f43ed9c36d2fa9be31e[ALL] 03cd8b41103be695313a7ae6b25b07534c10f5d5fa87022a275d38ca750df16845"}, "vout": 1, "txid": "b5d059f10c18a00b8814d5e27fc7e9104829cf3b8b5e42abda720f613abdc2d3"}], "txid": "2d0d2266416717383dbf0a283f5b31d7c68e61789450862a26d7a4cb03ce210e", "blocktime": 1537871767, "version": 1, "confirmations": 11493, "time": 1537871767, "locktime": 0, "vsize": 225, "size": 225}