{"hash": "2d0db5f1944fb1a09951974c3ee04081355f45ef839be7e0d7ff87b2770828bb", "blockhash": "0000000000000000000dcc0f55137456b1a82d3642486a52398922ac4d620174", "vout": [{"scriptPubKey": {"type": "nulldata", "hex": "6a4c500000777400012aa17d2e0f5049a186e3222b86aeaeacb577c031fc3a016b46dc7dc7d096e02a39400554f6e38461c97c4f8427f65baa092c06144f1be050ace31d100759d4ba30d2c37bb011d97e02cf", "asm": "OP_RETURN 0000777400012aa17d2e0f5049a186e3222b86aeaeacb577c031fc3a016b46dc7dc7d096e02a39400554f6e38461c97c4f8427f65baa092c06144f1be050ace31d100759d4ba30d2c37bb011d97e02cf"}, "value": 0.0, "n": 0}, {"scriptPubKey": {"reqSigs": 1, "hex": "76a914ed1d3432e630ae041722838163e502d09b7d620388ac", "addresses": ["1Nck8b1tGuQrxb2WBRQjUPzwo13Rrg4V4H"], "asm": "OP_DUP OP_HASH160 ed1d3432e630ae041722838163e502d09b7d6203 OP_EQUALVERIFY OP_CHECKSIG", "type": "pubkeyhash"}, "value": 0.00647375, "n": 1}], "hex": "0100000001adfccc92df3d462ff0017e12dcc49c8a26deeb7eb60619d1ce9084dcc0639755000000006a473044022029883f9ad1dc59317a0fdf251aa24b591d72b2d27296df7750a807f905b688fc02207bc92cad37092a6bab8136b672c141e70fa199736c87403ffd3d4b50dfe8a69b012102f180357ba572e7b675d6fa3919a853315a805a3774c4ff0d2aa3c42b5fe1ea42ffffffff020000000000000000536a4c500000777400012aa17d2e0f5049a186e3222b86aeaeacb577c031fc3a016b46dc7dc7d096e02a39400554f6e38461c97c4f8427f65baa092c06144f1be050ace31d100759d4ba30d2c37bb011d97e02cfcfe00900000000001976a914ed1d3432e630ae041722838163e502d09b7d620388ac00000000", "vin": [{"sequence": 4294967295, "scriptSig": {"hex": "473044022029883f9ad1dc59317a0fdf251aa24b591d72b2d27296df7750a807f905b688fc02207bc92cad37092a6bab8136b672c141e70fa199736c87403ffd3d4b50dfe8a69b012102f180357ba572e7b675d6fa3919a853315a805a3774c4ff0d2aa3c42b5fe1ea42", "asm": "3044022029883f9ad1dc59317a0fdf251aa24b591d72b2d27296df7750a807f905b688fc02207bc92cad37092a6bab8136b672c141e70fa199736c87403ffd3d4b50dfe8a69b[ALL] 02f180357ba572e7b675d6fa3919a853315a805a3774c4ff0d2aa3c42b5fe1ea42"}, "vout": 0, "txid": "559763c0dc8490ced11906b67eebde268a9cc4dc127e01f02f463ddf92ccfcad"}], "txid": "2d0db5f1944fb1a09951974c3ee04081355f45ef839be7e0d7ff87b2770828bb", "blocktime": 1537870268, "version": 1, "confirmations": 11518, "time": 1537870268, "locktime": 0, "vsize": 283, "size": 283}