{"hash": "412e1c36752d9b666ceb91ad5793d66401f229bdaee0f8e837f537ad55ff17ba", "blockhash": "00000000000000000004ffacab907a6b429b9a5745fa0b75af4234bf69dd7176", "vout": [{"scriptPubKey": {"reqSigs": 1, "hex": "a914517c8b3d306da53ec1a5a0d7297f9135dfda586f87", "addresses": ["397srYWUycJ7WPvKLQiJrxyaYUqyJmnS2Y"], "asm": "OP_HASH160 517c8b3d306da53ec1a5a0d7297f9135dfda586f OP_EQUAL", "type": "scripthash"}, "value": 0.01, "n": 0}, {"scriptPubKey": {"reqSigs": 1, "hex": "a91445030f3f6b21de2f4a213010bae74822a4628a2787", "addresses": ["37yvDMxPM8TGAEe3ezwVX1cby2yqqekdfW"], "asm": "OP_HASH160 45030f3f6b21de2f4a213010bae74822a4628a27 OP_EQUAL", "type": "scripthash"}, "value": 0.03956, "n": 1}], "hex": "0100000000010176d3f4e8d89a732cee40da6f641c1ecc7564cda3a5361540bd4d7a9cd31187c702000000171600146cf54d9c15f5eea3f262e290902300ddcaf1fd8fffffffff0240420f000000000017a914517c8b3d306da53ec1a5a0d7297f9135dfda586f87205d3c000000000017a91445030f3f6b21de2f4a213010bae74822a4628a27870247304402207fb3e25fac84128b901a806b7307c942a3dcf04c69ca25513b22a873b69d916f02207fe7bbeb21fb4b2fcdd9c8fa8a5ada96cbbba1d868ed2637407a4bbf830c6945012103baf7d79e00916793c7b1adf248e177454a1719c4ab4196d19a0e7c99e07a493400000000", "vin": [{"txinwitness": ["304402207fb3e25fac84128b901a806b7307c942a3dcf04c69ca25513b22a873b69d916f02207fe7bbeb21fb4b2fcdd9c8fa8a5ada96cbbba1d868ed2637407a4bbf830c694501", "03baf7d79e00916793c7b1adf248e177454a1719c4ab4196d19a0e7c99e07a4934"], "sequence": 4294967295, "scriptSig": {"hex": "1600146cf54d9c15f5eea3f262e290902300ddcaf1fd8f", "asm": "00146cf54d9c15f5eea3f262e290902300ddcaf1fd8f"}, "vout": 2, "txid": "c78711d39c7a4dbd401536a5a3cd6475cc1e1c646fda40ee2c739ad8e8f4d376"}], "txid": "2d0e835a4f58b5f8729779fd5d0a7db583d5a14ae701e0da6ff239bcc4bf5d61", "blocktime": 1537875543, "version": 1, "confirmations": 11464, "time": 1537875543, "locktime": 0, "vsize": 166, "size": 247}