{"hash": "2d1063cbd6b1ddd3843b5ce0c9443ed4a27240eea3e8b720e15bef83d92cd96a", "blockhash": "0000000000000000001f76057863aec43deb6fa401d9628bb513d65a8098bfab", "vout": [{"scriptPubKey": {"reqSigs": 1, "hex": "76a9147fe6212c9bc01c7ba3e101f041481636a571af1388ac", "addresses": ["1CfGW3hMuNMqtY7u7r2qaTiBuwM1q5GWho"], "asm": "OP_DUP OP_HASH160 7fe6212c9bc01c7ba3e101f041481636a571af13 OP_EQUALVERIFY OP_CHECKSIG", "type": "pubkeyhash"}, "value": 0.0008242, "n": 0}, {"scriptPubKey": {"type": "nulldata", "hex": "6a4c50000077e10001641c419f27e126dedfaea5697af8e8e963c7cfd5b95b23cc0f42c2fc38c5c2c16449240a893a75963896c982b8645baa16a606127c767211c769bc9a9526289ac0f6612cd74e33776ee4", "asm": "OP_RETURN 000077e10001641c419f27e126dedfaea5697af8e8e963c7cfd5b95b23cc0f42c2fc38c5c2c16449240a893a75963896c982b8645baa16a606127c767211c769bc9a9526289ac0f6612cd74e33776ee4"}, "value": 0.0, "n": 1}], "hex": "0100000001ce3310b1a9dbf45fdb47e759f7f464c486f22c232ef041c7946d777cac94096a000000006a473044022100806323a50d9f3e64fe58f9d9268393bbf9c1470e4a7835521e865870afaabbcc021f387d48d714cf8fc4da48be3b451a3267b8ec4ceeb2f571d4932fcda60314f6012103b51c2ba7e185a7d8b9c277df00757a898928411700d024a834878469671c3277ffffffff02f4410100000000001976a9147fe6212c9bc01c7ba3e101f041481636a571af1388ac0000000000000000536a4c50000077e10001641c419f27e126dedfaea5697af8e8e963c7cfd5b95b23cc0f42c2fc38c5c2c16449240a893a75963896c982b8645baa16a606127c767211c769bc9a9526289ac0f6612cd74e33776ee400000000", "vin": [{"sequence": 4294967295, "scriptSig": {"hex": "473044022100806323a50d9f3e64fe58f9d9268393bbf9c1470e4a7835521e865870afaabbcc021f387d48d714cf8fc4da48be3b451a3267b8ec4ceeb2f571d4932fcda60314f6012103b51c2ba7e185a7d8b9c277df00757a898928411700d024a834878469671c3277", "asm": "3044022100806323a50d9f3e64fe58f9d9268393bbf9c1470e4a7835521e865870afaabbcc021f387d48d714cf8fc4da48be3b451a3267b8ec4ceeb2f571d4932fcda60314f6[ALL] 03b51c2ba7e185a7d8b9c277df00757a898928411700d024a834878469671c3277"}, "vout": 0, "txid": "6a0994ac7c776d94c741f02e232cf286c464f4f759e747db5ff4dba9b11033ce"}], "txid": "2d1063cbd6b1ddd3843b5ce0c9443ed4a27240eea3e8b720e15bef83d92cd96a", "blocktime": 1537873891, "version": 1, "confirmations": 11478, "time": 1537873891, "locktime": 0, "vsize": 283, "size": 283}