{"hash": "e6b50f37810b87f9e43a5e9bddd0411535b8539dec31de4190914c98b5f8772b", "blockhash": "0000000000000000001cda96e906b7601b7a6fb1a3b62bca570a9e5d8f4b3de1", "vout": [{"scriptPubKey": {"reqSigs": 1, "hex": "76a9147166e88c72349644def1d7bff21b0569a7b8891f88ac", "addresses": ["1BLcdstMztWhJkDAin5FdqVDbTTi3T3cdN"], "asm": "OP_DUP OP_HASH160 7166e88c72349644def1d7bff21b0569a7b8891f OP_EQUALVERIFY OP_CHECKSIG", "type": "pubkeyhash"}, "value": 0.0101593, "n": 0}, {"scriptPubKey": {"reqSigs": 1, "hex": "a914b3ea60f36e2aeafb15cf7c1f6fafcee3065359a587", "addresses": ["3J6KeoMMxqZhfNwNZDZ6BEgPpEojHrmBbm"], "asm": "OP_HASH160 b3ea60f36e2aeafb15cf7c1f6fafcee3065359a5 OP_EQUAL", "type": "scripthash"}, "value": 0.01002331, "n": 1}], "hex": "02000000000102226bc5c3235442fa410d8528ff960b97584a3225bd6987545c8b303af24cb8b30100000017160014af51ad2846a814e2ad156896b67a0891d3cd2345feffffffd6261bed681fcab633f87d956afba0255fd02a0d87b113dab92619708acaa0d30100000017160014c3fea947d4f0050bae8532988b7ba74386a68302feffffff027a800f00000000001976a9147166e88c72349644def1d7bff21b0569a7b8891f88ac5b4b0f000000000017a914b3ea60f36e2aeafb15cf7c1f6fafcee3065359a58702483045022100c43a5fac9d29201d6c2426981092b6c0b160c6d82a6ed5f6e86e054ea137af4e02206b662dc742bfde8131e4210647b522b4d5f6e4dd19e16e1f87e8608c1d9605cb012103be54773c4be77c283b569fc32e170fca8c818a0fd2805c0f2277205bee3eabcb02483045022100a8e2c13744fb2c144fdfb32f064401c1a94d9da4332fad12b7ac12fed25db7b102203bd9f736ce00d4532f68694cbd498029953fa0d6240a03df08835ecf5d7059ca012102fb230c60b658058d768be11e539753652bcc0137d10f315e57e09b0b87072c3d13490800", "vin": [{"txinwitness": ["3045022100c43a5fac9d29201d6c2426981092b6c0b160c6d82a6ed5f6e86e054ea137af4e02206b662dc742bfde8131e4210647b522b4d5f6e4dd19e16e1f87e8608c1d9605cb01", "03be54773c4be77c283b569fc32e170fca8c818a0fd2805c0f2277205bee3eabcb"], "sequence": 4294967294, "scriptSig": {"hex": "160014af51ad2846a814e2ad156896b67a0891d3cd2345", "asm": "0014af51ad2846a814e2ad156896b67a0891d3cd2345"}, "vout": 1, "txid": "b3b84cf23a308b5c548769bd25324a58970b96ff28850d41fa425423c3c56b22"}, {"txinwitness": ["3045022100a8e2c13744fb2c144fdfb32f064401c1a94d9da4332fad12b7ac12fed25db7b102203bd9f736ce00d4532f68694cbd498029953fa0d6240a03df08835ecf5d7059ca01", "02fb230c60b658058d768be11e539753652bcc0137d10f315e57e09b0b87072c3d"], "sequence": 4294967294, "scriptSig": {"hex": "160014c3fea947d4f0050bae8532988b7ba74386a68302", "asm": "0014c3fea947d4f0050bae8532988b7ba74386a68302"}, "vout": 1, "txid": "d3a0ca8a701926b9da13b1870d2ad05f25a0fb6a957df833b6ca1f68ed1b26d6"}], "txid": "2d15f76850dedc3336d3bdf5fb67ff0398408b16f8e9e64dbc442e528681aee0", "blocktime": 1537873282, "version": 2, "confirmations": 11483, "time": 1537873282, "locktime": 542995, "vsize": 259, "size": 422}