{"hash": "2d1764bd740859dfbba84863dce8cb483092c9da9515087a0945e55a1df3b060", "blockhash": "0000000000000000001f0ddff1eddb255c1121bcd4da4f1bc9a0da00cae72433", "vout": [{"scriptPubKey": {"reqSigs": 1, "hex": "0014ab4688d3a8bd225b011f0e7d6735c4f997900d16", "addresses": ["bc1q4drg35agh539kqglpe7kwdwylxteqrgkakyd0n"], "asm": "0 ab4688d3a8bd225b011f0e7d6735c4f997900d16", "type": "witness_v0_keyhash"}, "value": 1.91e-05, "n": 0}, {"scriptPubKey": {"reqSigs": 1, "hex": "a9146c157334d12d4362138d21b1b88bfc15216e4fc987", "addresses": ["3BYWbdoLiFdETsccGsVP9DqP7sPsfGnbZx"], "asm": "OP_HASH160 6c157334d12d4362138d21b1b88bfc15216e4fc9 OP_EQUAL", "type": "scripthash"}, "value": 0.00101095, "n": 1}], "hex": "0100000001491b646b208feb207f1c48a4ad34e5f83940e60047da1c8f014418db9ae89ed1470000006b483045022100e866c4e4411700e410d5723e69b761f4570e6ff831f956c5911893d3775e2e49022029cc780e1f63f2b7fc3b4cd8865812790a7f50e4e6416f89523be1a691df5bd7012103d13388d84f74270af42800644db342929e2ae13f301a01ba0a82377e7ed5ca08ffffffff027607000000000000160014ab4688d3a8bd225b011f0e7d6735c4f997900d16e78a01000000000017a9146c157334d12d4362138d21b1b88bfc15216e4fc98700000000", "vin": [{"sequence": 4294967295, "scriptSig": {"hex": "483045022100e866c4e4411700e410d5723e69b761f4570e6ff831f956c5911893d3775e2e49022029cc780e1f63f2b7fc3b4cd8865812790a7f50e4e6416f89523be1a691df5bd7012103d13388d84f74270af42800644db342929e2ae13f301a01ba0a82377e7ed5ca08", "asm": "3045022100e866c4e4411700e410d5723e69b761f4570e6ff831f956c5911893d3775e2e49022029cc780e1f63f2b7fc3b4cd8865812790a7f50e4e6416f89523be1a691df5bd7[ALL] 03d13388d84f74270af42800644db342929e2ae13f301a01ba0a82377e7ed5ca08"}, "vout": 71, "txid": "d19ee89adb1844018f1cda4700e64039f8e534ada4481c7f20eb8f206b641b49"}], "txid": "2d1764bd740859dfbba84863dce8cb483092c9da9515087a0945e55a1df3b060", "blocktime": 1537872018, "version": 1, "confirmations": 11489, "time": 1537872018, "locktime": 0, "vsize": 221, "size": 221}