{"hash": "2d257f0801a892a0e987ac956c0b4c1638fbaeb9f08dad229e82d5abaa04a166", "blockhash": "0000000000000000001f0ddff1eddb255c1121bcd4da4f1bc9a0da00cae72433", "vout": [{"scriptPubKey": {"reqSigs": 1, "hex": "a9146fd2bdaf8b5fa2ecfbe030fe97c2c9091c08e72b87", "addresses": ["3BtHPNjWPRntu1nqLtVEmvouFxG1GRnrhx"], "asm": "OP_HASH160 6fd2bdaf8b5fa2ecfbe030fe97c2c9091c08e72b OP_EQUAL", "type": "scripthash"}, "value": 0.00075466, "n": 0}, {"scriptPubKey": {"reqSigs": 1, "hex": "76a91465d17751e3f1025d293a0a0164cdda80a591f48088ac", "addresses": ["1AHNBLPC5FWkUSeYRp2fj7nq2ZcPpUi2pj"], "asm": "OP_DUP OP_HASH160 65d17751e3f1025d293a0a0164cdda80a591f480 OP_EQUALVERIFY OP_CHECKSIG", "type": "pubkeyhash"}, "value": 0.01345527, "n": 1}], "hex": "0100000001819f40dc67d74d6185326a20d71515ca96b6c6a0072f4b291f8279ee89448757010000006a47304402205453552b4bf7223d0d28e3cc4a2d4b925ac665a2a2709e99bc78928266fced76022035d49087b8f7085dc3dcace5470d83a35964737f9e1cb02affba1b7df6031215012103a1e67592804c3f65d93675f25b1140a24579cf3e59e473115b263c2cf0cc1ee3ffffffff02ca2601000000000017a9146fd2bdaf8b5fa2ecfbe030fe97c2c9091c08e72b87f7871400000000001976a91465d17751e3f1025d293a0a0164cdda80a591f48088ac00000000", "vin": [{"sequence": 4294967295, "scriptSig": {"hex": "47304402205453552b4bf7223d0d28e3cc4a2d4b925ac665a2a2709e99bc78928266fced76022035d49087b8f7085dc3dcace5470d83a35964737f9e1cb02affba1b7df6031215012103a1e67592804c3f65d93675f25b1140a24579cf3e59e473115b263c2cf0cc1ee3", "asm": "304402205453552b4bf7223d0d28e3cc4a2d4b925ac665a2a2709e99bc78928266fced76022035d49087b8f7085dc3dcace5470d83a35964737f9e1cb02affba1b7df6031215[ALL] 03a1e67592804c3f65d93675f25b1140a24579cf3e59e473115b263c2cf0cc1ee3"}, "vout": 1, "txid": "57874489ee79821f294b2f07a0c6b696ca1515d7206a3285614dd767dc409f81"}], "txid": "2d257f0801a892a0e987ac956c0b4c1638fbaeb9f08dad229e82d5abaa04a166", "blocktime": 1537872018, "version": 1, "confirmations": 11489, "time": 1537872018, "locktime": 0, "vsize": 223, "size": 223}