{"hash": "df40a6e424a2aa4f991c9b74936ae37b3ee1c26b207bff83a0355e8a2bb9d456", "blockhash": "000000000000000000022b45ed06c6f4ccd3cf7fb5ba4856ebd2e58215665228", "vout": [{"scriptPubKey": {"reqSigs": 1, "hex": "76a9145b357d32503df8e16d9b221d4005d217fe5c639788ac", "addresses": ["19KGZwa1B6VHjbNxX72BnrUYuBmgn2LXgq"], "asm": "OP_DUP OP_HASH160 5b357d32503df8e16d9b221d4005d217fe5c6397 OP_EQUALVERIFY OP_CHECKSIG", "type": "pubkeyhash"}, "value": 0.00021203, "n": 0}, {"scriptPubKey": {"reqSigs": 1, "hex": "a914af245ee9a4dcabd55d519d09165da98b291a3b7887", "addresses": ["3Hf5kCTEyMTRftxMvCivPLtFUzKPbBGEws"], "asm": "OP_HASH160 af245ee9a4dcabd55d519d09165da98b291a3b78 OP_EQUAL", "type": "scripthash"}, "value": 0.01007205, "n": 1}], "hex": "02000000000101dcf51d04dc0fdc615b81b2c398b91ac0ab2c8c4f47d094d4a9a96596426dca030100000017160014aee29cc2053687d23e0efed9e8de85b47e0045e3feffffff02d3520000000000001976a9145b357d32503df8e16d9b221d4005d217fe5c639788ac655e0f000000000017a914af245ee9a4dcabd55d519d09165da98b291a3b788702483045022100df968035fad8937df664ef0804228f67047b97abdd4a073d4dcf6851c7246b8f02205ec796e7276609775d87c242376379d479bf9afc7967bc66c44c0918fbfe3c75012103e93a45f30415f0badef64bb317f2a53f579ceb01f005d97b3e4063a0db6d5a6a0b490800", "vin": [{"txinwitness": ["3045022100df968035fad8937df664ef0804228f67047b97abdd4a073d4dcf6851c7246b8f02205ec796e7276609775d87c242376379d479bf9afc7967bc66c44c0918fbfe3c7501", "03e93a45f30415f0badef64bb317f2a53f579ceb01f005d97b3e4063a0db6d5a6a"], "sequence": 4294967294, "scriptSig": {"hex": "160014aee29cc2053687d23e0efed9e8de85b47e0045e3", "asm": "0014aee29cc2053687d23e0efed9e8de85b47e0045e3"}, "vout": 1, "txid": "03ca6d429665a9a9d494d0474f8c2cabc01ab998c3b2815b61dc0fdc041df5dc"}], "txid": "2d2c7a7a3faf8c6543bb21c6a38050bc68cebf28ac51e28beca784c2fa40863a", "blocktime": 1537869901, "version": 2, "confirmations": 11524, "time": 1537869901, "locktime": 542987, "vsize": 168, "size": 250}