{"hash": "2d2c799ecd34f19d1e3aee37eb1d2cc4b33dd10d83b5afd0cae006c0d74f49a7", "blockhash": "00000000000000000024a2167bbff67b0be802c0b01cdd79e6331c2be6459f87", "vout": [{"scriptPubKey": {"reqSigs": 1, "hex": "a9144f86246ffb1638cb5faa1bb3fd920807779ced7b87", "addresses": ["38wW155RvAgHQBiywsRoZ6t8N1WRRBc55P"], "asm": "OP_HASH160 4f86246ffb1638cb5faa1bb3fd920807779ced7b OP_EQUAL", "type": "scripthash"}, "value": 0.0026246, "n": 0}, {"scriptPubKey": {"reqSigs": 1, "hex": "76a91413cdb9c887ed10d69004cc57a3b559c9825916b688ac", "addresses": ["12oiHiemr4aDGcSyHxhbXMhnBQkW1CxPmD"], "asm": "OP_DUP OP_HASH160 13cdb9c887ed10d69004cc57a3b559c9825916b6 OP_EQUALVERIFY OP_CHECKSIG", "type": "pubkeyhash"}, "value": 0.04875437, "n": 1}], "hex": "01000000012acf36032f9e0a9c882c4c512e3279fea8c809dbb2ed79af7d18c4adfe6ef10c010000006b483045022100d49af6ca12d7a430a3a43b82b2874488311c3f3a4cbd55223199892897dba143022049272bc85da748cb6523789c061a7cf9e1933397b7c2db80018ab5cf981074020121020165ce642e6f62c0ad7223f01858fff126d4533e5cc1ec970f89053109a1a412ffffffff023c0104000000000017a9144f86246ffb1638cb5faa1bb3fd920807779ced7b87ad644a00000000001976a91413cdb9c887ed10d69004cc57a3b559c9825916b688ac00000000", "vin": [{"sequence": 4294967295, "scriptSig": {"hex": "483045022100d49af6ca12d7a430a3a43b82b2874488311c3f3a4cbd55223199892897dba143022049272bc85da748cb6523789c061a7cf9e1933397b7c2db80018ab5cf981074020121020165ce642e6f62c0ad7223f01858fff126d4533e5cc1ec970f89053109a1a412", "asm": "3045022100d49af6ca12d7a430a3a43b82b2874488311c3f3a4cbd55223199892897dba143022049272bc85da748cb6523789c061a7cf9e1933397b7c2db80018ab5cf98107402[ALL] 020165ce642e6f62c0ad7223f01858fff126d4533e5cc1ec970f89053109a1a412"}, "vout": 1, "txid": "0cf16efeadc4187daf79edb2db09c8a8fe79322e514c2c889c0a9e2f0336cf2a"}], "txid": "2d2c799ecd34f19d1e3aee37eb1d2cc4b33dd10d83b5afd0cae006c0d74f49a7", "blocktime": 1537870564, "version": 1, "confirmations": 11515, "time": 1537870564, "locktime": 0, "vsize": 224, "size": 224}