{"hash": "2d30f644b79d33b52191cfe3ed0d3307ce9963dc684755c45e13a4862d8fc606", "blockhash": "00000000000000000018f53835495a110e01622372bf6ae95dc86f2b0ab887b0", "vout": [{"scriptPubKey": {"reqSigs": 1, "hex": "a914a371add206fb64a91b13a5a1405ad0fede0cafa387", "addresses": ["3GbEFNDGJoL5f1TpQvwpzSKM3f9DKB55vD"], "asm": "OP_HASH160 a371add206fb64a91b13a5a1405ad0fede0cafa3 OP_EQUAL", "type": "scripthash"}, "value": 0.00316098, "n": 0}, {"scriptPubKey": {"reqSigs": 1, "hex": "76a914e1b4488aca3487f6c39d205d8c8cd9f17336b14888ac", "addresses": ["1MaR1UFXyDNUZds9E3H2AMbijMRyRCgJ1m"], "asm": "OP_DUP OP_HASH160 e1b4488aca3487f6c39d205d8c8cd9f17336b148 OP_EQUALVERIFY OP_CHECKSIG", "type": "pubkeyhash"}, "value": 0.04531004, "n": 1}], "hex": "0100000001e077c66241023b3396f3197bc01be89520c38a7f135dcf784c1238abd9ea039f010000006b483045022100e6460effcf214c05cf4c046db01455fb0d535f925e03ba3d6f3f2c4a6a96f862022001fb8cdbaaabefe19174857bfb1bc401f7868ba5b8ffa8fa47ee79839f303934012103f62500bb2d2e750b19b6de8acf49e2cd6fc0e4b9a0aa97d3b88be8689137d6d5ffffffff02c2d204000000000017a914a371add206fb64a91b13a5a1405ad0fede0cafa3873c234500000000001976a914e1b4488aca3487f6c39d205d8c8cd9f17336b14888ac00000000", "vin": [{"sequence": 4294967295, "scriptSig": {"hex": "483045022100e6460effcf214c05cf4c046db01455fb0d535f925e03ba3d6f3f2c4a6a96f862022001fb8cdbaaabefe19174857bfb1bc401f7868ba5b8ffa8fa47ee79839f303934012103f62500bb2d2e750b19b6de8acf49e2cd6fc0e4b9a0aa97d3b88be8689137d6d5", "asm": "3045022100e6460effcf214c05cf4c046db01455fb0d535f925e03ba3d6f3f2c4a6a96f862022001fb8cdbaaabefe19174857bfb1bc401f7868ba5b8ffa8fa47ee79839f303934[ALL] 03f62500bb2d2e750b19b6de8acf49e2cd6fc0e4b9a0aa97d3b88be8689137d6d5"}, "vout": 1, "txid": "9f03ead9ab38124c78cf5d137f8ac32095e81bc07b19f396333b024162c677e0"}], "txid": "2d30f644b79d33b52191cfe3ed0d3307ce9963dc684755c45e13a4862d8fc606", "blocktime": 1537870928, "version": 1, "confirmations": 11512, "time": 1537870928, "locktime": 0, "vsize": 224, "size": 224}