{"hash": "2d395d91ee8d1bfe6f40847fffcf723fed345f8071a80b27a04dfb86ff388b4e", "blockhash": "0000000000000000001e0dab787dd257d1dbfcb92a98c2207d5e1078be1f4165", "vout": [{"scriptPubKey": {"reqSigs": 1, "hex": "76a914d94fdd689368beab03a7a81139e4f629483bf48688ac", "addresses": ["1Lp3JjhMaHtx2ZAiUNYeHj2hAEM4vcZ3a6"], "asm": "OP_DUP OP_HASH160 d94fdd689368beab03a7a81139e4f629483bf486 OP_EQUALVERIFY OP_CHECKSIG", "type": "pubkeyhash"}, "value": 0.00090585, "n": 0}, {"scriptPubKey": {"reqSigs": 1, "hex": "76a914b7c8b55bd9d53446f1720aad8f3fbc5a3c6f237188ac", "addresses": ["1Hkm6a93cmkoDxswTXrh98sFnwdX5D3aaS"], "asm": "OP_DUP OP_HASH160 b7c8b55bd9d53446f1720aad8f3fbc5a3c6f2371 OP_EQUALVERIFY OP_CHECKSIG", "type": "pubkeyhash"}, "value": 0.001569, "n": 1}], "hex": "0100000002fce73bc2b9317259368369bcbccc6decd5230b99917875301b3fc8e5e1f65cba010000006b483045022100f4ba8af2a40383ba86a4df6290771a6d0c98d877eb438a22767c470f5d0368da02205da8059632c1f9f9a410219ed64c557ffe53ee717f2cf057f53d07ac4a4639c0012102756cb8811aeb194210b2540e6081e79eb2b065424f88b7dcc39575de84f92640ffffffff83a2365125316dba74f7094e1089eaf17a8ed9db382dbc9127236cc5d4cb2518010000006b483045022100c89c8fa2bd18582c765c5d6af74bb87647622b1c39577eac7266bdc80af0cf68022067e8e9522924f062edac21ba34dd07a85081eb46f52e8038f4c4f4c44b4f3ef30121034b6c5d09b15ac4633148985554d918934f3555c4f40919dcbf8af4d7af428885ffffffff02d9610100000000001976a914d94fdd689368beab03a7a81139e4f629483bf48688ace4640200000000001976a914b7c8b55bd9d53446f1720aad8f3fbc5a3c6f237188ac00000000", "vin": [{"sequence": 4294967295, "scriptSig": {"hex": "483045022100f4ba8af2a40383ba86a4df6290771a6d0c98d877eb438a22767c470f5d0368da02205da8059632c1f9f9a410219ed64c557ffe53ee717f2cf057f53d07ac4a4639c0012102756cb8811aeb194210b2540e6081e79eb2b065424f88b7dcc39575de84f92640", "asm": "3045022100f4ba8af2a40383ba86a4df6290771a6d0c98d877eb438a22767c470f5d0368da02205da8059632c1f9f9a410219ed64c557ffe53ee717f2cf057f53d07ac4a4639c0[ALL] 02756cb8811aeb194210b2540e6081e79eb2b065424f88b7dcc39575de84f92640"}, "vout": 1, "txid": "ba5cf6e1e5c83f1b30757891990b23d5ec6dccbcbc698336597231b9c23be7fc"}, {"sequence": 4294967295, "scriptSig": {"hex": "483045022100c89c8fa2bd18582c765c5d6af74bb87647622b1c39577eac7266bdc80af0cf68022067e8e9522924f062edac21ba34dd07a85081eb46f52e8038f4c4f4c44b4f3ef30121034b6c5d09b15ac4633148985554d918934f3555c4f40919dcbf8af4d7af428885", "asm": "3045022100c89c8fa2bd18582c765c5d6af74bb87647622b1c39577eac7266bdc80af0cf68022067e8e9522924f062edac21ba34dd07a85081eb46f52e8038f4c4f4c44b4f3ef3[ALL] 034b6c5d09b15ac4633148985554d918934f3555c4f40919dcbf8af4d7af428885"}, "vout": 1, "txid": "1825cbd4c56c232791bc2d38dbd98e7af1ea89104e09f774ba6d31255136a283"}], "txid": "2d395d91ee8d1bfe6f40847fffcf723fed345f8071a80b27a04dfb86ff388b4e", "blocktime": 1537872475, "version": 1, "confirmations": 11487, "time": 1537872475, "locktime": 0, "vsize": 374, "size": 374}