{"hash": "2d40440f472687d3fc177bca85708ba346a25b6e80cbc1e17f1c5ccd2da8a8ae", "blockhash": "0000000000000000000baef3f32e3676a92c3b2e5da21b426e4f302fc371ce76", "vout": [{"scriptPubKey": {"reqSigs": 1, "hex": "76a914b1dedb3584f998c9122c9997d43e553c4a87853888ac", "addresses": ["1HDVaHFRyMArD38FvnRzxnWfUJ27At5uWs"], "asm": "OP_DUP OP_HASH160 b1dedb3584f998c9122c9997d43e553c4a878538 OP_EQUALVERIFY OP_CHECKSIG", "type": "pubkeyhash"}, "value": 0.0077, "n": 0}, {"scriptPubKey": {"reqSigs": 1, "hex": "76a914e2bf23c3e11e38c16f0c63e97de436bd2a5debb788ac", "addresses": ["1MfvgyTUHsiyf4Pva2x6ZBHEUtsvjgyhmX"], "asm": "OP_DUP OP_HASH160 e2bf23c3e11e38c16f0c63e97de436bd2a5debb7 OP_EQUALVERIFY OP_CHECKSIG", "type": "pubkeyhash"}, "value": 0.54620042, "n": 1}], "hex": "0200000002aaed9e2ea3e3396d4048635ea56699f18660f9560fa566056b7084fd98e90f4c010000006b483045022100800cf52dfb21c2abefd8149d8cdfa782ca44dc7a4321efe85d820ef1bbb2ff4f0220543ceac10f54f4f641b41ae39f3de3bd0793cef1f9c6121cfe66ec105922280e0121020691577e1f9469f10612e6888b669059dd0bfd214d1b2bf28a804479fc3397efffffffff2d3a4c7ead991576cc598b2a83c7664b5b41d12686a715cba9663dd73f6a640e010000006b483045022100b3335e73706e98997d35b00e7b73ab2b2d78edadb11c0cefeaeb9c58e0aa71c9022015df2ec8624c55f38eb4f270b8f2acdeb4265228a79ddf8459ffbd6c56fe08250121020691577e1f9469f10612e6888b669059dd0bfd214d1b2bf28a804479fc3397efffffffff02d0bf0b00000000001976a914b1dedb3584f998c9122c9997d43e553c4a87853888ac8a6f4103000000001976a914e2bf23c3e11e38c16f0c63e97de436bd2a5debb788ac00000000", "vin": [{"sequence": 4294967295, "scriptSig": {"hex": "483045022100800cf52dfb21c2abefd8149d8cdfa782ca44dc7a4321efe85d820ef1bbb2ff4f0220543ceac10f54f4f641b41ae39f3de3bd0793cef1f9c6121cfe66ec105922280e0121020691577e1f9469f10612e6888b669059dd0bfd214d1b2bf28a804479fc3397ef", "asm": "3045022100800cf52dfb21c2abefd8149d8cdfa782ca44dc7a4321efe85d820ef1bbb2ff4f0220543ceac10f54f4f641b41ae39f3de3bd0793cef1f9c6121cfe66ec105922280e[ALL] 020691577e1f9469f10612e6888b669059dd0bfd214d1b2bf28a804479fc3397ef"}, "vout": 1, "txid": "4c0fe998fd84706b0566a50f56f96086f19966a55e6348406d39e3a32e9eedaa"}, {"sequence": 4294967295, "scriptSig": {"hex": "483045022100b3335e73706e98997d35b00e7b73ab2b2d78edadb11c0cefeaeb9c58e0aa71c9022015df2ec8624c55f38eb4f270b8f2acdeb4265228a79ddf8459ffbd6c56fe08250121020691577e1f9469f10612e6888b669059dd0bfd214d1b2bf28a804479fc3397ef", "asm": "3045022100b3335e73706e98997d35b00e7b73ab2b2d78edadb11c0cefeaeb9c58e0aa71c9022015df2ec8624c55f38eb4f270b8f2acdeb4265228a79ddf8459ffbd6c56fe0825[ALL] 020691577e1f9469f10612e6888b669059dd0bfd214d1b2bf28a804479fc3397ef"}, "vout": 1, "txid": "0e646a3fd73d66a9cb15a78626d1415b4b66c7832a8b59cc761599ad7e4c3a2d"}], "txid": "2d40440f472687d3fc177bca85708ba346a25b6e80cbc1e17f1c5ccd2da8a8ae", "blocktime": 1537876114, "version": 2, "confirmations": 11460, "time": 1537876114, "locktime": 0, "vsize": 374, "size": 374}