{"hash": "2d4c5a9e101f056e75f9e47eae7302ae138ed20951280186ba19defd92d3524e", "blockhash": "00000000000000000004ffacab907a6b429b9a5745fa0b75af4234bf69dd7176", "vout": [{"scriptPubKey": {"reqSigs": 1, "hex": "a91466440821fc54535d31ef8b03eb075250de1b1bd387", "addresses": ["3B1kM3JrR4NWXvax1mXmPCDiMPEvea8Pgc"], "asm": "OP_HASH160 66440821fc54535d31ef8b03eb075250de1b1bd3 OP_EQUAL", "type": "scripthash"}, "value": 0.0265314, "n": 0}], "hex": "01000000048670418fc156adc0ddd9f40800aaaaa766c571b0251c2bc45c3e729ec008e4dc2d0000006a4730440220100950f4f3dc68301ec4a537324c4e4423ef4d8eeb237511e9b6f358f65890d10220475a12d72c31494f47829d7b6262a31063c46a4462ab257ebe7967d63a48ed2501210266d2232b7b44c8d8b6fac61dba0a2ce4e646de8acc98d4356b44520117357aaeffffffffbd219202bb21fef8e7ac609d5777ebc71e8586b814c3738cdffac7ca81726e38000000006b483045022100d8ffcc012b93fd2bec3a2e337be43eab090586d07708e9f5313b39174cdd7a1d0220531c472f784437a9f82a59a7ad7e17ed6e39de65284ea391fdea4aacd723309f01210266d2232b7b44c8d8b6fac61dba0a2ce4e646de8acc98d4356b44520117357aaeffffffff42aa2263b543a388d71b626f6ddc2c1ac9c49d69722ef21cb46e05919e8ca32a010000006a473044022049ec0892f78f026c7885daa719743c30fbd1ba322f36f490d6c89acc6404faae02202cf94fe9ab4e44a0d03ccb6a607e00bccac0dde0512cf3c90f353260ae43f02801210266d2232b7b44c8d8b6fac61dba0a2ce4e646de8acc98d4356b44520117357aaeffffffffc13ee43ff9587c319f1c9a7db5a10613b17255e0d0fab106ccb67c091f0f7147010000006a47304402206e2ba08390a2a043c175f2f221cf623d1c8422ba664e799805d08e7f294b810e0220746cef765c0ce88ec1325a0f8278924687e3b7341b1bec2db37e83791d891c1601210266d2232b7b44c8d8b6fac61dba0a2ce4e646de8acc98d4356b44520117357aaeffffffff01d47b28000000000017a91466440821fc54535d31ef8b03eb075250de1b1bd38700000000", "vin": [{"sequence": 4294967295, "scriptSig": {"hex": "4730440220100950f4f3dc68301ec4a537324c4e4423ef4d8eeb237511e9b6f358f65890d10220475a12d72c31494f47829d7b6262a31063c46a4462ab257ebe7967d63a48ed2501210266d2232b7b44c8d8b6fac61dba0a2ce4e646de8acc98d4356b44520117357aae", "asm": "30440220100950f4f3dc68301ec4a537324c4e4423ef4d8eeb237511e9b6f358f65890d10220475a12d72c31494f47829d7b6262a31063c46a4462ab257ebe7967d63a48ed25[ALL] 0266d2232b7b44c8d8b6fac61dba0a2ce4e646de8acc98d4356b44520117357aae"}, "vout": 45, "txid": "dce408c09e723e5cc42b1c25b071c566a7aaaa0008f4d9ddc0ad56c18f417086"}, {"sequence": 4294967295, "scriptSig": {"hex": "483045022100d8ffcc012b93fd2bec3a2e337be43eab090586d07708e9f5313b39174cdd7a1d0220531c472f784437a9f82a59a7ad7e17ed6e39de65284ea391fdea4aacd723309f01210266d2232b7b44c8d8b6fac61dba0a2ce4e646de8acc98d4356b44520117357aae", "asm": "3045022100d8ffcc012b93fd2bec3a2e337be43eab090586d07708e9f5313b39174cdd7a1d0220531c472f784437a9f82a59a7ad7e17ed6e39de65284ea391fdea4aacd723309f[ALL] 0266d2232b7b44c8d8b6fac61dba0a2ce4e646de8acc98d4356b44520117357aae"}, "vout": 0, "txid": "386e7281cac7fadf8c73c314b886851ec7eb77579d60ace7f8fe21bb029221bd"}, {"sequence": 4294967295, "scriptSig": {"hex": "473044022049ec0892f78f026c7885daa719743c30fbd1ba322f36f490d6c89acc6404faae02202cf94fe9ab4e44a0d03ccb6a607e00bccac0dde0512cf3c90f353260ae43f02801210266d2232b7b44c8d8b6fac61dba0a2ce4e646de8acc98d4356b44520117357aae", "asm": "3044022049ec0892f78f026c7885daa719743c30fbd1ba322f36f490d6c89acc6404faae02202cf94fe9ab4e44a0d03ccb6a607e00bccac0dde0512cf3c90f353260ae43f028[ALL] 0266d2232b7b44c8d8b6fac61dba0a2ce4e646de8acc98d4356b44520117357aae"}, "vout": 1, "txid": "2aa38c9e91056eb41cf22e72699dc4c91a2cdc6d6f621bd788a343b56322aa42"}, {"sequence": 4294967295, "scriptSig": {"hex": "47304402206e2ba08390a2a043c175f2f221cf623d1c8422ba664e799805d08e7f294b810e0220746cef765c0ce88ec1325a0f8278924687e3b7341b1bec2db37e83791d891c1601210266d2232b7b44c8d8b6fac61dba0a2ce4e646de8acc98d4356b44520117357aae", "asm": "304402206e2ba08390a2a043c175f2f221cf623d1c8422ba664e799805d08e7f294b810e0220746cef765c0ce88ec1325a0f8278924687e3b7341b1bec2db37e83791d891c16[ALL] 0266d2232b7b44c8d8b6fac61dba0a2ce4e646de8acc98d4356b44520117357aae"}, "vout": 1, "txid": "47710f1f097cb6cc06b1fad0e05572b11306a1b57d9a1c9f317c58f93fe43ec1"}], "txid": "2d4c5a9e101f056e75f9e47eae7302ae138ed20951280186ba19defd92d3524e", "blocktime": 1537875543, "version": 1, "confirmations": 11464, "time": 1537875543, "locktime": 0, "vsize": 631, "size": 631}