{"hash": "2d53d357b68e8c27a8e1aaf7b58e24267a3ac3eea77a926be82f1d094765b81b", "blockhash": "000000000000000000022b45ed06c6f4ccd3cf7fb5ba4856ebd2e58215665228", "vout": [{"scriptPubKey": {"reqSigs": 1, "hex": "76a9147605a69b1e101f561d46470058fb818704ed82be88ac", "addresses": ["1Bm3WG8CvzvBocNsUDjESFxqsYC2h7RdeU"], "asm": "OP_DUP OP_HASH160 7605a69b1e101f561d46470058fb818704ed82be OP_EQUALVERIFY OP_CHECKSIG", "type": "pubkeyhash"}, "value": 0.00412374, "n": 0}, {"scriptPubKey": {"type": "nulldata", "hex": "6a146f6d6e69000000000000001f000001d1a94a2000", "asm": "OP_RETURN 6f6d6e69000000000000001f000001d1a94a2000"}, "value": 0.0, "n": 1}, {"scriptPubKey": {"reqSigs": 1, "hex": "76a914a25dec4d0011064ef106a983c39c7a540699f22088ac", "addresses": ["1FoWyxwPXuj4C6abqwhjDWdz6D4PZgYRjA"], "asm": "OP_DUP OP_HASH160 a25dec4d0011064ef106a983c39c7a540699f220 OP_EQUALVERIFY OP_CHECKSIG", "type": "pubkeyhash"}, "value": 5.46e-06, "n": 2}], "hex": "01000000028d8781d9382cb31ca453e230c00d227fa676afa97116e398d0c3bf5ef17d58eb020000006a47304402204d6f6ff01960633a8373616ab6a1389e3e29eb41892bae3b059ef9680d02aacc0220750071504eb2a85d5d3c6ad4e6afe6eff2e4e70da8e7640ff06f14e734b7ee760121026b977301f8ecfe33cf0e9dfd06cfa4b0f095516c07c4d75af4d66234b1bc82e8feffffffcb2425ed5ddf351f38e0f44bef4719fbdb9568907d528fe29f6f33ad95d214c7000000006a47304402206775fd6f35ad80dc89fee31ce14d08bf4bb0f4c55d33678ae7709e18c79e6a1302207fb5d9a07576d9440d21a4433cdd3845454be0500c0080e01846692583c73c970121026b977301f8ecfe33cf0e9dfd06cfa4b0f095516c07c4d75af4d66234b1bc82e8feffffff03d64a0600000000001976a9147605a69b1e101f561d46470058fb818704ed82be88ac0000000000000000166a146f6d6e69000000000000001f000001d1a94a200022020000000000001976a914a25dec4d0011064ef106a983c39c7a540699f22088ac0b490800", "vin": [{"sequence": 4294967294, "scriptSig": {"hex": "47304402204d6f6ff01960633a8373616ab6a1389e3e29eb41892bae3b059ef9680d02aacc0220750071504eb2a85d5d3c6ad4e6afe6eff2e4e70da8e7640ff06f14e734b7ee760121026b977301f8ecfe33cf0e9dfd06cfa4b0f095516c07c4d75af4d66234b1bc82e8", "asm": "304402204d6f6ff01960633a8373616ab6a1389e3e29eb41892bae3b059ef9680d02aacc0220750071504eb2a85d5d3c6ad4e6afe6eff2e4e70da8e7640ff06f14e734b7ee76[ALL] 026b977301f8ecfe33cf0e9dfd06cfa4b0f095516c07c4d75af4d66234b1bc82e8"}, "vout": 2, "txid": "eb587df15ebfc3d098e31671a9af76a67f220dc030e253a41cb32c38d981878d"}, {"sequence": 4294967294, "scriptSig": {"hex": "47304402206775fd6f35ad80dc89fee31ce14d08bf4bb0f4c55d33678ae7709e18c79e6a1302207fb5d9a07576d9440d21a4433cdd3845454be0500c0080e01846692583c73c970121026b977301f8ecfe33cf0e9dfd06cfa4b0f095516c07c4d75af4d66234b1bc82e8", "asm": "304402206775fd6f35ad80dc89fee31ce14d08bf4bb0f4c55d33678ae7709e18c79e6a1302207fb5d9a07576d9440d21a4433cdd3845454be0500c0080e01846692583c73c97[ALL] 026b977301f8ecfe33cf0e9dfd06cfa4b0f095516c07c4d75af4d66234b1bc82e8"}, "vout": 0, "txid": "c714d295ad336f9fe28f527d906895dbfb1947ef4bf4e0381f35df5ded2524cb"}], "txid": "2d53d357b68e8c27a8e1aaf7b58e24267a3ac3eea77a926be82f1d094765b81b", "blocktime": 1537869901, "version": 1, "confirmations": 11524, "time": 1537869901, "locktime": 542987, "vsize": 403, "size": 403}