{"hash": "2d53e6e7a8eb66af2ae9d58ba307306ff80eb5cc502cb916c02d4ada37100589", "blockhash": "0000000000000000000e13cef7c366c0283d82e591d1acd082e914b08063cdf1", "vout": [{"scriptPubKey": {"reqSigs": 1, "hex": "a9143f4eecba122ad73039d481c8d37f99cb4f887cd887", "addresses": ["37Tm3Qz8Zw2VJrheUUhArDAoq58S6YrS3g"], "asm": "OP_HASH160 3f4eecba122ad73039d481c8d37f99cb4f887cd8 OP_EQUAL", "type": "scripthash"}, "value": 1.0, "n": 0}, {"scriptPubKey": {"reqSigs": 1, "hex": "a9141cd3c2b57f189e294db42234c19eb9930fae307087", "addresses": ["34KSXJFLALCCDsBu1h6uYvPrE7Ma116yvr"], "asm": "OP_HASH160 1cd3c2b57f189e294db42234c19eb9930fae3070 OP_EQUAL", "type": "scripthash"}, "value": 10.26319936, "n": 1}], "hex": "01000000014f8f239e1c218ec6cdde23c275677bf8a7ca67adb2a3b439bf1b33ebdabfd11d01000000fc004730440220260e0d0274ec8903247310fca15df9d31a0f38d2cb822e0efcf666da6f6d61a202202c998b8a09451ec002f330c0b580deeaa1428bdfedbb76d63c76f4dc064cd2b90147304402207d4c015c8af449528110533e07c378dc1d21153be794a3982de40fe62fa171660220145f9cb8e4c59c10b2af50298805d100662775c4ac44a7e40c210c919b10200e014c6952210228230fd01322708c696e085c807f6ecb5a913bffc6edeb5fe5b89f1267e96a3e210364c968ef5d12cf990fd9cb5c232730d51fc33e2798f4e2b3ef52ce71776e23992102789819d7f3423e9b7f1377f2abdfd7e3d747d740dd4e53a76c3f37df223f884d53aeffffffff0200e1f5050000000017a9143f4eecba122ad73039d481c8d37f99cb4f887cd88740662c3d0000000017a9141cd3c2b57f189e294db42234c19eb9930fae30708700000000", "vin": [{"sequence": 4294967295, "scriptSig": {"hex": "004730440220260e0d0274ec8903247310fca15df9d31a0f38d2cb822e0efcf666da6f6d61a202202c998b8a09451ec002f330c0b580deeaa1428bdfedbb76d63c76f4dc064cd2b90147304402207d4c015c8af449528110533e07c378dc1d21153be794a3982de40fe62fa171660220145f9cb8e4c59c10b2af50298805d100662775c4ac44a7e40c210c919b10200e014c6952210228230fd01322708c696e085c807f6ecb5a913bffc6edeb5fe5b89f1267e96a3e210364c968ef5d12cf990fd9cb5c232730d51fc33e2798f4e2b3ef52ce71776e23992102789819d7f3423e9b7f1377f2abdfd7e3d747d740dd4e53a76c3f37df223f884d53ae", "asm": "0 30440220260e0d0274ec8903247310fca15df9d31a0f38d2cb822e0efcf666da6f6d61a202202c998b8a09451ec002f330c0b580deeaa1428bdfedbb76d63c76f4dc064cd2b9[ALL] 304402207d4c015c8af449528110533e07c378dc1d21153be794a3982de40fe62fa171660220145f9cb8e4c59c10b2af50298805d100662775c4ac44a7e40c210c919b10200e[ALL] 52210228230fd01322708c696e085c807f6ecb5a913bffc6edeb5fe5b89f1267e96a3e210364c968ef5d12cf990fd9cb5c232730d51fc33e2798f4e2b3ef52ce71776e23992102789819d7f3423e9b7f1377f2abdfd7e3d747d740dd4e53a76c3f37df223f884d53ae"}, "vout": 1, "txid": "1dd1bfdaeb331bbf39b4a3b2ad67caa7f87b6775c223decdc68e211c9e238f4f"}], "txid": "2d53e6e7a8eb66af2ae9d58ba307306ff80eb5cc502cb916c02d4ada37100589", "blocktime": 1537871767, "version": 1, "confirmations": 11491, "time": 1537871767, "locktime": 0, "vsize": 367, "size": 367}