{"hash": "2d585a59fc18892b88254361702dbd7ca9ad3b7220c6fd3efd8d3acb4ec4cf5d", "blockhash": "0000000000000000001cda96e906b7601b7a6fb1a3b62bca570a9e5d8f4b3de1", "vout": [{"scriptPubKey": {"reqSigs": 1, "hex": "76a914f916f275af8e77ebe676ba8011e8871a4748011b88ac", "addresses": ["1Pi4kADE6yX3qNkDnEj8rnHDitA5NvRfX3"], "asm": "OP_DUP OP_HASH160 f916f275af8e77ebe676ba8011e8871a4748011b OP_EQUALVERIFY OP_CHECKSIG", "type": "pubkeyhash"}, "value": 0.03120737, "n": 0}, {"scriptPubKey": {"reqSigs": 1, "hex": "76a9142118dafa02b260fccdd4c78df722099e409b2ad488ac", "addresses": ["14215K7aE65YFozgqtKpQG9YtyS32pTcxv"], "asm": "OP_DUP OP_HASH160 2118dafa02b260fccdd4c78df722099e409b2ad4 OP_EQUALVERIFY OP_CHECKSIG", "type": "pubkeyhash"}, "value": 0.07542404, "n": 1}], "hex": "01000000010da4e8840ec6b6013271e5ce1730307c3278edd9097239d28d868780f33df0a5010000006b48304502210099b7a1778aab2a7719981383026dcdf17d6f08fc88a1ae2c51835423119b247e02205997cd88055f53f70d398f276bec7c26e5e5bf26ebb2c05173998808ec066568012103eb72542ca5eae68126bac27619d30e0e46671fed7d1a8ea5d92b22ab5cd732e7ffffffff02619e2f00000000001976a914f916f275af8e77ebe676ba8011e8871a4748011b88ac84167300000000001976a9142118dafa02b260fccdd4c78df722099e409b2ad488ac00000000", "vin": [{"sequence": 4294967295, "scriptSig": {"hex": "48304502210099b7a1778aab2a7719981383026dcdf17d6f08fc88a1ae2c51835423119b247e02205997cd88055f53f70d398f276bec7c26e5e5bf26ebb2c05173998808ec066568012103eb72542ca5eae68126bac27619d30e0e46671fed7d1a8ea5d92b22ab5cd732e7", "asm": "304502210099b7a1778aab2a7719981383026dcdf17d6f08fc88a1ae2c51835423119b247e02205997cd88055f53f70d398f276bec7c26e5e5bf26ebb2c05173998808ec066568[ALL] 03eb72542ca5eae68126bac27619d30e0e46671fed7d1a8ea5d92b22ab5cd732e7"}, "vout": 1, "txid": "a5f03df38087868dd2397209d9ed78327c303017cee5713201b6c60e84e8a40d"}], "txid": "2d585a59fc18892b88254361702dbd7ca9ad3b7220c6fd3efd8d3acb4ec4cf5d", "blocktime": 1537873282, "version": 1, "confirmations": 11485, "time": 1537873282, "locktime": 0, "vsize": 226, "size": 226}