{"hash": "e9f705396df097a05791b699b9beab64e5e68033a1c568b7b9a89824b6fb7608", "blockhash": "0000000000000000001e0dab787dd257d1dbfcb92a98c2207d5e1078be1f4165", "vout": [{"scriptPubKey": {"reqSigs": 1, "hex": "a9144acaaa807fa597e63e96956aeb4bfcddbe630d6387", "addresses": ["38WUiDnvSpjzsbo7FqyU3KakhiqmowKCbF"], "asm": "OP_HASH160 4acaaa807fa597e63e96956aeb4bfcddbe630d63 OP_EQUAL", "type": "scripthash"}, "value": 0.08484496, "n": 0}, {"scriptPubKey": {"reqSigs": 1, "hex": "a914ac4531dc48154f45e1c04fea696cf83ba551e44287", "addresses": ["3HPu3GvR58WPmLqhdpWGPREuZvBYN9TdC3"], "asm": "OP_HASH160 ac4531dc48154f45e1c04fea696cf83ba551e442 OP_EQUAL", "type": "scripthash"}, "value": 0.04592715, "n": 1}], "hex": "010000000001012a4431ee3d30e3e3495edaa39bb635b29e151b28a6306c5e9f38ea64f204f121010000001716001430c331801027023f6c113b370eee5920f7a2f30bffffff0002907681000000000017a9144acaaa807fa597e63e96956aeb4bfcddbe630d63874b1446000000000017a914ac4531dc48154f45e1c04fea696cf83ba551e4428702483045022100f1e37f658586219281b7487f9c515ed8d0a3b61e6d7c9d8cfe0e9bab8575667b022039c875fceb725df4be91b8e6891a09e720106faeb7566ce5eb8aebe65007cec9012102905952ac9ac410b567212caebd0bb48f3935ff7be807700e43f6e83967fb420b00000000", "vin": [{"txinwitness": ["3045022100f1e37f658586219281b7487f9c515ed8d0a3b61e6d7c9d8cfe0e9bab8575667b022039c875fceb725df4be91b8e6891a09e720106faeb7566ce5eb8aebe65007cec901", "02905952ac9ac410b567212caebd0bb48f3935ff7be807700e43f6e83967fb420b"], "sequence": 16777215, "scriptSig": {"hex": "16001430c331801027023f6c113b370eee5920f7a2f30b", "asm": "001430c331801027023f6c113b370eee5920f7a2f30b"}, "vout": 1, "txid": "21f104f264ea389f5e6c30a6281b159eb235b69ba3da5e49e3e3303dee31442a"}], "txid": "2d5a0beb14018d742427a7bf9a7ef2bcc555737e059ed51467febb61c4d5efb5", "blocktime": 1537872475, "version": 1, "confirmations": 11487, "time": 1537872475, "locktime": 0, "vsize": 166, "size": 248}