{"hash": "518a6bbc60ba994022c48fb78fda6cdeb05bd96f205f178e0b303356f717b90a", "blockhash": "0000000000000000000dcc0f55137456b1a82d3642486a52398922ac4d620174", "vout": [{"scriptPubKey": {"reqSigs": 1, "hex": "a91438f531130cc21c5fdfa1a691518ef8388adbbffe87", "addresses": ["36tBVWBnwb236tNc9k3Af5BunmcTrsYY6K"], "asm": "OP_HASH160 38f531130cc21c5fdfa1a691518ef8388adbbffe OP_EQUAL", "type": "scripthash"}, "value": 0.00077483, "n": 0}, {"scriptPubKey": {"reqSigs": 1, "hex": "a91408c364340a91e77e4376b26fdad3b5aedc5661f787", "addresses": ["32VMQ7Th4qGhbDYY68FZrfSF9hTbsPivgt"], "asm": "OP_HASH160 08c364340a91e77e4376b26fdad3b5aedc5661f7 OP_EQUAL", "type": "scripthash"}, "value": 0.07450198, "n": 1}], "hex": "010000000001016f6f8c6e4753db28aa8d7610ff098d48b3300d40f17b58afcf89960760af5fab010000002322002027561ef61439ff4994ea3793249bbb358319edb59fff63c1eeada48f299e81b5ffffffff02ab2e01000000000017a91438f531130cc21c5fdfa1a691518ef8388adbbffe8756ae71000000000017a91408c364340a91e77e4376b26fdad3b5aedc5661f7870400483045022100bbf54d972a1698f888a94fcaec0465f4bd5b604bf184b9cbcf1899daf9922013022076983c30c6cb2cb88e1951ccd9566d0adda588e178541a8813f31cc71f54ea30014730440220092d9ba9b4659bda8fd8694ae7f6aa53cc5f4927d4c0a520627e41c679d0dfeb02203a7069e8f1e68413182e21712124d576c96f66ba7b2dead47f9ceaeb3b0ff35d0147522102f484437eae67e7d1f9cf7235bd52510c99f379408a1f6fe737011d4bc259358a2103871fc2ca08e6950b38867e8e6a0e94ee625223d3aa0df5c65f414c6d784467e252ae00000000", "vin": [{"txinwitness": ["", "3045022100bbf54d972a1698f888a94fcaec0465f4bd5b604bf184b9cbcf1899daf9922013022076983c30c6cb2cb88e1951ccd9566d0adda588e178541a8813f31cc71f54ea3001", "30440220092d9ba9b4659bda8fd8694ae7f6aa53cc5f4927d4c0a520627e41c679d0dfeb02203a7069e8f1e68413182e21712124d576c96f66ba7b2dead47f9ceaeb3b0ff35d01", "522102f484437eae67e7d1f9cf7235bd52510c99f379408a1f6fe737011d4bc259358a2103871fc2ca08e6950b38867e8e6a0e94ee625223d3aa0df5c65f414c6d784467e252ae"], "sequence": 4294967295, "scriptSig": {"hex": "22002027561ef61439ff4994ea3793249bbb358319edb59fff63c1eeada48f299e81b5", "asm": "002027561ef61439ff4994ea3793249bbb358319edb59fff63c1eeada48f299e81b5"}, "vout": 1, "txid": "ab5faf60079689cfaf587bf1400d30b3488d09ff10768daa28db53476e8c6f6f"}], "txid": "2d609018ab9c9728f08fae37b7a586f547f43096de2f73a8905a585c0222f776", "blocktime": 1537870268, "version": 1, "confirmations": 11518, "time": 1537870268, "locktime": 0, "vsize": 206, "size": 371}