{"hash": "2d677f1077224d62fe302330f1bcc914500d71b5d832f116a2f727a5579df550", "blockhash": "00000000000000000018f53835495a110e01622372bf6ae95dc86f2b0ab887b0", "vout": [{"scriptPubKey": {"reqSigs": 1, "hex": "76a9144a0f1e2f2b0d7daeec5265f10bbbbe08ed725e8988ac", "addresses": ["17kb7c9ndg7ioSuzMWEHWECdEVUegNkcGc"], "asm": "OP_DUP OP_HASH160 4a0f1e2f2b0d7daeec5265f10bbbbe08ed725e89 OP_EQUALVERIFY OP_CHECKSIG", "type": "pubkeyhash"}, "value": 0.00033656, "n": 0}], "hex": "010000000169458f9ae00fe3c39e3ceae83d52bad6bbcee9af8a340e86d3f0a6347739eec7000000006b48304502210084b70ca061624a904381b4ad8bb8f75deaa41595f755722a7dcdd948e1b5204f0220689d1d09fcfcc1a59d5d93106fc1159787e5f3a79465693e6de892f178ac5e4c01210344938113450e4139f092223cc8d1c879bb5b6967127708e09c1cb3628030775bffffffff0178830000000000001976a9144a0f1e2f2b0d7daeec5265f10bbbbe08ed725e8988ac00000000", "vin": [{"sequence": 4294967295, "scriptSig": {"hex": "48304502210084b70ca061624a904381b4ad8bb8f75deaa41595f755722a7dcdd948e1b5204f0220689d1d09fcfcc1a59d5d93106fc1159787e5f3a79465693e6de892f178ac5e4c01210344938113450e4139f092223cc8d1c879bb5b6967127708e09c1cb3628030775b", "asm": "304502210084b70ca061624a904381b4ad8bb8f75deaa41595f755722a7dcdd948e1b5204f0220689d1d09fcfcc1a59d5d93106fc1159787e5f3a79465693e6de892f178ac5e4c[ALL] 0344938113450e4139f092223cc8d1c879bb5b6967127708e09c1cb3628030775b"}, "vout": 0, "txid": "c7ee397734a6f0d3860e348aafe9cebbd6ba523de8ea3c9ec3e30fe09a8f4569"}], "txid": "2d677f1077224d62fe302330f1bcc914500d71b5d832f116a2f727a5579df550", "blocktime": 1537870928, "version": 1, "confirmations": 11512, "time": 1537870928, "locktime": 0, "vsize": 192, "size": 192}