{"hash": "8c717830325029cfc94a49b424f1fcab1ac866cc421c9fe78c810d88611e0ea1", "blockhash": "0000000000000000000baef3f32e3676a92c3b2e5da21b426e4f302fc371ce76", "vout": [{"scriptPubKey": {"reqSigs": 1, "hex": "a914f439415e9c2adca4774059f9ec1d404e92bda5ae87", "addresses": ["3PxMPXDgbt28JpNqhrQnLdRTgKkw1W1T2s"], "asm": "OP_HASH160 f439415e9c2adca4774059f9ec1d404e92bda5ae OP_EQUAL", "type": "scripthash"}, "value": 0.00999292, "n": 0}, {"scriptPubKey": {"reqSigs": 1, "hex": "76a91425003cf998fe78a489ca995f9f11244532d54f6c88ac", "addresses": ["14NeHeXYGU6Hjy1ZKoWBamUL3z1wyQfgym"], "asm": "OP_DUP OP_HASH160 25003cf998fe78a489ca995f9f11244532d54f6c OP_EQUALVERIFY OP_CHECKSIG", "type": "pubkeyhash"}, "value": 0.0048196, "n": 1}], "hex": "0200000000010274499d78ccc05b3bb64e707f6d247115f5b4b01160d0b31e33c3ebae3309c4f40100000017160014d832212977cfe9dd8172cd61b78740ee37603449feffffff820891bb81eb8fda21596055f807e6bd485184de741dfaf400426bfad78fac7d0000000017160014a217c480fb81ab3d72de414f5a2c6ac8e5607ba6feffffff027c3f0f000000000017a914f439415e9c2adca4774059f9ec1d404e92bda5ae87a85a0700000000001976a91425003cf998fe78a489ca995f9f11244532d54f6c88ac024830450221008d3ecf772c5e1e33b9f91ca6aadc2481ba6d930e7a310a2e2fa57dbc2797ce160220412bb48b0d7901637132f644ae63f22828264812141073d4b894251afa82eb33012102433031508243c5ba3a769081d223ed5092ad0caddb7e6143e5309ccf71b54d4e02473044022014a6f6e130a4a371cbd21de61f1ff7e97667982ef89cdf9c85d4d0cae775e1a202205b5f13d6a901a33da4ac58652b5ca2cc779cb4891114a703d6e486381a130038012102fa505e355e18334777dc87eb923f1ae1d4d114cdcfaf930c53473f2b9811208717490800", "vin": [{"txinwitness": ["30450221008d3ecf772c5e1e33b9f91ca6aadc2481ba6d930e7a310a2e2fa57dbc2797ce160220412bb48b0d7901637132f644ae63f22828264812141073d4b894251afa82eb3301", "02433031508243c5ba3a769081d223ed5092ad0caddb7e6143e5309ccf71b54d4e"], "sequence": 4294967294, "scriptSig": {"hex": "160014d832212977cfe9dd8172cd61b78740ee37603449", "asm": "0014d832212977cfe9dd8172cd61b78740ee37603449"}, "vout": 1, "txid": "f4c40933aeebc3331eb3d06011b0b4f51571246d7f704eb63b5bc0cc789d4974"}, {"txinwitness": ["3044022014a6f6e130a4a371cbd21de61f1ff7e97667982ef89cdf9c85d4d0cae775e1a202205b5f13d6a901a33da4ac58652b5ca2cc779cb4891114a703d6e486381a13003801", "02fa505e355e18334777dc87eb923f1ae1d4d114cdcfaf930c53473f2b98112087"], "sequence": 4294967294, "scriptSig": {"hex": "160014a217c480fb81ab3d72de414f5a2c6ac8e5607ba6", "asm": "0014a217c480fb81ab3d72de414f5a2c6ac8e5607ba6"}, "vout": 0, "txid": "7dac8fd7fa6b4200f4fa1d74de845148bde607f855605921da8feb81bb910882"}], "txid": "2d685229053b1dce234cd28e7e2ece63b12e2cb83eb1ea28535a6ee5ede4c865", "blocktime": 1537876114, "version": 2, "confirmations": 11462, "time": 1537876114, "locktime": 542999, "vsize": 259, "size": 421}