{"hash": "2d6cce29c6fe6eb32c184ffd8cc7acf6cd52901d602e16a452daec99b4cd384f", "blockhash": "0000000000000000000e13cef7c366c0283d82e591d1acd082e914b08063cdf1", "vout": [{"scriptPubKey": {"reqSigs": 1, "hex": "76a9140e5718d2d71a119cb74b74b782a0816721cf757188ac", "addresses": ["12JpoHmBf769cDFFUVsmeiTHwuLuCQh2LD"], "asm": "OP_DUP OP_HASH160 0e5718d2d71a119cb74b74b782a0816721cf7571 OP_EQUALVERIFY OP_CHECKSIG", "type": "pubkeyhash"}, "value": 7.54e-05, "n": 0}, {"scriptPubKey": {"reqSigs": 1, "hex": "76a914a1f9ce5c28c5ac3f00fda21029581cf40163ec1088ac", "addresses": ["1FmT3iYtbmqe3C1No42s28LearAnER4sa1"], "asm": "OP_DUP OP_HASH160 a1f9ce5c28c5ac3f00fda21029581cf40163ec10 OP_EQUALVERIFY OP_CHECKSIG", "type": "pubkeyhash"}, "value": 0.0005, "n": 1}], "hex": "01000000017bbb0cc65f4646077a95d96e008aec9a1badd67d7108397bd7ae2d184427a9e7000000006a473044022004fba8300b1b53b90f42ed826d30794383236936b35d87d778a23bf7a4e425c5022053aab09a0ccd6ca2def9c097758be30e8c649268dc0e08a888a1b5f29f4d0a0b012103c03b1a326906a5561269e7123f934ddc78a0a935434873a384e24b617eb10350fdffffff02741d0000000000001976a9140e5718d2d71a119cb74b74b782a0816721cf757188ac50c30000000000001976a914a1f9ce5c28c5ac3f00fda21029581cf40163ec1088ac10490800", "vin": [{"sequence": 4294967293, "scriptSig": {"hex": "473044022004fba8300b1b53b90f42ed826d30794383236936b35d87d778a23bf7a4e425c5022053aab09a0ccd6ca2def9c097758be30e8c649268dc0e08a888a1b5f29f4d0a0b012103c03b1a326906a5561269e7123f934ddc78a0a935434873a384e24b617eb10350", "asm": "3044022004fba8300b1b53b90f42ed826d30794383236936b35d87d778a23bf7a4e425c5022053aab09a0ccd6ca2def9c097758be30e8c649268dc0e08a888a1b5f29f4d0a0b[ALL] 03c03b1a326906a5561269e7123f934ddc78a0a935434873a384e24b617eb10350"}, "vout": 0, "txid": "e7a92744182daed77b3908717dd6ad1b9aec8a006ed9957a0746465fc60cbb7b"}], "txid": "2d6cce29c6fe6eb32c184ffd8cc7acf6cd52901d602e16a452daec99b4cd384f", "blocktime": 1537871767, "version": 1, "confirmations": 11493, "time": 1537871767, "locktime": 542992, "vsize": 225, "size": 225}