{"hash": "d2c06f486ae21c9e09b91a898cce155c3c2bbcf83c312110c6e65147a7f03b21", "blockhash": "0000000000000000001cda96e906b7601b7a6fb1a3b62bca570a9e5d8f4b3de1", "vout": [{"scriptPubKey": {"reqSigs": 1, "hex": "a91423d263718d363f1160b059ad35886985acce9e4687", "addresses": ["34xRcJZt1Kdo6qJL7pQv9e6gTTHVbu5ajA"], "asm": "OP_HASH160 23d263718d363f1160b059ad35886985acce9e46 OP_EQUAL", "type": "scripthash"}, "value": 0.00999038, "n": 0}, {"scriptPubKey": {"reqSigs": 1, "hex": "a914d39c6e9fcf31c340f524060e60aeb9802eae878c87", "addresses": ["3Lyuu7btFrVmcZgmnCFK1wHBsA9j8xR9ts"], "asm": "OP_HASH160 d39c6e9fcf31c340f524060e60aeb9802eae878c OP_EQUAL", "type": "scripthash"}, "value": 0.07920612, "n": 1}], "hex": "0200000000010a12293a29c3d65564c01eabafe30d5e788f80ae6907c939c91c282c795e5adce80100000017160014bb9de020ccba2ffc65420006c2ac8da99e09b821feffffff16bac8c74257d4b58119f93b0633c1f96aabca3965bae5b577ef90a305647eaa00000000171600142ea3c90543fa6d16ce5c7944dcfe7926a5d17668feffffff422695a411ad3dd6613c5afbe9b88a63ec540c37ef1bd319a1dd3266ea9899a200000000171600144b5afe20a0873e9aac3598fccd2561cad5b74f7cfeffffff604121afd92b025de1c53842d15060d4077c3b58bb522926cb27e1d092057f1c010000001716001404735fa1d2c8e25007a68c09866bc88b3b106767feffffff80068c1b220f4c4d9dfe82339d88cdcb06e57a6ec6d81bf6346cd864c217b8830000000017160014f3ca31721d3d1474239ac6ab5b195b7fab9cf007feffffffaa9b39ba93452ecb968aca82d110fdb74c67153cc039b265e998ef5a9ef3871301000000171600149495891f66e59dd91f85348647b2ec281cbf446afeffffffbf24df4af73575fcaabeda175f3b4af74d95d2a19534fe35fe7e3d63242a3ced0100000017160014cc3d5ab60777563454b672971f6c3146cd4b42dafeffffffc41278040cda089906cf4a052805e0e59722eb4fb315e9d32010c49d7b6494ce0100000017160014ed6db3c2f6a7dea05125dc3e6bce360f5ae20ac3feffffffc9cce01b7985bbb2fbfc1a8ab70019d77eb544eebdebc88102edf719710c36ca010000001716001450011e16dc33ee419e92e9c704cd5b940a4301eafefffffffb99afc09ce3b47a0f79fc478ae1f481a560b07aa5e9a1b1ac7c4680b751fa4501000000171600146f56a78775b81ac112cbdfc61b1a759499e227e3feffffff027e3e0f000000000017a91423d263718d363f1160b059ad35886985acce9e4687e4db78000000000017a914d39c6e9fcf31c340f524060e60aeb9802eae878c8702473044022035a0b347cee0dd0de50b972a8bdb978807b24b3eef2c0c43daed6625b65545da0220479e8eba3e603625970c6c9bf7cf20527f82f8418826ce3f6481aeb085b3f868012103afd886559e102c10fe2ec7ed50656e07abdcca72662bc03c38cb117545ab992a024730440220295e6ef55483fa504b51d424638dd318feb5e961f62583bfc9c4d2e5afe5d9a502203f80437680c81e647932eb26aa1edaab05f0739d7d80ea403223c22ce9cf50a60121027740ff9ba821d3dae24956c20d5b6fecd18147cf7bae983ce1a78d0e18c25cfa0247304402206f02535f92d78e6a60876b667f297a8a5c6d8a648e3b33f70bdcb2781e7064b702207078b321b6023966b145f9775594b0504642effd94058d2bb962b0506def90500121028708314c0b170d1508b0cf23ae3aec882e060e657cd532b8d36348c36f28d06c024730440220783d0e768abd7730d2e59d787d9ab508e7b1f4bd38844cbd67789451135b856a022005a8e5de86acf4ed88a0b86ad867184cbf91b42fec6db3f05ba0c49c0195ccac012102283c65861677129a318847ff420a133a266e8449951ddfb59593c9606494b56e0247304402204ebbe8e6100f021d1570047f3d9bfee979fd04699f2f13c66b6cfb3644b1f3c902202e7e000d2357e2271114f40f9506a18239d23780f107dcf131f84705be0a617a01210217939e936a503cc102013ec387febbe9f2af25da4e9697c5615b27a285ea60a80247304402202ba2d4e8e36008ee139923450e3979fb76b6ed3cb1008eddb2a4b29f3f391865022052e39de113e750eab807a01d0568fe9ceba613577ec5e1b497467f1da9e2763a0121023b89675130e62d5416e1f7aaebe7e4135cd058087d72114845d13b37ad6115b502483045022100a69a2052cc0e7b3255c244e481fb0ba9bdf1ab1f33aefe26d83c077d03c050ee0220570608b6211117d65b70219be3f5f97c3948391b7b122827d31d99cdf0d9aa4e012103765c7c7ab229f55072790775ca6531712c4a20593fb57e86b612dc0cd7d78ca4024830450221009f96d00ac98439f42626d0ba0480e38c1faa88144d4b11a6ab1bd1c9d662633c02207cad3da1ac979278aa810a16b37c1964944e42abb7991f384f0b10fe686de93f012102eab7bf2718c4b88ac8b734599b598bd567d645bcd7ceb3de04cd99869b09885c0247304402200d06cab46c2ccc9ebb98f54c26c12895b9ca9b5141f5817c088bc32f8530d9c3022017cd92776b623538f7c3f2ea637fde4aeb7d9126d012f77b031554dfcb6f16fb0121020c64017e340a81f5d98bade481d06a13bf168355a5356c20524bca57afaedcfe024730440220605bf59ffc9bcc0286a9db49e6d89ac1390dad893f4e0b8cd70edba81641732202200c6cf16f611ea9f85054d1d1cb34adefecf360f1bac1d45b46f8f3ce7242676401210247668701c31005c400435394dd7dc3ec71185cbfb2f558fb39ae65940c8a974800000000", "vin": [{"txinwitness": ["3044022035a0b347cee0dd0de50b972a8bdb978807b24b3eef2c0c43daed6625b65545da0220479e8eba3e603625970c6c9bf7cf20527f82f8418826ce3f6481aeb085b3f86801", "03afd886559e102c10fe2ec7ed50656e07abdcca72662bc03c38cb117545ab992a"], "sequence": 4294967294, "scriptSig": {"hex": "160014bb9de020ccba2ffc65420006c2ac8da99e09b821", "asm": "0014bb9de020ccba2ffc65420006c2ac8da99e09b821"}, "vout": 1, "txid": "e8dc5a5e792c281cc939c90769ae808f785e0de3afab1ec06455d6c3293a2912"}, {"txinwitness": ["30440220295e6ef55483fa504b51d424638dd318feb5e961f62583bfc9c4d2e5afe5d9a502203f80437680c81e647932eb26aa1edaab05f0739d7d80ea403223c22ce9cf50a601", "027740ff9ba821d3dae24956c20d5b6fecd18147cf7bae983ce1a78d0e18c25cfa"], "sequence": 4294967294, "scriptSig": {"hex": "1600142ea3c90543fa6d16ce5c7944dcfe7926a5d17668", "asm": "00142ea3c90543fa6d16ce5c7944dcfe7926a5d17668"}, "vout": 0, "txid": "aa7e6405a390ef77b5e5ba6539caab6af9c133063bf91981b5d45742c7c8ba16"}, {"txinwitness": ["304402206f02535f92d78e6a60876b667f297a8a5c6d8a648e3b33f70bdcb2781e7064b702207078b321b6023966b145f9775594b0504642effd94058d2bb962b0506def905001", "028708314c0b170d1508b0cf23ae3aec882e060e657cd532b8d36348c36f28d06c"], "sequence": 4294967294, "scriptSig": {"hex": "1600144b5afe20a0873e9aac3598fccd2561cad5b74f7c", "asm": "00144b5afe20a0873e9aac3598fccd2561cad5b74f7c"}, "vout": 0, "txid": "a29998ea6632dda119d31bef370c54ec638ab8e9fb5a3c61d63dad11a4952642"}, {"txinwitness": ["30440220783d0e768abd7730d2e59d787d9ab508e7b1f4bd38844cbd67789451135b856a022005a8e5de86acf4ed88a0b86ad867184cbf91b42fec6db3f05ba0c49c0195ccac01", "02283c65861677129a318847ff420a133a266e8449951ddfb59593c9606494b56e"], "sequence": 4294967294, "scriptSig": {"hex": "16001404735fa1d2c8e25007a68c09866bc88b3b106767", "asm": "001404735fa1d2c8e25007a68c09866bc88b3b106767"}, "vout": 1, "txid": "1c7f0592d0e127cb262952bb583b7c07d46050d14238c5e15d022bd9af214160"}, {"txinwitness": ["304402204ebbe8e6100f021d1570047f3d9bfee979fd04699f2f13c66b6cfb3644b1f3c902202e7e000d2357e2271114f40f9506a18239d23780f107dcf131f84705be0a617a01", "0217939e936a503cc102013ec387febbe9f2af25da4e9697c5615b27a285ea60a8"], "sequence": 4294967294, "scriptSig": {"hex": "160014f3ca31721d3d1474239ac6ab5b195b7fab9cf007", "asm": "0014f3ca31721d3d1474239ac6ab5b195b7fab9cf007"}, "vout": 0, "txid": "83b817c264d86c34f61bd8c66e7ae506cbcd889d3382fe9d4d4c0f221b8c0680"}, {"txinwitness": ["304402202ba2d4e8e36008ee139923450e3979fb76b6ed3cb1008eddb2a4b29f3f391865022052e39de113e750eab807a01d0568fe9ceba613577ec5e1b497467f1da9e2763a01", "023b89675130e62d5416e1f7aaebe7e4135cd058087d72114845d13b37ad6115b5"], "sequence": 4294967294, "scriptSig": {"hex": "1600149495891f66e59dd91f85348647b2ec281cbf446a", "asm": "00149495891f66e59dd91f85348647b2ec281cbf446a"}, "vout": 1, "txid": "1387f39e5aef98e965b239c03c15674cb7fd10d182ca8a96cb2e4593ba399baa"}, {"txinwitness": ["3045022100a69a2052cc0e7b3255c244e481fb0ba9bdf1ab1f33aefe26d83c077d03c050ee0220570608b6211117d65b70219be3f5f97c3948391b7b122827d31d99cdf0d9aa4e01", "03765c7c7ab229f55072790775ca6531712c4a20593fb57e86b612dc0cd7d78ca4"], "sequence": 4294967294, "scriptSig": {"hex": "160014cc3d5ab60777563454b672971f6c3146cd4b42da", "asm": "0014cc3d5ab60777563454b672971f6c3146cd4b42da"}, "vout": 1, "txid": "ed3c2a24633d7efe35fe3495a1d2954df74a3b5f17dabeaafc7535f74adf24bf"}, {"txinwitness": ["30450221009f96d00ac98439f42626d0ba0480e38c1faa88144d4b11a6ab1bd1c9d662633c02207cad3da1ac979278aa810a16b37c1964944e42abb7991f384f0b10fe686de93f01", "02eab7bf2718c4b88ac8b734599b598bd567d645bcd7ceb3de04cd99869b09885c"], "sequence": 4294967294, "scriptSig": {"hex": "160014ed6db3c2f6a7dea05125dc3e6bce360f5ae20ac3", "asm": "0014ed6db3c2f6a7dea05125dc3e6bce360f5ae20ac3"}, "vout": 1, "txid": "ce94647b9dc41020d3e915b34feb2297e5e00528054acf069908da0c047812c4"}, {"txinwitness": ["304402200d06cab46c2ccc9ebb98f54c26c12895b9ca9b5141f5817c088bc32f8530d9c3022017cd92776b623538f7c3f2ea637fde4aeb7d9126d012f77b031554dfcb6f16fb01", "020c64017e340a81f5d98bade481d06a13bf168355a5356c20524bca57afaedcfe"], "sequence": 4294967294, "scriptSig": {"hex": "16001450011e16dc33ee419e92e9c704cd5b940a4301ea", "asm": "001450011e16dc33ee419e92e9c704cd5b940a4301ea"}, "vout": 1, "txid": "ca360c7119f7ed0281c8ebbdee44b57ed71900b78a1afcfbb2bb85791be0ccc9"}, {"txinwitness": ["30440220605bf59ffc9bcc0286a9db49e6d89ac1390dad893f4e0b8cd70edba81641732202200c6cf16f611ea9f85054d1d1cb34adefecf360f1bac1d45b46f8f3ce7242676401", "0247668701c31005c400435394dd7dc3ec71185cbfb2f558fb39ae65940c8a9748"], "sequence": 4294967294, "scriptSig": {"hex": "1600146f56a78775b81ac112cbdfc61b1a759499e227e3", "asm": "00146f56a78775b81ac112cbdfc61b1a759499e227e3"}, "vout": 1, "txid": "45fa51b780467cacb1a1e9a57ab060a581f4e18a47fc790f7ab4e39cc0af99fb"}], "txid": "2d6f04fdf8ad4c090f4bc3ecb72751edbaab69354142ee8f7077785b4743b1d6", "blocktime": 1537873282, "version": 2, "confirmations": 11485, "time": 1537873282, "locktime": 0, "vsize": 983, "size": 1788}