{"hash": "2d6fe50d51639e6af6ce3523fe50a7f3b5c30e2f52633523334de7fe11da44a0", "blockhash": "00000000000000000017f5eb5941039fbcee6240d03bc1f2f8e35350df66a1d8", "vout": [{"scriptPubKey": {"reqSigs": 1, "hex": "76a914700cb0d321abb1a160f00ac16ee1868101a7189188ac", "addresses": ["1BDTtFc4nKGLMQxH6JthoWwf6r1sM4ou18"], "asm": "OP_DUP OP_HASH160 700cb0d321abb1a160f00ac16ee1868101a71891 OP_EQUALVERIFY OP_CHECKSIG", "type": "pubkeyhash"}, "value": 0.04408915, "n": 0}, {"scriptPubKey": {"reqSigs": 1, "hex": "76a91432b6cac9358456cb8da1308e2e5daf6afce442a988ac", "addresses": ["15d9mDGgZ7w3nqC9fEJyo478sXG7KL4JNe"], "asm": "OP_DUP OP_HASH160 32b6cac9358456cb8da1308e2e5daf6afce442a9 OP_EQUALVERIFY OP_CHECKSIG", "type": "pubkeyhash"}, "value": 0.00149017, "n": 1}], "hex": "01000000015277a37e49a186511edf277fad55e3971acbd873984aa9daa42799a4dbfd8db800000000da004730440220747d99072599606eb3e5ef0bb3ee5799888e38b7a01b44efdf0753830cd1a33a022028a9f2c8e94bd7bfbaa68b89212feb1dbf371d1de482ac2c826dc66ed7877cd901483045022100a95bf5460686ed4a0cb1641a50af719009e7d51ff1262130c83d1f1d3cf19f38022072a5915bd39f421fefd496f96e999a280446e2df224b9945a9abd5d013f3582b0147522102907a54bed8ad74b3f35638c60114ca240a308cb986f3f2f306178869a8880b6121029f1668fdc6261d64633bfe84e7546cf31515c32250945eecffe95da8ad6a278452aeffffffff0253464300000000001976a914700cb0d321abb1a160f00ac16ee1868101a7189188ac19460200000000001976a91432b6cac9358456cb8da1308e2e5daf6afce442a988ac00000000", "vin": [{"sequence": 4294967295, "scriptSig": {"hex": "004730440220747d99072599606eb3e5ef0bb3ee5799888e38b7a01b44efdf0753830cd1a33a022028a9f2c8e94bd7bfbaa68b89212feb1dbf371d1de482ac2c826dc66ed7877cd901483045022100a95bf5460686ed4a0cb1641a50af719009e7d51ff1262130c83d1f1d3cf19f38022072a5915bd39f421fefd496f96e999a280446e2df224b9945a9abd5d013f3582b0147522102907a54bed8ad74b3f35638c60114ca240a308cb986f3f2f306178869a8880b6121029f1668fdc6261d64633bfe84e7546cf31515c32250945eecffe95da8ad6a278452ae", "asm": "0 30440220747d99072599606eb3e5ef0bb3ee5799888e38b7a01b44efdf0753830cd1a33a022028a9f2c8e94bd7bfbaa68b89212feb1dbf371d1de482ac2c826dc66ed7877cd9[ALL] 3045022100a95bf5460686ed4a0cb1641a50af719009e7d51ff1262130c83d1f1d3cf19f38022072a5915bd39f421fefd496f96e999a280446e2df224b9945a9abd5d013f3582b[ALL] 522102907a54bed8ad74b3f35638c60114ca240a308cb986f3f2f306178869a8880b6121029f1668fdc6261d64633bfe84e7546cf31515c32250945eecffe95da8ad6a278452ae"}, "vout": 0, "txid": "b88dfddba49927a4daa94a9873d8cb1a97e355ad7f27df1e5186a1497ea37752"}], "txid": "2d6fe50d51639e6af6ce3523fe50a7f3b5c30e2f52633523334de7fe11da44a0", "blocktime": 1537874412, "version": 1, "confirmations": 11467, "time": 1537874412, "locktime": 0, "vsize": 337, "size": 337}