{"hash": "2d7a358c6d355ebb9ea2a99b1e5d454ec6895072cfa7e68a31abb2505762ea83", "blockhash": "0000000000000000000e13cef7c366c0283d82e591d1acd082e914b08063cdf1", "vout": [{"scriptPubKey": {"reqSigs": 1, "hex": "76a9141544d3254a0712bf7e9da80b5604e722aaa2dd5c88ac", "addresses": ["12wTe4Pt1tp2H7M5EgpWc1Tp7zhBrnawJc"], "asm": "OP_DUP OP_HASH160 1544d3254a0712bf7e9da80b5604e722aaa2dd5c OP_EQUALVERIFY OP_CHECKSIG", "type": "pubkeyhash"}, "value": 0.02031103, "n": 0}, {"scriptPubKey": {"reqSigs": 1, "hex": "a914a8450e93604c25668dc6ce5d42bb5156b4da05ab87", "addresses": ["3H2kAvyCJc1Qj7n8vzF6hMLeD3ue9i8Mfc"], "asm": "OP_HASH160 a8450e93604c25668dc6ce5d42bb5156b4da05ab OP_EQUAL", "type": "scripthash"}, "value": 0.15626464, "n": 1}], "hex": "0100000007db37fe82db16532e0ae86d0c8a9fdf37b32a4ba93dd8c48685455eb559e3a81d010000006a47304402203642a39a5fda491f77c5d3d61f92b198c8dbd5a8db684bf721a3d804295b5b46022010be8c49447aec5aa53e8b0f87404ad04ccf448d5bda6995936a39e9876520a7012102dfc309e8f006c6d6c4ed0f013d9debe5834fc0eccda45cc6df288deeb3d16169ffffffffaf2dc484d71f296ef1e1d3b1d8d10e9dfc4e487d33e18b7e401e05184480723b000000006a47304402203a8135755f20bab44443f35435ba8ba8e2e0071233577b0d44a12eb4e204538b0220167b42da0606260166054d48b49417d77b42b30753c907cf371e403020ec7c7e0121031f172a6df2f0057b32756ee899c46d3defea71f286be1e9ffb0142f59b6e00d1ffffffff30e0fa3ca94545dca027b7e81636cc76aecf39ceed02e33e6a49bdb73f0b004c000000006b483045022100f8d25755bfa83111f033de59e22ce621cc663bb6abab8aa8c9a278ecfef45b0502202f4539d9390049021bab9f83dfe500c4afb4575cb8bb60c426981929bc7025c5012102d07d67e371f47915229b9e2571a6e423b059c1c1a785d8d63c250a0d46d154ddffffffff4b187ca97be0ba97c11f8a7742331eb88d905fa0a307d35fe7a37e8441d53196010000006b483045022100d04d64c92ee27c39ae223895e9a9421c4e354c4b67ea57975a380950c9eea51d02201d21e82f62074da56b4256c0ccd140e31f3943336348a37ade502f6bc2edd5cf0121032b709a8bd47e1ece53e68be79154c55cb6775b563d502d1d4aa3bd906548140effffffffd80ff63393fb039137a527576ed02bd28fd90635261cf012ebd0618283be67da000000006a4730440220548b04dd8975d2dc11803e245de0795c84de1949bed790ff83b23db99eff6214022010ad81251762dcdd66d7d1019f38a1471eaadf1ef7398e93a939942a276410c8012102f888cdd4449877eac73ae07213e8f6149b0c54a24faa762b4fa35be2d3e6b09affffffff6588d313e4451cddafeb3ac7aaeadf232163e8a9c6d13ab82f2a2eb555b86ceb010000006b483045022100a178d81ec56b9724c85561ffc61df1daa48b4f0934ffc91ad9441a8902e1a9ce0220256568a3c9563a1bbf8241a70cbc1d19c1d065e65eb324156b99e00fa59b2e8d012102934da78d4836861014bcc1230d7c2207bf392f4bdebe4cb836480a3984c601bdffffffffcae0fcd08411e43ed3dcca9de082adc047005e01e53db5608b16b049426588ec010000006b483045022100eeb9b9f82c4f7921243f8e4b72dc5cebf2c51c0bedbdd1890fdea0d15267cb0b02200c4d24a61d95affc82d246f1b314dfe21c9e737936d1bbda0487c3fcd8c802de012102f888cdd4449877eac73ae07213e8f6149b0c54a24faa762b4fa35be2d3e6b09affffffff02fffd1e00000000001976a9141544d3254a0712bf7e9da80b5604e722aaa2dd5c88ace070ee000000000017a914a8450e93604c25668dc6ce5d42bb5156b4da05ab8700000000", "vin": [{"sequence": 4294967295, "scriptSig": {"hex": "47304402203642a39a5fda491f77c5d3d61f92b198c8dbd5a8db684bf721a3d804295b5b46022010be8c49447aec5aa53e8b0f87404ad04ccf448d5bda6995936a39e9876520a7012102dfc309e8f006c6d6c4ed0f013d9debe5834fc0eccda45cc6df288deeb3d16169", "asm": "304402203642a39a5fda491f77c5d3d61f92b198c8dbd5a8db684bf721a3d804295b5b46022010be8c49447aec5aa53e8b0f87404ad04ccf448d5bda6995936a39e9876520a7[ALL] 02dfc309e8f006c6d6c4ed0f013d9debe5834fc0eccda45cc6df288deeb3d16169"}, "vout": 1, "txid": "1da8e359b55e458586c4d83da94b2ab337df9f8a0c6de80a2e5316db82fe37db"}, {"sequence": 4294967295, "scriptSig": {"hex": "47304402203a8135755f20bab44443f35435ba8ba8e2e0071233577b0d44a12eb4e204538b0220167b42da0606260166054d48b49417d77b42b30753c907cf371e403020ec7c7e0121031f172a6df2f0057b32756ee899c46d3defea71f286be1e9ffb0142f59b6e00d1", "asm": "304402203a8135755f20bab44443f35435ba8ba8e2e0071233577b0d44a12eb4e204538b0220167b42da0606260166054d48b49417d77b42b30753c907cf371e403020ec7c7e[ALL] 031f172a6df2f0057b32756ee899c46d3defea71f286be1e9ffb0142f59b6e00d1"}, "vout": 0, "txid": "3b72804418051e407e8be1337d484efc9d0ed1d8b1d3e1f16e291fd784c42daf"}, {"sequence": 4294967295, "scriptSig": {"hex": "483045022100f8d25755bfa83111f033de59e22ce621cc663bb6abab8aa8c9a278ecfef45b0502202f4539d9390049021bab9f83dfe500c4afb4575cb8bb60c426981929bc7025c5012102d07d67e371f47915229b9e2571a6e423b059c1c1a785d8d63c250a0d46d154dd", "asm": "3045022100f8d25755bfa83111f033de59e22ce621cc663bb6abab8aa8c9a278ecfef45b0502202f4539d9390049021bab9f83dfe500c4afb4575cb8bb60c426981929bc7025c5[ALL] 02d07d67e371f47915229b9e2571a6e423b059c1c1a785d8d63c250a0d46d154dd"}, "vout": 0, "txid": "4c000b3fb7bd496a3ee302edce39cfae76cc3616e8b727a0dc4545a93cfae030"}, {"sequence": 4294967295, "scriptSig": {"hex": "483045022100d04d64c92ee27c39ae223895e9a9421c4e354c4b67ea57975a380950c9eea51d02201d21e82f62074da56b4256c0ccd140e31f3943336348a37ade502f6bc2edd5cf0121032b709a8bd47e1ece53e68be79154c55cb6775b563d502d1d4aa3bd906548140e", "asm": "3045022100d04d64c92ee27c39ae223895e9a9421c4e354c4b67ea57975a380950c9eea51d02201d21e82f62074da56b4256c0ccd140e31f3943336348a37ade502f6bc2edd5cf[ALL] 032b709a8bd47e1ece53e68be79154c55cb6775b563d502d1d4aa3bd906548140e"}, "vout": 1, "txid": "9631d541847ea3e75fd307a3a05f908db81e3342778a1fc197bae07ba97c184b"}, {"sequence": 4294967295, "scriptSig": {"hex": "4730440220548b04dd8975d2dc11803e245de0795c84de1949bed790ff83b23db99eff6214022010ad81251762dcdd66d7d1019f38a1471eaadf1ef7398e93a939942a276410c8012102f888cdd4449877eac73ae07213e8f6149b0c54a24faa762b4fa35be2d3e6b09a", "asm": "30440220548b04dd8975d2dc11803e245de0795c84de1949bed790ff83b23db99eff6214022010ad81251762dcdd66d7d1019f38a1471eaadf1ef7398e93a939942a276410c8[ALL] 02f888cdd4449877eac73ae07213e8f6149b0c54a24faa762b4fa35be2d3e6b09a"}, "vout": 0, "txid": "da67be838261d0eb12f01c263506d98fd22bd06e5727a5379103fb9333f60fd8"}, {"sequence": 4294967295, "scriptSig": {"hex": "483045022100a178d81ec56b9724c85561ffc61df1daa48b4f0934ffc91ad9441a8902e1a9ce0220256568a3c9563a1bbf8241a70cbc1d19c1d065e65eb324156b99e00fa59b2e8d012102934da78d4836861014bcc1230d7c2207bf392f4bdebe4cb836480a3984c601bd", "asm": "3045022100a178d81ec56b9724c85561ffc61df1daa48b4f0934ffc91ad9441a8902e1a9ce0220256568a3c9563a1bbf8241a70cbc1d19c1d065e65eb324156b99e00fa59b2e8d[ALL] 02934da78d4836861014bcc1230d7c2207bf392f4bdebe4cb836480a3984c601bd"}, "vout": 1, "txid": "eb6cb855b52e2a2fb83ad1c6a9e8632123dfeaaac73aebafdd1c45e413d38865"}, {"sequence": 4294967295, "scriptSig": {"hex": "483045022100eeb9b9f82c4f7921243f8e4b72dc5cebf2c51c0bedbdd1890fdea0d15267cb0b02200c4d24a61d95affc82d246f1b314dfe21c9e737936d1bbda0487c3fcd8c802de012102f888cdd4449877eac73ae07213e8f6149b0c54a24faa762b4fa35be2d3e6b09a", "asm": "3045022100eeb9b9f82c4f7921243f8e4b72dc5cebf2c51c0bedbdd1890fdea0d15267cb0b02200c4d24a61d95affc82d246f1b314dfe21c9e737936d1bbda0487c3fcd8c802de[ALL] 02f888cdd4449877eac73ae07213e8f6149b0c54a24faa762b4fa35be2d3e6b09a"}, "vout": 1, "txid": "ec88654249b0168b60b53de5015e0047c0ad82e09dcadcd33ee41184d0fce0ca"}], "txid": "2d7a358c6d355ebb9ea2a99b1e5d454ec6895072cfa7e68a31abb2505762ea83", "blocktime": 1537871767, "version": 1, "confirmations": 11491, "time": 1537871767, "locktime": 0, "vsize": 1109, "size": 1109}