{"hash": "2d7b6292baf7b132d587d88cc8a1a8eaf4128b0382a33fe360d76eed25cbeafd", "blockhash": "00000000000000000017f5eb5941039fbcee6240d03bc1f2f8e35350df66a1d8", "vout": [{"scriptPubKey": {"reqSigs": 1, "hex": "a9142c1af6acca11130381b3031125bf41c9b1bb086187", "addresses": ["35iDxSqUfTx4yq6HUwKD8byjkjYGPsiuK9"], "asm": "OP_HASH160 2c1af6acca11130381b3031125bf41c9b1bb0861 OP_EQUAL", "type": "scripthash"}, "value": 0.02466211, "n": 0}, {"scriptPubKey": {"reqSigs": 1, "hex": "76a9149b39495996b3f3d4564b7da158300dd3ba26d1f888ac", "addresses": ["1F9kN58HcB2TtfnheUAGvpyVKkdp3p7UZp"], "asm": "OP_DUP OP_HASH160 9b39495996b3f3d4564b7da158300dd3ba26d1f8 OP_EQUALVERIFY OP_CHECKSIG", "type": "pubkeyhash"}, "value": 0.00011754, "n": 1}], "hex": "0100000003a3f024d1fece9a094aa23d21544c2e5915631a19d26867d572c7d8445c9bc4342f000000da0047304402201dbe62b44577d127c0e6b5c56b7deacad4b43194fff1a1d07204f73fe08cf73e022064c97222d2ea5a23a0f58fd13ebdbd46e4cd7bc07175dc0ed2115e5e83d35f0201483045022100cd5d37858fc3254881b6337e3ea1d10953c9f31a931d6d2c80544e7244ebf44802201e6e4cff9bab769e8f7c44ea170ef9ddace8b3effff2d991328ffb2b1b03be80014752210281c07a6cbc4d5018d2d8779f0c9ee8d01b536ca73cecc88b48ded89e932653f42102907a54bed8ad74b3f35638c60114ca240a308cb986f3f2f306178869a8880b6152aeffffffff300b6cb26f3f25a7882749b292a149af7e1141340c57d76e4cfced3aa3cfd7fe2a000000d900473044022035dba7d3caefff25582e280612a9febb2d6b43439c99c517cbcedc9ab76d1c5902202a38fe11fa5f85f62ce0bfa74758947e37925273d15de28183fbaf3574829a4701473044022029025f75ccaaffd01f6dc43ace2ea6c3a79770694c82c704e89cdf4aacc371f702202ecc642ab3fef81a5c955fc51d72741e3e4eee4962897f0370a8166412be0b7f0147522102907a54bed8ad74b3f35638c60114ca240a308cb986f3f2f306178869a8880b61210396a3216442c2af549c05f79a60e4d90256168412bb7005c8aa21ebe2c55a6fd852aeffffffff5e9c67ac6fdfb41cd301c5afcb64688ef9b65fd3bedb49aabb3cc26b16ad9537010000006a473044022037d8d4c7681307a72152290d35f7d033c407a183f469103945f4e7502d4600d402207ef083ef8bfe2861e03a870491c333a416776d18dd4631e5a462f95382235fd90121023aee69006b5dcc13c2904697aea34fb5b6288c406839788831ae2166934a3030ffffffff02a3a125000000000017a9142c1af6acca11130381b3031125bf41c9b1bb086187ea2d0000000000001976a9149b39495996b3f3d4564b7da158300dd3ba26d1f888ac00000000", "vin": [{"sequence": 4294967295, "scriptSig": {"hex": "0047304402201dbe62b44577d127c0e6b5c56b7deacad4b43194fff1a1d07204f73fe08cf73e022064c97222d2ea5a23a0f58fd13ebdbd46e4cd7bc07175dc0ed2115e5e83d35f0201483045022100cd5d37858fc3254881b6337e3ea1d10953c9f31a931d6d2c80544e7244ebf44802201e6e4cff9bab769e8f7c44ea170ef9ddace8b3effff2d991328ffb2b1b03be80014752210281c07a6cbc4d5018d2d8779f0c9ee8d01b536ca73cecc88b48ded89e932653f42102907a54bed8ad74b3f35638c60114ca240a308cb986f3f2f306178869a8880b6152ae", "asm": "0 304402201dbe62b44577d127c0e6b5c56b7deacad4b43194fff1a1d07204f73fe08cf73e022064c97222d2ea5a23a0f58fd13ebdbd46e4cd7bc07175dc0ed2115e5e83d35f02[ALL] 3045022100cd5d37858fc3254881b6337e3ea1d10953c9f31a931d6d2c80544e7244ebf44802201e6e4cff9bab769e8f7c44ea170ef9ddace8b3effff2d991328ffb2b1b03be80[ALL] 52210281c07a6cbc4d5018d2d8779f0c9ee8d01b536ca73cecc88b48ded89e932653f42102907a54bed8ad74b3f35638c60114ca240a308cb986f3f2f306178869a8880b6152ae"}, "vout": 47, "txid": "34c49b5c44d8c772d56768d2191a6315592e4c54213da24a099acefed124f0a3"}, {"sequence": 4294967295, "scriptSig": {"hex": "00473044022035dba7d3caefff25582e280612a9febb2d6b43439c99c517cbcedc9ab76d1c5902202a38fe11fa5f85f62ce0bfa74758947e37925273d15de28183fbaf3574829a4701473044022029025f75ccaaffd01f6dc43ace2ea6c3a79770694c82c704e89cdf4aacc371f702202ecc642ab3fef81a5c955fc51d72741e3e4eee4962897f0370a8166412be0b7f0147522102907a54bed8ad74b3f35638c60114ca240a308cb986f3f2f306178869a8880b61210396a3216442c2af549c05f79a60e4d90256168412bb7005c8aa21ebe2c55a6fd852ae", "asm": "0 3044022035dba7d3caefff25582e280612a9febb2d6b43439c99c517cbcedc9ab76d1c5902202a38fe11fa5f85f62ce0bfa74758947e37925273d15de28183fbaf3574829a47[ALL] 3044022029025f75ccaaffd01f6dc43ace2ea6c3a79770694c82c704e89cdf4aacc371f702202ecc642ab3fef81a5c955fc51d72741e3e4eee4962897f0370a8166412be0b7f[ALL] 522102907a54bed8ad74b3f35638c60114ca240a308cb986f3f2f306178869a8880b61210396a3216442c2af549c05f79a60e4d90256168412bb7005c8aa21ebe2c55a6fd852ae"}, "vout": 42, "txid": "fed7cfa33aedfc4c6ed7570c3441117eaf49a192b2492788a7253f6fb26c0b30"}, {"sequence": 4294967295, "scriptSig": {"hex": "473044022037d8d4c7681307a72152290d35f7d033c407a183f469103945f4e7502d4600d402207ef083ef8bfe2861e03a870491c333a416776d18dd4631e5a462f95382235fd90121023aee69006b5dcc13c2904697aea34fb5b6288c406839788831ae2166934a3030", "asm": "3044022037d8d4c7681307a72152290d35f7d033c407a183f469103945f4e7502d4600d402207ef083ef8bfe2861e03a870491c333a416776d18dd4631e5a462f95382235fd9[ALL] 023aee69006b5dcc13c2904697aea34fb5b6288c406839788831ae2166934a3030"}, "vout": 1, "txid": "3795ad166bc23cbbaa49dbbed35fb6f98e6864cbafc501d31cb4df6fac679c5e"}], "txid": "2d7b6292baf7b132d587d88cc8a1a8eaf4128b0382a33fe360d76eed25cbeafd", "blocktime": 1537874412, "version": 1, "confirmations": 11467, "time": 1537874412, "locktime": 0, "vsize": 740, "size": 740}