{"hash": "248d722799748c81b55ce4ca6d8c41c34ff7370537a32e4d844761d54ad45eb2", "blockhash": "0000000000000000001cda96e906b7601b7a6fb1a3b62bca570a9e5d8f4b3de1", "vout": [{"scriptPubKey": {"reqSigs": 1, "hex": "a914f379077d295836cce35788aaf9f42e75e2f1732187", "addresses": ["3PtP7RE7WHajTf1zihakRjcsyf4ViCirXV"], "asm": "OP_HASH160 f379077d295836cce35788aaf9f42e75e2f17321 OP_EQUAL", "type": "scripthash"}, "value": 0.0011, "n": 0}, {"scriptPubKey": {"reqSigs": 1, "hex": "a9148d827e4e448fb0452c7483b7ed66f523818b1af487", "addresses": ["3EbFXRx1J5StC8bFezXKxCk8PupN9tinuU"], "asm": "OP_HASH160 8d827e4e448fb0452c7483b7ed66f523818b1af4 OP_EQUAL", "type": "scripthash"}, "value": 0.00872751, "n": 1}, {"scriptPubKey": {"reqSigs": 1, "hex": "a9141988a27e3c2df4ddee7fad5a2303d086179b2a3087", "addresses": ["3422VtS7UtCvXYxoXMVp6eZupR252z85oC"], "asm": "OP_HASH160 1988a27e3c2df4ddee7fad5a2303d086179b2a30 OP_EQUAL", "type": "scripthash"}, "value": 0.15450712, "n": 2}], "hex": "010000000001015ba3d857aca363b7c78f6c4853f03056e28302c9b0fe75989ca57d1bea210eef000000002322002065d416c48a8072e0ac51c2d111eb194f009caef0332446c1bf2097316cf07fa9ffffffff03b0ad01000000000017a914f379077d295836cce35788aaf9f42e75e2f17321872f510d000000000017a9148d827e4e448fb0452c7483b7ed66f523818b1af48758c2eb000000000017a9141988a27e3c2df4ddee7fad5a2303d086179b2a30870400483045022100acb7d746b28f85da1e30fb2b5749a67664144db8bd1493f3704afea38699d67702201b22ef5304d4eeab8caf4a095853a86ed8a0244282e5835e98dcb761ad87d40f01483045022100b960123e342ac72ac8dd68ccaa431db9eeff0d759432ffc8ad0c1bca53cb62990220174538af96ebe44857ad5fa03d05da7cc3b5d0277f4fb2502a84594efa892dab0169522102f44abcf9e23c9a460da309ccca56c619c04eed3bde2c2cff5e7d78fbcd980b9c2103c9443cf3047bb6c2c82f1b0c44c36109cdc3d0d601d16d1189a1602bf8d1a0a02103bfe867059274412412e088af5572b92168c2ef495cfe6c9b7a753a009eb37c4853ae00000000", "vin": [{"txinwitness": ["", "3045022100acb7d746b28f85da1e30fb2b5749a67664144db8bd1493f3704afea38699d67702201b22ef5304d4eeab8caf4a095853a86ed8a0244282e5835e98dcb761ad87d40f01", "3045022100b960123e342ac72ac8dd68ccaa431db9eeff0d759432ffc8ad0c1bca53cb62990220174538af96ebe44857ad5fa03d05da7cc3b5d0277f4fb2502a84594efa892dab01", "522102f44abcf9e23c9a460da309ccca56c619c04eed3bde2c2cff5e7d78fbcd980b9c2103c9443cf3047bb6c2c82f1b0c44c36109cdc3d0d601d16d1189a1602bf8d1a0a02103bfe867059274412412e088af5572b92168c2ef495cfe6c9b7a753a009eb37c4853ae"], "sequence": 4294967295, "scriptSig": {"hex": "22002065d416c48a8072e0ac51c2d111eb194f009caef0332446c1bf2097316cf07fa9", "asm": "002065d416c48a8072e0ac51c2d111eb194f009caef0332446c1bf2097316cf07fa9"}, "vout": 0, "txid": "ef0e21ea1b7da59c9875feb0c90283e25630f053486c8fc7b763a3ac57d8a35b"}], "txid": "2d82b477721c22a2ec0af5c7fe018212f6ac9a6c3c287c35a3a78998d1daed0d", "blocktime": 1537873282, "version": 1, "confirmations": 11482, "time": 1537873282, "locktime": 0, "vsize": 246, "size": 438}