{"hash": "2d9125d9afcd5ca8fd024eed68ae63acd74be5c5728aab48c4e9d53fb272e320", "blockhash": "00000000000000000018f53835495a110e01622372bf6ae95dc86f2b0ab887b0", "vout": [{"scriptPubKey": {"reqSigs": 1, "hex": "a9146bc2f04faa932b1ea8404711f53cdcbe32ee434787", "addresses": ["3BWokebZbtvuZ1dcArivs3G8gasX2M6yjY"], "asm": "OP_HASH160 6bc2f04faa932b1ea8404711f53cdcbe32ee4347 OP_EQUAL", "type": "scripthash"}, "value": 0.01981632, "n": 0}, {"scriptPubKey": {"reqSigs": 1, "hex": "76a914194636552c46b434fb7c8d691cf7619dc8611c2988ac", "addresses": ["13Je1ECP9bmmwXGs4fnoLBTV4taayQe225"], "asm": "OP_DUP OP_HASH160 194636552c46b434fb7c8d691cf7619dc8611c29 OP_EQUALVERIFY OP_CHECKSIG", "type": "pubkeyhash"}, "value": 0.36025707, "n": 1}], "hex": "0200000001deb5839bef070ab89a5aabc7e8a04efe33e16928fce7d527d5b5afc907190d2c010000006b483045022100820be388d8253912dfad0dbc8c5a01170c2eba2f7d92ceef866cbd1b6bc21c7102203fb6da21c485bd0159c2a43ab85d37d8f39277054aa25afc79f34b92da69961401210227931848148f75c2338968c231c9108019afb144097672dd39d23b038884bf42ffffffff02c03c1e000000000017a9146bc2f04faa932b1ea8404711f53cdcbe32ee4347876bb52502000000001976a914194636552c46b434fb7c8d691cf7619dc8611c2988ac00000000", "vin": [{"sequence": 4294967295, "scriptSig": {"hex": "483045022100820be388d8253912dfad0dbc8c5a01170c2eba2f7d92ceef866cbd1b6bc21c7102203fb6da21c485bd0159c2a43ab85d37d8f39277054aa25afc79f34b92da69961401210227931848148f75c2338968c231c9108019afb144097672dd39d23b038884bf42", "asm": "3045022100820be388d8253912dfad0dbc8c5a01170c2eba2f7d92ceef866cbd1b6bc21c7102203fb6da21c485bd0159c2a43ab85d37d8f39277054aa25afc79f34b92da699614[ALL] 0227931848148f75c2338968c231c9108019afb144097672dd39d23b038884bf42"}, "vout": 1, "txid": "2c0d1907c9afb5d527d5e7fc2869e133fe4ea0e8c7ab5a9ab80a07ef9b83b5de"}], "txid": "2d9125d9afcd5ca8fd024eed68ae63acd74be5c5728aab48c4e9d53fb272e320", "blocktime": 1537870928, "version": 2, "confirmations": 11512, "time": 1537870928, "locktime": 0, "vsize": 224, "size": 224}