{"hash": "2d9c24df6fbe103314ce540770e49d7f3e38c330dcacd782a468adc182b01712", "blockhash": "0000000000000000001f0ddff1eddb255c1121bcd4da4f1bc9a0da00cae72433", "vout": [{"scriptPubKey": {"reqSigs": 1, "hex": "a91462899abd7e4a490e27874e41d4f6b7b4cd5d00bf87", "addresses": ["3Ag2zGWWRdofGRPPUeVPU35vESxp98LoMb"], "asm": "OP_HASH160 62899abd7e4a490e27874e41d4f6b7b4cd5d00bf OP_EQUAL", "type": "scripthash"}, "value": 0.06552174, "n": 0}, {"scriptPubKey": {"reqSigs": 1, "hex": "76a914da95872ad901227f314734599940bd246a6ec09488ac", "addresses": ["1LvmSCyTs4TK7sxcP2vi9nywYuCFwbfNiW"], "asm": "OP_DUP OP_HASH160 da95872ad901227f314734599940bd246a6ec094 OP_EQUALVERIFY OP_CHECKSIG", "type": "pubkeyhash"}, "value": 0.32723247, "n": 1}], "hex": "010000000171f92c654cdcdd22fc08b0ec6322431cac606975419b65e7c7a756cb4e9c4c32010000006a47304402200a660310101360a8c254d5d52fec949b91bff547b741b04c2babcd88280b5a16022000c9da220db220c012337ecb72e6a495444e24fc540c2026953ec95478952b2d01210201de93a0bd3c19fb0a9ce3f2eabf775fa391219271ec6ff2c8f7a685ad22ba76fdffffff026efa63000000000017a91462899abd7e4a490e27874e41d4f6b7b4cd5d00bf872f51f301000000001976a914da95872ad901227f314734599940bd246a6ec09488ac10490800", "vin": [{"sequence": 4294967293, "scriptSig": {"hex": "47304402200a660310101360a8c254d5d52fec949b91bff547b741b04c2babcd88280b5a16022000c9da220db220c012337ecb72e6a495444e24fc540c2026953ec95478952b2d01210201de93a0bd3c19fb0a9ce3f2eabf775fa391219271ec6ff2c8f7a685ad22ba76", "asm": "304402200a660310101360a8c254d5d52fec949b91bff547b741b04c2babcd88280b5a16022000c9da220db220c012337ecb72e6a495444e24fc540c2026953ec95478952b2d[ALL] 0201de93a0bd3c19fb0a9ce3f2eabf775fa391219271ec6ff2c8f7a685ad22ba76"}, "vout": 1, "txid": "324c9c4ecb56a7c7e7659b41756960ac1c432263ecb008fc22dddc4c652cf971"}], "txid": "2d9c24df6fbe103314ce540770e49d7f3e38c330dcacd782a468adc182b01712", "blocktime": 1537872018, "version": 1, "confirmations": 11489, "time": 1537872018, "locktime": 542992, "vsize": 223, "size": 223}