{"hash": "2d9c10855cc6423e82d4ddb9251bd32bef5b2dbc678ab22bd33dc0d3a5b42447", "blockhash": "0000000000000000001f76057863aec43deb6fa401d9628bb513d65a8098bfab", "vout": [{"scriptPubKey": {"reqSigs": 1, "hex": "76a9147a74fc3924cd9d6f07d00e5a0979ebfe88e6619f88ac", "addresses": ["1CAVagV6r7LdzYyFd7hHcVmXUqDwbCSg3X"], "asm": "OP_DUP OP_HASH160 7a74fc3924cd9d6f07d00e5a0979ebfe88e6619f OP_EQUALVERIFY OP_CHECKSIG", "type": "pubkeyhash"}, "value": 0.0001018, "n": 0}, {"scriptPubKey": {"reqSigs": 1, "hex": "a9144da4883d3bbe86c0b8066bfdc6985df99ea88fad87", "addresses": ["38mZ4DCzm1351WWAc4AjjzEeUdR8znyHti"], "asm": "OP_HASH160 4da4883d3bbe86c0b8066bfdc6985df99ea88fad OP_EQUAL", "type": "scripthash"}, "value": 0.00296628, "n": 1}], "hex": "0100000001ae056603a7581ac2c0bdcf174a1ce444c0dc5259b5ba3e8e4eb65b6631329c6b010000006a47304402204b8243a13e3fead05cf10c77cafb5c9e162eb535f4caee430cb3b451de2b3e9a0220695812817b82ba4329bd52544dfaeb88dd1dad7c6f17f3ab5ec6360b3141b49c012103d270f9bc72e8ef602e1f162aeea2c0f9634a59603df3e038c6a65a702ec6daaaffffffff02c4270000000000001976a9147a74fc3924cd9d6f07d00e5a0979ebfe88e6619f88acb48604000000000017a9144da4883d3bbe86c0b8066bfdc6985df99ea88fad8700000000", "vin": [{"sequence": 4294967295, "scriptSig": {"hex": "47304402204b8243a13e3fead05cf10c77cafb5c9e162eb535f4caee430cb3b451de2b3e9a0220695812817b82ba4329bd52544dfaeb88dd1dad7c6f17f3ab5ec6360b3141b49c012103d270f9bc72e8ef602e1f162aeea2c0f9634a59603df3e038c6a65a702ec6daaa", "asm": "304402204b8243a13e3fead05cf10c77cafb5c9e162eb535f4caee430cb3b451de2b3e9a0220695812817b82ba4329bd52544dfaeb88dd1dad7c6f17f3ab5ec6360b3141b49c[ALL] 03d270f9bc72e8ef602e1f162aeea2c0f9634a59603df3e038c6a65a702ec6daaa"}, "vout": 1, "txid": "6b9c3231665bb64e8e3ebab55952dcc044e41c4a17cfbdc0c21a58a7036605ae"}], "txid": "2d9c10855cc6423e82d4ddb9251bd32bef5b2dbc678ab22bd33dc0d3a5b42447", "blocktime": 1537873891, "version": 1, "confirmations": 11475, "time": 1537873891, "locktime": 0, "vsize": 223, "size": 223}