{"hash": "2d9ef8a52eb0c5e0a3e69d7c515c631b2c06dc31a7cd4406476580ab80019383", "blockhash": "0000000000000000000dcc0f55137456b1a82d3642486a52398922ac4d620174", "vout": [{"scriptPubKey": {"type": "nulldata", "hex": "6a146f6d6e69000000000000001f0000012eae09c800", "asm": "OP_RETURN 6f6d6e69000000000000001f0000012eae09c800"}, "value": 0.0, "n": 0}, {"scriptPubKey": {"reqSigs": 1, "hex": "76a914a25dec4d0011064ef106a983c39c7a540699f22088ac", "addresses": ["1FoWyxwPXuj4C6abqwhjDWdz6D4PZgYRjA"], "asm": "OP_DUP OP_HASH160 a25dec4d0011064ef106a983c39c7a540699f220 OP_EQUALVERIFY OP_CHECKSIG", "type": "pubkeyhash"}, "value": 0.0198558, "n": 1}, {"scriptPubKey": {"reqSigs": 1, "hex": "76a914fa556fd88168e9c5693fd5687e23943c7a0dc96988ac", "addresses": ["1PpeHDc1UBfVcvghdgmraKkchozPW7hSs4"], "asm": "OP_DUP OP_HASH160 fa556fd88168e9c5693fd5687e23943c7a0dc969 OP_EQUALVERIFY OP_CHECKSIG", "type": "pubkeyhash"}, "value": 5.46e-06, "n": 2}], "hex": "01000000018db716f3f43f7d5f01cd19afb4b262f747917c88077331d1e53c71ab2363ef85010000006b48304502210098975423a0c26020dcbea9acb8e49e06e90f1bc63301c1dbf59eb18243be175602201c3fbac2d9f4ec358701830f590c0bfc328111262446b5fe812f5a96268cdce4012103da5bac7b36d5aa38f531c6b9601e21bb598a4b6716ebed38b009a55dabde9440feffffff030000000000000000166a146f6d6e69000000000000001f0000012eae09c8002c4c1e00000000001976a914a25dec4d0011064ef106a983c39c7a540699f22088ac22020000000000001976a914fa556fd88168e9c5693fd5687e23943c7a0dc96988ac04490800", "vin": [{"sequence": 4294967294, "scriptSig": {"hex": "48304502210098975423a0c26020dcbea9acb8e49e06e90f1bc63301c1dbf59eb18243be175602201c3fbac2d9f4ec358701830f590c0bfc328111262446b5fe812f5a96268cdce4012103da5bac7b36d5aa38f531c6b9601e21bb598a4b6716ebed38b009a55dabde9440", "asm": "304502210098975423a0c26020dcbea9acb8e49e06e90f1bc63301c1dbf59eb18243be175602201c3fbac2d9f4ec358701830f590c0bfc328111262446b5fe812f5a96268cdce4[ALL] 03da5bac7b36d5aa38f531c6b9601e21bb598a4b6716ebed38b009a55dabde9440"}, "vout": 1, "txid": "85ef6323ab713ce5d1317307887c9147f762b2b4af19cd015f7d3ff4f316b78d"}], "txid": "2d9ef8a52eb0c5e0a3e69d7c515c631b2c06dc31a7cd4406476580ab80019383", "blocktime": 1537870268, "version": 1, "confirmations": 11516, "time": 1537870268, "locktime": 542980, "vsize": 257, "size": 257}