{"hash": "2d9f91a661c14e736a805f90f4260a0c02a6c1b970adf6b4089f117a241a633f", "blockhash": "00000000000000000024a2167bbff67b0be802c0b01cdd79e6331c2be6459f87", "vout": [{"scriptPubKey": {"type": "nulldata", "hex": "6a146f6d6e69000000000000001f000000358d117c00", "asm": "OP_RETURN 6f6d6e69000000000000001f000000358d117c00"}, "value": 0.0, "n": 0}, {"scriptPubKey": {"reqSigs": 1, "hex": "76a914a25dec4d0011064ef106a983c39c7a540699f22088ac", "addresses": ["1FoWyxwPXuj4C6abqwhjDWdz6D4PZgYRjA"], "asm": "OP_DUP OP_HASH160 a25dec4d0011064ef106a983c39c7a540699f220 OP_EQUALVERIFY OP_CHECKSIG", "type": "pubkeyhash"}, "value": 0.01995188, "n": 1}, {"scriptPubKey": {"reqSigs": 1, "hex": "76a91423aebb646c086e208c6fcb563b00b9a158ddfd8688ac", "addresses": ["14FfyJmXBJVo8Rj6qQuUD6hqtw99ejt1o2"], "asm": "OP_DUP OP_HASH160 23aebb646c086e208c6fcb563b00b9a158ddfd86 OP_EQUALVERIFY OP_CHECKSIG", "type": "pubkeyhash"}, "value": 5.46e-06, "n": 2}], "hex": "0100000001a44813c76173a4fe9689194c29809e35be05f1741d9b5e1e9e8bd44070ac1fea660000006a473044022040c5e726ee5ab2bf7e681fbd8a324ba26ba54e9e8b63498d286abebf2cbcdd070220674fe15962f61bb43ba49ce4a74040c3686caa02fb8109638bc8ad000d27d274012103da5bac7b36d5aa38f531c6b9601e21bb598a4b6716ebed38b009a55dabde9440feffffff030000000000000000166a146f6d6e69000000000000001f000000358d117c00b4711e00000000001976a914a25dec4d0011064ef106a983c39c7a540699f22088ac22020000000000001976a91423aebb646c086e208c6fcb563b00b9a158ddfd8688ac0d490800", "vin": [{"sequence": 4294967294, "scriptSig": {"hex": "473044022040c5e726ee5ab2bf7e681fbd8a324ba26ba54e9e8b63498d286abebf2cbcdd070220674fe15962f61bb43ba49ce4a74040c3686caa02fb8109638bc8ad000d27d274012103da5bac7b36d5aa38f531c6b9601e21bb598a4b6716ebed38b009a55dabde9440", "asm": "3044022040c5e726ee5ab2bf7e681fbd8a324ba26ba54e9e8b63498d286abebf2cbcdd070220674fe15962f61bb43ba49ce4a74040c3686caa02fb8109638bc8ad000d27d274[ALL] 03da5bac7b36d5aa38f531c6b9601e21bb598a4b6716ebed38b009a55dabde9440"}, "vout": 102, "txid": "ea1fac7040d48b9e1e5e9b1d74f105be359e80294c198996fea47361c71348a4"}], "txid": "2d9f91a661c14e736a805f90f4260a0c02a6c1b970adf6b4089f117a241a633f", "blocktime": 1537870564, "version": 1, "confirmations": 11515, "time": 1537870564, "locktime": 542989, "vsize": 256, "size": 256}