{"hash": "3997e89c99aaa9b2c5715e1b43dca22e6753b9d7ebe34d88764c87b47ae883d5", "blockhash": "0000000000000000000e13cef7c366c0283d82e591d1acd082e914b08063cdf1", "vout": [{"scriptPubKey": {"reqSigs": 1, "hex": "a914b44337f216fcdcf0a5895a72e8c4169a68ef293e87", "addresses": ["3J8A5VuG2KUQmCweiwHBDfv67VqWTciCM2"], "asm": "OP_HASH160 b44337f216fcdcf0a5895a72e8c4169a68ef293e OP_EQUAL", "type": "scripthash"}, "value": 0.0117224, "n": 0}], "hex": "01000000000101861d97ee3a67d6415f127ac9e9108ea1b6d6b6cf3359d7ff205e615999881754010000001716001433811432b871ab9ec49b60cfe4987f2801ca7fc1ffffffff0110e311000000000017a914b44337f216fcdcf0a5895a72e8c4169a68ef293e870247304402200501c1043c6a9d3fd7f38757bd8c6d22f199f0923f2f37ca05dc2ff233fc05b5022023e904ae501d534131fc4112ff69d5ed377c4953ee753b7a1bb288046a199fea0121020768f81c4a3588bb7f99fb93e51a7203b883f54f83b8766d213a85cec4a9041b00000000", "vin": [{"txinwitness": ["304402200501c1043c6a9d3fd7f38757bd8c6d22f199f0923f2f37ca05dc2ff233fc05b5022023e904ae501d534131fc4112ff69d5ed377c4953ee753b7a1bb288046a199fea01", "020768f81c4a3588bb7f99fb93e51a7203b883f54f83b8766d213a85cec4a9041b"], "sequence": 4294967295, "scriptSig": {"hex": "16001433811432b871ab9ec49b60cfe4987f2801ca7fc1", "asm": "001433811432b871ab9ec49b60cfe4987f2801ca7fc1"}, "vout": 1, "txid": "5417889959615e20ffd75933cfb6d6b6a18e10e9c97a125f41d6673aee971d86"}], "txid": "2da09807a6749ebb27187202f0d4ee5524e77fc29dd9c109f2a750072c643798", "blocktime": 1537871767, "version": 1, "confirmations": 11495, "time": 1537871767, "locktime": 0, "vsize": 134, "size": 215}