{"hash": "2da1dc6f3e1f3f5aa75fc34a8ed4b21df53deaa63c6dbb317995af7180c99951", "blockhash": "0000000000000000001cda96e906b7601b7a6fb1a3b62bca570a9e5d8f4b3de1", "vout": [{"scriptPubKey": {"reqSigs": 1, "hex": "76a9140727739727a57db39ef4fb6f26418fe209b7318488ac", "addresses": ["1epzV1GbjwcEhD6uAmrkTuYgpra8JASmi"], "asm": "OP_DUP OP_HASH160 0727739727a57db39ef4fb6f26418fe209b73184 OP_EQUALVERIFY OP_CHECKSIG", "type": "pubkeyhash"}, "value": 0.01001424, "n": 0}, {"scriptPubKey": {"reqSigs": 1, "hex": "76a914933e0fd081b4d1283352b97068337ab9a924878588ac", "addresses": ["1ERYgKxQtZcy3CKJRcUGPx6VisS8x5nXDG"], "asm": "OP_DUP OP_HASH160 933e0fd081b4d1283352b97068337ab9a9248785 OP_EQUALVERIFY OP_CHECKSIG", "type": "pubkeyhash"}, "value": 3e-05, "n": 1}], "hex": "010000000276a6f67aca8264d16ec433b0826b66c5c55180a279cb4a22043a9adb030d8d5f010000006a47304402200916aa8db508b7bc40c82f5d7ded729fde461059724d2f1a906d245c52cf7bdf02202bdbc280c0a5128689205d5b081c9ad86107e1c5e6613909528740f21aab850b012102e3429bd90104417d6cf88b1e75a1199b7ef61c42bbb65490bbf1e09498f9a99dfeffffff7877a510e5cefd404b2bccb59afdb6dd11e7308d016da2ff82807882e1b5e4f8010000006a47304402203993a0984aa5a5bf25cdb596f3b980506f3680541c91b6d324d315fca809f2ba02206f93e67666f197417eec80e37d4759da7d69a0ad0562a01512051c4f3acccc08012102c52c6be5c90c2f66e7b9480f8d734be8b8b2adbc621c478dd7fe19424b9de75afeffffff02d0470f00000000001976a9140727739727a57db39ef4fb6f26418fe209b7318488acb80b0000000000001976a914933e0fd081b4d1283352b97068337ab9a924878588ac13490800", "vin": [{"sequence": 4294967294, "scriptSig": {"hex": "47304402200916aa8db508b7bc40c82f5d7ded729fde461059724d2f1a906d245c52cf7bdf02202bdbc280c0a5128689205d5b081c9ad86107e1c5e6613909528740f21aab850b012102e3429bd90104417d6cf88b1e75a1199b7ef61c42bbb65490bbf1e09498f9a99d", "asm": "304402200916aa8db508b7bc40c82f5d7ded729fde461059724d2f1a906d245c52cf7bdf02202bdbc280c0a5128689205d5b081c9ad86107e1c5e6613909528740f21aab850b[ALL] 02e3429bd90104417d6cf88b1e75a1199b7ef61c42bbb65490bbf1e09498f9a99d"}, "vout": 1, "txid": "5f8d0d03db9a3a04224acb79a28051c5c5666b82b033c46ed16482ca7af6a676"}, {"sequence": 4294967294, "scriptSig": {"hex": "47304402203993a0984aa5a5bf25cdb596f3b980506f3680541c91b6d324d315fca809f2ba02206f93e67666f197417eec80e37d4759da7d69a0ad0562a01512051c4f3acccc08012102c52c6be5c90c2f66e7b9480f8d734be8b8b2adbc621c478dd7fe19424b9de75a", "asm": "304402203993a0984aa5a5bf25cdb596f3b980506f3680541c91b6d324d315fca809f2ba02206f93e67666f197417eec80e37d4759da7d69a0ad0562a01512051c4f3acccc08[ALL] 02c52c6be5c90c2f66e7b9480f8d734be8b8b2adbc621c478dd7fe19424b9de75a"}, "vout": 1, "txid": "f8e4b5e182788082ffa26d018d30e711ddb6fd9ab5cc2b4b40fdcee510a57778"}], "txid": "2da1dc6f3e1f3f5aa75fc34a8ed4b21df53deaa63c6dbb317995af7180c99951", "blocktime": 1537873282, "version": 1, "confirmations": 11485, "time": 1537873282, "locktime": 542995, "vsize": 372, "size": 372}