{"hash": "9604a14a35eb66342b7025176d50c242bf7be56b709b73d407637e8dbdecbbff", "blockhash": "0000000000000000001e0dab787dd257d1dbfcb92a98c2207d5e1078be1f4165", "vout": [{"scriptPubKey": {"reqSigs": 1, "hex": "76a9143ab4f0b2bf121d9582c6480fc834f3a89005849788ac", "addresses": ["16MQx5GVALqMzp5LgBPEpGFsqbRZnzbgFm"], "asm": "OP_DUP OP_HASH160 3ab4f0b2bf121d9582c6480fc834f3a890058497 OP_EQUALVERIFY OP_CHECKSIG", "type": "pubkeyhash"}, "value": 0.01212289, "n": 0}, {"scriptPubKey": {"reqSigs": 1, "hex": "a91428d99f1583736c6591d5957c373f4f73360451aa87", "addresses": ["35R1epRXwqfaS9HwrMk1ezymnRh1CchBk8"], "asm": "OP_HASH160 28d99f1583736c6591d5957c373f4f73360451aa OP_EQUAL", "type": "scripthash"}, "value": 0.17414115, "n": 1}], "hex": "020000000001011539aad2e3088cadba5cef9d9fcc885639eee474ebbd44cf861cd8278df0a149000000001716001410d4efbf0008262c0f65488d25039b966e86b743ffffffff02817f1200000000001976a9143ab4f0b2bf121d9582c6480fc834f3a89005849788ace3b709010000000017a91428d99f1583736c6591d5957c373f4f73360451aa8702483045022100ce3b996b04bf3291ef8346f2eb9e931cf8dc23bbd0d6af8800fbf12efa9aece30220126415b0bb3e54a3d9a2a58c2d8fe402134ffd8550c09e9fadb0f8f27c8e1f3e0121025d744c7264fc07132be903e4d08768ca835b6f61841d28691c9ef3f9be4349f100000000", "vin": [{"txinwitness": ["3045022100ce3b996b04bf3291ef8346f2eb9e931cf8dc23bbd0d6af8800fbf12efa9aece30220126415b0bb3e54a3d9a2a58c2d8fe402134ffd8550c09e9fadb0f8f27c8e1f3e01", "025d744c7264fc07132be903e4d08768ca835b6f61841d28691c9ef3f9be4349f1"], "sequence": 4294967295, "scriptSig": {"hex": "16001410d4efbf0008262c0f65488d25039b966e86b743", "asm": "001410d4efbf0008262c0f65488d25039b966e86b743"}, "vout": 0, "txid": "49a1f08d27d81c86cf44bdeb74e4ee395688cc9f9def5cbaad8c08e3d2aa3915"}], "txid": "2da361c4e03af5d07fc331fef101ebeed4b427d6465ba5f03e87b35b4507dce9", "blocktime": 1537872475, "version": 2, "confirmations": 11486, "time": 1537872475, "locktime": 0, "vsize": 168, "size": 250}