{"hash": "9d35f82caacac7a7e7986f981c0bd514a61d095dc01e7ccebc42b5b846fbe3dd", "blockhash": "0000000000000000001f76057863aec43deb6fa401d9628bb513d65a8098bfab", "vout": [{"scriptPubKey": {"reqSigs": 1, "hex": "a9146aafaf5743817b3833702b43fa3ea4045467dad787", "addresses": ["3BR81gR5KG5gT3WMZtyVm7jJhonrwgrufW"], "asm": "OP_HASH160 6aafaf5743817b3833702b43fa3ea4045467dad7 OP_EQUAL", "type": "scripthash"}, "value": 0.00049774, "n": 0}], "hex": "01000000000101c36d0cab61d41f469c57b8d2f8b4ca1d6e07e320a17a65a36c8fea58a99e8c420000000017160014743042b525f53cb68ad1e087f8c81f5d62a3a2d9ffffffff016ec200000000000017a9146aafaf5743817b3833702b43fa3ea4045467dad78702483045022100d3c29185bf7e0f5f67a75be42d9689e51b1f3e311082be03f7a310712292d57f022032119251c62b5a21ab42cf7c6616d09484d8df3fc23a2396919c97b0cac07e230121020ec27c2199789807acb0b81dd53d741d2a669324ef2b4b76ffa2343e17bb7e5400000000", "vin": [{"txinwitness": ["3045022100d3c29185bf7e0f5f67a75be42d9689e51b1f3e311082be03f7a310712292d57f022032119251c62b5a21ab42cf7c6616d09484d8df3fc23a2396919c97b0cac07e2301", "020ec27c2199789807acb0b81dd53d741d2a669324ef2b4b76ffa2343e17bb7e54"], "sequence": 4294967295, "scriptSig": {"hex": "160014743042b525f53cb68ad1e087f8c81f5d62a3a2d9", "asm": "0014743042b525f53cb68ad1e087f8c81f5d62a3a2d9"}, "vout": 0, "txid": "428c9ea958ea8f6ca3657aa120e3076e1dcab4f8d2b8579c461fd461ab0c6dc3"}], "txid": "2dabee31b767c6a05e0946155abf81c1c47b853ec0d7919c4609602d5a969a48", "blocktime": 1537873891, "version": 1, "confirmations": 11478, "time": 1537873891, "locktime": 0, "vsize": 134, "size": 216}