{"hash": "2dab9e918214be521467760b74d8fa923667ad71e012ce4a73affa0e87fbe394", "blockhash": "0000000000000000000e13cef7c366c0283d82e591d1acd082e914b08063cdf1", "vout": [{"scriptPubKey": {"type": "nulldata", "hex": "6a4c50000077910001dde6fdfdde564f0da595b1cce3ef3236678a625097bcbefa6b8351586b4ea7ed46c33936f26a54d23a0fa0d302fb5baa0c820614603bb4bf71161d100759d4ba30d2c37bb011d97e02cf", "asm": "OP_RETURN 000077910001dde6fdfdde564f0da595b1cce3ef3236678a625097bcbefa6b8351586b4ea7ed46c33936f26a54d23a0fa0d302fb5baa0c820614603bb4bf71161d100759d4ba30d2c37bb011d97e02cf"}, "value": 0.0, "n": 0}, {"scriptPubKey": {"reqSigs": 1, "hex": "76a9149dd4168fa74fc192825cf26a04b764ef8f16d7d388ac", "addresses": ["1FPXAG283CWCj3ox8XXRW7nf3ehLKxKpJT"], "asm": "OP_DUP OP_HASH160 9dd4168fa74fc192825cf26a04b764ef8f16d7d3 OP_EQUALVERIFY OP_CHECKSIG", "type": "pubkeyhash"}, "value": 0.00644746, "n": 1}], "hex": "0100000001094666ec64e87129cdeffc1dbec4012e78c5f33354d90cddd8ec832a53a248ee010000006a47304402204047f15d178bdcf535a8b3535e6406c4630f5b36d168414e58cef9ea4d3627c50220332f7bbce428aaefecba6746c6c86eb99974d9f73a31c428d2b531095b26dec60121039340ce8fd2adbde09a7e15230fb51e722ae96169146c62d8b1b35898a3b244adffffffff020000000000000000536a4c50000077910001dde6fdfdde564f0da595b1cce3ef3236678a625097bcbefa6b8351586b4ea7ed46c33936f26a54d23a0fa0d302fb5baa0c820614603bb4bf71161d100759d4ba30d2c37bb011d97e02cf8ad60900000000001976a9149dd4168fa74fc192825cf26a04b764ef8f16d7d388ac00000000", "vin": [{"sequence": 4294967295, "scriptSig": {"hex": "47304402204047f15d178bdcf535a8b3535e6406c4630f5b36d168414e58cef9ea4d3627c50220332f7bbce428aaefecba6746c6c86eb99974d9f73a31c428d2b531095b26dec60121039340ce8fd2adbde09a7e15230fb51e722ae96169146c62d8b1b35898a3b244ad", "asm": "304402204047f15d178bdcf535a8b3535e6406c4630f5b36d168414e58cef9ea4d3627c50220332f7bbce428aaefecba6746c6c86eb99974d9f73a31c428d2b531095b26dec6[ALL] 039340ce8fd2adbde09a7e15230fb51e722ae96169146c62d8b1b35898a3b244ad"}, "vout": 1, "txid": "ee48a2532a83ecd8dd0cd95433f3c5782e01c4be1dfcefcd2971e864ec664609"}], "txid": "2dab9e918214be521467760b74d8fa923667ad71e012ce4a73affa0e87fbe394", "blocktime": 1537871767, "version": 1, "confirmations": 11495, "time": 1537871767, "locktime": 0, "vsize": 283, "size": 283}