{"hash": "2daddf2ba9a3cd4fa0a746ecbb93c7b342739071b3fbf45ee8c2b5669cffab92", "blockhash": "000000000000000000022b45ed06c6f4ccd3cf7fb5ba4856ebd2e58215665228", "vout": [{"scriptPubKey": {"reqSigs": 1, "hex": "a914375a386bb3da2f673392a78e7d141b36109f4a8087", "addresses": ["36jhAiZ7BTnzn9WSuqtVqrYCEs5DCj9xF7"], "asm": "OP_HASH160 375a386bb3da2f673392a78e7d141b36109f4a80 OP_EQUAL", "type": "scripthash"}, "value": 0.001, "n": 0}, {"scriptPubKey": {"reqSigs": 1, "hex": "76a91467dde9ec8a2b0baa8bbdc24828e03397b82d405488ac", "addresses": ["1AUCSbeETsLiAzCFPYqjJKnubxEYaP1qMr"], "asm": "OP_DUP OP_HASH160 67dde9ec8a2b0baa8bbdc24828e03397b82d4054 OP_EQUALVERIFY OP_CHECKSIG", "type": "pubkeyhash"}, "value": 0.24787198, "n": 1}], "hex": "02000000013cbdde96aca79221c8bbc8e1c4f2299c5d84768de481cc3ac6e27fb2ae2b199e010000006b4830450221009a2f77f5dbcad3718cf35e88c10b78447c1ccd46e0750383f3186f9cf066228702200123cc4dbcbd02768a2453ea7830bdf4ead8f34233a50ee7bb801d936971bfec012102681fc25af5e86612f71ad9e31b9386dae89e1f6b77b06eab16f21e3157176e6cfeffffff02a08601000000000017a914375a386bb3da2f673392a78e7d141b36109f4a8087fe387a01000000001976a91467dde9ec8a2b0baa8bbdc24828e03397b82d405488ac0b490800", "vin": [{"sequence": 4294967294, "scriptSig": {"hex": "4830450221009a2f77f5dbcad3718cf35e88c10b78447c1ccd46e0750383f3186f9cf066228702200123cc4dbcbd02768a2453ea7830bdf4ead8f34233a50ee7bb801d936971bfec012102681fc25af5e86612f71ad9e31b9386dae89e1f6b77b06eab16f21e3157176e6c", "asm": "30450221009a2f77f5dbcad3718cf35e88c10b78447c1ccd46e0750383f3186f9cf066228702200123cc4dbcbd02768a2453ea7830bdf4ead8f34233a50ee7bb801d936971bfec[ALL] 02681fc25af5e86612f71ad9e31b9386dae89e1f6b77b06eab16f21e3157176e6c"}, "vout": 1, "txid": "9e192baeb27fe2c63acc81e48d76845d9c29f2c4e1c8bbc82192a7ac96debd3c"}], "txid": "2daddf2ba9a3cd4fa0a746ecbb93c7b342739071b3fbf45ee8c2b5669cffab92", "blocktime": 1537869901, "version": 2, "confirmations": 11522, "time": 1537869901, "locktime": 542987, "vsize": 224, "size": 224}