{"hash": "2db3564a50d94eafc77126125292d98b18f65914687bf66b1e3cef1c0880fdb6", "blockhash": "0000000000000000000e13cef7c366c0283d82e591d1acd082e914b08063cdf1", "vout": [{"scriptPubKey": {"reqSigs": 1, "hex": "a9148df95bdfd67bd909697871c2cacfb20c7989971387", "addresses": ["3EdhvMJYtj23r1Zr8Fvq9E1pigCwUx2MHW"], "asm": "OP_HASH160 8df95bdfd67bd909697871c2cacfb20c79899713 OP_EQUAL", "type": "scripthash"}, "value": 0.00027995, "n": 0}, {"scriptPubKey": {"reqSigs": 1, "hex": "76a91421fec372b8b2b203f08cfc32f04dfc1a5d12e75488ac", "addresses": ["146kVcBWY5TgFEDG5YdhmYbnygnNAh3aYh"], "asm": "OP_DUP OP_HASH160 21fec372b8b2b203f08cfc32f04dfc1a5d12e754 OP_EQUALVERIFY OP_CHECKSIG", "type": "pubkeyhash"}, "value": 0.00221517, "n": 1}], "hex": "01000000022af46e0101986ad598c40f0514997be61508ebc65e940ea9c49061900b9db522000000006a473044022053eaaf9315a1aeaa44a1f84891924e3460b58363e55b003d83eeabc69e4daa880220738df6fc1893c1c05c0a9d29fd445f523d25d7228025616ef735d20d788570730121020b8750f1e5438463e601dee70ffd058fcc76b7eb31d40873ab2ee971ca4bd32fffffffff191ff81a5bbcbcc4a8343caa907686fb1c6fd1eba8b21d5646df1c9b91f9786e000000006a47304402201eac0961e43ac8085d7d5cacc3de849cb2edc2c2892e62d820c02cc418821df102202c2743b551965365a6a459f8ace38538db0d6c267fd0e99878eb2c3ec7b9f5af0121023fe50c2896a1afefadb689d40f7019ec4368148dad566f2e9720c514ff2258e0ffffffff025b6d00000000000017a9148df95bdfd67bd909697871c2cacfb20c79899713874d610300000000001976a91421fec372b8b2b203f08cfc32f04dfc1a5d12e75488ac00000000", "vin": [{"sequence": 4294967295, "scriptSig": {"hex": "473044022053eaaf9315a1aeaa44a1f84891924e3460b58363e55b003d83eeabc69e4daa880220738df6fc1893c1c05c0a9d29fd445f523d25d7228025616ef735d20d788570730121020b8750f1e5438463e601dee70ffd058fcc76b7eb31d40873ab2ee971ca4bd32f", "asm": "3044022053eaaf9315a1aeaa44a1f84891924e3460b58363e55b003d83eeabc69e4daa880220738df6fc1893c1c05c0a9d29fd445f523d25d7228025616ef735d20d78857073[ALL] 020b8750f1e5438463e601dee70ffd058fcc76b7eb31d40873ab2ee971ca4bd32f"}, "vout": 0, "txid": "22b59d0b906190c4a90e945ec6eb0815e67b9914050fc498d56a9801016ef42a"}, {"sequence": 4294967295, "scriptSig": {"hex": "47304402201eac0961e43ac8085d7d5cacc3de849cb2edc2c2892e62d820c02cc418821df102202c2743b551965365a6a459f8ace38538db0d6c267fd0e99878eb2c3ec7b9f5af0121023fe50c2896a1afefadb689d40f7019ec4368148dad566f2e9720c514ff2258e0", "asm": "304402201eac0961e43ac8085d7d5cacc3de849cb2edc2c2892e62d820c02cc418821df102202c2743b551965365a6a459f8ace38538db0d6c267fd0e99878eb2c3ec7b9f5af[ALL] 023fe50c2896a1afefadb689d40f7019ec4368148dad566f2e9720c514ff2258e0"}, "vout": 0, "txid": "6e78f9919b1cdf46561db2a8ebd16f1cfb867690aa3c34a8c4bcbc5b1af81f19"}], "txid": "2db3564a50d94eafc77126125292d98b18f65914687bf66b1e3cef1c0880fdb6", "blocktime": 1537871767, "version": 1, "confirmations": 11493, "time": 1537871767, "locktime": 0, "vsize": 370, "size": 370}