{"hash": "2db5e7b93a4d2e315fcf93990bc65839e3e60af8c5ed78c5d3a63cdd44626855", "blockhash": "0000000000000000000baef3f32e3676a92c3b2e5da21b426e4f302fc371ce76", "vout": [{"scriptPubKey": {"type": "nulldata", "hex": "6a4c500000782b0001f8de358aaac6e591fc828faf27b7256b4774d339f6019d6ddc0f1b8ff117d5b2fd70ce66a4e00d796535c6e327c95baa1e850614486152c16ee6bc9a9526289ac0f6612cd74e33776ee4", "asm": "OP_RETURN 0000782b0001f8de358aaac6e591fc828faf27b7256b4774d339f6019d6ddc0f1b8ff117d5b2fd70ce66a4e00d796535c6e327c95baa1e850614486152c16ee6bc9a9526289ac0f6612cd74e33776ee4"}, "value": 0.0, "n": 0}, {"scriptPubKey": {"reqSigs": 1, "hex": "76a9148c7d1298f33aad1269e9c494b868c44d046c518a88ac", "addresses": ["1DoqS4FdzV2x8ykZrJK5rt5mGvik47sJmn"], "asm": "OP_DUP OP_HASH160 8c7d1298f33aad1269e9c494b868c44d046c518a OP_EQUALVERIFY OP_CHECKSIG", "type": "pubkeyhash"}, "value": 0.00088524, "n": 1}], "hex": "010000000121555e311e5ed2a8d92f54eaf719e747c6e3e95e5d76d2fb92ce270eefce8603010000006a473044022013badf199b14b795a30585679bf20281a05cd40879448ed0349da05bb92d9dac02202c197e9c9a0e3f42e25ea5e6a1c9451ecaaf0b31c20a96efa12f27839ae4b58101210215fcbcd3645634e41073af8ade59bd3589639d79c878c355cf836a25df67de51ffffffff020000000000000000536a4c500000782b0001f8de358aaac6e591fc828faf27b7256b4774d339f6019d6ddc0f1b8ff117d5b2fd70ce66a4e00d796535c6e327c95baa1e850614486152c16ee6bc9a9526289ac0f6612cd74e33776ee4cc590100000000001976a9148c7d1298f33aad1269e9c494b868c44d046c518a88ac00000000", "vin": [{"sequence": 4294967295, "scriptSig": {"hex": "473044022013badf199b14b795a30585679bf20281a05cd40879448ed0349da05bb92d9dac02202c197e9c9a0e3f42e25ea5e6a1c9451ecaaf0b31c20a96efa12f27839ae4b58101210215fcbcd3645634e41073af8ade59bd3589639d79c878c355cf836a25df67de51", "asm": "3044022013badf199b14b795a30585679bf20281a05cd40879448ed0349da05bb92d9dac02202c197e9c9a0e3f42e25ea5e6a1c9451ecaaf0b31c20a96efa12f27839ae4b581[ALL] 0215fcbcd3645634e41073af8ade59bd3589639d79c878c355cf836a25df67de51"}, "vout": 1, "txid": "0386ceef0e27ce92fbd2765d5ee9e3c647e719f7ea542fd9a8d25e1e315e5521"}], "txid": "2db5e7b93a4d2e315fcf93990bc65839e3e60af8c5ed78c5d3a63cdd44626855", "blocktime": 1537876114, "version": 1, "confirmations": 11460, "time": 1537876114, "locktime": 0, "vsize": 283, "size": 283}