{"hash": "0dac872742282c62fb600544e3c7c0ac1ee8cd300f45b6777346974410e32426", "blockhash": "00000000000000000004ffacab907a6b429b9a5745fa0b75af4234bf69dd7176", "vout": [{"scriptPubKey": {"reqSigs": 1, "hex": "a914c8948f84ab8bc2187580e4fb86ecf2a0a06e11cf87", "addresses": ["3Kyb35jwJ7YCiAF7JRfW5VZdpyywKap5YB"], "asm": "OP_HASH160 c8948f84ab8bc2187580e4fb86ecf2a0a06e11cf OP_EQUAL", "type": "scripthash"}, "value": 4.069e-05, "n": 0}, {"scriptPubKey": {"reqSigs": 1, "hex": "a9141d7370ccde4590204155e4074f69743a8e4fac0287", "addresses": ["34Njp4ZKtmCDfqqps26wHBYQQGUo2pGkLi"], "asm": "OP_HASH160 1d7370ccde4590204155e4074f69743a8e4fac02 OP_EQUAL", "type": "scripthash"}, "value": 0.00258842, "n": 1}], "hex": "010000000001014b46fa95780757af1f44f1679830ab672b9b030be2e27d8ff1dc9c4b4043902e0100000023220020f63dfc12340f6360d0251c22746d6b56093e3243e96ca012a65484a5d9cf0ec0ffffffff02e50f00000000000017a914c8948f84ab8bc2187580e4fb86ecf2a0a06e11cf871af303000000000017a9141d7370ccde4590204155e4074f69743a8e4fac0287040047304402203b66f79b8077502fff33479bfc1fb335cec52336b1dbb3a79c44de7bf79c471602207188372316e6502d76a5902c00cdfbd75210ddbc4d110ba040d96c8934a75a270147304402201f4abfab3a05ed5d400104aa83cd78bfb123f8ded4aca70e660abaeb2dd7fcaf022036702b1860c5f5f75b7b4b16d40580263bf805d941dc8db0e374cf87f655cb310147522102097067a6a0cc130a9a6f6577b47bf369b840a79de31cd7457187994266b1bb7c2103338f346cab6ba87fe940591a03ac234be06520c5ab386d4b6632e8eef0d0db7652ae00000000", "vin": [{"txinwitness": ["", "304402203b66f79b8077502fff33479bfc1fb335cec52336b1dbb3a79c44de7bf79c471602207188372316e6502d76a5902c00cdfbd75210ddbc4d110ba040d96c8934a75a2701", "304402201f4abfab3a05ed5d400104aa83cd78bfb123f8ded4aca70e660abaeb2dd7fcaf022036702b1860c5f5f75b7b4b16d40580263bf805d941dc8db0e374cf87f655cb3101", "522102097067a6a0cc130a9a6f6577b47bf369b840a79de31cd7457187994266b1bb7c2103338f346cab6ba87fe940591a03ac234be06520c5ab386d4b6632e8eef0d0db7652ae"], "sequence": 4294967295, "scriptSig": {"hex": "220020f63dfc12340f6360d0251c22746d6b56093e3243e96ca012a65484a5d9cf0ec0", "asm": "0020f63dfc12340f6360d0251c22746d6b56093e3243e96ca012a65484a5d9cf0ec0"}, "vout": 1, "txid": "2e9043404b9cdcf18f7de2e20b039b2b67ab309867f1441faf57077895fa464b"}], "txid": "2db6ae79bebe5ce153e1e4cdfbbbdd4ea67104c42290ca728e118f0696348486", "blocktime": 1537875543, "version": 1, "confirmations": 11464, "time": 1537875543, "locktime": 0, "vsize": 205, "size": 370}