{"hash": "527aabaa3b1473aab312696dfa4356bee503797f2184bcf036dc13d3f85fe1bc", "blockhash": "00000000000000000024a2167bbff67b0be802c0b01cdd79e6331c2be6459f87", "vout": [{"scriptPubKey": {"reqSigs": 1, "hex": "76a914bee97e3f1d47768044d7406af6ca2d0e8de6008088ac", "addresses": ["1JQT6qWJBihwwWDRe1kENCQEm9mBVWvh8t"], "asm": "OP_DUP OP_HASH160 bee97e3f1d47768044d7406af6ca2d0e8de60080 OP_EQUALVERIFY OP_CHECKSIG", "type": "pubkeyhash"}, "value": 0.07158763, "n": 0}, {"scriptPubKey": {"reqSigs": 1, "hex": "76a914298809d9a428df743ce51f50ec809aef4d188b6488ac", "addresses": ["14nbfz5gLN6S1isz6ze4yJBLDa8pis5jwt"], "asm": "OP_DUP OP_HASH160 298809d9a428df743ce51f50ec809aef4d188b64 OP_EQUALVERIFY OP_CHECKSIG", "type": "pubkeyhash"}, "value": 0.09036307, "n": 1}], "hex": "02000000000101cabf0c0a62a3175831bed29fac28af3fdd501f3e94e29293385d76fe40407a3800000000171600146b1df043813d424f7f420679df836b8e536e916cfeffffff02eb3b6d00000000001976a914bee97e3f1d47768044d7406af6ca2d0e8de6008088ac13e28900000000001976a914298809d9a428df743ce51f50ec809aef4d188b6488ac024830450221009c41452ef108f8ce044be474dfe7ba7ec076592398ddb48c37c98d0a4ca5f401022014ebcaa98d1b2e0bb487d3dd7047423184ee84a9f68aa87134885e205ec7135e0121023926739242d26d2833f277df6cb934e213f66ebbac467f7c5d95c0f31d0bf72e0d490800", "vin": [{"txinwitness": ["30450221009c41452ef108f8ce044be474dfe7ba7ec076592398ddb48c37c98d0a4ca5f401022014ebcaa98d1b2e0bb487d3dd7047423184ee84a9f68aa87134885e205ec7135e01", "023926739242d26d2833f277df6cb934e213f66ebbac467f7c5d95c0f31d0bf72e"], "sequence": 4294967294, "scriptSig": {"hex": "1600146b1df043813d424f7f420679df836b8e536e916c", "asm": "00146b1df043813d424f7f420679df836b8e536e916c"}, "vout": 0, "txid": "387a4040fe765d389392e2943e1f50dd3faf28ac9fd2be315817a3620a0cbfca"}], "txid": "2dbf6344058cd33e99b3cb724dfc720092b1c7613e1bb1f9e090510043a15723", "blocktime": 1537870564, "version": 2, "confirmations": 11515, "time": 1537870564, "locktime": 542989, "vsize": 170, "size": 252}