{"hash": "aa682c8f70ec4e8f75b52e6e21d4664c60dd66c49b7e2c40b06d7a136edca233", "blockhash": "0000000000000000000baef3f32e3676a92c3b2e5da21b426e4f302fc371ce76", "vout": [{"scriptPubKey": {"reqSigs": 1, "hex": "76a914518b019779261c0ecbc983a4b27bf42d3f8312b088ac", "addresses": ["18SAFrrdZn8KGFsT5GwUaJ5cXGccQzXhAe"], "asm": "OP_DUP OP_HASH160 518b019779261c0ecbc983a4b27bf42d3f8312b0 OP_EQUALVERIFY OP_CHECKSIG", "type": "pubkeyhash"}, "value": 0.00161667, "n": 0}, {"scriptPubKey": {"reqSigs": 1, "hex": "a914f5342287aaa57f5c05756dbd5ef14091cc70030f87", "addresses": ["3Q3XvwKWsx3ocmCXheK6pAo5ieooFx75hh"], "asm": "OP_HASH160 f5342287aaa57f5c05756dbd5ef14091cc70030f OP_EQUAL", "type": "scripthash"}, "value": 0.07877085, "n": 1}], "hex": "010000000001023b8cf28d497e1a185a0f1a3523aeb32e66fce4f6d7fdb33acc9e89c10af24a2701000000232200204ac72bc93353695ed44de9eabe5eab31fde46c3e5524f6f6c253b37df4627817ffffffff4e37d4b50492b4ff941f93ba190b6130c7eabd33d4a1814061c13d434db3ef9801000000232200204fd7968ffe15cb453352a1e9ee2915eff8b6d6252d5a351f9092b82ca10eb12cffffffff0283770200000000001976a914518b019779261c0ecbc983a4b27bf42d3f8312b088acdd3178000000000017a914f5342287aaa57f5c05756dbd5ef14091cc70030f87040047304402205e28f163941e8f5ee19dbf711f7fd22ad17c6f89781e777f7723835ab11e5c690220638dc5c34dd0907c34924ad16465cf6c856c23bbb0a42b7db9a0fd7278093a9d0147304402203017a3b8f676999bd894dff54472fffaea62fd4694a4c4ff36b3aeec421509e80220359fa96769d20e860a2e9641b8a169968fd885e0bc7fc666bebe89b06df66b32014752210383dd989bbcdccf0b79b07f5bbd82921af5ac4762329b0aa9346994805e5cd8fc2103871fc2ca08e6950b38867e8e6a0e94ee625223d3aa0df5c65f414c6d784467e252ae04004730440220108c0ea6c7910b9e1e96c9f908ce7bbc000facb7673115a99eb6e9bb6459494902202c667409a9f4ecf26347cb0364f03985b8844947490645b44c2950361cf8e19401483045022100bcca2cdfd02629a5c0de6b91809aa74fa6eb5db62bf5a6a28eb25daec7debd1a0220270f31c6b6e5a12e92ac30cd265922b06d4045aa5ef7ba47fcb20874ecd69e1a0147522103b70e79262cbb7310fe069dea7c473b53276b75c67fb841ff66279f152a3fe0172103871fc2ca08e6950b38867e8e6a0e94ee625223d3aa0df5c65f414c6d784467e252ae00000000", "vin": [{"txinwitness": ["", "304402205e28f163941e8f5ee19dbf711f7fd22ad17c6f89781e777f7723835ab11e5c690220638dc5c34dd0907c34924ad16465cf6c856c23bbb0a42b7db9a0fd7278093a9d01", "304402203017a3b8f676999bd894dff54472fffaea62fd4694a4c4ff36b3aeec421509e80220359fa96769d20e860a2e9641b8a169968fd885e0bc7fc666bebe89b06df66b3201", "52210383dd989bbcdccf0b79b07f5bbd82921af5ac4762329b0aa9346994805e5cd8fc2103871fc2ca08e6950b38867e8e6a0e94ee625223d3aa0df5c65f414c6d784467e252ae"], "sequence": 4294967295, "scriptSig": {"hex": "2200204ac72bc93353695ed44de9eabe5eab31fde46c3e5524f6f6c253b37df4627817", "asm": "00204ac72bc93353695ed44de9eabe5eab31fde46c3e5524f6f6c253b37df4627817"}, "vout": 1, "txid": "274af20ac1899ecc3ab3fdd7f6e4fc662eb3ae23351a0f5a181a7e498df28c3b"}, {"txinwitness": ["", "30440220108c0ea6c7910b9e1e96c9f908ce7bbc000facb7673115a99eb6e9bb6459494902202c667409a9f4ecf26347cb0364f03985b8844947490645b44c2950361cf8e19401", "3045022100bcca2cdfd02629a5c0de6b91809aa74fa6eb5db62bf5a6a28eb25daec7debd1a0220270f31c6b6e5a12e92ac30cd265922b06d4045aa5ef7ba47fcb20874ecd69e1a01", "522103b70e79262cbb7310fe069dea7c473b53276b75c67fb841ff66279f152a3fe0172103871fc2ca08e6950b38867e8e6a0e94ee625223d3aa0df5c65f414c6d784467e252ae"], "sequence": 4294967295, "scriptSig": {"hex": "2200204fd7968ffe15cb453352a1e9ee2915eff8b6d6252d5a351f9092b82ca10eb12c", "asm": "00204fd7968ffe15cb453352a1e9ee2915eff8b6d6252d5a351f9092b82ca10eb12c"}, "vout": 1, "txid": "98efb34d433dc1614081a1d433bdeac730610b19ba931f94ffb49204b5d4374e"}], "txid": "2dc5eca16b263ceb1fb3746c1fce122c71d64aeb00b1608d7d89e6182f42b6f9", "blocktime": 1537876114, "version": 1, "confirmations": 11460, "time": 1537876114, "locktime": 0, "vsize": 338, "size": 667}