{"hash": "2dc825719688aea773c89f429f87f452f89a77fedde37424e5c0bf52d38d2b09", "blockhash": "000000000000000000022b45ed06c6f4ccd3cf7fb5ba4856ebd2e58215665228", "vout": [{"scriptPubKey": {"reqSigs": 1, "hex": "a91446686edfdda4f1f59653cdffd7ab6bc99091593f87", "addresses": ["387JL7Q42HzpJQPByKqTfQ3m8LWZtS3Lvk"], "asm": "OP_HASH160 46686edfdda4f1f59653cdffd7ab6bc99091593f OP_EQUAL", "type": "scripthash"}, "value": 0.00077957, "n": 0}, {"scriptPubKey": {"reqSigs": 1, "hex": "76a91493387e2fd69063afb8ffc2d9e059e9bd1237148388ac", "addresses": ["1ERS1PxSJByvFs8JeEey9CQHcmAuTGquMk"], "asm": "OP_DUP OP_HASH160 93387e2fd69063afb8ffc2d9e059e9bd12371483 OP_EQUALVERIFY OP_CHECKSIG", "type": "pubkeyhash"}, "value": 0.00144202, "n": 1}], "hex": "010000000101e84ffead8297010b9f472036ae15bcc3ed3721ef162a28bade97b5caae44bd010000006b483045022100b932104dae610bfb907f71c76ea3552d2ef975a466a945b3dfab87460438b78a0220559f8e341e7b89417c3ae0d82aabbb50815ef7fcb4c1cc0a7b526f7e3cfeb3f10121031b0bd98f546954e770785e810bb7a13e1d61b8f9d4baafe6be4da0e05c4e7ceaffffffff02853001000000000017a91446686edfdda4f1f59653cdffd7ab6bc99091593f874a330200000000001976a91493387e2fd69063afb8ffc2d9e059e9bd1237148388ac00000000", "vin": [{"sequence": 4294967295, "scriptSig": {"hex": "483045022100b932104dae610bfb907f71c76ea3552d2ef975a466a945b3dfab87460438b78a0220559f8e341e7b89417c3ae0d82aabbb50815ef7fcb4c1cc0a7b526f7e3cfeb3f10121031b0bd98f546954e770785e810bb7a13e1d61b8f9d4baafe6be4da0e05c4e7cea", "asm": "3045022100b932104dae610bfb907f71c76ea3552d2ef975a466a945b3dfab87460438b78a0220559f8e341e7b89417c3ae0d82aabbb50815ef7fcb4c1cc0a7b526f7e3cfeb3f1[ALL] 031b0bd98f546954e770785e810bb7a13e1d61b8f9d4baafe6be4da0e05c4e7cea"}, "vout": 1, "txid": "bd44aecab597deba282a16ef2137edc3bc15ae3620479f0b019782adfe4fe801"}], "txid": "2dc825719688aea773c89f429f87f452f89a77fedde37424e5c0bf52d38d2b09", "blocktime": 1537869901, "version": 1, "confirmations": 11523, "time": 1537869901, "locktime": 0, "vsize": 224, "size": 224}