{"hash": "1f2716febeadbbe6051279fc2e25f8c766143c3e2468f99f207ad57d7c55eda4", "blockhash": "0000000000000000001f76057863aec43deb6fa401d9628bb513d65a8098bfab", "vout": [{"scriptPubKey": {"reqSigs": 1, "hex": "76a9147a96eab8f24069da72a5dd5fa2ccc40e73cb81d488ac", "addresses": ["1CBCEHxENJnoA8iDCfASMnv8vBoTbPZFTy"], "asm": "OP_DUP OP_HASH160 7a96eab8f24069da72a5dd5fa2ccc40e73cb81d4 OP_EQUALVERIFY OP_CHECKSIG", "type": "pubkeyhash"}, "value": 0.0005639, "n": 0}, {"scriptPubKey": {"reqSigs": 1, "hex": "001416372a7d7e40014b3c20eead9471837e24e50f30", "addresses": ["bc1qzcmj5lt7gqq5k0pqa6keguvr0cjw2resptdz9g"], "asm": "0 16372a7d7e40014b3c20eead9471837e24e50f30", "type": "witness_v0_keyhash"}, "value": 1.046e-05, "n": 1}], "hex": "0100000000010192eb842e0e1ea96adf5197e8d764316277573d7c82380bbaf4625b6e4523a94b0100000000ffffffff0246dc0000000000001976a9147a96eab8f24069da72a5dd5fa2ccc40e73cb81d488ac160400000000000016001416372a7d7e40014b3c20eead9471837e24e50f300247304402205429080fbc5fbd309bc9864081938f30307827609115ddd3a2d6cd795db3112f0220467222c3bfd46ae47e54f6093f6c8c61fb48fb4770b9602696d0272d097eac5c0121022c2430e989c419730cf4faa3403b569224d5daad2ba41cbb5f0c35707206b71400000000", "vin": [{"txinwitness": ["304402205429080fbc5fbd309bc9864081938f30307827609115ddd3a2d6cd795db3112f0220467222c3bfd46ae47e54f6093f6c8c61fb48fb4770b9602696d0272d097eac5c01", "022c2430e989c419730cf4faa3403b569224d5daad2ba41cbb5f0c35707206b714"], "sequence": 4294967295, "scriptSig": {"hex": "", "asm": ""}, "vout": 1, "txid": "4ba923456e5b62f4ba0b38827c3d5777623164d7e89751df6aa91e0e2e84eb92"}], "txid": "2dcdac327bdee0b7889a2ee2e114b5639326a8be1e4575370c85c375a40ba9e3", "blocktime": 1537873891, "version": 1, "confirmations": 11478, "time": 1537873891, "locktime": 0, "vsize": 144, "size": 225}