{"hash": "2dd2b003f46f374fb4e286fa62b96d280af4f40c75ff69ada7f300120ebb6663", "blockhash": "0000000000000000000baef3f32e3676a92c3b2e5da21b426e4f302fc371ce76", "vout": [{"scriptPubKey": {"type": "nulldata", "hex": "6a4c500000782f0001de1981b465f712ca3bb2141427b7256b4774d339f6019d6ddc0f1b8ff117303654ec7e0189ce964ef04488eabc005baa1f5a06139127ec605acd1d100759d4ba30d2c37bb011d97e02cf", "asm": "OP_RETURN 0000782f0001de1981b465f712ca3bb2141427b7256b4774d339f6019d6ddc0f1b8ff117303654ec7e0189ce964ef04488eabc005baa1f5a06139127ec605acd1d100759d4ba30d2c37bb011d97e02cf"}, "value": 0.0, "n": 0}, {"scriptPubKey": {"reqSigs": 1, "hex": "76a914d0de8fd64967865821f7093f4dfc85ecaba20b1088ac", "addresses": ["1L3QAmfdSWSwTe5fWyF4d5tpUgJq7pqsJV"], "asm": "OP_DUP OP_HASH160 d0de8fd64967865821f7093f4dfc85ecaba20b10 OP_EQUALVERIFY OP_CHECKSIG", "type": "pubkeyhash"}, "value": 0.00626069, "n": 1}], "hex": "0100000001e8bd48ff08dc7e07f40ca8e1c6ce63555d4c6096628fdc5150f227607ea6b197010000006b483045022100da8919164e49fc349cc6b5ac7af09e19361eb5e31be4e7359a85d37a57b04aff022062ef01a97a177ab1ca5efb721fcd922c88c9ef697473a9318a2daa7b2fd54005012103af22a6fb43eab2195ae5877220af530dc537726dcfd43cc2b4d6e4ffd79dca4dffffffff020000000000000000536a4c500000782f0001de1981b465f712ca3bb2141427b7256b4774d339f6019d6ddc0f1b8ff117303654ec7e0189ce964ef04488eabc005baa1f5a06139127ec605acd1d100759d4ba30d2c37bb011d97e02cf958d0900000000001976a914d0de8fd64967865821f7093f4dfc85ecaba20b1088ac00000000", "vin": [{"sequence": 4294967295, "scriptSig": {"hex": "483045022100da8919164e49fc349cc6b5ac7af09e19361eb5e31be4e7359a85d37a57b04aff022062ef01a97a177ab1ca5efb721fcd922c88c9ef697473a9318a2daa7b2fd54005012103af22a6fb43eab2195ae5877220af530dc537726dcfd43cc2b4d6e4ffd79dca4d", "asm": "3045022100da8919164e49fc349cc6b5ac7af09e19361eb5e31be4e7359a85d37a57b04aff022062ef01a97a177ab1ca5efb721fcd922c88c9ef697473a9318a2daa7b2fd54005[ALL] 03af22a6fb43eab2195ae5877220af530dc537726dcfd43cc2b4d6e4ffd79dca4d"}, "vout": 1, "txid": "97b1a67e6027f25051dc8f6296604c5d5563cec6e1a80cf4077edc08ff48bde8"}], "txid": "2dd2b003f46f374fb4e286fa62b96d280af4f40c75ff69ada7f300120ebb6663", "blocktime": 1537876114, "version": 1, "confirmations": 11462, "time": 1537876114, "locktime": 0, "vsize": 284, "size": 284}