{"hash": "2dd3ed8e64659495fd935e83c46ee21a985b2460a8349b827bf48178eea12c99", "blockhash": "0000000000000000001e0dab787dd257d1dbfcb92a98c2207d5e1078be1f4165", "vout": [{"scriptPubKey": {"reqSigs": 1, "hex": "76a9148ac4aad2465772ca0cad80d6f9ca5b4a6528d9e888ac", "addresses": ["1Dejr9wZ3tRGW27fj5tzWRGnErjM6qTknr"], "asm": "OP_DUP OP_HASH160 8ac4aad2465772ca0cad80d6f9ca5b4a6528d9e8 OP_EQUALVERIFY OP_CHECKSIG", "type": "pubkeyhash"}, "value": 0.02876167, "n": 0}, {"scriptPubKey": {"reqSigs": 1, "hex": "76a914b45fb704b95db162227847913b49c0feb3a2339d88ac", "addresses": ["1HSjHvGZ9FtCzXLHPqP67U5TrD1L1CTdyZ"], "asm": "OP_DUP OP_HASH160 b45fb704b95db162227847913b49c0feb3a2339d OP_EQUALVERIFY OP_CHECKSIG", "type": "pubkeyhash"}, "value": 0.02, "n": 1}], "hex": "0100000001d900050170d7792460a11e6260882491ee7307df125fcdced561065c4b086e0c040000006a47304402200befcd64d0b0052de0a9c488a542c26e2177e89c9ce0c645c2a9f4c26da4fbf8022001c7c6df05e69af33296e6f527726bfcc0f838ee3b0aa94204c8965cfd0bdbaa0121032c9ff5c6522ed663ee3171346cafd3fecdacf7c288850a186d7f3eeff9ed01faffffffff0207e32b00000000001976a9148ac4aad2465772ca0cad80d6f9ca5b4a6528d9e888ac80841e00000000001976a914b45fb704b95db162227847913b49c0feb3a2339d88ac00000000", "vin": [{"sequence": 4294967295, "scriptSig": {"hex": "47304402200befcd64d0b0052de0a9c488a542c26e2177e89c9ce0c645c2a9f4c26da4fbf8022001c7c6df05e69af33296e6f527726bfcc0f838ee3b0aa94204c8965cfd0bdbaa0121032c9ff5c6522ed663ee3171346cafd3fecdacf7c288850a186d7f3eeff9ed01fa", "asm": "304402200befcd64d0b0052de0a9c488a542c26e2177e89c9ce0c645c2a9f4c26da4fbf8022001c7c6df05e69af33296e6f527726bfcc0f838ee3b0aa94204c8965cfd0bdbaa[ALL] 032c9ff5c6522ed663ee3171346cafd3fecdacf7c288850a186d7f3eeff9ed01fa"}, "vout": 4, "txid": "0c6e084b5c0661d5cecd5f12df0773ee91248860621ea1602479d770010500d9"}], "txid": "2dd3ed8e64659495fd935e83c46ee21a985b2460a8349b827bf48178eea12c99", "blocktime": 1537872475, "version": 1, "confirmations": 11486, "time": 1537872475, "locktime": 0, "vsize": 225, "size": 225}