{"hash": "2ddd2cede6683c32001800d90cf58e0e219a7665b749ec18f9d087b77145d628", "blockhash": "0000000000000000000baef3f32e3676a92c3b2e5da21b426e4f302fc371ce76", "vout": [{"scriptPubKey": {"reqSigs": 1, "hex": "76a9147765c1f82252264decccf9dcaf4853911aa8cb7588ac", "addresses": ["1BtKK5RUuYjYURGjjZNB4RHnDSevBBVCWQ"], "asm": "OP_DUP OP_HASH160 7765c1f82252264decccf9dcaf4853911aa8cb75 OP_EQUALVERIFY OP_CHECKSIG", "type": "pubkeyhash"}, "value": 0.0454729, "n": 0}, {"scriptPubKey": {"reqSigs": 1, "hex": "76a91435081f6f0d416507ecbdf4cb50d4d0382b5876ec88ac", "addresses": ["15qQYYoGGXcpqtyseNrrN3dXJz7orGbJKR"], "asm": "OP_DUP OP_HASH160 35081f6f0d416507ecbdf4cb50d4d0382b5876ec OP_EQUALVERIFY OP_CHECKSIG", "type": "pubkeyhash"}, "value": 0.0012086, "n": 1}], "hex": "0100000001829c92b9346ad570fa3166150f8d1f25c20032c31fe937a87841ff7db89b61e9010000006b483045022100c37e28c03efe467b400f5299db8fbd0e0a2bd6789ce992119b8c5ab695b7e8f2022077c5c43b8c55e697cd2984bf597a943f4bd7e074cbe9aeab3993f8bbdf871fff012102faf749c2bd432abb18ea11c7b39fea63747874ffa5a27100f196834b76becae5ffffffff02da624500000000001976a9147765c1f82252264decccf9dcaf4853911aa8cb7588ac1cd80100000000001976a91435081f6f0d416507ecbdf4cb50d4d0382b5876ec88ac00000000", "vin": [{"sequence": 4294967295, "scriptSig": {"hex": "483045022100c37e28c03efe467b400f5299db8fbd0e0a2bd6789ce992119b8c5ab695b7e8f2022077c5c43b8c55e697cd2984bf597a943f4bd7e074cbe9aeab3993f8bbdf871fff012102faf749c2bd432abb18ea11c7b39fea63747874ffa5a27100f196834b76becae5", "asm": "3045022100c37e28c03efe467b400f5299db8fbd0e0a2bd6789ce992119b8c5ab695b7e8f2022077c5c43b8c55e697cd2984bf597a943f4bd7e074cbe9aeab3993f8bbdf871fff[ALL] 02faf749c2bd432abb18ea11c7b39fea63747874ffa5a27100f196834b76becae5"}, "vout": 1, "txid": "e9619bb87dff4178a837e91fc33200c2251f8d0f156631fa70d56a34b9929c82"}], "txid": "2ddd2cede6683c32001800d90cf58e0e219a7665b749ec18f9d087b77145d628", "blocktime": 1537876114, "version": 1, "confirmations": 11459, "time": 1537876114, "locktime": 0, "vsize": 226, "size": 226}