{"hash": "2deb05d8cc3e57d5cf85511eba83cf40900bd4ae0d934e0588e0b6730e9a7e6d", "blockhash": "0000000000000000001cda96e906b7601b7a6fb1a3b62bca570a9e5d8f4b3de1", "vout": [{"scriptPubKey": {"reqSigs": 1, "hex": "76a914021aa4526ef550bc382ea15d428042dfb46261ad88ac", "addresses": ["1C8GVfG9NJAvNFZEEMqHNAfATpfRrenyJ"], "asm": "OP_DUP OP_HASH160 021aa4526ef550bc382ea15d428042dfb46261ad OP_EQUALVERIFY OP_CHECKSIG", "type": "pubkeyhash"}, "value": 0.07776804, "n": 0}], "hex": "0100000001ef7342275f8488e1adbb204725abb463724d23c16d284f5cbb57fcda58407ad9000000006a473044022029d8ed506357278f2c9a97aa04bc523ef73f03cb48049ea8d3a275f59faa3cf702205cb525491ad7df72ca0f654a4e0bbcf484437ddf41e2c7431848f06d5150d212012103c7d9069961676a4b1f364966e6eab512571bfd22c28c8928b9253e4a76245853ffffffff0124aa7600000000001976a914021aa4526ef550bc382ea15d428042dfb46261ad88ac00000000", "vin": [{"sequence": 4294967295, "scriptSig": {"hex": "473044022029d8ed506357278f2c9a97aa04bc523ef73f03cb48049ea8d3a275f59faa3cf702205cb525491ad7df72ca0f654a4e0bbcf484437ddf41e2c7431848f06d5150d212012103c7d9069961676a4b1f364966e6eab512571bfd22c28c8928b9253e4a76245853", "asm": "3044022029d8ed506357278f2c9a97aa04bc523ef73f03cb48049ea8d3a275f59faa3cf702205cb525491ad7df72ca0f654a4e0bbcf484437ddf41e2c7431848f06d5150d212[ALL] 03c7d9069961676a4b1f364966e6eab512571bfd22c28c8928b9253e4a76245853"}, "vout": 0, "txid": "d97a4058dafc57bb5c4f286dc1234d7263b4ab254720bbade188845f274273ef"}], "txid": "2deb05d8cc3e57d5cf85511eba83cf40900bd4ae0d934e0588e0b6730e9a7e6d", "blocktime": 1537873282, "version": 1, "confirmations": 11480, "time": 1537873282, "locktime": 0, "vsize": 191, "size": 191}