{"hash": "a540d05c09c14cb784ec13d34173b83284dcf9e211f08b25f797d13e84dd56d0", "blockhash": "0000000000000000001e0dab787dd257d1dbfcb92a98c2207d5e1078be1f4165", "vout": [{"scriptPubKey": {"reqSigs": 1, "hex": "a914b0f24c3ab69d6bc7e5b66993ddd0f1c77b735aa987", "addresses": ["3Hpd7T4d6NUhEgDAUv9XcrJa91Z1p2f3aX"], "asm": "OP_HASH160 b0f24c3ab69d6bc7e5b66993ddd0f1c77b735aa9 OP_EQUAL", "type": "scripthash"}, "value": 0.066, "n": 0}, {"scriptPubKey": {"reqSigs": 1, "hex": "a914b0d6ed7f2579e44bd98be14a579a43b69754d39187", "addresses": ["3Hp4KkD5pHuPMtSjJpMdXE6a9u4gm2WAPC"], "asm": "OP_HASH160 b0d6ed7f2579e44bd98be14a579a43b69754d391 OP_EQUAL", "type": "scripthash"}, "value": 0.21038553, "n": 1}, {"scriptPubKey": {"reqSigs": 1, "hex": "a914d783a532a1ab697b51cd072ed600ea77c4bb4a9b87", "addresses": ["3MLYufRo2XmhJR7ZknbWj2AQrdzQc8pVjp"], "asm": "OP_HASH160 d783a532a1ab697b51cd072ed600ea77c4bb4a9b OP_EQUAL", "type": "scripthash"}, "value": 25.62891972, "n": 2}], "hex": "010000000001073047a9f8362c79d4c1b3af485b52559f64b2b5a7947642c3ef10390149e81b3c0200000017160014000b814f2c1a19852357ed615a08ec572a781ed1ffffffffa8876cc4944f70ac7546eda0418905ef66c5434d5ec4157b8a584d70992d7aff01000000171600140d199580cf1cf35c8b3fa7e7f6bbfeeb3bb5e638ffffffff7a283223bf5228ba3f2cbd36d0de0c63112f3321036d12b92b4151dd1d58a3ff0100000017160014a8e519c7a4d4bfb005ce494467de2bf549339306ffffffff4280b3244ee3188680278f52f222c3a72776a8f833b0d301566dec7deb770ee90700000017160014510ae332f0d6458567a42417ac92dbde797d7b80ffffffff8e1773d8a3fd9d84c0de3d5493caba2e3302488d7c8a45db94d785418531db320100000017160014ebab86a8df393a202209cd4d9c4a23ee0d55fa08ffffffff64362206c84bab572bce799a16dbdea3183c9abae540ec90723bc6cedffc253f00000000171600147cf36216f019002f99319e61e010da323837a61fffffffffede20bb9411bf3bc357fbc9876b67f1be4b9686c44a4c6a3f0886a9f967fdcf30400000017160014567b90d24aa5d07241f8d18212116d17bfce299cffffffff0340b564000000000017a914b0f24c3ab69d6bc7e5b66993ddd0f1c77b735aa987d90541010000000017a914b0d6ed7f2579e44bd98be14a579a43b69754d39187c4a0c2980000000017a914d783a532a1ab697b51cd072ed600ea77c4bb4a9b8702473044022056854c031661bd11366dfe4bcaa11bd6806574abd08ff5c71cc93365aaf9762c02200ef701c3481ac6655f4aa586498d9a4ad241a45c6c0e6d216c1fe07aef72869d012102aad79950b2c2af3689e8644c89e9d10dff06c2d8926200496b92e9f7ccb0304c024730440220678d45de79451f7081a2aa88ada3ce17152abf3bbf51eaef314162a5c5a10a1a022048cb127e9e0bf7be280dbfe287ae2e1cadc5a258caa79f46f698e8ee0f1389fa012102083b49be10a71b82e98c762b2ab11d16b80a6b73ec3e1df2d54f3861477e70ec02483045022100b4ff30b08d0ffad8cf9bc8a49f9192f3bf4e7ad53810136dccc23b3641de02bc0220115f77d2571fd7c24df07fc9dd729311be855ed8445be58fd6821cb8904b8c440121020ae21ed026ec8bd2b4f0819e6b8605fa3ce9d3cc96247dc36a3e33c171862d0902483045022100ad658f597c5f13126db17ff4edbaa78563a42481926dba37a4b46ab11c116deb022075ea1c00d39875aea0ae60ebdbbd5a08438e8238384133fcb34e34efb245d4a701210216a986fa019edcfbb4b74e89aa8ed597c2787b130e5bd108313f9f705d7b063b02483045022100ccb43084ffc045259e516f1053a860164fbd0beb94bed0a77b972bbdef3dd2b80220559aca58cced7de4d9a096d38e10286f8ffd21052b988261575fef75c76d82bc012103b8a2147307011fa73d8a0b4b547e5dfd4ec3037b66c2830e560bd3a7d8a27c33024830450221009ec6ff73460a25832e09d90a9a6434d8ad046720f54bd23219d446cd89c8f3fc022023a29b72a92c4c0dade9819da26ecc729fd175d925c41b9299eefef91700cf66012102e8e153d131b5a0530ef94574f9d14779ca6138ded7827945aed031b1b1c1e2e002483045022100f8b3c2878c1044b9aa18dad80cd70e37f00f62b61155fc27973ba90b75921561022055ffb5ee4adcc2bcda97ec137ba7aae2cde724db522f441ce9ff1ce1788efbde012103a2c6293ae08e06d759b2a6371d040a479c4d45c3dd06b6ab4de67b08c58d9ca100000000", "vin": [{"txinwitness": ["3044022056854c031661bd11366dfe4bcaa11bd6806574abd08ff5c71cc93365aaf9762c02200ef701c3481ac6655f4aa586498d9a4ad241a45c6c0e6d216c1fe07aef72869d01", "02aad79950b2c2af3689e8644c89e9d10dff06c2d8926200496b92e9f7ccb0304c"], "sequence": 4294967295, "scriptSig": {"hex": "160014000b814f2c1a19852357ed615a08ec572a781ed1", "asm": "0014000b814f2c1a19852357ed615a08ec572a781ed1"}, "vout": 2, "txid": "3c1be849013910efc3427694a7b5b2649f55525b48afb3c1d4792c36f8a94730"}, {"txinwitness": ["30440220678d45de79451f7081a2aa88ada3ce17152abf3bbf51eaef314162a5c5a10a1a022048cb127e9e0bf7be280dbfe287ae2e1cadc5a258caa79f46f698e8ee0f1389fa01", "02083b49be10a71b82e98c762b2ab11d16b80a6b73ec3e1df2d54f3861477e70ec"], "sequence": 4294967295, "scriptSig": {"hex": "1600140d199580cf1cf35c8b3fa7e7f6bbfeeb3bb5e638", "asm": "00140d199580cf1cf35c8b3fa7e7f6bbfeeb3bb5e638"}, "vout": 1, "txid": "ff7a2d99704d588a7b15c45e4d43c566ef058941a0ed4675ac704f94c46c87a8"}, {"txinwitness": ["3045022100b4ff30b08d0ffad8cf9bc8a49f9192f3bf4e7ad53810136dccc23b3641de02bc0220115f77d2571fd7c24df07fc9dd729311be855ed8445be58fd6821cb8904b8c4401", "020ae21ed026ec8bd2b4f0819e6b8605fa3ce9d3cc96247dc36a3e33c171862d09"], "sequence": 4294967295, "scriptSig": {"hex": "160014a8e519c7a4d4bfb005ce494467de2bf549339306", "asm": "0014a8e519c7a4d4bfb005ce494467de2bf549339306"}, "vout": 1, "txid": "ffa3581ddd51412bb9126d0321332f11630cded036bd2c3fba2852bf2332287a"}, {"txinwitness": ["3045022100ad658f597c5f13126db17ff4edbaa78563a42481926dba37a4b46ab11c116deb022075ea1c00d39875aea0ae60ebdbbd5a08438e8238384133fcb34e34efb245d4a701", "0216a986fa019edcfbb4b74e89aa8ed597c2787b130e5bd108313f9f705d7b063b"], "sequence": 4294967295, "scriptSig": {"hex": "160014510ae332f0d6458567a42417ac92dbde797d7b80", "asm": "0014510ae332f0d6458567a42417ac92dbde797d7b80"}, "vout": 7, "txid": "e90e77eb7dec6d5601d3b033f8a87627a7c322f2528f27808618e34e24b38042"}, {"txinwitness": ["3045022100ccb43084ffc045259e516f1053a860164fbd0beb94bed0a77b972bbdef3dd2b80220559aca58cced7de4d9a096d38e10286f8ffd21052b988261575fef75c76d82bc01", "03b8a2147307011fa73d8a0b4b547e5dfd4ec3037b66c2830e560bd3a7d8a27c33"], "sequence": 4294967295, "scriptSig": {"hex": "160014ebab86a8df393a202209cd4d9c4a23ee0d55fa08", "asm": "0014ebab86a8df393a202209cd4d9c4a23ee0d55fa08"}, "vout": 1, "txid": "32db31854185d794db458a7c8d4802332ebaca93543ddec0849dfda3d873178e"}, {"txinwitness": ["30450221009ec6ff73460a25832e09d90a9a6434d8ad046720f54bd23219d446cd89c8f3fc022023a29b72a92c4c0dade9819da26ecc729fd175d925c41b9299eefef91700cf6601", "02e8e153d131b5a0530ef94574f9d14779ca6138ded7827945aed031b1b1c1e2e0"], "sequence": 4294967295, "scriptSig": {"hex": "1600147cf36216f019002f99319e61e010da323837a61f", "asm": "00147cf36216f019002f99319e61e010da323837a61f"}, "vout": 0, "txid": "3f25fcdfcec63b7290ec40e5ba9a3c18a3dedb169a79ce2b57ab4bc806223664"}, {"txinwitness": ["3045022100f8b3c2878c1044b9aa18dad80cd70e37f00f62b61155fc27973ba90b75921561022055ffb5ee4adcc2bcda97ec137ba7aae2cde724db522f441ce9ff1ce1788efbde01", "03a2c6293ae08e06d759b2a6371d040a479c4d45c3dd06b6ab4de67b08c58d9ca1"], "sequence": 4294967295, "scriptSig": {"hex": "160014567b90d24aa5d07241f8d18212116d17bfce299c", "asm": "0014567b90d24aa5d07241f8d18212116d17bfce299c"}, "vout": 4, "txid": "f3dc7f969f6a88f0a3c6a4446c68b9e41b7fb67698bc7f35bcf31b41b90be2ed"}], "txid": "2df9b4b90ff813699d025f769a9ad60875041115067192cf30038afbe7a44827", "blocktime": 1537872475, "version": 1, "confirmations": 11486, "time": 1537872475, "locktime": 0, "vsize": 743, "size": 1310}