{"hash": "2dfd8e0a5f112b0a1cf7a86a4191053f69190c1bf8002dde5f0c3f5be360bc37", "blockhash": "00000000000000000004ffacab907a6b429b9a5745fa0b75af4234bf69dd7176", "vout": [{"scriptPubKey": {"reqSigs": 1, "hex": "76a914f2aa01268d6d9c7991809fd80f0acaf4b61ec7c088ac", "addresses": ["1P86BYTNHNzLgLu1nFxtgpfvmqRWQsBg8T"], "asm": "OP_DUP OP_HASH160 f2aa01268d6d9c7991809fd80f0acaf4b61ec7c0 OP_EQUALVERIFY OP_CHECKSIG", "type": "pubkeyhash"}, "value": 0.00306324, "n": 0}, {"scriptPubKey": {"reqSigs": 1, "hex": "76a914adbf3994c1e30bbf7ef561cc6208560477a9432b88ac", "addresses": ["1GqgyjCAdy8qQwSS2njL6ppC9tKnngXCsB"], "asm": "OP_DUP OP_HASH160 adbf3994c1e30bbf7ef561cc6208560477a9432b OP_EQUALVERIFY OP_CHECKSIG", "type": "pubkeyhash"}, "value": 0.164, "n": 1}], "hex": "0100000002ced5fed762a8b13b0441378a3c1fa6873d75ae4c818544c8a4d7e0a27a40b31a010000006b4830450221009ec4c3dcc9490546d8a98edf177a74b02b795312a5b16f91ee6c5d05d89560c602207af9911c537be62155b4fde69ae98a74ceecb1645b7f8ebdcc9d4fbdf1f3979d01210265779d99e8998d3bc025f5699edaca3db426866686f9d952b5e4c89c58061b15ffffffffc7ae94b96f4c86e8630a4ae8b6ac4fcd1a805c26e69169c8cf7c9faadc69d9710f0000006a47304402204c631cea13ca1f49bdf8133ce2d390e8abb42d91c7727d8bf977a6162cb6cfb0022074ef3c9b5a35bf12abf883b4d5fea74089fc528f3a14448b1f7877a9513c2306012103ec238771a241f0fadf2e3360dcc5518b34ab95f4e29b3909aab8521a9999b0b0ffffffff0294ac0400000000001976a914f2aa01268d6d9c7991809fd80f0acaf4b61ec7c088ac803efa00000000001976a914adbf3994c1e30bbf7ef561cc6208560477a9432b88ac00000000", "vin": [{"sequence": 4294967295, "scriptSig": {"hex": "4830450221009ec4c3dcc9490546d8a98edf177a74b02b795312a5b16f91ee6c5d05d89560c602207af9911c537be62155b4fde69ae98a74ceecb1645b7f8ebdcc9d4fbdf1f3979d01210265779d99e8998d3bc025f5699edaca3db426866686f9d952b5e4c89c58061b15", "asm": "30450221009ec4c3dcc9490546d8a98edf177a74b02b795312a5b16f91ee6c5d05d89560c602207af9911c537be62155b4fde69ae98a74ceecb1645b7f8ebdcc9d4fbdf1f3979d[ALL] 0265779d99e8998d3bc025f5699edaca3db426866686f9d952b5e4c89c58061b15"}, "vout": 1, "txid": "1ab3407aa2e0d7a4c84485814cae753d87a61f3c8a3741043bb1a862d7fed5ce"}, {"sequence": 4294967295, "scriptSig": {"hex": "47304402204c631cea13ca1f49bdf8133ce2d390e8abb42d91c7727d8bf977a6162cb6cfb0022074ef3c9b5a35bf12abf883b4d5fea74089fc528f3a14448b1f7877a9513c2306012103ec238771a241f0fadf2e3360dcc5518b34ab95f4e29b3909aab8521a9999b0b0", "asm": "304402204c631cea13ca1f49bdf8133ce2d390e8abb42d91c7727d8bf977a6162cb6cfb0022074ef3c9b5a35bf12abf883b4d5fea74089fc528f3a14448b1f7877a9513c2306[ALL] 03ec238771a241f0fadf2e3360dcc5518b34ab95f4e29b3909aab8521a9999b0b0"}, "vout": 15, "txid": "71d969dcaa9f7ccfc86991e6265c801acd4facb6e84a0a63e8864c6fb994aec7"}], "txid": "2dfd8e0a5f112b0a1cf7a86a4191053f69190c1bf8002dde5f0c3f5be360bc37", "blocktime": 1537875543, "version": 1, "confirmations": 11464, "time": 1537875543, "locktime": 0, "vsize": 373, "size": 373}