{"hash": "1e970322ddebefa6dd2b51ded39b27c7fc2e0b59ffe2ae851134d70ddc17292a", "blockhash": "0000000000000000000e13cef7c366c0283d82e591d1acd082e914b08063cdf1", "vout": [{"scriptPubKey": {"reqSigs": 1, "hex": "a9144109572262ea5ce6a584773d8be78a16776aa63d87", "addresses": ["37cu2zYPvaeJPMBX5sQzqUxwvJu4FETeV9"], "asm": "OP_HASH160 4109572262ea5ce6a584773d8be78a16776aa63d OP_EQUAL", "type": "scripthash"}, "value": 0.01559797, "n": 0}, {"scriptPubKey": {"reqSigs": 1, "hex": "a914943772f5e2e5fdb2968c0efa0c0617906f41454187", "addresses": ["3FCiMbwQ5M7k6krtCYjKvxamCKra26VcZQ"], "asm": "OP_HASH160 943772f5e2e5fdb2968c0efa0c0617906f414541 OP_EQUAL", "type": "scripthash"}, "value": 0.08438661, "n": 1}], "hex": "0200000000010233fdd28ffcecbb84d3f29d7433570ec2d092d2c960aae1771a019fe79130209a010000001716001457748403289aaeaf25fb5e38dd2a4d5a5f87fc99fdffffff9c6d883cea235e25a8ef5ff1cd5107434aac924671bf0d0e08c4622a68a068d801000000171600141289d37bd709472d730731c326f7b692b4ced2f6fdffffff02f5cc17000000000017a9144109572262ea5ce6a584773d8be78a16776aa63d8785c380000000000017a914943772f5e2e5fdb2968c0efa0c0617906f41454187024830450221009390878025e7641b839e4264843f7ab7bfe86c91faab4e23993974fd7fd694db022074b4d1450fd5b94b31379be8e8d74155fffd680bcfa4734100eef70142156b250121036c9932cb29eff88374714981b3b603a73283222edcf09452573f3296d70b8a5a0247304402206f2a6dce624b555469ca9f5a11097ca112ef06ec2e64572a59e06945ef23092b022033cfdb61f67e2828218cfc0538ae171cc3032820344e157c611af01fd92f6bd20121024b3e9c555d17013ff669f70c6a6a241cebb723dec64f800131e15f4a50991a3df7480800", "vin": [{"txinwitness": ["30450221009390878025e7641b839e4264843f7ab7bfe86c91faab4e23993974fd7fd694db022074b4d1450fd5b94b31379be8e8d74155fffd680bcfa4734100eef70142156b2501", "036c9932cb29eff88374714981b3b603a73283222edcf09452573f3296d70b8a5a"], "sequence": 4294967293, "scriptSig": {"hex": "16001457748403289aaeaf25fb5e38dd2a4d5a5f87fc99", "asm": "001457748403289aaeaf25fb5e38dd2a4d5a5f87fc99"}, "vout": 1, "txid": "9a203091e79f011a77e1aa60c9d292d0c20e5733749df2d384bbecfc8fd2fd33"}, {"txinwitness": ["304402206f2a6dce624b555469ca9f5a11097ca112ef06ec2e64572a59e06945ef23092b022033cfdb61f67e2828218cfc0538ae171cc3032820344e157c611af01fd92f6bd201", "024b3e9c555d17013ff669f70c6a6a241cebb723dec64f800131e15f4a50991a3d"], "sequence": 4294967293, "scriptSig": {"hex": "1600141289d37bd709472d730731c326f7b692b4ced2f6", "asm": "00141289d37bd709472d730731c326f7b692b4ced2f6"}, "vout": 1, "txid": "d868a0682a62c4080e0dbf714692ac4a430751cdf15fefa8255e23ea3c886d9c"}], "txid": "2dfef2ffc7eb07d778581f17391046823d0ecc4f0ee0702e7c24a3673f976489", "blocktime": 1537871767, "version": 2, "confirmations": 11492, "time": 1537871767, "locktime": 542967, "vsize": 257, "size": 419}