{"hash": "184a8b7c00d406522b7c6e18a351e2803ab9d534ceb856952b438d611391cf6e", "blockhash": "0000000000000000001e0dab787dd257d1dbfcb92a98c2207d5e1078be1f4165", "vout": [{"scriptPubKey": {"reqSigs": 1, "hex": "a91420fc80cc4be854c260693090a8d1b070f402d6eb87", "addresses": ["34hS2uXgcL62RMFyvvy1oW3Xzor82Z2nk1"], "asm": "OP_HASH160 20fc80cc4be854c260693090a8d1b070f402d6eb OP_EQUAL", "type": "scripthash"}, "value": 0.5, "n": 0}, {"scriptPubKey": {"reqSigs": 1, "hex": "a914b7d2f9250c9f3f3abac8f7f3a82b8ff3742870f487", "addresses": ["3JSzKKp2Js7L1VnJ86ewvVSsszzqhBg8sF"], "asm": "OP_HASH160 b7d2f9250c9f3f3abac8f7f3a82b8ff3742870f4 OP_EQUAL", "type": "scripthash"}, "value": 6.93548001, "n": 1}], "hex": "02000000000101b349dc08cb6bd08db0291ddfbf3997a5d86370f015cff4a863fe99e869bea5b1000000001716001459aca2ff8f9d9bc62633b358fb1d5d9fb88aecdbfdffffff0280f0fa020000000017a91420fc80cc4be854c260693090a8d1b070f402d6eb87e1b356290000000017a914b7d2f9250c9f3f3abac8f7f3a82b8ff3742870f48702483045022100aabaeac771784cd41deb031f1ae24e42b03de5c6c0282898bb79a6c47c45c51d022024d0ea4498e08608937cb7222b4ea2ad09a2e0c688a46fcdd9417da569be5118012102e6e01390192b7c2cf9df299cca682653fc9de097c51b4a6a0d1da5ecfd619dee08490800", "vin": [{"txinwitness": ["3045022100aabaeac771784cd41deb031f1ae24e42b03de5c6c0282898bb79a6c47c45c51d022024d0ea4498e08608937cb7222b4ea2ad09a2e0c688a46fcdd9417da569be511801", "02e6e01390192b7c2cf9df299cca682653fc9de097c51b4a6a0d1da5ecfd619dee"], "sequence": 4294967293, "scriptSig": {"hex": "16001459aca2ff8f9d9bc62633b358fb1d5d9fb88aecdb", "asm": "001459aca2ff8f9d9bc62633b358fb1d5d9fb88aecdb"}, "vout": 0, "txid": "b1a5be69e899fe63a8f4cf15f07063d8a59739bfdf1d29b08dd06bcb08dc49b3"}], "txid": "2e035c0c9cf77763b0c9a6f8a63bf1267e6f09033f2df5a15ae6d5bd8209a97b", "blocktime": 1537872475, "version": 2, "confirmations": 11486, "time": 1537872475, "locktime": 542984, "vsize": 166, "size": 248}