{"hash": "f215f03144385f751a45411a03d0bbdfbbbfb75b2a5435f62325b7046a3cd651", "blockhash": "0000000000000000001cda96e906b7601b7a6fb1a3b62bca570a9e5d8f4b3de1", "vout": [{"scriptPubKey": {"reqSigs": 1, "hex": "76a914ea9c831b52c211f357fb7c93f7c6a07475d7664888ac", "addresses": ["1NPWcYSnykbysrSwLrzjZewZHubocrJ9XZ"], "asm": "OP_DUP OP_HASH160 ea9c831b52c211f357fb7c93f7c6a07475d76648 OP_EQUALVERIFY OP_CHECKSIG", "type": "pubkeyhash"}, "value": 0.002856, "n": 0}, {"scriptPubKey": {"reqSigs": 1, "hex": "a9142dc538ce71cb10a50d79fee1183261a5aeb32cf087", "addresses": ["35s2bPoarLj4QBiUDCELzcdxvdESLJDA31"], "asm": "OP_HASH160 2dc538ce71cb10a50d79fee1183261a5aeb32cf0 OP_EQUAL", "type": "scripthash"}, "value": 0.01875718, "n": 1}], "hex": "0100000000010170cb65158af0ae10374f4959be1d30f350affc806871f8d807780a6f610a40e30100000023220020a43533702b8f918e85109c5bb0cb3d02adee351674fb390409f559de892642a5ffffffff02a05b0400000000001976a914ea9c831b52c211f357fb7c93f7c6a07475d7664888ac069f1c000000000017a9142dc538ce71cb10a50d79fee1183261a5aeb32cf08704004730440220200c97a7382718f86184a3e9acb2e2d9ffa044e5d108266959554ac94c211a2c02201aac0324a614784b199849fc6bbb3035ff9810b6e19b0f401b44b0fe66313d07014730440220324bf2836111b4ee985de966b5e3aa87f7adf7835b9f3c55b7a817079b35db45022067abb772cf363cf9cfbf0b5fb34504b5132c9b408b7523c287b4d89ec5b3ad590147522103b365417e780d3880bb487601bec488db710283cefbf9f514ea1ec0c1ad1680d4210203c534d0fa987b3bd3c576fb75f2fc2fd33a71170864e7d6ef4934997f28cd7052ae00000000", "vin": [{"txinwitness": ["", "30440220200c97a7382718f86184a3e9acb2e2d9ffa044e5d108266959554ac94c211a2c02201aac0324a614784b199849fc6bbb3035ff9810b6e19b0f401b44b0fe66313d0701", "30440220324bf2836111b4ee985de966b5e3aa87f7adf7835b9f3c55b7a817079b35db45022067abb772cf363cf9cfbf0b5fb34504b5132c9b408b7523c287b4d89ec5b3ad5901", "522103b365417e780d3880bb487601bec488db710283cefbf9f514ea1ec0c1ad1680d4210203c534d0fa987b3bd3c576fb75f2fc2fd33a71170864e7d6ef4934997f28cd7052ae"], "sequence": 4294967295, "scriptSig": {"hex": "220020a43533702b8f918e85109c5bb0cb3d02adee351674fb390409f559de892642a5", "asm": "0020a43533702b8f918e85109c5bb0cb3d02adee351674fb390409f559de892642a5"}, "vout": 1, "txid": "e3400a616f0a7807d8f8716880fcaf50f3301dbe59494f3710aef08a1565cb70"}], "txid": "2e0333171c82845629e84de446005f0767e3d03a8c604274e2896b99563af705", "blocktime": 1537873282, "version": 1, "confirmations": 11484, "time": 1537873282, "locktime": 0, "vsize": 207, "size": 372}