{"hash": "2e157beb2f80841edf8490e02076536db90e2ac41c8101078c1aa69f2cc45b57", "blockhash": "0000000000000000001f76057863aec43deb6fa401d9628bb513d65a8098bfab", "vout": [{"scriptPubKey": {"reqSigs": 1, "hex": "76a914c5b7fd920dce5f61934e792c7e6fcc829aff533d88ac", "addresses": ["1K2SXgApmo9uZoyahvsbSanpVWbzZWVVMF"], "asm": "OP_DUP OP_HASH160 c5b7fd920dce5f61934e792c7e6fcc829aff533d OP_EQUALVERIFY OP_CHECKSIG", "type": "pubkeyhash"}, "value": 0.0042784, "n": 0}, {"scriptPubKey": {"type": "nulldata", "hex": "6a28466100000002707c20ac96607395f5588b94bba1a15aa1dc9dbfcdb719560a490862730305530cb2", "asm": "OP_RETURN 466100000002707c20ac96607395f5588b94bba1a15aa1dc9dbfcdb719560a490862730305530cb2"}, "value": 0.0, "n": 1}], "hex": "0200000001c4acfcf449c1f266ad638f214d7d4622c08d48ce278eb5925f09bcc7ce876cd6000000006b483045022100eacef18be370b6ae1d9c91eafca502da746cc9a3672f311d920e0c5a4f142704022001fbf9098fa64666dd98bb5b05db1ac8a72617ad32e361e06d5874b0f8fb08600121027e706cd1c919431b693a0247e4a239e632659a8723a621a91ec610c64f4173acffffffff0240870600000000001976a914c5b7fd920dce5f61934e792c7e6fcc829aff533d88ac00000000000000002a6a28466100000002707c20ac96607395f5588b94bba1a15aa1dc9dbfcdb719560a490862730305530cb200000000", "vin": [{"sequence": 4294967295, "scriptSig": {"hex": "483045022100eacef18be370b6ae1d9c91eafca502da746cc9a3672f311d920e0c5a4f142704022001fbf9098fa64666dd98bb5b05db1ac8a72617ad32e361e06d5874b0f8fb08600121027e706cd1c919431b693a0247e4a239e632659a8723a621a91ec610c64f4173ac", "asm": "3045022100eacef18be370b6ae1d9c91eafca502da746cc9a3672f311d920e0c5a4f142704022001fbf9098fa64666dd98bb5b05db1ac8a72617ad32e361e06d5874b0f8fb0860[ALL] 027e706cd1c919431b693a0247e4a239e632659a8723a621a91ec610c64f4173ac"}, "vout": 0, "txid": "d66c87cec7bc095f92b58e27ce488dc022467d4d218f63ad66f2c149f4fcacc4"}], "txid": "2e157beb2f80841edf8490e02076536db90e2ac41c8101078c1aa69f2cc45b57", "blocktime": 1537873891, "version": 2, "confirmations": 11475, "time": 1537873891, "locktime": 0, "vsize": 243, "size": 243}