{"hash": "2e17f20856c964e225f1ac374a93cab355c1bb2dce21f38afa268277e044b5e3", "blockhash": "00000000000000000018f53835495a110e01622372bf6ae95dc86f2b0ab887b0", "vout": [{"scriptPubKey": {"reqSigs": 1, "hex": "76a914d16c0188fed9cf8d1247c28d1d0a9b79546e246c88ac", "addresses": ["1L6KcUtHxuCK1XQtag7uDwLdG5Gfzy3deJ"], "asm": "OP_DUP OP_HASH160 d16c0188fed9cf8d1247c28d1d0a9b79546e246c OP_EQUALVERIFY OP_CHECKSIG", "type": "pubkeyhash"}, "value": 0.01780723, "n": 0}, {"scriptPubKey": {"reqSigs": 1, "hex": "76a9148a735a01f5b481a3b8e16e05e76544053e4d494388ac", "addresses": ["1Dd4SF2Ee456YjBdTjwoYet4ga11Q65Cwr"], "asm": "OP_DUP OP_HASH160 8a735a01f5b481a3b8e16e05e76544053e4d4943 OP_EQUALVERIFY OP_CHECKSIG", "type": "pubkeyhash"}, "value": 0.03124663, "n": 1}], "hex": "0100000001391132bc90b1035ccb9ce5fdb23ddb98b00b9eb1e2478a092fd2e1e1f4bb6229010000006b483045022100a39f8c1409a104a7d6dd63c68a935ff41ddb2296947aee2a5ed9539adeefd1c10220736c659d27e4472ea6384c0f2f575ac1b1af820ade969656bd02a5c8956aa1610121024eefbb07caf0fbfc655c9bd5c124466412bbff033c1b3145fd395aa87b7b2744ffffffff02f32b1b00000000001976a914d16c0188fed9cf8d1247c28d1d0a9b79546e246c88acb7ad2f00000000001976a9148a735a01f5b481a3b8e16e05e76544053e4d494388ac00000000", "vin": [{"sequence": 4294967295, "scriptSig": {"hex": "483045022100a39f8c1409a104a7d6dd63c68a935ff41ddb2296947aee2a5ed9539adeefd1c10220736c659d27e4472ea6384c0f2f575ac1b1af820ade969656bd02a5c8956aa1610121024eefbb07caf0fbfc655c9bd5c124466412bbff033c1b3145fd395aa87b7b2744", "asm": "3045022100a39f8c1409a104a7d6dd63c68a935ff41ddb2296947aee2a5ed9539adeefd1c10220736c659d27e4472ea6384c0f2f575ac1b1af820ade969656bd02a5c8956aa161[ALL] 024eefbb07caf0fbfc655c9bd5c124466412bbff033c1b3145fd395aa87b7b2744"}, "vout": 1, "txid": "2962bbf4e1e1d22f098a47e2b19e0bb098db3db2fde59ccb5c03b190bc321139"}], "txid": "2e17f20856c964e225f1ac374a93cab355c1bb2dce21f38afa268277e044b5e3", "blocktime": 1537870928, "version": 1, "confirmations": 11514, "time": 1537870928, "locktime": 0, "vsize": 226, "size": 226}