{"hash": "8cf482652ea8d80ad060d6f9ed32c03a2fe53a4ca12fc2b63e4da37053363588", "blockhash": "0000000000000000001f76057863aec43deb6fa401d9628bb513d65a8098bfab", "vout": [{"scriptPubKey": {"reqSigs": 1, "hex": "0014c2dcd1186a4db1d3f439795be89e1e481dfb69f9", "addresses": ["bc1qctwdzxr2fkca8ape09d738s7fqwlk60e8k0pze"], "asm": "0 c2dcd1186a4db1d3f439795be89e1e481dfb69f9", "type": "witness_v0_keyhash"}, "value": 9.49e-05, "n": 0}, {"scriptPubKey": {"reqSigs": 1, "hex": "76a9140cff5481806ac8282af8c3b5f9a30e48ac33d16688ac", "addresses": ["12Biyx1R967x6Ete5k1Qbj5TMBdKYCffPZ"], "asm": "OP_DUP OP_HASH160 0cff5481806ac8282af8c3b5f9a30e48ac33d166 OP_EQUALVERIFY OP_CHECKSIG", "type": "pubkeyhash"}, "value": 0.004, "n": 1}], "hex": "01000000000101b074a0650b20d2c392c3745a8b894aa7a45bcfeed842d0305582255eb008dd230000000017160014d2037fe5ac3b1c8dda5231973f02f3010bf28b68ffffffff021225000000000000160014c2dcd1186a4db1d3f439795be89e1e481dfb69f9801a0600000000001976a9140cff5481806ac8282af8c3b5f9a30e48ac33d16688ac02483045022100f863576401aec4c59399da24b715930f433c564c56e7e46e82adb347fb9d14c802202164ba4126269471fb9748a3f57c5acd7331afce953de6b417bbf0eec540ab97012102c5492b634b0fe05fd3670b1590591a6337cde10229c8bd1aa78c78543291164600000000", "vin": [{"txinwitness": ["3045022100f863576401aec4c59399da24b715930f433c564c56e7e46e82adb347fb9d14c802202164ba4126269471fb9748a3f57c5acd7331afce953de6b417bbf0eec540ab9701", "02c5492b634b0fe05fd3670b1590591a6337cde10229c8bd1aa78c785432911646"], "sequence": 4294967295, "scriptSig": {"hex": "160014d2037fe5ac3b1c8dda5231973f02f3010bf28b68", "asm": "0014d2037fe5ac3b1c8dda5231973f02f3010bf28b68"}, "vout": 0, "txid": "23dd08b05e25825530d042d8eecf5ba4a74a898b5a74c392c3d2200b65a074b0"}], "txid": "2e19419c2c8f97b303cbe438274aed8a49024a0b9c6520daf0d9889945b4da1b", "blocktime": 1537873891, "version": 1, "confirmations": 11478, "time": 1537873891, "locktime": 0, "vsize": 167, "size": 249}