{"hash": "2e1ff2c3b62ac674c09acea17200a5e89d6f50dd9f8f49574f080d45a8a322e7", "blockhash": "0000000000000000000baef3f32e3676a92c3b2e5da21b426e4f302fc371ce76", "vout": [{"scriptPubKey": {"reqSigs": 1, "hex": "a91419fdf82e36e9ac43d4b42522ac79c480492296f987", "addresses": ["344T4Srg1H7wZdLhaGJALCanzAZsjk2pZ3"], "asm": "OP_HASH160 19fdf82e36e9ac43d4b42522ac79c480492296f9 OP_EQUAL", "type": "scripthash"}, "value": 0.13612, "n": 0}], "hex": "0100000003ea8b5f2f29a66a5c36335c838392d1d52b5416a9eea9fa6e912d1ec7f7f3713d000000006a473044022009c10500b9791523865b8b26b7eef7d53926acff0cc8d31c1bb37008e56de29902206d6413f43c5e5f8cb45d67ea766b62f91b7a103f0a214894853a4b09a5c4ee5101210255f448318dea7b80b2023326e94f79b49ca339a9429f0284842aacc1f95fd987ffffffffaa49606870d3615420fee76d5eb4aca2b9a371c8eab2cdfbdfae7e2f556bec56000000006b483045022100ef52815e4b3687e7e57a4acc0f8902d4ad9a04f4e4f0b7c508d89cca627392ee0220047d4f8893a1ca328617fe78860eadd8d13186607f49fd5458f90022e81840540121026192a38b4ad89b975948a8489469f21f20163cce8b8219738e645b90f5e8da6effffffff0307ab3a316b74ea3a5317c1602355be8008b53757b95779fbac053fc2020c94000000006b483045022100907f8d08674f9683f2cbf6b74284091e62b428bdb8b30968f844109f14e6bb76022018a749100adfa31412bf020f0a00b4d68f7bfc25b84d440d56073a9254f12ec80121026192a38b4ad89b975948a8489469f21f20163cce8b8219738e645b90f5e8da6effffffff01e0b3cf000000000017a91419fdf82e36e9ac43d4b42522ac79c480492296f98700000000", "vin": [{"sequence": 4294967295, "scriptSig": {"hex": "473044022009c10500b9791523865b8b26b7eef7d53926acff0cc8d31c1bb37008e56de29902206d6413f43c5e5f8cb45d67ea766b62f91b7a103f0a214894853a4b09a5c4ee5101210255f448318dea7b80b2023326e94f79b49ca339a9429f0284842aacc1f95fd987", "asm": "3044022009c10500b9791523865b8b26b7eef7d53926acff0cc8d31c1bb37008e56de29902206d6413f43c5e5f8cb45d67ea766b62f91b7a103f0a214894853a4b09a5c4ee51[ALL] 0255f448318dea7b80b2023326e94f79b49ca339a9429f0284842aacc1f95fd987"}, "vout": 0, "txid": "3d71f3f7c71e2d916efaa9eea916542bd5d19283835c33365c6aa6292f5f8bea"}, {"sequence": 4294967295, "scriptSig": {"hex": "483045022100ef52815e4b3687e7e57a4acc0f8902d4ad9a04f4e4f0b7c508d89cca627392ee0220047d4f8893a1ca328617fe78860eadd8d13186607f49fd5458f90022e81840540121026192a38b4ad89b975948a8489469f21f20163cce8b8219738e645b90f5e8da6e", "asm": "3045022100ef52815e4b3687e7e57a4acc0f8902d4ad9a04f4e4f0b7c508d89cca627392ee0220047d4f8893a1ca328617fe78860eadd8d13186607f49fd5458f90022e8184054[ALL] 026192a38b4ad89b975948a8489469f21f20163cce8b8219738e645b90f5e8da6e"}, "vout": 0, "txid": "56ec6b552f7eaedffbcdb2eac871a3b9a2acb45e6de7fe205461d370686049aa"}, {"sequence": 4294967295, "scriptSig": {"hex": "483045022100907f8d08674f9683f2cbf6b74284091e62b428bdb8b30968f844109f14e6bb76022018a749100adfa31412bf020f0a00b4d68f7bfc25b84d440d56073a9254f12ec80121026192a38b4ad89b975948a8489469f21f20163cce8b8219738e645b90f5e8da6e", "asm": "3045022100907f8d08674f9683f2cbf6b74284091e62b428bdb8b30968f844109f14e6bb76022018a749100adfa31412bf020f0a00b4d68f7bfc25b84d440d56073a9254f12ec8[ALL] 026192a38b4ad89b975948a8489469f21f20163cce8b8219738e645b90f5e8da6e"}, "vout": 0, "txid": "940c02c23f05acfb7957b95737b50880be552360c117533aea746b313aab0703"}], "txid": "2e1ff2c3b62ac674c09acea17200a5e89d6f50dd9f8f49574f080d45a8a322e7", "blocktime": 1537876114, "version": 1, "confirmations": 11460, "time": 1537876114, "locktime": 0, "vsize": 485, "size": 485}