{"hash": "2e26597eeca88652c328095e473ef5672630821ebe881a00a75242d10345813a", "blockhash": "0000000000000000000dcc0f55137456b1a82d3642486a52398922ac4d620174", "vout": [{"scriptPubKey": {"reqSigs": 1, "hex": "a91414b1c380f4b7a98f62b896e52824bbc1df2aaeb887", "addresses": ["33aSPcndZZswm2pxBz2Wd5spbjbB4dpgZu"], "asm": "OP_HASH160 14b1c380f4b7a98f62b896e52824bbc1df2aaeb8 OP_EQUAL", "type": "scripthash"}, "value": 0.001, "n": 0}, {"scriptPubKey": {"reqSigs": 1, "hex": "76a914531a831a6e1831c43348a32cd20db750ec15ef4488ac", "addresses": ["18aQr1xNDJSkXvgbZnsj6BqVRrhSv7a4dB"], "asm": "OP_DUP OP_HASH160 531a831a6e1831c43348a32cd20db750ec15ef44 OP_EQUALVERIFY OP_CHECKSIG", "type": "pubkeyhash"}, "value": 0.00526782, "n": 1}], "hex": "01000000013d4e50ca3c3322ba1db78f38d947eb1c9c43fbeee3a44ec739e48120d5bed015010000006a473044022043e53cad68bfa3cda00cb4ba7f906196f7ffb8c2d6f79a8194442cf96238cd8302203b40af9a571d77f56466a42f9dbb1eb8bc15f2c9843cfaacc066891594f9d4b5012102022cc31e9c00c680d1db02441a9368169660091e5ee5096593b677b433ccc9d9ffffffff02a08601000000000017a91414b1c380f4b7a98f62b896e52824bbc1df2aaeb887be090800000000001976a914531a831a6e1831c43348a32cd20db750ec15ef4488ac00000000", "vin": [{"sequence": 4294967295, "scriptSig": {"hex": "473044022043e53cad68bfa3cda00cb4ba7f906196f7ffb8c2d6f79a8194442cf96238cd8302203b40af9a571d77f56466a42f9dbb1eb8bc15f2c9843cfaacc066891594f9d4b5012102022cc31e9c00c680d1db02441a9368169660091e5ee5096593b677b433ccc9d9", "asm": "3044022043e53cad68bfa3cda00cb4ba7f906196f7ffb8c2d6f79a8194442cf96238cd8302203b40af9a571d77f56466a42f9dbb1eb8bc15f2c9843cfaacc066891594f9d4b5[ALL] 02022cc31e9c00c680d1db02441a9368169660091e5ee5096593b677b433ccc9d9"}, "vout": 1, "txid": "15d0bed52081e439c74ea4e3eefb439c1ceb47d9388fb71dba22333cca504e3d"}], "txid": "2e26597eeca88652c328095e473ef5672630821ebe881a00a75242d10345813a", "blocktime": 1537870268, "version": 1, "confirmations": 11518, "time": 1537870268, "locktime": 0, "vsize": 223, "size": 223}