{"hash": "2e289a1ab1d93437d07805629f357ee43245f79acbaed82515542278ea0cd97d", "blockhash": "0000000000000000001f76057863aec43deb6fa401d9628bb513d65a8098bfab", "vout": [{"scriptPubKey": {"reqSigs": 1, "hex": "76a914c69b7e7f8b85e3828998510c093b539f27eb7f6988ac", "addresses": ["1K794uSrTJnqS8m7eVPJ7uESPxcpbS3x3W"], "asm": "OP_DUP OP_HASH160 c69b7e7f8b85e3828998510c093b539f27eb7f69 OP_EQUALVERIFY OP_CHECKSIG", "type": "pubkeyhash"}, "value": 0.00748489, "n": 0}, {"scriptPubKey": {"reqSigs": 1, "hex": "a9142860f8b759ba22db4e5aa797eb235a1e75e2a05387", "addresses": ["35NX7vDAPaUsSu1jnDhgAMyxJUewYdvbmD"], "asm": "OP_HASH160 2860f8b759ba22db4e5aa797eb235a1e75e2a053 OP_EQUAL", "type": "scripthash"}, "value": 0.01020285, "n": 1}], "hex": "01000000016ad2c7bc5df03a7ec59b82239faa50ec7b275dcbd69b65d5992e01852eba7ec1010000006b48304502210095f0ec28489d6dca9f2dff6ee835e2f9dc435ef1593bae34b41b242d7e273239022042da3970da3d6de2c23d58cb03e8484e02ad5e5c770857e418d0a44ff99939ad012102f3c0a178bbc19b8a1c18c260513972729442ea71f1b92fb2777eacb00c6ded93ffffffff02c96b0b00000000001976a914c69b7e7f8b85e3828998510c093b539f27eb7f6988ac7d910f000000000017a9142860f8b759ba22db4e5aa797eb235a1e75e2a0538700000000", "vin": [{"sequence": 4294967295, "scriptSig": {"hex": "48304502210095f0ec28489d6dca9f2dff6ee835e2f9dc435ef1593bae34b41b242d7e273239022042da3970da3d6de2c23d58cb03e8484e02ad5e5c770857e418d0a44ff99939ad012102f3c0a178bbc19b8a1c18c260513972729442ea71f1b92fb2777eacb00c6ded93", "asm": "304502210095f0ec28489d6dca9f2dff6ee835e2f9dc435ef1593bae34b41b242d7e273239022042da3970da3d6de2c23d58cb03e8484e02ad5e5c770857e418d0a44ff99939ad[ALL] 02f3c0a178bbc19b8a1c18c260513972729442ea71f1b92fb2777eacb00c6ded93"}, "vout": 1, "txid": "c17eba2e85012e99d5659bd6cb5d277bec50aa9f23829bc57e3af05dbcc7d26a"}], "txid": "2e289a1ab1d93437d07805629f357ee43245f79acbaed82515542278ea0cd97d", "blocktime": 1537873891, "version": 1, "confirmations": 11475, "time": 1537873891, "locktime": 0, "vsize": 224, "size": 224}