{"hash": "ecf18d0cef3b3cb4e56029650a654313c30bae947cad9bfacd78dc741ef8c3e0", "blockhash": "0000000000000000001cda96e906b7601b7a6fb1a3b62bca570a9e5d8f4b3de1", "vout": [{"scriptPubKey": {"reqSigs": 1, "hex": "a9143c0383ba6125e0abc40b68f73d25d3574d644e7a87", "addresses": ["37ALgFSABvoKr2iteJHhrEWej9j6Bw1bqA"], "asm": "OP_HASH160 3c0383ba6125e0abc40b68f73d25d3574d644e7a OP_EQUAL", "type": "scripthash"}, "value": 0.011911, "n": 0}, {"scriptPubKey": {"reqSigs": 1, "hex": "a9141988a27e3c2df4ddee7fad5a2303d086179b2a3087", "addresses": ["3422VtS7UtCvXYxoXMVp6eZupR252z85oC"], "asm": "OP_HASH160 1988a27e3c2df4ddee7fad5a2303d086179b2a30 OP_EQUAL", "type": "scripthash"}, "value": 0.75248314, "n": 1}], "hex": "010000000001010c9126250e36c6bb1a6fa11061cf34c0cd27326da4fb21879541ef0dd6fd927f010000002322002065d416c48a8072e0ac51c2d111eb194f009caef0332446c1bf2097316cf07fa9ffffffff02bc2c12000000000017a9143c0383ba6125e0abc40b68f73d25d3574d644e7a87ba327c040000000017a9141988a27e3c2df4ddee7fad5a2303d086179b2a3087040047304402207bb94032503c00c837259a16a806b159054bb10d1667023b25f232e2a7caaafd02203c56b27069264b32f8a8a4cb80901e00017ccc37e6a1f19dcb14922b98b20a8501473044022033ebd960265d2a01f09867992b7323c2909317b93b8dad835f7870159d124d08022072dfbe4fa916eb5e47ea2d16431e912447f4054fa4ced86f9aaa682c7abbc90b0169522102f44abcf9e23c9a460da309ccca56c619c04eed3bde2c2cff5e7d78fbcd980b9c2103c9443cf3047bb6c2c82f1b0c44c36109cdc3d0d601d16d1189a1602bf8d1a0a02103bfe867059274412412e088af5572b92168c2ef495cfe6c9b7a753a009eb37c4853ae00000000", "vin": [{"txinwitness": ["", "304402207bb94032503c00c837259a16a806b159054bb10d1667023b25f232e2a7caaafd02203c56b27069264b32f8a8a4cb80901e00017ccc37e6a1f19dcb14922b98b20a8501", "3044022033ebd960265d2a01f09867992b7323c2909317b93b8dad835f7870159d124d08022072dfbe4fa916eb5e47ea2d16431e912447f4054fa4ced86f9aaa682c7abbc90b01", "522102f44abcf9e23c9a460da309ccca56c619c04eed3bde2c2cff5e7d78fbcd980b9c2103c9443cf3047bb6c2c82f1b0c44c36109cdc3d0d601d16d1189a1602bf8d1a0a02103bfe867059274412412e088af5572b92168c2ef495cfe6c9b7a753a009eb37c4853ae"], "sequence": 4294967295, "scriptSig": {"hex": "22002065d416c48a8072e0ac51c2d111eb194f009caef0332446c1bf2097316cf07fa9", "asm": "002065d416c48a8072e0ac51c2d111eb194f009caef0332446c1bf2097316cf07fa9"}, "vout": 1, "txid": "7f92fdd60def41958721fba46d3227cdc034cf6110a16f1abbc6360e2526910c"}], "txid": "2e28a92cc34a5055c2f1457ad1d5e76e1d8b0cc5f777d8e519cf72557f4f09db", "blocktime": 1537873282, "version": 1, "confirmations": 11482, "time": 1537873282, "locktime": 0, "vsize": 214, "size": 404}