{"hash": "2e2a159998c69de4b0ee03e79884ae676c047f6ff425b8b2b342b5cb81cc7788", "blockhash": "00000000000000000017f5eb5941039fbcee6240d03bc1f2f8e35350df66a1d8", "vout": [{"scriptPubKey": {"reqSigs": 1, "hex": "76a914da41494926953155f1cc49c97e3aee8023bc5c4b88ac", "addresses": ["1Lu2WzMCwJh2KRmegGdHu8ve5vj2ocMKA2"], "asm": "OP_DUP OP_HASH160 da41494926953155f1cc49c97e3aee8023bc5c4b OP_EQUALVERIFY OP_CHECKSIG", "type": "pubkeyhash"}, "value": 0.039549, "n": 0}, {"scriptPubKey": {"reqSigs": 1, "hex": "76a91421d19a79dd04bd8494cb9a9b0319323fc91c940888ac", "addresses": ["145pPqE6W1MXrQ3t22ETTX7D5qdEVoLo4X"], "asm": "OP_DUP OP_HASH160 21d19a79dd04bd8494cb9a9b0319323fc91c9408 OP_EQUALVERIFY OP_CHECKSIG", "type": "pubkeyhash"}, "value": 0.00024003, "n": 1}], "hex": "0100000002dc58a325907de419906484024bd3c783ce40e8b6e8189bcb3ca15775ca429c66010000006b483045022100da50c79286392e06dba76ff865e3e78cc3daab42e04c2cc5dadaad80d3119f87022072470d27a23b7f995e462479c4015c8317e505d88c9cf2581993296261fbc0b90121039e29634126024842f17b7e58980bc4501fc98a682dfc0b5fb880ce02632b217affffffff00a05378da9e599bacaf629964cb1ad572575b2226a58b5ef7829c5401d1f5e4000000006b483045022100f28e674d5772a4ddc8ab22a74e046be65caf8cc51243d0f15d8f82854df78a5a02205f73e473080110d1d71c8b7d82a81271cad0f3470a6b1d447b79fb14b195563b0121037d333df4246ba1ed7737a7beb22ccdb589dd9f40edb9187c1a9827d454df5c44ffffffff02d4583c00000000001976a914da41494926953155f1cc49c97e3aee8023bc5c4b88acc35d0000000000001976a91421d19a79dd04bd8494cb9a9b0319323fc91c940888ac00000000", "vin": [{"sequence": 4294967295, "scriptSig": {"hex": "483045022100da50c79286392e06dba76ff865e3e78cc3daab42e04c2cc5dadaad80d3119f87022072470d27a23b7f995e462479c4015c8317e505d88c9cf2581993296261fbc0b90121039e29634126024842f17b7e58980bc4501fc98a682dfc0b5fb880ce02632b217a", "asm": "3045022100da50c79286392e06dba76ff865e3e78cc3daab42e04c2cc5dadaad80d3119f87022072470d27a23b7f995e462479c4015c8317e505d88c9cf2581993296261fbc0b9[ALL] 039e29634126024842f17b7e58980bc4501fc98a682dfc0b5fb880ce02632b217a"}, "vout": 1, "txid": "669c42ca7557a13ccb9b18e8b6e840ce83c7d34b0284649019e47d9025a358dc"}, {"sequence": 4294967295, "scriptSig": {"hex": "483045022100f28e674d5772a4ddc8ab22a74e046be65caf8cc51243d0f15d8f82854df78a5a02205f73e473080110d1d71c8b7d82a81271cad0f3470a6b1d447b79fb14b195563b0121037d333df4246ba1ed7737a7beb22ccdb589dd9f40edb9187c1a9827d454df5c44", "asm": "3045022100f28e674d5772a4ddc8ab22a74e046be65caf8cc51243d0f15d8f82854df78a5a02205f73e473080110d1d71c8b7d82a81271cad0f3470a6b1d447b79fb14b195563b[ALL] 037d333df4246ba1ed7737a7beb22ccdb589dd9f40edb9187c1a9827d454df5c44"}, "vout": 0, "txid": "e4f5d101549c82f75e8ba526225b5772d51acb649962afac9b599eda7853a000"}], "txid": "2e2a159998c69de4b0ee03e79884ae676c047f6ff425b8b2b342b5cb81cc7788", "blocktime": 1537874412, "version": 1, "confirmations": 11468, "time": 1537874412, "locktime": 0, "vsize": 374, "size": 374}