{"hash": "2e2d7bfe8f5ba4a058d3cff7d80758e1559513a767838a4a97ebb97aad417282", "blockhash": "0000000000000000001e0dab787dd257d1dbfcb92a98c2207d5e1078be1f4165", "vout": [{"scriptPubKey": {"reqSigs": 1, "hex": "a914add9b32a45468a952bd46b1f6b7b5f32e9cbfa4987", "addresses": ["3HYFcnKL3i1xcPP6rKMmRQMqCU1yy2cXrn"], "asm": "OP_HASH160 add9b32a45468a952bd46b1f6b7b5f32e9cbfa49 OP_EQUAL", "type": "scripthash"}, "value": 0.00203243, "n": 0}, {"scriptPubKey": {"reqSigs": 1, "hex": "76a91475e33f196511d75c7e1523145e93d0082905256888ac", "addresses": ["1BkLHon1Koy6nBwsnCKPr9Qk7X7zuhierb"], "asm": "OP_DUP OP_HASH160 75e33f196511d75c7e1523145e93d00829052568 OP_EQUALVERIFY OP_CHECKSIG", "type": "pubkeyhash"}, "value": 0.03727462, "n": 1}], "hex": "010000000199b2a215d0d70578fefb63b86ccad54b90368214a8817fff4c8266ec99d11db3010000006a47304402203362ad541eea7c8ba271e5561f502833ce65b24a72c34ea3c4095d8c91ffffee0220220f8284556fece73758e1e0e4b8dad4f52084992f591fa632489f30bb97789501210388f9d7a61e2fb8a9e6aafcdfd36b2988f788fd967862922fffc9d798db362d85ffffffff02eb1903000000000017a914add9b32a45468a952bd46b1f6b7b5f32e9cbfa498766e03800000000001976a91475e33f196511d75c7e1523145e93d0082905256888ac00000000", "vin": [{"sequence": 4294967295, "scriptSig": {"hex": "47304402203362ad541eea7c8ba271e5561f502833ce65b24a72c34ea3c4095d8c91ffffee0220220f8284556fece73758e1e0e4b8dad4f52084992f591fa632489f30bb97789501210388f9d7a61e2fb8a9e6aafcdfd36b2988f788fd967862922fffc9d798db362d85", "asm": "304402203362ad541eea7c8ba271e5561f502833ce65b24a72c34ea3c4095d8c91ffffee0220220f8284556fece73758e1e0e4b8dad4f52084992f591fa632489f30bb977895[ALL] 0388f9d7a61e2fb8a9e6aafcdfd36b2988f788fd967862922fffc9d798db362d85"}, "vout": 1, "txid": "b31dd199ec66824cff7f81a8148236904bd5ca6cb863fbfe7805d7d015a2b299"}], "txid": "2e2d7bfe8f5ba4a058d3cff7d80758e1559513a767838a4a97ebb97aad417282", "blocktime": 1537872475, "version": 1, "confirmations": 11486, "time": 1537872475, "locktime": 0, "vsize": 223, "size": 223}