{"hash": "2e36680197d61ee2db0feca73c29955ab04a7d76904fa90b748acc7146d98089", "blockhash": "0000000000000000001f76057863aec43deb6fa401d9628bb513d65a8098bfab", "vout": [{"scriptPubKey": {"reqSigs": 1, "hex": "76a9141efbe537c7c858a58469b77c704ff51185d9e72588ac", "addresses": ["13pq2kfo87mU1ceVT5dpVjcy9AEBS2zB1G"], "asm": "OP_DUP OP_HASH160 1efbe537c7c858a58469b77c704ff51185d9e725 OP_EQUALVERIFY OP_CHECKSIG", "type": "pubkeyhash"}, "value": 0.0005, "n": 0}, {"scriptPubKey": {"reqSigs": 1, "hex": "76a914c19e0f035dd9375ad1743e370e8b6a9cbdd2f5d288ac", "addresses": ["1Jekm8ZswQmDhLFMp9cuYb1Kcq26riFp6m"], "asm": "OP_DUP OP_HASH160 c19e0f035dd9375ad1743e370e8b6a9cbdd2f5d2 OP_EQUALVERIFY OP_CHECKSIG", "type": "pubkeyhash"}, "value": 11.90745737, "n": 1}], "hex": "0200000001981b945ad5944ef33ebbf88051740b008ef1e08e7b096ae1818240352f34ba72010000008b4830450221009baa7d47088497b929c07caf14b97f4d53dbd5adbd75ddaf7a1f80f1ee89243202201c7b8149d2190adfc9262bc5af3328c4dab7e2c9d6cdea690f030bbf5ef05ee50141040dd834391c53ff254e0d20195ed8b53537601370406fda7b7aa0d908a99f79676ec133f222f1c9b457c6b1c83a2cbbb015f05a03f633fed22d7732011c2dc3ffffffffff0250c30000000000001976a9141efbe537c7c858a58469b77c704ff51185d9e72588ac8956f946000000001976a914c19e0f035dd9375ad1743e370e8b6a9cbdd2f5d288ac00000000", "vin": [{"sequence": 4294967295, "scriptSig": {"hex": "4830450221009baa7d47088497b929c07caf14b97f4d53dbd5adbd75ddaf7a1f80f1ee89243202201c7b8149d2190adfc9262bc5af3328c4dab7e2c9d6cdea690f030bbf5ef05ee50141040dd834391c53ff254e0d20195ed8b53537601370406fda7b7aa0d908a99f79676ec133f222f1c9b457c6b1c83a2cbbb015f05a03f633fed22d7732011c2dc3ff", "asm": "30450221009baa7d47088497b929c07caf14b97f4d53dbd5adbd75ddaf7a1f80f1ee89243202201c7b8149d2190adfc9262bc5af3328c4dab7e2c9d6cdea690f030bbf5ef05ee5[ALL] 040dd834391c53ff254e0d20195ed8b53537601370406fda7b7aa0d908a99f79676ec133f222f1c9b457c6b1c83a2cbbb015f05a03f633fed22d7732011c2dc3ff"}, "vout": 1, "txid": "72ba342f35408281e16a097b8ee0f18e000b745180f8bb3ef34e94d55a941b98"}], "txid": "2e36680197d61ee2db0feca73c29955ab04a7d76904fa90b748acc7146d98089", "blocktime": 1537873891, "version": 2, "confirmations": 11477, "time": 1537873891, "locktime": 0, "vsize": 258, "size": 258}