{"hash": "2e3be9a6f2f79180b9f481dbca24bfe915deea38a6609bbebd15796d81ad30f2", "blockhash": "000000000000000000022b45ed06c6f4ccd3cf7fb5ba4856ebd2e58215665228", "vout": [{"scriptPubKey": {"reqSigs": 1, "hex": "76a91486080360f7ab985d8592ec2808b0fea5d107c35688ac", "addresses": ["1DDh9UP1LNg9mKof3iKEJqdHTvGuccaXp6"], "asm": "OP_DUP OP_HASH160 86080360f7ab985d8592ec2808b0fea5d107c356 OP_EQUALVERIFY OP_CHECKSIG", "type": "pubkeyhash"}, "value": 0.00259464, "n": 0}], "hex": "020000000186a1d9188dfa7ee1c7433eb35aae0166d9ec6c6f487980d48f4d97dae0837dd3010000006b483045022100def54f44959c89d2efb64ec1f0d3685e44ad875604dde636212cf940cad502160220666a4303990c2e42c20d37fcfec9ed79a3ea21fd9ab4038342576f1b1a1de4c60121039eeb434ad942616d4d35765e81c1566d5cb538a82bce6c7ca60d760446359a1dffffffff0188f50300000000001976a91486080360f7ab985d8592ec2808b0fea5d107c35688ac00000000", "vin": [{"sequence": 4294967295, "scriptSig": {"hex": "483045022100def54f44959c89d2efb64ec1f0d3685e44ad875604dde636212cf940cad502160220666a4303990c2e42c20d37fcfec9ed79a3ea21fd9ab4038342576f1b1a1de4c60121039eeb434ad942616d4d35765e81c1566d5cb538a82bce6c7ca60d760446359a1d", "asm": "3045022100def54f44959c89d2efb64ec1f0d3685e44ad875604dde636212cf940cad502160220666a4303990c2e42c20d37fcfec9ed79a3ea21fd9ab4038342576f1b1a1de4c6[ALL] 039eeb434ad942616d4d35765e81c1566d5cb538a82bce6c7ca60d760446359a1d"}, "vout": 1, "txid": "d37d83e0da974d8fd48079486f6cecd96601ae5ab33e43c7e17efa8d18d9a186"}], "txid": "2e3be9a6f2f79180b9f481dbca24bfe915deea38a6609bbebd15796d81ad30f2", "blocktime": 1537869901, "version": 2, "confirmations": 11524, "time": 1537869901, "locktime": 0, "vsize": 192, "size": 192}