{"hash": "0883731bbb52a876f3d735d886fad3085f6ffbc50337053fffc451795cdff11e", "blockhash": "0000000000000000001e0dab787dd257d1dbfcb92a98c2207d5e1078be1f4165", "vout": [{"scriptPubKey": {"reqSigs": 1, "hex": "a914d215a6f370eddd4af47aae386b87230f030f841587", "addresses": ["3LqqmFDx2wXM2YrJg9ENJ23btxKM4DkE6p"], "asm": "OP_HASH160 d215a6f370eddd4af47aae386b87230f030f8415 OP_EQUAL", "type": "scripthash"}, "value": 0.25322061, "n": 0}, {"scriptPubKey": {"reqSigs": 1, "hex": "a9145d5e27bced11635ba539e1e25983b44a5d470c6f87", "addresses": ["3AChZQNg9tVCKGKSMQ6FcdM9Q1i9krFaMV"], "asm": "OP_HASH160 5d5e27bced11635ba539e1e25983b44a5d470c6f OP_EQUAL", "type": "scripthash"}, "value": 0.0017, "n": 1}, {"scriptPubKey": {"reqSigs": 1, "hex": "a914d2b134499f4ccd38b9016ac29d99ac8f6a4527d887", "addresses": ["3Lu47CGoh5Q4QSzeRA2k2SFLuGkPwis8YW"], "asm": "OP_HASH160 d2b134499f4ccd38b9016ac29d99ac8f6a4527d8 OP_EQUAL", "type": "scripthash"}, "value": 0.133, "n": 2}, {"scriptPubKey": {"reqSigs": 1, "hex": "a91415ac9fd255f64362c35d3e1e03642a39dd93a7fb87", "addresses": ["33fcuif9JDoBwERRBzXAHG5i4JgJgwJNVP"], "asm": "OP_HASH160 15ac9fd255f64362c35d3e1e03642a39dd93a7fb OP_EQUAL", "type": "scripthash"}, "value": 0.00016, "n": 3}, {"scriptPubKey": {"reqSigs": 1, "hex": "76a91410389c491aed47f4f0ee92755910ab31ee8cddd088ac", "addresses": ["12UmdSEki8mNCc4RQV1MftdzUwWsZ4GT7K"], "asm": "OP_DUP OP_HASH160 10389c491aed47f4f0ee92755910ab31ee8cddd0 OP_EQUALVERIFY OP_CHECKSIG", "type": "pubkeyhash"}, "value": 0.001567, "n": 4}], "hex": "010000000001016967418c3d76c7130405989abb8ead93fd8462f2e0b218a5838c979144aa49810300000023220020a1e2d26f9f913cee6394a0ef31ea4be65a0efe3a4f40aee1f7d4d0c967f459dfffffffff054d6282010000000017a914d215a6f370eddd4af47aae386b87230f030f841587109802000000000017a9145d5e27bced11635ba539e1e25983b44a5d470c6f8720f1ca000000000017a914d2b134499f4ccd38b9016ac29d99ac8f6a4527d887803e00000000000017a91415ac9fd255f64362c35d3e1e03642a39dd93a7fb871c640200000000001976a91410389c491aed47f4f0ee92755910ab31ee8cddd088ac0400483045022100c3a64b69e2fcc772ba00616f47b09ddd9e07517a61e6a45d84567e71ddb5dadb02200bf2b3a749667e0a33ed27f24223be8ba7114bad69b9f821301eb49f5324e6e701473044022060b8cc7d37b849af377a2028ff5aeb298c283ce2510efebb115197aede648c8a022006b8bffe5833c4a2676671d9eea3381dac5d545dcadcefdd5b793aa73ae8c041016952210381b75a5d33abe9dc9e284ccd47aee6ec3d0ecfe88768dd09e17067d4675255722103f13a2420d6d54ef1c262761f4369ce41039448568a82396b8edc47761e8c6e342102997ddf5e055d01881853c9034b6649aa22da1024ad02dc83d23cef3bda88d8a853ae00000000", "vin": [{"txinwitness": ["", "3045022100c3a64b69e2fcc772ba00616f47b09ddd9e07517a61e6a45d84567e71ddb5dadb02200bf2b3a749667e0a33ed27f24223be8ba7114bad69b9f821301eb49f5324e6e701", "3044022060b8cc7d37b849af377a2028ff5aeb298c283ce2510efebb115197aede648c8a022006b8bffe5833c4a2676671d9eea3381dac5d545dcadcefdd5b793aa73ae8c04101", "52210381b75a5d33abe9dc9e284ccd47aee6ec3d0ecfe88768dd09e17067d4675255722103f13a2420d6d54ef1c262761f4369ce41039448568a82396b8edc47761e8c6e342102997ddf5e055d01881853c9034b6649aa22da1024ad02dc83d23cef3bda88d8a853ae"], "sequence": 4294967295, "scriptSig": {"hex": "220020a1e2d26f9f913cee6394a0ef31ea4be65a0efe3a4f40aee1f7d4d0c967f459df", "asm": "0020a1e2d26f9f913cee6394a0ef31ea4be65a0efe3a4f40aee1f7d4d0c967f459df"}, "vout": 3, "txid": "8149aa4491978c83a518b2e0f26284fd93ad8ebb9a98050413c7763d8c416769"}], "txid": "2e3e30bdab394b70ede3014249618f53941f869fd622c2ed187911df1d8abbbd", "blocktime": 1537872475, "version": 1, "confirmations": 11487, "time": 1537872475, "locktime": 0, "vsize": 312, "size": 503}