{"hash": "2e41e171b7d6e4e78515a65d01c12cdd93378de6f0a322d1660fe198086df6dc", "blockhash": "0000000000000000001cda96e906b7601b7a6fb1a3b62bca570a9e5d8f4b3de1", "vout": [{"scriptPubKey": {"reqSigs": 1, "hex": "001441547d70137b193b0116013aa9eed0fe129d5ffd", "addresses": ["bc1qg9286uqn0vvnkqgkqya2nmkslcff6hla9mh4dm"], "asm": "0 41547d70137b193b0116013aa9eed0fe129d5ffd", "type": "witness_v0_keyhash"}, "value": 0.00036466, "n": 0}, {"scriptPubKey": {"reqSigs": 1, "hex": "76a9140fac664d3689d910539e175d875afaa8a606aa7488ac", "addresses": ["12RsfQwVkYJtPwoTbX4FnjjndGMDpb3iVE"], "asm": "OP_DUP OP_HASH160 0fac664d3689d910539e175d875afaa8a606aa74 OP_EQUALVERIFY OP_CHECKSIG", "type": "pubkeyhash"}, "value": 0.00999517, "n": 1}], "hex": "0100000001a2d178cb625e17e1140758ec09b7a126b5f81aafbb49f8dc0bb93818b68848fb060000006b4830450221008b64c25ee0b4ec6312ea6d221fc8cbbe4e1d13bee735ef10d42671adc8140c1002202509106400711cdab0e871985c5d3fc481d1ee055dd7b2ea470bc0fd2c3f2cd50121021712d51d5011301cf9eaa03bb78bcb00b9562fc1fc5df71898be85faf434cf9effffffff02728e00000000000016001441547d70137b193b0116013aa9eed0fe129d5ffd5d400f00000000001976a9140fac664d3689d910539e175d875afaa8a606aa7488ac00000000", "vin": [{"sequence": 4294967295, "scriptSig": {"hex": "4830450221008b64c25ee0b4ec6312ea6d221fc8cbbe4e1d13bee735ef10d42671adc8140c1002202509106400711cdab0e871985c5d3fc481d1ee055dd7b2ea470bc0fd2c3f2cd50121021712d51d5011301cf9eaa03bb78bcb00b9562fc1fc5df71898be85faf434cf9e", "asm": "30450221008b64c25ee0b4ec6312ea6d221fc8cbbe4e1d13bee735ef10d42671adc8140c1002202509106400711cdab0e871985c5d3fc481d1ee055dd7b2ea470bc0fd2c3f2cd5[ALL] 021712d51d5011301cf9eaa03bb78bcb00b9562fc1fc5df71898be85faf434cf9e"}, "vout": 6, "txid": "fb4888b61838b90bdcf849bbaf1af8b526a1b709ec580714e1175e62cb78d1a2"}], "txid": "2e41e171b7d6e4e78515a65d01c12cdd93378de6f0a322d1660fe198086df6dc", "blocktime": 1537873282, "version": 1, "confirmations": 11484, "time": 1537873282, "locktime": 0, "vsize": 223, "size": 223}