{"hash": "6699edf69d8bfc7ef2c7f921dfc57b9420044b621dc74bd7822e655005cfd1bc", "blockhash": "0000000000000000001cda96e906b7601b7a6fb1a3b62bca570a9e5d8f4b3de1", "vout": [{"scriptPubKey": {"reqSigs": 1, "hex": "0014ccc73585e1e4ba7eb6ef39009801498c89609ab3", "addresses": ["bc1qenrntp0puja8adh08yqfsq2f3jykpx4nxqqste"], "asm": "0 ccc73585e1e4ba7eb6ef39009801498c89609ab3", "type": "witness_v0_keyhash"}, "value": 0.0009778, "n": 0}, {"scriptPubKey": {"reqSigs": 1, "hex": "a914c26cc7fa1460209cc902409d56f4ea73123beecc87", "addresses": ["3KR3L1KZQ55mske7Sn89zCNy65fgpp5wLN"], "asm": "OP_HASH160 c26cc7fa1460209cc902409d56f4ea73123beecc OP_EQUAL", "type": "scripthash"}, "value": 0.00875588, "n": 1}], "hex": "010000000001016cb2061605f136a0521eda92913883b2789c06cef50d9e6f0ad8b70e3b8204090100000000ffffffff02f47d010000000000160014ccc73585e1e4ba7eb6ef39009801498c89609ab3445c0d000000000017a914c26cc7fa1460209cc902409d56f4ea73123beecc8702483045022100f112ebcfded3acdfe97de3ff26680a23c6fa200941c454a7fa2f8f1ed4a041eb022043825f87e2c2d5b999513d2adcff56b87b4bd3625b741051b95f4d9bbba2e87d012103035ed7a382804e048ba000d15f62f17ca1a4b0a6a77ac0f03ffea6f830c517d200000000", "vin": [{"txinwitness": ["3045022100f112ebcfded3acdfe97de3ff26680a23c6fa200941c454a7fa2f8f1ed4a041eb022043825f87e2c2d5b999513d2adcff56b87b4bd3625b741051b95f4d9bbba2e87d01", "03035ed7a382804e048ba000d15f62f17ca1a4b0a6a77ac0f03ffea6f830c517d2"], "sequence": 4294967295, "scriptSig": {"hex": "", "asm": ""}, "vout": 1, "txid": "0904823b0eb7d80a6f9e0df5ce069c78b283389192da1e52a036f1051606b26c"}], "txid": "2e4acc43265e8c4f23ba4bd4a30997a41a989f4ef61c8ee317aca45b19ec119e", "blocktime": 1537873282, "version": 1, "confirmations": 11484, "time": 1537873282, "locktime": 0, "vsize": 142, "size": 224}