{"hash": "2e4f1d48b46faa104e87c0988295f77e46f33ae9250acdd4cd8521b4754380a1", "blockhash": "0000000000000000001cda96e906b7601b7a6fb1a3b62bca570a9e5d8f4b3de1", "vout": [{"scriptPubKey": {"reqSigs": 1, "hex": "76a91432dcc60e36f2baf80e717ad9bbf74ac19ae566d188ac", "addresses": ["15dwGDQjFkpkCQkuncbww6mLjN4RcCbWow"], "asm": "OP_DUP OP_HASH160 32dcc60e36f2baf80e717ad9bbf74ac19ae566d1 OP_EQUALVERIFY OP_CHECKSIG", "type": "pubkeyhash"}, "value": 0.00016575, "n": 0}, {"scriptPubKey": {"type": "nulldata", "hex": "6a4c50000077bd0001e114dccca371221793029e86e5bf9ae76da98a211aaf6c953dd567cf27e7aabbd76bd997c85d7b94def4bd7c07605baa1258061338e3eb59029d4bbf23acfcfaac8058b692fe6808c31d", "asm": "OP_RETURN 000077bd0001e114dccca371221793029e86e5bf9ae76da98a211aaf6c953dd567cf27e7aabbd76bd997c85d7b94def4bd7c07605baa1258061338e3eb59029d4bbf23acfcfaac8058b692fe6808c31d"}, "value": 0.0, "n": 1}], "hex": "0100000001ac1b7def68229b8a146a802dd6ef42b2645d3f40335a0aa6fa3ec59384c5b989000000006a47304402206118e1bd609f8fdedfd9617d09a392800ab3cfe737c9d6f8f0352833daa9946f022048f9fc38b1ac99ee5d0b5462be709b275be3afe6d0a08ab38176185ed365277a012103ee7a06744c64eb2cbccaf59bff8fa9cdd2f3b8197f100a85a203a8ca1eb79b6fffffffff02bf400000000000001976a91432dcc60e36f2baf80e717ad9bbf74ac19ae566d188ac0000000000000000536a4c50000077bd0001e114dccca371221793029e86e5bf9ae76da98a211aaf6c953dd567cf27e7aabbd76bd997c85d7b94def4bd7c07605baa1258061338e3eb59029d4bbf23acfcfaac8058b692fe6808c31d00000000", "vin": [{"sequence": 4294967295, "scriptSig": {"hex": "47304402206118e1bd609f8fdedfd9617d09a392800ab3cfe737c9d6f8f0352833daa9946f022048f9fc38b1ac99ee5d0b5462be709b275be3afe6d0a08ab38176185ed365277a012103ee7a06744c64eb2cbccaf59bff8fa9cdd2f3b8197f100a85a203a8ca1eb79b6f", "asm": "304402206118e1bd609f8fdedfd9617d09a392800ab3cfe737c9d6f8f0352833daa9946f022048f9fc38b1ac99ee5d0b5462be709b275be3afe6d0a08ab38176185ed365277a[ALL] 03ee7a06744c64eb2cbccaf59bff8fa9cdd2f3b8197f100a85a203a8ca1eb79b6f"}, "vout": 0, "txid": "89b9c58493c53efaa60a5a33403f5d64b242efd62d806a148a9b2268ef7d1bac"}], "txid": "2e4f1d48b46faa104e87c0988295f77e46f33ae9250acdd4cd8521b4754380a1", "blocktime": 1537873282, "version": 1, "confirmations": 11484, "time": 1537873282, "locktime": 0, "vsize": 283, "size": 283}