{"hash": "2e513634a4897648ccaa4cf95c04ce8a8df701ba092335b8cb5e80c1b762de46", "blockhash": "00000000000000000004ffacab907a6b429b9a5745fa0b75af4234bf69dd7176", "vout": [{"scriptPubKey": {"reqSigs": 1, "hex": "76a914a2f1cc4dfe5ace51f07924b8c8a95a9fd1fc2d7a88ac", "addresses": ["1Fra8W36FxTRcqJF9npyiKzWs3jNcb4Mi2"], "asm": "OP_DUP OP_HASH160 a2f1cc4dfe5ace51f07924b8c8a95a9fd1fc2d7a OP_EQUALVERIFY OP_CHECKSIG", "type": "pubkeyhash"}, "value": 0.13941932, "n": 0}, {"scriptPubKey": {"type": "nulldata", "hex": "6a146f6d6e69000000000000001f000000057f810b80", "asm": "OP_RETURN 6f6d6e69000000000000001f000000057f810b80"}, "value": 0.0, "n": 1}, {"scriptPubKey": {"reqSigs": 1, "hex": "76a91452fb21e96f1fabd89c7275cf8730ff195ea7e95a88ac", "addresses": ["18ZmFikh4jsaHkksoCJvojPNDZDQHD16PR"], "asm": "OP_DUP OP_HASH160 52fb21e96f1fabd89c7275cf8730ff195ea7e95a OP_EQUALVERIFY OP_CHECKSIG", "type": "pubkeyhash"}, "value": 5.46e-06, "n": 2}], "hex": "0100000002d359cad920d6e39de0d169dfcccd05d594ad5bda580bcecbc1673cbbdc1cec59020000006b4830450221009730dac16d3c23b577028e35280a9a7f56cd24811d01833deffbbce1dce0cb5c022015f9188bb45fffbe79daa1938c1a49beb9533184cfa96fcf6f6af5e104343175012102dad6c0bb7360992cc7d0bd7810fb270ee162fa00429b3ba043dfc70afba6f076ffffffffaf955273a0105867dc5b759b92d98bd51648d2fbbf54524925536db1b3e82012000000006b483045022100d66519158308f464c30db1f06a077a569e338f1cae31e2cf39c8a1ef66b2e86902206da07529826b6cd519d17aab4db2ea730ad2021020c37eff927685710ba35ff601210244ad2ad133c5311938271a8432b0d1062a6eac868036777ad0a097c2a86e9efaffffffff03acbcd400000000001976a914a2f1cc4dfe5ace51f07924b8c8a95a9fd1fc2d7a88ac0000000000000000166a146f6d6e69000000000000001f000000057f810b8022020000000000001976a91452fb21e96f1fabd89c7275cf8730ff195ea7e95a88ac00000000", "vin": [{"sequence": 4294967295, "scriptSig": {"hex": "4830450221009730dac16d3c23b577028e35280a9a7f56cd24811d01833deffbbce1dce0cb5c022015f9188bb45fffbe79daa1938c1a49beb9533184cfa96fcf6f6af5e104343175012102dad6c0bb7360992cc7d0bd7810fb270ee162fa00429b3ba043dfc70afba6f076", "asm": "30450221009730dac16d3c23b577028e35280a9a7f56cd24811d01833deffbbce1dce0cb5c022015f9188bb45fffbe79daa1938c1a49beb9533184cfa96fcf6f6af5e104343175[ALL] 02dad6c0bb7360992cc7d0bd7810fb270ee162fa00429b3ba043dfc70afba6f076"}, "vout": 2, "txid": "59ec1cdcbb3c67c1cbce0b58da5bad94d505cdccdf69d1e09de3d620d9ca59d3"}, {"sequence": 4294967295, "scriptSig": {"hex": "483045022100d66519158308f464c30db1f06a077a569e338f1cae31e2cf39c8a1ef66b2e86902206da07529826b6cd519d17aab4db2ea730ad2021020c37eff927685710ba35ff601210244ad2ad133c5311938271a8432b0d1062a6eac868036777ad0a097c2a86e9efa", "asm": "3045022100d66519158308f464c30db1f06a077a569e338f1cae31e2cf39c8a1ef66b2e86902206da07529826b6cd519d17aab4db2ea730ad2021020c37eff927685710ba35ff6[ALL] 0244ad2ad133c5311938271a8432b0d1062a6eac868036777ad0a097c2a86e9efa"}, "vout": 0, "txid": "1220e8b3b16d5325495254bffbd24816d58bd9929b755bdc675810a0735295af"}], "txid": "2e513634a4897648ccaa4cf95c04ce8a8df701ba092335b8cb5e80c1b762de46", "blocktime": 1537875543, "version": 1, "confirmations": 11464, "time": 1537875543, "locktime": 0, "vsize": 405, "size": 405}