{"hash": "2e52424b1f01622df294eeff95a38b0fddf8a9fc0b0a87486fbedf369b072064", "blockhash": "000000000000000000022b45ed06c6f4ccd3cf7fb5ba4856ebd2e58215665228", "vout": [{"scriptPubKey": {"reqSigs": 1, "hex": "76a914225d33627ea8deb9908f506c5c044b54bcfe6b1588ac", "addresses": ["148hdDsUj17ixt5wx9f455G7RKTD3VYZsQ"], "asm": "OP_DUP OP_HASH160 225d33627ea8deb9908f506c5c044b54bcfe6b15 OP_EQUALVERIFY OP_CHECKSIG", "type": "pubkeyhash"}, "value": 0.00955631, "n": 0}, {"scriptPubKey": {"reqSigs": 1, "hex": "76a914a1938debcf9e542502225f330100c4cb7a9fb9d288ac", "addresses": ["1FjLZ9H6TT6QbJZGS8M8bEt7Zv8mcHeUBB"], "asm": "OP_DUP OP_HASH160 a1938debcf9e542502225f330100c4cb7a9fb9d2 OP_EQUALVERIFY OP_CHECKSIG", "type": "pubkeyhash"}, "value": 0.04321334, "n": 1}], "hex": "01000000030d2b8776efb99511c0a6daaae84d6e7091fc7da88f11577f53db12f01d1d691b000000006a4730440220776b9e287bbcf1455eb5b91f90fcb551156a7be711c5826c65a7023e7779489e022041ab9ad1425383632de27af7eafe5c7a1ad7e942d591b1e9110c95b68af50006012103d676a575019a1e12a5e16973314b6d539948d6010fa37b62561d9cd475c44fadfdfffffff065765011010fcd39f6360467d785732cc633b0b226e759500b79a2e0d81421010000006a47304402206968e740355959e1e077920c6d73515b7fee583afe472dad99172c9a4bef66be02200817b5281707dfac6b8378cf72951717d17f0721b04dba59a72dc5bb59e7f81f012102a6553295b29cbeb105014cbb54284885e6c98346a61f71d835972e0ed5c78755fdffffff5ccde4cabeb605e2415b6276f7e5cc14a621d8a421e6addbb90a9621750e7b50010000006b483045022100c66e4843b14ef63b329f845fc53b2d5657bc3fc2d1913aaef38b6aa027560305022034493fbe6526345538f65a5cc851f71298a97bfddec916506b07bd904af77ba80121036c72bb640d3474cb107e64f5246aa900fe2878340f841e0a3214457a4a299b01fdffffff02ef940e00000000001976a914225d33627ea8deb9908f506c5c044b54bcfe6b1588ac36f04100000000001976a914a1938debcf9e542502225f330100c4cb7a9fb9d288ac0b490800", "vin": [{"sequence": 4294967293, "scriptSig": {"hex": "4730440220776b9e287bbcf1455eb5b91f90fcb551156a7be711c5826c65a7023e7779489e022041ab9ad1425383632de27af7eafe5c7a1ad7e942d591b1e9110c95b68af50006012103d676a575019a1e12a5e16973314b6d539948d6010fa37b62561d9cd475c44fad", "asm": "30440220776b9e287bbcf1455eb5b91f90fcb551156a7be711c5826c65a7023e7779489e022041ab9ad1425383632de27af7eafe5c7a1ad7e942d591b1e9110c95b68af50006[ALL] 03d676a575019a1e12a5e16973314b6d539948d6010fa37b62561d9cd475c44fad"}, "vout": 0, "txid": "1b691d1df012db537f57118fa87dfc91706e4de8aadaa6c01195b9ef76872b0d"}, {"sequence": 4294967293, "scriptSig": {"hex": "47304402206968e740355959e1e077920c6d73515b7fee583afe472dad99172c9a4bef66be02200817b5281707dfac6b8378cf72951717d17f0721b04dba59a72dc5bb59e7f81f012102a6553295b29cbeb105014cbb54284885e6c98346a61f71d835972e0ed5c78755", "asm": "304402206968e740355959e1e077920c6d73515b7fee583afe472dad99172c9a4bef66be02200817b5281707dfac6b8378cf72951717d17f0721b04dba59a72dc5bb59e7f81f[ALL] 02a6553295b29cbeb105014cbb54284885e6c98346a61f71d835972e0ed5c78755"}, "vout": 1, "txid": "2114d8e0a2790b5059e726b2b033c62c7385d7670436f639cd0f0111507665f0"}, {"sequence": 4294967293, "scriptSig": {"hex": "483045022100c66e4843b14ef63b329f845fc53b2d5657bc3fc2d1913aaef38b6aa027560305022034493fbe6526345538f65a5cc851f71298a97bfddec916506b07bd904af77ba80121036c72bb640d3474cb107e64f5246aa900fe2878340f841e0a3214457a4a299b01", "asm": "3045022100c66e4843b14ef63b329f845fc53b2d5657bc3fc2d1913aaef38b6aa027560305022034493fbe6526345538f65a5cc851f71298a97bfddec916506b07bd904af77ba8[ALL] 036c72bb640d3474cb107e64f5246aa900fe2878340f841e0a3214457a4a299b01"}, "vout": 1, "txid": "507b0e7521960ab9dbade621a4d821a614cce5f776625b41e205b6becae4cd5c"}], "txid": "2e52424b1f01622df294eeff95a38b0fddf8a9fc0b0a87486fbedf369b072064", "blocktime": 1537869901, "version": 1, "confirmations": 11522, "time": 1537869901, "locktime": 542987, "vsize": 520, "size": 520}