{"hash": "2e567ec039509e7584d746db2059a1347c0f8863882c60976d208862d5366950", "blockhash": "0000000000000000000e13cef7c366c0283d82e591d1acd082e914b08063cdf1", "vout": [{"scriptPubKey": {"type": "nulldata", "hex": "6a4c50000077a20001724455df2a838b0683ae37e8af6c953dd567cf27e7e3ef3236678a625097a3030b8025379696c9fb6f4f6c68466e5baa0e8d0614adbfbdeec81dbc9a9526289ac0f6612cd74e33776ee4", "asm": "OP_RETURN 000077a20001724455df2a838b0683ae37e8af6c953dd567cf27e7e3ef3236678a625097a3030b8025379696c9fb6f4f6c68466e5baa0e8d0614adbfbdeec81dbc9a9526289ac0f6612cd74e33776ee4"}, "value": 0.0, "n": 0}, {"scriptPubKey": {"reqSigs": 1, "hex": "76a914197495e04328eb7d7c86cd4df7ea36ff8c0f753b88ac", "addresses": ["13KbZJ7b4nmdzNvUw3DXRm5cemXLeZTsEp"], "asm": "OP_DUP OP_HASH160 197495e04328eb7d7c86cd4df7ea36ff8c0f753b OP_EQUALVERIFY OP_CHECKSIG", "type": "pubkeyhash"}, "value": 0.0014008, "n": 1}], "hex": "0100000001b6390486ce3362e1fd7657737e99906f5b73ca34b89419c6cbcb3b67584f1eff000000006b483045022100fcb90736856cf8cad23d9f89e456929b00f7aae52f4c59e940909e60c00c8b4a022066b9b7289a71fcd80a2c76642eb440c99a2531bf4659a608f3f18b97b6db7f7a0121023b7e230cef9a96db3e3ebf4034eacf8a2b54aebaf4f7eab2b78144560a198cbdffffffff020000000000000000536a4c50000077a20001724455df2a838b0683ae37e8af6c953dd567cf27e7e3ef3236678a625097a3030b8025379696c9fb6f4f6c68466e5baa0e8d0614adbfbdeec81dbc9a9526289ac0f6612cd74e33776ee430230200000000001976a914197495e04328eb7d7c86cd4df7ea36ff8c0f753b88ac00000000", "vin": [{"sequence": 4294967295, "scriptSig": {"hex": "483045022100fcb90736856cf8cad23d9f89e456929b00f7aae52f4c59e940909e60c00c8b4a022066b9b7289a71fcd80a2c76642eb440c99a2531bf4659a608f3f18b97b6db7f7a0121023b7e230cef9a96db3e3ebf4034eacf8a2b54aebaf4f7eab2b78144560a198cbd", "asm": "3045022100fcb90736856cf8cad23d9f89e456929b00f7aae52f4c59e940909e60c00c8b4a022066b9b7289a71fcd80a2c76642eb440c99a2531bf4659a608f3f18b97b6db7f7a[ALL] 023b7e230cef9a96db3e3ebf4034eacf8a2b54aebaf4f7eab2b78144560a198cbd"}, "vout": 0, "txid": "ff1e4f58673bcbcbc61994b834ca735b6f90997e735776fde16233ce860439b6"}], "txid": "2e567ec039509e7584d746db2059a1347c0f8863882c60976d208862d5366950", "blocktime": 1537871767, "version": 1, "confirmations": 11493, "time": 1537871767, "locktime": 0, "vsize": 284, "size": 284}