{"hash": "2e5bc4ae8ba11a49affe7f46e42877d2192dea650f3753561c5976cbe38f2151", "blockhash": "0000000000000000001f76057863aec43deb6fa401d9628bb513d65a8098bfab", "vout": [{"scriptPubKey": {"reqSigs": 1, "hex": "76a914bccb4f01e933b3883044b32330c74115eb13223f88ac", "addresses": ["1JDFbCJbezeEJ7edSroh3asxhfEiRZ3jGF"], "asm": "OP_DUP OP_HASH160 bccb4f01e933b3883044b32330c74115eb13223f OP_EQUALVERIFY OP_CHECKSIG", "type": "pubkeyhash"}, "value": 0.00336944, "n": 0}, {"scriptPubKey": {"reqSigs": 1, "hex": "0014138f4e27cb242a02d7949926c41e740dad66707b", "addresses": ["bc1qzw85uf7tys4q94u5nynvg8n5pkkkvurm6pn20y"], "asm": "0 138f4e27cb242a02d7949926c41e740dad66707b", "type": "witness_v0_keyhash"}, "value": 1.33e-05, "n": 1}], "hex": "01000000014f783e77eb57e4044d0cc779f2adc23be36714ab33675e519176c336fdd1454e110000006b48304502210085982b7b76b8cdee79c4185302cdfd77d93ed45d6ae0d799ad92493d02eaba24022056387b908ec1f2aef6757a5b702541e21007eca13cef74e3a0d483d8f06d6bbc01210263d358613aa6ff13fa5cb597f487dd21fb63632d902b6f405cb73d2733a09c54ffffffff0230240500000000001976a914bccb4f01e933b3883044b32330c74115eb13223f88ac3205000000000000160014138f4e27cb242a02d7949926c41e740dad66707b00000000", "vin": [{"sequence": 4294967295, "scriptSig": {"hex": "48304502210085982b7b76b8cdee79c4185302cdfd77d93ed45d6ae0d799ad92493d02eaba24022056387b908ec1f2aef6757a5b702541e21007eca13cef74e3a0d483d8f06d6bbc01210263d358613aa6ff13fa5cb597f487dd21fb63632d902b6f405cb73d2733a09c54", "asm": "304502210085982b7b76b8cdee79c4185302cdfd77d93ed45d6ae0d799ad92493d02eaba24022056387b908ec1f2aef6757a5b702541e21007eca13cef74e3a0d483d8f06d6bbc[ALL] 0263d358613aa6ff13fa5cb597f487dd21fb63632d902b6f405cb73d2733a09c54"}, "vout": 17, "txid": "4e45d1fd36c37691515e6733ab1467e33bc2adf279c70c4d04e457eb773e784f"}], "txid": "2e5bc4ae8ba11a49affe7f46e42877d2192dea650f3753561c5976cbe38f2151", "blocktime": 1537873891, "version": 1, "confirmations": 11478, "time": 1537873891, "locktime": 0, "vsize": 223, "size": 223}