{"hash": "2e6bf0047fec7baf60bc2d87368bb3257c1c7c64c3652e1055f704cf4bf5644f", "blockhash": "0000000000000000001cda96e906b7601b7a6fb1a3b62bca570a9e5d8f4b3de1", "vout": [{"scriptPubKey": {"reqSigs": 1, "hex": "76a9147e8abf91b860cd25878dc5133e2a957c09d77aeb88ac", "addresses": ["1CY6MaDeKmqfm45YvJ987JodDMJ3DvY4WA"], "asm": "OP_DUP OP_HASH160 7e8abf91b860cd25878dc5133e2a957c09d77aeb OP_EQUALVERIFY OP_CHECKSIG", "type": "pubkeyhash"}, "value": 0.0003435, "n": 0}, {"scriptPubKey": {"reqSigs": 1, "hex": "76a914238201c9f22b3562e2091779aafdde9f4954533e88ac", "addresses": ["14EkPkxgFMuZ3eZJSzS58YBXRWRC3b9Qkw"], "asm": "OP_DUP OP_HASH160 238201c9f22b3562e2091779aafdde9f4954533e OP_EQUALVERIFY OP_CHECKSIG", "type": "pubkeyhash"}, "value": 0.20258295, "n": 1}], "hex": "0200000001606f47a21446f4961a72204f2394547deedc7309d8f4855987c4d2d69c9c2621010000006b4830450221008c6ddd6ce2031ec1323116f7b35e27d8dc3819392e3f35f975c05f9d59bdf2ef02205851ebf10b82a086d9fe04aa4aeba8d258ded0a691ca9bbef9b453f66ffc67ad0121021f0f84f493e3573a8418aff4efbc291b991b143e68023064d68656cb6da6679dffffffff022e860000000000001976a9147e8abf91b860cd25878dc5133e2a957c09d77aeb88acf71d3501000000001976a914238201c9f22b3562e2091779aafdde9f4954533e88ac00000000", "vin": [{"sequence": 4294967295, "scriptSig": {"hex": "4830450221008c6ddd6ce2031ec1323116f7b35e27d8dc3819392e3f35f975c05f9d59bdf2ef02205851ebf10b82a086d9fe04aa4aeba8d258ded0a691ca9bbef9b453f66ffc67ad0121021f0f84f493e3573a8418aff4efbc291b991b143e68023064d68656cb6da6679d", "asm": "30450221008c6ddd6ce2031ec1323116f7b35e27d8dc3819392e3f35f975c05f9d59bdf2ef02205851ebf10b82a086d9fe04aa4aeba8d258ded0a691ca9bbef9b453f66ffc67ad[ALL] 021f0f84f493e3573a8418aff4efbc291b991b143e68023064d68656cb6da6679d"}, "vout": 1, "txid": "21269c9cd6d2c4875985f4d80973dcee7d5494234f20721a96f44614a2476f60"}], "txid": "2e6bf0047fec7baf60bc2d87368bb3257c1c7c64c3652e1055f704cf4bf5644f", "blocktime": 1537873282, "version": 2, "confirmations": 11484, "time": 1537873282, "locktime": 0, "vsize": 226, "size": 226}