{"hash": "2e6d613b614b89192b571fba2b5d92c4517b26d39a1efab6c9b917eb2d016779", "blockhash": "0000000000000000001f76057863aec43deb6fa401d9628bb513d65a8098bfab", "vout": [{"scriptPubKey": {"reqSigs": 1, "hex": "76a914dba358fa1e332eb40d78c510547915cf7eced08c88ac", "addresses": ["1M2LfbjD3hxzbvX6ZHCj1FbigH6Ypnkg6G"], "asm": "OP_DUP OP_HASH160 dba358fa1e332eb40d78c510547915cf7eced08c OP_EQUALVERIFY OP_CHECKSIG", "type": "pubkeyhash"}, "value": 0.01012532, "n": 0}, {"scriptPubKey": {"reqSigs": 1, "hex": "76a91439bda31bc8a85fc412a81e766812a7454b575fe688ac", "addresses": ["16GJh9w4sRaYGTCVRPvXdJHxAjnujosf6T"], "asm": "OP_DUP OP_HASH160 39bda31bc8a85fc412a81e766812a7454b575fe6 OP_EQUALVERIFY OP_CHECKSIG", "type": "pubkeyhash"}, "value": 0.00040209, "n": 1}], "hex": "02000000015c5e6dbfd00caab68df16a329a08f4ce64689ba6eb06908398604121b62360e0000000006b483045022100aa57eb4e52e774faa832d5ab104f27b82c9a482b15e6fcd2b27068f56f29434202201ea082563c0d2b953ddd85ce93d48946d5e69ae0339c55e68b4b41c143d50bd3012103388eb9c26308665531fb0f0a8d5ea42541f979e84ffb3e3edf83abafafa50286feffffff0234730f00000000001976a914dba358fa1e332eb40d78c510547915cf7eced08c88ac119d0000000000001976a91439bda31bc8a85fc412a81e766812a7454b575fe688ac14490800", "vin": [{"sequence": 4294967294, "scriptSig": {"hex": "483045022100aa57eb4e52e774faa832d5ab104f27b82c9a482b15e6fcd2b27068f56f29434202201ea082563c0d2b953ddd85ce93d48946d5e69ae0339c55e68b4b41c143d50bd3012103388eb9c26308665531fb0f0a8d5ea42541f979e84ffb3e3edf83abafafa50286", "asm": "3045022100aa57eb4e52e774faa832d5ab104f27b82c9a482b15e6fcd2b27068f56f29434202201ea082563c0d2b953ddd85ce93d48946d5e69ae0339c55e68b4b41c143d50bd3[ALL] 03388eb9c26308665531fb0f0a8d5ea42541f979e84ffb3e3edf83abafafa50286"}, "vout": 0, "txid": "e06023b621416098839006eba69b6864cef4089a326af18db6aa0cd0bf6d5e5c"}], "txid": "2e6d613b614b89192b571fba2b5d92c4517b26d39a1efab6c9b917eb2d016779", "blocktime": 1537873891, "version": 2, "confirmations": 11474, "time": 1537873891, "locktime": 542996, "vsize": 226, "size": 226}