{"hash": "d4c807eec3792e31a8decc14825f2e8f320533bf5ba5f16cbca3b817199e5435", "blockhash": "0000000000000000000e13cef7c366c0283d82e591d1acd082e914b08063cdf1", "vout": [{"scriptPubKey": {"reqSigs": 1, "hex": "76a914e2e935237afbbfe00bd99aaa81246024105058c788ac", "addresses": ["1Mgo5uCE8xnPyzaSukNvFp2KYQNQKmaVky"], "asm": "OP_DUP OP_HASH160 e2e935237afbbfe00bd99aaa81246024105058c7 OP_EQUALVERIFY OP_CHECKSIG", "type": "pubkeyhash"}, "value": 0.0017156, "n": 0}, {"scriptPubKey": {"reqSigs": 1, "hex": "a914909ede963b18c04544c4be3006fe221c067f610587", "addresses": ["3EshYcU4nb9Qp1q56zRvTqzTPijbCzPMUW"], "asm": "OP_HASH160 909ede963b18c04544c4be3006fe221c067f6105 OP_EQUAL", "type": "scripthash"}, "value": 0.01083737, "n": 1}], "hex": "020000000001029653b178d5cb6471331943701bfba0ffe4999c7e60808823d632f904e7bc709c010000001716001467a0fc941eb0eaced7cbb0b681f93e12d0a44868fefffffff82d7c3d9475eb1ee7b32dc16c967240fa4f8f89f004959c2d6de81ac2c806910900000017160014c28580a1043633f89486f6e81b1daf5f3ee75d51feffffff02289e0200000000001976a914e2e935237afbbfe00bd99aaa81246024105058c788ac598910000000000017a914909ede963b18c04544c4be3006fe221c067f61058702483045022100924cf73592dc6489b1ebe6ae31375f5b99eeb04e798116638789de9c53acb39d0220684e6e55e8288e7922eae743d97ff9bcf3d2085309056c9d1f34aef1394061e7012103269419755714a21a21231a0a3a131f6e956ea4fd9c48032a728db611aa9710b202483045022100fb32f8075b5698d9575b470ddb99c3ddbd2c947a1befc89cfc366ee5b47ecfe50220641fa92bd7c234c2b4ad05ce1db6e248343bf69354e7dd05d246e508455a1d6601210388ec78611b288b2243f30a263f0b6569cee2c314cf0c10f9ca44acc250f5dd12be480800", "vin": [{"txinwitness": ["3045022100924cf73592dc6489b1ebe6ae31375f5b99eeb04e798116638789de9c53acb39d0220684e6e55e8288e7922eae743d97ff9bcf3d2085309056c9d1f34aef1394061e701", "03269419755714a21a21231a0a3a131f6e956ea4fd9c48032a728db611aa9710b2"], "sequence": 4294967294, "scriptSig": {"hex": "16001467a0fc941eb0eaced7cbb0b681f93e12d0a44868", "asm": "001467a0fc941eb0eaced7cbb0b681f93e12d0a44868"}, "vout": 1, "txid": "9c70bce704f932d6238880607e9c99e4ffa0fb1b704319337164cbd578b15396"}, {"txinwitness": ["3045022100fb32f8075b5698d9575b470ddb99c3ddbd2c947a1befc89cfc366ee5b47ecfe50220641fa92bd7c234c2b4ad05ce1db6e248343bf69354e7dd05d246e508455a1d6601", "0388ec78611b288b2243f30a263f0b6569cee2c314cf0c10f9ca44acc250f5dd12"], "sequence": 4294967294, "scriptSig": {"hex": "160014c28580a1043633f89486f6e81b1daf5f3ee75d51", "asm": "0014c28580a1043633f89486f6e81b1daf5f3ee75d51"}, "vout": 9, "txid": "9106c8c21ae86d2d9c9504f0898f4ffa4072966cc12db3e71eeb75943d7c2df8"}], "txid": "2e7124003719c2985e75bb4817dc4efe013dcd0f8dce529ca4ea74c31c11ec86", "blocktime": 1537871767, "version": 2, "confirmations": 11495, "time": 1537871767, "locktime": 542910, "vsize": 259, "size": 422}