{"hash": "2e74d39c11c490d01ad3ec15a06d2c6b9dd0479d12ed093d88c9aa2572c4ed7b", "blockhash": "000000000000000000022b45ed06c6f4ccd3cf7fb5ba4856ebd2e58215665228", "vout": [{"scriptPubKey": {"reqSigs": 1, "hex": "76a914a35659979190b9d55afd35b1d1a6eb8ea4fbe95588ac", "addresses": ["1FteayE1xTt8h7ijnvW9bZRfqGu9f5LVAP"], "asm": "OP_DUP OP_HASH160 a35659979190b9d55afd35b1d1a6eb8ea4fbe955 OP_EQUALVERIFY OP_CHECKSIG", "type": "pubkeyhash"}, "value": 0.01125437, "n": 0}, {"scriptPubKey": {"reqSigs": 1, "hex": "a91443a0faf4faf38db4dc7b605de9599ec20739873387", "addresses": ["37rc3WAvRhomj5kmFWHeMRMKC7EZYmmQEM"], "asm": "OP_HASH160 43a0faf4faf38db4dc7b605de9599ec207398733 OP_EQUAL", "type": "scripthash"}, "value": 0.092, "n": 1}], "hex": "0100000002998deec58fced3d514c3d27b042b536ae73db41846d8d2831fcafc19d1a850b3000000006b483045022100fed2e9aa14f14154636c8ac01d2491c1d8fa54c13f77971096e7e9c2089222ee02203bb50311253df09a319d4b3a2752c37ca2af1504d5b23d177d44569a92defcd20121021890e08947cc0707802aafc279eb54573c1d8b3738a9fb2ee651bb293c899a3affffffffaf4a9b0927b985c003c1a906be24a5975f9060e0037b27f301893e36a1046845000000006b483045022100f9621f7d21ad46f8b81fbe7a45e8e15a2d44100f3a7e9b55be28d0c0fcfc82ff022078d6939e006e05734bc887835ff34f6506eb2e019af2fbd85b72ec934f3128c4012102108980d0ffa2d7292b573459c79fddda0da95a43562ede8d81a821ccf5e4be74ffffffff023d2c1100000000001976a914a35659979190b9d55afd35b1d1a6eb8ea4fbe95588ac80618c000000000017a91443a0faf4faf38db4dc7b605de9599ec2073987338700000000", "vin": [{"sequence": 4294967295, "scriptSig": {"hex": "483045022100fed2e9aa14f14154636c8ac01d2491c1d8fa54c13f77971096e7e9c2089222ee02203bb50311253df09a319d4b3a2752c37ca2af1504d5b23d177d44569a92defcd20121021890e08947cc0707802aafc279eb54573c1d8b3738a9fb2ee651bb293c899a3a", "asm": "3045022100fed2e9aa14f14154636c8ac01d2491c1d8fa54c13f77971096e7e9c2089222ee02203bb50311253df09a319d4b3a2752c37ca2af1504d5b23d177d44569a92defcd2[ALL] 021890e08947cc0707802aafc279eb54573c1d8b3738a9fb2ee651bb293c899a3a"}, "vout": 0, "txid": "b350a8d119fcca1f83d2d84618b43de76a532b047bd2c314d5d3ce8fc5ee8d99"}, {"sequence": 4294967295, "scriptSig": {"hex": "483045022100f9621f7d21ad46f8b81fbe7a45e8e15a2d44100f3a7e9b55be28d0c0fcfc82ff022078d6939e006e05734bc887835ff34f6506eb2e019af2fbd85b72ec934f3128c4012102108980d0ffa2d7292b573459c79fddda0da95a43562ede8d81a821ccf5e4be74", "asm": "3045022100f9621f7d21ad46f8b81fbe7a45e8e15a2d44100f3a7e9b55be28d0c0fcfc82ff022078d6939e006e05734bc887835ff34f6506eb2e019af2fbd85b72ec934f3128c4[ALL] 02108980d0ffa2d7292b573459c79fddda0da95a43562ede8d81a821ccf5e4be74"}, "vout": 0, "txid": "456804a1363e8901f3277b03e060905f97a524be06a9c103c085b927099b4aaf"}], "txid": "2e74d39c11c490d01ad3ec15a06d2c6b9dd0479d12ed093d88c9aa2572c4ed7b", "blocktime": 1537869901, "version": 1, "confirmations": 11522, "time": 1537869901, "locktime": 0, "vsize": 372, "size": 372}