{"hash": "2e7c216217842a9c58bb8dba61499089849710835fa05118d3ee15b87e4d7fe1", "blockhash": "00000000000000000017f5eb5941039fbcee6240d03bc1f2f8e35350df66a1d8", "vout": [{"scriptPubKey": {"reqSigs": 1, "hex": "a91482e7e273ec4e0dff2590e50d5fec2ebc665cd1f787", "addresses": ["3DdBZ734DjaqBf29PvjxWv9mvU6VaQEs8H"], "asm": "OP_HASH160 82e7e273ec4e0dff2590e50d5fec2ebc665cd1f7 OP_EQUAL", "type": "scripthash"}, "value": 60.0, "n": 0}, {"scriptPubKey": {"reqSigs": 1, "hex": "76a91404fd177b19b42ded5b28beef703286b4397bf70c88ac", "addresses": ["1TNttXnbTAkUiD1WgAYwbjysLJCXeJzpb"], "asm": "OP_DUP OP_HASH160 04fd177b19b42ded5b28beef703286b4397bf70c OP_EQUALVERIFY OP_CHECKSIG", "type": "pubkeyhash"}, "value": 139.99947514, "n": 1}], "hex": "010000000174288cf3b779964470cb986bcb10d9e31d871a9b65895a6a4d3154360a16a651020000006a47304402205438b704020972e0eede2e695d2b261ee3649c57579d119ff1ccc3d83606696c0220660389fd604833098cf1e4b9ec75f9de58509287d7785fcd7c202add09d66105012103af884ef0d8b84fc917eae8326940226dc71ada52879bf625550f0acd4f2b44bbffffffff0200bca0650100000017a91482e7e273ec4e0dff2590e50d5fec2ebc665cd1f787fa3e7642030000001976a91404fd177b19b42ded5b28beef703286b4397bf70c88ac00000000", "vin": [{"sequence": 4294967295, "scriptSig": {"hex": "47304402205438b704020972e0eede2e695d2b261ee3649c57579d119ff1ccc3d83606696c0220660389fd604833098cf1e4b9ec75f9de58509287d7785fcd7c202add09d66105012103af884ef0d8b84fc917eae8326940226dc71ada52879bf625550f0acd4f2b44bb", "asm": "304402205438b704020972e0eede2e695d2b261ee3649c57579d119ff1ccc3d83606696c0220660389fd604833098cf1e4b9ec75f9de58509287d7785fcd7c202add09d66105[ALL] 03af884ef0d8b84fc917eae8326940226dc71ada52879bf625550f0acd4f2b44bb"}, "vout": 2, "txid": "51a6160a3654314d6a5a89659b1a871de3d910cb6b98cb70449679b7f38c2874"}], "txid": "2e7c216217842a9c58bb8dba61499089849710835fa05118d3ee15b87e4d7fe1", "blocktime": 1537874412, "version": 1, "confirmations": 11467, "time": 1537874412, "locktime": 0, "vsize": 223, "size": 223}