{"hash": "90f0c74e8a3c1fa876dd2ed4dfab8d84159eadd7aa9462cd8e3f3c0d077ad8ed", "blockhash": "0000000000000000000e13cef7c366c0283d82e591d1acd082e914b08063cdf1", "vout": [{"scriptPubKey": {"reqSigs": 1, "hex": "a91419e2c832596f9781fee6e93baec11d0b8e9eb8d287", "addresses": ["343tVRv4kmfgFU2W5zaQTR1JnfsCM3fkTB"], "asm": "OP_HASH160 19e2c832596f9781fee6e93baec11d0b8e9eb8d2 OP_EQUAL", "type": "scripthash"}, "value": 0.01036753, "n": 0}, {"scriptPubKey": {"reqSigs": 1, "hex": "76a9146f4b18ea32188c2c6c117c6be7d98ca1c5ea3b4288ac", "addresses": ["1B9Ty9WUG3Typ6tQDdnR6nVr6zQML7R3kK"], "asm": "OP_DUP OP_HASH160 6f4b18ea32188c2c6c117c6be7d98ca1c5ea3b42 OP_EQUALVERIFY OP_CHECKSIG", "type": "pubkeyhash"}, "value": 0.0021786, "n": 1}], "hex": "020000000001024e86291c24aeac14a23263398a7b69b0d7c908fe489f4ebbb56503bdfe4dc2ec01000000171600149a10df36638e8e6519a6e5e4cb05b68ebc9fd57efeffffffabe1d5eb354e739db1c1742a3a7cfd830a6e3d63d1b93078d544e64f0c4b28c00b000000171600148c0c4f6c09aa000d552021101b317205c9a2432afeffffff02d1d10f000000000017a91419e2c832596f9781fee6e93baec11d0b8e9eb8d28704530300000000001976a9146f4b18ea32188c2c6c117c6be7d98ca1c5ea3b4288ac0247304402202c5eb8d4d235332551d1672e14cffd13e61cb3e000d5b6edd5329f9c729ece3c02201399c63e5f34c5021cf0494927acab079b859bdde90c9c7f33676d88188c01b2012103cd3526f618ce4f27cbc38365a09e23113d1d402cb42d837318ce9ea13b6c2dbd0247304402203bc22e5668f32222d3a4ab94cf2c5c01d2881a53870f20a168ca5e4b4324231e022014367ad2ba0e8066d1ca35857e1ced9c9aa5fc18898e3008f9adeae054a468f90121037237e6c536e1f3b96177bd4ef45c583fdd088acfdb6a14d994b7b9e4598d777510490800", "vin": [{"txinwitness": ["304402202c5eb8d4d235332551d1672e14cffd13e61cb3e000d5b6edd5329f9c729ece3c02201399c63e5f34c5021cf0494927acab079b859bdde90c9c7f33676d88188c01b201", "03cd3526f618ce4f27cbc38365a09e23113d1d402cb42d837318ce9ea13b6c2dbd"], "sequence": 4294967294, "scriptSig": {"hex": "1600149a10df36638e8e6519a6e5e4cb05b68ebc9fd57e", "asm": "00149a10df36638e8e6519a6e5e4cb05b68ebc9fd57e"}, "vout": 1, "txid": "ecc24dfebd0365b5bb4e9f48fe08c9d7b0697b8a396332a214acae241c29864e"}, {"txinwitness": ["304402203bc22e5668f32222d3a4ab94cf2c5c01d2881a53870f20a168ca5e4b4324231e022014367ad2ba0e8066d1ca35857e1ced9c9aa5fc18898e3008f9adeae054a468f901", "037237e6c536e1f3b96177bd4ef45c583fdd088acfdb6a14d994b7b9e4598d7775"], "sequence": 4294967294, "scriptSig": {"hex": "1600148c0c4f6c09aa000d552021101b317205c9a2432a", "asm": "00148c0c4f6c09aa000d552021101b317205c9a2432a"}, "vout": 11, "txid": "c0284b0c4fe644d57830b9d1633d6e0a83fd7c3a2a74c1b19d734e35ebd5e1ab"}], "txid": "2e7f3ca1864589fecbe1a02222f0b3d3749be5724afe809416cc928c350a6eba", "blocktime": 1537871767, "version": 2, "confirmations": 11495, "time": 1537871767, "locktime": 542992, "vsize": 258, "size": 420}