{"hash": "897250773374798b7fbf935300283df1e01a7250e339bc27a67ba88ede057a3c", "blockhash": "0000000000000000001cda96e906b7601b7a6fb1a3b62bca570a9e5d8f4b3de1", "vout": [{"scriptPubKey": {"reqSigs": 1, "hex": "a9147e4fcbb74b88574c4b4639945688c96312942ab387", "addresses": ["3DCtf2CB4UPKJg2xpMgYmQ3aQzn3Lpv23o"], "asm": "OP_HASH160 7e4fcbb74b88574c4b4639945688c96312942ab3 OP_EQUAL", "type": "scripthash"}, "value": 5e-05, "n": 0}, {"scriptPubKey": {"reqSigs": 1, "hex": "a9141d7370ccde4590204155e4074f69743a8e4fac0287", "addresses": ["34Njp4ZKtmCDfqqps26wHBYQQGUo2pGkLi"], "asm": "OP_HASH160 1d7370ccde4590204155e4074f69743a8e4fac02 OP_EQUAL", "type": "scripthash"}, "value": 0.00264559, "n": 1}], "hex": "0100000000010308cf74290c8c669c40e4ebd6ec7f388710ad2810a6a4df9d6edadd25916ab38b0000000023220020f63dfc12340f6360d0251c22746d6b56093e3243e96ca012a65484a5d9cf0ec0ffffffff2758510ad3603a51a734d0417b6be52ff5e3462116723e437377e2223d8e741b0000000023220020f63dfc12340f6360d0251c22746d6b56093e3243e96ca012a65484a5d9cf0ec0fffffffff586db33b38c539c96d4cd9ad0133ea6a2427a0614025526d7bfa01d5a90b8530100000023220020f63dfc12340f6360d0251c22746d6b56093e3243e96ca012a65484a5d9cf0ec0ffffffff02881300000000000017a9147e4fcbb74b88574c4b4639945688c96312942ab3876f0904000000000017a9141d7370ccde4590204155e4074f69743a8e4fac02870400473044022053bd6bd6af8d1871680b3129f7d4a3e2c27eca344702436ece6743e05adef00a02204f5ec8d5dbb3fb74ceb0d674dd8a7784d62e10dd19b76d1d0028b0887b15d2f801473044022063bf7c464b3199344a23fc8cc905bdd7f430e27c2f0546d7d4a64f565cc2cdf302206f0b0b0b2f3f63e8d65dae48beca5e83bf5b639707ab59abdc26fd5eff37fb2f0147522102097067a6a0cc130a9a6f6577b47bf369b840a79de31cd7457187994266b1bb7c2103338f346cab6ba87fe940591a03ac234be06520c5ab386d4b6632e8eef0d0db7652ae0400483045022100ed3114df8f857480775ba8d7186965bc8ab194468731d536a5983ea96a1714550220779b6c147e0ee62e7a34a8278ad8de8fe4cf5a6e569451683066ca1572173d5801473044022074ca33cf994958f0c9c577232af04da6ef1410e57c2e7c29b4892877612be2120220385e49c8f0e3908146da2c4f3800d252a63633675cb7ed367985ee450b01a21d0147522102097067a6a0cc130a9a6f6577b47bf369b840a79de31cd7457187994266b1bb7c2103338f346cab6ba87fe940591a03ac234be06520c5ab386d4b6632e8eef0d0db7652ae0400483045022100e33d59851e9cf4430b6c24671b1b15ac1cc2921b1673f03406a1143560ca6bd002205d9f0942544a939a7603b81724ede7aa9b53198638d36d98eced65dab049469501483045022100a2af8b22ab53d7f6600722c684f5ce943574f1cec8376d045b0cfdd404a8e4fd022053b10b9acfd921322bad7cc9c79b800e34279b9ad87543399a98f216b2a843960147522102097067a6a0cc130a9a6f6577b47bf369b840a79de31cd7457187994266b1bb7c2103338f346cab6ba87fe940591a03ac234be06520c5ab386d4b6632e8eef0d0db7652ae00000000", "vin": [{"txinwitness": ["", "3044022053bd6bd6af8d1871680b3129f7d4a3e2c27eca344702436ece6743e05adef00a02204f5ec8d5dbb3fb74ceb0d674dd8a7784d62e10dd19b76d1d0028b0887b15d2f801", "3044022063bf7c464b3199344a23fc8cc905bdd7f430e27c2f0546d7d4a64f565cc2cdf302206f0b0b0b2f3f63e8d65dae48beca5e83bf5b639707ab59abdc26fd5eff37fb2f01", "522102097067a6a0cc130a9a6f6577b47bf369b840a79de31cd7457187994266b1bb7c2103338f346cab6ba87fe940591a03ac234be06520c5ab386d4b6632e8eef0d0db7652ae"], "sequence": 4294967295, "scriptSig": {"hex": "220020f63dfc12340f6360d0251c22746d6b56093e3243e96ca012a65484a5d9cf0ec0", "asm": "0020f63dfc12340f6360d0251c22746d6b56093e3243e96ca012a65484a5d9cf0ec0"}, "vout": 0, "txid": "8bb36a9125ddda6e9ddfa4a61028ad1087387fecd6ebe4409c668c0c2974cf08"}, {"txinwitness": ["", "3045022100ed3114df8f857480775ba8d7186965bc8ab194468731d536a5983ea96a1714550220779b6c147e0ee62e7a34a8278ad8de8fe4cf5a6e569451683066ca1572173d5801", "3044022074ca33cf994958f0c9c577232af04da6ef1410e57c2e7c29b4892877612be2120220385e49c8f0e3908146da2c4f3800d252a63633675cb7ed367985ee450b01a21d01", "522102097067a6a0cc130a9a6f6577b47bf369b840a79de31cd7457187994266b1bb7c2103338f346cab6ba87fe940591a03ac234be06520c5ab386d4b6632e8eef0d0db7652ae"], "sequence": 4294967295, "scriptSig": {"hex": "220020f63dfc12340f6360d0251c22746d6b56093e3243e96ca012a65484a5d9cf0ec0", "asm": "0020f63dfc12340f6360d0251c22746d6b56093e3243e96ca012a65484a5d9cf0ec0"}, "vout": 0, "txid": "1b748e3d22e27773433e72162146e3f52fe56b7b41d034a7513a60d30a515827"}, {"txinwitness": ["", "3045022100e33d59851e9cf4430b6c24671b1b15ac1cc2921b1673f03406a1143560ca6bd002205d9f0942544a939a7603b81724ede7aa9b53198638d36d98eced65dab049469501", "3045022100a2af8b22ab53d7f6600722c684f5ce943574f1cec8376d045b0cfdd404a8e4fd022053b10b9acfd921322bad7cc9c79b800e34279b9ad87543399a98f216b2a8439601", "522102097067a6a0cc130a9a6f6577b47bf369b840a79de31cd7457187994266b1bb7c2103338f346cab6ba87fe940591a03ac234be06520c5ab386d4b6632e8eef0d0db7652ae"], "sequence": 4294967295, "scriptSig": {"hex": "220020f63dfc12340f6360d0251c22746d6b56093e3243e96ca012a65484a5d9cf0ec0", "asm": "0020f63dfc12340f6360d0251c22746d6b56093e3243e96ca012a65484a5d9cf0ec0"}, "vout": 1, "txid": "53b8905a1da0bfd726550214067a42a2a63e13d09acdd4969c538cb333db86f5"}], "txid": "2e9043404b9cdcf18f7de2e20b039b2b67ab309867f1441faf57077895fa464b", "blocktime": 1537873282, "version": 1, "confirmations": 11484, "time": 1537873282, "locktime": 0, "vsize": 467, "size": 961}