{"hash": "d783667d18a9a84d7df7e866428b4fdf03d149349dfa89beed5efb41b9ab198e", "blockhash": "000000000000000000022b45ed06c6f4ccd3cf7fb5ba4856ebd2e58215665228", "vout": [{"scriptPubKey": {"reqSigs": 1, "hex": "76a9145175fdd03548bd08481b53759ab7081ba6c1703b88ac", "addresses": ["18Rj5jFhYFZybybQiA1Xra7kKLFqG77D2c"], "asm": "OP_DUP OP_HASH160 5175fdd03548bd08481b53759ab7081ba6c1703b OP_EQUALVERIFY OP_CHECKSIG", "type": "pubkeyhash"}, "value": 0.00015182, "n": 0}, {"scriptPubKey": {"reqSigs": 1, "hex": "a914414cec0fc72a9410f6836edaf08de1aa3b2a321c87", "addresses": ["37eHzewnAFRR2SVZu8rZM3nBsmuE2XBU7D"], "asm": "OP_HASH160 414cec0fc72a9410f6836edaf08de1aa3b2a321c OP_EQUAL", "type": "scripthash"}, "value": 1.10614377, "n": 1}], "hex": "010000000001015e825d635edb4c5725f87ca81174fdc943be4c7d642122dee4f86cb16c61b6280100000023220020ce74cde37cfb8dd71d0179287e12fc721ee236ce3c89c2745bcd365b39807eb3ffffffff024e3b0000000000001976a9145175fdd03548bd08481b53759ab7081ba6c1703b88ac69d797060000000017a914414cec0fc72a9410f6836edaf08de1aa3b2a321c870400483045022100d6001e70a46a57c1955dc89aa62084c5e1c7a23626179f3743e2a70848b75b9002200460058992ae9c4f2f272375cdcb5954561a04da983e2529447f9ee60ea87e2f01483045022100a30e0926b4af025d772e6ca0b3741df039322fa03b8d182cc06d237918edcaab022036317eaa049136e981c5370601e0e633ebfa9476cac2cfd86c84ee4343fa20550147522103ada901d90d5a76319a60f228e0b1bbc84b1d9a87238550bae5d5d190067b66712103871fc2ca08e6950b38867e8e6a0e94ee625223d3aa0df5c65f414c6d784467e252ae00000000", "vin": [{"txinwitness": ["", "3045022100d6001e70a46a57c1955dc89aa62084c5e1c7a23626179f3743e2a70848b75b9002200460058992ae9c4f2f272375cdcb5954561a04da983e2529447f9ee60ea87e2f01", "3045022100a30e0926b4af025d772e6ca0b3741df039322fa03b8d182cc06d237918edcaab022036317eaa049136e981c5370601e0e633ebfa9476cac2cfd86c84ee4343fa205501", "522103ada901d90d5a76319a60f228e0b1bbc84b1d9a87238550bae5d5d190067b66712103871fc2ca08e6950b38867e8e6a0e94ee625223d3aa0df5c65f414c6d784467e252ae"], "sequence": 4294967295, "scriptSig": {"hex": "220020ce74cde37cfb8dd71d0179287e12fc721ee236ce3c89c2745bcd365b39807eb3", "asm": "0020ce74cde37cfb8dd71d0179287e12fc721ee236ce3c89c2745bcd365b39807eb3"}, "vout": 1, "txid": "28b6616cb16cf8e4de2221647d4cbe43c9fd7411a87cf825574cdb5e635d825e"}], "txid": "2e90c4ea1a19ee9f400ac3be260e19476448d3f5cf2245b38ac328c7239b7ae0", "blocktime": 1537869901, "version": 1, "confirmations": 11524, "time": 1537869901, "locktime": 0, "vsize": 208, "size": 374}