{"hash": "2e949688187ef0a0b2a4c5987f1b569d74003208f73e372bd71548627fd6685b", "blockhash": "0000000000000000000dcc0f55137456b1a82d3642486a52398922ac4d620174", "vout": [{"scriptPubKey": {"reqSigs": 1, "hex": "76a914bb26ae6eccbf6686096dc90dc38d784c85af536d88ac", "addresses": ["1J4ZhW6FawhPVNSpqU8ZYCf9gW81b5ieaG"], "asm": "OP_DUP OP_HASH160 bb26ae6eccbf6686096dc90dc38d784c85af536d OP_EQUALVERIFY OP_CHECKSIG", "type": "pubkeyhash"}, "value": 0.0010978, "n": 0}, {"scriptPubKey": {"type": "nulldata", "hex": "6a4c50000077720001a8d80c7dcecb5eb2c680378986aeaeacb577c031fc3a016b46dc7dc7d0967f080169445d6a745281f4863d1dda005baa090d0613e075cadb814cbc9a9526289ac0f6612cd74e33776ee4", "asm": "OP_RETURN 000077720001a8d80c7dcecb5eb2c680378986aeaeacb577c031fc3a016b46dc7dc7d0967f080169445d6a745281f4863d1dda005baa090d0613e075cadb814cbc9a9526289ac0f6612cd74e33776ee4"}, "value": 0.0, "n": 1}], "hex": "0100000001542a4460757ac8e358c5870474081e092d6a89962ed0725a7d637c90a29e85bf000000006b483045022100dff8fa4629d43d85b600ed17b4f626b765dcda983c29a4b82b48a2896d0d3b61022074860efa9bd33bec9cad2f40f7539559e27a619a498a89f08d62b955ff8089fd0121033dc05c9bb05e564de93c4234398c9d5fb219e87470f99b74ab0c4b7681f6a479ffffffff02d4ac0100000000001976a914bb26ae6eccbf6686096dc90dc38d784c85af536d88ac0000000000000000536a4c50000077720001a8d80c7dcecb5eb2c680378986aeaeacb577c031fc3a016b46dc7dc7d0967f080169445d6a745281f4863d1dda005baa090d0613e075cadb814cbc9a9526289ac0f6612cd74e33776ee400000000", "vin": [{"sequence": 4294967295, "scriptSig": {"hex": "483045022100dff8fa4629d43d85b600ed17b4f626b765dcda983c29a4b82b48a2896d0d3b61022074860efa9bd33bec9cad2f40f7539559e27a619a498a89f08d62b955ff8089fd0121033dc05c9bb05e564de93c4234398c9d5fb219e87470f99b74ab0c4b7681f6a479", "asm": "3045022100dff8fa4629d43d85b600ed17b4f626b765dcda983c29a4b82b48a2896d0d3b61022074860efa9bd33bec9cad2f40f7539559e27a619a498a89f08d62b955ff8089fd[ALL] 033dc05c9bb05e564de93c4234398c9d5fb219e87470f99b74ab0c4b7681f6a479"}, "vout": 0, "txid": "bf859ea2907c637d5a72d02e96896a2d091e08740487c558e3c87a7560442a54"}], "txid": "2e949688187ef0a0b2a4c5987f1b569d74003208f73e372bd71548627fd6685b", "blocktime": 1537870268, "version": 1, "confirmations": 11518, "time": 1537870268, "locktime": 0, "vsize": 284, "size": 284}