{"hash": "880ff63f954809d21da37f6e074b65aaed1bfb142884c7aa2846aca46f642981", "blockhash": "0000000000000000000baef3f32e3676a92c3b2e5da21b426e4f302fc371ce76", "vout": [{"scriptPubKey": {"reqSigs": 1, "hex": "76a91403e9c74bff22cb4449758115acf64fd63b1a5ff988ac", "addresses": ["1Mh5nronacWLX3Kuet4j2HfyKgtyVEa61"], "asm": "OP_DUP OP_HASH160 03e9c74bff22cb4449758115acf64fd63b1a5ff9 OP_EQUALVERIFY OP_CHECKSIG", "type": "pubkeyhash"}, "value": 0.01444072, "n": 0}, {"scriptPubKey": {"reqSigs": 1, "hex": "a91434aa8830b3197d804f5cf273099c61db790c80dc87", "addresses": ["36VVMHkGB4vZexQsv66WzHtA4gE815eAB2"], "asm": "OP_HASH160 34aa8830b3197d804f5cf273099c61db790c80dc OP_EQUAL", "type": "scripthash"}, "value": 0.00061987, "n": 1}], "hex": "02000000000104f554578788552b5369ef9ec29ab584b54dfd1dc60b36065250e67e86384452a20900000017160014a9fe1915697ec8833ba6466f782730aafc5468bcffffffffa6b9b7821893fa4c55055604860970acbc825e327c1c1bf503851092f8de0b1c010000001716001459a7d325d73c6ea0dc322fb52931ee4530824187ffffffffed9c939ab5ff0e8eca875cd57cf78872ffd126d123287761162dd6adfffe4d73010000001716001425c87f2c9fecf7609a782938f7c6e1f7c7e91daaffffffffd575ea6b707848c77d43c71a84d3466bbcfee2b049b8f5a7abb942014f5f18eb01000000171600143e6a18d4fb1fd6e45142fc96e9a1741748510400ffffffff02e8081600000000001976a91403e9c74bff22cb4449758115acf64fd63b1a5ff988ac23f200000000000017a91434aa8830b3197d804f5cf273099c61db790c80dc87024730440220603dc45f456c610d6794eba0d34931336ac02b8ec6e96ba3cf5891a6a5eca8ac02204aad59eff630a149a09e22296967d27117721f001eb4e0641d7496acc4d43679012102522ee921bb085df10c675b2b45de23eb6b745a71eb95664603b65796df21bbcd02473044022006be778925bd8ce0ada426816afce41012a59f9e0b06f1a37e8bfe6ecc247ce9022076d827547deee2bb034e8f38089ff7a125efb6793fa11acf0b6e026574fff97e01210237302b7227a0053ba696777484efbfb948d8c9ee4d8da95d38b384f70a2583e402483045022100fa57579df234eb9bb74cf89bf7db8ca2d361ed7356ad67ef2ede05a8fefa98bd02204496bddad679c63c661877e886e6c6c255496e0f3872c9102669482d65a69cc7012103e995910fe6b49bbbfb419a1bec052fc370f0215f780bd2813176fc63dff9d9ba0247304402201251eeba6ed5233f6ac9d52ad6e17caefe9adf43a0bc4adbad71140112a823e20220089527dde2a82697b56d490c24f1b93b3f3e3a3d720ba99a51f38306498ad01c01210372b62c527cdba820707ae359cc444d22e2e8b76f0f105ac779275e0e074d960600000000", "vin": [{"txinwitness": ["30440220603dc45f456c610d6794eba0d34931336ac02b8ec6e96ba3cf5891a6a5eca8ac02204aad59eff630a149a09e22296967d27117721f001eb4e0641d7496acc4d4367901", "02522ee921bb085df10c675b2b45de23eb6b745a71eb95664603b65796df21bbcd"], "sequence": 4294967295, "scriptSig": {"hex": "160014a9fe1915697ec8833ba6466f782730aafc5468bc", "asm": "0014a9fe1915697ec8833ba6466f782730aafc5468bc"}, "vout": 9, "txid": "a2524438867ee6505206360bc61dfd4db584b59ac29eef69532b5588875754f5"}, {"txinwitness": ["3044022006be778925bd8ce0ada426816afce41012a59f9e0b06f1a37e8bfe6ecc247ce9022076d827547deee2bb034e8f38089ff7a125efb6793fa11acf0b6e026574fff97e01", "0237302b7227a0053ba696777484efbfb948d8c9ee4d8da95d38b384f70a2583e4"], "sequence": 4294967295, "scriptSig": {"hex": "16001459a7d325d73c6ea0dc322fb52931ee4530824187", "asm": "001459a7d325d73c6ea0dc322fb52931ee4530824187"}, "vout": 1, "txid": "1c0bdef892108503f51b1c7c325e82bcac700986045605554cfa931882b7b9a6"}, {"txinwitness": ["3045022100fa57579df234eb9bb74cf89bf7db8ca2d361ed7356ad67ef2ede05a8fefa98bd02204496bddad679c63c661877e886e6c6c255496e0f3872c9102669482d65a69cc701", "03e995910fe6b49bbbfb419a1bec052fc370f0215f780bd2813176fc63dff9d9ba"], "sequence": 4294967295, "scriptSig": {"hex": "16001425c87f2c9fecf7609a782938f7c6e1f7c7e91daa", "asm": "001425c87f2c9fecf7609a782938f7c6e1f7c7e91daa"}, "vout": 1, "txid": "734dfeffadd62d1661772823d126d1ff7288f77cd55c87ca8e0effb59a939ced"}, {"txinwitness": ["304402201251eeba6ed5233f6ac9d52ad6e17caefe9adf43a0bc4adbad71140112a823e20220089527dde2a82697b56d490c24f1b93b3f3e3a3d720ba99a51f38306498ad01c01", "0372b62c527cdba820707ae359cc444d22e2e8b76f0f105ac779275e0e074d9606"], "sequence": 4294967295, "scriptSig": {"hex": "1600143e6a18d4fb1fd6e45142fc96e9a1741748510400", "asm": "00143e6a18d4fb1fd6e45142fc96e9a1741748510400"}, "vout": 1, "txid": "eb185f4f0142b9aba7f5b849b0e2febc6b46d3841ac7437dc74878706bea75d5"}], "txid": "2e96f6dd30652e0523be8cef707a807db701339caba9bb93cfa009a68031be17", "blocktime": 1537876114, "version": 2, "confirmations": 11459, "time": 1537876114, "locktime": 0, "vsize": 440, "size": 763}