{"hash": "2e99482af7e6c4302ff88c60f370bae254243dba0a645afd8ec94ea08ed3dc1f", "blockhash": "0000000000000000001cda96e906b7601b7a6fb1a3b62bca570a9e5d8f4b3de1", "vout": [{"scriptPubKey": {"reqSigs": 1, "hex": "76a91472e2364e814e76d43cdf7fd38acb863a54b158e888ac", "addresses": ["1BUT2N5R22VawEh2umSurkdG6Y8PChPquR"], "asm": "OP_DUP OP_HASH160 72e2364e814e76d43cdf7fd38acb863a54b158e8 OP_EQUALVERIFY OP_CHECKSIG", "type": "pubkeyhash"}, "value": 0.00015613, "n": 0}, {"scriptPubKey": {"reqSigs": 1, "hex": "76a91458cb713a957ef09bb894579da52e19e80ab54c0a88ac", "addresses": ["196WBJPsja5Mx2sYUP5GrM3VpQAdtmDg6U"], "asm": "OP_DUP OP_HASH160 58cb713a957ef09bb894579da52e19e80ab54c0a OP_EQUALVERIFY OP_CHECKSIG", "type": "pubkeyhash"}, "value": 0.0102633, "n": 1}], "hex": "0100000001a0ef8ae6275bf3dceefd8fdc960adff0efbf4d88550fc4b9a1cb0db6d5561fb2010000006b483045022100d66a16a265ad9bb74a1c5579368858c5ef5add352cf9d1c9d533014dea088d92022002344a28f984e14867c55280405948546d4c12f7ff76cf7ec2ad1c2831c2138b0121033e0ad2b7a3439e19fd217854228b3ae02a0519b5164078178680dfcd9bb41d8effffffff02fd3c0000000000001976a91472e2364e814e76d43cdf7fd38acb863a54b158e888ac1aa90f00000000001976a91458cb713a957ef09bb894579da52e19e80ab54c0a88ac00000000", "vin": [{"sequence": 4294967295, "scriptSig": {"hex": "483045022100d66a16a265ad9bb74a1c5579368858c5ef5add352cf9d1c9d533014dea088d92022002344a28f984e14867c55280405948546d4c12f7ff76cf7ec2ad1c2831c2138b0121033e0ad2b7a3439e19fd217854228b3ae02a0519b5164078178680dfcd9bb41d8e", "asm": "3045022100d66a16a265ad9bb74a1c5579368858c5ef5add352cf9d1c9d533014dea088d92022002344a28f984e14867c55280405948546d4c12f7ff76cf7ec2ad1c2831c2138b[ALL] 033e0ad2b7a3439e19fd217854228b3ae02a0519b5164078178680dfcd9bb41d8e"}, "vout": 1, "txid": "b21f56d5b60dcba1b9c40f55884dbfeff0df0a96dc8ffdeedcf35b27e68aefa0"}], "txid": "2e99482af7e6c4302ff88c60f370bae254243dba0a645afd8ec94ea08ed3dc1f", "blocktime": 1537873282, "version": 1, "confirmations": 11484, "time": 1537873282, "locktime": 0, "vsize": 226, "size": 226}