{"hash": "7b5e725dfaf7bbe64c764d38cebf8d22f52c4a7a214f3bc8bb283d38e1acd927", "blockhash": "0000000000000000001e0dab787dd257d1dbfcb92a98c2207d5e1078be1f4165", "vout": [{"scriptPubKey": {"reqSigs": 1, "hex": "76a91491ed8252adaaccf5964c8d8630308dcd88e8217d88ac", "addresses": ["1EJbWEeAGNNR5DQDM9rkUZQUKiq2G1UWhW"], "asm": "OP_DUP OP_HASH160 91ed8252adaaccf5964c8d8630308dcd88e8217d OP_EQUALVERIFY OP_CHECKSIG", "type": "pubkeyhash"}, "value": 0.0101, "n": 0}, {"scriptPubKey": {"reqSigs": 1, "hex": "0014dc635708cfc5b1c1667b2eb0a44ae2d0e8984d9d", "addresses": ["bc1qm334wzx0ckcuzenm96c2gjhz6r5fsnva2ywyjm"], "asm": "0 dc635708cfc5b1c1667b2eb0a44ae2d0e8984d9d", "type": "witness_v0_keyhash"}, "value": 8.14e-05, "n": 1}], "hex": "01000000000101a2d178cb625e17e1140758ec09b7a126b5f81aafbb49f8dc0bb93818b68848fb1e0000001716001473e701c8d206d583aa9feb5fc198a5ded7c1987affffffff0250690f00000000001976a91491ed8252adaaccf5964c8d8630308dcd88e8217d88accc1f000000000000160014dc635708cfc5b1c1667b2eb0a44ae2d0e8984d9d02483045022100be6f775380dd3ec67a05837358f8c0c7c04106a0d9518005f0995588a2bb61e002203b3e60034e30b0ef1f698719e42aeffb337db5d915d754ce7505f3de62218d7a012102428e6fb1af1cb3fb5434d0584a7a4f95d1b324aa6b9a7147c90b66b4bd89c7fc00000000", "vin": [{"txinwitness": ["3045022100be6f775380dd3ec67a05837358f8c0c7c04106a0d9518005f0995588a2bb61e002203b3e60034e30b0ef1f698719e42aeffb337db5d915d754ce7505f3de62218d7a01", "02428e6fb1af1cb3fb5434d0584a7a4f95d1b324aa6b9a7147c90b66b4bd89c7fc"], "sequence": 4294967295, "scriptSig": {"hex": "16001473e701c8d206d583aa9feb5fc198a5ded7c1987a", "asm": "001473e701c8d206d583aa9feb5fc198a5ded7c1987a"}, "vout": 30, "txid": "fb4888b61838b90bdcf849bbaf1af8b526a1b709ec580714e1175e62cb78d1a2"}], "txid": "2e9ab556a1789d9798e0d83a6ee35e3c2e01a9c095b7cfddbcedff7677c47fae", "blocktime": 1537872475, "version": 1, "confirmations": 11487, "time": 1537872475, "locktime": 0, "vsize": 167, "size": 249}