{"hash": "f732ead8e7ae6c26b9ea57222c12ddb751c16bb9e062ff80e2abef439172c6b0", "blockhash": "0000000000000000001cda96e906b7601b7a6fb1a3b62bca570a9e5d8f4b3de1", "vout": [{"scriptPubKey": {"reqSigs": 1, "hex": "76a91451d61910d2dc47777a3fd3eac28162259726f14788ac", "addresses": ["18TiDKgN7bSpai3dvSFrcUAi6e7HoomQHD"], "asm": "OP_DUP OP_HASH160 51d61910d2dc47777a3fd3eac28162259726f147 OP_EQUALVERIFY OP_CHECKSIG", "type": "pubkeyhash"}, "value": 0.099, "n": 0}, {"scriptPubKey": {"reqSigs": 1, "hex": "a9140155874553c527f049c0ae3d5a778b0e04e347bb87", "addresses": ["31p54MS7MSBGATPf7L9k6okpqGURCLuP5X"], "asm": "OP_HASH160 0155874553c527f049c0ae3d5a778b0e04e347bb OP_EQUAL", "type": "scripthash"}, "value": 2.29941797, "n": 1}], "hex": "01000000000101d0eaaaae53c7d0791d8868771fd6861654b6cdd1b63cf2e0e5bc36be149e13800100000023220020ead9813ef71a14a1fc550cfb5c5dd853d1e6bbccfde25f8f3c1124c6b47fda22ffffffff02e00f9700000000001976a91451d61910d2dc47777a3fd3eac28162259726f14788ac25a2b40d0000000017a9140155874553c527f049c0ae3d5a778b0e04e347bb870400483045022100ae878da01e1dc63cf0feb604343fc8c03c5f2aea9942651cf3abb14e1e899afc022066a684f9f2dc3d277187967a8886596d4f46e4418a52a23c21c59c722fb7faed01483045022100f4e62c49f60a72181770d686e73ea10d196c45c2ded4fb1f22df79d2917aee4a022055182ac67234a6e6429018cf3233244466c1188054eea8d6e38780338af617440147522103baf82ab85653fe1a4c26c826d6e71ff0f794cef0ba8d4b9c350b7cd8a099295c210374d34c43195a03910cd16cba2c089b5a40de35ab5857ec656bdacade80fb67c052ae00000000", "vin": [{"txinwitness": ["", "3045022100ae878da01e1dc63cf0feb604343fc8c03c5f2aea9942651cf3abb14e1e899afc022066a684f9f2dc3d277187967a8886596d4f46e4418a52a23c21c59c722fb7faed01", "3045022100f4e62c49f60a72181770d686e73ea10d196c45c2ded4fb1f22df79d2917aee4a022055182ac67234a6e6429018cf3233244466c1188054eea8d6e38780338af6174401", "522103baf82ab85653fe1a4c26c826d6e71ff0f794cef0ba8d4b9c350b7cd8a099295c210374d34c43195a03910cd16cba2c089b5a40de35ab5857ec656bdacade80fb67c052ae"], "sequence": 4294967295, "scriptSig": {"hex": "220020ead9813ef71a14a1fc550cfb5c5dd853d1e6bbccfde25f8f3c1124c6b47fda22", "asm": "0020ead9813ef71a14a1fc550cfb5c5dd853d1e6bbccfde25f8f3c1124c6b47fda22"}, "vout": 1, "txid": "80139e14be36bce5e0f23cb6d1cdb6541686d61f7768881d79d0c753aeaaead0"}], "txid": "2ea3bcc00604b28f578ef5402c1606bb73116a3e4af82750a32d2903976f883b", "blocktime": 1537873282, "version": 1, "confirmations": 11484, "time": 1537873282, "locktime": 0, "vsize": 208, "size": 374}