{"hash": "2ea8d04c687cdfb820061cd2f192ef93c3bce54e8b5a1f715142f829093b3632", "blockhash": "0000000000000000001e0dab787dd257d1dbfcb92a98c2207d5e1078be1f4165", "vout": [{"scriptPubKey": {"reqSigs": 1, "hex": "76a914a2b791002bb0f15fdd6a54bbf5d4adac2bbe9ec088ac", "addresses": ["1FqNNVfYJaEGZrXbwBTKihJ9K842zvbgt8"], "asm": "OP_DUP OP_HASH160 a2b791002bb0f15fdd6a54bbf5d4adac2bbe9ec0 OP_EQUALVERIFY OP_CHECKSIG", "type": "pubkeyhash"}, "value": 1.011e-05, "n": 0}, {"scriptPubKey": {"reqSigs": 1, "hex": "76a91428701b37c0a8287be8aeb0e224edc9fa116be12088ac", "addresses": ["14gpKxVqeqdiSNjJVbtRM4w5FEXrCJaR5u"], "asm": "OP_DUP OP_HASH160 28701b37c0a8287be8aeb0e224edc9fa116be120 OP_EQUALVERIFY OP_CHECKSIG", "type": "pubkeyhash"}, "value": 0.00013905, "n": 1}], "hex": "0100000001bd61782b5097cdccdb57d276bbfd7abd860723371a22991c967c3c901fa48e95000000006a4730440220131df3761f139a861aa5989407a4c3530ef50c8af2eab7006e36f853a51ff1aa02200ddd33fe13bc119a165501fee14d4ef46ca009a53c16a2e1ce34a73db463ecb0012103d2dae188e8d27a6837705439c64e0dc4e5820d3368ea3dd78a008f51a346c1e9ffffffff02f3030000000000001976a914a2b791002bb0f15fdd6a54bbf5d4adac2bbe9ec088ac51360000000000001976a91428701b37c0a8287be8aeb0e224edc9fa116be12088ac00000000", "vin": [{"sequence": 4294967295, "scriptSig": {"hex": "4730440220131df3761f139a861aa5989407a4c3530ef50c8af2eab7006e36f853a51ff1aa02200ddd33fe13bc119a165501fee14d4ef46ca009a53c16a2e1ce34a73db463ecb0012103d2dae188e8d27a6837705439c64e0dc4e5820d3368ea3dd78a008f51a346c1e9", "asm": "30440220131df3761f139a861aa5989407a4c3530ef50c8af2eab7006e36f853a51ff1aa02200ddd33fe13bc119a165501fee14d4ef46ca009a53c16a2e1ce34a73db463ecb0[ALL] 03d2dae188e8d27a6837705439c64e0dc4e5820d3368ea3dd78a008f51a346c1e9"}, "vout": 0, "txid": "958ea41f903c7c961c99221a37230786bd7afdbb76d257dbcccd97502b7861bd"}], "txid": "2ea8d04c687cdfb820061cd2f192ef93c3bce54e8b5a1f715142f829093b3632", "blocktime": 1537872475, "version": 1, "confirmations": 11487, "time": 1537872475, "locktime": 0, "vsize": 225, "size": 225}