{"hash": "a3b9108867fcc8ce29db90f9014500d0f87e285e538a7d1538e27ff1c213f674", "blockhash": "0000000000000000001e0dab787dd257d1dbfcb92a98c2207d5e1078be1f4165", "vout": [{"scriptPubKey": {"reqSigs": 1, "hex": "76a914f5f6d4e2b7e84dcffac82cb8535067ea25867ca088ac", "addresses": ["1PRYFA9BBsu5hvg3uW1j3aip5zPquVbbsQ"], "asm": "OP_DUP OP_HASH160 f5f6d4e2b7e84dcffac82cb8535067ea25867ca0 OP_EQUALVERIFY OP_CHECKSIG", "type": "pubkeyhash"}, "value": 0.15206283, "n": 0}, {"scriptPubKey": {"reqSigs": 1, "hex": "a91436fc82c1b732b7bc80c8dba647d62acb27ec949d87", "addresses": ["36hkuf8z8YLjAAGok2MZ2XCVskixXAcZrs"], "asm": "OP_HASH160 36fc82c1b732b7bc80c8dba647d62acb27ec949d OP_EQUAL", "type": "scripthash"}, "value": 0.1982955, "n": 1}], "hex": "02000000000101ada2e95769d1cf6b571ddfceb66d2657e2167613a6eed474b434507e38b8ab8a0100000017160014fa47865096b7798f7d342cb4ab5e5d7ff4afdc0dffffffff028b07e800000000001976a914f5f6d4e2b7e84dcffac82cb8535067ea25867ca088ac2e932e010000000017a91436fc82c1b732b7bc80c8dba647d62acb27ec949d870247304402203c37eea6c86f69f5474ee9af453cdea650510204f6be581d9c449a669c4a7806022032cb87e28deb4d4be0aa7f309ab19558119431711f72571b4065290cb6e1d2db01210233560faf315d93a3a8c781b8f7afaecf7303aee388dba8e87e7d16001870a1d800000000", "vin": [{"txinwitness": ["304402203c37eea6c86f69f5474ee9af453cdea650510204f6be581d9c449a669c4a7806022032cb87e28deb4d4be0aa7f309ab19558119431711f72571b4065290cb6e1d2db01", "0233560faf315d93a3a8c781b8f7afaecf7303aee388dba8e87e7d16001870a1d8"], "sequence": 4294967295, "scriptSig": {"hex": "160014fa47865096b7798f7d342cb4ab5e5d7ff4afdc0d", "asm": "0014fa47865096b7798f7d342cb4ab5e5d7ff4afdc0d"}, "vout": 1, "txid": "8aabb8387e5034b474d4eea6137616e257266db6cedf1d576bcfd16957e9a2ad"}], "txid": "2ea9ce0b1f8f90eed7b6d6e42010e7fe64e8e0e5c35cd997d0d1bca5f2139736", "blocktime": 1537872475, "version": 2, "confirmations": 11486, "time": 1537872475, "locktime": 0, "vsize": 168, "size": 249}