{"hash": "2eabfb14779330550ba24a2406b095a75290eb9ac91fc87fec05398714d49947", "blockhash": "000000000000000000022b45ed06c6f4ccd3cf7fb5ba4856ebd2e58215665228", "vout": [{"scriptPubKey": {"reqSigs": 1, "hex": "76a9148254e64b521b29562c007455a8a1d572fc66a79288ac", "addresses": ["1Ct8Ys9ih4mAvA5YofhybNUhNjqdX3avbo"], "asm": "OP_DUP OP_HASH160 8254e64b521b29562c007455a8a1d572fc66a792 OP_EQUALVERIFY OP_CHECKSIG", "type": "pubkeyhash"}, "value": 0.00925184, "n": 0}, {"scriptPubKey": {"reqSigs": 1, "hex": "76a9141a1576a6f58da9ddb4c0088ab53c7306a72664de88ac", "addresses": ["13NvHJD2mu9N6jMCiydApqFwezDGJUyE5v"], "asm": "OP_DUP OP_HASH160 1a1576a6f58da9ddb4c0088ab53c7306a72664de OP_EQUALVERIFY OP_CHECKSIG", "type": "pubkeyhash"}, "value": 0.00767049, "n": 1}], "hex": "0200000002c94e8c74799a572d24733441d7acd5866318465b896cb2281c09bcbeded89f05680000006a4730440220099223556cf8f75f9fc9e7d4432da1b2d5a3b8c21d5afb846267ed7b4faae409022059e8f600d1f87c7a46926041b5f0ad1cda7d2d59e7d83c9350fb9def524346dd012103a0c1058d1533c5d7564f24e732df1a3085591e65006f5da2995c6f9c0cbb6b11feffffffdfeae1fa1c11cd454750f6b1ff8cfd06a97dfa68100c01de0ba91387d05dda8f0d0000006a473044022022ab511a3c8ad676d14ee38e49b74e548ed190251cd9826fe9a57f4d8f29ecbb022063c64a681b2f624ea91fb544535259ebd877de1163ca1561718d1d08ea562aa401210343b2e2e95eedf887e77737699a1fb19e3695758c74adb7ef8dc22db4f560453dfeffffff02001e0e00000000001976a9148254e64b521b29562c007455a8a1d572fc66a79288ac49b40b00000000001976a9141a1576a6f58da9ddb4c0088ab53c7306a72664de88acee480800", "vin": [{"sequence": 4294967294, "scriptSig": {"hex": "4730440220099223556cf8f75f9fc9e7d4432da1b2d5a3b8c21d5afb846267ed7b4faae409022059e8f600d1f87c7a46926041b5f0ad1cda7d2d59e7d83c9350fb9def524346dd012103a0c1058d1533c5d7564f24e732df1a3085591e65006f5da2995c6f9c0cbb6b11", "asm": "30440220099223556cf8f75f9fc9e7d4432da1b2d5a3b8c21d5afb846267ed7b4faae409022059e8f600d1f87c7a46926041b5f0ad1cda7d2d59e7d83c9350fb9def524346dd[ALL] 03a0c1058d1533c5d7564f24e732df1a3085591e65006f5da2995c6f9c0cbb6b11"}, "vout": 104, "txid": "059fd8debebc091c28b26c895b46186386d5acd7413473242d579a79748c4ec9"}, {"sequence": 4294967294, "scriptSig": {"hex": "473044022022ab511a3c8ad676d14ee38e49b74e548ed190251cd9826fe9a57f4d8f29ecbb022063c64a681b2f624ea91fb544535259ebd877de1163ca1561718d1d08ea562aa401210343b2e2e95eedf887e77737699a1fb19e3695758c74adb7ef8dc22db4f560453d", "asm": "3044022022ab511a3c8ad676d14ee38e49b74e548ed190251cd9826fe9a57f4d8f29ecbb022063c64a681b2f624ea91fb544535259ebd877de1163ca1561718d1d08ea562aa4[ALL] 0343b2e2e95eedf887e77737699a1fb19e3695758c74adb7ef8dc22db4f560453d"}, "vout": 13, "txid": "8fda5dd08713a90bde010c1068fa7da906fd8cffb1f6504745cd111cfae1eadf"}], "txid": "2eabfb14779330550ba24a2406b095a75290eb9ac91fc87fec05398714d49947", "blocktime": 1537869901, "version": 2, "confirmations": 11522, "time": 1537869901, "locktime": 542958, "vsize": 372, "size": 372}