{"hash": "2eb0634ddb52ef24424b89dba7f7be816c6bc8dcafc14c31dd8483573b4f3ed3", "blockhash": "0000000000000000001e0dab787dd257d1dbfcb92a98c2207d5e1078be1f4165", "vout": [{"scriptPubKey": {"reqSigs": 1, "hex": "76a914fda3ab5984917a32fc728bf419ab1e31455b7b1088ac", "addresses": ["1Q882UiS4uHcdDGz1ukTbB6kY3m5F6bkeq"], "asm": "OP_DUP OP_HASH160 fda3ab5984917a32fc728bf419ab1e31455b7b10 OP_EQUALVERIFY OP_CHECKSIG", "type": "pubkeyhash"}, "value": 0.0009268, "n": 0}, {"scriptPubKey": {"type": "nulldata", "hex": "6a4c50000077b10001805033e5bf9ae76da98a211aaf6c953dd567cf27e7e3ef3236678a6250976ee8a122ba527fc3545ce9ade5b417fb5baa118606115f253138dfcfbc9a9526289ac0f6612cd74e33776ee4", "asm": "OP_RETURN 000077b10001805033e5bf9ae76da98a211aaf6c953dd567cf27e7e3ef3236678a6250976ee8a122ba527fc3545ce9ade5b417fb5baa118606115f253138dfcfbc9a9526289ac0f6612cd74e33776ee4"}, "value": 0.0, "n": 1}], "hex": "0100000001d49c9c619c87774cb89e70d1af8e3087f1125f20c561a2c769d24c2973152e67000000006b483045022100a78e00a1c465cfbbc343840976bf67ef4f3059e954db04151f36d31e3b0952810220240500b4db434a2d71e513c4781357a277725cd33103ec655846b4c1c9ed9b4601210344ea762fb12acb6a2f9897d516bdc0deb81fca02e66253ef36483eb0bc2ac916ffffffff02086a0100000000001976a914fda3ab5984917a32fc728bf419ab1e31455b7b1088ac0000000000000000536a4c50000077b10001805033e5bf9ae76da98a211aaf6c953dd567cf27e7e3ef3236678a6250976ee8a122ba527fc3545ce9ade5b417fb5baa118606115f253138dfcfbc9a9526289ac0f6612cd74e33776ee400000000", "vin": [{"sequence": 4294967295, "scriptSig": {"hex": "483045022100a78e00a1c465cfbbc343840976bf67ef4f3059e954db04151f36d31e3b0952810220240500b4db434a2d71e513c4781357a277725cd33103ec655846b4c1c9ed9b4601210344ea762fb12acb6a2f9897d516bdc0deb81fca02e66253ef36483eb0bc2ac916", "asm": "3045022100a78e00a1c465cfbbc343840976bf67ef4f3059e954db04151f36d31e3b0952810220240500b4db434a2d71e513c4781357a277725cd33103ec655846b4c1c9ed9b46[ALL] 0344ea762fb12acb6a2f9897d516bdc0deb81fca02e66253ef36483eb0bc2ac916"}, "vout": 0, "txid": "672e1573294cd269c7a261c5205f12f187308eafd1709eb84c77879c619c9cd4"}], "txid": "2eb0634ddb52ef24424b89dba7f7be816c6bc8dcafc14c31dd8483573b4f3ed3", "blocktime": 1537872475, "version": 1, "confirmations": 11486, "time": 1537872475, "locktime": 0, "vsize": 284, "size": 284}