{"hash": "2eb0cf194d6e1762a781de2b93cbe18896cec79dbeb39d4e976e9273ee6cee60", "blockhash": "0000000000000000001e0dab787dd257d1dbfcb92a98c2207d5e1078be1f4165", "vout": [{"scriptPubKey": {"reqSigs": 1, "hex": "a914bfd749971a4c7aa3dbdb0b039e813f8f0bdbc62787", "addresses": ["3KBNtcpjiypLtWZdsz1gqVEBrKraBregQZ"], "asm": "OP_HASH160 bfd749971a4c7aa3dbdb0b039e813f8f0bdbc627 OP_EQUAL", "type": "scripthash"}, "value": 0.0124, "n": 0}], "hex": "0100000001193aaab734fab521cb4568c459811ef84d8400d7e5585169217f679aa2a052af130000006a4730440220758e9a8f37ee064524ea4deaddbb865362ba2e95bf9e238e8934570bcf64c6bb022052227dbc7122681e72fcaac5b9b9a1e4c540eba07e835e5b01f6cd42b23bd9f20121037cd8314b623b42815444a8a45c1b57706b68fba628bacbb9901316ab11dbf548ffffffff01c0eb12000000000017a914bfd749971a4c7aa3dbdb0b039e813f8f0bdbc6278700000000", "vin": [{"sequence": 4294967295, "scriptSig": {"hex": "4730440220758e9a8f37ee064524ea4deaddbb865362ba2e95bf9e238e8934570bcf64c6bb022052227dbc7122681e72fcaac5b9b9a1e4c540eba07e835e5b01f6cd42b23bd9f20121037cd8314b623b42815444a8a45c1b57706b68fba628bacbb9901316ab11dbf548", "asm": "30440220758e9a8f37ee064524ea4deaddbb865362ba2e95bf9e238e8934570bcf64c6bb022052227dbc7122681e72fcaac5b9b9a1e4c540eba07e835e5b01f6cd42b23bd9f2[ALL] 037cd8314b623b42815444a8a45c1b57706b68fba628bacbb9901316ab11dbf548"}, "vout": 19, "txid": "af52a0a29a677f21695158e5d700844df81e8159c46845cb21b5fa34b7aa3a19"}], "txid": "2eb0cf194d6e1762a781de2b93cbe18896cec79dbeb39d4e976e9273ee6cee60", "blocktime": 1537872475, "version": 1, "confirmations": 11486, "time": 1537872475, "locktime": 0, "vsize": 189, "size": 189}