{"hash": "05758348069a5f40374dfeed87ca1c4fd0c721efec9f53bbec32b3c8527268c6", "blockhash": "00000000000000000017f5eb5941039fbcee6240d03bc1f2f8e35350df66a1d8", "vout": [{"scriptPubKey": {"reqSigs": 1, "hex": "76a914f45ed3e71de0f6baff86be2c2000b8f4341d4e9e88ac", "addresses": ["1PH7UZ8EgUdkzybZYmSCtHjdG3veZV2sGu"], "asm": "OP_DUP OP_HASH160 f45ed3e71de0f6baff86be2c2000b8f4341d4e9e OP_EQUALVERIFY OP_CHECKSIG", "type": "pubkeyhash"}, "value": 0.0002034, "n": 0}, {"scriptPubKey": {"reqSigs": 1, "hex": "00144eec940ec32cf68a17aaf82e3ba03f1520e69593", "addresses": ["bc1qfmkfgrkr9nmg59a2lqhrhgplz5swd9vnwrgh5p"], "asm": "0 4eec940ec32cf68a17aaf82e3ba03f1520e69593", "type": "witness_v0_keyhash"}, "value": 9.56e-06, "n": 1}], "hex": "01000000000101f3aba00c9f10f1fa15004977e746ba0ce6f124ab6e0e8428768b89c44fb61d140100000000ffffffff02744f0000000000001976a914f45ed3e71de0f6baff86be2c2000b8f4341d4e9e88acbc030000000000001600144eec940ec32cf68a17aaf82e3ba03f1520e695930247304402202dcc97d9960027cd97645cdb440f0dc2bcbd89a9f9776878f0e349b218f72157022077489862fcefde42b3d99d769954ba587b94b1306832926b5cad88342f77de54012102d97ad428c84a682e22944ad6d9e8a7cb6ddae7ebe2fb95243bd6d9cf2e4b827600000000", "vin": [{"txinwitness": ["304402202dcc97d9960027cd97645cdb440f0dc2bcbd89a9f9776878f0e349b218f72157022077489862fcefde42b3d99d769954ba587b94b1306832926b5cad88342f77de5401", "02d97ad428c84a682e22944ad6d9e8a7cb6ddae7ebe2fb95243bd6d9cf2e4b8276"], "sequence": 4294967295, "scriptSig": {"hex": "", "asm": ""}, "vout": 1, "txid": "141db64fc4898b7628840e6eab24f1e60cba46e777490015faf1109f0ca0abf3"}], "txid": "2eb1bfb97e51b5c9548c350f46938e79ebbf473f044f3e7b72f9a5ebc97fdc2f", "blocktime": 1537874412, "version": 1, "confirmations": 11467, "time": 1537874412, "locktime": 0, "vsize": 144, "size": 225}