{"hash": "a2d063415b42c39d0d5973cf9625122ac5d44e1874edf825d9894bbaa694294a", "blockhash": "000000000000000000022b45ed06c6f4ccd3cf7fb5ba4856ebd2e58215665228", "vout": [{"scriptPubKey": {"reqSigs": 1, "hex": "a9142a1b7c6d222ce3377f877b218192a198e3a3b78887", "addresses": ["35XfEN5P7qjQBeKwu7mHSgaiY5tBPWndN5"], "asm": "OP_HASH160 2a1b7c6d222ce3377f877b218192a198e3a3b788 OP_EQUAL", "type": "scripthash"}, "value": 0.01000093, "n": 0}, {"scriptPubKey": {"reqSigs": 1, "hex": "76a914fab9a6eeb3ea53ea6cedb73a4247181dd6d4509e88ac", "addresses": ["1PriLHqQT9LwTz5QNggTY8iw1L2BCH1Aqe"], "asm": "OP_DUP OP_HASH160 fab9a6eeb3ea53ea6cedb73a4247181dd6d4509e OP_EQUALVERIFY OP_CHECKSIG", "type": "pubkeyhash"}, "value": 0.0041646, "n": 1}], "hex": "0200000000010258535fc7e487b408b19cf4228fb66dda23210995e373f055ae70bd9962b9f9f60400000017160014a2a9755071db26c9bced9e235cab4f6e80ee3bd6feffffffb1bd332bb29ab0fe342dfa62a72bceb62a5b6ac613838bf6849d3c9bed3abe9800000000171600148e3b256b0ec300072b6c6c6e08be5fd96f6c76e9feffffff029d420f000000000017a9142a1b7c6d222ce3377f877b218192a198e3a3b78887cc5a0600000000001976a914fab9a6eeb3ea53ea6cedb73a4247181dd6d4509e88ac0247304402207a731e5179219c87a106ccef0a9275848a108d333870be92e2e90767eb444cd8022034e0e30e51c7e003a66b616d75155a8c7edeac4072eb901762fe134d910f7da3012103e167aa42f0c00b6463327dabbf2c55831f471aec0e95fbc53ccba27a0d3645c30247304402206758b92c08525756e228df51120b28b1123cc8f6bc6305d7cb2b5611abfee3e60220271f09ffbad4fb00a9411f2b0944193557293bafc3805044e692e9fb6b7d2aab01210203b16bf33933d2faca93e5e0e2717ae30f961eaee4c5c7c8ef9dc190146464bb0b490800", "vin": [{"txinwitness": ["304402207a731e5179219c87a106ccef0a9275848a108d333870be92e2e90767eb444cd8022034e0e30e51c7e003a66b616d75155a8c7edeac4072eb901762fe134d910f7da301", "03e167aa42f0c00b6463327dabbf2c55831f471aec0e95fbc53ccba27a0d3645c3"], "sequence": 4294967294, "scriptSig": {"hex": "160014a2a9755071db26c9bced9e235cab4f6e80ee3bd6", "asm": "0014a2a9755071db26c9bced9e235cab4f6e80ee3bd6"}, "vout": 4, "txid": "f6f9b96299bd70ae55f073e395092123da6db68f22f49cb108b487e4c75f5358"}, {"txinwitness": ["304402206758b92c08525756e228df51120b28b1123cc8f6bc6305d7cb2b5611abfee3e60220271f09ffbad4fb00a9411f2b0944193557293bafc3805044e692e9fb6b7d2aab01", "0203b16bf33933d2faca93e5e0e2717ae30f961eaee4c5c7c8ef9dc190146464bb"], "sequence": 4294967294, "scriptSig": {"hex": "1600148e3b256b0ec300072b6c6c6e08be5fd96f6c76e9", "asm": "00148e3b256b0ec300072b6c6c6e08be5fd96f6c76e9"}, "vout": 0, "txid": "98be3aed9b3c9d84f68b8313c66a5b2ab6ce2ba762fa2d34feb09ab22b33bdb1"}], "txid": "2eb63663296954a8edb241bbc35e755d2a024d9dd0418ca2fa1e97a8eca59223", "blocktime": 1537869901, "version": 2, "confirmations": 11524, "time": 1537869901, "locktime": 542987, "vsize": 258, "size": 420}