{"hash": "2eb86b4fe7a0e1d8ce59e06c93c4538a7ce9a7d117c82b15f9edc373dfdf19e6", "blockhash": "00000000000000000018f53835495a110e01622372bf6ae95dc86f2b0ab887b0", "vout": [{"scriptPubKey": {"type": "nulldata", "hex": "6a146f6d6e69000000000000001f0000006fc23ac000", "asm": "OP_RETURN 6f6d6e69000000000000001f0000006fc23ac000"}, "value": 0.0, "n": 0}, {"scriptPubKey": {"reqSigs": 1, "hex": "76a914a25dec4d0011064ef106a983c39c7a540699f22088ac", "addresses": ["1FoWyxwPXuj4C6abqwhjDWdz6D4PZgYRjA"], "asm": "OP_DUP OP_HASH160 a25dec4d0011064ef106a983c39c7a540699f220 OP_EQUALVERIFY OP_CHECKSIG", "type": "pubkeyhash"}, "value": 5.46e-06, "n": 1}, {"scriptPubKey": {"reqSigs": 1, "hex": "76a914ae667d6f3933d1d3fad28273415c3fde03f3934b88ac", "addresses": ["1Gu9MWQfDjZo4Sqtg3MwqqLb33d3zZ4uPT"], "asm": "OP_DUP OP_HASH160 ae667d6f3933d1d3fad28273415c3fde03f3934b OP_EQUALVERIFY OP_CHECKSIG", "type": "pubkeyhash"}, "value": 0.00321786, "n": 2}], "hex": "0100000003113573319fb93ea0d980eda62b6b45be5be4c4dbe832ae29ebd98aa625c9a921020000006a473044022076663393db95304a0b54c99324458717cb0eaefbd4a801b2413229b8b9676d990220070174c4175234731fefd90dfc45ffb9dc6ba4a9faa623aa6e27f64e6b8e1ace012102dee0cfa2b988513008977e31999d675a26c81468ad421e6a4716373430595773feffffff2aeaf60cfa3670c2e239dfe8b01db7367c91301aeb4732c8591270b0cd338d05010000006a473044022009db48476a1235976eb3f1009436a14bd4d44c070641831162bfaf9e0e6a81180220364e6f7f29f6505e0f4291f724724710fadf96b473bec2eb6b81dc053eb5889b012102dee0cfa2b988513008977e31999d675a26c81468ad421e6a4716373430595773feffffff5b44d1e3533f6072ced8b90d17c38b6dd169aba8ee12a9d4f9ce01763a9ebb9f020000006b483045022100bdb94a772ce167c21def6e9a69a37c4be4824504a6160cba1901560a2042738c02204684c2c982131162df7ac68ba0c9413325d382286ce1e80183089de131a8410d012102dee0cfa2b988513008977e31999d675a26c81468ad421e6a4716373430595773feffffff030000000000000000166a146f6d6e69000000000000001f0000006fc23ac00022020000000000001976a914a25dec4d0011064ef106a983c39c7a540699f22088acfae80400000000001976a914ae667d6f3933d1d3fad28273415c3fde03f3934b88ac0d490800", "vin": [{"sequence": 4294967294, "scriptSig": {"hex": "473044022076663393db95304a0b54c99324458717cb0eaefbd4a801b2413229b8b9676d990220070174c4175234731fefd90dfc45ffb9dc6ba4a9faa623aa6e27f64e6b8e1ace012102dee0cfa2b988513008977e31999d675a26c81468ad421e6a4716373430595773", "asm": "3044022076663393db95304a0b54c99324458717cb0eaefbd4a801b2413229b8b9676d990220070174c4175234731fefd90dfc45ffb9dc6ba4a9faa623aa6e27f64e6b8e1ace[ALL] 02dee0cfa2b988513008977e31999d675a26c81468ad421e6a4716373430595773"}, "vout": 2, "txid": "21a9c925a68ad9eb29ae32e8dbc4e45bbe456b2ba6ed80d9a03eb99f31733511"}, {"sequence": 4294967294, "scriptSig": {"hex": "473044022009db48476a1235976eb3f1009436a14bd4d44c070641831162bfaf9e0e6a81180220364e6f7f29f6505e0f4291f724724710fadf96b473bec2eb6b81dc053eb5889b012102dee0cfa2b988513008977e31999d675a26c81468ad421e6a4716373430595773", "asm": "3044022009db48476a1235976eb3f1009436a14bd4d44c070641831162bfaf9e0e6a81180220364e6f7f29f6505e0f4291f724724710fadf96b473bec2eb6b81dc053eb5889b[ALL] 02dee0cfa2b988513008977e31999d675a26c81468ad421e6a4716373430595773"}, "vout": 1, "txid": "058d33cdb0701259c83247eb1a30917c36b71db0e8df39e2c27036fa0cf6ea2a"}, {"sequence": 4294967294, "scriptSig": {"hex": "483045022100bdb94a772ce167c21def6e9a69a37c4be4824504a6160cba1901560a2042738c02204684c2c982131162df7ac68ba0c9413325d382286ce1e80183089de131a8410d012102dee0cfa2b988513008977e31999d675a26c81468ad421e6a4716373430595773", "asm": "3045022100bdb94a772ce167c21def6e9a69a37c4be4824504a6160cba1901560a2042738c02204684c2c982131162df7ac68ba0c9413325d382286ce1e80183089de131a8410d[ALL] 02dee0cfa2b988513008977e31999d675a26c81468ad421e6a4716373430595773"}, "vout": 2, "txid": "9fbb9e3a7601cef9d4a912eea8ab69d16d8bc3170db9d8ce72603f53e3d1445b"}], "txid": "2eb86b4fe7a0e1d8ce59e06c93c4538a7ce9a7d117c82b15f9edc373dfdf19e6", "blocktime": 1537870928, "version": 1, "confirmations": 11514, "time": 1537870928, "locktime": 542989, "vsize": 551, "size": 551}