{"hash": "e82b50562b5572156ec5569635bdb341547fca8549f19486380b0762c42343e2", "blockhash": "0000000000000000001f76057863aec43deb6fa401d9628bb513d65a8098bfab", "vout": [{"scriptPubKey": {"reqSigs": 1, "hex": "0014916bbaa27455449afd3798159cfb4d56802d4caf", "addresses": ["bc1qj94m4gn524zf4lfhnq2ee76d26qz6n90e7uwq4"], "asm": "0 916bbaa27455449afd3798159cfb4d56802d4caf", "type": "witness_v0_keyhash"}, "value": 0.00888786, "n": 0}, {"scriptPubKey": {"reqSigs": 1, "hex": "a914e82b0ea49d6c4e50e77d358b2bccdfbd29da49e487", "addresses": ["3NrcGiRjwa3bYLpcdwmzunwkgCYR7cszB7"], "asm": "OP_HASH160 e82b0ea49d6c4e50e77d358b2bccdfbd29da49e4 OP_EQUAL", "type": "scripthash"}, "value": 0.00288, "n": 1}], "hex": "0100000000010181764d5ccfcfaeb0bda3453819ee0ebf1a46458914447bb63422bf9870fc9e0c0000000000ffffffff02d28f0d0000000000160014916bbaa27455449afd3798159cfb4d56802d4caf006504000000000017a914e82b0ea49d6c4e50e77d358b2bccdfbd29da49e48702483045022100bb469db43e766eb7b3570d3c8a010f989880888188d4a9fc0f06751e4d43ba1202203b3d86cd2649b70171602516879e3d7c59b6e0be586706d71c91121e74c5f5ea012102db18d36b11de65834959e25f0c66aa853a0328226100b94e15b2163cc3f0eb8500000000", "vin": [{"txinwitness": ["3045022100bb469db43e766eb7b3570d3c8a010f989880888188d4a9fc0f06751e4d43ba1202203b3d86cd2649b70171602516879e3d7c59b6e0be586706d71c91121e74c5f5ea01", "02db18d36b11de65834959e25f0c66aa853a0328226100b94e15b2163cc3f0eb85"], "sequence": 4294967295, "scriptSig": {"hex": "", "asm": ""}, "vout": 0, "txid": "0c9efc7098bf2234b67b44148945461abf0eee193845a3bdb0aecfcf5c4d7681"}], "txid": "2ec00b875d40796b98c8d4f015c895fc40b97254f97c8f5847d076e192d384ae", "blocktime": 1537873891, "version": 1, "confirmations": 11478, "time": 1537873891, "locktime": 0, "vsize": 142, "size": 224}