{"hash": "d22dc7947e1fe6290a145227cf8c9f434a686d9079b0c197bd6a6bac196e4882", "blockhash": "0000000000000000000e13cef7c366c0283d82e591d1acd082e914b08063cdf1", "vout": [{"scriptPubKey": {"reqSigs": 1, "hex": "76a914ba507bae8f1643d2556000ca26b9301b9069dc6b88ac", "addresses": ["1Hz96kJKF2HLPGY15JWLB5m9qGNxvt8tHJ"], "asm": "OP_DUP OP_HASH160 ba507bae8f1643d2556000ca26b9301b9069dc6b OP_EQUALVERIFY OP_CHECKSIG", "type": "pubkeyhash"}, "value": 12.61634719, "n": 0}, {"scriptPubKey": {"type": "nulldata", "hex": "6a24aa21a9ed09593db50404dea941352e8de1e7bd01be0823c05e1a8704f68deb7cb573ab2a", "asm": "OP_RETURN aa21a9ed09593db50404dea941352e8de1e7bd01be0823c05e1a8704f68deb7cb573ab2a"}, "value": 0.0, "n": 1}], "hex": "010000000001010000000000000000000000000000000000000000000000000000000000000000ffffffff550311490841d6ea83e65007bd41d6ea83e5cf6d0a2f4254432e544f502ffabe6d6d2a2cff9589cf6f5f73e76d460d56e6b63c3eeccb6add1e6807f035752f7f47ee8000000000000000e300377d2576000000000000ffffffff029f04334b000000001976a914ba507bae8f1643d2556000ca26b9301b9069dc6b88ac0000000000000000266a24aa21a9ed09593db50404dea941352e8de1e7bd01be0823c05e1a8704f68deb7cb573ab2a0120000000000000000000000000000000000000000000000000000000000000000000000000", "vin": [{"coinbase": "0311490841d6ea83e65007bd41d6ea83e5cf6d0a2f4254432e544f502ffabe6d6d2a2cff9589cf6f5f73e76d460d56e6b63c3eeccb6add1e6807f035752f7f47ee8000000000000000e300377d2576000000000000", "sequence": 4294967295}], "txid": "2ec7df75176528a86aacefacae76f7d8bc7b4e8843904631b4680fe7dd57c73a", "blocktime": 1537871767, "version": 1, "confirmations": 11490, "time": 1537871767, "locktime": 0, "vsize": 226, "size": 253}