{"hash": "01a8f343de63e51419eb840dee61370212ab2e441b93befb6a17578c4ad3041f", "blockhash": "00000000000000000024a2167bbff67b0be802c0b01cdd79e6331c2be6459f87", "vout": [{"scriptPubKey": {"reqSigs": 1, "hex": "76a9145eb2547e18273b0c39a7579240c3dcd9f6af658188ac", "addresses": ["19di9d2LtXPpSURHEE61srqPy3jbLpaYdo"], "asm": "OP_DUP OP_HASH160 5eb2547e18273b0c39a7579240c3dcd9f6af6581 OP_EQUALVERIFY OP_CHECKSIG", "type": "pubkeyhash"}, "value": 0.00055, "n": 0}, {"scriptPubKey": {"reqSigs": 1, "hex": "a914623bc71aae031839add7304b814c43bfc2e9051487", "addresses": ["3AeRkmrFg14XjcZxLiKsxWCsmmwrcjXezc"], "asm": "OP_HASH160 623bc71aae031839add7304b814c43bfc2e90514 OP_EQUAL", "type": "scripthash"}, "value": 0.07181098, "n": 1}], "hex": "01000000000101fd515f967595170661149cee3957eb5334542e758e40939c45427bc6598004c501000000232200208b29cdff4436c9fd09e2bb3722ba65a440fbfc66964301c4902832d27a4f2b12ffffffff02d8d60000000000001976a9145eb2547e18273b0c39a7579240c3dcd9f6af658188ac2a936d000000000017a914623bc71aae031839add7304b814c43bfc2e9051487040048304502210087487e9c358b946289de3995f3d1006083bf58479faf536187fead6dea351dc802203cefffaa3b02d6672d653dfeb1fb1931bb3eec0a49fca3a369207a77d119d8d3014830450221009169644aa14178cf8932e498424fda062812ce97c5610bbe8bc376535479f0cb022030a251e814ba9c07eae70f784014ec6c6a9f56beb49dbe6c1fd7e502c05896b301475221036b4dd4bc8657eba03286a3a3f74fb599cc514153059dbb023dfb32b0268d8daf21032f41ceae151fd1826ff863e0017da5158aa4c8f6dc701d11b13794695089210b52ae00000000", "vin": [{"txinwitness": ["", "304502210087487e9c358b946289de3995f3d1006083bf58479faf536187fead6dea351dc802203cefffaa3b02d6672d653dfeb1fb1931bb3eec0a49fca3a369207a77d119d8d301", "30450221009169644aa14178cf8932e498424fda062812ce97c5610bbe8bc376535479f0cb022030a251e814ba9c07eae70f784014ec6c6a9f56beb49dbe6c1fd7e502c05896b301", "5221036b4dd4bc8657eba03286a3a3f74fb599cc514153059dbb023dfb32b0268d8daf21032f41ceae151fd1826ff863e0017da5158aa4c8f6dc701d11b13794695089210b52ae"], "sequence": 4294967295, "scriptSig": {"hex": "2200208b29cdff4436c9fd09e2bb3722ba65a440fbfc66964301c4902832d27a4f2b12", "asm": "00208b29cdff4436c9fd09e2bb3722ba65a440fbfc66964301c4902832d27a4f2b12"}, "vout": 1, "txid": "c5048059c67b42459c93408e752e543453eb5739ee9c146106179575965f51fd"}], "txid": "2ecb38ebb1de4a055d988a9728a033c2b0ca40f488498313e12f67e6c5f86d30", "blocktime": 1537870564, "version": 1, "confirmations": 11515, "time": 1537870564, "locktime": 0, "vsize": 208, "size": 374}