{"hash": "2ed79eeea0e1500aa5f262fd2dc852f4b6cb985209cf095877cc8be266774895", "blockhash": "0000000000000000000baef3f32e3676a92c3b2e5da21b426e4f302fc371ce76", "vout": [{"scriptPubKey": {"reqSigs": 1, "hex": "76a9145a215f30b9dcd7e1f9ecdbe2d819986b71c1086088ac", "addresses": ["19DZnyssaZbgucRcWS4bqu5USohuHtHYDt"], "asm": "OP_DUP OP_HASH160 5a215f30b9dcd7e1f9ecdbe2d819986b71c10860 OP_EQUALVERIFY OP_CHECKSIG", "type": "pubkeyhash"}, "value": 0.00631169, "n": 0}, {"scriptPubKey": {"type": "nulldata", "hex": "6a4c50000078000001f88600651fb77b8e6189ffbad19ed074892d00f8e87af8e8e963c7cfd5b9f991beae7f275407d7b31575f78965d75baa19f9061349277ae2cc7b1d100759d4ba30d2c37bb011d97e02cf", "asm": "OP_RETURN 000078000001f88600651fb77b8e6189ffbad19ed074892d00f8e87af8e8e963c7cfd5b9f991beae7f275407d7b31575f78965d75baa19f9061349277ae2cc7b1d100759d4ba30d2c37bb011d97e02cf"}, "value": 0.0, "n": 1}], "hex": "0100000001fd77b326299d7f14a10373d1c6d2b88acccbed3983d47e72964b9e27078ad7dd010000006a4730440220606ec10e04a137952c3f5bd6d7b2d915a7b092c616829d36d8ebe02be32e17da022046a8f829b038414d8b8653604619d9ac2e45308cea147ed0ea899896e834c39501210396eaa16ae5c9147cdfde26dfad3065824efaf02e07e60bec723c551d7bd9c6d4ffffffff0281a10900000000001976a9145a215f30b9dcd7e1f9ecdbe2d819986b71c1086088ac0000000000000000536a4c50000078000001f88600651fb77b8e6189ffbad19ed074892d00f8e87af8e8e963c7cfd5b9f991beae7f275407d7b31575f78965d75baa19f9061349277ae2cc7b1d100759d4ba30d2c37bb011d97e02cf00000000", "vin": [{"sequence": 4294967295, "scriptSig": {"hex": "4730440220606ec10e04a137952c3f5bd6d7b2d915a7b092c616829d36d8ebe02be32e17da022046a8f829b038414d8b8653604619d9ac2e45308cea147ed0ea899896e834c39501210396eaa16ae5c9147cdfde26dfad3065824efaf02e07e60bec723c551d7bd9c6d4", "asm": "30440220606ec10e04a137952c3f5bd6d7b2d915a7b092c616829d36d8ebe02be32e17da022046a8f829b038414d8b8653604619d9ac2e45308cea147ed0ea899896e834c395[ALL] 0396eaa16ae5c9147cdfde26dfad3065824efaf02e07e60bec723c551d7bd9c6d4"}, "vout": 1, "txid": "ddd78a07279e4b96727ed48339edcbcc8ab8d2c6d17303a1147f9d2926b377fd"}], "txid": "2ed79eeea0e1500aa5f262fd2dc852f4b6cb985209cf095877cc8be266774895", "blocktime": 1537876114, "version": 1, "confirmations": 11460, "time": 1537876114, "locktime": 0, "vsize": 283, "size": 283}