{"hash": "5559bce0ae721e7d5ab820a629377df02b9e77182502a41f8601657eb6c97943", "blockhash": "0000000000000000000e13cef7c366c0283d82e591d1acd082e914b08063cdf1", "vout": [{"scriptPubKey": {"reqSigs": 1, "hex": "a91476cc8486a885b429c96da6b463e8d39b0087180587", "addresses": ["3CXAfKMV7V5uGRBuTVnZWpLVtE3dayJ4xY"], "asm": "OP_HASH160 76cc8486a885b429c96da6b463e8d39b00871805 OP_EQUAL", "type": "scripthash"}, "value": 0.00176191, "n": 0}, {"scriptPubKey": {"reqSigs": 1, "hex": "a914aeab08029d2ee41d424057ae0758da522d69f8a087", "addresses": ["3HcaPPG3agCtpmu1basrAxFTWKs4o9S5xw"], "asm": "OP_HASH160 aeab08029d2ee41d424057ae0758da522d69f8a0 OP_EQUAL", "type": "scripthash"}, "value": 1.82179846, "n": 1}], "hex": "02000000000101d434af627fbceb3d592f4c24efe90860c1b32d2f0b6e9a1683b145a7663fc3030100000017160014afdc81b6b41b306c83885030228d6b157c62567cfeffffff023fb002000000000017a91476cc8486a885b429c96da6b463e8d39b008718058706d8db0a0000000017a914aeab08029d2ee41d424057ae0758da522d69f8a08702483045022100d5b464473e6558915fd80dbc7c51a8761e2fb2452281f9d95193c39bf29d238502206a968f55c6b694957c46f09ed233e5c8f276109ab40f4889d75166e630b24062012102733e9a412428bebb3d7ebd795c743b5a0f812795e9d9e007bd9479f299246be110490800", "vin": [{"txinwitness": ["3045022100d5b464473e6558915fd80dbc7c51a8761e2fb2452281f9d95193c39bf29d238502206a968f55c6b694957c46f09ed233e5c8f276109ab40f4889d75166e630b2406201", "02733e9a412428bebb3d7ebd795c743b5a0f812795e9d9e007bd9479f299246be1"], "sequence": 4294967294, "scriptSig": {"hex": "160014afdc81b6b41b306c83885030228d6b157c62567c", "asm": "0014afdc81b6b41b306c83885030228d6b157c62567c"}, "vout": 1, "txid": "03c33f66a745b183169a6e0b2f2db3c16008e9ef244c2f593debbc7f62af34d4"}], "txid": "2ee07ab1eba19f760f8935e8d658ccaca69af4876ff5b029164a35274c3ce403", "blocktime": 1537871767, "version": 2, "confirmations": 11495, "time": 1537871767, "locktime": 542992, "vsize": 166, "size": 248}