{"hash": "12e9f8fe228d517d5228c3e472a756ea7eceab4f035f22970b85430b19884ca7", "blockhash": "0000000000000000001f0ddff1eddb255c1121bcd4da4f1bc9a0da00cae72433", "vout": [{"scriptPubKey": {"reqSigs": 1, "hex": "a91491801c6b52665bf7898701de35e2155359976a8487", "addresses": ["3ExMNfieo4EdMkECi2saGvtycYTn5GFGzK"], "asm": "OP_HASH160 91801c6b52665bf7898701de35e2155359976a84 OP_EQUAL", "type": "scripthash"}, "value": 0.00801966, "n": 0}, {"scriptPubKey": {"reqSigs": 1, "hex": "a9148d9cb79a83c32907244533bc6fc64fcbe598958c87", "addresses": ["3EbnwVbibX85QrnPgjK9hbr7G3dw4vdhMC"], "asm": "OP_HASH160 8d9cb79a83c32907244533bc6fc64fcbe598958c OP_EQUAL", "type": "scripthash"}, "value": 0.00638738, "n": 1}, {"scriptPubKey": {"reqSigs": 1, "hex": "a914afd7758b891bf6915a2c7e344ca6c7b315c04fa387", "addresses": ["3HinHUjaGQoZfz9b8UzbXPiDMV2LXS81Bi"], "asm": "OP_HASH160 afd7758b891bf6915a2c7e344ca6c7b315c04fa3 OP_EQUAL", "type": "scripthash"}, "value": 0.00016985, "n": 2}, {"scriptPubKey": {"reqSigs": 1, "hex": "a91481a5b46ca272c857317ac0c980dd096300d7753987", "addresses": ["3DWXbfEZ7mzfeL9XXYxwoFwUn5C9FyUShQ"], "asm": "OP_HASH160 81a5b46ca272c857317ac0c980dd096300d77539 OP_EQUAL", "type": "scripthash"}, "value": 0.002842, "n": 3}, {"scriptPubKey": {"reqSigs": 1, "hex": "a91432ecf3b6d4043857d29ab7bdce6ba42912b0466287", "addresses": ["36LHZrDp5k7Chi8pjSYX5cPTTbaHJhHY8t"], "asm": "OP_HASH160 32ecf3b6d4043857d29ab7bdce6ba42912b04662 OP_EQUAL", "type": "scripthash"}, "value": 47.09187526, "n": 4}, {"scriptPubKey": {"reqSigs": 1, "hex": "a9141efb1de34c1389297e6c06ec05e4a3e1a489338c87", "addresses": ["34Wq2CLdJ8Yp7tErYXSpfMfBeJSMBzH22A"], "asm": "OP_HASH160 1efb1de34c1389297e6c06ec05e4a3e1a489338c OP_EQUAL", "type": "scripthash"}, "value": 0.001, "n": 5}, {"scriptPubKey": {"reqSigs": 1, "hex": "a914a3d0283a0af6daf7e1005f082d4df9265bda407b87", "addresses": ["3GdBRpiLy9SP1ifvb6Lxy1Wer3xH89DTkT"], "asm": "OP_HASH160 a3d0283a0af6daf7e1005f082d4df9265bda407b OP_EQUAL", "type": "scripthash"}, "value": 0.0197, "n": 6}, {"scriptPubKey": {"reqSigs": 1, "hex": "a9144ef98441a203fd2256384bc8eed1a50de32eb0b987", "addresses": ["38tbYE3Q4j1V74UQB216KwkLZmMXPwTb4s"], "asm": "OP_HASH160 4ef98441a203fd2256384bc8eed1a50de32eb0b9 OP_EQUAL", "type": "scripthash"}, "value": 0.0112946, "n": 7}, {"scriptPubKey": {"reqSigs": 1, "hex": "a914a10ea0035f0db2f6d6e16163af4c6fb93ac918a687", "addresses": ["3GNcEbTJ7KWPcU78iGMVRCNQiGuvKMVf9r"], "asm": "OP_HASH160 a10ea0035f0db2f6d6e16163af4c6fb93ac918a6 OP_EQUAL", "type": "scripthash"}, "value": 0.00328425, "n": 8}, {"scriptPubKey": {"reqSigs": 1, "hex": "76a914b02a84af1ede98bd4fe89a29c714ed917bb6460088ac", "addresses": ["1H4Urz9K4grRDzDZZGAFwxBc2AwkgHXosx"], "asm": "OP_DUP OP_HASH160 b02a84af1ede98bd4fe89a29c714ed917bb64600 OP_EQUALVERIFY OP_CHECKSIG", "type": "pubkeyhash"}, "value": 0.00505544, "n": 9}, {"scriptPubKey": {"reqSigs": 1, "hex": "76a9145112893757a469f1c9f2b6acd0fbba9557ae794488ac", "addresses": ["18PfwSeTzCNJ35KS5pWpNhEZmgt9BACN61"], "asm": "OP_DUP OP_HASH160 5112893757a469f1c9f2b6acd0fbba9557ae7944 OP_EQUALVERIFY OP_CHECKSIG", "type": "pubkeyhash"}, "value": 0.0004546, "n": 10}, {"scriptPubKey": {"reqSigs": 1, "hex": "a9147628e05e72acab1e620cd8832b7e53ffaff9d2bc87", "addresses": ["3CTndKnRwy4UnEzRRLFbUnT5Zsr7ScjN6H"], "asm": "OP_HASH160 7628e05e72acab1e620cd8832b7e53ffaff9d2bc OP_EQUAL", "type": "scripthash"}, "value": 0.47043041, "n": 11}, {"scriptPubKey": {"reqSigs": 1, "hex": "a9147dc41ebb648bdf1e3a23cddbae1e196605b2dd1487", "addresses": ["3DA1LBXXchqSBrW4wot9ppnzyuAvjX6En9"], "asm": "OP_HASH160 7dc41ebb648bdf1e3a23cddbae1e196605b2dd14 OP_EQUAL", "type": "scripthash"}, "value": 0.00452676, "n": 12}, {"scriptPubKey": {"reqSigs": 1, "hex": "a9147844edcbbc57fc2522f4d5ff428d9ffc874562b387", "addresses": ["3Cewapu5j3zBvwEGbqrPkoB1DQgfsuCKEW"], "asm": "OP_HASH160 7844edcbbc57fc2522f4d5ff428d9ffc874562b3 OP_EQUAL", "type": "scripthash"}, "value": 0.00461795, "n": 13}, {"scriptPubKey": {"reqSigs": 1, "hex": "a9145f3b0329a4a7fc8b9ce9aa0e8c28584980c20cbf87", "addresses": ["3ANYp1zSyqApyD9yqnVns6BjtJ8Ce51vEM"], "asm": "OP_HASH160 5f3b0329a4a7fc8b9ce9aa0e8c28584980c20cbf OP_EQUAL", "type": "scripthash"}, "value": 0.00438957, "n": 14}, {"scriptPubKey": {"reqSigs": 1, "hex": "a914f869a51ba1ce3bdeb2c266697d8029ce54d6979987", "addresses": ["3QLW4TVzA45xQGXMudo5zrhbhgvxbkqjkM"], "asm": "OP_HASH160 f869a51ba1ce3bdeb2c266697d8029ce54d69799 OP_EQUAL", "type": "scripthash"}, "value": 0.00672035, "n": 15}, {"scriptPubKey": {"reqSigs": 1, "hex": "a91447c4661bf4090ccdc7d3edce18d3e2fe76874c2187", "addresses": ["38EVBCKf3onJK5XpfJ8SWPibU2tu3yJvoK"], "asm": "OP_HASH160 47c4661bf4090ccdc7d3edce18d3e2fe76874c21 OP_EQUAL", "type": "scripthash"}, "value": 0.0023493, "n": 16}, {"scriptPubKey": {"reqSigs": 1, "hex": "a914aa47cadd40080ed15fcf1ef220c689760d9c12fd87", "addresses": ["3HDNoP3wmGqVKNLbfEQj6KhDDzzGnNAdVe"], "asm": "OP_HASH160 aa47cadd40080ed15fcf1ef220c689760d9c12fd OP_EQUAL", "type": "scripthash"}, "value": 0.00349775, "n": 17}, {"scriptPubKey": {"reqSigs": 1, "hex": "a91421bf9e4aea225fe43cba3265b6fed8456d0241a287", "addresses": ["34mTmkQUu16454rbB6hTMG3FMSjJhHeSYU"], "asm": "OP_HASH160 21bf9e4aea225fe43cba3265b6fed8456d0241a2 OP_EQUAL", "type": "scripthash"}, "value": 0.00181873, "n": 18}, {"scriptPubKey": {"reqSigs": 1, "hex": "a914801377b5cc3a1c59fbb1efe35147a225977f870c87", "addresses": ["3DNDjjQB1ZhiT4KX5VNLH1PpBLzb83Cht3"], "asm": "OP_HASH160 801377b5cc3a1c59fbb1efe35147a225977f870c OP_EQUAL", "type": "scripthash"}, "value": 0.05128778, "n": 19}, {"scriptPubKey": {"reqSigs": 1, "hex": "76a914d25f6f058d1087bd5d198df6e63e8dc3b6351d2d88ac", "addresses": ["1LBME8h7Vi4Z5x4T8Jv6xr8WiSS5LfFVYs"], "asm": "OP_DUP OP_HASH160 d25f6f058d1087bd5d198df6e63e8dc3b6351d2d OP_EQUALVERIFY OP_CHECKSIG", "type": "pubkeyhash"}, "value": 0.01829862, "n": 20}, {"scriptPubKey": {"reqSigs": 1, "hex": "a914ba35189165a480050bb388a4deb3d92fb1c4b59f87", "addresses": ["3JfbDPy35gB8dMn9vGK2JpE74nzfzHbLBR"], "asm": "OP_HASH160 ba35189165a480050bb388a4deb3d92fb1c4b59f OP_EQUAL", "type": "scripthash"}, "value": 0.00394, "n": 21}, {"scriptPubKey": {"reqSigs": 1, "hex": "76a9147e6ce02166dd9e3e9a47e713489fba7a8a19c8e888ac", "addresses": ["1CXUZyUQgAagrrwA9gt8HfX1jNYkxN6E26"], "asm": "OP_DUP OP_HASH160 7e6ce02166dd9e3e9a47e713489fba7a8a19c8e8 OP_EQUALVERIFY OP_CHECKSIG", "type": "pubkeyhash"}, "value": 0.03609982, "n": 22}, {"scriptPubKey": {"reqSigs": 1, "hex": "76a9143d4b3b1a8cb4a7ad0af82d10d6d44cb2ef4b940488ac", "addresses": ["16b6LqPxKJELnmErNREvJgdp8sSbenkRhq"], "asm": "OP_DUP OP_HASH160 3d4b3b1a8cb4a7ad0af82d10d6d44cb2ef4b9404 OP_EQUALVERIFY OP_CHECKSIG", "type": "pubkeyhash"}, "value": 0.02295094, "n": 23}, {"scriptPubKey": {"reqSigs": 1, "hex": "76a9140e3b90f4789600bf37bd3c05be2fd959d909299588ac", "addresses": ["12JFpRMRwVey3NQPh4rxFiDXZscguy9gcr"], "asm": "OP_DUP OP_HASH160 0e3b90f4789600bf37bd3c05be2fd959d9092995 OP_EQUALVERIFY OP_CHECKSIG", "type": "pubkeyhash"}, "value": 2.6851, "n": 24}, {"scriptPubKey": {"reqSigs": 1, "hex": "a91446337ef0339f04ce70712c739615b23d4b5d90d087", "addresses": ["386Cuy1QV7MLzjSDraykUkHAWv2jYKJTLr"], "asm": "OP_HASH160 46337ef0339f04ce70712c739615b23d4b5d90d0 OP_EQUAL", "type": "scripthash"}, "value": 0.00216484, "n": 25}, {"scriptPubKey": {"reqSigs": 1, "hex": "a91481ed38452354cc6be01ab139977d39bd19dbbb1a87", "addresses": ["3DY1GcPFv2Bq249i1XYDKJN2Z6gm6Zp5Nu"], "asm": "OP_HASH160 81ed38452354cc6be01ab139977d39bd19dbbb1a OP_EQUAL", "type": "scripthash"}, "value": 0.00155665, "n": 26}], "hex": "02000000000101c497185d6f49fe3fc3bbc204ad3dcc02faef5212ef5800a57b4e644bd2d898350c000000171600141d4605683253b5033fcf5b3b385a4a4bf8ec2c5cfeffffff1bae3c0c000000000017a91491801c6b52665bf7898701de35e2155359976a848712bf09000000000017a9148d9cb79a83c32907244533bc6fc64fcbe598958c87594200000000000017a914afd7758b891bf6915a2c7e344ca6c7b315c04fa387285604000000000017a91481a5b46ca272c857317ac0c980dd096300d7753987c67fb0180100000017a91432ecf3b6d4043857d29ab7bdce6ba42912b0466287a08601000000000017a9141efb1de34c1389297e6c06ec05e4a3e1a489338c87500f1e000000000017a914a3d0283a0af6daf7e1005f082d4df9265bda407b87f43b11000000000017a9144ef98441a203fd2256384bc8eed1a50de32eb0b987e90205000000000017a914a10ea0035f0db2f6d6e16163af4c6fb93ac918a687c8b60700000000001976a914b02a84af1ede98bd4fe89a29c714ed917bb6460088ac94b10000000000001976a9145112893757a469f1c9f2b6acd0fbba9557ae794488ace1d1cd020000000017a9147628e05e72acab1e620cd8832b7e53ffaff9d2bc8744e806000000000017a9147dc41ebb648bdf1e3a23cddbae1e196605b2dd1487e30b07000000000017a9147844edcbbc57fc2522f4d5ff428d9ffc874562b387adb206000000000017a9145f3b0329a4a7fc8b9ce9aa0e8c28584980c20cbf8723410a000000000017a914f869a51ba1ce3bdeb2c266697d8029ce54d6979987b29503000000000017a91447c4661bf4090ccdc7d3edce18d3e2fe76874c21874f5605000000000017a914aa47cadd40080ed15fcf1ef220c689760d9c12fd8771c602000000000017a91421bf9e4aea225fe43cba3265b6fed8456d0241a2874a424e000000000017a914801377b5cc3a1c59fbb1efe35147a225977f870c87e6eb1b00000000001976a914d25f6f058d1087bd5d198df6e63e8dc3b6351d2d88ac100306000000000017a914ba35189165a480050bb388a4deb3d92fb1c4b59f877e153700000000001976a9147e6ce02166dd9e3e9a47e713489fba7a8a19c8e888ac36052300000000001976a9143d4b3b1a8cb4a7ad0af82d10d6d44cb2ef4b940488ac30230110000000001976a9140e3b90f4789600bf37bd3c05be2fd959d909299588aca44d03000000000017a91446337ef0339f04ce70712c739615b23d4b5d90d087116002000000000017a91481ed38452354cc6be01ab139977d39bd19dbbb1a870248304502210098c126457ea901fca444199477f852f0151eac06aa73cda1c278f0c1624d4acb0220454068a4827741151bdfff3e470ecd94f7f6584e0559f8b0a4c88a0dea177a79012102c82525e9e968a035295f2cd9a0d1037c373e849faec506351112958e5c102cec10490800", "vin": [{"txinwitness": ["304502210098c126457ea901fca444199477f852f0151eac06aa73cda1c278f0c1624d4acb0220454068a4827741151bdfff3e470ecd94f7f6584e0559f8b0a4c88a0dea177a7901", "02c82525e9e968a035295f2cd9a0d1037c373e849faec506351112958e5c102cec"], "sequence": 4294967294, "scriptSig": {"hex": "1600141d4605683253b5033fcf5b3b385a4a4bf8ec2c5c", "asm": "00141d4605683253b5033fcf5b3b385a4a4bf8ec2c5c"}, "vout": 12, "txid": "3598d8d24b644e7ba50058ef1252effa02cc3dad04c2bbc33ffe496f5d1897c4"}], "txid": "2ee2738830dd338e99e43cc7787953644be14b23099f1bc18076cd386aca5f45", "blocktime": 1537872018, "version": 2, "confirmations": 11489, "time": 1537872018, "locktime": 542992, "vsize": 978, "size": 1060}