{"hash": "2ee54a2c918cc87aceaff34860d1425efb501b19c23fe9e94ff186051e41f985", "blockhash": "0000000000000000000baef3f32e3676a92c3b2e5da21b426e4f302fc371ce76", "vout": [{"scriptPubKey": {"reqSigs": 1, "hex": "76a9144874ed3284f469fc84275b5f5749f636045050b788ac", "addresses": ["17c7j1eCXY1J8bAc2J9SDCwYfZGpnJMoQm"], "asm": "OP_DUP OP_HASH160 4874ed3284f469fc84275b5f5749f636045050b7 OP_EQUALVERIFY OP_CHECKSIG", "type": "pubkeyhash"}, "value": 0.0063382, "n": 0}, {"scriptPubKey": {"type": "nulldata", "hex": "6a4c500000780f0001cadb011974be18250fff683e702940d64fa54d8eb2d19ed074892d00f8e818cb3efb7ddcc43ac3e4b5401afb02785baa1b6506143df9d84da2dd1d100759d4ba30d2c37bb011d97e02cf", "asm": "OP_RETURN 0000780f0001cadb011974be18250fff683e702940d64fa54d8eb2d19ed074892d00f8e818cb3efb7ddcc43ac3e4b5401afb02785baa1b6506143df9d84da2dd1d100759d4ba30d2c37bb011d97e02cf"}, "value": 0.0, "n": 1}], "hex": "010000000105cb1fe3f675944819e59a56ba769ff504c898cc1511a9068087377603269fd0000000006b483045022100f1da01be29a717d6b17dbd548a8857b50ac53de0e874f62cf2d98d25fcf5cf9c02201852d41d3c78f55abb2d7ccb18bd59e136c0df6d0b3c755e6dddccccb75a3d79012102f461a0489e0c98c8e4232540a186f672219b3e2a31aaa052aade6c19aecc4237ffffffff02dcab0900000000001976a9144874ed3284f469fc84275b5f5749f636045050b788ac0000000000000000536a4c500000780f0001cadb011974be18250fff683e702940d64fa54d8eb2d19ed074892d00f8e818cb3efb7ddcc43ac3e4b5401afb02785baa1b6506143df9d84da2dd1d100759d4ba30d2c37bb011d97e02cf00000000", "vin": [{"sequence": 4294967295, "scriptSig": {"hex": "483045022100f1da01be29a717d6b17dbd548a8857b50ac53de0e874f62cf2d98d25fcf5cf9c02201852d41d3c78f55abb2d7ccb18bd59e136c0df6d0b3c755e6dddccccb75a3d79012102f461a0489e0c98c8e4232540a186f672219b3e2a31aaa052aade6c19aecc4237", "asm": "3045022100f1da01be29a717d6b17dbd548a8857b50ac53de0e874f62cf2d98d25fcf5cf9c02201852d41d3c78f55abb2d7ccb18bd59e136c0df6d0b3c755e6dddccccb75a3d79[ALL] 02f461a0489e0c98c8e4232540a186f672219b3e2a31aaa052aade6c19aecc4237"}, "vout": 0, "txid": "d09f26037637878006a91115cc98c804f59f76ba569ae519489475f6e31fcb05"}], "txid": "2ee54a2c918cc87aceaff34860d1425efb501b19c23fe9e94ff186051e41f985", "blocktime": 1537876114, "version": 1, "confirmations": 11460, "time": 1537876114, "locktime": 0, "vsize": 284, "size": 284}