{"hash": "2ee64662be4765180a977423db38a726f5a60352924fd94002d39f298ee52ea3", "blockhash": "0000000000000000000e13cef7c366c0283d82e591d1acd082e914b08063cdf1", "vout": [{"scriptPubKey": {"type": "nulldata", "hex": "6a146f6d6e69000000000000001f000000c393e6d000", "asm": "OP_RETURN 6f6d6e69000000000000001f000000c393e6d000"}, "value": 0.0, "n": 0}, {"scriptPubKey": {"reqSigs": 1, "hex": "76a9145949be3b73bcce30744c8e9e3376c0bd9893f16188ac", "addresses": ["1997UqK3cSEsDLUzC6185QZ4BJcLF7fo14"], "asm": "OP_DUP OP_HASH160 5949be3b73bcce30744c8e9e3376c0bd9893f161 OP_EQUALVERIFY OP_CHECKSIG", "type": "pubkeyhash"}, "value": 0.00398, "n": 1}, {"scriptPubKey": {"reqSigs": 1, "hex": "76a914a25dec4d0011064ef106a983c39c7a540699f22088ac", "addresses": ["1FoWyxwPXuj4C6abqwhjDWdz6D4PZgYRjA"], "asm": "OP_DUP OP_HASH160 a25dec4d0011064ef106a983c39c7a540699f220 OP_EQUALVERIFY OP_CHECKSIG", "type": "pubkeyhash"}, "value": 5.46e-06, "n": 2}], "hex": "0100000013817f61504e73b8d93e43ec761c7125ccdd2dfa7fb31ac69ff00c243fb58c64aa020000006b483045022100ecdf9820e88a3b43ad3b1053b50f61cb45ac9ea0493495e123393d98185d2f7102205aa495322cc1285406c7b3ae767d317e5b67bdcbc491bf11c538a81fce6a1c22012103e20e5518ff9102eb630fa28af3548007576b58c668ff4c7d2bc789d49f32f175feffffff826247d9222cd7579fb32dad7f057c1b005a7357250687a17a00f70d9f39d66f020000006a473044022049baf1a578db80ce3825599ff16a0db43ee6039634d769b232fe0a8d3538f2fc02207f85a51875a162f03fd1f33cb17d4530e5e02a0ef89eae3a59d184739081dfb8012103e20e5518ff9102eb630fa28af3548007576b58c668ff4c7d2bc789d49f32f175feffffff9758904024aefb3bdaf084c6c66eeb669e9cd07383daf4edc324aaf434555932020000006b483045022100a14903cb1b979db856a8770d7e48c0b9f7537bb4606e9f21d102e9e774e122de02201e92df1e0cfde60dfb0a6e0fc986aa704801e7cdf646a6db8c820a0e7d83ef7f012103e20e5518ff9102eb630fa28af3548007576b58c668ff4c7d2bc789d49f32f175feffffff9f9d385037d1475985da8b4cbf31be5328a1848a687d7476d1b1b3e0872e69b9020000006a47304402201596dc215084fead9aec9112fcec17fd9562beac31db7646dada33fbf90a99590220177171f1cd45d1715ba8447843c6d83fed1e6dd12a665f165d9cd46ea6ff94d9012103e20e5518ff9102eb630fa28af3548007576b58c668ff4c7d2bc789d49f32f175feffffff9fa48308f1ed6bf5399e8800d22c43e5f59cb129e14e8d7c8bd6214ebf3b5bfb020000006b483045022100819c88637316ec952f6cdf9514c3e84112f5a6de482ffa0582991e2d624b8656022010d95844bd0473566a7efd67ff5c66b77d9ce03528ff115cfe6506c099259651012103e20e5518ff9102eb630fa28af3548007576b58c668ff4c7d2bc789d49f32f175feffffffa1d6c083c05f3d10f7deb8a4a17129bd1647f89826991e034ab4df34f992da0a020000006b483045022100ac1ca07d2b2b617da772ef39b38ad91bfe2d0547b05b4625158d0b8e56546abe0220700e1e68226e46781d8e2eef8122c7ae0123fb1e803135fc3145ed56e4667e9b012103e20e5518ff9102eb630fa28af3548007576b58c668ff4c7d2bc789d49f32f175feffffffa225c804be5f83b3a8deebccf6f9889c7245bde6f99ea791de31e5e5bab719e6020000006a473044022012add4d8b2640c3bd10ba25898ff86719025b0a7a40bc562cf291b9678a56990022068f4473d9a64057d78b05490dea66b3b646b5e13f64a008afa674daa456cb035012103e20e5518ff9102eb630fa28af3548007576b58c668ff4c7d2bc789d49f32f175feffffffa74bf5e920c91f0fef781504ef295038a8711cd12ec40bab42784a243b721ba2020000006a47304402205ce5aa7ccb7c5f7d78eef1f203a4c1e5aed4ca99159b35fe785d1703502c6eeb02207cadd640175bb087dae778536d99152470d82103e84f86608f8c00c4ffe56205012103e20e5518ff9102eb630fa28af3548007576b58c668ff4c7d2bc789d49f32f175feffffffa80cba0a42cc7c59ac555fdde801af058effb3de3a8e3c34f8c722cc8eb0d7c5020000006b483045022100c7d46b6a0d643ac91dd69216138c76d63f8698329b50cfae0c914a2e331b3efb0220594c0340e09d9fd0d8bfd8981f97c9baf7897ee0516d9454f4216dfc8ce97388012103e20e5518ff9102eb630fa28af3548007576b58c668ff4c7d2bc789d49f32f175feffffffa8b26d552788cf223a2977c6ed129cf8bb3540b45a4c62d45efbc7abf65f2dba020000006a473044022035d9fd7a3061e98c24eb8bc398ef0eb73583b79680aa9cbd382c93877353e40902204c7f47f41353dc6170b058587d99f572ed15465a67d93c5973e4897190aa23b2012103e20e5518ff9102eb630fa28af3548007576b58c668ff4c7d2bc789d49f32f175feffffffa964c3168f8491a29598c4a1e681cc73f794faacccf78ce134d5e9c4dd61786b020000006a47304402207ea9becb9bb9d177c78afbfaf1b51d337b23b684b4df7d43269625c02df6fe9102207fa1a3306fe49e210392d58a3c48997f66c83de77857392ca4f8d889717e5f22012103e20e5518ff9102eb630fa28af3548007576b58c668ff4c7d2bc789d49f32f175feffffffb0839856c021d3440b38009ae0ba8e9c5816c5d2aec4eb0bfbbca3ca1ba965be020000006a47304402205a236f287eff20afbeb74fcfcbe769790615a77fde7dda5c758afcd2ffbcc32f022027d00988c19c81e5e503008bf90c11a309077983abacf1ccd890c5bf83ddf244012103e20e5518ff9102eb630fa28af3548007576b58c668ff4c7d2bc789d49f32f175feffffffb829afbdcc34ef17c2e797f9c441ff8f2749be58ec2e8d81e4420a8865252f82020000006a47304402205adfeee2d7487ff96e1c527c39601a7d1fa4d8316f419f5210abc9edcb6c01150220493921b3cab2652890e3b2ebd13a3b76656ec1bece289d794e56b2c8c4ffb539012103e20e5518ff9102eb630fa28af3548007576b58c668ff4c7d2bc789d49f32f175feffffffbc77019fe281dc62a820544151824977f01b3f55c0a74b0148c42dbacdc065ae020000006a4730440220101a8103e47991bc0953cb04fd7431169a178182f7f55d421207fcf98fdb4f7f022054e890f74cf91c388851c1c5f96b2d6913dd4970bef049e39a1e4f309205eac8012103e20e5518ff9102eb630fa28af3548007576b58c668ff4c7d2bc789d49f32f175feffffffc17332f6ec120ca6e4041ace2af34b95030b104f49e8bab9e8af4c02225dd178010000006a47304402205060fa4ba1db3a5199ab05de23c31356430a53981b3e2f7b4e8d7c48332ad44102205eff749a7ad73854867d3975d49770a789b9aaee68cc3810f3a152559aa6c7f6012103e20e5518ff9102eb630fa28af3548007576b58c668ff4c7d2bc789d49f32f175feffffffcf514f988213cb127f0bfdf7a800ee07718f94787728872607ba8badb31a16b9020000006b483045022100c88b5c27c2c5a5d5ba5a39ad29b069114a4a2d0c7ac92a5372b5e56e0eec5d4802203760e0001ac93b0aa4e6ac27542fd00a04781cb6b969772b6ab90d4d868e17fe012103e20e5518ff9102eb630fa28af3548007576b58c668ff4c7d2bc789d49f32f175feffffff49072905fcfe56d8da758d6038793fdfe52e6cd5b496d34c9d92f8e11a039da4020000006a47304402201f4011f4c476ccac1ca6fa29f3fcffb3934b4f8e8bddbf203514f5e5c631d18a02202e6481101dc522e14b16c92e54ea7b4191cc05f54ef2e8fcb6bc724ca031d138012103e20e5518ff9102eb630fa28af3548007576b58c668ff4c7d2bc789d49f32f175feffffff9ab17b39ccc466d3edeffb5fd939ed3d24ddaff8e2d31fcfb698706a61efb72b020000006a47304402207cc6a3a0ab960039f955e97ddb55250010a80882a4042fa327a8e213b53e5582022057848e13cf0c8122bd5f9bf83cd618f8030961e43595d289df13bd6a5877ca2d012103e20e5518ff9102eb630fa28af3548007576b58c668ff4c7d2bc789d49f32f175feffffffd5f690c0a416f6a8a5e1b4b701f7d98bdf686f1540fb339d958de84386960daf020000006b48304502210094ae489614973c3c6fb0a7ad80fb14df0204fcf69d981ed9036c8876a6f1d89002207d098efa915ed19e1edb3fa0dd6aab0cf4eef67fcbeaedbca82dc26f725ff508012103e20e5518ff9102eb630fa28af3548007576b58c668ff4c7d2bc789d49f32f175feffffff030000000000000000166a146f6d6e69000000000000001f000000c393e6d000b0120600000000001976a9145949be3b73bcce30744c8e9e3376c0bd9893f16188ac22020000000000001976a914a25dec4d0011064ef106a983c39c7a540699f22088acf1480800", "vin": [{"sequence": 4294967294, "scriptSig": {"hex": "483045022100ecdf9820e88a3b43ad3b1053b50f61cb45ac9ea0493495e123393d98185d2f7102205aa495322cc1285406c7b3ae767d317e5b67bdcbc491bf11c538a81fce6a1c22012103e20e5518ff9102eb630fa28af3548007576b58c668ff4c7d2bc789d49f32f175", "asm": "3045022100ecdf9820e88a3b43ad3b1053b50f61cb45ac9ea0493495e123393d98185d2f7102205aa495322cc1285406c7b3ae767d317e5b67bdcbc491bf11c538a81fce6a1c22[ALL] 03e20e5518ff9102eb630fa28af3548007576b58c668ff4c7d2bc789d49f32f175"}, "vout": 2, "txid": "aa648cb53f240cf09fc61ab37ffa2dddcc25711c76ec433ed9b8734e50617f81"}, {"sequence": 4294967294, "scriptSig": {"hex": "473044022049baf1a578db80ce3825599ff16a0db43ee6039634d769b232fe0a8d3538f2fc02207f85a51875a162f03fd1f33cb17d4530e5e02a0ef89eae3a59d184739081dfb8012103e20e5518ff9102eb630fa28af3548007576b58c668ff4c7d2bc789d49f32f175", "asm": "3044022049baf1a578db80ce3825599ff16a0db43ee6039634d769b232fe0a8d3538f2fc02207f85a51875a162f03fd1f33cb17d4530e5e02a0ef89eae3a59d184739081dfb8[ALL] 03e20e5518ff9102eb630fa28af3548007576b58c668ff4c7d2bc789d49f32f175"}, "vout": 2, "txid": "6fd6399f0df7007aa187062557735a001b7c057fad2db39f57d72c22d9476282"}, {"sequence": 4294967294, "scriptSig": {"hex": "483045022100a14903cb1b979db856a8770d7e48c0b9f7537bb4606e9f21d102e9e774e122de02201e92df1e0cfde60dfb0a6e0fc986aa704801e7cdf646a6db8c820a0e7d83ef7f012103e20e5518ff9102eb630fa28af3548007576b58c668ff4c7d2bc789d49f32f175", "asm": "3045022100a14903cb1b979db856a8770d7e48c0b9f7537bb4606e9f21d102e9e774e122de02201e92df1e0cfde60dfb0a6e0fc986aa704801e7cdf646a6db8c820a0e7d83ef7f[ALL] 03e20e5518ff9102eb630fa28af3548007576b58c668ff4c7d2bc789d49f32f175"}, "vout": 2, "txid": "32595534f4aa24c3edf4da8373d09c9e66eb6ec6c684f0da3bfbae2440905897"}, {"sequence": 4294967294, "scriptSig": {"hex": "47304402201596dc215084fead9aec9112fcec17fd9562beac31db7646dada33fbf90a99590220177171f1cd45d1715ba8447843c6d83fed1e6dd12a665f165d9cd46ea6ff94d9012103e20e5518ff9102eb630fa28af3548007576b58c668ff4c7d2bc789d49f32f175", "asm": "304402201596dc215084fead9aec9112fcec17fd9562beac31db7646dada33fbf90a99590220177171f1cd45d1715ba8447843c6d83fed1e6dd12a665f165d9cd46ea6ff94d9[ALL] 03e20e5518ff9102eb630fa28af3548007576b58c668ff4c7d2bc789d49f32f175"}, "vout": 2, "txid": "b9692e87e0b3b1d176747d688a84a12853be31bf4c8bda855947d13750389d9f"}, {"sequence": 4294967294, "scriptSig": {"hex": "483045022100819c88637316ec952f6cdf9514c3e84112f5a6de482ffa0582991e2d624b8656022010d95844bd0473566a7efd67ff5c66b77d9ce03528ff115cfe6506c099259651012103e20e5518ff9102eb630fa28af3548007576b58c668ff4c7d2bc789d49f32f175", "asm": "3045022100819c88637316ec952f6cdf9514c3e84112f5a6de482ffa0582991e2d624b8656022010d95844bd0473566a7efd67ff5c66b77d9ce03528ff115cfe6506c099259651[ALL] 03e20e5518ff9102eb630fa28af3548007576b58c668ff4c7d2bc789d49f32f175"}, "vout": 2, "txid": "fb5b3bbf4e21d68b7c8d4ee129b19cf5e5432cd200889e39f56bedf10883a49f"}, {"sequence": 4294967294, "scriptSig": {"hex": "483045022100ac1ca07d2b2b617da772ef39b38ad91bfe2d0547b05b4625158d0b8e56546abe0220700e1e68226e46781d8e2eef8122c7ae0123fb1e803135fc3145ed56e4667e9b012103e20e5518ff9102eb630fa28af3548007576b58c668ff4c7d2bc789d49f32f175", "asm": "3045022100ac1ca07d2b2b617da772ef39b38ad91bfe2d0547b05b4625158d0b8e56546abe0220700e1e68226e46781d8e2eef8122c7ae0123fb1e803135fc3145ed56e4667e9b[ALL] 03e20e5518ff9102eb630fa28af3548007576b58c668ff4c7d2bc789d49f32f175"}, "vout": 2, "txid": "0ada92f934dfb44a031e992698f84716bd2971a1a4b8def7103d5fc083c0d6a1"}, {"sequence": 4294967294, "scriptSig": {"hex": "473044022012add4d8b2640c3bd10ba25898ff86719025b0a7a40bc562cf291b9678a56990022068f4473d9a64057d78b05490dea66b3b646b5e13f64a008afa674daa456cb035012103e20e5518ff9102eb630fa28af3548007576b58c668ff4c7d2bc789d49f32f175", "asm": "3044022012add4d8b2640c3bd10ba25898ff86719025b0a7a40bc562cf291b9678a56990022068f4473d9a64057d78b05490dea66b3b646b5e13f64a008afa674daa456cb035[ALL] 03e20e5518ff9102eb630fa28af3548007576b58c668ff4c7d2bc789d49f32f175"}, "vout": 2, "txid": "e619b7bae5e531de91a79ef9e6bd45729c88f9f6ccebdea8b3835fbe04c825a2"}, {"sequence": 4294967294, "scriptSig": {"hex": "47304402205ce5aa7ccb7c5f7d78eef1f203a4c1e5aed4ca99159b35fe785d1703502c6eeb02207cadd640175bb087dae778536d99152470d82103e84f86608f8c00c4ffe56205012103e20e5518ff9102eb630fa28af3548007576b58c668ff4c7d2bc789d49f32f175", "asm": "304402205ce5aa7ccb7c5f7d78eef1f203a4c1e5aed4ca99159b35fe785d1703502c6eeb02207cadd640175bb087dae778536d99152470d82103e84f86608f8c00c4ffe56205[ALL] 03e20e5518ff9102eb630fa28af3548007576b58c668ff4c7d2bc789d49f32f175"}, "vout": 2, "txid": "a21b723b244a7842ab0bc42ed11c71a8385029ef041578ef0f1fc920e9f54ba7"}, {"sequence": 4294967294, "scriptSig": {"hex": "483045022100c7d46b6a0d643ac91dd69216138c76d63f8698329b50cfae0c914a2e331b3efb0220594c0340e09d9fd0d8bfd8981f97c9baf7897ee0516d9454f4216dfc8ce97388012103e20e5518ff9102eb630fa28af3548007576b58c668ff4c7d2bc789d49f32f175", "asm": "3045022100c7d46b6a0d643ac91dd69216138c76d63f8698329b50cfae0c914a2e331b3efb0220594c0340e09d9fd0d8bfd8981f97c9baf7897ee0516d9454f4216dfc8ce97388[ALL] 03e20e5518ff9102eb630fa28af3548007576b58c668ff4c7d2bc789d49f32f175"}, "vout": 2, "txid": "c5d7b08ecc22c7f8343c8e3adeb3ff8e05af01e8dd5f55ac597ccc420aba0ca8"}, {"sequence": 4294967294, "scriptSig": {"hex": "473044022035d9fd7a3061e98c24eb8bc398ef0eb73583b79680aa9cbd382c93877353e40902204c7f47f41353dc6170b058587d99f572ed15465a67d93c5973e4897190aa23b2012103e20e5518ff9102eb630fa28af3548007576b58c668ff4c7d2bc789d49f32f175", "asm": "3044022035d9fd7a3061e98c24eb8bc398ef0eb73583b79680aa9cbd382c93877353e40902204c7f47f41353dc6170b058587d99f572ed15465a67d93c5973e4897190aa23b2[ALL] 03e20e5518ff9102eb630fa28af3548007576b58c668ff4c7d2bc789d49f32f175"}, "vout": 2, "txid": "ba2d5ff6abc7fb5ed4624c5ab44035bbf89c12edc677293a22cf8827556db2a8"}, {"sequence": 4294967294, "scriptSig": {"hex": "47304402207ea9becb9bb9d177c78afbfaf1b51d337b23b684b4df7d43269625c02df6fe9102207fa1a3306fe49e210392d58a3c48997f66c83de77857392ca4f8d889717e5f22012103e20e5518ff9102eb630fa28af3548007576b58c668ff4c7d2bc789d49f32f175", "asm": "304402207ea9becb9bb9d177c78afbfaf1b51d337b23b684b4df7d43269625c02df6fe9102207fa1a3306fe49e210392d58a3c48997f66c83de77857392ca4f8d889717e5f22[ALL] 03e20e5518ff9102eb630fa28af3548007576b58c668ff4c7d2bc789d49f32f175"}, "vout": 2, "txid": "6b7861ddc4e9d534e18cf7ccacfa94f773cc81e6a1c49895a291848f16c364a9"}, {"sequence": 4294967294, "scriptSig": {"hex": "47304402205a236f287eff20afbeb74fcfcbe769790615a77fde7dda5c758afcd2ffbcc32f022027d00988c19c81e5e503008bf90c11a309077983abacf1ccd890c5bf83ddf244012103e20e5518ff9102eb630fa28af3548007576b58c668ff4c7d2bc789d49f32f175", "asm": "304402205a236f287eff20afbeb74fcfcbe769790615a77fde7dda5c758afcd2ffbcc32f022027d00988c19c81e5e503008bf90c11a309077983abacf1ccd890c5bf83ddf244[ALL] 03e20e5518ff9102eb630fa28af3548007576b58c668ff4c7d2bc789d49f32f175"}, "vout": 2, "txid": "be65a91bcaa3bcfb0bebc4aed2c516589c8ebae09a00380b44d321c0569883b0"}, {"sequence": 4294967294, "scriptSig": {"hex": "47304402205adfeee2d7487ff96e1c527c39601a7d1fa4d8316f419f5210abc9edcb6c01150220493921b3cab2652890e3b2ebd13a3b76656ec1bece289d794e56b2c8c4ffb539012103e20e5518ff9102eb630fa28af3548007576b58c668ff4c7d2bc789d49f32f175", "asm": "304402205adfeee2d7487ff96e1c527c39601a7d1fa4d8316f419f5210abc9edcb6c01150220493921b3cab2652890e3b2ebd13a3b76656ec1bece289d794e56b2c8c4ffb539[ALL] 03e20e5518ff9102eb630fa28af3548007576b58c668ff4c7d2bc789d49f32f175"}, "vout": 2, "txid": "822f2565880a42e4818d2eec58be49278fff41c4f997e7c217ef34ccbdaf29b8"}, {"sequence": 4294967294, "scriptSig": {"hex": "4730440220101a8103e47991bc0953cb04fd7431169a178182f7f55d421207fcf98fdb4f7f022054e890f74cf91c388851c1c5f96b2d6913dd4970bef049e39a1e4f309205eac8012103e20e5518ff9102eb630fa28af3548007576b58c668ff4c7d2bc789d49f32f175", "asm": "30440220101a8103e47991bc0953cb04fd7431169a178182f7f55d421207fcf98fdb4f7f022054e890f74cf91c388851c1c5f96b2d6913dd4970bef049e39a1e4f309205eac8[ALL] 03e20e5518ff9102eb630fa28af3548007576b58c668ff4c7d2bc789d49f32f175"}, "vout": 2, "txid": "ae65c0cdba2dc448014ba7c0553f1bf077498251415420a862dc81e29f0177bc"}, {"sequence": 4294967294, "scriptSig": {"hex": "47304402205060fa4ba1db3a5199ab05de23c31356430a53981b3e2f7b4e8d7c48332ad44102205eff749a7ad73854867d3975d49770a789b9aaee68cc3810f3a152559aa6c7f6012103e20e5518ff9102eb630fa28af3548007576b58c668ff4c7d2bc789d49f32f175", "asm": "304402205060fa4ba1db3a5199ab05de23c31356430a53981b3e2f7b4e8d7c48332ad44102205eff749a7ad73854867d3975d49770a789b9aaee68cc3810f3a152559aa6c7f6[ALL] 03e20e5518ff9102eb630fa28af3548007576b58c668ff4c7d2bc789d49f32f175"}, "vout": 1, "txid": "78d15d22024cafe8b9bae8494f100b03954bf32ace1a04e4a60c12ecf63273c1"}, {"sequence": 4294967294, "scriptSig": {"hex": "483045022100c88b5c27c2c5a5d5ba5a39ad29b069114a4a2d0c7ac92a5372b5e56e0eec5d4802203760e0001ac93b0aa4e6ac27542fd00a04781cb6b969772b6ab90d4d868e17fe012103e20e5518ff9102eb630fa28af3548007576b58c668ff4c7d2bc789d49f32f175", "asm": "3045022100c88b5c27c2c5a5d5ba5a39ad29b069114a4a2d0c7ac92a5372b5e56e0eec5d4802203760e0001ac93b0aa4e6ac27542fd00a04781cb6b969772b6ab90d4d868e17fe[ALL] 03e20e5518ff9102eb630fa28af3548007576b58c668ff4c7d2bc789d49f32f175"}, "vout": 2, "txid": "b9161ab3ad8bba072687287778948f7107ee00a8f7fd0b7f12cb1382984f51cf"}, {"sequence": 4294967294, "scriptSig": {"hex": "47304402201f4011f4c476ccac1ca6fa29f3fcffb3934b4f8e8bddbf203514f5e5c631d18a02202e6481101dc522e14b16c92e54ea7b4191cc05f54ef2e8fcb6bc724ca031d138012103e20e5518ff9102eb630fa28af3548007576b58c668ff4c7d2bc789d49f32f175", "asm": "304402201f4011f4c476ccac1ca6fa29f3fcffb3934b4f8e8bddbf203514f5e5c631d18a02202e6481101dc522e14b16c92e54ea7b4191cc05f54ef2e8fcb6bc724ca031d138[ALL] 03e20e5518ff9102eb630fa28af3548007576b58c668ff4c7d2bc789d49f32f175"}, "vout": 2, "txid": "a49d031ae1f8929d4cd396b4d56c2ee5df3f7938608d75dad856fefc05290749"}, {"sequence": 4294967294, "scriptSig": {"hex": "47304402207cc6a3a0ab960039f955e97ddb55250010a80882a4042fa327a8e213b53e5582022057848e13cf0c8122bd5f9bf83cd618f8030961e43595d289df13bd6a5877ca2d012103e20e5518ff9102eb630fa28af3548007576b58c668ff4c7d2bc789d49f32f175", "asm": "304402207cc6a3a0ab960039f955e97ddb55250010a80882a4042fa327a8e213b53e5582022057848e13cf0c8122bd5f9bf83cd618f8030961e43595d289df13bd6a5877ca2d[ALL] 03e20e5518ff9102eb630fa28af3548007576b58c668ff4c7d2bc789d49f32f175"}, "vout": 2, "txid": "2bb7ef616a7098b6cf1fd3e2f8afdd243ded39d95ffbefedd366c4cc397bb19a"}, {"sequence": 4294967294, "scriptSig": {"hex": "48304502210094ae489614973c3c6fb0a7ad80fb14df0204fcf69d981ed9036c8876a6f1d89002207d098efa915ed19e1edb3fa0dd6aab0cf4eef67fcbeaedbca82dc26f725ff508012103e20e5518ff9102eb630fa28af3548007576b58c668ff4c7d2bc789d49f32f175", "asm": "304502210094ae489614973c3c6fb0a7ad80fb14df0204fcf69d981ed9036c8876a6f1d89002207d098efa915ed19e1edb3fa0dd6aab0cf4eef67fcbeaedbca82dc26f725ff508[ALL] 03e20e5518ff9102eb630fa28af3548007576b58c668ff4c7d2bc789d49f32f175"}, "vout": 2, "txid": "af0d968643e88d959d33fb40156f68df8bd9f701b7b4e1a5a8f616a4c090f6d5"}], "txid": "2ee64662be4765180a977423db38a726f5a60352924fd94002d39f298ee52ea3", "blocktime": 1537871767, "version": 1, "confirmations": 11495, "time": 1537871767, "locktime": 542961, "vsize": 2909, "size": 2909}