{"hash": "24a9059ab83d1109b277f011eda5cb4d9c568274608d56539ad15a1b70a62a4c", "blockhash": "0000000000000000001f0ddff1eddb255c1121bcd4da4f1bc9a0da00cae72433", "vout": [{"scriptPubKey": {"reqSigs": 1, "hex": "a9143b917f27cfd975b53fa05d9cf1b127c31f75230187", "addresses": ["377z69e77fPJQeRvRAdF4nVaQ4qwGeFMRo"], "asm": "OP_HASH160 3b917f27cfd975b53fa05d9cf1b127c31f752301 OP_EQUAL", "type": "scripthash"}, "value": 0.00156, "n": 0}, {"scriptPubKey": {"reqSigs": 1, "hex": "0014c15311eedf483517a0d1a736cdac1c23db8cba9d", "addresses": ["bc1qc9f3rmklfq630gx35umvmtquy0dcew5a83cykc"], "asm": "0 c15311eedf483517a0d1a736cdac1c23db8cba9d", "type": "witness_v0_keyhash"}, "value": 6.975e-05, "n": 1}], "hex": "010000000001015b854db59ca707975119f16c8ddb4accaec8064000a29ab372a8dce9a8f324095b00000017160014cc5bacf8f9e187e1c18f5e0937de2d0b16b1d4a8ffffffff02606102000000000017a9143b917f27cfd975b53fa05d9cf1b127c31f752301873f1b000000000000160014c15311eedf483517a0d1a736cdac1c23db8cba9d02483045022100e2fd59487e1b2989be9c05123ea4005d1a751cf106074a52a6e5c03f0255e9750220125bbe58d94238e69e7ac8008da6590f4ce8ed3a8ff7e79a9d07788e9b5d375b0121020f0ec8dffbb881d1f9aa6dc9ae3cd003a3e8448d08215654d26638ad8bfd1d3700000000", "vin": [{"txinwitness": ["3045022100e2fd59487e1b2989be9c05123ea4005d1a751cf106074a52a6e5c03f0255e9750220125bbe58d94238e69e7ac8008da6590f4ce8ed3a8ff7e79a9d07788e9b5d375b01", "020f0ec8dffbb881d1f9aa6dc9ae3cd003a3e8448d08215654d26638ad8bfd1d37"], "sequence": 4294967295, "scriptSig": {"hex": "160014cc5bacf8f9e187e1c18f5e0937de2d0b16b1d4a8", "asm": "0014cc5bacf8f9e187e1c18f5e0937de2d0b16b1d4a8"}, "vout": 91, "txid": "0924f3a8e9dca872b39aa2004006c8aecc4adb8d6cf119519707a79cb54d855b"}], "txid": "2eeed640b9f20ca2e2e3ec224130cc3d77f48aff557c7d04dbd8d578ef5ae6f5", "blocktime": 1537872018, "version": 1, "confirmations": 11489, "time": 1537872018, "locktime": 0, "vsize": 165, "size": 247}