{"hash": "2ef091d6fefb934ac21c6739b10443a94d0c5eb95999e81d1b7da2dd07a7ff1f", "blockhash": "0000000000000000000e13cef7c366c0283d82e591d1acd082e914b08063cdf1", "vout": [{"scriptPubKey": {"reqSigs": 1, "hex": "76a914d094a55f59750275a7d7df68d92bcabd3bf286f388ac", "addresses": ["1L1sd1HWzyDoyAsYHsdPP6DhAsEeUH6dkQ"], "asm": "OP_DUP OP_HASH160 d094a55f59750275a7d7df68d92bcabd3bf286f3 OP_EQUALVERIFY OP_CHECKSIG", "type": "pubkeyhash"}, "value": 0.00649145, "n": 0}, {"scriptPubKey": {"type": "nulldata", "hex": "6a4c500000779c000114a898f23fe1bc665f662dbfe3ef3236678a625097bcbefa6b8351586b4eba21a813ee8def98f42073a9709d8c795baa0d99061567b421566cf61d100759d4ba30d2c37bb011d97e02cf", "asm": "OP_RETURN 0000779c000114a898f23fe1bc665f662dbfe3ef3236678a625097bcbefa6b8351586b4eba21a813ee8def98f42073a9709d8c795baa0d99061567b421566cf61d100759d4ba30d2c37bb011d97e02cf"}, "value": 0.0, "n": 1}], "hex": "01000000015e3422fcb8080cbb732bb6710c4326301f4febd08cc0c62469a0e3c43435f05d000000006a473044022034368478c2c0f7e4e63db901f99c6448a4782cafa44955485bc7dbddc856fb5e022034c7381caf8035ab7e55a87c117aeb62376bd345673d57a4389febf09431c0e80121033ca851e93aad65c2dbcc8c07f5da983ad2a6b1d22d296d97c5b08548ccbf2305ffffffff02b9e70900000000001976a914d094a55f59750275a7d7df68d92bcabd3bf286f388ac0000000000000000536a4c500000779c000114a898f23fe1bc665f662dbfe3ef3236678a625097bcbefa6b8351586b4eba21a813ee8def98f42073a9709d8c795baa0d99061567b421566cf61d100759d4ba30d2c37bb011d97e02cf00000000", "vin": [{"sequence": 4294967295, "scriptSig": {"hex": "473044022034368478c2c0f7e4e63db901f99c6448a4782cafa44955485bc7dbddc856fb5e022034c7381caf8035ab7e55a87c117aeb62376bd345673d57a4389febf09431c0e80121033ca851e93aad65c2dbcc8c07f5da983ad2a6b1d22d296d97c5b08548ccbf2305", "asm": "3044022034368478c2c0f7e4e63db901f99c6448a4782cafa44955485bc7dbddc856fb5e022034c7381caf8035ab7e55a87c117aeb62376bd345673d57a4389febf09431c0e8[ALL] 033ca851e93aad65c2dbcc8c07f5da983ad2a6b1d22d296d97c5b08548ccbf2305"}, "vout": 0, "txid": "5df03534c4e3a06924c6c08cd0eb4f1f3026430c71b62b73bb0c08b8fc22345e"}], "txid": "2ef091d6fefb934ac21c6739b10443a94d0c5eb95999e81d1b7da2dd07a7ff1f", "blocktime": 1537871767, "version": 1, "confirmations": 11495, "time": 1537871767, "locktime": 0, "vsize": 283, "size": 283}