{"hash": "2ef3877e184419a344ccd5db54e02f1e806fc9c626ef4e4b75762be1bb529f5a", "blockhash": "000000000000000000205f8b0775d31398ef75b89a5e8ec8d2c57b4dc0ac4c20", "vout": [{"scriptPubKey": {"reqSigs": 1, "hex": "a914d8a6a2a6897b604108c591edbfc1dce1aabc58f787", "addresses": ["3MSZW1L2Zynve52Aa6Chip6FHwPKMXN81R"], "asm": "OP_HASH160 d8a6a2a6897b604108c591edbfc1dce1aabc58f7 OP_EQUAL", "type": "scripthash"}, "value": 0.00013, "n": 0}], "hex": "0100000001a6b82e8f3a5d82f9484278f7b8e328de7c52ee7991d7a4915ecbdf868ab4b61c000000006a47304402200bdef60fed242873d77b673c76d005db1ed57ba2864a51533c35627cc6c42ae602200afdecc3d1525b670dc1aa1c8c57377c4cfcda892a00bf289cd787c43dc181020121024cd267db5efae404d480690642eaa6878169e833ff0f258fc5a0b53eeaf6d0b8ffffffff01c83200000000000017a914d8a6a2a6897b604108c591edbfc1dce1aabc58f78700000000", "vin": [{"sequence": 4294967295, "scriptSig": {"hex": "47304402200bdef60fed242873d77b673c76d005db1ed57ba2864a51533c35627cc6c42ae602200afdecc3d1525b670dc1aa1c8c57377c4cfcda892a00bf289cd787c43dc181020121024cd267db5efae404d480690642eaa6878169e833ff0f258fc5a0b53eeaf6d0b8", "asm": "304402200bdef60fed242873d77b673c76d005db1ed57ba2864a51533c35627cc6c42ae602200afdecc3d1525b670dc1aa1c8c57377c4cfcda892a00bf289cd787c43dc18102[ALL] 024cd267db5efae404d480690642eaa6878169e833ff0f258fc5a0b53eeaf6d0b8"}, "vout": 0, "txid": "1cb6b48a86dfcb5e91a4d79179ee527cde28e3b8f7784248f9825d3a8f2eb8a6"}], "txid": "2ef3877e184419a344ccd5db54e02f1e806fc9c626ef4e4b75762be1bb529f5a", "blocktime": 1537871175, "version": 1, "confirmations": 11511, "time": 1537871175, "locktime": 0, "vsize": 189, "size": 189}