{"hash": "2ef4891589851479a309fe8e9fe828a03b9108d91d1867ed7bd7ebe926ba96e1", "blockhash": "00000000000000000004ffacab907a6b429b9a5745fa0b75af4234bf69dd7176", "vout": [{"scriptPubKey": {"reqSigs": 1, "hex": "76a914c24a32e29b8155e78115473d9f5da31f65a9470788ac", "addresses": ["1JiJydtdudLcpdjdayhiwMsQDh2MdqcYLN"], "asm": "OP_DUP OP_HASH160 c24a32e29b8155e78115473d9f5da31f65a94707 OP_EQUALVERIFY OP_CHECKSIG", "type": "pubkeyhash"}, "value": 0.129986, "n": 0}], "hex": "0100000001cc3c84f525dfc42ece4c53945a7ba4108c9e0bb81c075fb6853edd1ccf8e50ee010000006a473044022059efe08a46df4c6b2c9dab8a38d3f3794788ac4d063b4f433fe583f621de255b02206cfdc640fa42e8f3c5187da0405054c259199fd87c3594536abe6766f52cfe2d012103235b71a10aa6bd25c5fd0c2fb354c043f504237b34a59225270aafc88e50affaffffffff01c857c600000000001976a914c24a32e29b8155e78115473d9f5da31f65a9470788ac00000000", "vin": [{"sequence": 4294967295, "scriptSig": {"hex": "473044022059efe08a46df4c6b2c9dab8a38d3f3794788ac4d063b4f433fe583f621de255b02206cfdc640fa42e8f3c5187da0405054c259199fd87c3594536abe6766f52cfe2d012103235b71a10aa6bd25c5fd0c2fb354c043f504237b34a59225270aafc88e50affa", "asm": "3044022059efe08a46df4c6b2c9dab8a38d3f3794788ac4d063b4f433fe583f621de255b02206cfdc640fa42e8f3c5187da0405054c259199fd87c3594536abe6766f52cfe2d[ALL] 03235b71a10aa6bd25c5fd0c2fb354c043f504237b34a59225270aafc88e50affa"}, "vout": 1, "txid": "ee508ecf1cdd3e85b65f071cb80b9e8c10a47b5a94534cce2ec4df25f5843ccc"}], "txid": "2ef4891589851479a309fe8e9fe828a03b9108d91d1867ed7bd7ebe926ba96e1", "blocktime": 1537875543, "version": 1, "confirmations": 11464, "time": 1537875543, "locktime": 0, "vsize": 191, "size": 191}