{"hash": "7fc3e8803fdb113bbf564df2883f922cdd00a3bbf9adca137d16104e60045b30", "blockhash": "0000000000000000001f76057863aec43deb6fa401d9628bb513d65a8098bfab", "vout": [{"scriptPubKey": {"reqSigs": 1, "hex": "a9140e4baa82fcb5a84f4a9fd4628f28718ddfd4729b87", "addresses": ["32zc2biuRQMirMcmfEQYSoh7GnmDDKuHEB"], "asm": "OP_HASH160 0e4baa82fcb5a84f4a9fd4628f28718ddfd4729b OP_EQUAL", "type": "scripthash"}, "value": 0.06366084, "n": 0}, {"scriptPubKey": {"reqSigs": 1, "hex": "a91455786fb857ce1c12adc3023d33a480217810f6dc87", "addresses": ["39UwdvAy18Hd5CA7vq3AP5vGBK2RUbFuC9"], "asm": "OP_HASH160 55786fb857ce1c12adc3023d33a480217810f6dc OP_EQUAL", "type": "scripthash"}, "value": 0.00163417, "n": 1}], "hex": "0100000000010120a59a54bf58d94d61893146cb45bcc64fa58113991debfd84db1041cc4428740000000017160014b0fff913a630f909048529fe54e3c7ac8b64c142ffffffff02842361000000000017a9140e4baa82fcb5a84f4a9fd4628f28718ddfd4729b87597e02000000000017a91455786fb857ce1c12adc3023d33a480217810f6dc8702473044022061946b13c96bd9c44f7d554fa2761c2c03d85c0ace3f01ad4b7249a46e59418302203886a7e07aab12e976fe24aa65d4dd5e59a067d600ec91c5d9ecf1d10ae276a1012103c98b5c5b4ffec7a8346b7a5624f9aafffb8664b80e4181609e93c62d002ff1fa00000000", "vin": [{"txinwitness": ["3044022061946b13c96bd9c44f7d554fa2761c2c03d85c0ace3f01ad4b7249a46e59418302203886a7e07aab12e976fe24aa65d4dd5e59a067d600ec91c5d9ecf1d10ae276a101", "03c98b5c5b4ffec7a8346b7a5624f9aafffb8664b80e4181609e93c62d002ff1fa"], "sequence": 4294967295, "scriptSig": {"hex": "160014b0fff913a630f909048529fe54e3c7ac8b64c142", "asm": "0014b0fff913a630f909048529fe54e3c7ac8b64c142"}, "vout": 0, "txid": "742844cc4110db84fdeb1d991381a54fc6bc45cb463189614dd958bf549aa520"}], "txid": "2ef59a66fa980a9a2f675900b1b9aa13eb1f1d7a2058a03b5d8413676f4290f9", "blocktime": 1537873891, "version": 1, "confirmations": 11474, "time": 1537873891, "locktime": 0, "vsize": 166, "size": 247}