{"hash": "2efabbe51321178294516b927d325a2b1129f931c85f60109c1cefd050bf16c4", "blockhash": "0000000000000000001f76057863aec43deb6fa401d9628bb513d65a8098bfab", "vout": [{"scriptPubKey": {"reqSigs": 1, "hex": "76a914043914089c4fa3237a83e14ba7f7f9e5d27a9e1988ac", "addresses": ["1PL5dn7sCTaRNZQF85GffmaFcaTtph4mD"], "asm": "OP_DUP OP_HASH160 043914089c4fa3237a83e14ba7f7f9e5d27a9e19 OP_EQUALVERIFY OP_CHECKSIG", "type": "pubkeyhash"}, "value": 0.28879198, "n": 0}, {"scriptPubKey": {"reqSigs": 1, "hex": "76a9143d0e10388bd056f85f2ccb8b18621f36a546056788ac", "addresses": ["16Zq4qnv55BRe2YZLxKUwvWEh2NyWTcNHq"], "asm": "OP_DUP OP_HASH160 3d0e10388bd056f85f2ccb8b18621f36a5460567 OP_EQUALVERIFY OP_CHECKSIG", "type": "pubkeyhash"}, "value": 0.01122558, "n": 1}], "hex": "020000000122a99195973e5ab50a31b4fdf937df5f93c3cb863a8fc9d2ffbd2502c5c3929a000000006b48304502210096d7cbaae290c1b896463eac2f33a4bceec11b2827707994f0f7680607bdb18e022061334a5711c792ce58383575028afa5b6cc60af70f54631ab7cf18f8627e2b9b012102a3fc6f580e213a5f15b8b6e8d892ac65e54219fe2a74e797d3015226ae969b5efeffffff025ea9b801000000001976a914043914089c4fa3237a83e14ba7f7f9e5d27a9e1988acfe201100000000001976a9143d0e10388bd056f85f2ccb8b18621f36a546056788ac13490800", "vin": [{"sequence": 4294967294, "scriptSig": {"hex": "48304502210096d7cbaae290c1b896463eac2f33a4bceec11b2827707994f0f7680607bdb18e022061334a5711c792ce58383575028afa5b6cc60af70f54631ab7cf18f8627e2b9b012102a3fc6f580e213a5f15b8b6e8d892ac65e54219fe2a74e797d3015226ae969b5e", "asm": "304502210096d7cbaae290c1b896463eac2f33a4bceec11b2827707994f0f7680607bdb18e022061334a5711c792ce58383575028afa5b6cc60af70f54631ab7cf18f8627e2b9b[ALL] 02a3fc6f580e213a5f15b8b6e8d892ac65e54219fe2a74e797d3015226ae969b5e"}, "vout": 0, "txid": "9a92c3c50225bdffd2c98f3a86cbc3935fdf37f9fdb4310ab55a3e979591a922"}], "txid": "2efabbe51321178294516b927d325a2b1129f931c85f60109c1cefd050bf16c4", "blocktime": 1537873891, "version": 2, "confirmations": 11478, "time": 1537873891, "locktime": 542995, "vsize": 226, "size": 226}