{"hash": "163eaca3363887bc26805625cc16f9d5692eb4606f94791cd92a7d7b264eea67", "blockhash": "000000000000000000022b45ed06c6f4ccd3cf7fb5ba4856ebd2e58215665228", "vout": [{"scriptPubKey": {"reqSigs": 1, "hex": "76a9141abee87ceac2fea46e8aca73f2e29f99cb5f084688ac", "addresses": ["13SRGX6JhFuAPAnLm6eHTi2mQjoBL34fJP"], "asm": "OP_DUP OP_HASH160 1abee87ceac2fea46e8aca73f2e29f99cb5f0846 OP_EQUALVERIFY OP_CHECKSIG", "type": "pubkeyhash"}, "value": 0.0028596, "n": 0}, {"scriptPubKey": {"reqSigs": 1, "hex": "a914b65f42fca710ffcbbd82ad2e29a2cfe90dc8deaa87", "addresses": ["3JKK2MTkhjRj5pWHqjJwYcXMqESRYTvAQe"], "asm": "OP_HASH160 b65f42fca710ffcbbd82ad2e29a2cfe90dc8deaa OP_EQUAL", "type": "scripthash"}, "value": 0.00998841, "n": 1}], "hex": "0200000000010258487d0fb58018508d91aee6f923cbcd4f418b4ff0d151322f09772365b9d2640800000017160014b1b98982b3fc232f2e88accb1716bee22ed58836feffffff5acecf166308e1d6197008fe38f5a1f57a8cb9c717cd4e2f19d8494b645ae7b800000000171600143bfda0368469cfff1178c207a8980d4fbd2c2e40feffffff02085d0400000000001976a9141abee87ceac2fea46e8aca73f2e29f99cb5f084688acb93d0f000000000017a914b65f42fca710ffcbbd82ad2e29a2cfe90dc8deaa870247304402207e2bf18699c358ba9537519a8ccd4cb68f6f91e9ff5aa6b62ef43f117faaba4202201c5e31ea4c913c50a59720438c62f6f8135c4ad9f80815cd36a014f0f1770ab1012102c52582211735e623e3b0230cf5eb642424c229b7ac5d73fd541a13d8b793f3bf02473044022057cc76f15f0683e22f4db1155b2c568b4c93ffe3903eb650b87f198bf4dbd578022042ca415a03652e3b5904ec072af0a5352dc7205ea16d53dcf9b78239d7b692fd012102355510e8036437701982510d0bc0b7bfeb641cbad1fba5795e1b268c0c1d92670b490800", "vin": [{"txinwitness": ["304402207e2bf18699c358ba9537519a8ccd4cb68f6f91e9ff5aa6b62ef43f117faaba4202201c5e31ea4c913c50a59720438c62f6f8135c4ad9f80815cd36a014f0f1770ab101", "02c52582211735e623e3b0230cf5eb642424c229b7ac5d73fd541a13d8b793f3bf"], "sequence": 4294967294, "scriptSig": {"hex": "160014b1b98982b3fc232f2e88accb1716bee22ed58836", "asm": "0014b1b98982b3fc232f2e88accb1716bee22ed58836"}, "vout": 8, "txid": "64d2b9652377092f3251d1f04f8b414fcdcb23f9e6ae918d501880b50f7d4858"}, {"txinwitness": ["3044022057cc76f15f0683e22f4db1155b2c568b4c93ffe3903eb650b87f198bf4dbd578022042ca415a03652e3b5904ec072af0a5352dc7205ea16d53dcf9b78239d7b692fd01", "02355510e8036437701982510d0bc0b7bfeb641cbad1fba5795e1b268c0c1d9267"], "sequence": 4294967294, "scriptSig": {"hex": "1600143bfda0368469cfff1178c207a8980d4fbd2c2e40", "asm": "00143bfda0368469cfff1178c207a8980d4fbd2c2e40"}, "vout": 0, "txid": "b8e75a644b49d8192f4ecd17c7b98c7af5a1f538fe087019d6e1086316cfce5a"}], "txid": "2efb3168fad0b9eb7a266e7f197e359b293f09e09f4bd37eef25238df180c628", "blocktime": 1537869901, "version": 2, "confirmations": 11522, "time": 1537869901, "locktime": 542987, "vsize": 258, "size": 420}