{"hash": "2efca23312016d298395616200482e9bba869f4b3d89b7b7d3e357265f84209c", "blockhash": "0000000000000000001e0dab787dd257d1dbfcb92a98c2207d5e1078be1f4165", "vout": [{"scriptPubKey": {"reqSigs": 1, "hex": "a9148277b487b76464da67f2df41f764e0491ac2049387", "addresses": ["3DasAk8r8bcDzFoYF9guZq6J9bWH2y4wU8"], "asm": "OP_HASH160 8277b487b76464da67f2df41f764e0491ac20493 OP_EQUAL", "type": "scripthash"}, "value": 0.01510325, "n": 0}], "hex": "0100000001fd9efbb1e90ba9cab91c8fa6e53dfa58abb62ae4a9232b0b7162edb3a2ffed70010000006a47304402202d5135d00df597600297b648cf1fa8a467c48338761a64f8b920e7cb3d27106d02205228344dc701f519843feb9e1c90898adea6d0133c2fe7a16a6e3ac0c0532d640121035473ead068c8dc9025b50ea39cb33743cd74920dd57592a31a400ee144190a3affffffff01b50b17000000000017a9148277b487b76464da67f2df41f764e0491ac204938700000000", "vin": [{"sequence": 4294967295, "scriptSig": {"hex": "47304402202d5135d00df597600297b648cf1fa8a467c48338761a64f8b920e7cb3d27106d02205228344dc701f519843feb9e1c90898adea6d0133c2fe7a16a6e3ac0c0532d640121035473ead068c8dc9025b50ea39cb33743cd74920dd57592a31a400ee144190a3a", "asm": "304402202d5135d00df597600297b648cf1fa8a467c48338761a64f8b920e7cb3d27106d02205228344dc701f519843feb9e1c90898adea6d0133c2fe7a16a6e3ac0c0532d64[ALL] 035473ead068c8dc9025b50ea39cb33743cd74920dd57592a31a400ee144190a3a"}, "vout": 1, "txid": "70edffa2b3ed62710b2b23a9e42ab6ab58fa3de5a68f1cb9caa90be9b1fb9efd"}], "txid": "2efca23312016d298395616200482e9bba869f4b3d89b7b7d3e357265f84209c", "blocktime": 1537872475, "version": 1, "confirmations": 11486, "time": 1537872475, "locktime": 0, "vsize": 189, "size": 189}