{"hash": "2f04574598d5ffc42b3573c6a84e7a1d6760505dcc17890d51a92de16dc0e026", "blockhash": "0000000000000000001f76057863aec43deb6fa401d9628bb513d65a8098bfab", "vout": [{"scriptPubKey": {"reqSigs": 1, "hex": "a914b1d14ce653c5ae13aa763505f90fe7d5bbbb89ad87", "addresses": ["3HuEFwh2AxghY2zKeqF5k6viw84NXbUEmW"], "asm": "OP_HASH160 b1d14ce653c5ae13aa763505f90fe7d5bbbb89ad OP_EQUAL", "type": "scripthash"}, "value": 0.05322124, "n": 0}, {"scriptPubKey": {"reqSigs": 1, "hex": "76a9143c52876f7a9259621114620dfb85b1fff5759f1588ac", "addresses": ["16VxQjFHVqfQz1D6ZrdJf6c3qP8sPa1UT6"], "asm": "OP_DUP OP_HASH160 3c52876f7a9259621114620dfb85b1fff5759f15 OP_EQUALVERIFY OP_CHECKSIG", "type": "pubkeyhash"}, "value": 0.00806269, "n": 1}], "hex": "0200000006e9756e5a89789fc9927b7cbeeabd1e688be0fdf103aebc9630c8d4791e2dcc9f010000006b483045022100b088e180f0ccf38a27906abce074c3b9ce7955a63b8580ed30c88bde1845ebde0220535631e55b5599566f7b351ef03beb36ea185eb397cf393f13514fefe35e01c901210275587c52d9dfd8f429b6a5ed0c04f9f3190a700cb64f753f2c63c5ddf48575f0feffffff41bfbc78237d513c4ab325798e8772e8621ec5ce7e64bacc5ee110124d509675000000006a4730440220674d22c71e45e74995bc8969fe95ab59fa7af5dd4dca05d73d633a33ce8f013a0220540d265735952d10ccecee068e9310874ac4899859f4288568759d7752be7b7e0121029e7fa52de1dbd1d66f2bd1adb474e777bf6150afd88498bac17d7103f068197cfeffffff3512ab6fdb84ee648c72f3d3dabd9125959f43c79a2ba313044bc4d3a085823b010000006b4830450221008b249e8a9af00aab8a6cedb403555d749f78d75cce404a0f2537358437d4e4e702207c829fa26bab59a0ab79d5e7d57c195c8e8e25c53e46935bb0d5b295295416d7012103c377d3de55972b241f3ce15dd8af7866e4f02ca098bc25d353719d7b0097c2b9feffffff9cf871b112a31d0a677124a1bffa554a3febb99146a704bb11c1ce2700e460dc010000006b483045022100c5c4b10aaad710b9eeadda95d0825a290705e9a9f0f32a0ec7b9e71e02ca6aa8022070d60afdb385f4d2d0659e95f6970589e9bcca7848fb49416f8461c013fa8770012102881f828bd04b12374f1d3faa26357595e590d499a1217feda42904b745694b71feffffff6c17d742b7679f5fbc1c2c213255f41947a78055f954babe4e9fc2c10e783778010000006b483045022100cbc5837a3175ab9df2e24d17dc9d5b4b408cbc20ca6ed965277e287f1a17089e02200e408cd3dc1be9e5b5a1d7756545de130ebac98fb1b72763dc7fb43d72bed12f012103edc7e8c7373d49500b5e736dcc3a9777c47abee5de561363025e4a5fcb175cb8feffffffd337a32b4adcc10676b6cc0da02706bdf36dee934a0dd01d9c3aeffff484656b000000006b483045022100b502da135d08d912bf2dc75bb91b15c38028c1880456cf8f90e5a3639d223fdc02204c9ce08c0f6537276f5c0499386305080a1eb0be8630ddf035961061b6db40630121037fd646e07adcf8254e80f305640bd79ed54753d48e0498ef1c31db7b2269f48afeffffff028c3551000000000017a914b1d14ce653c5ae13aa763505f90fe7d5bbbb89ad877d4d0c00000000001976a9143c52876f7a9259621114620dfb85b1fff5759f1588aced480800", "vin": [{"sequence": 4294967294, "scriptSig": {"hex": "483045022100b088e180f0ccf38a27906abce074c3b9ce7955a63b8580ed30c88bde1845ebde0220535631e55b5599566f7b351ef03beb36ea185eb397cf393f13514fefe35e01c901210275587c52d9dfd8f429b6a5ed0c04f9f3190a700cb64f753f2c63c5ddf48575f0", "asm": "3045022100b088e180f0ccf38a27906abce074c3b9ce7955a63b8580ed30c88bde1845ebde0220535631e55b5599566f7b351ef03beb36ea185eb397cf393f13514fefe35e01c9[ALL] 0275587c52d9dfd8f429b6a5ed0c04f9f3190a700cb64f753f2c63c5ddf48575f0"}, "vout": 1, "txid": "9fcc2d1e79d4c83096bcae03f1fde08b681ebdeabe7c7b92c99f78895a6e75e9"}, {"sequence": 4294967294, "scriptSig": {"hex": "4730440220674d22c71e45e74995bc8969fe95ab59fa7af5dd4dca05d73d633a33ce8f013a0220540d265735952d10ccecee068e9310874ac4899859f4288568759d7752be7b7e0121029e7fa52de1dbd1d66f2bd1adb474e777bf6150afd88498bac17d7103f068197c", "asm": "30440220674d22c71e45e74995bc8969fe95ab59fa7af5dd4dca05d73d633a33ce8f013a0220540d265735952d10ccecee068e9310874ac4899859f4288568759d7752be7b7e[ALL] 029e7fa52de1dbd1d66f2bd1adb474e777bf6150afd88498bac17d7103f068197c"}, "vout": 0, "txid": "7596504d1210e15eccba647ecec51e62e872878e7925b34a3c517d2378bcbf41"}, {"sequence": 4294967294, "scriptSig": {"hex": "4830450221008b249e8a9af00aab8a6cedb403555d749f78d75cce404a0f2537358437d4e4e702207c829fa26bab59a0ab79d5e7d57c195c8e8e25c53e46935bb0d5b295295416d7012103c377d3de55972b241f3ce15dd8af7866e4f02ca098bc25d353719d7b0097c2b9", "asm": "30450221008b249e8a9af00aab8a6cedb403555d749f78d75cce404a0f2537358437d4e4e702207c829fa26bab59a0ab79d5e7d57c195c8e8e25c53e46935bb0d5b295295416d7[ALL] 03c377d3de55972b241f3ce15dd8af7866e4f02ca098bc25d353719d7b0097c2b9"}, "vout": 1, "txid": "3b8285a0d3c44b0413a32b9ac7439f952591bddad3f3728c64ee84db6fab1235"}, {"sequence": 4294967294, "scriptSig": {"hex": "483045022100c5c4b10aaad710b9eeadda95d0825a290705e9a9f0f32a0ec7b9e71e02ca6aa8022070d60afdb385f4d2d0659e95f6970589e9bcca7848fb49416f8461c013fa8770012102881f828bd04b12374f1d3faa26357595e590d499a1217feda42904b745694b71", "asm": "3045022100c5c4b10aaad710b9eeadda95d0825a290705e9a9f0f32a0ec7b9e71e02ca6aa8022070d60afdb385f4d2d0659e95f6970589e9bcca7848fb49416f8461c013fa8770[ALL] 02881f828bd04b12374f1d3faa26357595e590d499a1217feda42904b745694b71"}, "vout": 1, "txid": "dc60e40027cec111bb04a74691b9eb3f4a55fabfa12471670a1da312b171f89c"}, {"sequence": 4294967294, "scriptSig": {"hex": "483045022100cbc5837a3175ab9df2e24d17dc9d5b4b408cbc20ca6ed965277e287f1a17089e02200e408cd3dc1be9e5b5a1d7756545de130ebac98fb1b72763dc7fb43d72bed12f012103edc7e8c7373d49500b5e736dcc3a9777c47abee5de561363025e4a5fcb175cb8", "asm": "3045022100cbc5837a3175ab9df2e24d17dc9d5b4b408cbc20ca6ed965277e287f1a17089e02200e408cd3dc1be9e5b5a1d7756545de130ebac98fb1b72763dc7fb43d72bed12f[ALL] 03edc7e8c7373d49500b5e736dcc3a9777c47abee5de561363025e4a5fcb175cb8"}, "vout": 1, "txid": "7837780ec1c29f4ebeba54f95580a74719f45532212c1cbc5f9f67b742d7176c"}, {"sequence": 4294967294, "scriptSig": {"hex": "483045022100b502da135d08d912bf2dc75bb91b15c38028c1880456cf8f90e5a3639d223fdc02204c9ce08c0f6537276f5c0499386305080a1eb0be8630ddf035961061b6db40630121037fd646e07adcf8254e80f305640bd79ed54753d48e0498ef1c31db7b2269f48a", "asm": "3045022100b502da135d08d912bf2dc75bb91b15c38028c1880456cf8f90e5a3639d223fdc02204c9ce08c0f6537276f5c0499386305080a1eb0be8630ddf035961061b6db4063[ALL] 037fd646e07adcf8254e80f305640bd79ed54753d48e0498ef1c31db7b2269f48a"}, "vout": 0, "txid": "6b6584f4ffef3a9c1dd00d4a93ee6df3bd0627a00dccb67606c1dc4a2ba337d3"}], "txid": "2f04574598d5ffc42b3573c6a84e7a1d6760505dcc17890d51a92de16dc0e026", "blocktime": 1537873891, "version": 2, "confirmations": 11474, "time": 1537873891, "locktime": 542957, "vsize": 963, "size": 963}