{"hash": "2f0914f6fe080db7f32973d3c16ca6af8584adbc4b7cfdf92f5a408a09e9bfe1", "blockhash": "0000000000000000000baef3f32e3676a92c3b2e5da21b426e4f302fc371ce76", "vout": [{"scriptPubKey": {"reqSigs": 1, "hex": "a9145d9efff62bea7d1ebe42ce2d892fa5e388e3f27887", "addresses": ["3AE3EtQvZdYhamThmh4pvofkrK9uyR2haA"], "asm": "OP_HASH160 5d9efff62bea7d1ebe42ce2d892fa5e388e3f278 OP_EQUAL", "type": "scripthash"}, "value": 0.0029666, "n": 0}, {"scriptPubKey": {"reqSigs": 1, "hex": "76a9145031bc41a97a5d8ad35f652621fe27919c31dfaa88ac", "addresses": ["18K2e2DfBD3MRwHqRknqfXUpTD8RAo8V1W"], "asm": "OP_DUP OP_HASH160 5031bc41a97a5d8ad35f652621fe27919c31dfaa OP_EQUALVERIFY OP_CHECKSIG", "type": "pubkeyhash"}, "value": 0.05199632, "n": 1}], "hex": "0100000001c4f5f744502064e635c0db66dc251efd28cd368e110a41edd1c3941ccf53c437010000006a473044022056cc6d6d52179ba394df5f4f2789d6d460c6a86973847431ef6946c35c4e111e022005783950a95bb2f116849483d344c7ed6f0adf915361ea495caa8b2cb28333df012102e27d06956305319d29781c28504629ce599402d2e6aa5cc8e83467b01aaae665ffffffff02d48604000000000017a9145d9efff62bea7d1ebe42ce2d892fa5e388e3f2788710574f00000000001976a9145031bc41a97a5d8ad35f652621fe27919c31dfaa88ac00000000", "vin": [{"sequence": 4294967295, "scriptSig": {"hex": "473044022056cc6d6d52179ba394df5f4f2789d6d460c6a86973847431ef6946c35c4e111e022005783950a95bb2f116849483d344c7ed6f0adf915361ea495caa8b2cb28333df012102e27d06956305319d29781c28504629ce599402d2e6aa5cc8e83467b01aaae665", "asm": "3044022056cc6d6d52179ba394df5f4f2789d6d460c6a86973847431ef6946c35c4e111e022005783950a95bb2f116849483d344c7ed6f0adf915361ea495caa8b2cb28333df[ALL] 02e27d06956305319d29781c28504629ce599402d2e6aa5cc8e83467b01aaae665"}, "vout": 1, "txid": "37c453cf1c94c3d1ed410a118e36cd28fd1e25dc66dbc035e664205044f7f5c4"}], "txid": "2f0914f6fe080db7f32973d3c16ca6af8584adbc4b7cfdf92f5a408a09e9bfe1", "blocktime": 1537876114, "version": 1, "confirmations": 11460, "time": 1537876114, "locktime": 0, "vsize": 223, "size": 223}