{"hash": "2f0c16172991f07b91304913d84aa5afe0f9b3fb8c2993370d4c8aee1f9cba47", "blockhash": "0000000000000000000dcc0f55137456b1a82d3642486a52398922ac4d620174", "vout": [{"scriptPubKey": {"reqSigs": 1, "hex": "a914009b3a0aca2f2fbcb755703094465d32dd9aecb387", "addresses": ["31kDstLCjKYkDHxPGQamQaEtzUUgb4JuM9"], "asm": "OP_HASH160 009b3a0aca2f2fbcb755703094465d32dd9aecb3 OP_EQUAL", "type": "scripthash"}, "value": 0.021, "n": 0}, {"scriptPubKey": {"reqSigs": 1, "hex": "a91469f373de9f7124483d0860c4fe8409a791ba178687", "addresses": ["3BMEX52X5mVA6pL98P8ifBquzSvhv8Tym8"], "asm": "OP_HASH160 69f373de9f7124483d0860c4fe8409a791ba1786 OP_EQUAL", "type": "scripthash"}, "value": 0.25, "n": 1}, {"scriptPubKey": {"reqSigs": 1, "hex": "a91469f373dedf8f46cbd59ff290e019e939e789868c87", "addresses": ["3BMEX53QtihYAzmrfroxXRxobTXtwcFcVs"], "asm": "OP_HASH160 69f373dedf8f46cbd59ff290e019e939e789868c OP_EQUAL", "type": "scripthash"}, "value": 0.227, "n": 2}, {"scriptPubKey": {"reqSigs": 1, "hex": "a914463aeeb83ac841dc57e5f65db83db590b64a28b787", "addresses": ["386Mpg2VD4gxiGevq4zrVZqan53tTmpUoD"], "asm": "OP_HASH160 463aeeb83ac841dc57e5f65db83db590b64a28b7 OP_EQUAL", "type": "scripthash"}, "value": 1.823, "n": 3}, {"scriptPubKey": {"reqSigs": 1, "hex": "a9144001ae03198f6239a28149d156d368bfe48ceb0387", "addresses": ["37XTBXkGeDrpsLjRkWAYtuhX22gRJuVeHz"], "asm": "OP_HASH160 4001ae03198f6239a28149d156d368bfe48ceb03 OP_EQUAL", "type": "scripthash"}, "value": 0.2469945, "n": 4}], "hex": "010000000c0902849478e125d6a4c1bef2932eb75ce4a556d3383d8bf1b431ac642e5eaa0ff8000000fc00473044022019e6766edb43e2a505bcacc1b9e13e27213fca87d58671b99df274329338551502201bf361a3031c79456482fb8ab6fdbd0a373bd2b2e126301e1b6c0d47d0165da70147304402202f4897c2740537a140ab29c02ab5323a4befb2558fccda709c3502bd9b8c05ff0220027d6c30b016b97f734d310f254638842db4ca9a79c09d439826ac18ff959e57014c69522102a84b13e2325a41a673f20dbfca2030ed7b70a0fe0c474db7b2cd1cf52fd681f121025007950a46582c0f1b997a2ec04283029ae09cbfe48a3b2f0b790312ab4d99b2210279fd85d883844805a9c53e6ca0514f69948abcd6be6ef127282f15a90b63dbbf53aeffffffff9ed12308acc390eb5c390c36e6384e49cb71f33b4861efe3cb89286a29674aeed6000000fdfd0000483045022100be163194ec4de733d142559f94ec3312c439479ccca61d23862ec88563278cb0022006ab8c46091fd99fbdeb3786a27f4de3bdd63362aad4fe2d17b99cff6b1da971014730440220131ebb53ef4f7b15dc6f8cb10f268b02842cb5a03ce7039586c97c53f3dd12e502201e83ba6219b247c8e101cba970c54814554c8b5ba30c8b46b508d7813a00544c014c69522102fd1207c5685c151eaa6c08329a80185c442bbdcec23f3439da75775be754436c2103141c8b84786be1d2c047776c1e1d02dc8581f95cb062e3877a2c0825eefe26042102062a8837aad06f085a458a964547cc90e9d3fb94d54d85be66ffe86321552f8253aeffffffff44959a3f831551f8db6764f92a12daa2ba94cb07450ada889809449cd0058071b4010000fdfe0000483045022100a715181d41b2d1e9b9d0d8602d1e1c48e3015b1d001e62e1027a5e9a6db45e3d02201f61ef374e4d3d79b59a6a069d8206bd70fbe900b0a4b73ddb0ead5cc024fd7601483045022100f623b32532c6a249973f740102f2a389324bb8043de0cd11b9bc63600a764b4202204b05e460a0242c5097a677a71ec34f527c8abd5e1e1f7a4be2ef1201e2521324014c69522102a7a81291fd0605eca4780e4849ab2e5ec2006e61c092d3e8c577bfaedad4a85e2102f04e77cdd7e8272557f525958c4a9815369bfcdfddf5f935c6f90b6953354fe52103a8763c261ab07b8a39608d3fbdd4ff3a602a0db58b8a86d10155ac571f379a7c53aeffffffff15c52b13d6d20ab3ebbfa22ec4fecb7bff0e1aa1a6ae07e69d9f0fe72f339ae876050000fc00473044022017aa613435537aac80e4e2c18bc533acc6bc17b2b28a9fce8a5674131930002d022052cdeab2bf62032454429758f632b55fe5fbfe9277ca61f922744c445dd413750147304402200696465251dffaf55fd286afc305563b99256a639ed6891b84a022004b9dfb8302202940657c02a02675a524a9973e39aa115b9b2585ce96b33209fa49b61a8cefda014c69522102849b687252077ff94ef700dcb8ca0319b4143332f6cb1f0b916e2951ee76bed721029c2e0c4865c8ba81becd9f03ac951ed4b249b5f90549ed1f74f9a82501e7572421029bf56007da1302a8d3907a821126d5974ea788e5251de38d207b0c4d7f24a5a453aeffffffff9ed12308acc390eb5c390c36e6384e49cb71f33b4861efe3cb89286a29674aeee3000000fdfd0000473044022041e92eb6e2bf5fa12b15ba9c1345f29cd366f11b1c036c0b56e143f76d9f4ddd0220398242c06c207631002fa094d2f5d59895f686e8238aab97433d66e2afb83bc601483045022100cce225e8ed00feb7886c47303a3e97b4a04813e7b5b47c928d3bf3b75e0066a002204c07d0536d756eb55d96d77e65594252c86847300529734f17dedccc6d70b58e014c695221037586ee03942d1e8e0d81c0cf54bf5e183fcce51fb76ff369ce82bb9e385c1e77210265579ffc66fdeba6d7c5b85341c50c49bdafa5525228244c6dd425bbba2d3cfb21025c5e29bfe0fd4934404ec772571d0134680068a2319d1870b35b32f1c88287de53aeffffffffbb104991d205409de10d401905a19cbc71e9dad2278448f38e6054b92ad75bd200000000fdfd000047304402202bf365497facc51c6a348c4218ae9b11030b380e8a8ff761342d19edd60b60af0220242e9cf985134fa6aad3700594f96c1bd6555e6f3ce8cc0306ad8b093313196a01483045022100e3ea3db5824f3e4515b564cb877819cc7788491fdeb4505bf343a3102d203bd102204049c824cb47c840db2b0a87bd797951e1b95964f7e8028dc3949ab0d792788d014c6952210215637cef90030e68899e7b0b48ad63c7abb201fd269c4814cbff1746787c5ccb2102e27f3dffb4cdb9877896e41fb9d2fbc863b6db1bc5b93b1489c5e0d79e096db121037bf6382ce65f327def5332ec541364e0e6719ba7fb110d60be9cd3af42cb956953aeffffffff998fccadf9b4ceb163f9fde53a28c36ae6bd83956f7caec6b43b2a95b9bc3e0e01000000fdfd0000483045022100a987da825c135fe496def6925b76fd7faa21435e78224a5a237c0160a64c7db20220313f02c452ca93d4d3f2b118da4e2d15fda8d7ed00ffc1fa10da9e95416e83fb0147304402204e21cea26c826f3cc79294fc414be2d1e4b8b3c2cd5a3c90f99eacaa5ef179a502205faafdd6f6845fcee73bf9d0d5c4fae0c24cdd39700f3951df5779aca94d673e014c69522103a09123b803158d845b0f2b0bb5022d11def0f3f3fc4943001302a4d6b8b210b62102ed937a90effc3470580edae8f8ade2bf86a2bdbbb48148776fc1c2aec5c3d1712103a948093995b33fdb3b914dfa3ad3fdf874f09ab7c4b33086b9a762335646a1f753aeffffffffefb7b42648da586b39c5c269ae40dd29146abb4274a7e43e5997e8c0a751698000000000fdfd0000473044022025aa2cf674f63e4869a86f1f86614a95f4d61df4ac459ebcf8a6c1c8615ddfb402200d9551cc17fd92604045782d861c09dfada13e75e5445a7225fcdf85a6b4710c01483045022100b52f2e472343b6da46726b6c7f037230bb921626a376780c39f2f378d062dcaa02201b3edea6b649781e06fb9423c46749f71a22e4630c8999c5edd7956fe578e453014c6952210249dd8752af4a4e9b6bdd4d5aca8e23d70893b9c225ace7fd3170358da8c4f8162103f3b6e42290a637a29c6ad44ff210d78c08e74bb382d496b8c2331f2c85dcde6f210398233b7d6c6d723c5310db13e812d42565e1fe7a39df86c486069ee9a636223e53aeffffffff2cc0b28b8f68fd8c425dbbd64be4897539a491256c2a55db632c8a8b788d014a00000000fc0047304402202933539f95ffa35fe7c292c3b861a2c6235c7c4fc8933afab210cc05358a80a40220180f2276a9183e6dbc57c3fccae0db62f9f3ad4a8f057bd92a3bb883b2e753dc0147304402205628057c534cd18fcd968eeff0eaa0e2b6633dfa27aac11b62c0b41181b83293022007f132f0e62a9a9526615e03a247b03ea162db88a159c9bfff05b451c378c5d1014c69522102f52ced1e93be7fb565c8920a7edddac686f972461422c021d6802d72eabdf8a521027be1a10fc460555a4eecb7451cdde89ef671cbf861a1ae43021a8b7680e491ea21038ed955de6e5d3fcf4dbdef81c6f8f03224123d4649df53d3d3bf34bcfdd5a50953aeffffffff0c349b9f46ef0d00b9a8ca2b40185f1b56e9c8e9708acd8735ae05f2220c20fc01000000fdfe0000483045022100b866b03131ac3cfb63981e690aedeb6b9bf9de4c31e3868c5997d102fe5b29a20220691923e8d3f200874f328e88f2ed01847982a9046c29dd98ff27aff36b6731ea014830450221009108cdc2c624de9f884fccbb6ffdf636671867dc784f0150a8694242ef1e8430022041e2b8e32a0e596b7be3db0edfe57d255268fc9b3b8990dd0db9110fc50f0e23014c69522102f52ced1e93be7fb565c8920a7edddac686f972461422c021d6802d72eabdf8a521027be1a10fc460555a4eecb7451cdde89ef671cbf861a1ae43021a8b7680e491ea21038ed955de6e5d3fcf4dbdef81c6f8f03224123d4649df53d3d3bf34bcfdd5a50953aeffffffff078074e926f02bc7cbe08d2292278c9ef91e97e6bb4a243dcffe9ea881664b3c34000000fc00473044022009190acd7bb58210e26f149531c79c282719eb97d8d892375800366736b8803902207a446aeb3354cd2d564bfd82bf3c11f06f2fdd443a333bc1eead7ea0bab41324014730440220032c7e20af2c30fd3e4a56e3e774a954f5294a4c2eb3571ea95520079a76918a0220735b7462a0e34f5012b4811af0def73177f0c024aef5f60951ce74273a15c922014c695221038fee8279162d6792c69ce57fadadc77bd3530dd127ccb90d535cff1ee20f7f212103dfb75f78b1181da14e7085eca09f721a7f07aec6445626713995073e9b674d3a210230984798483ac5e195ef50f9ae55f8482ac4e80786ffc134836a8270a9e7df8853aeffffffffe522e1d896e179c9e13a8f59684f3848c7c5c96383520b362bb43cc356e22a320e000000fc0047304402206773eafd0d6d7835c61e95d26b2214f9d86b1b02b704878dee39e8c1d745ff8c02203cee0792e747e8e575522f722ca89bf627b1850ca206edd1edac051ce19ed95001473044022026fcc544133b1840d3de2e653b2b46e0c2f0d1da3f0dbe9afd56ac105975e011022059fff0d9dacd74bf742228cf620ef3237700bc07d98554e3b34181e315fa1e11014c695221024f7004e40f7e59f18abab02064fa9abfafc6e4059d365f36f32427473039fff221038a14bda4cbc5b7e28f98561799d6a8fef4beb12fd529718e3da119d7c854102021025e7bbb3586e1e5f5d1d4da95959ed0c53bd41d40eb166b54d4111b399caa1edd53aeffffffff05200b20000000000017a914009b3a0aca2f2fbcb755703094465d32dd9aecb38740787d010000000017a91469f373de9f7124483d0860c4fe8409a791ba178687e05f5a010000000017a91469f373dedf8f46cbd59ff290e019e939e789868c8760addd0a0000000017a914463aeeb83ac841dc57e5f65db83db590b64a28b7873ae278010000000017a9144001ae03198f6239a28149d156d368bfe48ceb038700000000", "vin": [{"sequence": 4294967295, "scriptSig": {"hex": "00473044022019e6766edb43e2a505bcacc1b9e13e27213fca87d58671b99df274329338551502201bf361a3031c79456482fb8ab6fdbd0a373bd2b2e126301e1b6c0d47d0165da70147304402202f4897c2740537a140ab29c02ab5323a4befb2558fccda709c3502bd9b8c05ff0220027d6c30b016b97f734d310f254638842db4ca9a79c09d439826ac18ff959e57014c69522102a84b13e2325a41a673f20dbfca2030ed7b70a0fe0c474db7b2cd1cf52fd681f121025007950a46582c0f1b997a2ec04283029ae09cbfe48a3b2f0b790312ab4d99b2210279fd85d883844805a9c53e6ca0514f69948abcd6be6ef127282f15a90b63dbbf53ae", "asm": "0 3044022019e6766edb43e2a505bcacc1b9e13e27213fca87d58671b99df274329338551502201bf361a3031c79456482fb8ab6fdbd0a373bd2b2e126301e1b6c0d47d0165da7[ALL] 304402202f4897c2740537a140ab29c02ab5323a4befb2558fccda709c3502bd9b8c05ff0220027d6c30b016b97f734d310f254638842db4ca9a79c09d439826ac18ff959e57[ALL] 522102a84b13e2325a41a673f20dbfca2030ed7b70a0fe0c474db7b2cd1cf52fd681f121025007950a46582c0f1b997a2ec04283029ae09cbfe48a3b2f0b790312ab4d99b2210279fd85d883844805a9c53e6ca0514f69948abcd6be6ef127282f15a90b63dbbf53ae"}, "vout": 248, "txid": "0faa5e2e64ac31b4f18b3d38d356a5e45cb72e93f2bec1a4d625e17894840209"}, {"sequence": 4294967295, "scriptSig": {"hex": "00483045022100be163194ec4de733d142559f94ec3312c439479ccca61d23862ec88563278cb0022006ab8c46091fd99fbdeb3786a27f4de3bdd63362aad4fe2d17b99cff6b1da971014730440220131ebb53ef4f7b15dc6f8cb10f268b02842cb5a03ce7039586c97c53f3dd12e502201e83ba6219b247c8e101cba970c54814554c8b5ba30c8b46b508d7813a00544c014c69522102fd1207c5685c151eaa6c08329a80185c442bbdcec23f3439da75775be754436c2103141c8b84786be1d2c047776c1e1d02dc8581f95cb062e3877a2c0825eefe26042102062a8837aad06f085a458a964547cc90e9d3fb94d54d85be66ffe86321552f8253ae", "asm": "0 3045022100be163194ec4de733d142559f94ec3312c439479ccca61d23862ec88563278cb0022006ab8c46091fd99fbdeb3786a27f4de3bdd63362aad4fe2d17b99cff6b1da971[ALL] 30440220131ebb53ef4f7b15dc6f8cb10f268b02842cb5a03ce7039586c97c53f3dd12e502201e83ba6219b247c8e101cba970c54814554c8b5ba30c8b46b508d7813a00544c[ALL] 522102fd1207c5685c151eaa6c08329a80185c442bbdcec23f3439da75775be754436c2103141c8b84786be1d2c047776c1e1d02dc8581f95cb062e3877a2c0825eefe26042102062a8837aad06f085a458a964547cc90e9d3fb94d54d85be66ffe86321552f8253ae"}, "vout": 214, "txid": "ee4a67296a2889cbe3ef61483bf371cb494e38e6360c395ceb90c3ac0823d19e"}, {"sequence": 4294967295, "scriptSig": {"hex": "00483045022100a715181d41b2d1e9b9d0d8602d1e1c48e3015b1d001e62e1027a5e9a6db45e3d02201f61ef374e4d3d79b59a6a069d8206bd70fbe900b0a4b73ddb0ead5cc024fd7601483045022100f623b32532c6a249973f740102f2a389324bb8043de0cd11b9bc63600a764b4202204b05e460a0242c5097a677a71ec34f527c8abd5e1e1f7a4be2ef1201e2521324014c69522102a7a81291fd0605eca4780e4849ab2e5ec2006e61c092d3e8c577bfaedad4a85e2102f04e77cdd7e8272557f525958c4a9815369bfcdfddf5f935c6f90b6953354fe52103a8763c261ab07b8a39608d3fbdd4ff3a602a0db58b8a86d10155ac571f379a7c53ae", "asm": "0 3045022100a715181d41b2d1e9b9d0d8602d1e1c48e3015b1d001e62e1027a5e9a6db45e3d02201f61ef374e4d3d79b59a6a069d8206bd70fbe900b0a4b73ddb0ead5cc024fd76[ALL] 3045022100f623b32532c6a249973f740102f2a389324bb8043de0cd11b9bc63600a764b4202204b05e460a0242c5097a677a71ec34f527c8abd5e1e1f7a4be2ef1201e2521324[ALL] 522102a7a81291fd0605eca4780e4849ab2e5ec2006e61c092d3e8c577bfaedad4a85e2102f04e77cdd7e8272557f525958c4a9815369bfcdfddf5f935c6f90b6953354fe52103a8763c261ab07b8a39608d3fbdd4ff3a602a0db58b8a86d10155ac571f379a7c53ae"}, "vout": 436, "txid": "718005d09c44099888da0a4507cb94baa2da122af96467dbf85115833f9a9544"}, {"sequence": 4294967295, "scriptSig": {"hex": "00473044022017aa613435537aac80e4e2c18bc533acc6bc17b2b28a9fce8a5674131930002d022052cdeab2bf62032454429758f632b55fe5fbfe9277ca61f922744c445dd413750147304402200696465251dffaf55fd286afc305563b99256a639ed6891b84a022004b9dfb8302202940657c02a02675a524a9973e39aa115b9b2585ce96b33209fa49b61a8cefda014c69522102849b687252077ff94ef700dcb8ca0319b4143332f6cb1f0b916e2951ee76bed721029c2e0c4865c8ba81becd9f03ac951ed4b249b5f90549ed1f74f9a82501e7572421029bf56007da1302a8d3907a821126d5974ea788e5251de38d207b0c4d7f24a5a453ae", "asm": "0 3044022017aa613435537aac80e4e2c18bc533acc6bc17b2b28a9fce8a5674131930002d022052cdeab2bf62032454429758f632b55fe5fbfe9277ca61f922744c445dd41375[ALL] 304402200696465251dffaf55fd286afc305563b99256a639ed6891b84a022004b9dfb8302202940657c02a02675a524a9973e39aa115b9b2585ce96b33209fa49b61a8cefda[ALL] 522102849b687252077ff94ef700dcb8ca0319b4143332f6cb1f0b916e2951ee76bed721029c2e0c4865c8ba81becd9f03ac951ed4b249b5f90549ed1f74f9a82501e7572421029bf56007da1302a8d3907a821126d5974ea788e5251de38d207b0c4d7f24a5a453ae"}, "vout": 1398, "txid": "e89a332fe70f9f9de607aea6a11a0eff7bcbfec42ea2bfebb30ad2d6132bc515"}, {"sequence": 4294967295, "scriptSig": {"hex": "00473044022041e92eb6e2bf5fa12b15ba9c1345f29cd366f11b1c036c0b56e143f76d9f4ddd0220398242c06c207631002fa094d2f5d59895f686e8238aab97433d66e2afb83bc601483045022100cce225e8ed00feb7886c47303a3e97b4a04813e7b5b47c928d3bf3b75e0066a002204c07d0536d756eb55d96d77e65594252c86847300529734f17dedccc6d70b58e014c695221037586ee03942d1e8e0d81c0cf54bf5e183fcce51fb76ff369ce82bb9e385c1e77210265579ffc66fdeba6d7c5b85341c50c49bdafa5525228244c6dd425bbba2d3cfb21025c5e29bfe0fd4934404ec772571d0134680068a2319d1870b35b32f1c88287de53ae", "asm": "0 3044022041e92eb6e2bf5fa12b15ba9c1345f29cd366f11b1c036c0b56e143f76d9f4ddd0220398242c06c207631002fa094d2f5d59895f686e8238aab97433d66e2afb83bc6[ALL] 3045022100cce225e8ed00feb7886c47303a3e97b4a04813e7b5b47c928d3bf3b75e0066a002204c07d0536d756eb55d96d77e65594252c86847300529734f17dedccc6d70b58e[ALL] 5221037586ee03942d1e8e0d81c0cf54bf5e183fcce51fb76ff369ce82bb9e385c1e77210265579ffc66fdeba6d7c5b85341c50c49bdafa5525228244c6dd425bbba2d3cfb21025c5e29bfe0fd4934404ec772571d0134680068a2319d1870b35b32f1c88287de53ae"}, "vout": 227, "txid": "ee4a67296a2889cbe3ef61483bf371cb494e38e6360c395ceb90c3ac0823d19e"}, {"sequence": 4294967295, "scriptSig": {"hex": "0047304402202bf365497facc51c6a348c4218ae9b11030b380e8a8ff761342d19edd60b60af0220242e9cf985134fa6aad3700594f96c1bd6555e6f3ce8cc0306ad8b093313196a01483045022100e3ea3db5824f3e4515b564cb877819cc7788491fdeb4505bf343a3102d203bd102204049c824cb47c840db2b0a87bd797951e1b95964f7e8028dc3949ab0d792788d014c6952210215637cef90030e68899e7b0b48ad63c7abb201fd269c4814cbff1746787c5ccb2102e27f3dffb4cdb9877896e41fb9d2fbc863b6db1bc5b93b1489c5e0d79e096db121037bf6382ce65f327def5332ec541364e0e6719ba7fb110d60be9cd3af42cb956953ae", "asm": "0 304402202bf365497facc51c6a348c4218ae9b11030b380e8a8ff761342d19edd60b60af0220242e9cf985134fa6aad3700594f96c1bd6555e6f3ce8cc0306ad8b093313196a[ALL] 3045022100e3ea3db5824f3e4515b564cb877819cc7788491fdeb4505bf343a3102d203bd102204049c824cb47c840db2b0a87bd797951e1b95964f7e8028dc3949ab0d792788d[ALL] 52210215637cef90030e68899e7b0b48ad63c7abb201fd269c4814cbff1746787c5ccb2102e27f3dffb4cdb9877896e41fb9d2fbc863b6db1bc5b93b1489c5e0d79e096db121037bf6382ce65f327def5332ec541364e0e6719ba7fb110d60be9cd3af42cb956953ae"}, "vout": 0, "txid": "d25bd72ab954608ef3488427d2dae971bc9ca10519400de19d4005d2914910bb"}, {"sequence": 4294967295, "scriptSig": {"hex": "00483045022100a987da825c135fe496def6925b76fd7faa21435e78224a5a237c0160a64c7db20220313f02c452ca93d4d3f2b118da4e2d15fda8d7ed00ffc1fa10da9e95416e83fb0147304402204e21cea26c826f3cc79294fc414be2d1e4b8b3c2cd5a3c90f99eacaa5ef179a502205faafdd6f6845fcee73bf9d0d5c4fae0c24cdd39700f3951df5779aca94d673e014c69522103a09123b803158d845b0f2b0bb5022d11def0f3f3fc4943001302a4d6b8b210b62102ed937a90effc3470580edae8f8ade2bf86a2bdbbb48148776fc1c2aec5c3d1712103a948093995b33fdb3b914dfa3ad3fdf874f09ab7c4b33086b9a762335646a1f753ae", "asm": "0 3045022100a987da825c135fe496def6925b76fd7faa21435e78224a5a237c0160a64c7db20220313f02c452ca93d4d3f2b118da4e2d15fda8d7ed00ffc1fa10da9e95416e83fb[ALL] 304402204e21cea26c826f3cc79294fc414be2d1e4b8b3c2cd5a3c90f99eacaa5ef179a502205faafdd6f6845fcee73bf9d0d5c4fae0c24cdd39700f3951df5779aca94d673e[ALL] 522103a09123b803158d845b0f2b0bb5022d11def0f3f3fc4943001302a4d6b8b210b62102ed937a90effc3470580edae8f8ade2bf86a2bdbbb48148776fc1c2aec5c3d1712103a948093995b33fdb3b914dfa3ad3fdf874f09ab7c4b33086b9a762335646a1f753ae"}, "vout": 1, "txid": "0e3ebcb9952a3bb4c6ae7c6f9583bde66ac3283ae5fdf963b1ceb4f9adcc8f99"}, {"sequence": 4294967295, "scriptSig": {"hex": "00473044022025aa2cf674f63e4869a86f1f86614a95f4d61df4ac459ebcf8a6c1c8615ddfb402200d9551cc17fd92604045782d861c09dfada13e75e5445a7225fcdf85a6b4710c01483045022100b52f2e472343b6da46726b6c7f037230bb921626a376780c39f2f378d062dcaa02201b3edea6b649781e06fb9423c46749f71a22e4630c8999c5edd7956fe578e453014c6952210249dd8752af4a4e9b6bdd4d5aca8e23d70893b9c225ace7fd3170358da8c4f8162103f3b6e42290a637a29c6ad44ff210d78c08e74bb382d496b8c2331f2c85dcde6f210398233b7d6c6d723c5310db13e812d42565e1fe7a39df86c486069ee9a636223e53ae", "asm": "0 3044022025aa2cf674f63e4869a86f1f86614a95f4d61df4ac459ebcf8a6c1c8615ddfb402200d9551cc17fd92604045782d861c09dfada13e75e5445a7225fcdf85a6b4710c[ALL] 3045022100b52f2e472343b6da46726b6c7f037230bb921626a376780c39f2f378d062dcaa02201b3edea6b649781e06fb9423c46749f71a22e4630c8999c5edd7956fe578e453[ALL] 52210249dd8752af4a4e9b6bdd4d5aca8e23d70893b9c225ace7fd3170358da8c4f8162103f3b6e42290a637a29c6ad44ff210d78c08e74bb382d496b8c2331f2c85dcde6f210398233b7d6c6d723c5310db13e812d42565e1fe7a39df86c486069ee9a636223e53ae"}, "vout": 0, "txid": "806951a7c0e897593ee4a77442bb6a1429dd40ae69c2c5396b58da4826b4b7ef"}, {"sequence": 4294967295, "scriptSig": {"hex": "0047304402202933539f95ffa35fe7c292c3b861a2c6235c7c4fc8933afab210cc05358a80a40220180f2276a9183e6dbc57c3fccae0db62f9f3ad4a8f057bd92a3bb883b2e753dc0147304402205628057c534cd18fcd968eeff0eaa0e2b6633dfa27aac11b62c0b41181b83293022007f132f0e62a9a9526615e03a247b03ea162db88a159c9bfff05b451c378c5d1014c69522102f52ced1e93be7fb565c8920a7edddac686f972461422c021d6802d72eabdf8a521027be1a10fc460555a4eecb7451cdde89ef671cbf861a1ae43021a8b7680e491ea21038ed955de6e5d3fcf4dbdef81c6f8f03224123d4649df53d3d3bf34bcfdd5a50953ae", "asm": "0 304402202933539f95ffa35fe7c292c3b861a2c6235c7c4fc8933afab210cc05358a80a40220180f2276a9183e6dbc57c3fccae0db62f9f3ad4a8f057bd92a3bb883b2e753dc[ALL] 304402205628057c534cd18fcd968eeff0eaa0e2b6633dfa27aac11b62c0b41181b83293022007f132f0e62a9a9526615e03a247b03ea162db88a159c9bfff05b451c378c5d1[ALL] 522102f52ced1e93be7fb565c8920a7edddac686f972461422c021d6802d72eabdf8a521027be1a10fc460555a4eecb7451cdde89ef671cbf861a1ae43021a8b7680e491ea21038ed955de6e5d3fcf4dbdef81c6f8f03224123d4649df53d3d3bf34bcfdd5a50953ae"}, "vout": 0, "txid": "4a018d788b8a2c63db552a6c2591a4397589e44bd6bb5d428cfd688f8bb2c02c"}, {"sequence": 4294967295, "scriptSig": {"hex": "00483045022100b866b03131ac3cfb63981e690aedeb6b9bf9de4c31e3868c5997d102fe5b29a20220691923e8d3f200874f328e88f2ed01847982a9046c29dd98ff27aff36b6731ea014830450221009108cdc2c624de9f884fccbb6ffdf636671867dc784f0150a8694242ef1e8430022041e2b8e32a0e596b7be3db0edfe57d255268fc9b3b8990dd0db9110fc50f0e23014c69522102f52ced1e93be7fb565c8920a7edddac686f972461422c021d6802d72eabdf8a521027be1a10fc460555a4eecb7451cdde89ef671cbf861a1ae43021a8b7680e491ea21038ed955de6e5d3fcf4dbdef81c6f8f03224123d4649df53d3d3bf34bcfdd5a50953ae", "asm": "0 3045022100b866b03131ac3cfb63981e690aedeb6b9bf9de4c31e3868c5997d102fe5b29a20220691923e8d3f200874f328e88f2ed01847982a9046c29dd98ff27aff36b6731ea[ALL] 30450221009108cdc2c624de9f884fccbb6ffdf636671867dc784f0150a8694242ef1e8430022041e2b8e32a0e596b7be3db0edfe57d255268fc9b3b8990dd0db9110fc50f0e23[ALL] 522102f52ced1e93be7fb565c8920a7edddac686f972461422c021d6802d72eabdf8a521027be1a10fc460555a4eecb7451cdde89ef671cbf861a1ae43021a8b7680e491ea21038ed955de6e5d3fcf4dbdef81c6f8f03224123d4649df53d3d3bf34bcfdd5a50953ae"}, "vout": 1, "txid": "fc200c22f205ae3587cd8a70e9c8e9561b5f18402bcaa8b9000def469f9b340c"}, {"sequence": 4294967295, "scriptSig": {"hex": "00473044022009190acd7bb58210e26f149531c79c282719eb97d8d892375800366736b8803902207a446aeb3354cd2d564bfd82bf3c11f06f2fdd443a333bc1eead7ea0bab41324014730440220032c7e20af2c30fd3e4a56e3e774a954f5294a4c2eb3571ea95520079a76918a0220735b7462a0e34f5012b4811af0def73177f0c024aef5f60951ce74273a15c922014c695221038fee8279162d6792c69ce57fadadc77bd3530dd127ccb90d535cff1ee20f7f212103dfb75f78b1181da14e7085eca09f721a7f07aec6445626713995073e9b674d3a210230984798483ac5e195ef50f9ae55f8482ac4e80786ffc134836a8270a9e7df8853ae", "asm": "0 3044022009190acd7bb58210e26f149531c79c282719eb97d8d892375800366736b8803902207a446aeb3354cd2d564bfd82bf3c11f06f2fdd443a333bc1eead7ea0bab41324[ALL] 30440220032c7e20af2c30fd3e4a56e3e774a954f5294a4c2eb3571ea95520079a76918a0220735b7462a0e34f5012b4811af0def73177f0c024aef5f60951ce74273a15c922[ALL] 5221038fee8279162d6792c69ce57fadadc77bd3530dd127ccb90d535cff1ee20f7f212103dfb75f78b1181da14e7085eca09f721a7f07aec6445626713995073e9b674d3a210230984798483ac5e195ef50f9ae55f8482ac4e80786ffc134836a8270a9e7df8853ae"}, "vout": 52, "txid": "3c4b6681a89efecf3d244abbe6971ef99e8c2792228de0cbc72bf026e9748007"}, {"sequence": 4294967295, "scriptSig": {"hex": "0047304402206773eafd0d6d7835c61e95d26b2214f9d86b1b02b704878dee39e8c1d745ff8c02203cee0792e747e8e575522f722ca89bf627b1850ca206edd1edac051ce19ed95001473044022026fcc544133b1840d3de2e653b2b46e0c2f0d1da3f0dbe9afd56ac105975e011022059fff0d9dacd74bf742228cf620ef3237700bc07d98554e3b34181e315fa1e11014c695221024f7004e40f7e59f18abab02064fa9abfafc6e4059d365f36f32427473039fff221038a14bda4cbc5b7e28f98561799d6a8fef4beb12fd529718e3da119d7c854102021025e7bbb3586e1e5f5d1d4da95959ed0c53bd41d40eb166b54d4111b399caa1edd53ae", "asm": "0 304402206773eafd0d6d7835c61e95d26b2214f9d86b1b02b704878dee39e8c1d745ff8c02203cee0792e747e8e575522f722ca89bf627b1850ca206edd1edac051ce19ed950[ALL] 3044022026fcc544133b1840d3de2e653b2b46e0c2f0d1da3f0dbe9afd56ac105975e011022059fff0d9dacd74bf742228cf620ef3237700bc07d98554e3b34181e315fa1e11[ALL] 5221024f7004e40f7e59f18abab02064fa9abfafc6e4059d365f36f32427473039fff221038a14bda4cbc5b7e28f98561799d6a8fef4beb12fd529718e3da119d7c854102021025e7bbb3586e1e5f5d1d4da95959ed0c53bd41d40eb166b54d4111b399caa1edd53ae"}, "vout": 14, "txid": "322ae256c33cb42b360b528363c9c5c748384f68598f3ae1c979e196d8e122e5"}], "txid": "2f0c16172991f07b91304913d84aa5afe0f9b3fb8c2993370d4c8aee1f9cba47", "blocktime": 1537870268, "version": 1, "confirmations": 11516, "time": 1537870268, "locktime": 0, "vsize": 3709, "size": 3709}