{"hash": "2f0e7ebd13c24581a02fe8455adad8d8ddb691191f6398cbfd1f06d8d82d7d17", "blockhash": "0000000000000000000dcc0f55137456b1a82d3642486a52398922ac4d620174", "vout": [{"scriptPubKey": {"type": "nulldata", "hex": "6a4c500000776c0001ab806348ac0458a304e2218a86aeaeacb577c031fc3a016b46dc7dc7d096c53662e1a68b38bd2bb20a9e62968ad45baa0878061399fb5ed936abbc9a9526289ac0f6612cd74e33776ee4", "asm": "OP_RETURN 0000776c0001ab806348ac0458a304e2218a86aeaeacb577c031fc3a016b46dc7dc7d096c53662e1a68b38bd2bb20a9e62968ad45baa0878061399fb5ed936abbc9a9526289ac0f6612cd74e33776ee4"}, "value": 0.0, "n": 0}, {"scriptPubKey": {"reqSigs": 1, "hex": "76a914dcc0a62adff8fcc405282f8f14192a473e16658488ac", "addresses": ["1M8EShPBRS9bxwfDUytHpknAvNRNdQHNJv"], "asm": "OP_DUP OP_HASH160 dcc0a62adff8fcc405282f8f14192a473e166584 OP_EQUALVERIFY OP_CHECKSIG", "type": "pubkeyhash"}, "value": 0.01422544, "n": 1}], "hex": "0100000001b7c2e704f0ca2f136dc9f7e65122e0acc9281d9884142f37e8b415fdb64202ca000000006b48304502210092076b8eec097241a4e94bd64de1a05e7c94f99bc3c229f11692e755798c8a11022060cfa580c858a4b68baedf54b23df08557e2dac954c06d9375e965a814c801080121031c7ff640127b6b6d7acd03f50be7dca5720125985699aa3cbef97e2eea82c822ffffffff020000000000000000536a4c500000776c0001ab806348ac0458a304e2218a86aeaeacb577c031fc3a016b46dc7dc7d096c53662e1a68b38bd2bb20a9e62968ad45baa0878061399fb5ed936abbc9a9526289ac0f6612cd74e33776ee4d0b41500000000001976a914dcc0a62adff8fcc405282f8f14192a473e16658488ac00000000", "vin": [{"sequence": 4294967295, "scriptSig": {"hex": "48304502210092076b8eec097241a4e94bd64de1a05e7c94f99bc3c229f11692e755798c8a11022060cfa580c858a4b68baedf54b23df08557e2dac954c06d9375e965a814c801080121031c7ff640127b6b6d7acd03f50be7dca5720125985699aa3cbef97e2eea82c822", "asm": "304502210092076b8eec097241a4e94bd64de1a05e7c94f99bc3c229f11692e755798c8a11022060cfa580c858a4b68baedf54b23df08557e2dac954c06d9375e965a814c80108[ALL] 031c7ff640127b6b6d7acd03f50be7dca5720125985699aa3cbef97e2eea82c822"}, "vout": 0, "txid": "ca0242b6fd15b4e8372f1484981d28c9ace02251e6f7c96d132fcaf004e7c2b7"}], "txid": "2f0e7ebd13c24581a02fe8455adad8d8ddb691191f6398cbfd1f06d8d82d7d17", "blocktime": 1537870268, "version": 1, "confirmations": 11518, "time": 1537870268, "locktime": 0, "vsize": 284, "size": 284}