{"hash": "0cd7b5dc11a541f2c51bb2a280c973d1f9ed063208a8c7035d4a3d9d9165bc43", "blockhash": "0000000000000000000e13cef7c366c0283d82e591d1acd082e914b08063cdf1", "vout": [{"scriptPubKey": {"reqSigs": 1, "hex": "a9142c93099d2f7d142c3d324cbce92e306882083eeb87", "addresses": ["35khoLFT4dUKV3mhKxh1vmu2bXzAZ86dZY"], "asm": "OP_HASH160 2c93099d2f7d142c3d324cbce92e306882083eeb OP_EQUAL", "type": "scripthash"}, "value": 0.01047691, "n": 0}, {"scriptPubKey": {"reqSigs": 1, "hex": "76a914f9db4ff3e771f15bbcf6a5df98e185f53e6ee36388ac", "addresses": ["1Pn7yrT7yes2SfcWC5m7AMYQDNeU9njfnA"], "asm": "OP_DUP OP_HASH160 f9db4ff3e771f15bbcf6a5df98e185f53e6ee363 OP_EQUALVERIFY OP_CHECKSIG", "type": "pubkeyhash"}, "value": 0.006, "n": 1}], "hex": "02000000000102309f9cc977fc89dfa3ee0be7a9218415e406d058c3277f1a91adfba05a9357f49900000017160014d2f966abd248607b7682410aff16c5d874b86a47feffffff5e5956f16cb616404e0b70650f6c1092fd95c22f3640e3625bf8330b702b9d1401000000171600140baca6ee07f909f05829e368662aedd72272a9c4feffffff028bfc0f000000000017a9142c93099d2f7d142c3d324cbce92e306882083eeb87c0270900000000001976a914f9db4ff3e771f15bbcf6a5df98e185f53e6ee36388ac02483045022100a965231577e2054337465ca9dcedc38e402069b5d985f837e9b29a1c95e2ed84022033868087d41aff2d33cf4540241aa1faec199ea3bd393d222e55ffe049ea0f4101210355dfae51433a134b4f45a0acd5a123f8e1cd6164aa033e6b1e6f929a22070cf00247304402204f98bc0fca7669d33c5f574badd8769c55acf3f869c6ea9f04983943e5a836fd022027a6ab4e7766cbfe93c7afd9e5b083d1abbe8ce4c09681fba2fe7e5aa4de52f60121032cb6420feec2b47915354cc1b84ea6647a328059892e4107e91dd99baedac1a50f490800", "vin": [{"txinwitness": ["3045022100a965231577e2054337465ca9dcedc38e402069b5d985f837e9b29a1c95e2ed84022033868087d41aff2d33cf4540241aa1faec199ea3bd393d222e55ffe049ea0f4101", "0355dfae51433a134b4f45a0acd5a123f8e1cd6164aa033e6b1e6f929a22070cf0"], "sequence": 4294967294, "scriptSig": {"hex": "160014d2f966abd248607b7682410aff16c5d874b86a47", "asm": "0014d2f966abd248607b7682410aff16c5d874b86a47"}, "vout": 153, "txid": "f457935aa0fbad911a7f27c358d006e4158421a9e70beea3df89fc77c99c9f30"}, {"txinwitness": ["304402204f98bc0fca7669d33c5f574badd8769c55acf3f869c6ea9f04983943e5a836fd022027a6ab4e7766cbfe93c7afd9e5b083d1abbe8ce4c09681fba2fe7e5aa4de52f601", "032cb6420feec2b47915354cc1b84ea6647a328059892e4107e91dd99baedac1a5"], "sequence": 4294967294, "scriptSig": {"hex": "1600140baca6ee07f909f05829e368662aedd72272a9c4", "asm": "00140baca6ee07f909f05829e368662aedd72272a9c4"}, "vout": 1, "txid": "149d2b700b33f85b62e340362fc295fd92106c0f65700b4e4016b66cf156595e"}], "txid": "2f0f5661921257b60c0a298cf07c67e76a96a8baf5115080fede51c5397e0b24", "blocktime": 1537871767, "version": 2, "confirmations": 11495, "time": 1537871767, "locktime": 542991, "vsize": 259, "size": 421}