{"hash": "2f10e0a2b3c8fbd7b2c8bd537aeb69882391e866d587b6e3a51f13cd6a824ec8", "blockhash": "0000000000000000001cda96e906b7601b7a6fb1a3b62bca570a9e5d8f4b3de1", "vout": [{"scriptPubKey": {"reqSigs": 1, "hex": "76a914664c01f76c08b89154a27b67ed072f933aef38ff88ac", "addresses": ["1AKtyg2zNTb2ZyCiL9zkoNvy9qpdZWZwVK"], "asm": "OP_DUP OP_HASH160 664c01f76c08b89154a27b67ed072f933aef38ff OP_EQUALVERIFY OP_CHECKSIG", "type": "pubkeyhash"}, "value": 0.97982126, "n": 0}, {"scriptPubKey": {"reqSigs": 1, "hex": "76a914c63f06c736073daf951c55ed4a805a99e2d53a2d88ac", "addresses": ["1K5EJ942oRqGbP6zXMujeh39rvuCMfX2Dp"], "asm": "OP_DUP OP_HASH160 c63f06c736073daf951c55ed4a805a99e2d53a2d OP_EQUALVERIFY OP_CHECKSIG", "type": "pubkeyhash"}, "value": 0.00684114, "n": 1}], "hex": "02000000014e888243c310085a92a892f324d92fdd67be86f57c75dc11b3961becefc9ce93000000006b483045022100ae7fafb685b37e0b586152d4c383b7e0c5944815a2f0226819091c4ff006983802207046987106fa0d1d2f1ecc4bce71204e0241cfe5b84c3ec812060e6f2f894a040121026dc07d688441d45609e7e3f2fd516a4b55523856568a8c12cb1095e0e6f023a9ffffffff02ae16d705000000001976a914664c01f76c08b89154a27b67ed072f933aef38ff88ac52700a00000000001976a914c63f06c736073daf951c55ed4a805a99e2d53a2d88ac00000000", "vin": [{"sequence": 4294967295, "scriptSig": {"hex": "483045022100ae7fafb685b37e0b586152d4c383b7e0c5944815a2f0226819091c4ff006983802207046987106fa0d1d2f1ecc4bce71204e0241cfe5b84c3ec812060e6f2f894a040121026dc07d688441d45609e7e3f2fd516a4b55523856568a8c12cb1095e0e6f023a9", "asm": "3045022100ae7fafb685b37e0b586152d4c383b7e0c5944815a2f0226819091c4ff006983802207046987106fa0d1d2f1ecc4bce71204e0241cfe5b84c3ec812060e6f2f894a04[ALL] 026dc07d688441d45609e7e3f2fd516a4b55523856568a8c12cb1095e0e6f023a9"}, "vout": 0, "txid": "93cec9efec1b96b311dc757cf586be67dd2fd924f392a8925a0810c34382884e"}], "txid": "2f10e0a2b3c8fbd7b2c8bd537aeb69882391e866d587b6e3a51f13cd6a824ec8", "blocktime": 1537873282, "version": 2, "confirmations": 11481, "time": 1537873282, "locktime": 0, "vsize": 226, "size": 226}