{"hash": "5496d445986ed31a5a837a60b3528c26353a493045a07d1435014acc2455db65", "blockhash": "00000000000000000018f53835495a110e01622372bf6ae95dc86f2b0ab887b0", "vout": [{"scriptPubKey": {"reqSigs": 1, "hex": "a91487f93da8f83a29b0cf712ebbaeaf69c8bb5adcff87", "addresses": ["3E5yizvA9iSZoXxE6L6bwBbpAd3yrFuvkZ"], "asm": "OP_HASH160 87f93da8f83a29b0cf712ebbaeaf69c8bb5adcff OP_EQUAL", "type": "scripthash"}, "value": 0.99999696, "n": 0}], "hex": "010000000001012f68b35cab5c2dc389baef5cb0819ec7a673b825740b25b4ddff2909df0ba18101000000171600146dfb587ff7113e6b6019f28316a7eab93b68e170ffffffff01d0dff5050000000017a91487f93da8f83a29b0cf712ebbaeaf69c8bb5adcff870247304402207fe7296891ab150e31b93a90f218761bd21c449da0dce98c02345b0891a778fc022053abd5026d3665416ef5b240dcfc9719a07069b8c9ec668233798ae60bb74174012102d62dba23e773c0b70b90a4c6bd944189001b9609f5894ea3923558a144b5b61200000000", "vin": [{"txinwitness": ["304402207fe7296891ab150e31b93a90f218761bd21c449da0dce98c02345b0891a778fc022053abd5026d3665416ef5b240dcfc9719a07069b8c9ec668233798ae60bb7417401", "02d62dba23e773c0b70b90a4c6bd944189001b9609f5894ea3923558a144b5b612"], "sequence": 4294967295, "scriptSig": {"hex": "1600146dfb587ff7113e6b6019f28316a7eab93b68e170", "asm": "00146dfb587ff7113e6b6019f28316a7eab93b68e170"}, "vout": 1, "txid": "81a10bdf0929ffddb4250b7425b873a6c79e81b05cefba89c32d5cab5cb3682f"}], "txid": "2f12c7d42d7c422054e1140aa54cb3a11ad7730ce50378e22cd3d0d88a3a7381", "blocktime": 1537870928, "version": 1, "confirmations": 11514, "time": 1537870928, "locktime": 0, "vsize": 134, "size": 215}