{"hash": "2f130bc67f043f5c70fa9a4a32d156b981e9818693cda63fd91298d672165dd9", "blockhash": "0000000000000000000e13cef7c366c0283d82e591d1acd082e914b08063cdf1", "vout": [{"scriptPubKey": {"reqSigs": 1, "hex": "76a914db22127668bc2c49b809b5c63d5c7dc65d84bb5b88ac", "addresses": ["1LyfoPE8KJgAmmoXB8yEBnorvMYQ1WuaV7"], "asm": "OP_DUP OP_HASH160 db22127668bc2c49b809b5c63d5c7dc65d84bb5b OP_EQUALVERIFY OP_CHECKSIG", "type": "pubkeyhash"}, "value": 0.00587056, "n": 0}, {"scriptPubKey": {"reqSigs": 1, "hex": "76a914abda7241b63c0eac89434c8e904c9754c9626d5d88ac", "addresses": ["1GfgEihwgn8aerKQrbH8rFWsdZSmp2AHA6"], "asm": "OP_DUP OP_HASH160 abda7241b63c0eac89434c8e904c9754c9626d5d OP_EQUALVERIFY OP_CHECKSIG", "type": "pubkeyhash"}, "value": 2.34397064, "n": 1}], "hex": "01000000015c58a1766342f24a3a71050925341bcced5cfa150e85c2f56025e175b1ddb553010000006a47304402203bc7bf5cab9c30df8c72bd1991158cb7430dd6b8bfd03b75c190271a8a61a72602200b149b3142fcbaa9c34d923661825320fd45c1e13e143e0c23ab90d1542e0a0401210234360f1ec382f83473af85c5fe868233de9967c40c6d465d63831c9081df3000ffffffff0230f50800000000001976a914db22127668bc2c49b809b5c63d5c7dc65d84bb5b88ac889df80d000000001976a914abda7241b63c0eac89434c8e904c9754c9626d5d88ac00000000", "vin": [{"sequence": 4294967295, "scriptSig": {"hex": "47304402203bc7bf5cab9c30df8c72bd1991158cb7430dd6b8bfd03b75c190271a8a61a72602200b149b3142fcbaa9c34d923661825320fd45c1e13e143e0c23ab90d1542e0a0401210234360f1ec382f83473af85c5fe868233de9967c40c6d465d63831c9081df3000", "asm": "304402203bc7bf5cab9c30df8c72bd1991158cb7430dd6b8bfd03b75c190271a8a61a72602200b149b3142fcbaa9c34d923661825320fd45c1e13e143e0c23ab90d1542e0a04[ALL] 0234360f1ec382f83473af85c5fe868233de9967c40c6d465d63831c9081df3000"}, "vout": 1, "txid": "53b5ddb175e12560f5c2850e15fa5cedcc1b34250905713a4af2426376a1585c"}], "txid": "2f130bc67f043f5c70fa9a4a32d156b981e9818693cda63fd91298d672165dd9", "blocktime": 1537871767, "version": 1, "confirmations": 11495, "time": 1537871767, "locktime": 0, "vsize": 225, "size": 225}