{"hash": "e16e785523f44db9e881035f069882b553d5084f2e3e8a330f285a88da124e80", "blockhash": "0000000000000000000e13cef7c366c0283d82e591d1acd082e914b08063cdf1", "vout": [{"scriptPubKey": {"reqSigs": 1, "hex": "a9141636a145aa565bf7d8be6e5475ebac4867cc54e587", "addresses": ["33iUEXAL63hKjSKXcubCRR4GvVPjYZaxGk"], "asm": "OP_HASH160 1636a145aa565bf7d8be6e5475ebac4867cc54e5 OP_EQUAL", "type": "scripthash"}, "value": 0.01000783, "n": 0}, {"scriptPubKey": {"reqSigs": 1, "hex": "76a914db221eb1825c702e5f69d5e3a08bbf147381655b88ac", "addresses": ["1LyfrhmEA3wtytvoryHyF5mV1y43JK4vyC"], "asm": "OP_DUP OP_HASH160 db221eb1825c702e5f69d5e3a08bbf147381655b OP_EQUALVERIFY OP_CHECKSIG", "type": "pubkeyhash"}, "value": 0.01058, "n": 1}], "hex": "02000000000102307d78d22fa4803de00fe8105f5ef1afff49e64d809927d5be80685cc9ccf2031200000017160014747d0027b42a8efc9b87a172fde8751f07a5404efeffffff4b3932785f54c057bca55b64b8c34ff89f76c06687bc03525a4da7d7772c994001000000171600148dde2687443136719246a3241e33af3ba0ace7e3feffffff024f450f000000000017a9141636a145aa565bf7d8be6e5475ebac4867cc54e587d0241000000000001976a914db221eb1825c702e5f69d5e3a08bbf147381655b88ac0247304402200898d639154231300ed9b1b912c9b685e3f86d28650d12367a0ee474c9f5d711022058c484f14b6a67b6c1fb7df7f54da629d2cae8498f6ee78e96693e3243fad49b01210339b199a6e40b1bc32bdea8bdcacebfaddd8064236dac222b5adbd467bf1faa6f02483045022100c3e9873156a46681b0213e9012916e0936b7097e2f4d9f92f1e017a1a6e33e8802200c6b770f1225f0ddc07d76c53f2a9347bfbf973dfa8c097068170ca915b509d1012103f54713494b46938fe3d37cbe2521be28c609533cfb287a6c1003f0f705ae4cd80f490800", "vin": [{"txinwitness": ["304402200898d639154231300ed9b1b912c9b685e3f86d28650d12367a0ee474c9f5d711022058c484f14b6a67b6c1fb7df7f54da629d2cae8498f6ee78e96693e3243fad49b01", "0339b199a6e40b1bc32bdea8bdcacebfaddd8064236dac222b5adbd467bf1faa6f"], "sequence": 4294967294, "scriptSig": {"hex": "160014747d0027b42a8efc9b87a172fde8751f07a5404e", "asm": "0014747d0027b42a8efc9b87a172fde8751f07a5404e"}, "vout": 18, "txid": "03f2ccc95c6880bed52799804de649ffaff15e5f10e80fe03d80a42fd2787d30"}, {"txinwitness": ["3045022100c3e9873156a46681b0213e9012916e0936b7097e2f4d9f92f1e017a1a6e33e8802200c6b770f1225f0ddc07d76c53f2a9347bfbf973dfa8c097068170ca915b509d101", "03f54713494b46938fe3d37cbe2521be28c609533cfb287a6c1003f0f705ae4cd8"], "sequence": 4294967294, "scriptSig": {"hex": "1600148dde2687443136719246a3241e33af3ba0ace7e3", "asm": "00148dde2687443136719246a3241e33af3ba0ace7e3"}, "vout": 1, "txid": "40992c77d7a74d5a5203bc8766c0769ff84fc3b8645ba5bc57c0545f7832394b"}], "txid": "2f181fd6c2bc057bcd76055b77027f973ce16fc3918bc7faeefdc3ac635be186", "blocktime": 1537871767, "version": 2, "confirmations": 11495, "time": 1537871767, "locktime": 542991, "vsize": 259, "size": 421}