{"hash": "2f20722405957a7349988e30fc10567d5406c0fbcae2929ac72005a7c93abfae", "blockhash": "0000000000000000001cda96e906b7601b7a6fb1a3b62bca570a9e5d8f4b3de1", "vout": [{"scriptPubKey": {"reqSigs": 1, "hex": "76a9141266d3a00e62f7652c8d143b6343af2793a9eaf388ac", "addresses": ["12gJLyXaTTSsrAXbjGQZiWwzpQ39pQuEbJ"], "asm": "OP_DUP OP_HASH160 1266d3a00e62f7652c8d143b6343af2793a9eaf3 OP_EQUALVERIFY OP_CHECKSIG", "type": "pubkeyhash"}, "value": 5.785e-05, "n": 0}, {"scriptPubKey": {"reqSigs": 1, "hex": "76a91407dfdb2640e6aa4bde2e0170adc0644f77fd140e88ac", "addresses": ["1idu8mpfSAvngSQoPmGSKoyiY1oFxUuo7"], "asm": "OP_DUP OP_HASH160 07dfdb2640e6aa4bde2e0170adc0644f77fd140e OP_EQUALVERIFY OP_CHECKSIG", "type": "pubkeyhash"}, "value": 0.000319, "n": 1}], "hex": "01000000014d7dafd35887d2d93b46f6aeb8069fbd045e7c6fbd87720d5e05cfb588a4a4a9000000006a47304402202f1cb1543df4fe638cdd7925dcf63e0c106017d2b94e820db945b5ac0d2a7276022029ce3d46ccf5714ac8a9600dc27ac4e8b38b56758de77ea9fb46e8d278418a37012103c2d19dc7044f51ef6ea8b3a21761e499ebbc63a3b54de1d668509ac1999b6d4affffffff0299160000000000001976a9141266d3a00e62f7652c8d143b6343af2793a9eaf388ac9c7c0000000000001976a91407dfdb2640e6aa4bde2e0170adc0644f77fd140e88ac00000000", "vin": [{"sequence": 4294967295, "scriptSig": {"hex": "47304402202f1cb1543df4fe638cdd7925dcf63e0c106017d2b94e820db945b5ac0d2a7276022029ce3d46ccf5714ac8a9600dc27ac4e8b38b56758de77ea9fb46e8d278418a37012103c2d19dc7044f51ef6ea8b3a21761e499ebbc63a3b54de1d668509ac1999b6d4a", "asm": "304402202f1cb1543df4fe638cdd7925dcf63e0c106017d2b94e820db945b5ac0d2a7276022029ce3d46ccf5714ac8a9600dc27ac4e8b38b56758de77ea9fb46e8d278418a37[ALL] 03c2d19dc7044f51ef6ea8b3a21761e499ebbc63a3b54de1d668509ac1999b6d4a"}, "vout": 0, "txid": "a9a4a488b5cf055e0d7287bd6f7c5e04bd9f06b8aef6463bd9d28758d3af7d4d"}], "txid": "2f20722405957a7349988e30fc10567d5406c0fbcae2929ac72005a7c93abfae", "blocktime": 1537873282, "version": 1, "confirmations": 11485, "time": 1537873282, "locktime": 0, "vsize": 225, "size": 225}