{"hash": "e787d54d3ec1848000edb10e3a09144f98138f2f567f8e4dc7dfb7cfb0cf1a65", "blockhash": "0000000000000000000e13cef7c366c0283d82e591d1acd082e914b08063cdf1", "vout": [{"scriptPubKey": {"reqSigs": 1, "hex": "a914ce9b137b7f867bad72e565ab7d425a2d3c6f814f87", "addresses": ["3LXStwKYwSf2RYD7rQa1P2tEM6wSibTGsb"], "asm": "OP_HASH160 ce9b137b7f867bad72e565ab7d425a2d3c6f814f OP_EQUAL", "type": "scripthash"}, "value": 0.00193665, "n": 0}, {"scriptPubKey": {"reqSigs": 1, "hex": "0014da94b29e2c7ecfe08da04ccb8827c66ee7c0f1af", "addresses": ["bc1qm22t983v0m87prdqfn9csf7xdmnupud0wuwtpe"], "asm": "0 da94b29e2c7ecfe08da04ccb8827c66ee7c0f1af", "type": "witness_v0_keyhash"}, "value": 1.171e-05, "n": 1}], "hex": "0100000000010116fa42a622366d996c74d9f2f262816d0d2698c3c9fbe0619ed131ced288ee4d0000000017160014ac754fadc30393a8d8d56a7222ae56946ed322baffffffff0281f402000000000017a914ce9b137b7f867bad72e565ab7d425a2d3c6f814f879304000000000000160014da94b29e2c7ecfe08da04ccb8827c66ee7c0f1af02483045022100ebd6b9124fb39cb959731b2fd6fc1636dd43e45dd8138d4e3de3b0a490c2321102207da01394a6b3af233a943a3521c7f3f1dd937bde2ec833f1b45a9d93da70060a012102272efd1276c2bbf2131df86578825dbc09b88446e3378d536fe6e6e4fcd7463e00000000", "vin": [{"txinwitness": ["3045022100ebd6b9124fb39cb959731b2fd6fc1636dd43e45dd8138d4e3de3b0a490c2321102207da01394a6b3af233a943a3521c7f3f1dd937bde2ec833f1b45a9d93da70060a01", "02272efd1276c2bbf2131df86578825dbc09b88446e3378d536fe6e6e4fcd7463e"], "sequence": 4294967295, "scriptSig": {"hex": "160014ac754fadc30393a8d8d56a7222ae56946ed322ba", "asm": "0014ac754fadc30393a8d8d56a7222ae56946ed322ba"}, "vout": 0, "txid": "4dee88d2ce31d19e61e0fbc9c398260d6d8162f2f2d9746c996d3622a642fa16"}], "txid": "2f20426117029de88b2e2478c8e7314f5bddc2e94c25d42b2bdbcf5b69c61346", "blocktime": 1537871767, "version": 1, "confirmations": 11495, "time": 1537871767, "locktime": 0, "vsize": 165, "size": 247}