{"hash": "2f26587b0a4cdd9900461a32c3bf62936286f0320e479a8cb003a4a245428c5e", "blockhash": "0000000000000000000e13cef7c366c0283d82e591d1acd082e914b08063cdf1", "vout": [{"scriptPubKey": {"reqSigs": 1, "hex": "a914effe910540b5cfb328969c7a2f90ec284b35d47a87", "addresses": ["3PZzNyqcHqQeK6v927DEUfFb2RcMVRkGR6"], "asm": "OP_HASH160 effe910540b5cfb328969c7a2f90ec284b35d47a OP_EQUAL", "type": "scripthash"}, "value": 0.01208982, "n": 0}, {"scriptPubKey": {"reqSigs": 1, "hex": "76a9140c0f6efa099b838352793522f305922d10752c5888ac", "addresses": ["126mbe9mRfvWCEQHiyGMRzSz2PwRscHbKt"], "asm": "OP_DUP OP_HASH160 0c0f6efa099b838352793522f305922d10752c58 OP_EQUALVERIFY OP_CHECKSIG", "type": "pubkeyhash"}, "value": 4.88075505, "n": 1}], "hex": "01000000014169796955f01564747e85d8e5208da7cc15800f3e24fe992de72d4922f6d410010000006b4830450221008dcde9539a475bb540748b523881d1d81d8fd14970e2fd2ff0ddf954415549f302201c09775d0c20ccd9e848883782c445a99c184a46d81d98c6b0070202b274e32d0121020bb0b83496660657f4429ea980b29bc39cde6756e445a2ed3b66259f40264d8dffffffff02967212000000000017a914effe910540b5cfb328969c7a2f90ec284b35d47a87f170171d000000001976a9140c0f6efa099b838352793522f305922d10752c5888ac00000000", "vin": [{"sequence": 4294967295, "scriptSig": {"hex": "4830450221008dcde9539a475bb540748b523881d1d81d8fd14970e2fd2ff0ddf954415549f302201c09775d0c20ccd9e848883782c445a99c184a46d81d98c6b0070202b274e32d0121020bb0b83496660657f4429ea980b29bc39cde6756e445a2ed3b66259f40264d8d", "asm": "30450221008dcde9539a475bb540748b523881d1d81d8fd14970e2fd2ff0ddf954415549f302201c09775d0c20ccd9e848883782c445a99c184a46d81d98c6b0070202b274e32d[ALL] 020bb0b83496660657f4429ea980b29bc39cde6756e445a2ed3b66259f40264d8d"}, "vout": 1, "txid": "10d4f622492de72d99fe243e0f8015cca78d20e5d8857e746415f05569796941"}], "txid": "2f26587b0a4cdd9900461a32c3bf62936286f0320e479a8cb003a4a245428c5e", "blocktime": 1537871767, "version": 1, "confirmations": 11490, "time": 1537871767, "locktime": 0, "vsize": 224, "size": 224}