{"hash": "2f282acec707fb85962080875ae15a2d2b740b65894f2cc90c148a20f5c38664", "blockhash": "00000000000000000018f53835495a110e01622372bf6ae95dc86f2b0ab887b0", "vout": [{"scriptPubKey": {"reqSigs": 1, "hex": "76a914ef60676d7a4f77ce98d67b3faef5404415e120f188ac", "addresses": ["1Nphz7iagmcCvYzaFVsgL9PsM95uFR8Bju"], "asm": "OP_DUP OP_HASH160 ef60676d7a4f77ce98d67b3faef5404415e120f1 OP_EQUALVERIFY OP_CHECKSIG", "type": "pubkeyhash"}, "value": 5.64e-06, "n": 0}, {"scriptPubKey": {"reqSigs": 1, "hex": "76a91489c0be68a78a0e7d4bdfb70f9443aaa1739bc80888ac", "addresses": ["1DZNUMWoU19LGRuj1udxf1dXbcNaJFS7pj"], "asm": "OP_DUP OP_HASH160 89c0be68a78a0e7d4bdfb70f9443aaa1739bc808 OP_EQUALVERIFY OP_CHECKSIG", "type": "pubkeyhash"}, "value": 0.00012558, "n": 1}], "hex": "010000000195d78c943b61fe538c06f362b6a06134dd450ffcfd770dc59bfa1162950b2b79000000006a47304402207d33a3f9b1d190bfd3922d23fec269d06c4e217eef6b705329f6516cb8902fa002202c657111e8ab4a70037810def7c86f38a1cb447ac421243d5f0e38ce20039070012102d49dcda33a69dbfe9ff40576b640c87b2c086bb6f4ae3f8d2f04c9e3fa47e466ffffffff0234020000000000001976a914ef60676d7a4f77ce98d67b3faef5404415e120f188ac0e310000000000001976a91489c0be68a78a0e7d4bdfb70f9443aaa1739bc80888ac00000000", "vin": [{"sequence": 4294967295, "scriptSig": {"hex": "47304402207d33a3f9b1d190bfd3922d23fec269d06c4e217eef6b705329f6516cb8902fa002202c657111e8ab4a70037810def7c86f38a1cb447ac421243d5f0e38ce20039070012102d49dcda33a69dbfe9ff40576b640c87b2c086bb6f4ae3f8d2f04c9e3fa47e466", "asm": "304402207d33a3f9b1d190bfd3922d23fec269d06c4e217eef6b705329f6516cb8902fa002202c657111e8ab4a70037810def7c86f38a1cb447ac421243d5f0e38ce20039070[ALL] 02d49dcda33a69dbfe9ff40576b640c87b2c086bb6f4ae3f8d2f04c9e3fa47e466"}, "vout": 0, "txid": "792b0b956211fa9bc50d77fdfc0f45dd3461a0b662f3068c53fe613b948cd795"}], "txid": "2f282acec707fb85962080875ae15a2d2b740b65894f2cc90c148a20f5c38664", "blocktime": 1537870928, "version": 1, "confirmations": 11514, "time": 1537870928, "locktime": 0, "vsize": 225, "size": 225}