{"hash": "2f2efdd824949e11d48e5fd14e3c639648346693ba5f2ffb71c10d630d4744dc", "blockhash": "0000000000000000001cda96e906b7601b7a6fb1a3b62bca570a9e5d8f4b3de1", "vout": [{"scriptPubKey": {"reqSigs": 1, "hex": "76a91485f05979e86238bf2b64e572a9305abe19bf51b388ac", "addresses": ["1DDCoHrd6XXPpim87uJ7B6rvM2JHayHvmh"], "asm": "OP_DUP OP_HASH160 85f05979e86238bf2b64e572a9305abe19bf51b3 OP_EQUALVERIFY OP_CHECKSIG", "type": "pubkeyhash"}, "value": 0.02654021, "n": 0}], "hex": "0100000004f62cbbab49fe730177728deea524c515b15b8ac262c9b4cc5eae724a60510108710000006a473044022068baab70d5c06bdb99848cb8ccda54251fd18e352ecc16c2c2a52ef53fdc1cc402200c0524098a6713e4f5ac7be1b685756f61b8e69691f79fc690877b45340db3cc0121024b182ae0b4d5bf624b79a8f2827902c9faa21604b9e3bc1cca51941bfbfce375ffffffff4508d0e23b8f2a3f08a6cc12488f0e0c4b1352f738801fce30494eb1720e0d39810000006a473044022012cd0120e596d8c660052bf762d8dadee59388156b555020a2217fd43df6b32e02206364fc70fafda2feb5979cebdc16e7b1072fee72626a9e291f9dde7da748b3cb0121024b182ae0b4d5bf624b79a8f2827902c9faa21604b9e3bc1cca51941bfbfce375fffffffff8c38f180e4b133b114c3f810cf988f62ab13b881f1cfb12b0125ef03cca7350730000006a4730440220032cfb28915c591a296c687d796d3f095a933d2c6a888e784f4b6d1be400ba5002200f2d566c2ae84f5ecdeb6bfd7c8b34f51b99258b8afdac8a9400c340bab1f4670121024b182ae0b4d5bf624b79a8f2827902c9faa21604b9e3bc1cca51941bfbfce375ffffffff2114d9f384cb497b5cd551ce1bee569dc1bbac028c2d1058b49741056b8316f57a0000006a47304402204f580bfdd193309f23e1649239a3bee40040cb20d748f5f1ede25b90a2df6842022001f4a0c26c11dc41c88e756f7c82d3018c8577cdc965125b725512d6a08acd0c0121024b182ae0b4d5bf624b79a8f2827902c9faa21604b9e3bc1cca51941bfbfce375ffffffff01457f2800000000001976a91485f05979e86238bf2b64e572a9305abe19bf51b388ac00000000", "vin": [{"sequence": 4294967295, "scriptSig": {"hex": "473044022068baab70d5c06bdb99848cb8ccda54251fd18e352ecc16c2c2a52ef53fdc1cc402200c0524098a6713e4f5ac7be1b685756f61b8e69691f79fc690877b45340db3cc0121024b182ae0b4d5bf624b79a8f2827902c9faa21604b9e3bc1cca51941bfbfce375", "asm": "3044022068baab70d5c06bdb99848cb8ccda54251fd18e352ecc16c2c2a52ef53fdc1cc402200c0524098a6713e4f5ac7be1b685756f61b8e69691f79fc690877b45340db3cc[ALL] 024b182ae0b4d5bf624b79a8f2827902c9faa21604b9e3bc1cca51941bfbfce375"}, "vout": 113, "txid": "080151604a72ae5eccb4c962c28a5bb115c524a5ee8d72770173fe49abbb2cf6"}, {"sequence": 4294967295, "scriptSig": {"hex": "473044022012cd0120e596d8c660052bf762d8dadee59388156b555020a2217fd43df6b32e02206364fc70fafda2feb5979cebdc16e7b1072fee72626a9e291f9dde7da748b3cb0121024b182ae0b4d5bf624b79a8f2827902c9faa21604b9e3bc1cca51941bfbfce375", "asm": "3044022012cd0120e596d8c660052bf762d8dadee59388156b555020a2217fd43df6b32e02206364fc70fafda2feb5979cebdc16e7b1072fee72626a9e291f9dde7da748b3cb[ALL] 024b182ae0b4d5bf624b79a8f2827902c9faa21604b9e3bc1cca51941bfbfce375"}, "vout": 129, "txid": "390d0e72b14e4930ce1f8038f752134b0c0e8f4812cca6083f2a8f3be2d00845"}, {"sequence": 4294967295, "scriptSig": {"hex": "4730440220032cfb28915c591a296c687d796d3f095a933d2c6a888e784f4b6d1be400ba5002200f2d566c2ae84f5ecdeb6bfd7c8b34f51b99258b8afdac8a9400c340bab1f4670121024b182ae0b4d5bf624b79a8f2827902c9faa21604b9e3bc1cca51941bfbfce375", "asm": "30440220032cfb28915c591a296c687d796d3f095a933d2c6a888e784f4b6d1be400ba5002200f2d566c2ae84f5ecdeb6bfd7c8b34f51b99258b8afdac8a9400c340bab1f467[ALL] 024b182ae0b4d5bf624b79a8f2827902c9faa21604b9e3bc1cca51941bfbfce375"}, "vout": 115, "txid": "5073ca3cf05e12b012fb1c1f883bb12af688f90c813f4c113b134b0e188fc3f8"}, {"sequence": 4294967295, "scriptSig": {"hex": "47304402204f580bfdd193309f23e1649239a3bee40040cb20d748f5f1ede25b90a2df6842022001f4a0c26c11dc41c88e756f7c82d3018c8577cdc965125b725512d6a08acd0c0121024b182ae0b4d5bf624b79a8f2827902c9faa21604b9e3bc1cca51941bfbfce375", "asm": "304402204f580bfdd193309f23e1649239a3bee40040cb20d748f5f1ede25b90a2df6842022001f4a0c26c11dc41c88e756f7c82d3018c8577cdc965125b725512d6a08acd0c[ALL] 024b182ae0b4d5bf624b79a8f2827902c9faa21604b9e3bc1cca51941bfbfce375"}, "vout": 122, "txid": "f516836b054197b458102d8c02acbbc19d56ee1bce51d55c7b49cb84f3d91421"}], "txid": "2f2efdd824949e11d48e5fd14e3c639648346693ba5f2ffb71c10d630d4744dc", "blocktime": 1537873282, "version": 1, "confirmations": 11484, "time": 1537873282, "locktime": 0, "vsize": 632, "size": 632}