{"hash": "2f31495715cc1e4233a506727ca41f95b1a192e047aee8698652a64512e0d520", "blockhash": "0000000000000000000e13cef7c366c0283d82e591d1acd082e914b08063cdf1", "vout": [{"scriptPubKey": {"reqSigs": 1, "hex": "76a9145f453aeacc58cc916df84b7e335267ee51d2300288ac", "addresses": ["19gk8RHYCzQGVd3ZkTyxc8W5xWf4kLQjay"], "asm": "OP_DUP OP_HASH160 5f453aeacc58cc916df84b7e335267ee51d23002 OP_EQUALVERIFY OP_CHECKSIG", "type": "pubkeyhash"}, "value": 0.37178495, "n": 0}], "hex": "010000000342053eae9fa5856b3d024fed5a910b0ec89e02c357c886bf02b041b87a42d039000000006a47304402207b0c4598a59d0aeebfacf2c4a1465726840d12ba26c06b449eb38de94613184702201d654d8a8ba608c7bc48b3d32bcaf70d54194aef16dd914aa4763ad0d9fd2390012103e701bb42b089be46a30cef465e37e5fab8bbcf8486dbe82d21bb4022e3016f03ffffffffbddd1fd0cbd5ec8096436d4e3317896ab24477c5dc47bfabe51bbe4eeaf78769010000006b483045022100ddc6c977b5feb15d98659b1f415c19b21c00e6feafef01746c35c55efab979bd02207c8ff6275441e3c94dfb7de6739f095b6a63a9007eb4034d99fbf69c1cfba4b1012103f776ead5b466732c2116ab6d0026d78439173c902b2285537af8f6892cb3f770ffffffffaa5905491a0ecde246505413dd52d7a5657f916eb7fc805a5cdb705078ed93a9000000006b483045022100bcd2b44b2ab3baeb625ba4a2ad8702c36a391daf349228b07d5b748f19f34c6002202accf7bbd131af3db18fcf74748a8c72e18546dc34ffdea78717bac931c3eb96012103f776ead5b466732c2116ab6d0026d78439173c902b2285537af8f6892cb3f770ffffffff017f4c3702000000001976a9145f453aeacc58cc916df84b7e335267ee51d2300288ac00000000", "vin": [{"sequence": 4294967295, "scriptSig": {"hex": "47304402207b0c4598a59d0aeebfacf2c4a1465726840d12ba26c06b449eb38de94613184702201d654d8a8ba608c7bc48b3d32bcaf70d54194aef16dd914aa4763ad0d9fd2390012103e701bb42b089be46a30cef465e37e5fab8bbcf8486dbe82d21bb4022e3016f03", "asm": "304402207b0c4598a59d0aeebfacf2c4a1465726840d12ba26c06b449eb38de94613184702201d654d8a8ba608c7bc48b3d32bcaf70d54194aef16dd914aa4763ad0d9fd2390[ALL] 03e701bb42b089be46a30cef465e37e5fab8bbcf8486dbe82d21bb4022e3016f03"}, "vout": 0, "txid": "39d0427ab841b002bf86c857c3029ec80e0b915aed4f023d6b85a59fae3e0542"}, {"sequence": 4294967295, "scriptSig": {"hex": "483045022100ddc6c977b5feb15d98659b1f415c19b21c00e6feafef01746c35c55efab979bd02207c8ff6275441e3c94dfb7de6739f095b6a63a9007eb4034d99fbf69c1cfba4b1012103f776ead5b466732c2116ab6d0026d78439173c902b2285537af8f6892cb3f770", "asm": "3045022100ddc6c977b5feb15d98659b1f415c19b21c00e6feafef01746c35c55efab979bd02207c8ff6275441e3c94dfb7de6739f095b6a63a9007eb4034d99fbf69c1cfba4b1[ALL] 03f776ead5b466732c2116ab6d0026d78439173c902b2285537af8f6892cb3f770"}, "vout": 1, "txid": "6987f7ea4ebe1be5abbf47dcc57744b26a8917334e6d439680ecd5cbd01fddbd"}, {"sequence": 4294967295, "scriptSig": {"hex": "483045022100bcd2b44b2ab3baeb625ba4a2ad8702c36a391daf349228b07d5b748f19f34c6002202accf7bbd131af3db18fcf74748a8c72e18546dc34ffdea78717bac931c3eb96012103f776ead5b466732c2116ab6d0026d78439173c902b2285537af8f6892cb3f770", "asm": "3045022100bcd2b44b2ab3baeb625ba4a2ad8702c36a391daf349228b07d5b748f19f34c6002202accf7bbd131af3db18fcf74748a8c72e18546dc34ffdea78717bac931c3eb96[ALL] 03f776ead5b466732c2116ab6d0026d78439173c902b2285537af8f6892cb3f770"}, "vout": 0, "txid": "a993ed785070db5c5a80fcb76e917f65a5d752dd13545046e2cd0e1a490559aa"}], "txid": "2f31495715cc1e4233a506727ca41f95b1a192e047aee8698652a64512e0d520", "blocktime": 1537871767, "version": 1, "confirmations": 11495, "time": 1537871767, "locktime": 0, "vsize": 487, "size": 487}