{"hash": "2f3b9d72200a2dd8e80548f6e0bcf32b84fc15eaf56230cd7e37e9a3a24332a4", "blockhash": "00000000000000000018f53835495a110e01622372bf6ae95dc86f2b0ab887b0", "vout": [{"scriptPubKey": {"reqSigs": 1, "hex": "76a91406b251162377b45323c962aba120f523bc2016f488ac", "addresses": ["1cQfpJZXUCgcma5T2mCYT6hAG2tVF2vKH"], "asm": "OP_DUP OP_HASH160 06b251162377b45323c962aba120f523bc2016f4 OP_EQUALVERIFY OP_CHECKSIG", "type": "pubkeyhash"}, "value": 0.02961, "n": 0}, {"scriptPubKey": {"reqSigs": 1, "hex": "76a91458e27be7d575dc45f8a1c1b8186f13e04694244f88ac", "addresses": ["196ynGQqyJHh4AgxZbMXBfyhQXDwcyqCyH"], "asm": "OP_DUP OP_HASH160 58e27be7d575dc45f8a1c1b8186f13e04694244f OP_EQUALVERIFY OP_CHECKSIG", "type": "pubkeyhash"}, "value": 10.7899222, "n": 1}], "hex": "0100000001401dd104461f3f58b924ca24cb3d107b8a589afdf526b1acc3efd882c41770d0010000006b483045022100dd38f6f6db6ba8b60f054a14ea3588cc5399132bb9ab7cb3367b79738e6d62280220291d6c80bfa1aa62f667ca850f73ffdb7a82b48671eb02a8886eeb0054afb50401210336fd98962c829add150b0c4856f5fe5ac4b5af18c3c31bc80823d996e7767668ffffffff02682e2d00000000001976a91406b251162377b45323c962aba120f523bc2016f488ac5c1d5040000000001976a91458e27be7d575dc45f8a1c1b8186f13e04694244f88ac00000000", "vin": [{"sequence": 4294967295, "scriptSig": {"hex": "483045022100dd38f6f6db6ba8b60f054a14ea3588cc5399132bb9ab7cb3367b79738e6d62280220291d6c80bfa1aa62f667ca850f73ffdb7a82b48671eb02a8886eeb0054afb50401210336fd98962c829add150b0c4856f5fe5ac4b5af18c3c31bc80823d996e7767668", "asm": "3045022100dd38f6f6db6ba8b60f054a14ea3588cc5399132bb9ab7cb3367b79738e6d62280220291d6c80bfa1aa62f667ca850f73ffdb7a82b48671eb02a8886eeb0054afb504[ALL] 0336fd98962c829add150b0c4856f5fe5ac4b5af18c3c31bc80823d996e7767668"}, "vout": 1, "txid": "d07017c482d8efc3acb126f5fd9a588a7b103dcb24ca24b9583f1f4604d11d40"}], "txid": "2f3b9d72200a2dd8e80548f6e0bcf32b84fc15eaf56230cd7e37e9a3a24332a4", "blocktime": 1537870928, "version": 1, "confirmations": 11512, "time": 1537870928, "locktime": 0, "vsize": 226, "size": 226}