{"hash": "98a3efff68eeb1587e93f094530d1e113734d9dc40f5e9959256857de320551d", "blockhash": "00000000000000000018f53835495a110e01622372bf6ae95dc86f2b0ab887b0", "vout": [{"scriptPubKey": {"reqSigs": 1, "hex": "a914a9a4aeca3c5517dfbc3640621f58a815b348aaeb87", "addresses": ["3HA1QKg7CaD7NAL6WxoaeaLF4JTHPmWq1k"], "asm": "OP_HASH160 a9a4aeca3c5517dfbc3640621f58a815b348aaeb OP_EQUAL", "type": "scripthash"}, "value": 0.00156983, "n": 0}, {"scriptPubKey": {"reqSigs": 1, "hex": "00141853681af114e637c927ca8f73607ee88cbd08ff", "addresses": ["bc1qrpfksxh3znnr0jf8e28hxcr7azxt6z8lleap63"], "asm": "0 1853681af114e637c927ca8f73607ee88cbd08ff", "type": "witness_v0_keyhash"}, "value": 5.911e-05, "n": 1}], "hex": "01000000000101202b5eba24cef5143ac4b8e100a3865d27cb58d64c074c33051e4c59a990176e0100000000ffffffff02376502000000000017a914a9a4aeca3c5517dfbc3640621f58a815b348aaeb8717170000000000001600141853681af114e637c927ca8f73607ee88cbd08ff0247304402201e54f5827cf2a55f9a7400c2b7d9e581745a41b5378418867dc71e060e1a75e602200d6e5c3d34f4aa3e1abb1950fa536ca4f3d1341517dcd1d0a88785775056316301210211bcc38381ac0d510c99f57eafeb00f3a2f1c2a2300e5d8cf068396a13e72ac300000000", "vin": [{"txinwitness": ["304402201e54f5827cf2a55f9a7400c2b7d9e581745a41b5378418867dc71e060e1a75e602200d6e5c3d34f4aa3e1abb1950fa536ca4f3d1341517dcd1d0a88785775056316301", "0211bcc38381ac0d510c99f57eafeb00f3a2f1c2a2300e5d8cf068396a13e72ac3"], "sequence": 4294967295, "scriptSig": {"hex": "", "asm": ""}, "vout": 1, "txid": "6e1790a9594c1e05334c074cd658cb275d86a300e1b8c43a14f5ce24ba5e2b20"}], "txid": "2f4579fbebcba037f47976dcf87cf29146845cec68164ae81a15f63b1286e2ba", "blocktime": 1537870928, "version": 1, "confirmations": 11512, "time": 1537870928, "locktime": 0, "vsize": 142, "size": 223}