{"hash": "e87c0e9b154496f55bec11ac1495334cb20b9cb62469b9f8973ec3ed4a4b3965", "blockhash": "00000000000000000004ffacab907a6b429b9a5745fa0b75af4234bf69dd7176", "vout": [{"scriptPubKey": {"reqSigs": 1, "hex": "76a914d33fe0bcd481bc7ef57cf3f6302535bd81e38f5088ac", "addresses": ["1LFz6nmwa57a7ka1dJeCwAdRYKGX3mKaB9"], "asm": "OP_DUP OP_HASH160 d33fe0bcd481bc7ef57cf3f6302535bd81e38f50 OP_EQUALVERIFY OP_CHECKSIG", "type": "pubkeyhash"}, "value": 0.0041, "n": 0}, {"scriptPubKey": {"reqSigs": 1, "hex": "a914805b26ca615f6148b6652ef16d35670e8366c1ac87", "addresses": ["3DPhcR9J4AnkEvsQvtxYRxN224ihi6RrwM"], "asm": "OP_HASH160 805b26ca615f6148b6652ef16d35670e8366c1ac OP_EQUAL", "type": "scripthash"}, "value": 0.1019921, "n": 1}], "hex": "020000000001012154a4e829f3306c094ccf72e25ef5d3993d6a42e0f3770be596f50e342b7d92020000001716001432a01094bab27fe71245800401fdda01246aabaafeffffff0290410600000000001976a914d33fe0bcd481bc7ef57cf3f6302535bd81e38f5088acaaa09b000000000017a914805b26ca615f6148b6652ef16d35670e8366c1ac8702483045022100cbcfb25c061a95733ab24c593b78e17dadecc71047030388bcc4485d96f49c030220168f9c9789b2d5f8f4f3368167faffc99b7e71519dc991ae1e75e23c56793bea0121028c924103807e25f1189bb9c2a34bba7739e3acc9e8c6dbb8ac722076d258553715490800", "vin": [{"txinwitness": ["3045022100cbcfb25c061a95733ab24c593b78e17dadecc71047030388bcc4485d96f49c030220168f9c9789b2d5f8f4f3368167faffc99b7e71519dc991ae1e75e23c56793bea01", "028c924103807e25f1189bb9c2a34bba7739e3acc9e8c6dbb8ac722076d2585537"], "sequence": 4294967294, "scriptSig": {"hex": "16001432a01094bab27fe71245800401fdda01246aabaa", "asm": "001432a01094bab27fe71245800401fdda01246aabaa"}, "vout": 2, "txid": "927d2b340ef596e50b77f3e0426a3d99d3f55ee272cf4c096c30f329e8a45421"}], "txid": "2f467e7b7344e70eea62d53f1a3aa03c8e0b84ae1635c9ad652e9a5a4f12508e", "blocktime": 1537875543, "version": 2, "confirmations": 11464, "time": 1537875543, "locktime": 542997, "vsize": 168, "size": 250}