{"hash": "2f47e56d9fad77505089e809b5a19cb5f72246e4f90e64311848aa8f59476c2f", "blockhash": "0000000000000000000baef3f32e3676a92c3b2e5da21b426e4f302fc371ce76", "vout": [{"scriptPubKey": {"reqSigs": 1, "hex": "76a914b823765dce492bea01da6961f46f49f90c8660be88ac", "addresses": ["1HndpGPkEHcuvrz94JcZ9BBt3sVdgwCbKW"], "asm": "OP_DUP OP_HASH160 b823765dce492bea01da6961f46f49f90c8660be OP_EQUALVERIFY OP_CHECKSIG", "type": "pubkeyhash"}, "value": 0.000537, "n": 0}, {"scriptPubKey": {"reqSigs": 1, "hex": "76a914e349bc52d6b8100b58d3fce45135a91c5c128a1d88ac", "addresses": ["1MiningDkXkhKaXBTMKXfLemnk1YY5rbkT"], "asm": "OP_DUP OP_HASH160 e349bc52d6b8100b58d3fce45135a91c5c128a1d OP_EQUALVERIFY OP_CHECKSIG", "type": "pubkeyhash"}, "value": 0.27453833, "n": 1}], "hex": "020000000107927025c624bbc8255f9589ff9eebf2a14535cccfe5d83587769df565f6fc70010000008b4830450221009a50ec9eadeca018dc0bd0a8b628c5b524c7088cc4b9124e69eceecc19ccec3602202a0eb74cd86d38607087e7944da0259187837b38b6d1a4327a73e891b6f915b6014104ae414abde7876c34e01694b38b2341d10b9b4c8db18a66262bd8df26bcb57893885c9fe8b79aa25330d5f05bb5aa9ab636a908a72e27956572b44190b22809beffffffff02c4d10000000000001976a914b823765dce492bea01da6961f46f49f90c8660be88ac89e9a201000000001976a914e349bc52d6b8100b58d3fce45135a91c5c128a1d88ac00000000", "vin": [{"sequence": 4294967295, "scriptSig": {"hex": "4830450221009a50ec9eadeca018dc0bd0a8b628c5b524c7088cc4b9124e69eceecc19ccec3602202a0eb74cd86d38607087e7944da0259187837b38b6d1a4327a73e891b6f915b6014104ae414abde7876c34e01694b38b2341d10b9b4c8db18a66262bd8df26bcb57893885c9fe8b79aa25330d5f05bb5aa9ab636a908a72e27956572b44190b22809be", "asm": "30450221009a50ec9eadeca018dc0bd0a8b628c5b524c7088cc4b9124e69eceecc19ccec3602202a0eb74cd86d38607087e7944da0259187837b38b6d1a4327a73e891b6f915b6[ALL] 04ae414abde7876c34e01694b38b2341d10b9b4c8db18a66262bd8df26bcb57893885c9fe8b79aa25330d5f05bb5aa9ab636a908a72e27956572b44190b22809be"}, "vout": 1, "txid": "70fcf665f59d768735d8e5cfcc3545a1f2eb9eff89955f25c8bb24c625709207"}], "txid": "2f47e56d9fad77505089e809b5a19cb5f72246e4f90e64311848aa8f59476c2f", "blocktime": 1537876114, "version": 2, "confirmations": 11460, "time": 1537876114, "locktime": 0, "vsize": 258, "size": 258}