{"hash": "38bbba44a13f94101f78a89f0dcabc72f24c6357fe756dfb3379957342eab7a8", "blockhash": "0000000000000000001cda96e906b7601b7a6fb1a3b62bca570a9e5d8f4b3de1", "vout": [{"scriptPubKey": {"reqSigs": 1, "hex": "76a9145ef2b9afbc951e60b71df0ba96db8a9fb5d6d12f88ac", "addresses": ["19f3HtHQtRqdRU4227T7pxC9c3aFus8PYc"], "asm": "OP_DUP OP_HASH160 5ef2b9afbc951e60b71df0ba96db8a9fb5d6d12f OP_EQUALVERIFY OP_CHECKSIG", "type": "pubkeyhash"}, "value": 0.02, "n": 0}, {"scriptPubKey": {"reqSigs": 1, "hex": "00147e0ad229c3211451fa52815db58fbcbe123a95ca", "addresses": ["bc1q0c9dy2wryy29r7jjs9wmtrauhcfr49w2veknk8"], "asm": "0 7e0ad229c3211451fa52815db58fbcbe123a95ca", "type": "witness_v0_keyhash"}, "value": 0.58931364, "n": 1}], "hex": "010000000001012fd9de5a0af142076633ab51b3a7948fc69e98eedbea4af4ba20104306309cef0000000017160014021c45e230e1dfccefd89e051d877ef007eac032ffffffff0280841e00000000001976a9145ef2b9afbc951e60b71df0ba96db8a9fb5d6d12f88aca4388303000000001600147e0ad229c3211451fa52815db58fbcbe123a95ca02483045022100927869e6c09742c79d556e2394620eb5b51026bdd22943f44808e93ee6eed95c022001dcf01fa1ffe2d7bb94204f2d664f45e59cffef368d1279ba0cf8c01c4b2756012103bbdfe6da225d9fff7bce7f2f0be9918eba817553fb72c4cb4d840d296803e96e00000000", "vin": [{"txinwitness": ["3045022100927869e6c09742c79d556e2394620eb5b51026bdd22943f44808e93ee6eed95c022001dcf01fa1ffe2d7bb94204f2d664f45e59cffef368d1279ba0cf8c01c4b275601", "03bbdfe6da225d9fff7bce7f2f0be9918eba817553fb72c4cb4d840d296803e96e"], "sequence": 4294967295, "scriptSig": {"hex": "160014021c45e230e1dfccefd89e051d877ef007eac032", "asm": "0014021c45e230e1dfccefd89e051d877ef007eac032"}, "vout": 0, "txid": "ef9c3006431020baf44aeadbee989ec68f94a7b351ab33660742f10a5aded92f"}], "txid": "2f4f04bfd8f268ee2210a35c99fe8da51ab64fb6b2880c59f2f328984b6723fc", "blocktime": 1537873282, "version": 1, "confirmations": 11484, "time": 1537873282, "locktime": 0, "vsize": 167, "size": 249}