{"hash": "3e2222d1d7fd7759105288d7798426bde33710c2c5de78a26f3b435d20fd6bca", "blockhash": "0000000000000000001f76057863aec43deb6fa401d9628bb513d65a8098bfab", "vout": [{"scriptPubKey": {"reqSigs": 1, "hex": "a914601d01b88479af729ab95f946a64cad02cf8d71987", "addresses": ["3ATDYP6kEeLneNgXcg2RGCN1QhECqvHe5e"], "asm": "OP_HASH160 601d01b88479af729ab95f946a64cad02cf8d719 OP_EQUAL", "type": "scripthash"}, "value": 0.00236763, "n": 0}, {"scriptPubKey": {"reqSigs": 1, "hex": "a914425a42b93a420a05903a816deee2a6c382cac8bd87", "addresses": ["37jred8MrPaJkiGVBRkerpTYq87LgH4BEd"], "asm": "OP_HASH160 425a42b93a420a05903a816deee2a6c382cac8bd OP_EQUAL", "type": "scripthash"}, "value": 0.00784123, "n": 1}], "hex": "010000000001018ab817ed9247a77cf748b599c1291872413261dfc0868ddce010830f7fddfaa00100000023220020a708bfb7c7bbbbeadf3340beb77182d43a192cb7e6667dbefaf895e3339ea1c6ffffffff02db9c03000000000017a914601d01b88479af729ab95f946a64cad02cf8d71987fbf60b000000000017a914425a42b93a420a05903a816deee2a6c382cac8bd870400483045022100b3d5e7a69bc8980fab3ccba9fa85e4730cada85aa00f6e0350a0ee70e88f5249022058c1a4a59ae6fd8cfbd15e24d27915edb4d57bb91f3c2908c66645e1ec7c95ea0147304402202ab9a1914fd2b8ed37886d7f0e92305ecafa426d7d2413e09fe428d612119c3e022005349982501875f4c5457e0b83444f7226bb358b78ca87f88a0a6ae0e9f861de01475221029149f4b7a7fb02698b40b8c259b0cacc26d9c8dbec0785cc1bb475a30d709eaa21021ba7504f95428868171458363223dad7ab925c81ca917cb158e60901e81a582352ae00000000", "vin": [{"txinwitness": ["", "3045022100b3d5e7a69bc8980fab3ccba9fa85e4730cada85aa00f6e0350a0ee70e88f5249022058c1a4a59ae6fd8cfbd15e24d27915edb4d57bb91f3c2908c66645e1ec7c95ea01", "304402202ab9a1914fd2b8ed37886d7f0e92305ecafa426d7d2413e09fe428d612119c3e022005349982501875f4c5457e0b83444f7226bb358b78ca87f88a0a6ae0e9f861de01", "5221029149f4b7a7fb02698b40b8c259b0cacc26d9c8dbec0785cc1bb475a30d709eaa21021ba7504f95428868171458363223dad7ab925c81ca917cb158e60901e81a582352ae"], "sequence": 4294967295, "scriptSig": {"hex": "220020a708bfb7c7bbbbeadf3340beb77182d43a192cb7e6667dbefaf895e3339ea1c6", "asm": "0020a708bfb7c7bbbbeadf3340beb77182d43a192cb7e6667dbefaf895e3339ea1c6"}, "vout": 1, "txid": "a0fadd7f0f8310e0dc8d86c0df613241721829c199b548f77ca74792ed17b88a"}], "txid": "2f54a6e42c400e3fb7a3fd7769c15849070e87ca93050d182ca251c38b0f4759", "blocktime": 1537873891, "version": 1, "confirmations": 11478, "time": 1537873891, "locktime": 0, "vsize": 206, "size": 371}