{"hash": "2f593c394fc5fd0e2947590990760ed9cf32a2007cf832984b3e09afcf28541c", "blockhash": "00000000000000000018f53835495a110e01622372bf6ae95dc86f2b0ab887b0", "vout": [{"scriptPubKey": {"reqSigs": 1, "hex": "76a9140303010d7c630fe703fbdcea38ed795cbeb123c188ac", "addresses": ["1GvdJgXiybBk8ZJtGbRwSVZKgkjxUQZMG"], "asm": "OP_DUP OP_HASH160 0303010d7c630fe703fbdcea38ed795cbeb123c1 OP_EQUALVERIFY OP_CHECKSIG", "type": "pubkeyhash"}, "value": 0.00024575, "n": 0}, {"scriptPubKey": {"type": "nulldata", "hex": "6a4c500000778600012f061448616686459b63732dbcbefa6b8351586b4e86aeaeacb577c031fc8103ac2eb340c5c4766774c5a44536ff5baa0b59061431619b2703de4bbf23acfcfaac8058b692fe6808c31d", "asm": "OP_RETURN 0000778600012f061448616686459b63732dbcbefa6b8351586b4e86aeaeacb577c031fc8103ac2eb340c5c4766774c5a44536ff5baa0b59061431619b2703de4bbf23acfcfaac8058b692fe6808c31d"}, "value": 0.0, "n": 1}], "hex": "010000000177ac363a0e105ff85c14f935cc96f702d04c23056860c692e98838484be171e3000000006a47304402200c9a1c45812f6685c685329e7062d932135bb1a12857ac245905352bec88a20002206a032ed0db83d6adf5d8ba135ed5f1eaa13f382c396695fc2662be613e5fc58d01210334c314774f7d53d4dd491fdd8acf894f831273d2b5b02c9b6a2b36da39dc0bc3ffffffff02ff5f0000000000001976a9140303010d7c630fe703fbdcea38ed795cbeb123c188ac0000000000000000536a4c500000778600012f061448616686459b63732dbcbefa6b8351586b4e86aeaeacb577c031fc8103ac2eb340c5c4766774c5a44536ff5baa0b59061431619b2703de4bbf23acfcfaac8058b692fe6808c31d00000000", "vin": [{"sequence": 4294967295, "scriptSig": {"hex": "47304402200c9a1c45812f6685c685329e7062d932135bb1a12857ac245905352bec88a20002206a032ed0db83d6adf5d8ba135ed5f1eaa13f382c396695fc2662be613e5fc58d01210334c314774f7d53d4dd491fdd8acf894f831273d2b5b02c9b6a2b36da39dc0bc3", "asm": "304402200c9a1c45812f6685c685329e7062d932135bb1a12857ac245905352bec88a20002206a032ed0db83d6adf5d8ba135ed5f1eaa13f382c396695fc2662be613e5fc58d[ALL] 0334c314774f7d53d4dd491fdd8acf894f831273d2b5b02c9b6a2b36da39dc0bc3"}, "vout": 0, "txid": "e371e14b483888e992c6606805234cd002f796cc35f9145cf85f100e3a36ac77"}], "txid": "2f593c394fc5fd0e2947590990760ed9cf32a2007cf832984b3e09afcf28541c", "blocktime": 1537870928, "version": 1, "confirmations": 11512, "time": 1537870928, "locktime": 0, "vsize": 283, "size": 283}