{"hash": "2f590cab9fb16c96bc5d44c9ae576d8266d310aee2bd5bf7ecd5d23915003733", "blockhash": "0000000000000000000baef3f32e3676a92c3b2e5da21b426e4f302fc371ce76", "vout": [{"scriptPubKey": {"reqSigs": 1, "hex": "a914f60e76962e0ec64d803719f2e17e3810d1a1445487", "addresses": ["3Q83Uf3m9EonRT3XuB7nMigYXfwyhjm3r3"], "asm": "OP_HASH160 f60e76962e0ec64d803719f2e17e3810d1a14454 OP_EQUAL", "type": "scripthash"}, "value": 0.00702, "n": 0}, {"scriptPubKey": {"reqSigs": 1, "hex": "76a9143ad3d01e9120ac1e5c482ea4989d6a99011d29ce88ac", "addresses": ["16N3w9eVpCMMfcptvLcbseMiwg8psuVdky"], "asm": "OP_DUP OP_HASH160 3ad3d01e9120ac1e5c482ea4989d6a99011d29ce OP_EQUALVERIFY OP_CHECKSIG", "type": "pubkeyhash"}, "value": 0.578347, "n": 1}], "hex": "010000000128e363a8b62cf94481a3982c079d4c54ee7ba488ad2f520fabd3112e3a0010b2010000006a47304402203082cc8d7b348de2d220da7728515dcfbd25fcfc63e82f88ac2eaf9af0e4508b02202dff81026cadf45ddc2ac0b2857b867502bcb3e91187a78028c9685ff72fc2e20121036978e6fe6eb0f6492092b15534456948ede1729f9d94dc0caa7f58175850e168feffffff0230b60a000000000017a914f60e76962e0ec64d803719f2e17e3810d1a1445487cc7c7203000000001976a9143ad3d01e9120ac1e5c482ea4989d6a99011d29ce88ac15490800", "vin": [{"sequence": 4294967294, "scriptSig": {"hex": "47304402203082cc8d7b348de2d220da7728515dcfbd25fcfc63e82f88ac2eaf9af0e4508b02202dff81026cadf45ddc2ac0b2857b867502bcb3e91187a78028c9685ff72fc2e20121036978e6fe6eb0f6492092b15534456948ede1729f9d94dc0caa7f58175850e168", "asm": "304402203082cc8d7b348de2d220da7728515dcfbd25fcfc63e82f88ac2eaf9af0e4508b02202dff81026cadf45ddc2ac0b2857b867502bcb3e91187a78028c9685ff72fc2e2[ALL] 036978e6fe6eb0f6492092b15534456948ede1729f9d94dc0caa7f58175850e168"}, "vout": 1, "txid": "b210003a2e11d3ab0f522fad88a47bee544c9d072c98a38144f92cb6a863e328"}], "txid": "2f590cab9fb16c96bc5d44c9ae576d8266d310aee2bd5bf7ecd5d23915003733", "blocktime": 1537876114, "version": 1, "confirmations": 11460, "time": 1537876114, "locktime": 542997, "vsize": 223, "size": 223}