{"hash": "2f66bf3a97752253b69ec9e8ca91457fbbf9595e32df5b73640be8fa5968d160", "blockhash": "0000000000000000000e13cef7c366c0283d82e591d1acd082e914b08063cdf1", "vout": [{"scriptPubKey": {"reqSigs": 1, "hex": "76a9140e40a72cdee80efdb92fec35dfe3c209447dd9ce88ac", "addresses": ["12JMurhFk6QVYsaAjEDAEsJKKkiq1waycy"], "asm": "OP_DUP OP_HASH160 0e40a72cdee80efdb92fec35dfe3c209447dd9ce OP_EQUALVERIFY OP_CHECKSIG", "type": "pubkeyhash"}, "value": 0.02302401, "n": 0}, {"scriptPubKey": {"reqSigs": 1, "hex": "a9149608168ea52a46f3ad13c3575c18d717ae4bd50a87", "addresses": ["3FNJyHnwge8CTxo7V44n9HNTBcepAE4QTJ"], "asm": "OP_HASH160 9608168ea52a46f3ad13c3575c18d717ae4bd50a OP_EQUAL", "type": "scripthash"}, "value": 0.0232774, "n": 1}, {"scriptPubKey": {"reqSigs": 1, "hex": "76a914bb9cd74c370c9e33818f569e966548985a12f12988ac", "addresses": ["1J71FNqUmYXNujyigwAyTiLCG9fX2wXMn7"], "asm": "OP_DUP OP_HASH160 bb9cd74c370c9e33818f569e966548985a12f129 OP_EQUALVERIFY OP_CHECKSIG", "type": "pubkeyhash"}, "value": 0.02479294, "n": 2}, {"scriptPubKey": {"reqSigs": 1, "hex": "a914f954613c6726859e1cad75f0e20e2ff68ae8ea5087", "addresses": ["3QRMG85CYuci2qNdTR2xd7NYr6N2L3UBW6"], "asm": "OP_HASH160 f954613c6726859e1cad75f0e20e2ff68ae8ea50 OP_EQUAL", "type": "scripthash"}, "value": 0.02417634, "n": 3}, {"scriptPubKey": {"reqSigs": 1, "hex": "a914da70a45aad8d7ed346a2073cd939fc4752e0c23e87", "addresses": ["3Mc2AsE1bK5HbzXDXdrTVnAnK38JLaCaEM"], "asm": "OP_HASH160 da70a45aad8d7ed346a2073cd939fc4752e0c23e OP_EQUAL", "type": "scripthash"}, "value": 0.02441471, "n": 4}, {"scriptPubKey": {"reqSigs": 1, "hex": "76a9144a618a623fee6304cd36d09c331009f53311ac6f88ac", "addresses": ["17nHrS5tne6ufMqadTbZqM9PpL2U6B34Yh"], "asm": "OP_DUP OP_HASH160 4a618a623fee6304cd36d09c331009f53311ac6f OP_EQUALVERIFY OP_CHECKSIG", "type": "pubkeyhash"}, "value": 0.02339336, "n": 5}, {"scriptPubKey": {"reqSigs": 1, "hex": "76a9145304440db0bb9bcc97adc7e3d86059e6ab71a8ba88ac", "addresses": ["18ZxCKQGHKEJhHNd5cpjhsQtFf9W8zfA7k"], "asm": "OP_DUP OP_HASH160 5304440db0bb9bcc97adc7e3d86059e6ab71a8ba OP_EQUALVERIFY OP_CHECKSIG", "type": "pubkeyhash"}, "value": 0.02511807, "n": 6}, {"scriptPubKey": {"reqSigs": 1, "hex": "a914fee948f9f757214cd716e458af66ce8c2adc831b87", "addresses": ["3Qvs2CW2ibiZdv6aiSqZWsW15Fud89mfxA"], "asm": "OP_HASH160 fee948f9f757214cd716e458af66ce8c2adc831b OP_EQUAL", "type": "scripthash"}, "value": 0.02399507, "n": 7}, {"scriptPubKey": {"reqSigs": 1, "hex": "76a914a787e79f0413487c31120bb55f7bad3b4b0493d588ac", "addresses": ["1GGpes9hF7QGGEpG3Semv2obq2yzGh3SdZ"], "asm": "OP_DUP OP_HASH160 a787e79f0413487c31120bb55f7bad3b4b0493d5 OP_EQUALVERIFY OP_CHECKSIG", "type": "pubkeyhash"}, "value": 0.02375006, "n": 8}, {"scriptPubKey": {"reqSigs": 1, "hex": "76a914efaa584eb37df86e847d1c25691b9ae9c69ce15188ac", "addresses": ["1NrEZd5vUYv8D75vxADaBpJsWKNxsKikxo"], "asm": "OP_DUP OP_HASH160 efaa584eb37df86e847d1c25691b9ae9c69ce151 OP_EQUALVERIFY OP_CHECKSIG", "type": "pubkeyhash"}, "value": 0.02349243, "n": 9}, {"scriptPubKey": {"reqSigs": 1, "hex": "76a91459323d1f3f85ffc3d614ce5b435d61d8a33164a288ac", "addresses": ["198dKiwDQoUmeRdrb1WU2poP5kNtbBJVJG"], "asm": "OP_DUP OP_HASH160 59323d1f3f85ffc3d614ce5b435d61d8a33164a2 OP_EQUALVERIFY OP_CHECKSIG", "type": "pubkeyhash"}, "value": 0.0253737, "n": 10}, {"scriptPubKey": {"reqSigs": 1, "hex": "76a91498f4decb74e5107302d7a1f3ca69bc044d114e1888ac", "addresses": ["1Ewm43aK9ZSRdBJsh48p3jes3KSKmTdEje"], "asm": "OP_DUP OP_HASH160 98f4decb74e5107302d7a1f3ca69bc044d114e18 OP_EQUALVERIFY OP_CHECKSIG", "type": "pubkeyhash"}, "value": 0.02265967, "n": 11}, {"scriptPubKey": {"reqSigs": 1, "hex": "76a9146640e1d0955e4772ffab9904efed4b5b5d00d52088ac", "addresses": ["1AKfeetdEjjEZPzqa5xXM5yd5zwEjuVFEw"], "asm": "OP_DUP OP_HASH160 6640e1d0955e4772ffab9904efed4b5b5d00d520 OP_EQUALVERIFY OP_CHECKSIG", "type": "pubkeyhash"}, "value": 0.02358257, "n": 12}, {"scriptPubKey": {"reqSigs": 1, "hex": "76a914b8c3efc2ccf3793b60b5326006b75984513c32e288ac", "addresses": ["1Hqx4D4zRognfDvpbb2yCnp45eXKBseiTe"], "asm": "OP_DUP OP_HASH160 b8c3efc2ccf3793b60b5326006b75984513c32e2 OP_EQUALVERIFY OP_CHECKSIG", "type": "pubkeyhash"}, "value": 0.02249318, "n": 13}, {"scriptPubKey": {"reqSigs": 1, "hex": "76a914c233234ebdd1798c547a5bfe705e11002e172f4b88ac", "addresses": ["1JhqMLj4oNG5VaVGDSagvcmGGjzn86dRYw"], "asm": "OP_DUP OP_HASH160 c233234ebdd1798c547a5bfe705e11002e172f4b OP_EQUALVERIFY OP_CHECKSIG", "type": "pubkeyhash"}, "value": 0.02344602, "n": 14}, {"scriptPubKey": {"reqSigs": 1, "hex": "a914a9a2efaec241c873e3795ccd027f719d31ae1df587", "addresses": ["3H9yJyPCxUKosej2BQWpe9gNhzheAYcMaw"], "asm": "OP_HASH160 a9a2efaec241c873e3795ccd027f719d31ae1df5 OP_EQUAL", "type": "scripthash"}, "value": 0.02462597, "n": 15}, {"scriptPubKey": {"reqSigs": 1, "hex": "76a914b5642cd30cdbeee55b5bfb639e66c001e67a278b88ac", "addresses": ["1HY7K1X874Wb1P3TSnnXXtWdeasw2qqgnw"], "asm": "OP_DUP OP_HASH160 b5642cd30cdbeee55b5bfb639e66c001e67a278b OP_EQUALVERIFY OP_CHECKSIG", "type": "pubkeyhash"}, "value": 0.02278812, "n": 16}, {"scriptPubKey": {"reqSigs": 1, "hex": "a9145fd390282ac5a9f9ca206977a2c3e28afbd0582f87", "addresses": ["3ARhZRvDoP9qV9KKoqL3t78iWYmPTzcFSr"], "asm": "OP_HASH160 5fd390282ac5a9f9ca206977a2c3e28afbd0582f OP_EQUAL", "type": "scripthash"}, "value": 0.02302288, "n": 17}, {"scriptPubKey": {"reqSigs": 1, "hex": "76a91445952167c15b1cb7c6808764ec33a479ae1156ef88ac", "addresses": ["17LvH1FfQdgiFUNtMPz1AosfkJGie3ajyU"], "asm": "OP_DUP OP_HASH160 45952167c15b1cb7c6808764ec33a479ae1156ef OP_EQUALVERIFY OP_CHECKSIG", "type": "pubkeyhash"}, "value": 0.02376401, "n": 18}, {"scriptPubKey": {"reqSigs": 1, "hex": "76a91447c76549921a4945b9abd399f011f2fd6787d00388ac", "addresses": ["17YXqsdLYLtonWPdVF6CGg67HxT6TnpkDF"], "asm": "OP_DUP OP_HASH160 47c76549921a4945b9abd399f011f2fd6787d003 OP_EQUALVERIFY OP_CHECKSIG", "type": "pubkeyhash"}, "value": 0.02510821, "n": 19}, {"scriptPubKey": {"reqSigs": 1, "hex": "a9145836605098c7dffdfb0f71e21504b1e7a04fe0ab87", "addresses": ["39jSXYwYSoXrAY4X2GPaV6Tp6W7s4CAz2Y"], "asm": "OP_HASH160 5836605098c7dffdfb0f71e21504b1e7a04fe0ab OP_EQUAL", "type": "scripthash"}, "value": 0.02349045, "n": 20}, {"scriptPubKey": {"reqSigs": 1, "hex": "76a9147a4fbfb5cad0cf20e7db415aa91ef854c0642fa388ac", "addresses": ["1C9iyTCnSbayB5YHFH7UPwHGYgemppCFkw"], "asm": "OP_DUP OP_HASH160 7a4fbfb5cad0cf20e7db415aa91ef854c0642fa3 OP_EQUALVERIFY OP_CHECKSIG", "type": "pubkeyhash"}, "value": 0.02521071, "n": 21}, {"scriptPubKey": {"reqSigs": 1, "hex": "76a914d74497acf09f017eca1549db7595d0627acf88d188ac", "addresses": ["1LdET8hgbRQYxrJ2AfdCFzirGs8hvwpPbb"], "asm": "OP_DUP OP_HASH160 d74497acf09f017eca1549db7595d0627acf88d1 OP_EQUALVERIFY OP_CHECKSIG", "type": "pubkeyhash"}, "value": 0.02387216, "n": 22}, {"scriptPubKey": {"reqSigs": 1, "hex": "76a9140b8c5c8f5081d3588add0a904610aeefe71747f288ac", "addresses": ["1244abwYfrufXSuymN3wTBHMfPjwDy7Fzw"], "asm": "OP_DUP OP_HASH160 0b8c5c8f5081d3588add0a904610aeefe71747f2 OP_EQUALVERIFY OP_CHECKSIG", "type": "pubkeyhash"}, "value": 0.02408545, "n": 23}, {"scriptPubKey": {"reqSigs": 1, "hex": "76a91480f008450759a41ff1771f9f1e63f87ebae4561f88ac", "addresses": ["1Ckm3HtHU31N6XhiRgoWJFHApvZT5s3hms"], "asm": "OP_DUP OP_HASH160 80f008450759a41ff1771f9f1e63f87ebae4561f OP_EQUALVERIFY OP_CHECKSIG", "type": "pubkeyhash"}, "value": 0.02456558, "n": 24}, {"scriptPubKey": {"reqSigs": 1, "hex": "76a91422be503469ad4a4c3e6eb4b4ca50ca404b321a8888ac", "addresses": ["14AhxitDCEwM3NiteWKAsXF1cJHQHeQidn"], "asm": "OP_DUP OP_HASH160 22be503469ad4a4c3e6eb4b4ca50ca404b321a88 OP_EQUALVERIFY OP_CHECKSIG", "type": "pubkeyhash"}, "value": 0.02311086, "n": 25}, {"scriptPubKey": {"reqSigs": 1, "hex": "a9147f44ff345fb9455a4bb866db62e04f9f4757c33887", "addresses": ["3DHxPtpx7JX1gJy4FkQPVXu4GZCyhXWfXQ"], "asm": "OP_HASH160 7f44ff345fb9455a4bb866db62e04f9f4757c338 OP_EQUAL", "type": "scripthash"}, "value": 0.02380555, "n": 26}, {"scriptPubKey": {"reqSigs": 1, "hex": "76a914e640f4c6f5820bc4a1d1adca122df5b83a5f782388ac", "addresses": ["1MzUEMYT3oBoAsGBmFNQCdn75Z46aY1mZk"], "asm": "OP_DUP OP_HASH160 e640f4c6f5820bc4a1d1adca122df5b83a5f7823 OP_EQUALVERIFY OP_CHECKSIG", "type": "pubkeyhash"}, "value": 0.02365415, "n": 27}, {"scriptPubKey": {"reqSigs": 1, "hex": "a914988226e0d96ab4e0ac4265def8307bd470c9a04a87", "addresses": ["3FbQYp4wSgD6BrZy7gEBgput2hrZ8sxMww"], "asm": "OP_HASH160 988226e0d96ab4e0ac4265def8307bd470c9a04a OP_EQUAL", "type": "scripthash"}, "value": 0.0262349, "n": 28}, {"scriptPubKey": {"reqSigs": 1, "hex": "76a9145cb4b376adac281f4eba05a013d533599c93a90b88ac", "addresses": ["19TBdycRbeAN8ffW2yvuNYd2dVRUduzUhm"], "asm": "OP_DUP OP_HASH160 5cb4b376adac281f4eba05a013d533599c93a90b OP_EQUALVERIFY OP_CHECKSIG", "type": "pubkeyhash"}, "value": 0.02341502, "n": 29}, {"scriptPubKey": {"reqSigs": 1, "hex": "76a91426d3a9c8f01e5d6031a53b45042fd9f541bd579488ac", "addresses": ["14YJEufjnVV2Qe1GWmFNXHrWij6ycta3Hw"], "asm": "OP_DUP OP_HASH160 26d3a9c8f01e5d6031a53b45042fd9f541bd5794 OP_EQUALVERIFY OP_CHECKSIG", "type": "pubkeyhash"}, "value": 0.02620979, "n": 30}, {"scriptPubKey": {"reqSigs": 1, "hex": "76a91469accd5587896fe3097a349f87e388eb898fe97388ac", "addresses": ["1AdkxeDUg1eismsaP222KqjpjvJ23GDfw7"], "asm": "OP_DUP OP_HASH160 69accd5587896fe3097a349f87e388eb898fe973 OP_EQUALVERIFY OP_CHECKSIG", "type": "pubkeyhash"}, "value": 0.02272356, "n": 31}, {"scriptPubKey": {"reqSigs": 1, "hex": "76a914a3afe480c6821759211b313ab2e9a02dc578535e88ac", "addresses": ["1FvVrVzCQXvaZFZkmKa57634Lcpsm17CnD"], "asm": "OP_DUP OP_HASH160 a3afe480c6821759211b313ab2e9a02dc578535e OP_EQUALVERIFY OP_CHECKSIG", "type": "pubkeyhash"}, "value": 0.02385611, "n": 32}, {"scriptPubKey": {"reqSigs": 1, "hex": "a9149f0f2df7f125da1d7896db2ef9f46e2ecf869e5087", "addresses": ["3GC3YjqgNUiMSyi8Q2TprWRLPytANzwNX9"], "asm": "OP_HASH160 9f0f2df7f125da1d7896db2ef9f46e2ecf869e50 OP_EQUAL", "type": "scripthash"}, "value": 0.02381718, "n": 33}, {"scriptPubKey": {"reqSigs": 1, "hex": "a9144107ca8dcaf9f86833540d2a8e8c3782ae82dca187", "addresses": ["37csBMdtZGhuPyxsqjwtBYz9A7T17V5wn1"], "asm": "OP_HASH160 4107ca8dcaf9f86833540d2a8e8c3782ae82dca1 OP_EQUAL", "type": "scripthash"}, "value": 0.02269979, "n": 34}, {"scriptPubKey": {"reqSigs": 1, "hex": "76a9145f5ba4416167a57ecd9defe071dbf9dbd924dc7c88ac", "addresses": ["19hCybY7ubvVkFqM4zW41y2pcRi5KTr9vU"], "asm": "OP_DUP OP_HASH160 5f5ba4416167a57ecd9defe071dbf9dbd924dc7c OP_EQUALVERIFY OP_CHECKSIG", "type": "pubkeyhash"}, "value": 0.03310017, "n": 35}, {"scriptPubKey": {"reqSigs": 1, "hex": "76a914bbe0e53203ce8c1e1abd001a92720797cca9262688ac", "addresses": ["1J8QmsY1VHJUa2cJD6J2jLSoFDyjpDrLw6"], "asm": "OP_DUP OP_HASH160 bbe0e53203ce8c1e1abd001a92720797cca92626 OP_EQUALVERIFY OP_CHECKSIG", "type": "pubkeyhash"}, "value": 0.02750942, "n": 36}, {"scriptPubKey": {"reqSigs": 1, "hex": "76a9149fa329b655c684fbcdd586de138ed51df92234a488ac", "addresses": ["1FZ5uG8A2jE9qL97WQQQ6MrYevRb84T4Qm"], "asm": "OP_DUP OP_HASH160 9fa329b655c684fbcdd586de138ed51df92234a4 OP_EQUALVERIFY OP_CHECKSIG", "type": "pubkeyhash"}, "value": 0.02296883, "n": 37}, {"scriptPubKey": {"reqSigs": 1, "hex": "76a914ce2bc7c840ea4b30a2a91cb29835350a754fea1a88ac", "addresses": ["1Ko8eS65S4Evc7ohuDF6APJBMFG3svrCst"], "asm": "OP_DUP OP_HASH160 ce2bc7c840ea4b30a2a91cb29835350a754fea1a OP_EQUALVERIFY OP_CHECKSIG", "type": "pubkeyhash"}, "value": 0.02639131, "n": 38}, {"scriptPubKey": {"reqSigs": 1, "hex": "a9143988e8cd2861c2d83b3bc8ffbac80e431802e81187", "addresses": ["36wET7FchNEpnYb7WzYZnPYynhZsZ2hEAC"], "asm": "OP_HASH160 3988e8cd2861c2d83b3bc8ffbac80e431802e811 OP_EQUAL", "type": "scripthash"}, "value": 0.02266294, "n": 39}, {"scriptPubKey": {"reqSigs": 1, "hex": "a914ee412f0646a064005cd9cc44509851746fb5d11187", "addresses": ["3PQnqExo6bT8xoTy3Pz2S47Gfpag43s7wG"], "asm": "OP_HASH160 ee412f0646a064005cd9cc44509851746fb5d111 OP_EQUAL", "type": "scripthash"}, "value": 0.02292571, "n": 40}, {"scriptPubKey": {"reqSigs": 1, "hex": "76a91421c54067480c62d107ed5b2f65426857c0fedcb588ac", "addresses": ["145ZbcPcbKqdvDqPxuSR1ivVQYqZ5i8fuJ"], "asm": "OP_DUP OP_HASH160 21c54067480c62d107ed5b2f65426857c0fedcb5 OP_EQUALVERIFY OP_CHECKSIG", "type": "pubkeyhash"}, "value": 0.02739593, "n": 41}, {"scriptPubKey": {"reqSigs": 1, "hex": "76a9142ef6f0a41242322fdc37159bb3ebcba4bc0e0f4688ac", "addresses": ["15HKuWxJTysZHgNAFv5Wk3Jo7Vtp3vS5Hs"], "asm": "OP_DUP OP_HASH160 2ef6f0a41242322fdc37159bb3ebcba4bc0e0f46 OP_EQUALVERIFY OP_CHECKSIG", "type": "pubkeyhash"}, "value": 0.02613772, "n": 42}, {"scriptPubKey": {"reqSigs": 1, "hex": "76a914c9664917279ae6935050b48f15c6e26cacbeda9788ac", "addresses": ["1KMuMUpkU2SwPJGFQbD5xYq5kN6HMBjnig"], "asm": "OP_DUP OP_HASH160 c9664917279ae6935050b48f15c6e26cacbeda97 OP_EQUALVERIFY OP_CHECKSIG", "type": "pubkeyhash"}, "value": 0.02526347, "n": 43}, {"scriptPubKey": {"reqSigs": 1, "hex": "76a9146a045015c7f988d19c144dd61df4952b95f1db3a88ac", "addresses": ["1AfZnzhk3ceUgndzQ4z6FZbvyRXfgpSgqJ"], "asm": "OP_DUP OP_HASH160 6a045015c7f988d19c144dd61df4952b95f1db3a OP_EQUALVERIFY OP_CHECKSIG", "type": "pubkeyhash"}, "value": 0.02241398, "n": 44}, {"scriptPubKey": {"reqSigs": 1, "hex": "76a914ba0370d26ab98519b4e98f718e77c39146f2db4a88ac", "addresses": ["1HxYokDx8gpsWfMk69XzBxMVnWjKM2QfKX"], "asm": "OP_DUP OP_HASH160 ba0370d26ab98519b4e98f718e77c39146f2db4a OP_EQUALVERIFY OP_CHECKSIG", "type": "pubkeyhash"}, "value": 0.02639258, "n": 45}, {"scriptPubKey": {"reqSigs": 1, "hex": "a9147520d46029df1db69c4f9a476f987561f2ec50d587", "addresses": ["3CNLK2aNViM1bPfu89a26xPki4iBVSwVKd"], "asm": "OP_HASH160 7520d46029df1db69c4f9a476f987561f2ec50d5 OP_EQUAL", "type": "scripthash"}, "value": 0.02329391, "n": 46}, {"scriptPubKey": {"reqSigs": 1, "hex": "76a914fc90f2fb3f3ca4918ed8d807dc1f2e0311071e0e88ac", "addresses": ["1Q2SvauHBTdcJt26xN1oniQh9xtnbVALmc"], "asm": "OP_DUP OP_HASH160 fc90f2fb3f3ca4918ed8d807dc1f2e0311071e0e OP_EQUALVERIFY OP_CHECKSIG", "type": "pubkeyhash"}, "value": 0.02583649, "n": 47}, {"scriptPubKey": {"reqSigs": 1, "hex": "76a914508728ad7d4ccef79ee5bf0de123d2d49576811e88ac", "addresses": ["18LnyMNbv8SLPEwj6nzf6RWvWCnJyuGZzE"], "asm": "OP_DUP OP_HASH160 508728ad7d4ccef79ee5bf0de123d2d49576811e OP_EQUALVERIFY OP_CHECKSIG", "type": "pubkeyhash"}, "value": 0.0253418, "n": 48}, {"scriptPubKey": {"reqSigs": 1, "hex": "a9143675b7064128800272c09e55bacd7e0a8dc2e72487", "addresses": ["36eyRszS57bdtFR8RrKp2sc52S9ioAm7fP"], "asm": "OP_HASH160 3675b7064128800272c09e55bacd7e0a8dc2e724 OP_EQUAL", "type": "scripthash"}, "value": 0.0222316, "n": 49}, {"scriptPubKey": {"reqSigs": 1, "hex": "76a9146f6dd0061bb40dae626513ac6c510cd37a2d996888ac", "addresses": ["1BABZCwhF6yCQyW77eW8WFtMbrpswtQHYQ"], "asm": "OP_DUP OP_HASH160 6f6dd0061bb40dae626513ac6c510cd37a2d9968 OP_EQUALVERIFY OP_CHECKSIG", "type": "pubkeyhash"}, "value": 0.0239578, "n": 50}, {"scriptPubKey": {"reqSigs": 1, "hex": "a9144ded1e5b3b27bc5c845bd87f41bcd029d96d3a3287", "addresses": ["38o41btrCPCu4xyBFhH4JeTLerWgAg4fSx"], "asm": "OP_HASH160 4ded1e5b3b27bc5c845bd87f41bcd029d96d3a32 OP_EQUAL", "type": "scripthash"}, "value": 0.02384005, "n": 51}, {"scriptPubKey": {"reqSigs": 1, "hex": "76a914cc415e6f54e9db5f7a85da414a4fe2dec048d0ad88ac", "addresses": ["1Kd1A3WVZfu3iaDipH45bP6M874rm4yLjm"], "asm": "OP_DUP OP_HASH160 cc415e6f54e9db5f7a85da414a4fe2dec048d0ad OP_EQUALVERIFY OP_CHECKSIG", "type": "pubkeyhash"}, "value": 0.02348888, "n": 52}, {"scriptPubKey": {"reqSigs": 1, "hex": "a914009b9c0f9847a1fc74e0dc230f04816c4cef406f87", "addresses": ["31kELVKx4pxWKYrVfTFoy2jqxePYRCAgPc"], "asm": "OP_HASH160 009b9c0f9847a1fc74e0dc230f04816c4cef406f OP_EQUAL", "type": "scripthash"}, "value": 0.02423389, "n": 53}, {"scriptPubKey": {"reqSigs": 1, "hex": "76a914dfe487412084a258361d72b238f786b75be8917e88ac", "addresses": ["1MQqTCv74JL2TFfULftX4JXHBG7x4Yfw9X"], "asm": "OP_DUP OP_HASH160 dfe487412084a258361d72b238f786b75be8917e OP_EQUALVERIFY OP_CHECKSIG", "type": "pubkeyhash"}, "value": 0.02527971, "n": 54}, {"scriptPubKey": {"reqSigs": 1, "hex": "76a914c05dfbc5ec3226d2bcb552d9d110417e5969ad8288ac", "addresses": ["1JY9KvHavNrdqjRoGXmX5WiT5rQs94BKrV"], "asm": "OP_DUP OP_HASH160 c05dfbc5ec3226d2bcb552d9d110417e5969ad82 OP_EQUALVERIFY OP_CHECKSIG", "type": "pubkeyhash"}, "value": 0.02317372, "n": 55}, {"scriptPubKey": {"reqSigs": 1, "hex": "76a91402a49cf3dd74d9390fe7c2a8734b84838580147f88ac", "addresses": ["1EyYuKdbF3bdpPhycweeU6tRnHR5sgtUg"], "asm": "OP_DUP OP_HASH160 02a49cf3dd74d9390fe7c2a8734b84838580147f OP_EQUALVERIFY OP_CHECKSIG", "type": "pubkeyhash"}, "value": 0.02291513, "n": 56}, {"scriptPubKey": {"reqSigs": 1, "hex": "a914148ca29ff1cf02847d0d805592bb1f7962dd8fda87", "addresses": ["33ZfutX29xLDbdhRgnLu9NHbHr2ByRCLhv"], "asm": "OP_HASH160 148ca29ff1cf02847d0d805592bb1f7962dd8fda OP_EQUAL", "type": "scripthash"}, "value": 0.02329805, "n": 57}, {"scriptPubKey": {"reqSigs": 1, "hex": "76a91441acba614fded237581593e241fda7e018f373ce88ac", "addresses": ["16zFqpoHxnoaUeAUihmxz3ba7GFYJrG5hq"], "asm": "OP_DUP OP_HASH160 41acba614fded237581593e241fda7e018f373ce OP_EQUALVERIFY OP_CHECKSIG", "type": "pubkeyhash"}, "value": 0.02610123, "n": 58}, {"scriptPubKey": {"reqSigs": 1, "hex": "a914f1d069ba012956c1b59a10a6ac0f1ce5cfcdf95787", "addresses": ["3PjcSZeDjWrW67NHv1Pf884Zc8issD3YMP"], "asm": "OP_HASH160 f1d069ba012956c1b59a10a6ac0f1ce5cfcdf957 OP_EQUAL", "type": "scripthash"}, "value": 0.02308638, "n": 59}, {"scriptPubKey": {"reqSigs": 1, "hex": "76a9149bed550954c3ffc0a1531738224cdf88d57d4b7488ac", "addresses": ["1FDU3s1YV8TAMCNt3ks2LFQpqqQPrGSVCJ"], "asm": "OP_DUP OP_HASH160 9bed550954c3ffc0a1531738224cdf88d57d4b74 OP_EQUALVERIFY OP_CHECKSIG", "type": "pubkeyhash"}, "value": 0.02319335, "n": 60}, {"scriptPubKey": {"reqSigs": 1, "hex": "76a91449481291f59fe4eb429390a4c8c937181a0cd3ba88ac", "addresses": ["17gUfh76YtWj9Vt17KHniuu5UjXfL7Bt6W"], "asm": "OP_DUP OP_HASH160 49481291f59fe4eb429390a4c8c937181a0cd3ba OP_EQUALVERIFY OP_CHECKSIG", "type": "pubkeyhash"}, "value": 0.02286862, "n": 61}, {"scriptPubKey": {"reqSigs": 1, "hex": "76a914e419db30f5efdd60d5378d2508e5ce7a80fbe37688ac", "addresses": ["1Mo63G1Hno1qmVabU38bQ9VaCZ22rMUpsk"], "asm": "OP_DUP OP_HASH160 e419db30f5efdd60d5378d2508e5ce7a80fbe376 OP_EQUALVERIFY OP_CHECKSIG", "type": "pubkeyhash"}, "value": 0.02354737, "n": 62}, {"scriptPubKey": {"reqSigs": 1, "hex": "a9143fe641ff446efd271f0b656277179f09e451b65787", "addresses": ["37WtLDoebrGHVFEfkmnVuYuA5QHPcmFxyc"], "asm": "OP_HASH160 3fe641ff446efd271f0b656277179f09e451b657 OP_EQUAL", "type": "scripthash"}, "value": 0.0233515, "n": 63}, {"scriptPubKey": {"reqSigs": 1, "hex": "a9146530d004d6764f1fa0948f227d4f2310c12c5c1387", "addresses": ["3Av4eUYYz5NNc4p2u8nAruhzjwfzfG4PN7"], "asm": "OP_HASH160 6530d004d6764f1fa0948f227d4f2310c12c5c13 OP_EQUAL", "type": "scripthash"}, "value": 0.0224132, "n": 64}, {"scriptPubKey": {"reqSigs": 1, "hex": "76a9145f7ca2712454fb73babc5ed5f09ede65c0d8419c88ac", "addresses": ["19htVz3PcJiE8mePQ16WmfpkQxRyZTu5JZ"], "asm": "OP_DUP OP_HASH160 5f7ca2712454fb73babc5ed5f09ede65c0d8419c OP_EQUALVERIFY OP_CHECKSIG", "type": "pubkeyhash"}, "value": 0.02503152, "n": 65}, {"scriptPubKey": {"reqSigs": 1, "hex": "a91440168f94d405b96b2dad3962063eb53054f2ea9787", "addresses": ["37XtCNqMfyTgq29joQMjFwkq1r5e584dgK"], "asm": "OP_HASH160 40168f94d405b96b2dad3962063eb53054f2ea97 OP_EQUAL", "type": "scripthash"}, "value": 0.02668528, "n": 66}, {"scriptPubKey": {"reqSigs": 1, "hex": "76a9148aadb2f95fdd13f7265b35bc95b15e9ac581fa1888ac", "addresses": ["1DeGLJLQje4ENdd99zACuq87hsJxK285pU"], "asm": "OP_DUP OP_HASH160 8aadb2f95fdd13f7265b35bc95b15e9ac581fa18 OP_EQUALVERIFY OP_CHECKSIG", "type": "pubkeyhash"}, "value": 0.02464254, "n": 67}, {"scriptPubKey": {"reqSigs": 1, "hex": "76a9145d3bf2c33a3f108f5eb83b14aaad5f2555c5182e88ac", "addresses": ["19Vyf7zVrAgQbnZ6P7UZYJLHZRxZuRW8w1"], "asm": "OP_DUP OP_HASH160 5d3bf2c33a3f108f5eb83b14aaad5f2555c5182e OP_EQUALVERIFY OP_CHECKSIG", "type": "pubkeyhash"}, "value": 0.02307495, "n": 68}, {"scriptPubKey": {"reqSigs": 1, "hex": "76a914935d7e87ce263b9a98128df1dab05b48040e0abe88ac", "addresses": ["1ESCLJ4RdqQsMnbnnuHsnD6UjgyCrVc6JX"], "asm": "OP_DUP OP_HASH160 935d7e87ce263b9a98128df1dab05b48040e0abe OP_EQUALVERIFY OP_CHECKSIG", "type": "pubkeyhash"}, "value": 0.02749626, "n": 69}, {"scriptPubKey": {"reqSigs": 1, "hex": "76a9144e4b3935265408eebf8de25b8257820d321d71f988ac", "addresses": ["188ypahAk5ZMDQmzpr76P8pxbaQNK1gDoe"], "asm": "OP_DUP OP_HASH160 4e4b3935265408eebf8de25b8257820d321d71f9 OP_EQUALVERIFY OP_CHECKSIG", "type": "pubkeyhash"}, "value": 0.02733966, "n": 70}, {"scriptPubKey": {"reqSigs": 1, "hex": "76a91461690bf99bda6e8893fc6f94fea72691ec794df488ac", "addresses": ["19t4PPNBNNeE8KYmK1ZU1UDVUYGfggRGPx"], "asm": "OP_DUP OP_HASH160 61690bf99bda6e8893fc6f94fea72691ec794df4 OP_EQUALVERIFY OP_CHECKSIG", "type": "pubkeyhash"}, "value": 0.02728912, "n": 71}, {"scriptPubKey": {"reqSigs": 1, "hex": "76a9146c852fe56512abf77490d012c5490ed6f3e3f9c988ac", "addresses": ["1AtoXiiS16tQktqDExsqxjJXjzEFHJWACt"], "asm": "OP_DUP OP_HASH160 6c852fe56512abf77490d012c5490ed6f3e3f9c9 OP_EQUALVERIFY OP_CHECKSIG", "type": "pubkeyhash"}, "value": 0.02586934, "n": 72}, {"scriptPubKey": {"reqSigs": 1, "hex": "a9146d87cb3eba6959ee2528ffdc15fa205409a36ee187", "addresses": ["3BgAFadZWsc3zQoC1HKBYes6YbfUgMeXUu"], "asm": "OP_HASH160 6d87cb3eba6959ee2528ffdc15fa205409a36ee1 OP_EQUAL", "type": "scripthash"}, "value": 0.02585033, "n": 73}, {"scriptPubKey": {"reqSigs": 1, "hex": "76a91403763057e12fbc03ea7e59975dbd82af1c121f8688ac", "addresses": ["1KJcUr8wGwA2TutSMUBgMrefR9jVvJeRo"], "asm": "OP_DUP OP_HASH160 03763057e12fbc03ea7e59975dbd82af1c121f86 OP_EQUALVERIFY OP_CHECKSIG", "type": "pubkeyhash"}, "value": 0.02326998, "n": 74}, {"scriptPubKey": {"reqSigs": 1, "hex": "a914b140d916eabe43d4eb7af3975690d2f6bd048c0287", "addresses": ["3HrFDDVVAcvqpstoTtm4dBue3W5xmH2JMr"], "asm": "OP_HASH160 b140d916eabe43d4eb7af3975690d2f6bd048c02 OP_EQUAL", "type": "scripthash"}, "value": 0.02665644, "n": 75}, {"scriptPubKey": {"reqSigs": 1, "hex": "76a9144d735409ebd10a4ce0af7c2c5d291c717d07171488ac", "addresses": ["184XBvN6pFDSnnLCthCPjmWNxcYbxxakJv"], "asm": "OP_DUP OP_HASH160 4d735409ebd10a4ce0af7c2c5d291c717d071714 OP_EQUALVERIFY OP_CHECKSIG", "type": "pubkeyhash"}, "value": 0.02322717, "n": 76}, {"scriptPubKey": {"reqSigs": 1, "hex": "76a91435f2bbc48ac44a64670fda5282b014623270af2388ac", "addresses": ["15vFbaseeFNnrZQJvCZRU7QT7ku3ccvdKW"], "asm": "OP_DUP OP_HASH160 35f2bbc48ac44a64670fda5282b014623270af23 OP_EQUALVERIFY OP_CHECKSIG", "type": "pubkeyhash"}, "value": 286.21516958, "n": 77}, {"scriptPubKey": {"reqSigs": 1, "hex": "76a914d09ceb81184e4f947b4edd508ecc6f8bec9d6fd488ac", "addresses": ["1L23XtaH2SR73waJz8uftEk1BGcSp63WAS"], "asm": "OP_DUP OP_HASH160 d09ceb81184e4f947b4edd508ecc6f8bec9d6fd4 OP_EQUALVERIFY OP_CHECKSIG", "type": "pubkeyhash"}, "value": 0.02268727, "n": 78}, {"scriptPubKey": {"reqSigs": 1, "hex": "76a9141941d1344cf40b595da70e3b7a342b15e0fdde6588ac", "addresses": ["13JYjrcBYxWBhTEDTuydQWQSY1d4vPwNjy"], "asm": "OP_DUP OP_HASH160 1941d1344cf40b595da70e3b7a342b15e0fdde65 OP_EQUALVERIFY OP_CHECKSIG", "type": "pubkeyhash"}, "value": 0.02403615, "n": 79}, {"scriptPubKey": {"reqSigs": 1, "hex": "76a9146317d341679d267d47c52ed76f7e1b242705a3b388ac", "addresses": ["1A2xSPz8PeT6YYBKrRGDyZgV9AF8WFEZNs"], "asm": "OP_DUP OP_HASH160 6317d341679d267d47c52ed76f7e1b242705a3b3 OP_EQUALVERIFY OP_CHECKSIG", "type": "pubkeyhash"}, "value": 0.02362914, "n": 80}, {"scriptPubKey": {"reqSigs": 1, "hex": "76a914b4703fdff3519abb569a16f5b98a411f9d66d05c88ac", "addresses": ["1HT56mD8dU2yAHgAnzB3FZikhvNjr1rP3A"], "asm": "OP_DUP OP_HASH160 b4703fdff3519abb569a16f5b98a411f9d66d05c OP_EQUALVERIFY OP_CHECKSIG", "type": "pubkeyhash"}, "value": 0.02433402, "n": 81}, {"scriptPubKey": {"reqSigs": 1, "hex": "a9144040bce4906824e2fc0d68c61b5444c5946af9bf87", "addresses": ["37YkitNGwTZDUaMx8N3133YqCEyE6QXZ66"], "asm": "OP_HASH160 4040bce4906824e2fc0d68c61b5444c5946af9bf OP_EQUAL", "type": "scripthash"}, "value": 0.02230954, "n": 82}, {"scriptPubKey": {"reqSigs": 1, "hex": "76a914da28f507e61c06d321da2f6d96b1b9fbd1465ee788ac", "addresses": ["1LtXNaAdBdYrrqktXGLkcd1m58pihyebQk"], "asm": "OP_DUP OP_HASH160 da28f507e61c06d321da2f6d96b1b9fbd1465ee7 OP_EQUALVERIFY OP_CHECKSIG", "type": "pubkeyhash"}, "value": 0.02341585, "n": 83}, {"scriptPubKey": {"reqSigs": 1, "hex": "76a914d640e0e7be503f1197f8b079ea0183c93b2be73f88ac", "addresses": ["1LXsKthmBtmBPurxFVErogxz6SvJWYXayZ"], "asm": "OP_DUP OP_HASH160 d640e0e7be503f1197f8b079ea0183c93b2be73f OP_EQUALVERIFY OP_CHECKSIG", "type": "pubkeyhash"}, "value": 0.02217251, "n": 84}, {"scriptPubKey": {"reqSigs": 1, "hex": "76a91425adf0a7f689e0839bed573a0a5699f7d77de29488ac", "addresses": ["14SENfadq7U4BE2pjxSgmj2UU1Q6pvEmKp"], "asm": "OP_DUP OP_HASH160 25adf0a7f689e0839bed573a0a5699f7d77de294 OP_EQUALVERIFY OP_CHECKSIG", "type": "pubkeyhash"}, "value": 0.02466772, "n": 85}, {"scriptPubKey": {"reqSigs": 1, "hex": "a914d8533bc01641d3253aeaf0114a28c9bcb438018887", "addresses": ["3MQqb8uYWmPemnVARroCsw2xsfU1Z2PbHc"], "asm": "OP_HASH160 d8533bc01641d3253aeaf0114a28c9bcb4380188 OP_EQUAL", "type": "scripthash"}, "value": 0.02658635, "n": 86}, {"scriptPubKey": {"reqSigs": 1, "hex": "76a914285d157d0a8de1c6a540aa241b7f6e37382df36688ac", "addresses": ["14gRYG1GDzjo4ziSZzGTBPk8nUequsgxCA"], "asm": "OP_DUP OP_HASH160 285d157d0a8de1c6a540aa241b7f6e37382df366 OP_EQUALVERIFY OP_CHECKSIG", "type": "pubkeyhash"}, "value": 0.02463502, "n": 87}, {"scriptPubKey": {"reqSigs": 1, "hex": "76a91428b50c80bdd38d4160a8fb8e95650a3ed14995f888ac", "addresses": ["14iEvAhB2HVXk4uWFVnHXoZA6TX2o2Qtkx"], "asm": "OP_DUP OP_HASH160 28b50c80bdd38d4160a8fb8e95650a3ed14995f8 OP_EQUALVERIFY OP_CHECKSIG", "type": "pubkeyhash"}, "value": 0.02378907, "n": 88}, {"scriptPubKey": {"reqSigs": 1, "hex": "76a9143d151cdd73444a1f6b67e6c77b6d74b18b54cd5d88ac", "addresses": ["16ZyWeD6EqjUgh7Y74juzQj5rCWiw38Cmq"], "asm": "OP_DUP OP_HASH160 3d151cdd73444a1f6b67e6c77b6d74b18b54cd5d OP_EQUALVERIFY OP_CHECKSIG", "type": "pubkeyhash"}, "value": 0.02329058, "n": 89}, {"scriptPubKey": {"reqSigs": 1, "hex": "76a91433a9f45956e17f754c8cbeacd2d2367f03dd886688ac", "addresses": ["15iB4RqWFNTShpd5AjjikKsmwzBHsT1HPP"], "asm": "OP_DUP OP_HASH160 33a9f45956e17f754c8cbeacd2d2367f03dd8866 OP_EQUALVERIFY OP_CHECKSIG", "type": "pubkeyhash"}, "value": 0.02520292, "n": 90}, {"scriptPubKey": {"reqSigs": 1, "hex": "76a9140bce26d7f65b2bec326addee42371c0c5de499cd88ac", "addresses": ["125RPnTAyJVwF7HZ48scvgHDX1rWYNvjVg"], "asm": "OP_DUP OP_HASH160 0bce26d7f65b2bec326addee42371c0c5de499cd OP_EQUALVERIFY OP_CHECKSIG", "type": "pubkeyhash"}, "value": 0.02485801, "n": 91}, {"scriptPubKey": {"reqSigs": 1, "hex": "76a91409f7b33f7d7b237d78b0550fa91bd73611b2fef388ac", "addresses": ["1uhpEm2GSkwAFozvf8RWaerEMx7vNi1Ub"], "asm": "OP_DUP OP_HASH160 09f7b33f7d7b237d78b0550fa91bd73611b2fef3 OP_EQUALVERIFY OP_CHECKSIG", "type": "pubkeyhash"}, "value": 0.02468432, "n": 92}, {"scriptPubKey": {"reqSigs": 1, "hex": "a914f3c8390450cd1d240df5cabde89e467c3f86abe487", "addresses": ["3Pv1ysq3JksiMPQjtGoRoyguPZ2h8NDKwX"], "asm": "OP_HASH160 f3c8390450cd1d240df5cabde89e467c3f86abe4 OP_EQUAL", "type": "scripthash"}, "value": 0.02463547, "n": 93}, {"scriptPubKey": {"reqSigs": 1, "hex": "76a9149ff54a652e91f2d32f21a1af9cd1d6198c7c6f7288ac", "addresses": ["1FanHbHeavisJQB55b3Lh9sZ6UAzfMBV5L"], "asm": "OP_DUP OP_HASH160 9ff54a652e91f2d32f21a1af9cd1d6198c7c6f72 OP_EQUALVERIFY OP_CHECKSIG", "type": "pubkeyhash"}, "value": 0.02667153, "n": 94}, {"scriptPubKey": {"reqSigs": 1, "hex": "76a91480f20e9de949a964edcb17717f35b411fd174a9188ac", "addresses": ["1CkoTyd5ch4XajNJQSDRBunTgq5VposJN5"], "asm": "OP_DUP OP_HASH160 80f20e9de949a964edcb17717f35b411fd174a91 OP_EQUALVERIFY OP_CHECKSIG", "type": "pubkeyhash"}, "value": 0.02295055, "n": 95}, {"scriptPubKey": {"reqSigs": 1, "hex": "76a914f6d50b8d7cea944549479f8c755e67933052b52c88ac", "addresses": ["1PW8SpsBbcjyyFr77v4SGr97Komj7pi6Ef"], "asm": "OP_DUP OP_HASH160 f6d50b8d7cea944549479f8c755e67933052b52c OP_EQUALVERIFY OP_CHECKSIG", "type": "pubkeyhash"}, "value": 0.02388039, "n": 96}, {"scriptPubKey": {"reqSigs": 1, "hex": "76a914d946a81fbf0d2cfcbe2221af653c4ff6ae94b2c488ac", "addresses": ["1LorGwhqZLYzDKpwDfLN8DGLiSbXXMsqVk"], "asm": "OP_DUP OP_HASH160 d946a81fbf0d2cfcbe2221af653c4ff6ae94b2c4 OP_EQUALVERIFY OP_CHECKSIG", "type": "pubkeyhash"}, "value": 0.02637625, "n": 97}, {"scriptPubKey": {"reqSigs": 1, "hex": "a9145e37f53efc0487ab7bfab15e9e412b815f4a4fad87", "addresses": ["3AHCUc4RGakMTLvbrxHDtos6mXw7iX6tM3"], "asm": "OP_HASH160 5e37f53efc0487ab7bfab15e9e412b815f4a4fad OP_EQUAL", "type": "scripthash"}, "value": 0.02410992, "n": 98}, {"scriptPubKey": {"reqSigs": 1, "hex": "76a914452766064b60f35a0762b33e4b1bb64877bce91b88ac", "addresses": ["17JephGxtHfWroJ7WSHHBYDys4xWcsXhyv"], "asm": "OP_DUP OP_HASH160 452766064b60f35a0762b33e4b1bb64877bce91b OP_EQUALVERIFY OP_CHECKSIG", "type": "pubkeyhash"}, "value": 0.02624532, "n": 99}, {"scriptPubKey": {"reqSigs": 1, "hex": "76a91495abdd0a38cf1d3f898325846de3f6f56b2df43288ac", "addresses": ["1EePZs6UNQgbTP54DCSTbMTzDcp4umPS7Q"], "asm": "OP_DUP OP_HASH160 95abdd0a38cf1d3f898325846de3f6f56b2df432 OP_EQUALVERIFY OP_CHECKSIG", "type": "pubkeyhash"}, "value": 0.0254576, "n": 100}], "hex": "0200000001c0219b08461fe6e52f7134e88e5113497454c7590880868ae9fd841c225a9cf42a0000006b483045022100978e00c7c77eb400dd56a7edd162165619e3310a6ba9e6e6773181311f5f941902206f151e46b9d953f416d97e8c50afb271d064af52312eb7c33c1c71ec0df4d147012103364c699c4e0129726039a5a4b4daa40e66cd7e720a2b5c003b5ae56d383d661afeffffff65c1212300000000001976a9140e40a72cdee80efdb92fec35dfe3c209447dd9ce88acbc8423000000000017a9149608168ea52a46f3ad13c3575c18d717ae4bd50a87bed42500000000001976a914bb9cd74c370c9e33818f569e966548985a12f12988ace2e324000000000017a914f954613c6726859e1cad75f0e20e2ff68ae8ea5087ff4025000000000017a914da70a45aad8d7ed346a2073cd939fc4752e0c23e8708b22300000000001976a9144a618a623fee6304cd36d09c331009f53311ac6f88acbf532600000000001976a9145304440db0bb9bcc97adc7e3d86059e6ab71a8ba88ac139d24000000000017a914fee948f9f757214cd716e458af66ce8c2adc831b875e3d2400000000001976a914a787e79f0413487c31120bb55f7bad3b4b0493d588acbbd82300000000001976a914efaa584eb37df86e847d1c25691b9ae9c69ce15188ac9ab72600000000001976a91459323d1f3f85ffc3d614ce5b435d61d8a33164a288ac6f932200000000001976a91498f4decb74e5107302d7a1f3ca69bc044d114e1888acf1fb2300000000001976a9146640e1d0955e4772ffab9904efed4b5b5d00d52088ac66522200000000001976a914b8c3efc2ccf3793b60b5326006b75984513c32e288ac9ac62300000000001976a914c233234ebdd1798c547a5bfe705e11002e172f4b88ac859325000000000017a914a9a2efaec241c873e3795ccd027f719d31ae1df5879cc52200000000001976a914b5642cd30cdbeee55b5bfb639e66c001e67a278b88ac502123000000000017a9145fd390282ac5a9f9ca206977a2c3e28afbd0582f87d1422400000000001976a91445952167c15b1cb7c6808764ec33a479ae1156ef88ace54f2600000000001976a91447c76549921a4945b9abd399f011f2fd6787d00388acf5d723000000000017a9145836605098c7dffdfb0f71e21504b1e7a04fe0ab87ef772600000000001976a9147a4fbfb5cad0cf20e7db415aa91ef854c0642fa388ac106d2400000000001976a914d74497acf09f017eca1549db7595d0627acf88d188ac61c02400000000001976a9140b8c5c8f5081d3588add0a904610aeefe71747f288acee7b2500000000001976a91480f008450759a41ff1771f9f1e63f87ebae4561f88acae432300000000001976a91422be503469ad4a4c3e6eb4b4ca50ca404b321a8888ac0b5324000000000017a9147f44ff345fb9455a4bb866db62e04f9f4757c33887e7172400000000001976a914e640f4c6f5820bc4a1d1adca122df5b83a5f782388ac020828000000000017a914988226e0d96ab4e0ac4265def8307bd470c9a04a877eba2300000000001976a9145cb4b376adac281f4eba05a013d533599c93a90b88ac33fe2700000000001976a91426d3a9c8f01e5d6031a53b45042fd9f541bd579488ac64ac2200000000001976a91469accd5587896fe3097a349f87e388eb898fe97388accb662400000000001976a914a3afe480c6821759211b313ab2e9a02dc578535e88ac965724000000000017a9149f0f2df7f125da1d7896db2ef9f46e2ecf869e50871ba322000000000017a9144107ca8dcaf9f86833540d2a8e8c3782ae82dca187c1813200000000001976a9145f5ba4416167a57ecd9defe071dbf9dbd924dc7c88acdef92900000000001976a914bbe0e53203ce8c1e1abd001a92720797cca9262688ac330c2300000000001976a9149fa329b655c684fbcdd586de138ed51df92234a488ac1b452800000000001976a914ce2bc7c840ea4b30a2a91cb29835350a754fea1a88acb69422000000000017a9143988e8cd2861c2d83b3bc8ffbac80e431802e811875bfb22000000000017a914ee412f0646a064005cd9cc44509851746fb5d1118789cd2900000000001976a91421c54067480c62d107ed5b2f65426857c0fedcb588ac0ce22700000000001976a9142ef6f0a41242322fdc37159bb3ebcba4bc0e0f4688ac8b8c2600000000001976a914c9664917279ae6935050b48f15c6e26cacbeda9788ac76332200000000001976a9146a045015c7f988d19c144dd61df4952b95f1db3a88ac9a452800000000001976a914ba0370d26ab98519b4e98f718e77c39146f2db4a88ac2f8b23000000000017a9147520d46029df1db69c4f9a476f987561f2ec50d587616c2700000000001976a914fc90f2fb3f3ca4918ed8d807dc1f2e0311071e0e88ac24ab2600000000001976a914508728ad7d4ccef79ee5bf0de123d2d49576811e88ac38ec21000000000017a9143675b7064128800272c09e55bacd7e0a8dc2e72487848e2400000000001976a9146f6dd0061bb40dae626513ac6c510cd37a2d996888ac856024000000000017a9144ded1e5b3b27bc5c845bd87f41bcd029d96d3a328758d72300000000001976a914cc415e6f54e9db5f7a85da414a4fe2dec048d0ad88ac5dfa24000000000017a914009b9c0f9847a1fc74e0dc230f04816c4cef406f87e3922600000000001976a914dfe487412084a258361d72b238f786b75be8917e88ac3c5c2300000000001976a914c05dfbc5ec3226d2bcb552d9d110417e5969ad8288ac39f72200000000001976a91402a49cf3dd74d9390fe7c2a8734b84838580147f88accd8c23000000000017a914148ca29ff1cf02847d0d805592bb1f7962dd8fda87cbd32700000000001976a91441acba614fded237581593e241fda7e018f373ce88ac1e3a23000000000017a914f1d069ba012956c1b59a10a6ac0f1ce5cfcdf95787e7632300000000001976a9149bed550954c3ffc0a1531738224cdf88d57d4b7488ac0ee52200000000001976a91449481291f59fe4eb429390a4c8c937181a0cd3ba88ac31ee2300000000001976a914e419db30f5efdd60d5378d2508e5ce7a80fbe37688acaea123000000000017a9143fe641ff446efd271f0b656277179f09e451b65787283322000000000017a9146530d004d6764f1fa0948f227d4f2310c12c5c1387f0312600000000001976a9145f7ca2712454fb73babc5ed5f09ede65c0d8419c88acf0b728000000000017a91440168f94d405b96b2dad3962063eb53054f2ea9787fe992500000000001976a9148aadb2f95fdd13f7265b35bc95b15e9ac581fa1888aca7352300000000001976a9145d3bf2c33a3f108f5eb83b14aaad5f2555c5182e88acbaf42900000000001976a914935d7e87ce263b9a98128df1dab05b48040e0abe88ac8eb72900000000001976a9144e4b3935265408eebf8de25b8257820d321d71f988acd0a32900000000001976a91461690bf99bda6e8893fc6f94fea72691ec794df488ac36792700000000001976a9146c852fe56512abf77490d012c5490ed6f3e3f9c988acc97127000000000017a9146d87cb3eba6959ee2528ffdc15fa205409a36ee187d6812300000000001976a91403763057e12fbc03ea7e59975dbd82af1c121f8688acacac28000000000017a914b140d916eabe43d4eb7af3975690d2f6bd048c02871d712300000000001976a9144d735409ebd10a4ce0af7c2c5d291c717d07171488ac9eb0f9a9060000001976a91435f2bbc48ac44a64670fda5282b014623270af2388ac379e2200000000001976a914d09ceb81184e4f947b4edd508ecc6f8bec9d6fd488ac1fad2400000000001976a9141941d1344cf40b595da70e3b7a342b15e0fdde6588ac220e2400000000001976a9146317d341679d267d47c52ed76f7e1b242705a3b388ac7a212500000000001976a914b4703fdff3519abb569a16f5b98a411f9d66d05c88acaa0a22000000000017a9144040bce4906824e2fc0d68c61b5444c5946af9bf87d1ba2300000000001976a914da28f507e61c06d321da2f6d96b1b9fbd1465ee788ac23d52100000000001976a914d640e0e7be503f1197f8b079ea0183c93b2be73f88acd4a32500000000001976a91425adf0a7f689e0839bed573a0a5699f7d77de29488ac4b9128000000000017a914d8533bc01641d3253aeaf0114a28c9bcb4380188870e972500000000001976a914285d157d0a8de1c6a540aa241b7f6e37382df36688ac9b4c2400000000001976a91428b50c80bdd38d4160a8fb8e95650a3ed14995f888ace2892300000000001976a9143d151cdd73444a1f6b67e6c77b6d74b18b54cd5d88ace4742600000000001976a91433a9f45956e17f754c8cbeacd2d2367f03dd886688ac29ee2500000000001976a9140bce26d7f65b2bec326addee42371c0c5de499cd88ac50aa2500000000001976a91409f7b33f7d7b237d78b0550fa91bd73611b2fef388ac3b9725000000000017a914f3c8390450cd1d240df5cabde89e467c3f86abe48791b22800000000001976a9149ff54a652e91f2d32f21a1af9cd1d6198c7c6f7288ac0f052300000000001976a91480f20e9de949a964edcb17717f35b411fd174a9188ac47702400000000001976a914f6d50b8d7cea944549479f8c755e67933052b52c88ac393f2800000000001976a914d946a81fbf0d2cfcbe2221af653c4ff6ae94b2c488acf0c924000000000017a9145e37f53efc0487ab7bfab15e9e412b815f4a4fad87140c2800000000001976a914452766064b60f35a0762b33e4b1bb64877bce91b88ac60d82600000000001976a91495abdd0a38cf1d3f898325846de3f6f56b2df43288ac10490800", "vin": [{"sequence": 4294967294, "scriptSig": {"hex": "483045022100978e00c7c77eb400dd56a7edd162165619e3310a6ba9e6e6773181311f5f941902206f151e46b9d953f416d97e8c50afb271d064af52312eb7c33c1c71ec0df4d147012103364c699c4e0129726039a5a4b4daa40e66cd7e720a2b5c003b5ae56d383d661a", "asm": "3045022100978e00c7c77eb400dd56a7edd162165619e3310a6ba9e6e6773181311f5f941902206f151e46b9d953f416d97e8c50afb271d064af52312eb7c33c1c71ec0df4d147[ALL] 03364c699c4e0129726039a5a4b4daa40e66cd7e720a2b5c003b5ae56d383d661a"}, "vout": 42, "txid": "f49c5a221c84fde98a86800859c754744913518ee834712fe5e61f46089b21c0"}], "txid": "2f66bf3a97752253b69ec9e8ca91457fbbf9595e32df5b73640be8fa5968d160", "blocktime": 1537871767, "version": 2, "confirmations": 11495, "time": 1537871767, "locktime": 542992, "vsize": 3536, "size": 3536}