{"hash": "392cdb72d5bd6b165e13b547d0f2e8e20f01917100539f30315d73b78fc2617d", "blockhash": "0000000000000000000e13cef7c366c0283d82e591d1acd082e914b08063cdf1", "vout": [{"scriptPubKey": {"reqSigs": 1, "hex": "a91439096112d51eeb47520d61cae1918cdae398dfed87", "addresses": ["36tbg9zebZopZuGVEMtkUKTvZa1Ew7ohrN"], "asm": "OP_HASH160 39096112d51eeb47520d61cae1918cdae398dfed OP_EQUAL", "type": "scripthash"}, "value": 0.24375434, "n": 0}, {"scriptPubKey": {"reqSigs": 1, "hex": "a9142a7dc8af40906625186e2a9fd444e2f9936fcff687", "addresses": ["35ZgzDmMAp7UvVVjaehxHH386PocQhVD7x"], "asm": "OP_HASH160 2a7dc8af40906625186e2a9fd444e2f9936fcff6 OP_EQUAL", "type": "scripthash"}, "value": 0.04229745, "n": 1}], "hex": "020000000001016e41f21cbac48c62c828db96cef16db0c0563babf1bcf39d027b320859296115000000001716001494779da760619cc11fbfc762cef7dd9cd7a29f3afdffffff028af073010000000017a91439096112d51eeb47520d61cae1918cdae398dfed87718a40000000000017a9142a7dc8af40906625186e2a9fd444e2f9936fcff68702483045022100ef85ee5f86f80b6cfa6ea783445d2d4256e08c04ce95a2774f2e304a2d7637df0220312d6b0d05914f38af769bff8a45d6f35121d3fe1eb1644dfd47f6b079edc6ae0121024f3e76805c70c5ee649cb9d52f2aa42ef820f7c61b67e507e0a648ce1145c5b810490800", "vin": [{"txinwitness": ["3045022100ef85ee5f86f80b6cfa6ea783445d2d4256e08c04ce95a2774f2e304a2d7637df0220312d6b0d05914f38af769bff8a45d6f35121d3fe1eb1644dfd47f6b079edc6ae01", "024f3e76805c70c5ee649cb9d52f2aa42ef820f7c61b67e507e0a648ce1145c5b8"], "sequence": 4294967293, "scriptSig": {"hex": "16001494779da760619cc11fbfc762cef7dd9cd7a29f3a", "asm": "001494779da760619cc11fbfc762cef7dd9cd7a29f3a"}, "vout": 0, "txid": "1561295908327b029df3bcf1ab3b56c0b06df1ce96db28c8628cc4ba1cf2416e"}], "txid": "2f699efcac3ac6c043be9d0425c02a465f05a9fa018f9b64c0c2247f41112a91", "blocktime": 1537871767, "version": 2, "confirmations": 11493, "time": 1537871767, "locktime": 542992, "vsize": 166, "size": 248}