{"hash": "e4dc4649c00dfaa3c306a474de1b43f6968b26a9c700f92ee7f6658aae30f4e7", "blockhash": "0000000000000000000dcc0f55137456b1a82d3642486a52398922ac4d620174", "vout": [{"scriptPubKey": {"reqSigs": 1, "hex": "76a914f816efb0c6cdb9886b6d90521892826b90d9248b88ac", "addresses": ["1Pcn4DVaSEM2Ms5tSzeqy6UGUBPKmtpUzh"], "asm": "OP_DUP OP_HASH160 f816efb0c6cdb9886b6d90521892826b90d9248b OP_EQUALVERIFY OP_CHECKSIG", "type": "pubkeyhash"}, "value": 0.01090968, "n": 0}, {"scriptPubKey": {"reqSigs": 1, "hex": "a914abe96308d788e9080ebcc892630a3acfffbabeec87", "addresses": ["3HN14MERSkHHZfEYWd9FFqim5RsTztAUnW"], "asm": "OP_HASH160 abe96308d788e9080ebcc892630a3acfffbabeec OP_EQUAL", "type": "scripthash"}, "value": 0.10952424, "n": 1}], "hex": "01000000000101f91925708630edc9ec6112ab1f5d8c0e7e42e87f02b726ae1727116544e845d40100000023220020d6670edfc9e44d3ed67150446b50ab7408e046ffba3dc691b817d402ea5aa932ffffffff0298a51000000000001976a914f816efb0c6cdb9886b6d90521892826b90d9248b88ace81ea7000000000017a914abe96308d788e9080ebcc892630a3acfffbabeec870400483045022100b0c751bde0faddd9dfa628028deb15b921f1820932ac1bf1d19cb3820e5ffa74022034b29bc040342739896792f42c0c475651bfa23ac1bec5101e50109634d123b90148304502210094ce6ee67c6e7844150f51379e344c1bc292deda0d660c4df67c8b0fc0b0df1302207b89eb79aed9053f875e4e8ced6f679e875ca206f731119c328f81699d6219d4014752210318fb07d2c5d8e0f2c91c5fd47d7961b56f6cfa3d33cca6093cae95077e6490cc2103acc0991ca2f705af88eeaba7371492bb4ea001f16b7b9148cc451062163ca17952ae00000000", "vin": [{"txinwitness": ["", "3045022100b0c751bde0faddd9dfa628028deb15b921f1820932ac1bf1d19cb3820e5ffa74022034b29bc040342739896792f42c0c475651bfa23ac1bec5101e50109634d123b901", "304502210094ce6ee67c6e7844150f51379e344c1bc292deda0d660c4df67c8b0fc0b0df1302207b89eb79aed9053f875e4e8ced6f679e875ca206f731119c328f81699d6219d401", "52210318fb07d2c5d8e0f2c91c5fd47d7961b56f6cfa3d33cca6093cae95077e6490cc2103acc0991ca2f705af88eeaba7371492bb4ea001f16b7b9148cc451062163ca17952ae"], "sequence": 4294967295, "scriptSig": {"hex": "220020d6670edfc9e44d3ed67150446b50ab7408e046ffba3dc691b817d402ea5aa932", "asm": "0020d6670edfc9e44d3ed67150446b50ab7408e046ffba3dc691b817d402ea5aa932"}, "vout": 1, "txid": "d445e84465112717ae26b7027fe8427e0e8c5d1fab1261ecc9ed3086702519f9"}], "txid": "2f697e52aeadf78e3eea67f83c392471dbd2ac26f9016b240b16f48e9f8486e8", "blocktime": 1537870268, "version": 1, "confirmations": 11518, "time": 1537870268, "locktime": 0, "vsize": 208, "size": 374}