{"hash": "2f6b60952b07f8e7051e60dc5b5ccf26afcc28cfa8a2d5435555a0cff9227bfe", "blockhash": "0000000000000000000e13cef7c366c0283d82e591d1acd082e914b08063cdf1", "vout": [{"scriptPubKey": {"type": "nulldata", "hex": "6a146f6d6e69000000000000001f0000000000989680", "asm": "OP_RETURN 6f6d6e69000000000000001f0000000000989680"}, "value": 0.0, "n": 0}, {"scriptPubKey": {"reqSigs": 1, "hex": "76a9148b80b2920c044bdfb3ef56f0ded112c06d7ec9f288ac", "addresses": ["1Did6j8R1caPnxGHhLCsFgWZ6bQdWgx9Xm"], "asm": "OP_DUP OP_HASH160 8b80b2920c044bdfb3ef56f0ded112c06d7ec9f2 OP_EQUALVERIFY OP_CHECKSIG", "type": "pubkeyhash"}, "value": 5.46e-06, "n": 1}, {"scriptPubKey": {"reqSigs": 1, "hex": "76a914bbfc4c89ac947faad1b33988a99e9c8c8265c24388ac", "addresses": ["1J8ybuvU1FcztHdcxBAccaUPJruKKfX7xb"], "asm": "OP_DUP OP_HASH160 bbfc4c89ac947faad1b33988a99e9c8c8265c243 OP_EQUALVERIFY OP_CHECKSIG", "type": "pubkeyhash"}, "value": 0.00128743, "n": 2}], "hex": "0100000001719eaef1572fcf1387edb0cbf4a8e891edb12330005e9f9b064e090dc76a85d2000000006a473044022060871a670569704fc9da7949e398a7a9efcc26ec232ce4cbb5b6661e5d63d64c022058c3e5dabb9f44cba315e50a7a82187ade597b850afbde0e82a2cc0fa334a416012103ff140573bbd7eb60c2eba3819ea7c6b94094e9ceae01f4263b49069a2773c69efeffffff030000000000000000166a146f6d6e69000000000000001f000000000098968022020000000000001976a9148b80b2920c044bdfb3ef56f0ded112c06d7ec9f288ace7f60100000000001976a914bbfc4c89ac947faad1b33988a99e9c8c8265c24388ac10490800", "vin": [{"sequence": 4294967294, "scriptSig": {"hex": "473044022060871a670569704fc9da7949e398a7a9efcc26ec232ce4cbb5b6661e5d63d64c022058c3e5dabb9f44cba315e50a7a82187ade597b850afbde0e82a2cc0fa334a416012103ff140573bbd7eb60c2eba3819ea7c6b94094e9ceae01f4263b49069a2773c69e", "asm": "3044022060871a670569704fc9da7949e398a7a9efcc26ec232ce4cbb5b6661e5d63d64c022058c3e5dabb9f44cba315e50a7a82187ade597b850afbde0e82a2cc0fa334a416[ALL] 03ff140573bbd7eb60c2eba3819ea7c6b94094e9ceae01f4263b49069a2773c69e"}, "vout": 0, "txid": "d2856ac70d094e069b9f5e003023b1ed91e8a8f4cbb0ed8713cf2f57f1ae9e71"}], "txid": "2f6b60952b07f8e7051e60dc5b5ccf26afcc28cfa8a2d5435555a0cff9227bfe", "blocktime": 1537871767, "version": 1, "confirmations": 11490, "time": 1537871767, "locktime": 542992, "vsize": 256, "size": 256}