{"hash": "a980577e53fdadc248988889c4d44a8555e2bc1973ec6e8de6ba366e4fc48be2", "blockhash": "0000000000000000000e13cef7c366c0283d82e591d1acd082e914b08063cdf1", "vout": [{"scriptPubKey": {"reqSigs": 1, "hex": "a91450200ed92c5c395ef4cb9440d908832f0bcbcc2087", "addresses": ["38zgPKTw1yhsZ2LV2V4gYLKX8c2pwhmHDK"], "asm": "OP_HASH160 50200ed92c5c395ef4cb9440d908832f0bcbcc20 OP_EQUAL", "type": "scripthash"}, "value": 0.00998631, "n": 0}, {"scriptPubKey": {"reqSigs": 1, "hex": "76a914d7e03a1bf73f97aaf090596e3d991de08865451388ac", "addresses": ["1LgStori1o29mZb3QZAEZ9LbfCRHs6nmAC"], "asm": "OP_DUP OP_HASH160 d7e03a1bf73f97aaf090596e3d991de088654513 OP_EQUALVERIFY OP_CHECKSIG", "type": "pubkeyhash"}, "value": 0.0469927, "n": 1}], "hex": "02000000000101e3e220a55775957da522bd05c5e0f677f45b4605874dd5f8bb3fc678b619f80d000000001716001453f54a53ecb1942fe0ebd5f155bf393d18551541feffffff02e73c0f000000000017a91450200ed92c5c395ef4cb9440d908832f0bcbcc208786b44700000000001976a914d7e03a1bf73f97aaf090596e3d991de08865451388ac0247304402204dc55becc3e5646389b76a19feff33b0716ece33fe1fe2d15efb9906e041e0b602206881cad065212d4e693cbbf37cf2aadf34c10e7dcdb5f1cf6b7b5545df7160100121032286ad37efb6bae2c2fd9f229be5abe544e2be36f1216ae899f9d9d9c52e43e410490800", "vin": [{"txinwitness": ["304402204dc55becc3e5646389b76a19feff33b0716ece33fe1fe2d15efb9906e041e0b602206881cad065212d4e693cbbf37cf2aadf34c10e7dcdb5f1cf6b7b5545df71601001", "032286ad37efb6bae2c2fd9f229be5abe544e2be36f1216ae899f9d9d9c52e43e4"], "sequence": 4294967294, "scriptSig": {"hex": "16001453f54a53ecb1942fe0ebd5f155bf393d18551541", "asm": "001453f54a53ecb1942fe0ebd5f155bf393d18551541"}, "vout": 0, "txid": "0df819b678c63fbbf8d54d8705465bf477f6e0c505bd22a57d957557a520e2e3"}], "txid": "2f70d96a13df4acc5bb310f76eeda51f2213f995c72ee8e5203720310cf38e72", "blocktime": 1537871767, "version": 2, "confirmations": 11491, "time": 1537871767, "locktime": 542992, "vsize": 168, "size": 249}