{"hash": "b8636d192c1a14f4752cf60962ebf802d78f79ac7c6d7313f6e8438a1f33d4cd", "blockhash": "0000000000000000000baef3f32e3676a92c3b2e5da21b426e4f302fc371ce76", "vout": [{"scriptPubKey": {"reqSigs": 1, "hex": "76a9147d0b206d06648752c0e04930b120be70d2304a3d88ac", "addresses": ["1CQAo5ENqQDL3hDuXbnuj25joMWRs9wtTp"], "asm": "OP_DUP OP_HASH160 7d0b206d06648752c0e04930b120be70d2304a3d OP_EQUALVERIFY OP_CHECKSIG", "type": "pubkeyhash"}, "value": 0.00011326, "n": 0}, {"scriptPubKey": {"reqSigs": 1, "hex": "a914f5342287aaa57f5c05756dbd5ef14091cc70030f87", "addresses": ["3Q3XvwKWsx3ocmCXheK6pAo5ieooFx75hh"], "asm": "OP_HASH160 f5342287aaa57f5c05756dbd5ef14091cc70030f OP_EQUAL", "type": "scripthash"}, "value": 0.08262344, "n": 1}], "hex": "01000000000101b45df705df37a1781b410154dc8253992bc2ac494dd38796033fcf4cfbd539fa01000000232200204fd7968ffe15cb453352a1e9ee2915eff8b6d6252d5a351f9092b82ca10eb12cffffffff023e2c0000000000001976a9147d0b206d06648752c0e04930b120be70d2304a3d88acc8127e000000000017a914f5342287aaa57f5c05756dbd5ef14091cc70030f870400483045022100a240bb2f9206550879a612c77b2be037ec03ff1bcb19ea0e64b99ecdf94093a6022013be7e34af2b76b1d467574a585ebb8940a78fecfb3016586e19bc9da5a21dfc01483045022100d7c8a0f5cdd1348fc67d8a895f983dc0393a3f2eecde46a4649a6b88e1a667260220102c88b9adce6f54cefc8234cf3bb73687145d91d5b289894fe7dc76cb5dad4c0147522103b70e79262cbb7310fe069dea7c473b53276b75c67fb841ff66279f152a3fe0172103871fc2ca08e6950b38867e8e6a0e94ee625223d3aa0df5c65f414c6d784467e252ae00000000", "vin": [{"txinwitness": ["", "3045022100a240bb2f9206550879a612c77b2be037ec03ff1bcb19ea0e64b99ecdf94093a6022013be7e34af2b76b1d467574a585ebb8940a78fecfb3016586e19bc9da5a21dfc01", "3045022100d7c8a0f5cdd1348fc67d8a895f983dc0393a3f2eecde46a4649a6b88e1a667260220102c88b9adce6f54cefc8234cf3bb73687145d91d5b289894fe7dc76cb5dad4c01", "522103b70e79262cbb7310fe069dea7c473b53276b75c67fb841ff66279f152a3fe0172103871fc2ca08e6950b38867e8e6a0e94ee625223d3aa0df5c65f414c6d784467e252ae"], "sequence": 4294967295, "scriptSig": {"hex": "2200204fd7968ffe15cb453352a1e9ee2915eff8b6d6252d5a351f9092b82ca10eb12c", "asm": "00204fd7968ffe15cb453352a1e9ee2915eff8b6d6252d5a351f9092b82ca10eb12c"}, "vout": 1, "txid": "fa39d5fb4ccf3f039687d34d49acc22b995382dc5401411b78a137df05f75db4"}], "txid": "2f7a1c435ce287902996ec4b64eb7bc0c9c98c83ac802f578126cf45ec542ade", "blocktime": 1537876114, "version": 1, "confirmations": 11460, "time": 1537876114, "locktime": 0, "vsize": 208, "size": 374}