{"hash": "2f7c434f91a8a1fe6a034ea421e196ab84df879d6c68eef31aa2d7830985c170", "blockhash": "00000000000000000018f53835495a110e01622372bf6ae95dc86f2b0ab887b0", "vout": [{"scriptPubKey": {"type": "nulldata", "hex": "6a146f6d6e69000000000000001f00002dbf1ec17b80", "asm": "OP_RETURN 6f6d6e69000000000000001f00002dbf1ec17b80"}, "value": 0.0, "n": 0}, {"scriptPubKey": {"reqSigs": 1, "hex": "76a914e177d40a557bfd568151a2eee8759107d7b7069888ac", "addresses": ["1MZAayfFJ9Kki2csoYjFVRKHFFSkdoMLtX"], "asm": "OP_DUP OP_HASH160 e177d40a557bfd568151a2eee8759107d7b70698 OP_EQUALVERIFY OP_CHECKSIG", "type": "pubkeyhash"}, "value": 5.46e-06, "n": 1}, {"scriptPubKey": {"reqSigs": 1, "hex": "76a91488d924f51033b74a895863a5fb57fd545529df7d88ac", "addresses": ["1DUb2YYbQA1jjaNYzVXLZ7ZioEhLXtbUru"], "asm": "OP_DUP OP_HASH160 88d924f51033b74a895863a5fb57fd545529df7d OP_EQUALVERIFY OP_CHECKSIG", "type": "pubkeyhash"}, "value": 1.39409019, "n": 2}], "hex": "010000000153e444761a8926a92812581cd7833c71f2422cb8006edec732526207c1066c44020000006a473044022055dbc215aca85b661b49597211cb7f5305e266fc35a91e265c30391a68302cc902204d92c616cba6482e0da1510e3f8bd7ea4ddc8c651e18fc69332e70201d33dd970121030888863fcb4cdf5b7d33b40e613af35df8f39d576e7972238b0d396cd3fcc3f2feffffff030000000000000000166a146f6d6e69000000000000001f00002dbf1ec17b8022020000000000001976a914e177d40a557bfd568151a2eee8759107d7b7069888ac7b364f08000000001976a91488d924f51033b74a895863a5fb57fd545529df7d88ac0e490800", "vin": [{"sequence": 4294967294, "scriptSig": {"hex": "473044022055dbc215aca85b661b49597211cb7f5305e266fc35a91e265c30391a68302cc902204d92c616cba6482e0da1510e3f8bd7ea4ddc8c651e18fc69332e70201d33dd970121030888863fcb4cdf5b7d33b40e613af35df8f39d576e7972238b0d396cd3fcc3f2", "asm": "3044022055dbc215aca85b661b49597211cb7f5305e266fc35a91e265c30391a68302cc902204d92c616cba6482e0da1510e3f8bd7ea4ddc8c651e18fc69332e70201d33dd97[ALL] 030888863fcb4cdf5b7d33b40e613af35df8f39d576e7972238b0d396cd3fcc3f2"}, "vout": 2, "txid": "446c06c107625232c7de6e00b82c42f2713c83d71c581228a926891a7644e453"}], "txid": "2f7c434f91a8a1fe6a034ea421e196ab84df879d6c68eef31aa2d7830985c170", "blocktime": 1537870928, "version": 1, "confirmations": 11512, "time": 1537870928, "locktime": 542990, "vsize": 256, "size": 256}