{"hash": "2f7fcf9a8176cee46f63fd359a153f17b5af77374e0647c3416df96cb7731e19", "blockhash": "00000000000000000004ffacab907a6b429b9a5745fa0b75af4234bf69dd7176", "vout": [{"scriptPubKey": {"reqSigs": 1, "hex": "76a91419d5437cfcbc875afa4c7a9f4969dbaa9398874a88ac", "addresses": ["13MbNcWegQ7Uxd8yAqJt7YGUEbwep6ub4r"], "asm": "OP_DUP OP_HASH160 19d5437cfcbc875afa4c7a9f4969dbaa9398874a OP_EQUALVERIFY OP_CHECKSIG", "type": "pubkeyhash"}, "value": 0.23011648, "n": 0}, {"scriptPubKey": {"reqSigs": 1, "hex": "76a914ca6d9dcea70f2dbaefe976240d3cec634130003c88ac", "addresses": ["1KTLp2vUXN8yaCaWXZvEHeHR4qNv4QRZ4B"], "asm": "OP_DUP OP_HASH160 ca6d9dcea70f2dbaefe976240d3cec634130003c OP_EQUALVERIFY OP_CHECKSIG", "type": "pubkeyhash"}, "value": 0.37146653, "n": 1}], "hex": "01000000017ed4fba63981758e038312c06f185b95a78efe194217edc0ed3e226c0ad1dec7010000006b4830450221008e7345b04f60b82855c72043c6732a262a5d006b57bba18a31dc7cacede788580220720b2bc20933dd76f8903f1841c903dd7d1754064e1bcd2c1a82797156544b980121035e02906a98e14c2c54d94603167927d7853272a1c76aad8704a99f08038148efffffffff0240215f01000000001976a91419d5437cfcbc875afa4c7a9f4969dbaa9398874a88ac1dd03602000000001976a914ca6d9dcea70f2dbaefe976240d3cec634130003c88ac00000000", "vin": [{"sequence": 4294967295, "scriptSig": {"hex": "4830450221008e7345b04f60b82855c72043c6732a262a5d006b57bba18a31dc7cacede788580220720b2bc20933dd76f8903f1841c903dd7d1754064e1bcd2c1a82797156544b980121035e02906a98e14c2c54d94603167927d7853272a1c76aad8704a99f08038148ef", "asm": "30450221008e7345b04f60b82855c72043c6732a262a5d006b57bba18a31dc7cacede788580220720b2bc20933dd76f8903f1841c903dd7d1754064e1bcd2c1a82797156544b98[ALL] 035e02906a98e14c2c54d94603167927d7853272a1c76aad8704a99f08038148ef"}, "vout": 1, "txid": "c7ded10a6c223eedc0ed174219fe8ea7955b186fc01283038e758139a6fbd47e"}], "txid": "2f7fcf9a8176cee46f63fd359a153f17b5af77374e0647c3416df96cb7731e19", "blocktime": 1537875543, "version": 1, "confirmations": 11464, "time": 1537875543, "locktime": 0, "vsize": 226, "size": 226}