{"hash": "2f8122637d159d6c478e8c15dfb8c6b8d970489e6a749eb7f605303172254361", "blockhash": "0000000000000000001f76057863aec43deb6fa401d9628bb513d65a8098bfab", "vout": [{"scriptPubKey": {"type": "nulldata", "hex": "6a146f6d6e69000000000000001f0000002e7d426980", "asm": "OP_RETURN 6f6d6e69000000000000001f0000002e7d426980"}, "value": 0.0, "n": 0}, {"scriptPubKey": {"reqSigs": 1, "hex": "76a914a25dec4d0011064ef106a983c39c7a540699f22088ac", "addresses": ["1FoWyxwPXuj4C6abqwhjDWdz6D4PZgYRjA"], "asm": "OP_DUP OP_HASH160 a25dec4d0011064ef106a983c39c7a540699f220 OP_EQUALVERIFY OP_CHECKSIG", "type": "pubkeyhash"}, "value": 0.01990376, "n": 1}, {"scriptPubKey": {"reqSigs": 1, "hex": "76a9144176d822a755153a172af926fe0e1e3bee712d3988ac", "addresses": ["16y9Hv2U5NcQyEGbkFfb1hUZDB2iGW3vHa"], "asm": "OP_DUP OP_HASH160 4176d822a755153a172af926fe0e1e3bee712d39 OP_EQUALVERIFY OP_CHECKSIG", "type": "pubkeyhash"}, "value": 5.46e-06, "n": 2}], "hex": "010000000198a10aacaee1f6f3fc806b5b4a6feb2af8424339dfd406ebbb403d3b7e65243d000000006a473044022058e2bd1b4b64609c87f06ba55950681d50c966d1e3c24bb3e2ca1ae0003da12e02204178ca1295606694499fe082bd09e2513a9ce34413847925e71e4fe4cafda0bc012103da5bac7b36d5aa38f531c6b9601e21bb598a4b6716ebed38b009a55dabde9440feffffff030000000000000000166a146f6d6e69000000000000001f0000002e7d426980e85e1e00000000001976a914a25dec4d0011064ef106a983c39c7a540699f22088ac22020000000000001976a9144176d822a755153a172af926fe0e1e3bee712d3988ac14490800", "vin": [{"sequence": 4294967294, "scriptSig": {"hex": "473044022058e2bd1b4b64609c87f06ba55950681d50c966d1e3c24bb3e2ca1ae0003da12e02204178ca1295606694499fe082bd09e2513a9ce34413847925e71e4fe4cafda0bc012103da5bac7b36d5aa38f531c6b9601e21bb598a4b6716ebed38b009a55dabde9440", "asm": "3044022058e2bd1b4b64609c87f06ba55950681d50c966d1e3c24bb3e2ca1ae0003da12e02204178ca1295606694499fe082bd09e2513a9ce34413847925e71e4fe4cafda0bc[ALL] 03da5bac7b36d5aa38f531c6b9601e21bb598a4b6716ebed38b009a55dabde9440"}, "vout": 0, "txid": "3d24657e3b3d40bbeb06d4df394342f82aeb6f4a5b6b80fcf3f6e1aeac0aa198"}], "txid": "2f8122637d159d6c478e8c15dfb8c6b8d970489e6a749eb7f605303172254361", "blocktime": 1537873891, "version": 1, "confirmations": 11475, "time": 1537873891, "locktime": 542996, "vsize": 256, "size": 256}