{"hash": "2f8a5b2054c45dd191c287c640ef72fdceed66bf8a0bf431c43ca53f7b3e7ea8", "blockhash": "00000000000000000004ffacab907a6b429b9a5745fa0b75af4234bf69dd7176", "vout": [{"scriptPubKey": {"reqSigs": 1, "hex": "76a914840a024dd46820c207546f80abd5e7b37168c23d88ac", "addresses": ["1D3ABm2j1pbVLSZPU7N9xxYBNEaTA3QU3Q"], "asm": "OP_DUP OP_HASH160 840a024dd46820c207546f80abd5e7b37168c23d OP_EQUALVERIFY OP_CHECKSIG", "type": "pubkeyhash"}, "value": 0.00386057, "n": 0}, {"scriptPubKey": {"reqSigs": 1, "hex": "76a9142e99c9736c0a3c4c6784ee3815f3040ee2ca73ed88ac", "addresses": ["15FQK8LiN6At6bTbE2KXHYnXPyEMAAjwF7"], "asm": "OP_DUP OP_HASH160 2e99c9736c0a3c4c6784ee3815f3040ee2ca73ed OP_EQUALVERIFY OP_CHECKSIG", "type": "pubkeyhash"}, "value": 0.00517931, "n": 1}], "hex": "01000000012405eb2f8bb99baf845923732206a811f09ee97f6424c58b89fb21fa3eef9316000000006a47304402205444d5a1c0ea096ca6d319cc02123c186d2e752fbd05649b9e5c3904ffb4511a022056e3df52c45317f94585dde32ef1086ad1860a98d0ce65926ae802d8ccf23418012103e4855cac864f90e5d94416f37fd0f9ed087eb1e6aad80846d6bb06d7cef36f5ffeffffff0209e40500000000001976a914840a024dd46820c207546f80abd5e7b37168c23d88ac2be70700000000001976a9142e99c9736c0a3c4c6784ee3815f3040ee2ca73ed88ac16490800", "vin": [{"sequence": 4294967294, "scriptSig": {"hex": "47304402205444d5a1c0ea096ca6d319cc02123c186d2e752fbd05649b9e5c3904ffb4511a022056e3df52c45317f94585dde32ef1086ad1860a98d0ce65926ae802d8ccf23418012103e4855cac864f90e5d94416f37fd0f9ed087eb1e6aad80846d6bb06d7cef36f5f", "asm": "304402205444d5a1c0ea096ca6d319cc02123c186d2e752fbd05649b9e5c3904ffb4511a022056e3df52c45317f94585dde32ef1086ad1860a98d0ce65926ae802d8ccf23418[ALL] 03e4855cac864f90e5d94416f37fd0f9ed087eb1e6aad80846d6bb06d7cef36f5f"}, "vout": 0, "txid": "1693ef3efa21fb898bc524647fe99ef011a8062273235984af9bb98b2feb0524"}], "txid": "2f8a5b2054c45dd191c287c640ef72fdceed66bf8a0bf431c43ca53f7b3e7ea8", "blocktime": 1537875543, "version": 1, "confirmations": 11464, "time": 1537875543, "locktime": 542998, "vsize": 225, "size": 225}