{"hash": "2f9691a094b72bc5c99be0a76d693f02dddb9ef8b87c9f2a04bf7de798001712", "blockhash": "0000000000000000001cda96e906b7601b7a6fb1a3b62bca570a9e5d8f4b3de1", "vout": [{"scriptPubKey": {"reqSigs": 1, "hex": "76a91493a00f36bbc6fcb35cd973fd13c568e7f71cbec788ac", "addresses": ["1ETa5Kk7FGgZGDkG97Qmhsu613WymVoTrW"], "asm": "OP_DUP OP_HASH160 93a00f36bbc6fcb35cd973fd13c568e7f71cbec7 OP_EQUALVERIFY OP_CHECKSIG", "type": "pubkeyhash"}, "value": 5.682e-05, "n": 0}, {"scriptPubKey": {"reqSigs": 1, "hex": "76a914cd2fab00554ece2cb0cdc4e8b939f1ab4558dc7488ac", "addresses": ["1KhvdMYGRGpie2g3oSbqoiF2dBquqVqRka"], "asm": "OP_DUP OP_HASH160 cd2fab00554ece2cb0cdc4e8b939f1ab4558dc74 OP_EQUALVERIFY OP_CHECKSIG", "type": "pubkeyhash"}, "value": 0.0371663, "n": 1}], "hex": "01000000051e52007583cf8b996fbed5755816bdee94996d053be508591e9c18edecddb007050000006a4730440220653c9b4d32c3d911fe43a88c551fc2f115703f53b4ab520876f221a8f253ce940220422a3bdba19b168327407ecda1fccc5be4d5c435c93ccfac1ea53902accf26330121035f428c0e3531172e94c06c092600477f10c6132df46c6a3f433eefdc21a6f973ffffffff27db391b08ae0ce8c73360f495792119587f01362b594c9698c186ead0f0ae1b030000006b483045022100d128981cab9d619f7e0324ab8ebd419319c9eb23ee1bea13e88f79f91ad72d9e02207a4ad5e1e75196f52c01669865341387409f1746803e3db32fa84112b42cf5cf0121035f428c0e3531172e94c06c092600477f10c6132df46c6a3f433eefdc21a6f973ffffffff473503e7d1a2854f343392093d25144de6b7001abd925b8f0b0ef2bfa6916468020000006b4830450221009c36bcb2acc5450794c6f64cc92d213c2676106f8d625ab9f48fdc5ef8b76168022017fb82161fc86a02814a4af9bb59fe791de86a8021b9a38e1f3b2a16df3d599f0121035f428c0e3531172e94c06c092600477f10c6132df46c6a3f433eefdc21a6f973ffffffffcf1219d9fe108fd3a1eecb40f628270df2d2d0ba7b31d9e269a06d2f0bb96d69000000006b483045022100a329af75c644410d26548de8f34e9973d1314d17c5f7eb27a1ea6a7ce80bf1550220149f98fdc13d592746970f07e2935101ca68829b7664018843ec064acdbc0e9601210313985055a44ff46f7e9b37226a3b9d9e0940313617c90f1ab9b28880376c6b22ffffffffa8109364ec257e8a32a6789c57f2e7e607a7f41b436d4ec6f666bbade83909fb0c0000006b48304502210098d1fb235cb28604ea41a8d457af525e6b1ad885267381a5040b5722f1d86517022018bbf5f2c6b67837e689b74e0710c6589e9c18968c6ec5a90cffbcea3a25814c0121035f428c0e3531172e94c06c092600477f10c6132df46c6a3f433eefdc21a6f973ffffffff0232160000000000001976a91493a00f36bbc6fcb35cd973fd13c568e7f71cbec788ac16b63800000000001976a914cd2fab00554ece2cb0cdc4e8b939f1ab4558dc7488ac00000000", "vin": [{"sequence": 4294967295, "scriptSig": {"hex": "4730440220653c9b4d32c3d911fe43a88c551fc2f115703f53b4ab520876f221a8f253ce940220422a3bdba19b168327407ecda1fccc5be4d5c435c93ccfac1ea53902accf26330121035f428c0e3531172e94c06c092600477f10c6132df46c6a3f433eefdc21a6f973", "asm": "30440220653c9b4d32c3d911fe43a88c551fc2f115703f53b4ab520876f221a8f253ce940220422a3bdba19b168327407ecda1fccc5be4d5c435c93ccfac1ea53902accf2633[ALL] 035f428c0e3531172e94c06c092600477f10c6132df46c6a3f433eefdc21a6f973"}, "vout": 5, "txid": "07b0ddeced189c1e5908e53b056d9994eebd165875d5be6f998bcf837500521e"}, {"sequence": 4294967295, "scriptSig": {"hex": "483045022100d128981cab9d619f7e0324ab8ebd419319c9eb23ee1bea13e88f79f91ad72d9e02207a4ad5e1e75196f52c01669865341387409f1746803e3db32fa84112b42cf5cf0121035f428c0e3531172e94c06c092600477f10c6132df46c6a3f433eefdc21a6f973", "asm": "3045022100d128981cab9d619f7e0324ab8ebd419319c9eb23ee1bea13e88f79f91ad72d9e02207a4ad5e1e75196f52c01669865341387409f1746803e3db32fa84112b42cf5cf[ALL] 035f428c0e3531172e94c06c092600477f10c6132df46c6a3f433eefdc21a6f973"}, "vout": 3, "txid": "1baef0d0ea86c198964c592b36017f5819217995f46033c7e80cae081b39db27"}, {"sequence": 4294967295, "scriptSig": {"hex": "4830450221009c36bcb2acc5450794c6f64cc92d213c2676106f8d625ab9f48fdc5ef8b76168022017fb82161fc86a02814a4af9bb59fe791de86a8021b9a38e1f3b2a16df3d599f0121035f428c0e3531172e94c06c092600477f10c6132df46c6a3f433eefdc21a6f973", "asm": "30450221009c36bcb2acc5450794c6f64cc92d213c2676106f8d625ab9f48fdc5ef8b76168022017fb82161fc86a02814a4af9bb59fe791de86a8021b9a38e1f3b2a16df3d599f[ALL] 035f428c0e3531172e94c06c092600477f10c6132df46c6a3f433eefdc21a6f973"}, "vout": 2, "txid": "686491a6bff20e0b8f5b92bd1a00b7e64d14253d099233344f85a2d1e7033547"}, {"sequence": 4294967295, "scriptSig": {"hex": "483045022100a329af75c644410d26548de8f34e9973d1314d17c5f7eb27a1ea6a7ce80bf1550220149f98fdc13d592746970f07e2935101ca68829b7664018843ec064acdbc0e9601210313985055a44ff46f7e9b37226a3b9d9e0940313617c90f1ab9b28880376c6b22", "asm": "3045022100a329af75c644410d26548de8f34e9973d1314d17c5f7eb27a1ea6a7ce80bf1550220149f98fdc13d592746970f07e2935101ca68829b7664018843ec064acdbc0e96[ALL] 0313985055a44ff46f7e9b37226a3b9d9e0940313617c90f1ab9b28880376c6b22"}, "vout": 0, "txid": "696db90b2f6da069e2d9317bbad0d2f20d2728f640cbeea1d38f10fed91912cf"}, {"sequence": 4294967295, "scriptSig": {"hex": "48304502210098d1fb235cb28604ea41a8d457af525e6b1ad885267381a5040b5722f1d86517022018bbf5f2c6b67837e689b74e0710c6589e9c18968c6ec5a90cffbcea3a25814c0121035f428c0e3531172e94c06c092600477f10c6132df46c6a3f433eefdc21a6f973", "asm": "304502210098d1fb235cb28604ea41a8d457af525e6b1ad885267381a5040b5722f1d86517022018bbf5f2c6b67837e689b74e0710c6589e9c18968c6ec5a90cffbcea3a25814c[ALL] 035f428c0e3531172e94c06c092600477f10c6132df46c6a3f433eefdc21a6f973"}, "vout": 12, "txid": "fb0939e8adbb66f6c64e6d431bf4a707e6e7f2579c78a6328a7e25ec649310a8"}], "txid": "2f9691a094b72bc5c99be0a76d693f02dddb9ef8b87c9f2a04bf7de798001712", "blocktime": 1537873282, "version": 1, "confirmations": 11484, "time": 1537873282, "locktime": 0, "vsize": 817, "size": 817}