{"hash": "2f9fd7b2a81e453a469bff4edbb5395e3141c8009112ce2671a5364e0aeccff7", "blockhash": "0000000000000000001cda96e906b7601b7a6fb1a3b62bca570a9e5d8f4b3de1", "vout": [{"scriptPubKey": {"reqSigs": 1, "hex": "76a914092fb89e7ea9ee67ffb2664167b2fc6396f4393188ac", "addresses": ["1qaFTBTiXzocUdvTDtaHVTDuTr7TV9LUa"], "asm": "OP_DUP OP_HASH160 092fb89e7ea9ee67ffb2664167b2fc6396f43931 OP_EQUALVERIFY OP_CHECKSIG", "type": "pubkeyhash"}, "value": 4.322e-05, "n": 0}, {"scriptPubKey": {"reqSigs": 1, "hex": "76a914e6456661e37c75dc8f31b9b59de3b6a3813649a888ac", "addresses": ["1MzZZ7YHegi1f4P64wwzLtTDgmMYwdtCq3"], "asm": "OP_DUP OP_HASH160 e6456661e37c75dc8f31b9b59de3b6a3813649a8 OP_EQUALVERIFY OP_CHECKSIG", "type": "pubkeyhash"}, "value": 1.02995, "n": 1}], "hex": "010000000142986c77e7cb22efa5c47558a505b6e799558e2499d07400afde2cd6d1afa9f4010000006a473044022039072cab15cd9efe43ceed04c713288c849070371cb86169e1497ea0998c5fa602203e211411a2901476cea575911a82bd2340aa0fe564dbe741a0ab033ea85d7de30121037f4dd11662087e144585defcaadbae9e3d6a46a1462c869c04a0db5c25194845ffffffff02e2100000000000001976a914092fb89e7ea9ee67ffb2664167b2fc6396f4393188ac38942306000000001976a914e6456661e37c75dc8f31b9b59de3b6a3813649a888ac00000000", "vin": [{"sequence": 4294967295, "scriptSig": {"hex": "473044022039072cab15cd9efe43ceed04c713288c849070371cb86169e1497ea0998c5fa602203e211411a2901476cea575911a82bd2340aa0fe564dbe741a0ab033ea85d7de30121037f4dd11662087e144585defcaadbae9e3d6a46a1462c869c04a0db5c25194845", "asm": "3044022039072cab15cd9efe43ceed04c713288c849070371cb86169e1497ea0998c5fa602203e211411a2901476cea575911a82bd2340aa0fe564dbe741a0ab033ea85d7de3[ALL] 037f4dd11662087e144585defcaadbae9e3d6a46a1462c869c04a0db5c25194845"}, "vout": 1, "txid": "f4a9afd1d62cdeaf0074d099248e5599e7b605a55875c4a5ef22cbe7776c9842"}], "txid": "2f9fd7b2a81e453a469bff4edbb5395e3141c8009112ce2671a5364e0aeccff7", "blocktime": 1537873282, "version": 1, "confirmations": 11484, "time": 1537873282, "locktime": 0, "vsize": 225, "size": 225}