{"hash": "e4b1c772e3420c25810a1ef9eb19bb4a6d78c90cec95ad684b57edc3740312c5", "blockhash": "0000000000000000001cda96e906b7601b7a6fb1a3b62bca570a9e5d8f4b3de1", "vout": [{"scriptPubKey": {"reqSigs": 1, "hex": "a9149a37f8f5984e6aaf6c1e8a8e7d03c2257dbc1b7387", "addresses": ["3FkT385qHNV8GnbbSpPZ2zY8pgFsYj2zmd"], "asm": "OP_HASH160 9a37f8f5984e6aaf6c1e8a8e7d03c2257dbc1b73 OP_EQUAL", "type": "scripthash"}, "value": 0.21926332, "n": 0}], "hex": "020000000001010ae63c3949f2a6349c4f55f4b07c63b7921a5bb7a476f319b4552d72b7035efb0400000017160014c2ebdefcddb4253725dd994437238050af043f6affffffff01bc914e010000000017a9149a37f8f5984e6aaf6c1e8a8e7d03c2257dbc1b738702483045022100e9eb8b59866edf72e255d8ccd79122862b6989622c934e2667105e0243d63eca02203187edad11c08a26a97312e714c6430a08fa050e2f6f6caeb99ebb41d36081a30121021098cb44628bf95edf623a29b1d2e4a3171292462e3feee9aa0816e2813129d300000000", "vin": [{"txinwitness": ["3045022100e9eb8b59866edf72e255d8ccd79122862b6989622c934e2667105e0243d63eca02203187edad11c08a26a97312e714c6430a08fa050e2f6f6caeb99ebb41d36081a301", "021098cb44628bf95edf623a29b1d2e4a3171292462e3feee9aa0816e2813129d3"], "sequence": 4294967295, "scriptSig": {"hex": "160014c2ebdefcddb4253725dd994437238050af043f6a", "asm": "0014c2ebdefcddb4253725dd994437238050af043f6a"}, "vout": 4, "txid": "fb5e03b7722d55b419f376a4b75b1a92b7637cb0f4554f9c34a6f249393ce60a"}], "txid": "2fa33139c571adeb60b99ca9a76623e66f0c3a2b72d9fd0e2f783efceb338c4f", "blocktime": 1537873282, "version": 2, "confirmations": 11485, "time": 1537873282, "locktime": 0, "vsize": 134, "size": 216}