{"hash": "2fadcf6a076189ba9b8cda75521226c7a7654d88d59d53f92811f4efd65011fd", "blockhash": "0000000000000000000e13cef7c366c0283d82e591d1acd082e914b08063cdf1", "vout": [{"scriptPubKey": {"type": "nulldata", "hex": "6a4c500000779a0001a3eae3b0becebaeb43a6d0dee3ef3236678a625097bcbefa6b8351586b4e3c83708725b77c440fb8e241072320e55baa0d600615410116d382ffbc9a9526289ac0f6612cd74e33776ee4", "asm": "OP_RETURN 0000779a0001a3eae3b0becebaeb43a6d0dee3ef3236678a625097bcbefa6b8351586b4e3c83708725b77c440fb8e241072320e55baa0d600615410116d382ffbc9a9526289ac0f6612cd74e33776ee4"}, "value": 0.0, "n": 0}, {"scriptPubKey": {"reqSigs": 1, "hex": "76a914c892d8717defb21ec74f98692a2be0a1ad980aa988ac", "addresses": ["1KHY4NQQWQ9MFsHaH2U2ULemmQiLNDDUkc"], "asm": "OP_DUP OP_HASH160 c892d8717defb21ec74f98692a2be0a1ad980aa9 OP_EQUALVERIFY OP_CHECKSIG", "type": "pubkeyhash"}, "value": 0.0223724, "n": 1}], "hex": "010000000115a46ae0956977b9f0e5cf3bd47596a100260daf3e907bfeb66542ad8acaa963010000006b483045022100adeeea5b2710c9a8ab926a934c716ad25aac75c9a1b09dc78430adb98fb169dc022037a38d6f51bd3c58651c2cb604be1452fb919a059d14976a77ab07389a0bb6ad012103a37bb62503a892a97400f494d86c1ff2b81a9c8171fc08513b9a43edf2cd2b1fffffffff020000000000000000536a4c500000779a0001a3eae3b0becebaeb43a6d0dee3ef3236678a625097bcbefa6b8351586b4e3c83708725b77c440fb8e241072320e55baa0d600615410116d382ffbc9a9526289ac0f6612cd74e33776ee438232200000000001976a914c892d8717defb21ec74f98692a2be0a1ad980aa988ac00000000", "vin": [{"sequence": 4294967295, "scriptSig": {"hex": "483045022100adeeea5b2710c9a8ab926a934c716ad25aac75c9a1b09dc78430adb98fb169dc022037a38d6f51bd3c58651c2cb604be1452fb919a059d14976a77ab07389a0bb6ad012103a37bb62503a892a97400f494d86c1ff2b81a9c8171fc08513b9a43edf2cd2b1f", "asm": "3045022100adeeea5b2710c9a8ab926a934c716ad25aac75c9a1b09dc78430adb98fb169dc022037a38d6f51bd3c58651c2cb604be1452fb919a059d14976a77ab07389a0bb6ad[ALL] 03a37bb62503a892a97400f494d86c1ff2b81a9c8171fc08513b9a43edf2cd2b1f"}, "vout": 1, "txid": "63a9ca8aad4265b6fe7b903eaf0d2600a19675d43bcfe5f0b9776995e06aa415"}], "txid": "2fadcf6a076189ba9b8cda75521226c7a7654d88d59d53f92811f4efd65011fd", "blocktime": 1537871767, "version": 1, "confirmations": 11493, "time": 1537871767, "locktime": 0, "vsize": 284, "size": 284}