{"hash": "53f944229fc29d907db455af8886ffbe72d2595c4c417103e587bf859f2a517c", "blockhash": "0000000000000000001f76057863aec43deb6fa401d9628bb513d65a8098bfab", "vout": [{"scriptPubKey": {"reqSigs": 1, "hex": "76a9149a1b8f9b1fa2d2297863adb1cb11c71df455684888ac", "addresses": ["1F3r5We2zwNiSzG6GQUTTWnnPMCz2HJbJu"], "asm": "OP_DUP OP_HASH160 9a1b8f9b1fa2d2297863adb1cb11c71df4556848 OP_EQUALVERIFY OP_CHECKSIG", "type": "pubkeyhash"}, "value": 2.686e-05, "n": 0}, {"scriptPubKey": {"reqSigs": 1, "hex": "a9148ddb66c3371910a0ef8f38021cc4094e61e69f3a87", "addresses": ["3Ed62sPENkraPwpovPty9YMFGJ8FtTyv63"], "asm": "OP_HASH160 8ddb66c3371910a0ef8f38021cc4094e61e69f3a OP_EQUAL", "type": "scripthash"}, "value": 0.00037119, "n": 1}], "hex": "010000000001015619543f9b535aa15f743c286fd6b1daec29c248097b53ba902fea2cc39634c20100000023220020fdd23d707f55451c4e006c77b5e8df35a185a8e99f9bda70bf0ded7913bb1eb3ffffffff027e0a0000000000001976a9149a1b8f9b1fa2d2297863adb1cb11c71df455684888acff9000000000000017a9148ddb66c3371910a0ef8f38021cc4094e61e69f3a870400473044022057199c67b973036202d1762403810d52abf4619333150b8d584eaa4c440f6ffe022027956e23c2d8fd8ffaa07aa33ea3cd7ab4f57edb876ac6b703c7f2f67fad2b1501483045022100af5c3218f139816a5f7608532be653613b0c1e6cabe559910d54a8dce81eca4602201d70506bfb8e07d9d0bbb48fc7e9b9a08b271b2b1d1514d4df018254c6e205d2014752210286c104577b978160849865bc23f9a6df9b53d41c8ffb486754b97b2a474a181c2103148c80a5bdfddb05ff5bcffc397c8ca748d8b435ec6a175bc9d7bfc7fc6f853752ae00000000", "vin": [{"txinwitness": ["", "3044022057199c67b973036202d1762403810d52abf4619333150b8d584eaa4c440f6ffe022027956e23c2d8fd8ffaa07aa33ea3cd7ab4f57edb876ac6b703c7f2f67fad2b1501", "3045022100af5c3218f139816a5f7608532be653613b0c1e6cabe559910d54a8dce81eca4602201d70506bfb8e07d9d0bbb48fc7e9b9a08b271b2b1d1514d4df018254c6e205d201", "52210286c104577b978160849865bc23f9a6df9b53d41c8ffb486754b97b2a474a181c2103148c80a5bdfddb05ff5bcffc397c8ca748d8b435ec6a175bc9d7bfc7fc6f853752ae"], "sequence": 4294967295, "scriptSig": {"hex": "220020fdd23d707f55451c4e006c77b5e8df35a185a8e99f9bda70bf0ded7913bb1eb3", "asm": "0020fdd23d707f55451c4e006c77b5e8df35a185a8e99f9bda70bf0ded7913bb1eb3"}, "vout": 1, "txid": "c23496c32cea2f90ba537b0948c229ecdab1d66f283c745fa15a539b3f541956"}], "txid": "2fb4980e9415872024c8179a6e9e8cdec9604d32521066ff185d0480b0e432f1", "blocktime": 1537873891, "version": 1, "confirmations": 11478, "time": 1537873891, "locktime": 0, "vsize": 208, "size": 373}