{"hash": "3d6563823f5cc1b845a7d6f7b5f131d2210a0694ace0e994e0e229f989c07d86", "blockhash": "000000000000000000022b45ed06c6f4ccd3cf7fb5ba4856ebd2e58215665228", "vout": [{"scriptPubKey": {"reqSigs": 1, "hex": "76a9142341263ec87638762c42b84e48c3a770e629315b88ac", "addresses": ["14DQhNfBxvmRxkpgvD8TS7wFyKppRKPnyT"], "asm": "OP_DUP OP_HASH160 2341263ec87638762c42b84e48c3a770e629315b OP_EQUALVERIFY OP_CHECKSIG", "type": "pubkeyhash"}, "value": 0.0151444, "n": 0}, {"scriptPubKey": {"reqSigs": 1, "hex": "a914cb0414da435cf1673d8cef3c9377869a5c10fa6a87", "addresses": ["3LCTz5199EsVx1KUBD1opNCjzEKEa1UaGT"], "asm": "OP_HASH160 cb0414da435cf1673d8cef3c9377869a5c10fa6a OP_EQUAL", "type": "scripthash"}, "value": 0.0099849, "n": 1}], "hex": "02000000000101c7de4e07deda62141c912cea38074a77158dba71057701196e7a3c2032b9427a000000001716001475038d5b9d01282abcf45772bde9921605d335bffeffffff02c81b1700000000001976a9142341263ec87638762c42b84e48c3a770e629315b88ac5a3c0f000000000017a914cb0414da435cf1673d8cef3c9377869a5c10fa6a870247304402203ecd1499132ad1b084cef68720e8bb72d88755f420304f8c283f8a76c4b89dd502202e33522800e47a1e90a0af9e411e05a8a33230acf9d52d2dc027ffdf38bd0c580121033d116c38810977b9b6ee667c9ecd7e9264706384c40875911898c32e2fc2b9fe0b490800", "vin": [{"txinwitness": ["304402203ecd1499132ad1b084cef68720e8bb72d88755f420304f8c283f8a76c4b89dd502202e33522800e47a1e90a0af9e411e05a8a33230acf9d52d2dc027ffdf38bd0c5801", "033d116c38810977b9b6ee667c9ecd7e9264706384c40875911898c32e2fc2b9fe"], "sequence": 4294967294, "scriptSig": {"hex": "16001475038d5b9d01282abcf45772bde9921605d335bf", "asm": "001475038d5b9d01282abcf45772bde9921605d335bf"}, "vout": 0, "txid": "7a42b932203c7a6e1901770571ba8d15774a0738ea2c911c1462dade074edec7"}], "txid": "2fb46cc0e47fabeaa9368d6de6b13d5cbfaf22dd133f1d6b9d891f5c451ed851", "blocktime": 1537869901, "version": 2, "confirmations": 11522, "time": 1537869901, "locktime": 542987, "vsize": 168, "size": 249}