{"hash": "52f2887d3fe3c80632c585e053cfe34a83f2b9e2fd8debbf0e501a8158fbc65a", "blockhash": "00000000000000000017f5eb5941039fbcee6240d03bc1f2f8e35350df66a1d8", "vout": [{"scriptPubKey": {"reqSigs": 1, "hex": "76a914cedf65ed1dcc86d1f62c288fb2fc0ffb3627ad5788ac", "addresses": ["1KrqpVa7eRqqyXbwa9Drhr6hHgaWUFhbkw"], "asm": "OP_DUP OP_HASH160 cedf65ed1dcc86d1f62c288fb2fc0ffb3627ad57 OP_EQUALVERIFY OP_CHECKSIG", "type": "pubkeyhash"}, "value": 0.016224, "n": 0}, {"scriptPubKey": {"reqSigs": 1, "hex": "0014f8f6981fb03b615877d5dcec8cc76e1c9d7aab21", "addresses": ["bc1qlrmfs8as8ds4sa74mnkge3mwrjwh42ep3t5hwz"], "asm": "0 f8f6981fb03b615877d5dcec8cc76e1c9d7aab21", "type": "witness_v0_keyhash"}, "value": 0.5730853, "n": 1}], "hex": "01000000000101fc23674b9828f3f2590c88b2b64fb61aa58dfe995ca31022ee68f2d8bf044f2f0100000000ffffffff0280c11800000000001976a914cedf65ed1dcc86d1f62c288fb2fc0ffb3627ad5788ac72756a0300000000160014f8f6981fb03b615877d5dcec8cc76e1c9d7aab2102483045022100c406fb3b29dd9429789ba3789d18596b63be83df9b0adc31bede0b094429431502207f33e1a867a4440163d0bd1375faf5168ffece072a2c8778825753e4325cc8f1012102575c7db75c5e8ebe686da70d3b760cd0edbdd69d6f8d97d3e2692d849641158100000000", "vin": [{"txinwitness": ["3045022100c406fb3b29dd9429789ba3789d18596b63be83df9b0adc31bede0b094429431502207f33e1a867a4440163d0bd1375faf5168ffece072a2c8778825753e4325cc8f101", "02575c7db75c5e8ebe686da70d3b760cd0edbdd69d6f8d97d3e2692d8496411581"], "sequence": 4294967295, "scriptSig": {"hex": "", "asm": ""}, "vout": 1, "txid": "2f4f04bfd8f268ee2210a35c99fe8da51ab64fb6b2880c59f2f328984b6723fc"}], "txid": "2fb65f04033a132dbf1711793ba8dbe9ab96413421d90a566f47c4d8a7c1e773", "blocktime": 1537874412, "version": 1, "confirmations": 11467, "time": 1537874412, "locktime": 0, "vsize": 144, "size": 226}