{"hash": "cd6cd04cc5e729b2b3e06e9e4222658b492759de7f17de0349839117fa325373", "blockhash": "00000000000000000018f53835495a110e01622372bf6ae95dc86f2b0ab887b0", "vout": [{"scriptPubKey": {"reqSigs": 1, "hex": "a91472992afb9be9f724a3a21758883a68e74f1001b287", "addresses": ["3C8xShqDysD9LRhw2jKsy3H54WRggKwMZZ"], "asm": "OP_HASH160 72992afb9be9f724a3a21758883a68e74f1001b2 OP_EQUAL", "type": "scripthash"}, "value": 0.00100801, "n": 0}, {"scriptPubKey": {"reqSigs": 1, "hex": "a914623bc71aae031839add7304b814c43bfc2e9051487", "addresses": ["3AeRkmrFg14XjcZxLiKsxWCsmmwrcjXezc"], "asm": "OP_HASH160 623bc71aae031839add7304b814c43bfc2e90514 OP_EQUAL", "type": "scripthash"}, "value": 0.06068307, "n": 1}], "hex": "010000000001012aa9230b4def6e6dce35d2ce3adda1933ceae20dd88748f83b1cf07e03a67b4901000000232200208b29cdff4436c9fd09e2bb3722ba65a440fbfc66964301c4902832d27a4f2b12ffffffff02c18901000000000017a91472992afb9be9f724a3a21758883a68e74f1001b28753985c000000000017a914623bc71aae031839add7304b814c43bfc2e90514870400473044022035db8702f4647aa49fde4dc7bc43fef94b213823dfbb7d65cd9641ca9e21409502200c98fabac4e5e79f271784b3b9f2863746fb1eee4f613d0a7fb2bbbfb760a34c01473044022001c03df3ee4052de47cef1771d4659f636b918bced37ed43f32ddfd8e51e1be702201b539421687f29603227f7fa667545e101806adc91d7b862aef98494d463199001475221036b4dd4bc8657eba03286a3a3f74fb599cc514153059dbb023dfb32b0268d8daf21032f41ceae151fd1826ff863e0017da5158aa4c8f6dc701d11b13794695089210b52ae00000000", "vin": [{"txinwitness": ["", "3044022035db8702f4647aa49fde4dc7bc43fef94b213823dfbb7d65cd9641ca9e21409502200c98fabac4e5e79f271784b3b9f2863746fb1eee4f613d0a7fb2bbbfb760a34c01", "3044022001c03df3ee4052de47cef1771d4659f636b918bced37ed43f32ddfd8e51e1be702201b539421687f29603227f7fa667545e101806adc91d7b862aef98494d463199001", "5221036b4dd4bc8657eba03286a3a3f74fb599cc514153059dbb023dfb32b0268d8daf21032f41ceae151fd1826ff863e0017da5158aa4c8f6dc701d11b13794695089210b52ae"], "sequence": 4294967295, "scriptSig": {"hex": "2200208b29cdff4436c9fd09e2bb3722ba65a440fbfc66964301c4902832d27a4f2b12", "asm": "00208b29cdff4436c9fd09e2bb3722ba65a440fbfc66964301c4902832d27a4f2b12"}, "vout": 1, "txid": "497ba6037ef01c3bf84887d80de2ea3c93a1dd3aced235ce6d6eef4d0b23a92a"}], "txid": "2fbd3feeaebff853d61657c4292b9d11d5330d0c5b9da4b3b6959bca67dcbfd5", "blocktime": 1537870928, "version": 1, "confirmations": 11514, "time": 1537870928, "locktime": 0, "vsize": 205, "size": 370}