{"hash": "44b7c143237cb25d616efebad9263e4fa77507ceeb5b3e7a9c07885948d8ff8a", "blockhash": "0000000000000000001cda96e906b7601b7a6fb1a3b62bca570a9e5d8f4b3de1", "vout": [{"scriptPubKey": {"reqSigs": 1, "hex": "00202e3b4501cf16ae63799e6bfa261abb5e0249e3b9e29387eabfc4e1546eb7913c", "addresses": ["bc1q9ca52qw0z6hxx7v7d0azvx4mtcpyncaeu2fc064lcns4gm4hjy7qu3uq7q"], "asm": "0 2e3b4501cf16ae63799e6bfa261abb5e0249e3b9e29387eabfc4e1546eb7913c", "type": "witness_v0_scripthash"}, "value": 0.00499345, "n": 0}], "hex": "020000000001011d453736d4ee1c71ce52885a16594d40a69c4fde7d76a1a4a09704fdadef1b390000000000b13f508001919e0700000000002200202e3b4501cf16ae63799e6bfa261abb5e0249e3b9e29387eabfc4e1546eb7913c04004730440220122cad2a045226144493c43a09bd323eab2e914905e066a8c9447fa85e8542f3022044ddc8595a947689a350d128b3541d2fc816b62b246e47e305e9f70300c2d9fa014730440220394bf3ccdd070dcae61d0234c5bebf1e25498c91a6fbe7f5e5c333d7f4ec89f40220100b918906a67c05d2923338a4cb54698ba71476bd60f3822e9d67523c53b9300147522103188c7a5845f3e21496ec3aa4ba93bbe7dfd1b9175bbba1277de4bb8af898d7482103c6bb048e83471d6367b7c5f1d15f2a62e2d993cf97bb0c0511d2f6a2bffb762052ae29da6420", "vin": [{"txinwitness": ["", "30440220122cad2a045226144493c43a09bd323eab2e914905e066a8c9447fa85e8542f3022044ddc8595a947689a350d128b3541d2fc816b62b246e47e305e9f70300c2d9fa01", "30440220394bf3ccdd070dcae61d0234c5bebf1e25498c91a6fbe7f5e5c333d7f4ec89f40220100b918906a67c05d2923338a4cb54698ba71476bd60f3822e9d67523c53b93001", "522103188c7a5845f3e21496ec3aa4ba93bbe7dfd1b9175bbba1277de4bb8af898d7482103c6bb048e83471d6367b7c5f1d15f2a62e2d993cf97bb0c0511d2f6a2bffb762052ae"], "sequence": 2152742833, "scriptSig": {"hex": "", "asm": ""}, "vout": 0, "txid": "391befadfd0497a0a4a1767dde4f9ca6404d59165a8852ce711ceed43637451d"}], "txid": "2fd90a01293d84ad208e2d183308d15ed9e79ace0132ecbbb005b97cf834b18c", "blocktime": 1537873282, "version": 2, "confirmations": 11484, "time": 1537873282, "locktime": 543480361, "vsize": 149, "size": 314}