{"hash": "2fdd955fb6d8ceb13d5af1d9e63ce35c1614e0eb40903be7228d0de21f5aabd4", "blockhash": "0000000000000000001f0ddff1eddb255c1121bcd4da4f1bc9a0da00cae72433", "vout": [{"scriptPubKey": {"reqSigs": 1, "hex": "76a914a4d07a79d9f91209d66c1aa8cb8a6100a9f97caf88ac", "addresses": ["1G2TZo6yo1RNAtNptdyWuJgNEAtzaqcawf"], "asm": "OP_DUP OP_HASH160 a4d07a79d9f91209d66c1aa8cb8a6100a9f97caf OP_EQUALVERIFY OP_CHECKSIG", "type": "pubkeyhash"}, "value": 0.02643, "n": 0}, {"scriptPubKey": {"reqSigs": 1, "hex": "a9144d5bfda646ec395f52bc820d5a749d98ab34378a87", "addresses": ["38k49wz4eMZTWQqFWgo9aNbAWen6ob3kPW"], "asm": "OP_HASH160 4d5bfda646ec395f52bc820d5a749d98ab34378a OP_EQUAL", "type": "scripthash"}, "value": 3.71850003, "n": 1}], "hex": "0100000001ed4088c8d726311b095baf1ae238ac81e647d93e4da1ae6cf003c1972f2073db01000000fdfd0000483045022100ae083db535b58289742e988435a188b5a19b61b147a4ac0fd6cd07bf11e90def0220737e2ce73f9362f5ce356df2cd72f3b06d5b76fa6bba394100fe0e436da3d40e0147304402203fe5fb6d834305636ee6f525d454b144fba6b20a98accec6cc6dd1af9081d80902207f19e8b4232e9467ad1b8b2eecaf2fa65520335f792127a7c501b50107c6b622014c6952210336a8dceba365634f2a99e57fa4ab00ebdd4990e8361dbccd5cb6999c6adbd31c2103bd68dea43e2f82d1065b7f897853820ba84cb4b9702b44fad04d1ff95eb13c2d2103ea196512720dceb188189e3c11f12200f3331137fffab44470102de75a9c831553aefdffffff0238542800000000001976a914a4d07a79d9f91209d66c1aa8cb8a6100a9f97caf88ac13fb29160000000017a9144d5bfda646ec395f52bc820d5a749d98ab34378a8710490800", "vin": [{"sequence": 4294967293, "scriptSig": {"hex": "00483045022100ae083db535b58289742e988435a188b5a19b61b147a4ac0fd6cd07bf11e90def0220737e2ce73f9362f5ce356df2cd72f3b06d5b76fa6bba394100fe0e436da3d40e0147304402203fe5fb6d834305636ee6f525d454b144fba6b20a98accec6cc6dd1af9081d80902207f19e8b4232e9467ad1b8b2eecaf2fa65520335f792127a7c501b50107c6b622014c6952210336a8dceba365634f2a99e57fa4ab00ebdd4990e8361dbccd5cb6999c6adbd31c2103bd68dea43e2f82d1065b7f897853820ba84cb4b9702b44fad04d1ff95eb13c2d2103ea196512720dceb188189e3c11f12200f3331137fffab44470102de75a9c831553ae", "asm": "0 3045022100ae083db535b58289742e988435a188b5a19b61b147a4ac0fd6cd07bf11e90def0220737e2ce73f9362f5ce356df2cd72f3b06d5b76fa6bba394100fe0e436da3d40e[ALL] 304402203fe5fb6d834305636ee6f525d454b144fba6b20a98accec6cc6dd1af9081d80902207f19e8b4232e9467ad1b8b2eecaf2fa65520335f792127a7c501b50107c6b622[ALL] 52210336a8dceba365634f2a99e57fa4ab00ebdd4990e8361dbccd5cb6999c6adbd31c2103bd68dea43e2f82d1065b7f897853820ba84cb4b9702b44fad04d1ff95eb13c2d2103ea196512720dceb188189e3c11f12200f3331137fffab44470102de75a9c831553ae"}, "vout": 1, "txid": "db73202f97c103f06caea14d3ed947e681ac38e21aaf5b091b3126d7c88840ed"}], "txid": "2fdd955fb6d8ceb13d5af1d9e63ce35c1614e0eb40903be7228d0de21f5aabd4", "blocktime": 1537872018, "version": 1, "confirmations": 11489, "time": 1537872018, "locktime": 542992, "vsize": 372, "size": 372}