{"hash": "b66212c142895e9c969da4bc62273fe44de432702e1e785e56ee34af456b9bba", "blockhash": "0000000000000000001f76057863aec43deb6fa401d9628bb513d65a8098bfab", "vout": [{"scriptPubKey": {"reqSigs": 1, "hex": "a914fb4d88bc4d28d0ef6a46cbd37702f320f8c59cc087", "addresses": ["3QbnQrkJRx2VCw9bbrs8yiWsfhpdzwoDr6"], "asm": "OP_HASH160 fb4d88bc4d28d0ef6a46cbd37702f320f8c59cc0 OP_EQUAL", "type": "scripthash"}, "value": 0.44999, "n": 0}], "hex": "01000000000101463b0287621413c2694f16498bbfc5853beceafd472cddb0772eaf315e9299eb0000000017160014332d5c08e745187f1fd1cc8c76954442a4726550ffffffff0158a1ae020000000017a914fb4d88bc4d28d0ef6a46cbd37702f320f8c59cc08702483045022100cdf586ba637f68a6cb9703fbc0d04fa13e7dd79609565307af1b0498cae86ef502207462cae100145629563bd4032c406307b3249a1ba29ac21132c31fa15b4d3eca0121020b913f616f6a476e1366cc79a3d970cf5cd6de4c252ee8ff333ee07f6d8256c900000000", "vin": [{"txinwitness": ["3045022100cdf586ba637f68a6cb9703fbc0d04fa13e7dd79609565307af1b0498cae86ef502207462cae100145629563bd4032c406307b3249a1ba29ac21132c31fa15b4d3eca01", "020b913f616f6a476e1366cc79a3d970cf5cd6de4c252ee8ff333ee07f6d8256c9"], "sequence": 4294967295, "scriptSig": {"hex": "160014332d5c08e745187f1fd1cc8c76954442a4726550", "asm": "0014332d5c08e745187f1fd1cc8c76954442a4726550"}, "vout": 0, "txid": "eb99925e31af2e77b0dd2c47fdeaec3b85c5bf8b49164f69c213146287023b46"}], "txid": "2fddc814b4725ef4fd23e51a70f29355e79d45e32cd43e948fe7aa8b903ee7ed", "blocktime": 1537873891, "version": 1, "confirmations": 11475, "time": 1537873891, "locktime": 0, "vsize": 134, "size": 216}