{"hash": "2fe07f9fbd3241487a74ad9aeb41571e04bc939db68950e051525e0274161566", "blockhash": "00000000000000000017f5eb5941039fbcee6240d03bc1f2f8e35350df66a1d8", "vout": [{"scriptPubKey": {"type": "nulldata", "hex": "6a4c50000077ef00012cb2bc3ed45b681581ade26cd19ed074892d00f8e87af8e8e963c7cfd5b99529522677c7572b56c310f930b169925baa18000613e36e32f8169c1d100759d4ba30d2c37bb011d97e02cf", "asm": "OP_RETURN 000077ef00012cb2bc3ed45b681581ade26cd19ed074892d00f8e87af8e8e963c7cfd5b99529522677c7572b56c310f930b169925baa18000613e36e32f8169c1d100759d4ba30d2c37bb011d97e02cf"}, "value": 0.0, "n": 0}, {"scriptPubKey": {"reqSigs": 1, "hex": "76a914b20bd2825939495971dc20c913ec102d351cff4e88ac", "addresses": ["1HERSaGzoyJLyaNkYYvhJFe94nRvpFba1N"], "asm": "OP_DUP OP_HASH160 b20bd2825939495971dc20c913ec102d351cff4e OP_EQUALVERIFY OP_CHECKSIG", "type": "pubkeyhash"}, "value": 0.0063452, "n": 1}], "hex": "01000000017c872bb4bd7409a296b07baf18ab77c785d9eb2b5751063054b7269b43c852fa010000006a473044022002ec80f3940a8b42e4c09a10c2e50233dc379249138817ad20a2e194c62bbd9702205befcaacca31bb55f289f4e7add9b514c5c9c1ca588b0da2783b7c1e0827dbe5012102ac0d1310ebaf23f580da0d2e082080a72a07c1b271f7cd60dff6f5bfe7024c16ffffffff020000000000000000536a4c50000077ef00012cb2bc3ed45b681581ade26cd19ed074892d00f8e87af8e8e963c7cfd5b99529522677c7572b56c310f930b169925baa18000613e36e32f8169c1d100759d4ba30d2c37bb011d97e02cf98ae0900000000001976a914b20bd2825939495971dc20c913ec102d351cff4e88ac00000000", "vin": [{"sequence": 4294967295, "scriptSig": {"hex": "473044022002ec80f3940a8b42e4c09a10c2e50233dc379249138817ad20a2e194c62bbd9702205befcaacca31bb55f289f4e7add9b514c5c9c1ca588b0da2783b7c1e0827dbe5012102ac0d1310ebaf23f580da0d2e082080a72a07c1b271f7cd60dff6f5bfe7024c16", "asm": "3044022002ec80f3940a8b42e4c09a10c2e50233dc379249138817ad20a2e194c62bbd9702205befcaacca31bb55f289f4e7add9b514c5c9c1ca588b0da2783b7c1e0827dbe5[ALL] 02ac0d1310ebaf23f580da0d2e082080a72a07c1b271f7cd60dff6f5bfe7024c16"}, "vout": 1, "txid": "fa52c8439b26b754300651572bebd985c777ab18af7bb096a20974bdb42b877c"}], "txid": "2fe07f9fbd3241487a74ad9aeb41571e04bc939db68950e051525e0274161566", "blocktime": 1537874412, "version": 1, "confirmations": 11467, "time": 1537874412, "locktime": 0, "vsize": 283, "size": 283}