{"hash": "2fe8aeb763869abb7bdce999a3c48583fafd1a16ed6ca9603bc0c0f58aaab081", "blockhash": "0000000000000000001f0ddff1eddb255c1121bcd4da4f1bc9a0da00cae72433", "vout": [{"scriptPubKey": {"type": "nulldata", "hex": "6a4c50000077a900013f28305dd15bb3407afe8d20af6c953dd567cf27e7e3ef3236678a6250975e4d5b8dfd28209081d9196931d189995baa10040612fa8b53ccfddcbc9a9526289ac0f6612cd74e33776ee4", "asm": "OP_RETURN 000077a900013f28305dd15bb3407afe8d20af6c953dd567cf27e7e3ef3236678a6250975e4d5b8dfd28209081d9196931d189995baa10040612fa8b53ccfddcbc9a9526289ac0f6612cd74e33776ee4"}, "value": 0.0, "n": 0}, {"scriptPubKey": {"reqSigs": 1, "hex": "76a914f0ac6078bad1eabb4af2c8fc98691a17f3fa5fad88ac", "addresses": ["1NwZfzYz36SyVnMRsT3x5AztiXHUzxktMD"], "asm": "OP_DUP OP_HASH160 f0ac6078bad1eabb4af2c8fc98691a17f3fa5fad OP_EQUALVERIFY OP_CHECKSIG", "type": "pubkeyhash"}, "value": 0.0147834, "n": 1}], "hex": "0100000001b132bd948add5e22af164f857a2b50138ec8c7e91f5dc5c8617107e679dca2d5000000006b483045022100d2db92fc4b6b5904ceb255b2b2fa8b89945183a833d5d007944a450282128574022067fcd97ce4144959c8583e53d91f9970a45d41deb39cdcc68ee44d01c2d11681012102a26808cf7f732d4c9e656b96e3eecc3a0e2dc4f901844073f979af0a240ad2baffffffff020000000000000000536a4c50000077a900013f28305dd15bb3407afe8d20af6c953dd567cf27e7e3ef3236678a6250975e4d5b8dfd28209081d9196931d189995baa10040612fa8b53ccfddcbc9a9526289ac0f6612cd74e33776ee4c48e1600000000001976a914f0ac6078bad1eabb4af2c8fc98691a17f3fa5fad88ac00000000", "vin": [{"sequence": 4294967295, "scriptSig": {"hex": "483045022100d2db92fc4b6b5904ceb255b2b2fa8b89945183a833d5d007944a450282128574022067fcd97ce4144959c8583e53d91f9970a45d41deb39cdcc68ee44d01c2d11681012102a26808cf7f732d4c9e656b96e3eecc3a0e2dc4f901844073f979af0a240ad2ba", "asm": "3045022100d2db92fc4b6b5904ceb255b2b2fa8b89945183a833d5d007944a450282128574022067fcd97ce4144959c8583e53d91f9970a45d41deb39cdcc68ee44d01c2d11681[ALL] 02a26808cf7f732d4c9e656b96e3eecc3a0e2dc4f901844073f979af0a240ad2ba"}, "vout": 0, "txid": "d5a2dc79e6077161c8c55d1fe9c7c88e13502b7a854f16af225edd8a94bd32b1"}], "txid": "2fe8aeb763869abb7bdce999a3c48583fafd1a16ed6ca9603bc0c0f58aaab081", "blocktime": 1537872018, "version": 1, "confirmations": 11489, "time": 1537872018, "locktime": 0, "vsize": 284, "size": 284}