{"hash": "2bac8e9561389b437fc160b3fc51b1e296b8485a4247f1b0dfecf78d4fd23594", "blockhash": "00000000000000000017f5eb5941039fbcee6240d03bc1f2f8e35350df66a1d8", "vout": [{"scriptPubKey": {"reqSigs": 1, "hex": "a914b379977cb382fb04ffa2735bfe80fc1b3e5ec67d87", "addresses": ["3J3zYDwz3JbRfXHz49Mc6xebsdhR9b46NA"], "asm": "OP_HASH160 b379977cb382fb04ffa2735bfe80fc1b3e5ec67d OP_EQUAL", "type": "scripthash"}, "value": 0.01561492, "n": 0}], "hex": "010000000001013b1bab45af697b4b0208e166f8ee4fc911aca30380bde093f2d6d76146c9873e00000000171600143d453c67cff4ea64c070d2e88a480e0fbbb2caeaffffffff0194d317000000000017a914b379977cb382fb04ffa2735bfe80fc1b3e5ec67d870247304402200a24fa3e0117cb5c5d41f3e2f9dc8424c1196947f82fbe06a57b2eb4703a8d0702203d7c468b947074c1ce9e20cf3bbc082d3c125021b044ad5c18b5ae0046e334ca01210326ee099d586746e752fba1dadd556708be78c58e39d731838bc87b1ab9b0c35e00000000", "vin": [{"txinwitness": ["304402200a24fa3e0117cb5c5d41f3e2f9dc8424c1196947f82fbe06a57b2eb4703a8d0702203d7c468b947074c1ce9e20cf3bbc082d3c125021b044ad5c18b5ae0046e334ca01", "0326ee099d586746e752fba1dadd556708be78c58e39d731838bc87b1ab9b0c35e"], "sequence": 4294967295, "scriptSig": {"hex": "1600143d453c67cff4ea64c070d2e88a480e0fbbb2caea", "asm": "00143d453c67cff4ea64c070d2e88a480e0fbbb2caea"}, "vout": 0, "txid": "3e87c94661d7d6f293e0bd8003a3ac11c94feef866e108024b7b69af45ab1b3b"}], "txid": "2feacec90d8c59cf107572c850ec84d2d5a984d4d9a1666485bc2af96d117e8c", "blocktime": 1537874412, "version": 1, "confirmations": 11467, "time": 1537874412, "locktime": 0, "vsize": 134, "size": 215}