{"hash": "2fecbae31d3cb4ff857f95743dc8f394aa6ab791ab2ebeacbe244d27a3ba1123", "blockhash": "00000000000000000004ffacab907a6b429b9a5745fa0b75af4234bf69dd7176", "vout": [{"scriptPubKey": {"reqSigs": 1, "hex": "76a914697ac67f7769cba9a6f35dce8ed24179ba59a9a788ac", "addresses": ["1Acj2j4ygBtHLC8nVax65GMj9PtNAjsWbD"], "asm": "OP_DUP OP_HASH160 697ac67f7769cba9a6f35dce8ed24179ba59a9a7 OP_EQUALVERIFY OP_CHECKSIG", "type": "pubkeyhash"}, "value": 0.01056898, "n": 0}, {"scriptPubKey": {"reqSigs": 1, "hex": "76a9140e249027f2a97506bdf3f968c960ca98e895a0d988ac", "addresses": ["12HnG8qC2xVi7kxcuF2Jp7iivsnSWoHwxT"], "asm": "OP_DUP OP_HASH160 0e249027f2a97506bdf3f968c960ca98e895a0d9 OP_EQUALVERIFY OP_CHECKSIG", "type": "pubkeyhash"}, "value": 0.16902391, "n": 1}], "hex": "0200000005992012dd90022898874bb8054058aceb1dbdef2935865ae5cdd901d187f80251010000006a47304402201635433a266aab1d6e5a49886ff0a51d13b19719d1a2d36fc93345c134f790b302202cf47199a0440e5552d1dec576273bfe35559ef8dc18877f913d249f46afcaaa012102d21a55171d8541d5276872daaa78bba46f292a3082ae8d643ace5ad79428dc1cfeffffff9a473402d25bc9f3a6f5a08ddb2dd7b6f1e558710bcb18fb37d906c78c2540d2010000006b483045022100839602d81b6d25b7ad58493af9b299970ad71df67721c73cfb71569dae513df102206b8f8d92f758d475b4271c5f36a8aa5dacd857a9d3f52d4f4019299d9578aea00121036dd4c2073d5b03fe97230a6069d915e9f63a2f479f998d5216341ef14aa352dafeffffffa36f53e656043ae4bca02a7473f528d43d67b146f7e7bfdb19aff8efb99b6e32000000006a47304402204f3b76c980fc948b93cd3f53d23ef859d3e356467d44fee558695d3918a4541d022006ee5ca12aecb0439be8ff4b2f0a477d002dd15d9b520c3ab5cc054cd02ee1bf01210355fa58d72478161756b389c46735979733c077f232a01be15d5a01a45f3015d7feffffffaac992ad10f64410269cfb4f800b857210dfb048918a734166c87cd4e97cf346060000006a473044022078209bf2efbb2c50738d13d6cfe43342e698bd6756f7805af9c9b175f24528b7022070c3db66ff1e6d18d41a92397e48548751923d8fafc9844713939b1303c687b7012103c0ecbbf6fc9ef1640a153be1362868f2d344385a87c0131014057d432aa295b3feffffffdb8fe08f7612b5eb0b9a489696cff08dec8d67592cda609d25023c77e6db438d000000006b483045022100f0bba3ddad390c8cb6b392c4da4ee63a3d05c8d5740ef44fe2c27c21ee4f5135022002d1df8686cc2d50a01f0ad165a796636a991f078077f4d20f21a78bff32c131012103f51b90fb508f8e341a12c2e7ef9b2419b700542ce0633e95ce2c9e638077100dfeffffff0282201000000000001976a914697ac67f7769cba9a6f35dce8ed24179ba59a9a788acf7e80101000000001976a9140e249027f2a97506bdf3f968c960ca98e895a0d988ac16490800", "vin": [{"sequence": 4294967294, "scriptSig": {"hex": "47304402201635433a266aab1d6e5a49886ff0a51d13b19719d1a2d36fc93345c134f790b302202cf47199a0440e5552d1dec576273bfe35559ef8dc18877f913d249f46afcaaa012102d21a55171d8541d5276872daaa78bba46f292a3082ae8d643ace5ad79428dc1c", "asm": "304402201635433a266aab1d6e5a49886ff0a51d13b19719d1a2d36fc93345c134f790b302202cf47199a0440e5552d1dec576273bfe35559ef8dc18877f913d249f46afcaaa[ALL] 02d21a55171d8541d5276872daaa78bba46f292a3082ae8d643ace5ad79428dc1c"}, "vout": 1, "txid": "5102f887d101d9cde55a863529efbd1debac584005b84b8798280290dd122099"}, {"sequence": 4294967294, "scriptSig": {"hex": "483045022100839602d81b6d25b7ad58493af9b299970ad71df67721c73cfb71569dae513df102206b8f8d92f758d475b4271c5f36a8aa5dacd857a9d3f52d4f4019299d9578aea00121036dd4c2073d5b03fe97230a6069d915e9f63a2f479f998d5216341ef14aa352da", "asm": "3045022100839602d81b6d25b7ad58493af9b299970ad71df67721c73cfb71569dae513df102206b8f8d92f758d475b4271c5f36a8aa5dacd857a9d3f52d4f4019299d9578aea0[ALL] 036dd4c2073d5b03fe97230a6069d915e9f63a2f479f998d5216341ef14aa352da"}, "vout": 1, "txid": "d240258cc706d937fb18cb0b7158e5f1b6d72ddb8da0f5a6f3c95bd20234479a"}, {"sequence": 4294967294, "scriptSig": {"hex": "47304402204f3b76c980fc948b93cd3f53d23ef859d3e356467d44fee558695d3918a4541d022006ee5ca12aecb0439be8ff4b2f0a477d002dd15d9b520c3ab5cc054cd02ee1bf01210355fa58d72478161756b389c46735979733c077f232a01be15d5a01a45f3015d7", "asm": "304402204f3b76c980fc948b93cd3f53d23ef859d3e356467d44fee558695d3918a4541d022006ee5ca12aecb0439be8ff4b2f0a477d002dd15d9b520c3ab5cc054cd02ee1bf[ALL] 0355fa58d72478161756b389c46735979733c077f232a01be15d5a01a45f3015d7"}, "vout": 0, "txid": "326e9bb9eff8af19dbbfe7f746b1673dd428f573742aa0bce43a0456e6536fa3"}, {"sequence": 4294967294, "scriptSig": {"hex": "473044022078209bf2efbb2c50738d13d6cfe43342e698bd6756f7805af9c9b175f24528b7022070c3db66ff1e6d18d41a92397e48548751923d8fafc9844713939b1303c687b7012103c0ecbbf6fc9ef1640a153be1362868f2d344385a87c0131014057d432aa295b3", "asm": "3044022078209bf2efbb2c50738d13d6cfe43342e698bd6756f7805af9c9b175f24528b7022070c3db66ff1e6d18d41a92397e48548751923d8fafc9844713939b1303c687b7[ALL] 03c0ecbbf6fc9ef1640a153be1362868f2d344385a87c0131014057d432aa295b3"}, "vout": 6, "txid": "46f37ce9d47cc86641738a9148b0df1072850b804ffb9c261044f610ad92c9aa"}, {"sequence": 4294967294, "scriptSig": {"hex": "483045022100f0bba3ddad390c8cb6b392c4da4ee63a3d05c8d5740ef44fe2c27c21ee4f5135022002d1df8686cc2d50a01f0ad165a796636a991f078077f4d20f21a78bff32c131012103f51b90fb508f8e341a12c2e7ef9b2419b700542ce0633e95ce2c9e638077100d", "asm": "3045022100f0bba3ddad390c8cb6b392c4da4ee63a3d05c8d5740ef44fe2c27c21ee4f5135022002d1df8686cc2d50a01f0ad165a796636a991f078077f4d20f21a78bff32c131[ALL] 03f51b90fb508f8e341a12c2e7ef9b2419b700542ce0633e95ce2c9e638077100d"}, "vout": 0, "txid": "8d43dbe6773c02259d60da2c59678dec8df0cf9696489a0bebb512768fe08fdb"}], "txid": "2fecbae31d3cb4ff857f95743dc8f394aa6ab791ab2ebeacbe244d27a3ba1123", "blocktime": 1537875543, "version": 2, "confirmations": 11464, "time": 1537875543, "locktime": 542998, "vsize": 815, "size": 815}