{"hash": "2fed07cb46224bcb34e63de8458d0d707f2d950cb7d8e51cf94c365e06ab3609", "blockhash": "0000000000000000000baef3f32e3676a92c3b2e5da21b426e4f302fc371ce76", "vout": [{"scriptPubKey": {"reqSigs": 1, "hex": "76a9149fbc5fa343cb363d38907e1932611c3b8b3477f888ac", "addresses": ["1FZc6vn2CmKVtCddmrqryuqKuidodZrijq"], "asm": "OP_DUP OP_HASH160 9fbc5fa343cb363d38907e1932611c3b8b3477f8 OP_EQUALVERIFY OP_CHECKSIG", "type": "pubkeyhash"}, "value": 0.00398518, "n": 0}, {"scriptPubKey": {"reqSigs": 1, "hex": "76a914ac342afb0418fca7bc0957c275c9b73aeafe154288ac", "addresses": ["1GhXigeWAGWy6rFqQ4Bhiu1X5mPuHpfMgo"], "asm": "OP_DUP OP_HASH160 ac342afb0418fca7bc0957c275c9b73aeafe1542 OP_EQUALVERIFY OP_CHECKSIG", "type": "pubkeyhash"}, "value": 0.18193416, "n": 1}], "hex": "0100000003690bc6f830b185a7574c4fcf11ccab29060c7b8df862a5a70f3a4854ff0d6430010000006b48304502210095359dbe7b22760438a541f19edd61925486f6407a21f6da3c60b9355287425c02202bf3dde0b96fe077e89c82dded4ced93a9b7e6ec26893c4014560e282b9da23f012103f14720b51b87b14472ef1b32248409770e2cc95098029e01bec308800fd4fd59ffffffff92ae90c0ebf3bb2384789e776603ea0034a44bea1c4514bd92e0522090c71b62000000006a473044022025c7a136dd022a6f639f03d05dd3fe8d7774a41e0e0abad5690bbe6ad3f2ece60220181b6d7fb9844194c6fe52b756a64635549218aa6fdce5ba4c0566bbf6a21062012102ae770382382523f5c933e8763682bf1c6c4c2123e202ebbec3e1793008bfd806ffffffff08f66be314cb11aeb8ca24bee683745c1e9015387d4c9c40d4f0697d9e0386bf000000006a4730440220146e11113ecc66c245a91bf382e6f31e46f38f7271239a0fdf4e6d9c3c12b5a1022068fea9785f498411a4cffddf53023e7c73d7a6f7fdce06a9cc0a1af8334a46b4012102a650ad107ba6b8eeba4009e9f4345ee3435def6c26a70c814a7002113232b2f8ffffffff02b6140600000000001976a9149fbc5fa343cb363d38907e1932611c3b8b3477f888ac089c1501000000001976a914ac342afb0418fca7bc0957c275c9b73aeafe154288ac00000000", "vin": [{"sequence": 4294967295, "scriptSig": {"hex": "48304502210095359dbe7b22760438a541f19edd61925486f6407a21f6da3c60b9355287425c02202bf3dde0b96fe077e89c82dded4ced93a9b7e6ec26893c4014560e282b9da23f012103f14720b51b87b14472ef1b32248409770e2cc95098029e01bec308800fd4fd59", "asm": "304502210095359dbe7b22760438a541f19edd61925486f6407a21f6da3c60b9355287425c02202bf3dde0b96fe077e89c82dded4ced93a9b7e6ec26893c4014560e282b9da23f[ALL] 03f14720b51b87b14472ef1b32248409770e2cc95098029e01bec308800fd4fd59"}, "vout": 1, "txid": "30640dff54483a0fa7a562f88d7b0c0629abcc11cf4f4c57a785b130f8c60b69"}, {"sequence": 4294967295, "scriptSig": {"hex": "473044022025c7a136dd022a6f639f03d05dd3fe8d7774a41e0e0abad5690bbe6ad3f2ece60220181b6d7fb9844194c6fe52b756a64635549218aa6fdce5ba4c0566bbf6a21062012102ae770382382523f5c933e8763682bf1c6c4c2123e202ebbec3e1793008bfd806", "asm": "3044022025c7a136dd022a6f639f03d05dd3fe8d7774a41e0e0abad5690bbe6ad3f2ece60220181b6d7fb9844194c6fe52b756a64635549218aa6fdce5ba4c0566bbf6a21062[ALL] 02ae770382382523f5c933e8763682bf1c6c4c2123e202ebbec3e1793008bfd806"}, "vout": 0, "txid": "621bc7902052e092bd14451cea4ba43400ea0366779e788423bbf3ebc090ae92"}, {"sequence": 4294967295, "scriptSig": {"hex": "4730440220146e11113ecc66c245a91bf382e6f31e46f38f7271239a0fdf4e6d9c3c12b5a1022068fea9785f498411a4cffddf53023e7c73d7a6f7fdce06a9cc0a1af8334a46b4012102a650ad107ba6b8eeba4009e9f4345ee3435def6c26a70c814a7002113232b2f8", "asm": "30440220146e11113ecc66c245a91bf382e6f31e46f38f7271239a0fdf4e6d9c3c12b5a1022068fea9785f498411a4cffddf53023e7c73d7a6f7fdce06a9cc0a1af8334a46b4[ALL] 02a650ad107ba6b8eeba4009e9f4345ee3435def6c26a70c814a7002113232b2f8"}, "vout": 0, "txid": "bf86039e7d69f0d4409c4c7d3815901e5c7483e6be24cab8ae11cb14e36bf608"}], "txid": "2fed07cb46224bcb34e63de8458d0d707f2d950cb7d8e51cf94c365e06ab3609", "blocktime": 1537876114, "version": 1, "confirmations": 11460, "time": 1537876114, "locktime": 0, "vsize": 520, "size": 520}