{"hash": "2feefa9e8705b35917907e2cb46e3abdf9da095bbf9b4083dc0dfd53fa64b03d", "blockhash": "000000000000000000022b45ed06c6f4ccd3cf7fb5ba4856ebd2e58215665228", "vout": [{"scriptPubKey": {"reqSigs": 1, "hex": "76a914680c310a219fa38ba9f68401e5a89d637199c0cf88ac", "addresses": ["1AV9t32Gs9VELkEnWRZnDD9WC2hWZCayjw"], "asm": "OP_DUP OP_HASH160 680c310a219fa38ba9f68401e5a89d637199c0cf OP_EQUALVERIFY OP_CHECKSIG", "type": "pubkeyhash"}, "value": 0.07817474, "n": 0}, {"scriptPubKey": {"reqSigs": 1, "hex": "76a9146002e238cdc371894666e4d964e0b29ccaa1356288ac", "addresses": ["19kfKn5jEomAxmcfk1pdRL5im5NMB5rSWR"], "asm": "OP_DUP OP_HASH160 6002e238cdc371894666e4d964e0b29ccaa13562 OP_EQUALVERIFY OP_CHECKSIG", "type": "pubkeyhash"}, "value": 0.51646, "n": 1}], "hex": "0100000001a68a82b49b228f171341f1c62141654089cd9fed2b8c33f4d4212f22f7fa8fb6010000006b4830450221009c7f4f16525e3973c7113fbf88578c1fd0810dfb38a02a133aa6542a8d0ec44902205e2aef386f12259d3922f0cb1f26f9282532c9087770a0158f5ff2c466f6237b01210290ac5e042b4d9d01f268706d913eaaa17d2cd796e22733b18ba09a62c9de6f1bffffffff0202497700000000001976a914680c310a219fa38ba9f68401e5a89d637199c0cf88ac300e1403000000001976a9146002e238cdc371894666e4d964e0b29ccaa1356288ac00000000", "vin": [{"sequence": 4294967295, "scriptSig": {"hex": "4830450221009c7f4f16525e3973c7113fbf88578c1fd0810dfb38a02a133aa6542a8d0ec44902205e2aef386f12259d3922f0cb1f26f9282532c9087770a0158f5ff2c466f6237b01210290ac5e042b4d9d01f268706d913eaaa17d2cd796e22733b18ba09a62c9de6f1b", "asm": "30450221009c7f4f16525e3973c7113fbf88578c1fd0810dfb38a02a133aa6542a8d0ec44902205e2aef386f12259d3922f0cb1f26f9282532c9087770a0158f5ff2c466f6237b[ALL] 0290ac5e042b4d9d01f268706d913eaaa17d2cd796e22733b18ba09a62c9de6f1b"}, "vout": 1, "txid": "b68ffaf7222f21d4f4338c2bed9fcd8940654121c6f14113178f229bb4828aa6"}], "txid": "2feefa9e8705b35917907e2cb46e3abdf9da095bbf9b4083dc0dfd53fa64b03d", "blocktime": 1537869901, "version": 1, "confirmations": 11524, "time": 1537869901, "locktime": 0, "vsize": 226, "size": 226}