{"hash": "1d7da5168f7d5e264d13e52953493e65d1ece4f58e690cb1adcdff273342ebf4", "blockhash": "0000000000000000001e0dab787dd257d1dbfcb92a98c2207d5e1078be1f4165", "vout": [{"scriptPubKey": {"reqSigs": 1, "hex": "a914ffa72789b603a515b9a9431d9304f0945bcff85e87", "addresses": ["3QznUZ99Nfdy4HGD3M2s7HX9ge78DzR2wu"], "asm": "OP_HASH160 ffa72789b603a515b9a9431d9304f0945bcff85e OP_EQUAL", "type": "scripthash"}, "value": 0.00725, "n": 0}, {"scriptPubKey": {"reqSigs": 1, "hex": "a91435331c44ba88dc04bf4bbb54faff31761866ac1187", "addresses": ["36YJxvcqXyCkvp6GcVRnYfWXHypXJL7kYz"], "asm": "OP_HASH160 35331c44ba88dc04bf4bbb54faff31761866ac11 OP_EQUAL", "type": "scripthash"}, "value": 0.01137417, "n": 1}], "hex": "020000000001015a10797fbea385b69cabeb11ea27961cf60353b46ce615eeafbd88c35c366cc500000000171600149fcaaf6f3b3714469548b07bcf95c730b81f7a8efdffffff0208100b000000000017a914ffa72789b603a515b9a9431d9304f0945bcff85e87095b11000000000017a91435331c44ba88dc04bf4bbb54faff31761866ac118702473044022004eaee259c41faf5800a85b822338defb42d6a5a7a792f1c89e9d61fa50d6bfc02201b108d28f14fe14b1d25cc98e965917d29d421881e5ac6c4c97195cbbd8a36fd01210338a23add4a1c9330312089c9447a679a34fe60b0a5fe33e05b5bd2af6b42c41100000000", "vin": [{"txinwitness": ["3044022004eaee259c41faf5800a85b822338defb42d6a5a7a792f1c89e9d61fa50d6bfc02201b108d28f14fe14b1d25cc98e965917d29d421881e5ac6c4c97195cbbd8a36fd01", "0338a23add4a1c9330312089c9447a679a34fe60b0a5fe33e05b5bd2af6b42c411"], "sequence": 4294967293, "scriptSig": {"hex": "1600149fcaaf6f3b3714469548b07bcf95c730b81f7a8e", "asm": "00149fcaaf6f3b3714469548b07bcf95c730b81f7a8e"}, "vout": 0, "txid": "c56c365cc388bdafee15e66cb45303f61c9627ea11ebab9cb685a3be7f79105a"}], "txid": "2fee02f98b926b78a27c3738234f27c6e15b5d21fd120220c678cd8afbb6da41", "blocktime": 1537872475, "version": 2, "confirmations": 11487, "time": 1537872475, "locktime": 0, "vsize": 166, "size": 247}