{"hash": "5e74958ce4ec234f3f78ac0921ea26494deebc76e19545b5504a3f36eb700ef5", "blockhash": "0000000000000000000e13cef7c366c0283d82e591d1acd082e914b08063cdf1", "vout": [{"scriptPubKey": {"reqSigs": 1, "hex": "76a9146bf5d825fdc826a564706de3e597daf6a5aaf14b88ac", "addresses": ["1Aqqp6BYo68MNUBoX7myFDEicK2Xk7yxRH"], "asm": "OP_DUP OP_HASH160 6bf5d825fdc826a564706de3e597daf6a5aaf14b OP_EQUALVERIFY OP_CHECKSIG", "type": "pubkeyhash"}, "value": 0.0028826, "n": 0}, {"scriptPubKey": {"reqSigs": 1, "hex": "a9141f26d528fbc4a5bec7fcd57ca3f6beeb3e22d80d87", "addresses": ["34XjPdYCK5gzNepr6T4uisMHGH6YZoX8Tc"], "asm": "OP_HASH160 1f26d528fbc4a5bec7fcd57ca3f6beeb3e22d80d OP_EQUAL", "type": "scripthash"}, "value": 0.01002972, "n": 1}], "hex": "02000000000102050b1f0a2f44bd9818a89949b224f6105b80d964d3fb2d9e359dbbd759430ac80000000017160014f4c0447a4a5a847aec4c5518dffcdd2c5ff99d1cfeffffffc07264e1a5ae3c35e703df3b1188b6578f1d2701cf65dd06b2c9d8081b6f231800000000171600144757f3531d7e8c608ce97971343794c5d71df8b3feffffff0204660400000000001976a9146bf5d825fdc826a564706de3e597daf6a5aaf14b88acdc4d0f000000000017a9141f26d528fbc4a5bec7fcd57ca3f6beeb3e22d80d87024830450221008a8f2598e212758aa24b4a482200eda7b170401d7da04173664969865ed8582c0220244a5d3959e7f871aa921a803c68cddcc3d23829b5d19c1019c1f7c88343203f012102d04bce8cc077c196d6856825c01f6e8b2f9139391f9ad453b3075f03fffdd4cb02473044022043bdd1dfa6363c9ec5b3ce5a79e920367c4af3f6fcd1707726c3e7dba0ed1e1a02205b8bb33f22113e3994a3bb263d5bc5079fd702b41407ef43c09ecfebfea5319b0121025933d9078706741c6f80134702b9c0afdc89ecb080e842d2a5d6d817b6dc019810490800", "vin": [{"txinwitness": ["30450221008a8f2598e212758aa24b4a482200eda7b170401d7da04173664969865ed8582c0220244a5d3959e7f871aa921a803c68cddcc3d23829b5d19c1019c1f7c88343203f01", "02d04bce8cc077c196d6856825c01f6e8b2f9139391f9ad453b3075f03fffdd4cb"], "sequence": 4294967294, "scriptSig": {"hex": "160014f4c0447a4a5a847aec4c5518dffcdd2c5ff99d1c", "asm": "0014f4c0447a4a5a847aec4c5518dffcdd2c5ff99d1c"}, "vout": 0, "txid": "c80a4359d7bb9d359e2dfbd364d9805b10f624b24999a81898bd442f0a1f0b05"}, {"txinwitness": ["3044022043bdd1dfa6363c9ec5b3ce5a79e920367c4af3f6fcd1707726c3e7dba0ed1e1a02205b8bb33f22113e3994a3bb263d5bc5079fd702b41407ef43c09ecfebfea5319b01", "025933d9078706741c6f80134702b9c0afdc89ecb080e842d2a5d6d817b6dc0198"], "sequence": 4294967294, "scriptSig": {"hex": "1600144757f3531d7e8c608ce97971343794c5d71df8b3", "asm": "00144757f3531d7e8c608ce97971343794c5d71df8b3"}, "vout": 0, "txid": "18236f1b08d8c9b206dd65cf01271d8f57b688113bdf03e7353caea5e16472c0"}], "txid": "2ff024448121636cfdc8a8d61fd5dad5490a89dbb0cb577cf88a11a5dda95db5", "blocktime": 1537871767, "version": 2, "confirmations": 11495, "time": 1537871767, "locktime": 542992, "vsize": 259, "size": 421}