{"hash": "2ff53d0874fa064727d651a2e3d9235ec16d878a39008faaa8a0d4e956e0ef9d", "blockhash": "0000000000000000000baef3f32e3676a92c3b2e5da21b426e4f302fc371ce76", "vout": [{"scriptPubKey": {"reqSigs": 1, "hex": "a9148ec7472df1c1247f8fc267b2514e6c748128324c87", "addresses": ["3Ehxbs7zdEEvzTEeWN2vq8WvjN9FDvqwWj"], "asm": "OP_HASH160 8ec7472df1c1247f8fc267b2514e6c748128324c OP_EQUAL", "type": "scripthash"}, "value": 0.0079859, "n": 0}, {"scriptPubKey": {"reqSigs": 1, "hex": "a914544ee34a24476ffb021f2cdf9d8bd1d0cbe9e56287", "addresses": ["39NoBt5N1E7LXdjxDd49T5eq7oD3cJjuZR"], "asm": "OP_HASH160 544ee34a24476ffb021f2cdf9d8bd1d0cbe9e562 OP_EQUAL", "type": "scripthash"}, "value": 0.00017378, "n": 1}], "hex": "010000000143735e0303dda7be816016e3bcaa03fd72becc5e49c18997faed381880e5160600000000fc0047304402201879fe81051b9a4a7cd9f7c39f6c2cde9b5f2bc5716970e949e79b2089b0ea5402200b6d0229225c7d6fa59f26f3427f44fdf1d3a29c2d5471d0870c99ce9e2251220147304402200215d1cee80ab72c9764eefe316c0cbb121a25c053caeec14e1ebfbbe2f2f06302202f332576f0ebb8ad6d071955a9352c430559a37e44c3a886a4d07ee16a0d65b0014c69522102da202988271779e1de785282dd20df50709023476506a32bcbb92cbfa587262921029d15604dca5faca9c2eafd955a309a8801eb5ed306a4ae2b764a29142a169dbf2102d4d533ab6bbb1f4759d5a6b4ec012bc65d2875ab84b1b224f2d8e6f861080ec953aeffffffff027e2f0c000000000017a9148ec7472df1c1247f8fc267b2514e6c748128324c87e24300000000000017a914544ee34a24476ffb021f2cdf9d8bd1d0cbe9e5628700000000", "vin": [{"sequence": 4294967295, "scriptSig": {"hex": "0047304402201879fe81051b9a4a7cd9f7c39f6c2cde9b5f2bc5716970e949e79b2089b0ea5402200b6d0229225c7d6fa59f26f3427f44fdf1d3a29c2d5471d0870c99ce9e2251220147304402200215d1cee80ab72c9764eefe316c0cbb121a25c053caeec14e1ebfbbe2f2f06302202f332576f0ebb8ad6d071955a9352c430559a37e44c3a886a4d07ee16a0d65b0014c69522102da202988271779e1de785282dd20df50709023476506a32bcbb92cbfa587262921029d15604dca5faca9c2eafd955a309a8801eb5ed306a4ae2b764a29142a169dbf2102d4d533ab6bbb1f4759d5a6b4ec012bc65d2875ab84b1b224f2d8e6f861080ec953ae", "asm": "0 304402201879fe81051b9a4a7cd9f7c39f6c2cde9b5f2bc5716970e949e79b2089b0ea5402200b6d0229225c7d6fa59f26f3427f44fdf1d3a29c2d5471d0870c99ce9e225122[ALL] 304402200215d1cee80ab72c9764eefe316c0cbb121a25c053caeec14e1ebfbbe2f2f06302202f332576f0ebb8ad6d071955a9352c430559a37e44c3a886a4d07ee16a0d65b0[ALL] 522102da202988271779e1de785282dd20df50709023476506a32bcbb92cbfa587262921029d15604dca5faca9c2eafd955a309a8801eb5ed306a4ae2b764a29142a169dbf2102d4d533ab6bbb1f4759d5a6b4ec012bc65d2875ab84b1b224f2d8e6f861080ec953ae"}, "vout": 0, "txid": "0616e5801838edfa9789c1495eccbe72fd03aabce3166081bea7dd03035e7343"}], "txid": "2ff53d0874fa064727d651a2e3d9235ec16d878a39008faaa8a0d4e956e0ef9d", "blocktime": 1537876114, "version": 1, "confirmations": 11459, "time": 1537876114, "locktime": 0, "vsize": 367, "size": 367}