{"hash": "895a78ab3d60914ef1eee7208d4edf85028aeb6b577d7d358a454d865c851d86", "blockhash": "0000000000000000001e0dab787dd257d1dbfcb92a98c2207d5e1078be1f4165", "vout": [{"scriptPubKey": {"reqSigs": 1, "hex": "00141196ce40993acef133b4c3f20640a3dbdcf9a1e0", "addresses": ["bc1qzxtvusye8t80zva5c0eqvs9rm0w0ng0qu4a2h9"], "asm": "0 1196ce40993acef133b4c3f20640a3dbdcf9a1e0", "type": "witness_v0_keyhash"}, "value": 0.00027035, "n": 0}, {"scriptPubKey": {"reqSigs": 1, "hex": "a9143b34a831cb985238b27fb09c39d440141b7854df87", "addresses": ["3764sXymCR4oBqv5Njt8cut9dcMrDteGd3"], "asm": "OP_HASH160 3b34a831cb985238b27fb09c39d440141b7854df OP_EQUAL", "type": "scripthash"}, "value": 0.0072, "n": 1}], "hex": "010000000001019f0905014e62c4213e65d1aa4d9f6cc911ecba4fbb47f0356a60ee216ff8656127000000171600142a552fd7db4245de10b0057baeb1017269cba1c3ffffffff029b690000000000001600141196ce40993acef133b4c3f20640a3dbdcf9a1e080fc0a000000000017a9143b34a831cb985238b27fb09c39d440141b7854df8702483045022100ae40a407077389b331e731e05b3d8051f171e6cccab90303d0a7af5f41f0b19202206da5bd80b7655c31d02a76ee1389f33e0e10edf0a0eadc1f294e97d331c3fad60121020f51091d14288471286b1505a2541f74c4b9279b1c6a38c2d705ab12350ccbe000000000", "vin": [{"txinwitness": ["3045022100ae40a407077389b331e731e05b3d8051f171e6cccab90303d0a7af5f41f0b19202206da5bd80b7655c31d02a76ee1389f33e0e10edf0a0eadc1f294e97d331c3fad601", "020f51091d14288471286b1505a2541f74c4b9279b1c6a38c2d705ab12350ccbe0"], "sequence": 4294967295, "scriptSig": {"hex": "1600142a552fd7db4245de10b0057baeb1017269cba1c3", "asm": "00142a552fd7db4245de10b0057baeb1017269cba1c3"}, "vout": 39, "txid": "6165f86f21ee606a35f047bb4fbaec11c96c9f4daad1653e21c4624e0105099f"}], "txid": "2ff8f05b966a0c61f5e5f2ac7250c05eb8967b55d84afdb7e98ee184b4372dfc", "blocktime": 1537872475, "version": 1, "confirmations": 11486, "time": 1537872475, "locktime": 0, "vsize": 165, "size": 247}