{"hash": "3000835073a590741df272ffbd1e9d8c4890d71a46fe317ec119f851bf5c1696", "blockhash": "00000000000000000004ffacab907a6b429b9a5745fa0b75af4234bf69dd7176", "vout": [{"scriptPubKey": {"reqSigs": 1, "hex": "76a914734595b3f1c7b6b31e277126bd3bb65a4839246b88ac", "addresses": ["1BWW4twgBfPAXjxYprwysjGJgxFTsbaaNB"], "asm": "OP_DUP OP_HASH160 734595b3f1c7b6b31e277126bd3bb65a4839246b OP_EQUALVERIFY OP_CHECKSIG", "type": "pubkeyhash"}, "value": 0.05907351, "n": 0}, {"scriptPubKey": {"reqSigs": 1, "hex": "76a9145a6238878a08b86508b65bb1cad668c64636169288ac", "addresses": ["19EuUmUbq7stjbdpgv4aj5pUYY2mTJ8mMP"], "asm": "OP_DUP OP_HASH160 5a6238878a08b86508b65bb1cad668c646361692 OP_EQUALVERIFY OP_CHECKSIG", "type": "pubkeyhash"}, "value": 0.18757959, "n": 1}], "hex": "0100000003268155d60ebb4a7a8f964018a000c23d6478995d5e127ed2d1a38a2567b58b7b000000006a473044022077716a5c8b8278a5de4e2d3de2567ab4605f6c843c1170182339a593703953de022005ea93bd8e47df4674662d86e92d6366716d683790254c2c49406c97efdcb86d012102216bd0d13c4ca88f97bc68175a2e4868e501bd27abf72e5aaebcd087ab2e29f5fdffffff52ffa0a6d06bf40824c515025a86d4064d6da4fb3fe5e48f07e2e1e86fec09aa000000006b4830450221008510b286b33d64c4ecb0e773136ff02922092b586c5a3b795681ee7c51be1307022049ce339020e9702e300ac6fe1d087f99478c1f9f9c6f78f7b5ed23dd3b1fb5f2012102216bd0d13c4ca88f97bc68175a2e4868e501bd27abf72e5aaebcd087ab2e29f5fdffffff75d6af0d4c0781a3b2d9b213a24b7c9ca4ed807bd38760c2c965b0ac6ddbeaed030000006a473044022053dc652000d10a842fa0630ae410f616788650eecb2374775d5029e5d2612d7b0220742e3914f186532946ada631cab85ab0ebb3ab7a9c843c9b984e650a061d6789012102216bd0d13c4ca88f97bc68175a2e4868e501bd27abf72e5aaebcd087ab2e29f5fdffffff0297235a00000000001976a914734595b3f1c7b6b31e277126bd3bb65a4839246b88ac47391e01000000001976a9145a6238878a08b86508b65bb1cad668c64636169288ac16490800", "vin": [{"sequence": 4294967293, "scriptSig": {"hex": "473044022077716a5c8b8278a5de4e2d3de2567ab4605f6c843c1170182339a593703953de022005ea93bd8e47df4674662d86e92d6366716d683790254c2c49406c97efdcb86d012102216bd0d13c4ca88f97bc68175a2e4868e501bd27abf72e5aaebcd087ab2e29f5", "asm": "3044022077716a5c8b8278a5de4e2d3de2567ab4605f6c843c1170182339a593703953de022005ea93bd8e47df4674662d86e92d6366716d683790254c2c49406c97efdcb86d[ALL] 02216bd0d13c4ca88f97bc68175a2e4868e501bd27abf72e5aaebcd087ab2e29f5"}, "vout": 0, "txid": "7b8bb567258aa3d1d27e125e5d9978643dc200a01840968f7a4abb0ed6558126"}, {"sequence": 4294967293, "scriptSig": {"hex": "4830450221008510b286b33d64c4ecb0e773136ff02922092b586c5a3b795681ee7c51be1307022049ce339020e9702e300ac6fe1d087f99478c1f9f9c6f78f7b5ed23dd3b1fb5f2012102216bd0d13c4ca88f97bc68175a2e4868e501bd27abf72e5aaebcd087ab2e29f5", "asm": "30450221008510b286b33d64c4ecb0e773136ff02922092b586c5a3b795681ee7c51be1307022049ce339020e9702e300ac6fe1d087f99478c1f9f9c6f78f7b5ed23dd3b1fb5f2[ALL] 02216bd0d13c4ca88f97bc68175a2e4868e501bd27abf72e5aaebcd087ab2e29f5"}, "vout": 0, "txid": "aa09ec6fe8e1e2078fe4e53ffba46d4d06d4865a0215c52408f46bd0a6a0ff52"}, {"sequence": 4294967293, "scriptSig": {"hex": "473044022053dc652000d10a842fa0630ae410f616788650eecb2374775d5029e5d2612d7b0220742e3914f186532946ada631cab85ab0ebb3ab7a9c843c9b984e650a061d6789012102216bd0d13c4ca88f97bc68175a2e4868e501bd27abf72e5aaebcd087ab2e29f5", "asm": "3044022053dc652000d10a842fa0630ae410f616788650eecb2374775d5029e5d2612d7b0220742e3914f186532946ada631cab85ab0ebb3ab7a9c843c9b984e650a061d6789[ALL] 02216bd0d13c4ca88f97bc68175a2e4868e501bd27abf72e5aaebcd087ab2e29f5"}, "vout": 3, "txid": "edeadb6dacb065c9c26087d37b80eda49c7c4ba213b2d9b2a381074c0dafd675"}], "txid": "3000835073a590741df272ffbd1e9d8c4890d71a46fe317ec119f851bf5c1696", "blocktime": 1537875543, "version": 1, "confirmations": 11464, "time": 1537875543, "locktime": 542998, "vsize": 520, "size": 520}