{"hash": "3006bfb5ba1f5d589e440dd7ea02b7b0a61c9476fe7524b4c3bfe47edcb32f55", "blockhash": "0000000000000000001e0dab787dd257d1dbfcb92a98c2207d5e1078be1f4165", "vout": [{"scriptPubKey": {"reqSigs": 1, "hex": "76a914e9518592af6575f93f77c573aeec0ed081eaddf988ac", "addresses": ["1NGg6vquoEzt2bP8Ypd13QzVaQefqpKeRB"], "asm": "OP_DUP OP_HASH160 e9518592af6575f93f77c573aeec0ed081eaddf9 OP_EQUALVERIFY OP_CHECKSIG", "type": "pubkeyhash"}, "value": 5.46e-06, "n": 0}, {"scriptPubKey": {"reqSigs": 1, "hex": "a9143f4eecba122ad73039d481c8d37f99cb4f887cd887", "addresses": ["37Tm3Qz8Zw2VJrheUUhArDAoq58S6YrS3g"], "asm": "OP_HASH160 3f4eecba122ad73039d481c8d37f99cb4f887cd8 OP_EQUAL", "type": "scripthash"}, "value": 0.99992362, "n": 1}, {"scriptPubKey": {"type": "nulldata", "hex": "6a146f6d6e69000000000000001f00001185b1203300", "asm": "OP_RETURN 6f6d6e69000000000000001f00001185b1203300"}, "value": 0.0, "n": 2}], "hex": "0100000001b64a229cd4cf4950527bc785e08385af234f53e2d9ec451800e122e3c0b0fa4301000000fdfd0000483045022100b790f6fb830d870e09e014fef2166850b36f4ebcf0fb25d2d24a23f661705cf002200b840d50484df0bc5076edf98d6bf480252b467b81a4cbae780786b26dc4fd510147304402203cfc67fb9e9ba5fcd8ef24d1653a236406ea52c875117490c252feb0d115cf8502200c22058555444d380e7fadf7e034362312e9cb3ba621fc5b3907a05a83928879014c6952210246ccf4de0c54cc7f3354cdd993c2c50cf965fd82238b89659fbd73a1b4bf05a121024fc59f72272a897fe43803374969f396058152fe4765a8d15216f94624257b1b21022593bc69ecbf3bbcc3c58082267cb49dadaf4ca8dbf1b2297338a9d628c4297653aeffffffff0322020000000000001976a914e9518592af6575f93f77c573aeec0ed081eaddf988ac2ac3f5050000000017a9143f4eecba122ad73039d481c8d37f99cb4f887cd8870000000000000000166a146f6d6e69000000000000001f00001185b120330000000000", "vin": [{"sequence": 4294967295, "scriptSig": {"hex": "00483045022100b790f6fb830d870e09e014fef2166850b36f4ebcf0fb25d2d24a23f661705cf002200b840d50484df0bc5076edf98d6bf480252b467b81a4cbae780786b26dc4fd510147304402203cfc67fb9e9ba5fcd8ef24d1653a236406ea52c875117490c252feb0d115cf8502200c22058555444d380e7fadf7e034362312e9cb3ba621fc5b3907a05a83928879014c6952210246ccf4de0c54cc7f3354cdd993c2c50cf965fd82238b89659fbd73a1b4bf05a121024fc59f72272a897fe43803374969f396058152fe4765a8d15216f94624257b1b21022593bc69ecbf3bbcc3c58082267cb49dadaf4ca8dbf1b2297338a9d628c4297653ae", "asm": "0 3045022100b790f6fb830d870e09e014fef2166850b36f4ebcf0fb25d2d24a23f661705cf002200b840d50484df0bc5076edf98d6bf480252b467b81a4cbae780786b26dc4fd51[ALL] 304402203cfc67fb9e9ba5fcd8ef24d1653a236406ea52c875117490c252feb0d115cf8502200c22058555444d380e7fadf7e034362312e9cb3ba621fc5b3907a05a83928879[ALL] 52210246ccf4de0c54cc7f3354cdd993c2c50cf965fd82238b89659fbd73a1b4bf05a121024fc59f72272a897fe43803374969f396058152fe4765a8d15216f94624257b1b21022593bc69ecbf3bbcc3c58082267cb49dadaf4ca8dbf1b2297338a9d628c4297653ae"}, "vout": 1, "txid": "43fab0c0e322e1001845ecd9e2534f23af8583e085c77b525049cfd49c224ab6"}], "txid": "3006bfb5ba1f5d589e440dd7ea02b7b0a61c9476fe7524b4c3bfe47edcb32f55", "blocktime": 1537872475, "version": 1, "confirmations": 11486, "time": 1537872475, "locktime": 0, "vsize": 403, "size": 403}