{"hash": "301100b1f3a194ccf5a9d0d914a830dd7eb16a70d4005e69f7ba4e83c0732a0e", "blockhash": "0000000000000000001cda96e906b7601b7a6fb1a3b62bca570a9e5d8f4b3de1", "vout": [{"scriptPubKey": {"type": "nulldata", "hex": "6a146f6d6e69000000000000001f000000205715cd00", "asm": "OP_RETURN 6f6d6e69000000000000001f000000205715cd00"}, "value": 0.0, "n": 0}, {"scriptPubKey": {"reqSigs": 1, "hex": "76a914a25dec4d0011064ef106a983c39c7a540699f22088ac", "addresses": ["1FoWyxwPXuj4C6abqwhjDWdz6D4PZgYRjA"], "asm": "OP_DUP OP_HASH160 a25dec4d0011064ef106a983c39c7a540699f220 OP_EQUALVERIFY OP_CHECKSIG", "type": "pubkeyhash"}, "value": 0.01995188, "n": 1}, {"scriptPubKey": {"reqSigs": 1, "hex": "76a914af627a7c20d367856389c59ecb0b73b75de4448088ac", "addresses": ["1GzMDyTem5jsEuyqXbCA9NQKo523YTnuCW"], "asm": "OP_DUP OP_HASH160 af627a7c20d367856389c59ecb0b73b75de44480 OP_EQUALVERIFY OP_CHECKSIG", "type": "pubkeyhash"}, "value": 5.46e-06, "n": 2}], "hex": "0100000001a44813c76173a4fe9689194c29809e35be05f1741d9b5e1e9e8bd44070ac1fea7d0000006a4730440220108d44cdfb38a0d10452258f8c4f62fde9ecdd3dfdf7a73c64b3eac2c71829290220575d18bcaf30619960b0b8d542803d31d7c184d8b4ba035bdd65ab8ac164cc67012103da5bac7b36d5aa38f531c6b9601e21bb598a4b6716ebed38b009a55dabde9440feffffff030000000000000000166a146f6d6e69000000000000001f000000205715cd00b4711e00000000001976a914a25dec4d0011064ef106a983c39c7a540699f22088ac22020000000000001976a914af627a7c20d367856389c59ecb0b73b75de4448088ac13490800", "vin": [{"sequence": 4294967294, "scriptSig": {"hex": "4730440220108d44cdfb38a0d10452258f8c4f62fde9ecdd3dfdf7a73c64b3eac2c71829290220575d18bcaf30619960b0b8d542803d31d7c184d8b4ba035bdd65ab8ac164cc67012103da5bac7b36d5aa38f531c6b9601e21bb598a4b6716ebed38b009a55dabde9440", "asm": "30440220108d44cdfb38a0d10452258f8c4f62fde9ecdd3dfdf7a73c64b3eac2c71829290220575d18bcaf30619960b0b8d542803d31d7c184d8b4ba035bdd65ab8ac164cc67[ALL] 03da5bac7b36d5aa38f531c6b9601e21bb598a4b6716ebed38b009a55dabde9440"}, "vout": 125, "txid": "ea1fac7040d48b9e1e5e9b1d74f105be359e80294c198996fea47361c71348a4"}], "txid": "301100b1f3a194ccf5a9d0d914a830dd7eb16a70d4005e69f7ba4e83c0732a0e", "blocktime": 1537873282, "version": 1, "confirmations": 11481, "time": 1537873282, "locktime": 542995, "vsize": 256, "size": 256}