{"hash": "30115631581d70ed2b93d35a473a1aa521c6e604dba725db8dbbd459190fa639", "blockhash": "0000000000000000001f0ddff1eddb255c1121bcd4da4f1bc9a0da00cae72433", "vout": [{"scriptPubKey": {"reqSigs": 1, "hex": "76a914b6b499bbcc934e595989fc0d6f5a6763e3dd9b8e88ac", "addresses": ["1Hf4LFvq6dpM695znfyGXs41QXmcYo1FVe"], "asm": "OP_DUP OP_HASH160 b6b499bbcc934e595989fc0d6f5a6763e3dd9b8e OP_EQUALVERIFY OP_CHECKSIG", "type": "pubkeyhash"}, "value": 0.00161321, "n": 0}, {"scriptPubKey": {"reqSigs": 1, "hex": "76a914c401d4c464c2f05ce761f6ec50ff3d3c18dfa9b288ac", "addresses": ["1JsPdpz96JHht8m9BLQPkB7jiGCCMiC1J6"], "asm": "OP_DUP OP_HASH160 c401d4c464c2f05ce761f6ec50ff3d3c18dfa9b2 OP_EQUALVERIFY OP_CHECKSIG", "type": "pubkeyhash"}, "value": 0.036584, "n": 1}], "hex": "0100000001ea849f189720d0e0efa17a37701fdd4b0524b3a86a010f03058c06d07d51e7a9010000006b483045022100f04b6cb6fb082f5f63f9c30c9c6cee9bac21f21811db4950f26ad3bbd46c2956022050d23521c54932dfe37f8b385ebffeac78ff5802b17eae23b172fc8f8393c9b00121024df3a3f61d92999ec2b6966120672b864d801fde42e8732f4c111e9a96f1c899ffffffff0229760200000000001976a914b6b499bbcc934e595989fc0d6f5a6763e3dd9b8e88aca0d23700000000001976a914c401d4c464c2f05ce761f6ec50ff3d3c18dfa9b288ac00000000", "vin": [{"sequence": 4294967295, "scriptSig": {"hex": "483045022100f04b6cb6fb082f5f63f9c30c9c6cee9bac21f21811db4950f26ad3bbd46c2956022050d23521c54932dfe37f8b385ebffeac78ff5802b17eae23b172fc8f8393c9b00121024df3a3f61d92999ec2b6966120672b864d801fde42e8732f4c111e9a96f1c899", "asm": "3045022100f04b6cb6fb082f5f63f9c30c9c6cee9bac21f21811db4950f26ad3bbd46c2956022050d23521c54932dfe37f8b385ebffeac78ff5802b17eae23b172fc8f8393c9b0[ALL] 024df3a3f61d92999ec2b6966120672b864d801fde42e8732f4c111e9a96f1c899"}, "vout": 1, "txid": "a9e7517dd0068c05030f016aa8b324054bdd1f70377aa1efe0d02097189f84ea"}], "txid": "30115631581d70ed2b93d35a473a1aa521c6e604dba725db8dbbd459190fa639", "blocktime": 1537872018, "version": 1, "confirmations": 11489, "time": 1537872018, "locktime": 0, "vsize": 226, "size": 226}