{"hash": "fe9354505274c50f537980d39f0b8c2ee4b1f7dcba25241193c7cfa519d0b58f", "blockhash": "0000000000000000001cda96e906b7601b7a6fb1a3b62bca570a9e5d8f4b3de1", "vout": [{"scriptPubKey": {"reqSigs": 1, "hex": "a91450d737fc9e98cbdc6f3a4ff948f473c26fb3037587", "addresses": ["394ToYi5AufoH2xkZpegayo3SWbWyFKZNd"], "asm": "OP_HASH160 50d737fc9e98cbdc6f3a4ff948f473c26fb30375 OP_EQUAL", "type": "scripthash"}, "value": 0.43839, "n": 0}, {"scriptPubKey": {"type": "nulldata", "hex": "6a2856580000000630637941c8e21334e4e7749a6cc354f8a85ad7da117dfecf33bfb3e10a61ea00c49c", "asm": "OP_RETURN 56580000000630637941c8e21334e4e7749a6cc354f8a85ad7da117dfecf33bfb3e10a61ea00c49c"}, "value": 0.0, "n": 1}], "hex": "02000000000101898f820e909fd405e4b404b979d46d554e0e93c40b9ba037d34efb13c41445d20000000017160014113ce6ff61e0d8228f2819ff1ee5fc5cb8d1789bffffffff0218ee9c020000000017a91450d737fc9e98cbdc6f3a4ff948f473c26fb303758700000000000000002a6a2856580000000630637941c8e21334e4e7749a6cc354f8a85ad7da117dfecf33bfb3e10a61ea00c49c02483045022100b0478454ffe64ec12f717c6bc1846c08a9859bbdb24a971c7076e24ccb8cee3a022075797e25b83e62c497a8b7e0e782502d6081e5951d1399152532e69b463e31c1012103e49f1fdfe4f7e45fdc91bb67575b81913e141341ab8a1b30c409a2d5937b5a6100000000", "vin": [{"txinwitness": ["3045022100b0478454ffe64ec12f717c6bc1846c08a9859bbdb24a971c7076e24ccb8cee3a022075797e25b83e62c497a8b7e0e782502d6081e5951d1399152532e69b463e31c101", "03e49f1fdfe4f7e45fdc91bb67575b81913e141341ab8a1b30c409a2d5937b5a61"], "sequence": 4294967295, "scriptSig": {"hex": "160014113ce6ff61e0d8228f2819ff1ee5fc5cb8d1789b", "asm": "0014113ce6ff61e0d8228f2819ff1ee5fc5cb8d1789b"}, "vout": 0, "txid": "d24514c413fb4ed337a09b0bc4930e4e556dd479b904b4e405d49f900e828f89"}], "txid": "3013224881e7ccf2181bb931b4bf27670c7bc947fe44305d95626d15662a3237", "blocktime": 1537873282, "version": 2, "confirmations": 11481, "time": 1537873282, "locktime": 0, "vsize": 185, "size": 267}