{"hash": "5fbf9e1fe2cdf1eba3a1909225b2896ef51567ac8f50fbdc240036d7c2327684", "blockhash": "0000000000000000000baef3f32e3676a92c3b2e5da21b426e4f302fc371ce76", "vout": [{"scriptPubKey": {"reqSigs": 1, "hex": "76a9141c029c46152800528a955a7a1299d9e071ba914a88ac", "addresses": ["13Z73kPdcAu7HHL5LRiBhg67UEu3dvEhfQ"], "asm": "OP_DUP OP_HASH160 1c029c46152800528a955a7a1299d9e071ba914a OP_EQUALVERIFY OP_CHECKSIG", "type": "pubkeyhash"}, "value": 0.004, "n": 0}, {"scriptPubKey": {"reqSigs": 1, "hex": "76a9140c51308bbc17235fffd9d8149f7cf27bcf94306d88ac", "addresses": ["1288NTUgdz4kJkdPSbmCNzBAK7GsjsjDhX"], "asm": "OP_DUP OP_HASH160 0c51308bbc17235fffd9d8149f7cf27bcf94306d OP_EQUALVERIFY OP_CHECKSIG", "type": "pubkeyhash"}, "value": 5.0035, "n": 1}, {"scriptPubKey": {"reqSigs": 1, "hex": "76a9141c09ce157a54b38ceb78754dd9f570d44187d83b88ac", "addresses": ["13ZFfdsLXu7BEgH4CfV5QR8TgH2YA1mLNY"], "asm": "OP_DUP OP_HASH160 1c09ce157a54b38ceb78754dd9f570d44187d83b OP_EQUALVERIFY OP_CHECKSIG", "type": "pubkeyhash"}, "value": 0.401, "n": 2}, {"scriptPubKey": {"reqSigs": 1, "hex": "a9140dab6ae8355ec898a9b617725f863d98fbee0cca87", "addresses": ["32wJ4LmPCvEo36EHw9GUQ4erEotSsdSTXZ"], "asm": "OP_HASH160 0dab6ae8355ec898a9b617725f863d98fbee0cca OP_EQUAL", "type": "scripthash"}, "value": 0.002, "n": 3}, {"scriptPubKey": {"reqSigs": 1, "hex": "a9143936deeffb0a4f13bbcd330444ca86e72bf1c2ce87", "addresses": ["36uYAyJVuEfyxvyv8eoDN4QkHFGbxqJTfq"], "asm": "OP_HASH160 3936deeffb0a4f13bbcd330444ca86e72bf1c2ce OP_EQUAL", "type": "scripthash"}, "value": 0.017, "n": 4}, {"scriptPubKey": {"reqSigs": 1, "hex": "a914fd8d9a94a14864c8db6a65902e2624f87ace1b0c87", "addresses": ["3QogWtCFqrE21Zi37H5MtgYsCc1Rq67oqL"], "asm": "OP_HASH160 fd8d9a94a14864c8db6a65902e2624f87ace1b0c OP_EQUAL", "type": "scripthash"}, "value": 0.15, "n": 5}, {"scriptPubKey": {"reqSigs": 1, "hex": "a914848f65d821320b330e2af27fa0e1a72fa902c4b587", "addresses": ["3DmvuKaoCr6NZ8WwMwtFqQjkDMinbxMLHg"], "asm": "OP_HASH160 848f65d821320b330e2af27fa0e1a72fa902c4b5 OP_EQUAL", "type": "scripthash"}, "value": 192.76936016, "n": 6}], "hex": "0100000000010742b3763ce2cf87c603967cf548e4af1dc185162ee05e03c29fe0788a325c57ed0600000017160014cea265078f7b9d40b09c6f28937502c8edff394efffffffff41484dfe35abe554dbbd16389d008a9e280e037d89d415b954eaf71de8a15290000000017160014ccd1b237a85b5d5733cf86bbe9b39739ae548d42ffffffff8cad43f6d6cee5f251afb5141fea5abc80ee732c88853151e46892a74faa37fb13000000171600144ab30f4f7fff2e1a0db32f6c6af43154a2711a38ffffffff8cad43f6d6cee5f251afb5141fea5abc80ee732c88853151e46892a74faa37fb2d00000017160014646583179aee9c8ecc8d3bdbfdb0d146e5b1d2efffffffff64770c72a17c4fae278a88dda3184f118d2a6b47eb24f24ff60c0a2234f0481207000000171600140b4498e64a684579b9d90d27a112335cc8ca5527ffffffff64770c72a17c4fae278a88dda3184f118d2a6b47eb24f24ff60c0a2234f048120a0000001716001481d016626875176240685a02406908a7253f1babffffffff9f08cc10b7419885bef65132369daf59cbffbdd28fe5ce7d30513220896cd9cf0200000017160014000b814f2c1a19852357ed615a08ec572a781ed1ffffffff07801a0600000000001976a9141c029c46152800528a955a7a1299d9e071ba914a88ac30bcd21d000000001976a9140c51308bbc17235fffd9d8149f7cf27bcf94306d88aca0e06302000000001976a9141c09ce157a54b38ceb78754dd9f570d44187d83b88ac400d03000000000017a9140dab6ae8355ec898a9b617725f863d98fbee0cca87a0f019000000000017a9143936deeffb0a4f13bbcd330444ca86e72bf1c2ce87c0e1e4000000000017a914fd8d9a94a14864c8db6a65902e2624f87ace1b0c8750b3fe7c0400000017a914848f65d821320b330e2af27fa0e1a72fa902c4b58702473044022012c99785e35bc4afab3d43b12c9071fe63165fc9bd81d1ed4e5716ab2f4f1b6c0220176998ca42540ae996d61d6ffdbd5c2b4ebb5d79273467ceb2957108b243aac6012103dc4a03b01080ce767d44e7a000e1212740469a4fe0319a54a84ea6482e1626fd0247304402203e0c3c6a0a8a596b37360dd46620d69829e6eb8971eb4839324a8d00874eb0a202203decbf22e36e94d794be2e6dac8d3cb28c93f874d210769c4a53bf39bf9d3e46012103db837d05be42697e01373b46e840651682928bfde8d3ddd25ea3f5dfbb29eb7102483045022100963352f7aac26c54acf567953a0ba7735f8ced245027d2442ac8bf397662b7dc022016f9eb4fd1716ed6ebcbf2c7ac4e35477e9bb56b49f782ff91493fbcc3a1dcff01210240a00c44f869b4a3ea3584c7af4ba7f2e55b468209c5dc8b68ba06bff2b6362f0247304402200dae3d14770ca5a58da9aca2901db08a36cb44e88d938f95bbd4334ebedb7e3302205b490e82816903b4c6bb553c100e332c483b386358c6b04bf0b7f438c95db5f2012103543e7fcca9196333dd0e0027d37920fb004a623bd9a42a8f81c4933f0c4a3f3c02483045022100b4509bc3b1837efcef6625ea16902fd1b4286ea16963679d5cdbe78dcea645190220108daeeb00b2f79a50352ec4a5336b701d53922a751578d7fb3664cb154842e101210208e1dee283fedf58d92782ad0fe2a5529c3be1fb74f49f4ef4eabd358189d5880247304402204d8bcfccdb612e7e0fbe13fc4d683b2fdbe0791fc7f42ba44eaee56c117deaa602206f87606738d3569c2187eef3c47e18b50744fd00c72c131fd215233fefdf7b760121025c3c6344e18026a49c67a11ab1ce39b3300e2b746d092aee481fa0b721fc1a1802473044022058d410cb71965e0b7f4c6dc23bcc331275ea016feea2f6d7aa9b8bf8af551332022034a0bf1298280d76c76e2eb2e49cbc627accb2a51cd94eb79962f6683989f024012102aad79950b2c2af3689e8644c89e9d10dff06c2d8926200496b92e9f7ccb0304c00000000", "vin": [{"txinwitness": ["3044022012c99785e35bc4afab3d43b12c9071fe63165fc9bd81d1ed4e5716ab2f4f1b6c0220176998ca42540ae996d61d6ffdbd5c2b4ebb5d79273467ceb2957108b243aac601", "03dc4a03b01080ce767d44e7a000e1212740469a4fe0319a54a84ea6482e1626fd"], "sequence": 4294967295, "scriptSig": {"hex": "160014cea265078f7b9d40b09c6f28937502c8edff394e", "asm": "0014cea265078f7b9d40b09c6f28937502c8edff394e"}, "vout": 6, "txid": "ed575c328a78e09fc2035ee02e1685c11dafe448f57c9603c687cfe23c76b342"}, {"txinwitness": ["304402203e0c3c6a0a8a596b37360dd46620d69829e6eb8971eb4839324a8d00874eb0a202203decbf22e36e94d794be2e6dac8d3cb28c93f874d210769c4a53bf39bf9d3e4601", "03db837d05be42697e01373b46e840651682928bfde8d3ddd25ea3f5dfbb29eb71"], "sequence": 4294967295, "scriptSig": {"hex": "160014ccd1b237a85b5d5733cf86bbe9b39739ae548d42", "asm": "0014ccd1b237a85b5d5733cf86bbe9b39739ae548d42"}, "vout": 0, "txid": "29158ade71af4e955b419dd837e080e2a908d08963d1bb4d55be5ae3df8414f4"}, {"txinwitness": ["3045022100963352f7aac26c54acf567953a0ba7735f8ced245027d2442ac8bf397662b7dc022016f9eb4fd1716ed6ebcbf2c7ac4e35477e9bb56b49f782ff91493fbcc3a1dcff01", "0240a00c44f869b4a3ea3584c7af4ba7f2e55b468209c5dc8b68ba06bff2b6362f"], "sequence": 4294967295, "scriptSig": {"hex": "1600144ab30f4f7fff2e1a0db32f6c6af43154a2711a38", "asm": "00144ab30f4f7fff2e1a0db32f6c6af43154a2711a38"}, "vout": 19, "txid": "fb37aa4fa79268e4513185882c73ee80bc5aea1f14b5af51f2e5ced6f643ad8c"}, {"txinwitness": ["304402200dae3d14770ca5a58da9aca2901db08a36cb44e88d938f95bbd4334ebedb7e3302205b490e82816903b4c6bb553c100e332c483b386358c6b04bf0b7f438c95db5f201", "03543e7fcca9196333dd0e0027d37920fb004a623bd9a42a8f81c4933f0c4a3f3c"], "sequence": 4294967295, "scriptSig": {"hex": "160014646583179aee9c8ecc8d3bdbfdb0d146e5b1d2ef", "asm": "0014646583179aee9c8ecc8d3bdbfdb0d146e5b1d2ef"}, "vout": 45, "txid": "fb37aa4fa79268e4513185882c73ee80bc5aea1f14b5af51f2e5ced6f643ad8c"}, {"txinwitness": ["3045022100b4509bc3b1837efcef6625ea16902fd1b4286ea16963679d5cdbe78dcea645190220108daeeb00b2f79a50352ec4a5336b701d53922a751578d7fb3664cb154842e101", "0208e1dee283fedf58d92782ad0fe2a5529c3be1fb74f49f4ef4eabd358189d588"], "sequence": 4294967295, "scriptSig": {"hex": "1600140b4498e64a684579b9d90d27a112335cc8ca5527", "asm": "00140b4498e64a684579b9d90d27a112335cc8ca5527"}, "vout": 7, "txid": "1248f034220a0cf64ff224eb476b2a8d114f18a3dd888a27ae4f7ca1720c7764"}, {"txinwitness": ["304402204d8bcfccdb612e7e0fbe13fc4d683b2fdbe0791fc7f42ba44eaee56c117deaa602206f87606738d3569c2187eef3c47e18b50744fd00c72c131fd215233fefdf7b7601", "025c3c6344e18026a49c67a11ab1ce39b3300e2b746d092aee481fa0b721fc1a18"], "sequence": 4294967295, "scriptSig": {"hex": "16001481d016626875176240685a02406908a7253f1bab", "asm": "001481d016626875176240685a02406908a7253f1bab"}, "vout": 10, "txid": "1248f034220a0cf64ff224eb476b2a8d114f18a3dd888a27ae4f7ca1720c7764"}, {"txinwitness": ["3044022058d410cb71965e0b7f4c6dc23bcc331275ea016feea2f6d7aa9b8bf8af551332022034a0bf1298280d76c76e2eb2e49cbc627accb2a51cd94eb79962f6683989f02401", "02aad79950b2c2af3689e8644c89e9d10dff06c2d8926200496b92e9f7ccb0304c"], "sequence": 4294967295, "scriptSig": {"hex": "160014000b814f2c1a19852357ed615a08ec572a781ed1", "asm": "0014000b814f2c1a19852357ed615a08ec572a781ed1"}, "vout": 2, "txid": "cfd96c89203251307dcee58fd2bdffcb59af9d363251f6be859841b710cc089f"}], "txid": "3018faf644a231a932130d239326f9824ae6a05a4f6de87d50bda003bfb47660", "blocktime": 1537876114, "version": 1, "confirmations": 11460, "time": 1537876114, "locktime": 0, "vsize": 877, "size": 1441}