{"hash": "455c3d564d8417877ec753aa934fd3fa9f5050bbb9284de116bbeac5874d887c", "blockhash": "0000000000000000000baef3f32e3676a92c3b2e5da21b426e4f302fc371ce76", "vout": [{"scriptPubKey": {"reqSigs": 1, "hex": "76a91438a5a508458ee8554a42b247f66c92f027114d5488ac", "addresses": ["16AXGwEb9htgBVQS1Z8ge5dUy97gEca6xB"], "asm": "OP_DUP OP_HASH160 38a5a508458ee8554a42b247f66c92f027114d54 OP_EQUALVERIFY OP_CHECKSIG", "type": "pubkeyhash"}, "value": 0.0268, "n": 0}, {"scriptPubKey": {"reqSigs": 1, "hex": "a9141988a27e3c2df4ddee7fad5a2303d086179b2a3087", "addresses": ["3422VtS7UtCvXYxoXMVp6eZupR252z85oC"], "asm": "OP_HASH160 1988a27e3c2df4ddee7fad5a2303d086179b2a30 OP_EQUAL", "type": "scripthash"}, "value": 0.73643986, "n": 1}], "hex": "01000000000101031ee198db0ab05898a2e27ee5be3951230dbd3a6907d30b58d54fe03bda8199010000002322002065d416c48a8072e0ac51c2d111eb194f009caef0332446c1bf2097316cf07fa9ffffffff02c0e42800000000001976a91438a5a508458ee8554a42b247f66c92f027114d5488acd2b763040000000017a9141988a27e3c2df4ddee7fad5a2303d086179b2a30870400483045022100cd88b6a7151f99a0bf9072516f8d74d34aa9df7378c9d4b5d3da542dec86743802201e723752be48110a951c0c1278132f2850e1b661761ebce316c7f24ecd04ed9c01483045022100d145fe3a2cb6c2db56ad8222c8ea9ec893b65584d2113661a8fb48bdac2408b80220632b82a15469f5ca1f4f29a5bcc633bf4830c35b954a508f22923657275041ab0169522102f44abcf9e23c9a460da309ccca56c619c04eed3bde2c2cff5e7d78fbcd980b9c2103c9443cf3047bb6c2c82f1b0c44c36109cdc3d0d601d16d1189a1602bf8d1a0a02103bfe867059274412412e088af5572b92168c2ef495cfe6c9b7a753a009eb37c4853ae00000000", "vin": [{"txinwitness": ["", "3045022100cd88b6a7151f99a0bf9072516f8d74d34aa9df7378c9d4b5d3da542dec86743802201e723752be48110a951c0c1278132f2850e1b661761ebce316c7f24ecd04ed9c01", "3045022100d145fe3a2cb6c2db56ad8222c8ea9ec893b65584d2113661a8fb48bdac2408b80220632b82a15469f5ca1f4f29a5bcc633bf4830c35b954a508f22923657275041ab01", "522102f44abcf9e23c9a460da309ccca56c619c04eed3bde2c2cff5e7d78fbcd980b9c2103c9443cf3047bb6c2c82f1b0c44c36109cdc3d0d601d16d1189a1602bf8d1a0a02103bfe867059274412412e088af5572b92168c2ef495cfe6c9b7a753a009eb37c4853ae"], "sequence": 4294967295, "scriptSig": {"hex": "22002065d416c48a8072e0ac51c2d111eb194f009caef0332446c1bf2097316cf07fa9", "asm": "002065d416c48a8072e0ac51c2d111eb194f009caef0332446c1bf2097316cf07fa9"}, "vout": 1, "txid": "9981da3be04fd5580bd307693abd0d235139bee57ee2a29858b00adb98e11e03"}], "txid": "301d082b82fc3f3144d006db966e0a94b07e7f216a4de3ec1b7ae39ef9c9b133", "blocktime": 1537876114, "version": 1, "confirmations": 11460, "time": 1537876114, "locktime": 0, "vsize": 216, "size": 408}