{"hash": "301e9652dc803b67f0925c7157fe7f5956f3c20d3ccfb97fd90d70cc470a25a2", "blockhash": "0000000000000000000e13cef7c366c0283d82e591d1acd082e914b08063cdf1", "vout": [{"scriptPubKey": {"reqSigs": 1, "hex": "76a914cf9f5cb6ddc0318170910cb1dfcf2220aaf1fe2e88ac", "addresses": ["1KvonPQNzapqWpCT1fyeaQX2FmQxCDRobM"], "asm": "OP_DUP OP_HASH160 cf9f5cb6ddc0318170910cb1dfcf2220aaf1fe2e OP_EQUALVERIFY OP_CHECKSIG", "type": "pubkeyhash"}, "value": 0.00500465, "n": 0}, {"scriptPubKey": {"reqSigs": 1, "hex": "a9147e34265c823dce0ea18fca67fca98d1119aabc6387", "addresses": ["3DCKY9cuvpqtfvN3XEva6aHmZrJhr9hHWS"], "asm": "OP_HASH160 7e34265c823dce0ea18fca67fca98d1119aabc63 OP_EQUAL", "type": "scripthash"}, "value": 0.00117109, "n": 1}], "hex": "01000000014c11f82ac39fd458c71a5db1e4a5a81d37e61acaba1805c00095eb41016bf9b501000000fdfe0000483045022100e70c9114b255018369b1f13cfc2fd1a707f512e5280ce60926abbc10b374616d02206efff4f31e8cbec9e32813de280ba223243f9a058f4b87ccdf1206fe7a0da3f7014830450221008d6d04d154872c83a3583886c1f32bc8cc8d0db3bfb34dc5809cb3f78063fb8602207baa3b36c2958b9716b3122dfe512bf64a0bada909f22a0e2e28582ca7b4aac3014c69522102488ea97386aeaaaf2b49961a75aad024dcec3ab7c52d9a5bbe53042b1b5b6164210261e1c0ebbd6bd7f08e0e9b515a41153d0d5aecfba2589a2e47154cbbfd05b0bf2102b3c611ea05ea423ad47484fbe4ea5747bb194ea1b1aeb9ddf192af7fb245419553aeffffffff02f1a20700000000001976a914cf9f5cb6ddc0318170910cb1dfcf2220aaf1fe2e88ac75c901000000000017a9147e34265c823dce0ea18fca67fca98d1119aabc638700000000", "vin": [{"sequence": 4294967295, "scriptSig": {"hex": "00483045022100e70c9114b255018369b1f13cfc2fd1a707f512e5280ce60926abbc10b374616d02206efff4f31e8cbec9e32813de280ba223243f9a058f4b87ccdf1206fe7a0da3f7014830450221008d6d04d154872c83a3583886c1f32bc8cc8d0db3bfb34dc5809cb3f78063fb8602207baa3b36c2958b9716b3122dfe512bf64a0bada909f22a0e2e28582ca7b4aac3014c69522102488ea97386aeaaaf2b49961a75aad024dcec3ab7c52d9a5bbe53042b1b5b6164210261e1c0ebbd6bd7f08e0e9b515a41153d0d5aecfba2589a2e47154cbbfd05b0bf2102b3c611ea05ea423ad47484fbe4ea5747bb194ea1b1aeb9ddf192af7fb245419553ae", "asm": "0 3045022100e70c9114b255018369b1f13cfc2fd1a707f512e5280ce60926abbc10b374616d02206efff4f31e8cbec9e32813de280ba223243f9a058f4b87ccdf1206fe7a0da3f7[ALL] 30450221008d6d04d154872c83a3583886c1f32bc8cc8d0db3bfb34dc5809cb3f78063fb8602207baa3b36c2958b9716b3122dfe512bf64a0bada909f22a0e2e28582ca7b4aac3[ALL] 522102488ea97386aeaaaf2b49961a75aad024dcec3ab7c52d9a5bbe53042b1b5b6164210261e1c0ebbd6bd7f08e0e9b515a41153d0d5aecfba2589a2e47154cbbfd05b0bf2102b3c611ea05ea423ad47484fbe4ea5747bb194ea1b1aeb9ddf192af7fb245419553ae"}, "vout": 1, "txid": "b5f96b0141eb9500c00518baca1ae6371da8a5e4b15d1ac758d49fc32af8114c"}], "txid": "301e9652dc803b67f0925c7157fe7f5956f3c20d3ccfb97fd90d70cc470a25a2", "blocktime": 1537871767, "version": 1, "confirmations": 11493, "time": 1537871767, "locktime": 0, "vsize": 373, "size": 373}