{"hash": "0d18ab5024d17e17a8ea97947c88b26c4397e85364a21b2bf7eaf41365aa7764", "blockhash": "00000000000000000004ffacab907a6b429b9a5745fa0b75af4234bf69dd7176", "vout": [{"scriptPubKey": {"reqSigs": 1, "hex": "a914d45f175af57d96a593e7b79576ec3c41c8cdea8287", "addresses": ["3M3w6GQTECohtwx4HThi2Muib4QJnxQ9m4"], "asm": "OP_HASH160 d45f175af57d96a593e7b79576ec3c41c8cdea82 OP_EQUAL", "type": "scripthash"}, "value": 18.50954509, "n": 0}, {"scriptPubKey": {"reqSigs": 1, "hex": "76a914a7ac32acbc5b662164573add6179c4887ee9f9d888ac", "addresses": ["1GHa8ZR4PhgPz5Tw2rsi3MkHG1c85Q5Zi3"], "asm": "OP_DUP OP_HASH160 a7ac32acbc5b662164573add6179c4887ee9f9d8 OP_EQUALVERIFY OP_CHECKSIG", "type": "pubkeyhash"}, "value": 1.9993258, "n": 1}], "hex": "020000000001016b679e8edffcf6d48ce445819207c6a8e48f122fb42b0b2d6b3c13f0870305fb0000000017160014dcc7315253ef5777becfb3cfa8ef97e068d3e2eafeffffff020d53536e0000000017a914d45f175af57d96a593e7b79576ec3c41c8cdea8287a4baea0b000000001976a914a7ac32acbc5b662164573add6179c4887ee9f9d888ac0247304402206ed7ce2fbbf56ce9a719e38faa1f13ba89fa6afabfddf286bd10a2fbd4395fb402201d6feb6ec251ef6fb6c8e43f1d010423a29dceaf7a23cdcd16daf93f3e3315b6012102d5cac552cc9ad62e4e02f20ace5927e74d1291d7648f04b5b2045a227af1090716490800", "vin": [{"txinwitness": ["304402206ed7ce2fbbf56ce9a719e38faa1f13ba89fa6afabfddf286bd10a2fbd4395fb402201d6feb6ec251ef6fb6c8e43f1d010423a29dceaf7a23cdcd16daf93f3e3315b601", "02d5cac552cc9ad62e4e02f20ace5927e74d1291d7648f04b5b2045a227af10907"], "sequence": 4294967294, "scriptSig": {"hex": "160014dcc7315253ef5777becfb3cfa8ef97e068d3e2ea", "asm": "0014dcc7315253ef5777becfb3cfa8ef97e068d3e2ea"}, "vout": 0, "txid": "fb050387f0133c6b2d0b2bb42f128fe4a8c607928145e48cd4f6fcdf8e9e676b"}], "txid": "30272c79b6d5ad3470e46df896a2ec924d6d229b7581373ea1b071bb362ec3fd", "blocktime": 1537875543, "version": 2, "confirmations": 11464, "time": 1537875543, "locktime": 542998, "vsize": 168, "size": 249}