{"hash": "8128757bf688df6a3376de19412aed82869962190bd9be9750177945bc25d32f", "blockhash": "0000000000000000000e13cef7c366c0283d82e591d1acd082e914b08063cdf1", "vout": [{"scriptPubKey": {"reqSigs": 1, "hex": "a914744059b842a8665bd0a31e7c559201659e25ba5e87", "addresses": ["3CHhPwm992VuRySzLxZtoYH6V4KrLWMHaK"], "asm": "OP_HASH160 744059b842a8665bd0a31e7c559201659e25ba5e OP_EQUAL", "type": "scripthash"}, "value": 0.05558508, "n": 0}, {"scriptPubKey": {"reqSigs": 1, "hex": "a91435e3efca30021f94501b027b9a902343b2a6094687", "addresses": ["36bxo2dLyE9FVH9gi6Pim7V98EZW92knyU"], "asm": "OP_HASH160 35e3efca30021f94501b027b9a902343b2a60946 OP_EQUAL", "type": "scripthash"}, "value": 0.0861, "n": 1}, {"scriptPubKey": {"reqSigs": 1, "hex": "a9145d0dee519440f4150c364c266adf8ebf66cfb3a787", "addresses": ["3AB3TKdthgjkW5BmkWTSwggCtY7mbXhM7B"], "asm": "OP_HASH160 5d0dee519440f4150c364c266adf8ebf66cfb3a7 OP_EQUAL", "type": "scripthash"}, "value": 0.01779951, "n": 2}, {"scriptPubKey": {"reqSigs": 1, "hex": "a914691df2317f66c75540e1c9911bb0bf80db1a3e2887", "addresses": ["3BGpkNiUNCn5gU33URJ9JBuw91LQFyG69v"], "asm": "OP_HASH160 691df2317f66c75540e1c9911bb0bf80db1a3e28 OP_EQUAL", "type": "scripthash"}, "value": 0.00576623, "n": 3}, {"scriptPubKey": {"reqSigs": 1, "hex": "76a9144f778bcccbb056fd7df149955752ae0584152bb688ac", "addresses": ["18FBbN3VZucburZjDbNGFFyUMj9z96Tt9x"], "asm": "OP_DUP OP_HASH160 4f778bcccbb056fd7df149955752ae0584152bb6 OP_EQUALVERIFY OP_CHECKSIG", "type": "pubkeyhash"}, "value": 0.11528494, "n": 4}, {"scriptPubKey": {"reqSigs": 1, "hex": "a9149700d57426a3b5005e22fc51eebbdd17e45fef3887", "addresses": ["3FTSxShKCckepFdpkjKU6wNn4FDH42rLvn"], "asm": "OP_HASH160 9700d57426a3b5005e22fc51eebbdd17e45fef38 OP_EQUAL", "type": "scripthash"}, "value": 0.01202097, "n": 5}, {"scriptPubKey": {"reqSigs": 1, "hex": "76a914b1493c8138f441dd874551e2a92e265f2354199388ac", "addresses": ["1HAQLWGN2PxqiHBs3aZZ984kNwXj8Ns6TS"], "asm": "OP_DUP OP_HASH160 b1493c8138f441dd874551e2a92e265f23541993 OP_EQUALVERIFY OP_CHECKSIG", "type": "pubkeyhash"}, "value": 1.2, "n": 6}, {"scriptPubKey": {"reqSigs": 1, "hex": "76a914560c72b6608e59472e07ca62d9f634e2d93633dc88ac", "addresses": ["18qz2QZc7ywREpxGVoRQPAJv87GVtErPYW"], "asm": "OP_DUP OP_HASH160 560c72b6608e59472e07ca62d9f634e2d93633dc OP_EQUALVERIFY OP_CHECKSIG", "type": "pubkeyhash"}, "value": 0.00111276, "n": 7}, {"scriptPubKey": {"reqSigs": 1, "hex": "a9144081f7c9ec042045e7f52e8fce1701fe7241d2fa87", "addresses": ["37a6s9gyU9YRPiRwPU433cdbf5R9vUQbDi"], "asm": "OP_HASH160 4081f7c9ec042045e7f52e8fce1701fe7241d2fa OP_EQUAL", "type": "scripthash"}, "value": 0.01948593, "n": 8}, {"scriptPubKey": {"reqSigs": 1, "hex": "a914769d413290ca907d822cec7283eda4677103f55487", "addresses": ["3CWC3RgMWDgj2LZcZFMR4cQGAiK15nhHFY"], "asm": "OP_HASH160 769d413290ca907d822cec7283eda4677103f554 OP_EQUAL", "type": "scripthash"}, "value": 0.03105835, "n": 9}, {"scriptPubKey": {"reqSigs": 1, "hex": "76a91411d94b86b1d0c6b15544f1356f6e22bb435f0f4088ac", "addresses": ["12dNoBgDS6SqmGxKzM5XrsCK4A8Jt7z3c7"], "asm": "OP_DUP OP_HASH160 11d94b86b1d0c6b15544f1356f6e22bb435f0f40 OP_EQUALVERIFY OP_CHECKSIG", "type": "pubkeyhash"}, "value": 0.05309931, "n": 10}, {"scriptPubKey": {"reqSigs": 1, "hex": "a914ec157be5b85254dbdf5624a96a65c61af91d373f87", "addresses": ["3PDK8Ym88mBB4SAKJtEbeGrQ9mtZNR4z6m"], "asm": "OP_HASH160 ec157be5b85254dbdf5624a96a65c61af91d373f OP_EQUAL", "type": "scripthash"}, "value": 0.09023793, "n": 11}, {"scriptPubKey": {"reqSigs": 1, "hex": "a914339b4e68318a17779f9ea77771c0d83679f5a42c87", "addresses": ["36PtSCM49pHETkjs6JKGVAoPb5yMX1x789"], "asm": "OP_HASH160 339b4e68318a17779f9ea77771c0d83679f5a42c OP_EQUAL", "type": "scripthash"}, "value": 0.00301063, "n": 12}, {"scriptPubKey": {"reqSigs": 1, "hex": "a9149525114470eb4149bb17499c738ef71ff3fb7af187", "addresses": ["3FHd1coZ9UVWLsAmVbrwXyusTKJFZu47Mu"], "asm": "OP_HASH160 9525114470eb4149bb17499c738ef71ff3fb7af1 OP_EQUAL", "type": "scripthash"}, "value": 0.00318645, "n": 13}, {"scriptPubKey": {"reqSigs": 1, "hex": "a91403b8091e4c7402264d1bdc1e4e563318144f50de87", "addresses": ["322gR8y98dtFthZ1qg1CrpDdaK9zBibL2W"], "asm": "OP_HASH160 03b8091e4c7402264d1bdc1e4e563318144f50de OP_EQUAL", "type": "scripthash"}, "value": 0.13145736, "n": 14}, {"scriptPubKey": {"reqSigs": 1, "hex": "76a914f2a358ee8541c2a8ebb99eec529ec94a2d372c6288ac", "addresses": ["1P7xCzv9cmGe3oQN6NQzGKf4DfgJLHexUP"], "asm": "OP_DUP OP_HASH160 f2a358ee8541c2a8ebb99eec529ec94a2d372c62 OP_EQUALVERIFY OP_CHECKSIG", "type": "pubkeyhash"}, "value": 0.003243, "n": 15}, {"scriptPubKey": {"reqSigs": 1, "hex": "76a9143ed5d8bd7bcd7a5613b832c276c4b181ebbef07088ac", "addresses": ["16jF5DgPp4mcbi495GJc7qYUxo1dbUd9ww"], "asm": "OP_DUP OP_HASH160 3ed5d8bd7bcd7a5613b832c276c4b181ebbef070 OP_EQUALVERIFY OP_CHECKSIG", "type": "pubkeyhash"}, "value": 0.03183439, "n": 16}, {"scriptPubKey": {"reqSigs": 1, "hex": "76a9140474a4015377e33a0ee94c4312bd1196244e835e88ac", "addresses": ["1QZS6tDR59JDpVqvYbYicrsmzUtwYJLVC"], "asm": "OP_DUP OP_HASH160 0474a4015377e33a0ee94c4312bd1196244e835e OP_EQUALVERIFY OP_CHECKSIG", "type": "pubkeyhash"}, "value": 0.00049779, "n": 17}, {"scriptPubKey": {"reqSigs": 1, "hex": "a914dd61b051593b95a2de0677b8ef1f5f1d4cfb643887", "addresses": ["3MsaHUGkB2q74ioDwExU5EEuekFddNRwho"], "asm": "OP_HASH160 dd61b051593b95a2de0677b8ef1f5f1d4cfb6438 OP_EQUAL", "type": "scripthash"}, "value": 0.01179, "n": 18}, {"scriptPubKey": {"reqSigs": 1, "hex": "76a9145088817ed4ea0a9462482687495e876570f9d82988ac", "addresses": ["18LpawSPJNUw6zRJbVXVupVLw7s78JMgKV"], "asm": "OP_DUP OP_HASH160 5088817ed4ea0a9462482687495e876570f9d829 OP_EQUALVERIFY OP_CHECKSIG", "type": "pubkeyhash"}, "value": 0.05349189, "n": 19}], "hex": "010000000001066b802d3db7cc114f4619e5508d3a983f5d26436efb39445351205dbd06be395e1b000000fdfe000048304502210084d6944ed887ed0de6e00abe20dcb0d90448d3b383e1f3d6981e581f8e0fe61502204e31c358f8d95952e5db96bfdab2c154d3636cc232e02cea3627ac14d134d947014830450221008eb9eaae4dcec02b0087e29923e2b454d5232aaebffb753f356822ddcfc3ba5d022008ffd2d394700eb0b8888ee970ebc5a25f4d2ad5a2fda931fa92037a4bd78b35014c6952210313d64e526f8d9197aabb83d125011b51db8ae9acd05e383442a25643d6c9b49e2103fdfe85b018bb73795289b35add29696dbc9777522199368a60a299a63cf2ff79210246274a5a420036c886b6ae0c4cb8338efc0a3d81f78dfa9f088dfd7241797feb53aeffffffff5dfddd8e28ee08608d8e1dc60985f4a962ad547725d756bd74a454dcc7e67c7600000000fdfd000047304402201b70fe7a381aeb38197e99ab9a55f45eb8c7382f8465637f9a2df953ce8c28be022039a2bc998abbc397b24565d843b0333519adc14362e9c537fa4b772239ed248401483045022100d98d6c29f489e829353118b204fa859bc46b9072ab200469aa7dd67bbe9210fe0220150478ca2a34014c3a5f4f2c4b7349bd1d9c48cc366ebef9c624497af2033ef0014c695221038fed9147118965fa35c4d2ddda6cb0c02ceccd64d72c92f249f36cd33f1f86cd21025fb42a8eaebd6d61cb51e3548bba78aa9a02597cbd53f33e3f41dfd0e2ba3d1f210368f7de746c418f3d664aac02f599ba68be026a7297df4c05f6ca821e3be23b0553aeffffffffbde61e83327a953079e3b42de0d261208d0a835c76d7cd3990e175972d2ce3e30000000023220020ab12ea1c6156b12578ddc190d522c8b8d8f3baeb50db6ad6d7e1dda2d7231be2ffffffff5fbba3e9fcdfd65602334447cb0f881707e92fbe76e29cd0b531d99945bf4ed20000000023220020ab12ea1c6156b12578ddc190d522c8b8d8f3baeb50db6ad6d7e1dda2d7231be2ffffffff066d5906d4f8cd694d422a233205352cdd481b8142b77f9f4be8f3d38b2da7190000000023220020733181bdc1315c402c621a33bb329524c39fc3c6a146cd91deec6e75df1c4631ffffffff59cb93b2e7a9e690c659490d64574e24b89a2354210b01a4f1b2c04513eb06390000000023220020ab12ea1c6156b12578ddc190d522c8b8d8f3baeb50db6ad6d7e1dda2d7231be2ffffffff14ecd054000000000017a914744059b842a8665bd0a31e7c559201659e25ba5e87d06083000000000017a91435e3efca30021f94501b027b9a902343b2a6094687ef281b000000000017a9145d0dee519440f4150c364c266adf8ebf66cfb3a7876fcc08000000000017a914691df2317f66c75540e1c9911bb0bf80db1a3e28872ee9af00000000001976a9144f778bcccbb056fd7df149955752ae0584152bb688acb15712000000000017a9149700d57426a3b5005e22fc51eebbdd17e45fef3887000e2707000000001976a914b1493c8138f441dd874551e2a92e265f2354199388acacb20100000000001976a914560c72b6608e59472e07ca62d9f634e2d93633dc88acb1bb1d000000000017a9144081f7c9ec042045e7f52e8fce1701fe7241d2fa872b642f000000000017a914769d413290ca907d822cec7283eda4677103f55487eb055100000000001976a91411d94b86b1d0c6b15544f1356f6e22bb435f0f4088ac31b189000000000017a914ec157be5b85254dbdf5624a96a65c61af91d373f87079804000000000017a914339b4e68318a17779f9ea77771c0d83679f5a42c87b5dc04000000000017a9149525114470eb4149bb17499c738ef71ff3fb7af1878896c8000000000017a91403b8091e4c7402264d1bdc1e4e563318144f50de87ccf20400000000001976a914f2a358ee8541c2a8ebb99eec529ec94a2d372c6288ac4f933000000000001976a9143ed5d8bd7bcd7a5613b832c276c4b181ebbef07088ac73c20000000000001976a9140474a4015377e33a0ee94c4312bd1196244e835e88ac78fd11000000000017a914dd61b051593b95a2de0677b8ef1f5f1d4cfb643887459f5100000000001976a9145088817ed4ea0a9462482687495e876570f9d82988ac00000400483045022100e68fbffc30fc04ac05d3eafcc2b2fee97e84f8dfb49238f9c2d23dd4168e3c0e022077f8414a8c87a0576612316678c302f0288a3b9a58ca8cf350baad932b5bb64e01473044022075d60e96c57bc7a064b466026af67b2a21562b48f062665ac313a9aa425da73f02201bb953a97ee6b02aa443b3c8aae3f9a1e1eac9b7766cef534f6f72ab0d338b46016952210245bf70354a084e5bc07245d12c48867d76bf11e0492fe123779b48c2f40521522102dbfa970aad099e63063b99abf89e9e9dd506ff65cf0bcccffe247bda3bf202b721030e08e11029c7134143859a8c826c1b57b90233ad28fa516ae6e2d080442bce9753ae0400483045022100ed3a6e0f5a28353b591783f4608a9ecf2db6cde10960aad8670611e5f2c07abf0220501947cdac22cbe65a7ad97a41b7149c93738ba5c447ac05ac3781c71a1be24201473044022044be1fc405cf9edb9af93f88d65b76f1c053b40c73573eab184160f548965722022018cd5046fba2c37e0ec51944ecf4243ced07709b6cfbf3557f60bece0fedd6f0016952210245bf70354a084e5bc07245d12c48867d76bf11e0492fe123779b48c2f40521522102dbfa970aad099e63063b99abf89e9e9dd506ff65cf0bcccffe247bda3bf202b721030e08e11029c7134143859a8c826c1b57b90233ad28fa516ae6e2d080442bce9753ae0400483045022100c07c4e95b872d90945e5676cee56432cf83639b678d04390b553bc0dba3a570002205d6c1701d91feaad1b63b9cc1cb6be2193d122fb0441a44603ef4e24428b8a2d0147304402206afdaac74c4b67340c62a90e83f239a1195dbbc30eed10419286de845a6fb69102203a10e25f58332a85fd8827b54000d166263ee4696ac194d8366e64346d7c58c501695221030b0ae657c161923bc19207d663377d98625ad2f69d2d6b838bd4961d08c871b72102b538f5c1a8e79e18e255332d35775e89e11a77d166c127470c95a3d856b963d4210257f788ed973b0d7b2a128819712f1f65e3eea536be9ae4ac072c837cb908327053ae0400473044022001cdb93378f59eb0fe9cacdcbd3ade6c6d6b9f1a1ebfdb3fa73055066f33cd9f02203a1089dff2cdb337bb3558c9320be1c1b2740f879c5a819181e719c3ef06906a01473044022013913595a511e0d3856021b1fe9432a61bff29da75e619d515f48279968b00b802202ce04447dda07c5b10be4b516c94f1dd63cb66994120a547e33529e3d540c035016952210245bf70354a084e5bc07245d12c48867d76bf11e0492fe123779b48c2f40521522102dbfa970aad099e63063b99abf89e9e9dd506ff65cf0bcccffe247bda3bf202b721030e08e11029c7134143859a8c826c1b57b90233ad28fa516ae6e2d080442bce9753ae00000000", "vin": [{"sequence": 4294967295, "scriptSig": {"hex": "0048304502210084d6944ed887ed0de6e00abe20dcb0d90448d3b383e1f3d6981e581f8e0fe61502204e31c358f8d95952e5db96bfdab2c154d3636cc232e02cea3627ac14d134d947014830450221008eb9eaae4dcec02b0087e29923e2b454d5232aaebffb753f356822ddcfc3ba5d022008ffd2d394700eb0b8888ee970ebc5a25f4d2ad5a2fda931fa92037a4bd78b35014c6952210313d64e526f8d9197aabb83d125011b51db8ae9acd05e383442a25643d6c9b49e2103fdfe85b018bb73795289b35add29696dbc9777522199368a60a299a63cf2ff79210246274a5a420036c886b6ae0c4cb8338efc0a3d81f78dfa9f088dfd7241797feb53ae", "asm": "0 304502210084d6944ed887ed0de6e00abe20dcb0d90448d3b383e1f3d6981e581f8e0fe61502204e31c358f8d95952e5db96bfdab2c154d3636cc232e02cea3627ac14d134d947[ALL] 30450221008eb9eaae4dcec02b0087e29923e2b454d5232aaebffb753f356822ddcfc3ba5d022008ffd2d394700eb0b8888ee970ebc5a25f4d2ad5a2fda931fa92037a4bd78b35[ALL] 52210313d64e526f8d9197aabb83d125011b51db8ae9acd05e383442a25643d6c9b49e2103fdfe85b018bb73795289b35add29696dbc9777522199368a60a299a63cf2ff79210246274a5a420036c886b6ae0c4cb8338efc0a3d81f78dfa9f088dfd7241797feb53ae"}, "vout": 27, "txid": "5e39be06bd5d2051534439fb6e43265d3f983a8d50e519464f11ccb73d2d806b"}, {"sequence": 4294967295, "scriptSig": {"hex": "0047304402201b70fe7a381aeb38197e99ab9a55f45eb8c7382f8465637f9a2df953ce8c28be022039a2bc998abbc397b24565d843b0333519adc14362e9c537fa4b772239ed248401483045022100d98d6c29f489e829353118b204fa859bc46b9072ab200469aa7dd67bbe9210fe0220150478ca2a34014c3a5f4f2c4b7349bd1d9c48cc366ebef9c624497af2033ef0014c695221038fed9147118965fa35c4d2ddda6cb0c02ceccd64d72c92f249f36cd33f1f86cd21025fb42a8eaebd6d61cb51e3548bba78aa9a02597cbd53f33e3f41dfd0e2ba3d1f210368f7de746c418f3d664aac02f599ba68be026a7297df4c05f6ca821e3be23b0553ae", "asm": "0 304402201b70fe7a381aeb38197e99ab9a55f45eb8c7382f8465637f9a2df953ce8c28be022039a2bc998abbc397b24565d843b0333519adc14362e9c537fa4b772239ed2484[ALL] 3045022100d98d6c29f489e829353118b204fa859bc46b9072ab200469aa7dd67bbe9210fe0220150478ca2a34014c3a5f4f2c4b7349bd1d9c48cc366ebef9c624497af2033ef0[ALL] 5221038fed9147118965fa35c4d2ddda6cb0c02ceccd64d72c92f249f36cd33f1f86cd21025fb42a8eaebd6d61cb51e3548bba78aa9a02597cbd53f33e3f41dfd0e2ba3d1f210368f7de746c418f3d664aac02f599ba68be026a7297df4c05f6ca821e3be23b0553ae"}, "vout": 0, "txid": "767ce6c7dc54a474bd56d7257754ad62a9f48509c61d8e8d6008ee288eddfd5d"}, {"txinwitness": ["", "3045022100e68fbffc30fc04ac05d3eafcc2b2fee97e84f8dfb49238f9c2d23dd4168e3c0e022077f8414a8c87a0576612316678c302f0288a3b9a58ca8cf350baad932b5bb64e01", "3044022075d60e96c57bc7a064b466026af67b2a21562b48f062665ac313a9aa425da73f02201bb953a97ee6b02aa443b3c8aae3f9a1e1eac9b7766cef534f6f72ab0d338b4601", "52210245bf70354a084e5bc07245d12c48867d76bf11e0492fe123779b48c2f40521522102dbfa970aad099e63063b99abf89e9e9dd506ff65cf0bcccffe247bda3bf202b721030e08e11029c7134143859a8c826c1b57b90233ad28fa516ae6e2d080442bce9753ae"], "sequence": 4294967295, "scriptSig": {"hex": "220020ab12ea1c6156b12578ddc190d522c8b8d8f3baeb50db6ad6d7e1dda2d7231be2", "asm": "0020ab12ea1c6156b12578ddc190d522c8b8d8f3baeb50db6ad6d7e1dda2d7231be2"}, "vout": 0, "txid": "e3e32c2d9775e19039cdd7765c830a8d2061d2e02db4e37930957a32831ee6bd"}, {"txinwitness": ["", "3045022100ed3a6e0f5a28353b591783f4608a9ecf2db6cde10960aad8670611e5f2c07abf0220501947cdac22cbe65a7ad97a41b7149c93738ba5c447ac05ac3781c71a1be24201", "3044022044be1fc405cf9edb9af93f88d65b76f1c053b40c73573eab184160f548965722022018cd5046fba2c37e0ec51944ecf4243ced07709b6cfbf3557f60bece0fedd6f001", "52210245bf70354a084e5bc07245d12c48867d76bf11e0492fe123779b48c2f40521522102dbfa970aad099e63063b99abf89e9e9dd506ff65cf0bcccffe247bda3bf202b721030e08e11029c7134143859a8c826c1b57b90233ad28fa516ae6e2d080442bce9753ae"], "sequence": 4294967295, "scriptSig": {"hex": "220020ab12ea1c6156b12578ddc190d522c8b8d8f3baeb50db6ad6d7e1dda2d7231be2", "asm": "0020ab12ea1c6156b12578ddc190d522c8b8d8f3baeb50db6ad6d7e1dda2d7231be2"}, "vout": 0, "txid": "d24ebf4599d931b5d09ce276be2fe90717880fcb4744330256d6dffce9a3bb5f"}, {"txinwitness": ["", "3045022100c07c4e95b872d90945e5676cee56432cf83639b678d04390b553bc0dba3a570002205d6c1701d91feaad1b63b9cc1cb6be2193d122fb0441a44603ef4e24428b8a2d01", "304402206afdaac74c4b67340c62a90e83f239a1195dbbc30eed10419286de845a6fb69102203a10e25f58332a85fd8827b54000d166263ee4696ac194d8366e64346d7c58c501", "5221030b0ae657c161923bc19207d663377d98625ad2f69d2d6b838bd4961d08c871b72102b538f5c1a8e79e18e255332d35775e89e11a77d166c127470c95a3d856b963d4210257f788ed973b0d7b2a128819712f1f65e3eea536be9ae4ac072c837cb908327053ae"], "sequence": 4294967295, "scriptSig": {"hex": "220020733181bdc1315c402c621a33bb329524c39fc3c6a146cd91deec6e75df1c4631", "asm": "0020733181bdc1315c402c621a33bb329524c39fc3c6a146cd91deec6e75df1c4631"}, "vout": 0, "txid": "19a72d8bd3f3e84b9f7fb742811b48dd2c350532232a424d69cdf8d406596d06"}, {"txinwitness": ["", "3044022001cdb93378f59eb0fe9cacdcbd3ade6c6d6b9f1a1ebfdb3fa73055066f33cd9f02203a1089dff2cdb337bb3558c9320be1c1b2740f879c5a819181e719c3ef06906a01", "3044022013913595a511e0d3856021b1fe9432a61bff29da75e619d515f48279968b00b802202ce04447dda07c5b10be4b516c94f1dd63cb66994120a547e33529e3d540c03501", "52210245bf70354a084e5bc07245d12c48867d76bf11e0492fe123779b48c2f40521522102dbfa970aad099e63063b99abf89e9e9dd506ff65cf0bcccffe247bda3bf202b721030e08e11029c7134143859a8c826c1b57b90233ad28fa516ae6e2d080442bce9753ae"], "sequence": 4294967295, "scriptSig": {"hex": "220020ab12ea1c6156b12578ddc190d522c8b8d8f3baeb50db6ad6d7e1dda2d7231be2", "asm": "0020ab12ea1c6156b12578ddc190d522c8b8d8f3baeb50db6ad6d7e1dda2d7231be2"}, "vout": 0, "txid": "3906eb1345c0b2f1a4010b2154239ab8244e57640d4959c690e6a9e7b293cb59"}], "txid": "302dedba7706828d73644cf453aeaf57cb4d2f191fcf853e21025afc0702b924", "blocktime": 1537871767, "version": 1, "confirmations": 11495, "time": 1537871767, "locktime": 0, "vsize": 1817, "size": 2578}