{"hash": "303aa75f715b68c4aa759351527ce9883e9ca24463d8584ec7273b1f5afc6d33", "blockhash": "0000000000000000000baef3f32e3676a92c3b2e5da21b426e4f302fc371ce76", "vout": [{"scriptPubKey": {"reqSigs": 1, "hex": "76a914caf2162c9e016b78a8ebf21807c58f3ba024218c88ac", "addresses": ["1KW5WDvj5akajr8PztPTioxRMAWFAARFej"], "asm": "OP_DUP OP_HASH160 caf2162c9e016b78a8ebf21807c58f3ba024218c OP_EQUALVERIFY OP_CHECKSIG", "type": "pubkeyhash"}, "value": 0.00355475, "n": 0}, {"scriptPubKey": {"reqSigs": 1, "hex": "76a914cfc8fc314480542a86819ec4b2f154f042f3f4dd88ac", "addresses": ["1KwfeQDgc4dXbTyo1PyqrnLRJhjiVBvxKj"], "asm": "OP_DUP OP_HASH160 cfc8fc314480542a86819ec4b2f154f042f3f4dd OP_EQUALVERIFY OP_CHECKSIG", "type": "pubkeyhash"}, "value": 0.91139485, "n": 1}], "hex": "0100000002f791ea3bf1f3259dd891aa1d1c928d537b49df4ce7bcb3e3b0794c7c795ee57c010000006b483045022100d7c772a75339968de685898cec0b3977d7698d46de15ab68e075b59446e916c302202da00a7b40b4e88ecf8fada9fa0383c901f454ff6224f6bd9aea11442ad7433a012103013c13a907225f2c1dce28167d72f9fc910a9ac2a8b27dab0658d52979bdfae6ffffffff14f8aaf8f38af9f673b0a22de53aa9dbd7b26552835cdaaf5297620443b554bd010000006a47304402207b11b9604e3c3908199b205869f8d9c3f21ac3532548669c27f6fc438ebfc88002202ea514f369be4b12e090174a32527bae37b9141666caf61c7b27c72730324d99012102b998b65d8b65bccaba84b75a8273f67f00a1b8d81f31a24a52916cd1aec1e392ffffffff02936c0500000000001976a914caf2162c9e016b78a8ebf21807c58f3ba024218c88ac9dad6e05000000001976a914cfc8fc314480542a86819ec4b2f154f042f3f4dd88ac00000000", "vin": [{"sequence": 4294967295, "scriptSig": {"hex": "483045022100d7c772a75339968de685898cec0b3977d7698d46de15ab68e075b59446e916c302202da00a7b40b4e88ecf8fada9fa0383c901f454ff6224f6bd9aea11442ad7433a012103013c13a907225f2c1dce28167d72f9fc910a9ac2a8b27dab0658d52979bdfae6", "asm": "3045022100d7c772a75339968de685898cec0b3977d7698d46de15ab68e075b59446e916c302202da00a7b40b4e88ecf8fada9fa0383c901f454ff6224f6bd9aea11442ad7433a[ALL] 03013c13a907225f2c1dce28167d72f9fc910a9ac2a8b27dab0658d52979bdfae6"}, "vout": 1, "txid": "7ce55e797c4c79b0e3b3bce74cdf497b538d921c1daa91d89d25f3f13bea91f7"}, {"sequence": 4294967295, "scriptSig": {"hex": "47304402207b11b9604e3c3908199b205869f8d9c3f21ac3532548669c27f6fc438ebfc88002202ea514f369be4b12e090174a32527bae37b9141666caf61c7b27c72730324d99012102b998b65d8b65bccaba84b75a8273f67f00a1b8d81f31a24a52916cd1aec1e392", "asm": "304402207b11b9604e3c3908199b205869f8d9c3f21ac3532548669c27f6fc438ebfc88002202ea514f369be4b12e090174a32527bae37b9141666caf61c7b27c72730324d99[ALL] 02b998b65d8b65bccaba84b75a8273f67f00a1b8d81f31a24a52916cd1aec1e392"}, "vout": 1, "txid": "bd54b54304629752afda5c835265b2d7dba93ae52da2b073f6f98af3f8aaf814"}], "txid": "303aa75f715b68c4aa759351527ce9883e9ca24463d8584ec7273b1f5afc6d33", "blocktime": 1537876114, "version": 1, "confirmations": 11460, "time": 1537876114, "locktime": 0, "vsize": 373, "size": 373}