{"hash": "303efcc5cbdf1c6fba9cf2eac8e8814347ebb7c7a8f32656eef869ca654a95ef", "blockhash": "0000000000000000000e13cef7c366c0283d82e591d1acd082e914b08063cdf1", "vout": [{"scriptPubKey": {"reqSigs": 1, "hex": "76a91425fcae7d4278c2fbaf5d7cda2318ed1f18b6bdd688ac", "addresses": ["14TrhiwApdyEt9aBWx2RR1sCC9n57TCRmV"], "asm": "OP_DUP OP_HASH160 25fcae7d4278c2fbaf5d7cda2318ed1f18b6bdd6 OP_EQUALVERIFY OP_CHECKSIG", "type": "pubkeyhash"}, "value": 0.00203177, "n": 0}, {"scriptPubKey": {"reqSigs": 1, "hex": "76a9144d57040043cd342194229ddd3ea27390e79c29aa88ac", "addresses": ["183wGivduYKP11MmTDDjgHXHTWossdseMF"], "asm": "OP_DUP OP_HASH160 4d57040043cd342194229ddd3ea27390e79c29aa OP_EQUALVERIFY OP_CHECKSIG", "type": "pubkeyhash"}, "value": 0.02352267, "n": 1}], "hex": "010000000191e800a8d29e51055407d405a2382220a465cdbce54da031abd273200cd699c3010000006a4730440220790d4785704f51d2e142725a9e430c0f5dc3e354231b92f37d5cb05ce744453902200b85eb76b0b5256c50c48cefdb685f05f6208dc336f565f3a2d49d7aa710764101210325c2ae5ef7094f40d7c2fbb08fae25352f61c621bc08179f6bf969c02d76a29affffffff02a9190300000000001976a91425fcae7d4278c2fbaf5d7cda2318ed1f18b6bdd688ac8be42300000000001976a9144d57040043cd342194229ddd3ea27390e79c29aa88ac00000000", "vin": [{"sequence": 4294967295, "scriptSig": {"hex": "4730440220790d4785704f51d2e142725a9e430c0f5dc3e354231b92f37d5cb05ce744453902200b85eb76b0b5256c50c48cefdb685f05f6208dc336f565f3a2d49d7aa710764101210325c2ae5ef7094f40d7c2fbb08fae25352f61c621bc08179f6bf969c02d76a29a", "asm": "30440220790d4785704f51d2e142725a9e430c0f5dc3e354231b92f37d5cb05ce744453902200b85eb76b0b5256c50c48cefdb685f05f6208dc336f565f3a2d49d7aa7107641[ALL] 0325c2ae5ef7094f40d7c2fbb08fae25352f61c621bc08179f6bf969c02d76a29a"}, "vout": 1, "txid": "c399d60c2073d2ab31a04de5bccd65a4202238a205d4075405519ed2a800e891"}], "txid": "303efcc5cbdf1c6fba9cf2eac8e8814347ebb7c7a8f32656eef869ca654a95ef", "blocktime": 1537871767, "version": 1, "confirmations": 11492, "time": 1537871767, "locktime": 0, "vsize": 225, "size": 225}