{"hash": "303f9d713fe6f4e8c86abe8e2f0748ca8e9d149430dfebc19310d70a97a38815", "blockhash": "0000000000000000001e0dab787dd257d1dbfcb92a98c2207d5e1078be1f4165", "vout": [{"scriptPubKey": {"reqSigs": 1, "hex": "a91469f376f9477b2e44173a4b6d91a5682050a5115187", "addresses": ["3BMEXutfo9DBctUMn4BoAfcv7Uw9USaD59"], "asm": "OP_HASH160 69f376f9477b2e44173a4b6d91a5682050a51151 OP_EQUAL", "type": "scripthash"}, "value": 0.00746977, "n": 0}, {"scriptPubKey": {"reqSigs": 1, "hex": "76a9145b7e47719efe0b6990fbc3731167b0e46124227088ac", "addresses": ["19LmmUt3Lq5ZHX2QPafEXjsZLU8VXgzdZY"], "asm": "OP_DUP OP_HASH160 5b7e47719efe0b6990fbc3731167b0e461242270 OP_EQUALVERIFY OP_CHECKSIG", "type": "pubkeyhash"}, "value": 0.32147779, "n": 1}, {"scriptPubKey": {"reqSigs": 1, "hex": "76a9146814aa992c4781c2c0b4e8d1a6e6ecee916b6a2b88ac", "addresses": ["1AVL2ssCQ7YDQQXaxuaKpRNRhvu6nA6hp8"], "asm": "OP_DUP OP_HASH160 6814aa992c4781c2c0b4e8d1a6e6ecee916b6a2b OP_EQUALVERIFY OP_CHECKSIG", "type": "pubkeyhash"}, "value": 0.14922419, "n": 2}], "hex": "02000000023caf72d71916c51487677a256b311f068e28dcd1c0ded1a4bbd77d694978bf65010000006a473044022077505c05ef55101c743398ce9dfd550e8b8b86bc9f73e14ead5d03abf1cc393d022019eac316127dba0c8d4bfe3c1b7d0c7bc5aa53d7bc16831a92476958becca77601210351c37371093626a8a9892ec09ac0fa4ea79631084ab1fb2458a090d1e97f4120ffffffffe95d1bb03bb65fae54fccfdd5ce4fe0370f01f449b323fcc0c403425b088c588010000006a47304402201bff9474b2ecf9eff49976c69b52067537af523c85face7a39780d85419f059c02204aa05639add9bd72f57db91d7f046b0608c7d9e8d14bcd161231ea509254379101210351c37371093626a8a9892ec09ac0fa4ea79631084ab1fb2458a090d1e97f4120ffffffff03e1650b000000000017a91469f376f9477b2e44173a4b6d91a5682050a51151874389ea01000000001976a9145b7e47719efe0b6990fbc3731167b0e46124227088acb3b2e300000000001976a9146814aa992c4781c2c0b4e8d1a6e6ecee916b6a2b88ac00000000", "vin": [{"sequence": 4294967295, "scriptSig": {"hex": "473044022077505c05ef55101c743398ce9dfd550e8b8b86bc9f73e14ead5d03abf1cc393d022019eac316127dba0c8d4bfe3c1b7d0c7bc5aa53d7bc16831a92476958becca77601210351c37371093626a8a9892ec09ac0fa4ea79631084ab1fb2458a090d1e97f4120", "asm": "3044022077505c05ef55101c743398ce9dfd550e8b8b86bc9f73e14ead5d03abf1cc393d022019eac316127dba0c8d4bfe3c1b7d0c7bc5aa53d7bc16831a92476958becca776[ALL] 0351c37371093626a8a9892ec09ac0fa4ea79631084ab1fb2458a090d1e97f4120"}, "vout": 1, "txid": "65bf7849697dd7bba4d1dec0d1dc288e061f316b257a678714c51619d772af3c"}, {"sequence": 4294967295, "scriptSig": {"hex": "47304402201bff9474b2ecf9eff49976c69b52067537af523c85face7a39780d85419f059c02204aa05639add9bd72f57db91d7f046b0608c7d9e8d14bcd161231ea509254379101210351c37371093626a8a9892ec09ac0fa4ea79631084ab1fb2458a090d1e97f4120", "asm": "304402201bff9474b2ecf9eff49976c69b52067537af523c85face7a39780d85419f059c02204aa05639add9bd72f57db91d7f046b0608c7d9e8d14bcd161231ea5092543791[ALL] 0351c37371093626a8a9892ec09ac0fa4ea79631084ab1fb2458a090d1e97f4120"}, "vout": 1, "txid": "88c588b02534400ccc3f329b441ff07003fee45cddcffc54ae5fb63bb01b5de9"}], "txid": "303f9d713fe6f4e8c86abe8e2f0748ca8e9d149430dfebc19310d70a97a38815", "blocktime": 1537872475, "version": 2, "confirmations": 11486, "time": 1537872475, "locktime": 0, "vsize": 404, "size": 404}