{"hash": "304306115d1af12ee557bd7cebb2ba331d9c655b6742d5d0c89495d58916a44e", "blockhash": "0000000000000000001f76057863aec43deb6fa401d9628bb513d65a8098bfab", "vout": [{"scriptPubKey": {"type": "nulldata", "hex": "6a4c50000077df0001cee0ca792d4372e1e5bab9477af8e8e963c7cfd5b95b23cc0f42c2fc38c56c56a870d38cbba081e492a10e12ce2e5baa169606127773b48f52d64bbf23acfcfaac8058b692fe6808c31d", "asm": "OP_RETURN 000077df0001cee0ca792d4372e1e5bab9477af8e8e963c7cfd5b95b23cc0f42c2fc38c56c56a870d38cbba081e492a10e12ce2e5baa169606127773b48f52d64bbf23acfcfaac8058b692fe6808c31d"}, "value": 0.0, "n": 0}, {"scriptPubKey": {"reqSigs": 1, "hex": "76a914ffcadba34dbd206695060cca6bbc4f909c40e4d888ac", "addresses": ["1QKWKjdPic1W75HHN47vfu6jUcGe1qTyuz"], "asm": "OP_DUP OP_HASH160 ffcadba34dbd206695060cca6bbc4f909c40e4d8 OP_EQUALVERIFY OP_CHECKSIG", "type": "pubkeyhash"}, "value": 7.169e-05, "n": 1}], "hex": "01000000016a2a421969439e31a65437b9e53155df1455a83d56398a9a1ca2b86058c7e279000000006b483045022100ddbda6282320626aa506c53c802b2896ab4b1cdda7dad7050a33da5faf710cf302206d67f96dc03fa635fe33230649da3ae27d66abfd8b51c45cccf8d570ee4b63af0121036357594989699273e822a7d145eb0eb085c74a27a1a68d7df09c815bbde3a300ffffffff020000000000000000536a4c50000077df0001cee0ca792d4372e1e5bab9477af8e8e963c7cfd5b95b23cc0f42c2fc38c56c56a870d38cbba081e492a10e12ce2e5baa169606127773b48f52d64bbf23acfcfaac8058b692fe6808c31d011c0000000000001976a914ffcadba34dbd206695060cca6bbc4f909c40e4d888ac00000000", "vin": [{"sequence": 4294967295, "scriptSig": {"hex": "483045022100ddbda6282320626aa506c53c802b2896ab4b1cdda7dad7050a33da5faf710cf302206d67f96dc03fa635fe33230649da3ae27d66abfd8b51c45cccf8d570ee4b63af0121036357594989699273e822a7d145eb0eb085c74a27a1a68d7df09c815bbde3a300", "asm": "3045022100ddbda6282320626aa506c53c802b2896ab4b1cdda7dad7050a33da5faf710cf302206d67f96dc03fa635fe33230649da3ae27d66abfd8b51c45cccf8d570ee4b63af[ALL] 036357594989699273e822a7d145eb0eb085c74a27a1a68d7df09c815bbde3a300"}, "vout": 0, "txid": "79e2c75860b8a21c9a8a39563da85514df5531e5b93754a6319e436919422a6a"}], "txid": "304306115d1af12ee557bd7cebb2ba331d9c655b6742d5d0c89495d58916a44e", "blocktime": 1537873891, "version": 1, "confirmations": 11478, "time": 1537873891, "locktime": 0, "vsize": 284, "size": 284}