{"hash": "304417f70ad12f231d1072f262dbb48917dbf7b17abf56256a945f183f618273", "blockhash": "0000000000000000001cda96e906b7601b7a6fb1a3b62bca570a9e5d8f4b3de1", "vout": [{"scriptPubKey": {"reqSigs": 1, "hex": "76a91411662c09a8143db7e93cf7ad42c7d8012b2c484388ac", "addresses": ["12aztJGQnDGyoH8dKcCTL3NY5x7jWrYYTU"], "asm": "OP_DUP OP_HASH160 11662c09a8143db7e93cf7ad42c7d8012b2c4843 OP_EQUALVERIFY OP_CHECKSIG", "type": "pubkeyhash"}, "value": 4.457e-05, "n": 0}, {"scriptPubKey": {"reqSigs": 1, "hex": "76a914c0d431805184b1aec6efbc2503047ed46ed0f4fd88ac", "addresses": ["1JaawHXG9M7dmprNVxwF3sVydkdoth7w1y"], "asm": "OP_DUP OP_HASH160 c0d431805184b1aec6efbc2503047ed46ed0f4fd OP_EQUALVERIFY OP_CHECKSIG", "type": "pubkeyhash"}, "value": 0.0076, "n": 1}], "hex": "010000000904103e4994cff309a7fc26771ddf3bc06c5ff1a12947167befc3cdfe797b0605000000006b483045022100df302b191164fe73e3c2e616862d0b7749bc599cb5197841c37551d6a32a50ec022057c014110917860279ab1e5d20e6a7f95a2289b927e6ae54ae206f4119ad8c240121038bd6102b8195d9f13bcd4442d9e47cbf7e893a8a93957cff51c420a568c143c0ffffffff10ea15896f074666cdbd08da919bfa791bf95e033813d48287ce3bad8fea9119000000006b483045022100b9d0c17caf6692f9dcf16426a3b66f88c042f7bb1ea254585f74dbad1959e712022059447c173cc78083c09fc688b738ea2ef889c0a17e01cb276c93c0c9ba5721be0121038bd6102b8195d9f13bcd4442d9e47cbf7e893a8a93957cff51c420a568c143c0ffffffff4ed5ebf5dae83a291bd4f24993a97b3bf6b398ffb77fec8a161b2cd42bd98f23000000006a4730440220497b336d3278ace581ac6e227c7e4dffa7c198e3d896735e3d5c6660ae1132f702201df875adeff742fb00d007c8b64fbcde643e152b8bce3f271b64f0160778db2d0121038bd6102b8195d9f13bcd4442d9e47cbf7e893a8a93957cff51c420a568c143c0ffffffff0c232d64a6dc931643d2974a59038612f9a1956f83d3fc0607c551389e55c229000000006a4730440220217ec0aa7af30815fdc9f3d9980ad431b944e33b03b6ca5f60f68bf3ca23cfbc022038c0475b0413f7b79de797fc88b1e93f0757a3968e14cb6cd7b1f552b8f479fe0121038bd6102b8195d9f13bcd4442d9e47cbf7e893a8a93957cff51c420a568c143c0ffffffffb8e75e4f8ced81cc8262f3b9de9e492e59562721ffeddc41e010fe10fe9f6943000000006b483045022100b18da3a13909ccbbcf451c24aea32859db834f78eb723d34cf03a59968dad0b102205de67ed9bcb153d507b11f968ab96926d2793110d6d95acac4b840cf3331f2e50121038bd6102b8195d9f13bcd4442d9e47cbf7e893a8a93957cff51c420a568c143c0ffffffff6a509c91cf2ee8ec20138b23bd241a36fcd4c375782be6a14bc7ea70a96e3044000000006a473044022013244105c40eb0d2b2a53c99f480450118965a3718c6b2c2951d9f8a0ca14a9302202e4190ee8e5f05278e95e8339262fd69675d4c6343e6e740015e001dbb79d8c60121038bd6102b8195d9f13bcd4442d9e47cbf7e893a8a93957cff51c420a568c143c0ffffffff023d56885ca3cc39c9ee4d3d97100c714a8681882c41235a273ae550cd1b6667050000006b483045022100b302a596e770b831d4fb645814600641d904863fdbdcd642af05bdfc255737e902201b34a9f9096206ee30aa0448352ec882756355e20fbb9bac3de58b7a3003d3a60121025be74615038cf9676707d09d0f483bca9cd81fce32bb2d7e2165c67927a70d73ffffffff2c820a54417ec12e2d293078878907331f8858c84fc93beac0fdd648676caa7e000000006a47304402202185c281491cba299dac6321ffefb9bfc82d0b7384e02b6c58fb65fa796879260220117490ad96c1e65f5b6ecdd9b85036917e734ec9f04f8704458ca0368b37fcfc01210217794012aaaceb76fd3a9715ca8da89b9f2d728bf700a56dcf1086e7d5a95a73fffffffffc0140fb925408365da3be832b1915a8f8fa8291a996a9484809704770061cfd000000006b48304502210084bb7668b8cae65d1bc2c915624c422b530e36e2b55367306c468cc5d90e79790220576521844856503c87a02ec8ed0de2d23b27a9cf0d16e5de83c1a20f7e1491ef0121038bd6102b8195d9f13bcd4442d9e47cbf7e893a8a93957cff51c420a568c143c0ffffffff0269110000000000001976a91411662c09a8143db7e93cf7ad42c7d8012b2c484388acc0980b00000000001976a914c0d431805184b1aec6efbc2503047ed46ed0f4fd88ac00000000", "vin": [{"sequence": 4294967295, "scriptSig": {"hex": "483045022100df302b191164fe73e3c2e616862d0b7749bc599cb5197841c37551d6a32a50ec022057c014110917860279ab1e5d20e6a7f95a2289b927e6ae54ae206f4119ad8c240121038bd6102b8195d9f13bcd4442d9e47cbf7e893a8a93957cff51c420a568c143c0", "asm": "3045022100df302b191164fe73e3c2e616862d0b7749bc599cb5197841c37551d6a32a50ec022057c014110917860279ab1e5d20e6a7f95a2289b927e6ae54ae206f4119ad8c24[ALL] 038bd6102b8195d9f13bcd4442d9e47cbf7e893a8a93957cff51c420a568c143c0"}, "vout": 0, "txid": "05067b79fecdc3ef7b164729a1f15f6cc03bdf1d7726fca709f3cf94493e1004"}, {"sequence": 4294967295, "scriptSig": {"hex": "483045022100b9d0c17caf6692f9dcf16426a3b66f88c042f7bb1ea254585f74dbad1959e712022059447c173cc78083c09fc688b738ea2ef889c0a17e01cb276c93c0c9ba5721be0121038bd6102b8195d9f13bcd4442d9e47cbf7e893a8a93957cff51c420a568c143c0", "asm": "3045022100b9d0c17caf6692f9dcf16426a3b66f88c042f7bb1ea254585f74dbad1959e712022059447c173cc78083c09fc688b738ea2ef889c0a17e01cb276c93c0c9ba5721be[ALL] 038bd6102b8195d9f13bcd4442d9e47cbf7e893a8a93957cff51c420a568c143c0"}, "vout": 0, "txid": "1991ea8fad3bce8782d41338035ef91b79fa9b91da08bdcd6646076f8915ea10"}, {"sequence": 4294967295, "scriptSig": {"hex": "4730440220497b336d3278ace581ac6e227c7e4dffa7c198e3d896735e3d5c6660ae1132f702201df875adeff742fb00d007c8b64fbcde643e152b8bce3f271b64f0160778db2d0121038bd6102b8195d9f13bcd4442d9e47cbf7e893a8a93957cff51c420a568c143c0", "asm": "30440220497b336d3278ace581ac6e227c7e4dffa7c198e3d896735e3d5c6660ae1132f702201df875adeff742fb00d007c8b64fbcde643e152b8bce3f271b64f0160778db2d[ALL] 038bd6102b8195d9f13bcd4442d9e47cbf7e893a8a93957cff51c420a568c143c0"}, "vout": 0, "txid": "238fd92bd42c1b168aec7fb7ff98b3f63b7ba99349f2d41b293ae8daf5ebd54e"}, {"sequence": 4294967295, "scriptSig": {"hex": "4730440220217ec0aa7af30815fdc9f3d9980ad431b944e33b03b6ca5f60f68bf3ca23cfbc022038c0475b0413f7b79de797fc88b1e93f0757a3968e14cb6cd7b1f552b8f479fe0121038bd6102b8195d9f13bcd4442d9e47cbf7e893a8a93957cff51c420a568c143c0", "asm": "30440220217ec0aa7af30815fdc9f3d9980ad431b944e33b03b6ca5f60f68bf3ca23cfbc022038c0475b0413f7b79de797fc88b1e93f0757a3968e14cb6cd7b1f552b8f479fe[ALL] 038bd6102b8195d9f13bcd4442d9e47cbf7e893a8a93957cff51c420a568c143c0"}, "vout": 0, "txid": "29c2559e3851c50706fcd3836f95a1f9128603594a97d2431693dca6642d230c"}, {"sequence": 4294967295, "scriptSig": {"hex": "483045022100b18da3a13909ccbbcf451c24aea32859db834f78eb723d34cf03a59968dad0b102205de67ed9bcb153d507b11f968ab96926d2793110d6d95acac4b840cf3331f2e50121038bd6102b8195d9f13bcd4442d9e47cbf7e893a8a93957cff51c420a568c143c0", "asm": "3045022100b18da3a13909ccbbcf451c24aea32859db834f78eb723d34cf03a59968dad0b102205de67ed9bcb153d507b11f968ab96926d2793110d6d95acac4b840cf3331f2e5[ALL] 038bd6102b8195d9f13bcd4442d9e47cbf7e893a8a93957cff51c420a568c143c0"}, "vout": 0, "txid": "43699ffe10fe10e041dcedff212756592e499edeb9f36282cc81ed8c4f5ee7b8"}, {"sequence": 4294967295, "scriptSig": {"hex": "473044022013244105c40eb0d2b2a53c99f480450118965a3718c6b2c2951d9f8a0ca14a9302202e4190ee8e5f05278e95e8339262fd69675d4c6343e6e740015e001dbb79d8c60121038bd6102b8195d9f13bcd4442d9e47cbf7e893a8a93957cff51c420a568c143c0", "asm": "3044022013244105c40eb0d2b2a53c99f480450118965a3718c6b2c2951d9f8a0ca14a9302202e4190ee8e5f05278e95e8339262fd69675d4c6343e6e740015e001dbb79d8c6[ALL] 038bd6102b8195d9f13bcd4442d9e47cbf7e893a8a93957cff51c420a568c143c0"}, "vout": 0, "txid": "44306ea970eac74ba1e62b7875c3d4fc361a24bd238b1320ece82ecf919c506a"}, {"sequence": 4294967295, "scriptSig": {"hex": "483045022100b302a596e770b831d4fb645814600641d904863fdbdcd642af05bdfc255737e902201b34a9f9096206ee30aa0448352ec882756355e20fbb9bac3de58b7a3003d3a60121025be74615038cf9676707d09d0f483bca9cd81fce32bb2d7e2165c67927a70d73", "asm": "3045022100b302a596e770b831d4fb645814600641d904863fdbdcd642af05bdfc255737e902201b34a9f9096206ee30aa0448352ec882756355e20fbb9bac3de58b7a3003d3a6[ALL] 025be74615038cf9676707d09d0f483bca9cd81fce32bb2d7e2165c67927a70d73"}, "vout": 5, "txid": "67661bcd50e53a275a23412c8881864a710c10973d4deec939cca35c88563d02"}, {"sequence": 4294967295, "scriptSig": {"hex": "47304402202185c281491cba299dac6321ffefb9bfc82d0b7384e02b6c58fb65fa796879260220117490ad96c1e65f5b6ecdd9b85036917e734ec9f04f8704458ca0368b37fcfc01210217794012aaaceb76fd3a9715ca8da89b9f2d728bf700a56dcf1086e7d5a95a73", "asm": "304402202185c281491cba299dac6321ffefb9bfc82d0b7384e02b6c58fb65fa796879260220117490ad96c1e65f5b6ecdd9b85036917e734ec9f04f8704458ca0368b37fcfc[ALL] 0217794012aaaceb76fd3a9715ca8da89b9f2d728bf700a56dcf1086e7d5a95a73"}, "vout": 0, "txid": "7eaa6c6748d6fdc0ea3bc94fc858881f330789877830292d2ec17e41540a822c"}, {"sequence": 4294967295, "scriptSig": {"hex": "48304502210084bb7668b8cae65d1bc2c915624c422b530e36e2b55367306c468cc5d90e79790220576521844856503c87a02ec8ed0de2d23b27a9cf0d16e5de83c1a20f7e1491ef0121038bd6102b8195d9f13bcd4442d9e47cbf7e893a8a93957cff51c420a568c143c0", "asm": "304502210084bb7668b8cae65d1bc2c915624c422b530e36e2b55367306c468cc5d90e79790220576521844856503c87a02ec8ed0de2d23b27a9cf0d16e5de83c1a20f7e1491ef[ALL] 038bd6102b8195d9f13bcd4442d9e47cbf7e893a8a93957cff51c420a568c143c0"}, "vout": 0, "txid": "fd1c06704770094848a996a99182faf8a815192b83bea35d36085492fb4001fc"}], "txid": "304417f70ad12f231d1072f262dbb48917dbf7b17abf56256a945f183f618273", "blocktime": 1537873282, "version": 1, "confirmations": 11484, "time": 1537873282, "locktime": 0, "vsize": 1406, "size": 1406}