{"hash": "3049ddc476fc9e4c1230bf8d9ce27df3b7f6c5e9a44a61596aca93ceb4b234cf", "blockhash": "0000000000000000001cda96e906b7601b7a6fb1a3b62bca570a9e5d8f4b3de1", "vout": [{"scriptPubKey": {"reqSigs": 1, "hex": "76a914d25872d5f5465d6965af15c2742ad782a5d566a188ac", "addresses": ["1LBCroMkkWUAYzk4qEZC3r6Hr6SrqLinxZ"], "asm": "OP_DUP OP_HASH160 d25872d5f5465d6965af15c2742ad782a5d566a1 OP_EQUALVERIFY OP_CHECKSIG", "type": "pubkeyhash"}, "value": 9.02e-05, "n": 0}], "hex": "010000000125bac834a4bd90f3a13aaf40f69be81f7b3fb434e86ae5419b7e2676652e0ead000000006b483045022100972064b89430ba7a59caec8768a77b922e821ee7286b36bb3ac665cb240bf83c02207e4887e51511f697ae4694cf3b3fc1c8aa83c740771f93d15f67830b3396f40a0121039e3a2179ae54a95223b5393a34c08fd377f2a5fa7806795dc98ca07b78509a70ffffffff013c230000000000001976a914d25872d5f5465d6965af15c2742ad782a5d566a188ac00000000", "vin": [{"sequence": 4294967295, "scriptSig": {"hex": "483045022100972064b89430ba7a59caec8768a77b922e821ee7286b36bb3ac665cb240bf83c02207e4887e51511f697ae4694cf3b3fc1c8aa83c740771f93d15f67830b3396f40a0121039e3a2179ae54a95223b5393a34c08fd377f2a5fa7806795dc98ca07b78509a70", "asm": "3045022100972064b89430ba7a59caec8768a77b922e821ee7286b36bb3ac665cb240bf83c02207e4887e51511f697ae4694cf3b3fc1c8aa83c740771f93d15f67830b3396f40a[ALL] 039e3a2179ae54a95223b5393a34c08fd377f2a5fa7806795dc98ca07b78509a70"}, "vout": 0, "txid": "ad0e2e6576267e9b41e56ae834b43f7b1fe89bf640af3aa1f390bda434c8ba25"}], "txid": "3049ddc476fc9e4c1230bf8d9ce27df3b7f6c5e9a44a61596aca93ceb4b234cf", "blocktime": 1537873282, "version": 1, "confirmations": 11485, "time": 1537873282, "locktime": 0, "vsize": 192, "size": 192}