{"hash": "304eb8293ef10f8871d2aaf51b99fc3def1d6ca55ce79626c25297c7c29fd0fe", "blockhash": "0000000000000000001f76057863aec43deb6fa401d9628bb513d65a8098bfab", "vout": [{"scriptPubKey": {"reqSigs": 1, "hex": "76a91401ec9cd7b6467d346745ed23d9883633df2de2e488ac", "addresses": ["1BB8L2mzcTCxR28JvUG1z1NFm586qt1Ym"], "asm": "OP_DUP OP_HASH160 01ec9cd7b6467d346745ed23d9883633df2de2e4 OP_EQUALVERIFY OP_CHECKSIG", "type": "pubkeyhash"}, "value": 0.0171492, "n": 0}, {"scriptPubKey": {"reqSigs": 1, "hex": "a91445733fe1931269f8e644b98ea4e53a9664edd8a187", "addresses": ["382EcTXa8EDUDyGKRDgUaA1Y2Yp1uVkkyN"], "asm": "OP_HASH160 45733fe1931269f8e644b98ea4e53a9664edd8a1 OP_EQUAL", "type": "scripthash"}, "value": 0.09412344, "n": 1}], "hex": "010000000272a2dc1aae5aba23ab7bb042e79ef385668a52f9533065dee4d8c4da70e8a3c6020000006b483045022100dd18db62ccd5d05eacb6064a4d222ac9b23052131d304714453f17bbecb78320022073c409b13bd513d2c041036b197d0e0423dd2874302e888fbd9deacd2545abb1012102e4773a9c00d8464caf24628688b94686d166863177bc1308e509c909cf461e88ffffffffb1496b8f031bb40ff4c7358618386f3a5aa938133b1fbdf80e61b4b58a89d0e6010000006a473044022026de5cc2627ab426de4a5e380cd898ddbb8d81ca50ff2d97384b635df398ce9c0220597cc349f75aa43a5dc53f19fdb8b2deda8281b1d2ab6f8c2b30b6609f4f20750121035cc0642d7792294960a55d31e8339aec96aebbbb0ffcc6be30e9c2c8c0ce469dffffffff02e82a1a00000000001976a91401ec9cd7b6467d346745ed23d9883633df2de2e488acf89e8f000000000017a91445733fe1931269f8e644b98ea4e53a9664edd8a18700000000", "vin": [{"sequence": 4294967295, "scriptSig": {"hex": "483045022100dd18db62ccd5d05eacb6064a4d222ac9b23052131d304714453f17bbecb78320022073c409b13bd513d2c041036b197d0e0423dd2874302e888fbd9deacd2545abb1012102e4773a9c00d8464caf24628688b94686d166863177bc1308e509c909cf461e88", "asm": "3045022100dd18db62ccd5d05eacb6064a4d222ac9b23052131d304714453f17bbecb78320022073c409b13bd513d2c041036b197d0e0423dd2874302e888fbd9deacd2545abb1[ALL] 02e4773a9c00d8464caf24628688b94686d166863177bc1308e509c909cf461e88"}, "vout": 2, "txid": "c6a3e870dac4d8e4de653053f9528a6685f39ee742b07bab23ba5aae1adca272"}, {"sequence": 4294967295, "scriptSig": {"hex": "473044022026de5cc2627ab426de4a5e380cd898ddbb8d81ca50ff2d97384b635df398ce9c0220597cc349f75aa43a5dc53f19fdb8b2deda8281b1d2ab6f8c2b30b6609f4f20750121035cc0642d7792294960a55d31e8339aec96aebbbb0ffcc6be30e9c2c8c0ce469d", "asm": "3044022026de5cc2627ab426de4a5e380cd898ddbb8d81ca50ff2d97384b635df398ce9c0220597cc349f75aa43a5dc53f19fdb8b2deda8281b1d2ab6f8c2b30b6609f4f2075[ALL] 035cc0642d7792294960a55d31e8339aec96aebbbb0ffcc6be30e9c2c8c0ce469d"}, "vout": 1, "txid": "e6d0898ab5b4610ef8bd1f3b1338a95a3a6f38188635c7f40fb41b038f6b49b1"}], "txid": "304eb8293ef10f8871d2aaf51b99fc3def1d6ca55ce79626c25297c7c29fd0fe", "blocktime": 1537873891, "version": 1, "confirmations": 11478, "time": 1537873891, "locktime": 0, "vsize": 371, "size": 371}