{"hash": "305129251298293ba488bdb46e4c5403589e436d8213da65b8af72668f6d9548", "blockhash": "0000000000000000001f76057863aec43deb6fa401d9628bb513d65a8098bfab", "vout": [{"scriptPubKey": {"reqSigs": 1, "hex": "a9142e5566480703f11af8e0cec0236bcf2b88de488087", "addresses": ["35v1K2o9gzJeTpnd7YsKknkAiS2rousRpc"], "asm": "OP_HASH160 2e5566480703f11af8e0cec0236bcf2b88de4880 OP_EQUAL", "type": "scripthash"}, "value": 0.00267467, "n": 0}, {"scriptPubKey": {"reqSigs": 1, "hex": "76a9144f9fe2ab49daa6b7cf251181c8eb6b3652730ce888ac", "addresses": ["18G1vBx1gJoXKWho9Sa9zWSgmbttVqqLoQ"], "asm": "OP_DUP OP_HASH160 4f9fe2ab49daa6b7cf251181c8eb6b3652730ce8 OP_EQUALVERIFY OP_CHECKSIG", "type": "pubkeyhash"}, "value": 0.03386937, "n": 1}], "hex": "0100000001d9cfbcc547384904a0b249eb9f8ef3875ce41260d888ee8b60068379d301df37010000006a47304402203890c641b479328af5fc589d06f0beedc8ad3311629c13e3f55198c2031cd38d022028a33013ca75fe410261d348b5c1e714fb441fed95a33aa540051a8167ed2ba601210205f9073d7badc53222340e48d77b7c2d19d4d4fc08e14adbf680a252e5045317ffffffff02cb1404000000000017a9142e5566480703f11af8e0cec0236bcf2b88de48808739ae3300000000001976a9144f9fe2ab49daa6b7cf251181c8eb6b3652730ce888ac00000000", "vin": [{"sequence": 4294967295, "scriptSig": {"hex": "47304402203890c641b479328af5fc589d06f0beedc8ad3311629c13e3f55198c2031cd38d022028a33013ca75fe410261d348b5c1e714fb441fed95a33aa540051a8167ed2ba601210205f9073d7badc53222340e48d77b7c2d19d4d4fc08e14adbf680a252e5045317", "asm": "304402203890c641b479328af5fc589d06f0beedc8ad3311629c13e3f55198c2031cd38d022028a33013ca75fe410261d348b5c1e714fb441fed95a33aa540051a8167ed2ba6[ALL] 0205f9073d7badc53222340e48d77b7c2d19d4d4fc08e14adbf680a252e5045317"}, "vout": 1, "txid": "37df01d3798306608bee88d86012e45c87f38e9feb49b2a004493847c5bccfd9"}], "txid": "305129251298293ba488bdb46e4c5403589e436d8213da65b8af72668f6d9548", "blocktime": 1537873891, "version": 1, "confirmations": 11475, "time": 1537873891, "locktime": 0, "vsize": 223, "size": 223}