{"hash": "3052790894e2673837fb07e00db2ffcb8e0a539ae6b894ed31bcfeff439404d9", "blockhash": "0000000000000000001cda96e906b7601b7a6fb1a3b62bca570a9e5d8f4b3de1", "vout": [{"scriptPubKey": {"type": "nulldata", "hex": "6a146f6d6e69000000000000001f00000013b8836f00", "asm": "OP_RETURN 6f6d6e69000000000000001f00000013b8836f00"}, "value": 0.0, "n": 0}, {"scriptPubKey": {"reqSigs": 1, "hex": "76a914a25dec4d0011064ef106a983c39c7a540699f22088ac", "addresses": ["1FoWyxwPXuj4C6abqwhjDWdz6D4PZgYRjA"], "asm": "OP_DUP OP_HASH160 a25dec4d0011064ef106a983c39c7a540699f220 OP_EQUALVERIFY OP_CHECKSIG", "type": "pubkeyhash"}, "value": 0.01980768, "n": 1}, {"scriptPubKey": {"reqSigs": 1, "hex": "76a9145729b6f356bf93c790ad6cdb1f31c30f4aa1ef8688ac", "addresses": ["18wsm5HsF1aGpAsoSQympRiQm6JYFshCSs"], "asm": "OP_DUP OP_HASH160 5729b6f356bf93c790ad6cdb1f31c30f4aa1ef86 OP_EQUALVERIFY OP_CHECKSIG", "type": "pubkeyhash"}, "value": 5.46e-06, "n": 2}], "hex": "010000000107399a0133480a78635ed63383448d06e77a6255b8fc7ef97e1f4aa7f088b1b5000000006a47304402205f5536d52aeb18235132fb2147603d62e3c6ac23259154543bb28fe3b6fd85eb022012c42c5263e791d6c9ede7772836d0f2951430647bfa6e8dc56b34cd4a84f184012103da5bac7b36d5aa38f531c6b9601e21bb598a4b6716ebed38b009a55dabde9440feffffff030000000000000000166a146f6d6e69000000000000001f00000013b8836f0060391e00000000001976a914a25dec4d0011064ef106a983c39c7a540699f22088ac22020000000000001976a9145729b6f356bf93c790ad6cdb1f31c30f4aa1ef8688ac13490800", "vin": [{"sequence": 4294967294, "scriptSig": {"hex": "47304402205f5536d52aeb18235132fb2147603d62e3c6ac23259154543bb28fe3b6fd85eb022012c42c5263e791d6c9ede7772836d0f2951430647bfa6e8dc56b34cd4a84f184012103da5bac7b36d5aa38f531c6b9601e21bb598a4b6716ebed38b009a55dabde9440", "asm": "304402205f5536d52aeb18235132fb2147603d62e3c6ac23259154543bb28fe3b6fd85eb022012c42c5263e791d6c9ede7772836d0f2951430647bfa6e8dc56b34cd4a84f184[ALL] 03da5bac7b36d5aa38f531c6b9601e21bb598a4b6716ebed38b009a55dabde9440"}, "vout": 0, "txid": "b5b188f0a74a1f7ef97efcb855627ae7068d448333d65e63780a4833019a3907"}], "txid": "3052790894e2673837fb07e00db2ffcb8e0a539ae6b894ed31bcfeff439404d9", "blocktime": 1537873282, "version": 1, "confirmations": 11481, "time": 1537873282, "locktime": 542995, "vsize": 256, "size": 256}