{"hash": "32f0220a1d2b274068bee588ae8cbc4b4433cb6d2d06a469ead6b03e0f84d693", "blockhash": "0000000000000000001cda96e906b7601b7a6fb1a3b62bca570a9e5d8f4b3de1", "vout": [{"scriptPubKey": {"reqSigs": 1, "hex": "a9143a9377d17801feb32de54261aebb6b941612f63187", "addresses": ["372jmvqJ119EnYjhHH35bDwuQM7xmWjSqm"], "asm": "OP_HASH160 3a9377d17801feb32de54261aebb6b941612f631 OP_EQUAL", "type": "scripthash"}, "value": 0.233397, "n": 0}, {"scriptPubKey": {"reqSigs": 1, "hex": "76a9144d5ebfd4342fe119b71798b66f8fdc1111f4ecd288ac", "addresses": ["1846Y54Dug1MPDz7jX1e1ihXThD1tEStXu"], "asm": "OP_DUP OP_HASH160 4d5ebfd4342fe119b71798b66f8fdc1111f4ecd2 OP_EQUALVERIFY OP_CHECKSIG", "type": "pubkeyhash"}, "value": 0.081, "n": 1}], "hex": "010000000001012ac29d8c9203e4c5dae5dcfc6c5a54feae7e9d9a5e406d8e23b2927f9ecb2b5c0000000023220020b2b9fd5c82ea7dfa08f8a6884b23ce0e039c96d0552ea5717a7dd7282a458313ffffffff02b42264010000000017a9143a9377d17801feb32de54261aebb6b941612f63187a0987b00000000001976a9144d5ebfd4342fe119b71798b66f8fdc1111f4ecd288ac040047304402207e1b243a84fb44dbdebf9e3c9f25e3c899fbd7ff765b020a8d7bae714b37d6a9022044f2983730e0c44415d2923800efd254054572bca330f0b399c5731546595d4c01473044022053e097b2693a7a25fb08f85a40a6c39cc2edef908f21ac207eb96f1913723e1202202ec74ea50e22161f76061cda1f3811e4bd11e4afbf2948e88cbfa7ea5534ece00169522102bff939a8a4e1515daf55adc55e687fe53c33300c25f0d067016712e33d507b6121031e4f62d17186dc17183fdefb406c5c0f60809806560144db7f7ed0b7161551c42103356b7ef0623f37e5198cc18adf7ff90514d81dd6457d375e9a7953873123a09e53ae00000000", "vin": [{"txinwitness": ["", "304402207e1b243a84fb44dbdebf9e3c9f25e3c899fbd7ff765b020a8d7bae714b37d6a9022044f2983730e0c44415d2923800efd254054572bca330f0b399c5731546595d4c01", "3044022053e097b2693a7a25fb08f85a40a6c39cc2edef908f21ac207eb96f1913723e1202202ec74ea50e22161f76061cda1f3811e4bd11e4afbf2948e88cbfa7ea5534ece001", "522102bff939a8a4e1515daf55adc55e687fe53c33300c25f0d067016712e33d507b6121031e4f62d17186dc17183fdefb406c5c0f60809806560144db7f7ed0b7161551c42103356b7ef0623f37e5198cc18adf7ff90514d81dd6457d375e9a7953873123a09e53ae"], "sequence": 4294967295, "scriptSig": {"hex": "220020b2b9fd5c82ea7dfa08f8a6884b23ce0e039c96d0552ea5717a7dd7282a458313", "asm": "0020b2b9fd5c82ea7dfa08f8a6884b23ce0e039c96d0552ea5717a7dd7282a458313"}, "vout": 0, "txid": "5c2bcb9e7f92b2238e6d405e9a9d7eaefe545a6cfcdce5dac5e403928c9dc22a"}], "txid": "30640dff54483a0fa7a562f88d7b0c0629abcc11cf4f4c57a785b130f8c60b69", "blocktime": 1537873282, "version": 1, "confirmations": 11485, "time": 1537873282, "locktime": 0, "vsize": 216, "size": 406}