{"hash": "3066517295140513f87cb60fb2ca28170527beaa1b49e6d3aad07d3a32e12ee8", "blockhash": "0000000000000000001f76057863aec43deb6fa401d9628bb513d65a8098bfab", "vout": [{"scriptPubKey": {"reqSigs": 1, "hex": "a9145ee69811cec673cb56154e3e042d2567e337b79c87", "addresses": ["3ALogXeuamwAjrLR8LdVTUVdNuKjuEBRPS"], "asm": "OP_HASH160 5ee69811cec673cb56154e3e042d2567e337b79c OP_EQUAL", "type": "scripthash"}, "value": 1.5, "n": 0}, {"scriptPubKey": {"reqSigs": 1, "hex": "76a9144e9eb898aa1bbd398946899cb0a162e931a3082288ac", "addresses": ["18Ahr6cLSs3rMJ2zxTRmGp8RXm2pA8tcug"], "asm": "OP_DUP OP_HASH160 4e9eb898aa1bbd398946899cb0a162e931a30822 OP_EQUALVERIFY OP_CHECKSIG", "type": "pubkeyhash"}, "value": 535.56033989, "n": 1}], "hex": "0100000001f648afbc7c884d20cd6c171a9d90dbd2b415d2e4c0da280be398b647e54dc2d6010000006b483045022100abde1d8ef74b3db4ce4735fc7b4c473f9659b07102cf543ceaef80b8fb735e78022065d9bd72d65dda9617290e24368026baa82927d9238fae76c3650b1313d3b25a012102501b507488d02101312ccf909b0166004e71746e0f5ce186ff211bd91890dc2fffffffff0280d1f0080000000017a9145ee69811cec673cb56154e3e042d2567e337b79c87c53930780c0000001976a9144e9eb898aa1bbd398946899cb0a162e931a3082288ac00000000", "vin": [{"sequence": 4294967295, "scriptSig": {"hex": "483045022100abde1d8ef74b3db4ce4735fc7b4c473f9659b07102cf543ceaef80b8fb735e78022065d9bd72d65dda9617290e24368026baa82927d9238fae76c3650b1313d3b25a012102501b507488d02101312ccf909b0166004e71746e0f5ce186ff211bd91890dc2f", "asm": "3045022100abde1d8ef74b3db4ce4735fc7b4c473f9659b07102cf543ceaef80b8fb735e78022065d9bd72d65dda9617290e24368026baa82927d9238fae76c3650b1313d3b25a[ALL] 02501b507488d02101312ccf909b0166004e71746e0f5ce186ff211bd91890dc2f"}, "vout": 1, "txid": "d6c24de547b698e30b28dac0e4d215b4d2db909d1a176ccd204d887cbcaf48f6"}], "txid": "3066517295140513f87cb60fb2ca28170527beaa1b49e6d3aad07d3a32e12ee8", "blocktime": 1537873891, "version": 1, "confirmations": 11478, "time": 1537873891, "locktime": 0, "vsize": 224, "size": 224}