{"hash": "ebe2eb2b514212c2698d9bd1753d0a5888677578cfbf9a82b7e937d6fd673986", "blockhash": "0000000000000000000e13cef7c366c0283d82e591d1acd082e914b08063cdf1", "vout": [{"scriptPubKey": {"reqSigs": 1, "hex": "00141860c728123d7a70387c5c30edeeb594c809ed32", "addresses": ["bc1qrpsvw2qj84a8qwrutscwmm44jnyqnmfjn30ugl"], "asm": "0 1860c728123d7a70387c5c30edeeb594c809ed32", "type": "witness_v0_keyhash"}, "value": 0.4839704, "n": 0}, {"scriptPubKey": {"reqSigs": 1, "hex": "76a9146953b1937cc5034acd5a3a01887ebfb231a1ba0688ac", "addresses": ["1AbvDHCwCiR8opS7q21o3NpjGTbnxBuFmW"], "asm": "OP_DUP OP_HASH160 6953b1937cc5034acd5a3a01887ebfb231a1ba06 OP_EQUALVERIFY OP_CHECKSIG", "type": "pubkeyhash"}, "value": 0.0078101, "n": 1}], "hex": "010000000001010ece634fced24d52067682b701dde09d9efbf8bdb8aa6f77c1cc8f6f939203040100000017160014b7ced380d8fff742555f8530851119b0e35c53bcffffffff02f07ae202000000001600141860c728123d7a70387c5c30edeeb594c809ed32d2ea0b00000000001976a9146953b1937cc5034acd5a3a01887ebfb231a1ba0688ac02483045022100946639e2b1e0d593368b7558640c17a459478840620cc1f8bad7746a0bab02b402205d80cecf389f52c55840a812ecdf4949a8f2fb3a3d4f8bf43f27678f0307f6c0012102a338ed163fa53b5c603901f605beb14dbcd6d375e4233fd4bec80bac9b8405bc00000000", "vin": [{"txinwitness": ["3045022100946639e2b1e0d593368b7558640c17a459478840620cc1f8bad7746a0bab02b402205d80cecf389f52c55840a812ecdf4949a8f2fb3a3d4f8bf43f27678f0307f6c001", "02a338ed163fa53b5c603901f605beb14dbcd6d375e4233fd4bec80bac9b8405bc"], "sequence": 4294967295, "scriptSig": {"hex": "160014b7ced380d8fff742555f8530851119b0e35c53bc", "asm": "0014b7ced380d8fff742555f8530851119b0e35c53bc"}, "vout": 1, "txid": "040392936f8fccc1776faab8bdf8fb9e9de0dd01b7827606524dd2ce4f63ce0e"}], "txid": "306923534b6209e6dbf13e485b5d60be9d4e4d937fa841a835e78eac215b6f53", "blocktime": 1537871767, "version": 1, "confirmations": 11495, "time": 1537871767, "locktime": 0, "vsize": 167, "size": 249}