{"hash": "bdb75aa5e9b02f7ed02700d2bec4fd7ab45d4da4d900cab2260ff0958e2bdd48", "blockhash": "0000000000000000000dcc0f55137456b1a82d3642486a52398922ac4d620174", "vout": [{"scriptPubKey": {"reqSigs": 1, "hex": "a91479957185b7ad0533861db661d10e9d42c49305d487", "addresses": ["3CmtiGVc7KBGtBrKuX6Dn42gtQCSd5eEWZ"], "asm": "OP_HASH160 79957185b7ad0533861db661d10e9d42c49305d4 OP_EQUAL", "type": "scripthash"}, "value": 0.01017949, "n": 0}, {"scriptPubKey": {"reqSigs": 1, "hex": "a9148321bac2202c2b1e12fe11bf27bf5f01f34f5b0587", "addresses": ["3DeNrEzKoUdDa6m3FJvp4jPBk1JrUfuUHz"], "asm": "OP_HASH160 8321bac2202c2b1e12fe11bf27bf5f01f34f5b05 OP_EQUAL", "type": "scripthash"}, "value": 0.0022786, "n": 1}], "hex": "0200000000010261024961cee0d5cb5cfeeee2b0d5829a96b35d9ecdfadc026363e72751d9ab190100000017160014ebd8efc8b983b53b2f23100be7034b101456401efefffffffa72f26b5f7147b31fd7313d86cb1a71c19bbda425d3157f317947c5f7231bd8150000001716001446c4a1ca78766e20f06e1c026b98d697c1b21100feffffff025d880f000000000017a91479957185b7ad0533861db661d10e9d42c49305d487147a03000000000017a9148321bac2202c2b1e12fe11bf27bf5f01f34f5b0587024730440220685ac62c95de57776ad73e8e4b722f9a0c749be51f92c12865277c4506d6db47022069d75eb90c995eadf84b10e284f3d0d3e7e45b9ea501dee29bfb43201cfd229201210347d23f02a2db5fa155cac2ea75e60579f16116354fad4cf47b3e03f04e6f6c2b024830450221008052f19b93c841747314779d6cdd8cde3f62278510819a614965e2ab4a8afb07022063eb5814dca2e711ea4ad9401e7e1213294631459b484b77910ac71dcf89ab7b01210378077edac36363d23daf84a8013fe2a8b535b2c821a789c625271f568d7b61e20c490800", "vin": [{"txinwitness": ["30440220685ac62c95de57776ad73e8e4b722f9a0c749be51f92c12865277c4506d6db47022069d75eb90c995eadf84b10e284f3d0d3e7e45b9ea501dee29bfb43201cfd229201", "0347d23f02a2db5fa155cac2ea75e60579f16116354fad4cf47b3e03f04e6f6c2b"], "sequence": 4294967294, "scriptSig": {"hex": "160014ebd8efc8b983b53b2f23100be7034b101456401e", "asm": "0014ebd8efc8b983b53b2f23100be7034b101456401e"}, "vout": 1, "txid": "19abd95127e7636302dcfacd9e5db3969a82d5b0e2eefe5ccbd5e0ce61490261"}, {"txinwitness": ["30450221008052f19b93c841747314779d6cdd8cde3f62278510819a614965e2ab4a8afb07022063eb5814dca2e711ea4ad9401e7e1213294631459b484b77910ac71dcf89ab7b01", "0378077edac36363d23daf84a8013fe2a8b535b2c821a789c625271f568d7b61e2"], "sequence": 4294967294, "scriptSig": {"hex": "16001446c4a1ca78766e20f06e1c026b98d697c1b21100", "asm": "001446c4a1ca78766e20f06e1c026b98d697c1b21100"}, "vout": 21, "txid": "d81b23f7c54779317f15d325a4bd9bc1711acb863d31d71fb347715f6bf272fa"}], "txid": "306f0846f862f8c6423e9653e81dc440e44b5753dff65f71e7992d9ae8b6f194", "blocktime": 1537870268, "version": 2, "confirmations": 11520, "time": 1537870268, "locktime": 542988, "vsize": 257, "size": 419}