{"hash": "308470e70e15fa64fe8bcda374cdd411bc991b0f31623ca472a91833601cdced", "blockhash": "00000000000000000004ffacab907a6b429b9a5745fa0b75af4234bf69dd7176", "vout": [{"scriptPubKey": {"reqSigs": 1, "hex": "76a914aaedd93b483dddd0b8de3cd69f1378368c7eb5eb88ac", "addresses": ["1GanoctyPVMsG9joyiWmeqN8GQXXxCDiFH"], "asm": "OP_DUP OP_HASH160 aaedd93b483dddd0b8de3cd69f1378368c7eb5eb OP_EQUALVERIFY OP_CHECKSIG", "type": "pubkeyhash"}, "value": 0.00887143, "n": 0}, {"scriptPubKey": {"reqSigs": 1, "hex": "a91448efa2266dfa99c69086ae44443982a450bc2cf787", "addresses": ["38LfeNm6TvVN8uNbnRHqv5GT6okc26LVHD"], "asm": "OP_HASH160 48efa2266dfa99c69086ae44443982a450bc2cf7 OP_EQUAL", "type": "scripthash"}, "value": 0.009, "n": 1}], "hex": "01000000015b00e229b6e65e551cc981b7d5e7b198203c455011d06b82f21ed898d3fd95ce010000006b483045022100bbb50461cdba7e2043efd930ea7316a79dd5ea8f61776dcda66f0ab69496887f022054918e62d178d344279dd2179502ed5998060354d0e6c0358eb41d77dd000e130121020d2ddddb5cb243d2fa220cbc843abcc8fc3d14c2fc647e78b062d0911c3e238affffffff0267890d00000000001976a914aaedd93b483dddd0b8de3cd69f1378368c7eb5eb88aca0bb0d000000000017a91448efa2266dfa99c69086ae44443982a450bc2cf78700000000", "vin": [{"sequence": 4294967295, "scriptSig": {"hex": "483045022100bbb50461cdba7e2043efd930ea7316a79dd5ea8f61776dcda66f0ab69496887f022054918e62d178d344279dd2179502ed5998060354d0e6c0358eb41d77dd000e130121020d2ddddb5cb243d2fa220cbc843abcc8fc3d14c2fc647e78b062d0911c3e238a", "asm": "3045022100bbb50461cdba7e2043efd930ea7316a79dd5ea8f61776dcda66f0ab69496887f022054918e62d178d344279dd2179502ed5998060354d0e6c0358eb41d77dd000e13[ALL] 020d2ddddb5cb243d2fa220cbc843abcc8fc3d14c2fc647e78b062d0911c3e238a"}, "vout": 1, "txid": "ce95fdd398d81ef2826bd01150453c2098b1e7d5b781c91c555ee6b629e2005b"}], "txid": "308470e70e15fa64fe8bcda374cdd411bc991b0f31623ca472a91833601cdced", "blocktime": 1537875543, "version": 1, "confirmations": 11464, "time": 1537875543, "locktime": 0, "vsize": 224, "size": 224}