{"hash": "3086b12a3333c6adb2c3520d7dd2ca0bdc05d7b6b04a1719c83834002a1126f1", "blockhash": "0000000000000000001cda96e906b7601b7a6fb1a3b62bca570a9e5d8f4b3de1", "vout": [{"scriptPubKey": {"reqSigs": 1, "hex": "a914e66aea8452a3f6774f9000b4814c6de4ec359d0387", "addresses": ["3NhMRKmJjchaytAHkBkd97ChnoSJMMWbpY"], "asm": "OP_HASH160 e66aea8452a3f6774f9000b4814c6de4ec359d03 OP_EQUAL", "type": "scripthash"}, "value": 0.39998848, "n": 0}], "hex": "010000000198621e7afc54be2f5d66612013e78221eb4378a6ab26a8b889bf18488f1d207f010000006b483045022100b2c527cb915203adfb6b508f90ab72b971208df67192e7ed960550db4b89aa4402201ea43fa374448f278a7e43dfa992dfa5f694bfbc0646d3ed88636d7d113705ac01210317dcecc01b922eef08af7a118157cd6d1f476172a0a264fcb55d096e978d2613ffffffff01805562020000000017a914e66aea8452a3f6774f9000b4814c6de4ec359d038700000000", "vin": [{"sequence": 4294967295, "scriptSig": {"hex": "483045022100b2c527cb915203adfb6b508f90ab72b971208df67192e7ed960550db4b89aa4402201ea43fa374448f278a7e43dfa992dfa5f694bfbc0646d3ed88636d7d113705ac01210317dcecc01b922eef08af7a118157cd6d1f476172a0a264fcb55d096e978d2613", "asm": "3045022100b2c527cb915203adfb6b508f90ab72b971208df67192e7ed960550db4b89aa4402201ea43fa374448f278a7e43dfa992dfa5f694bfbc0646d3ed88636d7d113705ac[ALL] 0317dcecc01b922eef08af7a118157cd6d1f476172a0a264fcb55d096e978d2613"}, "vout": 1, "txid": "7f201d8f4818bf89b8a826aba67843eb2182e7132061665d2fbe54fc7a1e6298"}], "txid": "3086b12a3333c6adb2c3520d7dd2ca0bdc05d7b6b04a1719c83834002a1126f1", "blocktime": 1537873282, "version": 1, "confirmations": 11483, "time": 1537873282, "locktime": 0, "vsize": 190, "size": 190}