{"hash": "309766dbdb8ef3cd67809c2de4336fca84efddba9178b94c225aa9dda367ece3", "blockhash": "000000000000000000022b45ed06c6f4ccd3cf7fb5ba4856ebd2e58215665228", "vout": [{"scriptPubKey": {"reqSigs": 1, "hex": "76a914f0cc92e687bc5befcb7f529f1410146428bdf1fb88ac", "addresses": ["1NxEF5Y5ssAxBV89CHqGFAjs6oAcuTxwoJ"], "asm": "OP_DUP OP_HASH160 f0cc92e687bc5befcb7f529f1410146428bdf1fb OP_EQUALVERIFY OP_CHECKSIG", "type": "pubkeyhash"}, "value": 0.00069241, "n": 0}, {"scriptPubKey": {"reqSigs": 1, "hex": "a9141d711297cd11f10aab4f4f664bb6a4e03e98275287", "addresses": ["34NgyXjvVvdVa3Ct7F1VQwBzqD9z1xha6i"], "asm": "OP_HASH160 1d711297cd11f10aab4f4f664bb6a4e03e982752 OP_EQUAL", "type": "scripthash"}, "value": 0.00109015, "n": 1}], "hex": "0100000001d4df5575c118434acc5f9318cc03617ba6e756d14ae250e480ec0601ff91ddd0000000006b483045022100aa8fe45766baa6b4184cf8e27be9c884b18f5bd0a64257c08f268d95cf581cba022052a66d7a160e985a6fcfa92d8c397be3e642eec7dca550908925ae57e35c14a501210205c7877d008f0db69dfbc879c0be620ca7c83fce5f867e39014eeb3990d3a13bffffffff02790e0100000000001976a914f0cc92e687bc5befcb7f529f1410146428bdf1fb88acd7a901000000000017a9141d711297cd11f10aab4f4f664bb6a4e03e9827528700000000", "vin": [{"sequence": 4294967295, "scriptSig": {"hex": "483045022100aa8fe45766baa6b4184cf8e27be9c884b18f5bd0a64257c08f268d95cf581cba022052a66d7a160e985a6fcfa92d8c397be3e642eec7dca550908925ae57e35c14a501210205c7877d008f0db69dfbc879c0be620ca7c83fce5f867e39014eeb3990d3a13b", "asm": "3045022100aa8fe45766baa6b4184cf8e27be9c884b18f5bd0a64257c08f268d95cf581cba022052a66d7a160e985a6fcfa92d8c397be3e642eec7dca550908925ae57e35c14a5[ALL] 0205c7877d008f0db69dfbc879c0be620ca7c83fce5f867e39014eeb3990d3a13b"}, "vout": 0, "txid": "d0dd91ff0106ec80e450e24ad156e7a67b6103cc18935fcc4a4318c17555dfd4"}], "txid": "309766dbdb8ef3cd67809c2de4336fca84efddba9178b94c225aa9dda367ece3", "blocktime": 1537869901, "version": 1, "confirmations": 11524, "time": 1537869901, "locktime": 0, "vsize": 224, "size": 224}