{"hash": "309a2993ee1de847c80d52097f80eb1562f8206d736f434132e9c9715e7479bc", "blockhash": "00000000000000000018f53835495a110e01622372bf6ae95dc86f2b0ab887b0", "vout": [{"scriptPubKey": {"reqSigs": 1, "hex": "a914f312386b44541f144ee5660ee84110164ff1a09287", "addresses": ["3PrFx8gNwQPDRtMBBAE3z1gtjwcGspd7Ma"], "asm": "OP_HASH160 f312386b44541f144ee5660ee84110164ff1a092 OP_EQUAL", "type": "scripthash"}, "value": 0.00214061, "n": 0}, {"scriptPubKey": {"reqSigs": 1, "hex": "76a914eebea2daec96119db7754a8749633524767867da88ac", "addresses": ["1NmNCHh32dDV69X9cKDkEKtZxAvLLeCgUb"], "asm": "OP_DUP OP_HASH160 eebea2daec96119db7754a8749633524767867da OP_EQUALVERIFY OP_CHECKSIG", "type": "pubkeyhash"}, "value": 0.10987467, "n": 1}], "hex": "0100000001b063e69225b7ee6f99d94385c2c0cc5a14d4a4d2b21be1c6bcb0442b46f4866d010000006b483045022100dfb10c81d9aa4b452e0ab06dba7c75292c2275e594764d7df73c00717e4bc674022004fd2bfca56bb1d197b51376b3c1a4667598a35985aaf5ed87430b6d3b210e350121022bc04acb71eb9842178650fcc8739cff21750e5fc0028b40249f715b96233c0dffffffff022d4403000000000017a914f312386b44541f144ee5660ee84110164ff1a09287cba7a700000000001976a914eebea2daec96119db7754a8749633524767867da88ac00000000", "vin": [{"sequence": 4294967295, "scriptSig": {"hex": "483045022100dfb10c81d9aa4b452e0ab06dba7c75292c2275e594764d7df73c00717e4bc674022004fd2bfca56bb1d197b51376b3c1a4667598a35985aaf5ed87430b6d3b210e350121022bc04acb71eb9842178650fcc8739cff21750e5fc0028b40249f715b96233c0d", "asm": "3045022100dfb10c81d9aa4b452e0ab06dba7c75292c2275e594764d7df73c00717e4bc674022004fd2bfca56bb1d197b51376b3c1a4667598a35985aaf5ed87430b6d3b210e35[ALL] 022bc04acb71eb9842178650fcc8739cff21750e5fc0028b40249f715b96233c0d"}, "vout": 1, "txid": "6d86f4462b44b0bcc6e11bb2d2a4d4145accc0c28543d9996feeb72592e663b0"}], "txid": "309a2993ee1de847c80d52097f80eb1562f8206d736f434132e9c9715e7479bc", "blocktime": 1537870928, "version": 1, "confirmations": 11512, "time": 1537870928, "locktime": 0, "vsize": 224, "size": 224}