{"hash": "f42089eebab79e71f80f9ddcd2e2b601fc521d383874a94e32151216ca19e5b3", "blockhash": "00000000000000000018f53835495a110e01622372bf6ae95dc86f2b0ab887b0", "vout": [{"scriptPubKey": {"reqSigs": 1, "hex": "76a9148c7ab20d9dda380d2e95fa0cab3e8de1e9c77a0688ac", "addresses": ["1DonateWffyhwAjskoEwXt83pHZxhLTr8H"], "asm": "OP_DUP OP_HASH160 8c7ab20d9dda380d2e95fa0cab3e8de1e9c77a06 OP_EQUALVERIFY OP_CHECKSIG", "type": "pubkeyhash"}, "value": 7.83e-06, "n": 0}], "hex": "0200000000010127802ee68e917a8d946e3ad105e9966e9dd7baf79b9e3034e684fd9f703250830000000017160014543dbc0d795c5edcdab4b206462f524a7260fdebffffffff010f030000000000001976a9148c7ab20d9dda380d2e95fa0cab3e8de1e9c77a0688ac02473044022061723411997c694210597c70d488e71c92a35552b9fd2e14a0bb1b58386c10b8022035313a8ece087580643039c2abc3d35000037e75407e598ad3688cc8c5853dee0121032ff5e89421b3f20d7861f10a2e7a4e5c942bafea3aaafcaec7966bee0e2b8b8b00000000", "vin": [{"txinwitness": ["3044022061723411997c694210597c70d488e71c92a35552b9fd2e14a0bb1b58386c10b8022035313a8ece087580643039c2abc3d35000037e75407e598ad3688cc8c5853dee01", "032ff5e89421b3f20d7861f10a2e7a4e5c942bafea3aaafcaec7966bee0e2b8b8b"], "sequence": 4294967295, "scriptSig": {"hex": "160014543dbc0d795c5edcdab4b206462f524a7260fdeb", "asm": "0014543dbc0d795c5edcdab4b206462f524a7260fdeb"}, "vout": 0, "txid": "835032709ffd84e634309e9bf7bad79d6e96e905d13a6e948d7a918ee62e8027"}], "txid": "309cb84340ab5dd8d23dfab2bbbe1a4d4be6a73bc730e63981d27e48220a53aa", "blocktime": 1537870928, "version": 2, "confirmations": 11514, "time": 1537870928, "locktime": 0, "vsize": 136, "size": 217}