{"hash": "30a126534420f622678c842d97250c726304cf46be71c5c17f3d59de88d16344", "blockhash": "000000000000000000022b45ed06c6f4ccd3cf7fb5ba4856ebd2e58215665228", "vout": [{"scriptPubKey": {"reqSigs": 1, "hex": "76a914d94843c34d4e4fcc5637e2ed39a5bf846eb3ee2f88ac", "addresses": ["1LotCff78hSCuLL7RACJx2Cx2XrqxWPuBQ"], "asm": "OP_DUP OP_HASH160 d94843c34d4e4fcc5637e2ed39a5bf846eb3ee2f OP_EQUALVERIFY OP_CHECKSIG", "type": "pubkeyhash"}, "value": 0.04890525, "n": 0}, {"scriptPubKey": {"reqSigs": 1, "hex": "76a9143b63720c7bbea36e456334332a32ba566c17b38588ac", "addresses": ["16R1zuwEtYV2ryPDjvdtAwPGubZxyXTGSY"], "asm": "OP_DUP OP_HASH160 3b63720c7bbea36e456334332a32ba566c17b385 OP_EQUALVERIFY OP_CHECKSIG", "type": "pubkeyhash"}, "value": 16.50827169, "n": 1}], "hex": "02000000010c8c4177e5d3b3cff2c14f9c383e13ff6f19958e415a586b987e3a5afd42b336010000006a473044022066815162e78f13409f5a9a2484f80a45c6c200e1eb51e9c7ff116fd058ab343d022071c5c4916a6b5a720879902d599ae4f87d8c8b812c89b59db63456da4a1a66ca0121024d38ed23c284aee02aaafd53af1a2e9e5ee48912a1011d07e94e1000125be5fcffffffff029d9f4a00000000001976a914d94843c34d4e4fcc5637e2ed39a5bf846eb3ee2f88aca19f6562000000001976a9143b63720c7bbea36e456334332a32ba566c17b38588ac00000000", "vin": [{"sequence": 4294967295, "scriptSig": {"hex": "473044022066815162e78f13409f5a9a2484f80a45c6c200e1eb51e9c7ff116fd058ab343d022071c5c4916a6b5a720879902d599ae4f87d8c8b812c89b59db63456da4a1a66ca0121024d38ed23c284aee02aaafd53af1a2e9e5ee48912a1011d07e94e1000125be5fc", "asm": "3044022066815162e78f13409f5a9a2484f80a45c6c200e1eb51e9c7ff116fd058ab343d022071c5c4916a6b5a720879902d599ae4f87d8c8b812c89b59db63456da4a1a66ca[ALL] 024d38ed23c284aee02aaafd53af1a2e9e5ee48912a1011d07e94e1000125be5fc"}, "vout": 1, "txid": "36b342fd5a3a7e986b585a418e95196fff133e389c4fc1f2cfb3d3e577418c0c"}], "txid": "30a126534420f622678c842d97250c726304cf46be71c5c17f3d59de88d16344", "blocktime": 1537869901, "version": 2, "confirmations": 11524, "time": 1537869901, "locktime": 0, "vsize": 225, "size": 225}