{"hash": "30a3ef32b15fa8ed1de2b9f61eb22b0444c6dd44a8388b723d516bfe63498163", "blockhash": "0000000000000000001e0dab787dd257d1dbfcb92a98c2207d5e1078be1f4165", "vout": [{"scriptPubKey": {"reqSigs": 1, "hex": "a914c75c1713fbd2ebaac16ab297a36d7ab491e55c4187", "addresses": ["3Ks8iFfjmTXrURjbh7V6S1EEQHpT66tgSq"], "asm": "OP_HASH160 c75c1713fbd2ebaac16ab297a36d7ab491e55c41 OP_EQUAL", "type": "scripthash"}, "value": 0.009908, "n": 0}, {"scriptPubKey": {"reqSigs": 1, "hex": "76a91492ef1be377022d9fd98413c56bab7d6c905c763988ac", "addresses": ["1EPv6b5kcqMpEEfDBFhcmVn4gDfmaN9qvW"], "asm": "OP_DUP OP_HASH160 92ef1be377022d9fd98413c56bab7d6c905c7639 OP_EQUALVERIFY OP_CHECKSIG", "type": "pubkeyhash"}, "value": 0.0207, "n": 1}], "hex": "0200000001000461fa17f06cf23e686cc2cde77f069d5db021573f8cb02a1201d1d3c4e3e3000000006a473044022026c4185ccd659317917f625a4cf3b2f8dca9322a066209bf4bcaf1b112c8cb18022013d3f11ae4adc56e4406e9c90a71a2fe19792557ff2ec60e1e5a921bf308479c01210217342a33997a88e015150323cf1b734cfbe07a7601358db5529ec01c77699522feffffff02501e0f000000000017a914c75c1713fbd2ebaac16ab297a36d7ab491e55c4187f0951f00000000001976a91492ef1be377022d9fd98413c56bab7d6c905c763988ac12490800", "vin": [{"sequence": 4294967294, "scriptSig": {"hex": "473044022026c4185ccd659317917f625a4cf3b2f8dca9322a066209bf4bcaf1b112c8cb18022013d3f11ae4adc56e4406e9c90a71a2fe19792557ff2ec60e1e5a921bf308479c01210217342a33997a88e015150323cf1b734cfbe07a7601358db5529ec01c77699522", "asm": "3044022026c4185ccd659317917f625a4cf3b2f8dca9322a066209bf4bcaf1b112c8cb18022013d3f11ae4adc56e4406e9c90a71a2fe19792557ff2ec60e1e5a921bf308479c[ALL] 0217342a33997a88e015150323cf1b734cfbe07a7601358db5529ec01c77699522"}, "vout": 0, "txid": "e3e3c4d3d101122ab08c3f5721b05d9d067fe7cdc26c683ef26cf017fa610400"}], "txid": "30a3ef32b15fa8ed1de2b9f61eb22b0444c6dd44a8388b723d516bfe63498163", "blocktime": 1537872475, "version": 2, "confirmations": 11486, "time": 1537872475, "locktime": 542994, "vsize": 223, "size": 223}