{"hash": "30a4834089a7a7266edd16e9c3cc9fccef7c3583aefa03f8d2defa2ff5e9b123", "blockhash": "0000000000000000000baef3f32e3676a92c3b2e5da21b426e4f302fc371ce76", "vout": [{"scriptPubKey": {"reqSigs": 1, "hex": "76a914dbb39e29d55ed4eda7cdf773ad9e2a6fc2d5871388ac", "addresses": ["1M2gA5RJicCHTy67fvGGNexLMWTBwKyXzd"], "asm": "OP_DUP OP_HASH160 dbb39e29d55ed4eda7cdf773ad9e2a6fc2d58713 OP_EQUALVERIFY OP_CHECKSIG", "type": "pubkeyhash"}, "value": 0.00627029, "n": 0}, {"scriptPubKey": {"type": "nulldata", "hex": "6a4c500000783000010166cb4da3c53a17d0d06ce027b7256b4774d339f6019d6ddc0f1b8ff1172ded1b922fe774e5476d7618ccf947095baa1f730613e5d27e617af01d100759d4ba30d2c37bb011d97e02cf", "asm": "OP_RETURN 0000783000010166cb4da3c53a17d0d06ce027b7256b4774d339f6019d6ddc0f1b8ff1172ded1b922fe774e5476d7618ccf947095baa1f730613e5d27e617af01d100759d4ba30d2c37bb011d97e02cf"}, "value": 0.0, "n": 1}], "hex": "0100000001a898f294994f1ab0c713097779af8f67027a02517e1749c0c5f7866448406949010000006a47304402203d76860c03eb4b5c8c505e424cf26de6843e29fb98685d60d4d07e7ab4a15fea02200f3ec7184b5251a1bbad1130e31b8cdacbff7b2a40196342477ee96c8ddee2470121039a6a60175acad6c900d5513a41bd0d437e75b0ae3c62c1b77cf858ee825ff3ecffffffff0255910900000000001976a914dbb39e29d55ed4eda7cdf773ad9e2a6fc2d5871388ac0000000000000000536a4c500000783000010166cb4da3c53a17d0d06ce027b7256b4774d339f6019d6ddc0f1b8ff1172ded1b922fe774e5476d7618ccf947095baa1f730613e5d27e617af01d100759d4ba30d2c37bb011d97e02cf00000000", "vin": [{"sequence": 4294967295, "scriptSig": {"hex": "47304402203d76860c03eb4b5c8c505e424cf26de6843e29fb98685d60d4d07e7ab4a15fea02200f3ec7184b5251a1bbad1130e31b8cdacbff7b2a40196342477ee96c8ddee2470121039a6a60175acad6c900d5513a41bd0d437e75b0ae3c62c1b77cf858ee825ff3ec", "asm": "304402203d76860c03eb4b5c8c505e424cf26de6843e29fb98685d60d4d07e7ab4a15fea02200f3ec7184b5251a1bbad1130e31b8cdacbff7b2a40196342477ee96c8ddee247[ALL] 039a6a60175acad6c900d5513a41bd0d437e75b0ae3c62c1b77cf858ee825ff3ec"}, "vout": 1, "txid": "496940486486f7c5c049177e51027a02678faf79770913c7b01a4f9994f298a8"}], "txid": "30a4834089a7a7266edd16e9c3cc9fccef7c3583aefa03f8d2defa2ff5e9b123", "blocktime": 1537876114, "version": 1, "confirmations": 11463, "time": 1537876114, "locktime": 0, "vsize": 283, "size": 283}