{"hash": "30ad77643e4efd765bf9d183403990757e86a8d6bf9c1438b276bfca6b409af5", "blockhash": "00000000000000000017f5eb5941039fbcee6240d03bc1f2f8e35350df66a1d8", "vout": [{"scriptPubKey": {"reqSigs": 1, "hex": "76a914fade49cfe70cc7a51ed98a1fb3872d9fc8667d0188ac", "addresses": ["1PsUDpeLCow9QzP7vSFzjj5NoJRMEDARon"], "asm": "OP_DUP OP_HASH160 fade49cfe70cc7a51ed98a1fb3872d9fc8667d01 OP_EQUALVERIFY OP_CHECKSIG", "type": "pubkeyhash"}, "value": 0.00924521, "n": 0}, {"scriptPubKey": {"reqSigs": 1, "hex": "76a9144dba1c7ae99f945ae65aef350f06a4b367cf58b088ac", "addresses": ["185yz1ReXCFmWrU4YK3aCWYXM6oaSz4mtm"], "asm": "OP_DUP OP_HASH160 4dba1c7ae99f945ae65aef350f06a4b367cf58b0 OP_EQUALVERIFY OP_CHECKSIG", "type": "pubkeyhash"}, "value": 0.009252, "n": 1}], "hex": "01000000018cad43f6d6cee5f251afb5141fea5abc80ee732c88853151e46892a74faa37fb1f0000006b483045022100aae234156a165db1f23246854ffbb01d694c151cd7acf04caeef3fb355af0d9102206b624eb27675982d2039d7e1e340ef617c19d32b9ccd049c1f9e57a36a34dcbb0121030ddc0db93508cb973ea8ff3a8773b9482d193758189bd21614fc4d3f00d85f3cffffffff02691b0e00000000001976a914fade49cfe70cc7a51ed98a1fb3872d9fc8667d0188ac101e0e00000000001976a9144dba1c7ae99f945ae65aef350f06a4b367cf58b088ac00000000", "vin": [{"sequence": 4294967295, "scriptSig": {"hex": "483045022100aae234156a165db1f23246854ffbb01d694c151cd7acf04caeef3fb355af0d9102206b624eb27675982d2039d7e1e340ef617c19d32b9ccd049c1f9e57a36a34dcbb0121030ddc0db93508cb973ea8ff3a8773b9482d193758189bd21614fc4d3f00d85f3c", "asm": "3045022100aae234156a165db1f23246854ffbb01d694c151cd7acf04caeef3fb355af0d9102206b624eb27675982d2039d7e1e340ef617c19d32b9ccd049c1f9e57a36a34dcbb[ALL] 030ddc0db93508cb973ea8ff3a8773b9482d193758189bd21614fc4d3f00d85f3c"}, "vout": 31, "txid": "fb37aa4fa79268e4513185882c73ee80bc5aea1f14b5af51f2e5ced6f643ad8c"}], "txid": "30ad77643e4efd765bf9d183403990757e86a8d6bf9c1438b276bfca6b409af5", "blocktime": 1537874412, "version": 1, "confirmations": 11468, "time": 1537874412, "locktime": 0, "vsize": 226, "size": 226}