{"hash": "30b453217837e82fa52e898c6e6d655fb4617082f0ba7ba3009ad41369d1c8c3", "blockhash": "0000000000000000000baef3f32e3676a92c3b2e5da21b426e4f302fc371ce76", "vout": [{"scriptPubKey": {"reqSigs": 1, "hex": "76a914664c01f76c08b89154a27b67ed072f933aef38ff88ac", "addresses": ["1AKtyg2zNTb2ZyCiL9zkoNvy9qpdZWZwVK"], "asm": "OP_DUP OP_HASH160 664c01f76c08b89154a27b67ed072f933aef38ff OP_EQUALVERIFY OP_CHECKSIG", "type": "pubkeyhash"}, "value": 0.9726903, "n": 0}, {"scriptPubKey": {"reqSigs": 1, "hex": "76a91487fc833cd30c9a77739b59a125b1d9072834af3988ac", "addresses": ["1DQ2inSLLJQb5B3QXnmHkMXyLp16my8SJG"], "asm": "OP_DUP OP_HASH160 87fc833cd30c9a77739b59a125b1d9072834af39 OP_EQUALVERIFY OP_CHECKSIG", "type": "pubkeyhash"}, "value": 0.00448101, "n": 1}], "hex": "0200000001126c50dbc982c5820843644d553f35cdc6454c66cab9b5cbcbc49575d8d4486c000000006a47304402205f0806cdf4eb041e4d8ac58dbfdf1360dc377c2b2b3b76aa025b0a1ab459621102207a03163e76564ca26a788232d1652be60cd6325ef4787782dcb40c22ac7bdd5f0121026dc07d688441d45609e7e3f2fd516a4b55523856568a8c12cb1095e0e6f023a9ffffffff022635cc05000000001976a914664c01f76c08b89154a27b67ed072f933aef38ff88ac65d60600000000001976a91487fc833cd30c9a77739b59a125b1d9072834af3988ac00000000", "vin": [{"sequence": 4294967295, "scriptSig": {"hex": "47304402205f0806cdf4eb041e4d8ac58dbfdf1360dc377c2b2b3b76aa025b0a1ab459621102207a03163e76564ca26a788232d1652be60cd6325ef4787782dcb40c22ac7bdd5f0121026dc07d688441d45609e7e3f2fd516a4b55523856568a8c12cb1095e0e6f023a9", "asm": "304402205f0806cdf4eb041e4d8ac58dbfdf1360dc377c2b2b3b76aa025b0a1ab459621102207a03163e76564ca26a788232d1652be60cd6325ef4787782dcb40c22ac7bdd5f[ALL] 026dc07d688441d45609e7e3f2fd516a4b55523856568a8c12cb1095e0e6f023a9"}, "vout": 0, "txid": "6c48d4d87595c4cbcbb5b9ca664c45c6cd353f554d64430882c582c9db506c12"}], "txid": "30b453217837e82fa52e898c6e6d655fb4617082f0ba7ba3009ad41369d1c8c3", "blocktime": 1537876114, "version": 2, "confirmations": 11460, "time": 1537876114, "locktime": 0, "vsize": 225, "size": 225}