{"hash": "30b8efbe6f6c2695e56c0476868705219acb04090e1b533e66c37aabf561c8bb", "blockhash": "00000000000000000024a2167bbff67b0be802c0b01cdd79e6331c2be6459f87", "vout": [{"scriptPubKey": {"reqSigs": 1, "hex": "76a91476b192f74513aba46d0491f44e472551eab750ce88ac", "addresses": ["1BpbThayJfk4bTuhAaBMcubKWi7VvT1aYr"], "asm": "OP_DUP OP_HASH160 76b192f74513aba46d0491f44e472551eab750ce OP_EQUALVERIFY OP_CHECKSIG", "type": "pubkeyhash"}, "value": 0.00288299, "n": 0}, {"scriptPubKey": {"reqSigs": 1, "hex": "a914720d0b6a7c4a7a69bb63215fa51465cd9dc52ac287", "addresses": ["3C64amRLuMYEeVoQf1iQp6gxdVPaBUtSG8"], "asm": "OP_HASH160 720d0b6a7c4a7a69bb63215fa51465cd9dc52ac2 OP_EQUAL", "type": "scripthash"}, "value": 0.01, "n": 1}], "hex": "0100000001ad04b9162ec78199cf18ca04027993d1494d0cb3cea8325cde9960c9bbd596a9010000006a47304402201d0e03a94663bba9c9a13ed7677172fde50ba13d345d538c759d2af42a7dc516022057c81f0afa3b8ef3ef947523ba643f229104ba111755ce7dc2900e4493e13a510121030534da9d5c72f9d347925d4dcb36c808bf15717ec1583619f0ac75099c96e465ffffffff022b660400000000001976a91476b192f74513aba46d0491f44e472551eab750ce88ac40420f000000000017a914720d0b6a7c4a7a69bb63215fa51465cd9dc52ac28700000000", "vin": [{"sequence": 4294967295, "scriptSig": {"hex": "47304402201d0e03a94663bba9c9a13ed7677172fde50ba13d345d538c759d2af42a7dc516022057c81f0afa3b8ef3ef947523ba643f229104ba111755ce7dc2900e4493e13a510121030534da9d5c72f9d347925d4dcb36c808bf15717ec1583619f0ac75099c96e465", "asm": "304402201d0e03a94663bba9c9a13ed7677172fde50ba13d345d538c759d2af42a7dc516022057c81f0afa3b8ef3ef947523ba643f229104ba111755ce7dc2900e4493e13a51[ALL] 030534da9d5c72f9d347925d4dcb36c808bf15717ec1583619f0ac75099c96e465"}, "vout": 1, "txid": "a996d5bbc96099de5c32a8ceb30c4d49d193790204ca18cf9981c72e16b904ad"}], "txid": "30b8efbe6f6c2695e56c0476868705219acb04090e1b533e66c37aabf561c8bb", "blocktime": 1537870564, "version": 1, "confirmations": 11515, "time": 1537870564, "locktime": 0, "vsize": 223, "size": 223}