{"hash": "30b96da6976c803c61ccb634789807edfc058320f33dc3b81c7047a63db6250a", "blockhash": "0000000000000000000dcc0f55137456b1a82d3642486a52398922ac4d620174", "vout": [{"scriptPubKey": {"reqSigs": 1, "hex": "76a91406f3edc886dde0cdc8a3a97cdf0225ab818935f088ac", "addresses": ["1dmGdC5z76LbeQqXFX8WxMFiBNsktXDZY"], "asm": "OP_DUP OP_HASH160 06f3edc886dde0cdc8a3a97cdf0225ab818935f0 OP_EQUALVERIFY OP_CHECKSIG", "type": "pubkeyhash"}, "value": 0.02900596, "n": 0}], "hex": "0100000009c1f4233d215867521dc6e30442fa9c5bb73ad7e55e6c65fee974a0c1d22d7a0a000000006b483045022100811fc5bf5fee147dcf5ad86292e31a676cd6ed16b48f94b1ea13f2861ebf75db0220134aa71ed8550681037c38fcb992e14f4ce51ed2bccbe7b87d455d76350a3b61012102e126c62a07ec0c4c950c6bc06574a346a1e08e9a593ddb0a7a9d360e6ea860cdffffffff10975c04e0925b848c5dbcc00c362b83a8d6534bfbe5bc805d026ed34ff67040000000006a47304402205ba0f351decebd97d5e38359394e4b0da08b807cbf46594a8dbe3a17df943a7f022037c7e1a5fc861d2f7638fd91898199c13dab3975e816a3f9f0dbe0aceb2fec0301210207c5d39d3f76f764dcfb026889b2584aab04193950792167937be848b5484e20ffffffff2453c6ab6dc7edd2ffe05480bdb66dd07d977446e8260b0431c8f3c79521d051000000006b483045022100f65222b53ec03e72fac05a7715d57762ae90ff921fa3d96b5137da159c9512830220781656d5bbe79fa6262925bf8162228266a321b21c46b8f57484cb21eca4c0b30121028bdc13999408999c820298fdb2e5674be11fa39bfd89416a77e0d9fc1daf2f8bffffffff77ee678176c2a3d426889ad630481649ea06e97df33135e5a5f57bd48d83947e000000006b483045022100d4c0565dfa8eb799bbcee496e8b7fa8a4e5de9a212ea384d053a3bbd6d83b34d022077af92e5bbae52c11272c86c8c9e8d98c1f7fe2e2571a76f597f7aa3a342943701210264153f1d2d6c9417137f9f96a66fdec9acfe823fa9ffdcd28087dd5ffe1c9969ffffffffb55c9bf8fd9e9dd4273fa98d65381f67d77a7a5935719e693f1e0c0fdb16658d000000006b483045022100f96803f860aa80114efdc2abb51b9fc50a14adf1be24a3488de62e91dbe81ccd02202d58d97568e02970de5753f52e96045eda2f94a034c1faccfeae9bed1383ca8501210359cea2644ad5b893d6c0d9ef142029504d1210fc8ce208f8f673b9a47f52a51dffffffff1e98faf7b2c6ef70b91e48e5ea7aae20c534c2eb59e546b4cc1f5c0d208a97ac000000006b483045022100ae5be5a820af99e72746da398a6dad86c04d4a1333c633d432e67425f1a5637102200ac24117f3a2b6e6984ca6c5c66ef2cdf3779ffede1426df57e03fe60e3215dc01210366e5bfcbf1e0a9172e5a9eb93298ce8d2c3d72e053eb0259a81e5c59688e177cffffffff0cb09b64a9805f8430b2234bc87d71dae00c80418585e4a0a1c3fb5b2cd3f8b2000000006a4730440220468bec8440853df21eb401ed0a585498420f79ae496f8a797135c7288286f4d102203d4028734fe85f03fc7922f7dd0fc559e6712b5f0c3b8be0172417eb9cedbafc012102eb7855d06a2129f759c78c64b69f44ef48beaeb3893eaeaaa505851c4ce6f083ffffffff7159357d02e2da20e8e4b209a6db0c1b79ef80d69f5ceb21f75925aa322b03f1000000006b483045022100be158c4ec94d652ebfc1d739c163e9295e43ab04c7387680c388bb3341aac4f002201dbc9ea22267ba5db8a93c6e460fee1257e385897aa27692f5154e873ce5d782012103251677646033ed5b8aaf5bbeeb8156181953de03a11ae72b95a07eafc06be136ffffffffb2e68dc9a0b19c3bc953a693a8ffe1e5da530821a0d3c4b74c1cb325581d5cfb000000006b483045022100949aa9fabdff4d7cc0e457a996596056c790a15d7750ab76e5652cb328782557022014b52e51923cc23a417f075e7b1014342696b82867d5f345f9b7125ae3a7f9c10121034339bfccc9b38ccf486f5a8b83ea0c2bd2c8ee27db65ea1c62d8b71c35d2ae0affffffff0174422c00000000001976a91406f3edc886dde0cdc8a3a97cdf0225ab818935f088ac00000000", "vin": [{"sequence": 4294967295, "scriptSig": {"hex": "483045022100811fc5bf5fee147dcf5ad86292e31a676cd6ed16b48f94b1ea13f2861ebf75db0220134aa71ed8550681037c38fcb992e14f4ce51ed2bccbe7b87d455d76350a3b61012102e126c62a07ec0c4c950c6bc06574a346a1e08e9a593ddb0a7a9d360e6ea860cd", "asm": "3045022100811fc5bf5fee147dcf5ad86292e31a676cd6ed16b48f94b1ea13f2861ebf75db0220134aa71ed8550681037c38fcb992e14f4ce51ed2bccbe7b87d455d76350a3b61[ALL] 02e126c62a07ec0c4c950c6bc06574a346a1e08e9a593ddb0a7a9d360e6ea860cd"}, "vout": 0, "txid": "0a7a2dd2c1a074e9fe656c5ee5d73ab75b9cfa4204e3c61d526758213d23f4c1"}, {"sequence": 4294967295, "scriptSig": {"hex": "47304402205ba0f351decebd97d5e38359394e4b0da08b807cbf46594a8dbe3a17df943a7f022037c7e1a5fc861d2f7638fd91898199c13dab3975e816a3f9f0dbe0aceb2fec0301210207c5d39d3f76f764dcfb026889b2584aab04193950792167937be848b5484e20", "asm": "304402205ba0f351decebd97d5e38359394e4b0da08b807cbf46594a8dbe3a17df943a7f022037c7e1a5fc861d2f7638fd91898199c13dab3975e816a3f9f0dbe0aceb2fec03[ALL] 0207c5d39d3f76f764dcfb026889b2584aab04193950792167937be848b5484e20"}, "vout": 0, "txid": "4070f64fd36e025d80bce5fb4b53d6a8832b360cc0bc5d8c845b92e0045c9710"}, {"sequence": 4294967295, "scriptSig": {"hex": "483045022100f65222b53ec03e72fac05a7715d57762ae90ff921fa3d96b5137da159c9512830220781656d5bbe79fa6262925bf8162228266a321b21c46b8f57484cb21eca4c0b30121028bdc13999408999c820298fdb2e5674be11fa39bfd89416a77e0d9fc1daf2f8b", "asm": "3045022100f65222b53ec03e72fac05a7715d57762ae90ff921fa3d96b5137da159c9512830220781656d5bbe79fa6262925bf8162228266a321b21c46b8f57484cb21eca4c0b3[ALL] 028bdc13999408999c820298fdb2e5674be11fa39bfd89416a77e0d9fc1daf2f8b"}, "vout": 0, "txid": "51d02195c7f3c831040b26e84674977dd06db6bd8054e0ffd2edc76dabc65324"}, {"sequence": 4294967295, "scriptSig": {"hex": "483045022100d4c0565dfa8eb799bbcee496e8b7fa8a4e5de9a212ea384d053a3bbd6d83b34d022077af92e5bbae52c11272c86c8c9e8d98c1f7fe2e2571a76f597f7aa3a342943701210264153f1d2d6c9417137f9f96a66fdec9acfe823fa9ffdcd28087dd5ffe1c9969", "asm": "3045022100d4c0565dfa8eb799bbcee496e8b7fa8a4e5de9a212ea384d053a3bbd6d83b34d022077af92e5bbae52c11272c86c8c9e8d98c1f7fe2e2571a76f597f7aa3a3429437[ALL] 0264153f1d2d6c9417137f9f96a66fdec9acfe823fa9ffdcd28087dd5ffe1c9969"}, "vout": 0, "txid": "7e94838dd47bf5a5e53531f37de906ea49164830d69a8826d4a3c2768167ee77"}, {"sequence": 4294967295, "scriptSig": {"hex": "483045022100f96803f860aa80114efdc2abb51b9fc50a14adf1be24a3488de62e91dbe81ccd02202d58d97568e02970de5753f52e96045eda2f94a034c1faccfeae9bed1383ca8501210359cea2644ad5b893d6c0d9ef142029504d1210fc8ce208f8f673b9a47f52a51d", "asm": "3045022100f96803f860aa80114efdc2abb51b9fc50a14adf1be24a3488de62e91dbe81ccd02202d58d97568e02970de5753f52e96045eda2f94a034c1faccfeae9bed1383ca85[ALL] 0359cea2644ad5b893d6c0d9ef142029504d1210fc8ce208f8f673b9a47f52a51d"}, "vout": 0, "txid": "8d6516db0f0c1e3f699e7135597a7ad7671f38658da93f27d49d9efdf89b5cb5"}, {"sequence": 4294967295, "scriptSig": {"hex": "483045022100ae5be5a820af99e72746da398a6dad86c04d4a1333c633d432e67425f1a5637102200ac24117f3a2b6e6984ca6c5c66ef2cdf3779ffede1426df57e03fe60e3215dc01210366e5bfcbf1e0a9172e5a9eb93298ce8d2c3d72e053eb0259a81e5c59688e177c", "asm": "3045022100ae5be5a820af99e72746da398a6dad86c04d4a1333c633d432e67425f1a5637102200ac24117f3a2b6e6984ca6c5c66ef2cdf3779ffede1426df57e03fe60e3215dc[ALL] 0366e5bfcbf1e0a9172e5a9eb93298ce8d2c3d72e053eb0259a81e5c59688e177c"}, "vout": 0, "txid": "ac978a200d5c1fccb446e559ebc234c520ae7aeae5481eb970efc6b2f7fa981e"}, {"sequence": 4294967295, "scriptSig": {"hex": "4730440220468bec8440853df21eb401ed0a585498420f79ae496f8a797135c7288286f4d102203d4028734fe85f03fc7922f7dd0fc559e6712b5f0c3b8be0172417eb9cedbafc012102eb7855d06a2129f759c78c64b69f44ef48beaeb3893eaeaaa505851c4ce6f083", "asm": "30440220468bec8440853df21eb401ed0a585498420f79ae496f8a797135c7288286f4d102203d4028734fe85f03fc7922f7dd0fc559e6712b5f0c3b8be0172417eb9cedbafc[ALL] 02eb7855d06a2129f759c78c64b69f44ef48beaeb3893eaeaaa505851c4ce6f083"}, "vout": 0, "txid": "b2f8d32c5bfbc3a1a0e4858541800ce0da717dc84b23b230845f80a9649bb00c"}, {"sequence": 4294967295, "scriptSig": {"hex": "483045022100be158c4ec94d652ebfc1d739c163e9295e43ab04c7387680c388bb3341aac4f002201dbc9ea22267ba5db8a93c6e460fee1257e385897aa27692f5154e873ce5d782012103251677646033ed5b8aaf5bbeeb8156181953de03a11ae72b95a07eafc06be136", "asm": "3045022100be158c4ec94d652ebfc1d739c163e9295e43ab04c7387680c388bb3341aac4f002201dbc9ea22267ba5db8a93c6e460fee1257e385897aa27692f5154e873ce5d782[ALL] 03251677646033ed5b8aaf5bbeeb8156181953de03a11ae72b95a07eafc06be136"}, "vout": 0, "txid": "f1032b32aa2559f721eb5c9fd680ef791b0cdba609b2e4e820dae2027d355971"}, {"sequence": 4294967295, "scriptSig": {"hex": "483045022100949aa9fabdff4d7cc0e457a996596056c790a15d7750ab76e5652cb328782557022014b52e51923cc23a417f075e7b1014342696b82867d5f345f9b7125ae3a7f9c10121034339bfccc9b38ccf486f5a8b83ea0c2bd2c8ee27db65ea1c62d8b71c35d2ae0a", "asm": "3045022100949aa9fabdff4d7cc0e457a996596056c790a15d7750ab76e5652cb328782557022014b52e51923cc23a417f075e7b1014342696b82867d5f345f9b7125ae3a7f9c1[ALL] 034339bfccc9b38ccf486f5a8b83ea0c2bd2c8ee27db65ea1c62d8b71c35d2ae0a"}, "vout": 0, "txid": "fb5c1d5825b31c4cb7c4d3a0210853dae5e1ffa893a653c93b9cb1a0c98de6b2"}], "txid": "30b96da6976c803c61ccb634789807edfc058320f33dc3b81c7047a63db6250a", "blocktime": 1537870268, "version": 1, "confirmations": 11518, "time": 1537870268, "locktime": 0, "vsize": 1374, "size": 1374}