{"hash": "d19b35c35ba0ac9879ccbd26296ca7451336863fd868889d1e46dd3a60787785", "blockhash": "00000000000000000004ffacab907a6b429b9a5745fa0b75af4234bf69dd7176", "vout": [{"scriptPubKey": {"reqSigs": 1, "hex": "76a9141d5db9ed7b98e895cc84c86b62db2abfcb610a4588ac", "addresses": ["13gGsnCAMMHnBSp27euavpnU12CpPeJsfa"], "asm": "OP_DUP OP_HASH160 1d5db9ed7b98e895cc84c86b62db2abfcb610a45 OP_EQUALVERIFY OP_CHECKSIG", "type": "pubkeyhash"}, "value": 0.0116, "n": 0}, {"scriptPubKey": {"reqSigs": 1, "hex": "a91412fd088e829d297ce0926f321f8ee3a126bad15a87", "addresses": ["33RRD4rVsoq6uzPsF1bDKGn8m4vJkWytVb"], "asm": "OP_HASH160 12fd088e829d297ce0926f321f8ee3a126bad15a OP_EQUAL", "type": "scripthash"}, "value": 1.472e-05, "n": 1}], "hex": "0200000000010115279abd5a0204466f2a074c1d18e01d61a1feec82739eb2831910d4df9bea59000000001716001495ea222a77034a09d6346d29d01045d3464f5585ffffffff0240b31100000000001976a9141d5db9ed7b98e895cc84c86b62db2abfcb610a4588acc00500000000000017a91412fd088e829d297ce0926f321f8ee3a126bad15a8702483045022100887bf928136fdbe6208ea5b5cc9641131eb8db511d17e5ff8d891e7cfca0703b02200ab140a6a1a4e51e1b0fd5ecf1b5ef75556d954dd258341a7a454d142a8d66490121034e7dc55bce59dff61ab058ac9635e9c791e34c1666070ea30c7d8c9020cc48d200000000", "vin": [{"txinwitness": ["3045022100887bf928136fdbe6208ea5b5cc9641131eb8db511d17e5ff8d891e7cfca0703b02200ab140a6a1a4e51e1b0fd5ecf1b5ef75556d954dd258341a7a454d142a8d664901", "034e7dc55bce59dff61ab058ac9635e9c791e34c1666070ea30c7d8c9020cc48d2"], "sequence": 4294967295, "scriptSig": {"hex": "16001495ea222a77034a09d6346d29d01045d3464f5585", "asm": "001495ea222a77034a09d6346d29d01045d3464f5585"}, "vout": 0, "txid": "59ea9bdfd4101983b29e7382ecfea1611de0181d4c072a6f4604025abd9a2715"}], "txid": "30bb5c8fcf9aa3a2e249b379e1e05c0dd97e9fd68ec8395083990664a99e63dc", "blocktime": 1537875543, "version": 2, "confirmations": 11464, "time": 1537875543, "locktime": 0, "vsize": 168, "size": 250}