{"hash": "30bb2b05c4f80c800341ac304003b25c46a9771b2e058e838351d28cf2c0326b", "blockhash": "0000000000000000001cda96e906b7601b7a6fb1a3b62bca570a9e5d8f4b3de1", "vout": [{"scriptPubKey": {"reqSigs": 1, "hex": "76a914fa0692278afe508514b5ffee8fe5e97732ce066988ac", "addresses": ["1Po1oWkD2LmodfkBYiAktwh76vkF93LKnh"], "asm": "OP_DUP OP_HASH160 fa0692278afe508514b5ffee8fe5e97732ce0669 OP_EQUALVERIFY OP_CHECKSIG", "type": "pubkeyhash"}, "value": 2.19e-05, "n": 0}, {"scriptPubKey": {"type": "nulldata", "hex": "6a146f6d6e69000000000000001f000000057a49ff40", "asm": "OP_RETURN 6f6d6e69000000000000001f000000057a49ff40"}, "value": 0.0, "n": 1}, {"scriptPubKey": {"reqSigs": 1, "hex": "a914a1e5785dcf37cfa1b8e71766ade0b340a4736e8c87", "addresses": ["3GT3cJ8aCFdyCCn8j3oBqcotTithqGSyJ3"], "asm": "OP_HASH160 a1e5785dcf37cfa1b8e71766ade0b340a4736e8c OP_EQUAL", "type": "scripthash"}, "value": 5.4e-06, "n": 2}], "hex": "010000000160188ae2e89a6f7ee5925756b57031d2333bb4c3afeaabe85e936278213e6fa7e50000008a473044022100f8b1c354f32dcee41d647fff5d2218032ddfa8fac1ab5500200d720bd59a55ce021f12e62ccda74de634755e7608db849dbc78543cf581763fcedaf118e83bb67f014104fcf07bb1222f7925f2b7cc15183a40443c578e62ea17100aa3b44ba66905c95d4980aec4cd2f6eb426d1b1ec45d76724f26901099416b9265b76ba67c8b0b73dffffffff038e080000000000001976a914fa0692278afe508514b5ffee8fe5e97732ce066988ac0000000000000000166a146f6d6e69000000000000001f000000057a49ff401c0200000000000017a914a1e5785dcf37cfa1b8e71766ade0b340a4736e8c8700000000", "vin": [{"sequence": 4294967295, "scriptSig": {"hex": "473044022100f8b1c354f32dcee41d647fff5d2218032ddfa8fac1ab5500200d720bd59a55ce021f12e62ccda74de634755e7608db849dbc78543cf581763fcedaf118e83bb67f014104fcf07bb1222f7925f2b7cc15183a40443c578e62ea17100aa3b44ba66905c95d4980aec4cd2f6eb426d1b1ec45d76724f26901099416b9265b76ba67c8b0b73d", "asm": "3044022100f8b1c354f32dcee41d647fff5d2218032ddfa8fac1ab5500200d720bd59a55ce021f12e62ccda74de634755e7608db849dbc78543cf581763fcedaf118e83bb67f[ALL] 04fcf07bb1222f7925f2b7cc15183a40443c578e62ea17100aa3b44ba66905c95d4980aec4cd2f6eb426d1b1ec45d76724f26901099416b9265b76ba67c8b0b73d"}, "vout": 229, "txid": "a76f3e217862935ee8abeaafc3b43b33d23170b5565792e57e6f9ae8e28a1860"}], "txid": "30bb2b05c4f80c800341ac304003b25c46a9771b2e058e838351d28cf2c0326b", "blocktime": 1537873282, "version": 1, "confirmations": 11480, "time": 1537873282, "locktime": 0, "vsize": 286, "size": 286}