{"hash": "30bde555a38d7b25e1bb312927b5d6fc71e14b061d3ba15a37e07c18ac2e26c1", "blockhash": "00000000000000000017f5eb5941039fbcee6240d03bc1f2f8e35350df66a1d8", "vout": [{"scriptPubKey": {"type": "nulldata", "hex": "6a146f6d6e69000000000000001f00000006d1dd116c", "asm": "OP_RETURN 6f6d6e69000000000000001f00000006d1dd116c"}, "value": 0.0, "n": 0}, {"scriptPubKey": {"reqSigs": 1, "hex": "76a914fa193fe9fe69bf8bf8b0b2e3a4fc593ef432f66688ac", "addresses": ["1PoQBLS3WBEKjnisKEN8UGvTm1v1HqErTq"], "asm": "OP_DUP OP_HASH160 fa193fe9fe69bf8bf8b0b2e3a4fc593ef432f666 OP_EQUALVERIFY OP_CHECKSIG", "type": "pubkeyhash"}, "value": 5.46e-06, "n": 1}, {"scriptPubKey": {"reqSigs": 1, "hex": "76a914a25dec4d0011064ef106a983c39c7a540699f22088ac", "addresses": ["1FoWyxwPXuj4C6abqwhjDWdz6D4PZgYRjA"], "asm": "OP_DUP OP_HASH160 a25dec4d0011064ef106a983c39c7a540699f220 OP_EQUALVERIFY OP_CHECKSIG", "type": "pubkeyhash"}, "value": 0.01990392, "n": 2}], "hex": "01000000016076af90285935a27b85504750b1f43ccf175869e9a33edd02fc62628f36f751000000006a4730440220214c92bec88ba09f40b4d5ef15c0f5c0622a595805029640bc0b42ddee5aa76e022065474d6f1b9ddceddf5523ff7cb3ad758d029a3b722518ee9fb103b4af57ebea012103da5bac7b36d5aa38f531c6b9601e21bb598a4b6716ebed38b009a55dabde9440feffffff030000000000000000166a146f6d6e69000000000000001f00000006d1dd116c22020000000000001976a914fa193fe9fe69bf8bf8b0b2e3a4fc593ef432f66688acf85e1e00000000001976a914a25dec4d0011064ef106a983c39c7a540699f22088acc6480800", "vin": [{"sequence": 4294967294, "scriptSig": {"hex": "4730440220214c92bec88ba09f40b4d5ef15c0f5c0622a595805029640bc0b42ddee5aa76e022065474d6f1b9ddceddf5523ff7cb3ad758d029a3b722518ee9fb103b4af57ebea012103da5bac7b36d5aa38f531c6b9601e21bb598a4b6716ebed38b009a55dabde9440", "asm": "30440220214c92bec88ba09f40b4d5ef15c0f5c0622a595805029640bc0b42ddee5aa76e022065474d6f1b9ddceddf5523ff7cb3ad758d029a3b722518ee9fb103b4af57ebea[ALL] 03da5bac7b36d5aa38f531c6b9601e21bb598a4b6716ebed38b009a55dabde9440"}, "vout": 0, "txid": "51f7368f6262fc02dd3ea3e9695817cf3cf4b1504750857ba235592890af7660"}], "txid": "30bde555a38d7b25e1bb312927b5d6fc71e14b061d3ba15a37e07c18ac2e26c1", "blocktime": 1537874412, "version": 1, "confirmations": 11467, "time": 1537874412, "locktime": 542918, "vsize": 256, "size": 256}