{"hash": "30beafc3e5a55351b4ef98e2443aa96d9440f7e37c80dbe41238773e5ece90bf", "blockhash": "0000000000000000001f76057863aec43deb6fa401d9628bb513d65a8098bfab", "vout": [{"scriptPubKey": {"reqSigs": 1, "hex": "a91486ed17bfa7bd80cf87cf7e80abd9289079b78c5b87", "addresses": ["3DzSVk4veMCkNbNT9CdETeE26uWxmNbBnD"], "asm": "OP_HASH160 86ed17bfa7bd80cf87cf7e80abd9289079b78c5b OP_EQUAL", "type": "scripthash"}, "value": 10.5788419, "n": 0}, {"scriptPubKey": {"reqSigs": 1, "hex": "a914de62ef4a7f9b333e47f59d73576947e3d2239e6e87", "addresses": ["3MxtTEd8L4R8CUWc3UM2ZDT2JsJefxYX69"], "asm": "OP_HASH160 de62ef4a7f9b333e47f59d73576947e3d2239e6e OP_EQUAL", "type": "scripthash"}, "value": 0.0127, "n": 1}], "hex": "020000000140f3470d1e02e76de3379c7127f2673872563931232c97bd6705d5501520e3c701000000da0047304402201b23c0d136396a756f204f0c8858b3129c02796639c929023f7afd243cfdec9502201614272c5fb9dd403f018095335f17d9cc5ffce10bd5de4b0e63427e5ee1859901483045022100ce7c48caa87c4d59662efba892412c35c22357701ed7a5e6d1abaa2ea777fb940220252bd3278e4196a25cbf7f103d45c4ace2db30665b81f9e013d7c5d0965cedbd01475221038934160de8ad1dd529329f5bf51e3086cc0f6d19e10fb4120385f23d871c0c1d21021659435e23e3891d39ec2b0266b3c14a68cb4e45adb8543f31508310c98722d952aeffffffff021e080e3f0000000017a91486ed17bfa7bd80cf87cf7e80abd9289079b78c5b87f06013000000000017a914de62ef4a7f9b333e47f59d73576947e3d2239e6e8700000000", "vin": [{"sequence": 4294967295, "scriptSig": {"hex": "0047304402201b23c0d136396a756f204f0c8858b3129c02796639c929023f7afd243cfdec9502201614272c5fb9dd403f018095335f17d9cc5ffce10bd5de4b0e63427e5ee1859901483045022100ce7c48caa87c4d59662efba892412c35c22357701ed7a5e6d1abaa2ea777fb940220252bd3278e4196a25cbf7f103d45c4ace2db30665b81f9e013d7c5d0965cedbd01475221038934160de8ad1dd529329f5bf51e3086cc0f6d19e10fb4120385f23d871c0c1d21021659435e23e3891d39ec2b0266b3c14a68cb4e45adb8543f31508310c98722d952ae", "asm": "0 304402201b23c0d136396a756f204f0c8858b3129c02796639c929023f7afd243cfdec9502201614272c5fb9dd403f018095335f17d9cc5ffce10bd5de4b0e63427e5ee18599[ALL] 3045022100ce7c48caa87c4d59662efba892412c35c22357701ed7a5e6d1abaa2ea777fb940220252bd3278e4196a25cbf7f103d45c4ace2db30665b81f9e013d7c5d0965cedbd[ALL] 5221038934160de8ad1dd529329f5bf51e3086cc0f6d19e10fb4120385f23d871c0c1d21021659435e23e3891d39ec2b0266b3c14a68cb4e45adb8543f31508310c98722d952ae"}, "vout": 1, "txid": "c7e3201550d50567bd972c23313956723867f227719c37e36de7021e0d47f340"}], "txid": "30beafc3e5a55351b4ef98e2443aa96d9440f7e37c80dbe41238773e5ece90bf", "blocktime": 1537873891, "version": 2, "confirmations": 11475, "time": 1537873891, "locktime": 0, "vsize": 333, "size": 333}