{"hash": "30c2e350b5bb59c72ba09d4af0d1849890a4258d393ddd3f14473b700a119336", "blockhash": "000000000000000000022b45ed06c6f4ccd3cf7fb5ba4856ebd2e58215665228", "vout": [{"scriptPubKey": {"reqSigs": 1, "hex": "76a914d243e6abb9a60fbff430b421d2df4b7d59ec186088ac", "addresses": ["1LAnF8h3qMGx3TSwNUHVneBZUEpwE4gu3D"], "asm": "OP_DUP OP_HASH160 d243e6abb9a60fbff430b421d2df4b7d59ec1860 OP_EQUALVERIFY OP_CHECKSIG", "type": "pubkeyhash"}, "value": 0.00076972, "n": 0}, {"scriptPubKey": {"reqSigs": 1, "hex": "76a9143851f34d13937b673a7d24a1950bb5b21ce94af388ac", "addresses": ["168o1kqNquEJeR9vosUB5fw4eAwcVAgh8P"], "asm": "OP_DUP OP_HASH160 3851f34d13937b673a7d24a1950bb5b21ce94af3 OP_EQUALVERIFY OP_CHECKSIG", "type": "pubkeyhash"}, "value": 5.46e-06, "n": 1}, {"scriptPubKey": {"type": "nulldata", "hex": "6a146f6d6e69000000000000001f0000000c3f344e00", "asm": "OP_RETURN 6f6d6e69000000000000001f0000000c3f344e00"}, "value": 0.0, "n": 2}], "hex": "0100000002b2b3b1be0d02be9cd33aae0363563a156d48ce1f866a2d8aee409849f32d18f3020000006b483045022100c06661712011640fc931a1cd0c4de7d23ce7ed904cc078f84b3ae830750b6e8f02205d455540f924a994cb8a17208875c62c4c59c6f4a3c174c201dbe72600870336012102d0bb121285e360ab0328c1247cf2edb14e2e9f78d6cd91166d37e552a37893c4ffffffff888acfad383693b89ccba0a805de33e119ec418179c9f0e11b0ebe50a725bc24000000006b483045022100ebe244bfb7c6c91f8868558da857c7490751e40377a3f48fab52b086807ff3c60220204fe53fb147db6ceee8f3ef4657baf5d613020b6a18fda741d79510663dd5ac01210271977291b74f1f5f5c42157e8aae804664eaaeccfd097918450d37f28fb94d77ffffffff03ac2c0100000000001976a914d243e6abb9a60fbff430b421d2df4b7d59ec186088ac22020000000000001976a9143851f34d13937b673a7d24a1950bb5b21ce94af388ac0000000000000000166a146f6d6e69000000000000001f0000000c3f344e0000000000", "vin": [{"sequence": 4294967295, "scriptSig": {"hex": "483045022100c06661712011640fc931a1cd0c4de7d23ce7ed904cc078f84b3ae830750b6e8f02205d455540f924a994cb8a17208875c62c4c59c6f4a3c174c201dbe72600870336012102d0bb121285e360ab0328c1247cf2edb14e2e9f78d6cd91166d37e552a37893c4", "asm": "3045022100c06661712011640fc931a1cd0c4de7d23ce7ed904cc078f84b3ae830750b6e8f02205d455540f924a994cb8a17208875c62c4c59c6f4a3c174c201dbe72600870336[ALL] 02d0bb121285e360ab0328c1247cf2edb14e2e9f78d6cd91166d37e552a37893c4"}, "vout": 2, "txid": "f3182df3499840ee8a2d6a861fce486d153a566303ae3ad39cbe020dbeb1b3b2"}, {"sequence": 4294967295, "scriptSig": {"hex": "483045022100ebe244bfb7c6c91f8868558da857c7490751e40377a3f48fab52b086807ff3c60220204fe53fb147db6ceee8f3ef4657baf5d613020b6a18fda741d79510663dd5ac01210271977291b74f1f5f5c42157e8aae804664eaaeccfd097918450d37f28fb94d77", "asm": "3045022100ebe244bfb7c6c91f8868558da857c7490751e40377a3f48fab52b086807ff3c60220204fe53fb147db6ceee8f3ef4657baf5d613020b6a18fda741d79510663dd5ac[ALL] 0271977291b74f1f5f5c42157e8aae804664eaaeccfd097918450d37f28fb94d77"}, "vout": 0, "txid": "24bc25a750be0e1be1f0c9798141ec19e133de05a8a0cb9cb8933638adcf8a88"}], "txid": "30c2e350b5bb59c72ba09d4af0d1849890a4258d393ddd3f14473b700a119336", "blocktime": 1537869901, "version": 1, "confirmations": 11522, "time": 1537869901, "locktime": 0, "vsize": 405, "size": 405}