{"hash": "7b73666912b33f8f108c396e7757df186caf9a430586488f16854bfdf7875b6e", "blockhash": "0000000000000000000e13cef7c366c0283d82e591d1acd082e914b08063cdf1", "vout": [{"scriptPubKey": {"reqSigs": 1, "hex": "76a914db687c735f5afe789abe3185d785aafe7a2ef5f988ac", "addresses": ["1M189qRMYGETZW4koz32xYHGRNrLLdtCT9"], "asm": "OP_DUP OP_HASH160 db687c735f5afe789abe3185d785aafe7a2ef5f9 OP_EQUALVERIFY OP_CHECKSIG", "type": "pubkeyhash"}, "value": 0.00380779, "n": 0}, {"scriptPubKey": {"reqSigs": 1, "hex": "a91493b35ec207342c9be83b8253618bfba0ad925b2487", "addresses": ["3F9z8bhz2EF9xVy8EcFyoXvNWjMwru2qy7"], "asm": "OP_HASH160 93b35ec207342c9be83b8253618bfba0ad925b24 OP_EQUAL", "type": "scripthash"}, "value": 0.01637367, "n": 1}], "hex": "02000000000102450202033bca486ef3e2e3aab6a5af45699e57d696cfcbfb693ffa857b9bf6b301000000171600147cabe940729cfd76db024032a7bcfe5edf5e2f8efefffffff0e801787c966206d160501f333261b93a1d854ec3b5e8cbd2fb7fc473429d1a010000001716001425eafff4638a5faf389d87a711a5e09b95a7c35afeffffff026bcf0500000000001976a914db687c735f5afe789abe3185d785aafe7a2ef5f988acf7fb18000000000017a91493b35ec207342c9be83b8253618bfba0ad925b24870247304402204dc68a95d4949a89e9b0b7bce8fdf2002bbabc176467151569b4f3c92393d20a02200ea81f7c8b6f291c400a502d7b697136b08f6e64c0d20bbb69cbd373239c785b0121028606eb4b01f645eab0e595ec62c3b68e512c831b291b7e8aa9f0caed07be65bc02483045022100fb67d81884a1e646638d643c265e19b4abfec01c11781a4038acf4ddcea422ec02204809f1b543c2206e4dc37facf7d112f9ca80fb93e962f2da3b6f7531b24bbda9012102602e70dc4fb5f80834663fd62105272a2eca4924c57c2fbe48bfa9b4581842000f490800", "vin": [{"txinwitness": ["304402204dc68a95d4949a89e9b0b7bce8fdf2002bbabc176467151569b4f3c92393d20a02200ea81f7c8b6f291c400a502d7b697136b08f6e64c0d20bbb69cbd373239c785b01", "028606eb4b01f645eab0e595ec62c3b68e512c831b291b7e8aa9f0caed07be65bc"], "sequence": 4294967294, "scriptSig": {"hex": "1600147cabe940729cfd76db024032a7bcfe5edf5e2f8e", "asm": "00147cabe940729cfd76db024032a7bcfe5edf5e2f8e"}, "vout": 1, "txid": "b3f69b7b85fa3f69fbcbcf96d6579e6945afa5b6aae3e2f36e48ca3b03020245"}, {"txinwitness": ["3045022100fb67d81884a1e646638d643c265e19b4abfec01c11781a4038acf4ddcea422ec02204809f1b543c2206e4dc37facf7d112f9ca80fb93e962f2da3b6f7531b24bbda901", "02602e70dc4fb5f80834663fd62105272a2eca4924c57c2fbe48bfa9b458184200"], "sequence": 4294967294, "scriptSig": {"hex": "16001425eafff4638a5faf389d87a711a5e09b95a7c35a", "asm": "001425eafff4638a5faf389d87a711a5e09b95a7c35a"}, "vout": 1, "txid": "1a9d4273c47ffbd2cbe8b5c34e851d3ab96132331f5060d10662967c7801e8f0"}], "txid": "30c8293b2beb9abcfbce3da09e6697463b038ec593fb5850428a902a7e96e669", "blocktime": 1537871767, "version": 2, "confirmations": 11495, "time": 1537871767, "locktime": 542991, "vsize": 259, "size": 421}