{"hash": "30c80cd3145ac9a1229f3b998e66d6fc1f4230e1bccadda70f0da243dff2009c", "blockhash": "000000000000000000022b45ed06c6f4ccd3cf7fb5ba4856ebd2e58215665228", "vout": [{"scriptPubKey": {"reqSigs": 1, "hex": "76a914d243e6abb9a60fbff430b421d2df4b7d59ec186088ac", "addresses": ["1LAnF8h3qMGx3TSwNUHVneBZUEpwE4gu3D"], "asm": "OP_DUP OP_HASH160 d243e6abb9a60fbff430b421d2df4b7d59ec1860 OP_EQUALVERIFY OP_CHECKSIG", "type": "pubkeyhash"}, "value": 0.00077314, "n": 0}, {"scriptPubKey": {"reqSigs": 1, "hex": "76a914d046767d15f6ddafe4c664bd6564fea4c19a98dc88ac", "addresses": ["1KzFxkDYZVLTVbJCmByxtegMqU8rqF2NUj"], "asm": "OP_DUP OP_HASH160 d046767d15f6ddafe4c664bd6564fea4c19a98dc OP_EQUALVERIFY OP_CHECKSIG", "type": "pubkeyhash"}, "value": 5.46e-06, "n": 1}, {"scriptPubKey": {"type": "nulldata", "hex": "6a146f6d6e69000000000000001f00000006a969b180", "asm": "OP_RETURN 6f6d6e69000000000000001f00000006a969b180"}, "value": 0.0, "n": 2}], "hex": "0100000001b25a5f444ab0e1251a298f28d480a808b863f7b5d1e1a3d6a0c685dc018721f3000000006b4830450221009ab52ae830167ea6a54f685659c1f3c30e56107a2f74b53b568c6b72e92e7f880220194b66d8d733a339b0e161dd8ddcaa03a420b8a1a0982b955b5cde2dc9d5c1b701210271977291b74f1f5f5c42157e8aae804664eaaeccfd097918450d37f28fb94d77ffffffff03022e0100000000001976a914d243e6abb9a60fbff430b421d2df4b7d59ec186088ac22020000000000001976a914d046767d15f6ddafe4c664bd6564fea4c19a98dc88ac0000000000000000166a146f6d6e69000000000000001f00000006a969b18000000000", "vin": [{"sequence": 4294967295, "scriptSig": {"hex": "4830450221009ab52ae830167ea6a54f685659c1f3c30e56107a2f74b53b568c6b72e92e7f880220194b66d8d733a339b0e161dd8ddcaa03a420b8a1a0982b955b5cde2dc9d5c1b701210271977291b74f1f5f5c42157e8aae804664eaaeccfd097918450d37f28fb94d77", "asm": "30450221009ab52ae830167ea6a54f685659c1f3c30e56107a2f74b53b568c6b72e92e7f880220194b66d8d733a339b0e161dd8ddcaa03a420b8a1a0982b955b5cde2dc9d5c1b7[ALL] 0271977291b74f1f5f5c42157e8aae804664eaaeccfd097918450d37f28fb94d77"}, "vout": 0, "txid": "f3218701dc85c6a0d6a3e1d1b5f763b808a880d4288f291a25e1b04a445f5ab2"}], "txid": "30c80cd3145ac9a1229f3b998e66d6fc1f4230e1bccadda70f0da243dff2009c", "blocktime": 1537869901, "version": 1, "confirmations": 11522, "time": 1537869901, "locktime": 0, "vsize": 257, "size": 257}