{"hash": "30c90672828065b18186ed98426374fd8097366778851c4312eb49b6590112eb", "blockhash": "0000000000000000001cda96e906b7601b7a6fb1a3b62bca570a9e5d8f4b3de1", "vout": [{"scriptPubKey": {"reqSigs": 1, "hex": "a914a5025987201128db8bd66f25a193f7d5f366ac4087", "addresses": ["3GjWETTmLL8sfbb1u5koWhFpXAaYkjvZk7"], "asm": "OP_HASH160 a5025987201128db8bd66f25a193f7d5f366ac40 OP_EQUAL", "type": "scripthash"}, "value": 0.0035, "n": 0}, {"scriptPubKey": {"reqSigs": 1, "hex": "76a914b914a168093600a27f9017bdf4b172f8d4725f1388ac", "addresses": ["1HscivPRuJju13e5tuth1zxJWF9qihsV6y"], "asm": "OP_DUP OP_HASH160 b914a168093600a27f9017bdf4b172f8d4725f13 OP_EQUALVERIFY OP_CHECKSIG", "type": "pubkeyhash"}, "value": 0.00625123, "n": 1}], "hex": "01000000017526e55d0ebf1533c22d82b946b894b77cd4e5f1b096e14b715f2db5cefd37da000000006b483045022100d311f09e1f406219567eb05276f9b0c9bc35527f067c2eac3ec8714715bf3d5f02205bfd08a265b6a649a29cd6a15249ac64dcd598960b665d2f70dd44c017eea3440121032780569d0eb307a045cbde184b8f323c641d7aa004182ef41a3d984dca82e42cffffffff02305705000000000017a914a5025987201128db8bd66f25a193f7d5f366ac4087e3890900000000001976a914b914a168093600a27f9017bdf4b172f8d4725f1388ac00000000", "vin": [{"sequence": 4294967295, "scriptSig": {"hex": "483045022100d311f09e1f406219567eb05276f9b0c9bc35527f067c2eac3ec8714715bf3d5f02205bfd08a265b6a649a29cd6a15249ac64dcd598960b665d2f70dd44c017eea3440121032780569d0eb307a045cbde184b8f323c641d7aa004182ef41a3d984dca82e42c", "asm": "3045022100d311f09e1f406219567eb05276f9b0c9bc35527f067c2eac3ec8714715bf3d5f02205bfd08a265b6a649a29cd6a15249ac64dcd598960b665d2f70dd44c017eea344[ALL] 032780569d0eb307a045cbde184b8f323c641d7aa004182ef41a3d984dca82e42c"}, "vout": 0, "txid": "da37fdceb52d5f714be196b0f1e5d47cb794b846b9822dc23315bf0e5de52675"}], "txid": "30c90672828065b18186ed98426374fd8097366778851c4312eb49b6590112eb", "blocktime": 1537873282, "version": 1, "confirmations": 11484, "time": 1537873282, "locktime": 0, "vsize": 224, "size": 224}