{"hash": "4ebbfa9aac08324cba20dbaeab7157459735dc8b0221bef8355dc15ad97bf65f", "blockhash": "0000000000000000000baef3f32e3676a92c3b2e5da21b426e4f302fc371ce76", "vout": [{"scriptPubKey": {"reqSigs": 1, "hex": "a914011017b0bd88d032cf86a7bbb87e4d0bd3fbbb6787", "addresses": ["31ndss7oMiJ99M8vEa82uWuuLawQrx9Biw"], "asm": "OP_HASH160 011017b0bd88d032cf86a7bbb87e4d0bd3fbbb67 OP_EQUAL", "type": "scripthash"}, "value": 0.00282, "n": 0}, {"scriptPubKey": {"reqSigs": 1, "hex": "a91440c1cd5d8ddb6acf761baee83acc1a00ed24880387", "addresses": ["37bRLS9gzdnGqtw1LCVf9GbqsvA9E7CPLJ"], "asm": "OP_HASH160 40c1cd5d8ddb6acf761baee83acc1a00ed248803 OP_EQUAL", "type": "scripthash"}, "value": 0.00991673, "n": 1}], "hex": "02000000000102abcd8c8e2696369ae888c22718bb36d56c3dcad5760999e54a96c819e8ec2f3a0100000017160014917c194b24904355b77c7de9b49a1f86e82ae438feffffffed24bf93b3a1fa87bd0a915faf7bd6d898c4cd9634f8c96ab41bf327cc33f0f6700000006a473044022015988ebe9cd8ceaebca4b2aca83118f34b36a7ebc029228c18646b9484bb76fa022032e5312e52fc1490b0ddcf427bc7c9a0e291ea2510ea611d538e239cda0ed03e0121027e0bc1e11e4dd774b272558e98b19d1ca08c7a4ed3012c78196811696cea586bfeffffff02904d04000000000017a914011017b0bd88d032cf86a7bbb87e4d0bd3fbbb6787b9210f000000000017a91440c1cd5d8ddb6acf761baee83acc1a00ed248803870247304402207724ed57629a9c09baf360a37f132c8181c99ecb8935125d3b91451983d7f1480220468aaaa3a82aa3316ab40bedf3c2c28c61e1224b9c32851eb2c9f06b91f49428012103e68378db8db66204d066d1735d1c83a73f4788e7d345595d5610c78fc6f707590016490800", "vin": [{"txinwitness": ["304402207724ed57629a9c09baf360a37f132c8181c99ecb8935125d3b91451983d7f1480220468aaaa3a82aa3316ab40bedf3c2c28c61e1224b9c32851eb2c9f06b91f4942801", "03e68378db8db66204d066d1735d1c83a73f4788e7d345595d5610c78fc6f70759"], "sequence": 4294967294, "scriptSig": {"hex": "160014917c194b24904355b77c7de9b49a1f86e82ae438", "asm": "0014917c194b24904355b77c7de9b49a1f86e82ae438"}, "vout": 1, "txid": "3a2fece819c8964ae5990976d5ca3d6cd536bb1827c288e89a3696268e8ccdab"}, {"sequence": 4294967294, "scriptSig": {"hex": "473044022015988ebe9cd8ceaebca4b2aca83118f34b36a7ebc029228c18646b9484bb76fa022032e5312e52fc1490b0ddcf427bc7c9a0e291ea2510ea611d538e239cda0ed03e0121027e0bc1e11e4dd774b272558e98b19d1ca08c7a4ed3012c78196811696cea586b", "asm": "3044022015988ebe9cd8ceaebca4b2aca83118f34b36a7ebc029228c18646b9484bb76fa022032e5312e52fc1490b0ddcf427bc7c9a0e291ea2510ea611d538e239cda0ed03e[ALL] 027e0bc1e11e4dd774b272558e98b19d1ca08c7a4ed3012c78196811696cea586b"}, "vout": 112, "txid": "f6f033cc27f31bb46ac9f83496cdc498d8d67baf5f910abd87faa1b393bf24ed"}], "txid": "30cb007d5450d214de94f231b84aab280219855ef6f1e58bb3d4406b433b0c97", "blocktime": 1537876114, "version": 2, "confirmations": 11459, "time": 1537876114, "locktime": 542998, "vsize": 313, "size": 395}