{"hash": "30ccce4f822d490663143488d7894fac7c0efcb771f9273a6eac005bc321903d", "blockhash": "0000000000000000001f76057863aec43deb6fa401d9628bb513d65a8098bfab", "vout": [{"scriptPubKey": {"reqSigs": 1, "hex": "76a91470c67e96846f81bb200b075338511b4d9e1cb57f88ac", "addresses": ["1BHJU8AdpDgfCufZkoixD2pZiNce7aeTnq"], "asm": "OP_DUP OP_HASH160 70c67e96846f81bb200b075338511b4d9e1cb57f OP_EQUALVERIFY OP_CHECKSIG", "type": "pubkeyhash"}, "value": 0.002, "n": 0}, {"scriptPubKey": {"reqSigs": 1, "hex": "76a91425129937cf4ef62dcd7bb0291f5745bac637254b88ac", "addresses": ["14P2HLzb48zpfcxF1V6ZkMm47VSSwasWSG"], "asm": "OP_DUP OP_HASH160 25129937cf4ef62dcd7bb0291f5745bac637254b OP_EQUALVERIFY OP_CHECKSIG", "type": "pubkeyhash"}, "value": 0.01349048, "n": 1}], "hex": "01000000015d625e1010a3f32d0c7c06148f9c3440e0f47e41927fc07f0e33cbb420a5b246010000006b483045022100a8e2bb35a49a2b8ae6a4cd723075073c1339a17e70e95c64b7e4d964d8d4104902205e495dac5d04e026f59804b0dd5a631a157c15c12231c1148952b7355c3c2bd401210229ce348fa850021b47f726c562cb2024813bca2d9d5a68e46b0f273e3ae4aaf4ffffffff02400d0300000000001976a91470c67e96846f81bb200b075338511b4d9e1cb57f88acb8951400000000001976a91425129937cf4ef62dcd7bb0291f5745bac637254b88ac00000000", "vin": [{"sequence": 4294967295, "scriptSig": {"hex": "483045022100a8e2bb35a49a2b8ae6a4cd723075073c1339a17e70e95c64b7e4d964d8d4104902205e495dac5d04e026f59804b0dd5a631a157c15c12231c1148952b7355c3c2bd401210229ce348fa850021b47f726c562cb2024813bca2d9d5a68e46b0f273e3ae4aaf4", "asm": "3045022100a8e2bb35a49a2b8ae6a4cd723075073c1339a17e70e95c64b7e4d964d8d4104902205e495dac5d04e026f59804b0dd5a631a157c15c12231c1148952b7355c3c2bd4[ALL] 0229ce348fa850021b47f726c562cb2024813bca2d9d5a68e46b0f273e3ae4aaf4"}, "vout": 1, "txid": "46b2a520b4cb330e7fc07f92417ef4e040349c8f14067c0c2df3a310105e625d"}], "txid": "30ccce4f822d490663143488d7894fac7c0efcb771f9273a6eac005bc321903d", "blocktime": 1537873891, "version": 1, "confirmations": 11478, "time": 1537873891, "locktime": 0, "vsize": 226, "size": 226}