{"hash": "30d139fdab5eb876cd182e3d7c318464ee791c895cbee068c48d61cd23cf010a", "blockhash": "00000000000000000004ffacab907a6b429b9a5745fa0b75af4234bf69dd7176", "vout": [{"scriptPubKey": {"reqSigs": 1, "hex": "76a914a9430a207d993e6796959bbcd67be68bc85ad27788ac", "addresses": ["1GRyWQkbCU2VuRPTb537nPHfyHwKZCEVJQ"], "asm": "OP_DUP OP_HASH160 a9430a207d993e6796959bbcd67be68bc85ad277 OP_EQUALVERIFY OP_CHECKSIG", "type": "pubkeyhash"}, "value": 0.35, "n": 0}, {"scriptPubKey": {"reqSigs": 1, "hex": "76a914bae025140c454518b8cba0c25d45a6dc87f4b9ce88ac", "addresses": ["1J37CY8hcdUXQ1KfBhMCsUVafa8XjDsdCn"], "asm": "OP_DUP OP_HASH160 bae025140c454518b8cba0c25d45a6dc87f4b9ce OP_EQUALVERIFY OP_CHECKSIG", "type": "pubkeyhash"}, "value": 0.07545339, "n": 1}], "hex": "0100000006d15f27e30a21e2bb62654aa160acb22ddb1f3d2e0c3feb199388b93b45ef9385000000008b483045022100a3e9f7c76e38dd1e97fec55d67bd6e7b3c21121195d3df724f24ffa5ed9abde002206ce76423ee2bab16b9f907616acb67ec484ce334415eea46df9b82a214b8a1c8014104ebb604f87464688a122b7a1b4a215473728ae85a247db96aa5156f2eed7756d34ea87febee1cdb7103a8746ac509dac0878b233cd1129ee0011a769e62732837ffffffffbb257e59aec9ab4d1994b273ca599e06e0a105e4b5ff937fd5fd573665f7ea5c010000008b483045022100b9a17eb12dd59d4bfd771cd4daaf00ae852b8f4de844dc5ff8148175570e8769022047d95e23992e3254cd5017eef61a983504359619e8fc793e7538f57c0307e811014104025a1cffe502a80dfa1f543ae14c082aff24d5ecadab160ca904d288eed8e3d8cacef0985f690868df4f416c3890909b4c0c843da153d41382ac20c80170240affffffff64b99a787238219dc9a6fde783dc866c1be1cae2eaec58166313c55d92ed7635010000008a4730440220263bf5ca9729809ab55c47ce83136e718fcc5863d27361142d0d34b73186afc302207e25d93433cae8a31ec9d74ff585c50fad255c48cc97327f478863b0372b6c92014104025a1cffe502a80dfa1f543ae14c082aff24d5ecadab160ca904d288eed8e3d8cacef0985f690868df4f416c3890909b4c0c843da153d41382ac20c80170240affffffffe00ac63d23f761f07281b185bc2373bfa90ba4dcca8d92afc37f1a953620f76a010000008a473044022025a9e2fd65847f5b298697c672f2f7fd7a38278c18a729aea2b5386b213e0fd80220662b19fa79e336e18fad33deaeda82e03bb0780ef802957035cd145d4c68b872014104025a1cffe502a80dfa1f543ae14c082aff24d5ecadab160ca904d288eed8e3d8cacef0985f690868df4f416c3890909b4c0c843da153d41382ac20c80170240affffffff8de155096b66c8d21fc1094097cfc9fd65f2eefce831d1d2f6ddd2c1264202af010000008b483045022100b155c86893f1eb9bcafc97ee63b288315e87c624f3923221f1a1e7357f8e60d202206c828b47f82ff40e2b7c86f7d3df055c968fc0144095bdb7ca82aecd8a5f3bed014104025a1cffe502a80dfa1f543ae14c082aff24d5ecadab160ca904d288eed8e3d8cacef0985f690868df4f416c3890909b4c0c843da153d41382ac20c80170240affffffff533fff0b0fd287d96a33e2fb5c4df2c02b0023ced59458a614b052d8076de669010000008a473044022078a98d639927e8fb3d083a2ded623b47a8fb9ca695c4951c2ae70106871a18cf022070aa1aa1a8de8bd8d639fd794585923d039d428874693f58a27865c87b9f80e4014104025a1cffe502a80dfa1f543ae14c082aff24d5ecadab160ca904d288eed8e3d8cacef0985f690868df4f416c3890909b4c0c843da153d41382ac20c80170240affffffff02c00e1602000000001976a914a9430a207d993e6796959bbcd67be68bc85ad27788acfb217300000000001976a914bae025140c454518b8cba0c25d45a6dc87f4b9ce88ac00000000", "vin": [{"sequence": 4294967295, "scriptSig": {"hex": "483045022100a3e9f7c76e38dd1e97fec55d67bd6e7b3c21121195d3df724f24ffa5ed9abde002206ce76423ee2bab16b9f907616acb67ec484ce334415eea46df9b82a214b8a1c8014104ebb604f87464688a122b7a1b4a215473728ae85a247db96aa5156f2eed7756d34ea87febee1cdb7103a8746ac509dac0878b233cd1129ee0011a769e62732837", "asm": "3045022100a3e9f7c76e38dd1e97fec55d67bd6e7b3c21121195d3df724f24ffa5ed9abde002206ce76423ee2bab16b9f907616acb67ec484ce334415eea46df9b82a214b8a1c8[ALL] 04ebb604f87464688a122b7a1b4a215473728ae85a247db96aa5156f2eed7756d34ea87febee1cdb7103a8746ac509dac0878b233cd1129ee0011a769e62732837"}, "vout": 0, "txid": "8593ef453bb9889319eb3f0c2e3d1fdb2db2ac60a14a6562bbe2210ae3275fd1"}, {"sequence": 4294967295, "scriptSig": {"hex": "483045022100b9a17eb12dd59d4bfd771cd4daaf00ae852b8f4de844dc5ff8148175570e8769022047d95e23992e3254cd5017eef61a983504359619e8fc793e7538f57c0307e811014104025a1cffe502a80dfa1f543ae14c082aff24d5ecadab160ca904d288eed8e3d8cacef0985f690868df4f416c3890909b4c0c843da153d41382ac20c80170240a", "asm": "3045022100b9a17eb12dd59d4bfd771cd4daaf00ae852b8f4de844dc5ff8148175570e8769022047d95e23992e3254cd5017eef61a983504359619e8fc793e7538f57c0307e811[ALL] 04025a1cffe502a80dfa1f543ae14c082aff24d5ecadab160ca904d288eed8e3d8cacef0985f690868df4f416c3890909b4c0c843da153d41382ac20c80170240a"}, "vout": 1, "txid": "5ceaf7653657fdd57f93ffb5e405a1e0069e59ca73b294194dabc9ae597e25bb"}, {"sequence": 4294967295, "scriptSig": {"hex": "4730440220263bf5ca9729809ab55c47ce83136e718fcc5863d27361142d0d34b73186afc302207e25d93433cae8a31ec9d74ff585c50fad255c48cc97327f478863b0372b6c92014104025a1cffe502a80dfa1f543ae14c082aff24d5ecadab160ca904d288eed8e3d8cacef0985f690868df4f416c3890909b4c0c843da153d41382ac20c80170240a", "asm": "30440220263bf5ca9729809ab55c47ce83136e718fcc5863d27361142d0d34b73186afc302207e25d93433cae8a31ec9d74ff585c50fad255c48cc97327f478863b0372b6c92[ALL] 04025a1cffe502a80dfa1f543ae14c082aff24d5ecadab160ca904d288eed8e3d8cacef0985f690868df4f416c3890909b4c0c843da153d41382ac20c80170240a"}, "vout": 1, "txid": "3576ed925dc513631658eceae2cae11b6c86dc83e7fda6c99d213872789ab964"}, {"sequence": 4294967295, "scriptSig": {"hex": "473044022025a9e2fd65847f5b298697c672f2f7fd7a38278c18a729aea2b5386b213e0fd80220662b19fa79e336e18fad33deaeda82e03bb0780ef802957035cd145d4c68b872014104025a1cffe502a80dfa1f543ae14c082aff24d5ecadab160ca904d288eed8e3d8cacef0985f690868df4f416c3890909b4c0c843da153d41382ac20c80170240a", "asm": "3044022025a9e2fd65847f5b298697c672f2f7fd7a38278c18a729aea2b5386b213e0fd80220662b19fa79e336e18fad33deaeda82e03bb0780ef802957035cd145d4c68b872[ALL] 04025a1cffe502a80dfa1f543ae14c082aff24d5ecadab160ca904d288eed8e3d8cacef0985f690868df4f416c3890909b4c0c843da153d41382ac20c80170240a"}, "vout": 1, "txid": "6af72036951a7fc3af928dcadca40ba9bf7323bc85b18172f061f7233dc60ae0"}, {"sequence": 4294967295, "scriptSig": {"hex": "483045022100b155c86893f1eb9bcafc97ee63b288315e87c624f3923221f1a1e7357f8e60d202206c828b47f82ff40e2b7c86f7d3df055c968fc0144095bdb7ca82aecd8a5f3bed014104025a1cffe502a80dfa1f543ae14c082aff24d5ecadab160ca904d288eed8e3d8cacef0985f690868df4f416c3890909b4c0c843da153d41382ac20c80170240a", "asm": "3045022100b155c86893f1eb9bcafc97ee63b288315e87c624f3923221f1a1e7357f8e60d202206c828b47f82ff40e2b7c86f7d3df055c968fc0144095bdb7ca82aecd8a5f3bed[ALL] 04025a1cffe502a80dfa1f543ae14c082aff24d5ecadab160ca904d288eed8e3d8cacef0985f690868df4f416c3890909b4c0c843da153d41382ac20c80170240a"}, "vout": 1, "txid": "af024226c1d2ddf6d2d131e8fceef265fdc9cf974009c11fd2c8666b0955e18d"}, {"sequence": 4294967295, "scriptSig": {"hex": "473044022078a98d639927e8fb3d083a2ded623b47a8fb9ca695c4951c2ae70106871a18cf022070aa1aa1a8de8bd8d639fd794585923d039d428874693f58a27865c87b9f80e4014104025a1cffe502a80dfa1f543ae14c082aff24d5ecadab160ca904d288eed8e3d8cacef0985f690868df4f416c3890909b4c0c843da153d41382ac20c80170240a", "asm": "3044022078a98d639927e8fb3d083a2ded623b47a8fb9ca695c4951c2ae70106871a18cf022070aa1aa1a8de8bd8d639fd794585923d039d428874693f58a27865c87b9f80e4[ALL] 04025a1cffe502a80dfa1f543ae14c082aff24d5ecadab160ca904d288eed8e3d8cacef0985f690868df4f416c3890909b4c0c843da153d41382ac20c80170240a"}, "vout": 1, "txid": "69e66d07d852b014a65894d5ce23002bc0f24d5cfbe2336ad987d20f0bff3f53"}], "txid": "30d139fdab5eb876cd182e3d7c318464ee791c895cbee068c48d61cd23cf010a", "blocktime": 1537875543, "version": 1, "confirmations": 11464, "time": 1537875543, "locktime": 0, "vsize": 1155, "size": 1155}