{"hash": "30d102625429fd14b5633bf972bc15aa807eb514b2949d3ff403a4d6a80a5def", "blockhash": "00000000000000000004ffacab907a6b429b9a5745fa0b75af4234bf69dd7176", "vout": [{"scriptPubKey": {"reqSigs": 1, "hex": "a9143b10864cbeafe7aff9f0a6bdb51a94ad103d34ae87", "addresses": ["375Kb1dYACPPDaZqyK7gKwiUT5iqoLTs4f"], "asm": "OP_HASH160 3b10864cbeafe7aff9f0a6bdb51a94ad103d34ae OP_EQUAL", "type": "scripthash"}, "value": 0.00262, "n": 0}, {"scriptPubKey": {"reqSigs": 1, "hex": "76a91453215f2f901be3f3fa46a8ec7be4618d182c3f2688ac", "addresses": ["18aZ4dvW4kS7qRkMvuRaQzMv5MR9ptD8BC"], "asm": "OP_DUP OP_HASH160 53215f2f901be3f3fa46a8ec7be4618d182c3f26 OP_EQUALVERIFY OP_CHECKSIG", "type": "pubkeyhash"}, "value": 0.02533502, "n": 1}], "hex": "01000000017b53494bd495e5761f82a038422b049600299082a21ee408446ed4371a5e3a36010000006b483045022100a62936f18239364fb295252b225304676dfb702199fb43c45fa4e5e799cc0d5f02207d73d33426e244f0d7090d3c15ee9cf784c3b8b0ba90b1325d4ea12e074d013d012102fd02345b3425263b9aee28710d55f92604cfc7349f2f4f1716106483479460e9ffffffff0270ff03000000000017a9143b10864cbeafe7aff9f0a6bdb51a94ad103d34ae877ea82600000000001976a91453215f2f901be3f3fa46a8ec7be4618d182c3f2688ac00000000", "vin": [{"sequence": 4294967295, "scriptSig": {"hex": "483045022100a62936f18239364fb295252b225304676dfb702199fb43c45fa4e5e799cc0d5f02207d73d33426e244f0d7090d3c15ee9cf784c3b8b0ba90b1325d4ea12e074d013d012102fd02345b3425263b9aee28710d55f92604cfc7349f2f4f1716106483479460e9", "asm": "3045022100a62936f18239364fb295252b225304676dfb702199fb43c45fa4e5e799cc0d5f02207d73d33426e244f0d7090d3c15ee9cf784c3b8b0ba90b1325d4ea12e074d013d[ALL] 02fd02345b3425263b9aee28710d55f92604cfc7349f2f4f1716106483479460e9"}, "vout": 1, "txid": "363a5e1a37d46e4408e41ea28290290096042b4238a0821f76e595d44b49537b"}], "txid": "30d102625429fd14b5633bf972bc15aa807eb514b2949d3ff403a4d6a80a5def", "blocktime": 1537875543, "version": 1, "confirmations": 11464, "time": 1537875543, "locktime": 0, "vsize": 224, "size": 224}