{"hash": "0284eba3ebee110e66781d694b146dd266133834913107912ca0f7232c50d917", "blockhash": "00000000000000000017f5eb5941039fbcee6240d03bc1f2f8e35350df66a1d8", "vout": [{"scriptPubKey": {"reqSigs": 1, "hex": "76a9149a9e5ef4971837960f5720370265ab6209d4851688ac", "addresses": ["1F6YnM5veNjEpS5qi9XpPBHQ4ZK7M2yQVh"], "asm": "OP_DUP OP_HASH160 9a9e5ef4971837960f5720370265ab6209d48516 OP_EQUALVERIFY OP_CHECKSIG", "type": "pubkeyhash"}, "value": 0.0154, "n": 0}, {"scriptPubKey": {"reqSigs": 1, "hex": "a91482c33e3efcb94ff770ae85b8f12a1c4a1cefce7087", "addresses": ["3DcRfDLTUFRhpDPyS55pQqc8166BnCVoqn"], "asm": "OP_HASH160 82c33e3efcb94ff770ae85b8f12a1c4a1cefce70 OP_EQUAL", "type": "scripthash"}, "value": 0.10481266, "n": 1}], "hex": "020000000001010119aa3e1bf2c6a43478c998829e279650ea0bb549a48814cfc89194f467b9dd01000000171600147f8ca842c93559bf29625ea7305c3622dc62287dfdffffff02a07f1700000000001976a9149a9e5ef4971837960f5720370265ab6209d4851688ac72ee9f000000000017a91482c33e3efcb94ff770ae85b8f12a1c4a1cefce708702483045022100900cfde3afb7e7b5c06fda7f5e48f114c9d075335676eb62fc00a6933383b61d02202918b0ed0dc557c3adfbe8ca965a5a3db0af375946eb694f628499165d02faf0012103fed71a54e5bc5e35a2f2c33118715a3c9af5541bae3052604b0f56f5ad10229515490800", "vin": [{"txinwitness": ["3045022100900cfde3afb7e7b5c06fda7f5e48f114c9d075335676eb62fc00a6933383b61d02202918b0ed0dc557c3adfbe8ca965a5a3db0af375946eb694f628499165d02faf001", "03fed71a54e5bc5e35a2f2c33118715a3c9af5541bae3052604b0f56f5ad102295"], "sequence": 4294967293, "scriptSig": {"hex": "1600147f8ca842c93559bf29625ea7305c3622dc62287d", "asm": "00147f8ca842c93559bf29625ea7305c3622dc62287d"}, "vout": 1, "txid": "ddb967f49491c8cf1488a449b50bea5096279e8298c97834a4c6f21b3eaa1901"}], "txid": "30d9d0c59cba5afec29ea68f91e1cbe88c92529b85ed1f2f4eeea1b19b0abb21", "blocktime": 1537874412, "version": 2, "confirmations": 11468, "time": 1537874412, "locktime": 542997, "vsize": 168, "size": 250}