{"hash": "30dc1a5891d58fbff897ed8e9cfa1837a68144375f9c4fa781f7ef4ec168b7af", "blockhash": "0000000000000000000e13cef7c366c0283d82e591d1acd082e914b08063cdf1", "vout": [{"scriptPubKey": {"type": "nulldata", "hex": "6a4c50000077a40001bde60e8a7e5ee04753821c4faf6c953dd567cf27e7e3ef3236678a625097f15848981ab0ced815e9754ec69827bf5baa0edf0614369547476e541d100759d4ba30d2c37bb011d97e02cf", "asm": "OP_RETURN 000077a40001bde60e8a7e5ee04753821c4faf6c953dd567cf27e7e3ef3236678a625097f15848981ab0ced815e9754ec69827bf5baa0edf0614369547476e541d100759d4ba30d2c37bb011d97e02cf"}, "value": 0.0, "n": 0}, {"scriptPubKey": {"reqSigs": 1, "hex": "76a9148e0118af60ca28b6f05bc6ce5b715df86fdd625788ac", "addresses": ["1DwrGRR2yWAsAkrAhozVPEUYR5cd12ZZLp"], "asm": "OP_DUP OP_HASH160 8e0118af60ca28b6f05bc6ce5b715df86fdd6257 OP_EQUALVERIFY OP_CHECKSIG", "type": "pubkeyhash"}, "value": 0.00642375, "n": 1}], "hex": "0100000001aaf6e47ba78ec8a508abf1c05c17a99c116862baddfd6386bc20f2926967c621010000006a473044022048e968abac1e78df8246f6cbd57728feb0e3fe4fa4f48baa693898f69a5e890402203ac2ba84aca29040c7d4f1c3d9c055f03a6fa9c8ea219ede233010fedad7cbb60121036e974044be9d4a9d61d245ae3d71b16f43f86dfc4a8d9f076f247d9d54b4e98cffffffff020000000000000000536a4c50000077a40001bde60e8a7e5ee04753821c4faf6c953dd567cf27e7e3ef3236678a625097f15848981ab0ced815e9754ec69827bf5baa0edf0614369547476e541d100759d4ba30d2c37bb011d97e02cf47cd0900000000001976a9148e0118af60ca28b6f05bc6ce5b715df86fdd625788ac00000000", "vin": [{"sequence": 4294967295, "scriptSig": {"hex": "473044022048e968abac1e78df8246f6cbd57728feb0e3fe4fa4f48baa693898f69a5e890402203ac2ba84aca29040c7d4f1c3d9c055f03a6fa9c8ea219ede233010fedad7cbb60121036e974044be9d4a9d61d245ae3d71b16f43f86dfc4a8d9f076f247d9d54b4e98c", "asm": "3044022048e968abac1e78df8246f6cbd57728feb0e3fe4fa4f48baa693898f69a5e890402203ac2ba84aca29040c7d4f1c3d9c055f03a6fa9c8ea219ede233010fedad7cbb6[ALL] 036e974044be9d4a9d61d245ae3d71b16f43f86dfc4a8d9f076f247d9d54b4e98c"}, "vout": 1, "txid": "21c6676992f220bc8663fdddba6268119ca9175cc0f1ab08a5c88ea77be4f6aa"}], "txid": "30dc1a5891d58fbff897ed8e9cfa1837a68144375f9c4fa781f7ef4ec168b7af", "blocktime": 1537871767, "version": 1, "confirmations": 11495, "time": 1537871767, "locktime": 0, "vsize": 283, "size": 283}