{"hash": "30e4a16d3eee18bd493453ec484cddb03369c27bf548f680527b2bad34605c3a", "blockhash": "0000000000000000001cda96e906b7601b7a6fb1a3b62bca570a9e5d8f4b3de1", "vout": [{"scriptPubKey": {"reqSigs": 1, "hex": "76a914eaf4cac36b221a9e99fbf4624deff9c7d743a7c788ac", "addresses": ["1NRLNLb9grgeay9sQ9geNJ5WmeTrdMBVfL"], "asm": "OP_DUP OP_HASH160 eaf4cac36b221a9e99fbf4624deff9c7d743a7c7 OP_EQUALVERIFY OP_CHECKSIG", "type": "pubkeyhash"}, "value": 0.12384908, "n": 0}, {"scriptPubKey": {"reqSigs": 1, "hex": "a9143dc2fdd0d5f16429815e006126f91bba2f0f8daf87", "addresses": ["37KajVNzBTEma6rwKMw26QhsbTVWVVScQR"], "asm": "OP_HASH160 3dc2fdd0d5f16429815e006126f91bba2f0f8daf OP_EQUAL", "type": "scripthash"}, "value": 0.2, "n": 1}], "hex": "0100000001a6324d87d05056d6d0473125a03eee4378e14438d35a7b3ef02528e3ef72a61a010000006b4830450221009c323ae7ea53578945f6b4233b1e2d28b9178702095d0a3df782967f74840b1e0220545f49447d99f550e4ccede732328f963b0a514cf5cdf9c73a4785ccab65a9c8012102aa82a8409437fbd9587ef66fe7acf5ab429fa306c8eedd07a1a87f391b53905affffffff028cfabc00000000001976a914eaf4cac36b221a9e99fbf4624deff9c7d743a7c788ac002d31010000000017a9143dc2fdd0d5f16429815e006126f91bba2f0f8daf8700000000", "vin": [{"sequence": 4294967295, "scriptSig": {"hex": "4830450221009c323ae7ea53578945f6b4233b1e2d28b9178702095d0a3df782967f74840b1e0220545f49447d99f550e4ccede732328f963b0a514cf5cdf9c73a4785ccab65a9c8012102aa82a8409437fbd9587ef66fe7acf5ab429fa306c8eedd07a1a87f391b53905a", "asm": "30450221009c323ae7ea53578945f6b4233b1e2d28b9178702095d0a3df782967f74840b1e0220545f49447d99f550e4ccede732328f963b0a514cf5cdf9c73a4785ccab65a9c8[ALL] 02aa82a8409437fbd9587ef66fe7acf5ab429fa306c8eedd07a1a87f391b53905a"}, "vout": 1, "txid": "1aa672efe32825f03e7b5ad33844e17843ee3ea0253147d0d65650d0874d32a6"}], "txid": "30e4a16d3eee18bd493453ec484cddb03369c27bf548f680527b2bad34605c3a", "blocktime": 1537873282, "version": 1, "confirmations": 11484, "time": 1537873282, "locktime": 0, "vsize": 224, "size": 224}