{"hash": "083f346613f70d0bfdf7e6418dcd231f6de54a8dce467d77cb66c649a0f24561", "blockhash": "0000000000000000000dcc0f55137456b1a82d3642486a52398922ac4d620174", "vout": [{"scriptPubKey": {"reqSigs": 1, "hex": "76a914c42fd56ae04cde5c6f7cc8f643d8bd3fc99368b588ac", "addresses": ["1JtLk97Wkw1Vhfe54obbgWXNriim4NWKfQ"], "asm": "OP_DUP OP_HASH160 c42fd56ae04cde5c6f7cc8f643d8bd3fc99368b5 OP_EQUALVERIFY OP_CHECKSIG", "type": "pubkeyhash"}, "value": 0.18246101, "n": 0}, {"scriptPubKey": {"reqSigs": 1, "hex": "00148c73bd99d8db193e661c93ff4c73b5be1d7f2617", "addresses": ["bc1q33emmxwcmvvnuesuj0l5cua4hcwh7fshvpdl8j"], "asm": "0 8c73bd99d8db193e661c93ff4c73b5be1d7f2617", "type": "witness_v0_keyhash"}, "value": 0.01105701, "n": 1}], "hex": "010000000001010e09cc73107838e6eb0bd76edbd50a8c4523ebdf36b6623a2dbf0bd9a42c67ae0100000000ffffffff02d5691601000000001976a914c42fd56ae04cde5c6f7cc8f643d8bd3fc99368b588ac25df1000000000001600148c73bd99d8db193e661c93ff4c73b5be1d7f261702473044022072d9cbc203ba825b7b9baa8fc59c8460cef7afde7a0a170bd1346b96f4f6a6b9022068d2202793ac9dee40850800486b392bdf4f8c1c9d67d326327e3c5f86c9984501210284a3b028c24edf849470964e91138783914366a5646dfbb533b0dd0c4b44d29a00000000", "vin": [{"txinwitness": ["3044022072d9cbc203ba825b7b9baa8fc59c8460cef7afde7a0a170bd1346b96f4f6a6b9022068d2202793ac9dee40850800486b392bdf4f8c1c9d67d326327e3c5f86c9984501", "0284a3b028c24edf849470964e91138783914366a5646dfbb533b0dd0c4b44d29a"], "sequence": 4294967295, "scriptSig": {"hex": "", "asm": ""}, "vout": 1, "txid": "ae672ca4d90bbf2d3a62b636dfeb23458c0ad5db6ed70bebe638781073cc090e"}], "txid": "30e800bf937b987a6810f878c53969822b75e0d01822eae4e119adffa1085859", "blocktime": 1537870268, "version": 1, "confirmations": 11518, "time": 1537870268, "locktime": 0, "vsize": 144, "size": 225}