{"hash": "30e9d3453a3f1d6dac20f421db35d7bddbe31907a6a2ab2c7f8f86827b75f9d8", "blockhash": "0000000000000000001f76057863aec43deb6fa401d9628bb513d65a8098bfab", "vout": [{"scriptPubKey": {"reqSigs": 1, "hex": "a914c87c5b71a77fe018e196efdb732582df6d1c05f587", "addresses": ["3Ky63Q97FJWjV9t6wwA1bnCfmCHWattGZM"], "asm": "OP_HASH160 c87c5b71a77fe018e196efdb732582df6d1c05f5 OP_EQUAL", "type": "scripthash"}, "value": 0.00410526, "n": 0}, {"scriptPubKey": {"reqSigs": 1, "hex": "76a914fc6d6e668fc93d18abbb3bb205dd2df1c4eb598088ac", "addresses": ["1Q1iNkxrmoQa3e2X7KbVMDLmD9hssHDoUs"], "asm": "OP_DUP OP_HASH160 fc6d6e668fc93d18abbb3bb205dd2df1c4eb5980 OP_EQUALVERIFY OP_CHECKSIG", "type": "pubkeyhash"}, "value": 0.00015274, "n": 1}], "hex": "0100000002be0ebeb856a8a596decd4dd9f76c7f79cd794f0972efa2bce055acdf3b4d4ef000000000da00483045022100b488ebe7537d081ef457428e2fcba67a4118f9b5940356430596159e75c0b54a02205677d1fcabdc49d8c75eec0a600c0db1ad6cd31377fc414058c50ab93c5a11e40147304402200426cd40e9d5baa66fe8ff60cf1ac57f07376f895d3f9b9e7d434d47afc0abff022033f6d2ca2ab27a66d97e6086812feafb8e7e5bd4a66075af74b2dc9ce474d2830147522102907a54bed8ad74b3f35638c60114ca240a308cb986f3f2f306178869a8880b612102bb2a186fd64b3b2d1e6015bc8b6ef115a2e3c6b4050b8c807dcf4a6fa50cb1b952aeffffffff8eb7feb3ade450987ac75356dc0a5d807eec8e741783b26a90fe38583459c086010000006b483045022100b93c5daff851953354a0acf005c74f2552ac0a77aec6622827c7d63b850ffcce02205f205b3c2810f5b326c3a69d1e9d16700697ec223456eb4c5cbf2ee5d85591470121030c4d3775eeebef50614f58387876c1a871a0704bf7d1752824866830b07a4192ffffffff029e4306000000000017a914c87c5b71a77fe018e196efdb732582df6d1c05f587aa3b0000000000001976a914fc6d6e668fc93d18abbb3bb205dd2df1c4eb598088ac00000000", "vin": [{"sequence": 4294967295, "scriptSig": {"hex": "00483045022100b488ebe7537d081ef457428e2fcba67a4118f9b5940356430596159e75c0b54a02205677d1fcabdc49d8c75eec0a600c0db1ad6cd31377fc414058c50ab93c5a11e40147304402200426cd40e9d5baa66fe8ff60cf1ac57f07376f895d3f9b9e7d434d47afc0abff022033f6d2ca2ab27a66d97e6086812feafb8e7e5bd4a66075af74b2dc9ce474d2830147522102907a54bed8ad74b3f35638c60114ca240a308cb986f3f2f306178869a8880b612102bb2a186fd64b3b2d1e6015bc8b6ef115a2e3c6b4050b8c807dcf4a6fa50cb1b952ae", "asm": "0 3045022100b488ebe7537d081ef457428e2fcba67a4118f9b5940356430596159e75c0b54a02205677d1fcabdc49d8c75eec0a600c0db1ad6cd31377fc414058c50ab93c5a11e4[ALL] 304402200426cd40e9d5baa66fe8ff60cf1ac57f07376f895d3f9b9e7d434d47afc0abff022033f6d2ca2ab27a66d97e6086812feafb8e7e5bd4a66075af74b2dc9ce474d283[ALL] 522102907a54bed8ad74b3f35638c60114ca240a308cb986f3f2f306178869a8880b612102bb2a186fd64b3b2d1e6015bc8b6ef115a2e3c6b4050b8c807dcf4a6fa50cb1b952ae"}, "vout": 0, "txid": "f04e4d3bdfac55e0bca2ef72094f79cd797f6cf7d94dcdde96a5a856b8be0ebe"}, {"sequence": 4294967295, "scriptSig": {"hex": "483045022100b93c5daff851953354a0acf005c74f2552ac0a77aec6622827c7d63b850ffcce02205f205b3c2810f5b326c3a69d1e9d16700697ec223456eb4c5cbf2ee5d85591470121030c4d3775eeebef50614f58387876c1a871a0704bf7d1752824866830b07a4192", "asm": "3045022100b93c5daff851953354a0acf005c74f2552ac0a77aec6622827c7d63b850ffcce02205f205b3c2810f5b326c3a69d1e9d16700697ec223456eb4c5cbf2ee5d8559147[ALL] 030c4d3775eeebef50614f58387876c1a871a0704bf7d1752824866830b07a4192"}, "vout": 1, "txid": "86c059345838fe906ab28317748eec7e805d0adc5653c77a9850e4adb3feb78e"}], "txid": "30e9d3453a3f1d6dac20f421db35d7bddbe31907a6a2ab2c7f8f86827b75f9d8", "blocktime": 1537873891, "version": 1, "confirmations": 11478, "time": 1537873891, "locktime": 0, "vsize": 483, "size": 483}