{"hash": "30ea1349003746bbc95f26c53b7bac5f6a7e1b5721745513bbf769c2cf057f67", "blockhash": "00000000000000000017f5eb5941039fbcee6240d03bc1f2f8e35350df66a1d8", "vout": [{"scriptPubKey": {"reqSigs": 1, "hex": "76a914a98d97f7e8145eeb413292ce31fc382170c0c18488ac", "addresses": ["1GTWpWz8keexVDhLTbcw7qv53yN1SNR2Mt"], "asm": "OP_DUP OP_HASH160 a98d97f7e8145eeb413292ce31fc382170c0c184 OP_EQUALVERIFY OP_CHECKSIG", "type": "pubkeyhash"}, "value": 0.03620157, "n": 0}], "hex": "0100000003c39c8bd9a32d45a1cbfe2c0c0446e0632d4fbf9ab39032ca7c3ea54b80bb7818010000006a47304402202a8e2629aff14e24b31ebb1122063c27d0bb3902dee060b913b8245a7a3729e8022003e6cbaae6f12736482ce8b8d274d681156eb8bbee13ff9d880a38fbeaad57fe012102b8edc2ead03bce591e9202d65eb76a4c8566aa8843918bcf79a693899bfa96c1ffffffff647fcc2abbfdb18e4fce1973aa14f1420f34c70992df21bbed045f9070d6139d000000006b483045022100be7a2358b231086e36e223167cedda36dcb42c9045147cc5b4896fd528fa12a602205c211a3ada1ca1725e218d54648b98c71ee76454dc8ccb3eb63ce26e4caa2a8c012102f946797dd03f4a1ea913670a5123d9fb0441fd2a7fec5278419b9ce512cdac08ffffffffb1430ff1b67a14ff5b51faefbe9c6837eefc95db7c2da624535aae00af52a5d9000000006a4730440220262326a6f19314d7706805e491c23772fb270f78fad03a02f69517773f7cabf402204cc2b29771115d9dc7376e8cfeef1deed82cb0593403ac20f222644cb695cf1c012102f946797dd03f4a1ea913670a5123d9fb0441fd2a7fec5278419b9ce512cdac08ffffffff013d3d3700000000001976a914a98d97f7e8145eeb413292ce31fc382170c0c18488ac00000000", "vin": [{"sequence": 4294967295, "scriptSig": {"hex": "47304402202a8e2629aff14e24b31ebb1122063c27d0bb3902dee060b913b8245a7a3729e8022003e6cbaae6f12736482ce8b8d274d681156eb8bbee13ff9d880a38fbeaad57fe012102b8edc2ead03bce591e9202d65eb76a4c8566aa8843918bcf79a693899bfa96c1", "asm": "304402202a8e2629aff14e24b31ebb1122063c27d0bb3902dee060b913b8245a7a3729e8022003e6cbaae6f12736482ce8b8d274d681156eb8bbee13ff9d880a38fbeaad57fe[ALL] 02b8edc2ead03bce591e9202d65eb76a4c8566aa8843918bcf79a693899bfa96c1"}, "vout": 1, "txid": "1878bb804ba53e7cca3290b39abf4f2d63e046040c2cfecba1452da3d98b9cc3"}, {"sequence": 4294967295, "scriptSig": {"hex": "483045022100be7a2358b231086e36e223167cedda36dcb42c9045147cc5b4896fd528fa12a602205c211a3ada1ca1725e218d54648b98c71ee76454dc8ccb3eb63ce26e4caa2a8c012102f946797dd03f4a1ea913670a5123d9fb0441fd2a7fec5278419b9ce512cdac08", "asm": "3045022100be7a2358b231086e36e223167cedda36dcb42c9045147cc5b4896fd528fa12a602205c211a3ada1ca1725e218d54648b98c71ee76454dc8ccb3eb63ce26e4caa2a8c[ALL] 02f946797dd03f4a1ea913670a5123d9fb0441fd2a7fec5278419b9ce512cdac08"}, "vout": 0, "txid": "9d13d670905f04edbb21df9209c7340f42f114aa7319ce4f8eb1fdbb2acc7f64"}, {"sequence": 4294967295, "scriptSig": {"hex": "4730440220262326a6f19314d7706805e491c23772fb270f78fad03a02f69517773f7cabf402204cc2b29771115d9dc7376e8cfeef1deed82cb0593403ac20f222644cb695cf1c012102f946797dd03f4a1ea913670a5123d9fb0441fd2a7fec5278419b9ce512cdac08", "asm": "30440220262326a6f19314d7706805e491c23772fb270f78fad03a02f69517773f7cabf402204cc2b29771115d9dc7376e8cfeef1deed82cb0593403ac20f222644cb695cf1c[ALL] 02f946797dd03f4a1ea913670a5123d9fb0441fd2a7fec5278419b9ce512cdac08"}, "vout": 0, "txid": "d9a552af00ae5a5324a62d7cdb95fcee37689cbeeffa515bff147ab6f10f43b1"}], "txid": "30ea1349003746bbc95f26c53b7bac5f6a7e1b5721745513bbf769c2cf057f67", "blocktime": 1537874412, "version": 1, "confirmations": 11467, "time": 1537874412, "locktime": 0, "vsize": 486, "size": 486}