{"hash": "30ed933b311044084095c11aa9783989a579d2a267820095f6e387f11d7f5863", "blockhash": "0000000000000000000e13cef7c366c0283d82e591d1acd082e914b08063cdf1", "vout": [{"scriptPubKey": {"reqSigs": 1, "hex": "76a91479751aca3125cd914bdd568069dfeb663805b20f88ac", "addresses": ["1C5D3nXu6Vycf2HFXBJYAeHPHG28Fy67ST"], "asm": "OP_DUP OP_HASH160 79751aca3125cd914bdd568069dfeb663805b20f OP_EQUALVERIFY OP_CHECKSIG", "type": "pubkeyhash"}, "value": 5.774e-05, "n": 0}, {"scriptPubKey": {"reqSigs": 1, "hex": "76a9148980ac544c721b66c366bd5e69b54eefffac568c88ac", "addresses": ["1DY3iedPoMXpxt4g3MQRWsJUwQHSH7mbj1"], "asm": "OP_DUP OP_HASH160 8980ac544c721b66c366bd5e69b54eefffac568c OP_EQUALVERIFY OP_CHECKSIG", "type": "pubkeyhash"}, "value": 0.00578448, "n": 1}], "hex": "010000000138a74c47a34023e3b146197723cf5a9bad6df76f466a77c3fcf7d913eafc3166000000006b483045022100fd5c304edcd7afdb372b6d46205b46a716b97526c02571c726f04c207660ee9e02203a3e4451b1899944955885fc2ebc7431f85b6ac5d4a1dcae4ac11977b49b197b012102cc1c38eddab1170ff21b01a34f39e2d28270f4d036dbfed9f44afe46b103cd6fffffffff028e160000000000001976a91479751aca3125cd914bdd568069dfeb663805b20f88ac90d30800000000001976a9148980ac544c721b66c366bd5e69b54eefffac568c88ac00000000", "vin": [{"sequence": 4294967295, "scriptSig": {"hex": "483045022100fd5c304edcd7afdb372b6d46205b46a716b97526c02571c726f04c207660ee9e02203a3e4451b1899944955885fc2ebc7431f85b6ac5d4a1dcae4ac11977b49b197b012102cc1c38eddab1170ff21b01a34f39e2d28270f4d036dbfed9f44afe46b103cd6f", "asm": "3045022100fd5c304edcd7afdb372b6d46205b46a716b97526c02571c726f04c207660ee9e02203a3e4451b1899944955885fc2ebc7431f85b6ac5d4a1dcae4ac11977b49b197b[ALL] 02cc1c38eddab1170ff21b01a34f39e2d28270f4d036dbfed9f44afe46b103cd6f"}, "vout": 0, "txid": "6631fcea13d9f7fcc3776a466ff76dad9b5acf23771946b1e32340a3474ca738"}], "txid": "30ed933b311044084095c11aa9783989a579d2a267820095f6e387f11d7f5863", "blocktime": 1537871767, "version": 1, "confirmations": 11495, "time": 1537871767, "locktime": 0, "vsize": 226, "size": 226}