{"hash": "2478c8f02c14da85c96e3de995fe347ac65f8ca54dfb5fbd6c4066d0459eab37", "blockhash": "00000000000000000017f5eb5941039fbcee6240d03bc1f2f8e35350df66a1d8", "vout": [{"scriptPubKey": {"reqSigs": 1, "hex": "a9141f0991ffb2850402b747a58c3d109f744c2e733387", "addresses": ["34X8LStTC6mzVcFvA2zZU1swpEqHAjZZWd"], "asm": "OP_HASH160 1f0991ffb2850402b747a58c3d109f744c2e7333 OP_EQUAL", "type": "scripthash"}, "value": 0.1649226, "n": 0}, {"scriptPubKey": {"reqSigs": 1, "hex": "a9142ebc1e69646878b30bb6ef98e7bc3419fd8b747387", "addresses": ["35x8N6ESs3nNiZt9roY1E3QpCWod4EnsJw"], "asm": "OP_HASH160 2ebc1e69646878b30bb6ef98e7bc3419fd8b7473 OP_EQUAL", "type": "scripthash"}, "value": 0.0205, "n": 1}], "hex": "02000000000101875977309e22c8707d83059cc0cd2ffcd3e5f8caeafd61f0c17ba9f32db5f7ff0000000017160014250db0bebeff3151d0c3355067c5e87133bf3b4cfdffffff02e4a6fb000000000017a9141f0991ffb2850402b747a58c3d109f744c2e733387d0471f000000000017a9142ebc1e69646878b30bb6ef98e7bc3419fd8b74738702483045022100b755e0d6538260569f62b894dd405268ed3416e88a67e24ae1775dd8c402b9680220458533bedac69dce1cb3bed8c21811a8f6c6ea6caffd847c50662a0df4e781d701210391d2052e788e01b56b7933e98d0fbbf5b5d98b528c39b851ec76e878936c8a5015490800", "vin": [{"txinwitness": ["3045022100b755e0d6538260569f62b894dd405268ed3416e88a67e24ae1775dd8c402b9680220458533bedac69dce1cb3bed8c21811a8f6c6ea6caffd847c50662a0df4e781d701", "0391d2052e788e01b56b7933e98d0fbbf5b5d98b528c39b851ec76e878936c8a50"], "sequence": 4294967293, "scriptSig": {"hex": "160014250db0bebeff3151d0c3355067c5e87133bf3b4c", "asm": "0014250db0bebeff3151d0c3355067c5e87133bf3b4c"}, "vout": 0, "txid": "fff7b52df3a97bc1f061fdeacaf8e5d3fc2fcdc09c05837d70c8229e30775987"}], "txid": "30f27502a13e0f4ecf7d08f0a680aa28d4ac70ff48e1ee0bf10c70155ec105b4", "blocktime": 1537874412, "version": 2, "confirmations": 11467, "time": 1537874412, "locktime": 542997, "vsize": 166, "size": 248}