{"hash": "30f308cf6b9233b309214b49a990b3fd016231a8582562fc461270a5b93f4009", "blockhash": "000000000000000000205f8b0775d31398ef75b89a5e8ec8d2c57b4dc0ac4c20", "vout": [{"scriptPubKey": {"reqSigs": 1, "hex": "76a91472d07d390f6cd8bca323176e526ae47558abf43388ac", "addresses": ["1BU5nx372uukKApxStMNPTDyzayCvfJmKy"], "asm": "OP_DUP OP_HASH160 72d07d390f6cd8bca323176e526ae47558abf433 OP_EQUALVERIFY OP_CHECKSIG", "type": "pubkeyhash"}, "value": 0.70328983, "n": 0}, {"scriptPubKey": {"reqSigs": 1, "hex": "76a91436918117b2df27f652797896a3343ca991019c5588ac", "addresses": ["15yXoB1fS8S6jtHNtYSUzfxca5CLoyao9Y"], "asm": "OP_DUP OP_HASH160 36918117b2df27f652797896a3343ca991019c55 OP_EQUALVERIFY OP_CHECKSIG", "type": "pubkeyhash"}, "value": 5.4882127, "n": 1}], "hex": "0100000002c23119f68f5feddd4b7070999c6b502566ed096723d4319cae8fe375dd65fb37010000006b483045022100e5bec4158c008deb0728fa18cbf70505c9ce62eee84e411ecf3ec2e742b0baf102202e62a0ce7cb1420565bb9badc40f3fcadfbb4de92ee88291250c12df1f57dc870121035799f2b4926e73aacda8d9cf1ee0db12dc19a84d4f7375996df6dfb1bddcfa38ffffff00a4feb5567d43561c21d5a77afac361d0a5f5a91cd0917e2fe2dc7e2ce3d477bc010000006a4730440220520530f86495829710639b4b537a11fba3db26cc381252195a1895a9a9153c6f02204bc1617e8dce6ab43a52d89ff724b29124cbfe7ea57387ceb46aff97e9360af701210232dcb77d7ef9d5d1ff437d710770982d526d3138c1637477424c14da0877bce2ffffff000297223104000000001976a91472d07d390f6cd8bca323176e526ae47558abf43388ac1659b620000000001976a91436918117b2df27f652797896a3343ca991019c5588ac00000000", "vin": [{"sequence": 16777215, "scriptSig": {"hex": "483045022100e5bec4158c008deb0728fa18cbf70505c9ce62eee84e411ecf3ec2e742b0baf102202e62a0ce7cb1420565bb9badc40f3fcadfbb4de92ee88291250c12df1f57dc870121035799f2b4926e73aacda8d9cf1ee0db12dc19a84d4f7375996df6dfb1bddcfa38", "asm": "3045022100e5bec4158c008deb0728fa18cbf70505c9ce62eee84e411ecf3ec2e742b0baf102202e62a0ce7cb1420565bb9badc40f3fcadfbb4de92ee88291250c12df1f57dc87[ALL] 035799f2b4926e73aacda8d9cf1ee0db12dc19a84d4f7375996df6dfb1bddcfa38"}, "vout": 1, "txid": "37fb65dd75e38fae9c31d4236709ed6625506b9c9970704bdded5f8ff61931c2"}, {"sequence": 16777215, "scriptSig": {"hex": "4730440220520530f86495829710639b4b537a11fba3db26cc381252195a1895a9a9153c6f02204bc1617e8dce6ab43a52d89ff724b29124cbfe7ea57387ceb46aff97e9360af701210232dcb77d7ef9d5d1ff437d710770982d526d3138c1637477424c14da0877bce2", "asm": "30440220520530f86495829710639b4b537a11fba3db26cc381252195a1895a9a9153c6f02204bc1617e8dce6ab43a52d89ff724b29124cbfe7ea57387ceb46aff97e9360af7[ALL] 0232dcb77d7ef9d5d1ff437d710770982d526d3138c1637477424c14da0877bce2"}, "vout": 1, "txid": "bc77d4e32c7edce22f7e91d01ca9f5a5d061c3fa7aa7d5211c56437d56b5fea4"}], "txid": "30f308cf6b9233b309214b49a990b3fd016231a8582562fc461270a5b93f4009", "blocktime": 1537871175, "version": 1, "confirmations": 11511, "time": 1537871175, "locktime": 0, "vsize": 373, "size": 373}