{"hash": "30f7eb48f0dd5c928466c3e3e9af9e09694f0583d1b4ed7bd533cc1a77350013", "blockhash": "0000000000000000001f76057863aec43deb6fa401d9628bb513d65a8098bfab", "vout": [{"scriptPubKey": {"type": "nulldata", "hex": "6a4c50000077dd0001df7f9b25c367783ad17e05127af8e8e963c7cfd5b95b23cc0f42c2fc38c574de08ad8eb88e5b1ec203ef39f6eff25baa161e06130a5f4f3406734bbf23acfcfaac8058b692fe6808c31d", "asm": "OP_RETURN 000077dd0001df7f9b25c367783ad17e05127af8e8e963c7cfd5b95b23cc0f42c2fc38c574de08ad8eb88e5b1ec203ef39f6eff25baa161e06130a5f4f3406734bbf23acfcfaac8058b692fe6808c31d"}, "value": 0.0, "n": 0}, {"scriptPubKey": {"reqSigs": 1, "hex": "76a914cf54240748d15655e764d2a02aeabb4d5e14ba9388ac", "addresses": ["1KuFfumMJtNDGhVkS4X2viSGRDUp1TsB3k"], "asm": "OP_DUP OP_HASH160 cf54240748d15655e764d2a02aeabb4d5e14ba93 OP_EQUALVERIFY OP_CHECKSIG", "type": "pubkeyhash"}, "value": 8.575e-05, "n": 1}], "hex": "0100000001c6b58cb697d0fa3d52f8ad0cca119db8449dce975f873803728d8e8fc1f6ee86000000006a473044022034529d868e697bd0b2c3493a2f6429a1c05c174d4ee0871c77a8990f867b24cf022047dd52b7ca281cbac93ae7a91944de3c200b6cdbdf4192e11f16d78a6eba375f0121020373dbb550e5917905a2157435fb037340b81066b08146050b59f82cac724098ffffffff020000000000000000536a4c50000077dd0001df7f9b25c367783ad17e05127af8e8e963c7cfd5b95b23cc0f42c2fc38c574de08ad8eb88e5b1ec203ef39f6eff25baa161e06130a5f4f3406734bbf23acfcfaac8058b692fe6808c31d7f210000000000001976a914cf54240748d15655e764d2a02aeabb4d5e14ba9388ac00000000", "vin": [{"sequence": 4294967295, "scriptSig": {"hex": "473044022034529d868e697bd0b2c3493a2f6429a1c05c174d4ee0871c77a8990f867b24cf022047dd52b7ca281cbac93ae7a91944de3c200b6cdbdf4192e11f16d78a6eba375f0121020373dbb550e5917905a2157435fb037340b81066b08146050b59f82cac724098", "asm": "3044022034529d868e697bd0b2c3493a2f6429a1c05c174d4ee0871c77a8990f867b24cf022047dd52b7ca281cbac93ae7a91944de3c200b6cdbdf4192e11f16d78a6eba375f[ALL] 020373dbb550e5917905a2157435fb037340b81066b08146050b59f82cac724098"}, "vout": 0, "txid": "86eef6c18f8e8d720338875f97ce9d44b89d11ca0cadf8523dfad097b68cb5c6"}], "txid": "30f7eb48f0dd5c928466c3e3e9af9e09694f0583d1b4ed7bd533cc1a77350013", "blocktime": 1537873891, "version": 1, "confirmations": 11478, "time": 1537873891, "locktime": 0, "vsize": 283, "size": 283}