{"hash": "30f7d91246521993570365c52ea81d1bb4a3d75fc702b83c31a0824cc8870678", "blockhash": "0000000000000000000baef3f32e3676a92c3b2e5da21b426e4f302fc371ce76", "vout": [{"scriptPubKey": {"reqSigs": 1, "hex": "76a914c3ba6b5f34fe5ff31efeb5dc8906b41f875df13788ac", "addresses": ["1Jqv64DQd4gBemHbD83sdBweyUtrGXehbY"], "asm": "OP_DUP OP_HASH160 c3ba6b5f34fe5ff31efeb5dc8906b41f875df137 OP_EQUALVERIFY OP_CHECKSIG", "type": "pubkeyhash"}, "value": 0.04482624, "n": 0}, {"scriptPubKey": {"reqSigs": 1, "hex": "76a914e16fb013fcf5d4d735de2ae3a91170a224b5c67988ac", "addresses": ["1MYzqNGBM63msAh5h2fZkw1wCbQRzgq31e"], "asm": "OP_DUP OP_HASH160 e16fb013fcf5d4d735de2ae3a91170a224b5c679 OP_EQUALVERIFY OP_CHECKSIG", "type": "pubkeyhash"}, "value": 0.0531957, "n": 1}], "hex": "010000000231251c37ea8a751838f912dd28f2b188a7460b95b8acbe9f4a905df79b0d0462010000006a473044022032e36f4cae080a6b216b193f5cccf3f3e34124af34680a11b81a6b06b47af76c02206d272a6ded9fad8606d090e5aad5fe0d43a156102912dbafb3dccebe51bd2301012102def61116488c90adac15d0682256901500659cbf1e90793bbae0c549ac5b8e5bfdffffff9b5d2a96040f742f5a96f8ac614e0b73c01daf710be8173d6c92fa984a99226d000000006a473044022017cd8ee316c5e5652bd007c8feb29627461b959acef942162174f06318f4120602201681c73d0bc804f9ac2790fddffdaf45e096eac8037f9e320ddf942346adafce012102e7fc43d6b3075e8bf3ce5c9b50b11316d81bb73f38ac3ab0cc0f1aec2b9516e1fdffffff0240664400000000001976a914c3ba6b5f34fe5ff31efeb5dc8906b41f875df13788ac922b5100000000001976a914e16fb013fcf5d4d735de2ae3a91170a224b5c67988ac17490800", "vin": [{"sequence": 4294967293, "scriptSig": {"hex": "473044022032e36f4cae080a6b216b193f5cccf3f3e34124af34680a11b81a6b06b47af76c02206d272a6ded9fad8606d090e5aad5fe0d43a156102912dbafb3dccebe51bd2301012102def61116488c90adac15d0682256901500659cbf1e90793bbae0c549ac5b8e5b", "asm": "3044022032e36f4cae080a6b216b193f5cccf3f3e34124af34680a11b81a6b06b47af76c02206d272a6ded9fad8606d090e5aad5fe0d43a156102912dbafb3dccebe51bd2301[ALL] 02def61116488c90adac15d0682256901500659cbf1e90793bbae0c549ac5b8e5b"}, "vout": 1, "txid": "62040d9bf75d904a9fbeacb8950b46a788b1f228dd12f93818758aea371c2531"}, {"sequence": 4294967293, "scriptSig": {"hex": "473044022017cd8ee316c5e5652bd007c8feb29627461b959acef942162174f06318f4120602201681c73d0bc804f9ac2790fddffdaf45e096eac8037f9e320ddf942346adafce012102e7fc43d6b3075e8bf3ce5c9b50b11316d81bb73f38ac3ab0cc0f1aec2b9516e1", "asm": "3044022017cd8ee316c5e5652bd007c8feb29627461b959acef942162174f06318f4120602201681c73d0bc804f9ac2790fddffdaf45e096eac8037f9e320ddf942346adafce[ALL] 02e7fc43d6b3075e8bf3ce5c9b50b11316d81bb73f38ac3ab0cc0f1aec2b9516e1"}, "vout": 0, "txid": "6d22994a98fa926c3d17e80b71af1dc0730b4e61acf8965a2f740f04962a5d9b"}], "txid": "30f7d91246521993570365c52ea81d1bb4a3d75fc702b83c31a0824cc8870678", "blocktime": 1537876114, "version": 1, "confirmations": 11460, "time": 1537876114, "locktime": 542999, "vsize": 372, "size": 372}