{"hash": "30fa82a8d816f8116589b53686f0cb7c8e5b56f1b33afddf51ab268b02f2c9fc", "blockhash": "0000000000000000000baef3f32e3676a92c3b2e5da21b426e4f302fc371ce76", "vout": [{"scriptPubKey": {"reqSigs": 1, "hex": "76a91449799182eae3791b1533c1c28e1ecd01f108a63588ac", "addresses": ["17hVxj1tvuxPen3G9afC4QYx2MByKKqua3"], "asm": "OP_DUP OP_HASH160 49799182eae3791b1533c1c28e1ecd01f108a635 OP_EQUALVERIFY OP_CHECKSIG", "type": "pubkeyhash"}, "value": 8.522e-05, "n": 0}, {"scriptPubKey": {"reqSigs": 1, "hex": "76a9143a86bec71f4d2a0cd915bcb2e18cefcb253cbe4488ac", "addresses": ["16LTcPYDMoZXEvYiaQw76xwR4UjQp7VntX"], "asm": "OP_DUP OP_HASH160 3a86bec71f4d2a0cd915bcb2e18cefcb253cbe44 OP_EQUALVERIFY OP_CHECKSIG", "type": "pubkeyhash"}, "value": 0.0017, "n": 1}], "hex": "0100000001067b6a58fce9fe6a6fc25f897879b7fb10f22d2a68a58883a12b681efe529f63000000006b483045022100cffaadd4f41cde875d05196155896848bdb7bef0e1ad6debd078d77a2b32eedf022076d1a8da3eb503bc5a36fdada56bdfedeb5a77057a05c68014b2b27d551efa2e012102d3760564381dc7c66d8e4919eeb7fa7dbdda339e1efbae84d33a33237e19cd2afdffffff024a210000000000001976a91449799182eae3791b1533c1c28e1ecd01f108a63588ac10980200000000001976a9143a86bec71f4d2a0cd915bcb2e18cefcb253cbe4488ac16490800", "vin": [{"sequence": 4294967293, "scriptSig": {"hex": "483045022100cffaadd4f41cde875d05196155896848bdb7bef0e1ad6debd078d77a2b32eedf022076d1a8da3eb503bc5a36fdada56bdfedeb5a77057a05c68014b2b27d551efa2e012102d3760564381dc7c66d8e4919eeb7fa7dbdda339e1efbae84d33a33237e19cd2a", "asm": "3045022100cffaadd4f41cde875d05196155896848bdb7bef0e1ad6debd078d77a2b32eedf022076d1a8da3eb503bc5a36fdada56bdfedeb5a77057a05c68014b2b27d551efa2e[ALL] 02d3760564381dc7c66d8e4919eeb7fa7dbdda339e1efbae84d33a33237e19cd2a"}, "vout": 0, "txid": "639f52fe1e682ba18388a5682a2df210fbb77978895fc26f6afee9fc586a7b06"}], "txid": "30fa82a8d816f8116589b53686f0cb7c8e5b56f1b33afddf51ab268b02f2c9fc", "blocktime": 1537876114, "version": 1, "confirmations": 11462, "time": 1537876114, "locktime": 542998, "vsize": 226, "size": 226}