{"hash": "310505ab204efb43abed7a216aa66591c8fc960bc9f57c9d4177fa30dc517f40", "blockhash": "00000000000000000017f5eb5941039fbcee6240d03bc1f2f8e35350df66a1d8", "vout": [{"scriptPubKey": {"reqSigs": 1, "hex": "76a9147d39be2f371df9693a8861e1ca846f967dd67d8e88ac", "addresses": ["1CR8e2XkZqtLxHZ9xmz7qUb1pmYztgNYiB"], "asm": "OP_DUP OP_HASH160 7d39be2f371df9693a8861e1ca846f967dd67d8e OP_EQUALVERIFY OP_CHECKSIG", "type": "pubkeyhash"}, "value": 0.0320361, "n": 0}], "hex": "01000000065c4090fe058f4b63a925bd18d9061cf06edfb13b9d138bf2777034db4e8be3a0010000006a473044022016482f88ef53ca040d6d2c8827e1fbb7385d2cc1a33aa5f0ded47fca85789955022018862951e1d91c2635fc410d45cdb181223fa9f19136b0c3f14e4cfd5c423994012102e13c1ddabd1e0004fd9ff7b67edabbd05f9e92c2e8fd4fdb827e4fb3c45321c2ffffffff9d2b9b423262d36e9aa37a7be17c61e9e8ab185abcdfe63c41a6d07f1104fc42010000006b483045022100d3a6cceb374d13f188774a0b2b3910c292ac786fdf9f3ad841e2e392e7dde14e022038999c06ab17a09a08c779d58fb4d9b4b7ab69deff900a2feb9ece767dc2967d012102e13c1ddabd1e0004fd9ff7b67edabbd05f9e92c2e8fd4fdb827e4fb3c45321c2ffffffff794af9c033dea58c34aa70a36f58131c89ea95e897a40de5b7cae867b589cf8f000000006a47304402204bf4310919fc145a791b2125939bc13eb87534a40d9f6b8d14b4127783c4e10a0220395a97ea0f8d6b6605895c38d2486a563f1191b44d46c8328d4c965b299c9ff7012102e13c1ddabd1e0004fd9ff7b67edabbd05f9e92c2e8fd4fdb827e4fb3c45321c2ffffffff9d54a38efba5e49df5e451b3c19e81e3dc3c9f48966ebf82ad24e7b83f7e79e4010000006b483045022100fe2bcae890801558c911036d95284227b3a84c6a9e88b04b64c23a06791bcef202202f6ca500f4a6c50b31f529d5ac25798e9dc774f1989eb204e17070314365ba88012102e13c1ddabd1e0004fd9ff7b67edabbd05f9e92c2e8fd4fdb827e4fb3c45321c2ffffffffcaf7af539534959b369503056549632e9f15ace0e5ed1a8d97ae1b29d19f3781010000006a473044022041dc0c4b9a8909a02d165210b702a962470400f18f16f73fbc4c331627fca6b7022026ed4b09b913a533663cdf0459dfee977d503db84df4ff9f4a0fb13fce081742012102e13c1ddabd1e0004fd9ff7b67edabbd05f9e92c2e8fd4fdb827e4fb3c45321c2ffffffff9a6c814c250c62440016e146c0c11ec00e863a7c68f3aace3a5b9e4797b7268d010000006a473044022073ca3f4b13eeadd29a8e8238368e0b229baa5dba63cbdedc60ee794b5b39fbd502204e17f910ab05ff1ea1a56358229457df17c8e9ede336430b4f71d64334b51456012102e13c1ddabd1e0004fd9ff7b67edabbd05f9e92c2e8fd4fdb827e4fb3c45321c2ffffffff011ae23000000000001976a9147d39be2f371df9693a8861e1ca846f967dd67d8e88ac00000000", "vin": [{"sequence": 4294967295, "scriptSig": {"hex": "473044022016482f88ef53ca040d6d2c8827e1fbb7385d2cc1a33aa5f0ded47fca85789955022018862951e1d91c2635fc410d45cdb181223fa9f19136b0c3f14e4cfd5c423994012102e13c1ddabd1e0004fd9ff7b67edabbd05f9e92c2e8fd4fdb827e4fb3c45321c2", "asm": "3044022016482f88ef53ca040d6d2c8827e1fbb7385d2cc1a33aa5f0ded47fca85789955022018862951e1d91c2635fc410d45cdb181223fa9f19136b0c3f14e4cfd5c423994[ALL] 02e13c1ddabd1e0004fd9ff7b67edabbd05f9e92c2e8fd4fdb827e4fb3c45321c2"}, "vout": 1, "txid": "a0e38b4edb347077f28b139d3bb1df6ef01c06d918bd25a9634b8f05fe90405c"}, {"sequence": 4294967295, "scriptSig": {"hex": "483045022100d3a6cceb374d13f188774a0b2b3910c292ac786fdf9f3ad841e2e392e7dde14e022038999c06ab17a09a08c779d58fb4d9b4b7ab69deff900a2feb9ece767dc2967d012102e13c1ddabd1e0004fd9ff7b67edabbd05f9e92c2e8fd4fdb827e4fb3c45321c2", "asm": "3045022100d3a6cceb374d13f188774a0b2b3910c292ac786fdf9f3ad841e2e392e7dde14e022038999c06ab17a09a08c779d58fb4d9b4b7ab69deff900a2feb9ece767dc2967d[ALL] 02e13c1ddabd1e0004fd9ff7b67edabbd05f9e92c2e8fd4fdb827e4fb3c45321c2"}, "vout": 1, "txid": "42fc04117fd0a6413ce6dfbc5a18abe8e9617ce17b7aa39a6ed36232429b2b9d"}, {"sequence": 4294967295, "scriptSig": {"hex": "47304402204bf4310919fc145a791b2125939bc13eb87534a40d9f6b8d14b4127783c4e10a0220395a97ea0f8d6b6605895c38d2486a563f1191b44d46c8328d4c965b299c9ff7012102e13c1ddabd1e0004fd9ff7b67edabbd05f9e92c2e8fd4fdb827e4fb3c45321c2", "asm": "304402204bf4310919fc145a791b2125939bc13eb87534a40d9f6b8d14b4127783c4e10a0220395a97ea0f8d6b6605895c38d2486a563f1191b44d46c8328d4c965b299c9ff7[ALL] 02e13c1ddabd1e0004fd9ff7b67edabbd05f9e92c2e8fd4fdb827e4fb3c45321c2"}, "vout": 0, "txid": "8fcf89b567e8cab7e50da497e895ea891c13586fa370aa348ca5de33c0f94a79"}, {"sequence": 4294967295, "scriptSig": {"hex": "483045022100fe2bcae890801558c911036d95284227b3a84c6a9e88b04b64c23a06791bcef202202f6ca500f4a6c50b31f529d5ac25798e9dc774f1989eb204e17070314365ba88012102e13c1ddabd1e0004fd9ff7b67edabbd05f9e92c2e8fd4fdb827e4fb3c45321c2", "asm": "3045022100fe2bcae890801558c911036d95284227b3a84c6a9e88b04b64c23a06791bcef202202f6ca500f4a6c50b31f529d5ac25798e9dc774f1989eb204e17070314365ba88[ALL] 02e13c1ddabd1e0004fd9ff7b67edabbd05f9e92c2e8fd4fdb827e4fb3c45321c2"}, "vout": 1, "txid": "e4797e3fb8e724ad82bf6e96489f3cdce3819ec1b351e4f59de4a5fb8ea3549d"}, {"sequence": 4294967295, "scriptSig": {"hex": "473044022041dc0c4b9a8909a02d165210b702a962470400f18f16f73fbc4c331627fca6b7022026ed4b09b913a533663cdf0459dfee977d503db84df4ff9f4a0fb13fce081742012102e13c1ddabd1e0004fd9ff7b67edabbd05f9e92c2e8fd4fdb827e4fb3c45321c2", "asm": "3044022041dc0c4b9a8909a02d165210b702a962470400f18f16f73fbc4c331627fca6b7022026ed4b09b913a533663cdf0459dfee977d503db84df4ff9f4a0fb13fce081742[ALL] 02e13c1ddabd1e0004fd9ff7b67edabbd05f9e92c2e8fd4fdb827e4fb3c45321c2"}, "vout": 1, "txid": "81379fd1291bae978d1aede5e0ac159f2e634965050395369b95349553aff7ca"}, {"sequence": 4294967295, "scriptSig": {"hex": "473044022073ca3f4b13eeadd29a8e8238368e0b229baa5dba63cbdedc60ee794b5b39fbd502204e17f910ab05ff1ea1a56358229457df17c8e9ede336430b4f71d64334b51456012102e13c1ddabd1e0004fd9ff7b67edabbd05f9e92c2e8fd4fdb827e4fb3c45321c2", "asm": "3044022073ca3f4b13eeadd29a8e8238368e0b229baa5dba63cbdedc60ee794b5b39fbd502204e17f910ab05ff1ea1a56358229457df17c8e9ede336430b4f71d64334b51456[ALL] 02e13c1ddabd1e0004fd9ff7b67edabbd05f9e92c2e8fd4fdb827e4fb3c45321c2"}, "vout": 1, "txid": "8d26b797479e5b3aceaaf3687c3a860ec01ec1c046e1160044620c254c816c9a"}], "txid": "310505ab204efb43abed7a216aa66591c8fc960bc9f57c9d4177fa30dc517f40", "blocktime": 1537874412, "version": 1, "confirmations": 11468, "time": 1537874412, "locktime": 0, "vsize": 928, "size": 928}