{"hash": "31055d52bfd87d757230db3f928edab543af7f642d7ba4de334ce368aa386fc5", "blockhash": "0000000000000000001f76057863aec43deb6fa401d9628bb513d65a8098bfab", "vout": [{"scriptPubKey": {"reqSigs": 1, "hex": "76a91424c3d96037e02837e3415ce80271dd5f29b4b73b88ac", "addresses": ["14MPwk1pFaEjUrGWKqYEnEc6kfnmqkZ1QP"], "asm": "OP_DUP OP_HASH160 24c3d96037e02837e3415ce80271dd5f29b4b73b OP_EQUALVERIFY OP_CHECKSIG", "type": "pubkeyhash"}, "value": 0.00070912, "n": 0}, {"scriptPubKey": {"reqSigs": 1, "hex": "76a914dcf1616bf61d22dd26955f37a61220a0f7471ad988ac", "addresses": ["1M9EpcpYEG4QN1B5sFp477JVnj3mJjBeFt"], "asm": "OP_DUP OP_HASH160 dcf1616bf61d22dd26955f37a61220a0f7471ad9 OP_EQUALVERIFY OP_CHECKSIG", "type": "pubkeyhash"}, "value": 0.1369145, "n": 1}], "hex": "0100000001ae67b47325c2f0aa125071dbe49e8193e8241250343adc6d9b2c49d881000958010000006b4830450221009db199a91f87a85733e17d1d6986ee18659e1db19325582cfe2df9387af5f54a0220697eb7f2afa091bcab52fe440867447add17ee40a7a6b5e5a2ef67d7aaccdf45012102acb04b8f8aa251db50709ad32338e1d817d283f044c36d5b45c8b387a01803fffdffffff0200150100000000001976a91424c3d96037e02837e3415ce80271dd5f29b4b73b88ac3aead000000000001976a914dcf1616bf61d22dd26955f37a61220a0f7471ad988ac14490800", "vin": [{"sequence": 4294967293, "scriptSig": {"hex": "4830450221009db199a91f87a85733e17d1d6986ee18659e1db19325582cfe2df9387af5f54a0220697eb7f2afa091bcab52fe440867447add17ee40a7a6b5e5a2ef67d7aaccdf45012102acb04b8f8aa251db50709ad32338e1d817d283f044c36d5b45c8b387a01803ff", "asm": "30450221009db199a91f87a85733e17d1d6986ee18659e1db19325582cfe2df9387af5f54a0220697eb7f2afa091bcab52fe440867447add17ee40a7a6b5e5a2ef67d7aaccdf45[ALL] 02acb04b8f8aa251db50709ad32338e1d817d283f044c36d5b45c8b387a01803ff"}, "vout": 1, "txid": "58090081d8492c9b6ddc3a34501224e893819ee4db715012aaf0c22573b467ae"}], "txid": "31055d52bfd87d757230db3f928edab543af7f642d7ba4de334ce368aa386fc5", "blocktime": 1537873891, "version": 1, "confirmations": 11479, "time": 1537873891, "locktime": 542996, "vsize": 226, "size": 226}