{"hash": "aa6743ced49490951b168df3e63d006ad0c7e4201091bd69e03aab1c1b43d36d", "blockhash": "0000000000000000001cda96e906b7601b7a6fb1a3b62bca570a9e5d8f4b3de1", "vout": [{"scriptPubKey": {"reqSigs": 1, "hex": "a914153fce5b5a6519fea59e7595ac4f6049beb71cac87", "addresses": ["33dNYtwvG6x1YYngZgmSUqFMKYEouWY1hm"], "asm": "OP_HASH160 153fce5b5a6519fea59e7595ac4f6049beb71cac OP_EQUAL", "type": "scripthash"}, "value": 4.04064695, "n": 0}, {"scriptPubKey": {"reqSigs": 1, "hex": "a91474ed9bbc227e05ff668a9c271ad9b071cdaa977c87", "addresses": ["3CMGx7WAnmAmBgE4j4SU2e4tdGT77acNjp"], "asm": "OP_HASH160 74ed9bbc227e05ff668a9c271ad9b071cdaa977c OP_EQUAL", "type": "scripthash"}, "value": 0.053096, "n": 1}, {"scriptPubKey": {"reqSigs": 1, "hex": "76a914ba14776f005433dc78fb34d6a569df406daee49088ac", "addresses": ["1HxuCinUGhUSubBerjzte4E2mnz61TsHdP"], "asm": "OP_DUP OP_HASH160 ba14776f005433dc78fb34d6a569df406daee490 OP_EQUALVERIFY OP_CHECKSIG", "type": "pubkeyhash"}, "value": 0.083969, "n": 2}], "hex": "02000000000101f3dd55c2f4908f81a31589342599ae438afecda9a111016df9dd251d4e54207e0100000017160014b53442ea39f16d6979e997594acfb6c5cb02869dfeffffff03b78915180000000017a914153fce5b5a6519fea59e7595ac4f6049beb71cac87a00451000000000017a91474ed9bbc227e05ff668a9c271ad9b071cdaa977c8764208000000000001976a914ba14776f005433dc78fb34d6a569df406daee49088ac02483045022100e40b6c0ddeb91effe5bf6f7b06c536597703bc2486623112825cc28ca1ba338202202e359696c57ca24f8f4aaaa59d162ab8ff3fbece99cc66b0139df7b8c45cd78d0121029039d2bf2ee31913b49b5175fc1380564f46622f62b99b67da6ac86f36729d8c13490800", "vin": [{"txinwitness": ["3045022100e40b6c0ddeb91effe5bf6f7b06c536597703bc2486623112825cc28ca1ba338202202e359696c57ca24f8f4aaaa59d162ab8ff3fbece99cc66b0139df7b8c45cd78d01", "029039d2bf2ee31913b49b5175fc1380564f46622f62b99b67da6ac86f36729d8c"], "sequence": 4294967294, "scriptSig": {"hex": "160014b53442ea39f16d6979e997594acfb6c5cb02869d", "asm": "0014b53442ea39f16d6979e997594acfb6c5cb02869d"}, "vout": 1, "txid": "7e20544e1d25ddf96d0111a1a9cdfe8a43ae9925348915a3818f90f4c255ddf3"}], "txid": "31097b986539b431dddbd32c55531cd9b3760f4e4d383939ec896aa177a60db2", "blocktime": 1537873282, "version": 2, "confirmations": 11482, "time": 1537873282, "locktime": 542995, "vsize": 200, "size": 282}