{"hash": "a555e7ab6878da6b2debce934810b203f919ee3b104cb0573a82f4536d446813", "blockhash": "0000000000000000001e0dab787dd257d1dbfcb92a98c2207d5e1078be1f4165", "vout": [{"scriptPubKey": {"reqSigs": 1, "hex": "a914e12e37e4f11520184f3f0ece0457eef7cff2670287", "addresses": ["3NDfL1eV7LK7fVoZ8wmEtUzXafEsq8iLMn"], "asm": "OP_HASH160 e12e37e4f11520184f3f0ece0457eef7cff26702 OP_EQUAL", "type": "scripthash"}, "value": 0.03650145, "n": 0}, {"scriptPubKey": {"reqSigs": 1, "hex": "76a914544f69eebb91315f7cb09873d730579415a5d14e88ac", "addresses": ["18gntt7WKtH7tH95ypkC1Ks4Ep6YBwGrsg"], "asm": "OP_DUP OP_HASH160 544f69eebb91315f7cb09873d730579415a5d14e OP_EQUALVERIFY OP_CHECKSIG", "type": "pubkeyhash"}, "value": 0.091815, "n": 1}], "hex": "020000000001024ec2ef4841e6e9f2f040d742642f560999ba7075b3e06625992386aa4e1780b400000000171600140a0e171ab070610a4910d09b10af9a5d605d2861feffffff5e932ad48bacfbb82c69e87b3cb17f25da1d113dbbafb4474da4628ec31c9f1f0100000017160014b7ec8040a58d3544e2b59fe6402ce9e9c6ea8280feffffff0261b237000000000017a914e12e37e4f11520184f3f0ece0457eef7cff26702873c198c00000000001976a914544f69eebb91315f7cb09873d730579415a5d14e88ac0247304402200c91ca438596a87fc7ec782befa335d9aca9c312cc0e00ea6ee7b702224c0b7e02205a544fdffd68ddf9ffff8142cbc5b46867ec95f6b185e7e8d4928a858e60202601210362824a2554badd355ae3358b76b3c570b9b1996eed132cdcb41cf2179ee982c802483045022100d63d54bb45b6e8e3e5d44668e70c6bff908f7fcc3ebfdf610612f9a0f00742c902202458096aa3d72a6fd4d7a5aa8b66502cdc0c78533d01a10231ea328214b37af6012102626aa3da4bcc87ceebb9c5080d16d6e893966d0c1ec2ae72a7a77a5c29a20ea112490800", "vin": [{"txinwitness": ["304402200c91ca438596a87fc7ec782befa335d9aca9c312cc0e00ea6ee7b702224c0b7e02205a544fdffd68ddf9ffff8142cbc5b46867ec95f6b185e7e8d4928a858e60202601", "0362824a2554badd355ae3358b76b3c570b9b1996eed132cdcb41cf2179ee982c8"], "sequence": 4294967294, "scriptSig": {"hex": "1600140a0e171ab070610a4910d09b10af9a5d605d2861", "asm": "00140a0e171ab070610a4910d09b10af9a5d605d2861"}, "vout": 0, "txid": "b480174eaa8623992566e0b37570ba9909562f6442d740f0f2e9e64148efc24e"}, {"txinwitness": ["3045022100d63d54bb45b6e8e3e5d44668e70c6bff908f7fcc3ebfdf610612f9a0f00742c902202458096aa3d72a6fd4d7a5aa8b66502cdc0c78533d01a10231ea328214b37af601", "02626aa3da4bcc87ceebb9c5080d16d6e893966d0c1ec2ae72a7a77a5c29a20ea1"], "sequence": 4294967294, "scriptSig": {"hex": "160014b7ec8040a58d3544e2b59fe6402ce9e9c6ea8280", "asm": "0014b7ec8040a58d3544e2b59fe6402ce9e9c6ea8280"}, "vout": 1, "txid": "1f9f1cc38e62a44d47b4afbb3d111dda257fb13c7be8692cb8fbac8bd42a935e"}], "txid": "310c2c29d780569e6ce2c07186e936d4a96b8bf718193239b41afa27716a6155", "blocktime": 1537872475, "version": 2, "confirmations": 11487, "time": 1537872475, "locktime": 542994, "vsize": 259, "size": 421}