{"hash": "310ce1d1b023f39b5e8dd58ef7c1090556bb020e470f24606e1a70095ae91283", "blockhash": "0000000000000000001f0ddff1eddb255c1121bcd4da4f1bc9a0da00cae72433", "vout": [{"scriptPubKey": {"reqSigs": 1, "hex": "a914e3d0c0f0c354135a0a51969d04525cd48550025887", "addresses": ["3NTbPYnPV4kpdiWjLTJo7br8GQ1ELzX7FV"], "asm": "OP_HASH160 e3d0c0f0c354135a0a51969d04525cd485500258 OP_EQUAL", "type": "scripthash"}, "value": 0.00735251, "n": 0}], "hex": "01000000015ba572cbb9c40480ca2486dc9f8dc1205826931f56df51c246e7097f2c9ae6ae010000006a473044022013906ac0a4cb83407aa1c8fe63f041a719fea7b4dcbfb4a01fb5ad919aca663402204564e7b0972d970e0cc9ca56cd09282852232d4a11a8d083df02fb73ec02ce120121035408a784856d2e50609e6603e5263ca940b1ff9d9b01f108f73a38aac5da4115ffffff000113380b000000000017a914e3d0c0f0c354135a0a51969d04525cd4855002588700000000", "vin": [{"sequence": 16777215, "scriptSig": {"hex": "473044022013906ac0a4cb83407aa1c8fe63f041a719fea7b4dcbfb4a01fb5ad919aca663402204564e7b0972d970e0cc9ca56cd09282852232d4a11a8d083df02fb73ec02ce120121035408a784856d2e50609e6603e5263ca940b1ff9d9b01f108f73a38aac5da4115", "asm": "3044022013906ac0a4cb83407aa1c8fe63f041a719fea7b4dcbfb4a01fb5ad919aca663402204564e7b0972d970e0cc9ca56cd09282852232d4a11a8d083df02fb73ec02ce12[ALL] 035408a784856d2e50609e6603e5263ca940b1ff9d9b01f108f73a38aac5da4115"}, "vout": 1, "txid": "aee69a2c7f09e746c251df561f93265820c18d9fdc8624ca8004c4b9cb72a55b"}], "txid": "310ce1d1b023f39b5e8dd58ef7c1090556bb020e470f24606e1a70095ae91283", "blocktime": 1537872018, "version": 1, "confirmations": 11489, "time": 1537872018, "locktime": 0, "vsize": 189, "size": 189}