{"hash": "31109d844e042fc2cee778a06f31cfe18020cbc3020f40099f70f4372fb9243b", "blockhash": "00000000000000000024a2167bbff67b0be802c0b01cdd79e6331c2be6459f87", "vout": [{"scriptPubKey": {"reqSigs": 1, "hex": "76a91464bac04db0597fb3fa4779180589ba50dc573bf988ac", "addresses": ["1ABcHtD2ZBSj8vQzVzcfFQzunXfWyBZnCU"], "asm": "OP_DUP OP_HASH160 64bac04db0597fb3fa4779180589ba50dc573bf9 OP_EQUALVERIFY OP_CHECKSIG", "type": "pubkeyhash"}, "value": 0.007, "n": 0}, {"scriptPubKey": {"reqSigs": 1, "hex": "76a914f1f604c9aa048a715d92cc32d8defc20fff84cfa88ac", "addresses": ["1P4NZuo1aNK8J5Hr9V8jbNXwrTroJwQjp7"], "asm": "OP_DUP OP_HASH160 f1f604c9aa048a715d92cc32d8defc20fff84cfa OP_EQUALVERIFY OP_CHECKSIG", "type": "pubkeyhash"}, "value": 0.03783342, "n": 1}], "hex": "0100000001f68c7451cba6c344f7f1e061437dbaa9f558eb2047729c71151680e839cd8a9d010000006a47304402202e48587da02b9b277548a4d0102ffb3d44da8ba0ace47339ea26cd955c4a8ad102206b89869e1cee1e3bd5551d8d09419290bc75b61943d4f6c4628615edad015e6301210357f51787af82c8706506bb92ce1ae5a34e02f9cc6109e90c291dbdfb03dce72cffffffff0260ae0a00000000001976a91464bac04db0597fb3fa4779180589ba50dc573bf988acaeba3900000000001976a914f1f604c9aa048a715d92cc32d8defc20fff84cfa88ac00000000", "vin": [{"sequence": 4294967295, "scriptSig": {"hex": "47304402202e48587da02b9b277548a4d0102ffb3d44da8ba0ace47339ea26cd955c4a8ad102206b89869e1cee1e3bd5551d8d09419290bc75b61943d4f6c4628615edad015e6301210357f51787af82c8706506bb92ce1ae5a34e02f9cc6109e90c291dbdfb03dce72c", "asm": "304402202e48587da02b9b277548a4d0102ffb3d44da8ba0ace47339ea26cd955c4a8ad102206b89869e1cee1e3bd5551d8d09419290bc75b61943d4f6c4628615edad015e63[ALL] 0357f51787af82c8706506bb92ce1ae5a34e02f9cc6109e90c291dbdfb03dce72c"}, "vout": 1, "txid": "9d8acd39e8801615719c724720eb58f5a9ba7d4361e0f1f744c3a6cb51748cf6"}], "txid": "31109d844e042fc2cee778a06f31cfe18020cbc3020f40099f70f4372fb9243b", "blocktime": 1537870564, "version": 1, "confirmations": 11515, "time": 1537870564, "locktime": 0, "vsize": 225, "size": 225}