{"hash": "e43f4803aaae400a37d666eaf84bcf0c9d02bd8799df9eda91ee7bf8ee9d51bd", "blockhash": "00000000000000000017f5eb5941039fbcee6240d03bc1f2f8e35350df66a1d8", "vout": [{"scriptPubKey": {"reqSigs": 1, "hex": "a914b44337f216fcdcf0a5895a72e8c4169a68ef293e87", "addresses": ["3J8A5VuG2KUQmCweiwHBDfv67VqWTciCM2"], "asm": "OP_HASH160 b44337f216fcdcf0a5895a72e8c4169a68ef293e OP_EQUAL", "type": "scripthash"}, "value": 0.00023026, "n": 0}], "hex": "01000000000101110d431941ae1a117f856d173245e21f32d4c68ae94aeed515704b4d78da78000000000017160014467c5653a62fefb1a383472ab6e094801bd6e2b9ffffffff01f25900000000000017a914b44337f216fcdcf0a5895a72e8c4169a68ef293e870248304502210083a75d1ac6b4d0cf0dc1656d0fd574e15e25c0e293eec2f8a633286123725acd022018d81ec421ab4a02c1a6d3a8a86f34a6e362fc69e09cc0a2ba8083bcf912f9df01210346cb038cfebe70c16497a524b40e319ac433155cf2261a8abe360a479ee9eaec00000000", "vin": [{"txinwitness": ["304502210083a75d1ac6b4d0cf0dc1656d0fd574e15e25c0e293eec2f8a633286123725acd022018d81ec421ab4a02c1a6d3a8a86f34a6e362fc69e09cc0a2ba8083bcf912f9df01", "0346cb038cfebe70c16497a524b40e319ac433155cf2261a8abe360a479ee9eaec"], "sequence": 4294967295, "scriptSig": {"hex": "160014467c5653a62fefb1a383472ab6e094801bd6e2b9", "asm": "0014467c5653a62fefb1a383472ab6e094801bd6e2b9"}, "vout": 0, "txid": "0078da784d4b7015d5ee4ae98ac6d4321fe24532176d857f111aae4119430d11"}], "txid": "3111fc33f1a09856d77e8fd8e7e919e51bbc3fea0a6c9c6bbffb4ed40e1f2682", "blocktime": 1537874412, "version": 1, "confirmations": 11468, "time": 1537874412, "locktime": 0, "vsize": 134, "size": 216}