{"hash": "3c6c58f0260f0a41c59597d4399cc09f248f241441d674ece05de3ac3e4e5df1", "blockhash": "000000000000000000022b45ed06c6f4ccd3cf7fb5ba4856ebd2e58215665228", "vout": [{"scriptPubKey": {"reqSigs": 1, "hex": "76a9149d64970f94ef974f86e18ce19fad70948ad51ae588ac", "addresses": ["1FMDbErDF134xv1eQmU6oPpnZ5gtNUcGyt"], "asm": "OP_DUP OP_HASH160 9d64970f94ef974f86e18ce19fad70948ad51ae5 OP_EQUALVERIFY OP_CHECKSIG", "type": "pubkeyhash"}, "value": 0.0023806, "n": 0}, {"scriptPubKey": {"reqSigs": 1, "hex": "a914b5bcf7b82c8261d278377a1bb4c397f04f84eab687", "addresses": ["3JFxby64uF5xC9bu533RLhhYiWqaCBM7KW"], "asm": "OP_HASH160 b5bcf7b82c8261d278377a1bb4c397f04f84eab6 OP_EQUAL", "type": "scripthash"}, "value": 0.01022552, "n": 1}], "hex": "020000000001020f4bb8d3795acbe097b7350a65b799d277170c56c8097fa15d974172fb11153201000000171600148403bdc677b3cf7ba2f5fb4b64d38748be4ae2bcfeffffff6ba5e970033085b83794b69b57885e93babd0862a230ccd60624eace0a3f348c1c000000171600140883c575436071061fe854e1108f25e218e2319bfeffffff02eca10300000000001976a9149d64970f94ef974f86e18ce19fad70948ad51ae588ac589a0f000000000017a914b5bcf7b82c8261d278377a1bb4c397f04f84eab68702483045022100ba5a540e4181f1738688eecf17aa38cc5b6a06b0b8d744d619da80fac6528474022001eb0e88aaa5e610f74ffac12849333f2a660f3a643b18955a754ad5c567944a0121028a0822f99159e910d75bc92be9d7f1474cd6a2910fde3ccf28f6eb63412eed5a02483045022100ab7b1ea80e7508801af2eb41f345ff8db5b57350a4e53accef89a287b60379ec02201241093313e603cff89242c015f7867ae8029b3bef7878145277801b40d26a3c012103348c48573add233f0a58a558145b861e64fab2ac514e98686702d14551a6f345f8480800", "vin": [{"txinwitness": ["3045022100ba5a540e4181f1738688eecf17aa38cc5b6a06b0b8d744d619da80fac6528474022001eb0e88aaa5e610f74ffac12849333f2a660f3a643b18955a754ad5c567944a01", "028a0822f99159e910d75bc92be9d7f1474cd6a2910fde3ccf28f6eb63412eed5a"], "sequence": 4294967294, "scriptSig": {"hex": "1600148403bdc677b3cf7ba2f5fb4b64d38748be4ae2bc", "asm": "00148403bdc677b3cf7ba2f5fb4b64d38748be4ae2bc"}, "vout": 1, "txid": "321511fb7241975da17f09c8560c1777d299b7650a35b797e0cb5a79d3b84b0f"}, {"txinwitness": ["3045022100ab7b1ea80e7508801af2eb41f345ff8db5b57350a4e53accef89a287b60379ec02201241093313e603cff89242c015f7867ae8029b3bef7878145277801b40d26a3c01", "03348c48573add233f0a58a558145b861e64fab2ac514e98686702d14551a6f345"], "sequence": 4294967294, "scriptSig": {"hex": "1600140883c575436071061fe854e1108f25e218e2319b", "asm": "00140883c575436071061fe854e1108f25e218e2319b"}, "vout": 28, "txid": "8c343f0aceea2406d6cc30a26208bdba935e88579bb69437b885300370e9a56b"}], "txid": "3116641553ec22c0bcc5bfd99654c116a5a7d8bb96839fc914943a51b8bd6b37", "blocktime": 1537869901, "version": 2, "confirmations": 11524, "time": 1537869901, "locktime": 542968, "vsize": 259, "size": 422}