{"hash": "311999f3bb1416608142866d55576114f615823c9c44c421d95c1a16c5bae63f", "blockhash": "0000000000000000000e13cef7c366c0283d82e591d1acd082e914b08063cdf1", "vout": [{"scriptPubKey": {"reqSigs": 1, "hex": "76a9149260351f947a8c5e98699883456e5f3a8c3ea97788ac", "addresses": ["1ELxud6twbHhBQsAaqLuE6NLm8dDE3kzLA"], "asm": "OP_DUP OP_HASH160 9260351f947a8c5e98699883456e5f3a8c3ea977 OP_EQUALVERIFY OP_CHECKSIG", "type": "pubkeyhash"}, "value": 7.163e-05, "n": 0}, {"scriptPubKey": {"reqSigs": 1, "hex": "a914c19fe3b3feb730fc013e2ba0ec1d30adcac8e77c87", "addresses": ["3KLost6jJ8N5CegC824tkAku2UjhcpYEZt"], "asm": "OP_HASH160 c19fe3b3feb730fc013e2ba0ec1d30adcac8e77c OP_EQUAL", "type": "scripthash"}, "value": 0.01642159, "n": 1}], "hex": "010000000138503bb0962383fe7aa07bc9e21cd791972f01882aa2cb02adb6937b438d25bb030000006b483045022100bff91d7e4b542c82d8549bf51e92d3210a12b34d846ee582d1ab7e60b7952b1e02202eb373ac3123b984c3ff26c1e682b53b2aa531de4f0c1583c5b29655aebd7e3c01210279054af146671a6c3944558d898f622b298a4e5ab659be4a3aa76bd2a024705dffffffff02fb1b0000000000001976a9149260351f947a8c5e98699883456e5f3a8c3ea97788acaf0e19000000000017a914c19fe3b3feb730fc013e2ba0ec1d30adcac8e77c8700000000", "vin": [{"sequence": 4294967295, "scriptSig": {"hex": "483045022100bff91d7e4b542c82d8549bf51e92d3210a12b34d846ee582d1ab7e60b7952b1e02202eb373ac3123b984c3ff26c1e682b53b2aa531de4f0c1583c5b29655aebd7e3c01210279054af146671a6c3944558d898f622b298a4e5ab659be4a3aa76bd2a024705d", "asm": "3045022100bff91d7e4b542c82d8549bf51e92d3210a12b34d846ee582d1ab7e60b7952b1e02202eb373ac3123b984c3ff26c1e682b53b2aa531de4f0c1583c5b29655aebd7e3c[ALL] 0279054af146671a6c3944558d898f622b298a4e5ab659be4a3aa76bd2a024705d"}, "vout": 3, "txid": "bb258d437b93b6ad02cba22a88012f9791d71ce2c97ba07afe832396b03b5038"}], "txid": "311999f3bb1416608142866d55576114f615823c9c44c421d95c1a16c5bae63f", "blocktime": 1537871767, "version": 1, "confirmations": 11495, "time": 1537871767, "locktime": 0, "vsize": 224, "size": 224}