{"hash": "dd5dfffffeaa1e1d0bc4c9b625ac4555a6ff0db142c57c92eed5374008793477", "blockhash": "000000000000000000022b45ed06c6f4ccd3cf7fb5ba4856ebd2e58215665228", "vout": [{"scriptPubKey": {"reqSigs": 1, "hex": "76a9141ec810e435679179d2b6954566b774ab4756197288ac", "addresses": ["13okwapPc4c8U645V9usTaifA4JK7G9k6T"], "asm": "OP_DUP OP_HASH160 1ec810e435679179d2b6954566b774ab47561972 OP_EQUALVERIFY OP_CHECKSIG", "type": "pubkeyhash"}, "value": 0.01, "n": 0}, {"scriptPubKey": {"reqSigs": 1, "hex": "a91466b274dd0441c2e521f8d93b10f1be8a3450c99087", "addresses": ["3B42dV6ibYiU7TqQYMParnbD32syAUVp8H"], "asm": "OP_HASH160 66b274dd0441c2e521f8d93b10f1be8a3450c990 OP_EQUAL", "type": "scripthash"}, "value": 0.0020492, "n": 1}], "hex": "01000000000101260b57ce0c920f522e6c01331b67e582e2ed2fe6ee113063b983b2f3f474dcac00000000232200201e8ecfde8b9aa54bbdd14385375399ccaf1d8ceb0dcfe06354560c6eff24de69ffffffff0240420f00000000001976a9141ec810e435679179d2b6954566b774ab4756197288ac782003000000000017a91466b274dd0441c2e521f8d93b10f1be8a3450c9908704004730440220584efc4810ad2006f456710fd06e1cc3cc690a28dd9e1aeb88b60a0cd3dfc1cd02203015df64a827143d1184842931eb49d555ddc2b1e331077df4c609f9c539ceab014830450221008e172726c87947b49be990bebdf9760e86ffffe789842c0219ba2560ad128550022007ef6e46f6ac201a2cad6aca399f8fd23835fd9fde3ec94938f8e07b7a1835720147522102faa2cc4a21153641a20da1fed8b7b3543fae8694de5e15979ed3508ad48272092102637047d95a3b2c96b157c98e1277331dc2df0c323fbcc3e07be594163161a3e752ae00000000", "vin": [{"txinwitness": ["", "30440220584efc4810ad2006f456710fd06e1cc3cc690a28dd9e1aeb88b60a0cd3dfc1cd02203015df64a827143d1184842931eb49d555ddc2b1e331077df4c609f9c539ceab01", "30450221008e172726c87947b49be990bebdf9760e86ffffe789842c0219ba2560ad128550022007ef6e46f6ac201a2cad6aca399f8fd23835fd9fde3ec94938f8e07b7a18357201", "522102faa2cc4a21153641a20da1fed8b7b3543fae8694de5e15979ed3508ad48272092102637047d95a3b2c96b157c98e1277331dc2df0c323fbcc3e07be594163161a3e752ae"], "sequence": 4294967295, "scriptSig": {"hex": "2200201e8ecfde8b9aa54bbdd14385375399ccaf1d8ceb0dcfe06354560c6eff24de69", "asm": "00201e8ecfde8b9aa54bbdd14385375399ccaf1d8ceb0dcfe06354560c6eff24de69"}, "vout": 0, "txid": "acdc74f4f3b283b9633011eee62fede282e5671b33016c2e520f920cce570b26"}], "txid": "3129596051ac46814a268152e2615c681a093794b9ae30fe0612d6149645e39d", "blocktime": 1537869901, "version": 1, "confirmations": 11524, "time": 1537869901, "locktime": 0, "vsize": 208, "size": 373}