{"hash": "31330a74a6371c3bf58b16c779770c267c8b07941393fd50f9427629509a4a4b", "blockhash": "00000000000000000018f53835495a110e01622372bf6ae95dc86f2b0ab887b0", "vout": [{"scriptPubKey": {"reqSigs": 1, "hex": "a9147a36898e727562740a766d91402882eacc86c87587", "addresses": ["3CqDhGT29pLLqGRUHkgQZZ9zC881jWk1SU"], "asm": "OP_HASH160 7a36898e727562740a766d91402882eacc86c875 OP_EQUAL", "type": "scripthash"}, "value": 0.08043, "n": 0}, {"scriptPubKey": {"reqSigs": 1, "hex": "a914e370231feecbfc25e2e2423a5a79bf79bfdca59887", "addresses": ["3NRbeX3vD5VaVE4TDU9ivCDsEf7NPPte6J"], "asm": "OP_HASH160 e370231feecbfc25e2e2423a5a79bf79bfdca598 OP_EQUAL", "type": "scripthash"}, "value": 3.42621407, "n": 1}], "hex": "01000000017cef5cd4dfa430c125aa8bc1a1c22d7518ac351b46b3826bd477bcd97cc52bb201000000db00483045022100f4f9741c0fb695432366bfad1172ca9878e372fda8a9d30d062d8c370260b8800220532e0f4e43b41d225e419c9e2733345fed763e56c72c6b23bd10e4a5bda4e05d01483045022100ba8467d69d21179250e24b4a216800a44d3bb6bc6fc156067481bf4f98b6645602202141f5e5d75ae7622aaa8926ad6ee0b3281b642b7b6ab8019ada6c83a719f07a014752210327881b6abce6535553a3ce21fad12a7d74fd237ce7c4cd270a267162344e3082210256141f8eb687f5a68c5cc65054652dc25116fa285e44d72b44368827ffe77d9a52aeffffffff02f8b97a000000000017a9147a36898e727562740a766d91402882eacc86c87587dffc6b140000000017a914e370231feecbfc25e2e2423a5a79bf79bfdca5988700000000", "vin": [{"sequence": 4294967295, "scriptSig": {"hex": "00483045022100f4f9741c0fb695432366bfad1172ca9878e372fda8a9d30d062d8c370260b8800220532e0f4e43b41d225e419c9e2733345fed763e56c72c6b23bd10e4a5bda4e05d01483045022100ba8467d69d21179250e24b4a216800a44d3bb6bc6fc156067481bf4f98b6645602202141f5e5d75ae7622aaa8926ad6ee0b3281b642b7b6ab8019ada6c83a719f07a014752210327881b6abce6535553a3ce21fad12a7d74fd237ce7c4cd270a267162344e3082210256141f8eb687f5a68c5cc65054652dc25116fa285e44d72b44368827ffe77d9a52ae", "asm": "0 3045022100f4f9741c0fb695432366bfad1172ca9878e372fda8a9d30d062d8c370260b8800220532e0f4e43b41d225e419c9e2733345fed763e56c72c6b23bd10e4a5bda4e05d[ALL] 3045022100ba8467d69d21179250e24b4a216800a44d3bb6bc6fc156067481bf4f98b6645602202141f5e5d75ae7622aaa8926ad6ee0b3281b642b7b6ab8019ada6c83a719f07a[ALL] 52210327881b6abce6535553a3ce21fad12a7d74fd237ce7c4cd270a267162344e3082210256141f8eb687f5a68c5cc65054652dc25116fa285e44d72b44368827ffe77d9a52ae"}, "vout": 1, "txid": "b22bc57cd9bc77d46b82b3461b35ac18752dc2a1c18baa25c130a4dfd45cef7c"}], "txid": "31330a74a6371c3bf58b16c779770c267c8b07941393fd50f9427629509a4a4b", "blocktime": 1537870928, "version": 1, "confirmations": 11514, "time": 1537870928, "locktime": 0, "vsize": 334, "size": 334}