{"hash": "313b3a7bee0722a13bddfcecb86e6c129884dedee7a13e502d34464f97f1fc73", "blockhash": "0000000000000000000e13cef7c366c0283d82e591d1acd082e914b08063cdf1", "vout": [{"scriptPubKey": {"reqSigs": 1, "hex": "76a91423043a1828390feba5b14a925cf06ecb4207e91a88ac", "addresses": ["14C9iQa5xQixNi4VdoGkgKoYBCeFVSPLVo"], "asm": "OP_DUP OP_HASH160 23043a1828390feba5b14a925cf06ecb4207e91a OP_EQUALVERIFY OP_CHECKSIG", "type": "pubkeyhash"}, "value": 0.04407373, "n": 0}, {"scriptPubKey": {"reqSigs": 1, "hex": "76a91440114f55862d30169690c1740c94fc33914ea89a88ac", "addresses": ["16qkyzRMDd2zvMVhcPZf6Adt4HTXDq5RFc"], "asm": "OP_DUP OP_HASH160 40114f55862d30169690c1740c94fc33914ea89a OP_EQUALVERIFY OP_CHECKSIG", "type": "pubkeyhash"}, "value": 9.50127752, "n": 1}], "hex": "0100000001cd53ca7ae8ad2ed6d4592bdf7e125317f0ac43cb18930907274cefa2cd046da9010000006a4730440220525d8bb3636832e6899e70d92be151f31ebf6758858f773362807dca046440f3022063f9583e9d06c8e48c3ada81f45260ffd2f3ae106f39d6944c55c40d6b2d264701210332ed40bd97f1811aa29de7c889d2186a058e84f71ac415b1fff6c73822dbfb61ffffffff024d404300000000001976a91423043a1828390feba5b14a925cf06ecb4207e91a88ac88cca138000000001976a91440114f55862d30169690c1740c94fc33914ea89a88ac00000000", "vin": [{"sequence": 4294967295, "scriptSig": {"hex": "4730440220525d8bb3636832e6899e70d92be151f31ebf6758858f773362807dca046440f3022063f9583e9d06c8e48c3ada81f45260ffd2f3ae106f39d6944c55c40d6b2d264701210332ed40bd97f1811aa29de7c889d2186a058e84f71ac415b1fff6c73822dbfb61", "asm": "30440220525d8bb3636832e6899e70d92be151f31ebf6758858f773362807dca046440f3022063f9583e9d06c8e48c3ada81f45260ffd2f3ae106f39d6944c55c40d6b2d2647[ALL] 0332ed40bd97f1811aa29de7c889d2186a058e84f71ac415b1fff6c73822dbfb61"}, "vout": 1, "txid": "a96d04cda2ef4c2707099318cb43acf01753127edf2b59d4d62eade87aca53cd"}], "txid": "313b3a7bee0722a13bddfcecb86e6c129884dedee7a13e502d34464f97f1fc73", "blocktime": 1537871767, "version": 1, "confirmations": 11495, "time": 1537871767, "locktime": 0, "vsize": 225, "size": 225}