{"hash": "313c292318ebc62b317d82e4ac87ae85c922c7f34aedc2088ec22cfea35be042", "blockhash": "00000000000000000024a2167bbff67b0be802c0b01cdd79e6331c2be6459f87", "vout": [{"scriptPubKey": {"reqSigs": 1, "hex": "a9140272230e42f62109d070c2bb11a2f715ee8a7d1b87", "addresses": ["31ux1JQ5qe1V4qsywEUBzZ9KNJAVMA15WV"], "asm": "OP_HASH160 0272230e42f62109d070c2bb11a2f715ee8a7d1b OP_EQUAL", "type": "scripthash"}, "value": 0.003695, "n": 0}, {"scriptPubKey": {"reqSigs": 1, "hex": "76a914fdfe3e97bce663e1c806747da34c99b2c322b64488ac", "addresses": ["1Q9zXkYqw1fWK4PykvKuWuBRpFCgKCrTnp"], "asm": "OP_DUP OP_HASH160 fdfe3e97bce663e1c806747da34c99b2c322b644 OP_EQUALVERIFY OP_CHECKSIG", "type": "pubkeyhash"}, "value": 1.30446839, "n": 1}], "hex": "0100000002e3c4a17c32eaebf284318c60e630b66d2ae2cf10068bb31afc1fc7c021d79a6c010000006b48304502210096cfb80e0208ba33cdf94f5d6f7130a9edd1c97d608b41d5f1ee8c8b109f716c022057900fd6f079399be965e89a856858a8d553e61a049b6dce16567c1d2c8de41201210215af5fa6c9388f0fa3f3e6b3c0c7f5b9fd6fd38738063cc6b42fe50b53251800fdffffffa64a1b76dac5f335c923d128fc2825248dc71a84be2dbd0f89e5457904dcd2e8010000006a473044022003f7a2c9115432f97d6c5b4e3c4ddc2e293cb9d22ffe83463d492064985cd26802201f4245d5eb63fe67ae97ae82ba6b515d77d831b28fb7937812ddce4138bca46d01210215af5fa6c9388f0fa3f3e6b3c0c7f5b9fd6fd38738063cc6b42fe50b53251800fdffffff025ca305000000000017a9140272230e42f62109d070c2bb11a2f715ee8a7d1b87f775c607000000001976a914fdfe3e97bce663e1c806747da34c99b2c322b64488ac0d490800", "vin": [{"sequence": 4294967293, "scriptSig": {"hex": "48304502210096cfb80e0208ba33cdf94f5d6f7130a9edd1c97d608b41d5f1ee8c8b109f716c022057900fd6f079399be965e89a856858a8d553e61a049b6dce16567c1d2c8de41201210215af5fa6c9388f0fa3f3e6b3c0c7f5b9fd6fd38738063cc6b42fe50b53251800", "asm": "304502210096cfb80e0208ba33cdf94f5d6f7130a9edd1c97d608b41d5f1ee8c8b109f716c022057900fd6f079399be965e89a856858a8d553e61a049b6dce16567c1d2c8de412[ALL] 0215af5fa6c9388f0fa3f3e6b3c0c7f5b9fd6fd38738063cc6b42fe50b53251800"}, "vout": 1, "txid": "6c9ad721c0c71ffc1ab38b0610cfe22a6db630e6608c3184f2ebea327ca1c4e3"}, {"sequence": 4294967293, "scriptSig": {"hex": "473044022003f7a2c9115432f97d6c5b4e3c4ddc2e293cb9d22ffe83463d492064985cd26802201f4245d5eb63fe67ae97ae82ba6b515d77d831b28fb7937812ddce4138bca46d01210215af5fa6c9388f0fa3f3e6b3c0c7f5b9fd6fd38738063cc6b42fe50b53251800", "asm": "3044022003f7a2c9115432f97d6c5b4e3c4ddc2e293cb9d22ffe83463d492064985cd26802201f4245d5eb63fe67ae97ae82ba6b515d77d831b28fb7937812ddce4138bca46d[ALL] 0215af5fa6c9388f0fa3f3e6b3c0c7f5b9fd6fd38738063cc6b42fe50b53251800"}, "vout": 1, "txid": "e8d2dc047945e5890fbd2dbe841ac78d242528fc28d123c935f3c5da761b4aa6"}], "txid": "313c292318ebc62b317d82e4ac87ae85c922c7f34aedc2088ec22cfea35be042", "blocktime": 1537870564, "version": 1, "confirmations": 11515, "time": 1537870564, "locktime": 542989, "vsize": 371, "size": 371}