{"hash": "3140ee781448645f8e5f4c3324b446d8a1716a3d821e570f4d7f01c8e6ae77ee", "blockhash": "0000000000000000001f76057863aec43deb6fa401d9628bb513d65a8098bfab", "vout": [{"scriptPubKey": {"reqSigs": 1, "hex": "76a9146e9ef05712213f8cf1168ff8b30408dc2f462a5a88ac", "addresses": ["1B5ujNA3jfCeuGWetPn5gg1kyYWUAwMbF1"], "asm": "OP_DUP OP_HASH160 6e9ef05712213f8cf1168ff8b30408dc2f462a5a OP_EQUALVERIFY OP_CHECKSIG", "type": "pubkeyhash"}, "value": 0.0063981, "n": 0}, {"scriptPubKey": {"type": "nulldata", "hex": "6a4c50000077e00001b15f0a0b270be8f1c94f23bb7af8e8e963c7cfd5b95b23cc0f42c2fc38c5da02c0d93ca171c0d941a9a1deb0e2735baa169c0612408b743db2c71d100759d4ba30d2c37bb011d97e02cf", "asm": "OP_RETURN 000077e00001b15f0a0b270be8f1c94f23bb7af8e8e963c7cfd5b95b23cc0f42c2fc38c5da02c0d93ca171c0d941a9a1deb0e2735baa169c0612408b743db2c71d100759d4ba30d2c37bb011d97e02cf"}, "value": 0.0, "n": 1}], "hex": "01000000019facc46a296db65d313f6a09a55426467ffb14b71ae18896970ae9d2136e8420000000006a4730440220340d4236165d979ade09b166669c65be73fe5f39a81ccf0747a4a1bd8856575c022043fae65af58e368a167115cc8899344abd7f345cdcebf71243071a7dbeb75fa301210238be90ec4c9e44caa6d8f33f79c28615209e0d2d71db8958229c20f9b5f2d6bbffffffff0242c30900000000001976a9146e9ef05712213f8cf1168ff8b30408dc2f462a5a88ac0000000000000000536a4c50000077e00001b15f0a0b270be8f1c94f23bb7af8e8e963c7cfd5b95b23cc0f42c2fc38c5da02c0d93ca171c0d941a9a1deb0e2735baa169c0612408b743db2c71d100759d4ba30d2c37bb011d97e02cf00000000", "vin": [{"sequence": 4294967295, "scriptSig": {"hex": "4730440220340d4236165d979ade09b166669c65be73fe5f39a81ccf0747a4a1bd8856575c022043fae65af58e368a167115cc8899344abd7f345cdcebf71243071a7dbeb75fa301210238be90ec4c9e44caa6d8f33f79c28615209e0d2d71db8958229c20f9b5f2d6bb", "asm": "30440220340d4236165d979ade09b166669c65be73fe5f39a81ccf0747a4a1bd8856575c022043fae65af58e368a167115cc8899344abd7f345cdcebf71243071a7dbeb75fa3[ALL] 0238be90ec4c9e44caa6d8f33f79c28615209e0d2d71db8958229c20f9b5f2d6bb"}, "vout": 0, "txid": "20846e13d2e90a979688e11ab714fb7f462654a5096a3f315db66d296ac4ac9f"}], "txid": "3140ee781448645f8e5f4c3324b446d8a1716a3d821e570f4d7f01c8e6ae77ee", "blocktime": 1537873891, "version": 1, "confirmations": 11478, "time": 1537873891, "locktime": 0, "vsize": 283, "size": 283}