{"hash": "3141d3fd04a12b3deee8f3efa36aafb17004d32a94271d83da16ad52a971f5d9", "blockhash": "0000000000000000001cda96e906b7601b7a6fb1a3b62bca570a9e5d8f4b3de1", "vout": [{"scriptPubKey": {"reqSigs": 1, "hex": "a914d4ad2401f53c52dab3451074aebddd3deae888c287", "addresses": ["3M5YbEc9ovGr6eNNvKwyF84TnaZMdcn52z"], "asm": "OP_HASH160 d4ad2401f53c52dab3451074aebddd3deae888c2 OP_EQUAL", "type": "scripthash"}, "value": 0.0036, "n": 0}, {"scriptPubKey": {"reqSigs": 1, "hex": "76a914eb2aa1c8d1e880ef91777b99f60fdf77f3b8b23288ac", "addresses": ["1NSSsCgUZXgqvbjALLiYh75NLpAYwZQvoJ"], "asm": "OP_DUP OP_HASH160 eb2aa1c8d1e880ef91777b99f60fdf77f3b8b232 OP_EQUALVERIFY OP_CHECKSIG", "type": "pubkeyhash"}, "value": 0.0103475, "n": 1}], "hex": "01000000019ee600f6e419a3c62acd99e62c391ffde24da916be094d585f225da82f71e1d6010000006a47304402207b581b769a9cb1439954784425955efbe6da4660fe446f0a54214ca3f9643c370220529fe195ad3d19d058b64fc115fe2609e51119418cdd457e80178d92b019e5ec012103faeef58a5c8f7ea0da49256de293ec7ed863ed4b7b060917fe38f1891a383dc6ffffffff02407e05000000000017a914d4ad2401f53c52dab3451074aebddd3deae888c287fec90f00000000001976a914eb2aa1c8d1e880ef91777b99f60fdf77f3b8b23288ac00000000", "vin": [{"sequence": 4294967295, "scriptSig": {"hex": "47304402207b581b769a9cb1439954784425955efbe6da4660fe446f0a54214ca3f9643c370220529fe195ad3d19d058b64fc115fe2609e51119418cdd457e80178d92b019e5ec012103faeef58a5c8f7ea0da49256de293ec7ed863ed4b7b060917fe38f1891a383dc6", "asm": "304402207b581b769a9cb1439954784425955efbe6da4660fe446f0a54214ca3f9643c370220529fe195ad3d19d058b64fc115fe2609e51119418cdd457e80178d92b019e5ec[ALL] 03faeef58a5c8f7ea0da49256de293ec7ed863ed4b7b060917fe38f1891a383dc6"}, "vout": 1, "txid": "d6e1712fa85d225f584d09be16a94de2fd1f392ce699cd2ac6a319e4f600e69e"}], "txid": "3141d3fd04a12b3deee8f3efa36aafb17004d32a94271d83da16ad52a971f5d9", "blocktime": 1537873282, "version": 1, "confirmations": 11482, "time": 1537873282, "locktime": 0, "vsize": 223, "size": 223}