{"hash": "31411f4ce47b9d039bdf70ae3401ecb9301fdacbe883ecd7f1c834292ac8bbf4", "blockhash": "0000000000000000001cda96e906b7601b7a6fb1a3b62bca570a9e5d8f4b3de1", "vout": [{"scriptPubKey": {"reqSigs": 1, "hex": "00140c4e3288d32a3320cba907ad1b44421361e687db", "addresses": ["bc1qp38r9zxn9gejpjafq7k3k3zzzds7dp7mjzt7e4"], "asm": "0 0c4e3288d32a3320cba907ad1b44421361e687db", "type": "witness_v0_keyhash"}, "value": 0.0002114, "n": 0}, {"scriptPubKey": {"reqSigs": 1, "hex": "76a914df7b9d788f7a1d3630084b208d865c778725ab6888ac", "addresses": ["1MNfmi2YQ497VxBRXqiFsvDRCjZW1Q3MgW"], "asm": "OP_DUP OP_HASH160 df7b9d788f7a1d3630084b208d865c778725ab68 OP_EQUALVERIFY OP_CHECKSIG", "type": "pubkeyhash"}, "value": 0.005, "n": 1}], "hex": "01000000018b32c5a6456d46c3e1a2efcb33815dfda955bbf44ebe5f830067340a9801f2123e0000006a473044022077c1de99d0f57a0ea3f9392fd80e3dbe86142590998e4291b85f4833ed7f3680022058928bfaed5843c048655876080e2660e953e8c841980fbbd510213fe8736302012102012e1cfb8b2691b9ffe81d8c7ec3df1bdedc8512fe26d1d148721be057302b51ffffffff0294520000000000001600140c4e3288d32a3320cba907ad1b44421361e687db20a10700000000001976a914df7b9d788f7a1d3630084b208d865c778725ab6888ac00000000", "vin": [{"sequence": 4294967295, "scriptSig": {"hex": "473044022077c1de99d0f57a0ea3f9392fd80e3dbe86142590998e4291b85f4833ed7f3680022058928bfaed5843c048655876080e2660e953e8c841980fbbd510213fe8736302012102012e1cfb8b2691b9ffe81d8c7ec3df1bdedc8512fe26d1d148721be057302b51", "asm": "3044022077c1de99d0f57a0ea3f9392fd80e3dbe86142590998e4291b85f4833ed7f3680022058928bfaed5843c048655876080e2660e953e8c841980fbbd510213fe8736302[ALL] 02012e1cfb8b2691b9ffe81d8c7ec3df1bdedc8512fe26d1d148721be057302b51"}, "vout": 62, "txid": "12f201980a346700835fbe4ef4bb55a9fd5d8133cbefa2e1c3466d45a6c5328b"}], "txid": "31411f4ce47b9d039bdf70ae3401ecb9301fdacbe883ecd7f1c834292ac8bbf4", "blocktime": 1537873282, "version": 1, "confirmations": 11484, "time": 1537873282, "locktime": 0, "vsize": 222, "size": 222}