{"hash": "314395e9e8d3331ecc54ae1d32ac9f8d63ff949b2fe4b65733fbd14ffa3f5aaf", "blockhash": "0000000000000000001f76057863aec43deb6fa401d9628bb513d65a8098bfab", "vout": [{"scriptPubKey": {"reqSigs": 1, "hex": "a9140af84bec96a3846459ccb5dd15f32f4a852290cd87", "addresses": ["32h28QnBi5zboeBMGF9yeFZL3mQvT8Y6cp"], "asm": "OP_HASH160 0af84bec96a3846459ccb5dd15f32f4a852290cd OP_EQUAL", "type": "scripthash"}, "value": 0.03444395, "n": 0}], "hex": "010000000196e4481a07ff7e1b3e8d32ac0f22faa82856ef0c641a08a8134e3cbd94c8155b000000006b483045022100a9704aa91f617a430376a9c5b63e759e6ae3dff954b860153b1a45a9e7d531b702203f8ded5d05e35c1f1de06ce0a5127dbbb7c9097ec6498d726cfec20f6a6213690121027862a105a8169e1ac2412473171b2525fa768f5225c1bad0143583a1b7dd356effffffff01ab8e34000000000017a9140af84bec96a3846459ccb5dd15f32f4a852290cd8700000000", "vin": [{"sequence": 4294967295, "scriptSig": {"hex": "483045022100a9704aa91f617a430376a9c5b63e759e6ae3dff954b860153b1a45a9e7d531b702203f8ded5d05e35c1f1de06ce0a5127dbbb7c9097ec6498d726cfec20f6a6213690121027862a105a8169e1ac2412473171b2525fa768f5225c1bad0143583a1b7dd356e", "asm": "3045022100a9704aa91f617a430376a9c5b63e759e6ae3dff954b860153b1a45a9e7d531b702203f8ded5d05e35c1f1de06ce0a5127dbbb7c9097ec6498d726cfec20f6a621369[ALL] 027862a105a8169e1ac2412473171b2525fa768f5225c1bad0143583a1b7dd356e"}, "vout": 0, "txid": "5b15c894bd3c4e13a8081a640cef5628a8fa220fac328d3e1b7eff071a48e496"}], "txid": "314395e9e8d3331ecc54ae1d32ac9f8d63ff949b2fe4b65733fbd14ffa3f5aaf", "blocktime": 1537873891, "version": 1, "confirmations": 11475, "time": 1537873891, "locktime": 0, "vsize": 190, "size": 190}