{"hash": "63ba89f1d460f4eaafea0fe290285e4f812a74c521b0dfa7385f4f36b35c31df", "blockhash": "000000000000000000022b45ed06c6f4ccd3cf7fb5ba4856ebd2e58215665228", "vout": [{"scriptPubKey": {"reqSigs": 1, "hex": "76a9142ed2966884ef5934986d7a1a5e2156021456ec2988ac", "addresses": ["15GaMhk5QnLYjtHTUSw7HNk5Z2YSKRY7CP"], "asm": "OP_DUP OP_HASH160 2ed2966884ef5934986d7a1a5e2156021456ec29 OP_EQUALVERIFY OP_CHECKSIG", "type": "pubkeyhash"}, "value": 0.0049, "n": 0}, {"scriptPubKey": {"reqSigs": 1, "hex": "a914627aa52932456d89054bd84f86246af3b71b93a887", "addresses": ["3Afj4stdiLG9EktGrMbm252ySonnhYaz8v"], "asm": "OP_HASH160 627aa52932456d89054bd84f86246af3b71b93a8 OP_EQUAL", "type": "scripthash"}, "value": 0.80653054, "n": 1}], "hex": "01000000000101fcc01efabd85efdfcb020f0e36067306be1260955d9a4e51c142076eaf1f73bf01000000232200205fdd641234b13964b223bd85ad2a4a667ca2099df3d42a1d3b45706a8d81abf0ffffffff02107a0700000000001976a9142ed2966884ef5934986d7a1a5e2156021456ec2988acfeaace040000000017a914627aa52932456d89054bd84f86246af3b71b93a887040047304402202ea5c644d4ddd1951468148da7c70ee4b3f463e2409d82b11d456691a97a366002201721a47fa5f94abbd63732126accfd110032a2cb0e00bc1447714d81dbcbbfbc01473044022062faa0295bbee46b33d92fd12da7b1e7536c13fe34f9aaf7ee483d8b05e5f4a3022004c4fc147652f292462ef82e26f2a0addd57c51947f9fc70670153dc2860341a0147522103dcde3832fa56def7b4e783faad1b8af85c3cdd74a5ff4f3c7c216b1075c18da12103c70ae8ded79be1afda73b9ce5ea14a3878908ee160d66a9a717e792bb6db276952ae00000000", "vin": [{"txinwitness": ["", "304402202ea5c644d4ddd1951468148da7c70ee4b3f463e2409d82b11d456691a97a366002201721a47fa5f94abbd63732126accfd110032a2cb0e00bc1447714d81dbcbbfbc01", "3044022062faa0295bbee46b33d92fd12da7b1e7536c13fe34f9aaf7ee483d8b05e5f4a3022004c4fc147652f292462ef82e26f2a0addd57c51947f9fc70670153dc2860341a01", "522103dcde3832fa56def7b4e783faad1b8af85c3cdd74a5ff4f3c7c216b1075c18da12103c70ae8ded79be1afda73b9ce5ea14a3878908ee160d66a9a717e792bb6db276952ae"], "sequence": 4294967295, "scriptSig": {"hex": "2200205fdd641234b13964b223bd85ad2a4a667ca2099df3d42a1d3b45706a8d81abf0", "asm": "00205fdd641234b13964b223bd85ad2a4a667ca2099df3d42a1d3b45706a8d81abf0"}, "vout": 1, "txid": "bf731faf6e0742c1514e9a5d956012be067306360e0f02cbdfef85bdfa1ec0fc"}], "txid": "314a447d263a6778d6d75cd84afd536653b0e79e70542c9cc55804c8f00ba45a", "blocktime": 1537869901, "version": 1, "confirmations": 11523, "time": 1537869901, "locktime": 0, "vsize": 207, "size": 372}