{"hash": "314c8d3b2f4278615cfa9bcce238af3ee4ef7820f85334373cefc941b1d86061", "blockhash": "0000000000000000001e0dab787dd257d1dbfcb92a98c2207d5e1078be1f4165", "vout": [{"scriptPubKey": {"reqSigs": 1, "hex": "76a91436948a4c579eaae124a03cdbae20b010ffa842c788ac", "addresses": ["15ybS7f7KjZTSpTGsjkXNHUDmUeykExJ7g"], "asm": "OP_DUP OP_HASH160 36948a4c579eaae124a03cdbae20b010ffa842c7 OP_EQUALVERIFY OP_CHECKSIG", "type": "pubkeyhash"}, "value": 0.00202791, "n": 0}, {"scriptPubKey": {"reqSigs": 1, "hex": "76a9145d99e4d0af789634a5d159417524f4f23bad212988ac", "addresses": ["19XvCa2yuNeiiBi6KNz3B7dPYpqUTHFVq3"], "asm": "OP_DUP OP_HASH160 5d99e4d0af789634a5d159417524f4f23bad2129 OP_EQUALVERIFY OP_CHECKSIG", "type": "pubkeyhash"}, "value": 0.174595, "n": 1}], "hex": "01000000011730d3dd360b84e6167fdda2c97c4321f4dd1983e21694c87dfeaebfde6b7c69010000006b48304502210080e35f114164548075ce177c7bfff1866f143980e58aa91d557b83f8cd9fd12f02200bd4f417e5cf5649a2ab31051f8da84fed9271c85d238171de147ad330498b1a0121037601a3ec371ad699b2e6606d1d64351395744e994e578c03f5d2d9589c6e6df6ffffffff0227180300000000001976a91436948a4c579eaae124a03cdbae20b010ffa842c788ac2c690a01000000001976a9145d99e4d0af789634a5d159417524f4f23bad212988ac00000000", "vin": [{"sequence": 4294967295, "scriptSig": {"hex": "48304502210080e35f114164548075ce177c7bfff1866f143980e58aa91d557b83f8cd9fd12f02200bd4f417e5cf5649a2ab31051f8da84fed9271c85d238171de147ad330498b1a0121037601a3ec371ad699b2e6606d1d64351395744e994e578c03f5d2d9589c6e6df6", "asm": "304502210080e35f114164548075ce177c7bfff1866f143980e58aa91d557b83f8cd9fd12f02200bd4f417e5cf5649a2ab31051f8da84fed9271c85d238171de147ad330498b1a[ALL] 037601a3ec371ad699b2e6606d1d64351395744e994e578c03f5d2d9589c6e6df6"}, "vout": 1, "txid": "697c6bdebfaefe7dc89416e28319ddf421437cc9a2dd7f16e6840b36ddd33017"}], "txid": "314c8d3b2f4278615cfa9bcce238af3ee4ef7820f85334373cefc941b1d86061", "blocktime": 1537872475, "version": 1, "confirmations": 11487, "time": 1537872475, "locktime": 0, "vsize": 226, "size": 226}