{"hash": "34527d2b9715aece4b6422ee6f89ddbb9e8fcb3b95baaf6dd47bfbdf3ba2ffc5", "blockhash": "00000000000000000017f5eb5941039fbcee6240d03bc1f2f8e35350df66a1d8", "vout": [{"scriptPubKey": {"reqSigs": 1, "hex": "a9140aeacdd3c9ee43fb9ad1832112cec2d6d07d4ed687", "addresses": ["32gjxvwkb1EQRj4Lh8HKNnvNAhbnzXUWg8"], "asm": "OP_HASH160 0aeacdd3c9ee43fb9ad1832112cec2d6d07d4ed6 OP_EQUAL", "type": "scripthash"}, "value": 0.00276917, "n": 0}, {"scriptPubKey": {"reqSigs": 1, "hex": "00140db03c28d667241fdca648b694a73e6b599deced", "addresses": ["bc1qpkcrc2xkvujplh9xfzmfffe7ddvemm8dzpp22f"], "asm": "0 0db03c28d667241fdca648b694a73e6b599deced", "type": "witness_v0_keyhash"}, "value": 1.659e-05, "n": 1}], "hex": "01000000000101830f5c8d21051a813d0e1fc6fc09d1b0465279c66f6662b1f6d075f5c36fc5a30000000000ffffffff02b53904000000000017a9140aeacdd3c9ee43fb9ad1832112cec2d6d07d4ed6877b060000000000001600140db03c28d667241fdca648b694a73e6b599deced02473044022054dcd0efa69f9fdada2a12160438ed0661287b19898b697066c38aade1be90bd02204e57916ab75d1830c8f2c980dd58cf860c5c86a021d5615eebbd40bf956f10cd012102056871d601683bb0dcd698bfa07a5599b2712f6a50ec44aaceab2bcf1cbf5b6600000000", "vin": [{"txinwitness": ["3044022054dcd0efa69f9fdada2a12160438ed0661287b19898b697066c38aade1be90bd02204e57916ab75d1830c8f2c980dd58cf860c5c86a021d5615eebbd40bf956f10cd01", "02056871d601683bb0dcd698bfa07a5599b2712f6a50ec44aaceab2bcf1cbf5b66"], "sequence": 4294967295, "scriptSig": {"hex": "", "asm": ""}, "vout": 0, "txid": "a3c56fc3f575d0f6b162666fc6795246b0d109fcc61f0e3d811a05218d5c0f83"}], "txid": "314dc5ca56f4566c906bfd2052d16d467952f19303a2ceb752cfd865289af1df", "blocktime": 1537874412, "version": 1, "confirmations": 11467, "time": 1537874412, "locktime": 0, "vsize": 142, "size": 223}