{"hash": "f1d7656b55e08a517aa2a698a9b7a398b884c9ea6fd77a2233801d2517ca7e5b", "blockhash": "0000000000000000001f0ddff1eddb255c1121bcd4da4f1bc9a0da00cae72433", "vout": [{"scriptPubKey": {"reqSigs": 1, "hex": "0014e39c1cf9a06a54fa71175167f6bbb249327a4445", "addresses": ["bc1quwwpe7dqdf205ugh29nldwajfye853z9atk2ql"], "asm": "0 e39c1cf9a06a54fa71175167f6bbb249327a4445", "type": "witness_v0_keyhash"}, "value": 1.31793195, "n": 0}, {"scriptPubKey": {"reqSigs": 1, "hex": "76a91497b06ed193a79305054eea0c5df0ae94ad1494cf88ac", "addresses": ["1Eq4PjpEwFdxD1XXdczi5jjN3D97CQ4v98"], "asm": "OP_DUP OP_HASH160 97b06ed193a79305054eea0c5df0ae94ad1494cf OP_EQUALVERIFY OP_CHECKSIG", "type": "pubkeyhash"}, "value": 0.01, "n": 1}], "hex": "0200000000010115030ffed2494c12bf2073d46397cd71ba53b9c05ad8fa0d840adfe197fcd28e0100000000feffffff022b01db0700000000160014e39c1cf9a06a54fa71175167f6bbb249327a444540420f00000000001976a91497b06ed193a79305054eea0c5df0ae94ad1494cf88ac024830450221008bb31428a099aa860c4701dbb330687125080ac6879c83e5c9bf84322f17370e022046d238cbe6859e028e8670a795a5cf07b546ff664dfdf5c1382a9d4676a2c1f5012103d7a8f9eadba39c833fb4b805b9499d2268bc87021d34e477a3973da90ef6377100000000", "vin": [{"txinwitness": ["30450221008bb31428a099aa860c4701dbb330687125080ac6879c83e5c9bf84322f17370e022046d238cbe6859e028e8670a795a5cf07b546ff664dfdf5c1382a9d4676a2c1f501", "03d7a8f9eadba39c833fb4b805b9499d2268bc87021d34e477a3973da90ef63771"], "sequence": 4294967294, "scriptSig": {"hex": "", "asm": ""}, "vout": 1, "txid": "8ed2fc97e1df0a840dfad85ac0b953ba71cd9763d47320bf124c49d2fe0f0315"}], "txid": "314fda5cdc1322a3ee515c05af067a4b318195b681b53164184b1265b5c18189", "blocktime": 1537872018, "version": 2, "confirmations": 11489, "time": 1537872018, "locktime": 0, "vsize": 144, "size": 226}