{"hash": "8b77c2507e2fe0a439de1d4cf04d3a45966b44a8fb2813e45995d196054626e7", "blockhash": "000000000000000000022b45ed06c6f4ccd3cf7fb5ba4856ebd2e58215665228", "vout": [{"scriptPubKey": {"reqSigs": 1, "hex": "76a914b3c81ffc479bb2d78e5943197cb593bb0054a39888ac", "addresses": ["1HPbhGDxB6B6v3Zg78YKuqJCkFBwrnwLYH"], "asm": "OP_DUP OP_HASH160 b3c81ffc479bb2d78e5943197cb593bb0054a398 OP_EQUALVERIFY OP_CHECKSIG", "type": "pubkeyhash"}, "value": 0.24027079, "n": 0}, {"scriptPubKey": {"reqSigs": 1, "hex": "0014772b202fd2eb5b7b83133c01004bf809ebfb7a48", "addresses": ["bc1qwu4jqt7jaddhhqcn8sqsqjlcp84lk7jgzeyue9"], "asm": "0 772b202fd2eb5b7b83133c01004bf809ebfb7a48", "type": "witness_v0_keyhash"}, "value": 0.06599799, "n": 1}], "hex": "01000000000101806b36096e11225383700386224820ee9810a2d2f892ce60cf4b4f4dcdd22db90000000000ffffffff02c79f6e01000000001976a914b3c81ffc479bb2d78e5943197cb593bb0054a39888ac77b4640000000000160014772b202fd2eb5b7b83133c01004bf809ebfb7a4802473044022029b76d8cee6b07a6eb9b724370e625ce3c4941f3f57ae6677466be17c6dac992022052a313c1bd45c1336148993e7fedb0398ae2e988c8d05d24d260794a20f5f03c012102fd239ef28b8436b00e4c29051eda68372e467d238e5880a66c194b0b5f81f31100000000", "vin": [{"txinwitness": ["3044022029b76d8cee6b07a6eb9b724370e625ce3c4941f3f57ae6677466be17c6dac992022052a313c1bd45c1336148993e7fedb0398ae2e988c8d05d24d260794a20f5f03c01", "02fd239ef28b8436b00e4c29051eda68372e467d238e5880a66c194b0b5f81f311"], "sequence": 4294967295, "scriptSig": {"hex": "", "asm": ""}, "vout": 0, "txid": "b92dd2cd4d4f4bcf60ce92f8d2a21098ee204822860370835322116e09366b80"}], "txid": "3151849accecf7628049fd4562223d9dae9ef8beb03fb09c4a27fcb6ff82dc6d", "blocktime": 1537869901, "version": 1, "confirmations": 11523, "time": 1537869901, "locktime": 0, "vsize": 144, "size": 225}