{"hash": "315c34bf55130a156385b0c35b2e47475c5b444ba47ed0925e8480be7d46f1aa", "blockhash": "0000000000000000001e0dab787dd257d1dbfcb92a98c2207d5e1078be1f4165", "vout": [{"scriptPubKey": {"reqSigs": 1, "hex": "76a914cca51fcb56b6deb647ea482c8e4fc668793f02b588ac", "addresses": ["1Kf4fAVixUAHMUYJ8URRNVKQgskiiAwDoj"], "asm": "OP_DUP OP_HASH160 cca51fcb56b6deb647ea482c8e4fc668793f02b5 OP_EQUALVERIFY OP_CHECKSIG", "type": "pubkeyhash"}, "value": 0.001, "n": 0}, {"scriptPubKey": {"reqSigs": 1, "hex": "76a914ca73a6f5cda86d3c21cef72a2e42292b9980627c88ac", "addresses": ["1KTU3QUFbtaWxogoUxbWLijLqG4hHgBNgT"], "asm": "OP_DUP OP_HASH160 ca73a6f5cda86d3c21cef72a2e42292b9980627c OP_EQUALVERIFY OP_CHECKSIG", "type": "pubkeyhash"}, "value": 5.49238973, "n": 1}], "hex": "0200000001ea4083b04c19f450af8322698e50312915c557b0145e22887019cbee38f58e49000000006a473044022023437bbefcb88532c785dc987f625d9e8d9551bba9b9902467e1b73d8f291fb6022059c265125523949b7e8923f010a0f4c52baf5a22ac6dd2516f4e392d998c5d1f0121031b73d50789473b3dbec3f0090a8fdf58f540c9b4c4dfd0a7316b38af7c56faa1feffffff02a0860100000000001976a914cca51fcb56b6deb647ea482c8e4fc668793f02b588acbdb8bc20000000001976a914ca73a6f5cda86d3c21cef72a2e42292b9980627c88ac12490800", "vin": [{"sequence": 4294967294, "scriptSig": {"hex": "473044022023437bbefcb88532c785dc987f625d9e8d9551bba9b9902467e1b73d8f291fb6022059c265125523949b7e8923f010a0f4c52baf5a22ac6dd2516f4e392d998c5d1f0121031b73d50789473b3dbec3f0090a8fdf58f540c9b4c4dfd0a7316b38af7c56faa1", "asm": "3044022023437bbefcb88532c785dc987f625d9e8d9551bba9b9902467e1b73d8f291fb6022059c265125523949b7e8923f010a0f4c52baf5a22ac6dd2516f4e392d998c5d1f[ALL] 031b73d50789473b3dbec3f0090a8fdf58f540c9b4c4dfd0a7316b38af7c56faa1"}, "vout": 0, "txid": "498ef538eecb197088225e14b057c5152931508e692283af50f4194cb08340ea"}], "txid": "315c34bf55130a156385b0c35b2e47475c5b444ba47ed0925e8480be7d46f1aa", "blocktime": 1537872475, "version": 2, "confirmations": 11486, "time": 1537872475, "locktime": 542994, "vsize": 225, "size": 225}