{"hash": "315e3de901bd1393dd1349446c16a27366e9613379bb21eb3f53ebcd8e89c466", "blockhash": "0000000000000000001f76057863aec43deb6fa401d9628bb513d65a8098bfab", "vout": [{"scriptPubKey": {"reqSigs": 1, "hex": "76a91452d3654ad94d570477332216a45af812a12643b188ac", "addresses": ["18Ywem2CbdRakz72ZKzFy4egpZQpAwQLQ2"], "asm": "OP_DUP OP_HASH160 52d3654ad94d570477332216a45af812a12643b1 OP_EQUALVERIFY OP_CHECKSIG", "type": "pubkeyhash"}, "value": 0.0117335, "n": 0}, {"scriptPubKey": {"reqSigs": 1, "hex": "76a914f8ab2ee97a4daed3e9fd01580f1db33343d76a1e88ac", "addresses": ["1PfqebVVVaWgNBqRcEPz9HQfnNH29i2b2d"], "asm": "OP_DUP OP_HASH160 f8ab2ee97a4daed3e9fd01580f1db33343d76a1e OP_EQUALVERIFY OP_CHECKSIG", "type": "pubkeyhash"}, "value": 0.07708547, "n": 1}], "hex": "01000000014d2802a6128a165711117d6226bc57f7c8bdb008623f22d8f4431d5b60da0c30020000006a47304402203c1b34248b2ba061d70ed449cc25d8bc9d7f923ac3d4e8286ebc2e4b9d27e18c02203ee3a9bd2788704b5ee7c0422f825f8508d33fa7fd413afecdc83353f8543be9012102d1b9802802e72192be77a5121c7e5c23a27936abdb93eedb79422d7954a6f389ffffffff0266e71100000000001976a91452d3654ad94d570477332216a45af812a12643b188ac839f7500000000001976a914f8ab2ee97a4daed3e9fd01580f1db33343d76a1e88ac00000000", "vin": [{"sequence": 4294967295, "scriptSig": {"hex": "47304402203c1b34248b2ba061d70ed449cc25d8bc9d7f923ac3d4e8286ebc2e4b9d27e18c02203ee3a9bd2788704b5ee7c0422f825f8508d33fa7fd413afecdc83353f8543be9012102d1b9802802e72192be77a5121c7e5c23a27936abdb93eedb79422d7954a6f389", "asm": "304402203c1b34248b2ba061d70ed449cc25d8bc9d7f923ac3d4e8286ebc2e4b9d27e18c02203ee3a9bd2788704b5ee7c0422f825f8508d33fa7fd413afecdc83353f8543be9[ALL] 02d1b9802802e72192be77a5121c7e5c23a27936abdb93eedb79422d7954a6f389"}, "vout": 2, "txid": "300cda605b1d43f4d8223f6208b0bdc8f757bc26627d111157168a12a602284d"}], "txid": "315e3de901bd1393dd1349446c16a27366e9613379bb21eb3f53ebcd8e89c466", "blocktime": 1537873891, "version": 1, "confirmations": 11478, "time": 1537873891, "locktime": 0, "vsize": 225, "size": 225}