{"hash": "4965af1e641fda0c0b71c440afe06bdbf5115462477b75f26059c055eaeecfab", "blockhash": "0000000000000000000baef3f32e3676a92c3b2e5da21b426e4f302fc371ce76", "vout": [{"scriptPubKey": {"reqSigs": 1, "hex": "76a9140732924e09103ab9a4a23b568cf0cabee6dd654788ac", "addresses": ["1f4K7XJpo6d7SrY4mAwRSXM11mU8e21M8"], "asm": "OP_DUP OP_HASH160 0732924e09103ab9a4a23b568cf0cabee6dd6547 OP_EQUALVERIFY OP_CHECKSIG", "type": "pubkeyhash"}, "value": 0.89948648, "n": 0}, {"scriptPubKey": {"reqSigs": 1, "hex": "a914622d9125a7a769c4ac231cebb1414e3a439f464b87", "addresses": ["3Ae8jPiWdXHGXVPuADh5xozeY4dXs1CDFN"], "asm": "OP_HASH160 622d9125a7a769c4ac231cebb1414e3a439f464b OP_EQUAL", "type": "scripthash"}, "value": 2.1, "n": 1}], "hex": "0100000000010104d8753c42032689c5fffa3a2d3bc36f772a938efcbbbdc6988cd76dead447610100000017160014b7a67d199692a751b83f5d596af6cdd57cb959b8ffffffff02e8815c05000000001976a9140732924e09103ab9a4a23b568cf0cabee6dd654788ac8058840c0000000017a914622d9125a7a769c4ac231cebb1414e3a439f464b8702473044022070e5f3fbcb65ca9a238389ebcac4b9f9233b2c8d78b3214c9e24103c6efb43eb02202ae9b409f3e49484cb09b8f62451f474a7a154f9a88fca438f4d438cde06d839012102502ff2a01a943fa9ebdee94a02977d089744f864f63be445a866f74ece10d90600000000", "vin": [{"txinwitness": ["3044022070e5f3fbcb65ca9a238389ebcac4b9f9233b2c8d78b3214c9e24103c6efb43eb02202ae9b409f3e49484cb09b8f62451f474a7a154f9a88fca438f4d438cde06d83901", "02502ff2a01a943fa9ebdee94a02977d089744f864f63be445a866f74ece10d906"], "sequence": 4294967295, "scriptSig": {"hex": "160014b7a67d199692a751b83f5d596af6cdd57cb959b8", "asm": "0014b7a67d199692a751b83f5d596af6cdd57cb959b8"}, "vout": 1, "txid": "6147d4ea6dd78c98c6bdbbfc8e932a776fc33b2d3afaffc5892603423c75d804"}], "txid": "316a30e91d04a084a0bfef981a88bf59c056c8a74c3cb587cfe1458f24157b3e", "blocktime": 1537876114, "version": 1, "confirmations": 11460, "time": 1537876114, "locktime": 0, "vsize": 168, "size": 249}