{"hash": "316d410c136975b09aa6b92c3611f57132f58deb833b259bc64a978166d42345", "blockhash": "0000000000000000000baef3f32e3676a92c3b2e5da21b426e4f302fc371ce76", "vout": [{"scriptPubKey": {"type": "nulldata", "hex": "6a146f6d6e69000000000000001f00000003fed7cdf8", "asm": "OP_RETURN 6f6d6e69000000000000001f00000003fed7cdf8"}, "value": 0.0, "n": 0}, {"scriptPubKey": {"reqSigs": 1, "hex": "76a914a25dec4d0011064ef106a983c39c7a540699f22088ac", "addresses": ["1FoWyxwPXuj4C6abqwhjDWdz6D4PZgYRjA"], "asm": "OP_DUP OP_HASH160 a25dec4d0011064ef106a983c39c7a540699f220 OP_EQUALVERIFY OP_CHECKSIG", "type": "pubkeyhash"}, "value": 0.01995188, "n": 1}, {"scriptPubKey": {"reqSigs": 1, "hex": "76a914033844f53ac20e16bfcbdd780c12a29166bf4d9688ac", "addresses": ["1J2SEuAbGVdW76KKA9H7mzXAuTvWWWyP7"], "asm": "OP_DUP OP_HASH160 033844f53ac20e16bfcbdd780c12a29166bf4d96 OP_EQUALVERIFY OP_CHECKSIG", "type": "pubkeyhash"}, "value": 5.46e-06, "n": 2}], "hex": "0100000001a44813c76173a4fe9689194c29809e35be05f1741d9b5e1e9e8bd44070ac1fea940000006b483045022100b877bb890070f02940460becfa6dc30a9c90811f77a5db6623ac7df4a65999440220405ce99017ddf9c6332a3a5bcfd119a76b31df8036de915def95ad40978b5a02012103da5bac7b36d5aa38f531c6b9601e21bb598a4b6716ebed38b009a55dabde9440feffffff030000000000000000166a146f6d6e69000000000000001f00000003fed7cdf8b4711e00000000001976a914a25dec4d0011064ef106a983c39c7a540699f22088ac22020000000000001976a914033844f53ac20e16bfcbdd780c12a29166bf4d9688ac17490800", "vin": [{"sequence": 4294967294, "scriptSig": {"hex": "483045022100b877bb890070f02940460becfa6dc30a9c90811f77a5db6623ac7df4a65999440220405ce99017ddf9c6332a3a5bcfd119a76b31df8036de915def95ad40978b5a02012103da5bac7b36d5aa38f531c6b9601e21bb598a4b6716ebed38b009a55dabde9440", "asm": "3045022100b877bb890070f02940460becfa6dc30a9c90811f77a5db6623ac7df4a65999440220405ce99017ddf9c6332a3a5bcfd119a76b31df8036de915def95ad40978b5a02[ALL] 03da5bac7b36d5aa38f531c6b9601e21bb598a4b6716ebed38b009a55dabde9440"}, "vout": 148, "txid": "ea1fac7040d48b9e1e5e9b1d74f105be359e80294c198996fea47361c71348a4"}], "txid": "316d410c136975b09aa6b92c3611f57132f58deb833b259bc64a978166d42345", "blocktime": 1537876114, "version": 1, "confirmations": 11459, "time": 1537876114, "locktime": 542999, "vsize": 257, "size": 257}