{"hash": "34d8ccdd540c80d7b7f4b089bfbe708565392ced307511681d351ff7ad652d4e", "blockhash": "000000000000000000022b45ed06c6f4ccd3cf7fb5ba4856ebd2e58215665228", "vout": [{"scriptPubKey": {"reqSigs": 1, "hex": "76a914b5e91788c9c210ece60c13200b4dc81e7e230efe88ac", "addresses": ["1HarYEVTK3RhKZWKbqnekGbp6hEQjxXUgS"], "asm": "OP_DUP OP_HASH160 b5e91788c9c210ece60c13200b4dc81e7e230efe OP_EQUALVERIFY OP_CHECKSIG", "type": "pubkeyhash"}, "value": 0.0235686, "n": 0}, {"scriptPubKey": {"reqSigs": 1, "hex": "a9146056fe0fd1e452c8f11cf2e1c88ea00195eae4c887", "addresses": ["3AUR1JKRnc3yKDmhT68Z9YZNuJ3r89qziX"], "asm": "OP_HASH160 6056fe0fd1e452c8f11cf2e1c88ea00195eae4c8 OP_EQUAL", "type": "scripthash"}, "value": 0.00996972, "n": 1}], "hex": "020000000001048af26bcb64139e4d2b26c2af8eae83aac0ce91fa7c4e245d12d8264e1a9a1fec0100000017160014b08404b20345e3e540d5d5f009960a2eb35f4453feffffffb05077ed048eed50c301704cc75edeec0d58e9da93de8a75d04610678b11ba620100000017160014366b59bfeecbee1177e1f1609dbd8dd37ffe0cb1feffffffb7b29088e69d21449c6c1dd0279bc21898c544098fe73e790f967fe0d5ff873c01000000171600140b11e68f164ba9258fa7b249f5884d84910bc0dafefffffff9eda444024818d120713fe351d7bd3f73422c36216e775b39591f1bf4c544f805000000171600140686fcf1f4a81e7bfdc443edfff1eedb00da8b7afeffffff027cf62300000000001976a914b5e91788c9c210ece60c13200b4dc81e7e230efe88ac6c360f000000000017a9146056fe0fd1e452c8f11cf2e1c88ea00195eae4c887024730440220129801ac7ca4a30233058344152302e44b1286dc30f88b893757426af6a73f9f0220021cf5a0aa9fec16fb9195f1ed3e42642656c6403cb5cf46161023f8eb5d80dd0121025b78294f196e5fe377b34b35d042298beeafa77241f5fa850dd90b80178b9edf0247304402206726318e0bcc6cb543eb1e342bcac11c460b355570bfbf969922eee34f5c2bc9022055e110cd48e48d3db138df1f5b4c52182743db86d67af6a353a5c1ee3b3c4141012102715d1e467c88c44a50264d7770ab348b4b9dd0256a7b1bdcca7e39ce3c7dbe5a0247304402203b025e100a6bd174ea17c72d999813c02e39865c16ceb2cd33ffe4c4798ba32202203b189d41a462623f9e7a5240bdc1ed694d1d0f18108404258d8291749ae5a8c7012103b3f302c0cd9dc42e1da5a9f3bef0ce4a5b906b62f12f06e46e0378e99abefdc502483045022100f368542a9022a56b31faaaa3ee0d659e3607a889e6d792ae8f1f589c5d7cc93702200d2c47842c3b6f95065fb5a429dbd6b6eedfa77cb1ccd52d37759f482bdd545b012102247b3ed1512e996eb4f53bbd45872936a489515b1086f0b5a3b571a24fc252c90b490800", "vin": [{"txinwitness": ["30440220129801ac7ca4a30233058344152302e44b1286dc30f88b893757426af6a73f9f0220021cf5a0aa9fec16fb9195f1ed3e42642656c6403cb5cf46161023f8eb5d80dd01", "025b78294f196e5fe377b34b35d042298beeafa77241f5fa850dd90b80178b9edf"], "sequence": 4294967294, "scriptSig": {"hex": "160014b08404b20345e3e540d5d5f009960a2eb35f4453", "asm": "0014b08404b20345e3e540d5d5f009960a2eb35f4453"}, "vout": 1, "txid": "ec1f9a1a4e26d8125d244e7cfa91cec0aa83ae8eafc2262b4d9e1364cb6bf28a"}, {"txinwitness": ["304402206726318e0bcc6cb543eb1e342bcac11c460b355570bfbf969922eee34f5c2bc9022055e110cd48e48d3db138df1f5b4c52182743db86d67af6a353a5c1ee3b3c414101", "02715d1e467c88c44a50264d7770ab348b4b9dd0256a7b1bdcca7e39ce3c7dbe5a"], "sequence": 4294967294, "scriptSig": {"hex": "160014366b59bfeecbee1177e1f1609dbd8dd37ffe0cb1", "asm": "0014366b59bfeecbee1177e1f1609dbd8dd37ffe0cb1"}, "vout": 1, "txid": "62ba118b671046d0758ade93dae9580decde5ec74c7001c350ed8e04ed7750b0"}, {"txinwitness": ["304402203b025e100a6bd174ea17c72d999813c02e39865c16ceb2cd33ffe4c4798ba32202203b189d41a462623f9e7a5240bdc1ed694d1d0f18108404258d8291749ae5a8c701", "03b3f302c0cd9dc42e1da5a9f3bef0ce4a5b906b62f12f06e46e0378e99abefdc5"], "sequence": 4294967294, "scriptSig": {"hex": "1600140b11e68f164ba9258fa7b249f5884d84910bc0da", "asm": "00140b11e68f164ba9258fa7b249f5884d84910bc0da"}, "vout": 1, "txid": "3c87ffd5e07f960f793ee78f0944c59818c29b27d01d6c9c44219de68890b2b7"}, {"txinwitness": ["3045022100f368542a9022a56b31faaaa3ee0d659e3607a889e6d792ae8f1f589c5d7cc93702200d2c47842c3b6f95065fb5a429dbd6b6eedfa77cb1ccd52d37759f482bdd545b01", "02247b3ed1512e996eb4f53bbd45872936a489515b1086f0b5a3b571a24fc252c9"], "sequence": 4294967294, "scriptSig": {"hex": "1600140686fcf1f4a81e7bfdc443edfff1eedb00da8b7a", "asm": "00140686fcf1f4a81e7bfdc443edfff1eedb00da8b7a"}, "vout": 5, "txid": "f844c5f41b1f59395b776e21362c42733fbdd751e33f7120d118480244a4edf9"}], "txid": "316ecf9704d702c8b8c7dbfdac9e0b68e16ec828ceb77f84a28949517d487814", "blocktime": 1537869901, "version": 2, "confirmations": 11522, "time": 1537869901, "locktime": 542987, "vsize": 440, "size": 763}