{"hash": "316f447f1669aeedef1e5bf8497e897977f0d01a5dea9db3b38481467dfa4522", "blockhash": "0000000000000000000e13cef7c366c0283d82e591d1acd082e914b08063cdf1", "vout": [{"scriptPubKey": {"reqSigs": 1, "hex": "76a914fe2f9f142b98b6c102280d924213d542b0d076ed88ac", "addresses": ["1QB1gX3FkptmE7HNbN8xotEbvjRJa2diqA"], "asm": "OP_DUP OP_HASH160 fe2f9f142b98b6c102280d924213d542b0d076ed OP_EQUALVERIFY OP_CHECKSIG", "type": "pubkeyhash"}, "value": 0.06874232, "n": 0}, {"scriptPubKey": {"reqSigs": 1, "hex": "76a914af049328b7b04778e3767088de6f02ce4486e6cd88ac", "addresses": ["1GxQjSGyRzvNcwB29NJHfDGQbNWgzJwFx3"], "asm": "OP_DUP OP_HASH160 af049328b7b04778e3767088de6f02ce4486e6cd OP_EQUALVERIFY OP_CHECKSIG", "type": "pubkeyhash"}, "value": 0.0154658, "n": 1}], "hex": "01000000010db73413bd7236736899c79e03e2490ca8d18500148aa0ea7766283643401f9c010000006a47304402207541cfa9a3712b7ecaa247f4f734584030b40e399c2bb9f8e99300313c1efd3a02202021d0fc10e6eb56f79c36af7ce7a8cf45fd952e0f303b70d8f91152a6c24de80121021785f9e7fd0262d882062e17efb6d470eeae6afefce46d21961aab52e6ffd87affffffff0278e46800000000001976a914fe2f9f142b98b6c102280d924213d542b0d076ed88ac54991700000000001976a914af049328b7b04778e3767088de6f02ce4486e6cd88ac00000000", "vin": [{"sequence": 4294967295, "scriptSig": {"hex": "47304402207541cfa9a3712b7ecaa247f4f734584030b40e399c2bb9f8e99300313c1efd3a02202021d0fc10e6eb56f79c36af7ce7a8cf45fd952e0f303b70d8f91152a6c24de80121021785f9e7fd0262d882062e17efb6d470eeae6afefce46d21961aab52e6ffd87a", "asm": "304402207541cfa9a3712b7ecaa247f4f734584030b40e399c2bb9f8e99300313c1efd3a02202021d0fc10e6eb56f79c36af7ce7a8cf45fd952e0f303b70d8f91152a6c24de8[ALL] 021785f9e7fd0262d882062e17efb6d470eeae6afefce46d21961aab52e6ffd87a"}, "vout": 1, "txid": "9c1f404336286677eaa08a140085d1a80c49e2039ec79968733672bd1334b70d"}], "txid": "316f447f1669aeedef1e5bf8497e897977f0d01a5dea9db3b38481467dfa4522", "blocktime": 1537871767, "version": 1, "confirmations": 11490, "time": 1537871767, "locktime": 0, "vsize": 225, "size": 225}