{"hash": "3173ef6990f348af5e0e30bc30e71ad1d367876d5af7b8b795fe3717a5867d8a", "blockhash": "000000000000000000022b45ed06c6f4ccd3cf7fb5ba4856ebd2e58215665228", "vout": [{"scriptPubKey": {"reqSigs": 1, "hex": "76a914c3b77b319a2cff0ab57f5bfc3d328970b24b71cf88ac", "addresses": ["1JqrZuYjNjgw3LXocm7oBQeEHdsbdYHUoV"], "asm": "OP_DUP OP_HASH160 c3b77b319a2cff0ab57f5bfc3d328970b24b71cf OP_EQUALVERIFY OP_CHECKSIG", "type": "pubkeyhash"}, "value": 0.00025603, "n": 0}, {"scriptPubKey": {"reqSigs": 1, "hex": "a9142fdfbdd31fa86a6f0be98f424f52bbf0e0a7684a87", "addresses": ["3649iPgi3tiN8VbATpCuihHmJDMnef4ofJ"], "asm": "OP_HASH160 2fdfbdd31fa86a6f0be98f424f52bbf0e0a7684a OP_EQUAL", "type": "scripthash"}, "value": 0.0077975, "n": 1}], "hex": "010000000130c70b17a73a75ed9ed3204cb1a4750887808a468b8f65ec13c969edc0393674010000006b48304502210098df5982f8800b0c7da5d21168b6ae5846021df25723d1d75ee94f093b7f7ef70220108c97381c4eced50b1d1252acb5e06930bb35f05e18aaa60ab3cac45e816127012102d246c3909559f1d081aa3b35dd001c9bb8856fad9bb9b5423ef32415c21af3c4ffffffff0203640000000000001976a914c3b77b319a2cff0ab57f5bfc3d328970b24b71cf88ace6e50b000000000017a9142fdfbdd31fa86a6f0be98f424f52bbf0e0a7684a8700000000", "vin": [{"sequence": 4294967295, "scriptSig": {"hex": "48304502210098df5982f8800b0c7da5d21168b6ae5846021df25723d1d75ee94f093b7f7ef70220108c97381c4eced50b1d1252acb5e06930bb35f05e18aaa60ab3cac45e816127012102d246c3909559f1d081aa3b35dd001c9bb8856fad9bb9b5423ef32415c21af3c4", "asm": "304502210098df5982f8800b0c7da5d21168b6ae5846021df25723d1d75ee94f093b7f7ef70220108c97381c4eced50b1d1252acb5e06930bb35f05e18aaa60ab3cac45e816127[ALL] 02d246c3909559f1d081aa3b35dd001c9bb8856fad9bb9b5423ef32415c21af3c4"}, "vout": 1, "txid": "743639c0ed69c913ec658f8b468a80870875a4b14c20d39eed753aa7170bc730"}], "txid": "3173ef6990f348af5e0e30bc30e71ad1d367876d5af7b8b795fe3717a5867d8a", "blocktime": 1537869901, "version": 1, "confirmations": 11523, "time": 1537869901, "locktime": 0, "vsize": 224, "size": 224}