{"hash": "993359470ee3e508c04160b813fa93418cf8279d750c771d27698c99404ef473", "blockhash": "0000000000000000000dcc0f55137456b1a82d3642486a52398922ac4d620174", "vout": [{"scriptPubKey": {"reqSigs": 1, "hex": "a91401377d00d62f6a68434fa0548d8b15988c7b5ee787", "addresses": ["31oT58V3QcYSyKThE1ELDHzBpDwigvkEGh"], "asm": "OP_HASH160 01377d00d62f6a68434fa0548d8b15988c7b5ee7 OP_EQUAL", "type": "scripthash"}, "value": 0.00188, "n": 0}, {"scriptPubKey": {"reqSigs": 1, "hex": "0014a46b113e4fa117d4a6e510e1391c214bee317a31", "addresses": ["bc1q5343z0j05ytaffh9zrsnj8ppf0hrz7333h0h75"], "asm": "0 a46b113e4fa117d4a6e510e1391c214bee317a31", "type": "witness_v0_keyhash"}, "value": 1.475e-05, "n": 1}], "hex": "01000000000101a342d0742b3b935c5d1abb2837e6270e080b67062afa5c6be3a3883329c61dc80100000000ffffffff0260de02000000000017a91401377d00d62f6a68434fa0548d8b15988c7b5ee787c305000000000000160014a46b113e4fa117d4a6e510e1391c214bee317a3102483045022100b2fe7460459a0740e656dc18771d11aa68f65bc5835a25132cd03a8c3a7256400220611bcbbb9ec67d7b0abc420b0474d50f2da825828b1d8d60d0893e74422643810121023a1fadbc8da7114a300f46f71fcb80c6967b372eeabf3eb9f33a5561c27ea0ae00000000", "vin": [{"txinwitness": ["3045022100b2fe7460459a0740e656dc18771d11aa68f65bc5835a25132cd03a8c3a7256400220611bcbbb9ec67d7b0abc420b0474d50f2da825828b1d8d60d0893e744226438101", "023a1fadbc8da7114a300f46f71fcb80c6967b372eeabf3eb9f33a5561c27ea0ae"], "sequence": 4294967295, "scriptSig": {"hex": "", "asm": ""}, "vout": 1, "txid": "c81dc6293388a3e36b5cfa2a06670b080e27e63728bb1a5d5c933b2b74d042a3"}], "txid": "31760eb5dcf62205900f879a2251aa93e0d29b414ec4980dd09e5ba7b038e6f3", "blocktime": 1537870268, "version": 1, "confirmations": 11518, "time": 1537870268, "locktime": 0, "vsize": 142, "size": 224}