{"hash": "317f718c26df5ddc6f79e7da8adf131ce6a62c6884309ca831c84f056138abe8", "blockhash": "0000000000000000000e13cef7c366c0283d82e591d1acd082e914b08063cdf1", "vout": [{"scriptPubKey": {"reqSigs": 1, "hex": "76a9144d57788b84f799c720de463930f47a5d1b2d2a3c88ac", "addresses": ["183wpMYNwmWFVifL15y6sM7Yk5bTSjqJc8"], "asm": "OP_DUP OP_HASH160 4d57788b84f799c720de463930f47a5d1b2d2a3c OP_EQUALVERIFY OP_CHECKSIG", "type": "pubkeyhash"}, "value": 0.00106685, "n": 0}], "hex": "010000000276389d24b1857495127a7c4cee3aa5dc035da8224c72eb49843ae90e27c98c2e000000006a473044022021b450592847eb447ffdc0b97fb457759c189d93745d4c1e3de3577c815b70d3022077331b48f673881b31aa2ac85ffbf5f344b3f0b2cf03413a3b7515130260a0a70121029845f78f807406330d3e0d176f0cb3deca8aa8638816716eab74817511e44cb7ffffffffa5c301127dc6551f3e413e0731e3f01c5be223f41b8e03edd2d7d09e50458893000000006b4830450221009c26e47e71574bee543d45c79bd56e02f643f11ee36e381ffbdbb80ba10de94b022076ffe78f7ef4473f6ae178dbe68c98932feacac9e8364f37fb03050cebf0442d012102cc630afa088beb7b61fe949781fc0cdb70cd45fb1c09a8be372965a967dc9b06ffffffff01bda00100000000001976a9144d57788b84f799c720de463930f47a5d1b2d2a3c88ac00000000", "vin": [{"sequence": 4294967295, "scriptSig": {"hex": "473044022021b450592847eb447ffdc0b97fb457759c189d93745d4c1e3de3577c815b70d3022077331b48f673881b31aa2ac85ffbf5f344b3f0b2cf03413a3b7515130260a0a70121029845f78f807406330d3e0d176f0cb3deca8aa8638816716eab74817511e44cb7", "asm": "3044022021b450592847eb447ffdc0b97fb457759c189d93745d4c1e3de3577c815b70d3022077331b48f673881b31aa2ac85ffbf5f344b3f0b2cf03413a3b7515130260a0a7[ALL] 029845f78f807406330d3e0d176f0cb3deca8aa8638816716eab74817511e44cb7"}, "vout": 0, "txid": "2e8cc9270ee93a8449eb724c22a85d03dca53aee4c7c7a12957485b1249d3876"}, {"sequence": 4294967295, "scriptSig": {"hex": "4830450221009c26e47e71574bee543d45c79bd56e02f643f11ee36e381ffbdbb80ba10de94b022076ffe78f7ef4473f6ae178dbe68c98932feacac9e8364f37fb03050cebf0442d012102cc630afa088beb7b61fe949781fc0cdb70cd45fb1c09a8be372965a967dc9b06", "asm": "30450221009c26e47e71574bee543d45c79bd56e02f643f11ee36e381ffbdbb80ba10de94b022076ffe78f7ef4473f6ae178dbe68c98932feacac9e8364f37fb03050cebf0442d[ALL] 02cc630afa088beb7b61fe949781fc0cdb70cd45fb1c09a8be372965a967dc9b06"}, "vout": 0, "txid": "938845509ed0d7d2ed038e1bf423e25b1cf0e331073e413e1f55c67d1201c3a5"}], "txid": "317f718c26df5ddc6f79e7da8adf131ce6a62c6884309ca831c84f056138abe8", "blocktime": 1537871767, "version": 1, "confirmations": 11495, "time": 1537871767, "locktime": 0, "vsize": 339, "size": 339}