{"hash": "318dc0a10b530da917af86e17762f1caea589548305b0a9364dd2f2f16be162f", "blockhash": "0000000000000000001e0dab787dd257d1dbfcb92a98c2207d5e1078be1f4165", "vout": [{"scriptPubKey": {"reqSigs": 1, "hex": "76a9146f97fca42ddf99be08e0c94c8136b5a8a90baf6088ac", "addresses": ["1BB45XYyBDAQLJd9qhF2mNcSV5hSRSEMVn"], "asm": "OP_DUP OP_HASH160 6f97fca42ddf99be08e0c94c8136b5a8a90baf60 OP_EQUALVERIFY OP_CHECKSIG", "type": "pubkeyhash"}, "value": 0.00365385, "n": 0}, {"scriptPubKey": {"reqSigs": 1, "hex": "a914aa6916d03d2144142167bcc6c347704c8b9e682e87", "addresses": ["3HE4gsgYdwqq1FLiWwwhPABgB5vU46fQDM"], "asm": "OP_HASH160 aa6916d03d2144142167bcc6c347704c8b9e682e OP_EQUAL", "type": "scripthash"}, "value": 0.0078105, "n": 1}], "hex": "01000000015b6ffaca3707e7296a5448e35024bca43c4ecdc103e7f35682c72514ed1c18f4010000006a47304402203c5218aa2995dc2de6a1083137cd5bfb21d719b1edd9f7655617872e1236a2da02202781bfc2ae0d8055087dd9ca904c221052c2142b468c8fe480687265158991e90121025c6049f4b24e76e6c08d148caa44e09c1a00aae25bfdcf64ed3bb9ddae1b8069ffffffff0249930500000000001976a9146f97fca42ddf99be08e0c94c8136b5a8a90baf6088acfaea0b000000000017a914aa6916d03d2144142167bcc6c347704c8b9e682e8700000000", "vin": [{"sequence": 4294967295, "scriptSig": {"hex": "47304402203c5218aa2995dc2de6a1083137cd5bfb21d719b1edd9f7655617872e1236a2da02202781bfc2ae0d8055087dd9ca904c221052c2142b468c8fe480687265158991e90121025c6049f4b24e76e6c08d148caa44e09c1a00aae25bfdcf64ed3bb9ddae1b8069", "asm": "304402203c5218aa2995dc2de6a1083137cd5bfb21d719b1edd9f7655617872e1236a2da02202781bfc2ae0d8055087dd9ca904c221052c2142b468c8fe480687265158991e9[ALL] 025c6049f4b24e76e6c08d148caa44e09c1a00aae25bfdcf64ed3bb9ddae1b8069"}, "vout": 1, "txid": "f4181ced1425c78256f3e703c1cd4e3ca4bc2450e348546a29e70737cafa6f5b"}], "txid": "318dc0a10b530da917af86e17762f1caea589548305b0a9364dd2f2f16be162f", "blocktime": 1537872475, "version": 1, "confirmations": 11487, "time": 1537872475, "locktime": 0, "vsize": 223, "size": 223}