{"hash": "31969ce8e53bd91046429bba9a50f653e05e291dc357f7a8d4f7f4355d03c619", "blockhash": "0000000000000000001e0dab787dd257d1dbfcb92a98c2207d5e1078be1f4165", "vout": [{"scriptPubKey": {"reqSigs": 1, "hex": "76a9148da3fde77ca805605dabd16ff5f369341682510e88ac", "addresses": ["1DuvjQ9PRitVVoU16dvNfmYTqfpczEvwoK"], "asm": "OP_DUP OP_HASH160 8da3fde77ca805605dabd16ff5f369341682510e OP_EQUALVERIFY OP_CHECKSIG", "type": "pubkeyhash"}, "value": 0.00062011, "n": 0}, {"scriptPubKey": {"reqSigs": 1, "hex": "76a914238201c9f22b3562e2091779aafdde9f4954533e88ac", "addresses": ["14EkPkxgFMuZ3eZJSzS58YBXRWRC3b9Qkw"], "asm": "OP_DUP OP_HASH160 238201c9f22b3562e2091779aafdde9f4954533e OP_EQUALVERIFY OP_CHECKSIG", "type": "pubkeyhash"}, "value": 0.18123873, "n": 1}], "hex": "0200000001ea2b87dc704e03b329f99ef3dab5363d9d06bca367dd1843fc35778d1e5f0e13010000006b483045022100f02bed6feb1540f3c18590047c1eae0b41edf641994508c9c3160aaed8c6162802200e9a7a19c41848d60bec01498defb39864e97ee7eae2d10f7fd01ac803b89c700121021f0f84f493e3573a8418aff4efbc291b991b143e68023064d68656cb6da6679dffffffff023bf20000000000001976a9148da3fde77ca805605dabd16ff5f369341682510e88ac618c1401000000001976a914238201c9f22b3562e2091779aafdde9f4954533e88ac00000000", "vin": [{"sequence": 4294967295, "scriptSig": {"hex": "483045022100f02bed6feb1540f3c18590047c1eae0b41edf641994508c9c3160aaed8c6162802200e9a7a19c41848d60bec01498defb39864e97ee7eae2d10f7fd01ac803b89c700121021f0f84f493e3573a8418aff4efbc291b991b143e68023064d68656cb6da6679d", "asm": "3045022100f02bed6feb1540f3c18590047c1eae0b41edf641994508c9c3160aaed8c6162802200e9a7a19c41848d60bec01498defb39864e97ee7eae2d10f7fd01ac803b89c70[ALL] 021f0f84f493e3573a8418aff4efbc291b991b143e68023064d68656cb6da6679d"}, "vout": 1, "txid": "130e5f1e8d7735fc4318dd67a3bc069d3d36b5daf39ef929b3034e70dc872bea"}], "txid": "31969ce8e53bd91046429bba9a50f653e05e291dc357f7a8d4f7f4355d03c619", "blocktime": 1537872475, "version": 2, "confirmations": 11486, "time": 1537872475, "locktime": 0, "vsize": 226, "size": 226}