{"hash": "3198c709065fd77ddde6cd9ac84a923b41bb67bb0f9791557cc68fe5da58c048", "blockhash": "0000000000000000000dcc0f55137456b1a82d3642486a52398922ac4d620174", "vout": [{"scriptPubKey": {"reqSigs": 1, "hex": "76a9143fb1bf1bac54f471c6d1ad35a4165229d49c193d88ac", "addresses": ["16onW8XWefjGrphXKa7hsNh1XYRJrs67RU"], "asm": "OP_DUP OP_HASH160 3fb1bf1bac54f471c6d1ad35a4165229d49c193d OP_EQUALVERIFY OP_CHECKSIG", "type": "pubkeyhash"}, "value": 0.00028575, "n": 0}, {"scriptPubKey": {"type": "nulldata", "hex": "6a4c50000077760001289af6db5aa7155404994516bcbefa6b8351586b4e86aeaeacb577c031fc4be3474d14b6f32469216d99516ca4025baa09660614909024164bf44bbf23acfcfaac8058b692fe6808c31d", "asm": "OP_RETURN 000077760001289af6db5aa7155404994516bcbefa6b8351586b4e86aeaeacb577c031fc4be3474d14b6f32469216d99516ca4025baa09660614909024164bf44bbf23acfcfaac8058b692fe6808c31d"}, "value": 0.0, "n": 1}], "hex": "0100000001c3b7e484177f10c8aa4e91d2f54c4f4d6340a6ad752517c81b577ac4da6178fe010000006a47304402204cb110c74f6ad81ca7517c5ae5759266d364796ac215d2d715dc51ec07e013e002204e1782457a863708bf8e4f49a6e302d77e45d239fdaac5b2f148d8268bcdcd2a012102c936c49c20fba9fd8f4e4bface5716a00ab4feb699422962bebe44fab759cc64ffffffff029f6f0000000000001976a9143fb1bf1bac54f471c6d1ad35a4165229d49c193d88ac0000000000000000536a4c50000077760001289af6db5aa7155404994516bcbefa6b8351586b4e86aeaeacb577c031fc4be3474d14b6f32469216d99516ca4025baa09660614909024164bf44bbf23acfcfaac8058b692fe6808c31d00000000", "vin": [{"sequence": 4294967295, "scriptSig": {"hex": "47304402204cb110c74f6ad81ca7517c5ae5759266d364796ac215d2d715dc51ec07e013e002204e1782457a863708bf8e4f49a6e302d77e45d239fdaac5b2f148d8268bcdcd2a012102c936c49c20fba9fd8f4e4bface5716a00ab4feb699422962bebe44fab759cc64", "asm": "304402204cb110c74f6ad81ca7517c5ae5759266d364796ac215d2d715dc51ec07e013e002204e1782457a863708bf8e4f49a6e302d77e45d239fdaac5b2f148d8268bcdcd2a[ALL] 02c936c49c20fba9fd8f4e4bface5716a00ab4feb699422962bebe44fab759cc64"}, "vout": 1, "txid": "fe7861dac47a571bc8172575ada640634d4f4cf5d2914eaac8107f1784e4b7c3"}], "txid": "3198c709065fd77ddde6cd9ac84a923b41bb67bb0f9791557cc68fe5da58c048", "blocktime": 1537870268, "version": 1, "confirmations": 11518, "time": 1537870268, "locktime": 0, "vsize": 283, "size": 283}