{"hash": "f64d6abf13836a978d03f4bac9f6db2c0e6c82011cdab17b4224a171915473b9", "blockhash": "00000000000000000024a2167bbff67b0be802c0b01cdd79e6331c2be6459f87", "vout": [{"scriptPubKey": {"reqSigs": 1, "hex": "a91473f9dbd7cca3c08909d8bff8f9bffe1e1ee042a187", "addresses": ["3CGEx6V2x8uhxCokJ4tYby1femFCtMQ24Y"], "asm": "OP_HASH160 73f9dbd7cca3c08909d8bff8f9bffe1e1ee042a1 OP_EQUAL", "type": "scripthash"}, "value": 0.007285, "n": 0}, {"scriptPubKey": {"reqSigs": 1, "hex": "a91467af1011fd753a350fb1dbc632c5884ba215a50687", "addresses": ["3B9FEspphEzXKqeyaJjGPdRvQ9FwLaB7i4"], "asm": "OP_HASH160 67af1011fd753a350fb1dbc632c5884ba215a506 OP_EQUAL", "type": "scripthash"}, "value": 0.173645, "n": 1}], "hex": "01000000000101e26135f1cfff89dfb4bcda7fa8a54c4a2c5281fb95d3ddf6700b66be2821680100000000232200200d14e64891ad73ad2d7017f2afa3ef378fa38a79f9ca2a8d32caca4792be870cffffffff02b41d0b000000000017a91473f9dbd7cca3c08909d8bff8f9bffe1e1ee042a18714f608010000000017a91467af1011fd753a350fb1dbc632c5884ba215a50687040047304402206657bf8d90661b57db0f7f37ff17fa5b5f5104b614a4e9e57119b9afc1e41351022032298e874e52180d0d721aa50ae4917291b21ada65fe0bd9f527e16429390944014730440220066554c5ff7691015370cbeac27dcf7c5cba7568b26a0dc2860f02a73d0c332f022057743c013d2d7eb599f845f5919a0784146cccc5b6fc6520fca3fc36ee0320280169522103f87deffd502d9ebc59e21a2ed6ad4e15c39dfb45a1928aacae2610a971f260142103282e438c8145bbf8594e6d186116a7e9617246aa538f90edbcf3c46e46bb038121032c5e402e399fc8ebae468e4e1e2ae3c78d3633e09ee70c60cf3448cb7dd46d5853ae00000000", "vin": [{"txinwitness": ["", "304402206657bf8d90661b57db0f7f37ff17fa5b5f5104b614a4e9e57119b9afc1e41351022032298e874e52180d0d721aa50ae4917291b21ada65fe0bd9f527e1642939094401", "30440220066554c5ff7691015370cbeac27dcf7c5cba7568b26a0dc2860f02a73d0c332f022057743c013d2d7eb599f845f5919a0784146cccc5b6fc6520fca3fc36ee03202801", "522103f87deffd502d9ebc59e21a2ed6ad4e15c39dfb45a1928aacae2610a971f260142103282e438c8145bbf8594e6d186116a7e9617246aa538f90edbcf3c46e46bb038121032c5e402e399fc8ebae468e4e1e2ae3c78d3633e09ee70c60cf3448cb7dd46d5853ae"], "sequence": 4294967295, "scriptSig": {"hex": "2200200d14e64891ad73ad2d7017f2afa3ef378fa38a79f9ca2a8d32caca4792be870c", "asm": "00200d14e64891ad73ad2d7017f2afa3ef378fa38a79f9ca2a8d32caca4792be870c"}, "vout": 0, "txid": "01682128be660b70f6ddd395fb81522c4a4ca5a87fdabcb4df89ffcff13561e2"}], "txid": "31989d4d3894bac4a389f2f32f355d234e0a3d868aae7b9a4940f361dc289186", "blocktime": 1537870564, "version": 1, "confirmations": 11515, "time": 1537870564, "locktime": 0, "vsize": 214, "size": 404}