{"hash": "fe2eaf3854acff2cc38eed74b2c5319047589a79f4d104eca4052abf7fcdd2cf", "blockhash": "0000000000000000001cda96e906b7601b7a6fb1a3b62bca570a9e5d8f4b3de1", "vout": [{"scriptPubKey": {"reqSigs": 1, "hex": "76a914f0d4e99da5de20901bde3fada6ddb9cbb90b40fc88ac", "addresses": ["1NxQETt1PeKXLi3eb9r9JDDSA35sWYJCP2"], "asm": "OP_DUP OP_HASH160 f0d4e99da5de20901bde3fada6ddb9cbb90b40fc OP_EQUALVERIFY OP_CHECKSIG", "type": "pubkeyhash"}, "value": 0.001, "n": 0}, {"scriptPubKey": {"reqSigs": 1, "hex": "a9141d50e7b8070c1b21bd1d024b3f17c5ae06f521e387", "addresses": ["34N2SVgYpUtx7Qkw5i6R61m11BaSjDN2UN"], "asm": "OP_HASH160 1d50e7b8070c1b21bd1d024b3f17c5ae06f521e3 OP_EQUAL", "type": "scripthash"}, "value": 0.05349358, "n": 1}], "hex": "01000000000101b8f2da03947ad2d01edbff68bafc9658f44d09ce11496341fd6e8c97baf8f87d0100000023220020a3572d097c813290249ae9026068d04f7a7639b712bc716493a978d428d08e3dffffffff02a0860100000000001976a914f0d4e99da5de20901bde3fada6ddb9cbb90b40fc88acee9f51000000000017a9141d50e7b8070c1b21bd1d024b3f17c5ae06f521e3870400483045022100c19c9c1af525a21428a9f78e38fe0ecfde5aba5ae9499cab7e5c97d51d50ad93022003ceb5d2d9ca589dc2f6958c07b4b59041f23d3953063b509e5f0efd130bd38e014830450221009635d322e7942a9a7f6578bffa4b68168d308d79b54ee08ce55f6685bba74b580220180788f99838f2ecce580a67ead97e594f969c6c02f3bd083f85d64c49cdbbc001475221023bb3a670874dd5c996ea43168812ff760d419f9024d6e53a0a751ae3de0f14d62102de5d1209368adc7d91ff5c942b348cc833c770d19aea04f6b5857756c1dbaff852ae00000000", "vin": [{"txinwitness": ["", "3045022100c19c9c1af525a21428a9f78e38fe0ecfde5aba5ae9499cab7e5c97d51d50ad93022003ceb5d2d9ca589dc2f6958c07b4b59041f23d3953063b509e5f0efd130bd38e01", "30450221009635d322e7942a9a7f6578bffa4b68168d308d79b54ee08ce55f6685bba74b580220180788f99838f2ecce580a67ead97e594f969c6c02f3bd083f85d64c49cdbbc001", "5221023bb3a670874dd5c996ea43168812ff760d419f9024d6e53a0a751ae3de0f14d62102de5d1209368adc7d91ff5c942b348cc833c770d19aea04f6b5857756c1dbaff852ae"], "sequence": 4294967295, "scriptSig": {"hex": "220020a3572d097c813290249ae9026068d04f7a7639b712bc716493a978d428d08e3d", "asm": "0020a3572d097c813290249ae9026068d04f7a7639b712bc716493a978d428d08e3d"}, "vout": 1, "txid": "7df8f8ba978c6efd41634911ce094df45896fcba68ffdb1ed0d27a9403daf2b8"}], "txid": "319cc1afce035b09093c3aa3e42306d87ddd5cea2458b6fc305130da053fdd94", "blocktime": 1537873282, "version": 1, "confirmations": 11485, "time": 1537873282, "locktime": 0, "vsize": 208, "size": 374}