{"hash": "319d42bac8fe7695aceb1c3e427cfbeaa8c532e00f263ca117c90c98f19cc887", "blockhash": "00000000000000000017f5eb5941039fbcee6240d03bc1f2f8e35350df66a1d8", "vout": [{"scriptPubKey": {"reqSigs": 1, "hex": "76a91433e88f48cd1be1a298905e423c26dae89ef7cd3788ac", "addresses": ["15jU4KGLskrEcXFqoZhufJEqaFyBNbjkA1"], "asm": "OP_DUP OP_HASH160 33e88f48cd1be1a298905e423c26dae89ef7cd37 OP_EQUALVERIFY OP_CHECKSIG", "type": "pubkeyhash"}, "value": 0.0001, "n": 0}], "hex": "0100000001311fc0faf32a71308ae5fe5aeba30f1897d4b9e9451297c9d4ebfe2cd3d8e79a1e0000006a473044022040094eff19f0e8acd3b3d3bf5cd2ab9a8c32245cd4cd7c2ba6486e85e8b77244022038479fcca925dcc7287c4454203c47c9d16f83895c9871b7f3c73d4a9711551c0121031ef30f091f34edca950ab7295e2c71e100e09c7c1c497bccc5b5ebb5b37a9373ffffffff0110270000000000001976a91433e88f48cd1be1a298905e423c26dae89ef7cd3788ac00000000", "vin": [{"sequence": 4294967295, "scriptSig": {"hex": "473044022040094eff19f0e8acd3b3d3bf5cd2ab9a8c32245cd4cd7c2ba6486e85e8b77244022038479fcca925dcc7287c4454203c47c9d16f83895c9871b7f3c73d4a9711551c0121031ef30f091f34edca950ab7295e2c71e100e09c7c1c497bccc5b5ebb5b37a9373", "asm": "3044022040094eff19f0e8acd3b3d3bf5cd2ab9a8c32245cd4cd7c2ba6486e85e8b77244022038479fcca925dcc7287c4454203c47c9d16f83895c9871b7f3c73d4a9711551c[ALL] 031ef30f091f34edca950ab7295e2c71e100e09c7c1c497bccc5b5ebb5b37a9373"}, "vout": 30, "txid": "9ae7d8d32cfeebd4c9971245e9b9d497180fa3eb5afee58a30712af3fac01f31"}], "txid": "319d42bac8fe7695aceb1c3e427cfbeaa8c532e00f263ca117c90c98f19cc887", "blocktime": 1537874412, "version": 1, "confirmations": 11468, "time": 1537874412, "locktime": 0, "vsize": 191, "size": 191}