{"hash": "319e0227d2fc6bb627ec036c3f912d17332f16b5aa965579c199db32666f16ec", "blockhash": "0000000000000000001f76057863aec43deb6fa401d9628bb513d65a8098bfab", "vout": [{"scriptPubKey": {"reqSigs": 1, "hex": "76a91419db5133df4ea435361a243bd894c05a1a01f4ad88ac", "addresses": ["13MidDsATiMmhyWTFQJMzDfuaLfUW1cMrU"], "asm": "OP_DUP OP_HASH160 19db5133df4ea435361a243bd894c05a1a01f4ad OP_EQUALVERIFY OP_CHECKSIG", "type": "pubkeyhash"}, "value": 0.0065224, "n": 0}, {"scriptPubKey": {"reqSigs": 1, "hex": "76a9142e12ca504b975e44e42e08f55ed9e4612f85c9d388ac", "addresses": ["15CcbPz5VyqmwrCk7iYe8xxNVSB96n1EoJ"], "asm": "OP_DUP OP_HASH160 2e12ca504b975e44e42e08f55ed9e4612f85c9d3 OP_EQUALVERIFY OP_CHECKSIG", "type": "pubkeyhash"}, "value": 0.0352461, "n": 1}], "hex": "0100000001ac414f0d4992748bcbe39dc78952b5eb6e8a56d70c47afe9b6e72844c05bef30020000006a4730440220567ec07e889f38b06839c98183dfaba089436a61a2c92250fa2af2d07a8a5aca0220291df16ff369bac92fdb12fa0b6cd99a0dcdc5ab074223b758ba788b1a0fc162012103b1078ea21990d284d7f1a05cb5ee274632a53345048b0212eadef1524488a405ffffffff02d0f30900000000001976a91419db5133df4ea435361a243bd894c05a1a01f4ad88ac02c83500000000001976a9142e12ca504b975e44e42e08f55ed9e4612f85c9d388ac00000000", "vin": [{"sequence": 4294967295, "scriptSig": {"hex": "4730440220567ec07e889f38b06839c98183dfaba089436a61a2c92250fa2af2d07a8a5aca0220291df16ff369bac92fdb12fa0b6cd99a0dcdc5ab074223b758ba788b1a0fc162012103b1078ea21990d284d7f1a05cb5ee274632a53345048b0212eadef1524488a405", "asm": "30440220567ec07e889f38b06839c98183dfaba089436a61a2c92250fa2af2d07a8a5aca0220291df16ff369bac92fdb12fa0b6cd99a0dcdc5ab074223b758ba788b1a0fc162[ALL] 03b1078ea21990d284d7f1a05cb5ee274632a53345048b0212eadef1524488a405"}, "vout": 2, "txid": "30ef5bc04428e7b6e9af470cd7568a6eebb55289c79de3cb8b7492490d4f41ac"}], "txid": "319e0227d2fc6bb627ec036c3f912d17332f16b5aa965579c199db32666f16ec", "blocktime": 1537873891, "version": 1, "confirmations": 11474, "time": 1537873891, "locktime": 0, "vsize": 225, "size": 225}