{"hash": "319e6625bbc246134897f756fcda290207032edd4d80ca8ff64ef225df441371", "blockhash": "0000000000000000001cda96e906b7601b7a6fb1a3b62bca570a9e5d8f4b3de1", "vout": [{"scriptPubKey": {"reqSigs": 1, "hex": "76a914d243e6abb9a60fbff430b421d2df4b7d59ec186088ac", "addresses": ["1LAnF8h3qMGx3TSwNUHVneBZUEpwE4gu3D"], "asm": "OP_DUP OP_HASH160 d243e6abb9a60fbff430b421d2df4b7d59ec1860 OP_EQUALVERIFY OP_CHECKSIG", "type": "pubkeyhash"}, "value": 0.00083128, "n": 0}, {"scriptPubKey": {"reqSigs": 1, "hex": "76a9143851f34d13937b673a7d24a1950bb5b21ce94af388ac", "addresses": ["168o1kqNquEJeR9vosUB5fw4eAwcVAgh8P"], "asm": "OP_DUP OP_HASH160 3851f34d13937b673a7d24a1950bb5b21ce94af3 OP_EQUALVERIFY OP_CHECKSIG", "type": "pubkeyhash"}, "value": 5.46e-06, "n": 1}, {"scriptPubKey": {"type": "nulldata", "hex": "6a146f6d6e69000000000000001f000000b5e92c660b", "asm": "OP_RETURN 6f6d6e69000000000000001f000000b5e92c660b"}, "value": 0.0, "n": 2}], "hex": "0100000002fa854cc594356924ed128a65fb4cb8c70a449a4fefff376b20d200e82045c91a020000006b483045022100b010ad6aa0049d900935724e5d13309eefb20b72eac36c9672dd21c93753666402207d4ff773e5efe8d86ba2bd94de7f0e04cbcc4ac3e8a897c2dd525e124fd749ca01210323704086de27a791b2e919878b0a2d78b6e138f4fc8729d8ef6e3c2da1b1097effffffff9f26a1566f7b87a06c2d960c98868cfd2d25739f097a1dc7cf707d39034b6191000000006b483045022100ea8433c54a8608836aa8e036ed5de59fe3209ad9e93611d2bf73368cd31df4b902207cf6871b5d9de384c816ed53bed50a6f74f520e652b05941f93ce5b51652018001210271977291b74f1f5f5c42157e8aae804664eaaeccfd097918450d37f28fb94d77ffffffff03b8440100000000001976a914d243e6abb9a60fbff430b421d2df4b7d59ec186088ac22020000000000001976a9143851f34d13937b673a7d24a1950bb5b21ce94af388ac0000000000000000166a146f6d6e69000000000000001f000000b5e92c660b00000000", "vin": [{"sequence": 4294967295, "scriptSig": {"hex": "483045022100b010ad6aa0049d900935724e5d13309eefb20b72eac36c9672dd21c93753666402207d4ff773e5efe8d86ba2bd94de7f0e04cbcc4ac3e8a897c2dd525e124fd749ca01210323704086de27a791b2e919878b0a2d78b6e138f4fc8729d8ef6e3c2da1b1097e", "asm": "3045022100b010ad6aa0049d900935724e5d13309eefb20b72eac36c9672dd21c93753666402207d4ff773e5efe8d86ba2bd94de7f0e04cbcc4ac3e8a897c2dd525e124fd749ca[ALL] 0323704086de27a791b2e919878b0a2d78b6e138f4fc8729d8ef6e3c2da1b1097e"}, "vout": 2, "txid": "1ac94520e800d2206b37ffef4f9a440ac7b84cfb658a12ed24693594c54c85fa"}, {"sequence": 4294967295, "scriptSig": {"hex": "483045022100ea8433c54a8608836aa8e036ed5de59fe3209ad9e93611d2bf73368cd31df4b902207cf6871b5d9de384c816ed53bed50a6f74f520e652b05941f93ce5b51652018001210271977291b74f1f5f5c42157e8aae804664eaaeccfd097918450d37f28fb94d77", "asm": "3045022100ea8433c54a8608836aa8e036ed5de59fe3209ad9e93611d2bf73368cd31df4b902207cf6871b5d9de384c816ed53bed50a6f74f520e652b05941f93ce5b516520180[ALL] 0271977291b74f1f5f5c42157e8aae804664eaaeccfd097918450d37f28fb94d77"}, "vout": 0, "txid": "91614b03397d70cfc71d7a099f73252dfd8c86980c962d6ca0877b6f56a1269f"}], "txid": "319e6625bbc246134897f756fcda290207032edd4d80ca8ff64ef225df441371", "blocktime": 1537873282, "version": 1, "confirmations": 11483, "time": 1537873282, "locktime": 0, "vsize": 405, "size": 405}