{"hash": "31a05e716a1c7006d9ba80a24111292d7123fbcf2be150159c51368b5b50491c", "blockhash": "00000000000000000017f5eb5941039fbcee6240d03bc1f2f8e35350df66a1d8", "vout": [{"scriptPubKey": {"reqSigs": 1, "hex": "76a914bb8ca877545cff24a99cb6c0e84e466383a6428488ac", "addresses": ["1J6fry3uxZzym7v8WkztA93ya8omL38bAz"], "asm": "OP_DUP OP_HASH160 bb8ca877545cff24a99cb6c0e84e466383a64284 OP_EQUALVERIFY OP_CHECKSIG", "type": "pubkeyhash"}, "value": 0.00013922, "n": 0}, {"scriptPubKey": {"reqSigs": 1, "hex": "a914813b9a1c55f0f08b60bb86278fe560991c9b4f4687", "addresses": ["3DULVWUodwXXAbjJh7pzCCxa1snbHd1TRY"], "asm": "OP_HASH160 813b9a1c55f0f08b60bb86278fe560991c9b4f46 OP_EQUAL", "type": "scripthash"}, "value": 0.00469, "n": 1}], "hex": "0100000001ed203b223bd4f8cca67a7961b151664fa60d8797a0e47f571456bfc13e21bd65000000006a473044022061086a94ff478b6209a46f8fc99e5259fc434737b28b0402ce7af0097e2b35a302205100b047e52dd112426754b6faba77902fe363c8e21d0cdebf3d94d81e4abd10012102849a28620be103b9fe914c5f290178eb06d442a7aa2f9788dc5efca52cfa8f65ffffffff0262360000000000001976a914bb8ca877545cff24a99cb6c0e84e466383a6428488ac082807000000000017a914813b9a1c55f0f08b60bb86278fe560991c9b4f468700000000", "vin": [{"sequence": 4294967295, "scriptSig": {"hex": "473044022061086a94ff478b6209a46f8fc99e5259fc434737b28b0402ce7af0097e2b35a302205100b047e52dd112426754b6faba77902fe363c8e21d0cdebf3d94d81e4abd10012102849a28620be103b9fe914c5f290178eb06d442a7aa2f9788dc5efca52cfa8f65", "asm": "3044022061086a94ff478b6209a46f8fc99e5259fc434737b28b0402ce7af0097e2b35a302205100b047e52dd112426754b6faba77902fe363c8e21d0cdebf3d94d81e4abd10[ALL] 02849a28620be103b9fe914c5f290178eb06d442a7aa2f9788dc5efca52cfa8f65"}, "vout": 0, "txid": "65bd213ec1bf5614577fe4a097870da64f6651b161797aa6ccf8d43b223b20ed"}], "txid": "31a05e716a1c7006d9ba80a24111292d7123fbcf2be150159c51368b5b50491c", "blocktime": 1537874412, "version": 1, "confirmations": 11467, "time": 1537874412, "locktime": 0, "vsize": 223, "size": 223}