{"hash": "31a3270822ec68820de0acfe0f247c6f19331ef1e8335cdbf0770f5c3f27a068", "blockhash": "0000000000000000001f76057863aec43deb6fa401d9628bb513d65a8098bfab", "vout": [{"scriptPubKey": {"reqSigs": 1, "hex": "76a914bc7baff78abdd15b6e7bff18dcc1c9ca2f68686788ac", "addresses": ["1JBcD1mnhagphPNwYLWDvSRmaBjvmqk7aX"], "asm": "OP_DUP OP_HASH160 bc7baff78abdd15b6e7bff18dcc1c9ca2f686867 OP_EQUALVERIFY OP_CHECKSIG", "type": "pubkeyhash"}, "value": 0.01390624, "n": 0}, {"scriptPubKey": {"type": "nulldata", "hex": "6a4c50000077e10001641c419f27e126dedfaea5697af8e8e963c7cfd5b95b23cc0f42c2fc38c5c2c16449240a893a75963896c982b8645baa16a606127c767211c769bc9a9526289ac0f6612cd74e33776ee4", "asm": "OP_RETURN 000077e10001641c419f27e126dedfaea5697af8e8e963c7cfd5b95b23cc0f42c2fc38c5c2c16449240a893a75963896c982b8645baa16a606127c767211c769bc9a9526289ac0f6612cd74e33776ee4"}, "value": 0.0, "n": 1}], "hex": "01000000012cb359e1b8a1bf20c1fa5fe4341917e38aa0a82ee2fe343b24ac6ef802277f43000000006a4730440220492fccb5b68cf2a76dd9a4f71eda774b2b69d21579919cd881d5fd9f8cf25cd402201e67fd03a45e6063d45146fc5bdecaf7edd6483749b298000818a4e357b3c2fc012103b48a077b3f70eaf470d1bb3963d01c6eb8bbdbb2cf999e4355747dd11a647327ffffffff0220381500000000001976a914bc7baff78abdd15b6e7bff18dcc1c9ca2f68686788ac0000000000000000536a4c50000077e10001641c419f27e126dedfaea5697af8e8e963c7cfd5b95b23cc0f42c2fc38c5c2c16449240a893a75963896c982b8645baa16a606127c767211c769bc9a9526289ac0f6612cd74e33776ee400000000", "vin": [{"sequence": 4294967295, "scriptSig": {"hex": "4730440220492fccb5b68cf2a76dd9a4f71eda774b2b69d21579919cd881d5fd9f8cf25cd402201e67fd03a45e6063d45146fc5bdecaf7edd6483749b298000818a4e357b3c2fc012103b48a077b3f70eaf470d1bb3963d01c6eb8bbdbb2cf999e4355747dd11a647327", "asm": "30440220492fccb5b68cf2a76dd9a4f71eda774b2b69d21579919cd881d5fd9f8cf25cd402201e67fd03a45e6063d45146fc5bdecaf7edd6483749b298000818a4e357b3c2fc[ALL] 03b48a077b3f70eaf470d1bb3963d01c6eb8bbdbb2cf999e4355747dd11a647327"}, "vout": 0, "txid": "437f2702f86eac243b34fee22ea8a08ae3171934e45ffac120bfa1b8e159b32c"}], "txid": "31a3270822ec68820de0acfe0f247c6f19331ef1e8335cdbf0770f5c3f27a068", "blocktime": 1537873891, "version": 1, "confirmations": 11478, "time": 1537873891, "locktime": 0, "vsize": 283, "size": 283}