{"hash": "31a8c4f416ea547423f81724750c2788122a2d73f8ca1cb7d009c22bb2f10202", "blockhash": "0000000000000000000dcc0f55137456b1a82d3642486a52398922ac4d620174", "vout": [{"scriptPubKey": {"reqSigs": 1, "hex": "76a91409e8f3ef2157f0938727bc6c3769a5beaf24429a88ac", "addresses": ["1uQ9aNtFr8F5Nwmf3EnTuAXBV9yx7obRp"], "asm": "OP_DUP OP_HASH160 09e8f3ef2157f0938727bc6c3769a5beaf24429a OP_EQUALVERIFY OP_CHECKSIG", "type": "pubkeyhash"}, "value": 0.0395, "n": 0}, {"scriptPubKey": {"reqSigs": 1, "hex": "76a914d6cb708f57f3492f9876eaaac507f0f7d332341a88ac", "addresses": ["1LajKHm9smPYgjeh3KkgStqWrouru5JDt8"], "asm": "OP_DUP OP_HASH160 d6cb708f57f3492f9876eaaac507f0f7d332341a OP_EQUALVERIFY OP_CHECKSIG", "type": "pubkeyhash"}, "value": 0.6966274, "n": 1}], "hex": "01000000012827f30008ef6097ce0c414bb7aa5f248bc14b4c0ad6789edabd1cfc380da9f3000000006b483045022100f267ca9ef818a8fa9a5d9ad3537ac8ae2cc742d841f9dd63e014e37bf161c6d70220168cd4c6d03947c137a8eff62ceb0b22c24f08e40829c75fb8bef3e747df0a63012102c0222efa281800550490472532b194580beac3532a30769b90250875c958bb83ffffffff02b0453c00000000001976a91409e8f3ef2157f0938727bc6c3769a5beaf24429a88ac14f82604000000001976a914d6cb708f57f3492f9876eaaac507f0f7d332341a88ac00000000", "vin": [{"sequence": 4294967295, "scriptSig": {"hex": "483045022100f267ca9ef818a8fa9a5d9ad3537ac8ae2cc742d841f9dd63e014e37bf161c6d70220168cd4c6d03947c137a8eff62ceb0b22c24f08e40829c75fb8bef3e747df0a63012102c0222efa281800550490472532b194580beac3532a30769b90250875c958bb83", "asm": "3045022100f267ca9ef818a8fa9a5d9ad3537ac8ae2cc742d841f9dd63e014e37bf161c6d70220168cd4c6d03947c137a8eff62ceb0b22c24f08e40829c75fb8bef3e747df0a63[ALL] 02c0222efa281800550490472532b194580beac3532a30769b90250875c958bb83"}, "vout": 0, "txid": "f3a90d38fc1cbdda9e78d60a4c4bc18b245faab74b410cce9760ef0800f32728"}], "txid": "31a8c4f416ea547423f81724750c2788122a2d73f8ca1cb7d009c22bb2f10202", "blocktime": 1537870268, "version": 1, "confirmations": 11517, "time": 1537870268, "locktime": 0, "vsize": 226, "size": 226}