{"hash": "31a947324bd6366e1c7174b40fa3533d439b7902dc059b5c9f25c1300c728b1b", "blockhash": "00000000000000000017f5eb5941039fbcee6240d03bc1f2f8e35350df66a1d8", "vout": [{"scriptPubKey": {"reqSigs": 1, "hex": "76a91458f32143a95cd11ee5f37e5d1dff6f9fbafa660b88ac", "addresses": ["197Kir2psnjrTFwx8R9cUnmVCUFeUgCNxS"], "asm": "OP_DUP OP_HASH160 58f32143a95cd11ee5f37e5d1dff6f9fbafa660b OP_EQUALVERIFY OP_CHECKSIG", "type": "pubkeyhash"}, "value": 0.91691665, "n": 0}, {"scriptPubKey": {"type": "nulldata", "hex": "6a146f6d6e69000000000000001f00000012a57f6180", "asm": "OP_RETURN 6f6d6e69000000000000001f00000012a57f6180"}, "value": 0.0, "n": 1}, {"scriptPubKey": {"reqSigs": 1, "hex": "76a914527d48e0da1e49260d0046c820a05166e086517a88ac", "addresses": ["18XAVfR6gUdkS2TgswuyGWMty6mkr8TVW4"], "asm": "OP_DUP OP_HASH160 527d48e0da1e49260d0046c820a05166e086517a OP_EQUALVERIFY OP_CHECKSIG", "type": "pubkeyhash"}, "value": 5.46e-06, "n": 2}], "hex": "010000000183fe45d61607a69cb577f4a3d82aabc3fe2c78643a8ccadebf41d954112086fb000000006a4730440220425285ff2a394b746a12b60d8ddc0c55f451d076f0fd8662d6d28e3b705fc2630220712d3e0037914af3edfbd7094b8ccf9d3dbdeddf4dc6da54852ed8cd0187a04801210251e12972b557d5dbac73bfd2470adeac64ac46202389f0ef2db7231f645a0aeafeffffff03911a7705000000001976a91458f32143a95cd11ee5f37e5d1dff6f9fbafa660b88ac0000000000000000166a146f6d6e69000000000000001f00000012a57f618022020000000000001976a914527d48e0da1e49260d0046c820a05166e086517a88ac15490800", "vin": [{"sequence": 4294967294, "scriptSig": {"hex": "4730440220425285ff2a394b746a12b60d8ddc0c55f451d076f0fd8662d6d28e3b705fc2630220712d3e0037914af3edfbd7094b8ccf9d3dbdeddf4dc6da54852ed8cd0187a04801210251e12972b557d5dbac73bfd2470adeac64ac46202389f0ef2db7231f645a0aea", "asm": "30440220425285ff2a394b746a12b60d8ddc0c55f451d076f0fd8662d6d28e3b705fc2630220712d3e0037914af3edfbd7094b8ccf9d3dbdeddf4dc6da54852ed8cd0187a048[ALL] 0251e12972b557d5dbac73bfd2470adeac64ac46202389f0ef2db7231f645a0aea"}, "vout": 0, "txid": "fb86201154d941bfdeca8c3a64782cfec3ab2ad8a3f477b59ca60716d645fe83"}], "txid": "31a947324bd6366e1c7174b40fa3533d439b7902dc059b5c9f25c1300c728b1b", "blocktime": 1537874412, "version": 1, "confirmations": 11467, "time": 1537874412, "locktime": 542997, "vsize": 256, "size": 256}