{"hash": "31aa28b356062f6f2d1f525c283acb38e679af31e5b80ada8c258cc260da9933", "blockhash": "0000000000000000000e13cef7c366c0283d82e591d1acd082e914b08063cdf1", "vout": [{"scriptPubKey": {"reqSigs": 1, "hex": "a9143b15c147cba8321a837d0e6723c83b517bc703a987", "addresses": ["375RrReYbrncDMakx9tkSmbAtnWBZrxUFS"], "asm": "OP_HASH160 3b15c147cba8321a837d0e6723c83b517bc703a9 OP_EQUAL", "type": "scripthash"}, "value": 0.0124299, "n": 0}, {"scriptPubKey": {"reqSigs": 1, "hex": "76a9148d40f1f2e94c0bc45be0dd823b99f670c0251c5c88ac", "addresses": ["1Dst5WnsBdYxEXBW5p8i7FQHiQMZoMNzjJ"], "asm": "OP_DUP OP_HASH160 8d40f1f2e94c0bc45be0dd823b99f670c0251c5c OP_EQUALVERIFY OP_CHECKSIG", "type": "pubkeyhash"}, "value": 0.00320875, "n": 1}], "hex": "01000000019eb8f26a790ce170df584deab85e54383a569351a2dbcf701879142f00ba311f00000000fdfe0000483045022100be9acd6d2461b56e485431025fe9a71befa6c4eed44ca295e45d7c9ba254a4de02202bfef3113ad697aac32c4100ba30b6fcb6628007dd33d88d847e874bdcfbbeb1014830450221008efe0757948835aa898067fb8f970602839cc8b712661a98de4ccdd834cc54e202202bc8b39dcc15ee327cd30f4ced845676ab3362a542e991aed2fc57fd4156ce11014c695221020b203f3091d8688e3b6d555ec583c67784c4099ab601aa18d44c4a02a23f72e82102987023e5f6f3bcd93f5e1cd85d7a939d28446a8aa79354702d512bee7b6418c7210384b51271608a355489be03ab0732008b7c3c82f094b658083a6ac16128499e9853aeffffffff026ef712000000000017a9143b15c147cba8321a837d0e6723c83b517bc703a9876be50400000000001976a9148d40f1f2e94c0bc45be0dd823b99f670c0251c5c88ac00000000", "vin": [{"sequence": 4294967295, "scriptSig": {"hex": "00483045022100be9acd6d2461b56e485431025fe9a71befa6c4eed44ca295e45d7c9ba254a4de02202bfef3113ad697aac32c4100ba30b6fcb6628007dd33d88d847e874bdcfbbeb1014830450221008efe0757948835aa898067fb8f970602839cc8b712661a98de4ccdd834cc54e202202bc8b39dcc15ee327cd30f4ced845676ab3362a542e991aed2fc57fd4156ce11014c695221020b203f3091d8688e3b6d555ec583c67784c4099ab601aa18d44c4a02a23f72e82102987023e5f6f3bcd93f5e1cd85d7a939d28446a8aa79354702d512bee7b6418c7210384b51271608a355489be03ab0732008b7c3c82f094b658083a6ac16128499e9853ae", "asm": "0 3045022100be9acd6d2461b56e485431025fe9a71befa6c4eed44ca295e45d7c9ba254a4de02202bfef3113ad697aac32c4100ba30b6fcb6628007dd33d88d847e874bdcfbbeb1[ALL] 30450221008efe0757948835aa898067fb8f970602839cc8b712661a98de4ccdd834cc54e202202bc8b39dcc15ee327cd30f4ced845676ab3362a542e991aed2fc57fd4156ce11[ALL] 5221020b203f3091d8688e3b6d555ec583c67784c4099ab601aa18d44c4a02a23f72e82102987023e5f6f3bcd93f5e1cd85d7a939d28446a8aa79354702d512bee7b6418c7210384b51271608a355489be03ab0732008b7c3c82f094b658083a6ac16128499e9853ae"}, "vout": 0, "txid": "1f31ba002f14791870cfdba25193563a38545eb8ea4d58df70e10c796af2b89e"}], "txid": "31aa28b356062f6f2d1f525c283acb38e679af31e5b80ada8c258cc260da9933", "blocktime": 1537871767, "version": 1, "confirmations": 11493, "time": 1537871767, "locktime": 0, "vsize": 373, "size": 373}