{"hash": "31ab12f4bd855d1447ba8e0e0e33575b11dcd6af74c76c45eb68164ad9740533", "blockhash": "00000000000000000024a2167bbff67b0be802c0b01cdd79e6331c2be6459f87", "vout": [{"scriptPubKey": {"reqSigs": 1, "hex": "76a914d243e6abb9a60fbff430b421d2df4b7d59ec186088ac", "addresses": ["1LAnF8h3qMGx3TSwNUHVneBZUEpwE4gu3D"], "asm": "OP_DUP OP_HASH160 d243e6abb9a60fbff430b421d2df4b7d59ec1860 OP_EQUALVERIFY OP_CHECKSIG", "type": "pubkeyhash"}, "value": 0.00076972, "n": 0}, {"scriptPubKey": {"reqSigs": 1, "hex": "76a9143851f34d13937b673a7d24a1950bb5b21ce94af388ac", "addresses": ["168o1kqNquEJeR9vosUB5fw4eAwcVAgh8P"], "asm": "OP_DUP OP_HASH160 3851f34d13937b673a7d24a1950bb5b21ce94af3 OP_EQUALVERIFY OP_CHECKSIG", "type": "pubkeyhash"}, "value": 5.46e-06, "n": 1}, {"scriptPubKey": {"type": "nulldata", "hex": "6a146f6d6e69000000000000001f0000192b78bde900", "asm": "OP_RETURN 6f6d6e69000000000000001f0000192b78bde900"}, "value": 0.0, "n": 2}], "hex": "010000000208ea504c0bfe5d9e4840e21090bcfa5d49c0ed0aed80b57dab7da24eab60e63d000000006a47304402207507ddc784f4ef8e447f57a99b7746a64d243dd65856e6823b14e7e52d46bdc4022071afa54d4a43819f3e1df69e463fe633fd0ea9d792c3486a80620c4f0b544e3a0121036c76e94cedb795896a3f3ebed57bb8ba709cb2445e57be455691cce2f1e62c33ffffffff2bfa1ef9a7b0fcb1f5fda751eed205b91cde08409f54a49db36e6f1ef3ee763e000000006b483045022100acf0fbe746c5f012255b89cb114ab39f1e7e50a49e8167fa1c24178b8f832dcc022045b6d01a9a193c13520243915c21a422c6bb7ef9f8617209f7fbfdfd37164a0801210271977291b74f1f5f5c42157e8aae804664eaaeccfd097918450d37f28fb94d77ffffffff03ac2c0100000000001976a914d243e6abb9a60fbff430b421d2df4b7d59ec186088ac22020000000000001976a9143851f34d13937b673a7d24a1950bb5b21ce94af388ac0000000000000000166a146f6d6e69000000000000001f0000192b78bde90000000000", "vin": [{"sequence": 4294967295, "scriptSig": {"hex": "47304402207507ddc784f4ef8e447f57a99b7746a64d243dd65856e6823b14e7e52d46bdc4022071afa54d4a43819f3e1df69e463fe633fd0ea9d792c3486a80620c4f0b544e3a0121036c76e94cedb795896a3f3ebed57bb8ba709cb2445e57be455691cce2f1e62c33", "asm": "304402207507ddc784f4ef8e447f57a99b7746a64d243dd65856e6823b14e7e52d46bdc4022071afa54d4a43819f3e1df69e463fe633fd0ea9d792c3486a80620c4f0b544e3a[ALL] 036c76e94cedb795896a3f3ebed57bb8ba709cb2445e57be455691cce2f1e62c33"}, "vout": 0, "txid": "3de660ab4ea27dab7db580ed0aedc0495dfabc9010e240489e5dfe0b4c50ea08"}, {"sequence": 4294967295, "scriptSig": {"hex": "483045022100acf0fbe746c5f012255b89cb114ab39f1e7e50a49e8167fa1c24178b8f832dcc022045b6d01a9a193c13520243915c21a422c6bb7ef9f8617209f7fbfdfd37164a0801210271977291b74f1f5f5c42157e8aae804664eaaeccfd097918450d37f28fb94d77", "asm": "3045022100acf0fbe746c5f012255b89cb114ab39f1e7e50a49e8167fa1c24178b8f832dcc022045b6d01a9a193c13520243915c21a422c6bb7ef9f8617209f7fbfdfd37164a08[ALL] 0271977291b74f1f5f5c42157e8aae804664eaaeccfd097918450d37f28fb94d77"}, "vout": 0, "txid": "3e76eef31e6f6eb39da4549f4008de1cb905d2ee51a7fdf5b1fcb0a7f91efa2b"}], "txid": "31ab12f4bd855d1447ba8e0e0e33575b11dcd6af74c76c45eb68164ad9740533", "blocktime": 1537870564, "version": 1, "confirmations": 11515, "time": 1537870564, "locktime": 0, "vsize": 404, "size": 404}