{"hash": "98e63754353b2962dd8bb0808b31c36a8f0ad8f9d1f22fac16d73f73f14cb037", "blockhash": "0000000000000000001f0ddff1eddb255c1121bcd4da4f1bc9a0da00cae72433", "vout": [{"scriptPubKey": {"reqSigs": 1, "hex": "a9149494499f3f6e810d93c3a0378b8a05cca0e392e387", "addresses": ["3FEda8tMHrpwGsbVZcDfef8V77N6pKABE6"], "asm": "OP_HASH160 9494499f3f6e810d93c3a0378b8a05cca0e392e3 OP_EQUAL", "type": "scripthash"}, "value": 0.01032952, "n": 0}, {"scriptPubKey": {"reqSigs": 1, "hex": "a9149e37e1653a450b20a941dc43ed26510ca00ac7e187", "addresses": ["3G7bdVebwmdjoqHMxRpCJjj1uXmQso4E2F"], "asm": "OP_HASH160 9e37e1653a450b20a941dc43ed26510ca00ac7e1 OP_EQUAL", "type": "scripthash"}, "value": 0.026811, "n": 1}], "hex": "0200000000010221af8dd779525d2af9cedc07c22de2e8c1b12e027a4c09b1f5ee29ae1a1deb4900000000171600148bf1a8b1ff44b6b653c86d0f41a55ec220977fc5fdffffff7e6b183633c8c6a82774f88a44dd9dfcdb763187499e65c2d8b2ad1b54c3f2880100000017160014aa40ff61e5460c2cd3b6b90bbb0f4c54ec1b5454fdffffff02f8c20f000000000017a9149494499f3f6e810d93c3a0378b8a05cca0e392e3870ce928000000000017a9149e37e1653a450b20a941dc43ed26510ca00ac7e1870247304402204546079e4c71bd4853607c43dabdbe4416dd725af5273f3d13d7eec6b7fc27da02201a59fe83b52d36833e6970bb25f507aae151e608e9fba837b50260ecd0e7cda6012102aab1f62420ee0f2cd066e07508fea0efa16213e059de456f057be8cf1dd927430247304402203d3d0232673d5751644877524517727733fa5bb0dc4845b3227f0a3b216551cc02201c05721bc06f03e097d35f7e689fcb9f87662f0560398cdddd4c8350113137aa0121023cf7a2bd511db0b74a17ec013e4c4c379c24f6db335a3a6853bd68a83e142ad100000000", "vin": [{"txinwitness": ["304402204546079e4c71bd4853607c43dabdbe4416dd725af5273f3d13d7eec6b7fc27da02201a59fe83b52d36833e6970bb25f507aae151e608e9fba837b50260ecd0e7cda601", "02aab1f62420ee0f2cd066e07508fea0efa16213e059de456f057be8cf1dd92743"], "sequence": 4294967293, "scriptSig": {"hex": "1600148bf1a8b1ff44b6b653c86d0f41a55ec220977fc5", "asm": "00148bf1a8b1ff44b6b653c86d0f41a55ec220977fc5"}, "vout": 0, "txid": "49eb1d1aae29eef5b1094c7a022eb1c1e8e22dc207dccef92a5d5279d78daf21"}, {"txinwitness": ["304402203d3d0232673d5751644877524517727733fa5bb0dc4845b3227f0a3b216551cc02201c05721bc06f03e097d35f7e689fcb9f87662f0560398cdddd4c8350113137aa01", "023cf7a2bd511db0b74a17ec013e4c4c379c24f6db335a3a6853bd68a83e142ad1"], "sequence": 4294967293, "scriptSig": {"hex": "160014aa40ff61e5460c2cd3b6b90bbb0f4c54ec1b5454", "asm": "0014aa40ff61e5460c2cd3b6b90bbb0f4c54ec1b5454"}, "vout": 1, "txid": "88f2c3541badb2d8c2659e49873176dbfc9ddd448af87427a8c6c83336186b7e"}], "txid": "31ada56b7118b9bddae9afdbbfe7b064ae196d629230131d7771368781479296", "blocktime": 1537872018, "version": 2, "confirmations": 11489, "time": 1537872018, "locktime": 0, "vsize": 256, "size": 418}