{"hash": "38253ed3ba29b25036ddfd72e45dae6a366f0ebf5970fd486d1681c8f111dbcf", "blockhash": "0000000000000000001f76057863aec43deb6fa401d9628bb513d65a8098bfab", "vout": [{"scriptPubKey": {"reqSigs": 1, "hex": "a9142b2fdd48f49b706875f4fbd5bcc4b41580a26fb887", "addresses": ["35dNKU9c94hQBSEnAktmTDnXbsErXWbUqZ"], "asm": "OP_HASH160 2b2fdd48f49b706875f4fbd5bcc4b41580a26fb8 OP_EQUAL", "type": "scripthash"}, "value": 0.01, "n": 0}, {"scriptPubKey": {"reqSigs": 1, "hex": "a914fe7fd437518992d862ec9a85900ead80dd3315c587", "addresses": ["3Qtggyrsj21Edr5iZ1SC7tjs492W2ZDRqS"], "asm": "OP_HASH160 fe7fd437518992d862ec9a85900ead80dd3315c5 OP_EQUAL", "type": "scripthash"}, "value": 0.01004034, "n": 1}], "hex": "0200000000010247a4f95d63fd6bfc6f90d588fdbf6d5995bd475d57af022f9904701203d313bb0100000017160014c496cd6faa19cddf8da814dc010a380d0e5c73dafdffffffeedb0b254328fe4fa26ff3c5746216bf4a1a4dba243c1885a7a3adc50b720e8500000000171600146ec5c54e9cc4b3c7e42654a1ca36ea19b32ec80cfdffffff0240420f000000000017a9142b2fdd48f49b706875f4fbd5bcc4b41580a26fb88702520f000000000017a914fe7fd437518992d862ec9a85900ead80dd3315c5870247304402206a0dab96816e80ed7e3a3af3051a9699b92dbda793ce079affe82cc7257762cb02207f04b47ed358f343383481f6de5eecbd71233563601c68415866e7e1d75d935201210250efd68984984b4e2eb1690ed9c202acf85b720b61267a10d8f373b9da402be40247304402204a12c606f5e1cd836e7a11a444c471897b9c592329d0efda5689314380dab26702200d38eb0bc20d318e351d9ba595a1ff3a94f80573cb70fb983442e557f2fe6dc0012102ddb743f7059a07a0c45971e29a30572deb12a868eebb7e67423495e846b1223614490800", "vin": [{"txinwitness": ["304402206a0dab96816e80ed7e3a3af3051a9699b92dbda793ce079affe82cc7257762cb02207f04b47ed358f343383481f6de5eecbd71233563601c68415866e7e1d75d935201", "0250efd68984984b4e2eb1690ed9c202acf85b720b61267a10d8f373b9da402be4"], "sequence": 4294967293, "scriptSig": {"hex": "160014c496cd6faa19cddf8da814dc010a380d0e5c73da", "asm": "0014c496cd6faa19cddf8da814dc010a380d0e5c73da"}, "vout": 1, "txid": "bb13d303127004992f02af575d47bd95596dbffd88d5906ffc6bfd635df9a447"}, {"txinwitness": ["304402204a12c606f5e1cd836e7a11a444c471897b9c592329d0efda5689314380dab26702200d38eb0bc20d318e351d9ba595a1ff3a94f80573cb70fb983442e557f2fe6dc001", "02ddb743f7059a07a0c45971e29a30572deb12a868eebb7e67423495e846b12236"], "sequence": 4294967293, "scriptSig": {"hex": "1600146ec5c54e9cc4b3c7e42654a1ca36ea19b32ec80c", "asm": "00146ec5c54e9cc4b3c7e42654a1ca36ea19b32ec80c"}, "vout": 0, "txid": "850e720bc5ada3a785183c24ba4d1a4abf166274c5f36fa24ffe2843250bdbee"}], "txid": "31b59def28adc27d5a857a6bd27f94e95be586f31c6aebceb3db00dce5edf083", "blocktime": 1537873891, "version": 2, "confirmations": 11478, "time": 1537873891, "locktime": 542996, "vsize": 256, "size": 418}