{"hash": "31b8d63e34dbf000b276a6b6a943b45761a6a6f224f65290cf05d301b153e7b8", "blockhash": "0000000000000000000dcc0f55137456b1a82d3642486a52398922ac4d620174", "vout": [{"scriptPubKey": {"reqSigs": 1, "hex": "76a914ac58bd4306f3afcb12ef01ba59aa9a7cbd5f626288ac", "addresses": ["1GiHXiAeyW7mAQd6263gmRpP8qMwo5SLpv"], "asm": "OP_DUP OP_HASH160 ac58bd4306f3afcb12ef01ba59aa9a7cbd5f6262 OP_EQUALVERIFY OP_CHECKSIG", "type": "pubkeyhash"}, "value": 0.0108, "n": 0}, {"scriptPubKey": {"reqSigs": 1, "hex": "76a9144f4d131509861127f2103aca0cdd6f825d84828988ac", "addresses": ["18EJiPUabNhRhxChcPw4Ega32iCfmi5eKq"], "asm": "OP_DUP OP_HASH160 4f4d131509861127f2103aca0cdd6f825d848289 OP_EQUALVERIFY OP_CHECKSIG", "type": "pubkeyhash"}, "value": 0.18431293, "n": 1}], "hex": "0100000001be212e7f213ceca927ea2e626e88869db963032fdd036b45b40bfc5b456866b1010000006b483045022100b9cc904ad4228d8734079e284747c94aaff460c0c5f0b93efe3a46552dd2d3dc02201a5359081fa81d9ff6a3f177d276751655649e1f400fe5433cc7e47880cf0120012103508763d441ba568778cb034a5bd3cf6622325b4739de3f5b3ace42318d699bc5ffffffff02c07a1000000000001976a914ac58bd4306f3afcb12ef01ba59aa9a7cbd5f626288ac3d3d1901000000001976a9144f4d131509861127f2103aca0cdd6f825d84828988ac00000000", "vin": [{"sequence": 4294967295, "scriptSig": {"hex": "483045022100b9cc904ad4228d8734079e284747c94aaff460c0c5f0b93efe3a46552dd2d3dc02201a5359081fa81d9ff6a3f177d276751655649e1f400fe5433cc7e47880cf0120012103508763d441ba568778cb034a5bd3cf6622325b4739de3f5b3ace42318d699bc5", "asm": "3045022100b9cc904ad4228d8734079e284747c94aaff460c0c5f0b93efe3a46552dd2d3dc02201a5359081fa81d9ff6a3f177d276751655649e1f400fe5433cc7e47880cf0120[ALL] 03508763d441ba568778cb034a5bd3cf6622325b4739de3f5b3ace42318d699bc5"}, "vout": 1, "txid": "b16668455bfc0bb4456b03dd2f0363b99d86886e622eea27a9ec3c217f2e21be"}], "txid": "31b8d63e34dbf000b276a6b6a943b45761a6a6f224f65290cf05d301b153e7b8", "blocktime": 1537870268, "version": 1, "confirmations": 11518, "time": 1537870268, "locktime": 0, "vsize": 226, "size": 226}