{"hash": "e9f7abc0520b618e1fb2da01d4ab8204d445ea65c30beece4d18a414d4acf368", "blockhash": "0000000000000000001f76057863aec43deb6fa401d9628bb513d65a8098bfab", "vout": [{"scriptPubKey": {"reqSigs": 1, "hex": "a9148d67a29283ca8a82a3cbafb8a7f407d436451e2687", "addresses": ["3EahMHGHskGYTEiJDppt84YKXWBW7TtZgk"], "asm": "OP_HASH160 8d67a29283ca8a82a3cbafb8a7f407d436451e26 OP_EQUAL", "type": "scripthash"}, "value": 0.10453511, "n": 0}, {"scriptPubKey": {"reqSigs": 1, "hex": "a914bef4b7e39590f32dda6d320608e6c0ed2962e63587", "addresses": ["3K6hUKQqHByGuRSeDE8RwHsjHnKYfwbUwL"], "asm": "OP_HASH160 bef4b7e39590f32dda6d320608e6c0ed2962e635 OP_EQUAL", "type": "scripthash"}, "value": 0.14924417, "n": 1}], "hex": "02000000000101291e1227a12d9110d80563832cfbe48bc9e08022425ab7e7df2905eb819644b20000000017160014d75237ef26e0382b773db177ef75f28e8848457dfeffffff0207829f000000000017a9148d67a29283ca8a82a3cbafb8a7f407d436451e268781bae3000000000017a914bef4b7e39590f32dda6d320608e6c0ed2962e635870247304402204f55e389d010c67459a86fb02084201df29d69a395ca9e6555575336a7f6214302200ce29999d4c1ca0ba39eee10031bd09672a07cdf6b53c149720d48cd811d0e80012103f00936e3791b3ebc438819ad05229417a6a3073eb0645696793fbf0e06bd423d14490800", "vin": [{"txinwitness": ["304402204f55e389d010c67459a86fb02084201df29d69a395ca9e6555575336a7f6214302200ce29999d4c1ca0ba39eee10031bd09672a07cdf6b53c149720d48cd811d0e8001", "03f00936e3791b3ebc438819ad05229417a6a3073eb0645696793fbf0e06bd423d"], "sequence": 4294967294, "scriptSig": {"hex": "160014d75237ef26e0382b773db177ef75f28e8848457d", "asm": "0014d75237ef26e0382b773db177ef75f28e8848457d"}, "vout": 0, "txid": "b2449681eb0529dfe7b75a422280e0c98be4fb2c836305d810912da127121e29"}], "txid": "31c4c285745a91fc57cabbede0b2744302d3aa469b449cd199173a566eb0d3be", "blocktime": 1537873891, "version": 2, "confirmations": 11478, "time": 1537873891, "locktime": 542996, "vsize": 166, "size": 247}