{"hash": "3d774ffe1c057ae811d6bb21bd4336400fb1a9209bb1887f461d310b9cba1ec8", "blockhash": "0000000000000000001cda96e906b7601b7a6fb1a3b62bca570a9e5d8f4b3de1", "vout": [{"scriptPubKey": {"reqSigs": 1, "hex": "76a91443906c22da7dc5ac6c2eecc7672cbb30a84c4b4988ac", "addresses": ["17AFHVrCSUU1vT3HaRJVwFBQyPjm83zcvV"], "asm": "OP_DUP OP_HASH160 43906c22da7dc5ac6c2eecc7672cbb30a84c4b49 OP_EQUALVERIFY OP_CHECKSIG", "type": "pubkeyhash"}, "value": 0.01907025, "n": 0}, {"scriptPubKey": {"reqSigs": 1, "hex": "001499f586a75f0fb34c97d107acdd0188e128838bbc", "addresses": ["bc1qn86cdf6lp7e5e973q7kd6qvguy5g8zauamj396"], "asm": "0 99f586a75f0fb34c97d107acdd0188e128838bbc", "type": "witness_v0_keyhash"}, "value": 0.00310806, "n": 1}], "hex": "01000000000101576a80fa2f0637735470aac6a4b05c7003c7a327630cac0d81848a1d3892366e0000000000ffffffff0251191d00000000001976a91443906c22da7dc5ac6c2eecc7672cbb30a84c4b4988ac16be04000000000016001499f586a75f0fb34c97d107acdd0188e128838bbc0247304402206283d37314b531cacc7c4f5fcca7dd50905a17f86f3f8ef7cd9c6c9edb3cfe00022002623043e8b28d21e7111a58ba5319c3e27eb1a15c51821a8072bc4841db6ea5012102b2d80793cf1548732d476ed602cd12c8164ad58a70fd1c4880d26dd9b4b6360d00000000", "vin": [{"txinwitness": ["304402206283d37314b531cacc7c4f5fcca7dd50905a17f86f3f8ef7cd9c6c9edb3cfe00022002623043e8b28d21e7111a58ba5319c3e27eb1a15c51821a8072bc4841db6ea501", "02b2d80793cf1548732d476ed602cd12c8164ad58a70fd1c4880d26dd9b4b6360d"], "sequence": 4294967295, "scriptSig": {"hex": "", "asm": ""}, "vout": 0, "txid": "6e3692381d8a84810dac0c6327a3c703705cb0a4c6aa70547337062ffa806a57"}], "txid": "31c54d18ae673aa9f8dbb6dcb9760c348bd75ac0e0566ae14ce9d8d544917a81", "blocktime": 1537873282, "version": 1, "confirmations": 11484, "time": 1537873282, "locktime": 0, "vsize": 144, "size": 225}