{"hash": "31ccc349f632c1d5c0fdc594047d4670244a34b694c1a6a05c3e703ac06bc9a6", "blockhash": "0000000000000000000e13cef7c366c0283d82e591d1acd082e914b08063cdf1", "vout": [{"scriptPubKey": {"reqSigs": 1, "hex": "76a91448d3c5e2a2d9edf7a19d79a796b12d119eded79788ac", "addresses": ["17e5M4Jw4zTNnFoi4Ra3NEsjc1vbTYr1gf"], "asm": "OP_DUP OP_HASH160 48d3c5e2a2d9edf7a19d79a796b12d119eded797 OP_EQUALVERIFY OP_CHECKSIG", "type": "pubkeyhash"}, "value": 0.02389706, "n": 0}, {"scriptPubKey": {"reqSigs": 1, "hex": "76a91471c1b57cddcfda450cbceb38baa5bc5ebffe419888ac", "addresses": ["1BNVQoxqzQAUgHsyDe9QEpLAfj3WeX3vd9"], "asm": "OP_DUP OP_HASH160 71c1b57cddcfda450cbceb38baa5bc5ebffe4198 OP_EQUALVERIFY OP_CHECKSIG", "type": "pubkeyhash"}, "value": 0.00232928, "n": 1}], "hex": "0100000001a1f0053304cc267df58ac9f87bf8ebf229d02fe545b25f82c686efdeac75a121000000006b483045022100c5fe11e6aa81635d6b8901786fb21fece1edff4f12d8e147ad6083ece08117ce022051979df085505b097bb5012bcbd8538bb520d63a09be2360fc612484c1a180dc012103e4889effa2f560d8b4e066c46f14d124120cb0a65d75c77430fba68bd95baa4effffffff02ca762400000000001976a91448d3c5e2a2d9edf7a19d79a796b12d119eded79788ace08d0300000000001976a91471c1b57cddcfda450cbceb38baa5bc5ebffe419888ac00000000", "vin": [{"sequence": 4294967295, "scriptSig": {"hex": "483045022100c5fe11e6aa81635d6b8901786fb21fece1edff4f12d8e147ad6083ece08117ce022051979df085505b097bb5012bcbd8538bb520d63a09be2360fc612484c1a180dc012103e4889effa2f560d8b4e066c46f14d124120cb0a65d75c77430fba68bd95baa4e", "asm": "3045022100c5fe11e6aa81635d6b8901786fb21fece1edff4f12d8e147ad6083ece08117ce022051979df085505b097bb5012bcbd8538bb520d63a09be2360fc612484c1a180dc[ALL] 03e4889effa2f560d8b4e066c46f14d124120cb0a65d75c77430fba68bd95baa4e"}, "vout": 0, "txid": "21a175acdeef86c6825fb245e52fd029f2ebf87bf8c98af57d26cc043305f0a1"}], "txid": "31ccc349f632c1d5c0fdc594047d4670244a34b694c1a6a05c3e703ac06bc9a6", "blocktime": 1537871767, "version": 1, "confirmations": 11494, "time": 1537871767, "locktime": 0, "vsize": 226, "size": 226}