{"hash": "31ccd0ed4f5791307fdbecd3d712ec530a56e0b6e108f902e54bf0dff168f4a2", "blockhash": "0000000000000000000baef3f32e3676a92c3b2e5da21b426e4f302fc371ce76", "vout": [{"scriptPubKey": {"reqSigs": 1, "hex": "a914c82624ab2aabf37807f0e130fb2f3d568fb873e987", "addresses": ["3KwJm9ZSkGiC99YY6KD64HAPemZBTmbDUW"], "asm": "OP_HASH160 c82624ab2aabf37807f0e130fb2f3d568fb873e9 OP_EQUAL", "type": "scripthash"}, "value": 0.00078179, "n": 0}, {"scriptPubKey": {"reqSigs": 1, "hex": "76a914e4518b9af27cbd5584952d10d043384a2ef182b488ac", "addresses": ["1MpEkcAx47FJPhMeRPJyPmpo6xP7vR4J9B"], "asm": "OP_DUP OP_HASH160 e4518b9af27cbd5584952d10d043384a2ef182b4 OP_EQUALVERIFY OP_CHECKSIG", "type": "pubkeyhash"}, "value": 0.0035957, "n": 1}], "hex": "0100000001b5dc06b9ec9c2631030cd68beaa4ea3b6c39db2a5e8b10a742a64eb341fac2f8000000006a47304402205db0a3fe2d323b3178e1aafc343f9c66d38b287f5db23a46683d04fab958d53602204c116aec7728b2c18f1ec78e1c5ea8aa8fb81e0f7c861ed179908a196a95c0c101210384ca9d63cd1c17f9cca09074830f9dc742a73abb6f484f9f550c9cb98e7a8056ffffffff02633101000000000017a914c82624ab2aabf37807f0e130fb2f3d568fb873e987927c0500000000001976a914e4518b9af27cbd5584952d10d043384a2ef182b488ac00000000", "vin": [{"sequence": 4294967295, "scriptSig": {"hex": "47304402205db0a3fe2d323b3178e1aafc343f9c66d38b287f5db23a46683d04fab958d53602204c116aec7728b2c18f1ec78e1c5ea8aa8fb81e0f7c861ed179908a196a95c0c101210384ca9d63cd1c17f9cca09074830f9dc742a73abb6f484f9f550c9cb98e7a8056", "asm": "304402205db0a3fe2d323b3178e1aafc343f9c66d38b287f5db23a46683d04fab958d53602204c116aec7728b2c18f1ec78e1c5ea8aa8fb81e0f7c861ed179908a196a95c0c1[ALL] 0384ca9d63cd1c17f9cca09074830f9dc742a73abb6f484f9f550c9cb98e7a8056"}, "vout": 0, "txid": "f8c2fa41b34ea642a7108b5e2adb396c3beaa4ea8bd60c0331269cecb906dcb5"}], "txid": "31ccd0ed4f5791307fdbecd3d712ec530a56e0b6e108f902e54bf0dff168f4a2", "blocktime": 1537876114, "version": 1, "confirmations": 11460, "time": 1537876114, "locktime": 0, "vsize": 223, "size": 223}