{"hash": "31d099489abb0a77c28bc91ba7f7f16286dca5f0655216baef7b6aae7b5e8d68", "blockhash": "0000000000000000000e13cef7c366c0283d82e591d1acd082e914b08063cdf1", "vout": [{"scriptPubKey": {"reqSigs": 1, "hex": "76a914d622cec2adc54d2cc1c6f0b37f8f0740ffaf184688ac", "addresses": ["1LXFJXkZaiNaLwELc5AA49xJPb4S82SYSN"], "asm": "OP_DUP OP_HASH160 d622cec2adc54d2cc1c6f0b37f8f0740ffaf1846 OP_EQUALVERIFY OP_CHECKSIG", "type": "pubkeyhash"}, "value": 0.01411144, "n": 0}, {"scriptPubKey": {"type": "nulldata", "hex": "6a4c500000779900017c038179860f3e5d945bd11ae3ef3236678a625097bcbefa6b8351586b4ed902b191a16717d951b634efeebbfc6b5baa0d420614f81402a269edbc9a9526289ac0f6612cd74e33776ee4", "asm": "OP_RETURN 0000779900017c038179860f3e5d945bd11ae3ef3236678a625097bcbefa6b8351586b4ed902b191a16717d951b634efeebbfc6b5baa0d420614f81402a269edbc9a9526289ac0f6612cd74e33776ee4"}, "value": 0.0, "n": 1}], "hex": "01000000017f8bd5182bf399bfc8c8405f509c606c8c9824e43901406e2066afd3040cfa88000000006a47304402204a1cec1bf0a1c688ef6b2ad996780b3bdca7eff6367de4c2c688a7319581e0ba0220526fbdc47a42cf8fb33f4de27438b46839ab7fbe12b557889717a41763ba31690121034fe9c386cf26bf976c6f830d78c03f239e3865b11b3700d48e564311e593e81dffffffff0248881500000000001976a914d622cec2adc54d2cc1c6f0b37f8f0740ffaf184688ac0000000000000000536a4c500000779900017c038179860f3e5d945bd11ae3ef3236678a625097bcbefa6b8351586b4ed902b191a16717d951b634efeebbfc6b5baa0d420614f81402a269edbc9a9526289ac0f6612cd74e33776ee400000000", "vin": [{"sequence": 4294967295, "scriptSig": {"hex": "47304402204a1cec1bf0a1c688ef6b2ad996780b3bdca7eff6367de4c2c688a7319581e0ba0220526fbdc47a42cf8fb33f4de27438b46839ab7fbe12b557889717a41763ba31690121034fe9c386cf26bf976c6f830d78c03f239e3865b11b3700d48e564311e593e81d", "asm": "304402204a1cec1bf0a1c688ef6b2ad996780b3bdca7eff6367de4c2c688a7319581e0ba0220526fbdc47a42cf8fb33f4de27438b46839ab7fbe12b557889717a41763ba3169[ALL] 034fe9c386cf26bf976c6f830d78c03f239e3865b11b3700d48e564311e593e81d"}, "vout": 0, "txid": "88fa0c04d3af66206e400139e424988c6c609c505f40c8c8bf99f32b18d58b7f"}], "txid": "31d099489abb0a77c28bc91ba7f7f16286dca5f0655216baef7b6aae7b5e8d68", "blocktime": 1537871767, "version": 1, "confirmations": 11493, "time": 1537871767, "locktime": 0, "vsize": 283, "size": 283}