{"hash": "c1625fe194df2211918e0dc024deae696910d1fe5813a26290ac9b724be96ea4", "blockhash": "0000000000000000001e0dab787dd257d1dbfcb92a98c2207d5e1078be1f4165", "vout": [{"scriptPubKey": {"reqSigs": 1, "hex": "a914ebba10d68bd9a82342ad8ea2ca53fee15ab381ce87", "addresses": ["3PBRchakXGZeF3BHPG4YTcxY5mJseFbKe9"], "asm": "OP_HASH160 ebba10d68bd9a82342ad8ea2ca53fee15ab381ce OP_EQUAL", "type": "scripthash"}, "value": 0.00242339, "n": 0}, {"scriptPubKey": {"reqSigs": 1, "hex": "00143c22a06a0d36876ee413b21f8c3fa23fe03a4aec", "addresses": ["bc1q8s32q6sdx6rkaeqnkg0cc0az8lsr5jhvxpsn6p"], "asm": "0 3c22a06a0d36876ee413b21f8c3fa23fe03a4aec", "type": "witness_v0_keyhash"}, "value": 1.109e-05, "n": 1}], "hex": "010000000001018d5f4a45808c7cf810481631acef69ec6d7ebab2f69f2c77a2c693cf4229e84e070000001716001419284488e709e282da18bf37e383d09a53ca9f53ffffffff02a3b203000000000017a914ebba10d68bd9a82342ad8ea2ca53fee15ab381ce8755040000000000001600143c22a06a0d36876ee413b21f8c3fa23fe03a4aec02473044022064097157ba38da54956058daa2cab64a8c5d1bb692dca2777f0734ffd2c6ad4e02207667e9c4d669690a7098c6baa16001b66fc695f0ba88e4c869bb6fab36faf1fd012103733beda22b76ea101aa0a1dd81b9e4de0e7be66ea7ff46c2ac4756c7ba254ef900000000", "vin": [{"txinwitness": ["3044022064097157ba38da54956058daa2cab64a8c5d1bb692dca2777f0734ffd2c6ad4e02207667e9c4d669690a7098c6baa16001b66fc695f0ba88e4c869bb6fab36faf1fd01", "03733beda22b76ea101aa0a1dd81b9e4de0e7be66ea7ff46c2ac4756c7ba254ef9"], "sequence": 4294967295, "scriptSig": {"hex": "16001419284488e709e282da18bf37e383d09a53ca9f53", "asm": "001419284488e709e282da18bf37e383d09a53ca9f53"}, "vout": 7, "txid": "4ee82942cf93c6a2772c9ff6b2ba7e6dec69efac31164810f87c8c80454a5f8d"}], "txid": "31d1b10e82bce46f80194da970decc211bd4daac9881f9a75d9e4f2a2d1de2eb", "blocktime": 1537872475, "version": 1, "confirmations": 11486, "time": 1537872475, "locktime": 0, "vsize": 165, "size": 246}