{"hash": "db805457b725d553e6202efac899b0ab88bf9776f6421348b16b472e4637dc1d", "blockhash": "000000000000000000022b45ed06c6f4ccd3cf7fb5ba4856ebd2e58215665228", "vout": [{"scriptPubKey": {"reqSigs": 1, "hex": "a914cc9955bfa8f846a8e91a33350127e470fbf36ef787", "addresses": ["3LLqTaQ91V7d4sJ6tbFJcWuAjNsUSwC1tx"], "asm": "OP_HASH160 cc9955bfa8f846a8e91a33350127e470fbf36ef7 OP_EQUAL", "type": "scripthash"}, "value": 0.011466, "n": 0}, {"scriptPubKey": {"reqSigs": 1, "hex": "a91447a4db101d682361829c774125800be8d7b36ea587", "addresses": ["38DqPYFPMdabWWVa537YmTj1S5pQmwAcQV"], "asm": "OP_HASH160 47a4db101d682361829c774125800be8d7b36ea5 OP_EQUAL", "type": "scripthash"}, "value": 0.00031972, "n": 1}], "hex": "02000000000101c56920d6fc0780e47601e7152115eeea7ea58ce4c1922db62a59f7cfe6f8924700000000171600141f5c5c3b988c1b985d9d9618934328b854db243fffffffff02e87e11000000000017a914cc9955bfa8f846a8e91a33350127e470fbf36ef787e47c00000000000017a91447a4db101d682361829c774125800be8d7b36ea58702473044022059174ef03c400fc04d7bca3b7024433a0e6ac72ba8ac2810cced7f96fa41924a0220560bc5a6c8cea471005cd3f56b2a296b6fd0a1410c383c5f5059635a5d3f0092012102069fce5e7c2558060d4ddf4049e84b46c6ab5f43def50256955f8afa46baddd300000000", "vin": [{"txinwitness": ["3044022059174ef03c400fc04d7bca3b7024433a0e6ac72ba8ac2810cced7f96fa41924a0220560bc5a6c8cea471005cd3f56b2a296b6fd0a1410c383c5f5059635a5d3f009201", "02069fce5e7c2558060d4ddf4049e84b46c6ab5f43def50256955f8afa46baddd3"], "sequence": 4294967295, "scriptSig": {"hex": "1600141f5c5c3b988c1b985d9d9618934328b854db243f", "asm": "00141f5c5c3b988c1b985d9d9618934328b854db243f"}, "vout": 0, "txid": "4792f8e6cff7592ab62d92c1e48ca57eeaee152115e70176e48007fcd62069c5"}], "txid": "31d58755f7af0868b49ae37c3b2ec365d6f1235108feb3da1b6f537f68a72da2", "blocktime": 1537869901, "version": 2, "confirmations": 11522, "time": 1537869901, "locktime": 0, "vsize": 166, "size": 247}