{"hash": "3d736e0b2db5bba6acc57afd42fdb4cbb083ecf849d4c1e472ed0acd7fc103a6", "blockhash": "000000000000000000022b45ed06c6f4ccd3cf7fb5ba4856ebd2e58215665228", "vout": [{"scriptPubKey": {"reqSigs": 1, "hex": "a914f596ae4dc722bdc32e7d4062e02d77d53170a42687", "addresses": ["3Q5Zz2ruui7AHJPPvbHSQz19UiWvPPo4sC"], "asm": "OP_HASH160 f596ae4dc722bdc32e7d4062e02d77d53170a426 OP_EQUAL", "type": "scripthash"}, "value": 0.00174963, "n": 0}, {"scriptPubKey": {"reqSigs": 1, "hex": "0014e654dc41a2a0e2c81fe6e1a4ee784f494ac2b521", "addresses": ["bc1que2dcsdz5r3vs8lxuxjwu7z0f99v9dfp2xyvjl"], "asm": "0 e654dc41a2a0e2c81fe6e1a4ee784f494ac2b521", "type": "witness_v0_keyhash"}, "value": 9.736e-05, "n": 1}], "hex": "01000000000101c120a21a3df6466d594d7f59b8cd167a234af58e7ab42fdc03bb0448b37ed15b0000000000ffffffff0273ab02000000000017a914f596ae4dc722bdc32e7d4062e02d77d53170a426870826000000000000160014e654dc41a2a0e2c81fe6e1a4ee784f494ac2b52102473044022028d7c8ace3f176c902542e7ffaad0283f5f73b634f9f8b5f56215f39ce27c141022056eb424bcd3995282bb91a23966113d03cc11ba406c8fd56bbdc880f47f65e27012103217d8510dffb0e8731f285541c166483a80dbfd96932c6f59d667261caee752a00000000", "vin": [{"txinwitness": ["3044022028d7c8ace3f176c902542e7ffaad0283f5f73b634f9f8b5f56215f39ce27c141022056eb424bcd3995282bb91a23966113d03cc11ba406c8fd56bbdc880f47f65e2701", "03217d8510dffb0e8731f285541c166483a80dbfd96932c6f59d667261caee752a"], "sequence": 4294967295, "scriptSig": {"hex": "", "asm": ""}, "vout": 0, "txid": "5bd17eb34804bb03dc2fb47a8ef54a237a16cdb8597f4d596d46f63d1aa220c1"}], "txid": "31d7b7b1e606b34683d8852d6a16fcb1232d552042f87a7119c072cdcf34e7a5", "blocktime": 1537869901, "version": 1, "confirmations": 11523, "time": 1537869901, "locktime": 0, "vsize": 142, "size": 223}