{"hash": "31d8e25d4a17bb76b20d1ebf93c4be3e0c29b58b01e62c8dcd55bad9dbc7bf74", "blockhash": "0000000000000000000dcc0f55137456b1a82d3642486a52398922ac4d620174", "vout": [{"scriptPubKey": {"reqSigs": 1, "hex": "a9145f1b0ed9427ba5790f6da4cd121eadde5a1408c187", "addresses": ["3AMtXnov2cokoDzdtjpQ2XL3LtnLcnYzNG"], "asm": "OP_HASH160 5f1b0ed9427ba5790f6da4cd121eadde5a1408c1 OP_EQUAL", "type": "scripthash"}, "value": 0.000516, "n": 0}, {"scriptPubKey": {"reqSigs": 1, "hex": "76a91404804e0773fa686554b392f4e01180294d07601f88ac", "addresses": ["1QoQYPb5JiKyeK2jj47Rv9YTRGn6FVFCX"], "asm": "OP_DUP OP_HASH160 04804e0773fa686554b392f4e01180294d07601f OP_EQUALVERIFY OP_CHECKSIG", "type": "pubkeyhash"}, "value": 0.063875, "n": 1}], "hex": "0100000001de9b76db9542ae182d16aa3af47b5bb067d3f6c1992eebeec2923d327255aba1010000006b483045022100d555dd3b7ce73c490935e3f51680790381e948e73d966ae46a71d319b49b89df0220263158f00c560f1a356f465e6a1203be6d214c1c44d0fe6f6a901169372779bb012102355ec030075ff36cd91b814894ce05a2ca712f97366a0713ffb58ca01059bb88ffffffff0290c900000000000017a9145f1b0ed9427ba5790f6da4cd121eadde5a1408c1872c776100000000001976a91404804e0773fa686554b392f4e01180294d07601f88ac00000000", "vin": [{"sequence": 4294967295, "scriptSig": {"hex": "483045022100d555dd3b7ce73c490935e3f51680790381e948e73d966ae46a71d319b49b89df0220263158f00c560f1a356f465e6a1203be6d214c1c44d0fe6f6a901169372779bb012102355ec030075ff36cd91b814894ce05a2ca712f97366a0713ffb58ca01059bb88", "asm": "3045022100d555dd3b7ce73c490935e3f51680790381e948e73d966ae46a71d319b49b89df0220263158f00c560f1a356f465e6a1203be6d214c1c44d0fe6f6a901169372779bb[ALL] 02355ec030075ff36cd91b814894ce05a2ca712f97366a0713ffb58ca01059bb88"}, "vout": 1, "txid": "a1ab5572323d92c2eeeb2e99c1f6d367b05b7bf43aaa162d18ae4295db769bde"}], "txid": "31d8e25d4a17bb76b20d1ebf93c4be3e0c29b58b01e62c8dcd55bad9dbc7bf74", "blocktime": 1537870268, "version": 1, "confirmations": 11516, "time": 1537870268, "locktime": 0, "vsize": 224, "size": 224}