{"hash": "593960597d548c2c7c5696e81a07b4b1a22d3286fabe7f0bc4b28e9d377811f4", "blockhash": "00000000000000000004ffacab907a6b429b9a5745fa0b75af4234bf69dd7176", "vout": [{"scriptPubKey": {"reqSigs": 1, "hex": "76a9143c635472341530e5b6a585dadd58c9bc111011df88ac", "addresses": ["16WJY54YY6WMv857TmDHenYb65CcaTMeTw"], "asm": "OP_DUP OP_HASH160 3c635472341530e5b6a585dadd58c9bc111011df OP_EQUALVERIFY OP_CHECKSIG", "type": "pubkeyhash"}, "value": 0.057624, "n": 0}, {"scriptPubKey": {"reqSigs": 1, "hex": "76a914dad25a940281003ed0d03dc406993dc0af99dae888ac", "addresses": ["1Lx2JTcCmdZgisSfFpiJmgtB486iK8ENNw"], "asm": "OP_DUP OP_HASH160 dad25a940281003ed0d03dc406993dc0af99dae8 OP_EQUALVERIFY OP_CHECKSIG", "type": "pubkeyhash"}, "value": 0.00369075, "n": 1}, {"scriptPubKey": {"reqSigs": 1, "hex": "76a914d51289d15401baa155d4014b487ab17ddfc2447e88ac", "addresses": ["1LRd8vma9AGjhF9n9s1igAgLMavh2LbKx9"], "asm": "OP_DUP OP_HASH160 d51289d15401baa155d4014b487ab17ddfc2447e OP_EQUALVERIFY OP_CHECKSIG", "type": "pubkeyhash"}, "value": 0.0196369, "n": 2}, {"scriptPubKey": {"reqSigs": 1, "hex": "a9141988a27e3c2df4ddee7fad5a2303d086179b2a3087", "addresses": ["3422VtS7UtCvXYxoXMVp6eZupR252z85oC"], "asm": "OP_HASH160 1988a27e3c2df4ddee7fad5a2303d086179b2a30 OP_EQUAL", "type": "scripthash"}, "value": 1.57115794, "n": 3}], "hex": "01000000000101ba012f9c7e42d4094d4b21b2091ffa50c67880b4b6b42802010b87b6e10732eb020000002322002065d416c48a8072e0ac51c2d111eb194f009caef0332446c1bf2097316cf07fa9ffffffff0460ed5700000000001976a9143c635472341530e5b6a585dadd58c9bc111011df88acb3a10500000000001976a914dad25a940281003ed0d03dc406993dc0af99dae888acaaf61d00000000001976a914d51289d15401baa155d4014b487ab17ddfc2447e88ac92655d090000000017a9141988a27e3c2df4ddee7fad5a2303d086179b2a3087040047304402201268507e2a675138b0e54f407c4b7b9debc02ed3867fe426c533ae597df95d770220111433397e02e53f60fbdf39faf3b9e4f51c2cca82e83259830a76377c5c631001473044022027df4bd8146ecf3dfed4c3ac89115f68da65bbcc021e4dc589d7ea24f54791be022027ade0d8221cf35f41cf5988fe3cb4a5974f3bacfdbcbe22f63b1eaa0bb095500169522102f44abcf9e23c9a460da309ccca56c619c04eed3bde2c2cff5e7d78fbcd980b9c2103c9443cf3047bb6c2c82f1b0c44c36109cdc3d0d601d16d1189a1602bf8d1a0a02103bfe867059274412412e088af5572b92168c2ef495cfe6c9b7a753a009eb37c4853ae00000000", "vin": [{"txinwitness": ["", "304402201268507e2a675138b0e54f407c4b7b9debc02ed3867fe426c533ae597df95d770220111433397e02e53f60fbdf39faf3b9e4f51c2cca82e83259830a76377c5c631001", "3044022027df4bd8146ecf3dfed4c3ac89115f68da65bbcc021e4dc589d7ea24f54791be022027ade0d8221cf35f41cf5988fe3cb4a5974f3bacfdbcbe22f63b1eaa0bb0955001", "522102f44abcf9e23c9a460da309ccca56c619c04eed3bde2c2cff5e7d78fbcd980b9c2103c9443cf3047bb6c2c82f1b0c44c36109cdc3d0d601d16d1189a1602bf8d1a0a02103bfe867059274412412e088af5572b92168c2ef495cfe6c9b7a753a009eb37c4853ae"], "sequence": 4294967295, "scriptSig": {"hex": "22002065d416c48a8072e0ac51c2d111eb194f009caef0332446c1bf2097316cf07fa9", "asm": "002065d416c48a8072e0ac51c2d111eb194f009caef0332446c1bf2097316cf07fa9"}, "vout": 2, "txid": "eb3207e1b6870b010228b4b6b48078c650fa1f09b2214b4d09d4427e9c2f01ba"}], "txid": "31db046ecf359dc098e6561b6bf218731da66635d0264e026b1b51c12066b6a7", "blocktime": 1537875543, "version": 1, "confirmations": 11464, "time": 1537875543, "locktime": 0, "vsize": 284, "size": 474}