{"hash": "f0bb33d8ffed65e5bb54d4bab881f541ec74e2eec74df9b255f0039001fdc9b4", "blockhash": "000000000000000000022b45ed06c6f4ccd3cf7fb5ba4856ebd2e58215665228", "vout": [{"scriptPubKey": {"reqSigs": 1, "hex": "a914803e08b5510808250589cbeeeea7c155f8ab138987", "addresses": ["3DP6jJBfDnqYzMRPjEvoy4FVTDh26oALA4"], "asm": "OP_HASH160 803e08b5510808250589cbeeeea7c155f8ab1389 OP_EQUAL", "type": "scripthash"}, "value": 0.021256, "n": 0}, {"scriptPubKey": {"reqSigs": 1, "hex": "a9140ef3bbb3e980fcdbe981f8e80d5d7cc2e27d339787", "addresses": ["3345N7LDLCvgetLCnxLbNMRUjc9UFpQd4f"], "asm": "OP_HASH160 0ef3bbb3e980fcdbe981f8e80d5d7cc2e27d3397 OP_EQUAL", "type": "scripthash"}, "value": 0.00112565, "n": 1}], "hex": "01000000000101d2f2260e2f3b0a66e7272b778a8df6ced73d81f62976403d70d7713e07ec20804d00000017160014c2da31e623e8519a1c242993795d3be23d4a3bb8ffffff0002206f20000000000017a914803e08b5510808250589cbeeeea7c155f8ab138987b5b701000000000017a9140ef3bbb3e980fcdbe981f8e80d5d7cc2e27d33978702473044022023b495c04f027fbcb6251fe37f28c2592441f37daac029b32397fd606174fce6022008b5a71db803f8720befe06f3368be390501522099ea71e8c246f6bddbca2059012102a75d356aa8c212dd26264c0d7a8f00482bdbec01fa0faaa7403396475cf0cc6200000000", "vin": [{"txinwitness": ["3044022023b495c04f027fbcb6251fe37f28c2592441f37daac029b32397fd606174fce6022008b5a71db803f8720befe06f3368be390501522099ea71e8c246f6bddbca205901", "02a75d356aa8c212dd26264c0d7a8f00482bdbec01fa0faaa7403396475cf0cc62"], "sequence": 16777215, "scriptSig": {"hex": "160014c2da31e623e8519a1c242993795d3be23d4a3bb8", "asm": "0014c2da31e623e8519a1c242993795d3be23d4a3bb8"}, "vout": 77, "txid": "8020ec073e71d7703d407629f6813dd7cef68d8a772b27e7660a3b2f0e26f2d2"}], "txid": "31e84bff408246a1c7fdff01a6870af2af83d2003b16860e7fe86138b2dce70c", "blocktime": 1537869901, "version": 1, "confirmations": 11524, "time": 1537869901, "locktime": 0, "vsize": 166, "size": 247}