{"hash": "31ee843f087546ef2c88e9f5bc5b38a402fd02dd6108883b732b5081c7144936", "blockhash": "00000000000000000024a2167bbff67b0be802c0b01cdd79e6331c2be6459f87", "vout": [{"scriptPubKey": {"reqSigs": 1, "hex": "76a914938504759d7415b373dbad3df162a1c47bb3676288ac", "addresses": ["1ET1gQs1M6AJLDMCvGe6tTB9H5JEgcyRq5"], "asm": "OP_DUP OP_HASH160 938504759d7415b373dbad3df162a1c47bb36762 OP_EQUALVERIFY OP_CHECKSIG", "type": "pubkeyhash"}, "value": 1.23016673, "n": 0}, {"scriptPubKey": {"reqSigs": 1, "hex": "76a91400df5790dc338a3f8b7164f3a3b2facb660e2e8888ac", "addresses": ["115cZ5XJFPzD8s2HpyW46d7sraUJfDH5Pu"], "asm": "OP_DUP OP_HASH160 00df5790dc338a3f8b7164f3a3b2facb660e2e88 OP_EQUALVERIFY OP_CHECKSIG", "type": "pubkeyhash"}, "value": 1.4772134, "n": 1}], "hex": "01000000014aad28d6a5caf6a3c47ad1d4c68f0021bc3c5f990ac843b85862c0fc16e1363d010000006a473044022026a19f93476af0142b357b78532a4b0b077e20608c811fb181a1687be2929a6802206b21392f6dd8ff8cb8aa5fcd7f3be5ff947ace65357d5592efce00d9d026ba37012103d8212c76e0213edea2f5cfb3d79c8a9d04c205dd3b23b63e2f1c54f3c9cc0914fdffffff02e1155507000000001976a914938504759d7415b373dbad3df162a1c47bb3676288ac7c0cce08000000001976a91400df5790dc338a3f8b7164f3a3b2facb660e2e8888ac0d490800", "vin": [{"sequence": 4294967293, "scriptSig": {"hex": "473044022026a19f93476af0142b357b78532a4b0b077e20608c811fb181a1687be2929a6802206b21392f6dd8ff8cb8aa5fcd7f3be5ff947ace65357d5592efce00d9d026ba37012103d8212c76e0213edea2f5cfb3d79c8a9d04c205dd3b23b63e2f1c54f3c9cc0914", "asm": "3044022026a19f93476af0142b357b78532a4b0b077e20608c811fb181a1687be2929a6802206b21392f6dd8ff8cb8aa5fcd7f3be5ff947ace65357d5592efce00d9d026ba37[ALL] 03d8212c76e0213edea2f5cfb3d79c8a9d04c205dd3b23b63e2f1c54f3c9cc0914"}, "vout": 1, "txid": "3d36e116fcc06258b843c80a995f3cbc21008fc6d4d17ac4a3f6caa5d628ad4a"}], "txid": "31ee843f087546ef2c88e9f5bc5b38a402fd02dd6108883b732b5081c7144936", "blocktime": 1537870564, "version": 1, "confirmations": 11515, "time": 1537870564, "locktime": 542989, "vsize": 225, "size": 225}