{"hash": "4da9ec57168cfef44535514a299065825adcb0085d5cdaca805c8cca3c81afa3", "blockhash": "0000000000000000001f76057863aec43deb6fa401d9628bb513d65a8098bfab", "vout": [{"scriptPubKey": {"reqSigs": 1, "hex": "76a914611fe9336b2e3d61271b0319edee3ad9fb4b718a88ac", "addresses": ["19rYmpUjoXhhb8D5FKUWWhBWUFZ8DESmwW"], "asm": "OP_DUP OP_HASH160 611fe9336b2e3d61271b0319edee3ad9fb4b718a OP_EQUALVERIFY OP_CHECKSIG", "type": "pubkeyhash"}, "value": 0.01559989, "n": 0}, {"scriptPubKey": {"reqSigs": 1, "hex": "00142c0404536d8f2a51e76941cced68da95a0184296", "addresses": ["bc1q9szqg5md3u49remfg8xw66x6jkspss5kw2vaxn"], "asm": "0 2c0404536d8f2a51e76941cced68da95a0184296", "type": "witness_v0_keyhash"}, "value": 0.00462728, "n": 1}], "hex": "01000000000101ee17ede2985d3e11aecf3a1fc7a0e9435aae4da5a2347a3bf7f0208a34fe47460000000000ffffffff02b5cd1700000000001976a914611fe9336b2e3d61271b0319edee3ad9fb4b718a88ac880f0700000000001600142c0404536d8f2a51e76941cced68da95a018429602473044022021282a63d45b23f686fc9ce8d3f691166061f86bc466b50006660e9ced6ed51e022055cd6ef44332d3ea6bc5f22aa86896ea7ec4486aac037059c76bd1e6e004c13f012102840bd7b42fff64509a974784b3fe022e8da94a47d0f017cf972e2ee4b39f888100000000", "vin": [{"txinwitness": ["3044022021282a63d45b23f686fc9ce8d3f691166061f86bc466b50006660e9ced6ed51e022055cd6ef44332d3ea6bc5f22aa86896ea7ec4486aac037059c76bd1e6e004c13f01", "02840bd7b42fff64509a974784b3fe022e8da94a47d0f017cf972e2ee4b39f8881"], "sequence": 4294967295, "scriptSig": {"hex": "", "asm": ""}, "vout": 0, "txid": "4647fe348a20f0f73b7a34a2a54dae5a43e9a0c71f3acfae113e5d98e2ed17ee"}], "txid": "31f1854c1bf3618a48afbe176ccf65be8492f89a86cfb38f6ae3e933a1242c5e", "blocktime": 1537873891, "version": 1, "confirmations": 11475, "time": 1537873891, "locktime": 0, "vsize": 144, "size": 225}