{"hash": "31f4f396982944f1c68a83c4fcc253f48e6728ff47f2fab28398a05832b0a78d", "blockhash": "0000000000000000001cda96e906b7601b7a6fb1a3b62bca570a9e5d8f4b3de1", "vout": [{"scriptPubKey": {"reqSigs": 1, "hex": "76a914e735bf7f81e03bfe0303ef0ab792d5616633a8fa88ac", "addresses": ["1N5XUnwXcnxKA3UQ9sinrz1gwVYnir9Kew"], "asm": "OP_DUP OP_HASH160 e735bf7f81e03bfe0303ef0ab792d5616633a8fa OP_EQUALVERIFY OP_CHECKSIG", "type": "pubkeyhash"}, "value": 0.00203075, "n": 0}, {"scriptPubKey": {"reqSigs": 1, "hex": "a914ac0969da850fc3730c7cb0f3d08e061d169459d287", "addresses": ["3HNfRbiZicc6MZDPX7SYSTuZpqGuX4igdn"], "asm": "OP_HASH160 ac0969da850fc3730c7cb0f3d08e061d169459d2 OP_EQUAL", "type": "scripthash"}, "value": 0.02385187, "n": 1}], "hex": "0100000001cfe185b0645d68af7e78ce9138c6b3111b00957221fafe265f2cfea8af5f04ff000000006b483045022100f91471d041c72dd356f178be498c6e78130190ecc8e30cd4be4c05d5e64cf91f0220378fce5430c724838edf5cb700571f73df6f41f8fc477de4bd705236098f0b25012102a7bc360d09563becf3611676c135d559522d40e4ee1310e5947cc86e34d18f3bffffffff0243190300000000001976a914e735bf7f81e03bfe0303ef0ab792d5616633a8fa88ac236524000000000017a914ac0969da850fc3730c7cb0f3d08e061d169459d28700000000", "vin": [{"sequence": 4294967295, "scriptSig": {"hex": "483045022100f91471d041c72dd356f178be498c6e78130190ecc8e30cd4be4c05d5e64cf91f0220378fce5430c724838edf5cb700571f73df6f41f8fc477de4bd705236098f0b25012102a7bc360d09563becf3611676c135d559522d40e4ee1310e5947cc86e34d18f3b", "asm": "3045022100f91471d041c72dd356f178be498c6e78130190ecc8e30cd4be4c05d5e64cf91f0220378fce5430c724838edf5cb700571f73df6f41f8fc477de4bd705236098f0b25[ALL] 02a7bc360d09563becf3611676c135d559522d40e4ee1310e5947cc86e34d18f3b"}, "vout": 0, "txid": "ff045fafa8fe2c5f26fefa217295001b11b3c63891ce787eaf685d64b085e1cf"}], "txid": "31f4f396982944f1c68a83c4fcc253f48e6728ff47f2fab28398a05832b0a78d", "blocktime": 1537873282, "version": 1, "confirmations": 11484, "time": 1537873282, "locktime": 0, "vsize": 224, "size": 224}