{"hash": "31fa301a87cf8a7f19dded5a441cb794240ca93311cf93fb780e9d72913d3a36", "blockhash": "0000000000000000000e13cef7c366c0283d82e591d1acd082e914b08063cdf1", "vout": [{"scriptPubKey": {"reqSigs": 1, "hex": "a914569fea45daf278029068431bb0099f6b0bd021c787", "addresses": ["39b3c928GZpx8Lovd4pw52hSdF6WjvbMwQ"], "asm": "OP_HASH160 569fea45daf278029068431bb0099f6b0bd021c7 OP_EQUAL", "type": "scripthash"}, "value": 0.07803599, "n": 0}, {"scriptPubKey": {"reqSigs": 1, "hex": "76a914b4988296ccd0919aa6237c12893a3829f0534a4d88ac", "addresses": ["1HTuL7qjLoMzRavScoDrg1VRsbvhtoC2ZZ"], "asm": "OP_DUP OP_HASH160 b4988296ccd0919aa6237c12893a3829f0534a4d OP_EQUALVERIFY OP_CHECKSIG", "type": "pubkeyhash"}, "value": 0.33536586, "n": 1}], "hex": "020000000164afc280a1e63ddf50fb121e8af9be110c0d66640a19b29ece3481a91a26bdd5000000006a4730440220318b31eca6313bdf085678bf3e2df9cc000fb9e580950cb7bd532e4e362dfd9a02201e8e84a514623870493bd9365d0b61ebe8a0250d6792febd06ad3bc245a34a8a0121022926227bec292a31dd733e481ff9c463bd64600acecb1dc7c445a626b044ab98feffffff02cf1277000000000017a914569fea45daf278029068431bb0099f6b0bd021c7874abaff01000000001976a914b4988296ccd0919aa6237c12893a3829f0534a4d88ac10490800", "vin": [{"sequence": 4294967294, "scriptSig": {"hex": "4730440220318b31eca6313bdf085678bf3e2df9cc000fb9e580950cb7bd532e4e362dfd9a02201e8e84a514623870493bd9365d0b61ebe8a0250d6792febd06ad3bc245a34a8a0121022926227bec292a31dd733e481ff9c463bd64600acecb1dc7c445a626b044ab98", "asm": "30440220318b31eca6313bdf085678bf3e2df9cc000fb9e580950cb7bd532e4e362dfd9a02201e8e84a514623870493bd9365d0b61ebe8a0250d6792febd06ad3bc245a34a8a[ALL] 022926227bec292a31dd733e481ff9c463bd64600acecb1dc7c445a626b044ab98"}, "vout": 0, "txid": "d5bd261aa98134ce9eb2190a64660d0c11bef98a1e12fb50df3de6a180c2af64"}], "txid": "31fa301a87cf8a7f19dded5a441cb794240ca93311cf93fb780e9d72913d3a36", "blocktime": 1537871767, "version": 2, "confirmations": 11495, "time": 1537871767, "locktime": 542992, "vsize": 223, "size": 223}