{"hash": "31fb60b2d4a1b41235ab6777b91c8097ce10f03cf1eff8e611cf40e734f8903d", "blockhash": "0000000000000000000baef3f32e3676a92c3b2e5da21b426e4f302fc371ce76", "vout": [{"scriptPubKey": {"reqSigs": 1, "hex": "76a914c0dfde7aae11cbfd7834a72387cfc98906138b7788ac", "addresses": ["1JapvXXkfNELnGDajPUQTGfLjzRYqrpD1H"], "asm": "OP_DUP OP_HASH160 c0dfde7aae11cbfd7834a72387cfc98906138b77 OP_EQUALVERIFY OP_CHECKSIG", "type": "pubkeyhash"}, "value": 7.42e-05, "n": 0}, {"scriptPubKey": {"reqSigs": 1, "hex": "76a914ef99393c11e466da1c3653cfaeeb6c906cdea2a088ac", "addresses": ["1Nqt41TkNr2qRkRLBuqxawE5jxdXPdT24A"], "asm": "OP_DUP OP_HASH160 ef99393c11e466da1c3653cfaeeb6c906cdea2a0 OP_EQUALVERIFY OP_CHECKSIG", "type": "pubkeyhash"}, "value": 0.00072621, "n": 1}, {"scriptPubKey": {"reqSigs": 1, "hex": "76a91418b1781fac669eb7fe611d60d7e2c0acdd297e8f88ac", "addresses": ["13FZpPBWDDxEXn1pAUH8LMHVqJW9kBn3op"], "asm": "OP_DUP OP_HASH160 18b1781fac669eb7fe611d60d7e2c0acdd297e8f OP_EQUALVERIFY OP_CHECKSIG", "type": "pubkeyhash"}, "value": 7.307e-05, "n": 2}, {"scriptPubKey": {"reqSigs": 1, "hex": "76a914373b32eeda41118f9ba1a540c55b297b9ed7103a88ac", "addresses": ["16335mSucLankr5wiEazEsHCxfxXuJudCw"], "asm": "OP_DUP OP_HASH160 373b32eeda41118f9ba1a540c55b297b9ed7103a OP_EQUALVERIFY OP_CHECKSIG", "type": "pubkeyhash"}, "value": 8.918e-05, "n": 3}, {"scriptPubKey": {"reqSigs": 1, "hex": "76a9147a8002a4d3bda57f4549b809c6b04547d46e135988ac", "addresses": ["1CAiniaJtjUAwHonSvVGmyc8Fpo77qV9in"], "asm": "OP_DUP OP_HASH160 7a8002a4d3bda57f4549b809c6b04547d46e1359 OP_EQUALVERIFY OP_CHECKSIG", "type": "pubkeyhash"}, "value": 7.473e-05, "n": 4}, {"scriptPubKey": {"reqSigs": 1, "hex": "76a9148843d7e9e04499de7575667558ae32b350805f2088ac", "addresses": ["1DRWAw3pCKgJp98qKBf8rMBYYYhDnyoFGk"], "asm": "OP_DUP OP_HASH160 8843d7e9e04499de7575667558ae32b350805f20 OP_EQUALVERIFY OP_CHECKSIG", "type": "pubkeyhash"}, "value": 0.00053034, "n": 5}], "hex": "0100000001935dad7914fc9be8faf34947bb84e42162d863c319ac87fd890e2c34db25cdb1010000008b483045022100de5b02ea6296905e7ec8a38ac531811030d5951e8e1ab7a22d0b0e06bcd54dd8022014e0d45fef91cf38d3b91a4fed3f589fa779a219f194b898eebe77a5ea18701501410437fbbf3ad32f136cb820202e9b064ae1c0bba01f997649e6041aecd88049055448421201bc96295ffe8e8badcb376e76d0a85d0b6beae78541dcf6eb40b5127fffffffff06fc1c0000000000001976a914c0dfde7aae11cbfd7834a72387cfc98906138b7788acad1b0100000000001976a914ef99393c11e466da1c3653cfaeeb6c906cdea2a088ac8b1c0000000000001976a91418b1781fac669eb7fe611d60d7e2c0acdd297e8f88acd6220000000000001976a914373b32eeda41118f9ba1a540c55b297b9ed7103a88ac311d0000000000001976a9147a8002a4d3bda57f4549b809c6b04547d46e135988ac2acf0000000000001976a9148843d7e9e04499de7575667558ae32b350805f2088ac00000000", "vin": [{"sequence": 4294967295, "scriptSig": {"hex": "483045022100de5b02ea6296905e7ec8a38ac531811030d5951e8e1ab7a22d0b0e06bcd54dd8022014e0d45fef91cf38d3b91a4fed3f589fa779a219f194b898eebe77a5ea18701501410437fbbf3ad32f136cb820202e9b064ae1c0bba01f997649e6041aecd88049055448421201bc96295ffe8e8badcb376e76d0a85d0b6beae78541dcf6eb40b5127f", "asm": "3045022100de5b02ea6296905e7ec8a38ac531811030d5951e8e1ab7a22d0b0e06bcd54dd8022014e0d45fef91cf38d3b91a4fed3f589fa779a219f194b898eebe77a5ea187015[ALL] 0437fbbf3ad32f136cb820202e9b064ae1c0bba01f997649e6041aecd88049055448421201bc96295ffe8e8badcb376e76d0a85d0b6beae78541dcf6eb40b5127f"}, "vout": 1, "txid": "b1cd25db342c0e89fd87ac19c363d86221e484bb4749f3fae89bfc1479ad5d93"}], "txid": "31fb60b2d4a1b41235ab6777b91c8097ce10f03cf1eff8e611cf40e734f8903d", "blocktime": 1537876114, "version": 1, "confirmations": 11460, "time": 1537876114, "locktime": 0, "vsize": 394, "size": 394}