{"hash": "ecd2629c9bc7e6e14111f6c4204459a62d49f53f536d37dbe02b2f6c4f721cbc", "blockhash": "00000000000000000017f5eb5941039fbcee6240d03bc1f2f8e35350df66a1d8", "vout": [{"scriptPubKey": {"reqSigs": 1, "hex": "76a914ed8ef716781b7666e5cf2ecc412413678a33242588ac", "addresses": ["1Nf6Qrq5NLDGPVsgqufZ4NBBiRNo2uLFrr"], "asm": "OP_DUP OP_HASH160 ed8ef716781b7666e5cf2ecc412413678a332425 OP_EQUALVERIFY OP_CHECKSIG", "type": "pubkeyhash"}, "value": 0.021, "n": 0}, {"scriptPubKey": {"reqSigs": 1, "hex": "a9141a2a80f77e885b56bedaf61bcf3c9d267ab4488f87", "addresses": ["345NQkC8xT6ww8JyiYJYGkpyn6TB7QRpsG"], "asm": "OP_HASH160 1a2a80f77e885b56bedaf61bcf3c9d267ab4488f OP_EQUAL", "type": "scripthash"}, "value": 4.12094735, "n": 1}], "hex": "02000000000101e23fcff7f886b97fa5fee703721da76168c6b560ef990d5ebc8c0cd140b07663000000001716001412fad969f482a31413e5f889bbf21c219ca05212feffffff02200b2000000000001976a914ed8ef716781b7666e5cf2ecc412413678a33242588ac0f1190180000000017a9141a2a80f77e885b56bedaf61bcf3c9d267ab4488f8702483045022100923df8581b76202bd041123a1c1d920eaae5a777d93fa6a055d9ba7573a62d0502201aeecbd9bcf385a68960a6bc8e8667a2b54f55e9b20e01c3cd71bc080de81d0b012103eadcb397d314dc4d779a895a5724ad071bc1e7aefaf30e223cbb7d75dcc0dbdf15490800", "vin": [{"txinwitness": ["3045022100923df8581b76202bd041123a1c1d920eaae5a777d93fa6a055d9ba7573a62d0502201aeecbd9bcf385a68960a6bc8e8667a2b54f55e9b20e01c3cd71bc080de81d0b01", "03eadcb397d314dc4d779a895a5724ad071bc1e7aefaf30e223cbb7d75dcc0dbdf"], "sequence": 4294967294, "scriptSig": {"hex": "16001412fad969f482a31413e5f889bbf21c219ca05212", "asm": "001412fad969f482a31413e5f889bbf21c219ca05212"}, "vout": 0, "txid": "6376b040d10c8cbc5e0d99ef60b5c66861a71d7203e7fea57fb986f8f7cf3fe2"}], "txid": "31fec5af077497995f86caf584f6889c3e6e13af67abf3ee39e55fd5fec3e174", "blocktime": 1537874412, "version": 2, "confirmations": 11467, "time": 1537874412, "locktime": 542997, "vsize": 168, "size": 250}