{"hash": "8b92ead045819bebce88f580314525422b83f94be53b5210ccf5974306ce1208", "blockhash": "00000000000000000004ffacab907a6b429b9a5745fa0b75af4234bf69dd7176", "vout": [{"scriptPubKey": {"reqSigs": 1, "hex": "76a9149ccedaa67cb4cdb331dd2969752d652edd3ccc4888ac", "addresses": ["1FJ8DQEZ8CrLGcEEzHUVzucPBhgtHvJYpB"], "asm": "OP_DUP OP_HASH160 9ccedaa67cb4cdb331dd2969752d652edd3ccc48 OP_EQUALVERIFY OP_CHECKSIG", "type": "pubkeyhash"}, "value": 0.011521, "n": 0}, {"scriptPubKey": {"reqSigs": 1, "hex": "a9144d293bcdc8b44f39bc0c92eb41ca5b5ef1480d4687", "addresses": ["38j1MGxv8M2EzE5QVWzavCTicpwByECqCv"], "asm": "OP_HASH160 4d293bcdc8b44f39bc0c92eb41ca5b5ef1480d46 OP_EQUAL", "type": "scripthash"}, "value": 8.87771812, "n": 1}], "hex": "02000000000101d74cd2ba890c0674f42de6d6842b52e6a8747ef79f360629e678462b75c8e89101000000171600143ff816c3a02e013cd7ea4b2c204674768da8a76dffffffff0264941100000000001976a9149ccedaa67cb4cdb331dd2969752d652edd3ccc4888aca452ea340000000017a9144d293bcdc8b44f39bc0c92eb41ca5b5ef1480d46870247304402205b9777eaf85e7c6052c012d35948943c6c8293f65b2406a9039b06fd637fbb62022046cb9061af86837f73da09c9086d8903e06a5e7821d617131e942cd3f5a8448601210306f6e5c3dfeb94059c2c436c189768eff8f584c499fad5bb8e2f7ab65449bdeb00000000", "vin": [{"txinwitness": ["304402205b9777eaf85e7c6052c012d35948943c6c8293f65b2406a9039b06fd637fbb62022046cb9061af86837f73da09c9086d8903e06a5e7821d617131e942cd3f5a8448601", "0306f6e5c3dfeb94059c2c436c189768eff8f584c499fad5bb8e2f7ab65449bdeb"], "sequence": 4294967295, "scriptSig": {"hex": "1600143ff816c3a02e013cd7ea4b2c204674768da8a76d", "asm": "00143ff816c3a02e013cd7ea4b2c204674768da8a76d"}, "vout": 1, "txid": "91e8c8752b4678e62906369ff77e74a8e6522b84d6e62df474060c89bad24cd7"}], "txid": "32089d17b186744753a8e1e3df9425f0c074e9ad4bff788c5fe3f5898b4a8603", "blocktime": 1537875543, "version": 2, "confirmations": 11464, "time": 1537875543, "locktime": 0, "vsize": 168, "size": 249}