{"hash": "320d764ff5dc0d31c09dace505ca10be9b345d6f34c96b9b8c8cb6d7a98a0395", "blockhash": "0000000000000000000dcc0f55137456b1a82d3642486a52398922ac4d620174", "vout": [{"scriptPubKey": {"reqSigs": 1, "hex": "76a9141f6521aeae5f3d87e49e38929f21f3c730035e2188ac", "addresses": ["13s16h7JnmoZmdXxPnrdWxKAMDRzapLEjq"], "asm": "OP_DUP OP_HASH160 1f6521aeae5f3d87e49e38929f21f3c730035e21 OP_EQUALVERIFY OP_CHECKSIG", "type": "pubkeyhash"}, "value": 0.00180691, "n": 0}, {"scriptPubKey": {"reqSigs": 1, "hex": "76a9140eea5bcde31224fcd19162cf796b96244128a54588ac", "addresses": ["12MsDD2VnYHvgJHZEbTekyg4G63warHTCj"], "asm": "OP_DUP OP_HASH160 0eea5bcde31224fcd19162cf796b96244128a545 OP_EQUALVERIFY OP_CHECKSIG", "type": "pubkeyhash"}, "value": 5.46e-06, "n": 1}, {"scriptPubKey": {"type": "nulldata", "hex": "6a146f6d6e69000000000000001f000001331a86c600", "asm": "OP_RETURN 6f6d6e69000000000000001f000001331a86c600"}, "value": 0.0, "n": 2}], "hex": "0100000006bbcce8522926983aa6fce80557f912502aa527412a0ec31044543413e91b264f020000006b4830450221008d5f02fa55dab00f0108156062b29849be15e8ad39015f16e237147906af7ad30220251b2a71fe05ac2e7886fb5c6024f260e4a42f9916d4d7fd8537ec6b0e4da99d012102e341e0cb826b97624b4a2451577de20708f8b729f38609ebb93880768eca58d8fffffffff1180b09a7919a8bf7dd90d681aee2ad07e9874e14d8568e40dc47cb7bbea561020000006a473044022058fd72077945fa7ece7c34bdb4fb86559005b4b00ff0b5905fdbae9c1f752aa0022036af7185b5ce127d7b35933beb1a75f1e8a158e7031282da5ff5f941ec6a45fd012102e341e0cb826b97624b4a2451577de20708f8b729f38609ebb93880768eca58d8ffffffff080b1a54fdc1d872b19a5cab2e74863d79073f9348dc1b0e84d6fd96995f96ce010000006a47304402200db32c715778e0fc1404bd8fff4543a72acad5add5a99ac555e5ab5bf46c9822022064759f32e3f3f0ee34e5d1ac293ed1b3d13a7fe1e840c527fc6352ad116ea26f012102e341e0cb826b97624b4a2451577de20708f8b729f38609ebb93880768eca58d8ffffffffe21408e2c9ca07e4e8d82619900005d7d9fe84816edad802b5fea977754aa157020000006b4830450221008bb76f197a248161f059bdc70f0916ba7f10ffc288a361dbd7eb80f54df77bb4022076c9fa70a59cb51fc61361921b1a81a3e1600466e8f5d64936f8f8a7e7564de6012102e341e0cb826b97624b4a2451577de20708f8b729f38609ebb93880768eca58d8ffffffff3b61d1c13450e510983d8153b21ed43cfbe826c31273d0b716ac6df036f18166020000006a47304402200c713ff9d8373ffc21e5d78981546e521e2c4cd717a33c1462402f17c5f71bb0022075dd957d39b92fac967db9cb9a517e7151559d1c6a7e9f836eccb4c0abb9b780012102e341e0cb826b97624b4a2451577de20708f8b729f38609ebb93880768eca58d8ffffffff0a8d976f46b3d211aef04d2a426386ddf588ed534b4aa4bd4f0e16585d7b4682000000006a473044022042ac51eadc2a66602d349d495db06c1e7383428f977d318c78efc636db33792002204f44680bda295629181fc2e15ab2dae17dd32aa0ac8dd310fec0f64f902e3126012102e341e0cb826b97624b4a2451577de20708f8b729f38609ebb93880768eca58d8ffffffff03d3c10200000000001976a9141f6521aeae5f3d87e49e38929f21f3c730035e2188ac22020000000000001976a9140eea5bcde31224fcd19162cf796b96244128a54588ac0000000000000000166a146f6d6e69000000000000001f000001331a86c60000000000", "vin": [{"sequence": 4294967295, "scriptSig": {"hex": "4830450221008d5f02fa55dab00f0108156062b29849be15e8ad39015f16e237147906af7ad30220251b2a71fe05ac2e7886fb5c6024f260e4a42f9916d4d7fd8537ec6b0e4da99d012102e341e0cb826b97624b4a2451577de20708f8b729f38609ebb93880768eca58d8", "asm": "30450221008d5f02fa55dab00f0108156062b29849be15e8ad39015f16e237147906af7ad30220251b2a71fe05ac2e7886fb5c6024f260e4a42f9916d4d7fd8537ec6b0e4da99d[ALL] 02e341e0cb826b97624b4a2451577de20708f8b729f38609ebb93880768eca58d8"}, "vout": 2, "txid": "4f261be91334544410c30e2a4127a52a5012f95705e8fca63a98262952e8ccbb"}, {"sequence": 4294967295, "scriptSig": {"hex": "473044022058fd72077945fa7ece7c34bdb4fb86559005b4b00ff0b5905fdbae9c1f752aa0022036af7185b5ce127d7b35933beb1a75f1e8a158e7031282da5ff5f941ec6a45fd012102e341e0cb826b97624b4a2451577de20708f8b729f38609ebb93880768eca58d8", "asm": "3044022058fd72077945fa7ece7c34bdb4fb86559005b4b00ff0b5905fdbae9c1f752aa0022036af7185b5ce127d7b35933beb1a75f1e8a158e7031282da5ff5f941ec6a45fd[ALL] 02e341e0cb826b97624b4a2451577de20708f8b729f38609ebb93880768eca58d8"}, "vout": 2, "txid": "61a5be7bcb47dc408e56d8144e87e907ade2ae81d690ddf78b9a91a7090b18f1"}, {"sequence": 4294967295, "scriptSig": {"hex": "47304402200db32c715778e0fc1404bd8fff4543a72acad5add5a99ac555e5ab5bf46c9822022064759f32e3f3f0ee34e5d1ac293ed1b3d13a7fe1e840c527fc6352ad116ea26f012102e341e0cb826b97624b4a2451577de20708f8b729f38609ebb93880768eca58d8", "asm": "304402200db32c715778e0fc1404bd8fff4543a72acad5add5a99ac555e5ab5bf46c9822022064759f32e3f3f0ee34e5d1ac293ed1b3d13a7fe1e840c527fc6352ad116ea26f[ALL] 02e341e0cb826b97624b4a2451577de20708f8b729f38609ebb93880768eca58d8"}, "vout": 1, "txid": "ce965f9996fdd6840e1bdc48933f07793d86742eab5c9ab172d8c1fd541a0b08"}, {"sequence": 4294967295, "scriptSig": {"hex": "4830450221008bb76f197a248161f059bdc70f0916ba7f10ffc288a361dbd7eb80f54df77bb4022076c9fa70a59cb51fc61361921b1a81a3e1600466e8f5d64936f8f8a7e7564de6012102e341e0cb826b97624b4a2451577de20708f8b729f38609ebb93880768eca58d8", "asm": "30450221008bb76f197a248161f059bdc70f0916ba7f10ffc288a361dbd7eb80f54df77bb4022076c9fa70a59cb51fc61361921b1a81a3e1600466e8f5d64936f8f8a7e7564de6[ALL] 02e341e0cb826b97624b4a2451577de20708f8b729f38609ebb93880768eca58d8"}, "vout": 2, "txid": "57a14a7577a9feb502d8da6e8184fed9d70500901926d8e8e407cac9e20814e2"}, {"sequence": 4294967295, "scriptSig": {"hex": "47304402200c713ff9d8373ffc21e5d78981546e521e2c4cd717a33c1462402f17c5f71bb0022075dd957d39b92fac967db9cb9a517e7151559d1c6a7e9f836eccb4c0abb9b780012102e341e0cb826b97624b4a2451577de20708f8b729f38609ebb93880768eca58d8", "asm": "304402200c713ff9d8373ffc21e5d78981546e521e2c4cd717a33c1462402f17c5f71bb0022075dd957d39b92fac967db9cb9a517e7151559d1c6a7e9f836eccb4c0abb9b780[ALL] 02e341e0cb826b97624b4a2451577de20708f8b729f38609ebb93880768eca58d8"}, "vout": 2, "txid": "6681f136f06dac16b7d07312c326e8fb3cd41eb253813d9810e55034c1d1613b"}, {"sequence": 4294967295, "scriptSig": {"hex": "473044022042ac51eadc2a66602d349d495db06c1e7383428f977d318c78efc636db33792002204f44680bda295629181fc2e15ab2dae17dd32aa0ac8dd310fec0f64f902e3126012102e341e0cb826b97624b4a2451577de20708f8b729f38609ebb93880768eca58d8", "asm": "3044022042ac51eadc2a66602d349d495db06c1e7383428f977d318c78efc636db33792002204f44680bda295629181fc2e15ab2dae17dd32aa0ac8dd310fec0f64f902e3126[ALL] 02e341e0cb826b97624b4a2451577de20708f8b729f38609ebb93880768eca58d8"}, "vout": 0, "txid": "82467b5d58160e4fbda44a4b53ed88f5dd8663422a4df0ae11d2b3466f978d0a"}], "txid": "320d764ff5dc0d31c09dace505ca10be9b345d6f34c96b9b8c8cb6d7a98a0395", "blocktime": 1537870268, "version": 1, "confirmations": 11516, "time": 1537870268, "locktime": 0, "vsize": 993, "size": 993}