{"hash": "3b716c4a03965bb00c9551e4d907cdfdf02c027c6a78795a8fee6b620acc25cd", "blockhash": "0000000000000000000dcc0f55137456b1a82d3642486a52398922ac4d620174", "vout": [{"scriptPubKey": {"reqSigs": 1, "hex": "a91459d125b79e0f4f82e3cc0c0e369987683f1eaaaf87", "addresses": ["39svcRnSyG9ujEci8bgwfGPnXqTSDqgGjs"], "asm": "OP_HASH160 59d125b79e0f4f82e3cc0c0e369987683f1eaaaf OP_EQUAL", "type": "scripthash"}, "value": 0.00010237, "n": 0}, {"scriptPubKey": {"reqSigs": 1, "hex": "a91408c364340a91e77e4376b26fdad3b5aedc5661f787", "addresses": ["32VMQ7Th4qGhbDYY68FZrfSF9hTbsPivgt"], "asm": "OP_HASH160 08c364340a91e77e4376b26fdad3b5aedc5661f7 OP_EQUAL", "type": "scripthash"}, "value": 0.08351289, "n": 1}], "hex": "01000000000101ae3cc0a3e9b7117397552afb1ba316041b42f6af5d16193fa17afd209528b2ba010000002322002027561ef61439ff4994ea3793249bbb358319edb59fff63c1eeada48f299e81b5ffffffff02fd2700000000000017a91459d125b79e0f4f82e3cc0c0e369987683f1eaaaf87396e7f000000000017a91408c364340a91e77e4376b26fdad3b5aedc5661f787040047304402203b971709737d8578fa9ac69d8a21933455873c0dac17d91110eb6fe9793399a70220316c74a02028059c863e96ea1b1d778c8a5366663f739609c1abdb098c91f5d0014730440220295ebb08197b904c4c9c7418ac7660cedd2c5c94471b4b848935c2c70ebaf07002204bee869029137d80fa77fe9978e42178e25f96ade825214f3cc85122f54388d30147522102f484437eae67e7d1f9cf7235bd52510c99f379408a1f6fe737011d4bc259358a2103871fc2ca08e6950b38867e8e6a0e94ee625223d3aa0df5c65f414c6d784467e252ae00000000", "vin": [{"txinwitness": ["", "304402203b971709737d8578fa9ac69d8a21933455873c0dac17d91110eb6fe9793399a70220316c74a02028059c863e96ea1b1d778c8a5366663f739609c1abdb098c91f5d001", "30440220295ebb08197b904c4c9c7418ac7660cedd2c5c94471b4b848935c2c70ebaf07002204bee869029137d80fa77fe9978e42178e25f96ade825214f3cc85122f54388d301", "522102f484437eae67e7d1f9cf7235bd52510c99f379408a1f6fe737011d4bc259358a2103871fc2ca08e6950b38867e8e6a0e94ee625223d3aa0df5c65f414c6d784467e252ae"], "sequence": 4294967295, "scriptSig": {"hex": "22002027561ef61439ff4994ea3793249bbb358319edb59fff63c1eeada48f299e81b5", "asm": "002027561ef61439ff4994ea3793249bbb358319edb59fff63c1eeada48f299e81b5"}, "vout": 1, "txid": "bab2289520fd7aa13f19165daff6421b0416a31bfb2a55977311b7e9a3c03cae"}], "txid": "32104ad71c832cd8cfe6799deaf1a878e5354a0e3c49ca485f0617b865f43398", "blocktime": 1537870268, "version": 1, "confirmations": 11518, "time": 1537870268, "locktime": 0, "vsize": 205, "size": 370}