{"hash": "3218cd376d8f9d47e4af2d048abc60121fc5d4c940c7897675f7333cbdd60e61", "blockhash": "000000000000000000022b45ed06c6f4ccd3cf7fb5ba4856ebd2e58215665228", "vout": [{"scriptPubKey": {"reqSigs": 1, "hex": "76a914244f1cf9988563fafcabedb7a2e644db81f3036a88ac", "addresses": ["14Jz6nbxVoA5LD3v5ctbr1u3zYbyb1Y17F"], "asm": "OP_DUP OP_HASH160 244f1cf9988563fafcabedb7a2e644db81f3036a OP_EQUALVERIFY OP_CHECKSIG", "type": "pubkeyhash"}, "value": 0.00287077, "n": 0}, {"scriptPubKey": {"reqSigs": 1, "hex": "76a91444ee64b7d4bc73f9f0831a0745ac13df832d576088ac", "addresses": ["17HUXuoVSWX9kc5qzfZNocoeRtbd95aHKY"], "asm": "OP_DUP OP_HASH160 44ee64b7d4bc73f9f0831a0745ac13df832d5760 OP_EQUALVERIFY OP_CHECKSIG", "type": "pubkeyhash"}, "value": 0.01228952, "n": 1}], "hex": "0100000001aad592ced5b326c9bb94d4a0f0786b5c3d19d0fccb96f3845aabc741d76bc0c6000000006b483045022100d61e45d6f07f3c30f94724d96b8137cc0f261cec41a86a5ce0afe6d36b68699402202fa3d0c23580479ead52d19e5e0cfaa296482fb7db2a30264fb37f6e71a345bf01210365fb669f180dd2e770483551d8ad85536bc6ed3bb83119928ae79bae64a10e21fdffffff0265610400000000001976a914244f1cf9988563fafcabedb7a2e644db81f3036a88ac98c01200000000001976a91444ee64b7d4bc73f9f0831a0745ac13df832d576088ac0b490800", "vin": [{"sequence": 4294967293, "scriptSig": {"hex": "483045022100d61e45d6f07f3c30f94724d96b8137cc0f261cec41a86a5ce0afe6d36b68699402202fa3d0c23580479ead52d19e5e0cfaa296482fb7db2a30264fb37f6e71a345bf01210365fb669f180dd2e770483551d8ad85536bc6ed3bb83119928ae79bae64a10e21", "asm": "3045022100d61e45d6f07f3c30f94724d96b8137cc0f261cec41a86a5ce0afe6d36b68699402202fa3d0c23580479ead52d19e5e0cfaa296482fb7db2a30264fb37f6e71a345bf[ALL] 0365fb669f180dd2e770483551d8ad85536bc6ed3bb83119928ae79bae64a10e21"}, "vout": 0, "txid": "c6c06bd741c7ab5a84f396cbfcd0193d5c6b78f0a0d494bbc926b3d5ce92d5aa"}], "txid": "3218cd376d8f9d47e4af2d048abc60121fc5d4c940c7897675f7333cbdd60e61", "blocktime": 1537869901, "version": 1, "confirmations": 11524, "time": 1537869901, "locktime": 542987, "vsize": 226, "size": 226}