{"hash": "32194ad857db763135440ca3e80de778288668431fa8e5f7d2a8b9cba404da7a", "blockhash": "0000000000000000001e0dab787dd257d1dbfcb92a98c2207d5e1078be1f4165", "vout": [{"scriptPubKey": {"reqSigs": 1, "hex": "76a91497396627658db8a0f00783f5591794542f0264b188ac", "addresses": ["1Enbo83n943FM8xsC3iGKsjakijJ6KvygZ"], "asm": "OP_DUP OP_HASH160 97396627658db8a0f00783f5591794542f0264b1 OP_EQUALVERIFY OP_CHECKSIG", "type": "pubkeyhash"}, "value": 1.001e-05, "n": 0}, {"scriptPubKey": {"reqSigs": 1, "hex": "76a91433bef8c03ac7ab10cf22eee4438be2aaaa04489e88ac", "addresses": ["15icEjFjwrA4iCSaTGU65BjRYWJx5DkPEM"], "asm": "OP_DUP OP_HASH160 33bef8c03ac7ab10cf22eee4438be2aaaa04489e OP_EQUALVERIFY OP_CHECKSIG", "type": "pubkeyhash"}, "value": 0.00489652, "n": 1}], "hex": "010000000102cf69d572e25c36302420438992d9ffa50429ced7478296577de5389b69e78c010000006b483045022100ad08ba74ff58c098a6fc7ce67159340525862bb2273ec70e07e20c476058026f022003cd3baeeee6874adb7872f150d768dd81caaff261381a800528e60bc77cc9ef0121038482157a33f51a97ec03d96895fb205095bc75425bac70280a88a49a678f1fccffffffff02e9030000000000001976a91497396627658db8a0f00783f5591794542f0264b188acb4780700000000001976a91433bef8c03ac7ab10cf22eee4438be2aaaa04489e88ac00000000", "vin": [{"sequence": 4294967295, "scriptSig": {"hex": "483045022100ad08ba74ff58c098a6fc7ce67159340525862bb2273ec70e07e20c476058026f022003cd3baeeee6874adb7872f150d768dd81caaff261381a800528e60bc77cc9ef0121038482157a33f51a97ec03d96895fb205095bc75425bac70280a88a49a678f1fcc", "asm": "3045022100ad08ba74ff58c098a6fc7ce67159340525862bb2273ec70e07e20c476058026f022003cd3baeeee6874adb7872f150d768dd81caaff261381a800528e60bc77cc9ef[ALL] 038482157a33f51a97ec03d96895fb205095bc75425bac70280a88a49a678f1fcc"}, "vout": 1, "txid": "8ce7699b38e57d57968247d7ce2904a5ffd9928943202430365ce272d569cf02"}], "txid": "32194ad857db763135440ca3e80de778288668431fa8e5f7d2a8b9cba404da7a", "blocktime": 1537872475, "version": 1, "confirmations": 11486, "time": 1537872475, "locktime": 0, "vsize": 226, "size": 226}