{"hash": "321c202b7c9071b65b1c1e7712b4f2d01d775498443aa4ac7ca66bf8b11b3aa4", "blockhash": "0000000000000000000baef3f32e3676a92c3b2e5da21b426e4f302fc371ce76", "vout": [{"scriptPubKey": {"reqSigs": 1, "hex": "76a914bb31b87425149bb70e0eac98ce152036320eb1cf88ac", "addresses": ["1J4nvWraMYbfjGvpMUHrjtBgqPYfVpWLfS"], "asm": "OP_DUP OP_HASH160 bb31b87425149bb70e0eac98ce152036320eb1cf OP_EQUALVERIFY OP_CHECKSIG", "type": "pubkeyhash"}, "value": 0.03508679, "n": 0}], "hex": "010000000153020e6d94e9ab0a50b6f74a4c863e0a720ef56f39b6c4ecb114b68ab78591ed000000006a4730440220646133550d23e040c767d5bd13068d5827e8057f5a0e8f7929f6834a6e1dd47302200e45ba6e39ccf24b9df893ebc50eceb41f47c1ba5270beeef006fc9293e6adef012103c9e5334dd13c0b638b690ef88cae4aa911cc30dc2b3ecd4e566a03110880a690ffffffff01c7893500000000001976a914bb31b87425149bb70e0eac98ce152036320eb1cf88ac00000000", "vin": [{"sequence": 4294967295, "scriptSig": {"hex": "4730440220646133550d23e040c767d5bd13068d5827e8057f5a0e8f7929f6834a6e1dd47302200e45ba6e39ccf24b9df893ebc50eceb41f47c1ba5270beeef006fc9293e6adef012103c9e5334dd13c0b638b690ef88cae4aa911cc30dc2b3ecd4e566a03110880a690", "asm": "30440220646133550d23e040c767d5bd13068d5827e8057f5a0e8f7929f6834a6e1dd47302200e45ba6e39ccf24b9df893ebc50eceb41f47c1ba5270beeef006fc9293e6adef[ALL] 03c9e5334dd13c0b638b690ef88cae4aa911cc30dc2b3ecd4e566a03110880a690"}, "vout": 0, "txid": "ed9185b78ab614b1ecc4b6396ff50e720a3e864c4af7b6500aabe9946d0e0253"}], "txid": "321c202b7c9071b65b1c1e7712b4f2d01d775498443aa4ac7ca66bf8b11b3aa4", "blocktime": 1537876114, "version": 1, "confirmations": 11459, "time": 1537876114, "locktime": 0, "vsize": 191, "size": 191}