{"hash": "e17277b07b8b41dd0e6b2c635ed095a8c4fbc4dad3044f8ebf629d7ca1eb4a5a", "blockhash": "0000000000000000001f76057863aec43deb6fa401d9628bb513d65a8098bfab", "vout": [{"scriptPubKey": {"reqSigs": 1, "hex": "a914fc728ea480dab48de1e3896b2010998cde2e172187", "addresses": ["3QhqSTZ9yTeKbq7E3yUBRDfGXBK2WL5aS4"], "asm": "OP_HASH160 fc728ea480dab48de1e3896b2010998cde2e1721 OP_EQUAL", "type": "scripthash"}, "value": 0.00070378, "n": 0}, {"scriptPubKey": {"reqSigs": 1, "hex": "a914f3b4966c515c094fa17adc56dfb2f06d05b1e5d687", "addresses": ["3PucTc168NjAQPkvwZzBFdpMwxjqGgBM17"], "asm": "OP_HASH160 f3b4966c515c094fa17adc56dfb2f06d05b1e5d6 OP_EQUAL", "type": "scripthash"}, "value": 0.00928827, "n": 1}], "hex": "020000000001013cf9436478589f9d2ab6b818eff68f01558a2e23e2c3b4d35f1c84417f41bb0900000000171600140875dac02eb402a3de298474c76b67dd05aa8951feffffff02ea1201000000000017a914fc728ea480dab48de1e3896b2010998cde2e1721873b2c0e000000000017a914f3b4966c515c094fa17adc56dfb2f06d05b1e5d6870247304402207370dea37ad0415878c028fe9b0682549dc7489864985e82872e7a654b13527c02201ba919d74a22c2e663b62dd30ebc18d57b5dd32448ef1627e59ec38907d9b2a4012103d2bb1b91bd0d79ec6c9fed35628c634da93fd52e8a00a0e0c9e16db4a685994d14490800", "vin": [{"txinwitness": ["304402207370dea37ad0415878c028fe9b0682549dc7489864985e82872e7a654b13527c02201ba919d74a22c2e663b62dd30ebc18d57b5dd32448ef1627e59ec38907d9b2a401", "03d2bb1b91bd0d79ec6c9fed35628c634da93fd52e8a00a0e0c9e16db4a685994d"], "sequence": 4294967294, "scriptSig": {"hex": "1600140875dac02eb402a3de298474c76b67dd05aa8951", "asm": "00140875dac02eb402a3de298474c76b67dd05aa8951"}, "vout": 0, "txid": "09bb417f41841c5fd3b4c3e2232e8a55018ff6ef18b8b62a9d9f58786443f93c"}], "txid": "3221a2291eb23c60f77ce0bd9bbb4bc68253778c95763766294d1c763b0cdaf3", "blocktime": 1537873891, "version": 2, "confirmations": 11478, "time": 1537873891, "locktime": 542996, "vsize": 166, "size": 247}