{"hash": "322ccbe22754d25f5b177b1177e3653d854b946226362aa58b4923b404ba33c9", "blockhash": "0000000000000000001cda96e906b7601b7a6fb1a3b62bca570a9e5d8f4b3de1", "vout": [{"scriptPubKey": {"reqSigs": 1, "hex": "76a9141d2c5363d89c76c2a72d5c0483d4b84c1ff3d5bb88ac", "addresses": ["13fFhNSVrmb3Af58LVrexdot8FUXURDiH9"], "asm": "OP_DUP OP_HASH160 1d2c5363d89c76c2a72d5c0483d4b84c1ff3d5bb OP_EQUALVERIFY OP_CHECKSIG", "type": "pubkeyhash"}, "value": 0.015606, "n": 0}, {"scriptPubKey": {"reqSigs": 1, "hex": "76a9142deb4bb32ceea235b81cb92d644fefb370e3cde688ac", "addresses": ["15BoHGLTwmJWFTHineH76GCsGxDijdzrr4"], "asm": "OP_DUP OP_HASH160 2deb4bb32ceea235b81cb92d644fefb370e3cde6 OP_EQUALVERIFY OP_CHECKSIG", "type": "pubkeyhash"}, "value": 0.01341996, "n": 1}], "hex": "020000000230fa54d88d569b39992c6f381ea7534081bde1d42e86f499b939c1e92860609d010000006b483045022100f126fafc78b87f5032de5884949491ad95b9e5c6e90bc86f2463bdca5cf67cc40220613180f037d87ad34a7c9a4b780a0b87d270a52e1eb824e0d86d0ac3c4874be301210212e662d5109ea462cb23ffdd6778cae44366bde3a7d1bdd7b2f7af4480818205feffffffcd8834b99db5135cd49c8b476fbd6e3116c52733914eb329b8ae57399bf479e1000000006a473044022100a6738cbabe70dd2528605e1236f9ec2b7b1dbd78d75f9ff9d87d3bd8a5bd960a021f40c928609c777cac76b912dcbe4418d1cebfcf33584d38321ae7635e4eecb801210372f055b1a5d4e49d1d46c9de71b016ad20f9aa9cb1c72700b96d8b06a0a2d103feffffff0218d01700000000001976a9141d2c5363d89c76c2a72d5c0483d4b84c1ff3d5bb88ac2c7a1400000000001976a9142deb4bb32ceea235b81cb92d644fefb370e3cde688ac13490800", "vin": [{"sequence": 4294967294, "scriptSig": {"hex": "483045022100f126fafc78b87f5032de5884949491ad95b9e5c6e90bc86f2463bdca5cf67cc40220613180f037d87ad34a7c9a4b780a0b87d270a52e1eb824e0d86d0ac3c4874be301210212e662d5109ea462cb23ffdd6778cae44366bde3a7d1bdd7b2f7af4480818205", "asm": "3045022100f126fafc78b87f5032de5884949491ad95b9e5c6e90bc86f2463bdca5cf67cc40220613180f037d87ad34a7c9a4b780a0b87d270a52e1eb824e0d86d0ac3c4874be3[ALL] 0212e662d5109ea462cb23ffdd6778cae44366bde3a7d1bdd7b2f7af4480818205"}, "vout": 1, "txid": "9d606028e9c139b999f4862ed4e1bd814053a71e386f2c99399b568dd854fa30"}, {"sequence": 4294967294, "scriptSig": {"hex": "473044022100a6738cbabe70dd2528605e1236f9ec2b7b1dbd78d75f9ff9d87d3bd8a5bd960a021f40c928609c777cac76b912dcbe4418d1cebfcf33584d38321ae7635e4eecb801210372f055b1a5d4e49d1d46c9de71b016ad20f9aa9cb1c72700b96d8b06a0a2d103", "asm": "3044022100a6738cbabe70dd2528605e1236f9ec2b7b1dbd78d75f9ff9d87d3bd8a5bd960a021f40c928609c777cac76b912dcbe4418d1cebfcf33584d38321ae7635e4eecb8[ALL] 0372f055b1a5d4e49d1d46c9de71b016ad20f9aa9cb1c72700b96d8b06a0a2d103"}, "vout": 0, "txid": "e179f49b3957aeb829b34e913327c516316ebd6f478b9cd45c13b59db93488cd"}], "txid": "322ccbe22754d25f5b177b1177e3653d854b946226362aa58b4923b404ba33c9", "blocktime": 1537873282, "version": 2, "confirmations": 11481, "time": 1537873282, "locktime": 542995, "vsize": 373, "size": 373}