{"hash": "322c274ec5444d2c74d87b87c66f88215c59bc8dc0b34f7c8fdf1abb45bff544", "blockhash": "0000000000000000001f76057863aec43deb6fa401d9628bb513d65a8098bfab", "vout": [{"scriptPubKey": {"reqSigs": 1, "hex": "a9144e169dd6843b3f8abc35aaa20799055ff683535f87", "addresses": ["38ouiw2TG4YbS1Nm33964W6qqUqmz2duLp"], "asm": "OP_HASH160 4e169dd6843b3f8abc35aaa20799055ff683535f OP_EQUAL", "type": "scripthash"}, "value": 0.0420386, "n": 0}, {"scriptPubKey": {"reqSigs": 1, "hex": "76a91419800a1f3956c73b478a3d701456f0d8e15d0e8088ac", "addresses": ["13KqH94DzbhP4tcLvpcaahHXCrGyJxpAX6"], "asm": "OP_DUP OP_HASH160 19800a1f3956c73b478a3d701456f0d8e15d0e80 OP_EQUALVERIFY OP_CHECKSIG", "type": "pubkeyhash"}, "value": 8.2745562, "n": 1}], "hex": "0100000001773a556eeeecb3cead5d13c579774b2c45e2088213e2be6513d9be89065117c4010000006b4830450221009fcb33ac5f25517f4caef73994a0c6163754a8febf20253a45b4429faa7bfda502200ecd378fa2eb8ea9fea92d7b1b3fd8b87d1f2381c59c7bd085bac52d255cfc83012103314b238b469acfed4fb737f9d64e8829f2270645fc710905a4541b4977e080bcffffffff02542540000000000017a9144e169dd6843b3f8abc35aaa20799055ff683535f8784f85131000000001976a91419800a1f3956c73b478a3d701456f0d8e15d0e8088ac00000000", "vin": [{"sequence": 4294967295, "scriptSig": {"hex": "4830450221009fcb33ac5f25517f4caef73994a0c6163754a8febf20253a45b4429faa7bfda502200ecd378fa2eb8ea9fea92d7b1b3fd8b87d1f2381c59c7bd085bac52d255cfc83012103314b238b469acfed4fb737f9d64e8829f2270645fc710905a4541b4977e080bc", "asm": "30450221009fcb33ac5f25517f4caef73994a0c6163754a8febf20253a45b4429faa7bfda502200ecd378fa2eb8ea9fea92d7b1b3fd8b87d1f2381c59c7bd085bac52d255cfc83[ALL] 03314b238b469acfed4fb737f9d64e8829f2270645fc710905a4541b4977e080bc"}, "vout": 1, "txid": "c417510689bed91365bee2138208e2452c4b7779c5135dadceb3ecee6e553a77"}], "txid": "322c274ec5444d2c74d87b87c66f88215c59bc8dc0b34f7c8fdf1abb45bff544", "blocktime": 1537873891, "version": 1, "confirmations": 11478, "time": 1537873891, "locktime": 0, "vsize": 224, "size": 224}