{"hash": "8e458381c75f228f0fa25a8345d8e770e12ed910715519552262cc032350a8d4", "blockhash": "0000000000000000001f0ddff1eddb255c1121bcd4da4f1bc9a0da00cae72433", "vout": [{"scriptPubKey": {"reqSigs": 1, "hex": "a9146b46260146f3898fa8a33af4994ff3293139743787", "addresses": ["3BUEG51DgWvSXgejoSEkmTTGMJ7T5K7JPu"], "asm": "OP_HASH160 6b46260146f3898fa8a33af4994ff32931397437 OP_EQUAL", "type": "scripthash"}, "value": 0.02041766, "n": 0}, {"scriptPubKey": {"reqSigs": 1, "hex": "76a914c22a62a87670151ab28ee871eb49087a81bc9b1a88ac", "addresses": ["1JhesCnNog83J7mPggKVeX3EsJ8eAULy3d"], "asm": "OP_DUP OP_HASH160 c22a62a87670151ab28ee871eb49087a81bc9b1a OP_EQUALVERIFY OP_CHECKSIG", "type": "pubkeyhash"}, "value": 0.046794, "n": 1}], "hex": "0200000000010134ea79e2b28325f78c48ea675da67a8aef4bbfa6d604532097f1ac41dcd167e001000000171600142bd677360544ea4d618c3b882452628c32360247fdffffff02a6271f000000000017a9146b46260146f3898fa8a33af4994ff3293139743787e8664700000000001976a914c22a62a87670151ab28ee871eb49087a81bc9b1a88ac0247304402203a815a50dcccc144243bbbd0ebc63f01d5fbb3a78306d3ba23e7a5dc5fa879d602205a099abcc439e9a79bb4910790ab8fccd67c78a9d0f8c4fc3083e4a23468c6c60121035fc98a52171f52bdbe377edba3494e971c98c828f0e5b239ff380088b909e9df10490800", "vin": [{"txinwitness": ["304402203a815a50dcccc144243bbbd0ebc63f01d5fbb3a78306d3ba23e7a5dc5fa879d602205a099abcc439e9a79bb4910790ab8fccd67c78a9d0f8c4fc3083e4a23468c6c601", "035fc98a52171f52bdbe377edba3494e971c98c828f0e5b239ff380088b909e9df"], "sequence": 4294967293, "scriptSig": {"hex": "1600142bd677360544ea4d618c3b882452628c32360247", "asm": "00142bd677360544ea4d618c3b882452628c32360247"}, "vout": 1, "txid": "e067d1dc41acf197205304d6a6bf4bef8a7aa65d67ea488cf72583b2e279ea34"}], "txid": "322ca96d7a8d10c9114f4f722d84f287affdca30f0ec6f4e4668dc2086b9020d", "blocktime": 1537872018, "version": 2, "confirmations": 11489, "time": 1537872018, "locktime": 542992, "vsize": 168, "size": 249}