{"hash": "3236914e47193d273941299c40ad78c76de91ba93f9d1faba96547a71fec5588", "blockhash": "0000000000000000000e13cef7c366c0283d82e591d1acd082e914b08063cdf1", "vout": [{"scriptPubKey": {"reqSigs": 1, "hex": "76a9149fa0a967ad50efdaecfeec680831c6fba271b83c88ac", "addresses": ["1FZ2uUWaTWgUCaYeVfytZzjdPMfCEua7hA"], "asm": "OP_DUP OP_HASH160 9fa0a967ad50efdaecfeec680831c6fba271b83c OP_EQUALVERIFY OP_CHECKSIG", "type": "pubkeyhash"}, "value": 0.02, "n": 0}, {"scriptPubKey": {"reqSigs": 1, "hex": "76a9144b52f45c03929004e7cd5795e80c76fa6cf2c0ea88ac", "addresses": ["17sH4AoXfVE2mvNxSRZJBzz62ccYJUAatD"], "asm": "OP_DUP OP_HASH160 4b52f45c03929004e7cd5795e80c76fa6cf2c0ea OP_EQUALVERIFY OP_CHECKSIG", "type": "pubkeyhash"}, "value": 0.08998854, "n": 1}], "hex": "0100000001792f745a005681a57f45290e297d3fd03f53de33b097ef7d1d155984175169be010000006a473044022079c99f88fcb8b3a132ee3d5cbb8ff1573a98aa1d51dfb4be623c48442df8bc2802205ff643e25d5b754bd0dc2ad6f08606be64e9948f2fc12eafc0f9fabbda5a1799012102c74325f67d45a0c155a41e4ae38afa2082de5224704082fbc701f4d01fed933cffffffff0280841e00000000001976a9149fa0a967ad50efdaecfeec680831c6fba271b83c88acc64f8900000000001976a9144b52f45c03929004e7cd5795e80c76fa6cf2c0ea88ac00000000", "vin": [{"sequence": 4294967295, "scriptSig": {"hex": "473044022079c99f88fcb8b3a132ee3d5cbb8ff1573a98aa1d51dfb4be623c48442df8bc2802205ff643e25d5b754bd0dc2ad6f08606be64e9948f2fc12eafc0f9fabbda5a1799012102c74325f67d45a0c155a41e4ae38afa2082de5224704082fbc701f4d01fed933c", "asm": "3044022079c99f88fcb8b3a132ee3d5cbb8ff1573a98aa1d51dfb4be623c48442df8bc2802205ff643e25d5b754bd0dc2ad6f08606be64e9948f2fc12eafc0f9fabbda5a1799[ALL] 02c74325f67d45a0c155a41e4ae38afa2082de5224704082fbc701f4d01fed933c"}, "vout": 1, "txid": "be6951178459151d7def97b033de533fd03f7d290e29457fa58156005a742f79"}], "txid": "3236914e47193d273941299c40ad78c76de91ba93f9d1faba96547a71fec5588", "blocktime": 1537871767, "version": 1, "confirmations": 11495, "time": 1537871767, "locktime": 0, "vsize": 225, "size": 225}