{"hash": "32493c18c1661557dffa47eaf7f02a3795bc90a8f5a00c900f0263864a74d418", "blockhash": "0000000000000000000baef3f32e3676a92c3b2e5da21b426e4f302fc371ce76", "vout": [{"scriptPubKey": {"reqSigs": 1, "hex": "a91469f375dcfdc7c3fa1ff1222746a95bd9990a0d0787", "addresses": ["3BMEXcQkgjxzmotbiZFarA57QiDfZ2w3e1"], "asm": "OP_HASH160 69f375dcfdc7c3fa1ff1222746a95bd9990a0d07 OP_EQUAL", "type": "scripthash"}, "value": 1.82785524, "n": 0}], "hex": "0100000002466dad088e36393738c6080ec301b9e9e97bb3adb3a45623c688c01b6f93d718000000006b483045022100d83596ff5529a1afa6cdbc63e0a3a6a90adedcad32ee795a5ebb6bbbf223983c02203d5c808d473f20f5ef5591474f6090ad2e3d8220fc8afbb5366ddece74cb18fc012103f7ea60f4594730ed08ccaf7fed6c2cac2294b41fc39ecfafc72f243c2f00ded6ffffffff28383b8b45567daf0e10339083c3f002a852a6132c9fecd37d70d4250b85034d010000006b483045022100f1ad87acc3719e623cc1b43761909a537473f9910bc53149b4a829184c43ba7302207037780181f1927fe0e7acc9a939e0c1a20502319661f6a4b5eeb1fd106f67930121033cb32305253cb618277925154acc6b6b3a5217d5503b198d07ac2cac0ed91d47ffffffff01f415e50a0000000017a91469f375dcfdc7c3fa1ff1222746a95bd9990a0d078700000000", "vin": [{"sequence": 4294967295, "scriptSig": {"hex": "483045022100d83596ff5529a1afa6cdbc63e0a3a6a90adedcad32ee795a5ebb6bbbf223983c02203d5c808d473f20f5ef5591474f6090ad2e3d8220fc8afbb5366ddece74cb18fc012103f7ea60f4594730ed08ccaf7fed6c2cac2294b41fc39ecfafc72f243c2f00ded6", "asm": "3045022100d83596ff5529a1afa6cdbc63e0a3a6a90adedcad32ee795a5ebb6bbbf223983c02203d5c808d473f20f5ef5591474f6090ad2e3d8220fc8afbb5366ddece74cb18fc[ALL] 03f7ea60f4594730ed08ccaf7fed6c2cac2294b41fc39ecfafc72f243c2f00ded6"}, "vout": 0, "txid": "18d7936f1bc088c62356a4b3adb37be9e9b901c30e08c6383739368e08ad6d46"}, {"sequence": 4294967295, "scriptSig": {"hex": "483045022100f1ad87acc3719e623cc1b43761909a537473f9910bc53149b4a829184c43ba7302207037780181f1927fe0e7acc9a939e0c1a20502319661f6a4b5eeb1fd106f67930121033cb32305253cb618277925154acc6b6b3a5217d5503b198d07ac2cac0ed91d47", "asm": "3045022100f1ad87acc3719e623cc1b43761909a537473f9910bc53149b4a829184c43ba7302207037780181f1927fe0e7acc9a939e0c1a20502319661f6a4b5eeb1fd106f6793[ALL] 033cb32305253cb618277925154acc6b6b3a5217d5503b198d07ac2cac0ed91d47"}, "vout": 1, "txid": "4d03850b25d4707dd3ec9f2c13a652a802f0c3839033100eaf7d56458b3b3828"}], "txid": "32493c18c1661557dffa47eaf7f02a3795bc90a8f5a00c900f0263864a74d418", "blocktime": 1537876114, "version": 1, "confirmations": 11460, "time": 1537876114, "locktime": 0, "vsize": 338, "size": 338}