{"hash": "cd3b3d8f0a454877990906d04724a80b97ce920cfe6356c03ff23fdca47c18d4", "blockhash": "00000000000000000024a2167bbff67b0be802c0b01cdd79e6331c2be6459f87", "vout": [{"scriptPubKey": {"reqSigs": 1, "hex": "76a91435e603228f2936bbbbbcc487b3ce6b5ef9bca0ec88ac", "addresses": ["15uzMhVDyEtCPhtEnoguS8FvXqstgUjVDu"], "asm": "OP_DUP OP_HASH160 35e603228f2936bbbbbcc487b3ce6b5ef9bca0ec OP_EQUALVERIFY OP_CHECKSIG", "type": "pubkeyhash"}, "value": 0.00806302, "n": 0}, {"scriptPubKey": {"reqSigs": 1, "hex": "0014b6345c741d9f53ee9900ec9796e01443621aec64", "addresses": ["bc1qkc69caqanaf7axgqajtedcq5gd3p4mrywnytp7"], "asm": "0 b6345c741d9f53ee9900ec9796e01443621aec64", "type": "witness_v0_keyhash"}, "value": 2.854e-05, "n": 1}], "hex": "01000000000101d9ed52223219e9b80fe182db72a25b7c49b67f3fb52cc6a65c68a40b838e8b951c00000017160014627ead8570be89113260149f9d4bcff1c03e8e7bffffffff029e4d0c00000000001976a91435e603228f2936bbbbbcc487b3ce6b5ef9bca0ec88ac260b000000000000160014b6345c741d9f53ee9900ec9796e01443621aec6402483045022100873bb16cfd596c31ded079688c0b24cd9d056fff7979acd9684104c51b6f9e5702207fd23dd355b39e9548afd7e27a7dbf9149fee87b1a66a5695f868d6eba8fad87012102fb1b28dcba53b70f36102fd65348261e70580def0bc1f6c2979ff49358b0342600000000", "vin": [{"txinwitness": ["3045022100873bb16cfd596c31ded079688c0b24cd9d056fff7979acd9684104c51b6f9e5702207fd23dd355b39e9548afd7e27a7dbf9149fee87b1a66a5695f868d6eba8fad8701", "02fb1b28dcba53b70f36102fd65348261e70580def0bc1f6c2979ff49358b03426"], "sequence": 4294967295, "scriptSig": {"hex": "160014627ead8570be89113260149f9d4bcff1c03e8e7b", "asm": "0014627ead8570be89113260149f9d4bcff1c03e8e7b"}, "vout": 28, "txid": "958b8e830ba4685ca6c62cb53f7fb6497c5ba272db82e10fb8e919322252edd9"}], "txid": "324dcfeb6cd42e7d7be0c1dabe1f6a7797b9b2764bb824671ea60a5622342d9e", "blocktime": 1537870564, "version": 1, "confirmations": 11515, "time": 1537870564, "locktime": 0, "vsize": 167, "size": 249}