{"hash": "a22f0e705a7c4b263b207a07214dcea41629436425d1ffa58860326f3116455c", "blockhash": "0000000000000000001f0ddff1eddb255c1121bcd4da4f1bc9a0da00cae72433", "vout": [{"scriptPubKey": {"reqSigs": 1, "hex": "a9140d403c8f0355b99313d3b165926e7712055e2c6487", "addresses": ["32u5fGiZ5iyadSGmDNZZ8vaRTt2QkMxrXg"], "asm": "OP_HASH160 0d403c8f0355b99313d3b165926e7712055e2c64 OP_EQUAL", "type": "scripthash"}, "value": 5.62708217, "n": 0}, {"scriptPubKey": {"reqSigs": 1, "hex": "76a91465e200cea1c3f710caa491af02bbcd90ec2c77a088ac", "addresses": ["1AHhzMFpBzh1FAi32yqumFmvdtYPDLaksj"], "asm": "OP_DUP OP_HASH160 65e200cea1c3f710caa491af02bbcd90ec2c77a0 OP_EQUALVERIFY OP_CHECKSIG", "type": "pubkeyhash"}, "value": 0.01, "n": 1}], "hex": "02000000000101d62cb1d2b09a2d7c19700c8f3b7c833f3465728ec3aebd61b26a6978107dbb190100000017160014364cf9a1775552610991df5f304e2e3954918a97feffffff02f93e8a210000000017a9140d403c8f0355b99313d3b165926e7712055e2c648740420f00000000001976a91465e200cea1c3f710caa491af02bbcd90ec2c77a088ac024730440220589ba572b489d6d36b6c323314bd0cc86bd12ba89e379ac65585776d8ac81e8102202f5e3d1ce080213429e7c7b25b824a6fe95113ca1170a75f5536beff9906a20e0121032c822214d1ff7af9cadbad4366a378cfa8bb171bfbca7c4baa19a51220461f9b10490800", "vin": [{"txinwitness": ["30440220589ba572b489d6d36b6c323314bd0cc86bd12ba89e379ac65585776d8ac81e8102202f5e3d1ce080213429e7c7b25b824a6fe95113ca1170a75f5536beff9906a20e01", "032c822214d1ff7af9cadbad4366a378cfa8bb171bfbca7c4baa19a51220461f9b"], "sequence": 4294967294, "scriptSig": {"hex": "160014364cf9a1775552610991df5f304e2e3954918a97", "asm": "0014364cf9a1775552610991df5f304e2e3954918a97"}, "vout": 1, "txid": "19bb7d1078696ab261bdaec38e7265343f837c3b8f0c70197c2d9ab0d2b12cd6"}], "txid": "3252d85a21e9f5256b827945096f913da392e49d10cbd91a50f56245bb72ffda", "blocktime": 1537872018, "version": 2, "confirmations": 11489, "time": 1537872018, "locktime": 542992, "vsize": 168, "size": 249}