{"hash": "32574e94646d19e471bdcc9ddec7381ca6219257abed50f7e0cffbfdcb1ab89a", "blockhash": "00000000000000000018f53835495a110e01622372bf6ae95dc86f2b0ab887b0", "vout": [{"scriptPubKey": {"reqSigs": 1, "hex": "a9149fef2a3ae22c8f3d9a7f36b257f564dc7696076e87", "addresses": ["3GGfsWyUR8m6FYs3TiPsgsvF5czTpRxwwA"], "asm": "OP_HASH160 9fef2a3ae22c8f3d9a7f36b257f564dc7696076e OP_EQUAL", "type": "scripthash"}, "value": 0.00104019, "n": 0}, {"scriptPubKey": {"reqSigs": 1, "hex": "76a9144e3b14860a8ab575d27073221f08fbd96f70185188ac", "addresses": ["188eUvebq3t6mWwyjQXDy6wzDPBNc7iPkq"], "asm": "OP_DUP OP_HASH160 4e3b14860a8ab575d27073221f08fbd96f701851 OP_EQUALVERIFY OP_CHECKSIG", "type": "pubkeyhash"}, "value": 8.2e-05, "n": 1}], "hex": "01000000011602489a88dbcce5b5aa5c440814924f4eb7704e3a33ff7ce9348123ddaf3ffa010000006a4730440220643d7141c9b88af4a549cf990c8ac0953b98e4f5d0a8272cccda62e6cb47f3e002203f09b0db5917bf65a5633985dfa54c2b210bfd819121a2b6e751ae8144da4b3f0121039a8803c3b1dba39ca6214b90b682e07e0b3690ed50f473b3073042a44ef2ef11ffffffff02539601000000000017a9149fef2a3ae22c8f3d9a7f36b257f564dc7696076e8708200000000000001976a9144e3b14860a8ab575d27073221f08fbd96f70185188ac00000000", "vin": [{"sequence": 4294967295, "scriptSig": {"hex": "4730440220643d7141c9b88af4a549cf990c8ac0953b98e4f5d0a8272cccda62e6cb47f3e002203f09b0db5917bf65a5633985dfa54c2b210bfd819121a2b6e751ae8144da4b3f0121039a8803c3b1dba39ca6214b90b682e07e0b3690ed50f473b3073042a44ef2ef11", "asm": "30440220643d7141c9b88af4a549cf990c8ac0953b98e4f5d0a8272cccda62e6cb47f3e002203f09b0db5917bf65a5633985dfa54c2b210bfd819121a2b6e751ae8144da4b3f[ALL] 039a8803c3b1dba39ca6214b90b682e07e0b3690ed50f473b3073042a44ef2ef11"}, "vout": 1, "txid": "fa3fafdd238134e97cff333a4e70b74e4f921408445caab5e5ccdb889a480216"}], "txid": "32574e94646d19e471bdcc9ddec7381ca6219257abed50f7e0cffbfdcb1ab89a", "blocktime": 1537870928, "version": 1, "confirmations": 11512, "time": 1537870928, "locktime": 0, "vsize": 223, "size": 223}