{"hash": "3261ec39a93fe2b363f39fbff7940bee64764b5e1ef05ff2b7e5a423949d3857", "blockhash": "00000000000000000004ffacab907a6b429b9a5745fa0b75af4234bf69dd7176", "vout": [{"scriptPubKey": {"reqSigs": 1, "hex": "76a914edd527a66ec77abf632381dafe7e3a6c4d75b1d588ac", "addresses": ["1NgYVj337TZgqfuAdNqLJSFqtLcz1oFLuy"], "asm": "OP_DUP OP_HASH160 edd527a66ec77abf632381dafe7e3a6c4d75b1d5 OP_EQUALVERIFY OP_CHECKSIG", "type": "pubkeyhash"}, "value": 0.01007799, "n": 0}, {"scriptPubKey": {"reqSigs": 1, "hex": "76a9141645b3600dd708ef19fb84743d81a81e39ba6ee488ac", "addresses": ["132mN7JkPk2XLqgMNsX623h54zJJjyMNJM"], "asm": "OP_DUP OP_HASH160 1645b3600dd708ef19fb84743d81a81e39ba6ee4 OP_EQUALVERIFY OP_CHECKSIG", "type": "pubkeyhash"}, "value": 2.56246028, "n": 1}], "hex": "010000000140290f116b0bf5dcb35262ef480436ca354b8ee007629424f6d9fe6cb2a34b94020000008b483045022100e5a03607448c0414ce0cff8aa8726bcb024931e01dd5a4f659b2328086c85c330220090a61e1f49f0302a40575351fd7d14eef343adbf6d217b97b152f7c35f2015101410429c39d6b198ca9599231b5289688757acc87dade5bd64ab31b3290b0dc0887bf0c8213653070c1a5ac8a7b3c97bd6dee47e0fa82221d9c8282d1259451839165ffffffff02b7600f00000000001976a914edd527a66ec77abf632381dafe7e3a6c4d75b1d588ac0c01460f000000001976a9141645b3600dd708ef19fb84743d81a81e39ba6ee488ac00000000", "vin": [{"sequence": 4294967295, "scriptSig": {"hex": "483045022100e5a03607448c0414ce0cff8aa8726bcb024931e01dd5a4f659b2328086c85c330220090a61e1f49f0302a40575351fd7d14eef343adbf6d217b97b152f7c35f2015101410429c39d6b198ca9599231b5289688757acc87dade5bd64ab31b3290b0dc0887bf0c8213653070c1a5ac8a7b3c97bd6dee47e0fa82221d9c8282d1259451839165", "asm": "3045022100e5a03607448c0414ce0cff8aa8726bcb024931e01dd5a4f659b2328086c85c330220090a61e1f49f0302a40575351fd7d14eef343adbf6d217b97b152f7c35f20151[ALL] 0429c39d6b198ca9599231b5289688757acc87dade5bd64ab31b3290b0dc0887bf0c8213653070c1a5ac8a7b3c97bd6dee47e0fa82221d9c8282d1259451839165"}, "vout": 2, "txid": "944ba3b26cfed9f624946207e08e4b35ca360448ef6252b3dcf50b6b110f2940"}], "txid": "3261ec39a93fe2b363f39fbff7940bee64764b5e1ef05ff2b7e5a423949d3857", "blocktime": 1537875543, "version": 1, "confirmations": 11464, "time": 1537875543, "locktime": 0, "vsize": 258, "size": 258}