{"hash": "3266f2553bbceb59a1723d2422172b4add69ff5b71ba061a4685cc0f9b628ce8", "blockhash": "00000000000000000017f5eb5941039fbcee6240d03bc1f2f8e35350df66a1d8", "vout": [{"scriptPubKey": {"reqSigs": 1, "hex": "76a91488d924f51033b74a895863a5fb57fd545529df7d88ac", "addresses": ["1DUb2YYbQA1jjaNYzVXLZ7ZioEhLXtbUru"], "asm": "OP_DUP OP_HASH160 88d924f51033b74a895863a5fb57fd545529df7d OP_EQUALVERIFY OP_CHECKSIG", "type": "pubkeyhash"}, "value": 1.224994, "n": 0}, {"scriptPubKey": {"type": "nulldata", "hex": "6a146f6d6e69000000000000001f000000fa773c4b1e", "asm": "OP_RETURN 6f6d6e69000000000000001f000000fa773c4b1e"}, "value": 0.0, "n": 1}, {"scriptPubKey": {"reqSigs": 1, "hex": "76a914dd9fff5df0279e7d27e38982e557f9a3d3d1bd2588ac", "addresses": ["1MCr1Dd19XzJnsTWwcthc5HS9fzVcJNTfc"], "asm": "OP_DUP OP_HASH160 dd9fff5df0279e7d27e38982e557f9a3d3d1bd25 OP_EQUALVERIFY OP_CHECKSIG", "type": "pubkeyhash"}, "value": 5.46e-06, "n": 2}], "hex": "01000000016b4471f852e9111073d66d3564ecdc05c2a48aa76e4d58287cde03a2c0c7b477010000006a47304402204ae6aee3805adc7cd0ac0801a1e4eacd50a8d36831a86795d0dadda3d0f0cc4b0220599fc09b10c55d2628290aef7f5a32e41316c8f234a1492a20045f042029ef9e0121030888863fcb4cdf5b7d33b40e613af35df8f39d576e7972238b0d396cd3fcc3f2feffffff0348314d07000000001976a91488d924f51033b74a895863a5fb57fd545529df7d88ac0000000000000000166a146f6d6e69000000000000001f000000fa773c4b1e22020000000000001976a914dd9fff5df0279e7d27e38982e557f9a3d3d1bd2588ac15490800", "vin": [{"sequence": 4294967294, "scriptSig": {"hex": "47304402204ae6aee3805adc7cd0ac0801a1e4eacd50a8d36831a86795d0dadda3d0f0cc4b0220599fc09b10c55d2628290aef7f5a32e41316c8f234a1492a20045f042029ef9e0121030888863fcb4cdf5b7d33b40e613af35df8f39d576e7972238b0d396cd3fcc3f2", "asm": "304402204ae6aee3805adc7cd0ac0801a1e4eacd50a8d36831a86795d0dadda3d0f0cc4b0220599fc09b10c55d2628290aef7f5a32e41316c8f234a1492a20045f042029ef9e[ALL] 030888863fcb4cdf5b7d33b40e613af35df8f39d576e7972238b0d396cd3fcc3f2"}, "vout": 1, "txid": "77b4c7c0a203de7c28584d6ea78aa4c205dcec64356dd6731011e952f871446b"}], "txid": "3266f2553bbceb59a1723d2422172b4add69ff5b71ba061a4685cc0f9b628ce8", "blocktime": 1537874412, "version": 1, "confirmations": 11467, "time": 1537874412, "locktime": 542997, "vsize": 256, "size": 256}