{"hash": "326825c9973513653419b93cc1fba7e2dcb7d6edb6f1341c4c8f4cab746c7f82", "blockhash": "0000000000000000000baef3f32e3676a92c3b2e5da21b426e4f302fc371ce76", "vout": [{"scriptPubKey": {"reqSigs": 1, "hex": "a9145522cae9c09080daa651aba22cfd816402ce855d87", "addresses": ["39TB3HQHpAsR5XKNX5uHXBV4VdTPg4ko6x"], "asm": "OP_HASH160 5522cae9c09080daa651aba22cfd816402ce855d OP_EQUAL", "type": "scripthash"}, "value": 0.0006, "n": 0}, {"scriptPubKey": {"reqSigs": 1, "hex": "76a914e2bf23c3e11e38c16f0c63e97de436bd2a5debb788ac", "addresses": ["1MfvgyTUHsiyf4Pva2x6ZBHEUtsvjgyhmX"], "asm": "OP_DUP OP_HASH160 e2bf23c3e11e38c16f0c63e97de436bd2a5debb7 OP_EQUALVERIFY OP_CHECKSIG", "type": "pubkeyhash"}, "value": 0.51460207, "n": 1}], "hex": "02000000011d0f2542b6be0bbdf969da8f1f939861b4958f7b8956e00b2a98eadcc03488ea010000006b48304502210086b5a46d82fcc53041cb854f71b3eb3def4b5d9d334cbf33a5d192c152b9e6fa022057091405350d5cc5815eabcd1eae0a4b7330c996c32d8d0c8b54d801f7d4e33d0121020691577e1f9469f10612e6888b669059dd0bfd214d1b2bf28a804479fc3397efffffffff0260ea00000000000017a9145522cae9c09080daa651aba22cfd816402ce855d876f381103000000001976a914e2bf23c3e11e38c16f0c63e97de436bd2a5debb788ac00000000", "vin": [{"sequence": 4294967295, "scriptSig": {"hex": "48304502210086b5a46d82fcc53041cb854f71b3eb3def4b5d9d334cbf33a5d192c152b9e6fa022057091405350d5cc5815eabcd1eae0a4b7330c996c32d8d0c8b54d801f7d4e33d0121020691577e1f9469f10612e6888b669059dd0bfd214d1b2bf28a804479fc3397ef", "asm": "304502210086b5a46d82fcc53041cb854f71b3eb3def4b5d9d334cbf33a5d192c152b9e6fa022057091405350d5cc5815eabcd1eae0a4b7330c996c32d8d0c8b54d801f7d4e33d[ALL] 020691577e1f9469f10612e6888b669059dd0bfd214d1b2bf28a804479fc3397ef"}, "vout": 1, "txid": "ea8834c0dcea982a0be056897b8f95b46198931f8fda69f9bd0bbeb642250f1d"}], "txid": "326825c9973513653419b93cc1fba7e2dcb7d6edb6f1341c4c8f4cab746c7f82", "blocktime": 1537876114, "version": 2, "confirmations": 11460, "time": 1537876114, "locktime": 0, "vsize": 224, "size": 224}