{"hash": "326bd6d2c11ed576e63283ddd40d89b5c4a196c059b8566be28c3299bb93e01f", "blockhash": "0000000000000000000dcc0f55137456b1a82d3642486a52398922ac4d620174", "vout": [{"scriptPubKey": {"type": "nulldata", "hex": "6a146f6d6e69000000000000001f000000093c842980", "asm": "OP_RETURN 6f6d6e69000000000000001f000000093c842980"}, "value": 0.0, "n": 0}, {"scriptPubKey": {"reqSigs": 1, "hex": "a914d5f9fe9f79fa394fa25ac826cb7839e10cae877687", "addresses": ["3MCRLLMD3UypZApJhD1gfySbTAhmjNMHSA"], "asm": "OP_HASH160 d5f9fe9f79fa394fa25ac826cb7839e10cae8776 OP_EQUAL", "type": "scripthash"}, "value": 5.4e-06, "n": 1}, {"scriptPubKey": {"reqSigs": 1, "hex": "76a914a25dec4d0011064ef106a983c39c7a540699f22088ac", "addresses": ["1FoWyxwPXuj4C6abqwhjDWdz6D4PZgYRjA"], "asm": "OP_DUP OP_HASH160 a25dec4d0011064ef106a983c39c7a540699f220 OP_EQUALVERIFY OP_CHECKSIG", "type": "pubkeyhash"}, "value": 0.01995227, "n": 2}], "hex": "0100000001a44813c76173a4fe9689194c29809e35be05f1741d9b5e1e9e8bd44070ac1fea5f0000006a47304402204933dce0b30971737e6f428bb7391387e438f95bf699f7c50403b51d6422ed800220345cb7aac28e409829a1d62952a5b10ac5aee43fb5bb586596da914994441986012103da5bac7b36d5aa38f531c6b9601e21bb598a4b6716ebed38b009a55dabde9440feffffff030000000000000000166a146f6d6e69000000000000001f000000093c8429801c0200000000000017a914d5f9fe9f79fa394fa25ac826cb7839e10cae877687db711e00000000001976a914a25dec4d0011064ef106a983c39c7a540699f22088acaf480800", "vin": [{"sequence": 4294967294, "scriptSig": {"hex": "47304402204933dce0b30971737e6f428bb7391387e438f95bf699f7c50403b51d6422ed800220345cb7aac28e409829a1d62952a5b10ac5aee43fb5bb586596da914994441986012103da5bac7b36d5aa38f531c6b9601e21bb598a4b6716ebed38b009a55dabde9440", "asm": "304402204933dce0b30971737e6f428bb7391387e438f95bf699f7c50403b51d6422ed800220345cb7aac28e409829a1d62952a5b10ac5aee43fb5bb586596da914994441986[ALL] 03da5bac7b36d5aa38f531c6b9601e21bb598a4b6716ebed38b009a55dabde9440"}, "vout": 95, "txid": "ea1fac7040d48b9e1e5e9b1d74f105be359e80294c198996fea47361c71348a4"}], "txid": "326bd6d2c11ed576e63283ddd40d89b5c4a196c059b8566be28c3299bb93e01f", "blocktime": 1537870268, "version": 1, "confirmations": 11516, "time": 1537870268, "locktime": 542895, "vsize": 254, "size": 254}