{"hash": "43f9719635272f0de13003dd514bc93bd5c5b4abcb48c5bebbf83db1a6351063", "blockhash": "0000000000000000000baef3f32e3676a92c3b2e5da21b426e4f302fc371ce76", "vout": [{"scriptPubKey": {"reqSigs": 1, "hex": "a914b62a72c4d41dc6242d56396a263c81a6c746e90287", "addresses": ["3JJDkpNbmxWviGjKYuRfvdbHdKoQfg6gN4"], "asm": "OP_HASH160 b62a72c4d41dc6242d56396a263c81a6c746e902 OP_EQUAL", "type": "scripthash"}, "value": 0.0030896, "n": 0}, {"scriptPubKey": {"reqSigs": 1, "hex": "a914fd4e1845483fef255bead1befbfd0977823b6c0c87", "addresses": ["3QnNSCWHfmRniBwvzXaewz6gDLxjRvKR38"], "asm": "OP_HASH160 fd4e1845483fef255bead1befbfd0977823b6c0c OP_EQUAL", "type": "scripthash"}, "value": 0.0025666, "n": 1}, {"scriptPubKey": {"reqSigs": 1, "hex": "a9143aed4b6db26e001c21f3b210e4201926ccf9c9da87", "addresses": ["374bPC1sbmLHxEFqXrh8j981gHKkxzp8gA"], "asm": "OP_HASH160 3aed4b6db26e001c21f3b210e4201926ccf9c9da OP_EQUAL", "type": "scripthash"}, "value": 0.0029656, "n": 2}, {"scriptPubKey": {"reqSigs": 1, "hex": "a914f9a66e542ee2fa19de39e70481bdbfb1de105ae587", "addresses": ["3QT3Z8rQUdxBPNahFBy8nu2kgMFewr8dgx"], "asm": "OP_HASH160 f9a66e542ee2fa19de39e70481bdbfb1de105ae5 OP_EQUAL", "type": "scripthash"}, "value": 1.3707613, "n": 3}, {"scriptPubKey": {"reqSigs": 1, "hex": "a9141f7c6c70150f83809726810bca0f0ce3e245e76587", "addresses": ["34ZVvbLHshiUJrFG7BHLBgskmBvwZADocn"], "asm": "OP_HASH160 1f7c6c70150f83809726810bca0f0ce3e245e765 OP_EQUAL", "type": "scripthash"}, "value": 0.00486147, "n": 4}, {"scriptPubKey": {"reqSigs": 1, "hex": "a914c36dff26320859eaefd0446d9ff0719ec6f7e6d187", "addresses": ["3KWMTesVtfE1FzZ3ppoFHzWD32hHmFwTTi"], "asm": "OP_HASH160 c36dff26320859eaefd0446d9ff0719ec6f7e6d1 OP_EQUAL", "type": "scripthash"}, "value": 0.0029656, "n": 5}, {"scriptPubKey": {"reqSigs": 1, "hex": "a914ff1baf9e1570795a79976c3a254285737d0b46c187", "addresses": ["3QwuQ7nxQq28JdzJH52H435wmbvgM2RyZE"], "asm": "OP_HASH160 ff1baf9e1570795a79976c3a254285737d0b46c1 OP_EQUAL", "type": "scripthash"}, "value": 0.0042776, "n": 6}, {"scriptPubKey": {"reqSigs": 1, "hex": "a914c32c04279ebd0fbf5c1c431a905dba43aea4859b87", "addresses": ["3KUzRFZkMoNFLGSF1JfQtU1SzHM4rmsnJj"], "asm": "OP_HASH160 c32c04279ebd0fbf5c1c431a905dba43aea4859b OP_EQUAL", "type": "scripthash"}, "value": 0.0031, "n": 7}, {"scriptPubKey": {"reqSigs": 1, "hex": "76a914b60ad2b3221c3b40107683e13fb249706b9589bf88ac", "addresses": ["1HbYwusSYShTwCWy487PXN8Le5bpGmSNdf"], "asm": "OP_DUP OP_HASH160 b60ad2b3221c3b40107683e13fb249706b9589bf OP_EQUALVERIFY OP_CHECKSIG", "type": "pubkeyhash"}, "value": 0.0022, "n": 8}, {"scriptPubKey": {"reqSigs": 1, "hex": "76a914b8b335158d56404ef06491e6b2a9a1f8c0eddabd88ac", "addresses": ["1Hqc1qs4avr9Aufq97kg7HgXfimNJXkr3X"], "asm": "OP_DUP OP_HASH160 b8b335158d56404ef06491e6b2a9a1f8c0eddabd OP_EQUALVERIFY OP_CHECKSIG", "type": "pubkeyhash"}, "value": 0.002554, "n": 9}, {"scriptPubKey": {"reqSigs": 1, "hex": "a914843c26045f9a90132322a476bdebe12956e1650487", "addresses": ["3DkDB4F2MtFL3mLk8YJggFPZ4RM34DCVSW"], "asm": "OP_HASH160 843c26045f9a90132322a476bdebe12956e16504 OP_EQUAL", "type": "scripthash"}, "value": 0.00330956, "n": 10}, {"scriptPubKey": {"reqSigs": 1, "hex": "76a91402cf7d7ce61fde1520bf8b5616b79a663bc5198188ac", "addresses": ["1Frv4AfsLVv4C7ZKin5WzdvZSxecEKUUV"], "asm": "OP_DUP OP_HASH160 02cf7d7ce61fde1520bf8b5616b79a663bc51981 OP_EQUALVERIFY OP_CHECKSIG", "type": "pubkeyhash"}, "value": 0.006, "n": 11}, {"scriptPubKey": {"reqSigs": 1, "hex": "a91413a0e1e56cfe44c59734c7a6cf716f476e00ce5387", "addresses": ["33UoVVcYEPLBhPw8g1iMo9QsciYfEWFmRA"], "asm": "OP_HASH160 13a0e1e56cfe44c59734c7a6cf716f476e00ce53 OP_EQUAL", "type": "scripthash"}, "value": 0.00257466, "n": 12}, {"scriptPubKey": {"reqSigs": 1, "hex": "76a914eb690865cd59392e3d0fb5f6527c6b5834ca5d3f88ac", "addresses": ["1NTjctTmL1jB4eBwXBAnJhny9RL4EYoCoA"], "asm": "OP_DUP OP_HASH160 eb690865cd59392e3d0fb5f6527c6b5834ca5d3f OP_EQUALVERIFY OP_CHECKSIG", "type": "pubkeyhash"}, "value": 0.0038, "n": 13}, {"scriptPubKey": {"reqSigs": 1, "hex": "a914da7508124c849cf89f2e5a5b155cf4741922abcc87", "addresses": ["3Mc7RrbobQsEzBTTY57FAgbymXTBK9wn4T"], "asm": "OP_HASH160 da7508124c849cf89f2e5a5b155cf4741922abcc OP_EQUAL", "type": "scripthash"}, "value": 0.0040396, "n": 14}, {"scriptPubKey": {"reqSigs": 1, "hex": "a91497e0c743108ec819f4f4fe064dff24ec198f9da787", "addresses": ["3FY5EPH2aMzTZ7Mwy2ugaN8TsSNMfeAX5y"], "asm": "OP_HASH160 97e0c743108ec819f4f4fe064dff24ec198f9da7 OP_EQUAL", "type": "scripthash"}, "value": 0.0033276, "n": 15}, {"scriptPubKey": {"reqSigs": 1, "hex": "a914f882e87ffbdc6910c509091c1ac91599abd7ed8487", "addresses": ["3QM2Kn97m9XVNohULT2XkVEa8THBeazrfT"], "asm": "OP_HASH160 f882e87ffbdc6910c509091c1ac91599abd7ed84 OP_EQUAL", "type": "scripthash"}, "value": 0.0022226, "n": 16}, {"scriptPubKey": {"reqSigs": 1, "hex": "a914c42bb4c257644f4840be1b75f10b892a896a65b187", "addresses": ["3KaGitrkUyAYZisCkwhYZPcjFEPLpXKA7L"], "asm": "OP_HASH160 c42bb4c257644f4840be1b75f10b892a896a65b1 OP_EQUAL", "type": "scripthash"}, "value": 0.0055606, "n": 17}, {"scriptPubKey": {"reqSigs": 1, "hex": "a914a69a72390d3731b11786647f068410881217c2c687", "addresses": ["3Gsw7VkacZCit1sDmHFA1huyZUGbVQkA4s"], "asm": "OP_HASH160 a69a72390d3731b11786647f068410881217c2c6 OP_EQUAL", "type": "scripthash"}, "value": 0.00866386, "n": 18}, {"scriptPubKey": {"reqSigs": 1, "hex": "a914e80588952d9cd4bd0704fbd4c0aae2a8d14e33d087", "addresses": ["3NqqKXNs5giCumZhu6WCrcaC5AosPLzQt4"], "asm": "OP_HASH160 e80588952d9cd4bd0704fbd4c0aae2a8d14e33d0 OP_EQUAL", "type": "scripthash"}, "value": 0.00320457, "n": 19}], "hex": "0200000000010132619777dceae0b35a7020bc27ffa2d7d846ce1975169bfe014644f261a3d3791500000017160014c5435b7549e4aed4c3f9b41f3b3b11b22f79e3d6feffffff14e0b604000000000017a914b62a72c4d41dc6242d56396a263c81a6c746e9028794ea03000000000017a914fd4e1845483fef255bead1befbfd0977823b6c0c87708604000000000017a9143aed4b6db26e001c21f3b210e4201926ccf9c9da87a29d2b080000000017a914f9a66e542ee2fa19de39e70481bdbfb1de105ae587036b07000000000017a9141f7c6c70150f83809726810bca0f0ce3e245e76587708604000000000017a914c36dff26320859eaefd0446d9ff0719ec6f7e6d187f08606000000000017a914ff1baf9e1570795a79976c3a254285737d0b46c187f0ba04000000000017a914c32c04279ebd0fbf5c1c431a905dba43aea4859b87605b0300000000001976a914b60ad2b3221c3b40107683e13fb249706b9589bf88aca8e50300000000001976a914b8b335158d56404ef06491e6b2a9a1f8c0eddabd88accc0c05000000000017a914843c26045f9a90132322a476bdebe12956e1650487c0270900000000001976a91402cf7d7ce61fde1520bf8b5616b79a663bc5198188acbaed03000000000017a91413a0e1e56cfe44c59734c7a6cf716f476e00ce538760cc0500000000001976a914eb690865cd59392e3d0fb5f6527c6b5834ca5d3f88acf82906000000000017a914da7508124c849cf89f2e5a5b155cf4741922abcc87d81305000000000017a91497e0c743108ec819f4f4fe064dff24ec198f9da787346403000000000017a914f882e87ffbdc6910c509091c1ac91599abd7ed84871c7c08000000000017a914c42bb4c257644f4840be1b75f10b892a896a65b18752380d000000000017a914a69a72390d3731b11786647f068410881217c2c687c9e304000000000017a914e80588952d9cd4bd0704fbd4c0aae2a8d14e33d087024730440220253de753199f3991d6964ed1a8f4531ea09c8d1c5fed2fee706b22fa457661b30220756609f85ba1dd14d679f82c04ef95b111cd74d78cca0be35ca6e93cb507b6760121036e422cfdff6dc987fa1ba657313856e11f6bf2d123cbae42b12e1e624af5b2f017490800", "vin": [{"txinwitness": ["30440220253de753199f3991d6964ed1a8f4531ea09c8d1c5fed2fee706b22fa457661b30220756609f85ba1dd14d679f82c04ef95b111cd74d78cca0be35ca6e93cb507b67601", "036e422cfdff6dc987fa1ba657313856e11f6bf2d123cbae42b12e1e624af5b2f0"], "sequence": 4294967294, "scriptSig": {"hex": "160014c5435b7549e4aed4c3f9b41f3b3b11b22f79e3d6", "asm": "0014c5435b7549e4aed4c3f9b41f3b3b11b22f79e3d6"}, "vout": 21, "txid": "79d3a361f2444601fe9b167519ce46d8d7a2ff27bc20705ab3e0eadc77976132"}], "txid": "326dd278081887859122fcd57dd559ed8c39b8143dfe81e337d390c424588cfe", "blocktime": 1537876114, "version": 2, "confirmations": 11459, "time": 1537876114, "locktime": 542999, "vsize": 750, "size": 831}