{"hash": "326e9bb9eff8af19dbbfe7f746b1673dd428f573742aa0bce43a0456e6536fa3", "blockhash": "00000000000000000017f5eb5941039fbcee6240d03bc1f2f8e35350df66a1d8", "vout": [{"scriptPubKey": {"reqSigs": 1, "hex": "76a9149a279fb099eee82c1d742bff2be849e73ec9351a88ac", "addresses": ["1F46XeksdG7JQqsUCzs7biJ5UjW19scgsH"], "asm": "OP_DUP OP_HASH160 9a279fb099eee82c1d742bff2be849e73ec9351a OP_EQUALVERIFY OP_CHECKSIG", "type": "pubkeyhash"}, "value": 0.01000659, "n": 0}, {"scriptPubKey": {"reqSigs": 1, "hex": "a914e55b1fa02ca61713852f0c560ca2374ae2daee5687", "addresses": ["3Nbjpr6eiozx36R2Xaw6NSFHPRVYSCCJq3"], "asm": "OP_HASH160 e55b1fa02ca61713852f0c560ca2374ae2daee56 OP_EQUAL", "type": "scripthash"}, "value": 0.00744509, "n": 1}], "hex": "0200000003434910e803b0aade4b36fd684921a7a9058cea81f11be838c6340fee68f91304000000006a47304402202e0b883dceacb9050ae8d60c1b2c8b6bba6f1d14170b0ff3c700d01f7156ccb102202b40a5818d06abc27d7aae7bfaa19a5737501d6c91a1421c37496457c30a080c01210250abda54d23398faa2e2ffef68996eb7e3ebf288f762e54ec4971e1a7fab8343feffffff4c29a222fdd4a777c4893e59a4633795dac23e91e5796c157a6decfda36380d1000000006b483045022100890a9910799406a55134199553576bc5ad4b735693f4a71469a041822e6bb096022026b337c900c459b6bb053d16150f4ef27b7d2e46da56374b37f995a6ad85441a012102a577ff5230fe7fd93331407dbdefba28d7141b9983d20644c79c5fc1f3a6591ffefffffff193eaf9a716b22162b6c113c2fd56f8226cd67ffeb8c093196ffb483929aa68010000006b483045022100c52c7ab2d5eefdae5804e7acc941c9ebc1506809810bced834dc4a5062d5824d0220405079464885fe255bf3253941772fb5e1fcfcfb41578e5677298729d9340b6e0121030122bf10affdf3341cfc3d400f9b84740c479bdf3d818f6ab1625331394196ecfeffffff02d3440f00000000001976a9149a279fb099eee82c1d742bff2be849e73ec9351a88ac3d5c0b000000000017a914e55b1fa02ca61713852f0c560ca2374ae2daee568715490800", "vin": [{"sequence": 4294967294, "scriptSig": {"hex": "47304402202e0b883dceacb9050ae8d60c1b2c8b6bba6f1d14170b0ff3c700d01f7156ccb102202b40a5818d06abc27d7aae7bfaa19a5737501d6c91a1421c37496457c30a080c01210250abda54d23398faa2e2ffef68996eb7e3ebf288f762e54ec4971e1a7fab8343", "asm": "304402202e0b883dceacb9050ae8d60c1b2c8b6bba6f1d14170b0ff3c700d01f7156ccb102202b40a5818d06abc27d7aae7bfaa19a5737501d6c91a1421c37496457c30a080c[ALL] 0250abda54d23398faa2e2ffef68996eb7e3ebf288f762e54ec4971e1a7fab8343"}, "vout": 0, "txid": "0413f968ee0f34c638e81bf181ea8c05a9a7214968fd364bdeaab003e8104943"}, {"sequence": 4294967294, "scriptSig": {"hex": "483045022100890a9910799406a55134199553576bc5ad4b735693f4a71469a041822e6bb096022026b337c900c459b6bb053d16150f4ef27b7d2e46da56374b37f995a6ad85441a012102a577ff5230fe7fd93331407dbdefba28d7141b9983d20644c79c5fc1f3a6591f", "asm": "3045022100890a9910799406a55134199553576bc5ad4b735693f4a71469a041822e6bb096022026b337c900c459b6bb053d16150f4ef27b7d2e46da56374b37f995a6ad85441a[ALL] 02a577ff5230fe7fd93331407dbdefba28d7141b9983d20644c79c5fc1f3a6591f"}, "vout": 0, "txid": "d18063a3fdec6d7a156c79e5913ec2da953763a4593e89c477a7d4fd22a2294c"}, {"sequence": 4294967294, "scriptSig": {"hex": "483045022100c52c7ab2d5eefdae5804e7acc941c9ebc1506809810bced834dc4a5062d5824d0220405079464885fe255bf3253941772fb5e1fcfcfb41578e5677298729d9340b6e0121030122bf10affdf3341cfc3d400f9b84740c479bdf3d818f6ab1625331394196ec", "asm": "3045022100c52c7ab2d5eefdae5804e7acc941c9ebc1506809810bced834dc4a5062d5824d0220405079464885fe255bf3253941772fb5e1fcfcfb41578e5677298729d9340b6e[ALL] 030122bf10affdf3341cfc3d400f9b84740c479bdf3d818f6ab1625331394196ec"}, "vout": 1, "txid": "68aa293948fb6f1993c0b8fe7fd66c22f856fdc213c1b66221b216a7f9ea93f1"}], "txid": "326e9bb9eff8af19dbbfe7f746b1673dd428f573742aa0bce43a0456e6536fa3", "blocktime": 1537874412, "version": 2, "confirmations": 11467, "time": 1537874412, "locktime": 542997, "vsize": 519, "size": 519}