{"hash": "3f9393d8efdb9ea5e4aec65d9cb06025ce13022de12266d31a8cb0d7ea5691b6", "blockhash": "0000000000000000000e13cef7c366c0283d82e591d1acd082e914b08063cdf1", "vout": [{"scriptPubKey": {"reqSigs": 1, "hex": "a914b0eec519cbed729254201e5b3dc8de03052ea1a087", "addresses": ["3HpYtLABDgdXjcp6k6vdCiJomxX6S3cSaC"], "asm": "OP_HASH160 b0eec519cbed729254201e5b3dc8de03052ea1a0 OP_EQUAL", "type": "scripthash"}, "value": 0.00221914, "n": 0}, {"scriptPubKey": {"reqSigs": 1, "hex": "a9140be7846be16b05bea00dbec2fcd7e045a793cb1787", "addresses": ["32mxhko5mJHfkbkDPpz7SfdJwEJi21P1WK"], "asm": "OP_HASH160 0be7846be16b05bea00dbec2fcd7e045a793cb17 OP_EQUAL", "type": "scripthash"}, "value": 0.19337223, "n": 1}], "hex": "01000000000101a0f5d3ab1a203efbd4804d51d40c56e04694a142434cd0b185f25f4a9a324f2901000000232200202c66ece6da72bcbfeadf83a91236f4891c13e14d8ecebdcaa81666fc1aa73a31ffffffff02da6203000000000017a914b0eec519cbed729254201e5b3dc8de03052ea1a087071027010000000017a9140be7846be16b05bea00dbec2fcd7e045a793cb17870400473044022010335ece84a8c148c46235b5bf28f2fd5057decf9da51e2215aa92d418bc507902206372c26b70ae414ccc081526b7bdfade7ba752630f118d15862f87f2b57d93290148304502210080cecb8602e25f953784901acc8fafd6ed9222a3e2887998c4ad76189e69881102206bf3df39a4b64bcb3a5fa7f0d6f73c1f584008ca6a6b8f54e0256dfb704d4d1d01475221029e6fbb942d34a473faaa5557c1bfe08d72102f0b9754ad140fd369d7a3ba3cdc2103871fc2ca08e6950b38867e8e6a0e94ee625223d3aa0df5c65f414c6d784467e252ae00000000", "vin": [{"txinwitness": ["", "3044022010335ece84a8c148c46235b5bf28f2fd5057decf9da51e2215aa92d418bc507902206372c26b70ae414ccc081526b7bdfade7ba752630f118d15862f87f2b57d932901", "304502210080cecb8602e25f953784901acc8fafd6ed9222a3e2887998c4ad76189e69881102206bf3df39a4b64bcb3a5fa7f0d6f73c1f584008ca6a6b8f54e0256dfb704d4d1d01", "5221029e6fbb942d34a473faaa5557c1bfe08d72102f0b9754ad140fd369d7a3ba3cdc2103871fc2ca08e6950b38867e8e6a0e94ee625223d3aa0df5c65f414c6d784467e252ae"], "sequence": 4294967295, "scriptSig": {"hex": "2200202c66ece6da72bcbfeadf83a91236f4891c13e14d8ecebdcaa81666fc1aa73a31", "asm": "00202c66ece6da72bcbfeadf83a91236f4891c13e14d8ecebdcaa81666fc1aa73a31"}, "vout": 1, "txid": "294f329a4a5ff285b1d04c4342a19446e0560cd4514d80d4fb3e201aabd3f5a0"}], "txid": "326fa4705ed16ef75894abb87d70262edc910136c5f6116d0f3ff922bd916c43", "blocktime": 1537871767, "version": 1, "confirmations": 11495, "time": 1537871767, "locktime": 0, "vsize": 206, "size": 371}