{"hash": "f93caaa7a91dfa2f9caab53120fd4cfdea1d3e37f870b485a33e6a625505d1fb", "blockhash": "0000000000000000000baef3f32e3676a92c3b2e5da21b426e4f302fc371ce76", "vout": [{"scriptPubKey": {"reqSigs": 1, "hex": "a91419da535d44ebfc8a7ee6c11127c3e984b9c4e73e87", "addresses": ["343iMsUUwt61cAMurb3SizQJTv4KSqhKrH"], "asm": "OP_HASH160 19da535d44ebfc8a7ee6c11127c3e984b9c4e73e OP_EQUAL", "type": "scripthash"}, "value": 8.749e-05, "n": 0}], "hex": "01000000000101d4124292608e96b775e4a3ff8fd264684e92511c70f00093baf851d065ccaf9801000000232200205ae7bec30bd5e4677ddbbec872193c83aa30545c2b97d6958ef03992bddca445ffffffff012d2200000000000017a91419da535d44ebfc8a7ee6c11127c3e984b9c4e73e87040048304502210084511c80a34f3aac3903ba267db4a0a8ccb5652b08192dd53e3e00168feaf24c022019248203555d8ba3efdf5b1e2ccf8c004b071752a689507d1f2b475a298a23e501473044022060a4307e11b7f098901f19544edc9de3d384764bc1ac703c7462ec0f6de623e802205229a6890192eb6fbc5d5cd48dc4fdd3a927ee31dd226d76449b03544b6ae71f0147522103983e018c95688ffac24c81d840a9d38d2242ce401dbf55d7a0f8e29cc2d5c4a3210297d3a0c3e63b20b9e6f3ace4d89e21364009021bc5359dc849fc63b9f48feba552ae00000000", "vin": [{"txinwitness": ["", "304502210084511c80a34f3aac3903ba267db4a0a8ccb5652b08192dd53e3e00168feaf24c022019248203555d8ba3efdf5b1e2ccf8c004b071752a689507d1f2b475a298a23e501", "3044022060a4307e11b7f098901f19544edc9de3d384764bc1ac703c7462ec0f6de623e802205229a6890192eb6fbc5d5cd48dc4fdd3a927ee31dd226d76449b03544b6ae71f01", "522103983e018c95688ffac24c81d840a9d38d2242ce401dbf55d7a0f8e29cc2d5c4a3210297d3a0c3e63b20b9e6f3ace4d89e21364009021bc5359dc849fc63b9f48feba552ae"], "sequence": 4294967295, "scriptSig": {"hex": "2200205ae7bec30bd5e4677ddbbec872193c83aa30545c2b97d6958ef03992bddca445", "asm": "00205ae7bec30bd5e4677ddbbec872193c83aa30545c2b97d6958ef03992bddca445"}, "vout": 1, "txid": "98afcc65d051f8ba9300f0701c51924e6864d28fffa3e475b7968e60924212d4"}], "txid": "3270c1be42461b7623504fec2e5eb8c816284168c4a1ed5d89027a924a661968", "blocktime": 1537876114, "version": 1, "confirmations": 11460, "time": 1537876114, "locktime": 0, "vsize": 174, "size": 339}