{"hash": "327191552e7214833862f1bc4ea023917a61320ec238a4e11f9592cf45f80a24", "blockhash": "00000000000000000024a2167bbff67b0be802c0b01cdd79e6331c2be6459f87", "vout": [{"scriptPubKey": {"type": "nulldata", "hex": "6a4c500000777b0001964f2c680e7d576e9683a0f5bcbefa6b8351586b4e86aeaeacb577c031fcdc9390c47f37d723e84212e59a02b5255baa09ec0614bb3b86f21dffbc9a9526289ac0f6612cd74e33776ee4", "asm": "OP_RETURN 0000777b0001964f2c680e7d576e9683a0f5bcbefa6b8351586b4e86aeaeacb577c031fcdc9390c47f37d723e84212e59a02b5255baa09ec0614bb3b86f21dffbc9a9526289ac0f6612cd74e33776ee4"}, "value": 0.0, "n": 0}, {"scriptPubKey": {"reqSigs": 1, "hex": "76a9144c18fc508ae34bbba34d096b73c3ebea5bb3cd6a88ac", "addresses": ["17wNHcLivXixfL42kcmPoTWTJ9TmAEs1fj"], "asm": "OP_DUP OP_HASH160 4c18fc508ae34bbba34d096b73c3ebea5bb3cd6a OP_EQUALVERIFY OP_CHECKSIG", "type": "pubkeyhash"}, "value": 0.01419124, "n": 1}], "hex": "0100000001b6e630d4c6c72624653461a11f62fc96742eb54ea03f05035788b01ff48d3685000000006a473044022048306a47bca3b73869271c39bd7c0289f0fd77df5f99db7217b05efc1116b80a022068de5187aea25816bf8eeac8139bede70a7942765db395760d82b9d0e77fd5bf012103b3924d4a3e7e841f80b6284ddbc1500e0c8a8122b013b0a8c8a1ca707389670affffffff020000000000000000536a4c500000777b0001964f2c680e7d576e9683a0f5bcbefa6b8351586b4e86aeaeacb577c031fcdc9390c47f37d723e84212e59a02b5255baa09ec0614bb3b86f21dffbc9a9526289ac0f6612cd74e33776ee474a71500000000001976a9144c18fc508ae34bbba34d096b73c3ebea5bb3cd6a88ac00000000", "vin": [{"sequence": 4294967295, "scriptSig": {"hex": "473044022048306a47bca3b73869271c39bd7c0289f0fd77df5f99db7217b05efc1116b80a022068de5187aea25816bf8eeac8139bede70a7942765db395760d82b9d0e77fd5bf012103b3924d4a3e7e841f80b6284ddbc1500e0c8a8122b013b0a8c8a1ca707389670a", "asm": "3044022048306a47bca3b73869271c39bd7c0289f0fd77df5f99db7217b05efc1116b80a022068de5187aea25816bf8eeac8139bede70a7942765db395760d82b9d0e77fd5bf[ALL] 03b3924d4a3e7e841f80b6284ddbc1500e0c8a8122b013b0a8c8a1ca707389670a"}, "vout": 0, "txid": "85368df41fb0885703053fa04eb52e7496fc621fa16134652426c7c6d430e6b6"}], "txid": "327191552e7214833862f1bc4ea023917a61320ec238a4e11f9592cf45f80a24", "blocktime": 1537870564, "version": 1, "confirmations": 11515, "time": 1537870564, "locktime": 0, "vsize": 283, "size": 283}