{"hash": "3279cbe682abc4317e71298ee14503456bd8de9e295641edf99aa2db4409866d", "blockhash": "0000000000000000001e0dab787dd257d1dbfcb92a98c2207d5e1078be1f4165", "vout": [{"scriptPubKey": {"reqSigs": 1, "hex": "a91418ea6bf049673f563ac3212cba7e0eae3d9fa24e87", "addresses": ["33xky3mE4j6wF6iE4pAC1YcihabCT2cEnC"], "asm": "OP_HASH160 18ea6bf049673f563ac3212cba7e0eae3d9fa24e OP_EQUAL", "type": "scripthash"}, "value": 0.00203, "n": 0}, {"scriptPubKey": {"reqSigs": 1, "hex": "76a91484b25c4568b6a5337e1fc3960ec3f6c542a74cc488ac", "addresses": ["1D6ds2GTJGkfkVXMrose6XdWhdVgG23eYa"], "asm": "OP_DUP OP_HASH160 84b25c4568b6a5337e1fc3960ec3f6c542a74cc4 OP_EQUALVERIFY OP_CHECKSIG", "type": "pubkeyhash"}, "value": 0.03731194, "n": 1}], "hex": "01000000011ad6702c4040b120ee4588e05763df7b70e4997301f7859cc9cae4d29aa5fe19010000006a47304402200774a9ff1bde28f7781895c9c143d26a8d09a99186bfd7409b1af1848737f67b0220625826d030663382be891fd756de87f59fc76ba9670b0e4211cb29e34ec4386e0121026a019d3d6b63aeef7e0e710ebe0d47eaa1ebce7ae4dc17bf3955ce73c4a461beffffffff02f81803000000000017a91418ea6bf049673f563ac3212cba7e0eae3d9fa24e87faee3800000000001976a91484b25c4568b6a5337e1fc3960ec3f6c542a74cc488ac00000000", "vin": [{"sequence": 4294967295, "scriptSig": {"hex": "47304402200774a9ff1bde28f7781895c9c143d26a8d09a99186bfd7409b1af1848737f67b0220625826d030663382be891fd756de87f59fc76ba9670b0e4211cb29e34ec4386e0121026a019d3d6b63aeef7e0e710ebe0d47eaa1ebce7ae4dc17bf3955ce73c4a461be", "asm": "304402200774a9ff1bde28f7781895c9c143d26a8d09a99186bfd7409b1af1848737f67b0220625826d030663382be891fd756de87f59fc76ba9670b0e4211cb29e34ec4386e[ALL] 026a019d3d6b63aeef7e0e710ebe0d47eaa1ebce7ae4dc17bf3955ce73c4a461be"}, "vout": 1, "txid": "19fea59ad2e4cac99c85f7017399e4707bdf6357e08845ee20b140402c70d61a"}], "txid": "3279cbe682abc4317e71298ee14503456bd8de9e295641edf99aa2db4409866d", "blocktime": 1537872475, "version": 1, "confirmations": 11486, "time": 1537872475, "locktime": 0, "vsize": 223, "size": 223}