{"hash": "0ead1a0fd4bc9879eb40d4ab3f6aa9f1799d4daf10f561a5f88f13c19bec3eae", "blockhash": "0000000000000000001cda96e906b7601b7a6fb1a3b62bca570a9e5d8f4b3de1", "vout": [{"scriptPubKey": {"reqSigs": 1, "hex": "a91496a060118e74bd8034fb40cfee58066ae1ae0b1a87", "addresses": ["3FRTQPR4ouUVRhLLay93qzGJYBoHcevZw6"], "asm": "OP_HASH160 96a060118e74bd8034fb40cfee58066ae1ae0b1a OP_EQUAL", "type": "scripthash"}, "value": 0.0141004, "n": 0}, {"scriptPubKey": {"reqSigs": 1, "hex": "a914da1928d5518e7a798eb1e2e640f4f4b61129611587", "addresses": ["3MaDNUYyMyA4eYCLPtbTZMztfycZYeTU2d"], "asm": "OP_HASH160 da1928d5518e7a798eb1e2e640f4f4b611296115 OP_EQUAL", "type": "scripthash"}, "value": 0.0590806, "n": 1}], "hex": "0200000000010220019cee9846afc6946e255992b89b23f5c3bf665f2878d6a86f5f33b70a387c000000001716001454aace45ca66d6f00e02c4a583d5bd66864787a2feffffff3d461cec618564298e66c6ffdbeddd3619abde857bef8aff2bb6f330a7214238000000001716001475c8728321079f54a1bd6ff5b82137d0a53b2df1feffffff02f88315000000000017a91496a060118e74bd8034fb40cfee58066ae1ae0b1a875c265a000000000017a914da1928d5518e7a798eb1e2e640f4f4b6112961158702483045022100c16a6c63756428b9f013f8268680b041838f9ce1684c5298f7ccf369b242eb5802203d14024c0bf713e51821ed224786826d4de28ef3fc77ab9de9762f1c39b735af012103f6faf39589f95204c024694cf6bc90c919a6362b19ee45879c4e826dd2f3306e02473044022024cf8316f6aa6cbc044ea4ee46e8bcb1575910d85b0d40911f0f053d625c5a0802202b98ece7c0f118d5584f56fa5e44a183b005132b284802d1de0eacaa95628bdd012102bcaf4ce7da7189c277d4918129f684dd87d5b362382a5cca70bf904d113a258413490800", "vin": [{"txinwitness": ["3045022100c16a6c63756428b9f013f8268680b041838f9ce1684c5298f7ccf369b242eb5802203d14024c0bf713e51821ed224786826d4de28ef3fc77ab9de9762f1c39b735af01", "03f6faf39589f95204c024694cf6bc90c919a6362b19ee45879c4e826dd2f3306e"], "sequence": 4294967294, "scriptSig": {"hex": "16001454aace45ca66d6f00e02c4a583d5bd66864787a2", "asm": "001454aace45ca66d6f00e02c4a583d5bd66864787a2"}, "vout": 0, "txid": "7c380ab7335f6fa8d678285f66bfc3f5239bb89259256e94c6af4698ee9c0120"}, {"txinwitness": ["3044022024cf8316f6aa6cbc044ea4ee46e8bcb1575910d85b0d40911f0f053d625c5a0802202b98ece7c0f118d5584f56fa5e44a183b005132b284802d1de0eacaa95628bdd01", "02bcaf4ce7da7189c277d4918129f684dd87d5b362382a5cca70bf904d113a2584"], "sequence": 4294967294, "scriptSig": {"hex": "16001475c8728321079f54a1bd6ff5b82137d0a53b2df1", "asm": "001475c8728321079f54a1bd6ff5b82137d0a53b2df1"}, "vout": 0, "txid": "384221a730f3b62bff8aef7b85deab1936ddeddbffc6668e29648561ec1c463d"}], "txid": "3280821804dc1d4335e5aa9c666a28b6eb7f92edfacf7abaf45fc38b49109935", "blocktime": 1537873282, "version": 2, "confirmations": 11480, "time": 1537873282, "locktime": 542995, "vsize": 257, "size": 419}