{"hash": "3280a2d2ea5f9c9b2360a73296de4c98364ee5251d1cf771e154d362b512aea2", "blockhash": "0000000000000000001f76057863aec43deb6fa401d9628bb513d65a8098bfab", "vout": [{"scriptPubKey": {"reqSigs": 1, "hex": "76a91416fb52c7495e33954fc1388083b66d5e1744ebf188ac", "addresses": ["136WwUSA5Kfy9JcfnKwNcBV6fF2xWyBYpN"], "asm": "OP_DUP OP_HASH160 16fb52c7495e33954fc1388083b66d5e1744ebf1 OP_EQUALVERIFY OP_CHECKSIG", "type": "pubkeyhash"}, "value": 3.472e-05, "n": 0}, {"scriptPubKey": {"reqSigs": 1, "hex": "76a914de06a0635da0d1aa091f1a882033ce8c7c5bbda988ac", "addresses": ["1MExx1H3myUpW6wYfWZexke5oTsrzyPogh"], "asm": "OP_DUP OP_HASH160 de06a0635da0d1aa091f1a882033ce8c7c5bbda9 OP_EQUALVERIFY OP_CHECKSIG", "type": "pubkeyhash"}, "value": 0.003, "n": 1}], "hex": "01000000020650ba9dc0fd4f488119954c94ea0f5bae7b0babbdaf93f0a04cb1c89dd3aa95000000006b483045022100bce84e336db520b82b15fca71074cf36668c58197f6ba4584796e4af5aa9140602204141d31b48ffde813045a2e9a5b8712a3f1d061e0b340f3c4ede84839aecd6ca012103c6d3803298905a9d5165f7f87e11c2518fa94bd6ca05564d8ec197fa7d40dac6ffffffff513a9dae156f2ed879e85052bd977192fa79e00f7b8c4ed6cb5e9527b6f8c0ad000000006a473044022006800d411e391df3e1be39956615929063c7cfd6f9ab8e0d22e42705251c2a23022035e883887765c5553ac0307e358fbdfdc625c7385b2a17ffbfc8e187cdfc7e920121039d124fa4b2f1a18d20140adcc9f9587a5b3b72da8462f9c2a153479f09c47217ffffffff02900d0000000000001976a91416fb52c7495e33954fc1388083b66d5e1744ebf188ace0930400000000001976a914de06a0635da0d1aa091f1a882033ce8c7c5bbda988ac00000000", "vin": [{"sequence": 4294967295, "scriptSig": {"hex": "483045022100bce84e336db520b82b15fca71074cf36668c58197f6ba4584796e4af5aa9140602204141d31b48ffde813045a2e9a5b8712a3f1d061e0b340f3c4ede84839aecd6ca012103c6d3803298905a9d5165f7f87e11c2518fa94bd6ca05564d8ec197fa7d40dac6", "asm": "3045022100bce84e336db520b82b15fca71074cf36668c58197f6ba4584796e4af5aa9140602204141d31b48ffde813045a2e9a5b8712a3f1d061e0b340f3c4ede84839aecd6ca[ALL] 03c6d3803298905a9d5165f7f87e11c2518fa94bd6ca05564d8ec197fa7d40dac6"}, "vout": 0, "txid": "95aad39dc8b14ca0f093afbdab0b7bae5b0fea944c951981484ffdc09dba5006"}, {"sequence": 4294967295, "scriptSig": {"hex": "473044022006800d411e391df3e1be39956615929063c7cfd6f9ab8e0d22e42705251c2a23022035e883887765c5553ac0307e358fbdfdc625c7385b2a17ffbfc8e187cdfc7e920121039d124fa4b2f1a18d20140adcc9f9587a5b3b72da8462f9c2a153479f09c47217", "asm": "3044022006800d411e391df3e1be39956615929063c7cfd6f9ab8e0d22e42705251c2a23022035e883887765c5553ac0307e358fbdfdc625c7385b2a17ffbfc8e187cdfc7e92[ALL] 039d124fa4b2f1a18d20140adcc9f9587a5b3b72da8462f9c2a153479f09c47217"}, "vout": 0, "txid": "adc0f8b627955ecbd64e8c7b0fe079fa927197bd5250e879d82e6f15ae9d3a51"}], "txid": "3280a2d2ea5f9c9b2360a73296de4c98364ee5251d1cf771e154d362b512aea2", "blocktime": 1537873891, "version": 1, "confirmations": 11478, "time": 1537873891, "locktime": 0, "vsize": 373, "size": 373}