{"hash": "328a1679d4771d8dc3c5510de2a920332b64ebd22ce068d1af3ccb6096240b15", "blockhash": "00000000000000000024a2167bbff67b0be802c0b01cdd79e6331c2be6459f87", "vout": [{"scriptPubKey": {"reqSigs": 1, "hex": "76a9144f9b7e6256eb5ce23ac7ae540c49b6aea814fde288ac", "addresses": ["18Fvf3duUVsnxkd9UHMrKQV5gfEv8gCwvG"], "asm": "OP_DUP OP_HASH160 4f9b7e6256eb5ce23ac7ae540c49b6aea814fde2 OP_EQUALVERIFY OP_CHECKSIG", "type": "pubkeyhash"}, "value": 0.0077975, "n": 0}, {"scriptPubKey": {"reqSigs": 1, "hex": "76a914c4b60affc66aa559527a32270b63e450a0c2b16688ac", "addresses": ["1Jw7XAcYEr7y51zEzE86eejLUMbfb3NHUK"], "asm": "OP_DUP OP_HASH160 c4b60affc66aa559527a32270b63e450a0c2b166 OP_EQUALVERIFY OP_CHECKSIG", "type": "pubkeyhash"}, "value": 0.10878794, "n": 1}], "hex": "0100000001b501006d5d6a061e84aad4ddada01733da5ae1081d5153298cb737d150f7b87f010000008b483045022100898c7d4a26f0e2b13f0c64f7fe9c1bf3d0a9c6935079483cd010aeef478177b002206c6bf29267c5201a4808a107d4cdc0763cefdf6d736a74de873ad0e0c115ab6c0141040c6fb303b7e63b97646a5e33a6ecdfab83e87cb9dce065d09ae0b9dd5dcc6bc188cd390a3dfc6ab952f25b12460cb3fc0fb3432288e5f6a5438cf707bbaf478dffffffff02e6e50b00000000001976a9144f9b7e6256eb5ce23ac7ae540c49b6aea814fde288ac4affa500000000001976a914c4b60affc66aa559527a32270b63e450a0c2b16688ac00000000", "vin": [{"sequence": 4294967295, "scriptSig": {"hex": "483045022100898c7d4a26f0e2b13f0c64f7fe9c1bf3d0a9c6935079483cd010aeef478177b002206c6bf29267c5201a4808a107d4cdc0763cefdf6d736a74de873ad0e0c115ab6c0141040c6fb303b7e63b97646a5e33a6ecdfab83e87cb9dce065d09ae0b9dd5dcc6bc188cd390a3dfc6ab952f25b12460cb3fc0fb3432288e5f6a5438cf707bbaf478d", "asm": "3045022100898c7d4a26f0e2b13f0c64f7fe9c1bf3d0a9c6935079483cd010aeef478177b002206c6bf29267c5201a4808a107d4cdc0763cefdf6d736a74de873ad0e0c115ab6c[ALL] 040c6fb303b7e63b97646a5e33a6ecdfab83e87cb9dce065d09ae0b9dd5dcc6bc188cd390a3dfc6ab952f25b12460cb3fc0fb3432288e5f6a5438cf707bbaf478d"}, "vout": 1, "txid": "7fb8f750d137b78c2953511d08e15ada3317a0adddd4aa841e066a5d6d0001b5"}], "txid": "328a1679d4771d8dc3c5510de2a920332b64ebd22ce068d1af3ccb6096240b15", "blocktime": 1537870564, "version": 1, "confirmations": 11515, "time": 1537870564, "locktime": 0, "vsize": 258, "size": 258}