{"hash": "328aa3066eac0d70b674923de831e55cc73468f2a423d03e367da3f0f97ec514", "blockhash": "0000000000000000001e0dab787dd257d1dbfcb92a98c2207d5e1078be1f4165", "vout": [{"scriptPubKey": {"type": "nulldata", "hex": "6a146f6d6e69000000000000001f00002460fe2fb600", "asm": "OP_RETURN 6f6d6e69000000000000001f00002460fe2fb600"}, "value": 0.0, "n": 0}, {"scriptPubKey": {"reqSigs": 1, "hex": "76a914a25dec4d0011064ef106a983c39c7a540699f22088ac", "addresses": ["1FoWyxwPXuj4C6abqwhjDWdz6D4PZgYRjA"], "asm": "OP_DUP OP_HASH160 a25dec4d0011064ef106a983c39c7a540699f220 OP_EQUALVERIFY OP_CHECKSIG", "type": "pubkeyhash"}, "value": 5.46e-06, "n": 1}, {"scriptPubKey": {"reqSigs": 1, "hex": "76a914064db2d84d395a6d4ec7bf5dbd2fef87a483184488ac", "addresses": ["1aL8kE3hGqe2wZSeWYggU3cGdoNGghQUN"], "asm": "OP_DUP OP_HASH160 064db2d84d395a6d4ec7bf5dbd2fef87a4831844 OP_EQUALVERIFY OP_CHECKSIG", "type": "pubkeyhash"}, "value": 0.0037537, "n": 2}], "hex": "010000000b5e61690445535afc96f54c703056bcb6c89457ab033079a637c1398113689d90010000006a473044022072f8363666a3daa79d5abda32ed2b477b42ea4687dbd744f3faf2071dd0856d30220137bcd51351e8e11f9f12afb7608622fb975732ce2fd16345d00f69705c25b8001210354e1a98c011fa6952622bc60c1a4de453916c45335182ae626a28c53273f940ffeffffff64edbe11ba67f1db2303109c3b5a7932135ff1971ffd0d4df17e00cc6fcc2122000000006b483045022100868b781ae1797bf786adbc35f2fb5823cd19c391e0db7a3665e5c881b7a8aa31022014d4b3968d80ae3226de44aa2532a2d9c4fd39aab24f3b9cd19383ba6f2690b401210354e1a98c011fa6952622bc60c1a4de453916c45335182ae626a28c53273f940ffeffffff656620ebcb8100ed650c4b8ad48fea5e63a0b138671e129666d07aaecc9c7b13010000006b4830450221008905e5175b8aec5c0d62a3686df78bf69da94538be9883052a44b1555b51069f022076e78ed70bb88fc5c90de1ff0d5806acbce572ed2cef801f5bb36fe57386cc2801210354e1a98c011fa6952622bc60c1a4de453916c45335182ae626a28c53273f940ffeffffff664150eedb6ea37bb49fa39807fbbe064d56defff2e86ed2ad2f5fbbe8736029010000006a47304402206fdcdb36ed974960599ba1764b8532d7b7b69d3f668914bce441f66735518c92022042f86c05ad4867a7709098bebc08582112de20c0bc236846b7ea8529bf58169301210354e1a98c011fa6952622bc60c1a4de453916c45335182ae626a28c53273f940ffeffffff67046889711c405136f3bb956019f3b3e69279b544c35724eab4ecb02a139c31010000006b483045022100a1d29825644c1f160041d2af28251125ae3d2d69c67215507e36e45d67acba5102202de15b13270a20a3975dc626752d703654a29e499ec6b85e88129675e9aaac7601210354e1a98c011fa6952622bc60c1a4de453916c45335182ae626a28c53273f940ffeffffff76062fcdbd43119b9b81365415653e307df4ece31b96618fb885c2a271581eec010000006b483045022100bda2903593e63c25409d905a0d4830292709a904b73e9cd73c855b9ca718aee5022029d777bab10a4a51ecdccb11466de897e54d9f87aff794f1e73a28356493e0a001210354e1a98c011fa6952622bc60c1a4de453916c45335182ae626a28c53273f940ffeffffff7cc3bdc3111728451f38c7cbaa7aba20ebfcfad2efcf95fdc873ac12ac7994f6010000006a4730440220628f5adfde2b632a6a87ab5f68ef77620f379164974839e6f84a9bacd73e61c902203f96ebc7662ecf607e88ca9059662b3594c6bd440af4e72014e4f019b22e28b801210354e1a98c011fa6952622bc60c1a4de453916c45335182ae626a28c53273f940ffeffffff9930059c28e94a444aa6972ae6fc408b8b0f2ee7761e6dd2f3fea1ef4e36b7fe010000006a473044022053fba07175b1a6c9534086262eae37e1ca0c99a571b73ca944e5322cdaea33a702205452a309cfa3b3b35356a997a80ba6513ef18f4a5fb9692e0e373903976a68b301210354e1a98c011fa6952622bc60c1a4de453916c45335182ae626a28c53273f940ffeffffffad399bcff38aeef8a68e09df4f061976671ef256d4ba5999db634fe1d33f7ce6000000006a47304402201cdc23339b204652fd1603840865858fb54097808f02e722468a1f6af4b91d6c02204513695dba3d2a576270a0d3927e843ae0bfcf7be18c0e7d08474e5a6ef4962901210354e1a98c011fa6952622bc60c1a4de453916c45335182ae626a28c53273f940ffeffffff7c4e56838eb13636474bd01f093c6a94b6e145c20c677563f8cc5bbab7886789000000006b483045022100a4eb56e79ab7b8d454789b284f56b417569deda8db0d62b77af570bfa9230a5f022028056847676d3b08106e2f9163d551bda280e753066972d2cf45229aca04ba4001210354e1a98c011fa6952622bc60c1a4de453916c45335182ae626a28c53273f940ffeffffffb9efd1db2444d00cfd0cc0cd37d6eab55b04488d0cdb5eb379fb6a6efb24c861000000006b483045022100a11351517526c9199cc1cb649469921742f9957917eb00fedaf9da4c9487cf2a02201da3e44fd1acb7b70b313fac9542dfc030d3121f0c6dc166a4f5f9479a20604a01210354e1a98c011fa6952622bc60c1a4de453916c45335182ae626a28c53273f940ffeffffff030000000000000000166a146f6d6e69000000000000001f00002460fe2fb60022020000000000001976a914a25dec4d0011064ef106a983c39c7a540699f22088ac4aba0500000000001976a914064db2d84d395a6d4ec7bf5dbd2fef87a483184488ac12490800", "vin": [{"sequence": 4294967294, "scriptSig": {"hex": "473044022072f8363666a3daa79d5abda32ed2b477b42ea4687dbd744f3faf2071dd0856d30220137bcd51351e8e11f9f12afb7608622fb975732ce2fd16345d00f69705c25b8001210354e1a98c011fa6952622bc60c1a4de453916c45335182ae626a28c53273f940f", "asm": "3044022072f8363666a3daa79d5abda32ed2b477b42ea4687dbd744f3faf2071dd0856d30220137bcd51351e8e11f9f12afb7608622fb975732ce2fd16345d00f69705c25b80[ALL] 0354e1a98c011fa6952622bc60c1a4de453916c45335182ae626a28c53273f940f"}, "vout": 1, "txid": "909d68138139c137a6793003ab5794c8b6bc5630704cf596fc5a53450469615e"}, {"sequence": 4294967294, "scriptSig": {"hex": "483045022100868b781ae1797bf786adbc35f2fb5823cd19c391e0db7a3665e5c881b7a8aa31022014d4b3968d80ae3226de44aa2532a2d9c4fd39aab24f3b9cd19383ba6f2690b401210354e1a98c011fa6952622bc60c1a4de453916c45335182ae626a28c53273f940f", "asm": "3045022100868b781ae1797bf786adbc35f2fb5823cd19c391e0db7a3665e5c881b7a8aa31022014d4b3968d80ae3226de44aa2532a2d9c4fd39aab24f3b9cd19383ba6f2690b4[ALL] 0354e1a98c011fa6952622bc60c1a4de453916c45335182ae626a28c53273f940f"}, "vout": 0, "txid": "2221cc6fcc007ef14d0dfd1f97f15f1332795a3b9c100323dbf167ba11beed64"}, {"sequence": 4294967294, "scriptSig": {"hex": "4830450221008905e5175b8aec5c0d62a3686df78bf69da94538be9883052a44b1555b51069f022076e78ed70bb88fc5c90de1ff0d5806acbce572ed2cef801f5bb36fe57386cc2801210354e1a98c011fa6952622bc60c1a4de453916c45335182ae626a28c53273f940f", "asm": "30450221008905e5175b8aec5c0d62a3686df78bf69da94538be9883052a44b1555b51069f022076e78ed70bb88fc5c90de1ff0d5806acbce572ed2cef801f5bb36fe57386cc28[ALL] 0354e1a98c011fa6952622bc60c1a4de453916c45335182ae626a28c53273f940f"}, "vout": 1, "txid": "137b9cccae7ad06696121e6738b1a0635eea8fd48a4b0c65ed0081cbeb206665"}, {"sequence": 4294967294, "scriptSig": {"hex": "47304402206fdcdb36ed974960599ba1764b8532d7b7b69d3f668914bce441f66735518c92022042f86c05ad4867a7709098bebc08582112de20c0bc236846b7ea8529bf58169301210354e1a98c011fa6952622bc60c1a4de453916c45335182ae626a28c53273f940f", "asm": "304402206fdcdb36ed974960599ba1764b8532d7b7b69d3f668914bce441f66735518c92022042f86c05ad4867a7709098bebc08582112de20c0bc236846b7ea8529bf581693[ALL] 0354e1a98c011fa6952622bc60c1a4de453916c45335182ae626a28c53273f940f"}, "vout": 1, "txid": "296073e8bb5f2fadd26ee8f2ffde564d06befb0798a39fb47ba36edbee504166"}, {"sequence": 4294967294, "scriptSig": {"hex": "483045022100a1d29825644c1f160041d2af28251125ae3d2d69c67215507e36e45d67acba5102202de15b13270a20a3975dc626752d703654a29e499ec6b85e88129675e9aaac7601210354e1a98c011fa6952622bc60c1a4de453916c45335182ae626a28c53273f940f", "asm": "3045022100a1d29825644c1f160041d2af28251125ae3d2d69c67215507e36e45d67acba5102202de15b13270a20a3975dc626752d703654a29e499ec6b85e88129675e9aaac76[ALL] 0354e1a98c011fa6952622bc60c1a4de453916c45335182ae626a28c53273f940f"}, "vout": 1, "txid": "319c132ab0ecb4ea2457c344b57992e6b3f3196095bbf33651401c7189680467"}, {"sequence": 4294967294, "scriptSig": {"hex": "483045022100bda2903593e63c25409d905a0d4830292709a904b73e9cd73c855b9ca718aee5022029d777bab10a4a51ecdccb11466de897e54d9f87aff794f1e73a28356493e0a001210354e1a98c011fa6952622bc60c1a4de453916c45335182ae626a28c53273f940f", "asm": "3045022100bda2903593e63c25409d905a0d4830292709a904b73e9cd73c855b9ca718aee5022029d777bab10a4a51ecdccb11466de897e54d9f87aff794f1e73a28356493e0a0[ALL] 0354e1a98c011fa6952622bc60c1a4de453916c45335182ae626a28c53273f940f"}, "vout": 1, "txid": "ec1e5871a2c285b88f61961be3ecf47d303e65155436819b9b1143bdcd2f0676"}, {"sequence": 4294967294, "scriptSig": {"hex": "4730440220628f5adfde2b632a6a87ab5f68ef77620f379164974839e6f84a9bacd73e61c902203f96ebc7662ecf607e88ca9059662b3594c6bd440af4e72014e4f019b22e28b801210354e1a98c011fa6952622bc60c1a4de453916c45335182ae626a28c53273f940f", "asm": "30440220628f5adfde2b632a6a87ab5f68ef77620f379164974839e6f84a9bacd73e61c902203f96ebc7662ecf607e88ca9059662b3594c6bd440af4e72014e4f019b22e28b8[ALL] 0354e1a98c011fa6952622bc60c1a4de453916c45335182ae626a28c53273f940f"}, "vout": 1, "txid": "f69479ac12ac73c8fd95cfefd2fafceb20ba7aaacbc7381f45281711c3bdc37c"}, {"sequence": 4294967294, "scriptSig": {"hex": "473044022053fba07175b1a6c9534086262eae37e1ca0c99a571b73ca944e5322cdaea33a702205452a309cfa3b3b35356a997a80ba6513ef18f4a5fb9692e0e373903976a68b301210354e1a98c011fa6952622bc60c1a4de453916c45335182ae626a28c53273f940f", "asm": "3044022053fba07175b1a6c9534086262eae37e1ca0c99a571b73ca944e5322cdaea33a702205452a309cfa3b3b35356a997a80ba6513ef18f4a5fb9692e0e373903976a68b3[ALL] 0354e1a98c011fa6952622bc60c1a4de453916c45335182ae626a28c53273f940f"}, "vout": 1, "txid": "feb7364eefa1fef3d26d1e76e72e0f8b8b40fce62a97a64a444ae9289c053099"}, {"sequence": 4294967294, "scriptSig": {"hex": "47304402201cdc23339b204652fd1603840865858fb54097808f02e722468a1f6af4b91d6c02204513695dba3d2a576270a0d3927e843ae0bfcf7be18c0e7d08474e5a6ef4962901210354e1a98c011fa6952622bc60c1a4de453916c45335182ae626a28c53273f940f", "asm": "304402201cdc23339b204652fd1603840865858fb54097808f02e722468a1f6af4b91d6c02204513695dba3d2a576270a0d3927e843ae0bfcf7be18c0e7d08474e5a6ef49629[ALL] 0354e1a98c011fa6952622bc60c1a4de453916c45335182ae626a28c53273f940f"}, "vout": 0, "txid": "e67c3fd3e14f63db9959bad456f21e677619064fdf098ea6f8ee8af3cf9b39ad"}, {"sequence": 4294967294, "scriptSig": {"hex": "483045022100a4eb56e79ab7b8d454789b284f56b417569deda8db0d62b77af570bfa9230a5f022028056847676d3b08106e2f9163d551bda280e753066972d2cf45229aca04ba4001210354e1a98c011fa6952622bc60c1a4de453916c45335182ae626a28c53273f940f", "asm": "3045022100a4eb56e79ab7b8d454789b284f56b417569deda8db0d62b77af570bfa9230a5f022028056847676d3b08106e2f9163d551bda280e753066972d2cf45229aca04ba40[ALL] 0354e1a98c011fa6952622bc60c1a4de453916c45335182ae626a28c53273f940f"}, "vout": 0, "txid": "896788b7ba5bccf86375670cc245e1b6946a3c091fd04b473636b18e83564e7c"}, {"sequence": 4294967294, "scriptSig": {"hex": "483045022100a11351517526c9199cc1cb649469921742f9957917eb00fedaf9da4c9487cf2a02201da3e44fd1acb7b70b313fac9542dfc030d3121f0c6dc166a4f5f9479a20604a01210354e1a98c011fa6952622bc60c1a4de453916c45335182ae626a28c53273f940f", "asm": "3045022100a11351517526c9199cc1cb649469921742f9957917eb00fedaf9da4c9487cf2a02201da3e44fd1acb7b70b313fac9542dfc030d3121f0c6dc166a4f5f9479a20604a[ALL] 0354e1a98c011fa6952622bc60c1a4de453916c45335182ae626a28c53273f940f"}, "vout": 0, "txid": "61c824fb6e6afb79b35edb0c8d48045bb5ead637cdc00cfd0cd04424dbd1efb9"}], "txid": "328aa3066eac0d70b674923de831e55cc73468f2a423d03e367da3f0f97ec514", "blocktime": 1537872475, "version": 1, "confirmations": 11487, "time": 1537872475, "locktime": 542994, "vsize": 1732, "size": 1732}