{"hash": "328d0f771544190346b3ef5347935258c584b9378acda68917927e7891918aeb", "blockhash": "00000000000000000018f53835495a110e01622372bf6ae95dc86f2b0ab887b0", "vout": [{"scriptPubKey": {"type": "nulldata", "hex": "6a146f6d6e69000000000000001f00000022d906f580", "asm": "OP_RETURN 6f6d6e69000000000000001f00000022d906f580"}, "value": 0.0, "n": 0}, {"scriptPubKey": {"reqSigs": 1, "hex": "76a91441e7f5565792dbd2613b843a7b4f50cd0607245888ac", "addresses": ["171UoDcysbUsu7FaQtbAgAjFc1HSoQxsZy"], "asm": "OP_DUP OP_HASH160 41e7f5565792dbd2613b843a7b4f50cd06072458 OP_EQUALVERIFY OP_CHECKSIG", "type": "pubkeyhash"}, "value": 5.46e-06, "n": 1}, {"scriptPubKey": {"reqSigs": 1, "hex": "76a914a25dec4d0011064ef106a983c39c7a540699f22088ac", "addresses": ["1FoWyxwPXuj4C6abqwhjDWdz6D4PZgYRjA"], "asm": "OP_DUP OP_HASH160 a25dec4d0011064ef106a983c39c7a540699f220 OP_EQUALVERIFY OP_CHECKSIG", "type": "pubkeyhash"}, "value": 0.01980768, "n": 2}], "hex": "01000000019d10fcb932508351b1af8d35c48df5ed9863f570ee7b92f358fb456614a6907e000000006a4730440220413da42acb95847599b790192e3380b2b9f8150b6c39a754fdd990fd63876bdc02205f392b00809fb0c473043affa0d09d25642b7517bdc43e34407df2d69d1fa66a012103da5bac7b36d5aa38f531c6b9601e21bb598a4b6716ebed38b009a55dabde9440feffffff030000000000000000166a146f6d6e69000000000000001f00000022d906f58022020000000000001976a91441e7f5565792dbd2613b843a7b4f50cd0607245888ac60391e00000000001976a914a25dec4d0011064ef106a983c39c7a540699f22088ac0e490800", "vin": [{"sequence": 4294967294, "scriptSig": {"hex": "4730440220413da42acb95847599b790192e3380b2b9f8150b6c39a754fdd990fd63876bdc02205f392b00809fb0c473043affa0d09d25642b7517bdc43e34407df2d69d1fa66a012103da5bac7b36d5aa38f531c6b9601e21bb598a4b6716ebed38b009a55dabde9440", "asm": "30440220413da42acb95847599b790192e3380b2b9f8150b6c39a754fdd990fd63876bdc02205f392b00809fb0c473043affa0d09d25642b7517bdc43e34407df2d69d1fa66a[ALL] 03da5bac7b36d5aa38f531c6b9601e21bb598a4b6716ebed38b009a55dabde9440"}, "vout": 0, "txid": "7e90a6146645fb58f3927bee70f56398edf58dc4358dafb151835032b9fc109d"}], "txid": "328d0f771544190346b3ef5347935258c584b9378acda68917927e7891918aeb", "blocktime": 1537870928, "version": 1, "confirmations": 11512, "time": 1537870928, "locktime": 542990, "vsize": 256, "size": 256}