{"hash": "d3c885a03618784738659592e5ef7b71196abbf7e9ca87172d51d655f82ef0f6", "blockhash": "0000000000000000000baef3f32e3676a92c3b2e5da21b426e4f302fc371ce76", "vout": [{"scriptPubKey": {"reqSigs": 1, "hex": "a9141988a27e3c2df4ddee7fad5a2303d086179b2a3087", "addresses": ["3422VtS7UtCvXYxoXMVp6eZupR252z85oC"], "asm": "OP_HASH160 1988a27e3c2df4ddee7fad5a2303d086179b2a30 OP_EQUAL", "type": "scripthash"}, "value": 0.83789355, "n": 0}, {"scriptPubKey": {"reqSigs": 1, "hex": "76a91459dd12bc222bc0477cca2046e5242b77519196f488ac", "addresses": ["19C9yWQRLSvBv1JJoLSP8bk22MprgQFp8D"], "asm": "OP_DUP OP_HASH160 59dd12bc222bc0477cca2046e5242b77519196f4 OP_EQUALVERIFY OP_CHECKSIG", "type": "pubkeyhash"}, "value": 0.00157, "n": 1}], "hex": "01000000000101adc29761271be7382683b2a233270c7880dfd58303ec005ea66df0e1aee8f54a020000002322002065d416c48a8072e0ac51c2d111eb194f009caef0332446c1bf2097316cf07fa9ffffffff022b86fe040000000017a9141988a27e3c2df4ddee7fad5a2303d086179b2a308748650200000000001976a91459dd12bc222bc0477cca2046e5242b77519196f488ac0400483045022100b20d26498f4632be727194f18e0369518e486db1b5c0d83f1f998b937640162802205fd82c3cf5458190249d8e042e2801b50f6f456f89ecc9db212b1c8fd3ac2d2b01483045022100ba97487fed64f6909afb7c0a6e673a024c86e14c902d9e7e3300b0aefae7e5b4022061a0a7943b4adf7fe51bc1f9b4e81c2c94ac31eeaa4da0e315393048b32e5a410169522102f44abcf9e23c9a460da309ccca56c619c04eed3bde2c2cff5e7d78fbcd980b9c2103c9443cf3047bb6c2c82f1b0c44c36109cdc3d0d601d16d1189a1602bf8d1a0a02103bfe867059274412412e088af5572b92168c2ef495cfe6c9b7a753a009eb37c4853ae00000000", "vin": [{"txinwitness": ["", "3045022100b20d26498f4632be727194f18e0369518e486db1b5c0d83f1f998b937640162802205fd82c3cf5458190249d8e042e2801b50f6f456f89ecc9db212b1c8fd3ac2d2b01", "3045022100ba97487fed64f6909afb7c0a6e673a024c86e14c902d9e7e3300b0aefae7e5b4022061a0a7943b4adf7fe51bc1f9b4e81c2c94ac31eeaa4da0e315393048b32e5a4101", "522102f44abcf9e23c9a460da309ccca56c619c04eed3bde2c2cff5e7d78fbcd980b9c2103c9443cf3047bb6c2c82f1b0c44c36109cdc3d0d601d16d1189a1602bf8d1a0a02103bfe867059274412412e088af5572b92168c2ef495cfe6c9b7a753a009eb37c4853ae"], "sequence": 4294967295, "scriptSig": {"hex": "22002065d416c48a8072e0ac51c2d111eb194f009caef0332446c1bf2097316cf07fa9", "asm": "002065d416c48a8072e0ac51c2d111eb194f009caef0332446c1bf2097316cf07fa9"}, "vout": 2, "txid": "4af5e8aee1f06da65e00ec0383d5df80780c2733a2b2832638e71b276197c2ad"}], "txid": "328ee509782c656ba14c088d92f3c292a26f6de41997335d9984d12b57e72902", "blocktime": 1537876114, "version": 1, "confirmations": 11460, "time": 1537876114, "locktime": 0, "vsize": 216, "size": 408}