{"hash": "32926ec8b63c3b30a00570d8c2e8fa6520df74cb7808dd7915b640399e9de4f2", "blockhash": "00000000000000000017f5eb5941039fbcee6240d03bc1f2f8e35350df66a1d8", "vout": [{"scriptPubKey": {"reqSigs": 1, "hex": "76a914c924c586dd12ac5940cd093fd92f0133d6c4043d88ac", "addresses": ["1KLYsVaVsh9K8dFArqmPvdTv2T4PNbh6EK"], "asm": "OP_DUP OP_HASH160 c924c586dd12ac5940cd093fd92f0133d6c4043d OP_EQUALVERIFY OP_CHECKSIG", "type": "pubkeyhash"}, "value": 0.001884, "n": 0}], "hex": "010000000222fd09b6eb01b5513f56d4368a6266dc4f82031f81d5d3366c32d1b87b5d6e99000000006b483045022100fece83e8c5f8db6aa6f40165979e35fede6328a13aec3262f0502713020dfc6502202bccac0f1ac1811eb452130fcd875105eec6d921600a1489c216a57174016889012102b62bceed16d43d3ef90b43f64cc7eb1be6f28944e7e268a7d8df86b164cc4bb2ffffffff226fcdda8400596322eb592a7fedce5a9e992d55e3735e14efe6ce74cf2665bf0a0000006a473044022051145bea5bcc5ae7b64bdc7a4b01050fdb04c7a419418fe9202d52b013f1a8a302207c2913c149a02b1f6ec9258f0d71f86f1c5625e3d80fea26566de83d3bb51ac4012102e0978393dbc730bb7c1a93899a47a897612890c4935f137c946655cb57e9dac7ffffffff01f0df0200000000001976a914c924c586dd12ac5940cd093fd92f0133d6c4043d88ac00000000", "vin": [{"sequence": 4294967295, "scriptSig": {"hex": "483045022100fece83e8c5f8db6aa6f40165979e35fede6328a13aec3262f0502713020dfc6502202bccac0f1ac1811eb452130fcd875105eec6d921600a1489c216a57174016889012102b62bceed16d43d3ef90b43f64cc7eb1be6f28944e7e268a7d8df86b164cc4bb2", "asm": "3045022100fece83e8c5f8db6aa6f40165979e35fede6328a13aec3262f0502713020dfc6502202bccac0f1ac1811eb452130fcd875105eec6d921600a1489c216a57174016889[ALL] 02b62bceed16d43d3ef90b43f64cc7eb1be6f28944e7e268a7d8df86b164cc4bb2"}, "vout": 0, "txid": "996e5d7bb8d1326c36d3d5811f03824fdc66628a36d4563f51b501ebb609fd22"}, {"sequence": 4294967295, "scriptSig": {"hex": "473044022051145bea5bcc5ae7b64bdc7a4b01050fdb04c7a419418fe9202d52b013f1a8a302207c2913c149a02b1f6ec9258f0d71f86f1c5625e3d80fea26566de83d3bb51ac4012102e0978393dbc730bb7c1a93899a47a897612890c4935f137c946655cb57e9dac7", "asm": "3044022051145bea5bcc5ae7b64bdc7a4b01050fdb04c7a419418fe9202d52b013f1a8a302207c2913c149a02b1f6ec9258f0d71f86f1c5625e3d80fea26566de83d3bb51ac4[ALL] 02e0978393dbc730bb7c1a93899a47a897612890c4935f137c946655cb57e9dac7"}, "vout": 10, "txid": "bf6526cf74cee6ef145e73e3552d999e5aceed7f2a59eb2263590084dacd6f22"}], "txid": "32926ec8b63c3b30a00570d8c2e8fa6520df74cb7808dd7915b640399e9de4f2", "blocktime": 1537874412, "version": 1, "confirmations": 11467, "time": 1537874412, "locktime": 0, "vsize": 339, "size": 339}