{"hash": "32973a11eedcb475af9d1cc27d38dc135341f441401d14d873dc4f93e2ae3a9d", "blockhash": "0000000000000000000e13cef7c366c0283d82e591d1acd082e914b08063cdf1", "vout": [{"scriptPubKey": {"reqSigs": 1, "hex": "76a914cd4df8df9352c30c103268803bb7d18f65acced488ac", "addresses": ["1KiYvvi3R2p5ajdruk4CuLyGzj1sUz9rL9"], "asm": "OP_DUP OP_HASH160 cd4df8df9352c30c103268803bb7d18f65acced4 OP_EQUALVERIFY OP_CHECKSIG", "type": "pubkeyhash"}, "value": 0.0018773, "n": 0}, {"scriptPubKey": {"reqSigs": 1, "hex": "76a914308b5065cabe915d9161f8b1022ef35b545c70ca88ac", "addresses": ["15RgKvF4tTc76ZdX2yG47ADYvYH6DA5aMd"], "asm": "OP_DUP OP_HASH160 308b5065cabe915d9161f8b1022ef35b545c70ca OP_EQUALVERIFY OP_CHECKSIG", "type": "pubkeyhash"}, "value": 0.00013431, "n": 1}], "hex": "0100000001da22d2056fd2eed139702817e45b6c576f6a9aa2040e9bf5be24796ca2bb1000010000006a47304402207208aa7045508efea9a54243660930f3c4cdcabff58ed3d8c3f9171c2a26483602206f424ddd238fdc6c28cc2c94920f6a0f87d80897a5698a092227446ddcf777dd0121031f2d22b7afc6410f3e6a78b3798cfe060bab80b418bb8d799d44c935ac479ea2ffffffff0252dd0200000000001976a914cd4df8df9352c30c103268803bb7d18f65acced488ac77340000000000001976a914308b5065cabe915d9161f8b1022ef35b545c70ca88ac00000000", "vin": [{"sequence": 4294967295, "scriptSig": {"hex": "47304402207208aa7045508efea9a54243660930f3c4cdcabff58ed3d8c3f9171c2a26483602206f424ddd238fdc6c28cc2c94920f6a0f87d80897a5698a092227446ddcf777dd0121031f2d22b7afc6410f3e6a78b3798cfe060bab80b418bb8d799d44c935ac479ea2", "asm": "304402207208aa7045508efea9a54243660930f3c4cdcabff58ed3d8c3f9171c2a26483602206f424ddd238fdc6c28cc2c94920f6a0f87d80897a5698a092227446ddcf777dd[ALL] 031f2d22b7afc6410f3e6a78b3798cfe060bab80b418bb8d799d44c935ac479ea2"}, "vout": 1, "txid": "0010bba26c7924bef59b0e04a29a6a6f576c5be417287039d1eed26f05d222da"}], "txid": "32973a11eedcb475af9d1cc27d38dc135341f441401d14d873dc4f93e2ae3a9d", "blocktime": 1537871767, "version": 1, "confirmations": 11490, "time": 1537871767, "locktime": 0, "vsize": 225, "size": 225}