{"hash": "329e8b64b8c05e37581dc43da4cb065602ffab29576f355b27797d0e467744ff", "blockhash": "0000000000000000000e13cef7c366c0283d82e591d1acd082e914b08063cdf1", "vout": [{"scriptPubKey": {"reqSigs": 1, "hex": "76a91476b78acc87ae821a9b00c3d4c32a2f8fff7560bf88ac", "addresses": ["1BpicNVES1djVicrBHNVMmNsJXERdpt2YZ"], "asm": "OP_DUP OP_HASH160 76b78acc87ae821a9b00c3d4c32a2f8fff7560bf OP_EQUALVERIFY OP_CHECKSIG", "type": "pubkeyhash"}, "value": 0.04335726, "n": 0}, {"scriptPubKey": {"reqSigs": 1, "hex": "76a914948e840b23fa5d2f451597e8198f379119df541e88ac", "addresses": ["1EYVjZbME2P5sFUJSm9eHfoYMV4mTFrQYj"], "asm": "OP_DUP OP_HASH160 948e840b23fa5d2f451597e8198f379119df541e OP_EQUALVERIFY OP_CHECKSIG", "type": "pubkeyhash"}, "value": 5.673e-05, "n": 1}], "hex": "01000000011af6cf9032ef3777242d39de3b5d434c852765d912fa98aeb5724060d2357de0010000006b483045022100ca573ede08002c5247b4264d1e84438809665be89a48b01e7a90baa177e36fc202206f24e40752555332ebbf695273109c7d308b665b9d533be8ff54b7b243f3e2b9012103bbfba0bdf7db3e11d0e22ff30b4519dd0e41b1bbb12fb7118af9dd19ef3411d7ffffffff026e284200000000001976a91476b78acc87ae821a9b00c3d4c32a2f8fff7560bf88ac29160000000000001976a914948e840b23fa5d2f451597e8198f379119df541e88ac00000000", "vin": [{"sequence": 4294967295, "scriptSig": {"hex": "483045022100ca573ede08002c5247b4264d1e84438809665be89a48b01e7a90baa177e36fc202206f24e40752555332ebbf695273109c7d308b665b9d533be8ff54b7b243f3e2b9012103bbfba0bdf7db3e11d0e22ff30b4519dd0e41b1bbb12fb7118af9dd19ef3411d7", "asm": "3045022100ca573ede08002c5247b4264d1e84438809665be89a48b01e7a90baa177e36fc202206f24e40752555332ebbf695273109c7d308b665b9d533be8ff54b7b243f3e2b9[ALL] 03bbfba0bdf7db3e11d0e22ff30b4519dd0e41b1bbb12fb7118af9dd19ef3411d7"}, "vout": 1, "txid": "e07d35d2604072b5ae98fa12d96527854c435d3bde392d247737ef3290cff61a"}], "txid": "329e8b64b8c05e37581dc43da4cb065602ffab29576f355b27797d0e467744ff", "blocktime": 1537871767, "version": 1, "confirmations": 11490, "time": 1537871767, "locktime": 0, "vsize": 226, "size": 226}