{"hash": "32a641728d516dfa1a0d1803a4556304f87b09901766ad7ec8a9c7e7aa7a2a39", "blockhash": "0000000000000000001f76057863aec43deb6fa401d9628bb513d65a8098bfab", "vout": [{"scriptPubKey": {"type": "nulldata", "hex": "6a33448ed233a98d88187fe4dd20b40e309613573be6714e3d3e7619992052b6dd9daf65397219d415b0fdd939ce42614869f3ceba", "asm": "OP_RETURN 448ed233a98d88187fe4dd20b40e309613573be6714e3d3e7619992052b6dd9daf65397219d415b0fdd939ce42614869f3ceba"}, "value": 0.0, "n": 0}, {"scriptPubKey": {"reqSigs": 1, "hex": "76a9142839f559715751894703b92fec0b0a9c356432e488ac", "addresses": ["14fhThCqA2iVDzu6Rhhc9bDxQQPpobnQ7N"], "asm": "OP_DUP OP_HASH160 2839f559715751894703b92fec0b0a9c356432e4 OP_EQUALVERIFY OP_CHECKSIG", "type": "pubkeyhash"}, "value": 0.00262244, "n": 1}], "hex": "010000000125f4085a9ddcb07c342d5321146bcfb548db96fa378f0760184eb8789b478996010000006b483045022100a1e11637e2074bf7c7b180b62fbdf9adaa3bbf558ef02962cf86592a4b9827860220497db888966b98080a1583b6d3d4c9d21729ec83a00a79daf27987d140667029012102d6ab3947a188dac0b1a70ac90d68f6407302fbe493b9699da85a79b5d06109d1ffffffff020000000000000000356a33448ed233a98d88187fe4dd20b40e309613573be6714e3d3e7619992052b6dd9daf65397219d415b0fdd939ce42614869f3ceba64000400000000001976a9142839f559715751894703b92fec0b0a9c356432e488ac00000000", "vin": [{"sequence": 4294967295, "scriptSig": {"hex": "483045022100a1e11637e2074bf7c7b180b62fbdf9adaa3bbf558ef02962cf86592a4b9827860220497db888966b98080a1583b6d3d4c9d21729ec83a00a79daf27987d140667029012102d6ab3947a188dac0b1a70ac90d68f6407302fbe493b9699da85a79b5d06109d1", "asm": "3045022100a1e11637e2074bf7c7b180b62fbdf9adaa3bbf558ef02962cf86592a4b9827860220497db888966b98080a1583b6d3d4c9d21729ec83a00a79daf27987d140667029[ALL] 02d6ab3947a188dac0b1a70ac90d68f6407302fbe493b9699da85a79b5d06109d1"}, "vout": 1, "txid": "9689479b78b84e1860078f37fa96db48b5cf6b1421532d347cb0dc9d5a08f425"}], "txid": "32a641728d516dfa1a0d1803a4556304f87b09901766ad7ec8a9c7e7aa7a2a39", "blocktime": 1537873891, "version": 1, "confirmations": 11475, "time": 1537873891, "locktime": 0, "vsize": 254, "size": 254}