{"hash": "32b50fea05de8a54ecc087bfe90d942fd339d1155af55e4d2afe29544a68a6d2", "blockhash": "0000000000000000001e0dab787dd257d1dbfcb92a98c2207d5e1078be1f4165", "vout": [{"scriptPubKey": {"type": "nulldata", "hex": "6a4c50000077bc0001c3bd13c224aaea86eb8b9a95e5bf9ae76da98a211aaf6c953dd567cf27e717bec04e98f481516d0dd5eb94374f945baa121906130c1b5edcf4b4bc9a9526289ac0f6612cd74e33776ee4", "asm": "OP_RETURN 000077bc0001c3bd13c224aaea86eb8b9a95e5bf9ae76da98a211aaf6c953dd567cf27e717bec04e98f481516d0dd5eb94374f945baa121906130c1b5edcf4b4bc9a9526289ac0f6612cd74e33776ee4"}, "value": 0.0, "n": 0}, {"scriptPubKey": {"reqSigs": 1, "hex": "76a9144379c871a942ef316fb58f47dd20cc169e6c48ec88ac", "addresses": ["179nAUzumvPe3HJr1ubYCKYDK7bRwRg3mR"], "asm": "OP_DUP OP_HASH160 4379c871a942ef316fb58f47dd20cc169e6c48ec OP_EQUALVERIFY OP_CHECKSIG", "type": "pubkeyhash"}, "value": 0.0222584, "n": 1}], "hex": "0100000001d703381332794d772bff6ef9cc597c2f6ae7d4d560004878149ded1bea25c427000000006b483045022100e13577e802fbee180c1f401d47a7e382f48039d9d266a0619fa4f15aaa9e35e502203880782035d725af4e5a1082c56f375220693566066368cbc3aab87ed87dc02b0121025e292cbaeccb48c999cc0d280f23d743d396165c177ade1b0afd3be94f759c8dffffffff020000000000000000536a4c50000077bc0001c3bd13c224aaea86eb8b9a95e5bf9ae76da98a211aaf6c953dd567cf27e717bec04e98f481516d0dd5eb94374f945baa121906130c1b5edcf4b4bc9a9526289ac0f6612cd74e33776ee4b0f62100000000001976a9144379c871a942ef316fb58f47dd20cc169e6c48ec88ac00000000", "vin": [{"sequence": 4294967295, "scriptSig": {"hex": "483045022100e13577e802fbee180c1f401d47a7e382f48039d9d266a0619fa4f15aaa9e35e502203880782035d725af4e5a1082c56f375220693566066368cbc3aab87ed87dc02b0121025e292cbaeccb48c999cc0d280f23d743d396165c177ade1b0afd3be94f759c8d", "asm": "3045022100e13577e802fbee180c1f401d47a7e382f48039d9d266a0619fa4f15aaa9e35e502203880782035d725af4e5a1082c56f375220693566066368cbc3aab87ed87dc02b[ALL] 025e292cbaeccb48c999cc0d280f23d743d396165c177ade1b0afd3be94f759c8d"}, "vout": 0, "txid": "27c425ea1bed9d1478480060d5d4e76a2f7c59ccf96eff2b774d7932133803d7"}], "txid": "32b50fea05de8a54ecc087bfe90d942fd339d1155af55e4d2afe29544a68a6d2", "blocktime": 1537872475, "version": 1, "confirmations": 11486, "time": 1537872475, "locktime": 0, "vsize": 284, "size": 284}