{"hash": "c3e25e8ed8cd14394a23c7a531e53b065ea331e4cf54f4156437717594531051", "blockhash": "00000000000000000018f53835495a110e01622372bf6ae95dc86f2b0ab887b0", "vout": [{"scriptPubKey": {"reqSigs": 1, "hex": "00143edd6234eec53f196a2b7f8c268d4df3f530e9b2", "addresses": ["bc1q8mwkyd8wc5l3j63t07xzdr2d706np6djpdkk0d"], "asm": "0 3edd6234eec53f196a2b7f8c268d4df3f530e9b2", "type": "witness_v0_keyhash"}, "value": 0.0059937, "n": 0}, {"scriptPubKey": {"reqSigs": 1, "hex": "76a91492180b0e7ba36786df8e6dfabbf71d8263d941cd88ac", "addresses": ["1EKUTZKvvaMkCcvLrDY4LNNjuVpi4tb5qj"], "asm": "OP_DUP OP_HASH160 92180b0e7ba36786df8e6dfabbf71d8263d941cd OP_EQUALVERIFY OP_CHECKSIG", "type": "pubkeyhash"}, "value": 0.03505582, "n": 1}], "hex": "01000000000101c9a26cbd74db30c6220b8dd1b01b31d45b26872b5b4013753ec5590612e0528f0000000000ffffffff024a250900000000001600143edd6234eec53f196a2b7f8c268d4df3f530e9b2ae7d3500000000001976a91492180b0e7ba36786df8e6dfabbf71d8263d941cd88ac0247304402200399990e73a3e0d08143531762666e0b9a5b93392c95bed23a0a5f7781db091702200b68da7502269ab4971b53d60f2d2dadee39af748575ecec43b8e2286a16b5550121025c9782dd045ffb2c307cfb45019426076efa3a17bc6c242d4ab80a8bf222f10600000000", "vin": [{"txinwitness": ["304402200399990e73a3e0d08143531762666e0b9a5b93392c95bed23a0a5f7781db091702200b68da7502269ab4971b53d60f2d2dadee39af748575ecec43b8e2286a16b55501", "025c9782dd045ffb2c307cfb45019426076efa3a17bc6c242d4ab80a8bf222f106"], "sequence": 4294967295, "scriptSig": {"hex": "", "asm": ""}, "vout": 0, "txid": "8f52e0120659c53e7513405b2b87265bd4311bb0d18d0b22c630db74bd6ca2c9"}], "txid": "32ba154a0639e27cb072e052455c6b68d67f8f20d50247caa46c5a4d0d1015a5", "blocktime": 1537870928, "version": 1, "confirmations": 11514, "time": 1537870928, "locktime": 0, "vsize": 144, "size": 225}