{"hash": "32bd0bc0c6922d879f01a78fc75139d5803c208236dccc80b66202af16576a89", "blockhash": "000000000000000000022b45ed06c6f4ccd3cf7fb5ba4856ebd2e58215665228", "vout": [{"scriptPubKey": {"reqSigs": 1, "hex": "76a914c9c629c76a1f07096c0fa5d1303432db52cbf1f088ac", "addresses": ["1KPtDBM2NyBZidN5sdBQm4NEDjazc1RFMb"], "asm": "OP_DUP OP_HASH160 c9c629c76a1f07096c0fa5d1303432db52cbf1f0 OP_EQUALVERIFY OP_CHECKSIG", "type": "pubkeyhash"}, "value": 0.005011, "n": 0}, {"scriptPubKey": {"reqSigs": 1, "hex": "76a914d59bb53905b0382d63c0bccdd9a81b3abd431f5488ac", "addresses": ["1LUTTdoZV9Jx4QRnbnXKnVeRbYgv6Ntg1B"], "asm": "OP_DUP OP_HASH160 d59bb53905b0382d63c0bccdd9a81b3abd431f54 OP_EQUALVERIFY OP_CHECKSIG", "type": "pubkeyhash"}, "value": 0.01482726, "n": 1}], "hex": "0100000001320c2ca63fc8ae9a69de68381b83ef55baa1f07904238212e354e3da5feff709010000006b483045022100a7dc8d3b815be441c482edf67f1b3c172086a336826a3753b33ac044cf34512402202a997aa164f44f1d09eb0f76ad3b712c4ecbcd792fc6ab53cb15bcc3ab0fa7fd0121037b067773c39e2c3dde89cde22466d619f6e6b756f70b4640592c92a2fbbb6f9cffffffff026ca50700000000001976a914c9c629c76a1f07096c0fa5d1303432db52cbf1f088ace69f1600000000001976a914d59bb53905b0382d63c0bccdd9a81b3abd431f5488ac00000000", "vin": [{"sequence": 4294967295, "scriptSig": {"hex": "483045022100a7dc8d3b815be441c482edf67f1b3c172086a336826a3753b33ac044cf34512402202a997aa164f44f1d09eb0f76ad3b712c4ecbcd792fc6ab53cb15bcc3ab0fa7fd0121037b067773c39e2c3dde89cde22466d619f6e6b756f70b4640592c92a2fbbb6f9c", "asm": "3045022100a7dc8d3b815be441c482edf67f1b3c172086a336826a3753b33ac044cf34512402202a997aa164f44f1d09eb0f76ad3b712c4ecbcd792fc6ab53cb15bcc3ab0fa7fd[ALL] 037b067773c39e2c3dde89cde22466d619f6e6b756f70b4640592c92a2fbbb6f9c"}, "vout": 1, "txid": "09f7ef5fdae354e31282230479f0a1ba55ef831b3868de699aaec83fa62c0c32"}], "txid": "32bd0bc0c6922d879f01a78fc75139d5803c208236dccc80b66202af16576a89", "blocktime": 1537869901, "version": 1, "confirmations": 11524, "time": 1537869901, "locktime": 0, "vsize": 226, "size": 226}