{"hash": "32c30673cb0c5a1e4ccc44c1f865c5bedc7156f6d869e9dd4fdf433a0b07e5a9", "blockhash": "0000000000000000001f0ddff1eddb255c1121bcd4da4f1bc9a0da00cae72433", "vout": [{"scriptPubKey": {"reqSigs": 1, "hex": "76a914c7e0e6392a30788799e63d444347faead44e2d4988ac", "addresses": ["1KDrtTEM41jXpKMKGjmwKmDJAjznwPs4ZU"], "asm": "OP_DUP OP_HASH160 c7e0e6392a30788799e63d444347faead44e2d49 OP_EQUALVERIFY OP_CHECKSIG", "type": "pubkeyhash"}, "value": 0.0035411, "n": 0}, {"scriptPubKey": {"reqSigs": 1, "hex": "76a914c8db6d0c69174c39d385333877ace539f3e45d1f88ac", "addresses": ["1KK31MHjgqtvt62Zbb4uY8tbJ7ZDCeUpGe"], "asm": "OP_DUP OP_HASH160 c8db6d0c69174c39d385333877ace539f3e45d1f OP_EQUALVERIFY OP_CHECKSIG", "type": "pubkeyhash"}, "value": 0.02052322, "n": 1}], "hex": "01000000011f6a9b60e527b78f193cebaccab361a36fb5931823092ab728a398d5a497ba8e010000006a47304402207b26312535c95096525da56fbd3d567ef527efc44f836686b637e3c5f441360b02206e4ddb0cf0ec22145447d4caff36675cd990b3969584c1f91b04faf38e5e228001210206d5a1d6cdf37d496cad619833aa2323b1a8a689e67ebda1716cfb2564478071ffffffff023e670500000000001976a914c7e0e6392a30788799e63d444347faead44e2d4988ace2501f00000000001976a914c8db6d0c69174c39d385333877ace539f3e45d1f88ac00000000", "vin": [{"sequence": 4294967295, "scriptSig": {"hex": "47304402207b26312535c95096525da56fbd3d567ef527efc44f836686b637e3c5f441360b02206e4ddb0cf0ec22145447d4caff36675cd990b3969584c1f91b04faf38e5e228001210206d5a1d6cdf37d496cad619833aa2323b1a8a689e67ebda1716cfb2564478071", "asm": "304402207b26312535c95096525da56fbd3d567ef527efc44f836686b637e3c5f441360b02206e4ddb0cf0ec22145447d4caff36675cd990b3969584c1f91b04faf38e5e2280[ALL] 0206d5a1d6cdf37d496cad619833aa2323b1a8a689e67ebda1716cfb2564478071"}, "vout": 1, "txid": "8eba97a4d598a328b72a09231893b56fa361b3caaceb3c198fb727e5609b6a1f"}], "txid": "32c30673cb0c5a1e4ccc44c1f865c5bedc7156f6d869e9dd4fdf433a0b07e5a9", "blocktime": 1537872018, "version": 1, "confirmations": 11489, "time": 1537872018, "locktime": 0, "vsize": 225, "size": 225}