{"hash": "83604d4ac1d4a2870832c5919bbf76c65e7120515688fa34e230a8eac09af008", "blockhash": "0000000000000000000baef3f32e3676a92c3b2e5da21b426e4f302fc371ce76", "vout": [{"scriptPubKey": {"reqSigs": 1, "hex": "76a914f8d7b26a61d7a511cc534a0ecebe28cec0fcda6d88ac", "addresses": ["1PgkyTfhLYPjf8BFitymUUi6Af7MoKgW8u"], "asm": "OP_DUP OP_HASH160 f8d7b26a61d7a511cc534a0ecebe28cec0fcda6d OP_EQUALVERIFY OP_CHECKSIG", "type": "pubkeyhash"}, "value": 0.00020147, "n": 0}, {"scriptPubKey": {"reqSigs": 1, "hex": "a91408c364340a91e77e4376b26fdad3b5aedc5661f787", "addresses": ["32VMQ7Th4qGhbDYY68FZrfSF9hTbsPivgt"], "asm": "OP_HASH160 08c364340a91e77e4376b26fdad3b5aedc5661f7 OP_EQUAL", "type": "scripthash"}, "value": 0.02010787, "n": 1}], "hex": "010000000001016aa3f1b03dde59c54e8f7b694cf1a721e36900b5d4df5bc8017de5debcf35e6a010000002322002027561ef61439ff4994ea3793249bbb358319edb59fff63c1eeada48f299e81b5ffffffff02b34e0000000000001976a914f8d7b26a61d7a511cc534a0ecebe28cec0fcda6d88aca3ae1e000000000017a91408c364340a91e77e4376b26fdad3b5aedc5661f7870400473044022000d5f13fefadc017faa9eae97ccaab1c0c697e7c412812a8c205b65a478944ad022010defe451ccf3b60ffc401cb86a49cb639159ab3bc5c56ba01d9ed986ee9fa1001473044022045831e13a4c0091f5f30892dd29d72620ec6fe59a204da4730ca537b00b4b57402206e907f553a766d6d1845083af1845cd5ea184b196e63af1918c71b066c4404790147522102f484437eae67e7d1f9cf7235bd52510c99f379408a1f6fe737011d4bc259358a2103871fc2ca08e6950b38867e8e6a0e94ee625223d3aa0df5c65f414c6d784467e252ae00000000", "vin": [{"txinwitness": ["", "3044022000d5f13fefadc017faa9eae97ccaab1c0c697e7c412812a8c205b65a478944ad022010defe451ccf3b60ffc401cb86a49cb639159ab3bc5c56ba01d9ed986ee9fa1001", "3044022045831e13a4c0091f5f30892dd29d72620ec6fe59a204da4730ca537b00b4b57402206e907f553a766d6d1845083af1845cd5ea184b196e63af1918c71b066c44047901", "522102f484437eae67e7d1f9cf7235bd52510c99f379408a1f6fe737011d4bc259358a2103871fc2ca08e6950b38867e8e6a0e94ee625223d3aa0df5c65f414c6d784467e252ae"], "sequence": 4294967295, "scriptSig": {"hex": "22002027561ef61439ff4994ea3793249bbb358319edb59fff63c1eeada48f299e81b5", "asm": "002027561ef61439ff4994ea3793249bbb358319edb59fff63c1eeada48f299e81b5"}, "vout": 1, "txid": "6a5ef3bcdee57d01c85bdfd4b50069e321a7f14c697b8f4ec559de3db0f1a36a"}], "txid": "32c5a0be3da50d70a6238d4cf3f7856510c385a041bb74ed8e268981c94575a9", "blocktime": 1537876114, "version": 1, "confirmations": 11460, "time": 1537876114, "locktime": 0, "vsize": 207, "size": 372}