{"hash": "32c58e38c032d3cf7b68d936e9b311e8cb32ca86f8b11b008dae97ce553dd15b", "blockhash": "0000000000000000001f76057863aec43deb6fa401d9628bb513d65a8098bfab", "vout": [{"scriptPubKey": {"reqSigs": 1, "hex": "a914f50de10b73b1061f1f39fa10c14dedc1b2aa432d87", "addresses": ["3Q2k6srhdxZ2t7yb6FqteLtmCet6tJKfPj"], "asm": "OP_HASH160 f50de10b73b1061f1f39fa10c14dedc1b2aa432d OP_EQUAL", "type": "scripthash"}, "value": 0.01455656, "n": 0}, {"scriptPubKey": {"reqSigs": 1, "hex": "76a914e9b7b019e76860aa11af1d5bd6e023ff513137e688ac", "addresses": ["1NJnVZCguQZjEQemiro6HuX1UR2fjJrJFa"], "asm": "OP_DUP OP_HASH160 e9b7b019e76860aa11af1d5bd6e023ff513137e6 OP_EQUALVERIFY OP_CHECKSIG", "type": "pubkeyhash"}, "value": 1.5960506, "n": 1}], "hex": "02000000017c5faaabe22d427ffcf6a335841276a377dceb10f7faf30c9369a04a311a6356010000006b483045022100b9d3bf097f452cb90499c256a1ae789f18e49e2127b5d8a06f786aff140df026022039e44d687c1db95db510fc492710c3d138fdfdd1666ca507c34d01dc89292799012102e0c3db2bd8f4cf16390569b6bc82ab9cb5638f3491ea9ded7747e97e12ceed00feffffff02283616000000000017a914f50de10b73b1061f1f39fa10c14dedc1b2aa432d8744618309000000001976a914e9b7b019e76860aa11af1d5bd6e023ff513137e688ac13490800", "vin": [{"sequence": 4294967294, "scriptSig": {"hex": "483045022100b9d3bf097f452cb90499c256a1ae789f18e49e2127b5d8a06f786aff140df026022039e44d687c1db95db510fc492710c3d138fdfdd1666ca507c34d01dc89292799012102e0c3db2bd8f4cf16390569b6bc82ab9cb5638f3491ea9ded7747e97e12ceed00", "asm": "3045022100b9d3bf097f452cb90499c256a1ae789f18e49e2127b5d8a06f786aff140df026022039e44d687c1db95db510fc492710c3d138fdfdd1666ca507c34d01dc89292799[ALL] 02e0c3db2bd8f4cf16390569b6bc82ab9cb5638f3491ea9ded7747e97e12ceed00"}, "vout": 1, "txid": "56631a314aa069930cf3faf710ebdc77a376128435a3f6fc7f422de2abaa5f7c"}], "txid": "32c58e38c032d3cf7b68d936e9b311e8cb32ca86f8b11b008dae97ce553dd15b", "blocktime": 1537873891, "version": 2, "confirmations": 11478, "time": 1537873891, "locktime": 542995, "vsize": 224, "size": 224}