{"hash": "32c71993422ac36877215d8a9377def00f716cce15e07368fad608a6386930de", "blockhash": "00000000000000000004ffacab907a6b429b9a5745fa0b75af4234bf69dd7176", "vout": [{"scriptPubKey": {"reqSigs": 1, "hex": "76a91479c33f40c598be0c869de84535719c9e9ec5398088ac", "addresses": ["1C6pfDZYtE5MB9vwoWC6XWAF5JMQArEumz"], "asm": "OP_DUP OP_HASH160 79c33f40c598be0c869de84535719c9e9ec53980 OP_EQUALVERIFY OP_CHECKSIG", "type": "pubkeyhash"}, "value": 0.09938, "n": 0}, {"scriptPubKey": {"reqSigs": 1, "hex": "76a9141b26c088480cd7899df2bd8cd10d0a0d805c53ec88ac", "addresses": ["13UZfipomXL9VpPqqhU26R2riSgphj7pZv"], "asm": "OP_DUP OP_HASH160 1b26c088480cd7899df2bd8cd10d0a0d805c53ec OP_EQUALVERIFY OP_CHECKSIG", "type": "pubkeyhash"}, "value": 2.9, "n": 1}], "hex": "0100000001bc79c4283c230a6bbc05966fbe0f0814f56106e9029dc46a378062f9dae265e9010000008a4730440220247bc09acc77957db7a6b234544334a0db1852829320e3ed7caa9b5fd2edf63d0220196ab682a52ec2d793ae46e686c3459ff0ae662a26c4e9e59cadacb0a4d8458a0141049c1e320337263551cb74042e6bdfa1762eb1117524dad0dd6cf13e7daebce54dcb7944dcd5ee8c6267783fffbe1c45adcd9583e82828d8dabf4e8410efbec2b2fdffffff0250a49700000000001976a91479c33f40c598be0c869de84535719c9e9ec5398088ac800c4911000000001976a9141b26c088480cd7899df2bd8cd10d0a0d805c53ec88ac00000000", "vin": [{"sequence": 4294967293, "scriptSig": {"hex": "4730440220247bc09acc77957db7a6b234544334a0db1852829320e3ed7caa9b5fd2edf63d0220196ab682a52ec2d793ae46e686c3459ff0ae662a26c4e9e59cadacb0a4d8458a0141049c1e320337263551cb74042e6bdfa1762eb1117524dad0dd6cf13e7daebce54dcb7944dcd5ee8c6267783fffbe1c45adcd9583e82828d8dabf4e8410efbec2b2", "asm": "30440220247bc09acc77957db7a6b234544334a0db1852829320e3ed7caa9b5fd2edf63d0220196ab682a52ec2d793ae46e686c3459ff0ae662a26c4e9e59cadacb0a4d8458a[ALL] 049c1e320337263551cb74042e6bdfa1762eb1117524dad0dd6cf13e7daebce54dcb7944dcd5ee8c6267783fffbe1c45adcd9583e82828d8dabf4e8410efbec2b2"}, "vout": 1, "txid": "e965e2daf96280376ac49d02e90661f514080fbe6f9605bc6b0a233c28c479bc"}], "txid": "32c71993422ac36877215d8a9377def00f716cce15e07368fad608a6386930de", "blocktime": 1537875543, "version": 1, "confirmations": 11464, "time": 1537875543, "locktime": 0, "vsize": 257, "size": 257}