{"hash": "32ce741deed1fe7646c850801856878803d7bfc3f5de9befeece0e667b8ed191", "blockhash": "0000000000000000000baef3f32e3676a92c3b2e5da21b426e4f302fc371ce76", "vout": [{"scriptPubKey": {"reqSigs": 1, "hex": "76a914809e749c0f97fc106fb881e1342eb819c512e10a88ac", "addresses": ["1Cj5KEgWq9QYqZ4ewvSXhRvmyaNA7Ekky9"], "asm": "OP_DUP OP_HASH160 809e749c0f97fc106fb881e1342eb819c512e10a OP_EQUALVERIFY OP_CHECKSIG", "type": "pubkeyhash"}, "value": 0.00630169, "n": 0}, {"scriptPubKey": {"type": "nulldata", "hex": "6a4c500000780a000164d14014a85533db26143c74702940d64fa54d8eb2d19ed074892d00f8e87a66167b63c3060e391d8b373de948765baa1b0906139d66014a6b801d100759d4ba30d2c37bb011d97e02cf", "asm": "OP_RETURN 0000780a000164d14014a85533db26143c74702940d64fa54d8eb2d19ed074892d00f8e87a66167b63c3060e391d8b373de948765baa1b0906139d66014a6b801d100759d4ba30d2c37bb011d97e02cf"}, "value": 0.0, "n": 1}], "hex": "010000000195487766e28bcc775809cf095298cbb6f452c82dfd62f2a50a50e1a0ee9ed72e000000006a473044022015f775ec9a320ad1ecae7e39a0cc943090fa4a8a548a790a333b14a6362ee095022037558893214ea3cb507b773cc9718219e7949c9ba277f7a84ef976c3134ef8f70121021ebaf09a0325e3e345b320a6278005262a374e6dc5a8020b8e5d5ba1ab97094cffffffff02999d0900000000001976a914809e749c0f97fc106fb881e1342eb819c512e10a88ac0000000000000000536a4c500000780a000164d14014a85533db26143c74702940d64fa54d8eb2d19ed074892d00f8e87a66167b63c3060e391d8b373de948765baa1b0906139d66014a6b801d100759d4ba30d2c37bb011d97e02cf00000000", "vin": [{"sequence": 4294967295, "scriptSig": {"hex": "473044022015f775ec9a320ad1ecae7e39a0cc943090fa4a8a548a790a333b14a6362ee095022037558893214ea3cb507b773cc9718219e7949c9ba277f7a84ef976c3134ef8f70121021ebaf09a0325e3e345b320a6278005262a374e6dc5a8020b8e5d5ba1ab97094c", "asm": "3044022015f775ec9a320ad1ecae7e39a0cc943090fa4a8a548a790a333b14a6362ee095022037558893214ea3cb507b773cc9718219e7949c9ba277f7a84ef976c3134ef8f7[ALL] 021ebaf09a0325e3e345b320a6278005262a374e6dc5a8020b8e5d5ba1ab97094c"}, "vout": 0, "txid": "2ed79eeea0e1500aa5f262fd2dc852f4b6cb985209cf095877cc8be266774895"}], "txid": "32ce741deed1fe7646c850801856878803d7bfc3f5de9befeece0e667b8ed191", "blocktime": 1537876114, "version": 1, "confirmations": 11463, "time": 1537876114, "locktime": 0, "vsize": 283, "size": 283}