{"hash": "187a3975271e69430dfedadbfd0c9433c9e740cdfabdbf27dad80aef0ef9dacd", "blockhash": "000000000000000000022b45ed06c6f4ccd3cf7fb5ba4856ebd2e58215665228", "vout": [{"scriptPubKey": {"reqSigs": 1, "hex": "76a91420ba1182bdb77b802cc46411a29c758a039da8b488ac", "addresses": ["13z3XQ4z9yMLWHRW6JfwuX3FFh3Ao9KPc1"], "asm": "OP_DUP OP_HASH160 20ba1182bdb77b802cc46411a29c758a039da8b4 OP_EQUALVERIFY OP_CHECKSIG", "type": "pubkeyhash"}, "value": 0.0016886, "n": 0}, {"scriptPubKey": {"reqSigs": 1, "hex": "a9146c284debfacd75bf25e7f3492d65e0770317b6ac87", "addresses": ["3BYuBfB7dyFrsdYRDLJpBxAoYndQT3KR89"], "asm": "OP_HASH160 6c284debfacd75bf25e7f3492d65e0770317b6ac OP_EQUAL", "type": "scripthash"}, "value": 0.01069979, "n": 1}], "hex": "0200000000010281d8c75dd397c40381fbb6d7e215d7cf87599571875dbb81f30393fd1edad6080100000017160014aa3a9613d0fd87ec7bf9eb0a5c6d3329b5a4dd84feffffff884cdef6dc4736808e637fd1e4d01c9216cff9f5330bd8529bd122268432f6411700000017160014d879b8923a0ffca0316bf8928c136e4c53b79bb5feffffff029c930200000000001976a91420ba1182bdb77b802cc46411a29c758a039da8b488ac9b5310000000000017a9146c284debfacd75bf25e7f3492d65e0770317b6ac870247304402201ec9a032972e88e96b1a52029f585026fa7536f3cf632eeda7c37051cd80dbd0022020de3cbf81e1f28b17a0d04b8ec6fdf12e61b9e7a1b41879dfe593e9d7ca71f7012102a858caee1973dbd8d35abafbad8d8d173adc59469bb9c563834f30ae76977f7302483045022100e50a7c9ac14359ef9ad90ba1c0c697866bd8acc5663f134c329284cb4f6fc81902203c1908636c8386fb53a2049b00d56a3d520baff635a53c4bd80a13ec21dc492d01210237ab0b9e65e998f6925d969009bfd70db742904c97b0e8668cd3588fc48451370b490800", "vin": [{"txinwitness": ["304402201ec9a032972e88e96b1a52029f585026fa7536f3cf632eeda7c37051cd80dbd0022020de3cbf81e1f28b17a0d04b8ec6fdf12e61b9e7a1b41879dfe593e9d7ca71f701", "02a858caee1973dbd8d35abafbad8d8d173adc59469bb9c563834f30ae76977f73"], "sequence": 4294967294, "scriptSig": {"hex": "160014aa3a9613d0fd87ec7bf9eb0a5c6d3329b5a4dd84", "asm": "0014aa3a9613d0fd87ec7bf9eb0a5c6d3329b5a4dd84"}, "vout": 1, "txid": "08d6da1efd9303f381bb5d8771955987cfd715e2d7b6fb8103c497d35dc7d881"}, {"txinwitness": ["3045022100e50a7c9ac14359ef9ad90ba1c0c697866bd8acc5663f134c329284cb4f6fc81902203c1908636c8386fb53a2049b00d56a3d520baff635a53c4bd80a13ec21dc492d01", "0237ab0b9e65e998f6925d969009bfd70db742904c97b0e8668cd3588fc4845137"], "sequence": 4294967294, "scriptSig": {"hex": "160014d879b8923a0ffca0316bf8928c136e4c53b79bb5", "asm": "0014d879b8923a0ffca0316bf8928c136e4c53b79bb5"}, "vout": 23, "txid": "41f632842622d19b52d80b33f5f9cf16921cd0e4d17f638e803647dcf6de4c88"}], "txid": "32ce366adb01790329cf92e41762b61955099940777e06b55fac4dac03cac14e", "blocktime": 1537869901, "version": 2, "confirmations": 11524, "time": 1537869901, "locktime": 542987, "vsize": 259, "size": 421}