{"hash": "32d4681aeee783cd37879ba3c697c4968bb98d179e492a9660600610e6b36f18", "blockhash": "00000000000000000024a2167bbff67b0be802c0b01cdd79e6331c2be6459f87", "vout": [{"scriptPubKey": {"reqSigs": 1, "hex": "a9142dcd81b5aef6d38d857ed33116e45c8134b2ddc687", "addresses": ["35sCX2ikz7ZuUUz4nvmSiqYnBPHWqThSNi"], "asm": "OP_HASH160 2dcd81b5aef6d38d857ed33116e45c8134b2ddc6 OP_EQUAL", "type": "scripthash"}, "value": 0.0835446, "n": 0}], "hex": "0100000001f5cdf64781e943ae16f31f0437f78b71eae59d52d0ab483d2c9f281743ac9f66000000006a47304402204a3ead2d7f29e3931befd79fb1eba25fbe61e5753b8fb0cb514352a66e81747102203a3c408501e8e614c6475238faf0dc51ff6708f3cb2c38d5d1b1da9d6fb0f8470121037942315f13ec7030ec9b8155c78eb805f3c871f82dbe4f74785dfc2672f39ad9ffffffff019c7a7f000000000017a9142dcd81b5aef6d38d857ed33116e45c8134b2ddc68700000000", "vin": [{"sequence": 4294967295, "scriptSig": {"hex": "47304402204a3ead2d7f29e3931befd79fb1eba25fbe61e5753b8fb0cb514352a66e81747102203a3c408501e8e614c6475238faf0dc51ff6708f3cb2c38d5d1b1da9d6fb0f8470121037942315f13ec7030ec9b8155c78eb805f3c871f82dbe4f74785dfc2672f39ad9", "asm": "304402204a3ead2d7f29e3931befd79fb1eba25fbe61e5753b8fb0cb514352a66e81747102203a3c408501e8e614c6475238faf0dc51ff6708f3cb2c38d5d1b1da9d6fb0f847[ALL] 037942315f13ec7030ec9b8155c78eb805f3c871f82dbe4f74785dfc2672f39ad9"}, "vout": 0, "txid": "669fac4317289f2c3d48abd0529de5ea718bf737041ff316ae43e98147f6cdf5"}], "txid": "32d4681aeee783cd37879ba3c697c4968bb98d179e492a9660600610e6b36f18", "blocktime": 1537870564, "version": 1, "confirmations": 11515, "time": 1537870564, "locktime": 0, "vsize": 189, "size": 189}