{"hash": "32d863f4229f03fdfa5f9f3a3a31f4ff723b953c13ff81273064363f01d1e68b", "blockhash": "0000000000000000001cda96e906b7601b7a6fb1a3b62bca570a9e5d8f4b3de1", "vout": [{"scriptPubKey": {"reqSigs": 1, "hex": "76a914c5f1a7e2bfc8e4c99c7a65cb69a100656568c93e88ac", "addresses": ["1K3dcL9kvJatxAr9VSzZZKWCX6m1JYZ3FH"], "asm": "OP_DUP OP_HASH160 c5f1a7e2bfc8e4c99c7a65cb69a100656568c93e OP_EQUALVERIFY OP_CHECKSIG", "type": "pubkeyhash"}, "value": 0.00096833, "n": 0}, {"scriptPubKey": {"reqSigs": 1, "hex": "a914236b7ccfb50abb1e257ca7bcc8f94220a25263b087", "addresses": ["34vJLd78oK3jcHZMrg829Nt17KYR75kXeD"], "asm": "OP_HASH160 236b7ccfb50abb1e257ca7bcc8f94220a25263b0 OP_EQUAL", "type": "scripthash"}, "value": 0.04371714, "n": 1}], "hex": "0100000003245e40e012249b86c35ffb671b5b35f76bb5dbe70ba64df09f1ca7e632c66f2b010000006a47304402202b4c6ad9eb6ad333265f7d6ebce785467b0e1845ac293211b924276b23e6ab6e022040f29f6a86013f0f513f78b4b4c5f9e28e272fccb19eb7cbc371738e5c08db4b012102663c5083be391ea38aca955e3c8003cfffd07f06f8ac3c36414e2f985dcd932affffffff40f5a7982c9b7e4621b7d5513133251a6a91cc7811e8d23ab1e325793cae7663000000006b483045022100a748a05716cd1e7bc6227791fe2de3e4aacb301fef84a4ad73cdc3a152b0a89702204408aed516bb832e0468fd94613ef8ec15a37a25cb21e0e06a98b5982135b134012102663c5083be391ea38aca955e3c8003cfffd07f06f8ac3c36414e2f985dcd932affffffff1f195739d2bc652f46a5cce1cbd5b1082d9ed4c07d56ccb41c2e9305c2333790010000006a4730440220758766d7c6080cd9b80f370b034db0c59984c88f93866c82665d39695600d1a202204fb778e54525a0774b6a122e7675f7b66562ccd582b3fa8a498092ad0d774f6b012102663c5083be391ea38aca955e3c8003cfffd07f06f8ac3c36414e2f985dcd932affffffff02417a0100000000001976a914c5f1a7e2bfc8e4c99c7a65cb69a100656568c93e88ac02b542000000000017a914236b7ccfb50abb1e257ca7bcc8f94220a25263b08700000000", "vin": [{"sequence": 4294967295, "scriptSig": {"hex": "47304402202b4c6ad9eb6ad333265f7d6ebce785467b0e1845ac293211b924276b23e6ab6e022040f29f6a86013f0f513f78b4b4c5f9e28e272fccb19eb7cbc371738e5c08db4b012102663c5083be391ea38aca955e3c8003cfffd07f06f8ac3c36414e2f985dcd932a", "asm": "304402202b4c6ad9eb6ad333265f7d6ebce785467b0e1845ac293211b924276b23e6ab6e022040f29f6a86013f0f513f78b4b4c5f9e28e272fccb19eb7cbc371738e5c08db4b[ALL] 02663c5083be391ea38aca955e3c8003cfffd07f06f8ac3c36414e2f985dcd932a"}, "vout": 1, "txid": "2b6fc632e6a71c9ff04da60be7dbb56bf7355b1b67fb5fc3869b2412e0405e24"}, {"sequence": 4294967295, "scriptSig": {"hex": "483045022100a748a05716cd1e7bc6227791fe2de3e4aacb301fef84a4ad73cdc3a152b0a89702204408aed516bb832e0468fd94613ef8ec15a37a25cb21e0e06a98b5982135b134012102663c5083be391ea38aca955e3c8003cfffd07f06f8ac3c36414e2f985dcd932a", "asm": "3045022100a748a05716cd1e7bc6227791fe2de3e4aacb301fef84a4ad73cdc3a152b0a89702204408aed516bb832e0468fd94613ef8ec15a37a25cb21e0e06a98b5982135b134[ALL] 02663c5083be391ea38aca955e3c8003cfffd07f06f8ac3c36414e2f985dcd932a"}, "vout": 0, "txid": "6376ae3c7925e3b13ad2e81178cc916a1a25333151d5b721467e9b2c98a7f540"}, {"sequence": 4294967295, "scriptSig": {"hex": "4730440220758766d7c6080cd9b80f370b034db0c59984c88f93866c82665d39695600d1a202204fb778e54525a0774b6a122e7675f7b66562ccd582b3fa8a498092ad0d774f6b012102663c5083be391ea38aca955e3c8003cfffd07f06f8ac3c36414e2f985dcd932a", "asm": "30440220758766d7c6080cd9b80f370b034db0c59984c88f93866c82665d39695600d1a202204fb778e54525a0774b6a122e7675f7b66562ccd582b3fa8a498092ad0d774f6b[ALL] 02663c5083be391ea38aca955e3c8003cfffd07f06f8ac3c36414e2f985dcd932a"}, "vout": 1, "txid": "903733c205932e1cb4cc567dc0d49e2d08b1d5cbe1cca5462f65bcd23957191f"}], "txid": "32d863f4229f03fdfa5f9f3a3a31f4ff723b953c13ff81273064363f01d1e68b", "blocktime": 1537873282, "version": 1, "confirmations": 11485, "time": 1537873282, "locktime": 0, "vsize": 518, "size": 518}