{"hash": "32d8684ad325ee611ea883e7ecf75ee822621f2b15e971139b7b29d22c4bbfe1", "blockhash": "00000000000000000024a2167bbff67b0be802c0b01cdd79e6331c2be6459f87", "vout": [{"scriptPubKey": {"reqSigs": 1, "hex": "76a9141066f814e7781d7c73132db7770a0f468215af1988ac", "addresses": ["12VjAVAe81r5AbWKL1iGz2tjw9M4LixytH"], "asm": "OP_DUP OP_HASH160 1066f814e7781d7c73132db7770a0f468215af19 OP_EQUALVERIFY OP_CHECKSIG", "type": "pubkeyhash"}, "value": 0.00013325, "n": 0}, {"scriptPubKey": {"reqSigs": 1, "hex": "a9149821f9008321cab7f3ba5ad1d739dc5c48039ad487", "addresses": ["3FZRLAU9TR3K4iBqyLUAreJo1dFZEJ8QeN"], "asm": "OP_HASH160 9821f9008321cab7f3ba5ad1d739dc5c48039ad4 OP_EQUAL", "type": "scripthash"}, "value": 0.0062392, "n": 1}], "hex": "0100000005becb52c4883eead93efbba451b1f050b2b737bfa484f015a945a496bebecba2b000000006b483045022100b64d26508eff0863a72b8998e9b34995cc83b3069bb7364340afe0e81a778b08022056dd47f79aba98601ae493333ee0c4d8ff20da80fc6e20870d4801b128fa1580012103c17867e870ce25cabd3412542c42987502e53076dd0ca917ca439f800b8c99d6ffffffff5fdfc907cf7ff88c397cf613cc3e72a80ebacbf9c3f41627475d15f4f21b924f000000006b483045022100ce1f003bcdafe551a84ce7cfaba24e025024a565e75a3cfa96b1a529e1fabe6a02205e08b73290d55ba8d59d6328d1f073b8941dc4217e1e63b2716ff5c98a8971610121034bc60e1c1ed7f8967f3e2bc4603c2af6cc7933f4ebe756a953c35a2d9394c9efffffffffac5bd286438f7de78262358f9021e36b58773f83977ab909edd44cdba28e7c56000000006b483045022100cbeda6b11ec64bd4fc82b86d52febca69a994d6bb8fa7ea51c5e6ea8b8282fa602202f2986f91548612da1abaa16f23eb6fd7301c38cf7c724ae2b893f78c9181f2c012102a2adc3b1e9d705e97e3c75f08a003960d976f5136fa604af5807752035ac55a3ffffffffb5ff654130384135be7396d93304e070b2cd944fd09029b16fe3f94b168425be000000006b483045022100c7a4930554c304dc0684fefeb9e2909d0b39235d8a57ca85b8fdb1ca6170bad7022030b4d1e23a97512a158ad2a4c43422b3d495af315149ef2e8d89b3103839ab2c012102a2adc3b1e9d705e97e3c75f08a003960d976f5136fa604af5807752035ac55a3ffffffff97878c183eb140c996cfd459fe139fd2389f3cfa298bc15209a171dd8fd557c3000000006b483045022100de7b93e29a4d8f37faf310a28dd25b31b8b529ad4e2805c0a7c001f834f5231902206a23c86a8f289a0d97590b4a6781ccc27accf7fcca28ef9b5de79aba1b6bb4bf012102a2adc3b1e9d705e97e3c75f08a003960d976f5136fa604af5807752035ac55a3ffffffff020d340000000000001976a9141066f814e7781d7c73132db7770a0f468215af1988ac308509000000000017a9149821f9008321cab7f3ba5ad1d739dc5c48039ad48700000000", "vin": [{"sequence": 4294967295, "scriptSig": {"hex": "483045022100b64d26508eff0863a72b8998e9b34995cc83b3069bb7364340afe0e81a778b08022056dd47f79aba98601ae493333ee0c4d8ff20da80fc6e20870d4801b128fa1580012103c17867e870ce25cabd3412542c42987502e53076dd0ca917ca439f800b8c99d6", "asm": "3045022100b64d26508eff0863a72b8998e9b34995cc83b3069bb7364340afe0e81a778b08022056dd47f79aba98601ae493333ee0c4d8ff20da80fc6e20870d4801b128fa1580[ALL] 03c17867e870ce25cabd3412542c42987502e53076dd0ca917ca439f800b8c99d6"}, "vout": 0, "txid": "2bbaeceb6b495a945a014f48fa7b732b0b051f1b45bafb3ed9ea3e88c452cbbe"}, {"sequence": 4294967295, "scriptSig": {"hex": "483045022100ce1f003bcdafe551a84ce7cfaba24e025024a565e75a3cfa96b1a529e1fabe6a02205e08b73290d55ba8d59d6328d1f073b8941dc4217e1e63b2716ff5c98a8971610121034bc60e1c1ed7f8967f3e2bc4603c2af6cc7933f4ebe756a953c35a2d9394c9ef", "asm": "3045022100ce1f003bcdafe551a84ce7cfaba24e025024a565e75a3cfa96b1a529e1fabe6a02205e08b73290d55ba8d59d6328d1f073b8941dc4217e1e63b2716ff5c98a897161[ALL] 034bc60e1c1ed7f8967f3e2bc4603c2af6cc7933f4ebe756a953c35a2d9394c9ef"}, "vout": 0, "txid": "4f921bf2f4155d472716f4c3f9cbba0ea8723ecc13f67c398cf87fcf07c9df5f"}, {"sequence": 4294967295, "scriptSig": {"hex": "483045022100cbeda6b11ec64bd4fc82b86d52febca69a994d6bb8fa7ea51c5e6ea8b8282fa602202f2986f91548612da1abaa16f23eb6fd7301c38cf7c724ae2b893f78c9181f2c012102a2adc3b1e9d705e97e3c75f08a003960d976f5136fa604af5807752035ac55a3", "asm": "3045022100cbeda6b11ec64bd4fc82b86d52febca69a994d6bb8fa7ea51c5e6ea8b8282fa602202f2986f91548612da1abaa16f23eb6fd7301c38cf7c724ae2b893f78c9181f2c[ALL] 02a2adc3b1e9d705e97e3c75f08a003960d976f5136fa604af5807752035ac55a3"}, "vout": 0, "txid": "567c8ea2db4cd4ed09b97a97833f77586be321908f356282e77d8f4386d25bac"}, {"sequence": 4294967295, "scriptSig": {"hex": "483045022100c7a4930554c304dc0684fefeb9e2909d0b39235d8a57ca85b8fdb1ca6170bad7022030b4d1e23a97512a158ad2a4c43422b3d495af315149ef2e8d89b3103839ab2c012102a2adc3b1e9d705e97e3c75f08a003960d976f5136fa604af5807752035ac55a3", "asm": "3045022100c7a4930554c304dc0684fefeb9e2909d0b39235d8a57ca85b8fdb1ca6170bad7022030b4d1e23a97512a158ad2a4c43422b3d495af315149ef2e8d89b3103839ab2c[ALL] 02a2adc3b1e9d705e97e3c75f08a003960d976f5136fa604af5807752035ac55a3"}, "vout": 0, "txid": "be2584164bf9e36fb12990d04f94cdb270e00433d99673be354138304165ffb5"}, {"sequence": 4294967295, "scriptSig": {"hex": "483045022100de7b93e29a4d8f37faf310a28dd25b31b8b529ad4e2805c0a7c001f834f5231902206a23c86a8f289a0d97590b4a6781ccc27accf7fcca28ef9b5de79aba1b6bb4bf012102a2adc3b1e9d705e97e3c75f08a003960d976f5136fa604af5807752035ac55a3", "asm": "3045022100de7b93e29a4d8f37faf310a28dd25b31b8b529ad4e2805c0a7c001f834f5231902206a23c86a8f289a0d97590b4a6781ccc27accf7fcca28ef9b5de79aba1b6bb4bf[ALL] 02a2adc3b1e9d705e97e3c75f08a003960d976f5136fa604af5807752035ac55a3"}, "vout": 0, "txid": "c357d58fdd71a10952c18b29fa3c9f38d29f13fe59d4cf96c940b13e188c8797"}], "txid": "32d8684ad325ee611ea883e7ecf75ee822621f2b15e971139b7b29d22c4bbfe1", "blocktime": 1537870564, "version": 1, "confirmations": 11515, "time": 1537870564, "locktime": 0, "vsize": 816, "size": 816}