{"hash": "32da61e899672d0f25d8ac125951deb5244c0e0833d1e04dcf034aa4a0f3a03b", "blockhash": "0000000000000000000e13cef7c366c0283d82e591d1acd082e914b08063cdf1", "vout": [{"scriptPubKey": {"reqSigs": 1, "hex": "76a914751ebf125cf50d2e6fc117adfda5ff72c1e8932588ac", "addresses": ["1BgGtjuG3m2SUmCr7iFnCzJ3HPH2w1NSY9"], "asm": "OP_DUP OP_HASH160 751ebf125cf50d2e6fc117adfda5ff72c1e89325 OP_EQUALVERIFY OP_CHECKSIG", "type": "pubkeyhash"}, "value": 0.00976153, "n": 0}], "hex": "010000000136a48b3077279085e04be46eacfc90410c1e30d854109122d21a9ba1d7930c15090000006a47304402202e491ffacbf036fd52ae1108e7c3b3878d878f614be990cf512cd814954ecc1802205d65c5d6937b9545f5af39e35c6d014b1165f1f5908e2cfc80f54685fc165aaf012103f97edda33b7f0930b080908b899ecf47870b193472d4a6a5d7a64f49e6066ea4fdffffff0119e50e00000000001976a914751ebf125cf50d2e6fc117adfda5ff72c1e8932588ac0f490800", "vin": [{"sequence": 4294967293, "scriptSig": {"hex": "47304402202e491ffacbf036fd52ae1108e7c3b3878d878f614be990cf512cd814954ecc1802205d65c5d6937b9545f5af39e35c6d014b1165f1f5908e2cfc80f54685fc165aaf012103f97edda33b7f0930b080908b899ecf47870b193472d4a6a5d7a64f49e6066ea4", "asm": "304402202e491ffacbf036fd52ae1108e7c3b3878d878f614be990cf512cd814954ecc1802205d65c5d6937b9545f5af39e35c6d014b1165f1f5908e2cfc80f54685fc165aaf[ALL] 03f97edda33b7f0930b080908b899ecf47870b193472d4a6a5d7a64f49e6066ea4"}, "vout": 9, "txid": "150c93d7a19b1ad222911054d8301e0c4190fcac6ee44be085902777308ba436"}], "txid": "32da61e899672d0f25d8ac125951deb5244c0e0833d1e04dcf034aa4a0f3a03b", "blocktime": 1537871767, "version": 1, "confirmations": 11493, "time": 1537871767, "locktime": 542991, "vsize": 191, "size": 191}