{"hash": "32db31854185d794db458a7c8d4802332ebaca93543ddec0849dfda3d873178e", "blockhash": "0000000000000000001f0ddff1eddb255c1121bcd4da4f1bc9a0da00cae72433", "vout": [{"scriptPubKey": {"reqSigs": 1, "hex": "76a914c680c5ad5935b436d690cf19d0b2db6a2a26653688ac", "addresses": ["1K6b4EM2UwLLuQcaYQcYh26vn7onaDNGsX"], "asm": "OP_DUP OP_HASH160 c680c5ad5935b436d690cf19d0b2db6a2a266536 OP_EQUALVERIFY OP_CHECKSIG", "type": "pubkeyhash"}, "value": 0.00035707, "n": 0}, {"scriptPubKey": {"reqSigs": 1, "hex": "a91412ad1af7c50e71b0b68b02039ddccb3287f9338b87", "addresses": ["33PmTZpyY1Kx4zR4i7JtYQVSGgtMD5xGfs"], "asm": "OP_HASH160 12ad1af7c50e71b0b68b02039ddccb3287f9338b OP_EQUAL", "type": "scripthash"}, "value": 0.0740388, "n": 1}], "hex": "0100000001c2fccb086c5fddc7497b50324ca6a14bf11864ecb8f9e553bb83f1515ccee300000000006a4730440220278e449fc2c818a0b0d55692cb4abd348d303a8dbf20e0ac4f0e3dc7973c585502205351747ab3488e95763ac06e7885ec941ba50ed9d76c70f040bf47c6506d0b62012102f72a98f48a0324b21aa745cc016cdb5aabc641ba98dc5dfc5317adac5cf407f9ffffffff027b8b0000000000001976a914c680c5ad5935b436d690cf19d0b2db6a2a26653688ac68f970000000000017a91412ad1af7c50e71b0b68b02039ddccb3287f9338b8700000000", "vin": [{"sequence": 4294967295, "scriptSig": {"hex": "4730440220278e449fc2c818a0b0d55692cb4abd348d303a8dbf20e0ac4f0e3dc7973c585502205351747ab3488e95763ac06e7885ec941ba50ed9d76c70f040bf47c6506d0b62012102f72a98f48a0324b21aa745cc016cdb5aabc641ba98dc5dfc5317adac5cf407f9", "asm": "30440220278e449fc2c818a0b0d55692cb4abd348d303a8dbf20e0ac4f0e3dc7973c585502205351747ab3488e95763ac06e7885ec941ba50ed9d76c70f040bf47c6506d0b62[ALL] 02f72a98f48a0324b21aa745cc016cdb5aabc641ba98dc5dfc5317adac5cf407f9"}, "vout": 0, "txid": "00e3ce5c51f183bb53e5f9b8ec6418f14ba1a64c32507b49c7dd5f6c08cbfcc2"}], "txid": "32db31854185d794db458a7c8d4802332ebaca93543ddec0849dfda3d873178e", "blocktime": 1537872018, "version": 1, "confirmations": 11489, "time": 1537872018, "locktime": 0, "vsize": 223, "size": 223}