{"hash": "807dc3e407f4aab386cbc08ddd9bef43ecc2e10c0ae6a79e49079a6666624101", "blockhash": "0000000000000000001f0ddff1eddb255c1121bcd4da4f1bc9a0da00cae72433", "vout": [{"scriptPubKey": {"type": "nulldata", "hex": "6a146f6d6e69000000000000001f000000050775d800", "asm": "OP_RETURN 6f6d6e69000000000000001f000000050775d800"}, "value": 0.0, "n": 0}, {"scriptPubKey": {"reqSigs": 1, "hex": "a914e818e90b8e6b38dba66f74b35cb708bbc73e2ea787", "addresses": ["3NrEXrB9qAxXYfRt6jKtBD8QzoU2qtNWDR"], "asm": "OP_HASH160 e818e90b8e6b38dba66f74b35cb708bbc73e2ea7 OP_EQUAL", "type": "scripthash"}, "value": 2.73e-05, "n": 1}, {"scriptPubKey": {"reqSigs": 1, "hex": "a914e818e90b8e6b38dba66f74b35cb708bbc73e2ea787", "addresses": ["3NrEXrB9qAxXYfRt6jKtBD8QzoU2qtNWDR"], "asm": "OP_HASH160 e818e90b8e6b38dba66f74b35cb708bbc73e2ea7 OP_EQUAL", "type": "scripthash"}, "value": 0.04876353, "n": 2}], "hex": "010000000001029233d8f2d5e999759061595d59750bbe83e968684cacd5309296a5806f55678d0200000017160014710c6ad6a8f2c4327814b1855a788bc0b42b4a5bffffffffd1b5cad1f5d42f745c7c3365fae6c7236dd19d6bed1c863aad75165dfad11cf30000000017160014594d713cbc51f6faec0b9ec3ceafbbf45d74159dffffffff030000000000000000166a146f6d6e69000000000000001f000000050775d800aa0a00000000000017a914e818e90b8e6b38dba66f74b35cb708bbc73e2ea78741684a000000000017a914e818e90b8e6b38dba66f74b35cb708bbc73e2ea787024730440220359a9d0571bb4fa9a9c0636630bffc3376bf805bf67bf0d808345124717ef64e022029553e68f0057ef69eae5db8243fdf3b64dba085d2e29ae9e1d1095f14ca5ad90121024910ba3bb2972d08fdf9d5caa5be5077fa09d55677d2453806069a6ac1c343b4024730440220667757d048b5746358db4cc1b01b4361723b57cd41bb93b34f2258819079d59902207d93787b39da101b15920fe33b27d8d9f57af26b8bd4dfa105654448638c21f9012103efb79d79380958908236306369b15bd8ccc980eca9468863542384445b5ab11e00000000", "vin": [{"txinwitness": ["30440220359a9d0571bb4fa9a9c0636630bffc3376bf805bf67bf0d808345124717ef64e022029553e68f0057ef69eae5db8243fdf3b64dba085d2e29ae9e1d1095f14ca5ad901", "024910ba3bb2972d08fdf9d5caa5be5077fa09d55677d2453806069a6ac1c343b4"], "sequence": 4294967295, "scriptSig": {"hex": "160014710c6ad6a8f2c4327814b1855a788bc0b42b4a5b", "asm": "0014710c6ad6a8f2c4327814b1855a788bc0b42b4a5b"}, "vout": 2, "txid": "8d67556f80a5969230d5ac4c6868e983be0b75595d5961907599e9d5f2d83392"}, {"txinwitness": ["30440220667757d048b5746358db4cc1b01b4361723b57cd41bb93b34f2258819079d59902207d93787b39da101b15920fe33b27d8d9f57af26b8bd4dfa105654448638c21f901", "03efb79d79380958908236306369b15bd8ccc980eca9468863542384445b5ab11e"], "sequence": 4294967295, "scriptSig": {"hex": "160014594d713cbc51f6faec0b9ec3ceafbbf45d74159d", "asm": "0014594d713cbc51f6faec0b9ec3ceafbbf45d74159d"}, "vout": 0, "txid": "f31cd1fa5d1675ad3a861ced6b9dd16d23c7e6fa65337c5c742fd4f5d1cab5d1"}], "txid": "32e3e58f0281427813b603d7f3b66cde8803eb894ddf54d3bdb2cdae157e9419", "blocktime": 1537872018, "version": 1, "confirmations": 11489, "time": 1537872018, "locktime": 0, "vsize": 287, "size": 449}