{"hash": "32eca3cd3275ab427137a90e437f3fa016972059577b623c2460ceb9fb012974", "blockhash": "000000000000000000022b45ed06c6f4ccd3cf7fb5ba4856ebd2e58215665228", "vout": [{"scriptPubKey": {"reqSigs": 1, "hex": "76a914284b1f894ca72430de8f19952125b6016a9dc7c688ac", "addresses": ["14g42KnXkRFfR8cUtS5tReprjeNvGQKW9v"], "asm": "OP_DUP OP_HASH160 284b1f894ca72430de8f19952125b6016a9dc7c6 OP_EQUALVERIFY OP_CHECKSIG", "type": "pubkeyhash"}, "value": 0.1452169, "n": 0}, {"scriptPubKey": {"type": "nulldata", "hex": "6a146f6d6e69000000000000001f000000107c024400", "asm": "OP_RETURN 6f6d6e69000000000000001f000000107c024400"}, "value": 0.0, "n": 1}, {"scriptPubKey": {"reqSigs": 1, "hex": "76a914d1763339f9e597c84b288eca0188ea67aa6b011988ac", "addresses": ["1L6XpnDygG2VySVEVmaqHtYTYwJAHhvRYZ"], "asm": "OP_DUP OP_HASH160 d1763339f9e597c84b288eca0188ea67aa6b0119 OP_EQUALVERIFY OP_CHECKSIG", "type": "pubkeyhash"}, "value": 5.46e-06, "n": 2}], "hex": "0100000001c1d146b0f2ef5dbebb05da99d336e30ab9e2f8d201de9a4d7706eb5b4034beb8000000006a4730440220096bf7445d27577db010dc18683ce7f886817bfb6c96686a986abe20dabfa418022018fc3be2a9da321c6b0c0932f4a7ca3f8a72734c68814a6488a920faee15880c01210392260b2475e9dec1855e89404d00787579055270f3f1619ec29bd64ed6a6dd7dfeffffff035a95dd00000000001976a914284b1f894ca72430de8f19952125b6016a9dc7c688ac0000000000000000166a146f6d6e69000000000000001f000000107c02440022020000000000001976a914d1763339f9e597c84b288eca0188ea67aa6b011988ac0b490800", "vin": [{"sequence": 4294967294, "scriptSig": {"hex": "4730440220096bf7445d27577db010dc18683ce7f886817bfb6c96686a986abe20dabfa418022018fc3be2a9da321c6b0c0932f4a7ca3f8a72734c68814a6488a920faee15880c01210392260b2475e9dec1855e89404d00787579055270f3f1619ec29bd64ed6a6dd7d", "asm": "30440220096bf7445d27577db010dc18683ce7f886817bfb6c96686a986abe20dabfa418022018fc3be2a9da321c6b0c0932f4a7ca3f8a72734c68814a6488a920faee15880c[ALL] 0392260b2475e9dec1855e89404d00787579055270f3f1619ec29bd64ed6a6dd7d"}, "vout": 0, "txid": "b8be34405beb06774d9ade01d2f8e2b90ae336d399da05bbbe5deff2b046d1c1"}], "txid": "32eca3cd3275ab427137a90e437f3fa016972059577b623c2460ceb9fb012974", "blocktime": 1537869901, "version": 1, "confirmations": 11522, "time": 1537869901, "locktime": 542987, "vsize": 256, "size": 256}