{"hash": "15b94cdf00def88498e7c72a0fabadb4c59efec632a06a4741e8c3a5d4092c64", "blockhash": "0000000000000000000baef3f32e3676a92c3b2e5da21b426e4f302fc371ce76", "vout": [{"scriptPubKey": {"reqSigs": 1, "hex": "a914e7f3665f6183ccc32eae1bdab00e09d9d48d1cf487", "addresses": ["3NqTbaTNa23FC99zbKfEDHpB4hSwQwBBvg"], "asm": "OP_HASH160 e7f3665f6183ccc32eae1bdab00e09d9d48d1cf4 OP_EQUAL", "type": "scripthash"}, "value": 0.00017642, "n": 0}, {"scriptPubKey": {"reqSigs": 1, "hex": "a914bfe3b9b006bd60d821de4768216fbcf3cb0629a487", "addresses": ["3KBdnpNRSUC6xH7oL58GWg3f1QzPQs9FWq"], "asm": "OP_HASH160 bfe3b9b006bd60d821de4768216fbcf3cb0629a4 OP_EQUAL", "type": "scripthash"}, "value": 0.00876663, "n": 1}], "hex": "01000000000101b279d512bc41e8fe99c6c3ecff6a629484584427259e3bafe49b5f341db32f9c01000000232200204ac72bc93353695ed44de9eabe5eab31fde46c3e5524f6f6c253b37df4627817ffffffff02ea4400000000000017a914e7f3665f6183ccc32eae1bdab00e09d9d48d1cf48777600d000000000017a914bfe3b9b006bd60d821de4768216fbcf3cb0629a4870400483045022100b6dc4799090f7cb3e4ea67e2b6e612c95c9a3827e0aa45cdab5b95b7b2b997d1022020a57b16d0d83dd64014bd760351cc96bc9c9b032480c868d1afac5b75696bcf0147304402206b1be87264eb878a972e932c09f2eea2d0a3393e9402c8b4198fb0b144ff1035022052a4967a326ec0aa4c4dbc352ca1663f92d627a8770dada821a8aea09bb24881014752210383dd989bbcdccf0b79b07f5bbd82921af5ac4762329b0aa9346994805e5cd8fc2103871fc2ca08e6950b38867e8e6a0e94ee625223d3aa0df5c65f414c6d784467e252ae00000000", "vin": [{"txinwitness": ["", "3045022100b6dc4799090f7cb3e4ea67e2b6e612c95c9a3827e0aa45cdab5b95b7b2b997d1022020a57b16d0d83dd64014bd760351cc96bc9c9b032480c868d1afac5b75696bcf01", "304402206b1be87264eb878a972e932c09f2eea2d0a3393e9402c8b4198fb0b144ff1035022052a4967a326ec0aa4c4dbc352ca1663f92d627a8770dada821a8aea09bb2488101", "52210383dd989bbcdccf0b79b07f5bbd82921af5ac4762329b0aa9346994805e5cd8fc2103871fc2ca08e6950b38867e8e6a0e94ee625223d3aa0df5c65f414c6d784467e252ae"], "sequence": 4294967295, "scriptSig": {"hex": "2200204ac72bc93353695ed44de9eabe5eab31fde46c3e5524f6f6c253b37df4627817", "asm": "00204ac72bc93353695ed44de9eabe5eab31fde46c3e5524f6f6c253b37df4627817"}, "vout": 1, "txid": "9c2fb31d345f9be4af3b9e252744588494626affecc3c699fee841bc12d579b2"}], "txid": "32ef7f0902f0bff1c4f4d04e6a283a9f4557bb82f67c155b8d5622e2d7cee717", "blocktime": 1537876114, "version": 1, "confirmations": 11460, "time": 1537876114, "locktime": 0, "vsize": 206, "size": 371}