{"hash": "336ce654df06e8d71e95ce94313e569067efc64148d37bf09b7ae8c1e710205a", "blockhash": "0000000000000000000e13cef7c366c0283d82e591d1acd082e914b08063cdf1", "vout": [{"scriptPubKey": {"reqSigs": 1, "hex": "a91474857f3a1d9e3b26f4c650b81609cd39d7eb0bce87", "addresses": ["3CK8EL2g51hvC4iLwCQGAK654mCUnUpBvL"], "asm": "OP_HASH160 74857f3a1d9e3b26f4c650b81609cd39d7eb0bce OP_EQUAL", "type": "scripthash"}, "value": 0.01931109, "n": 0}, {"scriptPubKey": {"reqSigs": 1, "hex": "76a914b2bdde668b2e84a82f1c6d7c3a07279f81cd36be88ac", "addresses": ["1HJ6jTZh5ssoaKpNHhD8WG3G8f55pgzZc7"], "asm": "OP_DUP OP_HASH160 b2bdde668b2e84a82f1c6d7c3a07279f81cd36be OP_EQUALVERIFY OP_CHECKSIG", "type": "pubkeyhash"}, "value": 0.00299998, "n": 1}], "hex": "02000000000102553962deda607319754dd46b10fd2d4f38c1089a5527c09a79215cee9d4bb1f4010000001716001411ab3a5450af36b03aa8744b60962a287ce5111cfeffffff96bc24eafc92554d57b2dfaab3166fa109d70f8db61e0431ead925d816df3c130100000017160014fae4285818ff27083be3679587ad6cefb204fd09feffffff0265771d000000000017a91474857f3a1d9e3b26f4c650b81609cd39d7eb0bce87de930400000000001976a914b2bdde668b2e84a82f1c6d7c3a07279f81cd36be88ac02483045022100d306212d7304d47ae4496744fd9057af4cabb20c77f1510b71d913ad8e8863a702205651490e18b077af27295ae8e8d278e4ea832987d56b54c958143d225225d8dc0121025275ba3449d5b5aedfb9b98aa15905e3f9743ffcebb9d2c86a2d04ade544c83b024730440220628036cb0d7e046d2d475a3cc13acd22fb17ae805a67b94cfad698bdd183132a022039e3ac4d7203713c866382e48fc4d668b9aff1a426a09029892d63fc7d62128e012102decdf1bf72b74a8d2e103e4a7e0d4611cbc43782b3f436046d9244a7bfbced2310490800", "vin": [{"txinwitness": ["3045022100d306212d7304d47ae4496744fd9057af4cabb20c77f1510b71d913ad8e8863a702205651490e18b077af27295ae8e8d278e4ea832987d56b54c958143d225225d8dc01", "025275ba3449d5b5aedfb9b98aa15905e3f9743ffcebb9d2c86a2d04ade544c83b"], "sequence": 4294967294, "scriptSig": {"hex": "16001411ab3a5450af36b03aa8744b60962a287ce5111c", "asm": "001411ab3a5450af36b03aa8744b60962a287ce5111c"}, "vout": 1, "txid": "f4b14b9dee5c21799ac027559a08c1384f2dfd106bd44d75197360dade623955"}, {"txinwitness": ["30440220628036cb0d7e046d2d475a3cc13acd22fb17ae805a67b94cfad698bdd183132a022039e3ac4d7203713c866382e48fc4d668b9aff1a426a09029892d63fc7d62128e01", "02decdf1bf72b74a8d2e103e4a7e0d4611cbc43782b3f436046d9244a7bfbced23"], "sequence": 4294967294, "scriptSig": {"hex": "160014fae4285818ff27083be3679587ad6cefb204fd09", "asm": "0014fae4285818ff27083be3679587ad6cefb204fd09"}, "vout": 1, "txid": "133cdf16d825d9ea31041eb68d0fd709a16f16b3aadfb2574d5592fcea24bc96"}], "txid": "3304c6aafb228cb4c7da54a4ff0ed7f7176081812ef6cd632e1334ef8a1685cb", "blocktime": 1537871767, "version": 2, "confirmations": 11495, "time": 1537871767, "locktime": 542992, "vsize": 259, "size": 421}