{"hash": "3305340f884f95462881ff496c2d41466efd9460b3b5dc48d24cbef0f75db55f", "blockhash": "0000000000000000001cda96e906b7601b7a6fb1a3b62bca570a9e5d8f4b3de1", "vout": [{"scriptPubKey": {"reqSigs": 1, "hex": "76a9146cb83fbcb7b8fe61aec83523f28dabe7236c85b188ac", "addresses": ["1AurhZXUwM3gF7DWLnQbSx6SRwq2pCLQRd"], "asm": "OP_DUP OP_HASH160 6cb83fbcb7b8fe61aec83523f28dabe7236c85b1 OP_EQUALVERIFY OP_CHECKSIG", "type": "pubkeyhash"}, "value": 0.057017, "n": 0}, {"scriptPubKey": {"reqSigs": 1, "hex": "76a9141ac5996fdb33f87b4322720ca9c1fe654c253ffc88ac", "addresses": ["13SZHS4Luw6U3aXvyuQgyvhSR8ALy43QFN"], "asm": "OP_DUP OP_HASH160 1ac5996fdb33f87b4322720ca9c1fe654c253ffc OP_EQUALVERIFY OP_CHECKSIG", "type": "pubkeyhash"}, "value": 0.00069232, "n": 1}], "hex": "0100000001b67b240380cfa70a3ad326d1c00917dd74a57c475b624fad61966a131f1c38d8000000006b483045022100c739f502ae67defbac936f150ba02bcdaec9dd249b69de988c1e1773644c74d90220308486a1a92db51c558ac849de1a4e2f30db22e98bccc6d3f7cd14189f27d2a80121035883be02a9c72a33d416cdf812b7a960480c7277d13499b070ae6cf6e5fe079cffffffff0244005700000000001976a9146cb83fbcb7b8fe61aec83523f28dabe7236c85b188ac700e0100000000001976a9141ac5996fdb33f87b4322720ca9c1fe654c253ffc88ac00000000", "vin": [{"sequence": 4294967295, "scriptSig": {"hex": "483045022100c739f502ae67defbac936f150ba02bcdaec9dd249b69de988c1e1773644c74d90220308486a1a92db51c558ac849de1a4e2f30db22e98bccc6d3f7cd14189f27d2a80121035883be02a9c72a33d416cdf812b7a960480c7277d13499b070ae6cf6e5fe079c", "asm": "3045022100c739f502ae67defbac936f150ba02bcdaec9dd249b69de988c1e1773644c74d90220308486a1a92db51c558ac849de1a4e2f30db22e98bccc6d3f7cd14189f27d2a8[ALL] 035883be02a9c72a33d416cdf812b7a960480c7277d13499b070ae6cf6e5fe079c"}, "vout": 0, "txid": "d8381c1f136a9661ad4f625b477ca574dd1709c0d126d33a0aa7cf8003247bb6"}], "txid": "3305340f884f95462881ff496c2d41466efd9460b3b5dc48d24cbef0f75db55f", "blocktime": 1537873282, "version": 1, "confirmations": 11480, "time": 1537873282, "locktime": 0, "vsize": 226, "size": 226}