{"hash": "3306b6775d1e49e0a40ceb3baac08fa5179b3739ff9944f89f27f376735b81f4", "blockhash": "0000000000000000001cda96e906b7601b7a6fb1a3b62bca570a9e5d8f4b3de1", "vout": [{"scriptPubKey": {"reqSigs": 1, "hex": "a914351e4fb64e3f5063bafe2206daf673160bfd4a0787", "addresses": ["36Xt3nK6gZ2WQ6BnfGgM43t9xVMeDHZomt"], "asm": "OP_HASH160 351e4fb64e3f5063bafe2206daf673160bfd4a07 OP_EQUAL", "type": "scripthash"}, "value": 0.00254388, "n": 0}, {"scriptPubKey": {"reqSigs": 1, "hex": "76a91487c4bd77f69b73b690b26fd18d016d082a34460688ac", "addresses": ["1DNsue71Y33GKYJGjJK6m2yEcktRqhwhc2"], "asm": "OP_DUP OP_HASH160 87c4bd77f69b73b690b26fd18d016d082a344606 OP_EQUALVERIFY OP_CHECKSIG", "type": "pubkeyhash"}, "value": 0.00525231, "n": 1}], "hex": "010000000110f6047b23e48ba9dde21cf08229d96c0ef76ff6f31d09c5739c2696ef110c58010000006b483045022100ad058fba139cb6d62e8a51c0ee3c270ec13bca0deedda6d2518c0af59c0a4ce40220184016fc4b7aedd1ad6ffeaaedfb7636a9e71cafd065db509c88a60e8ee956a6012103a08b939cf8f035efa1e39fa739d1fcb6b61f3f4060e628737fc1d638f440c833ffffffff02b4e103000000000017a914351e4fb64e3f5063bafe2206daf673160bfd4a0787af030800000000001976a91487c4bd77f69b73b690b26fd18d016d082a34460688ac00000000", "vin": [{"sequence": 4294967295, "scriptSig": {"hex": "483045022100ad058fba139cb6d62e8a51c0ee3c270ec13bca0deedda6d2518c0af59c0a4ce40220184016fc4b7aedd1ad6ffeaaedfb7636a9e71cafd065db509c88a60e8ee956a6012103a08b939cf8f035efa1e39fa739d1fcb6b61f3f4060e628737fc1d638f440c833", "asm": "3045022100ad058fba139cb6d62e8a51c0ee3c270ec13bca0deedda6d2518c0af59c0a4ce40220184016fc4b7aedd1ad6ffeaaedfb7636a9e71cafd065db509c88a60e8ee956a6[ALL] 03a08b939cf8f035efa1e39fa739d1fcb6b61f3f4060e628737fc1d638f440c833"}, "vout": 1, "txid": "580c11ef96269c73c5091df3f66ff70e6cd92982f01ce2dda98be4237b04f610"}], "txid": "3306b6775d1e49e0a40ceb3baac08fa5179b3739ff9944f89f27f376735b81f4", "blocktime": 1537873282, "version": 1, "confirmations": 11485, "time": 1537873282, "locktime": 0, "vsize": 224, "size": 224}