{"hash": "330ed816e7897720483f5eaa5264eb66c5d31c36ca60812268c25cbebc36a168", "blockhash": "0000000000000000001cda96e906b7601b7a6fb1a3b62bca570a9e5d8f4b3de1", "vout": [{"scriptPubKey": {"reqSigs": 1, "hex": "a914e1b34d8e2a171617bc437a7408c8590bc5f836d887", "addresses": ["3NGQktkKsUeoutAJTvENVj3FjbkLPpbBKX"], "asm": "OP_HASH160 e1b34d8e2a171617bc437a7408c8590bc5f836d8 OP_EQUAL", "type": "scripthash"}, "value": 0.02302, "n": 0}, {"scriptPubKey": {"reqSigs": 1, "hex": "76a9147bf0e97d976eb929eaf70e27b1ce51a322dae34e88ac", "addresses": ["1CJLiTeRNYZNdr5VZ5CDRJC6vkPwAt66A5"], "asm": "OP_DUP OP_HASH160 7bf0e97d976eb929eaf70e27b1ce51a322dae34e OP_EQUALVERIFY OP_CHECKSIG", "type": "pubkeyhash"}, "value": 0.17981496, "n": 1}], "hex": "01000000010cb67a0d5bd8d73e64cae71b3a3d94793328ffd25151e18f960d88ac845b8948010000006b4830450221008aec969a1a15604b5a75fb90217181e88893f59c9c130fa6729419de17f8faa3022024996b8ca30040c1f39810b26170943d55f1fdc11032ff60452921bfd970c398012103fc107980e6e3bca13660aadf5c5988aa3c6ff7513fb3e7a3cac8cee84c98fb28ffffffff02302023000000000017a914e1b34d8e2a171617bc437a7408c8590bc5f836d88738601201000000001976a9147bf0e97d976eb929eaf70e27b1ce51a322dae34e88ac00000000", "vin": [{"sequence": 4294967295, "scriptSig": {"hex": "4830450221008aec969a1a15604b5a75fb90217181e88893f59c9c130fa6729419de17f8faa3022024996b8ca30040c1f39810b26170943d55f1fdc11032ff60452921bfd970c398012103fc107980e6e3bca13660aadf5c5988aa3c6ff7513fb3e7a3cac8cee84c98fb28", "asm": "30450221008aec969a1a15604b5a75fb90217181e88893f59c9c130fa6729419de17f8faa3022024996b8ca30040c1f39810b26170943d55f1fdc11032ff60452921bfd970c398[ALL] 03fc107980e6e3bca13660aadf5c5988aa3c6ff7513fb3e7a3cac8cee84c98fb28"}, "vout": 1, "txid": "48895b84ac880d968fe15151d2ff283379943d3a1be7ca643ed7d85b0d7ab60c"}], "txid": "330ed816e7897720483f5eaa5264eb66c5d31c36ca60812268c25cbebc36a168", "blocktime": 1537873282, "version": 1, "confirmations": 11484, "time": 1537873282, "locktime": 0, "vsize": 224, "size": 224}