{"hash": "330f74d0ce04d451b3c87842fb4220ccde669ac69f1ea1827d804071aff5ad5d", "blockhash": "0000000000000000000e13cef7c366c0283d82e591d1acd082e914b08063cdf1", "vout": [{"scriptPubKey": {"reqSigs": 1, "hex": "76a914fb0d0e65d6cb269ff3c1987561183460c1c8dfd488ac", "addresses": ["1PtSFK9uwCqbu5j8h8U9EdnYRD3M4Lsbh3"], "asm": "OP_DUP OP_HASH160 fb0d0e65d6cb269ff3c1987561183460c1c8dfd4 OP_EQUALVERIFY OP_CHECKSIG", "type": "pubkeyhash"}, "value": 0.0147948, "n": 0}, {"scriptPubKey": {"type": "nulldata", "hex": "6a4c50000077920001a0817281676d533cf647e040e3ef3236678a625097bcbefa6b8351586b4e2b5d7f7fe12a80b4161f8a251134e4055baa0c830614a9679223e896bc9a9526289ac0f6612cd74e33776ee4", "asm": "OP_RETURN 000077920001a0817281676d533cf647e040e3ef3236678a625097bcbefa6b8351586b4e2b5d7f7fe12a80b4161f8a251134e4055baa0c830614a9679223e896bc9a9526289ac0f6612cd74e33776ee4"}, "value": 0.0, "n": 1}], "hex": "0100000001596ede00b27ea7949896a6a6048a18aa0b9e4780df4363af9b17a3621f373ccd000000006a47304402203732c38974489ba7d32c790cbb8448c4d142956f41438c531acec4d5a997c33802207454c2da97f5edcd9b4b2fe1e94ac3f18b052f575567966ad1a3ef6872e14e4b012102df237cd0317db4887a0d64629e1d35bd81d76c7dcc92f1837894143aee14178affffffff0238931600000000001976a914fb0d0e65d6cb269ff3c1987561183460c1c8dfd488ac0000000000000000536a4c50000077920001a0817281676d533cf647e040e3ef3236678a625097bcbefa6b8351586b4e2b5d7f7fe12a80b4161f8a251134e4055baa0c830614a9679223e896bc9a9526289ac0f6612cd74e33776ee400000000", "vin": [{"sequence": 4294967295, "scriptSig": {"hex": "47304402203732c38974489ba7d32c790cbb8448c4d142956f41438c531acec4d5a997c33802207454c2da97f5edcd9b4b2fe1e94ac3f18b052f575567966ad1a3ef6872e14e4b012102df237cd0317db4887a0d64629e1d35bd81d76c7dcc92f1837894143aee14178a", "asm": "304402203732c38974489ba7d32c790cbb8448c4d142956f41438c531acec4d5a997c33802207454c2da97f5edcd9b4b2fe1e94ac3f18b052f575567966ad1a3ef6872e14e4b[ALL] 02df237cd0317db4887a0d64629e1d35bd81d76c7dcc92f1837894143aee14178a"}, "vout": 0, "txid": "cd3c371f62a3179baf6343df80479e0baa188a04a6a6969894a77eb200de6e59"}], "txid": "330f74d0ce04d451b3c87842fb4220ccde669ac69f1ea1827d804071aff5ad5d", "blocktime": 1537871767, "version": 1, "confirmations": 11493, "time": 1537871767, "locktime": 0, "vsize": 283, "size": 283}