{"hash": "3313ca4a08738a16c500353243be28fb1e491f0f718fc07463393d9b5c037730", "blockhash": "0000000000000000001f76057863aec43deb6fa401d9628bb513d65a8098bfab", "vout": [{"scriptPubKey": {"reqSigs": 1, "hex": "a9145f45c70b10ae49f8ecd9151da8be1ca46013ffa387", "addresses": ["3ANmhzcnfUqk8suxoZjw25VGNRdS2FEQHC"], "asm": "OP_HASH160 5f45c70b10ae49f8ecd9151da8be1ca46013ffa3 OP_EQUAL", "type": "scripthash"}, "value": 0.0031218, "n": 0}, {"scriptPubKey": {"reqSigs": 1, "hex": "76a914ae4cba7e5d0c1ebef0c82053b25438bc8ff9f95a88ac", "addresses": ["1GtcVZv2FzSuyQGoY3CYDo7xiZWQP3D11M"], "asm": "OP_DUP OP_HASH160 ae4cba7e5d0c1ebef0c82053b25438bc8ff9f95a OP_EQUALVERIFY OP_CHECKSIG", "type": "pubkeyhash"}, "value": 0.00434447, "n": 1}], "hex": "0100000001808b426956b506a9a04e117e68c6cedab63aa630196b8b6fdb23c4acde133670000000006b483045022100c5f988cd8242ec68da237fed58793185d68f523980ea8ccd2bde1b1a95dbf75e022043f54742963ff3d1a145d5a746c285b836b7321e05e9feaf9a71e997a74fa10601210373a45c521021929ef198ed8632bcf8d7cf5af147851b85027e13e3620ffc216effffffff0274c304000000000017a9145f45c70b10ae49f8ecd9151da8be1ca46013ffa3870fa10600000000001976a914ae4cba7e5d0c1ebef0c82053b25438bc8ff9f95a88ac00000000", "vin": [{"sequence": 4294967295, "scriptSig": {"hex": "483045022100c5f988cd8242ec68da237fed58793185d68f523980ea8ccd2bde1b1a95dbf75e022043f54742963ff3d1a145d5a746c285b836b7321e05e9feaf9a71e997a74fa10601210373a45c521021929ef198ed8632bcf8d7cf5af147851b85027e13e3620ffc216e", "asm": "3045022100c5f988cd8242ec68da237fed58793185d68f523980ea8ccd2bde1b1a95dbf75e022043f54742963ff3d1a145d5a746c285b836b7321e05e9feaf9a71e997a74fa106[ALL] 0373a45c521021929ef198ed8632bcf8d7cf5af147851b85027e13e3620ffc216e"}, "vout": 0, "txid": "703613deacc423db6f8b6b1930a63ab6dacec6687e114ea0a906b55669428b80"}], "txid": "3313ca4a08738a16c500353243be28fb1e491f0f718fc07463393d9b5c037730", "blocktime": 1537873891, "version": 1, "confirmations": 11478, "time": 1537873891, "locktime": 0, "vsize": 224, "size": 224}