{"hash": "b425a9f62def599d5cf1651657a012c0e5d6f4a44b34a46d32410f8ebd699e88", "blockhash": "00000000000000000017f5eb5941039fbcee6240d03bc1f2f8e35350df66a1d8", "vout": [{"scriptPubKey": {"reqSigs": 1, "hex": "a914534b497497fe4bb258d451b410205205d97fb68f87", "addresses": ["39HSCVatxygD6Eb33awTh5yo4mCsSN9nUT"], "asm": "OP_HASH160 534b497497fe4bb258d451b410205205d97fb68f OP_EQUAL", "type": "scripthash"}, "value": 0.01171438, "n": 0}, {"scriptPubKey": {"reqSigs": 1, "hex": "00140babdc1889c59789688315c2f3d549f63eea9024", "addresses": ["bc1qpw4acxyfcktcj6yrzhp0842f7clw4ypyqxl4vz"], "asm": "0 0babdc1889c59789688315c2f3d549f63eea9024", "type": "witness_v0_keyhash"}, "value": 0.00199634, "n": 1}], "hex": "010000000001020c9557ead48693bd956bb80bd9de2a0d24cd62fa6eea0b402001c64d43998cb60100000000ffffffff832505fa4284f91d84d0061c5a628d7bb0b69febf9b1e75059061f5805d3d7e8000000001716001485eb2cb23d37e06449c1c8baad4f16f87e039871ffffffff02eedf11000000000017a914534b497497fe4bb258d451b410205205d97fb68f87d20b0300000000001600140babdc1889c59789688315c2f3d549f63eea9024024730440220510baac74cb212fdaefd41405bb173904a8fd8f08eb7a25c1e292d76ec9a9caa02201c0192c89e29033f70f00303aa5204d0d717d00ac3ffdda4f58c125cfd6ae3f8012102ec0ae16e73b6382c6a15ac32f68c4f2d9dcd8121defc20512e806be53c9405b80247304402200ea0b44c00c9d355f130c5fc3847887a0676f0d3191ec7b144df88727f2683d20220490e2793d3a6203bdf79afbaf06028ab98b806e4e0cadcbe98708181e908462a012102468b4281eb14d812fed6c28b2cc88030be6a495d1ad094f9e34314d3b9ede12600000000", "vin": [{"txinwitness": ["30440220510baac74cb212fdaefd41405bb173904a8fd8f08eb7a25c1e292d76ec9a9caa02201c0192c89e29033f70f00303aa5204d0d717d00ac3ffdda4f58c125cfd6ae3f801", "02ec0ae16e73b6382c6a15ac32f68c4f2d9dcd8121defc20512e806be53c9405b8"], "sequence": 4294967295, "scriptSig": {"hex": "", "asm": ""}, "vout": 1, "txid": "b68c99434dc60120400bea6efa62cd240d2aded90bb86b95bd9386d4ea57950c"}, {"txinwitness": ["304402200ea0b44c00c9d355f130c5fc3847887a0676f0d3191ec7b144df88727f2683d20220490e2793d3a6203bdf79afbaf06028ab98b806e4e0cadcbe98708181e908462a01", "02468b4281eb14d812fed6c28b2cc88030be6a495d1ad094f9e34314d3b9ede126"], "sequence": 4294967295, "scriptSig": {"hex": "16001485eb2cb23d37e06449c1c8baad4f16f87e039871", "asm": "001485eb2cb23d37e06449c1c8baad4f16f87e039871"}, "vout": 0, "txid": "e8d7d305581f065950e7b1f9eb9fb6b07b8d625a1c06d0841df98442fa052583"}], "txid": "331ae61bd981a18fa70ee872036209adb7c45bf48bffadfeaed7b46316320701", "blocktime": 1537874412, "version": 1, "confirmations": 11468, "time": 1537874412, "locktime": 0, "vsize": 232, "size": 394}