{"hash": "331a31e972ac935d99c6811357d4de2b57f45ad368c1f68b01ebc1e154ec98d5", "blockhash": "0000000000000000000e13cef7c366c0283d82e591d1acd082e914b08063cdf1", "vout": [{"scriptPubKey": {"reqSigs": 1, "hex": "76a914fdb5dec2ae70530b21f100237d4a531b0358a7ff88ac", "addresses": ["1Q8Vq6QaM751RMVjyLyD8MLSu1AsX8v7HB"], "asm": "OP_DUP OP_HASH160 fdb5dec2ae70530b21f100237d4a531b0358a7ff OP_EQUALVERIFY OP_CHECKSIG", "type": "pubkeyhash"}, "value": 0.005, "n": 0}, {"scriptPubKey": {"reqSigs": 1, "hex": "76a914c899bd45ee24d0aa52e75306e3a33f6ef93cb77e88ac", "addresses": ["1KHgKN53hcWmL82NMEFGJ4174oPPZKGh8k"], "asm": "OP_DUP OP_HASH160 c899bd45ee24d0aa52e75306e3a33f6ef93cb77e OP_EQUALVERIFY OP_CHECKSIG", "type": "pubkeyhash"}, "value": 0.1579402, "n": 1}], "hex": "0100000001180e76555f806de81cd79c755d904f02b3c73600302de8a273de714b32f11bf6010000006a473044022051c489ac9942e25aa9c3f2867001ee0bb957c5f0119aada4201ba15b4abe0790022009927e1966ddad98aa82ebace59ff0824acd9a051887636f15e664e2a06e24e501210295b6e91eba7a3b0706423dea7f9a0c6076b124f49070ca6245049df24e08b499fdffffff0220a10700000000001976a914fdb5dec2ae70530b21f100237d4a531b0358a7ff88ac64fff000000000001976a914c899bd45ee24d0aa52e75306e3a33f6ef93cb77e88ac10490800", "vin": [{"sequence": 4294967293, "scriptSig": {"hex": "473044022051c489ac9942e25aa9c3f2867001ee0bb957c5f0119aada4201ba15b4abe0790022009927e1966ddad98aa82ebace59ff0824acd9a051887636f15e664e2a06e24e501210295b6e91eba7a3b0706423dea7f9a0c6076b124f49070ca6245049df24e08b499", "asm": "3044022051c489ac9942e25aa9c3f2867001ee0bb957c5f0119aada4201ba15b4abe0790022009927e1966ddad98aa82ebace59ff0824acd9a051887636f15e664e2a06e24e5[ALL] 0295b6e91eba7a3b0706423dea7f9a0c6076b124f49070ca6245049df24e08b499"}, "vout": 1, "txid": "f61bf1324b71de73a2e82d300036c7b3024f905d759cd71ce86d805f55760e18"}], "txid": "331a31e972ac935d99c6811357d4de2b57f45ad368c1f68b01ebc1e154ec98d5", "blocktime": 1537871767, "version": 1, "confirmations": 11491, "time": 1537871767, "locktime": 542992, "vsize": 225, "size": 225}