{"hash": "088d5ff7514c761cb920109fd34a190cd57cd91b4273a6bd7e55c042d2f9eb6e", "blockhash": "0000000000000000001cda96e906b7601b7a6fb1a3b62bca570a9e5d8f4b3de1", "vout": [{"scriptPubKey": {"reqSigs": 1, "hex": "a9141ff838ee91b68041fc128c94c45e6ea2b95979b987", "addresses": ["34c4EHTQrF7fWWCmZgYDBiyQJeDvxS7hkU"], "asm": "OP_HASH160 1ff838ee91b68041fc128c94c45e6ea2b95979b9 OP_EQUAL", "type": "scripthash"}, "value": 0.01788593, "n": 0}, {"scriptPubKey": {"reqSigs": 1, "hex": "a914a07e37c236acc95d1f85176d0e96c99f51d6f17087", "addresses": ["3GKdF1AQ7Xa3uVPT3DdHY4GwVix5fM9aEx"], "asm": "OP_HASH160 a07e37c236acc95d1f85176d0e96c99f51d6f170 OP_EQUAL", "type": "scripthash"}, "value": 0.00999704, "n": 1}], "hex": "020000000001035f9ea72f1d929d7745b99f8cc41cb116f24159c514a214e4f311ddf4c37d28d701000000171600144fc3720ee0ba7961b24056d515eaa9c2434c64e4feffffff9fa51143760a41add3f4c41ba59ec2e7b2c42346668b092c31d89b5e03c003e5000000001716001468e1e391eeecaa15c59633901fea6295815afc92fefffffff22ab4f15bf6e4a8180f02120baad1708f0eff2cbd435cfe12527af272d9cdc50000000017160014b8521d9c1912966052a8510c585292a30238f078feffffff02b14a1b000000000017a9141ff838ee91b68041fc128c94c45e6ea2b95979b98718410f000000000017a914a07e37c236acc95d1f85176d0e96c99f51d6f1708702483045022100d578772511ec91db6ffa36146c1f53dd6a6a88d594eae0a3330a4671d8d6b0b5022048a88bf5d0b6e16ca3a8f101484cfe51befa6a2120a6cb9da3dee4799e7893320121026e2d0d3d866d0e514d21aa8212dd7092a424ab310b4cf82a96f35ab1bffd5cd30247304402206947b830a18cf829ffcd789d1d1715d6c9085b12e6cc24056e7339836109df1b0220488dcad1c47343813941e0583cf713feb788b78827927169f908743cf15fce6d01210328a604632275193e4b7e61687a8476984d54d99d8cf23f4e5effb94d55d2350602473044022069e974a69f6400b77ed835777b5e84b7cd5b1953bcddd4b1f18f8e83fa87179f0220434b74d02d861630f112fe4ee45e48a27b94c4f0c6f10439524a65475adbfb440121023aa5952c7cd0d371984a046b09820c3e100f104c70b90b83d2abae042015824a13490800", "vin": [{"txinwitness": ["3045022100d578772511ec91db6ffa36146c1f53dd6a6a88d594eae0a3330a4671d8d6b0b5022048a88bf5d0b6e16ca3a8f101484cfe51befa6a2120a6cb9da3dee4799e78933201", "026e2d0d3d866d0e514d21aa8212dd7092a424ab310b4cf82a96f35ab1bffd5cd3"], "sequence": 4294967294, "scriptSig": {"hex": "1600144fc3720ee0ba7961b24056d515eaa9c2434c64e4", "asm": "00144fc3720ee0ba7961b24056d515eaa9c2434c64e4"}, "vout": 1, "txid": "d7287dc3f4dd11f3e414a214c55941f216b11cc48c9fb945779d921d2fa79e5f"}, {"txinwitness": ["304402206947b830a18cf829ffcd789d1d1715d6c9085b12e6cc24056e7339836109df1b0220488dcad1c47343813941e0583cf713feb788b78827927169f908743cf15fce6d01", "0328a604632275193e4b7e61687a8476984d54d99d8cf23f4e5effb94d55d23506"], "sequence": 4294967294, "scriptSig": {"hex": "16001468e1e391eeecaa15c59633901fea6295815afc92", "asm": "001468e1e391eeecaa15c59633901fea6295815afc92"}, "vout": 0, "txid": "e503c0035e9bd8312c098b664623c4b2e7c29ea51bc4f4d3ad410a764311a59f"}, {"txinwitness": ["3044022069e974a69f6400b77ed835777b5e84b7cd5b1953bcddd4b1f18f8e83fa87179f0220434b74d02d861630f112fe4ee45e48a27b94c4f0c6f10439524a65475adbfb4401", "023aa5952c7cd0d371984a046b09820c3e100f104c70b90b83d2abae042015824a"], "sequence": 4294967294, "scriptSig": {"hex": "160014b8521d9c1912966052a8510c585292a30238f078", "asm": "0014b8521d9c1912966052a8510c585292a30238f078"}, "vout": 0, "txid": "c5cdd972f27a5212fe5c43bd2cff0e8f70d1aa0b12020f18a8e4f65bf1b42af2"}], "txid": "331cb6fc25f0fa23566e0be44a482ae00f7f6eaa4eb2abbb1eb4186f7dc02a3e", "blocktime": 1537873282, "version": 2, "confirmations": 11485, "time": 1537873282, "locktime": 542995, "vsize": 347, "size": 590}