{"hash": "331cf7fcdfbd2f4ec4fe87898610c5a5de298dd443188540ab894cd8345d5429", "blockhash": "0000000000000000000e13cef7c366c0283d82e591d1acd082e914b08063cdf1", "vout": [{"scriptPubKey": {"reqSigs": 1, "hex": "76a9146e144d261e65ed9c0f5424a39bd36ee3e939d30188ac", "addresses": ["1B33efZHQkZoT9WF3ZTwRUuZrTwFpbGjQg"], "asm": "OP_DUP OP_HASH160 6e144d261e65ed9c0f5424a39bd36ee3e939d301 OP_EQUALVERIFY OP_CHECKSIG", "type": "pubkeyhash"}, "value": 0.003, "n": 0}, {"scriptPubKey": {"reqSigs": 1, "hex": "76a914ee6f46c79e7436a529e7c583c86ccc422604756788ac", "addresses": ["1Njj8HK93CDCYmyDuYZ1ARRUA71eYMy9dU"], "asm": "OP_DUP OP_HASH160 ee6f46c79e7436a529e7c583c86ccc4226047567 OP_EQUALVERIFY OP_CHECKSIG", "type": "pubkeyhash"}, "value": 0.003, "n": 1}, {"scriptPubKey": {"reqSigs": 1, "hex": "76a9140ecc009c53f098762874622ccae9255813a5354088ac", "addresses": ["12MEr29nqq9uBQZhv7jf4tvMagE9Xpcc7A"], "asm": "OP_DUP OP_HASH160 0ecc009c53f098762874622ccae9255813a53540 OP_EQUALVERIFY OP_CHECKSIG", "type": "pubkeyhash"}, "value": 0.00301, "n": 2}, {"scriptPubKey": {"reqSigs": 1, "hex": "76a914d5c02a1bf401162650242f2d486fa733c586ccc588ac", "addresses": ["1LVD8gbSHy4seXPtNrFKD1Hi6uZTy7DQTQ"], "asm": "OP_DUP OP_HASH160 d5c02a1bf401162650242f2d486fa733c586ccc5 OP_EQUALVERIFY OP_CHECKSIG", "type": "pubkeyhash"}, "value": 0.00302, "n": 3}, {"scriptPubKey": {"reqSigs": 1, "hex": "76a914970494be93c860fcb8b44fabb6093fe26858972988ac", "addresses": ["1EmWXGCrbfijoo6XAXAtVuMhS8MHzxvFTV"], "asm": "OP_DUP OP_HASH160 970494be93c860fcb8b44fabb6093fe268589729 OP_EQUALVERIFY OP_CHECKSIG", "type": "pubkeyhash"}, "value": 0.00445, "n": 4}, {"scriptPubKey": {"reqSigs": 1, "hex": "a9145c999a4b262c776fe6e7409a50e73cdc212c1c8487", "addresses": ["3A8e6hHsjUkQtuTJ1oV6VSMwV4p5FBbHyy"], "asm": "OP_HASH160 5c999a4b262c776fe6e7409a50e73cdc212c1c84 OP_EQUAL", "type": "scripthash"}, "value": 0.00544, "n": 5}, {"scriptPubKey": {"reqSigs": 1, "hex": "a914ada6a00667566213af37b3a0c72ed91ce6f6a7a987", "addresses": ["3HXCS3aCkVxCnybje7TikbZj92B5i4DLCZ"], "asm": "OP_HASH160 ada6a00667566213af37b3a0c72ed91ce6f6a7a9 OP_EQUAL", "type": "scripthash"}, "value": 0.01002999, "n": 6}, {"scriptPubKey": {"reqSigs": 1, "hex": "76a9147eda0e9066a6970c1ccc840d4b86b814a381da6788ac", "addresses": ["1CZjN2gdujmPhf97rsDruyNtUe67nUsXUJ"], "asm": "OP_DUP OP_HASH160 7eda0e9066a6970c1ccc840d4b86b814a381da67 OP_EQUALVERIFY OP_CHECKSIG", "type": "pubkeyhash"}, "value": 0.32321068, "n": 7}], "hex": "01000000012a83b9f31266cdfd6eb00e7fa3532db84770d90e6c306d70aff943e8be1edf1e080000006b483045022100feb8a73592ccfd0e1329653180f64637a98a78256f35c383e0ee4c5983b5ba420220117e5f91dd74eabc237f8bee885e5dcd06342d18edba13cc4a62efc190759e00012103c1a6e0d6eac046e0454538721c56db7476a7305b93f7daa09e0e5d98ca5a8140ffffffff08e0930400000000001976a9146e144d261e65ed9c0f5424a39bd36ee3e939d30188ace0930400000000001976a914ee6f46c79e7436a529e7c583c86ccc422604756788acc8970400000000001976a9140ecc009c53f098762874622ccae9255813a5354088acb09b0400000000001976a914d5c02a1bf401162650242f2d486fa733c586ccc588ac48ca0600000000001976a914970494be93c860fcb8b44fabb6093fe26858972988ac004d08000000000017a9145c999a4b262c776fe6e7409a50e73cdc212c1c8487f74d0f000000000017a914ada6a00667566213af37b3a0c72ed91ce6f6a7a9872c2eed01000000001976a9147eda0e9066a6970c1ccc840d4b86b814a381da6788ac00000000", "vin": [{"sequence": 4294967295, "scriptSig": {"hex": "483045022100feb8a73592ccfd0e1329653180f64637a98a78256f35c383e0ee4c5983b5ba420220117e5f91dd74eabc237f8bee885e5dcd06342d18edba13cc4a62efc190759e00012103c1a6e0d6eac046e0454538721c56db7476a7305b93f7daa09e0e5d98ca5a8140", "asm": "3045022100feb8a73592ccfd0e1329653180f64637a98a78256f35c383e0ee4c5983b5ba420220117e5f91dd74eabc237f8bee885e5dcd06342d18edba13cc4a62efc190759e00[ALL] 03c1a6e0d6eac046e0454538721c56db7476a7305b93f7daa09e0e5d98ca5a8140"}, "vout": 8, "txid": "1edf1ebee843f9af706d306c0ed97047b82d53a37f0eb06efdcd6612f3b9832a"}], "txid": "331cf7fcdfbd2f4ec4fe87898610c5a5de298dd443188540ab894cd8345d5429", "blocktime": 1537871767, "version": 1, "confirmations": 11493, "time": 1537871767, "locktime": 0, "vsize": 426, "size": 426}