{"hash": "33232839a3c6c9422a02e80d93803ddd2f13eff44cde8d72fbd47e3621d2678a", "blockhash": "0000000000000000000baef3f32e3676a92c3b2e5da21b426e4f302fc371ce76", "vout": [{"scriptPubKey": {"reqSigs": 1, "hex": "76a914882cc4f54c2ea08d18892bb11ab27fc43e466e7188ac", "addresses": ["1DR2XiiEjs91cTtp1LxyqEKm5ihNABmRZ7"], "asm": "OP_DUP OP_HASH160 882cc4f54c2ea08d18892bb11ab27fc43e466e71 OP_EQUALVERIFY OP_CHECKSIG", "type": "pubkeyhash"}, "value": 0.10993076, "n": 0}, {"scriptPubKey": {"type": "nulldata", "hex": "6a146f6d6e69000000000000001f000000078546ca31", "asm": "OP_RETURN 6f6d6e69000000000000001f000000078546ca31"}, "value": 0.0, "n": 1}, {"scriptPubKey": {"reqSigs": 1, "hex": "76a91428677e5838448b19be97f73038d4d4d7b43b235088ac", "addresses": ["14ge1XjurQ6gaFvuTFJTxvSPVssH7waHDR"], "asm": "OP_DUP OP_HASH160 28677e5838448b19be97f73038d4d4d7b43b2350 OP_EQUALVERIFY OP_CHECKSIG", "type": "pubkeyhash"}, "value": 5.46e-06, "n": 2}], "hex": "0100000001c82ba12f6f5dd613854ff80ddd62c16c5d55161d3840e6abda0ef15e8c01e08e020000006b483045022100e55e89d32fd0577eb5d9dceea1e0d27c9f05ebdef389de7da0fa6354965c8b04022018b160d0a1bb0fdcfa2d366c1ab89514a05dd203408623e90bde70cd03c1c5ee012102d7800c61a710c2c233322b2fbdcbbd492c162678a6cf6e859c3b7322e14189eefeffffff03b4bda700000000001976a914882cc4f54c2ea08d18892bb11ab27fc43e466e7188ac0000000000000000166a146f6d6e69000000000000001f000000078546ca3122020000000000001976a91428677e5838448b19be97f73038d4d4d7b43b235088ac17490800", "vin": [{"sequence": 4294967294, "scriptSig": {"hex": "483045022100e55e89d32fd0577eb5d9dceea1e0d27c9f05ebdef389de7da0fa6354965c8b04022018b160d0a1bb0fdcfa2d366c1ab89514a05dd203408623e90bde70cd03c1c5ee012102d7800c61a710c2c233322b2fbdcbbd492c162678a6cf6e859c3b7322e14189ee", "asm": "3045022100e55e89d32fd0577eb5d9dceea1e0d27c9f05ebdef389de7da0fa6354965c8b04022018b160d0a1bb0fdcfa2d366c1ab89514a05dd203408623e90bde70cd03c1c5ee[ALL] 02d7800c61a710c2c233322b2fbdcbbd492c162678a6cf6e859c3b7322e14189ee"}, "vout": 2, "txid": "8ee0018c5ef10edaabe640381d16555d6cc162dd0df84f8513d65d6f2fa12bc8"}], "txid": "33232839a3c6c9422a02e80d93803ddd2f13eff44cde8d72fbd47e3621d2678a", "blocktime": 1537876114, "version": 1, "confirmations": 11459, "time": 1537876114, "locktime": 542999, "vsize": 257, "size": 257}