{"hash": "d0b2bfaaca6e4dbccd154adc11a0ffa2f7017f45d79fdaaf3b4c10c12c64d9be", "blockhash": "0000000000000000001f76057863aec43deb6fa401d9628bb513d65a8098bfab", "vout": [{"scriptPubKey": {"reqSigs": 1, "hex": "a914dd9dc6a441b75c3a3cf7d52601fba93d55728ce687", "addresses": ["3MtpGQL5k6tYHku7eJBRa35C5DZGaJGvFy"], "asm": "OP_HASH160 dd9dc6a441b75c3a3cf7d52601fba93d55728ce6 OP_EQUAL", "type": "scripthash"}, "value": 0.34686368, "n": 0}, {"scriptPubKey": {"reqSigs": 1, "hex": "76a9143e8ad3e5fe06aecc0d7f8ecfd6d7b4b054a83dc288ac", "addresses": ["16hhCpAQraqhGNEoTsTYR8roQWEvorQZXY"], "asm": "OP_DUP OP_HASH160 3e8ad3e5fe06aecc0d7f8ecfd6d7b4b054a83dc2 OP_EQUALVERIFY OP_CHECKSIG", "type": "pubkeyhash"}, "value": 0.02059917, "n": 1}, {"scriptPubKey": {"reqSigs": 1, "hex": "76a914b4b0b9cf26f147ee7598d917053ffe02f942c96d88ac", "addresses": ["1HUQLexoK5ejs8bvTujk5DKZfKnAbgpjYq"], "asm": "OP_DUP OP_HASH160 b4b0b9cf26f147ee7598d917053ffe02f942c96d OP_EQUALVERIFY OP_CHECKSIG", "type": "pubkeyhash"}, "value": 0.01545624, "n": 2}, {"scriptPubKey": {"reqSigs": 1, "hex": "76a9149661a2c230865b5e57ee18a255a4c24cca1ddfc188ac", "addresses": ["1Ei9KdNqRE7H562sWehHFuDjSU491sj6Gb"], "asm": "OP_DUP OP_HASH160 9661a2c230865b5e57ee18a255a4c24cca1ddfc1 OP_EQUALVERIFY OP_CHECKSIG", "type": "pubkeyhash"}, "value": 0.03728801, "n": 3}, {"scriptPubKey": {"reqSigs": 1, "hex": "76a914cd90a63139914a34bf3fe14a21fd20f3cf3754c888ac", "addresses": ["1KjvojApPAmLQxBXPXcpe39KZDSWBQFxUo"], "asm": "OP_DUP OP_HASH160 cd90a63139914a34bf3fe14a21fd20f3cf3754c8 OP_EQUALVERIFY OP_CHECKSIG", "type": "pubkeyhash"}, "value": 0.01791624, "n": 4}, {"scriptPubKey": {"reqSigs": 1, "hex": "a9143cf8bfb947b249c634ce452e2080b67c4ab2e12887", "addresses": ["37FQTRzACeC2Se7pgXN1WJH7YA75QsHNXJ"], "asm": "OP_HASH160 3cf8bfb947b249c634ce452e2080b67c4ab2e128 OP_EQUAL", "type": "scripthash"}, "value": 0.84886505, "n": 5}], "hex": "0200000000010189f6c68d35a5d73e1b27f7f2260a5f28e3aac962827ca39a3ec6a5c23e57ddca050000001716001408252a4f60bea213aa3fc4dba2f2993664f75faffdffffff06a04511020000000017a914dd9dc6a441b75c3a3cf7d52601fba93d55728ce6878d6e1f00000000001976a9143e8ad3e5fe06aecc0d7f8ecfd6d7b4b054a83dc288ac98951700000000001976a914b4b0b9cf26f147ee7598d917053ffe02f942c96d88aca1e53800000000001976a9149661a2c230865b5e57ee18a255a4c24cca1ddfc188ac88561b00000000001976a914cd90a63139914a34bf3fe14a21fd20f3cf3754c888ace9430f050000000017a9143cf8bfb947b249c634ce452e2080b67c4ab2e1288702483045022100e0f63a9ef4ebe64f55ec8fbd3145c78abfb123847ccd5878ca30fac6f28f474e02205035d3b1c492076fe954df7ea0489e8e2e3b6dba4e24d46cc0c7a1974d17c10a012103f2cb5adb168d38a6dadfad9a4b2561022688477fbd8b86a423756853b57bb56e01000000", "vin": [{"txinwitness": ["3045022100e0f63a9ef4ebe64f55ec8fbd3145c78abfb123847ccd5878ca30fac6f28f474e02205035d3b1c492076fe954df7ea0489e8e2e3b6dba4e24d46cc0c7a1974d17c10a01", "03f2cb5adb168d38a6dadfad9a4b2561022688477fbd8b86a423756853b57bb56e"], "sequence": 4294967293, "scriptSig": {"hex": "16001408252a4f60bea213aa3fc4dba2f2993664f75faf", "asm": "001408252a4f60bea213aa3fc4dba2f2993664f75faf"}, "vout": 5, "txid": "cadd573ec2a5c63e9aa37c8262c9aae3285f0a26f2f7271b3ed7a5358dc6f689"}], "txid": "3323997bda629e7f4c26137d535d9e04ab85ed4bb9243723d3e35761c2c1a425", "blocktime": 1537873891, "version": 2, "confirmations": 11474, "time": 1537873891, "locktime": 1, "vsize": 302, "size": 384}