{"hash": "3323ab5cd217a301544ddbe0a8685bbd6b8b31b5d2029fda0394c1cfebd83ed3", "blockhash": "00000000000000000018f53835495a110e01622372bf6ae95dc86f2b0ab887b0", "vout": [{"scriptPubKey": {"reqSigs": 1, "hex": "76a914ba50d1ff9da7869865a2fe1919989f67aae0823288ac", "addresses": ["1Hz9WB5hKJt2nhCRtqqpaChA1CsSKizsKM"], "asm": "OP_DUP OP_HASH160 ba50d1ff9da7869865a2fe1919989f67aae08232 OP_EQUALVERIFY OP_CHECKSIG", "type": "pubkeyhash"}, "value": 0.06190593, "n": 0}, {"scriptPubKey": {"reqSigs": 1, "hex": "76a9144edc06216522f7c1130163f32c937a648f46af3a88ac", "addresses": ["18ByHVguyXCXZvj62KmiiYkH6GEVgaPLUF"], "asm": "OP_DUP OP_HASH160 4edc06216522f7c1130163f32c937a648f46af3a OP_EQUALVERIFY OP_CHECKSIG", "type": "pubkeyhash"}, "value": 0.473, "n": 1}], "hex": "0100000004afccd6f17323214c8deb5cca7b66da433671aabbc84c31d4c611d464ee2f9f6f000000006a473044022056b583140eb6639e29bb18ea6394601e71c537db265bafd45abc81d9e9fcf3f0022048e1ce1957ecf3bc2e29e6327c341348f1d4b38c49c9a7531e3a3f8d6a627e19012103937a3612a9e7e0be267b65257f9d0f4b01b42e8791b0ec97e6264e6a86424ca1ffffffff266a170fffdc939abcf75f303c223bc80e280de3b764f4a2b36453281bc219a2010000006b483045022100c0c76b5f94a6e27bac5a0f9c078ce069198ecfacb71693132e85e0280821a88302202b84391ab3c232305c275b931a3241d1cafe0c49b3c6f66ad94844251d82c048012103937a3612a9e7e0be267b65257f9d0f4b01b42e8791b0ec97e6264e6a86424ca1ffffffffdbf88764e3d550129071dcb9a43f8129a4c2b8f70e8a1ca58c1312d078ce65cf010000006a47304402204a621150e606c81f01beec08b2bd9d3cb98aafc773bf7bf43760bb86454843cc02204053e40abec843e7ed38837f286a7efee589e297851b1be13f0c10a2a71ff8cc012103937a3612a9e7e0be267b65257f9d0f4b01b42e8791b0ec97e6264e6a86424ca1ffffffff0d70b8ef03a00aa5e8bfc29926c78a1462ac180698af34b78b684d9f177b40ee030000006a47304402200f243c82f2912745d41407bedb8592077573ec27d1e445c29b990d9ed26657220220014624fb89f6b1a24f64eb92ad693082236cc36e8a662b0ae6c848a1cafdb06201210324449d936d0826a7de12f9442cf33e8ec6f6ed983a3ce7f712bbf92954f11712ffffffff0201765e00000000001976a914ba50d1ff9da7869865a2fe1919989f67aae0823288aca0bdd102000000001976a9144edc06216522f7c1130163f32c937a648f46af3a88ac00000000", "vin": [{"sequence": 4294967295, "scriptSig": {"hex": "473044022056b583140eb6639e29bb18ea6394601e71c537db265bafd45abc81d9e9fcf3f0022048e1ce1957ecf3bc2e29e6327c341348f1d4b38c49c9a7531e3a3f8d6a627e19012103937a3612a9e7e0be267b65257f9d0f4b01b42e8791b0ec97e6264e6a86424ca1", "asm": "3044022056b583140eb6639e29bb18ea6394601e71c537db265bafd45abc81d9e9fcf3f0022048e1ce1957ecf3bc2e29e6327c341348f1d4b38c49c9a7531e3a3f8d6a627e19[ALL] 03937a3612a9e7e0be267b65257f9d0f4b01b42e8791b0ec97e6264e6a86424ca1"}, "vout": 0, "txid": "6f9f2fee64d411c6d4314cc8bbaa713643da667bca5ceb8d4c212373f1d6ccaf"}, {"sequence": 4294967295, "scriptSig": {"hex": "483045022100c0c76b5f94a6e27bac5a0f9c078ce069198ecfacb71693132e85e0280821a88302202b84391ab3c232305c275b931a3241d1cafe0c49b3c6f66ad94844251d82c048012103937a3612a9e7e0be267b65257f9d0f4b01b42e8791b0ec97e6264e6a86424ca1", "asm": "3045022100c0c76b5f94a6e27bac5a0f9c078ce069198ecfacb71693132e85e0280821a88302202b84391ab3c232305c275b931a3241d1cafe0c49b3c6f66ad94844251d82c048[ALL] 03937a3612a9e7e0be267b65257f9d0f4b01b42e8791b0ec97e6264e6a86424ca1"}, "vout": 1, "txid": "a219c21b285364b3a2f464b7e30d280ec83b223c305ff7bc9a93dcff0f176a26"}, {"sequence": 4294967295, "scriptSig": {"hex": "47304402204a621150e606c81f01beec08b2bd9d3cb98aafc773bf7bf43760bb86454843cc02204053e40abec843e7ed38837f286a7efee589e297851b1be13f0c10a2a71ff8cc012103937a3612a9e7e0be267b65257f9d0f4b01b42e8791b0ec97e6264e6a86424ca1", "asm": "304402204a621150e606c81f01beec08b2bd9d3cb98aafc773bf7bf43760bb86454843cc02204053e40abec843e7ed38837f286a7efee589e297851b1be13f0c10a2a71ff8cc[ALL] 03937a3612a9e7e0be267b65257f9d0f4b01b42e8791b0ec97e6264e6a86424ca1"}, "vout": 1, "txid": "cf65ce78d012138ca51c8a0ef7b8c2a429813fa4b9dc71901250d5e36487f8db"}, {"sequence": 4294967295, "scriptSig": {"hex": "47304402200f243c82f2912745d41407bedb8592077573ec27d1e445c29b990d9ed26657220220014624fb89f6b1a24f64eb92ad693082236cc36e8a662b0ae6c848a1cafdb06201210324449d936d0826a7de12f9442cf33e8ec6f6ed983a3ce7f712bbf92954f11712", "asm": "304402200f243c82f2912745d41407bedb8592077573ec27d1e445c29b990d9ed26657220220014624fb89f6b1a24f64eb92ad693082236cc36e8a662b0ae6c848a1cafdb062[ALL] 0324449d936d0826a7de12f9442cf33e8ec6f6ed983a3ce7f712bbf92954f11712"}, "vout": 3, "txid": "ee407b179f4d688bb734af980618ac62148ac72699c2bfe8a50aa003efb8700d"}], "txid": "3323ab5cd217a301544ddbe0a8685bbd6b8b31b5d2029fda0394c1cfebd83ed3", "blocktime": 1537870928, "version": 1, "confirmations": 11512, "time": 1537870928, "locktime": 0, "vsize": 667, "size": 667}