{"hash": "28795a19673105038414fd3d130c906e04bd49a4bfd05d9c65dc5c3834cda028", "blockhash": "00000000000000000024a2167bbff67b0be802c0b01cdd79e6331c2be6459f87", "vout": [{"scriptPubKey": {"reqSigs": 1, "hex": "001460a9877599b5c45b37ad06a9183191229b4631fc", "addresses": ["bc1qvz5cwavekhz9kdadq653svv3y2d5vv0u0xegp8"], "asm": "0 60a9877599b5c45b37ad06a9183191229b4631fc", "type": "witness_v0_keyhash"}, "value": 0.00039106, "n": 0}, {"scriptPubKey": {"reqSigs": 1, "hex": "a91431e70cd805a5213a02741a8b94e4bcb0397a82cb87", "addresses": ["36EspbDe9ENcrL16S54co21RT9faeyQXqw"], "asm": "OP_HASH160 31e70cd805a5213a02741a8b94e4bcb0397a82cb OP_EQUAL", "type": "scripthash"}, "value": 0.00545983, "n": 1}], "hex": "01000000000101342e495f9922bb4e292e8c20051b617ef329e5d5263ef95d2f6c68bb852eccb50000000000ffffffff02c29800000000000016001460a9877599b5c45b37ad06a9183191229b4631fcbf5408000000000017a91431e70cd805a5213a02741a8b94e4bcb0397a82cb870247304402202c043902105b7a74292504ad7e86cdfb2f3a5a26e9f92a73bfd2018b6d9354030220779de229323953008be206c2ebcf2d32c82a298f019a1574b7c3d8daa5e500ed012102b828405cbd728e658f259d3fc0e85872a42ae2bf976a0749256435c3f5ff1db000000000", "vin": [{"txinwitness": ["304402202c043902105b7a74292504ad7e86cdfb2f3a5a26e9f92a73bfd2018b6d9354030220779de229323953008be206c2ebcf2d32c82a298f019a1574b7c3d8daa5e500ed01", "02b828405cbd728e658f259d3fc0e85872a42ae2bf976a0749256435c3f5ff1db0"], "sequence": 4294967295, "scriptSig": {"hex": "", "asm": ""}, "vout": 0, "txid": "b5cc2e85bb686c2f5df93e26d5e529f37e611b05208c2e294ebb22995f492e34"}], "txid": "3326f0db3a25f9a572a4bbfa7d147ba81e7ce367dcdd80a6ffa77a665a863c34", "blocktime": 1537870564, "version": 1, "confirmations": 11515, "time": 1537870564, "locktime": 0, "vsize": 142, "size": 223}