{"hash": "332a43f72b62ef2f7302d3159495be1cd84deed982c75da27bb8df5be51d3f4c", "blockhash": "0000000000000000001cda96e906b7601b7a6fb1a3b62bca570a9e5d8f4b3de1", "vout": [{"scriptPubKey": {"reqSigs": 1, "hex": "76a914c1b2bc9872874fc45a004518988149ca0c1996e288ac", "addresses": ["1JfBXsHY7xqneTTuHPDAwmczNrRhQB41TX"], "asm": "OP_DUP OP_HASH160 c1b2bc9872874fc45a004518988149ca0c1996e2 OP_EQUALVERIFY OP_CHECKSIG", "type": "pubkeyhash"}, "value": 0.034994, "n": 0}], "hex": "01000000010830faadbb464d1582cb467baa81f81ba5ebc700aafbd015619650d0a4bb4958030000006a47304402203b189890ff75ca336b945c5d11683ad30a871adfbb2deb363ce577a505381def02202dda2f654ba423cf4d10b3d4ba9e7a9d7326b532bc918618430fa1eadc35990e012102d3a1590b25e54c80fda43e17026b7984ee228664029ae6149e20e527bd5eaf73ffffffff0188653500000000001976a914c1b2bc9872874fc45a004518988149ca0c1996e288ac00000000", "vin": [{"sequence": 4294967295, "scriptSig": {"hex": "47304402203b189890ff75ca336b945c5d11683ad30a871adfbb2deb363ce577a505381def02202dda2f654ba423cf4d10b3d4ba9e7a9d7326b532bc918618430fa1eadc35990e012102d3a1590b25e54c80fda43e17026b7984ee228664029ae6149e20e527bd5eaf73", "asm": "304402203b189890ff75ca336b945c5d11683ad30a871adfbb2deb363ce577a505381def02202dda2f654ba423cf4d10b3d4ba9e7a9d7326b532bc918618430fa1eadc35990e[ALL] 02d3a1590b25e54c80fda43e17026b7984ee228664029ae6149e20e527bd5eaf73"}, "vout": 3, "txid": "5849bba4d050966115d0fbaa00c7eba51bf881aa7b46cb82154d46bbadfa3008"}], "txid": "332a43f72b62ef2f7302d3159495be1cd84deed982c75da27bb8df5be51d3f4c", "blocktime": 1537873282, "version": 1, "confirmations": 11484, "time": 1537873282, "locktime": 0, "vsize": 191, "size": 191}