{"hash": "1154d85f610784d9e6131aa083f7b05b5e939a4bc58063c99b6ba75b19845f63", "blockhash": "0000000000000000000e13cef7c366c0283d82e591d1acd082e914b08063cdf1", "vout": [{"scriptPubKey": {"reqSigs": 1, "hex": "001494d8f9cb7564d7612e16713a82b18b097500b7fe", "addresses": ["bc1qjnv0njm4vntkztskwyag9vvtp96spdl7c4pych"], "asm": "0 94d8f9cb7564d7612e16713a82b18b097500b7fe", "type": "witness_v0_keyhash"}, "value": 1.045e-05, "n": 0}, {"scriptPubKey": {"reqSigs": 1, "hex": "76a914bd90c29d5763099ba36b2ca828bb9d0cb007639488ac", "addresses": ["1JHL8Na5gK8sLPfv4HJYc7ypDgiU9Un8aC"], "asm": "OP_DUP OP_HASH160 bd90c29d5763099ba36b2ca828bb9d0cb0076394 OP_EQUALVERIFY OP_CHECKSIG", "type": "pubkeyhash"}, "value": 0.000136, "n": 1}], "hex": "0100000000010188501536e1edcd7bb9ca61f994e80fa8bcdbf43cad4459d4e5d45b0b310694c1d101000017160014dc2382d0dbf98de5d7e880ea0d72b2ce2333aa0affffffff02150400000000000016001494d8f9cb7564d7612e16713a82b18b097500b7fe20350000000000001976a914bd90c29d5763099ba36b2ca828bb9d0cb007639488ac0248304502210093c3fa7f8bf0fa42e1b9a4a2515e34663b40a21798609ef8a6ba9aa328938c3402200bcffece9727370e9bde65dbb5c8bd60fe7acad6542374e57672ae83a9ca7d3c012102ec59cd7312fa36e8701c73c6204d9d040e4f174ceb2bf14fd2159ae3f1fdd50300000000", "vin": [{"txinwitness": ["304502210093c3fa7f8bf0fa42e1b9a4a2515e34663b40a21798609ef8a6ba9aa328938c3402200bcffece9727370e9bde65dbb5c8bd60fe7acad6542374e57672ae83a9ca7d3c01", "02ec59cd7312fa36e8701c73c6204d9d040e4f174ceb2bf14fd2159ae3f1fdd503"], "sequence": 4294967295, "scriptSig": {"hex": "160014dc2382d0dbf98de5d7e880ea0d72b2ce2333aa0a", "asm": "0014dc2382d0dbf98de5d7e880ea0d72b2ce2333aa0a"}, "vout": 465, "txid": "c19406310b5bd4e5d45944ad3cf4dbbca80fe894f961cab97bcdede136155088"}], "txid": "332a09011240239189de910065f1641a08be2a848305b7dca68a3ce77c73eda7", "blocktime": 1537871767, "version": 1, "confirmations": 11495, "time": 1537871767, "locktime": 0, "vsize": 167, "size": 249}