{"hash": "42f289dd15a389d490304215ef3eaf43bc5c057385c88930d7fd7a166eec592d", "blockhash": "0000000000000000000dcc0f55137456b1a82d3642486a52398922ac4d620174", "vout": [{"scriptPubKey": {"reqSigs": 1, "hex": "a9141758fe706b1b5eaec4d7a4782da52abe82d7821c87", "addresses": ["33pU5MsQLYbrRirnAMKCPY5jomdn6Cyar6"], "asm": "OP_HASH160 1758fe706b1b5eaec4d7a4782da52abe82d7821c OP_EQUAL", "type": "scripthash"}, "value": 0.01, "n": 0}, {"scriptPubKey": {"reqSigs": 1, "hex": "a914f5d4090128d7665bb09713b9ee10e98f33410cac87", "addresses": ["3Q6qV1CxDenYQkjxb7gyqnLUXQMnZhS9w5"], "asm": "OP_HASH160 f5d4090128d7665bb09713b9ee10e98f33410cac OP_EQUAL", "type": "scripthash"}, "value": 5.75894599, "n": 1}], "hex": "02000000000101653fdf4a600a8c2092b1a0f7ac367ed4c1312bb45029ad7571b327b3a920948c01000000171600146665896a00361e1865b4ef4719920de309438896feffffff0240420f000000000017a9141758fe706b1b5eaec4d7a4782da52abe82d7821c87477453220000000017a914f5d4090128d7665bb09713b9ee10e98f33410cac87024730440220636777457e16cef3523b1f436cbb38517a33e98173d7e4d6785343fe8351b1f502205159a95c1128158b73bdac7d5819c6a9b795ce12c222e506871e2c8fcbbaab3e01210252eeacc57a84af5d8f41eeeac63de75b2e7d16ae402e64ed4c0fa650de6a6dac0b490800", "vin": [{"txinwitness": ["30440220636777457e16cef3523b1f436cbb38517a33e98173d7e4d6785343fe8351b1f502205159a95c1128158b73bdac7d5819c6a9b795ce12c222e506871e2c8fcbbaab3e01", "0252eeacc57a84af5d8f41eeeac63de75b2e7d16ae402e64ed4c0fa650de6a6dac"], "sequence": 4294967294, "scriptSig": {"hex": "1600146665896a00361e1865b4ef4719920de309438896", "asm": "00146665896a00361e1865b4ef4719920de309438896"}, "vout": 1, "txid": "8c9420a9b327b37175ad2950b42b31c1d47e36acf7a0b192208c0a604adf3f65"}], "txid": "332ca1c1dfa0d9a21e63d2575570065147c6c225c4aef323875b1eb2785d2366", "blocktime": 1537870268, "version": 2, "confirmations": 11519, "time": 1537870268, "locktime": 542987, "vsize": 166, "size": 247}