{"hash": "332dc7fbfe758590ce80b72d20d3f46ae15fb2d881a4fc687b5eadf01e244981", "blockhash": "00000000000000000024a2167bbff67b0be802c0b01cdd79e6331c2be6459f87", "vout": [{"scriptPubKey": {"reqSigs": 1, "hex": "76a914579c7ea13126c38bcc5f34b48dac752470f6fa4288ac", "addresses": ["18zFG8RRk6BfeCcUbpuRccKzBFE8p95xch"], "asm": "OP_DUP OP_HASH160 579c7ea13126c38bcc5f34b48dac752470f6fa42 OP_EQUALVERIFY OP_CHECKSIG", "type": "pubkeyhash"}, "value": 0.027, "n": 0}, {"scriptPubKey": {"reqSigs": 1, "hex": "76a914b8a59f95c06f34c706262c4ab484b2c4e78e77cc88ac", "addresses": ["1HqKk1dfSvafAZmv7ecmBqfHcUmJBRNnxk"], "asm": "OP_DUP OP_HASH160 b8a59f95c06f34c706262c4ab484b2c4e78e77cc OP_EQUALVERIFY OP_CHECKSIG", "type": "pubkeyhash"}, "value": 0.13029007, "n": 1}], "hex": "0100000001703c2b1244a1950aed487d9042fe189684de7e4a50a07d2583cb74228dd54fd1010000006a473044022075be808be414023626f0bf018bf63985b9de9d5d500e1dde9d17bdd0dbd014f3022073e75be94ae8bdeee375bbdbffda71f5c332c7975ea73bd952b6cc7f1da2060401210337b051b3238fee22305cae5efeb5a6b305387d03c401beb6b0a826cfa5c01660ffffffff02e0322900000000001976a914579c7ea13126c38bcc5f34b48dac752470f6fa4288ac8fcec600000000001976a914b8a59f95c06f34c706262c4ab484b2c4e78e77cc88ac00000000", "vin": [{"sequence": 4294967295, "scriptSig": {"hex": "473044022075be808be414023626f0bf018bf63985b9de9d5d500e1dde9d17bdd0dbd014f3022073e75be94ae8bdeee375bbdbffda71f5c332c7975ea73bd952b6cc7f1da2060401210337b051b3238fee22305cae5efeb5a6b305387d03c401beb6b0a826cfa5c01660", "asm": "3044022075be808be414023626f0bf018bf63985b9de9d5d500e1dde9d17bdd0dbd014f3022073e75be94ae8bdeee375bbdbffda71f5c332c7975ea73bd952b6cc7f1da20604[ALL] 0337b051b3238fee22305cae5efeb5a6b305387d03c401beb6b0a826cfa5c01660"}, "vout": 1, "txid": "d14fd58d2274cb83257da0504a7ede849618fe42907d48ed0a95a144122b3c70"}], "txid": "332dc7fbfe758590ce80b72d20d3f46ae15fb2d881a4fc687b5eadf01e244981", "blocktime": 1537870564, "version": 1, "confirmations": 11515, "time": 1537870564, "locktime": 0, "vsize": 225, "size": 225}