{"hash": "332f5b9dd245c00f5fb3fd1285575da44aec2623cd4e5a1779e643a6e88e77a7", "blockhash": "0000000000000000000baef3f32e3676a92c3b2e5da21b426e4f302fc371ce76", "vout": [{"scriptPubKey": {"type": "nulldata", "hex": "6a4c50000078170001531c8e40a2822957b3f09510019d6ddc0f1b8ff117702940d64fa54d8eb2031b266e538dfbecd6ca0bb3b5322d665baa1c1b0615bbafbaed871fbc9a9526289ac0f6612cd74e33776ee4", "asm": "OP_RETURN 000078170001531c8e40a2822957b3f09510019d6ddc0f1b8ff117702940d64fa54d8eb2031b266e538dfbecd6ca0bb3b5322d665baa1c1b0615bbafbaed871fbc9a9526289ac0f6612cd74e33776ee4"}, "value": 0.0, "n": 0}, {"scriptPubKey": {"reqSigs": 1, "hex": "76a91463b8b6867d89b88530071dd85a5e54354f97043e88ac", "addresses": ["1A6HB5LPfrzeU21jvszmCrXwh4U8kS4bAX"], "asm": "OP_DUP OP_HASH160 63b8b6867d89b88530071dd85a5e54354f97043e OP_EQUALVERIFY OP_CHECKSIG", "type": "pubkeyhash"}, "value": 0.0220076, "n": 1}], "hex": "010000000174c2d4f968b7a9509a7be4d91673d6b4fc540d90c7f298b5ffa6a8ab31aa18c2000000006b483045022100b66baae15abd6509c1af669eaecb1b3b69500f9140331e3f372072134b7dbd5b022019076dc9b1a88a98229dcec5b21e07fd0281fa9d4eca8ec284cb06e2998c645e0121033900998ab046dc788a7b935938aa78bab67ddeaacd86d2ec0dba86214f442be8ffffffff020000000000000000536a4c50000078170001531c8e40a2822957b3f09510019d6ddc0f1b8ff117702940d64fa54d8eb2031b266e538dfbecd6ca0bb3b5322d665baa1c1b0615bbafbaed871fbc9a9526289ac0f6612cd74e33776ee4b8942100000000001976a91463b8b6867d89b88530071dd85a5e54354f97043e88ac00000000", "vin": [{"sequence": 4294967295, "scriptSig": {"hex": "483045022100b66baae15abd6509c1af669eaecb1b3b69500f9140331e3f372072134b7dbd5b022019076dc9b1a88a98229dcec5b21e07fd0281fa9d4eca8ec284cb06e2998c645e0121033900998ab046dc788a7b935938aa78bab67ddeaacd86d2ec0dba86214f442be8", "asm": "3045022100b66baae15abd6509c1af669eaecb1b3b69500f9140331e3f372072134b7dbd5b022019076dc9b1a88a98229dcec5b21e07fd0281fa9d4eca8ec284cb06e2998c645e[ALL] 033900998ab046dc788a7b935938aa78bab67ddeaacd86d2ec0dba86214f442be8"}, "vout": 0, "txid": "c218aa31aba8a6ffb598f2c7900d54fcb4d67316d9e47b9a50a9b768f9d4c274"}], "txid": "332f5b9dd245c00f5fb3fd1285575da44aec2623cd4e5a1779e643a6e88e77a7", "blocktime": 1537876114, "version": 1, "confirmations": 11460, "time": 1537876114, "locktime": 0, "vsize": 284, "size": 284}