{"hash": "333827d039a19e795e63062654d617a25a9dceaa5a794f22848ef06f50606d31", "blockhash": "0000000000000000001e0dab787dd257d1dbfcb92a98c2207d5e1078be1f4165", "vout": [{"scriptPubKey": {"reqSigs": 1, "hex": "0014cccb89c17b31bde46bd483b02e0c6d559532ff84", "addresses": ["bc1qen9cnstmxx77g675swczurrd2k2n9luycefj46"], "asm": "0 cccb89c17b31bde46bd483b02e0c6d559532ff84", "type": "witness_v0_keyhash"}, "value": 7.841e-05, "n": 0}, {"scriptPubKey": {"reqSigs": 1, "hex": "a91440015686a0034b26b497292bd64c966fcde34c4187", "addresses": ["37XSmnZ1hmaBd2Fndwb4ToB8qpE6gzyv8r"], "asm": "OP_HASH160 40015686a0034b26b497292bd64c966fcde34c41 OP_EQUAL", "type": "scripthash"}, "value": 0.0056, "n": 1}], "hex": "0100000001d25b90341e09880cc43211cc30d6a41f2ba9bb792981216779eb0540a4e5f0fe160000006a4730440220741833d2f95ba52779c64fba2f7e25491a9915806f300c4b7e4b7b8b87f9c77b022066db25d52898dc435ae3f03663f210ff1e7732a7adc26603418922d9d2835413012103334bdbe16c860a48d14af0ab54cea2eb736fbcff756edda1f12f748778ee2778ffffffff02a11e000000000000160014cccb89c17b31bde46bd483b02e0c6d559532ff84808b08000000000017a91440015686a0034b26b497292bd64c966fcde34c418700000000", "vin": [{"sequence": 4294967295, "scriptSig": {"hex": "4730440220741833d2f95ba52779c64fba2f7e25491a9915806f300c4b7e4b7b8b87f9c77b022066db25d52898dc435ae3f03663f210ff1e7732a7adc26603418922d9d2835413012103334bdbe16c860a48d14af0ab54cea2eb736fbcff756edda1f12f748778ee2778", "asm": "30440220741833d2f95ba52779c64fba2f7e25491a9915806f300c4b7e4b7b8b87f9c77b022066db25d52898dc435ae3f03663f210ff1e7732a7adc26603418922d9d2835413[ALL] 03334bdbe16c860a48d14af0ab54cea2eb736fbcff756edda1f12f748778ee2778"}, "vout": 22, "txid": "fef0e5a44005eb796721812979bba92b1fa4d630cc1132c40c88091e34905bd2"}], "txid": "333827d039a19e795e63062654d617a25a9dceaa5a794f22848ef06f50606d31", "blocktime": 1537872475, "version": 1, "confirmations": 11486, "time": 1537872475, "locktime": 0, "vsize": 220, "size": 220}