{"hash": "33409ebd2030c27e5af913fa4180523d52c6bf7a0d5dab9e4f333ac04e1745ed", "blockhash": "0000000000000000000dcc0f55137456b1a82d3642486a52398922ac4d620174", "vout": [{"scriptPubKey": {"reqSigs": 1, "hex": "76a9148e7e26749c08d2c97d1fa37c4af773441d1c2b4f88ac", "addresses": ["1DzS5K21p22WFtmrydSBBt9PcyzLnLa3s3"], "asm": "OP_DUP OP_HASH160 8e7e26749c08d2c97d1fa37c4af773441d1c2b4f OP_EQUALVERIFY OP_CHECKSIG", "type": "pubkeyhash"}, "value": 0.002139, "n": 0}, {"scriptPubKey": {"reqSigs": 1, "hex": "76a91455e390e5f51a54dfdecdad832cb551d254a605da88ac", "addresses": ["18q93sQaSAShS9VUDcAjDRasxmgs6WxJ1p"], "asm": "OP_DUP OP_HASH160 55e390e5f51a54dfdecdad832cb551d254a605da OP_EQUALVERIFY OP_CHECKSIG", "type": "pubkeyhash"}, "value": 0.00230957, "n": 1}], "hex": "0100000001a5fc7b117f51b89cf55fb0c0c7f72071427375aedc8c125a56fe086cc0a812bf000000006a47304402205e5891bb7759dd0f3be31a535e592eb50b782b6060acdcf5363f7495239143d1022048b4fce25e4447cc73a29837451df9f1eb7b144f0a83a5da388064c75ff896540121022277404adb18d1372f23c83384c31a9d63b884bd6500dfb322e798a37d10613effffffff028c430300000000001976a9148e7e26749c08d2c97d1fa37c4af773441d1c2b4f88ac2d860300000000001976a91455e390e5f51a54dfdecdad832cb551d254a605da88ac00000000", "vin": [{"sequence": 4294967295, "scriptSig": {"hex": "47304402205e5891bb7759dd0f3be31a535e592eb50b782b6060acdcf5363f7495239143d1022048b4fce25e4447cc73a29837451df9f1eb7b144f0a83a5da388064c75ff896540121022277404adb18d1372f23c83384c31a9d63b884bd6500dfb322e798a37d10613e", "asm": "304402205e5891bb7759dd0f3be31a535e592eb50b782b6060acdcf5363f7495239143d1022048b4fce25e4447cc73a29837451df9f1eb7b144f0a83a5da388064c75ff89654[ALL] 022277404adb18d1372f23c83384c31a9d63b884bd6500dfb322e798a37d10613e"}, "vout": 0, "txid": "bf12a8c06c08fe565a128cdcae7573427120f7c7c0b05ff59cb8517f117bfca5"}], "txid": "33409ebd2030c27e5af913fa4180523d52c6bf7a0d5dab9e4f333ac04e1745ed", "blocktime": 1537870268, "version": 1, "confirmations": 11518, "time": 1537870268, "locktime": 0, "vsize": 225, "size": 225}