{"hash": "3342c17339c8aa11f3679ff9509b38367a098418f0f16d8e1ece424b8e5ebfec", "blockhash": "0000000000000000000baef3f32e3676a92c3b2e5da21b426e4f302fc371ce76", "vout": [{"scriptPubKey": {"reqSigs": 1, "hex": "76a914808e65d20824ffadb701b5bd027ba9c6f11fd16388ac", "addresses": ["1Cik5XJXBBymST4HQkPdybwUoeABq9uYkR"], "asm": "OP_DUP OP_HASH160 808e65d20824ffadb701b5bd027ba9c6f11fd163 OP_EQUALVERIFY OP_CHECKSIG", "type": "pubkeyhash"}, "value": 0.02349915, "n": 0}, {"scriptPubKey": {"reqSigs": 1, "hex": "76a9140ae67d819ff474fe52c699c38577d9e6ba8122c888ac", "addresses": ["1zdsfQsXpr3mv4Zmn7U6P1y64G9RrDUHU"], "asm": "OP_DUP OP_HASH160 0ae67d819ff474fe52c699c38577d9e6ba8122c8 OP_EQUALVERIFY OP_CHECKSIG", "type": "pubkeyhash"}, "value": 0.1185743, "n": 1}], "hex": "010000000163d42defbb20ff4de72c627861430d754d01faff892e3d89ef34de595ebfda09000000006b483045022100a2dce7c12e3fe19e7f42c5a6a2ff624372743ae5beded3cdfa3a05709379f2e0022012b555775f6fcdfdff83619ed0f2bf76a877b5526ca9fbd9b9d21a889f2276bc012102835214b2d0f7a137150986f3804e51d610270cb4922b5e309eaae8a779865680ffffffff025bdb2300000000001976a914808e65d20824ffadb701b5bd027ba9c6f11fd16388ac16eeb400000000001976a9140ae67d819ff474fe52c699c38577d9e6ba8122c888ac00000000", "vin": [{"sequence": 4294967295, "scriptSig": {"hex": "483045022100a2dce7c12e3fe19e7f42c5a6a2ff624372743ae5beded3cdfa3a05709379f2e0022012b555775f6fcdfdff83619ed0f2bf76a877b5526ca9fbd9b9d21a889f2276bc012102835214b2d0f7a137150986f3804e51d610270cb4922b5e309eaae8a779865680", "asm": "3045022100a2dce7c12e3fe19e7f42c5a6a2ff624372743ae5beded3cdfa3a05709379f2e0022012b555775f6fcdfdff83619ed0f2bf76a877b5526ca9fbd9b9d21a889f2276bc[ALL] 02835214b2d0f7a137150986f3804e51d610270cb4922b5e309eaae8a779865680"}, "vout": 0, "txid": "09dabf5e59de34ef893d2e89fffa014d750d436178622ce74dff20bbef2dd463"}], "txid": "3342c17339c8aa11f3679ff9509b38367a098418f0f16d8e1ece424b8e5ebfec", "blocktime": 1537876114, "version": 1, "confirmations": 11460, "time": 1537876114, "locktime": 0, "vsize": 226, "size": 226}