{"hash": "3347647e6ae85844e50b39052f683f8c92ea88b2cf0035d1307a6ad727c40f8e", "blockhash": "000000000000000000022b45ed06c6f4ccd3cf7fb5ba4856ebd2e58215665228", "vout": [{"scriptPubKey": {"reqSigs": 1, "hex": "76a914b24d3db649c96e43eea5badcb3a643763936113188ac", "addresses": ["1HFmox3EjYpZ62yFHnHK2xeu4iTqmAVV7i"], "asm": "OP_DUP OP_HASH160 b24d3db649c96e43eea5badcb3a6437639361131 OP_EQUALVERIFY OP_CHECKSIG", "type": "pubkeyhash"}, "value": 0.31686771, "n": 0}, {"scriptPubKey": {"reqSigs": 1, "hex": "76a914ecfc2009bfd0f8ac920a55257534657b8ac5011488ac", "addresses": ["1Nc4WEbcEkqmnWjMAtfaiXQuJ2R49w9RjU"], "asm": "OP_DUP OP_HASH160 ecfc2009bfd0f8ac920a55257534657b8ac50114 OP_EQUALVERIFY OP_CHECKSIG", "type": "pubkeyhash"}, "value": 0.41, "n": 1}], "hex": "0100000002704ca4befac37a3fac30ba817269ce3e540f5536b454cc7fe50651fe6c8d2605000000006a473044022078cde96b88cbad91c2e81925695e49ad95defb16942e9f4505c1136beb64f7a102203c5e969e883161a04967957b0c5fdf8ebd650328fdec9101562b28c71b68e897012102b9706aacd1e2db23c9de1138d0d742095058ef8c2ee4a23f63caea68b2c44f6dffffffff56395e6d39e4ce2272ea0ae65c0556713ecb84b8cc9ec4c1ff7cad263f9c1fab000000006b483045022100877e7001fd8fd21c8e7e9671612a4b199f17df1099c07e09533209db3787baec0220605de2422d14353966d35e3e408465e696a33e7fd9928cf4a646d73e01387ec5012102b9706aacd1e2db23c9de1138d0d742095058ef8c2ee4a23f63caea68b2c44f6dffffffff027380e301000000001976a914b24d3db649c96e43eea5badcb3a643763936113188ac409c7102000000001976a914ecfc2009bfd0f8ac920a55257534657b8ac5011488ac00000000", "vin": [{"sequence": 4294967295, "scriptSig": {"hex": "473044022078cde96b88cbad91c2e81925695e49ad95defb16942e9f4505c1136beb64f7a102203c5e969e883161a04967957b0c5fdf8ebd650328fdec9101562b28c71b68e897012102b9706aacd1e2db23c9de1138d0d742095058ef8c2ee4a23f63caea68b2c44f6d", "asm": "3044022078cde96b88cbad91c2e81925695e49ad95defb16942e9f4505c1136beb64f7a102203c5e969e883161a04967957b0c5fdf8ebd650328fdec9101562b28c71b68e897[ALL] 02b9706aacd1e2db23c9de1138d0d742095058ef8c2ee4a23f63caea68b2c44f6d"}, "vout": 0, "txid": "05268d6cfe5106e57fcc54b436550f543ece697281ba30ac3f7ac3fabea44c70"}, {"sequence": 4294967295, "scriptSig": {"hex": "483045022100877e7001fd8fd21c8e7e9671612a4b199f17df1099c07e09533209db3787baec0220605de2422d14353966d35e3e408465e696a33e7fd9928cf4a646d73e01387ec5012102b9706aacd1e2db23c9de1138d0d742095058ef8c2ee4a23f63caea68b2c44f6d", "asm": "3045022100877e7001fd8fd21c8e7e9671612a4b199f17df1099c07e09533209db3787baec0220605de2422d14353966d35e3e408465e696a33e7fd9928cf4a646d73e01387ec5[ALL] 02b9706aacd1e2db23c9de1138d0d742095058ef8c2ee4a23f63caea68b2c44f6d"}, "vout": 0, "txid": "ab1f9c3f26ad7cffc1c49eccb884cb3e7156055ce60aea7222cee4396d5e3956"}], "txid": "3347647e6ae85844e50b39052f683f8c92ea88b2cf0035d1307a6ad727c40f8e", "blocktime": 1537869901, "version": 1, "confirmations": 11524, "time": 1537869901, "locktime": 0, "vsize": 373, "size": 373}