{"hash": "c52820a4b5b72d46a4a527fa35ba2b821b1833b327e869a25aebf0fccf959083", "blockhash": "0000000000000000000baef3f32e3676a92c3b2e5da21b426e4f302fc371ce76", "vout": [{"scriptPubKey": {"reqSigs": 1, "hex": "a914c8948f84ab8bc2187580e4fb86ecf2a0a06e11cf87", "addresses": ["3Kyb35jwJ7YCiAF7JRfW5VZdpyywKap5YB"], "asm": "OP_HASH160 c8948f84ab8bc2187580e4fb86ecf2a0a06e11cf OP_EQUAL", "type": "scripthash"}, "value": 7.059e-05, "n": 0}, {"scriptPubKey": {"reqSigs": 1, "hex": "a91449d7e96499e76d96ef877a2fcb98823c8bccba2187", "addresses": ["38RTuMXR3rjgmqC2TwiJHrCLzc9nbGoNw7"], "asm": "OP_HASH160 49d7e96499e76d96ef877a2fcb98823c8bccba21 OP_EQUAL", "type": "scripthash"}, "value": 0.01059344, "n": 1}], "hex": "010000000001014bb6663d532a1635841c4dc636df8fbd233d6a3630b8c8c043bc15ba15442cd801000000232200202a9a1aa43dd52fca361d638a9bb1c7c7a7b32bed598a04104268b8ecbdbfe96fffffffff02931b00000000000017a914c8948f84ab8bc2187580e4fb86ecf2a0a06e11cf87102a10000000000017a91449d7e96499e76d96ef877a2fcb98823c8bccba218704004730440220308c71cdaeeafb5fecb21adb1eebae2f7451c4b5e2d6368ce3f0b5a3636389820220588176c21a88b7d4f148da37770547bf3ec0e24f169f39a5245b7cd509af561301483045022100d4c97d01afde48271dfc72232303f8826563967c43911d5dea3af0cdf70074da02202d1e398b218a040b4033ed86ee5fe6eb5b7f46829132dccb2ae029313f5766370147522103ea39afa13bfc0b16775c1ffdd58dbb69a77441d8211cfd208f16ac7437c451312103338f346cab6ba87fe940591a03ac234be06520c5ab386d4b6632e8eef0d0db7652ae00000000", "vin": [{"txinwitness": ["", "30440220308c71cdaeeafb5fecb21adb1eebae2f7451c4b5e2d6368ce3f0b5a3636389820220588176c21a88b7d4f148da37770547bf3ec0e24f169f39a5245b7cd509af561301", "3045022100d4c97d01afde48271dfc72232303f8826563967c43911d5dea3af0cdf70074da02202d1e398b218a040b4033ed86ee5fe6eb5b7f46829132dccb2ae029313f57663701", "522103ea39afa13bfc0b16775c1ffdd58dbb69a77441d8211cfd208f16ac7437c451312103338f346cab6ba87fe940591a03ac234be06520c5ab386d4b6632e8eef0d0db7652ae"], "sequence": 4294967295, "scriptSig": {"hex": "2200202a9a1aa43dd52fca361d638a9bb1c7c7a7b32bed598a04104268b8ecbdbfe96f", "asm": "00202a9a1aa43dd52fca361d638a9bb1c7c7a7b32bed598a04104268b8ecbdbfe96f"}, "vout": 1, "txid": "d82c4415ba15bc43c0c8b830366a3d23bd8fdf36c64d1c8435162a533d66b64b"}], "txid": "33488a07df1c9d5244d39be6896fc12e010348c47f32addafe75448449022a13", "blocktime": 1537876114, "version": 1, "confirmations": 11460, "time": 1537876114, "locktime": 0, "vsize": 206, "size": 371}