{"hash": "334b0f45b7d3baa53db5a2bf6b93015ff0b71995f3fab38dc11a7b28ff0cc8fb", "blockhash": "0000000000000000001f76057863aec43deb6fa401d9628bb513d65a8098bfab", "vout": [{"scriptPubKey": {"reqSigs": 1, "hex": "a9142e58157f59c7b3b98e82c289f125db0ba49f80fb87", "addresses": ["35v4XYqktdog1CXQNKKvTAGhKwyKr8sYYH"], "asm": "OP_HASH160 2e58157f59c7b3b98e82c289f125db0ba49f80fb OP_EQUAL", "type": "scripthash"}, "value": 0.0034, "n": 0}, {"scriptPubKey": {"reqSigs": 1, "hex": "76a914260cfe81bef892069897dcd30cde1f69a66119d588ac", "addresses": ["14UCF98PCTzfnaALx628wstam3nb4o8FQa"], "asm": "OP_DUP OP_HASH160 260cfe81bef892069897dcd30cde1f69a66119d5 OP_EQUALVERIFY OP_CHECKSIG", "type": "pubkeyhash"}, "value": 0.01001754, "n": 1}], "hex": "0200000001c933ba04b423498ba52a362662944b853d65e377117b175b5fd25427e2cb2c32010000006b483045022100bf605633a1c4bdc0e884fd39059ae9a88a7d8bf17b0ff9418e4dea3651236d04022037a65a5cbecdca552cfa8eac3fc3fde284fc7be5a015b0e0ba8aa5c85f615548012103a01857a732737105fab23b8ce59f94eca47a4f4a39db80bd5d44e076498f1a4bfeffffff02203005000000000017a9142e58157f59c7b3b98e82c289f125db0ba49f80fb871a490f00000000001976a914260cfe81bef892069897dcd30cde1f69a66119d588ac14490800", "vin": [{"sequence": 4294967294, "scriptSig": {"hex": "483045022100bf605633a1c4bdc0e884fd39059ae9a88a7d8bf17b0ff9418e4dea3651236d04022037a65a5cbecdca552cfa8eac3fc3fde284fc7be5a015b0e0ba8aa5c85f615548012103a01857a732737105fab23b8ce59f94eca47a4f4a39db80bd5d44e076498f1a4b", "asm": "3045022100bf605633a1c4bdc0e884fd39059ae9a88a7d8bf17b0ff9418e4dea3651236d04022037a65a5cbecdca552cfa8eac3fc3fde284fc7be5a015b0e0ba8aa5c85f615548[ALL] 03a01857a732737105fab23b8ce59f94eca47a4f4a39db80bd5d44e076498f1a4b"}, "vout": 1, "txid": "322ccbe22754d25f5b177b1177e3653d854b946226362aa58b4923b404ba33c9"}], "txid": "334b0f45b7d3baa53db5a2bf6b93015ff0b71995f3fab38dc11a7b28ff0cc8fb", "blocktime": 1537873891, "version": 2, "confirmations": 11479, "time": 1537873891, "locktime": 542996, "vsize": 224, "size": 224}