{"hash": "334f1fda579344caa0d7f6cecf80d3237d1a51dd4e6fdb2d75c1859102a2010d", "blockhash": "0000000000000000000dcc0f55137456b1a82d3642486a52398922ac4d620174", "vout": [{"scriptPubKey": {"reqSigs": 1, "hex": "76a914308ab940984d1547271c3e6e71ac46e06dd815b688ac", "addresses": ["15RfctwPAAWxbra5QRQcTHUAdYaK4RAFDR"], "asm": "OP_DUP OP_HASH160 308ab940984d1547271c3e6e71ac46e06dd815b6 OP_EQUALVERIFY OP_CHECKSIG", "type": "pubkeyhash"}, "value": 0.005, "n": 0}, {"scriptPubKey": {"reqSigs": 1, "hex": "76a91438b29685f92d9717885dbd57b35eb965f7b6767a88ac", "addresses": ["16AnnFg8psanBncDzbr8yaGmGRwqV2A7E3"], "asm": "OP_DUP OP_HASH160 38b29685f92d9717885dbd57b35eb965f7b6767a OP_EQUALVERIFY OP_CHECKSIG", "type": "pubkeyhash"}, "value": 0.005, "n": 1}, {"scriptPubKey": {"reqSigs": 1, "hex": "76a914b7fe0bc8f7f3c2454c9b0c4887fdb2ce0f0c707888ac", "addresses": ["1HmrzXuqiW9JxKbYoaovqPQXNmUB8HKmTX"], "asm": "OP_DUP OP_HASH160 b7fe0bc8f7f3c2454c9b0c4887fdb2ce0f0c7078 OP_EQUALVERIFY OP_CHECKSIG", "type": "pubkeyhash"}, "value": 0.009502, "n": 2}, {"scriptPubKey": {"reqSigs": 1, "hex": "76a91455b06ecd9077d4c4f88738bcb72dec414c55852888ac", "addresses": ["18p5o5EyRJaWiP8euLXqXcfqCBfNtaMjNF"], "asm": "OP_DUP OP_HASH160 55b06ecd9077d4c4f88738bcb72dec414c558528 OP_EQUALVERIFY OP_CHECKSIG", "type": "pubkeyhash"}, "value": 0.005, "n": 3}, {"scriptPubKey": {"reqSigs": 1, "hex": "76a9145248da51b7d07b8773f4ccfb29c4b424de807add88ac", "addresses": ["18W5gdfAPuADzKAqLA8ArBCrDRZdFGxz9j"], "asm": "OP_DUP OP_HASH160 5248da51b7d07b8773f4ccfb29c4b424de807add OP_EQUALVERIFY OP_CHECKSIG", "type": "pubkeyhash"}, "value": 0.005, "n": 4}, {"scriptPubKey": {"reqSigs": 1, "hex": "76a914c6fea6602f097f8b6ca59a436f0ca4efa592ba2788ac", "addresses": ["1K9BrNM1rAqxyYyY3cnK6PigfCbLcvTBYZ"], "asm": "OP_DUP OP_HASH160 c6fea6602f097f8b6ca59a436f0ca4efa592ba27 OP_EQUALVERIFY OP_CHECKSIG", "type": "pubkeyhash"}, "value": 0.005, "n": 5}, {"scriptPubKey": {"reqSigs": 1, "hex": "76a914175869cb9cfe64b41336d619e793c97ebad4300c88ac", "addresses": ["138STUTEzQc1MbawdRakvTfapZwKoHBzDY"], "asm": "OP_DUP OP_HASH160 175869cb9cfe64b41336d619e793c97ebad4300c OP_EQUALVERIFY OP_CHECKSIG", "type": "pubkeyhash"}, "value": 0.005, "n": 6}, {"scriptPubKey": {"reqSigs": 1, "hex": "76a9149c886553754dc93807dd87a25850f6738dd6126e88ac", "addresses": ["1FGfosb5baY7dYMybhNC9VAoGV6ehH96nL"], "asm": "OP_DUP OP_HASH160 9c886553754dc93807dd87a25850f6738dd6126e OP_EQUALVERIFY OP_CHECKSIG", "type": "pubkeyhash"}, "value": 0.005, "n": 7}, {"scriptPubKey": {"reqSigs": 1, "hex": "76a9145211a603ef066e40b21a4c465212a29f0f0692c688ac", "addresses": ["18UwYyDPW6Jqiug9qD6L1Z7wqHiCqVJnQm"], "asm": "OP_DUP OP_HASH160 5211a603ef066e40b21a4c465212a29f0f0692c6 OP_EQUALVERIFY OP_CHECKSIG", "type": "pubkeyhash"}, "value": 0.005, "n": 8}, {"scriptPubKey": {"reqSigs": 1, "hex": "76a914531c7fe4d082187e81d7e21b892820b53646926288ac", "addresses": ["18aTE7Fhdwkbgn5BqG2ur4jzhEKi5jyq6N"], "asm": "OP_DUP OP_HASH160 531c7fe4d082187e81d7e21b892820b536469262 OP_EQUALVERIFY OP_CHECKSIG", "type": "pubkeyhash"}, "value": 0.005, "n": 9}], "hex": "020000000123e58dcda216145155252aabdd98fcd817ef2ec653e03fba3a0c4222389bdf93000000006a47304402201c465409372602655cf52bdbd517d06149fc92ca495462cdf5d386c25c5a4c1702205da0721ee7255403765c8fa37adbb1e392c4ce7da3b5b9230d36d815116e170f0121026d8ddada86652c3094140723e5ef37622abedb306ea282d3fa939655d7e2dbc5feffffff0a20a10700000000001976a914308ab940984d1547271c3e6e71ac46e06dd815b688ac20a10700000000001976a91438b29685f92d9717885dbd57b35eb965f7b6767a88acb87f0e00000000001976a914b7fe0bc8f7f3c2454c9b0c4887fdb2ce0f0c707888ac20a10700000000001976a91455b06ecd9077d4c4f88738bcb72dec414c55852888ac20a10700000000001976a9145248da51b7d07b8773f4ccfb29c4b424de807add88ac20a10700000000001976a914c6fea6602f097f8b6ca59a436f0ca4efa592ba2788ac20a10700000000001976a914175869cb9cfe64b41336d619e793c97ebad4300c88ac20a10700000000001976a9149c886553754dc93807dd87a25850f6738dd6126e88ac20a10700000000001976a9145211a603ef066e40b21a4c465212a29f0f0692c688ac20a10700000000001976a914531c7fe4d082187e81d7e21b892820b53646926288ace0480800", "vin": [{"sequence": 4294967294, "scriptSig": {"hex": "47304402201c465409372602655cf52bdbd517d06149fc92ca495462cdf5d386c25c5a4c1702205da0721ee7255403765c8fa37adbb1e392c4ce7da3b5b9230d36d815116e170f0121026d8ddada86652c3094140723e5ef37622abedb306ea282d3fa939655d7e2dbc5", "asm": "304402201c465409372602655cf52bdbd517d06149fc92ca495462cdf5d386c25c5a4c1702205da0721ee7255403765c8fa37adbb1e392c4ce7da3b5b9230d36d815116e170f[ALL] 026d8ddada86652c3094140723e5ef37622abedb306ea282d3fa939655d7e2dbc5"}, "vout": 0, "txid": "93df9b3822420c3aba3fe053c62eef17d8fc98ddab2a2555511416a2cd8de523"}], "txid": "334f1fda579344caa0d7f6cecf80d3237d1a51dd4e6fdb2d75c1859102a2010d", "blocktime": 1537870268, "version": 2, "confirmations": 11516, "time": 1537870268, "locktime": 542944, "vsize": 497, "size": 497}