{"hash": "33536d6ace351c04c6e2a46539a243b2807bfef75ef82d7ab65f751ffcfce267", "blockhash": "000000000000000000022b45ed06c6f4ccd3cf7fb5ba4856ebd2e58215665228", "vout": [{"scriptPubKey": {"reqSigs": 1, "hex": "76a91404a3cfa933dd31407895a3d7de385061e11945f288ac", "addresses": ["1RXwZuXH5TYJQmNtSvkVUhs3u3TWKuTU8"], "asm": "OP_DUP OP_HASH160 04a3cfa933dd31407895a3d7de385061e11945f2 OP_EQUALVERIFY OP_CHECKSIG", "type": "pubkeyhash"}, "value": 0.26340742, "n": 0}], "hex": "0100000001b9a9f2af232a3161cd4a8dbd95fe81b2fa4c7e68db9f67b634be0cb98569be3f000000006a473044022100ba65847b1e7243b78eeaac7cdb2924460bb670b31da4d310d48f98e2254a5371021f231acdb7b2b2d1fc29f450095a642f0eab7b5e9531e7c45d7811bc22c1f33d012103afe30be2b8c7cfe899d3b8f0fcdb4f4cdf14fd6e606cffaede531a54d682f882ffffffff0186ed9101000000001976a91404a3cfa933dd31407895a3d7de385061e11945f288ac00000000", "vin": [{"sequence": 4294967295, "scriptSig": {"hex": "473044022100ba65847b1e7243b78eeaac7cdb2924460bb670b31da4d310d48f98e2254a5371021f231acdb7b2b2d1fc29f450095a642f0eab7b5e9531e7c45d7811bc22c1f33d012103afe30be2b8c7cfe899d3b8f0fcdb4f4cdf14fd6e606cffaede531a54d682f882", "asm": "3044022100ba65847b1e7243b78eeaac7cdb2924460bb670b31da4d310d48f98e2254a5371021f231acdb7b2b2d1fc29f450095a642f0eab7b5e9531e7c45d7811bc22c1f33d[ALL] 03afe30be2b8c7cfe899d3b8f0fcdb4f4cdf14fd6e606cffaede531a54d682f882"}, "vout": 0, "txid": "3fbe6985b90cbe34b6679fdb687e4cfab281fe95bd8d4acd61312a23aff2a9b9"}], "txid": "33536d6ace351c04c6e2a46539a243b2807bfef75ef82d7ab65f751ffcfce267", "blocktime": 1537869901, "version": 1, "confirmations": 11522, "time": 1537869901, "locktime": 0, "vsize": 191, "size": 191}