{"hash": "4051cf8e0a07a14b8418fc08476a7974d80d41d232e2cc621c2bdcfb62d6b9cd", "blockhash": "0000000000000000000dcc0f55137456b1a82d3642486a52398922ac4d620174", "vout": [{"scriptPubKey": {"reqSigs": 1, "hex": "a914d303b012fd5bace55c9e1eecd8544fa009e066ec87", "addresses": ["3LvkvFaJnbgHkBLLALpbmpCoqhxjnChTS6"], "asm": "OP_HASH160 d303b012fd5bace55c9e1eecd8544fa009e066ec OP_EQUAL", "type": "scripthash"}, "value": 0.00425574, "n": 0}], "hex": "010000000001014c97a8d9890f74aecb2a86aa6bfafe82b4eb19435baf7afad362ff79e50129760a00000017160014263eb16209fed12039a272fec46d4d3e09086ebeffffffff01667e06000000000017a914d303b012fd5bace55c9e1eecd8544fa009e066ec8702483045022100f29fcc6c731a723613e5692b9c21e55f3fc7ecee8055053bd6a8da3c84b2206a022050ae38164a0efa2e6087aba85d9a98737f1d3cd1ad0b8ed378899d29e66ded7b0121020260c51471b6fe1709c932c1ce50932e2195cf4fd31d2e8f92035c66da53b2d500000000", "vin": [{"txinwitness": ["3045022100f29fcc6c731a723613e5692b9c21e55f3fc7ecee8055053bd6a8da3c84b2206a022050ae38164a0efa2e6087aba85d9a98737f1d3cd1ad0b8ed378899d29e66ded7b01", "020260c51471b6fe1709c932c1ce50932e2195cf4fd31d2e8f92035c66da53b2d5"], "sequence": 4294967295, "scriptSig": {"hex": "160014263eb16209fed12039a272fec46d4d3e09086ebe", "asm": "0014263eb16209fed12039a272fec46d4d3e09086ebe"}, "vout": 10, "txid": "762901e579ff62d3fa7aaf5b4319ebb482fefa6baa862acbae740f89d9a8974c"}], "txid": "3354bc49e411d162b07fdd9b8b50599dd7a9dd058dfb009490a6feeefaa3631b", "blocktime": 1537870268, "version": 1, "confirmations": 11518, "time": 1537870268, "locktime": 0, "vsize": 134, "size": 216}