{"hash": "335c1c3e6d1bcf92f9fdedaa0f9de987c1d1f578d05f5b48f639f15d2e55b034", "blockhash": "0000000000000000000e13cef7c366c0283d82e591d1acd082e914b08063cdf1", "vout": [{"scriptPubKey": {"reqSigs": 1, "hex": "76a914ffbdb5412f3a84bb0e6c20a9004200306537fbab88ac", "addresses": ["1QKEa4ZopThspfTciZ48CdU4ag51M9MGzK"], "asm": "OP_DUP OP_HASH160 ffbdb5412f3a84bb0e6c20a9004200306537fbab OP_EQUALVERIFY OP_CHECKSIG", "type": "pubkeyhash"}, "value": 0.05, "n": 0}, {"scriptPubKey": {"reqSigs": 1, "hex": "76a914f9330f79c2d3bf49d1e05e792fe1712315deaced88ac", "addresses": ["1PieRWURkuLKwcz9A6GVpBXtWPKeZ2bt3H"], "asm": "OP_DUP OP_HASH160 f9330f79c2d3bf49d1e05e792fe1712315deaced OP_EQUALVERIFY OP_CHECKSIG", "type": "pubkeyhash"}, "value": 0.26286222, "n": 1}], "hex": "01000000016807d7b475f5df96cf8d51f5de39eb4165ca69b00c39129971b6897c0be56039010000006a47304402206367c76a5aa0f422efd1c9112cb2fc292146c24c1e3ff9687d98858830a32058022047d90a65fda5d447fb10df727d55baccd04bc19dcedd0b7b53c95d57110e90d9012102525970c35d9965f8093bdf337652b16fc8f1ae10d9db57c6b3246707f73cc8a3ffffffff02404b4c00000000001976a914ffbdb5412f3a84bb0e6c20a9004200306537fbab88ac8e189101000000001976a914f9330f79c2d3bf49d1e05e792fe1712315deaced88ac00000000", "vin": [{"sequence": 4294967295, "scriptSig": {"hex": "47304402206367c76a5aa0f422efd1c9112cb2fc292146c24c1e3ff9687d98858830a32058022047d90a65fda5d447fb10df727d55baccd04bc19dcedd0b7b53c95d57110e90d9012102525970c35d9965f8093bdf337652b16fc8f1ae10d9db57c6b3246707f73cc8a3", "asm": "304402206367c76a5aa0f422efd1c9112cb2fc292146c24c1e3ff9687d98858830a32058022047d90a65fda5d447fb10df727d55baccd04bc19dcedd0b7b53c95d57110e90d9[ALL] 02525970c35d9965f8093bdf337652b16fc8f1ae10d9db57c6b3246707f73cc8a3"}, "vout": 1, "txid": "3960e50b7c89b6719912390cb069ca6541eb39def5518dcf96dff575b4d70768"}], "txid": "335c1c3e6d1bcf92f9fdedaa0f9de987c1d1f578d05f5b48f639f15d2e55b034", "blocktime": 1537871767, "version": 1, "confirmations": 11492, "time": 1537871767, "locktime": 0, "vsize": 225, "size": 225}