{"hash": "cbc4613f63a86d98cca269e6a63af7c0b1aad1a994fff1e6324c06be34f1d0fc", "blockhash": "00000000000000000004ffacab907a6b429b9a5745fa0b75af4234bf69dd7176", "vout": [{"scriptPubKey": {"reqSigs": 1, "hex": "a914255c7f2e6d4d471130709709dd1c2639e70d742d87", "addresses": ["356ZjS1NsZpEYF1vQPNCrktUb2677TGD1h"], "asm": "OP_HASH160 255c7f2e6d4d471130709709dd1c2639e70d742d OP_EQUAL", "type": "scripthash"}, "value": 0.00998693, "n": 0}, {"scriptPubKey": {"reqSigs": 1, "hex": "76a9143c0ad326cecfa09ca018aa1804f122f48d0e57cd88ac", "addresses": ["16UUWdbFruLuNMrw2ndfhMUEXhkmuf8ZKR"], "asm": "OP_DUP OP_HASH160 3c0ad326cecfa09ca018aa1804f122f48d0e57cd OP_EQUALVERIFY OP_CHECKSIG", "type": "pubkeyhash"}, "value": 0.018995, "n": 1}], "hex": "02000000000101e3554dccdde30d6fa11877bd7dd585acf1655e91265e00b8767cf18196594bb0000000001716001472614c90902e6c81c1e7c0389d03a759b1ee32f2feffffff02253d0f000000000017a914255c7f2e6d4d471130709709dd1c2639e70d742d87ecfb1c00000000001976a9143c0ad326cecfa09ca018aa1804f122f48d0e57cd88ac024730440220652ae6d60cf5d9e4177988f65b07d0698e619403ee4bbc9cfaae167d632510c1022078849992025034ed6f8c566fd2be304c11dcf0c3a4600d50b6eb7b9f0979271f0121039d5090bc7637d1ae2944a353b9552c5644c30a4adac0aa80eaab930c09c1cc1ae9480800", "vin": [{"txinwitness": ["30440220652ae6d60cf5d9e4177988f65b07d0698e619403ee4bbc9cfaae167d632510c1022078849992025034ed6f8c566fd2be304c11dcf0c3a4600d50b6eb7b9f0979271f01", "039d5090bc7637d1ae2944a353b9552c5644c30a4adac0aa80eaab930c09c1cc1a"], "sequence": 4294967294, "scriptSig": {"hex": "16001472614c90902e6c81c1e7c0389d03a759b1ee32f2", "asm": "001472614c90902e6c81c1e7c0389d03a759b1ee32f2"}, "vout": 0, "txid": "b04b599681f17c76b8005e26915e65f1ac85d57dbd7718a16f0de3ddcc4d55e3"}], "txid": "336d8dbb9631376e270176bc836ed63afb5b4cf1013b097b06235cf93ad320af", "blocktime": 1537875543, "version": 2, "confirmations": 11464, "time": 1537875543, "locktime": 542953, "vsize": 168, "size": 249}