{"hash": "3372dca1f7131ee786b0b5aa18ceb2d168961be521f0cb1441113bb88b8b96bb", "blockhash": "0000000000000000001e0dab787dd257d1dbfcb92a98c2207d5e1078be1f4165", "vout": [{"scriptPubKey": {"reqSigs": 1, "hex": "76a91442f126e105e27ec65159474703bad25c56a7ea3e88ac", "addresses": ["176xVBpZz9oNHGZJCTuUWkSWbfPVdQqsEi"], "asm": "OP_DUP OP_HASH160 42f126e105e27ec65159474703bad25c56a7ea3e OP_EQUALVERIFY OP_CHECKSIG", "type": "pubkeyhash"}, "value": 0.00356056, "n": 0}, {"scriptPubKey": {"reqSigs": 1, "hex": "76a914293c1ab31791070604ecc95f6d3cf97e498b738688ac", "addresses": ["14m2hz7WDMaRi1juggPaNYvRof6HPbdax3"], "asm": "OP_DUP OP_HASH160 293c1ab31791070604ecc95f6d3cf97e498b7386 OP_EQUALVERIFY OP_CHECKSIG", "type": "pubkeyhash"}, "value": 0.01568168, "n": 1}, {"scriptPubKey": {"reqSigs": 1, "hex": "76a9144e08b1d7cc1ee30ac3e372d426363ab4c2f73fe288ac", "addresses": ["187c85hfcx7Q5HwQdN24PNS1Huy3zZBHhW"], "asm": "OP_DUP OP_HASH160 4e08b1d7cc1ee30ac3e372d426363ab4c2f73fe2 OP_EQUALVERIFY OP_CHECKSIG", "type": "pubkeyhash"}, "value": 8.746e-05, "n": 2}], "hex": "0100000002a45ed24cb154359ceffaccb46b3a5cedd702540102128089ac342754c0cd2995000000006b483045022100a21ab2bf591828538432300c1eb0ee17289f5623fb9c224842a526987afbebbc02202d191df70b339d7277a09ebc26996f28353d359f43f3fe6ecf5f809ab6e676cc0121027e194778af20c478f2b67aaab2bdfe13aadf2f5bf59ced70d08bbf87b2ae5770ffffffffedc4fc6eca7eb7c88ee68cf3ca5b583c734399be370669ba06782aba09a92b9f010000006b483045022100e32cc62c5287517b3eb2379a355ac3a68d291024b6f4af834c4177e5ae55d56d022059feae6e4cfe846d4024c378c01d272a797dcea83881e3cc16023ff0ada648c00121023c64d10999fc326c3434619b6047e82468615cc6cee173bb63689980ad2ca09effffffff03d86e0500000000001976a91442f126e105e27ec65159474703bad25c56a7ea3e88aca8ed1700000000001976a914293c1ab31791070604ecc95f6d3cf97e498b738688ac2a220000000000001976a9144e08b1d7cc1ee30ac3e372d426363ab4c2f73fe288ac00000000", "vin": [{"sequence": 4294967295, "scriptSig": {"hex": "483045022100a21ab2bf591828538432300c1eb0ee17289f5623fb9c224842a526987afbebbc02202d191df70b339d7277a09ebc26996f28353d359f43f3fe6ecf5f809ab6e676cc0121027e194778af20c478f2b67aaab2bdfe13aadf2f5bf59ced70d08bbf87b2ae5770", "asm": "3045022100a21ab2bf591828538432300c1eb0ee17289f5623fb9c224842a526987afbebbc02202d191df70b339d7277a09ebc26996f28353d359f43f3fe6ecf5f809ab6e676cc[ALL] 027e194778af20c478f2b67aaab2bdfe13aadf2f5bf59ced70d08bbf87b2ae5770"}, "vout": 0, "txid": "9529cdc0542734ac89801202015402d7ed5c3a6bb4ccfaef9c3554b14cd25ea4"}, {"sequence": 4294967295, "scriptSig": {"hex": "483045022100e32cc62c5287517b3eb2379a355ac3a68d291024b6f4af834c4177e5ae55d56d022059feae6e4cfe846d4024c378c01d272a797dcea83881e3cc16023ff0ada648c00121023c64d10999fc326c3434619b6047e82468615cc6cee173bb63689980ad2ca09e", "asm": "3045022100e32cc62c5287517b3eb2379a355ac3a68d291024b6f4af834c4177e5ae55d56d022059feae6e4cfe846d4024c378c01d272a797dcea83881e3cc16023ff0ada648c0[ALL] 023c64d10999fc326c3434619b6047e82468615cc6cee173bb63689980ad2ca09e"}, "vout": 1, "txid": "9f2ba909ba2a7806ba690637be9943733c585bcaf38ce68ec8b77eca6efcc4ed"}], "txid": "3372dca1f7131ee786b0b5aa18ceb2d168961be521f0cb1441113bb88b8b96bb", "blocktime": 1537872475, "version": 1, "confirmations": 11486, "time": 1537872475, "locktime": 0, "vsize": 408, "size": 408}