{"hash": "2f691f30f6e6d2a7e523fa79b3d5eb2dcb5416739925c4102fa95be590b92e11", "blockhash": "0000000000000000001e0dab787dd257d1dbfcb92a98c2207d5e1078be1f4165", "vout": [{"scriptPubKey": {"reqSigs": 1, "hex": "a9141371d502eedf372d47a315ebb4df75873840e95787", "addresses": ["33Tq8Nz14fW6M69q1omSQCfofsTDAziAyG"], "asm": "OP_HASH160 1371d502eedf372d47a315ebb4df75873840e957 OP_EQUAL", "type": "scripthash"}, "value": 0.00077844, "n": 0}, {"scriptPubKey": {"reqSigs": 1, "hex": "00141c4c6c091375414e40eda78a1971127a1aa3ffd1", "addresses": ["bc1qr3xxczgnw4q5us8d579pjugj0gd28l73qxzthz"], "asm": "0 1c4c6c091375414e40eda78a1971127a1aa3ffd1", "type": "witness_v0_keyhash"}, "value": 1.883e-05, "n": 1}], "hex": "010000000001017f803f7e022f5381cb54a48f56fb174bb943e9639b68b1fe02838007b741ee9e66030000171600145680bcfd0a5c5d5a4aa2f2918a313bb6c8ab011affffffff02143001000000000017a9141371d502eedf372d47a315ebb4df75873840e957875b070000000000001600141c4c6c091375414e40eda78a1971127a1aa3ffd102483045022100964477995c2676c5db211b0c518f02c05307bdd2acca93bfc44b2f1f66b29fb60220690b29689d360f67b88e58aad4e8f29e470a3def53f2d0dcfe895beaa51a9a0f0121029bd7c8cdfd470f530d08d50219130b66cf62e5b5cc1a2e0e5a12ccbeb9c52a4a00000000", "vin": [{"txinwitness": ["3045022100964477995c2676c5db211b0c518f02c05307bdd2acca93bfc44b2f1f66b29fb60220690b29689d360f67b88e58aad4e8f29e470a3def53f2d0dcfe895beaa51a9a0f01", "029bd7c8cdfd470f530d08d50219130b66cf62e5b5cc1a2e0e5a12ccbeb9c52a4a"], "sequence": 4294967295, "scriptSig": {"hex": "1600145680bcfd0a5c5d5a4aa2f2918a313bb6c8ab011a", "asm": "00145680bcfd0a5c5d5a4aa2f2918a313bb6c8ab011a"}, "vout": 870, "txid": "9eee41b707808302feb1689b63e943b94b17fb568fa454cb81532f027e3f807f"}], "txid": "337888256cc7864240bdb3336c6cabf33349f446c224dce7c44600e44dab0cc3", "blocktime": 1537872475, "version": 1, "confirmations": 11486, "time": 1537872475, "locktime": 0, "vsize": 165, "size": 247}