{"hash": "f957508edf7573f3d39b3d8c3a1b2c2c0d0d008fe17c923ebfb19da818ba9ee0", "blockhash": "0000000000000000001cda96e906b7601b7a6fb1a3b62bca570a9e5d8f4b3de1", "vout": [{"scriptPubKey": {"reqSigs": 1, "hex": "76a9145fbfc93ca62ef075216d7792416fd5b3462f1a0488ac", "addresses": ["19jGwkkzhN6tBBdE5dzgYimC4Ga5K8m43u"], "asm": "OP_DUP OP_HASH160 5fbfc93ca62ef075216d7792416fd5b3462f1a04 OP_EQUALVERIFY OP_CHECKSIG", "type": "pubkeyhash"}, "value": 0.00266992, "n": 0}, {"scriptPubKey": {"reqSigs": 1, "hex": "a9140be7846be16b05bea00dbec2fcd7e045a793cb1787", "addresses": ["32mxhko5mJHfkbkDPpz7SfdJwEJi21P1WK"], "asm": "OP_HASH160 0be7846be16b05bea00dbec2fcd7e045a793cb17 OP_EQUAL", "type": "scripthash"}, "value": 0.18869479, "n": 1}], "hex": "010000000001010471c660243280e1fb27fb73e52bdcb3c4b3f41fcd9505c8d334c70f826751ad01000000232200202c66ece6da72bcbfeadf83a91236f4891c13e14d8ecebdcaa81666fc1aa73a31ffffffff02f0120400000000001976a9145fbfc93ca62ef075216d7792416fd5b3462f1a0488ace7ec1f010000000017a9140be7846be16b05bea00dbec2fcd7e045a793cb17870400483045022100970bcce77eab6448fc452cda234d86a026c319cfcb71c2c972ab72eb136124e802203e175d440397eb28957547ca7b3fc6c18adb6d2a0a2440dbf9c48dfe4a7b0ee60147304402201d087b53cf59659a9a0ab4e35299abca639203ca035ba708631bfaba9295641f02205324476d60f9518f435f29266184d61428bda50c4513b56bef2df627f5fb169e01475221029e6fbb942d34a473faaa5557c1bfe08d72102f0b9754ad140fd369d7a3ba3cdc2103871fc2ca08e6950b38867e8e6a0e94ee625223d3aa0df5c65f414c6d784467e252ae00000000", "vin": [{"txinwitness": ["", "3045022100970bcce77eab6448fc452cda234d86a026c319cfcb71c2c972ab72eb136124e802203e175d440397eb28957547ca7b3fc6c18adb6d2a0a2440dbf9c48dfe4a7b0ee601", "304402201d087b53cf59659a9a0ab4e35299abca639203ca035ba708631bfaba9295641f02205324476d60f9518f435f29266184d61428bda50c4513b56bef2df627f5fb169e01", "5221029e6fbb942d34a473faaa5557c1bfe08d72102f0b9754ad140fd369d7a3ba3cdc2103871fc2ca08e6950b38867e8e6a0e94ee625223d3aa0df5c65f414c6d784467e252ae"], "sequence": 4294967295, "scriptSig": {"hex": "2200202c66ece6da72bcbfeadf83a91236f4891c13e14d8ecebdcaa81666fc1aa73a31", "asm": "00202c66ece6da72bcbfeadf83a91236f4891c13e14d8ecebdcaa81666fc1aa73a31"}, "vout": 1, "txid": "ad5167820fc734d3c80595cd1ff4b3c4b3dc2be573fb27fbe180322460c67104"}], "txid": "3378298bd73082498339b9d7d3ced09de5b1c2b44b2c91477985056ea1abcd72", "blocktime": 1537873282, "version": 1, "confirmations": 11485, "time": 1537873282, "locktime": 0, "vsize": 208, "size": 373}