{"hash": "8c68dc3f03a1fc1d44d07f16c289f9111897828ae7ddd551f71adeca2541b10c", "blockhash": "0000000000000000000baef3f32e3676a92c3b2e5da21b426e4f302fc371ce76", "vout": [{"scriptPubKey": {"reqSigs": 1, "hex": "a91430897cc6c9d69f6a2c2f1c651d51f22219f1a4f687", "addresses": ["367f4YWz1VCFaqBqwbTrzwi2b1h2U3w1AF"], "asm": "OP_HASH160 30897cc6c9d69f6a2c2f1c651d51f22219f1a4f6 OP_EQUAL", "type": "scripthash"}, "value": 0.01516883, "n": 0}, {"scriptPubKey": {"reqSigs": 1, "hex": "a91469f376fbc0f7ff8cf3380833fdd8f355af5b4e0687", "addresses": ["3BMEXv3VgHFkcAm5qtckUnx8vmkNWj9M9G"], "asm": "OP_HASH160 69f376fbc0f7ff8cf3380833fdd8f355af5b4e06 OP_EQUAL", "type": "scripthash"}, "value": 0.0564772, "n": 1}], "hex": "01000000000101f0dae02286b8c4553228a9ff7e29e38400d60ef314593df31a0927eb677d0fcf0000000023220020bcf9f822194145acea0f3235f4107b5bf1a91b6b9f8489f63bf79ec29b360913ffffffff02532517000000000017a91430897cc6c9d69f6a2c2f1c651d51f22219f1a4f687682d56000000000017a91469f376fbc0f7ff8cf3380833fdd8f355af5b4e06870400483045022100ab0b3dff62162803df7bf21c71bdbcb28385ece923f5f11505e5afb53fc453ab02205a36616b4d15440afa0d2377eea706337bab52746d34548d2ce32cb6e46ea49c01473044022026053dccaa6ceb70bf7150f2f4ab18f658d899d1b40b034598b827e85ddf8eb2022052c43c936abd5264236a0cdc57a717a6dc4aa4ce807101c2f546c855de5eb11a01695221026c8f72b9e63db63907115e65d4da86eaae595b22fdc85ec75301bb4adbf203582103806535be3e3920e5eedee92de5714188fd6a784f2bf7b04f87de0b9c3ae1ecdb21024b23bfdce2afcae7e28c42f7f79aa100f22931712c52d7414a526ba494d44a2553ae00000000", "vin": [{"txinwitness": ["", "3045022100ab0b3dff62162803df7bf21c71bdbcb28385ece923f5f11505e5afb53fc453ab02205a36616b4d15440afa0d2377eea706337bab52746d34548d2ce32cb6e46ea49c01", "3044022026053dccaa6ceb70bf7150f2f4ab18f658d899d1b40b034598b827e85ddf8eb2022052c43c936abd5264236a0cdc57a717a6dc4aa4ce807101c2f546c855de5eb11a01", "5221026c8f72b9e63db63907115e65d4da86eaae595b22fdc85ec75301bb4adbf203582103806535be3e3920e5eedee92de5714188fd6a784f2bf7b04f87de0b9c3ae1ecdb21024b23bfdce2afcae7e28c42f7f79aa100f22931712c52d7414a526ba494d44a2553ae"], "sequence": 4294967295, "scriptSig": {"hex": "220020bcf9f822194145acea0f3235f4107b5bf1a91b6b9f8489f63bf79ec29b360913", "asm": "0020bcf9f822194145acea0f3235f4107b5bf1a91b6b9f8489f63bf79ec29b360913"}, "vout": 0, "txid": "cf0f7d67eb27091af33d5914f30ed60084e3297effa9283255c4b88622e0daf0"}], "txid": "337da385c07f7849f724e053e21e440ccc0c965768ca3a4c72e58433c744fd36", "blocktime": 1537876114, "version": 1, "confirmations": 11460, "time": 1537876114, "locktime": 0, "vsize": 214, "size": 405}