{"hash": "337f8fee6bb8b90af85ca56c32ea001d1ff6eb7501f4e5790cec5ec03b11dfd2", "blockhash": "0000000000000000001cda96e906b7601b7a6fb1a3b62bca570a9e5d8f4b3de1", "vout": [{"scriptPubKey": {"reqSigs": 1, "hex": "a9141b83ffb834632d02ef63f818ef6317b3bff529b187", "addresses": ["34CWJAgtHtFvJLHBjRfiA5yf2zFFhn3LfQ"], "asm": "OP_HASH160 1b83ffb834632d02ef63f818ef6317b3bff529b1 OP_EQUAL", "type": "scripthash"}, "value": 0.81313006, "n": 0}], "hex": "01000000016baee0f65c8d105cb7f8cb54ce5111fbf5c3c35f8d7243f044ad1501ac5326d1000000006a47304402200cd2a7ea1c778e5705ae0f121abf9057f18b5e8c062b2cd6cf81342dd3dbcce7022078ccd2405306ce27861f51f87169bfa82977fa0d9bf782af03055da959bfeb8501210222597f606c1e8c6298870febe64981f397bedf90a2b56958655c9ca7fb36549effffffff01eebcd8040000000017a9141b83ffb834632d02ef63f818ef6317b3bff529b18700000000", "vin": [{"sequence": 4294967295, "scriptSig": {"hex": "47304402200cd2a7ea1c778e5705ae0f121abf9057f18b5e8c062b2cd6cf81342dd3dbcce7022078ccd2405306ce27861f51f87169bfa82977fa0d9bf782af03055da959bfeb8501210222597f606c1e8c6298870febe64981f397bedf90a2b56958655c9ca7fb36549e", "asm": "304402200cd2a7ea1c778e5705ae0f121abf9057f18b5e8c062b2cd6cf81342dd3dbcce7022078ccd2405306ce27861f51f87169bfa82977fa0d9bf782af03055da959bfeb85[ALL] 0222597f606c1e8c6298870febe64981f397bedf90a2b56958655c9ca7fb36549e"}, "vout": 0, "txid": "d12653ac0115ad44f043728d5fc3c3f5fb1151ce54cbf8b75c108d5cf6e0ae6b"}], "txid": "337f8fee6bb8b90af85ca56c32ea001d1ff6eb7501f4e5790cec5ec03b11dfd2", "blocktime": 1537873282, "version": 1, "confirmations": 11481, "time": 1537873282, "locktime": 0, "vsize": 189, "size": 189}