{"hash": "3383464c44a07fc70103a9a5f202e642b9db2a4e1845ba014ae02ccad33ea702", "blockhash": "00000000000000000018f53835495a110e01622372bf6ae95dc86f2b0ab887b0", "vout": [{"scriptPubKey": {"reqSigs": 1, "hex": "76a914cebf09090d0469c77262b6bbd19fd4a6fb3434ad88ac", "addresses": ["1KrB3tA6txDFhdbnPN51o4jvLSejLAYTZ7"], "asm": "OP_DUP OP_HASH160 cebf09090d0469c77262b6bbd19fd4a6fb3434ad OP_EQUALVERIFY OP_CHECKSIG", "type": "pubkeyhash"}, "value": 0.04033885, "n": 0}, {"scriptPubKey": {"reqSigs": 1, "hex": "76a914eefbe4ef696fdecbaf86e29110cd9157eea7c76788ac", "addresses": ["1NndaaTjqtQbr3oLhX7M5q9qQekRNNSssM"], "asm": "OP_DUP OP_HASH160 eefbe4ef696fdecbaf86e29110cd9157eea7c767 OP_EQUALVERIFY OP_CHECKSIG", "type": "pubkeyhash"}, "value": 0.05, "n": 1}], "hex": "010000000126c837bbd904f9671e727f1053124336e1ea244df00ad0fab47044d3baeb5934070000006a473044022076368105e968123b25fb6b58acae3c1068d75c3658264729a8972f2d76bb26c4022029862625e528e4be2f2f97b2b38be9bf09eea13bf82cfba1d7a3ad919d08a177012102d29e386e02811b2e81fd7467d5c2fe839f53ac53aa21f0153a48390dcc3376ebffffffff025d8d3d00000000001976a914cebf09090d0469c77262b6bbd19fd4a6fb3434ad88ac404b4c00000000001976a914eefbe4ef696fdecbaf86e29110cd9157eea7c76788ac00000000", "vin": [{"sequence": 4294967295, "scriptSig": {"hex": "473044022076368105e968123b25fb6b58acae3c1068d75c3658264729a8972f2d76bb26c4022029862625e528e4be2f2f97b2b38be9bf09eea13bf82cfba1d7a3ad919d08a177012102d29e386e02811b2e81fd7467d5c2fe839f53ac53aa21f0153a48390dcc3376eb", "asm": "3044022076368105e968123b25fb6b58acae3c1068d75c3658264729a8972f2d76bb26c4022029862625e528e4be2f2f97b2b38be9bf09eea13bf82cfba1d7a3ad919d08a177[ALL] 02d29e386e02811b2e81fd7467d5c2fe839f53ac53aa21f0153a48390dcc3376eb"}, "vout": 7, "txid": "3459ebbad34470b4fad00af04d24eae136431253107f721e67f904d9bb37c826"}], "txid": "3383464c44a07fc70103a9a5f202e642b9db2a4e1845ba014ae02ccad33ea702", "blocktime": 1537870928, "version": 1, "confirmations": 11514, "time": 1537870928, "locktime": 0, "vsize": 225, "size": 225}