{"hash": "3384d124a1a4214568d6d7da636ff5c6bab13913d964265d2cffb6c0e94b7cc5", "blockhash": "0000000000000000001f0ddff1eddb255c1121bcd4da4f1bc9a0da00cae72433", "vout": [{"scriptPubKey": {"reqSigs": 1, "hex": "76a914bd0c4bb2f17438b7a88e14ec8b4677f35e253a7d88ac", "addresses": ["1JEbSaR2U5BrA7FncEdeReYN8ZaZWu68cu"], "asm": "OP_DUP OP_HASH160 bd0c4bb2f17438b7a88e14ec8b4677f35e253a7d OP_EQUALVERIFY OP_CHECKSIG", "type": "pubkeyhash"}, "value": 0.019366, "n": 0}, {"scriptPubKey": {"reqSigs": 1, "hex": "76a9141006bf08f0005c42c2b255c7f83cf60bc1d0647888ac", "addresses": ["12Tjtoix2QknASMVi3uUFkZtNZJh4d67qc"], "asm": "OP_DUP OP_HASH160 1006bf08f0005c42c2b255c7f83cf60bc1d06478 OP_EQUALVERIFY OP_CHECKSIG", "type": "pubkeyhash"}, "value": 0.28378248, "n": 1}], "hex": "01000000018207148219ac516784863906d5caba65de3880fdfa152b47f176d7a66e5dd17c010000006a47304402202276d72915a66c20ce59d08517d379962848c1caba4cf1c59fb6c5f681786cd002204e4e08d5d7e9f191c4a1504c542676c668ea2e2ec3995cde45a1b2f24f8d97f60121030216dfb0dd4eff7823ad96fcd006b94e30366d95ce8df2d50c3fd1815337d745fdffffff02d88c1d00000000001976a914bd0c4bb2f17438b7a88e14ec8b4677f35e253a7d88ac8804b101000000001976a9141006bf08f0005c42c2b255c7f83cf60bc1d0647888ac11490800", "vin": [{"sequence": 4294967293, "scriptSig": {"hex": "47304402202276d72915a66c20ce59d08517d379962848c1caba4cf1c59fb6c5f681786cd002204e4e08d5d7e9f191c4a1504c542676c668ea2e2ec3995cde45a1b2f24f8d97f60121030216dfb0dd4eff7823ad96fcd006b94e30366d95ce8df2d50c3fd1815337d745", "asm": "304402202276d72915a66c20ce59d08517d379962848c1caba4cf1c59fb6c5f681786cd002204e4e08d5d7e9f191c4a1504c542676c668ea2e2ec3995cde45a1b2f24f8d97f6[ALL] 030216dfb0dd4eff7823ad96fcd006b94e30366d95ce8df2d50c3fd1815337d745"}, "vout": 1, "txid": "7cd15d6ea6d776f1472b15fafd8038de65bacad5063986846751ac1982140782"}], "txid": "3384d124a1a4214568d6d7da636ff5c6bab13913d964265d2cffb6c0e94b7cc5", "blocktime": 1537872018, "version": 1, "confirmations": 11489, "time": 1537872018, "locktime": 542993, "vsize": 225, "size": 225}