{"hash": "44d4f583e1441fd20e76fd99eb5858d205eaa7174aba40bf377f7300564d66eb", "blockhash": "0000000000000000000dcc0f55137456b1a82d3642486a52398922ac4d620174", "vout": [{"scriptPubKey": {"reqSigs": 1, "hex": "a9144a30e34857978c06076ab475c45498199bbd173187", "addresses": ["38TJVXPEsveVNgsvicZH9AFGoVk6cPGyxE"], "asm": "OP_HASH160 4a30e34857978c06076ab475c45498199bbd1731 OP_EQUAL", "type": "scripthash"}, "value": 0.0016, "n": 0}], "hex": "01000000000102063a8de626abb1413cd0f4ad15824a9ef9cacedd841db70f9f82b86f1ac1cfee01000000171600144fda20d551f094f88983b374572b56b3c613f3b9fdffffff29cbde0571ba54947eb6cf1d9c0a42ece2c5468311a9a8eb3224ff369eb574710000000017160014e9064862fbb47d9cfc0a3d4e7d564dca9e20547ffdffffff01007102000000000017a9144a30e34857978c06076ab475c45498199bbd173187024830450221009e7bcef1574b0dfe9a815dcdeef09a4094ed74325e80146386709344d1023650022073653d4d39d2c65027eb53e61950d213ded8542683c3e0381de6f04021cf48c9012102309e63118008f522ed3a99d010719e9aa4413ac7c2058acc9040000e94ad6dad024830450221009e1de7a327808b216da05a86a9d6f5e165aa5278246d95dd9b77787e58751ee702205bc03ca8176bb16b09fb541e37a746c4bad2c16e0aa5ec09f9a2c2d4027bdc6d01210303d29c0f6eea2bc5bfdb021e5c170b188cf20c155f523fcf255a43e2c65ed3160c490800", "vin": [{"txinwitness": ["30450221009e7bcef1574b0dfe9a815dcdeef09a4094ed74325e80146386709344d1023650022073653d4d39d2c65027eb53e61950d213ded8542683c3e0381de6f04021cf48c901", "02309e63118008f522ed3a99d010719e9aa4413ac7c2058acc9040000e94ad6dad"], "sequence": 4294967293, "scriptSig": {"hex": "1600144fda20d551f094f88983b374572b56b3c613f3b9", "asm": "00144fda20d551f094f88983b374572b56b3c613f3b9"}, "vout": 1, "txid": "eecfc11a6fb8829f0fb71d84ddcecaf99e4a8215adf4d03c41b1ab26e68d3a06"}, {"txinwitness": ["30450221009e1de7a327808b216da05a86a9d6f5e165aa5278246d95dd9b77787e58751ee702205bc03ca8176bb16b09fb541e37a746c4bad2c16e0aa5ec09f9a2c2d4027bdc6d01", "0303d29c0f6eea2bc5bfdb021e5c170b188cf20c155f523fcf255a43e2c65ed316"], "sequence": 4294967293, "scriptSig": {"hex": "160014e9064862fbb47d9cfc0a3d4e7d564dca9e20547f", "asm": "0014e9064862fbb47d9cfc0a3d4e7d564dca9e20547f"}, "vout": 0, "txid": "7174b59e36ff2432eba8a9118346c5e2ec420a9c1dcfb67e9454ba7105decb29"}], "txid": "338876798239016de2ca6d33023a0710beba29da1eeeef915f2f57da50470e18", "blocktime": 1537870268, "version": 1, "confirmations": 11518, "time": 1537870268, "locktime": 542988, "vsize": 225, "size": 388}