{"hash": "3388df8f766fc085cd89480ce6d19e360b7c179eed6869514e581f1f98922e0e", "blockhash": "0000000000000000001f76057863aec43deb6fa401d9628bb513d65a8098bfab", "vout": [{"scriptPubKey": {"reqSigs": 1, "hex": "76a914197d414fe1fcdd7bc0af0ffcebc9b8786b756fd888ac", "addresses": ["13Kmwg7n7jAPuSMqTXTFYxZmLTRD59598c"], "asm": "OP_DUP OP_HASH160 197d414fe1fcdd7bc0af0ffcebc9b8786b756fd8 OP_EQUALVERIFY OP_CHECKSIG", "type": "pubkeyhash"}, "value": 0.0015605, "n": 0}, {"scriptPubKey": {"reqSigs": 1, "hex": "76a9149e795b8bada7dd82a0986495724dd06e5a19115a88ac", "addresses": ["1FSw9PDhC57wPT9faD36TymRGaKbfDp1JG"], "asm": "OP_DUP OP_HASH160 9e795b8bada7dd82a0986495724dd06e5a19115a OP_EQUALVERIFY OP_CHECKSIG", "type": "pubkeyhash"}, "value": 0.00214226, "n": 1}], "hex": "0100000001fd24339b03e85d905394696f0443a51bba8b3ac75f4d722e413b555cad0dce23010000006b483045022100ce2989442236b0439a5d7d2505ca1643e0fe84f37f975917649e278243a2cdaa02207f2b2cf85845d5604bf3b0fc9aa1ccb1f65f7eeb5f780e12bc3ac83fb4baa10f01210229c331f8f3ccf3897846d616c15e473415f5816cc4dfce9b64210c0ebc5f9ca6ffffffff0292610200000000001976a914197d414fe1fcdd7bc0af0ffcebc9b8786b756fd888acd2440300000000001976a9149e795b8bada7dd82a0986495724dd06e5a19115a88ac00000000", "vin": [{"sequence": 4294967295, "scriptSig": {"hex": "483045022100ce2989442236b0439a5d7d2505ca1643e0fe84f37f975917649e278243a2cdaa02207f2b2cf85845d5604bf3b0fc9aa1ccb1f65f7eeb5f780e12bc3ac83fb4baa10f01210229c331f8f3ccf3897846d616c15e473415f5816cc4dfce9b64210c0ebc5f9ca6", "asm": "3045022100ce2989442236b0439a5d7d2505ca1643e0fe84f37f975917649e278243a2cdaa02207f2b2cf85845d5604bf3b0fc9aa1ccb1f65f7eeb5f780e12bc3ac83fb4baa10f[ALL] 0229c331f8f3ccf3897846d616c15e473415f5816cc4dfce9b64210c0ebc5f9ca6"}, "vout": 1, "txid": "23ce0dad5c553b412e724d5fc73a8bba1ba543046f699453905de8039b3324fd"}], "txid": "3388df8f766fc085cd89480ce6d19e360b7c179eed6869514e581f1f98922e0e", "blocktime": 1537873891, "version": 1, "confirmations": 11478, "time": 1537873891, "locktime": 0, "vsize": 226, "size": 226}