{"hash": "a894a0c8069b5ce329a1ee01098049530d62b2cf7c35aea908a9fe08dab45feb", "blockhash": "0000000000000000000baef3f32e3676a92c3b2e5da21b426e4f302fc371ce76", "vout": [{"scriptPubKey": {"reqSigs": 1, "hex": "a9145c469bf7425f275448cbdaf81364401cfca0cf8687", "addresses": ["3A6vgD2sREYm4L85RmuqdF9C3CMoX1BXqo"], "asm": "OP_HASH160 5c469bf7425f275448cbdaf81364401cfca0cf86 OP_EQUAL", "type": "scripthash"}, "value": 3.105e-05, "n": 0}, {"scriptPubKey": {"reqSigs": 1, "hex": "a9141d7370ccde4590204155e4074f69743a8e4fac0287", "addresses": ["34Njp4ZKtmCDfqqps26wHBYQQGUo2pGkLi"], "asm": "OP_HASH160 1d7370ccde4590204155e4074f69743a8e4fac02 OP_EQUAL", "type": "scripthash"}, "value": 0.0007569, "n": 1}], "hex": "010000000001013915ddd35abc3b6168bfd3741ed531754e6fb41550f807bec140a0d70aa3daa70100000023220020f63dfc12340f6360d0251c22746d6b56093e3243e96ca012a65484a5d9cf0ec0ffffffff02210c00000000000017a9145c469bf7425f275448cbdaf81364401cfca0cf8687aa2701000000000017a9141d7370ccde4590204155e4074f69743a8e4fac02870400483045022100924ca183ba5afd59eea71285727b7c4b52ba1628f3fc40932caa1d927eecaf4f0220345bc22507387641f5653a951b84787c2107d522904e0f2fa7d563995e9b9ab0014830450221008c9da982f98304bb96f576a9118c62524bf9feea4e06eecb678006c75f8bb24202201b86cd6a1653fb59e537a6fcd2c303ebe70247ebda9a72f3df82cf8fb2c1232f0147522102097067a6a0cc130a9a6f6577b47bf369b840a79de31cd7457187994266b1bb7c2103338f346cab6ba87fe940591a03ac234be06520c5ab386d4b6632e8eef0d0db7652ae00000000", "vin": [{"txinwitness": ["", "3045022100924ca183ba5afd59eea71285727b7c4b52ba1628f3fc40932caa1d927eecaf4f0220345bc22507387641f5653a951b84787c2107d522904e0f2fa7d563995e9b9ab001", "30450221008c9da982f98304bb96f576a9118c62524bf9feea4e06eecb678006c75f8bb24202201b86cd6a1653fb59e537a6fcd2c303ebe70247ebda9a72f3df82cf8fb2c1232f01", "522102097067a6a0cc130a9a6f6577b47bf369b840a79de31cd7457187994266b1bb7c2103338f346cab6ba87fe940591a03ac234be06520c5ab386d4b6632e8eef0d0db7652ae"], "sequence": 4294967295, "scriptSig": {"hex": "220020f63dfc12340f6360d0251c22746d6b56093e3243e96ca012a65484a5d9cf0ec0", "asm": "0020f63dfc12340f6360d0251c22746d6b56093e3243e96ca012a65484a5d9cf0ec0"}, "vout": 1, "txid": "a7daa30ad7a040c1be07f85015b46f4e7531d51e74d3bf68613bbc5ad3dd1539"}], "txid": "339374baec47b8e2891abcf5daae4c9d1e54376f3a62229df017ef67d9779511", "blocktime": 1537876114, "version": 1, "confirmations": 11462, "time": 1537876114, "locktime": 0, "vsize": 206, "size": 372}