{"hash": "339a815bf18751da115f5876eb2741dd0f14c65e75815ae7d74fe4998fbbc200", "blockhash": "0000000000000000000e13cef7c366c0283d82e591d1acd082e914b08063cdf1", "vout": [{"scriptPubKey": {"reqSigs": 1, "hex": "76a914c2a850779e45ae6327ae4295ac90dadfb7c9cfc188ac", "addresses": ["1JkFiuAiXeUP7tmVvvK6FSK3d1FdHKBSjG"], "asm": "OP_DUP OP_HASH160 c2a850779e45ae6327ae4295ac90dadfb7c9cfc1 OP_EQUALVERIFY OP_CHECKSIG", "type": "pubkeyhash"}, "value": 0.207396, "n": 0}, {"scriptPubKey": {"reqSigs": 1, "hex": "76a914edf3e5188eb4471bc1af2b68f85ee82b388f24d188ac", "addresses": ["1NhBKaadK97gT8RmXzMpvvWezAN2tnn72H"], "asm": "OP_DUP OP_HASH160 edf3e5188eb4471bc1af2b68f85ee82b388f24d1 OP_EQUALVERIFY OP_CHECKSIG", "type": "pubkeyhash"}, "value": 0.54590921, "n": 1}], "hex": "01000000013c68ca1012cadde981b94e98122e531853172fc882264d05c1106390a6351da3010000006b483045022100f62aa0ec10ec5503ada5c8a38a851de351f7cdb892664881a498a0e827f16bfc02207cbc1af0c4cf5b399dad741c2c8242871d23bc54962bae1121698aeec1d990a90121035c87ede8ed7039e669b9a91cd4b9b8c22e71002368c44112741f9889a4e11960ffffffff0210763c01000000001976a914c2a850779e45ae6327ae4295ac90dadfb7c9cfc188acc9fd4003000000001976a914edf3e5188eb4471bc1af2b68f85ee82b388f24d188ac00000000", "vin": [{"sequence": 4294967295, "scriptSig": {"hex": "483045022100f62aa0ec10ec5503ada5c8a38a851de351f7cdb892664881a498a0e827f16bfc02207cbc1af0c4cf5b399dad741c2c8242871d23bc54962bae1121698aeec1d990a90121035c87ede8ed7039e669b9a91cd4b9b8c22e71002368c44112741f9889a4e11960", "asm": "3045022100f62aa0ec10ec5503ada5c8a38a851de351f7cdb892664881a498a0e827f16bfc02207cbc1af0c4cf5b399dad741c2c8242871d23bc54962bae1121698aeec1d990a9[ALL] 035c87ede8ed7039e669b9a91cd4b9b8c22e71002368c44112741f9889a4e11960"}, "vout": 1, "txid": "a31d35a6906310c1054d2682c82f175318532e12984eb981e9ddca1210ca683c"}], "txid": "339a815bf18751da115f5876eb2741dd0f14c65e75815ae7d74fe4998fbbc200", "blocktime": 1537871767, "version": 1, "confirmations": 11490, "time": 1537871767, "locktime": 0, "vsize": 226, "size": 226}