{"hash": "33a371dce2e5f5ac8da166a4c52d6fe9e4c07275f491547a9c0db197db937e2b", "blockhash": "00000000000000000018f53835495a110e01622372bf6ae95dc86f2b0ab887b0", "vout": [{"scriptPubKey": {"reqSigs": 1, "hex": "a91476f96f5ab16381819bbe425f1008cad4c08706b887", "addresses": ["3CY6UE3vARj8pmi7emdmBAtd4pKuKZNiti"], "asm": "OP_HASH160 76f96f5ab16381819bbe425f1008cad4c08706b8 OP_EQUAL", "type": "scripthash"}, "value": 0.01127232, "n": 0}], "hex": "0100000004c604a1ee41632c6c0336c4c686d8a948c3dbceca4210088ef7a74bbba6848c90000000006b483045022100a502861687b2ffa7f14af188dd31607e48e132437a38d36d46ae7fd7037f8fc5022055f099afb34690e0663190fb0aa59db57a080404ad2b639a50329ec725f19edc012103f6f1323b6ef9d0db4cce96cf18091196d220b3b63ab11f933f8f5ca2d6741713ffffffff42af52babaefc30e5cb7652d128934416217505259890f6462fd832d50ee709a000000006a47304402204f7df2314808aab87be493345dc73371094a1a716c4dc1a43f04ad2eca021a0802206d50d92acd599377a41f3db2be91d494a4e92a6a5fb49836934618c7ddbd2a25012103f6f1323b6ef9d0db4cce96cf18091196d220b3b63ab11f933f8f5ca2d6741713ffffffffe8523b451b58131b42a6f13b6198e542ac886581b612b4881b95c09442cfe8cb000000006a473044022027887e53f5d01a9183561d28572df8b781acde88bd93d2bf2bd8979b0b3aebb40220610a106088116e503f700d6e7aaea669d418cba9ae90109accdc91bd7066ccd6012103f6f1323b6ef9d0db4cce96cf18091196d220b3b63ab11f933f8f5ca2d6741713ffffffff1d38ba2df080d5cc34ce7af76d8af042eb447d07a652aac302bba4c8e4f525d1010000006a47304402202d4c4b769f5d08447f7219bdf03df6e2b53d98867a4149fa9f35d6e589367d8a02201c56adf0521ff11e24087a556afee13a8dff91d396127d9ffe7fc31a8fbe01a2012103f6f1323b6ef9d0db4cce96cf18091196d220b3b63ab11f933f8f5ca2d6741713ffffffff01403311000000000017a91476f96f5ab16381819bbe425f1008cad4c08706b88700000000", "vin": [{"sequence": 4294967295, "scriptSig": {"hex": "483045022100a502861687b2ffa7f14af188dd31607e48e132437a38d36d46ae7fd7037f8fc5022055f099afb34690e0663190fb0aa59db57a080404ad2b639a50329ec725f19edc012103f6f1323b6ef9d0db4cce96cf18091196d220b3b63ab11f933f8f5ca2d6741713", "asm": "3045022100a502861687b2ffa7f14af188dd31607e48e132437a38d36d46ae7fd7037f8fc5022055f099afb34690e0663190fb0aa59db57a080404ad2b639a50329ec725f19edc[ALL] 03f6f1323b6ef9d0db4cce96cf18091196d220b3b63ab11f933f8f5ca2d6741713"}, "vout": 0, "txid": "908c84a6bb4ba7f78e081042cacedbc348a9d886c6c436036c2c6341eea104c6"}, {"sequence": 4294967295, "scriptSig": {"hex": "47304402204f7df2314808aab87be493345dc73371094a1a716c4dc1a43f04ad2eca021a0802206d50d92acd599377a41f3db2be91d494a4e92a6a5fb49836934618c7ddbd2a25012103f6f1323b6ef9d0db4cce96cf18091196d220b3b63ab11f933f8f5ca2d6741713", "asm": "304402204f7df2314808aab87be493345dc73371094a1a716c4dc1a43f04ad2eca021a0802206d50d92acd599377a41f3db2be91d494a4e92a6a5fb49836934618c7ddbd2a25[ALL] 03f6f1323b6ef9d0db4cce96cf18091196d220b3b63ab11f933f8f5ca2d6741713"}, "vout": 0, "txid": "9a70ee502d83fd62640f895952501762413489122d65b75c0ec3efbaba52af42"}, {"sequence": 4294967295, "scriptSig": {"hex": "473044022027887e53f5d01a9183561d28572df8b781acde88bd93d2bf2bd8979b0b3aebb40220610a106088116e503f700d6e7aaea669d418cba9ae90109accdc91bd7066ccd6012103f6f1323b6ef9d0db4cce96cf18091196d220b3b63ab11f933f8f5ca2d6741713", "asm": "3044022027887e53f5d01a9183561d28572df8b781acde88bd93d2bf2bd8979b0b3aebb40220610a106088116e503f700d6e7aaea669d418cba9ae90109accdc91bd7066ccd6[ALL] 03f6f1323b6ef9d0db4cce96cf18091196d220b3b63ab11f933f8f5ca2d6741713"}, "vout": 0, "txid": "cbe8cf4294c0951b88b412b6816588ac42e598613bf1a6421b13581b453b52e8"}, {"sequence": 4294967295, "scriptSig": {"hex": "47304402202d4c4b769f5d08447f7219bdf03df6e2b53d98867a4149fa9f35d6e589367d8a02201c56adf0521ff11e24087a556afee13a8dff91d396127d9ffe7fc31a8fbe01a2012103f6f1323b6ef9d0db4cce96cf18091196d220b3b63ab11f933f8f5ca2d6741713", "asm": "304402202d4c4b769f5d08447f7219bdf03df6e2b53d98867a4149fa9f35d6e589367d8a02201c56adf0521ff11e24087a556afee13a8dff91d396127d9ffe7fc31a8fbe01a2[ALL] 03f6f1323b6ef9d0db4cce96cf18091196d220b3b63ab11f933f8f5ca2d6741713"}, "vout": 1, "txid": "d125f5e4c8a4bb02c3aa52a6077d44eb42f08a6df77ace34ccd580f02dba381d"}], "txid": "33a371dce2e5f5ac8da166a4c52d6fe9e4c07275f491547a9c0db197db937e2b", "blocktime": 1537870928, "version": 1, "confirmations": 11512, "time": 1537870928, "locktime": 0, "vsize": 631, "size": 631}