{"hash": "33a3d5c43e89a0bd4ab0841e19fae309a03ff956634b190aa059b600374a53c7", "blockhash": "00000000000000000004ffacab907a6b429b9a5745fa0b75af4234bf69dd7176", "vout": [{"scriptPubKey": {"reqSigs": 1, "hex": "76a91474ea8810c45dcf324f20009ec02ddd3329dd330288ac", "addresses": ["1BfCLneav3Efk98QcZBdg2cTx8no7kEfqY"], "asm": "OP_DUP OP_HASH160 74ea8810c45dcf324f20009ec02ddd3329dd3302 OP_EQUALVERIFY OP_CHECKSIG", "type": "pubkeyhash"}, "value": 0.00196069, "n": 0}, {"scriptPubKey": {"reqSigs": 1, "hex": "a914a9609705c8f8796f6978d7f82b76b1c63461dcec87", "addresses": ["3H8bq9cFa2hPUJG1CkBQLuciqnWYTdm8fV"], "asm": "OP_HASH160 a9609705c8f8796f6978d7f82b76b1c63461dcec OP_EQUAL", "type": "scripthash"}, "value": 0.0083, "n": 1}], "hex": "0100000001144cef5771fe05ba753bb197d262a9328fc7276039a2f8d1f338e2a43eca4f76000000006a4730440220348ea74b131a01d434bb0b061699ae44abd63363c4623857b0c88b44287caf73022007e0b3213df44c57864c3c7632e5c945a46f51b4394e2c580a3aeada37d705ae012102a6c48f74af60115a27ed556ba0ef47c3c92860d8830decaa91ec58585853fed9ffffffff02e5fd0200000000001976a91474ea8810c45dcf324f20009ec02ddd3329dd330288ac30aa0c000000000017a914a9609705c8f8796f6978d7f82b76b1c63461dcec8700000000", "vin": [{"sequence": 4294967295, "scriptSig": {"hex": "4730440220348ea74b131a01d434bb0b061699ae44abd63363c4623857b0c88b44287caf73022007e0b3213df44c57864c3c7632e5c945a46f51b4394e2c580a3aeada37d705ae012102a6c48f74af60115a27ed556ba0ef47c3c92860d8830decaa91ec58585853fed9", "asm": "30440220348ea74b131a01d434bb0b061699ae44abd63363c4623857b0c88b44287caf73022007e0b3213df44c57864c3c7632e5c945a46f51b4394e2c580a3aeada37d705ae[ALL] 02a6c48f74af60115a27ed556ba0ef47c3c92860d8830decaa91ec58585853fed9"}, "vout": 0, "txid": "764fca3ea4e238f3d1f8a2396027c78f32a962d297b13b75ba05fe7157ef4c14"}], "txid": "33a3d5c43e89a0bd4ab0841e19fae309a03ff956634b190aa059b600374a53c7", "blocktime": 1537875543, "version": 1, "confirmations": 11464, "time": 1537875543, "locktime": 0, "vsize": 223, "size": 223}