{"hash": "33a6afe1190f6535b01150927030c2b07714ab5361424c5865365a117a3ead58", "blockhash": "0000000000000000000e13cef7c366c0283d82e591d1acd082e914b08063cdf1", "vout": [{"scriptPubKey": {"type": "nulldata", "hex": "6a4c500000778d0001215d7394c3445270de839f71e3ef3236678a625097bcbefa6b8351586b4e288ae09584fcdf2aaa2957d9a724d12c5baa0c670613b6d84d2354351d100759d4ba30d2c37bb011d97e02cf", "asm": "OP_RETURN 0000778d0001215d7394c3445270de839f71e3ef3236678a625097bcbefa6b8351586b4e288ae09584fcdf2aaa2957d9a724d12c5baa0c670613b6d84d2354351d100759d4ba30d2c37bb011d97e02cf"}, "value": 0.0, "n": 0}, {"scriptPubKey": {"reqSigs": 1, "hex": "76a914daed6240712880b32b65b3c82f1614a7be7c6a6888ac", "addresses": ["1LxagXzSwH4S9UH2fXxw1WZC1yHsz5AuVv"], "asm": "OP_DUP OP_HASH160 daed6240712880b32b65b3c82f1614a7be7c6a68 OP_EQUALVERIFY OP_CHECKSIG", "type": "pubkeyhash"}, "value": 0.00644344, "n": 1}], "hex": "01000000017a25835378e80db5cd26a155c679965ece246e8935b31c75ac50ca97eec9b445000000006b483045022100d8f26e603271c319c61649cf1eece6efcad9ef97640a05373f33794e0c12c51e0220461c943f727f0714b3bd8029493bff14aa778626357707c1a87223a5d14195e0012103b6d3c9254076d9f2ae7e9a0e6e3a8b9045170b33c9810ea733975851bbebc58effffffff020000000000000000536a4c500000778d0001215d7394c3445270de839f71e3ef3236678a625097bcbefa6b8351586b4e288ae09584fcdf2aaa2957d9a724d12c5baa0c670613b6d84d2354351d100759d4ba30d2c37bb011d97e02cff8d40900000000001976a914daed6240712880b32b65b3c82f1614a7be7c6a6888ac00000000", "vin": [{"sequence": 4294967295, "scriptSig": {"hex": "483045022100d8f26e603271c319c61649cf1eece6efcad9ef97640a05373f33794e0c12c51e0220461c943f727f0714b3bd8029493bff14aa778626357707c1a87223a5d14195e0012103b6d3c9254076d9f2ae7e9a0e6e3a8b9045170b33c9810ea733975851bbebc58e", "asm": "3045022100d8f26e603271c319c61649cf1eece6efcad9ef97640a05373f33794e0c12c51e0220461c943f727f0714b3bd8029493bff14aa778626357707c1a87223a5d14195e0[ALL] 03b6d3c9254076d9f2ae7e9a0e6e3a8b9045170b33c9810ea733975851bbebc58e"}, "vout": 0, "txid": "45b4c9ee97ca50ac751cb335896e24ce5e9679c655a126cdb50de8785383257a"}], "txid": "33a6afe1190f6535b01150927030c2b07714ab5361424c5865365a117a3ead58", "blocktime": 1537871767, "version": 1, "confirmations": 11495, "time": 1537871767, "locktime": 0, "vsize": 284, "size": 284}