{"hash": "33a73562931250f943051d8ca9ff17a78e67db3ac98a0f9a089f1a26841aaca8", "blockhash": "000000000000000000205f8b0775d31398ef75b89a5e8ec8d2c57b4dc0ac4c20", "vout": [{"scriptPubKey": {"reqSigs": 1, "hex": "76a9140c682b600d71b6651d33ef6d49d70a704f85aac388ac", "addresses": ["128bu82Zf9rirAjYids8AU3eWuay9hZqZp"], "asm": "OP_DUP OP_HASH160 0c682b600d71b6651d33ef6d49d70a704f85aac3 OP_EQUALVERIFY OP_CHECKSIG", "type": "pubkeyhash"}, "value": 0.03475024, "n": 0}, {"scriptPubKey": {"reqSigs": 1, "hex": "76a9144e6918786d78fa0b4df54c5532e0e57c31bc23fc88ac", "addresses": ["189bc8fmRSroweYvtX7iTmjAk6waWVvECY"], "asm": "OP_DUP OP_HASH160 4e6918786d78fa0b4df54c5532e0e57c31bc23fc OP_EQUALVERIFY OP_CHECKSIG", "type": "pubkeyhash"}, "value": 0.3, "n": 1}], "hex": "010000000482d39d3f111ce212970e072f111eae3c8d1215de1813572873673aa64af295010b0000006b4830450221008cc74aab52189761a51994a7454386a48cdb3b9af125a88004ccbb715af1b2e602204e4207bbaeb8f7c99f48d88a2729f022991a8b65822eedef679c23ae7f6f3a19012102b5245ef2213574418e721914e41be93724773235038e1cbc61981d8ab3fbfe9bfdffffff2ed7c739e6bdb9e2b419482aa9351aa14355e53ea255f67b42bdf71edf536512000000006a473044022069f7bb92b63b7d447c03b49bf71c2c8b10d70db2280b9882f80fe14221c06bbe022017eb484df8f8e8374a92dc77b0088c40558fe2ad11a2743f6847f292ac125ac301210378090a56fa0d1cd2f2ba76b35bc559f57b6e72865ee33d294c3b6d48fb0554ddfdffffffbe66f5ae5debac26da283a25bf183f3f859236be416600707ada5086311bf75f0a0000006b483045022100d607a4fc5b667d183afc9452729018d926071c9ba8a364b21dea4372736e829902205e52bf98fe9b72eae30ffa122024a310b7f3c327a6f79a046497e1dd757aaed4012103215766e1e7e5fe4e0f39f5eab0d7c83edc09c1a55e311ed27ebdf6e8a1cbbed0fdffffffe211af7c4e9c8712417afd159cb318946491d226f3c1ab0bca7a3b6c302e76f8140000006b48304502210082bde7cb4b3c78b65286ab10efa628eea6ca2c8bfde2d308e98907b8bff4c9a6022066e74672f1a14ff9b8c0ed50f193ac29eb404b81246dc912c20b9dfc5f20b8c0012102add51ccf9b51b8aec1ea5a69818233c789caf2240d22a5981842f1f13ce661f5fdffffff0250063500000000001976a9140c682b600d71b6651d33ef6d49d70a704f85aac388ac80c3c901000000001976a9144e6918786d78fa0b4df54c5532e0e57c31bc23fc88ac0f490800", "vin": [{"sequence": 4294967293, "scriptSig": {"hex": "4830450221008cc74aab52189761a51994a7454386a48cdb3b9af125a88004ccbb715af1b2e602204e4207bbaeb8f7c99f48d88a2729f022991a8b65822eedef679c23ae7f6f3a19012102b5245ef2213574418e721914e41be93724773235038e1cbc61981d8ab3fbfe9b", "asm": "30450221008cc74aab52189761a51994a7454386a48cdb3b9af125a88004ccbb715af1b2e602204e4207bbaeb8f7c99f48d88a2729f022991a8b65822eedef679c23ae7f6f3a19[ALL] 02b5245ef2213574418e721914e41be93724773235038e1cbc61981d8ab3fbfe9b"}, "vout": 11, "txid": "0195f24aa63a677328571318de15128d3cae1e112f070e9712e21c113f9dd382"}, {"sequence": 4294967293, "scriptSig": {"hex": "473044022069f7bb92b63b7d447c03b49bf71c2c8b10d70db2280b9882f80fe14221c06bbe022017eb484df8f8e8374a92dc77b0088c40558fe2ad11a2743f6847f292ac125ac301210378090a56fa0d1cd2f2ba76b35bc559f57b6e72865ee33d294c3b6d48fb0554dd", "asm": "3044022069f7bb92b63b7d447c03b49bf71c2c8b10d70db2280b9882f80fe14221c06bbe022017eb484df8f8e8374a92dc77b0088c40558fe2ad11a2743f6847f292ac125ac3[ALL] 0378090a56fa0d1cd2f2ba76b35bc559f57b6e72865ee33d294c3b6d48fb0554dd"}, "vout": 0, "txid": "126553df1ef7bd427bf655a23ee55543a11a35a92a4819b4e2b9bde639c7d72e"}, {"sequence": 4294967293, "scriptSig": {"hex": "483045022100d607a4fc5b667d183afc9452729018d926071c9ba8a364b21dea4372736e829902205e52bf98fe9b72eae30ffa122024a310b7f3c327a6f79a046497e1dd757aaed4012103215766e1e7e5fe4e0f39f5eab0d7c83edc09c1a55e311ed27ebdf6e8a1cbbed0", "asm": "3045022100d607a4fc5b667d183afc9452729018d926071c9ba8a364b21dea4372736e829902205e52bf98fe9b72eae30ffa122024a310b7f3c327a6f79a046497e1dd757aaed4[ALL] 03215766e1e7e5fe4e0f39f5eab0d7c83edc09c1a55e311ed27ebdf6e8a1cbbed0"}, "vout": 10, "txid": "5ff71b318650da7a70006641be3692853f3f18bf253a28da26aceb5daef566be"}, {"sequence": 4294967293, "scriptSig": {"hex": "48304502210082bde7cb4b3c78b65286ab10efa628eea6ca2c8bfde2d308e98907b8bff4c9a6022066e74672f1a14ff9b8c0ed50f193ac29eb404b81246dc912c20b9dfc5f20b8c0012102add51ccf9b51b8aec1ea5a69818233c789caf2240d22a5981842f1f13ce661f5", "asm": "304502210082bde7cb4b3c78b65286ab10efa628eea6ca2c8bfde2d308e98907b8bff4c9a6022066e74672f1a14ff9b8c0ed50f193ac29eb404b81246dc912c20b9dfc5f20b8c0[ALL] 02add51ccf9b51b8aec1ea5a69818233c789caf2240d22a5981842f1f13ce661f5"}, "vout": 20, "txid": "f8762e306c3b7aca0babc1f326d291649418b39c15fd7a4112879c4e7caf11e2"}], "txid": "33a73562931250f943051d8ca9ff17a78e67db3ac98a0f9a089f1a26841aaca8", "blocktime": 1537871175, "version": 1, "confirmations": 11511, "time": 1537871175, "locktime": 542991, "vsize": 669, "size": 669}