{"hash": "4908b125a47c17f4bd1e0d9af2938f48b8eaca9d1f734a068e3b7830bc0a1bce", "blockhash": "0000000000000000000e13cef7c366c0283d82e591d1acd082e914b08063cdf1", "vout": [{"scriptPubKey": {"reqSigs": 1, "hex": "a914c5f3741453043f0bc2085d1dc059095a1476ad1a87", "addresses": ["3KjggmwFzEM6kVL73yXsAFDmKsp7Pic76K"], "asm": "OP_HASH160 c5f3741453043f0bc2085d1dc059095a1476ad1a OP_EQUAL", "type": "scripthash"}, "value": 5e-05, "n": 0}, {"scriptPubKey": {"reqSigs": 1, "hex": "a914e8db75c900cf08f06518e96d167331f2a4abfb3387", "addresses": ["3NvFbQMAkkqEFj4i1sYPPLkSWzxTFUchjA"], "asm": "OP_HASH160 e8db75c900cf08f06518e96d167331f2a4abfb33 OP_EQUAL", "type": "scripthash"}, "value": 0.00169175, "n": 1}], "hex": "010000000001013b54e81b3673e3601de504fe97a1530300890494d434460b3d51b01b75ea856e0100000023220020941cfaff8837763dc1f69ff82b6d6553fdea17a41cfc29a04403293eedd8ccc7ffffffff02881300000000000017a914c5f3741453043f0bc2085d1dc059095a1476ad1a87d79402000000000017a914e8db75c900cf08f06518e96d167331f2a4abfb33870400473044022054e40dbe64bf80ef16f43466c1b93ecea98f3e699002c3b06e786ce4f6dea538022046d4b96712b59a9823d79fad67b37a48bcfeea6af8ba29b2b94ca1640167d897014730440220059c3c787da26506660aefcf222b8b4e72463a719a7f53ffff720973a6ce5b80022041dc11596310e37aea7302f47af08f6c75e832bdbdfb6e184ca181af6ea725c60147522102531db3a5883f29bab4241dd0cd726936667bcda445d89bdd22244e828b6993342103148c80a5bdfddb05ff5bcffc397c8ca748d8b435ec6a175bc9d7bfc7fc6f853752ae00000000", "vin": [{"txinwitness": ["", "3044022054e40dbe64bf80ef16f43466c1b93ecea98f3e699002c3b06e786ce4f6dea538022046d4b96712b59a9823d79fad67b37a48bcfeea6af8ba29b2b94ca1640167d89701", "30440220059c3c787da26506660aefcf222b8b4e72463a719a7f53ffff720973a6ce5b80022041dc11596310e37aea7302f47af08f6c75e832bdbdfb6e184ca181af6ea725c601", "522102531db3a5883f29bab4241dd0cd726936667bcda445d89bdd22244e828b6993342103148c80a5bdfddb05ff5bcffc397c8ca748d8b435ec6a175bc9d7bfc7fc6f853752ae"], "sequence": 4294967295, "scriptSig": {"hex": "220020941cfaff8837763dc1f69ff82b6d6553fdea17a41cfc29a04403293eedd8ccc7", "asm": "0020941cfaff8837763dc1f69ff82b6d6553fdea17a41cfc29a04403293eedd8ccc7"}, "vout": 1, "txid": "6e85ea751bb0513d0b4634d4940489000353a197fe04e51d60e373361be8543b"}], "txid": "33ab9ed4701b845200098688047e937e57dce707ea4848bd45816b54b75aacf1", "blocktime": 1537871767, "version": 1, "confirmations": 11495, "time": 1537871767, "locktime": 0, "vsize": 205, "size": 370}