{"hash": "2db11cfed201f4b09a4374d03069bbb490a521df75612ec010922f0f93c6b30a", "blockhash": "0000000000000000000baef3f32e3676a92c3b2e5da21b426e4f302fc371ce76", "vout": [{"scriptPubKey": {"reqSigs": 1, "hex": "a91430897cc6c9d69f6a2c2f1c651d51f22219f1a4f687", "addresses": ["367f4YWz1VCFaqBqwbTrzwi2b1h2U3w1AF"], "asm": "OP_HASH160 30897cc6c9d69f6a2c2f1c651d51f22219f1a4f6 OP_EQUAL", "type": "scripthash"}, "value": 19.41236338, "n": 0}, {"scriptPubKey": {"reqSigs": 1, "hex": "76a9144c036d0c7fa6f3e92ebb57082ed2b372f58ef55a88ac", "addresses": ["17vvTcx4kfZEJjJhNydbwyrwE6fFc8vvtp"], "asm": "OP_DUP OP_HASH160 4c036d0c7fa6f3e92ebb57082ed2b372f58ef55a OP_EQUALVERIFY OP_CHECKSIG", "type": "pubkeyhash"}, "value": 0.288, "n": 1}], "hex": "010000000001016d486335d55828077e3070b110c15a5854617cc037fdbafa71276c47264937c20000000023220020bcf9f822194145acea0f3235f4107b5bf1a91b6b9f8489f63bf79ec29b360913ffffffff0272eab4730000000017a91430897cc6c9d69f6a2c2f1c651d51f22219f1a4f6870074b701000000001976a9144c036d0c7fa6f3e92ebb57082ed2b372f58ef55a88ac0400473044022065bcc111a792739dfcb8ae815ecda83936e41b0f06fab8a16b057c72d1ba4a6902204a28b82374996bd92e8f42783febd9fef61af04f8c9eef0e8b7078fb6c3415e60147304402205b4ed074b51a8b0ce91c9ccc76ed9bf578756af461e75ff7abff926e3ddd9f6402201c2c8f9b129f79535446371c31fda43fad2d4c07be0634a97986cfc52dcfefdb01695221026c8f72b9e63db63907115e65d4da86eaae595b22fdc85ec75301bb4adbf203582103806535be3e3920e5eedee92de5714188fd6a784f2bf7b04f87de0b9c3ae1ecdb21024b23bfdce2afcae7e28c42f7f79aa100f22931712c52d7414a526ba494d44a2553ae00000000", "vin": [{"txinwitness": ["", "3044022065bcc111a792739dfcb8ae815ecda83936e41b0f06fab8a16b057c72d1ba4a6902204a28b82374996bd92e8f42783febd9fef61af04f8c9eef0e8b7078fb6c3415e601", "304402205b4ed074b51a8b0ce91c9ccc76ed9bf578756af461e75ff7abff926e3ddd9f6402201c2c8f9b129f79535446371c31fda43fad2d4c07be0634a97986cfc52dcfefdb01", "5221026c8f72b9e63db63907115e65d4da86eaae595b22fdc85ec75301bb4adbf203582103806535be3e3920e5eedee92de5714188fd6a784f2bf7b04f87de0b9c3ae1ecdb21024b23bfdce2afcae7e28c42f7f79aa100f22931712c52d7414a526ba494d44a2553ae"], "sequence": 4294967295, "scriptSig": {"hex": "220020bcf9f822194145acea0f3235f4107b5bf1a91b6b9f8489f63bf79ec29b360913", "asm": "0020bcf9f822194145acea0f3235f4107b5bf1a91b6b9f8489f63bf79ec29b360913"}, "vout": 0, "txid": "c2374926476c2771fabafd37c07c6154585ac110b170307e072858d53563486d"}], "txid": "33ac35f74f5c67e8e8922fc0fbae9ab56aa41a402740d054430fa35f94a5db01", "blocktime": 1537876114, "version": 1, "confirmations": 11460, "time": 1537876114, "locktime": 0, "vsize": 216, "size": 406}