{"hash": "33b0b208bc3e156a5b906a73aa269e9f9dbfaf13d32a56e6e303b9b953390991", "blockhash": "0000000000000000000e13cef7c366c0283d82e591d1acd082e914b08063cdf1", "vout": [{"scriptPubKey": {"reqSigs": 1, "hex": "76a914bbf676c726d241beafc244296f7969827012eec788ac", "addresses": ["1J8rcVPwRjJdi1jhk95AsjMfsLBbP7x7pS"], "asm": "OP_DUP OP_HASH160 bbf676c726d241beafc244296f7969827012eec7 OP_EQUALVERIFY OP_CHECKSIG", "type": "pubkeyhash"}, "value": 0.02226645, "n": 0}, {"scriptPubKey": {"type": "nulldata", "hex": "6a146f6d6e69000000000000001f000000f70e7d1300", "asm": "OP_RETURN 6f6d6e69000000000000001f000000f70e7d1300"}, "value": 0.0, "n": 1}, {"scriptPubKey": {"reqSigs": 1, "hex": "76a914e102b70b08c2ced541d112c9d003395cd287fb1688ac", "addresses": ["1MWkHoeJpCrK7to8WX2SBbXZA5WKuUEGu3"], "asm": "OP_DUP OP_HASH160 e102b70b08c2ced541d112c9d003395cd287fb16 OP_EQUALVERIFY OP_CHECKSIG", "type": "pubkeyhash"}, "value": 5.46e-06, "n": 2}], "hex": "01000000010e7abe10c47f7623e171f786ef68b57ce64f8624c2d589221bb8402cf168a75c010000006a473044022017d001b6d33bef8d82b3bfcda96ceec1ceda8d2d494248bb9bca64350d2d3a43022038b9bf5fcc69bc56260fafb55f7814b5ea9941f92c3d22e9e441e036e2e36712012102061af1d6ec220f4ce39a77205368245c29cd0d340edeb4ced8fd2bd0bc788d42ffffffff03d5f92100000000001976a914bbf676c726d241beafc244296f7969827012eec788ac0000000000000000166a146f6d6e69000000000000001f000000f70e7d130022020000000000001976a914e102b70b08c2ced541d112c9d003395cd287fb1688ac00000000", "vin": [{"sequence": 4294967295, "scriptSig": {"hex": "473044022017d001b6d33bef8d82b3bfcda96ceec1ceda8d2d494248bb9bca64350d2d3a43022038b9bf5fcc69bc56260fafb55f7814b5ea9941f92c3d22e9e441e036e2e36712012102061af1d6ec220f4ce39a77205368245c29cd0d340edeb4ced8fd2bd0bc788d42", "asm": "3044022017d001b6d33bef8d82b3bfcda96ceec1ceda8d2d494248bb9bca64350d2d3a43022038b9bf5fcc69bc56260fafb55f7814b5ea9941f92c3d22e9e441e036e2e36712[ALL] 02061af1d6ec220f4ce39a77205368245c29cd0d340edeb4ced8fd2bd0bc788d42"}, "vout": 1, "txid": "5ca768f12c40b81b2289d5c224864fe67cb568ef86f771e123767fc410be7a0e"}], "txid": "33b0b208bc3e156a5b906a73aa269e9f9dbfaf13d32a56e6e303b9b953390991", "blocktime": 1537871767, "version": 1, "confirmations": 11490, "time": 1537871767, "locktime": 0, "vsize": 256, "size": 256}