{"hash": "85c0d68e5ce2a20f2a214a367ebb5ba7f8022059bfba8240aab61285a60aab4d", "blockhash": "00000000000000000017f5eb5941039fbcee6240d03bc1f2f8e35350df66a1d8", "vout": [{"scriptPubKey": {"reqSigs": 1, "hex": "a91494b8fe8791b7663e05867834cdbd411e8bce00c587", "addresses": ["3FFPYZVA2Bga1LvzFo9wrvkfYcAUqz3M9W"], "asm": "OP_HASH160 94b8fe8791b7663e05867834cdbd411e8bce00c5 OP_EQUAL", "type": "scripthash"}, "value": 0.1, "n": 0}, {"scriptPubKey": {"reqSigs": 1, "hex": "a914ff434c7a8b0e4b2b341b0fcd74a6bf1efed4f5a387", "addresses": ["3QxirTbGbhoyeHDki5yAxMH1QftXU55cwf"], "asm": "OP_HASH160 ff434c7a8b0e4b2b341b0fcd74a6bf1efed4f5a3 OP_EQUAL", "type": "scripthash"}, "value": 6.79937569, "n": 1}], "hex": "020000000001013f3d58b95eff721bd93e6a6e87dbaf4a8ea7be9573acaeb18be5311e22f64efd000000001716001476e4e118ac5b6d76ba315e93e65a77527e464457feffffff02809698000000000017a91494b8fe8791b7663e05867834cdbd411e8bce00c587210687280000000017a914ff434c7a8b0e4b2b341b0fcd74a6bf1efed4f5a38702473044022006c0a8a78661b3509f37f890496ce33a2f369b7d2cae7dccbda872af90d85726022004146daf88af4ec9351c8220843ed4723c36c93a20e002b500531b231205caf4012103a7bfd248fa53f73f883a2d1065737768bb9073f3bf186b5cb6bffc4f851a2fe415490800", "vin": [{"txinwitness": ["3044022006c0a8a78661b3509f37f890496ce33a2f369b7d2cae7dccbda872af90d85726022004146daf88af4ec9351c8220843ed4723c36c93a20e002b500531b231205caf401", "03a7bfd248fa53f73f883a2d1065737768bb9073f3bf186b5cb6bffc4f851a2fe4"], "sequence": 4294967294, "scriptSig": {"hex": "16001476e4e118ac5b6d76ba315e93e65a77527e464457", "asm": "001476e4e118ac5b6d76ba315e93e65a77527e464457"}, "vout": 0, "txid": "fd4ef6221e31e58bb1aeac7395bea78e4aafdb876e6a3ed91b72ff5eb9583d3f"}], "txid": "33b4744f661720743adefc80981580643c9de7bebf45b036f3cfb7a97398620b", "blocktime": 1537874412, "version": 2, "confirmations": 11468, "time": 1537874412, "locktime": 542997, "vsize": 166, "size": 247}