{"hash": "33b68a674cc4d9d8e6eebaaaf6d29e4d62cc9503982c177d5c50fec4769452ca", "blockhash": "0000000000000000000e13cef7c366c0283d82e591d1acd082e914b08063cdf1", "vout": [{"scriptPubKey": {"reqSigs": 1, "hex": "a914589b2c6e8932bb93415db80a99fda7a93b8c4bd787", "addresses": ["39mXH5BX32JJ2t4cTu9Evko8nLgG7fBMqd"], "asm": "OP_HASH160 589b2c6e8932bb93415db80a99fda7a93b8c4bd7 OP_EQUAL", "type": "scripthash"}, "value": 0.0005, "n": 0}, {"scriptPubKey": {"reqSigs": 1, "hex": "76a9145fe0b80e568c47d9d68b026f45f1b2d094d634bf88ac", "addresses": ["19jxPyMMcgLjjBhLgQiDpKBavPhLyMBEXe"], "asm": "OP_DUP OP_HASH160 5fe0b80e568c47d9d68b026f45f1b2d094d634bf OP_EQUALVERIFY OP_CHECKSIG", "type": "pubkeyhash"}, "value": 0.06695166, "n": 1}], "hex": "0100000001ff38959ce856420feaa6f83592952be42b2cf9b47bac2ed64e42ad281d6fe333000000006a473044022043f80dbeb695da7db569577b45a534222a006bdc495d8630047148440f00833e02201ddceef26725834c6519d1736e095cd654f15fb9c758e68c8b423bd67fcc15970121038e38de259069a113e11716f8cd22c5b3e935ddf453534a32be59761c4366ea60ffffffff0250c300000000000017a914589b2c6e8932bb93415db80a99fda7a93b8c4bd787fe286600000000001976a9145fe0b80e568c47d9d68b026f45f1b2d094d634bf88ac00000000", "vin": [{"sequence": 4294967295, "scriptSig": {"hex": "473044022043f80dbeb695da7db569577b45a534222a006bdc495d8630047148440f00833e02201ddceef26725834c6519d1736e095cd654f15fb9c758e68c8b423bd67fcc15970121038e38de259069a113e11716f8cd22c5b3e935ddf453534a32be59761c4366ea60", "asm": "3044022043f80dbeb695da7db569577b45a534222a006bdc495d8630047148440f00833e02201ddceef26725834c6519d1736e095cd654f15fb9c758e68c8b423bd67fcc1597[ALL] 038e38de259069a113e11716f8cd22c5b3e935ddf453534a32be59761c4366ea60"}, "vout": 0, "txid": "33e36f1d28ad424ed62eac7bb4f92c2be42b959235f8a6ea0f4256e89c9538ff"}], "txid": "33b68a674cc4d9d8e6eebaaaf6d29e4d62cc9503982c177d5c50fec4769452ca", "blocktime": 1537871767, "version": 1, "confirmations": 11495, "time": 1537871767, "locktime": 0, "vsize": 223, "size": 223}