{"hash": "33be40ebc6dc89c5a2b78a249a209695f7aee4e97488821e6747fa9f3c43eb66", "blockhash": "00000000000000000018f53835495a110e01622372bf6ae95dc86f2b0ab887b0", "vout": [{"scriptPubKey": {"reqSigs": 1, "hex": "76a9141109d3ea1f33f0fefd88fa6c784bdd1f0e6dd15388ac", "addresses": ["12Z6G7GNhpfKfcLhZBBj8iheFuRCPxoySj"], "asm": "OP_DUP OP_HASH160 1109d3ea1f33f0fefd88fa6c784bdd1f0e6dd153 OP_EQUALVERIFY OP_CHECKSIG", "type": "pubkeyhash"}, "value": 0.01108295, "n": 0}, {"scriptPubKey": {"reqSigs": 1, "hex": "76a9145d6b0104cf4e0b121919834253322a418ed755c888ac", "addresses": ["19Wx2cDCZp1DzJHLqFPkL3ZZ2cyi8mGMGk"], "asm": "OP_DUP OP_HASH160 5d6b0104cf4e0b121919834253322a418ed755c8 OP_EQUALVERIFY OP_CHECKSIG", "type": "pubkeyhash"}, "value": 0.0312296, "n": 1}], "hex": "0100000001a6c3222aee70417d776bd3a75736d72b7d679150d7fb77d8dc5552f475d643d8010000006a473044022073f30b83f4efef07b7f739e69b2c04e5ae257a5c481cdae7a017bb44c8494e4802201c3751af29293b2893a96ac9042da93908045ef4f71a482be2fde69501943000012103b6ffd6c5d0dc0211067964d85464193ae0e49f044388f49b2b62666850550468ffffffff0247e91000000000001976a9141109d3ea1f33f0fefd88fa6c784bdd1f0e6dd15388ac10a72f00000000001976a9145d6b0104cf4e0b121919834253322a418ed755c888ac00000000", "vin": [{"sequence": 4294967295, "scriptSig": {"hex": "473044022073f30b83f4efef07b7f739e69b2c04e5ae257a5c481cdae7a017bb44c8494e4802201c3751af29293b2893a96ac9042da93908045ef4f71a482be2fde69501943000012103b6ffd6c5d0dc0211067964d85464193ae0e49f044388f49b2b62666850550468", "asm": "3044022073f30b83f4efef07b7f739e69b2c04e5ae257a5c481cdae7a017bb44c8494e4802201c3751af29293b2893a96ac9042da93908045ef4f71a482be2fde69501943000[ALL] 03b6ffd6c5d0dc0211067964d85464193ae0e49f044388f49b2b62666850550468"}, "vout": 1, "txid": "d843d675f45255dcd877fbd75091677d2bd73657a7d36b777d4170ee2a22c3a6"}], "txid": "33be40ebc6dc89c5a2b78a249a209695f7aee4e97488821e6747fa9f3c43eb66", "blocktime": 1537870928, "version": 1, "confirmations": 11514, "time": 1537870928, "locktime": 0, "vsize": 225, "size": 225}