{"hash": "33c5f9c4c6c2a320e6334d529f4d07f1e91c58751f8dccb256e898cd0fe8706f", "blockhash": "0000000000000000000e13cef7c366c0283d82e591d1acd082e914b08063cdf1", "vout": [{"scriptPubKey": {"reqSigs": 1, "hex": "76a914c47894d63129b0bbc0ad6d204f3c5b453e05349e88ac", "addresses": ["1JuqtjyDNn4mEks8tqLZXrLkh6xM51DCqW"], "asm": "OP_DUP OP_HASH160 c47894d63129b0bbc0ad6d204f3c5b453e05349e OP_EQUALVERIFY OP_CHECKSIG", "type": "pubkeyhash"}, "value": 0.00213971, "n": 0}], "hex": "0100000001a5c95143433e1639b4bc31869281ea17ec97fdad7bb4b0dc1dca5777c9ec9efd030000006a47304402207b1db2ecd2755711dccb8b44a5a44d3f37c9fb2f5f3008172a9f4bdf664d945f02206079342ca66651f5fe771b2e2c4205dbf08111c355e495a19080af55733d89a7012103cb612136ecb0220d2cd170008069f542363aa0d0a283c73c80c42360c953b5d5ffffffff01d3430300000000001976a914c47894d63129b0bbc0ad6d204f3c5b453e05349e88ac00000000", "vin": [{"sequence": 4294967295, "scriptSig": {"hex": "47304402207b1db2ecd2755711dccb8b44a5a44d3f37c9fb2f5f3008172a9f4bdf664d945f02206079342ca66651f5fe771b2e2c4205dbf08111c355e495a19080af55733d89a7012103cb612136ecb0220d2cd170008069f542363aa0d0a283c73c80c42360c953b5d5", "asm": "304402207b1db2ecd2755711dccb8b44a5a44d3f37c9fb2f5f3008172a9f4bdf664d945f02206079342ca66651f5fe771b2e2c4205dbf08111c355e495a19080af55733d89a7[ALL] 03cb612136ecb0220d2cd170008069f542363aa0d0a283c73c80c42360c953b5d5"}, "vout": 3, "txid": "fd9eecc97757ca1ddcb0b47badfd97ec17ea81928631bcb439163e434351c9a5"}], "txid": "33c5f9c4c6c2a320e6334d529f4d07f1e91c58751f8dccb256e898cd0fe8706f", "blocktime": 1537871767, "version": 1, "confirmations": 11495, "time": 1537871767, "locktime": 0, "vsize": 191, "size": 191}