{"hash": "33c92acf4d952c24ec6c34ebdf635ba7fa8914408614706781d51e93ddb1594d", "blockhash": "0000000000000000000dcc0f55137456b1a82d3642486a52398922ac4d620174", "vout": [{"scriptPubKey": {"reqSigs": 1, "hex": "76a91416b4acf9ae706b693e5739eb7c948ce744bd025f88ac", "addresses": ["1354JneEa7ho4gRyHu9TyruTJLiyCRupkt"], "asm": "OP_DUP OP_HASH160 16b4acf9ae706b693e5739eb7c948ce744bd025f OP_EQUALVERIFY OP_CHECKSIG", "type": "pubkeyhash"}, "value": 0.00079775, "n": 0}, {"scriptPubKey": {"reqSigs": 1, "hex": "76a914ab115b04943422e53b5a5c4072421a2db612b99b88ac", "addresses": ["1GbXLgqxDyXR6SByoHyiFs6iHsSJbfT1KV"], "asm": "OP_DUP OP_HASH160 ab115b04943422e53b5a5c4072421a2db612b99b OP_EQUALVERIFY OP_CHECKSIG", "type": "pubkeyhash"}, "value": 0.00234234, "n": 1}], "hex": "0100000002320010cc44f3c2b68094de0e300d6a81fbd9acc57f1bd1ce06c1a5a8230e183c000000006a47304402207b4fed68da3d62a10bae41f531b581136e29363bbe64e6eb090c52644d0bdab702205e17625694d9bc6daf8695490772366affc35ac70411580cd81c5d62bc4038ba012103c86e1880c52d18258812bf65494fd85675113666a1a5625ec15b00dc562b02d9ffffffffdd3056cf308086fa6c517530351ac3c52a738aa63ecc8f2d11da207d615faba9000000006b483045022100b73aea798877ca244e21c68156b82a7d947196f0e7aefd51a4eb6ed4d2a7a8ab02204ff0feb52bde704e7f6ee9075063befc5aaee5fa472aa177f429ee1f28f985750121038a8447d45a80918fb9838ba19eafe6b40a1ebeca8fa118d447a43a0f9a65c867ffffffff029f370100000000001976a91416b4acf9ae706b693e5739eb7c948ce744bd025f88acfa920300000000001976a914ab115b04943422e53b5a5c4072421a2db612b99b88ac00000000", "vin": [{"sequence": 4294967295, "scriptSig": {"hex": "47304402207b4fed68da3d62a10bae41f531b581136e29363bbe64e6eb090c52644d0bdab702205e17625694d9bc6daf8695490772366affc35ac70411580cd81c5d62bc4038ba012103c86e1880c52d18258812bf65494fd85675113666a1a5625ec15b00dc562b02d9", "asm": "304402207b4fed68da3d62a10bae41f531b581136e29363bbe64e6eb090c52644d0bdab702205e17625694d9bc6daf8695490772366affc35ac70411580cd81c5d62bc4038ba[ALL] 03c86e1880c52d18258812bf65494fd85675113666a1a5625ec15b00dc562b02d9"}, "vout": 0, "txid": "3c180e23a8a5c106ced11b7fc5acd9fb816a0d300ede9480b6c2f344cc100032"}, {"sequence": 4294967295, "scriptSig": {"hex": "483045022100b73aea798877ca244e21c68156b82a7d947196f0e7aefd51a4eb6ed4d2a7a8ab02204ff0feb52bde704e7f6ee9075063befc5aaee5fa472aa177f429ee1f28f985750121038a8447d45a80918fb9838ba19eafe6b40a1ebeca8fa118d447a43a0f9a65c867", "asm": "3045022100b73aea798877ca244e21c68156b82a7d947196f0e7aefd51a4eb6ed4d2a7a8ab02204ff0feb52bde704e7f6ee9075063befc5aaee5fa472aa177f429ee1f28f98575[ALL] 038a8447d45a80918fb9838ba19eafe6b40a1ebeca8fa118d447a43a0f9a65c867"}, "vout": 0, "txid": "a9ab5f617d20da112d8fcc3ea68a732ac5c31a353075516cfa868030cf5630dd"}], "txid": "33c92acf4d952c24ec6c34ebdf635ba7fa8914408614706781d51e93ddb1594d", "blocktime": 1537870268, "version": 1, "confirmations": 11518, "time": 1537870268, "locktime": 0, "vsize": 373, "size": 373}