{"hash": "33e3b72fae4e758f446aaad38ed9dfe045aaf368d703135f03c5467c57eca7a9", "blockhash": "0000000000000000001f76057863aec43deb6fa401d9628bb513d65a8098bfab", "vout": [{"scriptPubKey": {"reqSigs": 1, "hex": "76a914aea4298c702d4d208ddae924d68ceb349b3f56d588ac", "addresses": ["1GvREaMK2AveCnkJ1LrNdkpkuG4nQeQ4of"], "asm": "OP_DUP OP_HASH160 aea4298c702d4d208ddae924d68ceb349b3f56d5 OP_EQUALVERIFY OP_CHECKSIG", "type": "pubkeyhash"}, "value": 0.00711, "n": 0}, {"scriptPubKey": {"reqSigs": 1, "hex": "76a91440d25f240b29090d7161b80d94d2ee3b6370f29e88ac", "addresses": ["16ukGA17F94pBVUbEwsC9HWzuA3YkAHAP5"], "asm": "OP_DUP OP_HASH160 40d25f240b29090d7161b80d94d2ee3b6370f29e OP_EQUALVERIFY OP_CHECKSIG", "type": "pubkeyhash"}, "value": 0.20753403, "n": 1}], "hex": "0100000001b8a86a8961b053f1ee0742d8fa24ce0de1cb37850e48e05cbed8cc652330270f010000006a47304402202c31f545a22d00046a6be7426307448ef0fe613de041ad7973b3861033629a2602202057941a9401168f7639e4ce0c69dca0fbce2000619a27441e52a737e0df6b7301210222f642f38f961886e02c2f278da655fe6a7d19792fa33d9e8da00202e68a9139ffffffff0258d90a00000000001976a914aea4298c702d4d208ddae924d68ceb349b3f56d588acfbab3c01000000001976a91440d25f240b29090d7161b80d94d2ee3b6370f29e88ac00000000", "vin": [{"sequence": 4294967295, "scriptSig": {"hex": "47304402202c31f545a22d00046a6be7426307448ef0fe613de041ad7973b3861033629a2602202057941a9401168f7639e4ce0c69dca0fbce2000619a27441e52a737e0df6b7301210222f642f38f961886e02c2f278da655fe6a7d19792fa33d9e8da00202e68a9139", "asm": "304402202c31f545a22d00046a6be7426307448ef0fe613de041ad7973b3861033629a2602202057941a9401168f7639e4ce0c69dca0fbce2000619a27441e52a737e0df6b73[ALL] 0222f642f38f961886e02c2f278da655fe6a7d19792fa33d9e8da00202e68a9139"}, "vout": 1, "txid": "0f27302365ccd8be5ce0480e8537cbe10dce24fad84207eef153b061896aa8b8"}], "txid": "33e3b72fae4e758f446aaad38ed9dfe045aaf368d703135f03c5467c57eca7a9", "blocktime": 1537873891, "version": 1, "confirmations": 11478, "time": 1537873891, "locktime": 0, "vsize": 225, "size": 225}