{"hash": "ed0f13e1c7c10924c678aaf3e9af7d19769a2340340ce54bde0eb77c18e82b8d", "blockhash": "00000000000000000004ffacab907a6b429b9a5745fa0b75af4234bf69dd7176", "vout": [{"scriptPubKey": {"reqSigs": 1, "hex": "a914bce6b6108f7a553afceccc2f64de2628e841837a87", "addresses": ["3JuqLhh76mJAonvwFP7LkwNqNLj2Y2h6BK"], "asm": "OP_HASH160 bce6b6108f7a553afceccc2f64de2628e841837a OP_EQUAL", "type": "scripthash"}, "value": 0.0001937, "n": 0}, {"scriptPubKey": {"reqSigs": 1, "hex": "a9140608354ae2f5ead93d570d98d071aa38de073f1b87", "addresses": ["32Eup1TPADYTAa46wq48c7qmg7AuFwigeM"], "asm": "OP_HASH160 0608354ae2f5ead93d570d98d071aa38de073f1b OP_EQUAL", "type": "scripthash"}, "value": 0.0021875, "n": 1}, {"scriptPubKey": {"reqSigs": 1, "hex": "76a9141b3895df5dd499d4e2c14239a88c116db093f5ea88ac", "addresses": ["13Uw2ofyBZWXtb3wpLgoXM1TL7p9RUKKaE"], "asm": "OP_DUP OP_HASH160 1b3895df5dd499d4e2c14239a88c116db093f5ea OP_EQUALVERIFY OP_CHECKSIG", "type": "pubkeyhash"}, "value": 0.0214546, "n": 2}, {"scriptPubKey": {"reqSigs": 1, "hex": "a914e67b4d7ddec9f5d0885b7a3a0d5f90ad1027c28d87", "addresses": ["3Nhh3tP1ftYdNWNp3b3uDUdRpUUXGmi7jV"], "asm": "OP_HASH160 e67b4d7ddec9f5d0885b7a3a0d5f90ad1027c28d OP_EQUAL", "type": "scripthash"}, "value": 0.0001937, "n": 3}, {"scriptPubKey": {"reqSigs": 1, "hex": "76a914ec63a8c4e9eedffa74da2564d179046373e188ff88ac", "addresses": ["1NYurifeuvAQ5uFXAxeZkX9PZKei2ca6eV"], "asm": "OP_DUP OP_HASH160 ec63a8c4e9eedffa74da2564d179046373e188ff OP_EQUALVERIFY OP_CHECKSIG", "type": "pubkeyhash"}, "value": 0.0171656, "n": 4}, {"scriptPubKey": {"reqSigs": 1, "hex": "76a914277826fd6a94e09698e47cc0b8d20f72e555af2388ac", "addresses": ["14bhHoyKsFYxGhJsPYDuqRfXaxY2hxUZCc"], "asm": "OP_DUP OP_HASH160 277826fd6a94e09698e47cc0b8d20f72e555af23 OP_EQUALVERIFY OP_CHECKSIG", "type": "pubkeyhash"}, "value": 0.0175649, "n": 5}], "hex": "01000000000103f98dbb0d4915c4fda27950dd5cff8e3eca18525973ff532993b9f698c4db5dcf0500000017160014b07246b15bedb855fb0d27d5fabb4f83670b0432ffffffff38e3def75dde59a32d32d8163e8a94e3745a5ef8961296e05c5eed6e7ee371200000000017160014c5f5a5ff5163be2015e92431fe22247786fac18dffffffff185a04ee86ed26a50a1f1f65221eda00b23f7f5058d8a7ad9c5f07240e86d8491e000000171600145c6df98051502f50bd3f1cdc17bf372d618c9d97ffffffff06aa4b00000000000017a914bce6b6108f7a553afceccc2f64de2628e841837a877e5603000000000017a9140608354ae2f5ead93d570d98d071aa38de073f1b87b4bc2000000000001976a9141b3895df5dd499d4e2c14239a88c116db093f5ea88acaa4b00000000000017a914e67b4d7ddec9f5d0885b7a3a0d5f90ad1027c28d8750311a00000000001976a914ec63a8c4e9eedffa74da2564d179046373e188ff88ac4acd1a00000000001976a914277826fd6a94e09698e47cc0b8d20f72e555af2388ac02473044022013ea968765bf32bfdc7628c76dc18676d99454ddc9a5f4526e5d9ee38fd67518022048d7d3ac24bb39c981f2ab02e881ecca043cc5d7333b6d819f9d768dbea45a980121036a20b2aebd1dabf61bbbd22910ee78c14df80e60863395b92355e53ac8dc486e0247304402201c73c63a21c5a66129a35ced3ef5db6455c85051fefa15551ef2046e786b84e002200cf1a9af5d3ef24b64ae696896b1dbaaeb50baf02fe9af7a5060e3b732d6bb9c012103c4937b0eaa1680bea50434b77661fd557c1f386024aef70917a573583be7ed350247304402207db64fc68b76eac95d59474904938832daa8fd8c9d4d3afde465b92e3957f44d02207d59a145c02784fe8fc07496cf031ff9793498d988fa6b95eb92b34874299068012103eacbe50df0bebed2803441444a9f1b0e5b5979691a0ab44e246eb3072a85121300000000", "vin": [{"txinwitness": ["3044022013ea968765bf32bfdc7628c76dc18676d99454ddc9a5f4526e5d9ee38fd67518022048d7d3ac24bb39c981f2ab02e881ecca043cc5d7333b6d819f9d768dbea45a9801", "036a20b2aebd1dabf61bbbd22910ee78c14df80e60863395b92355e53ac8dc486e"], "sequence": 4294967295, "scriptSig": {"hex": "160014b07246b15bedb855fb0d27d5fabb4f83670b0432", "asm": "0014b07246b15bedb855fb0d27d5fabb4f83670b0432"}, "vout": 5, "txid": "cf5ddbc498f6b9932953ff73595218ca3e8eff5cdd5079a2fdc415490dbb8df9"}, {"txinwitness": ["304402201c73c63a21c5a66129a35ced3ef5db6455c85051fefa15551ef2046e786b84e002200cf1a9af5d3ef24b64ae696896b1dbaaeb50baf02fe9af7a5060e3b732d6bb9c01", "03c4937b0eaa1680bea50434b77661fd557c1f386024aef70917a573583be7ed35"], "sequence": 4294967295, "scriptSig": {"hex": "160014c5f5a5ff5163be2015e92431fe22247786fac18d", "asm": "0014c5f5a5ff5163be2015e92431fe22247786fac18d"}, "vout": 0, "txid": "2071e37e6eed5e5ce0961296f85e5a74e3948a3e16d8322da359de5df7dee338"}, {"txinwitness": ["304402207db64fc68b76eac95d59474904938832daa8fd8c9d4d3afde465b92e3957f44d02207d59a145c02784fe8fc07496cf031ff9793498d988fa6b95eb92b3487429906801", "03eacbe50df0bebed2803441444a9f1b0e5b5979691a0ab44e246eb3072a851213"], "sequence": 4294967295, "scriptSig": {"hex": "1600145c6df98051502f50bd3f1cdc17bf372d618c9d97", "asm": "00145c6df98051502f50bd3f1cdc17bf372d618c9d97"}, "vout": 30, "txid": "49d8860e24075f9cada7d858507f3fb200da1e22651f1f0aa526ed86ee045a18"}], "txid": "33e62e124bf48aa6d6305d4291ac81453bbad63203383c0cf6da8caa72c788e8", "blocktime": 1537875543, "version": 1, "confirmations": 11464, "time": 1537875543, "locktime": 0, "vsize": 481, "size": 723}