{"hash": "f2dfb3b5a3543c8e745bac2c49c30ab0c1af744279ae0833fc086fbdcb84c3e0", "blockhash": "00000000000000000018f53835495a110e01622372bf6ae95dc86f2b0ab887b0", "vout": [{"scriptPubKey": {"reqSigs": 1, "hex": "76a91462f9a19bb360a0c3c690c954a73ac93b0defb7bb88ac", "addresses": ["1A2LGV8JrkBhHwfUaMMLy55eF2uQ2wYnWE"], "asm": "OP_DUP OP_HASH160 62f9a19bb360a0c3c690c954a73ac93b0defb7bb OP_EQUALVERIFY OP_CHECKSIG", "type": "pubkeyhash"}, "value": 0.010557, "n": 0}, {"scriptPubKey": {"reqSigs": 1, "hex": "00146d9e9e94431243c572b7cfeac2ef52332f862a4f", "addresses": ["bc1qdk0fa9zrzfpu2u4hel4v9m6jxvhcv2j0g6n9lr"], "asm": "0 6d9e9e94431243c572b7cfeac2ef52332f862a4f", "type": "witness_v0_keyhash"}, "value": 0.00224593, "n": 1}], "hex": "01000000000101386928b171074a2595453dd1d61faf9c9cb53013ccb7cc2b689b7ea5f6bca84c0000000000ffffffff02d41b1000000000001976a91462f9a19bb360a0c3c690c954a73ac93b0defb7bb88ac516d0300000000001600146d9e9e94431243c572b7cfeac2ef52332f862a4f02473044022009e343b598d690a601703d47cefee1f0f4fe785978c70c7a18307987562ba91e022007c951455126fdb8a82fdad65f453aca50f488f47c57c8eecd8b1c54453fd78e0121035004d112c990b56866873e6d48128af5adb62704a031539b70316556b328233700000000", "vin": [{"txinwitness": ["3044022009e343b598d690a601703d47cefee1f0f4fe785978c70c7a18307987562ba91e022007c951455126fdb8a82fdad65f453aca50f488f47c57c8eecd8b1c54453fd78e01", "035004d112c990b56866873e6d48128af5adb62704a031539b70316556b3282337"], "sequence": 4294967295, "scriptSig": {"hex": "", "asm": ""}, "vout": 0, "txid": "4ca8bcf6a57e9b682bccb7cc1330b59c9caf1fd6d13d4595254a0771b1286938"}], "txid": "33e7c78363a48677b5ca25b295307e61db17f824b707538ed24088495f905782", "blocktime": 1537870928, "version": 1, "confirmations": 11514, "time": 1537870928, "locktime": 0, "vsize": 144, "size": 225}