{"hash": "33f7ee3c9e8f6cb5e61710e7b46c04296c7c33bde262345e797a7fda68ce7d3d", "blockhash": "0000000000000000001e0dab787dd257d1dbfcb92a98c2207d5e1078be1f4165", "vout": [{"scriptPubKey": {"reqSigs": 1, "hex": "76a914a27fc1e9907ef09ddf10b778716a926886cd2c7a88ac", "addresses": ["1FpDWpdS19ezkQKSokG1Dq5xm6tTedA9ns"], "asm": "OP_DUP OP_HASH160 a27fc1e9907ef09ddf10b778716a926886cd2c7a OP_EQUALVERIFY OP_CHECKSIG", "type": "pubkeyhash"}, "value": 0.00109512, "n": 0}, {"scriptPubKey": {"reqSigs": 1, "hex": "76a9146d9dfccfe6a285baa464a2809e068e90ce08c12888ac", "addresses": ["1Azbv5TB49CNVCVPDheghKqt6EsHVxAo3c"], "asm": "OP_DUP OP_HASH160 6d9dfccfe6a285baa464a2809e068e90ce08c128 OP_EQUALVERIFY OP_CHECKSIG", "type": "pubkeyhash"}, "value": 0.00358508, "n": 1}], "hex": "0100000001782df87850db0bb4b226a4f068e06ab2bd88c0c992868ddd3231540049e751cc190000006b483045022100ac175dabbb4f055a203304309575248dfde24d330f16b2e19dab564c700ddcbc0220487df1060d6bb47631a04afaa2476338173b832398288cc602bc254c3c35e25d01210298daab426b353ca35e3a6c7d0f12e95dc58473396445986b370f05cbd1c179c4ffffffff02c8ab0100000000001976a914a27fc1e9907ef09ddf10b778716a926886cd2c7a88ac6c780500000000001976a9146d9dfccfe6a285baa464a2809e068e90ce08c12888ac00000000", "vin": [{"sequence": 4294967295, "scriptSig": {"hex": "483045022100ac175dabbb4f055a203304309575248dfde24d330f16b2e19dab564c700ddcbc0220487df1060d6bb47631a04afaa2476338173b832398288cc602bc254c3c35e25d01210298daab426b353ca35e3a6c7d0f12e95dc58473396445986b370f05cbd1c179c4", "asm": "3045022100ac175dabbb4f055a203304309575248dfde24d330f16b2e19dab564c700ddcbc0220487df1060d6bb47631a04afaa2476338173b832398288cc602bc254c3c35e25d[ALL] 0298daab426b353ca35e3a6c7d0f12e95dc58473396445986b370f05cbd1c179c4"}, "vout": 25, "txid": "cc51e74900543132dd8d8692c9c088bdb26ae068f0a426b2b40bdb5078f82d78"}], "txid": "33f7ee3c9e8f6cb5e61710e7b46c04296c7c33bde262345e797a7fda68ce7d3d", "blocktime": 1537872475, "version": 1, "confirmations": 11487, "time": 1537872475, "locktime": 0, "vsize": 226, "size": 226}