{"hash": "34004e6212a00ae52ac2aec850213cd7c294cef6e8af795ad005d8ee4e880286", "blockhash": "0000000000000000001e0dab787dd257d1dbfcb92a98c2207d5e1078be1f4165", "vout": [{"scriptPubKey": {"reqSigs": 1, "hex": "76a914fa01416964a69fe198f6a18d67e35a95c157b4d188ac", "addresses": ["1PnuSC9pQoARQcewzPrXtReRfN1GFsdAit"], "asm": "OP_DUP OP_HASH160 fa01416964a69fe198f6a18d67e35a95c157b4d1 OP_EQUALVERIFY OP_CHECKSIG", "type": "pubkeyhash"}, "value": 0.00468281, "n": 0}, {"scriptPubKey": {"reqSigs": 1, "hex": "76a91402a7bd2c26828633499f96d9e55fb1e7c98198d588ac", "addresses": ["1F3J6FgLxcbgXX4HkbxpEMF5HAcLANPde"], "asm": "OP_DUP OP_HASH160 02a7bd2c26828633499f96d9e55fb1e7c98198d5 OP_EQUALVERIFY OP_CHECKSIG", "type": "pubkeyhash"}, "value": 0.09389183, "n": 1}], "hex": "01000000011db00965d9b57f64c667bd8198342c9645840fc3510637ff95ae163e7614a8fb010000006b483045022100d0fc5d2573a50e20e4538bd8b0613a30fa163fe86d12b42071fa181efd70d90d0220046cf0df0fb2a990c301263386d92d8dbede1979111f08d07c8b900a0997ebd4012103c62205bcfc056cde30553172f0568174026f608e1a32dfa2cd8043bfdd8cda27fdffffff0239250700000000001976a914fa01416964a69fe198f6a18d67e35a95c157b4d188ac7f448f00000000001976a91402a7bd2c26828633499f96d9e55fb1e7c98198d588ac11490800", "vin": [{"sequence": 4294967293, "scriptSig": {"hex": "483045022100d0fc5d2573a50e20e4538bd8b0613a30fa163fe86d12b42071fa181efd70d90d0220046cf0df0fb2a990c301263386d92d8dbede1979111f08d07c8b900a0997ebd4012103c62205bcfc056cde30553172f0568174026f608e1a32dfa2cd8043bfdd8cda27", "asm": "3045022100d0fc5d2573a50e20e4538bd8b0613a30fa163fe86d12b42071fa181efd70d90d0220046cf0df0fb2a990c301263386d92d8dbede1979111f08d07c8b900a0997ebd4[ALL] 03c62205bcfc056cde30553172f0568174026f608e1a32dfa2cd8043bfdd8cda27"}, "vout": 1, "txid": "fba814763e16ae95ff370651c30f8445962c349881bd67c6647fb5d96509b01d"}], "txid": "34004e6212a00ae52ac2aec850213cd7c294cef6e8af795ad005d8ee4e880286", "blocktime": 1537872475, "version": 1, "confirmations": 11486, "time": 1537872475, "locktime": 542993, "vsize": 226, "size": 226}