{"hash": "340223a98a4ac8fe24b428ceef209e3b50ba6e2c6d4707a715553fdb0f5c1928", "blockhash": "00000000000000000024a2167bbff67b0be802c0b01cdd79e6331c2be6459f87", "vout": [{"scriptPubKey": {"reqSigs": 1, "hex": "76a914ac925a5c4a5169f86d2daf2be1f9374e3ed0beac88ac", "addresses": ["1GjUYn6YVebkesKRfyc44LdPxDSyYPRk8w"], "asm": "OP_DUP OP_HASH160 ac925a5c4a5169f86d2daf2be1f9374e3ed0beac OP_EQUALVERIFY OP_CHECKSIG", "type": "pubkeyhash"}, "value": 0.0074, "n": 0}], "hex": "010000000248b3e61cecff568ba40695e86b764f4826e73e2649dac0cd75b04a260971e77f010000006b483045022100847c140f62bc7c47f443eb101407d99b3a4a8aa1a95d48c56facc347e262229002204382a879a450cd08e01a135aaae9a30be55c00e0679e5c16bda58bad51958c6e012102a56302abf83dd4aede719d0411f62a57c34f51c32210c6edfc406e9f85728ac9ffffffff1b9d11a4debb36784648d1f363824e0326cae4ec0b2d46db94f0b675cc6225f1000000006b483045022100faa2afe80d224650f3450d34f6c609fec7b8e97abd2acf4b4ffe7142e8aba63e022035bb57ce2933f43e8d112423f14544cc3cb8e2b60c07b10670a25ec922a6e9eb012102f1292d6443d000fe534b4c97d934774dfd59becfd1a32ea2a9c77ba2de917fadffffffff01a04a0b00000000001976a914ac925a5c4a5169f86d2daf2be1f9374e3ed0beac88ac00000000", "vin": [{"sequence": 4294967295, "scriptSig": {"hex": "483045022100847c140f62bc7c47f443eb101407d99b3a4a8aa1a95d48c56facc347e262229002204382a879a450cd08e01a135aaae9a30be55c00e0679e5c16bda58bad51958c6e012102a56302abf83dd4aede719d0411f62a57c34f51c32210c6edfc406e9f85728ac9", "asm": "3045022100847c140f62bc7c47f443eb101407d99b3a4a8aa1a95d48c56facc347e262229002204382a879a450cd08e01a135aaae9a30be55c00e0679e5c16bda58bad51958c6e[ALL] 02a56302abf83dd4aede719d0411f62a57c34f51c32210c6edfc406e9f85728ac9"}, "vout": 1, "txid": "7fe77109264ab075cdc0da49263ee726484f766be89506a48b56ffec1ce6b348"}, {"sequence": 4294967295, "scriptSig": {"hex": "483045022100faa2afe80d224650f3450d34f6c609fec7b8e97abd2acf4b4ffe7142e8aba63e022035bb57ce2933f43e8d112423f14544cc3cb8e2b60c07b10670a25ec922a6e9eb012102f1292d6443d000fe534b4c97d934774dfd59becfd1a32ea2a9c77ba2de917fad", "asm": "3045022100faa2afe80d224650f3450d34f6c609fec7b8e97abd2acf4b4ffe7142e8aba63e022035bb57ce2933f43e8d112423f14544cc3cb8e2b60c07b10670a25ec922a6e9eb[ALL] 02f1292d6443d000fe534b4c97d934774dfd59becfd1a32ea2a9c77ba2de917fad"}, "vout": 0, "txid": "f12562cc75b6f094db462d0bece4ca26034e8263f3d148467836bbdea4119d1b"}], "txid": "340223a98a4ac8fe24b428ceef209e3b50ba6e2c6d4707a715553fdb0f5c1928", "blocktime": 1537870564, "version": 1, "confirmations": 11515, "time": 1537870564, "locktime": 0, "vsize": 340, "size": 340}