{"hash": "f5b67347da647f6be0f04781f2d2cc96456c880a9f1916ab8e450324bd61e1b0", "blockhash": "00000000000000000017f5eb5941039fbcee6240d03bc1f2f8e35350df66a1d8", "vout": [{"scriptPubKey": {"reqSigs": 1, "hex": "76a914a9268ba4f2b377172f6c6345dbc1d9b9188bb4bb88ac", "addresses": ["1GRPNcBizuLUsEvxDCriwRWSsfgbX31EGv"], "asm": "OP_DUP OP_HASH160 a9268ba4f2b377172f6c6345dbc1d9b9188bb4bb OP_EQUALVERIFY OP_CHECKSIG", "type": "pubkeyhash"}, "value": 0.00152739, "n": 0}, {"scriptPubKey": {"reqSigs": 1, "hex": "a9140136c10502ae5684e49b302f1af10f145f74b6b787", "addresses": ["31oSC7GvQMTZoouyNLBEHVRDhXEFbVhSmh"], "asm": "OP_HASH160 0136c10502ae5684e49b302f1af10f145f74b6b7 OP_EQUAL", "type": "scripthash"}, "value": 0.0570339, "n": 1}], "hex": "0100000000010142814f539c269eedc4b761cbbf9a7a8f063e0e0eb5c28042f2dde8d45f41ef8c0100000023220020efd02f10cc1074c68ec89b458572a71ce6bfc8a17595d8fde80232e47279444bffffffff02a3540200000000001976a914a9268ba4f2b377172f6c6345dbc1d9b9188bb4bb88acde0657000000000017a9140136c10502ae5684e49b302f1af10f145f74b6b7870400483045022100f856f54e2be918ce15e4c836a26d88ee6e2e8cb2b394566a38415a9202c7317702204150e325e60fa43fb55ce7aad1aa2107a033088161a40d72ea6699a6bc4fc86c0148304502210093c3f2e9a32b2f1ccb18b7639c24b4a85b24c1b547d9916052e0e6d050bb9bf402206fd39dc6189e7c6739f39b549d98ec23561f8bac614a690aef81c0c6ce7b603a0147522103f985ea61f461801f3abc09ebed98ce7e20804639a64616f639f492883ea4e8d62103871fc2ca08e6950b38867e8e6a0e94ee625223d3aa0df5c65f414c6d784467e252ae00000000", "vin": [{"txinwitness": ["", "3045022100f856f54e2be918ce15e4c836a26d88ee6e2e8cb2b394566a38415a9202c7317702204150e325e60fa43fb55ce7aad1aa2107a033088161a40d72ea6699a6bc4fc86c01", "304502210093c3f2e9a32b2f1ccb18b7639c24b4a85b24c1b547d9916052e0e6d050bb9bf402206fd39dc6189e7c6739f39b549d98ec23561f8bac614a690aef81c0c6ce7b603a01", "522103f985ea61f461801f3abc09ebed98ce7e20804639a64616f639f492883ea4e8d62103871fc2ca08e6950b38867e8e6a0e94ee625223d3aa0df5c65f414c6d784467e252ae"], "sequence": 4294967295, "scriptSig": {"hex": "220020efd02f10cc1074c68ec89b458572a71ce6bfc8a17595d8fde80232e47279444b", "asm": "0020efd02f10cc1074c68ec89b458572a71ce6bfc8a17595d8fde80232e47279444b"}, "vout": 1, "txid": "8cef415fd4e8ddf24280c2b50e0e3e068f7a9abfcb61b7c4ed9e269c534f8142"}], "txid": "3406881b35d3c28bceee78dde94089b8b148134c79c3ed1c830c32337aa69ce6", "blocktime": 1537874412, "version": 1, "confirmations": 11468, "time": 1537874412, "locktime": 0, "vsize": 208, "size": 374}