{"hash": "961839586e848952d472a802c0fbabc22b2a9846420494a4c65653dcdf02ed61", "blockhash": "00000000000000000018f53835495a110e01622372bf6ae95dc86f2b0ab887b0", "vout": [{"scriptPubKey": {"reqSigs": 1, "hex": "76a914279a7ded82665d7c6844277b690555f6e812918b88ac", "addresses": ["14cQRmViAzVKa277gZznByGZtnrVPQc8Lr"], "asm": "OP_DUP OP_HASH160 279a7ded82665d7c6844277b690555f6e812918b OP_EQUALVERIFY OP_CHECKSIG", "type": "pubkeyhash"}, "value": 16.43827727, "n": 0}, {"scriptPubKey": {"reqSigs": 1, "hex": "a9147b17d3e5071c4d007595960e443d652eed1e036087", "addresses": ["3CusaiZkcVpgfhKMKrL9rZJVX2bHsWUjmk"], "asm": "OP_HASH160 7b17d3e5071c4d007595960e443d652eed1e0360 OP_EQUAL", "type": "scripthash"}, "value": 2.81139772, "n": 1}], "hex": "01000000000108648f313270562139675e08b9f9c0ad55fb04f5463be0aa2ef801421dd28cc7b70100000023220020bf965a0a1222162a3e3b07bc2128974916c65b732d9b6188e057f574e9ae6a00ffffffff47d4259efaf954bfbd42afa0be4137c5dd94bd1ec1ff0c0b2cb19cfc1db325e102000000fdfe00004830450221008fd94db390b6cc3fe71bf327ce2bf13afee2b9a8bc56c65ef7cbcf34668da3a7022013932ec0e1c7b1c57740b9f69357f49a1ab6df44441f9dcda0af2942f04386b601483045022100c5cd0160a9173d426a4b0fb2e57deebce9785f75b5e7b25f8cb60d76813113490220014957a28623753c9f0c7ff84f47ea30e85e3e38ff65762cfdba4bb992aea3e8014c69522102dfc5c8b76fe9d8e02458ea9947e934cc0a37b3124a345d9f79e2299b38bc17d32103e5007e232e7b36f6106c08c28faa566f845b9b305f1be8d453c33b8e8cbec36c2102952e19e83ac535ccc5f17500d7bb62639db81e113d68a1ae9ced0aeb4a874a9e53aeffffffff74b3f22c5737f1e48896dbf18f8b1702dd2ee81abe5e624170c405b789223d8d0000000023220020feec72ee939be8ca24b22b5ddc6b7cef6d0f15391d3a4f409e3f448d68bd8364fffffffff38fbbe677338542d8cfd6c4476d2bbb7f907ab3caff04b280875bbfc8f048ee0000000023220020b44850c611386ff320606e9a664043656cf91ded7f1b2d4b990f6445aaf0f1f3ffffffffa170b45b16d816af4c214878c748bc0f6060325f3ff0221edc002d42853ebdfe08000000fdfd00004730440220547752eb76b5c5b8587ac9917fa01f7efe367c727d508b4114d7057e8cc4fc5d0220386ad6cb2058be32f968fb90c30d452fd66a6f5351e3dd4f53d03574ef07518301483045022100e289651f75d621798162e873117a8299e5d3318aec02d186cb33a2d7574dfde6022074704595a6d6ed0d453b5439abba021f7395c352974ac7bc1d73d7647c97674b014c69522103aa3a718e699d13585a4d2f557c64ed5a83a81722542706fb8a847bc036d642322102faa3da980e6d726682a056b2ae4d55c691153f7e70dc826c391e2451c37e258c21037b8bc4e4bc63f361d20c0d866935c4b26a583e17aa8df28724f239d06cfbe57c53aeffffffffa170b45b16d816af4c214878c748bc0f6060325f3ff0221edc002d42853ebdfe0a000000232200207e8ee1368717d6ed900f452f735103f20b09280a0e09b27562605a0b3342dd9effffffff25a77a777c23858b1b81764bbd1b24df63bf1a3133060c9d52749997acd1486d01000000fdfd000048304502210090a117564dd878593f68518e485dd29deeda1800abfda0809e0a78cd9f5a8d1802201b4845187afc7fecb6f51b5ac0e2cb10955c4ebd373af9eb2a2e04a3cc71facf01473044022071cf007cc7604ca0f7e131b6565df848aa487f56bd3f12a6305d0ddc1ea11577022031700b0fc6daa719d789f2b5ef7dc63f15d4ef73346927d4f2181bdee91e3714014c695221026bc09eba9d0368c31b9f893d6d5ef7adc4b35a4c8014fa6efc3d86b8ba20ae75210250cee6847065458b6b40e1a55b6995c8aa05a347e1176f1da028f61913e52793210360f24b55ebbe7e4176fd4594abe57e6658e02718e987d2371d20e2412634cf9e53aeffffffff9ab6b89ce2f80d8b58ce25afde2e7a6773d60cb3a512780a442eca688c635982010000002322002072a56b36174eec39d506375e271e8cdd5d27d11ba23d5511d10bc47dd98c6416ffffffff020fd2fa61000000001976a914279a7ded82665d7c6844277b690555f6e812918b88ac3cdac1100000000017a9147b17d3e5071c4d007595960e443d652eed1e03608704004730440220286caa98296fd071aed74633a22b3932624ab781568aa666b539fda5d5b604d602207b01367d1ef68857b3eaf4d0220be06b63f1f9d32ab62ad6be9f3ebfd751a9aa0147304402201f0dc1a8a03df3d7cd1edafdb282e16681cc1a19c15c9139291b872161ff0b9e02200f5f8d89a215dc795eb7cf9d253b88a7523377bb966b27ac70c80bc3d5fa94420169522103c55c9adf413a9a43aa9fb6dd0bc88d33a27cea575df203a1e3643bf97864d64b2102c8f2ef3d373a00012d6f8d187960aebf2f5be669ac233a37552b4cf4eaa6ee412103d574543bac1733c257c6b8a3f72d72bb0113341d9faa3e0e929a3cbc730d184053ae00040047304402207d5f484beda5d748aadf79fab66d343d76c5668ca3b59ad0af10ef2f2e35de4b02204e895da43e90b88dd5ca69a44ac583a29fd5d2fa25141fab2e77759669c12c85014730440220171de86fe56d21c31bf5adc15cf6ddb7d577fc91218c67c391b2eba01e3c5a020220050b475160c0a9a7c85944936b3aaf50a3b0c2299bb1e18ef2db2d382a92c2e20169522102a903818edc16b705caa333dbecd11e5a41dc01cd6ca17e554b18929062e5aa0c21031115046da39b9520fc98226157e521edad586345f5ddcf040a63ee4be46845a521027a28938243f7e373310bf2a783e157635317c5a7699cdfb35da8c265390f345c53ae040047304402207b37fd614d607a3c7bffa9574f78fc9c127c2e50d7c01556f4c5745c1bb74c59022015ae41ea6480c3324de95c1a92e56f9f0525a9977032d3805ccbe139cafc43970147304402203d9114c282db3cd1fe398292152ade5dbca91ae42e71737f03daa3e345e6f31c0220197facd3c6b93d6b60606f9a43e164813d0e4165a994d852234bcacb58eae4290169522103fe2b7b05cb37cddcaf6b582ce51c99b7ed794fc934c85bd3cfb4ff08e3175e7f2103a4d204b0dfec58a944a4abdb70df1ea40c5cb6517b964fcb5ac8cdee8420e7672102de6cfa50077b68316eeaed38dcbc00f8a71ebbfbf15cb1e55b2dd4f36913027c53ae00040048304502210092f3da3a24d1133139f22a399f7604cc73d43bc918cad5f863814455269fbb9e02200b46046e6873425a0ace954e9462951cf9bb864f960b9c29fd0ac293af39d6b00147304402205ae6b75fb587bf9bd1328360a490f9be71c471f97a3b7eea8b4512cc9f70cd4d022054de41c589fb4748ef20a6b7a2685dd0ce3d5bbf79880b6bf0674c925e4ae09a01695221030b5b1f610dd6dbd7d04e39289af5e7a5a71ebb656de791b48ec377283f6814d821035d1b41d898f62f5a57f7662c7dd85ea9283bbc4b8440608b35ee4cf8abdd215c210339f0ec485b5ef4e04a8d6baf406209124b150d3c584dae7593d0a0ec3eb7821053ae000400483045022100ec7d146bf67eb3d3f822041c9b7cf257761c6f4afae2e67602f2993ed825f4ab022010f6119466499415d44383f7467a3fd9114a948fce3e8b6376ad38cd5a78b3fd01483045022100f345507202cb2a16aff5c5521472afa35edff23ee19e5fd073b61884e182316f0220704b3fc6f8514960193d907297bcf78e3eb777005bb2fbfc4a80b6bf00bdc71f0169522103ee55cce2b46d08e3f28bb6378710ca9535d35ff6fffaca177997f87461a682632102d6cea990b7a071b2c0ddb85224e4dee458bb0063f2acf5e0ca2018de5697a6552103a57457611b8c5bac3b2145d062d873ec53c27ef910564a0139bfc1b6ba75916753ae00000000", "vin": [{"txinwitness": ["", "30440220286caa98296fd071aed74633a22b3932624ab781568aa666b539fda5d5b604d602207b01367d1ef68857b3eaf4d0220be06b63f1f9d32ab62ad6be9f3ebfd751a9aa01", "304402201f0dc1a8a03df3d7cd1edafdb282e16681cc1a19c15c9139291b872161ff0b9e02200f5f8d89a215dc795eb7cf9d253b88a7523377bb966b27ac70c80bc3d5fa944201", "522103c55c9adf413a9a43aa9fb6dd0bc88d33a27cea575df203a1e3643bf97864d64b2102c8f2ef3d373a00012d6f8d187960aebf2f5be669ac233a37552b4cf4eaa6ee412103d574543bac1733c257c6b8a3f72d72bb0113341d9faa3e0e929a3cbc730d184053ae"], "sequence": 4294967295, "scriptSig": {"hex": "220020bf965a0a1222162a3e3b07bc2128974916c65b732d9b6188e057f574e9ae6a00", "asm": "0020bf965a0a1222162a3e3b07bc2128974916c65b732d9b6188e057f574e9ae6a00"}, "vout": 1, "txid": "b7c78cd21d4201f82eaae03b46f504fb55adc0f9b9085e673921567032318f64"}, {"sequence": 4294967295, "scriptSig": {"hex": "004830450221008fd94db390b6cc3fe71bf327ce2bf13afee2b9a8bc56c65ef7cbcf34668da3a7022013932ec0e1c7b1c57740b9f69357f49a1ab6df44441f9dcda0af2942f04386b601483045022100c5cd0160a9173d426a4b0fb2e57deebce9785f75b5e7b25f8cb60d76813113490220014957a28623753c9f0c7ff84f47ea30e85e3e38ff65762cfdba4bb992aea3e8014c69522102dfc5c8b76fe9d8e02458ea9947e934cc0a37b3124a345d9f79e2299b38bc17d32103e5007e232e7b36f6106c08c28faa566f845b9b305f1be8d453c33b8e8cbec36c2102952e19e83ac535ccc5f17500d7bb62639db81e113d68a1ae9ced0aeb4a874a9e53ae", "asm": "0 30450221008fd94db390b6cc3fe71bf327ce2bf13afee2b9a8bc56c65ef7cbcf34668da3a7022013932ec0e1c7b1c57740b9f69357f49a1ab6df44441f9dcda0af2942f04386b6[ALL] 3045022100c5cd0160a9173d426a4b0fb2e57deebce9785f75b5e7b25f8cb60d76813113490220014957a28623753c9f0c7ff84f47ea30e85e3e38ff65762cfdba4bb992aea3e8[ALL] 522102dfc5c8b76fe9d8e02458ea9947e934cc0a37b3124a345d9f79e2299b38bc17d32103e5007e232e7b36f6106c08c28faa566f845b9b305f1be8d453c33b8e8cbec36c2102952e19e83ac535ccc5f17500d7bb62639db81e113d68a1ae9ced0aeb4a874a9e53ae"}, "vout": 2, "txid": "e125b31dfc9cb12c0b0cffc11ebd94ddc53741bea0af42bdbf54f9fa9e25d447"}, {"txinwitness": ["", "304402207d5f484beda5d748aadf79fab66d343d76c5668ca3b59ad0af10ef2f2e35de4b02204e895da43e90b88dd5ca69a44ac583a29fd5d2fa25141fab2e77759669c12c8501", "30440220171de86fe56d21c31bf5adc15cf6ddb7d577fc91218c67c391b2eba01e3c5a020220050b475160c0a9a7c85944936b3aaf50a3b0c2299bb1e18ef2db2d382a92c2e201", "522102a903818edc16b705caa333dbecd11e5a41dc01cd6ca17e554b18929062e5aa0c21031115046da39b9520fc98226157e521edad586345f5ddcf040a63ee4be46845a521027a28938243f7e373310bf2a783e157635317c5a7699cdfb35da8c265390f345c53ae"], "sequence": 4294967295, "scriptSig": {"hex": "220020feec72ee939be8ca24b22b5ddc6b7cef6d0f15391d3a4f409e3f448d68bd8364", "asm": "0020feec72ee939be8ca24b22b5ddc6b7cef6d0f15391d3a4f409e3f448d68bd8364"}, "vout": 0, "txid": "8d3d2289b705c47041625ebe1ae82edd02178b8ff1db9688e4f137572cf2b374"}, {"txinwitness": ["", "304402207b37fd614d607a3c7bffa9574f78fc9c127c2e50d7c01556f4c5745c1bb74c59022015ae41ea6480c3324de95c1a92e56f9f0525a9977032d3805ccbe139cafc439701", "304402203d9114c282db3cd1fe398292152ade5dbca91ae42e71737f03daa3e345e6f31c0220197facd3c6b93d6b60606f9a43e164813d0e4165a994d852234bcacb58eae42901", "522103fe2b7b05cb37cddcaf6b582ce51c99b7ed794fc934c85bd3cfb4ff08e3175e7f2103a4d204b0dfec58a944a4abdb70df1ea40c5cb6517b964fcb5ac8cdee8420e7672102de6cfa50077b68316eeaed38dcbc00f8a71ebbfbf15cb1e55b2dd4f36913027c53ae"], "sequence": 4294967295, "scriptSig": {"hex": "220020b44850c611386ff320606e9a664043656cf91ded7f1b2d4b990f6445aaf0f1f3", "asm": "0020b44850c611386ff320606e9a664043656cf91ded7f1b2d4b990f6445aaf0f1f3"}, "vout": 0, "txid": "ee48f0c8bf5b8780b204ffcab37a907fbb2b6d47c4d6cfd842853377e6bb8ff3"}, {"sequence": 4294967295, "scriptSig": {"hex": "004730440220547752eb76b5c5b8587ac9917fa01f7efe367c727d508b4114d7057e8cc4fc5d0220386ad6cb2058be32f968fb90c30d452fd66a6f5351e3dd4f53d03574ef07518301483045022100e289651f75d621798162e873117a8299e5d3318aec02d186cb33a2d7574dfde6022074704595a6d6ed0d453b5439abba021f7395c352974ac7bc1d73d7647c97674b014c69522103aa3a718e699d13585a4d2f557c64ed5a83a81722542706fb8a847bc036d642322102faa3da980e6d726682a056b2ae4d55c691153f7e70dc826c391e2451c37e258c21037b8bc4e4bc63f361d20c0d866935c4b26a583e17aa8df28724f239d06cfbe57c53ae", "asm": "0 30440220547752eb76b5c5b8587ac9917fa01f7efe367c727d508b4114d7057e8cc4fc5d0220386ad6cb2058be32f968fb90c30d452fd66a6f5351e3dd4f53d03574ef075183[ALL] 3045022100e289651f75d621798162e873117a8299e5d3318aec02d186cb33a2d7574dfde6022074704595a6d6ed0d453b5439abba021f7395c352974ac7bc1d73d7647c97674b[ALL] 522103aa3a718e699d13585a4d2f557c64ed5a83a81722542706fb8a847bc036d642322102faa3da980e6d726682a056b2ae4d55c691153f7e70dc826c391e2451c37e258c21037b8bc4e4bc63f361d20c0d866935c4b26a583e17aa8df28724f239d06cfbe57c53ae"}, "vout": 8, "txid": "febd3e85422d00dc1e22f03f5f3260600fbc48c77848214caf16d8165bb470a1"}, {"txinwitness": ["", "304502210092f3da3a24d1133139f22a399f7604cc73d43bc918cad5f863814455269fbb9e02200b46046e6873425a0ace954e9462951cf9bb864f960b9c29fd0ac293af39d6b001", "304402205ae6b75fb587bf9bd1328360a490f9be71c471f97a3b7eea8b4512cc9f70cd4d022054de41c589fb4748ef20a6b7a2685dd0ce3d5bbf79880b6bf0674c925e4ae09a01", "5221030b5b1f610dd6dbd7d04e39289af5e7a5a71ebb656de791b48ec377283f6814d821035d1b41d898f62f5a57f7662c7dd85ea9283bbc4b8440608b35ee4cf8abdd215c210339f0ec485b5ef4e04a8d6baf406209124b150d3c584dae7593d0a0ec3eb7821053ae"], "sequence": 4294967295, "scriptSig": {"hex": "2200207e8ee1368717d6ed900f452f735103f20b09280a0e09b27562605a0b3342dd9e", "asm": "00207e8ee1368717d6ed900f452f735103f20b09280a0e09b27562605a0b3342dd9e"}, "vout": 10, "txid": "febd3e85422d00dc1e22f03f5f3260600fbc48c77848214caf16d8165bb470a1"}, {"sequence": 4294967295, "scriptSig": {"hex": "0048304502210090a117564dd878593f68518e485dd29deeda1800abfda0809e0a78cd9f5a8d1802201b4845187afc7fecb6f51b5ac0e2cb10955c4ebd373af9eb2a2e04a3cc71facf01473044022071cf007cc7604ca0f7e131b6565df848aa487f56bd3f12a6305d0ddc1ea11577022031700b0fc6daa719d789f2b5ef7dc63f15d4ef73346927d4f2181bdee91e3714014c695221026bc09eba9d0368c31b9f893d6d5ef7adc4b35a4c8014fa6efc3d86b8ba20ae75210250cee6847065458b6b40e1a55b6995c8aa05a347e1176f1da028f61913e52793210360f24b55ebbe7e4176fd4594abe57e6658e02718e987d2371d20e2412634cf9e53ae", "asm": "0 304502210090a117564dd878593f68518e485dd29deeda1800abfda0809e0a78cd9f5a8d1802201b4845187afc7fecb6f51b5ac0e2cb10955c4ebd373af9eb2a2e04a3cc71facf[ALL] 3044022071cf007cc7604ca0f7e131b6565df848aa487f56bd3f12a6305d0ddc1ea11577022031700b0fc6daa719d789f2b5ef7dc63f15d4ef73346927d4f2181bdee91e3714[ALL] 5221026bc09eba9d0368c31b9f893d6d5ef7adc4b35a4c8014fa6efc3d86b8ba20ae75210250cee6847065458b6b40e1a55b6995c8aa05a347e1176f1da028f61913e52793210360f24b55ebbe7e4176fd4594abe57e6658e02718e987d2371d20e2412634cf9e53ae"}, "vout": 1, "txid": "6d48d1ac979974529d0c0633311abf63df241bbd4b76811b8b85237c777aa725"}, {"txinwitness": ["", "3045022100ec7d146bf67eb3d3f822041c9b7cf257761c6f4afae2e67602f2993ed825f4ab022010f6119466499415d44383f7467a3fd9114a948fce3e8b6376ad38cd5a78b3fd01", "3045022100f345507202cb2a16aff5c5521472afa35edff23ee19e5fd073b61884e182316f0220704b3fc6f8514960193d907297bcf78e3eb777005bb2fbfc4a80b6bf00bdc71f01", "522103ee55cce2b46d08e3f28bb6378710ca9535d35ff6fffaca177997f87461a682632102d6cea990b7a071b2c0ddb85224e4dee458bb0063f2acf5e0ca2018de5697a6552103a57457611b8c5bac3b2145d062d873ec53c27ef910564a0139bfc1b6ba75916753ae"], "sequence": 4294967295, "scriptSig": {"hex": "22002072a56b36174eec39d506375e271e8cdd5d27d11ba23d5511d10bc47dd98c6416", "asm": "002072a56b36174eec39d506375e271e8cdd5d27d11ba23d5511d10bc47dd98c6416"}, "vout": 1, "txid": "8259638c68ca2e440a7812a5b30cd673677a2edeaf25ce588b0df8e29cb8b69a"}], "txid": "3407c039ac8d76dadde317a57831527b26d1c8ffc69d69a3c5223e2faffe53da", "blocktime": 1537870928, "version": 1, "confirmations": 11514, "time": 1537870928, "locktime": 0, "vsize": 1662, "size": 2613}