{"hash": "341a39ad07880f5a13c9a6ec18de2085ce314ecd7c8074cac51c581bb12f95ae", "blockhash": "00000000000000000004ffacab907a6b429b9a5745fa0b75af4234bf69dd7176", "vout": [{"scriptPubKey": {"reqSigs": 1, "hex": "76a9141d89511796c5b6f5348d58e4ebba11932e129b9788ac", "addresses": ["13hB6VxWn52YuzXJJ9FE6Y7NVnT5CtRjmD"], "asm": "OP_DUP OP_HASH160 1d89511796c5b6f5348d58e4ebba11932e129b97 OP_EQUALVERIFY OP_CHECKSIG", "type": "pubkeyhash"}, "value": 0.00031635, "n": 0}, {"scriptPubKey": {"reqSigs": 1, "hex": "a9147c55eeb231aaaf6f297f082a1351c555a88505c987", "addresses": ["3D2Sf24Be9Y1E5DYBVjBsRb5dBd8ETt56C"], "asm": "OP_HASH160 7c55eeb231aaaf6f297f082a1351c555a88505c9 OP_EQUAL", "type": "scripthash"}, "value": 0.00150076, "n": 1}], "hex": "0100000001f87fad66a652fbaafdd4ffe19c6205574937119762e08162d96a111854d8c28f000000008b483045022100a8b22645c172f18d16f0bf728ccb8305880eb766a90641a91d2d114baf4d036902203829f0729c713e0c7f8d73bcdd62afc8a99d4f6c75754385544739d142b239a8014104138737791e305144d8d6b31366fa5c1ad22f0364ffb114cc0a39c1ea96cf0cc6f961a8dbe0de9daa4f9f76e78ac90bf664706e3a4e126c2798e89c747b2d9ba6ffffffff02937b0000000000001976a9141d89511796c5b6f5348d58e4ebba11932e129b9788ac3c4a02000000000017a9147c55eeb231aaaf6f297f082a1351c555a88505c98700000000", "vin": [{"sequence": 4294967295, "scriptSig": {"hex": "483045022100a8b22645c172f18d16f0bf728ccb8305880eb766a90641a91d2d114baf4d036902203829f0729c713e0c7f8d73bcdd62afc8a99d4f6c75754385544739d142b239a8014104138737791e305144d8d6b31366fa5c1ad22f0364ffb114cc0a39c1ea96cf0cc6f961a8dbe0de9daa4f9f76e78ac90bf664706e3a4e126c2798e89c747b2d9ba6", "asm": "3045022100a8b22645c172f18d16f0bf728ccb8305880eb766a90641a91d2d114baf4d036902203829f0729c713e0c7f8d73bcdd62afc8a99d4f6c75754385544739d142b239a8[ALL] 04138737791e305144d8d6b31366fa5c1ad22f0364ffb114cc0a39c1ea96cf0cc6f961a8dbe0de9daa4f9f76e78ac90bf664706e3a4e126c2798e89c747b2d9ba6"}, "vout": 0, "txid": "8fc2d85418116ad96281e062971137495705629ce1ffd4fdaafb52a666ad7ff8"}], "txid": "341a39ad07880f5a13c9a6ec18de2085ce314ecd7c8074cac51c581bb12f95ae", "blocktime": 1537875543, "version": 1, "confirmations": 11464, "time": 1537875543, "locktime": 0, "vsize": 256, "size": 256}