{"hash": "fc89177d53eb25762235ed16fb0b81a57708d008c143fba2d3537c15ce746d87", "blockhash": "0000000000000000000dcc0f55137456b1a82d3642486a52398922ac4d620174", "vout": [{"scriptPubKey": {"reqSigs": 1, "hex": "76a9142baf1cbe56cbd2ac653a75092c48f95da614a4d688ac", "addresses": ["14yyqGGLN8Xv1gQwqGDhUjUtXXKdpUwAHJ"], "asm": "OP_DUP OP_HASH160 2baf1cbe56cbd2ac653a75092c48f95da614a4d6 OP_EQUALVERIFY OP_CHECKSIG", "type": "pubkeyhash"}, "value": 0.1, "n": 0}, {"scriptPubKey": {"reqSigs": 1, "hex": "0020701a8d401c84fb13e6baf169d59684e17abd9fa216c8cc5b9fc63d622ff8c58d", "addresses": ["bc1qwqdg6squsna38e46795at95yu9atm8azzmyvckulcc7kytlcckxswvvzej"], "asm": "0 701a8d401c84fb13e6baf169d59684e17abd9fa216c8cc5b9fc63d622ff8c58d", "type": "witness_v0_scripthash"}, "value": 0.42773997, "n": 1}], "hex": "0100000000010173bb601d0d7b1b239809e417192a897d7ec77b6ccab39f42bdba8c5fa26636b40300000000ffffffff0280969800000000001976a9142baf1cbe56cbd2ac653a75092c48f95da614a4d688acedad8c0200000000220020701a8d401c84fb13e6baf169d59684e17abd9fa216c8cc5b9fc63d622ff8c58d0400483045022100bac990da95162cb3899896daac89a2b1b37ed34b47880b7bc4d16ee37c4ddabe02203602bc0cb6cda0d52bb7a885cbdfcb8f1d09903d870b08009d80cb6936605d8e01473044022003bcbd5a5267f68d5c88acbbef4bbb614b1d5cbf40fa00e33bdf658ace377d5d02202e9a4d6f87cf7a8a999be929772b8a2a41c2be9b9257a334498ff1062d3386a2016952210375e00eb72e29da82b89367947f29ef34afb75e8654f6ea368e0acdfd92976b7c2103a1b26313f430c4b15bb1fdce663207659d8cac749a0e53d70eff01874496feff2103c96d495bfdd5ba4145e3e046fee45e84a8a48ad05bd8dbb395c011a32cf9f88053ae00000000", "vin": [{"txinwitness": ["", "3045022100bac990da95162cb3899896daac89a2b1b37ed34b47880b7bc4d16ee37c4ddabe02203602bc0cb6cda0d52bb7a885cbdfcb8f1d09903d870b08009d80cb6936605d8e01", "3044022003bcbd5a5267f68d5c88acbbef4bbb614b1d5cbf40fa00e33bdf658ace377d5d02202e9a4d6f87cf7a8a999be929772b8a2a41c2be9b9257a334498ff1062d3386a201", "52210375e00eb72e29da82b89367947f29ef34afb75e8654f6ea368e0acdfd92976b7c2103a1b26313f430c4b15bb1fdce663207659d8cac749a0e53d70eff01874496feff2103c96d495bfdd5ba4145e3e046fee45e84a8a48ad05bd8dbb395c011a32cf9f88053ae"], "sequence": 4294967295, "scriptSig": {"hex": "", "asm": ""}, "vout": 3, "txid": "b43666a25f8cbabd429fb3ca6c7bc77e7d892a1917e40998231b7b0d1d60bb73"}], "txid": "341b4fc1d8b79dae22757acc2048630c49f74f14609739fcdc835976c3b8a202", "blocktime": 1537870268, "version": 1, "confirmations": 11516, "time": 1537870268, "locktime": 0, "vsize": 192, "size": 383}