{"hash": "ef22eb5b345dc2a04063bbcd76152ab4444cc8d053d02eb8a0b4bd4e084a8d7b", "blockhash": "0000000000000000001f0ddff1eddb255c1121bcd4da4f1bc9a0da00cae72433", "vout": [{"scriptPubKey": {"reqSigs": 1, "hex": "a9140bb2e49ec031268de61555c75c5ac7fdf5fc9f0287", "addresses": ["32ksfMsjVW5TsuDubWmxPxC3N339my5X51"], "asm": "OP_HASH160 0bb2e49ec031268de61555c75c5ac7fdf5fc9f02 OP_EQUAL", "type": "scripthash"}, "value": 0.00661081, "n": 0}, {"scriptPubKey": {"reqSigs": 1, "hex": "a914c3aac73b19a6df3a3a68ef69a8e9f79c8dff9a9c87", "addresses": ["3KXcGqASXznMituPhPnV7BkSc6CHZRLykC"], "asm": "OP_HASH160 c3aac73b19a6df3a3a68ef69a8e9f79c8dff9a9c OP_EQUAL", "type": "scripthash"}, "value": 0.01407847, "n": 1}], "hex": "01000000000101731ffd322e1970bcbe0d9bc90401931bcbf2d29f725bce236a8c18553d9f427b00000000232200200b5c15b2a266c1fd9e615145cf3cd379109fe761c2844ebebbc12b381bddc9faffffffff0259160a000000000017a9140bb2e49ec031268de61555c75c5ac7fdf5fc9f0287677b15000000000017a914c3aac73b19a6df3a3a68ef69a8e9f79c8dff9a9c870400483045022100c546c82eeed74bd1a0fbd74b1daa68c0bd37d744398cb8d91f72d4a166088f730220768dcae5a3db0163329bcb31a575b041173be81f7e07dfb36fa177d3a2d3131a01483045022100d4b6b0e431af2d339a61ae2d02a8415687ecda7b6269d9565febd8bb60a8257a02205e565a394880e4c3531bc6bc5bad288dbc90a73903b9954d1c00ffffbd256e100147522102b590b6826675da568b914aa494372424b69f5fe06067fd7fa568cc41070c8e6b21024c55499905a522129124e75484b7ddea868aee9a7f01d75add901db6cf9b589f52ae00000000", "vin": [{"txinwitness": ["", "3045022100c546c82eeed74bd1a0fbd74b1daa68c0bd37d744398cb8d91f72d4a166088f730220768dcae5a3db0163329bcb31a575b041173be81f7e07dfb36fa177d3a2d3131a01", "3045022100d4b6b0e431af2d339a61ae2d02a8415687ecda7b6269d9565febd8bb60a8257a02205e565a394880e4c3531bc6bc5bad288dbc90a73903b9954d1c00ffffbd256e1001", "522102b590b6826675da568b914aa494372424b69f5fe06067fd7fa568cc41070c8e6b21024c55499905a522129124e75484b7ddea868aee9a7f01d75add901db6cf9b589f52ae"], "sequence": 4294967295, "scriptSig": {"hex": "2200200b5c15b2a266c1fd9e615145cf3cd379109fe761c2844ebebbc12b381bddc9fa", "asm": "00200b5c15b2a266c1fd9e615145cf3cd379109fe761c2844ebebbc12b381bddc9fa"}, "vout": 0, "txid": "7b429f3d55188c6a23ce5b729fd2f2cb1b930104c99b0dbebc70192e32fd1f73"}], "txid": "34206f5e3d4c8e91c9416a7bd63adf918a93ca741865e19e008d3e7d989c9f52", "blocktime": 1537872018, "version": 1, "confirmations": 11489, "time": 1537872018, "locktime": 0, "vsize": 206, "size": 372}