{"hash": "e9985e1a42f1464a5c7cdd6cd2ab26f97fdcc087f1d8dcb07416cd6c20ff82b5", "blockhash": "0000000000000000000e13cef7c366c0283d82e591d1acd082e914b08063cdf1", "vout": [{"scriptPubKey": {"reqSigs": 1, "hex": "a914d03ff5d7f044ecd9113a794ca1cf43be96ce768187", "addresses": ["3Lg96V8ftuncNj9RXUSYToR5Hb2T3NTYoM"], "asm": "OP_HASH160 d03ff5d7f044ecd9113a794ca1cf43be96ce7681 OP_EQUAL", "type": "scripthash"}, "value": 0.17213785, "n": 0}, {"scriptPubKey": {"reqSigs": 1, "hex": "a9145c8690130998edf58c956c3cd7981f0602f6cda187", "addresses": ["3A8FHn7x8AN1kBFKLZPQhsswoyabT46z3Q"], "asm": "OP_HASH160 5c8690130998edf58c956c3cd7981f0602f6cda1 OP_EQUAL", "type": "scripthash"}, "value": 0.021858, "n": 1}], "hex": "010000000001012a7a1e44af1aa07824ad23c5fef64b6f722ef723accb78df2c8dc4d2dd6a73bc0100000023220020d4a04694c04796e7e6b21e6374b71ece15922f75ffc083db84f179a14a6f5d9fffffffff0259a906010000000017a914d03ff5d7f044ecd9113a794ca1cf43be96ce768187485a21000000000017a9145c8690130998edf58c956c3cd7981f0602f6cda1870400473044022024e9ce889e23d2756000cc3ea7b8cd5407ca90c55964a6f97285cf373cdd7e1d02204e870cf216d37219febd9af04efe872c3b7914dce9d5c8751ff4dcd7b0749eb30147304402200df897b96d024cb2027abac0cbecd33592b54acf289036e5aeea17dd19a6a47a02201a4308c40edf0f158e323d84c87f8e4b064685892228f71bd1c3ba90a416d2550169522102be7f56fb0d12d58e7d57205693244c8da02fdd72b640fdc872d6840c22ada36e21034287dfc42ec40cd69b434985e44245946d944fafa6503c0a990377919019a33121030e450c48f849ba230685a68d966fbceb9b9967fc2c1055dfff3be7149476373953ae00000000", "vin": [{"txinwitness": ["", "3044022024e9ce889e23d2756000cc3ea7b8cd5407ca90c55964a6f97285cf373cdd7e1d02204e870cf216d37219febd9af04efe872c3b7914dce9d5c8751ff4dcd7b0749eb301", "304402200df897b96d024cb2027abac0cbecd33592b54acf289036e5aeea17dd19a6a47a02201a4308c40edf0f158e323d84c87f8e4b064685892228f71bd1c3ba90a416d25501", "522102be7f56fb0d12d58e7d57205693244c8da02fdd72b640fdc872d6840c22ada36e21034287dfc42ec40cd69b434985e44245946d944fafa6503c0a990377919019a33121030e450c48f849ba230685a68d966fbceb9b9967fc2c1055dfff3be7149476373953ae"], "sequence": 4294967295, "scriptSig": {"hex": "220020d4a04694c04796e7e6b21e6374b71ece15922f75ffc083db84f179a14a6f5d9f", "asm": "0020d4a04694c04796e7e6b21e6374b71ece15922f75ffc083db84f179a14a6f5d9f"}, "vout": 1, "txid": "bc736addd2c48d2cdf78cbac23f72e726f4bf6fec523ad2478a01aaf441e7a2a"}], "txid": "3422345d4c3c89dd590ce4049c4d647145213181f48301bb8334b8cf539f5714", "blocktime": 1537871767, "version": 1, "confirmations": 11494, "time": 1537871767, "locktime": 0, "vsize": 214, "size": 404}