{"hash": "342cade4a7a69ae6b1df50be2f94618c5162d959ed719c069479c13da4501ef0", "blockhash": "0000000000000000000baef3f32e3676a92c3b2e5da21b426e4f302fc371ce76", "vout": [{"scriptPubKey": {"reqSigs": 1, "hex": "76a9145ac058918392cacb4d80cccb202600da8d79c5ee88ac", "addresses": ["19GrEhRtRVuHZw2RgQ3rXXcgbL4tk328ja"], "asm": "OP_DUP OP_HASH160 5ac058918392cacb4d80cccb202600da8d79c5ee OP_EQUALVERIFY OP_CHECKSIG", "type": "pubkeyhash"}, "value": 0.0004708, "n": 0}, {"scriptPubKey": {"type": "nulldata", "hex": "6a4c500000781b000128908399d77f7b950f34295b019d6ddc0f1b8ff117702940d64fa54d8eb2a558e43537d405c70834c5fda340e3235baa1cdf0613fc9e2cf86eb8bc9a9526289ac0f6612cd74e33776ee4", "asm": "OP_RETURN 0000781b000128908399d77f7b950f34295b019d6ddc0f1b8ff117702940d64fa54d8eb2a558e43537d405c70834c5fda340e3235baa1cdf0613fc9e2cf86eb8bc9a9526289ac0f6612cd74e33776ee4"}, "value": 0.0, "n": 1}], "hex": "01000000019c920e89ad920302f34cd74fb76bfa4505b6503a60be345bf4e5ee549c714344000000006b483045022100d7f6fe3d7851bb6e249aa903c9e07ba592891f7f0ed6bd8ff2764bd671fb12060220188d3814d1d76bb0ae8477e229de56eef378ab4ba5453cfdc4840f313885fc2601210378ef1f6fb09470a5e29971edb6fb6fb0b69b22cf6b9ec165e6e7ad64771b3217ffffffff02e8b70000000000001976a9145ac058918392cacb4d80cccb202600da8d79c5ee88ac0000000000000000536a4c500000781b000128908399d77f7b950f34295b019d6ddc0f1b8ff117702940d64fa54d8eb2a558e43537d405c70834c5fda340e3235baa1cdf0613fc9e2cf86eb8bc9a9526289ac0f6612cd74e33776ee400000000", "vin": [{"sequence": 4294967295, "scriptSig": {"hex": "483045022100d7f6fe3d7851bb6e249aa903c9e07ba592891f7f0ed6bd8ff2764bd671fb12060220188d3814d1d76bb0ae8477e229de56eef378ab4ba5453cfdc4840f313885fc2601210378ef1f6fb09470a5e29971edb6fb6fb0b69b22cf6b9ec165e6e7ad64771b3217", "asm": "3045022100d7f6fe3d7851bb6e249aa903c9e07ba592891f7f0ed6bd8ff2764bd671fb12060220188d3814d1d76bb0ae8477e229de56eef378ab4ba5453cfdc4840f313885fc26[ALL] 0378ef1f6fb09470a5e29971edb6fb6fb0b69b22cf6b9ec165e6e7ad64771b3217"}, "vout": 0, "txid": "4443719c54eee5f45b34be603a50b60545fa6bb74fd74cf3020392ad890e929c"}], "txid": "342cade4a7a69ae6b1df50be2f94618c5162d959ed719c069479c13da4501ef0", "blocktime": 1537876114, "version": 1, "confirmations": 11460, "time": 1537876114, "locktime": 0, "vsize": 284, "size": 284}