{"hash": "7da739ce062148a2d74ddac32d5bc5ae806edd36d60570f6fe9f909584f23dcc", "blockhash": "000000000000000000022b45ed06c6f4ccd3cf7fb5ba4856ebd2e58215665228", "vout": [{"scriptPubKey": {"reqSigs": 1, "hex": "a914cfaabfe8c271f99a4364b5197ba50c6cddb7adb987", "addresses": ["3Ld4M9RPwEG3VeQbHcC1PsKUndQL7VYLZP"], "asm": "OP_HASH160 cfaabfe8c271f99a4364b5197ba50c6cddb7adb9 OP_EQUAL", "type": "scripthash"}, "value": 0.15221416, "n": 0}, {"scriptPubKey": {"reqSigs": 1, "hex": "a914c3b42b27697356896f5bbbb925a85ec49186681987", "addresses": ["3KXoXHLF8vkMAQBKRvnGYiuez3NaujEKA6"], "asm": "OP_HASH160 c3b42b27697356896f5bbbb925a85ec491866819 OP_EQUAL", "type": "scripthash"}, "value": 0.02508959, "n": 1}], "hex": "01000000000106578080e8261b2b759aae4418ad78d31afca3d319820b964fcf809ca2309c715c0100000023220020ab89eb378da4119cf438d06c48a4764e3dc7fe88baed6e6f77a37d1536185cabffffffffb93ead3b2328e244acacd875fbfdda787260f6e9f6f861dcaa1031c5568057d400000000232200207833cf4a3c8565b912a2ffbdd597004c64cf2f40fa50ec9fb17772855083fe49ffffffffc561275061826237ee241a2bb3d86f45604762fbc7b049da7a39ccaade5059140000000023220020ebfbe08e5e3f1699d3e7262f08e2276caa6ee7b01826e7ce1cb61c79f6f3aa2cfffffffff289561e663200c12d394eac68b815539275c7585234ee0028d6bfddd5f91fa40100000023220020d97b0e8e644a46ab30b1910d576c59d95da129fde593ac59033953d730f27c69ffffffff549eeb20d614116241bb3ccf865ca89bd7a2bbf7e40959848b5a5119935cf917010000002322002021552c6cd9e054dc148c636907db416d3a0f9e1a2847a00bd7c0c59a921b6ba8ffffffffc5887b460d2a16709a76a15cc850acbb5af0475ff71267ca6232ec4a224e372a010000002322002093b668c571ff751552938de9ae3c5d33fa650fb9785fac43055a20c42f8eefc9ffffffff02a842e8000000000017a914cfaabfe8c271f99a4364b5197ba50c6cddb7adb9879f4826000000000017a914c3b42b27697356896f5bbbb925a85ec4918668198704004830450221008e16e77985114f9eea4444e9b8fdefecb0b183941ca25c42b07da915c779283d02200d3382515826391dc36300b59ee87bfbdbc0818fe033b7b35306e4dec6d8af1e01483045022100ed4a7d6dc9f4a69ff46161689b4e2713a97efb17cda958018645819276e784c902205e954566b9c42b538d438672b51b57a44f051b4d8cedd8d8de28e71e3387f2280147522103979c47742a4c8e3d63fd55936eb972f62fd9e5eab4c5a56b12431ef5b79817f121033e4af03ed09dbd8a417ba042650d5bd1db7f14f271a8f660974e3abf1fdfa4da52ae040047304402202796eedcdfd2312a4919d8233fb32d9018b67cc04dedbdeb7aacb99e3e62c755022001f724103d9b678873fba9b9a07e7a55800d449b5f84e5eacf1e50fd61ca94ab01483045022100ee2ea228c9d0bbbd3599fccda6fc2f23ef8ff330d32685df466b31d6bcb2d9760220318a26a37e15c171b12ade86d0045b509b9dfec8a7e00dfa573a630fce879ebe0147522103fc6b449c414fbd684defe35ce23819b89481855e591ba471393cb5c756f3308f21033e4af03ed09dbd8a417ba042650d5bd1db7f14f271a8f660974e3abf1fdfa4da52ae040047304402200d155f527f0c6e4f48fa246c4ddbe1cacd4b6b66e9133fb12defdb77674dbba5022059f911672e2159ec7f1adf1f857a7b4fc37e0a581d79ce7d9dfa87935b5267b6014830450221008ea3049cb28b0d91451ae43d4e8cf78295faa9a7c3370e86840fb40ab6405835022074bef98d4b1c9988a2acf4c90fd5be154f65d1657b37f269384673d1f50d444d0147522103758e1148465955948c473ff01f2273ae3a349c634308fc2f2e5a46af5b66328421033e4af03ed09dbd8a417ba042650d5bd1db7f14f271a8f660974e3abf1fdfa4da52ae0400473044022044e55f349112182e7599f66194f40f22b69c6d0a17d76235b816a2a65b1c2deb022040e08f90c66b74a312610a07442c86cc80cae0c3209f1e911ac6330f6f0bde3a01483045022100c3ebb92c8a2e0acfec1237f16bb06fcb38d3ad8da1077814dc21c505565e89cc022066ab9ef64878ebe8cf559ae836834c7e1582c1e820c1ec05f6b7f2c461e99843014752210201de0645c6f24fca0a655a1b230fd892ed81c984a9cef643e0c3710dffedb0b621033e4af03ed09dbd8a417ba042650d5bd1db7f14f271a8f660974e3abf1fdfa4da52ae0400473044022014a78ecf433667a28598dd2725ee73f2816e66423ec09ef5a31f8c463eb8e65502201066ccd2d73ef192b037c99638eb9ed2a55a7e8c34585ead8a14c56a2f8bf8a2014830450221009f1bb8507dc4c5a53064114810c131e4ed5bda89e16fb2c4a4108324e405c21202200135fd105fb41ffe61a1f39e7c38dd7b4ddd3e4896eab1f0aecd437c7402e6670147522102d5d6068128a02cde120b92236f1a7496a8f96bcb1a585cbe400a76a96c6e07a321033e4af03ed09dbd8a417ba042650d5bd1db7f14f271a8f660974e3abf1fdfa4da52ae0400483045022100d7c27d0e94217973466511410b5159593e8a9be73049d076f9aea2fd288b8b2b022055c8a444aefb9b1dd7de493b87446945549d0d3bb96bd244c3e7a2dfa15aceff01483045022100ffa4e67e27e68f98c5ac4f4288cb6c0df201b1a7b63fa8b65f1e5300141951fc02201f1a44fb8f9e9db211033625cf8f0f9a3571885bb81a4c3b388d0afa2c6e870f0147522102245d52b20b9b4ce5a3879d2c1035ac2f23d28b1cf530d957e42ee41b13b02f0c21033e4af03ed09dbd8a417ba042650d5bd1db7f14f271a8f660974e3abf1fdfa4da52ae00000000", "vin": [{"txinwitness": ["", "30450221008e16e77985114f9eea4444e9b8fdefecb0b183941ca25c42b07da915c779283d02200d3382515826391dc36300b59ee87bfbdbc0818fe033b7b35306e4dec6d8af1e01", "3045022100ed4a7d6dc9f4a69ff46161689b4e2713a97efb17cda958018645819276e784c902205e954566b9c42b538d438672b51b57a44f051b4d8cedd8d8de28e71e3387f22801", "522103979c47742a4c8e3d63fd55936eb972f62fd9e5eab4c5a56b12431ef5b79817f121033e4af03ed09dbd8a417ba042650d5bd1db7f14f271a8f660974e3abf1fdfa4da52ae"], "sequence": 4294967295, "scriptSig": {"hex": "220020ab89eb378da4119cf438d06c48a4764e3dc7fe88baed6e6f77a37d1536185cab", "asm": "0020ab89eb378da4119cf438d06c48a4764e3dc7fe88baed6e6f77a37d1536185cab"}, "vout": 1, "txid": "5c719c30a29c80cf4f960b8219d3a3fc1ad378ad1844ae9a752b1b26e8808057"}, {"txinwitness": ["", "304402202796eedcdfd2312a4919d8233fb32d9018b67cc04dedbdeb7aacb99e3e62c755022001f724103d9b678873fba9b9a07e7a55800d449b5f84e5eacf1e50fd61ca94ab01", "3045022100ee2ea228c9d0bbbd3599fccda6fc2f23ef8ff330d32685df466b31d6bcb2d9760220318a26a37e15c171b12ade86d0045b509b9dfec8a7e00dfa573a630fce879ebe01", "522103fc6b449c414fbd684defe35ce23819b89481855e591ba471393cb5c756f3308f21033e4af03ed09dbd8a417ba042650d5bd1db7f14f271a8f660974e3abf1fdfa4da52ae"], "sequence": 4294967295, "scriptSig": {"hex": "2200207833cf4a3c8565b912a2ffbdd597004c64cf2f40fa50ec9fb17772855083fe49", "asm": "00207833cf4a3c8565b912a2ffbdd597004c64cf2f40fa50ec9fb17772855083fe49"}, "vout": 0, "txid": "d4578056c53110aadc61f8f6e9f6607278dafdfb75d8acac44e228233bad3eb9"}, {"txinwitness": ["", "304402200d155f527f0c6e4f48fa246c4ddbe1cacd4b6b66e9133fb12defdb77674dbba5022059f911672e2159ec7f1adf1f857a7b4fc37e0a581d79ce7d9dfa87935b5267b601", "30450221008ea3049cb28b0d91451ae43d4e8cf78295faa9a7c3370e86840fb40ab6405835022074bef98d4b1c9988a2acf4c90fd5be154f65d1657b37f269384673d1f50d444d01", "522103758e1148465955948c473ff01f2273ae3a349c634308fc2f2e5a46af5b66328421033e4af03ed09dbd8a417ba042650d5bd1db7f14f271a8f660974e3abf1fdfa4da52ae"], "sequence": 4294967295, "scriptSig": {"hex": "220020ebfbe08e5e3f1699d3e7262f08e2276caa6ee7b01826e7ce1cb61c79f6f3aa2c", "asm": "0020ebfbe08e5e3f1699d3e7262f08e2276caa6ee7b01826e7ce1cb61c79f6f3aa2c"}, "vout": 0, "txid": "145950deaacc397ada49b0c7fb624760456fd8b32b1a24ee37628261502761c5"}, {"txinwitness": ["", "3044022044e55f349112182e7599f66194f40f22b69c6d0a17d76235b816a2a65b1c2deb022040e08f90c66b74a312610a07442c86cc80cae0c3209f1e911ac6330f6f0bde3a01", "3045022100c3ebb92c8a2e0acfec1237f16bb06fcb38d3ad8da1077814dc21c505565e89cc022066ab9ef64878ebe8cf559ae836834c7e1582c1e820c1ec05f6b7f2c461e9984301", "52210201de0645c6f24fca0a655a1b230fd892ed81c984a9cef643e0c3710dffedb0b621033e4af03ed09dbd8a417ba042650d5bd1db7f14f271a8f660974e3abf1fdfa4da52ae"], "sequence": 4294967295, "scriptSig": {"hex": "220020d97b0e8e644a46ab30b1910d576c59d95da129fde593ac59033953d730f27c69", "asm": "0020d97b0e8e644a46ab30b1910d576c59d95da129fde593ac59033953d730f27c69"}, "vout": 1, "txid": "a41ff9d5ddbfd62800ee345258c775925315b868ac4e392dc10032661e5689f2"}, {"txinwitness": ["", "3044022014a78ecf433667a28598dd2725ee73f2816e66423ec09ef5a31f8c463eb8e65502201066ccd2d73ef192b037c99638eb9ed2a55a7e8c34585ead8a14c56a2f8bf8a201", "30450221009f1bb8507dc4c5a53064114810c131e4ed5bda89e16fb2c4a4108324e405c21202200135fd105fb41ffe61a1f39e7c38dd7b4ddd3e4896eab1f0aecd437c7402e66701", "522102d5d6068128a02cde120b92236f1a7496a8f96bcb1a585cbe400a76a96c6e07a321033e4af03ed09dbd8a417ba042650d5bd1db7f14f271a8f660974e3abf1fdfa4da52ae"], "sequence": 4294967295, "scriptSig": {"hex": "22002021552c6cd9e054dc148c636907db416d3a0f9e1a2847a00bd7c0c59a921b6ba8", "asm": "002021552c6cd9e054dc148c636907db416d3a0f9e1a2847a00bd7c0c59a921b6ba8"}, "vout": 1, "txid": "17f95c9319515a8b845909e4f7bba2d79ba85c86cf3cbb41621114d620eb9e54"}, {"txinwitness": ["", "3045022100d7c27d0e94217973466511410b5159593e8a9be73049d076f9aea2fd288b8b2b022055c8a444aefb9b1dd7de493b87446945549d0d3bb96bd244c3e7a2dfa15aceff01", "3045022100ffa4e67e27e68f98c5ac4f4288cb6c0df201b1a7b63fa8b65f1e5300141951fc02201f1a44fb8f9e9db211033625cf8f0f9a3571885bb81a4c3b388d0afa2c6e870f01", "522102245d52b20b9b4ce5a3879d2c1035ac2f23d28b1cf530d957e42ee41b13b02f0c21033e4af03ed09dbd8a417ba042650d5bd1db7f14f271a8f660974e3abf1fdfa4da52ae"], "sequence": 4294967295, "scriptSig": {"hex": "22002093b668c571ff751552938de9ae3c5d33fa650fb9785fac43055a20c42f8eefc9", "asm": "002093b668c571ff751552938de9ae3c5d33fa650fb9785fac43055a20c42f8eefc9"}, "vout": 1, "txid": "2a374e224aec3262ca6712f75f47f05abbac50c85ca1769a70162a0d467b88c5"}], "txid": "342d5de3c95b5034a80f5ee79cb97f12e27cc802e7ed6ab2a3f9b6f53a2bd5b4", "blocktime": 1537869901, "version": 1, "confirmations": 11524, "time": 1537869901, "locktime": 0, "vsize": 860, "size": 1848}