{"hash": "3431effa70c439faf09a626be02cd3534d97798db3ac0ef8a95b87dee9afe5dd", "blockhash": "00000000000000000018f53835495a110e01622372bf6ae95dc86f2b0ab887b0", "vout": [{"scriptPubKey": {"reqSigs": 1, "hex": "76a91414476e95e1499f408abc264991c2b18ca13149ed88ac", "addresses": ["12rE61zt8vdsmEzkaJWyJNvTn1usnj6pBZ"], "asm": "OP_DUP OP_HASH160 14476e95e1499f408abc264991c2b18ca13149ed OP_EQUALVERIFY OP_CHECKSIG", "type": "pubkeyhash"}, "value": 0.00596266, "n": 0}, {"scriptPubKey": {"reqSigs": 1, "hex": "76a914436beba05cad494e64b008a2621be51aa1c1d29e88ac", "addresses": ["179VZJ5xLCk15E2Jw3KTgEknxwASEQmJZD"], "asm": "OP_DUP OP_HASH160 436beba05cad494e64b008a2621be51aa1c1d29e OP_EQUALVERIFY OP_CHECKSIG", "type": "pubkeyhash"}, "value": 0.00810418, "n": 1}, {"scriptPubKey": {"reqSigs": 1, "hex": "76a914ad908960ef3b664424998c00fd1c750ab97728b788ac", "addresses": ["1Gpj3mZ3MC7mGiLR9PyCJaejrWpfEy7KXv"], "asm": "OP_DUP OP_HASH160 ad908960ef3b664424998c00fd1c750ab97728b7 OP_EQUALVERIFY OP_CHECKSIG", "type": "pubkeyhash"}, "value": 0.01485456, "n": 2}, {"scriptPubKey": {"reqSigs": 1, "hex": "76a91482dce9373e7d7bec6c4f546859abb8d6fe24d27088ac", "addresses": ["1CvwV6zPvHhnZ8AkyVbpcMxGL9GW1cgx4B"], "asm": "OP_DUP OP_HASH160 82dce9373e7d7bec6c4f546859abb8d6fe24d270 OP_EQUALVERIFY OP_CHECKSIG", "type": "pubkeyhash"}, "value": 0.01849216, "n": 3}, {"scriptPubKey": {"reqSigs": 1, "hex": "76a914e79f7b73997903bfdbc6306a203a5663adea083588ac", "addresses": ["1N7i9LHvFW6qnsFFaeuMM8rrRsEr9hfMgd"], "asm": "OP_DUP OP_HASH160 e79f7b73997903bfdbc6306a203a5663adea0835 OP_EQUALVERIFY OP_CHECKSIG", "type": "pubkeyhash"}, "value": 0.01969762, "n": 4}, {"scriptPubKey": {"reqSigs": 1, "hex": "76a9140a66b0c11308e1b30415ad1162389c679891927788ac", "addresses": ["1wzmyas7jmPCxJdnkDGEDveDSiYMS9MFn"], "asm": "OP_DUP OP_HASH160 0a66b0c11308e1b30415ad1162389c6798919277 OP_EQUALVERIFY OP_CHECKSIG", "type": "pubkeyhash"}, "value": 6.48588912, "n": 5}], "hex": "0100000001056909b41184d0ec3db3f740975a5c88c1ce4ac3ca303d2fdd515992f784ac37050000006b483045022100b5ecb2b96c52f953668260a1826d135fcb6dd991dd9782f519a204f826c8bb37022045ebff245ee99ccf126a8e5ab390337f7198af0042e82bb59e7a5f3ac73bddc3012102d26817135d374de5821e3d712a9f591820fc444110c828e1f19075d75c1a4ef9feffffff062a190900000000001976a91414476e95e1499f408abc264991c2b18ca13149ed88acb25d0c00000000001976a914436beba05cad494e64b008a2621be51aa1c1d29e88ac90aa1600000000001976a914ad908960ef3b664424998c00fd1c750ab97728b788ac80371c00000000001976a91482dce9373e7d7bec6c4f546859abb8d6fe24d27088ac620e1e00000000001976a914e79f7b73997903bfdbc6306a203a5663adea083588ac70aea826000000001976a9140a66b0c11308e1b30415ad1162389c679891927788ac00000000", "vin": [{"sequence": 4294967294, "scriptSig": {"hex": "483045022100b5ecb2b96c52f953668260a1826d135fcb6dd991dd9782f519a204f826c8bb37022045ebff245ee99ccf126a8e5ab390337f7198af0042e82bb59e7a5f3ac73bddc3012102d26817135d374de5821e3d712a9f591820fc444110c828e1f19075d75c1a4ef9", "asm": "3045022100b5ecb2b96c52f953668260a1826d135fcb6dd991dd9782f519a204f826c8bb37022045ebff245ee99ccf126a8e5ab390337f7198af0042e82bb59e7a5f3ac73bddc3[ALL] 02d26817135d374de5821e3d712a9f591820fc444110c828e1f19075d75c1a4ef9"}, "vout": 5, "txid": "37ac84f7925951dd2f3d30cac34acec1885c5a9740f7b33decd08411b4096905"}], "txid": "3431effa70c439faf09a626be02cd3534d97798db3ac0ef8a95b87dee9afe5dd", "blocktime": 1537870928, "version": 1, "confirmations": 11512, "time": 1537870928, "locktime": 0, "vsize": 362, "size": 362}