{"hash": "126b6303cdbf5944561ed55f4433db2f9b4b4bfcd072e47f970a9144cc86e53f", "blockhash": "00000000000000000018f53835495a110e01622372bf6ae95dc86f2b0ab887b0", "vout": [{"scriptPubKey": {"reqSigs": 1, "hex": "76a9144c081f672d371ddc5f6150fa1cf5245e0a13148d88ac", "addresses": ["17w25xDUpVudubsG6gnXH7s39uXogRvR5s"], "asm": "OP_DUP OP_HASH160 4c081f672d371ddc5f6150fa1cf5245e0a13148d OP_EQUALVERIFY OP_CHECKSIG", "type": "pubkeyhash"}, "value": 1.89675, "n": 0}, {"scriptPubKey": {"reqSigs": 1, "hex": "0020701a8d401c84fb13e6baf169d59684e17abd9fa216c8cc5b9fc63d622ff8c58d", "addresses": ["bc1qwqdg6squsna38e46795at95yu9atm8azzmyvckulcc7kytlcckxswvvzej"], "asm": "0 701a8d401c84fb13e6baf169d59684e17abd9fa216c8cc5b9fc63d622ff8c58d", "type": "witness_v0_scripthash"}, "value": 3.90575, "n": 1}], "hex": "01000000000101d61e82aba7ac396c4f6928a8f1ef1fcd08cb79d2813ebf5024e72488240821840300000000ffffffff02f8354e0b000000001976a9144c081f672d371ddc5f6150fa1cf5245e0a13148d88ac98b3471700000000220020701a8d401c84fb13e6baf169d59684e17abd9fa216c8cc5b9fc63d622ff8c58d0400473044022016e70ffaa954f9c106f44a52ac78792007365904af3131370a0fcb5721a6342c02206040933a51768192039d15ca1fa7b9457b5a0c13a90e9d33235638c2a11cfba201473044022030377477a07b8a92752ca5bd3f912aa5888d1aabd7a3a0ebf9387454d286afc20220356d9ba8728d5aaf06d5708cf97d043a98d35de4be2319fc9c23115d53192154016952210375e00eb72e29da82b89367947f29ef34afb75e8654f6ea368e0acdfd92976b7c2103a1b26313f430c4b15bb1fdce663207659d8cac749a0e53d70eff01874496feff2103c96d495bfdd5ba4145e3e046fee45e84a8a48ad05bd8dbb395c011a32cf9f88053ae00000000", "vin": [{"txinwitness": ["", "3044022016e70ffaa954f9c106f44a52ac78792007365904af3131370a0fcb5721a6342c02206040933a51768192039d15ca1fa7b9457b5a0c13a90e9d33235638c2a11cfba201", "3044022030377477a07b8a92752ca5bd3f912aa5888d1aabd7a3a0ebf9387454d286afc20220356d9ba8728d5aaf06d5708cf97d043a98d35de4be2319fc9c23115d5319215401", "52210375e00eb72e29da82b89367947f29ef34afb75e8654f6ea368e0acdfd92976b7c2103a1b26313f430c4b15bb1fdce663207659d8cac749a0e53d70eff01874496feff2103c96d495bfdd5ba4145e3e046fee45e84a8a48ad05bd8dbb395c011a32cf9f88053ae"], "sequence": 4294967295, "scriptSig": {"hex": "", "asm": ""}, "vout": 3, "txid": "842108248824e72450bf3e81d279cb08cd1feff1a828694f6c39aca7ab821ed6"}], "txid": "34317889552396b63bfa9aca2a3c57fcc5d8c5784facdcf6096bc93a7020f48a", "blocktime": 1537870928, "version": 1, "confirmations": 11512, "time": 1537870928, "locktime": 0, "vsize": 192, "size": 382}