{"hash": "34368e559a66713524a5c851fb4f442d934202416eac8c59f6882b58f0e515d2", "blockhash": "00000000000000000018f53835495a110e01622372bf6ae95dc86f2b0ab887b0", "vout": [{"scriptPubKey": {"reqSigs": 1, "hex": "a9147aec7bd5650144fbcf38e93128ab347d1e3f31b987", "addresses": ["3Ctyf8AVd9Uf4jA9VJMVfhxX3US1qKUp89"], "asm": "OP_HASH160 7aec7bd5650144fbcf38e93128ab347d1e3f31b9 OP_EQUAL", "type": "scripthash"}, "value": 0.00881773, "n": 0}], "hex": "0100000009c28c6fae7c8f32e595e21b4ef5e75e247d3b9e0d122f20aca5e810be8581b218010000006b483045022100cae56e9c3731be9422e6b94754842561587848e2219c8031e0c9533de39c91f9022004c2d709deb697af596175c6673490508a28ec51e076967431f5ed93d739f645012103f854a13a05930e70a3ab8bdc2411e3a655ef5230364b1dce833a6a4b1efebdb2ffffffff0bee51ad3e27f160f7f082148be1878c79cce56a3b19c803d88fb9f9156858274e0000006b483045022100c789621953b7b3b957d8123249751fb3822dd717acac94ff821ee9a56cc5d762022061b421d98b222d5c2158622ccdb3339d35ff5aa9832511c5ad941ce7f419c8b701210269e31c4370a59663c11b4d90a0114d85dec7cc275dcc5d894f1a0fa1ecbd03cfffffffffbcc82015be1774377bdcda54ba609aa8499adf182907df131711c4c1d7d076710a0000006b483045022100cf9f639adab18281303b230d8e995865b334bbbab725edcad8a7d43e2430e3a8022066f9eb0302cfd631c7c4ab1e3b9323f1675497bf2edd31d6453932ad6633e25f01210338787d306e1f808d3b58c58f153b1946e3081e81eed41dcd58137cbabc2611f9ffffffff2bb0622401970534d06e2427d19a3c83bf1975bd3db73d75f4c5b34407606e72000000006b4830450221009ec27f3c2cd26b5679bffc6cd8079795734e471b345ff20a1d87b6d56c53782402206a8ad57a484fa907bb1ec9a61d07a682ac1b7a25b70f63d6ddccff7762bd80fd0121034af7ab3e2561641b1280716a586b9ebdbc651c6b92c495b47b80372a943b5b1cffffffffc410bdd6285f3f9e8d30b5400e6ac73f885acc2b4f52e3bf003db3eb813fc48c000000006a473044022024e02e81df839c4d15e70d839068b708ff6c45b750f0968d773e21c474dec09c0220628e0ad6f9b1fa1d9bfa5d8c46af20b72e6625fc13c30638b303da70100a28ba012103f8a729ec21d61d08d7af2a793920cdbf87699b47a09610e04a8953384ef3cba9ffffffff2a48b197b776b3178b1c8b854be58446b9707ef0067ef662cc3668159acd3498000000006a473044022006a9493c591eb5ef53c6544a4bfb02cd63e08d4abf46f6b0e4e77eca3666c75f022058c623129575a43c78575125004a986b1852605fc154e2bc8057af14e969037801210269e31c4370a59663c11b4d90a0114d85dec7cc275dcc5d894f1a0fa1ecbd03cfffffffffcf339b964db4118337f2bef23574c15a4858d9592b547f2ce0c7e85c000aa8bf000000006a47304402207d1e6d77931242d3b63055b1e7524668f9cf2cc52b5012fdbbc8b55f939c90c8022054055c3aa0a301e7a21e724510cbf1206aac1318652aaa1fe1e6091a130e68d5012102ac76dba5599b4ead9104884ffab38d894fa0a8a49be5124dfbcf13409a588d2affffffffed3b86eef3b7540f00696613b9ba9a41eea185ac8733790ea5ef37cd767abbc0000000006a47304402206b0689191a0a8afa5b527f10da19073720ebec15e3bfeaff1eb1997d9759dc6a022018139167a7965470486cc5f3c1c5d6e5bbfa26190ed4c9f632fc10f6160a8741012102457c1c97b19d30a0f2797943c7847c0098c6348adf4d121f60034a6225a0ca11ffffffffae2a8602c4fdfb7dcaf6207c03db75dafa7ec93a7bdf422860b500d371487fef000000006a47304402205cf46babd416aa97af2d4573108f486194212c6baf7631d238ae4b770eac0d06022063b0fa4b814b832eda272fe52a2ea044105db1ffa1b5d71aa9860eb33b230864012103eddab955177564361929d74055b10712eaef2af25dfd586f6ae24867555194d1ffffffff016d740d000000000017a9147aec7bd5650144fbcf38e93128ab347d1e3f31b98700000000", "vin": [{"sequence": 4294967295, "scriptSig": {"hex": "483045022100cae56e9c3731be9422e6b94754842561587848e2219c8031e0c9533de39c91f9022004c2d709deb697af596175c6673490508a28ec51e076967431f5ed93d739f645012103f854a13a05930e70a3ab8bdc2411e3a655ef5230364b1dce833a6a4b1efebdb2", "asm": "3045022100cae56e9c3731be9422e6b94754842561587848e2219c8031e0c9533de39c91f9022004c2d709deb697af596175c6673490508a28ec51e076967431f5ed93d739f645[ALL] 03f854a13a05930e70a3ab8bdc2411e3a655ef5230364b1dce833a6a4b1efebdb2"}, "vout": 1, "txid": "18b28185be10e8a5ac202f120d9e3b7d245ee7f54e1be295e5328f7cae6f8cc2"}, {"sequence": 4294967295, "scriptSig": {"hex": "483045022100c789621953b7b3b957d8123249751fb3822dd717acac94ff821ee9a56cc5d762022061b421d98b222d5c2158622ccdb3339d35ff5aa9832511c5ad941ce7f419c8b701210269e31c4370a59663c11b4d90a0114d85dec7cc275dcc5d894f1a0fa1ecbd03cf", "asm": "3045022100c789621953b7b3b957d8123249751fb3822dd717acac94ff821ee9a56cc5d762022061b421d98b222d5c2158622ccdb3339d35ff5aa9832511c5ad941ce7f419c8b7[ALL] 0269e31c4370a59663c11b4d90a0114d85dec7cc275dcc5d894f1a0fa1ecbd03cf"}, "vout": 78, "txid": "27586815f9b98fd803c8193b6ae5cc798c87e18b1482f0f760f1273ead51ee0b"}, {"sequence": 4294967295, "scriptSig": {"hex": "483045022100cf9f639adab18281303b230d8e995865b334bbbab725edcad8a7d43e2430e3a8022066f9eb0302cfd631c7c4ab1e3b9323f1675497bf2edd31d6453932ad6633e25f01210338787d306e1f808d3b58c58f153b1946e3081e81eed41dcd58137cbabc2611f9", "asm": "3045022100cf9f639adab18281303b230d8e995865b334bbbab725edcad8a7d43e2430e3a8022066f9eb0302cfd631c7c4ab1e3b9323f1675497bf2edd31d6453932ad6633e25f[ALL] 0338787d306e1f808d3b58c58f153b1946e3081e81eed41dcd58137cbabc2611f9"}, "vout": 10, "txid": "7176d0d7c1c4111713df072918df9a49a89a60ba54dadc7b377417be1520c8bc"}, {"sequence": 4294967295, "scriptSig": {"hex": "4830450221009ec27f3c2cd26b5679bffc6cd8079795734e471b345ff20a1d87b6d56c53782402206a8ad57a484fa907bb1ec9a61d07a682ac1b7a25b70f63d6ddccff7762bd80fd0121034af7ab3e2561641b1280716a586b9ebdbc651c6b92c495b47b80372a943b5b1c", "asm": "30450221009ec27f3c2cd26b5679bffc6cd8079795734e471b345ff20a1d87b6d56c53782402206a8ad57a484fa907bb1ec9a61d07a682ac1b7a25b70f63d6ddccff7762bd80fd[ALL] 034af7ab3e2561641b1280716a586b9ebdbc651c6b92c495b47b80372a943b5b1c"}, "vout": 0, "txid": "726e600744b3c5f4753db73dbd7519bf833c9ad127246ed0340597012462b02b"}, {"sequence": 4294967295, "scriptSig": {"hex": "473044022024e02e81df839c4d15e70d839068b708ff6c45b750f0968d773e21c474dec09c0220628e0ad6f9b1fa1d9bfa5d8c46af20b72e6625fc13c30638b303da70100a28ba012103f8a729ec21d61d08d7af2a793920cdbf87699b47a09610e04a8953384ef3cba9", "asm": "3044022024e02e81df839c4d15e70d839068b708ff6c45b750f0968d773e21c474dec09c0220628e0ad6f9b1fa1d9bfa5d8c46af20b72e6625fc13c30638b303da70100a28ba[ALL] 03f8a729ec21d61d08d7af2a793920cdbf87699b47a09610e04a8953384ef3cba9"}, "vout": 0, "txid": "8cc43f81ebb33d00bfe3524f2bcc5a883fc76a0e40b5308d9e3f5f28d6bd10c4"}, {"sequence": 4294967295, "scriptSig": {"hex": "473044022006a9493c591eb5ef53c6544a4bfb02cd63e08d4abf46f6b0e4e77eca3666c75f022058c623129575a43c78575125004a986b1852605fc154e2bc8057af14e969037801210269e31c4370a59663c11b4d90a0114d85dec7cc275dcc5d894f1a0fa1ecbd03cf", "asm": "3044022006a9493c591eb5ef53c6544a4bfb02cd63e08d4abf46f6b0e4e77eca3666c75f022058c623129575a43c78575125004a986b1852605fc154e2bc8057af14e9690378[ALL] 0269e31c4370a59663c11b4d90a0114d85dec7cc275dcc5d894f1a0fa1ecbd03cf"}, "vout": 0, "txid": "9834cd9a156836cc62f67e06f07e70b94684e54b858b1c8b17b376b797b1482a"}, {"sequence": 4294967295, "scriptSig": {"hex": "47304402207d1e6d77931242d3b63055b1e7524668f9cf2cc52b5012fdbbc8b55f939c90c8022054055c3aa0a301e7a21e724510cbf1206aac1318652aaa1fe1e6091a130e68d5012102ac76dba5599b4ead9104884ffab38d894fa0a8a49be5124dfbcf13409a588d2a", "asm": "304402207d1e6d77931242d3b63055b1e7524668f9cf2cc52b5012fdbbc8b55f939c90c8022054055c3aa0a301e7a21e724510cbf1206aac1318652aaa1fe1e6091a130e68d5[ALL] 02ac76dba5599b4ead9104884ffab38d894fa0a8a49be5124dfbcf13409a588d2a"}, "vout": 0, "txid": "bfa80a005ce8c7e02c7f542b59d958485ac17435f2bef2378311b44d969b33cf"}, {"sequence": 4294967295, "scriptSig": {"hex": "47304402206b0689191a0a8afa5b527f10da19073720ebec15e3bfeaff1eb1997d9759dc6a022018139167a7965470486cc5f3c1c5d6e5bbfa26190ed4c9f632fc10f6160a8741012102457c1c97b19d30a0f2797943c7847c0098c6348adf4d121f60034a6225a0ca11", "asm": "304402206b0689191a0a8afa5b527f10da19073720ebec15e3bfeaff1eb1997d9759dc6a022018139167a7965470486cc5f3c1c5d6e5bbfa26190ed4c9f632fc10f6160a8741[ALL] 02457c1c97b19d30a0f2797943c7847c0098c6348adf4d121f60034a6225a0ca11"}, "vout": 0, "txid": "c0bb7a76cd37efa50e793387ac85a1ee419abab9136669000f54b7f3ee863bed"}, {"sequence": 4294967295, "scriptSig": {"hex": "47304402205cf46babd416aa97af2d4573108f486194212c6baf7631d238ae4b770eac0d06022063b0fa4b814b832eda272fe52a2ea044105db1ffa1b5d71aa9860eb33b230864012103eddab955177564361929d74055b10712eaef2af25dfd586f6ae24867555194d1", "asm": "304402205cf46babd416aa97af2d4573108f486194212c6baf7631d238ae4b770eac0d06022063b0fa4b814b832eda272fe52a2ea044105db1ffa1b5d71aa9860eb33b230864[ALL] 03eddab955177564361929d74055b10712eaef2af25dfd586f6ae24867555194d1"}, "vout": 0, "txid": "ef7f4871d300b5602842df7b3ac97efada75db037c20f6ca7dfbfdc402862aae"}], "txid": "34368e559a66713524a5c851fb4f442d934202416eac8c59f6882b58f0e515d2", "blocktime": 1537870928, "version": 1, "confirmations": 11512, "time": 1537870928, "locktime": 0, "vsize": 1369, "size": 1369}