{"hash": "343937dbcd32a41618b358add1b527a76bde883fafd526c99aa6275dfe0b01da", "blockhash": "0000000000000000000e13cef7c366c0283d82e591d1acd082e914b08063cdf1", "vout": [{"scriptPubKey": {"reqSigs": 1, "hex": "76a914fc37c99ab42af23c39244a0c7a29ab6236dc43c788ac", "addresses": ["1Pzc7XW6TVKDQJL2j1Wbid3ZNh5fSw15rL"], "asm": "OP_DUP OP_HASH160 fc37c99ab42af23c39244a0c7a29ab6236dc43c7 OP_EQUALVERIFY OP_CHECKSIG", "type": "pubkeyhash"}, "value": 0.00228866, "n": 0}, {"scriptPubKey": {"reqSigs": 1, "hex": "a914da3b8309ebe01b35a9cc277cc1674a5922bd8a8187", "addresses": ["3MavXKWn4tq9tmoRNcdp9dZtG361X3eYX3"], "asm": "OP_HASH160 da3b8309ebe01b35a9cc277cc1674a5922bd8a81 OP_EQUAL", "type": "scripthash"}, "value": 0.002375, "n": 1}], "hex": "010000000185ae6724eccbc0379faff8649e98e42f571b4085e0d138a1a8c37b355415b074000000006a473044022077c0c4adbe57f989f8040bb2d7f7c3ac28e58f512fce757c16bf44663b13c45602200e4a7ac40f33d462dcec58bdc6e3caa13d33424f180fb8bb0f30e16a983530c30121038a41a4fa2274e8bd3e558bf5bc4d3a3c9279a46df9ae419a55e1cd4cfb7fabe7ffffffff02027e0300000000001976a914fc37c99ab42af23c39244a0c7a29ab6236dc43c788acbc9f03000000000017a914da3b8309ebe01b35a9cc277cc1674a5922bd8a818700000000", "vin": [{"sequence": 4294967295, "scriptSig": {"hex": "473044022077c0c4adbe57f989f8040bb2d7f7c3ac28e58f512fce757c16bf44663b13c45602200e4a7ac40f33d462dcec58bdc6e3caa13d33424f180fb8bb0f30e16a983530c30121038a41a4fa2274e8bd3e558bf5bc4d3a3c9279a46df9ae419a55e1cd4cfb7fabe7", "asm": "3044022077c0c4adbe57f989f8040bb2d7f7c3ac28e58f512fce757c16bf44663b13c45602200e4a7ac40f33d462dcec58bdc6e3caa13d33424f180fb8bb0f30e16a983530c3[ALL] 038a41a4fa2274e8bd3e558bf5bc4d3a3c9279a46df9ae419a55e1cd4cfb7fabe7"}, "vout": 0, "txid": "74b01554357bc3a8a138d1e085401b572fe4989e64f8af9f37c0cbec2467ae85"}], "txid": "343937dbcd32a41618b358add1b527a76bde883fafd526c99aa6275dfe0b01da", "blocktime": 1537871767, "version": 1, "confirmations": 11493, "time": 1537871767, "locktime": 0, "vsize": 223, "size": 223}