{"hash": "343960b2298e593b7de3e0ded905dc86ed7fd25d979f7c345bfc64e07be456ad", "blockhash": "0000000000000000000dcc0f55137456b1a82d3642486a52398922ac4d620174", "vout": [{"scriptPubKey": {"reqSigs": 1, "hex": "76a91427c3ae520c3a1b9a1335c2a1f79f2cc1e382c7eb88ac", "addresses": ["14dFmdd5ooQsMjupKiz7bWH2ocDhRJQqJj"], "asm": "OP_DUP OP_HASH160 27c3ae520c3a1b9a1335c2a1f79f2cc1e382c7eb OP_EQUALVERIFY OP_CHECKSIG", "type": "pubkeyhash"}, "value": 0.10853118, "n": 0}, {"scriptPubKey": {"reqSigs": 1, "hex": "76a9143d19afbfccc0ce64d9b342f6fb843fcc2d84ad6b88ac", "addresses": ["16a4zS5XaDa1RQcurqXXiKzs2FuBVRhgap"], "asm": "OP_DUP OP_HASH160 3d19afbfccc0ce64d9b342f6fb843fcc2d84ad6b OP_EQUALVERIFY OP_CHECKSIG", "type": "pubkeyhash"}, "value": 0.13170845, "n": 1}], "hex": "01000000010db0e8fd7cb211fc8cd8750582033c617c610eabdd05ab3e3b1e785c7e7ecd43010000006a47304402201ee3e6bde10d0909840a8b9765e93cf05a20091614e2bc74ffffd2a70f58a71902203d81839cb30f7f4c45b6293dbc989f0476f27da43c3b49b3ec3a51581045ab3901210325b77b55933ae31067bcb216f5934341364e33aa5a25daeca7aa2e2350244848ffffffff02fe9aa500000000001976a91427c3ae520c3a1b9a1335c2a1f79f2cc1e382c7eb88ac9df8c800000000001976a9143d19afbfccc0ce64d9b342f6fb843fcc2d84ad6b88ac00000000", "vin": [{"sequence": 4294967295, "scriptSig": {"hex": "47304402201ee3e6bde10d0909840a8b9765e93cf05a20091614e2bc74ffffd2a70f58a71902203d81839cb30f7f4c45b6293dbc989f0476f27da43c3b49b3ec3a51581045ab3901210325b77b55933ae31067bcb216f5934341364e33aa5a25daeca7aa2e2350244848", "asm": "304402201ee3e6bde10d0909840a8b9765e93cf05a20091614e2bc74ffffd2a70f58a71902203d81839cb30f7f4c45b6293dbc989f0476f27da43c3b49b3ec3a51581045ab39[ALL] 0325b77b55933ae31067bcb216f5934341364e33aa5a25daeca7aa2e2350244848"}, "vout": 1, "txid": "43cd7e7e5c781e3b3eab05ddab0e617c613c03820575d88cfc11b27cfde8b00d"}], "txid": "343960b2298e593b7de3e0ded905dc86ed7fd25d979f7c345bfc64e07be456ad", "blocktime": 1537870268, "version": 1, "confirmations": 11518, "time": 1537870268, "locktime": 0, "vsize": 225, "size": 225}