{"hash": "3b86a1c92613061e918eb1de5207345859ef68df4fbd8aeb9ce9d80ab95c91f3", "blockhash": "0000000000000000001e0dab787dd257d1dbfcb92a98c2207d5e1078be1f4165", "vout": [{"scriptPubKey": {"reqSigs": 1, "hex": "a914427ddd2beeb1876c55bb70f4fcf55c2eef6d024987", "addresses": ["37kbJPJB7RUCSV5kPrSEwyeQfTvST5A3A6"], "asm": "OP_HASH160 427ddd2beeb1876c55bb70f4fcf55c2eef6d0249 OP_EQUAL", "type": "scripthash"}, "value": 0.00026579, "n": 0}, {"scriptPubKey": {"reqSigs": 1, "hex": "a914453b40468a04b06913a3ca3705ca9a886b72dfec87", "addresses": ["3815XcjsiBQpRApj7UmXXD1uZzXQj3oUBt"], "asm": "OP_HASH160 453b40468a04b06913a3ca3705ca9a886b72dfec OP_EQUAL", "type": "scripthash"}, "value": 0.03200679, "n": 1}, {"scriptPubKey": {"reqSigs": 1, "hex": "a914a93bf3623641d78b3278dae42ae2b6322cce032887", "addresses": ["3H7qwQr6DH6o7VsPAukTFz1VEfiLq49kvD"], "asm": "OP_HASH160 a93bf3623641d78b3278dae42ae2b6322cce0328 OP_EQUAL", "type": "scripthash"}, "value": 0.10631778, "n": 2}], "hex": "01000000000118b2d924308af7a2c866da84bddb5abf8506cd35c787bcde69525ec96f9cd9cbc201000000232200202a567064780c3b9ff920580268bab644511b6e8708e27f4b83bb86d3989646faffffffff4e232763873e86aeaff67d5b9b3eac3e40f1208e65620605eb7fc2fb5cd3af3e00000000232200208820cbb1666a0597ea1d281f5e0a5471b7b515ffe71b0fc0928234115c4a78deffffffff9dca94fc3ae912b19c517799720334d88b26ff12ddf1e97266bcf907cf880cfa01000000232200207c2b64c73fa64903029f0a3e601eac0e31b93ae79ff63658170f0157c382f9bdfffffffff3c2326baf34f8533c052f2e3d414ec6bd53c763537cade3d2ffc844c2e0ab200000000023220020890b1510f07a1c6e7ce6c2563117909366a0ed1429d7fa15bf304829e7c3759bfffffffff3487ad167ea327183ca3e6f34ce7a9e5087711d6779925dc086acfd96422913000000002322002095ff9e3f75b22532a1e43d97d155bb6b0a4d0fbc06bb16a5627e04fce3724ea0fffffffff45cbeb3b83a0711c2779e01a4a032a8bece1dd4acbdc5fe5a67aca42e285204000000002322002016f9a43e6e229a1c1d2e94f59047fcaf28492a36afd5d9304160d5db3b1bb5f9ffffffffb473905717b26cd5daf05b2a8ccbe58faf010145c5cb5d16fc20dbc4166093650100000023220020271b3582b2964e25be183dc87a6692067c7366ab2299852dac3c4e204536e2fdffffffff4193e9bea82d226547c3cf7bac47fef0a60f112c6f68614741a8eec193d8b3800000000023220020ca207a7d3f040e62bc6ffb7240af2fabafbed247239b0d82393244b7e8aa42e7fffffffff30ea7a1a29d3971ee471b7466b2ee721112414c18c17f948ce948ac444114500100000023220020d21a73ceb1a7b43471876bb9e88ec1d88589b3708a3a946b6500dbf0bb79fde5ffffffff28b67446c220ba5d4e76be88633c04512f224ba17f1029de6dc4d63898ba9c400000000023220020afb9dfcb04d09a17a421588c0b2482c9a835a3531e8c01ac09fa832f6d6248c7ffffffff2c5b15b34e515ef6e5d9692390e52209bb5e6213342863f20fac5a7eaeeb72d0010000002322002015fa9df2d48dd8bf3759067fb0295560ad55b097eaf212d829e321e33c37cba4ffffffff4e6737479d0a5a2fd600d620aa3f1085901802903ec687d2bf7316e94b3f13c9010000002322002095ff9e3f75b22532a1e43d97d155bb6b0a4d0fbc06bb16a5627e04fce3724ea0ffffffffbd127e492493033ceccfe4edd5ca40cfd8167651d04a5cc1444213d2b5117a820100000023220020b1bc9311e9ec54b236b089a438632ddefdd5c182668d36f82a98f98a0c341d5dffffffffb00a55cf5042bf74aba2f413be2f66498f278c16640e2289292343da37fdbbd0000000002322002036591e312f7012cc3b67388e19afe72d32cc0d897ff59bba9d3963211370a6f9fffffffff178bc33c7797f731657e0975365bbf9cd0f5daed8e91566457b6f3516d7395d010000002322002068cf67f1b720329d22b47cd43f6c287b388a426e49ae3793e4ce23239b7d954fffffffff4e8b03b5772d1967fc5e0e78a9b18fdcd8ba9e201e9e9e8b44a3a3484db0e0fc0100000023220020c1ed17652c6f3003e92553008eb731f1449e0fdaa3ba3b30defb6e9d5adfe02ffffffffff6e6bdbafcc7d556f5373a2999ccffbdf0f3c243d1e436087f4f73e9bc15298600000000232200201b72f9eb4df6d5759421910367d7faceedc88239f65b794b6051812431647bf7ffffffff8786b3d177e8a8070d8a164f9c31ff2577a4a6e8e1e9f013a719272c1d3f6ddc0000000023220020b49a855be0f167e2fbfe0c8f2389e277c4734abb62e86339789967d5269b2638ffffffff1d9756ba96250ba6dd981f2a94c0d97fb102851a16f8d1262d9f757326f6e27502000000232200200d3c1f75993d22fe7fabf564f7d13adc4efa31e53966f61189bfa952515d3572ffffffff82ecf719eb1809a20e6d0ea908ec9e92a28d3e6ce47ba5d3d213b6adeaade70e010000002322002095ff9e3f75b22532a1e43d97d155bb6b0a4d0fbc06bb16a5627e04fce3724ea0ffffffff70b968b45b7f58e59263afd9a32c0b77dfd295fdc3c19fe2900df4aa4a24955100000000232200203aab81aa3f6f0eb5f530426e0ed434612f8eec1c39b98d98bf6fa877d181f4b6ffffffff1d1fd3af11a09b3587f0822b7b7408f5bf3a6cbbda68981bd4f9c967a1466a8600000000232200206325efc93800e9b30f639c183893081f835dc9913586e5d5eaebbddbcee31403fffffffff92fb3025fd23b0da23776bf12f73f29c4a3969f6e387cae2853d466375abbd70100000023220020393272132c4e81a1afb51f4e92bbb7752a52fe5b3f5b43765894c24bdb0caaabffffffff6cf6408ab2f190c47bb34d6e4655d824fe2223d82bf36d94676f3d21393290400000000023220020bfc78c597ef580fd381a9dffe1ae798ddb9cfc02419fdf543ad7c58b47c884dbffffffff03d36700000000000017a914427ddd2beeb1876c55bb70f4fcf55c2eef6d024987a7d630000000000017a914453b40468a04b06913a3ca3705ca9a886b72dfec87623aa2000000000017a914a93bf3623641d78b3278dae42ae2b6322cce0328870400473044022024893801270f107cbae539cfd3ced15459f106ced60bf8aed1eb59028aae3bd7022028965666ad96766a0e33f1df2b3ddd71c9364d9db96af935dbb7f4079b873c5701483045022100caea8318dc9fb35c36c2943d3011074dd777a5b2887af4d39da772612ad244b202204ce70eb5053cc5135c0fbd5e57753b9b36915e88f01b6cae0cd1962f577166390169522102f178620419472c94b799d021c6848ee540370a5603c5be855d20f50d89199305210226b88d23d9efaaf3b258c70ea3f6ed5ed89b8c6e003397be039238f0a2bb82882102951fd92eea58d6661944eab6558804c58562b85730c3486e3608a549a8c4038b53ae0400483045022100f7f9c08e994b1420be84ad8ef7b11886810a262d1e59da062ab5d229c336d94f02207a7a30852aee3efcc40e01a90c88c42471d8bb2663ddaf82634fdae4b1c804da014730440220719c0d8b578b6b446a5bede88491670ad50f34aa89d5372cda0a6ccc124ee1550220159b234024b46b49cb683524b6c2087f57c3e84c6531ed73ca48f8f879b6c3b1016952210284578a979b429d934ab263d31113d28f29f802f47000eda275177b76adfbd7d2210299187b9578d636ce4c8617673c244000cf7744cd6c06a59680da53938c4d7a492103ee534c51b98d3266307841cbf3ca6022753d5ab3949ed0487a5e57551c2d678a53ae0400483045022100aec893640564b1090567213247792592237329466712bec17b116613b28153d302201923851dc899b7cacb1a73377d7a99a696518c9850d2d53b8420cdd38ee55fb401483045022100bfc4d28c26ba15670b850eeeb02eae94bdffefb8ad36e846ee524e051b036c6d0220477026d4555aa3d4667dc0c0dcbcde172e71469c20b00a2164afd82d28cf61db0169522103bb26ecf9cd375ff732fef0b60ce7f39b29afa3409d26169706787d8c3056147e2103b79b41fa2ab998ee0385f9cdef1c20a8575b922ba4fde359a890555246e6d5762102e33519fc82a5e39ddc82275616447c08a569e92127a2c04ec8825ccbf066366553ae0400473044022076d499541e4406881b84cbb8bce7365e7d63dae4bd43e0ba46b3dde63ad0c0300220125dc1ec65a6d7b82e361be00fd4ae218dc89e7ea06d1a4fda1c72c8c4a43e6a01483045022100d262ed6bca0a485d1a0dbbd50b50cda6a7839e8b7ae282cb795d21ee17e7a7ab022074ad88d6ec70ffec9aa463c502501982acaf8cc96091784dde05218b4db9bb3d01695221021df8aeda03549c5a0feb85123fa97d3b6df643c4ed0c5a5c9a8d6ef3397be3b1210305abe43bb4626137351e093ec902a3ac6803684394f905553fda5d1204f99161210256ddefe776c51e550b1fcf710735e037674987de1aa8a3af5bcf806cbfedfdb653ae04004730440220301004ad7b102ca599f5ac74f0cff69d0e2d9f2e826816c4944c9e06cd0df6a0022021b80f44e6fbf257f8ba7f7f0d5bf0913319db6bb78256a775f5befe8b19b79f0147304402207cf0c4d5a1333ac312c4edb658f906373e27afaf801f0fed285e9589d5f778cf0220343c3d103caefc23e4df5c622227d80fb90f151c357317d8fec998f525f5e89f016952210213702e37e8c417a32dfdec2396e8fe2a2e36c4cbb50b9e545b1e5eb3d612966e2102767ba4cc21d42a0cd7d0418b275c88dc3e816f8a327b80ad0eed769476ccfdc721024eed43648b5feaaa2060bedb48aa4d1b6b69bc6b1182670e808c93f50f04bf5c53ae0400483045022100b39f86207e8ee03c50e865624cd8d721894f07548114205c2b5af0b7c88d7bcc022023276fd139e8dcd1d586558d0dd004ae7325d469f2a47271ed7fa395508d3cf30148304502210080be1e6efdef63b89431668ca566bf2bb757b8cf1139f00b6139b2112dfff93e02203cb2cc79a6c690bc70a622326a02b1e4e4646a6aabbc0ddf48ac55c910db874401695221026acd3115f4a0fe34a121f455912601457af24a89612e58e58d1dd740df040a372102784364e99957770ddc26e890581fe2fcdb2f364165d093bfd82e423c2efc398d21026eb9fb287084b3a2f2ad31d16b7a46ef0f91e4185d2fc161c30874c3bee6e2c253ae040047304402207dc1bbe77d650cc915f817171dc0473ae96777dc84e84f33ae8748b442a414c102203adfdae4b352a66b6852ab93df2e94d242606cff6b793005d51129f1160a00250147304402203fd656b9ad56fe52bccfa3764581358253545fa3d40220f6b012e8860a7a937402201aa29be5f9042bfaeb43ac9f52f9e57a6eb6e91167febb99b6ae2cc4273a18ce0169522102e3480d21175636cece7fd5fe4afa80539472ea752af2c374eaa5e947617cb48e21027a51d64c93f7fc9088020fbe20e05b06194a46d409549bd861063809d117a9a12103f186acdade75321bc63876666516c8128b254b3b7be3867e7629addf2e27162c53ae040047304402200ddecb2a6689d6f88da204ff025a7a3630d318a785c9e23ee2ac8e591f9562eb02205061262c234bc78faa714d3dca851c9d4c9ea8090d04f65541636335fa4cdeb301473044022051d00709d05fa3ce04bcafc269c1c6f9f50c6b48dae28b5a1d180f9d39f657700220281203fd9de39b0fcebaab0d4ad3b602d233f5c0727f7bfc94a5c7da2e77b969016952210372962a430302525e297a0ccb8412a7d26ec181b05cdfac4c59145166f0a9c3a32103f381bd543c80af4e60117e1ab3be074a40ca5c3eda652db0f5f42bfe1a24e5f22103b479fc6a41f3717bebe7a7de28eb61529657d73f85cd895fef07fe0823efb40653ae04004730440220749396db4430fdf9356cf5fdb792fc557df5bd49ccc07e4176c30cdb3b87875402202f5d95ea606b14e95ba0e8621dc6cb0bdcc46650c133950358da9ad46dae36dd01483045022100a6401a052d19f70fbb5432b878ffae83be38a61c51a24d0d67f436d409e65cb502203f9b9b603f091d9a149939c7661aa6a1bb83029e1f18fa0b08c17a846ea916bd0169522103127b12bca1cb5000ff6f5890140885f139535bab702230cb8dd72d9121ca040d2103667bbe65bc86c860252b7e65fb13a4f7f79b755c67e3d57fad01b6c144787af32103f623dfe67a1ea5511610ddcfc340b0a31a96f88e645aa6bfae7e4afd0f77fb6453ae040047304402205c061e5a8b6760c076cfa0353275cc5627fd6645a1ac95fe500fdc9310285823022001b7e84aeec0cdf3956876817f250ec359125b158bf409d91530eab34e7e0056014730440220024b450e18f72dcdf30417f2f2722d50726695147ef6306d547a349b2a44bb05022042efedf03cd62ce937ecbf166f0557dd08ffb26f815262bcd844a4b9afdbefe401695221025455c95d08f4aa4ae73aa1b2f9ccb9ce34c64bfb298ceff62249decd02f96ee92102a036cae84df34f518a9fa8057ef7577c7f6dd55924f25f2654711d66c20153162103c4bdf36bd7e94eb2e9fde79689d8887da2328722c7a4c39ecce25ae67fd52a9453ae040047304402201c825610a308317697e4438904a92311fd42a6afef8fc9fcd939593073218ce10220406dfcf55ef2b3aaa4deb50bdae07bc92a682097a9357d283502e489d8ae332301483045022100e9586e29930e7f38e74b062edef9d7ee8632551006e223efc5022579845364eb022048f91ad7b9a2a33ae04fd0817a80586ad5230e5334f5a3975554c809aa46228801695221035a775dcb8a5179c62da9ba6af024b0b53c9db9aa74caf5d58888e8f1c129a8e321023c859a06b5104228c668e293156c902821f2d6ba98703e82df8ccdb0c29161eb21025d21b07aa13f8d5ad506da28e545f55a950b5df48edc17c941d8fcac353267a253ae04004730440220693d988901b8ad90da05e1b764a1231a05a5b6aa2c38342e732d244caf0c4add0220076c26658e523b50972efa89292aa80cabb64cd2570ab32ccc9adb76938b0c0201473044022072917ac90d78d45e5e09578ad835da7867cd171c41e0e63b93e81ad0855f57110220320409b6e0783be95b9ca22e9f3566d9635819014bcf17d67fb4899b90f8f7f4016952210213702e37e8c417a32dfdec2396e8fe2a2e36c4cbb50b9e545b1e5eb3d612966e2102767ba4cc21d42a0cd7d0418b275c88dc3e816f8a327b80ad0eed769476ccfdc721024eed43648b5feaaa2060bedb48aa4d1b6b69bc6b1182670e808c93f50f04bf5c53ae0400483045022100e80bba88061488582fa6df2d69a2b07015d08131bfa2d1844300901943103c5002207c6e2af1c425befc0069ff68b9f7ee54961b77145a73fce6cd1583782a52c4b80147304402200260ae17ac154834bf6ac6a34bb120b827d6f73138dd4f27f637e3ca759fd0b902203c5ac920956987220264edb4923838d35906bb78d4a0a89d99bcd93a353b868f01695221027903147633a603b320525419737ad41b4daad168612ff217242307993d2ad7c021032714f026e563e3b2a1d0e017d1346296d7c852f01059eebbfbb0994f6d484804210239befa1a6c97b23e61d2cac92afee598c47b798519ba2cd600dde03be6a5eb9053ae04004730440220748e1ec5e777e475d73590e9525ae36c43568d3747bc67e35e2244898d23c66e02201cf6f3a9b4c62a1d07dbbb28b10b0a9fbe461309fb6ee83dc511b7951779acd601483045022100b058fdf235be7009976b39a8f2ea66511de5fba45d77b12f66db6cf102cbc5cd02203cfc7d5e50d3544d605313d50888104cd31bf4cedfa0cdd11a1a0d5f4f18e8c501695221031a6fde7ac09478360edba8bab9bdbff1be7f33bf25dd0dbd86a20658632cb0c821027cfe87cd83833db1f97ab87a4e2f2d82d78ad016a00c78c0fdf365dd254674c721021033f40556ed597fe318ed89d15e5a5516ad16125a73e679a6441ae3bcebb25253ae0400473044022003071a047024ecf7b256bd03b60f95e26357682921295708edde0be3a0d380b7022069f0fbca8187a4bfbb39e47c5b61b2111d31ea3b020d4166b54dcb553434e26d01473044022078c40c9cc87466a2e4256723b48586b4f437576c2aacc9baf16747ace112b15202207acea39e75d4988ca09664c3f5629038d87b822a6dc007627645fbdbd3b7605801695221020f665a28473cd50fcf50fcde6a93f0f4a1b0eca0fc79289ad89ea617c1c2c8b92102290dcb3eaea35d6f149ab6051ffecc20eca38060e4bfea4f29ae08a0ebefcac521029e01ff7744753cd782a473bb9d67dcbfd677e33f3056d2bef40e68340ed299b453ae0400473044022032fd2e20207abe59015e82e7d1efdc8d3f4b2ad56ccb05ce08222cd3fcc543ae022049c3f6ddd416519a252b5c0a9ff1d0f833cfaef740d67ff005fbc51babdc3750014830450221009b3fc6ecf7907b6c7ea2e63aceaae00d80eab159895c50966de633726b10484102201042744e3b3b64d779cdfcf1baa8d04cb2cf24ffefbefce1601328fd33bdfa200169522102bdc87acd9f3b5cdb310fc59fff8dc4961219200b8b1d482838d99b2e3c2bd48b21020937f85cf7f643d0bd85b4f9d516da52725a67dbdd5719a07e3c03734df5ea1b2103645bc3574d2a41ec296ca166f45f8aeec237c99d289660b29d206fbe16b39b9e53ae0400483045022100d474d0f3e09c78535e3f3ca594da8aeec8d32976d390c9330e819b3d2e35a5f802202f07752ffc6fcd470147c5acfdeae488ad23bc642cd9f2291aa49802bbe998a30147304402205d80b897bf7eb880ebbd803dffcb7af2960397d481402625f484e8a2c5cfeec502204e7d3068cd85f0f57e496732df68170414df001a6f15d9973e691acdcd3d4b870169522103f2f11d037cc862856881833dc3bca49742a1ddc2adf1257fb753aae372acdb6f2103cbdc9c3d1245214d6bccb5c4b70ffd4f3f3195560acae954b3a52d0e1d01ed5c2102fc46e7a54c2a49b05afe62cfb112c20823ba866ebdebb268ab9a883af5c5faf953ae040047304402204bd229a15a370c546605a87d01e12227dca5a61d5616ecb7e41baea157cb146d02202662b6fefce04b7d4febd0c71097adb7035e3c7d5b9d83e69ceec1ce424a05c001473044022065d01f72befe87cbf00b07b1aa382eb8b095f51c3fdee8f6207cc687424014c802207bf06c0561600bf72879b206d98ee15427dea0df7045fd917d24b4d4154c991501695221028360948cf6f728f483669d0af77e4e1c2744a399a0d7327fac742a0d65c8ab882102c51a79c409a1717029e1a8e89d0e3255f1c2eca2dfb3d3a38d6cbb1eef4b400f210219f22ae2c362da12430ce28a0522c0fa0f8a1b01ddb009797ae3e3902638cadc53ae0400473044022029f04628acd229f48f75b40e9f416afdf25d2640f3a55d7ece4cd74e6157c7580220479520963b606dcc75a0537178bb693659d6ab9b9bb44ae475882c7ed22dd039014830450221008496a87a059b3b3e6f27edd47e46ab36e2bd20a067c4fdd15c39f9c3e810a2de0220526ce5c28bc001a7b2dd3f2b8682f3b14f685361baaae03c4e42065ed6e200fe0169522103ed3bfdbcca79d225d13053ac8d4ceee2cba4e8c21d763c9675ee1e0849ad9310210304e17f3852c2829a81c3c4993b58f2ef87ae3de40ab0b44d56d7dc35126ea2f12103bb631b77be727f7b9c8f4e082d16ee52a975ff01592ab89dbff34938ce59f10353ae0400483045022100ecdce32a045d9755bca5c7ad4ea107c5908d3b79f41b18b2bf598f4e2c32bc370220227a3c0ddb55d90b3754b1aad9372f9f01e7e962085399bceae4986d18dc748901473044022041ff6ef6341c3596e329a0dfef60842eb9ffb3f51004d448ed8a9d5c4ac132b902200d70a5334fcb1440046396acf556c41a1ea45a1d8bd206901c1d4c77faa01af1016952210213702e37e8c417a32dfdec2396e8fe2a2e36c4cbb50b9e545b1e5eb3d612966e2102767ba4cc21d42a0cd7d0418b275c88dc3e816f8a327b80ad0eed769476ccfdc721024eed43648b5feaaa2060bedb48aa4d1b6b69bc6b1182670e808c93f50f04bf5c53ae040048304502210089aae2f9b786375b7770fb25ca414c2127b476a3fc1342459570495f2fc6e29802205d5cee085179237acd0dbc98c1733d2581ae24c184c34cd94031236f969ca72201473044022042cece354d22ab574f015a85adba91172e28b6fb3bb73c6e51c436a90ad720be022029bacd92896b9e507fd440eda9f33ec6118ea9cadc72fda472b4000b75e2ac250169522102a06b9f38d6db83cb9a30b18b46473f8e51d11fa3b6ab529db0b980eb3dbaec5d21031f22462cc94227bfe8d88d636cb88e80225aa28a99e9dba267ada8504d3dacc12103073cc7fe22abe2476f8e93782b7029a7fafd1718795ec976433f09e600380c4b53ae04004730440220555b1d11337a0a0d54e2071c0d9b2e672ec44968874aee1f9784b206159e3f360220789b822b7b1e3d25c474bc064116bf213c475e41f8e984d3fba012dfa04b4127014730440220113169bba41bde3bdc1c66e742300bdcbf5622006041a9f5137eb828af5edc0e02207fc581f0862daae7e16cddfd5cab3fbc8d2d8a831f9237f4e0a367de86629eb401695221023a64bbc03f16ab0b2050da47b9b1d687bb924b71a394310691c706fdd75417372102e565c14c5d19e9ea6da44c904515369a0b940ccb279f391d762f5bdfb41973902103b0624d12cacad1038518dd06c6b0da119337a5f4291c5411c88c9a6e44a1e90253ae0400473044022032799c4846d4ee3db05bfa318cb64db82dd9e01a4c1112c04be58a9481e3f9a8022050963d5f6b8ec22ec162643af50c5b7ff607da1760fde10cc58db1f6a39c780a01483045022100dd26e4065bc97d0cb95699b7745de27b4e3954f86ce5de49e9c0bbeedbda83110220324df3d5f6c7b5282a8e392bed2cc4f6101dae51008bee37c952b7be6d43774e01695221024c1088e2fac1e8cc154ca80754aaa27ac150cfda30700bf1c84b7bb832665fae2102d1e6a3d0f7e66696ac862ec952ebe5d380fdc70b8143fe2877b75ccc396095cf2102f618c45c14c5fa3506aba62e6f2a03d45101d93653379f14dbec06f16ea2128b53ae0400473044022063b7da72461326e198aa398ab2f7177704bd4ed21e85647a8366d466a874f4b0022049cdc5b8fce05281255d5a7c5a7aa82844e806ed4c69bce42da4dde5401e322a01483045022100bf75cd18cd0b61470cb0f9fe2caebd9637b7593f01066c284ff52b2246ec64a702206eaedb0698b41b6680d8a325308e2451d4d6dd54796d4290b7b0bbfe98feca6e016952210354f8f895e9ad4f55d6d51bf343ecc1cebe7d9190942caa74f0cd209ad7b352a8210371ef022047278c4b108c02d288a23047d20ed3d925f427754ef79d502d848cfa2102644a0230100dede146f30d684b720ae92bc9796d71f29ec3133fbf98fe180cba53ae00000000", "vin": [{"txinwitness": ["", "3044022024893801270f107cbae539cfd3ced15459f106ced60bf8aed1eb59028aae3bd7022028965666ad96766a0e33f1df2b3ddd71c9364d9db96af935dbb7f4079b873c5701", "3045022100caea8318dc9fb35c36c2943d3011074dd777a5b2887af4d39da772612ad244b202204ce70eb5053cc5135c0fbd5e57753b9b36915e88f01b6cae0cd1962f5771663901", "522102f178620419472c94b799d021c6848ee540370a5603c5be855d20f50d89199305210226b88d23d9efaaf3b258c70ea3f6ed5ed89b8c6e003397be039238f0a2bb82882102951fd92eea58d6661944eab6558804c58562b85730c3486e3608a549a8c4038b53ae"], "sequence": 4294967295, "scriptSig": {"hex": "2200202a567064780c3b9ff920580268bab644511b6e8708e27f4b83bb86d3989646fa", "asm": "00202a567064780c3b9ff920580268bab644511b6e8708e27f4b83bb86d3989646fa"}, "vout": 1, "txid": "c2cbd99c6fc95e5269debc87c735cd0685bf5adbbd84da66c8a2f78a3024d9b2"}, {"txinwitness": ["", "3045022100f7f9c08e994b1420be84ad8ef7b11886810a262d1e59da062ab5d229c336d94f02207a7a30852aee3efcc40e01a90c88c42471d8bb2663ddaf82634fdae4b1c804da01", "30440220719c0d8b578b6b446a5bede88491670ad50f34aa89d5372cda0a6ccc124ee1550220159b234024b46b49cb683524b6c2087f57c3e84c6531ed73ca48f8f879b6c3b101", "52210284578a979b429d934ab263d31113d28f29f802f47000eda275177b76adfbd7d2210299187b9578d636ce4c8617673c244000cf7744cd6c06a59680da53938c4d7a492103ee534c51b98d3266307841cbf3ca6022753d5ab3949ed0487a5e57551c2d678a53ae"], "sequence": 4294967295, "scriptSig": {"hex": "2200208820cbb1666a0597ea1d281f5e0a5471b7b515ffe71b0fc0928234115c4a78de", "asm": "00208820cbb1666a0597ea1d281f5e0a5471b7b515ffe71b0fc0928234115c4a78de"}, "vout": 0, "txid": "3eafd35cfbc27feb050662658e20f1403eac3e9b5b7df6afae863e876327234e"}, {"txinwitness": ["", "3045022100aec893640564b1090567213247792592237329466712bec17b116613b28153d302201923851dc899b7cacb1a73377d7a99a696518c9850d2d53b8420cdd38ee55fb401", "3045022100bfc4d28c26ba15670b850eeeb02eae94bdffefb8ad36e846ee524e051b036c6d0220477026d4555aa3d4667dc0c0dcbcde172e71469c20b00a2164afd82d28cf61db01", "522103bb26ecf9cd375ff732fef0b60ce7f39b29afa3409d26169706787d8c3056147e2103b79b41fa2ab998ee0385f9cdef1c20a8575b922ba4fde359a890555246e6d5762102e33519fc82a5e39ddc82275616447c08a569e92127a2c04ec8825ccbf066366553ae"], "sequence": 4294967295, "scriptSig": {"hex": "2200207c2b64c73fa64903029f0a3e601eac0e31b93ae79ff63658170f0157c382f9bd", "asm": "00207c2b64c73fa64903029f0a3e601eac0e31b93ae79ff63658170f0157c382f9bd"}, "vout": 1, "txid": "fa0c88cf07f9bc6672e9f1dd12ff268bd83403729977519cb112e93afc94ca9d"}, {"txinwitness": ["", "3044022076d499541e4406881b84cbb8bce7365e7d63dae4bd43e0ba46b3dde63ad0c0300220125dc1ec65a6d7b82e361be00fd4ae218dc89e7ea06d1a4fda1c72c8c4a43e6a01", "3045022100d262ed6bca0a485d1a0dbbd50b50cda6a7839e8b7ae282cb795d21ee17e7a7ab022074ad88d6ec70ffec9aa463c502501982acaf8cc96091784dde05218b4db9bb3d01", "5221021df8aeda03549c5a0feb85123fa97d3b6df643c4ed0c5a5c9a8d6ef3397be3b1210305abe43bb4626137351e093ec902a3ac6803684394f905553fda5d1204f99161210256ddefe776c51e550b1fcf710735e037674987de1aa8a3af5bcf806cbfedfdb653ae"], "sequence": 4294967295, "scriptSig": {"hex": "220020890b1510f07a1c6e7ce6c2563117909366a0ed1429d7fa15bf304829e7c3759b", "asm": "0020890b1510f07a1c6e7ce6c2563117909366a0ed1429d7fa15bf304829e7c3759b"}, "vout": 0, "txid": "20abe0c244c8ffd2e3ad7c5363c753bdc64e413d2e2f053c53f834af6b32c2f3"}, {"txinwitness": ["", "30440220301004ad7b102ca599f5ac74f0cff69d0e2d9f2e826816c4944c9e06cd0df6a0022021b80f44e6fbf257f8ba7f7f0d5bf0913319db6bb78256a775f5befe8b19b79f01", "304402207cf0c4d5a1333ac312c4edb658f906373e27afaf801f0fed285e9589d5f778cf0220343c3d103caefc23e4df5c622227d80fb90f151c357317d8fec998f525f5e89f01", "52210213702e37e8c417a32dfdec2396e8fe2a2e36c4cbb50b9e545b1e5eb3d612966e2102767ba4cc21d42a0cd7d0418b275c88dc3e816f8a327b80ad0eed769476ccfdc721024eed43648b5feaaa2060bedb48aa4d1b6b69bc6b1182670e808c93f50f04bf5c53ae"], "sequence": 4294967295, "scriptSig": {"hex": "22002095ff9e3f75b22532a1e43d97d155bb6b0a4d0fbc06bb16a5627e04fce3724ea0", "asm": "002095ff9e3f75b22532a1e43d97d155bb6b0a4d0fbc06bb16a5627e04fce3724ea0"}, "vout": 0, "txid": "13294296fdac86c05d9279671d7187509e7ace346f3eca837132ea67d17a48f3"}, {"txinwitness": ["", "3045022100b39f86207e8ee03c50e865624cd8d721894f07548114205c2b5af0b7c88d7bcc022023276fd139e8dcd1d586558d0dd004ae7325d469f2a47271ed7fa395508d3cf301", "304502210080be1e6efdef63b89431668ca566bf2bb757b8cf1139f00b6139b2112dfff93e02203cb2cc79a6c690bc70a622326a02b1e4e4646a6aabbc0ddf48ac55c910db874401", "5221026acd3115f4a0fe34a121f455912601457af24a89612e58e58d1dd740df040a372102784364e99957770ddc26e890581fe2fcdb2f364165d093bfd82e423c2efc398d21026eb9fb287084b3a2f2ad31d16b7a46ef0f91e4185d2fc161c30874c3bee6e2c253ae"], "sequence": 4294967295, "scriptSig": {"hex": "22002016f9a43e6e229a1c1d2e94f59047fcaf28492a36afd5d9304160d5db3b1bb5f9", "asm": "002016f9a43e6e229a1c1d2e94f59047fcaf28492a36afd5d9304160d5db3b1bb5f9"}, "vout": 0, "txid": "0452282ea4ac675afec5bdacd41dcebea832a0a4019e77c211073ab8b3be5cf4"}, {"txinwitness": ["", "304402207dc1bbe77d650cc915f817171dc0473ae96777dc84e84f33ae8748b442a414c102203adfdae4b352a66b6852ab93df2e94d242606cff6b793005d51129f1160a002501", "304402203fd656b9ad56fe52bccfa3764581358253545fa3d40220f6b012e8860a7a937402201aa29be5f9042bfaeb43ac9f52f9e57a6eb6e91167febb99b6ae2cc4273a18ce01", "522102e3480d21175636cece7fd5fe4afa80539472ea752af2c374eaa5e947617cb48e21027a51d64c93f7fc9088020fbe20e05b06194a46d409549bd861063809d117a9a12103f186acdade75321bc63876666516c8128b254b3b7be3867e7629addf2e27162c53ae"], "sequence": 4294967295, "scriptSig": {"hex": "220020271b3582b2964e25be183dc87a6692067c7366ab2299852dac3c4e204536e2fd", "asm": "0020271b3582b2964e25be183dc87a6692067c7366ab2299852dac3c4e204536e2fd"}, "vout": 1, "txid": "65936016c4db20fc165dcbc5450101af8fe5cb8c2a5bf0dad56cb217579073b4"}, {"txinwitness": ["", "304402200ddecb2a6689d6f88da204ff025a7a3630d318a785c9e23ee2ac8e591f9562eb02205061262c234bc78faa714d3dca851c9d4c9ea8090d04f65541636335fa4cdeb301", "3044022051d00709d05fa3ce04bcafc269c1c6f9f50c6b48dae28b5a1d180f9d39f657700220281203fd9de39b0fcebaab0d4ad3b602d233f5c0727f7bfc94a5c7da2e77b96901", "52210372962a430302525e297a0ccb8412a7d26ec181b05cdfac4c59145166f0a9c3a32103f381bd543c80af4e60117e1ab3be074a40ca5c3eda652db0f5f42bfe1a24e5f22103b479fc6a41f3717bebe7a7de28eb61529657d73f85cd895fef07fe0823efb40653ae"], "sequence": 4294967295, "scriptSig": {"hex": "220020ca207a7d3f040e62bc6ffb7240af2fabafbed247239b0d82393244b7e8aa42e7", "asm": "0020ca207a7d3f040e62bc6ffb7240af2fabafbed247239b0d82393244b7e8aa42e7"}, "vout": 0, "txid": "80b3d893c1eea8414761686f2c110fa6f0fe47ac7bcfc34765222da8bee99341"}, {"txinwitness": ["", "30440220749396db4430fdf9356cf5fdb792fc557df5bd49ccc07e4176c30cdb3b87875402202f5d95ea606b14e95ba0e8621dc6cb0bdcc46650c133950358da9ad46dae36dd01", "3045022100a6401a052d19f70fbb5432b878ffae83be38a61c51a24d0d67f436d409e65cb502203f9b9b603f091d9a149939c7661aa6a1bb83029e1f18fa0b08c17a846ea916bd01", "522103127b12bca1cb5000ff6f5890140885f139535bab702230cb8dd72d9121ca040d2103667bbe65bc86c860252b7e65fb13a4f7f79b755c67e3d57fad01b6c144787af32103f623dfe67a1ea5511610ddcfc340b0a31a96f88e645aa6bfae7e4afd0f77fb6453ae"], "sequence": 4294967295, "scriptSig": {"hex": "220020d21a73ceb1a7b43471876bb9e88ec1d88589b3708a3a946b6500dbf0bb79fde5", "asm": "0020d21a73ceb1a7b43471876bb9e88ec1d88589b3708a3a946b6500dbf0bb79fde5"}, "vout": 1, "txid": "50144144ac48e98c947fc1184c41121172eeb266741b47ee71399da2a1a70ef3"}, {"txinwitness": ["", "304402205c061e5a8b6760c076cfa0353275cc5627fd6645a1ac95fe500fdc9310285823022001b7e84aeec0cdf3956876817f250ec359125b158bf409d91530eab34e7e005601", "30440220024b450e18f72dcdf30417f2f2722d50726695147ef6306d547a349b2a44bb05022042efedf03cd62ce937ecbf166f0557dd08ffb26f815262bcd844a4b9afdbefe401", "5221025455c95d08f4aa4ae73aa1b2f9ccb9ce34c64bfb298ceff62249decd02f96ee92102a036cae84df34f518a9fa8057ef7577c7f6dd55924f25f2654711d66c20153162103c4bdf36bd7e94eb2e9fde79689d8887da2328722c7a4c39ecce25ae67fd52a9453ae"], "sequence": 4294967295, "scriptSig": {"hex": "220020afb9dfcb04d09a17a421588c0b2482c9a835a3531e8c01ac09fa832f6d6248c7", "asm": "0020afb9dfcb04d09a17a421588c0b2482c9a835a3531e8c01ac09fa832f6d6248c7"}, "vout": 0, "txid": "409cba9838d6c46dde29107fa14b222f51043c6388be764e5dba20c24674b628"}, {"txinwitness": ["", "304402201c825610a308317697e4438904a92311fd42a6afef8fc9fcd939593073218ce10220406dfcf55ef2b3aaa4deb50bdae07bc92a682097a9357d283502e489d8ae332301", "3045022100e9586e29930e7f38e74b062edef9d7ee8632551006e223efc5022579845364eb022048f91ad7b9a2a33ae04fd0817a80586ad5230e5334f5a3975554c809aa46228801", "5221035a775dcb8a5179c62da9ba6af024b0b53c9db9aa74caf5d58888e8f1c129a8e321023c859a06b5104228c668e293156c902821f2d6ba98703e82df8ccdb0c29161eb21025d21b07aa13f8d5ad506da28e545f55a950b5df48edc17c941d8fcac353267a253ae"], "sequence": 4294967295, "scriptSig": {"hex": "22002015fa9df2d48dd8bf3759067fb0295560ad55b097eaf212d829e321e33c37cba4", "asm": "002015fa9df2d48dd8bf3759067fb0295560ad55b097eaf212d829e321e33c37cba4"}, "vout": 1, "txid": "d072ebae7e5aac0ff263283413625ebb0922e5902369d9e5f65e514eb3155b2c"}, {"txinwitness": ["", "30440220693d988901b8ad90da05e1b764a1231a05a5b6aa2c38342e732d244caf0c4add0220076c26658e523b50972efa89292aa80cabb64cd2570ab32ccc9adb76938b0c0201", "3044022072917ac90d78d45e5e09578ad835da7867cd171c41e0e63b93e81ad0855f57110220320409b6e0783be95b9ca22e9f3566d9635819014bcf17d67fb4899b90f8f7f401", "52210213702e37e8c417a32dfdec2396e8fe2a2e36c4cbb50b9e545b1e5eb3d612966e2102767ba4cc21d42a0cd7d0418b275c88dc3e816f8a327b80ad0eed769476ccfdc721024eed43648b5feaaa2060bedb48aa4d1b6b69bc6b1182670e808c93f50f04bf5c53ae"], "sequence": 4294967295, "scriptSig": {"hex": "22002095ff9e3f75b22532a1e43d97d155bb6b0a4d0fbc06bb16a5627e04fce3724ea0", "asm": "002095ff9e3f75b22532a1e43d97d155bb6b0a4d0fbc06bb16a5627e04fce3724ea0"}, "vout": 1, "txid": "c9133f4be91673bfd287c63e9002189085103faa20d600d62f5a0a9d4737674e"}, {"txinwitness": ["", "3045022100e80bba88061488582fa6df2d69a2b07015d08131bfa2d1844300901943103c5002207c6e2af1c425befc0069ff68b9f7ee54961b77145a73fce6cd1583782a52c4b801", "304402200260ae17ac154834bf6ac6a34bb120b827d6f73138dd4f27f637e3ca759fd0b902203c5ac920956987220264edb4923838d35906bb78d4a0a89d99bcd93a353b868f01", "5221027903147633a603b320525419737ad41b4daad168612ff217242307993d2ad7c021032714f026e563e3b2a1d0e017d1346296d7c852f01059eebbfbb0994f6d484804210239befa1a6c97b23e61d2cac92afee598c47b798519ba2cd600dde03be6a5eb9053ae"], "sequence": 4294967295, "scriptSig": {"hex": "220020b1bc9311e9ec54b236b089a438632ddefdd5c182668d36f82a98f98a0c341d5d", "asm": "0020b1bc9311e9ec54b236b089a438632ddefdd5c182668d36f82a98f98a0c341d5d"}, "vout": 1, "txid": "827a11b5d2134244c15c4ad0517616d8cf40cad5ede4cfec3c039324497e12bd"}, {"txinwitness": ["", "30440220748e1ec5e777e475d73590e9525ae36c43568d3747bc67e35e2244898d23c66e02201cf6f3a9b4c62a1d07dbbb28b10b0a9fbe461309fb6ee83dc511b7951779acd601", "3045022100b058fdf235be7009976b39a8f2ea66511de5fba45d77b12f66db6cf102cbc5cd02203cfc7d5e50d3544d605313d50888104cd31bf4cedfa0cdd11a1a0d5f4f18e8c501", "5221031a6fde7ac09478360edba8bab9bdbff1be7f33bf25dd0dbd86a20658632cb0c821027cfe87cd83833db1f97ab87a4e2f2d82d78ad016a00c78c0fdf365dd254674c721021033f40556ed597fe318ed89d15e5a5516ad16125a73e679a6441ae3bcebb25253ae"], "sequence": 4294967295, "scriptSig": {"hex": "22002036591e312f7012cc3b67388e19afe72d32cc0d897ff59bba9d3963211370a6f9", "asm": "002036591e312f7012cc3b67388e19afe72d32cc0d897ff59bba9d3963211370a6f9"}, "vout": 0, "txid": "d0bbfd37da43232989220e64168c278f49662fbe13f4a2ab74bf4250cf550ab0"}, {"txinwitness": ["", "3044022003071a047024ecf7b256bd03b60f95e26357682921295708edde0be3a0d380b7022069f0fbca8187a4bfbb39e47c5b61b2111d31ea3b020d4166b54dcb553434e26d01", "3044022078c40c9cc87466a2e4256723b48586b4f437576c2aacc9baf16747ace112b15202207acea39e75d4988ca09664c3f5629038d87b822a6dc007627645fbdbd3b7605801", "5221020f665a28473cd50fcf50fcde6a93f0f4a1b0eca0fc79289ad89ea617c1c2c8b92102290dcb3eaea35d6f149ab6051ffecc20eca38060e4bfea4f29ae08a0ebefcac521029e01ff7744753cd782a473bb9d67dcbfd677e33f3056d2bef40e68340ed299b453ae"], "sequence": 4294967295, "scriptSig": {"hex": "22002068cf67f1b720329d22b47cd43f6c287b388a426e49ae3793e4ce23239b7d954f", "asm": "002068cf67f1b720329d22b47cd43f6c287b388a426e49ae3793e4ce23239b7d954f"}, "vout": 1, "txid": "5d39d716356f7b456615e9d8ae5d0fcdf9bb655397e05716737f79c733bc78f1"}, {"txinwitness": ["", "3044022032fd2e20207abe59015e82e7d1efdc8d3f4b2ad56ccb05ce08222cd3fcc543ae022049c3f6ddd416519a252b5c0a9ff1d0f833cfaef740d67ff005fbc51babdc375001", "30450221009b3fc6ecf7907b6c7ea2e63aceaae00d80eab159895c50966de633726b10484102201042744e3b3b64d779cdfcf1baa8d04cb2cf24ffefbefce1601328fd33bdfa2001", "522102bdc87acd9f3b5cdb310fc59fff8dc4961219200b8b1d482838d99b2e3c2bd48b21020937f85cf7f643d0bd85b4f9d516da52725a67dbdd5719a07e3c03734df5ea1b2103645bc3574d2a41ec296ca166f45f8aeec237c99d289660b29d206fbe16b39b9e53ae"], "sequence": 4294967295, "scriptSig": {"hex": "220020c1ed17652c6f3003e92553008eb731f1449e0fdaa3ba3b30defb6e9d5adfe02f", "asm": "0020c1ed17652c6f3003e92553008eb731f1449e0fdaa3ba3b30defb6e9d5adfe02f"}, "vout": 1, "txid": "fce0b04d48a3a3448b9e9e1e209ebad8dc8fb1a9780e5efc67192d77b5038b4e"}, {"txinwitness": ["", "3045022100d474d0f3e09c78535e3f3ca594da8aeec8d32976d390c9330e819b3d2e35a5f802202f07752ffc6fcd470147c5acfdeae488ad23bc642cd9f2291aa49802bbe998a301", "304402205d80b897bf7eb880ebbd803dffcb7af2960397d481402625f484e8a2c5cfeec502204e7d3068cd85f0f57e496732df68170414df001a6f15d9973e691acdcd3d4b8701", "522103f2f11d037cc862856881833dc3bca49742a1ddc2adf1257fb753aae372acdb6f2103cbdc9c3d1245214d6bccb5c4b70ffd4f3f3195560acae954b3a52d0e1d01ed5c2102fc46e7a54c2a49b05afe62cfb112c20823ba866ebdebb268ab9a883af5c5faf953ae"], "sequence": 4294967295, "scriptSig": {"hex": "2200201b72f9eb4df6d5759421910367d7faceedc88239f65b794b6051812431647bf7", "asm": "00201b72f9eb4df6d5759421910367d7faceedc88239f65b794b6051812431647bf7"}, "vout": 0, "txid": "862915bce9734f7f0836e4d143c2f3f0bdffcc99293a37f556d5c7fcbabde6f6"}, {"txinwitness": ["", "304402204bd229a15a370c546605a87d01e12227dca5a61d5616ecb7e41baea157cb146d02202662b6fefce04b7d4febd0c71097adb7035e3c7d5b9d83e69ceec1ce424a05c001", "3044022065d01f72befe87cbf00b07b1aa382eb8b095f51c3fdee8f6207cc687424014c802207bf06c0561600bf72879b206d98ee15427dea0df7045fd917d24b4d4154c991501", "5221028360948cf6f728f483669d0af77e4e1c2744a399a0d7327fac742a0d65c8ab882102c51a79c409a1717029e1a8e89d0e3255f1c2eca2dfb3d3a38d6cbb1eef4b400f210219f22ae2c362da12430ce28a0522c0fa0f8a1b01ddb009797ae3e3902638cadc53ae"], "sequence": 4294967295, "scriptSig": {"hex": "220020b49a855be0f167e2fbfe0c8f2389e277c4734abb62e86339789967d5269b2638", "asm": "0020b49a855be0f167e2fbfe0c8f2389e277c4734abb62e86339789967d5269b2638"}, "vout": 0, "txid": "dc6d3f1d2c2719a713f0e9e1e8a6a47725ff319c4f168a0d07a8e877d1b38687"}, {"txinwitness": ["", "3044022029f04628acd229f48f75b40e9f416afdf25d2640f3a55d7ece4cd74e6157c7580220479520963b606dcc75a0537178bb693659d6ab9b9bb44ae475882c7ed22dd03901", "30450221008496a87a059b3b3e6f27edd47e46ab36e2bd20a067c4fdd15c39f9c3e810a2de0220526ce5c28bc001a7b2dd3f2b8682f3b14f685361baaae03c4e42065ed6e200fe01", "522103ed3bfdbcca79d225d13053ac8d4ceee2cba4e8c21d763c9675ee1e0849ad9310210304e17f3852c2829a81c3c4993b58f2ef87ae3de40ab0b44d56d7dc35126ea2f12103bb631b77be727f7b9c8f4e082d16ee52a975ff01592ab89dbff34938ce59f10353ae"], "sequence": 4294967295, "scriptSig": {"hex": "2200200d3c1f75993d22fe7fabf564f7d13adc4efa31e53966f61189bfa952515d3572", "asm": "00200d3c1f75993d22fe7fabf564f7d13adc4efa31e53966f61189bfa952515d3572"}, "vout": 2, "txid": "75e2f62673759f2d26d1f8161a8502b17fd9c0942a1f98dda60b2596ba56971d"}, {"txinwitness": ["", "3045022100ecdce32a045d9755bca5c7ad4ea107c5908d3b79f41b18b2bf598f4e2c32bc370220227a3c0ddb55d90b3754b1aad9372f9f01e7e962085399bceae4986d18dc748901", "3044022041ff6ef6341c3596e329a0dfef60842eb9ffb3f51004d448ed8a9d5c4ac132b902200d70a5334fcb1440046396acf556c41a1ea45a1d8bd206901c1d4c77faa01af101", "52210213702e37e8c417a32dfdec2396e8fe2a2e36c4cbb50b9e545b1e5eb3d612966e2102767ba4cc21d42a0cd7d0418b275c88dc3e816f8a327b80ad0eed769476ccfdc721024eed43648b5feaaa2060bedb48aa4d1b6b69bc6b1182670e808c93f50f04bf5c53ae"], "sequence": 4294967295, "scriptSig": {"hex": "22002095ff9e3f75b22532a1e43d97d155bb6b0a4d0fbc06bb16a5627e04fce3724ea0", "asm": "002095ff9e3f75b22532a1e43d97d155bb6b0a4d0fbc06bb16a5627e04fce3724ea0"}, "vout": 1, "txid": "0ee7adeaadb613d2d3a57be46c3e8da2929eec08a90e6d0ea20918eb19f7ec82"}, {"txinwitness": ["", "304502210089aae2f9b786375b7770fb25ca414c2127b476a3fc1342459570495f2fc6e29802205d5cee085179237acd0dbc98c1733d2581ae24c184c34cd94031236f969ca72201", "3044022042cece354d22ab574f015a85adba91172e28b6fb3bb73c6e51c436a90ad720be022029bacd92896b9e507fd440eda9f33ec6118ea9cadc72fda472b4000b75e2ac2501", "522102a06b9f38d6db83cb9a30b18b46473f8e51d11fa3b6ab529db0b980eb3dbaec5d21031f22462cc94227bfe8d88d636cb88e80225aa28a99e9dba267ada8504d3dacc12103073cc7fe22abe2476f8e93782b7029a7fafd1718795ec976433f09e600380c4b53ae"], "sequence": 4294967295, "scriptSig": {"hex": "2200203aab81aa3f6f0eb5f530426e0ed434612f8eec1c39b98d98bf6fa877d181f4b6", "asm": "00203aab81aa3f6f0eb5f530426e0ed434612f8eec1c39b98d98bf6fa877d181f4b6"}, "vout": 0, "txid": "5195244aaaf40d90e29fc1c3fd95d2df770b2ca3d9af6392e5587f5bb468b970"}, {"txinwitness": ["", "30440220555b1d11337a0a0d54e2071c0d9b2e672ec44968874aee1f9784b206159e3f360220789b822b7b1e3d25c474bc064116bf213c475e41f8e984d3fba012dfa04b412701", "30440220113169bba41bde3bdc1c66e742300bdcbf5622006041a9f5137eb828af5edc0e02207fc581f0862daae7e16cddfd5cab3fbc8d2d8a831f9237f4e0a367de86629eb401", "5221023a64bbc03f16ab0b2050da47b9b1d687bb924b71a394310691c706fdd75417372102e565c14c5d19e9ea6da44c904515369a0b940ccb279f391d762f5bdfb41973902103b0624d12cacad1038518dd06c6b0da119337a5f4291c5411c88c9a6e44a1e90253ae"], "sequence": 4294967295, "scriptSig": {"hex": "2200206325efc93800e9b30f639c183893081f835dc9913586e5d5eaebbddbcee31403", "asm": "00206325efc93800e9b30f639c183893081f835dc9913586e5d5eaebbddbcee31403"}, "vout": 0, "txid": "866a46a167c9f9d41b9868dabb6c3abff508747b2b82f087359ba011afd31f1d"}, {"txinwitness": ["", "3044022032799c4846d4ee3db05bfa318cb64db82dd9e01a4c1112c04be58a9481e3f9a8022050963d5f6b8ec22ec162643af50c5b7ff607da1760fde10cc58db1f6a39c780a01", "3045022100dd26e4065bc97d0cb95699b7745de27b4e3954f86ce5de49e9c0bbeedbda83110220324df3d5f6c7b5282a8e392bed2cc4f6101dae51008bee37c952b7be6d43774e01", "5221024c1088e2fac1e8cc154ca80754aaa27ac150cfda30700bf1c84b7bb832665fae2102d1e6a3d0f7e66696ac862ec952ebe5d380fdc70b8143fe2877b75ccc396095cf2102f618c45c14c5fa3506aba62e6f2a03d45101d93653379f14dbec06f16ea2128b53ae"], "sequence": 4294967295, "scriptSig": {"hex": "220020393272132c4e81a1afb51f4e92bbb7752a52fe5b3f5b43765894c24bdb0caaab", "asm": "0020393272132c4e81a1afb51f4e92bbb7752a52fe5b3f5b43765894c24bdb0caaab"}, "vout": 1, "txid": "d7bb5a3766d45328ae7c386e9f96a3c4293ff712bf7637a20d3bd25f02b32ff9"}, {"txinwitness": ["", "3044022063b7da72461326e198aa398ab2f7177704bd4ed21e85647a8366d466a874f4b0022049cdc5b8fce05281255d5a7c5a7aa82844e806ed4c69bce42da4dde5401e322a01", "3045022100bf75cd18cd0b61470cb0f9fe2caebd9637b7593f01066c284ff52b2246ec64a702206eaedb0698b41b6680d8a325308e2451d4d6dd54796d4290b7b0bbfe98feca6e01", "52210354f8f895e9ad4f55d6d51bf343ecc1cebe7d9190942caa74f0cd209ad7b352a8210371ef022047278c4b108c02d288a23047d20ed3d925f427754ef79d502d848cfa2102644a0230100dede146f30d684b720ae92bc9796d71f29ec3133fbf98fe180cba53ae"], "sequence": 4294967295, "scriptSig": {"hex": "220020bfc78c597ef580fd381a9dffe1ae798ddb9cfc02419fdf543ad7c58b47c884db", "asm": "0020bfc78c597ef580fd381a9dffe1ae798ddb9cfc02419fdf543ad7c58b47c884db"}, "vout": 0, "txid": "40903239213d6f67946df32bd82322fe24d855466e4db37bc490f1b28a40f66c"}], "txid": "343d2066cfab834ed749e38d1dd13a89ba34e8539baa9eb8431a32d8387d478c", "blocktime": 1537872475, "version": 1, "confirmations": 11486, "time": 1537872475, "locktime": 0, "vsize": 3447, "size": 7998}