{"hash": "343fb869ac5efac69ebd2e570fcca6d4b14829175a006479b973d5af7d324aa7", "blockhash": "0000000000000000000e13cef7c366c0283d82e591d1acd082e914b08063cdf1", "vout": [{"scriptPubKey": {"reqSigs": 1, "hex": "a914ef89343be0e3f94d7971370aa8a0e59e9b51cd4487", "addresses": ["3PXZnVfHqGwRGkpnU2hFxhWXH3wKCS8SqU"], "asm": "OP_HASH160 ef89343be0e3f94d7971370aa8a0e59e9b51cd44 OP_EQUAL", "type": "scripthash"}, "value": 0.00028, "n": 0}, {"scriptPubKey": {"reqSigs": 1, "hex": "76a9147d66b8f088522b2f129069735d87f3b7ecdd7b0f88ac", "addresses": ["1CS4XFwrVJfjquLM8RgCaj4eRsu3Ah4tHr"], "asm": "OP_DUP OP_HASH160 7d66b8f088522b2f129069735d87f3b7ecdd7b0f OP_EQUALVERIFY OP_CHECKSIG", "type": "pubkeyhash"}, "value": 0.01209897, "n": 1}], "hex": "01000000018acfde70eeb9dd63aaa6273418ffb51c8735ae358fb010d42ca1065bd2529849010000006b483045022100fb008b391ac8f54386979aa39f21c8b0b26b5fb44525de9ebe7aa9ccbf7d7c2a02202231d491b86c3ca4738e68ad15fcc286d28bf36da7dd37b5a3e3a2f7b1b7097601210242be6559ac5a0340e9dd49b3099d4994c7cc68beefa26772d914ac21f406e436ffffffff02606d00000000000017a914ef89343be0e3f94d7971370aa8a0e59e9b51cd448729761200000000001976a9147d66b8f088522b2f129069735d87f3b7ecdd7b0f88ac00000000", "vin": [{"sequence": 4294967295, "scriptSig": {"hex": "483045022100fb008b391ac8f54386979aa39f21c8b0b26b5fb44525de9ebe7aa9ccbf7d7c2a02202231d491b86c3ca4738e68ad15fcc286d28bf36da7dd37b5a3e3a2f7b1b7097601210242be6559ac5a0340e9dd49b3099d4994c7cc68beefa26772d914ac21f406e436", "asm": "3045022100fb008b391ac8f54386979aa39f21c8b0b26b5fb44525de9ebe7aa9ccbf7d7c2a02202231d491b86c3ca4738e68ad15fcc286d28bf36da7dd37b5a3e3a2f7b1b70976[ALL] 0242be6559ac5a0340e9dd49b3099d4994c7cc68beefa26772d914ac21f406e436"}, "vout": 1, "txid": "499852d25b06a12cd410b08f35ae35871cb5ff183427a6aa63ddb9ee70decf8a"}], "txid": "343fb869ac5efac69ebd2e570fcca6d4b14829175a006479b973d5af7d324aa7", "blocktime": 1537871767, "version": 1, "confirmations": 11495, "time": 1537871767, "locktime": 0, "vsize": 224, "size": 224}