{"hash": "3440ce0c946cbb39dbdfb36f50410912d9a3cc85298d974be4865796891c927f", "blockhash": "000000000000000000022b45ed06c6f4ccd3cf7fb5ba4856ebd2e58215665228", "vout": [{"scriptPubKey": {"reqSigs": 1, "hex": "76a9148b419879fdf22e8fcc6eca42244a93c2f4ab458b88ac", "addresses": ["1DhKWKzRDdDA6cGgNyHhhTfjTTeWd3o3XG"], "asm": "OP_DUP OP_HASH160 8b419879fdf22e8fcc6eca42244a93c2f4ab458b OP_EQUALVERIFY OP_CHECKSIG", "type": "pubkeyhash"}, "value": 3.01030603, "n": 0}, {"scriptPubKey": {"reqSigs": 1, "hex": "a914fe2725b093be3abe5508cea7a4c30d1155eecf4687", "addresses": ["3QrrTGMjQx6KvaP94V1Lk8sYSaNXBNf3R4"], "asm": "OP_HASH160 fe2725b093be3abe5508cea7a4c30d1155eecf46 OP_EQUAL", "type": "scripthash"}, "value": 21.0, "n": 1}], "hex": "01000000020a91a69dadba5ef14b6934f18eb8c374a1db9a19d23df75ae35a25c91124bb60000000006b483045022100ba9cefe18543ea634ee1380796228e011151a533bf871bfddef7b112af88db8e0220385fb2b30d4ad07ea1292462c5a206adfdbfe14273930ec4ed6fd629fe7638d40121024b33d22de496f7e13106fb4d99c959186392008a774adee5c5a79de25b988bbaffffffff1d529714d49ab5160af61c0ddf238d4370836e168fed8d2753cfe07ac96ae479010000006b483045022100d20a39ebf868fa0ccd87ce0fb90a7939dc1054e03fd8e9d6c3a51c67909521ce0220631b66eaffd7738315794d67b209423ee6d859444a37bea56d2580294e93e9200121024b33d22de496f7e13106fb4d99c959186392008a774adee5c5a79de25b988bbaffffffff02cb5cf111000000001976a9148b419879fdf22e8fcc6eca42244a93c2f4ab458b88ac00752b7d0000000017a914fe2725b093be3abe5508cea7a4c30d1155eecf468700000000", "vin": [{"sequence": 4294967295, "scriptSig": {"hex": "483045022100ba9cefe18543ea634ee1380796228e011151a533bf871bfddef7b112af88db8e0220385fb2b30d4ad07ea1292462c5a206adfdbfe14273930ec4ed6fd629fe7638d40121024b33d22de496f7e13106fb4d99c959186392008a774adee5c5a79de25b988bba", "asm": "3045022100ba9cefe18543ea634ee1380796228e011151a533bf871bfddef7b112af88db8e0220385fb2b30d4ad07ea1292462c5a206adfdbfe14273930ec4ed6fd629fe7638d4[ALL] 024b33d22de496f7e13106fb4d99c959186392008a774adee5c5a79de25b988bba"}, "vout": 0, "txid": "60bb2411c9255ae35af73dd2199adba174c3b88ef134694bf15ebaad9da6910a"}, {"sequence": 4294967295, "scriptSig": {"hex": "483045022100d20a39ebf868fa0ccd87ce0fb90a7939dc1054e03fd8e9d6c3a51c67909521ce0220631b66eaffd7738315794d67b209423ee6d859444a37bea56d2580294e93e9200121024b33d22de496f7e13106fb4d99c959186392008a774adee5c5a79de25b988bba", "asm": "3045022100d20a39ebf868fa0ccd87ce0fb90a7939dc1054e03fd8e9d6c3a51c67909521ce0220631b66eaffd7738315794d67b209423ee6d859444a37bea56d2580294e93e920[ALL] 024b33d22de496f7e13106fb4d99c959186392008a774adee5c5a79de25b988bba"}, "vout": 1, "txid": "79e46ac97ae0cf53278ded8f166e8370438d23df0d1cf60a16b59ad41497521d"}], "txid": "3440ce0c946cbb39dbdfb36f50410912d9a3cc85298d974be4865796891c927f", "blocktime": 1537869901, "version": 1, "confirmations": 11524, "time": 1537869901, "locktime": 0, "vsize": 372, "size": 372}