{"hash": "777815ab313dfde76e2b8d5eed21f3ba9c291175e122fadd8f8c89616f22a06f", "blockhash": "00000000000000000024a2167bbff67b0be802c0b01cdd79e6331c2be6459f87", "vout": [{"scriptPubKey": {"reqSigs": 1, "hex": "76a914b347009a86ecfa6137ce444bb158f33d2d66caa288ac", "addresses": ["1HLw1fk1n5WLZqAG1cY97H6YduggYiwxd6"], "asm": "OP_DUP OP_HASH160 b347009a86ecfa6137ce444bb158f33d2d66caa2 OP_EQUALVERIFY OP_CHECKSIG", "type": "pubkeyhash"}, "value": 0.0047, "n": 0}, {"scriptPubKey": {"reqSigs": 1, "hex": "a9148da2d40906c01b65f8333a8e81c98dd933fe71e087", "addresses": ["3EbvG6dWZjuof7NmondGbPtZpxKD8oBgki"], "asm": "OP_HASH160 8da2d40906c01b65f8333a8e81c98dd933fe71e0 OP_EQUAL", "type": "scripthash"}, "value": 0.0016826, "n": 1}, {"scriptPubKey": {"reqSigs": 1, "hex": "76a9149597cd07f616c4daa949671a9aeb80d27b66ba2288ac", "addresses": ["1EdyXtsdZLa3YUFNUotGC6jjs8keVWSuhi"], "asm": "OP_DUP OP_HASH160 9597cd07f616c4daa949671a9aeb80d27b66ba22 OP_EQUALVERIFY OP_CHECKSIG", "type": "pubkeyhash"}, "value": 0.077995, "n": 2}, {"scriptPubKey": {"reqSigs": 1, "hex": "a9141988a27e3c2df4ddee7fad5a2303d086179b2a3087", "addresses": ["3422VtS7UtCvXYxoXMVp6eZupR252z85oC"], "asm": "OP_HASH160 1988a27e3c2df4ddee7fad5a2303d086179b2a30 OP_EQUAL", "type": "scripthash"}, "value": 0.89471117, "n": 3}], "hex": "01000000000101da57221c5db023624fb6c1285dc959b07581ebed3990b787483da458fffb329701000000232200202035e78a6b34d583ad0a874b80ee41a0507b92cf0b671656108f594c7f75ca90ffffffff04f02b0700000000001976a914b347009a86ecfa6137ce444bb158f33d2d66caa288ac449102000000000017a9148da2d40906c01b65f8333a8e81c98dd933fe71e087cc027700000000001976a9149597cd07f616c4daa949671a9aeb80d27b66ba2288ac8d3855050000000017a9141988a27e3c2df4ddee7fad5a2303d086179b2a30870400473044022060effc18490747b958ff3468d5e6f836447d97ce5e74faa5869f1cc17895c03002204e561f182839347e47664d214c59105d47b07f953017fce3fadba019b8600d9f0148304502210084293ffe5f5c31cadd7a8133c0d527a77d706f604338db4c2be41ee8a0ff9d9702202c7e610c257ff34ad63e2037d7bd958328d28dc35e078242bd7cff7119f1b03d01695221029103d1dfbbee9ea5249ee0b03ca59e08291ce34a7467513edf8ea767b5aa26382103dce07bea5905a1c3e70f86c1f74f0e98e7cf3b6f5d02226a4c531c9e930c613b210268d8878afaf4b55118519d8520fe0db27f9596a812d4378f4bf4a96a5333694653ae00000000", "vin": [{"txinwitness": ["", "3044022060effc18490747b958ff3468d5e6f836447d97ce5e74faa5869f1cc17895c03002204e561f182839347e47664d214c59105d47b07f953017fce3fadba019b8600d9f01", "304502210084293ffe5f5c31cadd7a8133c0d527a77d706f604338db4c2be41ee8a0ff9d9702202c7e610c257ff34ad63e2037d7bd958328d28dc35e078242bd7cff7119f1b03d01", "5221029103d1dfbbee9ea5249ee0b03ca59e08291ce34a7467513edf8ea767b5aa26382103dce07bea5905a1c3e70f86c1f74f0e98e7cf3b6f5d02226a4c531c9e930c613b210268d8878afaf4b55118519d8520fe0db27f9596a812d4378f4bf4a96a5333694653ae"], "sequence": 4294967295, "scriptSig": {"hex": "2200202035e78a6b34d583ad0a874b80ee41a0507b92cf0b671656108f594c7f75ca90", "asm": "00202035e78a6b34d583ad0a874b80ee41a0507b92cf0b671656108f594c7f75ca90"}, "vout": 1, "txid": "9732fbff58a43d4887b79039edeb8175b059c95d28c1b64f6223b05d1c2257da"}], "txid": "3443250fea987906fcbe113e927b4563356553caffad6945dd8c1269484cb66b", "blocktime": 1537870564, "version": 1, "confirmations": 11515, "time": 1537870564, "locktime": 0, "vsize": 282, "size": 473}