{"hash": "344556ea3300adca297335a0afcba580e8ff689421218a807a23127928bef751", "blockhash": "00000000000000000018f53835495a110e01622372bf6ae95dc86f2b0ab887b0", "vout": [{"scriptPubKey": {"reqSigs": 1, "hex": "76a9148205dd690e674e0fa151cd6f188a14dfcc33e60e88ac", "addresses": ["1CrVsSMwMY8uHFVCGicz8GscDnvHBYVd63"], "asm": "OP_DUP OP_HASH160 8205dd690e674e0fa151cd6f188a14dfcc33e60e OP_EQUALVERIFY OP_CHECKSIG", "type": "pubkeyhash"}, "value": 0.2356432, "n": 0}], "hex": "010000000190af8edc509963d9223966cda54bbb03faab3b149ba25eabfde37f5a63e755d7000000006b483045022100be766714b5ab6963ca1a698e505f7ced98f54ffa682087c6e2600512d13f4f2a022034ba189d9e3dce1d68a37473be88502c554dab3a7e1b778f9d17a945fbbe78b901210381a1e85e3762bbb4f8d9e3abef4d1130a996947d8e57a03aa734b196c8b79bf6ffffffff0120906701000000001976a9148205dd690e674e0fa151cd6f188a14dfcc33e60e88ac00000000", "vin": [{"sequence": 4294967295, "scriptSig": {"hex": "483045022100be766714b5ab6963ca1a698e505f7ced98f54ffa682087c6e2600512d13f4f2a022034ba189d9e3dce1d68a37473be88502c554dab3a7e1b778f9d17a945fbbe78b901210381a1e85e3762bbb4f8d9e3abef4d1130a996947d8e57a03aa734b196c8b79bf6", "asm": "3045022100be766714b5ab6963ca1a698e505f7ced98f54ffa682087c6e2600512d13f4f2a022034ba189d9e3dce1d68a37473be88502c554dab3a7e1b778f9d17a945fbbe78b9[ALL] 0381a1e85e3762bbb4f8d9e3abef4d1130a996947d8e57a03aa734b196c8b79bf6"}, "vout": 0, "txid": "d755e7635a7fe3fdab5ea29b143babfa03bb4ba5cd663922d9639950dc8eaf90"}], "txid": "344556ea3300adca297335a0afcba580e8ff689421218a807a23127928bef751", "blocktime": 1537870928, "version": 1, "confirmations": 11512, "time": 1537870928, "locktime": 0, "vsize": 192, "size": 192}