{"hash": "daa46274166cf75ed21208a776b8f1d1d91c6e1a9d88dbfa9a0e2b3bb027de8c", "blockhash": "0000000000000000000e13cef7c366c0283d82e591d1acd082e914b08063cdf1", "vout": [{"scriptPubKey": {"reqSigs": 1, "hex": "a91451ff2a2d36b79832699df95bfc77db4639ec5e2587", "addresses": ["39AaLEs2zDvEdMQQ6j6e7o6zTdeE6e7z9z"], "asm": "OP_HASH160 51ff2a2d36b79832699df95bfc77db4639ec5e25 OP_EQUAL", "type": "scripthash"}, "value": 0.01014493, "n": 0}, {"scriptPubKey": {"reqSigs": 1, "hex": "a914356d2c9d7648b23cccc5db1e2f19d7f8a3f34fe587", "addresses": ["36ZWXGm9zJwwNBGbdk5AwC3on49ZHsRiYx"], "asm": "OP_HASH160 356d2c9d7648b23cccc5db1e2f19d7f8a3f34fe5 OP_EQUAL", "type": "scripthash"}, "value": 0.15371858, "n": 1}], "hex": "010000000001025a62af66e4552ef855afa86ccba2ab738823ad2e1cf34d0619c975bf2d9a55080100000023220020e10e4501aac36bd90c5064f0c7581adab27767de644f8d246177b70c45e85ebeffffffff14969f0f1692624fdc97c1976733c79dc65e9f8ebd28eaea40508d1fb9ee9f650100000023220020f02106df819c0c079c5a1301424987bb2223d70b61998b41dc48ac495ee36ff0ffffffff02dd7a0f000000000017a91451ff2a2d36b79832699df95bfc77db4639ec5e2587528eea000000000017a914356d2c9d7648b23cccc5db1e2f19d7f8a3f34fe5870400483045022100f4b7a564d48fbfc46f535f7887e07e6e8c9bb54fed23aa0c383969ad4e8f058802201a125e02304258acb484b25461fb7c03380b9cf8e75104ac789eb38d0871cdb2014830450221009ae1b06b0cdda45a6a1ae8bd9de635c55b1b8e7e132a525d2f0e4d3db46b9d0f022048a40c5f1c3f90cd2f1c90e142f69028878adbf72afaaa401be15d5fcdcb45df0147522103beae1aa50173e483ce9df0ca7f221421bf5dc268f943b54c4928726317d032af21038f2c7ecee34c843be9d886e50ce79e5dc40a1694c0417d60b35340f292ff73fc52ae04004830450221008188fae1570fe407c7947c48adca8de9a6184790ef79c36255b165acef704e67022003c6a509b60e3500f24bedfb1fd7bb4a275bba481df1dc88001ecdbb41b4fc7401473044022024d36e274c0d71324c579e804963290a1ed0c49addc04c2f4db37465d462cbd902206658ea80890d11066ea8ce10e60c80c6a8282a72f3147862f52df40d2c9d8dfb0147522103276a6941cb6b56ad46991c0386ea82997b17623fa39c5ae259bfb10244544a3d21038f2c7ecee34c843be9d886e50ce79e5dc40a1694c0417d60b35340f292ff73fc52ae00000000", "vin": [{"txinwitness": ["", "3045022100f4b7a564d48fbfc46f535f7887e07e6e8c9bb54fed23aa0c383969ad4e8f058802201a125e02304258acb484b25461fb7c03380b9cf8e75104ac789eb38d0871cdb201", "30450221009ae1b06b0cdda45a6a1ae8bd9de635c55b1b8e7e132a525d2f0e4d3db46b9d0f022048a40c5f1c3f90cd2f1c90e142f69028878adbf72afaaa401be15d5fcdcb45df01", "522103beae1aa50173e483ce9df0ca7f221421bf5dc268f943b54c4928726317d032af21038f2c7ecee34c843be9d886e50ce79e5dc40a1694c0417d60b35340f292ff73fc52ae"], "sequence": 4294967295, "scriptSig": {"hex": "220020e10e4501aac36bd90c5064f0c7581adab27767de644f8d246177b70c45e85ebe", "asm": "0020e10e4501aac36bd90c5064f0c7581adab27767de644f8d246177b70c45e85ebe"}, "vout": 1, "txid": "08559a2dbf75c919064df31c2ead238873aba2cb6ca8af55f82e55e466af625a"}, {"txinwitness": ["", "30450221008188fae1570fe407c7947c48adca8de9a6184790ef79c36255b165acef704e67022003c6a509b60e3500f24bedfb1fd7bb4a275bba481df1dc88001ecdbb41b4fc7401", "3044022024d36e274c0d71324c579e804963290a1ed0c49addc04c2f4db37465d462cbd902206658ea80890d11066ea8ce10e60c80c6a8282a72f3147862f52df40d2c9d8dfb01", "522103276a6941cb6b56ad46991c0386ea82997b17623fa39c5ae259bfb10244544a3d21038f2c7ecee34c843be9d886e50ce79e5dc40a1694c0417d60b35340f292ff73fc52ae"], "sequence": 4294967295, "scriptSig": {"hex": "220020f02106df819c0c079c5a1301424987bb2223d70b61998b41dc48ac495ee36ff0", "asm": "0020f02106df819c0c079c5a1301424987bb2223d70b61998b41dc48ac495ee36ff0"}, "vout": 1, "txid": "659feeb91f8d5040eaea28bd8e9f5ec69dc7336797c197dc4f6292160f9f9614"}], "txid": "344d682a930233141a2889fbca734e17d7351cfed7e0ad16cd3ba6e4e9fa9612", "blocktime": 1537871767, "version": 1, "confirmations": 11495, "time": 1537871767, "locktime": 0, "vsize": 337, "size": 667}