{"hash": "c1b3814a1d788b7ff0512f99cbf4e1d5b8aa1b51142f80f413c6ebce5f76a0e6", "blockhash": "0000000000000000001cda96e906b7601b7a6fb1a3b62bca570a9e5d8f4b3de1", "vout": [{"scriptPubKey": {"reqSigs": 1, "hex": "76a914e5a4d193416df9e40fe0e3b73d022db1cf25998c88ac", "addresses": ["1MwFBjLZfzwHSRxd8EvNm48BweSsHhgzDv"], "asm": "OP_DUP OP_HASH160 e5a4d193416df9e40fe0e3b73d022db1cf25998c OP_EQUALVERIFY OP_CHECKSIG", "type": "pubkeyhash"}, "value": 0.00257226, "n": 0}, {"scriptPubKey": {"reqSigs": 1, "hex": "0014d4f4a009e3886b1e04dc57a5fa306c058f8f4368", "addresses": ["bc1q6n62qz0r3p43upxu27jl5vrvqk8c7smg0swtgd"], "asm": "0 d4f4a009e3886b1e04dc57a5fa306c058f8f4368", "type": "witness_v0_keyhash"}, "value": 1.185e-05, "n": 1}], "hex": "010000000001018d5dd38b40aafde1d03509323a8044c4f6c91fafe4efc4b559c647cec65c59130100000000ffffffff02caec0300000000001976a914e5a4d193416df9e40fe0e3b73d022db1cf25998c88aca104000000000000160014d4f4a009e3886b1e04dc57a5fa306c058f8f436802483045022100b21bcc59fd9b722da40ce317af9ae39d2c984b8ba65f6928dcb59b063d2e7ff302206539d65bb297ac39852b20383cc145c916212df3c663176fc01879ebdd461839012102a57a5c5f8c56dd50dde62976e2cdaffef2ec24d34c4da7a810cd7071d07c226500000000", "vin": [{"txinwitness": ["3045022100b21bcc59fd9b722da40ce317af9ae39d2c984b8ba65f6928dcb59b063d2e7ff302206539d65bb297ac39852b20383cc145c916212df3c663176fc01879ebdd46183901", "02a57a5c5f8c56dd50dde62976e2cdaffef2ec24d34c4da7a810cd7071d07c2265"], "sequence": 4294967295, "scriptSig": {"hex": "", "asm": ""}, "vout": 1, "txid": "13595cc6ce47c659b5c4efe4af1fc9f6c444803a320935d0e1fdaa408bd35d8d"}], "txid": "3459007d2d39cbc1cd8139dff8f2aae95097ea18b67d60c5f7b5d7f280516ba0", "blocktime": 1537873282, "version": 1, "confirmations": 11484, "time": 1537873282, "locktime": 0, "vsize": 144, "size": 226}