{"hash": "3459ebbad34470b4fad00af04d24eae136431253107f721e67f904d9bb37c826", "blockhash": "00000000000000000024a2167bbff67b0be802c0b01cdd79e6331c2be6459f87", "vout": [{"scriptPubKey": {"reqSigs": 1, "hex": "a9149337cf674ddfc35173e6a75bda2176ba79d31fa087", "addresses": ["3F7S7W337WHHChBGtWFCk3yCM5h2vdyJ67"], "asm": "OP_HASH160 9337cf674ddfc35173e6a75bda2176ba79d31fa0 OP_EQUAL", "type": "scripthash"}, "value": 0.0042, "n": 0}, {"scriptPubKey": {"reqSigs": 1, "hex": "a914b0ba31f723225f3e7ebcad0400d90589265f893287", "addresses": ["3HoTuNd8b4taL74bMk5JMVw7qAHC3Z7bHR"], "asm": "OP_HASH160 b0ba31f723225f3e7ebcad0400d90589265f8932 OP_EQUAL", "type": "scripthash"}, "value": 0.01748079, "n": 1}, {"scriptPubKey": {"reqSigs": 1, "hex": "a914d2d46dec209ee4f1e8694725f1f81ba4c3f9cc1887", "addresses": ["3LunJgRWz3v8iFxR28HvQjKhvAzQ6dPMh4"], "asm": "OP_HASH160 d2d46dec209ee4f1e8694725f1f81ba4c3f9cc18 OP_EQUAL", "type": "scripthash"}, "value": 0.0793031, "n": 2}, {"scriptPubKey": {"reqSigs": 1, "hex": "76a914202c5a8a382338ce931974cf23180eef95b864b788ac", "addresses": ["13w7ktNVhWozrMF4sHUsJPyaY14fM1M1Z6"], "asm": "OP_DUP OP_HASH160 202c5a8a382338ce931974cf23180eef95b864b7 OP_EQUALVERIFY OP_CHECKSIG", "type": "pubkeyhash"}, "value": 0.01031312, "n": 3}, {"scriptPubKey": {"reqSigs": 1, "hex": "76a9140b2560bcd321e0070329b8aa918266dc875b2a7288ac", "addresses": ["121wDAukNS9jMe4hj4i6kghrrsRK5EP4FA"], "asm": "OP_DUP OP_HASH160 0b2560bcd321e0070329b8aa918266dc875b2a72 OP_EQUALVERIFY OP_CHECKSIG", "type": "pubkeyhash"}, "value": 0.97254677, "n": 4}, {"scriptPubKey": {"reqSigs": 1, "hex": "a91435567ab328a1e60315fbe4e6b6691402c3e78e1d87", "addresses": ["36Z3LQ1orHxGZvQxtK7K3f6XguBP8kiAtV"], "asm": "OP_HASH160 35567ab328a1e60315fbe4e6b6691402c3e78e1d OP_EQUAL", "type": "scripthash"}, "value": 0.09971133, "n": 5}, {"scriptPubKey": {"reqSigs": 1, "hex": "a91469f37667160cb039cf1cbf4362cdc1448d99673187", "addresses": ["3BMEXkuGeM6wJ6hq3PRj4mjJ9rjyYRn2zm"], "asm": "OP_HASH160 69f37667160cb039cf1cbf4362cdc1448d996731 OP_EQUAL", "type": "scripthash"}, "value": 0.17282561, "n": 6}, {"scriptPubKey": {"reqSigs": 1, "hex": "76a914f7ea552cd5d97eb843d8d394e81af4101cec17a488ac", "addresses": ["1Pbrd74vtGXEx2LwPewVQyC8yMKDhrQekh"], "asm": "OP_DUP OP_HASH160 f7ea552cd5d97eb843d8d394e81af4101cec17a4 OP_EQUALVERIFY OP_CHECKSIG", "type": "pubkeyhash"}, "value": 0.09034458, "n": 7}, {"scriptPubKey": {"reqSigs": 1, "hex": "a914cce4b3ebbc7e7e09904d45df5a3fb99cf523f50187", "addresses": ["3LNPkE9AUd7tYTDFm7R2xaujcbxC1BWCqt"], "asm": "OP_HASH160 cce4b3ebbc7e7e09904d45df5a3fb99cf523f501 OP_EQUAL", "type": "scripthash"}, "value": 0.9995, "n": 8}, {"scriptPubKey": {"reqSigs": 1, "hex": "a914d17554dfa7ccfed775837a28bedd2e425b8c131887", "addresses": ["3LnXhyUNoQxn9SLdn81KrZVH2biBuGaQC8"], "asm": "OP_HASH160 d17554dfa7ccfed775837a28bedd2e425b8c1318 OP_EQUAL", "type": "scripthash"}, "value": 0.01921858, "n": 9}, {"scriptPubKey": {"reqSigs": 1, "hex": "76a9142a102d30137a2f06e3a6ec5ef45c1551d4fdb9f988ac", "addresses": ["14qQm2D5hGFji4MSHfCkU7ZqfHBPmoCas5"], "asm": "OP_DUP OP_HASH160 2a102d30137a2f06e3a6ec5ef45c1551d4fdb9f9 OP_EQUALVERIFY OP_CHECKSIG", "type": "pubkeyhash"}, "value": 0.00710223, "n": 10}, {"scriptPubKey": {"reqSigs": 1, "hex": "a91469f376423fb9d407b97f4fa8fe59399cb81a22ae87", "addresses": ["3BMEXidtbA17qLVekc21NLxKPgxUTWxd2B"], "asm": "OP_HASH160 69f376423fb9d407b97f4fa8fe59399cb81a22ae OP_EQUAL", "type": "scripthash"}, "value": 0.14, "n": 11}, {"scriptPubKey": {"reqSigs": 1, "hex": "76a914ef43c19af53072f5934925fec59fa71d98324ade88ac", "addresses": ["1Np7fdsUJZEZcinTn5qKJjsYXYEzBdAoC1"], "asm": "OP_DUP OP_HASH160 ef43c19af53072f5934925fec59fa71d98324ade OP_EQUALVERIFY OP_CHECKSIG", "type": "pubkeyhash"}, "value": 0.0323125, "n": 12}, {"scriptPubKey": {"reqSigs": 1, "hex": "a91469f37624cc4ba8a3781ac10b7416119795a7cb1b87", "addresses": ["3BMEXgprSuB8BoUTKNX2PCeLP9VXFkkqJ2"], "asm": "OP_HASH160 69f37624cc4ba8a3781ac10b7416119795a7cb1b OP_EQUAL", "type": "scripthash"}, "value": 0.1186015, "n": 13}, {"scriptPubKey": {"reqSigs": 1, "hex": "76a914e7ee3650d55b132ea0546ebdf2d4cd4b4fcd5f3088ac", "addresses": ["1N9LTaugVyv9TL4kxJCUoBrokf4GSWUVk9"], "asm": "OP_DUP OP_HASH160 e7ee3650d55b132ea0546ebdf2d4cd4b4fcd5f30 OP_EQUALVERIFY OP_CHECKSIG", "type": "pubkeyhash"}, "value": 1.38887027, "n": 14}, {"scriptPubKey": {"reqSigs": 1, "hex": "76a914fc3e6e5071890f24a684cddb27cc8e1c8c61ae2488ac", "addresses": ["1Pzk57oYZJZnGRcSz59916VmLFNSqUxY2W"], "asm": "OP_DUP OP_HASH160 fc3e6e5071890f24a684cddb27cc8e1c8c61ae24 OP_EQUALVERIFY OP_CHECKSIG", "type": "pubkeyhash"}, "value": 0.0137, "n": 15}, {"scriptPubKey": {"reqSigs": 1, "hex": "76a914593e12637591a718684faa6b488fa40a79b979b388ac", "addresses": ["198sVuAA4Y5pV8ZmRpohyvH9NatHsyZ7gh"], "asm": "OP_DUP OP_HASH160 593e12637591a718684faa6b488fa40a79b979b3 OP_EQUALVERIFY OP_CHECKSIG", "type": "pubkeyhash"}, "value": 0.00509135, "n": 16}, {"scriptPubKey": {"reqSigs": 1, "hex": "76a914041c5509827da046647a1ba9eba3e91046b1d56888ac", "addresses": ["1NjeKeLyjXi7Ph7hGHeumZAqmvrTMeT98"], "asm": "OP_DUP OP_HASH160 041c5509827da046647a1ba9eba3e91046b1d568 OP_EQUALVERIFY OP_CHECKSIG", "type": "pubkeyhash"}, "value": 0.05883057, "n": 17}, {"scriptPubKey": {"reqSigs": 1, "hex": "76a91412a51d6073171c50d262b07719e5dd01fb9456cb88ac", "addresses": ["12haxpyPW6Y57mgmf13F5Rh9KuXxXeo5c1"], "asm": "OP_DUP OP_HASH160 12a51d6073171c50d262b07719e5dd01fb9456cb OP_EQUALVERIFY OP_CHECKSIG", "type": "pubkeyhash"}, "value": 0.1114238, "n": 18}, {"scriptPubKey": {"reqSigs": 1, "hex": "76a914e71debe251bb26c7e757d9ae265da6e5d00f31b988ac", "addresses": ["1N52wHoVR79PMDishab2XmRHsbekCdGquK"], "asm": "OP_DUP OP_HASH160 e71debe251bb26c7e757d9ae265da6e5d00f31b9 OP_EQUALVERIFY OP_CHECKSIG", "type": "pubkeyhash"}, "value": 0.65716311, "n": 19}], "hex": "01000000013fac08645cb441e9db1192185e390de8fb0b42e29870979f8211e7991e9e661d010000006a47304402207b35ce107cb095be4f428178507cc88aae8b673025c992b4ba380c93b24de00d02202bfdba4540a12a2ecfd82d181b02e7ab7a1b76f9dab4cfc40e04e770ccfb7dad012102e534da9cca3dae02ac811b534ad1b70d7e8968c5635714673822546af6fbe20dffffffff14a06806000000000017a9149337cf674ddfc35173e6a75bda2176ba79d31fa0876fac1a000000000017a914b0ba31f723225f3e7ebcad0400d90589265f893287c60179000000000017a914d2d46dec209ee4f1e8694725f1f81ba4c3f9cc188790bc0f00000000001976a914202c5a8a382338ce931974cf23180eef95b864b788ac15fdcb05000000001976a9140b2560bcd321e0070329b8aa918266dc875b2a7288acbd2598000000000017a91435567ab328a1e60315fbe4e6b6691402c3e78e1d8701b607010000000017a91469f37667160cb039cf1cbf4362cdc1448d99673187dada8900000000001976a914f7ea552cd5d97eb843d8d394e81af4101cec17a488acb01df5050000000017a914cce4b3ebbc7e7e09904d45df5a3fb99cf523f5018742531d000000000017a914d17554dfa7ccfed775837a28bedd2e425b8c1318874fd60a00000000001976a9142a102d30137a2f06e3a6ec5ef45c1551d4fdb9f988ac809fd5000000000017a91469f376423fb9d407b97f4fa8fe59399cb81a22ae87124e3100000000001976a914ef43c19af53072f5934925fec59fa71d98324ade88acb6f8b4000000000017a91469f37624cc4ba8a3781ac10b7416119795a7cb1b87733f4708000000001976a914e7ee3650d55b132ea0546ebdf2d4cd4b4fcd5f3088ac90e71400000000001976a914fc3e6e5071890f24a684cddb27cc8e1c8c61ae2488accfc40700000000001976a914593e12637591a718684faa6b488fa40a79b979b388acb1c45900000000001976a914041c5509827da046647a1ba9eba3e91046b1d56888acec04aa00000000001976a91412a51d6073171c50d262b07719e5dd01fb9456cb88ac57c0ea03000000001976a914e71debe251bb26c7e757d9ae265da6e5d00f31b988ac00000000", "vin": [{"sequence": 4294967295, "scriptSig": {"hex": "47304402207b35ce107cb095be4f428178507cc88aae8b673025c992b4ba380c93b24de00d02202bfdba4540a12a2ecfd82d181b02e7ab7a1b76f9dab4cfc40e04e770ccfb7dad012102e534da9cca3dae02ac811b534ad1b70d7e8968c5635714673822546af6fbe20d", "asm": "304402207b35ce107cb095be4f428178507cc88aae8b673025c992b4ba380c93b24de00d02202bfdba4540a12a2ecfd82d181b02e7ab7a1b76f9dab4cfc40e04e770ccfb7dad[ALL] 02e534da9cca3dae02ac811b534ad1b70d7e8968c5635714673822546af6fbe20d"}, "vout": 1, "txid": "1d669e1e99e711829f977098e2420bfbe80d395e189211dbe941b45c6408ac3f"}], "txid": "3459ebbad34470b4fad00af04d24eae136431253107f721e67f904d9bb37c826", "blocktime": 1537870564, "version": 1, "confirmations": 11515, "time": 1537870564, "locktime": 0, "vsize": 819, "size": 819}