{"hash": "345c8adc641e4d59ba6f3e57d29aad6f0de9e182ed619787a413b8131f80008d", "blockhash": "000000000000000000022b45ed06c6f4ccd3cf7fb5ba4856ebd2e58215665228", "vout": [{"scriptPubKey": {"reqSigs": 1, "hex": "a9143182f5088a426dc70eac7a46d6e28e6bc485eaac87", "addresses": ["36Cov1LH3UcBeudYsxWXgcojiWMT3eHbne"], "asm": "OP_HASH160 3182f5088a426dc70eac7a46d6e28e6bc485eaac OP_EQUAL", "type": "scripthash"}, "value": 0.00957, "n": 0}, {"scriptPubKey": {"reqSigs": 1, "hex": "a914e370231feecbfc25e2e2423a5a79bf79bfdca59887", "addresses": ["3NRbeX3vD5VaVE4TDU9ivCDsEf7NPPte6J"], "asm": "OP_HASH160 e370231feecbfc25e2e2423a5a79bf79bfdca598 OP_EQUAL", "type": "scripthash"}, "value": 11.72834724, "n": 1}], "hex": "01000000016ec270c007eeb01fffe974b1cd59f3f63f00894b954409a23526f1687811ffbf01000000db00483045022100bd9569fba21350d6242a51baf9c9616e0b6672e3063b2bf9dbb9677bb84c33db02206ece783b11e89b38c7688b038952e54d39efa78480931d79dfe6686c61954bb101483045022100b7d129f087043d11724e3566757577496b08d7bab608b422e2521e14ab80f5d80220102563908f7249bee2fcb53d0ed5063345e2d1f46d8fd2494b9b1b51c5b7ecee014752210327881b6abce6535553a3ce21fad12a7d74fd237ce7c4cd270a267162344e3082210256141f8eb687f5a68c5cc65054652dc25116fa285e44d72b44368827ffe77d9a52aeffffffff02489a0e000000000017a9143182f5088a426dc70eac7a46d6e28e6bc485eaac87a409e8450000000017a914e370231feecbfc25e2e2423a5a79bf79bfdca5988700000000", "vin": [{"sequence": 4294967295, "scriptSig": {"hex": "00483045022100bd9569fba21350d6242a51baf9c9616e0b6672e3063b2bf9dbb9677bb84c33db02206ece783b11e89b38c7688b038952e54d39efa78480931d79dfe6686c61954bb101483045022100b7d129f087043d11724e3566757577496b08d7bab608b422e2521e14ab80f5d80220102563908f7249bee2fcb53d0ed5063345e2d1f46d8fd2494b9b1b51c5b7ecee014752210327881b6abce6535553a3ce21fad12a7d74fd237ce7c4cd270a267162344e3082210256141f8eb687f5a68c5cc65054652dc25116fa285e44d72b44368827ffe77d9a52ae", "asm": "0 3045022100bd9569fba21350d6242a51baf9c9616e0b6672e3063b2bf9dbb9677bb84c33db02206ece783b11e89b38c7688b038952e54d39efa78480931d79dfe6686c61954bb1[ALL] 3045022100b7d129f087043d11724e3566757577496b08d7bab608b422e2521e14ab80f5d80220102563908f7249bee2fcb53d0ed5063345e2d1f46d8fd2494b9b1b51c5b7ecee[ALL] 52210327881b6abce6535553a3ce21fad12a7d74fd237ce7c4cd270a267162344e3082210256141f8eb687f5a68c5cc65054652dc25116fa285e44d72b44368827ffe77d9a52ae"}, "vout": 1, "txid": "bfff117868f12635a20944954b89003ff6f359cdb174e9ff1fb0ee07c070c26e"}], "txid": "345c8adc641e4d59ba6f3e57d29aad6f0de9e182ed619787a413b8131f80008d", "blocktime": 1537869901, "version": 1, "confirmations": 11524, "time": 1537869901, "locktime": 0, "vsize": 334, "size": 334}