{"hash": "345e9ddadc395a8afef04dcee0330d89cfed944523b4fa4074f1d559833b603f", "blockhash": "0000000000000000001e0dab787dd257d1dbfcb92a98c2207d5e1078be1f4165", "vout": [{"scriptPubKey": {"reqSigs": 1, "hex": "76a914697626000792fc84b22586bcdbd542e99e5c53a688ac", "addresses": ["1AcdVEtwZJugDPAayhC5fRcV5JgNeXabr8"], "asm": "OP_DUP OP_HASH160 697626000792fc84b22586bcdbd542e99e5c53a6 OP_EQUALVERIFY OP_CHECKSIG", "type": "pubkeyhash"}, "value": 0.00382983, "n": 0}, {"scriptPubKey": {"reqSigs": 1, "hex": "a91469f375e885f4a503a741b3ba195ae2583d78420e87", "addresses": ["3BMEXd7t9uNJUSTj8FSXxNmCWX2eZ6D3UE"], "asm": "OP_HASH160 69f375e885f4a503a741b3ba195ae2583d78420e OP_EQUAL", "type": "scripthash"}, "value": 0.16, "n": 1}], "hex": "010000000172a2dc1aae5aba23ab7bb042e79ef385668a52f9533065dee4d8c4da70e8a3c62c0000006b483045022100a8ac7cab581023ed7f2c1d51e2f9d7064e1a5bd152b31b8b0815df475828bfb602205d9bbb5a8ad84aac9bd87f10267cfd588967ea8d7da19043359e1530e5ff1dad012103d3aa57ce136680ab98875a6aa908cc5b6d6b19f657f5280f57fe1e694cccf814ffffffff0207d80500000000001976a914697626000792fc84b22586bcdbd542e99e5c53a688ac0024f4000000000017a91469f375e885f4a503a741b3ba195ae2583d78420e8700000000", "vin": [{"sequence": 4294967295, "scriptSig": {"hex": "483045022100a8ac7cab581023ed7f2c1d51e2f9d7064e1a5bd152b31b8b0815df475828bfb602205d9bbb5a8ad84aac9bd87f10267cfd588967ea8d7da19043359e1530e5ff1dad012103d3aa57ce136680ab98875a6aa908cc5b6d6b19f657f5280f57fe1e694cccf814", "asm": "3045022100a8ac7cab581023ed7f2c1d51e2f9d7064e1a5bd152b31b8b0815df475828bfb602205d9bbb5a8ad84aac9bd87f10267cfd588967ea8d7da19043359e1530e5ff1dad[ALL] 03d3aa57ce136680ab98875a6aa908cc5b6d6b19f657f5280f57fe1e694cccf814"}, "vout": 44, "txid": "c6a3e870dac4d8e4de653053f9528a6685f39ee742b07bab23ba5aae1adca272"}], "txid": "345e9ddadc395a8afef04dcee0330d89cfed944523b4fa4074f1d559833b603f", "blocktime": 1537872475, "version": 1, "confirmations": 11487, "time": 1537872475, "locktime": 0, "vsize": 224, "size": 224}