{"hash": "345fa39374b8a03bc2d182f44ac4d0ec8f92783e0406bd2ba49dc6006f8462c3", "blockhash": "0000000000000000001cda96e906b7601b7a6fb1a3b62bca570a9e5d8f4b3de1", "vout": [{"scriptPubKey": {"reqSigs": 1, "hex": "a914f95398c88d9088142e6fb5e18040179d78433e5787", "addresses": ["3QRLKiahBhH8xw4bPLn4rp95z6YK4fodgJ"], "asm": "OP_HASH160 f95398c88d9088142e6fb5e18040179d78433e57 OP_EQUAL", "type": "scripthash"}, "value": 0.01561382, "n": 0}, {"scriptPubKey": {"reqSigs": 1, "hex": "76a9149f21322317f47f6cda657bcecedcc0e0047ca38e88ac", "addresses": ["1FWQCzMxrf46patYgPeMBXJ66uiLEq7Bat"], "asm": "OP_DUP OP_HASH160 9f21322317f47f6cda657bcecedcc0e0047ca38e OP_EQUALVERIFY OP_CHECKSIG", "type": "pubkeyhash"}, "value": 0.09651846, "n": 1}], "hex": "0100000001fd1d3b705ddc935bf3ea35fd64667a04515b98f810a262689eaf0ee89d09b1f2010000006b483045022100ceb40066e6fa787c0f06e9ded6367777c5ac36c7a7d0ffce56ff582ec833c7e30220199f907814dc5722a06a8c5f3d4d30bb8c6aca6682ebfd7f9689fc0cbdfe3a210121029a55ca071a4491c4e190e128addb1c55d9ac2e78cdad42cc9932536d3ea1ba19ffffffff0226d317000000000017a914f95398c88d9088142e6fb5e18040179d78433e578786469300000000001976a9149f21322317f47f6cda657bcecedcc0e0047ca38e88ac00000000", "vin": [{"sequence": 4294967295, "scriptSig": {"hex": "483045022100ceb40066e6fa787c0f06e9ded6367777c5ac36c7a7d0ffce56ff582ec833c7e30220199f907814dc5722a06a8c5f3d4d30bb8c6aca6682ebfd7f9689fc0cbdfe3a210121029a55ca071a4491c4e190e128addb1c55d9ac2e78cdad42cc9932536d3ea1ba19", "asm": "3045022100ceb40066e6fa787c0f06e9ded6367777c5ac36c7a7d0ffce56ff582ec833c7e30220199f907814dc5722a06a8c5f3d4d30bb8c6aca6682ebfd7f9689fc0cbdfe3a21[ALL] 029a55ca071a4491c4e190e128addb1c55d9ac2e78cdad42cc9932536d3ea1ba19"}, "vout": 1, "txid": "f2b1099de80eaf9e6862a210f8985b51047a6664fd35eaf35b93dc5d703b1dfd"}], "txid": "345fa39374b8a03bc2d182f44ac4d0ec8f92783e0406bd2ba49dc6006f8462c3", "blocktime": 1537873282, "version": 1, "confirmations": 11484, "time": 1537873282, "locktime": 0, "vsize": 224, "size": 224}