{"hash": "3461bca970f58afb5fa57d08c7b235e7fc440e7fa2b0866da804e5a8c3b716da", "blockhash": "00000000000000000018f53835495a110e01622372bf6ae95dc86f2b0ab887b0", "vout": [{"scriptPubKey": {"reqSigs": 1, "hex": "76a9149129553234863a486eb7670ba506fee8f3fc060088ac", "addresses": ["1EEYVfmtRKLLT1ztUbmfRXjxRP4LkzXCQ8"], "asm": "OP_DUP OP_HASH160 9129553234863a486eb7670ba506fee8f3fc0600 OP_EQUALVERIFY OP_CHECKSIG", "type": "pubkeyhash"}, "value": 0.05538516, "n": 0}], "hex": "010000000496b231b0ff511404eb96afe20a5749d4306bb68d876b6f4245f9ebf35d5967c61c0000006b483045022100878cc8bf477d412c772ebf412d4e5db9c6df249326b46a5aa9f705243f07b6010220486bc6fff6782b3f1acd46cb199f42d7ffa3e265f6775c15c8dfc1022a7077dd012102d955a90ef4d935746ad975bf76c953ddc81a0d7c55dc9bbcc6d359e9bad369efffffffffecb50079a914ca38da5c4d8f9d1fec523482f374521b2f74ee139e152e4c68c4000000006a473044022072cc19162a81799fbe9a4d384744cb8753457d37688be2a00d93d841893959b202203321207ba297d396c3f7937caad258db9fe7a7bd2e317de9fd5961d98098973e012102d955a90ef4d935746ad975bf76c953ddc81a0d7c55dc9bbcc6d359e9bad369effffffffffc47f96d91a6ce7a48bc456a1383d4f74170574ff12c9ac6b7f017a197127df2000000006b483045022100e6f43f7379fef7707b7a1b68a7c26e13f34f105a2d804ae9abad68e4b9381500022040d71da653a27b42b85efe2b88b754f4e626fdf9e95068ccf9898a94c6ca7330012102d955a90ef4d935746ad975bf76c953ddc81a0d7c55dc9bbcc6d359e9bad369efffffffff94dd1937f33da716b0aba4bd7cd6ad8cf1beae6db1d5de05b0c136d3d64944e4010000006a473044022028108fe3b47e200ac6dbe1d1ec3cfc7556a2557b6a360c05b262cae24b9701ff022076b942ab9e1f542738bba4fac3d66583a0d9421e5666034beabd6e0fb0572220012102d955a90ef4d935746ad975bf76c953ddc81a0d7c55dc9bbcc6d359e9bad369efffffffff01d4825400000000001976a9149129553234863a486eb7670ba506fee8f3fc060088ac00000000", "vin": [{"sequence": 4294967295, "scriptSig": {"hex": "483045022100878cc8bf477d412c772ebf412d4e5db9c6df249326b46a5aa9f705243f07b6010220486bc6fff6782b3f1acd46cb199f42d7ffa3e265f6775c15c8dfc1022a7077dd012102d955a90ef4d935746ad975bf76c953ddc81a0d7c55dc9bbcc6d359e9bad369ef", "asm": "3045022100878cc8bf477d412c772ebf412d4e5db9c6df249326b46a5aa9f705243f07b6010220486bc6fff6782b3f1acd46cb199f42d7ffa3e265f6775c15c8dfc1022a7077dd[ALL] 02d955a90ef4d935746ad975bf76c953ddc81a0d7c55dc9bbcc6d359e9bad369ef"}, "vout": 28, "txid": "c667595df3ebf945426f6b878db66b30d449570ae2af96eb041451ffb031b296"}, {"sequence": 4294967295, "scriptSig": {"hex": "473044022072cc19162a81799fbe9a4d384744cb8753457d37688be2a00d93d841893959b202203321207ba297d396c3f7937caad258db9fe7a7bd2e317de9fd5961d98098973e012102d955a90ef4d935746ad975bf76c953ddc81a0d7c55dc9bbcc6d359e9bad369ef", "asm": "3044022072cc19162a81799fbe9a4d384744cb8753457d37688be2a00d93d841893959b202203321207ba297d396c3f7937caad258db9fe7a7bd2e317de9fd5961d98098973e[ALL] 02d955a90ef4d935746ad975bf76c953ddc81a0d7c55dc9bbcc6d359e9bad369ef"}, "vout": 0, "txid": "c4684c2e159e13ee742f1b5274f3823452ec1f9d8f4d5cda38ca14a97900b5ec"}, {"sequence": 4294967295, "scriptSig": {"hex": "483045022100e6f43f7379fef7707b7a1b68a7c26e13f34f105a2d804ae9abad68e4b9381500022040d71da653a27b42b85efe2b88b754f4e626fdf9e95068ccf9898a94c6ca7330012102d955a90ef4d935746ad975bf76c953ddc81a0d7c55dc9bbcc6d359e9bad369ef", "asm": "3045022100e6f43f7379fef7707b7a1b68a7c26e13f34f105a2d804ae9abad68e4b9381500022040d71da653a27b42b85efe2b88b754f4e626fdf9e95068ccf9898a94c6ca7330[ALL] 02d955a90ef4d935746ad975bf76c953ddc81a0d7c55dc9bbcc6d359e9bad369ef"}, "vout": 0, "txid": "f27d1297a117f0b7c69a2cf14f577041f7d483136a45bc487acea6916df947fc"}, {"sequence": 4294967295, "scriptSig": {"hex": "473044022028108fe3b47e200ac6dbe1d1ec3cfc7556a2557b6a360c05b262cae24b9701ff022076b942ab9e1f542738bba4fac3d66583a0d9421e5666034beabd6e0fb0572220012102d955a90ef4d935746ad975bf76c953ddc81a0d7c55dc9bbcc6d359e9bad369ef", "asm": "3044022028108fe3b47e200ac6dbe1d1ec3cfc7556a2557b6a360c05b262cae24b9701ff022076b942ab9e1f542738bba4fac3d66583a0d9421e5666034beabd6e0fb0572220[ALL] 02d955a90ef4d935746ad975bf76c953ddc81a0d7c55dc9bbcc6d359e9bad369ef"}, "vout": 1, "txid": "e44449d6d336c1b005ded5b16daebef18cadd67cbda4abb016a73df33719dd94"}], "txid": "3461bca970f58afb5fa57d08c7b235e7fc440e7fa2b0866da804e5a8c3b716da", "blocktime": 1537870928, "version": 1, "confirmations": 11512, "time": 1537870928, "locktime": 0, "vsize": 634, "size": 634}