{"hash": "eaf87b16c9b9bbe7b4dbb3ec0b23fc86b9b41746633a1bebcbb3a6e37255c1be", "blockhash": "0000000000000000001e0dab787dd257d1dbfcb92a98c2207d5e1078be1f4165", "vout": [{"scriptPubKey": {"reqSigs": 1, "hex": "76a9149a1b8f9b1fa2d2297863adb1cb11c71df455684888ac", "addresses": ["1F3r5We2zwNiSzG6GQUTTWnnPMCz2HJbJu"], "asm": "OP_DUP OP_HASH160 9a1b8f9b1fa2d2297863adb1cb11c71df4556848 OP_EQUALVERIFY OP_CHECKSIG", "type": "pubkeyhash"}, "value": 2.728e-05, "n": 0}, {"scriptPubKey": {"reqSigs": 1, "hex": "a914e8db75c900cf08f06518e96d167331f2a4abfb3387", "addresses": ["3NvFbQMAkkqEFj4i1sYPPLkSWzxTFUchjA"], "asm": "OP_HASH160 e8db75c900cf08f06518e96d167331f2a4abfb33 OP_EQUAL", "type": "scripthash"}, "value": 8.08e-05, "n": 1}], "hex": "01000000000101ecc30786b00f360cbe5fdbfab891a04737ab70a02e3f1f7b2eb9ccbfe31c261e0000000023220020941cfaff8837763dc1f69ff82b6d6553fdea17a41cfc29a04403293eedd8ccc7ffffffff02a80a0000000000001976a9149a1b8f9b1fa2d2297863adb1cb11c71df455684888ac901f00000000000017a914e8db75c900cf08f06518e96d167331f2a4abfb3387040047304402200ec1c660b7f39f5615bcda6cac697f99ad396c959cac6e9aa272a00503899f9b022059507a60f9affacf0af111eb72020af75de5cfb4478f4a04093c6fc7ebaaa139014830450221009ec525482df8e7a9504b7b0a97ea69555136e757eb9fbb46f9a4935126cd970a02200aa1812ec9f01be5bebf8c59cf668bc1496f57a47ea0a852e71acaffe3a335f60147522102531db3a5883f29bab4241dd0cd726936667bcda445d89bdd22244e828b6993342103148c80a5bdfddb05ff5bcffc397c8ca748d8b435ec6a175bc9d7bfc7fc6f853752ae00000000", "vin": [{"txinwitness": ["", "304402200ec1c660b7f39f5615bcda6cac697f99ad396c959cac6e9aa272a00503899f9b022059507a60f9affacf0af111eb72020af75de5cfb4478f4a04093c6fc7ebaaa13901", "30450221009ec525482df8e7a9504b7b0a97ea69555136e757eb9fbb46f9a4935126cd970a02200aa1812ec9f01be5bebf8c59cf668bc1496f57a47ea0a852e71acaffe3a335f601", "522102531db3a5883f29bab4241dd0cd726936667bcda445d89bdd22244e828b6993342103148c80a5bdfddb05ff5bcffc397c8ca748d8b435ec6a175bc9d7bfc7fc6f853752ae"], "sequence": 4294967295, "scriptSig": {"hex": "220020941cfaff8837763dc1f69ff82b6d6553fdea17a41cfc29a04403293eedd8ccc7", "asm": "0020941cfaff8837763dc1f69ff82b6d6553fdea17a41cfc29a04403293eedd8ccc7"}, "vout": 0, "txid": "1e261ce3bfccb92e7b1f3f2ea070ab3747a091b8fadb5fbe0c360fb08607c3ec"}], "txid": "346404e001dd6133a3dadade68c59f0c6cbe0a0ad5cdb490eae088c93e7d2e03", "blocktime": 1537872475, "version": 1, "confirmations": 11487, "time": 1537872475, "locktime": 0, "vsize": 208, "size": 373}