{"hash": "34657e0c8e763487ec9f0ef9017dac56ee82aa93329f8ee677d019c532d76c12", "blockhash": "0000000000000000001f76057863aec43deb6fa401d9628bb513d65a8098bfab", "vout": [{"scriptPubKey": {"reqSigs": 1, "hex": "76a914914e93a8550911bf0d56797dbf4fff349f531fea88ac", "addresses": ["1EFK7Rj6KgK5gujRPeBf5BTWwuLoMjam8y"], "asm": "OP_DUP OP_HASH160 914e93a8550911bf0d56797dbf4fff349f531fea OP_EQUALVERIFY OP_CHECKSIG", "type": "pubkeyhash"}, "value": 0.0176215, "n": 0}, {"scriptPubKey": {"reqSigs": 1, "hex": "76a9141dd0039212528ca9c3ca1840ce571bf775395cef88ac", "addresses": ["13idndHKprXdGSYMRn7hZjkyzgfJt3XMNT"], "asm": "OP_DUP OP_HASH160 1dd0039212528ca9c3ca1840ce571bf775395cef OP_EQUALVERIFY OP_CHECKSIG", "type": "pubkeyhash"}, "value": 0.01229387, "n": 1}], "hex": "020000000370f291ed12c20fb57ccd54428b2f376f145735ced091cb4d40e9b4f5c62db30c010000006a473044022027fdcca20c3a9009dbc47ce88d53877fe245234e057b0089bbad8e41b33514d60220792a55784c6782a1a88226452d94ba8e5638ad22c6ae2626a01a45d46383ae800121035586b0e5acd6b36a26f1274037d7e924f0867b5625295c5afd9ff0fd181ef085feffffffb4e1b01232dd89d4e20d6145d7c0566d6ab023e78f8422c4eb99b719bff29d29010000006b483045022100bf237b45bc64f8af24b6eb025f20867e5e3c384a81cc2f4ac5e03d255b77da83022027fc17698b430e4072f57ed1fe404c4bced3eb027bfccd87739822712b532fd301210272498454f04845abe5ed9de543c91824254d784b41181ba3b5a0c23ffe913f0cfeffffff959bfe19653860038a10d4aad036c8bf68f387c27262080fd2e350b451530cb3000000006b4830450221008b985fa0823531b59b94e5fc8678a4a8618a751e284531ea237c2219fbd157080220266ad9eb85fe6b1d6a41b0e9c350704416a5f3dfca116afa3b9324924c8794f4012103f761ab7ebf883a8b278340977ba4a43935cafb08aa716ea5d0d64d91636e9e2efeffffff0266e31a00000000001976a914914e93a8550911bf0d56797dbf4fff349f531fea88ac4bc21200000000001976a9141dd0039212528ca9c3ca1840ce571bf775395cef88ac13490800", "vin": [{"sequence": 4294967294, "scriptSig": {"hex": "473044022027fdcca20c3a9009dbc47ce88d53877fe245234e057b0089bbad8e41b33514d60220792a55784c6782a1a88226452d94ba8e5638ad22c6ae2626a01a45d46383ae800121035586b0e5acd6b36a26f1274037d7e924f0867b5625295c5afd9ff0fd181ef085", "asm": "3044022027fdcca20c3a9009dbc47ce88d53877fe245234e057b0089bbad8e41b33514d60220792a55784c6782a1a88226452d94ba8e5638ad22c6ae2626a01a45d46383ae80[ALL] 035586b0e5acd6b36a26f1274037d7e924f0867b5625295c5afd9ff0fd181ef085"}, "vout": 1, "txid": "0cb32dc6f5b4e9404dcb91d0ce3557146f372f8b4254cd7cb50fc212ed91f270"}, {"sequence": 4294967294, "scriptSig": {"hex": "483045022100bf237b45bc64f8af24b6eb025f20867e5e3c384a81cc2f4ac5e03d255b77da83022027fc17698b430e4072f57ed1fe404c4bced3eb027bfccd87739822712b532fd301210272498454f04845abe5ed9de543c91824254d784b41181ba3b5a0c23ffe913f0c", "asm": "3045022100bf237b45bc64f8af24b6eb025f20867e5e3c384a81cc2f4ac5e03d255b77da83022027fc17698b430e4072f57ed1fe404c4bced3eb027bfccd87739822712b532fd3[ALL] 0272498454f04845abe5ed9de543c91824254d784b41181ba3b5a0c23ffe913f0c"}, "vout": 1, "txid": "299df2bf19b799ebc422848fe723b06a6d56c0d745610de2d489dd3212b0e1b4"}, {"sequence": 4294967294, "scriptSig": {"hex": "4830450221008b985fa0823531b59b94e5fc8678a4a8618a751e284531ea237c2219fbd157080220266ad9eb85fe6b1d6a41b0e9c350704416a5f3dfca116afa3b9324924c8794f4012103f761ab7ebf883a8b278340977ba4a43935cafb08aa716ea5d0d64d91636e9e2e", "asm": "30450221008b985fa0823531b59b94e5fc8678a4a8618a751e284531ea237c2219fbd157080220266ad9eb85fe6b1d6a41b0e9c350704416a5f3dfca116afa3b9324924c8794f4[ALL] 03f761ab7ebf883a8b278340977ba4a43935cafb08aa716ea5d0d64d91636e9e2e"}, "vout": 0, "txid": "b30c5351b450e3d20f086272c287f368bfc836d0aad4108a0360386519fe9b95"}], "txid": "34657e0c8e763487ec9f0ef9017dac56ee82aa93329f8ee677d019c532d76c12", "blocktime": 1537873891, "version": 2, "confirmations": 11478, "time": 1537873891, "locktime": 542995, "vsize": 521, "size": 521}