{"hash": "7f7c2b088e0058b7b685c82810efbbc1e946f73180fb2fc09b855059031249aa", "blockhash": "00000000000000000024a2167bbff67b0be802c0b01cdd79e6331c2be6459f87", "vout": [{"scriptPubKey": {"reqSigs": 1, "hex": "76a914b8f0ac4b0dee3d0081f2462d1acd9e83d51f66e988ac", "addresses": ["1HrseYyvbDZy8DHCGQt1mYZaNQmz8rtZWk"], "asm": "OP_DUP OP_HASH160 b8f0ac4b0dee3d0081f2462d1acd9e83d51f66e9 OP_EQUALVERIFY OP_CHECKSIG", "type": "pubkeyhash"}, "value": 0.00170326, "n": 0}, {"scriptPubKey": {"reqSigs": 1, "hex": "00141dd3b642371029f6a1f3cbd916a93ec1fdfdb1a7", "addresses": ["bc1qrhfmvs3hzq5ldg0ne0v3d2f7c87lmvd8u46d7j"], "asm": "0 1dd3b642371029f6a1f3cbd916a93ec1fdfdb1a7", "type": "witness_v0_keyhash"}, "value": 5.283e-05, "n": 1}], "hex": "010000000001019275aeae8eb0d4dc7b26a600adf22b57b901a37adcffc4981e9775504c9c8aa30000000000ffffffff0256990200000000001976a914b8f0ac4b0dee3d0081f2462d1acd9e83d51f66e988aca3140000000000001600141dd3b642371029f6a1f3cbd916a93ec1fdfdb1a702483045022100f70d5f2d242f2f9824869379ba185d9ed9de92a0cb1bdd9cd720026e0638f5e7022005c74bbb91b827a190b68ab036c52b57cbd23f03ad445212414bf96a79a72d280121028b6c3799002c8260e66e9c3d5d6ecf5a909a8fb3c114c8e2d1dfe48633bfc48200000000", "vin": [{"txinwitness": ["3045022100f70d5f2d242f2f9824869379ba185d9ed9de92a0cb1bdd9cd720026e0638f5e7022005c74bbb91b827a190b68ab036c52b57cbd23f03ad445212414bf96a79a72d2801", "028b6c3799002c8260e66e9c3d5d6ecf5a909a8fb3c114c8e2d1dfe48633bfc482"], "sequence": 4294967295, "scriptSig": {"hex": "", "asm": ""}, "vout": 0, "txid": "a38a9c4c5075971e98c4ffdc7aa301b9572bf2ad00a6267bdcd4b08eaeae7592"}], "txid": "346bebcbc9192b2596aacd2c70bb634a4f33f45ee1afa9fa33396e5ab2ed30ab", "blocktime": 1537870564, "version": 1, "confirmations": 11515, "time": 1537870564, "locktime": 0, "vsize": 144, "size": 226}