{"hash": "346c4c6466badc18b9cf21186f70b7d215b09f8d6a6c442dceac5d436d077422", "blockhash": "0000000000000000001f0ddff1eddb255c1121bcd4da4f1bc9a0da00cae72433", "vout": [{"scriptPubKey": {"reqSigs": 1, "hex": "76a914c8f5361e6bb746e11b2c86f777a8f21dd7158eda88ac", "addresses": ["1KKZtxGmJVLwcuihG8gLm3hwHdo216crgH"], "asm": "OP_DUP OP_HASH160 c8f5361e6bb746e11b2c86f777a8f21dd7158eda OP_EQUALVERIFY OP_CHECKSIG", "type": "pubkeyhash"}, "value": 0.00522401, "n": 0}, {"scriptPubKey": {"reqSigs": 1, "hex": "76a914134041961a7eac551e335a0f3dad2583cc63bfd788ac", "addresses": ["12knpF8SURafS6b5LQhP6G4ZGNtCzo8QAj"], "asm": "OP_DUP OP_HASH160 134041961a7eac551e335a0f3dad2583cc63bfd7 OP_EQUALVERIFY OP_CHECKSIG", "type": "pubkeyhash"}, "value": 0.15, "n": 1}], "hex": "010000000befdad2ca2f7f631089ba10f75a49c046891a6e8cf133ec2acdafae060d62601e450a00006b483045022100c5f3706c2412884d0b62076082bc1d3cd42d5921ab519014a45256951effbc7d02203a91e2b37b6d546d045beae7eccf7140bb9b9232428384e933b04412d0f441cf012103ea48bc9c954d0e2fc9c06d254317f53db31def4ef20bbb4471e8440fbe224c36ffffffffedabf0db51765a5f52bacc67fcb689943e275367946e530c547d0ea957bef528460000006b4830450221008833e4d91dae9e0c8a06a151b5c8b29fb9e87def9fee849aeda370118650ec4e022050d94d92fd3c0d65416a9356739e64cc0b914cc85cb3911d5d370b3a061d9992012103ea48bc9c954d0e2fc9c06d254317f53db31def4ef20bbb4471e8440fbe224c36ffffffff01f1faa61e7e6168725627a663885d177bef65796e7cc77e7d54a84505c7352d820800006b483045022100d415a807de08a8df8799e4aa866f3f7d24e3f2a44e1770e213be39650d59a71d02202446be2a54ca8808a19dd0515b04699afb082add9bd34e8164f881cea19ede68012103ea48bc9c954d0e2fc9c06d254317f53db31def4ef20bbb4471e8440fbe224c36ffffffff9bcce51e5b1e86e4b75cd0f4a7982a502b38b12b171e3aadf46cacfba1fa125f4c0000006a47304402201a82d6b09d286c3a1f6d67a4bea0d74963718915e474f4470cd7ac09a1748df102207ad950893dae6fce5cf9e1696cef13306c1abe976343c6863f2e0ca0fc5686df012103ea48bc9c954d0e2fc9c06d254317f53db31def4ef20bbb4471e8440fbe224c36ffffffff5a05384f59086b754c1483f9450189e28ca66ca7d66217089fb91c18e1b0b16c010000006a47304402203b6d9f3796bf681c0e6902e1110e0bb7532bc6de143a5cc76a54adff8b5df24502203109238d6ca4490b35210394d3267a1884d80b3df46624cae7b8b6318873254c0121020bfe2a7eb7033478cfa700a3cd9dce0c6aa3dbfa9e1ee9f1802e8d7dc0ef3028ffffffffcdc53f5bbb698ed047e610bdad43a3ce8c92a84dceb21176673e088104e83b79b80800006a47304402202fa0edacf9dc39549277f43a7caa9466537e0ce240d8c98590e0124762c8820d02200149e21847a1d589c56a7b942aff3ce06c176dd046edc946e58112dfae157dc8012103ea48bc9c954d0e2fc9c06d254317f53db31def4ef20bbb4471e8440fbe224c36ffffffff8ae5ef79cfe01a6358a73d4b6f39274b9a0c323a7abe96c2cdb8e8c4a0f3f385410a00006b483045022100c1af204959c6d3b2026c4234d3ebb5295420df2491658ffc200d1f5c134170d702205ca837fff33a47df03ec584884a9ffc88e212cc1f17cbf63d1e704200c2fffbc012103ea48bc9c954d0e2fc9c06d254317f53db31def4ef20bbb4471e8440fbe224c36ffffffff9aa9815c140cf2629db6bc7943d08e492dd62b2f9e42ec968e40c0000b22e4983a0a00006b483045022100fbc9489ebe24fd4fd869de8c248164cbc843f00b740ab3f0c34e2c5b6fde8d7f02205a79a226faece2e327728cc364f4fc413791332a9d1864ab0db196010e3972df012103ea48bc9c954d0e2fc9c06d254317f53db31def4ef20bbb4471e8440fbe224c36ffffffff41cd4100ca2cec86c7a34a19d7530629d41775b79aa86ce162b96b0359ed60a84e0a00006a47304402201950828c8962ea5e3a714618ef8c242382b42b1a6ce99c41ca3e48df504b2483022048035e330758cb21f498042b0138b85bb9c146fefb8b8b487b325eed02e5db44012103ea48bc9c954d0e2fc9c06d254317f53db31def4ef20bbb4471e8440fbe224c36ffffffff8f4790d061d7a7a1cb9fc8410167edafff3c93ac9201a049d18a2e99568c80ea490a00006b483045022100d8c6c9fc33af4b359c9eaa4b6512e41ce28498d787631e112645861241c0328502202104f7684563c64b927fcf256b0db18467062a2b5ce66fe1353ff3175db21624012103ea48bc9c954d0e2fc9c06d254317f53db31def4ef20bbb4471e8440fbe224c36ffffffff2bf03647701c8d3724aa30dc5f9e8c99de3a042636686047c263862010fe10eb4a0a00006b4830450221008e3736c62395d31a2c435821b196386c50f3a3ab3ca1ff184023bccc0253cab1022049d08e072b3587117cfa50eb959ae664dca4b28d5449c4158ea9d6fda893a4d0012103ea48bc9c954d0e2fc9c06d254317f53db31def4ef20bbb4471e8440fbe224c36ffffffff02a1f80700000000001976a914c8f5361e6bb746e11b2c86f777a8f21dd7158eda88acc0e1e400000000001976a914134041961a7eac551e335a0f3dad2583cc63bfd788ac00000000", "vin": [{"sequence": 4294967295, "scriptSig": {"hex": "483045022100c5f3706c2412884d0b62076082bc1d3cd42d5921ab519014a45256951effbc7d02203a91e2b37b6d546d045beae7eccf7140bb9b9232428384e933b04412d0f441cf012103ea48bc9c954d0e2fc9c06d254317f53db31def4ef20bbb4471e8440fbe224c36", "asm": "3045022100c5f3706c2412884d0b62076082bc1d3cd42d5921ab519014a45256951effbc7d02203a91e2b37b6d546d045beae7eccf7140bb9b9232428384e933b04412d0f441cf[ALL] 03ea48bc9c954d0e2fc9c06d254317f53db31def4ef20bbb4471e8440fbe224c36"}, "vout": 2629, "txid": "1e60620d06aeafcd2aec33f18c6e1a8946c0495af710ba8910637f2fcad2daef"}, {"sequence": 4294967295, "scriptSig": {"hex": "4830450221008833e4d91dae9e0c8a06a151b5c8b29fb9e87def9fee849aeda370118650ec4e022050d94d92fd3c0d65416a9356739e64cc0b914cc85cb3911d5d370b3a061d9992012103ea48bc9c954d0e2fc9c06d254317f53db31def4ef20bbb4471e8440fbe224c36", "asm": "30450221008833e4d91dae9e0c8a06a151b5c8b29fb9e87def9fee849aeda370118650ec4e022050d94d92fd3c0d65416a9356739e64cc0b914cc85cb3911d5d370b3a061d9992[ALL] 03ea48bc9c954d0e2fc9c06d254317f53db31def4ef20bbb4471e8440fbe224c36"}, "vout": 70, "txid": "28f5be57a90e7d540c536e946753273e9489b6fc67ccba525f5a7651dbf0abed"}, {"sequence": 4294967295, "scriptSig": {"hex": "483045022100d415a807de08a8df8799e4aa866f3f7d24e3f2a44e1770e213be39650d59a71d02202446be2a54ca8808a19dd0515b04699afb082add9bd34e8164f881cea19ede68012103ea48bc9c954d0e2fc9c06d254317f53db31def4ef20bbb4471e8440fbe224c36", "asm": "3045022100d415a807de08a8df8799e4aa866f3f7d24e3f2a44e1770e213be39650d59a71d02202446be2a54ca8808a19dd0515b04699afb082add9bd34e8164f881cea19ede68[ALL] 03ea48bc9c954d0e2fc9c06d254317f53db31def4ef20bbb4471e8440fbe224c36"}, "vout": 2178, "txid": "2d35c70545a8547d7ec77c6e7965ef7b175d8863a627567268617e1ea6faf101"}, {"sequence": 4294967295, "scriptSig": {"hex": "47304402201a82d6b09d286c3a1f6d67a4bea0d74963718915e474f4470cd7ac09a1748df102207ad950893dae6fce5cf9e1696cef13306c1abe976343c6863f2e0ca0fc5686df012103ea48bc9c954d0e2fc9c06d254317f53db31def4ef20bbb4471e8440fbe224c36", "asm": "304402201a82d6b09d286c3a1f6d67a4bea0d74963718915e474f4470cd7ac09a1748df102207ad950893dae6fce5cf9e1696cef13306c1abe976343c6863f2e0ca0fc5686df[ALL] 03ea48bc9c954d0e2fc9c06d254317f53db31def4ef20bbb4471e8440fbe224c36"}, "vout": 76, "txid": "5f12faa1fbac6cf4ad3a1e172bb1382b502a98a7f4d05cb7e4861e5b1ee5cc9b"}, {"sequence": 4294967295, "scriptSig": {"hex": "47304402203b6d9f3796bf681c0e6902e1110e0bb7532bc6de143a5cc76a54adff8b5df24502203109238d6ca4490b35210394d3267a1884d80b3df46624cae7b8b6318873254c0121020bfe2a7eb7033478cfa700a3cd9dce0c6aa3dbfa9e1ee9f1802e8d7dc0ef3028", "asm": "304402203b6d9f3796bf681c0e6902e1110e0bb7532bc6de143a5cc76a54adff8b5df24502203109238d6ca4490b35210394d3267a1884d80b3df46624cae7b8b6318873254c[ALL] 020bfe2a7eb7033478cfa700a3cd9dce0c6aa3dbfa9e1ee9f1802e8d7dc0ef3028"}, "vout": 1, "txid": "6cb1b0e1181cb99f081762d6a76ca68ce2890145f983144c756b08594f38055a"}, {"sequence": 4294967295, "scriptSig": {"hex": "47304402202fa0edacf9dc39549277f43a7caa9466537e0ce240d8c98590e0124762c8820d02200149e21847a1d589c56a7b942aff3ce06c176dd046edc946e58112dfae157dc8012103ea48bc9c954d0e2fc9c06d254317f53db31def4ef20bbb4471e8440fbe224c36", "asm": "304402202fa0edacf9dc39549277f43a7caa9466537e0ce240d8c98590e0124762c8820d02200149e21847a1d589c56a7b942aff3ce06c176dd046edc946e58112dfae157dc8[ALL] 03ea48bc9c954d0e2fc9c06d254317f53db31def4ef20bbb4471e8440fbe224c36"}, "vout": 2232, "txid": "793be80481083e677611b2ce4da8928ccea343adbd10e647d08e69bb5b3fc5cd"}, {"sequence": 4294967295, "scriptSig": {"hex": "483045022100c1af204959c6d3b2026c4234d3ebb5295420df2491658ffc200d1f5c134170d702205ca837fff33a47df03ec584884a9ffc88e212cc1f17cbf63d1e704200c2fffbc012103ea48bc9c954d0e2fc9c06d254317f53db31def4ef20bbb4471e8440fbe224c36", "asm": "3045022100c1af204959c6d3b2026c4234d3ebb5295420df2491658ffc200d1f5c134170d702205ca837fff33a47df03ec584884a9ffc88e212cc1f17cbf63d1e704200c2fffbc[ALL] 03ea48bc9c954d0e2fc9c06d254317f53db31def4ef20bbb4471e8440fbe224c36"}, "vout": 2625, "txid": "85f3f3a0c4e8b8cdc296be7a3a320c9a4b27396f4b3da758631ae0cf79efe58a"}, {"sequence": 4294967295, "scriptSig": {"hex": "483045022100fbc9489ebe24fd4fd869de8c248164cbc843f00b740ab3f0c34e2c5b6fde8d7f02205a79a226faece2e327728cc364f4fc413791332a9d1864ab0db196010e3972df012103ea48bc9c954d0e2fc9c06d254317f53db31def4ef20bbb4471e8440fbe224c36", "asm": "3045022100fbc9489ebe24fd4fd869de8c248164cbc843f00b740ab3f0c34e2c5b6fde8d7f02205a79a226faece2e327728cc364f4fc413791332a9d1864ab0db196010e3972df[ALL] 03ea48bc9c954d0e2fc9c06d254317f53db31def4ef20bbb4471e8440fbe224c36"}, "vout": 2618, "txid": "98e4220b00c0408e96ec429e2f2bd62d498ed04379bcb69d62f20c145c81a99a"}, {"sequence": 4294967295, "scriptSig": {"hex": "47304402201950828c8962ea5e3a714618ef8c242382b42b1a6ce99c41ca3e48df504b2483022048035e330758cb21f498042b0138b85bb9c146fefb8b8b487b325eed02e5db44012103ea48bc9c954d0e2fc9c06d254317f53db31def4ef20bbb4471e8440fbe224c36", "asm": "304402201950828c8962ea5e3a714618ef8c242382b42b1a6ce99c41ca3e48df504b2483022048035e330758cb21f498042b0138b85bb9c146fefb8b8b487b325eed02e5db44[ALL] 03ea48bc9c954d0e2fc9c06d254317f53db31def4ef20bbb4471e8440fbe224c36"}, "vout": 2638, "txid": "a860ed59036bb962e16ca89ab77517d4290653d7194aa3c786ec2cca0041cd41"}, {"sequence": 4294967295, "scriptSig": {"hex": "483045022100d8c6c9fc33af4b359c9eaa4b6512e41ce28498d787631e112645861241c0328502202104f7684563c64b927fcf256b0db18467062a2b5ce66fe1353ff3175db21624012103ea48bc9c954d0e2fc9c06d254317f53db31def4ef20bbb4471e8440fbe224c36", "asm": "3045022100d8c6c9fc33af4b359c9eaa4b6512e41ce28498d787631e112645861241c0328502202104f7684563c64b927fcf256b0db18467062a2b5ce66fe1353ff3175db21624[ALL] 03ea48bc9c954d0e2fc9c06d254317f53db31def4ef20bbb4471e8440fbe224c36"}, "vout": 2633, "txid": "ea808c56992e8ad149a00192ac933cffafed670141c89fcba1a7d761d090478f"}, {"sequence": 4294967295, "scriptSig": {"hex": "4830450221008e3736c62395d31a2c435821b196386c50f3a3ab3ca1ff184023bccc0253cab1022049d08e072b3587117cfa50eb959ae664dca4b28d5449c4158ea9d6fda893a4d0012103ea48bc9c954d0e2fc9c06d254317f53db31def4ef20bbb4471e8440fbe224c36", "asm": "30450221008e3736c62395d31a2c435821b196386c50f3a3ab3ca1ff184023bccc0253cab1022049d08e072b3587117cfa50eb959ae664dca4b28d5449c4158ea9d6fda893a4d0[ALL] 03ea48bc9c954d0e2fc9c06d254317f53db31def4ef20bbb4471e8440fbe224c36"}, "vout": 2634, "txid": "eb10fe10208663c24760683626043ade998c9e5fdc30aa24378d1c704736f02b"}], "txid": "346c4c6466badc18b9cf21186f70b7d215b09f8d6a6c442dceac5d436d077422", "blocktime": 1537872018, "version": 1, "confirmations": 11489, "time": 1537872018, "locktime": 0, "vsize": 1702, "size": 1702}