{"hash": "34730d869e51599e5045add18e3c35bd1846283d07b5487cfa8cdea3fb06375b", "blockhash": "0000000000000000000dcc0f55137456b1a82d3642486a52398922ac4d620174", "vout": [{"scriptPubKey": {"reqSigs": 1, "hex": "76a9148cd1e3beafb9d22e76b9d1dc0f10caf75ed2126c88ac", "addresses": ["1Dqb3F7USEP1Ar7SGUzSgp7efnPiYqUR2R"], "asm": "OP_DUP OP_HASH160 8cd1e3beafb9d22e76b9d1dc0f10caf75ed2126c OP_EQUALVERIFY OP_CHECKSIG", "type": "pubkeyhash"}, "value": 3e-05, "n": 0}, {"scriptPubKey": {"reqSigs": 1, "hex": "76a91462c39699a1eda51678277b9612585da41cf6653a88ac", "addresses": ["1A1DXWfVBcBhXJz6u1PjzC9yCBCQQP8uTG"], "asm": "OP_DUP OP_HASH160 62c39699a1eda51678277b9612585da41cf6653a OP_EQUALVERIFY OP_CHECKSIG", "type": "pubkeyhash"}, "value": 2.627e-05, "n": 1}], "hex": "0100000002caeaa3333d445cd1bb2b3a5d7a46268eb3b2201eaa47edd21ef1495839323fc6000000006b4830450221009fcebfa4bf9a0e423b1aad3683a986f7c81b02746403fb93e2ba846bc38905f1022075efd9f575223f96e375beefbddd07cb1d68bd557b19d9e7ae9ab9f69552c97c012103336c16b091ddf4e710b8c5f4bb76b8fef84af0202ab484c9f553924b5cf4f6b0feffffff29e0e9c0f16e094ee61074073bbd87b7233c36bbb201c229df7151fb9909b4e9000000006a47304402203da5dac43f5229a04389a134ae251c699103a4bca7bbf30d71fbc166d950eea002207575e4152621e70ea8949b2bbb5d3f0a1c39448c49da6743a64762ff3921756b012103336c16b091ddf4e710b8c5f4bb76b8fef84af0202ab484c9f553924b5cf4f6b0feffffff02b80b0000000000001976a9148cd1e3beafb9d22e76b9d1dc0f10caf75ed2126c88ac430a0000000000001976a91462c39699a1eda51678277b9612585da41cf6653a88ac0b490800", "vin": [{"sequence": 4294967294, "scriptSig": {"hex": "4830450221009fcebfa4bf9a0e423b1aad3683a986f7c81b02746403fb93e2ba846bc38905f1022075efd9f575223f96e375beefbddd07cb1d68bd557b19d9e7ae9ab9f69552c97c012103336c16b091ddf4e710b8c5f4bb76b8fef84af0202ab484c9f553924b5cf4f6b0", "asm": "30450221009fcebfa4bf9a0e423b1aad3683a986f7c81b02746403fb93e2ba846bc38905f1022075efd9f575223f96e375beefbddd07cb1d68bd557b19d9e7ae9ab9f69552c97c[ALL] 03336c16b091ddf4e710b8c5f4bb76b8fef84af0202ab484c9f553924b5cf4f6b0"}, "vout": 0, "txid": "c63f32395849f11ed2ed47aa1e20b2b38e26467a5d3a2bbbd15c443d33a3eaca"}, {"sequence": 4294967294, "scriptSig": {"hex": "47304402203da5dac43f5229a04389a134ae251c699103a4bca7bbf30d71fbc166d950eea002207575e4152621e70ea8949b2bbb5d3f0a1c39448c49da6743a64762ff3921756b012103336c16b091ddf4e710b8c5f4bb76b8fef84af0202ab484c9f553924b5cf4f6b0", "asm": "304402203da5dac43f5229a04389a134ae251c699103a4bca7bbf30d71fbc166d950eea002207575e4152621e70ea8949b2bbb5d3f0a1c39448c49da6743a64762ff3921756b[ALL] 03336c16b091ddf4e710b8c5f4bb76b8fef84af0202ab484c9f553924b5cf4f6b0"}, "vout": 0, "txid": "e9b40999fb5171df29c201b2bb363c23b787bd3b077410e64e096ef1c0e9e029"}], "txid": "34730d869e51599e5045add18e3c35bd1846283d07b5487cfa8cdea3fb06375b", "blocktime": 1537870268, "version": 1, "confirmations": 11520, "time": 1537870268, "locktime": 542987, "vsize": 373, "size": 373}