{"hash": "347d394c9f9f1903fa6a5c92fbfb6432142bc22ab00a88636b998633640026fa", "blockhash": "0000000000000000000e13cef7c366c0283d82e591d1acd082e914b08063cdf1", "vout": [{"scriptPubKey": {"reqSigs": 1, "hex": "76a914cf166294ba13e13d115fac547077db1239f053b688ac", "addresses": ["1Ksyh3zmFuzdMPGxnA4dAbvQKaEWKr5141"], "asm": "OP_DUP OP_HASH160 cf166294ba13e13d115fac547077db1239f053b6 OP_EQUALVERIFY OP_CHECKSIG", "type": "pubkeyhash"}, "value": 0.0115512, "n": 0}, {"scriptPubKey": {"reqSigs": 1, "hex": "76a914eb43cc89b049bc42b30a268553702e03a82910e688ac", "addresses": ["1NSy1qTuNbNj9j1DHw1QtnGT3oqztGbCHM"], "asm": "OP_DUP OP_HASH160 eb43cc89b049bc42b30a268553702e03a82910e6 OP_EQUALVERIFY OP_CHECKSIG", "type": "pubkeyhash"}, "value": 0.15648633, "n": 1}], "hex": "0100000004110895f76979c6ea7d939822d57d5c910897aab64b2d7cb35d62471fbd55fa98000000006a47304402207a2fb399fd9ec65112bb972f2bce5a89bcc92214b9ff1830c197f64adcef0aeb02203cabe77df54eba5510204ca55799a717f33a3b3d60f752b28eb6eebbe57b3ed2012102c1114ba734331e1e467cd20cfa9b13d60b11354b3d2ecb7b524dac01d9e9412fffffffff03f0f029b08c2a08ae5d5255091823ce5dcc0b9c8dfc82127b2ec62ec8f8dbe4030000006a4730440220713ad59f9097e9ef63a3731e3c1a210f4b266e8cc6bfa5e23e8ab3fd7733b45c022040d96d4a0adc7e905d247a8b585069feac60bc2c85c41febe4aff3e00ce4633301210358ffbd6ff7fe4f6b2826e82b17bcedbf34adc3d3ce7503f597ac7d989f0ba653ffffffff7e15a0db2c14b42783777fa4cc2f12ad1e12d4d4551d961ad16d5a68772325ee040000006b483045022100f2c65e0a19a71c46a4e5155192ac89b44cdb4663f68dc20003b85650ceef3bda02200b65b2f5ab275f50b4d1147bf5cbff05118f88906e28a5b3d53f740c396a013901210358ffbd6ff7fe4f6b2826e82b17bcedbf34adc3d3ce7503f597ac7d989f0ba653ffffffffb15e62570c5d0cc30d2b20cc4610c2fe224c7185a2d31085c32abcdf025e07fd030000006a47304402204d77f97126296136ff2416eaff57f99bca166bb480c13bd367f6d0d7f5ee3ae602207e4d2a03cdafbf66aa7e2294aee1fa9bf7a7b8c7e036a5ffaa1187d5ec7e2cbe01210358ffbd6ff7fe4f6b2826e82b17bcedbf34adc3d3ce7503f597ac7d989f0ba653ffffffff0230a01100000000001976a914cf166294ba13e13d115fac547077db1239f053b688ac79c7ee00000000001976a914eb43cc89b049bc42b30a268553702e03a82910e688ac00000000", "vin": [{"sequence": 4294967295, "scriptSig": {"hex": "47304402207a2fb399fd9ec65112bb972f2bce5a89bcc92214b9ff1830c197f64adcef0aeb02203cabe77df54eba5510204ca55799a717f33a3b3d60f752b28eb6eebbe57b3ed2012102c1114ba734331e1e467cd20cfa9b13d60b11354b3d2ecb7b524dac01d9e9412f", "asm": "304402207a2fb399fd9ec65112bb972f2bce5a89bcc92214b9ff1830c197f64adcef0aeb02203cabe77df54eba5510204ca55799a717f33a3b3d60f752b28eb6eebbe57b3ed2[ALL] 02c1114ba734331e1e467cd20cfa9b13d60b11354b3d2ecb7b524dac01d9e9412f"}, "vout": 0, "txid": "98fa55bd1f47625db37c2d4bb6aa9708915c7dd52298937deac67969f7950811"}, {"sequence": 4294967295, "scriptSig": {"hex": "4730440220713ad59f9097e9ef63a3731e3c1a210f4b266e8cc6bfa5e23e8ab3fd7733b45c022040d96d4a0adc7e905d247a8b585069feac60bc2c85c41febe4aff3e00ce4633301210358ffbd6ff7fe4f6b2826e82b17bcedbf34adc3d3ce7503f597ac7d989f0ba653", "asm": "30440220713ad59f9097e9ef63a3731e3c1a210f4b266e8cc6bfa5e23e8ab3fd7733b45c022040d96d4a0adc7e905d247a8b585069feac60bc2c85c41febe4aff3e00ce46333[ALL] 0358ffbd6ff7fe4f6b2826e82b17bcedbf34adc3d3ce7503f597ac7d989f0ba653"}, "vout": 3, "txid": "e4dbf8c82ec62e7b1282fc8d9c0bcc5dce23180955525dae082a8cb029f0f003"}, {"sequence": 4294967295, "scriptSig": {"hex": "483045022100f2c65e0a19a71c46a4e5155192ac89b44cdb4663f68dc20003b85650ceef3bda02200b65b2f5ab275f50b4d1147bf5cbff05118f88906e28a5b3d53f740c396a013901210358ffbd6ff7fe4f6b2826e82b17bcedbf34adc3d3ce7503f597ac7d989f0ba653", "asm": "3045022100f2c65e0a19a71c46a4e5155192ac89b44cdb4663f68dc20003b85650ceef3bda02200b65b2f5ab275f50b4d1147bf5cbff05118f88906e28a5b3d53f740c396a0139[ALL] 0358ffbd6ff7fe4f6b2826e82b17bcedbf34adc3d3ce7503f597ac7d989f0ba653"}, "vout": 4, "txid": "ee252377685a6dd11a961d55d4d4121ead122fcca47f778327b4142cdba0157e"}, {"sequence": 4294967295, "scriptSig": {"hex": "47304402204d77f97126296136ff2416eaff57f99bca166bb480c13bd367f6d0d7f5ee3ae602207e4d2a03cdafbf66aa7e2294aee1fa9bf7a7b8c7e036a5ffaa1187d5ec7e2cbe01210358ffbd6ff7fe4f6b2826e82b17bcedbf34adc3d3ce7503f597ac7d989f0ba653", "asm": "304402204d77f97126296136ff2416eaff57f99bca166bb480c13bd367f6d0d7f5ee3ae602207e4d2a03cdafbf66aa7e2294aee1fa9bf7a7b8c7e036a5ffaa1187d5ec7e2cbe[ALL] 0358ffbd6ff7fe4f6b2826e82b17bcedbf34adc3d3ce7503f597ac7d989f0ba653"}, "vout": 3, "txid": "fd075e02dfbc2ac38510d3a285714c22fec21046cc202b0dc30c5d0c57625eb1"}], "txid": "347d394c9f9f1903fa6a5c92fbfb6432142bc22ab00a88636b998633640026fa", "blocktime": 1537871767, "version": 1, "confirmations": 11495, "time": 1537871767, "locktime": 0, "vsize": 667, "size": 667}