{"hash": "3481889c2fd66a6250b286f383dbd176464cffe70492dcf1138a0794cdeb8d03", "blockhash": "00000000000000000017f5eb5941039fbcee6240d03bc1f2f8e35350df66a1d8", "vout": [{"scriptPubKey": {"reqSigs": 1, "hex": "76a914408752eaa926256b405f6404ef68195b6dd043be88ac", "addresses": ["16tCMkGosDV3gghycpnXp2tTYjag44rzuy"], "asm": "OP_DUP OP_HASH160 408752eaa926256b405f6404ef68195b6dd043be OP_EQUALVERIFY OP_CHECKSIG", "type": "pubkeyhash"}, "value": 0.02087, "n": 0}, {"scriptPubKey": {"reqSigs": 1, "hex": "a914e370231feecbfc25e2e2423a5a79bf79bfdca59887", "addresses": ["3NRbeX3vD5VaVE4TDU9ivCDsEf7NPPte6J"], "asm": "OP_HASH160 e370231feecbfc25e2e2423a5a79bf79bfdca598 OP_EQUAL", "type": "scripthash"}, "value": 10.22129628, "n": 1}], "hex": "01000000011991b5e0faf2ea8b28730c2ccad5fa8b98ddc7306c8662f2b34f90e3d719483601000000da004830450221008fb49ab5eb2ba617aa60a093676c6a3477eb1329ef3e66f09604f1668c1dd81e0220592cd11185620d45de3bbc2d8901b24a979b2e5b78e482482f43633bc381b0d301473044022043de1c53e389b9ed44602334252a561e0b0bf0eb8f1b09909560dd22e3f6e85b022065a814454c6c41d5b519c2bf92be43d15babcc03b947aa296f3d8d3a5eb7990d014752210327881b6abce6535553a3ce21fad12a7d74fd237ce7c4cd270a267162344e3082210256141f8eb687f5a68c5cc65054652dc25116fa285e44d72b44368827ffe77d9a52aeffffffff0258d81f00000000001976a914408752eaa926256b405f6404ef68195b6dd043be88acdc75ec3c0000000017a914e370231feecbfc25e2e2423a5a79bf79bfdca5988700000000", "vin": [{"sequence": 4294967295, "scriptSig": {"hex": "004830450221008fb49ab5eb2ba617aa60a093676c6a3477eb1329ef3e66f09604f1668c1dd81e0220592cd11185620d45de3bbc2d8901b24a979b2e5b78e482482f43633bc381b0d301473044022043de1c53e389b9ed44602334252a561e0b0bf0eb8f1b09909560dd22e3f6e85b022065a814454c6c41d5b519c2bf92be43d15babcc03b947aa296f3d8d3a5eb7990d014752210327881b6abce6535553a3ce21fad12a7d74fd237ce7c4cd270a267162344e3082210256141f8eb687f5a68c5cc65054652dc25116fa285e44d72b44368827ffe77d9a52ae", "asm": "0 30450221008fb49ab5eb2ba617aa60a093676c6a3477eb1329ef3e66f09604f1668c1dd81e0220592cd11185620d45de3bbc2d8901b24a979b2e5b78e482482f43633bc381b0d3[ALL] 3044022043de1c53e389b9ed44602334252a561e0b0bf0eb8f1b09909560dd22e3f6e85b022065a814454c6c41d5b519c2bf92be43d15babcc03b947aa296f3d8d3a5eb7990d[ALL] 52210327881b6abce6535553a3ce21fad12a7d74fd237ce7c4cd270a267162344e3082210256141f8eb687f5a68c5cc65054652dc25116fa285e44d72b44368827ffe77d9a52ae"}, "vout": 1, "txid": "364819d7e3904fb3f262866c30c7dd988bfad5ca2c0c73288beaf2fae0b59119"}], "txid": "3481889c2fd66a6250b286f383dbd176464cffe70492dcf1138a0794cdeb8d03", "blocktime": 1537874412, "version": 1, "confirmations": 11468, "time": 1537874412, "locktime": 0, "vsize": 335, "size": 335}