{"hash": "de3628f8a9aa20ad3c4da5ebc422f83c119a218018092002df2dd346558b66fa", "blockhash": "0000000000000000001f0ddff1eddb255c1121bcd4da4f1bc9a0da00cae72433", "vout": [{"scriptPubKey": {"reqSigs": 1, "hex": "a914eee5d3e63f5b160e33e0d51c232b6dd97bcffe9587", "addresses": ["3PUC4uk46YvMZFdb4FNWpgtj9GdV14qQtW"], "asm": "OP_HASH160 eee5d3e63f5b160e33e0d51c232b6dd97bcffe95 OP_EQUAL", "type": "scripthash"}, "value": 0.00883561, "n": 0}, {"scriptPubKey": {"reqSigs": 1, "hex": "76a9140a3195c50a139c1268b517078c4818eb7c3cee7288ac", "addresses": ["1vuA9XxA95fff3zonS6wemPTWBvQ16vN9"], "asm": "OP_DUP OP_HASH160 0a3195c50a139c1268b517078c4818eb7c3cee72 OP_EQUALVERIFY OP_CHECKSIG", "type": "pubkeyhash"}, "value": 0.00239833, "n": 1}], "hex": "02000000000101e4e5487956bd7bbe23efb329374327d0e5c3726c5c0541843d30238505de446b000000001716001460dd2d92f22ed63ea33759c7d3e2c71cd5112b48feffffff02697b0d000000000017a914eee5d3e63f5b160e33e0d51c232b6dd97bcffe9587d9a80300000000001976a9140a3195c50a139c1268b517078c4818eb7c3cee7288ac0247304402203a8513d4dddeffa2b4db9abdcc26363e4b319ecdaa29cfa6e3f8ba0e519d6b0d02201aec9aebe2e85308377bcc1837d7984bdff060b57e77b017891b6f85c15bc31e012103a812c1454f9f96f8b1f3ddd7edd392709983359708035565cbc4c33779faa0ea11490800", "vin": [{"txinwitness": ["304402203a8513d4dddeffa2b4db9abdcc26363e4b319ecdaa29cfa6e3f8ba0e519d6b0d02201aec9aebe2e85308377bcc1837d7984bdff060b57e77b017891b6f85c15bc31e01", "03a812c1454f9f96f8b1f3ddd7edd392709983359708035565cbc4c33779faa0ea"], "sequence": 4294967294, "scriptSig": {"hex": "16001460dd2d92f22ed63ea33759c7d3e2c71cd5112b48", "asm": "001460dd2d92f22ed63ea33759c7d3e2c71cd5112b48"}, "vout": 0, "txid": "6b44de058523303d8441055c6c72c3e5d027433729b3ef23be7bbd567948e5e4"}], "txid": "348843c2af2acf82a54e748846f923b901ba73cfce106476ec43e1b2f3a761d4", "blocktime": 1537872018, "version": 2, "confirmations": 11489, "time": 1537872018, "locktime": 542993, "vsize": 168, "size": 249}