{"hash": "34882a4513512500b8c6e5672382dc9e57196ba6bcd301baa1e6c86e9bd17174", "blockhash": "000000000000000000022b45ed06c6f4ccd3cf7fb5ba4856ebd2e58215665228", "vout": [{"scriptPubKey": {"type": "nulldata", "hex": "6a146f6d6e69000000000000001f00000005c7fbbb80", "asm": "OP_RETURN 6f6d6e69000000000000001f00000005c7fbbb80"}, "value": 0.0, "n": 0}, {"scriptPubKey": {"reqSigs": 1, "hex": "76a91403caede5b0535eb01199675f632679762ebec6e388ac", "addresses": ["1M48MGcjz5P7U8WG7j9mCHAcLLGzVTtw8"], "asm": "OP_DUP OP_HASH160 03caede5b0535eb01199675f632679762ebec6e3 OP_EQUALVERIFY OP_CHECKSIG", "type": "pubkeyhash"}, "value": 5.46e-06, "n": 1}, {"scriptPubKey": {"reqSigs": 1, "hex": "76a914a25dec4d0011064ef106a983c39c7a540699f22088ac", "addresses": ["1FoWyxwPXuj4C6abqwhjDWdz6D4PZgYRjA"], "asm": "OP_DUP OP_HASH160 a25dec4d0011064ef106a983c39c7a540699f220 OP_EQUALVERIFY OP_CHECKSIG", "type": "pubkeyhash"}, "value": 0.01995188, "n": 2}], "hex": "0100000001a44813c76173a4fe9689194c29809e35be05f1741d9b5e1e9e8bd44070ac1fea5c0000006a4730440220176579c7ad8eabf43faa9b2f8e4dd4a60af4cb7df17228ac1312f70b3b46c08a02207b2d496a8f6428030336524d978a0912a7d6c075e964116fca083fd049bf6aa6012103da5bac7b36d5aa38f531c6b9601e21bb598a4b6716ebed38b009a55dabde9440feffffff030000000000000000166a146f6d6e69000000000000001f00000005c7fbbb8022020000000000001976a91403caede5b0535eb01199675f632679762ebec6e388acb4711e00000000001976a914a25dec4d0011064ef106a983c39c7a540699f22088ac0b490800", "vin": [{"sequence": 4294967294, "scriptSig": {"hex": "4730440220176579c7ad8eabf43faa9b2f8e4dd4a60af4cb7df17228ac1312f70b3b46c08a02207b2d496a8f6428030336524d978a0912a7d6c075e964116fca083fd049bf6aa6012103da5bac7b36d5aa38f531c6b9601e21bb598a4b6716ebed38b009a55dabde9440", "asm": "30440220176579c7ad8eabf43faa9b2f8e4dd4a60af4cb7df17228ac1312f70b3b46c08a02207b2d496a8f6428030336524d978a0912a7d6c075e964116fca083fd049bf6aa6[ALL] 03da5bac7b36d5aa38f531c6b9601e21bb598a4b6716ebed38b009a55dabde9440"}, "vout": 92, "txid": "ea1fac7040d48b9e1e5e9b1d74f105be359e80294c198996fea47361c71348a4"}], "txid": "34882a4513512500b8c6e5672382dc9e57196ba6bcd301baa1e6c86e9bd17174", "blocktime": 1537869901, "version": 1, "confirmations": 11522, "time": 1537869901, "locktime": 542987, "vsize": 256, "size": 256}