{"hash": "348b94b135cf4113680931685b45afa5ceb2b7ae95cdc11199ed61db938af518", "blockhash": "00000000000000000004ffacab907a6b429b9a5745fa0b75af4234bf69dd7176", "vout": [{"scriptPubKey": {"reqSigs": 1, "hex": "76a914cff5fb750bc48054d02902548ea80e9c040dd15a88ac", "addresses": ["1KxbYrdBbHaSSVtJozW36sP7DdAtGLL68y"], "asm": "OP_DUP OP_HASH160 cff5fb750bc48054d02902548ea80e9c040dd15a OP_EQUALVERIFY OP_CHECKSIG", "type": "pubkeyhash"}, "value": 0.03644955, "n": 0}, {"scriptPubKey": {"type": "nulldata", "hex": "6a146f6d6e69000000000000001f00000004a817c800", "asm": "OP_RETURN 6f6d6e69000000000000001f00000004a817c800"}, "value": 0.0, "n": 1}, {"scriptPubKey": {"reqSigs": 1, "hex": "76a914845ed86f69d1900faef09a34c0101104cc9ed3d688ac", "addresses": ["1D4upJLtAnsyNsRkADvezvg7unf2FJFgs5"], "asm": "OP_DUP OP_HASH160 845ed86f69d1900faef09a34c0101104cc9ed3d6 OP_EQUALVERIFY OP_CHECKSIG", "type": "pubkeyhash"}, "value": 5.46e-06, "n": 2}], "hex": "010000000191da8a7e164f87fc68f04d074b326e60b34a0e3df74beb76c70b3f5935ce06e5000000006a47304402200619a74d5b80f27323553b906b835b93c20fbbe4264253217d4b446c5fcaf0a2022004bc50143e64bdf40cdb7d042e6a57f322dc6650fd54cf9b98fff4059a7cd9eb0121034c9ee28259d5e83fc3b92adc9f2d784bb204330205de629c33336451f91808faffffffff031b9e3700000000001976a914cff5fb750bc48054d02902548ea80e9c040dd15a88ac0000000000000000166a146f6d6e69000000000000001f00000004a817c80022020000000000001976a914845ed86f69d1900faef09a34c0101104cc9ed3d688ac00000000", "vin": [{"sequence": 4294967295, "scriptSig": {"hex": "47304402200619a74d5b80f27323553b906b835b93c20fbbe4264253217d4b446c5fcaf0a2022004bc50143e64bdf40cdb7d042e6a57f322dc6650fd54cf9b98fff4059a7cd9eb0121034c9ee28259d5e83fc3b92adc9f2d784bb204330205de629c33336451f91808fa", "asm": "304402200619a74d5b80f27323553b906b835b93c20fbbe4264253217d4b446c5fcaf0a2022004bc50143e64bdf40cdb7d042e6a57f322dc6650fd54cf9b98fff4059a7cd9eb[ALL] 034c9ee28259d5e83fc3b92adc9f2d784bb204330205de629c33336451f91808fa"}, "vout": 0, "txid": "e506ce35593f0bc776eb4bf73d0e4ab3606e324b074df068fc874f167e8ada91"}], "txid": "348b94b135cf4113680931685b45afa5ceb2b7ae95cdc11199ed61db938af518", "blocktime": 1537875543, "version": 1, "confirmations": 11464, "time": 1537875543, "locktime": 0, "vsize": 256, "size": 256}