{"hash": "3493a8fbd0ea712ec534ebfd675f0e98fe80906e2e90b7126797b532beb67940", "blockhash": "0000000000000000000e13cef7c366c0283d82e591d1acd082e914b08063cdf1", "vout": [{"scriptPubKey": {"reqSigs": 1, "hex": "a9146e584c20bfcaf99c537666a09c969aabfb32bd9b87", "addresses": ["3BkU2eu9UsXjFn9uR1NPVdqmUnMYK8joQx"], "asm": "OP_HASH160 6e584c20bfcaf99c537666a09c969aabfb32bd9b OP_EQUAL", "type": "scripthash"}, "value": 0.001, "n": 0}, {"scriptPubKey": {"reqSigs": 1, "hex": "76a914970cf005a1a9dcfbf1f948f68b482a9aa646d39188ac", "addresses": ["1EmgXtNEepFJxNNZo4fbC9S9bgDe1sQ4xN"], "asm": "OP_DUP OP_HASH160 970cf005a1a9dcfbf1f948f68b482a9aa646d391 OP_EQUALVERIFY OP_CHECKSIG", "type": "pubkeyhash"}, "value": 0.08648644, "n": 1}], "hex": "0100000001d62f7bf58d1b6a8badc34fc69f55bd9b14d75a719811723f97475a4ba965e8de010000006a473044022058ecb75f812e912c9d3af146c26d7bbf3d570510d7ce96eb4508e7160310fce8022072fd85f15f2f981786e38ca4ec39f00cd632755b5724f383ae33941c46f8be6701210348463f42b1cb83808a84d0eea07cd36fa641435567e7197873a8c07fdc6a8451ffffffff02a08601000000000017a9146e584c20bfcaf99c537666a09c969aabfb32bd9b87c4f78300000000001976a914970cf005a1a9dcfbf1f948f68b482a9aa646d39188ac00000000", "vin": [{"sequence": 4294967295, "scriptSig": {"hex": "473044022058ecb75f812e912c9d3af146c26d7bbf3d570510d7ce96eb4508e7160310fce8022072fd85f15f2f981786e38ca4ec39f00cd632755b5724f383ae33941c46f8be6701210348463f42b1cb83808a84d0eea07cd36fa641435567e7197873a8c07fdc6a8451", "asm": "3044022058ecb75f812e912c9d3af146c26d7bbf3d570510d7ce96eb4508e7160310fce8022072fd85f15f2f981786e38ca4ec39f00cd632755b5724f383ae33941c46f8be67[ALL] 0348463f42b1cb83808a84d0eea07cd36fa641435567e7197873a8c07fdc6a8451"}, "vout": 1, "txid": "dee865a94b5a47973f721198715ad7149bbd559fc64fc3ad8b6a1b8df57b2fd6"}], "txid": "3493a8fbd0ea712ec534ebfd675f0e98fe80906e2e90b7126797b532beb67940", "blocktime": 1537871767, "version": 1, "confirmations": 11495, "time": 1537871767, "locktime": 0, "vsize": 223, "size": 223}