{"hash": "998ef752b76847be72993258a8de005fd3493773d682084784e722ba18c1c6f4", "blockhash": "00000000000000000024a2167bbff67b0be802c0b01cdd79e6331c2be6459f87", "vout": [{"scriptPubKey": {"reqSigs": 1, "hex": "a91469f3748516151700a7dd59caba2afd1e69157d2687", "addresses": ["3BMEXFGDJvhCYfCx7dmxnrHoMcxriV9oUj"], "asm": "OP_HASH160 69f3748516151700a7dd59caba2afd1e69157d26 OP_EQUAL", "type": "scripthash"}, "value": 0.00089849, "n": 0}, {"scriptPubKey": {"reqSigs": 1, "hex": "a914e80b0505d7bc80aee4f4e783406c8ba3b419530f87", "addresses": ["3Nqwthr5FRVP7EnZUg15m8f8AruWitXQ3s"], "asm": "OP_HASH160 e80b0505d7bc80aee4f4e783406c8ba3b419530f OP_EQUAL", "type": "scripthash"}, "value": 0.00031303, "n": 1}], "hex": "010000000001019eec77f10f62c16c57999726ea47c5351c94d64c9ae4957b601685c8dbbc0802010000002322002051f6c2c4aed03b72234f3eba99e9520fd013dbf1eb7607f02a5d982a5965ecfcffffffff02f95e01000000000017a91469f3748516151700a7dd59caba2afd1e69157d2687477a00000000000017a914e80b0505d7bc80aee4f4e783406c8ba3b419530f870400483045022100cc1692648258818da3352cc5cada245ddced3a5dc2993babe5d733a0587ab6dd022027ff76245a57e988271a7203c22d67b2a9978c051c609932ed521e684d8a2217014830450221009c40b21f98b36a317e05bc3949842ca23a24d66d71e10f1718479af5a93d581d02205bc6fa9705f00f5f1f9e0ab9bef4183b60678801aecab39420428898b1bcfc370169522102829ed6630b27b840129fa854a5605786369ed76315b458d37d9989f44c10f71321033616ef6fcd717a552f6ea4e04a2798c41267ecc4c8dac8bc45829635ecb36f092102b4ba2b24a8b75a4527c81b88cc522e07627fc2a86934a1731278ce1d350cdfda53ae00000000", "vin": [{"txinwitness": ["", "3045022100cc1692648258818da3352cc5cada245ddced3a5dc2993babe5d733a0587ab6dd022027ff76245a57e988271a7203c22d67b2a9978c051c609932ed521e684d8a221701", "30450221009c40b21f98b36a317e05bc3949842ca23a24d66d71e10f1718479af5a93d581d02205bc6fa9705f00f5f1f9e0ab9bef4183b60678801aecab39420428898b1bcfc3701", "522102829ed6630b27b840129fa854a5605786369ed76315b458d37d9989f44c10f71321033616ef6fcd717a552f6ea4e04a2798c41267ecc4c8dac8bc45829635ecb36f092102b4ba2b24a8b75a4527c81b88cc522e07627fc2a86934a1731278ce1d350cdfda53ae"], "sequence": 4294967295, "scriptSig": {"hex": "22002051f6c2c4aed03b72234f3eba99e9520fd013dbf1eb7607f02a5d982a5965ecfc", "asm": "002051f6c2c4aed03b72234f3eba99e9520fd013dbf1eb7607f02a5d982a5965ecfc"}, "vout": 1, "txid": "0208bcdbc88516607b95e49a4cd6941c35c547ea269799576cc1620ff177ec9e"}], "txid": "349bd961d78fa490ec8e7798efab9290a29aff29635bce2d1fe303c7877e1a72", "blocktime": 1537870564, "version": 1, "confirmations": 11515, "time": 1537870564, "locktime": 0, "vsize": 214, "size": 406}