{"hash": "cc44c375f8a06b652c41b4179b350b2a4a527d66f73dec690dd32192ba80d09e", "blockhash": "0000000000000000000e13cef7c366c0283d82e591d1acd082e914b08063cdf1", "vout": [{"scriptPubKey": {"reqSigs": 1, "hex": "a914b6da46ad48283e9bae79f9a6fe81aa3113184c9687", "addresses": ["3JMrPYZMXpYEEKp26Dp97AaPZ8eiTPWkqy"], "asm": "OP_HASH160 b6da46ad48283e9bae79f9a6fe81aa3113184c96 OP_EQUAL", "type": "scripthash"}, "value": 0.01002576, "n": 0}, {"scriptPubKey": {"reqSigs": 1, "hex": "a9148321bac2202c2b1e12fe11bf27bf5f01f34f5b0587", "addresses": ["3DeNrEzKoUdDa6m3FJvp4jPBk1JrUfuUHz"], "asm": "OP_HASH160 8321bac2202c2b1e12fe11bf27bf5f01f34f5b05 OP_EQUAL", "type": "scripthash"}, "value": 0.00190152, "n": 1}], "hex": "02000000000102c73e618fcede912091cabda9a57c184ed5007240b25ba402c093d60c3738b5680000000017160014000b609ad5984cbf3c4d165322cff1353dda1621feffffffd445a27ea5e188b9dbd5cecc14be21677108348f81d1f2bfe9172d844f555aaf0000000017160014cfee55c5ca249e9997eb61abec92d17e1dc27cfefeffffff02504c0f000000000017a914b6da46ad48283e9bae79f9a6fe81aa3113184c9687c8e602000000000017a9148321bac2202c2b1e12fe11bf27bf5f01f34f5b058702483045022100e4a83f419e1b5497cca1587c518e3315c4ff2c2f9e12d9b1d1a36d2e3b555ae2022067165594b8483c95fe6ae8de9775bbb49e2b77f3ddc48c49a3e61b5ef3602522012103603019ea3d9a05fdb6bc34b34e769461569cc7d4f6f7f9096bfdaf107a18c1aa0247304402207afa8a0e39c8ba08fd0d8d25db512784dc27ff4e43807f4a6873fab19e78ecc902207b7f0c2c46d5c0c57810e8c8a536f6dd5f0402f78389c736356b7b67fa12fa2e01210236978072d5f0d0776c66c37aa49ba6fb1537f1559071c933b2288fc0e1aa6cdc10490800", "vin": [{"txinwitness": ["3045022100e4a83f419e1b5497cca1587c518e3315c4ff2c2f9e12d9b1d1a36d2e3b555ae2022067165594b8483c95fe6ae8de9775bbb49e2b77f3ddc48c49a3e61b5ef360252201", "03603019ea3d9a05fdb6bc34b34e769461569cc7d4f6f7f9096bfdaf107a18c1aa"], "sequence": 4294967294, "scriptSig": {"hex": "160014000b609ad5984cbf3c4d165322cff1353dda1621", "asm": "0014000b609ad5984cbf3c4d165322cff1353dda1621"}, "vout": 0, "txid": "68b538370cd693c002a45bb2407200d54e187ca5a9bdca912091dece8f613ec7"}, {"txinwitness": ["304402207afa8a0e39c8ba08fd0d8d25db512784dc27ff4e43807f4a6873fab19e78ecc902207b7f0c2c46d5c0c57810e8c8a536f6dd5f0402f78389c736356b7b67fa12fa2e01", "0236978072d5f0d0776c66c37aa49ba6fb1537f1559071c933b2288fc0e1aa6cdc"], "sequence": 4294967294, "scriptSig": {"hex": "160014cfee55c5ca249e9997eb61abec92d17e1dc27cfe", "asm": "0014cfee55c5ca249e9997eb61abec92d17e1dc27cfe"}, "vout": 0, "txid": "af5a554f842d17e9bff2d1818f3408716721be14ccced5dbb988e1a57ea245d4"}], "txid": "349d0c15521df3fd8b5ac467918b694517f91217bb298753fcee1c9e98f6b320", "blocktime": 1537871767, "version": 2, "confirmations": 11495, "time": 1537871767, "locktime": 542992, "vsize": 257, "size": 419}