{"hash": "349d0650397976700a38b8dd6ff96cd8ec6d50a17d18c2889b6480c42d171c2d", "blockhash": "0000000000000000001f0ddff1eddb255c1121bcd4da4f1bc9a0da00cae72433", "vout": [{"scriptPubKey": {"reqSigs": 1, "hex": "76a9146c50f5cf08d1d18b702a421dc80308277c6087c088ac", "addresses": ["1AsixvxcyrJzP7NYUAV8WYwd9j3iDHWyD8"], "asm": "OP_DUP OP_HASH160 6c50f5cf08d1d18b702a421dc80308277c6087c0 OP_EQUALVERIFY OP_CHECKSIG", "type": "pubkeyhash"}, "value": 0.00871197, "n": 0}, {"scriptPubKey": {"reqSigs": 1, "hex": "76a91435e96373600cb952c4fbf5dbd93c93948e740f5e88ac", "addresses": ["15v4QHQTvTAdH13cady7c2s28J566YedVE"], "asm": "OP_DUP OP_HASH160 35e96373600cb952c4fbf5dbd93c93948e740f5e OP_EQUALVERIFY OP_CHECKSIG", "type": "pubkeyhash"}, "value": 0.01186868, "n": 1}], "hex": "01000000017514a46016951bf4cc2bc58362eca583d5223c2b6053097c4cc1ac29a05e74b3000000006b483045022100af1bcca0b83c7b4fc20af40e8a9486203f36c6fa8c226f4af97dc44487377a9b022013e68456b4413b7cc3b3708f17ef8c701d5d1138b6fbfa204d77bf1be7f2281d0121038d7f18e65ddc8a57b6b6cbd5f88bf0873ce4d69fb5b2ee6b5736862e271bcff9fdffffff021d4b0d00000000001976a9146c50f5cf08d1d18b702a421dc80308277c6087c088ac341c1200000000001976a91435e96373600cb952c4fbf5dbd93c93948e740f5e88ac11490800", "vin": [{"sequence": 4294967293, "scriptSig": {"hex": "483045022100af1bcca0b83c7b4fc20af40e8a9486203f36c6fa8c226f4af97dc44487377a9b022013e68456b4413b7cc3b3708f17ef8c701d5d1138b6fbfa204d77bf1be7f2281d0121038d7f18e65ddc8a57b6b6cbd5f88bf0873ce4d69fb5b2ee6b5736862e271bcff9", "asm": "3045022100af1bcca0b83c7b4fc20af40e8a9486203f36c6fa8c226f4af97dc44487377a9b022013e68456b4413b7cc3b3708f17ef8c701d5d1138b6fbfa204d77bf1be7f2281d[ALL] 038d7f18e65ddc8a57b6b6cbd5f88bf0873ce4d69fb5b2ee6b5736862e271bcff9"}, "vout": 0, "txid": "b3745ea029acc14c7c0953602b3c22d583a5ec6283c52bccf41b951660a41475"}], "txid": "349d0650397976700a38b8dd6ff96cd8ec6d50a17d18c2889b6480c42d171c2d", "blocktime": 1537872018, "version": 1, "confirmations": 11489, "time": 1537872018, "locktime": 542993, "vsize": 226, "size": 226}