{"hash": "349fd23d60a1cb11e38e99ade593fc5a9a593ad6b05663de3ad22fd3bc8d2b55", "blockhash": "0000000000000000000dcc0f55137456b1a82d3642486a52398922ac4d620174", "vout": [{"scriptPubKey": {"reqSigs": 1, "hex": "76a914061f0843848fbe17c505d0b61a393b791ba8d49f88ac", "addresses": ["1ZNEK5GZVXCGC5vtp2sxqkvL241GP2Afe"], "asm": "OP_DUP OP_HASH160 061f0843848fbe17c505d0b61a393b791ba8d49f OP_EQUALVERIFY OP_CHECKSIG", "type": "pubkeyhash"}, "value": 0.00654145, "n": 0}, {"scriptPubKey": {"type": "nulldata", "hex": "6a4c500000776d000121ddf512e147afdd739e12c986aeaeacb577c031fc3a016b46dc7dc7d096a8db51c8fa9c1a99480b4f2b1b5892065baa08b30613ca0b1d1fe2a91d100759d4ba30d2c37bb011d97e02cf", "asm": "OP_RETURN 0000776d000121ddf512e147afdd739e12c986aeaeacb577c031fc3a016b46dc7dc7d096a8db51c8fa9c1a99480b4f2b1b5892065baa08b30613ca0b1d1fe2a91d100759d4ba30d2c37bb011d97e02cf"}, "value": 0.0, "n": 1}], "hex": "0100000001ddf9ddbda5c32edb62b5eaf6439e4e9b450bbf2c4ba5477c65e598ab2b9e4765010000006a47304402205cf9defcc1e8ebb30d62ccbe4e6088dde14cdd373180a92dc2347945319dc86502200981bc59f57a0f002d52fb26f6ca6a7a059da291723111253d7cc3fda7e541730121026c81433fbdac2fcc047e6e27bdfd189dc9eb8c984f9e0986a567c4f74fb61d69ffffffff0241fb0900000000001976a914061f0843848fbe17c505d0b61a393b791ba8d49f88ac0000000000000000536a4c500000776d000121ddf512e147afdd739e12c986aeaeacb577c031fc3a016b46dc7dc7d096a8db51c8fa9c1a99480b4f2b1b5892065baa08b30613ca0b1d1fe2a91d100759d4ba30d2c37bb011d97e02cf00000000", "vin": [{"sequence": 4294967295, "scriptSig": {"hex": "47304402205cf9defcc1e8ebb30d62ccbe4e6088dde14cdd373180a92dc2347945319dc86502200981bc59f57a0f002d52fb26f6ca6a7a059da291723111253d7cc3fda7e541730121026c81433fbdac2fcc047e6e27bdfd189dc9eb8c984f9e0986a567c4f74fb61d69", "asm": "304402205cf9defcc1e8ebb30d62ccbe4e6088dde14cdd373180a92dc2347945319dc86502200981bc59f57a0f002d52fb26f6ca6a7a059da291723111253d7cc3fda7e54173[ALL] 026c81433fbdac2fcc047e6e27bdfd189dc9eb8c984f9e0986a567c4f74fb61d69"}, "vout": 1, "txid": "65479e2bab98e5657c47a54b2cbf0b459b4e9e43f6eab562db2ec3a5bdddf9dd"}], "txid": "349fd23d60a1cb11e38e99ade593fc5a9a593ad6b05663de3ad22fd3bc8d2b55", "blocktime": 1537870268, "version": 1, "confirmations": 11518, "time": 1537870268, "locktime": 0, "vsize": 283, "size": 283}