{"hash": "99b4ea4d08990fdc6e4ab5f0d97e3d00eeda05a306a44a349aa2619a6f3d17f2", "blockhash": "0000000000000000001cda96e906b7601b7a6fb1a3b62bca570a9e5d8f4b3de1", "vout": [{"scriptPubKey": {"reqSigs": 1, "hex": "76a91473eec9d3445d1f25643fcbb00003098bad1e340088ac", "addresses": ["1BZzmNLxPm714TaJ8FSiWLiJYHvegRNyVy"], "asm": "OP_DUP OP_HASH160 73eec9d3445d1f25643fcbb00003098bad1e3400 OP_EQUALVERIFY OP_CHECKSIG", "type": "pubkeyhash"}, "value": 1.92087241, "n": 0}, {"scriptPubKey": {"reqSigs": 1, "hex": "a914170dc5dd2887b348cea2964b36542ffe29cd026987", "addresses": ["33nuxuyPDJbZfDcZtu4BSgXseJud1JBkRF"], "asm": "OP_HASH160 170dc5dd2887b348cea2964b36542ffe29cd0269 OP_EQUAL", "type": "scripthash"}, "value": 2.0, "n": 1}, {"scriptPubKey": {"reqSigs": 1, "hex": "a91406538c9148061559a117a69bbc7a0a45b0a9d84d87", "addresses": ["32GU4nd5zucG5MK1yUfTouYWpXBiEc9SjU"], "asm": "OP_HASH160 06538c9148061559a117a69bbc7a0a45b0a9d84d OP_EQUAL", "type": "scripthash"}, "value": 6.37534624, "n": 2}], "hex": "01000000000102abcc3e601ae9e3814cc7fc169cc446a8943fb2cc2518a0a8040bacf10a921c3a0200000023220020724cf0ea5b0f08956ab23f1ee295f35a80715104d69d40b9b06e41e060989ceaffffffffc4e8fc9576b16d60b6a1a527b7376cca6ddbc8e358e21769f4a923a08d3baef50100000023220020fa0cf74b92fac9875bb90a68b4af24c50cb4aeb2790028e404823654f1f28502ffffffff03c904730b000000001976a91473eec9d3445d1f25643fcbb00003098bad1e340088ac00c2eb0b0000000017a914170dc5dd2887b348cea2964b36542ffe29cd026987a00100260000000017a91406538c9148061559a117a69bbc7a0a45b0a9d84d87040047304402204cf715e37140291563ef31e804e77fd4c9e185448212124c133fb624ae0d76330220214031079af83871636ef59d33ba889b57731bafc98780d364dc56ce6e0e461b01483045022100c7bc98084bc4b1a7038c7c6768274f15758a45096db92ec6862d62d5882bac43022025f6fe3a8d5801150d651076c199d34fade3a3d32072c3d0845743d0997e66da01695221034c51e76625c809018a88d014d615fe944039ea3132e75b6b1ea94569334f41c32103e8ab06c220e41efc088d9afffad542a88e9244e6915b3e7682fcc45fbc42c8452103dbcf91cdcd8683edf9601097b8d8dab12d87a8ce5c8985a0db252d36349c612053ae040047304402200bcfa649e0c7fdd0453e24412b2d94b34ba68c80c126994624fea2fe38c2aed302207c61a7c9746cae01071b36f6e6fbb7f4158e55611893e47f36ba98315af95e280147304402203ead5f205c90040bcb8b1db87d40ced226d7ebc368f7055fd57bee55791177ab0220590f9ce06cbccb83952276bd7e6c8736fa8d8dbc7ec94e9368dce872edf8d3680169522103ec9e6b71b3fcd8b66f294d7b1ca661dfa558c39d968d1c9dcb1eb2b906ae0a922102ec412425f27d6d85d421662ab9a2f5d3265a6d8cd94bee9b6a943d999b8095e321024a802993cb96b091659240c2f8b7bafc0041d7c706ead4cf95a0b475715f72f853ae00000000", "vin": [{"txinwitness": ["", "304402204cf715e37140291563ef31e804e77fd4c9e185448212124c133fb624ae0d76330220214031079af83871636ef59d33ba889b57731bafc98780d364dc56ce6e0e461b01", "3045022100c7bc98084bc4b1a7038c7c6768274f15758a45096db92ec6862d62d5882bac43022025f6fe3a8d5801150d651076c199d34fade3a3d32072c3d0845743d0997e66da01", "5221034c51e76625c809018a88d014d615fe944039ea3132e75b6b1ea94569334f41c32103e8ab06c220e41efc088d9afffad542a88e9244e6915b3e7682fcc45fbc42c8452103dbcf91cdcd8683edf9601097b8d8dab12d87a8ce5c8985a0db252d36349c612053ae"], "sequence": 4294967295, "scriptSig": {"hex": "220020724cf0ea5b0f08956ab23f1ee295f35a80715104d69d40b9b06e41e060989cea", "asm": "0020724cf0ea5b0f08956ab23f1ee295f35a80715104d69d40b9b06e41e060989cea"}, "vout": 2, "txid": "3a1c920af1ac0b04a8a01825ccb23f94a846c49c16fcc74c81e3e91a603eccab"}, {"txinwitness": ["", "304402200bcfa649e0c7fdd0453e24412b2d94b34ba68c80c126994624fea2fe38c2aed302207c61a7c9746cae01071b36f6e6fbb7f4158e55611893e47f36ba98315af95e2801", "304402203ead5f205c90040bcb8b1db87d40ced226d7ebc368f7055fd57bee55791177ab0220590f9ce06cbccb83952276bd7e6c8736fa8d8dbc7ec94e9368dce872edf8d36801", "522103ec9e6b71b3fcd8b66f294d7b1ca661dfa558c39d968d1c9dcb1eb2b906ae0a922102ec412425f27d6d85d421662ab9a2f5d3265a6d8cd94bee9b6a943d999b8095e321024a802993cb96b091659240c2f8b7bafc0041d7c706ead4cf95a0b475715f72f853ae"], "sequence": 4294967295, "scriptSig": {"hex": "220020fa0cf74b92fac9875bb90a68b4af24c50cb4aeb2790028e404823654f1f28502", "asm": "0020fa0cf74b92fac9875bb90a68b4af24c50cb4aeb2790028e404823654f1f28502"}, "vout": 1, "txid": "f5ae3b8da023a9f46917e258e3c8db6dca6c37b727a5a1b6606db17695fce8c4"}], "txid": "34a73926d376056e8d250f59bcec5de4c6e94dc7612c8b0125515a07d1ff357e", "blocktime": 1537873282, "version": 1, "confirmations": 11484, "time": 1537873282, "locktime": 0, "vsize": 387, "size": 767}