{"hash": "34ae84a475b7ecef00c910f7a499ab0f8661998c9c4ef99e6fad39cde7441b92", "blockhash": "0000000000000000001e0dab787dd257d1dbfcb92a98c2207d5e1078be1f4165", "vout": [{"scriptPubKey": {"reqSigs": 1, "hex": "00143d92d7048a8e2bd6b6a1527284cd74b26695b53e", "addresses": ["bc1q8kfdwpy23c4add4p2fegfnt5kfnftdf7d5vps2"], "asm": "0 3d92d7048a8e2bd6b6a1527284cd74b26695b53e", "type": "witness_v0_keyhash"}, "value": 0.00011441, "n": 0}, {"scriptPubKey": {"reqSigs": 1, "hex": "76a91462f9a19bb360a0c3c690c954a73ac93b0defb7bb88ac", "addresses": ["1A2LGV8JrkBhHwfUaMMLy55eF2uQ2wYnWE"], "asm": "OP_DUP OP_HASH160 62f9a19bb360a0c3c690c954a73ac93b0defb7bb OP_EQUALVERIFY OP_CHECKSIG", "type": "pubkeyhash"}, "value": 0.010549, "n": 1}], "hex": "0100000001b41c843e27f5fb428b40e4ec26b178a8dc98a6261707b657836f801eb24ed1b5080000006b483045022100fcf40d93abf0cd417f80479c5b72f8358a7c7221c9a89030069d748767b19935022003bc5b231851cffd846120c6ecbbe4947b9a19dde337cc488efafeaef318d6a9012102f5b824377809990c948465571ec353909228260c081b0f34547b21053a9b059effffffff02b12c0000000000001600143d92d7048a8e2bd6b6a1527284cd74b26695b53eb4181000000000001976a91462f9a19bb360a0c3c690c954a73ac93b0defb7bb88ac00000000", "vin": [{"sequence": 4294967295, "scriptSig": {"hex": "483045022100fcf40d93abf0cd417f80479c5b72f8358a7c7221c9a89030069d748767b19935022003bc5b231851cffd846120c6ecbbe4947b9a19dde337cc488efafeaef318d6a9012102f5b824377809990c948465571ec353909228260c081b0f34547b21053a9b059e", "asm": "3045022100fcf40d93abf0cd417f80479c5b72f8358a7c7221c9a89030069d748767b19935022003bc5b231851cffd846120c6ecbbe4947b9a19dde337cc488efafeaef318d6a9[ALL] 02f5b824377809990c948465571ec353909228260c081b0f34547b21053a9b059e"}, "vout": 8, "txid": "b5d14eb21e806f8357b6071726a698dca878b126ece4408b42fbf5273e841cb4"}], "txid": "34ae84a475b7ecef00c910f7a499ab0f8661998c9c4ef99e6fad39cde7441b92", "blocktime": 1537872475, "version": 1, "confirmations": 11487, "time": 1537872475, "locktime": 0, "vsize": 223, "size": 223}