{"hash": "34b364445cad677bfcbff2183e4d7d551ecb87d80c6bcedbcf60d4d9d6b04dd0", "blockhash": "00000000000000000017f5eb5941039fbcee6240d03bc1f2f8e35350df66a1d8", "vout": [{"scriptPubKey": {"reqSigs": 1, "hex": "a9149841d338912b500ecccce6f05fd5dc4619fb8c2d87", "addresses": ["3Fa5VJsDgRtfvnQNB6aAQFsYGaPwFjpfXE"], "asm": "OP_HASH160 9841d338912b500ecccce6f05fd5dc4619fb8c2d OP_EQUAL", "type": "scripthash"}, "value": 0.06432688, "n": 0}, {"scriptPubKey": {"reqSigs": 1, "hex": "76a914629eb63567600b255ac377a7da1736bab5f89fb388ac", "addresses": ["19zTMHYcsNTXwwNThFcNifeuzfUszv2JKx"], "asm": "OP_DUP OP_HASH160 629eb63567600b255ac377a7da1736bab5f89fb3 OP_EQUALVERIFY OP_CHECKSIG", "type": "pubkeyhash"}, "value": 0.11331399, "n": 1}], "hex": "0100000001037f40da5024d9699db65b6b7ed0b6291ab099370d1c2a7ca6a6000cdb5a9da4010000006a47304402200de919ae2cac262ee0286ecf0ac02d066a8294549df3ca794cae57cf2d337fdc0220477e82c4edba27d1f2e6f936ffeef3f3ef57763608e629f9f76f9c4af49d565b012102a14615c9a3a8abe3c5e548b8b48e5ccfaf2261b007528a278c9ba8814079f2caffffffff02b02762000000000017a9149841d338912b500ecccce6f05fd5dc4619fb8c2d8747e7ac00000000001976a914629eb63567600b255ac377a7da1736bab5f89fb388ac00000000", "vin": [{"sequence": 4294967295, "scriptSig": {"hex": "47304402200de919ae2cac262ee0286ecf0ac02d066a8294549df3ca794cae57cf2d337fdc0220477e82c4edba27d1f2e6f936ffeef3f3ef57763608e629f9f76f9c4af49d565b012102a14615c9a3a8abe3c5e548b8b48e5ccfaf2261b007528a278c9ba8814079f2ca", "asm": "304402200de919ae2cac262ee0286ecf0ac02d066a8294549df3ca794cae57cf2d337fdc0220477e82c4edba27d1f2e6f936ffeef3f3ef57763608e629f9f76f9c4af49d565b[ALL] 02a14615c9a3a8abe3c5e548b8b48e5ccfaf2261b007528a278c9ba8814079f2ca"}, "vout": 1, "txid": "a49d5adb0c00a6a67c2a1c0d3799b01a29b6d07e6b5bb69d69d92450da407f03"}], "txid": "34b364445cad677bfcbff2183e4d7d551ecb87d80c6bcedbcf60d4d9d6b04dd0", "blocktime": 1537874412, "version": 1, "confirmations": 11467, "time": 1537874412, "locktime": 0, "vsize": 223, "size": 223}