{"hash": "22c3ff678ecbd6e7fb41752316dc9a44d21a7043f7db1669b37757141024a038", "blockhash": "0000000000000000001f76057863aec43deb6fa401d9628bb513d65a8098bfab", "vout": [{"scriptPubKey": {"reqSigs": 1, "hex": "76a914ea0947c478eeb508f37f2094b1f38478d5cf52bf88ac", "addresses": ["1NLUEhUGpvJ1P6outhRKg9AJYEUEymfSmo"], "asm": "OP_DUP OP_HASH160 ea0947c478eeb508f37f2094b1f38478d5cf52bf OP_EQUALVERIFY OP_CHECKSIG", "type": "pubkeyhash"}, "value": 0.00072574, "n": 0}, {"scriptPubKey": {"reqSigs": 1, "hex": "a9146a0dd522ce57b1d5d33b5362717e13f378828d6a87", "addresses": ["3BMn7yrY8sUEPWjLQg5GJeiJCsYHsNHVEu"], "asm": "OP_HASH160 6a0dd522ce57b1d5d33b5362717e13f378828d6a OP_EQUAL", "type": "scripthash"}, "value": 0.1326998, "n": 1}], "hex": "01000000000101a3ea2286b5a39d067657d911f1dfb897f6b04724ecdc1da3ae3ebd1df829c01a010000002322002065b823a63cb00d2a6e32c5db071644d34a5450980ce6a1e0999531a6bc39aefcffffffff027e1b0100000000001976a914ea0947c478eeb508f37f2094b1f38478d5cf52bf88acdc7bca000000000017a9146a0dd522ce57b1d5d33b5362717e13f378828d6a870400483045022100c5e541c68a97e9c4ce56e892aa760b4f671d6aac1fd2cbb3067d6cdf4fd40e44022067f2711b32331965e70af82f49b626b9faa4748cd7a1c2dc00c37f6ef71fe822014830450221008dc382b5a48d3ff42f2b0869ed3c40b676224598ff5a191b311fd4e87f392f38022008b14e666158e5585b2c897b498c1a7b007a50ab46614156766d851e496d36330147522103b9b56c8b28165f7106ec2ef0da29d9f5355a3a9a25957cd5c72a8cd33976a56921030580d373ab00643a581abb399b43fa66d7b6fc29624eb75b2d5ec8d99faa163f52ae00000000", "vin": [{"txinwitness": ["", "3045022100c5e541c68a97e9c4ce56e892aa760b4f671d6aac1fd2cbb3067d6cdf4fd40e44022067f2711b32331965e70af82f49b626b9faa4748cd7a1c2dc00c37f6ef71fe82201", "30450221008dc382b5a48d3ff42f2b0869ed3c40b676224598ff5a191b311fd4e87f392f38022008b14e666158e5585b2c897b498c1a7b007a50ab46614156766d851e496d363301", "522103b9b56c8b28165f7106ec2ef0da29d9f5355a3a9a25957cd5c72a8cd33976a56921030580d373ab00643a581abb399b43fa66d7b6fc29624eb75b2d5ec8d99faa163f52ae"], "sequence": 4294967295, "scriptSig": {"hex": "22002065b823a63cb00d2a6e32c5db071644d34a5450980ce6a1e0999531a6bc39aefc", "asm": "002065b823a63cb00d2a6e32c5db071644d34a5450980ce6a1e0999531a6bc39aefc"}, "vout": 1, "txid": "1ac029f81dbd3eaea31ddcec2447b0f697b8dff111d95776069da3b58622eaa3"}], "txid": "34b689fb376292987648fbafb471a995be3a5a3c3dd05eddc0452c82659b31a7", "blocktime": 1537873891, "version": 1, "confirmations": 11478, "time": 1537873891, "locktime": 0, "vsize": 208, "size": 374}