{"hash": "e7beeb3a088c80fb9c9645db26e9ae60045c9da9b2924be34085453df4b6be09", "blockhash": "0000000000000000000baef3f32e3676a92c3b2e5da21b426e4f302fc371ce76", "vout": [{"scriptPubKey": {"reqSigs": 1, "hex": "a914ea411cc1b1c70757fcf92bbb6c2206d62e52d74587", "addresses": ["3P3e3WtT2xSDK5TZax84T1nNMnoPfYEooH"], "asm": "OP_HASH160 ea411cc1b1c70757fcf92bbb6c2206d62e52d745 OP_EQUAL", "type": "scripthash"}, "value": 0.01020313, "n": 0}, {"scriptPubKey": {"reqSigs": 1, "hex": "76a914fab9a6eeb3ea53ea6cedb73a4247181dd6d4509e88ac", "addresses": ["1PriLHqQT9LwTz5QNggTY8iw1L2BCH1Aqe"], "asm": "OP_DUP OP_HASH160 fab9a6eeb3ea53ea6cedb73a4247181dd6d4509e OP_EQUALVERIFY OP_CHECKSIG", "type": "pubkeyhash"}, "value": 0.01237481, "n": 1}], "hex": "020000000001029b6d510d3c38835fdb3ac3f2fa72349126bbaa31192f5ab5124455823a74a2130d000000171600146e2b7d52f94171d05cace334cdc29cad4adfa3acfeffffffb9ffd20a207758f3dcd76096d049ddc134afbc64b69b15dd0afe9bcfadf3c4fb0400000017160014d331880abac550f0828e1515d145860aeaf050bffeffffff0299910f000000000017a914ea411cc1b1c70757fcf92bbb6c2206d62e52d74587e9e11200000000001976a914fab9a6eeb3ea53ea6cedb73a4247181dd6d4509e88ac024830450221009dcb9e3a51277928a03d0d893ddbfd1b1ba7882f8c37a6bfd8485a5774490336022073e7ead8ace212a9a6d3ce83fe27fcdebc1aa4b9ca35535c39613d8bf364be1501210389cb46004d2186c1af596bc7306d1169699d81fcf8bd420fde4045f075dd41d802483045022100f10808978d09e387a075ba0916d954606403ea2d20f635f89ca6af90638f010d02201750bb706200ddc3f7807e03e3585b2f997d5afe54abaa8daed71b89769513e401210294d8d2b93ceffa72133158ad389f07abf30e4441ffc11cb93c9458c40dc788d317490800", "vin": [{"txinwitness": ["30450221009dcb9e3a51277928a03d0d893ddbfd1b1ba7882f8c37a6bfd8485a5774490336022073e7ead8ace212a9a6d3ce83fe27fcdebc1aa4b9ca35535c39613d8bf364be1501", "0389cb46004d2186c1af596bc7306d1169699d81fcf8bd420fde4045f075dd41d8"], "sequence": 4294967294, "scriptSig": {"hex": "1600146e2b7d52f94171d05cace334cdc29cad4adfa3ac", "asm": "00146e2b7d52f94171d05cace334cdc29cad4adfa3ac"}, "vout": 13, "txid": "13a2743a82554412b55a2f1931aabb26913472faf2c33adb5f83383c0d516d9b"}, {"txinwitness": ["3045022100f10808978d09e387a075ba0916d954606403ea2d20f635f89ca6af90638f010d02201750bb706200ddc3f7807e03e3585b2f997d5afe54abaa8daed71b89769513e401", "0294d8d2b93ceffa72133158ad389f07abf30e4441ffc11cb93c9458c40dc788d3"], "sequence": 4294967294, "scriptSig": {"hex": "160014d331880abac550f0828e1515d145860aeaf050bf", "asm": "0014d331880abac550f0828e1515d145860aeaf050bf"}, "vout": 4, "txid": "fbc4f3adcf9bfe0add159bb664bcaf34c1dd49d09660d7dcf35877200ad2ffb9"}], "txid": "34bbe7aef3877a5d532604d49ad06d3d6aed6d79a7f26a7ae58e8fe57cf07f9b", "blocktime": 1537876114, "version": 2, "confirmations": 11462, "time": 1537876114, "locktime": 542999, "vsize": 259, "size": 422}