{"hash": "34c1ab7e18a0bb60384b9e0e1e9e497a8a8ee8a7a7d73bf566368bafe4d5a3b8", "blockhash": "0000000000000000001e0dab787dd257d1dbfcb92a98c2207d5e1078be1f4165", "vout": [{"scriptPubKey": {"reqSigs": 1, "hex": "76a914db0c3f1218a226e062460fc2f11ca54509993ac488ac", "addresses": ["1LyDeuQa2GPK4BEWpMwfjPwEhB2p1HZDg8"], "asm": "OP_DUP OP_HASH160 db0c3f1218a226e062460fc2f11ca54509993ac4 OP_EQUALVERIFY OP_CHECKSIG", "type": "pubkeyhash"}, "value": 0.04697954, "n": 0}, {"scriptPubKey": {"reqSigs": 1, "hex": "76a91497e29a612483b01e05f86046043099155838f11388ac", "addresses": ["1Er6Vd5JDdYJeoubiNXkGAFUWrmZV1TVBb"], "asm": "OP_DUP OP_HASH160 97e29a612483b01e05f86046043099155838f113 OP_EQUALVERIFY OP_CHECKSIG", "type": "pubkeyhash"}, "value": 0.07184214, "n": 1}], "hex": "0100000001a4009b97c6e9bb99229a015ffa6119cd8b0586d2bc208873af2d7f7446d6ac7a000000006b483045022100bd1c029cf17f14bdf6b3b0db87307406054cb7c621a88f4aac4cb5d9999c932d02204e6b41dc699e32b1941922476641a303b840f96fc05d250f11f71c1b8629f862012102eb47efb1697d4db1f9573c274e0006e7fd15fc895009919cdff5c70734931e0fffffffff0262af4700000000001976a914db0c3f1218a226e062460fc2f11ca54509993ac488ac569f6d00000000001976a91497e29a612483b01e05f86046043099155838f11388ac00000000", "vin": [{"sequence": 4294967295, "scriptSig": {"hex": "483045022100bd1c029cf17f14bdf6b3b0db87307406054cb7c621a88f4aac4cb5d9999c932d02204e6b41dc699e32b1941922476641a303b840f96fc05d250f11f71c1b8629f862012102eb47efb1697d4db1f9573c274e0006e7fd15fc895009919cdff5c70734931e0f", "asm": "3045022100bd1c029cf17f14bdf6b3b0db87307406054cb7c621a88f4aac4cb5d9999c932d02204e6b41dc699e32b1941922476641a303b840f96fc05d250f11f71c1b8629f862[ALL] 02eb47efb1697d4db1f9573c274e0006e7fd15fc895009919cdff5c70734931e0f"}, "vout": 0, "txid": "7aacd646747f2daf738820bcd286058bcd1961fa5f019a2299bbe9c6979b00a4"}], "txid": "34c1ab7e18a0bb60384b9e0e1e9e497a8a8ee8a7a7d73bf566368bafe4d5a3b8", "blocktime": 1537872475, "version": 1, "confirmations": 11487, "time": 1537872475, "locktime": 0, "vsize": 226, "size": 226}