{"hash": "34ceccc44b12e5866f23746d422d522bfe4e11218556818badd49be68024f96a", "blockhash": "0000000000000000001e0dab787dd257d1dbfcb92a98c2207d5e1078be1f4165", "vout": [{"scriptPubKey": {"reqSigs": 1, "hex": "76a914a25dec4d0011064ef106a983c39c7a540699f22088ac", "addresses": ["1FoWyxwPXuj4C6abqwhjDWdz6D4PZgYRjA"], "asm": "OP_DUP OP_HASH160 a25dec4d0011064ef106a983c39c7a540699f220 OP_EQUALVERIFY OP_CHECKSIG", "type": "pubkeyhash"}, "value": 0.01966387, "n": 0}, {"scriptPubKey": {"type": "nulldata", "hex": "6a146f6d6e69000000000000001f000000020abb9480", "asm": "OP_RETURN 6f6d6e69000000000000001f000000020abb9480"}, "value": 0.0, "n": 1}, {"scriptPubKey": {"reqSigs": 1, "hex": "76a914916475a8f2e92489796e6d682c167374a52ef1c888ac", "addresses": ["1EFmKsYUsSChHNwMddsKgx4s5Yjbm13JUz"], "asm": "OP_DUP OP_HASH160 916475a8f2e92489796e6d682c167374a52ef1c8 OP_EQUALVERIFY OP_CHECKSIG", "type": "pubkeyhash"}, "value": 5.46e-06, "n": 2}], "hex": "010000000125dc50043ba4a23a05fef0f4efb6acf74a9f09aeb338b82be3af5d8986f3fc16020000006a47304402201f5bdd0f89be68e5f3aab0a8439f4d61a8e751b020d1699b5405417fa9afe7f6022072b22173ee66c824dcd7e0cec9a7b768b3e8f666bec739b627d2ec3b70df3ae9012103da5bac7b36d5aa38f531c6b9601e21bb598a4b6716ebed38b009a55dabde9440feffffff0333011e00000000001976a914a25dec4d0011064ef106a983c39c7a540699f22088ac0000000000000000166a146f6d6e69000000000000001f000000020abb948022020000000000001976a914916475a8f2e92489796e6d682c167374a52ef1c888ac12490800", "vin": [{"sequence": 4294967294, "scriptSig": {"hex": "47304402201f5bdd0f89be68e5f3aab0a8439f4d61a8e751b020d1699b5405417fa9afe7f6022072b22173ee66c824dcd7e0cec9a7b768b3e8f666bec739b627d2ec3b70df3ae9012103da5bac7b36d5aa38f531c6b9601e21bb598a4b6716ebed38b009a55dabde9440", "asm": "304402201f5bdd0f89be68e5f3aab0a8439f4d61a8e751b020d1699b5405417fa9afe7f6022072b22173ee66c824dcd7e0cec9a7b768b3e8f666bec739b627d2ec3b70df3ae9[ALL] 03da5bac7b36d5aa38f531c6b9601e21bb598a4b6716ebed38b009a55dabde9440"}, "vout": 2, "txid": "16fcf386895dafe32bb838b3ae099f4af7acb6eff4f0fe053aa2a43b0450dc25"}], "txid": "34ceccc44b12e5866f23746d422d522bfe4e11218556818badd49be68024f96a", "blocktime": 1537872475, "version": 1, "confirmations": 11486, "time": 1537872475, "locktime": 542994, "vsize": 256, "size": 256}