{"hash": "34d3a62d1666e2ca2c41c97484ab209fd88fbf759207d1915e6bec90c20537fe", "blockhash": "0000000000000000000e13cef7c366c0283d82e591d1acd082e914b08063cdf1", "vout": [{"scriptPubKey": {"reqSigs": 1, "hex": "76a914a75405db8b2cfe104027f50e04b549e289e0b08688ac", "addresses": ["1GFkW3mrBYXJohUQaV3eFP5gnc4EgCULF8"], "asm": "OP_DUP OP_HASH160 a75405db8b2cfe104027f50e04b549e289e0b086 OP_EQUALVERIFY OP_CHECKSIG", "type": "pubkeyhash"}, "value": 8.13e-06, "n": 0}, {"scriptPubKey": {"reqSigs": 1, "hex": "a9144560b3a41a7a4911b0713cfd06ff80f013518d2287", "addresses": ["381rPjVtVnWehsND31PifzT9ovxHVmEVre"], "asm": "OP_HASH160 4560b3a41a7a4911b0713cfd06ff80f013518d22 OP_EQUAL", "type": "scripthash"}, "value": 0.0286, "n": 1}], "hex": "0100000001318ceb1aa8fadaa346c1b1794ebbf89dcba68ad649ae06274f463547b972da17000000006a47304402201181b06a1d39b882723e0536bd16fa3e59d7cea0fbb4fce61d146c0f7bf4c85502203bc767c8529bd209e8cb37eb3b420e94eea634f23ffe227e0e52612a12b98cb601210258bc38017e888603c5dd07d3a9f1a9eeb779a9079dabc34ae32aa921a8fa2903fdffffff022d030000000000001976a914a75405db8b2cfe104027f50e04b549e289e0b08688ace0a32b000000000017a9144560b3a41a7a4911b0713cfd06ff80f013518d228710490800", "vin": [{"sequence": 4294967293, "scriptSig": {"hex": "47304402201181b06a1d39b882723e0536bd16fa3e59d7cea0fbb4fce61d146c0f7bf4c85502203bc767c8529bd209e8cb37eb3b420e94eea634f23ffe227e0e52612a12b98cb601210258bc38017e888603c5dd07d3a9f1a9eeb779a9079dabc34ae32aa921a8fa2903", "asm": "304402201181b06a1d39b882723e0536bd16fa3e59d7cea0fbb4fce61d146c0f7bf4c85502203bc767c8529bd209e8cb37eb3b420e94eea634f23ffe227e0e52612a12b98cb6[ALL] 0258bc38017e888603c5dd07d3a9f1a9eeb779a9079dabc34ae32aa921a8fa2903"}, "vout": 0, "txid": "17da72b94735464f2706ae49d68aa6cb9df8bb4e79b1c146a3dafaa81aeb8c31"}], "txid": "34d3a62d1666e2ca2c41c97484ab209fd88fbf759207d1915e6bec90c20537fe", "blocktime": 1537871767, "version": 1, "confirmations": 11493, "time": 1537871767, "locktime": 542992, "vsize": 223, "size": 223}