{"hash": "34d35ab601ccff5bc997ef972a235bec3f2fcb68d574f8d30363b3e8c6e7d7b3", "blockhash": "00000000000000000004ffacab907a6b429b9a5745fa0b75af4234bf69dd7176", "vout": [{"scriptPubKey": {"reqSigs": 1, "hex": "76a9148b22f62946793727517679fdd833760288daf0a588ac", "addresses": ["1DggoqXhRYpzF1ddkkB6bfPKrsutS4bzD5"], "asm": "OP_DUP OP_HASH160 8b22f62946793727517679fdd833760288daf0a5 OP_EQUALVERIFY OP_CHECKSIG", "type": "pubkeyhash"}, "value": 0.0001, "n": 0}, {"scriptPubKey": {"reqSigs": 1, "hex": "76a9144aa27e88cda659a2aec3d4701bac790b793d190688ac", "addresses": ["17odfVkDt98nAZQkY8VU155cLZFQbWdZj5"], "asm": "OP_DUP OP_HASH160 4aa27e88cda659a2aec3d4701bac790b793d1906 OP_EQUALVERIFY OP_CHECKSIG", "type": "pubkeyhash"}, "value": 0.00986, "n": 1}], "hex": "010000000196f79e9c7681f31fe6a20548b6e42632012dee66803f63075a4bd5a2aba6f6b0000000006b483045022100c4adaa79e0b1a53f78bc80ce41c97679f6f3978618c7cd163454f95674536db30220176fa8ff7b715934b9de69fef23b6ac8d8ad971358909a889c74936a318101a3012103bac037457b8a5f2c517f2ec5b8e3a3d8e407bc3d84df48ef1a54d81314d78442ffffffff0210270000000000001976a9148b22f62946793727517679fdd833760288daf0a588ac900b0f00000000001976a9144aa27e88cda659a2aec3d4701bac790b793d190688ac00000000", "vin": [{"sequence": 4294967295, "scriptSig": {"hex": "483045022100c4adaa79e0b1a53f78bc80ce41c97679f6f3978618c7cd163454f95674536db30220176fa8ff7b715934b9de69fef23b6ac8d8ad971358909a889c74936a318101a3012103bac037457b8a5f2c517f2ec5b8e3a3d8e407bc3d84df48ef1a54d81314d78442", "asm": "3045022100c4adaa79e0b1a53f78bc80ce41c97679f6f3978618c7cd163454f95674536db30220176fa8ff7b715934b9de69fef23b6ac8d8ad971358909a889c74936a318101a3[ALL] 03bac037457b8a5f2c517f2ec5b8e3a3d8e407bc3d84df48ef1a54d81314d78442"}, "vout": 0, "txid": "b0f6a6aba2d54b5a07633f8066ee2d013226e4b64805a2e61ff381769c9ef796"}], "txid": "34d35ab601ccff5bc997ef972a235bec3f2fcb68d574f8d30363b3e8c6e7d7b3", "blocktime": 1537875543, "version": 1, "confirmations": 11464, "time": 1537875543, "locktime": 0, "vsize": 226, "size": 226}