{"hash": "34d60ace02512d6a4775c1ad9fbbef5b20c7bd95766a2f7c8c9b67614dc6f1f2", "blockhash": "0000000000000000001cda96e906b7601b7a6fb1a3b62bca570a9e5d8f4b3de1", "vout": [{"scriptPubKey": {"reqSigs": 1, "hex": "76a914422ce444a191acd2fcc6df04e5ecfd3ecfd0769788ac", "addresses": ["172uNnknC1MEjvu8J53bV4TfkN4N5JdWPC"], "asm": "OP_DUP OP_HASH160 422ce444a191acd2fcc6df04e5ecfd3ecfd07697 OP_EQUALVERIFY OP_CHECKSIG", "type": "pubkeyhash"}, "value": 0.01978894, "n": 0}, {"scriptPubKey": {"type": "nulldata", "hex": "6a146f6d6e69000000000000001f0000092b158ff680", "asm": "OP_RETURN 6f6d6e69000000000000001f0000092b158ff680"}, "value": 0.0, "n": 1}, {"scriptPubKey": {"reqSigs": 1, "hex": "76a9141652c09ce4a944d020c9360690b646a7a032262288ac", "addresses": ["1332zxXi1zamF7Jr4hPu1V6whwLnBaybRb"], "asm": "OP_DUP OP_HASH160 1652c09ce4a944d020c9360690b646a7a0322622 OP_EQUALVERIFY OP_CHECKSIG", "type": "pubkeyhash"}, "value": 5.46e-06, "n": 2}], "hex": "010000000194a98c0a58c20287b3216b838662db392c73ebdc8274e7e9287a686c66b7bfd5000000006b483045022100aa1ffd8171c13b04b4dfc7bce23e416d7ba739fc8600024401e40e49e434cbc102204c5f0583fb9ed36a00aa98666908ba190167d64568959faa929f30d348e72712012103eef5513b0f2321a26c1a687448c1153fd02098a067ffff3249634419cf7d3eb9feffffff030e321e00000000001976a914422ce444a191acd2fcc6df04e5ecfd3ecfd0769788ac0000000000000000166a146f6d6e69000000000000001f0000092b158ff68022020000000000001976a9141652c09ce4a944d020c9360690b646a7a032262288ac13490800", "vin": [{"sequence": 4294967294, "scriptSig": {"hex": "483045022100aa1ffd8171c13b04b4dfc7bce23e416d7ba739fc8600024401e40e49e434cbc102204c5f0583fb9ed36a00aa98666908ba190167d64568959faa929f30d348e72712012103eef5513b0f2321a26c1a687448c1153fd02098a067ffff3249634419cf7d3eb9", "asm": "3045022100aa1ffd8171c13b04b4dfc7bce23e416d7ba739fc8600024401e40e49e434cbc102204c5f0583fb9ed36a00aa98666908ba190167d64568959faa929f30d348e72712[ALL] 03eef5513b0f2321a26c1a687448c1153fd02098a067ffff3249634419cf7d3eb9"}, "vout": 0, "txid": "d5bfb7666c687a28e9e77482dceb732c39db6286836b21b38702c2580a8ca994"}], "txid": "34d60ace02512d6a4775c1ad9fbbef5b20c7bd95766a2f7c8c9b67614dc6f1f2", "blocktime": 1537873282, "version": 1, "confirmations": 11480, "time": 1537873282, "locktime": 542995, "vsize": 257, "size": 257}