{"hash": "3af6f0cdfdd78f43db8f4c02afdd15d2fad0942161d762b7adee0f14c7de392f", "blockhash": "0000000000000000000dcc0f55137456b1a82d3642486a52398922ac4d620174", "vout": [{"scriptPubKey": {"reqSigs": 1, "hex": "a914a4aa1fb7824d32dd53bfacf7029c8059188864a287", "addresses": ["3GhgYRGq25jKC3SVJJ42K6dW3nmkPSKk6P"], "asm": "OP_HASH160 a4aa1fb7824d32dd53bfacf7029c8059188864a2 OP_EQUAL", "type": "scripthash"}, "value": 0.00999867, "n": 0}, {"scriptPubKey": {"reqSigs": 1, "hex": "76a914bbaec083b5e6b2619a44122d11954d363152fd0488ac", "addresses": ["1J7NhraWXwxB5EzsPgHjvHxXqAAYgWV397"], "asm": "OP_DUP OP_HASH160 bbaec083b5e6b2619a44122d11954d363152fd04 OP_EQUALVERIFY OP_CHECKSIG", "type": "pubkeyhash"}, "value": 0.0031106, "n": 1}], "hex": "020000000001021be7c78cbc809775dad694d899e49f3771af19a998f82846a7b9b89c863781861000000017160014d29e60a8e65c435c25b678b25fd35cd54fee646afeffffff6010b6fe20658d88467ca88b780fe25b3e1e8504b331fca1dab0095a85874d9a0000000017160014e4c4b0507e4808686214757c2ac46fe1504906eefeffffff02bb410f000000000017a914a4aa1fb7824d32dd53bfacf7029c8059188864a28714bf0400000000001976a914bbaec083b5e6b2619a44122d11954d363152fd0488ac02483045022100e9342318e77e74fc8a538c2c52c1d6cae36317f5e419f591783c3d7f2eb78fe20220233f7dc9557c8b5e4ccb2702ceb81031322157705c4b81bf39b760cf4cf46fbd012103fb5d3351392f1ad53d20dcf63d38044d206787418754e00d14b0db09d790ffc2024730440220607cd0d25d7a3291f213f70c1d4956c4185c3b363956d127cdf5e728a222c45202206a7a4e8f0c852ef8acf0a08f001420cbe10f9496f74b145f710e9b44d16730b90121038833f4158e574280f4c07bedaed2ec4f617034181a860d1dfa77de99ecfaef050c490800", "vin": [{"txinwitness": ["3045022100e9342318e77e74fc8a538c2c52c1d6cae36317f5e419f591783c3d7f2eb78fe20220233f7dc9557c8b5e4ccb2702ceb81031322157705c4b81bf39b760cf4cf46fbd01", "03fb5d3351392f1ad53d20dcf63d38044d206787418754e00d14b0db09d790ffc2"], "sequence": 4294967294, "scriptSig": {"hex": "160014d29e60a8e65c435c25b678b25fd35cd54fee646a", "asm": "0014d29e60a8e65c435c25b678b25fd35cd54fee646a"}, "vout": 16, "txid": "868137869cb8b9a74628f898a919af71379fe499d894d6da759780bc8cc7e71b"}, {"txinwitness": ["30440220607cd0d25d7a3291f213f70c1d4956c4185c3b363956d127cdf5e728a222c45202206a7a4e8f0c852ef8acf0a08f001420cbe10f9496f74b145f710e9b44d16730b901", "038833f4158e574280f4c07bedaed2ec4f617034181a860d1dfa77de99ecfaef05"], "sequence": 4294967294, "scriptSig": {"hex": "160014e4c4b0507e4808686214757c2ac46fe1504906ee", "asm": "0014e4c4b0507e4808686214757c2ac46fe1504906ee"}, "vout": 0, "txid": "9a4d87855a09b0daa1fc31b304851e3e5be20f788ba87c46888d6520feb61060"}], "txid": "34d7e1fb09d36cbc417a0c14ca565e88d72fde40b1650b8019eb25966b2539f5", "blocktime": 1537870268, "version": 2, "confirmations": 11518, "time": 1537870268, "locktime": 542988, "vsize": 259, "size": 421}