{"hash": "34d90ac977a390192ee4712a080cca76e36a68a353af32c0b43d66c38966c552", "blockhash": "0000000000000000000baef3f32e3676a92c3b2e5da21b426e4f302fc371ce76", "vout": [{"scriptPubKey": {"reqSigs": 1, "hex": "76a914c222a206fb81997f927c559c1db13afa641afc6488ac", "addresses": ["1JhVaZ3csFA7tRnChddqfChqeWk4vMu6ye"], "asm": "OP_DUP OP_HASH160 c222a206fb81997f927c559c1db13afa641afc64 OP_EQUALVERIFY OP_CHECKSIG", "type": "pubkeyhash"}, "value": 0.07009223, "n": 0}, {"scriptPubKey": {"reqSigs": 1, "hex": "76a914f06193612eb8015f6be0ebdbf47d82da9a8731c788ac", "addresses": ["1Nv24ie37otRjo8seHeWoZELEXcQzAFiCp"], "asm": "OP_DUP OP_HASH160 f06193612eb8015f6be0ebdbf47d82da9a8731c7 OP_EQUALVERIFY OP_CHECKSIG", "type": "pubkeyhash"}, "value": 0.98476213, "n": 1}], "hex": "0200000001264a195045d46c56006fb32044f2e17c034634c78c893a877cca3aab7d52cf1f010000006b483045022100b00eb042211ebddd7c6a1da0e24ac967f22f07787b22577bcced0b75e3e6ae6d022044b8f0a91200ca194ae7605c449a637ae4dce6954ffb8abe3cd8a0aec549ddbd012103739ea042e7d7bb841cd73d1370e1f1d4a6c5b4f9be0dfeb608c97fa4ab7343f1feffffff02c7f36a00000000001976a914c222a206fb81997f927c559c1db13afa641afc6488acb5a0de05000000001976a914f06193612eb8015f6be0ebdbf47d82da9a8731c788ac16490800", "vin": [{"sequence": 4294967294, "scriptSig": {"hex": "483045022100b00eb042211ebddd7c6a1da0e24ac967f22f07787b22577bcced0b75e3e6ae6d022044b8f0a91200ca194ae7605c449a637ae4dce6954ffb8abe3cd8a0aec549ddbd012103739ea042e7d7bb841cd73d1370e1f1d4a6c5b4f9be0dfeb608c97fa4ab7343f1", "asm": "3045022100b00eb042211ebddd7c6a1da0e24ac967f22f07787b22577bcced0b75e3e6ae6d022044b8f0a91200ca194ae7605c449a637ae4dce6954ffb8abe3cd8a0aec549ddbd[ALL] 03739ea042e7d7bb841cd73d1370e1f1d4a6c5b4f9be0dfeb608c97fa4ab7343f1"}, "vout": 1, "txid": "1fcf527dab3aca7c873a898cc73446037ce1f24420b36f00566cd44550194a26"}], "txid": "34d90ac977a390192ee4712a080cca76e36a68a353af32c0b43d66c38966c552", "blocktime": 1537876114, "version": 2, "confirmations": 11460, "time": 1537876114, "locktime": 542998, "vsize": 226, "size": 226}