{"hash": "34dfafc61f55e1f135b9ab80ff95bbfbf00ad697859222e80980d0840ddf563b", "blockhash": "0000000000000000000dcc0f55137456b1a82d3642486a52398922ac4d620174", "vout": [{"scriptPubKey": {"reqSigs": 1, "hex": "76a914b9b822b82f8b3e515566b6e1cbad6070994e618388ac", "addresses": ["1HvzbTSzmk1TN7V3swH6Gj3PeNgjZ6QMoA"], "asm": "OP_DUP OP_HASH160 b9b822b82f8b3e515566b6e1cbad6070994e6183 OP_EQUALVERIFY OP_CHECKSIG", "type": "pubkeyhash"}, "value": 0.002, "n": 0}, {"scriptPubKey": {"reqSigs": 1, "hex": "76a9146f82d37edb378d15fcb23a074524c04859af289088ac", "addresses": ["1BAcjFibS5S3ixqpVjJvntnakWXeuALaNe"], "asm": "OP_DUP OP_HASH160 6f82d37edb378d15fcb23a074524c04859af2890 OP_EQUALVERIFY OP_CHECKSIG", "type": "pubkeyhash"}, "value": 0.01310317, "n": 1}], "hex": "01000000010a3a0b64e691aae292cb99ff5a6e7bca4e8242aafc3e053f0ce31c9d027bafea010000006a4730440220682534a37dbd44ac6b82d1a822ba3355d12ecb4009d7458ad57fd2cd056663420220128e9cf9258b67795b14c26f6e23e665a4248483be2947b30849c25ff6b98dd90121038338bfa6c78ab5c9c56d094749148309c113af64f3ce3a788d563ec5aa727984fdffffff02400d0300000000001976a914b9b822b82f8b3e515566b6e1cbad6070994e618388ac6dfe1300000000001976a9146f82d37edb378d15fcb23a074524c04859af289088ac0b490800", "vin": [{"sequence": 4294967293, "scriptSig": {"hex": "4730440220682534a37dbd44ac6b82d1a822ba3355d12ecb4009d7458ad57fd2cd056663420220128e9cf9258b67795b14c26f6e23e665a4248483be2947b30849c25ff6b98dd90121038338bfa6c78ab5c9c56d094749148309c113af64f3ce3a788d563ec5aa727984", "asm": "30440220682534a37dbd44ac6b82d1a822ba3355d12ecb4009d7458ad57fd2cd056663420220128e9cf9258b67795b14c26f6e23e665a4248483be2947b30849c25ff6b98dd9[ALL] 038338bfa6c78ab5c9c56d094749148309c113af64f3ce3a788d563ec5aa727984"}, "vout": 1, "txid": "eaaf7b029d1ce30c3f053efcaa42824eca7b6e5aff99cb92e2aa91e6640b3a0a"}], "txid": "34dfafc61f55e1f135b9ab80ff95bbfbf00ad697859222e80980d0840ddf563b", "blocktime": 1537870268, "version": 1, "confirmations": 11518, "time": 1537870268, "locktime": 542987, "vsize": 225, "size": 225}