{"hash": "34eaaf0a4fa8f7f08f2a9f2fc07541d0459400f5684b21edb660912d03d49183", "blockhash": "0000000000000000001f76057863aec43deb6fa401d9628bb513d65a8098bfab", "vout": [{"scriptPubKey": {"reqSigs": 1, "hex": "76a914c134790ca01d899f20b06d4b0bac05f5ae3b82f588ac", "addresses": ["1JcaGuF43PtGSVUG3zzvMJqzHiEJNGsF4T"], "asm": "OP_DUP OP_HASH160 c134790ca01d899f20b06d4b0bac05f5ae3b82f5 OP_EQUALVERIFY OP_CHECKSIG", "type": "pubkeyhash"}, "value": 0.09676433, "n": 0}, {"scriptPubKey": {"reqSigs": 1, "hex": "76a914cf76229c0fb51779923c4633ec706abe3895b81388ac", "addresses": ["1KuxPtPiFfM4HVotccEU3qXeTW3SfmfkSH"], "asm": "OP_DUP OP_HASH160 cf76229c0fb51779923c4633ec706abe3895b813 OP_EQUALVERIFY OP_CHECKSIG", "type": "pubkeyhash"}, "value": 0.22672038, "n": 1}], "hex": "01000000019c607215a1d59a03ce0d9232bfefccb7890f7645758491ac80a366bc0e300b04010000006a47304402207bc466f09fe7b62a2ea7a72e10d7e9513e9addf3fdde7d42d7b84e615f7ff7890220346b25e76af9b4d0be5a9e56327012f94c13261faa5a6e981e2800b57fe25884012102f3588a12d49e9f61beab31898746d164db7b62903cf978e4ca324e59eba70184ffffffff0291a69300000000001976a914c134790ca01d899f20b06d4b0bac05f5ae3b82f588aca6f25901000000001976a914cf76229c0fb51779923c4633ec706abe3895b81388ac00000000", "vin": [{"sequence": 4294967295, "scriptSig": {"hex": "47304402207bc466f09fe7b62a2ea7a72e10d7e9513e9addf3fdde7d42d7b84e615f7ff7890220346b25e76af9b4d0be5a9e56327012f94c13261faa5a6e981e2800b57fe25884012102f3588a12d49e9f61beab31898746d164db7b62903cf978e4ca324e59eba70184", "asm": "304402207bc466f09fe7b62a2ea7a72e10d7e9513e9addf3fdde7d42d7b84e615f7ff7890220346b25e76af9b4d0be5a9e56327012f94c13261faa5a6e981e2800b57fe25884[ALL] 02f3588a12d49e9f61beab31898746d164db7b62903cf978e4ca324e59eba70184"}, "vout": 1, "txid": "040b300ebc66a380ac91847545760f89b7ccefbf32920dce039ad5a11572609c"}], "txid": "34eaaf0a4fa8f7f08f2a9f2fc07541d0459400f5684b21edb660912d03d49183", "blocktime": 1537873891, "version": 1, "confirmations": 11478, "time": 1537873891, "locktime": 0, "vsize": 225, "size": 225}