{"hash": "34eb32cc1ee207506f19232db00db0bf0210380489b7fbef0ad35d07230484d6", "blockhash": "00000000000000000018f53835495a110e01622372bf6ae95dc86f2b0ab887b0", "vout": [{"scriptPubKey": {"reqSigs": 1, "hex": "76a9141d8c33ffca3e8aa3e0354f10a65778a17ad6879488ac", "addresses": ["13hEZ3iKGDzCMcVrqhrxCUMrBqGsncb7Z6"], "asm": "OP_DUP OP_HASH160 1d8c33ffca3e8aa3e0354f10a65778a17ad68794 OP_EQUALVERIFY OP_CHECKSIG", "type": "pubkeyhash"}, "value": 0.0125, "n": 0}, {"scriptPubKey": {"reqSigs": 1, "hex": "a914e3a69154291f141d3c010f650a41117b59dd556887", "addresses": ["3NSirR3Gi9Qt5aVpvpycsEopTyBKw7jjfg"], "asm": "OP_HASH160 e3a69154291f141d3c010f650a41117b59dd5568 OP_EQUAL", "type": "scripthash"}, "value": 0.03400359, "n": 1}, {"scriptPubKey": {"reqSigs": 1, "hex": "76a91455feef4ae4cab75e36561ccc7dec9832f08ca45788ac", "addresses": ["18qhqUw9W24RnVgodFpPnBdJubreEZ4T7n"], "asm": "OP_DUP OP_HASH160 55feef4ae4cab75e36561ccc7dec9832f08ca457 OP_EQUALVERIFY OP_CHECKSIG", "type": "pubkeyhash"}, "value": 0.078216, "n": 2}, {"scriptPubKey": {"reqSigs": 1, "hex": "76a914e127ffa686d086de6f571b42b92e1aba5efa893288ac", "addresses": ["1MXWxKK3UpzKQPexWRGmTbQrkEkFBYeXyE"], "asm": "OP_DUP OP_HASH160 e127ffa686d086de6f571b42b92e1aba5efa8932 OP_EQUALVERIFY OP_CHECKSIG", "type": "pubkeyhash"}, "value": 0.18440203, "n": 3}, {"scriptPubKey": {"reqSigs": 1, "hex": "a9141805299a7c66c535a9fc4a427bd9986d5c2964c187", "addresses": ["33t2KqzDbLW75Sgshh3h7Q6oUEQBacjCmV"], "asm": "OP_HASH160 1805299a7c66c535a9fc4a427bd9986d5c2964c1 OP_EQUAL", "type": "scripthash"}, "value": 0.24648342, "n": 4}, {"scriptPubKey": {"reqSigs": 1, "hex": "a9144803da4cbcde779badba290bc4b15dfa48b3d02c87", "addresses": ["38FoC3kFMN9LpoxoWfMMZUVq9VqPKRKzkq"], "asm": "OP_HASH160 4803da4cbcde779badba290bc4b15dfa48b3d02c OP_EQUAL", "type": "scripthash"}, "value": 1.43174419, "n": 5}, {"scriptPubKey": {"reqSigs": 1, "hex": "a9144c6d7880474e5a0ca28f922126797c0b68635bb487", "addresses": ["38f8RHFQ8v6avZqCmaYTga5bTYiuhoM6fh"], "asm": "OP_HASH160 4c6d7880474e5a0ca28f922126797c0b68635bb4 OP_EQUAL", "type": "scripthash"}, "value": 2.1650202, "n": 6}, {"scriptPubKey": {"reqSigs": 1, "hex": "a9142b18b37ec65102a5236e5a584c0259dcf390de6987", "addresses": ["35cta4MdRvwqaAb24MxFZAphpfDnwx9oXL"], "asm": "OP_HASH160 2b18b37ec65102a5236e5a584c0259dcf390de69 OP_EQUAL", "type": "scripthash"}, "value": 3.49005859, "n": 7}, {"scriptPubKey": {"reqSigs": 1, "hex": "a9146da187bf0bfa8d0130882e24bba7f5b0a233abcc87", "addresses": ["3Bgh5mkfB4NJmM3WVn5gdgdd6o1oRH4bMZ"], "asm": "OP_HASH160 6da187bf0bfa8d0130882e24bba7f5b0a233abcc OP_EQUAL", "type": "scripthash"}, "value": 30.0, "n": 8}, {"scriptPubKey": {"reqSigs": 1, "hex": "76a91443849383122ebb8a28268a89700c9f723663b5b888ac", "addresses": ["17A16QmavnUfCW11DAApiJxp7ARnxN5pGX"], "asm": "OP_DUP OP_HASH160 43849383122ebb8a28268a89700c9f723663b5b8 OP_EQUALVERIFY OP_CHECKSIG", "type": "pubkeyhash"}, "value": 155.13209711, "n": 9}], "hex": "02000000049e658ab68f20eb7ef3f0d80751c67e99508e6b1852f8022767fc22ec91121d67050000008a47304402203b2844e3d7c293b7306525c8dd695a7aa873daf03853f5b29274e38eb4d0011a02203c852d67dc51add74be223b512601647f31ba21062b31a0326cec3166b9c87300141047146f0e0fcb3139947cf0beb870fe251930ca10d4545793d31033e801b5219abf56c11a3cf3406ca590e4c14b0dab749d20862b3adc4709153c280c2a78be10cffffffff5d88651f14f37e035c01046ece9ba3762dcd5529ef19b4ff78c031bef39e7be2000000006a47304402205468f19f7464dcd340e1a8a1a8806ffde6f232c551fab09df49918ffa3c33f6c022054ea72a4c54e16c78e9e403902098addff5fbc723e378c6056537a06ad4398c0012103a0c53fcc4704ba78331a896c3bd684328b44890b25f91cfb853ab0bb301c7875ffffffff8d419f721a0c31cc4543bdd58e508e915062f684fb1d3195b1cf3d362f8f2c8b000000006b483045022100c2c6de2bd9b13a177b325c14a42d702de757dc15612a990d9e4384948ab58a51022056fcf2a7e3a4295a7c155da6794a1e3a201c1a3150dc6e81940ab17b132eaeb2012103a0c53fcc4704ba78331a896c3bd684328b44890b25f91cfb853ab0bb301c7875ffffffff2664d25d8859c9ebe24fccba0c0beb44aa8ff74798063d0e7905ebb3789c7368060000008b4830450221008d806b59dad810e8a1b14a2d630fccf05fc856d7cb4c29710adf600ccfa7ee31022046f59d577e03559b8f947c6171bec1c90bf3860cbb3bab37503f5497c16bc0e40141047146f0e0fcb3139947cf0beb870fe251930ca10d4545793d31033e801b5219abf56c11a3cf3406ca590e4c14b0dab749d20862b3adc4709153c280c2a78be10cffffffff0ad0121300000000001976a9141d8c33ffca3e8aa3e0354f10a65778a17ad6879488aca7e233000000000017a914e3a69154291f141d3c010f650a41117b59dd55688720597700000000001976a91455feef4ae4cab75e36561ccc7dec9832f08ca45788ac0b601901000000001976a914e127ffa686d086de6f571b42b92e1aba5efa893288ac961a78010000000017a9141805299a7c66c535a9fc4a427bd9986d5c2964c18713ab88080000000017a9144803da4cbcde779badba290bc4b15dfa48b3d02c87048fe70c0000000017a9144c6d7880474e5a0ca28f922126797c0b68635bb4872368cd140000000017a9142b18b37ec65102a5236e5a584c0259dcf390de6987005ed0b20000000017a9146da187bf0bfa8d0130882e24bba7f5b0a233abcc876fcba89c030000001976a91443849383122ebb8a28268a89700c9f723663b5b888ac00000000", "vin": [{"sequence": 4294967295, "scriptSig": {"hex": "47304402203b2844e3d7c293b7306525c8dd695a7aa873daf03853f5b29274e38eb4d0011a02203c852d67dc51add74be223b512601647f31ba21062b31a0326cec3166b9c87300141047146f0e0fcb3139947cf0beb870fe251930ca10d4545793d31033e801b5219abf56c11a3cf3406ca590e4c14b0dab749d20862b3adc4709153c280c2a78be10c", "asm": "304402203b2844e3d7c293b7306525c8dd695a7aa873daf03853f5b29274e38eb4d0011a02203c852d67dc51add74be223b512601647f31ba21062b31a0326cec3166b9c8730[ALL] 047146f0e0fcb3139947cf0beb870fe251930ca10d4545793d31033e801b5219abf56c11a3cf3406ca590e4c14b0dab749d20862b3adc4709153c280c2a78be10c"}, "vout": 5, "txid": "671d1291ec22fc672702f852186b8e50997ec65107d8f0f37eeb208fb68a659e"}, {"sequence": 4294967295, "scriptSig": {"hex": "47304402205468f19f7464dcd340e1a8a1a8806ffde6f232c551fab09df49918ffa3c33f6c022054ea72a4c54e16c78e9e403902098addff5fbc723e378c6056537a06ad4398c0012103a0c53fcc4704ba78331a896c3bd684328b44890b25f91cfb853ab0bb301c7875", "asm": "304402205468f19f7464dcd340e1a8a1a8806ffde6f232c551fab09df49918ffa3c33f6c022054ea72a4c54e16c78e9e403902098addff5fbc723e378c6056537a06ad4398c0[ALL] 03a0c53fcc4704ba78331a896c3bd684328b44890b25f91cfb853ab0bb301c7875"}, "vout": 0, "txid": "e27b9ef3be31c078ffb419ef2955cd2d76a39bce6e04015c037ef3141f65885d"}, {"sequence": 4294967295, "scriptSig": {"hex": "483045022100c2c6de2bd9b13a177b325c14a42d702de757dc15612a990d9e4384948ab58a51022056fcf2a7e3a4295a7c155da6794a1e3a201c1a3150dc6e81940ab17b132eaeb2012103a0c53fcc4704ba78331a896c3bd684328b44890b25f91cfb853ab0bb301c7875", "asm": "3045022100c2c6de2bd9b13a177b325c14a42d702de757dc15612a990d9e4384948ab58a51022056fcf2a7e3a4295a7c155da6794a1e3a201c1a3150dc6e81940ab17b132eaeb2[ALL] 03a0c53fcc4704ba78331a896c3bd684328b44890b25f91cfb853ab0bb301c7875"}, "vout": 0, "txid": "8b2c8f2f363dcfb195311dfb84f66250918e508ed5bd4345cc310c1a729f418d"}, {"sequence": 4294967295, "scriptSig": {"hex": "4830450221008d806b59dad810e8a1b14a2d630fccf05fc856d7cb4c29710adf600ccfa7ee31022046f59d577e03559b8f947c6171bec1c90bf3860cbb3bab37503f5497c16bc0e40141047146f0e0fcb3139947cf0beb870fe251930ca10d4545793d31033e801b5219abf56c11a3cf3406ca590e4c14b0dab749d20862b3adc4709153c280c2a78be10c", "asm": "30450221008d806b59dad810e8a1b14a2d630fccf05fc856d7cb4c29710adf600ccfa7ee31022046f59d577e03559b8f947c6171bec1c90bf3860cbb3bab37503f5497c16bc0e4[ALL] 047146f0e0fcb3139947cf0beb870fe251930ca10d4545793d31033e801b5219abf56c11a3cf3406ca590e4c14b0dab749d20862b3adc4709153c280c2a78be10c"}, "vout": 6, "txid": "68739c78b3eb05790e3d069847f78faa44eb0b0cbacc4fe2ebc959885dd26426"}], "txid": "34eb32cc1ee207506f19232db00db0bf0210380489b7fbef0ad35d07230484d6", "blocktime": 1537870928, "version": 2, "confirmations": 11512, "time": 1537870928, "locktime": 0, "vsize": 992, "size": 992}