{"hash": "34f2fc07bd943c11229efb53673d87fee4255fa9290bec11fb2c11759a753d29", "blockhash": "000000000000000000022b45ed06c6f4ccd3cf7fb5ba4856ebd2e58215665228", "vout": [{"scriptPubKey": {"type": "nulldata", "hex": "6a146f6d6e69000000000000001f00000005508dfd60", "asm": "OP_RETURN 6f6d6e69000000000000001f00000005508dfd60"}, "value": 0.0, "n": 0}, {"scriptPubKey": {"reqSigs": 1, "hex": "76a914fd4d4f18e0d7d09e98a0232162427110501e7f1388ac", "addresses": ["1Q6La4B8MnaD9C7qASFgi4VyPgDWFV5pV6"], "asm": "OP_DUP OP_HASH160 fd4d4f18e0d7d09e98a0232162427110501e7f13 OP_EQUALVERIFY OP_CHECKSIG", "type": "pubkeyhash"}, "value": 5.46e-06, "n": 1}, {"scriptPubKey": {"reqSigs": 1, "hex": "76a914284b1f894ca72430de8f19952125b6016a9dc7c688ac", "addresses": ["14g42KnXkRFfR8cUtS5tReprjeNvGQKW9v"], "asm": "OP_DUP OP_HASH160 284b1f894ca72430de8f19952125b6016a9dc7c6 OP_EQUALVERIFY OP_CHECKSIG", "type": "pubkeyhash"}, "value": 0.14509449, "n": 2}], "hex": "0100000001a65a61d2c4fc2b18f2f6c8bd16cd6142b88a00f7867909863317fbf8a8e9b29c020000006a47304402206c9052d15271f7a3f679afa2c72a8f46fc0fa2708b3d8005c2d7e23dd86d81fb02207bcddd6cc532494d849307cf060f241b55a9dd38f875be0de05b688540bc927001210392260b2475e9dec1855e89404d00787579055270f3f1619ec29bd64ed6a6dd7dfeffffff030000000000000000166a146f6d6e69000000000000001f00000005508dfd6022020000000000001976a914fd4d4f18e0d7d09e98a0232162427110501e7f1388ac8965dd00000000001976a914284b1f894ca72430de8f19952125b6016a9dc7c688ac0b490800", "vin": [{"sequence": 4294967294, "scriptSig": {"hex": "47304402206c9052d15271f7a3f679afa2c72a8f46fc0fa2708b3d8005c2d7e23dd86d81fb02207bcddd6cc532494d849307cf060f241b55a9dd38f875be0de05b688540bc927001210392260b2475e9dec1855e89404d00787579055270f3f1619ec29bd64ed6a6dd7d", "asm": "304402206c9052d15271f7a3f679afa2c72a8f46fc0fa2708b3d8005c2d7e23dd86d81fb02207bcddd6cc532494d849307cf060f241b55a9dd38f875be0de05b688540bc9270[ALL] 0392260b2475e9dec1855e89404d00787579055270f3f1619ec29bd64ed6a6dd7d"}, "vout": 2, "txid": "9cb2e9a8f8fb173386097986f7008ab84261cd16bdc8f6f2182bfcc4d2615aa6"}], "txid": "34f2fc07bd943c11229efb53673d87fee4255fa9290bec11fb2c11759a753d29", "blocktime": 1537869901, "version": 1, "confirmations": 11522, "time": 1537869901, "locktime": 542987, "vsize": 256, "size": 256}