{"hash": "34f39c71e50c3fd6edae3e74c7cdc0920f9f34c2d64a1e491c5a4671e507ebb5", "blockhash": "000000000000000000022b45ed06c6f4ccd3cf7fb5ba4856ebd2e58215665228", "vout": [{"scriptPubKey": {"reqSigs": 1, "hex": "a914d87e52fa084484792be9af4b20284b1e5b5b537f87", "addresses": ["3MRjD8gygq8EgXKSaWD8XYAyZwjfYbMCbj"], "asm": "OP_HASH160 d87e52fa084484792be9af4b20284b1e5b5b537f OP_EQUAL", "type": "scripthash"}, "value": 0.0044, "n": 0}, {"scriptPubKey": {"reqSigs": 1, "hex": "76a914596e3f991669b33fc47e9661c65526997bd71c0b88ac", "addresses": ["199sDGYsKRhDeSAjYiQtuDPNB9Xvdybdxt"], "asm": "OP_DUP OP_HASH160 596e3f991669b33fc47e9661c65526997bd71c0b OP_EQUALVERIFY OP_CHECKSIG", "type": "pubkeyhash"}, "value": 0.15845387, "n": 1}], "hex": "01000000016d6e3325c6dbc26156bed0672c38db7921677ef569d3fa648c15e3d24457165f010000006b483045022100ec238919b0df6aa47453124724d6f1ec49a4795f810dbb56017c16e6314f55750220767eaccd95b29fcbd3ec38353fedbe17187487bd723322778d9ebc96f9ddd2fd0121027366f16a569c5863d72106ac1bc4b7977864a9468a98d1a14d9d418da84af51afdffffff02c0b606000000000017a914d87e52fa084484792be9af4b20284b1e5b5b537f870bc8f100000000001976a914596e3f991669b33fc47e9661c65526997bd71c0b88ac0b490800", "vin": [{"sequence": 4294967293, "scriptSig": {"hex": "483045022100ec238919b0df6aa47453124724d6f1ec49a4795f810dbb56017c16e6314f55750220767eaccd95b29fcbd3ec38353fedbe17187487bd723322778d9ebc96f9ddd2fd0121027366f16a569c5863d72106ac1bc4b7977864a9468a98d1a14d9d418da84af51a", "asm": "3045022100ec238919b0df6aa47453124724d6f1ec49a4795f810dbb56017c16e6314f55750220767eaccd95b29fcbd3ec38353fedbe17187487bd723322778d9ebc96f9ddd2fd[ALL] 027366f16a569c5863d72106ac1bc4b7977864a9468a98d1a14d9d418da84af51a"}, "vout": 1, "txid": "5f165744d2e3158c64fad369f57e672179db382c67d0be5661c2dbc625336e6d"}], "txid": "34f39c71e50c3fd6edae3e74c7cdc0920f9f34c2d64a1e491c5a4671e507ebb5", "blocktime": 1537869901, "version": 1, "confirmations": 11522, "time": 1537869901, "locktime": 542987, "vsize": 224, "size": 224}