{"hash": "3cd0f62491010225888377d6f399993086eca02b7bbe00d7638f1b76d7398a55", "blockhash": "00000000000000000017f5eb5941039fbcee6240d03bc1f2f8e35350df66a1d8", "vout": [{"scriptPubKey": {"reqSigs": 1, "hex": "a9149abe3a11ad8e9c71a1b49413c1d59a2f7106a1bf87", "addresses": ["3FoDsH4HckCGoDxpmjeFP14QU2QdBABBqg"], "asm": "OP_HASH160 9abe3a11ad8e9c71a1b49413c1d59a2f7106a1bf OP_EQUAL", "type": "scripthash"}, "value": 0.00212387, "n": 0}, {"scriptPubKey": {"reqSigs": 1, "hex": "76a914f517f7ff44b6c852a4f228b138b09938134871f488ac", "addresses": ["1PLwGNnbbfyQvaR7tPxBf5j2wdvmiwSP5q"], "asm": "OP_DUP OP_HASH160 f517f7ff44b6c852a4f228b138b09938134871f4 OP_EQUALVERIFY OP_CHECKSIG", "type": "pubkeyhash"}, "value": 0.03842031, "n": 1}], "hex": "0100000000010a82a6aca62aa5c80f22b25dafbcc967cf28fcefa53be0459df89e4873330aa60d0000000017160014c13001204acfb32ac79599085bb122c2fb0a05b7ffffffff172161f76c632c057e045c80870a6221f2452d182b32c7c6fdb6a0d11b68f7410000000017160014c13001204acfb32ac79599085bb122c2fb0a05b7ffffffffd93c821b82c7405e1e64a36826fb1a0906f93c86b699778982f4a97c8b95fe480000000017160014c13001204acfb32ac79599085bb122c2fb0a05b7ffffffffd6eb241a8bcc039fd8d21af44e86d5980d004be57a9a4b624ae770d14642f2490100000017160014c13001204acfb32ac79599085bb122c2fb0a05b7ffffffff7d1e8d794ab31540d93528b16b01bb6607e2655400d1cbf3358a59bd41b2f4890000000017160014c13001204acfb32ac79599085bb122c2fb0a05b7ffffffffcdfeccff735ac16ef0d61d7fc4743251c91b2bc0bfb26007dd4557a7287f54b40000000017160014c13001204acfb32ac79599085bb122c2fb0a05b7ffffffffb63f9d666818f2e37dc00cbf780364ac8b4db89ee2499f26ce10e6f4be8177c50100000017160014c13001204acfb32ac79599085bb122c2fb0a05b7ffffffff561e0a245da265870ea206ff49d52b4fd0ced953b35d1b49a3f2a9cf0a19d2c600000000171600142949352c9ec1947aa9801a7886a64722a31b4e3affffffff2f4f4516bafdda94263da40b58dc0c5485e6c5c887d7e799ace8d3cb1c5aa5d62c00000017160014c13001204acfb32ac79599085bb122c2fb0a05b7ffffffffe8a5bff69e8878acc4fa9740a1c69c0e147977ef0afede697578925e041890e70100000017160014c13001204acfb32ac79599085bb122c2fb0a05b7ffffffff02a33d03000000000017a9149abe3a11ad8e9c71a1b49413c1d59a2f7106a1bf87ef9f3a00000000001976a914f517f7ff44b6c852a4f228b138b09938134871f488ac02483045022100be1306436d52b769f23720509dbb8a210c23023b43478e8da88d211527d8897d022019e624b925e3d988cdeb917acb1f071e8410729727593173fcb6dbeaebd97a1b012102892b44837c57c16ce0fbfcb4dc5d568ccee2ac3bb4f509dca10840f21efb10e102483045022100fd53c8fda9d5b11108ab85ee0832ccac90819ded986a1083858ad66204958ac302203d3c8aef616f12e50f4a9b7b2a4a5205bff48f1bee90282ac5ec1a151a0e967c012102892b44837c57c16ce0fbfcb4dc5d568ccee2ac3bb4f509dca10840f21efb10e102483045022100c2c6855ca32c7b7c523b74606dead3b10405e65805d7c2c9c8f041b64112e94802204014080928295f135f5665925a45e6e5fe362d0b97e4d0b17b5bb1256641bf5e012102892b44837c57c16ce0fbfcb4dc5d568ccee2ac3bb4f509dca10840f21efb10e10248304502210096a0896d03a88625febace26a45760833715c0e39506326fad06d1af707dd6e402207603b9b57ad6cfef9ed05f24618eef8e01d986cb4a4efc87f9d07e207d47b2f5012102892b44837c57c16ce0fbfcb4dc5d568ccee2ac3bb4f509dca10840f21efb10e1024730440220034520e37b007f3e468b05417cd6fca38247467647adfb044d0a635aec0361b002205bb6a1f0202c2edf9bcb219e9055664ecf99f0595fcc71be883461409fc503e3012102892b44837c57c16ce0fbfcb4dc5d568ccee2ac3bb4f509dca10840f21efb10e1024830450221008a83c370635ee796151f72617ab9775ffea26b15bc5eca466cc32260c187262702204ca00988a77f810315321395e2ba6441748cc160abe2bedbf38e351ad20f4522012102892b44837c57c16ce0fbfcb4dc5d568ccee2ac3bb4f509dca10840f21efb10e102483045022100f8f77397bd82f69ffecd99ed8fe7b401af0c4b223865a60adb138d7100f695c20220704b38407e911b3d756015cf233845cd48685126eb1bb6d01e3468581a7d3931012102892b44837c57c16ce0fbfcb4dc5d568ccee2ac3bb4f509dca10840f21efb10e102483045022100e9fc14bda8939c033b50112e3891fa6172827fd26e7acc0bb8674ed9f6af4b8d02200fbfe2c809813ec71d4f560a6b8c7dd60dc11dfc898b6587bf8f836a3340061c0121038f10f246861a3ed26252d32ccfcf65758ce95f8a386207cb2f6afce75d48074f02483045022100d45d5ff1e0ffdb59d216063600094fccb032a55c52d72bd5a35948dab0fbfa8a02203a518d3995829fed12fd31f8263269ca0b778bb62fb8935405b91cd8478b29d6012102892b44837c57c16ce0fbfcb4dc5d568ccee2ac3bb4f509dca10840f21efb10e102473044022037b5a375d2696548a1d00da026b299618c6497b735686aa0ddbd3f12f5836a540220076b1ca517916e539a17cf3562dc1e14f0e420c1320a20d2bd569faa7266ea66012102892b44837c57c16ce0fbfcb4dc5d568ccee2ac3bb4f509dca10840f21efb10e100000000", "vin": [{"txinwitness": ["3045022100be1306436d52b769f23720509dbb8a210c23023b43478e8da88d211527d8897d022019e624b925e3d988cdeb917acb1f071e8410729727593173fcb6dbeaebd97a1b01", "02892b44837c57c16ce0fbfcb4dc5d568ccee2ac3bb4f509dca10840f21efb10e1"], "sequence": 4294967295, "scriptSig": {"hex": "160014c13001204acfb32ac79599085bb122c2fb0a05b7", "asm": "0014c13001204acfb32ac79599085bb122c2fb0a05b7"}, "vout": 0, "txid": "0da60a3373489ef89d45e03ba5effc28cf67c9bcaf5db2220fc8a52aa6aca682"}, {"txinwitness": ["3045022100fd53c8fda9d5b11108ab85ee0832ccac90819ded986a1083858ad66204958ac302203d3c8aef616f12e50f4a9b7b2a4a5205bff48f1bee90282ac5ec1a151a0e967c01", "02892b44837c57c16ce0fbfcb4dc5d568ccee2ac3bb4f509dca10840f21efb10e1"], "sequence": 4294967295, "scriptSig": {"hex": "160014c13001204acfb32ac79599085bb122c2fb0a05b7", "asm": "0014c13001204acfb32ac79599085bb122c2fb0a05b7"}, "vout": 0, "txid": "41f7681bd1a0b6fdc6c7322b182d45f221620a87805c047e052c636cf7612117"}, {"txinwitness": ["3045022100c2c6855ca32c7b7c523b74606dead3b10405e65805d7c2c9c8f041b64112e94802204014080928295f135f5665925a45e6e5fe362d0b97e4d0b17b5bb1256641bf5e01", "02892b44837c57c16ce0fbfcb4dc5d568ccee2ac3bb4f509dca10840f21efb10e1"], "sequence": 4294967295, "scriptSig": {"hex": "160014c13001204acfb32ac79599085bb122c2fb0a05b7", "asm": "0014c13001204acfb32ac79599085bb122c2fb0a05b7"}, "vout": 0, "txid": "48fe958b7ca9f482897799b6863cf906091afb2668a3641e5e40c7821b823cd9"}, {"txinwitness": ["304502210096a0896d03a88625febace26a45760833715c0e39506326fad06d1af707dd6e402207603b9b57ad6cfef9ed05f24618eef8e01d986cb4a4efc87f9d07e207d47b2f501", "02892b44837c57c16ce0fbfcb4dc5d568ccee2ac3bb4f509dca10840f21efb10e1"], "sequence": 4294967295, "scriptSig": {"hex": "160014c13001204acfb32ac79599085bb122c2fb0a05b7", "asm": "0014c13001204acfb32ac79599085bb122c2fb0a05b7"}, "vout": 1, "txid": "49f24246d170e74a624b9a7ae54b000d98d5864ef41ad2d89f03cc8b1a24ebd6"}, {"txinwitness": ["30440220034520e37b007f3e468b05417cd6fca38247467647adfb044d0a635aec0361b002205bb6a1f0202c2edf9bcb219e9055664ecf99f0595fcc71be883461409fc503e301", "02892b44837c57c16ce0fbfcb4dc5d568ccee2ac3bb4f509dca10840f21efb10e1"], "sequence": 4294967295, "scriptSig": {"hex": "160014c13001204acfb32ac79599085bb122c2fb0a05b7", "asm": "0014c13001204acfb32ac79599085bb122c2fb0a05b7"}, "vout": 0, "txid": "89f4b241bd598a35f3cbd1005465e20766bb016bb12835d94015b34a798d1e7d"}, {"txinwitness": ["30450221008a83c370635ee796151f72617ab9775ffea26b15bc5eca466cc32260c187262702204ca00988a77f810315321395e2ba6441748cc160abe2bedbf38e351ad20f452201", "02892b44837c57c16ce0fbfcb4dc5d568ccee2ac3bb4f509dca10840f21efb10e1"], "sequence": 4294967295, "scriptSig": {"hex": "160014c13001204acfb32ac79599085bb122c2fb0a05b7", "asm": "0014c13001204acfb32ac79599085bb122c2fb0a05b7"}, "vout": 0, "txid": "b4547f28a75745dd0760b2bfc02b1bc9513274c47f1dd6f06ec15a73ffccfecd"}, {"txinwitness": ["3045022100f8f77397bd82f69ffecd99ed8fe7b401af0c4b223865a60adb138d7100f695c20220704b38407e911b3d756015cf233845cd48685126eb1bb6d01e3468581a7d393101", "02892b44837c57c16ce0fbfcb4dc5d568ccee2ac3bb4f509dca10840f21efb10e1"], "sequence": 4294967295, "scriptSig": {"hex": "160014c13001204acfb32ac79599085bb122c2fb0a05b7", "asm": "0014c13001204acfb32ac79599085bb122c2fb0a05b7"}, "vout": 1, "txid": "c57781bef4e610ce269f49e29eb84d8bac640378bf0cc07de3f21868669d3fb6"}, {"txinwitness": ["3045022100e9fc14bda8939c033b50112e3891fa6172827fd26e7acc0bb8674ed9f6af4b8d02200fbfe2c809813ec71d4f560a6b8c7dd60dc11dfc898b6587bf8f836a3340061c01", "038f10f246861a3ed26252d32ccfcf65758ce95f8a386207cb2f6afce75d48074f"], "sequence": 4294967295, "scriptSig": {"hex": "1600142949352c9ec1947aa9801a7886a64722a31b4e3a", "asm": "00142949352c9ec1947aa9801a7886a64722a31b4e3a"}, "vout": 0, "txid": "c6d2190acfa9f2a3491b5db353d9ced04f2bd549ff06a20e8765a25d240a1e56"}, {"txinwitness": ["3045022100d45d5ff1e0ffdb59d216063600094fccb032a55c52d72bd5a35948dab0fbfa8a02203a518d3995829fed12fd31f8263269ca0b778bb62fb8935405b91cd8478b29d601", "02892b44837c57c16ce0fbfcb4dc5d568ccee2ac3bb4f509dca10840f21efb10e1"], "sequence": 4294967295, "scriptSig": {"hex": "160014c13001204acfb32ac79599085bb122c2fb0a05b7", "asm": "0014c13001204acfb32ac79599085bb122c2fb0a05b7"}, "vout": 44, "txid": "d6a55a1ccbd3e8ac99e7d787c8c5e685540cdc580ba43d2694dafdba16454f2f"}, {"txinwitness": ["3044022037b5a375d2696548a1d00da026b299618c6497b735686aa0ddbd3f12f5836a540220076b1ca517916e539a17cf3562dc1e14f0e420c1320a20d2bd569faa7266ea6601", "02892b44837c57c16ce0fbfcb4dc5d568ccee2ac3bb4f509dca10840f21efb10e1"], "sequence": 4294967295, "scriptSig": {"hex": "160014c13001204acfb32ac79599085bb122c2fb0a05b7", "asm": "0014c13001204acfb32ac79599085bb122c2fb0a05b7"}, "vout": 1, "txid": "e79018045e92787569defe0aef7779140e9cc6a14097fac4ac78889ef6bfa5e8"}], "txid": "34f79eecd294207f58a2b42e1a8f7a6a65aa04102f6a192231f4c1b66cabbcb5", "blocktime": 1537874412, "version": 1, "confirmations": 11467, "time": 1537874412, "locktime": 0, "vsize": 986, "size": 1796}