{"hash": "34fd0dd97328b85223df76ff71939880ff66d92e9bf3c2ee4a183193e6393b05", "blockhash": "0000000000000000000dcc0f55137456b1a82d3642486a52398922ac4d620174", "vout": [{"scriptPubKey": {"reqSigs": 1, "hex": "76a9142ba981f20d9aa7341f1ba0a69a7c79654b81b6dd88ac", "addresses": ["14ys7quZHRxzzwLqvr8dNLVoXvTuH2eHj7"], "asm": "OP_DUP OP_HASH160 2ba981f20d9aa7341f1ba0a69a7c79654b81b6dd OP_EQUALVERIFY OP_CHECKSIG", "type": "pubkeyhash"}, "value": 2.004e-05, "n": 0}, {"scriptPubKey": {"reqSigs": 1, "hex": "a9140a64748feed65f5f9a4c54f55b2ed411306dcd8287", "addresses": ["32dy2DiosWRiuDZLXYtrC3iTimo1QiaJev"], "asm": "OP_HASH160 0a64748feed65f5f9a4c54f55b2ed411306dcd82 OP_EQUAL", "type": "scripthash"}, "value": 0.02, "n": 1}], "hex": "02000000020dd85f542eaa622dc02cef479d79a8054d6b589bcef72be01ae4cbe05beb40c6000000006a47304402202c3b8c7eb03f5d9926504fe17b18e498e829ee21bc6fe3d4b4b79189f4f85cb502207c9ac367539372b098bcc751535243dacb7fbdf30b04caaf691f495fbc80532a012102e5f8d81f8e7430ae6f1ce00b51da85b4646bb707d514bd2d51021ef5620bf951fdffffffed24bf93b3a1fa87bd0a915faf7bd6d898c4cd9634f8c96ab41bf327cc33f0f6d10000006a47304402206a2693357b70c9f9b236e01140d6a6a3378e773312df7d8344ab9cac64303509022048deb5f6b0b40e99770742cef1982059fd58c97befc1e6f2f6c8f49bc42a6c4d0121027609ba6bf2d8fbcb80358eed5c9f938e2dcf222a9d58aba83fa2499046919a27fdffffff02d4070000000000001976a9142ba981f20d9aa7341f1ba0a69a7c79654b81b6dd88ac80841e000000000017a9140a64748feed65f5f9a4c54f55b2ed411306dcd82870c490800", "vin": [{"sequence": 4294967293, "scriptSig": {"hex": "47304402202c3b8c7eb03f5d9926504fe17b18e498e829ee21bc6fe3d4b4b79189f4f85cb502207c9ac367539372b098bcc751535243dacb7fbdf30b04caaf691f495fbc80532a012102e5f8d81f8e7430ae6f1ce00b51da85b4646bb707d514bd2d51021ef5620bf951", "asm": "304402202c3b8c7eb03f5d9926504fe17b18e498e829ee21bc6fe3d4b4b79189f4f85cb502207c9ac367539372b098bcc751535243dacb7fbdf30b04caaf691f495fbc80532a[ALL] 02e5f8d81f8e7430ae6f1ce00b51da85b4646bb707d514bd2d51021ef5620bf951"}, "vout": 0, "txid": "c640eb5be0cbe41ae02bf7ce9b586b4d05a8799d47ef2cc02d62aa2e545fd80d"}, {"sequence": 4294967293, "scriptSig": {"hex": "47304402206a2693357b70c9f9b236e01140d6a6a3378e773312df7d8344ab9cac64303509022048deb5f6b0b40e99770742cef1982059fd58c97befc1e6f2f6c8f49bc42a6c4d0121027609ba6bf2d8fbcb80358eed5c9f938e2dcf222a9d58aba83fa2499046919a27", "asm": "304402206a2693357b70c9f9b236e01140d6a6a3378e773312df7d8344ab9cac64303509022048deb5f6b0b40e99770742cef1982059fd58c97befc1e6f2f6c8f49bc42a6c4d[ALL] 027609ba6bf2d8fbcb80358eed5c9f938e2dcf222a9d58aba83fa2499046919a27"}, "vout": 209, "txid": "f6f033cc27f31bb46ac9f83496cdc498d8d67baf5f910abd87faa1b393bf24ed"}], "txid": "34fd0dd97328b85223df76ff71939880ff66d92e9bf3c2ee4a183193e6393b05", "blocktime": 1537870268, "version": 2, "confirmations": 11518, "time": 1537870268, "locktime": 542988, "vsize": 370, "size": 370}