{"hash": "4666065e6b8a0f0061ab8d64b942420dcaa7d267e4575c5aec0307a2770766e4", "blockhash": "00000000000000000004ffacab907a6b429b9a5745fa0b75af4234bf69dd7176", "vout": [{"scriptPubKey": {"reqSigs": 1, "hex": "76a914efe777d4713fde111587aea39c3b429696304bf688ac", "addresses": ["1NsVnXrcaqbdhnC6PsdskSCDFsk2bb4YsX"], "asm": "OP_DUP OP_HASH160 efe777d4713fde111587aea39c3b429696304bf6 OP_EQUALVERIFY OP_CHECKSIG", "type": "pubkeyhash"}, "value": 0.068996, "n": 0}, {"scriptPubKey": {"reqSigs": 1, "hex": "a914dee0a1cc9f055700143e0f4ecee53180ab3530dc87", "addresses": ["3N1V2qWA5hpScEmS72pMooYRmXUiLmwPQQ"], "asm": "OP_HASH160 dee0a1cc9f055700143e0f4ecee53180ab3530dc OP_EQUAL", "type": "scripthash"}, "value": 0.6797481, "n": 1}], "hex": "020000000001018f3c0293f25ab5030c1a408f4daa11af9517e197271c109ef1f06ff569b48ac10100000017160014cb5dbe423de4d42b6425c6921084c6197a5d2937ffffffff0290476900000000001976a914efe777d4713fde111587aea39c3b429696304bf688ac9a360d040000000017a914dee0a1cc9f055700143e0f4ecee53180ab3530dc8702483045022100e9bb197c2ef52e7ce7a2a207c6c866675651a8a28fbaf7f77e4d8189936da3d302201a6e539bf3d7dd681ec15edcc0aa43be0a936902f84d240d7c9939b6cf4c3cba012102acecad485eda786cbe0422823b7594aea6854abb5ec85e267f1c4b87f3f758f700000000", "vin": [{"txinwitness": ["3045022100e9bb197c2ef52e7ce7a2a207c6c866675651a8a28fbaf7f77e4d8189936da3d302201a6e539bf3d7dd681ec15edcc0aa43be0a936902f84d240d7c9939b6cf4c3cba01", "02acecad485eda786cbe0422823b7594aea6854abb5ec85e267f1c4b87f3f758f7"], "sequence": 4294967295, "scriptSig": {"hex": "160014cb5dbe423de4d42b6425c6921084c6197a5d2937", "asm": "0014cb5dbe423de4d42b6425c6921084c6197a5d2937"}, "vout": 1, "txid": "c18ab469f56ff0f19e101c2797e11795af11aa4d8f401a0c03b55af293023c8f"}], "txid": "3505d603b99c5bdc836e92fcd4ec68031a29de8486cbd44b1c2adde03fe8c8d4", "blocktime": 1537875543, "version": 2, "confirmations": 11464, "time": 1537875543, "locktime": 0, "vsize": 168, "size": 250}