{"hash": "3511167bc489fa3cbb2e76d1dcab1745b9286a85aaa3c604bb85a0873a2065d6", "blockhash": "0000000000000000001cda96e906b7601b7a6fb1a3b62bca570a9e5d8f4b3de1", "vout": [{"scriptPubKey": {"reqSigs": 1, "hex": "76a9142266e5eabf7fe9bbbd679bc8066f787769e98ef888ac", "addresses": ["148uF1VXWHJndAqXxipfJHbWQznsnxvecG"], "asm": "OP_DUP OP_HASH160 2266e5eabf7fe9bbbd679bc8066f787769e98ef8 OP_EQUALVERIFY OP_CHECKSIG", "type": "pubkeyhash"}, "value": 0.00039139, "n": 0}, {"scriptPubKey": {"reqSigs": 1, "hex": "76a9148011225a9a40e23a12080558c1b721463980cbfa88ac", "addresses": ["1CgA24Rau5muYNsfCQBbMkaKm5WAgrfP6e"], "asm": "OP_DUP OP_HASH160 8011225a9a40e23a12080558c1b721463980cbfa OP_EQUALVERIFY OP_CHECKSIG", "type": "pubkeyhash"}, "value": 0.069, "n": 1}], "hex": "010000000464712a870a527d6bde4f75fbaa3eb5286728e8415d46f73b91b68883ce37041b000000006a473044022046bc9e236b1dde917c98fde18c8ba588dd760624ac86cd8f33759082937ed63202201e2fb4fbe08bcccfa3c91a2f549f804a175bb85135601a48493e580de8eebb6b012102d75f33396e80a1ec276d9ee5b1c3a6abcc19bab110db1d1fb950e4b005201bc3ffffffff99313921696dacaff2cfc000672d19006d4ff4171960f1c1deb2f0e70eb88e31000000006a47304402203f3004d444e67aa088c79fb8d735e17ea6dafcf35edb707c903de91a123fb7c302201b23e40a4760fc2ba1c6da72557818586883b7ca50ec5be3e290523623bb3de1012102d75f33396e80a1ec276d9ee5b1c3a6abcc19bab110db1d1fb950e4b005201bc3ffffffff82d3ae05f28ebbe0c0778bbcb6e9efdaeff052a4a0b58f00f92d176fae0eaa48000000006b483045022100b0bff03cb4f2fc0c37ea750405d075aaec2c7444c13b856657156f4b7f0dc08602203c133cbfc81835f87eacc5966601c17dac2e26a4ad9205294720ae80861b9178012102d75f33396e80a1ec276d9ee5b1c3a6abcc19bab110db1d1fb950e4b005201bc3ffffffffbe3a8fda74ac4cd66e72c79f2d0524c1e1c0be44d595034193e577a935372068000000006a47304402204af4ab3fe25f3add65f56993865798bcb042a2520a1305d726df5b9a033ee11502205bde48741c3b43079d8e6466ded2a4d05ba3f17869e4e47ab1deab56892314af012102d75f33396e80a1ec276d9ee5b1c3a6abcc19bab110db1d1fb950e4b005201bc3ffffffff02e3980000000000001976a9142266e5eabf7fe9bbbd679bc8066f787769e98ef888ac20496900000000001976a9148011225a9a40e23a12080558c1b721463980cbfa88ac00000000", "vin": [{"sequence": 4294967295, "scriptSig": {"hex": "473044022046bc9e236b1dde917c98fde18c8ba588dd760624ac86cd8f33759082937ed63202201e2fb4fbe08bcccfa3c91a2f549f804a175bb85135601a48493e580de8eebb6b012102d75f33396e80a1ec276d9ee5b1c3a6abcc19bab110db1d1fb950e4b005201bc3", "asm": "3044022046bc9e236b1dde917c98fde18c8ba588dd760624ac86cd8f33759082937ed63202201e2fb4fbe08bcccfa3c91a2f549f804a175bb85135601a48493e580de8eebb6b[ALL] 02d75f33396e80a1ec276d9ee5b1c3a6abcc19bab110db1d1fb950e4b005201bc3"}, "vout": 0, "txid": "1b0437ce8388b6913bf7465d41e8286728b53eaafb754fde6b7d520a872a7164"}, {"sequence": 4294967295, "scriptSig": {"hex": "47304402203f3004d444e67aa088c79fb8d735e17ea6dafcf35edb707c903de91a123fb7c302201b23e40a4760fc2ba1c6da72557818586883b7ca50ec5be3e290523623bb3de1012102d75f33396e80a1ec276d9ee5b1c3a6abcc19bab110db1d1fb950e4b005201bc3", "asm": "304402203f3004d444e67aa088c79fb8d735e17ea6dafcf35edb707c903de91a123fb7c302201b23e40a4760fc2ba1c6da72557818586883b7ca50ec5be3e290523623bb3de1[ALL] 02d75f33396e80a1ec276d9ee5b1c3a6abcc19bab110db1d1fb950e4b005201bc3"}, "vout": 0, "txid": "318eb80ee7f0b2dec1f1601917f44f6d00192d6700c0cff2afac6d6921393199"}, {"sequence": 4294967295, "scriptSig": {"hex": "483045022100b0bff03cb4f2fc0c37ea750405d075aaec2c7444c13b856657156f4b7f0dc08602203c133cbfc81835f87eacc5966601c17dac2e26a4ad9205294720ae80861b9178012102d75f33396e80a1ec276d9ee5b1c3a6abcc19bab110db1d1fb950e4b005201bc3", "asm": "3045022100b0bff03cb4f2fc0c37ea750405d075aaec2c7444c13b856657156f4b7f0dc08602203c133cbfc81835f87eacc5966601c17dac2e26a4ad9205294720ae80861b9178[ALL] 02d75f33396e80a1ec276d9ee5b1c3a6abcc19bab110db1d1fb950e4b005201bc3"}, "vout": 0, "txid": "48aa0eae6f172df9008fb5a0a452f0efdaefe9b6bc8b77c0e0bb8ef205aed382"}, {"sequence": 4294967295, "scriptSig": {"hex": "47304402204af4ab3fe25f3add65f56993865798bcb042a2520a1305d726df5b9a033ee11502205bde48741c3b43079d8e6466ded2a4d05ba3f17869e4e47ab1deab56892314af012102d75f33396e80a1ec276d9ee5b1c3a6abcc19bab110db1d1fb950e4b005201bc3", "asm": "304402204af4ab3fe25f3add65f56993865798bcb042a2520a1305d726df5b9a033ee11502205bde48741c3b43079d8e6466ded2a4d05ba3f17869e4e47ab1deab56892314af[ALL] 02d75f33396e80a1ec276d9ee5b1c3a6abcc19bab110db1d1fb950e4b005201bc3"}, "vout": 0, "txid": "68203735a977e593410395d544bec0e1c124052d9fc7726ed64cac74da8f3abe"}], "txid": "3511167bc489fa3cbb2e76d1dcab1745b9286a85aaa3c604bb85a0873a2065d6", "blocktime": 1537873282, "version": 1, "confirmations": 11485, "time": 1537873282, "locktime": 0, "vsize": 667, "size": 667}