{"hash": "d8bca01d86934d73d60e2ef492c09a0212484a6e81d0d3fd0045bb03006987df", "blockhash": "0000000000000000001cda96e906b7601b7a6fb1a3b62bca570a9e5d8f4b3de1", "vout": [{"scriptPubKey": {"reqSigs": 1, "hex": "0014865d663f6acb62b506dea9227384b9f5466b18cb", "addresses": ["bc1qsewkv0m2ed3t2pk74y388p9e74rxkxxtrz2a40"], "asm": "0 865d663f6acb62b506dea9227384b9f5466b18cb", "type": "witness_v0_keyhash"}, "value": 0.00030697, "n": 0}, {"scriptPubKey": {"reqSigs": 1, "hex": "76a914a62e7aee54130895540f7c90a67a72990085e88988ac", "addresses": ["1G9grLzaATWJRALZ9tdecD5aEWjWth3ZUF"], "asm": "OP_DUP OP_HASH160 a62e7aee54130895540f7c90a67a72990085e889 OP_EQUALVERIFY OP_CHECKSIG", "type": "pubkeyhash"}, "value": 0.00359207, "n": 1}], "hex": "010000000001016a1660cf57a59ffc9de00c1d5ff3236b72184d05c43cc63b6ac2f3a1311768360000000000ffffffff02e977000000000000160014865d663f6acb62b506dea9227384b9f5466b18cb277b0500000000001976a914a62e7aee54130895540f7c90a67a72990085e88988ac0247304402202531e1c0b611e4f352ab8b8004530b971c9da7592a0a7e241177a2b7523a09d9022056ebfc009bbdb55b818f5bdbc34965fec7ef14cbbf9a80d7faadee25e1d6b5780121038d225a81c305815742dcf20c8850661ac6a0959862abe572c87b35eece11140a00000000", "vin": [{"txinwitness": ["304402202531e1c0b611e4f352ab8b8004530b971c9da7592a0a7e241177a2b7523a09d9022056ebfc009bbdb55b818f5bdbc34965fec7ef14cbbf9a80d7faadee25e1d6b57801", "038d225a81c305815742dcf20c8850661ac6a0959862abe572c87b35eece11140a"], "sequence": 4294967295, "scriptSig": {"hex": "", "asm": ""}, "vout": 0, "txid": "36681731a1f3c26a3bc63cc4054d18726b23f35f1d0ce09dfc9fa557cf60166a"}], "txid": "35159031c667eeaecf786aa292217184e30bd749ac14209f5d282c5c8457a006", "blocktime": 1537873282, "version": 1, "confirmations": 11484, "time": 1537873282, "locktime": 0, "vsize": 144, "size": 225}