{"hash": "351eff8338cc9819f61c1884ac14954a5f1937177eebfafb71f240cad79afd5c", "blockhash": "0000000000000000001e0dab787dd257d1dbfcb92a98c2207d5e1078be1f4165", "vout": [{"scriptPubKey": {"reqSigs": 1, "hex": "76a914491ba2e0524760f81135a999f866f7248834b0e988ac", "addresses": ["17fZSCmcgMNEniJ9zVtcTqfB4JLLPjayKp"], "asm": "OP_DUP OP_HASH160 491ba2e0524760f81135a999f866f7248834b0e9 OP_EQUALVERIFY OP_CHECKSIG", "type": "pubkeyhash"}, "value": 0.00156199, "n": 0}, {"scriptPubKey": {"reqSigs": 1, "hex": "76a914f640fea7c4b255d5e1782b741a6979a4ec90a55d88ac", "addresses": ["1PT5674Z8wbkqJx94U3Jv5YpyacgnoZW5Z"], "asm": "OP_DUP OP_HASH160 f640fea7c4b255d5e1782b741a6979a4ec90a55d OP_EQUALVERIFY OP_CHECKSIG", "type": "pubkeyhash"}, "value": 0.00603111, "n": 1}], "hex": "0100000001ff8c1539b7c2bc0da3d69477096e51b1a3fe323a39597040786aefc0ba4d1db5010000006a473044022001468b0c13e19b460b8c02afc7643183646cafb1afc8de96bdb9ef16e67cdca802204ecbf56c8ff20baead265a4ea82909284ae4bb350e258b24a74c11cc58a5bdb5012102ae7a2f3a22a98f6444bc3e686976f9b1aecc47e5be30944526e678241f579203ffffffff0227620200000000001976a914491ba2e0524760f81135a999f866f7248834b0e988ace7330900000000001976a914f640fea7c4b255d5e1782b741a6979a4ec90a55d88ac00000000", "vin": [{"sequence": 4294967295, "scriptSig": {"hex": "473044022001468b0c13e19b460b8c02afc7643183646cafb1afc8de96bdb9ef16e67cdca802204ecbf56c8ff20baead265a4ea82909284ae4bb350e258b24a74c11cc58a5bdb5012102ae7a2f3a22a98f6444bc3e686976f9b1aecc47e5be30944526e678241f579203", "asm": "3044022001468b0c13e19b460b8c02afc7643183646cafb1afc8de96bdb9ef16e67cdca802204ecbf56c8ff20baead265a4ea82909284ae4bb350e258b24a74c11cc58a5bdb5[ALL] 02ae7a2f3a22a98f6444bc3e686976f9b1aecc47e5be30944526e678241f579203"}, "vout": 1, "txid": "b51d4dbac0ef6a78407059393a32fea3b1516e097794d6a30dbcc2b739158cff"}], "txid": "351eff8338cc9819f61c1884ac14954a5f1937177eebfafb71f240cad79afd5c", "blocktime": 1537872475, "version": 1, "confirmations": 11487, "time": 1537872475, "locktime": 0, "vsize": 225, "size": 225}