{"hash": "3523dd0de3babcb432b08cd46f2fed55b3a7d21dfad283470b12a9313290461f", "blockhash": "00000000000000000017f5eb5941039fbcee6240d03bc1f2f8e35350df66a1d8", "vout": [{"scriptPubKey": {"reqSigs": 1, "hex": "76a914743acdcf052a43be3ccc762bc64177551b8935ef88ac", "addresses": ["1BbZq2G4G5Ge1rd2w7bc5hLnEL166jNu66"], "asm": "OP_DUP OP_HASH160 743acdcf052a43be3ccc762bc64177551b8935ef OP_EQUALVERIFY OP_CHECKSIG", "type": "pubkeyhash"}, "value": 0.001586, "n": 0}], "hex": "0100000001f251fad31c30f1838a5e78900f999f59b444dbbc873984f4e5299c8913f1859a030000006b48304502210095969c7b9875ab706c5eea954f8567924b6834541c50f17295ebd78f4a283f3702203c8b3e377fe9d159057d30e844fdf56a03ce48fb1e81a4e69384806dcc04994a012103f4e71311ae0d6efed2b9cde38a0ae0ed09c4ed525df7115ae495397a0920469affffffff01886b0200000000001976a914743acdcf052a43be3ccc762bc64177551b8935ef88ac00000000", "vin": [{"sequence": 4294967295, "scriptSig": {"hex": "48304502210095969c7b9875ab706c5eea954f8567924b6834541c50f17295ebd78f4a283f3702203c8b3e377fe9d159057d30e844fdf56a03ce48fb1e81a4e69384806dcc04994a012103f4e71311ae0d6efed2b9cde38a0ae0ed09c4ed525df7115ae495397a0920469a", "asm": "304502210095969c7b9875ab706c5eea954f8567924b6834541c50f17295ebd78f4a283f3702203c8b3e377fe9d159057d30e844fdf56a03ce48fb1e81a4e69384806dcc04994a[ALL] 03f4e71311ae0d6efed2b9cde38a0ae0ed09c4ed525df7115ae495397a0920469a"}, "vout": 3, "txid": "9a85f113899c29e5f4843987bcdb44b4599f990f90785e8a83f1301cd3fa51f2"}], "txid": "3523dd0de3babcb432b08cd46f2fed55b3a7d21dfad283470b12a9313290461f", "blocktime": 1537874412, "version": 1, "confirmations": 11466, "time": 1537874412, "locktime": 0, "vsize": 192, "size": 192}