{"hash": "3523f6a3f31b0ee7e51b27d590efa64ee40f7c97350f12c23305b29338ad5b02", "blockhash": "00000000000000000024a2167bbff67b0be802c0b01cdd79e6331c2be6459f87", "vout": [{"scriptPubKey": {"reqSigs": 1, "hex": "a914c80a487398dba2fc64ae2e2611cd3eb687cd1b6087", "addresses": ["3KvjPPMKWDFBmKFxPeiJ1uUDeEBnfed5uz"], "asm": "OP_HASH160 c80a487398dba2fc64ae2e2611cd3eb687cd1b60 OP_EQUAL", "type": "scripthash"}, "value": 0.0044346, "n": 0}, {"scriptPubKey": {"reqSigs": 1, "hex": "76a9146c60e52034f8f049362299229b4102f7325108ca88ac", "addresses": ["1At446uke89HytKzLKYaJvAVago9aebFFf"], "asm": "OP_DUP OP_HASH160 6c60e52034f8f049362299229b4102f7325108ca OP_EQUALVERIFY OP_CHECKSIG", "type": "pubkeyhash"}, "value": 0.00555862, "n": 1}], "hex": "01000000018e647d085916fb2354f61e599a98ab2e181eeaffe08158dd3883fd551b52f2f8000000006b483045022100bc32bddb810d8e8c25cd2634a6282077dda3783d55fa5fb72ab8240e90cace430220218520efaed3e4fd847c19e585151ccb179201c37a091008b3a5dd08d41b719a0121038bc77cc60b7c076d5a284724926a9cfd598c813cfc527fec49c8c299a7eafe94ffffffff0244c406000000000017a914c80a487398dba2fc64ae2e2611cd3eb687cd1b6087567b0800000000001976a9146c60e52034f8f049362299229b4102f7325108ca88ac00000000", "vin": [{"sequence": 4294967295, "scriptSig": {"hex": "483045022100bc32bddb810d8e8c25cd2634a6282077dda3783d55fa5fb72ab8240e90cace430220218520efaed3e4fd847c19e585151ccb179201c37a091008b3a5dd08d41b719a0121038bc77cc60b7c076d5a284724926a9cfd598c813cfc527fec49c8c299a7eafe94", "asm": "3045022100bc32bddb810d8e8c25cd2634a6282077dda3783d55fa5fb72ab8240e90cace430220218520efaed3e4fd847c19e585151ccb179201c37a091008b3a5dd08d41b719a[ALL] 038bc77cc60b7c076d5a284724926a9cfd598c813cfc527fec49c8c299a7eafe94"}, "vout": 0, "txid": "f8f2521b55fd8338dd5881e0ffea1e182eab989a591ef65423fb1659087d648e"}], "txid": "3523f6a3f31b0ee7e51b27d590efa64ee40f7c97350f12c23305b29338ad5b02", "blocktime": 1537870564, "version": 1, "confirmations": 11515, "time": 1537870564, "locktime": 0, "vsize": 224, "size": 224}