{"hash": "3526124fb05788b5332c5b7af44ac3b04e84ea53ec48f41a4dc077840482ae3d", "blockhash": "0000000000000000000dcc0f55137456b1a82d3642486a52398922ac4d620174", "vout": [{"scriptPubKey": {"reqSigs": 1, "hex": "a9146a8d192344126f9ccc1f88e4e35bf1db34b3ac9387", "addresses": ["3BQQaYyq5vEfrYfSaA29gwCwfw28tgPfaE"], "asm": "OP_HASH160 6a8d192344126f9ccc1f88e4e35bf1db34b3ac93 OP_EQUAL", "type": "scripthash"}, "value": 0.0016, "n": 0}, {"scriptPubKey": {"reqSigs": 1, "hex": "a9148a054bf720a531fc10b0e4372eee224adbd5bd0487", "addresses": ["3EGoX3HjF4r1jAfKjT9NR1VTa65qP1dKKj"], "asm": "OP_HASH160 8a054bf720a531fc10b0e4372eee224adbd5bd04 OP_EQUAL", "type": "scripthash"}, "value": 0.01945432, "n": 1}], "hex": "0100000001d6847c921a41cb484cb381d36a7369075d363d8eaaae5c186c84948ed577485d01000000fdfd0000483045022100e96e475e8e5ee1f55f092596cddd0291819b3dfc808f9595b1b0bfdeec7ae92c0220774f6026f1b89502a9bf5f077c4ca4e6e8c8399449cdc9fb5423c8e6bc59916501473044022066353a65bf5828284f1f11dc3d6628299b6cac510e8c9310b4485d4c14e4443902200a2dfe58bab9b81ab466ea22e79e2014245b26726ba256ceb451ee7d4dfda4d8014c69522102eaa19c5773cd5debce547a9aa41ae052617a5e3bed6162b693f967ee3a2040082102a024b4bb330b28fe46d661b76d7b008c87d55f1cad4b99c6a2543f72d2923b1b2103efa650e88834c12f6504bcc395c71ca119d1fc2b7f2bd35aed5ee37bbf6094ca53aeffffffff02007102000000000017a9146a8d192344126f9ccc1f88e4e35bf1db34b3ac938758af1d000000000017a9148a054bf720a531fc10b0e4372eee224adbd5bd048700000000", "vin": [{"sequence": 4294967295, "scriptSig": {"hex": "00483045022100e96e475e8e5ee1f55f092596cddd0291819b3dfc808f9595b1b0bfdeec7ae92c0220774f6026f1b89502a9bf5f077c4ca4e6e8c8399449cdc9fb5423c8e6bc59916501473044022066353a65bf5828284f1f11dc3d6628299b6cac510e8c9310b4485d4c14e4443902200a2dfe58bab9b81ab466ea22e79e2014245b26726ba256ceb451ee7d4dfda4d8014c69522102eaa19c5773cd5debce547a9aa41ae052617a5e3bed6162b693f967ee3a2040082102a024b4bb330b28fe46d661b76d7b008c87d55f1cad4b99c6a2543f72d2923b1b2103efa650e88834c12f6504bcc395c71ca119d1fc2b7f2bd35aed5ee37bbf6094ca53ae", "asm": "0 3045022100e96e475e8e5ee1f55f092596cddd0291819b3dfc808f9595b1b0bfdeec7ae92c0220774f6026f1b89502a9bf5f077c4ca4e6e8c8399449cdc9fb5423c8e6bc599165[ALL] 3044022066353a65bf5828284f1f11dc3d6628299b6cac510e8c9310b4485d4c14e4443902200a2dfe58bab9b81ab466ea22e79e2014245b26726ba256ceb451ee7d4dfda4d8[ALL] 522102eaa19c5773cd5debce547a9aa41ae052617a5e3bed6162b693f967ee3a2040082102a024b4bb330b28fe46d661b76d7b008c87d55f1cad4b99c6a2543f72d2923b1b2103efa650e88834c12f6504bcc395c71ca119d1fc2b7f2bd35aed5ee37bbf6094ca53ae"}, "vout": 1, "txid": "5d4877d58e94846c185caeaa8e3d365d0769736ad381b34c48cb411a927c84d6"}], "txid": "3526124fb05788b5332c5b7af44ac3b04e84ea53ec48f41a4dc077840482ae3d", "blocktime": 1537870268, "version": 1, "confirmations": 11516, "time": 1537870268, "locktime": 0, "vsize": 370, "size": 370}