{"hash": "35289e600a901a1fb4a4fa16df7e44d5975276a4db7bdf3ca6f425b8286e6b0c", "blockhash": "0000000000000000000e13cef7c366c0283d82e591d1acd082e914b08063cdf1", "vout": [{"scriptPubKey": {"reqSigs": 1, "hex": "a914308c1b7057b9beffbd198b96a46b34b8e06d646187", "addresses": ["367iCZyYVQZd8goWmTGQorKxLDLsFVFeVW"], "asm": "OP_HASH160 308c1b7057b9beffbd198b96a46b34b8e06d6461 OP_EQUAL", "type": "scripthash"}, "value": 0.03148811, "n": 0}, {"scriptPubKey": {"reqSigs": 1, "hex": "76a9146586ced214191eaee684bf8787713d2671eff5aa88ac", "addresses": ["1AFpjzWNNtmMamjbbSSNLiVdktzrYMspCQ"], "asm": "OP_DUP OP_HASH160 6586ced214191eaee684bf8787713d2671eff5aa OP_EQUALVERIFY OP_CHECKSIG", "type": "pubkeyhash"}, "value": 0.10934513, "n": 1}], "hex": "020000000188330dc8fef6d89499e55dfea01c73f72d2300730a55fe87bfe0cc6828b68516010000006a473044022024962e39df8a4036c984909b339cc7c593ccbe4531117df6e3eeadedfc447a3402205d5e441b097944f517d1332c40d64f8e1c0d53ea24b86642a7c06db1d34d24a101210210dac65f236a05432a1dbd2f909aa1c6e1870304203e734e8d07db9b57443d46ffffffff020b0c30000000000017a914308c1b7057b9beffbd198b96a46b34b8e06d646187f1d8a600000000001976a9146586ced214191eaee684bf8787713d2671eff5aa88ac00000000", "vin": [{"sequence": 4294967295, "scriptSig": {"hex": "473044022024962e39df8a4036c984909b339cc7c593ccbe4531117df6e3eeadedfc447a3402205d5e441b097944f517d1332c40d64f8e1c0d53ea24b86642a7c06db1d34d24a101210210dac65f236a05432a1dbd2f909aa1c6e1870304203e734e8d07db9b57443d46", "asm": "3044022024962e39df8a4036c984909b339cc7c593ccbe4531117df6e3eeadedfc447a3402205d5e441b097944f517d1332c40d64f8e1c0d53ea24b86642a7c06db1d34d24a1[ALL] 0210dac65f236a05432a1dbd2f909aa1c6e1870304203e734e8d07db9b57443d46"}, "vout": 1, "txid": "1685b62868cce0bf87fe550a7300232df7731ca0fe5de59994d8f6fec80d3388"}], "txid": "35289e600a901a1fb4a4fa16df7e44d5975276a4db7bdf3ca6f425b8286e6b0c", "blocktime": 1537871767, "version": 2, "confirmations": 11493, "time": 1537871767, "locktime": 0, "vsize": 223, "size": 223}