{"hash": "f0e28133e2a3271c6b64fe0fb3446759d01155de6de158f4c36d053b33220251", "blockhash": "00000000000000000024a2167bbff67b0be802c0b01cdd79e6331c2be6459f87", "vout": [{"scriptPubKey": {"reqSigs": 1, "hex": "0014bee8fd7e5c7cd44104717204df80dad93c97c99b", "addresses": ["bc1qhm506lju0n2yzpr3wgzdlqx6my7f0jvm2pwtsk"], "asm": "0 bee8fd7e5c7cd44104717204df80dad93c97c99b", "type": "witness_v0_keyhash"}, "value": 0.00081839, "n": 0}, {"scriptPubKey": {"reqSigs": 1, "hex": "76a9141d1c8cc61c55779ef18c6a2e551c4c63e85da0c788ac", "addresses": ["13evoFCPtm7tZVdrAjcVd7VqLAhjRwAUXk"], "asm": "OP_DUP OP_HASH160 1d1c8cc61c55779ef18c6a2e551c4c63e85da0c7 OP_EQUALVERIFY OP_CHECKSIG", "type": "pubkeyhash"}, "value": 0.02017573, "n": 1}], "hex": "01000000000101fa2b937d978517f9e96065874ccf34e916b270b48ce19512a05543591e21fd9300000000171600140320ff53eb84d1d186be551081478a519060b33bffffffff02af3f010000000000160014bee8fd7e5c7cd44104717204df80dad93c97c99b25c91e00000000001976a9141d1c8cc61c55779ef18c6a2e551c4c63e85da0c788ac02483045022100cb120709993dcf0441c2abd106ea6ecd48075549ad7880c2d7986f27adb0383f02200d16a9a31a9d1df111b801ecce338cd3eafd515fa066fec5ed639ffe097830d701210212623e3eee2a653ea2aa678889c99f4bbc1f308512e11b8fb4db55d1364f372000000000", "vin": [{"txinwitness": ["3045022100cb120709993dcf0441c2abd106ea6ecd48075549ad7880c2d7986f27adb0383f02200d16a9a31a9d1df111b801ecce338cd3eafd515fa066fec5ed639ffe097830d701", "0212623e3eee2a653ea2aa678889c99f4bbc1f308512e11b8fb4db55d1364f3720"], "sequence": 4294967295, "scriptSig": {"hex": "1600140320ff53eb84d1d186be551081478a519060b33b", "asm": "00140320ff53eb84d1d186be551081478a519060b33b"}, "vout": 0, "txid": "93fd211e594355a01295e18cb470b216e934cf4c876560e9f91785977d932bfa"}], "txid": "35280905dd7eeca6bb123de0be825a532042b2f5efd54d23b45dd919a7d22d20", "blocktime": 1537870564, "version": 1, "confirmations": 11515, "time": 1537870564, "locktime": 0, "vsize": 167, "size": 249}