{"hash": "cd9803e33b1c73ec1edb61eedbdad6b80aedae37204e5b6081e510f6f1d86136", "blockhash": "0000000000000000001e0dab787dd257d1dbfcb92a98c2207d5e1078be1f4165", "vout": [{"scriptPubKey": {"reqSigs": 1, "hex": "76a9149a1b8f9b1fa2d2297863adb1cb11c71df455684888ac", "addresses": ["1F3r5We2zwNiSzG6GQUTTWnnPMCz2HJbJu"], "asm": "OP_DUP OP_HASH160 9a1b8f9b1fa2d2297863adb1cb11c71df4556848 OP_EQUALVERIFY OP_CHECKSIG", "type": "pubkeyhash"}, "value": 2.726e-05, "n": 0}, {"scriptPubKey": {"reqSigs": 1, "hex": "a9148ddb66c3371910a0ef8f38021cc4094e61e69f3a87", "addresses": ["3Ed62sPENkraPwpovPty9YMFGJ8FtTyv63"], "asm": "OP_HASH160 8ddb66c3371910a0ef8f38021cc4094e61e69f3a OP_EQUAL", "type": "scripthash"}, "value": 3.048e-05, "n": 1}], "hex": "01000000000102bd97fd5dea6d466dd8ca222b9f0e37e978fb7c9420180a5d4b3dcd5878f82c380100000023220020941cfaff8837763dc1f69ff82b6d6553fdea17a41cfc29a04403293eedd8ccc7ffffffffa748537e27f701942ad51b169719f144a8ebd3dfa9f8b503ee0ae446e18f833d0100000023220020fdd23d707f55451c4e006c77b5e8df35a185a8e99f9bda70bf0ded7913bb1eb3ffffffff02a60a0000000000001976a9149a1b8f9b1fa2d2297863adb1cb11c71df455684888ace80b00000000000017a9148ddb66c3371910a0ef8f38021cc4094e61e69f3a8704004730440220070ba73caf88980e2939b6b94628612edaee59e742a00403b1a554f485a5fad202204f62e534e047bf6dd8962c430efe32ce0fb92386fa6054d57436bc927c77e5a80147304402204f4b20667187a8c87291d2276c297c0874589f3832c46448c91deebf1fdb30e902207403f7fc73a39bf82a071fb500d69c98cc8ab2616c76f8a1b52b5166f2bef30f0147522102531db3a5883f29bab4241dd0cd726936667bcda445d89bdd22244e828b6993342103148c80a5bdfddb05ff5bcffc397c8ca748d8b435ec6a175bc9d7bfc7fc6f853752ae0400483045022100b48c30fae4cdcbec6d5195004b32ba3720d3e57e77ff2e68a2079bde7f1a605902200aaeeb0aee9a9aa76ff9c55c5896e59464bb6befc37b92d21181953270b3a9eb0147304402201501195c993785907747afe970021ddf240ce669292c109ffa949b2b91289db9022045f1d37e0800661c6f0680243c9bc9c3094a701ccf9195450c93d34c490a8a20014752210286c104577b978160849865bc23f9a6df9b53d41c8ffb486754b97b2a474a181c2103148c80a5bdfddb05ff5bcffc397c8ca748d8b435ec6a175bc9d7bfc7fc6f853752ae00000000", "vin": [{"txinwitness": ["", "30440220070ba73caf88980e2939b6b94628612edaee59e742a00403b1a554f485a5fad202204f62e534e047bf6dd8962c430efe32ce0fb92386fa6054d57436bc927c77e5a801", "304402204f4b20667187a8c87291d2276c297c0874589f3832c46448c91deebf1fdb30e902207403f7fc73a39bf82a071fb500d69c98cc8ab2616c76f8a1b52b5166f2bef30f01", "522102531db3a5883f29bab4241dd0cd726936667bcda445d89bdd22244e828b6993342103148c80a5bdfddb05ff5bcffc397c8ca748d8b435ec6a175bc9d7bfc7fc6f853752ae"], "sequence": 4294967295, "scriptSig": {"hex": "220020941cfaff8837763dc1f69ff82b6d6553fdea17a41cfc29a04403293eedd8ccc7", "asm": "0020941cfaff8837763dc1f69ff82b6d6553fdea17a41cfc29a04403293eedd8ccc7"}, "vout": 1, "txid": "382cf87858cd3d4b5d0a1820947cfb78e9370e9f2b22cad86d466dea5dfd97bd"}, {"txinwitness": ["", "3045022100b48c30fae4cdcbec6d5195004b32ba3720d3e57e77ff2e68a2079bde7f1a605902200aaeeb0aee9a9aa76ff9c55c5896e59464bb6befc37b92d21181953270b3a9eb01", "304402201501195c993785907747afe970021ddf240ce669292c109ffa949b2b91289db9022045f1d37e0800661c6f0680243c9bc9c3094a701ccf9195450c93d34c490a8a2001", "52210286c104577b978160849865bc23f9a6df9b53d41c8ffb486754b97b2a474a181c2103148c80a5bdfddb05ff5bcffc397c8ca748d8b435ec6a175bc9d7bfc7fc6f853752ae"], "sequence": 4294967295, "scriptSig": {"hex": "220020fdd23d707f55451c4e006c77b5e8df35a185a8e99f9bda70bf0ded7913bb1eb3", "asm": "0020fdd23d707f55451c4e006c77b5e8df35a185a8e99f9bda70bf0ded7913bb1eb3"}, "vout": 1, "txid": "3d838fe146e40aee03b5f8a9dfd3eba844f11997161bd52a9401f7277e5348a7"}], "txid": "352bf994e504c2b001ac0042380108f7be36510c549505a420da5eb31ecdc850", "blocktime": 1537872475, "version": 1, "confirmations": 11487, "time": 1537872475, "locktime": 0, "vsize": 338, "size": 667}