{"hash": "352edf1dcb63c942d5fdb16360b2428f2d6b99a692026deda38344d6efde966f", "blockhash": "00000000000000000004ffacab907a6b429b9a5745fa0b75af4234bf69dd7176", "vout": [{"scriptPubKey": {"reqSigs": 1, "hex": "a914a7c0fc26c36d1ef7f17a0cb6a4409167350009eb87", "addresses": ["3Gz1xQjRDjyjeXnBq9THqyUYrQHTLJ2d1K"], "asm": "OP_HASH160 a7c0fc26c36d1ef7f17a0cb6a4409167350009eb OP_EQUAL", "type": "scripthash"}, "value": 0.0046872, "n": 0}, {"scriptPubKey": {"reqSigs": 1, "hex": "76a9140eac340f9dc16e371ebc5d503141a5be6e4d555188ac", "addresses": ["12LakawALS4UCvQorXJyXD31umJsnBqyyF"], "asm": "OP_DUP OP_HASH160 0eac340f9dc16e371ebc5d503141a5be6e4d5551 OP_EQUALVERIFY OP_CHECKSIG", "type": "pubkeyhash"}, "value": 4.88018118, "n": 1}], "hex": "0100000001c4b860dd31d2119d94e6c402f25bd7e16ef47153c672be8402ec279dbfb6f3d7010000006a47304402204c603905dbff134e6e2c4117c364becfca26edffbb77d6163f8f80561570934f022047ac430a05b09e03b9d60e5e2a4ebd0a48c63b3c502f8cd1c00d3f374c97ae0001210219cca5e98a8bb2fc892e9b9e9f705bf1ba8c310c137d763fa425a225bb8e61a3ffffffff02f02607000000000017a914a7c0fc26c36d1ef7f17a0cb6a4409167350009eb87c690161d000000001976a9140eac340f9dc16e371ebc5d503141a5be6e4d555188ac00000000", "vin": [{"sequence": 4294967295, "scriptSig": {"hex": "47304402204c603905dbff134e6e2c4117c364becfca26edffbb77d6163f8f80561570934f022047ac430a05b09e03b9d60e5e2a4ebd0a48c63b3c502f8cd1c00d3f374c97ae0001210219cca5e98a8bb2fc892e9b9e9f705bf1ba8c310c137d763fa425a225bb8e61a3", "asm": "304402204c603905dbff134e6e2c4117c364becfca26edffbb77d6163f8f80561570934f022047ac430a05b09e03b9d60e5e2a4ebd0a48c63b3c502f8cd1c00d3f374c97ae00[ALL] 0219cca5e98a8bb2fc892e9b9e9f705bf1ba8c310c137d763fa425a225bb8e61a3"}, "vout": 1, "txid": "d7f3b6bf9d27ec0284be72c65371f46ee1d75bf202c4e6949d11d231dd60b8c4"}], "txid": "352edf1dcb63c942d5fdb16360b2428f2d6b99a692026deda38344d6efde966f", "blocktime": 1537875543, "version": 1, "confirmations": 11464, "time": 1537875543, "locktime": 0, "vsize": 223, "size": 223}