{"hash": "471bcfdaf9df4c531f4bd438c82c71868606c9cd9f38af4f54193ced05ba67a8", "blockhash": "00000000000000000018f53835495a110e01622372bf6ae95dc86f2b0ab887b0", "vout": [{"scriptPubKey": {"reqSigs": 1, "hex": "76a9148590d93fae9e1cee95682750e0ba369f901cd6f288ac", "addresses": ["1DBEPmosjWqRffMQwZk9Tv9gvuUtt3Dx8K"], "asm": "OP_DUP OP_HASH160 8590d93fae9e1cee95682750e0ba369f901cd6f2 OP_EQUALVERIFY OP_CHECKSIG", "type": "pubkeyhash"}, "value": 0.010577, "n": 0}, {"scriptPubKey": {"reqSigs": 1, "hex": "a9142399b0017317f2edb8da7e120b429f51faa7143d87", "addresses": ["34wFgetWeVfLaJTLHoehBJomX5xYAaGjRP"], "asm": "OP_HASH160 2399b0017317f2edb8da7e120b429f51faa7143d OP_EQUAL", "type": "scripthash"}, "value": 0.23932884, "n": 1}], "hex": "010000000001010fda7d7724c2a280847d3c0d446b59b397a2b59224cf3eaafa842fe0ccdee18f01000000232200203a5a2cb54b2fcd261ed320ed3be563df5b492e46a8381cb1df1428f213c2195effffffff02a4231000000000001976a9148590d93fae9e1cee95682750e0ba369f901cd6f288acd42f6d010000000017a9142399b0017317f2edb8da7e120b429f51faa7143d87040048304502210096ac17254842e47e55ee22d62aa0952211c579050f8c79968ba6408e7befb1da022012d425c783b3f04ea0b3a1e4bdbb458916850b5f4d34cc44c89ab252eb4123a8014730440220451080f00163b593f5944eec82ba17ae795a19ede62e4ede2659ce0b9e7f674602203edd1a36f7b8b7f3eb3b0974e5cc6f1629f2bab6a1b6478206f83a0a6d0bcef201475221038fa3e648d33e3c1ff59d943853643b577236414d5c5b99cba36e85d698ebd32921038c8e132f6c5732e1db273bf84697ff3cb1e91ba38e73e684ecb3ff454e02702552ae00000000", "vin": [{"txinwitness": ["", "304502210096ac17254842e47e55ee22d62aa0952211c579050f8c79968ba6408e7befb1da022012d425c783b3f04ea0b3a1e4bdbb458916850b5f4d34cc44c89ab252eb4123a801", "30440220451080f00163b593f5944eec82ba17ae795a19ede62e4ede2659ce0b9e7f674602203edd1a36f7b8b7f3eb3b0974e5cc6f1629f2bab6a1b6478206f83a0a6d0bcef201", "5221038fa3e648d33e3c1ff59d943853643b577236414d5c5b99cba36e85d698ebd32921038c8e132f6c5732e1db273bf84697ff3cb1e91ba38e73e684ecb3ff454e02702552ae"], "sequence": 4294967295, "scriptSig": {"hex": "2200203a5a2cb54b2fcd261ed320ed3be563df5b492e46a8381cb1df1428f213c2195e", "asm": "00203a5a2cb54b2fcd261ed320ed3be563df5b492e46a8381cb1df1428f213c2195e"}, "vout": 1, "txid": "8fe1decce02f84faaa3ecf2492b5a297b3596b440d3c7d8480a2c224777dda0f"}], "txid": "352e3b016bde0e555af6b231fcd1c2192c5a7d651b98d06f9722da948dea2cc8", "blocktime": 1537870928, "version": 1, "confirmations": 11514, "time": 1537870928, "locktime": 0, "vsize": 208, "size": 373}