{"hash": "352fd4086d12a30900bf324b4a1683d4fbc7d235f0ea9bb67078a7e886f26a5c", "blockhash": "0000000000000000000dcc0f55137456b1a82d3642486a52398922ac4d620174", "vout": [{"scriptPubKey": {"reqSigs": 1, "hex": "76a91490b8e37ad9a5fd87593dbf370f04006c9954324688ac", "addresses": ["1ECDnugN5FHzc9Aun7nrP7aXbw5N4Sw4h4"], "asm": "OP_DUP OP_HASH160 90b8e37ad9a5fd87593dbf370f04006c99543246 OP_EQUALVERIFY OP_CHECKSIG", "type": "pubkeyhash"}, "value": 0.01090924, "n": 0}, {"scriptPubKey": {"reqSigs": 1, "hex": "76a9142342716b1fe651fb02587b96a0ae3a1e46675c6988ac", "addresses": ["14DSFFw9d4nhu5WoKbCHyG2V5yB8KwZk8Q"], "asm": "OP_DUP OP_HASH160 2342716b1fe651fb02587b96a0ae3a1e46675c69 OP_EQUALVERIFY OP_CHECKSIG", "type": "pubkeyhash"}, "value": 0.07046235, "n": 1}], "hex": "010000000135243f2dd9133f2a4b161b5406b4ecac9616eb8fd6cffbbf51169a74efb1a348010000006a4730440220645f7cff1709c2a218a8a270d7dc079716b2b8dca6221792c6434dc013c1c957022052d13924c963b00da51a9418aa55e79334655ae480362a69323fb7ae4e84443c01210350fb9249809af4bef1363b15906fd82de3fd9c5a033119413570f603d7ae7817ffffffff026ca51000000000001976a91490b8e37ad9a5fd87593dbf370f04006c9954324688ac5b846b00000000001976a9142342716b1fe651fb02587b96a0ae3a1e46675c6988ac00000000", "vin": [{"sequence": 4294967295, "scriptSig": {"hex": "4730440220645f7cff1709c2a218a8a270d7dc079716b2b8dca6221792c6434dc013c1c957022052d13924c963b00da51a9418aa55e79334655ae480362a69323fb7ae4e84443c01210350fb9249809af4bef1363b15906fd82de3fd9c5a033119413570f603d7ae7817", "asm": "30440220645f7cff1709c2a218a8a270d7dc079716b2b8dca6221792c6434dc013c1c957022052d13924c963b00da51a9418aa55e79334655ae480362a69323fb7ae4e84443c[ALL] 0350fb9249809af4bef1363b15906fd82de3fd9c5a033119413570f603d7ae7817"}, "vout": 1, "txid": "48a3b1ef749a1651bffbcfd68feb1696acecb406541b164b2a3f13d92d3f2435"}], "txid": "352fd4086d12a30900bf324b4a1683d4fbc7d235f0ea9bb67078a7e886f26a5c", "blocktime": 1537870268, "version": 1, "confirmations": 11518, "time": 1537870268, "locktime": 0, "vsize": 225, "size": 225}