{"hash": "35326d6c8a4b9e94feb643f4d8d5a721209fb5fb0761fd4898679f6c4136837c", "blockhash": "0000000000000000000dcc0f55137456b1a82d3642486a52398922ac4d620174", "vout": [{"scriptPubKey": {"reqSigs": 1, "hex": "76a914bf8ecfb9d55a2739421d36743af6ed3e6d20866d88ac", "addresses": ["1JTs9MQ3YS6mAwLJNQN2rzjRvpBqnFTQZU"], "asm": "OP_DUP OP_HASH160 bf8ecfb9d55a2739421d36743af6ed3e6d20866d OP_EQUALVERIFY OP_CHECKSIG", "type": "pubkeyhash"}, "value": 0.00471503, "n": 0}, {"scriptPubKey": {"reqSigs": 1, "hex": "76a9141c1246ea464135cf26709b180cec48c827e6a9a488ac", "addresses": ["13ZRpHG1s7dbvsxEby4XoJoQwvzHDAZWaY"], "asm": "OP_DUP OP_HASH160 1c1246ea464135cf26709b180cec48c827e6a9a4 OP_EQUALVERIFY OP_CHECKSIG", "type": "pubkeyhash"}, "value": 0.00162328, "n": 1}], "hex": "0100000001056909b41184d0ec3db3f740975a5c88c1ce4ac3ca303d2fdd515992f784ac37000000008b483045022100c33ba101f6a672ca30e4df9efe0b878631d251734dca652babbebda6561cdd7302203ace6ec5fbf56bcdadeb064aa0862b348c27e88266cd63ab87af373a41061666014104a901f0b8d49302b288db0ecfd8a50c0e3f3b7700b24b849cfe64ba0ad6545acc7c582cde9a78adabfca68c11cf9e5e3c609a6b5823e66c271ceb1bf3b40e74c4ffffffff02cf310700000000001976a914bf8ecfb9d55a2739421d36743af6ed3e6d20866d88ac187a0200000000001976a9141c1246ea464135cf26709b180cec48c827e6a9a488ac00000000", "vin": [{"sequence": 4294967295, "scriptSig": {"hex": "483045022100c33ba101f6a672ca30e4df9efe0b878631d251734dca652babbebda6561cdd7302203ace6ec5fbf56bcdadeb064aa0862b348c27e88266cd63ab87af373a41061666014104a901f0b8d49302b288db0ecfd8a50c0e3f3b7700b24b849cfe64ba0ad6545acc7c582cde9a78adabfca68c11cf9e5e3c609a6b5823e66c271ceb1bf3b40e74c4", "asm": "3045022100c33ba101f6a672ca30e4df9efe0b878631d251734dca652babbebda6561cdd7302203ace6ec5fbf56bcdadeb064aa0862b348c27e88266cd63ab87af373a41061666[ALL] 04a901f0b8d49302b288db0ecfd8a50c0e3f3b7700b24b849cfe64ba0ad6545acc7c582cde9a78adabfca68c11cf9e5e3c609a6b5823e66c271ceb1bf3b40e74c4"}, "vout": 0, "txid": "37ac84f7925951dd2f3d30cac34acec1885c5a9740f7b33decd08411b4096905"}], "txid": "35326d6c8a4b9e94feb643f4d8d5a721209fb5fb0761fd4898679f6c4136837c", "blocktime": 1537870268, "version": 1, "confirmations": 11516, "time": 1537870268, "locktime": 0, "vsize": 258, "size": 258}