{"hash": "353a95bf1f567fb97d85cb7c093b656cef74444d215104b27b73ed261126e8a5", "blockhash": "0000000000000000000e13cef7c366c0283d82e591d1acd082e914b08063cdf1", "vout": [{"scriptPubKey": {"reqSigs": 1, "hex": "a914e5befd98403368460f02310a50e992b9c0e3af7e87", "addresses": ["3NdoTjTFVY7HY6LRs9w5Kn5KJX8641Uuih"], "asm": "OP_HASH160 e5befd98403368460f02310a50e992b9c0e3af7e OP_EQUAL", "type": "scripthash"}, "value": 0.0046869, "n": 0}, {"scriptPubKey": {"reqSigs": 1, "hex": "76a9149e53fa69e3da1880096936c3ebcbbeb0c594256388ac", "addresses": ["1FSANDVMKySgEvRJGzvJi2s2wy17NoWA26"], "asm": "OP_DUP OP_HASH160 9e53fa69e3da1880096936c3ebcbbeb0c5942563 OP_EQUALVERIFY OP_CHECKSIG", "type": "pubkeyhash"}, "value": 0.00509647, "n": 1}], "hex": "010000000126324d0ab369697d7827755041d247ca90d801a56233c596c74c14960dbe6294000000006b483045022100b9a93117895ebc07d50ee6ecc3074fd67bc69b9962dae3d1f74f75aad5d1140a022049a462590f2c424b438e31409baddc8947a90660b963b2e51f728d3a77cf21b8012102f2f9ac3a517ba8c32118252bb4cc80fa0e7124a6e5d4c593f3af8a38e307aa9affffffff02d22607000000000017a914e5befd98403368460f02310a50e992b9c0e3af7e87cfc60700000000001976a9149e53fa69e3da1880096936c3ebcbbeb0c594256388ac00000000", "vin": [{"sequence": 4294967295, "scriptSig": {"hex": "483045022100b9a93117895ebc07d50ee6ecc3074fd67bc69b9962dae3d1f74f75aad5d1140a022049a462590f2c424b438e31409baddc8947a90660b963b2e51f728d3a77cf21b8012102f2f9ac3a517ba8c32118252bb4cc80fa0e7124a6e5d4c593f3af8a38e307aa9a", "asm": "3045022100b9a93117895ebc07d50ee6ecc3074fd67bc69b9962dae3d1f74f75aad5d1140a022049a462590f2c424b438e31409baddc8947a90660b963b2e51f728d3a77cf21b8[ALL] 02f2f9ac3a517ba8c32118252bb4cc80fa0e7124a6e5d4c593f3af8a38e307aa9a"}, "vout": 0, "txid": "9462be0d96144cc796c53362a501d890ca47d241507527787d6969b30a4d3226"}], "txid": "353a95bf1f567fb97d85cb7c093b656cef74444d215104b27b73ed261126e8a5", "blocktime": 1537871767, "version": 1, "confirmations": 11491, "time": 1537871767, "locktime": 0, "vsize": 224, "size": 224}