{"hash": "4e5f297a67136943e56df39350dbce7d3cbded8461dbe1d00f2ec510cd37c365", "blockhash": "0000000000000000000e13cef7c366c0283d82e591d1acd082e914b08063cdf1", "vout": [{"scriptPubKey": {"reqSigs": 1, "hex": "0014237001c1bf96ae6c764cf40157d5a9a93e01babe", "addresses": ["bc1qydcqrsdlj6hxcajv7sq404df4ylqrw47wdn5md"], "asm": "0 237001c1bf96ae6c764cf40157d5a9a93e01babe", "type": "witness_v0_keyhash"}, "value": 1.429e-05, "n": 0}, {"scriptPubKey": {"reqSigs": 1, "hex": "76a914735dfac204ad342ea5b53cadfd84f5503224646688ac", "addresses": ["1BX1HsbBdZ3LRSo1e7X2UQ1qzLCyeUwPtB"], "asm": "OP_DUP OP_HASH160 735dfac204ad342ea5b53cadfd84f55032246466 OP_EQUALVERIFY OP_CHECKSIG", "type": "pubkeyhash"}, "value": 0.00249256, "n": 1}], "hex": "0100000000010128bd9753db5fde955efa949de25186638bb3d48b2c181265b9d765042e5379c80100000000ffffffff029505000000000000160014237001c1bf96ae6c764cf40157d5a9a93e01babea8cd0300000000001976a914735dfac204ad342ea5b53cadfd84f5503224646688ac0248304502210089dbcd22d217b00a0516b9a5feb93bf8acd75536ff0571d7ac1e7f95b9b743fb02203b75516ccdfc16ba72e4f4d53bc84d72f508678180dd7fc6c2afbb5ee468c8130121030e53b3a995966342bfecdbec76bd0b3bb317a932d9e47952ad2d4464c420374800000000", "vin": [{"txinwitness": ["304502210089dbcd22d217b00a0516b9a5feb93bf8acd75536ff0571d7ac1e7f95b9b743fb02203b75516ccdfc16ba72e4f4d53bc84d72f508678180dd7fc6c2afbb5ee468c81301", "030e53b3a995966342bfecdbec76bd0b3bb317a932d9e47952ad2d4464c4203748"], "sequence": 4294967295, "scriptSig": {"hex": "", "asm": ""}, "vout": 1, "txid": "c879532e0465d7b96512182c8bd4b38b638651e29d94fa5e95de5fdb5397bd28"}], "txid": "35448d0853d8d60c80e9f16ca540f246f5eb25ff81ae691e3ed1cadc39b0adc2", "blocktime": 1537871767, "version": 1, "confirmations": 11495, "time": 1537871767, "locktime": 0, "vsize": 144, "size": 226}