{"hash": "354f48df65358772b812d85bdecf35ada51cfbca413f3f1a4af7bfdb8f6e1bc6", "blockhash": "0000000000000000001cda96e906b7601b7a6fb1a3b62bca570a9e5d8f4b3de1", "vout": [{"scriptPubKey": {"reqSigs": 1, "hex": "a9144dc030d3189add889f9075af6cabe4ba9ddb2f8087", "addresses": ["38n8Bxe2wFrHS3BGXMgkAsLtGszn5vF2nd"], "asm": "OP_HASH160 4dc030d3189add889f9075af6cabe4ba9ddb2f80 OP_EQUAL", "type": "scripthash"}, "value": 0.0002, "n": 0}, {"scriptPubKey": {"reqSigs": 1, "hex": "76a9149dd3deabf0d5e59947a88d445a8ac4f094a41fac88ac", "addresses": ["1FPWu6DWxndtn7LMv6zsGXivKae71viAkM"], "asm": "OP_DUP OP_HASH160 9dd3deabf0d5e59947a88d445a8ac4f094a41fac OP_EQUALVERIFY OP_CHECKSIG", "type": "pubkeyhash"}, "value": 0.0001552, "n": 1}], "hex": "0100000001ae86682e4ba695b60f0e213d696ab7b223d0eec9da3cf2ca752e643ac86ffc0c000000006b4830450221009366a8051cabbca605083c197f932ae207ebe3ae9e6dc2a754f595872b052bfb02200f18d193e61e19bd352e46319ccf6aac1ec88eee497896b509a6071d27dbc5f9012102ccb042de4fa45d9250d56fad126914bdf971bfa2e0137d6c6a20e91cc1a924aaffffffff02204e00000000000017a9144dc030d3189add889f9075af6cabe4ba9ddb2f8087a03c0000000000001976a9149dd3deabf0d5e59947a88d445a8ac4f094a41fac88ac00000000", "vin": [{"sequence": 4294967295, "scriptSig": {"hex": "4830450221009366a8051cabbca605083c197f932ae207ebe3ae9e6dc2a754f595872b052bfb02200f18d193e61e19bd352e46319ccf6aac1ec88eee497896b509a6071d27dbc5f9012102ccb042de4fa45d9250d56fad126914bdf971bfa2e0137d6c6a20e91cc1a924aa", "asm": "30450221009366a8051cabbca605083c197f932ae207ebe3ae9e6dc2a754f595872b052bfb02200f18d193e61e19bd352e46319ccf6aac1ec88eee497896b509a6071d27dbc5f9[ALL] 02ccb042de4fa45d9250d56fad126914bdf971bfa2e0137d6c6a20e91cc1a924aa"}, "vout": 0, "txid": "0cfc6fc83a642e75caf23cdac9eed023b2b76a693d210e0fb695a64b2e6886ae"}], "txid": "354f48df65358772b812d85bdecf35ada51cfbca413f3f1a4af7bfdb8f6e1bc6", "blocktime": 1537873282, "version": 1, "confirmations": 11480, "time": 1537873282, "locktime": 0, "vsize": 224, "size": 224}