{"hash": "35550b72bea86c3318f0131267028cf6e84e4af299df9ed51cf679dc3548edb7", "blockhash": "00000000000000000024a2167bbff67b0be802c0b01cdd79e6331c2be6459f87", "vout": [{"scriptPubKey": {"type": "nulldata", "hex": "6a146f6d6e69000000000000001f0000000dc6824140", "asm": "OP_RETURN 6f6d6e69000000000000001f0000000dc6824140"}, "value": 0.0, "n": 0}, {"scriptPubKey": {"reqSigs": 1, "hex": "76a914a25dec4d0011064ef106a983c39c7a540699f22088ac", "addresses": ["1FoWyxwPXuj4C6abqwhjDWdz6D4PZgYRjA"], "asm": "OP_DUP OP_HASH160 a25dec4d0011064ef106a983c39c7a540699f220 OP_EQUALVERIFY OP_CHECKSIG", "type": "pubkeyhash"}, "value": 0.01990392, "n": 1}, {"scriptPubKey": {"reqSigs": 1, "hex": "76a914c126c88d8c8cd9f0907b6997b007a71e764172a288ac", "addresses": ["1JcHsk2WxZcNiL5E3wqMTq7iYdBHCwarim"], "asm": "OP_DUP OP_HASH160 c126c88d8c8cd9f0907b6997b007a71e764172a2 OP_EQUALVERIFY OP_CHECKSIG", "type": "pubkeyhash"}, "value": 5.46e-06, "n": 2}], "hex": "01000000018ba1110d73bf97676720adfdab2630bcefd50fde341fd028b3758c71ee095a74010000006a4730440220577384725e2088ca2e606b27f1950a2a5e6ee71a7185282b2f9ae5c86233b88b022016402c87e341263ee02a57e46675686767b1ecde0c9440b0e8620a9eb2b856ea012103da5bac7b36d5aa38f531c6b9601e21bb598a4b6716ebed38b009a55dabde9440feffffff030000000000000000166a146f6d6e69000000000000001f0000000dc6824140f85e1e00000000001976a914a25dec4d0011064ef106a983c39c7a540699f22088ac22020000000000001976a914c126c88d8c8cd9f0907b6997b007a71e764172a288ac0d490800", "vin": [{"sequence": 4294967294, "scriptSig": {"hex": "4730440220577384725e2088ca2e606b27f1950a2a5e6ee71a7185282b2f9ae5c86233b88b022016402c87e341263ee02a57e46675686767b1ecde0c9440b0e8620a9eb2b856ea012103da5bac7b36d5aa38f531c6b9601e21bb598a4b6716ebed38b009a55dabde9440", "asm": "30440220577384725e2088ca2e606b27f1950a2a5e6ee71a7185282b2f9ae5c86233b88b022016402c87e341263ee02a57e46675686767b1ecde0c9440b0e8620a9eb2b856ea[ALL] 03da5bac7b36d5aa38f531c6b9601e21bb598a4b6716ebed38b009a55dabde9440"}, "vout": 1, "txid": "745a09ee718c75b328d01f34de0fd5efbc3026abfdad20676797bf730d11a18b"}], "txid": "35550b72bea86c3318f0131267028cf6e84e4af299df9ed51cf679dc3548edb7", "blocktime": 1537870564, "version": 1, "confirmations": 11515, "time": 1537870564, "locktime": 542989, "vsize": 256, "size": 256}