{"hash": "35614cafa8a296c254fa908e895233cc40f7282aa6bcd2d2597f7b628c5f651a", "blockhash": "0000000000000000001f76057863aec43deb6fa401d9628bb513d65a8098bfab", "vout": [{"scriptPubKey": {"reqSigs": 1, "hex": "a914abe88788550775697cda8afb306de5a02d196a9487", "addresses": ["3HMz2msFwrDbLREndREhMTpVJNrLbyfVg4"], "asm": "OP_HASH160 abe88788550775697cda8afb306de5a02d196a94 OP_EQUAL", "type": "scripthash"}, "value": 0.00237715, "n": 0}, {"scriptPubKey": {"reqSigs": 1, "hex": "76a91417a9d087e56ff8bb00980fc35f68e854ecc7dcea88ac", "addresses": ["13A7yLThcQHjShVQ4R7fuKSngTt9afkmZV"], "asm": "OP_DUP OP_HASH160 17a9d087e56ff8bb00980fc35f68e854ecc7dcea OP_EQUALVERIFY OP_CHECKSIG", "type": "pubkeyhash"}, "value": 0.04985508, "n": 1}], "hex": "0100000001b9612acecd943354a60dea35f90606f6fc33e4999775b3d5dd23f607713093cf010000006b4830450221009388325344b5ff9b5092858740abd9982c45b465c036d5cc659a794a9669968402202c09b64a7451a25b2805f92da31497965986d8adffcec1451bdab35a37dba57f012102d2bda0daeb183a97d2aa2095e3fdf93dda19e2c453c58209a15b5b679d67388affffffff0293a003000000000017a914abe88788550775697cda8afb306de5a02d196a9487a4124c00000000001976a91417a9d087e56ff8bb00980fc35f68e854ecc7dcea88ac00000000", "vin": [{"sequence": 4294967295, "scriptSig": {"hex": "4830450221009388325344b5ff9b5092858740abd9982c45b465c036d5cc659a794a9669968402202c09b64a7451a25b2805f92da31497965986d8adffcec1451bdab35a37dba57f012102d2bda0daeb183a97d2aa2095e3fdf93dda19e2c453c58209a15b5b679d67388a", "asm": "30450221009388325344b5ff9b5092858740abd9982c45b465c036d5cc659a794a9669968402202c09b64a7451a25b2805f92da31497965986d8adffcec1451bdab35a37dba57f[ALL] 02d2bda0daeb183a97d2aa2095e3fdf93dda19e2c453c58209a15b5b679d67388a"}, "vout": 1, "txid": "cf93307107f623ddd5b3759799e433fcf60606f935ea0da6543394cdce2a61b9"}], "txid": "35614cafa8a296c254fa908e895233cc40f7282aa6bcd2d2597f7b628c5f651a", "blocktime": 1537873891, "version": 1, "confirmations": 11475, "time": 1537873891, "locktime": 0, "vsize": 224, "size": 224}