{"hash": "356784c1ddbadb80af9915b0a56eed0bd301cd783fa35efa1f1118d7d2595bc7", "blockhash": "0000000000000000000baef3f32e3676a92c3b2e5da21b426e4f302fc371ce76", "vout": [{"scriptPubKey": {"reqSigs": 1, "hex": "76a914fb61f0b40f6db95f96fb86b4489079d72c4b540d88ac", "addresses": ["1PvBwA7bFTwGkNg2yZozFwU5etsVdcr5Af"], "asm": "OP_DUP OP_HASH160 fb61f0b40f6db95f96fb86b4489079d72c4b540d OP_EQUALVERIFY OP_CHECKSIG", "type": "pubkeyhash"}, "value": 0.0062221, "n": 0}, {"scriptPubKey": {"reqSigs": 1, "hex": "76a914e8cea30989bd15530f819b766684b00dc7ba7cfa88ac", "addresses": ["1NDyJtNTjmwk5xPNhjgAMu4HDHigtobu1s"], "asm": "OP_DUP OP_HASH160 e8cea30989bd15530f819b766684b00dc7ba7cfa OP_EQUALVERIFY OP_CHECKSIG", "type": "pubkeyhash"}, "value": 2.7066034, "n": 1}], "hex": "0200000019049c0f356e43939611d8fe0dfc2b6cdac533a6c883898e903fd60aee87d7ebe8000000006a473044022005b8b01d1af08cd5130f7316c29d7ddecca1bc72f2bef7ead42c034a89c8763302200ee42f5d9160f161277d43ea078fdce84614d13ae036809d8c00b2ad178d6055012103e1b5cb4d8ed0afb9a811cb9363a977ee3dff643272a9dc381b112824b81b800bfeffffff08e0b03be48fee5402176c8ff9d48227b951728ed817bb789b31f921debb993e000000006b483045022100811679b053296855f1270a850b9c3b52053568147cc56f3546d43795d2ada65b022059bdc25da138cb0330ae5480fc17c7ed44eb5dc76801aa4824f0c37f9d6db3c2012102b463801ffd64f6e199e368e621ff595ec79224d618dbe477865e60b9cc45af19feffffff0b3c3b1d97877447394c691f92e831053839d6d9ce917c6dcf2a4926755f0a55010000006a4730440220573453a936e31facae7dcae53b5018ba23e01544b06a8c6ef9019d847f2a76ae02203ad55107575d1bc20290d35ba9435aa0ddb5bb038667ff67b034aec383b32137012103598272490560c79ed80c2df59719df6d44de801ff149d2f4465180d4d0f29d49feffffff0c59f8eaa223f4c2f3bc3fc2e882e8ef4b47589a091eb409130df87d8a67a491000000006a47304402204f7c608d4bbd251a64f066ede3219dfb957d87b05a948ab2936c4e868056f86d022078753334b4fae9e012df955a39a128ddf31f5bbc4c8167006292d07906446d0501210296c09df1f93e49368999ebc1c3ae2c456ddc5603201b16e39b33064444df6870feffffff1ae4e330f4d482e5f3ee3c878de2d7e03e909f01f8a65ea8699175e0173f9932010000006a473044022032a241214eeebe8b303fe7da70b0db921761e40824f4d0bb1bb1d0cc5239e69702205e31dfb4d6cef89cb38492c49079edffb4b9ec1814705bcb2768c6d88c917fc0012102d67b819b40445782ad02d277013360faf961b0fa06d6c471e9343f05d252fa73feffffff20b1101dfaad57186e38dc1cda327930b66f5ca519ba3df29c8dabd001920f26010000006a47304402206ec7d284f300bcb7d7ee4e272458a50a5de3c20d19b6508e5503d75cb6f7f51602202e02bd87ec7fc99f7343ee7f285693b2df1b25ab105ebbff6aaf50a722057760012103cba9ae323fc9d2ab87f9e8b153ade69b2db06ab70d7143cb65c4a3459de2dd80feffffff2303125c5e04ed6dbaafc0e2d7f2d94cbe746075c65e55fe9321ca2a4e7d56ae000000006a4730440220224768aaa5732c1a99010100d75e2147128be455623adca72bd05b67333302990220692859e9204ccd43d17f35a94d1f39eb803c26047d8ded69aa9553ebcaeb809e012103206ab0a420f94ef429587c4333ded37f9a3c469d5732f8b20737c4079206141dfeffffff3332d26016b1163b5f7b1a3b5d68f3f40024d3089c5cbd185bfdb66cb10a2760000000006b4830450221008520cf42adfc16c47627b8a97b1fc88cc247ef253cf4c7115aeed7fb1d643ba302207c05a86ca0f4a9c292c62b5d27162984e6a5f226cd0875f8de7e8149dc932dc9012103af57193bdc40bdeae8c08faf6485d343b94c1cb9666a784914501ed9f0cd5242feffffff4f783e77eb57e4044d0cc779f2adc23be36714ab33675e519176c336fdd1454e640000006b483045022100b21eb49199d71f17a045a4015a317bbcada2a53cf7a95c3087f33986ed22e18602201e5fcf01b136d0137375d73c6e4b1c9e70dc12bc5e34abad2a83352fe43d09eb012102f45ffe299cb839490ff935012fb74bd9520fdc8483290e15c49dcdff10d28a9bfeffffff5939bcf930e2bd62e98f08d0096d318d5937bd84830a10c60d810ef82e7a7c65010000006a473044022068ece5af053e39029e9a9285df08a3233e99dd7d0a272698d6a03c80ed0dbb2b022076e2d6987e2028247f3e0b024d30b3b6c46a7bb5cad2f1814fecab875cc43aed0121023b828d584b96a9802e888ea25353656db0ad0684d0b54c4d3534d73d0109411ffeffffff73e66a36ce7390e8dd8690a11aa72ffb4e4d83f7ff53704b5c8a1a0538fe0130010000006a4730440220201dbc314c0a630067686c547c8b7a7f00cc93fefe158e2a92d717d539313cc70220659387a9257f4ee4f8b78b0549e033e2f14712009486f0fc42d48c0957e7d2d10121020d197e14566b121c87be641ef725f7c09dabe5899d0af486985c968895669563feffffff758a5ec4b8673aacd80dc62509a29fee9d9506d1b470ced613c3f0078e2149950d0000006b4830450221009fd7bd526e87475537a7fc01d0990dda1f3959986eaf36f6673a46be6bd103e50220310d8a993545320aa7497c57525343de57d21fae98b63b004f69ac7465236e430121022c95a63f96bc4c10019401dab2564b032fe06833295bb501f0fa6bca3062e93afeffffff793a6db632df4426e4abfdf7a0adc14d03f95b13cd7a2805b8deea3716d4bfd4010000006b483045022100c933f3fbd14f4b6f6aa4777a6c8c67d2ac1107c0560ec2bff7fd633b83d0f87b0220770b538ae36e5647aafcff6210a2328eba2c77dfcdde13b360203c600731eb3501210381fc5a7cb7c1e8d89df70e4d561544e7b048c47edff0c8e656ba42887556a345feffffff79d43c765a01eeaafb4cb494738ef120df093d84af32022265e607082bd6f6e9000000006b4830450221009a60bf941ab8815e60515f04c850f4fddba3df70ca60f9565b1cc2e6da9df0570220219cf70ff7e22ccbd33eec52776a9ccfd32e7545d905540f4438b66e50c3fc3201210221b52c48c1658ee3df34c44b3fb6f48849c12be6d71702ce176743df9b50172bfeffffff7f803f7e022f5381cb54a48f56fb174bb943e9639b68b1fe02838007b741ee9e0c0300006b483045022100eaeb0ccb156d0b88e6702be0a2d5e558f4fb427292d838c5e1d5d024e05c0960022013732b93c4c875980b117e48b348e5815443b405997cd24ef5f782f3ed38a9e2012102d130717f52b66247aa8d7708f30cedeee686c4d33c85593f055ad9cb7a5cd077feffffff9c8a8e98f35d81cc23a2a3c7f78bd3f779ab463356a0ea9a55887d6ef38bc42c010000006b4830450221008ac249d13049fe509f293f60b64853935c0e192095bdcaa4efc1d7155d6db14d02207acc42471b24056b4f7996eeec7c41609c816e1ec61f12355a198ac45f38d84f0121023f81404f4a7256514d627156c1c0aa5893a7064763ea4a9709b1cb234e07e808feffffffb174eb865aa8edde42e02ed51b41d1250d9c62336cba40bf1c9266ee78fab971010000006a4730440220508897e1cd1e4a4a91f6c71ba1c9e93f3d619bb05590e15c189da7bcffdea16e02204d28ac18907ab2e05ddb9986b7032d7b79ea3f680b0c2b6b574f94b384eca672012102aa8a6104a9e0fa590376f37ee13a3e5e6a4fce77dd49fa4e2c90352bf48c6c06feffffffb60189768ef4a2f8fa2b08a8d840c7a288efbf5ae1eaad6952f0981dff2fc64a000000006a473044022030cc53de8f1394173bac9dd91c1c7a7e5916863f663fe2eaa9a2d22af38ead080220592984d771878f5eda70f0e0172dae823707443ab1240cd47cd895817810ed3601210216778a046eabc681d6446a87627292410bbbf5420462de3d48e226b97e6a363afeffffffc7fe8a2e127d13e8111f2d2e5d3e30283810d7ea6c6dd7e1d0a185793789b083010000006b4830450221008d4404e99dbfbabb5260973ca9ff64bd25e691de0fc2f8c0a6bcf9158b3c757502206cb93ce0d85ed94d9eda4c0a8d3eb2af980e2e50e2a4730c718fd85362b0b6d801210221b52c48c1658ee3df34c44b3fb6f48849c12be6d71702ce176743df9b50172bfeffffffc86272ff601034d1ae64a1fb9e10d326aa613dc69eaaf1f44abb900452deedd7010000006b483045022100ef23f64249d267049b1db226a8528202e0e57943c3036af803b81f05d3af1d4a022015697462a154001417a4080f0277a5ad82d8273dc6d1cbcf29b79115bb6b9885012102e7e175ab114ba22c1e6d43f38dbda69327d61125485f5ee39695a144ad24fafafeffffffc9a26cbd74db30c6220b8dd1b01b31d45b26872b5b4013753ec5590612e0528f010000006b4830450221009ac316b1070145d1e24d5faa3591713493a6313b01190d935035011dc457ced60220228c8d46449d58bc261d32311fe856e2949f6c774badf583a5ce98fcfaa3168a0121032693428c938167871b4c8384061683945f631d491ba6307686d893f24411ccf5feffffffd1b2600a17491f080f355b1fb8b51e5ad4106def4a8cb80e37679faa70a204703e0000006a47304402202ef0c2100c3456f4856f1e9356e0ba138d56b98665a61f239644b9ba7640d7e902200876103ce49bd212264722e80c5f1b7a6bda24e99e099c7040ffc9d61aa1f010012102ef5ef8d7c0f55e1e3a5de248ba91c84b14ec283d65f7e8c36efcd8a87c569a15feffffffd45d2157965c872e8daf76b5b6ec78ccd597c7c92a1ff6f759973d6f72f3dcd3000000006b483045022100fa0115295bdb5315cb1a2b9cb435d65b06339f4fd36e8ce7531ee2349c47c4cf02206ca8bbc8e3cbdbeb986e94e383f4b210062fb2d872aae4e2de37448596da521d0121024996f10834f1b48da96302a55c1d18d9741d0e5bfdcded4f0f2a184fbc169fb0feffffffd90b289d5da67788ab7202c93fd8e97b91ea9e851c13bc79116625fac5ad0724020000006b483045022100c2af2e53c9ce8ce219fa2dc5ac94b0a50b6be4558658b21737ce6eca5ed2b6b5022046f2a20c7afd2ce5d5b83a4377b24b5bd30aee198ffd3657acba5f73225d975c0121033c3015d35b7ed6a1e74b6dacc1346f5947e97ccf84847dc1cccfb821396158c8fefffffff84d243130e0a8f4ccf1a92d655e64802fa6b655e30145d329a0a0cc0899616a010000006a4730440220767c9c774e2b63f53b47bfa0df24a6d7cd3cbb82a9b0c33e1826fd3fa6c98a9002207e07deb747d5b30ca83bd2451f72a5b51b3dbe649cfb945bff2d6d13085453b30121028e9b816769e022bf4ff6f230c812c3df1d03c88733a159435dd385016e5ce994feffffff02827e0900000000001976a914fb61f0b40f6db95f96fb86b4489079d72c4b540d88acf4f22110000000001976a914e8cea30989bd15530f819b766684b00dc7ba7cfa88ac17490800", "vin": [{"sequence": 4294967294, "scriptSig": {"hex": "473044022005b8b01d1af08cd5130f7316c29d7ddecca1bc72f2bef7ead42c034a89c8763302200ee42f5d9160f161277d43ea078fdce84614d13ae036809d8c00b2ad178d6055012103e1b5cb4d8ed0afb9a811cb9363a977ee3dff643272a9dc381b112824b81b800b", "asm": "3044022005b8b01d1af08cd5130f7316c29d7ddecca1bc72f2bef7ead42c034a89c8763302200ee42f5d9160f161277d43ea078fdce84614d13ae036809d8c00b2ad178d6055[ALL] 03e1b5cb4d8ed0afb9a811cb9363a977ee3dff643272a9dc381b112824b81b800b"}, "vout": 0, "txid": "e8ebd787ee0ad63f908e8983c8a633c5da6c2bfc0dfed8119693436e350f9c04"}, {"sequence": 4294967294, "scriptSig": {"hex": "483045022100811679b053296855f1270a850b9c3b52053568147cc56f3546d43795d2ada65b022059bdc25da138cb0330ae5480fc17c7ed44eb5dc76801aa4824f0c37f9d6db3c2012102b463801ffd64f6e199e368e621ff595ec79224d618dbe477865e60b9cc45af19", "asm": "3045022100811679b053296855f1270a850b9c3b52053568147cc56f3546d43795d2ada65b022059bdc25da138cb0330ae5480fc17c7ed44eb5dc76801aa4824f0c37f9d6db3c2[ALL] 02b463801ffd64f6e199e368e621ff595ec79224d618dbe477865e60b9cc45af19"}, "vout": 0, "txid": "3e99bbde21f9319b78bb17d88e7251b92782d4f98f6c170254ee8fe43bb0e008"}, {"sequence": 4294967294, "scriptSig": {"hex": "4730440220573453a936e31facae7dcae53b5018ba23e01544b06a8c6ef9019d847f2a76ae02203ad55107575d1bc20290d35ba9435aa0ddb5bb038667ff67b034aec383b32137012103598272490560c79ed80c2df59719df6d44de801ff149d2f4465180d4d0f29d49", "asm": "30440220573453a936e31facae7dcae53b5018ba23e01544b06a8c6ef9019d847f2a76ae02203ad55107575d1bc20290d35ba9435aa0ddb5bb038667ff67b034aec383b32137[ALL] 03598272490560c79ed80c2df59719df6d44de801ff149d2f4465180d4d0f29d49"}, "vout": 1, "txid": "550a5f7526492acf6d7c91ced9d639380531e8921f694c39477487971d3b3c0b"}, {"sequence": 4294967294, "scriptSig": {"hex": "47304402204f7c608d4bbd251a64f066ede3219dfb957d87b05a948ab2936c4e868056f86d022078753334b4fae9e012df955a39a128ddf31f5bbc4c8167006292d07906446d0501210296c09df1f93e49368999ebc1c3ae2c456ddc5603201b16e39b33064444df6870", "asm": "304402204f7c608d4bbd251a64f066ede3219dfb957d87b05a948ab2936c4e868056f86d022078753334b4fae9e012df955a39a128ddf31f5bbc4c8167006292d07906446d05[ALL] 0296c09df1f93e49368999ebc1c3ae2c456ddc5603201b16e39b33064444df6870"}, "vout": 0, "txid": "91a4678a7df80d1309b41e099a58474befe882e8c23fbcf3c2f423a2eaf8590c"}, {"sequence": 4294967294, "scriptSig": {"hex": "473044022032a241214eeebe8b303fe7da70b0db921761e40824f4d0bb1bb1d0cc5239e69702205e31dfb4d6cef89cb38492c49079edffb4b9ec1814705bcb2768c6d88c917fc0012102d67b819b40445782ad02d277013360faf961b0fa06d6c471e9343f05d252fa73", "asm": "3044022032a241214eeebe8b303fe7da70b0db921761e40824f4d0bb1bb1d0cc5239e69702205e31dfb4d6cef89cb38492c49079edffb4b9ec1814705bcb2768c6d88c917fc0[ALL] 02d67b819b40445782ad02d277013360faf961b0fa06d6c471e9343f05d252fa73"}, "vout": 1, "txid": "32993f17e0759169a85ea6f8019f903ee0d7e28d873ceef3e582d4f430e3e41a"}, {"sequence": 4294967294, "scriptSig": {"hex": "47304402206ec7d284f300bcb7d7ee4e272458a50a5de3c20d19b6508e5503d75cb6f7f51602202e02bd87ec7fc99f7343ee7f285693b2df1b25ab105ebbff6aaf50a722057760012103cba9ae323fc9d2ab87f9e8b153ade69b2db06ab70d7143cb65c4a3459de2dd80", "asm": "304402206ec7d284f300bcb7d7ee4e272458a50a5de3c20d19b6508e5503d75cb6f7f51602202e02bd87ec7fc99f7343ee7f285693b2df1b25ab105ebbff6aaf50a722057760[ALL] 03cba9ae323fc9d2ab87f9e8b153ade69b2db06ab70d7143cb65c4a3459de2dd80"}, "vout": 1, "txid": "260f9201d0ab8d9cf23dba19a55c6fb6307932da1cdc386e1857adfa1d10b120"}, {"sequence": 4294967294, "scriptSig": {"hex": "4730440220224768aaa5732c1a99010100d75e2147128be455623adca72bd05b67333302990220692859e9204ccd43d17f35a94d1f39eb803c26047d8ded69aa9553ebcaeb809e012103206ab0a420f94ef429587c4333ded37f9a3c469d5732f8b20737c4079206141d", "asm": "30440220224768aaa5732c1a99010100d75e2147128be455623adca72bd05b67333302990220692859e9204ccd43d17f35a94d1f39eb803c26047d8ded69aa9553ebcaeb809e[ALL] 03206ab0a420f94ef429587c4333ded37f9a3c469d5732f8b20737c4079206141d"}, "vout": 0, "txid": "ae567d4e2aca2193fe555ec6756074be4cd9f2d7e2c0afba6ded045e5c120323"}, {"sequence": 4294967294, "scriptSig": {"hex": "4830450221008520cf42adfc16c47627b8a97b1fc88cc247ef253cf4c7115aeed7fb1d643ba302207c05a86ca0f4a9c292c62b5d27162984e6a5f226cd0875f8de7e8149dc932dc9012103af57193bdc40bdeae8c08faf6485d343b94c1cb9666a784914501ed9f0cd5242", "asm": "30450221008520cf42adfc16c47627b8a97b1fc88cc247ef253cf4c7115aeed7fb1d643ba302207c05a86ca0f4a9c292c62b5d27162984e6a5f226cd0875f8de7e8149dc932dc9[ALL] 03af57193bdc40bdeae8c08faf6485d343b94c1cb9666a784914501ed9f0cd5242"}, "vout": 0, "txid": "60270ab16cb6fd5b18bd5c9c08d32400f4f3685d3b1a7b5f3b16b11660d23233"}, {"sequence": 4294967294, "scriptSig": {"hex": "483045022100b21eb49199d71f17a045a4015a317bbcada2a53cf7a95c3087f33986ed22e18602201e5fcf01b136d0137375d73c6e4b1c9e70dc12bc5e34abad2a83352fe43d09eb012102f45ffe299cb839490ff935012fb74bd9520fdc8483290e15c49dcdff10d28a9b", "asm": "3045022100b21eb49199d71f17a045a4015a317bbcada2a53cf7a95c3087f33986ed22e18602201e5fcf01b136d0137375d73c6e4b1c9e70dc12bc5e34abad2a83352fe43d09eb[ALL] 02f45ffe299cb839490ff935012fb74bd9520fdc8483290e15c49dcdff10d28a9b"}, "vout": 100, "txid": "4e45d1fd36c37691515e6733ab1467e33bc2adf279c70c4d04e457eb773e784f"}, {"sequence": 4294967294, "scriptSig": {"hex": "473044022068ece5af053e39029e9a9285df08a3233e99dd7d0a272698d6a03c80ed0dbb2b022076e2d6987e2028247f3e0b024d30b3b6c46a7bb5cad2f1814fecab875cc43aed0121023b828d584b96a9802e888ea25353656db0ad0684d0b54c4d3534d73d0109411f", "asm": "3044022068ece5af053e39029e9a9285df08a3233e99dd7d0a272698d6a03c80ed0dbb2b022076e2d6987e2028247f3e0b024d30b3b6c46a7bb5cad2f1814fecab875cc43aed[ALL] 023b828d584b96a9802e888ea25353656db0ad0684d0b54c4d3534d73d0109411f"}, "vout": 1, "txid": "657c7a2ef80e810dc6100a8384bd37598d316d09d0088fe962bde230f9bc3959"}, {"sequence": 4294967294, "scriptSig": {"hex": "4730440220201dbc314c0a630067686c547c8b7a7f00cc93fefe158e2a92d717d539313cc70220659387a9257f4ee4f8b78b0549e033e2f14712009486f0fc42d48c0957e7d2d10121020d197e14566b121c87be641ef725f7c09dabe5899d0af486985c968895669563", "asm": "30440220201dbc314c0a630067686c547c8b7a7f00cc93fefe158e2a92d717d539313cc70220659387a9257f4ee4f8b78b0549e033e2f14712009486f0fc42d48c0957e7d2d1[ALL] 020d197e14566b121c87be641ef725f7c09dabe5899d0af486985c968895669563"}, "vout": 1, "txid": "3001fe38051a8a5c4b7053fff7834d4efb2fa71aa19086dde89073ce366ae673"}, {"sequence": 4294967294, "scriptSig": {"hex": "4830450221009fd7bd526e87475537a7fc01d0990dda1f3959986eaf36f6673a46be6bd103e50220310d8a993545320aa7497c57525343de57d21fae98b63b004f69ac7465236e430121022c95a63f96bc4c10019401dab2564b032fe06833295bb501f0fa6bca3062e93a", "asm": "30450221009fd7bd526e87475537a7fc01d0990dda1f3959986eaf36f6673a46be6bd103e50220310d8a993545320aa7497c57525343de57d21fae98b63b004f69ac7465236e43[ALL] 022c95a63f96bc4c10019401dab2564b032fe06833295bb501f0fa6bca3062e93a"}, "vout": 13, "txid": "9549218e07f0c313d6ce70b4d106959dee9fa20925c60dd8ac3a67b8c45e8a75"}, {"sequence": 4294967294, "scriptSig": {"hex": "483045022100c933f3fbd14f4b6f6aa4777a6c8c67d2ac1107c0560ec2bff7fd633b83d0f87b0220770b538ae36e5647aafcff6210a2328eba2c77dfcdde13b360203c600731eb3501210381fc5a7cb7c1e8d89df70e4d561544e7b048c47edff0c8e656ba42887556a345", "asm": "3045022100c933f3fbd14f4b6f6aa4777a6c8c67d2ac1107c0560ec2bff7fd633b83d0f87b0220770b538ae36e5647aafcff6210a2328eba2c77dfcdde13b360203c600731eb35[ALL] 0381fc5a7cb7c1e8d89df70e4d561544e7b048c47edff0c8e656ba42887556a345"}, "vout": 1, "txid": "d4bfd41637eadeb805287acd135bf9034dc1ada0f7fdabe42644df32b66d3a79"}, {"sequence": 4294967294, "scriptSig": {"hex": "4830450221009a60bf941ab8815e60515f04c850f4fddba3df70ca60f9565b1cc2e6da9df0570220219cf70ff7e22ccbd33eec52776a9ccfd32e7545d905540f4438b66e50c3fc3201210221b52c48c1658ee3df34c44b3fb6f48849c12be6d71702ce176743df9b50172b", "asm": "30450221009a60bf941ab8815e60515f04c850f4fddba3df70ca60f9565b1cc2e6da9df0570220219cf70ff7e22ccbd33eec52776a9ccfd32e7545d905540f4438b66e50c3fc32[ALL] 0221b52c48c1658ee3df34c44b3fb6f48849c12be6d71702ce176743df9b50172b"}, "vout": 0, "txid": "e9f6d62b0807e665220232af843d09df20f18e7394b44cfbaaee015a763cd479"}, {"sequence": 4294967294, "scriptSig": {"hex": "483045022100eaeb0ccb156d0b88e6702be0a2d5e558f4fb427292d838c5e1d5d024e05c0960022013732b93c4c875980b117e48b348e5815443b405997cd24ef5f782f3ed38a9e2012102d130717f52b66247aa8d7708f30cedeee686c4d33c85593f055ad9cb7a5cd077", "asm": "3045022100eaeb0ccb156d0b88e6702be0a2d5e558f4fb427292d838c5e1d5d024e05c0960022013732b93c4c875980b117e48b348e5815443b405997cd24ef5f782f3ed38a9e2[ALL] 02d130717f52b66247aa8d7708f30cedeee686c4d33c85593f055ad9cb7a5cd077"}, "vout": 780, "txid": "9eee41b707808302feb1689b63e943b94b17fb568fa454cb81532f027e3f807f"}, {"sequence": 4294967294, "scriptSig": {"hex": "4830450221008ac249d13049fe509f293f60b64853935c0e192095bdcaa4efc1d7155d6db14d02207acc42471b24056b4f7996eeec7c41609c816e1ec61f12355a198ac45f38d84f0121023f81404f4a7256514d627156c1c0aa5893a7064763ea4a9709b1cb234e07e808", "asm": "30450221008ac249d13049fe509f293f60b64853935c0e192095bdcaa4efc1d7155d6db14d02207acc42471b24056b4f7996eeec7c41609c816e1ec61f12355a198ac45f38d84f[ALL] 023f81404f4a7256514d627156c1c0aa5893a7064763ea4a9709b1cb234e07e808"}, "vout": 1, "txid": "2cc48bf36e7d88559aeaa0563346ab79f7d38bf7c7a3a223cc815df3988e8a9c"}, {"sequence": 4294967294, "scriptSig": {"hex": "4730440220508897e1cd1e4a4a91f6c71ba1c9e93f3d619bb05590e15c189da7bcffdea16e02204d28ac18907ab2e05ddb9986b7032d7b79ea3f680b0c2b6b574f94b384eca672012102aa8a6104a9e0fa590376f37ee13a3e5e6a4fce77dd49fa4e2c90352bf48c6c06", "asm": "30440220508897e1cd1e4a4a91f6c71ba1c9e93f3d619bb05590e15c189da7bcffdea16e02204d28ac18907ab2e05ddb9986b7032d7b79ea3f680b0c2b6b574f94b384eca672[ALL] 02aa8a6104a9e0fa590376f37ee13a3e5e6a4fce77dd49fa4e2c90352bf48c6c06"}, "vout": 1, "txid": "71b9fa78ee66921cbf40ba6c33629c0d25d1411bd52ee042deeda85a86eb74b1"}, {"sequence": 4294967294, "scriptSig": {"hex": "473044022030cc53de8f1394173bac9dd91c1c7a7e5916863f663fe2eaa9a2d22af38ead080220592984d771878f5eda70f0e0172dae823707443ab1240cd47cd895817810ed3601210216778a046eabc681d6446a87627292410bbbf5420462de3d48e226b97e6a363a", "asm": "3044022030cc53de8f1394173bac9dd91c1c7a7e5916863f663fe2eaa9a2d22af38ead080220592984d771878f5eda70f0e0172dae823707443ab1240cd47cd895817810ed36[ALL] 0216778a046eabc681d6446a87627292410bbbf5420462de3d48e226b97e6a363a"}, "vout": 0, "txid": "4ac62fff1d98f05269adeae15abfef88a2c740d8a8082bfaf8a2f48e768901b6"}, {"sequence": 4294967294, "scriptSig": {"hex": "4830450221008d4404e99dbfbabb5260973ca9ff64bd25e691de0fc2f8c0a6bcf9158b3c757502206cb93ce0d85ed94d9eda4c0a8d3eb2af980e2e50e2a4730c718fd85362b0b6d801210221b52c48c1658ee3df34c44b3fb6f48849c12be6d71702ce176743df9b50172b", "asm": "30450221008d4404e99dbfbabb5260973ca9ff64bd25e691de0fc2f8c0a6bcf9158b3c757502206cb93ce0d85ed94d9eda4c0a8d3eb2af980e2e50e2a4730c718fd85362b0b6d8[ALL] 0221b52c48c1658ee3df34c44b3fb6f48849c12be6d71702ce176743df9b50172b"}, "vout": 1, "txid": "83b089377985a1d0e1d76d6cead7103828303e5d2e2d1f11e8137d122e8afec7"}, {"sequence": 4294967294, "scriptSig": {"hex": "483045022100ef23f64249d267049b1db226a8528202e0e57943c3036af803b81f05d3af1d4a022015697462a154001417a4080f0277a5ad82d8273dc6d1cbcf29b79115bb6b9885012102e7e175ab114ba22c1e6d43f38dbda69327d61125485f5ee39695a144ad24fafa", "asm": "3045022100ef23f64249d267049b1db226a8528202e0e57943c3036af803b81f05d3af1d4a022015697462a154001417a4080f0277a5ad82d8273dc6d1cbcf29b79115bb6b9885[ALL] 02e7e175ab114ba22c1e6d43f38dbda69327d61125485f5ee39695a144ad24fafa"}, "vout": 1, "txid": "d7edde520490bb4af4f1aa9ec63d61aa26d3109efba164aed1341060ff7262c8"}, {"sequence": 4294967294, "scriptSig": {"hex": "4830450221009ac316b1070145d1e24d5faa3591713493a6313b01190d935035011dc457ced60220228c8d46449d58bc261d32311fe856e2949f6c774badf583a5ce98fcfaa3168a0121032693428c938167871b4c8384061683945f631d491ba6307686d893f24411ccf5", "asm": "30450221009ac316b1070145d1e24d5faa3591713493a6313b01190d935035011dc457ced60220228c8d46449d58bc261d32311fe856e2949f6c774badf583a5ce98fcfaa3168a[ALL] 032693428c938167871b4c8384061683945f631d491ba6307686d893f24411ccf5"}, "vout": 1, "txid": "8f52e0120659c53e7513405b2b87265bd4311bb0d18d0b22c630db74bd6ca2c9"}, {"sequence": 4294967294, "scriptSig": {"hex": "47304402202ef0c2100c3456f4856f1e9356e0ba138d56b98665a61f239644b9ba7640d7e902200876103ce49bd212264722e80c5f1b7a6bda24e99e099c7040ffc9d61aa1f010012102ef5ef8d7c0f55e1e3a5de248ba91c84b14ec283d65f7e8c36efcd8a87c569a15", "asm": "304402202ef0c2100c3456f4856f1e9356e0ba138d56b98665a61f239644b9ba7640d7e902200876103ce49bd212264722e80c5f1b7a6bda24e99e099c7040ffc9d61aa1f010[ALL] 02ef5ef8d7c0f55e1e3a5de248ba91c84b14ec283d65f7e8c36efcd8a87c569a15"}, "vout": 62, "txid": "7004a270aa9f67370eb88c4aef6d10d45a1eb5b81f5b350f081f49170a60b2d1"}, {"sequence": 4294967294, "scriptSig": {"hex": "483045022100fa0115295bdb5315cb1a2b9cb435d65b06339f4fd36e8ce7531ee2349c47c4cf02206ca8bbc8e3cbdbeb986e94e383f4b210062fb2d872aae4e2de37448596da521d0121024996f10834f1b48da96302a55c1d18d9741d0e5bfdcded4f0f2a184fbc169fb0", "asm": "3045022100fa0115295bdb5315cb1a2b9cb435d65b06339f4fd36e8ce7531ee2349c47c4cf02206ca8bbc8e3cbdbeb986e94e383f4b210062fb2d872aae4e2de37448596da521d[ALL] 024996f10834f1b48da96302a55c1d18d9741d0e5bfdcded4f0f2a184fbc169fb0"}, "vout": 0, "txid": "d3dcf3726f3d9759f7f61f2ac9c797d5cc78ecb6b576af8d2e875c9657215dd4"}, {"sequence": 4294967294, "scriptSig": {"hex": "483045022100c2af2e53c9ce8ce219fa2dc5ac94b0a50b6be4558658b21737ce6eca5ed2b6b5022046f2a20c7afd2ce5d5b83a4377b24b5bd30aee198ffd3657acba5f73225d975c0121033c3015d35b7ed6a1e74b6dacc1346f5947e97ccf84847dc1cccfb821396158c8", "asm": "3045022100c2af2e53c9ce8ce219fa2dc5ac94b0a50b6be4558658b21737ce6eca5ed2b6b5022046f2a20c7afd2ce5d5b83a4377b24b5bd30aee198ffd3657acba5f73225d975c[ALL] 033c3015d35b7ed6a1e74b6dacc1346f5947e97ccf84847dc1cccfb821396158c8"}, "vout": 2, "txid": "2407adc5fa25661179bc131c859eea917be9d83fc90272ab8877a65d9d280bd9"}, {"sequence": 4294967294, "scriptSig": {"hex": "4730440220767c9c774e2b63f53b47bfa0df24a6d7cd3cbb82a9b0c33e1826fd3fa6c98a9002207e07deb747d5b30ca83bd2451f72a5b51b3dbe649cfb945bff2d6d13085453b30121028e9b816769e022bf4ff6f230c812c3df1d03c88733a159435dd385016e5ce994", "asm": "30440220767c9c774e2b63f53b47bfa0df24a6d7cd3cbb82a9b0c33e1826fd3fa6c98a9002207e07deb747d5b30ca83bd2451f72a5b51b3dbe649cfb945bff2d6d13085453b3[ALL] 028e9b816769e022bf4ff6f230c812c3df1d03c88733a159435dd385016e5ce994"}, "vout": 1, "txid": "6a619908cca0a029d34501e355b6a62f80645e652da9f1ccf4a8e03031244df8"}], "txid": "356784c1ddbadb80af9915b0a56eed0bd301cd783fa35efa1f1118d7d2595bc7", "blocktime": 1537876114, "version": 2, "confirmations": 11459, "time": 1537876114, "locktime": 542999, "vsize": 3766, "size": 3766}