{"hash": "356be07eba37ed9039c3fb2ffe6918f3289dfd64f81d29bf81d085785c433f28", "blockhash": "0000000000000000001cda96e906b7601b7a6fb1a3b62bca570a9e5d8f4b3de1", "vout": [{"scriptPubKey": {"reqSigs": 1, "hex": "a9148baea1b4448e25d844c56799a6157ab65bd331d187", "addresses": ["3ERb3q14dM4FX3zx25JdVYfknbZo7WYpiY"], "asm": "OP_HASH160 8baea1b4448e25d844c56799a6157ab65bd331d1 OP_EQUAL", "type": "scripthash"}, "value": 0.00169427, "n": 0}], "hex": "0100000001fbca5a20d4df6ee96e2f0b1ede98e322bb42b1bb525cbcb68d192ebc5743b554000000006a47304402207bf099708ed9dad2f346b3d8ff25bd22d1bd2692b36373d9483c831d6b914c140220660e5e298852621d85664977911d9909873b9c46af429ae915a20d1b7331032c012103bcc8562d7be7e4bd118f4fa5957fea9331d9a7e25595b0a8b32c00c0ef461192ffffffff01d39502000000000017a9148baea1b4448e25d844c56799a6157ab65bd331d18700000000", "vin": [{"sequence": 4294967295, "scriptSig": {"hex": "47304402207bf099708ed9dad2f346b3d8ff25bd22d1bd2692b36373d9483c831d6b914c140220660e5e298852621d85664977911d9909873b9c46af429ae915a20d1b7331032c012103bcc8562d7be7e4bd118f4fa5957fea9331d9a7e25595b0a8b32c00c0ef461192", "asm": "304402207bf099708ed9dad2f346b3d8ff25bd22d1bd2692b36373d9483c831d6b914c140220660e5e298852621d85664977911d9909873b9c46af429ae915a20d1b7331032c[ALL] 03bcc8562d7be7e4bd118f4fa5957fea9331d9a7e25595b0a8b32c00c0ef461192"}, "vout": 0, "txid": "54b54357bc2e198db6bc5c52bbb142bb22e398de1e0b2f6ee96edfd4205acafb"}], "txid": "356be07eba37ed9039c3fb2ffe6918f3289dfd64f81d29bf81d085785c433f28", "blocktime": 1537873282, "version": 1, "confirmations": 11484, "time": 1537873282, "locktime": 0, "vsize": 189, "size": 189}