{"hash": "35751f5c190832c29d435499ad0ada0db4a0e2ea3ce3545e29a6be975caca3e2", "blockhash": "000000000000000000022b45ed06c6f4ccd3cf7fb5ba4856ebd2e58215665228", "vout": [{"scriptPubKey": {"reqSigs": 1, "hex": "a91428ba56cf5021e8eeb5b3cbd09be799556d06570787", "addresses": ["35QNBHTu76aQ3M9YbuEYU6JHDPNf52eyjf"], "asm": "OP_HASH160 28ba56cf5021e8eeb5b3cbd09be799556d065707 OP_EQUAL", "type": "scripthash"}, "value": 0.00043606, "n": 0}, {"scriptPubKey": {"reqSigs": 1, "hex": "76a91494edaa2f41bdfa824ee4cdec13c87e28b588c52988ac", "addresses": ["1EaTidWr5U6qorN1nJWqbB2dRFJm4yVvam"], "asm": "OP_DUP OP_HASH160 94edaa2f41bdfa824ee4cdec13c87e28b588c529 OP_EQUALVERIFY OP_CHECKSIG", "type": "pubkeyhash"}, "value": 0.0639388, "n": 1}], "hex": "0200000001abba7ac2d958587533b2d4cb981cb7eec1dfd4350930b2913ad5a045cfbc5275010000006a4730440220462d264bf44a5b069582f01ef0362c8e2321343ce33f6ceb47b6837b458a9aed022057905c51c9ec9178fe276f56874ad8a628008b4520e9eb045de93a177ea303f9012102df5130119428e3bc23a3215ae460165acbf43bc24e2fdb8b22e6d33b948a5e3effffffff0256aa00000000000017a91428ba56cf5021e8eeb5b3cbd09be799556d0657078718906100000000001976a91494edaa2f41bdfa824ee4cdec13c87e28b588c52988ac00000000", "vin": [{"sequence": 4294967295, "scriptSig": {"hex": "4730440220462d264bf44a5b069582f01ef0362c8e2321343ce33f6ceb47b6837b458a9aed022057905c51c9ec9178fe276f56874ad8a628008b4520e9eb045de93a177ea303f9012102df5130119428e3bc23a3215ae460165acbf43bc24e2fdb8b22e6d33b948a5e3e", "asm": "30440220462d264bf44a5b069582f01ef0362c8e2321343ce33f6ceb47b6837b458a9aed022057905c51c9ec9178fe276f56874ad8a628008b4520e9eb045de93a177ea303f9[ALL] 02df5130119428e3bc23a3215ae460165acbf43bc24e2fdb8b22e6d33b948a5e3e"}, "vout": 1, "txid": "7552bccf45a0d53a91b2300935d4dfc1eeb71c98cbd4b233755858d9c27abaab"}], "txid": "35751f5c190832c29d435499ad0ada0db4a0e2ea3ce3545e29a6be975caca3e2", "blocktime": 1537869901, "version": 2, "confirmations": 11523, "time": 1537869901, "locktime": 0, "vsize": 223, "size": 223}