{"hash": "0f3daf411085d5b88458cfc891a29e3960bdec5cf9a6ab0b513446c5a74581d4", "blockhash": "0000000000000000000e13cef7c366c0283d82e591d1acd082e914b08063cdf1", "vout": [{"scriptPubKey": {"reqSigs": 1, "hex": "76a914d8880c5e7196026aa113532dc7e4018081061ff188ac", "addresses": ["1LjuwEowZjA2ZuA9iFFeZmUYZgLgEzBjbn"], "asm": "OP_DUP OP_HASH160 d8880c5e7196026aa113532dc7e4018081061ff1 OP_EQUALVERIFY OP_CHECKSIG", "type": "pubkeyhash"}, "value": 0.0024626, "n": 0}, {"scriptPubKey": {"reqSigs": 1, "hex": "a9144c887a977d63ddefe16606f030274ef46b7f5a2c87", "addresses": ["38fgmqkK63WsFeezZdWj7xHq4WJZseTmss"], "asm": "OP_HASH160 4c887a977d63ddefe16606f030274ef46b7f5a2c OP_EQUAL", "type": "scripthash"}, "value": 0.0099967, "n": 1}], "hex": "02000000000102abe1d5eb354e739db1c1742a3a7cfd830a6e3d63d1b93078d544e64f0c4b28c00300000017160014d02c71fb1ace440578fd07eb1a7af4ad3ff23a9ffefffffffaf6b3bf3f938718187a2392d22c3db1684f3a3e1af310796e15fce472c968b90000000017160014feb68fa9ad357491415e46257b3700bb18a4d601feffffff02f4c10300000000001976a914d8880c5e7196026aa113532dc7e4018081061ff188acf6400f000000000017a9144c887a977d63ddefe16606f030274ef46b7f5a2c87024830450221008f92a5053b84cfcb0b9ab8865caf54ab8647af886bbf24ba7dee4b830b4ca8b20220069000664fa30743d22694cbdeabd9dfb559f9d2bb991c0a207d38b6e6f020c70121028b4e5b996f62b141061625acd3939ad93f7008371f77e3c31be28e671d589d5c024730440220441fefa9fbdbdf0f573fbabd14d8c1ece63201054bad7aa228132f230b5c2c0502204b3c1c569182ae4d2c4a24e3e312012bc09d2d5156c1ee21907edd8cfab979ca012102e2bec60d3f8918f1da5d70f8881db5fd03bb81b2e008c50713443b7ec066652f10490800", "vin": [{"txinwitness": ["30450221008f92a5053b84cfcb0b9ab8865caf54ab8647af886bbf24ba7dee4b830b4ca8b20220069000664fa30743d22694cbdeabd9dfb559f9d2bb991c0a207d38b6e6f020c701", "028b4e5b996f62b141061625acd3939ad93f7008371f77e3c31be28e671d589d5c"], "sequence": 4294967294, "scriptSig": {"hex": "160014d02c71fb1ace440578fd07eb1a7af4ad3ff23a9f", "asm": "0014d02c71fb1ace440578fd07eb1a7af4ad3ff23a9f"}, "vout": 3, "txid": "c0284b0c4fe644d57830b9d1633d6e0a83fd7c3a2a74c1b19d734e35ebd5e1ab"}, {"txinwitness": ["30440220441fefa9fbdbdf0f573fbabd14d8c1ece63201054bad7aa228132f230b5c2c0502204b3c1c569182ae4d2c4a24e3e312012bc09d2d5156c1ee21907edd8cfab979ca01", "02e2bec60d3f8918f1da5d70f8881db5fd03bb81b2e008c50713443b7ec066652f"], "sequence": 4294967294, "scriptSig": {"hex": "160014feb68fa9ad357491415e46257b3700bb18a4d601", "asm": "0014feb68fa9ad357491415e46257b3700bb18a4d601"}, "vout": 0, "txid": "b968c972e4fc156e7910f31a3e3a4f68b13d2cd292237a181887933fbfb3f6fa"}], "txid": "35788f809b6225fc9f7de7a0a904b89241e71fb8736854bb4d885ae0094c2c2b", "blocktime": 1537871767, "version": 2, "confirmations": 11495, "time": 1537871767, "locktime": 542992, "vsize": 259, "size": 421}