{"hash": "456482017bf419e65f02c1a4dc0c1947b32501416352db794627db83c5812aec", "blockhash": "0000000000000000001cda96e906b7601b7a6fb1a3b62bca570a9e5d8f4b3de1", "vout": [{"scriptPubKey": {"reqSigs": 1, "hex": "a9143b1306dd106226c6f7d734dc59c2998962d97b4987", "addresses": ["375NasHJE3Hmit1SiovY3iVYefzsfz4hHi"], "asm": "OP_HASH160 3b1306dd106226c6f7d734dc59c2998962d97b49 OP_EQUAL", "type": "scripthash"}, "value": 0.00070378, "n": 0}, {"scriptPubKey": {"reqSigs": 1, "hex": "a914fcaa4575d598e58f1ff6136adf2d15712b06919f87", "addresses": ["3QizBYXZ6qNFtrZs3yNA3m4venwydbtJWv"], "asm": "OP_HASH160 fcaa4575d598e58f1ff6136adf2d15712b06919f OP_EQUAL", "type": "scripthash"}, "value": 0.01279095, "n": 1}], "hex": "020000000001015051b8c9c67ee31852542acb1619348bc230b217c3f2013372aef7121678fb7f01000000171600140e2d6cb6ee3e2fc24bbeee88c3bd067886205c76feffffff02ea1201000000000017a9143b1306dd106226c6f7d734dc59c2998962d97b4987778413000000000017a914fcaa4575d598e58f1ff6136adf2d15712b06919f870247304402200eb6cf0ec95b51a4e9edb8267829b02311fbc975101b773da3dd23b8aeb49e5b02206e383f24771764b2e4e2c32672f6b75f0c3480d6fb9aa7d5621d6cc45908e664012102f37e25fbaae7525f98b6df1a08524a7cb1cd09d88ef8c262fd768d9ff92e2c1fb7480800", "vin": [{"txinwitness": ["304402200eb6cf0ec95b51a4e9edb8267829b02311fbc975101b773da3dd23b8aeb49e5b02206e383f24771764b2e4e2c32672f6b75f0c3480d6fb9aa7d5621d6cc45908e66401", "02f37e25fbaae7525f98b6df1a08524a7cb1cd09d88ef8c262fd768d9ff92e2c1f"], "sequence": 4294967294, "scriptSig": {"hex": "1600140e2d6cb6ee3e2fc24bbeee88c3bd067886205c76", "asm": "00140e2d6cb6ee3e2fc24bbeee88c3bd067886205c76"}, "vout": 1, "txid": "7ffb781612f7ae723301f2c317b230c28b341916cb2a545218e37ec6c9b85150"}], "txid": "3579bfd8607c8d5f02191f444d83b6f799e8f18869e2af8f0657c3f13e46be8e", "blocktime": 1537873282, "version": 2, "confirmations": 11485, "time": 1537873282, "locktime": 542903, "vsize": 166, "size": 247}