{"hash": "357ab2dd76bc4657062ceb1609cb4c0214cce63b28f0dffebe89852470920e74", "blockhash": "0000000000000000000e13cef7c366c0283d82e591d1acd082e914b08063cdf1", "vout": [{"scriptPubKey": {"reqSigs": 1, "hex": "76a91401ff8c636fa190b3c59355c6e852721f14c21bc388ac", "addresses": ["1BZp1KBmAqNmYZhJq1AEoViQ6u1Q3XQc3"], "asm": "OP_DUP OP_HASH160 01ff8c636fa190b3c59355c6e852721f14c21bc3 OP_EQUALVERIFY OP_CHECKSIG", "type": "pubkeyhash"}, "value": 0.01561961, "n": 0}, {"scriptPubKey": {"reqSigs": 1, "hex": "76a914a64684489ff1e5031b1988f35cad5d1288f0de5a88ac", "addresses": ["1GABeS5UigWuBHxh1wTiigmRCJ6w4V7SYP"], "asm": "OP_DUP OP_HASH160 a64684489ff1e5031b1988f35cad5d1288f0de5a OP_EQUALVERIFY OP_CHECKSIG", "type": "pubkeyhash"}, "value": 0.06242544, "n": 1}], "hex": "0100000001a35b4ca611b0ad83cd3d13478ee4b2be60031a206f4929852a9bed99156e6fea010000006b483045022100a10dd8e6f7b1ffe25fe80ad0f9bfcbc103fb1372125ff1f1a590e1e8cb251a830220434473f01545c81e18a0b5fd6ebe2935dc2d23990d188adc76dcaa3b7f82e137012102fdd3991962b8d0b4d964b00c9a07b45d366ce627d1d62407da2d4f3ffcffd675ffffffff0269d51700000000001976a91401ff8c636fa190b3c59355c6e852721f14c21bc388acf0405f00000000001976a914a64684489ff1e5031b1988f35cad5d1288f0de5a88ac00000000", "vin": [{"sequence": 4294967295, "scriptSig": {"hex": "483045022100a10dd8e6f7b1ffe25fe80ad0f9bfcbc103fb1372125ff1f1a590e1e8cb251a830220434473f01545c81e18a0b5fd6ebe2935dc2d23990d188adc76dcaa3b7f82e137012102fdd3991962b8d0b4d964b00c9a07b45d366ce627d1d62407da2d4f3ffcffd675", "asm": "3045022100a10dd8e6f7b1ffe25fe80ad0f9bfcbc103fb1372125ff1f1a590e1e8cb251a830220434473f01545c81e18a0b5fd6ebe2935dc2d23990d188adc76dcaa3b7f82e137[ALL] 02fdd3991962b8d0b4d964b00c9a07b45d366ce627d1d62407da2d4f3ffcffd675"}, "vout": 1, "txid": "ea6f6e1599ed9b2a8529496f201a0360beb2e48e47133dcd83adb011a64c5ba3"}], "txid": "357ab2dd76bc4657062ceb1609cb4c0214cce63b28f0dffebe89852470920e74", "blocktime": 1537871767, "version": 1, "confirmations": 11495, "time": 1537871767, "locktime": 0, "vsize": 226, "size": 226}