{"hash": "357c04be361517e76293309ac838673a36fc4ec6399aac09fd29a4a32b5f7865", "blockhash": "0000000000000000001f0ddff1eddb255c1121bcd4da4f1bc9a0da00cae72433", "vout": [{"scriptPubKey": {"reqSigs": 1, "hex": "76a9145d3fc4a1f190a3d8c886836ff80c86596263db0a88ac", "addresses": ["19W4EXTqTdWwuf3b7MzmEKndciFjBatMJj"], "asm": "OP_DUP OP_HASH160 5d3fc4a1f190a3d8c886836ff80c86596263db0a OP_EQUALVERIFY OP_CHECKSIG", "type": "pubkeyhash"}, "value": 0.007, "n": 0}, {"scriptPubKey": {"reqSigs": 1, "hex": "a914a37e6c50d72df0a8ca4813fc51ac850f826c626387", "addresses": ["3GbVWqtRA2yFVp6SDoNTLvL8xPNL5NySx8"], "asm": "OP_HASH160 a37e6c50d72df0a8ca4813fc51ac850f826c6263 OP_EQUAL", "type": "scripthash"}, "value": 0.07352295, "n": 1}], "hex": "0100000001b463ed344910ce159391b7d6b7c92741812a7071ada9bc4c85cd3cfcff09fa7701000000da00483045022100cad3fb133682d882e4d00556cb23160fbadfb1963988292de2d162d5fcdd07ed022014e8097335b28c8f917cb45eb3514a88e339bacc7a3deac82a67a2614a282bba01473044022031bc4f959d374703d8b39b78dc0cb41e0325fb0de760eac78f623d9a354a749502201b50bb55c2b20d1272836587767e23f26cefb1c390383c63db42b1cd71fb7e790147522103babfc9271341f31a353010df69efd2660d2f3e26ba12f086280500617bb603cb21029604726025b122a397408b2d89268bd2cb98ee1ef9379596daaae154eb8b908e52aeffffffff0260ae0a00000000001976a9145d3fc4a1f190a3d8c886836ff80c86596263db0a88ace72f70000000000017a914a37e6c50d72df0a8ca4813fc51ac850f826c62638700000000", "vin": [{"sequence": 4294967295, "scriptSig": {"hex": "00483045022100cad3fb133682d882e4d00556cb23160fbadfb1963988292de2d162d5fcdd07ed022014e8097335b28c8f917cb45eb3514a88e339bacc7a3deac82a67a2614a282bba01473044022031bc4f959d374703d8b39b78dc0cb41e0325fb0de760eac78f623d9a354a749502201b50bb55c2b20d1272836587767e23f26cefb1c390383c63db42b1cd71fb7e790147522103babfc9271341f31a353010df69efd2660d2f3e26ba12f086280500617bb603cb21029604726025b122a397408b2d89268bd2cb98ee1ef9379596daaae154eb8b908e52ae", "asm": "0 3045022100cad3fb133682d882e4d00556cb23160fbadfb1963988292de2d162d5fcdd07ed022014e8097335b28c8f917cb45eb3514a88e339bacc7a3deac82a67a2614a282bba[ALL] 3044022031bc4f959d374703d8b39b78dc0cb41e0325fb0de760eac78f623d9a354a749502201b50bb55c2b20d1272836587767e23f26cefb1c390383c63db42b1cd71fb7e79[ALL] 522103babfc9271341f31a353010df69efd2660d2f3e26ba12f086280500617bb603cb21029604726025b122a397408b2d89268bd2cb98ee1ef9379596daaae154eb8b908e52ae"}, "vout": 1, "txid": "77fa09fffc3ccd854cbca9ad71702a814127c9b7d6b7919315ce104934ed63b4"}], "txid": "357c04be361517e76293309ac838673a36fc4ec6399aac09fd29a4a32b5f7865", "blocktime": 1537872018, "version": 1, "confirmations": 11489, "time": 1537872018, "locktime": 0, "vsize": 335, "size": 335}