{"hash": "357e64a4c6eac2a9bd95b13dd97c51b7c7c54c0ea9cbe9137ceae86e9dfa20aa", "blockhash": "0000000000000000000e13cef7c366c0283d82e591d1acd082e914b08063cdf1", "vout": [{"scriptPubKey": {"reqSigs": 1, "hex": "76a914b30cea864f39422381c294d6a9fc6aa1859dd3ae88ac", "addresses": ["1HKjRmMu582G6B9ojdE3ALdheiR5KtcHYQ"], "asm": "OP_DUP OP_HASH160 b30cea864f39422381c294d6a9fc6aa1859dd3ae OP_EQUALVERIFY OP_CHECKSIG", "type": "pubkeyhash"}, "value": 0.01094362, "n": 0}, {"scriptPubKey": {"reqSigs": 1, "hex": "76a914c2a18ccde620773553d045b609945368f16ee5a788ac", "addresses": ["1Jk7cucK4EXWnhQVRyesx6TzLTc2MZDHcP"], "asm": "OP_DUP OP_HASH160 c2a18ccde620773553d045b609945368f16ee5a7 OP_EQUALVERIFY OP_CHECKSIG", "type": "pubkeyhash"}, "value": 0.06575925, "n": 1}], "hex": "0100000001c1f50e44f2c5f4762eccc400a680648260189d46a11e2bf77b98a287907b4326010000006a4730440220247ed808880449358cdd3c66b4c3bea4e3aabac4853ae5c2231809b807f93bed02207cee9603359a7e1f9f9cab8b86742cb5e18268403cf0448b9a9b63a036042dce012102148dfee326ab1f02076a3dbc32dcedcb16856a1da2ed7468a712635cc0b6abacffffffff02dab21000000000001976a914b30cea864f39422381c294d6a9fc6aa1859dd3ae88ac35576400000000001976a914c2a18ccde620773553d045b609945368f16ee5a788ac00000000", "vin": [{"sequence": 4294967295, "scriptSig": {"hex": "4730440220247ed808880449358cdd3c66b4c3bea4e3aabac4853ae5c2231809b807f93bed02207cee9603359a7e1f9f9cab8b86742cb5e18268403cf0448b9a9b63a036042dce012102148dfee326ab1f02076a3dbc32dcedcb16856a1da2ed7468a712635cc0b6abac", "asm": "30440220247ed808880449358cdd3c66b4c3bea4e3aabac4853ae5c2231809b807f93bed02207cee9603359a7e1f9f9cab8b86742cb5e18268403cf0448b9a9b63a036042dce[ALL] 02148dfee326ab1f02076a3dbc32dcedcb16856a1da2ed7468a712635cc0b6abac"}, "vout": 1, "txid": "26437b9087a2987bf72b1ea1469d1860826480a600c4cc2e76f4c5f2440ef5c1"}], "txid": "357e64a4c6eac2a9bd95b13dd97c51b7c7c54c0ea9cbe9137ceae86e9dfa20aa", "blocktime": 1537871767, "version": 1, "confirmations": 11490, "time": 1537871767, "locktime": 0, "vsize": 225, "size": 225}