{"hash": "3586ab03ea54cca858c9ef620d99634940374d67b6649ea3a141bc8b819ba17b", "blockhash": "0000000000000000000e13cef7c366c0283d82e591d1acd082e914b08063cdf1", "vout": [{"scriptPubKey": {"reqSigs": 1, "hex": "76a914b19548a9c23af14a9d77337366a95368c108a57288ac", "addresses": ["1HBySNsPyV9oqVutL45YEtY7d5eiV8Pf8z"], "asm": "OP_DUP OP_HASH160 b19548a9c23af14a9d77337366a95368c108a572 OP_EQUALVERIFY OP_CHECKSIG", "type": "pubkeyhash"}, "value": 0.00498539, "n": 0}, {"scriptPubKey": {"type": "nulldata", "hex": "6a146f6d6e69000000000000001f00000002c250a680", "asm": "OP_RETURN 6f6d6e69000000000000001f00000002c250a680"}, "value": 0.0, "n": 1}, {"scriptPubKey": {"reqSigs": 1, "hex": "76a914a25dec4d0011064ef106a983c39c7a540699f22088ac", "addresses": ["1FoWyxwPXuj4C6abqwhjDWdz6D4PZgYRjA"], "asm": "OP_DUP OP_HASH160 a25dec4d0011064ef106a983c39c7a540699f220 OP_EQUALVERIFY OP_CHECKSIG", "type": "pubkeyhash"}, "value": 5.46e-06, "n": 2}], "hex": "01000000023f7469633b8ba02582beab6646efed18ea39047c3cf5e9ef0db2475766ae5749020000006b483045022100d6f8db4432a9cabb94e2e62619c413601d409b5303b9c3c452363478ecd4260702201852aa6143686b01969d7ac21254a5ddd5a284a5c95ec724870f4b746f6de7a3012103dd426f07ea448d447ac152a526d44e9a9bbb507ce962e72b95ccf7f416130579feffffff423df7f930cb138ea3c3d946642920084e8bb09db0dc1816c1c312add745c541020000006a473044022018b91de01c9be1cc30913869a858a145fd395aa08d373948d928e786ccd20ae00220392ca03c584b32ff1843c0968e6f3d3964023ddec6b1d1cc81671aa10cdcbd96012103dd426f07ea448d447ac152a526d44e9a9bbb507ce962e72b95ccf7f416130579feffffff036b9b0700000000001976a914b19548a9c23af14a9d77337366a95368c108a57288ac0000000000000000166a146f6d6e69000000000000001f00000002c250a68022020000000000001976a914a25dec4d0011064ef106a983c39c7a540699f22088ac10490800", "vin": [{"sequence": 4294967294, "scriptSig": {"hex": "483045022100d6f8db4432a9cabb94e2e62619c413601d409b5303b9c3c452363478ecd4260702201852aa6143686b01969d7ac21254a5ddd5a284a5c95ec724870f4b746f6de7a3012103dd426f07ea448d447ac152a526d44e9a9bbb507ce962e72b95ccf7f416130579", "asm": "3045022100d6f8db4432a9cabb94e2e62619c413601d409b5303b9c3c452363478ecd4260702201852aa6143686b01969d7ac21254a5ddd5a284a5c95ec724870f4b746f6de7a3[ALL] 03dd426f07ea448d447ac152a526d44e9a9bbb507ce962e72b95ccf7f416130579"}, "vout": 2, "txid": "4957ae665747b20defe9f53c7c0439ea18edef4666abbe8225a08b3b6369743f"}, {"sequence": 4294967294, "scriptSig": {"hex": "473044022018b91de01c9be1cc30913869a858a145fd395aa08d373948d928e786ccd20ae00220392ca03c584b32ff1843c0968e6f3d3964023ddec6b1d1cc81671aa10cdcbd96012103dd426f07ea448d447ac152a526d44e9a9bbb507ce962e72b95ccf7f416130579", "asm": "3044022018b91de01c9be1cc30913869a858a145fd395aa08d373948d928e786ccd20ae00220392ca03c584b32ff1843c0968e6f3d3964023ddec6b1d1cc81671aa10cdcbd96[ALL] 03dd426f07ea448d447ac152a526d44e9a9bbb507ce962e72b95ccf7f416130579"}, "vout": 2, "txid": "41c545d7ad12c3c11618dcb09db08b4e0820296446d9c3a38e13cb30f9f73d42"}], "txid": "3586ab03ea54cca858c9ef620d99634940374d67b6649ea3a141bc8b819ba17b", "blocktime": 1537871767, "version": 1, "confirmations": 11495, "time": 1537871767, "locktime": 542992, "vsize": 404, "size": 404}