{"hash": "bb386fe8a305cb67ff598ed3b72f715fd48a044927c56dfc58bccdd49cda6eab", "blockhash": "0000000000000000000e13cef7c366c0283d82e591d1acd082e914b08063cdf1", "vout": [{"scriptPubKey": {"reqSigs": 1, "hex": "a9148a58c80db61a76d76fecd84ed62e7a43f65967ab87", "addresses": ["3EJXXfFSZZZ9zPKieUgEdn6Y7vYCKdZhwv"], "asm": "OP_HASH160 8a58c80db61a76d76fecd84ed62e7a43f65967ab OP_EQUAL", "type": "scripthash"}, "value": 0.03793161, "n": 0}, {"scriptPubKey": {"reqSigs": 1, "hex": "a9143dfa58f433fea7f24a9ac35320dbd4421251ebf387", "addresses": ["37Lj3h9X3ic3QhQdXvswbDR2CkjQXVCtUR"], "asm": "OP_HASH160 3dfa58f433fea7f24a9ac35320dbd4421251ebf3 OP_EQUAL", "type": "scripthash"}, "value": 1.70987948, "n": 1}], "hex": "02000000000101e21c5db9623d345f04d3dfbd1e8d5f4bfdef2002b352b4160204daab01482e930100000017160014a529747445824bedb2a4b56d009945b7c8494f30ffffffff0209e139000000000017a9148a58c80db61a76d76fecd84ed62e7a43f65967ab87ac11310a0000000017a9143dfa58f433fea7f24a9ac35320dbd4421251ebf38702473044022059721d2a0c440a20acd9f8cc7de00a463c86e29a67441f2c8e4c8176e8fa1fda0220369e0f309ecb391a8db163df9a30ac6f7117bc49cdead21478be535d20cbc7e4012103bef004de7c63d3022d0275615353ae9c1bd1d022a6e16738ed33ad1f4ebd0e5500000000", "vin": [{"txinwitness": ["3044022059721d2a0c440a20acd9f8cc7de00a463c86e29a67441f2c8e4c8176e8fa1fda0220369e0f309ecb391a8db163df9a30ac6f7117bc49cdead21478be535d20cbc7e401", "03bef004de7c63d3022d0275615353ae9c1bd1d022a6e16738ed33ad1f4ebd0e55"], "sequence": 4294967295, "scriptSig": {"hex": "160014a529747445824bedb2a4b56d009945b7c8494f30", "asm": "0014a529747445824bedb2a4b56d009945b7c8494f30"}, "vout": 1, "txid": "932e4801abda040216b452b30220effd4b5f8d1ebddfd3045f343d62b95d1ce2"}], "txid": "358a98a7b7095247048b30525a42c959a6c4ab0116b21b648a274529fbd709bf", "blocktime": 1537871767, "version": 2, "confirmations": 11493, "time": 1537871767, "locktime": 0, "vsize": 166, "size": 247}