{"hash": "359155b1529fec26afd9ae5f47fdb8048025107b385855a2b2d5031d7fb74f74", "blockhash": "00000000000000000017f5eb5941039fbcee6240d03bc1f2f8e35350df66a1d8", "vout": [{"scriptPubKey": {"type": "nulldata", "hex": "6a146f6d6e69000000000000001f0000005d21dba000", "asm": "OP_RETURN 6f6d6e69000000000000001f0000005d21dba000"}, "value": 0.0, "n": 0}, {"scriptPubKey": {"reqSigs": 1, "hex": "76a91454965f1a9e419f0062714ea2fc503e31f4f563eb88ac", "addresses": ["18iFu7JnTJQm6QozHT3AeZKGRKnEjMqwv4"], "asm": "OP_DUP OP_HASH160 54965f1a9e419f0062714ea2fc503e31f4f563eb OP_EQUALVERIFY OP_CHECKSIG", "type": "pubkeyhash"}, "value": 0.00496482, "n": 1}, {"scriptPubKey": {"reqSigs": 1, "hex": "76a914a25dec4d0011064ef106a983c39c7a540699f22088ac", "addresses": ["1FoWyxwPXuj4C6abqwhjDWdz6D4PZgYRjA"], "asm": "OP_DUP OP_HASH160 a25dec4d0011064ef106a983c39c7a540699f220 OP_EQUALVERIFY OP_CHECKSIG", "type": "pubkeyhash"}, "value": 5.46e-06, "n": 2}], "hex": "0100000002bcbd76d7f6f8bfaad6576962d296dbfe9930195f576a559c921476036fc4fd56020000006a47304402207f8ac79873f687554874b067a87a1e66cff8ecd6665df4915652243bb4cb43770220423687cf4ceb5157b45e0eefa2ba2041ea29ab5fe31cc40192510329d6c2ac730121024bc5eaef67424489408aee8a9efb57c5b4778dc0a10bb78f4261d23eb8c55ab2feffffffb4e7dcca856ee46187d226f10d7b3b1f0c4561033581dffd76b1361fcf80ae9d010000006a473044022074ea969f4ca51204e156843d37ead186c625cabb03a961fd5885e74e173d489202206bbe4048ee0fe6cfc0a4d1d1893d764948717b1d0e40ff23edc95bb45a6daa070121024bc5eaef67424489408aee8a9efb57c5b4778dc0a10bb78f4261d23eb8c55ab2feffffff030000000000000000166a146f6d6e69000000000000001f0000005d21dba00062930700000000001976a91454965f1a9e419f0062714ea2fc503e31f4f563eb88ac22020000000000001976a914a25dec4d0011064ef106a983c39c7a540699f22088ac15490800", "vin": [{"sequence": 4294967294, "scriptSig": {"hex": "47304402207f8ac79873f687554874b067a87a1e66cff8ecd6665df4915652243bb4cb43770220423687cf4ceb5157b45e0eefa2ba2041ea29ab5fe31cc40192510329d6c2ac730121024bc5eaef67424489408aee8a9efb57c5b4778dc0a10bb78f4261d23eb8c55ab2", "asm": "304402207f8ac79873f687554874b067a87a1e66cff8ecd6665df4915652243bb4cb43770220423687cf4ceb5157b45e0eefa2ba2041ea29ab5fe31cc40192510329d6c2ac73[ALL] 024bc5eaef67424489408aee8a9efb57c5b4778dc0a10bb78f4261d23eb8c55ab2"}, "vout": 2, "txid": "56fdc46f037614929c556a575f193099fedb96d2626957d6aabff8f6d776bdbc"}, {"sequence": 4294967294, "scriptSig": {"hex": "473044022074ea969f4ca51204e156843d37ead186c625cabb03a961fd5885e74e173d489202206bbe4048ee0fe6cfc0a4d1d1893d764948717b1d0e40ff23edc95bb45a6daa070121024bc5eaef67424489408aee8a9efb57c5b4778dc0a10bb78f4261d23eb8c55ab2", "asm": "3044022074ea969f4ca51204e156843d37ead186c625cabb03a961fd5885e74e173d489202206bbe4048ee0fe6cfc0a4d1d1893d764948717b1d0e40ff23edc95bb45a6daa07[ALL] 024bc5eaef67424489408aee8a9efb57c5b4778dc0a10bb78f4261d23eb8c55ab2"}, "vout": 1, "txid": "9dae80cf1f36b176fddf81350361450c1f3b7b0df126d28761e46e85cadce7b4"}], "txid": "359155b1529fec26afd9ae5f47fdb8048025107b385855a2b2d5031d7fb74f74", "blocktime": 1537874412, "version": 1, "confirmations": 11468, "time": 1537874412, "locktime": 542997, "vsize": 403, "size": 403}