{"hash": "43c9bd9345e1726a2bfac61109b5c39140707f3b1b400db9db71f1f8b156f983", "blockhash": "000000000000000000022b45ed06c6f4ccd3cf7fb5ba4856ebd2e58215665228", "vout": [{"scriptPubKey": {"reqSigs": 1, "hex": "76a9148d3ea1a917d300e0b527fa1e7ad4fc2222d9f33288ac", "addresses": ["1DsqJm5puCeVDWDfNDptpGHkVQrtG5a3aQ"], "asm": "OP_DUP OP_HASH160 8d3ea1a917d300e0b527fa1e7ad4fc2222d9f332 OP_EQUALVERIFY OP_CHECKSIG", "type": "pubkeyhash"}, "value": 0.00320211, "n": 0}, {"scriptPubKey": {"reqSigs": 1, "hex": "a914699ad913de3ecde0637051d3d25447ff910acd5e87", "addresses": ["3BKQNiBLbefJZKiTXmr1tteWrvSeDhMohv"], "asm": "OP_HASH160 699ad913de3ecde0637051d3d25447ff910acd5e OP_EQUAL", "type": "scripthash"}, "value": 0.01000015, "n": 1}], "hex": "020000000001020e03836a36262f2a8ecac905fd5fb8ac642058c2c10b89bc2ef2e84beed5b00900000000171600147adb101a2e8f04195ab2d506c1cb112566582f90feffffff95f02e63921af48a79100baf23d6092e3e388945a3a4d7b41fa4d81df33aa24e0100000017160014daa65f71eb0f4b6c85effa61277a2dcda91a1067feffffff02d3e20400000000001976a9148d3ea1a917d300e0b527fa1e7ad4fc2222d9f33288ac4f420f000000000017a914699ad913de3ecde0637051d3d25447ff910acd5e87024830450221009396e167e67bae8fccadeb1d5e0e0653d7bc9bc1073982d8328300dc5694c8fc022054b76a0a5937065d717d686fdab441bee4c0f8edc13bd60879f4bc4d57f729500121038a2034f4becf47bf9729ee69b83e0c4d8522d5f09d30000451820fee993d273a02483045022100d806bbb9ad7ebac842c8a33821257c3ade3401b9d99f385788a702d3696ae44e0220754f97cce259edfc8945116475094dcecda2462fbbdcfa36e082203244e69a2e012102cb469928d1929b1306c4622bcefe3cc8400328b7830ae0afa254b8ff7b3bc5c90b490800", "vin": [{"txinwitness": ["30450221009396e167e67bae8fccadeb1d5e0e0653d7bc9bc1073982d8328300dc5694c8fc022054b76a0a5937065d717d686fdab441bee4c0f8edc13bd60879f4bc4d57f7295001", "038a2034f4becf47bf9729ee69b83e0c4d8522d5f09d30000451820fee993d273a"], "sequence": 4294967294, "scriptSig": {"hex": "1600147adb101a2e8f04195ab2d506c1cb112566582f90", "asm": "00147adb101a2e8f04195ab2d506c1cb112566582f90"}, "vout": 0, "txid": "09b0d5ee4be8f22ebc890bc1c2582064acb85ffd05c9ca8e2a2f26366a83030e"}, {"txinwitness": ["3045022100d806bbb9ad7ebac842c8a33821257c3ade3401b9d99f385788a702d3696ae44e0220754f97cce259edfc8945116475094dcecda2462fbbdcfa36e082203244e69a2e01", "02cb469928d1929b1306c4622bcefe3cc8400328b7830ae0afa254b8ff7b3bc5c9"], "sequence": 4294967294, "scriptSig": {"hex": "160014daa65f71eb0f4b6c85effa61277a2dcda91a1067", "asm": "0014daa65f71eb0f4b6c85effa61277a2dcda91a1067"}, "vout": 1, "txid": "4ea23af31dd8a41fb4d7a4a34589383e2e09d623af0b10798af41a92632ef095"}], "txid": "35924fb28672881f0c57279d65c0d436c3a80fd5cc938488893fa54527500dbe", "blocktime": 1537869901, "version": 2, "confirmations": 11524, "time": 1537869901, "locktime": 542987, "vsize": 259, "size": 422}