{"hash": "769a69ce7137e13e950767dc8854477330ff2326b213e3afb7cbc1d4d71bb674", "blockhash": "0000000000000000000baef3f32e3676a92c3b2e5da21b426e4f302fc371ce76", "vout": [{"scriptPubKey": {"reqSigs": 1, "hex": "76a914ed8151bf5c944438fde924bc6dd6649dcd9fdb2188ac", "addresses": ["1Nep4jEP9QBB3duyS6TLDje5sMAtGsm1vS"], "asm": "OP_DUP OP_HASH160 ed8151bf5c944438fde924bc6dd6649dcd9fdb21 OP_EQUALVERIFY OP_CHECKSIG", "type": "pubkeyhash"}, "value": 0.01842886, "n": 0}, {"scriptPubKey": {"reqSigs": 1, "hex": "a914cfaabfe8c271f99a4364b5197ba50c6cddb7adb987", "addresses": ["3Ld4M9RPwEG3VeQbHcC1PsKUndQL7VYLZP"], "asm": "OP_HASH160 cfaabfe8c271f99a4364b5197ba50c6cddb7adb9 OP_EQUAL", "type": "scripthash"}, "value": 0.11741218, "n": 1}], "hex": "01000000000101a067b09a48d37572cabcdc74ad10e78f074676ad96991b3d7aff4ba32839f23c01000000232200202f7b4024602241b47d3306a6733d9889e4b6761d9f1cb82a18aa8b9ac4506e51ffffffff02c61e1c00000000001976a914ed8151bf5c944438fde924bc6dd6649dcd9fdb2188ac2228b3000000000017a914cfaabfe8c271f99a4364b5197ba50c6cddb7adb9870400483045022100bd3a2e7231dbbb76ed8329000f44b5ed22a86da8e0fc1cfb8ad7961846f3c00b02200af2b8b31ccdfc5f1ad7e9f36aa10d4bc340ecfd4dc1036c3cf8e252277e0da90147304402203d3329d339032502e24c31ce890db1eec0abd46cefab8f96ca6b15e5e5da6fba02201121108fa25409a635e74680034df7183fbeefb762fe7117c70c01b65312dc4a0147522102973cd851fecff3a20f08377b072729f303801eee1b7678668338adcaec770ec221033e4af03ed09dbd8a417ba042650d5bd1db7f14f271a8f660974e3abf1fdfa4da52ae00000000", "vin": [{"txinwitness": ["", "3045022100bd3a2e7231dbbb76ed8329000f44b5ed22a86da8e0fc1cfb8ad7961846f3c00b02200af2b8b31ccdfc5f1ad7e9f36aa10d4bc340ecfd4dc1036c3cf8e252277e0da901", "304402203d3329d339032502e24c31ce890db1eec0abd46cefab8f96ca6b15e5e5da6fba02201121108fa25409a635e74680034df7183fbeefb762fe7117c70c01b65312dc4a01", "522102973cd851fecff3a20f08377b072729f303801eee1b7678668338adcaec770ec221033e4af03ed09dbd8a417ba042650d5bd1db7f14f271a8f660974e3abf1fdfa4da52ae"], "sequence": 4294967295, "scriptSig": {"hex": "2200202f7b4024602241b47d3306a6733d9889e4b6761d9f1cb82a18aa8b9ac4506e51", "asm": "00202f7b4024602241b47d3306a6733d9889e4b6761d9f1cb82a18aa8b9ac4506e51"}, "vout": 1, "txid": "3cf23928a34bff7a3d1b9996ad7646078fe710ad74dcbcca7275d3489ab067a0"}], "txid": "3595d5990a6e6e6de7ba62f00570c4fa9a5060f2ab7077e17ff62348c6f361d5", "blocktime": 1537876114, "version": 1, "confirmations": 11462, "time": 1537876114, "locktime": 0, "vsize": 208, "size": 373}