{"hash": "e0c0b98f96d48215a0a2f4e0b3be294c752f42f485102d8115827787409aeb1c", "blockhash": "00000000000000000018f53835495a110e01622372bf6ae95dc86f2b0ab887b0", "vout": [{"scriptPubKey": {"reqSigs": 1, "hex": "001414bbdd90aa3da326e88cf4a8241d510cb2bb2f2d", "addresses": ["bc1qzjaamy928k3jd6yv7j5zg823pjetktedespk0n"], "asm": "0 14bbdd90aa3da326e88cf4a8241d510cb2bb2f2d", "type": "witness_v0_keyhash"}, "value": 0.00013465, "n": 0}, {"scriptPubKey": {"reqSigs": 1, "hex": "76a914075dc9f9987d1ef67e407f0167b8729501f4d1f888ac", "addresses": ["1fx5v2oXoBUQRmTzZoBd3dDxfUn5HU1kA"], "asm": "OP_DUP OP_HASH160 075dc9f9987d1ef67e407f0167b8729501f4d1f8 OP_EQUALVERIFY OP_CHECKSIG", "type": "pubkeyhash"}, "value": 0.00615448, "n": 1}], "hex": "0100000000010172b0317d8f2222bf2d71215a45ec77b3adf7a57fa84869b1efb5b5c77083a17a0000000000ffffffff02993400000000000016001414bbdd90aa3da326e88cf4a8241d510cb2bb2f2d18640900000000001976a914075dc9f9987d1ef67e407f0167b8729501f4d1f888ac02483045022100fdee911b091c16b43a955fac46413fff1c39a6e3a9240a2d5cf70b2be1ad649402203057fbc23eda34795b2be199a02c2cee4ea28f6d927ddbc1889b4386f0c9e322012103ed9e602e3c7fc0b7400ff32654d16314bbd4b9269c233627dc747dee7258d38600000000", "vin": [{"txinwitness": ["3045022100fdee911b091c16b43a955fac46413fff1c39a6e3a9240a2d5cf70b2be1ad649402203057fbc23eda34795b2be199a02c2cee4ea28f6d927ddbc1889b4386f0c9e32201", "03ed9e602e3c7fc0b7400ff32654d16314bbd4b9269c233627dc747dee7258d386"], "sequence": 4294967295, "scriptSig": {"hex": "", "asm": ""}, "vout": 0, "txid": "7aa18370c7b5b5efb16948a87fa5f7adb377ec455a21712dbf22228f7d31b072"}], "txid": "35960994652c1d7162956c954ffa762d8b83e798a8c2c7158829b71099d8f7dc", "blocktime": 1537870928, "version": 1, "confirmations": 11514, "time": 1537870928, "locktime": 0, "vsize": 144, "size": 226}