{"hash": "359f083941102698e2db0c1f41eea82d12e26560d4e9ea26074a458ba1c67d15", "blockhash": "0000000000000000001f76057863aec43deb6fa401d9628bb513d65a8098bfab", "vout": [{"scriptPubKey": {"reqSigs": 1, "hex": "76a914ac2db61ac893fe50d09c8d72817d16d7ee5f4ccf88ac", "addresses": ["1GhPz5LnFKkaQoZGouNbx6UmYi8dfCCRJH"], "asm": "OP_DUP OP_HASH160 ac2db61ac893fe50d09c8d72817d16d7ee5f4ccf OP_EQUALVERIFY OP_CHECKSIG", "type": "pubkeyhash"}, "value": 0.01561492, "n": 0}, {"scriptPubKey": {"reqSigs": 1, "hex": "76a9148934007bfc4bcb4ebfd9111da66ef6712abb6cb388ac", "addresses": ["1DWTsSGDUi21JgSfurA6pfuwKLHcZV9kDC"], "asm": "OP_DUP OP_HASH160 8934007bfc4bcb4ebfd9111da66ef6712abb6cb3 OP_EQUALVERIFY OP_CHECKSIG", "type": "pubkeyhash"}, "value": 0.03166293, "n": 1}], "hex": "0100000001469543f91e8fb42f188d5c88d10c8ba48129929e718d6304391ef9294ae8c99f000000006b483045022100eb64b236c9b386bd6fdc5bb989dac04ce368e5d32a6b641c5b2a6a941be0ed18022012d0064fbcc640f02af31998c8e0f96eaa02949dcee7cedfd94758dad3d79a20012103f330c2a9f6fe86e45e304a6f3d8793e9d75466965f0b18b62a9c5a65f2ffb8ccffffffff0294d31700000000001976a914ac2db61ac893fe50d09c8d72817d16d7ee5f4ccf88ac55503000000000001976a9148934007bfc4bcb4ebfd9111da66ef6712abb6cb388ac00000000", "vin": [{"sequence": 4294967295, "scriptSig": {"hex": "483045022100eb64b236c9b386bd6fdc5bb989dac04ce368e5d32a6b641c5b2a6a941be0ed18022012d0064fbcc640f02af31998c8e0f96eaa02949dcee7cedfd94758dad3d79a20012103f330c2a9f6fe86e45e304a6f3d8793e9d75466965f0b18b62a9c5a65f2ffb8cc", "asm": "3045022100eb64b236c9b386bd6fdc5bb989dac04ce368e5d32a6b641c5b2a6a941be0ed18022012d0064fbcc640f02af31998c8e0f96eaa02949dcee7cedfd94758dad3d79a20[ALL] 03f330c2a9f6fe86e45e304a6f3d8793e9d75466965f0b18b62a9c5a65f2ffb8cc"}, "vout": 0, "txid": "9fc9e84a29f91e3904638d719e922981a48b0cd1885c8d182fb48f1ef9439546"}], "txid": "359f083941102698e2db0c1f41eea82d12e26560d4e9ea26074a458ba1c67d15", "blocktime": 1537873891, "version": 1, "confirmations": 11478, "time": 1537873891, "locktime": 0, "vsize": 226, "size": 226}