{"hash": "91aaf82a2469fe14bb271351ea77498f09dfb0e436797d0a71b0f10125b46cc4", "blockhash": "0000000000000000000e13cef7c366c0283d82e591d1acd082e914b08063cdf1", "vout": [{"scriptPubKey": {"reqSigs": 1, "hex": "76a91479844be457a6c9f4516a9b60b180c02b3124a22088ac", "addresses": ["1C5XFL9jYYsBmVqA77DEX9TFAMf7cNmobK"], "asm": "OP_DUP OP_HASH160 79844be457a6c9f4516a9b60b180c02b3124a220 OP_EQUALVERIFY OP_CHECKSIG", "type": "pubkeyhash"}, "value": 0.00010962, "n": 0}, {"scriptPubKey": {"reqSigs": 1, "hex": "00148264273587c081d3d16f9186711ddc04a5742301", "addresses": ["bc1qsfjzwdv8czqa85t0jxr8z8wuqjjhggcp2g3j9f"], "asm": "0 8264273587c081d3d16f9186711ddc04a5742301", "type": "witness_v0_keyhash"}, "value": 1.163e-05, "n": 1}], "hex": "0100000000010196c4f36dbdc34941e55e55b7f188264b93eaaa4d51bc53c7537eecc28c165ba20000000000ffffffff02d22a0000000000001976a91479844be457a6c9f4516a9b60b180c02b3124a22088ac8b040000000000001600148264273587c081d3d16f9186711ddc04a574230102483045022100fc3e0f4a8767577ffcb048d62d38847ba9c4b8cbc47fbb7f5915cdc43e9d788b022039b7e95a1890727ef79e80b1a1e8dcf870d3bd8e03d30f7aa389c380442ca79f01210394a1b5a7038d811a0a86f53a02198bc7ad8ec4c9282f210b81b07694e5aa95ac00000000", "vin": [{"txinwitness": ["3045022100fc3e0f4a8767577ffcb048d62d38847ba9c4b8cbc47fbb7f5915cdc43e9d788b022039b7e95a1890727ef79e80b1a1e8dcf870d3bd8e03d30f7aa389c380442ca79f01", "0394a1b5a7038d811a0a86f53a02198bc7ad8ec4c9282f210b81b07694e5aa95ac"], "sequence": 4294967295, "scriptSig": {"hex": "", "asm": ""}, "vout": 0, "txid": "a25b168cc2ec7e53c753bc514daaea934b2688f1b7555ee54149c3bd6df3c496"}], "txid": "359fafb50dd503386a7fca42892973f99987e7e35eaed70da74410362b7da762", "blocktime": 1537871767, "version": 1, "confirmations": 11495, "time": 1537871767, "locktime": 0, "vsize": 144, "size": 226}