{"hash": "35a50889adde8510fb964079fd83e4ee918b348415117d929ac63c8f1a1caca1", "blockhash": "0000000000000000001cda96e906b7601b7a6fb1a3b62bca570a9e5d8f4b3de1", "vout": [{"scriptPubKey": {"reqSigs": 1, "hex": "76a914077941c4aa51c0ec020b2120277ed9231028801888ac", "addresses": ["1gWzRPJGyqgHj6deVQPb9ns3yXJwaV8x6"], "asm": "OP_DUP OP_HASH160 077941c4aa51c0ec020b2120277ed92310288018 OP_EQUALVERIFY OP_CHECKSIG", "type": "pubkeyhash"}, "value": 3.85e-05, "n": 0}, {"scriptPubKey": {"reqSigs": 1, "hex": "a914fb65c656c682e554c0b4d38598eac2b0a32dd47c87", "addresses": ["3QcHT8MUwgx9b5Tvz7gvSoiBNHxTb8cFFk"], "asm": "OP_HASH160 fb65c656c682e554c0b4d38598eac2b0a32dd47c OP_EQUAL", "type": "scripthash"}, "value": 0.00281394, "n": 1}], "hex": "010000000290fde38978ca71fca4cad412d21fb7f71d97a54852449907b4cc9bd0d47ce785000000006a47304402207c56af6b40e0709d9aaa420de6dacc4c9c55d510a1aacc21af769f23596584a502203478464c2fbec99d62be9df2efe5c149286fc97ea05d70997545b0640304dbe0012103732f98db94daaf9f0757b3e81e3d80bb3983b6a8252ad34afbbb2ce6c43c0588ffffffff4beff6c4f4208b125bb2aebcb72b2d0e87191987f4324b757b44998cb9280292000000006a473044022030c064725889b3fd757d15e681b6310c77c6ff3efda3de07f12feb30f0e0b8f9022028903bc46569c857cb7690ae89c133e43dc5ee2fb85b71bfa0f66679c8cb1be90121020a408ba3328e30a1678ec658e7d8a822866360cf88126e017c68fb8757de3dd2ffffffff020a0f0000000000001976a914077941c4aa51c0ec020b2120277ed9231028801888ac324b04000000000017a914fb65c656c682e554c0b4d38598eac2b0a32dd47c8700000000", "vin": [{"sequence": 4294967295, "scriptSig": {"hex": "47304402207c56af6b40e0709d9aaa420de6dacc4c9c55d510a1aacc21af769f23596584a502203478464c2fbec99d62be9df2efe5c149286fc97ea05d70997545b0640304dbe0012103732f98db94daaf9f0757b3e81e3d80bb3983b6a8252ad34afbbb2ce6c43c0588", "asm": "304402207c56af6b40e0709d9aaa420de6dacc4c9c55d510a1aacc21af769f23596584a502203478464c2fbec99d62be9df2efe5c149286fc97ea05d70997545b0640304dbe0[ALL] 03732f98db94daaf9f0757b3e81e3d80bb3983b6a8252ad34afbbb2ce6c43c0588"}, "vout": 0, "txid": "85e77cd4d09bccb40799445248a5971df7b71fd212d4caa4fc71ca7889e3fd90"}, {"sequence": 4294967295, "scriptSig": {"hex": "473044022030c064725889b3fd757d15e681b6310c77c6ff3efda3de07f12feb30f0e0b8f9022028903bc46569c857cb7690ae89c133e43dc5ee2fb85b71bfa0f66679c8cb1be90121020a408ba3328e30a1678ec658e7d8a822866360cf88126e017c68fb8757de3dd2", "asm": "3044022030c064725889b3fd757d15e681b6310c77c6ff3efda3de07f12feb30f0e0b8f9022028903bc46569c857cb7690ae89c133e43dc5ee2fb85b71bfa0f66679c8cb1be9[ALL] 020a408ba3328e30a1678ec658e7d8a822866360cf88126e017c68fb8757de3dd2"}, "vout": 0, "txid": "920228b98c99447b754b32f4871919870e2d2bb7bcaeb25b128b20f4c4f6ef4b"}], "txid": "35a50889adde8510fb964079fd83e4ee918b348415117d929ac63c8f1a1caca1", "blocktime": 1537873282, "version": 1, "confirmations": 11483, "time": 1537873282, "locktime": 0, "vsize": 370, "size": 370}