{"hash": "78b86a30f1389fb863797e1e451b3d559260404db1e5ce6e641c7d4242914cd8", "blockhash": "0000000000000000001cda96e906b7601b7a6fb1a3b62bca570a9e5d8f4b3de1", "vout": [{"scriptPubKey": {"reqSigs": 1, "hex": "a914fafdfe462a7e8a304ce5a6147cbd684c716e59db87", "addresses": ["3Qa98GAhcHQkW6oXJDqnSqw216iGsEJRNN"], "asm": "OP_HASH160 fafdfe462a7e8a304ce5a6147cbd684c716e59db OP_EQUAL", "type": "scripthash"}, "value": 0.01406515, "n": 0}, {"scriptPubKey": {"reqSigs": 1, "hex": "0014f5c796de6f56ba71f0aec53151eeea9075e381f4", "addresses": ["bc1q7hredhn026a8ru9wc5c4rmh2jp678q05k8r2wr"], "asm": "0 f5c796de6f56ba71f0aec53151eeea9075e381f4", "type": "witness_v0_keyhash"}, "value": 0.00013742, "n": 1}], "hex": "01000000000101c0a7deb655c4c202e22512630ee9ee1f496e06f22fcf00c5980db4723c3e50eb00000000171600148d0eabcea91abb2ae163bae1424b978d3791d955ffffffff02337615000000000017a914fafdfe462a7e8a304ce5a6147cbd684c716e59db87ae35000000000000160014f5c796de6f56ba71f0aec53151eeea9075e381f40247304402204bc56fa2c82b08906ea8c7bf825e54b78631abf57291b192890a31d10e56e1ce0220415bafe26e94d338203edf2bc88b13f35d18b91f46312e4cf46768b9f143f3b101210319ebc1b6d30af3471ca0e5e4c51ccdde8c29f0683894356cfe8f7c75d4760b4800000000", "vin": [{"txinwitness": ["304402204bc56fa2c82b08906ea8c7bf825e54b78631abf57291b192890a31d10e56e1ce0220415bafe26e94d338203edf2bc88b13f35d18b91f46312e4cf46768b9f143f3b101", "0319ebc1b6d30af3471ca0e5e4c51ccdde8c29f0683894356cfe8f7c75d4760b48"], "sequence": 4294967295, "scriptSig": {"hex": "1600148d0eabcea91abb2ae163bae1424b978d3791d955", "asm": "00148d0eabcea91abb2ae163bae1424b978d3791d955"}, "vout": 0, "txid": "eb503e3c72b40d98c500cf2ff2066e491feee90e631225e202c2c455b6dea7c0"}], "txid": "35aacb5e5ba317e411a0d4e8560270abd2eb1558f5943e753eb409dbfc6fd2c8", "blocktime": 1537873282, "version": 1, "confirmations": 11484, "time": 1537873282, "locktime": 0, "vsize": 165, "size": 246}