{"hash": "0a74256342ab8c7800bcd4099abe219ad0f0a36458374601a8c509840de6e24e", "blockhash": "00000000000000000024a2167bbff67b0be802c0b01cdd79e6331c2be6459f87", "vout": [{"scriptPubKey": {"reqSigs": 1, "hex": "76a914b1714545e7e250995495594872500fbf1ffcc01788ac", "addresses": ["1HBEJ8ikm5WW3Y7qMe4UVe643XX2nhJyGM"], "asm": "OP_DUP OP_HASH160 b1714545e7e250995495594872500fbf1ffcc017 OP_EQUALVERIFY OP_CHECKSIG", "type": "pubkeyhash"}, "value": 0.0949, "n": 0}, {"scriptPubKey": {"reqSigs": 1, "hex": "a914109c3cdd478116f19164d61e1b4208fcecc9f86887", "addresses": ["33CquCgsGftDh4WBDPpH9nVXuPnsUPnici"], "asm": "OP_HASH160 109c3cdd478116f19164d61e1b4208fcecc9f868 OP_EQUAL", "type": "scripthash"}, "value": 0.01024324, "n": 1}], "hex": "0200000000010628e81eccbfdc391d06db5d85e615bb5fa0df4cd05081d611f05e06ada78a9758010000001716001429fd59903d12a663a52018bdef537e7f6bddb465feffffff5253405396ee1c58c9033f9211ddfdec1d83119f8b6cbe9c25c34b3d7691f9830000000017160014c396ddb3b541ce3c9471a80b3f4ed508c459fd84feffffff62f28a84654bc8a0dfcea8705130fcf16668b433e45af65f802b820be4a7a80f01000000171600140a4fdd1b7170ec34b96200513d50b91c4c357ceffeffffff6a97f26536f6f6cc806f7dc2d654eacc3b4b3a64e6f345665daff16e79d050a70000000017160014e8c0b832671d83e8aff5200f153ca1dc0e4f3841feffffff6ca9d423caa886f70220991f8a5a8c8416fcda876c045d9ac691f085cd0e6e570000000017160014f647ee82bc3416e4c380d958bac01de14b4c8f1dfefffffff27d3e996ccddd8b3e267ed9d6305cd8ef7bccb77932fd8303e852951e47ca8201000000171600145871bfc4d0e72e9ff1390847d6be78f07984d7e5feffffff0250ce9000000000001976a914b1714545e7e250995495594872500fbf1ffcc01788ac44a10f000000000017a914109c3cdd478116f19164d61e1b4208fcecc9f868870248304502210080e9f0ec247f391a331e2f9df095aca2ca674dab2ed92211b49d5803864f26f5022036e8f0a3ab107807616863053c583a7609ddaa786fb82f6a71cdf036c9881af00121031cca7e9a25ba19d5d3b81df2407b20631067de008d6fc2f756eacf53b3a0722d024730440220354f9afb22bd00a72fdf8c2fffddf4ecf696dc85dbf59effa153575b48a2d9ff02201d4e1216c210cfacb82f39a82bed83ad27f429537f54c672512c4c5f0c65258d01210352555bdb944c928d8d4e02ee056d13ff05f210fc90fd09cec568bf80a6dfab8302483045022100e9717e84ee96f99eec27e0e68e722dbed498296b8fa06209b169048d12deb8420220484b093faa416b030d1d4504d60377b96e5635d788231acd588937d85141f22a012103c5a442903cafd165c5d8af8428a359e98a86d468718cdacd196004a9a8d1ad47024730440220446c5a5c8868a1609c3d6bf02d38fd2d870b0bab72b335442cf4e185d1141a05022068444c0489b675c126b109f9e09222232f62de17e4c9f660346adea7fb2ec0bf01210391865bff50aafc0c34fd91b604cc079eaf1e7118035981c869c227e68deb3ffe0247304402201e998fd54ee6142ba45101874678e6e98e6d9e5af34acc573ce9cf285782164e02203e80c7dc74817de8d3ba9ff88b0fedaf5d0dc42d27882300bf169f6110878c380121030aedf55c000b37ff005c815a3732f219b95a32c5dad8125a98f5079c62cf594f024730440220259795f266b35a356e3d658e4341eeb9b43c165a3d0a5b21005a5eb30703b3b402206d3f013fd61db19a39195fbba18d4a32458ab3eb3791acacdebbc7fa7657308d012103cb6dd786897603b0b902497147adea02fa31492b205200ca03aa8fb03f658fd70d490800", "vin": [{"txinwitness": ["304502210080e9f0ec247f391a331e2f9df095aca2ca674dab2ed92211b49d5803864f26f5022036e8f0a3ab107807616863053c583a7609ddaa786fb82f6a71cdf036c9881af001", "031cca7e9a25ba19d5d3b81df2407b20631067de008d6fc2f756eacf53b3a0722d"], "sequence": 4294967294, "scriptSig": {"hex": "16001429fd59903d12a663a52018bdef537e7f6bddb465", "asm": "001429fd59903d12a663a52018bdef537e7f6bddb465"}, "vout": 1, "txid": "58978aa7ad065ef011d68150d04cdfa05fbb15e6855ddb061d39dcbfcc1ee828"}, {"txinwitness": ["30440220354f9afb22bd00a72fdf8c2fffddf4ecf696dc85dbf59effa153575b48a2d9ff02201d4e1216c210cfacb82f39a82bed83ad27f429537f54c672512c4c5f0c65258d01", "0352555bdb944c928d8d4e02ee056d13ff05f210fc90fd09cec568bf80a6dfab83"], "sequence": 4294967294, "scriptSig": {"hex": "160014c396ddb3b541ce3c9471a80b3f4ed508c459fd84", "asm": "0014c396ddb3b541ce3c9471a80b3f4ed508c459fd84"}, "vout": 0, "txid": "83f991763d4bc3259cbe6c8b9f11831decfddd11923f03c9581cee9653405352"}, {"txinwitness": ["3045022100e9717e84ee96f99eec27e0e68e722dbed498296b8fa06209b169048d12deb8420220484b093faa416b030d1d4504d60377b96e5635d788231acd588937d85141f22a01", "03c5a442903cafd165c5d8af8428a359e98a86d468718cdacd196004a9a8d1ad47"], "sequence": 4294967294, "scriptSig": {"hex": "1600140a4fdd1b7170ec34b96200513d50b91c4c357cef", "asm": "00140a4fdd1b7170ec34b96200513d50b91c4c357cef"}, "vout": 1, "txid": "0fa8a7e40b822b805ff65ae433b46866f1fc305170a8cedfa0c84b65848af262"}, {"txinwitness": ["30440220446c5a5c8868a1609c3d6bf02d38fd2d870b0bab72b335442cf4e185d1141a05022068444c0489b675c126b109f9e09222232f62de17e4c9f660346adea7fb2ec0bf01", "0391865bff50aafc0c34fd91b604cc079eaf1e7118035981c869c227e68deb3ffe"], "sequence": 4294967294, "scriptSig": {"hex": "160014e8c0b832671d83e8aff5200f153ca1dc0e4f3841", "asm": "0014e8c0b832671d83e8aff5200f153ca1dc0e4f3841"}, "vout": 0, "txid": "a750d0796ef1af5d6645f3e6643a4b3bccea54d6c27d6f80ccf6f63665f2976a"}, {"txinwitness": ["304402201e998fd54ee6142ba45101874678e6e98e6d9e5af34acc573ce9cf285782164e02203e80c7dc74817de8d3ba9ff88b0fedaf5d0dc42d27882300bf169f6110878c3801", "030aedf55c000b37ff005c815a3732f219b95a32c5dad8125a98f5079c62cf594f"], "sequence": 4294967294, "scriptSig": {"hex": "160014f647ee82bc3416e4c380d958bac01de14b4c8f1d", "asm": "0014f647ee82bc3416e4c380d958bac01de14b4c8f1d"}, "vout": 0, "txid": "576e0ecd85f091c69a5d046c87dafc16848c5a8a1f992002f786a8ca23d4a96c"}, {"txinwitness": ["30440220259795f266b35a356e3d658e4341eeb9b43c165a3d0a5b21005a5eb30703b3b402206d3f013fd61db19a39195fbba18d4a32458ab3eb3791acacdebbc7fa7657308d01", "03cb6dd786897603b0b902497147adea02fa31492b205200ca03aa8fb03f658fd7"], "sequence": 4294967294, "scriptSig": {"hex": "1600145871bfc4d0e72e9ff1390847d6be78f07984d7e5", "asm": "00145871bfc4d0e72e9ff1390847d6be78f07984d7e5"}, "vout": 1, "txid": "82ca471e9552e80383fd3279b7cc7befd85c30d6d97e263e8bddcd6c993e7df2"}], "txid": "35c05e7bf87d2c24c280a235c6432105115ed00e17457ada089433af8d2a89b0", "blocktime": 1537870564, "version": 2, "confirmations": 11515, "time": 1537870564, "locktime": 542989, "vsize": 622, "size": 1106}