{"hash": "35c1407b126d5f12583c4d278e1667449a5ce5384c53d6b39bfc773dc6f425b8", "blockhash": "0000000000000000001cda96e906b7601b7a6fb1a3b62bca570a9e5d8f4b3de1", "vout": [{"scriptPubKey": {"reqSigs": 1, "hex": "76a914a25dec4d0011064ef106a983c39c7a540699f22088ac", "addresses": ["1FoWyxwPXuj4C6abqwhjDWdz6D4PZgYRjA"], "asm": "OP_DUP OP_HASH160 a25dec4d0011064ef106a983c39c7a540699f220 OP_EQUALVERIFY OP_CHECKSIG", "type": "pubkeyhash"}, "value": 0.01995243, "n": 0}, {"scriptPubKey": {"type": "nulldata", "hex": "6a146f6d6e69000000000000001f00000004946c6180", "asm": "OP_RETURN 6f6d6e69000000000000001f00000004946c6180"}, "value": 0.0, "n": 1}, {"scriptPubKey": {"reqSigs": 1, "hex": "a9140069eeb8a3437e6c3b6aa0d186fbff54ce24e24e87", "addresses": ["31jCps29MpiMsEGfZXL1Dg9nZeGGCDCPM1"], "asm": "OP_HASH160 0069eeb8a3437e6c3b6aa0d186fbff54ce24e24e OP_EQUAL", "type": "scripthash"}, "value": 5.4e-06, "n": 2}], "hex": "0100000001a44813c76173a4fe9689194c29809e35be05f1741d9b5e1e9e8bd44070ac1fea7a0000006a473044022001e81128a867e81fc31bf451fc9a62e7c300dc37b322850077ad09cee991c24602207d583c17831bd0a98af924ead07ec37f99b17cbc357c6724bf816a6ecf195d13012103da5bac7b36d5aa38f531c6b9601e21bb598a4b6716ebed38b009a55dabde9440feffffff03eb711e00000000001976a914a25dec4d0011064ef106a983c39c7a540699f22088ac0000000000000000166a146f6d6e69000000000000001f00000004946c61801c0200000000000017a9140069eeb8a3437e6c3b6aa0d186fbff54ce24e24e8713490800", "vin": [{"sequence": 4294967294, "scriptSig": {"hex": "473044022001e81128a867e81fc31bf451fc9a62e7c300dc37b322850077ad09cee991c24602207d583c17831bd0a98af924ead07ec37f99b17cbc357c6724bf816a6ecf195d13012103da5bac7b36d5aa38f531c6b9601e21bb598a4b6716ebed38b009a55dabde9440", "asm": "3044022001e81128a867e81fc31bf451fc9a62e7c300dc37b322850077ad09cee991c24602207d583c17831bd0a98af924ead07ec37f99b17cbc357c6724bf816a6ecf195d13[ALL] 03da5bac7b36d5aa38f531c6b9601e21bb598a4b6716ebed38b009a55dabde9440"}, "vout": 122, "txid": "ea1fac7040d48b9e1e5e9b1d74f105be359e80294c198996fea47361c71348a4"}], "txid": "35c1407b126d5f12583c4d278e1667449a5ce5384c53d6b39bfc773dc6f425b8", "blocktime": 1537873282, "version": 1, "confirmations": 11481, "time": 1537873282, "locktime": 542995, "vsize": 254, "size": 254}