{"hash": "fa4c537fe31fadbbfac445db65c71e9b331d3ff2ac2ea7eaab8d50e23a72a207", "blockhash": "0000000000000000000dcc0f55137456b1a82d3642486a52398922ac4d620174", "vout": [{"scriptPubKey": {"reqSigs": 1, "hex": "76a914434e0312528aac500f31d22c0c167c6d86271aaf88ac", "addresses": ["178sjDqUjGAZ6GmBuFzgLJ9n2YzU5TjZQR"], "asm": "OP_DUP OP_HASH160 434e0312528aac500f31d22c0c167c6d86271aaf OP_EQUALVERIFY OP_CHECKSIG", "type": "pubkeyhash"}, "value": 0.00289788, "n": 0}, {"scriptPubKey": {"reqSigs": 1, "hex": "76a9143368205931db8a3b8bd4cd1754d28adea4555a9e88ac", "addresses": ["15gpCcNCLwRVEJDgZx4SRaadRTqfmJFXYc"], "asm": "OP_DUP OP_HASH160 3368205931db8a3b8bd4cd1754d28adea4555a9e OP_EQUALVERIFY OP_CHECKSIG", "type": "pubkeyhash"}, "value": 0.00378444, "n": 1}, {"scriptPubKey": {"reqSigs": 1, "hex": "76a91458f81afe3d43a00b4e82c91baddfc54f6c4676a788ac", "addresses": ["197RgYsACpPnZ2eDS5WSdTL7reDbwDitS8"], "asm": "OP_DUP OP_HASH160 58f81afe3d43a00b4e82c91baddfc54f6c4676a7 OP_EQUALVERIFY OP_CHECKSIG", "type": "pubkeyhash"}, "value": 0.3660117, "n": 2}, {"scriptPubKey": {"reqSigs": 1, "hex": "76a9143f3b0ad53eca2ad4c7aaca42bbf616792474f55d88ac", "addresses": ["16mLJRD46gjxsp1Dt5nv9CLNnvFcYcM57F"], "asm": "OP_DUP OP_HASH160 3f3b0ad53eca2ad4c7aaca42bbf616792474f55d OP_EQUALVERIFY OP_CHECKSIG", "type": "pubkeyhash"}, "value": 0.00997186, "n": 3}], "hex": "020000000001052c67e4ca524036c49b2dabbaa817bd4d85e817b5541c0512a920f05d94e8d7030100000017160014478e7b7c324d248f668387f993b8f1dabad27167feffffff4761f6374bafc3364155c14a5cd15b0476d14211f1db6b17bc8150f5c845e486000000001716001408d8a1ac092264ada6bd585c3484d66e9e53c0b7feffffff849ad2176b6442cf1082f4e243a63d517ce2a236a11a47b18dbb09bfaae7caf60100000017160014d03c3ddd7da9f4c9730660a63c5322b158062484feffffff9f27b4f7b0297e079a2274ba0c1c2fed635cc569e5f7db31f97b7ee32f645fd700000000171600148ea059bd7f1b38f4eeb23dcb36331c76e5005655feffffffce11549b470b4cb4a50dfead96c9eb38187a3025ab812c40e3a69ff6e7808410000000006b483045022100819c72fa8615aba966bb4916e6bd36d55d45644e18a42bc67564d2a9bf2de7a0022067938711ee8c9769b1b3865e0a0096679a8ef8673bc9b95ae8602ba26b751571012103206bb48b75dc6b0cb5b99267a3aa3cd3ecf1bd7f293051695e6a3c08ebfc879dfeffffff04fc6b0400000000001976a914434e0312528aac500f31d22c0c167c6d86271aaf88ac4cc60500000000001976a9143368205931db8a3b8bd4cd1754d28adea4555a9e88ac527d2e02000000001976a91458f81afe3d43a00b4e82c91baddfc54f6c4676a788ac42370f00000000001976a9143f3b0ad53eca2ad4c7aaca42bbf616792474f55d88ac02473044022037179e55aa22f23b71fb4a74fb90eda61744010f544f804e8bf43bfe60c602ac02206fdd15277018e182d23f4cf359c16b8ed914bb73b1304c1094541b42ed11f41a0121022671ade275c694a13d0816bad66981410a6ef1718871a13a911501f18a3733ed024730440220772a46e4537144f713f0df7776033a02c70e0d83ffc59e28b1218a91f754d80f022031dc143af850ff1bda92d3ed21f0526bcecac9471ebe38a9947d66e78edf2b9c0121022da25514baaa7cde0ab85b3a6036a11c91ebc6e2364dba0abf5b82e14380ac480247304402201f4fff1f51cb210797d760c201fbc0c6d641c06abf5efe4e971f1ae9803479ac022066bdf4044bdd511789ae873b5263b9321c150ea3080e4326277d070e3df6236e012103fa5eacf8d1f6e7e13c35fa19c915acb6a7220bc703a4b2606867120a01df7c6e02483045022100b6efac0ebb37fcde6ffb23cbd2b9b413bb310911c5519ec0b75208bd5ea828ef022054b549e294a381cdef1f0ae626d8042b6fa291db3b899f2502436d28a50b3142012103f82aabc7408e81bb550e600b70275b0f4bf773a831899d2fea383ea62bebd295000c490800", "vin": [{"txinwitness": ["3044022037179e55aa22f23b71fb4a74fb90eda61744010f544f804e8bf43bfe60c602ac02206fdd15277018e182d23f4cf359c16b8ed914bb73b1304c1094541b42ed11f41a01", "022671ade275c694a13d0816bad66981410a6ef1718871a13a911501f18a3733ed"], "sequence": 4294967294, "scriptSig": {"hex": "160014478e7b7c324d248f668387f993b8f1dabad27167", "asm": "0014478e7b7c324d248f668387f993b8f1dabad27167"}, "vout": 1, "txid": "03d7e8945df020a912051c54b517e8854dbd17a8baab2d9bc4364052cae4672c"}, {"txinwitness": ["30440220772a46e4537144f713f0df7776033a02c70e0d83ffc59e28b1218a91f754d80f022031dc143af850ff1bda92d3ed21f0526bcecac9471ebe38a9947d66e78edf2b9c01", "022da25514baaa7cde0ab85b3a6036a11c91ebc6e2364dba0abf5b82e14380ac48"], "sequence": 4294967294, "scriptSig": {"hex": "16001408d8a1ac092264ada6bd585c3484d66e9e53c0b7", "asm": "001408d8a1ac092264ada6bd585c3484d66e9e53c0b7"}, "vout": 0, "txid": "86e445c8f55081bc176bdbf11142d176045bd15c4ac1554136c3af4b37f66147"}, {"txinwitness": ["304402201f4fff1f51cb210797d760c201fbc0c6d641c06abf5efe4e971f1ae9803479ac022066bdf4044bdd511789ae873b5263b9321c150ea3080e4326277d070e3df6236e01", "03fa5eacf8d1f6e7e13c35fa19c915acb6a7220bc703a4b2606867120a01df7c6e"], "sequence": 4294967294, "scriptSig": {"hex": "160014d03c3ddd7da9f4c9730660a63c5322b158062484", "asm": "0014d03c3ddd7da9f4c9730660a63c5322b158062484"}, "vout": 1, "txid": "f6cae7aabf09bb8db1471aa136a2e27c513da643e2f48210cf42646b17d29a84"}, {"txinwitness": ["3045022100b6efac0ebb37fcde6ffb23cbd2b9b413bb310911c5519ec0b75208bd5ea828ef022054b549e294a381cdef1f0ae626d8042b6fa291db3b899f2502436d28a50b314201", "03f82aabc7408e81bb550e600b70275b0f4bf773a831899d2fea383ea62bebd295"], "sequence": 4294967294, "scriptSig": {"hex": "1600148ea059bd7f1b38f4eeb23dcb36331c76e5005655", "asm": "00148ea059bd7f1b38f4eeb23dcb36331c76e5005655"}, "vout": 0, "txid": "d75f642fe37e7bf931dbf7e569c55c63ed2f1c0cba74229a077e29b0f7b4279f"}, {"sequence": 4294967294, "scriptSig": {"hex": "483045022100819c72fa8615aba966bb4916e6bd36d55d45644e18a42bc67564d2a9bf2de7a0022067938711ee8c9769b1b3865e0a0096679a8ef8673bc9b95ae8602ba26b751571012103206bb48b75dc6b0cb5b99267a3aa3cd3ecf1bd7f293051695e6a3c08ebfc879d", "asm": "3045022100819c72fa8615aba966bb4916e6bd36d55d45644e18a42bc67564d2a9bf2de7a0022067938711ee8c9769b1b3865e0a0096679a8ef8673bc9b95ae8602ba26b751571[ALL] 03206bb48b75dc6b0cb5b99267a3aa3cd3ecf1bd7f293051695e6a3c08ebfc879d"}, "vout": 0, "txid": "108480e7f69fa6e3402c81ab25307a1838ebc996adfe0da5b44c0b479b5411ce"}], "txid": "35c2ad1eef8c65a3c6038850fd656533a0b2691686397ebce11ae2fcd3e42006", "blocktime": 1537870268, "version": 2, "confirmations": 11516, "time": 1537870268, "locktime": 542988, "vsize": 658, "size": 982}