{"hash": "35c4c079c8eeea047898347d16722ffcdbc204a36e3488c2c0704215178de9f3", "blockhash": "00000000000000000017f5eb5941039fbcee6240d03bc1f2f8e35350df66a1d8", "vout": [{"scriptPubKey": {"reqSigs": 1, "hex": "76a91458a07022a95dd30afd2c97166c98507b662d155a88ac", "addresses": ["195cfK2NTFd2i6qT8hngGScwAd3fWjE6GQ"], "asm": "OP_DUP OP_HASH160 58a07022a95dd30afd2c97166c98507b662d155a OP_EQUALVERIFY OP_CHECKSIG", "type": "pubkeyhash"}, "value": 0.00881873, "n": 0}, {"scriptPubKey": {"reqSigs": 1, "hex": "76a914db1950e7de601682ff0be966d9f81ab981a2918b88ac", "addresses": ["1LyVK115EjiEzS9p8y25SshumG9NDxoct6"], "asm": "OP_DUP OP_HASH160 db1950e7de601682ff0be966d9f81ab981a2918b OP_EQUALVERIFY OP_CHECKSIG", "type": "pubkeyhash"}, "value": 1.04204565, "n": 1}], "hex": "01000000017c3e060017f4d4d7a18f696e07f585ae6bcede70316ac94cffa721cab514a3d7010000006a47304402202fac2c50d86a2f67c67e47d824188afd804e6849ce925c3fa577d9a0593c3b3602203ec1128968023768de4a5cfd6d244b3b0830cc66800492deeac58f24d564ebcb01210318127305aec2c9e19db06e5319cbca84d290f16586937d8856dfbe32046703c4ffffffff02d1740d00000000001976a91458a07022a95dd30afd2c97166c98507b662d155a88ac15093606000000001976a914db1950e7de601682ff0be966d9f81ab981a2918b88ac00000000", "vin": [{"sequence": 4294967295, "scriptSig": {"hex": "47304402202fac2c50d86a2f67c67e47d824188afd804e6849ce925c3fa577d9a0593c3b3602203ec1128968023768de4a5cfd6d244b3b0830cc66800492deeac58f24d564ebcb01210318127305aec2c9e19db06e5319cbca84d290f16586937d8856dfbe32046703c4", "asm": "304402202fac2c50d86a2f67c67e47d824188afd804e6849ce925c3fa577d9a0593c3b3602203ec1128968023768de4a5cfd6d244b3b0830cc66800492deeac58f24d564ebcb[ALL] 0318127305aec2c9e19db06e5319cbca84d290f16586937d8856dfbe32046703c4"}, "vout": 1, "txid": "d7a314b5ca21a7ff4cc96a3170dece6bae85f5076e698fa1d7d4f41700063e7c"}], "txid": "35c4c079c8eeea047898347d16722ffcdbc204a36e3488c2c0704215178de9f3", "blocktime": 1537874412, "version": 1, "confirmations": 11468, "time": 1537874412, "locktime": 0, "vsize": 225, "size": 225}