{"hash": "35c48469df83554a4cee31a948eed6b73afc1f12823a3e4f8ddf71e85290ccbb", "blockhash": "0000000000000000000e13cef7c366c0283d82e591d1acd082e914b08063cdf1", "vout": [{"scriptPubKey": {"reqSigs": 1, "hex": "76a9149df0432af8e8847e03a5b3ef6dd030ebccdd197c88ac", "addresses": ["1FQ6uqi8imBFPidvk4CGaf6QEyfEygFq5U"], "asm": "OP_DUP OP_HASH160 9df0432af8e8847e03a5b3ef6dd030ebccdd197c OP_EQUALVERIFY OP_CHECKSIG", "type": "pubkeyhash"}, "value": 0.00051854, "n": 0}, {"scriptPubKey": {"reqSigs": 1, "hex": "76a914b686780cecc6e91b12229f1fedc07285b6a2ffc988ac", "addresses": ["1He74yoeatDnrW1FLaXpAuE8tD6gTgHtRd"], "asm": "OP_DUP OP_HASH160 b686780cecc6e91b12229f1fedc07285b6a2ffc9 OP_EQUALVERIFY OP_CHECKSIG", "type": "pubkeyhash"}, "value": 0.008, "n": 1}], "hex": "0100000001713191e3879be5d8fd7e42a74e83c5d0a5b8e6d380e041002dd2c4534a399c67000000006a473044022057b842a719efa02a5ac8cefa6fb316750b0182152211a70d0077e36eca51d29b02201c7b4ab26bc940992adf796e4aac169ba3e9bcdc3ad11b45c8c2e474ea459778012103624fcf69fe8e26aa5b44bffa9f3a2504cded1f26538cdef762e62ca477ee8807ffffffff028eca0000000000001976a9149df0432af8e8847e03a5b3ef6dd030ebccdd197c88ac00350c00000000001976a914b686780cecc6e91b12229f1fedc07285b6a2ffc988ac00000000", "vin": [{"sequence": 4294967295, "scriptSig": {"hex": "473044022057b842a719efa02a5ac8cefa6fb316750b0182152211a70d0077e36eca51d29b02201c7b4ab26bc940992adf796e4aac169ba3e9bcdc3ad11b45c8c2e474ea459778012103624fcf69fe8e26aa5b44bffa9f3a2504cded1f26538cdef762e62ca477ee8807", "asm": "3044022057b842a719efa02a5ac8cefa6fb316750b0182152211a70d0077e36eca51d29b02201c7b4ab26bc940992adf796e4aac169ba3e9bcdc3ad11b45c8c2e474ea459778[ALL] 03624fcf69fe8e26aa5b44bffa9f3a2504cded1f26538cdef762e62ca477ee8807"}, "vout": 0, "txid": "679c394a53c4d22d0041e080d3e6b8a5d0c5834ea7427efdd8e59b87e3913171"}], "txid": "35c48469df83554a4cee31a948eed6b73afc1f12823a3e4f8ddf71e85290ccbb", "blocktime": 1537871767, "version": 1, "confirmations": 11495, "time": 1537871767, "locktime": 0, "vsize": 225, "size": 225}