{"hash": "35cecec8c3afc6cdf7967fabf4fcc275787d6a9a641dc7de475f37178b65afc0", "blockhash": "000000000000000000022b45ed06c6f4ccd3cf7fb5ba4856ebd2e58215665228", "vout": [{"scriptPubKey": {"reqSigs": 1, "hex": "76a9143b6b29607d7e0bf41ec4fe0011872f0e6570f55188ac", "addresses": ["16RBF3ESyEN1jgzmWXwoDe3S6atsfwnSFw"], "asm": "OP_DUP OP_HASH160 3b6b29607d7e0bf41ec4fe0011872f0e6570f551 OP_EQUALVERIFY OP_CHECKSIG", "type": "pubkeyhash"}, "value": 0.00164005, "n": 0}, {"scriptPubKey": {"reqSigs": 1, "hex": "76a914e63f498a4b3988e1da6694352313226ae1c4d0af88ac", "addresses": ["1MzSEQ3iShkVfQ52zqikNAKayviMZ4bzUv"], "asm": "OP_DUP OP_HASH160 e63f498a4b3988e1da6694352313226ae1c4d0af OP_EQUALVERIFY OP_CHECKSIG", "type": "pubkeyhash"}, "value": 0.072, "n": 1}], "hex": "01000000057a8825fd3794f555888b518b369f9d0774646e9fa6cd2f1f4b50451e3a58650b010000006b483045022100e754d283afd93c2af7f10c3e2ee7a13c1a0e09b944872d53cf1745f3016a901402206c45432f7059f345a458cd59db356e9b0d5e25f4a184acfe3a03a25b410cb7e0012102832a06e5decbfda743f611651a737f7f002805af17de6735e66bfacb17b8ba75fdffffff51d120cd9da3e9fb2a110b6f7be8802b21184cc20e814e64eed13078b0291345010000006a47304402205d7e33fc1daa2a6e7ebdd08e4877a4ca98e31b8d388f1025bcb86eae47c1bca80220062b618452bcffe866c5b7e44b684d69abcad9394c93d53212ec3963d3087afe012102bad0eac5bc9fed25275283c19ff6b723d02587e9e9f2a15ea0ceeebea2b8252afdffffffd658c638006dcec89fdea6a814352ddfa142645a74f43ef2a39bc3b87d64fd5e000000006a473044022068b5e1bbf0c29b726e6998ba08f5e13500405bd073d0358029f5952777a6647b02204ae54bf4501c0aa1b2ca32b7ec9aaaa569ab29c9e56a42096b6ccf4b1b96394a012103841ee07cccf576bc95fe63e911d35985755498066703dea2962832ff34f20bbdfdffffffc56b1638d1d3aeec5349c3121d6f9caded80a62112eb7f70db212caa7dd04aac000000006a47304402203135ed06269e0d74292709fee0c86f82adb1263aa903af25f27451359f2c6ac90220765543bd7c7fc2ee4f860707f6d2846d9093206589d548130e4351ca412b8c810121020d861571e91bb55af0cd07dd3081f14b9574825660c50ec6f04bb9a172180c8ffdffffff8e8dd875843df4e9786a5af7a39c8f8fa7e4e15fe912c64fd2ea71e2885690bf010000006a47304402200597fc29480edeaf7941febe96749172191470b48c737e3527bf6efeb66362b402206443b79fdb8c1978a5997b69e0306ba853a6af5ee510aad530f7f4c9edc8f5b4012103f20e06fd7f0c4911aba38bcc87590158f74bc1d93deac01ac4583eb3676b38bcfdffffff02a5800200000000001976a9143b6b29607d7e0bf41ec4fe0011872f0e6570f55188ac00dd6d00000000001976a914e63f498a4b3988e1da6694352313226ae1c4d0af88ac0b490800", "vin": [{"sequence": 4294967293, "scriptSig": {"hex": "483045022100e754d283afd93c2af7f10c3e2ee7a13c1a0e09b944872d53cf1745f3016a901402206c45432f7059f345a458cd59db356e9b0d5e25f4a184acfe3a03a25b410cb7e0012102832a06e5decbfda743f611651a737f7f002805af17de6735e66bfacb17b8ba75", "asm": "3045022100e754d283afd93c2af7f10c3e2ee7a13c1a0e09b944872d53cf1745f3016a901402206c45432f7059f345a458cd59db356e9b0d5e25f4a184acfe3a03a25b410cb7e0[ALL] 02832a06e5decbfda743f611651a737f7f002805af17de6735e66bfacb17b8ba75"}, "vout": 1, "txid": "0b65583a1e45504b1f2fcda69f6e6474079d9f368b518b8855f59437fd25887a"}, {"sequence": 4294967293, "scriptSig": {"hex": "47304402205d7e33fc1daa2a6e7ebdd08e4877a4ca98e31b8d388f1025bcb86eae47c1bca80220062b618452bcffe866c5b7e44b684d69abcad9394c93d53212ec3963d3087afe012102bad0eac5bc9fed25275283c19ff6b723d02587e9e9f2a15ea0ceeebea2b8252a", "asm": "304402205d7e33fc1daa2a6e7ebdd08e4877a4ca98e31b8d388f1025bcb86eae47c1bca80220062b618452bcffe866c5b7e44b684d69abcad9394c93d53212ec3963d3087afe[ALL] 02bad0eac5bc9fed25275283c19ff6b723d02587e9e9f2a15ea0ceeebea2b8252a"}, "vout": 1, "txid": "451329b07830d1ee644e810ec24c18212b80e87b6f0b112afbe9a39dcd20d151"}, {"sequence": 4294967293, "scriptSig": {"hex": "473044022068b5e1bbf0c29b726e6998ba08f5e13500405bd073d0358029f5952777a6647b02204ae54bf4501c0aa1b2ca32b7ec9aaaa569ab29c9e56a42096b6ccf4b1b96394a012103841ee07cccf576bc95fe63e911d35985755498066703dea2962832ff34f20bbd", "asm": "3044022068b5e1bbf0c29b726e6998ba08f5e13500405bd073d0358029f5952777a6647b02204ae54bf4501c0aa1b2ca32b7ec9aaaa569ab29c9e56a42096b6ccf4b1b96394a[ALL] 03841ee07cccf576bc95fe63e911d35985755498066703dea2962832ff34f20bbd"}, "vout": 0, "txid": "5efd647db8c39ba3f23ef4745a6442a1df2d3514a8a6de9fc8ce6d0038c658d6"}, {"sequence": 4294967293, "scriptSig": {"hex": "47304402203135ed06269e0d74292709fee0c86f82adb1263aa903af25f27451359f2c6ac90220765543bd7c7fc2ee4f860707f6d2846d9093206589d548130e4351ca412b8c810121020d861571e91bb55af0cd07dd3081f14b9574825660c50ec6f04bb9a172180c8f", "asm": "304402203135ed06269e0d74292709fee0c86f82adb1263aa903af25f27451359f2c6ac90220765543bd7c7fc2ee4f860707f6d2846d9093206589d548130e4351ca412b8c81[ALL] 020d861571e91bb55af0cd07dd3081f14b9574825660c50ec6f04bb9a172180c8f"}, "vout": 0, "txid": "ac4ad07daa2c21db707feb1221a680edad9c6f1d12c34953ecaed3d138166bc5"}, {"sequence": 4294967293, "scriptSig": {"hex": "47304402200597fc29480edeaf7941febe96749172191470b48c737e3527bf6efeb66362b402206443b79fdb8c1978a5997b69e0306ba853a6af5ee510aad530f7f4c9edc8f5b4012103f20e06fd7f0c4911aba38bcc87590158f74bc1d93deac01ac4583eb3676b38bc", "asm": "304402200597fc29480edeaf7941febe96749172191470b48c737e3527bf6efeb66362b402206443b79fdb8c1978a5997b69e0306ba853a6af5ee510aad530f7f4c9edc8f5b4[ALL] 03f20e06fd7f0c4911aba38bcc87590158f74bc1d93deac01ac4583eb3676b38bc"}, "vout": 1, "txid": "bf905688e271ead24fc612e95fe1e4a78f8f9ca3f75a6a78e9f43d8475d88d8e"}], "txid": "35cecec8c3afc6cdf7967fabf4fcc275787d6a9a641dc7de475f37178b65afc0", "blocktime": 1537869901, "version": 1, "confirmations": 11524, "time": 1537869901, "locktime": 542987, "vsize": 814, "size": 814}