{"hash": "35d0d1c3dd626e41ab4927aaa2b80692c44cc10e67372602d067116adaa121fe", "blockhash": "00000000000000000018f53835495a110e01622372bf6ae95dc86f2b0ab887b0", "vout": [{"scriptPubKey": {"reqSigs": 1, "hex": "76a91493d385c082cb50f1fa1b2bb5c38f99b8f25f2c7c88ac", "addresses": ["1EUdj3CLR1o9SuSBucYS3noA9imThKv8on"], "asm": "OP_DUP OP_HASH160 93d385c082cb50f1fa1b2bb5c38f99b8f25f2c7c OP_EQUALVERIFY OP_CHECKSIG", "type": "pubkeyhash"}, "value": 0.00796668, "n": 0}, {"scriptPubKey": {"reqSigs": 1, "hex": "76a914b2bc15d5e14d0c284a7174e937ef73496b6aa36688ac", "addresses": ["1HJ4bYPbyPC2bnWCg7RiAHWenXeRw2VjFQ"], "asm": "OP_DUP OP_HASH160 b2bc15d5e14d0c284a7174e937ef73496b6aa366 OP_EQUALVERIFY OP_CHECKSIG", "type": "pubkeyhash"}, "value": 0.0142, "n": 1}], "hex": "0100000001bdf8a299a4e0d0176efd4abe5fd3d8eee9ba9d979899bb9e9af19dee96feb3ab000000006a473044022028eaf2182e2f8de6c7fe25c3bc0fea526491b224e8677db577021f88ef58f46d022010b67a89c8732c05fe2fb2a7f788aa69b657c534d66b9112f17427d07066c5f9012102cbe0aa2d3508c2f3eb5dcb64627d920002b22486bc57d22221615c628fb4ba60fdffffff02fc270c00000000001976a91493d385c082cb50f1fa1b2bb5c38f99b8f25f2c7c88ace0aa1500000000001976a914b2bc15d5e14d0c284a7174e937ef73496b6aa36688ac0e490800", "vin": [{"sequence": 4294967293, "scriptSig": {"hex": "473044022028eaf2182e2f8de6c7fe25c3bc0fea526491b224e8677db577021f88ef58f46d022010b67a89c8732c05fe2fb2a7f788aa69b657c534d66b9112f17427d07066c5f9012102cbe0aa2d3508c2f3eb5dcb64627d920002b22486bc57d22221615c628fb4ba60", "asm": "3044022028eaf2182e2f8de6c7fe25c3bc0fea526491b224e8677db577021f88ef58f46d022010b67a89c8732c05fe2fb2a7f788aa69b657c534d66b9112f17427d07066c5f9[ALL] 02cbe0aa2d3508c2f3eb5dcb64627d920002b22486bc57d22221615c628fb4ba60"}, "vout": 0, "txid": "abb3fe96ee9df19a9ebb9998979dbae9eed8d35fbe4afd6e17d0e0a499a2f8bd"}], "txid": "35d0d1c3dd626e41ab4927aaa2b80692c44cc10e67372602d067116adaa121fe", "blocktime": 1537870928, "version": 1, "confirmations": 11514, "time": 1537870928, "locktime": 542990, "vsize": 225, "size": 225}