{"hash": "35d40252481ad490fbac5956747309be4ca18bf947a61fafb032a6236e2c00e3", "blockhash": "0000000000000000001f76057863aec43deb6fa401d9628bb513d65a8098bfab", "vout": [{"scriptPubKey": {"reqSigs": 1, "hex": "76a914a310225af9999958859432811c60af2fde0b1a6588ac", "addresses": ["1FsCUHxD7Dz7r6C7TYXLeh8FZMqLFK9gNh"], "asm": "OP_DUP OP_HASH160 a310225af9999958859432811c60af2fde0b1a65 OP_EQUALVERIFY OP_CHECKSIG", "type": "pubkeyhash"}, "value": 0.0101836, "n": 0}, {"scriptPubKey": {"reqSigs": 1, "hex": "76a914da4c03184faa12141f41ab280c79e1f52d68fc9c88ac", "addresses": ["1LuFNES9eNtXRfwXGThPSVa2NN6G1A9jdz"], "asm": "OP_DUP OP_HASH160 da4c03184faa12141f41ab280c79e1f52d68fc9c OP_EQUALVERIFY OP_CHECKSIG", "type": "pubkeyhash"}, "value": 0.05312135, "n": 1}], "hex": "02000000073388b6e9a99a04d11f1a4f5a9a15cf7d81b529d643a8ec6b83160e312d4c8d64010000006b483045022100d096f51660df30d421a4f18f3ebfcc9f5ca0502045af20d34b261586f12a9e1f02204b8d156269a815afe4b1e108e95ff930bb95cb83942a26bfd4a70868a7dcee38012102bb84c06fbb414dc4b8a182ebf3d2509a6d7f07fde48ffa58b5f2c24d24e74cb3feffffff67b67c1ba97efc53f871104fc4167847975839e9fa24a42d56c1943a42a0d85b000000006b4830450221009f088a374c334c3ca197b055ad380ed2bc0674a154bf0109678efb55e5b069c9022043a3fa551a67b2024dff8082d1a404eacdb6dff29341a50f85e61d600f717b5a0121023d469a27c2c2cb531f1d2d8cfcbb728eec3b23bdfa51465a54bb2c9ad8cef75dfeffffff8728f3b0081c5f303ee55fd0b88b73a7545198c36905d86d0726a2f01acedc92000000006a473044022031ce2bfaedef937a7b7914166521803287ee97efffe406640894eeb21d5c147d02204fbdee3006db0b8b71780a203c3696358b5e4ee41949a99cefb357a422276f37012103927ee5ae77e7361c00955778fac08c6172c02b0c1c54f509af4ae847595e0fb3feffffff0aa103391c3fdc5f35661a42824c90fb5c45f28bf9c3b25037a6969ed771d391000000006a473044022010810b701b9fbcd7dc7e9c065a2ec60e65bc825794da18e5458fde8ffe4a2f5302202da7eeb1e80a8bcf6521447dd871e8ee4fc88c36e4e92dfb59013485aa127201012103e592709fbc401c0a4a3b802c9d6beef33952bf015e01b223f1f56154cc020ee6fefffffff2b251a921938ab90121745340bb85b9e7ee17bb82687d9e791e323214d4ec00000000006b483045022100ea8ecf76fda1ac39a34e3ca944a5bb4f3345704f73cc6573be052cf8e7ff5f5802203e05815686d31ec84c4570f9811f05f0173d007779303f0ba52c3eb1195bb3f50121028a38f111aceacf1241e0e1e882e27d24c676152a3d78565799a73f94b1aa6a33feffffff6dd13973f8799c6b7b51647bf768b9a4ca039f5da8dac5af47e5ea878a05c718010000006b4830450221009694cb15e337353d2ec2278bb352f81958023cd3119d84bfa67c918bf35ad78a022066df5b9ca51fc524c197d59cb54df171f5f4271ec6a35b3609f25754010342cd012102c1635bb428b35cdf2f8864a8a61429645b78365b9f12374338b953343680f16cfeffffffdfe6f831bb20db74d53d04637334a27df28f9cc94b253ce7481ad29a399aea75000000006a47304402200e10f477bfa29a7a316dea7ffe1d835acf4d0466fb5c9882e425c162fc9d48980220629543086a6eb2d8083173428632559bfdb25c3cb9f9ac0900e321bf96e7e8dc012103616412d9514e88babc46feb458cad1505436b25ef7a8df39eeeac7c450600b0dfeffffff02f8890f00000000001976a914a310225af9999958859432811c60af2fde0b1a6588ac870e5100000000001976a914da4c03184faa12141f41ab280c79e1f52d68fc9c88ac13490800", "vin": [{"sequence": 4294967294, "scriptSig": {"hex": "483045022100d096f51660df30d421a4f18f3ebfcc9f5ca0502045af20d34b261586f12a9e1f02204b8d156269a815afe4b1e108e95ff930bb95cb83942a26bfd4a70868a7dcee38012102bb84c06fbb414dc4b8a182ebf3d2509a6d7f07fde48ffa58b5f2c24d24e74cb3", "asm": "3045022100d096f51660df30d421a4f18f3ebfcc9f5ca0502045af20d34b261586f12a9e1f02204b8d156269a815afe4b1e108e95ff930bb95cb83942a26bfd4a70868a7dcee38[ALL] 02bb84c06fbb414dc4b8a182ebf3d2509a6d7f07fde48ffa58b5f2c24d24e74cb3"}, "vout": 1, "txid": "648d4c2d310e16836beca843d629b5817dcf159a5a4f1a1fd1049aa9e9b68833"}, {"sequence": 4294967294, "scriptSig": {"hex": "4830450221009f088a374c334c3ca197b055ad380ed2bc0674a154bf0109678efb55e5b069c9022043a3fa551a67b2024dff8082d1a404eacdb6dff29341a50f85e61d600f717b5a0121023d469a27c2c2cb531f1d2d8cfcbb728eec3b23bdfa51465a54bb2c9ad8cef75d", "asm": "30450221009f088a374c334c3ca197b055ad380ed2bc0674a154bf0109678efb55e5b069c9022043a3fa551a67b2024dff8082d1a404eacdb6dff29341a50f85e61d600f717b5a[ALL] 023d469a27c2c2cb531f1d2d8cfcbb728eec3b23bdfa51465a54bb2c9ad8cef75d"}, "vout": 0, "txid": "5bd8a0423a94c1562da424fae9395897477816c44f1071f853fc7ea91b7cb667"}, {"sequence": 4294967294, "scriptSig": {"hex": "473044022031ce2bfaedef937a7b7914166521803287ee97efffe406640894eeb21d5c147d02204fbdee3006db0b8b71780a203c3696358b5e4ee41949a99cefb357a422276f37012103927ee5ae77e7361c00955778fac08c6172c02b0c1c54f509af4ae847595e0fb3", "asm": "3044022031ce2bfaedef937a7b7914166521803287ee97efffe406640894eeb21d5c147d02204fbdee3006db0b8b71780a203c3696358b5e4ee41949a99cefb357a422276f37[ALL] 03927ee5ae77e7361c00955778fac08c6172c02b0c1c54f509af4ae847595e0fb3"}, "vout": 0, "txid": "92dcce1af0a226076dd80569c3985154a7738bb8d05fe53e305f1c08b0f32887"}, {"sequence": 4294967294, "scriptSig": {"hex": "473044022010810b701b9fbcd7dc7e9c065a2ec60e65bc825794da18e5458fde8ffe4a2f5302202da7eeb1e80a8bcf6521447dd871e8ee4fc88c36e4e92dfb59013485aa127201012103e592709fbc401c0a4a3b802c9d6beef33952bf015e01b223f1f56154cc020ee6", "asm": "3044022010810b701b9fbcd7dc7e9c065a2ec60e65bc825794da18e5458fde8ffe4a2f5302202da7eeb1e80a8bcf6521447dd871e8ee4fc88c36e4e92dfb59013485aa127201[ALL] 03e592709fbc401c0a4a3b802c9d6beef33952bf015e01b223f1f56154cc020ee6"}, "vout": 0, "txid": "91d371d79e96a63750b2c3f98bf2455cfb904c82421a66355fdc3f1c3903a10a"}, {"sequence": 4294967294, "scriptSig": {"hex": "483045022100ea8ecf76fda1ac39a34e3ca944a5bb4f3345704f73cc6573be052cf8e7ff5f5802203e05815686d31ec84c4570f9811f05f0173d007779303f0ba52c3eb1195bb3f50121028a38f111aceacf1241e0e1e882e27d24c676152a3d78565799a73f94b1aa6a33", "asm": "3045022100ea8ecf76fda1ac39a34e3ca944a5bb4f3345704f73cc6573be052cf8e7ff5f5802203e05815686d31ec84c4570f9811f05f0173d007779303f0ba52c3eb1195bb3f5[ALL] 028a38f111aceacf1241e0e1e882e27d24c676152a3d78565799a73f94b1aa6a33"}, "vout": 0, "txid": "00ecd41432321e799e7d6882bb17eee7b985bb4053742101b98a9321a951b2f2"}, {"sequence": 4294967294, "scriptSig": {"hex": "4830450221009694cb15e337353d2ec2278bb352f81958023cd3119d84bfa67c918bf35ad78a022066df5b9ca51fc524c197d59cb54df171f5f4271ec6a35b3609f25754010342cd012102c1635bb428b35cdf2f8864a8a61429645b78365b9f12374338b953343680f16c", "asm": "30450221009694cb15e337353d2ec2278bb352f81958023cd3119d84bfa67c918bf35ad78a022066df5b9ca51fc524c197d59cb54df171f5f4271ec6a35b3609f25754010342cd[ALL] 02c1635bb428b35cdf2f8864a8a61429645b78365b9f12374338b953343680f16c"}, "vout": 1, "txid": "18c7058a87eae547afc5daa85d9f03caa4b968f77b64517b6b9c79f87339d16d"}, {"sequence": 4294967294, "scriptSig": {"hex": "47304402200e10f477bfa29a7a316dea7ffe1d835acf4d0466fb5c9882e425c162fc9d48980220629543086a6eb2d8083173428632559bfdb25c3cb9f9ac0900e321bf96e7e8dc012103616412d9514e88babc46feb458cad1505436b25ef7a8df39eeeac7c450600b0d", "asm": "304402200e10f477bfa29a7a316dea7ffe1d835acf4d0466fb5c9882e425c162fc9d48980220629543086a6eb2d8083173428632559bfdb25c3cb9f9ac0900e321bf96e7e8dc[ALL] 03616412d9514e88babc46feb458cad1505436b25ef7a8df39eeeac7c450600b0d"}, "vout": 0, "txid": "75ea9a399ad21a48e73c254bc99c8ff27da2347363043dd574db20bb31f8e6df"}], "txid": "35d40252481ad490fbac5956747309be4ca18bf947a61fafb032a6236e2c00e3", "blocktime": 1537873891, "version": 2, "confirmations": 11478, "time": 1537873891, "locktime": 542995, "vsize": 1111, "size": 1111}