{"hash": "35d472035125b5b1f55f63a2de70204dbe9ef2d06cb40252e7c18c91a7a7f27b", "blockhash": "0000000000000000001f0ddff1eddb255c1121bcd4da4f1bc9a0da00cae72433", "vout": [{"scriptPubKey": {"reqSigs": 1, "hex": "76a91453d194c22258f8722f378189075856f52b090fef88ac", "addresses": ["18eC9sXZqowgiMendgAD69u6iLj3iqbBx4"], "asm": "OP_DUP OP_HASH160 53d194c22258f8722f378189075856f52b090fef OP_EQUALVERIFY OP_CHECKSIG", "type": "pubkeyhash"}, "value": 0.01, "n": 0}, {"scriptPubKey": {"reqSigs": 1, "hex": "76a914a514c9608d9c0f4190c725a75189ac3a871551bb88ac", "addresses": ["1G3sPw5TUPx6YLvzFGmF3GwAHor5tjkUgi"], "asm": "OP_DUP OP_HASH160 a514c9608d9c0f4190c725a75189ac3a871551bb OP_EQUALVERIFY OP_CHECKSIG", "type": "pubkeyhash"}, "value": 0.01409427, "n": 1}], "hex": "010000000199756dbdfaf3bb8f83b1e3d5b2ccbb0843d3d37ec4d2773ea18435e66d39bf9e630000006a47304402202f94338c031aa5fe6bbbc6bb4cd67339b1f5c0e92b6ee91c305268dbcd20ca1d022021766d7bcb700841126097fb2a541e1edcca1e74a1194cedd37534039745af570121022376e1795af79d3bedad19cc897d2e18e66036673bf89f025baf46ae8e92e498ffffffff0240420f00000000001976a91453d194c22258f8722f378189075856f52b090fef88ac93811500000000001976a914a514c9608d9c0f4190c725a75189ac3a871551bb88ac00000000", "vin": [{"sequence": 4294967295, "scriptSig": {"hex": "47304402202f94338c031aa5fe6bbbc6bb4cd67339b1f5c0e92b6ee91c305268dbcd20ca1d022021766d7bcb700841126097fb2a541e1edcca1e74a1194cedd37534039745af570121022376e1795af79d3bedad19cc897d2e18e66036673bf89f025baf46ae8e92e498", "asm": "304402202f94338c031aa5fe6bbbc6bb4cd67339b1f5c0e92b6ee91c305268dbcd20ca1d022021766d7bcb700841126097fb2a541e1edcca1e74a1194cedd37534039745af57[ALL] 022376e1795af79d3bedad19cc897d2e18e66036673bf89f025baf46ae8e92e498"}, "vout": 99, "txid": "9ebf396de63584a13e77d2c47ed3d34308bbccb2d5e3b1838fbbf3fabd6d7599"}], "txid": "35d472035125b5b1f55f63a2de70204dbe9ef2d06cb40252e7c18c91a7a7f27b", "blocktime": 1537872018, "version": 1, "confirmations": 11489, "time": 1537872018, "locktime": 0, "vsize": 225, "size": 225}