{"hash": "35d9907dadf36f6db8f4e3f4472334e7107c30648afa24f53f61d7e56a6af508", "blockhash": "0000000000000000001e0dab787dd257d1dbfcb92a98c2207d5e1078be1f4165", "vout": [{"scriptPubKey": {"reqSigs": 1, "hex": "76a914562b95854d3ae8509ba3c85cb92f97c83a7f167d88ac", "addresses": ["18rdKmjrg1EawxgiVT3ikLExj6GWS2MNCk"], "asm": "OP_DUP OP_HASH160 562b95854d3ae8509ba3c85cb92f97c83a7f167d OP_EQUALVERIFY OP_CHECKSIG", "type": "pubkeyhash"}, "value": 0.00021787, "n": 0}, {"scriptPubKey": {"reqSigs": 1, "hex": "a914955ecba0bf7b566939200dd30f6b4bfea5f1a5a287", "addresses": ["3FJpAdNKy3QcXxAWyanXe1gU6WjsLuAdz8"], "asm": "OP_HASH160 955ecba0bf7b566939200dd30f6b4bfea5f1a5a2 OP_EQUAL", "type": "scripthash"}, "value": 0.01067575, "n": 1}], "hex": "0100000001d03e7d1ad7a433ef2674587132700f64d15cc049c8515e9faa851ac766dd3ce1000000008b483045022100824b9f2f604353f011f01145d33ebc92a89f3bf5c7247eebe3619d1035456d43022079825c5603795e09edf694abded63046fdb1104cc44f186ec651631a13e2b284014104451f9f1bd49d430a179562cac858ade27371a0960184bcc76a4b1c37900fdf24c6e5b966c8ed7d9652a69b1293af1cc822bf53daf13cb75cc5bc9a57c54f5f68ffffffff021b550000000000001976a914562b95854d3ae8509ba3c85cb92f97c83a7f167d88ac374a10000000000017a914955ecba0bf7b566939200dd30f6b4bfea5f1a5a28700000000", "vin": [{"sequence": 4294967295, "scriptSig": {"hex": "483045022100824b9f2f604353f011f01145d33ebc92a89f3bf5c7247eebe3619d1035456d43022079825c5603795e09edf694abded63046fdb1104cc44f186ec651631a13e2b284014104451f9f1bd49d430a179562cac858ade27371a0960184bcc76a4b1c37900fdf24c6e5b966c8ed7d9652a69b1293af1cc822bf53daf13cb75cc5bc9a57c54f5f68", "asm": "3045022100824b9f2f604353f011f01145d33ebc92a89f3bf5c7247eebe3619d1035456d43022079825c5603795e09edf694abded63046fdb1104cc44f186ec651631a13e2b284[ALL] 04451f9f1bd49d430a179562cac858ade27371a0960184bcc76a4b1c37900fdf24c6e5b966c8ed7d9652a69b1293af1cc822bf53daf13cb75cc5bc9a57c54f5f68"}, "vout": 0, "txid": "e13cdd66c71a85aa9f5e51c849c05cd1640f703271587426ef33a4d71a7d3ed0"}], "txid": "35d9907dadf36f6db8f4e3f4472334e7107c30648afa24f53f61d7e56a6af508", "blocktime": 1537872475, "version": 1, "confirmations": 11486, "time": 1537872475, "locktime": 0, "vsize": 256, "size": 256}