{"hash": "c885f4d683cd87349d92403ceb76d26a0bbeb4053b7f0cd8677af379237ddcb3", "blockhash": "0000000000000000001f76057863aec43deb6fa401d9628bb513d65a8098bfab", "vout": [{"scriptPubKey": {"reqSigs": 1, "hex": "a914fbf28e33ecf281137221c04b706b072f7b1a6f9c87", "addresses": ["3QfC6k4zCbBrwJtcjBvRmWTt4sWwYUJBKE"], "asm": "OP_HASH160 fbf28e33ecf281137221c04b706b072f7b1a6f9c OP_EQUAL", "type": "scripthash"}, "value": 0.01429666, "n": 0}, {"scriptPubKey": {"reqSigs": 1, "hex": "a9148f650f86257c0bf77e5e369e0d3d8f9008a404fe87", "addresses": ["3EmDcntGJqfYBsGuMjvdsHHcuqeEbkeF2X"], "asm": "OP_HASH160 8f650f86257c0bf77e5e369e0d3d8f9008a404fe OP_EQUAL", "type": "scripthash"}, "value": 0.5319, "n": 1}], "hex": "020000000001010cb2de108105a601caa7a04c3b01b57616a7103a4dc40d11a15d723f54a55a0001000000171600148575d7e8674481ce7a7977d2950df080e1013780feffffff02a2d015000000000017a914fbf28e33ecf281137221c04b706b072f7b1a6f9c87709d2b030000000017a9148f650f86257c0bf77e5e369e0d3d8f9008a404fe8702473044022029d85a3c59e17e5b98908e951db492b9c3219b25be62de0d1ebc35733961eeab022016d869b776d9dea547babf71473eb4c50e3fb7846ef675ff773dcd049ab029cd012102542635c7c88dc238ab3d79255238e2965a1227cc68a8918bf8bd5c49dbfb2e9e14490800", "vin": [{"txinwitness": ["3044022029d85a3c59e17e5b98908e951db492b9c3219b25be62de0d1ebc35733961eeab022016d869b776d9dea547babf71473eb4c50e3fb7846ef675ff773dcd049ab029cd01", "02542635c7c88dc238ab3d79255238e2965a1227cc68a8918bf8bd5c49dbfb2e9e"], "sequence": 4294967294, "scriptSig": {"hex": "1600148575d7e8674481ce7a7977d2950df080e1013780", "asm": "00148575d7e8674481ce7a7977d2950df080e1013780"}, "vout": 1, "txid": "005aa5543f725da1110dc44d3a10a71676b5013b4ca0a7ca01a6058110deb20c"}], "txid": "35dd57c0afc3d5fe4182c361a4566d37b369a5e9bb3963d0401cde46c1210632", "blocktime": 1537873891, "version": 2, "confirmations": 11479, "time": 1537873891, "locktime": 542996, "vsize": 166, "size": 247}