{"hash": "35dfa582c1a52335c5cef4f30e226b9643a8d2ed6d94b56e8e1cf51a5f6cd65b", "blockhash": "0000000000000000000e13cef7c366c0283d82e591d1acd082e914b08063cdf1", "vout": [{"scriptPubKey": {"reqSigs": 1, "hex": "76a914e3f0274c31ce2e338ab5c57ebdca1458a0c8000688ac", "addresses": ["1MnE5hp6vdxtH7kjZBkXYqDjxwzjyzr44e"], "asm": "OP_DUP OP_HASH160 e3f0274c31ce2e338ab5c57ebdca1458a0c80006 OP_EQUALVERIFY OP_CHECKSIG", "type": "pubkeyhash"}, "value": 0.04603925, "n": 0}, {"scriptPubKey": {"reqSigs": 1, "hex": "76a91447483c361ddbbdddf35d621695c34223ad07447d88ac", "addresses": ["17VuWcN2Ci1P4ACgpAyX2SRXQgfi7EzDSC"], "asm": "OP_DUP OP_HASH160 47483c361ddbbdddf35d621695c34223ad07447d OP_EQUALVERIFY OP_CHECKSIG", "type": "pubkeyhash"}, "value": 0.17650054, "n": 1}], "hex": "02000000017339fc3ba35d9dca60559614721d3e787e63790b79736924e7c5d854e6043c56000000006b483045022100defb260bd47a6ee4d14e7880b4d943badc76cfb2c625ccb9d0e0217335f252c802205c7049e3397fe7a62191cbdbaaf05040eb4b4496628654a24ea58c782d8e2233012102e40486f4212ccb5e01ede338f844447e012fc898ad9d1de4dd2ed751bb32b334feffffff0215404600000000001976a914e3f0274c31ce2e338ab5c57ebdca1458a0c8000688ac86510d01000000001976a91447483c361ddbbdddf35d621695c34223ad07447d88ac10490800", "vin": [{"sequence": 4294967294, "scriptSig": {"hex": "483045022100defb260bd47a6ee4d14e7880b4d943badc76cfb2c625ccb9d0e0217335f252c802205c7049e3397fe7a62191cbdbaaf05040eb4b4496628654a24ea58c782d8e2233012102e40486f4212ccb5e01ede338f844447e012fc898ad9d1de4dd2ed751bb32b334", "asm": "3045022100defb260bd47a6ee4d14e7880b4d943badc76cfb2c625ccb9d0e0217335f252c802205c7049e3397fe7a62191cbdbaaf05040eb4b4496628654a24ea58c782d8e2233[ALL] 02e40486f4212ccb5e01ede338f844447e012fc898ad9d1de4dd2ed751bb32b334"}, "vout": 0, "txid": "563c04e654d8c5e7246973790b79637e783e1d7214965560ca9d5da33bfc3973"}], "txid": "35dfa582c1a52335c5cef4f30e226b9643a8d2ed6d94b56e8e1cf51a5f6cd65b", "blocktime": 1537871767, "version": 2, "confirmations": 11490, "time": 1537871767, "locktime": 542992, "vsize": 226, "size": 226}