{"hash": "35e47b4f7abe2cd96ba1befbdcc27368b878edcb8d052a17f499bdbf68fb0e0e", "blockhash": "0000000000000000001cda96e906b7601b7a6fb1a3b62bca570a9e5d8f4b3de1", "vout": [{"scriptPubKey": {"reqSigs": 1, "hex": "76a91487d0a410ff6d597de9b739f07d03f7040fc880b188ac", "addresses": ["1DP8AX9voAdDuNjbRKGSJnT1baXQF9QkFf"], "asm": "OP_DUP OP_HASH160 87d0a410ff6d597de9b739f07d03f7040fc880b1 OP_EQUALVERIFY OP_CHECKSIG", "type": "pubkeyhash"}, "value": 0.0306, "n": 0}, {"scriptPubKey": {"reqSigs": 1, "hex": "a914e370231feecbfc25e2e2423a5a79bf79bfdca59887", "addresses": ["3NRbeX3vD5VaVE4TDU9ivCDsEf7NPPte6J"], "asm": "OP_HASH160 e370231feecbfc25e2e2423a5a79bf79bfdca598 OP_EQUAL", "type": "scripthash"}, "value": 3.24432365, "n": 1}], "hex": "0100000001337291fa5894b9ec1335236f4c97ac522745bcdec8ca86b7f1e34cd9335fc4e601000000d900473044022064ba029fddbb72bc086640e8bbf1ef633972ae2a394fe98787e64b6a6390636502205907e406173a8ae4fde199b8de8331327fc0ca57e8a76ba0c5ce0c58e5a79b0801473044022001dfe0ccdefb23bb085d999d86525e42f24c3d1fc5b2fa3a08ac77edf474293e02206a45ee950a1129da51fde449260e5db311349a0387abbd927f09832ecf9fee09014752210327881b6abce6535553a3ce21fad12a7d74fd237ce7c4cd270a267162344e3082210256141f8eb687f5a68c5cc65054652dc25116fa285e44d72b44368827ffe77d9a52aeffffffff0220b12e00000000001976a91487d0a410ff6d597de9b739f07d03f7040fc880b188aced7156130000000017a914e370231feecbfc25e2e2423a5a79bf79bfdca5988700000000", "vin": [{"sequence": 4294967295, "scriptSig": {"hex": "00473044022064ba029fddbb72bc086640e8bbf1ef633972ae2a394fe98787e64b6a6390636502205907e406173a8ae4fde199b8de8331327fc0ca57e8a76ba0c5ce0c58e5a79b0801473044022001dfe0ccdefb23bb085d999d86525e42f24c3d1fc5b2fa3a08ac77edf474293e02206a45ee950a1129da51fde449260e5db311349a0387abbd927f09832ecf9fee09014752210327881b6abce6535553a3ce21fad12a7d74fd237ce7c4cd270a267162344e3082210256141f8eb687f5a68c5cc65054652dc25116fa285e44d72b44368827ffe77d9a52ae", "asm": "0 3044022064ba029fddbb72bc086640e8bbf1ef633972ae2a394fe98787e64b6a6390636502205907e406173a8ae4fde199b8de8331327fc0ca57e8a76ba0c5ce0c58e5a79b08[ALL] 3044022001dfe0ccdefb23bb085d999d86525e42f24c3d1fc5b2fa3a08ac77edf474293e02206a45ee950a1129da51fde449260e5db311349a0387abbd927f09832ecf9fee09[ALL] 52210327881b6abce6535553a3ce21fad12a7d74fd237ce7c4cd270a267162344e3082210256141f8eb687f5a68c5cc65054652dc25116fa285e44d72b44368827ffe77d9a52ae"}, "vout": 1, "txid": "e6c45f33d94ce3f1b786cac8debc452752ac974c6f233513ecb99458fa917233"}], "txid": "35e47b4f7abe2cd96ba1befbdcc27368b878edcb8d052a17f499bdbf68fb0e0e", "blocktime": 1537873282, "version": 1, "confirmations": 11484, "time": 1537873282, "locktime": 0, "vsize": 334, "size": 334}