{"hash": "35f7852bf75f178d04c6cdb9e0e651f516f9d1e49b499522837b3835ce09dd52", "blockhash": "0000000000000000001e0dab787dd257d1dbfcb92a98c2207d5e1078be1f4165", "vout": [{"scriptPubKey": {"reqSigs": 1, "hex": "76a914d243e6abb9a60fbff430b421d2df4b7d59ec186088ac", "addresses": ["1LAnF8h3qMGx3TSwNUHVneBZUEpwE4gu3D"], "asm": "OP_DUP OP_HASH160 d243e6abb9a60fbff430b421d2df4b7d59ec1860 OP_EQUALVERIFY OP_CHECKSIG", "type": "pubkeyhash"}, "value": 0.00077314, "n": 0}, {"scriptPubKey": {"reqSigs": 1, "hex": "76a91499c8a914226a5acdbf1a76e5b688aca9b1e96d1088ac", "addresses": ["1F28mV3RUmWauiumzYoaNTUVdDCz9Z1V2i"], "asm": "OP_DUP OP_HASH160 99c8a914226a5acdbf1a76e5b688aca9b1e96d10 OP_EQUALVERIFY OP_CHECKSIG", "type": "pubkeyhash"}, "value": 5.46e-06, "n": 1}, {"scriptPubKey": {"type": "nulldata", "hex": "6a146f6d6e69000000000000001f00000004f79bebe0", "asm": "OP_RETURN 6f6d6e69000000000000001f00000004f79bebe0"}, "value": 0.0, "n": 2}], "hex": "010000000147d464a9514d414018908d89eee25f3973b3eeee8c3eafda0c88adc6a9d4741f000000006a47304402202e41f4e17eeaef73489ed14cd2b78cfc4e6dc1c1e2c9393d8c08bd61a39f91c1022036b775b1215a1fab6cf7d91a1ff4c74659a613d66ef2ded25c399d4ff1cba98201210271977291b74f1f5f5c42157e8aae804664eaaeccfd097918450d37f28fb94d77ffffffff03022e0100000000001976a914d243e6abb9a60fbff430b421d2df4b7d59ec186088ac22020000000000001976a91499c8a914226a5acdbf1a76e5b688aca9b1e96d1088ac0000000000000000166a146f6d6e69000000000000001f00000004f79bebe000000000", "vin": [{"sequence": 4294967295, "scriptSig": {"hex": "47304402202e41f4e17eeaef73489ed14cd2b78cfc4e6dc1c1e2c9393d8c08bd61a39f91c1022036b775b1215a1fab6cf7d91a1ff4c74659a613d66ef2ded25c399d4ff1cba98201210271977291b74f1f5f5c42157e8aae804664eaaeccfd097918450d37f28fb94d77", "asm": "304402202e41f4e17eeaef73489ed14cd2b78cfc4e6dc1c1e2c9393d8c08bd61a39f91c1022036b775b1215a1fab6cf7d91a1ff4c74659a613d66ef2ded25c399d4ff1cba982[ALL] 0271977291b74f1f5f5c42157e8aae804664eaaeccfd097918450d37f28fb94d77"}, "vout": 0, "txid": "1f74d4a9c6ad880cdaaf3e8ceeeeb373395fe2ee898d901840414d51a964d447"}], "txid": "35f7852bf75f178d04c6cdb9e0e651f516f9d1e49b499522837b3835ce09dd52", "blocktime": 1537872475, "version": 1, "confirmations": 11486, "time": 1537872475, "locktime": 0, "vsize": 256, "size": 256}