{"hash": "35f9a3727a26d70e98a94cb4fae9ab6eeda17a267b1fdefd0ec5b4d515f5d270", "blockhash": "0000000000000000001f76057863aec43deb6fa401d9628bb513d65a8098bfab", "vout": [{"scriptPubKey": {"reqSigs": 1, "hex": "a9142e34faf2b94aa0e0e4ed9523dd742174095fc24487", "addresses": ["35uLUW2uATyiRz9CUFJJbJDYaGuuAtGayo"], "asm": "OP_HASH160 2e34faf2b94aa0e0e4ed9523dd742174095fc244 OP_EQUAL", "type": "scripthash"}, "value": 0.00842, "n": 0}], "hex": "0100000001bfb5fbed9fbb0f0bf7775bf3e36d5ec403da7ad53f975fa055c8acc4503065ca010000006b483045022100a2a2b13900b5ea3e6d5df590c2cf1531d9d1504df9cca2a1c03e955fa72a20090220322547dbff6d2dbe25f8d09559683fa22aa683017fcb60481589318492aa495e012102b912713821dfe161e7d1a1cce0b1a61ecef1f906197df4a4b2b7957026904ac9fdffffff0110d90c000000000017a9142e34faf2b94aa0e0e4ed9523dd742174095fc2448714490800", "vin": [{"sequence": 4294967293, "scriptSig": {"hex": "483045022100a2a2b13900b5ea3e6d5df590c2cf1531d9d1504df9cca2a1c03e955fa72a20090220322547dbff6d2dbe25f8d09559683fa22aa683017fcb60481589318492aa495e012102b912713821dfe161e7d1a1cce0b1a61ecef1f906197df4a4b2b7957026904ac9", "asm": "3045022100a2a2b13900b5ea3e6d5df590c2cf1531d9d1504df9cca2a1c03e955fa72a20090220322547dbff6d2dbe25f8d09559683fa22aa683017fcb60481589318492aa495e[ALL] 02b912713821dfe161e7d1a1cce0b1a61ecef1f906197df4a4b2b7957026904ac9"}, "vout": 1, "txid": "ca653050c4acc855a05f973fd57ada03c45e6de3f35b77f70b0fbb9fedfbb5bf"}], "txid": "35f9a3727a26d70e98a94cb4fae9ab6eeda17a267b1fdefd0ec5b4d515f5d270", "blocktime": 1537873891, "version": 1, "confirmations": 11479, "time": 1537873891, "locktime": 542996, "vsize": 190, "size": 190}