{"hash": "35fc57be1c5d914a66aab851664b5ada5d9ffb9698a2f47212476ac5a7396a55", "blockhash": "0000000000000000001cda96e906b7601b7a6fb1a3b62bca570a9e5d8f4b3de1", "vout": [{"scriptPubKey": {"reqSigs": 1, "hex": "76a91416fc6bbefa65e8744934dc7e652c33ef3eb6d6d988ac", "addresses": ["136YFjP1SeXYSYe738VCnCaJRzGd6GpvjK"], "asm": "OP_DUP OP_HASH160 16fc6bbefa65e8744934dc7e652c33ef3eb6d6d9 OP_EQUALVERIFY OP_CHECKSIG", "type": "pubkeyhash"}, "value": 0.01440434, "n": 0}, {"scriptPubKey": {"reqSigs": 1, "hex": "76a914e1a31250d7479a175f1be044d09d1bb30761159a88ac", "addresses": ["1Ma4Pa9XBgJcum37ZZ2n7yeGtYjRXLYW4j"], "asm": "OP_DUP OP_HASH160 e1a31250d7479a175f1be044d09d1bb30761159a OP_EQUALVERIFY OP_CHECKSIG", "type": "pubkeyhash"}, "value": 0.042598, "n": 1}], "hex": "0100000003ca406421b9147c40dca7f88439ba4b0558f8be0219722c24633ee727f4fef911010000006b483045022100f2eab9ae011c5cfb3e18b50316c60c80669a2da626f6b423ec16d5e3591a95fd02205a96954099bf31c5b974b91acc9fdc67e762c8d547e68dde972bedfba6b56230012102be27121bc254cb932cc6afb313724b6fd5810173c1ca2b239d4241e6dd72e1f3fffffffff988f2420758e0d880fa729209d210f9384f543462ee895f0c9649519a12d349000000006b4830450221008f3cf9e4c938c5c1395b3bba6791a3b7fe1878a98bef4a11096208f5e5714f86022007ead5c2917e41d5ef2c769416f3f52ef430187306188806a69f95733f36a020012102ab40e6a363ba54d6f4827c3af03c41e2f5e145faef6f8a0dd09b8f5d387ee7b3ffffffff9c5183718682ddd3dfd2e20a976fb275582afe633aaffbfc63a392514e2d39c7010000006b483045022100f6d877e17cb395f7d40f4bbe62b5122d9225a8a62c90118805ed700924ad8a56022011a8d0e84d9f8daa4615275bfdcd2267b7c287361dfffa3dad89becf3cbe6d650121026d5b3c184dc97ce7d8bab296132287f9e71d7180bbed49d1fe1d68651f73c7bcffffffff02b2fa1500000000001976a91416fc6bbefa65e8744934dc7e652c33ef3eb6d6d988acd8ff4000000000001976a914e1a31250d7479a175f1be044d09d1bb30761159a88ac00000000", "vin": [{"sequence": 4294967295, "scriptSig": {"hex": "483045022100f2eab9ae011c5cfb3e18b50316c60c80669a2da626f6b423ec16d5e3591a95fd02205a96954099bf31c5b974b91acc9fdc67e762c8d547e68dde972bedfba6b56230012102be27121bc254cb932cc6afb313724b6fd5810173c1ca2b239d4241e6dd72e1f3", "asm": "3045022100f2eab9ae011c5cfb3e18b50316c60c80669a2da626f6b423ec16d5e3591a95fd02205a96954099bf31c5b974b91acc9fdc67e762c8d547e68dde972bedfba6b56230[ALL] 02be27121bc254cb932cc6afb313724b6fd5810173c1ca2b239d4241e6dd72e1f3"}, "vout": 1, "txid": "11f9fef427e73e63242c721902bef858054bba3984f8a7dc407c14b9216440ca"}, {"sequence": 4294967295, "scriptSig": {"hex": "4830450221008f3cf9e4c938c5c1395b3bba6791a3b7fe1878a98bef4a11096208f5e5714f86022007ead5c2917e41d5ef2c769416f3f52ef430187306188806a69f95733f36a020012102ab40e6a363ba54d6f4827c3af03c41e2f5e145faef6f8a0dd09b8f5d387ee7b3", "asm": "30450221008f3cf9e4c938c5c1395b3bba6791a3b7fe1878a98bef4a11096208f5e5714f86022007ead5c2917e41d5ef2c769416f3f52ef430187306188806a69f95733f36a020[ALL] 02ab40e6a363ba54d6f4827c3af03c41e2f5e145faef6f8a0dd09b8f5d387ee7b3"}, "vout": 0, "txid": "49d3129a5149960c5f89ee6234544f38f910d2099272fa80d8e0580742f288f9"}, {"sequence": 4294967295, "scriptSig": {"hex": "483045022100f6d877e17cb395f7d40f4bbe62b5122d9225a8a62c90118805ed700924ad8a56022011a8d0e84d9f8daa4615275bfdcd2267b7c287361dfffa3dad89becf3cbe6d650121026d5b3c184dc97ce7d8bab296132287f9e71d7180bbed49d1fe1d68651f73c7bc", "asm": "3045022100f6d877e17cb395f7d40f4bbe62b5122d9225a8a62c90118805ed700924ad8a56022011a8d0e84d9f8daa4615275bfdcd2267b7c287361dfffa3dad89becf3cbe6d65[ALL] 026d5b3c184dc97ce7d8bab296132287f9e71d7180bbed49d1fe1d68651f73c7bc"}, "vout": 1, "txid": "c7392d4e5192a363fcfbaf3a63fe2a5875b26f970ae2d2dfd3dd82867183519c"}], "txid": "35fc57be1c5d914a66aab851664b5ada5d9ffb9698a2f47212476ac5a7396a55", "blocktime": 1537873282, "version": 1, "confirmations": 11480, "time": 1537873282, "locktime": 0, "vsize": 522, "size": 522}