{"hash": "fe65207e90e3c7091fac23a1a3e740b24e55547c1613f6fcedea05ed9cc7697c", "blockhash": "0000000000000000000e13cef7c366c0283d82e591d1acd082e914b08063cdf1", "vout": [{"scriptPubKey": {"reqSigs": 1, "hex": "76a914eaa933cfdff85bc06acd40543356c789fcd1d78c88ac", "addresses": ["1NPmpH3EPPwgebrfrySVNc1DFns9cgyvXr"], "asm": "OP_DUP OP_HASH160 eaa933cfdff85bc06acd40543356c789fcd1d78c OP_EQUALVERIFY OP_CHECKSIG", "type": "pubkeyhash"}, "value": 0.02948184, "n": 0}, {"scriptPubKey": {"reqSigs": 1, "hex": "76a914d14f0373e2ec5eeb22d0328366021478a24813b988ac", "addresses": ["1L5it3fMCLWte6mA9pEyi22TzGTJUzUfME"], "asm": "OP_DUP OP_HASH160 d14f0373e2ec5eeb22d0328366021478a24813b9 OP_EQUALVERIFY OP_CHECKSIG", "type": "pubkeyhash"}, "value": 0.00899734, "n": 1}, {"scriptPubKey": {"reqSigs": 1, "hex": "76a914ddf0f3635ea4a83b4417072f22bc0e385527375188ac", "addresses": ["1MEWywpHUy8sgmnXUp1JwU1cLAShyy31Wz"], "asm": "OP_DUP OP_HASH160 ddf0f3635ea4a83b4417072f22bc0e3855273751 OP_EQUALVERIFY OP_CHECKSIG", "type": "pubkeyhash"}, "value": 0.00906838, "n": 2}, {"scriptPubKey": {"reqSigs": 1, "hex": "76a91457aa5bb99be8e39c6420e1aa3530067ca39e541b88ac", "addresses": ["18zXsPi2TWwivNvsrWx3ZiHj4bw4B2ecGr"], "asm": "OP_DUP OP_HASH160 57aa5bb99be8e39c6420e1aa3530067ca39e541b OP_EQUALVERIFY OP_CHECKSIG", "type": "pubkeyhash"}, "value": 0.00796667, "n": 3}, {"scriptPubKey": {"reqSigs": 1, "hex": "a914ee2df0e58ee10db76da83b63a18cd9038aa2483787", "addresses": ["3PQPnEevNC9b4iakxS2UV8DvoAVu4hHtmU"], "asm": "OP_HASH160 ee2df0e58ee10db76da83b63a18cd9038aa24837 OP_EQUAL", "type": "scripthash"}, "value": 0.0058, "n": 4}, {"scriptPubKey": {"reqSigs": 1, "hex": "a914be83613776580c6f186a0f135480c92cf176663087", "addresses": ["3K4MhR8GrKcroUkQF9VRe2cLqMezJjiFxt"], "asm": "OP_HASH160 be83613776580c6f186a0f135480c92cf1766630 OP_EQUAL", "type": "scripthash"}, "value": 0.00493682, "n": 5}, {"scriptPubKey": {"reqSigs": 1, "hex": "a91424f2b361d9a255587f9c00f10aff5a84eb96c67c87", "addresses": ["354NzbDVaLdNxQN9eM3H5EREq9xRf9Kyyc"], "asm": "OP_HASH160 24f2b361d9a255587f9c00f10aff5a84eb96c67c OP_EQUAL", "type": "scripthash"}, "value": 0.00314699, "n": 6}, {"scriptPubKey": {"reqSigs": 1, "hex": "76a914d65bde30eb48f3cc1a5c492031db8e497a458daf88ac", "addresses": ["1LYRf9Zjw3FrTKBvU1pn9oW9FNnN8ki2pJ"], "asm": "OP_DUP OP_HASH160 d65bde30eb48f3cc1a5c492031db8e497a458daf OP_EQUALVERIFY OP_CHECKSIG", "type": "pubkeyhash"}, "value": 0.02989022, "n": 7}, {"scriptPubKey": {"reqSigs": 1, "hex": "a91455fd1db34bee2f2b085f2c2231a7436561e7ff9a87", "addresses": ["39Xgaf9XnaVgsfGQFLGTyfBkWzYXPNhFEx"], "asm": "OP_HASH160 55fd1db34bee2f2b085f2c2231a7436561e7ff9a OP_EQUAL", "type": "scripthash"}, "value": 0.00915746, "n": 8}, {"scriptPubKey": {"reqSigs": 1, "hex": "76a9149d9be2135a04f4e844694b66c49a5d1acdbd853288ac", "addresses": ["1FNMq4odCrdvwSBP3AC75bNn3rZz36w9i7"], "asm": "OP_DUP OP_HASH160 9d9be2135a04f4e844694b66c49a5d1acdbd8532 OP_EQUALVERIFY OP_CHECKSIG", "type": "pubkeyhash"}, "value": 0.01536329, "n": 9}, {"scriptPubKey": {"reqSigs": 1, "hex": "76a91431d0c220a5c838e9dd2d26540c62fd3727ccf49c88ac", "addresses": ["15YQCBXEaAQ3LKZKSTRLiuNYg5EPq5VQ6Z"], "asm": "OP_DUP OP_HASH160 31d0c220a5c838e9dd2d26540c62fd3727ccf49c OP_EQUALVERIFY OP_CHECKSIG", "type": "pubkeyhash"}, "value": 0.00921965, "n": 10}, {"scriptPubKey": {"reqSigs": 1, "hex": "a9144d4e1af101270b6915a1a7954b6dbbd118877edc87", "addresses": ["38jmXALuTCumWbk7GVpe1Em6ewWW5T2snk"], "asm": "OP_HASH160 4d4e1af101270b6915a1a7954b6dbbd118877edc OP_EQUAL", "type": "scripthash"}, "value": 0.10616512, "n": 11}, {"scriptPubKey": {"reqSigs": 1, "hex": "76a91442b442a9f5371a8d26f66e76e1b7d0044b4426ed88ac", "addresses": ["175hYNf3mJG5YfHdCjzjwXosNwECXATvmV"], "asm": "OP_DUP OP_HASH160 42b442a9f5371a8d26f66e76e1b7d0044b4426ed OP_EQUALVERIFY OP_CHECKSIG", "type": "pubkeyhash"}, "value": 0.00202668, "n": 12}, {"scriptPubKey": {"reqSigs": 1, "hex": "76a914d28bea0525872a46b4d130fe341ed66143b6fac788ac", "addresses": ["1LCGWgyvTU1bVsugCsBot3JoTjUbFHu1wC"], "asm": "OP_DUP OP_HASH160 d28bea0525872a46b4d130fe341ed66143b6fac7 OP_EQUALVERIFY OP_CHECKSIG", "type": "pubkeyhash"}, "value": 0.00468499, "n": 13}, {"scriptPubKey": {"reqSigs": 1, "hex": "76a9147bfe5ba4d7c0646f450c1451fb8987326588632988ac", "addresses": ["1CJcphU5PBZrgYVw1q9iRpH1zy8qSjw6hg"], "asm": "OP_DUP OP_HASH160 7bfe5ba4d7c0646f450c1451fb89873265886329 OP_EQUALVERIFY OP_CHECKSIG", "type": "pubkeyhash"}, "value": 0.02628721, "n": 14}, {"scriptPubKey": {"reqSigs": 1, "hex": "76a9144467ad7bba6bf407b80dc7896f15eb3d2f04294188ac", "addresses": ["17Eh9hKhJim6bBYeobgNs4U43f88GBvsyE"], "asm": "OP_DUP OP_HASH160 4467ad7bba6bf407b80dc7896f15eb3d2f042941 OP_EQUALVERIFY OP_CHECKSIG", "type": "pubkeyhash"}, "value": 0.00503009, "n": 15}, {"scriptPubKey": {"reqSigs": 1, "hex": "76a914e7de4fb323e62212ad9423db9561751b197ff00588ac", "addresses": ["1N91QmvsrGdhWoxJ6TkSm6TU7F1U35KYGG"], "asm": "OP_DUP OP_HASH160 e7de4fb323e62212ad9423db9561751b197ff005 OP_EQUALVERIFY OP_CHECKSIG", "type": "pubkeyhash"}, "value": 0.0022381, "n": 16}], "hex": "02000000000101e2366bb31f9ce82829b74b2a2a53559591e10782f275a7af39cb469f98aa7b5301000000171600148708c8ae75d4153fea5bc17df1b5807f7d0d5157feffffff1158fc2c00000000001976a914eaa933cfdff85bc06acd40543356c789fcd1d78c88ac96ba0d00000000001976a914d14f0373e2ec5eeb22d0328366021478a24813b988ac56d60d00000000001976a914ddf0f3635ea4a83b4417072f22bc0e385527375188acfb270c00000000001976a91457aa5bb99be8e39c6420e1aa3530067ca39e541b88aca0d908000000000017a914ee2df0e58ee10db76da83b63a18cd9038aa2483787728807000000000017a914be83613776580c6f186a0f135480c92cf1766630874bcd04000000000017a91424f2b361d9a255587f9c00f10aff5a84eb96c67c87de9b2d00000000001976a914d65bde30eb48f3cc1a5c492031db8e497a458daf88ac22f90d000000000017a91455fd1db34bee2f2b085f2c2231a7436561e7ff9a8749711700000000001976a9149d9be2135a04f4e844694b66c49a5d1acdbd853288ac6d110e00000000001976a91431d0c220a5c838e9dd2d26540c62fd3727ccf49c88acc0fea1000000000017a9144d4e1af101270b6915a1a7954b6dbbd118877edc87ac170300000000001976a91442b442a9f5371a8d26f66e76e1b7d0044b4426ed88ac13260700000000001976a914d28bea0525872a46b4d130fe341ed66143b6fac788ac711c2800000000001976a9147bfe5ba4d7c0646f450c1451fb8987326588632988ace1ac0700000000001976a9144467ad7bba6bf407b80dc7896f15eb3d2f04294188ac426a0300000000001976a914e7de4fb323e62212ad9423db9561751b197ff00588ac02483045022100d9b139d76ce7e9790857c8af9cb0baf73198f3da5dc8928b92ada71514660c5602205eb0ebfbcd8e1dbaff416862af243be18a75f374ab377650fc18dd52b5c27f54012103ceb5f64758cc5f972d911360b7c5a6127eafa812e83ee16ebb31a657fcb6ab490f490800", "vin": [{"txinwitness": ["3045022100d9b139d76ce7e9790857c8af9cb0baf73198f3da5dc8928b92ada71514660c5602205eb0ebfbcd8e1dbaff416862af243be18a75f374ab377650fc18dd52b5c27f5401", "03ceb5f64758cc5f972d911360b7c5a6127eafa812e83ee16ebb31a657fcb6ab49"], "sequence": 4294967294, "scriptSig": {"hex": "1600148708c8ae75d4153fea5bc17df1b5807f7d0d5157", "asm": "00148708c8ae75d4153fea5bc17df1b5807f7d0d5157"}, "vout": 1, "txid": "537baa989f46cb39afa775f28207e1919555532a2a4bb72928e89c1fb36b36e2"}], "txid": "35ff3415230657f278a44cadfb50692af92edd299f0c4ccb797ff692aeb69cd6", "blocktime": 1537871767, "version": 2, "confirmations": 11495, "time": 1537871767, "locktime": 542991, "vsize": 670, "size": 752}