{"hash": "360d7d9ab84b38854f15aa723a2f64486b331f383eb76c52d838deff85703e4d", "blockhash": "00000000000000000017f5eb5941039fbcee6240d03bc1f2f8e35350df66a1d8", "vout": [{"scriptPubKey": {"reqSigs": 1, "hex": "76a914465b49ac5027c045e570a0a4c33358ba7bbfb98688ac", "addresses": ["17R1fDT8kVN3X6jyU112z6J1N5JaRuQbU6"], "asm": "OP_DUP OP_HASH160 465b49ac5027c045e570a0a4c33358ba7bbfb986 OP_EQUALVERIFY OP_CHECKSIG", "type": "pubkeyhash"}, "value": 0.067142, "n": 0}, {"scriptPubKey": {"reqSigs": 1, "hex": "76a91475e853dfa48800aec58c30950b755eb00c4a0bc788ac", "addresses": ["1BkSNrMgRDzN4gWGD2REk3iKSEm7bmYPJK"], "asm": "OP_DUP OP_HASH160 75e853dfa48800aec58c30950b755eb00c4a0bc7 OP_EQUALVERIFY OP_CHECKSIG", "type": "pubkeyhash"}, "value": 0.13811205, "n": 1}], "hex": "0100000001feac773d7f877b4544027fb4283ea5ed042e20658d9e4a60b45d01581c633462000000006a473044022042bb328d7e4f39d8b1add1dd56ff530b0588770db56f89fb21f8f27b6f7a0fab02206436817517cbe101ac49b0624786a02edac49eaff94ecef96bd2980c9caa697e012103461dbc669eccab429df85d806688dd0a9224ed4e29733c765da50150949405edffffffff0258736600000000001976a914465b49ac5027c045e570a0a4c33358ba7bbfb98688ac05bed200000000001976a91475e853dfa48800aec58c30950b755eb00c4a0bc788ac00000000", "vin": [{"sequence": 4294967295, "scriptSig": {"hex": "473044022042bb328d7e4f39d8b1add1dd56ff530b0588770db56f89fb21f8f27b6f7a0fab02206436817517cbe101ac49b0624786a02edac49eaff94ecef96bd2980c9caa697e012103461dbc669eccab429df85d806688dd0a9224ed4e29733c765da50150949405ed", "asm": "3044022042bb328d7e4f39d8b1add1dd56ff530b0588770db56f89fb21f8f27b6f7a0fab02206436817517cbe101ac49b0624786a02edac49eaff94ecef96bd2980c9caa697e[ALL] 03461dbc669eccab429df85d806688dd0a9224ed4e29733c765da50150949405ed"}, "vout": 0, "txid": "6234631c58015db4604a9e8d65202e04eda53e28b47f0244457b877f3d77acfe"}], "txid": "360d7d9ab84b38854f15aa723a2f64486b331f383eb76c52d838deff85703e4d", "blocktime": 1537874412, "version": 1, "confirmations": 11467, "time": 1537874412, "locktime": 0, "vsize": 225, "size": 225}