{"hash": "3616af0365c8e84c42bedf79fc7188da96757a53c065b9c48e50bd71e9d5bdf1", "blockhash": "000000000000000000022b45ed06c6f4ccd3cf7fb5ba4856ebd2e58215665228", "vout": [{"scriptPubKey": {"reqSigs": 1, "hex": "76a9149a342b1bfbc28ff3f45035d07cbfcc97f335c10e88ac", "addresses": ["1F4MZGQNDnAMmq1tERQZsGi5EiRxSEWVf5"], "asm": "OP_DUP OP_HASH160 9a342b1bfbc28ff3f45035d07cbfcc97f335c10e OP_EQUALVERIFY OP_CHECKSIG", "type": "pubkeyhash"}, "value": 0.09520585, "n": 0}], "hex": "0100000001dd3a070340bdf90c6f1291815a3661b4690fb830e7effc4ed108d4080b3eff93000000006a4730440220627bbd043f057f54dec4b74fb72bb079381d1e5b8993d07cb42ce919f97bc412022059a489567e448543b28f9fa55bf394474f64d5f39b84d4eb3cef8e9d19aeb2b70121031813c4af2dd0491ea0ac1b96f50daa15abf2c57b9750e579b4d102c535037a07ffffffff01c9459100000000001976a9149a342b1bfbc28ff3f45035d07cbfcc97f335c10e88ac00000000", "vin": [{"sequence": 4294967295, "scriptSig": {"hex": "4730440220627bbd043f057f54dec4b74fb72bb079381d1e5b8993d07cb42ce919f97bc412022059a489567e448543b28f9fa55bf394474f64d5f39b84d4eb3cef8e9d19aeb2b70121031813c4af2dd0491ea0ac1b96f50daa15abf2c57b9750e579b4d102c535037a07", "asm": "30440220627bbd043f057f54dec4b74fb72bb079381d1e5b8993d07cb42ce919f97bc412022059a489567e448543b28f9fa55bf394474f64d5f39b84d4eb3cef8e9d19aeb2b7[ALL] 031813c4af2dd0491ea0ac1b96f50daa15abf2c57b9750e579b4d102c535037a07"}, "vout": 0, "txid": "93ff3e0b08d408d14efcefe730b80f69b461365a8191126f0cf9bd4003073add"}], "txid": "3616af0365c8e84c42bedf79fc7188da96757a53c065b9c48e50bd71e9d5bdf1", "blocktime": 1537869901, "version": 1, "confirmations": 11522, "time": 1537869901, "locktime": 0, "vsize": 191, "size": 191}