{"hash": "845f5caf87d8bb44843d7a7cfaef7111624a574c68229b3cc6d05fbb3cc6d0c1", "blockhash": "0000000000000000001cda96e906b7601b7a6fb1a3b62bca570a9e5d8f4b3de1", "vout": [{"scriptPubKey": {"reqSigs": 1, "hex": "001481b6c8e997120b007f6dcf9b2787b42670308d97", "addresses": ["bc1qsxmv36vhzg9sqlmde7dj0pa5yecrprvh95zvpm"], "asm": "0 81b6c8e997120b007f6dcf9b2787b42670308d97", "type": "witness_v0_keyhash"}, "value": 1.101e-05, "n": 0}, {"scriptPubKey": {"reqSigs": 1, "hex": "a9147f464841cabbc224ec665b6c0c00b2496603e13f87", "addresses": ["3DHywCiZuZeDUNce5p51E1zCSTeBLPJrRn"], "asm": "OP_HASH160 7f464841cabbc224ec665b6c0c00b2496603e13f OP_EQUAL", "type": "scripthash"}, "value": 0.00254568, "n": 1}], "hex": "01000000000101eb7644f8a44cf40447388b8d28d4ff2201f8fdcc55f7c81488f7cfd564085e670000000017160014f4313a350dffac28b4bf9e63656ecfcdf8e3a5b5ffffffff024d0400000000000016001481b6c8e997120b007f6dcf9b2787b42670308d9768e203000000000017a9147f464841cabbc224ec665b6c0c00b2496603e13f8702483045022100aef301d75879df03f6e414fb79b39000bd11cc071efa4e681bee7ac0b153b3d80220704d4c770289402e5e7e8937c66b6e0a3250c6afd555f104cc4eaf59656978800121035ce7f2c8b6e051244668b656bc6dfbe5785bbcdad5713b9d80ee389e09b6781f00000000", "vin": [{"txinwitness": ["3045022100aef301d75879df03f6e414fb79b39000bd11cc071efa4e681bee7ac0b153b3d80220704d4c770289402e5e7e8937c66b6e0a3250c6afd555f104cc4eaf596569788001", "035ce7f2c8b6e051244668b656bc6dfbe5785bbcdad5713b9d80ee389e09b6781f"], "sequence": 4294967295, "scriptSig": {"hex": "160014f4313a350dffac28b4bf9e63656ecfcdf8e3a5b5", "asm": "0014f4313a350dffac28b4bf9e63656ecfcdf8e3a5b5"}, "vout": 0, "txid": "675e0864d5cff78814c8f755ccfdf80122ffd4288d8b384704f44ca4f84476eb"}], "txid": "361a3088f46c77432748f1af114b7d44450b5a7ea15afb4b48744f3561a978dc", "blocktime": 1537873282, "version": 1, "confirmations": 11484, "time": 1537873282, "locktime": 0, "vsize": 165, "size": 247}