{"hash": "361b8585eceef4539ac32a8103816ed37f490e9f6d95b9dddbd5f8304f9f89b2", "blockhash": "0000000000000000001f76057863aec43deb6fa401d9628bb513d65a8098bfab", "vout": [{"scriptPubKey": {"reqSigs": 1, "hex": "76a9145606c95053773f7171e05470aaadd7250ca10bf888ac", "addresses": ["18qsF2N3uk3VjUj9oDmqzdWHSSjGXXBsdM"], "asm": "OP_DUP OP_HASH160 5606c95053773f7171e05470aaadd7250ca10bf8 OP_EQUALVERIFY OP_CHECKSIG", "type": "pubkeyhash"}, "value": 0.00010052, "n": 0}, {"scriptPubKey": {"reqSigs": 1, "hex": "a9147d6a94bb44ee4b9698ccf57c644d8ac6854c33e187", "addresses": ["3D8A4u6eDiexqVGxrcFSiGKHYgitJKmCaz"], "asm": "OP_HASH160 7d6a94bb44ee4b9698ccf57c644d8ac6854c33e1 OP_EQUAL", "type": "scripthash"}, "value": 0.00780365, "n": 1}], "hex": "0100000004da813660546eebd9ee9323177e821674e9a2a94d632e59f9f4d44a0a0196380e000000006b4830450221008b1a6d27b5c6d9a096132c881a8d564e0cbf977f2aab86dc6a2157742993f6640220419aaf5a287a91aa425ca4f29881720f5c9e317b283b743cccdd222ef221ee020121032ea861cee1ec55220489726ea1aa9586a01cfae48a4a04c74a295551c355a2f7ffffffff066f6ccd2a6978194bcc17ea73d23af5c0f6ba0496775944af24b86aa5f3142c000000006b483045022100aa2d34d3dffb1dfec505c632bca8eadafbe0dec2e8ceac5f5e84fbaf8ebe3d900220349cb8df3eac37a50f3998c38e84517c9852dbcd8696e0155fa3c01d54f07085012103d5b315c868ea86ca25e7a807a90e52afdfae7e164e6d4817b3a076faa1dae197ffffffff7e763f055fa4082093f6c4c3fc4eb5f1fbc789ccee3acb606358b165e962b061000000006b483045022100fd627d6abf6beb41d7bc49be731c252e946c3a569245e5a1bbce3a92e2cf259302202701e7bacd3d8909904fbb279c7c6d50ff1aa55725850a72a16be8955e5f974a012102080779d12ebc7a17155de648a38fc864cffded13f971a4f16ea55d51431efc88ffffffff6d3f2216dd71baf7662011aebeb352d853cd91f6a330cb644f3646dac2e697c4000000006a47304402202201d6075dfb30a8e1c0682d9c5831dca087c73b9d6ec8237bf8d037f006b3e4022056735f4cc0073fb1e4d2ba544409657362a4073cdb07ff3a46815a506277b8770121035af72a2cf80e582b8f8ab4d9c4766ec23ba1cdc2d121007c5ae9f7a38f27b0cbffffffff0244270000000000001976a9145606c95053773f7171e05470aaadd7250ca10bf888ac4de80b000000000017a9147d6a94bb44ee4b9698ccf57c644d8ac6854c33e18700000000", "vin": [{"sequence": 4294967295, "scriptSig": {"hex": "4830450221008b1a6d27b5c6d9a096132c881a8d564e0cbf977f2aab86dc6a2157742993f6640220419aaf5a287a91aa425ca4f29881720f5c9e317b283b743cccdd222ef221ee020121032ea861cee1ec55220489726ea1aa9586a01cfae48a4a04c74a295551c355a2f7", "asm": "30450221008b1a6d27b5c6d9a096132c881a8d564e0cbf977f2aab86dc6a2157742993f6640220419aaf5a287a91aa425ca4f29881720f5c9e317b283b743cccdd222ef221ee02[ALL] 032ea861cee1ec55220489726ea1aa9586a01cfae48a4a04c74a295551c355a2f7"}, "vout": 0, "txid": "0e3896010a4ad4f4f9592e634da9a2e97416827e172393eed9eb6e54603681da"}, {"sequence": 4294967295, "scriptSig": {"hex": "483045022100aa2d34d3dffb1dfec505c632bca8eadafbe0dec2e8ceac5f5e84fbaf8ebe3d900220349cb8df3eac37a50f3998c38e84517c9852dbcd8696e0155fa3c01d54f07085012103d5b315c868ea86ca25e7a807a90e52afdfae7e164e6d4817b3a076faa1dae197", "asm": "3045022100aa2d34d3dffb1dfec505c632bca8eadafbe0dec2e8ceac5f5e84fbaf8ebe3d900220349cb8df3eac37a50f3998c38e84517c9852dbcd8696e0155fa3c01d54f07085[ALL] 03d5b315c868ea86ca25e7a807a90e52afdfae7e164e6d4817b3a076faa1dae197"}, "vout": 0, "txid": "2c14f3a56ab824af4459779604baf6c0f53ad273ea17cc4b1978692acd6c6f06"}, {"sequence": 4294967295, "scriptSig": {"hex": "483045022100fd627d6abf6beb41d7bc49be731c252e946c3a569245e5a1bbce3a92e2cf259302202701e7bacd3d8909904fbb279c7c6d50ff1aa55725850a72a16be8955e5f974a012102080779d12ebc7a17155de648a38fc864cffded13f971a4f16ea55d51431efc88", "asm": "3045022100fd627d6abf6beb41d7bc49be731c252e946c3a569245e5a1bbce3a92e2cf259302202701e7bacd3d8909904fbb279c7c6d50ff1aa55725850a72a16be8955e5f974a[ALL] 02080779d12ebc7a17155de648a38fc864cffded13f971a4f16ea55d51431efc88"}, "vout": 0, "txid": "61b062e965b1586360cb3aeecc89c7fbf1b54efcc3c4f6932008a45f053f767e"}, {"sequence": 4294967295, "scriptSig": {"hex": "47304402202201d6075dfb30a8e1c0682d9c5831dca087c73b9d6ec8237bf8d037f006b3e4022056735f4cc0073fb1e4d2ba544409657362a4073cdb07ff3a46815a506277b8770121035af72a2cf80e582b8f8ab4d9c4766ec23ba1cdc2d121007c5ae9f7a38f27b0cb", "asm": "304402202201d6075dfb30a8e1c0682d9c5831dca087c73b9d6ec8237bf8d037f006b3e4022056735f4cc0073fb1e4d2ba544409657362a4073cdb07ff3a46815a506277b877[ALL] 035af72a2cf80e582b8f8ab4d9c4766ec23ba1cdc2d121007c5ae9f7a38f27b0cb"}, "vout": 0, "txid": "c497e6c2da46364f64cb30a3f691cd53d852b3beae112066f7ba71dd16223f6d"}], "txid": "361b8585eceef4539ac32a8103816ed37f490e9f6d95b9dddbd5f8304f9f89b2", "blocktime": 1537873891, "version": 1, "confirmations": 11475, "time": 1537873891, "locktime": 0, "vsize": 667, "size": 667}