{"hash": "361c6c5fd382561c201540873e9f5474a44a90fc18f0d5ee98805ae189575337", "blockhash": "0000000000000000000e13cef7c366c0283d82e591d1acd082e914b08063cdf1", "vout": [{"scriptPubKey": {"reqSigs": 1, "hex": "76a914407ddb6f08eea93900a1c330b6b9cb1198affa5288ac", "addresses": ["16t11zCNJKeEq5LvU3x7bw4JEnyRENvDbS"], "asm": "OP_DUP OP_HASH160 407ddb6f08eea93900a1c330b6b9cb1198affa52 OP_EQUALVERIFY OP_CHECKSIG", "type": "pubkeyhash"}, "value": 0.00206458, "n": 0}, {"scriptPubKey": {"reqSigs": 1, "hex": "a914b1cf20dfcaf8afdeeb26025442d60525b0ae8c6a87", "addresses": ["3HuBf2pugBgjWJa4reSS5sqhJLDYq6kc5H"], "asm": "OP_HASH160 b1cf20dfcaf8afdeeb26025442d60525b0ae8c6a OP_EQUAL", "type": "scripthash"}, "value": 0.00367216, "n": 1}], "hex": "01000000022259f7df7e7e3833ed401ea513df3fe91fc8cc8ca911e221a36c283d76cc5985010000006b483045022100c6d222e58a737bdf2acc3142b185d941e483fbc7b47b3fdd198b2c774e45ba7b0220260d85a9fe9686b1f6a1679a812211a4439c135a728e0c9b4d9d4ffe3e82f6b2012102c4e04dde6cbf06505d3f339d7ed7a66d6577ff59151ef472a492978d63903779fffffffffd834e0015f392707741a26b02be41169524f0d9c0a5bff76a52e5e5e2ce5bb6010000006a47304402203f8a2f2b92be675500081ff89e7729e8992b3780f6762624d04858e5972839e002204a3b0b7b7767dc2292407a82729414db6f254d44b35c383bb1071a3fafb6bc4e012102ddfe792c6092863e4ab783bc4cdd05c6bfc05cfa04773dd8ce9b12ed54885f32ffffffff027a260300000000001976a914407ddb6f08eea93900a1c330b6b9cb1198affa5288ac709a05000000000017a914b1cf20dfcaf8afdeeb26025442d60525b0ae8c6a8700000000", "vin": [{"sequence": 4294967295, "scriptSig": {"hex": "483045022100c6d222e58a737bdf2acc3142b185d941e483fbc7b47b3fdd198b2c774e45ba7b0220260d85a9fe9686b1f6a1679a812211a4439c135a728e0c9b4d9d4ffe3e82f6b2012102c4e04dde6cbf06505d3f339d7ed7a66d6577ff59151ef472a492978d63903779", "asm": "3045022100c6d222e58a737bdf2acc3142b185d941e483fbc7b47b3fdd198b2c774e45ba7b0220260d85a9fe9686b1f6a1679a812211a4439c135a728e0c9b4d9d4ffe3e82f6b2[ALL] 02c4e04dde6cbf06505d3f339d7ed7a66d6577ff59151ef472a492978d63903779"}, "vout": 1, "txid": "8559cc763d286ca321e211a98cccc81fe93fdf13a51e40ed33387e7edff75922"}, {"sequence": 4294967295, "scriptSig": {"hex": "47304402203f8a2f2b92be675500081ff89e7729e8992b3780f6762624d04858e5972839e002204a3b0b7b7767dc2292407a82729414db6f254d44b35c383bb1071a3fafb6bc4e012102ddfe792c6092863e4ab783bc4cdd05c6bfc05cfa04773dd8ce9b12ed54885f32", "asm": "304402203f8a2f2b92be675500081ff89e7729e8992b3780f6762624d04858e5972839e002204a3b0b7b7767dc2292407a82729414db6f254d44b35c383bb1071a3fafb6bc4e[ALL] 02ddfe792c6092863e4ab783bc4cdd05c6bfc05cfa04773dd8ce9b12ed54885f32"}, "vout": 1, "txid": "b65bcee2e5e5526af7bfa5c0d9f024951641be026ba241777092f315004e83fd"}], "txid": "361c6c5fd382561c201540873e9f5474a44a90fc18f0d5ee98805ae189575337", "blocktime": 1537871767, "version": 1, "confirmations": 11494, "time": 1537871767, "locktime": 0, "vsize": 371, "size": 371}