{"hash": "f1ac9241997b8063ad39a25f36c4aeec848fc813b291b8ef9dd6ca9c3a0b097e", "blockhash": "0000000000000000000e13cef7c366c0283d82e591d1acd082e914b08063cdf1", "vout": [{"scriptPubKey": {"reqSigs": 1, "hex": "76a91459cc8e800aa622fbe4c8af4881ff7218519a9e8e88ac", "addresses": ["19BpBvDWCz5EpmiokVVBZStxAG3usMJfQf"], "asm": "OP_DUP OP_HASH160 59cc8e800aa622fbe4c8af4881ff7218519a9e8e OP_EQUALVERIFY OP_CHECKSIG", "type": "pubkeyhash"}, "value": 0.00071384, "n": 0}, {"scriptPubKey": {"reqSigs": 1, "hex": "a91474cd529613d117dda31a1236e89936112e7c907187", "addresses": ["3CLcGrsL2sxGBpFrtD87KRwqHum1kmqpZw"], "asm": "OP_HASH160 74cd529613d117dda31a1236e89936112e7c9071 OP_EQUAL", "type": "scripthash"}, "value": 0.00052752, "n": 1}], "hex": "010000000001011a23d72230e0dbbf8cb710ebb939b3aacbcbe59420bcb439bc73505bfd75405d010000002322002048aa73a7b7633e620a1bd23cd12c6b43d6409feaca46d8c41a2ab9be45193571ffffffff02d8160100000000001976a91459cc8e800aa622fbe4c8af4881ff7218519a9e8e88ac10ce00000000000017a91474cd529613d117dda31a1236e89936112e7c90718704004830450221009803861e2ccf41c9257b0a6941fd35cac105e873225f58fc57f3055f18fe990c02204c33fd57d2b4490e513c70051718bd98fd668669b82efe95fe5d0a3a7d838e2401483045022100d6ee8d797269905308be0ec29cca3aee4406b51eabc840b8e8a45066a2ef6373022066851d26a208bdbed08885577ffa09933de5360dedcc89152dc8c014e21079b80147522103d9627eca6b6a406d71acb9691965ad65ba1c0d8322fd66b4be1b8ef0e08b29d62103871fc2ca08e6950b38867e8e6a0e94ee625223d3aa0df5c65f414c6d784467e252ae00000000", "vin": [{"txinwitness": ["", "30450221009803861e2ccf41c9257b0a6941fd35cac105e873225f58fc57f3055f18fe990c02204c33fd57d2b4490e513c70051718bd98fd668669b82efe95fe5d0a3a7d838e2401", "3045022100d6ee8d797269905308be0ec29cca3aee4406b51eabc840b8e8a45066a2ef6373022066851d26a208bdbed08885577ffa09933de5360dedcc89152dc8c014e21079b801", "522103d9627eca6b6a406d71acb9691965ad65ba1c0d8322fd66b4be1b8ef0e08b29d62103871fc2ca08e6950b38867e8e6a0e94ee625223d3aa0df5c65f414c6d784467e252ae"], "sequence": 4294967295, "scriptSig": {"hex": "22002048aa73a7b7633e620a1bd23cd12c6b43d6409feaca46d8c41a2ab9be45193571", "asm": "002048aa73a7b7633e620a1bd23cd12c6b43d6409feaca46d8c41a2ab9be45193571"}, "vout": 1, "txid": "5d4075fd5b5073bc39b4bc2094e5cbcbaab339b9eb10b78cbfdbe03022d7231a"}], "txid": "361c790823e5f718c13bde29ac17ee3b6064ec4a9ad80d754005f148aa577e7b", "blocktime": 1537871767, "version": 1, "confirmations": 11495, "time": 1537871767, "locktime": 0, "vsize": 208, "size": 374}