{"hash": "3623cab0b0111ce771c0e33b7d97eb58b46e1e48c3ba7fea1271e2055368691b", "blockhash": "0000000000000000000e13cef7c366c0283d82e591d1acd082e914b08063cdf1", "vout": [{"scriptPubKey": {"reqSigs": 1, "hex": "76a9140a6b825daa1b89f8e100ed8eec6d79b592500f4988ac", "addresses": ["1x6YnuBVeeE65dQRZztRWgUPwyBjHCA5g"], "asm": "OP_DUP OP_HASH160 0a6b825daa1b89f8e100ed8eec6d79b592500f49 OP_EQUALVERIFY OP_CHECKSIG", "type": "pubkeyhash"}, "value": 0.44691798, "n": 0}, {"scriptPubKey": {"reqSigs": 1, "hex": "76a914d36791745ff4323e12a53975ee694525f4342a5d88ac", "addresses": ["1LGoeX98ZRhi5SNUh1UWgqmkYaYgfv62n9"], "asm": "OP_DUP OP_HASH160 d36791745ff4323e12a53975ee694525f4342a5d OP_EQUALVERIFY OP_CHECKSIG", "type": "pubkeyhash"}, "value": 5.46e-06, "n": 1}, {"scriptPubKey": {"type": "nulldata", "hex": "6a146f6d6e69000000000000001f0000007c0d5ad000", "asm": "OP_RETURN 6f6d6e69000000000000001f0000007c0d5ad000"}, "value": 0.0, "n": 2}], "hex": "01000000018d9bb65dcf30f263c99abc8148c4f18c981e2d2388078db37d1fc9362becd56c010000006a473044022051291c3534c8b10abbd8a58b685bab196d02ba58697e8bc75e00b8d5817f9b8602207dafe6a1d308e734651d4702230ee763e0f26e9865ee2d88e921d43cc3a58948012103fe02b06a6bfd9b5a83e0417430a3235a39a0b4c7973591ca27ac58f6474d9120ffffffff0356f1a902000000001976a9140a6b825daa1b89f8e100ed8eec6d79b592500f4988ac22020000000000001976a914d36791745ff4323e12a53975ee694525f4342a5d88ac0000000000000000166a146f6d6e69000000000000001f0000007c0d5ad00000000000", "vin": [{"sequence": 4294967295, "scriptSig": {"hex": "473044022051291c3534c8b10abbd8a58b685bab196d02ba58697e8bc75e00b8d5817f9b8602207dafe6a1d308e734651d4702230ee763e0f26e9865ee2d88e921d43cc3a58948012103fe02b06a6bfd9b5a83e0417430a3235a39a0b4c7973591ca27ac58f6474d9120", "asm": "3044022051291c3534c8b10abbd8a58b685bab196d02ba58697e8bc75e00b8d5817f9b8602207dafe6a1d308e734651d4702230ee763e0f26e9865ee2d88e921d43cc3a58948[ALL] 03fe02b06a6bfd9b5a83e0417430a3235a39a0b4c7973591ca27ac58f6474d9120"}, "vout": 1, "txid": "6cd5ec2b36c91f7db38d0788232d1e988cf1c44881bc9ac963f230cf5db69b8d"}], "txid": "3623cab0b0111ce771c0e33b7d97eb58b46e1e48c3ba7fea1271e2055368691b", "blocktime": 1537871767, "version": 1, "confirmations": 11490, "time": 1537871767, "locktime": 0, "vsize": 256, "size": 256}