{"hash": "36260088bc982ae832c4b14ef40164d7366bca57423f7b63a9ab1681f7d2085e", "blockhash": "000000000000000000022b45ed06c6f4ccd3cf7fb5ba4856ebd2e58215665228", "vout": [{"scriptPubKey": {"reqSigs": 1, "hex": "76a9143e4b52f7e7c6bb6bd2e7ddec8593dc84ea1e739d88ac", "addresses": ["16gP8WCMNoPgTmsFdG7p6SUvAEBevkD6ky"], "asm": "OP_DUP OP_HASH160 3e4b52f7e7c6bb6bd2e7ddec8593dc84ea1e739d OP_EQUALVERIFY OP_CHECKSIG", "type": "pubkeyhash"}, "value": 0.077861, "n": 0}, {"scriptPubKey": {"reqSigs": 1, "hex": "76a91486855643d350bf06063ed46541de1aba7350ded288ac", "addresses": ["1DGHH7zVEJDrpUZwwafBgwA3E1vf1MHZpQ"], "asm": "OP_DUP OP_HASH160 86855643d350bf06063ed46541de1aba7350ded2 OP_EQUALVERIFY OP_CHECKSIG", "type": "pubkeyhash"}, "value": 0.35564175, "n": 1}], "hex": "010000000153ed48d88d6c1022fc39721335d7b8ebd72e416c74f826b29ff33379b41e8008010000006a47304402201592e6e26f8147926500927be9b4a261259302222279cd753b5ff934ae7e9e780220107b0fb91e54eb51150291adfc3fc1f8cc58469003a68da4a4f9ea4e3aa2fc890121025bdf6f615ebaadb9885135031b80c1b40d8c613a89a8429865984fee9396f6c1ffffffff0274ce7600000000001976a9143e4b52f7e7c6bb6bd2e7ddec8593dc84ea1e739d88ac8faa1e02000000001976a91486855643d350bf06063ed46541de1aba7350ded288ac00000000", "vin": [{"sequence": 4294967295, "scriptSig": {"hex": "47304402201592e6e26f8147926500927be9b4a261259302222279cd753b5ff934ae7e9e780220107b0fb91e54eb51150291adfc3fc1f8cc58469003a68da4a4f9ea4e3aa2fc890121025bdf6f615ebaadb9885135031b80c1b40d8c613a89a8429865984fee9396f6c1", "asm": "304402201592e6e26f8147926500927be9b4a261259302222279cd753b5ff934ae7e9e780220107b0fb91e54eb51150291adfc3fc1f8cc58469003a68da4a4f9ea4e3aa2fc89[ALL] 025bdf6f615ebaadb9885135031b80c1b40d8c613a89a8429865984fee9396f6c1"}, "vout": 1, "txid": "08801eb47933f39fb226f8746c412ed7ebb8d735137239fc22106c8dd848ed53"}], "txid": "36260088bc982ae832c4b14ef40164d7366bca57423f7b63a9ab1681f7d2085e", "blocktime": 1537869901, "version": 1, "confirmations": 11524, "time": 1537869901, "locktime": 0, "vsize": 225, "size": 225}