{"hash": "362a7fee2bd4cc5c5a993bc4b12e2d20f27ce94e19c236e0f2969e29a6b50dcc", "blockhash": "0000000000000000000e13cef7c366c0283d82e591d1acd082e914b08063cdf1", "vout": [{"scriptPubKey": {"reqSigs": 1, "hex": "76a9149c67d2ec3aba5d6592ea839d6fd62904894b883188ac", "addresses": ["1FFznjnrsBYiQGFx2mCDmtq6jQFgJHyjaY"], "asm": "OP_DUP OP_HASH160 9c67d2ec3aba5d6592ea839d6fd62904894b8831 OP_EQUALVERIFY OP_CHECKSIG", "type": "pubkeyhash"}, "value": 0.00283094, "n": 0}, {"scriptPubKey": {"type": "nulldata", "hex": "6a4c50000077a6000180404a80dbc9af1eaeb491f9af6c953dd567cf27e7e3ef3236678a6250977f07dfeca2ad31ae70aa8be3759bed0d5baa0f6006145fadded470d6010418fb0f9739c9c4938899f5e5ac88", "asm": "OP_RETURN 000077a6000180404a80dbc9af1eaeb491f9af6c953dd567cf27e7e3ef3236678a6250977f07dfeca2ad31ae70aa8be3759bed0d5baa0f6006145fadded470d6010418fb0f9739c9c4938899f5e5ac88"}, "value": 0.0, "n": 1}], "hex": "01000000017a626b11cc936e41b3f7609d9327d208243b16f58ff4b2bd671fc9f041c4ff6d000000006a473044022024a107cb2f72e9cc905a11b5d079e8e6efed267d86ae2be40a4a21bba17f5b0902207fff4748293d9833ce0f13c6422247b6ab427f6e273172cbf17799bba706d9aa012102c3ae3c558b0ec6fd4303e3bf9fbfa17e989243219abae52dd7ffaa8d7625a9dbffffffff02d6510400000000001976a9149c67d2ec3aba5d6592ea839d6fd62904894b883188ac0000000000000000536a4c50000077a6000180404a80dbc9af1eaeb491f9af6c953dd567cf27e7e3ef3236678a6250977f07dfeca2ad31ae70aa8be3759bed0d5baa0f6006145fadded470d6010418fb0f9739c9c4938899f5e5ac8800000000", "vin": [{"sequence": 4294967295, "scriptSig": {"hex": "473044022024a107cb2f72e9cc905a11b5d079e8e6efed267d86ae2be40a4a21bba17f5b0902207fff4748293d9833ce0f13c6422247b6ab427f6e273172cbf17799bba706d9aa012102c3ae3c558b0ec6fd4303e3bf9fbfa17e989243219abae52dd7ffaa8d7625a9db", "asm": "3044022024a107cb2f72e9cc905a11b5d079e8e6efed267d86ae2be40a4a21bba17f5b0902207fff4748293d9833ce0f13c6422247b6ab427f6e273172cbf17799bba706d9aa[ALL] 02c3ae3c558b0ec6fd4303e3bf9fbfa17e989243219abae52dd7ffaa8d7625a9db"}, "vout": 0, "txid": "6dffc441f0c91f67bdb2f48ff5163b2408d227939d60f7b3416e93cc116b627a"}], "txid": "362a7fee2bd4cc5c5a993bc4b12e2d20f27ce94e19c236e0f2969e29a6b50dcc", "blocktime": 1537871767, "version": 1, "confirmations": 11490, "time": 1537871767, "locktime": 0, "vsize": 283, "size": 283}