{"hash": "362d8cb8c0088bb88a562159f293c8169fa70315ba4a5cf34c0b5e7d2bed163e", "blockhash": "0000000000000000001cda96e906b7601b7a6fb1a3b62bca570a9e5d8f4b3de1", "vout": [{"scriptPubKey": {"reqSigs": 1, "hex": "a9146d469dd7c20dac0e64e16f2949b94925ad8c21d087", "addresses": ["3BepAyiyKfZztzY9pZyZT44eZfYqM6mD1C"], "asm": "OP_HASH160 6d469dd7c20dac0e64e16f2949b94925ad8c21d0 OP_EQUAL", "type": "scripthash"}, "value": 0.48, "n": 0}, {"scriptPubKey": {"reqSigs": 1, "hex": "76a9141d619f92f3b677c92465a2159bff1910c23343f988ac", "addresses": ["13gMYYyruGhe8WZKL7wBbjuCjZH3h2KQXF"], "asm": "OP_DUP OP_HASH160 1d619f92f3b677c92465a2159bff1910c23343f9 OP_EQUALVERIFY OP_CHECKSIG", "type": "pubkeyhash"}, "value": 3.00105149, "n": 1}], "hex": "0100000001bfbfe4df22a58a0ac22e1ddcf99a3e96def87d85d2d895a500ea94e5e4bdafcb010000006b483045022100a272f26ffc91885604e84ff4a5e100cef88f34e3a7d20530aef39a7b87c6a77802203051c984561f1d66dd3b03a9d29af157a54197542ba31c924ffefe0ae47f9946012102a7694fc94d518b0e8c182315dc9359c6d04405adfd14f486e095c6a724e61b6fffffffff02006cdc020000000017a9146d469dd7c20dac0e64e16f2949b94925ad8c21d087bd3de311000000001976a9141d619f92f3b677c92465a2159bff1910c23343f988ac00000000", "vin": [{"sequence": 4294967295, "scriptSig": {"hex": "483045022100a272f26ffc91885604e84ff4a5e100cef88f34e3a7d20530aef39a7b87c6a77802203051c984561f1d66dd3b03a9d29af157a54197542ba31c924ffefe0ae47f9946012102a7694fc94d518b0e8c182315dc9359c6d04405adfd14f486e095c6a724e61b6f", "asm": "3045022100a272f26ffc91885604e84ff4a5e100cef88f34e3a7d20530aef39a7b87c6a77802203051c984561f1d66dd3b03a9d29af157a54197542ba31c924ffefe0ae47f9946[ALL] 02a7694fc94d518b0e8c182315dc9359c6d04405adfd14f486e095c6a724e61b6f"}, "vout": 1, "txid": "cbafbde4e594ea00a595d8d2857df8de963e9af9dc1d2ec20a8aa522dfe4bfbf"}], "txid": "362d8cb8c0088bb88a562159f293c8169fa70315ba4a5cf34c0b5e7d2bed163e", "blocktime": 1537873282, "version": 1, "confirmations": 11485, "time": 1537873282, "locktime": 0, "vsize": 224, "size": 224}