{"hash": "362f1aeb30736461e6872bcfe202fb9ae01367af94180d15e4c2a91fb64f8008", "blockhash": "0000000000000000000e13cef7c366c0283d82e591d1acd082e914b08063cdf1", "vout": [{"scriptPubKey": {"reqSigs": 1, "hex": "76a91457760a37a26af323148cb1f5a1e3433eecf8a37a88ac", "addresses": ["18yTCFGo6Km3646WPGrudUdKBd2wZuwNMi"], "asm": "OP_DUP OP_HASH160 57760a37a26af323148cb1f5a1e3433eecf8a37a OP_EQUALVERIFY OP_CHECKSIG", "type": "pubkeyhash"}, "value": 0.00289944, "n": 0}, {"scriptPubKey": {"reqSigs": 1, "hex": "76a91471272dde6fcbbd12b68da257e2d31cf56b12397a88ac", "addresses": ["1BKJHtqHrE6vSWvzGgEiJTnqMt16rj722v"], "asm": "OP_DUP OP_HASH160 71272dde6fcbbd12b68da257e2d31cf56b12397a OP_EQUALVERIFY OP_CHECKSIG", "type": "pubkeyhash"}, "value": 0.06899485, "n": 1}], "hex": "0100000001fb99f151137c2d07939108288273a4c96197b01355aa05878c0113116c2f27a9010000006a47304402201446c450d98eb5c1138b8ce133c149127475d0bec9e471dc39951696084c198c02204ba7869dc61bfd02a64f6d3ae4900dc6241bfdefb5affbcf609827697d72ea4401210364ddb6fbe546f5a2d46b0aa33f7cb2d412020b4308ad3333e2867c9ceefa1c6affffffff02986c0400000000001976a91457760a37a26af323148cb1f5a1e3433eecf8a37a88ac1d476900000000001976a91471272dde6fcbbd12b68da257e2d31cf56b12397a88ac00000000", "vin": [{"sequence": 4294967295, "scriptSig": {"hex": "47304402201446c450d98eb5c1138b8ce133c149127475d0bec9e471dc39951696084c198c02204ba7869dc61bfd02a64f6d3ae4900dc6241bfdefb5affbcf609827697d72ea4401210364ddb6fbe546f5a2d46b0aa33f7cb2d412020b4308ad3333e2867c9ceefa1c6a", "asm": "304402201446c450d98eb5c1138b8ce133c149127475d0bec9e471dc39951696084c198c02204ba7869dc61bfd02a64f6d3ae4900dc6241bfdefb5affbcf609827697d72ea44[ALL] 0364ddb6fbe546f5a2d46b0aa33f7cb2d412020b4308ad3333e2867c9ceefa1c6a"}, "vout": 1, "txid": "a9272f6c1113018c8705aa5513b09761c9a4738228089193072d7c1351f199fb"}], "txid": "362f1aeb30736461e6872bcfe202fb9ae01367af94180d15e4c2a91fb64f8008", "blocktime": 1537871767, "version": 1, "confirmations": 11493, "time": 1537871767, "locktime": 0, "vsize": 225, "size": 225}