{"hash": "3635987704f92efdb2473852adf81a93bd6a237105dce1a86932912440bacad2", "blockhash": "0000000000000000000baef3f32e3676a92c3b2e5da21b426e4f302fc371ce76", "vout": [{"scriptPubKey": {"reqSigs": 1, "hex": "76a9146434e27fafeaa9455291b00282dd78e054b54fb788ac", "addresses": ["1A8qvgUgrSwAJhTNoM9xR3LSrbWXc5Gj9A"], "asm": "OP_DUP OP_HASH160 6434e27fafeaa9455291b00282dd78e054b54fb7 OP_EQUALVERIFY OP_CHECKSIG", "type": "pubkeyhash"}, "value": 0.00305984, "n": 0}, {"scriptPubKey": {"reqSigs": 1, "hex": "76a914b6363358942088db54e4f7a444e885431980515e88ac", "addresses": ["1HcSuqRDfrDQeWddSMBvGckKFpqfGrBdRJ"], "asm": "OP_DUP OP_HASH160 b6363358942088db54e4f7a444e885431980515e OP_EQUALVERIFY OP_CHECKSIG", "type": "pubkeyhash"}, "value": 0.01232012, "n": 1}], "hex": "01000000019c5f4219324f734d93738a9a0d659280499da7c8d5e6dedf8cb4dff1e688454a010000006b483045022100b0c850cb123e6f6ac3800084b90dfea5c49aad4ba6e6d59dd5e7e36777a15d8e022040fe1646009240f21f878837e1d17fb97021d14d183bd01c3ff5e8de951d09ec012102c8e4652ef2a570d16d8ede3f86c7e9e2104159e9f917f5dabd0e3d53c0432a0effffffff0240ab0400000000001976a9146434e27fafeaa9455291b00282dd78e054b54fb788ac8ccc1200000000001976a914b6363358942088db54e4f7a444e885431980515e88ac00000000", "vin": [{"sequence": 4294967295, "scriptSig": {"hex": "483045022100b0c850cb123e6f6ac3800084b90dfea5c49aad4ba6e6d59dd5e7e36777a15d8e022040fe1646009240f21f878837e1d17fb97021d14d183bd01c3ff5e8de951d09ec012102c8e4652ef2a570d16d8ede3f86c7e9e2104159e9f917f5dabd0e3d53c0432a0e", "asm": "3045022100b0c850cb123e6f6ac3800084b90dfea5c49aad4ba6e6d59dd5e7e36777a15d8e022040fe1646009240f21f878837e1d17fb97021d14d183bd01c3ff5e8de951d09ec[ALL] 02c8e4652ef2a570d16d8ede3f86c7e9e2104159e9f917f5dabd0e3d53c0432a0e"}, "vout": 1, "txid": "4a4588e6f1dfb48cdfdee6d5c8a79d498092650d9a8a73934d734f3219425f9c"}], "txid": "3635987704f92efdb2473852adf81a93bd6a237105dce1a86932912440bacad2", "blocktime": 1537876114, "version": 1, "confirmations": 11460, "time": 1537876114, "locktime": 0, "vsize": 226, "size": 226}