{"hash": "3637f48a687c892990a315b77b590a815ea584c7d30dd5e827495ab83865fcd5", "blockhash": "00000000000000000017f5eb5941039fbcee6240d03bc1f2f8e35350df66a1d8", "vout": [{"scriptPubKey": {"reqSigs": 1, "hex": "76a914ea54be2ed23607c10f6826b625cdfa1a7131e91588ac", "addresses": ["1NN2dvr2uCy1UiPtpWDFyDAXKRd4cJbeii"], "asm": "OP_DUP OP_HASH160 ea54be2ed23607c10f6826b625cdfa1a7131e915 OP_EQUALVERIFY OP_CHECKSIG", "type": "pubkeyhash"}, "value": 0.045, "n": 0}, {"scriptPubKey": {"reqSigs": 1, "hex": "76a914dff4461d01eb28119ef1ba680be0dd0c81efa4e088ac", "addresses": ["1MRAKE3dqLaLH4xogqe8yX1PUpEg9eaWSe"], "asm": "OP_DUP OP_HASH160 dff4461d01eb28119ef1ba680be0dd0c81efa4e0 OP_EQUALVERIFY OP_CHECKSIG", "type": "pubkeyhash"}, "value": 0.00411678, "n": 1}], "hex": "01000000027a509be67c07b2854beace684b2e9d7903d01a193136665ecdc5689e4353a617010000006b4830450221009369af30f6dab73e65069963a1a165e2c0074ab701883acbf95e3d06e7fd5415022011d6d047940c8ecf9ddb3b1a76f1369f96a6917ed96ef3a95c822b405ea4b073012103749cac939d91d45ff6f02857562422d52d98d2eb6aef6ddc21171096fcdf82b6ffffffff0a12a8f42bfa5a48ed970c4962c517867c1c19630d8739ccfb27fbb2afd9d8c1010000006a47304402200e48b8c8c5190e00d4992b6f96681505732a2e113e256cbe3720ffe2b405e58102205e9e08d135720a1e846f3daf781779042f98dc6e7ab2dd99f2d87187087ca7d9012103ff5e750d73342cd01331ff49b5e25fc25c81ef14f4355c78ef121c278100abe6ffffffff0220aa4400000000001976a914ea54be2ed23607c10f6826b625cdfa1a7131e91588ac1e480600000000001976a914dff4461d01eb28119ef1ba680be0dd0c81efa4e088ac00000000", "vin": [{"sequence": 4294967295, "scriptSig": {"hex": "4830450221009369af30f6dab73e65069963a1a165e2c0074ab701883acbf95e3d06e7fd5415022011d6d047940c8ecf9ddb3b1a76f1369f96a6917ed96ef3a95c822b405ea4b073012103749cac939d91d45ff6f02857562422d52d98d2eb6aef6ddc21171096fcdf82b6", "asm": "30450221009369af30f6dab73e65069963a1a165e2c0074ab701883acbf95e3d06e7fd5415022011d6d047940c8ecf9ddb3b1a76f1369f96a6917ed96ef3a95c822b405ea4b073[ALL] 03749cac939d91d45ff6f02857562422d52d98d2eb6aef6ddc21171096fcdf82b6"}, "vout": 1, "txid": "17a653439e68c5cd5e663631191ad003799d2e4b68ceea4b85b2077ce69b507a"}, {"sequence": 4294967295, "scriptSig": {"hex": "47304402200e48b8c8c5190e00d4992b6f96681505732a2e113e256cbe3720ffe2b405e58102205e9e08d135720a1e846f3daf781779042f98dc6e7ab2dd99f2d87187087ca7d9012103ff5e750d73342cd01331ff49b5e25fc25c81ef14f4355c78ef121c278100abe6", "asm": "304402200e48b8c8c5190e00d4992b6f96681505732a2e113e256cbe3720ffe2b405e58102205e9e08d135720a1e846f3daf781779042f98dc6e7ab2dd99f2d87187087ca7d9[ALL] 03ff5e750d73342cd01331ff49b5e25fc25c81ef14f4355c78ef121c278100abe6"}, "vout": 1, "txid": "c1d8d9afb2fb27fbcc39870d63191c7c8617c562490c97ed485afa2bf4a8120a"}], "txid": "3637f48a687c892990a315b77b590a815ea584c7d30dd5e827495ab83865fcd5", "blocktime": 1537874412, "version": 1, "confirmations": 11467, "time": 1537874412, "locktime": 0, "vsize": 373, "size": 373}