{"hash": "227f32c950e585d48e4f8b3288ff472e5356dab0f432c8d2e9a774611fa45339", "blockhash": "0000000000000000001cda96e906b7601b7a6fb1a3b62bca570a9e5d8f4b3de1", "vout": [{"scriptPubKey": {"reqSigs": 1, "hex": "76a9147436a7a4fbb105eacf393ac45c3773db4cd2b7fb88ac", "addresses": ["1BbUrjqrCNoj85nngFxAqQUUHZAoCMi88Y"], "asm": "OP_DUP OP_HASH160 7436a7a4fbb105eacf393ac45c3773db4cd2b7fb OP_EQUALVERIFY OP_CHECKSIG", "type": "pubkeyhash"}, "value": 1.0, "n": 0}, {"scriptPubKey": {"reqSigs": 1, "hex": "a9147f93b585a0a0fe45ae06ee88ef18377b90b169f987", "addresses": ["3DKagusNB7hSjy5AoQf2GHFrmTJWstAs97"], "asm": "OP_HASH160 7f93b585a0a0fe45ae06ee88ef18377b90b169f9 OP_EQUAL", "type": "scripthash"}, "value": 0.10429768, "n": 1}, {"scriptPubKey": {"reqSigs": 1, "hex": "76a914cebb2851a9c7cfe2582c12ecaf7f3ff4383d1dc088ac", "addresses": ["1Kr6QSydW9bFQG1mXiPNNu6WpJGmUa9i1g"], "asm": "OP_DUP OP_HASH160 cebb2851a9c7cfe2582c12ecaf7f3ff4383d1dc0 OP_EQUALVERIFY OP_CHECKSIG", "type": "pubkeyhash"}, "value": 202.47477858, "n": 2}], "hex": "02000000000108470730eb1d1560c07113a2b35e6a99f4c27c1d08b6606800ea3357b1b376bd97070000006a47304402202a32ebedb4855f25153607001cb9402c2f35f29f8caad81d1e79512c428c6b13022067115236ab2cf204c3be23fc6e0a8bf12151b23659a26272ff379b4968dd2777012102b9085e85b6368d6d8de7cc6acdf001e5ac97a328e1040bdd73656e2ce704a569ffffffff167af3d110bb4b029cdc82e8a77e564ccfe814c7cd734628783431577422f01501000000171600141877adf293f23438d5e4e33ff6bbe58069620d86ffffffff72a2dc1aae5aba23ab7bb042e79ef385668a52f9533065dee4d8c4da70e8a3c63f00000017160014403df42959e6b789765a6f3009909b9fc04af1bfffffffff26e81ef684fd44a98ad9f399a2b79b27cdfd6ade836bf5f1bed5bb7516b0b4e4000000006a47304402202e9f5ff0c6059558dde0aa377e4883bc8ca05fcbeab9e377dbcdbe9d7502895d022067426c4271f8f6c21b6e3e053b56c3486058e467193801df2b27bc582a9603380121034f340978376f0122bcb5fd85307c27ab7c79435a92bc1243aab85f0c459323f1ffffffff60c9fb865ad13e4ac12209e9b8ebaafe6ed6cac0a18966c836dabbc8777d3217000000006a47304402201b166969279e9a6f7765d72f9ca061538d5be0fca3b88b453df2f4b71629b3f10220519a14ba1c74e6eb95b75e6b5d2a6b85a7d6f0f4d00209de56364d7e725b29c4012102c7f0380b096289fc8d2d97a323548d99b93cd907bc73bc03c4cb89ae70ed7b63ffffffff7efdbad421b9d9c0dab8c5cb2fd977b3c9074b2e9664f2f3c59b94a7028d615d000000006a4730440220747485649c91a5c85a672ebcecf0310443eded1bc9bfb7ca9ff01e9e2592958702204c1d08cc546dffc75a54f45216178d4e402ecebf8578597691ede26323da68130121031e6fa727caf6e6f5de9752df5736eb04a35eb0d26b1fe48711500aa8286c014effffffffaaf1467dbe80845e92d07ea44b445b5c47472e5bc3b08563150a1355bf345c31000000006b48304502210084bd43a1ac487fc7a4d6922d990b469f5c165010604d2f0ecfc3a33495ce3b0f02202c6095760aa47eaf8d8d648db83a2ba3fba59757d675098299fbae30ba51d7ba0121020d0b28bc04290482dac7ea37a8df52f78a5253e64290f6a786f9201b2b3b2c44ffffffff111c823a0f20ae7a4c728bd940c98a1a6a5b00b48e226e1a3d024c62eb7b7319020000006a47304402200278e31f83d4d588a24c0bb5b6d5091388b50202b4aa161381612c7118394488022018b31bf95dbc82efc4ce827fe2ab570e12c1a424868b5a8bc63fdf4e7820bd02012103786af4b32017ec640dba2d2a7e1fd5aa4a231a658e4cbc114d51c031576e19bcffffffff0300e1f505000000001976a9147436a7a4fbb105eacf393ac45c3773db4cd2b7fb88ac48259f000000000017a9147f93b585a0a0fe45ae06ee88ef18377b90b169f98762fed7b6040000001976a914cebb2851a9c7cfe2582c12ecaf7f3ff4383d1dc088ac0002483045022100adcea7b71dfc8caa5983db120ecb8ee59cfb870ff513faa3d3c638a94e33476d022018193e59eee7d55deabe13632dc2cb9863c585d7fd868fdf7455cee200e77acd012102d04dc1faabf6b6370f728582c116f69e0ac0796c1f20dadccb91c1821e6c774002483045022100ecf836a540ecad92ee0f360e06298949bd0a060c70ccd87245079589ff9e8459022025527608bcf723ccc169ff84a794d1637fb55c9220e9c72aea05a7e63e2b034701210261934f18f2c5549f225a5e8e1dcddbb9c24bddb25d981eeeb841ab860b5a4ce7000000000000000000", "vin": [{"sequence": 4294967295, "scriptSig": {"hex": "47304402202a32ebedb4855f25153607001cb9402c2f35f29f8caad81d1e79512c428c6b13022067115236ab2cf204c3be23fc6e0a8bf12151b23659a26272ff379b4968dd2777012102b9085e85b6368d6d8de7cc6acdf001e5ac97a328e1040bdd73656e2ce704a569", "asm": "304402202a32ebedb4855f25153607001cb9402c2f35f29f8caad81d1e79512c428c6b13022067115236ab2cf204c3be23fc6e0a8bf12151b23659a26272ff379b4968dd2777[ALL] 02b9085e85b6368d6d8de7cc6acdf001e5ac97a328e1040bdd73656e2ce704a569"}, "vout": 7, "txid": "97bd76b3b15733ea006860b6081d7cc2f4996a5eb3a21371c060151deb300747"}, {"txinwitness": ["3045022100adcea7b71dfc8caa5983db120ecb8ee59cfb870ff513faa3d3c638a94e33476d022018193e59eee7d55deabe13632dc2cb9863c585d7fd868fdf7455cee200e77acd01", "02d04dc1faabf6b6370f728582c116f69e0ac0796c1f20dadccb91c1821e6c7740"], "sequence": 4294967295, "scriptSig": {"hex": "1600141877adf293f23438d5e4e33ff6bbe58069620d86", "asm": "00141877adf293f23438d5e4e33ff6bbe58069620d86"}, "vout": 1, "txid": "15f0227457313478284673cdc714e8cf4c567ea7e882dc9c024bbb10d1f37a16"}, {"txinwitness": ["3045022100ecf836a540ecad92ee0f360e06298949bd0a060c70ccd87245079589ff9e8459022025527608bcf723ccc169ff84a794d1637fb55c9220e9c72aea05a7e63e2b034701", "0261934f18f2c5549f225a5e8e1dcddbb9c24bddb25d981eeeb841ab860b5a4ce7"], "sequence": 4294967295, "scriptSig": {"hex": "160014403df42959e6b789765a6f3009909b9fc04af1bf", "asm": "0014403df42959e6b789765a6f3009909b9fc04af1bf"}, "vout": 63, "txid": "c6a3e870dac4d8e4de653053f9528a6685f39ee742b07bab23ba5aae1adca272"}, {"sequence": 4294967295, "scriptSig": {"hex": "47304402202e9f5ff0c6059558dde0aa377e4883bc8ca05fcbeab9e377dbcdbe9d7502895d022067426c4271f8f6c21b6e3e053b56c3486058e467193801df2b27bc582a9603380121034f340978376f0122bcb5fd85307c27ab7c79435a92bc1243aab85f0c459323f1", "asm": "304402202e9f5ff0c6059558dde0aa377e4883bc8ca05fcbeab9e377dbcdbe9d7502895d022067426c4271f8f6c21b6e3e053b56c3486058e467193801df2b27bc582a960338[ALL] 034f340978376f0122bcb5fd85307c27ab7c79435a92bc1243aab85f0c459323f1"}, "vout": 0, "txid": "e4b4b01675bbd5bef1f56b83de6afdcd279bb7a299f3d98aa944fd84f61ee826"}, {"sequence": 4294967295, "scriptSig": {"hex": "47304402201b166969279e9a6f7765d72f9ca061538d5be0fca3b88b453df2f4b71629b3f10220519a14ba1c74e6eb95b75e6b5d2a6b85a7d6f0f4d00209de56364d7e725b29c4012102c7f0380b096289fc8d2d97a323548d99b93cd907bc73bc03c4cb89ae70ed7b63", "asm": "304402201b166969279e9a6f7765d72f9ca061538d5be0fca3b88b453df2f4b71629b3f10220519a14ba1c74e6eb95b75e6b5d2a6b85a7d6f0f4d00209de56364d7e725b29c4[ALL] 02c7f0380b096289fc8d2d97a323548d99b93cd907bc73bc03c4cb89ae70ed7b63"}, "vout": 0, "txid": "17327d77c8bbda36c86689a1c0cad66efeaaebb8e90922c14a3ed15a86fbc960"}, {"sequence": 4294967295, "scriptSig": {"hex": "4730440220747485649c91a5c85a672ebcecf0310443eded1bc9bfb7ca9ff01e9e2592958702204c1d08cc546dffc75a54f45216178d4e402ecebf8578597691ede26323da68130121031e6fa727caf6e6f5de9752df5736eb04a35eb0d26b1fe48711500aa8286c014e", "asm": "30440220747485649c91a5c85a672ebcecf0310443eded1bc9bfb7ca9ff01e9e2592958702204c1d08cc546dffc75a54f45216178d4e402ecebf8578597691ede26323da6813[ALL] 031e6fa727caf6e6f5de9752df5736eb04a35eb0d26b1fe48711500aa8286c014e"}, "vout": 0, "txid": "5d618d02a7949bc5f3f264962e4b07c9b377d92fcbc5b8dac0d9b921d4bafd7e"}, {"sequence": 4294967295, "scriptSig": {"hex": "48304502210084bd43a1ac487fc7a4d6922d990b469f5c165010604d2f0ecfc3a33495ce3b0f02202c6095760aa47eaf8d8d648db83a2ba3fba59757d675098299fbae30ba51d7ba0121020d0b28bc04290482dac7ea37a8df52f78a5253e64290f6a786f9201b2b3b2c44", "asm": "304502210084bd43a1ac487fc7a4d6922d990b469f5c165010604d2f0ecfc3a33495ce3b0f02202c6095760aa47eaf8d8d648db83a2ba3fba59757d675098299fbae30ba51d7ba[ALL] 020d0b28bc04290482dac7ea37a8df52f78a5253e64290f6a786f9201b2b3b2c44"}, "vout": 0, "txid": "315c34bf55130a156385b0c35b2e47475c5b444ba47ed0925e8480be7d46f1aa"}, {"sequence": 4294967295, "scriptSig": {"hex": "47304402200278e31f83d4d588a24c0bb5b6d5091388b50202b4aa161381612c7118394488022018b31bf95dbc82efc4ce827fe2ab570e12c1a424868b5a8bc63fdf4e7820bd02012103786af4b32017ec640dba2d2a7e1fd5aa4a231a658e4cbc114d51c031576e19bc", "asm": "304402200278e31f83d4d588a24c0bb5b6d5091388b50202b4aa161381612c7118394488022018b31bf95dbc82efc4ce827fe2ab570e12c1a424868b5a8bc63fdf4e7820bd02[ALL] 03786af4b32017ec640dba2d2a7e1fd5aa4a231a658e4cbc114d51c031576e19bc"}, "vout": 2, "txid": "19737beb624c023d1a6e228eb4005b6a1a8ac940d98b724c7aae200f3a821c11"}], "txid": "3637fea090367c59e3e82650efbd15bed0ef79a2d56767f106c742afb33ffc66", "blocktime": 1537873282, "version": 2, "confirmations": 11481, "time": 1537873282, "locktime": 0, "vsize": 1177, "size": 1345}