{"hash": "22cacfc5afa6b6533db640a3ca3e10969315c344a7bc2a98052c176a5ca341da", "blockhash": "0000000000000000000e13cef7c366c0283d82e591d1acd082e914b08063cdf1", "vout": [{"scriptPubKey": {"reqSigs": 1, "hex": "0014a63e9638f56c1771472d4757d3c8e0b3585c5340", "addresses": ["bc1q5clfvw84dsthz3edgata8j8qkdv9c56qnrqw3k"], "asm": "0 a63e9638f56c1771472d4757d3c8e0b3585c5340", "type": "witness_v0_keyhash"}, "value": 0.57360122, "n": 0}, {"scriptPubKey": {"reqSigs": 1, "hex": "a91437edd102b62fad1925ffcb220755a2c5c7532e6987", "addresses": ["36njysTvbrnRsaJUDCzQFu5dZ4c1ySspyF"], "asm": "OP_HASH160 37edd102b62fad1925ffcb220755a2c5c7532e69 OP_EQUAL", "type": "scripthash"}, "value": 0.0078, "n": 1}], "hex": "010000000001015380f1be113625c1acdf22b8dc66150c4cb69a7b5daaa17070dc86a39a4fd8f80100000000ffffffff02fa3e6b0300000000160014a63e9638f56c1771472d4757d3c8e0b3585c5340e0e60b000000000017a91437edd102b62fad1925ffcb220755a2c5c7532e698702483045022100dccb45136fae21a1e1cca7fe25552d07007bf1bc575692eac3929df02914c2a90220510a129c137ce30ba5c1d28889b5a2eba051c6211d74c18d8dd7ffd383498ff9012102eed2266939e84314c78342512db8b9f3e2a7a826da5290dc855c88171bb8502e00000000", "vin": [{"txinwitness": ["3045022100dccb45136fae21a1e1cca7fe25552d07007bf1bc575692eac3929df02914c2a90220510a129c137ce30ba5c1d28889b5a2eba051c6211d74c18d8dd7ffd383498ff901", "02eed2266939e84314c78342512db8b9f3e2a7a826da5290dc855c88171bb8502e"], "sequence": 4294967295, "scriptSig": {"hex": "", "asm": ""}, "vout": 1, "txid": "f8d84f9aa386dc7070a1aa5d7b9ab64c0c1566dcb822dfacc1253611bef18053"}], "txid": "3638b8510b3f7d7e4f7b236207b878058f78b34ed20e48e8690e8e11c2d8afcd", "blocktime": 1537871767, "version": 1, "confirmations": 11495, "time": 1537871767, "locktime": 0, "vsize": 142, "size": 224}