{"hash": "363a663c0ecf464522f34d1251106814eeb702da6191580e6b10c8ac14db7f91", "blockhash": "0000000000000000000dcc0f55137456b1a82d3642486a52398922ac4d620174", "vout": [{"scriptPubKey": {"reqSigs": 1, "hex": "76a914d243e6abb9a60fbff430b421d2df4b7d59ec186088ac", "addresses": ["1LAnF8h3qMGx3TSwNUHVneBZUEpwE4gu3D"], "asm": "OP_DUP OP_HASH160 d243e6abb9a60fbff430b421d2df4b7d59ec1860 OP_EQUALVERIFY OP_CHECKSIG", "type": "pubkeyhash"}, "value": 0.00077314, "n": 0}, {"scriptPubKey": {"reqSigs": 1, "hex": "76a9147e998f69fb2a7e9ca2567df8f839689e07ee412e88ac", "addresses": ["1CYQ6ipuCTcbLyJTU7TGthbh35Tf1nvAFE"], "asm": "OP_DUP OP_HASH160 7e998f69fb2a7e9ca2567df8f839689e07ee412e OP_EQUALVERIFY OP_CHECKSIG", "type": "pubkeyhash"}, "value": 5.46e-06, "n": 1}, {"scriptPubKey": {"type": "nulldata", "hex": "6a146f6d6e69000000000000001f00000068f208c5e0", "asm": "OP_RETURN 6f6d6e69000000000000001f00000068f208c5e0"}, "value": 0.0, "n": 2}], "hex": "0100000001bcded1d50fe75649054df039c180aef92150b3746f09a1399e393041d89b2378000000006b483045022100e2f05c744fdef8164feea5fa107544faea3179d4451bbc6058cd482571c2858202207cb6fa7e32a44d2f1f80d15270c904bdecce31e99c95ddf73f3c392a809b800d01210271977291b74f1f5f5c42157e8aae804664eaaeccfd097918450d37f28fb94d77ffffffff03022e0100000000001976a914d243e6abb9a60fbff430b421d2df4b7d59ec186088ac22020000000000001976a9147e998f69fb2a7e9ca2567df8f839689e07ee412e88ac0000000000000000166a146f6d6e69000000000000001f00000068f208c5e000000000", "vin": [{"sequence": 4294967295, "scriptSig": {"hex": "483045022100e2f05c744fdef8164feea5fa107544faea3179d4451bbc6058cd482571c2858202207cb6fa7e32a44d2f1f80d15270c904bdecce31e99c95ddf73f3c392a809b800d01210271977291b74f1f5f5c42157e8aae804664eaaeccfd097918450d37f28fb94d77", "asm": "3045022100e2f05c744fdef8164feea5fa107544faea3179d4451bbc6058cd482571c2858202207cb6fa7e32a44d2f1f80d15270c904bdecce31e99c95ddf73f3c392a809b800d[ALL] 0271977291b74f1f5f5c42157e8aae804664eaaeccfd097918450d37f28fb94d77"}, "vout": 0, "txid": "78239bd84130399e39a1096f74b35021f9ae80c139f04d054956e70fd5d1debc"}], "txid": "363a663c0ecf464522f34d1251106814eeb702da6191580e6b10c8ac14db7f91", "blocktime": 1537870268, "version": 1, "confirmations": 11516, "time": 1537870268, "locktime": 0, "vsize": 257, "size": 257}