{"hash": "363a5e1a37d46e4408e41ea28290290096042b4238a0821f76e595d44b49537b", "blockhash": "0000000000000000001f76057863aec43deb6fa401d9628bb513d65a8098bfab", "vout": [{"scriptPubKey": {"reqSigs": 1, "hex": "76a9142fc84a5012e72d6939b0ca8fb7870982f242e86388ac", "addresses": ["15MehRt1Ucd9Hxbrt9Zb1HZJ6XXYETiikJ"], "asm": "OP_DUP OP_HASH160 2fc84a5012e72d6939b0ca8fb7870982f242e863 OP_EQUALVERIFY OP_CHECKSIG", "type": "pubkeyhash"}, "value": 0.00225, "n": 0}, {"scriptPubKey": {"reqSigs": 1, "hex": "76a914107238030fd82d1372e44ebe845539dd9f87f3b988ac", "addresses": ["12Vxe8Zhpkg2j6wd41Gpdvtito5NNBvoiZ"], "asm": "OP_DUP OP_HASH160 107238030fd82d1372e44ebe845539dd9f87f3b9 OP_EQUALVERIFY OP_CHECKSIG", "type": "pubkeyhash"}, "value": 0.0279731, "n": 1}], "hex": "01000000013379e63477a9381af095f35396af0bc12d65374193cef8106589e5672ba00d07010000006a47304402206aa62b17c77dfdf87e107136536cb30bba9808714931e8cb40fa05ed2e9f4f8702203a7cc948fcbecfadfde3b9fbe1e2239507e9cadc05f07733464f42d8867d613501210247e8863493eaa7fe43b6184a9160a2c3d7eb774eb9fe6eaee4bb68aa50a7f731ffffffff02e86e0300000000001976a9142fc84a5012e72d6939b0ca8fb7870982f242e86388acfeae2a00000000001976a914107238030fd82d1372e44ebe845539dd9f87f3b988ac00000000", "vin": [{"sequence": 4294967295, "scriptSig": {"hex": "47304402206aa62b17c77dfdf87e107136536cb30bba9808714931e8cb40fa05ed2e9f4f8702203a7cc948fcbecfadfde3b9fbe1e2239507e9cadc05f07733464f42d8867d613501210247e8863493eaa7fe43b6184a9160a2c3d7eb774eb9fe6eaee4bb68aa50a7f731", "asm": "304402206aa62b17c77dfdf87e107136536cb30bba9808714931e8cb40fa05ed2e9f4f8702203a7cc948fcbecfadfde3b9fbe1e2239507e9cadc05f07733464f42d8867d6135[ALL] 0247e8863493eaa7fe43b6184a9160a2c3d7eb774eb9fe6eaee4bb68aa50a7f731"}, "vout": 1, "txid": "070da02b67e5896510f8ce934137652dc10baf9653f395f01a38a97734e67933"}], "txid": "363a5e1a37d46e4408e41ea28290290096042b4238a0821f76e595d44b49537b", "blocktime": 1537873891, "version": 1, "confirmations": 11475, "time": 1537873891, "locktime": 0, "vsize": 225, "size": 225}