{"hash": "ee08c390e0ed11eb65fd6ad57ca20a76e2308b1c149fcd766fedad0aca26dee4", "blockhash": "000000000000000000022b45ed06c6f4ccd3cf7fb5ba4856ebd2e58215665228", "vout": [{"scriptPubKey": {"reqSigs": 1, "hex": "a91427e9077a13f4c66e4d10f7d3c63031eadeadc59687", "addresses": ["35L3SBHv3kATHJcd2wUjJ7D6mUFXYxC1Sp"], "asm": "OP_HASH160 27e9077a13f4c66e4d10f7d3c63031eadeadc596 OP_EQUAL", "type": "scripthash"}, "value": 0.01005344, "n": 0}, {"scriptPubKey": {"reqSigs": 1, "hex": "76a91487f782823d440720e003c1beab93a080dc8a3e1c88ac", "addresses": ["1DPvjBQnfxWSb9MdG5xGcLS1HZneZjmcnv"], "asm": "OP_DUP OP_HASH160 87f782823d440720e003c1beab93a080dc8a3e1c OP_EQUALVERIFY OP_CHECKSIG", "type": "pubkeyhash"}, "value": 0.0032716, "n": 1}], "hex": "020000000001021b7f8b801fb1bf162a140219443cf9f7439c47f0116f8e3717e139e6a1dffabf000000001716001427cd4f60e9adcf123193bdee6640b3d0cf53fbabfeffffffb5604cd9c2821b269ec9c09548c6cba352b00088b2423918040f285030e4adcb060000001716001495903ec3a101a2dedc7df760bb3e9188b0a6fd4efeffffff0220570f000000000017a91427e9077a13f4c66e4d10f7d3c63031eadeadc59687f8fd0400000000001976a91487f782823d440720e003c1beab93a080dc8a3e1c88ac024730440220291515451f3012202edb4bd426457715350ab4c97bc70603a8938171310febd50220609587936d8e3b9c1281b372fd92090318b305cf2736df8db9265cae489cf618012102114632286ba77bd4dacf39442c101afaec72f21932891256917934237b3d7d270247304402200fa918858258ae941752e445af5d7d041cf9e886fec8ad74d44533fceaa6b58002206e5f9c616a8fe17036bdcf8a3ae416b7ab739c08b96a4ae6fc11c3e925dccfc701210348e1ca456ce8f7319e58e3628794a0850988ece60467af5a6ae1be411b4f74830b490800", "vin": [{"txinwitness": ["30440220291515451f3012202edb4bd426457715350ab4c97bc70603a8938171310febd50220609587936d8e3b9c1281b372fd92090318b305cf2736df8db9265cae489cf61801", "02114632286ba77bd4dacf39442c101afaec72f21932891256917934237b3d7d27"], "sequence": 4294967294, "scriptSig": {"hex": "16001427cd4f60e9adcf123193bdee6640b3d0cf53fbab", "asm": "001427cd4f60e9adcf123193bdee6640b3d0cf53fbab"}, "vout": 0, "txid": "bffadfa1e639e117378e6f11f0479c43f7f93c441902142a16bfb11f808b7f1b"}, {"txinwitness": ["304402200fa918858258ae941752e445af5d7d041cf9e886fec8ad74d44533fceaa6b58002206e5f9c616a8fe17036bdcf8a3ae416b7ab739c08b96a4ae6fc11c3e925dccfc701", "0348e1ca456ce8f7319e58e3628794a0850988ece60467af5a6ae1be411b4f7483"], "sequence": 4294967294, "scriptSig": {"hex": "16001495903ec3a101a2dedc7df760bb3e9188b0a6fd4e", "asm": "001495903ec3a101a2dedc7df760bb3e9188b0a6fd4e"}, "vout": 6, "txid": "cbade43050280f04183942b28800b052a3cbc64895c0c99e261b82c2d94c60b5"}], "txid": "363f17b86a4cda9a8848307a559713d291d8c7c4c0704074415985581509565e", "blocktime": 1537869901, "version": 2, "confirmations": 11524, "time": 1537869901, "locktime": 542987, "vsize": 258, "size": 420}