{"hash": "3644bb08417601a8620da412c6df569182c8bda2ef7cf3f9637b6f6987fa8c66", "blockhash": "00000000000000000017f5eb5941039fbcee6240d03bc1f2f8e35350df66a1d8", "vout": [{"scriptPubKey": {"reqSigs": 1, "hex": "a914c5512d5f932fe3973e2a9c23f4212fd55060f5fe87", "addresses": ["3KgLHdNHtCq3af3yzLQtUddariZ9LT3M6y"], "asm": "OP_HASH160 c5512d5f932fe3973e2a9c23f4212fd55060f5fe OP_EQUAL", "type": "scripthash"}, "value": 0.01648681, "n": 0}, {"scriptPubKey": {"reqSigs": 1, "hex": "a914ffc81252009de8f5a1ae6d093fcc3c1867d3f55787", "addresses": ["3R1TugBtAmTRtzxP7mmuCnKVoGRAe7f78u"], "asm": "OP_HASH160 ffc81252009de8f5a1ae6d093fcc3c1867d3f557 OP_EQUAL", "type": "scripthash"}, "value": 0.00992145, "n": 1}], "hex": "0200000003728147d087ad25a86e6093c65eba2ac2e9a9fff653e52f9e8dd826be12ab0378680000006a473044022004b00857edbb7a7232c788e4c032c16a7d3138ac41ff79592ad773de7dfee9de02203a5c0e3d675abf60b5adf42af6ace951a2b9d5fedf8b0d4f5781e3025a7b9133012103f575438e3aca5841f4c9ddb848023aad22851cb8082cff32c812ed325e2d7009feffffff7c0226f551a5b533963a85f06116c8a88909ead509fb2fdf429efc924dc7b8c3000000006a47304402204b7125c780404a9187225dfd17d04911cdbac7e88e9364cf6ed9cef5f27bfb5a02203979c5bbf93d335d71aae815fbe791499f6de6e55e4536a2104cbf93e65d42f101210304bd2abb8fd5d857be13c1254bf7b6d34b59c17644803897aceac3606f797e8afeffffff7f803f7e022f5381cb54a48f56fb174bb943e9639b68b1fe02838007b741ee9e2f0100006b483045022100e264742aae0c4bca0572543e6f524b40c9a12dfc23b1a101898e957e8d6e3e7e02200d608b1b9539803c6b744f31897a3e8e84a08ed9249a2744fd62509970926d930121035a97c2a4639260fee5d7aa330e220ab92e30c6e411c0f25cf98720f512b59762feffffff02292819000000000017a914c5512d5f932fe3973e2a9c23f4212fd55060f5fe8791230f000000000017a914ffc81252009de8f5a1ae6d093fcc3c1867d3f5578715490800", "vin": [{"sequence": 4294967294, "scriptSig": {"hex": "473044022004b00857edbb7a7232c788e4c032c16a7d3138ac41ff79592ad773de7dfee9de02203a5c0e3d675abf60b5adf42af6ace951a2b9d5fedf8b0d4f5781e3025a7b9133012103f575438e3aca5841f4c9ddb848023aad22851cb8082cff32c812ed325e2d7009", "asm": "3044022004b00857edbb7a7232c788e4c032c16a7d3138ac41ff79592ad773de7dfee9de02203a5c0e3d675abf60b5adf42af6ace951a2b9d5fedf8b0d4f5781e3025a7b9133[ALL] 03f575438e3aca5841f4c9ddb848023aad22851cb8082cff32c812ed325e2d7009"}, "vout": 104, "txid": "7803ab12be26d88d9e2fe553f6ffa9e9c22aba5ec693606ea825ad87d0478172"}, {"sequence": 4294967294, "scriptSig": {"hex": "47304402204b7125c780404a9187225dfd17d04911cdbac7e88e9364cf6ed9cef5f27bfb5a02203979c5bbf93d335d71aae815fbe791499f6de6e55e4536a2104cbf93e65d42f101210304bd2abb8fd5d857be13c1254bf7b6d34b59c17644803897aceac3606f797e8a", "asm": "304402204b7125c780404a9187225dfd17d04911cdbac7e88e9364cf6ed9cef5f27bfb5a02203979c5bbf93d335d71aae815fbe791499f6de6e55e4536a2104cbf93e65d42f1[ALL] 0304bd2abb8fd5d857be13c1254bf7b6d34b59c17644803897aceac3606f797e8a"}, "vout": 0, "txid": "c3b8c74d92fc9e42df2ffb09d5ea0989a8c81661f0853a9633b5a551f526027c"}, {"sequence": 4294967294, "scriptSig": {"hex": "483045022100e264742aae0c4bca0572543e6f524b40c9a12dfc23b1a101898e957e8d6e3e7e02200d608b1b9539803c6b744f31897a3e8e84a08ed9249a2744fd62509970926d930121035a97c2a4639260fee5d7aa330e220ab92e30c6e411c0f25cf98720f512b59762", "asm": "3045022100e264742aae0c4bca0572543e6f524b40c9a12dfc23b1a101898e957e8d6e3e7e02200d608b1b9539803c6b744f31897a3e8e84a08ed9249a2744fd62509970926d93[ALL] 035a97c2a4639260fee5d7aa330e220ab92e30c6e411c0f25cf98720f512b59762"}, "vout": 303, "txid": "9eee41b707808302feb1689b63e943b94b17fb568fa454cb81532f027e3f807f"}], "txid": "3644bb08417601a8620da412c6df569182c8bda2ef7cf3f9637b6f6987fa8c66", "blocktime": 1537874412, "version": 2, "confirmations": 11466, "time": 1537874412, "locktime": 542997, "vsize": 516, "size": 516}