{"hash": "364544abf13604adea1e3daf8890d49d8f46665deb5be954996e2196cde35ef0", "blockhash": "0000000000000000000e13cef7c366c0283d82e591d1acd082e914b08063cdf1", "vout": [{"scriptPubKey": {"reqSigs": 1, "hex": "76a914d243e6abb9a60fbff430b421d2df4b7d59ec186088ac", "addresses": ["1LAnF8h3qMGx3TSwNUHVneBZUEpwE4gu3D"], "asm": "OP_DUP OP_HASH160 d243e6abb9a60fbff430b421d2df4b7d59ec1860 OP_EQUALVERIFY OP_CHECKSIG", "type": "pubkeyhash"}, "value": 0.00076972, "n": 0}, {"scriptPubKey": {"reqSigs": 1, "hex": "76a9143851f34d13937b673a7d24a1950bb5b21ce94af388ac", "addresses": ["168o1kqNquEJeR9vosUB5fw4eAwcVAgh8P"], "asm": "OP_DUP OP_HASH160 3851f34d13937b673a7d24a1950bb5b21ce94af3 OP_EQUALVERIFY OP_CHECKSIG", "type": "pubkeyhash"}, "value": 5.46e-06, "n": 1}, {"scriptPubKey": {"type": "nulldata", "hex": "6a146f6d6e69000000000000001f000000392e2f7d00", "asm": "OP_RETURN 6f6d6e69000000000000001f000000392e2f7d00"}, "value": 0.0, "n": 2}], "hex": "01000000022d237fad8862046e9fbc032c6de0bcd77f64d8f505d2348b1ac94daaeaaf6abe020000006a47304402200fe91336c02a2061d656310c4b678a6633a5f633b375ef9f865fc74dce807fc902202adaef9ac9ec8ea3ac29d50b5b242071d77eda676c998a59340c98d009ec255401210326d016e23efa36852cf71379a3a6b2fdfa15e066d1fe70816600d77755e04ebdffffffffc41032d948736b06f045a10766c851d585aac8496e158b583e642b348338e955000000006b483045022100e9e01bce2818cb9084cc7e3787a5dd24ef7607421bf6d9aee41dfa146a587ac002206404abeb1a685974bdd6795bd765f8b2c97c4fbb284d9c2cbb83c0943448cd3001210271977291b74f1f5f5c42157e8aae804664eaaeccfd097918450d37f28fb94d77ffffffff03ac2c0100000000001976a914d243e6abb9a60fbff430b421d2df4b7d59ec186088ac22020000000000001976a9143851f34d13937b673a7d24a1950bb5b21ce94af388ac0000000000000000166a146f6d6e69000000000000001f000000392e2f7d0000000000", "vin": [{"sequence": 4294967295, "scriptSig": {"hex": "47304402200fe91336c02a2061d656310c4b678a6633a5f633b375ef9f865fc74dce807fc902202adaef9ac9ec8ea3ac29d50b5b242071d77eda676c998a59340c98d009ec255401210326d016e23efa36852cf71379a3a6b2fdfa15e066d1fe70816600d77755e04ebd", "asm": "304402200fe91336c02a2061d656310c4b678a6633a5f633b375ef9f865fc74dce807fc902202adaef9ac9ec8ea3ac29d50b5b242071d77eda676c998a59340c98d009ec2554[ALL] 0326d016e23efa36852cf71379a3a6b2fdfa15e066d1fe70816600d77755e04ebd"}, "vout": 2, "txid": "be6aafeaaa4dc91a8b34d205f5d8647fd7bce06d2c03bc9f6e046288ad7f232d"}, {"sequence": 4294967295, "scriptSig": {"hex": "483045022100e9e01bce2818cb9084cc7e3787a5dd24ef7607421bf6d9aee41dfa146a587ac002206404abeb1a685974bdd6795bd765f8b2c97c4fbb284d9c2cbb83c0943448cd3001210271977291b74f1f5f5c42157e8aae804664eaaeccfd097918450d37f28fb94d77", "asm": "3045022100e9e01bce2818cb9084cc7e3787a5dd24ef7607421bf6d9aee41dfa146a587ac002206404abeb1a685974bdd6795bd765f8b2c97c4fbb284d9c2cbb83c0943448cd30[ALL] 0271977291b74f1f5f5c42157e8aae804664eaaeccfd097918450d37f28fb94d77"}, "vout": 0, "txid": "55e93883342b643e588b156e49c8aa85d551c86607a145f0066b7348d93210c4"}], "txid": "364544abf13604adea1e3daf8890d49d8f46665deb5be954996e2196cde35ef0", "blocktime": 1537871767, "version": 1, "confirmations": 11491, "time": 1537871767, "locktime": 0, "vsize": 404, "size": 404}