{"hash": "364838e576dc88606d5937fe667897b28d4a7b25aa17fcae7e240ccfeb2f8574", "blockhash": "0000000000000000000dcc0f55137456b1a82d3642486a52398922ac4d620174", "vout": [{"scriptPubKey": {"reqSigs": 1, "hex": "76a914b0c48328fdda654cc416d767cff687f4e894be4a88ac", "addresses": ["1H7fLgPq9EucPed1SRd8iq5YSevHB75MLc"], "asm": "OP_DUP OP_HASH160 b0c48328fdda654cc416d767cff687f4e894be4a OP_EQUALVERIFY OP_CHECKSIG", "type": "pubkeyhash"}, "value": 0.00173999, "n": 0}, {"scriptPubKey": {"reqSigs": 1, "hex": "76a91481b9c8a813bbad59036443116d5b352e8b63dbac88ac", "addresses": ["1CpvjET14pPKyipoMHxMznhYGJtAzfk2sW"], "asm": "OP_DUP OP_HASH160 81b9c8a813bbad59036443116d5b352e8b63dbac OP_EQUALVERIFY OP_CHECKSIG", "type": "pubkeyhash"}, "value": 0.01891196, "n": 1}], "hex": "010000000103333f736887d299931c7e881490919c6bd516bf15fb2df89b0e1a372d9e455e010000006a47304402204a04cdbe67ab1711a48e52f89c21b35e43f74747d012176653accf1cb51d19df022067e9d1abee58ee257d2e688a45f2eb39aa2a794f5c4ba0b2d90f746f200be5ac0121020f65d1a98277b0f83aaa521ff2668ae806593ce37804a62303e488d179f6cae0ffffffff02afa70200000000001976a914b0c48328fdda654cc416d767cff687f4e894be4a88ac7cdb1c00000000001976a91481b9c8a813bbad59036443116d5b352e8b63dbac88ac00000000", "vin": [{"sequence": 4294967295, "scriptSig": {"hex": "47304402204a04cdbe67ab1711a48e52f89c21b35e43f74747d012176653accf1cb51d19df022067e9d1abee58ee257d2e688a45f2eb39aa2a794f5c4ba0b2d90f746f200be5ac0121020f65d1a98277b0f83aaa521ff2668ae806593ce37804a62303e488d179f6cae0", "asm": "304402204a04cdbe67ab1711a48e52f89c21b35e43f74747d012176653accf1cb51d19df022067e9d1abee58ee257d2e688a45f2eb39aa2a794f5c4ba0b2d90f746f200be5ac[ALL] 020f65d1a98277b0f83aaa521ff2668ae806593ce37804a62303e488d179f6cae0"}, "vout": 1, "txid": "5e459e2d371a0e9bf82dfb15bf16d56b9c919014887e1c9399d28768733f3303"}], "txid": "364838e576dc88606d5937fe667897b28d4a7b25aa17fcae7e240ccfeb2f8574", "blocktime": 1537870268, "version": 1, "confirmations": 11518, "time": 1537870268, "locktime": 0, "vsize": 225, "size": 225}