{"hash": "364819d7e3904fb3f262866c30c7dd988bfad5ca2c0c73288beaf2fae0b59119", "blockhash": "00000000000000000017f5eb5941039fbcee6240d03bc1f2f8e35350df66a1d8", "vout": [{"scriptPubKey": {"reqSigs": 1, "hex": "a9140925ae99e2e1bc61059060113b1f207c1f32de8b87", "addresses": ["32XP9Ts2H48HwTVRztXaspdRMfCkh4Pv2R"], "asm": "OP_HASH160 0925ae99e2e1bc61059060113b1f207c1f32de8b OP_EQUAL", "type": "scripthash"}, "value": 0.02293, "n": 0}, {"scriptPubKey": {"reqSigs": 1, "hex": "a914e370231feecbfc25e2e2423a5a79bf79bfdca59887", "addresses": ["3NRbeX3vD5VaVE4TDU9ivCDsEf7NPPte6J"], "asm": "OP_HASH160 e370231feecbfc25e2e2423a5a79bf79bfdca598 OP_EQUAL", "type": "scripthash"}, "value": 10.24217636, "n": 1}], "hex": "01000000019b8a97eded11a4c613f4a0183b7e9f87d9c1ab71cfdc92eca16f95d930b0842501000000d9004730440220200da20ab5b650712f7c1485b7a9c6377180ad38788f3aa68e80b59109406b7f02202d7e0d8208b3084fcdae13f79773ad4482ec96514216f6236d0c78f5ef673f1c0147304402202e8c66397209bbb742359fe6c473e74d451d3c8c1fb7a8e892cf83b46f6e599302201f6e5524d5e1aeb17d23a44113bacb8ee34f18b5b265d690517f6893836b3c4e014752210327881b6abce6535553a3ce21fad12a7d74fd237ce7c4cd270a267162344e3082210256141f8eb687f5a68c5cc65054652dc25116fa285e44d72b44368827ffe77d9a52aeffffffff0208fd22000000000017a9140925ae99e2e1bc61059060113b1f207c1f32de8b8724520c3d0000000017a914e370231feecbfc25e2e2423a5a79bf79bfdca5988700000000", "vin": [{"sequence": 4294967295, "scriptSig": {"hex": "004730440220200da20ab5b650712f7c1485b7a9c6377180ad38788f3aa68e80b59109406b7f02202d7e0d8208b3084fcdae13f79773ad4482ec96514216f6236d0c78f5ef673f1c0147304402202e8c66397209bbb742359fe6c473e74d451d3c8c1fb7a8e892cf83b46f6e599302201f6e5524d5e1aeb17d23a44113bacb8ee34f18b5b265d690517f6893836b3c4e014752210327881b6abce6535553a3ce21fad12a7d74fd237ce7c4cd270a267162344e3082210256141f8eb687f5a68c5cc65054652dc25116fa285e44d72b44368827ffe77d9a52ae", "asm": "0 30440220200da20ab5b650712f7c1485b7a9c6377180ad38788f3aa68e80b59109406b7f02202d7e0d8208b3084fcdae13f79773ad4482ec96514216f6236d0c78f5ef673f1c[ALL] 304402202e8c66397209bbb742359fe6c473e74d451d3c8c1fb7a8e892cf83b46f6e599302201f6e5524d5e1aeb17d23a44113bacb8ee34f18b5b265d690517f6893836b3c4e[ALL] 52210327881b6abce6535553a3ce21fad12a7d74fd237ce7c4cd270a267162344e3082210256141f8eb687f5a68c5cc65054652dc25116fa285e44d72b44368827ffe77d9a52ae"}, "vout": 1, "txid": "2584b030d9956fa1ec92dccf71abc1d9879f7e3b18a0f413c6a411eded978a9b"}], "txid": "364819d7e3904fb3f262866c30c7dd988bfad5ca2c0c73288beaf2fae0b59119", "blocktime": 1537874412, "version": 1, "confirmations": 11467, "time": 1537874412, "locktime": 0, "vsize": 332, "size": 332}