{"hash": "3649f43749b844f013d1af259c46ccef8e06cfb66fae8c82dea876fdeee22f16", "blockhash": "00000000000000000004ffacab907a6b429b9a5745fa0b75af4234bf69dd7176", "vout": [{"scriptPubKey": {"reqSigs": 1, "hex": "76a914f78607522d0dd64fed2e356da114b378316ae45588ac", "addresses": ["1PZnTrSGFR4XBx1frxYFAaXG5AjKChrmMG"], "asm": "OP_DUP OP_HASH160 f78607522d0dd64fed2e356da114b378316ae455 OP_EQUALVERIFY OP_CHECKSIG", "type": "pubkeyhash"}, "value": 0.00029554, "n": 0}, {"scriptPubKey": {"type": "nulldata", "hex": "6a146f6d6e69000000000000001f0000000afc2733cb", "asm": "OP_RETURN 6f6d6e69000000000000001f0000000afc2733cb"}, "value": 0.0, "n": 1}, {"scriptPubKey": {"reqSigs": 1, "hex": "76a9149d4470deef192586feb155bdd53486a2f0f309ff88ac", "addresses": ["1FLZ5UXXpuSwE1TPNnfiHrt6vykxUEKHhb"], "asm": "OP_DUP OP_HASH160 9d4470deef192586feb155bdd53486a2f0f309ff OP_EQUALVERIFY OP_CHECKSIG", "type": "pubkeyhash"}, "value": 5.46e-06, "n": 2}], "hex": "01000000013da2368e0f20c060a772d52e71173edf2d4f1ccaeee9afc0efef05e1cd721f64010000006a47304402202b61e3175e85122cae03f22808006047bbec90a51fec027dea2d81c82b6488800220468b5a502fb5d4d880991a0096d7ae7c6625bd7c172e82e3ce2eb66f05cbfb3301210296b5a96ccb327053d44854547fe337151f449ed0e46f4c55820b935c102b8486ffffffff0372730000000000001976a914f78607522d0dd64fed2e356da114b378316ae45588ac0000000000000000166a146f6d6e69000000000000001f0000000afc2733cb22020000000000001976a9149d4470deef192586feb155bdd53486a2f0f309ff88ac00000000", "vin": [{"sequence": 4294967295, "scriptSig": {"hex": "47304402202b61e3175e85122cae03f22808006047bbec90a51fec027dea2d81c82b6488800220468b5a502fb5d4d880991a0096d7ae7c6625bd7c172e82e3ce2eb66f05cbfb3301210296b5a96ccb327053d44854547fe337151f449ed0e46f4c55820b935c102b8486", "asm": "304402202b61e3175e85122cae03f22808006047bbec90a51fec027dea2d81c82b6488800220468b5a502fb5d4d880991a0096d7ae7c6625bd7c172e82e3ce2eb66f05cbfb33[ALL] 0296b5a96ccb327053d44854547fe337151f449ed0e46f4c55820b935c102b8486"}, "vout": 1, "txid": "641f72cde105efefc0afe9eeca1c4f2ddf3e17712ed572a760c0200f8e36a23d"}], "txid": "3649f43749b844f013d1af259c46ccef8e06cfb66fae8c82dea876fdeee22f16", "blocktime": 1537875543, "version": 1, "confirmations": 11464, "time": 1537875543, "locktime": 0, "vsize": 256, "size": 256}