{"hash": "364aa55dec94b4f79688b7f04b17df050caaed19ad051c3d7bd6268d48ed7ce1", "blockhash": "0000000000000000000baef3f32e3676a92c3b2e5da21b426e4f302fc371ce76", "vout": [{"scriptPubKey": {"reqSigs": 1, "hex": "76a9148ad8a74078558d8c98b4bf343c851779d78f59de88ac", "addresses": ["1Df9noxp5DwZhoe2vWkB8tqYxeFPiipnf9"], "asm": "OP_DUP OP_HASH160 8ad8a74078558d8c98b4bf343c851779d78f59de OP_EQUALVERIFY OP_CHECKSIG", "type": "pubkeyhash"}, "value": 0.0006304, "n": 0}, {"scriptPubKey": {"type": "nulldata", "hex": "6a4c500000783200016bdc16db5ed6bde5cde210b227b7256b4774d339f6019d6ddc0f1b8ff117119dabc52cdcdc58877e3ad9ccbc02935baa1fa20614115bf0312004bc9a9526289ac0f6612cd74e33776ee4", "asm": "OP_RETURN 0000783200016bdc16db5ed6bde5cde210b227b7256b4774d339f6019d6ddc0f1b8ff117119dabc52cdcdc58877e3ad9ccbc02935baa1fa20614115bf0312004bc9a9526289ac0f6612cd74e33776ee4"}, "value": 0.0, "n": 1}], "hex": "01000000013bbf56b2d69143c9e25ca26e1aedea1a82a8a30267badb722e83704834029572010000006a47304402206fff4bc9675a6572f5df11a4f4a3d27a8ebf0ea273aa6e63ee6565f151dc8bd20220479eceb992e37c8980154210e78640d9a0207e50f085d891cf970d83cf2a761901210342f5b46ab8d133a02b198cf54c26e6ef2e5639ef52369bc00d246f512514c54dffffffff0240f60000000000001976a9148ad8a74078558d8c98b4bf343c851779d78f59de88ac0000000000000000536a4c500000783200016bdc16db5ed6bde5cde210b227b7256b4774d339f6019d6ddc0f1b8ff117119dabc52cdcdc58877e3ad9ccbc02935baa1fa20614115bf0312004bc9a9526289ac0f6612cd74e33776ee400000000", "vin": [{"sequence": 4294967295, "scriptSig": {"hex": "47304402206fff4bc9675a6572f5df11a4f4a3d27a8ebf0ea273aa6e63ee6565f151dc8bd20220479eceb992e37c8980154210e78640d9a0207e50f085d891cf970d83cf2a761901210342f5b46ab8d133a02b198cf54c26e6ef2e5639ef52369bc00d246f512514c54d", "asm": "304402206fff4bc9675a6572f5df11a4f4a3d27a8ebf0ea273aa6e63ee6565f151dc8bd20220479eceb992e37c8980154210e78640d9a0207e50f085d891cf970d83cf2a7619[ALL] 0342f5b46ab8d133a02b198cf54c26e6ef2e5639ef52369bc00d246f512514c54d"}, "vout": 1, "txid": "729502344870832e72dbba6702a3a8821aeaed1a6ea25ce2c94391d6b256bf3b"}], "txid": "364aa55dec94b4f79688b7f04b17df050caaed19ad051c3d7bd6268d48ed7ce1", "blocktime": 1537876114, "version": 1, "confirmations": 11460, "time": 1537876114, "locktime": 0, "vsize": 283, "size": 283}