{"hash": "364c29df3d9c6cc7b71d672ae18104dbf071b6390607f333dcc217e25a0e45e0", "blockhash": "00000000000000000004ffacab907a6b429b9a5745fa0b75af4234bf69dd7176", "vout": [{"scriptPubKey": {"reqSigs": 1, "hex": "76a914c9b06c91b0d83f55bfe368fcfd2cd13d6f4a371488ac", "addresses": ["1KPSAiiDPXv8huwWZZWNsXQ58h81vUZGwA"], "asm": "OP_DUP OP_HASH160 c9b06c91b0d83f55bfe368fcfd2cd13d6f4a3714 OP_EQUALVERIFY OP_CHECKSIG", "type": "pubkeyhash"}, "value": 0.00362329, "n": 0}, {"scriptPubKey": {"reqSigs": 1, "hex": "76a91493df5ec0ab17c33f284392311b5836379013c33d88ac", "addresses": ["1EUsvECfpUeig82FiBmu6UwPrWbTKaDzpK"], "asm": "OP_DUP OP_HASH160 93df5ec0ab17c33f284392311b5836379013c33d OP_EQUALVERIFY OP_CHECKSIG", "type": "pubkeyhash"}, "value": 0.00703423, "n": 1}], "hex": "0100000001adc3fec381dba103fc858890459936aa88eafd0010c27c6a32ff4975a19c71ea010000006b483045022100af18408610ec1a9097601829d473f7b520a3d41b1a890bc7c7b43253eb0a06ef02200330c3c2776f5bc30560bbb1c26069ec57467f19c84b3b696e3a98858e04e1f50121021a475904bcd87b94172a4f6a84f41b698b442a889ac464c732ddecb19fdf2d00ffffffff0259870500000000001976a914c9b06c91b0d83f55bfe368fcfd2cd13d6f4a371488acbfbb0a00000000001976a91493df5ec0ab17c33f284392311b5836379013c33d88ac00000000", "vin": [{"sequence": 4294967295, "scriptSig": {"hex": "483045022100af18408610ec1a9097601829d473f7b520a3d41b1a890bc7c7b43253eb0a06ef02200330c3c2776f5bc30560bbb1c26069ec57467f19c84b3b696e3a98858e04e1f50121021a475904bcd87b94172a4f6a84f41b698b442a889ac464c732ddecb19fdf2d00", "asm": "3045022100af18408610ec1a9097601829d473f7b520a3d41b1a890bc7c7b43253eb0a06ef02200330c3c2776f5bc30560bbb1c26069ec57467f19c84b3b696e3a98858e04e1f5[ALL] 021a475904bcd87b94172a4f6a84f41b698b442a889ac464c732ddecb19fdf2d00"}, "vout": 1, "txid": "ea719ca17549ff326a7cc21000fdea88aa369945908885fc03a1db81c3fec3ad"}], "txid": "364c29df3d9c6cc7b71d672ae18104dbf071b6390607f333dcc217e25a0e45e0", "blocktime": 1537875543, "version": 1, "confirmations": 11464, "time": 1537875543, "locktime": 0, "vsize": 226, "size": 226}