{"hash": "40169d152b53c09f2472e44c404d2212de2ffce5b851bd3b83f7f17aebe14067", "blockhash": "00000000000000000004ffacab907a6b429b9a5745fa0b75af4234bf69dd7176", "vout": [{"scriptPubKey": {"reqSigs": 1, "hex": "a91474a02d573cbe6ae6f5086ec5055a4885afed71cb87", "addresses": ["3CKgC6aRsDGqPuYKfzjWm3SeAaxft5ZF9k"], "asm": "OP_HASH160 74a02d573cbe6ae6f5086ec5055a4885afed71cb OP_EQUAL", "type": "scripthash"}, "value": 3.85036866, "n": 0}, {"scriptPubKey": {"reqSigs": 1, "hex": "a914e6bc32df6fbe61a79c7e858783516b3b1f48775a87", "addresses": ["3Nj2nwYQovpemw7tvwcoe53S6kvDApidhD"], "asm": "OP_HASH160 e6bc32df6fbe61a79c7e858783516b3b1f48775a OP_EQUAL", "type": "scripthash"}, "value": 0.0056778, "n": 1}], "hex": "02000000000101703ab0d09b88659f3c0ba83d4add76113756c8664c79f419eee05fd120e1a0180100000017160014a5bcd4e041a839d9a7f95f75d6a48cc4879b7f9cfeffffff024232f3160000000017a91474a02d573cbe6ae6f5086ec5055a4885afed71cb87e4a908000000000017a914e6bc32df6fbe61a79c7e858783516b3b1f48775a8702473044022035f5013073a3961a2a14ae125682556efd83fd56f4587793646062369af8b42f022057433a8b9b729e8ec281617fa97cd3bb4c823be6d087ffa2f1f2d147ea3fa88a012103aacf48a6d9973f4263d944b69d8fa77d545a016e2690679e268f21b04ef8fd5616490800", "vin": [{"txinwitness": ["3044022035f5013073a3961a2a14ae125682556efd83fd56f4587793646062369af8b42f022057433a8b9b729e8ec281617fa97cd3bb4c823be6d087ffa2f1f2d147ea3fa88a01", "03aacf48a6d9973f4263d944b69d8fa77d545a016e2690679e268f21b04ef8fd56"], "sequence": 4294967294, "scriptSig": {"hex": "160014a5bcd4e041a839d9a7f95f75d6a48cc4879b7f9c", "asm": "0014a5bcd4e041a839d9a7f95f75d6a48cc4879b7f9c"}, "vout": 1, "txid": "18a0e120d15fe0ee19f4794c66c856371176dd4a3da80b3c9f65889bd0b03a70"}], "txid": "365079adcd90391c2004cf97bc8ce13c42353db1e4996a50ddb5d594287a201a", "blocktime": 1537875543, "version": 2, "confirmations": 11464, "time": 1537875543, "locktime": 542998, "vsize": 166, "size": 247}