{"hash": "3657f072ac265adfde2ac5e907658e1d2263e33966041bfb5cb496aa85891d20", "blockhash": "0000000000000000001cda96e906b7601b7a6fb1a3b62bca570a9e5d8f4b3de1", "vout": [{"scriptPubKey": {"reqSigs": 1, "hex": "a9144dc5593f75b748fc0c8f279e7b85bc5af1a2163f87", "addresses": ["38nENLXfhLYeQKU26ohuGvjwtGZxhhssKn"], "asm": "OP_HASH160 4dc5593f75b748fc0c8f279e7b85bc5af1a2163f OP_EQUAL", "type": "scripthash"}, "value": 0.00474, "n": 0}, {"scriptPubKey": {"reqSigs": 1, "hex": "76a914ff094e14e9456cc179f1ccaec865800b4328da1c88ac", "addresses": ["1QFWTSWzEHf1ppAt6N3JGBVerk9pHSs3eQ"], "asm": "OP_DUP OP_HASH160 ff094e14e9456cc179f1ccaec865800b4328da1c OP_EQUALVERIFY OP_CHECKSIG", "type": "pubkeyhash"}, "value": 0.07068134, "n": 1}], "hex": "0100000001ef9b4ac102aa28ccd7dc0577c514b51e24bb2ae86e8edc9f2fa3d073da1c4a66050000006a47304402204221c0c1f260f4ea01b0e11daa7fa8dd53223ebe836d7a1137fa92db86d83905022055e3613733dbc87ee60ae53b25450173fbe137bff626451a7a974b9c62ca1d190121027ab02a02b143d8aa14636ce329edbef87f4226b1f63116ad9b54a5dbcb7513adffffffff02903b07000000000017a9144dc5593f75b748fc0c8f279e7b85bc5af1a2163f87e6d96b00000000001976a914ff094e14e9456cc179f1ccaec865800b4328da1c88ac00000000", "vin": [{"sequence": 4294967295, "scriptSig": {"hex": "47304402204221c0c1f260f4ea01b0e11daa7fa8dd53223ebe836d7a1137fa92db86d83905022055e3613733dbc87ee60ae53b25450173fbe137bff626451a7a974b9c62ca1d190121027ab02a02b143d8aa14636ce329edbef87f4226b1f63116ad9b54a5dbcb7513ad", "asm": "304402204221c0c1f260f4ea01b0e11daa7fa8dd53223ebe836d7a1137fa92db86d83905022055e3613733dbc87ee60ae53b25450173fbe137bff626451a7a974b9c62ca1d19[ALL] 027ab02a02b143d8aa14636ce329edbef87f4226b1f63116ad9b54a5dbcb7513ad"}, "vout": 5, "txid": "664a1cda73d0a32f9fdc8e6ee82abb241eb514c57705dcd7cc28aa02c14a9bef"}], "txid": "3657f072ac265adfde2ac5e907658e1d2263e33966041bfb5cb496aa85891d20", "blocktime": 1537873282, "version": 1, "confirmations": 11484, "time": 1537873282, "locktime": 0, "vsize": 223, "size": 223}