{"hash": "d8b0cf1f884fa73577b1ec569988953c7cc9845e7fc7d80502e76987f88f26fd", "blockhash": "0000000000000000001f0ddff1eddb255c1121bcd4da4f1bc9a0da00cae72433", "vout": [{"scriptPubKey": {"reqSigs": 1, "hex": "00149a3d8959dc4408b1ca6b5ea55bfca9f50003c448", "addresses": ["bc1qng7cjkwugsytrjntt6j4hl9f75qq83zglarsaq"], "asm": "0 9a3d8959dc4408b1ca6b5ea55bfca9f50003c448", "type": "witness_v0_keyhash"}, "value": 0.00390411, "n": 0}, {"scriptPubKey": {"reqSigs": 1, "hex": "76a914b5955509d1c01732660813583d331d61ec403fd788ac", "addresses": ["1HZ8CWBb3iLTwQPHiaGHQQEBKNLnNdRC1R"], "asm": "OP_DUP OP_HASH160 b5955509d1c01732660813583d331d61ec403fd7 OP_EQUALVERIFY OP_CHECKSIG", "type": "pubkeyhash"}, "value": 0.04904477, "n": 1}], "hex": "01000000000101054b0ed5fffa1492ed93255c6bf3785f71e9da79c6acb3acb13d65ff261b3d096000000017160014a68d6226a670be0732c2e12002e1e1a99bbebac9ffffffff020bf50500000000001600149a3d8959dc4408b1ca6b5ea55bfca9f50003c4481dd64a00000000001976a914b5955509d1c01732660813583d331d61ec403fd788ac024830450221009ffdbe53e49330618d512ddc1464f334e226d5556e44228b0329ca9fe19ba00502201a9c02a7d5b2ab7935680590e8da62768943dea33c023297924cfc8bd8da0b4b0121038a6eeb4bc2b005247e504b3ac12583b0dab43aafa5a046737427ea33716316ca00000000", "vin": [{"txinwitness": ["30450221009ffdbe53e49330618d512ddc1464f334e226d5556e44228b0329ca9fe19ba00502201a9c02a7d5b2ab7935680590e8da62768943dea33c023297924cfc8bd8da0b4b01", "038a6eeb4bc2b005247e504b3ac12583b0dab43aafa5a046737427ea33716316ca"], "sequence": 4294967295, "scriptSig": {"hex": "160014a68d6226a670be0732c2e12002e1e1a99bbebac9", "asm": "0014a68d6226a670be0732c2e12002e1e1a99bbebac9"}, "vout": 96, "txid": "093d1b26ff653db1acb3acc679dae9715f78f36b5c2593ed9214faffd50e4b05"}], "txid": "36681731a1f3c26a3bc63cc4054d18726b23f35f1d0ce09dfc9fa557cf60166a", "blocktime": 1537872018, "version": 1, "confirmations": 11489, "time": 1537872018, "locktime": 0, "vsize": 167, "size": 249}