{"hash": "366a4d5ef2091b5cf5476efa53ac4d5c7f0a75869fd67e11d80bd0d111d7ceee", "blockhash": "000000000000000000022b45ed06c6f4ccd3cf7fb5ba4856ebd2e58215665228", "vout": [{"scriptPubKey": {"reqSigs": 1, "hex": "76a914fc8834d0aed316b094320bfcef8715993535142488ac", "addresses": ["1Q2GT83sc3uys3dJM5TzGpF1RE44N7YdxP"], "asm": "OP_DUP OP_HASH160 fc8834d0aed316b094320bfcef87159935351424 OP_EQUALVERIFY OP_CHECKSIG", "type": "pubkeyhash"}, "value": 1.23037737, "n": 0}, {"scriptPubKey": {"reqSigs": 1, "hex": "76a9140fd4e05bfdcdef034b22f8cca9e1772b64ca476788ac", "addresses": ["12Si9nnAA2F4zK91WHoMANfsDHvwy12bvv"], "asm": "OP_DUP OP_HASH160 0fd4e05bfdcdef034b22f8cca9e1772b64ca4767 OP_EQUALVERIFY OP_CHECKSIG", "type": "pubkeyhash"}, "value": 2.58455958, "n": 1}], "hex": "0200000001ca6df04c64470ab0791bbc471fc3e70138dbd2aa393624702746024602a84e3d010000006b48304502210092d72b5d6ce9f623693d723e63deefc6e3596e9529bd7b4a544d7bef2c6a4fe802202441b8215d1f8a354c3e3dd5702cf360688e7b01265a9704e5e316b723bbb9c5012102c5777d16103920108b67b4c4e5c150b1eda17beee9a3bd5ea4d6de4320399b88ffffffff0229685507000000001976a914fc8834d0aed316b094320bfcef8715993535142488ac96b9670f000000001976a9140fd4e05bfdcdef034b22f8cca9e1772b64ca476788ac00000000", "vin": [{"sequence": 4294967295, "scriptSig": {"hex": "48304502210092d72b5d6ce9f623693d723e63deefc6e3596e9529bd7b4a544d7bef2c6a4fe802202441b8215d1f8a354c3e3dd5702cf360688e7b01265a9704e5e316b723bbb9c5012102c5777d16103920108b67b4c4e5c150b1eda17beee9a3bd5ea4d6de4320399b88", "asm": "304502210092d72b5d6ce9f623693d723e63deefc6e3596e9529bd7b4a544d7bef2c6a4fe802202441b8215d1f8a354c3e3dd5702cf360688e7b01265a9704e5e316b723bbb9c5[ALL] 02c5777d16103920108b67b4c4e5c150b1eda17beee9a3bd5ea4d6de4320399b88"}, "vout": 1, "txid": "3d4ea8024602462770243639aad2db3801e7c31f47bc1b79b00a47644cf06dca"}], "txid": "366a4d5ef2091b5cf5476efa53ac4d5c7f0a75869fd67e11d80bd0d111d7ceee", "blocktime": 1537869901, "version": 2, "confirmations": 11522, "time": 1537869901, "locktime": 0, "vsize": 226, "size": 226}