{"hash": "270fc4bfdd668219f746f499596876c3aca69374122d9715bb9d334b12520043", "blockhash": "00000000000000000017f5eb5941039fbcee6240d03bc1f2f8e35350df66a1d8", "vout": [{"scriptPubKey": {"reqSigs": 1, "hex": "76a9149a1b8f9b1fa2d2297863adb1cb11c71df455684888ac", "addresses": ["1F3r5We2zwNiSzG6GQUTTWnnPMCz2HJbJu"], "asm": "OP_DUP OP_HASH160 9a1b8f9b1fa2d2297863adb1cb11c71df4556848 OP_EQUALVERIFY OP_CHECKSIG", "type": "pubkeyhash"}, "value": 2.673e-05, "n": 0}, {"scriptPubKey": {"reqSigs": 1, "hex": "a9148ddb66c3371910a0ef8f38021cc4094e61e69f3a87", "addresses": ["3Ed62sPENkraPwpovPty9YMFGJ8FtTyv63"], "asm": "OP_HASH160 8ddb66c3371910a0ef8f38021cc4094e61e69f3a OP_EQUAL", "type": "scripthash"}, "value": 0.00341705, "n": 1}], "hex": "010000000001014b592a0fc7bd0b03f786f27808a4fe9094efec43b605f0cc02e24f279f7711580100000023220020fdd23d707f55451c4e006c77b5e8df35a185a8e99f9bda70bf0ded7913bb1eb3ffffffff02710a0000000000001976a9149a1b8f9b1fa2d2297863adb1cb11c71df455684888acc93605000000000017a9148ddb66c3371910a0ef8f38021cc4094e61e69f3a870400473044022059c4e9ef343a047aeed606def3c60d6a7212d8ba9060a6389a9106b7bd1ffa7c02205e3ed6c89c8905c4b12c173e393d4b351bd4e17073c45a542aa89e5106d7e5b8014830450221009e2d87c8d0f83fb1407f14a8ff2211fcc6f8793b838b7a1e45a1610083e2a9650220642a69537f0aa797adea970a9128d0529b2b7b5ab3fcebfb8acf7475f6124d32014752210286c104577b978160849865bc23f9a6df9b53d41c8ffb486754b97b2a474a181c2103148c80a5bdfddb05ff5bcffc397c8ca748d8b435ec6a175bc9d7bfc7fc6f853752ae00000000", "vin": [{"txinwitness": ["", "3044022059c4e9ef343a047aeed606def3c60d6a7212d8ba9060a6389a9106b7bd1ffa7c02205e3ed6c89c8905c4b12c173e393d4b351bd4e17073c45a542aa89e5106d7e5b801", "30450221009e2d87c8d0f83fb1407f14a8ff2211fcc6f8793b838b7a1e45a1610083e2a9650220642a69537f0aa797adea970a9128d0529b2b7b5ab3fcebfb8acf7475f6124d3201", "52210286c104577b978160849865bc23f9a6df9b53d41c8ffb486754b97b2a474a181c2103148c80a5bdfddb05ff5bcffc397c8ca748d8b435ec6a175bc9d7bfc7fc6f853752ae"], "sequence": 4294967295, "scriptSig": {"hex": "220020fdd23d707f55451c4e006c77b5e8df35a185a8e99f9bda70bf0ded7913bb1eb3", "asm": "0020fdd23d707f55451c4e006c77b5e8df35a185a8e99f9bda70bf0ded7913bb1eb3"}, "vout": 1, "txid": "5811779f274fe202ccf005b643ecef9490fea40878f286f7030bbdc70f2a594b"}], "txid": "366b7ee4f59eeb1450197d583fbd28a31e23d7c09091d97ac650cd5ac5df9ea8", "blocktime": 1537874412, "version": 1, "confirmations": 11468, "time": 1537874412, "locktime": 0, "vsize": 208, "size": 373}