{"hash": "366cc48fe5ec3d80b0ac5a3a262d357b8c640cdc176fb660a3d1c3fca7388583", "blockhash": "0000000000000000000dcc0f55137456b1a82d3642486a52398922ac4d620174", "vout": [{"scriptPubKey": {"reqSigs": 1, "hex": "76a914077c67fbbf0bb9ef8a8642b36412793ea0ae12a788ac", "addresses": ["1gamEhDA7ygLXh9sLHHBBA5iU5bis2qA8"], "asm": "OP_DUP OP_HASH160 077c67fbbf0bb9ef8a8642b36412793ea0ae12a7 OP_EQUALVERIFY OP_CHECKSIG", "type": "pubkeyhash"}, "value": 0.2999482, "n": 0}], "hex": "0100000001e07b68adc5f1bd39f1a5a4a98f282f415d8012b83b66e4a9033654f6fe48eaf4080000006a47304402205bcd95282a1a42f19d810c3905b03a8924ea10b18ec642d6cb7365e33d5b9d560220216384d747b552ec86c543f14c4cd18da9cfebb816b15650526b8e2ccaa4e27c012102c236a8288daba8ba3d853b6907878ce4667b3ba9130db7fe8f82e9093c417bbcffffffff0144afc901000000001976a914077c67fbbf0bb9ef8a8642b36412793ea0ae12a788ac00000000", "vin": [{"sequence": 4294967295, "scriptSig": {"hex": "47304402205bcd95282a1a42f19d810c3905b03a8924ea10b18ec642d6cb7365e33d5b9d560220216384d747b552ec86c543f14c4cd18da9cfebb816b15650526b8e2ccaa4e27c012102c236a8288daba8ba3d853b6907878ce4667b3ba9130db7fe8f82e9093c417bbc", "asm": "304402205bcd95282a1a42f19d810c3905b03a8924ea10b18ec642d6cb7365e33d5b9d560220216384d747b552ec86c543f14c4cd18da9cfebb816b15650526b8e2ccaa4e27c[ALL] 02c236a8288daba8ba3d853b6907878ce4667b3ba9130db7fe8f82e9093c417bbc"}, "vout": 8, "txid": "f4ea48fef6543603a9e4663bb812805d412f288fa9a4a5f139bdf1c5ad687be0"}], "txid": "366cc48fe5ec3d80b0ac5a3a262d357b8c640cdc176fb660a3d1c3fca7388583", "blocktime": 1537870268, "version": 1, "confirmations": 11516, "time": 1537870268, "locktime": 0, "vsize": 191, "size": 191}