{"hash": "6d76f9d1e1d173b319dd7afa33b0997e606ed873ff493962833604a226554c6c", "blockhash": "0000000000000000000e13cef7c366c0283d82e591d1acd082e914b08063cdf1", "vout": [{"scriptPubKey": {"reqSigs": 1, "hex": "76a9147df20721552139e203ced74b047dce596cb903c188ac", "addresses": ["1CUwQNPdVcjosyTa3JnUvmw758jiNvSzCy"], "asm": "OP_DUP OP_HASH160 7df20721552139e203ced74b047dce596cb903c1 OP_EQUALVERIFY OP_CHECKSIG", "type": "pubkeyhash"}, "value": 0.027768, "n": 0}, {"scriptPubKey": {"reqSigs": 1, "hex": "a914dee0a1cc9f055700143e0f4ecee53180ab3530dc87", "addresses": ["3N1V2qWA5hpScEmS72pMooYRmXUiLmwPQQ"], "asm": "OP_HASH160 dee0a1cc9f055700143e0f4ecee53180ab3530dc OP_EQUAL", "type": "scripthash"}, "value": 0.99114735, "n": 1}], "hex": "020000000001016683b13b4ef8f472b58baa4ee8f8e54d7df7f719de5db153097eec1d7c2dbe600000000017160014cb5dbe423de4d42b6425c6921084c6197a5d2937ffffffff02e05e2a00000000001976a9147df20721552139e203ced74b047dce596cb903c188acef5ee8050000000017a914dee0a1cc9f055700143e0f4ecee53180ab3530dc8702473044022023e0df8a0533c8d41528ee21838a7acc180011289118837599f225e5ac53b8780220710bf74a2dd72750c6e16a765311459cd089175795f83ac555857923c2afe31e012102acecad485eda786cbe0422823b7594aea6854abb5ec85e267f1c4b87f3f758f700000000", "vin": [{"txinwitness": ["3044022023e0df8a0533c8d41528ee21838a7acc180011289118837599f225e5ac53b8780220710bf74a2dd72750c6e16a765311459cd089175795f83ac555857923c2afe31e01", "02acecad485eda786cbe0422823b7594aea6854abb5ec85e267f1c4b87f3f758f7"], "sequence": 4294967295, "scriptSig": {"hex": "160014cb5dbe423de4d42b6425c6921084c6197a5d2937", "asm": "0014cb5dbe423de4d42b6425c6921084c6197a5d2937"}, "vout": 0, "txid": "60be2d7c1dec7e0953b15dde19f7f77d4de5f8e84eaa8bb572f4f84e3bb18366"}], "txid": "36703d57db10e66fd10d6d0f900c298d10dcf29278f3925c72759ddda5ebfa92", "blocktime": 1537871767, "version": 2, "confirmations": 11490, "time": 1537871767, "locktime": 0, "vsize": 168, "size": 249}