{"hash": "367d1c54b7be2a18c8690b04e16b34fa9ca6f6c91b331780249dfc9310da11a6", "blockhash": "0000000000000000000e13cef7c366c0283d82e591d1acd082e914b08063cdf1", "vout": [{"scriptPubKey": {"reqSigs": 1, "hex": "76a914c432ecaaaaba48e8d779c7ed9e6819199a6b8b0388ac", "addresses": ["1JtQStq69oYXdJsih4LF5C73mZsMFtp8Kx"], "asm": "OP_DUP OP_HASH160 c432ecaaaaba48e8d779c7ed9e6819199a6b8b03 OP_EQUALVERIFY OP_CHECKSIG", "type": "pubkeyhash"}, "value": 0.00121584, "n": 0}, {"scriptPubKey": {"type": "nulldata", "hex": "6a4c50000077a20001724455df2a838b0683ae37e8af6c953dd567cf27e7e3ef3236678a625097a3030b8025379696c9fb6f4f6c68466e5baa0e8d0614adbfbdeec81dbc9a9526289ac0f6612cd74e33776ee4", "asm": "OP_RETURN 000077a20001724455df2a838b0683ae37e8af6c953dd567cf27e7e3ef3236678a625097a3030b8025379696c9fb6f4f6c68466e5baa0e8d0614adbfbdeec81dbc9a9526289ac0f6612cd74e33776ee4"}, "value": 0.0, "n": 1}], "hex": "0100000001e87bacc37356bc20569eda4a19b0652deb433f459c0a5bc5535a2334a22bce91010000006a47304402202843f1a6f9f9d20519aa77cb19a566387b21a792a65457f6b3784ea38696a99902203af793bdaa6b83aa8e43e6070428148977e94af2de8a40bb8668209a25a95100012102d9351114ef9ad686919945e728eedea3d4cd13b9defc8ee54f38f1279a8b3f04ffffffff02f0da0100000000001976a914c432ecaaaaba48e8d779c7ed9e6819199a6b8b0388ac0000000000000000536a4c50000077a20001724455df2a838b0683ae37e8af6c953dd567cf27e7e3ef3236678a625097a3030b8025379696c9fb6f4f6c68466e5baa0e8d0614adbfbdeec81dbc9a9526289ac0f6612cd74e33776ee400000000", "vin": [{"sequence": 4294967295, "scriptSig": {"hex": "47304402202843f1a6f9f9d20519aa77cb19a566387b21a792a65457f6b3784ea38696a99902203af793bdaa6b83aa8e43e6070428148977e94af2de8a40bb8668209a25a95100012102d9351114ef9ad686919945e728eedea3d4cd13b9defc8ee54f38f1279a8b3f04", "asm": "304402202843f1a6f9f9d20519aa77cb19a566387b21a792a65457f6b3784ea38696a99902203af793bdaa6b83aa8e43e6070428148977e94af2de8a40bb8668209a25a95100[ALL] 02d9351114ef9ad686919945e728eedea3d4cd13b9defc8ee54f38f1279a8b3f04"}, "vout": 1, "txid": "91ce2ba234235a53c55b0a9c453f43eb2d65b0194ada9e5620bc5673c3ac7be8"}], "txid": "367d1c54b7be2a18c8690b04e16b34fa9ca6f6c91b331780249dfc9310da11a6", "blocktime": 1537871767, "version": 1, "confirmations": 11493, "time": 1537871767, "locktime": 0, "vsize": 283, "size": 283}