{"hash": "285983fe765920f34c361a697366ab1f83350600c469768363f377769884a09e", "blockhash": "0000000000000000001e0dab787dd257d1dbfcb92a98c2207d5e1078be1f4165", "vout": [{"scriptPubKey": {"reqSigs": 1, "hex": "a914ae5c087ec8323723e023c98788ec955a526013c887", "addresses": ["3HawkVxJDsT4Q3zwUafeZnu8yNgParF69J"], "asm": "OP_HASH160 ae5c087ec8323723e023c98788ec955a526013c8 OP_EQUAL", "type": "scripthash"}, "value": 0.0995, "n": 0}, {"scriptPubKey": {"reqSigs": 1, "hex": "a914f9d4612149535c58ad0dc8f93f9fe5b01a92f4f487", "addresses": ["3QTzbgy9WDwzDB254wnYUKFWeBGVWYXW5e"], "asm": "OP_HASH160 f9d4612149535c58ad0dc8f93f9fe5b01a92f4f4 OP_EQUAL", "type": "scripthash"}, "value": 0.7355, "n": 1}, {"scriptPubKey": {"reqSigs": 1, "hex": "a91469f37613b5651f80a3028f35658ec6d0d7cfd84187", "addresses": ["3BMEXfmuN3sWDbVYfBC5dTyX1rs31RefVV"], "asm": "OP_HASH160 69f37613b5651f80a3028f35658ec6d0d7cfd841 OP_EQUAL", "type": "scripthash"}, "value": 0.37923, "n": 2}, {"scriptPubKey": {"reqSigs": 1, "hex": "a9140cb34c1d32f96d38597999a1b65cb3dafeb7d1ec87", "addresses": ["32rApeBmoyhCYRY9HT5AphtKfrx23eRTVQ"], "asm": "OP_HASH160 0cb34c1d32f96d38597999a1b65cb3dafeb7d1ec OP_EQUAL", "type": "scripthash"}, "value": 0.05636, "n": 3}, {"scriptPubKey": {"reqSigs": 1, "hex": "76a91461b625b3eb6f96791d45fad56f8f30b75fbe512788ac", "addresses": ["19uekRVHQvaGYzjohhppncTTQF7pSAqMRH"], "asm": "OP_DUP OP_HASH160 61b625b3eb6f96791d45fad56f8f30b75fbe5127 OP_EQUALVERIFY OP_CHECKSIG", "type": "pubkeyhash"}, "value": 0.02605, "n": 4}, {"scriptPubKey": {"reqSigs": 1, "hex": "76a91441d0b540c240268e7bfef88e46c7b2f99bd3c8ac88ac", "addresses": ["16zzwksVcFKDYQZoAb8X9Cj6FxFStQi7Y1"], "asm": "OP_DUP OP_HASH160 41d0b540c240268e7bfef88e46c7b2f99bd3c8ac OP_EQUALVERIFY OP_CHECKSIG", "type": "pubkeyhash"}, "value": 0.04786, "n": 5}, {"scriptPubKey": {"reqSigs": 1, "hex": "a9143d201b34c495bea9f873ea2a23e44cee052d485a87", "addresses": ["37GDc2btgGHg8AQPbS9J1jnTUKPCoots7v"], "asm": "OP_HASH160 3d201b34c495bea9f873ea2a23e44cee052d485a OP_EQUAL", "type": "scripthash"}, "value": 0.0355112, "n": 6}, {"scriptPubKey": {"reqSigs": 1, "hex": "76a914c2aa9435dd82c1bb7b6018fb87d7fd9233c7270488ac", "addresses": ["1JkJSFPeudzMirGmP86GC1ENnFHWyJH1xr"], "asm": "OP_DUP OP_HASH160 c2aa9435dd82c1bb7b6018fb87d7fd9233c72704 OP_EQUALVERIFY OP_CHECKSIG", "type": "pubkeyhash"}, "value": 0.1035, "n": 7}, {"scriptPubKey": {"reqSigs": 1, "hex": "76a914ae687df26e1c18e59fd7b1d718f6c0d2ac6e74ac88ac", "addresses": ["1GuBkcJFASYZt92ctWEo8PW89CVjYLQiJC"], "asm": "OP_DUP OP_HASH160 ae687df26e1c18e59fd7b1d718f6c0d2ac6e74ac OP_EQUALVERIFY OP_CHECKSIG", "type": "pubkeyhash"}, "value": 0.03053, "n": 8}, {"scriptPubKey": {"reqSigs": 1, "hex": "76a9140b503a75e4eeafdf05ee4889950a859e4e9f8b6488ac", "addresses": ["122pYUWvNwYyy9NKa9ZhfCWGAsKPC6ksua"], "asm": "OP_DUP OP_HASH160 0b503a75e4eeafdf05ee4889950a859e4e9f8b64 OP_EQUALVERIFY OP_CHECKSIG", "type": "pubkeyhash"}, "value": 0.4995, "n": 9}, {"scriptPubKey": {"reqSigs": 1, "hex": "a91469f374ac5d36d8c40bfd88395c223186cd33173e87", "addresses": ["3BMEXHgJEVDrqouGHEhPS3grJQdpeDnwrh"], "asm": "OP_HASH160 69f374ac5d36d8c40bfd88395c223186cd33173e OP_EQUAL", "type": "scripthash"}, "value": 0.05951, "n": 10}, {"scriptPubKey": {"reqSigs": 1, "hex": "a91469f3766f43ba9a89290f606ca4a25a2c6ddfdc1987", "addresses": ["3BMEXmQSR66hDAp14WsgNbPyfwNqUnxtqM"], "asm": "OP_HASH160 69f3766f43ba9a89290f606ca4a25a2c6ddfdc19 OP_EQUAL", "type": "scripthash"}, "value": 0.0095, "n": 11}, {"scriptPubKey": {"reqSigs": 1, "hex": "a914a4f614ccb340a888c75bff850d8b61e9365c617087", "addresses": ["3GjFY2dFn7aGBbNaouBSipLoCo39fvh3K7"], "asm": "OP_HASH160 a4f614ccb340a888c75bff850d8b61e9365c6170 OP_EQUAL", "type": "scripthash"}, "value": 0.3258, "n": 12}, {"scriptPubKey": {"reqSigs": 1, "hex": "76a914f188e95ea3485a23e1052a2866218e700181707488ac", "addresses": ["1P27s1vTWD8vLourjaZAF8TrGbnhkce3Qi"], "asm": "OP_DUP OP_HASH160 f188e95ea3485a23e1052a2866218e7001817074 OP_EQUALVERIFY OP_CHECKSIG", "type": "pubkeyhash"}, "value": 0.02698, "n": 13}, {"scriptPubKey": {"reqSigs": 1, "hex": "a914ea7f4391b716c08bf1d7e402fc6cf4c94cdb3ce487", "addresses": ["3P4vVtL4fBxs5R5hvw46V4MTw1UZxajZyy"], "asm": "OP_HASH160 ea7f4391b716c08bf1d7e402fc6cf4c94cdb3ce4 OP_EQUAL", "type": "scripthash"}, "value": 7.42782388, "n": 14}], "hex": "0100000000010a68b0bba2cfc3d7fa1ae1cf766a5ad29fa2afea46a0b7c558a97a7877a98e5d3d0a00000023220020ece4218493d195154e689381a5452035331f81a57ea381fcbc0b43a82200a96effffffff8b8f4850b1f6bffffbf9121580fcd4c9dd90e9db0f0192d1c6762cf5922af8690000000023220020fab7a2b48f5266fe0eab126bdb89fadcc74c959e46c7d807eaf9398d2308d926ffffffff6d9395f478beee095c05e95e77a5486b2f974dc190ee1582bc4e28b78afa091001000000232200209de0ba66f18982575bbe079b5ed334606af4ae04613c34b76327942a559b144cffffffffabc155f44e1bb8369d96963a1b9bc146c4365f6a75743d3dca8b331083ffd4b80000000023220020701c1f370bede822ca618286d928ca7338b5f9f6c744cac46c9d46cb3b3aa911fffffffff318767bfeb897e1c0845795903e023546614e8a3dd89114d3f77b7e0d1859c20100000023220020fde0bad725980550cceae4c5c6336e61235d6d3513ef8d06c1dac22515bf1925ffffffffaca8b914555b567eb5530bd5845bdeacd68d1fc603624941f6e48ddd18ddaee90000000023220020a9037b49575b620d8a9f475c01797616cc3e480ce4bc4d773e1ab3c9d7f2d94dffffffff0b3e117c2c8a21314ec14376e0145d6866ca71a035e30d89a8cc22f4caf1ab9b00000000232200205c589bcc20c102ee584d1791c233a0139a4a8b7f42686fa67b35915a892eb2bdffffffff68b0bba2cfc3d7fa1ae1cf766a5ad29fa2afea46a0b7c558a97a7877a98e5d3d0100000023220020e1b14f2a43ad71c2f4b79b317dbc127f428eb7e7ff7137c0cc20e00d1c342f8effffffff630ae4fbecde06e504e458316962fbcf06104f24cdb1ca12e996f591b862d9ec010000002322002047eb5d04d81db4f185baaa23ac8585fab8f37d6301420f170860f0fb061f3c09ffffffff946790bad3f80f25632c510014f4d4819985df2ae09c8304b5d465a4362c8f090000000023220020fab7a2b48f5266fe0eab126bdb89fadcc74c959e46c7d807eaf9398d2308d926ffffffff0f30d397000000000017a914ae5c087ec8323723e023c98788ec955a526013c887b04862040000000017a914f9d4612149535c58ad0dc8f93f9fe5b01a92f4f487b8a842020000000017a91469f37613b5651f80a3028f35658ec6d0d7cfd84187a0ff55000000000017a9140cb34c1d32f96d38597999a1b65cb3dafeb7d1ec87c8bf2700000000001976a91461b625b3eb6f96791d45fad56f8f30b75fbe512788ac50074900000000001976a91441d0b540c240268e7bfef88e46c7b2f99bd3c8ac88ac902f36000000000017a9143d201b34c495bea9f873ea2a23e44cee052d485a87b0ed9d00000000001976a914c2aa9435dd82c1bb7b6018fb87d7fd9233c7270488acc8952e00000000001976a914ae687df26e1c18e59fd7b1d718f6c0d2ac6e74ac88ac302dfa02000000001976a9140b503a75e4eeafdf05ee4889950a859e4e9f8b6488ac18ce5a000000000017a91469f374ac5d36d8c40bfd88395c223186cd33173e87f07e0e000000000017a91469f3766f43ba9a89290f606ca4a25a2c6ddfdc1987a021f1010000000017a914a4f614ccb340a888c75bff850d8b61e9365c617087102b2900000000001976a914f188e95ea3485a23e1052a2866218e700181707488acb4f5452c0000000017a914ea7f4391b716c08bf1d7e402fc6cf4c94cdb3ce487040047304402201598397390fc4ec911abeb4ec9cb65c75b5bf5cfe4641a2c81305d945c182af0022050524f1535c9d44c0cc7f734c4e834682a72f4434796a0a6dcec04ddd32b079501483045022100c1d32df23ff840a70e54102bf3e03c7af141759807aa01f33d59f082b5f2a6f002203d8ffc74677ce9bf59456c1609d1fcc0388ffd954b7f4e350c28cdf4010aec87016952210379f31f0fb55a5f54a5029e6a28a34e02e72a1c1caff8cec86f3e045bc3159a7a2102d55aa24229db81f076078e92e10c9c3da32e138981ab7565b36ba2c2135a1aed210260e2585c20f853584aa12030d3686389bc7c5e27a6ca8e84fbdc33c365aed00953ae0400483045022100c75fee888a28ef35ab8b194788d143aaf98e9aff479a1fb5ba8fea752dac59c702200e2ac51420b19692c801150ea6648a365d92d08377d677c61ac8f8f9e17735ab0147304402205c5738770a00f4f31c0d0a949809f5d8ade878ea6e8492a49ea5439743a44fb80220596e51b38201d70c2482ec094eff07eec20e8a715d82ab483ee7d162838f7c1c01695221027a6b608246237af32eeba707c01810f8757bc84a85f9c6b1e4d874f49c1a5de52102302a3fadc41584702b33b7a350e24b260474573625c762bcf8d45629f560411921029cd0336b1dacaa2d82dee1260348f2d83f3dd167be9224bba5af70d9b2871ffd53ae0400483045022100f1a23dca9b00561e951ab61dd8b1e72c4fd0a3f9dfdedcb4aa421223f5b9a8c80220024ebd750435c312f44787d07c08317eafa8439522b87f5e539d74e8238d75f201483045022100b02a36ec05a6d0be18c6914174cf67996e8613fa285d4499cf5afdea8e5a407e02205a729ffd47849dbb373f13efb63de8a0f43008e629db229d4082f71dacf8649c01695221037cb65b963f6449419d26390f66739498a599543fc0f525f418d2d26922cd929121027826597530f11d295a3010fa2639c7cc4a190f9d3928d6e4381a3198095279f121038492c3b1be653cef9ff6f78b30d1ff057ee766658ff6f4763b4ea41715627a7e53ae040047304402203b1c39dde932e97e2da3300ba02ff50f7acee5e1de2ffcf8fefaf41eb1b85ef102206cbf404765da6e7561d502fbee6717a923e44b83dfb64a3da69ebafa56f8a8050147304402200ff588c30a4b19d43f0c5d533eabaa57569a33227bbce0b4531e07950b9e3eb4022076e9f923831f285782adda95f144a4f683cdcfaf32284c48c5d40c52f0b4673c0169522103aa480a8eb8d535447840627c25be22bba95bdc272199aa259c6bec94c21ba05121038b1503261813f43b92c2e97fed6be9c47c9d8cad2c7a2537e3a1d176daeda87921023ce27719ca028b9d24a097555131ec706cbf5c24b99a04bdda5bf4f2c715317b53ae0400483045022100c0c3e96ad54be190315d3ec80e720219a1629b2a6eaf0dc87505bb51574f1f90022066a6f95ba5795eae2d85dd2780950f47849b6028078f4a6db6b0ebb921d7d1da014830450221008214aebfc70d88e21bb2802c91ae2acc52e9150f8a7526f9a167952ff8ceb7a60220149f4ec98034b31d02ed704f6cc4e68413897740dd5966e642f0074584eec16701695221035316d0a487106db5d00bb465263b957e7b1ab52199eae679843a72eb81a0ef3f2102b524ed587809d8bb7597a86e0d80245b24094514c411d6d68326d9d254171755210200e64bbfb68e2b18386c2d8aed5bb1f3f1cc66e24dcac0d72c9fc70bf76b1d1953ae0400483045022100d78a8b36af271037e07cafd01986a92dd2a3911f68eefe51510beb89097cfcbc022004c1aa7d08b48479784a568c6ee8755dd956e789a35395b98b884940885b3943014830450221009e90fecee1e536f846929d397b900743d4f720845184d2b83e52e4a3f82f28ff02202d8ed1a6ebc231b2d75708b8b45a73c676763cbc3c998584c84bd72c87c3009301695221032b07440a66c918a69922eb830b7c62c5379b16ae2d9db53b3e110afc1b418f9721037bd0dcde890827279c72f1cfa0b54b26975aacd8d9dfe5de56c34af442babe05210286d70f746be673aaeb9ecb5d5db4d23109cb99ca9ac459bf0c792c048bc250ea53ae040047304402201491bf5dd13275278fd0e7a67e083e3e57419d75760d7bb8f61cf24916ac271c022074d366e424ee98e8ddb9bd8f1c830cb3ba6d689494d6336956526f99ce2ade9e0147304402203ef66b824435dc10ed735d0d8b74a062f5653d973b5ec4f8640e593ce3b0506002207e6bca81e8742bc35bb38aa260b374feeb12c327f3f9d33ea8762593499e19c30169522102f91bae10d0871e67bc69011c21f8426f2e16689c668436407422887093db6feb21020076081b653b4830e51c26ccc5bf84b19c00af08007836a8979b3ba4a46e11002102fca4910960262edc240063ef2fdea4df0602a0061e954e7cb657e9058b1d5e5b53ae0400483045022100a39a4a797975b6d99191e76dcf2e30d599a0466f924bd4e579bc24a627f753d10220597356a425a925c0a585eb2b69c831654120aafcb21c3d813f1a32f07dffaaaa014730440220362bea1d0dba06a62910891233e5297eead96f0e20e9360186fa12302ae23c400220313982b75ce67604fc1a914825282431cd487f2242bd4cda34fe631fd099402b0169522102f8e4a9e33d791b0413ddabe45fa69e9a06b182db6aa2f1f31fdc114156faa8712103f3a5fa5f8ac5bf73e67c7a55b95567e4167b6d9b0934f8f87c6ecc2ed41f85ff210274db05a5ad76a4386c12ec4d0789f7e4818811c445d1c401cefc7c35cddd9ff553ae04004730440220299291d9d06892b48c5b720dfc11e8b9f52e896a55adedc87e429c912980554202202ab61ae9203a384709d2a96ee1f9cf62aadc345b433fece0a31d0e26623e7d9801483045022100d07958ae99bc3c6b164783d1f79b74abaab16ea28f6c00ab1e340806eda772b70220543571ec5316ea0624e3b3d9da4864575b228c143a1dab5b9f236887361f8f4f016952210383028cd181518df11ad561b9b31af9218bf69905f225cbad2fe54260b3594ce02103199f4c4d0adc72fdfa572fbcc1bbf98d02bdcc0c5d1a9f99dede2baf37e76de421031aa92e5165302f6d5be98311f9b855146dfa4e5270a6054fb21331d20fbe281f53ae04004830450221009e24545af3da6685ceba980abfdf4de506fe50fa7199982161f7f3855a0c367e02206b670319e9cac89619b3b3b67a0e9d07fd247e42c74bc2d8d91991247b650f1b01483045022100a4ddf591efcc41622c6bb2f76f30736d197c1d7251368c297910c40ea64559840220125adcce0a147afd7baed31e3981f44bd3cdc312b2e58f4bb458963207e6ef5e01695221027a6b608246237af32eeba707c01810f8757bc84a85f9c6b1e4d874f49c1a5de52102302a3fadc41584702b33b7a350e24b260474573625c762bcf8d45629f560411921029cd0336b1dacaa2d82dee1260348f2d83f3dd167be9224bba5af70d9b2871ffd53ae00000000", "vin": [{"txinwitness": ["", "304402201598397390fc4ec911abeb4ec9cb65c75b5bf5cfe4641a2c81305d945c182af0022050524f1535c9d44c0cc7f734c4e834682a72f4434796a0a6dcec04ddd32b079501", "3045022100c1d32df23ff840a70e54102bf3e03c7af141759807aa01f33d59f082b5f2a6f002203d8ffc74677ce9bf59456c1609d1fcc0388ffd954b7f4e350c28cdf4010aec8701", "52210379f31f0fb55a5f54a5029e6a28a34e02e72a1c1caff8cec86f3e045bc3159a7a2102d55aa24229db81f076078e92e10c9c3da32e138981ab7565b36ba2c2135a1aed210260e2585c20f853584aa12030d3686389bc7c5e27a6ca8e84fbdc33c365aed00953ae"], "sequence": 4294967295, "scriptSig": {"hex": "220020ece4218493d195154e689381a5452035331f81a57ea381fcbc0b43a82200a96e", "asm": "0020ece4218493d195154e689381a5452035331f81a57ea381fcbc0b43a82200a96e"}, "vout": 10, "txid": "3d5d8ea977787aa958c5b7a046eaafa29fd25a6a76cfe11afad7c3cfa2bbb068"}, {"txinwitness": ["", "3045022100c75fee888a28ef35ab8b194788d143aaf98e9aff479a1fb5ba8fea752dac59c702200e2ac51420b19692c801150ea6648a365d92d08377d677c61ac8f8f9e17735ab01", "304402205c5738770a00f4f31c0d0a949809f5d8ade878ea6e8492a49ea5439743a44fb80220596e51b38201d70c2482ec094eff07eec20e8a715d82ab483ee7d162838f7c1c01", "5221027a6b608246237af32eeba707c01810f8757bc84a85f9c6b1e4d874f49c1a5de52102302a3fadc41584702b33b7a350e24b260474573625c762bcf8d45629f560411921029cd0336b1dacaa2d82dee1260348f2d83f3dd167be9224bba5af70d9b2871ffd53ae"], "sequence": 4294967295, "scriptSig": {"hex": "220020fab7a2b48f5266fe0eab126bdb89fadcc74c959e46c7d807eaf9398d2308d926", "asm": "0020fab7a2b48f5266fe0eab126bdb89fadcc74c959e46c7d807eaf9398d2308d926"}, "vout": 0, "txid": "69f82a92f52c76c6d192010fdbe990ddc9d4fc801512f9fbffbff6b150488f8b"}, {"txinwitness": ["", "3045022100f1a23dca9b00561e951ab61dd8b1e72c4fd0a3f9dfdedcb4aa421223f5b9a8c80220024ebd750435c312f44787d07c08317eafa8439522b87f5e539d74e8238d75f201", "3045022100b02a36ec05a6d0be18c6914174cf67996e8613fa285d4499cf5afdea8e5a407e02205a729ffd47849dbb373f13efb63de8a0f43008e629db229d4082f71dacf8649c01", "5221037cb65b963f6449419d26390f66739498a599543fc0f525f418d2d26922cd929121027826597530f11d295a3010fa2639c7cc4a190f9d3928d6e4381a3198095279f121038492c3b1be653cef9ff6f78b30d1ff057ee766658ff6f4763b4ea41715627a7e53ae"], "sequence": 4294967295, "scriptSig": {"hex": "2200209de0ba66f18982575bbe079b5ed334606af4ae04613c34b76327942a559b144c", "asm": "00209de0ba66f18982575bbe079b5ed334606af4ae04613c34b76327942a559b144c"}, "vout": 1, "txid": "1009fa8ab7284ebc8215ee90c14d972f6b48a5775ee9055c09eebe78f495936d"}, {"txinwitness": ["", "304402203b1c39dde932e97e2da3300ba02ff50f7acee5e1de2ffcf8fefaf41eb1b85ef102206cbf404765da6e7561d502fbee6717a923e44b83dfb64a3da69ebafa56f8a80501", "304402200ff588c30a4b19d43f0c5d533eabaa57569a33227bbce0b4531e07950b9e3eb4022076e9f923831f285782adda95f144a4f683cdcfaf32284c48c5d40c52f0b4673c01", "522103aa480a8eb8d535447840627c25be22bba95bdc272199aa259c6bec94c21ba05121038b1503261813f43b92c2e97fed6be9c47c9d8cad2c7a2537e3a1d176daeda87921023ce27719ca028b9d24a097555131ec706cbf5c24b99a04bdda5bf4f2c715317b53ae"], "sequence": 4294967295, "scriptSig": {"hex": "220020701c1f370bede822ca618286d928ca7338b5f9f6c744cac46c9d46cb3b3aa911", "asm": "0020701c1f370bede822ca618286d928ca7338b5f9f6c744cac46c9d46cb3b3aa911"}, "vout": 0, "txid": "b8d4ff8310338bca3d3d74756a5f36c446c19b1b3a96969d36b81b4ef455c1ab"}, {"txinwitness": ["", "3045022100c0c3e96ad54be190315d3ec80e720219a1629b2a6eaf0dc87505bb51574f1f90022066a6f95ba5795eae2d85dd2780950f47849b6028078f4a6db6b0ebb921d7d1da01", "30450221008214aebfc70d88e21bb2802c91ae2acc52e9150f8a7526f9a167952ff8ceb7a60220149f4ec98034b31d02ed704f6cc4e68413897740dd5966e642f0074584eec16701", "5221035316d0a487106db5d00bb465263b957e7b1ab52199eae679843a72eb81a0ef3f2102b524ed587809d8bb7597a86e0d80245b24094514c411d6d68326d9d254171755210200e64bbfb68e2b18386c2d8aed5bb1f3f1cc66e24dcac0d72c9fc70bf76b1d1953ae"], "sequence": 4294967295, "scriptSig": {"hex": "220020fde0bad725980550cceae4c5c6336e61235d6d3513ef8d06c1dac22515bf1925", "asm": "0020fde0bad725980550cceae4c5c6336e61235d6d3513ef8d06c1dac22515bf1925"}, "vout": 1, "txid": "c259180d7e7bf7d31491d83d8a4e614635023e90955784c0e197b8fe7b7618f3"}, {"txinwitness": ["", "3045022100d78a8b36af271037e07cafd01986a92dd2a3911f68eefe51510beb89097cfcbc022004c1aa7d08b48479784a568c6ee8755dd956e789a35395b98b884940885b394301", "30450221009e90fecee1e536f846929d397b900743d4f720845184d2b83e52e4a3f82f28ff02202d8ed1a6ebc231b2d75708b8b45a73c676763cbc3c998584c84bd72c87c3009301", "5221032b07440a66c918a69922eb830b7c62c5379b16ae2d9db53b3e110afc1b418f9721037bd0dcde890827279c72f1cfa0b54b26975aacd8d9dfe5de56c34af442babe05210286d70f746be673aaeb9ecb5d5db4d23109cb99ca9ac459bf0c792c048bc250ea53ae"], "sequence": 4294967295, "scriptSig": {"hex": "220020a9037b49575b620d8a9f475c01797616cc3e480ce4bc4d773e1ab3c9d7f2d94d", "asm": "0020a9037b49575b620d8a9f475c01797616cc3e480ce4bc4d773e1ab3c9d7f2d94d"}, "vout": 0, "txid": "e9aedd18dd8de4f641496203c61f8dd6acde5b84d50b53b57e565b5514b9a8ac"}, {"txinwitness": ["", "304402201491bf5dd13275278fd0e7a67e083e3e57419d75760d7bb8f61cf24916ac271c022074d366e424ee98e8ddb9bd8f1c830cb3ba6d689494d6336956526f99ce2ade9e01", "304402203ef66b824435dc10ed735d0d8b74a062f5653d973b5ec4f8640e593ce3b0506002207e6bca81e8742bc35bb38aa260b374feeb12c327f3f9d33ea8762593499e19c301", "522102f91bae10d0871e67bc69011c21f8426f2e16689c668436407422887093db6feb21020076081b653b4830e51c26ccc5bf84b19c00af08007836a8979b3ba4a46e11002102fca4910960262edc240063ef2fdea4df0602a0061e954e7cb657e9058b1d5e5b53ae"], "sequence": 4294967295, "scriptSig": {"hex": "2200205c589bcc20c102ee584d1791c233a0139a4a8b7f42686fa67b35915a892eb2bd", "asm": "00205c589bcc20c102ee584d1791c233a0139a4a8b7f42686fa67b35915a892eb2bd"}, "vout": 0, "txid": "9babf1caf422cca8890de335a071ca66685d14e07643c14e31218a2c7c113e0b"}, {"txinwitness": ["", "3045022100a39a4a797975b6d99191e76dcf2e30d599a0466f924bd4e579bc24a627f753d10220597356a425a925c0a585eb2b69c831654120aafcb21c3d813f1a32f07dffaaaa01", "30440220362bea1d0dba06a62910891233e5297eead96f0e20e9360186fa12302ae23c400220313982b75ce67604fc1a914825282431cd487f2242bd4cda34fe631fd099402b01", "522102f8e4a9e33d791b0413ddabe45fa69e9a06b182db6aa2f1f31fdc114156faa8712103f3a5fa5f8ac5bf73e67c7a55b95567e4167b6d9b0934f8f87c6ecc2ed41f85ff210274db05a5ad76a4386c12ec4d0789f7e4818811c445d1c401cefc7c35cddd9ff553ae"], "sequence": 4294967295, "scriptSig": {"hex": "220020e1b14f2a43ad71c2f4b79b317dbc127f428eb7e7ff7137c0cc20e00d1c342f8e", "asm": "0020e1b14f2a43ad71c2f4b79b317dbc127f428eb7e7ff7137c0cc20e00d1c342f8e"}, "vout": 1, "txid": "3d5d8ea977787aa958c5b7a046eaafa29fd25a6a76cfe11afad7c3cfa2bbb068"}, {"txinwitness": ["", "30440220299291d9d06892b48c5b720dfc11e8b9f52e896a55adedc87e429c912980554202202ab61ae9203a384709d2a96ee1f9cf62aadc345b433fece0a31d0e26623e7d9801", "3045022100d07958ae99bc3c6b164783d1f79b74abaab16ea28f6c00ab1e340806eda772b70220543571ec5316ea0624e3b3d9da4864575b228c143a1dab5b9f236887361f8f4f01", "52210383028cd181518df11ad561b9b31af9218bf69905f225cbad2fe54260b3594ce02103199f4c4d0adc72fdfa572fbcc1bbf98d02bdcc0c5d1a9f99dede2baf37e76de421031aa92e5165302f6d5be98311f9b855146dfa4e5270a6054fb21331d20fbe281f53ae"], "sequence": 4294967295, "scriptSig": {"hex": "22002047eb5d04d81db4f185baaa23ac8585fab8f37d6301420f170860f0fb061f3c09", "asm": "002047eb5d04d81db4f185baaa23ac8585fab8f37d6301420f170860f0fb061f3c09"}, "vout": 1, "txid": "ecd962b891f596e912cab1cd244f1006cffb62693158e404e506deecfbe40a63"}, {"txinwitness": ["", "30450221009e24545af3da6685ceba980abfdf4de506fe50fa7199982161f7f3855a0c367e02206b670319e9cac89619b3b3b67a0e9d07fd247e42c74bc2d8d91991247b650f1b01", "3045022100a4ddf591efcc41622c6bb2f76f30736d197c1d7251368c297910c40ea64559840220125adcce0a147afd7baed31e3981f44bd3cdc312b2e58f4bb458963207e6ef5e01", "5221027a6b608246237af32eeba707c01810f8757bc84a85f9c6b1e4d874f49c1a5de52102302a3fadc41584702b33b7a350e24b260474573625c762bcf8d45629f560411921029cd0336b1dacaa2d82dee1260348f2d83f3dd167be9224bba5af70d9b2871ffd53ae"], "sequence": 4294967295, "scriptSig": {"hex": "220020fab7a2b48f5266fe0eab126bdb89fadcc74c959e46c7d807eaf9398d2308d926", "asm": "0020fab7a2b48f5266fe0eab126bdb89fadcc74c959e46c7d807eaf9398d2308d926"}, "vout": 0, "txid": "098f2c36a465d4b504839ce02adf859981d4f41400512c63250ff8d3ba906794"}], "txid": "367eb81177acf236ebfc5c3798a06695fa4f9188f7a8594253f9af48803bf14f", "blocktime": 1537872475, "version": 1, "confirmations": 11486, "time": 1537872475, "locktime": 0, "vsize": 1896, "size": 3796}