{"hash": "367fa907ce1cf949f3504d6134b8523215d9f6e9c167874b4f4cfa78936fffbc", "blockhash": "000000000000000000022b45ed06c6f4ccd3cf7fb5ba4856ebd2e58215665228", "vout": [{"scriptPubKey": {"reqSigs": 1, "hex": "76a9143ff4b71993fb94d6544106624473c6835222b64e88ac", "addresses": ["16qAjCUcH4ngSEpZM6BLHnNn3ueoxRnmHm"], "asm": "OP_DUP OP_HASH160 3ff4b71993fb94d6544106624473c6835222b64e OP_EQUALVERIFY OP_CHECKSIG", "type": "pubkeyhash"}, "value": 0.00107904, "n": 0}, {"scriptPubKey": {"reqSigs": 1, "hex": "a914a77a0a29ba88f42336f57b47e4595dfd3d81610987", "addresses": ["3GxYy3eKAWafdWQSVrWZyLrruNUkLbMgRF"], "asm": "OP_HASH160 a77a0a29ba88f42336f57b47e4595dfd3d816109 OP_EQUAL", "type": "scripthash"}, "value": 0.005078, "n": 1}], "hex": "01000000012222b631409e828b87862e37718b6ef9906d7f84e108f1c53724bf6e9b5c616c000000006b483045022100fd1cf423f5f81f600a7598bee4c67291e436eed32bcfa5da7fb6f14dcba9d7940220113712fe067ce6ae7504637e15267a3849c4e664956b9d3ede4e1392d03cc4b40121035bd3c39415cb63d8cc030de2cbf5465807c65ffd394d8ae2ed03c54c894860ddffffffff0280a50100000000001976a9143ff4b71993fb94d6544106624473c6835222b64e88ac98bf07000000000017a914a77a0a29ba88f42336f57b47e4595dfd3d8161098700000000", "vin": [{"sequence": 4294967295, "scriptSig": {"hex": "483045022100fd1cf423f5f81f600a7598bee4c67291e436eed32bcfa5da7fb6f14dcba9d7940220113712fe067ce6ae7504637e15267a3849c4e664956b9d3ede4e1392d03cc4b40121035bd3c39415cb63d8cc030de2cbf5465807c65ffd394d8ae2ed03c54c894860dd", "asm": "3045022100fd1cf423f5f81f600a7598bee4c67291e436eed32bcfa5da7fb6f14dcba9d7940220113712fe067ce6ae7504637e15267a3849c4e664956b9d3ede4e1392d03cc4b4[ALL] 035bd3c39415cb63d8cc030de2cbf5465807c65ffd394d8ae2ed03c54c894860dd"}, "vout": 0, "txid": "6c615c9b6ebf2437c5f108e1847f6d90f96e8b71372e86878b829e4031b62222"}], "txid": "367fa907ce1cf949f3504d6134b8523215d9f6e9c167874b4f4cfa78936fffbc", "blocktime": 1537869901, "version": 1, "confirmations": 11523, "time": 1537869901, "locktime": 0, "vsize": 224, "size": 224}