{"hash": "36816de45b329e339325805d73eadea29f72264fd98ef300fd4a1371574b8ff8", "blockhash": "00000000000000000024a2167bbff67b0be802c0b01cdd79e6331c2be6459f87", "vout": [{"scriptPubKey": {"reqSigs": 1, "hex": "a914c4177e2b60e4a2e5996788cc27711e28d392722087", "addresses": ["3KZrWTJYnQZWLowxqmXH3YKjGg6TbK21av"], "asm": "OP_HASH160 c4177e2b60e4a2e5996788cc27711e28d3927220 OP_EQUAL", "type": "scripthash"}, "value": 0.07804, "n": 0}, {"scriptPubKey": {"reqSigs": 1, "hex": "76a9147e7353a1cc2eca57a6fb5d635b44d2feded0fe8688ac", "addresses": ["1CXcJD9JVKSzoRFiUob2B474g1xFdprLd5"], "asm": "OP_DUP OP_HASH160 7e7353a1cc2eca57a6fb5d635b44d2feded0fe86 OP_EQUALVERIFY OP_CHECKSIG", "type": "pubkeyhash"}, "value": 0.1680695, "n": 1}], "hex": "0100000001658da7b7802879d4e23761caaf662940107f2d50596513920b919bead7c2c760010000006b483045022100b809612ce7fdd61938edb933095a3bece77e2505ab66d921e99db14657b8c0c202206236e0d647a35b6a0f63656fe0a3ce06f1032865c66aa63f50774c24780295ab012103b60993988d1b0f4e9ade90ac9d2d25cd9669a111dc4fed60812a9396a1c9443bffffffff02601477000000000017a914c4177e2b60e4a2e5996788cc27711e28d39272208726740001000000001976a9147e7353a1cc2eca57a6fb5d635b44d2feded0fe8688ac00000000", "vin": [{"sequence": 4294967295, "scriptSig": {"hex": "483045022100b809612ce7fdd61938edb933095a3bece77e2505ab66d921e99db14657b8c0c202206236e0d647a35b6a0f63656fe0a3ce06f1032865c66aa63f50774c24780295ab012103b60993988d1b0f4e9ade90ac9d2d25cd9669a111dc4fed60812a9396a1c9443b", "asm": "3045022100b809612ce7fdd61938edb933095a3bece77e2505ab66d921e99db14657b8c0c202206236e0d647a35b6a0f63656fe0a3ce06f1032865c66aa63f50774c24780295ab[ALL] 03b60993988d1b0f4e9ade90ac9d2d25cd9669a111dc4fed60812a9396a1c9443b"}, "vout": 1, "txid": "60c7c2d7ea9b910b92136559502d7f10402966afca6137e2d4792880b7a78d65"}], "txid": "36816de45b329e339325805d73eadea29f72264fd98ef300fd4a1371574b8ff8", "blocktime": 1537870564, "version": 1, "confirmations": 11515, "time": 1537870564, "locktime": 0, "vsize": 224, "size": 224}