{"hash": "3681755ef5dc94fd46b7dfad4fb031c331eaee02bacae243e68d6876d474fcc7", "blockhash": "0000000000000000001f76057863aec43deb6fa401d9628bb513d65a8098bfab", "vout": [{"scriptPubKey": {"reqSigs": 1, "hex": "76a914065efbefd32ff7a403cbd788e3d4ca671742862888ac", "addresses": ["1agqmJndAVfcYzN1CxAjG4CFPLEEqe7Qn"], "asm": "OP_DUP OP_HASH160 065efbefd32ff7a403cbd788e3d4ca6717428628 OP_EQUALVERIFY OP_CHECKSIG", "type": "pubkeyhash"}, "value": 0.102969, "n": 0}, {"scriptPubKey": {"reqSigs": 1, "hex": "76a914d4d697ecf928ee3c3a7b321ccecc2ae5fc465e0688ac", "addresses": ["1LQPKtDUxhDjNaxegZ4YP6wkexrd3vMWAE"], "asm": "OP_DUP OP_HASH160 d4d697ecf928ee3c3a7b321ccecc2ae5fc465e06 OP_EQUALVERIFY OP_CHECKSIG", "type": "pubkeyhash"}, "value": 0.19723874, "n": 1}], "hex": "0100000001f7211c7339b66b33263ea06de53819e83d9ead02039a59e970e3d34781a4c0d1000000006a47304402205f94d668da935a6eccf7e4df9581914a7079a8debc32969b2a28d2cec2154f7c02201eaa585d96cdc51ee486f4043ec40dba6727b2751bc34169e7ce391546fb952c01210238f619b55679a89188e873cd55e9e8aa186c0fae269433be71c5478c660b163efeffffff02441e9d00000000001976a914065efbefd32ff7a403cbd788e3d4ca671742862888ac62f62c01000000001976a914d4d697ecf928ee3c3a7b321ccecc2ae5fc465e0688ac14490800", "vin": [{"sequence": 4294967294, "scriptSig": {"hex": "47304402205f94d668da935a6eccf7e4df9581914a7079a8debc32969b2a28d2cec2154f7c02201eaa585d96cdc51ee486f4043ec40dba6727b2751bc34169e7ce391546fb952c01210238f619b55679a89188e873cd55e9e8aa186c0fae269433be71c5478c660b163e", "asm": "304402205f94d668da935a6eccf7e4df9581914a7079a8debc32969b2a28d2cec2154f7c02201eaa585d96cdc51ee486f4043ec40dba6727b2751bc34169e7ce391546fb952c[ALL] 0238f619b55679a89188e873cd55e9e8aa186c0fae269433be71c5478c660b163e"}, "vout": 0, "txid": "d1c0a48147d3e370e9599a0302ad9e3de81938e56da03e26336bb639731c21f7"}], "txid": "3681755ef5dc94fd46b7dfad4fb031c331eaee02bacae243e68d6876d474fcc7", "blocktime": 1537873891, "version": 1, "confirmations": 11474, "time": 1537873891, "locktime": 542996, "vsize": 225, "size": 225}