{"hash": "2751539ccf5a8cf7ba25a2d75da3bcb6c9f463e525341226e5c9dd90290d1c05", "blockhash": "000000000000000000022b45ed06c6f4ccd3cf7fb5ba4856ebd2e58215665228", "vout": [{"scriptPubKey": {"reqSigs": 1, "hex": "a91468a0e82ae5b43a060813acc0aa29e1d07cb6862587", "addresses": ["3BEExW4TeGVsJxXjiBKr978UXKZuEfBWdx"], "asm": "OP_HASH160 68a0e82ae5b43a060813acc0aa29e1d07cb68625 OP_EQUAL", "type": "scripthash"}, "value": 0.00780277, "n": 0}, {"scriptPubKey": {"reqSigs": 1, "hex": "a914becfd873ae5ed754ff198c8c3c7e738cff44de2487", "addresses": ["3K5wJMKMaJ9uQ29RMpyaacPnPRARjJxG1W"], "asm": "OP_HASH160 becfd873ae5ed754ff198c8c3c7e738cff44de24 OP_EQUAL", "type": "scripthash"}, "value": 0.048, "n": 1}], "hex": "0100000000010278763191a6bd5a20f6652c4e479bf34409b5942ad6009d8fe00466b23a97cc5b01000000232200200cf4064a42bd982d57cac9a99d5ecb14a0f5b20c783296082314e8e37cdbbd69fdffffff65033c0455bc6a20393d15de585fe17f99f6246a25754dd8e5750950543716520100000023220020a065e58ec05892a586ca52321653e23c64abf81337ce3637c89f32fc53c402e1fdffffff02f5e70b000000000017a91468a0e82ae5b43a060813acc0aa29e1d07cb6862587003e49000000000017a914becfd873ae5ed754ff198c8c3c7e738cff44de24870400473044022014c2ff21fede83bd98ab9d941987b1757e4b0b77f890c24788746373805018ac0220743510c00486e43691e9fa05239be5d2ecbaa138d22a67c29bbc649a3733e67c01483045022100f73a558871ebd34b0a6bd31d1952784042fbf23d29f329deedf34f519f819eed02204a3293c0dd381082a3b98d2c9f1cb19fae4a1b7a52dc2d171e94bd3665ba97dc0147522103611d62be073d205b404a6f5dc7921d7f771ac734722365f21999205c0e6cb2cd210388973cc22c03b3905df61dcc512f61677f32aaabb3f0db22e90228ebdf891c8552ae0400483045022100f785ff6c93c410db6d62ca631d0a75d377fea7efb2ef67d9412ad7e96abb810d022075b38ea9c4490469ecf49c9e9eae4f2e5d2e49d1a78f0b2648bee46811f2dcbe0147304402206b9b8c34d4f56811222e330691843fd5f83b039248626115e420a7ebc9d60ca70220690e88f1c1c2df8dc06b1b10d9e1968ed86955458418dca61a28a0159f1b4d92014752210374ba4aa4c8f27dd846623f8c4b165b3c7a0d21e6d6ad1e00ced2005b6adb0d8c21033eacfda75e025f14df733782284f66650f53fc21cfeccb7b980f39c37101ad2552ae0a490800", "vin": [{"txinwitness": ["", "3044022014c2ff21fede83bd98ab9d941987b1757e4b0b77f890c24788746373805018ac0220743510c00486e43691e9fa05239be5d2ecbaa138d22a67c29bbc649a3733e67c01", "3045022100f73a558871ebd34b0a6bd31d1952784042fbf23d29f329deedf34f519f819eed02204a3293c0dd381082a3b98d2c9f1cb19fae4a1b7a52dc2d171e94bd3665ba97dc01", "522103611d62be073d205b404a6f5dc7921d7f771ac734722365f21999205c0e6cb2cd210388973cc22c03b3905df61dcc512f61677f32aaabb3f0db22e90228ebdf891c8552ae"], "sequence": 4294967293, "scriptSig": {"hex": "2200200cf4064a42bd982d57cac9a99d5ecb14a0f5b20c783296082314e8e37cdbbd69", "asm": "00200cf4064a42bd982d57cac9a99d5ecb14a0f5b20c783296082314e8e37cdbbd69"}, "vout": 1, "txid": "5bcc973ab26604e08f9d00d62a94b50944f39b474e2c65f6205abda691317678"}, {"txinwitness": ["", "3045022100f785ff6c93c410db6d62ca631d0a75d377fea7efb2ef67d9412ad7e96abb810d022075b38ea9c4490469ecf49c9e9eae4f2e5d2e49d1a78f0b2648bee46811f2dcbe01", "304402206b9b8c34d4f56811222e330691843fd5f83b039248626115e420a7ebc9d60ca70220690e88f1c1c2df8dc06b1b10d9e1968ed86955458418dca61a28a0159f1b4d9201", "52210374ba4aa4c8f27dd846623f8c4b165b3c7a0d21e6d6ad1e00ced2005b6adb0d8c21033eacfda75e025f14df733782284f66650f53fc21cfeccb7b980f39c37101ad2552ae"], "sequence": 4294967293, "scriptSig": {"hex": "220020a065e58ec05892a586ca52321653e23c64abf81337ce3637c89f32fc53c402e1", "asm": "0020a065e58ec05892a586ca52321653e23c64abf81337ce3637c89f32fc53c402e1"}, "vout": 1, "txid": "52163754500975e5d84d75256a24f6997fe15f58de153d39206abc55043c0365"}], "txid": "368ddcdc222bad23b40e0b1845558098520b160d0e0d9331e7a0bbc1b2691a7f", "blocktime": 1537869901, "version": 1, "confirmations": 11524, "time": 1537869901, "locktime": 542986, "vsize": 336, "size": 666}