{"hash": "10d978eed5010d4c23c9e0d1ca87e754de3de7bf6c20b960ef5bb54365d636d5", "blockhash": "0000000000000000000e13cef7c366c0283d82e591d1acd082e914b08063cdf1", "vout": [{"scriptPubKey": {"reqSigs": 1, "hex": "0014522e78989e3f033392cf9ee99fec34ebd088d374", "addresses": ["bc1q2gh83xy78upn8yk0nm5elmp5a0gg35m5frrex3"], "asm": "0 522e78989e3f033392cf9ee99fec34ebd088d374", "type": "witness_v0_keyhash"}, "value": 7.95516336, "n": 0}, {"scriptPubKey": {"reqSigs": 1, "hex": "a91415e04e08600d0a54131a2f78c47df95125a659a187", "addresses": ["33ggpYWD86vCtiSRJSBmFkgCLHKHENN2qv"], "asm": "OP_HASH160 15e04e08600d0a54131a2f78c47df95125a659a1 OP_EQUAL", "type": "scripthash"}, "value": 0.1, "n": 1}], "hex": "020000000001017d27318a799f0c7d904d03753f1051acad7768040770cec999953d8d22efc03b0000000000ffffffff02b09d6a2f00000000160014522e78989e3f033392cf9ee99fec34ebd088d374809698000000000017a91415e04e08600d0a54131a2f78c47df95125a659a18702473044022006350771eb9b975602d5b897568a10c3910609a22fdbeac3e479295e995303e6022028dc445aa3fad2f05b5a1c32a3dc8cc034b701fb892174600ae3706d5fa77d07012103342d87f4e48b528af68c8c4f7a2e56d689f4f16310cb54548dc8dd5f595a446900000000", "vin": [{"txinwitness": ["3044022006350771eb9b975602d5b897568a10c3910609a22fdbeac3e479295e995303e6022028dc445aa3fad2f05b5a1c32a3dc8cc034b701fb892174600ae3706d5fa77d0701", "03342d87f4e48b528af68c8c4f7a2e56d689f4f16310cb54548dc8dd5f595a4469"], "sequence": 4294967295, "scriptSig": {"hex": "", "asm": ""}, "vout": 0, "txid": "3bc0ef228d3d9599c9ce7007046877adac51103f75034d907d0c9f798a31277d"}], "txid": "368da09da7e0a766c947c3354fb4b8da125a0b7dd3a08d7993d0d89d923a7055", "blocktime": 1537871767, "version": 2, "confirmations": 11491, "time": 1537871767, "locktime": 0, "vsize": 142, "size": 223}