{"hash": "ed1ca0c2b615bdd91c723b2648ad1c4b6c1b6966d31a657b8fe30297536d773c", "blockhash": "0000000000000000000baef3f32e3676a92c3b2e5da21b426e4f302fc371ce76", "vout": [{"scriptPubKey": {"reqSigs": 1, "hex": "76a914b17448165253626367bb17c1f63a536c0ba9d1cd88ac", "addresses": ["1HBHuLkaWVtkUBXK4hzU5dWrLdfm3uB4Z6"], "asm": "OP_DUP OP_HASH160 b17448165253626367bb17c1f63a536c0ba9d1cd OP_EQUALVERIFY OP_CHECKSIG", "type": "pubkeyhash"}, "value": 0.00104444, "n": 0}, {"scriptPubKey": {"reqSigs": 1, "hex": "a9140be7846be16b05bea00dbec2fcd7e045a793cb1787", "addresses": ["32mxhko5mJHfkbkDPpz7SfdJwEJi21P1WK"], "asm": "OP_HASH160 0be7846be16b05bea00dbec2fcd7e045a793cb17 OP_EQUAL", "type": "scripthash"}, "value": 0.17736698, "n": 1}], "hex": "010000000001015fa42c88016cc04e3232cd4bb046fe9f854b1f0c9b253d8836174c7685fab2b301000000232200202c66ece6da72bcbfeadf83a91236f4891c13e14d8ecebdcaa81666fc1aa73a31ffffffff02fc970100000000001976a914b17448165253626367bb17c1f63a536c0ba9d1cd88acfaa30e010000000017a9140be7846be16b05bea00dbec2fcd7e045a793cb17870400483045022100eb5b2b5497e2f27383c3e81e86b7d1e929dccf3d90b8120441cce49c212e4c8b02201c3534ffc15cf417a22ac36f9ce776e5877fa74852a17c78c062f59a4e790bc701473044022019f7efe04c38a01a42b00a299cf68e2fa29b1b9abef2d1baf0bc5ac0f51d5222022049f36dfb54a757608f75cd4f9237c804f4e7515c08798eed6756291e3834359201475221029e6fbb942d34a473faaa5557c1bfe08d72102f0b9754ad140fd369d7a3ba3cdc2103871fc2ca08e6950b38867e8e6a0e94ee625223d3aa0df5c65f414c6d784467e252ae00000000", "vin": [{"txinwitness": ["", "3045022100eb5b2b5497e2f27383c3e81e86b7d1e929dccf3d90b8120441cce49c212e4c8b02201c3534ffc15cf417a22ac36f9ce776e5877fa74852a17c78c062f59a4e790bc701", "3044022019f7efe04c38a01a42b00a299cf68e2fa29b1b9abef2d1baf0bc5ac0f51d5222022049f36dfb54a757608f75cd4f9237c804f4e7515c08798eed6756291e3834359201", "5221029e6fbb942d34a473faaa5557c1bfe08d72102f0b9754ad140fd369d7a3ba3cdc2103871fc2ca08e6950b38867e8e6a0e94ee625223d3aa0df5c65f414c6d784467e252ae"], "sequence": 4294967295, "scriptSig": {"hex": "2200202c66ece6da72bcbfeadf83a91236f4891c13e14d8ecebdcaa81666fc1aa73a31", "asm": "00202c66ece6da72bcbfeadf83a91236f4891c13e14d8ecebdcaa81666fc1aa73a31"}, "vout": 1, "txid": "b3b2fa85764c1736883d259b0c1f4b859ffe46b04bcd32324ec06c01882ca45f"}], "txid": "368d4e02ca097f4af1a636512081c5abd5e101159a7e1aca38fc19a152cb4194", "blocktime": 1537876114, "version": 1, "confirmations": 11460, "time": 1537876114, "locktime": 0, "vsize": 208, "size": 373}