{"hash": "a98d766efb2be4605b7ceb4477415d1392898257d2da1a0b53d54735a09efb37", "blockhash": "00000000000000000018f53835495a110e01622372bf6ae95dc86f2b0ab887b0", "vout": [{"scriptPubKey": {"reqSigs": 1, "hex": "00149e9fe025be2f67319a931fbebf27cf622e6efeca", "addresses": ["bc1qn607qfd79annrx5nr7lt7f70vghxalk2ez80m9"], "asm": "0 9e9fe025be2f67319a931fbebf27cf622e6efeca", "type": "witness_v0_keyhash"}, "value": 0.00133598, "n": 0}, {"scriptPubKey": {"reqSigs": 1, "hex": "76a914dbcfc08ef432e8d7317cb753bff7d6e64d1eea6688ac", "addresses": ["1M3FrtMkcywZwMac5n7xJWma9t4y7sq31p"], "asm": "OP_DUP OP_HASH160 dbcfc08ef432e8d7317cb753bff7d6e64d1eea66 OP_EQUALVERIFY OP_CHECKSIG", "type": "pubkeyhash"}, "value": 0.00646836, "n": 1}], "hex": "010000000001017e8b395917437b8e0d38a31c579d9b7e1c33203d12db6568d991fd446c87b6c90a00000017160014ca47031750385a79132348ce0c3fbd1bb4272991ffffffff02de090200000000001600149e9fe025be2f67319a931fbebf27cf622e6efecab4de0900000000001976a914dbcfc08ef432e8d7317cb753bff7d6e64d1eea6688ac02483045022100921024b4fb8e776d6eb080e12474d38920db151cfb58dfa185bbc396dcc1cb93022071ac3b3452fc7bb1be1c958bcd7fcfaf4588560523999235f6f82aedf2e41a5a012102d88ab0c50da54bf51d133d04246807da6be1aa404eec7193d63183277ac1987600000000", "vin": [{"txinwitness": ["3045022100921024b4fb8e776d6eb080e12474d38920db151cfb58dfa185bbc396dcc1cb93022071ac3b3452fc7bb1be1c958bcd7fcfaf4588560523999235f6f82aedf2e41a5a01", "02d88ab0c50da54bf51d133d04246807da6be1aa404eec7193d63183277ac19876"], "sequence": 4294967295, "scriptSig": {"hex": "160014ca47031750385a79132348ce0c3fbd1bb4272991", "asm": "0014ca47031750385a79132348ce0c3fbd1bb4272991"}, "vout": 10, "txid": "c9b6876c44fd91d96865db123d20331c7e9b9d571ca3380d8e7b431759398b7e"}], "txid": "3691afdbbc03c00db0d4db9d1200cf4f7df76a68a40a72f0358ba0c6e4de2987", "blocktime": 1537870928, "version": 1, "confirmations": 11514, "time": 1537870928, "locktime": 0, "vsize": 167, "size": 249}