{"hash": "36934ee33212ce556cb9afe09f81f9e5c3f97e3ca558e236bd29dde363f87faf", "blockhash": "0000000000000000000baef3f32e3676a92c3b2e5da21b426e4f302fc371ce76", "vout": [{"scriptPubKey": {"reqSigs": 1, "hex": "76a91406c879c50375a0cd702dbc17d25efbf9c2952f1788ac", "addresses": ["1csDSmJqtX4ToQv1oYiFQFYpV8z48GTfk"], "asm": "OP_DUP OP_HASH160 06c879c50375a0cd702dbc17d25efbf9c2952f17 OP_EQUALVERIFY OP_CHECKSIG", "type": "pubkeyhash"}, "value": 0.0465516, "n": 0}, {"scriptPubKey": {"reqSigs": 1, "hex": "a914f42d916e98a6011873e496dfa96c1f3f530518ed87", "addresses": ["3Px7PUd1y6qrvSDPb6FBHQfgHVCKxGypH7"], "asm": "OP_HASH160 f42d916e98a6011873e496dfa96c1f3f530518ed OP_EQUAL", "type": "scripthash"}, "value": 0.70158618, "n": 1}], "hex": "0200000001af7f13f584166063446200218fb1b893a83f64839681aa2e5226265dc6b87a49010000006a473044022078fd64c1aa1a4aff42d74cae117f71772b35d31e34da83dde6324387df67085c0220680db01c7213c57467e602fad8c6aa8cc1e1b02bf417798847dfd2288398e4cb012103f4579558f881be9a70ed5b781d0682dad3217ccf3de3cc0d2b7a358499c4cdc3feffffff0238084700000000001976a91406c879c50375a0cd702dbc17d25efbf9c2952f1788ac1a892e040000000017a914f42d916e98a6011873e496dfa96c1f3f530518ed8717490800", "vin": [{"sequence": 4294967294, "scriptSig": {"hex": "473044022078fd64c1aa1a4aff42d74cae117f71772b35d31e34da83dde6324387df67085c0220680db01c7213c57467e602fad8c6aa8cc1e1b02bf417798847dfd2288398e4cb012103f4579558f881be9a70ed5b781d0682dad3217ccf3de3cc0d2b7a358499c4cdc3", "asm": "3044022078fd64c1aa1a4aff42d74cae117f71772b35d31e34da83dde6324387df67085c0220680db01c7213c57467e602fad8c6aa8cc1e1b02bf417798847dfd2288398e4cb[ALL] 03f4579558f881be9a70ed5b781d0682dad3217ccf3de3cc0d2b7a358499c4cdc3"}, "vout": 1, "txid": "497ab8c65d2626522eaa819683643fa893b8b18f2100624463601684f5137faf"}], "txid": "36934ee33212ce556cb9afe09f81f9e5c3f97e3ca558e236bd29dde363f87faf", "blocktime": 1537876114, "version": 2, "confirmations": 11459, "time": 1537876114, "locktime": 542999, "vsize": 223, "size": 223}