{"hash": "82eb0391700c5941fa86a3e6a16cd4fa21281fd1a88387cc0f29d67ccc9b6652", "blockhash": "00000000000000000017f5eb5941039fbcee6240d03bc1f2f8e35350df66a1d8", "vout": [{"scriptPubKey": {"reqSigs": 1, "hex": "a9144db24c0474fdf9c0c4f26a1ccae014a6724888fc87", "addresses": ["38mqYbxMPNZJowP3JwZ7593QwLwQvS39RL"], "asm": "OP_HASH160 4db24c0474fdf9c0c4f26a1ccae014a6724888fc OP_EQUAL", "type": "scripthash"}, "value": 0.0231, "n": 0}, {"scriptPubKey": {"reqSigs": 1, "hex": "001438b9f4ab2314cdaf317aede5c9e7568a7ff4d6e0", "addresses": ["bc1q8zulf2erznx67vt6ahjune6k3fllf4hqtn99qz"], "asm": "0 38b9f4ab2314cdaf317aede5c9e7568a7ff4d6e0", "type": "witness_v0_keyhash"}, "value": 0.00067128, "n": 1}], "hex": "01000000000101dcc78c52655cf47521fe96ff085d798f61cfad83f26e42904917097ae147eed70000000000ffffffff02703f23000000000017a9144db24c0474fdf9c0c4f26a1ccae014a6724888fc87380601000000000016001438b9f4ab2314cdaf317aede5c9e7568a7ff4d6e0024730440220361171b5ec23ee02dc382557dcc5589fd9cb5e1046532f6be7d42e3455adbfb60220507e00bff8b15eb23110e637786227335b8f7cf5e9da98b5fc58b4488946f3b1012103d7c1f2c62d7fe7abde83e29f91fa421daf46406323af821a329d4e9434acd13100000000", "vin": [{"txinwitness": ["30440220361171b5ec23ee02dc382557dcc5589fd9cb5e1046532f6be7d42e3455adbfb60220507e00bff8b15eb23110e637786227335b8f7cf5e9da98b5fc58b4488946f3b101", "03d7c1f2c62d7fe7abde83e29f91fa421daf46406323af821a329d4e9434acd131"], "sequence": 4294967295, "scriptSig": {"hex": "", "asm": ""}, "vout": 0, "txid": "d7ee47e17a09174990426ef283adcf618f795d08ff96fe2175f45c65528cc7dc"}], "txid": "3696921f55bbda547d2da9ca8dc4ddbc878d63870028722a7dbdc5fe9fd0688c", "blocktime": 1537874412, "version": 1, "confirmations": 11466, "time": 1537874412, "locktime": 0, "vsize": 142, "size": 223}