{"hash": "3696792033a184f9fc7058c5e2cac7b2d642ec5122f8757295e2437d4e17ebb5", "blockhash": "0000000000000000001e0dab787dd257d1dbfcb92a98c2207d5e1078be1f4165", "vout": [{"scriptPubKey": {"reqSigs": 1, "hex": "76a91442728d68b565043887e9777fa1db58bc2322bc4f88ac", "addresses": ["174LpuBNM54Fv7Ee7VGTnt48pmPs5ZWhdJ"], "asm": "OP_DUP OP_HASH160 42728d68b565043887e9777fa1db58bc2322bc4f OP_EQUALVERIFY OP_CHECKSIG", "type": "pubkeyhash"}, "value": 0.00098, "n": 0}, {"scriptPubKey": {"reqSigs": 1, "hex": "76a914ca0986cb0c1c8d283328740f6a5bc8567a85abb688ac", "addresses": ["1KRGufaEsVHsxjWcTJCwmG2LvSkyL23fVQ"], "asm": "OP_DUP OP_HASH160 ca0986cb0c1c8d283328740f6a5bc8567a85abb6 OP_EQUALVERIFY OP_CHECKSIG", "type": "pubkeyhash"}, "value": 0.27251898, "n": 1}], "hex": "0100000001eda460c1ef43abf87ff1ee2ef5474e0385128e377279a8fd16367e7ed094ca08010000006a47304402201d03e1fe532bab6da8752904e0d275f93e99c87d9ced902f8bf6e6aafe7df5a102203debe60532869a236c6643abb7a7118a398059ab5a38e2629c8352a88bed5a20012102d2256b39430b82d39d8dbecf6de05b88750642806d350819fcceecd7ebf3f51cffffffff02d07e0100000000001976a91442728d68b565043887e9777fa1db58bc2322bc4f88acbad49f01000000001976a914ca0986cb0c1c8d283328740f6a5bc8567a85abb688ac00000000", "vin": [{"sequence": 4294967295, "scriptSig": {"hex": "47304402201d03e1fe532bab6da8752904e0d275f93e99c87d9ced902f8bf6e6aafe7df5a102203debe60532869a236c6643abb7a7118a398059ab5a38e2629c8352a88bed5a20012102d2256b39430b82d39d8dbecf6de05b88750642806d350819fcceecd7ebf3f51c", "asm": "304402201d03e1fe532bab6da8752904e0d275f93e99c87d9ced902f8bf6e6aafe7df5a102203debe60532869a236c6643abb7a7118a398059ab5a38e2629c8352a88bed5a20[ALL] 02d2256b39430b82d39d8dbecf6de05b88750642806d350819fcceecd7ebf3f51c"}, "vout": 1, "txid": "08ca94d07e7e3616fda87972378e1285034e47f52eeef17ff8ab43efc160a4ed"}], "txid": "3696792033a184f9fc7058c5e2cac7b2d642ec5122f8757295e2437d4e17ebb5", "blocktime": 1537872475, "version": 1, "confirmations": 11487, "time": 1537872475, "locktime": 0, "vsize": 225, "size": 225}