{"hash": "369855207526e5cf48a198cb91733588f2e4c801f5bd00832fd535054f179f4a", "blockhash": "0000000000000000001f76057863aec43deb6fa401d9628bb513d65a8098bfab", "vout": [{"scriptPubKey": {"reqSigs": 1, "hex": "76a914871e9d97a2349e1349b781119fea792747b0bec888ac", "addresses": ["1DKSu79P3qg2nNWPd7aHYcqNc151GgLVaa"], "asm": "OP_DUP OP_HASH160 871e9d97a2349e1349b781119fea792747b0bec8 OP_EQUALVERIFY OP_CHECKSIG", "type": "pubkeyhash"}, "value": 0.02298698, "n": 0}, {"scriptPubKey": {"reqSigs": 1, "hex": "a9147b1857c70a44ca292c44b384515f641586f5f74487", "addresses": ["3CutCWeKKvdJScWH8NsgPpYpjmZJATiSKA"], "asm": "OP_HASH160 7b1857c70a44ca292c44b384515f641586f5f744 OP_EQUAL", "type": "scripthash"}, "value": 0.1, "n": 1}], "hex": "0100000002d605026a51d16a92070b054958748d6cdc77a4dc4e241c3b7a0a3c59a341c475010000006b483045022100fa8cdf96e8d843eb2daa838a9f2878e316dd042bf8538e4c958fd9134bf2a6df022030d60b1c91decc1d036ca4a6789d92e3161fd2e22be9f621fb141f765af30b7a012103808889e5ebae7ba9491f5b4a3e700cfc1b62d58049e37f670bd9eb9263cdc072fdffffffa92a57261c18fdda77cfb5219deaf089ffa437d565d0f773e6fb2921a3d83c91030000006b483045022100fdf7b91457296a463e3494ebc428f382875715d3a81654cd7fb03c860bbb241c022062907cb82cdad2d8177d3876195f000c50d507704fac80a500ed65c2f840ce50012102f54e33eec54bd7ce8aed5bc7af0aa0027b4ce9896f7b748e980af5dda48efb83fdffffff024a132300000000001976a914871e9d97a2349e1349b781119fea792747b0bec888ac809698000000000017a9147b1857c70a44ca292c44b384515f641586f5f7448714490800", "vin": [{"sequence": 4294967293, "scriptSig": {"hex": "483045022100fa8cdf96e8d843eb2daa838a9f2878e316dd042bf8538e4c958fd9134bf2a6df022030d60b1c91decc1d036ca4a6789d92e3161fd2e22be9f621fb141f765af30b7a012103808889e5ebae7ba9491f5b4a3e700cfc1b62d58049e37f670bd9eb9263cdc072", "asm": "3045022100fa8cdf96e8d843eb2daa838a9f2878e316dd042bf8538e4c958fd9134bf2a6df022030d60b1c91decc1d036ca4a6789d92e3161fd2e22be9f621fb141f765af30b7a[ALL] 03808889e5ebae7ba9491f5b4a3e700cfc1b62d58049e37f670bd9eb9263cdc072"}, "vout": 1, "txid": "75c441a3593c0a7a3b1c244edca477dc6c8d745849050b07926ad1516a0205d6"}, {"sequence": 4294967293, "scriptSig": {"hex": "483045022100fdf7b91457296a463e3494ebc428f382875715d3a81654cd7fb03c860bbb241c022062907cb82cdad2d8177d3876195f000c50d507704fac80a500ed65c2f840ce50012102f54e33eec54bd7ce8aed5bc7af0aa0027b4ce9896f7b748e980af5dda48efb83", "asm": "3045022100fdf7b91457296a463e3494ebc428f382875715d3a81654cd7fb03c860bbb241c022062907cb82cdad2d8177d3876195f000c50d507704fac80a500ed65c2f840ce50[ALL] 02f54e33eec54bd7ce8aed5bc7af0aa0027b4ce9896f7b748e980af5dda48efb83"}, "vout": 3, "txid": "913cd8a32129fbe673f7d065d537a4ff89f0ea9d21b5cf77dafd181c26572aa9"}], "txid": "369855207526e5cf48a198cb91733588f2e4c801f5bd00832fd535054f179f4a", "blocktime": 1537873891, "version": 1, "confirmations": 11478, "time": 1537873891, "locktime": 542996, "vsize": 372, "size": 372}