{"hash": "3ae251179cb75aa9c8a2e7e29bce34b5e73cb4b5c4c433dced051072aa4aced6", "blockhash": "00000000000000000018f53835495a110e01622372bf6ae95dc86f2b0ab887b0", "vout": [{"scriptPubKey": {"reqSigs": 1, "hex": "a914c5b8c0395b6326f6178c033a1727ea74a6be4b5787", "addresses": ["3KiUN3s7tQXoo719b1nki6j8QmEv2nn5E7"], "asm": "OP_HASH160 c5b8c0395b6326f6178c033a1727ea74a6be4b57 OP_EQUAL", "type": "scripthash"}, "value": 0.0071, "n": 0}, {"scriptPubKey": {"reqSigs": 1, "hex": "a9149aef8e6d4d1a81325d216b8269d06347b02bad3087", "addresses": ["3FpExkdN5UDvBFPQiyt8D26jm5V6vWUtNF"], "asm": "OP_HASH160 9aef8e6d4d1a81325d216b8269d06347b02bad30 OP_EQUAL", "type": "scripthash"}, "value": 0.00781797, "n": 1}], "hex": "01000000000101b4f341aa69e160e5d8fdee4c99bd21e8dcf9d0733a353da4c488abd46bbef0e600000000232200208b2c79a51d5ace82db12a0a259d1224995f050d1bc2c431719d93a9a7748e2f3ffffffff0270d50a000000000017a914c5b8c0395b6326f6178c033a1727ea74a6be4b5787e5ed0b000000000017a9149aef8e6d4d1a81325d216b8269d06347b02bad30870400483045022100b1f9463fad51c4186034092f4e59c1f1e3536fa5c803d7cd8a380786555234840220738c860fe95b5288e1efd394f2d5776812eb161d9316b17a1bab15c016635a6801483045022100ea72f491f253569326197363eb10de9970f596f85144228994b741a36f28d2860220418cdd4eb9cb90040dc8c967176e05524ee7cd094ef36fbf5459c595e1d2c33201695221026c7886f13fe984d1292560abfea31fe3f7636466ec4222f4e2d2089cec5b3794210358f413ef544da6634ea07e74e732ea8f5f83fe656328a0370bb3c1f4861c94322103fd10271ec38e55d5798351b7d6843e48eb2be6a321b06fe2feca237d870b1fcf53ae00000000", "vin": [{"txinwitness": ["", "3045022100b1f9463fad51c4186034092f4e59c1f1e3536fa5c803d7cd8a380786555234840220738c860fe95b5288e1efd394f2d5776812eb161d9316b17a1bab15c016635a6801", "3045022100ea72f491f253569326197363eb10de9970f596f85144228994b741a36f28d2860220418cdd4eb9cb90040dc8c967176e05524ee7cd094ef36fbf5459c595e1d2c33201", "5221026c7886f13fe984d1292560abfea31fe3f7636466ec4222f4e2d2089cec5b3794210358f413ef544da6634ea07e74e732ea8f5f83fe656328a0370bb3c1f4861c94322103fd10271ec38e55d5798351b7d6843e48eb2be6a321b06fe2feca237d870b1fcf53ae"], "sequence": 4294967295, "scriptSig": {"hex": "2200208b2c79a51d5ace82db12a0a259d1224995f050d1bc2c431719d93a9a7748e2f3", "asm": "00208b2c79a51d5ace82db12a0a259d1224995f050d1bc2c431719d93a9a7748e2f3"}, "vout": 0, "txid": "e6f0be6bd4ab88c4a43d353a73d0f9dce821bd994ceefdd8e560e169aa41f3b4"}], "txid": "36a14aae414bd690282e602af3187385b5668b416b96f13c565784585a0080d3", "blocktime": 1537870928, "version": 1, "confirmations": 11512, "time": 1537870928, "locktime": 0, "vsize": 214, "size": 406}