{"hash": "c880c66cddabcbdfea0848b79db338cf302b2b5bef1d2dd6f93867d3a9289a11", "blockhash": "0000000000000000000baef3f32e3676a92c3b2e5da21b426e4f302fc371ce76", "vout": [{"scriptPubKey": {"reqSigs": 1, "hex": "a914242c32ccab7294f9c6cd072515100d579d7e4a1987", "addresses": ["34zHCQn8ucZhhh5cTe5ywDrMZ73RuCZzR5"], "asm": "OP_HASH160 242c32ccab7294f9c6cd072515100d579d7e4a19 OP_EQUAL", "type": "scripthash"}, "value": 1.06e-05, "n": 0}], "hex": "0200000000010137452086fbb3d4725bb8236f0de3f86e9cc774f95acdc4f912a240c36f31d3f100000000171600149c930dbe0ebcd84826c5941dad5778c374ebb06a0000000001240400000000000017a914242c32ccab7294f9c6cd072515100d579d7e4a19870247304402201029e41d325d9c32dbdd0c13a289f3773e98e8724bafe077309b7a263e46df3402207a8172286ddccf4ec2d3eecaf651f2fb00eb9e91df155b27f8a7f3b7370763d201210306c2d5d8902fe65b583df336dcdf95e2bfcbf0937664b2e4ef617418cdfd719d00000000", "vin": [{"txinwitness": ["304402201029e41d325d9c32dbdd0c13a289f3773e98e8724bafe077309b7a263e46df3402207a8172286ddccf4ec2d3eecaf651f2fb00eb9e91df155b27f8a7f3b7370763d201", "0306c2d5d8902fe65b583df336dcdf95e2bfcbf0937664b2e4ef617418cdfd719d"], "sequence": 0, "scriptSig": {"hex": "1600149c930dbe0ebcd84826c5941dad5778c374ebb06a", "asm": "00149c930dbe0ebcd84826c5941dad5778c374ebb06a"}, "vout": 0, "txid": "f1d3316fc340a212f9c4cd5af974c79c6ef8e30d6f23b85b72d4b3fb86204537"}], "txid": "36a37e47b725fe03d15777de2533d34eaaeeba254774111513e393c98e8a6b3a", "blocktime": 1537876114, "version": 2, "confirmations": 11459, "time": 1537876114, "locktime": 0, "vsize": 134, "size": 215}