{"hash": "36a3cec6e33093e415748ec6ece1f91e0e9e2b529163ad029e7a28af25de5982", "blockhash": "0000000000000000001f0ddff1eddb255c1121bcd4da4f1bc9a0da00cae72433", "vout": [{"scriptPubKey": {"reqSigs": 1, "hex": "76a914efc177508a7a9fc3859fde84f0f34f0048d7d78b88ac", "addresses": ["1NriG797g6J6WBJU88WSgmMpCY8ZQXvJkB"], "asm": "OP_DUP OP_HASH160 efc177508a7a9fc3859fde84f0f34f0048d7d78b OP_EQUALVERIFY OP_CHECKSIG", "type": "pubkeyhash"}, "value": 0.0154698, "n": 0}, {"scriptPubKey": {"reqSigs": 1, "hex": "76a91482c9582540d6656afaf6a6d3e4a1d40999c6b79e88ac", "addresses": ["1CvY3b1qMzDxwtb5DP8geA4h2penpnRmk4"], "asm": "OP_DUP OP_HASH160 82c9582540d6656afaf6a6d3e4a1d40999c6b79e OP_EQUALVERIFY OP_CHECKSIG", "type": "pubkeyhash"}, "value": 0.86472324, "n": 1}], "hex": "0100000001821cf7cbc79e5bf9a26fc59a1661b1428a6e0ea6c85410e5e79a97659e08c06f010000006a4730440220668019bd308e7d55dc5afc1064bc3e5894f0c896bb8f41fa0042bdc29e799ea6022035da97b1d176c9945b95220f48641cb0374c5285683d9a26475c2464ddb592770121028b56490f33b8add82c345af1625e85258668d8ae82dcfa6a2f006244d968a179ffffffff02e49a1700000000001976a914efc177508a7a9fc3859fde84f0f34f0048d7d78b88ac84762705000000001976a91482c9582540d6656afaf6a6d3e4a1d40999c6b79e88ac00000000", "vin": [{"sequence": 4294967295, "scriptSig": {"hex": "4730440220668019bd308e7d55dc5afc1064bc3e5894f0c896bb8f41fa0042bdc29e799ea6022035da97b1d176c9945b95220f48641cb0374c5285683d9a26475c2464ddb592770121028b56490f33b8add82c345af1625e85258668d8ae82dcfa6a2f006244d968a179", "asm": "30440220668019bd308e7d55dc5afc1064bc3e5894f0c896bb8f41fa0042bdc29e799ea6022035da97b1d176c9945b95220f48641cb0374c5285683d9a26475c2464ddb59277[ALL] 028b56490f33b8add82c345af1625e85258668d8ae82dcfa6a2f006244d968a179"}, "vout": 1, "txid": "6fc0089e65979ae7e51054c8a60e6e8a42b161169ac56fa2f95b9ec7cbf71c82"}], "txid": "36a3cec6e33093e415748ec6ece1f91e0e9e2b529163ad029e7a28af25de5982", "blocktime": 1537872018, "version": 1, "confirmations": 11489, "time": 1537872018, "locktime": 0, "vsize": 225, "size": 225}