{"hash": "36b1113ca4e9fd552d4176a30a1cb907f754621d15f9a99c2411b90a5a8c7e95", "blockhash": "000000000000000000022b45ed06c6f4ccd3cf7fb5ba4856ebd2e58215665228", "vout": [{"scriptPubKey": {"reqSigs": 1, "hex": "76a914f803b7032ae5ec93e76a47682d8eb444f5cd33f288ac", "addresses": ["1PcP2gyNYnHNHTxA1GEguBxf88Ty5vhUzg"], "asm": "OP_DUP OP_HASH160 f803b7032ae5ec93e76a47682d8eb444f5cd33f2 OP_EQUALVERIFY OP_CHECKSIG", "type": "pubkeyhash"}, "value": 0.00230079, "n": 0}, {"scriptPubKey": {"reqSigs": 1, "hex": "76a9143f9fcd5e5eb012e02360e4db922339959c6f2d8588ac", "addresses": ["16oR1Ld3NW9xodVaaqzqv2XEtQuvwHdPo8"], "asm": "OP_DUP OP_HASH160 3f9fcd5e5eb012e02360e4db922339959c6f2d85 OP_EQUALVERIFY OP_CHECKSIG", "type": "pubkeyhash"}, "value": 0.02898169, "n": 1}, {"scriptPubKey": {"reqSigs": 1, "hex": "76a914b62ecd406ece48916d2e14ec5d26aed420b0b2f788ac", "addresses": ["1HcJ3ktfR36FQNU6tFsxTnDaiun3pbsKUZ"], "asm": "OP_DUP OP_HASH160 b62ecd406ece48916d2e14ec5d26aed420b0b2f7 OP_EQUALVERIFY OP_CHECKSIG", "type": "pubkeyhash"}, "value": 8.711e-05, "n": 2}], "hex": "01000000021c1296c5cd29887df22170d465e78e14688b6281a78cd554c71e35bb86f07adc000000006b483045022100baab6c1435b7644ac59611b19dc19d71bc71432e0251ebdc9fd0fc53e71e91c102206dd1f10d5d765b00417ebd1000957cea9f8e47c4d3836b2a81f928458ad060d5012102a99c3a60ff7d48fcc44e32d97d0f5df49e8571c75afc67f1bed5ae3a3ebb5bc2ffffffff84492c7ec54c76aa6ec1e5c2590fd2546e18bd0e62f62393e8eebdd03bacbeaf010000006a47304402207468d9b0820fcacc5a5fc387045e0706b60afae1999bf219800406270323f4fe02205ea8b89dc54593b90c301234d2000e074ca65c03e1bfba94008bd44c30c4c929012103be5d1c286ab8c8d1d20acf0552b30917a36aed666f66339985ab0e27746bf858ffffffff03bf820300000000001976a914f803b7032ae5ec93e76a47682d8eb444f5cd33f288acf9382c00000000001976a9143f9fcd5e5eb012e02360e4db922339959c6f2d8588ac07220000000000001976a914b62ecd406ece48916d2e14ec5d26aed420b0b2f788ac00000000", "vin": [{"sequence": 4294967295, "scriptSig": {"hex": "483045022100baab6c1435b7644ac59611b19dc19d71bc71432e0251ebdc9fd0fc53e71e91c102206dd1f10d5d765b00417ebd1000957cea9f8e47c4d3836b2a81f928458ad060d5012102a99c3a60ff7d48fcc44e32d97d0f5df49e8571c75afc67f1bed5ae3a3ebb5bc2", "asm": "3045022100baab6c1435b7644ac59611b19dc19d71bc71432e0251ebdc9fd0fc53e71e91c102206dd1f10d5d765b00417ebd1000957cea9f8e47c4d3836b2a81f928458ad060d5[ALL] 02a99c3a60ff7d48fcc44e32d97d0f5df49e8571c75afc67f1bed5ae3a3ebb5bc2"}, "vout": 0, "txid": "dc7af086bb351ec754d58ca781628b68148ee765d47021f27d8829cdc596121c"}, {"sequence": 4294967295, "scriptSig": {"hex": "47304402207468d9b0820fcacc5a5fc387045e0706b60afae1999bf219800406270323f4fe02205ea8b89dc54593b90c301234d2000e074ca65c03e1bfba94008bd44c30c4c929012103be5d1c286ab8c8d1d20acf0552b30917a36aed666f66339985ab0e27746bf858", "asm": "304402207468d9b0820fcacc5a5fc387045e0706b60afae1999bf219800406270323f4fe02205ea8b89dc54593b90c301234d2000e074ca65c03e1bfba94008bd44c30c4c929[ALL] 03be5d1c286ab8c8d1d20acf0552b30917a36aed666f66339985ab0e27746bf858"}, "vout": 1, "txid": "afbeac3bd0bdeee89323f6620ebd186e54d20f59c2e5c16eaa764cc57e2c4984"}], "txid": "36b1113ca4e9fd552d4176a30a1cb907f754621d15f9a99c2411b90a5a8c7e95", "blocktime": 1537869901, "version": 1, "confirmations": 11523, "time": 1537869901, "locktime": 0, "vsize": 407, "size": 407}