{"hash": "fd16243e9bffd09bb65574b803431cdfd1f5630ebe8d5a881db4ed177a220819", "blockhash": "00000000000000000018f53835495a110e01622372bf6ae95dc86f2b0ab887b0", "vout": [{"scriptPubKey": {"reqSigs": 1, "hex": "a9141dffc16b8812e2188cc3def3dc7a7f5f7caf0be887", "addresses": ["34RduK9oTeGMwqFEo1CoS7dPMzbEKm95Pp"], "asm": "OP_HASH160 1dffc16b8812e2188cc3def3dc7a7f5f7caf0be8 OP_EQUAL", "type": "scripthash"}, "value": 0.00422459, "n": 0}, {"scriptPubKey": {"reqSigs": 1, "hex": "a914aa09934c201a9d0b4c5a55e7d7704487ea9f11ed87", "addresses": ["3HC6GTsCQJb6oMzQHmhc9diLT2wyUwLYP1"], "asm": "OP_HASH160 aa09934c201a9d0b4c5a55e7d7704487ea9f11ed OP_EQUAL", "type": "scripthash"}, "value": 0.02362959, "n": 1}], "hex": "02000000000101abc8105c377085e1bc35589ed90d1db66a228ade6c1808d6baf29606c9fc152b000000001716001407d7dd51954362b3264ee4e3e55ed2fc16261411feffffff023b7206000000000017a9141dffc16b8812e2188cc3def3dc7a7f5f7caf0be8874f0e24000000000017a914aa09934c201a9d0b4c5a55e7d7704487ea9f11ed8702483045022100ba0a7442ee1560f964e782992cd8b0dc1185b2ef9449a29a5b603a7373c7bf7a02203e7d98236fcfa4b80d6273039e246ac31ce74d19b39556da6ccb42ab2dfc034f012103cb60d2ea5a7a2185025496c2d0a314907654ba4319b817d229aa71cfc85c81690e490800", "vin": [{"txinwitness": ["3045022100ba0a7442ee1560f964e782992cd8b0dc1185b2ef9449a29a5b603a7373c7bf7a02203e7d98236fcfa4b80d6273039e246ac31ce74d19b39556da6ccb42ab2dfc034f01", "03cb60d2ea5a7a2185025496c2d0a314907654ba4319b817d229aa71cfc85c8169"], "sequence": 4294967294, "scriptSig": {"hex": "16001407d7dd51954362b3264ee4e3e55ed2fc16261411", "asm": "001407d7dd51954362b3264ee4e3e55ed2fc16261411"}, "vout": 0, "txid": "2b15fcc90696f2bad608186cde8a226ab61d0dd99e5835bce18570375c10c8ab"}], "txid": "36b23a4a023016181b55bf2a62bb4c848fd58c443e1903e4770e072e6cf75fde", "blocktime": 1537870928, "version": 2, "confirmations": 11512, "time": 1537870928, "locktime": 542990, "vsize": 166, "size": 248}