{"hash": "36b342fd5a3a7e986b585a418e95196fff133e389c4fc1f2cfb3d3e577418c0c", "blockhash": "000000000000000000022b45ed06c6f4ccd3cf7fb5ba4856ebd2e58215665228", "vout": [{"scriptPubKey": {"reqSigs": 1, "hex": "76a91475381e21c34f533179d1821e437afafaef22cc8f88ac", "addresses": ["1BgoHa69whQqMg18CxBB5s6xAaYZYTo4Fm"], "asm": "OP_DUP OP_HASH160 75381e21c34f533179d1821e437afafaef22cc8f OP_EQUALVERIFY OP_CHECKSIG", "type": "pubkeyhash"}, "value": 0.0491515, "n": 0}, {"scriptPubKey": {"reqSigs": 1, "hex": "76a914bd1fc85a2151c8c1516413b4afd7e4c72176e8e788ac", "addresses": ["1JEznYz8weimkUErYqpdMrvFKevqxyCYZS"], "asm": "OP_DUP OP_HASH160 bd1fc85a2151c8c1516413b4afd7e4c72176e8e7 OP_EQUALVERIFY OP_CHECKSIG", "type": "pubkeyhash"}, "value": 16.55718415, "n": 1}], "hex": "02000000014129ac69eb8d614782890e52b83f8b78ae917b82de056e83d367d089709b9312010000006b483045022100cd8ae9d84a188bd0252ce9adbd4bf868f79efe752850b2979d69c30a6296c4c102204cef5f59f2dd5d15bf74d804341ac2f5874e4cd2cafa1d78cf812f1db079a79b012103a5e15ec0bbb944664044e79be42bc018c7649f9df4d6218d5a248283968c8b68ffffffff02ceff4a00000000001976a91475381e21c34f533179d1821e437afafaef22cc8f88ac0f42b062000000001976a914bd1fc85a2151c8c1516413b4afd7e4c72176e8e788ac00000000", "vin": [{"sequence": 4294967295, "scriptSig": {"hex": "483045022100cd8ae9d84a188bd0252ce9adbd4bf868f79efe752850b2979d69c30a6296c4c102204cef5f59f2dd5d15bf74d804341ac2f5874e4cd2cafa1d78cf812f1db079a79b012103a5e15ec0bbb944664044e79be42bc018c7649f9df4d6218d5a248283968c8b68", "asm": "3045022100cd8ae9d84a188bd0252ce9adbd4bf868f79efe752850b2979d69c30a6296c4c102204cef5f59f2dd5d15bf74d804341ac2f5874e4cd2cafa1d78cf812f1db079a79b[ALL] 03a5e15ec0bbb944664044e79be42bc018c7649f9df4d6218d5a248283968c8b68"}, "vout": 1, "txid": "12939b7089d067d3836e05de827b91ae788b3fb8520e898247618deb69ac2941"}], "txid": "36b342fd5a3a7e986b585a418e95196fff133e389c4fc1f2cfb3d3e577418c0c", "blocktime": 1537869901, "version": 2, "confirmations": 11524, "time": 1537869901, "locktime": 0, "vsize": 226, "size": 226}