{"hash": "36b9ff6f1f8a01d1e7f238b02ffd0a64275b7e4e727e0ddb7f3b14850f00b9f6", "blockhash": "0000000000000000000e13cef7c366c0283d82e591d1acd082e914b08063cdf1", "vout": [{"scriptPubKey": {"reqSigs": 1, "hex": "76a9144672f5dc252b717df5454b0122d290446e48217288ac", "addresses": ["17RW21w7baexAynGEJeVj1jKWVZrMTv3rN"], "asm": "OP_DUP OP_HASH160 4672f5dc252b717df5454b0122d290446e482172 OP_EQUALVERIFY OP_CHECKSIG", "type": "pubkeyhash"}, "value": 0.0093843, "n": 0}, {"scriptPubKey": {"reqSigs": 1, "hex": "76a914dd4d6c00db43dcf0c8f673048b02fe0f044b978488ac", "addresses": ["1MB95mB4j1DVwYe3ugVQuDfASa42NJL2hf"], "asm": "OP_DUP OP_HASH160 dd4d6c00db43dcf0c8f673048b02fe0f044b9784 OP_EQUALVERIFY OP_CHECKSIG", "type": "pubkeyhash"}, "value": 0.010668, "n": 1}], "hex": "0100000001ea76e7e169c6e4901f258005af56e060803a76e15aa16f365a1f072dec5dc0cd000000006a47304402200be8d48772c5e9a394dc8d7a8215346e3775218e8073e4403eb79c7f535fde7a022046e1701e0eb6f268bb82e424cbc5001d8278f58582cf93a1d108a2a988589b9b0121028e203a09945cdd0a357b6ce3f78251357cac6acc590eb538062144a79a315683fdffffff02be510e00000000001976a9144672f5dc252b717df5454b0122d290446e48217288ac30471000000000001976a914dd4d6c00db43dcf0c8f673048b02fe0f044b978488ac0f490800", "vin": [{"sequence": 4294967293, "scriptSig": {"hex": "47304402200be8d48772c5e9a394dc8d7a8215346e3775218e8073e4403eb79c7f535fde7a022046e1701e0eb6f268bb82e424cbc5001d8278f58582cf93a1d108a2a988589b9b0121028e203a09945cdd0a357b6ce3f78251357cac6acc590eb538062144a79a315683", "asm": "304402200be8d48772c5e9a394dc8d7a8215346e3775218e8073e4403eb79c7f535fde7a022046e1701e0eb6f268bb82e424cbc5001d8278f58582cf93a1d108a2a988589b9b[ALL] 028e203a09945cdd0a357b6ce3f78251357cac6acc590eb538062144a79a315683"}, "vout": 0, "txid": "cdc05dec2d071f5a366fa15ae1763a8060e056af0580251f90e4c669e1e776ea"}], "txid": "36b9ff6f1f8a01d1e7f238b02ffd0a64275b7e4e727e0ddb7f3b14850f00b9f6", "blocktime": 1537871767, "version": 1, "confirmations": 11490, "time": 1537871767, "locktime": 542991, "vsize": 225, "size": 225}