{"hash": "36bbdc28aa83f3fb2818a23c9fa38dc752542e1bf7e880931d7a10c9b74470c5", "blockhash": "0000000000000000000baef3f32e3676a92c3b2e5da21b426e4f302fc371ce76", "vout": [{"scriptPubKey": {"reqSigs": 1, "hex": "76a91492e206812a6cb7647451e64def4bd4049b1307fe88ac", "addresses": ["1EPeRXcykPpEz6ED8Acfb3eezipoPLtCA5"], "asm": "OP_DUP OP_HASH160 92e206812a6cb7647451e64def4bd4049b1307fe OP_EQUALVERIFY OP_CHECKSIG", "type": "pubkeyhash"}, "value": 0.02598537, "n": 0}], "hex": "01000000019709916ff823314edb9928bea58f9005bece2498e3a919917bacabc7c3a88f9b000000006b483045022100b309e65627c60b75424634b6fae47e3705e8d9652548a30d94087c9c636b1c7702201dd40e51d3792cff182eb15dc99417c77e8d39a853e4869dd180d1c7883e6700012102693b9a74c4189c059034560167e64383fbddf987640ce5630c66a53ef249c527ffffffff0189a62700000000001976a91492e206812a6cb7647451e64def4bd4049b1307fe88ac00000000", "vin": [{"sequence": 4294967295, "scriptSig": {"hex": "483045022100b309e65627c60b75424634b6fae47e3705e8d9652548a30d94087c9c636b1c7702201dd40e51d3792cff182eb15dc99417c77e8d39a853e4869dd180d1c7883e6700012102693b9a74c4189c059034560167e64383fbddf987640ce5630c66a53ef249c527", "asm": "3045022100b309e65627c60b75424634b6fae47e3705e8d9652548a30d94087c9c636b1c7702201dd40e51d3792cff182eb15dc99417c77e8d39a853e4869dd180d1c7883e6700[ALL] 02693b9a74c4189c059034560167e64383fbddf987640ce5630c66a53ef249c527"}, "vout": 0, "txid": "9b8fa8c3c7abac7b9119a9e39824cebe05908fa5be2899db4e3123f86f910997"}], "txid": "36bbdc28aa83f3fb2818a23c9fa38dc752542e1bf7e880931d7a10c9b74470c5", "blocktime": 1537876114, "version": 1, "confirmations": 11460, "time": 1537876114, "locktime": 0, "vsize": 192, "size": 192}