{"hash": "36bb24460da967d0f69621e179db11d5b65eac70f1f4824a6691d7991591bacf", "blockhash": "0000000000000000001f0ddff1eddb255c1121bcd4da4f1bc9a0da00cae72433", "vout": [{"scriptPubKey": {"reqSigs": 1, "hex": "a914a143326680c3dfac480518eabf01c5d17b073ef987", "addresses": ["3GPhDMDFnj3ekGHEhz962iJMEgwEHQ5XYn"], "asm": "OP_HASH160 a143326680c3dfac480518eabf01c5d17b073ef9 OP_EQUAL", "type": "scripthash"}, "value": 0.00083, "n": 0}, {"scriptPubKey": {"reqSigs": 1, "hex": "76a914ece10fe653566c9aa889e5f6d5fd14a4e174d56088ac", "addresses": ["1NbW5rxmREnYZDb3bKABa7XV2AwpcdQbLA"], "asm": "OP_DUP OP_HASH160 ece10fe653566c9aa889e5f6d5fd14a4e174d560 OP_EQUALVERIFY OP_CHECKSIG", "type": "pubkeyhash"}, "value": 0.01971, "n": 1}], "hex": "010000000194e55b7fe0d7762fdb40804f7bec1e8b6d1b03d3c2987c08500fcbdc6f55aef5010000009200483045022100d6fd70404c0ea924ea7cb75edbf92e4d46453e176a4685b12410652594695e5802204667e9b015eed010ec1224db232a4a010038e121dd24ec2a15a35942dadfdf870147512102b479654800c6ef5129da3acfd460c102d32e6d2554fd460198eda6ce5abab6f92102efdb1ba412138b1cb21db046edb52c3d620c9a703a7cc20cca7f140bd511ad8852aeffffffff02384401000000000017a914a143326680c3dfac480518eabf01c5d17b073ef98738131e00000000001976a914ece10fe653566c9aa889e5f6d5fd14a4e174d56088ac00000000", "vin": [{"sequence": 4294967295, "scriptSig": {"hex": "00483045022100d6fd70404c0ea924ea7cb75edbf92e4d46453e176a4685b12410652594695e5802204667e9b015eed010ec1224db232a4a010038e121dd24ec2a15a35942dadfdf870147512102b479654800c6ef5129da3acfd460c102d32e6d2554fd460198eda6ce5abab6f92102efdb1ba412138b1cb21db046edb52c3d620c9a703a7cc20cca7f140bd511ad8852ae", "asm": "0 3045022100d6fd70404c0ea924ea7cb75edbf92e4d46453e176a4685b12410652594695e5802204667e9b015eed010ec1224db232a4a010038e121dd24ec2a15a35942dadfdf87[ALL] 512102b479654800c6ef5129da3acfd460c102d32e6d2554fd460198eda6ce5abab6f92102efdb1ba412138b1cb21db046edb52c3d620c9a703a7cc20cca7f140bd511ad8852ae"}, "vout": 1, "txid": "f5ae556fdccb0f50087c98c2d3031b6d8b1eec7b4f8040db2f76d7e07f5be594"}], "txid": "36bb24460da967d0f69621e179db11d5b65eac70f1f4824a6691d7991591bacf", "blocktime": 1537872018, "version": 1, "confirmations": 11489, "time": 1537872018, "locktime": 0, "vsize": 263, "size": 263}