{"hash": "36bc8adb720a104ab5d141621ef26f0df8fb217fce2793903bff469103478696", "blockhash": "00000000000000000017f5eb5941039fbcee6240d03bc1f2f8e35350df66a1d8", "vout": [{"scriptPubKey": {"reqSigs": 1, "hex": "76a914b664974f2302b959cf8678b58c679ef72d5df17888ac", "addresses": ["1HdQV6upVZyu9CsnBn3rk8PCzief9UxFe5"], "asm": "OP_DUP OP_HASH160 b664974f2302b959cf8678b58c679ef72d5df178 OP_EQUALVERIFY OP_CHECKSIG", "type": "pubkeyhash"}, "value": 0.00138, "n": 0}, {"scriptPubKey": {"reqSigs": 1, "hex": "76a9143e66ba890ab23b050e539aeaeb5f69ee65f33df488ac", "addresses": ["16gwxc7oUXnsF2kpGtuLQ4mwUGXq7Wobqt"], "asm": "OP_DUP OP_HASH160 3e66ba890ab23b050e539aeaeb5f69ee65f33df4 OP_EQUALVERIFY OP_CHECKSIG", "type": "pubkeyhash"}, "value": 0.0126941, "n": 1}], "hex": "010000000198e8f1cd812f271e78d7c350098deaea1e10a1e95ffbd32320a157752feba186000000006a4730440220109d557208a790f7aa0d3f9cf5ddf4c2df618c569d75b082faad6470889bbea10220100192c2c9884332c0d84771a011f805973e3233eb0a1fb419d7fa1106686b8b01210237dc0e1cbebd9723cad0bcaa5256f20e00fee19e98691a64b640277099c4ccd6ffffffff02101b0200000000001976a914b664974f2302b959cf8678b58c679ef72d5df17888aca25e1300000000001976a9143e66ba890ab23b050e539aeaeb5f69ee65f33df488ac00000000", "vin": [{"sequence": 4294967295, "scriptSig": {"hex": "4730440220109d557208a790f7aa0d3f9cf5ddf4c2df618c569d75b082faad6470889bbea10220100192c2c9884332c0d84771a011f805973e3233eb0a1fb419d7fa1106686b8b01210237dc0e1cbebd9723cad0bcaa5256f20e00fee19e98691a64b640277099c4ccd6", "asm": "30440220109d557208a790f7aa0d3f9cf5ddf4c2df618c569d75b082faad6470889bbea10220100192c2c9884332c0d84771a011f805973e3233eb0a1fb419d7fa1106686b8b[ALL] 0237dc0e1cbebd9723cad0bcaa5256f20e00fee19e98691a64b640277099c4ccd6"}, "vout": 0, "txid": "86a1eb2f7557a12023d3fb5fe9a1101eeaea8d0950c3d7781e272f81cdf1e898"}], "txid": "36bc8adb720a104ab5d141621ef26f0df8fb217fce2793903bff469103478696", "blocktime": 1537874412, "version": 1, "confirmations": 11468, "time": 1537874412, "locktime": 0, "vsize": 225, "size": 225}