{"hash": "36bdb64e095b9a97c456f9e1ad73c6fa7c7c4d096497221fee6ee52cd852a681", "blockhash": "0000000000000000000baef3f32e3676a92c3b2e5da21b426e4f302fc371ce76", "vout": [{"scriptPubKey": {"type": "nulldata", "hex": "6a4c500000781400015db435de848d4898009fffa1702940d64fa54d8eb2d19ed074892d00f8e8966f861419e591b40a61c2bfa2d1b1055baa1bca06151c4efe29a49f0117e706f8a4c9d02528a348b20ac714", "asm": "OP_RETURN 0000781400015db435de848d4898009fffa1702940d64fa54d8eb2d19ed074892d00f8e8966f861419e591b40a61c2bfa2d1b1055baa1bca06151c4efe29a49f0117e706f8a4c9d02528a348b20ac714"}, "value": 0.0, "n": 0}, {"scriptPubKey": {"reqSigs": 1, "hex": "76a914dd11ef3f110fe9daa87e20d2463f95183474555688ac", "addresses": ["1M9upWYNJSMgVSdTHyRq1as1muYVN627uf"], "asm": "OP_DUP OP_HASH160 dd11ef3f110fe9daa87e20d2463f951834745556 OP_EQUALVERIFY OP_CHECKSIG", "type": "pubkeyhash"}, "value": 3.955e-05, "n": 1}], "hex": "0100000001fe258be3a4f2b27c4722f68f259e44807f10d67b58689d810801a0549846a5b0000000006a47304402202176e0bf1cb6a15617f917f5a83cb41654c823ebf5b26184244d31b3a3ece1d702202409c5ecdb1d4d1472eadd0edbd1aa767fb1e20eed44e70d89df18453f4ddde00121026d1667029ec19afe6844173797fe350aa06711fb88809dcd6a2ac2c85b0a2c1dffffffff020000000000000000536a4c500000781400015db435de848d4898009fffa1702940d64fa54d8eb2d19ed074892d00f8e8966f861419e591b40a61c2bfa2d1b1055baa1bca06151c4efe29a49f0117e706f8a4c9d02528a348b20ac714730f0000000000001976a914dd11ef3f110fe9daa87e20d2463f95183474555688ac00000000", "vin": [{"sequence": 4294967295, "scriptSig": {"hex": "47304402202176e0bf1cb6a15617f917f5a83cb41654c823ebf5b26184244d31b3a3ece1d702202409c5ecdb1d4d1472eadd0edbd1aa767fb1e20eed44e70d89df18453f4ddde00121026d1667029ec19afe6844173797fe350aa06711fb88809dcd6a2ac2c85b0a2c1d", "asm": "304402202176e0bf1cb6a15617f917f5a83cb41654c823ebf5b26184244d31b3a3ece1d702202409c5ecdb1d4d1472eadd0edbd1aa767fb1e20eed44e70d89df18453f4ddde0[ALL] 026d1667029ec19afe6844173797fe350aa06711fb88809dcd6a2ac2c85b0a2c1d"}, "vout": 0, "txid": "b0a5469854a00108819d68587bd6107f80449e258ff622477cb2f2a4e38b25fe"}], "txid": "36bdb64e095b9a97c456f9e1ad73c6fa7c7c4d096497221fee6ee52cd852a681", "blocktime": 1537876114, "version": 1, "confirmations": 11460, "time": 1537876114, "locktime": 0, "vsize": 283, "size": 283}