{"hash": "d56556ac4cb9369862984c5eb6a34725fd1633d85b6061f74dd145feacc7195f", "blockhash": "0000000000000000001e0dab787dd257d1dbfcb92a98c2207d5e1078be1f4165", "vout": [{"scriptPubKey": {"reqSigs": 1, "hex": "a914259994942119d4ca633e63760e7732016340761d87", "addresses": ["357pubPY3Zdm9KyZ2YN18rmNFDTcPTND7X"], "asm": "OP_HASH160 259994942119d4ca633e63760e7732016340761d OP_EQUAL", "type": "scripthash"}, "value": 0.00330164, "n": 0}, {"scriptPubKey": {"reqSigs": 1, "hex": "a914a5c679defd49547b8133a1367eeadbdeaecec3da87", "addresses": ["3GoZBZ6F8g4UiCt7moPNLDX7KKwgtGgLUT"], "asm": "OP_HASH160 a5c679defd49547b8133a1367eeadbdeaecec3da OP_EQUAL", "type": "scripthash"}, "value": 0.54375678, "n": 1}], "hex": "010000000001015dc93c6f260b2d51943a9b7c6edbfd6df45426fe8a59ffbdcbe5436e53970da701000000232200202d90cd274cea8141a030c0b79acc5b5c0b80b73d028692a1104913808bff6c09ffffffff02b40905000000000017a914259994942119d4ca633e63760e7732016340761d87feb43d030000000017a914a5c679defd49547b8133a1367eeadbdeaecec3da870400483045022100894178be010ac4e845ac7ee1dca0d4c55a6383924a72d89aa4c308ef6939ab5502202edfd2805d017470229f704285640858f02817f742968814515e8250764cb5d901483045022100a8fcd4f879c0a9f39efce7b919717030362063242cc8a9c73519f2a4e87ca47b0220186ca8bbf8262a3c97c109825b8d6bf3d9b7914246bb8cb85a525a2551fabe0d014752210295d70c0f10033e6e119fdc61ddd495bfe23995150af6df4688db5bf235f2853b21023e4b58fb2a91970de56515d11487aabd364f0404f1099bef70493cc56002342352ae00000000", "vin": [{"txinwitness": ["", "3045022100894178be010ac4e845ac7ee1dca0d4c55a6383924a72d89aa4c308ef6939ab5502202edfd2805d017470229f704285640858f02817f742968814515e8250764cb5d901", "3045022100a8fcd4f879c0a9f39efce7b919717030362063242cc8a9c73519f2a4e87ca47b0220186ca8bbf8262a3c97c109825b8d6bf3d9b7914246bb8cb85a525a2551fabe0d01", "52210295d70c0f10033e6e119fdc61ddd495bfe23995150af6df4688db5bf235f2853b21023e4b58fb2a91970de56515d11487aabd364f0404f1099bef70493cc56002342352ae"], "sequence": 4294967295, "scriptSig": {"hex": "2200202d90cd274cea8141a030c0b79acc5b5c0b80b73d028692a1104913808bff6c09", "asm": "00202d90cd274cea8141a030c0b79acc5b5c0b80b73d028692a1104913808bff6c09"}, "vout": 1, "txid": "a70d97536e43e5cbbdff598afe2654f46dfddb6e7c9b3a94512d0b266f3cc95d"}], "txid": "36beedd62e59605d1a39d29043b92ff781b124cb458bd3c2608539b4337f66a3", "blocktime": 1537872475, "version": 1, "confirmations": 11487, "time": 1537872475, "locktime": 0, "vsize": 206, "size": 372}