{"hash": "36c2d1c12e53562164792c7ef3bb06d4ea867fcc5d10c9590a20031a63a85ad9", "blockhash": "0000000000000000001e0dab787dd257d1dbfcb92a98c2207d5e1078be1f4165", "vout": [{"scriptPubKey": {"reqSigs": 1, "hex": "a9144e8fadcc76bb21bf191d0713609bbe71ec5e7f3787", "addresses": ["38rQkVTxjVpCDG7KbXxE7iFvrz4VynnrzA"], "asm": "OP_HASH160 4e8fadcc76bb21bf191d0713609bbe71ec5e7f37 OP_EQUAL", "type": "scripthash"}, "value": 0.00284731, "n": 0}, {"scriptPubKey": {"reqSigs": 1, "hex": "76a914019fdf0a19424084040279e2d3866ae58a78335b88ac", "addresses": ["19bCEyHC4u7Zu6zmo6FYtKXYM7vEHtREE"], "asm": "OP_DUP OP_HASH160 019fdf0a19424084040279e2d3866ae58a78335b OP_EQUALVERIFY OP_CHECKSIG", "type": "pubkeyhash"}, "value": 0.0100649, "n": 1}], "hex": "0200000002864c547c7fb0b810383af7685290d15f6eb0a48348f24a82a146dc4679364152000000006b483045022100bd7c813a078cfb8f8fc4eb7c16af46e1378984548e823f3df35d12b525fcb13102201df83168c51668aa6752313dba6118135efff4428ebee2368e38a6b8fd278caa012103653d175ee22015347cf8e07f347693526a14ac6a5658beb6ad2d3950105e20e0feffffffd7ddbb9f8b0698bc1d0f487ae696322c10b0f85121fc005cda3fe881ab6f2b6f000000006a4730440220536e0305cf8454bc99d4ebb9210437eef1dc88e24a2850089d5deeee3b62613a022022687ac419f1b3c5135fa5a314c9e834b784b3bac35ba75ab2bc2b245b0bdde801210356e3e9dd050b1fe492ffab5c6ab920bbef55ed767197b6643b5510bc0093aa04feffffff023b5804000000000017a9144e8fadcc76bb21bf191d0713609bbe71ec5e7f37879a5b0f00000000001976a914019fdf0a19424084040279e2d3866ae58a78335b88ac12490800", "vin": [{"sequence": 4294967294, "scriptSig": {"hex": "483045022100bd7c813a078cfb8f8fc4eb7c16af46e1378984548e823f3df35d12b525fcb13102201df83168c51668aa6752313dba6118135efff4428ebee2368e38a6b8fd278caa012103653d175ee22015347cf8e07f347693526a14ac6a5658beb6ad2d3950105e20e0", "asm": "3045022100bd7c813a078cfb8f8fc4eb7c16af46e1378984548e823f3df35d12b525fcb13102201df83168c51668aa6752313dba6118135efff4428ebee2368e38a6b8fd278caa[ALL] 03653d175ee22015347cf8e07f347693526a14ac6a5658beb6ad2d3950105e20e0"}, "vout": 0, "txid": "5241367946dc46a1824af24883a4b06e5fd1905268f73a3810b8b07f7c544c86"}, {"sequence": 4294967294, "scriptSig": {"hex": "4730440220536e0305cf8454bc99d4ebb9210437eef1dc88e24a2850089d5deeee3b62613a022022687ac419f1b3c5135fa5a314c9e834b784b3bac35ba75ab2bc2b245b0bdde801210356e3e9dd050b1fe492ffab5c6ab920bbef55ed767197b6643b5510bc0093aa04", "asm": "30440220536e0305cf8454bc99d4ebb9210437eef1dc88e24a2850089d5deeee3b62613a022022687ac419f1b3c5135fa5a314c9e834b784b3bac35ba75ab2bc2b245b0bdde8[ALL] 0356e3e9dd050b1fe492ffab5c6ab920bbef55ed767197b6643b5510bc0093aa04"}, "vout": 0, "txid": "6f2b6fab81e83fda5c00fc2151f8b0102c3296e67a480f1dbc98068b9fbbddd7"}], "txid": "36c2d1c12e53562164792c7ef3bb06d4ea867fcc5d10c9590a20031a63a85ad9", "blocktime": 1537872475, "version": 2, "confirmations": 11488, "time": 1537872475, "locktime": 542994, "vsize": 371, "size": 371}