{"hash": "36cbd46a703870f0b66bb0770db3cab45365f06093fb7b17eb882a833a19a088", "blockhash": "0000000000000000001f76057863aec43deb6fa401d9628bb513d65a8098bfab", "vout": [{"scriptPubKey": {"reqSigs": 1, "hex": "a91447fe19d7e0afdee7a4d52f2a40dc985d60d3133b87", "addresses": ["38FgJQaGGdZMg2spPu6nXdfwA2ojvRFT7X"], "asm": "OP_HASH160 47fe19d7e0afdee7a4d52f2a40dc985d60d3133b OP_EQUAL", "type": "scripthash"}, "value": 0.00400468, "n": 0}, {"scriptPubKey": {"reqSigs": 1, "hex": "76a9146db13bee6d3cba1da074c4f87426388a4457f13a88ac", "addresses": ["1AzzyMNFuQm6RrubMgvELE7gLUQQ9vtcWA"], "asm": "OP_DUP OP_HASH160 6db13bee6d3cba1da074c4f87426388a4457f13a OP_EQUALVERIFY OP_CHECKSIG", "type": "pubkeyhash"}, "value": 0.00163673, "n": 1}], "hex": "01000000010708bcb70b00495c211817a3d1d5d8b7fa5f00e162fa70c08c831a921c51a36900000000d9004730440220593adc461b8f032743f5c96c3e2e32cd5117675183d91d85be8f29b4c8b2a245022049623d1534ebef4cadea4d09f639283f9cc3f113fdefb866fb2a04868a63bf680147304402204f35894a7bf26866e15ee5ee8c1e27111ede3511d536cdd09e2a8069547a48f7022010808aacd6dab23579e69b67eb65ba94a1964835dc7c002a1ca0da7c2348897b0147522102907a54bed8ad74b3f35638c60114ca240a308cb986f3f2f306178869a8880b612102b556445b3a53972407494ad18779352c83d43925cc99c7b54c6d242b0bd4e96752aeffffffff02541c06000000000017a91447fe19d7e0afdee7a4d52f2a40dc985d60d3133b87597f0200000000001976a9146db13bee6d3cba1da074c4f87426388a4457f13a88ac00000000", "vin": [{"sequence": 4294967295, "scriptSig": {"hex": "004730440220593adc461b8f032743f5c96c3e2e32cd5117675183d91d85be8f29b4c8b2a245022049623d1534ebef4cadea4d09f639283f9cc3f113fdefb866fb2a04868a63bf680147304402204f35894a7bf26866e15ee5ee8c1e27111ede3511d536cdd09e2a8069547a48f7022010808aacd6dab23579e69b67eb65ba94a1964835dc7c002a1ca0da7c2348897b0147522102907a54bed8ad74b3f35638c60114ca240a308cb986f3f2f306178869a8880b612102b556445b3a53972407494ad18779352c83d43925cc99c7b54c6d242b0bd4e96752ae", "asm": "0 30440220593adc461b8f032743f5c96c3e2e32cd5117675183d91d85be8f29b4c8b2a245022049623d1534ebef4cadea4d09f639283f9cc3f113fdefb866fb2a04868a63bf68[ALL] 304402204f35894a7bf26866e15ee5ee8c1e27111ede3511d536cdd09e2a8069547a48f7022010808aacd6dab23579e69b67eb65ba94a1964835dc7c002a1ca0da7c2348897b[ALL] 522102907a54bed8ad74b3f35638c60114ca240a308cb986f3f2f306178869a8880b612102b556445b3a53972407494ad18779352c83d43925cc99c7b54c6d242b0bd4e96752ae"}, "vout": 0, "txid": "69a3511c921a838cc070fa62e1005ffab7d8d5d1a31718215c49000bb7bc0807"}], "txid": "36cbd46a703870f0b66bb0770db3cab45365f06093fb7b17eb882a833a19a088", "blocktime": 1537873891, "version": 1, "confirmations": 11478, "time": 1537873891, "locktime": 0, "vsize": 334, "size": 334}