{"hash": "36cb2c7639b05025cec956fbcbd9e1277d5a40eeaee1ab21a531a1879ea4359d", "blockhash": "0000000000000000000baef3f32e3676a92c3b2e5da21b426e4f302fc371ce76", "vout": [{"scriptPubKey": {"reqSigs": 1, "hex": "76a9143acfb94826328e23cc6b606869cb91eeaf64a79188ac", "addresses": ["16My32VvD7a8oJjNdhVgm9iSgqbyBEuRPd"], "asm": "OP_DUP OP_HASH160 3acfb94826328e23cc6b606869cb91eeaf64a791 OP_EQUALVERIFY OP_CHECKSIG", "type": "pubkeyhash"}, "value": 5.46e-06, "n": 0}, {"scriptPubKey": {"reqSigs": 1, "hex": "76a914a520c86a08366941cd90d22e11ac1c7eefa2db3788ac", "addresses": ["1G47mSr3oANXMafVrR8UC4pzV7FEAzo3r9"], "asm": "OP_DUP OP_HASH160 a520c86a08366941cd90d22e11ac1c7eefa2db37 OP_EQUALVERIFY OP_CHECKSIG", "type": "pubkeyhash"}, "value": 0.40616901, "n": 1}, {"scriptPubKey": {"type": "nulldata", "hex": "6a146f6d6e69000000000000001f000000012a05f200", "asm": "OP_RETURN 6f6d6e69000000000000001f000000012a05f200"}, "value": 0.0, "n": 2}], "hex": "0100000001b45f2d87eac9d2fa82ce1f3bc699d42909fc96149b4624efcd72978058d95114000000006b483045022100dc8a186803018d180b0d6bd6f1e31a117cc9289d8009eea04040abb7b4b430d202201d0aa714f30c2f126b08b2fbb24b504e5adc394f4cbe7bfa526328b29c0e75b3012103f3f44c9e80e2cedc1a2909631a3adea8866ee32187f74d0912387359b0ff36a2ffffffff0322020000000000001976a9143acfb94826328e23cc6b606869cb91eeaf64a79188acc5c36b02000000001976a914a520c86a08366941cd90d22e11ac1c7eefa2db3788ac0000000000000000166a146f6d6e69000000000000001f000000012a05f20000000000", "vin": [{"sequence": 4294967295, "scriptSig": {"hex": "483045022100dc8a186803018d180b0d6bd6f1e31a117cc9289d8009eea04040abb7b4b430d202201d0aa714f30c2f126b08b2fbb24b504e5adc394f4cbe7bfa526328b29c0e75b3012103f3f44c9e80e2cedc1a2909631a3adea8866ee32187f74d0912387359b0ff36a2", "asm": "3045022100dc8a186803018d180b0d6bd6f1e31a117cc9289d8009eea04040abb7b4b430d202201d0aa714f30c2f126b08b2fbb24b504e5adc394f4cbe7bfa526328b29c0e75b3[ALL] 03f3f44c9e80e2cedc1a2909631a3adea8866ee32187f74d0912387359b0ff36a2"}, "vout": 0, "txid": "1451d958809772cdef24469b1496fc0929d499c63b1fce82fad2c9ea872d5fb4"}], "txid": "36cb2c7639b05025cec956fbcbd9e1277d5a40eeaee1ab21a531a1879ea4359d", "blocktime": 1537876114, "version": 1, "confirmations": 11460, "time": 1537876114, "locktime": 0, "vsize": 257, "size": 257}