{"hash": "36cc117f1e791c6c4deb17dae03fb890881172cff844d866feb888d443dc4f63", "blockhash": "00000000000000000017f5eb5941039fbcee6240d03bc1f2f8e35350df66a1d8", "vout": [{"scriptPubKey": {"reqSigs": 1, "hex": "76a9142913c1fe6ffc30e96fc11b5e968acd1a2cdc89a088ac", "addresses": ["14kCNfJ9ZsMiwnSFbWEDworRjh8ZJdDK81"], "asm": "OP_DUP OP_HASH160 2913c1fe6ffc30e96fc11b5e968acd1a2cdc89a0 OP_EQUALVERIFY OP_CHECKSIG", "type": "pubkeyhash"}, "value": 0.001557, "n": 0}, {"scriptPubKey": {"reqSigs": 1, "hex": "76a9143676cc05bcfc8dd1021393ebb69c90a0a0858a8688ac", "addresses": ["15xyoWxXakF6Q2FzTGqh5n9CpRQSWV6WNh"], "asm": "OP_DUP OP_HASH160 3676cc05bcfc8dd1021393ebb69c90a0a0858a86 OP_EQUALVERIFY OP_CHECKSIG", "type": "pubkeyhash"}, "value": 0.02174654, "n": 1}], "hex": "0100000001c904db25e7f8d07efc754508f59633eae1ff0c485a439676a3ed18b4634f5240010000006a47304402205bf34154810a58b919dd1e5a19f2e7204d01e7af74bde65fcb0eb9229d867247022043b5a89d477ee4e36fb7102ffe1fed2246f923a3551f3d190d999af1994816b6012103bc0fb461a419277c14ccbb6a873b5d56787d2cb233997520f21afa3d12cea822ffffffff0234600200000000001976a9142913c1fe6ffc30e96fc11b5e968acd1a2cdc89a088acbe2e2100000000001976a9143676cc05bcfc8dd1021393ebb69c90a0a0858a8688ac00000000", "vin": [{"sequence": 4294967295, "scriptSig": {"hex": "47304402205bf34154810a58b919dd1e5a19f2e7204d01e7af74bde65fcb0eb9229d867247022043b5a89d477ee4e36fb7102ffe1fed2246f923a3551f3d190d999af1994816b6012103bc0fb461a419277c14ccbb6a873b5d56787d2cb233997520f21afa3d12cea822", "asm": "304402205bf34154810a58b919dd1e5a19f2e7204d01e7af74bde65fcb0eb9229d867247022043b5a89d477ee4e36fb7102ffe1fed2246f923a3551f3d190d999af1994816b6[ALL] 03bc0fb461a419277c14ccbb6a873b5d56787d2cb233997520f21afa3d12cea822"}, "vout": 1, "txid": "40524f63b418eda37696435a480cffe1ea3396f5084575fc7ed0f8e725db04c9"}], "txid": "36cc117f1e791c6c4deb17dae03fb890881172cff844d866feb888d443dc4f63", "blocktime": 1537874412, "version": 1, "confirmations": 11468, "time": 1537874412, "locktime": 0, "vsize": 225, "size": 225}