{"hash": "6ecd50f21b60c56658c41da3dcfe29663026caa6067e7bb28deacf7d449cb256", "blockhash": "00000000000000000024a2167bbff67b0be802c0b01cdd79e6331c2be6459f87", "vout": [{"scriptPubKey": {"reqSigs": 1, "hex": "a914bcfbdb1fa788c019464874683952e81f459bf78c87", "addresses": ["3JvGfsC6StWT4zud3h2idxaf2GdCCCvHVK"], "asm": "OP_HASH160 bcfbdb1fa788c019464874683952e81f459bf78c OP_EQUAL", "type": "scripthash"}, "value": 0.0077757, "n": 0}, {"scriptPubKey": {"reqSigs": 1, "hex": "a9148e291baf693b8877cf2ae869ea6a8d62b8d0ecdb87", "addresses": ["3Eeh82ZNvP9U3PvQAs5ZNEE687GDPzHDaq"], "asm": "OP_HASH160 8e291baf693b8877cf2ae869ea6a8d62b8d0ecdb OP_EQUAL", "type": "scripthash"}, "value": 3.14866424, "n": 1}], "hex": "0200000000010145887dd8e27ba595d44f46b1afe09e35203d902017b1fd1b8131abf4c690b3c80100000017160014d2534b0933d73234e9af8086bb2869d3be1fddd2ffffffff0262dd0b000000000017a914bcfbdb1fa788c019464874683952e81f459bf78c87f87ac4120000000017a9148e291baf693b8877cf2ae869ea6a8d62b8d0ecdb8702473044022024ef4e16d3fd1fc3a845b660d7fb5f438a3f27535110309fce1f21bc6b325e1002201512d3dd07448e6e30fd0e06701dff05ded2c4e4eb3b6bc6b1daec4fca29f50701210370a94c223a46012f878213dd4c3de08e4b0f42dc2d4825e0aefccf147382f6a100000000", "vin": [{"txinwitness": ["3044022024ef4e16d3fd1fc3a845b660d7fb5f438a3f27535110309fce1f21bc6b325e1002201512d3dd07448e6e30fd0e06701dff05ded2c4e4eb3b6bc6b1daec4fca29f50701", "0370a94c223a46012f878213dd4c3de08e4b0f42dc2d4825e0aefccf147382f6a1"], "sequence": 4294967295, "scriptSig": {"hex": "160014d2534b0933d73234e9af8086bb2869d3be1fddd2", "asm": "0014d2534b0933d73234e9af8086bb2869d3be1fddd2"}, "vout": 1, "txid": "c8b390c6f4ab31811bfdb11720903d20359ee0afb1464fd495a57be2d87d8845"}], "txid": "36ce5ad85ee15172f7bd82be8803e38f53292ccfb15a1c37f6154c4024ba182c", "blocktime": 1537870564, "version": 2, "confirmations": 11515, "time": 1537870564, "locktime": 0, "vsize": 166, "size": 247}