{"hash": "36d0f4c0c6b8e889b3b65e872a2b023abf7119a90f034c0f66e8d7f260aa81d7", "blockhash": "0000000000000000000e13cef7c366c0283d82e591d1acd082e914b08063cdf1", "vout": [{"scriptPubKey": {"reqSigs": 1, "hex": "76a914f0364a5aaf1481af7b608bbe9552d75f9317018288ac", "addresses": ["1Nu8DCvksH7KfcFGocaAFhAvkhu2QUc4vR"], "asm": "OP_DUP OP_HASH160 f0364a5aaf1481af7b608bbe9552d75f93170182 OP_EQUALVERIFY OP_CHECKSIG", "type": "pubkeyhash"}, "value": 0.00149604, "n": 0}, {"scriptPubKey": {"type": "nulldata", "hex": "6a4c50000077920001a0817281676d533cf647e040e3ef3236678a625097bcbefa6b8351586b4e2b5d7f7fe12a80b4161f8a251134e4055baa0c830614a9679223e896bc9a9526289ac0f6612cd74e33776ee4", "asm": "OP_RETURN 000077920001a0817281676d533cf647e040e3ef3236678a625097bcbefa6b8351586b4e2b5d7f7fe12a80b4161f8a251134e4055baa0c830614a9679223e896bc9a9526289ac0f6612cd74e33776ee4"}, "value": 0.0, "n": 1}], "hex": "01000000011d119913bcd5bb6135e10e9177e93a74ebaa9a31b31e95a971bd5e07ab9b6348000000006a473044022031fa0d8579fcbaaa7131859c825d68e3d3fc33c2bb7bcde69cf5c45c264b9bc602207f6259e4bb5fe039ab0c32db6474cc6dcdfa684304a7ec5627dc35ab386b3aa4012102b9765cf0fd8591fb23dc17ca70ef960f10014d97b07b0e5996836bddbb9b9cf5ffffffff0264480200000000001976a914f0364a5aaf1481af7b608bbe9552d75f9317018288ac0000000000000000536a4c50000077920001a0817281676d533cf647e040e3ef3236678a625097bcbefa6b8351586b4e2b5d7f7fe12a80b4161f8a251134e4055baa0c830614a9679223e896bc9a9526289ac0f6612cd74e33776ee400000000", "vin": [{"sequence": 4294967295, "scriptSig": {"hex": "473044022031fa0d8579fcbaaa7131859c825d68e3d3fc33c2bb7bcde69cf5c45c264b9bc602207f6259e4bb5fe039ab0c32db6474cc6dcdfa684304a7ec5627dc35ab386b3aa4012102b9765cf0fd8591fb23dc17ca70ef960f10014d97b07b0e5996836bddbb9b9cf5", "asm": "3044022031fa0d8579fcbaaa7131859c825d68e3d3fc33c2bb7bcde69cf5c45c264b9bc602207f6259e4bb5fe039ab0c32db6474cc6dcdfa684304a7ec5627dc35ab386b3aa4[ALL] 02b9765cf0fd8591fb23dc17ca70ef960f10014d97b07b0e5996836bddbb9b9cf5"}, "vout": 0, "txid": "48639bab075ebd71a9951eb3319aaaeb743ae977910ee13561bbd5bc1399111d"}], "txid": "36d0f4c0c6b8e889b3b65e872a2b023abf7119a90f034c0f66e8d7f260aa81d7", "blocktime": 1537871767, "version": 1, "confirmations": 11493, "time": 1537871767, "locktime": 0, "vsize": 283, "size": 283}