{"hash": "36d3d3a42fde3e619ec8c221573fb3be85ff25f81cc5829fb07364d0c475b178", "blockhash": "0000000000000000000e13cef7c366c0283d82e591d1acd082e914b08063cdf1", "vout": [{"scriptPubKey": {"reqSigs": 1, "hex": "a9147bc295af1009ea8f5c14104c5c3aac7d12ad182687", "addresses": ["3CyQ97yTAn2x8BASU4LJiHPLjEptmLoTHP"], "asm": "OP_HASH160 7bc295af1009ea8f5c14104c5c3aac7d12ad1826 OP_EQUAL", "type": "scripthash"}, "value": 0.0038, "n": 0}, {"scriptPubKey": {"reqSigs": 1, "hex": "76a9146af210128003965aa61ca2f128dc91329725f9a888ac", "addresses": ["1AkUc9kwGGV8nJS6wJUxzJQAiZDPTYmSnp"], "asm": "OP_DUP OP_HASH160 6af210128003965aa61ca2f128dc91329725f9a8 OP_EQUALVERIFY OP_CHECKSIG", "type": "pubkeyhash"}, "value": 0.02969254, "n": 1}], "hex": "010000000167dd5e7a26421cb51abb73cb2747cb812ced707eeabfb4b92c3b6b988139924d010000006a4730440220568a440c5e57433cb6261ae072106b9cc3544e0cf118aa9ce10516e5f5cdca8b02200b0bceebe03383a6e78c765d13a957e518f561272fcd63de4329608d1d35132b012103474368ebea1c149756e0492c1b67a7e4de12dcd65276e9695414e551ddd19b94ffffffff0260cc05000000000017a9147bc295af1009ea8f5c14104c5c3aac7d12ad182687a64e2d00000000001976a9146af210128003965aa61ca2f128dc91329725f9a888ac00000000", "vin": [{"sequence": 4294967295, "scriptSig": {"hex": "4730440220568a440c5e57433cb6261ae072106b9cc3544e0cf118aa9ce10516e5f5cdca8b02200b0bceebe03383a6e78c765d13a957e518f561272fcd63de4329608d1d35132b012103474368ebea1c149756e0492c1b67a7e4de12dcd65276e9695414e551ddd19b94", "asm": "30440220568a440c5e57433cb6261ae072106b9cc3544e0cf118aa9ce10516e5f5cdca8b02200b0bceebe03383a6e78c765d13a957e518f561272fcd63de4329608d1d35132b[ALL] 03474368ebea1c149756e0492c1b67a7e4de12dcd65276e9695414e551ddd19b94"}, "vout": 1, "txid": "4d923981986b3b2cb9b4bfea7e70ed2c81cb4727cb73bb1ab51c42267a5edd67"}], "txid": "36d3d3a42fde3e619ec8c221573fb3be85ff25f81cc5829fb07364d0c475b178", "blocktime": 1537871767, "version": 1, "confirmations": 11493, "time": 1537871767, "locktime": 0, "vsize": 223, "size": 223}