{"hash": "36d4de77fbf6457ba06fb910b43ea586dbb75a39f7b8e0385caf0d829f5cc005", "blockhash": "0000000000000000001cda96e906b7601b7a6fb1a3b62bca570a9e5d8f4b3de1", "vout": [{"scriptPubKey": {"reqSigs": 1, "hex": "76a9144d21e12dcd3df3ea67c1e6e55751616c572cbc3c88ac", "addresses": ["182qcmVn3jsK4j3FMLhSC3CTpu4E95Q45c"], "asm": "OP_DUP OP_HASH160 4d21e12dcd3df3ea67c1e6e55751616c572cbc3c OP_EQUALVERIFY OP_CHECKSIG", "type": "pubkeyhash"}, "value": 0.01359807, "n": 0}, {"scriptPubKey": {"reqSigs": 1, "hex": "76a91425cfcf1c86fd3a351fd22db48c8659d6db0a89cf88ac", "addresses": ["14SvwvVFv1yPcj2ZD4KPVoAH5GCrnGAVGK"], "asm": "OP_DUP OP_HASH160 25cfcf1c86fd3a351fd22db48c8659d6db0a89cf OP_EQUALVERIFY OP_CHECKSIG", "type": "pubkeyhash"}, "value": 0.0644251, "n": 1}], "hex": "01000000012abe6857fd36d32d43ace840cad93a2aee9aa346f63df97905229d63ab6f63c6010000006a4730440220514a550540cdd191e47f84ffdb3562d6ca9d6eee6e24068b9604968d29fdd8cd0220009cb91ac15d64930b9ea30d8e53deb98cdadbc27b89fc25ae61ffa6c5da124a01210289dfa716ff7c7ff5e6f15310faed1f43b4865df548af45fe9e8dd5fe950035e5ffffffff02bfbf1400000000001976a9144d21e12dcd3df3ea67c1e6e55751616c572cbc3c88ac0e4e6200000000001976a91425cfcf1c86fd3a351fd22db48c8659d6db0a89cf88ac00000000", "vin": [{"sequence": 4294967295, "scriptSig": {"hex": "4730440220514a550540cdd191e47f84ffdb3562d6ca9d6eee6e24068b9604968d29fdd8cd0220009cb91ac15d64930b9ea30d8e53deb98cdadbc27b89fc25ae61ffa6c5da124a01210289dfa716ff7c7ff5e6f15310faed1f43b4865df548af45fe9e8dd5fe950035e5", "asm": "30440220514a550540cdd191e47f84ffdb3562d6ca9d6eee6e24068b9604968d29fdd8cd0220009cb91ac15d64930b9ea30d8e53deb98cdadbc27b89fc25ae61ffa6c5da124a[ALL] 0289dfa716ff7c7ff5e6f15310faed1f43b4865df548af45fe9e8dd5fe950035e5"}, "vout": 1, "txid": "c6636fab639d220579f93df646a39aee2a3ad9ca40e8ac432dd336fd5768be2a"}], "txid": "36d4de77fbf6457ba06fb910b43ea586dbb75a39f7b8e0385caf0d829f5cc005", "blocktime": 1537873282, "version": 1, "confirmations": 11485, "time": 1537873282, "locktime": 0, "vsize": 225, "size": 225}