{"hash": "cf110fefd9040850b87eb24fcc765406e221f3322f6bf11ee8accf4706d3f07f", "blockhash": "000000000000000000022b45ed06c6f4ccd3cf7fb5ba4856ebd2e58215665228", "vout": [{"scriptPubKey": {"reqSigs": 1, "hex": "76a9141acfe14f46feb853e2ecf868380780067941f98a88ac", "addresses": ["13SmbkaFAGdfkXYBTwKz6WCe12TJNNmwVr"], "asm": "OP_DUP OP_HASH160 1acfe14f46feb853e2ecf868380780067941f98a OP_EQUALVERIFY OP_CHECKSIG", "type": "pubkeyhash"}, "value": 0.01719173, "n": 0}, {"scriptPubKey": {"reqSigs": 1, "hex": "a91414db17e0469fe6e134ebd7848138a4db101e6f4687", "addresses": ["33bHuFJML6NSGzrRg9WK87iZGZAbGANuD3"], "asm": "OP_HASH160 14db17e0469fe6e134ebd7848138a4db101e6f46 OP_EQUAL", "type": "scripthash"}, "value": 0.54908824, "n": 1}], "hex": "02000000000101f5690a451bbdfed02e6dd44b8b777d7e5f8043d18cfae1183cd9800817fe35170100000017160014fabe458049aa8aacf74866c98871fa3ad5fb6798ffffffff02853b1a00000000001976a9141acfe14f46feb853e2ecf868380780067941f98a88ac98d745030000000017a91414db17e0469fe6e134ebd7848138a4db101e6f468702473044022049fb24bf5060625d6a4ce92c2e09282a6fb33e4049148088d5587cedd200f342022021645f2f27184d3224ff26b66fb5559099efa213bfe1ba99ae3f03af1a2db9d80121025c5c3f66fe5213a1164536231a97df42d897360d8b56bec3b67d85b35efb838500000000", "vin": [{"txinwitness": ["3044022049fb24bf5060625d6a4ce92c2e09282a6fb33e4049148088d5587cedd200f342022021645f2f27184d3224ff26b66fb5559099efa213bfe1ba99ae3f03af1a2db9d801", "025c5c3f66fe5213a1164536231a97df42d897360d8b56bec3b67d85b35efb8385"], "sequence": 4294967295, "scriptSig": {"hex": "160014fabe458049aa8aacf74866c98871fa3ad5fb6798", "asm": "0014fabe458049aa8aacf74866c98871fa3ad5fb6798"}, "vout": 1, "txid": "1735fe170880d93c18e1fa8cd143805f7e7d778b4bd46d2ed0febd1b450a69f5"}], "txid": "36d784b45e121da658b364703e2e4c10dac9f6039e46086fd34e1c6fce3e8197", "blocktime": 1537869901, "version": 2, "confirmations": 11522, "time": 1537869901, "locktime": 0, "vsize": 168, "size": 249}