{"hash": "36d7676224ee642f616b0461267453e379299c950c098d44f2cff81ecc599043", "blockhash": "0000000000000000000baef3f32e3676a92c3b2e5da21b426e4f302fc371ce76", "vout": [{"scriptPubKey": {"reqSigs": 1, "hex": "a914cae88eab10e4f68f2327e87069aa9ab602e7002a87", "addresses": ["3LBu1f7Ae9EHZzj4YsxAYTSdzi74vK82mA"], "asm": "OP_HASH160 cae88eab10e4f68f2327e87069aa9ab602e7002a OP_EQUAL", "type": "scripthash"}, "value": 0.00892027, "n": 0}], "hex": "0100000001e98f3b7859f57b2b097739543d976888eac21347bdcec0a4b27a1e1ce165cf81000000006b483045022100c36ca560e8892827762f294db9a0e90b00fbc96cc315799a6f08e13a302ac37002201bfccc500c274921e513e3cd2d4de66ff56c74a3bcd37803bfabeb9abd61eecc012103e047ec2c14213220203e372526a9682662f0e1f58485d06798a30a7bb61f9169ffffffff017b9c0d000000000017a914cae88eab10e4f68f2327e87069aa9ab602e7002a8700000000", "vin": [{"sequence": 4294967295, "scriptSig": {"hex": "483045022100c36ca560e8892827762f294db9a0e90b00fbc96cc315799a6f08e13a302ac37002201bfccc500c274921e513e3cd2d4de66ff56c74a3bcd37803bfabeb9abd61eecc012103e047ec2c14213220203e372526a9682662f0e1f58485d06798a30a7bb61f9169", "asm": "3045022100c36ca560e8892827762f294db9a0e90b00fbc96cc315799a6f08e13a302ac37002201bfccc500c274921e513e3cd2d4de66ff56c74a3bcd37803bfabeb9abd61eecc[ALL] 03e047ec2c14213220203e372526a9682662f0e1f58485d06798a30a7bb61f9169"}, "vout": 0, "txid": "81cf65e11c1e7ab2a4c0cebd4713c2ea8868973d543977092b7bf559783b8fe9"}], "txid": "36d7676224ee642f616b0461267453e379299c950c098d44f2cff81ecc599043", "blocktime": 1537876114, "version": 1, "confirmations": 11460, "time": 1537876114, "locktime": 0, "vsize": 190, "size": 190}