{"hash": "36d8672d88c93203932a455e6de6bbe20d08bf977d78cfeeb9b758cee6b90726", "blockhash": "0000000000000000001f76057863aec43deb6fa401d9628bb513d65a8098bfab", "vout": [{"scriptPubKey": {"reqSigs": 1, "hex": "a9147e4edf638cd2698abd63e3152b82d12b66c7c0d187", "addresses": ["3DCsYsyDFKqN9Yd5zp5GoSVxmD5RuU3rAc"], "asm": "OP_HASH160 7e4edf638cd2698abd63e3152b82d12b66c7c0d1 OP_EQUAL", "type": "scripthash"}, "value": 0.00500161, "n": 0}, {"scriptPubKey": {"reqSigs": 1, "hex": "76a914d66af0c9c5c3077753cbf3ccc75c43563d7bf4ef88ac", "addresses": ["1LYjiQydypKYgvorJ3h3ckGWyLFnGXHv75"], "asm": "OP_DUP OP_HASH160 d66af0c9c5c3077753cbf3ccc75c43563d7bf4ef OP_EQUALVERIFY OP_CHECKSIG", "type": "pubkeyhash"}, "value": 0.00242904, "n": 1}], "hex": "010000000648ab17595c876fdfe4e8d2acab4048633fdccb3e9fea9c864afcd35f812b37fb000000008b483045022100b75cb86ecbf6177805dde31f2327dab5e687a1401a24e6afb9584b142ee9f25b022064847c3e6a06f59fa99681147a3bf390e00b8b7969bf34ea4a40f2418daf79de0141045c8714ab78f23e36ef582f79afd999a9cb1a682cf6c38e366264d10119b3ed42532b3b9884914a0212b7e75868786772ed7c131ef8d8e6af09c88089aa4ae527ffffffff0904c39ead3f908e3adbc1eb983a58e7899d1152413a2ce40ada34a4f9343c16260000008b483045022100c450df194acf4924a43125d3288a746c6ce457f341ad93a9a810edde48157da202200e91f8324aae61ccced72086c0af21f8cf4fe67319e3aab506de287d1a2ae7a8014104d6c6e495c7f1593391d9a9a1aa34c23fa755d258dd2d62f1d4a179ae08a939dfd17a7ace44567ee47f43d261750d5f3b926055c7c8705a876837994867f79d89ffffffffcb8b1fb39c8484792a100ca32adfab36d0ec33b66230c71ac7a1e9d75cf5a85f800400008b483045022100ad77383fac46b7cc093f778372cc6c046b467bf70dd34eff4abe35ef6358df79022014d319aae7606b5ab85f18c9fe2f02aced5c974223018abd3741797d8c69030f014104aab607e04ad8c0b7b070b0b6a9cc3b17c7fdaf8ded11af43c7f8b159c21ec4b62c004ceaf2a723d2e0b7a59f5b6f636d86b667b9a6807d6ada7a1db775c07410ffffffff2024953e1ccbaa1ee7a1653f1e3d976867561bed4caacf201e28263a68d2f4d1a60500008b483045022100867cd40ac921f6835bbb8a1d7e949ece4a6b803b47c0d133700322f527ccc5e7022043262d93506c211b8ece92a12a7c51b07f192abe6dffa87ef62e5ed4fa25560f01410453b4a70bb30b0186043c4cdb2d68db737c0d627ccac4a0057dd04324afdd8bfad4a33b900de8a77e230f633062b70fb84056f037d7b9736d36649bb5da0d4cc7ffffffff0526ed1be2e9900c9f91316b33beb2563e75fda7fe0918d8d2781152923c66ec220000008b48304502210096a006103fa26168eda0c2fe642282f19d6bc36684e76da5c2c97d98b0cf743b0220078496b9f303297519102048fe6ab873bf49d70ceb505592ca72f68c3373d5f5014104dcecc7f9b2fc97e95c2931d24df312783d1cf280e745492cf9eba0c35722046cdaab07cee3f799f2bad77a1d565e6609f5ba2c3d23ffdfb52ce076d96ae81022ffffffff722cccf401de70643a678b430ca69f67798df89748d323d84908e9e99e0e62a4000000008a4730440220352b487492699e688bf1aef31505b13269b7eb1dba7022814127850727c2d8930220045b2744e731c6c8f092684af837701ba8b681abb55454873af917e6818c8c0301410400f7f0c999a245c837912844f797a42928550ac032b6c5f71db4b7b56b51a7a21f252945edcabee0193e609b42af2f6601df0ed7febd52285b1e013472dcf80dffffffff02c1a107000000000017a9147e4edf638cd2698abd63e3152b82d12b66c7c0d187d8b40300000000001976a914d66af0c9c5c3077753cbf3ccc75c43563d7bf4ef88ac00000000", "vin": [{"sequence": 4294967295, "scriptSig": {"hex": "483045022100b75cb86ecbf6177805dde31f2327dab5e687a1401a24e6afb9584b142ee9f25b022064847c3e6a06f59fa99681147a3bf390e00b8b7969bf34ea4a40f2418daf79de0141045c8714ab78f23e36ef582f79afd999a9cb1a682cf6c38e366264d10119b3ed42532b3b9884914a0212b7e75868786772ed7c131ef8d8e6af09c88089aa4ae527", "asm": "3045022100b75cb86ecbf6177805dde31f2327dab5e687a1401a24e6afb9584b142ee9f25b022064847c3e6a06f59fa99681147a3bf390e00b8b7969bf34ea4a40f2418daf79de[ALL] 045c8714ab78f23e36ef582f79afd999a9cb1a682cf6c38e366264d10119b3ed42532b3b9884914a0212b7e75868786772ed7c131ef8d8e6af09c88089aa4ae527"}, "vout": 0, "txid": "fb372b815fd3fc4a869cea9f3ecbdc3f634840abacd2e8e4df6f875c5917ab48"}, {"sequence": 4294967295, "scriptSig": {"hex": "483045022100c450df194acf4924a43125d3288a746c6ce457f341ad93a9a810edde48157da202200e91f8324aae61ccced72086c0af21f8cf4fe67319e3aab506de287d1a2ae7a8014104d6c6e495c7f1593391d9a9a1aa34c23fa755d258dd2d62f1d4a179ae08a939dfd17a7ace44567ee47f43d261750d5f3b926055c7c8705a876837994867f79d89", "asm": "3045022100c450df194acf4924a43125d3288a746c6ce457f341ad93a9a810edde48157da202200e91f8324aae61ccced72086c0af21f8cf4fe67319e3aab506de287d1a2ae7a8[ALL] 04d6c6e495c7f1593391d9a9a1aa34c23fa755d258dd2d62f1d4a179ae08a939dfd17a7ace44567ee47f43d261750d5f3b926055c7c8705a876837994867f79d89"}, "vout": 38, "txid": "163c34f9a434da0ae42c3a4152119d89e7583a98ebc1db3a8e903fad9ec30409"}, {"sequence": 4294967295, "scriptSig": {"hex": "483045022100ad77383fac46b7cc093f778372cc6c046b467bf70dd34eff4abe35ef6358df79022014d319aae7606b5ab85f18c9fe2f02aced5c974223018abd3741797d8c69030f014104aab607e04ad8c0b7b070b0b6a9cc3b17c7fdaf8ded11af43c7f8b159c21ec4b62c004ceaf2a723d2e0b7a59f5b6f636d86b667b9a6807d6ada7a1db775c07410", "asm": "3045022100ad77383fac46b7cc093f778372cc6c046b467bf70dd34eff4abe35ef6358df79022014d319aae7606b5ab85f18c9fe2f02aced5c974223018abd3741797d8c69030f[ALL] 04aab607e04ad8c0b7b070b0b6a9cc3b17c7fdaf8ded11af43c7f8b159c21ec4b62c004ceaf2a723d2e0b7a59f5b6f636d86b667b9a6807d6ada7a1db775c07410"}, "vout": 1152, "txid": "5fa8f55cd7e9a1c71ac73062b633ecd036abdf2aa30c102a7984849cb31f8bcb"}, {"sequence": 4294967295, "scriptSig": {"hex": "483045022100867cd40ac921f6835bbb8a1d7e949ece4a6b803b47c0d133700322f527ccc5e7022043262d93506c211b8ece92a12a7c51b07f192abe6dffa87ef62e5ed4fa25560f01410453b4a70bb30b0186043c4cdb2d68db737c0d627ccac4a0057dd04324afdd8bfad4a33b900de8a77e230f633062b70fb84056f037d7b9736d36649bb5da0d4cc7", "asm": "3045022100867cd40ac921f6835bbb8a1d7e949ece4a6b803b47c0d133700322f527ccc5e7022043262d93506c211b8ece92a12a7c51b07f192abe6dffa87ef62e5ed4fa25560f[ALL] 0453b4a70bb30b0186043c4cdb2d68db737c0d627ccac4a0057dd04324afdd8bfad4a33b900de8a77e230f633062b70fb84056f037d7b9736d36649bb5da0d4cc7"}, "vout": 1446, "txid": "d1f4d2683a26281e20cfaa4ced1b566768973d1e3f65a1e71eaacb1c3e952420"}, {"sequence": 4294967295, "scriptSig": {"hex": "48304502210096a006103fa26168eda0c2fe642282f19d6bc36684e76da5c2c97d98b0cf743b0220078496b9f303297519102048fe6ab873bf49d70ceb505592ca72f68c3373d5f5014104dcecc7f9b2fc97e95c2931d24df312783d1cf280e745492cf9eba0c35722046cdaab07cee3f799f2bad77a1d565e6609f5ba2c3d23ffdfb52ce076d96ae81022", "asm": "304502210096a006103fa26168eda0c2fe642282f19d6bc36684e76da5c2c97d98b0cf743b0220078496b9f303297519102048fe6ab873bf49d70ceb505592ca72f68c3373d5f5[ALL] 04dcecc7f9b2fc97e95c2931d24df312783d1cf280e745492cf9eba0c35722046cdaab07cee3f799f2bad77a1d565e6609f5ba2c3d23ffdfb52ce076d96ae81022"}, "vout": 34, "txid": "ec663c92521178d2d81809fea7fd753e56b2be336b31919f0c90e9e21bed2605"}, {"sequence": 4294967295, "scriptSig": {"hex": "4730440220352b487492699e688bf1aef31505b13269b7eb1dba7022814127850727c2d8930220045b2744e731c6c8f092684af837701ba8b681abb55454873af917e6818c8c0301410400f7f0c999a245c837912844f797a42928550ac032b6c5f71db4b7b56b51a7a21f252945edcabee0193e609b42af2f6601df0ed7febd52285b1e013472dcf80d", "asm": "30440220352b487492699e688bf1aef31505b13269b7eb1dba7022814127850727c2d8930220045b2744e731c6c8f092684af837701ba8b681abb55454873af917e6818c8c03[ALL] 0400f7f0c999a245c837912844f797a42928550ac032b6c5f71db4b7b56b51a7a21f252945edcabee0193e609b42af2f6601df0ed7febd52285b1e013472dcf80d"}, "vout": 0, "txid": "a4620e9ee9e90849d823d34897f88d79679fa60c438b673a6470de01f4cc2c72"}], "txid": "36d8672d88c93203932a455e6de6bbe20d08bf977d78cfeeb9b758cee6b90726", "blocktime": 1537873891, "version": 1, "confirmations": 11474, "time": 1537873891, "locktime": 0, "vsize": 1155, "size": 1155}