{"hash": "36e1b6bb257ffd260e1271decd545851c38e0edbed7ffe8f6e9ff9b3afb68fc2", "blockhash": "0000000000000000000e13cef7c366c0283d82e591d1acd082e914b08063cdf1", "vout": [{"scriptPubKey": {"reqSigs": 1, "hex": "76a9147398d95121c890ed9203aee74429dc4f5bdd05c388ac", "addresses": ["1BYDpBtwFpGXGwZjtz1JjNeW6uuCTEWPwq"], "asm": "OP_DUP OP_HASH160 7398d95121c890ed9203aee74429dc4f5bdd05c3 OP_EQUALVERIFY OP_CHECKSIG", "type": "pubkeyhash"}, "value": 0.00406677, "n": 0}, {"scriptPubKey": {"reqSigs": 1, "hex": "76a91481462b4459ef62993d7efdb4f7e14b4e759d112c88ac", "addresses": ["1CnYEB87pkghXezpqqWbWWdbk6TFt2R3Cr"], "asm": "OP_DUP OP_HASH160 81462b4459ef62993d7efdb4f7e14b4e759d112c OP_EQUALVERIFY OP_CHECKSIG", "type": "pubkeyhash"}, "value": 0.93, "n": 1}], "hex": "010000000659edfc78ae587f05753a0e91415fc56216e0f8afc980ea2d04d47def32be4718000000006a47304402202f3afdce331a3a4d697376479650ffc004262fc3bfb49043734ca13e26e6bbc202204996204e34f526d5d4ecbc65e750a116356414fd2bf14e6d9ea534a76b3016ef0121035028fc941d6a8a1a751af7e4cddfe615a7f3c53f46d024fe2f7e2dc516d2439cffffffff6e24863a4598a2a5d149ca78ff0e8e172272835177cc62a4ddedc3a5e86a9727020000006b483045022100b22a37175872724a86ef010b76161474dbe92bb97655ad06597976a36eb4096a02203ea34d0a9702db535884c99d44d8abcc3982e60eceabf5bbab2d4de999623e45012103a2f0e0f53c33811ba3a16f156387ad61c2d7d5a7bf36406a8077a8e09371616cffffffff954b8f3e21fdf585a8442a853cf6378650e7c86685db64ff5373802336f0f35e010000006a47304402201fa3d219f5dece4551f658224900d9c0a1e4cd9b999a8f7c15e53aa763461a240220723d55f8afe19a6f44dead5385659e8a67fc25eb8e665c5f0ca567dc19e0f438012103a2f0e0f53c33811ba3a16f156387ad61c2d7d5a7bf36406a8077a8e09371616cffffffff49fd2cbc339b97b0719f468e893270e125516785bf1c19125624cf9885afb26c030000006b483045022100c6378830681ab807219ab83683b253265430283b6aae24bb004d9c27a817af0302202352cafdfe420af52c35c66ef276b744f1a4447f5758131de591f21ca650d3a1012103a2f0e0f53c33811ba3a16f156387ad61c2d7d5a7bf36406a8077a8e09371616cffffffff1535f1e0a6e5bc5a29caae9f5842a9983cd890ba471c1828b574cb66511a559d030000006b483045022100988a9cb4d26900e8dc771334fd627603581c96dc826a630380d209e2a9a332c802207d2e998370208df211de0afaef809a380f0eb7ee54e018a4c1c025bf87bb6b7d01210311ba65bf1c70a3b5c1c81770937d08047b9163110a2b18178c95f2423256ba70ffffffff4e7ac70b091ac5c3717e09ce0111bbfbc4e6a5dd5c67f1c56c59f0b571cb21b7050000006b483045022100c7c6cecb7e9c3e30bba26285e14a3dc46c0429df590507cd7c798cdb92906fb7022000827d786a570a5fb5f4ffb1afc61f65daa1b8f783ba14b5eced62aefbdfe62d012102cf441a8c2f9a6684b0e181cf8f1251d1a525b028edc15c29a1a13668ccf33c4effffffff0295340600000000001976a9147398d95121c890ed9203aee74429dc4f5bdd05c388ac40118b05000000001976a91481462b4459ef62993d7efdb4f7e14b4e759d112c88ac00000000", "vin": [{"sequence": 4294967295, "scriptSig": {"hex": "47304402202f3afdce331a3a4d697376479650ffc004262fc3bfb49043734ca13e26e6bbc202204996204e34f526d5d4ecbc65e750a116356414fd2bf14e6d9ea534a76b3016ef0121035028fc941d6a8a1a751af7e4cddfe615a7f3c53f46d024fe2f7e2dc516d2439c", "asm": "304402202f3afdce331a3a4d697376479650ffc004262fc3bfb49043734ca13e26e6bbc202204996204e34f526d5d4ecbc65e750a116356414fd2bf14e6d9ea534a76b3016ef[ALL] 035028fc941d6a8a1a751af7e4cddfe615a7f3c53f46d024fe2f7e2dc516d2439c"}, "vout": 0, "txid": "1847be32ef7dd4042dea80c9aff8e01662c55f41910e3a75057f58ae78fced59"}, {"sequence": 4294967295, "scriptSig": {"hex": "483045022100b22a37175872724a86ef010b76161474dbe92bb97655ad06597976a36eb4096a02203ea34d0a9702db535884c99d44d8abcc3982e60eceabf5bbab2d4de999623e45012103a2f0e0f53c33811ba3a16f156387ad61c2d7d5a7bf36406a8077a8e09371616c", "asm": "3045022100b22a37175872724a86ef010b76161474dbe92bb97655ad06597976a36eb4096a02203ea34d0a9702db535884c99d44d8abcc3982e60eceabf5bbab2d4de999623e45[ALL] 03a2f0e0f53c33811ba3a16f156387ad61c2d7d5a7bf36406a8077a8e09371616c"}, "vout": 2, "txid": "27976ae8a5c3eddda462cc7751837222178e0eff78ca49d1a5a298453a86246e"}, {"sequence": 4294967295, "scriptSig": {"hex": "47304402201fa3d219f5dece4551f658224900d9c0a1e4cd9b999a8f7c15e53aa763461a240220723d55f8afe19a6f44dead5385659e8a67fc25eb8e665c5f0ca567dc19e0f438012103a2f0e0f53c33811ba3a16f156387ad61c2d7d5a7bf36406a8077a8e09371616c", "asm": "304402201fa3d219f5dece4551f658224900d9c0a1e4cd9b999a8f7c15e53aa763461a240220723d55f8afe19a6f44dead5385659e8a67fc25eb8e665c5f0ca567dc19e0f438[ALL] 03a2f0e0f53c33811ba3a16f156387ad61c2d7d5a7bf36406a8077a8e09371616c"}, "vout": 1, "txid": "5ef3f03623807353ff64db8566c8e7508637f63c852a44a885f5fd213e8f4b95"}, {"sequence": 4294967295, "scriptSig": {"hex": "483045022100c6378830681ab807219ab83683b253265430283b6aae24bb004d9c27a817af0302202352cafdfe420af52c35c66ef276b744f1a4447f5758131de591f21ca650d3a1012103a2f0e0f53c33811ba3a16f156387ad61c2d7d5a7bf36406a8077a8e09371616c", "asm": "3045022100c6378830681ab807219ab83683b253265430283b6aae24bb004d9c27a817af0302202352cafdfe420af52c35c66ef276b744f1a4447f5758131de591f21ca650d3a1[ALL] 03a2f0e0f53c33811ba3a16f156387ad61c2d7d5a7bf36406a8077a8e09371616c"}, "vout": 3, "txid": "6cb2af8598cf245612191cbf85675125e17032898e469f71b0979b33bc2cfd49"}, {"sequence": 4294967295, "scriptSig": {"hex": "483045022100988a9cb4d26900e8dc771334fd627603581c96dc826a630380d209e2a9a332c802207d2e998370208df211de0afaef809a380f0eb7ee54e018a4c1c025bf87bb6b7d01210311ba65bf1c70a3b5c1c81770937d08047b9163110a2b18178c95f2423256ba70", "asm": "3045022100988a9cb4d26900e8dc771334fd627603581c96dc826a630380d209e2a9a332c802207d2e998370208df211de0afaef809a380f0eb7ee54e018a4c1c025bf87bb6b7d[ALL] 0311ba65bf1c70a3b5c1c81770937d08047b9163110a2b18178c95f2423256ba70"}, "vout": 3, "txid": "9d551a5166cb74b528181c47ba90d83c98a942589faeca295abce5a6e0f13515"}, {"sequence": 4294967295, "scriptSig": {"hex": "483045022100c7c6cecb7e9c3e30bba26285e14a3dc46c0429df590507cd7c798cdb92906fb7022000827d786a570a5fb5f4ffb1afc61f65daa1b8f783ba14b5eced62aefbdfe62d012102cf441a8c2f9a6684b0e181cf8f1251d1a525b028edc15c29a1a13668ccf33c4e", "asm": "3045022100c7c6cecb7e9c3e30bba26285e14a3dc46c0429df590507cd7c798cdb92906fb7022000827d786a570a5fb5f4ffb1afc61f65daa1b8f783ba14b5eced62aefbdfe62d[ALL] 02cf441a8c2f9a6684b0e181cf8f1251d1a525b028edc15c29a1a13668ccf33c4e"}, "vout": 5, "txid": "b721cb71b5f0596cc5f1675cdda5e6c4fbbb1101ce097e71c3c51a090bc77a4e"}], "txid": "36e1b6bb257ffd260e1271decd545851c38e0edbed7ffe8f6e9ff9b3afb68fc2", "blocktime": 1537871767, "version": 1, "confirmations": 11495, "time": 1537871767, "locktime": 0, "vsize": 964, "size": 964}