{"hash": "36e39edc6e89de6e8573fe74cbf3ec6bd69c6c408f612a7a5399dcd7dbcc7aea", "blockhash": "0000000000000000001cda96e906b7601b7a6fb1a3b62bca570a9e5d8f4b3de1", "vout": [{"scriptPubKey": {"reqSigs": 1, "hex": "76a914286312906cd1f5ee30ad671953367db8e64b563088ac", "addresses": ["14gYiMSDq2iFcJNA1kBGmeDom2D9ELqGKM"], "asm": "OP_DUP OP_HASH160 286312906cd1f5ee30ad671953367db8e64b5630 OP_EQUALVERIFY OP_CHECKSIG", "type": "pubkeyhash"}, "value": 0.01092939, "n": 0}, {"scriptPubKey": {"reqSigs": 1, "hex": "76a91478fa6472de6dd71054466370d90e1c07951b792088ac", "addresses": ["1C2g3b3rrceQwFhCWRDZGPvAE9fMqHKtFS"], "asm": "OP_DUP OP_HASH160 78fa6472de6dd71054466370d90e1c07951b7920 OP_EQUALVERIFY OP_CHECKSIG", "type": "pubkeyhash"}, "value": 0.14530162, "n": 1}], "hex": "0100000001654415d2945430e20686f958e99fe5424fd48b0bae39e5c06114963361e7334f010000006b48304502210093a55585222f76e1c1c590b0d0d199903020329db017c6f238fe0524537bb0b102200f3c7e929cc092da8cfe9413ad0d209e76659da20711e6bfd5573f4895aea50701210350c395e166c19ddd25ad0c3516dad8f6ff0cf1e0086eea93ee1a616fbcf95895ffffffff024bad1000000000001976a914286312906cd1f5ee30ad671953367db8e64b563088ac72b6dd00000000001976a91478fa6472de6dd71054466370d90e1c07951b792088ac00000000", "vin": [{"sequence": 4294967295, "scriptSig": {"hex": "48304502210093a55585222f76e1c1c590b0d0d199903020329db017c6f238fe0524537bb0b102200f3c7e929cc092da8cfe9413ad0d209e76659da20711e6bfd5573f4895aea50701210350c395e166c19ddd25ad0c3516dad8f6ff0cf1e0086eea93ee1a616fbcf95895", "asm": "304502210093a55585222f76e1c1c590b0d0d199903020329db017c6f238fe0524537bb0b102200f3c7e929cc092da8cfe9413ad0d209e76659da20711e6bfd5573f4895aea507[ALL] 0350c395e166c19ddd25ad0c3516dad8f6ff0cf1e0086eea93ee1a616fbcf95895"}, "vout": 1, "txid": "4f33e76133961461c0e539ae0b8bd44f42e59fe958f98606e2305494d2154465"}], "txid": "36e39edc6e89de6e8573fe74cbf3ec6bd69c6c408f612a7a5399dcd7dbcc7aea", "blocktime": 1537873282, "version": 1, "confirmations": 11485, "time": 1537873282, "locktime": 0, "vsize": 226, "size": 226}