{"hash": "36ebc8b2f3a3d40e3ccb1e7c44782c889b7009e09e22e28c0a4dc513beec5513", "blockhash": "0000000000000000000e13cef7c366c0283d82e591d1acd082e914b08063cdf1", "vout": [{"scriptPubKey": {"reqSigs": 1, "hex": "76a914999992427ac5c43500bfc5522a6d29d8886db2f388ac", "addresses": ["1F1AMg2fto7pZ5kxW9CwUJpZrYqV17AjhM"], "asm": "OP_DUP OP_HASH160 999992427ac5c43500bfc5522a6d29d8886db2f3 OP_EQUALVERIFY OP_CHECKSIG", "type": "pubkeyhash"}, "value": 0.00123119, "n": 0}, {"scriptPubKey": {"reqSigs": 1, "hex": "76a914c33824a5b9b455354a2e6168c85c5a05968a70f488ac", "addresses": ["1JoE2JVjAaWTX9acrex6fuXJSYjb2471Vn"], "asm": "OP_DUP OP_HASH160 c33824a5b9b455354a2e6168c85c5a05968a70f4 OP_EQUALVERIFY OP_CHECKSIG", "type": "pubkeyhash"}, "value": 0.00309088, "n": 1}], "hex": "0100000001b21bf235901f48c2a3bbeb2479addbfc6693f3aaa10bbbcc55a2d4306e5cdf96000000006a47304402206be6edc50c98cae40b32710cddc4c041129d87047d0d23a86a1d0c131508940e02201c0546c7f4d125965673a0a7fb58cd3e2bbeaf3a135ced2fde6fe5adae4b1954012102c1b33b0a7768c9c605fd14e6e1367dbfed18aeac4953379ff88e882172384f6affffffff02efe00100000000001976a914999992427ac5c43500bfc5522a6d29d8886db2f388ac60b70400000000001976a914c33824a5b9b455354a2e6168c85c5a05968a70f488ac00000000", "vin": [{"sequence": 4294967295, "scriptSig": {"hex": "47304402206be6edc50c98cae40b32710cddc4c041129d87047d0d23a86a1d0c131508940e02201c0546c7f4d125965673a0a7fb58cd3e2bbeaf3a135ced2fde6fe5adae4b1954012102c1b33b0a7768c9c605fd14e6e1367dbfed18aeac4953379ff88e882172384f6a", "asm": "304402206be6edc50c98cae40b32710cddc4c041129d87047d0d23a86a1d0c131508940e02201c0546c7f4d125965673a0a7fb58cd3e2bbeaf3a135ced2fde6fe5adae4b1954[ALL] 02c1b33b0a7768c9c605fd14e6e1367dbfed18aeac4953379ff88e882172384f6a"}, "vout": 0, "txid": "96df5c6e30d4a255ccbb0ba1aaf39366fcdbad7924ebbba3c2481f9035f21bb2"}], "txid": "36ebc8b2f3a3d40e3ccb1e7c44782c889b7009e09e22e28c0a4dc513beec5513", "blocktime": 1537871767, "version": 1, "confirmations": 11495, "time": 1537871767, "locktime": 0, "vsize": 225, "size": 225}