{"hash": "36f11bec5564640fa69fde93eb2b55292083858b0739b494942185834915f40e", "blockhash": "00000000000000000004ffacab907a6b429b9a5745fa0b75af4234bf69dd7176", "vout": [{"scriptPubKey": {"reqSigs": 1, "hex": "76a91415722868f61c8c0be7a4e28c8f58624011e133df88ac", "addresses": ["12xPwrbHsm7A5tDNdyw6rtPAnFYWWdWpa7"], "asm": "OP_DUP OP_HASH160 15722868f61c8c0be7a4e28c8f58624011e133df OP_EQUALVERIFY OP_CHECKSIG", "type": "pubkeyhash"}, "value": 0.01087251, "n": 0}], "hex": "0100000002aaaf5ab54aa647ac5a1298a4e59ea9982326b5ad9d3b893b254e914fa4f94831000000006b483045022100bf2c868c5af0a4953e7e39e483efa0252bf576f9dfe7c3df28b534f8dc2a19db02202b05158839e5ead1584be3611fdeab745e2c0d6ac7c09e5b0a6f85b31944c2c0012103e151d7b1f13311d9fe0973596aa4edb23177cd3dfe5d189d77e8df4eae6f9cdefefffffffce69d442a7cdde7e340d695624f58579c35f8be847b0886f8c46d7fc737f57e000000006a473044022038810ec7ad33cfaa2130c3ee421eb57b0b631761f71a26cb5b9e8db90fad598602207d858eeca9765c45fb3721572c5c5a5227fb83c7a30d71763ca393127e13988a012102d0fe94f3dfcb9b599c1fe4e2fb5340acd022dcd1362b4f244ba1db495289484afeffffff0113971000000000001976a91415722868f61c8c0be7a4e28c8f58624011e133df88ac16490800", "vin": [{"sequence": 4294967294, "scriptSig": {"hex": "483045022100bf2c868c5af0a4953e7e39e483efa0252bf576f9dfe7c3df28b534f8dc2a19db02202b05158839e5ead1584be3611fdeab745e2c0d6ac7c09e5b0a6f85b31944c2c0012103e151d7b1f13311d9fe0973596aa4edb23177cd3dfe5d189d77e8df4eae6f9cde", "asm": "3045022100bf2c868c5af0a4953e7e39e483efa0252bf576f9dfe7c3df28b534f8dc2a19db02202b05158839e5ead1584be3611fdeab745e2c0d6ac7c09e5b0a6f85b31944c2c0[ALL] 03e151d7b1f13311d9fe0973596aa4edb23177cd3dfe5d189d77e8df4eae6f9cde"}, "vout": 0, "txid": "3148f9a44f914e253b893b9dadb5262398a99ee5a498125aac47a64ab55aafaa"}, {"sequence": 4294967294, "scriptSig": {"hex": "473044022038810ec7ad33cfaa2130c3ee421eb57b0b631761f71a26cb5b9e8db90fad598602207d858eeca9765c45fb3721572c5c5a5227fb83c7a30d71763ca393127e13988a012102d0fe94f3dfcb9b599c1fe4e2fb5340acd022dcd1362b4f244ba1db495289484a", "asm": "3044022038810ec7ad33cfaa2130c3ee421eb57b0b631761f71a26cb5b9e8db90fad598602207d858eeca9765c45fb3721572c5c5a5227fb83c7a30d71763ca393127e13988a[ALL] 02d0fe94f3dfcb9b599c1fe4e2fb5340acd022dcd1362b4f244ba1db495289484a"}, "vout": 0, "txid": "7ef537c77f6dc4f886087b84bef8359c57584f6295d640e3e7dd7c2a449de6fc"}], "txid": "36f11bec5564640fa69fde93eb2b55292083858b0739b494942185834915f40e", "blocktime": 1537875543, "version": 1, "confirmations": 11464, "time": 1537875543, "locktime": 542998, "vsize": 339, "size": 339}