{"hash": "36f85197987ecb9dc6ed53fd4abe351a55f3055d204905b7b87c8f8858628490", "blockhash": "0000000000000000001f76057863aec43deb6fa401d9628bb513d65a8098bfab", "vout": [{"scriptPubKey": {"reqSigs": 1, "hex": "a9147bf00a9c6674ecad6bc3b3802949d938b13e9f9987", "addresses": ["3CzLbWboUweMcX38wWadVCHwQuTftheJ9M"], "asm": "OP_HASH160 7bf00a9c6674ecad6bc3b3802949d938b13e9f99 OP_EQUAL", "type": "scripthash"}, "value": 0.04138685, "n": 0}, {"scriptPubKey": {"reqSigs": 1, "hex": "76a91484d9d333b2b538dbada29a797592bd5d243cd9a688ac", "addresses": ["1D7T94yLyjMcmGXKc6UwjLEfx2j77MS2Ho"], "asm": "OP_DUP OP_HASH160 84d9d333b2b538dbada29a797592bd5d243cd9a6 OP_EQUALVERIFY OP_CHECKSIG", "type": "pubkeyhash"}, "value": 0.0002218, "n": 1}], "hex": "01000000019625a0365d4f7c3c381625b6d0c86f79d2b8a93281df7ba04a20d6a38cd66db5000000006b483045022100bb4c3415c2c553d2d005d9e72a9f26586daf2c6fbd344db35d8d854f574ade46022005077eb38d1cfcf1e63f09d267afff5ffd88f359bdda2bbbce2bb5ededc648ff012103eb3174c2ff5439fd29f762e6345219919be35b08e5cac1f2303f1fac3f2dc13fffffffff02bd263f000000000017a9147bf00a9c6674ecad6bc3b3802949d938b13e9f9987a4560000000000001976a91484d9d333b2b538dbada29a797592bd5d243cd9a688ac00000000", "vin": [{"sequence": 4294967295, "scriptSig": {"hex": "483045022100bb4c3415c2c553d2d005d9e72a9f26586daf2c6fbd344db35d8d854f574ade46022005077eb38d1cfcf1e63f09d267afff5ffd88f359bdda2bbbce2bb5ededc648ff012103eb3174c2ff5439fd29f762e6345219919be35b08e5cac1f2303f1fac3f2dc13f", "asm": "3045022100bb4c3415c2c553d2d005d9e72a9f26586daf2c6fbd344db35d8d854f574ade46022005077eb38d1cfcf1e63f09d267afff5ffd88f359bdda2bbbce2bb5ededc648ff[ALL] 03eb3174c2ff5439fd29f762e6345219919be35b08e5cac1f2303f1fac3f2dc13f"}, "vout": 0, "txid": "b56dd68ca3d6204aa07bdf8132a9b8d2796fc8d0b62516383c7c4f5d36a02596"}], "txid": "36f85197987ecb9dc6ed53fd4abe351a55f3055d204905b7b87c8f8858628490", "blocktime": 1537873891, "version": 1, "confirmations": 11475, "time": 1537873891, "locktime": 0, "vsize": 224, "size": 224}