{"hash": "37081f3c3d48d12d7f9d77360e1c0a2e7d4920574c713630f927e33dfa5bc96a", "blockhash": "0000000000000000000dcc0f55137456b1a82d3642486a52398922ac4d620174", "vout": [{"scriptPubKey": {"reqSigs": 1, "hex": "76a914d243e6abb9a60fbff430b421d2df4b7d59ec186088ac", "addresses": ["1LAnF8h3qMGx3TSwNUHVneBZUEpwE4gu3D"], "asm": "OP_DUP OP_HASH160 d243e6abb9a60fbff430b421d2df4b7d59ec1860 OP_EQUALVERIFY OP_CHECKSIG", "type": "pubkeyhash"}, "value": 0.00076972, "n": 0}, {"scriptPubKey": {"reqSigs": 1, "hex": "76a9143851f34d13937b673a7d24a1950bb5b21ce94af388ac", "addresses": ["168o1kqNquEJeR9vosUB5fw4eAwcVAgh8P"], "asm": "OP_DUP OP_HASH160 3851f34d13937b673a7d24a1950bb5b21ce94af3 OP_EQUALVERIFY OP_CHECKSIG", "type": "pubkeyhash"}, "value": 5.46e-06, "n": 1}, {"scriptPubKey": {"type": "nulldata", "hex": "6a146f6d6e69000000000000001f000002ba7def3000", "asm": "OP_RETURN 6f6d6e69000000000000001f000002ba7def3000"}, "value": 0.0, "n": 2}], "hex": "0100000002cdb6333326b44d452a2605b57a00186698607eb63994b3c4b78eb0e26de7a9e0010000006a473044022066cd9a9db83fe1be76f13fb41dccd42f01e1652695267e54482a35cc2a43f54a02200dbd864f760154162ba8d83d83812cf3af3f93fba4af393ee2d1ac22d46c76f20121026b0a8d2e4636c8f6d65a88cd3463f0450cc5b395bb5f37fa430b27e7e04bb015ffffffffef1a039ad2f87f186205699691a1ceaf06a855e5010cdb64a531d735e8bf6cb7000000006a4730440220708b93f11308b2dff04824aba9ad2695459c5f278b9d70f672b912e9c6972fc0022028b7ac31b773785ceeb3364f6b9ca1e5216398ef33f09e2d45900621bf042b6701210271977291b74f1f5f5c42157e8aae804664eaaeccfd097918450d37f28fb94d77ffffffff03ac2c0100000000001976a914d243e6abb9a60fbff430b421d2df4b7d59ec186088ac22020000000000001976a9143851f34d13937b673a7d24a1950bb5b21ce94af388ac0000000000000000166a146f6d6e69000000000000001f000002ba7def300000000000", "vin": [{"sequence": 4294967295, "scriptSig": {"hex": "473044022066cd9a9db83fe1be76f13fb41dccd42f01e1652695267e54482a35cc2a43f54a02200dbd864f760154162ba8d83d83812cf3af3f93fba4af393ee2d1ac22d46c76f20121026b0a8d2e4636c8f6d65a88cd3463f0450cc5b395bb5f37fa430b27e7e04bb015", "asm": "3044022066cd9a9db83fe1be76f13fb41dccd42f01e1652695267e54482a35cc2a43f54a02200dbd864f760154162ba8d83d83812cf3af3f93fba4af393ee2d1ac22d46c76f2[ALL] 026b0a8d2e4636c8f6d65a88cd3463f0450cc5b395bb5f37fa430b27e7e04bb015"}, "vout": 1, "txid": "e0a9e76de2b08eb7c4b39439b67e60986618007ab505262a454db4263333b6cd"}, {"sequence": 4294967295, "scriptSig": {"hex": "4730440220708b93f11308b2dff04824aba9ad2695459c5f278b9d70f672b912e9c6972fc0022028b7ac31b773785ceeb3364f6b9ca1e5216398ef33f09e2d45900621bf042b6701210271977291b74f1f5f5c42157e8aae804664eaaeccfd097918450d37f28fb94d77", "asm": "30440220708b93f11308b2dff04824aba9ad2695459c5f278b9d70f672b912e9c6972fc0022028b7ac31b773785ceeb3364f6b9ca1e5216398ef33f09e2d45900621bf042b67[ALL] 0271977291b74f1f5f5c42157e8aae804664eaaeccfd097918450d37f28fb94d77"}, "vout": 0, "txid": "b76cbfe835d731a564db0c01e555a806afcea19196690562187ff8d29a031aef"}], "txid": "37081f3c3d48d12d7f9d77360e1c0a2e7d4920574c713630f927e33dfa5bc96a", "blocktime": 1537870268, "version": 1, "confirmations": 11516, "time": 1537870268, "locktime": 0, "vsize": 403, "size": 403}