{"hash": "370ab6cdb3b3f9dabc7071e4896bed88866e695444ef074f6f608ac7f4c13088", "blockhash": "0000000000000000001cda96e906b7601b7a6fb1a3b62bca570a9e5d8f4b3de1", "vout": [{"scriptPubKey": {"reqSigs": 1, "hex": "76a91463460ba5ad8351bdbe6e0a6cdc3eff9a86c5cd1188ac", "addresses": ["1A3uoqarcT4EpWs8zxFae9jK1kfzkjKLDN"], "asm": "OP_DUP OP_HASH160 63460ba5ad8351bdbe6e0a6cdc3eff9a86c5cd11 OP_EQUALVERIFY OP_CHECKSIG", "type": "pubkeyhash"}, "value": 0.00638784, "n": 0}, {"scriptPubKey": {"type": "nulldata", "hex": "6a4c50000077ce000147dac6a2c35aff3bb21f6bb15b23cc0f42c2fc38c5e5bf9ae76da98a211a244d9450dbc6e1130efc8a8660b4cb825baa1419061363ed63ed43c01d100759d4ba30d2c37bb011d97e02cf", "asm": "OP_RETURN 000077ce000147dac6a2c35aff3bb21f6bb15b23cc0f42c2fc38c5e5bf9ae76da98a211a244d9450dbc6e1130efc8a8660b4cb825baa1419061363ed63ed43c01d100759d4ba30d2c37bb011d97e02cf"}, "value": 0.0, "n": 1}], "hex": "01000000017e706b0095485ef5dcbc71dbf21a4548f4d11d658382b41dc3726dc8ba2e3058000000006a473044022033a04f28b8744416828b0e8d130a0a41f898dc3363de7c859fd24ef4fa078d9402206fe3d70f0e04c03e8dcb3d6237a5a12c96ff0281bf8a264f3a9433332be419e70121030a3ffd06cc6421c53128101806dc7da62398ef27a87fe27a2c186df5545ce854ffffffff0240bf0900000000001976a91463460ba5ad8351bdbe6e0a6cdc3eff9a86c5cd1188ac0000000000000000536a4c50000077ce000147dac6a2c35aff3bb21f6bb15b23cc0f42c2fc38c5e5bf9ae76da98a211a244d9450dbc6e1130efc8a8660b4cb825baa1419061363ed63ed43c01d100759d4ba30d2c37bb011d97e02cf00000000", "vin": [{"sequence": 4294967295, "scriptSig": {"hex": "473044022033a04f28b8744416828b0e8d130a0a41f898dc3363de7c859fd24ef4fa078d9402206fe3d70f0e04c03e8dcb3d6237a5a12c96ff0281bf8a264f3a9433332be419e70121030a3ffd06cc6421c53128101806dc7da62398ef27a87fe27a2c186df5545ce854", "asm": "3044022033a04f28b8744416828b0e8d130a0a41f898dc3363de7c859fd24ef4fa078d9402206fe3d70f0e04c03e8dcb3d6237a5a12c96ff0281bf8a264f3a9433332be419e7[ALL] 030a3ffd06cc6421c53128101806dc7da62398ef27a87fe27a2c186df5545ce854"}, "vout": 0, "txid": "58302ebac86d72c31db48283651dd1f448451af2db71bcdcf55e4895006b707e"}], "txid": "370ab6cdb3b3f9dabc7071e4896bed88866e695444ef074f6f608ac7f4c13088", "blocktime": 1537873282, "version": 1, "confirmations": 11484, "time": 1537873282, "locktime": 0, "vsize": 283, "size": 283}