{"hash": "70548efca4f8aa252ab4a39fd5de908a704ca6fca1ef5aa0fd8e7709ab951dca", "blockhash": "0000000000000000001f76057863aec43deb6fa401d9628bb513d65a8098bfab", "vout": [{"scriptPubKey": {"reqSigs": 1, "hex": "a914bcc9d7f734f446d4878921d805ec66dd61a1b51a87", "addresses": ["3JuEkwwskR8GyZsWXMYJaqmeoRAQbu5ybc"], "asm": "OP_HASH160 bcc9d7f734f446d4878921d805ec66dd61a1b51a OP_EQUAL", "type": "scripthash"}, "value": 0.024, "n": 0}, {"scriptPubKey": {"reqSigs": 1, "hex": "a914dee0a1cc9f055700143e0f4ecee53180ab3530dc87", "addresses": ["3N1V2qWA5hpScEmS72pMooYRmXUiLmwPQQ"], "asm": "OP_HASH160 dee0a1cc9f055700143e0f4ecee53180ab3530dc OP_EQUAL", "type": "scripthash"}, "value": 0.16683399, "n": 1}], "hex": "0200000000010130e7ff9bab0bf5a99879dd9c4076d45fb49a511cc8952a1475bb298c6a6e1f7b0100000017160014cb5dbe423de4d42b6425c6921084c6197a5d2937ffffffff02009f24000000000017a914bcc9d7f734f446d4878921d805ec66dd61a1b51a878791fe000000000017a914dee0a1cc9f055700143e0f4ecee53180ab3530dc8702483045022100b78c0e5dfbcd55ee8b63c9753859c88509f8a7fa6fda068d3e472239b64c406a022019d7ca9a991f78b838947d15abb5baf768feaf95a925cb25cbc798f2eac3b8e8012102acecad485eda786cbe0422823b7594aea6854abb5ec85e267f1c4b87f3f758f700000000", "vin": [{"txinwitness": ["3045022100b78c0e5dfbcd55ee8b63c9753859c88509f8a7fa6fda068d3e472239b64c406a022019d7ca9a991f78b838947d15abb5baf768feaf95a925cb25cbc798f2eac3b8e801", "02acecad485eda786cbe0422823b7594aea6854abb5ec85e267f1c4b87f3f758f7"], "sequence": 4294967295, "scriptSig": {"hex": "160014cb5dbe423de4d42b6425c6921084c6197a5d2937", "asm": "0014cb5dbe423de4d42b6425c6921084c6197a5d2937"}, "vout": 1, "txid": "7b1f6e6a8c29bb75142a95c81c519ab45fd476409cdd7998a9f50bab9bffe730"}], "txid": "370c28433639dd4d9fe032f2a18554d63e6bbde107fee797d746b153a7916b33", "blocktime": 1537873891, "version": 2, "confirmations": 11475, "time": 1537873891, "locktime": 0, "vsize": 166, "size": 248}