{"hash": "371114b7fe70fe5150855f9a810234749efddaccdbbabcba36979797f1e33b18", "blockhash": "0000000000000000000baef3f32e3676a92c3b2e5da21b426e4f302fc371ce76", "vout": [{"scriptPubKey": {"reqSigs": 1, "hex": "a914ce873f7386fb8a8c11b7ec487c6854093441038087", "addresses": ["3LX39FFwbdFvs9U6sK2cUSvEdvm8TUCnt2"], "asm": "OP_HASH160 ce873f7386fb8a8c11b7ec487c68540934410380 OP_EQUAL", "type": "scripthash"}, "value": 0.9445276, "n": 0}, {"scriptPubKey": {"reqSigs": 1, "hex": "76a91488869fb19dc1d5ca8dc374fd8f821385b2ece63c88ac", "addresses": ["1DStAv4TJYMqCKKJ3kyR73xxR5yLXD7veb"], "asm": "OP_DUP OP_HASH160 88869fb19dc1d5ca8dc374fd8f821385b2ece63c OP_EQUALVERIFY OP_CHECKSIG", "type": "pubkeyhash"}, "value": 0.91996925, "n": 1}], "hex": "0100000003fb6b749a66dcde731a6d684db6b02dc4deb2ef3529925c4cac5ea8431e386dd8010000006a473044022008f839352d368aa492ffcb5ce30407eded05ef4a97580ca89073207377cbc7cf022033f0df4e164df7dba90ce44025c6fdb61cb2faf9a28cd78e966fe629d63ab1d8012102c14ec28e93f0e28448c710833725492e59c559a041a1061d518b1e8e5573a6feffffffffb64dec1cc55505d489efca8fb3e043a617a9e121c62e3657fc614933936e7eb4000000006b483045022100f9f387d37dd8a39d92f94fd82536162adb77a4bdb22724abf03ee41d1c3b73f502203787cc6485f9d8cb4936c588bcb37fa1f92197295c7067a78f42abb804f5f7340121037412224e0df341e872c3a8628f65d4d3e06ed00ff0fa380d021ff502cb49c407ffffffffc12646b20bd07a6509fd1904b77b2237534ff988f0e2b282643ddeac2bebabfe000000006b483045022100d12a3dacd7bc23678e37ddf5e4ae240f51443004bf901c3ed733f65aef0bdf3202203649822df7758b24a059612c226c40410b3f6066ce42035730d6858d1f4d3060012103081b171093b1d93825c21468f8bb6a73d49dbfe5d6c3fb45c948c31ef01145ceffffffff02183ca1050000000017a914ce873f7386fb8a8c11b7ec487c6854093441038087fdc27b05000000001976a91488869fb19dc1d5ca8dc374fd8f821385b2ece63c88ac00000000", "vin": [{"sequence": 4294967295, "scriptSig": {"hex": "473044022008f839352d368aa492ffcb5ce30407eded05ef4a97580ca89073207377cbc7cf022033f0df4e164df7dba90ce44025c6fdb61cb2faf9a28cd78e966fe629d63ab1d8012102c14ec28e93f0e28448c710833725492e59c559a041a1061d518b1e8e5573a6fe", "asm": "3044022008f839352d368aa492ffcb5ce30407eded05ef4a97580ca89073207377cbc7cf022033f0df4e164df7dba90ce44025c6fdb61cb2faf9a28cd78e966fe629d63ab1d8[ALL] 02c14ec28e93f0e28448c710833725492e59c559a041a1061d518b1e8e5573a6fe"}, "vout": 1, "txid": "d86d381e43a85eac4c5c922935efb2dec42db0b64d686d1a73dedc669a746bfb"}, {"sequence": 4294967295, "scriptSig": {"hex": "483045022100f9f387d37dd8a39d92f94fd82536162adb77a4bdb22724abf03ee41d1c3b73f502203787cc6485f9d8cb4936c588bcb37fa1f92197295c7067a78f42abb804f5f7340121037412224e0df341e872c3a8628f65d4d3e06ed00ff0fa380d021ff502cb49c407", "asm": "3045022100f9f387d37dd8a39d92f94fd82536162adb77a4bdb22724abf03ee41d1c3b73f502203787cc6485f9d8cb4936c588bcb37fa1f92197295c7067a78f42abb804f5f734[ALL] 037412224e0df341e872c3a8628f65d4d3e06ed00ff0fa380d021ff502cb49c407"}, "vout": 0, "txid": "b47e6e93334961fc57362ec621e1a917a643e0b38fcaef89d40555c51cec4db6"}, {"sequence": 4294967295, "scriptSig": {"hex": "483045022100d12a3dacd7bc23678e37ddf5e4ae240f51443004bf901c3ed733f65aef0bdf3202203649822df7758b24a059612c226c40410b3f6066ce42035730d6858d1f4d3060012103081b171093b1d93825c21468f8bb6a73d49dbfe5d6c3fb45c948c31ef01145ce", "asm": "3045022100d12a3dacd7bc23678e37ddf5e4ae240f51443004bf901c3ed733f65aef0bdf3202203649822df7758b24a059612c226c40410b3f6066ce42035730d6858d1f4d3060[ALL] 03081b171093b1d93825c21468f8bb6a73d49dbfe5d6c3fb45c948c31ef01145ce"}, "vout": 0, "txid": "feabeb2bacde3d6482b2e2f088f94f5337227bb70419fd09657ad00bb24626c1"}], "txid": "371114b7fe70fe5150855f9a810234749efddaccdbbabcba36979797f1e33b18", "blocktime": 1537876114, "version": 1, "confirmations": 11459, "time": 1537876114, "locktime": 0, "vsize": 519, "size": 519}