{"hash": "3712ceb1d80c710d837b74bbbf52f55f0751360d622e7cc691b37a1c4d8705af", "blockhash": "0000000000000000001f76057863aec43deb6fa401d9628bb513d65a8098bfab", "vout": [{"scriptPubKey": {"reqSigs": 1, "hex": "76a9140e3b90f4789600bf37bd3c05be2fd959d909299588ac", "addresses": ["12JFpRMRwVey3NQPh4rxFiDXZscguy9gcr"], "asm": "OP_DUP OP_HASH160 0e3b90f4789600bf37bd3c05be2fd959d9092995 OP_EQUALVERIFY OP_CHECKSIG", "type": "pubkeyhash"}, "value": 3.0, "n": 0}, {"scriptPubKey": {"reqSigs": 1, "hex": "76a91461edf081afb2406f990e9ad651bae201a557133788ac", "addresses": ["19voaw5W7Vm3eVryAxodDkupY9PJMWGXE7"], "asm": "OP_DUP OP_HASH160 61edf081afb2406f990e9ad651bae201a5571337 OP_EQUALVERIFY OP_CHECKSIG", "type": "pubkeyhash"}, "value": 0.99987549, "n": 1}], "hex": "01000000019a1297e7de1da4f38f2afbee677cc2c24cc4e6d9418da9c71d9a563625ab971c010000006a47304402206b2043dd1486b168fba993894c3297481b7a671871fd282f57d479e2b73f020602204cb210fc929d25cd7e725d29de83cbbcd315bf91ee4457d09e74cf101961bd890121031df7a3293c418e9e0b5ad8ac4121a4e3436002552c3f8b4a07c1acb8d1297a37ffffffff0200a3e111000000001976a9140e3b90f4789600bf37bd3c05be2fd959d909299588ac5db0f505000000001976a91461edf081afb2406f990e9ad651bae201a557133788ac00000000", "vin": [{"sequence": 4294967295, "scriptSig": {"hex": "47304402206b2043dd1486b168fba993894c3297481b7a671871fd282f57d479e2b73f020602204cb210fc929d25cd7e725d29de83cbbcd315bf91ee4457d09e74cf101961bd890121031df7a3293c418e9e0b5ad8ac4121a4e3436002552c3f8b4a07c1acb8d1297a37", "asm": "304402206b2043dd1486b168fba993894c3297481b7a671871fd282f57d479e2b73f020602204cb210fc929d25cd7e725d29de83cbbcd315bf91ee4457d09e74cf101961bd89[ALL] 031df7a3293c418e9e0b5ad8ac4121a4e3436002552c3f8b4a07c1acb8d1297a37"}, "vout": 1, "txid": "1c97ab2536569a1dc7a98d41d9e6c44cc2c27c67eefb2a8ff3a41ddee797129a"}], "txid": "3712ceb1d80c710d837b74bbbf52f55f0751360d622e7cc691b37a1c4d8705af", "blocktime": 1537873891, "version": 1, "confirmations": 11474, "time": 1537873891, "locktime": 0, "vsize": 225, "size": 225}