{"hash": "37149fee18d18ec9e0e098cdb45e4186b1b4bab8d8fa964110817041af4964fa", "blockhash": "000000000000000000022b45ed06c6f4ccd3cf7fb5ba4856ebd2e58215665228", "vout": [{"scriptPubKey": {"reqSigs": 1, "hex": "76a9145abb4fd04821aa1e2253ee6eab29fe2af6b7a43088ac", "addresses": ["19GkCv4RQEPn9GBu134pzHsdrforCgcVSz"], "asm": "OP_DUP OP_HASH160 5abb4fd04821aa1e2253ee6eab29fe2af6b7a430 OP_EQUALVERIFY OP_CHECKSIG", "type": "pubkeyhash"}, "value": 0.00068719, "n": 0}, {"scriptPubKey": {"reqSigs": 1, "hex": "a9148eac1aaa9083dcea81f6afb01d219847e05e25ca87", "addresses": ["3EhQ3npBJtfzSEArTruw4JL6V13kB64iGq"], "asm": "OP_HASH160 8eac1aaa9083dcea81f6afb01d219847e05e25ca OP_EQUAL", "type": "scripthash"}, "value": 0.0004, "n": 1}], "hex": "0100000001410e27ec04b07a6e697e888ed6345a5eed6bfb6155d2e15e18c2b2946ba27317010000006a473044022047e49cc359cc78c2a7bd10d78942224e4f4c12c4ad1bb580f284d3e2b12a7d460220257372403d15a9f7db1c221590b154f0afb9595550c444f74bcbf4454595a438012102186afb1e1d15f4b98c0fbac527e496b243195280d8c60efa2d14b0c25ebba093ffffffff026f0c0100000000001976a9145abb4fd04821aa1e2253ee6eab29fe2af6b7a43088ac409c00000000000017a9148eac1aaa9083dcea81f6afb01d219847e05e25ca8700000000", "vin": [{"sequence": 4294967295, "scriptSig": {"hex": "473044022047e49cc359cc78c2a7bd10d78942224e4f4c12c4ad1bb580f284d3e2b12a7d460220257372403d15a9f7db1c221590b154f0afb9595550c444f74bcbf4454595a438012102186afb1e1d15f4b98c0fbac527e496b243195280d8c60efa2d14b0c25ebba093", "asm": "3044022047e49cc359cc78c2a7bd10d78942224e4f4c12c4ad1bb580f284d3e2b12a7d460220257372403d15a9f7db1c221590b154f0afb9595550c444f74bcbf4454595a438[ALL] 02186afb1e1d15f4b98c0fbac527e496b243195280d8c60efa2d14b0c25ebba093"}, "vout": 1, "txid": "1773a26b94b2c2185ee1d25561fb6bed5e5a34d68e887e696e7ab004ec270e41"}], "txid": "37149fee18d18ec9e0e098cdb45e4186b1b4bab8d8fa964110817041af4964fa", "blocktime": 1537869901, "version": 1, "confirmations": 11524, "time": 1537869901, "locktime": 0, "vsize": 223, "size": 223}