{"hash": "cb8c06889df89a5f6b94b48daefa7b3975080e0b129dcd41f9ec654afc85af51", "blockhash": "000000000000000000022b45ed06c6f4ccd3cf7fb5ba4856ebd2e58215665228", "vout": [{"scriptPubKey": {"reqSigs": 1, "hex": "a914a6e9a29fbb88ad95b30fa8c3ac1a7f2edaf634f187", "addresses": ["3GuZyecfYT1ZFWXvBk4WWNiWEPZHjS7sRB"], "asm": "OP_HASH160 a6e9a29fbb88ad95b30fa8c3ac1a7f2edaf634f1 OP_EQUAL", "type": "scripthash"}, "value": 0.00950774, "n": 0}, {"scriptPubKey": {"reqSigs": 1, "hex": "a914b6ec1ea7c69dbc66078a51c23a717937badc99fa87", "addresses": ["3JNDmLwNQdr3fS9E5ybTjmJiFYqpYTim2u"], "asm": "OP_HASH160 b6ec1ea7c69dbc66078a51c23a717937badc99fa OP_EQUAL", "type": "scripthash"}, "value": 2.13065179, "n": 1}], "hex": "02000000000101234bf2bbf8e1b15a1988ce57c1f4433b9370b4b0b7fbb99028661d96abcc2bcc000000001716001425f002a3f334113dd21c393d1138447354bcc5e3feffffff02f6810e000000000017a914a6e9a29fbb88ad95b30fa8c3ac1a7f2edaf634f187db1db30c0000000017a914b6ec1ea7c69dbc66078a51c23a717937badc99fa8702483045022100a0a55a2bc16f9eab8759dbe0bfa42c0e92033763c518b16f3ef5efc5a6f8120f0220625d49b3a3285c81fb4e6c5e028fffa18aaa0c411b17af57218c44b24249a38201210358b9ae818c737b3aacdfeb6d9013326805efcf631ecb25e02bd7882dccc9f000e6480800", "vin": [{"txinwitness": ["3045022100a0a55a2bc16f9eab8759dbe0bfa42c0e92033763c518b16f3ef5efc5a6f8120f0220625d49b3a3285c81fb4e6c5e028fffa18aaa0c411b17af57218c44b24249a38201", "0358b9ae818c737b3aacdfeb6d9013326805efcf631ecb25e02bd7882dccc9f000"], "sequence": 4294967294, "scriptSig": {"hex": "16001425f002a3f334113dd21c393d1138447354bcc5e3", "asm": "001425f002a3f334113dd21c393d1138447354bcc5e3"}, "vout": 0, "txid": "cc2bccab961d662890b9fbb7b0b470933b43f4c157ce88195ab1e1f8bbf24b23"}], "txid": "37177396752d15b4d7933d06d9554b0fe8776a763fc349475d2f33925737bb73", "blocktime": 1537869901, "version": 2, "confirmations": 11523, "time": 1537869901, "locktime": 542950, "vsize": 166, "size": 248}