{"hash": "371d734d33997d85019ca1779501e1645b749ab3157e73671f4e8f7ced2d6429", "blockhash": "0000000000000000000dcc0f55137456b1a82d3642486a52398922ac4d620174", "vout": [{"scriptPubKey": {"reqSigs": 1, "hex": "76a914d78aa7ac23429804da30cb4d4bd99b502e5e7a8c88ac", "addresses": ["1LegPAGV1mhH6o4RANEAbtt5JchiEaRNCg"], "asm": "OP_DUP OP_HASH160 d78aa7ac23429804da30cb4d4bd99b502e5e7a8c OP_EQUALVERIFY OP_CHECKSIG", "type": "pubkeyhash"}, "value": 0.0979, "n": 0}], "hex": "01000000011940232e28be792a499ad4f4d359f3bfcfc9d27fbd2966791a6f4191cb0479fb000000006a4730440220510ee84a492ed167969657741a0c72935ec47af2854dc1c96c450cdcc23fccdd022056c43f62ff8fbb5cf359b8c8e645671524552a96dde1b55a3326413db5eceead0121038e934675fac1001ebb1ca23da03d19a9ea6cc0806e99e44d2d7f305a0ed3b04dfdffffff0130629500000000001976a914d78aa7ac23429804da30cb4d4bd99b502e5e7a8c88ac00000000", "vin": [{"sequence": 4294967293, "scriptSig": {"hex": "4730440220510ee84a492ed167969657741a0c72935ec47af2854dc1c96c450cdcc23fccdd022056c43f62ff8fbb5cf359b8c8e645671524552a96dde1b55a3326413db5eceead0121038e934675fac1001ebb1ca23da03d19a9ea6cc0806e99e44d2d7f305a0ed3b04d", "asm": "30440220510ee84a492ed167969657741a0c72935ec47af2854dc1c96c450cdcc23fccdd022056c43f62ff8fbb5cf359b8c8e645671524552a96dde1b55a3326413db5eceead[ALL] 038e934675fac1001ebb1ca23da03d19a9ea6cc0806e99e44d2d7f305a0ed3b04d"}, "vout": 0, "txid": "fb7904cb91416f1a796629bd7fd2c9cfbff359d3f4d49a492a79be282e234019"}], "txid": "371d734d33997d85019ca1779501e1645b749ab3157e73671f4e8f7ced2d6429", "blocktime": 1537870268, "version": 1, "confirmations": 11516, "time": 1537870268, "locktime": 0, "vsize": 191, "size": 191}