{"hash": "371fbd84468e336e4c8cb289f5b6e5c49a8b2d1ce1cb0693da2a1a7b2bf761dc", "blockhash": "0000000000000000000baef3f32e3676a92c3b2e5da21b426e4f302fc371ce76", "vout": [{"scriptPubKey": {"reqSigs": 1, "hex": "76a914c1277f0f42097e6eec7d110a1d080dba0b98fc0b88ac", "addresses": ["1JcJjH1yMjZhhLmr8SXCXoGBdPtX9mbaqs"], "asm": "OP_DUP OP_HASH160 c1277f0f42097e6eec7d110a1d080dba0b98fc0b OP_EQUALVERIFY OP_CHECKSIG", "type": "pubkeyhash"}, "value": 0.00344799, "n": 0}], "hex": "010000000310918466d02f1a84080ffa526784039f8d9d3dc2f91f74aa3e613f8265d42a30000000006a47304402203c830bc36aa830bda64d3d460ec0d472b7c925e307d5e2cb3c30ffd2208b470a022032bbdd5f127670fe5e23d72b53aaadbfd32e280d8e5c444b832f09283771ec310121034a4439e43fb020443f4231b6842bd14b9f835abcd11a2302ce965119d7131fb1fffffffff6bc056949a65fa7741739b9f57bf0d5f603101dcedda7a1e27d8160bc6b78a7000000006b483045022100ebfd97a55e9fe26422e41f5c7f988a55f0ffc763816059b0b2ec8e7f86cb664402206465d725ec8d50fc648fc2f6d6449861da56a988639cbf53f8d287c72161f2db012103bafda0e968307fac8a93876ed31d5dc7410e3075e6f57b6898bac9eab89a1940ffffffff284798b6fda01cfa4698d14820914240c98b95b56fd5dd61db9f22c4e5b92ec5000000006b48304502210082137775eb491c69c3d88cf506090723eb2bbf6f47d7e8ecf4978f0e6cd4646f022031208fb68947b8778d6dcdec080526761aba803e5f8c686caf31c372fb0462740121029769941932a642d36fe3a945079d8329a3f3ae40426c9a6ca2300f25ed73f6cdffffffff01df420500000000001976a914c1277f0f42097e6eec7d110a1d080dba0b98fc0b88ac00000000", "vin": [{"sequence": 4294967295, "scriptSig": {"hex": "47304402203c830bc36aa830bda64d3d460ec0d472b7c925e307d5e2cb3c30ffd2208b470a022032bbdd5f127670fe5e23d72b53aaadbfd32e280d8e5c444b832f09283771ec310121034a4439e43fb020443f4231b6842bd14b9f835abcd11a2302ce965119d7131fb1", "asm": "304402203c830bc36aa830bda64d3d460ec0d472b7c925e307d5e2cb3c30ffd2208b470a022032bbdd5f127670fe5e23d72b53aaadbfd32e280d8e5c444b832f09283771ec31[ALL] 034a4439e43fb020443f4231b6842bd14b9f835abcd11a2302ce965119d7131fb1"}, "vout": 0, "txid": "302ad465823f613eaa741ff9c23d9d8d9f03846752fa0f08841a2fd066849110"}, {"sequence": 4294967295, "scriptSig": {"hex": "483045022100ebfd97a55e9fe26422e41f5c7f988a55f0ffc763816059b0b2ec8e7f86cb664402206465d725ec8d50fc648fc2f6d6449861da56a988639cbf53f8d287c72161f2db012103bafda0e968307fac8a93876ed31d5dc7410e3075e6f57b6898bac9eab89a1940", "asm": "3045022100ebfd97a55e9fe26422e41f5c7f988a55f0ffc763816059b0b2ec8e7f86cb664402206465d725ec8d50fc648fc2f6d6449861da56a988639cbf53f8d287c72161f2db[ALL] 03bafda0e968307fac8a93876ed31d5dc7410e3075e6f57b6898bac9eab89a1940"}, "vout": 0, "txid": "a7786bbc60817de2a1a7ddce1d1003f6d5f07bf5b9391774a75fa6496905bcf6"}, {"sequence": 4294967295, "scriptSig": {"hex": "48304502210082137775eb491c69c3d88cf506090723eb2bbf6f47d7e8ecf4978f0e6cd4646f022031208fb68947b8778d6dcdec080526761aba803e5f8c686caf31c372fb0462740121029769941932a642d36fe3a945079d8329a3f3ae40426c9a6ca2300f25ed73f6cd", "asm": "304502210082137775eb491c69c3d88cf506090723eb2bbf6f47d7e8ecf4978f0e6cd4646f022031208fb68947b8778d6dcdec080526761aba803e5f8c686caf31c372fb046274[ALL] 029769941932a642d36fe3a945079d8329a3f3ae40426c9a6ca2300f25ed73f6cd"}, "vout": 0, "txid": "c52eb9e5c4229fdb61ddd56fb5958bc94042912048d19846fa1ca0fdb6984728"}], "txid": "371fbd84468e336e4c8cb289f5b6e5c49a8b2d1ce1cb0693da2a1a7b2bf761dc", "blocktime": 1537876114, "version": 1, "confirmations": 11460, "time": 1537876114, "locktime": 0, "vsize": 487, "size": 487}