{"hash": "93d42841963dd642478f648c7e4e2f8d62836748500b837b12e0b3660ac4082d", "blockhash": "0000000000000000001cda96e906b7601b7a6fb1a3b62bca570a9e5d8f4b3de1", "vout": [{"scriptPubKey": {"reqSigs": 1, "hex": "a91478f22ae9109da07d06c48e5eac3716aefc6d645087", "addresses": ["3CiX7fVmBLynVMcuAEMHXnqxNHzZR7LGMM"], "asm": "OP_HASH160 78f22ae9109da07d06c48e5eac3716aefc6d6450 OP_EQUAL", "type": "scripthash"}, "value": 0.0543, "n": 0}, {"scriptPubKey": {"reqSigs": 1, "hex": "001466c9db5bbc71a3d8dd4a265a97e2da9ff7ccbca5", "addresses": ["bc1qvmyakkauwx3a3h22yedf0ck6nlmue0996m20ls"], "asm": "0 66c9db5bbc71a3d8dd4a265a97e2da9ff7ccbca5", "type": "witness_v0_keyhash"}, "value": 0.01519764, "n": 1}], "hex": "010000000001011d22786eee210759cabb4827f3ce35449ac651323ede5941a9c788b49b8dfad83200000017160014376822da20cd88cf2f3168dd800a76c6f9271a0affffffff02f0da52000000000017a91478f22ae9109da07d06c48e5eac3716aefc6d645087943017000000000016001466c9db5bbc71a3d8dd4a265a97e2da9ff7ccbca502483045022100fa522d34f4ca64b1d44bf6574d494cff2b612c90be8eab41d5937a537fc09a54022064ce6cd2e239e87357973160a65dc3a38828c47c2140796a5a0a5a680d7242dd012102754fcc6d3e9e4249ebc27468064b8de97acfd2fac53d94a26b2a0d47bed44d8000000000", "vin": [{"txinwitness": ["3045022100fa522d34f4ca64b1d44bf6574d494cff2b612c90be8eab41d5937a537fc09a54022064ce6cd2e239e87357973160a65dc3a38828c47c2140796a5a0a5a680d7242dd01", "02754fcc6d3e9e4249ebc27468064b8de97acfd2fac53d94a26b2a0d47bed44d80"], "sequence": 4294967295, "scriptSig": {"hex": "160014376822da20cd88cf2f3168dd800a76c6f9271a0a", "asm": "0014376822da20cd88cf2f3168dd800a76c6f9271a0a"}, "vout": 50, "txid": "d8fa8d9bb488c7a94159de3e3251c69a4435cef32748bbca590721ee6e78221d"}], "txid": "37271be893951f31d1e5a5100eee190f55fe19305071f8af184893f4b4c8a8ce", "blocktime": 1537873282, "version": 1, "confirmations": 11484, "time": 1537873282, "locktime": 0, "vsize": 165, "size": 247}