{"hash": "372a7f5934180940293d4cc61635c0b36febc083c2b187ca1dc69eef667a7497", "blockhash": "0000000000000000000dcc0f55137456b1a82d3642486a52398922ac4d620174", "vout": [{"scriptPubKey": {"reqSigs": 1, "hex": "76a9147e1b64f4ebf17014ee2d8b26e28c798a8dde767e88ac", "addresses": ["1CVnxZjGKi9eJtMyLJGU9T4QKhHyvAMmWn"], "asm": "OP_DUP OP_HASH160 7e1b64f4ebf17014ee2d8b26e28c798a8dde767e OP_EQUALVERIFY OP_CHECKSIG", "type": "pubkeyhash"}, "value": 0.003119, "n": 0}, {"scriptPubKey": {"reqSigs": 1, "hex": "76a914e15646338a1e4a83b3dceb51ed3367b00e3727dc88ac", "addresses": ["1MYUPboSgAHwXjv66CfhEnVujKpgeamqgV"], "asm": "OP_DUP OP_HASH160 e15646338a1e4a83b3dceb51ed3367b00e3727dc OP_EQUALVERIFY OP_CHECKSIG", "type": "pubkeyhash"}, "value": 0.00889378, "n": 1}], "hex": "01000000015d1179fcdb83324d404c4e8a6689715b9ee45d5c3af58972ab5c3bbc52c33345010000006b483045022100e8f980ed500f925a1dc9873e2e440d229d1faf0b3fc54b52dc82980edf5f1c93022010329426705f5e24f17fface42bc30a47ee400b291cc2e54a29cea89c19edc7c012103dd5d115fe733e918210f01a074aaeccccdef5abb7344073f19b10e685e54078fffffffff025cc20400000000001976a9147e1b64f4ebf17014ee2d8b26e28c798a8dde767e88ac22920d00000000001976a914e15646338a1e4a83b3dceb51ed3367b00e3727dc88ac00000000", "vin": [{"sequence": 4294967295, "scriptSig": {"hex": "483045022100e8f980ed500f925a1dc9873e2e440d229d1faf0b3fc54b52dc82980edf5f1c93022010329426705f5e24f17fface42bc30a47ee400b291cc2e54a29cea89c19edc7c012103dd5d115fe733e918210f01a074aaeccccdef5abb7344073f19b10e685e54078f", "asm": "3045022100e8f980ed500f925a1dc9873e2e440d229d1faf0b3fc54b52dc82980edf5f1c93022010329426705f5e24f17fface42bc30a47ee400b291cc2e54a29cea89c19edc7c[ALL] 03dd5d115fe733e918210f01a074aaeccccdef5abb7344073f19b10e685e54078f"}, "vout": 1, "txid": "4533c352bc3b5cab7289f53a5c5de49e5b7189668a4e4c404d3283dbfc79115d"}], "txid": "372a7f5934180940293d4cc61635c0b36febc083c2b187ca1dc69eef667a7497", "blocktime": 1537870268, "version": 1, "confirmations": 11518, "time": 1537870268, "locktime": 0, "vsize": 226, "size": 226}