{"hash": "3a40aa542bad3f1b20da52e97207d838b5dbbecb26b1578fd7dff875bece995c", "blockhash": "0000000000000000001f76057863aec43deb6fa401d9628bb513d65a8098bfab", "vout": [{"scriptPubKey": {"reqSigs": 1, "hex": "76a9141e5a98dd38c1cae1a72086a14b159da32f2ddda988ac", "addresses": ["13mVoZ79o2jiiQKjxcpTePYZLWFrpMi5Fm"], "asm": "OP_DUP OP_HASH160 1e5a98dd38c1cae1a72086a14b159da32f2ddda9 OP_EQUALVERIFY OP_CHECKSIG", "type": "pubkeyhash"}, "value": 0.0031066, "n": 0}, {"scriptPubKey": {"reqSigs": 1, "hex": "a91402ef79a020d1fc6171832e6581aa5c8a5255451e87", "addresses": ["31xY9wzpEg7ZeYvb8PaA1Sii6S8qPTMEwN"], "asm": "OP_HASH160 02ef79a020d1fc6171832e6581aa5c8a5255451e OP_EQUAL", "type": "scripthash"}, "value": 0.00999202, "n": 1}], "hex": "0200000000010201502c64903b96f6f824a4a8431290886ae299fe8bb773fdcac0e3167cab14990100000017160014b3c1c124ed20a42884e259642c2aac00394dcb70feffffffb403a6841c7fee65d89995b55e836048b729a00b4caa033ed7c98fb269fc1afd030000001716001466da9f8bf7d0889c560750c6e0d0357db73bf25efeffffff0284bd0400000000001976a9141e5a98dd38c1cae1a72086a14b159da32f2ddda988ac223f0f000000000017a91402ef79a020d1fc6171832e6581aa5c8a5255451e870247304402206913284f6e4898648d113deb58c185f83a5e48d677dca4989bc93d8c412118b002200bb98e74a143486c23a09c5907080be065c554016f83c8b1040874d4e3cdb4560121035ccd0105ad205b0ccee6e7eecd1cf345ac42065f40bc4f1682127031649bdc4b02483045022100d7e464c53bf616d0fb2e90ca3c46d7623c37863986950c8bcf33c3174aa9f4e102205a5dfc3204c5f19aaffef8f6e50c05e55109117802b5b268613f350d41111d2f012102a2bf4ecf0a548c3ed86ee68d9a7950e895c90e76d64a1665bfd4decc209ecaf314490800", "vin": [{"txinwitness": ["304402206913284f6e4898648d113deb58c185f83a5e48d677dca4989bc93d8c412118b002200bb98e74a143486c23a09c5907080be065c554016f83c8b1040874d4e3cdb45601", "035ccd0105ad205b0ccee6e7eecd1cf345ac42065f40bc4f1682127031649bdc4b"], "sequence": 4294967294, "scriptSig": {"hex": "160014b3c1c124ed20a42884e259642c2aac00394dcb70", "asm": "0014b3c1c124ed20a42884e259642c2aac00394dcb70"}, "vout": 1, "txid": "9914ab7c16e3c0cafd73b78bfe99e26a88901243a8a424f8f6963b90642c5001"}, {"txinwitness": ["3045022100d7e464c53bf616d0fb2e90ca3c46d7623c37863986950c8bcf33c3174aa9f4e102205a5dfc3204c5f19aaffef8f6e50c05e55109117802b5b268613f350d41111d2f01", "02a2bf4ecf0a548c3ed86ee68d9a7950e895c90e76d64a1665bfd4decc209ecaf3"], "sequence": 4294967294, "scriptSig": {"hex": "16001466da9f8bf7d0889c560750c6e0d0357db73bf25e", "asm": "001466da9f8bf7d0889c560750c6e0d0357db73bf25e"}, "vout": 3, "txid": "fd1afc69b28fc9d73e03aa4c0ba029b74860835eb59599d865ee7f1c84a603b4"}], "txid": "37314e1ca39384ba8f2ae62b401929df18fb6ddd8edb102b086edb15a868ae29", "blocktime": 1537873891, "version": 2, "confirmations": 11478, "time": 1537873891, "locktime": 542996, "vsize": 259, "size": 421}