{"hash": "3739620c77edf3efa057255f53d224e6d5c9f2c74cb81ad5ac49ab4b8a63a358", "blockhash": "00000000000000000004ffacab907a6b429b9a5745fa0b75af4234bf69dd7176", "vout": [{"scriptPubKey": {"reqSigs": 1, "hex": "76a914d243e6abb9a60fbff430b421d2df4b7d59ec186088ac", "addresses": ["1LAnF8h3qMGx3TSwNUHVneBZUEpwE4gu3D"], "asm": "OP_DUP OP_HASH160 d243e6abb9a60fbff430b421d2df4b7d59ec1860 OP_EQUALVERIFY OP_CHECKSIG", "type": "pubkeyhash"}, "value": 0.00076972, "n": 0}, {"scriptPubKey": {"reqSigs": 1, "hex": "76a9143851f34d13937b673a7d24a1950bb5b21ce94af388ac", "addresses": ["168o1kqNquEJeR9vosUB5fw4eAwcVAgh8P"], "asm": "OP_DUP OP_HASH160 3851f34d13937b673a7d24a1950bb5b21ce94af3 OP_EQUALVERIFY OP_CHECKSIG", "type": "pubkeyhash"}, "value": 5.46e-06, "n": 1}, {"scriptPubKey": {"type": "nulldata", "hex": "6a146f6d6e69000000000000001f00000069a8967a00", "asm": "OP_RETURN 6f6d6e69000000000000001f00000069a8967a00"}, "value": 0.0, "n": 2}], "hex": "0100000002730e75fcc41a7055e16cee2f46717d3db523fadc5e96628ee23d9c1c4c77727b010000006b483045022100c381d77938af858b5645d6cb2ec67ac6565544f1994a1e77122f59fd6a18eb9e02205efced19e3e504e7bde174d38cdd11103cd4b034a853a982a49ef532c6c7e2aa0121038b60bb15bbd384bc34faf3fe24ddce794eaaaad412cf8c378a9c8e06829d456dffffffff49f3cbfdfe800321172ddcb6aab4b189deeb8e4aa604311db75cd5a1fb45379c000000006a473044022073b9128bd6cb58514b704d5a4a4ac4f44c2b7e823c9b7004c08985cd4712eb87022013fe7d88ba9f34e8a0ade20613fe2319efd640772c7c606c415f47bc6a6c4f5b01210271977291b74f1f5f5c42157e8aae804664eaaeccfd097918450d37f28fb94d77ffffffff03ac2c0100000000001976a914d243e6abb9a60fbff430b421d2df4b7d59ec186088ac22020000000000001976a9143851f34d13937b673a7d24a1950bb5b21ce94af388ac0000000000000000166a146f6d6e69000000000000001f00000069a8967a0000000000", "vin": [{"sequence": 4294967295, "scriptSig": {"hex": "483045022100c381d77938af858b5645d6cb2ec67ac6565544f1994a1e77122f59fd6a18eb9e02205efced19e3e504e7bde174d38cdd11103cd4b034a853a982a49ef532c6c7e2aa0121038b60bb15bbd384bc34faf3fe24ddce794eaaaad412cf8c378a9c8e06829d456d", "asm": "3045022100c381d77938af858b5645d6cb2ec67ac6565544f1994a1e77122f59fd6a18eb9e02205efced19e3e504e7bde174d38cdd11103cd4b034a853a982a49ef532c6c7e2aa[ALL] 038b60bb15bbd384bc34faf3fe24ddce794eaaaad412cf8c378a9c8e06829d456d"}, "vout": 1, "txid": "7b72774c1c9c3de28e62965edcfa23b53d7d71462fee6ce155701ac4fc750e73"}, {"sequence": 4294967295, "scriptSig": {"hex": "473044022073b9128bd6cb58514b704d5a4a4ac4f44c2b7e823c9b7004c08985cd4712eb87022013fe7d88ba9f34e8a0ade20613fe2319efd640772c7c606c415f47bc6a6c4f5b01210271977291b74f1f5f5c42157e8aae804664eaaeccfd097918450d37f28fb94d77", "asm": "3044022073b9128bd6cb58514b704d5a4a4ac4f44c2b7e823c9b7004c08985cd4712eb87022013fe7d88ba9f34e8a0ade20613fe2319efd640772c7c606c415f47bc6a6c4f5b[ALL] 0271977291b74f1f5f5c42157e8aae804664eaaeccfd097918450d37f28fb94d77"}, "vout": 0, "txid": "9c3745fba1d55cb71d3104a64a8eebde89b1b4aab6dc2d17210380fefdcbf349"}], "txid": "3739620c77edf3efa057255f53d224e6d5c9f2c74cb81ad5ac49ab4b8a63a358", "blocktime": 1537875543, "version": 1, "confirmations": 11464, "time": 1537875543, "locktime": 0, "vsize": 404, "size": 404}