{"hash": "373b646f940fb4e94c3ce2ce3f1bcd8fadd2aff2035a10d0f7f4919dadb7d3b9", "blockhash": "0000000000000000001f76057863aec43deb6fa401d9628bb513d65a8098bfab", "vout": [{"scriptPubKey": {"reqSigs": 1, "hex": "76a914cff5fb750bc48054d02902548ea80e9c040dd15a88ac", "addresses": ["1KxbYrdBbHaSSVtJozW36sP7DdAtGLL68y"], "asm": "OP_DUP OP_HASH160 cff5fb750bc48054d02902548ea80e9c040dd15a OP_EQUALVERIFY OP_CHECKSIG", "type": "pubkeyhash"}, "value": 0.0364518, "n": 0}, {"scriptPubKey": {"type": "nulldata", "hex": "6a146f6d6e69000000000000001f00000009d141f9ea", "asm": "OP_RETURN 6f6d6e69000000000000001f00000009d141f9ea"}, "value": 0.0, "n": 1}, {"scriptPubKey": {"reqSigs": 1, "hex": "76a9140b6057be731eaab0d5da1514ff4eb8e5ca79a77988ac", "addresses": ["1239r84Yb7MsULwWvGj2GtmHcbXjT9jDDS"], "asm": "OP_DUP OP_HASH160 0b6057be731eaab0d5da1514ff4eb8e5ca79a779 OP_EQUALVERIFY OP_CHECKSIG", "type": "pubkeyhash"}, "value": 5.46e-06, "n": 2}], "hex": "010000000150e260cfed7d70b41e500ef19918277a2bc010c50bade2043d3976c152202191000000006a47304402203c4a250c0421e3063e98af3ca3e0f57e9ee5f55b9f3950c42824392fd14251b302207726dd290afec73c4edbdb191a74fd8705b84b36fe58ea80afac226d66f282470121034c9ee28259d5e83fc3b92adc9f2d784bb204330205de629c33336451f91808faffffffff03fc9e3700000000001976a914cff5fb750bc48054d02902548ea80e9c040dd15a88ac0000000000000000166a146f6d6e69000000000000001f00000009d141f9ea22020000000000001976a9140b6057be731eaab0d5da1514ff4eb8e5ca79a77988ac00000000", "vin": [{"sequence": 4294967295, "scriptSig": {"hex": "47304402203c4a250c0421e3063e98af3ca3e0f57e9ee5f55b9f3950c42824392fd14251b302207726dd290afec73c4edbdb191a74fd8705b84b36fe58ea80afac226d66f282470121034c9ee28259d5e83fc3b92adc9f2d784bb204330205de629c33336451f91808fa", "asm": "304402203c4a250c0421e3063e98af3ca3e0f57e9ee5f55b9f3950c42824392fd14251b302207726dd290afec73c4edbdb191a74fd8705b84b36fe58ea80afac226d66f28247[ALL] 034c9ee28259d5e83fc3b92adc9f2d784bb204330205de629c33336451f91808fa"}, "vout": 0, "txid": "91212052c176393d04e2ad0bc510c02b7a271899f10e501eb4707dedcf60e250"}], "txid": "373b646f940fb4e94c3ce2ce3f1bcd8fadd2aff2035a10d0f7f4919dadb7d3b9", "blocktime": 1537873891, "version": 1, "confirmations": 11474, "time": 1537873891, "locktime": 0, "vsize": 256, "size": 256}