{"hash": "373fdecc1e51197efc561c7f9d463b1318a4fc341985c9280b5200c88c4c6ed5", "blockhash": "0000000000000000000baef3f32e3676a92c3b2e5da21b426e4f302fc371ce76", "vout": [{"scriptPubKey": {"type": "nulldata", "hex": "6a4c50000078030001a99ec61c5201a28268bddf0c702940d64fa54d8eb2d19ed074892d00f8e815cbf327745e21a685d95b10283cbb475baa1a510613761282ee025f1d100759d4ba30d2c37bb011d97e02cf", "asm": "OP_RETURN 000078030001a99ec61c5201a28268bddf0c702940d64fa54d8eb2d19ed074892d00f8e815cbf327745e21a685d95b10283cbb475baa1a510613761282ee025f1d100759d4ba30d2c37bb011d97e02cf"}, "value": 0.0, "n": 0}, {"scriptPubKey": {"reqSigs": 1, "hex": "76a91498701c0c6c1ba8b5583b932fb6ce0f75aa1269fd88ac", "addresses": ["1Eu21fhtgsMm4YXkbP6rcH49bYFbVj4QPh"], "asm": "OP_DUP OP_HASH160 98701c0c6c1ba8b5583b932fb6ce0f75aa1269fd OP_EQUALVERIFY OP_CHECKSIG", "type": "pubkeyhash"}, "value": 0.00632746, "n": 1}], "hex": "0100000001354b564288d88b94e09796dfd4286c3bc4828f8291a511991c51e31139a91a46000000006a4730440220534d68a689c8ba805a2c2a57918c7b6ce02630c89c44d45ad488767d70cc82cf0220711658da18872006ed3d67849bf964b8d66d71bbd531c125b463d462679cfc20012102857b291b6f7c9c459c372bba41ca534302952845b4fe93303da507fe065e3613ffffffff020000000000000000536a4c50000078030001a99ec61c5201a28268bddf0c702940d64fa54d8eb2d19ed074892d00f8e815cbf327745e21a685d95b10283cbb475baa1a510613761282ee025f1d100759d4ba30d2c37bb011d97e02cfaaa70900000000001976a91498701c0c6c1ba8b5583b932fb6ce0f75aa1269fd88ac00000000", "vin": [{"sequence": 4294967295, "scriptSig": {"hex": "4730440220534d68a689c8ba805a2c2a57918c7b6ce02630c89c44d45ad488767d70cc82cf0220711658da18872006ed3d67849bf964b8d66d71bbd531c125b463d462679cfc20012102857b291b6f7c9c459c372bba41ca534302952845b4fe93303da507fe065e3613", "asm": "30440220534d68a689c8ba805a2c2a57918c7b6ce02630c89c44d45ad488767d70cc82cf0220711658da18872006ed3d67849bf964b8d66d71bbd531c125b463d462679cfc20[ALL] 02857b291b6f7c9c459c372bba41ca534302952845b4fe93303da507fe065e3613"}, "vout": 0, "txid": "461aa93911e3511c9911a591828f82c43b6c28d4df9697e0948bd88842564b35"}], "txid": "373fdecc1e51197efc561c7f9d463b1318a4fc341985c9280b5200c88c4c6ed5", "blocktime": 1537876114, "version": 1, "confirmations": 11463, "time": 1537876114, "locktime": 0, "vsize": 283, "size": 283}