{"hash": "f8e7fea01361da3972a626a6fedf09b3b89d89cef7aa4496593bc546cbdec42a", "blockhash": "00000000000000000017f5eb5941039fbcee6240d03bc1f2f8e35350df66a1d8", "vout": [{"scriptPubKey": {"reqSigs": 1, "hex": "a91461804f5ee7ee54f6407800f14878712879f6f0e187", "addresses": ["3AaZBHjVEuTqSJa2hTY2P68rhKWWoWLg4p"], "asm": "OP_HASH160 61804f5ee7ee54f6407800f14878712879f6f0e1 OP_EQUAL", "type": "scripthash"}, "value": 0.00100228, "n": 0}, {"scriptPubKey": {"reqSigs": 1, "hex": "a914414cec0fc72a9410f6836edaf08de1aa3b2a321c87", "addresses": ["37eHzewnAFRR2SVZu8rZM3nBsmuE2XBU7D"], "asm": "OP_HASH160 414cec0fc72a9410f6836edaf08de1aa3b2a321c OP_EQUAL", "type": "scripthash"}, "value": 0.24800918, "n": 1}], "hex": "01000000000101909db469d60ab1034f6f55b88b3f95fe2ce8e04c899c3bd52c261a1bd26486b00100000023220020ce74cde37cfb8dd71d0179287e12fc721ee236ce3c89c2745bcd365b39807eb3ffffffff02848701000000000017a91461804f5ee7ee54f6407800f14878712879f6f0e187966e7a010000000017a914414cec0fc72a9410f6836edaf08de1aa3b2a321c8704004830450221009639285f30aab0a0e00f9fc07010bcd8adbdec61a96527bf81cf5f3daa67ff3a02205fe424db92f59f2df3764d0cf90cf9d96c2119f345dabacb52ecc33dd4fec3b701473044022072559f14145e99a9872b4206b646e2eaf49224a52c801d7da4fde5ac08d9b687022043f1ecc9d16ac1b3aa9b203fb2f6d47256627e400e7ebd3ffc0cbd4a79e3a8a60147522103ada901d90d5a76319a60f228e0b1bbc84b1d9a87238550bae5d5d190067b66712103871fc2ca08e6950b38867e8e6a0e94ee625223d3aa0df5c65f414c6d784467e252ae00000000", "vin": [{"txinwitness": ["", "30450221009639285f30aab0a0e00f9fc07010bcd8adbdec61a96527bf81cf5f3daa67ff3a02205fe424db92f59f2df3764d0cf90cf9d96c2119f345dabacb52ecc33dd4fec3b701", "3044022072559f14145e99a9872b4206b646e2eaf49224a52c801d7da4fde5ac08d9b687022043f1ecc9d16ac1b3aa9b203fb2f6d47256627e400e7ebd3ffc0cbd4a79e3a8a601", "522103ada901d90d5a76319a60f228e0b1bbc84b1d9a87238550bae5d5d190067b66712103871fc2ca08e6950b38867e8e6a0e94ee625223d3aa0df5c65f414c6d784467e252ae"], "sequence": 4294967295, "scriptSig": {"hex": "220020ce74cde37cfb8dd71d0179287e12fc721ee236ce3c89c2745bcd365b39807eb3", "asm": "0020ce74cde37cfb8dd71d0179287e12fc721ee236ce3c89c2745bcd365b39807eb3"}, "vout": 1, "txid": "b08664d21b1a262cd53b9c894ce0e82cfe953f8bb8556f4f03b10ad669b49d90"}], "txid": "373ff68f5f800c936e3bbe38d0ad0bf700f9dab0a1b9bbff4ceb00b154dcba35", "blocktime": 1537874412, "version": 1, "confirmations": 11468, "time": 1537874412, "locktime": 0, "vsize": 206, "size": 371}