{"hash": "374932d0f35faff126ad2937ec3fba3b58d88b9c21781d5a5de1ce6f7bfa95d8", "blockhash": "0000000000000000000dcc0f55137456b1a82d3642486a52398922ac4d620174", "vout": [{"scriptPubKey": {"reqSigs": 1, "hex": "a914a54898ccd6eb08b4bf2a2716326232e6197a785f87", "addresses": ["3GkxPKEKDSHXsqVVezxkmR5t6dPSUKd4EK"], "asm": "OP_HASH160 a54898ccd6eb08b4bf2a2716326232e6197a785f OP_EQUAL", "type": "scripthash"}, "value": 0.009, "n": 0}, {"scriptPubKey": {"reqSigs": 1, "hex": "76a914836e819509cd170de544cdb98e8c7625020fb8bb88ac", "addresses": ["1CywuEZX9dRmk88FLaBMFbcXHs2dLxw8kt"], "asm": "OP_DUP OP_HASH160 836e819509cd170de544cdb98e8c7625020fb8bb OP_EQUALVERIFY OP_CHECKSIG", "type": "pubkeyhash"}, "value": 0.16630153, "n": 1}], "hex": "0100000001a4fd9ded11bda6c2f6ebcad2252cb25893d731fe367657ae00ae362860329d52010000006a473044022004e83c15bf20c7302f719f0ca9cb1df5838137440e304ca6cef37a91a9beb5e402203e8b3d7af588b8e6d4ec8f428ff2d913f284e8e1b6c1239126239587881623850121029ce425b1551e0209866f934ebdf5e7fa5487f9dcd2c3c58611668f2a082f3935ffffffff02a0bb0d000000000017a914a54898ccd6eb08b4bf2a2716326232e6197a785f8789c1fd00000000001976a914836e819509cd170de544cdb98e8c7625020fb8bb88ac00000000", "vin": [{"sequence": 4294967295, "scriptSig": {"hex": "473044022004e83c15bf20c7302f719f0ca9cb1df5838137440e304ca6cef37a91a9beb5e402203e8b3d7af588b8e6d4ec8f428ff2d913f284e8e1b6c1239126239587881623850121029ce425b1551e0209866f934ebdf5e7fa5487f9dcd2c3c58611668f2a082f3935", "asm": "3044022004e83c15bf20c7302f719f0ca9cb1df5838137440e304ca6cef37a91a9beb5e402203e8b3d7af588b8e6d4ec8f428ff2d913f284e8e1b6c123912623958788162385[ALL] 029ce425b1551e0209866f934ebdf5e7fa5487f9dcd2c3c58611668f2a082f3935"}, "vout": 1, "txid": "529d32602836ae00ae577636fe31d79358b22c25d2caebf6c2a6bd11ed9dfda4"}], "txid": "374932d0f35faff126ad2937ec3fba3b58d88b9c21781d5a5de1ce6f7bfa95d8", "blocktime": 1537870268, "version": 1, "confirmations": 11518, "time": 1537870268, "locktime": 0, "vsize": 223, "size": 223}