{"hash": "37498f8085e4ab1a79f895e0d41324c31d2ea22363f2f7c061c3d99550506de6", "blockhash": "0000000000000000001f76057863aec43deb6fa401d9628bb513d65a8098bfab", "vout": [{"scriptPubKey": {"reqSigs": 1, "hex": "76a914f6a89a246311b36b1dd9c715e58ade85d4e8f36d88ac", "addresses": ["1PVDCsWMVFuwFsDvGU5oswx5ESPKeBjcke"], "asm": "OP_DUP OP_HASH160 f6a89a246311b36b1dd9c715e58ade85d4e8f36d OP_EQUALVERIFY OP_CHECKSIG", "type": "pubkeyhash"}, "value": 0.00014995, "n": 0}, {"scriptPubKey": {"reqSigs": 1, "hex": "76a9149c549430af1039c9cd5dfcd0c3dfa91b4325a58088ac", "addresses": ["1FFbjZxnpz13heMTtr5hqRitU8U1dqgnLw"], "asm": "OP_DUP OP_HASH160 9c549430af1039c9cd5dfcd0c3dfa91b4325a580 OP_EQUALVERIFY OP_CHECKSIG", "type": "pubkeyhash"}, "value": 0.00952086, "n": 1}], "hex": "0100000001156e9be00483a7785dc5a470910a00da8b589191340a46e9998f42e9eac9a1a7030000006a47304402205c715f36ac2fb77c93d7e308ee3a4dc98ff0db4b641186ea8273832031e80da7022018411aca5656c58b54d3ebeea6bc2313e12f216b889489bebc97a190785b07cd0121039eba4ecad9fa6b6c8e70115850fefebd7bfb2f6c16a14a43e75543bc12287aaaffffffff02933a0000000000001976a914f6a89a246311b36b1dd9c715e58ade85d4e8f36d88ac16870e00000000001976a9149c549430af1039c9cd5dfcd0c3dfa91b4325a58088ac00000000", "vin": [{"sequence": 4294967295, "scriptSig": {"hex": "47304402205c715f36ac2fb77c93d7e308ee3a4dc98ff0db4b641186ea8273832031e80da7022018411aca5656c58b54d3ebeea6bc2313e12f216b889489bebc97a190785b07cd0121039eba4ecad9fa6b6c8e70115850fefebd7bfb2f6c16a14a43e75543bc12287aaa", "asm": "304402205c715f36ac2fb77c93d7e308ee3a4dc98ff0db4b641186ea8273832031e80da7022018411aca5656c58b54d3ebeea6bc2313e12f216b889489bebc97a190785b07cd[ALL] 039eba4ecad9fa6b6c8e70115850fefebd7bfb2f6c16a14a43e75543bc12287aaa"}, "vout": 3, "txid": "a7a1c9eae9428f99e9460a349191588bda000a9170a4c55d78a78304e09b6e15"}], "txid": "37498f8085e4ab1a79f895e0d41324c31d2ea22363f2f7c061c3d99550506de6", "blocktime": 1537873891, "version": 1, "confirmations": 11478, "time": 1537873891, "locktime": 0, "vsize": 225, "size": 225}