{"hash": "374ea1febe94cde9c4b95e86e2e9ebda08ea2b668af583a3006222e398fad506", "blockhash": "00000000000000000024a2167bbff67b0be802c0b01cdd79e6331c2be6459f87", "vout": [{"scriptPubKey": {"reqSigs": 1, "hex": "76a9148de09c197159e839d4a1a233a7b9ca96cda17baa88ac", "addresses": ["1DwBMD4pde7gySD41w55K3SR4vTMWkDVyi"], "asm": "OP_DUP OP_HASH160 8de09c197159e839d4a1a233a7b9ca96cda17baa OP_EQUALVERIFY OP_CHECKSIG", "type": "pubkeyhash"}, "value": 0.007892, "n": 0}, {"scriptPubKey": {"reqSigs": 1, "hex": "76a914f44b0dde7a77e9c12393a516fccc738d2aa8138988ac", "addresses": ["1PGhnfQctyx3whUjoofYSjEqewiaaS9aDH"], "asm": "OP_DUP OP_HASH160 f44b0dde7a77e9c12393a516fccc738d2aa81389 OP_EQUALVERIFY OP_CHECKSIG", "type": "pubkeyhash"}, "value": 0.00018856, "n": 1}], "hex": "0100000001452851df5e011e76ac9134b402c7baea65e1775bb43b9f382b21e3daa8c3a0b4000000006b483045022100e69a68aa774213efd58bca7f4a0cca89a0ad4244bbf2e6078385a8a0493c949402203aa68370ead9df92fea9afe2eda9516b021b840fca314d6455591d465415b32201210305f802e5905e3d5c0d5e4f83a0fdd8162cb3b717044a5e2180d1a76bb0ef445fffffffff02d00a0c00000000001976a9148de09c197159e839d4a1a233a7b9ca96cda17baa88aca8490000000000001976a914f44b0dde7a77e9c12393a516fccc738d2aa8138988ac00000000", "vin": [{"sequence": 4294967295, "scriptSig": {"hex": "483045022100e69a68aa774213efd58bca7f4a0cca89a0ad4244bbf2e6078385a8a0493c949402203aa68370ead9df92fea9afe2eda9516b021b840fca314d6455591d465415b32201210305f802e5905e3d5c0d5e4f83a0fdd8162cb3b717044a5e2180d1a76bb0ef445f", "asm": "3045022100e69a68aa774213efd58bca7f4a0cca89a0ad4244bbf2e6078385a8a0493c949402203aa68370ead9df92fea9afe2eda9516b021b840fca314d6455591d465415b322[ALL] 0305f802e5905e3d5c0d5e4f83a0fdd8162cb3b717044a5e2180d1a76bb0ef445f"}, "vout": 0, "txid": "b4a0c3a8dae3212b389f3bb45b77e165eabac702b43491ac761e015edf512845"}], "txid": "374ea1febe94cde9c4b95e86e2e9ebda08ea2b668af583a3006222e398fad506", "blocktime": 1537870564, "version": 1, "confirmations": 11515, "time": 1537870564, "locktime": 0, "vsize": 226, "size": 226}