{"hash": "06988976fab6cf480c893721ac7e0d2235510396426cd1a978d59eb0a65bffc4", "blockhash": "0000000000000000000baef3f32e3676a92c3b2e5da21b426e4f302fc371ce76", "vout": [{"scriptPubKey": {"reqSigs": 1, "hex": "76a91420a36736f4e580e84b033ea797d156a521b13f4d88ac", "addresses": ["13yaNbGBfNy9SFmbKALPnk7ZrHwCFTU1wi"], "asm": "OP_DUP OP_HASH160 20a36736f4e580e84b033ea797d156a521b13f4d OP_EQUALVERIFY OP_CHECKSIG", "type": "pubkeyhash"}, "value": 0.98, "n": 0}, {"scriptPubKey": {"reqSigs": 1, "hex": "a9140c601eec5165e0aafb712ac899a6495a64c41a7e87", "addresses": ["32pTBSDNiKRbkVtFuBQ66F5tPbH8yvFGYa"], "asm": "OP_HASH160 0c601eec5165e0aafb712ac899a6495a64c41a7e OP_EQUAL", "type": "scripthash"}, "value": 0.10865579, "n": 1}], "hex": "02000000000101b5a6d998aaa11afeab4935c493daf20d02fd809d70c1807265d6594ed0f287c300000000171600146601627a75ed0d5f896127a2dc90bfa906062857fdffffff02805cd705000000001976a91420a36736f4e580e84b033ea797d156a521b13f4d88acabcba5000000000017a9140c601eec5165e0aafb712ac899a6495a64c41a7e87024830450221009956d1245069ce66aef80a4e018d451a86ce7dfea2ae58a5a7863c72695f3edd02207c4c882ead7eaf3b013195e114c45599258fe27a74f423f9f48e37a45dfde5ad012102ce589200af5122ce1172b388183c1c264fa14e7c826c5434f4ed385f0d86d8d20f490800", "vin": [{"txinwitness": ["30450221009956d1245069ce66aef80a4e018d451a86ce7dfea2ae58a5a7863c72695f3edd02207c4c882ead7eaf3b013195e114c45599258fe27a74f423f9f48e37a45dfde5ad01", "02ce589200af5122ce1172b388183c1c264fa14e7c826c5434f4ed385f0d86d8d2"], "sequence": 4294967293, "scriptSig": {"hex": "1600146601627a75ed0d5f896127a2dc90bfa906062857", "asm": "00146601627a75ed0d5f896127a2dc90bfa906062857"}, "vout": 0, "txid": "c387f2d04e59d6657280c1709d80fd020df2da93c43549abfe1aa1aa98d9a6b5"}], "txid": "3751fe06d9504c0d2151506e033588f14958c08e27aff394d335122645544176", "blocktime": 1537876114, "version": 2, "confirmations": 11460, "time": 1537876114, "locktime": 542991, "vsize": 168, "size": 250}