{"hash": "3756e6df7ac9fe465a6bfbba27f36fa1511d0a5b210b3cb8b6f416b44f264d2f", "blockhash": "0000000000000000001f0ddff1eddb255c1121bcd4da4f1bc9a0da00cae72433", "vout": [{"scriptPubKey": {"reqSigs": 1, "hex": "a914874222eded788a614c1f5e9f7729f75a40ed850287", "addresses": ["3E2CNgUkRmEfggRfBokWu3d62AefpJoyhY"], "asm": "OP_HASH160 874222eded788a614c1f5e9f7729f75a40ed8502 OP_EQUAL", "type": "scripthash"}, "value": 0.019166, "n": 0}], "hex": "0100000001c57c4be9c0b6ff2c5d2664d91339b1bac6f56f63dad7d6684521a4a124d18433000000006a473044022064885b140cab7110bc8e58afd2c0282dceb9c2d12bd4cf5380966946ce2b78d402203c917e2e990a875f13cdff9475eb8499e970ce79665ce3e0286b0e49a157763c0121030610e53cf4dda4864922a8eba25e3cc61e1af22a5215f4285de40f906db337e1ffffffff01b83e1d000000000017a914874222eded788a614c1f5e9f7729f75a40ed85028700000000", "vin": [{"sequence": 4294967295, "scriptSig": {"hex": "473044022064885b140cab7110bc8e58afd2c0282dceb9c2d12bd4cf5380966946ce2b78d402203c917e2e990a875f13cdff9475eb8499e970ce79665ce3e0286b0e49a157763c0121030610e53cf4dda4864922a8eba25e3cc61e1af22a5215f4285de40f906db337e1", "asm": "3044022064885b140cab7110bc8e58afd2c0282dceb9c2d12bd4cf5380966946ce2b78d402203c917e2e990a875f13cdff9475eb8499e970ce79665ce3e0286b0e49a157763c[ALL] 030610e53cf4dda4864922a8eba25e3cc61e1af22a5215f4285de40f906db337e1"}, "vout": 0, "txid": "3384d124a1a4214568d6d7da636ff5c6bab13913d964265d2cffb6c0e94b7cc5"}], "txid": "3756e6df7ac9fe465a6bfbba27f36fa1511d0a5b210b3cb8b6f416b44f264d2f", "blocktime": 1537872018, "version": 1, "confirmations": 11489, "time": 1537872018, "locktime": 0, "vsize": 189, "size": 189}