{"hash": "375723942c1bc4717237d3cfee211b0f050e52b3734ccc86f2626d23aa4cd0a6", "blockhash": "0000000000000000001cda96e906b7601b7a6fb1a3b62bca570a9e5d8f4b3de1", "vout": [{"scriptPubKey": {"reqSigs": 1, "hex": "76a9149605f98e984d4d7a8fd9113c5d70877ffdbd4ab788ac", "addresses": ["1EgFWuxv6i3J2bwvt3yck9e9SLWYJS9apz"], "asm": "OP_DUP OP_HASH160 9605f98e984d4d7a8fd9113c5d70877ffdbd4ab7 OP_EQUALVERIFY OP_CHECKSIG", "type": "pubkeyhash"}, "value": 5.924e-05, "n": 0}, {"scriptPubKey": {"reqSigs": 1, "hex": "a91438e9179c97907167d49fcd56a9dae6d6b7b84b9087", "addresses": ["36svzpRqMJUwF7zfNgXA89ok6aS9psuzuv"], "asm": "OP_HASH160 38e9179c97907167d49fcd56a9dae6d6b7b84b90 OP_EQUAL", "type": "scripthash"}, "value": 0.05799095, "n": 1}], "hex": "0100000001c22c5fdf4aec8887bc6184cc03b490d6897a44ff32c4d9a74e5de0680cc205d8000000006b483045022100bee7eb38db8f71d06d3f9d4a460ecc6c0c732f9bc1da2f9437da88e7d9c6d28c022038ce19be11daf49dd58d1d8d2612dd85c7cce060f6a84ff4ef281199bdfb734f012103b9e06def536b0ce256ff6195e6c47eb732ed1ec37147f34a096ab081dadb9816ffffffff0224170000000000001976a9149605f98e984d4d7a8fd9113c5d70877ffdbd4ab788acb77c58000000000017a91438e9179c97907167d49fcd56a9dae6d6b7b84b908700000000", "vin": [{"sequence": 4294967295, "scriptSig": {"hex": "483045022100bee7eb38db8f71d06d3f9d4a460ecc6c0c732f9bc1da2f9437da88e7d9c6d28c022038ce19be11daf49dd58d1d8d2612dd85c7cce060f6a84ff4ef281199bdfb734f012103b9e06def536b0ce256ff6195e6c47eb732ed1ec37147f34a096ab081dadb9816", "asm": "3045022100bee7eb38db8f71d06d3f9d4a460ecc6c0c732f9bc1da2f9437da88e7d9c6d28c022038ce19be11daf49dd58d1d8d2612dd85c7cce060f6a84ff4ef281199bdfb734f[ALL] 03b9e06def536b0ce256ff6195e6c47eb732ed1ec37147f34a096ab081dadb9816"}, "vout": 0, "txid": "d805c20c68e05d4ea7d9c432ff447a89d690b403cc8461bc8788ec4adf5f2cc2"}], "txid": "375723942c1bc4717237d3cfee211b0f050e52b3734ccc86f2626d23aa4cd0a6", "blocktime": 1537873282, "version": 1, "confirmations": 11484, "time": 1537873282, "locktime": 0, "vsize": 224, "size": 224}