{"hash": "375db0f29e98101cc09985e6225b219aea6ea43e716c78a0c1ffb80413283b85", "blockhash": "0000000000000000000dcc0f55137456b1a82d3642486a52398922ac4d620174", "vout": [{"scriptPubKey": {"reqSigs": 1, "hex": "76a914044361c878e8a9e132c0dfed008c3ebc7835536e88ac", "addresses": ["1PYRYod696Sy7HYtujZgoPPAHXVti8ScU"], "asm": "OP_DUP OP_HASH160 044361c878e8a9e132c0dfed008c3ebc7835536e OP_EQUALVERIFY OP_CHECKSIG", "type": "pubkeyhash"}, "value": 3.75, "n": 0}, {"scriptPubKey": {"reqSigs": 1, "hex": "76a9146712e4540ce1aa2fb54b5744c608301f7018559788ac", "addresses": ["1AQ1EPhGBKvG3eDm1BVTyTuzXjuiZEPb9J"], "asm": "OP_DUP OP_HASH160 6712e4540ce1aa2fb54b5744c608301f70185597 OP_EQUALVERIFY OP_CHECKSIG", "type": "pubkeyhash"}, "value": 1.1498, "n": 1}], "hex": "010000000211ebb981d158e4aa4e9646782d2367189c28e42b12d38f285152bb64e87e4d56010000006b483045022100d9294938c95abe0abaf5e35ff060ed4dcadd3761021d61cdf57cc82e25225e4002200aabf227ba71e31eae09f09a3fc59b37d18c00fc66cbac2cadbc4b669dd7b2f00121037f19040a6aba65d0eec6e3b31d798631e3ce9577d629a6f1e0f0fdf143eb52a5ffffffff11ebb981d158e4aa4e9646782d2367189c28e42b12d38f285152bb64e87e4d56000000006b483045022100b248e035538e44f7dc25fea3d8df6d5528507d7ebad4033ca23595cb358506c40220113ee56bda9e763e7fd9219cda227a849a8ffda4e2d2c2e713ab496f1913a9100121033f33bc7d2a0e06c41e8fb664000f2fd1afc39064751e0f603e84c01eb5975ea0ffffffff02c00b5a16000000001976a914044361c878e8a9e132c0dfed008c3ebc7835536e88aca074da06000000001976a9146712e4540ce1aa2fb54b5744c608301f7018559788ac00000000", "vin": [{"sequence": 4294967295, "scriptSig": {"hex": "483045022100d9294938c95abe0abaf5e35ff060ed4dcadd3761021d61cdf57cc82e25225e4002200aabf227ba71e31eae09f09a3fc59b37d18c00fc66cbac2cadbc4b669dd7b2f00121037f19040a6aba65d0eec6e3b31d798631e3ce9577d629a6f1e0f0fdf143eb52a5", "asm": "3045022100d9294938c95abe0abaf5e35ff060ed4dcadd3761021d61cdf57cc82e25225e4002200aabf227ba71e31eae09f09a3fc59b37d18c00fc66cbac2cadbc4b669dd7b2f0[ALL] 037f19040a6aba65d0eec6e3b31d798631e3ce9577d629a6f1e0f0fdf143eb52a5"}, "vout": 1, "txid": "564d7ee864bb5251288fd3122be4289c1867232d7846964eaae458d181b9eb11"}, {"sequence": 4294967295, "scriptSig": {"hex": "483045022100b248e035538e44f7dc25fea3d8df6d5528507d7ebad4033ca23595cb358506c40220113ee56bda9e763e7fd9219cda227a849a8ffda4e2d2c2e713ab496f1913a9100121033f33bc7d2a0e06c41e8fb664000f2fd1afc39064751e0f603e84c01eb5975ea0", "asm": "3045022100b248e035538e44f7dc25fea3d8df6d5528507d7ebad4033ca23595cb358506c40220113ee56bda9e763e7fd9219cda227a849a8ffda4e2d2c2e713ab496f1913a910[ALL] 033f33bc7d2a0e06c41e8fb664000f2fd1afc39064751e0f603e84c01eb5975ea0"}, "vout": 0, "txid": "564d7ee864bb5251288fd3122be4289c1867232d7846964eaae458d181b9eb11"}], "txid": "375db0f29e98101cc09985e6225b219aea6ea43e716c78a0c1ffb80413283b85", "blocktime": 1537870268, "version": 1, "confirmations": 11516, "time": 1537870268, "locktime": 0, "vsize": 374, "size": 374}