{"hash": "37620f1966c159ca403a58a8cd1b15ec06dacd909a61c79f4617f0a8cc5ee72a", "blockhash": "0000000000000000000baef3f32e3676a92c3b2e5da21b426e4f302fc371ce76", "vout": [{"scriptPubKey": {"reqSigs": 1, "hex": "76a914fde55b6e5bcf6b4858da208a9b03d41453c874b488ac", "addresses": ["1Q9UiYkbXQBjFJNdFYLm6gT29ifTLHYZVe"], "asm": "OP_DUP OP_HASH160 fde55b6e5bcf6b4858da208a9b03d41453c874b4 OP_EQUALVERIFY OP_CHECKSIG", "type": "pubkeyhash"}, "value": 0.00755464, "n": 0}, {"scriptPubKey": {"reqSigs": 1, "hex": "76a914e8cea30989bd15530f819b766684b00dc7ba7cfa88ac", "addresses": ["1NDyJtNTjmwk5xPNhjgAMu4HDHigtobu1s"], "asm": "OP_DUP OP_HASH160 e8cea30989bd15530f819b766684b00dc7ba7cfa OP_EQUALVERIFY OP_CHECKSIG", "type": "pubkeyhash"}, "value": 1.96854998, "n": 1}], "hex": "0200000010179e6e62441a6e8ebe5a05f6077185c2f0e879568522b72eac2c7d023d6a446f900000006b483045022100e1d189d3940162655ccdadb37a9d49a117a872c8beb30f68209c3bab0bbbf954022052b05270040e35fa85b642a069d5b1bcd67b33f242b09d1a8c0c5ee0aa0791b60121034219adb6bbcd3c7396c6faa20094655b87e65bd451cf64279d235d673045f404feffffff17c92800860ad52199c559ce8cb16ddaaf4048a72dc0281cc60dd23235702d9a000000006a47304402206d96509ccc8a99fafb29964ba97312c647bfe08f64bc9f42e06644b5bc957afc02200acd10389e7d86990a6f48cb49e9ca49a72387d773cd9dcbe69bcf4c39b793da012103f4a9a008cf9248ae6431049b12ce9b1c3bdc0aaf461581a6552a4010c05f53c8feffffff2e9dff04767eee7bc7428830c8368f8b159ef6b1c214f638cf18cccbd8da5e9b010000006b483045022100b279f55e90bb3ce16046dc271422ab1d1a572d85f4181e5e3ca1e2ddbc556b41022045513a07459064057dadb8a93c658272f52a487b0aac3fc5a7e1de20386468760121023cd855547c31a79ce97eb67f3623352a517b10baadf088485b39d83089e329f2feffffff394f5ff6d5bce50829023521f7fdad53f8504b0f7d2a03843606fa5e6bba1567010000006a47304402201901b9819e6aa6d4e81eded8574ce16010f0df4930b0e0c5b2e127f7eaa4144b02203f1c7dad15f152f2f9c36ce44d13b39e771cb4f05dc0fa21afbe0e8f25fd9034012102b5db6687bd79b1b4440a5ad8a71b33468f4bfc1ac82d4cf5084f47db7caa9bd9feffffff433d52562cde4a7c27541db6591dc3c01d18ea7a4806de6458acf2ce31b67eee490000006b483045022100e3cafca287b417a68bfe0df065f5074b174ad2b866d2fd188eafc4641460314002206c2a90ad4978e35f1bb1d6a48e33449c43188bf6b95d3da6f82d469414125bb501210307c85d0e791ef5495a59b1123352e0981f9bb69efe8dd68963fe9808ffcb75f9feffffff507ee6a6460e4a0770eb8543d991c71c65825d77823179f33b514e54edb77f84000000006a473044022060ce01d566a64f8950181eadc06914d6cec922134da07a9053c970d87d5ffd5c0220031051ccce7912f5944049f624ce9970c9ae6a04604aae323d312e1ec5a61b0d012102e9b0f1a4e8e8b2e2b149e5459bf424fddbd3acb5bc67b50113d3f5c67a5011e9feffffff5331f248556c9f8594d528558add75343fe1ae8135b82f5fd9452155ecfd2c51010000006a473044022006ee12fe6672e243f85dd0db2c61fa54cb052ba61946347980fecc85157e1bff02207fadebc9c122f9465d44f2d7f00069942fa0f2c40c8f308ca36f945804ca0bd7012102153318e0e69a01147773a881b7ba04f6addd2cbe59f13c87ff9d009b87cb6636feffffff70928c216a5b6301eb71793c31a1005060e7155dab0c1d04bdd79ff1db52d9c0170000006a4730440220091f34e3156e2682a0e84c2d9b483bafffd2158f9a8b25a411be944ee81948ae022033deb766b7f5a8152027c21e655b8a4641cb6849c0a64414172aff2084d4b88a012102f9905f020f2315e6ba5efb08c6c7645f5c4a17e0e81361e21a74d4b5eafec907feffffff842d3e699620b62f9c1ef286744840a7d9859d31246cd9243f425e9941de1a51000000006a47304402200e1dd77f427e6598c55113cc006edc17cffd1ae18bb8dcb5ff92ba14424282b302203a88d31bd1ef1705a52e68e6c005b96b70941531a0f1a870bdad926f1981c9db0121036ad748750223646e76eac93d4da4e279313b6fe7b14ca5a3b95dba46600cfee9feffffff925683fcd0264a822ced27bc3f9092009d9ad3c4e94a722e692689d1104ae6f6000000006b48304502210097379534f8a9ae140bab349787510a9c793609c82a23710631d8b25fe148dc7a0220539dcb833d449f22682aadcebd2e2a0ad9e6fe952175f754010464a514ba229901210388348856a8793865bcdafbb417414d9906152a31e028a22fba8db41d08471d7efeffffff927d2a8df36977305d4ea9a5b402d43172bb6c2ac4b9d625380b3a9019786eab010000006b483045022100ca8728547ade0479d6a8ebf4a51e22be44624301507d8c8637b50dfa45779d0f02207ac40a86b050fc3cdb5b86665d2b565c974c7e9066134712bd414ace3e4549fd012103508034dc1670e2860556d50d63eac5ee335fde07d438c5f440fc94eea7f514d3feffffff9b38fbbf04c02a1833a52b279dcd6e2fd10afaaaedffbb018b1312e5ba175cf3000000006a473044022068f0e8ea5483175ee3189557dd1e422941b78d0359ae57c8d4484587492c7e5602204d273276d232c5fd912adb6bd4c257f4b849f41072db99d51120cf61e811b13e01210279a662a3c9eab271e3484bf18edfff568236744b95cb6a0e860f7853f2c249d9feffffff9cf05997c8289f2f31007c438454af9f728eb1c7d4a7686148040157868b978b590000006b4830450221009c1ae35b2eac67aa172753b5580cef4154d41b7cf6bbbcdf6b137bd83d54477802207f723d2aaa06e7873d15546d4d7474f2965f0792c8ad1444b836b4679450d240012102718953b87d8f90e9cdbfd6bc5a4ea47cdb3c7832f0dc5e4ee98973c28a1a8e75feffffffa62774b6e940ad6b75c7ea426c9287c7d0c160ad54c34a996978d72df6a2951e000000006a473044022042374e0b3a285bbec7676e9c70308da78fa563c3046343ea7d95c53afa01feac02204f6a304a10fe717a50856a4f58ceaaf47263f701143aca22c2a3f519e85b23ce012102c071762d12fcbfc4bf093959cefbc57eaa9c6160f133f9c522da6c8256758345feffffffbd4be8a68a84bc7061bc574968a69eafed16eb1960f6ea51149e2520ab9526ee010000006b483045022100950b7544bad5a31d5db82fc5d520b25736a2334e2f3b534532352148d89ad1a402205566a2bfd6f862cdc03467e6a95e02b63e4477244b27155f0a2631c687bac2bc012102c70e9e6012cdffc94d5eb9165042cd6a384e8c3669a961bf6fbf2529fd753e9bfeffffffdf057bc9dcf116152f86453651ebb19131d5ba4b7e484609b7857af49db630b6020000006a47304402202815985fa00331088c598dfdb25f378461956e8eb934dfd98e81907576e65e3002203c59bd9731b1b95bfcf8765e62920f7fc35c5bacb3f218487693015da7cbae110121039fcafb0edcc5d0edf0f5004ed2354eaf3fce9586addf47197610ee35b8f23f32feffffff0208870b00000000001976a914fde55b6e5bcf6b4858da208a9b03d41453c874b488acd6c4bb0b000000001976a914e8cea30989bd15530f819b766684b00dc7ba7cfa88ac17490800", "vin": [{"sequence": 4294967294, "scriptSig": {"hex": "483045022100e1d189d3940162655ccdadb37a9d49a117a872c8beb30f68209c3bab0bbbf954022052b05270040e35fa85b642a069d5b1bcd67b33f242b09d1a8c0c5ee0aa0791b60121034219adb6bbcd3c7396c6faa20094655b87e65bd451cf64279d235d673045f404", "asm": "3045022100e1d189d3940162655ccdadb37a9d49a117a872c8beb30f68209c3bab0bbbf954022052b05270040e35fa85b642a069d5b1bcd67b33f242b09d1a8c0c5ee0aa0791b6[ALL] 034219adb6bbcd3c7396c6faa20094655b87e65bd451cf64279d235d673045f404"}, "vout": 144, "txid": "6f446a3d027d2cac2eb722855679e8f0c2857107f6055abe8e6e1a44626e9e17"}, {"sequence": 4294967294, "scriptSig": {"hex": "47304402206d96509ccc8a99fafb29964ba97312c647bfe08f64bc9f42e06644b5bc957afc02200acd10389e7d86990a6f48cb49e9ca49a72387d773cd9dcbe69bcf4c39b793da012103f4a9a008cf9248ae6431049b12ce9b1c3bdc0aaf461581a6552a4010c05f53c8", "asm": "304402206d96509ccc8a99fafb29964ba97312c647bfe08f64bc9f42e06644b5bc957afc02200acd10389e7d86990a6f48cb49e9ca49a72387d773cd9dcbe69bcf4c39b793da[ALL] 03f4a9a008cf9248ae6431049b12ce9b1c3bdc0aaf461581a6552a4010c05f53c8"}, "vout": 0, "txid": "9a2d703532d20dc61c28c02da74840afda6db18cce59c59921d50a860028c917"}, {"sequence": 4294967294, "scriptSig": {"hex": "483045022100b279f55e90bb3ce16046dc271422ab1d1a572d85f4181e5e3ca1e2ddbc556b41022045513a07459064057dadb8a93c658272f52a487b0aac3fc5a7e1de20386468760121023cd855547c31a79ce97eb67f3623352a517b10baadf088485b39d83089e329f2", "asm": "3045022100b279f55e90bb3ce16046dc271422ab1d1a572d85f4181e5e3ca1e2ddbc556b41022045513a07459064057dadb8a93c658272f52a487b0aac3fc5a7e1de2038646876[ALL] 023cd855547c31a79ce97eb67f3623352a517b10baadf088485b39d83089e329f2"}, "vout": 1, "txid": "9b5edad8cbcc18cf38f614c2b1f69e158b8f36c8308842c77bee7e7604ff9d2e"}, {"sequence": 4294967294, "scriptSig": {"hex": "47304402201901b9819e6aa6d4e81eded8574ce16010f0df4930b0e0c5b2e127f7eaa4144b02203f1c7dad15f152f2f9c36ce44d13b39e771cb4f05dc0fa21afbe0e8f25fd9034012102b5db6687bd79b1b4440a5ad8a71b33468f4bfc1ac82d4cf5084f47db7caa9bd9", "asm": "304402201901b9819e6aa6d4e81eded8574ce16010f0df4930b0e0c5b2e127f7eaa4144b02203f1c7dad15f152f2f9c36ce44d13b39e771cb4f05dc0fa21afbe0e8f25fd9034[ALL] 02b5db6687bd79b1b4440a5ad8a71b33468f4bfc1ac82d4cf5084f47db7caa9bd9"}, "vout": 1, "txid": "6715ba6b5efa063684032a7d0f4b50f853adfdf72135022908e5bcd5f65f4f39"}, {"sequence": 4294967294, "scriptSig": {"hex": "483045022100e3cafca287b417a68bfe0df065f5074b174ad2b866d2fd188eafc4641460314002206c2a90ad4978e35f1bb1d6a48e33449c43188bf6b95d3da6f82d469414125bb501210307c85d0e791ef5495a59b1123352e0981f9bb69efe8dd68963fe9808ffcb75f9", "asm": "3045022100e3cafca287b417a68bfe0df065f5074b174ad2b866d2fd188eafc4641460314002206c2a90ad4978e35f1bb1d6a48e33449c43188bf6b95d3da6f82d469414125bb5[ALL] 0307c85d0e791ef5495a59b1123352e0981f9bb69efe8dd68963fe9808ffcb75f9"}, "vout": 73, "txid": "ee7eb631cef2ac5864de06487aea181dc0c31d59b61d54277c4ade2c56523d43"}, {"sequence": 4294967294, "scriptSig": {"hex": "473044022060ce01d566a64f8950181eadc06914d6cec922134da07a9053c970d87d5ffd5c0220031051ccce7912f5944049f624ce9970c9ae6a04604aae323d312e1ec5a61b0d012102e9b0f1a4e8e8b2e2b149e5459bf424fddbd3acb5bc67b50113d3f5c67a5011e9", "asm": "3044022060ce01d566a64f8950181eadc06914d6cec922134da07a9053c970d87d5ffd5c0220031051ccce7912f5944049f624ce9970c9ae6a04604aae323d312e1ec5a61b0d[ALL] 02e9b0f1a4e8e8b2e2b149e5459bf424fddbd3acb5bc67b50113d3f5c67a5011e9"}, "vout": 0, "txid": "847fb7ed544e513bf3793182775d82651cc791d94385eb70074a0e46a6e67e50"}, {"sequence": 4294967294, "scriptSig": {"hex": "473044022006ee12fe6672e243f85dd0db2c61fa54cb052ba61946347980fecc85157e1bff02207fadebc9c122f9465d44f2d7f00069942fa0f2c40c8f308ca36f945804ca0bd7012102153318e0e69a01147773a881b7ba04f6addd2cbe59f13c87ff9d009b87cb6636", "asm": "3044022006ee12fe6672e243f85dd0db2c61fa54cb052ba61946347980fecc85157e1bff02207fadebc9c122f9465d44f2d7f00069942fa0f2c40c8f308ca36f945804ca0bd7[ALL] 02153318e0e69a01147773a881b7ba04f6addd2cbe59f13c87ff9d009b87cb6636"}, "vout": 1, "txid": "512cfdec552145d95f2fb83581aee13f3475dd8a5528d594859f6c5548f23153"}, {"sequence": 4294967294, "scriptSig": {"hex": "4730440220091f34e3156e2682a0e84c2d9b483bafffd2158f9a8b25a411be944ee81948ae022033deb766b7f5a8152027c21e655b8a4641cb6849c0a64414172aff2084d4b88a012102f9905f020f2315e6ba5efb08c6c7645f5c4a17e0e81361e21a74d4b5eafec907", "asm": "30440220091f34e3156e2682a0e84c2d9b483bafffd2158f9a8b25a411be944ee81948ae022033deb766b7f5a8152027c21e655b8a4641cb6849c0a64414172aff2084d4b88a[ALL] 02f9905f020f2315e6ba5efb08c6c7645f5c4a17e0e81361e21a74d4b5eafec907"}, "vout": 23, "txid": "c0d952dbf19fd7bd041d0cab5d15e7605000a1313c7971eb01635b6a218c9270"}, {"sequence": 4294967294, "scriptSig": {"hex": "47304402200e1dd77f427e6598c55113cc006edc17cffd1ae18bb8dcb5ff92ba14424282b302203a88d31bd1ef1705a52e68e6c005b96b70941531a0f1a870bdad926f1981c9db0121036ad748750223646e76eac93d4da4e279313b6fe7b14ca5a3b95dba46600cfee9", "asm": "304402200e1dd77f427e6598c55113cc006edc17cffd1ae18bb8dcb5ff92ba14424282b302203a88d31bd1ef1705a52e68e6c005b96b70941531a0f1a870bdad926f1981c9db[ALL] 036ad748750223646e76eac93d4da4e279313b6fe7b14ca5a3b95dba46600cfee9"}, "vout": 0, "txid": "511ade41995e423f24d96c24319d85d9a740487486f21e9c2fb62096693e2d84"}, {"sequence": 4294967294, "scriptSig": {"hex": "48304502210097379534f8a9ae140bab349787510a9c793609c82a23710631d8b25fe148dc7a0220539dcb833d449f22682aadcebd2e2a0ad9e6fe952175f754010464a514ba229901210388348856a8793865bcdafbb417414d9906152a31e028a22fba8db41d08471d7e", "asm": "304502210097379534f8a9ae140bab349787510a9c793609c82a23710631d8b25fe148dc7a0220539dcb833d449f22682aadcebd2e2a0ad9e6fe952175f754010464a514ba2299[ALL] 0388348856a8793865bcdafbb417414d9906152a31e028a22fba8db41d08471d7e"}, "vout": 0, "txid": "f6e64a10d18926692e724ae9c4d39a9d0092903fbc27ed2c824a26d0fc835692"}, {"sequence": 4294967294, "scriptSig": {"hex": "483045022100ca8728547ade0479d6a8ebf4a51e22be44624301507d8c8637b50dfa45779d0f02207ac40a86b050fc3cdb5b86665d2b565c974c7e9066134712bd414ace3e4549fd012103508034dc1670e2860556d50d63eac5ee335fde07d438c5f440fc94eea7f514d3", "asm": "3045022100ca8728547ade0479d6a8ebf4a51e22be44624301507d8c8637b50dfa45779d0f02207ac40a86b050fc3cdb5b86665d2b565c974c7e9066134712bd414ace3e4549fd[ALL] 03508034dc1670e2860556d50d63eac5ee335fde07d438c5f440fc94eea7f514d3"}, "vout": 1, "txid": "ab6e7819903a0b3825d6b9c42a6cbb7231d402b4a5a94e5d307769f38d2a7d92"}, {"sequence": 4294967294, "scriptSig": {"hex": "473044022068f0e8ea5483175ee3189557dd1e422941b78d0359ae57c8d4484587492c7e5602204d273276d232c5fd912adb6bd4c257f4b849f41072db99d51120cf61e811b13e01210279a662a3c9eab271e3484bf18edfff568236744b95cb6a0e860f7853f2c249d9", "asm": "3044022068f0e8ea5483175ee3189557dd1e422941b78d0359ae57c8d4484587492c7e5602204d273276d232c5fd912adb6bd4c257f4b849f41072db99d51120cf61e811b13e[ALL] 0279a662a3c9eab271e3484bf18edfff568236744b95cb6a0e860f7853f2c249d9"}, "vout": 0, "txid": "f35c17bae512138b01bbffedaafa0ad12f6ecd9d272ba533182ac004bffb389b"}, {"sequence": 4294967294, "scriptSig": {"hex": "4830450221009c1ae35b2eac67aa172753b5580cef4154d41b7cf6bbbcdf6b137bd83d54477802207f723d2aaa06e7873d15546d4d7474f2965f0792c8ad1444b836b4679450d240012102718953b87d8f90e9cdbfd6bc5a4ea47cdb3c7832f0dc5e4ee98973c28a1a8e75", "asm": "30450221009c1ae35b2eac67aa172753b5580cef4154d41b7cf6bbbcdf6b137bd83d54477802207f723d2aaa06e7873d15546d4d7474f2965f0792c8ad1444b836b4679450d240[ALL] 02718953b87d8f90e9cdbfd6bc5a4ea47cdb3c7832f0dc5e4ee98973c28a1a8e75"}, "vout": 89, "txid": "8b978b86570104486168a7d4c7b18e729faf5484437c00312f9f28c89759f09c"}, {"sequence": 4294967294, "scriptSig": {"hex": "473044022042374e0b3a285bbec7676e9c70308da78fa563c3046343ea7d95c53afa01feac02204f6a304a10fe717a50856a4f58ceaaf47263f701143aca22c2a3f519e85b23ce012102c071762d12fcbfc4bf093959cefbc57eaa9c6160f133f9c522da6c8256758345", "asm": "3044022042374e0b3a285bbec7676e9c70308da78fa563c3046343ea7d95c53afa01feac02204f6a304a10fe717a50856a4f58ceaaf47263f701143aca22c2a3f519e85b23ce[ALL] 02c071762d12fcbfc4bf093959cefbc57eaa9c6160f133f9c522da6c8256758345"}, "vout": 0, "txid": "1e95a2f62dd77869994ac354ad60c1d0c787926c42eac7756bad40e9b67427a6"}, {"sequence": 4294967294, "scriptSig": {"hex": "483045022100950b7544bad5a31d5db82fc5d520b25736a2334e2f3b534532352148d89ad1a402205566a2bfd6f862cdc03467e6a95e02b63e4477244b27155f0a2631c687bac2bc012102c70e9e6012cdffc94d5eb9165042cd6a384e8c3669a961bf6fbf2529fd753e9b", "asm": "3045022100950b7544bad5a31d5db82fc5d520b25736a2334e2f3b534532352148d89ad1a402205566a2bfd6f862cdc03467e6a95e02b63e4477244b27155f0a2631c687bac2bc[ALL] 02c70e9e6012cdffc94d5eb9165042cd6a384e8c3669a961bf6fbf2529fd753e9b"}, "vout": 1, "txid": "ee2695ab20259e1451eaf66019eb16edaf9ea6684957bc6170bc848aa6e84bbd"}, {"sequence": 4294967294, "scriptSig": {"hex": "47304402202815985fa00331088c598dfdb25f378461956e8eb934dfd98e81907576e65e3002203c59bd9731b1b95bfcf8765e62920f7fc35c5bacb3f218487693015da7cbae110121039fcafb0edcc5d0edf0f5004ed2354eaf3fce9586addf47197610ee35b8f23f32", "asm": "304402202815985fa00331088c598dfdb25f378461956e8eb934dfd98e81907576e65e3002203c59bd9731b1b95bfcf8765e62920f7fc35c5bacb3f218487693015da7cbae11[ALL] 039fcafb0edcc5d0edf0f5004ed2354eaf3fce9586addf47197610ee35b8f23f32"}, "vout": 2, "txid": "b630b69df47a85b70946487e4bbad53191b1eb513645862f1516f1dcc97b05df"}], "txid": "37620f1966c159ca403a58a8cd1b15ec06dacd909a61c79f4617f0a8cc5ee72a", "blocktime": 1537876114, "version": 2, "confirmations": 11459, "time": 1537876114, "locktime": 542999, "vsize": 2437, "size": 2437}