{"hash": "6d68841a66ff7dcd03eab48cdd17e93aeb98b76878232c98bc8ac5bcd4022666", "blockhash": "0000000000000000001f76057863aec43deb6fa401d9628bb513d65a8098bfab", "vout": [{"scriptPubKey": {"reqSigs": 1, "hex": "a914857071526763a5e92ba5a46f833b15f920f5ca4687", "addresses": ["3DraViA9q6eqJfdi6DxGrfNcpS3Fia75KL"], "asm": "OP_HASH160 857071526763a5e92ba5a46f833b15f920f5ca46 OP_EQUAL", "type": "scripthash"}, "value": 0.01171596, "n": 0}, {"scriptPubKey": {"reqSigs": 1, "hex": "76a9149e13987671dc6e2f15c92c294037fe48fb89493388ac", "addresses": ["1FQqEqHBtbxJGctpQnjEqsypA7PbC7FoNy"], "asm": "OP_DUP OP_HASH160 9e13987671dc6e2f15c92c294037fe48fb894933 OP_EQUALVERIFY OP_CHECKSIG", "type": "pubkeyhash"}, "value": 0.00180962, "n": 1}], "hex": "0200000000010206d27d23c841d9846328c1d12419fc39da20f0fc9b3a7f14dc8057dd56705db200000000171600148c6ae0cb7f641d87379261792932f628fc1b274cfeffffffdacf7361a00a6d6f228c33164e06ec18191ec1a71bcdef26afb5db186ba657f60a000000171600146305b0bef4b4c315720b14e11fc34c3e8fcfc4bdfeffffff028ce011000000000017a914857071526763a5e92ba5a46f833b15f920f5ca4687e2c20200000000001976a9149e13987671dc6e2f15c92c294037fe48fb89493388ac0247304402204da5b1ab06d6b25f5a6107b598a40588f70bf6ed6b8c5df4d72be19bc15ba64f022058ef10b72a919a7861257f238482d9e72422966ee94293011cf1886b2bc18f2201210212423f08a710fec7af0e84ac1976f6f7310547a50e2d7eaaa48fda1138802eb802483045022100e271a73dc535b1cf1075e9d3a7f6cf9d82898f5208f083993e1cf25d9469bb380220032f07a9d6052973baef434e1990d4d280e7d3bae80d5c879a47fecbee9b81930121036bb821bae656330c88cbf10bd4e35a970bdad4d5cc513957b19ce7870b157790cc480800", "vin": [{"txinwitness": ["304402204da5b1ab06d6b25f5a6107b598a40588f70bf6ed6b8c5df4d72be19bc15ba64f022058ef10b72a919a7861257f238482d9e72422966ee94293011cf1886b2bc18f2201", "0212423f08a710fec7af0e84ac1976f6f7310547a50e2d7eaaa48fda1138802eb8"], "sequence": 4294967294, "scriptSig": {"hex": "1600148c6ae0cb7f641d87379261792932f628fc1b274c", "asm": "00148c6ae0cb7f641d87379261792932f628fc1b274c"}, "vout": 0, "txid": "b25d7056dd5780dc147f3a9bfcf020da39fc1924d1c1286384d941c8237dd206"}, {"txinwitness": ["3045022100e271a73dc535b1cf1075e9d3a7f6cf9d82898f5208f083993e1cf25d9469bb380220032f07a9d6052973baef434e1990d4d280e7d3bae80d5c879a47fecbee9b819301", "036bb821bae656330c88cbf10bd4e35a970bdad4d5cc513957b19ce7870b157790"], "sequence": 4294967294, "scriptSig": {"hex": "1600146305b0bef4b4c315720b14e11fc34c3e8fcfc4bd", "asm": "00146305b0bef4b4c315720b14e11fc34c3e8fcfc4bd"}, "vout": 10, "txid": "f657a66b18dbb5af26efcd1ba7c11e1918ec064e16338c226f6d0aa06173cfda"}], "txid": "3762a1e3394a9b06b6494ee4350ee597f9116dee770ff48950f03ed5b736764f", "blocktime": 1537873891, "version": 2, "confirmations": 11478, "time": 1537873891, "locktime": 542924, "vsize": 259, "size": 421}