{"hash": "37699af3c6dbb566f582096dddb85e2f01b2cb3f4bb1ca72e090c135faf2365f", "blockhash": "00000000000000000018f53835495a110e01622372bf6ae95dc86f2b0ab887b0", "vout": [{"scriptPubKey": {"reqSigs": 1, "hex": "a91499a45297ee3f8c592b6508742cd9b636c94c21a887", "addresses": ["3FhQAEKAT77Rwcifeh2H5WHFqzHaLWqnVL"], "asm": "OP_HASH160 99a45297ee3f8c592b6508742cd9b636c94c21a8 OP_EQUAL", "type": "scripthash"}, "value": 0.01707439, "n": 0}], "hex": "010000000122ca993ff50c479c6d86b9d3f9b40c14bdcf77e13fd61b734f6efa33dcaf2988000000006b48304502210083571830b11a04355781697f7c7003328b2e05a19cb1906e5a682186427f5e950220189599c13702c1c40ca35fa2d267c906a88865650b0d30a9b6126759a4d84128012103f8f1381ec78996f0908a4be8a10705f6cd440405016aae466607112ec670bfa0fdffffff01af0d1a000000000017a91499a45297ee3f8c592b6508742cd9b636c94c21a8870e490800", "vin": [{"sequence": 4294967293, "scriptSig": {"hex": "48304502210083571830b11a04355781697f7c7003328b2e05a19cb1906e5a682186427f5e950220189599c13702c1c40ca35fa2d267c906a88865650b0d30a9b6126759a4d84128012103f8f1381ec78996f0908a4be8a10705f6cd440405016aae466607112ec670bfa0", "asm": "304502210083571830b11a04355781697f7c7003328b2e05a19cb1906e5a682186427f5e950220189599c13702c1c40ca35fa2d267c906a88865650b0d30a9b6126759a4d84128[ALL] 03f8f1381ec78996f0908a4be8a10705f6cd440405016aae466607112ec670bfa0"}, "vout": 0, "txid": "8829afdc33fa6e4f731bd63fe177cfbd140cb4f9d3b9866d9c470cf53f99ca22"}], "txid": "37699af3c6dbb566f582096dddb85e2f01b2cb3f4bb1ca72e090c135faf2365f", "blocktime": 1537870928, "version": 1, "confirmations": 11514, "time": 1537870928, "locktime": 542990, "vsize": 190, "size": 190}