{"hash": "377028c8bbc55542ea3b67f12014de51d6df24fdb9902d6f5b6ea05fd5c1e264", "blockhash": "0000000000000000001cda96e906b7601b7a6fb1a3b62bca570a9e5d8f4b3de1", "vout": [{"scriptPubKey": {"reqSigs": 1, "hex": "a914a7aedd0d1e77300fb06aa154c9a517b74c08d24587", "addresses": ["3GyeFJmQynJWd8DeACm4cdEnZcckAtrfcN"], "asm": "OP_HASH160 a7aedd0d1e77300fb06aa154c9a517b74c08d245 OP_EQUAL", "type": "scripthash"}, "value": 0.06021802, "n": 0}, {"scriptPubKey": {"reqSigs": 1, "hex": "76a914568f24493711f3a6431a2b5a5da2648241889b6988ac", "addresses": ["18tgbAHK7skoVUbrmPvtYytuA9Mv9DkZ81"], "asm": "OP_DUP OP_HASH160 568f24493711f3a6431a2b5a5da2648241889b69 OP_EQUALVERIFY OP_CHECKSIG", "type": "pubkeyhash"}, "value": 2.73e-05, "n": 1}, {"scriptPubKey": {"type": "nulldata", "hex": "6a146f6d6e69000000000000001f000000298f6dd900", "asm": "OP_RETURN 6f6d6e69000000000000001f000000298f6dd900"}, "value": 0.0, "n": 2}], "hex": "01000000015efe48737e49c6a956cb401b40f1b5358658d19cba5d0befff25f1b010bf47f700000000fdfd000048304502210091a5effde70b9d91442b41cb70ec3a8f31ddd2f904de89c39ff1853bafbf796b0220217b5d09e1749d5af8049fb184b1fc8ac19f6b36a96bb913eb5364b7b18038420147304402200223dfb6cad474d3d05e96914fac55f2ee84dec1a4e117b4fe8c05c12bf428ed0220121d5237e111e69e3454b58b01ca3018bd532e59fea138ed477466c8bd559910014c695221035c037a36e4ec9aa1aefcef02ff742bec63c098c0a7f1c9a1b822b6294afbb7102102a1ccf15bc58870240578a2922b3f0e922260f37098adbd988e15be36943816912102af3be4803e51fef309a51f0332f399026e99dae117dc2d22a71f4eacc1f3f4f153aeffffffff03aae25b000000000017a914a7aedd0d1e77300fb06aa154c9a517b74c08d24587aa0a0000000000001976a914568f24493711f3a6431a2b5a5da2648241889b6988ac0000000000000000166a146f6d6e69000000000000001f000000298f6dd90000000000", "vin": [{"sequence": 4294967295, "scriptSig": {"hex": "0048304502210091a5effde70b9d91442b41cb70ec3a8f31ddd2f904de89c39ff1853bafbf796b0220217b5d09e1749d5af8049fb184b1fc8ac19f6b36a96bb913eb5364b7b18038420147304402200223dfb6cad474d3d05e96914fac55f2ee84dec1a4e117b4fe8c05c12bf428ed0220121d5237e111e69e3454b58b01ca3018bd532e59fea138ed477466c8bd559910014c695221035c037a36e4ec9aa1aefcef02ff742bec63c098c0a7f1c9a1b822b6294afbb7102102a1ccf15bc58870240578a2922b3f0e922260f37098adbd988e15be36943816912102af3be4803e51fef309a51f0332f399026e99dae117dc2d22a71f4eacc1f3f4f153ae", "asm": "0 304502210091a5effde70b9d91442b41cb70ec3a8f31ddd2f904de89c39ff1853bafbf796b0220217b5d09e1749d5af8049fb184b1fc8ac19f6b36a96bb913eb5364b7b1803842[ALL] 304402200223dfb6cad474d3d05e96914fac55f2ee84dec1a4e117b4fe8c05c12bf428ed0220121d5237e111e69e3454b58b01ca3018bd532e59fea138ed477466c8bd559910[ALL] 5221035c037a36e4ec9aa1aefcef02ff742bec63c098c0a7f1c9a1b822b6294afbb7102102a1ccf15bc58870240578a2922b3f0e922260f37098adbd988e15be36943816912102af3be4803e51fef309a51f0332f399026e99dae117dc2d22a71f4eacc1f3f4f153ae"}, "vout": 0, "txid": "f747bf10b0f125ffef0b5dba9cd1588635b5f1401b40cb56a9c6497e7348fe5e"}], "txid": "377028c8bbc55542ea3b67f12014de51d6df24fdb9902d6f5b6ea05fd5c1e264", "blocktime": 1537873282, "version": 1, "confirmations": 11484, "time": 1537873282, "locktime": 0, "vsize": 403, "size": 403}