{"hash": "10ba00bdf51912295ccd9f1848fc7756a34a5fc9eff967f0a6f025665dadfd54", "blockhash": "0000000000000000001f76057863aec43deb6fa401d9628bb513d65a8098bfab", "vout": [{"scriptPubKey": {"reqSigs": 1, "hex": "a9143ca93761fc1f402327b959bed421fbb23e223b2887", "addresses": ["37DmBQnbzrMAFFmZjNAoVUxAF36QMcFGoY"], "asm": "OP_HASH160 3ca93761fc1f402327b959bed421fbb23e223b28 OP_EQUAL", "type": "scripthash"}, "value": 0.19112117, "n": 0}, {"scriptPubKey": {"reqSigs": 1, "hex": "a914c7c0d3bec11352afdc12b3e803ff7584ab3c9a3587", "addresses": ["3KuDPahZgfvew724gKQPgKuSTJj3nHJVBY"], "asm": "OP_HASH160 c7c0d3bec11352afdc12b3e803ff7584ab3c9a35 OP_EQUAL", "type": "scripthash"}, "value": 0.0779, "n": 1}], "hex": "01000000000101e7c05439f8bf93ff77498bb2487d26ac2e61cc8c7d322dcc2e885ef9da20b5da01000000232200200e73c69ad549f1e62b82c12da23888cd25e742e656efe504a7dbe0685e56ad16ffffffff02b5a023010000000017a9143ca93761fc1f402327b959bed421fbb23e223b2887b0dd76000000000017a914c7c0d3bec11352afdc12b3e803ff7584ab3c9a3587040047304402201f49e7ad15f2cf1fe1bc28839c9c2d37d77b42df5c311a840361dda97dad710f02205d54a01266b6b1784901f5419bb84c4b5c73770d229c6f3122ea51eac685ae5f01483045022100a09f2218a4adb7c2549cbaa63099e5f68a746a5d621d65fd300bba060693165702201188cbe03253cd873e10ac7b7164ab34977c314d6d7bee1ae2fb19b8bb35153001695221038717b7303cbf506d3c993e4d405891a7253e0fa831d75754afe517444b5e59ad210285997c5542dae0181685e8084291316abfc6127e7ed850be28a5f6b56ffe60ea210208e381182235147b0c8f765b3c4d01c2f43a65586ec028e0fc18a9875047e34753ae00000000", "vin": [{"txinwitness": ["", "304402201f49e7ad15f2cf1fe1bc28839c9c2d37d77b42df5c311a840361dda97dad710f02205d54a01266b6b1784901f5419bb84c4b5c73770d229c6f3122ea51eac685ae5f01", "3045022100a09f2218a4adb7c2549cbaa63099e5f68a746a5d621d65fd300bba060693165702201188cbe03253cd873e10ac7b7164ab34977c314d6d7bee1ae2fb19b8bb35153001", "5221038717b7303cbf506d3c993e4d405891a7253e0fa831d75754afe517444b5e59ad210285997c5542dae0181685e8084291316abfc6127e7ed850be28a5f6b56ffe60ea210208e381182235147b0c8f765b3c4d01c2f43a65586ec028e0fc18a9875047e34753ae"], "sequence": 4294967295, "scriptSig": {"hex": "2200200e73c69ad549f1e62b82c12da23888cd25e742e656efe504a7dbe0685e56ad16", "asm": "00200e73c69ad549f1e62b82c12da23888cd25e742e656efe504a7dbe0685e56ad16"}, "vout": 1, "txid": "dab520daf95e882ecc2d327d8ccc612eac267d48b28b4977ff93bff83954c0e7"}], "txid": "3774c7580cc51b5661d179c9b87382cfa2966381e4a65b77188ba1b67a5bd4a0", "blocktime": 1537873891, "version": 1, "confirmations": 11478, "time": 1537873891, "locktime": 0, "vsize": 214, "size": 405}