{"hash": "3779444661dd4d47fc383f74783671703c61d5ff5e0cfdfa42bb6ad6930d6728", "blockhash": "00000000000000000004ffacab907a6b429b9a5745fa0b75af4234bf69dd7176", "vout": [{"scriptPubKey": {"type": "nulldata", "hex": "6a146f6d6e69000000000000001f000000013c3d941f", "asm": "OP_RETURN 6f6d6e69000000000000001f000000013c3d941f"}, "value": 0.0, "n": 0}, {"scriptPubKey": {"reqSigs": 1, "hex": "76a914a25dec4d0011064ef106a983c39c7a540699f22088ac", "addresses": ["1FoWyxwPXuj4C6abqwhjDWdz6D4PZgYRjA"], "asm": "OP_DUP OP_HASH160 a25dec4d0011064ef106a983c39c7a540699f220 OP_EQUALVERIFY OP_CHECKSIG", "type": "pubkeyhash"}, "value": 0.01990392, "n": 1}, {"scriptPubKey": {"reqSigs": 1, "hex": "76a91483366c6e8ececedcd5016ec83a3c2605edff7bba88ac", "addresses": ["1CxniYcw2NZJ3eVCgRfMAmbUqPaKPuHLCA"], "asm": "OP_DUP OP_HASH160 83366c6e8ececedcd5016ec83a3c2605edff7bba OP_EQUALVERIFY OP_CHECKSIG", "type": "pubkeyhash"}, "value": 5.46e-06, "n": 2}], "hex": "0100000001451a964f3c85dec4c227f55d8fc1dd49e5d8fd57e0fffb15725738c6031c62d9010000006a47304402207bb99a4c7775799a3a34e66dbc9d30e57e70af32dcc215e6be2ba990800cb20a02207da61202e832d697a3b948cd460462d05d201606feb8da328d700fe628d88047012103da5bac7b36d5aa38f531c6b9601e21bb598a4b6716ebed38b009a55dabde9440feffffff030000000000000000166a146f6d6e69000000000000001f000000013c3d941ff85e1e00000000001976a914a25dec4d0011064ef106a983c39c7a540699f22088ac22020000000000001976a91483366c6e8ececedcd5016ec83a3c2605edff7bba88ac16490800", "vin": [{"sequence": 4294967294, "scriptSig": {"hex": "47304402207bb99a4c7775799a3a34e66dbc9d30e57e70af32dcc215e6be2ba990800cb20a02207da61202e832d697a3b948cd460462d05d201606feb8da328d700fe628d88047012103da5bac7b36d5aa38f531c6b9601e21bb598a4b6716ebed38b009a55dabde9440", "asm": "304402207bb99a4c7775799a3a34e66dbc9d30e57e70af32dcc215e6be2ba990800cb20a02207da61202e832d697a3b948cd460462d05d201606feb8da328d700fe628d88047[ALL] 03da5bac7b36d5aa38f531c6b9601e21bb598a4b6716ebed38b009a55dabde9440"}, "vout": 1, "txid": "d9621c03c638577215fbffe057fdd8e549ddc18f5df527c2c4de853c4f961a45"}], "txid": "3779444661dd4d47fc383f74783671703c61d5ff5e0cfdfa42bb6ad6930d6728", "blocktime": 1537875543, "version": 1, "confirmations": 11464, "time": 1537875543, "locktime": 542998, "vsize": 256, "size": 256}