{"hash": "7b77f6c8a168bf1bebbea30873fb36b96610ba8edb2eb4f174cc16375ae6b856", "blockhash": "000000000000000000022b45ed06c6f4ccd3cf7fb5ba4856ebd2e58215665228", "vout": [{"scriptPubKey": {"reqSigs": 1, "hex": "a91469f3760760ba29e8003e4a314ff75a15fdce352387", "addresses": ["3BMEXf1vf7ALhkb6STKj8g5fhdBRLbv22G"], "asm": "OP_HASH160 69f3760760ba29e8003e4a314ff75a15fdce3523 OP_EQUAL", "type": "scripthash"}, "value": 0.0391, "n": 0}, {"scriptPubKey": {"reqSigs": 1, "hex": "a9143986c93758623cab1ead029048ef5d5c3f9ac8f587", "addresses": ["36wBuaDr7atJc7Hm9iEBDBZWgdq7pQwcT9"], "asm": "OP_HASH160 3986c93758623cab1ead029048ef5d5c3f9ac8f5 OP_EQUAL", "type": "scripthash"}, "value": 0.0027, "n": 1}, {"scriptPubKey": {"reqSigs": 1, "hex": "76a914e491416f1e083889063d4700a282e6792e890cae88ac", "addresses": ["1MqZ5GrzJpq7YxJXgNSbVCMCs5dNWwiHJj"], "asm": "OP_DUP OP_HASH160 e491416f1e083889063d4700a282e6792e890cae OP_EQUALVERIFY OP_CHECKSIG", "type": "pubkeyhash"}, "value": 0.165, "n": 2}, {"scriptPubKey": {"reqSigs": 1, "hex": "a9143b720360468f0e127738155a232bde35971a372787", "addresses": ["377LNdtqQCacV1nUWSCvnkR4sKpmQHnUtS"], "asm": "OP_HASH160 3b720360468f0e127738155a232bde35971a3727 OP_EQUAL", "type": "scripthash"}, "value": 0.0342, "n": 3}, {"scriptPubKey": {"reqSigs": 1, "hex": "a91469f3751d7712a6b9efd2d89462edf2db4422feed87", "addresses": ["3BMEXQdg34qZ8Yr4HjyhfD5zunhgf2bQgh"], "asm": "OP_HASH160 69f3751d7712a6b9efd2d89462edf2db4422feed OP_EQUAL", "type": "scripthash"}, "value": 0.0069, "n": 4}, {"scriptPubKey": {"reqSigs": 1, "hex": "a9145ba436f2af95902e30b1edfa40116a41805d08b987", "addresses": ["3A3a8qJQmGRYJSaio44jzrVi9mctRNVNAC"], "asm": "OP_HASH160 5ba436f2af95902e30b1edfa40116a41805d08b9 OP_EQUAL", "type": "scripthash"}, "value": 200.46634172, "n": 5}, {"scriptPubKey": {"reqSigs": 1, "hex": "a914058d11ada63b80e4d63373d7662903562cb799eb87", "addresses": ["32CNJ9p6HzUGnpbSmqPdUS9L3sJ7trce5Y"], "asm": "OP_HASH160 058d11ada63b80e4d63373d7662903562cb799eb OP_EQUAL", "type": "scripthash"}, "value": 0.001, "n": 6}, {"scriptPubKey": {"reqSigs": 1, "hex": "76a9148d9b86a9a6e1d44255f1c83d8afe7b7173bc05bd88ac", "addresses": ["1DukbBn9BGwHvsmVQzdQDQE5e87QW2Vpwf"], "asm": "OP_DUP OP_HASH160 8d9b86a9a6e1d44255f1c83d8afe7b7173bc05bd OP_EQUALVERIFY OP_CHECKSIG", "type": "pubkeyhash"}, "value": 0.42998952, "n": 7}, {"scriptPubKey": {"reqSigs": 1, "hex": "76a914316af6b88df1098910d03ae324c9f245073b20f988ac", "addresses": ["15WJFNYznYzn2resCwnDwbryMSct76uF5F"], "asm": "OP_DUP OP_HASH160 316af6b88df1098910d03ae324c9f245073b20f9 OP_EQUALVERIFY OP_CHECKSIG", "type": "pubkeyhash"}, "value": 3.0, "n": 8}, {"scriptPubKey": {"reqSigs": 1, "hex": "a9143c5a5fbb5d1d5bd84f9f0d95861d554342c4b5fd87", "addresses": ["37C8jM1r2UAmU8znk4FubRf6LNTBHLckgz"], "asm": "OP_HASH160 3c5a5fbb5d1d5bd84f9f0d95861d554342c4b5fd OP_EQUAL", "type": "scripthash"}, "value": 10.0, "n": 9}, {"scriptPubKey": {"reqSigs": 1, "hex": "a91469f374742d1bf6b71c3670e4bbb863af0ee9b83087", "addresses": ["3BMEXEDuLWwtuqeq3XQ71t3xELsY2BUQin"], "asm": "OP_HASH160 69f374742d1bf6b71c3670e4bbb863af0ee9b830 OP_EQUAL", "type": "scripthash"}, "value": 0.053, "n": 10}, {"scriptPubKey": {"reqSigs": 1, "hex": "76a91464b890583ff8766d1a8421aad61cba2861e3374188ac", "addresses": ["1ABZfuRnCCDgoEspZGqmNG4fYrMwyAiBbg"], "asm": "OP_DUP OP_HASH160 64b890583ff8766d1a8421aad61cba2861e33741 OP_EQUALVERIFY OP_CHECKSIG", "type": "pubkeyhash"}, "value": 10.0, "n": 11}], "hex": "01000000000101c2066594155fe4fec9b4b91d949b53e3ba52499619a2bac894a2b95ca63d989304000000232200204bd6ab61c44e01edd20b504ee60018ee2269c66ce91e1eb6c61debae35b027b1ffffffff0c70a93b000000000017a91469f3760760ba29e8003e4a314ff75a15fdce352387b01e04000000000017a9143986c93758623cab1ead029048ef5d5c3f9ac8f58720c5fb00000000001976a914e491416f1e083889063d4700a282e6792e890cae88ac602f34000000000017a9143b720360468f0e127738155a232bde35971a37278750870a000000000017a91469f3751d7712a6b9efd2d89462edf2db4422feed87bc5cdfaa0400000017a9145ba436f2af95902e30b1edfa40116a41805d08b987a08601000000000017a914058d11ada63b80e4d63373d7662903562cb799eb87a81c9002000000001976a9148d9b86a9a6e1d44255f1c83d8afe7b7173bc05bd88ac00a3e111000000001976a914316af6b88df1098910d03ae324c9f245073b20f988ac00ca9a3b0000000017a9143c5a5fbb5d1d5bd84f9f0d95861d554342c4b5fd8720df50000000000017a91469f374742d1bf6b71c3670e4bbb863af0ee9b8308700ca9a3b000000001976a91464b890583ff8766d1a8421aad61cba2861e3374188ac0400473044022038ded399ca01b477f823af45a389095172c4780a0f3443c410386402e8a97f3d0220782819cb812f26412fb38dd6af4d7f4b26506badfe3efae3ae4b4b745d6d058101463043022055e8c365329bf435f267c7c0af355a1c61f6365be2a8092e7ed8e31fc3401a55021f5266ae8e5fe38156be5f45a24ccd8357f9640139de76c5d3ae755102597db70169522103901fb86dab7324c7a6dd8fcb34b3b39494c2448ab20992e621930cc59eff818e2102b621daba572a2b3eef26f29a633e2180534dfc02fff9ea5fb3269e3b7dd8024421029160c431b099619432df2de5ecff5db64fe85224de0ffe7a455f622ec418ae3753ae00000000", "vin": [{"txinwitness": ["", "3044022038ded399ca01b477f823af45a389095172c4780a0f3443c410386402e8a97f3d0220782819cb812f26412fb38dd6af4d7f4b26506badfe3efae3ae4b4b745d6d058101", "3043022055e8c365329bf435f267c7c0af355a1c61f6365be2a8092e7ed8e31fc3401a55021f5266ae8e5fe38156be5f45a24ccd8357f9640139de76c5d3ae755102597db701", "522103901fb86dab7324c7a6dd8fcb34b3b39494c2448ab20992e621930cc59eff818e2102b621daba572a2b3eef26f29a633e2180534dfc02fff9ea5fb3269e3b7dd8024421029160c431b099619432df2de5ecff5db64fe85224de0ffe7a455f622ec418ae3753ae"], "sequence": 4294967295, "scriptSig": {"hex": "2200204bd6ab61c44e01edd20b504ee60018ee2269c66ce91e1eb6c61debae35b027b1", "asm": "00204bd6ab61c44e01edd20b504ee60018ee2269c66ce91e1eb6c61debae35b027b1"}, "vout": 4, "txid": "93983da65cb9a294c8baa219964952bae3539b941db9b4c9fee45f15946506c2"}], "txid": "37808f31a11f35921ca1676e0a279d84ea692e2b40cab3c89f37a0fc25135ff3", "blocktime": 1537869901, "version": 1, "confirmations": 11523, "time": 1537869901, "locktime": 0, "vsize": 542, "size": 731}