{"hash": "3787ba0c9e727cd36a129da85903fbf74a8f06d38292ec8bba611c166fda25c2", "blockhash": "0000000000000000001f76057863aec43deb6fa401d9628bb513d65a8098bfab", "vout": [{"scriptPubKey": {"reqSigs": 1, "hex": "76a9143130131a3f1fae3b62ba5be83940efb38b87519788ac", "addresses": ["15V5hgbvQUoTcZjuTJGqs4idy5mzowqkY8"], "asm": "OP_DUP OP_HASH160 3130131a3f1fae3b62ba5be83940efb38b875197 OP_EQUALVERIFY OP_CHECKSIG", "type": "pubkeyhash"}, "value": 0.00491672, "n": 0}, {"scriptPubKey": {"reqSigs": 1, "hex": "a9147ba736833008b2edb202745f9b101747449b033e87", "addresses": ["3CxqMJDN7cBMbf4X1t6JSjXsgDTz1YgLfV"], "asm": "OP_HASH160 7ba736833008b2edb202745f9b101747449b033e OP_EQUAL", "type": "scripthash"}, "value": 0.0505, "n": 1}], "hex": "0100000001956495e992170d4b2b661f424e64aa0fadd96804257f11be6cf6b1125f8222c7000000006b483045022100c19991f6fb5f31628dedbdaf9e45c46a4e20efcba6259990b9c14cf78c3cf4780220430c8f993fe3bd45c09cf47e906d598e9ce5974700884c1960af72a00c775a78012103c67af3e10bfddad28523b4eaa689eec8868e0627fa7eaa80a49cc47f7ada004fffffffff0298800700000000001976a9143130131a3f1fae3b62ba5be83940efb38b87519788ac900e4d000000000017a9147ba736833008b2edb202745f9b101747449b033e8700000000", "vin": [{"sequence": 4294967295, "scriptSig": {"hex": "483045022100c19991f6fb5f31628dedbdaf9e45c46a4e20efcba6259990b9c14cf78c3cf4780220430c8f993fe3bd45c09cf47e906d598e9ce5974700884c1960af72a00c775a78012103c67af3e10bfddad28523b4eaa689eec8868e0627fa7eaa80a49cc47f7ada004f", "asm": "3045022100c19991f6fb5f31628dedbdaf9e45c46a4e20efcba6259990b9c14cf78c3cf4780220430c8f993fe3bd45c09cf47e906d598e9ce5974700884c1960af72a00c775a78[ALL] 03c67af3e10bfddad28523b4eaa689eec8868e0627fa7eaa80a49cc47f7ada004f"}, "vout": 0, "txid": "c722825f12b1f66cbe117f250468d9ad0faa644e421f662b4b0d1792e9956495"}], "txid": "3787ba0c9e727cd36a129da85903fbf74a8f06d38292ec8bba611c166fda25c2", "blocktime": 1537873891, "version": 1, "confirmations": 11478, "time": 1537873891, "locktime": 0, "vsize": 224, "size": 224}