{"hash": "378e8be422d825e45060047d9f07608874cf4d17c35cc1c8bfaee261c938217a", "blockhash": "0000000000000000001f0ddff1eddb255c1121bcd4da4f1bc9a0da00cae72433", "vout": [{"scriptPubKey": {"reqSigs": 1, "hex": "a914bd509f37cbc58142a653b0deb67709066b1c313787", "addresses": ["3Jx2DWa6dYsQTc7sDDcYqboXJ93MgtZ6hn"], "asm": "OP_HASH160 bd509f37cbc58142a653b0deb67709066b1c3137 OP_EQUAL", "type": "scripthash"}, "value": 0.0005, "n": 0}, {"scriptPubKey": {"reqSigs": 1, "hex": "76a91404bc81f85769e8beb2dfbd386ba6f82ccb7de61888ac", "addresses": ["1S3XWg8rsAJqqYK8fUEW5Yzx5G4ncHnDf"], "asm": "OP_DUP OP_HASH160 04bc81f85769e8beb2dfbd386ba6f82ccb7de618 OP_EQUALVERIFY OP_CHECKSIG", "type": "pubkeyhash"}, "value": 0.01195, "n": 1}], "hex": "0100000001583c49c429d35f88a8dd43bf3402926344af7b481914d1be245f5054eaf679e45100000092004830450221008f75d2c8cb722a5ce063e0941e2e1e220cc40c0191d826a45dd35d258afeceb102203aee012e1a71b52a7de6bb07501c14d407ef5638d87f2504f59da350d760e39b0147512102b479654800c6ef5129da3acfd460c102d32e6d2554fd460198eda6ce5abab6f92102a61d48b5c8c2219532b66513f8cbec5bdb2c03a4ad10063dac01cea6711bf5f552aeffffffff0250c300000000000017a914bd509f37cbc58142a653b0deb67709066b1c313787f83b1200000000001976a91404bc81f85769e8beb2dfbd386ba6f82ccb7de61888ac00000000", "vin": [{"sequence": 4294967295, "scriptSig": {"hex": "004830450221008f75d2c8cb722a5ce063e0941e2e1e220cc40c0191d826a45dd35d258afeceb102203aee012e1a71b52a7de6bb07501c14d407ef5638d87f2504f59da350d760e39b0147512102b479654800c6ef5129da3acfd460c102d32e6d2554fd460198eda6ce5abab6f92102a61d48b5c8c2219532b66513f8cbec5bdb2c03a4ad10063dac01cea6711bf5f552ae", "asm": "0 30450221008f75d2c8cb722a5ce063e0941e2e1e220cc40c0191d826a45dd35d258afeceb102203aee012e1a71b52a7de6bb07501c14d407ef5638d87f2504f59da350d760e39b[ALL] 512102b479654800c6ef5129da3acfd460c102d32e6d2554fd460198eda6ce5abab6f92102a61d48b5c8c2219532b66513f8cbec5bdb2c03a4ad10063dac01cea6711bf5f552ae"}, "vout": 81, "txid": "e479f6ea54505f24bed11419487baf4463920234bf43dda8885fd329c4493c58"}], "txid": "378e8be422d825e45060047d9f07608874cf4d17c35cc1c8bfaee261c938217a", "blocktime": 1537872018, "version": 1, "confirmations": 11489, "time": 1537872018, "locktime": 0, "vsize": 263, "size": 263}