{"hash": "37949580235dfdede19855945e4ee28b97eec2169fc97eb46186d10eb30be783", "blockhash": "00000000000000000017f5eb5941039fbcee6240d03bc1f2f8e35350df66a1d8", "vout": [{"scriptPubKey": {"reqSigs": 1, "hex": "76a9143f4e68446c12e9b584cfe348a8c71232947e791f88ac", "addresses": ["16mjVvLaaamgSzWStHCxfXDqzxui1KhVCY"], "asm": "OP_DUP OP_HASH160 3f4e68446c12e9b584cfe348a8c71232947e791f OP_EQUALVERIFY OP_CHECKSIG", "type": "pubkeyhash"}, "value": 0.01005573, "n": 0}, {"scriptPubKey": {"reqSigs": 1, "hex": "76a914ca6403bf1afa4d85bd6da313affa8a5cafb7fd5588ac", "addresses": ["1KT9JtXZnXcMmZ9UGZCVZVdDw6qMsqLLkY"], "asm": "OP_DUP OP_HASH160 ca6403bf1afa4d85bd6da313affa8a5cafb7fd55 OP_EQUALVERIFY OP_CHECKSIG", "type": "pubkeyhash"}, "value": 0.0002, "n": 1}], "hex": "0100000002a218a65a3414432ca5848a0d30fed09e6a20a027ec0e9fdf7c18c77b46656af1000000006b483045022100c02972691e8e867abb195940c749c68a32d5af183feca203d2edcc006716224902205488ced9e934951b713023852f21d472e8f78109277b0a9893fd811d75ad292501210286b2bf73a915435d4990aa5f86f6ea36ce7d55e332fb2fd4a7b11f634bccf36ffeffffffa218a65a3414432ca5848a0d30fed09e6a20a027ec0e9fdf7c18c77b46656af1010000006a47304402203145dbcb4b395edcbc341b507a5d9d437bd7a146892213cf1b2d1936d262f0de02203d547a55a49a624dcdbc3bac2e20f360a5c5f691d3d591ef4ac442bc224d48a101210324f35cf245806dacda6ab2b296e2bfa4a1a486dfa30b607f2db7a117be9a03bcfeffffff0205580f00000000001976a9143f4e68446c12e9b584cfe348a8c71232947e791f88ac204e0000000000001976a914ca6403bf1afa4d85bd6da313affa8a5cafb7fd5588ac15490800", "vin": [{"sequence": 4294967294, "scriptSig": {"hex": "483045022100c02972691e8e867abb195940c749c68a32d5af183feca203d2edcc006716224902205488ced9e934951b713023852f21d472e8f78109277b0a9893fd811d75ad292501210286b2bf73a915435d4990aa5f86f6ea36ce7d55e332fb2fd4a7b11f634bccf36f", "asm": "3045022100c02972691e8e867abb195940c749c68a32d5af183feca203d2edcc006716224902205488ced9e934951b713023852f21d472e8f78109277b0a9893fd811d75ad2925[ALL] 0286b2bf73a915435d4990aa5f86f6ea36ce7d55e332fb2fd4a7b11f634bccf36f"}, "vout": 0, "txid": "f16a65467bc7187cdf9f0eec27a0206a9ed0fe300d8a84a52c4314345aa618a2"}, {"sequence": 4294967294, "scriptSig": {"hex": "47304402203145dbcb4b395edcbc341b507a5d9d437bd7a146892213cf1b2d1936d262f0de02203d547a55a49a624dcdbc3bac2e20f360a5c5f691d3d591ef4ac442bc224d48a101210324f35cf245806dacda6ab2b296e2bfa4a1a486dfa30b607f2db7a117be9a03bc", "asm": "304402203145dbcb4b395edcbc341b507a5d9d437bd7a146892213cf1b2d1936d262f0de02203d547a55a49a624dcdbc3bac2e20f360a5c5f691d3d591ef4ac442bc224d48a1[ALL] 0324f35cf245806dacda6ab2b296e2bfa4a1a486dfa30b607f2db7a117be9a03bc"}, "vout": 1, "txid": "f16a65467bc7187cdf9f0eec27a0206a9ed0fe300d8a84a52c4314345aa618a2"}], "txid": "37949580235dfdede19855945e4ee28b97eec2169fc97eb46186d10eb30be783", "blocktime": 1537874412, "version": 1, "confirmations": 11467, "time": 1537874412, "locktime": 542997, "vsize": 373, "size": 373}