{"hash": "3795ad166bc23cbbaa49dbbed35fb6f98e6864cbafc501d31cb4df6fac679c5e", "blockhash": "0000000000000000001cda96e906b7601b7a6fb1a3b62bca570a9e5d8f4b3de1", "vout": [{"scriptPubKey": {"reqSigs": 1, "hex": "a9144163a3fb724be88b8c8e8c0b41a934c5974047ba87", "addresses": ["37emDAE9xXFFLVPZEjDsehJdqcc5CcJin1"], "asm": "OP_HASH160 4163a3fb724be88b8c8e8c0b41a934c5974047ba OP_EQUAL", "type": "scripthash"}, "value": 0.00076787, "n": 0}, {"scriptPubKey": {"reqSigs": 1, "hex": "76a914525d489889a73b56514c9e233de8b09fa537d04e88ac", "addresses": ["18WWABq2N3XCnwnVq79bjGjy5A5BPrMdjR"], "asm": "OP_DUP OP_HASH160 525d489889a73b56514c9e233de8b09fa537d04e OP_EQUALVERIFY OP_CHECKSIG", "type": "pubkeyhash"}, "value": 8.491e-05, "n": 1}], "hex": "010000000211e556b077ac9787e1190d8f229ac7721eff047d4c4b6459d559e3e974ff54de13000000db004830450221008b6118a3359c352b1f01877ab009654787e789199dbcc1da06d5e3b65043c64202203581112c058f654f684e7596e31ea61c74d60c34349ea61ae035a139e3a7743f01483045022100f6b540c8766a2151b67aa605b979db7a42b6bc439493d7b38d7250a1af564092022016650b675e6f26a89ff2d667db2134f2e97180d9c7a5bb45bcf2ec8e725eca2c01475221020ae89e701ef2d4a31ba6026dfd16360832bbf3a8bbd26cda3ffc804356a9d1782102907a54bed8ad74b3f35638c60114ca240a308cb986f3f2f306178869a8880b6152aeffffffffe7c2215c6dae2061b6b06e9ebf77d40a7acae265fd572ef6d6be44573c7ede9b020000006a47304402206593316cb722fb0187eaffa0f262a1e6aa2c79024fb279a0c4011b37eebbbc3602207e5958e21599a9ab379f0f22088cfe432c846fd595c5d30df9c897b8302c1fc901210396f53c895dcd2fe232de4dc01284d55cb0290786c8c9c5b200137af1a7ba4f62ffffffff02f32b01000000000017a9144163a3fb724be88b8c8e8c0b41a934c5974047ba872b210000000000001976a914525d489889a73b56514c9e233de8b09fa537d04e88ac00000000", "vin": [{"sequence": 4294967295, "scriptSig": {"hex": "004830450221008b6118a3359c352b1f01877ab009654787e789199dbcc1da06d5e3b65043c64202203581112c058f654f684e7596e31ea61c74d60c34349ea61ae035a139e3a7743f01483045022100f6b540c8766a2151b67aa605b979db7a42b6bc439493d7b38d7250a1af564092022016650b675e6f26a89ff2d667db2134f2e97180d9c7a5bb45bcf2ec8e725eca2c01475221020ae89e701ef2d4a31ba6026dfd16360832bbf3a8bbd26cda3ffc804356a9d1782102907a54bed8ad74b3f35638c60114ca240a308cb986f3f2f306178869a8880b6152ae", "asm": "0 30450221008b6118a3359c352b1f01877ab009654787e789199dbcc1da06d5e3b65043c64202203581112c058f654f684e7596e31ea61c74d60c34349ea61ae035a139e3a7743f[ALL] 3045022100f6b540c8766a2151b67aa605b979db7a42b6bc439493d7b38d7250a1af564092022016650b675e6f26a89ff2d667db2134f2e97180d9c7a5bb45bcf2ec8e725eca2c[ALL] 5221020ae89e701ef2d4a31ba6026dfd16360832bbf3a8bbd26cda3ffc804356a9d1782102907a54bed8ad74b3f35638c60114ca240a308cb986f3f2f306178869a8880b6152ae"}, "vout": 19, "txid": "de54ff74e9e359d559644b4c7d04ff1e72c79a228f0d19e18797ac77b056e511"}, {"sequence": 4294967295, "scriptSig": {"hex": "47304402206593316cb722fb0187eaffa0f262a1e6aa2c79024fb279a0c4011b37eebbbc3602207e5958e21599a9ab379f0f22088cfe432c846fd595c5d30df9c897b8302c1fc901210396f53c895dcd2fe232de4dc01284d55cb0290786c8c9c5b200137af1a7ba4f62", "asm": "304402206593316cb722fb0187eaffa0f262a1e6aa2c79024fb279a0c4011b37eebbbc3602207e5958e21599a9ab379f0f22088cfe432c846fd595c5d30df9c897b8302c1fc9[ALL] 0396f53c895dcd2fe232de4dc01284d55cb0290786c8c9c5b200137af1a7ba4f62"}, "vout": 2, "txid": "9bde7e3c5744bed6f62e57fd65e2ca7a0ad477bf9e6eb0b66120ae6d5c21c2e7"}], "txid": "3795ad166bc23cbbaa49dbbed35fb6f98e6864cbafc501d31cb4df6fac679c5e", "blocktime": 1537873282, "version": 1, "confirmations": 11484, "time": 1537873282, "locktime": 0, "vsize": 483, "size": 483}