{"hash": "3795416d68720769a23deaa1e881cddc07db3439a3f6a59a0e429c6bf69d6014", "blockhash": "0000000000000000000dcc0f55137456b1a82d3642486a52398922ac4d620174", "vout": [{"scriptPubKey": {"reqSigs": 1, "hex": "a9142b7c9a4d716c1629d6ec9a277066a365c5183e4a87", "addresses": ["35exFLqnYbBTjgq8FBSn72yRnTDpGter1T"], "asm": "OP_HASH160 2b7c9a4d716c1629d6ec9a277066a365c5183e4a OP_EQUAL", "type": "scripthash"}, "value": 0.024935, "n": 0}, {"scriptPubKey": {"reqSigs": 1, "hex": "76a9140e4a1ddf23ebdc582bd5dec069aecdb07f5f265c88ac", "addresses": ["12JZFQPZEr8yRjjByDKCd1JyQmky8hDeVJ"], "asm": "OP_DUP OP_HASH160 0e4a1ddf23ebdc582bd5dec069aecdb07f5f265c OP_EQUALVERIFY OP_CHECKSIG", "type": "pubkeyhash"}, "value": 1.76580641, "n": 1}], "hex": "0200000001235d71635951b8768f611c471b21a94e47f9bd0bf05404148e18e9a77a95d8ad000000006a47304402207a60abb24fd2bca8101bf80603ea09a444d3f2c54b1ed596bf870391f72e57460220723e1facb5032a9783a81b76248ca3a75e0f23a1171787a7ebbb7ad26d9f4a2c012102203013af14c1f425f6ed6f5e47df63daa879b7fa5ed374111bb5057a74336c9cfeffffff023c0c26000000000017a9142b7c9a4d716c1629d6ec9a277066a365c5183e4a872168860a000000001976a9140e4a1ddf23ebdc582bd5dec069aecdb07f5f265c88ac0c490800", "vin": [{"sequence": 4294967294, "scriptSig": {"hex": "47304402207a60abb24fd2bca8101bf80603ea09a444d3f2c54b1ed596bf870391f72e57460220723e1facb5032a9783a81b76248ca3a75e0f23a1171787a7ebbb7ad26d9f4a2c012102203013af14c1f425f6ed6f5e47df63daa879b7fa5ed374111bb5057a74336c9c", "asm": "304402207a60abb24fd2bca8101bf80603ea09a444d3f2c54b1ed596bf870391f72e57460220723e1facb5032a9783a81b76248ca3a75e0f23a1171787a7ebbb7ad26d9f4a2c[ALL] 02203013af14c1f425f6ed6f5e47df63daa879b7fa5ed374111bb5057a74336c9c"}, "vout": 0, "txid": "add8957aa7e9188e140454f00bbdf9474ea9211b471c618f76b8515963715d23"}], "txid": "3795416d68720769a23deaa1e881cddc07db3439a3f6a59a0e429c6bf69d6014", "blocktime": 1537870268, "version": 2, "confirmations": 11518, "time": 1537870268, "locktime": 542988, "vsize": 223, "size": 223}