{"hash": "3797d7cf4b93da79ef21181d34ec77dd2df0113ec5673d75fff03cbc019b16d5", "blockhash": "0000000000000000001cda96e906b7601b7a6fb1a3b62bca570a9e5d8f4b3de1", "vout": [{"scriptPubKey": {"reqSigs": 1, "hex": "76a914d243e6abb9a60fbff430b421d2df4b7d59ec186088ac", "addresses": ["1LAnF8h3qMGx3TSwNUHVneBZUEpwE4gu3D"], "asm": "OP_DUP OP_HASH160 d243e6abb9a60fbff430b421d2df4b7d59ec1860 OP_EQUALVERIFY OP_CHECKSIG", "type": "pubkeyhash"}, "value": 0.00076972, "n": 0}, {"scriptPubKey": {"reqSigs": 1, "hex": "76a9143851f34d13937b673a7d24a1950bb5b21ce94af388ac", "addresses": ["168o1kqNquEJeR9vosUB5fw4eAwcVAgh8P"], "asm": "OP_DUP OP_HASH160 3851f34d13937b673a7d24a1950bb5b21ce94af3 OP_EQUALVERIFY OP_CHECKSIG", "type": "pubkeyhash"}, "value": 5.46e-06, "n": 1}, {"scriptPubKey": {"type": "nulldata", "hex": "6a146f6d6e69000000000000001f0000016ecd284a00", "asm": "OP_RETURN 6f6d6e69000000000000001f0000016ecd284a00"}, "value": 0.0, "n": 2}], "hex": "0100000002709456d5da82f5f4dae426e4fc324e294de3e990bf62a9d595d082629f775985010000006a4730440220716d2fc8e78d9d6246dbea1e8b7a6c45a45332957ec7a33185763d95598b4d4e0220263bd9122e3eb8dfdb597942c1d69c4784cb8e6aec1f8ccd3abc76825bd30ada0121030ef70e5de90066b9b42b62f812187bff478ec675debf51994cfcd33791799d8cffffffff947b5d318ecf8efe8aeee84382b687c98fbc259784fcdb1c02966ed6ba782fd7000000006b483045022100999e493a4c4b587d90de0dfb13a3c6dce0f39b02c143951c2096fa35b3445e9b02200373719789bb623dac13b2a6f80b8f3b1ef7de44d0253f08f84d4723c0bba25301210271977291b74f1f5f5c42157e8aae804664eaaeccfd097918450d37f28fb94d77ffffffff03ac2c0100000000001976a914d243e6abb9a60fbff430b421d2df4b7d59ec186088ac22020000000000001976a9143851f34d13937b673a7d24a1950bb5b21ce94af388ac0000000000000000166a146f6d6e69000000000000001f0000016ecd284a0000000000", "vin": [{"sequence": 4294967295, "scriptSig": {"hex": "4730440220716d2fc8e78d9d6246dbea1e8b7a6c45a45332957ec7a33185763d95598b4d4e0220263bd9122e3eb8dfdb597942c1d69c4784cb8e6aec1f8ccd3abc76825bd30ada0121030ef70e5de90066b9b42b62f812187bff478ec675debf51994cfcd33791799d8c", "asm": "30440220716d2fc8e78d9d6246dbea1e8b7a6c45a45332957ec7a33185763d95598b4d4e0220263bd9122e3eb8dfdb597942c1d69c4784cb8e6aec1f8ccd3abc76825bd30ada[ALL] 030ef70e5de90066b9b42b62f812187bff478ec675debf51994cfcd33791799d8c"}, "vout": 1, "txid": "8559779f6282d095d5a962bf90e9e34d294e32fce426e4daf4f582dad5569470"}, {"sequence": 4294967295, "scriptSig": {"hex": "483045022100999e493a4c4b587d90de0dfb13a3c6dce0f39b02c143951c2096fa35b3445e9b02200373719789bb623dac13b2a6f80b8f3b1ef7de44d0253f08f84d4723c0bba25301210271977291b74f1f5f5c42157e8aae804664eaaeccfd097918450d37f28fb94d77", "asm": "3045022100999e493a4c4b587d90de0dfb13a3c6dce0f39b02c143951c2096fa35b3445e9b02200373719789bb623dac13b2a6f80b8f3b1ef7de44d0253f08f84d4723c0bba253[ALL] 0271977291b74f1f5f5c42157e8aae804664eaaeccfd097918450d37f28fb94d77"}, "vout": 0, "txid": "d72f78bad66e96021cdbfc849725bc8fc987b68243e8ee8afe8ecf8e315d7b94"}], "txid": "3797d7cf4b93da79ef21181d34ec77dd2df0113ec5673d75fff03cbc019b16d5", "blocktime": 1537873282, "version": 1, "confirmations": 11483, "time": 1537873282, "locktime": 0, "vsize": 404, "size": 404}