{"hash": "c7be4aabb04585bbc06581e092bf4acfea17b5fd7dcb89c205185882baafaa7d", "blockhash": "000000000000000000022b45ed06c6f4ccd3cf7fb5ba4856ebd2e58215665228", "vout": [{"scriptPubKey": {"reqSigs": 1, "hex": "a914b44337f216fcdcf0a5895a72e8c4169a68ef293e87", "addresses": ["3J8A5VuG2KUQmCweiwHBDfv67VqWTciCM2"], "asm": "OP_HASH160 b44337f216fcdcf0a5895a72e8c4169a68ef293e OP_EQUAL", "type": "scripthash"}, "value": 0.03118737, "n": 0}], "hex": "010000000001013a0849cec68f67bc072528f326bc1d39c5d4f55da3d1eae8b37ee44dc85dd22c00000000171600140b397abec74fc2c9bb998cdbda526d1b3df3f0f1ffffffff0191962f000000000017a914b44337f216fcdcf0a5895a72e8c4169a68ef293e8702483045022100e15154bbc3f579d255646e2430b1a5b6f8894ecf710c50080f8ed16a4fe99773022015fc5c2ec2ea612a9d637b5056b24a0e2bf84b9a4519976f507d824344b688be01210372717c2d4c87bf8451082619709b81b7aae87a44f84edc49422aedf4c35c741a00000000", "vin": [{"txinwitness": ["3045022100e15154bbc3f579d255646e2430b1a5b6f8894ecf710c50080f8ed16a4fe99773022015fc5c2ec2ea612a9d637b5056b24a0e2bf84b9a4519976f507d824344b688be01", "0372717c2d4c87bf8451082619709b81b7aae87a44f84edc49422aedf4c35c741a"], "sequence": 4294967295, "scriptSig": {"hex": "1600140b397abec74fc2c9bb998cdbda526d1b3df3f0f1", "asm": "00140b397abec74fc2c9bb998cdbda526d1b3df3f0f1"}, "vout": 0, "txid": "2cd25dc84de47eb3e8ead1a35df5d4c5391dbc26f3282507bc678fc6ce49083a"}], "txid": "379784c909910e381532f62b13f116e059623d883093cf6331eadce15fdf4017", "blocktime": 1537869901, "version": 1, "confirmations": 11524, "time": 1537869901, "locktime": 0, "vsize": 134, "size": 216}