{"hash": "a264288e38f3ebe59e8d8c3c2f577e2058fec479327670afbf78572a6de878e5", "blockhash": "0000000000000000000e13cef7c366c0283d82e591d1acd082e914b08063cdf1", "vout": [{"scriptPubKey": {"reqSigs": 1, "hex": "76a914c9c9e228afa05e75487bbf75196c7abf581c2bc888ac", "addresses": ["1KPxffZJDA4vYAptYB3qWNhMXHXigh5kYh"], "asm": "OP_DUP OP_HASH160 c9c9e228afa05e75487bbf75196c7abf581c2bc8 OP_EQUALVERIFY OP_CHECKSIG", "type": "pubkeyhash"}, "value": 0.0063196, "n": 0}, {"scriptPubKey": {"reqSigs": 1, "hex": "a9141ae595e2c35e29c2f12a2d991361b21830839b7f87", "addresses": ["349EXQnfCcCCEb8J18Yed2M3KjZqsu94wn"], "asm": "OP_HASH160 1ae595e2c35e29c2f12a2d991361b21830839b7f OP_EQUAL", "type": "scripthash"}, "value": 0.00999516, "n": 1}], "hex": "0200000000010215fe8a1d3ee915cf51540ea8f114091693c3e8589701a4005a6a4a7f544cb9630100000017160014db425d54d4fd950d1119544ad8f3db0d06436e17feffffff31727975d76b1fb6357f4616208173b77a2749b2ff094aa4ff7bbfd7ea419d580c0000001716001420e96e2d58e4c1793f595822cd18a060d56a3046feffffff0298a40900000000001976a914c9c9e228afa05e75487bbf75196c7abf581c2bc888ac5c400f000000000017a9141ae595e2c35e29c2f12a2d991361b21830839b7f8702473044022052072aa8abc2a47eb95dabb606b43d4712104f4f6d92e21a96b184090253e15e02200fc3643fc390b8ee3c419f08cd8a7f5b56f9cdb00be447438187f42cc1e6030701210348370a0ff1170178547cdf192018c762513fc12bb740f0ce0a09f124d1e208dc02483045022100db00da7a5a63b6e34f528a388153061af792312ce58b5879d46d1fd98b67f0cf022056c317dbace3fa11bbb4bdc337239346c385e376a34812f97d847a588d25da17012103fb8fa6282b4bd1e256a58554908b2cfa01003848731fa26bcfd94e4da0021a9010490800", "vin": [{"txinwitness": ["3044022052072aa8abc2a47eb95dabb606b43d4712104f4f6d92e21a96b184090253e15e02200fc3643fc390b8ee3c419f08cd8a7f5b56f9cdb00be447438187f42cc1e6030701", "0348370a0ff1170178547cdf192018c762513fc12bb740f0ce0a09f124d1e208dc"], "sequence": 4294967294, "scriptSig": {"hex": "160014db425d54d4fd950d1119544ad8f3db0d06436e17", "asm": "0014db425d54d4fd950d1119544ad8f3db0d06436e17"}, "vout": 1, "txid": "63b94c547f4a6a5a00a4019758e8c393160914f1a80e5451cf15e93e1d8afe15"}, {"txinwitness": ["3045022100db00da7a5a63b6e34f528a388153061af792312ce58b5879d46d1fd98b67f0cf022056c317dbace3fa11bbb4bdc337239346c385e376a34812f97d847a588d25da1701", "03fb8fa6282b4bd1e256a58554908b2cfa01003848731fa26bcfd94e4da0021a90"], "sequence": 4294967294, "scriptSig": {"hex": "16001420e96e2d58e4c1793f595822cd18a060d56a3046", "asm": "001420e96e2d58e4c1793f595822cd18a060d56a3046"}, "vout": 12, "txid": "589d41ead7bf7bffa44a09ffb249277ab773812016467f35b61f6bd775797231"}], "txid": "379afaefd93eb961fe85666c0956445dd8ba8064e6ca3292ac76087d201d1c5f", "blocktime": 1537871767, "version": 2, "confirmations": 11495, "time": 1537871767, "locktime": 542992, "vsize": 259, "size": 421}