{"hash": "37a04fac6b33cc0b03f9633539b2b74ccddf8889cd4b042ac3946f5bf5a44749", "blockhash": "0000000000000000001f76057863aec43deb6fa401d9628bb513d65a8098bfab", "vout": [{"scriptPubKey": {"reqSigs": 1, "hex": "76a914534fd4aff28879b9b2f194137747e0e128b7a8e288ac", "addresses": ["18bWifW7a2UwdP1cyiRVZHd7WNZxSuKuGL"], "asm": "OP_DUP OP_HASH160 534fd4aff28879b9b2f194137747e0e128b7a8e2 OP_EQUALVERIFY OP_CHECKSIG", "type": "pubkeyhash"}, "value": 0.00626, "n": 0}, {"scriptPubKey": {"reqSigs": 1, "hex": "76a914a5fa7bdf90ea09218c4e175ce037141f01a85ee888ac", "addresses": ["1G8cZaURyywS3FZeCNLqptkro6ZGgyqMj2"], "asm": "OP_DUP OP_HASH160 a5fa7bdf90ea09218c4e175ce037141f01a85ee8 OP_EQUALVERIFY OP_CHECKSIG", "type": "pubkeyhash"}, "value": 0.00018599, "n": 1}], "hex": "010000000130d76b44edf8777789c2011578bd63456f27f3f5c7563ce8fe1cbb68d9f356f0010000006a47304402201a64232665c5128ec6a258012c479e7b31015081a4b0c00030c66fbb1b5637940220026700dffe63cf7b2183e5f68a59512419d64d684806d9f7c1cef68789693e560121027aa617216ea1873209df892b45746bd20b3a9a22b4c128768d446170fd5eec9effffffff02508d0900000000001976a914534fd4aff28879b9b2f194137747e0e128b7a8e288aca7480000000000001976a914a5fa7bdf90ea09218c4e175ce037141f01a85ee888ac00000000", "vin": [{"sequence": 4294967295, "scriptSig": {"hex": "47304402201a64232665c5128ec6a258012c479e7b31015081a4b0c00030c66fbb1b5637940220026700dffe63cf7b2183e5f68a59512419d64d684806d9f7c1cef68789693e560121027aa617216ea1873209df892b45746bd20b3a9a22b4c128768d446170fd5eec9e", "asm": "304402201a64232665c5128ec6a258012c479e7b31015081a4b0c00030c66fbb1b5637940220026700dffe63cf7b2183e5f68a59512419d64d684806d9f7c1cef68789693e56[ALL] 027aa617216ea1873209df892b45746bd20b3a9a22b4c128768d446170fd5eec9e"}, "vout": 1, "txid": "f056f3d968bb1cfee83c56c7f5f3276f4563bd781501c2897777f8ed446bd730"}], "txid": "37a04fac6b33cc0b03f9633539b2b74ccddf8889cd4b042ac3946f5bf5a44749", "blocktime": 1537873891, "version": 1, "confirmations": 11478, "time": 1537873891, "locktime": 0, "vsize": 225, "size": 225}