{"hash": "3eec3f4d54080bbb3dbc9028098db4a13df795ccc115718c026b02c7cba6400c", "blockhash": "0000000000000000001f0ddff1eddb255c1121bcd4da4f1bc9a0da00cae72433", "vout": [{"scriptPubKey": {"reqSigs": 1, "hex": "76a914f791e16a6fa74248ac54210b2b4e8b1e301ab0cf88ac", "addresses": ["1Pa2fLfb2rSHe7SoJdFTW1wWNMhN4RU5Nm"], "asm": "OP_DUP OP_HASH160 f791e16a6fa74248ac54210b2b4e8b1e301ab0cf OP_EQUALVERIFY OP_CHECKSIG", "type": "pubkeyhash"}, "value": 0.00443901, "n": 0}, {"scriptPubKey": {"reqSigs": 1, "hex": "a9145c80fab36a60fdd28b3ce781d1e457cbabbdab2587", "addresses": ["3A88bq9rjPx8YtWavkZDTiqYcvDaRBjW1W"], "asm": "OP_HASH160 5c80fab36a60fdd28b3ce781d1e457cbabbdab25 OP_EQUAL", "type": "scripthash"}, "value": 5.6126398, "n": 1}], "hex": "0200000000010173a05d7bb251c082c7ec541e05c4e7d54aff7a3570c61e7963bf2a646a474e2200000000171600142ca89e493190f70e3a5abf9c93f14ebff652c9b5feffffff02fdc50600000000001976a914f791e16a6fa74248ac54210b2b4e8b1e301ab0cf88ac6c3574210000000017a9145c80fab36a60fdd28b3ce781d1e457cbabbdab258702473044022039bd48b795076aa61f7d50d4772abcef34fab1f4b9f3c006eafcf612f57658d602204e6580e02d801f363ff2dd953f2929635103047eec66c81a1a027016ec5fef47012102e0456ab4f3a2bb1bff4c0a1da3cf816d722b176ad145135f004022f11816cf2711490800", "vin": [{"txinwitness": ["3044022039bd48b795076aa61f7d50d4772abcef34fab1f4b9f3c006eafcf612f57658d602204e6580e02d801f363ff2dd953f2929635103047eec66c81a1a027016ec5fef4701", "02e0456ab4f3a2bb1bff4c0a1da3cf816d722b176ad145135f004022f11816cf27"], "sequence": 4294967294, "scriptSig": {"hex": "1600142ca89e493190f70e3a5abf9c93f14ebff652c9b5", "asm": "00142ca89e493190f70e3a5abf9c93f14ebff652c9b5"}, "vout": 0, "txid": "224e476a642abf63791ec670357aff4ad5e7c4051e54ecc782c051b27b5da073"}], "txid": "37a44b77a16117d95f2ac7ec698c59610fd26a83c4d876cd289f85e011934fe7", "blocktime": 1537872018, "version": 2, "confirmations": 11489, "time": 1537872018, "locktime": 542993, "vsize": 168, "size": 249}