{"hash": "37aa5a91a39eb7ec784baba12c40240fa941f37057fa610fac5e2b52a919e7c9", "blockhash": "0000000000000000001f76057863aec43deb6fa401d9628bb513d65a8098bfab", "vout": [{"scriptPubKey": {"reqSigs": 1, "hex": "a914a7b09d445201f1cc9bc2d9a650265a3f4846d17a87", "addresses": ["3GygLxWDnaPeqLFXvyzzKhUyUwsfSGwR3A"], "asm": "OP_HASH160 a7b09d445201f1cc9bc2d9a650265a3f4846d17a OP_EQUAL", "type": "scripthash"}, "value": 0.0014392, "n": 0}, {"scriptPubKey": {"reqSigs": 1, "hex": "76a9141765717171e7856e37ba539629fa57b99b3aac6188ac", "addresses": ["138i4ogVrME76knHpFAQLeorVEGgJnT9g1"], "asm": "OP_DUP OP_HASH160 1765717171e7856e37ba539629fa57b99b3aac61 OP_EQUALVERIFY OP_CHECKSIG", "type": "pubkeyhash"}, "value": 0.01389919, "n": 1}], "hex": "0100000001f22ff718a4b03506e4f56edb739c578bf95553ac9cb32d30029e7b4ece62b3d7010000006a4730440220780f2676396acdfc4526375a16d221a2c46ccfdba08ac690419634f4b12d6a3b0220556e009a8f855c091e5dd24866306b104e177e7ab8aea898cd0be1cee11e50ad012102347d8a8d9b1c26383ebe867b19eda6f66b22b2d7c29202daaca1cc6dadebc1c8ffffffff02303202000000000017a914a7b09d445201f1cc9bc2d9a650265a3f4846d17a875f351500000000001976a9141765717171e7856e37ba539629fa57b99b3aac6188ac00000000", "vin": [{"sequence": 4294967295, "scriptSig": {"hex": "4730440220780f2676396acdfc4526375a16d221a2c46ccfdba08ac690419634f4b12d6a3b0220556e009a8f855c091e5dd24866306b104e177e7ab8aea898cd0be1cee11e50ad012102347d8a8d9b1c26383ebe867b19eda6f66b22b2d7c29202daaca1cc6dadebc1c8", "asm": "30440220780f2676396acdfc4526375a16d221a2c46ccfdba08ac690419634f4b12d6a3b0220556e009a8f855c091e5dd24866306b104e177e7ab8aea898cd0be1cee11e50ad[ALL] 02347d8a8d9b1c26383ebe867b19eda6f66b22b2d7c29202daaca1cc6dadebc1c8"}, "vout": 1, "txid": "d7b362ce4e7b9e02302db39cac5355f98b579c73db6ef5e40635b0a418f72ff2"}], "txid": "37aa5a91a39eb7ec784baba12c40240fa941f37057fa610fac5e2b52a919e7c9", "blocktime": 1537873891, "version": 1, "confirmations": 11478, "time": 1537873891, "locktime": 0, "vsize": 223, "size": 223}