{"hash": "37ab02de0658178e3d44529d87810ec985842eb66fd67cae52a64859d81302c7", "blockhash": "0000000000000000001f76057863aec43deb6fa401d9628bb513d65a8098bfab", "vout": [{"scriptPubKey": {"reqSigs": 1, "hex": "76a91478bd7b1dce67097355eee59e3ef908c48261980088ac", "addresses": ["1C1R5PLDhjZJj1bm4Rf1SQM8ZgJ8wKnFmf"], "asm": "OP_DUP OP_HASH160 78bd7b1dce67097355eee59e3ef908c482619800 OP_EQUALVERIFY OP_CHECKSIG", "type": "pubkeyhash"}, "value": 0.00027338, "n": 0}, {"scriptPubKey": {"reqSigs": 1, "hex": "a914d973d600806ee35496092d04868023b7fa1d3a9a87", "addresses": ["3MWoKbNs2zuPNFzjSvASgP8xmm68NpuyFX"], "asm": "OP_HASH160 d973d600806ee35496092d04868023b7fa1d3a9a OP_EQUAL", "type": "scripthash"}, "value": 0.01, "n": 1}], "hex": "01000000012587631082b249cf204d5cb551bc6af19e358117e94508beb2f5831c7af3e75c6b0000006b483045022100d5bb3c83888e3588bcfc397eb02d27df67f36ad0f3af8b4b3fc4a5b158557c3802201910a38c4a3371fdbee26fd656dbd77afe430189d5bb899fdf9a9d8dedf159c501210380b39a5f732f173a5a28e32142593b633e0519ab37d5445acc873e325c4ebfbdffffffff02ca6a0000000000001976a91478bd7b1dce67097355eee59e3ef908c48261980088ac40420f000000000017a914d973d600806ee35496092d04868023b7fa1d3a9a8700000000", "vin": [{"sequence": 4294967295, "scriptSig": {"hex": "483045022100d5bb3c83888e3588bcfc397eb02d27df67f36ad0f3af8b4b3fc4a5b158557c3802201910a38c4a3371fdbee26fd656dbd77afe430189d5bb899fdf9a9d8dedf159c501210380b39a5f732f173a5a28e32142593b633e0519ab37d5445acc873e325c4ebfbd", "asm": "3045022100d5bb3c83888e3588bcfc397eb02d27df67f36ad0f3af8b4b3fc4a5b158557c3802201910a38c4a3371fdbee26fd656dbd77afe430189d5bb899fdf9a9d8dedf159c5[ALL] 0380b39a5f732f173a5a28e32142593b633e0519ab37d5445acc873e325c4ebfbd"}, "vout": 107, "txid": "5ce7f37a1c83f5b2be0845e91781359ef16abc51b55c4d20cf49b28210638725"}], "txid": "37ab02de0658178e3d44529d87810ec985842eb66fd67cae52a64859d81302c7", "blocktime": 1537873891, "version": 1, "confirmations": 11478, "time": 1537873891, "locktime": 0, "vsize": 224, "size": 224}