{"hash": "026f502a4a5d72a2c5c74079136d67133057dbbfa7b830d683c2c24ba159d352", "blockhash": "0000000000000000000baef3f32e3676a92c3b2e5da21b426e4f302fc371ce76", "vout": [{"scriptPubKey": {"reqSigs": 1, "hex": "a91415893aab726c2c540cff7ae3f89f64621bf65b6387", "addresses": ["33etWRU924fyh6FTkF3NiQsYb9dqABwhRp"], "asm": "OP_HASH160 15893aab726c2c540cff7ae3f89f64621bf65b63 OP_EQUAL", "type": "scripthash"}, "value": 0.00825253, "n": 0}, {"scriptPubKey": {"reqSigs": 1, "hex": "a9149cb626ded1b37226ed43aea96f03f8017ab5a2b387", "addresses": ["3FydYboVBaGyjYDgqVpxfNbjcbJRRskQsP"], "asm": "OP_HASH160 9cb626ded1b37226ed43aea96f03f8017ab5a2b3 OP_EQUAL", "type": "scripthash"}, "value": 0.16500499, "n": 1}], "hex": "01000000000101755e71afe48cb733a059a8413588e3cc8dabff5207c2934f609702055553984901000000232200204424e1c9e98c5f2e17061827f94f28251ee51763904fb5d3b6cfda83630b9909ffffffff02a5970c000000000017a91415893aab726c2c540cff7ae3f89f64621bf65b638713c7fb000000000017a9149cb626ded1b37226ed43aea96f03f8017ab5a2b3870400483045022100f5f66c81b41ec261fa2722f57e7a55e930be5840fe35508924f46c2b64fd8819022056c806c84c9740ee128f82243d5d2efb6ab4b66dd4f3e7a673bf4c396d6e805101483045022100b8dec2c97ed09399e04d3c4a33d0a1b74c051fe23651797e7070c7462db53a8b022028aad0bda2b659ef3c977ed4346bea654cd90bb77abc1f3d04301a49585bcd730147522103493a03b75d216b5167b49d8c6894f3d51bf6c70d8cc3ba51090b3f39b180cdda2103f62b1d27158b53be9caeae920614d9c61c0d4e3ab8a2b8afbc8e020933c6e68352ae00000000", "vin": [{"txinwitness": ["", "3045022100f5f66c81b41ec261fa2722f57e7a55e930be5840fe35508924f46c2b64fd8819022056c806c84c9740ee128f82243d5d2efb6ab4b66dd4f3e7a673bf4c396d6e805101", "3045022100b8dec2c97ed09399e04d3c4a33d0a1b74c051fe23651797e7070c7462db53a8b022028aad0bda2b659ef3c977ed4346bea654cd90bb77abc1f3d04301a49585bcd7301", "522103493a03b75d216b5167b49d8c6894f3d51bf6c70d8cc3ba51090b3f39b180cdda2103f62b1d27158b53be9caeae920614d9c61c0d4e3ab8a2b8afbc8e020933c6e68352ae"], "sequence": 4294967295, "scriptSig": {"hex": "2200204424e1c9e98c5f2e17061827f94f28251ee51763904fb5d3b6cfda83630b9909", "asm": "00204424e1c9e98c5f2e17061827f94f28251ee51763904fb5d3b6cfda83630b9909"}, "vout": 1, "txid": "49985355050297604f93c20752ffab8dcce3883541a859a033b78ce4af715e75"}], "txid": "37b13c4e5607397e2869f922f676f38e2478b6c9d9c7288585107f635deced7c", "blocktime": 1537876114, "version": 1, "confirmations": 11462, "time": 1537876114, "locktime": 0, "vsize": 206, "size": 372}