{"hash": "37b37edf7921c8dcfa8b4d0bb65476ec582bbff158c8fd1811cb8571d5764561", "blockhash": "0000000000000000000dcc0f55137456b1a82d3642486a52398922ac4d620174", "vout": [{"scriptPubKey": {"reqSigs": 1, "hex": "76a914e39900aba84c8cec01cf49282cdcb844fe7e663e88ac", "addresses": ["1MkRgMXQ4QEqmjf7JxmwUWrAX7JGv9TALv"], "asm": "OP_DUP OP_HASH160 e39900aba84c8cec01cf49282cdcb844fe7e663e OP_EQUALVERIFY OP_CHECKSIG", "type": "pubkeyhash"}, "value": 0.0122756, "n": 0}], "hex": "0100000001b1337158189fb009498cda548c92173031ac1280b5190b31c74e990d2f67188e000000006a47304402202ac7f306da16cdbcc58a39c4b6682d3f1cb299b2795dd7dbe7fced2ba629b3f6022069eb4b11b28fe119bbb6418e75c744029e27d4bb17ff32d02e514f6a2ce579e9012102cc45f5b140d8a08ac0a67a0275248dc4e9633ab729fa47bdb5f1a0dcf2b4f1c2fdffffff0128bb1200000000001976a914e39900aba84c8cec01cf49282cdcb844fe7e663e88ac0b490800", "vin": [{"sequence": 4294967293, "scriptSig": {"hex": "47304402202ac7f306da16cdbcc58a39c4b6682d3f1cb299b2795dd7dbe7fced2ba629b3f6022069eb4b11b28fe119bbb6418e75c744029e27d4bb17ff32d02e514f6a2ce579e9012102cc45f5b140d8a08ac0a67a0275248dc4e9633ab729fa47bdb5f1a0dcf2b4f1c2", "asm": "304402202ac7f306da16cdbcc58a39c4b6682d3f1cb299b2795dd7dbe7fced2ba629b3f6022069eb4b11b28fe119bbb6418e75c744029e27d4bb17ff32d02e514f6a2ce579e9[ALL] 02cc45f5b140d8a08ac0a67a0275248dc4e9633ab729fa47bdb5f1a0dcf2b4f1c2"}, "vout": 0, "txid": "8e18672f0d994ec7310b19b58012ac313017928c54da8c4909b09f18587133b1"}], "txid": "37b37edf7921c8dcfa8b4d0bb65476ec582bbff158c8fd1811cb8571d5764561", "blocktime": 1537870268, "version": 1, "confirmations": 11519, "time": 1537870268, "locktime": 542987, "vsize": 191, "size": 191}