{"hash": "68d4eb88b43d28d2b16540d9fbd7b3c348fa06af9162960ac2e6adbcf667e0f8", "blockhash": "00000000000000000017f5eb5941039fbcee6240d03bc1f2f8e35350df66a1d8", "vout": [{"scriptPubKey": {"reqSigs": 1, "hex": "76a9148d20f75c06b019fb54d89c828d403e05cba8f6ec88ac", "addresses": ["1DsDmapj9kGAnsZuyBbETdNMdwiqUM1cjP"], "asm": "OP_DUP OP_HASH160 8d20f75c06b019fb54d89c828d403e05cba8f6ec OP_EQUALVERIFY OP_CHECKSIG", "type": "pubkeyhash"}, "value": 0.000324, "n": 0}, {"scriptPubKey": {"reqSigs": 1, "hex": "a9141d2b9c5cc83976164f22186b83d3b891a59e786487", "addresses": ["34MFmEjsVshzGYV73L3chYNNp6VDJBdiPm"], "asm": "OP_HASH160 1d2b9c5cc83976164f22186b83d3b891a59e7864 OP_EQUAL", "type": "scripthash"}, "value": 0.00871436, "n": 1}], "hex": "01000000000101c3e9ce5d8138371101a86e08afe534f15eda06f78d3d6cfbffe5db4e1cc782520000000023220020c379f5aa7b46cf28f6f46a25a8df6f696942dea09a726230e9cbde1155d1c333fdffffff02907e0000000000001976a9148d20f75c06b019fb54d89c828d403e05cba8f6ec88ac0c4c0d000000000017a9141d2b9c5cc83976164f22186b83d3b891a59e786487040047304402201c23ecc492f4ac3a1248798706a95f41f1067e6404a8d4c4b97db4f25e903b8902206ddcc77d273077e43c33a0313cab647ada4acf69228a7b9b2ef6c1bdab49a2b7014730440220390aeff2c7855d332a1c1aaa402986063fc4716935f2ebc1cc39cd00907c14cd02203c77091b82f7829a04723aa707e55e7e605eabb873b4187957649376101dbe7901475221023daad282b82fa7e942a617aaabe35ec6d0069f5e527709ea46346f152ef424dd21030c21bdbdc1f63dbec598d8aba51d4012bb8ee1fc65d1270dd718eb06fc8308a252ae15490800", "vin": [{"txinwitness": ["", "304402201c23ecc492f4ac3a1248798706a95f41f1067e6404a8d4c4b97db4f25e903b8902206ddcc77d273077e43c33a0313cab647ada4acf69228a7b9b2ef6c1bdab49a2b701", "30440220390aeff2c7855d332a1c1aaa402986063fc4716935f2ebc1cc39cd00907c14cd02203c77091b82f7829a04723aa707e55e7e605eabb873b4187957649376101dbe7901", "5221023daad282b82fa7e942a617aaabe35ec6d0069f5e527709ea46346f152ef424dd21030c21bdbdc1f63dbec598d8aba51d4012bb8ee1fc65d1270dd718eb06fc8308a252ae"], "sequence": 4294967293, "scriptSig": {"hex": "220020c379f5aa7b46cf28f6f46a25a8df6f696942dea09a726230e9cbde1155d1c333", "asm": "0020c379f5aa7b46cf28f6f46a25a8df6f696942dea09a726230e9cbde1155d1c333"}, "vout": 0, "txid": "5282c71c4edbe5fffb6c3d8df706da5ef134e5af086ea801113738815dcee9c3"}], "txid": "37b477b9eab22d73987d3bbd96d0f34514249563fac5a8e16f50663ccd0a7775", "blocktime": 1537874412, "version": 1, "confirmations": 11468, "time": 1537874412, "locktime": 542997, "vsize": 207, "size": 372}