{"hash": "37bef5babe96c4fc6a12a59c32063663d63fca580895887abdbb44fdcbc232c3", "blockhash": "00000000000000000024a2167bbff67b0be802c0b01cdd79e6331c2be6459f87", "vout": [{"scriptPubKey": {"reqSigs": 1, "hex": "a91487f9be3daae02eceb9bfffc65148318438cbf2d287", "addresses": ["3E5zKu1u9B6vFRU8z6zmm4FrUpRADv5ahn"], "asm": "OP_HASH160 87f9be3daae02eceb9bfffc65148318438cbf2d2 OP_EQUAL", "type": "scripthash"}, "value": 0.5174948, "n": 0}], "hex": "01000000038977f7609c463500a4aba74a4466fcf095dbe70edb5d2aa3fd18355748abb159000000006a47304402200f8c1e186b88b1ea31608ee4d51cfc118ac44e0ea23a2338ca5e3cf3e7f10c120220341cd2044cc7a20fecf54e40b477d569236c1c4fc4ffb8b80fbf0098e43c970101210258b5b614d957aa53d9589da05557ef06a0ce292e542daafb4dbeca87d6b17e86ffffffff2141c071cf43ca47a2015adb39209670e5766a27c2c000a344dbc49b274c3d82010000006a4730440220201783fda21b55782aef54403e64632813990c32f0517444ef0676a4e1063d4302203f4ff63e25cecacb17981160188237b3c45a7c0154649eceaa47aff4c7a5a24901210258b5b614d957aa53d9589da05557ef06a0ce292e542daafb4dbeca87d6b17e86ffffffffeae757ef08ae9901bbfab8b1cfa17d6431417856753efe14015cd808761fbcb3010000006a473044022032050d1b01a49481506ded626735d0ba8ae860c5e82ed1788d912994b706b6f70220648b014e89e759fc306290e6576ad76c39e8b70d297779d5039cd43764d9074301210258b5b614d957aa53d9589da05557ef06a0ce292e542daafb4dbeca87d6b17e86ffffffff0168a215030000000017a91487f9be3daae02eceb9bfffc65148318438cbf2d28700000000", "vin": [{"sequence": 4294967295, "scriptSig": {"hex": "47304402200f8c1e186b88b1ea31608ee4d51cfc118ac44e0ea23a2338ca5e3cf3e7f10c120220341cd2044cc7a20fecf54e40b477d569236c1c4fc4ffb8b80fbf0098e43c970101210258b5b614d957aa53d9589da05557ef06a0ce292e542daafb4dbeca87d6b17e86", "asm": "304402200f8c1e186b88b1ea31608ee4d51cfc118ac44e0ea23a2338ca5e3cf3e7f10c120220341cd2044cc7a20fecf54e40b477d569236c1c4fc4ffb8b80fbf0098e43c9701[ALL] 0258b5b614d957aa53d9589da05557ef06a0ce292e542daafb4dbeca87d6b17e86"}, "vout": 0, "txid": "59b1ab48573518fda32a5ddb0ee7db95f0fc66444aa7aba40035469c60f77789"}, {"sequence": 4294967295, "scriptSig": {"hex": "4730440220201783fda21b55782aef54403e64632813990c32f0517444ef0676a4e1063d4302203f4ff63e25cecacb17981160188237b3c45a7c0154649eceaa47aff4c7a5a24901210258b5b614d957aa53d9589da05557ef06a0ce292e542daafb4dbeca87d6b17e86", "asm": "30440220201783fda21b55782aef54403e64632813990c32f0517444ef0676a4e1063d4302203f4ff63e25cecacb17981160188237b3c45a7c0154649eceaa47aff4c7a5a249[ALL] 0258b5b614d957aa53d9589da05557ef06a0ce292e542daafb4dbeca87d6b17e86"}, "vout": 1, "txid": "823d4c279bc4db44a300c0c2276a76e570962039db5a01a247ca43cf71c04121"}, {"sequence": 4294967295, "scriptSig": {"hex": "473044022032050d1b01a49481506ded626735d0ba8ae860c5e82ed1788d912994b706b6f70220648b014e89e759fc306290e6576ad76c39e8b70d297779d5039cd43764d9074301210258b5b614d957aa53d9589da05557ef06a0ce292e542daafb4dbeca87d6b17e86", "asm": "3044022032050d1b01a49481506ded626735d0ba8ae860c5e82ed1788d912994b706b6f70220648b014e89e759fc306290e6576ad76c39e8b70d297779d5039cd43764d90743[ALL] 0258b5b614d957aa53d9589da05557ef06a0ce292e542daafb4dbeca87d6b17e86"}, "vout": 1, "txid": "b3bc1f7608d85c0114fe3e7556784131647da1cfb1b8fabb0199ae08ef57e7ea"}], "txid": "37bef5babe96c4fc6a12a59c32063663d63fca580895887abdbb44fdcbc232c3", "blocktime": 1537870564, "version": 1, "confirmations": 11515, "time": 1537870564, "locktime": 0, "vsize": 483, "size": 483}