{"hash": "37c453cf1c94c3d1ed410a118e36cd28fd1e25dc66dbc035e664205044f7f5c4", "blockhash": "00000000000000000004ffacab907a6b429b9a5745fa0b75af4234bf69dd7176", "vout": [{"scriptPubKey": {"reqSigs": 1, "hex": "a914940104d4abcdcc8d02cdf966a558c7515e11ea3b87", "addresses": ["3FBb9j7rUjTKPuoQA5MrMe2ZXoWnzzgoNS"], "asm": "OP_HASH160 940104d4abcdcc8d02cdf966a558c7515e11ea3b OP_EQUAL", "type": "scripthash"}, "value": 0.0029666, "n": 0}, {"scriptPubKey": {"reqSigs": 1, "hex": "76a914545c52b6c878c6badc2c194bf8971195cdc17d6c88ac", "addresses": ["18h4MqSyhznY3VyrRVMwRPsxFPabVFxaUr"], "asm": "OP_DUP OP_HASH160 545c52b6c878c6badc2c194bf8971195cdc17d6c OP_EQUALVERIFY OP_CHECKSIG", "type": "pubkeyhash"}, "value": 0.05497993, "n": 1}], "hex": "01000000017c56045fba3e08ca765eaa07871a58e3c3fe0f031a4d467d3c267a46fba867b3010000006a473044022052b660cb790b99166649ed057b033d8abc4eb35c8dd3b40114d17da251fd2e7502202c719e05192444b7ab8a5861113abb13a939296460b756f31943c2d4bf3725f301210296f93418ed3ad3178d86fdc3c69953d07535154314c8e8a2a1ad9573e8bf8900ffffffff02d48604000000000017a914940104d4abcdcc8d02cdf966a558c7515e11ea3b8789e45300000000001976a914545c52b6c878c6badc2c194bf8971195cdc17d6c88ac00000000", "vin": [{"sequence": 4294967295, "scriptSig": {"hex": "473044022052b660cb790b99166649ed057b033d8abc4eb35c8dd3b40114d17da251fd2e7502202c719e05192444b7ab8a5861113abb13a939296460b756f31943c2d4bf3725f301210296f93418ed3ad3178d86fdc3c69953d07535154314c8e8a2a1ad9573e8bf8900", "asm": "3044022052b660cb790b99166649ed057b033d8abc4eb35c8dd3b40114d17da251fd2e7502202c719e05192444b7ab8a5861113abb13a939296460b756f31943c2d4bf3725f3[ALL] 0296f93418ed3ad3178d86fdc3c69953d07535154314c8e8a2a1ad9573e8bf8900"}, "vout": 1, "txid": "b367a8fb467a263c7d464d1a030ffec3e3581a8707aa5e76ca083eba5f04567c"}], "txid": "37c453cf1c94c3d1ed410a118e36cd28fd1e25dc66dbc035e664205044f7f5c4", "blocktime": 1537875543, "version": 1, "confirmations": 11464, "time": 1537875543, "locktime": 0, "vsize": 223, "size": 223}