{"hash": "37ca82a9ee327c0e88988be9d4017462929675cb351d5a08410527d58a5336a7", "blockhash": "000000000000000000022b45ed06c6f4ccd3cf7fb5ba4856ebd2e58215665228", "vout": [{"scriptPubKey": {"reqSigs": 1, "hex": "a91492837cf564a2478967593c1006b2f37d690dd08587", "addresses": ["3F3i6WHQr9LHeJEYYcHRNJjVPZ7LMJqy8g"], "asm": "OP_HASH160 92837cf564a2478967593c1006b2f37d690dd085 OP_EQUAL", "type": "scripthash"}, "value": 0.00919924, "n": 0}], "hex": "0100000001c0ffe871618f097d6ab6a25e524768eda604752123a3d4d5c350203265c05169ef000000fdfd0000483045022100ea4ffe93d7055d838af576bc24380b52e6e21271462da6edc90464f3b80c6aef022020545b13b73946d4d2c913aa1029bbbe2428b592d9b6cb26b2bb0513eaebdb930147304402200e299a4db4ff6a09772171beed0441af6511099024195b134f4542e5a00beb5302201e43df6b3f248031f3f0616c2c538092fbb2d3247d4b1238ad8ab758589c0fe1014c6952210389acb3518357ea94e9b170ca9df40f87992e2c993733017a32e7d11e76bf851021022421a9a7f361c96ee892d9d9c583e83dd3835d65f5065633b4b712b03e7e80a82102cf20d24e3a3d1ff721597d655fc7d12311f1d9f33c646d61b6b82863b4256cdc53aeffffffff0174090e000000000017a91492837cf564a2478967593c1006b2f37d690dd0858700000000", "vin": [{"sequence": 4294967295, "scriptSig": {"hex": "00483045022100ea4ffe93d7055d838af576bc24380b52e6e21271462da6edc90464f3b80c6aef022020545b13b73946d4d2c913aa1029bbbe2428b592d9b6cb26b2bb0513eaebdb930147304402200e299a4db4ff6a09772171beed0441af6511099024195b134f4542e5a00beb5302201e43df6b3f248031f3f0616c2c538092fbb2d3247d4b1238ad8ab758589c0fe1014c6952210389acb3518357ea94e9b170ca9df40f87992e2c993733017a32e7d11e76bf851021022421a9a7f361c96ee892d9d9c583e83dd3835d65f5065633b4b712b03e7e80a82102cf20d24e3a3d1ff721597d655fc7d12311f1d9f33c646d61b6b82863b4256cdc53ae", "asm": "0 3045022100ea4ffe93d7055d838af576bc24380b52e6e21271462da6edc90464f3b80c6aef022020545b13b73946d4d2c913aa1029bbbe2428b592d9b6cb26b2bb0513eaebdb93[ALL] 304402200e299a4db4ff6a09772171beed0441af6511099024195b134f4542e5a00beb5302201e43df6b3f248031f3f0616c2c538092fbb2d3247d4b1238ad8ab758589c0fe1[ALL] 52210389acb3518357ea94e9b170ca9df40f87992e2c993733017a32e7d11e76bf851021022421a9a7f361c96ee892d9d9c583e83dd3835d65f5065633b4b712b03e7e80a82102cf20d24e3a3d1ff721597d655fc7d12311f1d9f33c646d61b6b82863b4256cdc53ae"}, "vout": 239, "txid": "6951c065322050c3d5d4a323217504a6ed6847525ea2b66a7d098f6171e8ffc0"}], "txid": "37ca82a9ee327c0e88988be9d4017462929675cb351d5a08410527d58a5336a7", "blocktime": 1537869901, "version": 1, "confirmations": 11522, "time": 1537869901, "locktime": 0, "vsize": 338, "size": 338}