{"hash": "44e4593ca840c100206d948051aadfc608106a573b6108a8e66814e88deb5636", "blockhash": "00000000000000000024a2167bbff67b0be802c0b01cdd79e6331c2be6459f87", "vout": [{"scriptPubKey": {"reqSigs": 1, "hex": "0014ef358c693b48347e0626fd86118a731f797eb05e", "addresses": ["bc1qau6cc6fmfq68up3xlkrprznnrauhavz7vn5psg"], "asm": "0 ef358c693b48347e0626fd86118a731f797eb05e", "type": "witness_v0_keyhash"}, "value": 1.05e-05, "n": 0}, {"scriptPubKey": {"reqSigs": 1, "hex": "76a914481d3cd48284d2f6410455c5fad275989e37d3ca88ac", "addresses": ["17aJgH56FFTZtF13FoWXLrkJoDv2CqDKRo"], "asm": "OP_DUP OP_HASH160 481d3cd48284d2f6410455c5fad275989e37d3ca OP_EQUALVERIFY OP_CHECKSIG", "type": "pubkeyhash"}, "value": 0.00059964, "n": 1}], "hex": "010000000001019a97fc289a7fb7f1e77476c0d6f0132eecf5db7dd7abc7b13acb13266f432bf90100000000ffffffff021a04000000000000160014ef358c693b48347e0626fd86118a731f797eb05e3cea0000000000001976a914481d3cd48284d2f6410455c5fad275989e37d3ca88ac02483045022100c641739dfa2d5881d4b893533655e2e9fd9f97993479461a8d63d8b8363bdd5f02206a867de7aa8b29ecdd8dc830049def5ae47c46d57e88b1e1f35e56639fbc3b52012102a919a4ebcac3fa0b96e61237c74fdc5faba3b82ee007dd3dd2c89f98b0db09a900000000", "vin": [{"txinwitness": ["3045022100c641739dfa2d5881d4b893533655e2e9fd9f97993479461a8d63d8b8363bdd5f02206a867de7aa8b29ecdd8dc830049def5ae47c46d57e88b1e1f35e56639fbc3b5201", "02a919a4ebcac3fa0b96e61237c74fdc5faba3b82ee007dd3dd2c89f98b0db09a9"], "sequence": 4294967295, "scriptSig": {"hex": "", "asm": ""}, "vout": 1, "txid": "f92b436f2613cb3ab1c7abd77ddbf5ec2e13f0d6c07674e7f1b77f9a28fc979a"}], "txid": "37cfc79e07015c7b062bab85e9363b6dd54e2d2b07e00319c727b6a7e26053f6", "blocktime": 1537870564, "version": 1, "confirmations": 11515, "time": 1537870564, "locktime": 0, "vsize": 144, "size": 226}