{"hash": "37d1ad5f51d6ba78ae721949ccea1a229a9f74e1f0ad00bfe62754e7bc797a93", "blockhash": "0000000000000000000baef3f32e3676a92c3b2e5da21b426e4f302fc371ce76", "vout": [{"scriptPubKey": {"reqSigs": 1, "hex": "a9147f4a44c6f42d15eb2818e9c848d53bcc59423a9187", "addresses": ["3DJ4iBaeyDmAwuajN92PNrVi5VJXD8pLUx"], "asm": "OP_HASH160 7f4a44c6f42d15eb2818e9c848d53bcc59423a91 OP_EQUAL", "type": "scripthash"}, "value": 0.00100786, "n": 0}], "hex": "0100000001c586e664e71f3eaac9efc484e7126e70f5ef2916d48e20378fd18210b2703dea020000006b483045022100e2da1c71ae9682cb8653086b3be9d2316db2a7ea59ca831727a34f282207406c022000e602160cb9d32746b525ecf9f0b470c9ef5ee4a4526e9f30ee6564425d4633012103d0438ba4def4ca86dbe48eed3fbe4e6e47ac5359db8772d6507faadca240abb9ffffffff01b28901000000000017a9147f4a44c6f42d15eb2818e9c848d53bcc59423a918700000000", "vin": [{"sequence": 4294967295, "scriptSig": {"hex": "483045022100e2da1c71ae9682cb8653086b3be9d2316db2a7ea59ca831727a34f282207406c022000e602160cb9d32746b525ecf9f0b470c9ef5ee4a4526e9f30ee6564425d4633012103d0438ba4def4ca86dbe48eed3fbe4e6e47ac5359db8772d6507faadca240abb9", "asm": "3045022100e2da1c71ae9682cb8653086b3be9d2316db2a7ea59ca831727a34f282207406c022000e602160cb9d32746b525ecf9f0b470c9ef5ee4a4526e9f30ee6564425d4633[ALL] 03d0438ba4def4ca86dbe48eed3fbe4e6e47ac5359db8772d6507faadca240abb9"}, "vout": 2, "txid": "ea3d70b21082d18f37208ed41629eff5706e12e784c4efc9aa3e1fe764e686c5"}], "txid": "37d1ad5f51d6ba78ae721949ccea1a229a9f74e1f0ad00bfe62754e7bc797a93", "blocktime": 1537876114, "version": 1, "confirmations": 11460, "time": 1537876114, "locktime": 0, "vsize": 190, "size": 190}