{"hash": "93c442d4074c5e42e4df9f2d1504eadfbd1141dcf8e5244b5f1e167bb1fde785", "blockhash": "000000000000000000205f8b0775d31398ef75b89a5e8ec8d2c57b4dc0ac4c20", "vout": [{"scriptPubKey": {"reqSigs": 1, "hex": "76a914226735bbf51d04c29442dd2a3ac7025f3395fcce88ac", "addresses": ["148ucfxn6CESiCU6gP44cfDhSEMF88NwU2"], "asm": "OP_DUP OP_HASH160 226735bbf51d04c29442dd2a3ac7025f3395fcce OP_EQUALVERIFY OP_CHECKSIG", "type": "pubkeyhash"}, "value": 0.0994, "n": 0}, {"scriptPubKey": {"reqSigs": 1, "hex": "a9149089851b7b2a8d1b64ebc3f62f409016dd45137087", "addresses": ["3EsFyDmji2AoTCVyaYWjS4u3yZMoaomx4K"], "asm": "OP_HASH160 9089851b7b2a8d1b64ebc3f62f409016dd451370 OP_EQUAL", "type": "scripthash"}, "value": 0.0015, "n": 1}, {"scriptPubKey": {"reqSigs": 1, "hex": "76a914d12af63b2983f5babe55f80ca5c25fea5094829c88ac", "addresses": ["1L4yh8kG2b2TWLjiJFrX1fpsxc8mq4zESi"], "asm": "OP_DUP OP_HASH160 d12af63b2983f5babe55f80ca5c25fea5094829c OP_EQUALVERIFY OP_CHECKSIG", "type": "pubkeyhash"}, "value": 0.0096109, "n": 2}, {"scriptPubKey": {"reqSigs": 1, "hex": "a9141041002f0a63796347d70b4e3cbf9c14dad1106987", "addresses": ["33AxbwbST1kKAmJyEbYxp8N5bta3xYjetM"], "asm": "OP_HASH160 1041002f0a63796347d70b4e3cbf9c14dad11069 OP_EQUAL", "type": "scripthash"}, "value": 3.62616333, "n": 3}, {"scriptPubKey": {"reqSigs": 1, "hex": "0020701a8d401c84fb13e6baf169d59684e17abd9fa216c8cc5b9fc63d622ff8c58d", "addresses": ["bc1qwqdg6squsna38e46795at95yu9atm8azzmyvckulcc7kytlcckxswvvzej"], "asm": "0 701a8d401c84fb13e6baf169d59684e17abd9fa216c8cc5b9fc63d622ff8c58d", "type": "witness_v0_scripthash"}, "value": 0.16867577, "n": 4}], "hex": "010000000001018af420703ac96b09f6dcac4f78c5d8c5fc573c2aca9afa3bb6962355897831340100000000ffffffff0520ac9700000000001976a914226735bbf51d04c29442dd2a3ac7025f3395fcce88acf04902000000000017a9149089851b7b2a8d1b64ebc3f62f409016dd4513708742aa0e00000000001976a914d12af63b2983f5babe55f80ca5c25fea5094829c88ac0d169d150000000017a9141041002f0a63796347d70b4e3cbf9c14dad1106987f960010100000000220020701a8d401c84fb13e6baf169d59684e17abd9fa216c8cc5b9fc63d622ff8c58d0400483045022100cdeba494e2a67a2a2555505f6d7ba0aa39a04a47477fc81d46acc02e1a2eae1c022063c350463afae44ab20922614a0b3b6f331fc648f5f17332af46ea0c59462ba701483045022100abc5881f68474446b3697da607b11bf261313921f21fe13d1938426e669d95cd0220738a40fa1fc8009f25acc846b92685630a6f3d64e0c49c495dad02551984a7ae016952210375e00eb72e29da82b89367947f29ef34afb75e8654f6ea368e0acdfd92976b7c2103a1b26313f430c4b15bb1fdce663207659d8cac749a0e53d70eff01874496feff2103c96d495bfdd5ba4145e3e046fee45e84a8a48ad05bd8dbb395c011a32cf9f88053ae00000000", "vin": [{"txinwitness": ["", "3045022100cdeba494e2a67a2a2555505f6d7ba0aa39a04a47477fc81d46acc02e1a2eae1c022063c350463afae44ab20922614a0b3b6f331fc648f5f17332af46ea0c59462ba701", "3045022100abc5881f68474446b3697da607b11bf261313921f21fe13d1938426e669d95cd0220738a40fa1fc8009f25acc846b92685630a6f3d64e0c49c495dad02551984a7ae01", "52210375e00eb72e29da82b89367947f29ef34afb75e8654f6ea368e0acdfd92976b7c2103a1b26313f430c4b15bb1fdce663207659d8cac749a0e53d70eff01874496feff2103c96d495bfdd5ba4145e3e046fee45e84a8a48ad05bd8dbb395c011a32cf9f88053ae"], "sequence": 4294967295, "scriptSig": {"hex": "", "asm": ""}, "vout": 1, "txid": "34317889552396b63bfa9aca2a3c57fcc5d8c5784facdcf6096bc93a7020f48a"}], "txid": "37d42eb7c73966c51c88c53402f7be84f6e592b6cafeab9f3a08b72882579a91", "blocktime": 1537871175, "version": 1, "confirmations": 11510, "time": 1537871175, "locktime": 0, "vsize": 290, "size": 482}