{"hash": "37d406b9da9d22c612e52f94573b709c13d2d2b7825627162dfd7263419463a3", "blockhash": "00000000000000000017f5eb5941039fbcee6240d03bc1f2f8e35350df66a1d8", "vout": [{"scriptPubKey": {"type": "nulldata", "hex": "6a146f6d6e69000000000000001f000000e8d4a51000", "asm": "OP_RETURN 6f6d6e69000000000000001f000000e8d4a51000"}, "value": 0.0, "n": 0}, {"scriptPubKey": {"reqSigs": 1, "hex": "76a914a25dec4d0011064ef106a983c39c7a540699f22088ac", "addresses": ["1FoWyxwPXuj4C6abqwhjDWdz6D4PZgYRjA"], "asm": "OP_DUP OP_HASH160 a25dec4d0011064ef106a983c39c7a540699f220 OP_EQUALVERIFY OP_CHECKSIG", "type": "pubkeyhash"}, "value": 0.01990376, "n": 1}, {"scriptPubKey": {"reqSigs": 1, "hex": "76a91479f638878e898187b280ebe6013821f7e7d8ee1f88ac", "addresses": ["1C7siwAX4z2o3Ca1LZ82Zp8XkHJZMnFA3A"], "asm": "OP_DUP OP_HASH160 79f638878e898187b280ebe6013821f7e7d8ee1f OP_EQUALVERIFY OP_CHECKSIG", "type": "pubkeyhash"}, "value": 5.46e-06, "n": 2}], "hex": "01000000014134f3cc1d626f15938a48eb0081327d5e4454f8477b055a90333bfbb49f2188020000006b483045022100e4314199f0f8e752382ecd8f82e31ccd377f433f7869c7d510bc8e0bc7aabcce022037dde1ba6060ebba7c1a41a89944cf22252db8536280cb880632edf65d5f6cf6012103da5bac7b36d5aa38f531c6b9601e21bb598a4b6716ebed38b009a55dabde9440feffffff030000000000000000166a146f6d6e69000000000000001f000000e8d4a51000e85e1e00000000001976a914a25dec4d0011064ef106a983c39c7a540699f22088ac22020000000000001976a91479f638878e898187b280ebe6013821f7e7d8ee1f88ac15490800", "vin": [{"sequence": 4294967294, "scriptSig": {"hex": "483045022100e4314199f0f8e752382ecd8f82e31ccd377f433f7869c7d510bc8e0bc7aabcce022037dde1ba6060ebba7c1a41a89944cf22252db8536280cb880632edf65d5f6cf6012103da5bac7b36d5aa38f531c6b9601e21bb598a4b6716ebed38b009a55dabde9440", "asm": "3045022100e4314199f0f8e752382ecd8f82e31ccd377f433f7869c7d510bc8e0bc7aabcce022037dde1ba6060ebba7c1a41a89944cf22252db8536280cb880632edf65d5f6cf6[ALL] 03da5bac7b36d5aa38f531c6b9601e21bb598a4b6716ebed38b009a55dabde9440"}, "vout": 2, "txid": "88219fb4fb3b33905a057b47f854445e7d328100eb488a93156f621dccf33441"}], "txid": "37d406b9da9d22c612e52f94573b709c13d2d2b7825627162dfd7263419463a3", "blocktime": 1537874412, "version": 1, "confirmations": 11467, "time": 1537874412, "locktime": 542997, "vsize": 257, "size": 257}