{"hash": "e41d070c366f933aebae4aa74fd8942a7890e189a6f93de1d0fe817fc60caa85", "blockhash": "00000000000000000004ffacab907a6b429b9a5745fa0b75af4234bf69dd7176", "vout": [{"scriptPubKey": {"reqSigs": 1, "hex": "76a914efe777d4713fde111587aea39c3b429696304bf688ac", "addresses": ["1NsVnXrcaqbdhnC6PsdskSCDFsk2bb4YsX"], "asm": "OP_DUP OP_HASH160 efe777d4713fde111587aea39c3b429696304bf6 OP_EQUALVERIFY OP_CHECKSIG", "type": "pubkeyhash"}, "value": 0.069095, "n": 0}, {"scriptPubKey": {"reqSigs": 1, "hex": "a9144d293bcdc8b44f39bc0c92eb41ca5b5ef1480d4687", "addresses": ["38j1MGxv8M2EzE5QVWzavCTicpwByECqCv"], "asm": "OP_HASH160 4d293bcdc8b44f39bc0c92eb41ca5b5ef1480d46 OP_EQUAL", "type": "scripthash"}, "value": 8.67845329, "n": 1}], "hex": "0200000000010151f329e0be6ea60aa5d6244bf11540dd9e874c18e79406b7579b91e03dfb9fad01000000171600143ff816c3a02e013cd7ea4b2c204674768da8a76dffffffff023c6e6900000000001976a914efe777d4713fde111587aea39c3b429696304bf688acd144ba330000000017a9144d293bcdc8b44f39bc0c92eb41ca5b5ef1480d46870247304402203fdf805b4fc3653b52fcdf5983358da8afcfc5a8d0f8a276d7cb032bf856608502206409f3db8db46cec615a91a5025b19d6e80a85423e926707268d7941b60e135201210306f6e5c3dfeb94059c2c436c189768eff8f584c499fad5bb8e2f7ab65449bdeb00000000", "vin": [{"txinwitness": ["304402203fdf805b4fc3653b52fcdf5983358da8afcfc5a8d0f8a276d7cb032bf856608502206409f3db8db46cec615a91a5025b19d6e80a85423e926707268d7941b60e135201", "0306f6e5c3dfeb94059c2c436c189768eff8f584c499fad5bb8e2f7ab65449bdeb"], "sequence": 4294967295, "scriptSig": {"hex": "1600143ff816c3a02e013cd7ea4b2c204674768da8a76d", "asm": "00143ff816c3a02e013cd7ea4b2c204674768da8a76d"}, "vout": 1, "txid": "ad9ffb3de0919b57b70694e7184c879edd4015f14b24d6a50aa66ebee029f351"}], "txid": "37db55633c7ed361f105c17b90fa2dedb7f2dc598451946a3c55715fd5efb52e", "blocktime": 1537875543, "version": 2, "confirmations": 11464, "time": 1537875543, "locktime": 0, "vsize": 168, "size": 249}