{"hash": "37dfa7d37c67a102cb55f180006f8a0bc2217f420a92a294c5013eedad820589", "blockhash": "00000000000000000017f5eb5941039fbcee6240d03bc1f2f8e35350df66a1d8", "vout": [{"scriptPubKey": {"reqSigs": 1, "hex": "a914bc9b7c6c3d2c9bf9e5b8daf3f9d246a48a70020987", "addresses": ["3JtHDy1D9HrSaCPzCZuT3bb1MmXLGpFweo"], "asm": "OP_HASH160 bc9b7c6c3d2c9bf9e5b8daf3f9d246a48a700209 OP_EQUAL", "type": "scripthash"}, "value": 0.015, "n": 0}, {"scriptPubKey": {"reqSigs": 1, "hex": "a9141c5dd3040190d4c83e251531f846f757cd4cb88387", "addresses": ["34H1EwVHDfHditwqxwgHczknsTwnGcGFfo"], "asm": "OP_HASH160 1c5dd3040190d4c83e251531f846f757cd4cb883 OP_EQUAL", "type": "scripthash"}, "value": 1.858323, "n": 1}], "hex": "02000000012e715075de318a57f55bd448884b062686298dab29c85cbf59a3efe3732e385d00000000fdfe0000483045022100a913adb7653d1076ff79fd59f6e94831f80f332b58f2e6e309d2c701356dce2d02206b96087193f16d45ad21bf3e867dec6200d7a97721386588fe6e948894ebe0bf01483045022100f00eb4dc886a17eebe626f0373c6e27db8889013f14bcecbd3294d70b0c678bf022048fd1af55f1511c7d9af7be845b5cded9bbc4a2c6d356dd38db807744698633b014c695221023a2fc64dba8c07cbdda55b026a2d19b9f4d319aa70799b3663728ecf6fdb8e652103799e66a00af7034f5f4a54dee1849ae39aa1c5fd8fe2131ed6699472a713c0fb210297c2d30fb78574a7cce6bead033eb4e3b7b148d151f8036a59a00520330a5c3853ae000000000260e316000000000017a914bc9b7c6c3d2c9bf9e5b8daf3f9d246a48a700209876c93130b0000000017a9141c5dd3040190d4c83e251531f846f757cd4cb8838700000000", "vin": [{"sequence": 0, "scriptSig": {"hex": "00483045022100a913adb7653d1076ff79fd59f6e94831f80f332b58f2e6e309d2c701356dce2d02206b96087193f16d45ad21bf3e867dec6200d7a97721386588fe6e948894ebe0bf01483045022100f00eb4dc886a17eebe626f0373c6e27db8889013f14bcecbd3294d70b0c678bf022048fd1af55f1511c7d9af7be845b5cded9bbc4a2c6d356dd38db807744698633b014c695221023a2fc64dba8c07cbdda55b026a2d19b9f4d319aa70799b3663728ecf6fdb8e652103799e66a00af7034f5f4a54dee1849ae39aa1c5fd8fe2131ed6699472a713c0fb210297c2d30fb78574a7cce6bead033eb4e3b7b148d151f8036a59a00520330a5c3853ae", "asm": "0 3045022100a913adb7653d1076ff79fd59f6e94831f80f332b58f2e6e309d2c701356dce2d02206b96087193f16d45ad21bf3e867dec6200d7a97721386588fe6e948894ebe0bf[ALL] 3045022100f00eb4dc886a17eebe626f0373c6e27db8889013f14bcecbd3294d70b0c678bf022048fd1af55f1511c7d9af7be845b5cded9bbc4a2c6d356dd38db807744698633b[ALL] 5221023a2fc64dba8c07cbdda55b026a2d19b9f4d319aa70799b3663728ecf6fdb8e652103799e66a00af7034f5f4a54dee1849ae39aa1c5fd8fe2131ed6699472a713c0fb210297c2d30fb78574a7cce6bead033eb4e3b7b148d151f8036a59a00520330a5c3853ae"}, "vout": 0, "txid": "5d382e73e3efa359bf5cc829ab8d298626064b8848d45bf5578a31de7550712e"}], "txid": "37dfa7d37c67a102cb55f180006f8a0bc2217f420a92a294c5013eedad820589", "blocktime": 1537874412, "version": 2, "confirmations": 11467, "time": 1537874412, "locktime": 0, "vsize": 371, "size": 371}