{"hash": "37df01d3798306608bee88d86012e45c87f38e9feb49b2a004493847c5bccfd9", "blockhash": "0000000000000000001cda96e906b7601b7a6fb1a3b62bca570a9e5d8f4b3de1", "vout": [{"scriptPubKey": {"reqSigs": 1, "hex": "76a914272c050f52b4b43d903ae46fb9d347aa3db4cc7888ac", "addresses": ["14a862e9JpbWkmQF38BptjycAsoGp71PFm"], "asm": "OP_DUP OP_HASH160 272c050f52b4b43d903ae46fb9d347aa3db4cc78 OP_EQUALVERIFY OP_CHECKSIG", "type": "pubkeyhash"}, "value": 0.00512445, "n": 0}, {"scriptPubKey": {"reqSigs": 1, "hex": "76a91439bb92c76d79b1a3bf21c27cf01267c0d63a985d88ac", "addresses": ["16GGDm49bK31ufYMvcVwqZfxNj28EpuSmt"], "asm": "OP_DUP OP_HASH160 39bb92c76d79b1a3bf21c27cf01267c0d63a985d OP_EQUALVERIFY OP_CHECKSIG", "type": "pubkeyhash"}, "value": 0.03656294, "n": 1}], "hex": "010000000106b3cb037b349450be59a5199545d4bbbebe7b8d9921b3de7a117391eee2e4a8010000006b4830450221008ac9afc98176969d991856fb415eb3f1cd72106a8a243e971e3b08dc5a9d94920220463f8b32f8015fc3f576f3f6d1559cd71cfa751211e73a81b302512a7df11fe20121029cfcaec80e3aad0cdbf229717e7c89c0015866ed7fb31ac5ece52ad12cdaaf28ffffffff02bdd10700000000001976a914272c050f52b4b43d903ae46fb9d347aa3db4cc7888ac66ca3700000000001976a91439bb92c76d79b1a3bf21c27cf01267c0d63a985d88ac00000000", "vin": [{"sequence": 4294967295, "scriptSig": {"hex": "4830450221008ac9afc98176969d991856fb415eb3f1cd72106a8a243e971e3b08dc5a9d94920220463f8b32f8015fc3f576f3f6d1559cd71cfa751211e73a81b302512a7df11fe20121029cfcaec80e3aad0cdbf229717e7c89c0015866ed7fb31ac5ece52ad12cdaaf28", "asm": "30450221008ac9afc98176969d991856fb415eb3f1cd72106a8a243e971e3b08dc5a9d94920220463f8b32f8015fc3f576f3f6d1559cd71cfa751211e73a81b302512a7df11fe2[ALL] 029cfcaec80e3aad0cdbf229717e7c89c0015866ed7fb31ac5ece52ad12cdaaf28"}, "vout": 1, "txid": "a8e4e2ee9173117adeb321998d7bbebebbd4459519a559be5094347b03cbb306"}], "txid": "37df01d3798306608bee88d86012e45c87f38e9feb49b2a004493847c5bccfd9", "blocktime": 1537873282, "version": 1, "confirmations": 11481, "time": 1537873282, "locktime": 0, "vsize": 226, "size": 226}