{"hash": "37e7a51076506995110008aa667152eb7e2ddf9516a21b5e3cecbaee0557f1a5", "blockhash": "00000000000000000018f53835495a110e01622372bf6ae95dc86f2b0ab887b0", "vout": [{"scriptPubKey": {"reqSigs": 1, "hex": "76a9148d030635ce4144e89182e713390cd486e358d4fa88ac", "addresses": ["1DrbuBHHRjbLaFaVa7ETu75fAYwRUD51dk"], "asm": "OP_DUP OP_HASH160 8d030635ce4144e89182e713390cd486e358d4fa OP_EQUALVERIFY OP_CHECKSIG", "type": "pubkeyhash"}, "value": 0.00312361, "n": 0}, {"scriptPubKey": {"reqSigs": 1, "hex": "76a914271a38b06d469ca41da6a5988bee95829af083bb88ac", "addresses": ["14ZkmNzN19KMMvj4TPjhGD6STKkV1QDiBq"], "asm": "OP_DUP OP_HASH160 271a38b06d469ca41da6a5988bee95829af083bb OP_EQUALVERIFY OP_CHECKSIG", "type": "pubkeyhash"}, "value": 0.00319544, "n": 1}], "hex": "01000000010c5e7e29cbbdfe7f64d5d55765d6c1c8736b025fba9e8b730fd6d45d416983ec000000006b4830450221008ef8c7fcf45b0bac8c2ce95a3bd536966654f58b817999205f25a1ed0c71b73502207c36e4548dbea9defc9f245d7b0c9ae6f41bc9745da44b911e69b5d47d366df001210319bc2d011a124139b5775f50c5d029edeb18a87c2cd11f8147fb6bb0bdfb4e1cffffffff0229c40400000000001976a9148d030635ce4144e89182e713390cd486e358d4fa88ac38e00400000000001976a914271a38b06d469ca41da6a5988bee95829af083bb88ac00000000", "vin": [{"sequence": 4294967295, "scriptSig": {"hex": "4830450221008ef8c7fcf45b0bac8c2ce95a3bd536966654f58b817999205f25a1ed0c71b73502207c36e4548dbea9defc9f245d7b0c9ae6f41bc9745da44b911e69b5d47d366df001210319bc2d011a124139b5775f50c5d029edeb18a87c2cd11f8147fb6bb0bdfb4e1c", "asm": "30450221008ef8c7fcf45b0bac8c2ce95a3bd536966654f58b817999205f25a1ed0c71b73502207c36e4548dbea9defc9f245d7b0c9ae6f41bc9745da44b911e69b5d47d366df0[ALL] 0319bc2d011a124139b5775f50c5d029edeb18a87c2cd11f8147fb6bb0bdfb4e1c"}, "vout": 0, "txid": "ec8369415dd4d60f738b9eba5f026b73c8c1d66557d5d5647ffebdcb297e5e0c"}], "txid": "37e7a51076506995110008aa667152eb7e2ddf9516a21b5e3cecbaee0557f1a5", "blocktime": 1537870928, "version": 1, "confirmations": 11514, "time": 1537870928, "locktime": 0, "vsize": 226, "size": 226}