{"hash": "37e7a56a653f6b820d93bec37eb9d6213537d02aedc2f743b535e22edf472176", "blockhash": "0000000000000000001f76057863aec43deb6fa401d9628bb513d65a8098bfab", "vout": [{"scriptPubKey": {"reqSigs": 1, "hex": "a91469f37721a6df72ca6065979e2ef8d59a7947760187", "addresses": ["3BMEXxNfBQdJpbCE8wRnhoqvBWk813uLyw"], "asm": "OP_HASH160 69f37721a6df72ca6065979e2ef8d59a79477601 OP_EQUAL", "type": "scripthash"}, "value": 0.032964, "n": 0}, {"scriptPubKey": {"reqSigs": 1, "hex": "76a914d5ba2eb2d52670fbe9522748bf642da754eb0d6f88ac", "addresses": ["1LV5y3NkVkmdWnF6xRCEXrAnUkRgge4KSq"], "asm": "OP_DUP OP_HASH160 d5ba2eb2d52670fbe9522748bf642da754eb0d6f OP_EQUALVERIFY OP_CHECKSIG", "type": "pubkeyhash"}, "value": 16.62147474, "n": 1}], "hex": "010000000140045bda46fbd79021b80db7231f4942d78311a5bca8ada50d0d2225fd8cd749010000006b4830450221009af42aa69ff28276adfc11684da2a8bd8a58377fe079cd2e331fefd2cf221182022010b1796c3b025533b6dfcf63b08e7a65adda32a36281a5a635a4cf465dd04467012102c19ebc0e7fe714e24c55adaeebc7dbab2dc9a208b511bd1b6e83db85506d4d19ffffffff02904c32000000000017a91469f37721a6df72ca6065979e2ef8d59a7947760187925b1263000000001976a914d5ba2eb2d52670fbe9522748bf642da754eb0d6f88ac00000000", "vin": [{"sequence": 4294967295, "scriptSig": {"hex": "4830450221009af42aa69ff28276adfc11684da2a8bd8a58377fe079cd2e331fefd2cf221182022010b1796c3b025533b6dfcf63b08e7a65adda32a36281a5a635a4cf465dd04467012102c19ebc0e7fe714e24c55adaeebc7dbab2dc9a208b511bd1b6e83db85506d4d19", "asm": "30450221009af42aa69ff28276adfc11684da2a8bd8a58377fe079cd2e331fefd2cf221182022010b1796c3b025533b6dfcf63b08e7a65adda32a36281a5a635a4cf465dd04467[ALL] 02c19ebc0e7fe714e24c55adaeebc7dbab2dc9a208b511bd1b6e83db85506d4d19"}, "vout": 1, "txid": "49d78cfd25220d0da5ada8bca51183d742491f23b70db82190d7fb46da5b0440"}], "txid": "37e7a56a653f6b820d93bec37eb9d6213537d02aedc2f743b535e22edf472176", "blocktime": 1537873891, "version": 1, "confirmations": 11478, "time": 1537873891, "locktime": 0, "vsize": 224, "size": 224}