{"hash": "37e764f08da4d80031ea1068f11e66cfbc23715aee70baeb5dae5069e2506518", "blockhash": "0000000000000000000e13cef7c366c0283d82e591d1acd082e914b08063cdf1", "vout": [{"scriptPubKey": {"reqSigs": 1, "hex": "76a914f9431e1c4d6ad66d43c26fd7de02f774391c6bf188ac", "addresses": ["1PiyfBRb5KAv5YC95exRPmSgGfHySCvfqQ"], "asm": "OP_DUP OP_HASH160 f9431e1c4d6ad66d43c26fd7de02f774391c6bf1 OP_EQUALVERIFY OP_CHECKSIG", "type": "pubkeyhash"}, "value": 0.39028089, "n": 0}, {"scriptPubKey": {"reqSigs": 1, "hex": "a91480ca51cda09dee0b2817488a619212e94faf194b87", "addresses": ["3DRznWKnADSVGdLjnKKzRnddForzRxanuz"], "asm": "OP_HASH160 80ca51cda09dee0b2817488a619212e94faf194b OP_EQUAL", "type": "scripthash"}, "value": 0.91819466, "n": 1}], "hex": "01000000029438fb0c963aeec4914f364e09a97bbf6cea8834a6087f849d804feb2a845970000000006a47304402205b4320c192084b01182c80191f0ec1b0d9046a07bbf16f69b431b8f09900cb3802201e218b3df063cbaeb3715a4c6078fa2f86b417e815552e9f8b4b3391b189f588012102c1c160212bd29a0b0ae45b981c9dca40b2285cffb38b589af871bf9e19451053ffffffff74c250955787b952928fa1206441e5c2c02e4ed9e19862f061005959e5abb9c3000000006a47304402200e9b23113483a0d92585af856d85063ef338df9296633c2e434aacc4b0e11280022047b8f372ec29afa50ccf829a348c48cc52a505880efc8366c7da555a35d2e601012103f9f725470af6a66ae0411621b5701abc8c9238ce010bd5f70a9c57f52d16f240ffffffff0279855302000000001976a914f9431e1c4d6ad66d43c26fd7de02f774391c6bf188acca0d79050000000017a91480ca51cda09dee0b2817488a619212e94faf194b8700000000", "vin": [{"sequence": 4294967295, "scriptSig": {"hex": "47304402205b4320c192084b01182c80191f0ec1b0d9046a07bbf16f69b431b8f09900cb3802201e218b3df063cbaeb3715a4c6078fa2f86b417e815552e9f8b4b3391b189f588012102c1c160212bd29a0b0ae45b981c9dca40b2285cffb38b589af871bf9e19451053", "asm": "304402205b4320c192084b01182c80191f0ec1b0d9046a07bbf16f69b431b8f09900cb3802201e218b3df063cbaeb3715a4c6078fa2f86b417e815552e9f8b4b3391b189f588[ALL] 02c1c160212bd29a0b0ae45b981c9dca40b2285cffb38b589af871bf9e19451053"}, "vout": 0, "txid": "7059842aeb4f809d847f08a63488ea6cbf7ba9094e364f91c4ee3a960cfb3894"}, {"sequence": 4294967295, "scriptSig": {"hex": "47304402200e9b23113483a0d92585af856d85063ef338df9296633c2e434aacc4b0e11280022047b8f372ec29afa50ccf829a348c48cc52a505880efc8366c7da555a35d2e601012103f9f725470af6a66ae0411621b5701abc8c9238ce010bd5f70a9c57f52d16f240", "asm": "304402200e9b23113483a0d92585af856d85063ef338df9296633c2e434aacc4b0e11280022047b8f372ec29afa50ccf829a348c48cc52a505880efc8366c7da555a35d2e601[ALL] 03f9f725470af6a66ae0411621b5701abc8c9238ce010bd5f70a9c57f52d16f240"}, "vout": 0, "txid": "c3b9abe559590061f06298e1d94e2ec0c2e5416420a18f9252b987579550c274"}], "txid": "37e764f08da4d80031ea1068f11e66cfbc23715aee70baeb5dae5069e2506518", "blocktime": 1537871767, "version": 1, "confirmations": 11491, "time": 1537871767, "locktime": 0, "vsize": 370, "size": 370}