{"hash": "7a6f0fbff7c07e44444f0f42223895ca272c2a90cf3a0dc16360fc29a9f8eb57", "blockhash": "00000000000000000004ffacab907a6b429b9a5745fa0b75af4234bf69dd7176", "vout": [{"scriptPubKey": {"reqSigs": 1, "hex": "a9146483a12f896b88f9b10e2525b5ae51b25fdf522f87", "addresses": ["3ArVBWm8kBLKUi7MoDsZE6tdwMe6dnP6PJ"], "asm": "OP_HASH160 6483a12f896b88f9b10e2525b5ae51b25fdf522f OP_EQUAL", "type": "scripthash"}, "value": 0.003126, "n": 0}, {"scriptPubKey": {"reqSigs": 1, "hex": "a914b0f85278ed1262ba5bd20f16e7a4d8aeedbf0e2d87", "addresses": ["3HpkL2oa5P4ak2RUWesNQxZczdwPekUAcz"], "asm": "OP_HASH160 b0f85278ed1262ba5bd20f16e7a4d8aeedbf0e2d OP_EQUAL", "type": "scripthash"}, "value": 0.00159032, "n": 1}], "hex": "0100000000010129bf56775973c3371b3091a18ea16eb0bebc3a2a560258443c3fa2b66442ce550100000023220020cd458d5b72141a997c72f8c1f12613459d2b858d968d5d706322fce1e139dfaeffffffff0218c504000000000017a9146483a12f896b88f9b10e2525b5ae51b25fdf522f87386d02000000000017a914b0f85278ed1262ba5bd20f16e7a4d8aeedbf0e2d870400483045022100eaaaa95286c91440d63b06308166bec8b23846035e6aeee7046d497370f8a9d9022074540b7b85063fcf0c75941cf8f247ac823f3830ca08327804901a4c7515f90c01483045022100d2640927dfc3de1c0e88bc356e77ac167b1dbc3c114eff0d20f002aa4f62ee11022021ab8eefa46c14f6f2df0782de7aa71b7d3f43239bded96ead913dbb54ed61c80147522103862cd2d7a47e5f462155914ab010417d56a2d83e57b09344b12f693e1350b30f2102fe148860bf4c8d44d75e23a5c2725d8753409e0b3427bbe5a1cc1a3cb2b72ca652ae00000000", "vin": [{"txinwitness": ["", "3045022100eaaaa95286c91440d63b06308166bec8b23846035e6aeee7046d497370f8a9d9022074540b7b85063fcf0c75941cf8f247ac823f3830ca08327804901a4c7515f90c01", "3045022100d2640927dfc3de1c0e88bc356e77ac167b1dbc3c114eff0d20f002aa4f62ee11022021ab8eefa46c14f6f2df0782de7aa71b7d3f43239bded96ead913dbb54ed61c801", "522103862cd2d7a47e5f462155914ab010417d56a2d83e57b09344b12f693e1350b30f2102fe148860bf4c8d44d75e23a5c2725d8753409e0b3427bbe5a1cc1a3cb2b72ca652ae"], "sequence": 4294967295, "scriptSig": {"hex": "220020cd458d5b72141a997c72f8c1f12613459d2b858d968d5d706322fce1e139dfae", "asm": "0020cd458d5b72141a997c72f8c1f12613459d2b858d968d5d706322fce1e139dfae"}, "vout": 1, "txid": "55ce4264b6a23f3c445802562a3abcbeb06ea18ea191301b37c373597756bf29"}], "txid": "37e857d120b393aa5f89936a35ae4bad5fd73a639ae20ff525d70e083353300a", "blocktime": 1537875543, "version": 1, "confirmations": 11464, "time": 1537875543, "locktime": 0, "vsize": 206, "size": 372}