{"hash": "08465472bdb6c4026409ebd988f80927e9f5cefa15c1c256f02eefbf6e7b2132", "blockhash": "00000000000000000024a2167bbff67b0be802c0b01cdd79e6331c2be6459f87", "vout": [{"scriptPubKey": {"reqSigs": 1, "hex": "a914d0e55bb4f744408a303e95e4246dff78c5ce2cc987", "addresses": ["3LjZEXuZxr5NMARyhijCRndtr1bnuJofKn"], "asm": "OP_HASH160 d0e55bb4f744408a303e95e4246dff78c5ce2cc9 OP_EQUAL", "type": "scripthash"}, "value": 0.22311893, "n": 0}, {"scriptPubKey": {"reqSigs": 1, "hex": "76a914e8bd80d20e28c22cb0e9ee17fcd4a8837904357088ac", "addresses": ["1NDcnRFmznAqYYrDoNDuupb2Q6RitANWks"], "asm": "OP_DUP OP_HASH160 e8bd80d20e28c22cb0e9ee17fcd4a88379043570 OP_EQUALVERIFY OP_CHECKSIG", "type": "pubkeyhash"}, "value": 0.11131707, "n": 1}], "hex": "02000000000101b4d515c0b04db0cae840cd484268b806f7304056dc2472c96124370df990bcd40100000017160014334bdac23e7cbd6e3e66d47072889665c0f6f8a2feffffff02d57354010000000017a914d0e55bb4f744408a303e95e4246dff78c5ce2cc9873bdba900000000001976a914e8bd80d20e28c22cb0e9ee17fcd4a8837904357088ac02483045022100cd0a3477b36d92608a39e6d1036c34985082add11a174628539246fbf87acfdc02202948fc9a2e58846bca596bcb5eef96ea2d9800c1a99f44b689a5a8c53e64e14f012102949d1d6f1aa3fa1525ccc920287de2b01de2c939bf063f94bd721d2bf0e88a680d490800", "vin": [{"txinwitness": ["3045022100cd0a3477b36d92608a39e6d1036c34985082add11a174628539246fbf87acfdc02202948fc9a2e58846bca596bcb5eef96ea2d9800c1a99f44b689a5a8c53e64e14f01", "02949d1d6f1aa3fa1525ccc920287de2b01de2c939bf063f94bd721d2bf0e88a68"], "sequence": 4294967294, "scriptSig": {"hex": "160014334bdac23e7cbd6e3e66d47072889665c0f6f8a2", "asm": "0014334bdac23e7cbd6e3e66d47072889665c0f6f8a2"}, "vout": 1, "txid": "d4bc90f90d372461c97224dc564030f706b8684248cd40e8cab04db0c015d5b4"}], "txid": "37e8065ab705dab4dd4ff81890844bbf6c41aac13e9c7c3fcb9f7806c213be18", "blocktime": 1537870564, "version": 2, "confirmations": 11515, "time": 1537870564, "locktime": 542989, "vsize": 168, "size": 250}