{"hash": "82359079be6316ef9cc22e0464fe7284f6159398b152b285226cd9fae83ce7ff", "blockhash": "0000000000000000001f76057863aec43deb6fa401d9628bb513d65a8098bfab", "vout": [{"scriptPubKey": {"reqSigs": 1, "hex": "76a914283dba4cdb11def71352ec7149ae9fd2ea07c6ba88ac", "addresses": ["14fmybJe14D7rweqLYr81hT372CwoQKmeY"], "asm": "OP_DUP OP_HASH160 283dba4cdb11def71352ec7149ae9fd2ea07c6ba OP_EQUALVERIFY OP_CHECKSIG", "type": "pubkeyhash"}, "value": 0.0061258, "n": 0}, {"scriptPubKey": {"reqSigs": 1, "hex": "0014105fa0e22c6a41f14e7e6742e51625d2fb235198", "addresses": ["bc1qzp06pc3vdfqlznn7vapw29396tajx5vcdwaqtn"], "asm": "0 105fa0e22c6a41f14e7e6742e51625d2fb235198", "type": "witness_v0_keyhash"}, "value": 0.00011312, "n": 1}], "hex": "01000000000101a705540affaa78f1b30582b3cd0c8354ea990202067b011f1e195817330291940000000017160014105d49e9940f9df9737f918cd2dab6185d176acaffffffff02e4580900000000001976a914283dba4cdb11def71352ec7149ae9fd2ea07c6ba88ac302c000000000000160014105fa0e22c6a41f14e7e6742e51625d2fb23519802483045022100ff32ee962b54c7e1bd275def868c377cbe31009c082c46afcb694c0b54607af5022019721a223184f5861b7fbe41d595a69b651fd974006ee95575ada35357ff303001210299187bc50fbe5842591fe4e99b07cfea84e8815576a23ed3864e04cc6e82018900000000", "vin": [{"txinwitness": ["3045022100ff32ee962b54c7e1bd275def868c377cbe31009c082c46afcb694c0b54607af5022019721a223184f5861b7fbe41d595a69b651fd974006ee95575ada35357ff303001", "0299187bc50fbe5842591fe4e99b07cfea84e8815576a23ed3864e04cc6e820189"], "sequence": 4294967295, "scriptSig": {"hex": "160014105d49e9940f9df9737f918cd2dab6185d176aca", "asm": "0014105d49e9940f9df9737f918cd2dab6185d176aca"}, "vout": 0, "txid": "949102331758191e1f017b06020299ea54830ccdb38205b3f178aaff0a5405a7"}], "txid": "37ef1859c73c04636a261b0acc5b4f4c33f7702d8c9918722a9c9b319b1e847a", "blocktime": 1537873891, "version": 1, "confirmations": 11478, "time": 1537873891, "locktime": 0, "vsize": 167, "size": 249}