{"hash": "37f58a123d9978e6d8a30213075c97a2246afd95145b303b39d1ef4a0e6d63ac", "blockhash": "00000000000000000018f53835495a110e01622372bf6ae95dc86f2b0ab887b0", "vout": [{"scriptPubKey": {"reqSigs": 1, "hex": "a914c78cf7a74166a80acfae685eb613c5918a0f931887", "addresses": ["3Kt9GJcCNup7BgG8fdNYMJ2tS178a1BAYq"], "asm": "OP_HASH160 c78cf7a74166a80acfae685eb613c5918a0f9318 OP_EQUAL", "type": "scripthash"}, "value": 0.0026061, "n": 0}, {"scriptPubKey": {"reqSigs": 1, "hex": "a914062b5509e2eca513bf4761665571b9bc56aa676187", "addresses": ["32FdtU52duxkwGGSRJ5NuLqYUi2qJfqot1"], "asm": "OP_HASH160 062b5509e2eca513bf4761665571b9bc56aa6761 OP_EQUAL", "type": "scripthash"}, "value": 0.12170222, "n": 1}], "hex": "01000000015369385bc68c3f374deffa79f66cd33204ad276093e327a0dd1df88167080a9801000000da00483045022100e7d606bf3a16ad7946013e048c6030bf9d3ce237e16913fb94593a2dab0e1c2e022078037c5171841626687b2e80efeaab402ec68b0761788225025b10e2dd1b41b60147304402200fb2269d373b154e4a8a6e31122cab716d39f3af5b6613aabc64248f6152c260022071f01a23ad10aac7df0fb81f1db06b79412233f5c4cca7ecca88ad552df30c820147522103abc8a801f5fbb4fd5f6510ba530d534b0efb584b4298cea1e6e2d45cd1000aef2102a29577404fa42d6d12e0d867249d4ee805afecc9e10879ed668da9958dc7b65052aeffffffff0202fa03000000000017a914c78cf7a74166a80acfae685eb613c5918a0f931887eeb3b9000000000017a914062b5509e2eca513bf4761665571b9bc56aa67618700000000", "vin": [{"sequence": 4294967295, "scriptSig": {"hex": "00483045022100e7d606bf3a16ad7946013e048c6030bf9d3ce237e16913fb94593a2dab0e1c2e022078037c5171841626687b2e80efeaab402ec68b0761788225025b10e2dd1b41b60147304402200fb2269d373b154e4a8a6e31122cab716d39f3af5b6613aabc64248f6152c260022071f01a23ad10aac7df0fb81f1db06b79412233f5c4cca7ecca88ad552df30c820147522103abc8a801f5fbb4fd5f6510ba530d534b0efb584b4298cea1e6e2d45cd1000aef2102a29577404fa42d6d12e0d867249d4ee805afecc9e10879ed668da9958dc7b65052ae", "asm": "0 3045022100e7d606bf3a16ad7946013e048c6030bf9d3ce237e16913fb94593a2dab0e1c2e022078037c5171841626687b2e80efeaab402ec68b0761788225025b10e2dd1b41b6[ALL] 304402200fb2269d373b154e4a8a6e31122cab716d39f3af5b6613aabc64248f6152c260022071f01a23ad10aac7df0fb81f1db06b79412233f5c4cca7ecca88ad552df30c82[ALL] 522103abc8a801f5fbb4fd5f6510ba530d534b0efb584b4298cea1e6e2d45cd1000aef2102a29577404fa42d6d12e0d867249d4ee805afecc9e10879ed668da9958dc7b65052ae"}, "vout": 1, "txid": "980a086781f81ddda027e3936027ad0432d36cf679faef4d373f8cc65b386953"}], "txid": "37f58a123d9978e6d8a30213075c97a2246afd95145b303b39d1ef4a0e6d63ac", "blocktime": 1537870928, "version": 1, "confirmations": 11514, "time": 1537870928, "locktime": 0, "vsize": 333, "size": 333}