{"hash": "37f5cd2a367614e26f831efe0006dba75b9e14ce563c0dd846005a4c9cad5f7d", "blockhash": "0000000000000000001cda96e906b7601b7a6fb1a3b62bca570a9e5d8f4b3de1", "vout": [{"scriptPubKey": {"reqSigs": 1, "hex": "76a9143210c95432844959d64b4d4c44c1946c78b919a588ac", "addresses": ["15ZitwAbwnbS1HRKHpt6uSQhcfJPC5X9rr"], "asm": "OP_DUP OP_HASH160 3210c95432844959d64b4d4c44c1946c78b919a5 OP_EQUALVERIFY OP_CHECKSIG", "type": "pubkeyhash"}, "value": 0.0004809, "n": 0}, {"scriptPubKey": {"reqSigs": 1, "hex": "76a9145d2566b55e532136775690e1a22569132652070888ac", "addresses": ["19VWeXFMRvec81nPwQtdCmjbNqCxbEEcc9"], "asm": "OP_DUP OP_HASH160 5d2566b55e532136775690e1a225691326520708 OP_EQUALVERIFY OP_CHECKSIG", "type": "pubkeyhash"}, "value": 0.01, "n": 1}], "hex": "01000000018e15812cd62bac3391e0c060fe05d977de764ad1f232109c359f651f774aeb8f030000006a473044022057fed2227bfff4481f69d5a2d49aa9f5dad08097fe1e1621b437a53d20d3afcb0220405faf3f96e1cd032a20880a613197e206cd52fa40450ab192c2497e92d48712012103bf6e638b79e073e0487c8d5465158bfd8addce59141d0f926395decfc08a7a6dffffffff02dabb0000000000001976a9143210c95432844959d64b4d4c44c1946c78b919a588ac40420f00000000001976a9145d2566b55e532136775690e1a22569132652070888ac00000000", "vin": [{"sequence": 4294967295, "scriptSig": {"hex": "473044022057fed2227bfff4481f69d5a2d49aa9f5dad08097fe1e1621b437a53d20d3afcb0220405faf3f96e1cd032a20880a613197e206cd52fa40450ab192c2497e92d48712012103bf6e638b79e073e0487c8d5465158bfd8addce59141d0f926395decfc08a7a6d", "asm": "3044022057fed2227bfff4481f69d5a2d49aa9f5dad08097fe1e1621b437a53d20d3afcb0220405faf3f96e1cd032a20880a613197e206cd52fa40450ab192c2497e92d48712[ALL] 03bf6e638b79e073e0487c8d5465158bfd8addce59141d0f926395decfc08a7a6d"}, "vout": 3, "txid": "8feb4a771f659f359c1032f2d14a76de77d905fe60c0e09133ac2bd62c81158e"}], "txid": "37f5cd2a367614e26f831efe0006dba75b9e14ce563c0dd846005a4c9cad5f7d", "blocktime": 1537873282, "version": 1, "confirmations": 11481, "time": 1537873282, "locktime": 0, "vsize": 225, "size": 225}