{"hash": "37f55b319a849b79d72f5c399e599b1246ba022e76eb46f9f17f07178daf1026", "blockhash": "0000000000000000001f76057863aec43deb6fa401d9628bb513d65a8098bfab", "vout": [{"scriptPubKey": {"reqSigs": 1, "hex": "a914a37213e339abbb38c916272ff9bde66eb13a02b187", "addresses": ["3GbEj4wKPyFCFkuLvsfe9arkVVJPjrmSGg"], "asm": "OP_HASH160 a37213e339abbb38c916272ff9bde66eb13a02b1 OP_EQUAL", "type": "scripthash"}, "value": 0.00152798, "n": 0}, {"scriptPubKey": {"reqSigs": 1, "hex": "76a91431d3134edb7132d0cc4d6057e57957e8f357888c88ac", "addresses": ["15YSyBGqLqVNMMX2PcewTANLPrwgJDxaBk"], "asm": "OP_DUP OP_HASH160 31d3134edb7132d0cc4d6057e57957e8f357888c OP_EQUALVERIFY OP_CHECKSIG", "type": "pubkeyhash"}, "value": 9.014e-05, "n": 1}], "hex": "0100000002807db8bfda0418f3715975d6a797b2ff2366a057d19575374b67ce435e0401e300000000da00483045022100e0eef5a0fe038fb1e72907881d7a8a34ef5905a882ffe7811b2af10192b3c82002204f8ff0076a3448c259ffc5805736604827fc92e85ecf4bdafa7349d2b6989bd30147304402207e47646d66f94c01e604e7c3c5c20fa7b20542c798b2aefd66180e5c99e9360f02206e9dbaf90f632163fc190cda88ac51c26182acfea8c7e25901665c5d34719bb00147522102907a54bed8ad74b3f35638c60114ca240a308cb986f3f2f306178869a8880b6121033129fd08a865cbdaa4dcba117a0d51a3e88945d7cf014587ed9250c8ca7dea1252aeffffffffbf1173dc1318afb49fdce19d6c4d0f62fdf04096ba8878e46fa26992f1715f61020000006a4730440220751bda60fdcf192d646cb04a88acda15862c8f2b3714193010214e20fae4648402205ebe84e21d99def55ea7abbbe2d22393b193e09ead961c4347922f7fe9ceb90f0121023f1120aaffe1d0a50e64c5753b699b4a1f877d49f816effce1063fd41165a1b6ffffffff02de5402000000000017a914a37213e339abbb38c916272ff9bde66eb13a02b18736230000000000001976a91431d3134edb7132d0cc4d6057e57957e8f357888c88ac00000000", "vin": [{"sequence": 4294967295, "scriptSig": {"hex": "00483045022100e0eef5a0fe038fb1e72907881d7a8a34ef5905a882ffe7811b2af10192b3c82002204f8ff0076a3448c259ffc5805736604827fc92e85ecf4bdafa7349d2b6989bd30147304402207e47646d66f94c01e604e7c3c5c20fa7b20542c798b2aefd66180e5c99e9360f02206e9dbaf90f632163fc190cda88ac51c26182acfea8c7e25901665c5d34719bb00147522102907a54bed8ad74b3f35638c60114ca240a308cb986f3f2f306178869a8880b6121033129fd08a865cbdaa4dcba117a0d51a3e88945d7cf014587ed9250c8ca7dea1252ae", "asm": "0 3045022100e0eef5a0fe038fb1e72907881d7a8a34ef5905a882ffe7811b2af10192b3c82002204f8ff0076a3448c259ffc5805736604827fc92e85ecf4bdafa7349d2b6989bd3[ALL] 304402207e47646d66f94c01e604e7c3c5c20fa7b20542c798b2aefd66180e5c99e9360f02206e9dbaf90f632163fc190cda88ac51c26182acfea8c7e25901665c5d34719bb0[ALL] 522102907a54bed8ad74b3f35638c60114ca240a308cb986f3f2f306178869a8880b6121033129fd08a865cbdaa4dcba117a0d51a3e88945d7cf014587ed9250c8ca7dea1252ae"}, "vout": 0, "txid": "e301045e43ce674b377595d157a06623ffb297a7d6755971f31804dabfb87d80"}, {"sequence": 4294967295, "scriptSig": {"hex": "4730440220751bda60fdcf192d646cb04a88acda15862c8f2b3714193010214e20fae4648402205ebe84e21d99def55ea7abbbe2d22393b193e09ead961c4347922f7fe9ceb90f0121023f1120aaffe1d0a50e64c5753b699b4a1f877d49f816effce1063fd41165a1b6", "asm": "30440220751bda60fdcf192d646cb04a88acda15862c8f2b3714193010214e20fae4648402205ebe84e21d99def55ea7abbbe2d22393b193e09ead961c4347922f7fe9ceb90f[ALL] 023f1120aaffe1d0a50e64c5753b699b4a1f877d49f816effce1063fd41165a1b6"}, "vout": 2, "txid": "615f71f19269a26fe47888ba9640f0fd620f4d6c9de1dc9fb4af1813dc7311bf"}], "txid": "37f55b319a849b79d72f5c399e599b1246ba022e76eb46f9f17f07178daf1026", "blocktime": 1537873891, "version": 1, "confirmations": 11478, "time": 1537873891, "locktime": 0, "vsize": 482, "size": 482}