{"hash": "7dab123c9c94420c3f45755fe12fc95a0797bd78e1987ed956c1b291599c7e47", "blockhash": "00000000000000000018f53835495a110e01622372bf6ae95dc86f2b0ab887b0", "vout": [{"scriptPubKey": {"reqSigs": 1, "hex": "a91404fac178e2e8c5261e5f9b606a16d4c68cf16ece87", "addresses": ["329M28GQU9wMU67Yx6xdw8XxMeYDcznzft"], "asm": "OP_HASH160 04fac178e2e8c5261e5f9b606a16d4c68cf16ece OP_EQUAL", "type": "scripthash"}, "value": 0.00999682, "n": 0}, {"scriptPubKey": {"reqSigs": 1, "hex": "76a914e2e935237afbbfe00bd99aaa81246024105058c788ac", "addresses": ["1Mgo5uCE8xnPyzaSukNvFp2KYQNQKmaVky"], "asm": "OP_DUP OP_HASH160 e2e935237afbbfe00bd99aaa81246024105058c7 OP_EQUALVERIFY OP_CHECKSIG", "type": "pubkeyhash"}, "value": 0.0028896, "n": 1}], "hex": "020000000001020e0454b0caf55e5bbc990f3dc4a780643e46f2c2d51e1a108cd950c26ae5c67800000000171600144d825c62cc6bcc7c4ab8464e6677b4fff5a47fbcfeffffff372a49aaf8d81a6a2bc18503a4f7a2ca6ede743a98a77d086e91f1635ccf3f150300000017160014a0fd685231a395cdef7047f3d1134b0fefccdfbafeffffff0202410f000000000017a91404fac178e2e8c5261e5f9b606a16d4c68cf16ece87c0680400000000001976a914e2e935237afbbfe00bd99aaa81246024105058c788ac0247304402204afc0a0cdc52bb4eb5617fd57d175d38a20d7aa4db68e91acef49b1d4e35dfe102201ff10f7e095c5205652692f9cb4cc380039b791e2cdc5e4119d9833e5004a9fd0121030716dfac2590a34b0184e47dae3c4dc535ebfac3a659f395a7f45d6336901c5b02483045022100f3255f746a22abc5348596d5483cbb8c97c57b2c1543f19bfc8bc0280b143e1802202a977f8035ba3912239a8ff843a2cfe6e690782f4fc0c261a78f946af03dfb8a01210270f4f708be5d27eb3321f64169bd7293d83a314e6bb586689e161c8b03080c4af2480800", "vin": [{"txinwitness": ["304402204afc0a0cdc52bb4eb5617fd57d175d38a20d7aa4db68e91acef49b1d4e35dfe102201ff10f7e095c5205652692f9cb4cc380039b791e2cdc5e4119d9833e5004a9fd01", "030716dfac2590a34b0184e47dae3c4dc535ebfac3a659f395a7f45d6336901c5b"], "sequence": 4294967294, "scriptSig": {"hex": "1600144d825c62cc6bcc7c4ab8464e6677b4fff5a47fbc", "asm": "00144d825c62cc6bcc7c4ab8464e6677b4fff5a47fbc"}, "vout": 0, "txid": "78c6e56ac250d98c101a1ed5c2f2463e6480a7c43d0f99bc5b5ef5cab054040e"}, {"txinwitness": ["3045022100f3255f746a22abc5348596d5483cbb8c97c57b2c1543f19bfc8bc0280b143e1802202a977f8035ba3912239a8ff843a2cfe6e690782f4fc0c261a78f946af03dfb8a01", "0270f4f708be5d27eb3321f64169bd7293d83a314e6bb586689e161c8b03080c4a"], "sequence": 4294967294, "scriptSig": {"hex": "160014a0fd685231a395cdef7047f3d1134b0fefccdfba", "asm": "0014a0fd685231a395cdef7047f3d1134b0fefccdfba"}, "vout": 3, "txid": "153fcf5c63f1916e087da7983a74de6ecaa2f7a40385c12b6a1ad8f8aa492a37"}], "txid": "37f6c1ed3acaa976095f9402b5d9bd4f14196addae439d1501763adecc7ab8bf", "blocktime": 1537870928, "version": 2, "confirmations": 11514, "time": 1537870928, "locktime": 542962, "vsize": 259, "size": 421}