{"hash": "37f8ebf722849dc5dc50cb0652ab2ec67509520d35236b76db42f04863ac7b73", "blockhash": "00000000000000000018f53835495a110e01622372bf6ae95dc86f2b0ab887b0", "vout": [{"scriptPubKey": {"reqSigs": 1, "hex": "76a91467234d3ce5147543ff1ee9f56f7e1ec1c75e190688ac", "addresses": ["1AQLtZjZFiBvBRCC5neKn2wLWhMidwtH7c"], "asm": "OP_DUP OP_HASH160 67234d3ce5147543ff1ee9f56f7e1ec1c75e1906 OP_EQUALVERIFY OP_CHECKSIG", "type": "pubkeyhash"}, "value": 0.00254763, "n": 0}, {"scriptPubKey": {"reqSigs": 1, "hex": "76a9144841703c01e6e4f52e57e9c359485a03f5ed66d788ac", "addresses": ["17b43Z41XktNMtYaQAeZcj4aAsT5d7tiVT"], "asm": "OP_DUP OP_HASH160 4841703c01e6e4f52e57e9c359485a03f5ed66d7 OP_EQUALVERIFY OP_CHECKSIG", "type": "pubkeyhash"}, "value": 0.12750457, "n": 1}], "hex": "010000000111970cceb5cc8d71fbab5128137e9bd9fd4efc0a9b7fe08a7071bcbd36967fcb010000006a473044022057365200beee30ca4b9a3f5bbde2313bd4383509a48e8608b6abed130c16700202202b957dce663aabfc7c7ace2a21111b7c678f5027332e79b54877fa5fa24084a40121039664361c175a5b0e78ff8fc03a25c02c17ab04e5add7f83534967d3bc12c7eafffffffff022be30300000000001976a91467234d3ce5147543ff1ee9f56f7e1ec1c75e190688ac798ec200000000001976a9144841703c01e6e4f52e57e9c359485a03f5ed66d788ac00000000", "vin": [{"sequence": 4294967295, "scriptSig": {"hex": "473044022057365200beee30ca4b9a3f5bbde2313bd4383509a48e8608b6abed130c16700202202b957dce663aabfc7c7ace2a21111b7c678f5027332e79b54877fa5fa24084a40121039664361c175a5b0e78ff8fc03a25c02c17ab04e5add7f83534967d3bc12c7eaf", "asm": "3044022057365200beee30ca4b9a3f5bbde2313bd4383509a48e8608b6abed130c16700202202b957dce663aabfc7c7ace2a21111b7c678f5027332e79b54877fa5fa24084a4[ALL] 039664361c175a5b0e78ff8fc03a25c02c17ab04e5add7f83534967d3bc12c7eaf"}, "vout": 1, "txid": "cb7f9636bdbc71708ae07f9b0afc4efdd99b7e132851abfb718dccb5ce0c9711"}], "txid": "37f8ebf722849dc5dc50cb0652ab2ec67509520d35236b76db42f04863ac7b73", "blocktime": 1537870928, "version": 1, "confirmations": 11512, "time": 1537870928, "locktime": 0, "vsize": 225, "size": 225}