{"hash": "37f99a24e9c06df1d6bcfc2baf69824fe98f73e9c4965c88a728a98e680cdac0", "blockhash": "0000000000000000000e13cef7c366c0283d82e591d1acd082e914b08063cdf1", "vout": [{"scriptPubKey": {"reqSigs": 1, "hex": "76a914b292a12d257d1ef4c753fed990662fd17228b00188ac", "addresses": ["1HHCw9dCbcRentGqqTwtHS7orXq6Fh8G4L"], "asm": "OP_DUP OP_HASH160 b292a12d257d1ef4c753fed990662fd17228b001 OP_EQUALVERIFY OP_CHECKSIG", "type": "pubkeyhash"}, "value": 0.01321629, "n": 0}], "hex": "010000000152b5d1e7e7885fec0544f4bdf725e203da81f76b838a7bb561ebde75a8a436a8000000006a47304402207fee938e5b9cd5498098f85f98f3113248f225592d94d51a1a1bb01c5f13ad0702206d25d50789aa4b69ec593c99d81e334a3b04eb6f641b02a73fdfb8d5f0bda4010121033beedf250f29f216a5a42535ce5220ad6503af41fae72ef33627dab62dbfa07fffffffff019d2a1400000000001976a914b292a12d257d1ef4c753fed990662fd17228b00188ac00000000", "vin": [{"sequence": 4294967295, "scriptSig": {"hex": "47304402207fee938e5b9cd5498098f85f98f3113248f225592d94d51a1a1bb01c5f13ad0702206d25d50789aa4b69ec593c99d81e334a3b04eb6f641b02a73fdfb8d5f0bda4010121033beedf250f29f216a5a42535ce5220ad6503af41fae72ef33627dab62dbfa07f", "asm": "304402207fee938e5b9cd5498098f85f98f3113248f225592d94d51a1a1bb01c5f13ad0702206d25d50789aa4b69ec593c99d81e334a3b04eb6f641b02a73fdfb8d5f0bda401[ALL] 033beedf250f29f216a5a42535ce5220ad6503af41fae72ef33627dab62dbfa07f"}, "vout": 0, "txid": "a836a4a875deeb61b57b8a836bf781da03e225f7bdf44405ec5f88e7e7d1b552"}], "txid": "37f99a24e9c06df1d6bcfc2baf69824fe98f73e9c4965c88a728a98e680cdac0", "blocktime": 1537871767, "version": 1, "confirmations": 11493, "time": 1537871767, "locktime": 0, "vsize": 191, "size": 191}