{"hash": "37fa1ee49d8f010772d28ed0b91f1b18fbb611f6d53ae5a1301b383199de8234", "blockhash": "0000000000000000001f76057863aec43deb6fa401d9628bb513d65a8098bfab", "vout": [{"scriptPubKey": {"reqSigs": 1, "hex": "a91434f98095b59f8b0e68b8d71389ef6b986bfdbc7587", "addresses": ["36X7xExtvvjn2at4Yv4VgdeQ8QQ2WgLdx8"], "asm": "OP_HASH160 34f98095b59f8b0e68b8d71389ef6b986bfdbc75 OP_EQUAL", "type": "scripthash"}, "value": 0.15, "n": 0}, {"scriptPubKey": {"reqSigs": 1, "hex": "a9146c960ec3ce850cb52aeb5514066dfa2a3f24de3c87", "addresses": ["3BbAfT96pssUTrRW6Jqh8MSYc5wSfw2F1j"], "asm": "OP_HASH160 6c960ec3ce850cb52aeb5514066dfa2a3f24de3c OP_EQUAL", "type": "scripthash"}, "value": 0.04647302, "n": 1}], "hex": "020000000142b3797da72b81bdcef0fdb6dc4eae289bae04ffea5595e4195eba7cb93fb189010000006a473044022013387558ac8d5fd04a252db26ed0dca38f9abf8d8095930a94c00952f71fede90220640709e5c32d76a0d9a88c0f3b93d2fbbdc6be90a49ee22b8bed94d522c7bedf0121025c7c57d0890e78c6fa864e8ece127a806cba6b88e1a306632c13a6b1f40e863efeffffff02c0e1e4000000000017a91434f98095b59f8b0e68b8d71389ef6b986bfdbc758786e946000000000017a9146c960ec3ce850cb52aeb5514066dfa2a3f24de3c8714490800", "vin": [{"sequence": 4294967294, "scriptSig": {"hex": "473044022013387558ac8d5fd04a252db26ed0dca38f9abf8d8095930a94c00952f71fede90220640709e5c32d76a0d9a88c0f3b93d2fbbdc6be90a49ee22b8bed94d522c7bedf0121025c7c57d0890e78c6fa864e8ece127a806cba6b88e1a306632c13a6b1f40e863e", "asm": "3044022013387558ac8d5fd04a252db26ed0dca38f9abf8d8095930a94c00952f71fede90220640709e5c32d76a0d9a88c0f3b93d2fbbdc6be90a49ee22b8bed94d522c7bedf[ALL] 025c7c57d0890e78c6fa864e8ece127a806cba6b88e1a306632c13a6b1f40e863e"}, "vout": 1, "txid": "89b13fb97cba5e19e49555eaff04ae9b28ae4edcb6fdf0cebd812ba77d79b342"}], "txid": "37fa1ee49d8f010772d28ed0b91f1b18fbb611f6d53ae5a1301b383199de8234", "blocktime": 1537873891, "version": 2, "confirmations": 11479, "time": 1537873891, "locktime": 542996, "vsize": 221, "size": 221}