{"hash": "775bbd58fcfde333f4186010e386b5f1e176377c3b54e886a65036f0ff6186d4", "blockhash": "0000000000000000001f76057863aec43deb6fa401d9628bb513d65a8098bfab", "vout": [{"scriptPubKey": {"reqSigs": 1, "hex": "76a914efe777d4713fde111587aea39c3b429696304bf688ac", "addresses": ["1NsVnXrcaqbdhnC6PsdskSCDFsk2bb4YsX"], "asm": "OP_DUP OP_HASH160 efe777d4713fde111587aea39c3b429696304bf6 OP_EQUALVERIFY OP_CHECKSIG", "type": "pubkeyhash"}, "value": 0.069, "n": 0}, {"scriptPubKey": {"reqSigs": 1, "hex": "a914dee0a1cc9f055700143e0f4ecee53180ab3530dc87", "addresses": ["3N1V2qWA5hpScEmS72pMooYRmXUiLmwPQQ"], "asm": "OP_HASH160 dee0a1cc9f055700143e0f4ecee53180ab3530dc OP_EQUAL", "type": "scripthash"}, "value": 0.37184955, "n": 1}], "hex": "0200000000010185986864d0c37a3bd23cacfe1d397065fd1ddc0ac7a4002b77227e4a8e1c50390100000017160014cb5dbe423de4d42b6425c6921084c6197a5d2937ffffffff0220496900000000001976a914efe777d4713fde111587aea39c3b429696304bf688acbb6537020000000017a914dee0a1cc9f055700143e0f4ecee53180ab3530dc8702473044022044c4f7cfd4e7f7811042a34691f2551e5652688c8ffbcaa05b866e0cab6893ba022032fe1a822aaabf1913f16591fb37595128cca8796e5d25e38e8f5c33c6cbca95012102acecad485eda786cbe0422823b7594aea6854abb5ec85e267f1c4b87f3f758f700000000", "vin": [{"txinwitness": ["3044022044c4f7cfd4e7f7811042a34691f2551e5652688c8ffbcaa05b866e0cab6893ba022032fe1a822aaabf1913f16591fb37595128cca8796e5d25e38e8f5c33c6cbca9501", "02acecad485eda786cbe0422823b7594aea6854abb5ec85e267f1c4b87f3f758f7"], "sequence": 4294967295, "scriptSig": {"hex": "160014cb5dbe423de4d42b6425c6921084c6197a5d2937", "asm": "0014cb5dbe423de4d42b6425c6921084c6197a5d2937"}, "vout": 1, "txid": "39501c8e4a7e22772b00a4c70adc1dfd6570391dfeac3cd23b7ac3d064689885"}], "txid": "38008d0297901da4f2f3639a01430ec8fe659775875d6df0da2b26f37a538d5a", "blocktime": 1537873891, "version": 2, "confirmations": 11475, "time": 1537873891, "locktime": 0, "vsize": 168, "size": 249}