{"hash": "db4d8bfc0855e3343aa9556dec06e3cebc7708f5157ea91a1a272f18bd13e11f", "blockhash": "0000000000000000000e13cef7c366c0283d82e591d1acd082e914b08063cdf1", "vout": [{"scriptPubKey": {"reqSigs": 1, "hex": "76a9144c495d16bc814ffa518a9bbfbf6ee7d1095b377b88ac", "addresses": ["17xNEyTPS2hmqe9BDpLsJ7sw2hnPNystXz"], "asm": "OP_DUP OP_HASH160 4c495d16bc814ffa518a9bbfbf6ee7d1095b377b OP_EQUALVERIFY OP_CHECKSIG", "type": "pubkeyhash"}, "value": 0.0224975, "n": 0}, {"scriptPubKey": {"reqSigs": 1, "hex": "a914f8ea10dfd203393e0c40524d082e0146bfefcc2387", "addresses": ["3QP9uJWCgWASt6LvcYMkDPACgHhkJAwPBN"], "asm": "OP_HASH160 f8ea10dfd203393e0c40524d082e0146bfefcc23 OP_EQUAL", "type": "scripthash"}, "value": 0.93142603, "n": 1}], "hex": "02000000000101adf0ed42468bbd954c235c2f90783695fa48764e1127eb8ff132a00d67a36ae90100000017160014115c5804194340daf879f09a63e952f1c6f7aa82ffffffff0216542200000000001976a9144c495d16bc814ffa518a9bbfbf6ee7d1095b377b88ac4b3e8d050000000017a914f8ea10dfd203393e0c40524d082e0146bfefcc2387024830450221009b532b9f291da20b2989a3d147fa34ad1f26aad7229c9ee3618a10a49ec796a9022067dd727a6ad40afdc8f3b7c0a458abe422315ef1692d82d5f6221440d03d1cfd012103498f61353d9b201767de6d92e89c4aa539d955d9ee4c024dab5338aec9d9f62400000000", "vin": [{"txinwitness": ["30450221009b532b9f291da20b2989a3d147fa34ad1f26aad7229c9ee3618a10a49ec796a9022067dd727a6ad40afdc8f3b7c0a458abe422315ef1692d82d5f6221440d03d1cfd01", "03498f61353d9b201767de6d92e89c4aa539d955d9ee4c024dab5338aec9d9f624"], "sequence": 4294967295, "scriptSig": {"hex": "160014115c5804194340daf879f09a63e952f1c6f7aa82", "asm": "0014115c5804194340daf879f09a63e952f1c6f7aa82"}, "vout": 1, "txid": "e96aa3670da032f18feb27114e7648fa953678902f5c234c95bd8b4642edf0ad"}], "txid": "3810c74885bcd418534eb4bf2efde8d36c1fdeaf6a3f13133f529c23201ae611", "blocktime": 1537871767, "version": 2, "confirmations": 11491, "time": 1537871767, "locktime": 0, "vsize": 168, "size": 250}