{"hash": "3817b56070c4df2484b7652ff2eace3e0db9da2b44545b65b5372ba6359620b9", "blockhash": "00000000000000000017f5eb5941039fbcee6240d03bc1f2f8e35350df66a1d8", "vout": [{"scriptPubKey": {"reqSigs": 1, "hex": "76a9148d6be0516eeaa94ed41a20a6818efd3cc9283bc588ac", "addresses": ["1DtmWRQfB7dUJCTSV33teB6wdPduQwRw4Z"], "asm": "OP_DUP OP_HASH160 8d6be0516eeaa94ed41a20a6818efd3cc9283bc5 OP_EQUALVERIFY OP_CHECKSIG", "type": "pubkeyhash"}, "value": 0.00365662, "n": 0}, {"scriptPubKey": {"reqSigs": 1, "hex": "76a914985f9e085657cb4d27c523392cd7392be784c11288ac", "addresses": ["1EtgFmQtGk5atdF44zjNajoFjCcX8cCM7f"], "asm": "OP_DUP OP_HASH160 985f9e085657cb4d27c523392cd7392be784c112 OP_EQUALVERIFY OP_CHECKSIG", "type": "pubkeyhash"}, "value": 0.1614686, "n": 1}], "hex": "0100000001df04239f6201f1eec7c4b968504ddb351415199577c4c48bafe6b89a5e75a520010000006b483045022100c38a4808071ad64ba7686733785675c4a28d92fb1384d7c9276dc568d3792e4502200fa0296b2f155bb37273fb4feca2ba327f41b0aac7ba34ce8a694098d2990a1a012102a495fd17ed2ba06cd2caa708393ba07e279adeb48c30bdbefba98b13dbda46d7ffffffff025e940500000000001976a9148d6be0516eeaa94ed41a20a6818efd3cc9283bc588acac61f600000000001976a914985f9e085657cb4d27c523392cd7392be784c11288ac00000000", "vin": [{"sequence": 4294967295, "scriptSig": {"hex": "483045022100c38a4808071ad64ba7686733785675c4a28d92fb1384d7c9276dc568d3792e4502200fa0296b2f155bb37273fb4feca2ba327f41b0aac7ba34ce8a694098d2990a1a012102a495fd17ed2ba06cd2caa708393ba07e279adeb48c30bdbefba98b13dbda46d7", "asm": "3045022100c38a4808071ad64ba7686733785675c4a28d92fb1384d7c9276dc568d3792e4502200fa0296b2f155bb37273fb4feca2ba327f41b0aac7ba34ce8a694098d2990a1a[ALL] 02a495fd17ed2ba06cd2caa708393ba07e279adeb48c30bdbefba98b13dbda46d7"}, "vout": 1, "txid": "20a5755e9ab8e6af8bc4c4779519151435db4d5068b9c4c7eef101629f2304df"}], "txid": "3817b56070c4df2484b7652ff2eace3e0db9da2b44545b65b5372ba6359620b9", "blocktime": 1537874412, "version": 1, "confirmations": 11467, "time": 1537874412, "locktime": 0, "vsize": 226, "size": 226}