{"hash": "381c42fa0fc4c03192015b9ab9ce6cf9cda2acdf31a4b3f5b7b5f9856011ada3", "blockhash": "0000000000000000000baef3f32e3676a92c3b2e5da21b426e4f302fc371ce76", "vout": [{"scriptPubKey": {"reqSigs": 1, "hex": "76a9148027d29cd6cc89c0669c8a5e37b2dee8d5f1038e88ac", "addresses": ["1CgdCV6VbQCYL2UUYryvyypSiFNvsFf4Cx"], "asm": "OP_DUP OP_HASH160 8027d29cd6cc89c0669c8a5e37b2dee8d5f1038e OP_EQUALVERIFY OP_CHECKSIG", "type": "pubkeyhash"}, "value": 0.053744, "n": 0}, {"scriptPubKey": {"reqSigs": 1, "hex": "76a914e119d070e090f4496da9b6f9fd49f6a925390bb988ac", "addresses": ["1MXDxmQ1AdLCz7851aUZQZ3iawfvQrfA9P"], "asm": "OP_DUP OP_HASH160 e119d070e090f4496da9b6f9fd49f6a925390bb9 OP_EQUALVERIFY OP_CHECKSIG", "type": "pubkeyhash"}, "value": 0.09381, "n": 1}], "hex": "0100000001a0f762bd72e0115c955bc07946da4a76beeb566f3f7a21efbad236c419313815000000006b4830450221009aa75e8b18900431566de54516dc691f3fb138837e18da53e392b76eb90aaebb02204897d9c2996abd06c5e749f24f757ae8820acd5ee206ab4abe3ff33b841b26650121033a3a3852e2599b1fc0abd5067c81cb7f606d0e87d378b76bcf9e7426ad1e33adfeffffff02c0015200000000001976a9148027d29cd6cc89c0669c8a5e37b2dee8d5f1038e88ac88248f00000000001976a914e119d070e090f4496da9b6f9fd49f6a925390bb988ac00000000", "vin": [{"sequence": 4294967294, "scriptSig": {"hex": "4830450221009aa75e8b18900431566de54516dc691f3fb138837e18da53e392b76eb90aaebb02204897d9c2996abd06c5e749f24f757ae8820acd5ee206ab4abe3ff33b841b26650121033a3a3852e2599b1fc0abd5067c81cb7f606d0e87d378b76bcf9e7426ad1e33ad", "asm": "30450221009aa75e8b18900431566de54516dc691f3fb138837e18da53e392b76eb90aaebb02204897d9c2996abd06c5e749f24f757ae8820acd5ee206ab4abe3ff33b841b2665[ALL] 033a3a3852e2599b1fc0abd5067c81cb7f606d0e87d378b76bcf9e7426ad1e33ad"}, "vout": 0, "txid": "15383119c436d2baef217a3f6f56ebbe764ada4679c05b955c11e072bd62f7a0"}], "txid": "381c42fa0fc4c03192015b9ab9ce6cf9cda2acdf31a4b3f5b7b5f9856011ada3", "blocktime": 1537876114, "version": 1, "confirmations": 11460, "time": 1537876114, "locktime": 0, "vsize": 226, "size": 226}