{"hash": "38278a31e46b2073556d69abdad5f7a059709d0be8c49651dc8d222f65cf6423", "blockhash": "0000000000000000001e0dab787dd257d1dbfcb92a98c2207d5e1078be1f4165", "vout": [{"scriptPubKey": {"reqSigs": 1, "hex": "76a914fdff3dc6c24f82b7ec23de515b57286fff15cd7788ac", "addresses": ["1QA1j1cLVNQZPqRXkRYm65e57TcMpyavMo"], "asm": "OP_DUP OP_HASH160 fdff3dc6c24f82b7ec23de515b57286fff15cd77 OP_EQUALVERIFY OP_CHECKSIG", "type": "pubkeyhash"}, "value": 0.31246, "n": 0}, {"scriptPubKey": {"reqSigs": 1, "hex": "76a91487d372bb4236f63919f5982c88694613cf550e6b88ac", "addresses": ["1DPBXaGHbRaqe7ZCDKRYjrvNR1sy92zLvV"], "asm": "OP_DUP OP_HASH160 87d372bb4236f63919f5982c88694613cf550e6b OP_EQUALVERIFY OP_CHECKSIG", "type": "pubkeyhash"}, "value": 0.98753322, "n": 1}], "hex": "01000000012ad833d7e0827b4592445457b40efc2bc13dcff6ab010dac636fadcc97b925d0000000006a47304402202dd18fa868a9793c713e5292132ece5c1efadf5047a2a988b846c0aaa1f90c050220728bb42f05d567341b69ac152e50c533dcff0294c3b126f11f443f77452e29ca0121030e9a1eeb6cce93811032036c3ef2c9fe5a5403f0338c4264984a4b9c6677fb93ffffffff02b0c6dc01000000001976a914fdff3dc6c24f82b7ec23de515b57286fff15cd7788ac2adbe205000000001976a91487d372bb4236f63919f5982c88694613cf550e6b88ac00000000", "vin": [{"sequence": 4294967295, "scriptSig": {"hex": "47304402202dd18fa868a9793c713e5292132ece5c1efadf5047a2a988b846c0aaa1f90c050220728bb42f05d567341b69ac152e50c533dcff0294c3b126f11f443f77452e29ca0121030e9a1eeb6cce93811032036c3ef2c9fe5a5403f0338c4264984a4b9c6677fb93", "asm": "304402202dd18fa868a9793c713e5292132ece5c1efadf5047a2a988b846c0aaa1f90c050220728bb42f05d567341b69ac152e50c533dcff0294c3b126f11f443f77452e29ca[ALL] 030e9a1eeb6cce93811032036c3ef2c9fe5a5403f0338c4264984a4b9c6677fb93"}, "vout": 0, "txid": "d025b997ccad6f63ac0d01abf6cf3dc12bfc0eb457544492457b82e0d733d82a"}], "txid": "38278a31e46b2073556d69abdad5f7a059709d0be8c49651dc8d222f65cf6423", "blocktime": 1537872475, "version": 1, "confirmations": 11487, "time": 1537872475, "locktime": 0, "vsize": 225, "size": 225}