{"hash": "3828db1b7ab27531e4fa38fdfbec5c1001baf029522cdc040f74285d8c747844", "blockhash": "000000000000000000022b45ed06c6f4ccd3cf7fb5ba4856ebd2e58215665228", "vout": [{"scriptPubKey": {"reqSigs": 1, "hex": "a914333887130facefd4c4d30396842d226838bff58987", "addresses": ["36Mr6wF11ZfuFTt1cqHUp4Pfgj5xMg7vCE"], "asm": "OP_HASH160 333887130facefd4c4d30396842d226838bff589 OP_EQUAL", "type": "scripthash"}, "value": 0.0024, "n": 0}, {"scriptPubKey": {"reqSigs": 1, "hex": "76a914147c354aff9e5f5bd2e30914a27945c236473d6d88ac", "addresses": ["12sKJyNdjD1man2FGU28x2ZwR9uDPotSQo"], "asm": "OP_DUP OP_HASH160 147c354aff9e5f5bd2e30914a27945c236473d6d OP_EQUALVERIFY OP_CHECKSIG", "type": "pubkeyhash"}, "value": 0.1202137, "n": 1}], "hex": "0100000001b30fb5fedad79e6b09d005f84d174f9baa8c53f91ce5a63eb7b53906c358efa4010000006b483045022100c643a08333401168e40a7062e21b30a813d4b9c24d2dc367ab8000b3f98dfdc8022062ab0ac91c052e13d12a6d06181dde26269dec3f2ecc21c21560a1786cf94d720121033bdb75cf40f8ac5dc8644ed4c2ae3bae14e8e5ec2edde22166d096cd190f6b7fffffffff0280a903000000000017a914333887130facefd4c4d30396842d226838bff589877a6eb700000000001976a914147c354aff9e5f5bd2e30914a27945c236473d6d88ac00000000", "vin": [{"sequence": 4294967295, "scriptSig": {"hex": "483045022100c643a08333401168e40a7062e21b30a813d4b9c24d2dc367ab8000b3f98dfdc8022062ab0ac91c052e13d12a6d06181dde26269dec3f2ecc21c21560a1786cf94d720121033bdb75cf40f8ac5dc8644ed4c2ae3bae14e8e5ec2edde22166d096cd190f6b7f", "asm": "3045022100c643a08333401168e40a7062e21b30a813d4b9c24d2dc367ab8000b3f98dfdc8022062ab0ac91c052e13d12a6d06181dde26269dec3f2ecc21c21560a1786cf94d72[ALL] 033bdb75cf40f8ac5dc8644ed4c2ae3bae14e8e5ec2edde22166d096cd190f6b7f"}, "vout": 1, "txid": "a4ef58c30639b5b73ea6e51cf9538caa9b4f174df805d0096b9ed7dafeb50fb3"}], "txid": "3828db1b7ab27531e4fa38fdfbec5c1001baf029522cdc040f74285d8c747844", "blocktime": 1537869901, "version": 1, "confirmations": 11522, "time": 1537869901, "locktime": 0, "vsize": 224, "size": 224}