{"hash": "246e2fb9869dfb3ffa6b2b5d93fafa78f455465cdd6341410e360f135b337bbf", "blockhash": "00000000000000000024a2167bbff67b0be802c0b01cdd79e6331c2be6459f87", "vout": [{"scriptPubKey": {"reqSigs": 1, "hex": "76a914e12271080749cb36e69cdaa1f89e8301f6bbb46688ac", "addresses": ["1MXQJCftUpFXrvpDcdU2M9DGiimFBhrC3t"], "asm": "OP_DUP OP_HASH160 e12271080749cb36e69cdaa1f89e8301f6bbb466 OP_EQUALVERIFY OP_CHECKSIG", "type": "pubkeyhash"}, "value": 0.00338117, "n": 0}, {"scriptPubKey": {"reqSigs": 1, "hex": "0014e5f4c65cf5070c5d9dfafe76d52a9415e653c301", "addresses": ["bc1quh6vvh84qux9m806lemd2255zhn98scp6luvrk"], "asm": "0 e5f4c65cf5070c5d9dfafe76d52a9415e653c301", "type": "witness_v0_keyhash"}, "value": 3.482e-05, "n": 1}], "hex": "0100000000010128e39e47275fad21e17d01ffaae2ed83366c8ac334491a5f4afdd2710ec155e80100000000ffffffff02c5280500000000001976a914e12271080749cb36e69cdaa1f89e8301f6bbb46688ac9a0d000000000000160014e5f4c65cf5070c5d9dfafe76d52a9415e653c3010247304402201539392a89559bcd29481d9b0ca639b6cf277a981a3c9b567983f3e6345cb85a022047ee96bf735c3190b63fca4cea4086e8c6866cf507ece07bd91853949f7392500121032708c834775caddcfdbdccb1e57041b169547233dfa7fc8f3d3a10c46b4b22d500000000", "vin": [{"txinwitness": ["304402201539392a89559bcd29481d9b0ca639b6cf277a981a3c9b567983f3e6345cb85a022047ee96bf735c3190b63fca4cea4086e8c6866cf507ece07bd91853949f73925001", "032708c834775caddcfdbdccb1e57041b169547233dfa7fc8f3d3a10c46b4b22d5"], "sequence": 4294967295, "scriptSig": {"hex": "", "asm": ""}, "vout": 1, "txid": "e855c10e71d2fd4a5f1a4934c38a6c3683ede2aaff017de121ad5f27479ee328"}], "txid": "38293e787b556507effb49f60aba262e45a961132108946658d525d31ded6ca3", "blocktime": 1537870564, "version": 1, "confirmations": 11515, "time": 1537870564, "locktime": 0, "vsize": 144, "size": 225}