{"hash": "1c964106fbf7840a0af053f33a0f951e28efcab047263a60f55b96650efd25fa", "blockhash": "0000000000000000000baef3f32e3676a92c3b2e5da21b426e4f302fc371ce76", "vout": [{"scriptPubKey": {"reqSigs": 1, "hex": "76a91476135f0a5234be242cd6c0291da8258d5ed4397a88ac", "addresses": ["1BmKwaJLyVEMywU18dmrWnYhx7V5QJhVFV"], "asm": "OP_DUP OP_HASH160 76135f0a5234be242cd6c0291da8258d5ed4397a OP_EQUALVERIFY OP_CHECKSIG", "type": "pubkeyhash"}, "value": 0.00072128, "n": 0}, {"scriptPubKey": {"reqSigs": 1, "hex": "a91449d7e96499e76d96ef877a2fcb98823c8bccba2187", "addresses": ["38RTuMXR3rjgmqC2TwiJHrCLzc9nbGoNw7"], "asm": "OP_HASH160 49d7e96499e76d96ef877a2fcb98823c8bccba21 OP_EQUAL", "type": "scripthash"}, "value": 0.00042872, "n": 1}], "hex": "010000000001058f1486cdd5221f6b2bfee9eeb8b548017fc9eb52ef98e44da3ed430b21ddd8010100000023220020f63dfc12340f6360d0251c22746d6b56093e3243e96ca012a65484a5d9cf0ec0ffffffff13a73a79c13cc7e486490f82d7180488481b7bc94226ddfc8bcbbe40d916fc6101000000232200202a9a1aa43dd52fca361d638a9bb1c7c7a7b32bed598a04104268b8ecbdbfe96fffffffffe04369ae5cdadf5dab31a0f8fc84b7ecd6783531212af30b04d1bdec8987b51e0100000023220020f63dfc12340f6360d0251c22746d6b56093e3243e96ca012a65484a5d9cf0ec0ffffffff0c8ae240bd460bce09573e1ec2d963d4d8828827ed56e560061ef32ddaf5b1fb0100000023220020f63dfc12340f6360d0251c22746d6b56093e3243e96ca012a65484a5d9cf0ec0ffffffffe754e12d4d4424c9937835840b5e9581e5e54a6d9de8dcf2ddcac3beee93eea001000000232200202a9a1aa43dd52fca361d638a9bb1c7c7a7b32bed598a04104268b8ecbdbfe96fffffffff02c0190100000000001976a91476135f0a5234be242cd6c0291da8258d5ed4397a88ac78a700000000000017a91449d7e96499e76d96ef877a2fcb98823c8bccba21870400483045022100da47a26b41e20e33563834362d45271929b97a6542047b5e819560c026a29410022044947c548eac77e12ed779c044483aca19ea329721876b66a361e0562a12d9ee0148304502210083295d2a0eecabf10c86afa53e9aa54398e30c1e117266c4860ab4ca23180d8c022033be01647d6ee2efe73cc6afa701a6a3ce8a42e7cfa74b7c72ed60f5c42e91ce0147522102097067a6a0cc130a9a6f6577b47bf369b840a79de31cd7457187994266b1bb7c2103338f346cab6ba87fe940591a03ac234be06520c5ab386d4b6632e8eef0d0db7652ae0400473044022076fc31a029d98734ae1667db6a58e945c5827e92ee4ef6f8538d791f798ea7e30220609eb2d56670b81f3a8282c1a77fba938a08e9adfc2f1a17560aee1ebd3ee993014730440220380f392597cf8046327bc1bfe82a4fbf822282cf837dff3f1dc5da511c0f8ad0022010b3dce6b817b5f0e5e93d47a5afc2045bac149a967d17be70fc6e66ef40b17c0147522103ea39afa13bfc0b16775c1ffdd58dbb69a77441d8211cfd208f16ac7437c451312103338f346cab6ba87fe940591a03ac234be06520c5ab386d4b6632e8eef0d0db7652ae0400483045022100ffa3036b976dab3ff03daf83c66de97c25cc73928e7011a1d94b591369c21a3b02205632f8e26ef2b95d40c1fdc22b604580a2598405fb178329ea22b9f7fa0b82000147304402204e2d64379484b9727a4c864257c15d61f3c657526ab86a08e161bacb660ad05902205a71eab901e1031c70b742fc15b200db93dd9d0404e5e387d1160eb50eb9d3f80147522102097067a6a0cc130a9a6f6577b47bf369b840a79de31cd7457187994266b1bb7c2103338f346cab6ba87fe940591a03ac234be06520c5ab386d4b6632e8eef0d0db7652ae0400483045022100a5d4046a3bcaed791f3a37751ecb8f74ed787863af3c6749d926365c3716f5cb02204967e855ed014c63e9d46573768218f7e061075a4fb94924bc483c6a3cf23e260148304502210097c670d225dfc2000b525840df8c0cd560de9c8b90d8871198869b31b998303302206383e2ddfc83249bedf234449757590defe50aa88db3a181c5b68782b168e4550147522102097067a6a0cc130a9a6f6577b47bf369b840a79de31cd7457187994266b1bb7c2103338f346cab6ba87fe940591a03ac234be06520c5ab386d4b6632e8eef0d0db7652ae0400473044022003ccfa50ef9d62e7cafc4a98009d7caf9ff1c7e2faef103c7ebb4758aa51fd6a02207c7390000b0886043db24f21ebf8996ebc90be207ccedf8b17a0073236d504ca0147304402201d91743deb678c8b79eb8f62ab0420dfb29eab85e90a437483fa77dabf31dd8a02200300abe58a9f35660ac05922e0d65966d0d2fe99b9decc1d8a7599c564a4ec760147522103ea39afa13bfc0b16775c1ffdd58dbb69a77441d8211cfd208f16ac7437c451312103338f346cab6ba87fe940591a03ac234be06520c5ab386d4b6632e8eef0d0db7652ae00000000", "vin": [{"txinwitness": ["", "3045022100da47a26b41e20e33563834362d45271929b97a6542047b5e819560c026a29410022044947c548eac77e12ed779c044483aca19ea329721876b66a361e0562a12d9ee01", "304502210083295d2a0eecabf10c86afa53e9aa54398e30c1e117266c4860ab4ca23180d8c022033be01647d6ee2efe73cc6afa701a6a3ce8a42e7cfa74b7c72ed60f5c42e91ce01", "522102097067a6a0cc130a9a6f6577b47bf369b840a79de31cd7457187994266b1bb7c2103338f346cab6ba87fe940591a03ac234be06520c5ab386d4b6632e8eef0d0db7652ae"], "sequence": 4294967295, "scriptSig": {"hex": "220020f63dfc12340f6360d0251c22746d6b56093e3243e96ca012a65484a5d9cf0ec0", "asm": "0020f63dfc12340f6360d0251c22746d6b56093e3243e96ca012a65484a5d9cf0ec0"}, "vout": 1, "txid": "01d8dd210b43eda34de498ef52ebc97f0148b5b8eee9fe2b6b1f22d5cd86148f"}, {"txinwitness": ["", "3044022076fc31a029d98734ae1667db6a58e945c5827e92ee4ef6f8538d791f798ea7e30220609eb2d56670b81f3a8282c1a77fba938a08e9adfc2f1a17560aee1ebd3ee99301", "30440220380f392597cf8046327bc1bfe82a4fbf822282cf837dff3f1dc5da511c0f8ad0022010b3dce6b817b5f0e5e93d47a5afc2045bac149a967d17be70fc6e66ef40b17c01", "522103ea39afa13bfc0b16775c1ffdd58dbb69a77441d8211cfd208f16ac7437c451312103338f346cab6ba87fe940591a03ac234be06520c5ab386d4b6632e8eef0d0db7652ae"], "sequence": 4294967295, "scriptSig": {"hex": "2200202a9a1aa43dd52fca361d638a9bb1c7c7a7b32bed598a04104268b8ecbdbfe96f", "asm": "00202a9a1aa43dd52fca361d638a9bb1c7c7a7b32bed598a04104268b8ecbdbfe96f"}, "vout": 1, "txid": "61fc16d940becb8bfcdd2642c97b1b48880418d7820f4986e4c73cc1793aa713"}, {"txinwitness": ["", "3045022100ffa3036b976dab3ff03daf83c66de97c25cc73928e7011a1d94b591369c21a3b02205632f8e26ef2b95d40c1fdc22b604580a2598405fb178329ea22b9f7fa0b820001", "304402204e2d64379484b9727a4c864257c15d61f3c657526ab86a08e161bacb660ad05902205a71eab901e1031c70b742fc15b200db93dd9d0404e5e387d1160eb50eb9d3f801", "522102097067a6a0cc130a9a6f6577b47bf369b840a79de31cd7457187994266b1bb7c2103338f346cab6ba87fe940591a03ac234be06520c5ab386d4b6632e8eef0d0db7652ae"], "sequence": 4294967295, "scriptSig": {"hex": "220020f63dfc12340f6360d0251c22746d6b56093e3243e96ca012a65484a5d9cf0ec0", "asm": "0020f63dfc12340f6360d0251c22746d6b56093e3243e96ca012a65484a5d9cf0ec0"}, "vout": 1, "txid": "1eb58789ecbdd1040bf32a21313578d6ecb784fcf8a031ab5ddfda5cae6943e0"}, {"txinwitness": ["", "3045022100a5d4046a3bcaed791f3a37751ecb8f74ed787863af3c6749d926365c3716f5cb02204967e855ed014c63e9d46573768218f7e061075a4fb94924bc483c6a3cf23e2601", "304502210097c670d225dfc2000b525840df8c0cd560de9c8b90d8871198869b31b998303302206383e2ddfc83249bedf234449757590defe50aa88db3a181c5b68782b168e45501", "522102097067a6a0cc130a9a6f6577b47bf369b840a79de31cd7457187994266b1bb7c2103338f346cab6ba87fe940591a03ac234be06520c5ab386d4b6632e8eef0d0db7652ae"], "sequence": 4294967295, "scriptSig": {"hex": "220020f63dfc12340f6360d0251c22746d6b56093e3243e96ca012a65484a5d9cf0ec0", "asm": "0020f63dfc12340f6360d0251c22746d6b56093e3243e96ca012a65484a5d9cf0ec0"}, "vout": 1, "txid": "fbb1f5da2df31e0660e556ed278882d8d463d9c21e3e5709ce0b46bd40e28a0c"}, {"txinwitness": ["", "3044022003ccfa50ef9d62e7cafc4a98009d7caf9ff1c7e2faef103c7ebb4758aa51fd6a02207c7390000b0886043db24f21ebf8996ebc90be207ccedf8b17a0073236d504ca01", "304402201d91743deb678c8b79eb8f62ab0420dfb29eab85e90a437483fa77dabf31dd8a02200300abe58a9f35660ac05922e0d65966d0d2fe99b9decc1d8a7599c564a4ec7601", "522103ea39afa13bfc0b16775c1ffdd58dbb69a77441d8211cfd208f16ac7437c451312103338f346cab6ba87fe940591a03ac234be06520c5ab386d4b6632e8eef0d0db7652ae"], "sequence": 4294967295, "scriptSig": {"hex": "2200202a9a1aa43dd52fca361d638a9bb1c7c7a7b32bed598a04104268b8ecbdbfe96f", "asm": "00202a9a1aa43dd52fca361d638a9bb1c7c7a7b32bed598a04104268b8ecbdbfe96f"}, "vout": 1, "txid": "a0ee93eebec3caddf2dce89d6d4ae5e581955e0b84357893c924444d2de154e7"}], "txid": "382b5e3102810a5f290f4b8166cd4b3827111b29d93a42d8a1244b82daffbab6", "blocktime": 1537876114, "version": 1, "confirmations": 11460, "time": 1537876114, "locktime": 0, "vsize": 731, "size": 1553}