{"hash": "382de6e84ff80c5ffb609141f0a037dcc4d2fe46249c9ee9156779f7006e05fc", "blockhash": "0000000000000000001cda96e906b7601b7a6fb1a3b62bca570a9e5d8f4b3de1", "vout": [{"scriptPubKey": {"reqSigs": 1, "hex": "76a914ece28a43c2d6929487e0627a842d7ba9d83165c388ac", "addresses": ["1NbXrZ8592v6bC9GxzrZaQnpWBoKEk1K7n"], "asm": "OP_DUP OP_HASH160 ece28a43c2d6929487e0627a842d7ba9d83165c3 OP_EQUALVERIFY OP_CHECKSIG", "type": "pubkeyhash"}, "value": 0.1, "n": 0}, {"scriptPubKey": {"reqSigs": 1, "hex": "76a91436d70a6ac65470fa1a5f0ed65c873c4d4c72e49688ac", "addresses": ["15zy6eb2Axg8n7RwE5xB2BPm2SD9wxA8Fz"], "asm": "OP_DUP OP_HASH160 36d70a6ac65470fa1a5f0ed65c873c4d4c72e496 OP_EQUALVERIFY OP_CHECKSIG", "type": "pubkeyhash"}, "value": 0.11538133, "n": 1}], "hex": "01000000013f3ef89bb0d61fc4605c82a698a2360d07885fd195f1c910bd16a34987d8db29010000006a473044022039c5da09123c6d1965c187ac4a9e2cc06602552c3a48f4ce6f5e449fd8cc3ea102200a0844f9e3b8e87a2643b541a6fe29a2ed024936c54891b1dc56aef3ed4962ba012102351efd051d72dec989078b639133e46bf4c5daba835b49155fd8b96f6e57dec3ffffffff0280969800000000001976a914ece28a43c2d6929487e0627a842d7ba9d83165c388acd50eb000000000001976a91436d70a6ac65470fa1a5f0ed65c873c4d4c72e49688ac00000000", "vin": [{"sequence": 4294967295, "scriptSig": {"hex": "473044022039c5da09123c6d1965c187ac4a9e2cc06602552c3a48f4ce6f5e449fd8cc3ea102200a0844f9e3b8e87a2643b541a6fe29a2ed024936c54891b1dc56aef3ed4962ba012102351efd051d72dec989078b639133e46bf4c5daba835b49155fd8b96f6e57dec3", "asm": "3044022039c5da09123c6d1965c187ac4a9e2cc06602552c3a48f4ce6f5e449fd8cc3ea102200a0844f9e3b8e87a2643b541a6fe29a2ed024936c54891b1dc56aef3ed4962ba[ALL] 02351efd051d72dec989078b639133e46bf4c5daba835b49155fd8b96f6e57dec3"}, "vout": 1, "txid": "29dbd88749a316bd10c9f195d15f88070d36a298a6825c60c41fd6b09bf83e3f"}], "txid": "382de6e84ff80c5ffb609141f0a037dcc4d2fe46249c9ee9156779f7006e05fc", "blocktime": 1537873282, "version": 1, "confirmations": 11483, "time": 1537873282, "locktime": 0, "vsize": 225, "size": 225}