{"hash": "a3f5e294828d5f6c4bf257882dbff5ec0316dd5f90d0c01d945e7ef7768bce06", "blockhash": "0000000000000000001f76057863aec43deb6fa401d9628bb513d65a8098bfab", "vout": [{"scriptPubKey": {"reqSigs": 1, "hex": "76a9145cf80a7eb3789daefdb7aa3897f22748adba77a988ac", "addresses": ["19UaJqf8uEFPmVr1YK1SMXFicm8UavEA1G"], "asm": "OP_DUP OP_HASH160 5cf80a7eb3789daefdb7aa3897f22748adba77a9 OP_EQUALVERIFY OP_CHECKSIG", "type": "pubkeyhash"}, "value": 0.00460586, "n": 0}, {"scriptPubKey": {"reqSigs": 1, "hex": "001439192c5e4c05ca90622863f25646d09b825be704", "addresses": ["bc1q8yvjchjvqh9fqc3gv0e9v3ksnwp9hecy9c5smk"], "asm": "0 39192c5e4c05ca90622863f25646d09b825be704", "type": "witness_v0_keyhash"}, "value": 4.331e-05, "n": 1}], "hex": "01000000000101e95523976109592e39ce052850b7c018cbe293405adb10ad46b921523bd1e90e0100000000ffffffff022a070700000000001976a9145cf80a7eb3789daefdb7aa3897f22748adba77a988aceb1000000000000016001439192c5e4c05ca90622863f25646d09b825be70402483045022100de7f4197b391480e27ccd36f3fecfb6fd88dae005f5a02fddcef94a06efe291502202310782cc17eb6092d6aa93551f53010ffb18dd7dd222d1e64371693a41dc100012102e01b5e2a692079f874fec81ffe87cfda7bd895b0dd9537f44ca6fc743d2a507000000000", "vin": [{"txinwitness": ["3045022100de7f4197b391480e27ccd36f3fecfb6fd88dae005f5a02fddcef94a06efe291502202310782cc17eb6092d6aa93551f53010ffb18dd7dd222d1e64371693a41dc10001", "02e01b5e2a692079f874fec81ffe87cfda7bd895b0dd9537f44ca6fc743d2a5070"], "sequence": 4294967295, "scriptSig": {"hex": "", "asm": ""}, "vout": 1, "txid": "0ee9d13b5221b946ad10db5a4093e2cb18c0b7502805ce392e590961972355e9"}], "txid": "383cd7753a9ec380544f6083e87d20086a757e190d3ddc6d24f1f1f28e0f3c48", "blocktime": 1537873891, "version": 1, "confirmations": 11478, "time": 1537873891, "locktime": 0, "vsize": 144, "size": 226}