{"hash": "d2e5c3f8d92c77a59a600303a494ead805d3feac000ad6cd32720deee7364e9e", "blockhash": "00000000000000000018f53835495a110e01622372bf6ae95dc86f2b0ab887b0", "vout": [{"scriptPubKey": {"reqSigs": 1, "hex": "a91431c41b90a929472be31d1f2cba45cdcbfe33d55a87", "addresses": ["36E9xk5usQ6dEq6egYjvLK8feLQkNN8u3o"], "asm": "OP_HASH160 31c41b90a929472be31d1f2cba45cdcbfe33d55a OP_EQUAL", "type": "scripthash"}, "value": 0.05467609, "n": 0}, {"scriptPubKey": {"reqSigs": 1, "hex": "a914abc4bb72dd06a1ee929608ac0f6d6a5cbce7ab0b87", "addresses": ["3HMF9YLe3WjSxr1654S3wsfZ1yKQ8xsG4q"], "asm": "OP_HASH160 abc4bb72dd06a1ee929608ac0f6d6a5cbce7ab0b OP_EQUAL", "type": "scripthash"}, "value": 0.1995, "n": 1}], "hex": "0200000000010177fceafa4c5db7c7d76e2396f5a78a45138f11c673c6a693fbb36d624ef5cb9a0000000017160014d980b9ba88959ecc32316e20ac5d4a27fc2af438feffffff02d96d53000000000017a91431c41b90a929472be31d1f2cba45cdcbfe33d55a87b06930010000000017a914abc4bb72dd06a1ee929608ac0f6d6a5cbce7ab0b8702483045022100f1eec64c232d9c3c4cbcf514e2d4aaf049d5fcd32a96b0c53fc0a86c00fc0af00220695fcfda85f5e15230798ac723f0252adbfed25fbd9b343b990022befcf4221b01210309742f87ceaa64b647ad346c9a9029f12bcb343f459121f1d84f9257fc9abf150e490800", "vin": [{"txinwitness": ["3045022100f1eec64c232d9c3c4cbcf514e2d4aaf049d5fcd32a96b0c53fc0a86c00fc0af00220695fcfda85f5e15230798ac723f0252adbfed25fbd9b343b990022befcf4221b01", "0309742f87ceaa64b647ad346c9a9029f12bcb343f459121f1d84f9257fc9abf15"], "sequence": 4294967294, "scriptSig": {"hex": "160014d980b9ba88959ecc32316e20ac5d4a27fc2af438", "asm": "0014d980b9ba88959ecc32316e20ac5d4a27fc2af438"}, "vout": 0, "txid": "9acbf54e626db3fb93a6c673c6118f13458aa7f596236ed7c7b75d4cfaeafc77"}], "txid": "383eee62b2b158509b8ccb5efba86a9c6019c221e625d06762bc375e67bbd622", "blocktime": 1537870928, "version": 2, "confirmations": 11514, "time": 1537870928, "locktime": 542990, "vsize": 166, "size": 248}