{"hash": "3841373ddcb89d7f5bbc6f6feb10a97f443345b3b1dc295735604ddef0fa8983", "blockhash": "000000000000000000022b45ed06c6f4ccd3cf7fb5ba4856ebd2e58215665228", "vout": [{"scriptPubKey": {"type": "nulldata", "hex": "6a4c500000775c00010f99ba3cf20259cb5014fffa3a016b46dc7dc7d0968d120d670c1906f999e00b6b3cf12aaa55f96e175ab0a415755baa06fe06128d3ff5472e16bc9a9526289ac0f6612cd74e33776ee4", "asm": "OP_RETURN 0000775c00010f99ba3cf20259cb5014fffa3a016b46dc7dc7d0968d120d670c1906f999e00b6b3cf12aaa55f96e175ab0a415755baa06fe06128d3ff5472e16bc9a9526289ac0f6612cd74e33776ee4"}, "value": 0.0, "n": 0}, {"scriptPubKey": {"reqSigs": 1, "hex": "76a914ce3a37b9270e95b59471869a59b9bad9e4ea34a088ac", "addresses": ["1KoRwYzebpwWc8zRVRvdwkKDogSibPE75U"], "asm": "OP_DUP OP_HASH160 ce3a37b9270e95b59471869a59b9bad9e4ea34a0 OP_EQUALVERIFY OP_CHECKSIG", "type": "pubkeyhash"}, "value": 0.0148404, "n": 1}], "hex": "01000000018180dd6bc98f3c4d599a7169309a4802551865d8371a14fa10e3a86442f55b89010000006a473044022013193d2dd61ff2c89e3cacbd235b88b459da421d17f2531209da4fdefe65335e02200b03176c230eac6da53f6e06210a49da629ba5a286396d5112f632c0469df58e0121026717001eaad7cab1872673967085c14cd50ed36daeb54c0bd19fc24da6b24db8ffffffff020000000000000000536a4c500000775c00010f99ba3cf20259cb5014fffa3a016b46dc7dc7d0968d120d670c1906f999e00b6b3cf12aaa55f96e175ab0a415755baa06fe06128d3ff5472e16bc9a9526289ac0f6612cd74e33776ee408a51600000000001976a914ce3a37b9270e95b59471869a59b9bad9e4ea34a088ac00000000", "vin": [{"sequence": 4294967295, "scriptSig": {"hex": "473044022013193d2dd61ff2c89e3cacbd235b88b459da421d17f2531209da4fdefe65335e02200b03176c230eac6da53f6e06210a49da629ba5a286396d5112f632c0469df58e0121026717001eaad7cab1872673967085c14cd50ed36daeb54c0bd19fc24da6b24db8", "asm": "3044022013193d2dd61ff2c89e3cacbd235b88b459da421d17f2531209da4fdefe65335e02200b03176c230eac6da53f6e06210a49da629ba5a286396d5112f632c0469df58e[ALL] 026717001eaad7cab1872673967085c14cd50ed36daeb54c0bd19fc24da6b24db8"}, "vout": 1, "txid": "895bf54264a8e310fa141a37d865185502489a3069719a594d3c8fc96bdd8081"}], "txid": "3841373ddcb89d7f5bbc6f6feb10a97f443345b3b1dc295735604ddef0fa8983", "blocktime": 1537869901, "version": 1, "confirmations": 11523, "time": 1537869901, "locktime": 0, "vsize": 283, "size": 283}