{"hash": "723ace0fe8795e5e0ae8484bccef444a65719e1c0c628f9df5004c5556698828", "blockhash": "00000000000000000018f53835495a110e01622372bf6ae95dc86f2b0ab887b0", "vout": [{"scriptPubKey": {"reqSigs": 1, "hex": "a91419af9d0dfacf489766de8a6e18affa3e1ebe742987", "addresses": ["342qCBLWQL4Fn5zWS3DanzjyZnHXKP81TA"], "asm": "OP_HASH160 19af9d0dfacf489766de8a6e18affa3e1ebe7429 OP_EQUAL", "type": "scripthash"}, "value": 0.00275332, "n": 0}, {"scriptPubKey": {"reqSigs": 1, "hex": "0014064fb27dbe07220a7b88704c8bb692b3a432dbf0", "addresses": ["bc1qqe8myld7qu3q57ugwpxghd5jkwjr9klswk8mwm"], "asm": "0 064fb27dbe07220a7b88704c8bb692b3a432dbf0", "type": "witness_v0_keyhash"}, "value": 1.111e-05, "n": 1}], "hex": "010000000001012220160e016457feac9b59c50e6b65ef5b08fe343a72c3b9f2dad4650a5b1e0e0000000000ffffffff02843304000000000017a91419af9d0dfacf489766de8a6e18affa3e1ebe7429875704000000000000160014064fb27dbe07220a7b88704c8bb692b3a432dbf00247304402203bdd91baec0ebe19f3d60d0af870b504b14969a5db01e2655d7ebcbdf6148c1f02204fb80ed831bbb7906da1900e2b3fad1317014dfaad274c59ea8ca8b755ab9cc601210381fb02a81d1e9aa1bd9682ab9bd1e4e44550a780deb570bc666b4af8a8d2861c00000000", "vin": [{"txinwitness": ["304402203bdd91baec0ebe19f3d60d0af870b504b14969a5db01e2655d7ebcbdf6148c1f02204fb80ed831bbb7906da1900e2b3fad1317014dfaad274c59ea8ca8b755ab9cc601", "0381fb02a81d1e9aa1bd9682ab9bd1e4e44550a780deb570bc666b4af8a8d2861c"], "sequence": 4294967295, "scriptSig": {"hex": "", "asm": ""}, "vout": 0, "txid": "0e1e5b0a65d4daf2b9c3723a34fe085bef656b0ec5599bacfe5764010e162022"}], "txid": "384dee459b7f166ff9f0e9113c2cd550052c37b52dda21f7894688c980ce2db7", "blocktime": 1537870928, "version": 1, "confirmations": 11513, "time": 1537870928, "locktime": 0, "vsize": 142, "size": 223}