{"hash": "384e05ab5f66fda492d3df70fa59d36ed291cb20376bd584b693f65ccde58759", "blockhash": "0000000000000000000baef3f32e3676a92c3b2e5da21b426e4f302fc371ce76", "vout": [{"scriptPubKey": {"type": "nulldata", "hex": "6a4c5000007807000163d7791cdde48e259720b791702940d64fa54d8eb2d19ed074892d00f8e8b2fb2c1f697233c2de859105462799725baa1abc06137fd16ced5994bc9a9526289ac0f6612cd74e33776ee4", "asm": "OP_RETURN 00007807000163d7791cdde48e259720b791702940d64fa54d8eb2d19ed074892d00f8e8b2fb2c1f697233c2de859105462799725baa1abc06137fd16ced5994bc9a9526289ac0f6612cd74e33776ee4"}, "value": 0.0, "n": 0}, {"scriptPubKey": {"reqSigs": 1, "hex": "76a91460565595d20c7e051fcbdd55b63f83223a46a59988ac", "addresses": ["19nPJ2hQEu7AVPvx8rSHD8KYXNm7UUSdFg"], "asm": "OP_DUP OP_HASH160 60565595d20c7e051fcbdd55b63f83223a46a599 OP_EQUALVERIFY OP_CHECKSIG", "type": "pubkeyhash"}, "value": 0.00122244, "n": 1}], "hex": "0100000001e7341e2ffb486d59e13db9116c4851fec63521acfd6fe6273f3e7b2f4c14edc3000000006b483045022100c189ed109d52b798eae04d7156a472327386272917abd92296d897b65e1fa60702201007423a328864db48f8e31319e0d67adb9efb1082e5c8bd978c67819837bf5f01210300ace399508baaa0bca7e3e00dc5a67aef27e03d817e4ffbe2b1c0f794c524d1ffffffff020000000000000000536a4c5000007807000163d7791cdde48e259720b791702940d64fa54d8eb2d19ed074892d00f8e8b2fb2c1f697233c2de859105462799725baa1abc06137fd16ced5994bc9a9526289ac0f6612cd74e33776ee484dd0100000000001976a91460565595d20c7e051fcbdd55b63f83223a46a59988ac00000000", "vin": [{"sequence": 4294967295, "scriptSig": {"hex": "483045022100c189ed109d52b798eae04d7156a472327386272917abd92296d897b65e1fa60702201007423a328864db48f8e31319e0d67adb9efb1082e5c8bd978c67819837bf5f01210300ace399508baaa0bca7e3e00dc5a67aef27e03d817e4ffbe2b1c0f794c524d1", "asm": "3045022100c189ed109d52b798eae04d7156a472327386272917abd92296d897b65e1fa60702201007423a328864db48f8e31319e0d67adb9efb1082e5c8bd978c67819837bf5f[ALL] 0300ace399508baaa0bca7e3e00dc5a67aef27e03d817e4ffbe2b1c0f794c524d1"}, "vout": 0, "txid": "c3ed144c2f7b3e3f27e66ffdac2135c6fe51486c11b93de1596d48fb2f1e34e7"}], "txid": "384e05ab5f66fda492d3df70fa59d36ed291cb20376bd584b693f65ccde58759", "blocktime": 1537876114, "version": 1, "confirmations": 11460, "time": 1537876114, "locktime": 0, "vsize": 284, "size": 284}