{"hash": "384f24b1927161681bcb26440fab194da6b8357fe0f6c16c9605ec60dbbc1a8f", "blockhash": "00000000000000000017f5eb5941039fbcee6240d03bc1f2f8e35350df66a1d8", "vout": [{"scriptPubKey": {"reqSigs": 1, "hex": "76a914d4d78258cb658214baa2929600d409a1ae26243688ac", "addresses": ["1LQQRWSG3Yg1DrN7zSnAv2Rm2mGATQAbmw"], "asm": "OP_DUP OP_HASH160 d4d78258cb658214baa2929600d409a1ae262436 OP_EQUALVERIFY OP_CHECKSIG", "type": "pubkeyhash"}, "value": 0.0004, "n": 0}, {"scriptPubKey": {"reqSigs": 1, "hex": "76a91438cf8b9dd7c800bec7d10abb7755b7161f2116fb88ac", "addresses": ["16BPUFPgiKzs8egJ4Msd8tqvVTPiHNRgZx"], "asm": "OP_DUP OP_HASH160 38cf8b9dd7c800bec7d10abb7755b7161f2116fb OP_EQUALVERIFY OP_CHECKSIG", "type": "pubkeyhash"}, "value": 0.04319799, "n": 1}], "hex": "01000000015dec19c5e92fc6225730e2a6d60936b19da33be9d4c864ba7a27804c8ded94ee010000006a47304402200bc896e57c04ae32e11b9966395811fd54e49e2e20aff9bfad6cf30ebdba2ab002203ea232af72b2ddf2c5f61f7a1bfecc063afaa0be0af8f43e13ecb193ffe19caa012103ff7dafa81c910fdb97dc8e32adff90314504d51b7f3781e8e697c906c6c009a5ffffffff02409c0000000000001976a914d4d78258cb658214baa2929600d409a1ae26243688ac37ea4100000000001976a91438cf8b9dd7c800bec7d10abb7755b7161f2116fb88ac00000000", "vin": [{"sequence": 4294967295, "scriptSig": {"hex": "47304402200bc896e57c04ae32e11b9966395811fd54e49e2e20aff9bfad6cf30ebdba2ab002203ea232af72b2ddf2c5f61f7a1bfecc063afaa0be0af8f43e13ecb193ffe19caa012103ff7dafa81c910fdb97dc8e32adff90314504d51b7f3781e8e697c906c6c009a5", "asm": "304402200bc896e57c04ae32e11b9966395811fd54e49e2e20aff9bfad6cf30ebdba2ab002203ea232af72b2ddf2c5f61f7a1bfecc063afaa0be0af8f43e13ecb193ffe19caa[ALL] 03ff7dafa81c910fdb97dc8e32adff90314504d51b7f3781e8e697c906c6c009a5"}, "vout": 1, "txid": "ee94ed8d4c80277aba64c8d4e93ba39db13609d6a6e2305722c62fe9c519ec5d"}], "txid": "384f24b1927161681bcb26440fab194da6b8357fe0f6c16c9605ec60dbbc1a8f", "blocktime": 1537874412, "version": 1, "confirmations": 11468, "time": 1537874412, "locktime": 0, "vsize": 225, "size": 225}