{"hash": "38565bf4b1717bfe424a9e0c0d4fe4177dfc7cd06774689ff64f7895a65f19e0", "blockhash": "000000000000000000022b45ed06c6f4ccd3cf7fb5ba4856ebd2e58215665228", "vout": [{"scriptPubKey": {"reqSigs": 1, "hex": "76a91497e9c80f80c8f18f2ccb3c8697cedae1b8efe11a88ac", "addresses": ["1ErF6PZ5UGRXbSNNgU5NwmWgvHfwtEYF37"], "asm": "OP_DUP OP_HASH160 97e9c80f80c8f18f2ccb3c8697cedae1b8efe11a OP_EQUALVERIFY OP_CHECKSIG", "type": "pubkeyhash"}, "value": 0.00903615, "n": 0}, {"scriptPubKey": {"reqSigs": 1, "hex": "76a9144528bb7ea88d1e59dfc8e1e556d0e74fdaff163f88ac", "addresses": ["17JgRNeKoMQ6LWaAMY7Tth6tjKiBq3npvs"], "asm": "OP_DUP OP_HASH160 4528bb7ea88d1e59dfc8e1e556d0e74fdaff163f OP_EQUALVERIFY OP_CHECKSIG", "type": "pubkeyhash"}, "value": 0.0133024, "n": 1}], "hex": "01000000014df66ff4c92c09bf22d593e946f63ec6913607325fb2f9b589cd7c76365a4a18010000006a4730440220366fdc710d293c8bba788e3958d3a12bc142fdbfcc5669ad3da86e280253eac3022006461f7b813124f8f9ab96fc3972158f94b8c56a001fa3e420d52a4851ad90a6012102c4f11c6832a5ac66ce61050cf79c4ebe01a441152a4c68bd3e1c2e6f4e6d3606ffffffff02bfc90d00000000001976a91497e9c80f80c8f18f2ccb3c8697cedae1b8efe11a88ac404c1400000000001976a9144528bb7ea88d1e59dfc8e1e556d0e74fdaff163f88ac00000000", "vin": [{"sequence": 4294967295, "scriptSig": {"hex": "4730440220366fdc710d293c8bba788e3958d3a12bc142fdbfcc5669ad3da86e280253eac3022006461f7b813124f8f9ab96fc3972158f94b8c56a001fa3e420d52a4851ad90a6012102c4f11c6832a5ac66ce61050cf79c4ebe01a441152a4c68bd3e1c2e6f4e6d3606", "asm": "30440220366fdc710d293c8bba788e3958d3a12bc142fdbfcc5669ad3da86e280253eac3022006461f7b813124f8f9ab96fc3972158f94b8c56a001fa3e420d52a4851ad90a6[ALL] 02c4f11c6832a5ac66ce61050cf79c4ebe01a441152a4c68bd3e1c2e6f4e6d3606"}, "vout": 1, "txid": "184a5a36767ccd89b5f9b25f32073691c63ef646e993d522bf092cc9f46ff64d"}], "txid": "38565bf4b1717bfe424a9e0c0d4fe4177dfc7cd06774689ff64f7895a65f19e0", "blocktime": 1537869901, "version": 1, "confirmations": 11522, "time": 1537869901, "locktime": 0, "vsize": 225, "size": 225}