{"hash": "38561fdd8b0b93be2dec1381104be410cd7d57f566758fefdcf0f632f77f5072", "blockhash": "0000000000000000001cda96e906b7601b7a6fb1a3b62bca570a9e5d8f4b3de1", "vout": [{"scriptPubKey": {"reqSigs": 1, "hex": "a9140352f0d8b5db660f8f63ecdfdc31273a032038a287", "addresses": ["31zbJwujRg6ThpdpEmgfxhKiyBjoTdbbj5"], "asm": "OP_HASH160 0352f0d8b5db660f8f63ecdfdc31273a032038a2 OP_EQUAL", "type": "scripthash"}, "value": 0.0108, "n": 0}, {"scriptPubKey": {"reqSigs": 1, "hex": "76a914f04005db2f56172afa42c23700b2dccb277de9ea88ac", "addresses": ["1NuKsRkPvzwi3CgcRZcaakpLGv2921DKu8"], "asm": "OP_DUP OP_HASH160 f04005db2f56172afa42c23700b2dccb277de9ea OP_EQUALVERIFY OP_CHECKSIG", "type": "pubkeyhash"}, "value": 0.01920277, "n": 1}], "hex": "010000000127e933e4e404ed59b4a8ac63cd60741870afb8661fa343dabada9916e561b114000000006b483045022100d9c5595a50d79bd66f34279aca5b71afbb7caa4227011aea003dbba4924d2cbc02207633d73506a8a79c0a827651f4d86e10d864ae9ee795cfb1c80215201a58b11f0121037f59a58e7db3430db6469cd7b126c874259cf74ca97bde3ee31ffee039b1ed68feffffff02c07a10000000000017a9140352f0d8b5db660f8f63ecdfdc31273a032038a287154d1d00000000001976a914f04005db2f56172afa42c23700b2dccb277de9ea88ac13490800", "vin": [{"sequence": 4294967294, "scriptSig": {"hex": "483045022100d9c5595a50d79bd66f34279aca5b71afbb7caa4227011aea003dbba4924d2cbc02207633d73506a8a79c0a827651f4d86e10d864ae9ee795cfb1c80215201a58b11f0121037f59a58e7db3430db6469cd7b126c874259cf74ca97bde3ee31ffee039b1ed68", "asm": "3045022100d9c5595a50d79bd66f34279aca5b71afbb7caa4227011aea003dbba4924d2cbc02207633d73506a8a79c0a827651f4d86e10d864ae9ee795cfb1c80215201a58b11f[ALL] 037f59a58e7db3430db6469cd7b126c874259cf74ca97bde3ee31ffee039b1ed68"}, "vout": 0, "txid": "14b161e51699dabada43a31f66b8af70187460cd63aca8b459ed04e4e433e927"}], "txid": "38561fdd8b0b93be2dec1381104be410cd7d57f566758fefdcf0f632f77f5072", "blocktime": 1537873282, "version": 1, "confirmations": 11484, "time": 1537873282, "locktime": 542995, "vsize": 224, "size": 224}