{"hash": "385bce35986a28c7c23842d9c67bf9dc78cde205bd00c0283f8985ece27585c5", "blockhash": "0000000000000000000baef3f32e3676a92c3b2e5da21b426e4f302fc371ce76", "vout": [{"scriptPubKey": {"reqSigs": 1, "hex": "a914ea057ff687822b4e609af7e8a77ec584b22804a487", "addresses": ["3P2QdZwTqf14LSWT2MLBj9uj2kJuxLyE81"], "asm": "OP_HASH160 ea057ff687822b4e609af7e8a77ec584b22804a4 OP_EQUAL", "type": "scripthash"}, "value": 0.00163532, "n": 0}, {"scriptPubKey": {"reqSigs": 1, "hex": "a914039f727542aec0e3071993626c6661117430126187", "addresses": ["322AxhSeSqMibeuv9iX5cwCLbAfFvRMfbV"], "asm": "OP_HASH160 039f727542aec0e3071993626c66611174301261 OP_EQUAL", "type": "scripthash"}, "value": 0.0056, "n": 1}, {"scriptPubKey": {"reqSigs": 1, "hex": "a914c021c8c958a17fbd5df1f0c24c9fa514b2896a3c87", "addresses": ["3KCv8kWpUeSNjqtfzCoe2k9sjFustM89X8"], "asm": "OP_HASH160 c021c8c958a17fbd5df1f0c24c9fa514b2896a3c OP_EQUAL", "type": "scripthash"}, "value": 0.02558802, "n": 2}, {"scriptPubKey": {"reqSigs": 1, "hex": "a9149fc9445b4481322e638f2bd0ee3c19871d2475de87", "addresses": ["3GFtUKebP6vwTxaXaDVEYRp1h6TFvU1sTk"], "asm": "OP_HASH160 9fc9445b4481322e638f2bd0ee3c19871d2475de OP_EQUAL", "type": "scripthash"}, "value": 0.25041671, "n": 3}, {"scriptPubKey": {"reqSigs": 1, "hex": "76a9140f3f1207f1a696bf715bcbe877e50094069e8e3288ac", "addresses": ["12Pch67619NRn3sXKyfsdxrLZ8fCe4Koxh"], "asm": "OP_DUP OP_HASH160 0f3f1207f1a696bf715bcbe877e50094069e8e32 OP_EQUALVERIFY OP_CHECKSIG", "type": "pubkeyhash"}, "value": 42.009, "n": 4}, {"scriptPubKey": {"reqSigs": 1, "hex": "76a91443849383122ebb8a28268a89700c9f723663b5b888ac", "addresses": ["17A16QmavnUfCW11DAApiJxp7ARnxN5pGX"], "asm": "OP_DUP OP_HASH160 43849383122ebb8a28268a89700c9f723663b5b8 OP_EQUALVERIFY OP_CHECKSIG", "type": "pubkeyhash"}, "value": 42.45780935, "n": 5}], "hex": "0200000001d7687bb743c86992228b852bc6f5b39d6c3834deb16d8eb63e621953c43e3a05010000008b483045022100ba9dd1ebcad1c2a7a289700ae79fcc5a79a3653832986665b094741bb0be39b2022009844a02bea5bcef1cb341682617ca778d769ea9bc9b806449d6c86361fdb9e50141047146f0e0fcb3139947cf0beb870fe251930ca10d4545793d31033e801b5219abf56c11a3cf3406ca590e4c14b0dab749d20862b3adc4709153c280c2a78be10cffffffff06cc7e02000000000017a914ea057ff687822b4e609af7e8a77ec584b22804a487808b08000000000017a914039f727542aec0e3071993626c6661117430126187520b27000000000017a914c021c8c958a17fbd5df1f0c24c9fa514b2896a3c87071b7e010000000017a9149fc9445b4481322e638f2bd0ee3c19871d2475de87a0a564fa000000001976a9140f3f1207f1a696bf715bcbe877e50094069e8e3288acc77911fd000000001976a91443849383122ebb8a28268a89700c9f723663b5b888ac00000000", "vin": [{"sequence": 4294967295, "scriptSig": {"hex": "483045022100ba9dd1ebcad1c2a7a289700ae79fcc5a79a3653832986665b094741bb0be39b2022009844a02bea5bcef1cb341682617ca778d769ea9bc9b806449d6c86361fdb9e50141047146f0e0fcb3139947cf0beb870fe251930ca10d4545793d31033e801b5219abf56c11a3cf3406ca590e4c14b0dab749d20862b3adc4709153c280c2a78be10c", "asm": "3045022100ba9dd1ebcad1c2a7a289700ae79fcc5a79a3653832986665b094741bb0be39b2022009844a02bea5bcef1cb341682617ca778d769ea9bc9b806449d6c86361fdb9e5[ALL] 047146f0e0fcb3139947cf0beb870fe251930ca10d4545793d31033e801b5219abf56c11a3cf3406ca590e4c14b0dab749d20862b3adc4709153c280c2a78be10c"}, "vout": 1, "txid": "053a3ec45319623eb68e6db1de34386c9db3f5c62b858b229269c843b77b68d7"}], "txid": "385bce35986a28c7c23842d9c67bf9dc78cde205bd00c0283f8985ece27585c5", "blocktime": 1537876114, "version": 2, "confirmations": 11459, "time": 1537876114, "locktime": 0, "vsize": 386, "size": 386}