{"hash": "bc4496fead3b618baa86149fd5a36ca7b3f2257be868c57440fe7fd9d732a1b0", "blockhash": "000000000000000000022b45ed06c6f4ccd3cf7fb5ba4856ebd2e58215665228", "vout": [{"scriptPubKey": {"reqSigs": 1, "hex": "76a914624a515bc2c276ec968e0a9a75ccf3bc32fe449188ac", "addresses": ["19xiFVV3ieEnwrQ5mr86ijE82drXJLbaE9"], "asm": "OP_DUP OP_HASH160 624a515bc2c276ec968e0a9a75ccf3bc32fe4491 OP_EQUALVERIFY OP_CHECKSIG", "type": "pubkeyhash"}, "value": 0.01696986, "n": 0}, {"scriptPubKey": {"reqSigs": 1, "hex": "a91410e2edc0aa0a45c2cbbe8b10b07c5e21a9c0786087", "addresses": ["33EJatym4iZE6LNRN8Fvt1oHcxJ8cMEsuD"], "asm": "OP_HASH160 10e2edc0aa0a45c2cbbe8b10b07c5e21a9c07860 OP_EQUAL", "type": "scripthash"}, "value": 0.0182043, "n": 1}, {"scriptPubKey": {"reqSigs": 1, "hex": "76a914f59aec03264f791443b756e035f571c263e9df6388ac", "addresses": ["1PPe9AREQTTheJ4Y3vsor44AoaioYbn39o"], "asm": "OP_DUP OP_HASH160 f59aec03264f791443b756e035f571c263e9df63 OP_EQUALVERIFY OP_CHECKSIG", "type": "pubkeyhash"}, "value": 0.14807447, "n": 2}, {"scriptPubKey": {"reqSigs": 1, "hex": "a9144dd4d00d790a6e564e5d880e72157b921fd43d6187", "addresses": ["38nYtoPpfZjbHMmxakoWH9YnbAUW6Ss6cY"], "asm": "OP_HASH160 4dd4d00d790a6e564e5d880e72157b921fd43d61 OP_EQUAL", "type": "scripthash"}, "value": 0.00032, "n": 3}, {"scriptPubKey": {"reqSigs": 1, "hex": "a914ad5e94949c010ea0e10371d2f27cc3a11a4a405d87", "addresses": ["3HVi8HrC4Lkgb8LUrvYiojQEmryg57whR9"], "asm": "OP_HASH160 ad5e94949c010ea0e10371d2f27cc3a11a4a405d OP_EQUAL", "type": "scripthash"}, "value": 0.0238, "n": 4}, {"scriptPubKey": {"reqSigs": 1, "hex": "76a9145f7c5dc17c2537363d83e3f765d8f97b113a751988ac", "addresses": ["19htBLo6bT2pv9B2XKNugWRw4nc9Z6SLTS"], "asm": "OP_DUP OP_HASH160 5f7c5dc17c2537363d83e3f765d8f97b113a7519 OP_EQUALVERIFY OP_CHECKSIG", "type": "pubkeyhash"}, "value": 0.00642289, "n": 5}], "hex": "010000000001011d16c82e6af556ccc9c3489e7c60f337be00e2273320eaf63e6b953a0ffd626b03000000232200202d59095179e2aa503c967ee084d9c90a20ce54733046797c9dd0834838f48555ffffffff06dae41900000000001976a914624a515bc2c276ec968e0a9a75ccf3bc32fe449188ac0ec71b000000000017a91410e2edc0aa0a45c2cbbe8b10b07c5e21a9c078608797f1e100000000001976a914f59aec03264f791443b756e035f571c263e9df6388ac007d00000000000017a9144dd4d00d790a6e564e5d880e72157b921fd43d6187e05024000000000017a914ad5e94949c010ea0e10371d2f27cc3a11a4a405d87f1cc0900000000001976a9145f7c5dc17c2537363d83e3f765d8f97b113a751988ac04004830450221008d670924c0ed267a472d5e705bf3ea703dec60c920c58bbef1499037149013070220331990f8113e561e429b8b3d6ed6361168deed4a0aee8a48935cde92a04345fc0147304402201ebe8fb3f3934afe0ad1a28809bc523ea44d2d0fb59c1e824cda44ff0a5ea7f702206d68d72236acbaa2da792e3cbc357f4032babe8d6ed1350da2c527204f39f2760169522103fea6dafebdba026dbd8475995988d28824bdff97ede0d1321cc5c9e7469657bc21032e00f53748ad07ac88c267e805cf30a87aa699e8adc63407193dcdc24076632b21022795d08269e423a53ff0adced181f835b84d37bc33bf972ef71f92247efcdc5e53ae00000000", "vin": [{"txinwitness": ["", "30450221008d670924c0ed267a472d5e705bf3ea703dec60c920c58bbef1499037149013070220331990f8113e561e429b8b3d6ed6361168deed4a0aee8a48935cde92a04345fc01", "304402201ebe8fb3f3934afe0ad1a28809bc523ea44d2d0fb59c1e824cda44ff0a5ea7f702206d68d72236acbaa2da792e3cbc357f4032babe8d6ed1350da2c527204f39f27601", "522103fea6dafebdba026dbd8475995988d28824bdff97ede0d1321cc5c9e7469657bc21032e00f53748ad07ac88c267e805cf30a87aa699e8adc63407193dcdc24076632b21022795d08269e423a53ff0adced181f835b84d37bc33bf972ef71f92247efcdc5e53ae"], "sequence": 4294967295, "scriptSig": {"hex": "2200202d59095179e2aa503c967ee084d9c90a20ce54733046797c9dd0834838f48555", "asm": "00202d59095179e2aa503c967ee084d9c90a20ce54733046797c9dd0834838f48555"}, "vout": 3, "txid": "6b62fd0f3a956b3ef6ea203327e200be37f3607c9e48c3c9cc56f56a2ec8161d"}], "txid": "385dc613a8f31adae8fbdc1e56ea702fbd395853541281cb305bb9d13ade7d01", "blocktime": 1537869901, "version": 1, "confirmations": 11524, "time": 1537869901, "locktime": 0, "vsize": 348, "size": 539}