{"hash": "385fa3f892f16769d17939315b8e8c56aa1fd2b65619d57a98a2deb335bb86e6", "blockhash": "0000000000000000001cda96e906b7601b7a6fb1a3b62bca570a9e5d8f4b3de1", "vout": [{"scriptPubKey": {"reqSigs": 1, "hex": "a9143f4eecba122ad73039d481c8d37f99cb4f887cd887", "addresses": ["37Tm3Qz8Zw2VJrheUUhArDAoq58S6YrS3g"], "asm": "OP_HASH160 3f4eecba122ad73039d481c8d37f99cb4f887cd8 OP_EQUAL", "type": "scripthash"}, "value": 1.0, "n": 0}, {"scriptPubKey": {"reqSigs": 1, "hex": "a9147be34254895db9a9577f5b960266e953595ff0dc87", "addresses": ["3Cz5HNtMwJccb1UfaaDWwcuZoetGXrRw3k"], "asm": "OP_HASH160 7be34254895db9a9577f5b960266e953595ff0dc OP_EQUAL", "type": "scripthash"}, "value": 8.03097104, "n": 1}], "hex": "0100000001879384b623d01b5cbef12133811d1a32b1b4d558a62dafca5519be95869b532301000000fdfd0000483045022100932f05a9a3a127d7e2d3c161b19d01cb1fd96d9492938edeb0bb686fd0178497022056e13ae651366cb072e1ea3b224f3b1e3fe2b10b8c5acb6f613db47320c4fd4901473044022051d8e76224af7680747b7347516bdc84a4ebd373d2a5cbe85e46526add3c576c02207d604f6d37e64f3236d4fa03e78d67700ea5a4fbe66e6194359eed945eb9f6c3014c69522102c033d6c2b3d1d7f48caa65ff31218b9b018ea4cd7305956809599adfe7bb83232102b342cd26f021a5beac9167a2ae53f6caed713137afc9240ff6d0985f802a20dd2103c9d4e651e9efc6aa5e71d5c9b39c86288b938c32a0b5da15b90791f18ebb70f853aeffffffff0200e1f5050000000017a9143f4eecba122ad73039d481c8d37f99cb4f887cd887104ade2f0000000017a9147be34254895db9a9577f5b960266e953595ff0dc8700000000", "vin": [{"sequence": 4294967295, "scriptSig": {"hex": "00483045022100932f05a9a3a127d7e2d3c161b19d01cb1fd96d9492938edeb0bb686fd0178497022056e13ae651366cb072e1ea3b224f3b1e3fe2b10b8c5acb6f613db47320c4fd4901473044022051d8e76224af7680747b7347516bdc84a4ebd373d2a5cbe85e46526add3c576c02207d604f6d37e64f3236d4fa03e78d67700ea5a4fbe66e6194359eed945eb9f6c3014c69522102c033d6c2b3d1d7f48caa65ff31218b9b018ea4cd7305956809599adfe7bb83232102b342cd26f021a5beac9167a2ae53f6caed713137afc9240ff6d0985f802a20dd2103c9d4e651e9efc6aa5e71d5c9b39c86288b938c32a0b5da15b90791f18ebb70f853ae", "asm": "0 3045022100932f05a9a3a127d7e2d3c161b19d01cb1fd96d9492938edeb0bb686fd0178497022056e13ae651366cb072e1ea3b224f3b1e3fe2b10b8c5acb6f613db47320c4fd49[ALL] 3044022051d8e76224af7680747b7347516bdc84a4ebd373d2a5cbe85e46526add3c576c02207d604f6d37e64f3236d4fa03e78d67700ea5a4fbe66e6194359eed945eb9f6c3[ALL] 522102c033d6c2b3d1d7f48caa65ff31218b9b018ea4cd7305956809599adfe7bb83232102b342cd26f021a5beac9167a2ae53f6caed713137afc9240ff6d0985f802a20dd2103c9d4e651e9efc6aa5e71d5c9b39c86288b938c32a0b5da15b90791f18ebb70f853ae"}, "vout": 1, "txid": "23539b8695be1955caaf2da658d5b4b1321a1d813321f1be5c1bd023b6849387"}], "txid": "385fa3f892f16769d17939315b8e8c56aa1fd2b65619d57a98a2deb335bb86e6", "blocktime": 1537873282, "version": 1, "confirmations": 11481, "time": 1537873282, "locktime": 0, "vsize": 370, "size": 370}