{"hash": "38685ab229689f42b85a773c94bb387d07dc536798b2f7a6e905ccbf3456e9b6", "blockhash": "00000000000000000017f5eb5941039fbcee6240d03bc1f2f8e35350df66a1d8", "vout": [{"scriptPubKey": {"reqSigs": 1, "hex": "76a914a58dbee69bdf8a98a5abc22828670b3c9b23c8a888ac", "addresses": ["1G6NJKMDAnpffrGBa33964DAkYzUmEoXjU"], "asm": "OP_DUP OP_HASH160 a58dbee69bdf8a98a5abc22828670b3c9b23c8a8 OP_EQUALVERIFY OP_CHECKSIG", "type": "pubkeyhash"}, "value": 0.04719929, "n": 0}, {"scriptPubKey": {"reqSigs": 1, "hex": "76a914e34cb1fbc52581254a39e55989ae55529fde39ea88ac", "addresses": ["1MirGRdsmMT2jdCqoLTwNgZf899tt3VAAQ"], "asm": "OP_DUP OP_HASH160 e34cb1fbc52581254a39e55989ae55529fde39ea OP_EQUALVERIFY OP_CHECKSIG", "type": "pubkeyhash"}, "value": 0.1077405, "n": 1}], "hex": "0100000001a88418b8955e37edeab121a3ddee6a7f096177254999624dae8e63869567029a010000006a473044022040967f52adec1b09e218c84b6d8907cd8688846ffc7fc8bfbb1dc012f703b6df022050815ae5ae2abc612400e72cf3b7971eb7a42c07cac07175e1b9862a0a004d460121033d769351846f1c17773e21641e03d7029c9c26206a13a5d4d6a9a5150b251441fdffffff0239054800000000001976a914a58dbee69bdf8a98a5abc22828670b3c9b23c8a888ac2266a400000000001976a914e34cb1fbc52581254a39e55989ae55529fde39ea88ac00000000", "vin": [{"sequence": 4294967293, "scriptSig": {"hex": "473044022040967f52adec1b09e218c84b6d8907cd8688846ffc7fc8bfbb1dc012f703b6df022050815ae5ae2abc612400e72cf3b7971eb7a42c07cac07175e1b9862a0a004d460121033d769351846f1c17773e21641e03d7029c9c26206a13a5d4d6a9a5150b251441", "asm": "3044022040967f52adec1b09e218c84b6d8907cd8688846ffc7fc8bfbb1dc012f703b6df022050815ae5ae2abc612400e72cf3b7971eb7a42c07cac07175e1b9862a0a004d46[ALL] 033d769351846f1c17773e21641e03d7029c9c26206a13a5d4d6a9a5150b251441"}, "vout": 1, "txid": "9a02679586638eae4d629949257761097f6aeedda321b1eaed375e95b81884a8"}], "txid": "38685ab229689f42b85a773c94bb387d07dc536798b2f7a6e905ccbf3456e9b6", "blocktime": 1537874412, "version": 1, "confirmations": 11467, "time": 1537874412, "locktime": 0, "vsize": 225, "size": 225}