{"hash": "4c26c90a0b2e2e79948c75bb01532b8272f19b4b750d78701b518bb3a1a69f8d", "blockhash": "0000000000000000000e13cef7c366c0283d82e591d1acd082e914b08063cdf1", "vout": [{"scriptPubKey": {"reqSigs": 1, "hex": "76a9142c8bd6ad0cf8d72fa2b4652499b33eb2dc63b63c88ac", "addresses": ["154YFbXWbyq6DfgzJREPoyTgCdTKwPC3pt"], "asm": "OP_DUP OP_HASH160 2c8bd6ad0cf8d72fa2b4652499b33eb2dc63b63c OP_EQUALVERIFY OP_CHECKSIG", "type": "pubkeyhash"}, "value": 0.0194, "n": 0}, {"scriptPubKey": {"reqSigs": 1, "hex": "76a91431a7106705b4ba5bd46a3e4ae82b92d7e9b640d688ac", "addresses": ["15XYFDTxoopHnsQTAnDLq8kC4WB8fsVvXT"], "asm": "OP_DUP OP_HASH160 31a7106705b4ba5bd46a3e4ae82b92d7e9b640d6 OP_EQUALVERIFY OP_CHECKSIG", "type": "pubkeyhash"}, "value": 0.03881825, "n": 1}, {"scriptPubKey": {"reqSigs": 1, "hex": "76a914519d01622470d38f47ec8b3231c0fd59e7ec591d88ac", "addresses": ["18SXpTy9Hift81NK6QjCBP4AjLaoNStzvd"], "asm": "OP_DUP OP_HASH160 519d01622470d38f47ec8b3231c0fd59e7ec591d OP_EQUALVERIFY OP_CHECKSIG", "type": "pubkeyhash"}, "value": 0.204843, "n": 2}, {"scriptPubKey": {"reqSigs": 1, "hex": "a91469f37516fb7ad5cf7a1120926f86011e6f5ed20787", "addresses": ["3BMEXQEZ2Hq493cLx7z5VK4FtDHpxwGc45"], "asm": "OP_HASH160 69f37516fb7ad5cf7a1120926f86011e6f5ed207 OP_EQUAL", "type": "scripthash"}, "value": 0.00181646, "n": 3}, {"scriptPubKey": {"reqSigs": 1, "hex": "76a9143b75fb92ded656f51480c99e47a2173efa457d4c88ac", "addresses": ["16RQCuDu7aoibcQza6kDyz2mDKb5yt2QGe"], "asm": "OP_DUP OP_HASH160 3b75fb92ded656f51480c99e47a2173efa457d4c OP_EQUALVERIFY OP_CHECKSIG", "type": "pubkeyhash"}, "value": 0.0093745, "n": 4}, {"scriptPubKey": {"reqSigs": 1, "hex": "76a914d8433e63d18d00279a3eeaa8cab4d6aba4d1acca88ac", "addresses": ["1LiVWcQ2QUqeoKZpnuaNCRQMehMnXB2epm"], "asm": "OP_DUP OP_HASH160 d8433e63d18d00279a3eeaa8cab4d6aba4d1acca OP_EQUALVERIFY OP_CHECKSIG", "type": "pubkeyhash"}, "value": 1.83114032, "n": 5}, {"scriptPubKey": {"reqSigs": 1, "hex": "76a9142748da74bf2886eef5c2c98287d3b4aa28039ff988ac", "addresses": ["14aidRPSRQutNL9FiCu9m5yzEtvyGqiHy6"], "asm": "OP_DUP OP_HASH160 2748da74bf2886eef5c2c98287d3b4aa28039ff9 OP_EQUALVERIFY OP_CHECKSIG", "type": "pubkeyhash"}, "value": 0.0173701, "n": 6}, {"scriptPubKey": {"reqSigs": 1, "hex": "a91469f3758ce53a1d0e66e6abf6adf414925bfb78f787", "addresses": ["3BMEXXV6EmtWb8Quq5yx8rnt5znR5ENCEw"], "asm": "OP_HASH160 69f3758ce53a1d0e66e6abf6adf414925bfb78f7 OP_EQUAL", "type": "scripthash"}, "value": 0.11, "n": 7}, {"scriptPubKey": {"reqSigs": 1, "hex": "a9143f1cb420a9d8c9bedefcca6e5ce9fff87bbd319287", "addresses": ["37SiszUdPRc7Df7NLLw7ehpGDwKxu7MaJf"], "asm": "OP_HASH160 3f1cb420a9d8c9bedefcca6e5ce9fff87bbd3192 OP_EQUAL", "type": "scripthash"}, "value": 0.0279108, "n": 8}, {"scriptPubKey": {"reqSigs": 1, "hex": "76a91456a39a1bad8fbcce190a36c9500d000e73696d9f88ac", "addresses": ["18u76mEQ9i7F1eacDPBRhLQ3zsfGWK3Wn5"], "asm": "OP_DUP OP_HASH160 56a39a1bad8fbcce190a36c9500d000e73696d9f OP_EQUALVERIFY OP_CHECKSIG", "type": "pubkeyhash"}, "value": 0.031, "n": 9}, {"scriptPubKey": {"reqSigs": 1, "hex": "76a914ba4e72e0ff117d4429fc7834a9dce3a71801ff0b88ac", "addresses": ["1Hz6fPuKrmaiKenNQSGdiCwRGzMLbS5dKr"], "asm": "OP_DUP OP_HASH160 ba4e72e0ff117d4429fc7834a9dce3a71801ff0b OP_EQUALVERIFY OP_CHECKSIG", "type": "pubkeyhash"}, "value": 0.01616109, "n": 10}, {"scriptPubKey": {"reqSigs": 1, "hex": "76a9149f3bc22257cadff5e1841c565f35a20b1e38345488ac", "addresses": ["1FWx2apP24o7QFz1opw8NXH1uNAJvhwUWt"], "asm": "OP_DUP OP_HASH160 9f3bc22257cadff5e1841c565f35a20b1e383454 OP_EQUALVERIFY OP_CHECKSIG", "type": "pubkeyhash"}, "value": 0.03333049, "n": 11}, {"scriptPubKey": {"reqSigs": 1, "hex": "a914658c2a6720a5003605b26a6b829883629ef3992887", "addresses": ["3Awx5oDuXUonYdUA9Qy8kaToivoc6Neoak"], "asm": "OP_HASH160 658c2a6720a5003605b26a6b829883629ef39928 OP_EQUAL", "type": "scripthash"}, "value": 0.04477595, "n": 12}, {"scriptPubKey": {"reqSigs": 1, "hex": "a914276d0737a54361f65dde3976fc7cfbb039f79f2b87", "addresses": ["35HUtSHbVH1H6mfNxNovPemJk7Gi5i22dU"], "asm": "OP_HASH160 276d0737a54361f65dde3976fc7cfbb039f79f2b OP_EQUAL", "type": "scripthash"}, "value": 6.22226185, "n": 13}, {"scriptPubKey": {"reqSigs": 1, "hex": "76a914ac5e98c42f0a85e78e73a52283611a0306f8b35f88ac", "addresses": ["1GiQYh8DPUydNDXyaoXEfo32YCujtmB3u9"], "asm": "OP_DUP OP_HASH160 ac5e98c42f0a85e78e73a52283611a0306f8b35f OP_EQUALVERIFY OP_CHECKSIG", "type": "pubkeyhash"}, "value": 0.02635887, "n": 14}, {"scriptPubKey": {"reqSigs": 1, "hex": "76a91454ba20e11935dcba8ced3797fa796608d0f0888788ac", "addresses": ["18izjYZRYYXhgYPjU3QA7vXo2iXChDrWSi"], "asm": "OP_DUP OP_HASH160 54ba20e11935dcba8ced3797fa796608d0f08887 OP_EQUALVERIFY OP_CHECKSIG", "type": "pubkeyhash"}, "value": 0.14745098, "n": 15}, {"scriptPubKey": {"reqSigs": 1, "hex": "a914a6d1a1ac39ff140d17b89ee8cb99013c8babc2be87", "addresses": ["3Gu5DqnaK3a1iAoFt7bzq9JNyS4sti8Ymm"], "asm": "OP_HASH160 a6d1a1ac39ff140d17b89ee8cb99013c8babc2be OP_EQUAL", "type": "scripthash"}, "value": 0.00105158, "n": 16}, {"scriptPubKey": {"reqSigs": 1, "hex": "a914695147446373a43fdb94a0d44668632c1bd7b79c87", "addresses": ["3BHtF1Noy6EwmqNVHuNLV5MrWfjoXFSrVW"], "asm": "OP_HASH160 695147446373a43fdb94a0d44668632c1bd7b79c OP_EQUAL", "type": "scripthash"}, "value": 0.0433623, "n": 17}, {"scriptPubKey": {"reqSigs": 1, "hex": "76a914b7000f21da0c51f57e60d21e549ff4cbb32b839988ac", "addresses": ["1HgcjDJEwe6KBTnEoXURL6UNscdpw9Vehm"], "asm": "OP_DUP OP_HASH160 b7000f21da0c51f57e60d21e549ff4cbb32b8399 OP_EQUALVERIFY OP_CHECKSIG", "type": "pubkeyhash"}, "value": 5.0, "n": 18}, {"scriptPubKey": {"reqSigs": 1, "hex": "76a914673ca7d2bc3561d53775352535b97f07476afa2388ac", "addresses": ["1AQsGBUoUKkmCF6MsLWYNqf1KNdtYAc8kk"], "asm": "OP_DUP OP_HASH160 673ca7d2bc3561d53775352535b97f07476afa23 OP_EQUALVERIFY OP_CHECKSIG", "type": "pubkeyhash"}, "value": 0.281, "n": 19}, {"scriptPubKey": {"reqSigs": 1, "hex": "a91441123b7ff345fd14c83560d79c007c0c75a5e10087", "addresses": ["37d5gpihtZMUCGhYQX5CREfxLhRX3j9U4U"], "asm": "OP_HASH160 41123b7ff345fd14c83560d79c007c0c75a5e100 OP_EQUAL", "type": "scripthash"}, "value": 4.8812805, "n": 20}, {"scriptPubKey": {"reqSigs": 1, "hex": "76a91481aa4f3123037203a9368f642d217a562a8f828588ac", "addresses": ["1CpcC3iK7D19bpcVocudRPSTQwFsCfMfnE"], "asm": "OP_DUP OP_HASH160 81aa4f3123037203a9368f642d217a562a8f8285 OP_EQUALVERIFY OP_CHECKSIG", "type": "pubkeyhash"}, "value": 0.01, "n": 21}, {"scriptPubKey": {"reqSigs": 1, "hex": "a91469f3755c9a740df1d9036563b3d1b917fa39d93987", "addresses": ["3BMEXUWresV42rdDiwyaHNiF2h65431qTT"], "asm": "OP_HASH160 69f3755c9a740df1d9036563b3d1b917fa39d939 OP_EQUAL", "type": "scripthash"}, "value": 0.01913044, "n": 22}, {"scriptPubKey": {"reqSigs": 1, "hex": "a9143ca05fddf97583c409abcd26fbb1acd9f09bf60787", "addresses": ["37Dab4tXALLGVADYhKRoNbxfQ6UL4rYGuc"], "asm": "OP_HASH160 3ca05fddf97583c409abcd26fbb1acd9f09bf607 OP_EQUAL", "type": "scripthash"}, "value": 0.06, "n": 23}, {"scriptPubKey": {"reqSigs": 1, "hex": "76a914aae7e296e7bf7a52c4b3e36da5565cb4539cda5f88ac", "addresses": ["1GaffGk5gFEphpson39DeEnFHgxcuvBKvY"], "asm": "OP_DUP OP_HASH160 aae7e296e7bf7a52c4b3e36da5565cb4539cda5f OP_EQUALVERIFY OP_CHECKSIG", "type": "pubkeyhash"}, "value": 0.02939151, "n": 24}, {"scriptPubKey": {"reqSigs": 1, "hex": "76a9144552c23842183469e80098481c57f425ccb23f5788ac", "addresses": ["17KYmQkmaXfvbJADe5Q655tY2zpuyFqtst"], "asm": "OP_DUP OP_HASH160 4552c23842183469e80098481c57f425ccb23f57 OP_EQUALVERIFY OP_CHECKSIG", "type": "pubkeyhash"}, "value": 0.00313725, "n": 25}, {"scriptPubKey": {"reqSigs": 1, "hex": "76a914a0cc73e73343c1f6f7eed25ee9ff0f5fcd0bd65788ac", "addresses": ["1FfE3KVFFRCWNDKVBeZRrouRkEDDDU6qz5"], "asm": "OP_DUP OP_HASH160 a0cc73e73343c1f6f7eed25ee9ff0f5fcd0bd657 OP_EQUALVERIFY OP_CHECKSIG", "type": "pubkeyhash"}, "value": 1.4, "n": 26}, {"scriptPubKey": {"reqSigs": 1, "hex": "76a9148c742e3f9412c23236f1f11943c44957c8f7186888ac", "addresses": ["1DoenELHDNrEnjWRYFEcRAo2rKnwGhCwpm"], "asm": "OP_DUP OP_HASH160 8c742e3f9412c23236f1f11943c44957c8f71868 OP_EQUALVERIFY OP_CHECKSIG", "type": "pubkeyhash"}, "value": 0.00791087, "n": 27}, {"scriptPubKey": {"reqSigs": 1, "hex": "a9140ed50f27baa32eceda0af4c2d7621dcff0ddbd4887", "addresses": ["333Scqo9227g1jepZEs5KH35EqgQCyHUXk"], "asm": "OP_HASH160 0ed50f27baa32eceda0af4c2d7621dcff0ddbd48 OP_EQUAL", "type": "scripthash"}, "value": 0.00190929, "n": 28}, {"scriptPubKey": {"reqSigs": 1, "hex": "76a9144a47a9d34e2765fe4cdd5dd3f5b1923ca9b5e6a988ac", "addresses": ["17mkrTMg4Uj5LZiWMDnqyE9TYGakwpVrtW"], "asm": "OP_DUP OP_HASH160 4a47a9d34e2765fe4cdd5dd3f5b1923ca9b5e6a9 OP_EQUALVERIFY OP_CHECKSIG", "type": "pubkeyhash"}, "value": 0.00885556, "n": 29}, {"scriptPubKey": {"reqSigs": 1, "hex": "76a91484132c4c49c62f29f5d0101a96c09dc688e8141988ac", "addresses": ["1D3MAVHhpfw9ChCYY7kxqLpZyxxnr4ddpy"], "asm": "OP_DUP OP_HASH160 84132c4c49c62f29f5d0101a96c09dc688e81419 OP_EQUALVERIFY OP_CHECKSIG", "type": "pubkeyhash"}, "value": 0.05, "n": 30}, {"scriptPubKey": {"reqSigs": 1, "hex": "76a914bd4ec0267b9313fb363befd513f9a22bb45ce83688ac", "addresses": ["1JFy3wg9ppDmxEXgvuqAfRoWp94gpj2uuL"], "asm": "OP_DUP OP_HASH160 bd4ec0267b9313fb363befd513f9a22bb45ce836 OP_EQUALVERIFY OP_CHECKSIG", "type": "pubkeyhash"}, "value": 0.00181826, "n": 31}, {"scriptPubKey": {"reqSigs": 1, "hex": "a91422656dd4ecca8d98b03319db3851bb048b4624ed87", "addresses": ["34ptQUi81Po8EcJyE7TBPX1v1zHuR3YoAp"], "asm": "OP_HASH160 22656dd4ecca8d98b03319db3851bb048b4624ed OP_EQUAL", "type": "scripthash"}, "value": 0.016, "n": 32}, {"scriptPubKey": {"reqSigs": 1, "hex": "a91469f374b2bb4a31ad2a6038c8fdf37d2fff002e5a87", "addresses": ["3BMEXJ51PtksiSLFVJu8UoVyak6DZYSkfZ"], "asm": "OP_HASH160 69f374b2bb4a31ad2a6038c8fdf37d2fff002e5a OP_EQUAL", "type": "scripthash"}, "value": 0.035185, "n": 33}, {"scriptPubKey": {"reqSigs": 1, "hex": "76a914322c07fdce3abfe6f345a1e8c730c509a95c6b5b88ac", "addresses": ["15aHXwBEuGxqDz2a8wUoPJ9WM7aCcW7mKL"], "asm": "OP_DUP OP_HASH160 322c07fdce3abfe6f345a1e8c730c509a95c6b5b OP_EQUALVERIFY OP_CHECKSIG", "type": "pubkeyhash"}, "value": 0.00315474, "n": 34}, {"scriptPubKey": {"reqSigs": 1, "hex": "76a91451a3b8e7b52e1321d9997d5d586b6cb4f7fafdb588ac", "addresses": ["18SfsAQHWbiuNKARAB7tAibEDhgFTS8CZF"], "asm": "OP_DUP OP_HASH160 51a3b8e7b52e1321d9997d5d586b6cb4f7fafdb5 OP_EQUALVERIFY OP_CHECKSIG", "type": "pubkeyhash"}, "value": 0.3699, "n": 35}, {"scriptPubKey": {"reqSigs": 1, "hex": "76a914d979417ab08efc58df0739bc8010ea4f47f893bd88ac", "addresses": ["1LpttdL9PeUSQeDQzS9LSieJ6bWvG9qM66"], "asm": "OP_DUP OP_HASH160 d979417ab08efc58df0739bc8010ea4f47f893bd OP_EQUALVERIFY OP_CHECKSIG", "type": "pubkeyhash"}, "value": 0.01481832, "n": 36}, {"scriptPubKey": {"reqSigs": 1, "hex": "76a914bc9d27f1ef35539d29f289b6c3e37d9d52c5075a88ac", "addresses": ["1JCJJTVy4o7g832p1DhpLA3kJE2drGd9Tg"], "asm": "OP_DUP OP_HASH160 bc9d27f1ef35539d29f289b6c3e37d9d52c5075a OP_EQUALVERIFY OP_CHECKSIG", "type": "pubkeyhash"}, "value": 0.0140246, "n": 37}], "hex": "01000000000108ff6b106af5bc142266c3f97850248f76be4cd797163b17692013dec348e29f3c010000002322002078d751c5fdcd44eb7fef8dfa5bf7666e668d61dab6b9c920f91f6692ec9b5f6dffffffff8fc30f222eafd5480841ee3806b8dd0f711c5802e292ce1ebdef7e3a59c672db000000002322002095ee0bfdd77a68903d4033f58ad1de06a24fd29a335053e39bbf130a0ee0923effffffff842f738a51d433801470da09ef2e0cd8336a80921fe9508af05e1705e1ffd93601000000fdfd0000473044022039ee56efe1f44a680fe19694638b6988c8988e5c5b3ea5aa0b47230b4605cbf0022022a35267885672ee82a701d138d146a922deed36c6b95e72913b623ced0c745a01483045022100816ee776f175be84cb5ac8524bab21efd1a7e3209bd82189cf51b5ac5e49059d02202f196f371b63bb52592a671909baa1c06c20be23da4668dc18a98bdbedd0aa05014c695221036be9a4e572015d0e43919ae4aac31b995c12b09b6c399542c024e92218c233602103d66a67b34c904675d2d98b80c8bb6f841d89eb8af5d11e445cb283ac45a3a3172103670fa13b2b0165bc9b8340ac43ab508c0bd6b2fba9b582c7fe816ee054efa57253aeffffffffef751c31eb0a6bceb404f0ec76104a52870a16a36f35a349c9d4c2526c7f91d736000000fc0047304402202f5b1e7765c3bfe04fa2c7c066edd285847a32ee1f7de58126b8e3addf14c7e202206e6ed2f5ad04b406b188695b44384e524c4b0c2cb53ee492ba070a7d9e697a6f0147304402200ac08aa161f51b851062f086ab35cc4a5060626432b19dd8a98acca005ee1e200220394f555ecfdfb3d419f84ce4efeeb827f06309de03a269556de4511b1210e9cc014c695221036be9a4e572015d0e43919ae4aac31b995c12b09b6c399542c024e92218c233602103d66a67b34c904675d2d98b80c8bb6f841d89eb8af5d11e445cb283ac45a3a3172103670fa13b2b0165bc9b8340ac43ab508c0bd6b2fba9b582c7fe816ee054efa57253aeffffffffec0bbc5d37b2b35d58ce9f6d721ee45e518cb748f7a923f599ac6f857037c3ad010000002322002011982ca132e21ac97831673abea50cdedaf306a4e877cef1cf3b3bb5ccb22be8ffffffff4f8bd68c5be2a9f0805d13e9a6fe54fe9321f379a54bc81ecdedcf3d89629938000000002322002095ee0bfdd77a68903d4033f58ad1de06a24fd29a335053e39bbf130a0ee0923effffffff1af80a51c44a079a736152a4d1923e150f9c493eca004a50a33e48e4c71ac3a51c000000232200206972d954d8db37efa656af93b0ee38faeb184d0a67b599230969e7c5bb31ef82ffffffff7035106928b2ae28fef07190627c67c31fee40c2908307196f3941fe903b21f101000000fc0047304402206df20737db8127c9e043a770a48239688b86ff3ec8e60b32e4da6544a32e49e302204a457eb15e027cb4d992de9188ebea9380e60aad7b17aef39ddfe6b9163f548e0147304402207e04c065b15a2cfb82cc16edab34586aa6a80a0e3668a144d9bd88b08bf04a28022004b20446b1d7d88ab750c6b5d7f6c91c2cdf805b3ca01315e6469af210d3b7c8014c69522102a57dcca3f3ef0795221a8d2d5cbafa189e726ec99043601e0875d67f44beed5b2102b1fa19cc47687d0760324377c1e3d21dd409de91347e8f0abb076407df8558ad2103984d4c09322dfa0427df93ff6dd2c9eaf6b4b5ac6a6d7017ec192465ea35aa3f53aeffffffff26209a1d00000000001976a9142c8bd6ad0cf8d72fa2b4652499b33eb2dc63b63c88ac613b3b00000000001976a91431a7106705b4ba5bd46a3e4ae82b92d7e9b640d688accc903801000000001976a914519d01622470d38f47ec8b3231c0fd59e7ec591d88ac8ec502000000000017a91469f37516fb7ad5cf7a1120926f86011e6f5ed20787ea4d0e00000000001976a9143b75fb92ded656f51480c99e47a2173efa457d4c88ac3019ea0a000000001976a914d8433e63d18d00279a3eeaa8cab4d6aba4d1acca88ac32811a00000000001976a9142748da74bf2886eef5c2c98287d3b4aa28039ff988acc0d8a7000000000017a91469f3758ce53a1d0e66e6abf6adf414925bfb78f787a8962a000000000017a9143f1cb420a9d8c9bedefcca6e5ce9fff87bbd319287604d2f00000000001976a91456a39a1bad8fbcce190a36c9500d000e73696d9f88aceda81800000000001976a914ba4e72e0ff117d4429fc7834a9dce3a71801ff0b88acb9db3200000000001976a9149f3bc22257cadff5e1841c565f35a20b1e38345488ac9b5244000000000017a914658c2a6720a5003605b26a6b829883629ef3992887096b16250000000017a914276d0737a54361f65dde3976fc7cfbb039f79f2b876f382800000000001976a914ac5e98c42f0a85e78e73a52283611a0306f8b35f88ac0afee000000000001976a91454ba20e11935dcba8ced3797fa796608d0f0888788acc69a01000000000017a914a6d1a1ac39ff140d17b89ee8cb99013c8babc2be87662a42000000000017a914695147446373a43fdb94a0d44668632c1bd7b79c870065cd1d000000001976a914b7000f21da0c51f57e60d21e549ff4cbb32b839988aca0c5ac01000000001976a914673ca7d2bc3561d53775352535b97f07476afa2388ac323e181d0000000017a91441123b7ff345fd14c83560d79c007c0c75a5e1008740420f00000000001976a91481aa4f3123037203a9368f642d217a562a8f828588acd4301d000000000017a91469f3755c9a740df1d9036563b3d1b917fa39d93987808d5b000000000017a9143ca05fddf97583c409abcd26fbb1acd9f09bf607870fd92c00000000001976a914aae7e296e7bf7a52c4b3e36da5565cb4539cda5f88ac7dc90400000000001976a9144552c23842183469e80098481c57f425ccb23f5788ac003b5808000000001976a914a0cc73e73343c1f6f7eed25ee9ff0f5fcd0bd65788ac2f120c00000000001976a9148c742e3f9412c23236f1f11943c44957c8f7186888acd1e902000000000017a9140ed50f27baa32eceda0af4c2d7621dcff0ddbd488734830d00000000001976a9144a47a9d34e2765fe4cdd5dd3f5b1923ca9b5e6a988ac404b4c00000000001976a91484132c4c49c62f29f5d0101a96c09dc688e8141988ac42c60200000000001976a914bd4ec0267b9313fb363befd513f9a22bb45ce83688ac006a18000000000017a91422656dd4ecca8d98b03319db3851bb048b4624ed8724b035000000000017a91469f374b2bb4a31ad2a6038c8fdf37d2fff002e5a8752d00400000000001976a914322c07fdce3abfe6f345a1e8c730c509a95c6b5b88ac306c3402000000001976a91451a3b8e7b52e1321d9997d5d586b6cb4f7fafdb588ac689c1600000000001976a914d979417ab08efc58df0739bc8010ea4f47f893bd88ac5c661500000000001976a914bc9d27f1ef35539d29f289b6c3e37d9d52c5075a88ac040047304402205e9ec562cdcbe2fb17487fa3376f0d2f5d84572db1e2589173a9d99b6783d6e702205853542abb270feed9c51ef37acec8b06b6d9ab728522bac6b8dfdc29df985bd0147304402203f9c4a27c4bda9a1d1a308833619d04b36614402c4109969013053ab46925cf302202c44100a951f7c6c3e1122f9aa5d1feb856c3e3b11d5ef643210bf6e7359928201695221036fbe80fb7b5a3e0ec405ab84a13dcb80deb4a9d458f780a9bbacc2280e8ed68321032efe999c4b5d839764df4c72b5f48314bed5947a34924e9b0fc0f263309e9c82210333d7f46d559d3df512b471cfb1d38b7c5ddfe7be57ff1d63b8a0af226129205053ae0400483045022100a3f04da2a5fc0685748c958d3146e59ef3f672a61737676b2d223f815eb63de002206a9de5578a82c0bd6357d9a61a4f92efd0007950c485957e3a8b871789b570a20147304402204373450025e73550fcfdcc6bd037c47003eec0de734102b110b244a3da28d69c02200c4281f8d77a5da80a868e50a70092f92c651751411ab4fe298ca49e2430621501695221038b7f1e6633e9fdadcacb3b3c587863123ff9be5c8418bbdf92ec15b12ece7e6c21025fc7ed705b8c68d7af69b4c17b1b2bbf800f8ff53d681d3575cc21962a6183a32103e38641521c9ec1eff5137f5174e8646d918ecd82ab4fa3b2da47ba13fe685c7353ae00000400473044022055ca612504741e18737d3a2b83d69abe5907c961427f8784c714d08dd73c977a02205535ffb4a195ece09720fa33fa97ab3dae80e65b3cc123dc3466e7e7746544af01483045022100fc57a9199c04e7e094f158487e5119def138d4ade97a6bbc53e6f4355cd3bfae02206cdd6fe4751959d6b1844ec7126772fc8e2440c98233d0676d712cb6ac01ac220169522103748c66415ce8d6d7fabd89a05a63fa719fba11c9fed4e39421efa9154a5e87352102387d29e5004b8b2d5f025cf9fae0d01f6345d69c1b63349e038b3fc9ea1f1fd72103231617bef7fecf3617aca8f45d87d077a40e66b09f9f656d9e2fa84766f2272053ae0400483045022100a8acc2266b96ae0a33e6646f08a162929ba82156dcac62f1c83dc4f188972c79022000afa808ffc9d5384b218235e04e20f488bd296a71d9f596738782d18633fb0d01473044022021c4a945c0c7f7be3eed640444fcf1f21a72ae71f8e8fa4472d2b7dfe6c85f6a02202ac9d25ac71dc2a6f3060e66f5a245c4e32446b27a030fcdf0e799e4111d6a8301695221038b7f1e6633e9fdadcacb3b3c587863123ff9be5c8418bbdf92ec15b12ece7e6c21025fc7ed705b8c68d7af69b4c17b1b2bbf800f8ff53d681d3575cc21962a6183a32103e38641521c9ec1eff5137f5174e8646d918ecd82ab4fa3b2da47ba13fe685c7353ae0400483045022100d55c6c0edba7c486abcccd2833fe9d4baf8820aad25dcbc11dea03c1519247110220505012d26a5a9e68f695b2ce2359935ddc8632aa0b4edc25aab29ed5dcc36b7001473044022005666235e33b60cfa12c5028608cb0c0bd9a24e3d34abe7a186ba59bc5e2329702206061048fc05a4c84dd3164d0f592769a7b3f4b75df1b648e799f648ee6d5d93501695221033d61bfaab77c0776f80cebe65ae931d5d5fb1a26ccaba3c631a1850ed2e0cca121021bf58a3e3dbb9fece6e2f150c7613d1c95e2f95d37c92bfe41658ba055200f4f210229bb08b00d456ec45a8b35f7e1fd4bab86fbb4b18837e492c6b4e08b534165c253ae0000000000", "vin": [{"txinwitness": ["", "304402205e9ec562cdcbe2fb17487fa3376f0d2f5d84572db1e2589173a9d99b6783d6e702205853542abb270feed9c51ef37acec8b06b6d9ab728522bac6b8dfdc29df985bd01", "304402203f9c4a27c4bda9a1d1a308833619d04b36614402c4109969013053ab46925cf302202c44100a951f7c6c3e1122f9aa5d1feb856c3e3b11d5ef643210bf6e7359928201", "5221036fbe80fb7b5a3e0ec405ab84a13dcb80deb4a9d458f780a9bbacc2280e8ed68321032efe999c4b5d839764df4c72b5f48314bed5947a34924e9b0fc0f263309e9c82210333d7f46d559d3df512b471cfb1d38b7c5ddfe7be57ff1d63b8a0af226129205053ae"], "sequence": 4294967295, "scriptSig": {"hex": "22002078d751c5fdcd44eb7fef8dfa5bf7666e668d61dab6b9c920f91f6692ec9b5f6d", "asm": "002078d751c5fdcd44eb7fef8dfa5bf7666e668d61dab6b9c920f91f6692ec9b5f6d"}, "vout": 1, "txid": "3c9fe248c3de132069173b1697d74cbe768f245078f9c3662214bcf56a106bff"}, {"txinwitness": ["", "3045022100a3f04da2a5fc0685748c958d3146e59ef3f672a61737676b2d223f815eb63de002206a9de5578a82c0bd6357d9a61a4f92efd0007950c485957e3a8b871789b570a201", "304402204373450025e73550fcfdcc6bd037c47003eec0de734102b110b244a3da28d69c02200c4281f8d77a5da80a868e50a70092f92c651751411ab4fe298ca49e2430621501", "5221038b7f1e6633e9fdadcacb3b3c587863123ff9be5c8418bbdf92ec15b12ece7e6c21025fc7ed705b8c68d7af69b4c17b1b2bbf800f8ff53d681d3575cc21962a6183a32103e38641521c9ec1eff5137f5174e8646d918ecd82ab4fa3b2da47ba13fe685c7353ae"], "sequence": 4294967295, "scriptSig": {"hex": "22002095ee0bfdd77a68903d4033f58ad1de06a24fd29a335053e39bbf130a0ee0923e", "asm": "002095ee0bfdd77a68903d4033f58ad1de06a24fd29a335053e39bbf130a0ee0923e"}, "vout": 0, "txid": "db72c6593a7eefbd1ece92e202581c710fddb80638ee410848d5af2e220fc38f"}, {"sequence": 4294967295, "scriptSig": {"hex": "00473044022039ee56efe1f44a680fe19694638b6988c8988e5c5b3ea5aa0b47230b4605cbf0022022a35267885672ee82a701d138d146a922deed36c6b95e72913b623ced0c745a01483045022100816ee776f175be84cb5ac8524bab21efd1a7e3209bd82189cf51b5ac5e49059d02202f196f371b63bb52592a671909baa1c06c20be23da4668dc18a98bdbedd0aa05014c695221036be9a4e572015d0e43919ae4aac31b995c12b09b6c399542c024e92218c233602103d66a67b34c904675d2d98b80c8bb6f841d89eb8af5d11e445cb283ac45a3a3172103670fa13b2b0165bc9b8340ac43ab508c0bd6b2fba9b582c7fe816ee054efa57253ae", "asm": "0 3044022039ee56efe1f44a680fe19694638b6988c8988e5c5b3ea5aa0b47230b4605cbf0022022a35267885672ee82a701d138d146a922deed36c6b95e72913b623ced0c745a[ALL] 3045022100816ee776f175be84cb5ac8524bab21efd1a7e3209bd82189cf51b5ac5e49059d02202f196f371b63bb52592a671909baa1c06c20be23da4668dc18a98bdbedd0aa05[ALL] 5221036be9a4e572015d0e43919ae4aac31b995c12b09b6c399542c024e92218c233602103d66a67b34c904675d2d98b80c8bb6f841d89eb8af5d11e445cb283ac45a3a3172103670fa13b2b0165bc9b8340ac43ab508c0bd6b2fba9b582c7fe816ee054efa57253ae"}, "vout": 1, "txid": "36d9ffe105175ef08a50e91f92806a33d80c2eef09da70148033d4518a732f84"}, {"sequence": 4294967295, "scriptSig": {"hex": "0047304402202f5b1e7765c3bfe04fa2c7c066edd285847a32ee1f7de58126b8e3addf14c7e202206e6ed2f5ad04b406b188695b44384e524c4b0c2cb53ee492ba070a7d9e697a6f0147304402200ac08aa161f51b851062f086ab35cc4a5060626432b19dd8a98acca005ee1e200220394f555ecfdfb3d419f84ce4efeeb827f06309de03a269556de4511b1210e9cc014c695221036be9a4e572015d0e43919ae4aac31b995c12b09b6c399542c024e92218c233602103d66a67b34c904675d2d98b80c8bb6f841d89eb8af5d11e445cb283ac45a3a3172103670fa13b2b0165bc9b8340ac43ab508c0bd6b2fba9b582c7fe816ee054efa57253ae", "asm": "0 304402202f5b1e7765c3bfe04fa2c7c066edd285847a32ee1f7de58126b8e3addf14c7e202206e6ed2f5ad04b406b188695b44384e524c4b0c2cb53ee492ba070a7d9e697a6f[ALL] 304402200ac08aa161f51b851062f086ab35cc4a5060626432b19dd8a98acca005ee1e200220394f555ecfdfb3d419f84ce4efeeb827f06309de03a269556de4511b1210e9cc[ALL] 5221036be9a4e572015d0e43919ae4aac31b995c12b09b6c399542c024e92218c233602103d66a67b34c904675d2d98b80c8bb6f841d89eb8af5d11e445cb283ac45a3a3172103670fa13b2b0165bc9b8340ac43ab508c0bd6b2fba9b582c7fe816ee054efa57253ae"}, "vout": 54, "txid": "d7917f6c52c2d4c949a3356fa3160a87524a1076ecf004b4ce6b0aeb311c75ef"}, {"txinwitness": ["", "3044022055ca612504741e18737d3a2b83d69abe5907c961427f8784c714d08dd73c977a02205535ffb4a195ece09720fa33fa97ab3dae80e65b3cc123dc3466e7e7746544af01", "3045022100fc57a9199c04e7e094f158487e5119def138d4ade97a6bbc53e6f4355cd3bfae02206cdd6fe4751959d6b1844ec7126772fc8e2440c98233d0676d712cb6ac01ac2201", "522103748c66415ce8d6d7fabd89a05a63fa719fba11c9fed4e39421efa9154a5e87352102387d29e5004b8b2d5f025cf9fae0d01f6345d69c1b63349e038b3fc9ea1f1fd72103231617bef7fecf3617aca8f45d87d077a40e66b09f9f656d9e2fa84766f2272053ae"], "sequence": 4294967295, "scriptSig": {"hex": "22002011982ca132e21ac97831673abea50cdedaf306a4e877cef1cf3b3bb5ccb22be8", "asm": "002011982ca132e21ac97831673abea50cdedaf306a4e877cef1cf3b3bb5ccb22be8"}, "vout": 1, "txid": "adc33770856fac99f523a9f748b78c515ee41e726d9fce585db3b2375dbc0bec"}, {"txinwitness": ["", "3045022100a8acc2266b96ae0a33e6646f08a162929ba82156dcac62f1c83dc4f188972c79022000afa808ffc9d5384b218235e04e20f488bd296a71d9f596738782d18633fb0d01", "3044022021c4a945c0c7f7be3eed640444fcf1f21a72ae71f8e8fa4472d2b7dfe6c85f6a02202ac9d25ac71dc2a6f3060e66f5a245c4e32446b27a030fcdf0e799e4111d6a8301", "5221038b7f1e6633e9fdadcacb3b3c587863123ff9be5c8418bbdf92ec15b12ece7e6c21025fc7ed705b8c68d7af69b4c17b1b2bbf800f8ff53d681d3575cc21962a6183a32103e38641521c9ec1eff5137f5174e8646d918ecd82ab4fa3b2da47ba13fe685c7353ae"], "sequence": 4294967295, "scriptSig": {"hex": "22002095ee0bfdd77a68903d4033f58ad1de06a24fd29a335053e39bbf130a0ee0923e", "asm": "002095ee0bfdd77a68903d4033f58ad1de06a24fd29a335053e39bbf130a0ee0923e"}, "vout": 0, "txid": "389962893dcfedcd1ec84ba579f32193fe54fea6e9135d80f0a9e25b8cd68b4f"}, {"txinwitness": ["", "3045022100d55c6c0edba7c486abcccd2833fe9d4baf8820aad25dcbc11dea03c1519247110220505012d26a5a9e68f695b2ce2359935ddc8632aa0b4edc25aab29ed5dcc36b7001", "3044022005666235e33b60cfa12c5028608cb0c0bd9a24e3d34abe7a186ba59bc5e2329702206061048fc05a4c84dd3164d0f592769a7b3f4b75df1b648e799f648ee6d5d93501", "5221033d61bfaab77c0776f80cebe65ae931d5d5fb1a26ccaba3c631a1850ed2e0cca121021bf58a3e3dbb9fece6e2f150c7613d1c95e2f95d37c92bfe41658ba055200f4f210229bb08b00d456ec45a8b35f7e1fd4bab86fbb4b18837e492c6b4e08b534165c253ae"], "sequence": 4294967295, "scriptSig": {"hex": "2200206972d954d8db37efa656af93b0ee38faeb184d0a67b599230969e7c5bb31ef82", "asm": "00206972d954d8db37efa656af93b0ee38faeb184d0a67b599230969e7c5bb31ef82"}, "vout": 28, "txid": "a5c31ac7e4483ea3504a00ca3e499c0f153e92d1a45261739a074ac4510af81a"}, {"sequence": 4294967295, "scriptSig": {"hex": "0047304402206df20737db8127c9e043a770a48239688b86ff3ec8e60b32e4da6544a32e49e302204a457eb15e027cb4d992de9188ebea9380e60aad7b17aef39ddfe6b9163f548e0147304402207e04c065b15a2cfb82cc16edab34586aa6a80a0e3668a144d9bd88b08bf04a28022004b20446b1d7d88ab750c6b5d7f6c91c2cdf805b3ca01315e6469af210d3b7c8014c69522102a57dcca3f3ef0795221a8d2d5cbafa189e726ec99043601e0875d67f44beed5b2102b1fa19cc47687d0760324377c1e3d21dd409de91347e8f0abb076407df8558ad2103984d4c09322dfa0427df93ff6dd2c9eaf6b4b5ac6a6d7017ec192465ea35aa3f53ae", "asm": "0 304402206df20737db8127c9e043a770a48239688b86ff3ec8e60b32e4da6544a32e49e302204a457eb15e027cb4d992de9188ebea9380e60aad7b17aef39ddfe6b9163f548e[ALL] 304402207e04c065b15a2cfb82cc16edab34586aa6a80a0e3668a144d9bd88b08bf04a28022004b20446b1d7d88ab750c6b5d7f6c91c2cdf805b3ca01315e6469af210d3b7c8[ALL] 522102a57dcca3f3ef0795221a8d2d5cbafa189e726ec99043601e0875d67f44beed5b2102b1fa19cc47687d0760324377c1e3d21dd409de91347e8f0abb076407df8558ad2103984d4c09322dfa0427df93ff6dd2c9eaf6b4b5ac6a6d7017ec192465ea35aa3f53ae"}, "vout": 1, "txid": "f1213b90fe41396f19078390c240ee1fc3677c629071f0fe28aeb22869103570"}], "txid": "386b7c418734684d9ad6314dc7336a4b031be1a8d5e2a8cf385a571c69015c44", "blocktime": 1537871767, "version": 1, "confirmations": 11495, "time": 1537871767, "locktime": 0, "vsize": 2856, "size": 3807}