{"hash": "386e430c5045690a7fc1abd9e8a606915f81ee710966851e0a917ebcf74064b5", "blockhash": "0000000000000000001f76057863aec43deb6fa401d9628bb513d65a8098bfab", "vout": [{"scriptPubKey": {"reqSigs": 1, "hex": "76a9140edd3a066d51144c2f76fef4505ba53ac96127b788ac", "addresses": ["12MbUnScVkM6CrNRzT7yC9RcnnZPRPtT5o"], "asm": "OP_DUP OP_HASH160 0edd3a066d51144c2f76fef4505ba53ac96127b7 OP_EQUALVERIFY OP_CHECKSIG", "type": "pubkeyhash"}, "value": 0.00373007, "n": 0}, {"scriptPubKey": {"reqSigs": 1, "hex": "76a91486760abc7ff071a3e9f5a6c5819e31f72b1189a088ac", "addresses": ["1DFxxQNatEooH23BDKikKKvDAXNt6KYMmM"], "asm": "OP_DUP OP_HASH160 86760abc7ff071a3e9f5a6c5819e31f72b1189a0 OP_EQUALVERIFY OP_CHECKSIG", "type": "pubkeyhash"}, "value": 0.01901549, "n": 1}], "hex": "010000000122c23fe4724da188476dee6b4ab9da34fcabac65e40aa4e74ba1535187715668010000006b483045022100df6f8a3e5ec8608f96bd80aaef464be2bc57df6f09072ff35527fb263dac50530220022f1995f268f967e951c8f421db1de9b842308a306840222d5666bfe3447c2d0121023dfa9b846eda7801a3154c25a435ca87dce6e43d59f177f0db8f0e9949e2272effffffff020fb10500000000001976a9140edd3a066d51144c2f76fef4505ba53ac96127b788aced031d00000000001976a91486760abc7ff071a3e9f5a6c5819e31f72b1189a088ac00000000", "vin": [{"sequence": 4294967295, "scriptSig": {"hex": "483045022100df6f8a3e5ec8608f96bd80aaef464be2bc57df6f09072ff35527fb263dac50530220022f1995f268f967e951c8f421db1de9b842308a306840222d5666bfe3447c2d0121023dfa9b846eda7801a3154c25a435ca87dce6e43d59f177f0db8f0e9949e2272e", "asm": "3045022100df6f8a3e5ec8608f96bd80aaef464be2bc57df6f09072ff35527fb263dac50530220022f1995f268f967e951c8f421db1de9b842308a306840222d5666bfe3447c2d[ALL] 023dfa9b846eda7801a3154c25a435ca87dce6e43d59f177f0db8f0e9949e2272e"}, "vout": 1, "txid": "685671875153a14be7a40ae465acabfc34dab94a6bee6d4788a14d72e43fc222"}], "txid": "386e430c5045690a7fc1abd9e8a606915f81ee710966851e0a917ebcf74064b5", "blocktime": 1537873891, "version": 1, "confirmations": 11478, "time": 1537873891, "locktime": 0, "vsize": 226, "size": 226}