{"hash": "387346839974f6b6094b5e88d0777749d6825df6b6ec1feee5ec638bba55d32f", "blockhash": "0000000000000000000e13cef7c366c0283d82e591d1acd082e914b08063cdf1", "vout": [{"scriptPubKey": {"reqSigs": 1, "hex": "76a914588ea748f71c812963cf3f3e803539155135b6b488ac", "addresses": ["195FMcnjCD3WcVxyq8abJpwMs6TX4B1nsE"], "asm": "OP_DUP OP_HASH160 588ea748f71c812963cf3f3e803539155135b6b4 OP_EQUALVERIFY OP_CHECKSIG", "type": "pubkeyhash"}, "value": 0.00642309, "n": 0}, {"scriptPubKey": {"type": "nulldata", "hex": "6a4c5000007798000158d0f16aa42697e1ba380a06e3ef3236678a625097bcbefa6b8351586b4ebdb19dcdfa57b04aa43cecf495a62b4d5baa0d3b0614f93116de97841d100759d4ba30d2c37bb011d97e02cf", "asm": "OP_RETURN 00007798000158d0f16aa42697e1ba380a06e3ef3236678a625097bcbefa6b8351586b4ebdb19dcdfa57b04aa43cecf495a62b4d5baa0d3b0614f93116de97841d100759d4ba30d2c37bb011d97e02cf"}, "value": 0.0, "n": 1}], "hex": "0100000001548288cc90739b9ea80e482f18d189d306d878cb34758f093312700f5fdec807010000006b483045022100a570f3917a7b05f18e5798764ce2870a2f43a87047b07720af7e1a729c68b7250220082247e8ecc11b937edc26fd4618f2a8088f0d6fdda1974284235dd08e34e2650121029b7d144681a1cf80c9c53b1507d455577506d33a70d680276935f04e81799228ffffffff0205cd0900000000001976a914588ea748f71c812963cf3f3e803539155135b6b488ac0000000000000000536a4c5000007798000158d0f16aa42697e1ba380a06e3ef3236678a625097bcbefa6b8351586b4ebdb19dcdfa57b04aa43cecf495a62b4d5baa0d3b0614f93116de97841d100759d4ba30d2c37bb011d97e02cf00000000", "vin": [{"sequence": 4294967295, "scriptSig": {"hex": "483045022100a570f3917a7b05f18e5798764ce2870a2f43a87047b07720af7e1a729c68b7250220082247e8ecc11b937edc26fd4618f2a8088f0d6fdda1974284235dd08e34e2650121029b7d144681a1cf80c9c53b1507d455577506d33a70d680276935f04e81799228", "asm": "3045022100a570f3917a7b05f18e5798764ce2870a2f43a87047b07720af7e1a729c68b7250220082247e8ecc11b937edc26fd4618f2a8088f0d6fdda1974284235dd08e34e265[ALL] 029b7d144681a1cf80c9c53b1507d455577506d33a70d680276935f04e81799228"}, "vout": 1, "txid": "07c8de5f0f701233098f7534cb78d806d389d1182f480ea89e9b7390cc888254"}], "txid": "387346839974f6b6094b5e88d0777749d6825df6b6ec1feee5ec638bba55d32f", "blocktime": 1537871767, "version": 1, "confirmations": 11495, "time": 1537871767, "locktime": 0, "vsize": 284, "size": 284}