{"hash": "92900c6e47b7f16e2c8e6e75f4b9b02f0d398453ceca74e747ef9653e0f8cf76", "blockhash": "00000000000000000017f5eb5941039fbcee6240d03bc1f2f8e35350df66a1d8", "vout": [{"scriptPubKey": {"reqSigs": 1, "hex": "76a9142e1b944fe7ffbe969fc1df8d662fd7b5d6303c9b88ac", "addresses": ["15Co856cRnFRCKwSSzECoyT3ozVhuFoJZ6"], "asm": "OP_DUP OP_HASH160 2e1b944fe7ffbe969fc1df8d662fd7b5d6303c9b OP_EQUALVERIFY OP_CHECKSIG", "type": "pubkeyhash"}, "value": 0.00498693, "n": 0}, {"scriptPubKey": {"reqSigs": 1, "hex": "a9142f6e3d99506db56cdd9030acd90451df4962fe0387", "addresses": ["361okDGj9iEsRxTkMPhACQgQBoLaVumukb"], "asm": "OP_HASH160 2f6e3d99506db56cdd9030acd90451df4962fe03 OP_EQUAL", "type": "scripthash"}, "value": 0.00999312, "n": 1}], "hex": "02000000000102343faa24f98ffb793e5a1475e2e85607929536c652583b62488b5fc4527a10c802000000171600146c3bfc83566d81b9be429bdacc2bb1bd1ba1dfabfeffffffbefcd62a9c5b1c9fd9a396fa18a2822076a9948c2dccf54c614231cf30797ade01000000171600147757574019fee3433e5afdb5ca50d6eef42cfa6ffeffffff02059c0700000000001976a9142e1b944fe7ffbe969fc1df8d662fd7b5d6303c9b88ac903f0f000000000017a9142f6e3d99506db56cdd9030acd90451df4962fe038702473044022066d739838318286cffcb6b9eaec83754fcf8371543ad2021d0a70952c4745a7002203d42adc7398f29662e07f086eccabd481d52383c450a573ce0f2b8b76d16139a0121032328ef8116530eca87865e9a68da2fc11386a147525ba39bb9537268f23153e00248304502210098ae27b2ffb567a8b70ac28ca06419fa75b37ff820a917bff025db3c8ed759cd02200faf928ca62c5fcced0622939479b9467d80be7dd79c8c0706250137ee1fe014012103be454d326fe26e9f2c927103162bc8169dadcda8e4dd70397bad088c25613ab815490800", "vin": [{"txinwitness": ["3044022066d739838318286cffcb6b9eaec83754fcf8371543ad2021d0a70952c4745a7002203d42adc7398f29662e07f086eccabd481d52383c450a573ce0f2b8b76d16139a01", "032328ef8116530eca87865e9a68da2fc11386a147525ba39bb9537268f23153e0"], "sequence": 4294967294, "scriptSig": {"hex": "1600146c3bfc83566d81b9be429bdacc2bb1bd1ba1dfab", "asm": "00146c3bfc83566d81b9be429bdacc2bb1bd1ba1dfab"}, "vout": 2, "txid": "c8107a52c45f8b48623b5852c63695920756e8e275145a3e79fb8ff924aa3f34"}, {"txinwitness": ["304502210098ae27b2ffb567a8b70ac28ca06419fa75b37ff820a917bff025db3c8ed759cd02200faf928ca62c5fcced0622939479b9467d80be7dd79c8c0706250137ee1fe01401", "03be454d326fe26e9f2c927103162bc8169dadcda8e4dd70397bad088c25613ab8"], "sequence": 4294967294, "scriptSig": {"hex": "1600147757574019fee3433e5afdb5ca50d6eef42cfa6f", "asm": "00147757574019fee3433e5afdb5ca50d6eef42cfa6f"}, "vout": 1, "txid": "de7a7930cf3142614cf5cc2d8c94a9762082a218fa96a3d99f1c5b9c2ad6fcbe"}], "txid": "387cb3c7bef88bca7b3755e9d494188dfa777c7a227eaf2bbb3c88625017e8c4", "blocktime": 1537874412, "version": 2, "confirmations": 11468, "time": 1537874412, "locktime": 542997, "vsize": 259, "size": 421}