{"hash": "387f96214f1007c00633338db20ad76c416673894819798abf2ca59a4bb930a3", "blockhash": "00000000000000000017f5eb5941039fbcee6240d03bc1f2f8e35350df66a1d8", "vout": [{"scriptPubKey": {"reqSigs": 1, "hex": "a914556b4130af18aff935ba96218a18e05c966543f987", "addresses": ["39Ufr2sHM3PzYFEjXuY6RQySxxsN54Qwwv"], "asm": "OP_HASH160 556b4130af18aff935ba96218a18e05c966543f9 OP_EQUAL", "type": "scripthash"}, "value": 0.00683293, "n": 0}, {"scriptPubKey": {"reqSigs": 1, "hex": "76a9146586ced214191eaee684bf8787713d2671eff5aa88ac", "addresses": ["1AFpjzWNNtmMamjbbSSNLiVdktzrYMspCQ"], "asm": "OP_DUP OP_HASH160 6586ced214191eaee684bf8787713d2671eff5aa OP_EQUALVERIFY OP_CHECKSIG", "type": "pubkeyhash"}, "value": 0.19630741, "n": 1}], "hex": "0200000001d053fc886f3f496cbd0b3b7a1a54da8050b380c2f885eb80798c26ed6637ed24010000006b4830450221009e2547269f7560af6211298815943f16148caf738ebdb966a927481fe2ae45a50220610a0d0fdff49b5985cb5793aaa72faa0ffd586f8c9f263721ba6f55ad52eef501210210dac65f236a05432a1dbd2f909aa1c6e1870304203e734e8d07db9b57443d46ffffffff021d6d0a000000000017a914556b4130af18aff935ba96218a18e05c966543f987958a2b01000000001976a9146586ced214191eaee684bf8787713d2671eff5aa88ac00000000", "vin": [{"sequence": 4294967295, "scriptSig": {"hex": "4830450221009e2547269f7560af6211298815943f16148caf738ebdb966a927481fe2ae45a50220610a0d0fdff49b5985cb5793aaa72faa0ffd586f8c9f263721ba6f55ad52eef501210210dac65f236a05432a1dbd2f909aa1c6e1870304203e734e8d07db9b57443d46", "asm": "30450221009e2547269f7560af6211298815943f16148caf738ebdb966a927481fe2ae45a50220610a0d0fdff49b5985cb5793aaa72faa0ffd586f8c9f263721ba6f55ad52eef5[ALL] 0210dac65f236a05432a1dbd2f909aa1c6e1870304203e734e8d07db9b57443d46"}, "vout": 1, "txid": "24ed3766ed268c7980eb85f8c280b35080da541a7a3b0bbd6c493f6f88fc53d0"}], "txid": "387f96214f1007c00633338db20ad76c416673894819798abf2ca59a4bb930a3", "blocktime": 1537874412, "version": 2, "confirmations": 11467, "time": 1537874412, "locktime": 0, "vsize": 224, "size": 224}