{"hash": "387f5e9dd753422e82420f0652e91ecc8839c69201c54233a258da376fa1b40d", "blockhash": "0000000000000000000e13cef7c366c0283d82e591d1acd082e914b08063cdf1", "vout": [{"scriptPubKey": {"reqSigs": 1, "hex": "a9141e09dd63472f32411d37d8720b81fec8e89d9c2587", "addresses": ["34Rr1iXHehaTvEpxvGEx69Yv63my4mY1hD"], "asm": "OP_HASH160 1e09dd63472f32411d37d8720b81fec8e89d9c25 OP_EQUAL", "type": "scripthash"}, "value": 0.07263938, "n": 0}, {"scriptPubKey": {"reqSigs": 1, "hex": "76a914ba6b24edb59c163ff178d37f2ceb295b83fd636e88ac", "addresses": ["1Hzh3CEJT8ZA1Yw5JdpyoDdnLmyJomBhNf"], "asm": "OP_DUP OP_HASH160 ba6b24edb59c163ff178d37f2ceb295b83fd636e OP_EQUALVERIFY OP_CHECKSIG", "type": "pubkeyhash"}, "value": 0.13136702, "n": 1}], "hex": "01000000029d94f29f908e796893ad9da86ff54049da9ac8bda13e49d15a203e334bbc9c53010000006b48304502210087fcfbe14e2d895abe7feb49f8f31e6a4b3a3186d859ac104e6c921a6e4b0c5802200681873766f8d646184b7d1644b26543fa01b1a518dde5cad4a01baeb2085294012102e40d42fffc3e5fae5bd7f7f44436b1d68b0367a3d09dceb2cf19e5c14170711affffffff9779ef78d8378b2cb18729730a690b226289dec61162656425b346b1236fea02010000006b483045022100913951f9cea1d594ee02085e482f3b3806de883554b7385ae8b72eaf46c2a79b022020cfc97bdc66ff5d691d4e9cfb97ba874c31268bc868e6a6d0ed8fcfe35cfae4012102f59285165139b254289f0594cc214021df755d0984aafeb6eb7505525b294f9dffffffff02c2d66e000000000017a9141e09dd63472f32411d37d8720b81fec8e89d9c25873e73c800000000001976a914ba6b24edb59c163ff178d37f2ceb295b83fd636e88ac00000000", "vin": [{"sequence": 4294967295, "scriptSig": {"hex": "48304502210087fcfbe14e2d895abe7feb49f8f31e6a4b3a3186d859ac104e6c921a6e4b0c5802200681873766f8d646184b7d1644b26543fa01b1a518dde5cad4a01baeb2085294012102e40d42fffc3e5fae5bd7f7f44436b1d68b0367a3d09dceb2cf19e5c14170711a", "asm": "304502210087fcfbe14e2d895abe7feb49f8f31e6a4b3a3186d859ac104e6c921a6e4b0c5802200681873766f8d646184b7d1644b26543fa01b1a518dde5cad4a01baeb2085294[ALL] 02e40d42fffc3e5fae5bd7f7f44436b1d68b0367a3d09dceb2cf19e5c14170711a"}, "vout": 1, "txid": "539cbc4b333e205ad1493ea1bdc89ada4940f56fa89dad9368798e909ff2949d"}, {"sequence": 4294967295, "scriptSig": {"hex": "483045022100913951f9cea1d594ee02085e482f3b3806de883554b7385ae8b72eaf46c2a79b022020cfc97bdc66ff5d691d4e9cfb97ba874c31268bc868e6a6d0ed8fcfe35cfae4012102f59285165139b254289f0594cc214021df755d0984aafeb6eb7505525b294f9d", "asm": "3045022100913951f9cea1d594ee02085e482f3b3806de883554b7385ae8b72eaf46c2a79b022020cfc97bdc66ff5d691d4e9cfb97ba874c31268bc868e6a6d0ed8fcfe35cfae4[ALL] 02f59285165139b254289f0594cc214021df755d0984aafeb6eb7505525b294f9d"}, "vout": 1, "txid": "02ea6f23b146b32564656211c6de8962220b690a732987b12c8b37d878ef7997"}], "txid": "387f5e9dd753422e82420f0652e91ecc8839c69201c54233a258da376fa1b40d", "blocktime": 1537871767, "version": 1, "confirmations": 11490, "time": 1537871767, "locktime": 0, "vsize": 372, "size": 372}