{"hash": "387fce48b733e365896f74e358e32ef9d31aec5749b3f6b4672454294ec72509", "blockhash": "0000000000000000001e0dab787dd257d1dbfcb92a98c2207d5e1078be1f4165", "vout": [{"scriptPubKey": {"reqSigs": 1, "hex": "76a914e8cea30989bd15530f819b766684b00dc7ba7cfa88ac", "addresses": ["1NDyJtNTjmwk5xPNhjgAMu4HDHigtobu1s"], "asm": "OP_DUP OP_HASH160 e8cea30989bd15530f819b766684b00dc7ba7cfa OP_EQUALVERIFY OP_CHECKSIG", "type": "pubkeyhash"}, "value": 1.07891573, "n": 0}, {"scriptPubKey": {"reqSigs": 1, "hex": "76a914b8bb0ffac2d47a3608c9f9c5bf757bb6bd596ab388ac", "addresses": ["1HqmRd44thBYFyDeiAW26EiYdQ4BLtow8Q"], "asm": "OP_DUP OP_HASH160 b8bb0ffac2d47a3608c9f9c5bf757bb6bd596ab3 OP_EQUALVERIFY OP_CHECKSIG", "type": "pubkeyhash"}, "value": 0.00918489, "n": 1}], "hex": "020000000515cb0f007f8979f1d958490177b4a5e76b8e45cbd8a652a67a3550a66a72a00e010000006b483045022100a987f9a0833a0788f89811bf1512af9e213715986c6e397a28119f965b3a05c602203df3becc33b63f5c486cd21289c603d7378fb068a7252492b140dd6fe31ab745012103bb54f97bac6ef5dce63e63d9fe4026681b6fab362902da94812cca13f1a1e2d2feffffff48b101b8f935b168a68a53eab56b16f91ce66c69eed300fcc7cb2120816f3911000000006b483045022100ca3ccbbe3c9198cd6782ceb8245d5198f98a0242cdfb6a9b746332480f9e4f4202203016d75bb399b59164f44036a99e7ec750650241b18537f36a23f6eb02916ba00121034087e8c881f563fd1e2aecaae803c76db4ca4d0dbe71ceb72a9590af6d66af60feffffff5c1e9ad7ca0be01916937a87b2e79ee61179ff439dfb2a84c6ca671ce56c7b3e010000006a47304402204da23d7f5829969695e825b67e93070a74ee2756055329b18b530270f2a33bb6022036491ad3bb9ee0322f4c8d5da4841d1fea196257015b869280261c1535068934012103466811862c0b88d339528422dfc53d19a7a38ca54b50da81afcbfa10b8ab6228feffffff73bb405890045847c94836101d203941a9ba89b9def2ddec3719f5512823c1f9010000006b483045022100d21965d418a95493e419c3f7a9e03a5fec96d1c88e988215a53df709cab010cb0220580430a39ef6914c48056c29b34045541ed9fede84d4cd9cd213749923993e40012103ed56aaa9d17806e63dc37b9d62570dbf5cc509d2cee9c1225da283c249a92542feffffffa7abcc7b4e615cd466b21b24edc7661fd132fdf2b4668e7368a4738ebcd10816000000006a473044022058640752e0d8ae508082381e36187fa7c5a766ca4ccb5f9afe37b3bd30dbc1f002206d2ef4887f55b8d19c29158054621f6caae10f0eaa2a3b093b5eb64ef784bcba01210397a51cc7e8d1a4d9fca1555a87167ee6f2b1e81ee09c9351aed9a758b2d1bd48feffffff02754b6e06000000001976a914e8cea30989bd15530f819b766684b00dc7ba7cfa88acd9030e00000000001976a914b8bb0ffac2d47a3608c9f9c5bf757bb6bd596ab388ac12490800", "vin": [{"sequence": 4294967294, "scriptSig": {"hex": "483045022100a987f9a0833a0788f89811bf1512af9e213715986c6e397a28119f965b3a05c602203df3becc33b63f5c486cd21289c603d7378fb068a7252492b140dd6fe31ab745012103bb54f97bac6ef5dce63e63d9fe4026681b6fab362902da94812cca13f1a1e2d2", "asm": "3045022100a987f9a0833a0788f89811bf1512af9e213715986c6e397a28119f965b3a05c602203df3becc33b63f5c486cd21289c603d7378fb068a7252492b140dd6fe31ab745[ALL] 03bb54f97bac6ef5dce63e63d9fe4026681b6fab362902da94812cca13f1a1e2d2"}, "vout": 1, "txid": "0ea0726aa650357aa652a6d8cb458e6be7a5b477014958d9f179897f000fcb15"}, {"sequence": 4294967294, "scriptSig": {"hex": "483045022100ca3ccbbe3c9198cd6782ceb8245d5198f98a0242cdfb6a9b746332480f9e4f4202203016d75bb399b59164f44036a99e7ec750650241b18537f36a23f6eb02916ba00121034087e8c881f563fd1e2aecaae803c76db4ca4d0dbe71ceb72a9590af6d66af60", "asm": "3045022100ca3ccbbe3c9198cd6782ceb8245d5198f98a0242cdfb6a9b746332480f9e4f4202203016d75bb399b59164f44036a99e7ec750650241b18537f36a23f6eb02916ba0[ALL] 034087e8c881f563fd1e2aecaae803c76db4ca4d0dbe71ceb72a9590af6d66af60"}, "vout": 0, "txid": "11396f812021cbc7fc00d3ee696ce61cf9166bb5ea538aa668b135f9b801b148"}, {"sequence": 4294967294, "scriptSig": {"hex": "47304402204da23d7f5829969695e825b67e93070a74ee2756055329b18b530270f2a33bb6022036491ad3bb9ee0322f4c8d5da4841d1fea196257015b869280261c1535068934012103466811862c0b88d339528422dfc53d19a7a38ca54b50da81afcbfa10b8ab6228", "asm": "304402204da23d7f5829969695e825b67e93070a74ee2756055329b18b530270f2a33bb6022036491ad3bb9ee0322f4c8d5da4841d1fea196257015b869280261c1535068934[ALL] 03466811862c0b88d339528422dfc53d19a7a38ca54b50da81afcbfa10b8ab6228"}, "vout": 1, "txid": "3e7b6ce51c67cac6842afb9d43ff7911e69ee7b2877a931619e00bcad79a1e5c"}, {"sequence": 4294967294, "scriptSig": {"hex": "483045022100d21965d418a95493e419c3f7a9e03a5fec96d1c88e988215a53df709cab010cb0220580430a39ef6914c48056c29b34045541ed9fede84d4cd9cd213749923993e40012103ed56aaa9d17806e63dc37b9d62570dbf5cc509d2cee9c1225da283c249a92542", "asm": "3045022100d21965d418a95493e419c3f7a9e03a5fec96d1c88e988215a53df709cab010cb0220580430a39ef6914c48056c29b34045541ed9fede84d4cd9cd213749923993e40[ALL] 03ed56aaa9d17806e63dc37b9d62570dbf5cc509d2cee9c1225da283c249a92542"}, "vout": 1, "txid": "f9c1232851f51937ecddf2deb989baa94139201d103648c9475804905840bb73"}, {"sequence": 4294967294, "scriptSig": {"hex": "473044022058640752e0d8ae508082381e36187fa7c5a766ca4ccb5f9afe37b3bd30dbc1f002206d2ef4887f55b8d19c29158054621f6caae10f0eaa2a3b093b5eb64ef784bcba01210397a51cc7e8d1a4d9fca1555a87167ee6f2b1e81ee09c9351aed9a758b2d1bd48", "asm": "3044022058640752e0d8ae508082381e36187fa7c5a766ca4ccb5f9afe37b3bd30dbc1f002206d2ef4887f55b8d19c29158054621f6caae10f0eaa2a3b093b5eb64ef784bcba[ALL] 0397a51cc7e8d1a4d9fca1555a87167ee6f2b1e81ee09c9351aed9a758b2d1bd48"}, "vout": 0, "txid": "1608d1bc8e73a468738e66b4f2fd32d11f66c7ed241bb266d45c614e7bccaba7"}], "txid": "387fce48b733e365896f74e358e32ef9d31aec5749b3f6b4672454294ec72509", "blocktime": 1537872475, "version": 2, "confirmations": 11486, "time": 1537872475, "locktime": 542994, "vsize": 816, "size": 816}