{"hash": "848ceb3c19bae8a4d1029f09dc7796e653c56a67c037bbe485ab2c213f3fc4b9", "blockhash": "00000000000000000017f5eb5941039fbcee6240d03bc1f2f8e35350df66a1d8", "vout": [{"scriptPubKey": {"reqSigs": 1, "hex": "76a914164d9eb09553f049e6682232d7870805096b5d7588ac", "addresses": ["132vrLxwRwfcKXS9VrAX4kHs9P3AN6GEuY"], "asm": "OP_DUP OP_HASH160 164d9eb09553f049e6682232d7870805096b5d75 OP_EQUALVERIFY OP_CHECKSIG", "type": "pubkeyhash"}, "value": 0.0026957, "n": 0}, {"scriptPubKey": {"reqSigs": 1, "hex": "a914ad37eec5b2fc0d907f8a6b7ddacd85b9845e2c2187", "addresses": ["3HUuq17n9bxpWJjL4KLCbJMPsbKcSxrCtw"], "asm": "OP_HASH160 ad37eec5b2fc0d907f8a6b7ddacd85b9845e2c21 OP_EQUAL", "type": "scripthash"}, "value": 0.01561933, "n": 1}], "hex": "0100000000010182ba8079f5fbf9cf79b1f9a3f70030bb7e293688616ed66e2e89ca4d0e417e1d0100000023220020c2a28d28f678dc8824017c76efcefdf27d43a42df9632af9bc70710736e1e58fffffffff02021d0400000000001976a914164d9eb09553f049e6682232d7870805096b5d7588ac4dd517000000000017a914ad37eec5b2fc0d907f8a6b7ddacd85b9845e2c21870400483045022100835d36473413246e918688acc3cc3050c58e6b4d12e49a06af6a6f7670fd0869022074ad74067777b13ecd319174f22be48ad50da272a08c7da143debe360766c08501483045022100fa84eae1220f080da288dbf41078afbd6f2c53552fcddb1b529170b3dc29f5a8022039bc1aa8c37d6745f11917b1d3faf321851e2da196913406d41a1845f0d53ec10147522103e692cc00a065a7af242d4c2822f26995621ee3aa9514b573cfe4ebf996bd8111210297d3a0c3e63b20b9e6f3ace4d89e21364009021bc5359dc849fc63b9f48feba552ae00000000", "vin": [{"txinwitness": ["", "3045022100835d36473413246e918688acc3cc3050c58e6b4d12e49a06af6a6f7670fd0869022074ad74067777b13ecd319174f22be48ad50da272a08c7da143debe360766c08501", "3045022100fa84eae1220f080da288dbf41078afbd6f2c53552fcddb1b529170b3dc29f5a8022039bc1aa8c37d6745f11917b1d3faf321851e2da196913406d41a1845f0d53ec101", "522103e692cc00a065a7af242d4c2822f26995621ee3aa9514b573cfe4ebf996bd8111210297d3a0c3e63b20b9e6f3ace4d89e21364009021bc5359dc849fc63b9f48feba552ae"], "sequence": 4294967295, "scriptSig": {"hex": "220020c2a28d28f678dc8824017c76efcefdf27d43a42df9632af9bc70710736e1e58f", "asm": "0020c2a28d28f678dc8824017c76efcefdf27d43a42df9632af9bc70710736e1e58f"}, "vout": 1, "txid": "1d7e410e4dca892e6ed66e618836297ebb3000f7a3f9b179cff9fbf57980ba82"}], "txid": "3881cd67dc44065a2f35eb425a3450a2732d31aefab177c5488b8df0e92bc726", "blocktime": 1537874412, "version": 1, "confirmations": 11467, "time": 1537874412, "locktime": 0, "vsize": 208, "size": 374}