{"hash": "507de7b35f17eed0278a47377a41d5b1d565d3b95dd9ec9560f4c566d8c6e11e", "blockhash": "0000000000000000001f76057863aec43deb6fa401d9628bb513d65a8098bfab", "vout": [{"scriptPubKey": {"reqSigs": 1, "hex": "76a91490562c8970de29ab1ce612bd77a6d4fc22d1481388ac", "addresses": ["1EABY6aQ6sP9JwACsibvKpoM1gkMHxUViN"], "asm": "OP_DUP OP_HASH160 90562c8970de29ab1ce612bd77a6d4fc22d14813 OP_EQUALVERIFY OP_CHECKSIG", "type": "pubkeyhash"}, "value": 0.00134813, "n": 0}, {"scriptPubKey": {"reqSigs": 1, "hex": "a914fa04ac77dfa6b34bb65634e4640b4fe93170335787", "addresses": ["3QUzTEeCuEu1kKbYUsTdpQiDKpxks3UP2J"], "asm": "OP_HASH160 fa04ac77dfa6b34bb65634e4640b4fe931703357 OP_EQUAL", "type": "scripthash"}, "value": 0.13545204, "n": 1}], "hex": "02000000000101db110d14cf1f031b6a71e6b482e1e2e39ee7860d891245f0e22e5a5ef445216c01000000171600144b5348d3b03fd9d5996c0559fd2f3be0038dcd9efeffffff029d0e0200000000001976a91490562c8970de29ab1ce612bd77a6d4fc22d1481388acf4aece000000000017a914fa04ac77dfa6b34bb65634e4640b4fe9317033578702483045022100e3b3b9454175fe7bdf1ca80919ff0cf87733713f2786c9468bdaf1f8ed287d7c02207070710bfb67f52e1343b9d9b63804475af7faf271aa0119c710c733f60d2baf0121027f0236a64092b01890fbe00b7484377fe4e601f5e5f2cda2dc27bf3fe51d0131b6480800", "vin": [{"txinwitness": ["3045022100e3b3b9454175fe7bdf1ca80919ff0cf87733713f2786c9468bdaf1f8ed287d7c02207070710bfb67f52e1343b9d9b63804475af7faf271aa0119c710c733f60d2baf01", "027f0236a64092b01890fbe00b7484377fe4e601f5e5f2cda2dc27bf3fe51d0131"], "sequence": 4294967294, "scriptSig": {"hex": "1600144b5348d3b03fd9d5996c0559fd2f3be0038dcd9e", "asm": "00144b5348d3b03fd9d5996c0559fd2f3be0038dcd9e"}, "vout": 1, "txid": "6c2145f45e5a2ee2f04512890d86e79ee3e2e182b4e6716a1b031fcf140d11db"}], "txid": "388370ab0918a878d6a285f38b4a6aae50262fdc391f5e574caa7e35130656fd", "blocktime": 1537873891, "version": 2, "confirmations": 11477, "time": 1537873891, "locktime": 542902, "vsize": 168, "size": 250}