{"hash": "3883eb05c9c2533b95380aa3f3b3f16bb89da1f1990cd9f148424bd9a3f9e008", "blockhash": "0000000000000000001f0ddff1eddb255c1121bcd4da4f1bc9a0da00cae72433", "vout": [{"scriptPubKey": {"reqSigs": 1, "hex": "76a914876f50a2b45a077a5a413719a237e6a762c35c3a88ac", "addresses": ["1DM7aCU3Wkw48oywF37vC4GXp4hCFwpYF3"], "asm": "OP_DUP OP_HASH160 876f50a2b45a077a5a413719a237e6a762c35c3a OP_EQUALVERIFY OP_CHECKSIG", "type": "pubkeyhash"}, "value": 4e-05, "n": 0}, {"scriptPubKey": {"reqSigs": 1, "hex": "76a91479cb28b67949abfd0f9c2345c4967257a5e20f3a88ac", "addresses": ["1C6z8x2GHHfWFNvNBZKVfHZb26FovoMm2e"], "asm": "OP_DUP OP_HASH160 79cb28b67949abfd0f9c2345c4967257a5e20f3a OP_EQUALVERIFY OP_CHECKSIG", "type": "pubkeyhash"}, "value": 2.1405, "n": 1}], "hex": "0100000001954e4134cd73541cf9d2e931d24dbf66f1b777fdb7f74f26db152ea9f4b977c3050000006b483045022100b056805a4eb8514fb8f626929239f7287639a728e60ade7565fd9361f060d84302204a23cf3b165bffdef077e036447e0570fafaf6fc7a5e10aa1b35aff216a9b46f012102c17431393145832716466bea6a3470179b84f4f392e4328a50f409a184b36fd5ffffffff02a00f0000000000001976a914876f50a2b45a077a5a413719a237e6a762c35c3a88acd024c20c000000001976a91479cb28b67949abfd0f9c2345c4967257a5e20f3a88ac00000000", "vin": [{"sequence": 4294967295, "scriptSig": {"hex": "483045022100b056805a4eb8514fb8f626929239f7287639a728e60ade7565fd9361f060d84302204a23cf3b165bffdef077e036447e0570fafaf6fc7a5e10aa1b35aff216a9b46f012102c17431393145832716466bea6a3470179b84f4f392e4328a50f409a184b36fd5", "asm": "3045022100b056805a4eb8514fb8f626929239f7287639a728e60ade7565fd9361f060d84302204a23cf3b165bffdef077e036447e0570fafaf6fc7a5e10aa1b35aff216a9b46f[ALL] 02c17431393145832716466bea6a3470179b84f4f392e4328a50f409a184b36fd5"}, "vout": 5, "txid": "c377b9f4a92e15db264ff7b7fd77b7f166bf4dd231e9d2f91c5473cd34414e95"}], "txid": "3883eb05c9c2533b95380aa3f3b3f16bb89da1f1990cd9f148424bd9a3f9e008", "blocktime": 1537872018, "version": 1, "confirmations": 11489, "time": 1537872018, "locktime": 0, "vsize": 226, "size": 226}