{"hash": "388bb0d3eb1c9d1ec16d1912f9cc3e6a55843cda56fafc2568837d7209eb35ec", "blockhash": "00000000000000000004ffacab907a6b429b9a5745fa0b75af4234bf69dd7176", "vout": [{"scriptPubKey": {"reqSigs": 1, "hex": "a9142c8bcf186c3a993764456c8984d757c1e2c3f9e087", "addresses": ["35kZ95ggXk8L7ZW5eLmJ4stjBNpQDsxd8T"], "asm": "OP_HASH160 2c8bcf186c3a993764456c8984d757c1e2c3f9e0 OP_EQUAL", "type": "scripthash"}, "value": 0.00115299, "n": 0}], "hex": "01000000034bac511e1a9d659f6d792ef15c6378d3535554ecb5757e9830eb473dc4c99232000000006b483045022100e690a29f9c564c01de671f50e72382a47f3757add3e17cef797bde0cc135a72b02204f6b49f9d9f9a9b3f5cf69b28ce8ac334d5c2004abee058f326dcd8908d8936a012103ab043da38bd6572534de9e042552a8ac4ff2359822653bac9a5621687370ec79ffffffff3da0e1dcdb00fd281b0cb4274ca8374022ea987162c5f1707b8f581c6a54f086a20300006a47304402206588405a0b42a3af8b1928dd6de674cdf0d498ffceacd6a0109e22a81215b1730220556ef2f360e5c1b5d5fea2c20a07f5b9e443d3a7c6699f2cdfa8c2dda6c6d3150121025d074f4c644564e6acc924f137e905159a5d8b87f8a406cdd99668b2543a2580ffffffff4c4927fe60575547e1ebc5a178a68d6e6ad782ac8b15554ee30c0bc8e924cb63010000006a4730440220769f9479563119531167c82a769d006a0a359acf6b8a955b50d5be7a664afc3c0220574301ac89f49daec7254d1280b957aeace41fd93d9a75cfbeba24026209d56c012102f217e6fbd5a40d622eb7792be92a73748552ffb5d72054519e22e20e8526ee7effffffff0163c201000000000017a9142c8bcf186c3a993764456c8984d757c1e2c3f9e08700000000", "vin": [{"sequence": 4294967295, "scriptSig": {"hex": "483045022100e690a29f9c564c01de671f50e72382a47f3757add3e17cef797bde0cc135a72b02204f6b49f9d9f9a9b3f5cf69b28ce8ac334d5c2004abee058f326dcd8908d8936a012103ab043da38bd6572534de9e042552a8ac4ff2359822653bac9a5621687370ec79", "asm": "3045022100e690a29f9c564c01de671f50e72382a47f3757add3e17cef797bde0cc135a72b02204f6b49f9d9f9a9b3f5cf69b28ce8ac334d5c2004abee058f326dcd8908d8936a[ALL] 03ab043da38bd6572534de9e042552a8ac4ff2359822653bac9a5621687370ec79"}, "vout": 0, "txid": "3292c9c43d47eb30987e75b5ec545553d378635cf12e796d9f659d1a1e51ac4b"}, {"sequence": 4294967295, "scriptSig": {"hex": "47304402206588405a0b42a3af8b1928dd6de674cdf0d498ffceacd6a0109e22a81215b1730220556ef2f360e5c1b5d5fea2c20a07f5b9e443d3a7c6699f2cdfa8c2dda6c6d3150121025d074f4c644564e6acc924f137e905159a5d8b87f8a406cdd99668b2543a2580", "asm": "304402206588405a0b42a3af8b1928dd6de674cdf0d498ffceacd6a0109e22a81215b1730220556ef2f360e5c1b5d5fea2c20a07f5b9e443d3a7c6699f2cdfa8c2dda6c6d315[ALL] 025d074f4c644564e6acc924f137e905159a5d8b87f8a406cdd99668b2543a2580"}, "vout": 930, "txid": "86f0546a1c588f7b70f1c5627198ea224037a84c27b40c1b28fd00dbdce1a03d"}, {"sequence": 4294967295, "scriptSig": {"hex": "4730440220769f9479563119531167c82a769d006a0a359acf6b8a955b50d5be7a664afc3c0220574301ac89f49daec7254d1280b957aeace41fd93d9a75cfbeba24026209d56c012102f217e6fbd5a40d622eb7792be92a73748552ffb5d72054519e22e20e8526ee7e", "asm": "30440220769f9479563119531167c82a769d006a0a359acf6b8a955b50d5be7a664afc3c0220574301ac89f49daec7254d1280b957aeace41fd93d9a75cfbeba24026209d56c[ALL] 02f217e6fbd5a40d622eb7792be92a73748552ffb5d72054519e22e20e8526ee7e"}, "vout": 1, "txid": "63cb24e9c80b0ce34e55158bac82d76a6e8da678a1c5ebe147555760fe27494c"}], "txid": "388bb0d3eb1c9d1ec16d1912f9cc3e6a55843cda56fafc2568837d7209eb35ec", "blocktime": 1537875543, "version": 1, "confirmations": 11464, "time": 1537875543, "locktime": 0, "vsize": 484, "size": 484}