{"hash": "3891fbbd9691e3a88c59f2ab49d68aa5ce7d6e365c30712ec9703d1a4093ec6d", "blockhash": "0000000000000000000e13cef7c366c0283d82e591d1acd082e914b08063cdf1", "vout": [{"scriptPubKey": {"reqSigs": 1, "hex": "a91469f374bbbdde3f7b7e0e46c0f8ebb0c0fa0c78e387", "addresses": ["3BMEXJd9CPsPU9fu34zk5U7qceooasSUym"], "asm": "OP_HASH160 69f374bbbdde3f7b7e0e46c0f8ebb0c0fa0c78e3 OP_EQUAL", "type": "scripthash"}, "value": 0.00183457, "n": 0}, {"scriptPubKey": {"reqSigs": 1, "hex": "0014383815b209f47acd834269ff775bb1e8f0c46db2", "addresses": ["bc1q8quptvsf73avmq6zd8lhwka3arcvgmdj9xehnd"], "asm": "0 383815b209f47acd834269ff775bb1e8f0c46db2", "type": "witness_v0_keyhash"}, "value": 1.998e-05, "n": 1}], "hex": "01000000017f8c9eecc4145ed9720c1e1f95252175408697176752d5ea7ee2d02a3c0d28ab660700006b483045022100fef0746d44c23edd2b18ceebd19e412938d8a5f8a6b0252167464847a686aaa002203ad3f46494fffef48129740fe627e294edfea22ac74862d999f97514436210b6012103664f6ca9539150df2ec8e6f50674f9926146aab025668de30ac963cc586ce977ffffffff02a1cc02000000000017a91469f374bbbdde3f7b7e0e46c0f8ebb0c0fa0c78e387ce07000000000000160014383815b209f47acd834269ff775bb1e8f0c46db200000000", "vin": [{"sequence": 4294967295, "scriptSig": {"hex": "483045022100fef0746d44c23edd2b18ceebd19e412938d8a5f8a6b0252167464847a686aaa002203ad3f46494fffef48129740fe627e294edfea22ac74862d999f97514436210b6012103664f6ca9539150df2ec8e6f50674f9926146aab025668de30ac963cc586ce977", "asm": "3045022100fef0746d44c23edd2b18ceebd19e412938d8a5f8a6b0252167464847a686aaa002203ad3f46494fffef48129740fe627e294edfea22ac74862d999f97514436210b6[ALL] 03664f6ca9539150df2ec8e6f50674f9926146aab025668de30ac963cc586ce977"}, "vout": 1894, "txid": "ab280d3c2ad0e27eead5526717978640752125951f1e0c72d95e14c4ec9e8c7f"}], "txid": "3891fbbd9691e3a88c59f2ab49d68aa5ce7d6e365c30712ec9703d1a4093ec6d", "blocktime": 1537871767, "version": 1, "confirmations": 11495, "time": 1537871767, "locktime": 0, "vsize": 221, "size": 221}