{"hash": "389ac387bf4c2899df5007d26cd9f089c85734796214232ba93cb5196c25fe96", "blockhash": "000000000000000000022b45ed06c6f4ccd3cf7fb5ba4856ebd2e58215665228", "vout": [{"scriptPubKey": {"reqSigs": 1, "hex": "76a914aa07ae6502579bcfb2ebefe5ef900b32cb6b5af088ac", "addresses": ["1GW35K7b6rKEgiTexBwdyLm4UFoFTyX8GG"], "asm": "OP_DUP OP_HASH160 aa07ae6502579bcfb2ebefe5ef900b32cb6b5af0 OP_EQUALVERIFY OP_CHECKSIG", "type": "pubkeyhash"}, "value": 0.00013188, "n": 0}, {"scriptPubKey": {"reqSigs": 1, "hex": "76a9140c0e7922f27377ce161531280e2aed6184cf29a588ac", "addresses": ["126kSvB7u6ndKjPMfekdy6ECUG2xLBPExX"], "asm": "OP_DUP OP_HASH160 0c0e7922f27377ce161531280e2aed6184cf29a5 OP_EQUALVERIFY OP_CHECKSIG", "type": "pubkeyhash"}, "value": 0.00327418, "n": 1}], "hex": "0100000002601a3f846416b6b7479566d5a8c9e92d9985086e4eedd9c4a9f2d7ea026b3db3070000006a47304402202da3243aad36e09302c61997ab3fc6d5398427f0c3abd76db24ee5ab42a15ee802205df6e4a05791f0208912914ba69569ee444bc509924ac5a3a055d494403cb04b01210237e52cd508bbf69bcd0c979b6dfeabc6bf8d27c2bb22b444ab6c28ef839be4e4ffffffff91fd128dc90695d388e3cfda59503b1b1cb203fc49ecf48e59aad6e08b9848e2000000006b483045022100f77506659c37c156728935c28c953d3aa56a0daaf3fd0b1852fc08f3e41df41402206a66d94503a96f914ada08364de83d633c1d1ad4dc7a918da0df7e7549448aaf0121031b497d4de8e7123cf98e21cf437b07cc7e50e37dce5b8d4ef17cdafdcf9e8e68ffffffff0284330000000000001976a914aa07ae6502579bcfb2ebefe5ef900b32cb6b5af088acfafe0400000000001976a9140c0e7922f27377ce161531280e2aed6184cf29a588ac00000000", "vin": [{"sequence": 4294967295, "scriptSig": {"hex": "47304402202da3243aad36e09302c61997ab3fc6d5398427f0c3abd76db24ee5ab42a15ee802205df6e4a05791f0208912914ba69569ee444bc509924ac5a3a055d494403cb04b01210237e52cd508bbf69bcd0c979b6dfeabc6bf8d27c2bb22b444ab6c28ef839be4e4", "asm": "304402202da3243aad36e09302c61997ab3fc6d5398427f0c3abd76db24ee5ab42a15ee802205df6e4a05791f0208912914ba69569ee444bc509924ac5a3a055d494403cb04b[ALL] 0237e52cd508bbf69bcd0c979b6dfeabc6bf8d27c2bb22b444ab6c28ef839be4e4"}, "vout": 7, "txid": "b33d6b02ead7f2a9c4d9ed4e6e0885992de9c9a8d5669547b7b61664843f1a60"}, {"sequence": 4294967295, "scriptSig": {"hex": "483045022100f77506659c37c156728935c28c953d3aa56a0daaf3fd0b1852fc08f3e41df41402206a66d94503a96f914ada08364de83d633c1d1ad4dc7a918da0df7e7549448aaf0121031b497d4de8e7123cf98e21cf437b07cc7e50e37dce5b8d4ef17cdafdcf9e8e68", "asm": "3045022100f77506659c37c156728935c28c953d3aa56a0daaf3fd0b1852fc08f3e41df41402206a66d94503a96f914ada08364de83d633c1d1ad4dc7a918da0df7e7549448aaf[ALL] 031b497d4de8e7123cf98e21cf437b07cc7e50e37dce5b8d4ef17cdafdcf9e8e68"}, "vout": 0, "txid": "e248988be0d6aa598ef4ec49fc03b21c1b3b5059dacfe388d39506c98d12fd91"}], "txid": "389ac387bf4c2899df5007d26cd9f089c85734796214232ba93cb5196c25fe96", "blocktime": 1537869901, "version": 1, "confirmations": 11524, "time": 1537869901, "locktime": 0, "vsize": 373, "size": 373}