{"hash": "389aa58ec8784aeccfc4ca79e2cc8e153801f686f06b97dd45974b1c9034feba", "blockhash": "0000000000000000001e0dab787dd257d1dbfcb92a98c2207d5e1078be1f4165", "vout": [{"scriptPubKey": {"reqSigs": 1, "hex": "76a914be17aed9134f609e7557edb4cb29747c9b65f24688ac", "addresses": ["1JL7kyLyQWwSx5ENzimY4impEuQSdbipzP"], "asm": "OP_DUP OP_HASH160 be17aed9134f609e7557edb4cb29747c9b65f246 OP_EQUALVERIFY OP_CHECKSIG", "type": "pubkeyhash"}, "value": 2.934e-05, "n": 0}], "hex": "0100000004541b17259652dd9f1832bd31190d06f5f0c05320cd0d4ca8f7d52e3aea214d04000000006a47304402202b95fdf04c3582ed313be7f845d5a92000f6eb7935f83a1c69b1f3a1d09df71602202597c75539459d408a47a82f5b362cc31450704e95c577b41077f407412858d0012103376e53f89038dc708e1ece66400b9e1d9b0d7ec40c74680eec60feed18afd46fffffffffdc20558f3d31a66f071dd6894fc849f7599ca6c19800859e15e04ea9374fe018000000006a47304402207bdbf74d49e670eb39a137b5bbe99278ea3fc0961f4133d8225256319ae9fb1502201b3526a7fd8c5a52b092148080b6fe1a87e9952face61d98bc23a15ae50b0a0101210360fd8f61f954f9cb36a80c55522e35b7047222e1e7720fedbd783716d8c40773ffffffff6588f68be5846999fd0f751c68d7de55acc2a938b67309ff22d9d80de07cd850000000006b483045022100a1e153c4ee6a14ef846915f81f8d8b9c715737f351643a2e05e33f9fc0b92eab022048f052a6b8fa142edb9d76f2768ce541aa58d5ea6f60ea83030a51c3b4665bf00121028c116fb1bbca489179d84d850a90c6456ee3d6b6e4a1add12113dc84d09422e3ffffffff76203a0eeb2db63b6f21ca5888d454bed88b79500c0d462add804e3d3da22584000000006a4730440220373f0dd699458f993bfbaf9bab65be89b158c2b97e042e868b11c7b00bb29ef8022065195151750654d4d5f8e738e9927dfc4706acc5a51db702a5c0b30b97fbff300121021a22c45dce478222e5923294f620b95f2a36098da1eb3a834a11df39fd026313ffffffff01760b0000000000001976a914be17aed9134f609e7557edb4cb29747c9b65f24688ac00000000", "vin": [{"sequence": 4294967295, "scriptSig": {"hex": "47304402202b95fdf04c3582ed313be7f845d5a92000f6eb7935f83a1c69b1f3a1d09df71602202597c75539459d408a47a82f5b362cc31450704e95c577b41077f407412858d0012103376e53f89038dc708e1ece66400b9e1d9b0d7ec40c74680eec60feed18afd46f", "asm": "304402202b95fdf04c3582ed313be7f845d5a92000f6eb7935f83a1c69b1f3a1d09df71602202597c75539459d408a47a82f5b362cc31450704e95c577b41077f407412858d0[ALL] 03376e53f89038dc708e1ece66400b9e1d9b0d7ec40c74680eec60feed18afd46f"}, "vout": 0, "txid": "044d21ea3a2ed5f7a84c0dcd2053c0f0f5060d1931bd32189fdd529625171b54"}, {"sequence": 4294967295, "scriptSig": {"hex": "47304402207bdbf74d49e670eb39a137b5bbe99278ea3fc0961f4133d8225256319ae9fb1502201b3526a7fd8c5a52b092148080b6fe1a87e9952face61d98bc23a15ae50b0a0101210360fd8f61f954f9cb36a80c55522e35b7047222e1e7720fedbd783716d8c40773", "asm": "304402207bdbf74d49e670eb39a137b5bbe99278ea3fc0961f4133d8225256319ae9fb1502201b3526a7fd8c5a52b092148080b6fe1a87e9952face61d98bc23a15ae50b0a01[ALL] 0360fd8f61f954f9cb36a80c55522e35b7047222e1e7720fedbd783716d8c40773"}, "vout": 0, "txid": "18e04f37a94ee0159e850098c1a69c59f749c84f89d61d076fa6313d8f5520dc"}, {"sequence": 4294967295, "scriptSig": {"hex": "483045022100a1e153c4ee6a14ef846915f81f8d8b9c715737f351643a2e05e33f9fc0b92eab022048f052a6b8fa142edb9d76f2768ce541aa58d5ea6f60ea83030a51c3b4665bf00121028c116fb1bbca489179d84d850a90c6456ee3d6b6e4a1add12113dc84d09422e3", "asm": "3045022100a1e153c4ee6a14ef846915f81f8d8b9c715737f351643a2e05e33f9fc0b92eab022048f052a6b8fa142edb9d76f2768ce541aa58d5ea6f60ea83030a51c3b4665bf0[ALL] 028c116fb1bbca489179d84d850a90c6456ee3d6b6e4a1add12113dc84d09422e3"}, "vout": 0, "txid": "50d87ce00dd8d922ff0973b638a9c2ac55ded7681c750ffd996984e58bf68865"}, {"sequence": 4294967295, "scriptSig": {"hex": "4730440220373f0dd699458f993bfbaf9bab65be89b158c2b97e042e868b11c7b00bb29ef8022065195151750654d4d5f8e738e9927dfc4706acc5a51db702a5c0b30b97fbff300121021a22c45dce478222e5923294f620b95f2a36098da1eb3a834a11df39fd026313", "asm": "30440220373f0dd699458f993bfbaf9bab65be89b158c2b97e042e868b11c7b00bb29ef8022065195151750654d4d5f8e738e9927dfc4706acc5a51db702a5c0b30b97fbff30[ALL] 021a22c45dce478222e5923294f620b95f2a36098da1eb3a834a11df39fd026313"}, "vout": 0, "txid": "8425a23d3d4e80dd2a460d0c50798bd8be54d48858ca216f3bb62deb0e3a2076"}], "txid": "389aa58ec8784aeccfc4ca79e2cc8e153801f686f06b97dd45974b1c9034feba", "blocktime": 1537872475, "version": 1, "confirmations": 11487, "time": 1537872475, "locktime": 0, "vsize": 633, "size": 633}