{"hash": "389c743927955d4cd304321615fccf3eec7cc207932b9ef787fd839efdc59c58", "blockhash": "00000000000000000018f53835495a110e01622372bf6ae95dc86f2b0ab887b0", "vout": [{"scriptPubKey": {"reqSigs": 1, "hex": "76a9141c8055acef0de5a82eaece5f7b9a517a5a0ab79f88ac", "addresses": ["13bhfDnaqxjFsLTW8wMDrmtyPVMPm7Hy93"], "asm": "OP_DUP OP_HASH160 1c8055acef0de5a82eaece5f7b9a517a5a0ab79f OP_EQUALVERIFY OP_CHECKSIG", "type": "pubkeyhash"}, "value": 0.001, "n": 0}, {"scriptPubKey": {"reqSigs": 1, "hex": "76a91490f05681fae6e3aaa73adb2071e13fc8410c4c9388ac", "addresses": ["1EDNDbWpsWP7P8jzgUKsJtctmaNFKMsort"], "asm": "OP_DUP OP_HASH160 90f05681fae6e3aaa73adb2071e13fc8410c4c93 OP_EQUALVERIFY OP_CHECKSIG", "type": "pubkeyhash"}, "value": 0.01006362, "n": 1}], "hex": "010000000238a5866b73abffe35159e82e1c9f00104ad848c76127fffd90ce70cf6cab5a7a010000006a473044022006b358d834b356d08c94cb9755464f758459ad61d2e8f6fab121480f9250c8ef02207bea9fbd1bbafd8be273084b594ced0a2a974c834068c358d947a8b57b37a83c012102b40ca0aa25d0ad12492130fea9a7162a93b4adc9ff29579ce10e06416c4321b8feffffff064dad5f8cf414e4a77addbe3c18cf8ddf62d878ffd3ef70f8bf91f1a7f85f5d010000006a47304402201612203481ae85fdbf1123114ec71871c7231613703bccdaa6ca2aeaa91c17ff022030f0d91190298846aee4f985eb50579ac27a0db7b798e75225710e58c89a4ad9012103c41947d73753ae01af9aed3ce8daef01e152e45975f385de1de480684cf19180feffffff02a0860100000000001976a9141c8055acef0de5a82eaece5f7b9a517a5a0ab79f88ac1a5b0f00000000001976a91490f05681fae6e3aaa73adb2071e13fc8410c4c9388ac0e490800", "vin": [{"sequence": 4294967294, "scriptSig": {"hex": "473044022006b358d834b356d08c94cb9755464f758459ad61d2e8f6fab121480f9250c8ef02207bea9fbd1bbafd8be273084b594ced0a2a974c834068c358d947a8b57b37a83c012102b40ca0aa25d0ad12492130fea9a7162a93b4adc9ff29579ce10e06416c4321b8", "asm": "3044022006b358d834b356d08c94cb9755464f758459ad61d2e8f6fab121480f9250c8ef02207bea9fbd1bbafd8be273084b594ced0a2a974c834068c358d947a8b57b37a83c[ALL] 02b40ca0aa25d0ad12492130fea9a7162a93b4adc9ff29579ce10e06416c4321b8"}, "vout": 1, "txid": "7a5aab6ccf70ce90fdff2761c748d84a10009f1c2ee85951e3ffab736b86a538"}, {"sequence": 4294967294, "scriptSig": {"hex": "47304402201612203481ae85fdbf1123114ec71871c7231613703bccdaa6ca2aeaa91c17ff022030f0d91190298846aee4f985eb50579ac27a0db7b798e75225710e58c89a4ad9012103c41947d73753ae01af9aed3ce8daef01e152e45975f385de1de480684cf19180", "asm": "304402201612203481ae85fdbf1123114ec71871c7231613703bccdaa6ca2aeaa91c17ff022030f0d91190298846aee4f985eb50579ac27a0db7b798e75225710e58c89a4ad9[ALL] 03c41947d73753ae01af9aed3ce8daef01e152e45975f385de1de480684cf19180"}, "vout": 1, "txid": "5d5ff8a7f191bff870efd3ff78d862df8dcf183cbedd7aa7e414f48c5fad4d06"}], "txid": "389c743927955d4cd304321615fccf3eec7cc207932b9ef787fd839efdc59c58", "blocktime": 1537870928, "version": 1, "confirmations": 11514, "time": 1537870928, "locktime": 542990, "vsize": 372, "size": 372}