{"hash": "095e215e90f193c3582e18c03d61e5293c885cf9484dead41db6f5595e914008", "blockhash": "00000000000000000018f53835495a110e01622372bf6ae95dc86f2b0ab887b0", "vout": [{"scriptPubKey": {"reqSigs": 1, "hex": "76a914b57977540107cc9ed4dd66b193377f83b730a35c88ac", "addresses": ["1HYYpLUBNagwcGzZvm44QTNt2eU7fqRujq"], "asm": "OP_DUP OP_HASH160 b57977540107cc9ed4dd66b193377f83b730a35c OP_EQUALVERIFY OP_CHECKSIG", "type": "pubkeyhash"}, "value": 0.00299071, "n": 0}, {"scriptPubKey": {"reqSigs": 1, "hex": "76a9144cbfd7e43869dcca00ba1168adfb102efd6683c488ac", "addresses": ["17zpB63ynAqr3XEXaHCqQShnRHRDr9MLsb"], "asm": "OP_DUP OP_HASH160 4cbfd7e43869dcca00ba1168adfb102efd6683c4 OP_EQUALVERIFY OP_CHECKSIG", "type": "pubkeyhash"}, "value": 0.00319034, "n": 1}, {"scriptPubKey": {"reqSigs": 1, "hex": "a91472cb40a545eec7eb7a8757ea79da0c0028df25a287", "addresses": ["3C9zSeNmufa7n2LKRbYEtDpcc5U8BdtG9s"], "asm": "OP_HASH160 72cb40a545eec7eb7a8757ea79da0c0028df25a2 OP_EQUAL", "type": "scripthash"}, "value": 0.69716872, "n": 2}, {"scriptPubKey": {"reqSigs": 1, "hex": "76a9146cd49dc429df53aa4fc5d522459a2a157fa3c31788ac", "addresses": ["1AvSgZDSEM33c9ytgH2zHS3YML2rtV1yMF"], "asm": "OP_DUP OP_HASH160 6cd49dc429df53aa4fc5d522459a2a157fa3c317 OP_EQUALVERIFY OP_CHECKSIG", "type": "pubkeyhash"}, "value": 0.295, "n": 3}, {"scriptPubKey": {"reqSigs": 1, "hex": "76a91448c3423a85b5591c2313567c9171942c14524c4888ac", "addresses": ["17djZdDnKhcmwK8eGPZ8TnBF4YxcGzMoz9"], "asm": "OP_DUP OP_HASH160 48c3423a85b5591c2313567c9171942c14524c48 OP_EQUALVERIFY OP_CHECKSIG", "type": "pubkeyhash"}, "value": 0.08417672, "n": 4}], "hex": "020000000001022122472c299afc45d46e80ea4b8939966b8ee8c71e43423c650ed2f073694a1101000000171600140bc0c7b0507d8e10a4654e2a08540aa70aca1397feffffff556a8c8fa33e3eb294207cea896be65e18b925d49fb1387ef914bd4e95a173ff0100000017160014a7187eda2a886fb0f63c1f5d04619d6b562f2c39feffffff053f900400000000001976a914b57977540107cc9ed4dd66b193377f83b730a35c88ac3ade0400000000001976a9144cbfd7e43869dcca00ba1168adfb102efd6683c488ac88cb27040000000017a91472cb40a545eec7eb7a8757ea79da0c0028df25a2876022c201000000001976a9146cd49dc429df53aa4fc5d522459a2a157fa3c31788ac88718000000000001976a91448c3423a85b5591c2313567c9171942c14524c4888ac02473044022045dc567da3b8cbc43a35555dc6e1435deaccef6fc3e3b1670cdb8b75bde2f0d4022064311e86a6252a889642e1fa717b5bf8c7730d55140add15dd938af39782dfb80121027291c9458e841580a81d3516106c1ca1a60960da171363577138ee784e83926d0247304402206e245d7065374ed5ff42ddfba97469459f7d5fb7306ac0a534ed214e40f6ee93022031d93ca2512b4299caf8ec253018c72120c3c085f75a11775dd5a130257e21390121032f3a4e82941eba702c8da913d977c44c700c49d9c9a1d676a6056c8d3c72be8f0e490800", "vin": [{"txinwitness": ["3044022045dc567da3b8cbc43a35555dc6e1435deaccef6fc3e3b1670cdb8b75bde2f0d4022064311e86a6252a889642e1fa717b5bf8c7730d55140add15dd938af39782dfb801", "027291c9458e841580a81d3516106c1ca1a60960da171363577138ee784e83926d"], "sequence": 4294967294, "scriptSig": {"hex": "1600140bc0c7b0507d8e10a4654e2a08540aa70aca1397", "asm": "00140bc0c7b0507d8e10a4654e2a08540aa70aca1397"}, "vout": 1, "txid": "114a6973f0d20e653c42431ec7e88e6b9639894bea806ed445fc9a292c472221"}, {"txinwitness": ["304402206e245d7065374ed5ff42ddfba97469459f7d5fb7306ac0a534ed214e40f6ee93022031d93ca2512b4299caf8ec253018c72120c3c085f75a11775dd5a130257e213901", "032f3a4e82941eba702c8da913d977c44c700c49d9c9a1d676a6056c8d3c72be8f"], "sequence": 4294967294, "scriptSig": {"hex": "160014a7187eda2a886fb0f63c1f5d04619d6b562f2c39", "asm": "0014a7187eda2a886fb0f63c1f5d04619d6b562f2c39"}, "vout": 1, "txid": "ff73a1954ebd14f97e38b19fd425b9185ee66b89ea7c2094b23e3ea38f8c6a55"}], "txid": "389df6e96e99f31d91b710ca188297d31da69b16e7065878a790df6939c8befc", "blocktime": 1537870928, "version": 2, "confirmations": 11512, "time": 1537870928, "locktime": 542990, "vsize": 360, "size": 522}