{"hash": "df28272dfc53dc698ec6a5b282e4c79884acf8e6dd391df9d63bfdbce754dd00", "blockhash": "0000000000000000000baef3f32e3676a92c3b2e5da21b426e4f302fc371ce76", "vout": [{"scriptPubKey": {"reqSigs": 1, "hex": "76a9140bc72a745bf015bebab99426c25df3078d2dfeb888ac", "addresses": ["125H2PvKWQAUck4UL27T26Uo9isn1vXhkr"], "asm": "OP_DUP OP_HASH160 0bc72a745bf015bebab99426c25df3078d2dfeb8 OP_EQUALVERIFY OP_CHECKSIG", "type": "pubkeyhash"}, "value": 0.12814869, "n": 0}], "hex": "01000000000101d2d6a03c59b7ff8f0ebe7fc64c35fbea0bd696862e4157801bcfed56db487d220100000023220020be7b70684fa286a313a8aae5a8d7655e0c3bc739d6c215a08f4940b1ec83bfeeffffffff01158ac300000000001976a9140bc72a745bf015bebab99426c25df3078d2dfeb888ac0400483045022100f4e3ffe58d39f231b42a0194d2f28cf194a9f3b5c95c2f92603dd78fd8ce48630220041c68331d010bcf3519a88d3227d441d17295c238dca600ae14bc4edc39109b014730440220346a6a80e9bea8f7c30d87f99135e690239e3ccf786508360ea5b8aef82a9b5202201a762933a1968248c066bd39c52eae8ca479d0806e7cf23202257dca2b89f8f901475221035050bc020bab89a8fd33688860457ce40424b9e68621eff359e15eb7ba310d9821024c32d2ff53507a9cdb90868d7d15b57192c38b3dead3c0a8d71bf327f6b23adc52ae00000000", "vin": [{"txinwitness": ["", "3045022100f4e3ffe58d39f231b42a0194d2f28cf194a9f3b5c95c2f92603dd78fd8ce48630220041c68331d010bcf3519a88d3227d441d17295c238dca600ae14bc4edc39109b01", "30440220346a6a80e9bea8f7c30d87f99135e690239e3ccf786508360ea5b8aef82a9b5202201a762933a1968248c066bd39c52eae8ca479d0806e7cf23202257dca2b89f8f901", "5221035050bc020bab89a8fd33688860457ce40424b9e68621eff359e15eb7ba310d9821024c32d2ff53507a9cdb90868d7d15b57192c38b3dead3c0a8d71bf327f6b23adc52ae"], "sequence": 4294967295, "scriptSig": {"hex": "220020be7b70684fa286a313a8aae5a8d7655e0c3bc739d6c215a08f4940b1ec83bfee", "asm": "0020be7b70684fa286a313a8aae5a8d7655e0c3bc739d6c215a08f4940b1ec83bfee"}, "vout": 1, "txid": "227d48db56edcf1b8057412e8696d60beafb354cc67fbe0e8fffb7593ca0d6d2"}], "txid": "38a18c28029c3fdf49df933eb4b3bf5c514cf714e3ab827cd77a84439c033d20", "blocktime": 1537876114, "version": 1, "confirmations": 11459, "time": 1537876114, "locktime": 0, "vsize": 176, "size": 341}