{"hash": "38a671ef492f63f8e538223728ee3e475cc951f47c48496e7ef9025f37c74f4c", "blockhash": "0000000000000000000e13cef7c366c0283d82e591d1acd082e914b08063cdf1", "vout": [{"scriptPubKey": {"reqSigs": 1, "hex": "76a914562b95854d3ae8509ba3c85cb92f97c83a7f167d88ac", "addresses": ["18rdKmjrg1EawxgiVT3ikLExj6GWS2MNCk"], "asm": "OP_DUP OP_HASH160 562b95854d3ae8509ba3c85cb92f97c83a7f167d OP_EQUALVERIFY OP_CHECKSIG", "type": "pubkeyhash"}, "value": 0.00021787, "n": 0}, {"scriptPubKey": {"reqSigs": 1, "hex": "a914955ecba0bf7b566939200dd30f6b4bfea5f1a5a287", "addresses": ["3FJpAdNKy3QcXxAWyanXe1gU6WjsLuAdz8"], "asm": "OP_HASH160 955ecba0bf7b566939200dd30f6b4bfea5f1a5a2 OP_EQUAL", "type": "scripthash"}, "value": 0.01067575, "n": 1}], "hex": "0100000001aa20fa9d6ee8ea7c13e9cba90e4cc5c7b7517cd93db195bda9c2eac6a4647e35000000008b483045022100f4a5c8a2db4a7172a8c87fa92f902f92acb15370e61a6ea436ff26b02585cefa0220358e78df9a9c4a9a7284d44d94f3a0eb1923b65cefba47664007de7673a8acb9014104b2e5a0e1506786e6d071758b30e966500c53e54d32d89f1d061d7bfeb95246f0a17b90dd3fff469073d2428deb732227a7c4147b742ca711e30d79cc43ba43c1ffffffff021b550000000000001976a914562b95854d3ae8509ba3c85cb92f97c83a7f167d88ac374a10000000000017a914955ecba0bf7b566939200dd30f6b4bfea5f1a5a28700000000", "vin": [{"sequence": 4294967295, "scriptSig": {"hex": "483045022100f4a5c8a2db4a7172a8c87fa92f902f92acb15370e61a6ea436ff26b02585cefa0220358e78df9a9c4a9a7284d44d94f3a0eb1923b65cefba47664007de7673a8acb9014104b2e5a0e1506786e6d071758b30e966500c53e54d32d89f1d061d7bfeb95246f0a17b90dd3fff469073d2428deb732227a7c4147b742ca711e30d79cc43ba43c1", "asm": "3045022100f4a5c8a2db4a7172a8c87fa92f902f92acb15370e61a6ea436ff26b02585cefa0220358e78df9a9c4a9a7284d44d94f3a0eb1923b65cefba47664007de7673a8acb9[ALL] 04b2e5a0e1506786e6d071758b30e966500c53e54d32d89f1d061d7bfeb95246f0a17b90dd3fff469073d2428deb732227a7c4147b742ca711e30d79cc43ba43c1"}, "vout": 0, "txid": "357e64a4c6eac2a9bd95b13dd97c51b7c7c54c0ea9cbe9137ceae86e9dfa20aa"}], "txid": "38a671ef492f63f8e538223728ee3e475cc951f47c48496e7ef9025f37c74f4c", "blocktime": 1537871767, "version": 1, "confirmations": 11490, "time": 1537871767, "locktime": 0, "vsize": 256, "size": 256}