{"hash": "38b076ef1cc598eeffe880e752c4b05c69aef3d60320b192b76e65f6625435e6", "blockhash": "0000000000000000000baef3f32e3676a92c3b2e5da21b426e4f302fc371ce76", "vout": [{"scriptPubKey": {"reqSigs": 1, "hex": "76a914dab6622664c8d3050600c6e2700993b0d442bd0588ac", "addresses": ["1LwSo3JaM8uoDEX4fvWeRYB7BKSKkEeUtp"], "asm": "OP_DUP OP_HASH160 dab6622664c8d3050600c6e2700993b0d442bd05 OP_EQUALVERIFY OP_CHECKSIG", "type": "pubkeyhash"}, "value": 0.00799974, "n": 0}, {"scriptPubKey": {"reqSigs": 1, "hex": "76a914e8cea30989bd15530f819b766684b00dc7ba7cfa88ac", "addresses": ["1NDyJtNTjmwk5xPNhjgAMu4HDHigtobu1s"], "asm": "OP_DUP OP_HASH160 e8cea30989bd15530f819b766684b00dc7ba7cfa OP_EQUALVERIFY OP_CHECKSIG", "type": "pubkeyhash"}, "value": 5.09688495, "n": 1}], "hex": "020000000d054b0ed5fffa1492ed93255c6bf3785f71e9da79c6acb3acb13d65ff261b3d09430000006b483045022100ca547a743a6d4305cc88e1fb031dfcfe2e8a6fccf83fac95bbb08613f4c5f2680220540779459958dbc5ba3d9bd081c4cb015656d7744330be059746ca3d6785375f012103f7c771651962ee6fe8cb58a242edda1c649c22f709dbd343a200ad042d4ed0befeffffff098e05e903ab69f96d06500ba36c0259e61774dd529b0c7baa7d8154a6ea37eb010000006a4730440220620d3916f23aa52db9bc6baeb9e9ffcf46cca88b268b0b68c08a32452d928f0902207eee40a3881bb754d6ea94ec6aea1a7470e1e980458073d7fd3233e138d2426a012103e62b381997bb605c41b6d26acf55e9450f058db8d1f04d5672ef54741a00157dfeffffff0eff8a5f6d87a2860fba9cdc1316db548d88f0f45d6a7113dfc7d940e5874502010000006b483045022100b684009e44bca9ff8a79c864b079b0dcc07215de82578ea698580c84a1d8b76802205a074d793da6ca22a97788339833e9b97fbf9343896ec6663ff9a5d506eb7fa3012102b8432591c649ee357ce2c548810e97c16043422cf54cf625622e7d75ae7ad45efeffffff1019d053a43bdfe605b1bdac104da3baf04fb25926446ac034e81e15434a2825080000006a473044022049e2858908f78308fd876a5c74fca37d281d47e4fb67c3aef7ce47c3377f37ff022069b1a935d6a015e9fc516f70eded2a889b68f7380614dd9cc08b799590bfcdbe0121035c0587944bbe33f88887a2b79dfc162793da6c6eb6108672644c9b32a3237984feffffff180e3266a6ce73539884c00bc232a4619ad9e66de0dfed4d464655530af29d93160000006b483045022100bf8e99e6a95f4d19df68f3e77cd614875e453fcbb05774997101ef1e0b7d514a02206444014d591fc93160e9ab96bf6a99b084f5b839687cb8e45d02abe5e6471e7d012103a2a5646c39c9b84954d84b431a3761c60553e7e8cf6d909fc28922d801a009e5feffffff2f2d2c6a502112af60efeaa3547dad3b124962ce8b3480c1aeb5e8e7c9ff4eee520000006a473044022056575c01df7f7634b4e1acdeecd527982f25e967e1cfc3c3a365cf45e045d8160220560699a6fa63f43f3c3e878092fd8324dd7547f900f4ba2dc48743e41e9f24e501210205688c956b58fa860e674364b6550f08e0ee35407485060d18461d8dbdd5369ffeffffff721f700d16d9821dc6bab43cff7b59341027f235871696addd2fb74a826a3cc7270000006a473044022012f6156141aa88f4cceb295925f26a96713581a746a50d779fec7b3e9bdf748202203bc27a08ec92917f9aaea144db1cbd94aee23daa74267192acf4b86c48a4c5ed012103dd22aa37e55dfcd5739a7e4eae9f4e02a26c9373a8a051d746fbe6ffee4ce594feffffffa273a17451c756f6e9dc856c7c517bcbb52c2d360c5211c42a8b4e1712e80276340000006b483045022100a7c5cb9a804b5580c5c35caaf1c40cf2cdd920aa9c52cde6a970337ee1b6daa202205976c5a28b0813182c0992845758f636411ba0bb605d6ad02a50a8c26622039801210220ab6ef43b9bc18612fb1d5c9f89b4f168aa3cf442e4a0c4c83beab64bcab3a6feffffffb2514191ce350d999d4e428e94bbf2ec633df38bc29dfc5c971be41d8cd942dd040000006a473044022025ee4d1a256039beadc80f92c9ad79443d4e15b37bce266087a9f76070bdfc1c02202a2a9f3531d64427f144287782493a25dd2720be84eb117dcf82f3cf4a66bf10012103b9c5f646bc592ba35e10997635eaa327f5b0f4ed31094bd29682e9bc069f024bfeffffffc55ad0955f34db5e94193ee812c00c8217cb54e8d1817fedac3546f925112485000000006b483045022100fbb09eecb17844c6c63d4d034a1e1f800e43da32b395c9a80ad873e523e11deb022040fc135faeec669e4cc14a17a28b578763a688da6862750a35b6b3b7e1ae34170121024dafec5684451bb481bedee698a7fd45a2f527c36de9450a0b40ea5ea8517c49feffffffeb3298b3addc71301eaeb776a1863181831b1c55989dd3a480b638f906d42ebe000000006b483045022100c053e16c8b4bb348f5937055a73dd6ffc890361320a2733a69c6ce0aaca6bb86022029c6bd48322a5d1d0556bb07f6f89501988c33461535c003d97c226be797e30201210320ec99112cf4f42d9a3aafc60c3ee18633c302e7859b57697e01c4f35a1d65fefeffffffec0b7c67117084dd8e9b21132c4a779e50e27c7490648dbac05d36fa64b8054b000000006a473044022069431deebe75bd0f761cb64ec89f165a68c34e6633384d551969429b6ac6b6ce02207a5eae501ec1376900035bf86584deaba682c79a1e176a974e9942a0790fd158012103cffd11df027d073d4b34085ef6f61fcb793993436780ca2cdf0ab5cfec5d96a1fefffffffb61845b96b52b6e89feeff4d2e16d02b364f7c46107e635978d8b697f8d6efc000000006b48304502210089b355e1b4c977a2e9b3fc9d712d70c89a26b3cc729865a67f294848a4e1c19e022064b0e96acb2a3922ae1c478c2b4de874967f3bac6de322ba3b2da1f021589fb6012102fe3453e0a1ab6f29e9548371b2fca7cfc1356ba77d5b85720139b3445aae3c72feffffff02e6340c00000000001976a914dab6622664c8d3050600c6e2700993b0d442bd0588acaf3a611e000000001976a914e8cea30989bd15530f819b766684b00dc7ba7cfa88ac17490800", "vin": [{"sequence": 4294967294, "scriptSig": {"hex": "483045022100ca547a743a6d4305cc88e1fb031dfcfe2e8a6fccf83fac95bbb08613f4c5f2680220540779459958dbc5ba3d9bd081c4cb015656d7744330be059746ca3d6785375f012103f7c771651962ee6fe8cb58a242edda1c649c22f709dbd343a200ad042d4ed0be", "asm": "3045022100ca547a743a6d4305cc88e1fb031dfcfe2e8a6fccf83fac95bbb08613f4c5f2680220540779459958dbc5ba3d9bd081c4cb015656d7744330be059746ca3d6785375f[ALL] 03f7c771651962ee6fe8cb58a242edda1c649c22f709dbd343a200ad042d4ed0be"}, "vout": 67, "txid": "093d1b26ff653db1acb3acc679dae9715f78f36b5c2593ed9214faffd50e4b05"}, {"sequence": 4294967294, "scriptSig": {"hex": "4730440220620d3916f23aa52db9bc6baeb9e9ffcf46cca88b268b0b68c08a32452d928f0902207eee40a3881bb754d6ea94ec6aea1a7470e1e980458073d7fd3233e138d2426a012103e62b381997bb605c41b6d26acf55e9450f058db8d1f04d5672ef54741a00157d", "asm": "30440220620d3916f23aa52db9bc6baeb9e9ffcf46cca88b268b0b68c08a32452d928f0902207eee40a3881bb754d6ea94ec6aea1a7470e1e980458073d7fd3233e138d2426a[ALL] 03e62b381997bb605c41b6d26acf55e9450f058db8d1f04d5672ef54741a00157d"}, "vout": 1, "txid": "eb37eaa654817daa7b0c9b52dd7417e659026ca30b50066df969ab03e9058e09"}, {"sequence": 4294967294, "scriptSig": {"hex": "483045022100b684009e44bca9ff8a79c864b079b0dcc07215de82578ea698580c84a1d8b76802205a074d793da6ca22a97788339833e9b97fbf9343896ec6663ff9a5d506eb7fa3012102b8432591c649ee357ce2c548810e97c16043422cf54cf625622e7d75ae7ad45e", "asm": "3045022100b684009e44bca9ff8a79c864b079b0dcc07215de82578ea698580c84a1d8b76802205a074d793da6ca22a97788339833e9b97fbf9343896ec6663ff9a5d506eb7fa3[ALL] 02b8432591c649ee357ce2c548810e97c16043422cf54cf625622e7d75ae7ad45e"}, "vout": 1, "txid": "024587e540d9c7df13716a5df4f0888d54db1613dc9cba0f86a2876d5f8aff0e"}, {"sequence": 4294967294, "scriptSig": {"hex": "473044022049e2858908f78308fd876a5c74fca37d281d47e4fb67c3aef7ce47c3377f37ff022069b1a935d6a015e9fc516f70eded2a889b68f7380614dd9cc08b799590bfcdbe0121035c0587944bbe33f88887a2b79dfc162793da6c6eb6108672644c9b32a3237984", "asm": "3044022049e2858908f78308fd876a5c74fca37d281d47e4fb67c3aef7ce47c3377f37ff022069b1a935d6a015e9fc516f70eded2a889b68f7380614dd9cc08b799590bfcdbe[ALL] 035c0587944bbe33f88887a2b79dfc162793da6c6eb6108672644c9b32a3237984"}, "vout": 8, "txid": "25284a43151ee834c06a442659b24ff0baa34d10acbdb105e6df3ba453d01910"}, {"sequence": 4294967294, "scriptSig": {"hex": "483045022100bf8e99e6a95f4d19df68f3e77cd614875e453fcbb05774997101ef1e0b7d514a02206444014d591fc93160e9ab96bf6a99b084f5b839687cb8e45d02abe5e6471e7d012103a2a5646c39c9b84954d84b431a3761c60553e7e8cf6d909fc28922d801a009e5", "asm": "3045022100bf8e99e6a95f4d19df68f3e77cd614875e453fcbb05774997101ef1e0b7d514a02206444014d591fc93160e9ab96bf6a99b084f5b839687cb8e45d02abe5e6471e7d[ALL] 03a2a5646c39c9b84954d84b431a3761c60553e7e8cf6d909fc28922d801a009e5"}, "vout": 22, "txid": "939df20a535546464deddfe06de6d99a61a432c20bc084985373cea666320e18"}, {"sequence": 4294967294, "scriptSig": {"hex": "473044022056575c01df7f7634b4e1acdeecd527982f25e967e1cfc3c3a365cf45e045d8160220560699a6fa63f43f3c3e878092fd8324dd7547f900f4ba2dc48743e41e9f24e501210205688c956b58fa860e674364b6550f08e0ee35407485060d18461d8dbdd5369f", "asm": "3044022056575c01df7f7634b4e1acdeecd527982f25e967e1cfc3c3a365cf45e045d8160220560699a6fa63f43f3c3e878092fd8324dd7547f900f4ba2dc48743e41e9f24e5[ALL] 0205688c956b58fa860e674364b6550f08e0ee35407485060d18461d8dbdd5369f"}, "vout": 82, "txid": "ee4effc9e7e8b5aec180348bce6249123bad7d54a3eaef60af1221506a2c2d2f"}, {"sequence": 4294967294, "scriptSig": {"hex": "473044022012f6156141aa88f4cceb295925f26a96713581a746a50d779fec7b3e9bdf748202203bc27a08ec92917f9aaea144db1cbd94aee23daa74267192acf4b86c48a4c5ed012103dd22aa37e55dfcd5739a7e4eae9f4e02a26c9373a8a051d746fbe6ffee4ce594", "asm": "3044022012f6156141aa88f4cceb295925f26a96713581a746a50d779fec7b3e9bdf748202203bc27a08ec92917f9aaea144db1cbd94aee23daa74267192acf4b86c48a4c5ed[ALL] 03dd22aa37e55dfcd5739a7e4eae9f4e02a26c9373a8a051d746fbe6ffee4ce594"}, "vout": 39, "txid": "c73c6a824ab72fddad96168735f2271034597bff3cb4bac61d82d9160d701f72"}, {"sequence": 4294967294, "scriptSig": {"hex": "483045022100a7c5cb9a804b5580c5c35caaf1c40cf2cdd920aa9c52cde6a970337ee1b6daa202205976c5a28b0813182c0992845758f636411ba0bb605d6ad02a50a8c26622039801210220ab6ef43b9bc18612fb1d5c9f89b4f168aa3cf442e4a0c4c83beab64bcab3a6", "asm": "3045022100a7c5cb9a804b5580c5c35caaf1c40cf2cdd920aa9c52cde6a970337ee1b6daa202205976c5a28b0813182c0992845758f636411ba0bb605d6ad02a50a8c266220398[ALL] 0220ab6ef43b9bc18612fb1d5c9f89b4f168aa3cf442e4a0c4c83beab64bcab3a6"}, "vout": 52, "txid": "7602e812174e8b2ac411520c362d2cb5cb7b517c6c85dce9f656c75174a173a2"}, {"sequence": 4294967294, "scriptSig": {"hex": "473044022025ee4d1a256039beadc80f92c9ad79443d4e15b37bce266087a9f76070bdfc1c02202a2a9f3531d64427f144287782493a25dd2720be84eb117dcf82f3cf4a66bf10012103b9c5f646bc592ba35e10997635eaa327f5b0f4ed31094bd29682e9bc069f024b", "asm": "3044022025ee4d1a256039beadc80f92c9ad79443d4e15b37bce266087a9f76070bdfc1c02202a2a9f3531d64427f144287782493a25dd2720be84eb117dcf82f3cf4a66bf10[ALL] 03b9c5f646bc592ba35e10997635eaa327f5b0f4ed31094bd29682e9bc069f024b"}, "vout": 4, "txid": "dd42d98c1de41b975cfc9dc28bf33d63ecf2bb948e424e9d990d35ce914151b2"}, {"sequence": 4294967294, "scriptSig": {"hex": "483045022100fbb09eecb17844c6c63d4d034a1e1f800e43da32b395c9a80ad873e523e11deb022040fc135faeec669e4cc14a17a28b578763a688da6862750a35b6b3b7e1ae34170121024dafec5684451bb481bedee698a7fd45a2f527c36de9450a0b40ea5ea8517c49", "asm": "3045022100fbb09eecb17844c6c63d4d034a1e1f800e43da32b395c9a80ad873e523e11deb022040fc135faeec669e4cc14a17a28b578763a688da6862750a35b6b3b7e1ae3417[ALL] 024dafec5684451bb481bedee698a7fd45a2f527c36de9450a0b40ea5ea8517c49"}, "vout": 0, "txid": "85241125f94635aced7f81d1e854cb17820cc012e83e19945edb345f95d05ac5"}, {"sequence": 4294967294, "scriptSig": {"hex": "483045022100c053e16c8b4bb348f5937055a73dd6ffc890361320a2733a69c6ce0aaca6bb86022029c6bd48322a5d1d0556bb07f6f89501988c33461535c003d97c226be797e30201210320ec99112cf4f42d9a3aafc60c3ee18633c302e7859b57697e01c4f35a1d65fe", "asm": "3045022100c053e16c8b4bb348f5937055a73dd6ffc890361320a2733a69c6ce0aaca6bb86022029c6bd48322a5d1d0556bb07f6f89501988c33461535c003d97c226be797e302[ALL] 0320ec99112cf4f42d9a3aafc60c3ee18633c302e7859b57697e01c4f35a1d65fe"}, "vout": 0, "txid": "be2ed406f938b680a4d39d98551c1b83813186a176b7ae1e3071dcadb39832eb"}, {"sequence": 4294967294, "scriptSig": {"hex": "473044022069431deebe75bd0f761cb64ec89f165a68c34e6633384d551969429b6ac6b6ce02207a5eae501ec1376900035bf86584deaba682c79a1e176a974e9942a0790fd158012103cffd11df027d073d4b34085ef6f61fcb793993436780ca2cdf0ab5cfec5d96a1", "asm": "3044022069431deebe75bd0f761cb64ec89f165a68c34e6633384d551969429b6ac6b6ce02207a5eae501ec1376900035bf86584deaba682c79a1e176a974e9942a0790fd158[ALL] 03cffd11df027d073d4b34085ef6f61fcb793993436780ca2cdf0ab5cfec5d96a1"}, "vout": 0, "txid": "4b05b864fa365dc0ba8d6490747ce2509e774a2c13219b8edd847011677c0bec"}, {"sequence": 4294967294, "scriptSig": {"hex": "48304502210089b355e1b4c977a2e9b3fc9d712d70c89a26b3cc729865a67f294848a4e1c19e022064b0e96acb2a3922ae1c478c2b4de874967f3bac6de322ba3b2da1f021589fb6012102fe3453e0a1ab6f29e9548371b2fca7cfc1356ba77d5b85720139b3445aae3c72", "asm": "304502210089b355e1b4c977a2e9b3fc9d712d70c89a26b3cc729865a67f294848a4e1c19e022064b0e96acb2a3922ae1c478c2b4de874967f3bac6de322ba3b2da1f021589fb6[ALL] 02fe3453e0a1ab6f29e9548371b2fca7cfc1356ba77d5b85720139b3445aae3c72"}, "vout": 0, "txid": "fc6e8d7f698b8d9735e60761c4f764b3026de1d2f4effe896e2bb5965b8461fb"}], "txid": "38b076ef1cc598eeffe880e752c4b05c69aef3d60320b192b76e65f6625435e6", "blocktime": 1537876114, "version": 2, "confirmations": 11459, "time": 1537876114, "locktime": 542999, "vsize": 1996, "size": 1996}