{"hash": "2a9e082ad3969925299851b6bffbbfffd6647779ed31d08b9bc60936bc745011", "blockhash": "00000000000000000018f53835495a110e01622372bf6ae95dc86f2b0ab887b0", "vout": [{"scriptPubKey": {"reqSigs": 1, "hex": "00142818f9b01679010fc2102f124c4b1c0259dc2921", "addresses": ["bc1q9qv0nvqk0yqslsss9ufycjcuqfvac2fp3xzlk3"], "asm": "0 2818f9b01679010fc2102f124c4b1c0259dc2921", "type": "witness_v0_keyhash"}, "value": 0.01112858, "n": 0}, {"scriptPubKey": {"reqSigs": 1, "hex": "a91452fa853068103454d2621473a8b99a815a63897b87", "addresses": ["39FmSj95HzRACRnHTo5gGYemxA24wwPs3C"], "asm": "OP_HASH160 52fa853068103454d2621473a8b99a815a63897b OP_EQUAL", "type": "scripthash"}, "value": 0.05020805, "n": 1}], "hex": "01000000000101ebeb3e4cedc59768736599941e3e142c22564c67025d986706d03c3d133421fc0100000017160014e184b7360389c6be7e820b0ed6f43f41d1ec80e4ffffffff021afb1000000000001600142818f9b01679010fc2102f124c4b1c0259dc2921859c4c000000000017a91452fa853068103454d2621473a8b99a815a63897b8702473044022002bb06fe606c2a9a6e92768ef0ddef8c4bbdf70de10eb376f33985d13b38bfdb022057dfd03a9d5daeb251b28fd967754ed73591fbb41491cf346f71bfa58b109554012103c2a05a2825a00a6ddc06455b8f659262226ab96830e72347015facc9d54b52b500000000", "vin": [{"txinwitness": ["3044022002bb06fe606c2a9a6e92768ef0ddef8c4bbdf70de10eb376f33985d13b38bfdb022057dfd03a9d5daeb251b28fd967754ed73591fbb41491cf346f71bfa58b10955401", "03c2a05a2825a00a6ddc06455b8f659262226ab96830e72347015facc9d54b52b5"], "sequence": 4294967295, "scriptSig": {"hex": "160014e184b7360389c6be7e820b0ed6f43f41d1ec80e4", "asm": "0014e184b7360389c6be7e820b0ed6f43f41d1ec80e4"}, "vout": 1, "txid": "fc2134133d3cd00667985d02674c56222c143e1e949965736897c5ed4c3eebeb"}], "txid": "38b18544c1a89c6d68a2f0f3f616368b407d1e2814c0eb1a2d0e08ff4976b902", "blocktime": 1537870928, "version": 1, "confirmations": 11512, "time": 1537870928, "locktime": 0, "vsize": 165, "size": 246}