{"hash": "38bcaee2424640d00387a691680f5b70d0a102e7301f41a0c2a1397f6d310a3c", "blockhash": "0000000000000000001cda96e906b7601b7a6fb1a3b62bca570a9e5d8f4b3de1", "vout": [{"scriptPubKey": {"reqSigs": 1, "hex": "a914fd31a1d47f3453ee30a1ab8d37e1c88b9b5ceb7187", "addresses": ["3QmnLaY13RheW6udjFiTGgj9QsGwNX8guw"], "asm": "OP_HASH160 fd31a1d47f3453ee30a1ab8d37e1c88b9b5ceb71 OP_EQUAL", "type": "scripthash"}, "value": 0.01325494, "n": 0}, {"scriptPubKey": {"reqSigs": 1, "hex": "76a9146586ced214191eaee684bf8787713d2671eff5aa88ac", "addresses": ["1AFpjzWNNtmMamjbbSSNLiVdktzrYMspCQ"], "asm": "OP_DUP OP_HASH160 6586ced214191eaee684bf8787713d2671eff5aa OP_EQUALVERIFY OP_CHECKSIG", "type": "pubkeyhash"}, "value": 0.04477688, "n": 1}], "hex": "02000000014a7b2b7a198154976456081e7ffb5c4d759ce51901b8a1b1ff933f1a88b29c8d010000006b483045022100f8cf04c0555d40092d619fc32d821a6899587204fb11bff998498fe027369c67022002cf7655ab5206b27920a09eeae069c11b235596570405852c3f4f7a60e859be01210210dac65f236a05432a1dbd2f909aa1c6e1870304203e734e8d07db9b57443d46ffffffff02b63914000000000017a914fd31a1d47f3453ee30a1ab8d37e1c88b9b5ceb7187f8524400000000001976a9146586ced214191eaee684bf8787713d2671eff5aa88ac00000000", "vin": [{"sequence": 4294967295, "scriptSig": {"hex": "483045022100f8cf04c0555d40092d619fc32d821a6899587204fb11bff998498fe027369c67022002cf7655ab5206b27920a09eeae069c11b235596570405852c3f4f7a60e859be01210210dac65f236a05432a1dbd2f909aa1c6e1870304203e734e8d07db9b57443d46", "asm": "3045022100f8cf04c0555d40092d619fc32d821a6899587204fb11bff998498fe027369c67022002cf7655ab5206b27920a09eeae069c11b235596570405852c3f4f7a60e859be[ALL] 0210dac65f236a05432a1dbd2f909aa1c6e1870304203e734e8d07db9b57443d46"}, "vout": 1, "txid": "8d9cb2881a3f93ffb1a1b80119e59c754d5cfb7f1e085664975481197a2b7b4a"}], "txid": "38bcaee2424640d00387a691680f5b70d0a102e7301f41a0c2a1397f6d310a3c", "blocktime": 1537873282, "version": 2, "confirmations": 11484, "time": 1537873282, "locktime": 0, "vsize": 224, "size": 224}