{"hash": "38c10a953eee102e778c9b094a171c3b31a20d758ab832e99725d502db9a57ba", "blockhash": "0000000000000000000e13cef7c366c0283d82e591d1acd082e914b08063cdf1", "vout": [{"scriptPubKey": {"reqSigs": 1, "hex": "a914874222eded788a614c1f5e9f7729f75a40ed850287", "addresses": ["3E2CNgUkRmEfggRfBokWu3d62AefpJoyhY"], "asm": "OP_HASH160 874222eded788a614c1f5e9f7729f75a40ed8502 OP_EQUAL", "type": "scripthash"}, "value": 0.095859, "n": 0}], "hex": "0100000001a4addef09520ea60fc8c0c685760cfa65db2fe4883eb514fc981b6c76bbb1ed0000000006b483045022100b7a5e34f2480b91742a5951bdf348abf50492e5111290c9f844a239ca143a7bf02204bf2f0ea897bb611a669d4a31841f398bfeb077226b2d08d30cda2d871cef4a8012103043a5488b62fb5a6dad1a4f6402623471a63e80cb225c7325b3eafd6971d859affffffff01ec4492000000000017a914874222eded788a614c1f5e9f7729f75a40ed85028700000000", "vin": [{"sequence": 4294967295, "scriptSig": {"hex": "483045022100b7a5e34f2480b91742a5951bdf348abf50492e5111290c9f844a239ca143a7bf02204bf2f0ea897bb611a669d4a31841f398bfeb077226b2d08d30cda2d871cef4a8012103043a5488b62fb5a6dad1a4f6402623471a63e80cb225c7325b3eafd6971d859a", "asm": "3045022100b7a5e34f2480b91742a5951bdf348abf50492e5111290c9f844a239ca143a7bf02204bf2f0ea897bb611a669d4a31841f398bfeb077226b2d08d30cda2d871cef4a8[ALL] 03043a5488b62fb5a6dad1a4f6402623471a63e80cb225c7325b3eafd6971d859a"}, "vout": 0, "txid": "d01ebb6bc7b681c94f51eb8348feb25da6cf6057680c8cfc60ea2095f0deada4"}], "txid": "38c10a953eee102e778c9b094a171c3b31a20d758ab832e99725d502db9a57ba", "blocktime": 1537871767, "version": 1, "confirmations": 11490, "time": 1537871767, "locktime": 0, "vsize": 190, "size": 190}