{"hash": "38ca374bccc03544d9001b50b9d3da648c8f47e8475d5486eddd425402c6f49c", "blockhash": "0000000000000000001cda96e906b7601b7a6fb1a3b62bca570a9e5d8f4b3de1", "vout": [{"scriptPubKey": {"reqSigs": 1, "hex": "76a914d243e6abb9a60fbff430b421d2df4b7d59ec186088ac", "addresses": ["1LAnF8h3qMGx3TSwNUHVneBZUEpwE4gu3D"], "asm": "OP_DUP OP_HASH160 d243e6abb9a60fbff430b421d2df4b7d59ec1860 OP_EQUALVERIFY OP_CHECKSIG", "type": "pubkeyhash"}, "value": 0.00077314, "n": 0}, {"scriptPubKey": {"reqSigs": 1, "hex": "76a914ccce55d8858aaae4f2587bea1389beff79411e0588ac", "addresses": ["1Kfv2ZhhiZiGauqdz1KQruUL8KhPCTfBtX"], "asm": "OP_DUP OP_HASH160 ccce55d8858aaae4f2587bea1389beff79411e05 OP_EQUALVERIFY OP_CHECKSIG", "type": "pubkeyhash"}, "value": 5.46e-06, "n": 1}, {"scriptPubKey": {"type": "nulldata", "hex": "6a146f6d6e69000000000000001f00000021c6463290", "asm": "OP_RETURN 6f6d6e69000000000000001f00000021c6463290"}, "value": 0.0, "n": 2}], "hex": "0100000001aeee0fcb6782f74e1e142d6b213eebe410c10280f1af4cb55ac2f28055c8f7bb000000006a473044022060b69fbeb573f360775798757b81fe1d9443a92d4acc47ff476c702bfc552ffb02200922540660772c17999108763f21a4e3a048e83e1396b3464055b04b91a8b01d01210271977291b74f1f5f5c42157e8aae804664eaaeccfd097918450d37f28fb94d77ffffffff03022e0100000000001976a914d243e6abb9a60fbff430b421d2df4b7d59ec186088ac22020000000000001976a914ccce55d8858aaae4f2587bea1389beff79411e0588ac0000000000000000166a146f6d6e69000000000000001f00000021c646329000000000", "vin": [{"sequence": 4294967295, "scriptSig": {"hex": "473044022060b69fbeb573f360775798757b81fe1d9443a92d4acc47ff476c702bfc552ffb02200922540660772c17999108763f21a4e3a048e83e1396b3464055b04b91a8b01d01210271977291b74f1f5f5c42157e8aae804664eaaeccfd097918450d37f28fb94d77", "asm": "3044022060b69fbeb573f360775798757b81fe1d9443a92d4acc47ff476c702bfc552ffb02200922540660772c17999108763f21a4e3a048e83e1396b3464055b04b91a8b01d[ALL] 0271977291b74f1f5f5c42157e8aae804664eaaeccfd097918450d37f28fb94d77"}, "vout": 0, "txid": "bbf7c85580f2c25ab54caff18002c110e4eb3e216b2d141e4ef78267cb0feeae"}], "txid": "38ca374bccc03544d9001b50b9d3da648c8f47e8475d5486eddd425402c6f49c", "blocktime": 1537873282, "version": 1, "confirmations": 11483, "time": 1537873282, "locktime": 0, "vsize": 256, "size": 256}