{"hash": "38cadaf21a65f4180d111e39670efbbe739f7c3a8c8fbcfb1488a84e5ba38750", "blockhash": "0000000000000000001f76057863aec43deb6fa401d9628bb513d65a8098bfab", "vout": [{"scriptPubKey": {"type": "nulldata", "hex": "6a4c50000077e10001641c419f27e126dedfaea5697af8e8e963c7cfd5b95b23cc0f42c2fc38c5c2c16449240a893a75963896c982b8645baa16a606127c767211c769bc9a9526289ac0f6612cd74e33776ee4", "asm": "OP_RETURN 000077e10001641c419f27e126dedfaea5697af8e8e963c7cfd5b95b23cc0f42c2fc38c5c2c16449240a893a75963896c982b8645baa16a606127c767211c769bc9a9526289ac0f6612cd74e33776ee4"}, "value": 0.0, "n": 0}, {"scriptPubKey": {"reqSigs": 1, "hex": "76a9148a46feea38cbb8d2481c7d986f5c794409fb5b9388ac", "addresses": ["1Dc9JLzB5GCH6fvF8By6buJBwXgYnQj7ZH"], "asm": "OP_DUP OP_HASH160 8a46feea38cbb8d2481c7d986f5c794409fb5b93 OP_EQUALVERIFY OP_CHECKSIG", "type": "pubkeyhash"}, "value": 0.0221444, "n": 1}], "hex": "0100000001e52201df307a1fa27462b462e2eff2655407a39f3516536da1695ceb47179d8d010000006b483045022100abc1506dae7a2f74e63593a7431ccaa4b4ec92dcccf8722d866bc74e02007efb02202542452a2b6331ccaa31f30a031fdd4bcfd1e7834dd1f529ad6609c7bdde88f6012103f7cf46278be8e1719c83db463b978f5eeb618e32200c40d5e5a4c58ff234eb6cffffffff020000000000000000536a4c50000077e10001641c419f27e126dedfaea5697af8e8e963c7cfd5b95b23cc0f42c2fc38c5c2c16449240a893a75963896c982b8645baa16a606127c767211c769bc9a9526289ac0f6612cd74e33776ee428ca2100000000001976a9148a46feea38cbb8d2481c7d986f5c794409fb5b9388ac00000000", "vin": [{"sequence": 4294967295, "scriptSig": {"hex": "483045022100abc1506dae7a2f74e63593a7431ccaa4b4ec92dcccf8722d866bc74e02007efb02202542452a2b6331ccaa31f30a031fdd4bcfd1e7834dd1f529ad6609c7bdde88f6012103f7cf46278be8e1719c83db463b978f5eeb618e32200c40d5e5a4c58ff234eb6c", "asm": "3045022100abc1506dae7a2f74e63593a7431ccaa4b4ec92dcccf8722d866bc74e02007efb02202542452a2b6331ccaa31f30a031fdd4bcfd1e7834dd1f529ad6609c7bdde88f6[ALL] 03f7cf46278be8e1719c83db463b978f5eeb618e32200c40d5e5a4c58ff234eb6c"}, "vout": 1, "txid": "8d9d1747eb5c69a16d5316359fa3075465f2efe262b46274a21f7a30df0122e5"}], "txid": "38cadaf21a65f4180d111e39670efbbe739f7c3a8c8fbcfb1488a84e5ba38750", "blocktime": 1537873891, "version": 1, "confirmations": 11478, "time": 1537873891, "locktime": 0, "vsize": 284, "size": 284}