{"hash": "38cfc2148b25f6c71a7e464588fb2ec55a92798d1156e7d20889ffe273626da3", "blockhash": "0000000000000000001e0dab787dd257d1dbfcb92a98c2207d5e1078be1f4165", "vout": [{"scriptPubKey": {"reqSigs": 1, "hex": "76a91478c6e61e542acf93b0e16df4d2e17e1cd247480888ac", "addresses": ["1C1cMkwHsmwZwihw9UDRu8nxm13tdgGEwK"], "asm": "OP_DUP OP_HASH160 78c6e61e542acf93b0e16df4d2e17e1cd2474808 OP_EQUALVERIFY OP_CHECKSIG", "type": "pubkeyhash"}, "value": 0.00020464, "n": 0}, {"scriptPubKey": {"reqSigs": 1, "hex": "76a914387a224fedb6178e9053d5e2e1937218729a0bbf88ac", "addresses": ["169d9mJWMiQ37DeXmCrn4uqRAyz6euxi3H"], "asm": "OP_DUP OP_HASH160 387a224fedb6178e9053d5e2e1937218729a0bbf OP_EQUALVERIFY OP_CHECKSIG", "type": "pubkeyhash"}, "value": 0.00132769, "n": 1}], "hex": "010000000227aad9799b8b039eca9814514b204f89e74fc7d8d7a840c738bdaed6d68f4649000000008a473044022035f9a98a04eebca8ea31fc536756be126736b940863233aaedf0d55a59c6c19e02201817f61eeb6f5d4b7e98faf07942801781dec6594797969def7567e016cf407c014104ad77548dbf5193b6d2b40714083e8d6db643a8d30b38dd1f9123f51c93b116ff6a7360784a74ff241ad8942ac8afebc31fba98c3bc812041b596b0fd1501db8bffffffffa035279c3450a3d6bd1979b619ed9be8309868a3d233be9d0dad8030a08d09bf000000008a47304402202254c28b73fa46fc7b995163729b08fd366925d9723ce6860bb7d4a3b22edab2022075c724af3ca355e56746de7b30218c22623eb8500764b71d78a072b016cf41a2014104ad77548dbf5193b6d2b40714083e8d6db643a8d30b38dd1f9123f51c93b116ff6a7360784a74ff241ad8942ac8afebc31fba98c3bc812041b596b0fd1501db8bffffffff02f04f0000000000001976a91478c6e61e542acf93b0e16df4d2e17e1cd247480888aca1060200000000001976a914387a224fedb6178e9053d5e2e1937218729a0bbf88ac00000000", "vin": [{"sequence": 4294967295, "scriptSig": {"hex": "473044022035f9a98a04eebca8ea31fc536756be126736b940863233aaedf0d55a59c6c19e02201817f61eeb6f5d4b7e98faf07942801781dec6594797969def7567e016cf407c014104ad77548dbf5193b6d2b40714083e8d6db643a8d30b38dd1f9123f51c93b116ff6a7360784a74ff241ad8942ac8afebc31fba98c3bc812041b596b0fd1501db8b", "asm": "3044022035f9a98a04eebca8ea31fc536756be126736b940863233aaedf0d55a59c6c19e02201817f61eeb6f5d4b7e98faf07942801781dec6594797969def7567e016cf407c[ALL] 04ad77548dbf5193b6d2b40714083e8d6db643a8d30b38dd1f9123f51c93b116ff6a7360784a74ff241ad8942ac8afebc31fba98c3bc812041b596b0fd1501db8b"}, "vout": 0, "txid": "49468fd6d6aebd38c740a8d7d8c74fe7894f204b511498ca9e038b9b79d9aa27"}, {"sequence": 4294967295, "scriptSig": {"hex": "47304402202254c28b73fa46fc7b995163729b08fd366925d9723ce6860bb7d4a3b22edab2022075c724af3ca355e56746de7b30218c22623eb8500764b71d78a072b016cf41a2014104ad77548dbf5193b6d2b40714083e8d6db643a8d30b38dd1f9123f51c93b116ff6a7360784a74ff241ad8942ac8afebc31fba98c3bc812041b596b0fd1501db8b", "asm": "304402202254c28b73fa46fc7b995163729b08fd366925d9723ce6860bb7d4a3b22edab2022075c724af3ca355e56746de7b30218c22623eb8500764b71d78a072b016cf41a2[ALL] 04ad77548dbf5193b6d2b40714083e8d6db643a8d30b38dd1f9123f51c93b116ff6a7360784a74ff241ad8942ac8afebc31fba98c3bc812041b596b0fd1501db8b"}, "vout": 0, "txid": "bf098da03080ad0d9dbe33d2a3689830e89bed19b67919bdd6a350349c2735a0"}], "txid": "38cfc2148b25f6c71a7e464588fb2ec55a92798d1156e7d20889ffe273626da3", "blocktime": 1537872475, "version": 1, "confirmations": 11487, "time": 1537872475, "locktime": 0, "vsize": 436, "size": 436}