{"hash": "38d40f1cdbcd49d6d44f55f786ce80caa4388734614c8666c5b3993e2fd9f863", "blockhash": "0000000000000000001f76057863aec43deb6fa401d9628bb513d65a8098bfab", "vout": [{"scriptPubKey": {"reqSigs": 1, "hex": "76a9144451b2e85d77cf43eeee730b55887756241f920588ac", "addresses": ["17EEpagJ5cNvcEBdUQKnNkuW9djtr27393"], "asm": "OP_DUP OP_HASH160 4451b2e85d77cf43eeee730b55887756241f9205 OP_EQUALVERIFY OP_CHECKSIG", "type": "pubkeyhash"}, "value": 0.00252376, "n": 0}, {"scriptPubKey": {"reqSigs": 1, "hex": "a91411e98f97e01adca1f4988993b95a66964255586687", "addresses": ["33KjCuEpmzq9nRznEZiZH7qQfUjM5XrUEx"], "asm": "OP_HASH160 11e98f97e01adca1f4988993b95a669642555866 OP_EQUAL", "type": "scripthash"}, "value": 0.00310001, "n": 1}], "hex": "0100000002926a40cee6143d218510914ab0ec22fa58f8a22d636fa1fa87c56a7a45f748b4010000006b483045022100efcf8ece3621aed840c01c7b61fdc2a3f96f067ae8a2a0de266df4feeb2615aa02207c1b3a73e6dcd816f4d1ad802c23c675c79c0567d7226b6c7135df889f068a72012102899e694e3866d1c0140c92db5e17b4bd46a4f912fc21b7b48e885973daa66a2bffffffff2a9491f35464101b7c2adb159aa054d3c50daf7485eecec2dffe6f5203c058fc000000006b483045022100e00bf1b5ba3275d18b44f7f5379c5944032e42c0071c5e8bc11bfe179e35755c022025c5e5195626ec82bcd4eee04c2e20480c3e29205a29468f3ec6ac88aa79afd901210365645b03fe098cf5fff368570c8ba414c7e53842d83e7dc54d016b077d67ae82ffffffff02d8d90300000000001976a9144451b2e85d77cf43eeee730b55887756241f920588acf1ba04000000000017a91411e98f97e01adca1f4988993b95a6696425558668700000000", "vin": [{"sequence": 4294967295, "scriptSig": {"hex": "483045022100efcf8ece3621aed840c01c7b61fdc2a3f96f067ae8a2a0de266df4feeb2615aa02207c1b3a73e6dcd816f4d1ad802c23c675c79c0567d7226b6c7135df889f068a72012102899e694e3866d1c0140c92db5e17b4bd46a4f912fc21b7b48e885973daa66a2b", "asm": "3045022100efcf8ece3621aed840c01c7b61fdc2a3f96f067ae8a2a0de266df4feeb2615aa02207c1b3a73e6dcd816f4d1ad802c23c675c79c0567d7226b6c7135df889f068a72[ALL] 02899e694e3866d1c0140c92db5e17b4bd46a4f912fc21b7b48e885973daa66a2b"}, "vout": 1, "txid": "b448f7457a6ac587faa16f632da2f858fa22ecb04a911085213d14e6ce406a92"}, {"sequence": 4294967295, "scriptSig": {"hex": "483045022100e00bf1b5ba3275d18b44f7f5379c5944032e42c0071c5e8bc11bfe179e35755c022025c5e5195626ec82bcd4eee04c2e20480c3e29205a29468f3ec6ac88aa79afd901210365645b03fe098cf5fff368570c8ba414c7e53842d83e7dc54d016b077d67ae82", "asm": "3045022100e00bf1b5ba3275d18b44f7f5379c5944032e42c0071c5e8bc11bfe179e35755c022025c5e5195626ec82bcd4eee04c2e20480c3e29205a29468f3ec6ac88aa79afd9[ALL] 0365645b03fe098cf5fff368570c8ba414c7e53842d83e7dc54d016b077d67ae82"}, "vout": 0, "txid": "fc58c003526ffedfc2ceee8574af0dc5d354a09a15db2a7c1b106454f391942a"}], "txid": "38d40f1cdbcd49d6d44f55f786ce80caa4388734614c8666c5b3993e2fd9f863", "blocktime": 1537873891, "version": 1, "confirmations": 11477, "time": 1537873891, "locktime": 0, "vsize": 372, "size": 372}