{"hash": "38d701dba6b83dc02d5bc076dfeb956820eb9a064e5267950905ff819ceac052", "blockhash": "0000000000000000001e0dab787dd257d1dbfcb92a98c2207d5e1078be1f4165", "vout": [{"scriptPubKey": {"reqSigs": 1, "hex": "76a914d243e6abb9a60fbff430b421d2df4b7d59ec186088ac", "addresses": ["1LAnF8h3qMGx3TSwNUHVneBZUEpwE4gu3D"], "asm": "OP_DUP OP_HASH160 d243e6abb9a60fbff430b421d2df4b7d59ec1860 OP_EQUALVERIFY OP_CHECKSIG", "type": "pubkeyhash"}, "value": 0.00077314, "n": 0}, {"scriptPubKey": {"reqSigs": 1, "hex": "a9143e16f830125ce941d2ac959acef518c1fd55256f87", "addresses": ["37MKLPHAnExYeTEaypzBVgDEMxZiWb2Dah"], "asm": "OP_HASH160 3e16f830125ce941d2ac959acef518c1fd55256f OP_EQUAL", "type": "scripthash"}, "value": 5.46e-06, "n": 1}, {"scriptPubKey": {"type": "nulldata", "hex": "6a146f6d6e69000000000000001f0000000b866e0f00", "asm": "OP_RETURN 6f6d6e69000000000000001f0000000b866e0f00"}, "value": 0.0, "n": 2}], "hex": "0100000001b420a17ee0c671f4921719dbd27c72ea124f3b9fc1c5d186448239a1dbf8b2d2000000006a473044022027626f39391aba97811252156c23a70397c78392e0696ab5911c3bda5e7caa8d02200f357228aafeb23d69decde734b4273cacdb95bf49dc84baa7ae0c03696075cf01210271977291b74f1f5f5c42157e8aae804664eaaeccfd097918450d37f28fb94d77ffffffff03022e0100000000001976a914d243e6abb9a60fbff430b421d2df4b7d59ec186088ac220200000000000017a9143e16f830125ce941d2ac959acef518c1fd55256f870000000000000000166a146f6d6e69000000000000001f0000000b866e0f0000000000", "vin": [{"sequence": 4294967295, "scriptSig": {"hex": "473044022027626f39391aba97811252156c23a70397c78392e0696ab5911c3bda5e7caa8d02200f357228aafeb23d69decde734b4273cacdb95bf49dc84baa7ae0c03696075cf01210271977291b74f1f5f5c42157e8aae804664eaaeccfd097918450d37f28fb94d77", "asm": "3044022027626f39391aba97811252156c23a70397c78392e0696ab5911c3bda5e7caa8d02200f357228aafeb23d69decde734b4273cacdb95bf49dc84baa7ae0c03696075cf[ALL] 0271977291b74f1f5f5c42157e8aae804664eaaeccfd097918450d37f28fb94d77"}, "vout": 0, "txid": "d2b2f8dba139824486d1c5c19f3b4f12ea727cd2db191792f471c6e07ea120b4"}], "txid": "38d701dba6b83dc02d5bc076dfeb956820eb9a064e5267950905ff819ceac052", "blocktime": 1537872475, "version": 1, "confirmations": 11486, "time": 1537872475, "locktime": 0, "vsize": 254, "size": 254}