{"hash": "75daa962da7abec294c10337e46aa9629abe9df110ce022d10f1511e81d7ce81", "blockhash": "0000000000000000001e0dab787dd257d1dbfcb92a98c2207d5e1078be1f4165", "vout": [{"scriptPubKey": {"reqSigs": 1, "hex": "a91459098362231ad1c4ccb03b21abeab56dd1ca210687", "addresses": ["39ooTc8ZDXYc5NLYFd7pJZCfJ9c3hnBLP2"], "asm": "OP_HASH160 59098362231ad1c4ccb03b21abeab56dd1ca2106 OP_EQUAL", "type": "scripthash"}, "value": 0.16317184, "n": 0}], "hex": "01000000000108c6051885c40713606f8369a76dd09b19265815cfa1dcd2ed12ea40f20fabec4f02000000171600149835c49431533790d544d9ac206b47fe425a50d0ffffffff233390862f695770eca4beb95c92a8daefe0ab2c477bed356174e8580c3232df0000000017160014d94814726839a8df138df7663c7854a7f43f009bffffffff3f52723ae09aea49bdefb33c942ce32f6187f123515244c37e939621a844f3510400000017160014f7c811b9440b74717929756b8e7f4d2020891f9dffffffff0efc09692f85d24ed2d13e78533d0dfb9c5baa32d695faa00572a37b6af344db0300000017160014a5361b74d5f71e1ac22e18b889ef8fbbd97463d1ffffffff3fe450a12c99bcf1f308527f2c444799798c31bce293ca7c2d63e66c61f455f60100000017160014c3e0bbfb8fd9a157d168e0ec15ecfd518cf98932ffffffff5ec2c1a779a600b6c4006d8a450be932cc454c1602d9bbfe305b8d6bb168730b000000001716001497c645653ebfe75e69659201f6482d0102fa8322ffffffffaf57e338fc82cbd3cacd6a0f38ce8dc5be4e958fa53675219ede8c19ae905ac20000000017160014088509e30defbd984291908f42d07ada1a815452ffffffff767d8622bafb766e5b298cbe101573d9476963bf598a8030d226c51fb09f26b900000000171600143f3389ac77cb5ce8209d728a6a4af67912e4a2e7ffffffff0100fbf8000000000017a91459098362231ad1c4ccb03b21abeab56dd1ca2106870247304402205711e4c72b82ed41fae3301bb54d1d9f193af798ba39b4124eb92f716243bab00220139e172a2749717d94c87eaf89cbf0d9dabd6811376b62ed2217e56864a511de012102e56641c481d164dab87f3ce79406464c08734cf875ac82358c635ec0f7ad4c6e02473044022016327d3ce02d44b5d0c68b719fd2453be61316d80005eff73f0a1a99d10fa9920220135c62a1fd325363db431b3ec5b32400956a19c9791e75078dc6a614677bcd620121039409203ec09664ab7e00d97f83385f7f187fcf87310264387f2f87487b2242220248304502210081a162f30a46cc341bcbd711001255e70ed304d4d49946e6e0cc2353779ef0260220696596d8f5528c42c5554da85f9822bf2bcbc075a192132e05b5c19c04b87fad01210359184aa01e9a5c1d0c0cfaa3100cf58fc4fdff0d503c805750a32c08e89c6bdb02473044022052bb5add4eba9af5fd1d4bdd4ab7e1253d8bc3cf3b9f2026e013a63bbbcb32250220341fffe5c54c1c31cca9e273747ea3a8502488487ad9598d5fc9679c390a189e0121024a2036e6b74f82e413b93b70a2f543f152a0f5a55cfb4f9b4b1ab03dc32b8fae02473044022074d390191f6024a45005b318f2172f9a78573aae0b2ed716a078d318783f3fbe022010f337570c0243d2ae5456f2a112e8c9bf0eabb7b3569f32e1337d28ec46051001210241ad38ca4ed539291e9f238c0ce4f93f1f3b6eb238422f80fb73837799246ea802473044022060cdf5a6155f42d6e98ef4da870d2f0c82adb6ce540506a97a13458db91a14fa022052ae912fb764bf03ccc2ded4f53c6e0db8a6b0b2f6a5da00605dae0323ce0d5301210384e1bb1fa58947b1e021ba98124f69736819bc0b1def18db1fb8f5bc9354d0f90247304402207eabc367589cd6ec8b742e4cbc12db3426447f36f695f650c65f8a4ba3389bda0220311ae4b174c6d0782a7041879ddb66c691739460287ee8380f3281c0c921f443012102ad3221141baae0093c9e3a0b77c500742767dd5b832c919338d2db66d28710ad024730440220165c3a955358534108eda281da90f92a9c97599ce177cb8c8c7b839cd60961b402204c55ddce3548fa096ef18478673df6b2d0b46f7937ea229f1538bd1a0b5880d70121028d90bbaa63577ba76615cc12c4de38212073ddd01ae973251198e51097227c2300000000", "vin": [{"txinwitness": ["304402205711e4c72b82ed41fae3301bb54d1d9f193af798ba39b4124eb92f716243bab00220139e172a2749717d94c87eaf89cbf0d9dabd6811376b62ed2217e56864a511de01", "02e56641c481d164dab87f3ce79406464c08734cf875ac82358c635ec0f7ad4c6e"], "sequence": 4294967295, "scriptSig": {"hex": "1600149835c49431533790d544d9ac206b47fe425a50d0", "asm": "00149835c49431533790d544d9ac206b47fe425a50d0"}, "vout": 2, "txid": "4fecab0ff240ea12edd2dca1cf155826199bd06da769836f601307c4851805c6"}, {"txinwitness": ["3044022016327d3ce02d44b5d0c68b719fd2453be61316d80005eff73f0a1a99d10fa9920220135c62a1fd325363db431b3ec5b32400956a19c9791e75078dc6a614677bcd6201", "039409203ec09664ab7e00d97f83385f7f187fcf87310264387f2f87487b224222"], "sequence": 4294967295, "scriptSig": {"hex": "160014d94814726839a8df138df7663c7854a7f43f009b", "asm": "0014d94814726839a8df138df7663c7854a7f43f009b"}, "vout": 0, "txid": "df32320c58e8746135ed7b472cabe0efdaa8925cb9bea4ec7057692f86903323"}, {"txinwitness": ["304502210081a162f30a46cc341bcbd711001255e70ed304d4d49946e6e0cc2353779ef0260220696596d8f5528c42c5554da85f9822bf2bcbc075a192132e05b5c19c04b87fad01", "0359184aa01e9a5c1d0c0cfaa3100cf58fc4fdff0d503c805750a32c08e89c6bdb"], "sequence": 4294967295, "scriptSig": {"hex": "160014f7c811b9440b74717929756b8e7f4d2020891f9d", "asm": "0014f7c811b9440b74717929756b8e7f4d2020891f9d"}, "vout": 4, "txid": "51f344a82196937ec344525123f187612fe32c943cb3efbd49ea9ae03a72523f"}, {"txinwitness": ["3044022052bb5add4eba9af5fd1d4bdd4ab7e1253d8bc3cf3b9f2026e013a63bbbcb32250220341fffe5c54c1c31cca9e273747ea3a8502488487ad9598d5fc9679c390a189e01", "024a2036e6b74f82e413b93b70a2f543f152a0f5a55cfb4f9b4b1ab03dc32b8fae"], "sequence": 4294967295, "scriptSig": {"hex": "160014a5361b74d5f71e1ac22e18b889ef8fbbd97463d1", "asm": "0014a5361b74d5f71e1ac22e18b889ef8fbbd97463d1"}, "vout": 3, "txid": "db44f36a7ba37205a0fa95d632aa5b9cfb0d3d53783ed1d24ed2852f6909fc0e"}, {"txinwitness": ["3044022074d390191f6024a45005b318f2172f9a78573aae0b2ed716a078d318783f3fbe022010f337570c0243d2ae5456f2a112e8c9bf0eabb7b3569f32e1337d28ec46051001", "0241ad38ca4ed539291e9f238c0ce4f93f1f3b6eb238422f80fb73837799246ea8"], "sequence": 4294967295, "scriptSig": {"hex": "160014c3e0bbfb8fd9a157d168e0ec15ecfd518cf98932", "asm": "0014c3e0bbfb8fd9a157d168e0ec15ecfd518cf98932"}, "vout": 1, "txid": "f655f4616ce6632d7cca93e2bc318c799947442c7f5208f3f1bc992ca150e43f"}, {"txinwitness": ["3044022060cdf5a6155f42d6e98ef4da870d2f0c82adb6ce540506a97a13458db91a14fa022052ae912fb764bf03ccc2ded4f53c6e0db8a6b0b2f6a5da00605dae0323ce0d5301", "0384e1bb1fa58947b1e021ba98124f69736819bc0b1def18db1fb8f5bc9354d0f9"], "sequence": 4294967295, "scriptSig": {"hex": "16001497c645653ebfe75e69659201f6482d0102fa8322", "asm": "001497c645653ebfe75e69659201f6482d0102fa8322"}, "vout": 0, "txid": "0b7368b16b8d5b30febbd902164c45cc32e90b458a6d00c4b600a679a7c1c25e"}, {"txinwitness": ["304402207eabc367589cd6ec8b742e4cbc12db3426447f36f695f650c65f8a4ba3389bda0220311ae4b174c6d0782a7041879ddb66c691739460287ee8380f3281c0c921f44301", "02ad3221141baae0093c9e3a0b77c500742767dd5b832c919338d2db66d28710ad"], "sequence": 4294967295, "scriptSig": {"hex": "160014088509e30defbd984291908f42d07ada1a815452", "asm": "0014088509e30defbd984291908f42d07ada1a815452"}, "vout": 0, "txid": "c25a90ae198cde9e217536a58f954ebec58dce380f6acdcad3cb82fc38e357af"}, {"txinwitness": ["30440220165c3a955358534108eda281da90f92a9c97599ce177cb8c8c7b839cd60961b402204c55ddce3548fa096ef18478673df6b2d0b46f7937ea229f1538bd1a0b5880d701", "028d90bbaa63577ba76615cc12c4de38212073ddd01ae973251198e51097227c23"], "sequence": 4294967295, "scriptSig": {"hex": "1600143f3389ac77cb5ce8209d728a6a4af67912e4a2e7", "asm": "00143f3389ac77cb5ce8209d728a6a4af67912e4a2e7"}, "vout": 0, "txid": "b9269fb01fc526d230808a59bf636947d9731510be8c295b6e76fbba22867d76"}], "txid": "38db186acc3bfeef9546c27a2b932ca2a53d3cb90228e6c9fe976ac59a467f89", "blocktime": 1537872475, "version": 1, "confirmations": 11487, "time": 1537872475, "locktime": 0, "vsize": 769, "size": 1413}