{"hash": "38dc00ccc5de885c994cf3df4e0879b7f1ecb9755ac766071630bdf244e9b80c", "blockhash": "0000000000000000001cda96e906b7601b7a6fb1a3b62bca570a9e5d8f4b3de1", "vout": [{"scriptPubKey": {"reqSigs": 1, "hex": "76a914cb71dda3f3bc420b0a1cd901802793b78189e36c88ac", "addresses": ["1KYiaUYUa751boAjtccMBo9oXtXGKgK6Bc"], "asm": "OP_DUP OP_HASH160 cb71dda3f3bc420b0a1cd901802793b78189e36c OP_EQUALVERIFY OP_CHECKSIG", "type": "pubkeyhash"}, "value": 0.0062, "n": 0}, {"scriptPubKey": {"reqSigs": 1, "hex": "76a9141c1fa79149054c7e6cb37eb65b72c6b29ea354db88ac", "addresses": ["13Zhqmar7Cqd4SoJTpTgRkgGZUAVejacbP"], "asm": "OP_DUP OP_HASH160 1c1fa79149054c7e6cb37eb65b72c6b29ea354db OP_EQUALVERIFY OP_CHECKSIG", "type": "pubkeyhash"}, "value": 0.00483425, "n": 1}], "hex": "0100000001d3d261e8c5b66eddb6fd7874ed4d6efc6c631f90a885173341fefcd85234b8d5010000006a47304402203be588b5b3b44be656c629363e7e8fd7d50e61022a2bc8f978362584c425962102203f76ea1a9d11e73d8949c11b5c99bc3d56f5e7d97ebffbc12cd44a0394b4e5a50121023f27d0097a7f21d3db384e3d0e6acd231028cbc383c845f6fbca2eaf7ba3e708ffffffff02e0750900000000001976a914cb71dda3f3bc420b0a1cd901802793b78189e36c88ac61600700000000001976a9141c1fa79149054c7e6cb37eb65b72c6b29ea354db88ac00000000", "vin": [{"sequence": 4294967295, "scriptSig": {"hex": "47304402203be588b5b3b44be656c629363e7e8fd7d50e61022a2bc8f978362584c425962102203f76ea1a9d11e73d8949c11b5c99bc3d56f5e7d97ebffbc12cd44a0394b4e5a50121023f27d0097a7f21d3db384e3d0e6acd231028cbc383c845f6fbca2eaf7ba3e708", "asm": "304402203be588b5b3b44be656c629363e7e8fd7d50e61022a2bc8f978362584c425962102203f76ea1a9d11e73d8949c11b5c99bc3d56f5e7d97ebffbc12cd44a0394b4e5a5[ALL] 023f27d0097a7f21d3db384e3d0e6acd231028cbc383c845f6fbca2eaf7ba3e708"}, "vout": 1, "txid": "d5b83452d8fcfe41331785a8901f636cfc6e4ded7478fdb6dd6eb6c5e861d2d3"}], "txid": "38dc00ccc5de885c994cf3df4e0879b7f1ecb9755ac766071630bdf244e9b80c", "blocktime": 1537873282, "version": 1, "confirmations": 11481, "time": 1537873282, "locktime": 0, "vsize": 225, "size": 225}