{"hash": "38dfcc495bcda363e723d7b312ce83116fe45dd22089daea188459878a92fd25", "blockhash": "000000000000000000022b45ed06c6f4ccd3cf7fb5ba4856ebd2e58215665228", "vout": [{"scriptPubKey": {"reqSigs": 1, "hex": "76a914afd3a465053234ed66b5eb559ec3ef02c4590bf588ac", "addresses": ["1H2gnj6kSVcLMLoskuStxKLoAmsYDDU6ax"], "asm": "OP_DUP OP_HASH160 afd3a465053234ed66b5eb559ec3ef02c4590bf5 OP_EQUALVERIFY OP_CHECKSIG", "type": "pubkeyhash"}, "value": 0.00413847, "n": 0}, {"scriptPubKey": {"reqSigs": 1, "hex": "76a914f2272e5de51143024320b913c12e569e23ec885f88ac", "addresses": ["1P5PTmwqJ7jf2xfc5UpDbJrp5kKN7LkSmV"], "asm": "OP_DUP OP_HASH160 f2272e5de51143024320b913c12e569e23ec885f OP_EQUALVERIFY OP_CHECKSIG", "type": "pubkeyhash"}, "value": 0.041928, "n": 1}], "hex": "0100000002b8de35ec1d5e07f4f81d6ea55fe1dd2e47172630f2547e0d1c2e853aad2a3dae000000006a4730440220712685eb40050262e5749509586f68d5c1b8bc33d8aea2271151f282947ee30f02200a2a734298328f5cfb9705894749260db0da398ef633d0539a6a472ee92311ff01210367a1e396e53ac12671d8fff8f53deeb41d20b25e8771055d9ebb12041895fe11ffffffff288da6c78ccb648c1f4a6f3f80daf6cce8d8cd3d2ef73e00d239fdf57399bd7f010000006a47304402207ebad1709df5e7f316b53044755f6d3f4d40792e383796b9cad5fbe7e90ef6ab02202a48aa0056792dd96d8d0257a21e83ee687c3da7baff68d9c46fd4c93dc2bbed0121034d326de903e7a94d744a723eb712c2b0c46281656c92763c5ff38f67cb13e514ffffffff0297500600000000001976a914afd3a465053234ed66b5eb559ec3ef02c4590bf588ac20fa3f00000000001976a914f2272e5de51143024320b913c12e569e23ec885f88ac00000000", "vin": [{"sequence": 4294967295, "scriptSig": {"hex": "4730440220712685eb40050262e5749509586f68d5c1b8bc33d8aea2271151f282947ee30f02200a2a734298328f5cfb9705894749260db0da398ef633d0539a6a472ee92311ff01210367a1e396e53ac12671d8fff8f53deeb41d20b25e8771055d9ebb12041895fe11", "asm": "30440220712685eb40050262e5749509586f68d5c1b8bc33d8aea2271151f282947ee30f02200a2a734298328f5cfb9705894749260db0da398ef633d0539a6a472ee92311ff[ALL] 0367a1e396e53ac12671d8fff8f53deeb41d20b25e8771055d9ebb12041895fe11"}, "vout": 0, "txid": "ae3d2aad3a852e1c0d7e54f2302617472edde15fa56e1df8f4075e1dec35deb8"}, {"sequence": 4294967295, "scriptSig": {"hex": "47304402207ebad1709df5e7f316b53044755f6d3f4d40792e383796b9cad5fbe7e90ef6ab02202a48aa0056792dd96d8d0257a21e83ee687c3da7baff68d9c46fd4c93dc2bbed0121034d326de903e7a94d744a723eb712c2b0c46281656c92763c5ff38f67cb13e514", "asm": "304402207ebad1709df5e7f316b53044755f6d3f4d40792e383796b9cad5fbe7e90ef6ab02202a48aa0056792dd96d8d0257a21e83ee687c3da7baff68d9c46fd4c93dc2bbed[ALL] 034d326de903e7a94d744a723eb712c2b0c46281656c92763c5ff38f67cb13e514"}, "vout": 1, "txid": "7fbd9973f5fd39d2003ef72e3dcdd8e8ccf6da803f6f4a1f8c64cb8cc7a68d28"}], "txid": "38dfcc495bcda363e723d7b312ce83116fe45dd22089daea188459878a92fd25", "blocktime": 1537869901, "version": 1, "confirmations": 11522, "time": 1537869901, "locktime": 0, "vsize": 372, "size": 372}