{"hash": "38e10e15f9453007a37c1c7e2805c57a750671c30d4b471fe473b389b75dbc1e", "blockhash": "00000000000000000004ffacab907a6b429b9a5745fa0b75af4234bf69dd7176", "vout": [{"scriptPubKey": {"reqSigs": 1, "hex": "76a914883146ca461ef0d08ad3b40e43dd746b75037d7788ac", "addresses": ["1DR7vt9XTfMzVN2wUbMeLrNifFpvap3JXJ"], "asm": "OP_DUP OP_HASH160 883146ca461ef0d08ad3b40e43dd746b75037d77 OP_EQUALVERIFY OP_CHECKSIG", "type": "pubkeyhash"}, "value": 0.1127, "n": 0}, {"scriptPubKey": {"reqSigs": 1, "hex": "76a914b6d0f82ebfd900668c74d6e6e5ea0a6b4bf1262688ac", "addresses": ["1HfeKNECVMZXjreRVm1MFiQXC2bzi7vyP3"], "asm": "OP_DUP OP_HASH160 b6d0f82ebfd900668c74d6e6e5ea0a6b4bf12626 OP_EQUALVERIFY OP_CHECKSIG", "type": "pubkeyhash"}, "value": 0.41995528, "n": 1}], "hex": "01000000014c2d5ccb2edd7f5fa0a9dfcd3b34431ae4817af558a44313284b3495df8e38d3000000006a4730440220044918e0ae583183ab89b6126408eff3679de27f719120fbd5ef35c42f8a64a402200837ce38f6fd3910804884e6884c38969b9ac8ced004e7eb746f490febb6ace8012102a6dd6d053c497c0016a99c02866372ad50f8c2ec6066192ccf188176983b61e7ffffffff0270f7ab00000000001976a914883146ca461ef0d08ad3b40e43dd746b75037d7788ac08cd8002000000001976a914b6d0f82ebfd900668c74d6e6e5ea0a6b4bf1262688ac00000000", "vin": [{"sequence": 4294967295, "scriptSig": {"hex": "4730440220044918e0ae583183ab89b6126408eff3679de27f719120fbd5ef35c42f8a64a402200837ce38f6fd3910804884e6884c38969b9ac8ced004e7eb746f490febb6ace8012102a6dd6d053c497c0016a99c02866372ad50f8c2ec6066192ccf188176983b61e7", "asm": "30440220044918e0ae583183ab89b6126408eff3679de27f719120fbd5ef35c42f8a64a402200837ce38f6fd3910804884e6884c38969b9ac8ced004e7eb746f490febb6ace8[ALL] 02a6dd6d053c497c0016a99c02866372ad50f8c2ec6066192ccf188176983b61e7"}, "vout": 0, "txid": "d3388edf95344b281343a458f57a81e41a43343bcddfa9a05f7fdd2ecb5c2d4c"}], "txid": "38e10e15f9453007a37c1c7e2805c57a750671c30d4b471fe473b389b75dbc1e", "blocktime": 1537875543, "version": 1, "confirmations": 11464, "time": 1537875543, "locktime": 0, "vsize": 225, "size": 225}