{"hash": "38e76efed3d4fd689c4d19438da8f7f8719fd8a65a490a5abe67f669117488e9", "blockhash": "0000000000000000001f0ddff1eddb255c1121bcd4da4f1bc9a0da00cae72433", "vout": [{"scriptPubKey": {"reqSigs": 1, "hex": "a914161d881b6b1640bf86722f135524481cd7d205bb87", "addresses": ["33hxAfFYkrXuUVPELexhEoE9ju2XcSE6Gc"], "asm": "OP_HASH160 161d881b6b1640bf86722f135524481cd7d205bb OP_EQUAL", "type": "scripthash"}, "value": 0.0028677, "n": 0}, {"scriptPubKey": {"reqSigs": 1, "hex": "76a9143db320074ecce2e40811621936aaa4ff58d5dab088ac", "addresses": ["16dEoXteLen2Aoj6Si4vDXUvKJNt38GCC4"], "asm": "OP_DUP OP_HASH160 3db320074ecce2e40811621936aaa4ff58d5dab0 OP_EQUALVERIFY OP_CHECKSIG", "type": "pubkeyhash"}, "value": 0.07787151, "n": 1}], "hex": "010000000137dc39bad9e4b245bbc0733e0ab9302f8d4bc6f207d789f4191c0b5c2029a0c9010000006a473044022038da4fce67ae32fb4205818c579c46b0d495038c3c7baefd225af1c80c878d97022038d7469535fbe155a0b75f8f4cc6c6240650b20d03a211684d1d5cf4a908c73a01210242ff4d972cb4efc1734664d2cde670468b36e45308e11f582c7b52aeb7c887e1ffffffff02326004000000000017a914161d881b6b1640bf86722f135524481cd7d205bb878fd27600000000001976a9143db320074ecce2e40811621936aaa4ff58d5dab088ac00000000", "vin": [{"sequence": 4294967295, "scriptSig": {"hex": "473044022038da4fce67ae32fb4205818c579c46b0d495038c3c7baefd225af1c80c878d97022038d7469535fbe155a0b75f8f4cc6c6240650b20d03a211684d1d5cf4a908c73a01210242ff4d972cb4efc1734664d2cde670468b36e45308e11f582c7b52aeb7c887e1", "asm": "3044022038da4fce67ae32fb4205818c579c46b0d495038c3c7baefd225af1c80c878d97022038d7469535fbe155a0b75f8f4cc6c6240650b20d03a211684d1d5cf4a908c73a[ALL] 0242ff4d972cb4efc1734664d2cde670468b36e45308e11f582c7b52aeb7c887e1"}, "vout": 1, "txid": "c9a029205c0b1c19f489d707f2c64b8d2f30b90a3e73c0bb45b2e4d9ba39dc37"}], "txid": "38e76efed3d4fd689c4d19438da8f7f8719fd8a65a490a5abe67f669117488e9", "blocktime": 1537872018, "version": 1, "confirmations": 11489, "time": 1537872018, "locktime": 0, "vsize": 223, "size": 223}