{"hash": "38e9f949a20cb727390d623bc0a876bb60d651a3ca065be37c53f3f4a3ad0b70", "blockhash": "00000000000000000024a2167bbff67b0be802c0b01cdd79e6331c2be6459f87", "vout": [{"scriptPubKey": {"reqSigs": 1, "hex": "76a91447919071084bd35f248ce7c9a7f2fa5a105eef6588ac", "addresses": ["17XRMbn53P6kwW4eNFxV8eP8TySEDKgqqh"], "asm": "OP_DUP OP_HASH160 47919071084bd35f248ce7c9a7f2fa5a105eef65 OP_EQUALVERIFY OP_CHECKSIG", "type": "pubkeyhash"}, "value": 0.015608, "n": 0}, {"scriptPubKey": {"reqSigs": 1, "hex": "76a914e3a080fbabc4ef61496dbb6bd57bf444d2b3ac9088ac", "addresses": ["1MkafYmu9WV2Q6HfyBVqmVD7NvWd1nevwr"], "asm": "OP_DUP OP_HASH160 e3a080fbabc4ef61496dbb6bd57bf444d2b3ac90 OP_EQUALVERIFY OP_CHECKSIG", "type": "pubkeyhash"}, "value": 0.02319147, "n": 1}], "hex": "010000000115a22ddc0c0d2a63e1e4f74197cbd4619a2fa3ed306e7c34aee90adeb3412be1010000008b483045022100eb010abd0b666eaae9989bdcfd2058e48f63e9272899d29f2467bce7718505910220545002fa21172475da253238594fca15aacad82e025d2730b1bf7eb8009f763f01410496863885a768d78a67347b04ea8cd3c6f87c8f9f65aaa37c8ed37c86a6d66fdf620ae26ffc4004447b0b062a064c7f45b5f012d69344d953d79a9a96eae78a17ffffffff02e0d01700000000001976a91447919071084bd35f248ce7c9a7f2fa5a105eef6588ac2b632300000000001976a914e3a080fbabc4ef61496dbb6bd57bf444d2b3ac9088ac00000000", "vin": [{"sequence": 4294967295, "scriptSig": {"hex": "483045022100eb010abd0b666eaae9989bdcfd2058e48f63e9272899d29f2467bce7718505910220545002fa21172475da253238594fca15aacad82e025d2730b1bf7eb8009f763f01410496863885a768d78a67347b04ea8cd3c6f87c8f9f65aaa37c8ed37c86a6d66fdf620ae26ffc4004447b0b062a064c7f45b5f012d69344d953d79a9a96eae78a17", "asm": "3045022100eb010abd0b666eaae9989bdcfd2058e48f63e9272899d29f2467bce7718505910220545002fa21172475da253238594fca15aacad82e025d2730b1bf7eb8009f763f[ALL] 0496863885a768d78a67347b04ea8cd3c6f87c8f9f65aaa37c8ed37c86a6d66fdf620ae26ffc4004447b0b062a064c7f45b5f012d69344d953d79a9a96eae78a17"}, "vout": 1, "txid": "e12b41b3de0ae9ae347c6e30eda32f9a61d4cb9741f7e4e1632a0d0cdc2da215"}], "txid": "38e9f949a20cb727390d623bc0a876bb60d651a3ca065be37c53f3f4a3ad0b70", "blocktime": 1537870564, "version": 1, "confirmations": 11515, "time": 1537870564, "locktime": 0, "vsize": 258, "size": 258}