{"hash": "82cc6c74cd4ddb363e8ffe6cff69f02665bf00c413fc785daa354bba90daaf81", "blockhash": "0000000000000000000dcc0f55137456b1a82d3642486a52398922ac4d620174", "vout": [{"scriptPubKey": {"reqSigs": 1, "hex": "76a914fea4342c2f590fa0c57359cb4a15371b180599b688ac", "addresses": ["1QDRLogieNgPzibXUxY383prFMpnkEZErZ"], "asm": "OP_DUP OP_HASH160 fea4342c2f590fa0c57359cb4a15371b180599b6 OP_EQUALVERIFY OP_CHECKSIG", "type": "pubkeyhash"}, "value": 0.00165944, "n": 0}, {"scriptPubKey": {"reqSigs": 1, "hex": "a914b2d9481bc01c734576e8ab44d3ecd9af9568445187", "addresses": ["3HzgVggHFPGk2U9MsjTw7C3hWkn9Vav7j4"], "asm": "OP_HASH160 b2d9481bc01c734576e8ab44d3ecd9af95684451 OP_EQUAL", "type": "scripthash"}, "value": 0.00539647, "n": 1}], "hex": "01000000000101f5fa6313c6f53d4325929f878bb73a5479eca20acbafaa6d08763c7bc4f66e3b0100000023220020fe0aefaff9d64cecfb7405b36b1fee8e86375398732541886d558b7c25a1e4b9fdffffff0238880200000000001976a914fea4342c2f590fa0c57359cb4a15371b180599b688acff3b08000000000017a914b2d9481bc01c734576e8ab44d3ecd9af95684451870400483045022100e36e3dc3afe34cfcb4bd13b68bf728a85cf2366825bfaecd049c4d6ab87381a202205d65971a5c40588abdf935fc95ba31d6b1af16d30f12ca7cc1d6da5310e7e7a701483045022100fe5a15ef2388a1f29f6ccd4ee32da1c67b4361ac8cdfe17de2f2533762d1de5f022015b80084baf38144214e750bd9e3d3ee8ba3a4e5df0a51f09413b318f16135630147522102267861a4b3e95160fed87aedb0dcee0d7a17c1d5a2985be460203ba5bf9898e12102677d6edb93ee3849ead60ac5028f7a75efb73ea337ee25919731a49e1b5ab54752ae00000000", "vin": [{"txinwitness": ["", "3045022100e36e3dc3afe34cfcb4bd13b68bf728a85cf2366825bfaecd049c4d6ab87381a202205d65971a5c40588abdf935fc95ba31d6b1af16d30f12ca7cc1d6da5310e7e7a701", "3045022100fe5a15ef2388a1f29f6ccd4ee32da1c67b4361ac8cdfe17de2f2533762d1de5f022015b80084baf38144214e750bd9e3d3ee8ba3a4e5df0a51f09413b318f161356301", "522102267861a4b3e95160fed87aedb0dcee0d7a17c1d5a2985be460203ba5bf9898e12102677d6edb93ee3849ead60ac5028f7a75efb73ea337ee25919731a49e1b5ab54752ae"], "sequence": 4294967293, "scriptSig": {"hex": "220020fe0aefaff9d64cecfb7405b36b1fee8e86375398732541886d558b7c25a1e4b9", "asm": "0020fe0aefaff9d64cecfb7405b36b1fee8e86375398732541886d558b7c25a1e4b9"}, "vout": 1, "txid": "3b6ef6c47b3c76086daaafcb0aa2ec79543ab78b879f9225433df5c61363faf5"}], "txid": "38ea551cca8f1fd48623b61da9ebb9bfb1dcf605bedcefdde4a3e7d6623ed242", "blocktime": 1537870268, "version": 1, "confirmations": 11518, "time": 1537870268, "locktime": 0, "vsize": 208, "size": 374}