{"hash": "38eb569e45229ba10e3594a9d9e9a5f93f70e15ecd5432fda5791283db26efa5", "blockhash": "000000000000000000022b45ed06c6f4ccd3cf7fb5ba4856ebd2e58215665228", "vout": [{"scriptPubKey": {"reqSigs": 1, "hex": "76a914ff037262f5abf8bbd45c8d6aa0bd069dd028439488ac", "addresses": ["1QFPSQZQD1nZF1eyGiA28vWaMLs2xZbTMS"], "asm": "OP_DUP OP_HASH160 ff037262f5abf8bbd45c8d6aa0bd069dd0284394 OP_EQUALVERIFY OP_CHECKSIG", "type": "pubkeyhash"}, "value": 0.03548934, "n": 0}], "hex": "0100000005ba7b5d42018f7fcc8b4d3ef1c60e8acac2f5bfb55bd25c25b677662cb0f2e51f000000006b483045022100be814d9c15aed3d5f2cfb8ca25db56e0a22409d550923556124909fa35fefe5202206617fdd2396c507f9da3e418bddddd319ab2e00ee85075f8f2d4afd85c70f4bc012103edd5a8973d8f758a065a6b58017e8801bbfe30417619367b657fdfcce06ca19cffffffffc5178508c18a77d58d55b81ab8910e71ece5a8c1a478dfc65f4aab8799882694000000006a47304402207e5a708efbcfc25a6323161604fee1e4829ebad8e18269b5bb25db0c86a8762802207e7279fee27f97795f1dd699d6113ce8b3b07e5b5e29ab2468e745ef5c693840012102bfa914ceb9f5714b4877b003478f6e1dc461e152ab2adfad0b8e43a730a6c2c5ffffffff0795c6e515265f50c3a4773a47dbe223209999ffdcba76e8e32a07d8da7c49cf000000006b483045022100b3519cd3e4693f9ae889c40ee012d93f85a320284b2b5e7a49927b4e62a8ffa302200cfdcda3442029c898972afccc38b1ca2974489ccf7303a3835fe4214455082e01210367722a8d2c56f5a3434a4efa2f92e0459217f30c577fdd093c6bb189721a9cdeffffffffc08d7ec81682f279e7ae4f46a7912dd12fb75173e8506f5c855b406b0e542dd20000000069463043021f3e25b06028770bab7ddd547526768f6df2fad08af7a08ef7e921e5d7d0fb5402202d7538bfdfdaa916b11226ece4e8a41fddb257775d129164f87cc9aeda65a638012102a5e8f18d038805b1cc27923d2444973173cf570f70f8d00e51ccd0c4b96a76a1ffffffff66f3435c21e7387ee06f1996cb5ac84ba8c6f57274304dbf4dc70f2f8ee55ad9000000006a47304402200d573238ca68dfdcf597b4a4dec95c51d0a15292b164590349a6d92052894aa402207088b97232292de98e8b3b7a36d4e6bdd8ce52aa5e1bfcef1cd71f8847e9a5880121034588135e7a41d8a4dc41f0fbc8eda9782c34fadd3792eab22317089e87c738d8ffffffff0106273600000000001976a914ff037262f5abf8bbd45c8d6aa0bd069dd028439488ac00000000", "vin": [{"sequence": 4294967295, "scriptSig": {"hex": "483045022100be814d9c15aed3d5f2cfb8ca25db56e0a22409d550923556124909fa35fefe5202206617fdd2396c507f9da3e418bddddd319ab2e00ee85075f8f2d4afd85c70f4bc012103edd5a8973d8f758a065a6b58017e8801bbfe30417619367b657fdfcce06ca19c", "asm": "3045022100be814d9c15aed3d5f2cfb8ca25db56e0a22409d550923556124909fa35fefe5202206617fdd2396c507f9da3e418bddddd319ab2e00ee85075f8f2d4afd85c70f4bc[ALL] 03edd5a8973d8f758a065a6b58017e8801bbfe30417619367b657fdfcce06ca19c"}, "vout": 0, "txid": "1fe5f2b02c6677b6255cd25bb5bff5c2ca8a0ec6f13e4d8bcc7f8f01425d7bba"}, {"sequence": 4294967295, "scriptSig": {"hex": "47304402207e5a708efbcfc25a6323161604fee1e4829ebad8e18269b5bb25db0c86a8762802207e7279fee27f97795f1dd699d6113ce8b3b07e5b5e29ab2468e745ef5c693840012102bfa914ceb9f5714b4877b003478f6e1dc461e152ab2adfad0b8e43a730a6c2c5", "asm": "304402207e5a708efbcfc25a6323161604fee1e4829ebad8e18269b5bb25db0c86a8762802207e7279fee27f97795f1dd699d6113ce8b3b07e5b5e29ab2468e745ef5c693840[ALL] 02bfa914ceb9f5714b4877b003478f6e1dc461e152ab2adfad0b8e43a730a6c2c5"}, "vout": 0, "txid": "9426889987ab4a5fc6df78a4c1a8e5ec710e91b81ab8558dd5778ac1088517c5"}, {"sequence": 4294967295, "scriptSig": {"hex": "483045022100b3519cd3e4693f9ae889c40ee012d93f85a320284b2b5e7a49927b4e62a8ffa302200cfdcda3442029c898972afccc38b1ca2974489ccf7303a3835fe4214455082e01210367722a8d2c56f5a3434a4efa2f92e0459217f30c577fdd093c6bb189721a9cde", "asm": "3045022100b3519cd3e4693f9ae889c40ee012d93f85a320284b2b5e7a49927b4e62a8ffa302200cfdcda3442029c898972afccc38b1ca2974489ccf7303a3835fe4214455082e[ALL] 0367722a8d2c56f5a3434a4efa2f92e0459217f30c577fdd093c6bb189721a9cde"}, "vout": 0, "txid": "cf497cdad8072ae3e876badcff99992023e2db473a77a4c3505f2615e5c69507"}, {"sequence": 4294967295, "scriptSig": {"hex": "463043021f3e25b06028770bab7ddd547526768f6df2fad08af7a08ef7e921e5d7d0fb5402202d7538bfdfdaa916b11226ece4e8a41fddb257775d129164f87cc9aeda65a638012102a5e8f18d038805b1cc27923d2444973173cf570f70f8d00e51ccd0c4b96a76a1", "asm": "3043021f3e25b06028770bab7ddd547526768f6df2fad08af7a08ef7e921e5d7d0fb5402202d7538bfdfdaa916b11226ece4e8a41fddb257775d129164f87cc9aeda65a638[ALL] 02a5e8f18d038805b1cc27923d2444973173cf570f70f8d00e51ccd0c4b96a76a1"}, "vout": 0, "txid": "d22d540e6b405b855c6f50e87351b72fd12d91a7464faee779f28216c87e8dc0"}, {"sequence": 4294967295, "scriptSig": {"hex": "47304402200d573238ca68dfdcf597b4a4dec95c51d0a15292b164590349a6d92052894aa402207088b97232292de98e8b3b7a36d4e6bdd8ce52aa5e1bfcef1cd71f8847e9a5880121034588135e7a41d8a4dc41f0fbc8eda9782c34fadd3792eab22317089e87c738d8", "asm": "304402200d573238ca68dfdcf597b4a4dec95c51d0a15292b164590349a6d92052894aa402207088b97232292de98e8b3b7a36d4e6bdd8ce52aa5e1bfcef1cd71f8847e9a588[ALL] 034588135e7a41d8a4dc41f0fbc8eda9782c34fadd3792eab22317089e87c738d8"}, "vout": 0, "txid": "d95ae58e2f0fc74dbf4d307472f5c6a84bc85acb96196fe07e38e7215c43f366"}], "txid": "38eb569e45229ba10e3594a9d9e9a5f93f70e15ecd5432fda5791283db26efa5", "blocktime": 1537869901, "version": 1, "confirmations": 11522, "time": 1537869901, "locktime": 0, "vsize": 780, "size": 780}