{"hash": "38ed79ee436b78ab8babf4585e6875a256e4fa297b668281c968185c88caada3", "blockhash": "00000000000000000017f5eb5941039fbcee6240d03bc1f2f8e35350df66a1d8", "vout": [{"scriptPubKey": {"reqSigs": 1, "hex": "a91410eb6a74d8ed7b742ecc0e8bea9b7548d2fddc2d87", "addresses": ["33EUkbLEEttqBxqkQZC4eeE8FzDbzkUoq5"], "asm": "OP_HASH160 10eb6a74d8ed7b742ecc0e8bea9b7548d2fddc2d OP_EQUAL", "type": "scripthash"}, "value": 0.0142368, "n": 0}, {"scriptPubKey": {"reqSigs": 1, "hex": "76a9149248450128ea27dc1166013510a4d33228fe18d088ac", "addresses": ["1ELUEPFCr9rncmYAmjrLW1V6SHCpeES6oR"], "asm": "OP_DUP OP_HASH160 9248450128ea27dc1166013510a4d33228fe18d0 OP_EQUALVERIFY OP_CHECKSIG", "type": "pubkeyhash"}, "value": 0.01315971, "n": 1}], "hex": "0100000001556c33090d74d26a5a5577f0e5ba913b307ca31ba8c52205272d066a67344eab010000006a473044022067802f09d379319aef545eca8e3abf831c0189978535cf92188bc49b88c1430802203ac52ed2f11ed7e40c790f249253696c697941e298f8c7f2c27d8c08d27372b9012102195a290a5abb264731e9b97c675f59301e344634d4594b13b8ff2963695c7ab1ffffffff0240b915000000000017a91410eb6a74d8ed7b742ecc0e8bea9b7548d2fddc2d8783141400000000001976a9149248450128ea27dc1166013510a4d33228fe18d088ac00000000", "vin": [{"sequence": 4294967295, "scriptSig": {"hex": "473044022067802f09d379319aef545eca8e3abf831c0189978535cf92188bc49b88c1430802203ac52ed2f11ed7e40c790f249253696c697941e298f8c7f2c27d8c08d27372b9012102195a290a5abb264731e9b97c675f59301e344634d4594b13b8ff2963695c7ab1", "asm": "3044022067802f09d379319aef545eca8e3abf831c0189978535cf92188bc49b88c1430802203ac52ed2f11ed7e40c790f249253696c697941e298f8c7f2c27d8c08d27372b9[ALL] 02195a290a5abb264731e9b97c675f59301e344634d4594b13b8ff2963695c7ab1"}, "vout": 1, "txid": "ab4e34676a062d270522c5a81ba37c303b91bae5f077555a6ad2740d09336c55"}], "txid": "38ed79ee436b78ab8babf4585e6875a256e4fa297b668281c968185c88caada3", "blocktime": 1537874412, "version": 1, "confirmations": 11467, "time": 1537874412, "locktime": 0, "vsize": 223, "size": 223}