{"hash": "c1b5d5afebf7578983070c8c82cc67dc466f4e832bb9eac8e9a8ea8e8e3d2068", "blockhash": "0000000000000000001cda96e906b7601b7a6fb1a3b62bca570a9e5d8f4b3de1", "vout": [{"scriptPubKey": {"reqSigs": 1, "hex": "76a914d2492f9844baa528cfdf346799abc680cbcf112888ac", "addresses": ["1LAtaLCgwTMmAdSZrrET3n69edmG2vgY8E"], "asm": "OP_DUP OP_HASH160 d2492f9844baa528cfdf346799abc680cbcf1128 OP_EQUALVERIFY OP_CHECKSIG", "type": "pubkeyhash"}, "value": 0.00103, "n": 0}, {"scriptPubKey": {"reqSigs": 1, "hex": "76a91489aa8223606919a88e5ff761e7b2f9f891d4144e88ac", "addresses": ["1DYuqQi8phAHcgd7RRANCuJgqN5zUcs1EL"], "asm": "OP_DUP OP_HASH160 89aa8223606919a88e5ff761e7b2f9f891d4144e OP_EQUALVERIFY OP_CHECKSIG", "type": "pubkeyhash"}, "value": 0.00119, "n": 1}, {"scriptPubKey": {"reqSigs": 1, "hex": "76a9143b9c8551c708c4453ab9a52dffb4770abc5fdc8488ac", "addresses": ["16SCNaCVPTGik16y6QrGZm1N2vTZh96KrC"], "asm": "OP_DUP OP_HASH160 3b9c8551c708c4453ab9a52dffb4770abc5fdc84 OP_EQUALVERIFY OP_CHECKSIG", "type": "pubkeyhash"}, "value": 0.00143, "n": 2}, {"scriptPubKey": {"reqSigs": 1, "hex": "a914d56fdae87f9c194a54d29754831be6edd4c5a23387", "addresses": ["3M9ZrETr9cniREvh516MPVEhh3vYoyVVZr"], "asm": "OP_HASH160 d56fdae87f9c194a54d29754831be6edd4c5a233 OP_EQUAL", "type": "scripthash"}, "value": 0.00178, "n": 3}, {"scriptPubKey": {"reqSigs": 1, "hex": "a9142e68b0ddc1f35ebfdf89e3c8fe16f008e4002b4787", "addresses": ["35vQRRCfsVsU4EUyduvWPQPEgksYfTcdKE"], "asm": "OP_HASH160 2e68b0ddc1f35ebfdf89e3c8fe16f008e4002b47 OP_EQUAL", "type": "scripthash"}, "value": 0.01000596, "n": 4}, {"scriptPubKey": {"reqSigs": 1, "hex": "a914bb46a9b055a4a5e5dfe7cc3e7cae977ed938704d87", "addresses": ["3JmEwA3TKqGsENk1jPCHLPnf6wXMefH8hu"], "asm": "OP_HASH160 bb46a9b055a4a5e5dfe7cc3e7cae977ed938704d OP_EQUAL", "type": "scripthash"}, "value": 0.00267, "n": 5}], "hex": "020000000001025bbcc87b5dfe9a385c9a9515c9b692ec00897783135535797274e6dea570990f01000000171600142de64d886fdf0e948b952674f0f59155125e0179feffffff76273eb6ed029a93f749069d28f4d89be8e59a54725d65dc067f07ae281474410200000017160014bca3fd26bd70f4a7fbce36decff0ad838c7a3916feffffff0658920100000000001976a914d2492f9844baa528cfdf346799abc680cbcf112888acd8d00100000000001976a91489aa8223606919a88e5ff761e7b2f9f891d4144e88ac982e0200000000001976a9143b9c8551c708c4453ab9a52dffb4770abc5fdc8488ac50b702000000000017a914d56fdae87f9c194a54d29754831be6edd4c5a2338794440f000000000017a9142e68b0ddc1f35ebfdf89e3c8fe16f008e4002b4787f81204000000000017a914bb46a9b055a4a5e5dfe7cc3e7cae977ed938704d87024730440220786ccda78207039f8adf1380dd54b5f9002b20ca5a45e007a065f3f707269af402206080aa6c044337ce384a76efb95898b46eea03ab144cbb9a73d2da6f23e3f6ee0121026edb2a153a1292dd2d5a453d5ac8ade616d0235d186ebd37548b9feeaacbf190024730440220409d2a2c4646944625a71202dc9eedae1896cec756f34108d0f0561007e8cd7802200742550fd2124ee0ac2517af962f5c7b6d0e5d6ce5001639dc5daa7c85e5ef5e012102c021e5ab8cb4880b334087daff7c6d748cb41b96733d61492f9d1c8af3c6a73e00000000", "vin": [{"txinwitness": ["30440220786ccda78207039f8adf1380dd54b5f9002b20ca5a45e007a065f3f707269af402206080aa6c044337ce384a76efb95898b46eea03ab144cbb9a73d2da6f23e3f6ee01", "026edb2a153a1292dd2d5a453d5ac8ade616d0235d186ebd37548b9feeaacbf190"], "sequence": 4294967294, "scriptSig": {"hex": "1600142de64d886fdf0e948b952674f0f59155125e0179", "asm": "00142de64d886fdf0e948b952674f0f59155125e0179"}, "vout": 1, "txid": "0f9970a5dee674727935551383778900ec92b6c915959a5c389afe5d7bc8bc5b"}, {"txinwitness": ["30440220409d2a2c4646944625a71202dc9eedae1896cec756f34108d0f0561007e8cd7802200742550fd2124ee0ac2517af962f5c7b6d0e5d6ce5001639dc5daa7c85e5ef5e01", "02c021e5ab8cb4880b334087daff7c6d748cb41b96733d61492f9d1c8af3c6a73e"], "sequence": 4294967294, "scriptSig": {"hex": "160014bca3fd26bd70f4a7fbce36decff0ad838c7a3916", "asm": "0014bca3fd26bd70f4a7fbce36decff0ad838c7a3916"}, "vout": 2, "txid": "41741428ae077f06dc655d72549ae5e89bd8f4289d0649f7939a02edb63e2776"}], "txid": "38eea3238e7b83283ea6be25a23004cf1dcc1232d125ad74c0757f3c517a5a6b", "blocktime": 1537873282, "version": 2, "confirmations": 11484, "time": 1537873282, "locktime": 0, "vsize": 390, "size": 552}