{"hash": "38ef6e2e0082bb07e7f536bfe903cdb4dd4ad411f1788fe1faebbb771f5bd50c", "blockhash": "0000000000000000000e13cef7c366c0283d82e591d1acd082e914b08063cdf1", "vout": [{"scriptPubKey": {"reqSigs": 1, "hex": "a9145fbb3c4dda3bd109f87409a7c095322644aee0ec87", "addresses": ["3ARCR84mQ5J5KDfkMbE4ouWQE3U3MDySVt"], "asm": "OP_HASH160 5fbb3c4dda3bd109f87409a7c095322644aee0ec OP_EQUAL", "type": "scripthash"}, "value": 0.00237856, "n": 0}, {"scriptPubKey": {"reqSigs": 1, "hex": "a914720c6da9ab6d731f6e2aa0cbdf9f2453e09a45b187", "addresses": ["3C63qx6UyCSji9GDTPFu3JFTSnLKtZo91r"], "asm": "OP_HASH160 720c6da9ab6d731f6e2aa0cbdf9f2453e09a45b1 OP_EQUAL", "type": "scripthash"}, "value": 0.33666259, "n": 1}], "hex": "0100000001942bc878a7a606bb47ffa305d828da412ab869906ced2f28fca3e3a59b4f6c4401000000d90047304402207596d77bd04cd91f2a144727f27052b9c0e02a06a409f2fdd747d7cfad55d2a202202609c2969700a1e19e2a99e16ed3b7530cec494491538461d3fe72e284e8eaa20147304402203cf1f7277b6e47a31b134ec3d80b8d852a584a120ce3ee5cffd27cf30b79b00002200c6fdf53d553d3f938a9a88b35f6c86a7a30fbbda5b04f6ae292afbea2243ee40147522103f2d250ed5140d655fe49f9b9f857ff223c9290b9bbe8b68a50d522cf45e633702102045f2de7b3abee8ca375163a8879a6719ef3e6d7ffc88aa3008e11b5b89eb7ee52aeffffffff0220a103000000000017a9145fbb3c4dda3bd109f87409a7c095322644aee0ec87d3b401020000000017a914720c6da9ab6d731f6e2aa0cbdf9f2453e09a45b18700000000", "vin": [{"sequence": 4294967295, "scriptSig": {"hex": "0047304402207596d77bd04cd91f2a144727f27052b9c0e02a06a409f2fdd747d7cfad55d2a202202609c2969700a1e19e2a99e16ed3b7530cec494491538461d3fe72e284e8eaa20147304402203cf1f7277b6e47a31b134ec3d80b8d852a584a120ce3ee5cffd27cf30b79b00002200c6fdf53d553d3f938a9a88b35f6c86a7a30fbbda5b04f6ae292afbea2243ee40147522103f2d250ed5140d655fe49f9b9f857ff223c9290b9bbe8b68a50d522cf45e633702102045f2de7b3abee8ca375163a8879a6719ef3e6d7ffc88aa3008e11b5b89eb7ee52ae", "asm": "0 304402207596d77bd04cd91f2a144727f27052b9c0e02a06a409f2fdd747d7cfad55d2a202202609c2969700a1e19e2a99e16ed3b7530cec494491538461d3fe72e284e8eaa2[ALL] 304402203cf1f7277b6e47a31b134ec3d80b8d852a584a120ce3ee5cffd27cf30b79b00002200c6fdf53d553d3f938a9a88b35f6c86a7a30fbbda5b04f6ae292afbea2243ee4[ALL] 522103f2d250ed5140d655fe49f9b9f857ff223c9290b9bbe8b68a50d522cf45e633702102045f2de7b3abee8ca375163a8879a6719ef3e6d7ffc88aa3008e11b5b89eb7ee52ae"}, "vout": 1, "txid": "446c4f9ba5e3a3fc282fed6c9069b82a41da28d805a3ff47bb06a6a778c82b94"}], "txid": "38ef6e2e0082bb07e7f536bfe903cdb4dd4ad411f1788fe1faebbb771f5bd50c", "blocktime": 1537871767, "version": 1, "confirmations": 11491, "time": 1537871767, "locktime": 0, "vsize": 332, "size": 332}