{"hash": "38f1680b838c3610afac74596fc1a6cb1187f2d795aefd82a7385890f6edd85a", "blockhash": "0000000000000000001cda96e906b7601b7a6fb1a3b62bca570a9e5d8f4b3de1", "vout": [{"scriptPubKey": {"type": "nulldata", "hex": "6a146f6d6e69000000000000001f0000065dd0837000", "asm": "OP_RETURN 6f6d6e69000000000000001f0000065dd0837000"}, "value": 0.0, "n": 0}, {"scriptPubKey": {"reqSigs": 1, "hex": "76a9148cf577edf6d94d306da25e9ad766e0feb219f79788ac", "addresses": ["1DrKfJgee4DHyZGDURiUzVZwUyyxshxoXx"], "asm": "OP_DUP OP_HASH160 8cf577edf6d94d306da25e9ad766e0feb219f797 OP_EQUALVERIFY OP_CHECKSIG", "type": "pubkeyhash"}, "value": 5.46e-06, "n": 1}], "hex": "010000000271dd4ba0d18d11760c58ef29a130247d4ab9264d3e42009dc0a95cf917d288e8010000006a47304402203ac735ef78409eb246c1f0d5d190ebfaf039680f0306bb40cf2c894562e486d0022059f667fe176cb49a9a1ea4facb971a7ba39cc0f89b93da64f70b5708c0389ad6012102efb348cac0c31df87e482e9d3065995ef027661d549b78977e65c753b514e1c0ffffffffe628b306abec2693dc1754e83bcc113a602ea2f33893c646b1fa14c2e122505a090000006b483045022100e10bc21db3a6d4999d96122e496642ed2496d92de57993c8299d9ac353ef6e6302207ec392b6cdda9a9f5b5dac67ca88de21f1ac88724bfaaf0d7593d246d117d62c012102d0c22c863f90475471cb472b2d4ba7ecec902495c77b784f1a2be1d885ca9b24ffffffff020000000000000000166a146f6d6e69000000000000001f0000065dd083700022020000000000001976a9148cf577edf6d94d306da25e9ad766e0feb219f79788ac00000000", "vin": [{"sequence": 4294967295, "scriptSig": {"hex": "47304402203ac735ef78409eb246c1f0d5d190ebfaf039680f0306bb40cf2c894562e486d0022059f667fe176cb49a9a1ea4facb971a7ba39cc0f89b93da64f70b5708c0389ad6012102efb348cac0c31df87e482e9d3065995ef027661d549b78977e65c753b514e1c0", "asm": "304402203ac735ef78409eb246c1f0d5d190ebfaf039680f0306bb40cf2c894562e486d0022059f667fe176cb49a9a1ea4facb971a7ba39cc0f89b93da64f70b5708c0389ad6[ALL] 02efb348cac0c31df87e482e9d3065995ef027661d549b78977e65c753b514e1c0"}, "vout": 1, "txid": "e888d217f95ca9c09d00423e4d26b94a7d2430a129ef580c76118dd1a04bdd71"}, {"sequence": 4294967295, "scriptSig": {"hex": "483045022100e10bc21db3a6d4999d96122e496642ed2496d92de57993c8299d9ac353ef6e6302207ec392b6cdda9a9f5b5dac67ca88de21f1ac88724bfaaf0d7593d246d117d62c012102d0c22c863f90475471cb472b2d4ba7ecec902495c77b784f1a2be1d885ca9b24", "asm": "3045022100e10bc21db3a6d4999d96122e496642ed2496d92de57993c8299d9ac353ef6e6302207ec392b6cdda9a9f5b5dac67ca88de21f1ac88724bfaaf0d7593d246d117d62c[ALL] 02d0c22c863f90475471cb472b2d4ba7ecec902495c77b784f1a2be1d885ca9b24"}, "vout": 9, "txid": "5a5022e1c214fab146c69338f3a22e603a11cc3be85417dc9326ecab06b328e6"}], "txid": "38f1680b838c3610afac74596fc1a6cb1187f2d795aefd82a7385890f6edd85a", "blocktime": 1537873282, "version": 1, "confirmations": 11481, "time": 1537873282, "locktime": 0, "vsize": 370, "size": 370}