{"hash": "333b596c9e512c9d6f27a85c10b7665cff6fb34fe2f6aa43b33f3d96c66ca01e", "blockhash": "00000000000000000018f53835495a110e01622372bf6ae95dc86f2b0ab887b0", "vout": [{"scriptPubKey": {"reqSigs": 1, "hex": "a91448a6c0015de587fd356b0612daad6c0591a5609187", "addresses": ["38KALMG2ALVhAkPu944HJKVbpW6KdVNjXL"], "asm": "OP_HASH160 48a6c0015de587fd356b0612daad6c0591a56091 OP_EQUAL", "type": "scripthash"}, "value": 0.217819, "n": 0}, {"scriptPubKey": {"reqSigs": 1, "hex": "a914a36f7b902cecfce10856709ed58fb7fe3481dbfc87", "addresses": ["3GbBcmFSHfZBX9y7xZ3xG9cs5E5cihhYEJ"], "asm": "OP_HASH160 a36f7b902cecfce10856709ed58fb7fe3481dbfc OP_EQUAL", "type": "scripthash"}, "value": 0.01656, "n": 1}], "hex": "0100000000010140a530b10cc0085c2ead5cdd8036124f372bc1af0494773e6c8259045ab459900000000023220020592111d405b22b0ba62108fc8c97519d60cc13e5194373bf33e287526a91c91effffffff028c5d4c010000000017a91448a6c0015de587fd356b0612daad6c0591a5609187c04419000000000017a914a36f7b902cecfce10856709ed58fb7fe3481dbfc87040047304402205eeab23d655430e0faabad390bc81a57a681539237521bda0f5ce34a9376075502204762baa1a6f4d1a6ba31d1c44e4bff4b9a27bb0314ff2f8d44f96412b291d1b401483045022100a538be991bbf97819d4b99301380ab55f05932f8365d8e3a3a0e1bd47ba46c4202204638c976efc05eb8dc38e0746298196d5214211ed195f22b02ecb1f6dda4838301695221038677d7b43f13a8e58b7bcc57beb1fc3b9af845ac64e73217633b13fc20988b6f2103f4916c754520add468273f460d74fa8a9f3acc4ae92c1db4e7db436b925cbff22102c66413b86e53a6567f6a01b8b34d0eef919e111dd106824f04687c22aa428fec53ae00000000", "vin": [{"txinwitness": ["", "304402205eeab23d655430e0faabad390bc81a57a681539237521bda0f5ce34a9376075502204762baa1a6f4d1a6ba31d1c44e4bff4b9a27bb0314ff2f8d44f96412b291d1b401", "3045022100a538be991bbf97819d4b99301380ab55f05932f8365d8e3a3a0e1bd47ba46c4202204638c976efc05eb8dc38e0746298196d5214211ed195f22b02ecb1f6dda4838301", "5221038677d7b43f13a8e58b7bcc57beb1fc3b9af845ac64e73217633b13fc20988b6f2103f4916c754520add468273f460d74fa8a9f3acc4ae92c1db4e7db436b925cbff22102c66413b86e53a6567f6a01b8b34d0eef919e111dd106824f04687c22aa428fec53ae"], "sequence": 4294967295, "scriptSig": {"hex": "220020592111d405b22b0ba62108fc8c97519d60cc13e5194373bf33e287526a91c91e", "asm": "0020592111d405b22b0ba62108fc8c97519d60cc13e5194373bf33e287526a91c91e"}, "vout": 0, "txid": "9059b45a0459826c3e779404afc12b374f123680dd5cad2e5c08c00cb130a540"}], "txid": "38f3bb8eeb268af4571d373f220dad45abcf5ac8babe76e0041a334cfa6e8c37", "blocktime": 1537870928, "version": 1, "confirmations": 11514, "time": 1537870928, "locktime": 0, "vsize": 214, "size": 405}