{"hash": "52e0808aa6977f76364b245c78fa0cad724aa37562804dc936e93064b46a5fd5", "blockhash": "00000000000000000017f5eb5941039fbcee6240d03bc1f2f8e35350df66a1d8", "vout": [{"scriptPubKey": {"reqSigs": 1, "hex": "a9149d82c7141c8f9d151aaf10286cc3d822d92487b787", "addresses": ["3G3rgFYcfDmpXXEweegAQUi24GTSQ2Jpbu"], "asm": "OP_HASH160 9d82c7141c8f9d151aaf10286cc3d822d92487b7 OP_EQUAL", "type": "scripthash"}, "value": 0.001855, "n": 0}, {"scriptPubKey": {"reqSigs": 1, "hex": "a91430062d784d6a3f3b552000b95c8d06712b734d4887", "addresses": ["364wkynr5Eb2vHkcynvadJ7yNxM4bJrC9R"], "asm": "OP_HASH160 30062d784d6a3f3b552000b95c8d06712b734d48 OP_EQUAL", "type": "scripthash"}, "value": 0.0182207, "n": 1}], "hex": "020000000001024b990c692636b3a0af2d269d4f9758d6b45a3e03de1e47e40aab48770e1ee25b0100000017160014b62a30eaad852513ac69d0dc8187e9e794dec028feffffffd45814ea4d8ba40a98f77e1f85aa366a77b456e507eea404e0afe1993385c46a01000000171600148c7014d0473a24e893eb38aee3f9fa9064e736fefeffffff029cd402000000000017a9149d82c7141c8f9d151aaf10286cc3d822d92487b78776cd1b000000000017a91430062d784d6a3f3b552000b95c8d06712b734d4887024730440220401a6044afb68b56046767bcb02fc4a8805af8c149e4503f7b76a407319437020220436709548d16582443a80efd1196adf47c9e3d2e8a3c5e58cbab5aa5e9f0c736012102913bfbecd911de503eb9f84942033a5ac70998cd8267ded55c8c1d1efbc3520602473044022029def088dde636629313bc0a7c5e0599ca946176dcf7a668f851c35b03b04c1502203bd5bf5611b0002a078f9a6897d7fc05e44625d2a8d8c95d864b755b622287240121020085950b6360e96f03c06db6270ae395df89544939a823e869a59382a7e0334715490800", "vin": [{"txinwitness": ["30440220401a6044afb68b56046767bcb02fc4a8805af8c149e4503f7b76a407319437020220436709548d16582443a80efd1196adf47c9e3d2e8a3c5e58cbab5aa5e9f0c73601", "02913bfbecd911de503eb9f84942033a5ac70998cd8267ded55c8c1d1efbc35206"], "sequence": 4294967294, "scriptSig": {"hex": "160014b62a30eaad852513ac69d0dc8187e9e794dec028", "asm": "0014b62a30eaad852513ac69d0dc8187e9e794dec028"}, "vout": 1, "txid": "5be21e0e7748ab0ae4471ede033e5ab4d658974f9d262dafa0b33626690c994b"}, {"txinwitness": ["3044022029def088dde636629313bc0a7c5e0599ca946176dcf7a668f851c35b03b04c1502203bd5bf5611b0002a078f9a6897d7fc05e44625d2a8d8c95d864b755b6222872401", "020085950b6360e96f03c06db6270ae395df89544939a823e869a59382a7e03347"], "sequence": 4294967294, "scriptSig": {"hex": "1600148c7014d0473a24e893eb38aee3f9fa9064e736fe", "asm": "00148c7014d0473a24e893eb38aee3f9fa9064e736fe"}, "vout": 1, "txid": "6ac4853399e1afe004a4ee07e556b4776a36aa851f7ef7980aa48b4dea1458d4"}], "txid": "38f511732f1ab5c903d906ffa43fa6b9024108d5151ecdc65551342f3a3b650e", "blocktime": 1537874412, "version": 2, "confirmations": 11468, "time": 1537874412, "locktime": 542997, "vsize": 256, "size": 418}