{"hash": "d8e3b533db52c2f99f6f0cf81de2a74a070d1e86f168bcfbd620943010ffed32", "blockhash": "0000000000000000001f76057863aec43deb6fa401d9628bb513d65a8098bfab", "vout": [{"scriptPubKey": {"reqSigs": 1, "hex": "76a91411c8762844c8120194f5874273fc7d159212f4ad88ac", "addresses": ["12d2daHgwBvrjS31Te3EuueBAax3gZ8PTh"], "asm": "OP_DUP OP_HASH160 11c8762844c8120194f5874273fc7d159212f4ad OP_EQUALVERIFY OP_CHECKSIG", "type": "pubkeyhash"}, "value": 0.00072694, "n": 0}], "hex": "01000000000101158913c1294e0453e9a8c4346db489765c257eab4c7b2e7af5aad658252cc7c600000000171600146babfd07ebef913c3e7b21cfe76d2b68998db948ffffffff01f61b0100000000001976a91411c8762844c8120194f5874273fc7d159212f4ad88ac0247304402203dd7bc12617db707b668038f3d0128ad2fda936cc1361b374028e7cfe49e98bb022063d1fed909b1e993629d551763f071e7f66c63dffea1d22eb387197920d8769f0121034dbbd8f1ca6adbaed48e60c5d7ad6de045163799c5ba0a85eacdccb25ea7797100000000", "vin": [{"txinwitness": ["304402203dd7bc12617db707b668038f3d0128ad2fda936cc1361b374028e7cfe49e98bb022063d1fed909b1e993629d551763f071e7f66c63dffea1d22eb387197920d8769f01", "034dbbd8f1ca6adbaed48e60c5d7ad6de045163799c5ba0a85eacdccb25ea77971"], "sequence": 4294967295, "scriptSig": {"hex": "1600146babfd07ebef913c3e7b21cfe76d2b68998db948", "asm": "00146babfd07ebef913c3e7b21cfe76d2b68998db948"}, "vout": 0, "txid": "c6c72c2558d6aaf57a2e7b4cab7e255c7689b46d34c4a8e953044e29c1138915"}], "txid": "38ffb21e2b077a66da6508107f0d80f187ad135cfcaa0bab325fbe7feb66e91a", "blocktime": 1537873891, "version": 1, "confirmations": 11474, "time": 1537873891, "locktime": 0, "vsize": 136, "size": 217}