{"hash": "12c080198c6c83a8f6a9dae2acf9bda48a212c12867ea0e1e8fb2739e94093cc", "blockhash": "0000000000000000000dcc0f55137456b1a82d3642486a52398922ac4d620174", "vout": [{"scriptPubKey": {"reqSigs": 1, "hex": "a91431245ffe80809ef0911bd0640d9b63e3ceb3f1ee87", "addresses": ["36ArcKaedDrsb7Lz6qMyrfeHL31D1MoGHM"], "asm": "OP_HASH160 31245ffe80809ef0911bd0640d9b63e3ceb3f1ee OP_EQUAL", "type": "scripthash"}, "value": 1.3499, "n": 0}, {"scriptPubKey": {"reqSigs": 1, "hex": "a914e9204b7a96cd832d02f1ff561fcdebf110fa90e187", "addresses": ["3Nwg48CoZ4ELeuoV6ASW92z64jCSUZby4w"], "asm": "OP_HASH160 e9204b7a96cd832d02f1ff561fcdebf110fa90e1 OP_EQUAL", "type": "scripthash"}, "value": 0.08236338, "n": 1}], "hex": "020000000001026b52049220f917383a76abd6ee63da03cdedd100178505bc5b5427be470b18ae0100000017160014a94eaa965968a24ecfdd86356471ddbd3018ff88feffffffb4f0548ad61e50bec491999a70f3dc6e366d2e368db906d8ac8498cd3ae483e10100000017160014255e711fe96b0578df4741416ecd87be0a31de86feffffff02b0c80b080000000017a91431245ffe80809ef0911bd0640d9b63e3ceb3f1ee8732ad7d000000000017a914e9204b7a96cd832d02f1ff561fcdebf110fa90e18702483045022100f5d3e000786ef456d9ef8d30df7c592a05daef25440c3085b6e797bac2f58d8602201e6dde62695cdfd076f8dbc675c3e30c41ffed5a80bee6d51c2256bda40a3e490121028ed9e2f4932cd55a51f69704228152fb8609d1ce83d0008ec3da21ad204038310247304402202c338c4602f62cbc0f4ec6f96b8f185b5aadee8adb8b12cab7d4272bcffb04e0022002b99faf11effd48c10f2029f72645492de459d3842d283902de596cd2dff787012102e055142fbe05c826e331ff812336352fe12b39efa24f55ac3820c0f6917f35730c490800", "vin": [{"txinwitness": ["3045022100f5d3e000786ef456d9ef8d30df7c592a05daef25440c3085b6e797bac2f58d8602201e6dde62695cdfd076f8dbc675c3e30c41ffed5a80bee6d51c2256bda40a3e4901", "028ed9e2f4932cd55a51f69704228152fb8609d1ce83d0008ec3da21ad20403831"], "sequence": 4294967294, "scriptSig": {"hex": "160014a94eaa965968a24ecfdd86356471ddbd3018ff88", "asm": "0014a94eaa965968a24ecfdd86356471ddbd3018ff88"}, "vout": 1, "txid": "ae180b47be27545bbc05851700d1edcd03da63eed6ab763a3817f9209204526b"}, {"txinwitness": ["304402202c338c4602f62cbc0f4ec6f96b8f185b5aadee8adb8b12cab7d4272bcffb04e0022002b99faf11effd48c10f2029f72645492de459d3842d283902de596cd2dff78701", "02e055142fbe05c826e331ff812336352fe12b39efa24f55ac3820c0f6917f3573"], "sequence": 4294967294, "scriptSig": {"hex": "160014255e711fe96b0578df4741416ecd87be0a31de86", "asm": "0014255e711fe96b0578df4741416ecd87be0a31de86"}, "vout": 1, "txid": "e183e43acd9884acd806b98d362e6d366edcf3709a9991c4be501ed68a54f0b4"}], "txid": "3906c3bb09e71c96bff4362a0b1621dbd17113e0b5b3cd224aa4cf070b7dc2f3", "blocktime": 1537870268, "version": 2, "confirmations": 11518, "time": 1537870268, "locktime": 542988, "vsize": 257, "size": 419}