{"hash": "390cf814765227e1667d619bfd2a579125d4721b1ce8dc43d72b7b35996d55d4", "blockhash": "000000000000000000022b45ed06c6f4ccd3cf7fb5ba4856ebd2e58215665228", "vout": [{"scriptPubKey": {"reqSigs": 1, "hex": "a91493a4a399517d6d7be63cbda1e6f64b201662e2d787", "addresses": ["3F9gV4jN7WLGDXUUpnaDFi7Apmu8592jMD"], "asm": "OP_HASH160 93a4a399517d6d7be63cbda1e6f64b201662e2d7 OP_EQUAL", "type": "scripthash"}, "value": 0.00468384, "n": 0}, {"scriptPubKey": {"reqSigs": 1, "hex": "76a9148a4adbcd2647ac76cf9dca8693d5740d7383922b88ac", "addresses": ["1DcDvjspsgtkFov5H2i9P2Y6KbN9ctM4GP"], "asm": "OP_DUP OP_HASH160 8a4adbcd2647ac76cf9dca8693d5740d7383922b OP_EQUALVERIFY OP_CHECKSIG", "type": "pubkeyhash"}, "value": 0.01085635, "n": 1}], "hex": "01000000010acd8bb4b7175c681c50818f5126ff9e68a6361c156a60a2123602f30ec6f505010000006b4830450221009ec0dfa254e8421706bbc78f764549326553e12cdbccb7bcbcd6e8aea4eaddc9022054cdf69ccd7f91f48c3c9a4828610d09c6c0adf266eecbcdfcd3b980148def7b0121022b4de152a50591fa68d581aca8561a233c2739b81680a71825b63775514834a5ffffffff02a02507000000000017a91493a4a399517d6d7be63cbda1e6f64b201662e2d787c3901000000000001976a9148a4adbcd2647ac76cf9dca8693d5740d7383922b88ac00000000", "vin": [{"sequence": 4294967295, "scriptSig": {"hex": "4830450221009ec0dfa254e8421706bbc78f764549326553e12cdbccb7bcbcd6e8aea4eaddc9022054cdf69ccd7f91f48c3c9a4828610d09c6c0adf266eecbcdfcd3b980148def7b0121022b4de152a50591fa68d581aca8561a233c2739b81680a71825b63775514834a5", "asm": "30450221009ec0dfa254e8421706bbc78f764549326553e12cdbccb7bcbcd6e8aea4eaddc9022054cdf69ccd7f91f48c3c9a4828610d09c6c0adf266eecbcdfcd3b980148def7b[ALL] 022b4de152a50591fa68d581aca8561a233c2739b81680a71825b63775514834a5"}, "vout": 1, "txid": "05f5c60ef3023612a2606a151c36a6689eff26518f81501c685c17b7b48bcd0a"}], "txid": "390cf814765227e1667d619bfd2a579125d4721b1ce8dc43d72b7b35996d55d4", "blocktime": 1537869901, "version": 1, "confirmations": 11522, "time": 1537869901, "locktime": 0, "vsize": 224, "size": 224}