{"hash": "e1e6aa620aec2350c1e63b01c3dc14758379b8aa05ec7aff26a3dac0bab205e5", "blockhash": "0000000000000000001cda96e906b7601b7a6fb1a3b62bca570a9e5d8f4b3de1", "vout": [{"scriptPubKey": {"reqSigs": 1, "hex": "76a9142676613feb7635673d903d4101e07378a862e67d88ac", "addresses": ["14WNVU96w4V9sfNvyUVtex4bb5VsS4vURq"], "asm": "OP_DUP OP_HASH160 2676613feb7635673d903d4101e07378a862e67d OP_EQUALVERIFY OP_CHECKSIG", "type": "pubkeyhash"}, "value": 0.03138564, "n": 0}, {"scriptPubKey": {"reqSigs": 1, "hex": "0014bd86b82ac8e082fe3073b67510964edc17becdcd", "addresses": ["bc1qhkrts2kguzp0uvrnke63p9jwmstmanwdm6806g"], "asm": "0 bd86b82ac8e082fe3073b67510964edc17becdcd", "type": "witness_v0_keyhash"}, "value": 0.00111054, "n": 1}], "hex": "01000000000101a7a972a86dff60c966a66f49e6f70509933c394175c0b7d54e7575144157d3920100000000ffffffff0204e42f00000000001976a9142676613feb7635673d903d4101e07378a862e67d88acceb1010000000000160014bd86b82ac8e082fe3073b67510964edc17becdcd024730440220569ed4808a88f10c1f8c469353be11d38810f8fd8d660a9a70acd929094cd4b402203c6403a19f5b3b9713b724e6bd3361fc8bd18523afb5654b81e9b796cf701ca30121037e2ee58e9ba14cd16d2ea2026e4f77cde9e0c2536c057a4944bac287cb18da5500000000", "vin": [{"txinwitness": ["30440220569ed4808a88f10c1f8c469353be11d38810f8fd8d660a9a70acd929094cd4b402203c6403a19f5b3b9713b724e6bd3361fc8bd18523afb5654b81e9b796cf701ca301", "037e2ee58e9ba14cd16d2ea2026e4f77cde9e0c2536c057a4944bac287cb18da55"], "sequence": 4294967295, "scriptSig": {"hex": "", "asm": ""}, "vout": 1, "txid": "92d357411475754ed5b7c07541393c930905f7e6496fa666c960ff6da872a9a7"}], "txid": "3914f9f81f9a5468dcec46d5f47a26adc7c15de94811c7c1d3c91d8d0ff5aba6", "blocktime": 1537873282, "version": 1, "confirmations": 11484, "time": 1537873282, "locktime": 0, "vsize": 144, "size": 225}