{"hash": "39166de750a818a78eb14e9c6c983d6e7e7b2d85d08089a3d79317f5717a0e27", "blockhash": "0000000000000000000baef3f32e3676a92c3b2e5da21b426e4f302fc371ce76", "vout": [{"scriptPubKey": {"reqSigs": 1, "hex": "76a914ff517b3a4c3df5161cefd41229465beee92effaa88ac", "addresses": ["1QGzvLmPw68v2Y54gjhBhsMtYRrW2Fnztc"], "asm": "OP_DUP OP_HASH160 ff517b3a4c3df5161cefd41229465beee92effaa OP_EQUALVERIFY OP_CHECKSIG", "type": "pubkeyhash"}, "value": 0.0848162, "n": 0}], "hex": "01000000018dd5e7f9eb3188710a557b8d8cd770d30f0a44ea21dd23d4c10066d1929b2e23010000006b483045022100932f370be0384d332c7ac9431248fa1c91872fa2788e018a6c6d6c6d26bbe989022060863f097f9a027440f138aba0b4a4c3dc24275f1a272dea9a3d692f759641840121023b30e0285644b45d73454cca1ca8964ca274f866fe2dc84214649912241d869effffffff01546b8100000000001976a914ff517b3a4c3df5161cefd41229465beee92effaa88ac00000000", "vin": [{"sequence": 4294967295, "scriptSig": {"hex": "483045022100932f370be0384d332c7ac9431248fa1c91872fa2788e018a6c6d6c6d26bbe989022060863f097f9a027440f138aba0b4a4c3dc24275f1a272dea9a3d692f759641840121023b30e0285644b45d73454cca1ca8964ca274f866fe2dc84214649912241d869e", "asm": "3045022100932f370be0384d332c7ac9431248fa1c91872fa2788e018a6c6d6c6d26bbe989022060863f097f9a027440f138aba0b4a4c3dc24275f1a272dea9a3d692f75964184[ALL] 023b30e0285644b45d73454cca1ca8964ca274f866fe2dc84214649912241d869e"}, "vout": 1, "txid": "232e9b92d16600c1d423dd21ea440a0fd370d78c8d7b550a718831ebf9e7d58d"}], "txid": "39166de750a818a78eb14e9c6c983d6e7e7b2d85d08089a3d79317f5717a0e27", "blocktime": 1537876114, "version": 1, "confirmations": 11462, "time": 1537876114, "locktime": 0, "vsize": 192, "size": 192}