{"hash": "39162138d929400217144da0ff7ab825e7890cf2ccb69e4258d7b9278095819a", "blockhash": "00000000000000000004ffacab907a6b429b9a5745fa0b75af4234bf69dd7176", "vout": [{"scriptPubKey": {"reqSigs": 1, "hex": "76a9141cb835edf2e0409f10718982f418516b727a69fa88ac", "addresses": ["13crbZ3PxvfAmvQwr4XoMKybyUekPHHxy6"], "asm": "OP_DUP OP_HASH160 1cb835edf2e0409f10718982f418516b727a69fa OP_EQUALVERIFY OP_CHECKSIG", "type": "pubkeyhash"}, "value": 0.00011938, "n": 0}, {"scriptPubKey": {"reqSigs": 1, "hex": "76a914d3fb28ebe0bab090b2ba534757f71dd7fccae4b388ac", "addresses": ["1LKrTNNZAMwXDJQD3GLWCNPvGnKcUPyBgC"], "asm": "OP_DUP OP_HASH160 d3fb28ebe0bab090b2ba534757f71dd7fccae4b3 OP_EQUALVERIFY OP_CHECKSIG", "type": "pubkeyhash"}, "value": 0.01705189, "n": 1}], "hex": "0100000001b20ba81ae421fc723657f46243bd8af7b6db659af446c93b338efa3ab0c59271000000006b483045022100e54719da61733ede54916ec3ebfbf6b848d1225036ef4a0816773b1b0ca83d5b02206aa8e371d1c8eaca5da4093c8c08715cdf845753569f8a60088d1d53afd33bd801210396d296e60e855fb16fc7d355935dd67e1755f356cfd6b0958a3af4efe26589abffffffff02a22e0000000000001976a9141cb835edf2e0409f10718982f418516b727a69fa88ace5041a00000000001976a914d3fb28ebe0bab090b2ba534757f71dd7fccae4b388ac00000000", "vin": [{"sequence": 4294967295, "scriptSig": {"hex": "483045022100e54719da61733ede54916ec3ebfbf6b848d1225036ef4a0816773b1b0ca83d5b02206aa8e371d1c8eaca5da4093c8c08715cdf845753569f8a60088d1d53afd33bd801210396d296e60e855fb16fc7d355935dd67e1755f356cfd6b0958a3af4efe26589ab", "asm": "3045022100e54719da61733ede54916ec3ebfbf6b848d1225036ef4a0816773b1b0ca83d5b02206aa8e371d1c8eaca5da4093c8c08715cdf845753569f8a60088d1d53afd33bd8[ALL] 0396d296e60e855fb16fc7d355935dd67e1755f356cfd6b0958a3af4efe26589ab"}, "vout": 0, "txid": "7192c5b03afa8e333bc946f49a65dbb6f78abd4362f4573672fc21e41aa80bb2"}], "txid": "39162138d929400217144da0ff7ab825e7890cf2ccb69e4258d7b9278095819a", "blocktime": 1537875543, "version": 1, "confirmations": 11464, "time": 1537875543, "locktime": 0, "vsize": 226, "size": 226}