{"hash": "bf3a4e2bf975fd5009c613e356695b0c6ec3c63195c9461fea19f6987711de72", "blockhash": "0000000000000000000e13cef7c366c0283d82e591d1acd082e914b08063cdf1", "vout": [{"scriptPubKey": {"reqSigs": 1, "hex": "a914cc819f7592da99417323335a6e5ea6f535e124fe87", "addresses": ["3LLM42tFpCXDc7HADbV9aRiGzwYn9jKwWv"], "asm": "OP_HASH160 cc819f7592da99417323335a6e5ea6f535e124fe OP_EQUAL", "type": "scripthash"}, "value": 0.00754679, "n": 0}, {"scriptPubKey": {"reqSigs": 1, "hex": "0014f555716ec7c6a8f9a4c88ee6faccf1606f70a562", "addresses": ["bc1q742hzmk8c650nfxg3mn04n83vphhpftz8td6r7"], "asm": "0 f555716ec7c6a8f9a4c88ee6faccf1606f70a562", "type": "witness_v0_keyhash"}, "value": 0.0106619, "n": 1}], "hex": "010000000001013b3fcc0b75ab0323791e275b2db0cf302322876da44108c56b21a3f50448a8090000000000ffffffff02f7830b000000000017a914cc819f7592da99417323335a6e5ea6f535e124fe87ce44100000000000160014f555716ec7c6a8f9a4c88ee6faccf1606f70a56202483045022100dcd69f7cc8b5d61289e2ca1b368593292c607c595c4a79a01befb58532d0fc12022048ba0869f75f44583436611f1ed786636a6981eb699c347fd2062d5977b074da012102dc88d1c860d9534e6048acb611114dd384eddfcf5c639d87fab4071f567297b100000000", "vin": [{"txinwitness": ["3045022100dcd69f7cc8b5d61289e2ca1b368593292c607c595c4a79a01befb58532d0fc12022048ba0869f75f44583436611f1ed786636a6981eb699c347fd2062d5977b074da01", "02dc88d1c860d9534e6048acb611114dd384eddfcf5c639d87fab4071f567297b1"], "sequence": 4294967295, "scriptSig": {"hex": "", "asm": ""}, "vout": 0, "txid": "09a84804f5a3216bc50841a46d87222330cfb02d5b271e792303ab750bcc3f3b"}], "txid": "392162f5271858319527d81a5e8520ee92f9c73bb29be0a41f9fad7a1feb8ff1", "blocktime": 1537871767, "version": 1, "confirmations": 11495, "time": 1537871767, "locktime": 0, "vsize": 142, "size": 224}