{"hash": "3927569c9d5f39f6d16cb871b828d9f9d0adb35d317bfa0db39186c523cd2603", "blockhash": "0000000000000000001f76057863aec43deb6fa401d9628bb513d65a8098bfab", "vout": [{"scriptPubKey": {"reqSigs": 1, "hex": "a9148939a83851f73a57e8851316d390973b96ea5a3d87", "addresses": ["3ECbZumtYtAt48eAXTgtDFkLshM5KnXbW5"], "asm": "OP_HASH160 8939a83851f73a57e8851316d390973b96ea5a3d OP_EQUAL", "type": "scripthash"}, "value": 0.0035266, "n": 0}, {"scriptPubKey": {"reqSigs": 1, "hex": "76a9148d019d4b18861a9ca3947b4b170fe99cf337868088ac", "addresses": ["1DraDDnbqfiB5bCSkigfVneHsB5Wn1iJpA"], "asm": "OP_DUP OP_HASH160 8d019d4b18861a9ca3947b4b170fe99cf3378680 OP_EQUALVERIFY OP_CHECKSIG", "type": "pubkeyhash"}, "value": 0.00466212, "n": 1}], "hex": "01000000018194e027d7c2beb7d26e537d6482b4276cab5c4bd158618d17c1567bf80beb7a010000006a473044022003fe6ec5c8600465f21b797003eb7014b4576f32523658793b764ca8e2fb5c3a0220257474fa87744df11300e8fcd0a7a22cf85d86f0ce0f0ead0fd5a91b86e2d46c012102186d174ea100c56ee076a8be7374482b1f0623f550853d0cdcada1d9511a2bf1ffffffff02946105000000000017a9148939a83851f73a57e8851316d390973b96ea5a3d87241d0700000000001976a9148d019d4b18861a9ca3947b4b170fe99cf337868088ac00000000", "vin": [{"sequence": 4294967295, "scriptSig": {"hex": "473044022003fe6ec5c8600465f21b797003eb7014b4576f32523658793b764ca8e2fb5c3a0220257474fa87744df11300e8fcd0a7a22cf85d86f0ce0f0ead0fd5a91b86e2d46c012102186d174ea100c56ee076a8be7374482b1f0623f550853d0cdcada1d9511a2bf1", "asm": "3044022003fe6ec5c8600465f21b797003eb7014b4576f32523658793b764ca8e2fb5c3a0220257474fa87744df11300e8fcd0a7a22cf85d86f0ce0f0ead0fd5a91b86e2d46c[ALL] 02186d174ea100c56ee076a8be7374482b1f0623f550853d0cdcada1d9511a2bf1"}, "vout": 1, "txid": "7aeb0bf87b56c1178d6158d14b5cab6c27b482647d536ed2b7bec2d727e09481"}], "txid": "3927569c9d5f39f6d16cb871b828d9f9d0adb35d317bfa0db39186c523cd2603", "blocktime": 1537873891, "version": 1, "confirmations": 11477, "time": 1537873891, "locktime": 0, "vsize": 223, "size": 223}