{"hash": "bfb277e3143df87db0c3518f017dcaa3f0236f52b80bf98d7b0ceaef38be3027", "blockhash": "0000000000000000001cda96e906b7601b7a6fb1a3b62bca570a9e5d8f4b3de1", "vout": [{"scriptPubKey": {"reqSigs": 1, "hex": "0014fd88f4c4b9b47c27fab4a085a3e206b7f73e45c6", "addresses": ["bc1qlky0f39ek37z07455zz68csxklmnu3wxdh9ak4"], "asm": "0 fd88f4c4b9b47c27fab4a085a3e206b7f73e45c6", "type": "witness_v0_keyhash"}, "value": 1.358e-05, "n": 0}, {"scriptPubKey": {"reqSigs": 1, "hex": "76a914e56a5195daa6d68d1e8f1c14da35f46df9d6644088ac", "addresses": ["1Mv375izvU8ywKG7qRgQd14NoiArM4oFPK"], "asm": "OP_DUP OP_HASH160 e56a5195daa6d68d1e8f1c14da35f46df9d66440 OP_EQUALVERIFY OP_CHECKSIG", "type": "pubkeyhash"}, "value": 0.00245113, "n": 1}], "hex": "010000000001016319ecaab6c74baee4e7e7c26a156488065a8889452b3b82acc7025f87c2efa60100000000ffffffff024e05000000000000160014fd88f4c4b9b47c27fab4a085a3e206b7f73e45c679bd0300000000001976a914e56a5195daa6d68d1e8f1c14da35f46df9d6644088ac024830450221009ef58536f63ef47234a71529ba41ed31e58ed5731c07036d8025782b6bd92adc022031efd00cd6ff28a62b56ba0ebb9d106b572d1f51b681c7657ccfbfd3a080da54012102c52788016e6523fd43bae93ca7679c195ebf7e9db1fb2ee137d4e5ea3aec9b3e00000000", "vin": [{"txinwitness": ["30450221009ef58536f63ef47234a71529ba41ed31e58ed5731c07036d8025782b6bd92adc022031efd00cd6ff28a62b56ba0ebb9d106b572d1f51b681c7657ccfbfd3a080da5401", "02c52788016e6523fd43bae93ca7679c195ebf7e9db1fb2ee137d4e5ea3aec9b3e"], "sequence": 4294967295, "scriptSig": {"hex": "", "asm": ""}, "vout": 1, "txid": "a6efc2875f02c7ac823b2b4589885a068864156ac2e7e7e4ae4bc7b6aaec1963"}], "txid": "39284cea1651fc2ac0a6050f3f70d48b8b633a2df046b730ad042e70b35a9d20", "blocktime": 1537873282, "version": 1, "confirmations": 11484, "time": 1537873282, "locktime": 0, "vsize": 144, "size": 226}