{"hash": "392a943bb9714d36ff9f534e55795e2f4ba900a7fdb8d4f3a7cf71c4f8d431c1", "blockhash": "00000000000000000024a2167bbff67b0be802c0b01cdd79e6331c2be6459f87", "vout": [{"scriptPubKey": {"reqSigs": 1, "hex": "a9146619a6211792b3626d4f02fbae75d6e53c21fa4987", "addresses": ["3AzsaEJiQqFTPidu7iNSjp33DX1ia4d8u1"], "asm": "OP_HASH160 6619a6211792b3626d4f02fbae75d6e53c21fa49 OP_EQUAL", "type": "scripthash"}, "value": 1.140194, "n": 0}], "hex": "01000000014d104b85e3a703fbff4058674204e128c877fbce45ae290ac094ded6709b9d83020000006b483045022100f6dcf789eafe87d5de51fd84228119252aeffb688c3f75e934be1f0ca86a0fdd02202f852e2c0b39243aaf7922a2650219f967ff985b8bafbfe9e38852cfb1cc7a4a012103207b75255da3df709220fb168a04e2cc475f613899a06b25087727022a1324e7ffffffff0148cccb060000000017a9146619a6211792b3626d4f02fbae75d6e53c21fa498700000000", "vin": [{"sequence": 4294967295, "scriptSig": {"hex": "483045022100f6dcf789eafe87d5de51fd84228119252aeffb688c3f75e934be1f0ca86a0fdd02202f852e2c0b39243aaf7922a2650219f967ff985b8bafbfe9e38852cfb1cc7a4a012103207b75255da3df709220fb168a04e2cc475f613899a06b25087727022a1324e7", "asm": "3045022100f6dcf789eafe87d5de51fd84228119252aeffb688c3f75e934be1f0ca86a0fdd02202f852e2c0b39243aaf7922a2650219f967ff985b8bafbfe9e38852cfb1cc7a4a[ALL] 03207b75255da3df709220fb168a04e2cc475f613899a06b25087727022a1324e7"}, "vout": 2, "txid": "839d9b70d6de94c00a29ae45cefb77c828e10442675840fffb03a7e3854b104d"}], "txid": "392a943bb9714d36ff9f534e55795e2f4ba900a7fdb8d4f3a7cf71c4f8d431c1", "blocktime": 1537870564, "version": 1, "confirmations": 11515, "time": 1537870564, "locktime": 0, "vsize": 190, "size": 190}