{"hash": "392adac95a3489c504f2ee11ae608269c06da6b0e76aaeb20445a8bfbafa40da", "blockhash": "0000000000000000000e13cef7c366c0283d82e591d1acd082e914b08063cdf1", "vout": [{"scriptPubKey": {"reqSigs": 1, "hex": "76a914d439cb272767142267e7dc7260f21a5bf1d1899d88ac", "addresses": ["1LM9VEeyMSgYqqs4bkAA48zPdV7vQuxrET"], "asm": "OP_DUP OP_HASH160 d439cb272767142267e7dc7260f21a5bf1d1899d OP_EQUALVERIFY OP_CHECKSIG", "type": "pubkeyhash"}, "value": 0.00256844, "n": 0}, {"scriptPubKey": {"reqSigs": 1, "hex": "a914da4f7e48c24e18dc552dd390aa29a985bd4a359187", "addresses": ["3MbLTet7FdYJvkcDaiPRrZWB4gQBEH9NzY"], "asm": "OP_HASH160 da4f7e48c24e18dc552dd390aa29a985bd4a3591 OP_EQUAL", "type": "scripthash"}, "value": 0.006254, "n": 1}], "hex": "0100000001dfd3ad7f92033fea7158c16631ec4aa97a431a084c20d87b214fc70e900bd913000000006b48304502210093466ea9e6264e079bbd8688100482caaaa6ebade83ef85bbd773aad544c15a502202d53f506d18f45cd4c13d815b9076bf65e815e2e9ef6a778064b7c5cedab38e40121030c6226f7e93f8dec3539a06a4449d1914ff66d56fd130a40588b9dc75e1cd7cbffffffff024ceb0300000000001976a914d439cb272767142267e7dc7260f21a5bf1d1899d88acf88a09000000000017a914da4f7e48c24e18dc552dd390aa29a985bd4a35918700000000", "vin": [{"sequence": 4294967295, "scriptSig": {"hex": "48304502210093466ea9e6264e079bbd8688100482caaaa6ebade83ef85bbd773aad544c15a502202d53f506d18f45cd4c13d815b9076bf65e815e2e9ef6a778064b7c5cedab38e40121030c6226f7e93f8dec3539a06a4449d1914ff66d56fd130a40588b9dc75e1cd7cb", "asm": "304502210093466ea9e6264e079bbd8688100482caaaa6ebade83ef85bbd773aad544c15a502202d53f506d18f45cd4c13d815b9076bf65e815e2e9ef6a778064b7c5cedab38e4[ALL] 030c6226f7e93f8dec3539a06a4449d1914ff66d56fd130a40588b9dc75e1cd7cb"}, "vout": 0, "txid": "13d90b900ec74f217bd8204c081a437aa94aec3166c15871ea3f03927fadd3df"}], "txid": "392adac95a3489c504f2ee11ae608269c06da6b0e76aaeb20445a8bfbafa40da", "blocktime": 1537871767, "version": 1, "confirmations": 11490, "time": 1537871767, "locktime": 0, "vsize": 224, "size": 224}