{"hash": "e5d283ceee35c32814e57a6a84001e0aab73f4a69cc29456c93cc884845ea892", "blockhash": "0000000000000000001e0dab787dd257d1dbfcb92a98c2207d5e1078be1f4165", "vout": [{"scriptPubKey": {"reqSigs": 1, "hex": "a9147217eaf2851c964b59c751a51f6304c6f5db74b587", "addresses": ["3C6HcFKdMFi72qCgqU696kcX2zQvSx1dHY"], "asm": "OP_HASH160 7217eaf2851c964b59c751a51f6304c6f5db74b5 OP_EQUAL", "type": "scripthash"}, "value": 0.00286912, "n": 0}, {"scriptPubKey": {"reqSigs": 1, "hex": "a9147d2237654968b827c7c14e1856dbfea73fbaaaf787", "addresses": ["3D6fNvFdwfDrMrnm4qr2C3Qcc2jZpAqw3v"], "asm": "OP_HASH160 7d2237654968b827c7c14e1856dbfea73fbaaaf7 OP_EQUAL", "type": "scripthash"}, "value": 0.00195567, "n": 1}], "hex": "010000000001011f8174c02885ff42f9853178d8d7215c53f91998e2c1fe1dfe0284624a196e2e0100000023220020d51dc4813088c213ece118bbd666d9f13800299f1d97c68301d53ef7fd14b5c7ffffffff02c06004000000000017a9147217eaf2851c964b59c751a51f6304c6f5db74b587effb02000000000017a9147d2237654968b827c7c14e1856dbfea73fbaaaf7870400483045022100d46b89c65ac97104d818d7ff7513081f720ee33bbb5e30a71142d99ce16fc5920220374b59b9ea18b9f85fe317924ee7be6e8509d4e1e46e2e0a01b450be61b004b60147304402206503060bf0a5f8afdaa92607e5622912bb42d7c09b12d9e223f237dd7c6d41e002200778c85e7d005750df6bed88f343929b70eda946d75762a9cd771133b8f012320147522103d146a15495f9ebf4d2c6159d441ba7f7821839281cc1205276cbfad21ff39fcb210292d679353fa4a760eaad69284c09d063a1fd1a15ad8c70e83dbf86f7063f8c1852ae00000000", "vin": [{"txinwitness": ["", "3045022100d46b89c65ac97104d818d7ff7513081f720ee33bbb5e30a71142d99ce16fc5920220374b59b9ea18b9f85fe317924ee7be6e8509d4e1e46e2e0a01b450be61b004b601", "304402206503060bf0a5f8afdaa92607e5622912bb42d7c09b12d9e223f237dd7c6d41e002200778c85e7d005750df6bed88f343929b70eda946d75762a9cd771133b8f0123201", "522103d146a15495f9ebf4d2c6159d441ba7f7821839281cc1205276cbfad21ff39fcb210292d679353fa4a760eaad69284c09d063a1fd1a15ad8c70e83dbf86f7063f8c1852ae"], "sequence": 4294967295, "scriptSig": {"hex": "220020d51dc4813088c213ece118bbd666d9f13800299f1d97c68301d53ef7fd14b5c7", "asm": "0020d51dc4813088c213ece118bbd666d9f13800299f1d97c68301d53ef7fd14b5c7"}, "vout": 1, "txid": "2e6e194a628402fe1dfec1e29819f9535c21d7d8783185f942ff8528c074811f"}], "txid": "392db3b47c82efc65e1d8fa962879c371cf6c86ac9b04bcc0419d0f5a8d22815", "blocktime": 1537872475, "version": 1, "confirmations": 11486, "time": 1537872475, "locktime": 0, "vsize": 206, "size": 371}