{"hash": "3930f54b9b5a6e299655d669e4fdb1a9183d0b5b87d85748ae01bf04a4d1cffb", "blockhash": "0000000000000000000dcc0f55137456b1a82d3642486a52398922ac4d620174", "vout": [{"scriptPubKey": {"reqSigs": 1, "hex": "76a914db8f09603cd715984a61fbf13af37403fb82906788ac", "addresses": ["1M1vLNSwEvSkyoXXQCrdbVGWTBrDFG84fG"], "asm": "OP_DUP OP_HASH160 db8f09603cd715984a61fbf13af37403fb829067 OP_EQUALVERIFY OP_CHECKSIG", "type": "pubkeyhash"}, "value": 0.00133314, "n": 0}, {"scriptPubKey": {"reqSigs": 1, "hex": "76a914896cb6971719512a06013bb1de0c2f83eef3567888ac", "addresses": ["1DXdoowX8RqdG6QAQWf4biS1vvVcvgZXjm"], "asm": "OP_DUP OP_HASH160 896cb6971719512a06013bb1de0c2f83eef35678 OP_EQUALVERIFY OP_CHECKSIG", "type": "pubkeyhash"}, "value": 0.0031168, "n": 1}], "hex": "0100000001cdeeb02c2c78c43285d19324284837591f4e0e06ce7cce783c991f31db5f6c0c010000006a473044022061ab6e9ea4969009f33fb1286597be05b484e44d7c23ecfb42c0e2555afaf136022059f5226e981cdfa18e9192995447c8d3d49b866c9e6911d1f1c23d768847a0cf0121031937c33ca52c3afa7b40ed3b3eaef4edfd73f03ca5785947fdf7c8cca2615445ffffffff02c2080200000000001976a914db8f09603cd715984a61fbf13af37403fb82906788ac80c10400000000001976a914896cb6971719512a06013bb1de0c2f83eef3567888ac00000000", "vin": [{"sequence": 4294967295, "scriptSig": {"hex": "473044022061ab6e9ea4969009f33fb1286597be05b484e44d7c23ecfb42c0e2555afaf136022059f5226e981cdfa18e9192995447c8d3d49b866c9e6911d1f1c23d768847a0cf0121031937c33ca52c3afa7b40ed3b3eaef4edfd73f03ca5785947fdf7c8cca2615445", "asm": "3044022061ab6e9ea4969009f33fb1286597be05b484e44d7c23ecfb42c0e2555afaf136022059f5226e981cdfa18e9192995447c8d3d49b866c9e6911d1f1c23d768847a0cf[ALL] 031937c33ca52c3afa7b40ed3b3eaef4edfd73f03ca5785947fdf7c8cca2615445"}, "vout": 1, "txid": "0c6c5fdb311f993c78ce7cce060e4e1f593748282493d18532c4782c2cb0eecd"}], "txid": "3930f54b9b5a6e299655d669e4fdb1a9183d0b5b87d85748ae01bf04a4d1cffb", "blocktime": 1537870268, "version": 1, "confirmations": 11518, "time": 1537870268, "locktime": 0, "vsize": 225, "size": 225}