{"hash": "39302d8a1db3c0bccaf4a45e245a9293ed8e674c62a30e3a161e89172e46d17a", "blockhash": "0000000000000000000e13cef7c366c0283d82e591d1acd082e914b08063cdf1", "vout": [{"scriptPubKey": {"reqSigs": 1, "hex": "76a914a3fc46921ea775485030f177dd7a2076fb60701a88ac", "addresses": ["1Fx5MgxomdNDRv3Yp3rUhYr8ehf1qpgz99"], "asm": "OP_DUP OP_HASH160 a3fc46921ea775485030f177dd7a2076fb60701a OP_EQUALVERIFY OP_CHECKSIG", "type": "pubkeyhash"}, "value": 0.26809505, "n": 0}], "hex": "0100000007cf86170af97caba4df413e3cf54613bda6d78bc688a5e02a8acd0a7c477282711c0000006b483045022100e6ae833ea733e3c21195216f6a022edbfcb86140783b179294af5e0025c35260022033bbe0e467837a5ce6dd001aef78b8a9d681a56abe4bfb21e886b30e8cf6dfcd012102bf7e3a85dbec7aa5d4c1d9c55e1577f8827702ec1ae1753eb11ecb345c163ed3ffffffffa8b14a74155b9e8bf65c5df3ca97aa3f84fcf1d3063a9113c16b81740a61659c150000006a473044022031b2a517837585a52b9af36e137ced669aeb6dddbcd830b38856c72643be50f902204595fd07c8066e0b4523489e684673a2220a3d1f32cde54ae7d2741a715fbd77012102bf7e3a85dbec7aa5d4c1d9c55e1577f8827702ec1ae1753eb11ecb345c163ed3ffffffffe5730166c3ba86388a01a92f634ae8a1ee6704decea156740c07775c122ad7a5160000006b483045022100a4b4db411902d15dc45acd141f8c502e093891c9d3ff076f80cbee764dd6bedb02201fb441682c348d50010ee7fa7e6e95034ec39d917c118475b6578ebf35006dfd012102bf7e3a85dbec7aa5d4c1d9c55e1577f8827702ec1ae1753eb11ecb345c163ed3fffffffffe15b03b17a4840640b29e536e6536fd52898ef0c90b6dc02ba72c203e4eaaaf190000006b483045022100d50472f05240547bfe05c66ea180a4f8bc83d1337ac536bec19b29d62483611d02206ad24f579bf9e8bb8a684c10795e64be3249d6154b5f239e8e8d92aca6d22f23012102bf7e3a85dbec7aa5d4c1d9c55e1577f8827702ec1ae1753eb11ecb345c163ed3ffffffff3810c908de2c3f7834e7a6306d756d8e80e2366a682886d1405179714e7e03d8180000006b483045022100d55753fee6c2231c07d8153f88499879f96534410e9561d352e11e9ccd43178102202777806dfd6595e3dae246cc1289684bbaa3d3a63cd07e50499ce97600dbecdf012102bf7e3a85dbec7aa5d4c1d9c55e1577f8827702ec1ae1753eb11ecb345c163ed3ffffffff4afa434885d6a4329dabc5c451e78d44f8fe7a14e2ba65d08ee85418a381d7e4200000006a4730440220500854fd2e56cb3675712ea418128091c41fdefd55bf1b3cf5d1d3b4e850b38602205f76d58eedb38e54d7fe6a0339e05f663060c7d2123ee15db3b38e43b199c3e2012102bf7e3a85dbec7aa5d4c1d9c55e1577f8827702ec1ae1753eb11ecb345c163ed3ffffffff946a49fe489b6d6e0ff2c904af1de76552f55c024184389debc55d71d077a3f51d0000006a47304402205dd7924faabc1ea89bd7d480b200e7463bd4dccd2ae9bed6bb3b81db0ef753f302202cd2aa12084939e2fe42d5dbae063ad1241f72247974bda08c0e23475a2b2919012102bf7e3a85dbec7aa5d4c1d9c55e1577f8827702ec1ae1753eb11ecb345c163ed3ffffffff01a1149901000000001976a914a3fc46921ea775485030f177dd7a2076fb60701a88ac00000000", "vin": [{"sequence": 4294967295, "scriptSig": {"hex": "483045022100e6ae833ea733e3c21195216f6a022edbfcb86140783b179294af5e0025c35260022033bbe0e467837a5ce6dd001aef78b8a9d681a56abe4bfb21e886b30e8cf6dfcd012102bf7e3a85dbec7aa5d4c1d9c55e1577f8827702ec1ae1753eb11ecb345c163ed3", "asm": "3045022100e6ae833ea733e3c21195216f6a022edbfcb86140783b179294af5e0025c35260022033bbe0e467837a5ce6dd001aef78b8a9d681a56abe4bfb21e886b30e8cf6dfcd[ALL] 02bf7e3a85dbec7aa5d4c1d9c55e1577f8827702ec1ae1753eb11ecb345c163ed3"}, "vout": 28, "txid": "718272477c0acd8a2ae0a588c68bd7a6bd1346f53c3e41dfa4ab7cf90a1786cf"}, {"sequence": 4294967295, "scriptSig": {"hex": "473044022031b2a517837585a52b9af36e137ced669aeb6dddbcd830b38856c72643be50f902204595fd07c8066e0b4523489e684673a2220a3d1f32cde54ae7d2741a715fbd77012102bf7e3a85dbec7aa5d4c1d9c55e1577f8827702ec1ae1753eb11ecb345c163ed3", "asm": "3044022031b2a517837585a52b9af36e137ced669aeb6dddbcd830b38856c72643be50f902204595fd07c8066e0b4523489e684673a2220a3d1f32cde54ae7d2741a715fbd77[ALL] 02bf7e3a85dbec7aa5d4c1d9c55e1577f8827702ec1ae1753eb11ecb345c163ed3"}, "vout": 21, "txid": "9c65610a74816bc113913a06d3f1fc843faa97caf35d5cf68b9e5b15744ab1a8"}, {"sequence": 4294967295, "scriptSig": {"hex": "483045022100a4b4db411902d15dc45acd141f8c502e093891c9d3ff076f80cbee764dd6bedb02201fb441682c348d50010ee7fa7e6e95034ec39d917c118475b6578ebf35006dfd012102bf7e3a85dbec7aa5d4c1d9c55e1577f8827702ec1ae1753eb11ecb345c163ed3", "asm": "3045022100a4b4db411902d15dc45acd141f8c502e093891c9d3ff076f80cbee764dd6bedb02201fb441682c348d50010ee7fa7e6e95034ec39d917c118475b6578ebf35006dfd[ALL] 02bf7e3a85dbec7aa5d4c1d9c55e1577f8827702ec1ae1753eb11ecb345c163ed3"}, "vout": 22, "txid": "a5d72a125c77070c7456a1cede0467eea1e84a632fa9018a3886bac3660173e5"}, {"sequence": 4294967295, "scriptSig": {"hex": "483045022100d50472f05240547bfe05c66ea180a4f8bc83d1337ac536bec19b29d62483611d02206ad24f579bf9e8bb8a684c10795e64be3249d6154b5f239e8e8d92aca6d22f23012102bf7e3a85dbec7aa5d4c1d9c55e1577f8827702ec1ae1753eb11ecb345c163ed3", "asm": "3045022100d50472f05240547bfe05c66ea180a4f8bc83d1337ac536bec19b29d62483611d02206ad24f579bf9e8bb8a684c10795e64be3249d6154b5f239e8e8d92aca6d22f23[ALL] 02bf7e3a85dbec7aa5d4c1d9c55e1577f8827702ec1ae1753eb11ecb345c163ed3"}, "vout": 25, "txid": "afaa4e3e202ca72bc06d0bc9f08e8952fd36656e539eb2400684a4173bb015fe"}, {"sequence": 4294967295, "scriptSig": {"hex": "483045022100d55753fee6c2231c07d8153f88499879f96534410e9561d352e11e9ccd43178102202777806dfd6595e3dae246cc1289684bbaa3d3a63cd07e50499ce97600dbecdf012102bf7e3a85dbec7aa5d4c1d9c55e1577f8827702ec1ae1753eb11ecb345c163ed3", "asm": "3045022100d55753fee6c2231c07d8153f88499879f96534410e9561d352e11e9ccd43178102202777806dfd6595e3dae246cc1289684bbaa3d3a63cd07e50499ce97600dbecdf[ALL] 02bf7e3a85dbec7aa5d4c1d9c55e1577f8827702ec1ae1753eb11ecb345c163ed3"}, "vout": 24, "txid": "d8037e4e71795140d18628686a36e2808e6d756d30a6e734783f2cde08c91038"}, {"sequence": 4294967295, "scriptSig": {"hex": "4730440220500854fd2e56cb3675712ea418128091c41fdefd55bf1b3cf5d1d3b4e850b38602205f76d58eedb38e54d7fe6a0339e05f663060c7d2123ee15db3b38e43b199c3e2012102bf7e3a85dbec7aa5d4c1d9c55e1577f8827702ec1ae1753eb11ecb345c163ed3", "asm": "30440220500854fd2e56cb3675712ea418128091c41fdefd55bf1b3cf5d1d3b4e850b38602205f76d58eedb38e54d7fe6a0339e05f663060c7d2123ee15db3b38e43b199c3e2[ALL] 02bf7e3a85dbec7aa5d4c1d9c55e1577f8827702ec1ae1753eb11ecb345c163ed3"}, "vout": 32, "txid": "e4d781a31854e88ed065bae2147afef8448de751c4c5ab9d32a4d6854843fa4a"}, {"sequence": 4294967295, "scriptSig": {"hex": "47304402205dd7924faabc1ea89bd7d480b200e7463bd4dccd2ae9bed6bb3b81db0ef753f302202cd2aa12084939e2fe42d5dbae063ad1241f72247974bda08c0e23475a2b2919012102bf7e3a85dbec7aa5d4c1d9c55e1577f8827702ec1ae1753eb11ecb345c163ed3", "asm": "304402205dd7924faabc1ea89bd7d480b200e7463bd4dccd2ae9bed6bb3b81db0ef753f302202cd2aa12084939e2fe42d5dbae063ad1241f72247974bda08c0e23475a2b2919[ALL] 02bf7e3a85dbec7aa5d4c1d9c55e1577f8827702ec1ae1753eb11ecb345c163ed3"}, "vout": 29, "txid": "f5a377d0715dc5eb9d388441025cf55265e71daf04c9f20f6e6d9b48fe496a94"}], "txid": "39302d8a1db3c0bccaf4a45e245a9293ed8e674c62a30e3a161e89172e46d17a", "blocktime": 1537871767, "version": 1, "confirmations": 11492, "time": 1537871767, "locktime": 0, "vsize": 1077, "size": 1077}