{"hash": "637b4c7968d82eaa62d467421909285616f5e328045983b36a242f035a9ee61c", "blockhash": "0000000000000000000baef3f32e3676a92c3b2e5da21b426e4f302fc371ce76", "vout": [{"scriptPubKey": {"reqSigs": 1, "hex": "76a9145ec70ec9f554d7af29aee2a4cc270556f876abc188ac", "addresses": ["19e8yotDhVyDxjCqQ8DkxtyvdpCfBh9chT"], "asm": "OP_DUP OP_HASH160 5ec70ec9f554d7af29aee2a4cc270556f876abc1 OP_EQUALVERIFY OP_CHECKSIG", "type": "pubkeyhash"}, "value": 0.00415539, "n": 0}, {"scriptPubKey": {"reqSigs": 1, "hex": "a9140136c10502ae5684e49b302f1af10f145f74b6b787", "addresses": ["31oSC7GvQMTZoouyNLBEHVRDhXEFbVhSmh"], "asm": "OP_HASH160 0136c10502ae5684e49b302f1af10f145f74b6b7 OP_EQUAL", "type": "scripthash"}, "value": 0.0388985, "n": 1}], "hex": "010000000001016f53c27fd0ec9f745356cb32f0ed0e408e1c3bc489f29188b8a776ef932365840100000023220020efd02f10cc1074c68ec89b458572a71ce6bfc8a17595d8fde80232e47279444bffffffff0233570600000000001976a9145ec70ec9f554d7af29aee2a4cc270556f876abc188acba5a3b000000000017a9140136c10502ae5684e49b302f1af10f145f74b6b787040047304402203ed2a4704034662a3666396e9b217a6b8276bda46145d28794e77a9d6a0b441802206b11aeda59c49c75dd158d8f3ac884d5cb4dccd322312b69e811680595466ed7014730440220314c15c01eed1ee5be8970c9c117e7700bbd0ab8e5ca43ed3d6885389cc489a1022042be8584845f78eee67e591308fead59b0926a80c89cc01e41f8ddc0b9ae62290147522103f985ea61f461801f3abc09ebed98ce7e20804639a64616f639f492883ea4e8d62103871fc2ca08e6950b38867e8e6a0e94ee625223d3aa0df5c65f414c6d784467e252ae00000000", "vin": [{"txinwitness": ["", "304402203ed2a4704034662a3666396e9b217a6b8276bda46145d28794e77a9d6a0b441802206b11aeda59c49c75dd158d8f3ac884d5cb4dccd322312b69e811680595466ed701", "30440220314c15c01eed1ee5be8970c9c117e7700bbd0ab8e5ca43ed3d6885389cc489a1022042be8584845f78eee67e591308fead59b0926a80c89cc01e41f8ddc0b9ae622901", "522103f985ea61f461801f3abc09ebed98ce7e20804639a64616f639f492883ea4e8d62103871fc2ca08e6950b38867e8e6a0e94ee625223d3aa0df5c65f414c6d784467e252ae"], "sequence": 4294967295, "scriptSig": {"hex": "220020efd02f10cc1074c68ec89b458572a71ce6bfc8a17595d8fde80232e47279444b", "asm": "0020efd02f10cc1074c68ec89b458572a71ce6bfc8a17595d8fde80232e47279444b"}, "vout": 1, "txid": "84652393ef76a7b88891f289c43b1c8e400eedf032cb5653749fecd07fc2536f"}], "txid": "393529786ea9adb8df8bc90bb73188e3ed601b665e476a54056b94a33e0b81d9", "blocktime": 1537876114, "version": 1, "confirmations": 11460, "time": 1537876114, "locktime": 0, "vsize": 207, "size": 372}