{"hash": "7c7ce9b94b8fba749d93ed7bf05c8b0cce5f1fe23b69bb2e61089ef0d9808d27", "blockhash": "00000000000000000004ffacab907a6b429b9a5745fa0b75af4234bf69dd7176", "vout": [{"scriptPubKey": {"reqSigs": 1, "hex": "76a914f3a80c202e4d5aec828aa9fe611e98b6ab7db35488ac", "addresses": ["1PDLWkXcqGHebc4dRsaoibUDUfN8p7GiQ6"], "asm": "OP_DUP OP_HASH160 f3a80c202e4d5aec828aa9fe611e98b6ab7db354 OP_EQUALVERIFY OP_CHECKSIG", "type": "pubkeyhash"}, "value": 0.010875, "n": 0}, {"scriptPubKey": {"reqSigs": 1, "hex": "a91418000547259a18cd97a252f89da8eb130e183d8587", "addresses": ["33svAabwYvH3qguRvhu7RtUuaHbk41cW4J"], "asm": "OP_HASH160 18000547259a18cd97a252f89da8eb130e183d85 OP_EQUAL", "type": "scripthash"}, "value": 0.041508, "n": 1}], "hex": "020000000001018bab6becea5345050b4effe607f3fe29aa7b183a1460918fa584d43ff653aaab0100000017160014e27dddae60c97c040edbd0369d06d680d8e8eb76fdffffff020c981000000000001976a914f3a80c202e4d5aec828aa9fe611e98b6ab7db35488ac10563f000000000017a91418000547259a18cd97a252f89da8eb130e183d858702483045022100fdbe50929d6153ef465bf1f4e375da6f45db7bc969b9a8e3854ef6a3001c41c0022027c025d808ef845a1bf3449d64b9268758125af1d5f3fb9edd22f07bab84cb89012103ca62f328900aa1fd05674d0368e8a2b22f1075d5fceb31cf25b18c5acac54fcb16490800", "vin": [{"txinwitness": ["3045022100fdbe50929d6153ef465bf1f4e375da6f45db7bc969b9a8e3854ef6a3001c41c0022027c025d808ef845a1bf3449d64b9268758125af1d5f3fb9edd22f07bab84cb8901", "03ca62f328900aa1fd05674d0368e8a2b22f1075d5fceb31cf25b18c5acac54fcb"], "sequence": 4294967293, "scriptSig": {"hex": "160014e27dddae60c97c040edbd0369d06d680d8e8eb76", "asm": "0014e27dddae60c97c040edbd0369d06d680d8e8eb76"}, "vout": 1, "txid": "abaa53f63fd484a58f9160143a187baa29fef307e6ff4e0b054553eaec6bab8b"}], "txid": "393f3ecdbb4ddb3b9ac985ffed7544432d850edbdcd3d1f59aa3158319661695", "blocktime": 1537875543, "version": 2, "confirmations": 11464, "time": 1537875543, "locktime": 542998, "vsize": 168, "size": 250}