{"hash": "3942f2309694ab4551f3440cadf8204c231c8af0ad4c503b840aae78e006723a", "blockhash": "0000000000000000001f76057863aec43deb6fa401d9628bb513d65a8098bfab", "vout": [{"scriptPubKey": {"reqSigs": 1, "hex": "a91455a8f8760332a6205ecd6df0a022ac9bc41fb0e887", "addresses": ["39Vwn8SHyduoJT3KxdB2rTcZDiybLbwS49"], "asm": "OP_HASH160 55a8f8760332a6205ecd6df0a022ac9bc41fb0e8 OP_EQUAL", "type": "scripthash"}, "value": 0.00549425, "n": 0}], "hex": "01000000046d9bd51a7c388159cfee135018be2596b3c172d349e5793cce5f6249c214604c3e010000fc00473044022037f1519ad655590171b9c2da58a1726c698934e6d8e09a7b839913bba346ba0702201a208337018606a0b8fec97a432d28ebffdfc3b2cefadff2686559e73f5d696101473044022027e9b70c9cb093e4bff344af1afabdbf468dce7475b8e36e3341d52e2570749602206d8cf4c7fb8932a770950a5e6e0b7510599d7d0e980c3cb7145c3a7cea8e7f2b014c69522102845ad242ad5818353f864527c0545ae69af30cd2d306152af878cc57c225061b210285d7badc0f63923b3d9a7f92f92654d826a2e00b684e8a57db1c1fb525a52cc12103d2b9fc64cbef527cfe6adc0df508bbc193ec1717a5e90fa0af9051db4fb6f79d53aeffffffff6ad9353dc46fa65da1a4a9ef9c230537d7e1fb6d97a2565f56a65628cfe28653d7000000fdfd0000473044022044ddd83a629d54f11e4edac8f8042d4699b164cfe3f0ad842a774ef12ebda6fa022015cf8bd3764fc7db8b5a2975401c9ed35a74730a0fcb56730a3b752c84cd75dd01483045022100b8596fe72be1c88f5c05b61235ec9bce02c8aaddde784edab65f3093a4aa953402206d248039e480f00babe6abcb275a2b9c8286ed9c82321d57f2391fef78f6f159014c69522102845ad242ad5818353f864527c0545ae69af30cd2d306152af878cc57c225061b210285d7badc0f63923b3d9a7f92f92654d826a2e00b684e8a57db1c1fb525a52cc12103d2b9fc64cbef527cfe6adc0df508bbc193ec1717a5e90fa0af9051db4fb6f79d53aeffffffff11aa11802cbb0b05017af3c78f41f1a097abfc601ecc8e8280db2f300ebab6701c010000fdfd000047304402207203da3f4edf926d34a276270032a2d690201f13e5f6f9be7892dcb8640987af02207fe94990bff5d1cd18f6b929152867acdbdd7f65a5cea5298aadbe2c07e543c201483045022100e8758544ddfe4844beef1b3eb1e131e4fc0ebde04c5c1c5b21089da98d914c240220081e9c136a098c13362ba015972c552c1b60fdc53340c3867a178f6f0b10af06014c69522102845ad242ad5818353f864527c0545ae69af30cd2d306152af878cc57c225061b210285d7badc0f63923b3d9a7f92f92654d826a2e00b684e8a57db1c1fb525a52cc12103d2b9fc64cbef527cfe6adc0df508bbc193ec1717a5e90fa0af9051db4fb6f79d53aeffffffff676862497b7bf4bc25c1bbaa3742f8811f35a7ad4bcd5fa4b58f700f2e556d8cd4000000fdfd000048304502210096904672d7474549384afd8bfc00b61e8afa4e0e1d5cc9511a3b314818ba63b802203aec70fa842ef2ffd577b0bdcfdd08e0136053285a7ca4c830c0c1ebd2e7b4bf0147304402204d3d86873aa8e7dfb9160009c223a227feaccee2758b939250047cf344ebe01602206f934336ec70eafc25a27181c86f67a9806b13ca60cb22773f8e65e8a364e664014c69522102845ad242ad5818353f864527c0545ae69af30cd2d306152af878cc57c225061b210285d7badc0f63923b3d9a7f92f92654d826a2e00b684e8a57db1c1fb525a52cc12103d2b9fc64cbef527cfe6adc0df508bbc193ec1717a5e90fa0af9051db4fb6f79d53aeffffffff01316208000000000017a91455a8f8760332a6205ecd6df0a022ac9bc41fb0e88700000000", "vin": [{"sequence": 4294967295, "scriptSig": {"hex": "00473044022037f1519ad655590171b9c2da58a1726c698934e6d8e09a7b839913bba346ba0702201a208337018606a0b8fec97a432d28ebffdfc3b2cefadff2686559e73f5d696101473044022027e9b70c9cb093e4bff344af1afabdbf468dce7475b8e36e3341d52e2570749602206d8cf4c7fb8932a770950a5e6e0b7510599d7d0e980c3cb7145c3a7cea8e7f2b014c69522102845ad242ad5818353f864527c0545ae69af30cd2d306152af878cc57c225061b210285d7badc0f63923b3d9a7f92f92654d826a2e00b684e8a57db1c1fb525a52cc12103d2b9fc64cbef527cfe6adc0df508bbc193ec1717a5e90fa0af9051db4fb6f79d53ae", "asm": "0 3044022037f1519ad655590171b9c2da58a1726c698934e6d8e09a7b839913bba346ba0702201a208337018606a0b8fec97a432d28ebffdfc3b2cefadff2686559e73f5d6961[ALL] 3044022027e9b70c9cb093e4bff344af1afabdbf468dce7475b8e36e3341d52e2570749602206d8cf4c7fb8932a770950a5e6e0b7510599d7d0e980c3cb7145c3a7cea8e7f2b[ALL] 522102845ad242ad5818353f864527c0545ae69af30cd2d306152af878cc57c225061b210285d7badc0f63923b3d9a7f92f92654d826a2e00b684e8a57db1c1fb525a52cc12103d2b9fc64cbef527cfe6adc0df508bbc193ec1717a5e90fa0af9051db4fb6f79d53ae"}, "vout": 318, "txid": "4c6014c249625fce3c79e549d372c1b39625be185013eecf5981387c1ad59b6d"}, {"sequence": 4294967295, "scriptSig": {"hex": "00473044022044ddd83a629d54f11e4edac8f8042d4699b164cfe3f0ad842a774ef12ebda6fa022015cf8bd3764fc7db8b5a2975401c9ed35a74730a0fcb56730a3b752c84cd75dd01483045022100b8596fe72be1c88f5c05b61235ec9bce02c8aaddde784edab65f3093a4aa953402206d248039e480f00babe6abcb275a2b9c8286ed9c82321d57f2391fef78f6f159014c69522102845ad242ad5818353f864527c0545ae69af30cd2d306152af878cc57c225061b210285d7badc0f63923b3d9a7f92f92654d826a2e00b684e8a57db1c1fb525a52cc12103d2b9fc64cbef527cfe6adc0df508bbc193ec1717a5e90fa0af9051db4fb6f79d53ae", "asm": "0 3044022044ddd83a629d54f11e4edac8f8042d4699b164cfe3f0ad842a774ef12ebda6fa022015cf8bd3764fc7db8b5a2975401c9ed35a74730a0fcb56730a3b752c84cd75dd[ALL] 3045022100b8596fe72be1c88f5c05b61235ec9bce02c8aaddde784edab65f3093a4aa953402206d248039e480f00babe6abcb275a2b9c8286ed9c82321d57f2391fef78f6f159[ALL] 522102845ad242ad5818353f864527c0545ae69af30cd2d306152af878cc57c225061b210285d7badc0f63923b3d9a7f92f92654d826a2e00b684e8a57db1c1fb525a52cc12103d2b9fc64cbef527cfe6adc0df508bbc193ec1717a5e90fa0af9051db4fb6f79d53ae"}, "vout": 215, "txid": "5386e2cf2856a6565f56a2976dfbe1d73705239cefa9a4a15da66fc43d35d96a"}, {"sequence": 4294967295, "scriptSig": {"hex": "0047304402207203da3f4edf926d34a276270032a2d690201f13e5f6f9be7892dcb8640987af02207fe94990bff5d1cd18f6b929152867acdbdd7f65a5cea5298aadbe2c07e543c201483045022100e8758544ddfe4844beef1b3eb1e131e4fc0ebde04c5c1c5b21089da98d914c240220081e9c136a098c13362ba015972c552c1b60fdc53340c3867a178f6f0b10af06014c69522102845ad242ad5818353f864527c0545ae69af30cd2d306152af878cc57c225061b210285d7badc0f63923b3d9a7f92f92654d826a2e00b684e8a57db1c1fb525a52cc12103d2b9fc64cbef527cfe6adc0df508bbc193ec1717a5e90fa0af9051db4fb6f79d53ae", "asm": "0 304402207203da3f4edf926d34a276270032a2d690201f13e5f6f9be7892dcb8640987af02207fe94990bff5d1cd18f6b929152867acdbdd7f65a5cea5298aadbe2c07e543c2[ALL] 3045022100e8758544ddfe4844beef1b3eb1e131e4fc0ebde04c5c1c5b21089da98d914c240220081e9c136a098c13362ba015972c552c1b60fdc53340c3867a178f6f0b10af06[ALL] 522102845ad242ad5818353f864527c0545ae69af30cd2d306152af878cc57c225061b210285d7badc0f63923b3d9a7f92f92654d826a2e00b684e8a57db1c1fb525a52cc12103d2b9fc64cbef527cfe6adc0df508bbc193ec1717a5e90fa0af9051db4fb6f79d53ae"}, "vout": 284, "txid": "70b6ba0e302fdb80828ecc1e60fcab97a0f1418fc7f37a01050bbb2c8011aa11"}, {"sequence": 4294967295, "scriptSig": {"hex": "0048304502210096904672d7474549384afd8bfc00b61e8afa4e0e1d5cc9511a3b314818ba63b802203aec70fa842ef2ffd577b0bdcfdd08e0136053285a7ca4c830c0c1ebd2e7b4bf0147304402204d3d86873aa8e7dfb9160009c223a227feaccee2758b939250047cf344ebe01602206f934336ec70eafc25a27181c86f67a9806b13ca60cb22773f8e65e8a364e664014c69522102845ad242ad5818353f864527c0545ae69af30cd2d306152af878cc57c225061b210285d7badc0f63923b3d9a7f92f92654d826a2e00b684e8a57db1c1fb525a52cc12103d2b9fc64cbef527cfe6adc0df508bbc193ec1717a5e90fa0af9051db4fb6f79d53ae", "asm": "0 304502210096904672d7474549384afd8bfc00b61e8afa4e0e1d5cc9511a3b314818ba63b802203aec70fa842ef2ffd577b0bdcfdd08e0136053285a7ca4c830c0c1ebd2e7b4bf[ALL] 304402204d3d86873aa8e7dfb9160009c223a227feaccee2758b939250047cf344ebe01602206f934336ec70eafc25a27181c86f67a9806b13ca60cb22773f8e65e8a364e664[ALL] 522102845ad242ad5818353f864527c0545ae69af30cd2d306152af878cc57c225061b210285d7badc0f63923b3d9a7f92f92654d826a2e00b684e8a57db1c1fb525a52cc12103d2b9fc64cbef527cfe6adc0df508bbc193ec1717a5e90fa0af9051db4fb6f79d53ae"}, "vout": 212, "txid": "8c6d552e0f708fb5a45fcd4bada7351f81f84237aabbc125bcf47b7b49626867"}], "txid": "3942f2309694ab4551f3440cadf8204c231c8af0ad4c503b840aae78e006723a", "blocktime": 1537873891, "version": 1, "confirmations": 11475, "time": 1537873891, "locktime": 0, "vsize": 1223, "size": 1223}