{"hash": "3943c09009f913852cea4f1502c6466f39994933594b03baa6680dbf63750094", "blockhash": "0000000000000000001cda96e906b7601b7a6fb1a3b62bca570a9e5d8f4b3de1", "vout": [{"scriptPubKey": {"reqSigs": 1, "hex": "76a91455be8e6059ab20be7ed4696b7230eb1df95f4caf88ac", "addresses": ["18pNiP1m237WBA9FnbhkFuJk9mKiAPuEuD"], "asm": "OP_DUP OP_HASH160 55be8e6059ab20be7ed4696b7230eb1df95f4caf OP_EQUALVERIFY OP_CHECKSIG", "type": "pubkeyhash"}, "value": 0.00611386, "n": 0}, {"scriptPubKey": {"reqSigs": 1, "hex": "76a9149de6d050eeb5122507ba944c488e272a6403c35c88ac", "addresses": ["1FPubLY6d7uMCRf1nq29n4PXyZt2hPKj8k"], "asm": "OP_DUP OP_HASH160 9de6d050eeb5122507ba944c488e272a6403c35c OP_EQUALVERIFY OP_CHECKSIG", "type": "pubkeyhash"}, "value": 0.00139184, "n": 1}], "hex": "010000000198a1672c57f410c2c31a7b361a602aaa55406a9355869573832eef53b2ff5b3500000000db00483045022100a6c728f19ae6da04f5012ee88843be18afdcdfd506e2dd83fca93ec09f798955022007bfecd683db19344fa546d92e85905dbb81c3e2d6464b8b3162e1d5c08eaad401483045022100d9c7e0efee98e32590d11827dd313df3bfabd4f53291ad6bb00cd14a9e2536d402203f2ee59825472598b5f7894ac2dcdec5f7e4baae90a251296e7ae05e1d284b60014752210209b5a60115d94e6f026eb9cf5202980950fec4f8d2338139194611d600dd5a142102907a54bed8ad74b3f35638c60114ca240a308cb986f3f2f306178869a8880b6152aeffffffff023a540900000000001976a91455be8e6059ab20be7ed4696b7230eb1df95f4caf88acb01f0200000000001976a9149de6d050eeb5122507ba944c488e272a6403c35c88ac00000000", "vin": [{"sequence": 4294967295, "scriptSig": {"hex": "00483045022100a6c728f19ae6da04f5012ee88843be18afdcdfd506e2dd83fca93ec09f798955022007bfecd683db19344fa546d92e85905dbb81c3e2d6464b8b3162e1d5c08eaad401483045022100d9c7e0efee98e32590d11827dd313df3bfabd4f53291ad6bb00cd14a9e2536d402203f2ee59825472598b5f7894ac2dcdec5f7e4baae90a251296e7ae05e1d284b60014752210209b5a60115d94e6f026eb9cf5202980950fec4f8d2338139194611d600dd5a142102907a54bed8ad74b3f35638c60114ca240a308cb986f3f2f306178869a8880b6152ae", "asm": "0 3045022100a6c728f19ae6da04f5012ee88843be18afdcdfd506e2dd83fca93ec09f798955022007bfecd683db19344fa546d92e85905dbb81c3e2d6464b8b3162e1d5c08eaad4[ALL] 3045022100d9c7e0efee98e32590d11827dd313df3bfabd4f53291ad6bb00cd14a9e2536d402203f2ee59825472598b5f7894ac2dcdec5f7e4baae90a251296e7ae05e1d284b60[ALL] 52210209b5a60115d94e6f026eb9cf5202980950fec4f8d2338139194611d600dd5a142102907a54bed8ad74b3f35638c60114ca240a308cb986f3f2f306178869a8880b6152ae"}, "vout": 0, "txid": "355bffb253ef2e8373958655936a4055aa2a601a367b1ac3c210f4572c67a198"}], "txid": "3943c09009f913852cea4f1502c6466f39994933594b03baa6680dbf63750094", "blocktime": 1537873282, "version": 1, "confirmations": 11484, "time": 1537873282, "locktime": 0, "vsize": 338, "size": 338}