{"hash": "3945868e18baa00a7b94e11fa8c32240582d0cb5bead6c82f66c5c99be8b3f5b", "blockhash": "0000000000000000000baef3f32e3676a92c3b2e5da21b426e4f302fc371ce76", "vout": [{"scriptPubKey": {"reqSigs": 1, "hex": "a914de6c7b1e0e01595f1e2c8def08230a102b2aed3287", "addresses": ["3My5tWwhrqcAWHinxRbPBUk8L7RNjoyY4F"], "asm": "OP_HASH160 de6c7b1e0e01595f1e2c8def08230a102b2aed32 OP_EQUAL", "type": "scripthash"}, "value": 0.00441027, "n": 0}, {"scriptPubKey": {"reqSigs": 1, "hex": "76a914d010430eaaf2aa56cdc1188abf9f0b80b142ffd388ac", "addresses": ["1Ky92oRE7AkCnjKU53KBoGvGqzFurJTmM1"], "asm": "OP_DUP OP_HASH160 d010430eaaf2aa56cdc1188abf9f0b80b142ffd3 OP_EQUALVERIFY OP_CHECKSIG", "type": "pubkeyhash"}, "value": 0.00446138, "n": 1}], "hex": "0100000001e10829db953a1e79671e973f9795d2efc8de1ee74981ad90f9370cd6aafada62000000006b483045022100b26bdb2b1e95704448c8ce34c77baa5a659026a40a9d4988bc5e9b5ac78bea20022041bbad062c0b338d7b0f7352844475fd0e2854d53bbf2e935e7bd4f9d4dcef60012102703a2b359bd85443195d5e6771ef0f30094aec5feee8aca29ccabb776865591bffffffff02c3ba06000000000017a914de6c7b1e0e01595f1e2c8def08230a102b2aed3287bace0600000000001976a914d010430eaaf2aa56cdc1188abf9f0b80b142ffd388ac00000000", "vin": [{"sequence": 4294967295, "scriptSig": {"hex": "483045022100b26bdb2b1e95704448c8ce34c77baa5a659026a40a9d4988bc5e9b5ac78bea20022041bbad062c0b338d7b0f7352844475fd0e2854d53bbf2e935e7bd4f9d4dcef60012102703a2b359bd85443195d5e6771ef0f30094aec5feee8aca29ccabb776865591b", "asm": "3045022100b26bdb2b1e95704448c8ce34c77baa5a659026a40a9d4988bc5e9b5ac78bea20022041bbad062c0b338d7b0f7352844475fd0e2854d53bbf2e935e7bd4f9d4dcef60[ALL] 02703a2b359bd85443195d5e6771ef0f30094aec5feee8aca29ccabb776865591b"}, "vout": 0, "txid": "62dafaaad60c37f990ad8149e71edec8efd295973f971e67791e3a95db2908e1"}], "txid": "3945868e18baa00a7b94e11fa8c32240582d0cb5bead6c82f66c5c99be8b3f5b", "blocktime": 1537876114, "version": 1, "confirmations": 11459, "time": 1537876114, "locktime": 0, "vsize": 224, "size": 224}