{"hash": "08b9a801ee7762f225af63de71538f630886a0502356dd7e744a55b4eb8c4a5f", "blockhash": "0000000000000000000dcc0f55137456b1a82d3642486a52398922ac4d620174", "vout": [{"scriptPubKey": {"reqSigs": 1, "hex": "76a914555785e1c0f39b5f8ae101c7cddba3d1f9b2510a88ac", "addresses": ["18nFHWVpakjfC9WXUA5qcGvEpWq67h6En7"], "asm": "OP_DUP OP_HASH160 555785e1c0f39b5f8ae101c7cddba3d1f9b2510a OP_EQUALVERIFY OP_CHECKSIG", "type": "pubkeyhash"}, "value": 0.0035216, "n": 0}, {"scriptPubKey": {"reqSigs": 1, "hex": "a914ad8709a9399c8193070f14e3d26be479f1f30e5f87", "addresses": ["3HWYbKLYDwUxp56e5GrETNtiyDt1Dz8Jqg"], "asm": "OP_HASH160 ad8709a9399c8193070f14e3d26be479f1f30e5f OP_EQUAL", "type": "scripthash"}, "value": 0.00999644, "n": 1}], "hex": "020000000001025fd9ee2dbc79f64051a20ca4f9298c10854a35b49e763b84476b1247773da91f010000001716001441a40be25ea76c15356b393b2a47f347fb75e1d8feffffffdacf7361a00a6d6f228c33164e06ec18191ec1a71bcdef26afb5db186ba657f60000000017160014705dc8c235250aa1c01a846ea437ae75c0ab0c5cfeffffff02a05f0500000000001976a914555785e1c0f39b5f8ae101c7cddba3d1f9b2510a88acdc400f000000000017a914ad8709a9399c8193070f14e3d26be479f1f30e5f8702473044022004ab6541d2e3ae20d3ec968b16198cb2377ade6f3fbe8e2194498f8a160550c3022044a04936ac5c6c2d8b7cb0c6e80b426510902826b33e78ff8150218b819a7645012103926669d5f86cf6d1667d6ef75a933a5ccdce38ddeaadaa9f6f8e017016dc405902483045022100e15da6b200f997b7f30ff2b922b51a532a2ee41defbfea298c569b13c6028e12022007c6cee9f13caa39dcac23c8b9f1f48a77dfac06052ab8a3e4d529f9d588c3f2012103c49cbfff28d1d92d36314708751d5c3b968192b0665231e7f560f8cd6e3c9ec10c490800", "vin": [{"txinwitness": ["3044022004ab6541d2e3ae20d3ec968b16198cb2377ade6f3fbe8e2194498f8a160550c3022044a04936ac5c6c2d8b7cb0c6e80b426510902826b33e78ff8150218b819a764501", "03926669d5f86cf6d1667d6ef75a933a5ccdce38ddeaadaa9f6f8e017016dc4059"], "sequence": 4294967294, "scriptSig": {"hex": "16001441a40be25ea76c15356b393b2a47f347fb75e1d8", "asm": "001441a40be25ea76c15356b393b2a47f347fb75e1d8"}, "vout": 1, "txid": "1fa93d7747126b47843b769eb4354a85108c29f9a40ca25140f679bc2deed95f"}, {"txinwitness": ["3045022100e15da6b200f997b7f30ff2b922b51a532a2ee41defbfea298c569b13c6028e12022007c6cee9f13caa39dcac23c8b9f1f48a77dfac06052ab8a3e4d529f9d588c3f201", "03c49cbfff28d1d92d36314708751d5c3b968192b0665231e7f560f8cd6e3c9ec1"], "sequence": 4294967294, "scriptSig": {"hex": "160014705dc8c235250aa1c01a846ea437ae75c0ab0c5c", "asm": "0014705dc8c235250aa1c01a846ea437ae75c0ab0c5c"}, "vout": 0, "txid": "f657a66b18dbb5af26efcd1ba7c11e1918ec064e16338c226f6d0aa06173cfda"}], "txid": "394605ce864b4ccd0d5cc3b8d97081989d10d47b438e8a4e4e2c6a1916cbc61c", "blocktime": 1537870268, "version": 2, "confirmations": 11518, "time": 1537870268, "locktime": 542988, "vsize": 259, "size": 421}